PL6.E3A0      #022=GETFD File=ISI$IOPROC.:E05TSI                                 TUE 07/29/97 22:53 Page:401
     1601        1        /*T***********************************************************/
     1602        2        /*T*                                                         */
     1603        3        /*T* Copyright (c) Bull HN Information Systems Inc., 1997    */
     1604        4        /*T*                                                         */
     1605        5        /*T***********************************************************/
     1606        6        GETFD:  PROC(BUF,L) ALTRET;
     1607        7        /* This programm gets a field from an input
     1608        8           buffer:BUF of length L                   */
     1609        9        /* Result:  -if only blanks-> ALTRET,
     1610       10                    -otherwise beginning of field->FIELD$,
     1611       11                               field length->FIELD_LEN,
     1612       12                               -if DECIMAL->DECIM_FLG='1'B,
     1613       13                               -otherwise->ALPHA_FLG='1'B.  */
     1614       14        /**/
     1615       15        %INCLUDE IS$MACROS;
     1616     1290        /**/
     1617     1291    1   DCL L UBIN WORD;
     1618     1292    1   DCL BUF CHAR(L);
     1619     1293        /**/
     1620     1294    1   DCL TERMINATORS CHAR(6) STATIC INIT(' =+-<>');
     1621     1295    1   DCL ALPHA_FLG STATIC SYMDEF BIT(1) INIT('0'B);
     1622     1296    1   DCL DECIM_FLG STATIC SYMDEF BIT(1) INIT('0'B);
     1623     1297    1   DCL FIELD$ STATIC SYMDEF PTR;
     1624     1298    1   DCL CURR$ PTR;
     1625     1299        %PTR_STRUCT(NAME=CURR_PTR,STCLASS="REDEF CURR$");
     1626     1317    1   DCL 1 CURR_BYTE REDEF CURR$,
     1627     1318    1         2 BYTEAD UBIN(20) UNAL,
     1628     1319    1         2 * BIT(16);
     1629     1320    1   DCL FIELD_LEN UBIN WORD STATIC SYMDEF;
     1630     1321    1   DCL CH CHAR(1) BASED(CURR$);
     1631     1322    1   DCL I UBIN;
     1632     1323    1   DCL J UBIN;
     1633     1324    1   DCL J1 UBIN;
     1634     1325        /**/
     1635     1326    1           DECIM_FLG='0'B;
     1636     1327    1           ALPHA_FLG='0'B;
     1637     1328    1           FIELD_LEN=0;
PL6.E3A0      #022=GETFD File=ISI$IOPROC.:E05TSI                                 TUE 07/29/97 22:53 Page:402
     1638     1329    1           FIELD$=ADDR(BUF);
     1639     1330    1           CURR$=ADDR(BUF);
     1640     1331    1           IF BUF=' ' THEN ALTRETURN;
     1641     1332    1             ELSE;
     1642     1333    2           DO I=0 TO L-1;
     1643     1334    2             IF CH~=' ' THEN GOTO BLKSBURNED;
     1644     1335    2               ELSE;                       /* Burn leading blanks                */
     1645     1336        /* Update pointer */
     1646     1337    2             CURR_BYTE.BYTEAD=CURR_BYTE.BYTEAD+1;
     1647     1338    2           END;                            /* DO                                 */
     1648     1339    1   BLKSBURNED:
     1649     1340    1           FIELD$=CURR$;
     1650     1341    2           DO J=I TO L-1;
     1651     1342    2             CALL INDEX(J1,CH,TERMINATORS); /* Terminator ?                      */
     1652     1343    3             IF J1>=6 THEN DO;             /* No                                 */
     1653     1344        /* Find out what kind of a character this is */
     1654     1345    3                   IF ASCBIN(CH)>=ASCBIN('0')&ASCBIN(CH)<=ASCBIN('9') THEN GOTO ITSDEC;
     1655     1346    3                     ELSE;
     1656     1347    3   ITSALPH:
     1657     1348    3                   IF DECIM_FLG='1'B THEN GOTO THATSALL;
     1658     1349    3                     ELSE;
     1659     1350    3                   ALPHA_FLG='1'B;
     1660     1351    3                   GOTO UPD_POINT;
     1661     1352    3   ITSDEC:
     1662     1353    3                   IF ALPHA_FLG='1'B THEN GOTO THATSALL;
     1663     1354    3                     ELSE;
     1664     1355    3                   DECIM_FLG='1'B;
     1665     1356    3                   GOTO UPD_POINT;
     1666     1357    3   THATSALL:
     1667     1358    3                   FIELD_LEN=J-I;
     1668     1359    3                   IF FIELD_LEN=0 THEN ALTRETURN;
     1669     1360    3                   RETURN;
     1670     1361    3   UPD_POINT:
     1671     1362    3                   CURR_BYTE.BYTEAD=CURR_BYTE.BYTEAD+1;
     1672     1363    3                 END;                      /* THEN                               */
     1673     1364    2               ELSE GOTO THATSALL;
     1674     1365    2           END;                            /* DO                                 */
PL6.E3A0      #022=GETFD File=ISI$IOPROC.:E05TSI                                 TUE 07/29/97 22:53 Page:403
     1675     1366    1           FIELD_LEN=L-I;
     1676     1367    1           RETURN;
     1677     1368    1   END GETFD;
     1678     1369        %EOD;

PL6.E3A0      #022=GETFD File=ISI$IOPROC.:E05TSI                                 TUE 07/29/97 22:53 Page:404
--  Include file information  --

   IS$MACROS.:E05TOU  is referenced.
      No diagnostics issued in procedure GETFD.

   Procedure GETFD requires 106 words for executable code.
   Procedure GETFD requires 14 words of local(AUTO) storage.

PL6.E3A0      #022=GETFD File=ISI$IOPROC.:E05TSI                                 TUE 07/29/97 22:53 Page:405

 Object Unit name= GETFD                                      File name= ISI$IOPROC.:E05TOU
 UTS= JUL 29 '97 22:53:29.60 TUE                              Compiler= PL-6/E31         Sev=      00
 SharedLib= :SHARED_SYSTEM                                    Alt SharedLib=


    ****  Control sections  ****

 Sect   Type Bound  Init  Size OctSiz  Section name(segment info)
    0   Data  even  none     6      6  GETFD
    1   Proc  even  none   106    152  GETFD

    ****  Entry defs  ****

                              Check   Calling
                             calling  sequence
  Sect OctLoc Primary Altret sequence   type   Parms  Name
     1      0   yes    yes     yes      Std        2  GETFD

  ****  Data defs  ****

 Sect OctLoc  Name                           Sect OctLoc  Name
    0      2  ALPHA_FLG                          0      3  DECIM_FLG
    0      4  FIELD$                             0      5  FIELD_LEN

  ****  Entry refs  ****

         Check        Calling
        calling       sequence
Altret sequence SRef   type   Args  Name
                       nStd      0 X66_AUTO_2
                       Std       0 B_CONSPOOL_D
                       nStd      0 X66_AALT
                       nStd      0 X66_ARET
PL6.E3A0      #022=GETFD File=ISI$IOPROC.:E05TSI                                 TUE 07/29/97 22:53 Page:406

  ****  Data refs  ****

  Flags:  r = read only, s = secondary
Flgs Name                             Flgs Name                             Flgs Name
     B_VECTNIL
PL6.E3A0      #022=GETFD File=ISI$IOPROC.:E05TSI                                 TUE 07/29/97 22:53 Page:407


     1601        1        /*T***********************************************************/
     1602        2        /*T*                                                         */
     1603        3        /*T* Copyright (c) Bull HN Information Systems Inc., 1997    */
     1604        4        /*T*                                                         */
     1605        5        /*T***********************************************************/
     1606        6        GETFD:  PROC(BUF,L) ALTRET;

      6  1 000000   000000 700200 xent  GETFD        TSX0  ! X66_AUTO_2
         1 000001   000016 000002                    ZERO    14,2

     1607        7        /* This programm gets a field from an input
     1608        8           buffer:BUF of length L                   */
     1609        9        /* Result:  -if only blanks-> ALTRET,
     1610       10                    -otherwise beginning of field->FIELD$,
     1611       11                               field length->FIELD_LEN,
     1612       12                               -if DECIMAL->DECIM_FLG='1'B,
     1613       13                               -otherwise->ALPHA_FLG='1'B.  */
     1614       14        /**/
     1615       15        %INCLUDE IS$MACROS;
     1616     1290        /**/
     1617     1291    1   DCL L UBIN WORD;
     1618     1292    1   DCL BUF CHAR(L);
     1619     1293        /**/
     1620     1294    1   DCL TERMINATORS CHAR(6) STATIC INIT(' =+-<>');
     1621     1295    1   DCL ALPHA_FLG STATIC SYMDEF BIT(1) INIT('0'B);
     1622     1296    1   DCL DECIM_FLG STATIC SYMDEF BIT(1) INIT('0'B);
     1623     1297    1   DCL FIELD$ STATIC SYMDEF PTR;
     1624     1298    1   DCL CURR$ PTR;
     1625     1299        %PTR_STRUCT(NAME=CURR_PTR,STCLASS="REDEF CURR$");
     1626     1317    1   DCL 1 CURR_BYTE REDEF CURR$,
     1627     1318    1         2 BYTEAD UBIN(20) UNAL,
     1628     1319    1         2 * BIT(16);
     1629     1320    1   DCL FIELD_LEN UBIN WORD STATIC SYMDEF;
     1630     1321    1   DCL CH CHAR(1) BASED(CURR$);
     1631     1322    1   DCL I UBIN;
     1632     1323    1   DCL J UBIN;
PL6.E3A0      #022=GETFD File=ISI$IOPROC.:E05TSI                                 TUE 07/29/97 22:53 Page:408
     1633     1324    1   DCL J1 UBIN;
     1634     1325        /**/
     1635     1326    1           DECIM_FLG='0'B;

   1326  1 000002   000003 450000 0                  STZ     DECIM_FLG

     1636     1327    1           ALPHA_FLG='0'B;

   1327  1 000003   000002 450000 0                  STZ     ALPHA_FLG

     1637     1328    1           FIELD_LEN=0;

   1328  1 000004   000005 450000 0                  STZ     FIELD_LEN

     1638     1329    1           FIELD$=ADDR(BUF);

   1329  1 000005   200003 236100                    LDQ     @BUF,,AUTO
         1 000006   000004 756000 0                  STQ     FIELD$

     1639     1330    1           CURR$=ADDR(BUF);

   1330  1 000007   200005 756100                    STQ     CURR$,,AUTO

     1640     1331    1           IF BUF=' ' THEN ALTRETURN;

   1331  1 000010   200004 470500                    LDP0    @L,,AUTO
         1 000011   000000 720100                    LXL0    0,,PR0
         1 000012   200003 471500                    LDP1    @BUF,,AUTO
         1 000013   040000 106540                    CMPC    fill='040'O
         1 000014   100000 000010                    ADSC9   0,,PR1                   cn=0,n=*X0
         1 000015   000035 000001 xsym               ADSC9   B_VECTNIL+29             cn=0,n=1
         1 000016   000020 601000 1                  TNZ     s:1333

   1331  1 000017   000000 702200 xent               TSX2  ! X66_AALT

     1641     1332    1             ELSE;
     1642     1333    2           DO I=0 TO L-1;
PL6.E3A0      #022=GETFD File=ISI$IOPROC.:E05TSI                                 TUE 07/29/97 22:53 Page:409

   1333  1 000020   200006 450100                    STZ     I,,AUTO
         1 000021   000041 710000 1                  TRA     s:1338+3

     1643     1334    2             IF CH~=' ' THEN GOTO BLKSBURNED;

   1334  1 000022   200005 470500                    LDP0    CURR$,,AUTO
         1 000023   040000 106500                    CMPC    fill='040'O
         1 000024   000000 000001                    ADSC9   0,,PR0                   cn=0,n=1
         1 000025   000035 000001 xsym               ADSC9   B_VECTNIL+29             cn=0,n=1
         1 000026   000045 601000 1                  TNZ     BLKSBURNED

     1644     1335    2               ELSE;                       /* Burn leading blanks                */
     1645     1336        /* Update pointer */
     1646     1337    2             CURR_BYTE.BYTEAD=CURR_BYTE.BYTEAD+1;

   1337  1 000027   200005 236100                    LDQ     CURR$,,AUTO
         1 000030   000020 772000                    QRL     16
         1 000031   000001 036007                    ADLQ    1,DL
         1 000032   000020 736000                    QLS     16
         1 000033   200005 676100                    ERQ     CURR$,,AUTO
         1 000034   000034 376000 xsym               ANQ     B_VECTNIL+28
         1 000035   200005 656100                    ERSQ    CURR$,,AUTO

     1647     1338    2           END;                            /* DO                                 */

   1338  1 000036   200006 235100                    LDA     I,,AUTO
         1 000037   000001 035007                    ADLA    1,DL
         1 000040   200006 755100                    STA     I,,AUTO
         1 000041   200004 470500                    LDP0    @L,,AUTO
         1 000042   200006 236100                    LDQ     I,,AUTO
         1 000043   000000 116100                    CMPQ    0,,PR0
         1 000044   000022 602000 1                  TNC     s:1334

     1648     1339    1   BLKSBURNED:
     1649     1340    1           FIELD$=CURR$;

PL6.E3A0      #022=GETFD File=ISI$IOPROC.:E05TSI                                 TUE 07/29/97 22:53 Page:410
   1340  1 000045   200005 236100       BLKSBURNED   LDQ     CURR$,,AUTO
         1 000046   000004 756000 0                  STQ     FIELD$

     1650     1341    2           DO J=I TO L-1;

   1341  1 000047   200006 235100                    LDA     I,,AUTO
         1 000050   200007 755100                    STA     J,,AUTO
         1 000051   000142 710000 1                  TRA     s:1365+3

     1651     1342    2             CALL INDEX(J1,CH,TERMINATORS); /* Terminator ?                      */

   1342  1 000052   200005 470500                    LDP0    CURR$,,AUTO
         1 000053   000100 124400                    SCM     mask='000'O
         1 000054   000000 000006 0                  ADSC9   TERMINATORS              cn=0,n=6
         1 000055   000000 000001                    ADSC9   0,,PR0                   cn=0,n=1
         1 000056   200010 000100                    ARG     J1,,AUTO

     1652     1343    3             IF J1>=6 THEN DO;             /* No                                 */

   1343  1 000057   200010 235100                    LDA     J1,,AUTO
         1 000060   000006 115007                    CMPA    6,DL
         1 000061   000121 602000 1                  TNC     THATSALL

     1653     1344        /* Find out what kind of a character this is */
     1654     1345    3                  IF ASCBIN(CH)>=ASCBIN('0')&ASCBIN(CH)<=ASCBIN('9') THEN GOTO ITSDEC;

   1345  1 000062   000100 101500                    MRL     fill='000'O
         1 000063   000000 000001                    ADSC9   0,,PR0                   cn=0,n=1
         1 000064   200012 000004                    ADSC9   J1+2,,AUTO               cn=0,n=4
         1 000065   200012 236100                    LDQ     J1+2,,AUTO
         1 000066   400000 220003                    LDX0    -131072,DU
         1 000067   000060 116007                    CMPQ    48,DL
         1 000070   000072 603000 1                  TRC     s:1345+8
         1 000071   000000 220003                    LDX0    0,DU
         1 000072   000100 101500                    MRL     fill='000'O
         1 000073   000000 000001                    ADSC9   0,,PR0                   cn=0,n=1
         1 000074   200013 000004                    ADSC9   J1+3,,AUTO               cn=0,n=4
PL6.E3A0      #022=GETFD File=ISI$IOPROC.:E05TSI                                 TUE 07/29/97 22:53 Page:411
         1 000075   200013 236100                    LDQ     J1+3,,AUTO
         1 000076   400000 221003                    LDX1    -131072,DU
         1 000077   000072 116007                    CMPQ    58,DL
         1 000100   000102 602000 1                  TNC     s:1345+16
         1 000101   000000 221003                    LDX1    0,DU
         1 000102   000000 636011                    EAQ     0,X1
         1 000103   200014 756100                    STQ     J1+4,,AUTO
         1 000104   000000 636010                    EAQ     0,X0
         1 000105   200014 376100                    ANQ     J1+4,,AUTO
         1 000106   000114 601000 1                  TNZ     ITSDEC

     1655     1346    3                     ELSE;
     1656     1347    3   ITSALPH:
     1657     1348    3                   IF DECIM_FLG='1'B THEN GOTO THATSALL;

   1348  1 000107   000003 234000 0     ITSALPH      SZN     DECIM_FLG
         1 000110   000121 604000 1                  TMI     THATSALL

     1658     1349    3                     ELSE;
     1659     1350    3                   ALPHA_FLG='1'B;

   1350  1 000111   400000 236003                    LDQ     -131072,DU
         1 000112   000002 756000 0                  STQ     ALPHA_FLG

     1660     1351    3                   GOTO UPD_POINT;

   1351  1 000113   000127 710000 1                  TRA     UPD_POINT

     1661     1352    3   ITSDEC:
     1662     1353    3                   IF ALPHA_FLG='1'B THEN GOTO THATSALL;

   1353  1 000114   000002 234000 0     ITSDEC       SZN     ALPHA_FLG
         1 000115   000121 604000 1                  TMI     THATSALL

     1663     1354    3                     ELSE;
     1664     1355    3                   DECIM_FLG='1'B;

PL6.E3A0      #022=GETFD File=ISI$IOPROC.:E05TSI                                 TUE 07/29/97 22:53 Page:412
   1355  1 000116   400000 236003                    LDQ     -131072,DU
         1 000117   000003 756000 0                  STQ     DECIM_FLG

     1665     1356    3                   GOTO UPD_POINT;

   1356  1 000120   000127 710000 1                  TRA     UPD_POINT

     1666     1357    3   THATSALL:
     1667     1358    3                   FIELD_LEN=J-I;

   1358  1 000121   200007 236100       THATSALL     LDQ     J,,AUTO
         1 000122   200006 136100                    SBLQ    I,,AUTO
         1 000123   000005 756000 0                  STQ     FIELD_LEN

     1668     1359    3                   IF FIELD_LEN=0 THEN ALTRETURN;

   1359  1 000124   000126 601000 1                  TNZ     s:1360

   1359  1 000125   000000 702200 xent               TSX2  ! X66_AALT

     1669     1360    3                   RETURN;

   1360  1 000126   000000 702200 xent               TSX2  ! X66_ARET

     1670     1361    3   UPD_POINT:
     1671     1362    3                   CURR_BYTE.BYTEAD=CURR_BYTE.BYTEAD+1;

   1362  1 000127   200005 236100       UPD_POINT    LDQ     CURR$,,AUTO
         1 000130   000020 772000                    QRL     16
         1 000131   000001 036007                    ADLQ    1,DL
         1 000132   000020 736000                    QLS     16
         1 000133   200005 676100                    ERQ     CURR$,,AUTO
         1 000134   000034 376000 xsym               ANQ     B_VECTNIL+28
         1 000135   200005 656100                    ERSQ    CURR$,,AUTO

     1672     1363    3                 END;                      /* THEN                               */

PL6.E3A0      #022=GETFD File=ISI$IOPROC.:E05TSI                                 TUE 07/29/97 22:53 Page:413
   1363  1 000136   000137 710000 1                  TRA     s:1365

     1673     1364    2               ELSE GOTO THATSALL;
     1674     1365    2           END;                            /* DO                                 */

   1365  1 000137   200007 236100                    LDQ     J,,AUTO
         1 000140   000001 036007                    ADLQ    1,DL
         1 000141   200007 756100                    STQ     J,,AUTO
         1 000142   200004 470500                    LDP0    @L,,AUTO
         1 000143   200007 236100                    LDQ     J,,AUTO
         1 000144   000000 116100                    CMPQ    0,,PR0
         1 000145   000052 602000 1                  TNC     s:1342

     1675     1366    1           FIELD_LEN=L-I;

   1366  1 000146   000000 236100                    LDQ     0,,PR0
         1 000147   200006 136100                    SBLQ    I,,AUTO
         1 000150   000005 756000 0                  STQ     FIELD_LEN

     1676     1367    1           RETURN;

   1367  1 000151   000000 702200 xent               TSX2  ! X66_ARET
     1677     1368    1   END GETFD;
     1678     1369        %EOD;

PL6.E3A0      #022=GETFD File=ISI$IOPROC.:E05TSI                                 TUE 07/29/97 22:53 Page:414
--  Include file information  --

   IS$MACROS.:E05TOU  is referenced.
      No diagnostics issued in procedure GETFD.
PL6.E3A0      #022=GETFD File=ISI$IOPROC.:E05TSI                                 TUE 07/29/97 22:53 Page:415

 **** Variables and constants ****

  ****  Section 000  Data  GETFD

  ****  Scalars and arrays  ****
OctLoc.c.b A Datatyp(siz) R M Lvl/name                 OctLoc.c.b A Datatyp(siz) R M Lvl/name

     2-0-0/b BIT         r     1 ALPHA_FLG                  3-0-0/b BIT         r     1 DECIM_FLG
     4-0-0/w PTR         r     1 FIELD$                     5-0-0/w UBIN        r     1 FIELD_LEN
     0-0-0/c CHAR(6)     r     1 TERMINATORS

  ****  Auto variables  ****

  ****  Scalars and arrays  ****
OctLoc.c.b A Datatyp(siz) R M Lvl/name                 OctLoc.c.b A Datatyp(siz) R M Lvl/name

     3-0-0/w PTR         r     1 @BUF                       4-0-0/w PTR         r     1 @L
    *0-0-0/c ACHR        r     1 BUF                        5-0-0/w PTR         r     1 CURR$
     5-0-0/w STRC        r     1 CURR_BYTE                  6-0-0/w UBIN        r     1 I
     7-0-0/w UBIN        r     1 J                         10-0-0/w UBIN        r     1 J1
    *0-0-0/w UBIN        r     1 L

  ****  BASED and DCB variables  ****

  ****  Scalars and arrays  ****
OctLoc.c.b A Datatyp(siz) R M Lvl/name                 OctLoc.c.b A Datatyp(siz) R M Lvl/name

     0-0-0/c CHAR        r     1 CH


   Procedure GETFD requires 106 words for executable code.
   Procedure GETFD requires 14 words of local(AUTO) storage.
PL6.E3A0      #022=GETFD File=ISI$IOPROC.:E05TSI                                 TUE 07/29/97 22:53 Page:416
          *** CROSS REFERENCE LISTING ***
**     DENOTES     IDENTIFIER DEFINITION
<<                 IDENTIFIER'S VALUE SET
>>                 IDENTIFIER'S VALUE USED
<>                 IDENTIFIER SET AND/OR USED
--                 IDENTIFIER REFERENCED
PL6.E3A0      #022=GETFD File=ISI$IOPROC.:E05TSI                                 TUE 07/29/97 22:53 Page:417
          MINI XREF LISTING

ALPHA_FLG
      1295**DCL      1327<<ASSIGN   1350<<ASSIGN   1353>>IF
BLKSBURNED
      1340**LABEL    1334--GOTO
BUF
      1292**DCL         6--PROC     1329--ASSIGN   1330--ASSIGN   1331>>IF
CH
      1321**DCL      1334>>IF       1342>>CALLBLT  1345>>IF       1345>>IF
CURR$
      1298**DCL      1310--REDEF    1317--REDEF    1321--IMP-PTR  1330<<ASSIGN   1334>>IF       1340>>ASSIGN
      1342>>CALLBLT  1345>>IF       1345>>IF
CURR_BYTE.BYTEAD
      1318**DCL      1337<<ASSIGN   1337>>ASSIGN   1362<<ASSIGN   1362>>ASSIGN
DECIM_FLG
      1296**DCL      1326<<ASSIGN   1348>>IF       1355<<ASSIGN
FIELD$
      1297**DCL      1329<<ASSIGN   1340<<ASSIGN
FIELD_LEN
      1320**DCL      1328<<ASSIGN   1358<<ASSIGN   1359>>IF       1366<<ASSIGN
I
      1322**DCL      1333<<DOINDEX  1341>>DOINDEX  1358>>ASSIGN   1366>>ASSIGN
ITSDEC
      1353**LABEL    1345--GOTO
J
      1323**DCL      1341<<DOINDEX  1358>>ASSIGN
J1
      1324**DCL      1342<<CALLBLT  1343>>IF
L
      1291**DCL         6--PROC     1292--IMP-SIZ  1331>>IF       1333>>DOINDEX  1341>>DOINDEX  1366>>ASSIGN
TERMINATORS
      1294**DCL      1342>>CALLBLT
THATSALL
PL6.E3A0      #022=GETFD File=ISI$IOPROC.:E05TSI                                 TUE 07/29/97 22:53 Page:418
      1358**LABEL    1348--GOTO     1353--GOTO     1364--GOTO
UPD_POINT
      1362**LABEL    1351--GOTO     1356--GOTO

PL6.E3A0      #023=GT_SYSPACKAD File=ISI$IOPROC.:E05TSI                          TUE 07/29/97 22:53 Page:419
     1679        1        /*T***********************************************************/
     1680        2        /*T*                                                         */
     1681        3        /*T* Copyright (c) Bull HN Information Systems Inc., 1997    */
     1682        4        /*T*                                                         */
     1683        5        /*T***********************************************************/
     1684        6        GT_SYSPACKAD:PROC(INDX);
     1685        7        /* This program obtains the address of a disk pack */
     1686        8        /* For system pack : CALL GT_SYSPACKAD ,
     1687        9           for another pack: CALL GT_PACKAD      */
     1688       10        %INCLUDE IS$MACROS;
     1689     1285    1   DCL INDX UBIN WORD;
     1690     1286        %DEVINFO(STCLASS="SYMREF");
     1691     1355        %TEXTC(N#=SYSDPQ,M#="' System pack (I-CCC-UU) = '");
     1692     1360        %TEXTC(N#=DPQ,M#="' Pack (I-CCC-UU) = '");
     1693     1365    1   DCL MESSAGE$ PTR;
     1694     1366    1   DCL 1 TEXTM BASED(MESSAGE$),
     1695     1367    1         2 CNT UBIN WORD,
     1696     1368    1         2 TXT CHAR(TEXTM.CNT);
     1697     1369    1   DCL 1 ANSBUF SYMREF,
     1698     1370    1         2 CNT UBIN WORD,
     1699     1371    1         2 TXT CHAR(16);
     1700     1372        /* GETFD results */
     1701     1373    1   DCL ALPHA_FLG BIT(1) SYMREF;
     1702     1374    1   DCL 1 ADPXF SYMREF,
     1703     1375    1         2 A BIT(1),
     1704     1376    1         2 D BIT(1),
     1705     1377    1         2 P BIT(1),
     1706     1378    1         2 X BIT(1),
     1707     1379    1         2 F BIT(1);
     1708     1380    1   DCL FIELD$ PTR SYMREF;
     1709     1381    1   DCL FIELD_LEN UBIN WORD SYMREF;
     1710     1382    1   DCL RPM_FLG BIT(1) SYMREF;
     1711     1383    1   DCL   HIGHEST_CHAN UBIN ;
     1712     1384    1   DCL ANS CHAR(16) BASED(FIELD$);
     1713     1385        /**/
     1714     1386    1   DCL   DO_RPM_CFG ENTRY(1) ALTRET;
     1715     1387    1   DCL KEYIN ENTRY(2) ALTRET;
PL6.E3A0      #023=GT_SYSPACKAD File=ISI$IOPROC.:E05TSI                          TUE 07/29/97 22:53 Page:420
     1716     1388    1   DCL GETFD ENTRY(2) ALTRET;
     1717     1389        /**/
     1718     1390    1   DCL NUMBER UBIN WORD;
     1719     1391    1   DCL   SP_IOM UBIN WORD;
     1720     1392    1   DCL   SP_CHN UBIN WORD;
     1721     1393    1   DCL DIG# UBIN WORD;
     1722     1394        /**/
     1723     1395    1           IF ADPXF.D='0'B THEN RETURN;
     1724     1396    1           HIGHEST_CHAN = %HIGH_CHAN;
     1725     1397    1           IF RPM_FLG THEN
     1726     1398    1             HIGHEST_CHAN = %HIGH_RPM_CHAN;
     1727     1399    1           MESSAGE$=ADDR(SYSDPQ);
     1728     1400    1           SUBSTR(TEXTM.TXT,14,8)=SUBSTR(DEVINFO.DEVNAME(INDX),0,8);
     1729     1401    1   ASK:
     1730     1402    1           CALL KEYIN(TEXTM,ANSBUF);
     1731     1403    1           CALL GETFD(ANSBUF.TXT,16) ALTRET(RETPACK); /* Get IOM#                */
     1732     1404    1           IF ALPHA_FLG='1'B THEN GOTO ASK;
     1733     1405    1             ELSE;
     1734     1406    1           CALL CHARBIN(SP_IOM,SUBSTR(ANS,0,FIELD_LEN));
     1735     1407    1           IF SP_IOM>%HIGHEST_IOM THEN GOTO ASK;
     1736     1408    1           IF RPM_FLG THEN
     1737     1409    1             CALL DO_RPM_CFG(SP_IOM);
     1738     1410    1           DIG#=FIELD_LEN+1;
     1739     1411    1           CALL GETFD(SUBSTR(ANSBUF.TXT,DIG#),16-DIG#) ALTRET(ASK); /* Get Channel# */
     1740     1412    1           IF ALPHA_FLG='1'B THEN GOTO ASK;
     1741     1413    1             ELSE;
     1742     1414    1           CALL CHARBIN(SP_CHN,SUBSTR(ANS,0,FIELD_LEN));
     1743     1415    1           IF SP_CHN > HIGHEST_CHAN THEN GOTO ASK;
     1744     1416    1           DIG#=DIG#+FIELD_LEN+1;
     1745     1417    1           CALL GETFD(SUBSTR(ANSBUF.TXT,DIG#),16-DIG#) ALTRET(ASK); /* Get Unit# */
     1746     1418    1           IF ALPHA_FLG='1'B THEN GOTO ASK;
     1747     1419    1             ELSE;
     1748     1420    1           CALL CHARBIN(NUMBER,SUBSTR(ANS,0,FIELD_LEN));
     1749     1421    1           DEVINFO.IOM#(INDX)=SP_IOM;
     1750     1422    1           DEVINFO.CHN#(INDX)=SP_CHN;
     1751     1423    1           DEVINFO.DEV#(INDX)=NUMBER;
     1752     1424    1           CALL BINCHAR(SUBSTR(DEVINFO.DEVNAME(INDX),0,1),DEVINFO.IOM#(INDX));
PL6.E3A0      #023=GT_SYSPACKAD File=ISI$IOPROC.:E05TSI                          TUE 07/29/97 22:53 Page:421
     1753     1425    1           CALL BINCHAR(SUBSTR(DEVINFO.DEVNAME(INDX),2,3),DEVINFO.CHN#(INDX));
     1754     1426    1           CALL BINCHAR(SUBSTR(DEVINFO.DEVNAME(INDX),6,2),DEVINFO.DEV#(INDX));
     1755     1427    1   RETPACK:
     1756     1428    1           RETURN;
     1757     1429    1   GT_PACK:ENTRY(INDX);
     1758     1430    1           MESSAGE$=ADDR(DPQ);
     1759     1431    1           SUBSTR(TEXTM.TXT,7,8)=SUBSTR(DEVINFO.DEVNAME(INDX),0,8);
     1760     1432    1           GOTO ASK;
     1761     1433    1   END GT_SYSPACKAD;
     1762     1434        %EOD;

PL6.E3A0      #023=GT_SYSPACKAD File=ISI$IOPROC.:E05TSI                          TUE 07/29/97 22:53 Page:422
--  Include file information  --

   IS$MACROS.:E05TOU  is referenced.
      No diagnostics issued in procedure GT_SYSPACKAD.

   Procedure GT_SYSPACKAD requires 196 words for executable code.
   Procedure GT_SYSPACKAD requires 14 words of local(AUTO) storage.

PL6.E3A0      #023=GT_SYSPACKAD File=ISI$IOPROC.:E05TSI                          TUE 07/29/97 22:53 Page:423

 Object Unit name= GT_SYSPACKAD                               File name= ISI$IOPROC.:E05TOU
 UTS= JUL 29 '97 22:53:33.40 TUE                              Compiler= PL-6/E31         Sev=      00
 SharedLib= :SHARED_SYSTEM                                    Alt SharedLib=


    ****  Control sections  ****

 Sect   Type Bound  Init  Size OctSiz  Section name(segment info)
    0   Data  even  none    14     16  GT_SYSPACKAD
    1   Proc  even  none   196    304  GT_SYSPACKAD
    2  RoData even  none     6      6  GT_SYSPACKAD

    ****  Entry defs  ****

                              Check   Calling
                             calling  sequence
  Sect OctLoc Primary Altret sequence   type   Parms  Name
     1      0   yes            yes      Std        1  GT_SYSPACKAD
     1    266                  yes      Std        1  GT_PACK

  ****  Data defs  ****

 Sect OctLoc  Name                           Sect OctLoc  Name
    0      0  SYSDPQ                             0     10  DPQ

  ****  Entry refs  ****

         Check        Calling
        calling       sequence
Altret sequence SRef   type   Args  Name
 yes     yes           Std       2 KEYIN
 yes     yes           Std       2 GETFD
 yes     yes           Std       1 DO_RPM_CFG
                       nStd      0 X66_AUTO_1
                       nStd      0 X66_ARET
                       Std       0 B_CONSPOOL_D
PL6.E3A0      #023=GT_SYSPACKAD File=ISI$IOPROC.:E05TSI                          TUE 07/29/97 22:53 Page:424

  ****  Data refs  ****

  Flags:  r = read only, s = secondary
Flgs Name                             Flgs Name                             Flgs Name
     DEVINFO                               ANSBUF                                ALPHA_FLG
     ADPXF                                 FIELD$                                FIELD_LEN
     RPM_FLG                               B_VECTNIL

  ****  Segment refs  ****

  Flags:  r = read only, s = secondary
Flgs Name                             Flgs Name                             Flgs Name
     ISSID
PL6.E3A0      #023=GT_SYSPACKAD File=ISI$IOPROC.:E05TSI                          TUE 07/29/97 22:53 Page:425


     1679        1        /*T***********************************************************/
     1680        2        /*T*                                                         */
     1681        3        /*T* Copyright (c) Bull HN Information Systems Inc., 1997    */
     1682        4        /*T*                                                         */
     1683        5        /*T***********************************************************/
     1684        6        GT_SYSPACKAD:PROC(INDX);

      6  1 000000   000000 700200 xent  GT_SYSPACKAD TSX0  ! X66_AUTO_1
         1 000001   000016 000001                    ZERO    14,1

     1685        7        /* This program obtains the address of a disk pack */
     1686        8        /* For system pack : CALL GT_SYSPACKAD ,
     1687        9           for another pack: CALL GT_PACKAD      */
     1688       10        %INCLUDE IS$MACROS;
     1689     1285    1   DCL INDX UBIN WORD;
     1690     1286        %DEVINFO(STCLASS="SYMREF");
     1691     1355        %TEXTC(N#=SYSDPQ,M#="' System pack (I-CCC-UU) = '");
     1692     1360        %TEXTC(N#=DPQ,M#="' Pack (I-CCC-UU) = '");
     1693     1365    1   DCL MESSAGE$ PTR;
     1694     1366    1   DCL 1 TEXTM BASED(MESSAGE$),
     1695     1367    1         2 CNT UBIN WORD,
     1696     1368    1         2 TXT CHAR(TEXTM.CNT);
     1697     1369    1   DCL 1 ANSBUF SYMREF,
     1698     1370    1         2 CNT UBIN WORD,
     1699     1371    1         2 TXT CHAR(16);
     1700     1372        /* GETFD results */
     1701     1373    1   DCL ALPHA_FLG BIT(1) SYMREF;
     1702     1374    1   DCL 1 ADPXF SYMREF,
     1703     1375    1         2 A BIT(1),
     1704     1376    1         2 D BIT(1),
     1705     1377    1         2 P BIT(1),
     1706     1378    1         2 X BIT(1),
     1707     1379    1         2 F BIT(1);
     1708     1380    1   DCL FIELD$ PTR SYMREF;
     1709     1381    1   DCL FIELD_LEN UBIN WORD SYMREF;
     1710     1382    1   DCL RPM_FLG BIT(1) SYMREF;
PL6.E3A0      #023=GT_SYSPACKAD File=ISI$IOPROC.:E05TSI                          TUE 07/29/97 22:53 Page:426
     1711     1383    1   DCL   HIGHEST_CHAN UBIN ;
     1712     1384    1   DCL ANS CHAR(16) BASED(FIELD$);
     1713     1385        /**/
     1714     1386    1   DCL   DO_RPM_CFG ENTRY(1) ALTRET;
     1715     1387    1   DCL KEYIN ENTRY(2) ALTRET;
     1716     1388    1   DCL GETFD ENTRY(2) ALTRET;
     1717     1389        /**/
     1718     1390    1   DCL NUMBER UBIN WORD;
     1719     1391    1   DCL   SP_IOM UBIN WORD;
     1720     1392    1   DCL   SP_CHN UBIN WORD;
     1721     1393    1   DCL DIG# UBIN WORD;
     1722     1394        /**/
     1723     1395    1           IF ADPXF.D='0'B THEN RETURN;

   1395  1 000002   000000 236000 xsym               LDQ     ADPXF
         1 000003   200000 316003                    CANQ    65536,DU
         1 000004   000006 601000 1                  TNZ     s:1396

   1395  1 000005   000000 702200 xent               TSX2  ! X66_ARET

     1724     1396    1           HIGHEST_CHAN = %HIGH_CHAN;

   1396  1 000006   000077 235007                    LDA     63,DL
         1 000007   200005 755100                    STA     HIGHEST_CHAN,,AUTO

     1725     1397    1           IF RPM_FLG THEN

   1397  1 000010   000000 234000 xsym               SZN     RPM_FLG
         1 000011   000014 605000 1                  TPL     s:1399

     1726     1398    1             HIGHEST_CHAN = %HIGH_RPM_CHAN;

   1398  1 000012   000177 235007                    LDA     127,DL
         1 000013   200005 755100                    STA     HIGHEST_CHAN,,AUTO

     1727     1399    1           MESSAGE$=ADDR(SYSDPQ);

PL6.E3A0      #023=GT_SYSPACKAD File=ISI$IOPROC.:E05TSI                          TUE 07/29/97 22:53 Page:427
   1399  1 000014   000000 236000 2                  LDQ     0
         1 000015   200004 756100                    STQ     MESSAGE$,,AUTO

     1728     1400    1           SUBSTR(TEXTM.TXT,14,8)=SUBSTR(DEVINFO.DEVNAME(INDX),0,8);

   1400  1 000016   200004 470500                    LDP0    MESSAGE$,,AUTO
         1 000017   000000 720100                    LXL0    0,,PR0
         1 000020   200003 471500                    LDP1    @INDX,,AUTO
         1 000021   100000 236100                    LDQ     0,,PR1
         1 000022   000006 402007                    MPY     6,DL
         1 000023   000003 736000                    QLS     3
         1 000024   040100 100406                    MLR     fill='040'O
         1 000025   000006 000010 xsym               ADSC9   DEVINFO+6,Q              cn=0,n=8
         1 000026   000004 400010                    ADSC9   4,,PR0                   cn=2,n=8

     1729     1401    1   ASK:
     1730     1402    1           CALL KEYIN(TEXTM,ANSBUF);

   1402  1 000027   000001 236000 2     ASK          LDQ     1
         1 000030   200004 235100                    LDA     MESSAGE$,,AUTO
         1 000031   200012 757100                    STAQ    DIG#+1,,AUTO
         1 000032   200012 630500                    EPPR0   DIG#+1,,AUTO
         1 000033   000020 631400 xsym               EPPR1   B_VECTNIL+16
         1 000034   000000 701000 xent               TSX1    KEYIN
         1 000035   000000 011000                    NOP     0

     1731     1403    1           CALL GETFD(ANSBUF.TXT,16) ALTRET(RETPACK); /* Get IOM#                */

   1403  1 000036   000003 630400 2                  EPPR0   3
         1 000037   000020 631400 xsym               EPPR1   B_VECTNIL+16
         1 000040   000000 701000 xent               TSX1    GETFD
         1 000041   000265 702000 1                  TSX2    RETPACK

     1732     1404    1           IF ALPHA_FLG='1'B THEN GOTO ASK;

   1404  1 000042   000000 234000 xsym               SZN     ALPHA_FLG
         1 000043   000027 604000 1                  TMI     ASK
PL6.E3A0      #023=GT_SYSPACKAD File=ISI$IOPROC.:E05TSI                          TUE 07/29/97 22:53 Page:428

     1733     1405    1             ELSE;
     1734     1406    1           CALL CHARBIN(SP_IOM,SUBSTR(ANS,0,FIELD_LEN));

   1406  1 000044   000000 470400 xsym               LDP0    FIELD$
         1 000045   000000 720000 xsym               LXL0    FIELD_LEN
         1 000046   000100 305540                    DTB
         1 000047   000000 030010                    NDSC9   0,,PR0                   cn=0,s=nosgn,sf=0,n=*X0
         1 000050   200012 000010                    NDSC9   DIG#+1,,AUTO             cn=0,s=lsgnf,sf=0,n=8
         1 000051   200013 235100                    LDA     DIG#+2,,AUTO
         1 000052   200007 755100                    STA     SP_IOM,,AUTO

     1735     1407    1           IF SP_IOM>%HIGHEST_IOM THEN GOTO ASK;

   1407  1 000053   000004 115007                    CMPA    4,DL
         1 000054   000027 603000 1                  TRC     ASK

     1736     1408    1           IF RPM_FLG THEN

   1408  1 000055   000000 234000 xsym               SZN     RPM_FLG
         1 000056   000065 605000 1                  TPL     s:1410

     1737     1409    1             CALL DO_RPM_CFG(SP_IOM);

   1409  1 000057   200007 631500                    EPPR1   SP_IOM,,AUTO
         1 000060   200012 451500                    STP1    DIG#+1,,AUTO
         1 000061   200012 630500                    EPPR0   DIG#+1,,AUTO
         1 000062   000017 631400 xsym               EPPR1   B_VECTNIL+15
         1 000063   000000 701000 xent               TSX1    DO_RPM_CFG
         1 000064   000000 011000                    NOP     0

     1738     1410    1           DIG#=FIELD_LEN+1;

   1410  1 000065   000000 235000 xsym               LDA     FIELD_LEN
         1 000066   000001 035007                    ADLA    1,DL
         1 000067   200011 755100                    STA     DIG#,,AUTO

PL6.E3A0      #023=GT_SYSPACKAD File=ISI$IOPROC.:E05TSI                          TUE 07/29/97 22:53 Page:429
     1739     1411    1           CALL GETFD(SUBSTR(ANSBUF.TXT,DIG#),16-DIG#) ALTRET(ASK); /* Get Channel# */

   1411  1 000070   000027 675000 xsym               ERA     B_VECTNIL+23
         1 000071   000021 035007                    ADLA    17,DL
         1 000072   200012 755100                    STA     DIG#+1,,AUTO
         1 000073   200012 630500                    EPPR0   DIG#+1,,AUTO
         1 000074   200015 450500                    STP0    DIG#+4,,AUTO
         1 000075   200011 236100                    LDQ     DIG#,,AUTO
         1 000076   000020 736000                    QLS     16
         1 000077   000003 036000 2                  ADLQ    3
         1 000100   200014 756100                    STQ     DIG#+3,,AUTO
         1 000101   200014 630500                    EPPR0   DIG#+3,,AUTO
         1 000102   000020 631400 xsym               EPPR1   B_VECTNIL+16
         1 000103   000000 701000 xent               TSX1    GETFD
         1 000104   000027 702000 1                  TSX2    ASK

     1740     1412    1           IF ALPHA_FLG='1'B THEN GOTO ASK;

   1412  1 000105   000000 234000 xsym               SZN     ALPHA_FLG
         1 000106   000027 604000 1                  TMI     ASK

     1741     1413    1             ELSE;
     1742     1414    1           CALL CHARBIN(SP_CHN,SUBSTR(ANS,0,FIELD_LEN));

   1414  1 000107   000000 470400 xsym               LDP0    FIELD$
         1 000110   000000 720000 xsym               LXL0    FIELD_LEN
         1 000111   000100 305540                    DTB
         1 000112   000000 030010                    NDSC9   0,,PR0                   cn=0,s=nosgn,sf=0,n=*X0
         1 000113   200012 000010                    NDSC9   DIG#+1,,AUTO             cn=0,s=lsgnf,sf=0,n=8
         1 000114   200013 235100                    LDA     DIG#+2,,AUTO
         1 000115   200010 755100                    STA     SP_CHN,,AUTO

     1743     1415    1           IF SP_CHN > HIGHEST_CHAN THEN GOTO ASK;

   1415  1 000116   200005 236100                    LDQ     HIGHEST_CHAN,,AUTO
         1 000117   200010 116100                    CMPQ    SP_CHN,,AUTO
         1 000120   000027 602000 1                  TNC     ASK
PL6.E3A0      #023=GT_SYSPACKAD File=ISI$IOPROC.:E05TSI                          TUE 07/29/97 22:53 Page:430

     1744     1416    1           DIG#=DIG#+FIELD_LEN+1;

   1416  1 000121   200011 236100                    LDQ     DIG#,,AUTO
         1 000122   000000 036000 xsym               ADLQ    FIELD_LEN
         1 000123   000001 036007                    ADLQ    1,DL
         1 000124   200011 756100                    STQ     DIG#,,AUTO

     1745     1417    1           CALL GETFD(SUBSTR(ANSBUF.TXT,DIG#),16-DIG#) ALTRET(ASK); /* Get Unit# */

   1417  1 000125   000020 235007                    LDA     16,DL
         1 000126   200011 135100                    SBLA    DIG#,,AUTO
         1 000127   200012 755100                    STA     DIG#+1,,AUTO
         1 000130   200012 631500                    EPPR1   DIG#+1,,AUTO
         1 000131   200015 451500                    STP1    DIG#+4,,AUTO
         1 000132   000020 736000                    QLS     16
         1 000133   000003 036000 2                  ADLQ    3
         1 000134   200014 756100                    STQ     DIG#+3,,AUTO
         1 000135   200014 630500                    EPPR0   DIG#+3,,AUTO
         1 000136   000020 631400 xsym               EPPR1   B_VECTNIL+16
         1 000137   000000 701000 xent               TSX1    GETFD
         1 000140   000027 702000 1                  TSX2    ASK

     1746     1418    1           IF ALPHA_FLG='1'B THEN GOTO ASK;

   1418  1 000141   000000 234000 xsym               SZN     ALPHA_FLG
         1 000142   000027 604000 1                  TMI     ASK

     1747     1419    1             ELSE;
     1748     1420    1           CALL CHARBIN(NUMBER,SUBSTR(ANS,0,FIELD_LEN));

   1420  1 000143   000000 470400 xsym               LDP0    FIELD$
         1 000144   000000 720000 xsym               LXL0    FIELD_LEN
         1 000145   000100 305540                    DTB
         1 000146   000000 030010                    NDSC9   0,,PR0                   cn=0,s=nosgn,sf=0,n=*X0
         1 000147   200012 000010                    NDSC9   DIG#+1,,AUTO             cn=0,s=lsgnf,sf=0,n=8
         1 000150   200013 235100                    LDA     DIG#+2,,AUTO
PL6.E3A0      #023=GT_SYSPACKAD File=ISI$IOPROC.:E05TSI                          TUE 07/29/97 22:53 Page:431
         1 000151   200006 755100                    STA     NUMBER,,AUTO

     1749     1421    1           DEVINFO.IOM#(INDX)=SP_IOM;

   1421  1 000152   200003 471500                    LDP1    @INDX,,AUTO
         1 000153   100000 236100                    LDQ     0,,PR1
         1 000154   000006 402007                    MPY     6,DL
         1 000155   000001 736000                    QLS     1
         1 000156   000000 621006                    EAX1    0,QL
         1 000157   200007 236100                    LDQ     SP_IOM,,AUTO
         1 000160   000023 736000                    QLS     19
         1 000161   000000 676011 xsym               ERQ     DEVINFO,X1
         1 000162   000006 376003                    ANQ     6,DU
         1 000163   000000 656011 xsym               ERSQ    DEVINFO,X1

     1750     1422    1           DEVINFO.CHN#(INDX)=SP_CHN;

   1422  1 000164   100000 236100                    LDQ     0,,PR1
         1 000165   000006 402007                    MPY     6,DL
         1 000166   000001 736000                    QLS     1
         1 000167   000000 621006                    EAX1    0,QL
         1 000170   200010 236100                    LDQ     SP_CHN,,AUTO
         1 000171   000033 736000                    QLS     27
         1 000172   000000 676011 xsym               ERQ     DEVINFO,X1
         1 000173   777000 376003                    ANQ     -512,DU
         1 000174   000000 656011 xsym               ERSQ    DEVINFO,X1

     1751     1423    1           DEVINFO.DEV#(INDX)=NUMBER;

   1423  1 000175   100000 236100                    LDQ     0,,PR1
         1 000176   000006 402007                    MPY     6,DL
         1 000177   000001 736000                    QLS     1
         1 000200   000000 621006                    EAX1    0,QL
         1 000201   200006 236100                    LDQ     NUMBER,,AUTO
         1 000202   000025 736000                    QLS     21
         1 000203   000000 676011 xsym               ERQ     DEVINFO,X1
         1 000204   000770 376003                    ANQ     504,DU
PL6.E3A0      #023=GT_SYSPACKAD File=ISI$IOPROC.:E05TSI                          TUE 07/29/97 22:53 Page:432
         1 000205   000000 656011 xsym               ERSQ    DEVINFO,X1

     1752     1424    1           CALL BINCHAR(SUBSTR(DEVINFO.DEVNAME(INDX),0,1),DEVINFO.IOM#(INDX));

   1424  1 000206   100000 236100                    LDQ     0,,PR1
         1 000207   000006 402007                    MPY     6,DL
         1 000210   000000 621006                    EAX1    0,QL
         1 000211   000003 736000                    QLS     3
         1 000212   000000 635011                    EAA     0,X1
         1 000213   000021 771000                    ARL     17
         1 000214   200012 756100                    STQ     DIG#+1,,AUTO
         1 000215   000000 236005 xsym               LDQ     DEVINFO,AL
         1 000216   000023 772000                    QRL     19
         1 000217   000003 376007                    ANQ     3,DL
         1 000220   000000 235003                    LDA     0,DU
         1 000221   200014 757100                    STAQ    DIG#+3,,AUTO
         1 000222   200012 235100                    LDA     DIG#+1,,AUTO
         1 000223   000005 301500                    BTD
         1 000224   200014 000010                    NDSC9   DIG#+3,,AUTO             cn=0,s=lsgnf,sf=0,n=8
         1 000225   000006 030001 xsym               NDSC9   DEVINFO+6,A              cn=0,s=nosgn,sf=0,n=1

     1753     1425    1           CALL BINCHAR(SUBSTR(DEVINFO.DEVNAME(INDX),2,3),DEVINFO.CHN#(INDX));

   1425  1 000226   100000 236100                    LDQ     0,,PR1
         1 000227   000006 402007                    MPY     6,DL
         1 000230   000000 621006                    EAX1    0,QL
         1 000231   000003 736000                    QLS     3
         1 000232   000000 635011                    EAA     0,X1
         1 000233   000021 771000                    ARL     17
         1 000234   200012 756100                    STQ     DIG#+1,,AUTO
         1 000235   000000 236005 xsym               LDQ     DEVINFO,AL
         1 000236   000033 772000                    QRL     27
         1 000237   000000 235003                    LDA     0,DU
         1 000240   200014 757100                    STAQ    DIG#+3,,AUTO
         1 000241   200012 235100                    LDA     DIG#+1,,AUTO
         1 000242   000005 301500                    BTD
         1 000243   200014 000010                    NDSC9   DIG#+3,,AUTO             cn=0,s=lsgnf,sf=0,n=8
PL6.E3A0      #023=GT_SYSPACKAD File=ISI$IOPROC.:E05TSI                          TUE 07/29/97 22:53 Page:433
         1 000244   000006 430003 xsym               NDSC9   DEVINFO+6,A              cn=2,s=nosgn,sf=0,n=3

     1754     1426    1           CALL BINCHAR(SUBSTR(DEVINFO.DEVNAME(INDX),6,2),DEVINFO.DEV#(INDX));

   1426  1 000245   100000 236100                    LDQ     0,,PR1
         1 000246   000006 402007                    MPY     6,DL
         1 000247   000000 621006                    EAX1    0,QL
         1 000250   000003 736000                    QLS     3
         1 000251   000000 635011                    EAA     0,X1
         1 000252   000021 771000                    ARL     17
         1 000253   200012 756100                    STQ     DIG#+1,,AUTO
         1 000254   000000 236005 xsym               LDQ     DEVINFO,AL
         1 000255   000025 772000                    QRL     21
         1 000256   000077 376007                    ANQ     63,DL
         1 000257   000000 235003                    LDA     0,DU
         1 000260   200014 757100                    STAQ    DIG#+3,,AUTO
         1 000261   200012 235100                    LDA     DIG#+1,,AUTO
         1 000262   000005 301500                    BTD
         1 000263   200014 000010                    NDSC9   DIG#+3,,AUTO             cn=0,s=lsgnf,sf=0,n=8
         1 000264   000007 430002 xsym               NDSC9   DEVINFO+7,A              cn=2,s=nosgn,sf=0,n=2

     1755     1427    1   RETPACK:
     1756     1428    1           RETURN;

   1428  1 000265   000000 702200 xent  RETPACK      TSX2  ! X66_ARET

     1757     1429    1   GT_PACK:ENTRY(INDX);

   1429  1 000266   000000 700200 xent  GT_PACK      TSX0  ! X66_AUTO_1
         1 000267   000016 000001                    ZERO    14,1

     1758     1430    1           MESSAGE$=ADDR(DPQ);

   1430  1 000270   000005 236000 2                  LDQ     5
         1 000271   200004 756100                    STQ     MESSAGE$,,AUTO

     1759     1431    1           SUBSTR(TEXTM.TXT,7,8)=SUBSTR(DEVINFO.DEVNAME(INDX),0,8);
PL6.E3A0      #023=GT_SYSPACKAD File=ISI$IOPROC.:E05TSI                          TUE 07/29/97 22:53 Page:434

   1431  1 000272   200004 470500                    LDP0    MESSAGE$,,AUTO
         1 000273   000000 720100                    LXL0    0,,PR0
         1 000274   200003 471500                    LDP1    @INDX,,AUTO
         1 000275   100000 236100                    LDQ     0,,PR1
         1 000276   000006 402007                    MPY     6,DL
         1 000277   000003 736000                    QLS     3
         1 000300   040100 100406                    MLR     fill='040'O
         1 000301   000006 000010 xsym               ADSC9   DEVINFO+6,Q              cn=0,n=8
         1 000302   000002 600010                    ADSC9   2,,PR0                   cn=3,n=8

     1760     1432    1           GOTO ASK;

   1432  1 000303   000027 710000 1                  TRA     ASK
     1761     1433    1   END GT_SYSPACKAD;
     1762     1434        %EOD;

PL6.E3A0      #023=GT_SYSPACKAD File=ISI$IOPROC.:E05TSI                          TUE 07/29/97 22:53 Page:435
--  Include file information  --

   IS$MACROS.:E05TOU  is referenced.
      No diagnostics issued in procedure GT_SYSPACKAD.
PL6.E3A0      #023=GT_SYSPACKAD File=ISI$IOPROC.:E05TSI                          TUE 07/29/97 22:53 Page:436

 **** Variables and constants ****

  ****  Section 000  Data  GT_SYSPACKAD

  ****  Scalars and arrays  ****
OctLoc.c.b A Datatyp(siz) R M Lvl/name                 OctLoc.c.b A Datatyp(siz) R M Lvl/name

    10-0-0/w STRC(207)   r     1 DPQ                        0-0-0/w STRC(270)   r     1 SYSDPQ

  ****  Auto variables  ****

  ****  Scalars and arrays  ****
OctLoc.c.b A Datatyp(siz) R M Lvl/name                 OctLoc.c.b A Datatyp(siz) R M Lvl/name

     3-0-0/w PTR         r     1 @INDX                     11-0-0/w UBIN        r     1 DIG#
     5-0-0/w UBIN        r     1 HIGHEST_CHAN              *0-0-0/w UBIN        r     1 INDX
     4-0-0/w PTR         r     1 MESSAGE$                   6-0-0/w UBIN        r     1 NUMBER
    10-0-0/w UBIN        r     1 SP_CHN                     7-0-0/w UBIN        r     1 SP_IOM

  ****  SYMREF variables  ****

  ****  Scalars and arrays  ****
OctLoc.c.b A Datatyp(siz) R M Lvl/name                 OctLoc.c.b A Datatyp(siz) R M Lvl/name

     0-0-0/b STRC(5)     r     1 ADPXF                      0-0-0/b BIT         r     1 ALPHA_FLG
     0-0-0/w STRC(180)   r     1 ANSBUF                     0-0-0/d STRC(396)   r     1 DEVINFO(0:21)
     0-0-0/w PTR         r     1 FIELD$                     0-0-0/w UBIN        r     1 FIELD_LEN
     0-0-0/b BIT         r     1 RPM_FLG

  ****  BASED and DCB variables  ****

  ****  Scalars and arrays  ****
OctLoc.c.b A Datatyp(siz) R M Lvl/name                 OctLoc.c.b A Datatyp(siz) R M Lvl/name

     0-0-0/c CHAR(16)    r     1 ANS                        0-0-0/w ASTR        r     1 TEXTM

PL6.E3A0      #023=GT_SYSPACKAD File=ISI$IOPROC.:E05TSI                          TUE 07/29/97 22:53 Page:437

   Procedure GT_SYSPACKAD requires 196 words for executable code.
   Procedure GT_SYSPACKAD requires 14 words of local(AUTO) storage.
PL6.E3A0      #023=GT_SYSPACKAD File=ISI$IOPROC.:E05TSI                          TUE 07/29/97 22:53 Page:438
          *** CROSS REFERENCE LISTING ***
**     DENOTES     IDENTIFIER DEFINITION
<<                 IDENTIFIER'S VALUE SET
>>                 IDENTIFIER'S VALUE USED
<>                 IDENTIFIER SET AND/OR USED
--                 IDENTIFIER REFERENCED
PL6.E3A0      #023=GT_SYSPACKAD File=ISI$IOPROC.:E05TSI                          TUE 07/29/97 22:53 Page:439
          MINI XREF LISTING

ADPXF.D
      1376**DCL      1395>>IF
ALPHA_FLG
      1373**DCL      1404>>IF       1412>>IF       1418>>IF
ANS
      1384**DCL      1406>>CALLBLT  1414>>CALLBLT  1420>>CALLBLT
ANSBUF
      1369**DCL      1402<>CALL
ANSBUF.TXT
      1371**DCL      1403<>CALL     1411<>CALL     1417<>CALL
ASK
      1402**LABEL    1404--GOTO     1407--GOTO     1411--CALLALT  1412--GOTO     1415--GOTO     1417--CALLALT
      1418--GOTO     1432--GOTO
DEVINFO.CHN#
      1298**DCL      1422<<ASSIGN   1425>>CALLBLT
DEVINFO.DEV#
      1299**DCL      1423<<ASSIGN   1426>>CALLBLT
DEVINFO.DEVNAME
      1345**DCL      1400>>ASSIGN   1424<<CALLBLT  1425<<CALLBLT  1426<<CALLBLT  1431>>ASSIGN
DEVINFO.IOM#
      1300**DCL      1421<<ASSIGN   1424>>CALLBLT
DEVINFO.PCWS
      1302**DCL      1313--REDEF
DEVINFO.RPM_PTRS.EF_DCWS$
      1315**DCL      1316--REDEF
DEVINFO.STATUS
      1319**DCL      1338--REDEF
DIG#
      1393**DCL      1410<<ASSIGN   1411>>CALL     1411>>CALL     1416<<ASSIGN   1416>>ASSIGN   1417>>CALL
      1417>>CALL
DO_RPM_CFG
      1386**DCL-ENT  1409--CALL
PL6.E3A0      #023=GT_SYSPACKAD File=ISI$IOPROC.:E05TSI                          TUE 07/29/97 22:53 Page:440
DPQ
      1361**DCL      1430--ASSIGN
FIELD$
      1380**DCL      1384--IMP-PTR  1406>>CALLBLT  1414>>CALLBLT  1420>>CALLBLT
FIELD_LEN
      1381**DCL      1406>>CALLBLT  1410>>ASSIGN   1414>>CALLBLT  1416>>ASSIGN   1420>>CALLBLT
GETFD
      1388**DCL-ENT  1403--CALL     1411--CALL     1417--CALL
HIGHEST_CHAN
      1383**DCL      1396<<ASSIGN   1398<<ASSIGN   1415>>IF
INDX
      1285**DCL         6--PROC     1400>>ASSIGN   1421>>ASSIGN   1422>>ASSIGN   1423>>ASSIGN   1424>>CALLBLT
      1424>>CALLBLT  1425>>CALLBLT  1425>>CALLBLT  1426>>CALLBLT  1426>>CALLBLT  1429--ENTRY    1431>>ASSIGN
KEYIN
      1387**DCL-ENT  1402--CALL
MESSAGE$
      1365**DCL      1366--IMP-PTR  1399<<ASSIGN   1400>>ASSIGN   1400>>ASSIGN   1402>>CALL     1402>>CALL
      1430<<ASSIGN   1431>>ASSIGN   1431>>ASSIGN
NUMBER
      1390**DCL      1420<<CALLBLT  1423>>ASSIGN
RETPACK
      1428**LABEL    1403--CALLALT
RPM_FLG
      1382**DCL      1397>>IF       1408>>IF
SP_CHN
      1392**DCL      1414<<CALLBLT  1415>>IF       1422>>ASSIGN
SP_IOM
      1391**DCL      1406<<CALLBLT  1407>>IF       1409<>CALL     1421>>ASSIGN
SYSDPQ
      1356**DCL      1399--ASSIGN
TEXTM
      1366**DCL      1402<>CALL
TEXTM.CNT
      1367**DCL      1368--IMP-SIZ  1400>>ASSIGN   1402>>CALL     1431>>ASSIGN
TEXTM.TXT
      1368**DCL      1400<<ASSIGN   1431<<ASSIGN

PL6.E3A0      #024=MINT_PL6 File=ISI$IOPROC.:E05TSI                              TUE 07/29/97 22:53 Page:441
     1763        1        /*T***********************************************************/
     1764        2        /*T*                                                         */
     1765        3        /*T* Copyright (c) Bull HN Information Systems Inc., 1997    */
     1766        4        /*T*                                                         */
     1767        5        /*T***********************************************************/
     1768        6        MINT_PL6:PROC;
     1769        7        /* Got here on keyin from console */
     1770        8        %INCLUDE IS$MACROS;
     1771     1283        %DEVINFO(STCLASS="SYMREF");
     1772     1352        %IOM_TAB(NAME=IOMTAB,STCLASS="SYMREF");
     1773     1369    1   DCL IMWCEL(0:31) BIT(1) BASED(IMW$) UNAL;
     1774     1370    1   DCL IMW$ PTR;
     1775     1371        %PTR_STRUCT(NAME=IMW_PTR,STCLASS="REDEF IMW$");
     1776     1389    1   DCL IMWBASE UBIN WORD SYMREF;
     1777     1390    1   DCL CODE UBIN WORD SYMREF;
     1778     1391    1   DCL 1 SSR_W5 REDEF CODE,
     1779     1392    1         2 * BIT(11) UNAL,
     1780     1393    1         2 F_I_BIT BIT(1),
     1781     1394    1         2 INT_CODE UBIN(5) UNAL,
     1782     1395    1         2 * BIT(19);
     1783     1396        %TEXTC(N#=PROMPT,M#="'!!!Required action (A/Z/P) ? '");
     1784     1401        %TEXTC(N#=GIVHLP,M#="'A->Go to MINI; Z->self destruct; P->Read PO tape . '");
     1785     1406        %TEXTC(N#=FIN,M#="'That''s all folks...'");
     1786     1411    1   DCL 1 ANSBUF SYMREF,
     1787     1412    1         2 CNT UBIN WORD,
     1788     1413    1         2 TXT CHAR(16);
     1789     1414    1   DCL I UBIN WORD;
     1790     1415    1   DCL TYPEC ENTRY(1);
     1791     1416    1   DCL KEYIN ENTRY(2) ALTRET;
     1792     1417        /**/
     1793     1418    2           IF SSR_W5.F_I_BIT='0'B THEN DO; /* Not an interruption                */
     1794     1419    2   NOACT:
     1795     1420    2                 CODE=0;
     1796     1421    2                 RETURN;
     1797     1422    2               END;                        /* THEN                               */
     1798     1423    1             ELSE;
     1799     1424        /* The 5 bit code has to be special interr from console */
PL6.E3A0      #024=MINT_PL6 File=ISI$IOPROC.:E05TSI                              TUE 07/29/97 22:53 Page:442
     1800     1425    1           IMW_PTR='0'B;
     1801     1426    1           IMW_PTR.S_D_FIELD=%ALS_AIS;     /* Frame real                         */
     1802     1427    1           I=DEVINFO.CHN#(0);              /* Console                            */
     1803     1428    2           IF I<32 THEN DO;
     1804     1429    2                 IF CODE~=DEVINFO.IOM#(0)+28 THEN GOTO NOACT;
     1805     1430    2                   ELSE IMW_PTR.WOFFS=IMWBASE+DEVINFO.IOM#(0)+28;
     1806     1431    2               END;                        /* THEN                               */
     1807     1432    2             ELSE DO;
     1808     1433    2                 IF CODE~=DEVINFO.IOM#(0)+24 THEN GOTO NOACT;
     1809     1434    2                   ELSE IMW_PTR.WOFFS=IMWBASE+DEVINFO.IOM#(0)+24;
     1810     1435    2                 I=I-32;
     1811     1436    2               END;                        /* ELSE                               */
     1812     1437    1           IMWCEL(I)='0'B;                 /* Reset the interr bit               */
     1813     1438    1   ASK:
     1814     1439    1           CALL KEYIN(PROMPT,ANSBUF);
     1815     1440    2           DO SELECT(SUBSTR(ANSBUF.TXT,0,1));
     1816     1441    2             SELECT('A','a');
     1817     1442    2             CODE=1;
     1818     1443    2             SELECT('Z','z');
     1819     1444    2             CODE=2;
     1820     1445    2             SELECT('P','p');
     1821     1446    2             CODE=3;
     1822     1447    2             SELECT('?');
     1823     1448    2             CALL TYPEC(GIVHLP);
     1824     1449    2             GOTO ASK;
     1825     1450    2             SELECT(ELSE);
     1826     1451    2           GOTO ASK;
     1827     1452    2           END;                            /* DO SELECT                          */
     1828     1453    1           RETURN;
     1829     1454    1   FINAL:  ENTRY;
     1830     1455    1           CALL TYPEC(FIN);
     1831     1456    1           RETURN;
     1832     1457    1   END MINT_PL6;
     1833     1458        %EOD;

PL6.E3A0      #024=MINT_PL6 File=ISI$IOPROC.:E05TSI                              TUE 07/29/97 22:53 Page:443
--  Include file information  --

   IS$MACROS.:E05TOU  is referenced.
      No diagnostics issued in procedure MINT_PL6.

   Procedure MINT_PL6 requires 119 words for executable code.
   Procedure MINT_PL6 requires 6 words of local(AUTO) storage.

PL6.E3A0      #024=MINT_PL6 File=ISI$IOPROC.:E05TSI                              TUE 07/29/97 22:53 Page:444

 Object Unit name= MINT_PL6                                   File name= ISI$IOPROC.:E05TOU
 UTS= JUL 29 '97 22:53:38.68 TUE                              Compiler= PL-6/E31         Sev=      00
 SharedLib= :SHARED_SYSTEM                                    Alt SharedLib=


    ****  Control sections  ****

 Sect   Type Bound  Init  Size OctSiz  Section name(segment info)
    0   Data  even  none    29     35  MINT_PL6
    1   Proc  even  none   119    167  MINT_PL6
    2  RoData even  none     4      4  MINT_PL6

    ****  Entry defs  ****

                              Check   Calling
                             calling  sequence
  Sect OctLoc Primary Altret sequence   type   Parms  Name
     1      0   yes            yes      Std        0  MINT_PL6
     1    160                  yes      Std        0  FINAL

  ****  Data defs  ****

 Sect OctLoc  Name                           Sect OctLoc  Name
    0      0  PROMPT                             0     11  GIVHLP
    0     27  FIN

  ****  Entry refs  ****

         Check        Calling
        calling       sequence
Altret sequence SRef   type   Args  Name
 yes     yes           Std       2 KEYIN
         yes           Std       1 TYPEC
                       nStd      0 X66_AUTO_0
                       nStd      0 X66_ARET
                       Std       0 B_CONSPOOL_D
PL6.E3A0      #024=MINT_PL6 File=ISI$IOPROC.:E05TSI                              TUE 07/29/97 22:53 Page:445

  ****  Data refs  ****

  Flags:  r = read only, s = secondary
Flgs Name                             Flgs Name                             Flgs Name
     DEVINFO                               IMWBASE                               CODE
     ANSBUF                                B_VECTNIL

  ****  Segment refs  ****

  Flags:  r = read only, s = secondary
Flgs Name                             Flgs Name                             Flgs Name
     ISSID
PL6.E3A0      #024=MINT_PL6 File=ISI$IOPROC.:E05TSI                              TUE 07/29/97 22:53 Page:446


     1763        1        /*T***********************************************************/
     1764        2        /*T*                                                         */
     1765        3        /*T* Copyright (c) Bull HN Information Systems Inc., 1997    */
     1766        4        /*T*                                                         */
     1767        5        /*T***********************************************************/
     1768        6        MINT_PL6:PROC;

      6  1 000000   000000 700200 xent  MINT_PL6     TSX0  ! X66_AUTO_0
         1 000001   000006 000000                    ZERO    6,0

     1769        7        /* Got here on keyin from console */
     1770        8        %INCLUDE IS$MACROS;
     1771     1283        %DEVINFO(STCLASS="SYMREF");
     1772     1352        %IOM_TAB(NAME=IOMTAB,STCLASS="SYMREF");
     1773     1369    1   DCL IMWCEL(0:31) BIT(1) BASED(IMW$) UNAL;
     1774     1370    1   DCL IMW$ PTR;
     1775     1371        %PTR_STRUCT(NAME=IMW_PTR,STCLASS="REDEF IMW$");
     1776     1389    1   DCL IMWBASE UBIN WORD SYMREF;
     1777     1390    1   DCL CODE UBIN WORD SYMREF;
     1778     1391    1   DCL 1 SSR_W5 REDEF CODE,
     1779     1392    1         2 * BIT(11) UNAL,
     1780     1393    1         2 F_I_BIT BIT(1),
     1781     1394    1         2 INT_CODE UBIN(5) UNAL,
     1782     1395    1         2 * BIT(19);
     1783     1396        %TEXTC(N#=PROMPT,M#="'!!!Required action (A/Z/P) ? '");
     1784     1401        %TEXTC(N#=GIVHLP,M#="'A->Go to MINI; Z->self destruct; P->Read PO tape . '");
     1785     1406        %TEXTC(N#=FIN,M#="'That''s all folks...'");
     1786     1411    1   DCL 1 ANSBUF SYMREF,
     1787     1412    1         2 CNT UBIN WORD,
     1788     1413    1         2 TXT CHAR(16);
     1789     1414    1   DCL I UBIN WORD;
     1790     1415    1   DCL TYPEC ENTRY(1);
     1791     1416    1   DCL KEYIN ENTRY(2) ALTRET;
     1792     1417        /**/
     1793     1418    2           IF SSR_W5.F_I_BIT='0'B THEN DO; /* Not an interruption                */

PL6.E3A0      #024=MINT_PL6 File=ISI$IOPROC.:E05TSI                              TUE 07/29/97 22:53 Page:447
   1418  1 000002   000000 236000 xsym               LDQ     CODE
         1 000003   000100 316003                    CANQ    64,DU
         1 000004   000007 601000 1                  TNZ     s:1425

     1794     1419    2   NOACT:
     1795     1420    2                 CODE=0;

   1420  1 000005   000000 450000 xsym  NOACT        STZ     CODE

     1796     1421    2                 RETURN;

   1421  1 000006   000000 702200 xent               TSX2  ! X66_ARET

     1797     1422    2               END;                        /* THEN                               */
     1798     1423    1             ELSE;
     1799     1424        /* The 5 bit code has to be special interr from console */
     1800     1425    1           IMW_PTR='0'B;

   1425  1 000007   200003 450100                    STZ     IMW$,,AUTO

     1801     1426    1           IMW_PTR.S_D_FIELD=%ALS_AIS;     /* Frame real                         */

   1426  1 000010   006000 236007                    LDQ     3072,DL
         1 000011   200003 752103                    STCQ    IMW$,'03'O,AUTO

     1802     1427    1           I=DEVINFO.CHN#(0);              /* Console                            */

   1427  1 000012   000000 236000 xsym               LDQ     DEVINFO
         1 000013   000033 772000                    QRL     27
         1 000014   200004 756100                    STQ     I,,AUTO

     1803     1428    2           IF I<32 THEN DO;

   1428  1 000015   000040 116007                    CMPQ    32,DL
         1 000016   000034 603000 1                  TRC     s:1433

     1804     1429    2                 IF CODE~=DEVINFO.IOM#(0)+28 THEN GOTO NOACT;
PL6.E3A0      #024=MINT_PL6 File=ISI$IOPROC.:E05TSI                              TUE 07/29/97 22:53 Page:448

   1429  1 000017   000000 236000 xsym               LDQ     DEVINFO
         1 000020   000023 772000                    QRL     19
         1 000021   000003 376007                    ANQ     3,DL
         1 000022   000034 036007                    ADLQ    28,DL
         1 000023   000000 116000 xsym               CMPQ    CODE
         1 000024   000005 601000 1                  TNZ     NOACT

     1805     1430    2                   ELSE IMW_PTR.WOFFS=IMWBASE+DEVINFO.IOM#(0)+28;

   1430  1 000025   000000 236000 xsym               LDQ     DEVINFO
         1 000026   000023 772000                    QRL     19
         1 000027   000003 376007                    ANQ     3,DL
         1 000030   000000 036000 xsym               ADLQ    IMWBASE
         1 000031   000034 620006                    EAX0    28,QL
         1 000032   200003 740100                    STX0    IMW$,,AUTO

     1806     1431    2               END;                        /* THEN                               */

   1431  1 000033   000053 710000 1                  TRA     s:1437

     1807     1432    2             ELSE DO;

     1808     1433    2                 IF CODE~=DEVINFO.IOM#(0)+24 THEN GOTO NOACT;

   1433  1 000034   000000 236000 xsym               LDQ     DEVINFO
         1 000035   000023 772000                    QRL     19
         1 000036   000003 376007                    ANQ     3,DL
         1 000037   000030 036007                    ADLQ    24,DL
         1 000040   000000 116000 xsym               CMPQ    CODE
         1 000041   000005 601000 1                  TNZ     NOACT

     1809     1434    2                   ELSE IMW_PTR.WOFFS=IMWBASE+DEVINFO.IOM#(0)+24;

   1434  1 000042   000000 236000 xsym               LDQ     DEVINFO
         1 000043   000023 772000                    QRL     19
         1 000044   000003 376007                    ANQ     3,DL
PL6.E3A0      #024=MINT_PL6 File=ISI$IOPROC.:E05TSI                              TUE 07/29/97 22:53 Page:449
         1 000045   000000 036000 xsym               ADLQ    IMWBASE
         1 000046   000030 620006                    EAX0    24,QL
         1 000047   200003 740100                    STX0    IMW$,,AUTO

     1810     1435    2                 I=I-32;

   1435  1 000050   200004 235100                    LDA     I,,AUTO
         1 000051   000040 135007                    SBLA    32,DL
         1 000052   200004 755100                    STA     I,,AUTO

     1811     1436    2               END;                        /* ELSE                               */

     1812     1437    1           IMWCEL(I)='0'B;                 /* Reset the interr bit               */

   1437  1 000053   200003 470500                    LDP0    IMW$,,AUTO
         1 000054   200004 235100                    LDA     I,,AUTO
         1 000055   003105 060400                    CSL     bolr='003'O
         1 000056   000002 000001 xsym               BDSC    B_VECTNIL+2              by=0,bit=0,n=1
         1 000057   000000 000001                    BDSC    0,A,PR0                  by=0,bit=0,n=1

     1813     1438    1   ASK:
     1814     1439    1           CALL KEYIN(PROMPT,ANSBUF);

   1439  1 000060   000000 630400 2     ASK          EPPR0   0
         1 000061   000020 631400 xsym               EPPR1   B_VECTNIL+16
         1 000062   000000 701000 xent               TSX1    KEYIN
         1 000063   000000 011000                    NOP     0

     1815     1440    2           DO SELECT(SUBSTR(ANSBUF.TXT,0,1));

   1440  1 000064   000001 236000 xsym               LDQ     ANSBUF+1
         1 000065   777000 376003                    ANQ     -512,DU
         1 000066   132000 116003                    CMPQ    46080,DU
         1 000067   000116 602000 1                  TNC     s:1440+26
         1 000070   000001 236000 xsym               LDQ     ANSBUF+1
         1 000071   777000 376003                    ANQ     -512,DU
         1 000072   132000 116003                    CMPQ    46080,DU
PL6.E3A0      #024=MINT_PL6 File=ISI$IOPROC.:E05TSI                              TUE 07/29/97 22:53 Page:450
         1 000073   000143 600000 1                  TZE     s:1444
         1 000074   000001 236000 xsym               LDQ     ANSBUF+1
         1 000075   777000 376003                    ANQ     -512,DU
         1 000076   160000 116003                    CMPQ    57344,DU
         1 000077   000111 602000 1                  TNC     s:1440+21
         1 000100   000001 236000 xsym               LDQ     ANSBUF+1
         1 000101   777000 376003                    ANQ     -512,DU
         1 000102   160000 116003                    CMPQ    57344,DU
         1 000103   000146 600000 1                  TZE     s:1446
         1 000104   000001 236000 xsym               LDQ     ANSBUF+1
         1 000105   777000 376003                    ANQ     -512,DU
         1 000106   172000 116003                    CMPQ    62464,DU
         1 000107   000156 601000 1                  TNZ     s:1451
         1 000110   000143 710000 1                  TRA     s:1444
         1 000111   000001 236000 xsym               LDQ     ANSBUF+1
         1 000112   777000 376003                    ANQ     -512,DU
         1 000113   141000 116003                    CMPQ    49664,DU
         1 000114   000156 601000 1                  TNZ     s:1451
         1 000115   000140 710000 1                  TRA     s:1442
         1 000116   000001 236000 xsym               LDQ     ANSBUF+1
         1 000117   777000 376003                    ANQ     -512,DU
         1 000120   101000 116003                    CMPQ    33280,DU
         1 000121   000133 602000 1                  TNC     s:1440+39
         1 000122   000001 236000 xsym               LDQ     ANSBUF+1
         1 000123   777000 376003                    ANQ     -512,DU
         1 000124   101000 116003                    CMPQ    33280,DU
         1 000125   000140 600000 1                  TZE     s:1442
         1 000126   000001 236000 xsym               LDQ     ANSBUF+1
         1 000127   777000 376003                    ANQ     -512,DU
         1 000130   120000 116003                    CMPQ    40960,DU
         1 000131   000156 601000 1                  TNZ     s:1451
         1 000132   000146 710000 1                  TRA     s:1446
         1 000133   000001 236000 xsym               LDQ     ANSBUF+1
         1 000134   777000 376003                    ANQ     -512,DU
         1 000135   077000 116003                    CMPQ    32256,DU
         1 000136   000156 601000 1                  TNZ     s:1451
         1 000137   000151 710000 1                  TRA     s:1448
PL6.E3A0      #024=MINT_PL6 File=ISI$IOPROC.:E05TSI                              TUE 07/29/97 22:53 Page:451

     1816     1441    2             SELECT('A','a');

     1817     1442    2             CODE=1;

   1442  1 000140   000001 235007                    LDA     1,DL
         1 000141   000000 755000 xsym               STA     CODE
         1 000142   000157 710000 1                  TRA     s:1453

     1818     1443    2             SELECT('Z','z');

     1819     1444    2             CODE=2;

   1444  1 000143   000002 235007                    LDA     2,DL
         1 000144   000000 755000 xsym               STA     CODE
         1 000145   000157 710000 1                  TRA     s:1453

     1820     1445    2             SELECT('P','p');

     1821     1446    2             CODE=3;

   1446  1 000146   000003 235007                    LDA     3,DL
         1 000147   000000 755000 xsym               STA     CODE
         1 000150   000157 710000 1                  TRA     s:1453

     1822     1447    2             SELECT('?');

     1823     1448    2             CALL TYPEC(GIVHLP);

   1448  1 000151   000002 630400 2                  EPPR0   2
         1 000152   000017 631400 xsym               EPPR1   B_VECTNIL+15
         1 000153   000000 701000 xent               TSX1    TYPEC
         1 000154   000000 011000                    NOP     0

     1824     1449    2             GOTO ASK;

   1449  1 000155   000060 710000 1                  TRA     ASK
PL6.E3A0      #024=MINT_PL6 File=ISI$IOPROC.:E05TSI                              TUE 07/29/97 22:53 Page:452

     1825     1450    2             SELECT(ELSE);

     1826     1451    2           GOTO ASK;

   1451  1 000156   000060 710000 1                  TRA     ASK

     1827     1452    2           END;                            /* DO SELECT                          */

     1828     1453    1           RETURN;

   1453  1 000157   000000 702200 xent               TSX2  ! X66_ARET

     1829     1454    1   FINAL:  ENTRY;

   1454  1 000160   000000 700200 xent  FINAL        TSX0  ! X66_AUTO_0
         1 000161   000006 000000                    ZERO    6,0

     1830     1455    1           CALL TYPEC(FIN);

   1455  1 000162   000003 630400 2                  EPPR0   3
         1 000163   000017 631400 xsym               EPPR1   B_VECTNIL+15
         1 000164   000000 701000 xent               TSX1    TYPEC
         1 000165   000000 011000                    NOP     0

     1831     1456    1           RETURN;

   1456  1 000166   000000 702200 xent               TSX2  ! X66_ARET
     1832     1457    1   END MINT_PL6;
     1833     1458        %EOD;

PL6.E3A0      #024=MINT_PL6 File=ISI$IOPROC.:E05TSI                              TUE 07/29/97 22:53 Page:453
--  Include file information  --

   IS$MACROS.:E05TOU  is referenced.
      No diagnostics issued in procedure MINT_PL6.
PL6.E3A0      #024=MINT_PL6 File=ISI$IOPROC.:E05TSI                              TUE 07/29/97 22:53 Page:454

 **** Variables and constants ****

  ****  Section 000  Data  MINT_PL6

  ****  Scalars and arrays  ****
OctLoc.c.b A Datatyp(siz) R M Lvl/name                 OctLoc.c.b A Datatyp(siz) R M Lvl/name

    27-0-0/w STRC(207)   r     1 FIN                       11-0-0/w STRC(495)   r     1 GIVHLP
     0-0-0/w STRC(297)   r     1 PROMPT

  ****  Auto variables  ****

  ****  Scalars and arrays  ****
OctLoc.c.b A Datatyp(siz) R M Lvl/name                 OctLoc.c.b A Datatyp(siz) R M Lvl/name

     4-0-0/w UBIN        r     1 I                          3-0-0/w PTR         r     1 IMW$
     3-0-0/w STRC        r     1 IMW_PTR

  ****  SYMREF variables  ****

  ****  Scalars and arrays  ****
OctLoc.c.b A Datatyp(siz) R M Lvl/name                 OctLoc.c.b A Datatyp(siz) R M Lvl/name

     0-0-0/w STRC(180)   r     1 ANSBUF                     0-0-0/w UBIN        r     1 CODE
     0-0-0/d STRC(396)   r     1 DEVINFO(0:21)              0-0-0/w UBIN        r     1 IMWBASE
     0-0-0/w STRC        r     1 SSR_W5

  ****  BASED and DCB variables  ****

  ****  Scalars and arrays  ****
OctLoc.c.b A Datatyp(siz) R M Lvl/name                 OctLoc.c.b A Datatyp(siz) R M Lvl/name

     0-0-0/b BIT         r     1 IMWCEL(0:31)


   Procedure MINT_PL6 requires 119 words for executable code.
PL6.E3A0      #024=MINT_PL6 File=ISI$IOPROC.:E05TSI                              TUE 07/29/97 22:53 Page:455
   Procedure MINT_PL6 requires 6 words of local(AUTO) storage.
PL6.E3A0      #024=MINT_PL6 File=ISI$IOPROC.:E05TSI                              TUE 07/29/97 22:53 Page:456
          *** CROSS REFERENCE LISTING ***
**     DENOTES     IDENTIFIER DEFINITION
<<                 IDENTIFIER'S VALUE SET
>>                 IDENTIFIER'S VALUE USED
<>                 IDENTIFIER SET AND/OR USED
--                 IDENTIFIER REFERENCED
PL6.E3A0      #024=MINT_PL6 File=ISI$IOPROC.:E05TSI                              TUE 07/29/97 22:53 Page:457
          MINI XREF LISTING

ANSBUF
      1411**DCL      1439<>CALL
ANSBUF.TXT
      1413**DCL      1440>>DOSELCT
ASK
      1439**LABEL    1449--GOTO     1451--GOTO
CODE
      1390**DCL      1391--REDEF    1420<<ASSIGN   1429>>IF       1433>>IF       1442<<ASSIGN   1444<<ASSIGN
      1446<<ASSIGN
DEVINFO.CHN#
      1295**DCL      1427>>ASSIGN
DEVINFO.IOM#
      1297**DCL      1429>>IF       1430>>ASSIGN   1433>>IF       1434>>ASSIGN
DEVINFO.PCWS
      1299**DCL      1310--REDEF
DEVINFO.RPM_PTRS.EF_DCWS$
      1312**DCL      1313--REDEF
DEVINFO.STATUS
      1316**DCL      1335--REDEF
FIN
      1407**DCL      1455<>CALL
GIVHLP
      1402**DCL      1448<>CALL
I
      1414**DCL      1427<<ASSIGN   1428>>IF       1435<<ASSIGN   1435>>ASSIGN   1437>>ASSIGN
IMW$
      1370**DCL      1369--IMP-PTR  1382--REDEF    1437>>ASSIGN
IMWBASE
      1389**DCL      1430>>ASSIGN   1434>>ASSIGN
IMWCEL
      1369**DCL      1437<<ASSIGN
IMW_PTR
PL6.E3A0      #024=MINT_PL6 File=ISI$IOPROC.:E05TSI                              TUE 07/29/97 22:53 Page:458
      1382**DCL      1425<<ASSIGN
IMW_PTR.S_D_FIELD
      1386**DCL      1426<<ASSIGN
IMW_PTR.WOFFS
      1383**DCL      1430<<ASSIGN   1434<<ASSIGN
KEYIN
      1416**DCL-ENT  1439--CALL
NOACT
      1420**LABEL    1429--GOTO     1433--GOTO
PROMPT
      1397**DCL      1439<>CALL
SSR_W5.F_I_BIT
      1393**DCL      1418>>IF
TYPEC
      1415**DCL-ENT  1448--CALL     1455--CALL

PL6.E3A0      #025=CLOSE_SYST File=ISI$IOPROC.:E05TSI                            TUE 07/29/97 22:53 Page:459
     1834        1        /*T***********************************************************/
     1835        2        /*T*                                                         */
     1836        3        /*T* Copyright (c) Bull HN Information Systems Inc., 1997    */
     1837        4        /*T*                                                         */
     1838        5        /*T***********************************************************/
     1839        6        CLOSE_SYST:PROC;
     1840        7        /* This program tells MSOS that the system is closing */
     1841        8        %INCLUDE IS$MACROS;
     1842     1283        %INCLUDE NI$TABLES;
     1843     1499    1   DCL IOM# UBIN WORD;
     1844     1500    1   DCL START_IO ENTRY(1);
     1845     1501        %CHANMBOX(NAME=CMBOX);
     1846     1526        %IOM_TAB(NAME=IOMTAB,STCLASS="SYMREF");
     1847     1543        %PTR_STRUCT(NAME=CON_PTR,STCLASS="STATIC");
     1848     1561    1   DCL CON$ REDEF CON_PTR PTR;
     1849     1562    1   DCL INFO$ PTR;
     1850     1563        %PTR_STRUCT(NAME=INFO_PTR,STCLASS="REDEF INFO$");
     1851     1581    1   DCL BAS_UBIN UBIN WORD ALIGNED BASED(INFO$);
     1852     1582    1   DCL   BAS_PTR(0:0) PTR  ALIGNED BASED(INFO$);
     1853     1583    1   DCL NI_IOMS UBIN   SYMREF;
     1854     1584    1   DCL NI$IOM$(0:3) PTR SYMREF;
     1855     1585        %NI$IOM(NAME=NI$IOM);
     1856     1590    1   DCL INFO2$ PTR;
     1857     1591        %PTR_STRUCT(NAME=INFO2_PTR,STCLASS="REDEF INFO2$");
     1858     1609    1   DCL 1 PCWS STATIC DALIGNED,
     1859     1610    1         2 PCW1 BIT(36) INIT('0000007'O),
     1860     1611    1         2 PCW2,
     1861     1612    1           3 CHN# UBIN(9) UNAL INIT(4),
     1862     1613    1           3 * BIT(27) INIT('0'B);
     1863     1614        /**/
     1864     1615    1   DCL CHAN$ PTR;
     1865     1616    1   DCL I UBIN WORD;
     1866     1617    1   DCL PORT# UBIN WORD;
     1867     1618    1   DCL   NIOM# UBIN WORD;
     1868     1619        /**/
     1869     1620        /* Find IOM Nr */
     1870     1621    1           INFO$=ADDR(NI_IOMS);
PL6.E3A0      #025=CLOSE_SYST File=ISI$IOPROC.:E05TSI                            TUE 07/29/97 22:53 Page:460
     1871     1622    1           INFO_PTR.S_D_FIELD=%ALS_MONIS;  /* Frame IOM # in the TIGR            */
     1872     1623    1           NIOM#=BAS_UBIN - 1;
     1873     1624    1           INFO$ = ADDR(NI$IOM$(0));
     1874     1625    1           INFO_PTR.S_D_FIELD = %ALS_MONIS;
     1875     1626    2           DO IOM# = 0 TO NIOM#;
     1876     1627    2             INFO2$ = BAS_PTR(IOM#);
     1877     1628    2             INFO2_PTR.S_D_FIELD = %ALS_TIGR;
     1878     1629    3             IF ~INFO2$->NI$IOM.STATUS.DOWN THEN DO;
     1879     1630        /* Build MSOS mailbox */
     1880     1631    3                   CON_PTR.WOFFS=IOMTAB.MAILBAD(IOM#)+4*4; /* MSOS mailbox       */
     1881     1632    3                   CHAN$=CON$;
     1882     1633    3                   CMBOX.LPW$=ADDR(PCWS);  /* Used as an IDCW with code o'00'    */
     1883     1634    3                   CMBOX.W1.H2.TALLY=4095; /* Count                              */
     1884     1635    3                   CMBOX.W2='0'B;          /* LPWX                               */
     1885     1636        /* Find connect channel mailbox */
     1886     1637    3                   CON_PTR.WOFFS=IOMTAB.MAILBAD(IOM#)+2*4;
     1887     1638        /* Wait for connect channel to free up */
     1888     1639    3                   CHAN$=CON$;
     1889     1640    4                   DO UNTIL CMBOX.W1.H2.TALLY=0;
     1890     1641    4                   END;                    /* DO                                 */
     1891     1642    3                   CMBOX.LPW$=ADDR(PCWS);  /* Pointer to PCW                     */
     1892     1643    3                   CMBOX.W1.H2.TAL='1'B;   /* Tally                              */
     1893     1644    3                   CMBOX.W1.H2.TALLY=1;    /* Count 1                            */
     1894     1645    3                   CMBOX.W2='0'B;          /* LPWX                               */
     1895     1646    3                   PORT#=IOMTAB.PORT#(IOM#);
     1896     1647    3                   CALL START_IO(PORT#);
     1897     1648        /* Wait for connect channel to free up */
     1898     1649    4                   DO UNTIL CMBOX.W1.H2.TALLY=0;
     1899     1650    4                   END;                    /* DO UNTIL                           */
     1900     1651        /* Wait a while */
     1901     1652    4                   DO I=0 TO 128*1024;
     1902     1653    4                   END;                    /* DO I=                              */
     1903     1654    3                 END;
     1904     1655    2           END;
     1905     1656    1           RETURN;
     1906     1657    1   END CLOSE_SYST;
     1907     1658        %EOD;
PL6.E3A0      #025=CLOSE_SYST File=ISI$IOPROC.:E05TSI                            TUE 07/29/97 22:53 Page:461

PL6.E3A0      #025=CLOSE_SYST File=ISI$IOPROC.:E05TSI                            TUE 07/29/97 22:53 Page:462
--  Include file information  --

   NI$TABLES.:E05TOU  is referenced.
   IS$MACROS.:E05TOU  is referenced.
      No diagnostics issued in procedure CLOSE_SYST.

   Procedure CLOSE_SYST requires 84 words for executable code.
   Procedure CLOSE_SYST requires 12 words of local(AUTO) storage.

PL6.E3A0      #025=CLOSE_SYST File=ISI$IOPROC.:E05TSI                            TUE 07/29/97 22:53 Page:463

 Object Unit name= CLOSE_SYST                                 File name= ISI$IOPROC.:E05TOU
 UTS= JUL 29 '97 22:53:43.04 TUE                              Compiler= PL-6/E31         Sev=      00
 SharedLib= :SHARED_SYSTEM                                    Alt SharedLib=


    ****  Control sections  ****

 Sect   Type Bound  Init  Size OctSiz  Section name(segment info)
    0   Data  even  none     4      4  CLOSE_SYST
    1   Proc  even  none    84    124  CLOSE_SYST
    2  RoData even  none     3      3  CLOSE_SYST

    ****  Entry defs  ****

                              Check   Calling
                             calling  sequence
  Sect OctLoc Primary Altret sequence   type   Parms  Name
     1      0   yes            yes      Std        0  CLOSE_SYST

  ****  Entry refs  ****

         Check        Calling
        calling       sequence
Altret sequence SRef   type   Args  Name
         yes           Std       1 START_IO
                       nStd      0 X66_AUTO_0
                       Std       0 B_CONSPOOL_D
                       nStd      0 X66_ARET

  ****  Data refs  ****

  Flags:  r = read only, s = secondary
Flgs Name                             Flgs Name                             Flgs Name
     IOMTAB                                NI_IOMS                               NI$IOM$
     B_VECTNIL
PL6.E3A0      #025=CLOSE_SYST File=ISI$IOPROC.:E05TSI                            TUE 07/29/97 22:53 Page:464

  ****  Segment refs  ****

  Flags:  r = read only, s = secondary
Flgs Name                             Flgs Name                             Flgs Name
     ISSID
PL6.E3A0      #025=CLOSE_SYST File=ISI$IOPROC.:E05TSI                            TUE 07/29/97 22:53 Page:465


     1834        1        /*T***********************************************************/
     1835        2        /*T*                                                         */
     1836        3        /*T* Copyright (c) Bull HN Information Systems Inc., 1997    */
     1837        4        /*T*                                                         */
     1838        5        /*T***********************************************************/
     1839        6        CLOSE_SYST:PROC;

      6  1 000000   000000 700200 xent  CLOSE_SYST   TSX0  ! X66_AUTO_0
         1 000001   000014 000000                    ZERO    12,0

     1840        7        /* This program tells MSOS that the system is closing */
     1841        8        %INCLUDE IS$MACROS;
     1842     1283        %INCLUDE NI$TABLES;
     1843     1499    1   DCL IOM# UBIN WORD;
     1844     1500    1   DCL START_IO ENTRY(1);
     1845     1501        %CHANMBOX(NAME=CMBOX);
     1846     1526        %IOM_TAB(NAME=IOMTAB,STCLASS="SYMREF");
     1847     1543        %PTR_STRUCT(NAME=CON_PTR,STCLASS="STATIC");
     1848     1561    1   DCL CON$ REDEF CON_PTR PTR;
     1849     1562    1   DCL INFO$ PTR;
     1850     1563        %PTR_STRUCT(NAME=INFO_PTR,STCLASS="REDEF INFO$");
     1851     1581    1   DCL BAS_UBIN UBIN WORD ALIGNED BASED(INFO$);
     1852     1582    1   DCL   BAS_PTR(0:0) PTR  ALIGNED BASED(INFO$);
     1853     1583    1   DCL NI_IOMS UBIN   SYMREF;
     1854     1584    1   DCL NI$IOM$(0:3) PTR SYMREF;
     1855     1585        %NI$IOM(NAME=NI$IOM);
     1856     1590    1   DCL INFO2$ PTR;
     1857     1591        %PTR_STRUCT(NAME=INFO2_PTR,STCLASS="REDEF INFO2$");
     1858     1609    1   DCL 1 PCWS STATIC DALIGNED,
     1859     1610    1         2 PCW1 BIT(36) INIT('0000007'O),
     1860     1611    1         2 PCW2,
     1861     1612    1           3 CHN# UBIN(9) UNAL INIT(4),
     1862     1613    1           3 * BIT(27) INIT('0'B);
     1863     1614        /**/
     1864     1615    1   DCL CHAN$ PTR;
     1865     1616    1   DCL I UBIN WORD;
PL6.E3A0      #025=CLOSE_SYST File=ISI$IOPROC.:E05TSI                            TUE 07/29/97 22:53 Page:466
     1866     1617    1   DCL PORT# UBIN WORD;
     1867     1618    1   DCL   NIOM# UBIN WORD;
     1868     1619        /**/
     1869     1620        /* Find IOM Nr */
     1870     1621    1           INFO$=ADDR(NI_IOMS);

   1621  1 000002   000000 236000 2                  LDQ     0
         1 000003   200004 756100                    STQ     INFO$,,AUTO

     1871     1622    1           INFO_PTR.S_D_FIELD=%ALS_MONIS;  /* Frame IOM # in the TIGR            */

   1622  1 000004   006050 236007                    LDQ     3112,DL
         1 000005   200004 752103                    STCQ    INFO$,'03'O,AUTO

     1872     1623    1           NIOM#=BAS_UBIN - 1;

   1623  1 000006   200004 470500                    LDP0    INFO$,,AUTO
         1 000007   000000 235100                    LDA     0,,PR0
         1 000010   000001 135007                    SBLA    1,DL
         1 000011   200011 755100                    STA     NIOM#,,AUTO

     1873     1624    1           INFO$ = ADDR(NI$IOM$(0));

   1624  1 000012   000001 236000 2                  LDQ     1
         1 000013   200004 756100                    STQ     INFO$,,AUTO

     1874     1625    1           INFO_PTR.S_D_FIELD = %ALS_MONIS;

   1625  1 000014   006050 236007                    LDQ     3112,DL
         1 000015   200004 752103                    STCQ    INFO$,'03'O,AUTO

     1875     1626    2           DO IOM# = 0 TO NIOM#;

   1626  1 000016   200003 450100                    STZ     IOM#,,AUTO
         1 000017   000120 710000 1                  TRA     s:1655+3

     1876     1627    2             INFO2$ = BAS_PTR(IOM#);
PL6.E3A0      #025=CLOSE_SYST File=ISI$IOPROC.:E05TSI                            TUE 07/29/97 22:53 Page:467

   1627  1 000020   200004 470500                    LDP0    INFO$,,AUTO
         1 000021   200003 720100                    LXL0    IOM#,,AUTO
         1 000022   000000 236110                    LDQ     0,X0,PR0
         1 000023   200005 756100                    STQ     INFO2$,,AUTO

     1877     1628    2             INFO2_PTR.S_D_FIELD = %ALS_TIGR;

   1628  1 000024   006030 236007                    LDQ     3096,DL
         1 000025   200005 752103                    STCQ    INFO2$,'03'O,AUTO

     1878     1629    3             IF ~INFO2$->NI$IOM.STATUS.DOWN THEN DO;

   1629  1 000026   200005 471500                    LDP1    INFO2$,,AUTO
         1 000027   100003 236100                    LDQ     3,,PR1
         1 000030   000036 736000                    QLS     30
         1 000031   400000 376003                    ANQ     -131072,DU
         1 000032   400000 676003                    ERQ     -131072,DU
         1 000033   000115 600000 1                  TZE     s:1655

     1879     1630        /* Build MSOS mailbox */
     1880     1631    3                   CON_PTR.WOFFS=IOMTAB.MAILBAD(IOM#)+4*4; /* MSOS mailbox       */

   1631  1 000034   000000 221010 xsym               LDX1    IOMTAB,X0
         1 000035   000020 622011                    EAX2    16,X1
         1 000036   000000 742000 0                  STX2    CON_PTR

     1881     1632    3                   CHAN$=CON$;

   1632  1 000037   000000 236000 0                  LDQ     CON_PTR
         1 000040   200006 756100                    STQ     CHAN$,,AUTO

     1882     1633    3                   CMBOX.LPW$=ADDR(PCWS);  /* Used as an IDCW with code o'00'    */

   1633  1 000041   000002 236000 2                  LDQ     2
         1 000042   200006 473500                    LDP3    CHAN$,,AUTO
         1 000043   300000 756100                    STQ     0,,PR3
PL6.E3A0      #025=CLOSE_SYST File=ISI$IOPROC.:E05TSI                            TUE 07/29/97 22:53 Page:468

     1883     1634    3                   CMBOX.W1.H2.TALLY=4095; /* Count                              */

   1634  1 000044   007777 236007                    LDQ     4095,DL
         1 000045   300000 752103                    STCQ    0,'03'O,PR3

     1884     1635    3                   CMBOX.W2='0'B;          /* LPWX                               */

   1635  1 000046   300001 450100                    STZ     1,,PR3

     1885     1636        /* Find connect channel mailbox */
     1886     1637    3                   CON_PTR.WOFFS=IOMTAB.MAILBAD(IOM#)+2*4;

   1637  1 000047   000000 221010 xsym               LDX1    IOMTAB,X0
         1 000050   000010 623011                    EAX3    8,X1
         1 000051   000000 743000 0                  STX3    CON_PTR

     1887     1638        /* Wait for connect channel to free up */
     1888     1639    3                   CHAN$=CON$;

   1639  1 000052   000000 236000 0                  LDQ     CON_PTR
         1 000053   200006 756100                    STQ     CHAN$,,AUTO

     1889     1640    4                   DO UNTIL CMBOX.W1.H2.TALLY=0;

     1890     1641    4                   END;                    /* DO                                 */

   1641  1 000054   200006 470500                    LDP0    CHAN$,,AUTO
         1 000055   000000 236100                    LDQ     0,,PR0
         1 000056   007777 316007                    CANQ    4095,DL
         1 000057   000054 601000 1                  TNZ     s:1641

     1891     1642    3                   CMBOX.LPW$=ADDR(PCWS);  /* Pointer to PCW                     */

   1642  1 000060   000002 236000 2                  LDQ     2
         1 000061   000000 756100                    STQ     0,,PR0

PL6.E3A0      #025=CLOSE_SYST File=ISI$IOPROC.:E05TSI                            TUE 07/29/97 22:53 Page:469
     1892     1643    3                   CMBOX.W1.H2.TAL='1'B;   /* Tally                              */

   1643  1 000062   020000 236007                    LDQ     8192,DL
         1 000063   000000 256100                    ORSQ    0,,PR0

     1893     1644    3                   CMBOX.W1.H2.TALLY=1;    /* Count 1                            */

   1644  1 000064   000001 236007                    LDQ     1,DL
         1 000065   000000 752103                    STCQ    0,'03'O,PR0

     1894     1645    3                   CMBOX.W2='0'B;          /* LPWX                               */

   1645  1 000066   000001 450100                    STZ     1,,PR0

     1895     1646    3                   PORT#=IOMTAB.PORT#(IOM#);

   1646  1 000067   200003 720100                    LXL0    IOM#,,AUTO
         1 000070   000000 236010 xsym               LDQ     IOMTAB,X0
         1 000071   000007 376007                    ANQ     7,DL
         1 000072   200010 756100                    STQ     PORT#,,AUTO

     1896     1647    3                   CALL START_IO(PORT#);

   1647  1 000073   200010 631500                    EPPR1   PORT#,,AUTO
         1 000074   200012 451500                    STP1    NIOM#+1,,AUTO
         1 000075   200012 630500                    EPPR0   NIOM#+1,,AUTO
         1 000076   000017 631400 xsym               EPPR1   B_VECTNIL+15
         1 000077   000000 701000 xent               TSX1    START_IO
         1 000100   000000 011000                    NOP     0

     1897     1648        /* Wait for connect channel to free up */
     1898     1649    4                   DO UNTIL CMBOX.W1.H2.TALLY=0;

     1899     1650    4                   END;                    /* DO UNTIL                           */

   1650  1 000101   200006 470500                    LDP0    CHAN$,,AUTO
         1 000102   000000 236100                    LDQ     0,,PR0
PL6.E3A0      #025=CLOSE_SYST File=ISI$IOPROC.:E05TSI                            TUE 07/29/97 22:53 Page:470
         1 000103   007777 316007                    CANQ    4095,DL
         1 000104   000101 601000 1                  TNZ     s:1650

     1900     1651        /* Wait a while */
     1901     1652    4                   DO I=0 TO 128*1024;

   1652  1 000105   200007 450100                    STZ     I,,AUTO
         1 000106   000112 710000 1                  TRA     s:1653+3

     1902     1653    4                   END;                    /* DO I=                              */

   1653  1 000107   200007 235100                    LDA     I,,AUTO
         1 000110   000001 035007                    ADLA    1,DL
         1 000111   200007 755100                    STA     I,,AUTO
         1 000112   200007 235100                    LDA     I,,AUTO
         1 000113   400001 115007                    CMPA    -131071,DL
         1 000114   000107 602000 1                  TNC     s:1653

     1903     1654    3                 END;

     1904     1655    2           END;

   1655  1 000115   200003 235100                    LDA     IOM#,,AUTO
         1 000116   000001 035007                    ADLA    1,DL
         1 000117   200003 755100                    STA     IOM#,,AUTO
         1 000120   200011 236100                    LDQ     NIOM#,,AUTO
         1 000121   200003 116100                    CMPQ    IOM#,,AUTO
         1 000122   000020 603000 1                  TRC     s:1627

     1905     1656    1           RETURN;

   1656  1 000123   000000 702200 xent               TSX2  ! X66_ARET
     1906     1657    1   END CLOSE_SYST;
     1907     1658        %EOD;

PL6.E3A0      #025=CLOSE_SYST File=ISI$IOPROC.:E05TSI                            TUE 07/29/97 22:53 Page:471
--  Include file information  --

   NI$TABLES.:E05TOU  is referenced.
   IS$MACROS.:E05TOU  is referenced.
      No diagnostics issued in procedure CLOSE_SYST.
PL6.E3A0      #025=CLOSE_SYST File=ISI$IOPROC.:E05TSI                            TUE 07/29/97 22:53 Page:472

 **** Variables and constants ****

  ****  Section 000  Data  CLOSE_SYST

  ****  Scalars and arrays  ****
OctLoc.c.b A Datatyp(siz) R M Lvl/name                 OctLoc.c.b A Datatyp(siz) R M Lvl/name

     0-0-0/w PTR         r     1 CON$                       0-0-0/w STRC        r     1 CON_PTR
     2-0-0/d STRC(72)    r     1 PCWS

  ****  Auto variables  ****

  ****  Scalars and arrays  ****
OctLoc.c.b A Datatyp(siz) R M Lvl/name                 OctLoc.c.b A Datatyp(siz) R M Lvl/name

     6-0-0/w PTR         r     1 CHAN$                      7-0-0/w UBIN        r     1 I
     4-0-0/w PTR         r     1 INFO$                      5-0-0/w PTR         r     1 INFO2$
     5-0-0/w STRC        r     1 INFO2_PTR                  4-0-0/w STRC        r     1 INFO_PTR
     3-0-0/w UBIN        r     1 IOM#                      11-0-0/w UBIN        r     1 NIOM#
    10-0-0/w UBIN        r     1 PORT#

  ****  SYMREF variables  ****

  ****  Scalars and arrays  ****
OctLoc.c.b A Datatyp(siz) R M Lvl/name                 OctLoc.c.b A Datatyp(siz) R M Lvl/name

     0-0-0/w STRC        r     1 IOMTAB(0:3)
     0-0-0/w PTR         r     1 NI$IOM$(0:3)
     0-0-0/w UBIN        r     1 NI_IOMS

  ****  BASED and DCB variables  ****

  ****  Scalars and arrays  ****
OctLoc.c.b A Datatyp(siz) R M Lvl/name                 OctLoc.c.b A Datatyp(siz) R M Lvl/name

     0-0-0/w PTR         r     1 BAS_PTR(0:0)
     0-0-0/w UBIN        r     1 BAS_UBIN                   0-0-0/w STRC(144)   r     1 CMBOX
PL6.E3A0      #025=CLOSE_SYST File=ISI$IOPROC.:E05TSI                            TUE 07/29/97 22:53 Page:473
     0-0-0/w STRC(252)   r     1 NI$IOM


   Procedure CLOSE_SYST requires 84 words for executable code.
   Procedure CLOSE_SYST requires 12 words of local(AUTO) storage.
PL6.E3A0      #025=CLOSE_SYST File=ISI$IOPROC.:E05TSI                            TUE 07/29/97 22:53 Page:474
          *** CROSS REFERENCE LISTING ***
**     DENOTES     IDENTIFIER DEFINITION
<<                 IDENTIFIER'S VALUE SET
>>                 IDENTIFIER'S VALUE USED
<>                 IDENTIFIER SET AND/OR USED
--                 IDENTIFIER REFERENCED
PL6.E3A0      #025=CLOSE_SYST File=ISI$IOPROC.:E05TSI                            TUE 07/29/97 22:53 Page:475
          MINI XREF LISTING

BAS_PTR
      1582**DCL      1627>>ASSIGN
BAS_UBIN
      1581**DCL      1623>>ASSIGN
CHAN$
      1615**DCL      1502--IMP-PTR  1632<<ASSIGN   1633>>ASSIGN   1634>>ASSIGN   1635>>ASSIGN   1639<<ASSIGN
      1640>>DOUNTIL  1642>>ASSIGN   1643>>ASSIGN   1644>>ASSIGN   1645>>ASSIGN   1649>>DOUNTIL
CMBOX.LPW$
      1513**DCL      1633<<ASSIGN   1642<<ASSIGN
CMBOX.W1
      1503**DCL      1513--REDEF
CMBOX.W1.H2.TAL
      1510**DCL      1643<<ASSIGN
CMBOX.W1.H2.TALLY
      1512**DCL      1634<<ASSIGN   1640>>DOUNTIL  1644<<ASSIGN   1649>>DOUNTIL
CMBOX.W2
      1514**DCL      1635<<ASSIGN   1645<<ASSIGN
CMBOX.W3
      1517**DCL      1520--REDEF
CMBOX.W4
      1521**DCL      1524--REDEF
CON$
      1561**DCL      1632>>ASSIGN   1639>>ASSIGN
CON_PTR
      1554**DCL      1561--REDEF
CON_PTR.WOFFS
      1555**DCL      1631<<ASSIGN   1637<<ASSIGN
I
      1616**DCL      1652<<DOINDEX
INFO$
      1562**DCL      1574--REDEF    1581--IMP-PTR  1582--IMP-PTR  1621<<ASSIGN   1623>>ASSIGN   1624<<ASSIGN
      1627>>ASSIGN
PL6.E3A0      #025=CLOSE_SYST File=ISI$IOPROC.:E05TSI                            TUE 07/29/97 22:53 Page:476
INFO2$
      1590**DCL      1602--REDEF    1627<<ASSIGN   1629>>IF
INFO2_PTR.S_D_FIELD
      1606**DCL      1628<<ASSIGN
INFO_PTR.S_D_FIELD
      1578**DCL      1622<<ASSIGN   1625<<ASSIGN
IOM#
      1499**DCL      1626<<DOINDEX  1627>>ASSIGN   1631>>ASSIGN   1637>>ASSIGN   1646>>ASSIGN
IOMTAB.MAILBAD
      1538**DCL      1631>>ASSIGN   1637>>ASSIGN
IOMTAB.PORT#
      1540**DCL      1646>>ASSIGN
NI$IOM.STATUS.DOWN
      1587**DCL      1629>>IF
NI$IOM$
      1584**DCL      1624--ASSIGN
NIOM#
      1618**DCL      1623<<ASSIGN   1626>>DOINDEX
NI_IOMS
      1583**DCL      1621--ASSIGN
PCWS
      1609**DCL      1633--ASSIGN   1642--ASSIGN
PORT#
      1617**DCL      1646<<ASSIGN   1647<>CALL
START_IO
      1500**DCL-ENT  1647--CALL

PL6.E3A0      #026=DO_RPM_CFG File=ISI$IOPROC.:E05TSI                            TUE 07/29/97 22:53 Page:477
     1908        1        /*T***********************************************************/
     1909        2        /*T*                                                         */
     1910        3        /*T* Copyright (c) Bull HN Information Systems Inc., 1997    */
     1911        4        /*T*                                                         */
     1912        5        /*T***********************************************************/
     1913        6        DO_RPM_CFG: PROC (IMX_NO) ALTRET;
     1914        7        /*F*    NAME:         DO_RPM_CFG
     1915        8
     1916        9                PURPOSE:      MCA IO INTERFACE
     1917       10        */
     1918       11        /*D*    NAME:         DO_RPM_CFG
     1919       12                CALL:         CALL DO_RPM_CFG(IMX_NO)
     1920       13                ENVIRONMENT:  AARDVARK Linkage Segment - used only on the DPS8000
     1921       14                INPUT:        IMX_NO
     1922       15                OUTPUT:       Data read by MCA
     1923       16                DESCRIPTION:  This routine is called to read the configuration
     1924       17                   file.
     1925       18        */
     1926       19        %INCLUDE IS$MACROS;
     1927     1294        %INCLUDE XUD_UTS_M;
     1928     1376        %XUD$UTS_ENTRIES;
     1929     1408        %XUD_UTS_EQU;
     1930     1419
     1931     1420    1   DCL   SET_TIME_FROM_SP ENTRY(1);
     1932     1421    1   DCL   IMX_NO UBIN WORD;
     1933     1422    1   DCL   CH3_CONS_DCWS(0:3) UBIN WORD SYMREF;
     1934     1423    1   DCL   FW_LOAD(0:511) BIT(1) UNAL SYMREF;
     1935     1424    1   DCL   IS_CFG_NAME CHAR(9) UNAL SYMREF;
     1936     1425    1   DCL   IS_MEM_SIDE1 BIT(1) SYMREF;
     1937     1426    1   DCL   IS_CSP_SIDE1 BIT(1) SYMREF;
     1938     1427    1   DCL   IS_CFG_TYPE UBIN WORD SYMREF;
     1939     1428    1   DCL    CHN_CFG(0:511) BIT(1) UNAL SYMREF;
     1940     1429    1   DCL   HW_RPM_CFG BIT(1) SYMREF;
     1941     1430    1   DCL   POBUF CHAR(4096) SYMREF;
     1942     1431    1   DCL   POBUF_BIT(0:4095) REDEF POBUF BIT(9) UNAL ;
     1943     1432    1   DCL   RPM_CONSOLE SBIN WORD SYMREF;
     1944     1433    1   DCL   LOG_CHN SBIN WORD;
PL6.E3A0      #026=DO_RPM_CFG File=ISI$IOPROC.:E05TSI                            TUE 07/29/97 22:53 Page:478
     1945     1434    1   DCL   ST$LEN UBIN WORD;
     1946     1435    1   DCL   ST$   PTR;
     1947     1436    1   DCL   ST CHAR(ST$LEN) BASED(ST$);
     1948     1437        %MCA_CFG(STCLASS=SYMREF);
     1949     1547        %MCA_HDR(NAME=INIT_HDR);
     1950     1581        %MCA_HDR(STCLASS="BASED(PO$)");
     1951     1615        %IMX_MBX(NAME=CHN3_MBX,STCLASS=SYMREF);
     1952     1672        %IMX_MBX(NAME=PATT_MBX,STCLASS=SYMREF);
     1953     1729        %TEXTC(N#=CFG_RESET_ERR,M#="'CMDNO x: Problems resetting -  boot aborted'");
     1954     1734        %TEXTC(N#=CFG_ERR,M#="'CMDNO x: Problems executing command -  boot aborted'");
     1955     1739        %TEXTC(N#=CFG_STATUS,M#="'CMDNO x: Invalid status -  boot aborted'");
     1956     1744    1   DCL 1 TEXTM BASED(MESSAGE$),
     1957     1745    1         2 CNT UBIN WORD,
     1958     1746    1         2 TXT CHAR(TEXTM.CNT);
     1959     1747    1   DCL  MESSAGE$ PTR;
     1960     1748    1   DCL   READ_CONFIG_INIT CHAR(0) CONSTANT INIT('READ CONFIG');
     1961     1749    1   DCL   SP_CCINIT_INIT CHAR(0) CONSTANT INIT('SP CCINIT CP6');
     1962     1750    1   DCL   SP_SCU0_STATE CHAR(0) CONSTANT INIT('SP STATE SCU 0 ');
     1963     1751    1   DCL   SP_SCU1_STATE CHAR(0) CONSTANT INIT('SP STATE SCU 1 ');
     1964     1752    1   DCL   SP_SWITCH CHAR(0) CONSTANT INIT('SP SWITCH CPU 0 PORT A OFF ');
     1965     1753    1   DCL   HANG ENTRY;
     1966     1754    1   DCL   START_IO_RPM ENTRY(2);
     1967     1755    1   DCL   TYPEC ENTRY(1) ;
     1968     1756    1   DCL   HW_RPM_CFG_DONE(0:3) BIT(1) UNAL STATIC INIT('0'B*0);
     1969     1757    1   DCL   MBX$ PTR;
     1970     1758    1   DCL   PO$ PTR STATIC INIT(ADDR(POBUF));
     1971     1759    1   DCL   SP$ PTR;
     1972     1760    1   DCL   TEMP_DCWS$ PTR;
     1973     1761        %PTR_STRUCT(NAME=TEMP_DCWS_PTR,STCLASS="REDEF TEMP_DCWS$");
     1974     1779    1   DCL   TRYS SBIN WORD;
     1975     1780    1   DCL   NEXT_DEFINER UBIN WORD;
     1976     1781    1   DCL DO_CMD UBIN WORD;
     1977     1782    1   DCL   TEMP$STRING CHAR(30);
     1978     1783    1   DCL   OR_TIME UBIN WORD;
     1979     1784    1   DCL 1 OR_TIME_STRUC REDEF OR_TIME,
     1980     1785    1         2 * BIT(4) UNAL,
     1981     1786    1         2 HEX_DIGIT(0:7) UBIN(4) UNAL;
PL6.E3A0      #026=DO_RPM_CFG File=ISI$IOPROC.:E05TSI                            TUE 07/29/97 22:53 Page:479
     1982     1787    1   DCL   M SBIN WORD;
     1983     1788    1   DCL 1 SP_TIME BASED(SP$),
     1984     1789    1         2 BITE(0:7) CALIGNED,
     1985     1790    1           3 * BIT(5) UNAL,
     1986     1791    1           3 HEX_DIGIT UBIN(4) UNAL;
     1987     1792    1   DCL 1 TEMP_DCWS BASED(TEMP_DCWS$) ALIGNED,
     1988     1793    1         2 DCW0,
     1989     1794    1           3 OPCODE UBIN(6) UNAL,
     1990     1795    1           3 DEV# UBIN(6) UNAL,
     1991     1796    1           3 ADEXT BIT(6),
     1992     1797    1           3 TYPE BIT(3),
     1993     1798    1           3 EC BIT(1),
     1994     1799    1           3 CONT BIT(1),
     1995     1800    1           3 MARK BIT(1),
     1996     1801    1           3 * BIT(12),
     1997     1802    1         2 DCW1,
     1998     1803    1           3 AD UBIN(18) UNAL,
     1999     1804    1           3 CP UBIN(3) UNAL,
     2000     1805    1           3 NU BIT(1) UNAL,
     2001     1806    1           3 TYPE BIT(2) UNAL,
     2002     1807    1           3 TALLY UBIN(12) UNAL,
     2003     1808    1         2 DCW1$ REDEF DCW1 PTR,
     2004     1809    1         2 DCW2,
     2005     1810    1           3 OPCODE UBIN(6) UNAL,
     2006     1811    1           3 DEV# UBIN(6) UNAL,
     2007     1812    1           3 ADEXT BIT(6),
     2008     1813    1           3 TYPE BIT(3),
     2009     1814    1           3 EC BIT(1),
     2010     1815    1           3 CONT BIT(1),
     2011     1816    1           3 MARK BIT(1),
     2012     1817    1           3 * BIT(12),
     2013     1818    1         2 DCW3,
     2014     1819    1           3 AD UBIN(18) UNAL,
     2015     1820    1           3 CP UBIN(3) UNAL,
     2016     1821    1           3 NU BIT(1) UNAL,
     2017     1822    1           3 TYPE BIT(2) UNAL,
     2018     1823    1           3 TALLY UBIN(12) UNAL;
PL6.E3A0      #026=DO_RPM_CFG File=ISI$IOPROC.:E05TSI                            TUE 07/29/97 22:53 Page:480
     2019     1824    1   DCL I SBIN WORD;
     2020     1825    1   DCL J SBIN WORD;
     2021     1826    1   DCL   MCA_FW_LOAD(0:15) BIT(1) UNAL CONSTANT INIT(
     2022     1827    1      '0'B,'0'B,'1'B,'0'B,'1'B,'1'B,'1'B,'0'B,'0'B,'0'B,'0'B,'1'B,'0'B*0);
     2023     1828
     2024     1829    1           IF ~HW_RPM_CFG THEN
     2025     1830    1             ALTRETURN;
     2026     1831    1           IF HW_RPM_CFG_DONE(IMX_NO) THEN
     2027     1832    1             RETURN;
     2028     1833    1           CALL CHANNEL_3_CMD(IMX_NO,0);
     2029     1834    2           DO I = 0 TO 15;
     2030     1835    3             IF MCA_CFG.LEVEL_1.STATE(I) = 150 THEN DO;
     2031     1836    3                   IF RPM_CONSOLE = -1 THEN
     2032     1837    3                     IF MCA_CFG.LEVEL_1.CONSOLE_CNTL.REM_MAINT(I) THEN
     2033     1838    3                       IF MCA_CFG.LEVEL_1.CONSOLE_CNTL.MASTER(I) THEN
     2034     1839    3                         RPM_CONSOLE = MCA_CFG.LEVEL_1.PRI_CHN(I);
     2035     1840    4                   DO J = MCA_CFG.LEVEL_1.PRI_CHN(I) TO MCA_CFG.LEVEL_1.PRI_CHN(I)
     2036     1841    4                     + MCA_CFG.LEVEL_1.LOG_CHNS(I) - 1;
     2037     1842    4                     CHN_CFG(IMX_NO * 128 + J) = '1'B;
     2038     1843    4                     IF MCA_FW_LOAD(MCA_CFG.LEVEL_1.HARDWARE_ID(I)) THEN
     2039     1844    4                       FW_LOAD( IMX_NO * 128 + J) = '0'B;
     2040     1845    4                   END;
     2041     1846    3                 END;
     2042     1847    2           END;
     2043     1848    1           HW_RPM_CFG_DONE(IMX_NO) = '1'B;
     2044     1849    1           RETURN;
     2045     1850    1   DO_RPM_TIME:ENTRY(IMX_NO) ALTRET;
     2046     1851
     2047     1852    1           CALL CHANNEL_3_CMD(IMX_NO,1);
     2048     1853    1           CALL SET_TIME_FROM_SP(OR_TIME);
     2049     1854    1           RETURN;
     2050     1855    1   DO_SCU_STATE: ENTRY(IMX_NO) ALTRET;
     2051     1856    1           DO_CMD = %MCA_CMD_STATE_SCU0# + MOD(IMX_NO,2);
     2052     1857    1           CALL CHANNEL_3_CMD(MOD(IMX_NO,2),DO_CMD);
     2053     1858    1           RETURN;
     2054     1859    1   DO_CPU_SWITCH: ENTRY(IMX_NO) ALTRET;
     2055     1860    1           DO_CMD = %MCA_CMD_SWITCH_CPU0# + IMX_NO;
PL6.E3A0      #026=DO_RPM_CFG File=ISI$IOPROC.:E05TSI                            TUE 07/29/97 22:53 Page:481
     2056     1861    1           CALL CHANNEL_3_CMD(MOD(IMX_NO,2),DO_CMD);
     2057     1862    1           RETURN;
     2058     1863
     2059     1864        %EJECT;
PL6.E3A0      #026=DO_RPM_CFG File=ISI$IOPROC.:E05TSI                            TUE 07/29/97 22:53 Page:482
     2060     1865    1   CHANNEL_3_CMD:PROC(IMX#,CMD_NO);
     2061     1866    2   DCL IMX# UBIN WORD;
     2062     1867    2   DCL CMD_NO UBIN WORD;
     2063     1868    2           MESSAGE$ = ADDR(CFG_STATUS);
     2064     1869    2           CALL BINCHAR(SUBSTR(TEXTM.TXT,6,1),CMD_NO);
     2065     1870    2           TEMP_DCWS$ = ADDR(CH3_CONS_DCWS);
     2066     1871    2           MBX$ = ADDR(CHN3_MBX);
     2067     1872    2           CHN3_MBX = PATT_MBX;
     2068     1873    2           CHN3_MBX.LPW.DCW_ADDR = TEMP_DCWS_PTR.WOFFS;
     2069     1874    2   START_OVER:
     2070     1875    2           CALL BUILD_CH3_DCWS(%FCNRSS,%FCNRDC3,9);
     2071     1876    2           TEMP_DCWS.DCW0.CONT = '0'B;
     2072     1877    2           CALL READ_CHN3(IMX#);
     2073     1878    3           IF CHN3_MBX.STATUS.W8_INFO.TERM ~= '4002'O THEN DO;
     2074     1879    3                 TRYS = TRYS + 1;
     2075     1880    4                 IF TRYS > 5 THEN DO;
     2076     1881    4                       MESSAGE$ = ADDR(CFG_RESET_ERR);
     2077     1882    4                       CALL BINCHAR(SUBSTR(TEXTM.TXT,6,1),CMD_NO);
     2078     1883    4                       CALL TYPEC(TEXTM);
     2079     1884    4                       CALL HANG;
     2080     1885    4                     END;
     2081     1886    3                 GOTO START_OVER;
     2082     1887    3               END;
     2083     1888    3           DO CASE (CMD_NO);
     2084     1889    3             CASE (%MCA_CMD_CONFIG#);
     2085     1890    3               CALL BUILD_CH3_DCWS(%FCNWTC3,%FCNRDC3,7,LENGTHC(READ_CONFIG_INIT),
              1890                        READ_CONFIG_INIT);
     2086     1891    3             CASE (%MCA_CMD_CCINIT#);
     2087     1892    3               CALL BUILD_CH3_DCWS(%FCNWTC3,%FCNRDC3,7,LENGTHC(SP_CCINIT_INIT),
              1892                        SP_CCINIT_INIT);
     2088     1893    3             CASE(%MCA_CMD_SWITCH_CPU0#,%MCA_CMD_SWITCH_CPU2#);
     2089     1894    3               TEMP$STRING = SP_SWITCH;
     2090     1895    3               IF CMD_NO = %MCA_CMD_SWITCH_CPU0# THEN
     2091     1896    3                 SUBSTR(TEMP$STRING,14,1) = '0';
     2092     1897    3                 ELSE
     2093     1898    3                 SUBSTR(TEMP$STRING,14,1) = '2';
     2094     1899    3               SUBSTR(TEMP$STRING,21,1) = 'B';
PL6.E3A0      #026=DO_RPM_CFG File=ISI$IOPROC.:E05TSI                            TUE 07/29/97 22:53 Page:483
     2095     1900    3               CALL BUILD_CH3_DCWS(%FCNWTC3,%FCNRDC3,7,LENGTHC(SP_SWITCH),TEMP$STRING);
     2096     1901    3             CASE(%MCA_CMD_SWITCH_CPU1#,%MCA_CMD_SWITCH_CPU3#);
     2097     1902    3               TEMP$STRING = SP_SWITCH;
     2098     1903    3               IF CMD_NO = %MCA_CMD_SWITCH_CPU1# THEN
     2099     1904    3                 SUBSTR(TEMP$STRING,14,1) = '0';
     2100     1905    3                 ELSE
     2101     1906    3                 SUBSTR(TEMP$STRING,14,1) = '2';
     2102     1907    3               SUBSTR(TEMP$STRING,21,1) = 'A';
     2103     1908    3               CALL BUILD_CH3_DCWS(%FCNWTC3,%FCNRDC3,7,LENGTHC(SP_SWITCH),TEMP$STRING);
     2104     1909    3             CASE (%MCA_CMD_STATE_SCU0#);
     2105     1910    3               CALL BUILD_CH3_DCWS(%FCNWTC3,%FCNRDC3,7,LENGTHC(SP_SCU0_STATE),
              1910                        SP_SCU0_STATE);
     2106     1911    3             CASE (%MCA_CMD_STATE_SCU1#);
     2107     1912    3               CALL BUILD_CH3_DCWS(%FCNWTC3,%FCNRDC3,7,LENGTHC(SP_SCU1_STATE),
              1912                        SP_SCU1_STATE);
     2108     1913    3           END;
     2109     1914    2   DO_READ:
     2110     1915    2           CALL READ_CHN3(IMX#);
     2111     1916    3           DO SELECT(CHN3_MBX.STATUS.W8_INFO.TERM & '3777'O);
     2112     1917    3             SELECT('0040'O);
     2113     1918    3             IF MCA_HDR.DEFINER = %MCA_DEF_READ# THEN
     2114     1919    3               NEXT_DEFINER = %MCA_DEF_STATUS#;
     2115     1920    3               ELSE
     2116     1921    3               IF MCA_HDR.DEFINER = %MCA_DEF_READDATA# THEN
     2117     1922    3                 NEXT_DEFINER = %MCA_DEF_DATA#;
     2118     1923    4                 ELSE DO;
     2119     1924    4                     MESSAGE$ = ADDR(CFG_ERR);
     2120     1925    4                     CALL BINCHAR(SUBSTR(TEXTM.TXT,6,1),CMD_NO);
     2121     1926    4                     CALL TYPEC(TEXTM);
     2122     1927    4                     CALL HANG;
     2123     1928    4                   END;
     2124     1929    4             DO CASE (CMD_NO);
     2125     1930    4               CASE(%MCA_CMD_CONFIG#);
     2126     1931    4                 ST$LEN = LENGTHC(MCA_CFG);
     2127     1932    4                 ST$ = ADDR(MCA_CFG);
     2128     1933    4                 ST = PINCRC(PO$,32)->ST;
     2129     1934    4               CASE(%MCA_CMD_CCINIT#);
PL6.E3A0      #026=DO_RPM_CFG File=ISI$IOPROC.:E05TSI                            TUE 07/29/97 22:53 Page:484
     2130     1935    4                 SP$ = PINCRC(PO$,LENGTHC(INIT_HDR));
     2131     1936    4                 OR_TIME = 0;
     2132     1937    5                 DO I = 0 TO 7;
     2133     1938    5                   OR_TIME_STRUC.HEX_DIGIT(I) = SP_TIME.BITE.HEX_DIGIT(I);
     2134     1939    5                 END;
     2135     1940    4                 CALL XUD$UTS_ADJ_25TH (OR_TIME, 0, OR_TIME*%UTS_25TH_SEC#);
     2136     1941    4               CASE(%MCA_CMD_STATE_SCU0#,%MCA_CMD_STATE_SCU1#);
     2137     1942    4                 ST$ = PINCRC(PO$,32);
     2138     1943    4                 ST$LEN = MCA_HDR.SRCLEN;
     2139     1944    4                 CALL INDEX(I,'CONFIGURED',ST);
     2140     1945    5                 IF (I < ST$LEN) THEN DO;
     2141     1946    5                       CALL INDEX(I,'S',ST);
     2142     1947    5                       IS_CFG_NAME = SUBSTR(ST,I,12);
     2143     1948    5                       IF SUBSTR(IS_CFG_NAME,6,1) = '1' THEN
     2144     1949    5                         IS_MEM_SIDE1 = '1'B;
     2145     1950    5                         ELSE
     2146     1951    5                         IS_MEM_SIDE1 = '0'B;
     2147     1952    5                       IF SUBSTR(IS_CFG_NAME,1,1) = '1' THEN
     2148     1953    5                         IS_CSP_SIDE1 = '1'B;
     2149     1954    5                         ELSE
     2150     1955    5                         IS_CSP_SIDE1 = '0'B;
     2151     1956    5                       IF SUBSTR(IS_CFG_NAME,2,4) = 'SING' THEN
     2152     1957    5                         IS_CFG_TYPE = %IS_CFG_SINGLE_CAB#;
     2153     1958    6                         ELSE DO;
     2154     1959    7                             IF SUBSTR(IS_CFG_NAME,6,1) = 'H' THEN DO;
     2155     1960    7                                   IF SUBSTR(IS_CFG_NAME,7,1) = 'R' THEN
     2156     1961    7                                     IS_CFG_TYPE = %IS_CFG_MULT_CAB_REL#;
     2157     1962    7                                     ELSE
     2158     1963    7                                     IS_CFG_TYPE = %IS_CFG_SINGLE_CAB#;
     2159     1964    7                                   IF IS_CSP_SIDE1 THEN
     2160     1965    7                                     IS_MEM_SIDE1 = '1'B;
     2161     1966    7                                 END;
     2162     1967    6                               ELSE
     2163     1968    6                               IS_CFG_TYPE = %IS_CFG_MULT_CAB#;
     2164     1969    6                           END;
     2165     1970    5                     END;
     2166     1971    4             END;
PL6.E3A0      #026=DO_RPM_CFG File=ISI$IOPROC.:E05TSI                            TUE 07/29/97 22:53 Page:485
     2167     1972    3             IF CMD_NO >= %MCA_CMD_STATE_SCU0# AND NEXT_DEFINER= %MCA_DEF_DATA# THEN
     2168     1973    3               CALL BUILD_CH3_DCWS(%FCNWDC3,%FCNRDC3,NEXT_DEFINER,0,SP_SCU0_STATE);
     2169     1974    3               ELSE
     2170     1975    3               CALL BUILD_CH3_DCWS(%FCNWDC3,%FCNRDC3,NEXT_DEFINER);
     2171     1976    3             GOTO DO_READ;
     2172     1977    3             SELECT('0002'O);
     2173     1978    3             RETURN;
     2174     1979    3             SELECT (ELSE);
     2175     1980    3           TRYS = TRYS + 1;
     2176     1981    4           IF TRYS > 5 THEN DO;
     2177     1982    4                 CALL TYPEC(TEXTM);
     2178     1983    4                 CALL HANG;
     2179     1984    4               END;
     2180     1985    3           GOTO START_OVER;
     2181     1986    3           END;
     2182     1987    2   END CHANNEL_3_CMD;
     2183     1988        %EJECT;
PL6.E3A0      #026=DO_RPM_CFG File=ISI$IOPROC.:E05TSI                            TUE 07/29/97 22:53 Page:486
     2184     1989    1   BUILD_CH3_DCWS:PROC(IDCW0,IDCW1,HDR_DEFINER,HDR_CMD_LEN,HDR_CMD);
     2185     1990    2   DCL   IDCW0 SBIN WORD;
     2186     1991    2   DCL   IDCW1 SBIN WORD;
     2187     1992    2   DCL   HDR_DEFINER SBIN WORD;
     2188     1993    2   DCL   HDR_CMD_LEN SBIN WORD;
     2189     1994    2   DCL   HDR_CMD CHAR(HDR_CMD_LEN);
     2190     1995
     2191     1996    2           MCA_HDR = INIT_HDR;
     2192     1997    2           MCA_HDR.DEFINER = HDR_DEFINER;
     2193     1998    2           TEMP_DCWS = '0'B;
     2194     1999    2           TEMP_DCWS.DCW1$ = ADDR(POBUF);
     2195     2000    2           TEMP_DCWS.DCW1.TALLY = 0;
     2196     2001    2           IF ADDR(HDR_CMD_LEN) = ADDR(NIL) THEN
     2197     2002    2             MCA_HDR.TBYTES = 0;
     2198     2003    3             ELSE DO;
     2199     2004    3                 MCA_HDR.TBYTES = HDR_CMD_LEN + 1;
     2200     2005    3                 TEMP_DCWS.DCW1.TALLY = (HDR_CMD_LEN + 4)/4;
     2201     2006    3                 SUBSTR(POBUF,32,HDR_CMD_LEN) = HDR_CMD;
     2202     2007    3                 POBUF_BIT(HDR_CMD_LEN + 32) = '015'O;
     2203     2008    3               END;
     2204     2009    2           TEMP_DCWS.DCW0.DEV# = 0;
     2205     2010    2           TEMP_DCWS.DCW0.TYPE = '7'O;
     2206     2011    2           TEMP_DCWS.DCW0.CONT = '1'B;
     2207     2012    2           TEMP_DCWS.DCW0.OPCODE = IDCW0;
     2208     2013    2           TEMP_DCWS.DCW1.TALLY = TEMP_DCWS.DCW1.TALLY + 8;
     2209     2014    2           TEMP_DCWS.DCW2 = TEMP_DCWS.DCW0;
     2210     2015    2           TEMP_DCWS.DCW2.OPCODE = IDCW1;
     2211     2016    2           TEMP_DCWS.DCW2.CONT = '0'B;
     2212     2017    2           TEMP_DCWS.DCW3 = TEMP_DCWS.DCW1;
     2213     2018    2           TEMP_DCWS.DCW3.TALLY = 0;
     2214     2019    2   END BUILD_CH3_DCWS;
     2215     2020    1   READ_CHN3: PROC(IM#);
     2216     2021    2   DCL IM# UBIN WORD;
     2217     2022    2           CHN3_MBX.STATUS ='0'B;
     2218     2023    2           CHN3_MBX.CHN_LINK.SYNC = '0'B;
     2219     2024    2           LOG_CHN = IM# * 128 + 8 + 3;
     2220     2025    2           CALL START_IO_RPM(LOG_CHN,MBX$);
PL6.E3A0      #026=DO_RPM_CFG File=ISI$IOPROC.:E05TSI                            TUE 07/29/97 22:53 Page:487
     2221     2026    3           DO UNTIL CHN3_MBX.STATUS.W8.TBIT = '1'B;
     2222     2027    3             I = 1;
     2223     2028    3           END;
     2224     2029    3           DO UNTIL CHN3_MBX.CHN_LINK.SYNC='1'B;
     2225     2030    3             I = 1;
     2226     2031    3           END;
     2227     2032    2   END READ_CHN3;
     2228     2033    1   END DO_RPM_CFG;

PL6.E3A0      #026=DO_RPM_CFG File=ISI$IOPROC.:E05TSI                            TUE 07/29/97 22:53 Page:488
--  Include file information  --

   XUD_UTS_M.:E05TOU  is referenced.
   IS$MACROS.:E05TOU  is referenced.
      No diagnostics issued in procedure DO_RPM_CFG.

   Procedure DO_RPM_CFG requires 638 words for executable code.
   Procedure DO_RPM_CFG requires 42 words of local(AUTO) storage.

    No errors detected in file ISI$IOPROC.:E05TSI    .

PL6.E3A0      #026=DO_RPM_CFG File=ISI$IOPROC.:E05TSI                            TUE 07/29/97 22:53 Page:489

 Object Unit name= DO_RPM_CFG                                 File name= ISI$IOPROC.:E05TOU
 UTS= JUL 29 '97 22:53:47.36 TUE                              Compiler= PL-6/E31         Sev=      00
 SharedLib= :SHARED_SYSTEM                                    Alt SharedLib=


    ****  Control sections  ****

 Sect   Type Bound  Init  Size OctSiz  Section name(segment info)
    0   Data  even  none    47     57  DO_RPM_CFG
    1  RoData even  UTS     27     33  DO_RPM_CFG
    2   Proc  even  none   638   1176  DO_RPM_CFG
    3  RoData even  none    34     42  DO_RPM_CFG

    ****  Entry defs  ****

                              Check   Calling
                             calling  sequence
  Sect OctLoc Primary Altret sequence   type   Parms  Name
     2      0   yes    yes     yes      Std        1  DO_RPM_CFG
     2    160          yes     yes      Std        1  DO_RPM_TIME
     2    177          yes     yes      Std        1  DO_SCU_STATE
     2    220          yes     yes      Std        1  DO_CPU_SWITCH

  ****  Data defs  ****

 Sect OctLoc  Name                           Sect OctLoc  Name
    0     10  CFG_RESET_ERR                      0     24  CFG_ERR
    0     42  CFG_STATUS
PL6.E3A0      #026=DO_RPM_CFG File=ISI$IOPROC.:E05TSI                            TUE 07/29/97 22:53 Page:490

  ****  Entry refs  ****

         Check        Calling
        calling       sequence
Altret sequence SRef   type   Args  Name
         yes           Std       1 SET_TIME_FROM_SP
         yes           Std       1 TYPEC
 yes     yes           Std       3 XUD$UTS_ADJ_25TH
         yes           Std       0 HANG
         yes           Std       2 START_IO_RPM
                       nStd      0 X66_AUTO_1
                       nStd      0 X66_AALT
                       Std       0 B_CONSPOOL_D
                       nStd      0 X66_ARET
                       nStd      0 X66_INDEX

  ****  Data refs  ****

  Flags:  r = read only, s = secondary
Flgs Name                             Flgs Name                             Flgs Name
     CH3_CONS_DCWS                         FW_LOAD                               IS_CFG_NAME
     IS_MEM_SIDE1                          IS_CSP_SIDE1                          IS_CFG_TYPE
     CHN_CFG                               HW_RPM_CFG                            POBUF
     RPM_CONSOLE                           MCA_CFG                               CHN3_MBX
     PATT_MBX                              B_VECTNIL

  ****  Segment refs  ****

  Flags:  r = read only, s = secondary
Flgs Name                             Flgs Name                             Flgs Name
     ISSID
PL6.E3A0      #026=DO_RPM_CFG File=ISI$IOPROC.:E05TSI                            TUE 07/29/97 22:53 Page:491


     1908        1        /*T***********************************************************/
     1909        2        /*T*                                                         */
     1910        3        /*T* Copyright (c) Bull HN Information Systems Inc., 1997    */
     1911        4        /*T*                                                         */
     1912        5        /*T***********************************************************/
     1913        6        DO_RPM_CFG: PROC (IMX_NO) ALTRET;

      6  2 000000   000000 700200 xent  DO_RPM_CFG   TSX0  ! X66_AUTO_1
         2 000001   000052 000001                    ZERO    42,1

     1914        7        /*F*    NAME:         DO_RPM_CFG
     1915        8
     1916        9                PURPOSE:      MCA IO INTERFACE
     1917       10        */
     1918       11        /*D*    NAME:         DO_RPM_CFG
     1919       12                CALL:         CALL DO_RPM_CFG(IMX_NO)
     1920       13                ENVIRONMENT:  AARDVARK Linkage Segment - used only on the DPS8000
     1921       14                INPUT:        IMX_NO
     1922       15                OUTPUT:       Data read by MCA
     1923       16                DESCRIPTION:  This routine is called to read the configuration
     1924       17                   file.
     1925       18        */
     1926       19        %INCLUDE IS$MACROS;
     1927     1294        %INCLUDE XUD_UTS_M;
     1928     1376        %XUD$UTS_ENTRIES;
     1929     1408        %XUD_UTS_EQU;
     1930     1419
     1931     1420    1   DCL   SET_TIME_FROM_SP ENTRY(1);
     1932     1421    1   DCL   IMX_NO UBIN WORD;
     1933     1422    1   DCL   CH3_CONS_DCWS(0:3) UBIN WORD SYMREF;
     1934     1423    1   DCL   FW_LOAD(0:511) BIT(1) UNAL SYMREF;
     1935     1424    1   DCL   IS_CFG_NAME CHAR(9) UNAL SYMREF;
     1936     1425    1   DCL   IS_MEM_SIDE1 BIT(1) SYMREF;
     1937     1426    1   DCL   IS_CSP_SIDE1 BIT(1) SYMREF;
     1938     1427    1   DCL   IS_CFG_TYPE UBIN WORD SYMREF;
     1939     1428    1   DCL    CHN_CFG(0:511) BIT(1) UNAL SYMREF;
PL6.E3A0      #026=DO_RPM_CFG File=ISI$IOPROC.:E05TSI                            TUE 07/29/97 22:53 Page:492
     1940     1429    1   DCL   HW_RPM_CFG BIT(1) SYMREF;
     1941     1430    1   DCL   POBUF CHAR(4096) SYMREF;
     1942     1431    1   DCL   POBUF_BIT(0:4095) REDEF POBUF BIT(9) UNAL ;
     1943     1432    1   DCL   RPM_CONSOLE SBIN WORD SYMREF;
     1944     1433    1   DCL   LOG_CHN SBIN WORD;
     1945     1434    1   DCL   ST$LEN UBIN WORD;
     1946     1435    1   DCL   ST$   PTR;
     1947     1436    1   DCL   ST CHAR(ST$LEN) BASED(ST$);
     1948     1437        %MCA_CFG(STCLASS=SYMREF);
     1949     1547        %MCA_HDR(NAME=INIT_HDR);
     1950     1581        %MCA_HDR(STCLASS="BASED(PO$)");
     1951     1615        %IMX_MBX(NAME=CHN3_MBX,STCLASS=SYMREF);
     1952     1672        %IMX_MBX(NAME=PATT_MBX,STCLASS=SYMREF);
     1953     1729        %TEXTC(N#=CFG_RESET_ERR,M#="'CMDNO x: Problems resetting -  boot aborted'");
     1954     1734        %TEXTC(N#=CFG_ERR,M#="'CMDNO x: Problems executing command -  boot aborted'");
     1955     1739        %TEXTC(N#=CFG_STATUS,M#="'CMDNO x: Invalid status -  boot aborted'");
     1956     1744    1   DCL 1 TEXTM BASED(MESSAGE$),
     1957     1745    1         2 CNT UBIN WORD,
     1958     1746    1         2 TXT CHAR(TEXTM.CNT);
     1959     1747    1   DCL  MESSAGE$ PTR;
     1960     1748    1   DCL   READ_CONFIG_INIT CHAR(0) CONSTANT INIT('READ CONFIG');
     1961     1749    1   DCL   SP_CCINIT_INIT CHAR(0) CONSTANT INIT('SP CCINIT CP6');
     1962     1750    1   DCL   SP_SCU0_STATE CHAR(0) CONSTANT INIT('SP STATE SCU 0 ');
     1963     1751    1   DCL   SP_SCU1_STATE CHAR(0) CONSTANT INIT('SP STATE SCU 1 ');
     1964     1752    1   DCL   SP_SWITCH CHAR(0) CONSTANT INIT('SP SWITCH CPU 0 PORT A OFF ');
     1965     1753    1   DCL   HANG ENTRY;
     1966     1754    1   DCL   START_IO_RPM ENTRY(2);
     1967     1755    1   DCL   TYPEC ENTRY(1) ;
     1968     1756    1   DCL   HW_RPM_CFG_DONE(0:3) BIT(1) UNAL STATIC INIT('0'B*0);
     1969     1757    1   DCL   MBX$ PTR;
     1970     1758    1   DCL   PO$ PTR STATIC INIT(ADDR(POBUF));
     1971     1759    1   DCL   SP$ PTR;
     1972     1760    1   DCL   TEMP_DCWS$ PTR;
     1973     1761        %PTR_STRUCT(NAME=TEMP_DCWS_PTR,STCLASS="REDEF TEMP_DCWS$");
     1974     1779    1   DCL   TRYS SBIN WORD;
     1975     1780    1   DCL   NEXT_DEFINER UBIN WORD;
     1976     1781    1   DCL DO_CMD UBIN WORD;
PL6.E3A0      #026=DO_RPM_CFG File=ISI$IOPROC.:E05TSI                            TUE 07/29/97 22:53 Page:493
     1977     1782    1   DCL   TEMP$STRING CHAR(30);
     1978     1783    1   DCL   OR_TIME UBIN WORD;
     1979     1784    1   DCL 1 OR_TIME_STRUC REDEF OR_TIME,
     1980     1785    1         2 * BIT(4) UNAL,
     1981     1786    1         2 HEX_DIGIT(0:7) UBIN(4) UNAL;
     1982     1787    1   DCL   M SBIN WORD;
     1983     1788    1   DCL 1 SP_TIME BASED(SP$),
     1984     1789    1         2 BITE(0:7) CALIGNED,
     1985     1790    1           3 * BIT(5) UNAL,
     1986     1791    1           3 HEX_DIGIT UBIN(4) UNAL;
     1987     1792    1   DCL 1 TEMP_DCWS BASED(TEMP_DCWS$) ALIGNED,
     1988     1793    1         2 DCW0,
     1989     1794    1           3 OPCODE UBIN(6) UNAL,
     1990     1795    1           3 DEV# UBIN(6) UNAL,
     1991     1796    1           3 ADEXT BIT(6),
     1992     1797    1           3 TYPE BIT(3),
     1993     1798    1           3 EC BIT(1),
     1994     1799    1           3 CONT BIT(1),
     1995     1800    1           3 MARK BIT(1),
     1996     1801    1           3 * BIT(12),
     1997     1802    1         2 DCW1,
     1998     1803    1           3 AD UBIN(18) UNAL,
     1999     1804    1           3 CP UBIN(3) UNAL,
     2000     1805    1           3 NU BIT(1) UNAL,
     2001     1806    1           3 TYPE BIT(2) UNAL,
     2002     1807    1           3 TALLY UBIN(12) UNAL,
     2003     1808    1         2 DCW1$ REDEF DCW1 PTR,
     2004     1809    1         2 DCW2,
     2005     1810    1           3 OPCODE UBIN(6) UNAL,
     2006     1811    1           3 DEV# UBIN(6) UNAL,
     2007     1812    1           3 ADEXT BIT(6),
     2008     1813    1           3 TYPE BIT(3),
     2009     1814    1           3 EC BIT(1),
     2010     1815    1           3 CONT BIT(1),
     2011     1816    1           3 MARK BIT(1),
     2012     1817    1           3 * BIT(12),
     2013     1818    1         2 DCW3,
PL6.E3A0      #026=DO_RPM_CFG File=ISI$IOPROC.:E05TSI                            TUE 07/29/97 22:53 Page:494
     2014     1819    1           3 AD UBIN(18) UNAL,
     2015     1820    1           3 CP UBIN(3) UNAL,
     2016     1821    1           3 NU BIT(1) UNAL,
     2017     1822    1           3 TYPE BIT(2) UNAL,
     2018     1823    1           3 TALLY UBIN(12) UNAL;
     2019     1824    1   DCL I SBIN WORD;
     2020     1825    1   DCL J SBIN WORD;
     2021     1826    1   DCL   MCA_FW_LOAD(0:15) BIT(1) UNAL CONSTANT INIT(
     2022     1827    1      '0'B,'0'B,'1'B,'0'B,'1'B,'1'B,'1'B,'0'B,'0'B,'0'B,'0'B,'1'B,'0'B*0);
     2023     1828
     2024     1829    1           IF ~HW_RPM_CFG THEN

   1829  2 000002   000000 236000 xsym               LDQ     HW_RPM_CFG
         2 000003   400000 376003                    ANQ     -131072,DU
         2 000004   400000 676003                    ERQ     -131072,DU
         2 000005   000007 600000 2                  TZE     s:1831

     2025     1830    1             ALTRETURN;

   1830  2 000006   000000 702200 xent               TSX2  ! X66_AALT

     2026     1831    1           IF HW_RPM_CFG_DONE(IMX_NO) THEN

   1831  2 000007   200003 470500                    LDP0    @IMX_NO,,AUTO
         2 000010   000000 235100                    LDA     0,,PR0
         2 000011   000000 066405                    CMPB    filb='0'B
         2 000012   000055 000001 0                  BDSC    HW_RPM_CFG_DONE,A        by=0,bit=0,n=1
         2 000013   000002 000022 xsym               BDSC    B_VECTNIL+2              by=0,bit=0,n=18
         2 000014   000016 600000 2                  TZE     s:1833

     2027     1832    1             RETURN;

   1832  2 000015   000000 702200 xent               TSX2  ! X66_ARET

     2028     1833    1           CALL CHANNEL_3_CMD(IMX_NO,0);

   1833  2 000016   000000 236000 3                  LDQ     0
PL6.E3A0      #026=DO_RPM_CFG File=ISI$IOPROC.:E05TSI                            TUE 07/29/97 22:53 Page:495
         2 000017   200034 756100                    STQ     @IMX#+1,,AUTO
         2 000020   200003 236100                    LDQ     @IMX_NO,,AUTO
         2 000021   200033 756100                    STQ     J+2,,AUTO
         2 000022   000240 701000 2                  TSX1    CHANNEL_3_CMD
         2 000023   000000 011000                    NOP     0

     2029     1834    2           DO I = 0 TO 15;

   1834  2 000024   200030 450100                    STZ     I,,AUTO

     2030     1835    3             IF MCA_CFG.LEVEL_1.STATE(I) = 150 THEN DO;

   1835  2 000025   200030 236100                    LDQ     I,,AUTO
         2 000026   000013 402007                    MPY     11,DL
         2 000027   000100 101406                    MRL     fill='000'O
         2 000030   000026 400001 xsym               ADSC9   MCA_CFG+22,Q             cn=2,n=1
         2 000031   200044 000004                    ADSC9   @HDR_CMD+1,,AUTO         cn=0,n=4
         2 000032   200044 236100                    LDQ     @HDR_CMD+1,,AUTO
         2 000033   000226 116007                    CMPQ    150,DL
         2 000034   000146 601000 2                  TNZ     s:1847

     2031     1836    3                   IF RPM_CONSOLE = -1 THEN

   1836  2 000035   000000 235000 xsym               LDA     RPM_CONSOLE
         2 000036   000027 115000 xsym               CMPA    B_VECTNIL+23
         2 000037   000067 601000 2                  TNZ     s:1840

     2032     1837    3                     IF MCA_CFG.LEVEL_1.CONSOLE_CNTL.REM_MAINT(I) THEN

   1837  2 000040   200030 236100                    LDQ     I,,AUTO
         2 000041   000143 402007                    MPY     99,DL
         2 000042   000000 116003                    CMPQ    0,DU
         2 000043   000045 605000 2                  TPL     s:1837+5
         2 000044   000044 036003                    ADLQ    36,DU
         2 000045   000000 066406                    CMPB    filb='0'B
         2 000046   000026 610001 xsym               BDSC    MCA_CFG+22,Q             by=3,bit=1,n=1
         2 000047   000002 000022 xsym               BDSC    B_VECTNIL+2              by=0,bit=0,n=18
PL6.E3A0      #026=DO_RPM_CFG File=ISI$IOPROC.:E05TSI                            TUE 07/29/97 22:53 Page:496
         2 000050   000067 600000 2                  TZE     s:1840

     2033     1838    3                       IF MCA_CFG.LEVEL_1.CONSOLE_CNTL.MASTER(I) THEN

   1838  2 000051   200030 236100                    LDQ     I,,AUTO
         2 000052   000143 402007                    MPY     99,DL
         2 000053   000000 116003                    CMPQ    0,DU
         2 000054   000056 605000 2                  TPL     s:1838+5
         2 000055   000044 036003                    ADLQ    36,DU
         2 000056   000000 066406                    CMPB    filb='0'B
         2 000057   000026 620001 xsym               BDSC    MCA_CFG+22,Q             by=3,bit=2,n=1
         2 000060   000002 000022 xsym               BDSC    B_VECTNIL+2              by=0,bit=0,n=18
         2 000061   000067 600000 2                  TZE     s:1840

     2034     1839    3                         RPM_CONSOLE = MCA_CFG.LEVEL_1.PRI_CHN(I);

   1839  2 000062   200030 236100                    LDQ     I,,AUTO
         2 000063   000013 402007                    MPY     11,DL
         2 000064   000000 101406                    MRL     fill='000'O
         2 000065   000030 000001 xsym               ADSC9   MCA_CFG+24,Q             cn=0,n=1
         2 000066   000000 000004 xsym               ADSC9   RPM_CONSOLE              cn=0,n=4

     2035     1840    4                   DO J = MCA_CFG.LEVEL_1.PRI_CHN(I) TO MCA_CFG.LEVEL_1.PRI_CHN(I)

   1840  2 000067   200030 236100                    LDQ     I,,AUTO
         2 000070   000013 402007                    MPY     11,DL
         2 000071   000100 101406                    MRL     fill='000'O
         2 000072   000030 000001 xsym               ADSC9   MCA_CFG+24,Q             cn=0,n=1
         2 000073   200031 000004                    ADSC9   J,,AUTO                  cn=0,n=4
         2 000074   000131 710000 2                  TRA     s:1845+1

     2036     1841    4                     + MCA_CFG.LEVEL_1.LOG_CHNS(I) - 1;
     2037     1842    4                     CHN_CFG(IMX_NO * 128 + J) = '1'B;

   1842  2 000075   200003 470500                    LDP0    @IMX_NO,,AUTO
         2 000076   000000 236100                    LDQ     0,,PR0
         2 000077   000007 736000                    QLS     7
PL6.E3A0      #026=DO_RPM_CFG File=ISI$IOPROC.:E05TSI                            TUE 07/29/97 22:53 Page:497
         2 000100   200031 036100                    ADLQ    J,,AUTO
         2 000101   000103 605000 2                  TPL     s:1842+6
         2 000102   000044 036003                    ADLQ    36,DU
         2 000103   003006 060400                    CSL     bolr='003'O
         2 000104   000030 000001 xsym               BDSC    B_VECTNIL+24             by=0,bit=0,n=1
         2 000105   000000 000001 xsym               BDSC    CHN_CFG,Q                by=0,bit=0,n=1

     2038     1843    4                     IF MCA_FW_LOAD(MCA_CFG.LEVEL_1.HARDWARE_ID(I)) THEN

   1843  2 000106   200030 236100                    LDQ     I,,AUTO
         2 000107   000013 402007                    MPY     11,DL
         2 000110   000100 101406                    MRL     fill='000'O
         2 000111   000027 400001 xsym               ADSC9   MCA_CFG+23,Q             cn=2,n=1
         2 000112   200044 000004                    ADSC9   @HDR_CMD+1,,AUTO         cn=0,n=4
         2 000113   200044 236100                    LDQ     @HDR_CMD+1,,AUTO
         2 000114   000000 066406                    CMPB    filb='0'B
         2 000115   000026 000001 1                  BDSC    MCA_FW_LOAD,Q            by=0,bit=0,n=1
         2 000116   000002 000022 xsym               BDSC    B_VECTNIL+2              by=0,bit=0,n=18
         2 000117   000130 600000 2                  TZE     s:1845

     2039     1844    4                       FW_LOAD( IMX_NO * 128 + J) = '0'B;

   1844  2 000120   000000 236100                    LDQ     0,,PR0
         2 000121   000007 736000                    QLS     7
         2 000122   200031 036100                    ADLQ    J,,AUTO
         2 000123   000125 605000 2                  TPL     s:1844+5
         2 000124   000044 036003                    ADLQ    36,DU
         2 000125   003006 060400                    CSL     bolr='003'O
         2 000126   000002 000001 xsym               BDSC    B_VECTNIL+2              by=0,bit=0,n=1
         2 000127   000000 000001 xsym               BDSC    FW_LOAD,Q                by=0,bit=0,n=1

     2040     1845    4                   END;

   1845  2 000130   200031 054100                    AOS     J,,AUTO
         2 000131   200030 236100                    LDQ     I,,AUTO
         2 000132   000013 402007                    MPY     11,DL
         2 000133   000100 101406                    MRL     fill='000'O
PL6.E3A0      #026=DO_RPM_CFG File=ISI$IOPROC.:E05TSI                            TUE 07/29/97 22:53 Page:498
         2 000134   000030 200001 xsym               ADSC9   MCA_CFG+24,Q             cn=1,n=1
         2 000135   200044 000004                    ADSC9   @HDR_CMD+1,,AUTO         cn=0,n=4
         2 000136   000100 101406                    MRL     fill='000'O
         2 000137   000030 000001 xsym               ADSC9   MCA_CFG+24,Q             cn=0,n=1
         2 000140   200045 000004                    ADSC9   @HDR_CMD+2,,AUTO         cn=0,n=4
         2 000141   200045 236100                    LDQ     @HDR_CMD+2,,AUTO
         2 000142   200044 036100                    ADLQ    @HDR_CMD+1,,AUTO
         2 000143   000075 604000 2                  TMI     s:1842
         2 000144   200031 116100                    CMPQ    J,,AUTO
         2 000145   000075 605400 2                  TPNZ    s:1842

     2041     1846    3                 END;

     2042     1847    2           END;

   1847  2 000146   200030 054100                    AOS     I,,AUTO
         2 000147   200030 235100                    LDA     I,,AUTO
         2 000150   000017 115007                    CMPA    15,DL
         2 000151   000025 604400 2                  TMOZ    s:1835

     2043     1848    1           HW_RPM_CFG_DONE(IMX_NO) = '1'B;

   1848  2 000152   200003 470500                    LDP0    @IMX_NO,,AUTO
         2 000153   000000 235100                    LDA     0,,PR0
         2 000154   003005 060400                    CSL     bolr='003'O
         2 000155   000030 000001 xsym               BDSC    B_VECTNIL+24             by=0,bit=0,n=1
         2 000156   000055 000001 0                  BDSC    HW_RPM_CFG_DONE,A        by=0,bit=0,n=1

     2044     1849    1           RETURN;

   1849  2 000157   000000 702200 xent               TSX2  ! X66_ARET

     2045     1850    1   DO_RPM_TIME:ENTRY(IMX_NO) ALTRET;

   1850  2 000160   000000 700200 xent  DO_RPM_TIME  TSX0  ! X66_AUTO_1
         2 000161   000052 000001                    ZERO    42,1

PL6.E3A0      #026=DO_RPM_CFG File=ISI$IOPROC.:E05TSI                            TUE 07/29/97 22:53 Page:499
     2046     1851
     2047     1852    1           CALL CHANNEL_3_CMD(IMX_NO,1);

   1852  2 000162   000001 236000 3                  LDQ     1
         2 000163   200034 756100                    STQ     @IMX#+1,,AUTO
         2 000164   200003 236100                    LDQ     @IMX_NO,,AUTO
         2 000165   200033 756100                    STQ     J+2,,AUTO
         2 000166   000240 701000 2                  TSX1    CHANNEL_3_CMD
         2 000167   000000 011000                    NOP     0

     2048     1853    1           CALL SET_TIME_FROM_SP(OR_TIME);

   1853  2 000170   200026 630500                    EPPR0   OR_TIME,,AUTO
         2 000171   200044 450500                    STP0    @HDR_CMD+1,,AUTO
         2 000172   200044 630500                    EPPR0   @HDR_CMD+1,,AUTO
         2 000173   000017 631400 xsym               EPPR1   B_VECTNIL+15
         2 000174   000000 701000 xent               TSX1    SET_TIME_FROM_SP
         2 000175   000000 011000                    NOP     0

     2049     1854    1           RETURN;

   1854  2 000176   000000 702200 xent               TSX2  ! X66_ARET

     2050     1855    1   DO_SCU_STATE: ENTRY(IMX_NO) ALTRET;

   1855  2 000177   000000 700200 xent  DO_SCU_STATE TSX0  ! X66_AUTO_1
         2 000200   000052 000001                    ZERO    42,1

     2051     1856    1           DO_CMD = %MCA_CMD_STATE_SCU0# + MOD(IMX_NO,2);

   1856  2 000201   200003 470500                    LDP0    @IMX_NO,,AUTO
         2 000202   000000 236100                    LDQ     0,,PR0
         2 000203   000001 376007                    ANQ     1,DL
         2 000204   000006 036007                    ADLQ    6,DL
         2 000205   200015 756100                    STQ     DO_CMD,,AUTO

     2052     1857    1           CALL CHANNEL_3_CMD(MOD(IMX_NO,2),DO_CMD);
PL6.E3A0      #026=DO_RPM_CFG File=ISI$IOPROC.:E05TSI                            TUE 07/29/97 22:53 Page:500

   1857  2 000206   000000 236100                    LDQ     0,,PR0
         2 000207   000001 376007                    ANQ     1,DL
         2 000210   200050 756100                    STQ     @HDR_CMD+5,,AUTO
         2 000211   200015 631500                    EPPR1   DO_CMD,,AUTO
         2 000212   200034 451500                    STP1    @IMX#+1,,AUTO
         2 000213   200050 633500                    EPPR3   @HDR_CMD+5,,AUTO
         2 000214   200033 453500                    STP3    J+2,,AUTO
         2 000215   000240 701000 2                  TSX1    CHANNEL_3_CMD
         2 000216   000000 011000                    NOP     0

     2053     1858    1           RETURN;

   1858  2 000217   000000 702200 xent               TSX2  ! X66_ARET

     2054     1859    1   DO_CPU_SWITCH: ENTRY(IMX_NO) ALTRET;

   1859  2 000220   000000 700200 xent  DO_CPU_SWIT* TSX0  ! X66_AUTO_1
         2 000221   000052 000001                    ZERO    42,1

     2055     1860    1           DO_CMD = %MCA_CMD_SWITCH_CPU0# + IMX_NO;

   1860  2 000222   200003 470500                    LDP0    @IMX_NO,,AUTO
         2 000223   000000 235100                    LDA     0,,PR0
         2 000224   000002 035007                    ADLA    2,DL
         2 000225   200015 755100                    STA     DO_CMD,,AUTO

     2056     1861    1           CALL CHANNEL_3_CMD(MOD(IMX_NO,2),DO_CMD);

   1861  2 000226   000000 236100                    LDQ     0,,PR0
         2 000227   000001 376007                    ANQ     1,DL
         2 000230   200051 756100                    STQ     @HDR_CMD+6,,AUTO
         2 000231   200015 631500                    EPPR1   DO_CMD,,AUTO
         2 000232   200034 451500                    STP1    @IMX#+1,,AUTO
         2 000233   200051 633500                    EPPR3   @HDR_CMD+6,,AUTO
         2 000234   200033 453500                    STP3    J+2,,AUTO
         2 000235   000240 701000 2                  TSX1    CHANNEL_3_CMD
PL6.E3A0      #026=DO_RPM_CFG File=ISI$IOPROC.:E05TSI                            TUE 07/29/97 22:53 Page:501
         2 000236   000000 011000                    NOP     0

     2057     1862    1           RETURN;

   1862  2 000237   000000 702200 xent               TSX2  ! X66_ARET

     2058     1863
     2059     1864        %EJECT;
PL6.E3A0      #026=DO_RPM_CFG File=ISI$IOPROC.:E05TSI                            TUE 07/29/97 22:53 Page:502
     2060     1865    1   CHANNEL_3_CMD:PROC(IMX#,CMD_NO);

   1865  2 000240   200032 741300       CHANNEL_3_C* STX1  ! J+1,,AUTO

     2061     1866    2   DCL IMX# UBIN WORD;
     2062     1867    2   DCL CMD_NO UBIN WORD;
     2063     1868    2           MESSAGE$ = ADDR(CFG_STATUS);

   1868  2 000241   000002 236000 3                  LDQ     2
         2 000242   200007 756100                    STQ     MESSAGE$,,AUTO

     2064     1869    2           CALL BINCHAR(SUBSTR(TEXTM.TXT,6,1),CMD_NO);

   1869  2 000243   200007 470500                    LDP0    MESSAGE$,,AUTO
         2 000244   000000 720100                    LXL0    0,,PR0
         2 000245   200034 471500                    LDP1    @CMD_NO,,AUTO
         2 000246   100000 235100                    LDA     0,,PR1
         2 000247   000044 773000                    LRL     36
         2 000250   200044 757100                    STAQ    @HDR_CMD+1,,AUTO
         2 000251   000100 301500                    BTD
         2 000252   200044 000010                    NDSC9   @HDR_CMD+1,,AUTO         cn=0,s=lsgnf,sf=0,n=8
         2 000253   000002 430001                    NDSC9   2,,PR0                   cn=2,s=nosgn,sf=0,n=1

     2065     1870    2           TEMP_DCWS$ = ADDR(CH3_CONS_DCWS);

   1870  2 000254   000003 236000 3                  LDQ     3
         2 000255   200012 756100                    STQ     TEMP_DCWS$,,AUTO

     2066     1871    2           MBX$ = ADDR(CHN3_MBX);

   1871  2 000256   000004 236000 3                  LDQ     4
         2 000257   200010 756100                    STQ     MBX$,,AUTO

     2067     1872    2           CHN3_MBX = PATT_MBX;

   1872  2 000260   000000 100400                    MLR     fill='000'O
         2 000261   000000 000140 xsym               ADSC9   PATT_MBX                 cn=0,n=96
PL6.E3A0      #026=DO_RPM_CFG File=ISI$IOPROC.:E05TSI                            TUE 07/29/97 22:53 Page:503
         2 000262   000000 000140 xsym               ADSC9   CHN3_MBX                 cn=0,n=96

     2068     1873    2           CHN3_MBX.LPW.DCW_ADDR = TEMP_DCWS_PTR.WOFFS;

   1873  2 000263   200012 220100                    LDX0    TEMP_DCWS$,,AUTO
         2 000264   000007 740000 xsym               STX0    CHN3_MBX+7

     2069     1874    2   START_OVER:
     2070     1875    2           CALL BUILD_CH3_DCWS(%FCNRSS,%FCNRDC3,9);

   1875  2 000265   000001 236000 xsym  START_OVER   LDQ     B_VECTNIL+1
         2 000266   000001 235000 xsym               LDA     B_VECTNIL+1
         2 000267   200042 757100                    STAQ    @HDR_DEFINER+1,,AUTO
         2 000270   000006 237000 3                  LDAQ    6
         2 000271   200040 757100                    STAQ    @IM#+1,,AUTO
         2 000272   000010 236000 3                  LDQ     8
         2 000273   200037 756100                    STQ     @CMD_NO+3,,AUTO
         2 000274   001034 701000 2                  TSX1    BUILD_CH3_DCWS
         2 000275   000000 011000                    NOP     0

     2071     1876    2           TEMP_DCWS.DCW0.CONT = '0'B;

   1876  2 000276   200012 470500                    LDP0    TEMP_DCWS$,,AUTO
         2 000277   000011 236000 3                  LDQ     9
         2 000300   000000 356100                    ANSQ    0,,PR0

     2072     1877    2           CALL READ_CHN3(IMX#);

   1877  2 000301   200033 236100                    LDQ     @IMX#,,AUTO
         2 000302   200037 756100                    STQ     @CMD_NO+3,,AUTO
         2 000303   001140 701000 2                  TSX1    READ_CHN3
         2 000304   000000 011000                    NOP     0

     2073     1878    3           IF CHN3_MBX.STATUS.W8_INFO.TERM ~= '4002'O THEN DO;

   1878  2 000305   000010 236000 xsym               LDQ     CHN3_MBX+8
         2 000306   777700 376003                    ANQ     -64,DU
PL6.E3A0      #026=DO_RPM_CFG File=ISI$IOPROC.:E05TSI                            TUE 07/29/97 22:53 Page:504
         2 000307   400200 116003                    CMPQ    -130944,DU
         2 000310   000340 600000 2                  TZE     s:1888

     2074     1879    3                 TRYS = TRYS + 1;

   1879  2 000311   200013 054100                    AOS     TRYS,,AUTO

     2075     1880    4                 IF TRYS > 5 THEN DO;

   1880  2 000312   200013 235100                    LDA     TRYS,,AUTO
         2 000313   000005 115007                    CMPA    5,DL
         2 000314   000337 604400 2                  TMOZ    s:1886

     2076     1881    4                       MESSAGE$ = ADDR(CFG_RESET_ERR);

   1881  2 000315   000012 236000 3                  LDQ     10
         2 000316   200007 756100                    STQ     MESSAGE$,,AUTO

     2077     1882    4                       CALL BINCHAR(SUBSTR(TEXTM.TXT,6,1),CMD_NO);

   1882  2 000317   200007 470500                    LDP0    MESSAGE$,,AUTO
         2 000320   000000 720100                    LXL0    0,,PR0
         2 000321   200034 471500                    LDP1    @CMD_NO,,AUTO
         2 000322   100000 235100                    LDA     0,,PR1
         2 000323   000044 773000                    LRL     36
         2 000324   200044 757100                    STAQ    @HDR_CMD+1,,AUTO
         2 000325   000100 301500                    BTD
         2 000326   200044 000010                    NDSC9   @HDR_CMD+1,,AUTO         cn=0,s=lsgnf,sf=0,n=8
         2 000327   000002 430001                    NDSC9   2,,PR0                   cn=2,s=nosgn,sf=0,n=1

     2078     1883    4                       CALL TYPEC(TEXTM);

   1883  2 000330   200007 630500                    EPPR0   MESSAGE$,,AUTO
         2 000331   000017 631400 xsym               EPPR1   B_VECTNIL+15
         2 000332   000000 701000 xent               TSX1    TYPEC
         2 000333   000000 011000                    NOP     0

PL6.E3A0      #026=DO_RPM_CFG File=ISI$IOPROC.:E05TSI                            TUE 07/29/97 22:53 Page:505
     2079     1884    4                       CALL HANG;

   1884  2 000334   000002 631400 xsym               EPPR1   B_VECTNIL+2
         2 000335   000000 701000 xent               TSX1    HANG
         2 000336   000000 011000                    NOP     0

     2080     1885    4                     END;

     2081     1886    3                 GOTO START_OVER;

   1886  2 000337   000265 710000 2                  TRA     START_OVER

     2082     1887    3               END;
     2083     1888    3           DO CASE (CMD_NO);

   1888  2 000340   200034 470500                    LDP0    @CMD_NO,,AUTO
         2 000341   000000 235100                    LDA     0,,PR0
         2 000342   000010 115007                    CMPA    8,DL
         2 000343   000345 602005 2                  TNC     s:1888+5,AL
         2 000344   000500 710000 2                  TRA     DO_READ
         2 000345   000355 710000 2                  TRA     s:1890
         2 000346   000366 710000 2                  TRA     s:1892
         2 000347   000377 710000 2                  TRA     s:1894
         2 000350   000427 710000 2                  TRA     s:1902
         2 000351   000377 710000 2                  TRA     s:1894
         2 000352   000427 710000 2                  TRA     s:1902
         2 000353   000457 710000 2                  TRA     s:1910
         2 000354   000470 710000 2                  TRA     s:1912

     2084     1889    3             CASE (%MCA_CMD_CONFIG#);

     2085     1890    3               CALL BUILD_CH3_DCWS(%FCNWTC3,%FCNRDC3,7,LENGTHC(READ_CONFIG_INIT),
              1890                        READ_CONFIG_INIT);

   1890  2 000355   000014 237000 3                  LDAQ    12
         2 000356   200042 757100                    STAQ    @HDR_DEFINER+1,,AUTO
         2 000357   000016 237000 3                  LDAQ    14
PL6.E3A0      #026=DO_RPM_CFG File=ISI$IOPROC.:E05TSI                            TUE 07/29/97 22:53 Page:506
         2 000360   200040 757100                    STAQ    @IM#+1,,AUTO
         2 000361   000014 236000 3                  LDQ     12
         2 000362   200037 756100                    STQ     @CMD_NO+3,,AUTO
         2 000363   001034 701000 2                  TSX1    BUILD_CH3_DCWS
         2 000364   000000 011000                    NOP     0
         2 000365   000500 710000 2                  TRA     DO_READ

     2086     1891    3             CASE (%MCA_CMD_CCINIT#);

     2087     1892    3               CALL BUILD_CH3_DCWS(%FCNWTC3,%FCNRDC3,7,LENGTHC(SP_CCINIT_INIT),
              1892                        SP_CCINIT_INIT);

   1892  2 000366   000022 237000 3                  LDAQ    18
         2 000367   200042 757100                    STAQ    @HDR_DEFINER+1,,AUTO
         2 000370   000016 237000 3                  LDAQ    14
         2 000371   200040 757100                    STAQ    @IM#+1,,AUTO
         2 000372   000014 236000 3                  LDQ     12
         2 000373   200037 756100                    STQ     @CMD_NO+3,,AUTO
         2 000374   001034 701000 2                  TSX1    BUILD_CH3_DCWS
         2 000375   000000 011000                    NOP     0
         2 000376   000500 710000 2                  TRA     DO_READ

     2088     1893    3             CASE(%MCA_CMD_SWITCH_CPU0#,%MCA_CMD_SWITCH_CPU2#);

     2089     1894    3               TEMP$STRING = SP_SWITCH;

   1894  2 000377   040100 100400                    MLR     fill='040'O
         2 000400   000017 000033 1                  ADSC9   SP_SWITCH                cn=0,n=27
         2 000401   200016 000036                    ADSC9   TEMP$STRING,,AUTO        cn=0,n=30

     2090     1895    3               IF CMD_NO = %MCA_CMD_SWITCH_CPU0# THEN

   1895  2 000402   000000 235100                    LDA     0,,PR0
         2 000403   000002 115007                    CMPA    2,DL
         2 000404   000410 601000 2                  TNZ     s:1898

     2091     1896    3                 SUBSTR(TEMP$STRING,14,1) = '0';
PL6.E3A0      #026=DO_RPM_CFG File=ISI$IOPROC.:E05TSI                            TUE 07/29/97 22:53 Page:507

   1896  2 000405   060000 236007                    LDQ     24576,DL
         2 000406   200021 552110                    STBQ    TEMP$STRING+3,'10'O,AUTO
         2 000407   000412 710000 2                  TRA     s:1899

     2092     1897    3                 ELSE
     2093     1898    3                 SUBSTR(TEMP$STRING,14,1) = '2';

   1898  2 000410   062000 236007                    LDQ     25600,DL
         2 000411   200021 552110                    STBQ    TEMP$STRING+3,'10'O,AUTO

     2094     1899    3               SUBSTR(TEMP$STRING,21,1) = 'B';

   1899  2 000412   000102 236003                    LDQ     66,DU
         2 000413   200023 552120                    STBQ    TEMP$STRING+5,'20'O,AUTO

     2095     1900    3              CALL BUILD_CH3_DCWS(%FCNWTC3,%FCNRDC3,7,LENGTHC(SP_SWITCH),TEMP$STRING);

   1900  2 000414   200016 631500                    EPPR1   TEMP$STRING,,AUTO
         2 000415   200043 451500                    STP1    @HDR_CMD_LEN+1,,AUTO
         2 000416   000024 236000 3                  LDQ     20
         2 000417   200042 756100                    STQ     @HDR_DEFINER+1,,AUTO
         2 000420   000016 237000 3                  LDAQ    14
         2 000421   200040 757100                    STAQ    @IM#+1,,AUTO
         2 000422   000014 236000 3                  LDQ     12
         2 000423   200037 756100                    STQ     @CMD_NO+3,,AUTO
         2 000424   001034 701000 2                  TSX1    BUILD_CH3_DCWS
         2 000425   000000 011000                    NOP     0
         2 000426   000500 710000 2                  TRA     DO_READ

     2096     1901    3             CASE(%MCA_CMD_SWITCH_CPU1#,%MCA_CMD_SWITCH_CPU3#);

     2097     1902    3               TEMP$STRING = SP_SWITCH;

   1902  2 000427   040100 100400                    MLR     fill='040'O
         2 000430   000017 000033 1                  ADSC9   SP_SWITCH                cn=0,n=27
         2 000431   200016 000036                    ADSC9   TEMP$STRING,,AUTO        cn=0,n=30
PL6.E3A0      #026=DO_RPM_CFG File=ISI$IOPROC.:E05TSI                            TUE 07/29/97 22:53 Page:508

     2098     1903    3               IF CMD_NO = %MCA_CMD_SWITCH_CPU1# THEN

   1903  2 000432   000000 235100                    LDA     0,,PR0
         2 000433   000003 115007                    CMPA    3,DL
         2 000434   000440 601000 2                  TNZ     s:1906

     2099     1904    3                 SUBSTR(TEMP$STRING,14,1) = '0';

   1904  2 000435   060000 236007                    LDQ     24576,DL
         2 000436   200021 552110                    STBQ    TEMP$STRING+3,'10'O,AUTO
         2 000437   000442 710000 2                  TRA     s:1907

     2100     1905    3                 ELSE
     2101     1906    3                 SUBSTR(TEMP$STRING,14,1) = '2';

   1906  2 000440   062000 236007                    LDQ     25600,DL
         2 000441   200021 552110                    STBQ    TEMP$STRING+3,'10'O,AUTO

     2102     1907    3               SUBSTR(TEMP$STRING,21,1) = 'A';

   1907  2 000442   000101 236003                    LDQ     65,DU
         2 000443   200023 552120                    STBQ    TEMP$STRING+5,'20'O,AUTO

     2103     1908    3              CALL BUILD_CH3_DCWS(%FCNWTC3,%FCNRDC3,7,LENGTHC(SP_SWITCH),TEMP$STRING);

   1908  2 000444   200016 631500                    EPPR1   TEMP$STRING,,AUTO
         2 000445   200043 451500                    STP1    @HDR_CMD_LEN+1,,AUTO
         2 000446   000024 236000 3                  LDQ     20
         2 000447   200042 756100                    STQ     @HDR_DEFINER+1,,AUTO
         2 000450   000016 237000 3                  LDAQ    14
         2 000451   200040 757100                    STAQ    @IM#+1,,AUTO
         2 000452   000014 236000 3                  LDQ     12
         2 000453   200037 756100                    STQ     @CMD_NO+3,,AUTO
         2 000454   001034 701000 2                  TSX1    BUILD_CH3_DCWS
         2 000455   000000 011000                    NOP     0
         2 000456   000500 710000 2                  TRA     DO_READ
PL6.E3A0      #026=DO_RPM_CFG File=ISI$IOPROC.:E05TSI                            TUE 07/29/97 22:53 Page:509

     2104     1909    3             CASE (%MCA_CMD_STATE_SCU0#);

     2105     1910    3               CALL BUILD_CH3_DCWS(%FCNWTC3,%FCNRDC3,7,LENGTHC(SP_SCU0_STATE),
              1910                        SP_SCU0_STATE);

   1910  2 000457   000026 237000 3                  LDAQ    22
         2 000460   200042 757100                    STAQ    @HDR_DEFINER+1,,AUTO
         2 000461   000016 237000 3                  LDAQ    14
         2 000462   200040 757100                    STAQ    @IM#+1,,AUTO
         2 000463   000014 236000 3                  LDQ     12
         2 000464   200037 756100                    STQ     @CMD_NO+3,,AUTO
         2 000465   001034 701000 2                  TSX1    BUILD_CH3_DCWS
         2 000466   000000 011000                    NOP     0
         2 000467   000500 710000 2                  TRA     DO_READ

     2106     1911    3             CASE (%MCA_CMD_STATE_SCU1#);

     2107     1912    3               CALL BUILD_CH3_DCWS(%FCNWTC3,%FCNRDC3,7,LENGTHC(SP_SCU1_STATE),
              1912                        SP_SCU1_STATE);

   1912  2 000470   000030 237000 3                  LDAQ    24
         2 000471   200042 757100                    STAQ    @HDR_DEFINER+1,,AUTO
         2 000472   000016 237000 3                  LDAQ    14
         2 000473   200040 757100                    STAQ    @IM#+1,,AUTO
         2 000474   000014 236000 3                  LDQ     12
         2 000475   200037 756100                    STQ     @CMD_NO+3,,AUTO
         2 000476   001034 701000 2                  TSX1    BUILD_CH3_DCWS
         2 000477   000000 011000                    NOP     0

     2108     1913    3           END;

     2109     1914    2   DO_READ:
     2110     1915    2           CALL READ_CHN3(IMX#);

   1915  2 000500   200033 236100       DO_READ      LDQ     @IMX#,,AUTO
         2 000501   200037 756100                    STQ     @CMD_NO+3,,AUTO
PL6.E3A0      #026=DO_RPM_CFG File=ISI$IOPROC.:E05TSI                            TUE 07/29/97 22:53 Page:510
         2 000502   001140 701000 2                  TSX1    READ_CHN3
         2 000503   000000 011000                    NOP     0

     2111     1916    3           DO SELECT(CHN3_MBX.STATUS.W8_INFO.TERM & '3777'O);

   1916  2 000504   000010 236000 xsym               LDQ     CHN3_MBX+8
         2 000505   777700 376003                    ANQ     -64,DU
         2 000506   377700 376003                    ANQ     131008,DU
         2 000507   004000 116003                    CMPQ    2048,DU
         2 000510   000513 602000 2                  TNC     s:1916+7
         2 000511   000516 600000 2                  TZE     s:1918
         2 000512   001020 710000 2                  TRA     s:1980
         2 000513   000200 116003                    CMPQ    128,DU
         2 000514   001020 601000 2                  TNZ     s:1980
         2 000515   001016 710000 2                  TRA     s:1978

     2112     1917    3             SELECT('0040'O);

     2113     1918    3             IF MCA_HDR.DEFINER = %MCA_DEF_READ# THEN

   1918  2 000516   000056 470400 0                  LDP0    PO$
         2 000517   000000 236100                    LDQ     0,,PR0
         2 000520   000777 376003                    ANQ     511,DU
         2 000521   000001 116003                    CMPQ    1,DU
         2 000522   000526 601000 2                  TNZ     s:1921

     2114     1919    3               NEXT_DEFINER = %MCA_DEF_STATUS#;

   1919  2 000523   000011 235007                    LDA     9,DL
         2 000524   200014 755100                    STA     NEXT_DEFINER,,AUTO
         2 000525   000557 710000 2                  TRA     s:1929

     2115     1920    3               ELSE
     2116     1921    3               IF MCA_HDR.DEFINER = %MCA_DEF_READDATA# THEN

   1921  2 000526   000000 236100                    LDQ     0,,PR0
         2 000527   000777 376003                    ANQ     511,DU
PL6.E3A0      #026=DO_RPM_CFG File=ISI$IOPROC.:E05TSI                            TUE 07/29/97 22:53 Page:511
         2 000530   000002 116003                    CMPQ    2,DU
         2 000531   000535 601000 2                  TNZ     s:1924

     2117     1922    3                 NEXT_DEFINER = %MCA_DEF_DATA#;

   1922  2 000532   000007 235007                    LDA     7,DL
         2 000533   200014 755100                    STA     NEXT_DEFINER,,AUTO
         2 000534   000557 710000 2                  TRA     s:1929

     2118     1923    4                 ELSE DO;

     2119     1924    4                     MESSAGE$ = ADDR(CFG_ERR);

   1924  2 000535   000032 236000 3                  LDQ     26
         2 000536   200007 756100                    STQ     MESSAGE$,,AUTO

     2120     1925    4                     CALL BINCHAR(SUBSTR(TEXTM.TXT,6,1),CMD_NO);

   1925  2 000537   200007 471500                    LDP1    MESSAGE$,,AUTO
         2 000540   100000 720100                    LXL0    0,,PR1
         2 000541   200034 473500                    LDP3    @CMD_NO,,AUTO
         2 000542   300000 235100                    LDA     0,,PR3
         2 000543   000044 773000                    LRL     36
         2 000544   200044 757100                    STAQ    @HDR_CMD+1,,AUTO
         2 000545   000100 301500                    BTD
         2 000546   200044 000010                    NDSC9   @HDR_CMD+1,,AUTO         cn=0,s=lsgnf,sf=0,n=8
         2 000547   100002 430001                    NDSC9   2,,PR1                   cn=2,s=nosgn,sf=0,n=1

     2121     1926    4                     CALL TYPEC(TEXTM);

   1926  2 000550   200007 630500                    EPPR0   MESSAGE$,,AUTO
         2 000551   000017 631400 xsym               EPPR1   B_VECTNIL+15
         2 000552   000000 701000 xent               TSX1    TYPEC
         2 000553   000000 011000                    NOP     0

     2122     1927    4                     CALL HANG;

PL6.E3A0      #026=DO_RPM_CFG File=ISI$IOPROC.:E05TSI                            TUE 07/29/97 22:53 Page:512
   1927  2 000554   000002 631400 xsym               EPPR1   B_VECTNIL+2
         2 000555   000000 701000 xent               TSX1    HANG
         2 000556   000000 011000                    NOP     0

     2123     1928    4                   END;

     2124     1929    4             DO CASE (CMD_NO);

   1929  2 000557   200034 470500                    LDP0    @CMD_NO,,AUTO
         2 000560   000000 235100                    LDA     0,,PR0
         2 000561   000010 115007                    CMPA    8,DL
         2 000562   000564 602005 2                  TNC     s:1929+5,AL
         2 000563   000760 710000 2                  TRA     s:1972
         2 000564   000574 710000 2                  TRA     s:1931
         2 000565   000607 710000 2                  TRA     s:1935
         2 000566   000760 710000 2                  TRA     s:1972
         2 000567   000760 710000 2                  TRA     s:1972
         2 000570   000760 710000 2                  TRA     s:1972
         2 000571   000760 710000 2                  TRA     s:1972
         2 000572   000653 710000 2                  TRA     s:1942
         2 000573   000653 710000 2                  TRA     s:1942

     2125     1930    4               CASE(%MCA_CMD_CONFIG#);

     2126     1931    4                 ST$LEN = LENGTHC(MCA_CFG);

   1931  2 000574   003130 236007                    LDQ     1624,DL
         2 000575   200005 756100                    STQ     ST$LEN,,AUTO

     2127     1932    4                 ST$ = ADDR(MCA_CFG);

   1932  2 000576   000033 236000 3                  LDQ     27
         2 000577   200006 756100                    STQ     ST$,,AUTO

     2128     1933    4                 ST = PINCRC(PO$,32)->ST;

   1933  2 000600   000056 471400 0                  LDP1    PO$
PL6.E3A0      #026=DO_RPM_CFG File=ISI$IOPROC.:E05TSI                            TUE 07/29/97 22:53 Page:513
         2 000601   200005 720100                    LXL0    ST$LEN,,AUTO
         2 000602   200006 473500                    LDP3    ST$,,AUTO
         2 000603   040140 100540                    MLR     fill='040'O
         2 000604   100010 000010                    ADSC9   8,,PR1                   cn=0,n=*X0
         2 000605   300000 000010                    ADSC9   0,,PR3                   cn=0,n=*X0
         2 000606   000760 710000 2                  TRA     s:1972

     2129     1934    4               CASE(%MCA_CMD_CCINIT#);

     2130     1935    4                 SP$ = PINCRC(PO$,LENGTHC(INIT_HDR));

   1935  2 000607   000056 236000 0                  LDQ     PO$
         2 000610   000010 036003                    ADLQ    8,DU
         2 000611   200011 756100                    STQ     SP$,,AUTO

     2131     1936    4                 OR_TIME = 0;

   1936  2 000612   200026 450100                    STZ     OR_TIME,,AUTO

     2132     1937    5                 DO I = 0 TO 7;

   1937  2 000613   200030 450100                    STZ     I,,AUTO

     2133     1938    5                   OR_TIME_STRUC.HEX_DIGIT(I) = SP_TIME.BITE.HEX_DIGIT(I);

   1938  2 000614   200030 236100                    LDQ     I,,AUTO
         2 000615   000011 402007                    MPY     9,DL
         2 000616   000000 116003                    CMPQ    0,DU
         2 000617   000621 605000 2                  TPL     s:1938+5
         2 000620   000044 036003                    ADLQ    36,DU
         2 000621   200030 235100                    LDA     I,,AUTO
         2 000622   000002 735000                    ALS     2
         2 000623   000625 605000 2                  TPL     s:1938+9
         2 000624   000044 035003                    ADLA    36,DU
         2 000625   200011 470500                    LDP0    SP$,,AUTO
         2 000626   003105 060506                    CSL     bolr='003'O
         2 000627   000000 050004                    BDSC    0,Q,PR0                  by=0,bit=5,n=4
PL6.E3A0      #026=DO_RPM_CFG File=ISI$IOPROC.:E05TSI                            TUE 07/29/97 22:53 Page:514
         2 000630   200026 040004                    BDSC    OR_TIME,A,AUTO           by=0,bit=4,n=4

     2134     1939    5                 END;

   1939  2 000631   200030 054100                    AOS     I,,AUTO
         2 000632   200030 235100                    LDA     I,,AUTO
         2 000633   000007 115007                    CMPA    7,DL
         2 000634   000614 604400 2                  TMOZ    s:1938

     2135     1940    4                 CALL XUD$UTS_ADJ_25TH (OR_TIME, 0, OR_TIME*%UTS_25TH_SEC#);

   1940  2 000635   200026 236100                    LDQ     OR_TIME,,AUTO
         2 000636   000031 402007                    MPY     25,DL
         2 000637   200044 756100                    STQ     @HDR_CMD+1,,AUTO
         2 000640   200044 631500                    EPPR1   @HDR_CMD+1,,AUTO
         2 000641   200047 451500                    STP1    @HDR_CMD+4,,AUTO
         2 000642   000000 236000 3                  LDQ     0
         2 000643   200046 756100                    STQ     @HDR_CMD+3,,AUTO
         2 000644   200026 633500                    EPPR3   OR_TIME,,AUTO
         2 000645   200045 453500                    STP3    @HDR_CMD+2,,AUTO
         2 000646   200045 630500                    EPPR0   @HDR_CMD+2,,AUTO
         2 000647   000021 631400 xsym               EPPR1   B_VECTNIL+17
         2 000650   000000 701000 xent               TSX1    XUD$UTS_ADJ_25TH
         2 000651   000000 011000                    NOP     0
         2 000652   000760 710000 2                  TRA     s:1972

     2136     1941    4               CASE(%MCA_CMD_STATE_SCU0#,%MCA_CMD_STATE_SCU1#);

     2137     1942    4                 ST$ = PINCRC(PO$,32);

   1942  2 000653   000056 236000 0                  LDQ     PO$
         2 000654   000010 036003                    ADLQ    8,DU
         2 000655   200006 756100                    STQ     ST$,,AUTO

     2138     1943    4                 ST$LEN = MCA_HDR.SRCLEN;

   1943  2 000656   000056 471400 0                  LDP1    PO$
PL6.E3A0      #026=DO_RPM_CFG File=ISI$IOPROC.:E05TSI                            TUE 07/29/97 22:53 Page:515
         2 000657   100006 236100                    LDQ     6,,PR1
         2 000660   000022 732000                    QRS     18
         2 000661   200005 756100                    STQ     ST$LEN,,AUTO

     2139     1944    4                 CALL INDEX(I,'CONFIGURED',ST);

   1944  2 000662   200030 631500                    EPPR1   I,,AUTO
         2 000663   000027 633400 1                  EPPR3   MCA_FW_LOAD+1
         2 000664   000012 223003                    LDX3    10,DU
         2 000665   200006 470500                    LDP0    ST$,,AUTO
         2 000666   000000 620006                    EAX0    0,QL
         2 000667   000000 236003                    LDQ     0,DU
         2 000670   000000 701000 xent               TSX1    X66_INDEX
         2 000671   000000 011000                    NOP     0

     2140     1945    5                 IF (I < ST$LEN) THEN DO;

   1945  2 000672   200030 236100                    LDQ     I,,AUTO
         2 000673   000676 604000 2                  TMI     s:1946
         2 000674   200005 116100                    CMPQ    ST$LEN,,AUTO
         2 000675   000760 603000 2                  TRC     s:1972

     2141     1946    5                       CALL INDEX(I,'S',ST);

   1946  2 000676   200005 720100                    LXL0    ST$LEN,,AUTO
         2 000677   000000 124540                    SCM     mask='000'O
         2 000700   000000 000010                    ADSC9   0,,PR0                   cn=0,n=*X0
         2 000701   000034 000001 3                  ADSC9   28                       cn=0,n=1
         2 000702   200030 000100                    ARG     I,,AUTO

     2142     1947    5                       IS_CFG_NAME = SUBSTR(ST,I,12);

   1947  2 000703   200030 235100                    LDA     I,,AUTO
         2 000704   040000 100505                    MLR     fill='040'O
         2 000705   000000 000011                    ADSC9   0,A,PR0                  cn=0,n=9
         2 000706   000000 000011 xsym               ADSC9   IS_CFG_NAME              cn=0,n=9

PL6.E3A0      #026=DO_RPM_CFG File=ISI$IOPROC.:E05TSI                            TUE 07/29/97 22:53 Page:516
     2143     1948    5                       IF SUBSTR(IS_CFG_NAME,6,1) = '1' THEN

   1948  2 000707   000001 236000 xsym               LDQ     IS_CFG_NAME+1
         2 000710   777000 376007                    ANQ     -512,DL
         2 000711   061000 116007                    CMPQ    25088,DL
         2 000712   000716 601000 2                  TNZ     s:1951

     2144     1949    5                         IS_MEM_SIDE1 = '1'B;

   1949  2 000713   400000 236003                    LDQ     -131072,DU
         2 000714   000000 756000 xsym               STQ     IS_MEM_SIDE1
         2 000715   000717 710000 2                  TRA     s:1952

     2145     1950    5                         ELSE
     2146     1951    5                         IS_MEM_SIDE1 = '0'B;

   1951  2 000716   000000 450000 xsym               STZ     IS_MEM_SIDE1

     2147     1952    5                       IF SUBSTR(IS_CFG_NAME,1,1) = '1' THEN

   1952  2 000717   000000 236000 xsym               LDQ     IS_CFG_NAME
         2 000720   000777 376003                    ANQ     511,DU
         2 000721   000061 116003                    CMPQ    49,DU
         2 000722   000726 601000 2                  TNZ     s:1955

     2148     1953    5                         IS_CSP_SIDE1 = '1'B;

   1953  2 000723   400000 236003                    LDQ     -131072,DU
         2 000724   000000 756000 xsym               STQ     IS_CSP_SIDE1
         2 000725   000727 710000 2                  TRA     s:1956

     2149     1954    5                         ELSE
     2150     1955    5                         IS_CSP_SIDE1 = '0'B;

   1955  2 000726   000000 450000 xsym               STZ     IS_CSP_SIDE1

     2151     1956    5                       IF SUBSTR(IS_CFG_NAME,2,4) = 'SING' THEN
PL6.E3A0      #026=DO_RPM_CFG File=ISI$IOPROC.:E05TSI                            TUE 07/29/97 22:53 Page:517

   1956  2 000727   040000 106400                    CMPC    fill='040'O
         2 000730   000000 400004 xsym               ADSC9   IS_CFG_NAME              cn=2,n=4
         2 000731   000032 000004 1                  ADSC9   MCA_FW_LOAD+4            cn=0,n=4
         2 000732   000735 601000 2                  TNZ     s:1959

     2152     1957    5                         IS_CFG_TYPE = %IS_CFG_SINGLE_CAB#;

   1957  2 000733   000000 450000 xsym               STZ     IS_CFG_TYPE
         2 000734   000760 710000 2                  TRA     s:1972

     2153     1958    6                         ELSE DO;

     2154     1959    7                             IF SUBSTR(IS_CFG_NAME,6,1) = 'H' THEN DO;

   1959  2 000735   000001 236000 xsym               LDQ     IS_CFG_NAME+1
         2 000736   777000 376007                    ANQ     -512,DL
         2 000737   110000 116007                    CMPQ    36864,DL
         2 000740   000756 601000 2                  TNZ     s:1968

     2155     1960    7                                   IF SUBSTR(IS_CFG_NAME,7,1) = 'R' THEN

   1960  2 000741   000001 236000 xsym               LDQ     IS_CFG_NAME+1
         2 000742   000777 376007                    ANQ     511,DL
         2 000743   000122 116007                    CMPQ    82,DL
         2 000744   000750 601000 2                  TNZ     s:1963

     2156     1961    7                                     IS_CFG_TYPE = %IS_CFG_MULT_CAB_REL#;

   1961  2 000745   000002 236007                    LDQ     2,DL
         2 000746   000000 756000 xsym               STQ     IS_CFG_TYPE
         2 000747   000751 710000 2                  TRA     s:1964

     2157     1962    7                                     ELSE
     2158     1963    7                                     IS_CFG_TYPE = %IS_CFG_SINGLE_CAB#;

   1963  2 000750   000000 450000 xsym               STZ     IS_CFG_TYPE
PL6.E3A0      #026=DO_RPM_CFG File=ISI$IOPROC.:E05TSI                            TUE 07/29/97 22:53 Page:518

     2159     1964    7                                   IF IS_CSP_SIDE1 THEN

   1964  2 000751   000000 234000 xsym               SZN     IS_CSP_SIDE1
         2 000752   000760 605000 2                  TPL     s:1972

     2160     1965    7                                     IS_MEM_SIDE1 = '1'B;

   1965  2 000753   400000 236003                    LDQ     -131072,DU
         2 000754   000000 756000 xsym               STQ     IS_MEM_SIDE1

     2161     1966    7                                 END;

   1966  2 000755   000760 710000 2                  TRA     s:1972

     2162     1967    6                               ELSE
     2163     1968    6                               IS_CFG_TYPE = %IS_CFG_MULT_CAB#;

   1968  2 000756   000001 236007                    LDQ     1,DL
         2 000757   000000 756000 xsym               STQ     IS_CFG_TYPE

     2164     1969    6                           END;

     2165     1970    5                     END;

     2166     1971    4             END;

     2167     1972    3             IF CMD_NO >= %MCA_CMD_STATE_SCU0# AND NEXT_DEFINER= %MCA_DEF_DATA# THEN

   1972  2 000760   200034 470500                    LDP0    @CMD_NO,,AUTO
         2 000761   000000 235100                    LDA     0,,PR0
         2 000762   000006 115007                    CMPA    6,DL
         2 000763   001002 602000 2                  TNC     s:1975
         2 000764   200014 236100                    LDQ     NEXT_DEFINER,,AUTO
         2 000765   000007 116007                    CMPQ    7,DL
         2 000766   001002 601000 2                  TNZ     s:1975

PL6.E3A0      #026=DO_RPM_CFG File=ISI$IOPROC.:E05TSI                            TUE 07/29/97 22:53 Page:519
     2168     1973    3               CALL BUILD_CH3_DCWS(%FCNWDC3,%FCNRDC3,NEXT_DEFINER,0,SP_SCU0_STATE);

   1973  2 000767   000036 237000 3                  LDAQ    30
         2 000770   200042 757100                    STAQ    @HDR_DEFINER+1,,AUTO
         2 000771   200014 631500                    EPPR1   NEXT_DEFINER,,AUTO
         2 000772   200041 451500                    STP1    @IDCW1+1,,AUTO
         2 000773   000006 236000 3                  LDQ     6
         2 000774   200040 756100                    STQ     @IM#+1,,AUTO
         2 000775   000022 236000 3                  LDQ     18
         2 000776   200037 756100                    STQ     @CMD_NO+3,,AUTO
         2 000777   001034 701000 2                  TSX1    BUILD_CH3_DCWS
         2 001000   000000 011000                    NOP     0
         2 001001   001015 710000 2                  TRA     s:1976

     2169     1974    3               ELSE
     2170     1975    3               CALL BUILD_CH3_DCWS(%FCNWDC3,%FCNRDC3,NEXT_DEFINER);

   1975  2 001002   000001 236000 xsym               LDQ     B_VECTNIL+1
         2 001003   000001 235000 xsym               LDA     B_VECTNIL+1
         2 001004   200042 757100                    STAQ    @HDR_DEFINER+1,,AUTO
         2 001005   200014 631500                    EPPR1   NEXT_DEFINER,,AUTO
         2 001006   200041 451500                    STP1    @IDCW1+1,,AUTO
         2 001007   000006 236000 3                  LDQ     6
         2 001010   200040 756100                    STQ     @IM#+1,,AUTO
         2 001011   000022 236000 3                  LDQ     18
         2 001012   200037 756100                    STQ     @CMD_NO+3,,AUTO
         2 001013   001034 701000 2                  TSX1    BUILD_CH3_DCWS
         2 001014   000000 011000                    NOP     0

     2171     1976    3             GOTO DO_READ;

   1976  2 001015   000500 710000 2                  TRA     DO_READ

     2172     1977    3             SELECT('0002'O);

     2173     1978    3             RETURN;

PL6.E3A0      #026=DO_RPM_CFG File=ISI$IOPROC.:E05TSI                            TUE 07/29/97 22:53 Page:520
   1978  2 001016   200032 221300                    LDX1  ! J+1,,AUTO
         2 001017   000001 702211                    TSX2  ! 1,X1

     2174     1979    3             SELECT (ELSE);

     2175     1980    3           TRYS = TRYS + 1;

   1980  2 001020   200013 054100                    AOS     TRYS,,AUTO

     2176     1981    4           IF TRYS > 5 THEN DO;

   1981  2 001021   200013 235100                    LDA     TRYS,,AUTO
         2 001022   000005 115007                    CMPA    5,DL
         2 001023   001033 604400 2                  TMOZ    s:1985

     2177     1982    4                 CALL TYPEC(TEXTM);

   1982  2 001024   200007 630500                    EPPR0   MESSAGE$,,AUTO
         2 001025   000017 631400 xsym               EPPR1   B_VECTNIL+15
         2 001026   000000 701000 xent               TSX1    TYPEC
         2 001027   000000 011000                    NOP     0

     2178     1983    4                 CALL HANG;

   1983  2 001030   000002 631400 xsym               EPPR1   B_VECTNIL+2
         2 001031   000000 701000 xent               TSX1    HANG
         2 001032   000000 011000                    NOP     0

     2179     1984    4               END;

     2180     1985    3           GOTO START_OVER;

   1985  2 001033   000265 710000 2                  TRA     START_OVER

     2181     1986    3           END;

     2182     1987    2   END CHANNEL_3_CMD;
PL6.E3A0      #026=DO_RPM_CFG File=ISI$IOPROC.:E05TSI                            TUE 07/29/97 22:53 Page:521
     2183     1988        %EJECT;
PL6.E3A0      #026=DO_RPM_CFG File=ISI$IOPROC.:E05TSI                            TUE 07/29/97 22:53 Page:522
     2184     1989    1   BUILD_CH3_DCWS:PROC(IDCW0,IDCW1,HDR_DEFINER,HDR_CMD_LEN,HDR_CMD);

   1989  2 001034   200036 741300       BUILD_CH3_D* STX1  ! @CMD_NO+2,,AUTO

     2185     1990    2   DCL   IDCW0 SBIN WORD;
     2186     1991    2   DCL   IDCW1 SBIN WORD;
     2187     1992    2   DCL   HDR_DEFINER SBIN WORD;
     2188     1993    2   DCL   HDR_CMD_LEN SBIN WORD;
     2189     1994    2   DCL   HDR_CMD CHAR(HDR_CMD_LEN);
     2190     1995
     2191     1996    2           MCA_HDR = INIT_HDR;

   1996  2 001035   000056 470400 0                  LDP0    PO$
         2 001036   000100 100400                    MLR     fill='000'O
         2 001037   000000 000040 0                  ADSC9   INIT_HDR                 cn=0,n=32
         2 001040   000000 000040                    ADSC9   0,,PR0                   cn=0,n=32

     2192     1997    2           MCA_HDR.DEFINER = HDR_DEFINER;

   1997  2 001041   200041 471500                    LDP1    @HDR_DEFINER,,AUTO
         2 001042   100000 236100                    LDQ     0,,PR1
         2 001043   000022 736000                    QLS     18
         2 001044   000000 552120                    STBQ    0,'20'O,PR0

     2193     1998    2           TEMP_DCWS = '0'B;

   1998  2 001045   200012 473500                    LDP3    TEMP_DCWS$,,AUTO
         2 001046   000100 100400                    MLR     fill='000'O
         2 001047   000002 000001 xsym               ADSC9   B_VECTNIL+2              cn=0,n=1
         2 001050   300000 000020                    ADSC9   0,,PR3                   cn=0,n=16

     2194     1999    2           TEMP_DCWS.DCW1$ = ADDR(POBUF);

   1999  2 001051   000035 236000 3                  LDQ     29
         2 001052   300001 756100                    STQ     1,,PR3

     2195     2000    2           TEMP_DCWS.DCW1.TALLY = 0;
PL6.E3A0      #026=DO_RPM_CFG File=ISI$IOPROC.:E05TSI                            TUE 07/29/97 22:53 Page:523

   2000  2 001053   000000 236003                    LDQ     0,DU
         2 001054   300001 752103                    STCQ    1,'03'O,PR3

     2196     2001    2           IF ADDR(HDR_CMD_LEN) = ADDR(NIL) THEN

   2001  2 001055   200042 236100                    LDQ     @HDR_CMD_LEN,,AUTO
         2 001056   000001 116000 xsym               CMPQ    B_VECTNIL+1
         2 001057   001063 601000 2                  TNZ     s:2004

     2197     2002    2             MCA_HDR.TBYTES = 0;

   2002  2 001060   000000 220003                    LDX0    0,DU
         2 001061   000007 440100                    SXL0    7,,PR0
         2 001062   001105 710000 2                  TRA     s:2009

     2198     2003    3             ELSE DO;

     2199     2004    3                 MCA_HDR.TBYTES = HDR_CMD_LEN + 1;

   2004  2 001063   200042 474500                    LDP4    @HDR_CMD_LEN,,AUTO
         2 001064   400000 720100                    LXL0    0,,PR4
         2 001065   000001 621010                    EAX1    1,X0
         2 001066   000007 441100                    SXL1    7,,PR0

     2200     2005    3                 TEMP_DCWS.DCW1.TALLY = (HDR_CMD_LEN + 4)/4;

   2005  2 001067   400000 236100                    LDQ     0,,PR4
         2 001070   000004 036007                    ADLQ    4,DL
         2 001071   000004 506007                    DIV     4,DL
         2 001072   300001 752103                    STCQ    1,'03'O,PR3

     2201     2006    3                 SUBSTR(POBUF,32,HDR_CMD_LEN) = HDR_CMD;

   2006  2 001073   400000 720100                    LXL0    0,,PR4
         2 001074   400000 721100                    LXL1    0,,PR4
         2 001075   200043 475500                    LDP5    @HDR_CMD,,AUTO
PL6.E3A0      #026=DO_RPM_CFG File=ISI$IOPROC.:E05TSI                            TUE 07/29/97 22:53 Page:524
         2 001076   040040 100540                    MLR     fill='040'O
         2 001077   500000 000011                    ADSC9   0,,PR5                   cn=0,n=*X1
         2 001100   000010 000010 xsym               ADSC9   POBUF+8                  cn=0,n=*X0

     2202     2007    3                 POBUF_BIT(HDR_CMD_LEN + 32) = '015'O;

   2007  2 001101   400000 235100                    LDA     0,,PR4
         2 001102   000005 100400                    MLR     fill='000'O
         2 001103   000040 000001 3                  ADSC9   32                       cn=0,n=1
         2 001104   000010 000001 xsym               ADSC9   POBUF+8,A                cn=0,n=1

     2203     2008    3               END;

     2204     2009    2           TEMP_DCWS.DCW0.DEV# = 0;

   2009  2 001105   000000 236003                    LDQ     0,DU
         2 001106   300000 752120                    STCQ    0,'20'O,PR3

     2205     2010    2           TEMP_DCWS.DCW0.TYPE = '7'O;

   2010  2 001107   700000 236007                    LDQ     -32768,DL
         2 001110   300000 256100                    ORSQ    0,,PR3

     2206     2011    2           TEMP_DCWS.DCW0.CONT = '1'B;

   2011  2 001111   020000 236007                    LDQ     8192,DL
         2 001112   300000 256100                    ORSQ    0,,PR3

     2207     2012    2           TEMP_DCWS.DCW0.OPCODE = IDCW0;

   2012  2 001113   200037 474500                    LDP4    @IDCW0,,AUTO
         2 001114   400000 236100                    LDQ     0,,PR4
         2 001115   000036 736000                    QLS     30
         2 001116   300000 752140                    STCQ    0,'40'O,PR3

     2208     2013    2           TEMP_DCWS.DCW1.TALLY = TEMP_DCWS.DCW1.TALLY + 8;

PL6.E3A0      #026=DO_RPM_CFG File=ISI$IOPROC.:E05TSI                            TUE 07/29/97 22:53 Page:525
   2013  2 001117   300001 236100                    LDQ     1,,PR3
         2 001120   000010 036007                    ADLQ    8,DL
         2 001121   300001 752103                    STCQ    1,'03'O,PR3

     2209     2014    2           TEMP_DCWS.DCW2 = TEMP_DCWS.DCW0;

   2014  2 001122   300000 236100                    LDQ     0,,PR3
         2 001123   300002 756100                    STQ     2,,PR3

     2210     2015    2           TEMP_DCWS.DCW2.OPCODE = IDCW1;

   2015  2 001124   200040 475500                    LDP5    @IDCW1,,AUTO
         2 001125   500000 236100                    LDQ     0,,PR5
         2 001126   000036 736000                    QLS     30
         2 001127   300002 752140                    STCQ    2,'40'O,PR3

     2211     2016    2           TEMP_DCWS.DCW2.CONT = '0'B;

   2016  2 001130   000011 236000 3                  LDQ     9
         2 001131   300002 356100                    ANSQ    2,,PR3

     2212     2017    2           TEMP_DCWS.DCW3 = TEMP_DCWS.DCW1;

   2017  2 001132   300001 236100                    LDQ     1,,PR3
         2 001133   300003 756100                    STQ     3,,PR3

     2213     2018    2           TEMP_DCWS.DCW3.TALLY = 0;

   2018  2 001134   000000 236003                    LDQ     0,DU
         2 001135   300003 752103                    STCQ    3,'03'O,PR3

     2214     2019    2   END BUILD_CH3_DCWS;

   2019  2 001136   200036 221300                    LDX1  ! @CMD_NO+2,,AUTO
         2 001137   000001 702211                    TSX2  ! 1,X1

     2215     2020    1   READ_CHN3: PROC(IM#);
PL6.E3A0      #026=DO_RPM_CFG File=ISI$IOPROC.:E05TSI                            TUE 07/29/97 22:53 Page:526

   2020  2 001140   200036 741300       READ_CHN3    STX1  ! @CMD_NO+2,,AUTO

     2216     2021    2   DCL IM# UBIN WORD;
     2217     2022    2           CHN3_MBX.STATUS ='0'B;

   2022  2 001141   000000 100400                    MLR     fill='000'O
         2 001142   000002 000001 xsym               ADSC9   B_VECTNIL+2              cn=0,n=1
         2 001143   000010 000040 xsym               ADSC9   CHN3_MBX+8               cn=0,n=32

     2218     2023    2           CHN3_MBX.CHN_LINK.SYNC = '0'B;

   2023  2 001144   000041 236000 3                  LDQ     33
         2 001145   000006 356000 xsym               ANSQ    CHN3_MBX+6

     2219     2024    2           LOG_CHN = IM# * 128 + 8 + 3;

   2024  2 001146   200037 470500                    LDP0    @IM#,,AUTO
         2 001147   000000 235100                    LDA     0,,PR0
         2 001150   000007 735000                    ALS     7
         2 001151   000013 035007                    ADLA    11,DL
         2 001152   200004 755100                    STA     LOG_CHN,,AUTO

     2220     2025    2           CALL START_IO_RPM(LOG_CHN,MBX$);

   2025  2 001153   200010 631500                    EPPR1   MBX$,,AUTO
         2 001154   200045 451500                    STP1    @HDR_CMD+2,,AUTO
         2 001155   200004 633500                    EPPR3   LOG_CHN,,AUTO
         2 001156   200044 453500                    STP3    @HDR_CMD+1,,AUTO
         2 001157   200044 630500                    EPPR0   @HDR_CMD+1,,AUTO
         2 001160   000020 631400 xsym               EPPR1   B_VECTNIL+16
         2 001161   000000 701000 xent               TSX1    START_IO_RPM
         2 001162   000000 011000                    NOP     0

     2221     2026    3           DO UNTIL CHN3_MBX.STATUS.W8.TBIT = '1'B;

     2222     2027    3             I = 1;
PL6.E3A0      #026=DO_RPM_CFG File=ISI$IOPROC.:E05TSI                            TUE 07/29/97 22:53 Page:527

   2027  2 001163   000001 235007                    LDA     1,DL
         2 001164   200030 755100                    STA     I,,AUTO

     2223     2028    3           END;

   2028  2 001165   000010 234000 xsym               SZN     CHN3_MBX+8
         2 001166   001163 605000 2                  TPL     s:2027

     2224     2029    3           DO UNTIL CHN3_MBX.CHN_LINK.SYNC='1'B;

     2225     2030    3             I = 1;

   2030  2 001167   000001 235007                    LDA     1,DL
         2 001170   200030 755100                    STA     I,,AUTO

     2226     2031    3           END;

   2031  2 001171   000006 236000 xsym               LDQ     CHN3_MBX+6
         2 001172   000400 316007                    CANQ    256,DL
         2 001173   001167 600000 2                  TZE     s:2030

     2227     2032    2   END READ_CHN3;

   2032  2 001174   200036 221300                    LDX1  ! @CMD_NO+2,,AUTO
         2 001175   000001 702211                    TSX2  ! 1,X1
     2228     2033    1   END DO_RPM_CFG;

PL6.E3A0      #026=DO_RPM_CFG File=ISI$IOPROC.:E05TSI                            TUE 07/29/97 22:53 Page:528
--  Include file information  --

   XUD_UTS_M.:E05TOU  is referenced.
   IS$MACROS.:E05TOU  is referenced.
      No diagnostics issued in procedure DO_RPM_CFG.
PL6.E3A0      #026=DO_RPM_CFG File=ISI$IOPROC.:E05TSI                            TUE 07/29/97 22:53 Page:529

 **** Variables and constants ****

  ****  Section 000  Data  DO_RPM_CFG

  ****  Scalars and arrays  ****
OctLoc.c.b A Datatyp(siz) R M Lvl/name                 OctLoc.c.b A Datatyp(siz) R M Lvl/name

    24-0-0/w STRC(495)   r     1 CFG_ERR                   10-0-0/w STRC(423)   r     1 CFG_RESET_ERR
    42-0-0/w STRC(387)   r     1 CFG_STATUS
    55-0-0/b BIT         r     1 HW_RPM_CFG_DONE(0:3)
     0-0-0/w STRC(288)   r     1 INIT_HDR                  56-0-0/w PTR         r     1 PO$

  ****  Section 001 RoData DO_RPM_CFG

  ****  Scalars and arrays  ****
OctLoc.c.b A Datatyp(siz) R M Lvl/name                 OctLoc.c.b A Datatyp(siz) R M Lvl/name

    26-0-0/b BIT         r     1 MCA_FW_LOAD(0:15)
     0-0-0/c CHAR(11)    r     1 READ_CONFIG_INIT           3-0-0/c CHAR(13)    r     1 SP_CCINIT_INIT
     7-0-0/c CHAR(15)    r     1 SP_SCU0_STATE             13-0-0/c CHAR(15)    r     1 SP_SCU1_STATE
    17-0-0/c CHAR(27)    r     1 SP_SWITCH

  ****  Auto variables  ****

  ****  Scalars and arrays  ****
OctLoc.c.b A Datatyp(siz) R M Lvl/name                 OctLoc.c.b A Datatyp(siz) R M Lvl/name

    34-0-0/w PTR         r     1 @CMD_NO                   43-0-0/w PTR         r     1 @HDR_CMD
    42-0-0/w PTR         r     1 @HDR_CMD_LEN              41-0-0/w PTR         r     1 @HDR_DEFINER
    37-0-0/w PTR         r     1 @IDCW0                    40-0-0/w PTR         r     1 @IDCW1
    37-0-0/w PTR         r     1 @IM#                      33-0-0/w PTR         r     1 @IMX#
     3-0-0/w PTR         r     1 @IMX_NO                   *0-0-0/w UBIN        r     1 CMD_NO
    15-0-0/w UBIN        r     1 DO_CMD                    *0-0-0/c ACHR        r     1 HDR_CMD
    *0-0-0/w SBIN        r     1 HDR_CMD_LEN               *0-0-0/w SBIN        r     1 HDR_DEFINER
    30-0-0/w SBIN        r     1 I                         *0-0-0/w SBIN        r     1 IDCW0
    *0-0-0/w SBIN        r     1 IDCW1                     *0-0-0/w UBIN        r     1 IM#
    *0-0-0/w UBIN        r     1 IMX#                      *0-0-0/w UBIN        r     1 IMX_NO
PL6.E3A0      #026=DO_RPM_CFG File=ISI$IOPROC.:E05TSI                            TUE 07/29/97 22:53 Page:530
    31-0-0/w SBIN        r     1 J                          4-0-0/w SBIN        r     1 LOG_CHN
    10-0-0/w PTR         r     1 MBX$                       7-0-0/w PTR         r     1 MESSAGE$
    14-0-0/w UBIN        r     1 NEXT_DEFINER              26-0-0/w UBIN        r     1 OR_TIME
    26-0-0/w STRC        r     1 OR_TIME_STRUC             11-0-0/w PTR         r     1 SP$
     6-0-0/w PTR         r     1 ST$                        5-0-0/w UBIN        r     1 ST$LEN
    16-0-0/c CHAR(30)    r     1 TEMP$STRING               12-0-0/w PTR         r     1 TEMP_DCWS$
    12-0-0/w STRC        r     1 TEMP_DCWS_PTR             13-0-0/w SBIN        r     1 TRYS

  ****  SYMREF variables  ****

  ****  Scalars and arrays  ****
OctLoc.c.b A Datatyp(siz) R M Lvl/name                 OctLoc.c.b A Datatyp(siz) R M Lvl/name

     0-0-0/w UBIN        r     1 CH3_CONS_DCWS(0:3)
     0-0-0/w STRC(864)   r     1 CHN3_MBX                   0-0-0/b BIT         r     1 CHN_CFG(0:511)
     0-0-0/b BIT         r     1 FW_LOAD(0:511)             0-0-0/b BIT         r     1 HW_RPM_CFG
     0-0-0/c CHAR(9)     r     1 IS_CFG_NAME                0-0-0/w UBIN        r     1 IS_CFG_TYPE
     0-0-0/b BIT         r     1 IS_CSP_SIDE1               0-0-0/b BIT         r     1 IS_MEM_SIDE1
     0-0-0/w STRC(14616) r     1 MCA_CFG                    0-0-0/w STRC(864)   r     1 PATT_MBX
     0-0-0/c CHAR(4096)  r     1 POBUF                      0-0-0/c BIT (9)     r     1 POBUF_BIT(0:4095)
     0-0-0/w SBIN        r     1 RPM_CONSOLE

  ****  BASED and DCB variables  ****

  ****  Scalars and arrays  ****
OctLoc.c.b A Datatyp(siz) R M Lvl/name                 OctLoc.c.b A Datatyp(siz) R M Lvl/name

     0-0-0/w STRC(288)   r     1 MCA_HDR                    0-0-0/c STRC(72)    r     1 SP_TIME
     0-0-0/c ACHR        r     1 ST                         0-0-0/w STRC(144)   r     1 TEMP_DCWS
     0-0-0/w ASTR        r     1 TEXTM


   Procedure DO_RPM_CFG requires 638 words for executable code.
   Procedure DO_RPM_CFG requires 42 words of local(AUTO) storage.
PL6.E3A0      #026=DO_RPM_CFG File=ISI$IOPROC.:E05TSI                            TUE 07/29/97 22:53 Page:531

    No errors detected in file ISI$IOPROC.:E05TSI    .
PL6.E3A0      #026=DO_RPM_CFG File=ISI$IOPROC.:E05TSI                            TUE 07/29/97 22:53 Page:532
          *** CROSS REFERENCE LISTING ***
**     DENOTES     IDENTIFIER DEFINITION
<<                 IDENTIFIER'S VALUE SET
>>                 IDENTIFIER'S VALUE USED
<>                 IDENTIFIER SET AND/OR USED
--                 IDENTIFIER REFERENCED
PL6.E3A0      #026=DO_RPM_CFG File=ISI$IOPROC.:E05TSI                            TUE 07/29/97 22:53 Page:533
          MINI XREF LISTING

BUILD_CH3_DCWS
      1989**PROC     1875--CALL     1890--CALL     1892--CALL     1900--CALL     1908--CALL     1910--CALL
      1912--CALL     1973--CALL     1975--CALL
CFG_ERR
      1735**DCL      1924--ASSIGN
CFG_RESET_ERR
      1730**DCL      1881--ASSIGN
CFG_STATUS
      1740**DCL      1868--ASSIGN
CH3_CONS_DCWS
      1422**DCL      1870--ASSIGN
CHANNEL_3_CMD
      1865**PROC     1833--CALL     1852--CALL     1857--CALL     1861--CALL
CHN3_MBX
      1626**DCL      1871--ASSIGN   1872<<ASSIGN
CHN3_MBX.CHN_LINK.SYNC
      1639**DCL      2023<<ASSIGN   2029>>DOUNTIL
CHN3_MBX.LPW.DCW_ADDR
      1646**DCL      1873<<ASSIGN
CHN3_MBX.STATUS
      1655**DCL      2022<<ASSIGN
CHN3_MBX.STATUS.W8
      1656**DCL      1659--REDEF
CHN3_MBX.STATUS.W8.TBIT
      1657**DCL      2026>>DOUNTIL
CHN3_MBX.STATUS.W8_INFO.TERM
      1660**DCL      1878>>IF       1916>>DOSELCT
CHN_CFG
      1428**DCL      1842<<ASSIGN
CMD_NO IN PROCEDURE CHANNEL_3_CMD
      1867**DCL      1865--PROC     1869>>CALLBLT  1882>>CALLBLT  1888>>DOCASE   1895>>IF       1903>>IF
      1925>>CALLBLT  1929>>DOCASE   1972>>IF
PL6.E3A0      #026=DO_RPM_CFG File=ISI$IOPROC.:E05TSI                            TUE 07/29/97 22:53 Page:534
DO_CMD
      1781**DCL      1856<<ASSIGN   1857<>CALL     1860<<ASSIGN   1861<>CALL
DO_READ IN PROCEDURE CHANNEL_3_CMD
      1915**LABEL    1976--GOTO
FW_LOAD
      1423**DCL      1844<<ASSIGN
HANG
      1753**DCL-ENT  1884--CALL     1927--CALL     1983--CALL
HDR_CMD IN PROCEDURE BUILD_CH3_DCWS
      1994**DCL      1989--PROC     2006>>ASSIGN
HDR_CMD_LEN IN PROCEDURE BUILD_CH3_DCWS
      1993**DCL      1989--PROC     1994--IMP-SIZ  2001--IF       2004>>ASSIGN   2005>>ASSIGN   2006>>ASSIGN
      2006>>ASSIGN   2007>>ASSIGN
HDR_DEFINER IN PROCEDURE BUILD_CH3_DCWS
      1992**DCL      1989--PROC     1997>>ASSIGN
HW_RPM_CFG
      1429**DCL      1829>>IF
HW_RPM_CFG_DONE
      1756**DCL      1831>>IF       1848<<ASSIGN
I
      1824**DCL      1834<<DOINDEX  1835>>IF       1837>>IF       1838>>IF       1839>>ASSIGN   1840>>DOINDEX
      1840>>DOINDEX  1840>>DOINDEX  1843>>IF       1937<<DOINDEX  1938>>ASSIGN   1938>>ASSIGN   1944<<CALLBLT
      1945>>IF       1946<<CALLBLT  1947>>ASSIGN   2027<<ASSIGN   2030<<ASSIGN
IDCW0 IN PROCEDURE BUILD_CH3_DCWS
      1990**DCL      1989--PROC     2012>>ASSIGN
IDCW1 IN PROCEDURE BUILD_CH3_DCWS
      1991**DCL      1989--PROC     2015>>ASSIGN
IM# IN PROCEDURE READ_CHN3
      2021**DCL      2020--PROC     2024>>ASSIGN
IMX# IN PROCEDURE CHANNEL_3_CMD
      1866**DCL      1865--PROC     1877<>CALL     1915<>CALL
IMX_NO
      1421**DCL         6--PROC     1831>>IF       1833<>CALL     1842>>ASSIGN   1844>>ASSIGN   1848>>ASSIGN
      1850--ENTRY    1852<>CALL     1855--ENTRY    1856>>ASSIGN   1857>>CALL     1859--ENTRY    1860>>ASSIGN
      1861>>CALL
INIT_HDR
PL6.E3A0      #026=DO_RPM_CFG File=ISI$IOPROC.:E05TSI                            TUE 07/29/97 22:53 Page:535
      1557**DCL      1935--ASSIGN   1996>>ASSIGN
IS_CFG_NAME
      1424**DCL      1947<<ASSIGN   1948>>IF       1952>>IF       1956>>IF       1959>>IF       1960>>IF
IS_CFG_TYPE
      1427**DCL      1957<<ASSIGN   1961<<ASSIGN   1963<<ASSIGN   1968<<ASSIGN
IS_CSP_SIDE1
      1426**DCL      1953<<ASSIGN   1955<<ASSIGN   1964>>IF
IS_MEM_SIDE1
      1425**DCL      1949<<ASSIGN   1951<<ASSIGN   1965<<ASSIGN
J
      1825**DCL      1840<<DOINDEX  1842>>ASSIGN   1844>>ASSIGN
LOG_CHN
      1433**DCL      2024<<ASSIGN   2025<>CALL
MBX$
      1757**DCL      1871<<ASSIGN   2025<>CALL
MCA_CFG
      1447**DCL      1931--ASSIGN   1932--ASSIGN
MCA_CFG.LEVEL_1.CONSOLE_CNTL
      1509**DCL      1515--REDEF    1519--REDEF
MCA_CFG.LEVEL_1.CONSOLE_CNTL.MASTER
      1512**DCL      1838>>IF
MCA_CFG.LEVEL_1.CONSOLE_CNTL.REM_MAINT
      1511**DCL      1837>>IF
MCA_CFG.LEVEL_1.HARDWARE_ID
      1530**DCL      1843>>IF
MCA_CFG.LEVEL_1.LOG_CHNS
      1533**DCL      1840>>DOINDEX
MCA_CFG.LEVEL_1.PRI_CHN
      1532**DCL      1839>>ASSIGN   1840>>DOINDEX  1840>>DOINDEX
MCA_CFG.LEVEL_1.STATE
      1508**DCL      1835>>IF
MCA_FW_LOAD
      1826**DCL      1843>>IF
MCA_HDR
      1591**DCL      1996<<ASSIGN
MCA_HDR.DEFINER
PL6.E3A0      #026=DO_RPM_CFG File=ISI$IOPROC.:E05TSI                            TUE 07/29/97 22:53 Page:536
      1593**DCL      1918>>IF       1921>>IF       1997<<ASSIGN
MCA_HDR.SRCLEN
      1609**DCL      1943>>ASSIGN
MCA_HDR.TBYTES
      1612**DCL      2002<<ASSIGN   2004<<ASSIGN
MESSAGE$
      1747**DCL      1744--IMP-PTR  1868<<ASSIGN   1869>>CALLBLT  1869>>CALLBLT  1881<<ASSIGN   1882>>CALLBLT
      1882>>CALLBLT  1883>>CALL     1883>>CALL     1924<<ASSIGN   1925>>CALLBLT  1925>>CALLBLT  1926>>CALL
      1926>>CALL     1982>>CALL     1982>>CALL
NEXT_DEFINER
      1780**DCL      1919<<ASSIGN   1922<<ASSIGN   1972>>IF       1973<>CALL     1975<>CALL
OR_TIME
      1783**DCL      1784--REDEF    1853<>CALL     1936<<ASSIGN   1940<>CALL     1940>>CALL
OR_TIME_STRUC.HEX_DIGIT
      1786**DCL      1938<<ASSIGN
PATT_MBX
      1683**DCL      1872>>ASSIGN
PATT_MBX.STATUS.W8
      1713**DCL      1716--REDEF
PO$
      1758**DCL      1591--IMP-PTR  1918>>IF       1921>>IF       1933>>ASSIGN   1935>>ASSIGN   1942>>ASSIGN
      1943>>ASSIGN   1996>>ASSIGN   1997>>ASSIGN   2002>>ASSIGN   2004>>ASSIGN
POBUF
      1430**DCL      1431--REDEF    1758--DCLINIT  1999--ASSIGN   2006<<ASSIGN
POBUF_BIT
      1431**DCL      2007<<ASSIGN
READ_CHN3
      2020**PROC     1877--CALL     1915--CALL
READ_CONFIG_INIT
      1748**DCL      1890--CALL     1890<>CALL
RPM_CONSOLE
      1432**DCL      1836>>IF       1839<<ASSIGN
SET_TIME_FROM_SP
      1420**DCL-ENT  1853--CALL
SP$
      1759**DCL      1788--IMP-PTR  1935<<ASSIGN   1938>>ASSIGN
PL6.E3A0      #026=DO_RPM_CFG File=ISI$IOPROC.:E05TSI                            TUE 07/29/97 22:53 Page:537
SP_CCINIT_INIT
      1749**DCL      1892--CALL     1892<>CALL
SP_SCU0_STATE
      1750**DCL      1910--CALL     1910<>CALL     1973<>CALL
SP_SCU1_STATE
      1751**DCL      1912--CALL     1912<>CALL
SP_SWITCH
      1752**DCL      1894>>ASSIGN   1900--CALL     1902>>ASSIGN   1908--CALL
SP_TIME.BITE.HEX_DIGIT
      1791**DCL      1938>>ASSIGN
ST
      1436**DCL      1933<<ASSIGN   1933>>ASSIGN   1944>>CALLBLT  1946>>CALLBLT  1947>>ASSIGN
ST$
      1435**DCL      1436--IMP-PTR  1932<<ASSIGN   1933>>ASSIGN   1942<<ASSIGN   1944>>CALLBLT  1946>>CALLBLT
      1947>>ASSIGN
ST$LEN
      1434**DCL      1436--IMP-SIZ  1931<<ASSIGN   1933>>ASSIGN   1933>>ASSIGN   1943<<ASSIGN   1944>>CALLBLT
      1945>>IF       1946>>CALLBLT  1947>>ASSIGN
START_IO_RPM
      1754**DCL-ENT  2025--CALL
START_OVER IN PROCEDURE CHANNEL_3_CMD
      1875**LABEL    1886--GOTO     1985--GOTO
TEMP$STRING
      1782**DCL      1894<<ASSIGN   1896<<ASSIGN   1898<<ASSIGN   1899<<ASSIGN   1900<>CALL     1902<<ASSIGN
      1904<<ASSIGN   1906<<ASSIGN   1907<<ASSIGN   1908<>CALL
TEMP_DCWS
      1792**DCL      1998<<ASSIGN
TEMP_DCWS.DCW0
      1793**DCL      2014>>ASSIGN
TEMP_DCWS.DCW0.CONT
      1799**DCL      1876<<ASSIGN   2011<<ASSIGN
TEMP_DCWS.DCW0.DEV#
      1795**DCL      2009<<ASSIGN
TEMP_DCWS.DCW0.OPCODE
      1794**DCL      2012<<ASSIGN
TEMP_DCWS.DCW0.TYPE
PL6.E3A0      #026=DO_RPM_CFG File=ISI$IOPROC.:E05TSI                            TUE 07/29/97 22:53 Page:538
      1797**DCL      2010<<ASSIGN
TEMP_DCWS.DCW1
      1802**DCL      1808--REDEF    2017>>ASSIGN
TEMP_DCWS.DCW1.TALLY
      1807**DCL      2000<<ASSIGN   2005<<ASSIGN   2013<<ASSIGN   2013>>ASSIGN
TEMP_DCWS.DCW1$
      1808**DCL      1999<<ASSIGN
TEMP_DCWS.DCW2
      1809**DCL      2014<<ASSIGN
TEMP_DCWS.DCW2.CONT
      1815**DCL      2016<<ASSIGN
TEMP_DCWS.DCW2.OPCODE
      1810**DCL      2015<<ASSIGN
TEMP_DCWS.DCW3
      1818**DCL      2017<<ASSIGN
TEMP_DCWS.DCW3.TALLY
      1823**DCL      2018<<ASSIGN
TEMP_DCWS$
      1760**DCL      1772--REDEF    1792--IMP-PTR  1870<<ASSIGN   1876>>ASSIGN   1998>>ASSIGN   1999>>ASSIGN
      2000>>ASSIGN   2005>>ASSIGN   2009>>ASSIGN   2010>>ASSIGN   2011>>ASSIGN   2012>>ASSIGN   2013>>ASSIGN
      2013>>ASSIGN   2014>>ASSIGN   2014>>ASSIGN   2015>>ASSIGN   2016>>ASSIGN   2017>>ASSIGN   2017>>ASSIGN
      2018>>ASSIGN
TEMP_DCWS_PTR.WOFFS
      1773**DCL      1873>>ASSIGN
TEXTM
      1744**DCL      1883<>CALL     1926<>CALL     1982<>CALL
TEXTM.CNT
      1745**DCL      1746--IMP-SIZ  1869>>CALLBLT  1882>>CALLBLT  1883>>CALL     1925>>CALLBLT  1926>>CALL
      1982>>CALL
TEXTM.TXT
      1746**DCL      1869<<CALLBLT  1882<<CALLBLT  1925<<CALLBLT
TRYS
      1779**DCL      1879<<ASSIGN   1879>>ASSIGN   1880>>IF       1980<<ASSIGN   1980>>ASSIGN   1981>>IF
TYPEC
      1755**DCL-ENT  1883--CALL     1926--CALL     1982--CALL
XUD$UTS_ADJ_25TH
PL6.E3A0      #026=DO_RPM_CFG File=ISI$IOPROC.:E05TSI                            TUE 07/29/97 22:53 Page:539
      1401**DCL-ENT  1940--CALL
