VERSION E05

PL6.E3A0      #001=DOIOX File=ISI$IOPROC.:E05TSI                                 TUE 07/29/97 22:51 Page:1
        1        1        /*T***********************************************************/
        2        2        /*T*                                                         */
        3        3        /*T* Copyright (c) Bull HN Information Systems Inc., 1997    */
        4        4        /*T*                                                         */
        5        5        /*T***********************************************************/
        6        6        /*X* PLM=8,IND=2,THI=2,ENU=2,CSU=2,DTI=4,DCI=4,ECU=4,AND */
        7        7        DOIOX:  PROC(INDX,COMMAND$,TIME_OUT,L);
        8        8        /* This procedure issues the I/O operation */
        9        9        /* Calling sequence :CALL DOIOX  If PSI interface
       10       10                             CALL DOIO   If standard intreface */
       11       11        /* INDX Index in DEVINFO,
       12       12           COMMAND$ Pointer to the command area,
       13       13           TIME_OUT Eventually time_out value */
       14       14        /* The command area has the following structure:
       15       15                   Address of IDCW or PCW
       16       16                   DCW                                  */
       17       17        /**/
       18       18        %INCLUDE IS$MACROS;
       19     1293    1   DCL INDX UBIN WORD;
       20     1294    1   DCL COMMAND$ PTR;
       21     1295    1   DCL TIME_OUT UBIN WORD;
       22     1296    1   DCL L UBIN WORD;
       23     1297        /**/
       24     1298    1   DCL START_IO ENTRY(1);
       25     1299    1   DCL CLEAR_CACHE ENTRY;
       26     1300    1   DCL WT_TIME ENTRY(1);
       27     1301        /**/
       28     1302        %DEVINFO(STCLASS="SYMREF");
       29     1371        %IOM_TAB(NAME=IOMTAB,STCLASS="SYMREF");
       30     1388        %DCW_STRUCT(NAME=DCW,STCLASS="BASED(DCW$)");
       31     1406        %CHANMBOX(NAME=CMBOX);
       32     1431        /**/
       33     1432        %PTR_STRUCT(NAME=CON_PTR);              /* Pointer to connect chann mailbox   */
       34     1450    1   DCL CON$ REDEF CON_PTR PTR;
       35     1451        %PTR_STRUCT(NAME=PAYLD_PTR);            /*Pointer to payload chann mailbox    */
       36     1469    1   DCL PAYLD$ REDEF PAYLD_PTR PTR;
       37     1470        %PTR_STRUCT(NAME=DCW_PTR);
PL6.E3A0      #001=DOIOX File=ISI$IOPROC.:E05TSI                                 TUE 07/29/97 22:51 Page:2
       38     1488    1   DCL DCW$ REDEF DCW_PTR PTR;
       39     1489        %PTR_STRUCT(NAME=IMW_PTR);
       40     1507    1   DCL IMW$ REDEF IMW_PTR PTR;
       41     1508        /**/
       42     1509    1   DCL CHAN$ PTR;
       43     1510    1   DCL PCW$ PTR;
       44     1511    1   DCL INT_IDCW$ PTR;
       45     1512        /**/
       46     1513    1   DCL INT_TIME UBIN WORD;                 /* Time_out value                     */
       47     1514    1   DCL 1 COMZONE BASED(COMMAND$),
       48     1515    1         2 IDCW$ PTR,
       49     1516    1         2 DCW BIT(36);                    /* DOIO Command area                  */
       50     1517    1   DCL 1 IDCW BASED(INT_IDCW$) ALIGNED,
       51     1518    1         2 CHINFO1 BIT(6),
       52     1519    1         2 DEV# UBIN(6) UNAL,
       53     1520    1         2 ADEXT BIT(6),
       54     1521    1         2 TYPE BIT(3),
       55     1522    1         2 EC BIT(1),
       56     1523    1         2 CHINFO2 BIT(14);
       57     1524    1   DCL 1 SAVE_CONMBOX DALIGNED,
       58     1525    1         2 W1 BIT(36),
       59     1526    1         2 W2 BIT(36);                     /* Connect mailbox save area          */
       60     1527    1   DCL SAVE_PMBOX(0:3) BIT(36) ALIGNED;    /*Payld chan mailbox save area*/
       61     1528    1   DCL IMWCEL(0:31) BIT(1) BASED(IMW$) UNAL;
       62     1529        /**/
       63     1530        /* Effective DCW's area */
       64     1531    1   DCL SIDCW BIT(36) STATIC ALIGNED;
       65     1532    1   DCL SIDCW1 BIT(36) STATIC ALIGNED;
       66     1533    1   DCL SIDCW2 BIT(36) STATIC ALIGNED;
       67     1534    1   DCL SIDCW3 BIT(36) STATIC ALIGNED;
       68     1535        /**/
       69     1536    1   DCL ADDREXT BIT(1) SYMREF;
       70     1537    1   DCL ADDREXT1 BIT(1) SYMREF;
       71     1538    1   DCL RD_FW_FLG BIT(1) SYMREF;
       72     1539    1   DCL DISK_FLG BIT(1) SYMREF;
       73     1540    1   DCL SKIDCW BIT(36) SYMREF;
       74     1541    1   DCL SKDCW BIT(36) SYMREF;
PL6.E3A0      #001=DOIOX File=ISI$IOPROC.:E05TSI                                 TUE 07/29/97 22:51 Page:3
       75     1542    1   DCL IMWBASE UBIN WORD SYMREF;
       76     1543    1   DCL I$CHAIN$ PTR SYMREF;
       77     1544    1   DCL POBUF CHAR(1024) SYMREF;
       78     1545    1   DCL USBUF CHAR(1024) BASED;
       79     1546        /**/
       80     1547    1   DCL PSI_FLG BIT(1) STATIC SYMDEF INIT('0'B);
       81     1548    1   DCL PORT# UBIN WORD;
       82     1549    1   DCL I UBIN WORD;
       83     1550        /**/
       84     1551        /**/
       85     1552        /* Declarations specific to RPM DOIO */
       86     1553        /**/
       87     1554    1   DCL START_IO_RPM ENTRY(2);
       88     1555        /**/
       89     1556        %IMX_MBX(NAME=MBX,STCLASS="BASED(MAILBOX$)");
       90     1613    1   DCL MAILBOX$ PTR;
       91     1614    1   DCL EF_DCWS$ PTR;
       92     1615        /**/
       93     1616    1   DCL LOGIC_CHAN UBIN WORD;               /*For START_IO                        */
       94     1617        /**/
       95     1618    1   DCL 1 EF_DCWS BASED(EF_DCWS$) ALIGNED,
       96     1619    1         2 DCW0,
       97     1620    1           3 OPCODE BIT(6),
       98     1621    1           3 DEV# UBIN(6) UNAL,
       99     1622    1           3 ADEXT BIT(6),
      100     1623    1           3 TYPE BIT(3),
      101     1624    1           3 EC BIT(1),
      102     1625    1           3 CONT BIT(1),
      103     1626    1           3 MARK BIT(1),
      104     1627    1           3 * BIT(12),
      105     1628    1         2 DCW1 BIT(36),
      106     1629    1         2 DCW2 BIT(36),
      107     1630    1         2 DCW3 BIT(36);
      108     1631    1   DCL RPM_FLG BIT(1) SYMREF;
      109     1632        /**/
      110     1633        /** Code **/
      111     1634    1           PSI_FLG='1'B;
PL6.E3A0      #001=DOIOX File=ISI$IOPROC.:E05TSI                                 TUE 07/29/97 22:51 Page:4
      112     1635    1   DOIO:   ENTRY(INDX,COMMAND$,TIME_OUT,L);
      113     1636    1           IF RPM_FLG THEN GOTO DOIO_RPM;
      114     1637    1           INT_IDCW$=COMZONE.IDCW$;
      115     1638        /* Find Payload channel mailbox */
      116     1639    1           PAYLD_PTR.WOFFS=IOMTAB.MAILBAD(DEVINFO.IOM#(INDX))+4*(DEVINFO.CHN#(INDX));
      117     1640        /* Find Connect channel mailbox */
      118     1641    1           CON_PTR.WOFFS=IOMTAB.MAILBAD(DEVINFO.IOM#(INDX))+2*4;
      119     1642        /* Wait a while for the connect channel to go non_busy */
      120     1643    1           CHAN$=CON$;
      121     1644    1           IF CMBOX.W4='0'B THEN;          /* Not the first MINI IO              */
      122     1645    2             ELSE DO ;
      123     1646    2                 CMBOX.W4='0'B;
      124     1647    2                 CALL WT_TIME(1000000);    /* Wait a sec                         */
      125     1648    2               END;                        /* ELSE                               */
      126     1649    1           IF CMBOX.W1.H2.TALLY=0 THEN;    /* Tally=0,chann free                 */
      127     1650    2             ELSE DO I=0 TO 4000;
      128     1651    2               END;                        /* ELSE                               */
      129     1652        /* Build PCW */
      130     1653    1           DEVINFO.PCWS.PCW1.CHINFO1(INDX)=IDCW.CHINFO1;
      131     1654    1           DEVINFO.PCWS.PCW1.CHINFO2(INDX)=IDCW.CHINFO2;
      132     1655    1           DEVINFO.PCWS.PCW1.M(INDX)='0'B;
      133     1656    1           IF ADDREXT='0'B THEN;           /* No address extention               */
      134     1657    2             ELSE DO;
      135     1658    2                 ADDREXT='0'B;
      136     1659    2                 DEVINFO.PCWS.PCW1.ADEXT(INDX)='1'B;
      137     1660    2               END;                        /* ELSE                               */
      138     1661    1           DEVINFO.PCWS.PCW1.DEV#(INDX)=DEVINFO.DEV#(INDX);
      139     1662    1           DEVINFO.PCWS.PCW2.CHN#(INDX)=DEVINFO.CHN#(INDX);
      140     1663        /**/
      141     1664        /* Save connect mailbox 1,2 */
      142     1665    1           SAVE_CONMBOX.W1=CMBOX.W1;
      143     1666    1           SAVE_CONMBOX.W2=CMBOX.W2;
      144     1667        /* Build LPW,LPWX words for connect channel */
      145     1668    1           CMBOX.LPW$=ADDR(DEVINFO.PCWS.PCW1(INDX));
      146     1669    1           CMBOX.W1.H2.TAL='1'B;
      147     1670    1           CMBOX.W1.H2.TALLY=1;
      148     1671    1           CMBOX.W2.H2='777777'O;          /* LPWX                               */
PL6.E3A0      #001=DOIOX File=ISI$IOPROC.:E05TSI                                 TUE 07/29/97 22:51 Page:5
      149     1672        /* Set up payload channel mailbox */
      150     1673    1           CHAN$=PAYLD$;
      151     1674    1           SAVE_PMBOX=CMBOX;
      152     1675    1           CMBOX.SCW$=ADDR(DEVINFO.STATUS(INDX)); /* SCW                         */
      153     1676    1           CMBOX.W3.H2='0'B;
      154     1677    1           CMBOX.W2.H1='0'B;               /* LPWX                               */
      155     1678    1           CMBOX.W2.H2='777777'O;
      156     1679    1           CMBOX.W4='0'B;                  /* DCW                                */
      157     1680    1           DCW$=ADDR(COMZONE.DCW);
      158     1681    1   FIND_DCW:;
      159     1682    2           IF DCW.TYPE='10'B THEN DO;      /* TDCW,look for DCW                  */
      160     1683    2                 DCW_PTR.WOFFS=DCW.AD;
      161     1684    2                 GOTO FIND_DCW;
      162     1685    2               END;                        /* THEN                               */
      163     1686    1             ELSE;
      164     1687    2           IF PSI_FLG='1'B THEN DO;        /* PSI, set IDCW                      */
      165     1688    2                 PSI_FLG='0'B;
      166     1689    2                 SIDCW=DEVINFO.PCWS.PCW1(INDX);
      167     1690    2                 IF DEVINFO.PCWS.PCW1.ADEXT(INDX)='0'B THEN; /* No address extention */
      168     1691    2                   ELSE SIDCW=SIDCW|'040000'O; /*Set EC bit in IDCW              */
      169     1692    2                 DEVINFO.PCWS.PCW1(INDX)='0'B;
      170     1693    2                 DEVINFO.PCWS.PCW1.PCWID(INDX)='7'O;
      171     1694    3                 IF RD_FW_FLG='1'B THEN DO; /* Read FW                           */
      172     1695    3                       SIDCW1=DCW;
      173     1696    3                       GOTO DODCWAD;
      174     1697    3                     END;                  /* THEN                               */
      175     1698    2                   ELSE;
      176     1699        /* In SIDCW1,build a TDCW */
      177     1700    2                 SIDCW1=DCW_PTR;           /* Pointer to the DCW                 */
      178     1701    2                 DCW$=ADDR(SIDCW1);
      179     1702    2                 DCW.TALLY=0;
      180     1703    2                 DCW.TYPE='10'B;           /* Make it a TDCW                     */
      181     1704    3                 IF DISK_FLG='1'B THEN DO; /* DISK I/O                           */
      182     1705        /* Make room for SEEK */
      183     1706    3                       SIDCW2=SIDCW;
      184     1707    3                       SIDCW3=SIDCW1;
      185     1708    3                       SIDCW=SIDCW&'007777737777'O|SKIDCW;
PL6.E3A0      #001=DOIOX File=ISI$IOPROC.:E05TSI                                 TUE 07/29/97 22:51 Page:6
              1708                                /*Mask out READ or WRITE and bit 21,
      186     1709                                           and make it a SEEK with continue */
      187     1710    3                       SIDCW1=SKDCW;
      188     1711    3                     END;                  /* THEN                               */
      189     1712    2                   ELSE;
      190     1713    2   DODCWAD:      ;
      191     1714    2                 DCW$=ADDR(SIDCW);
      192     1715    2               END;                        /* THEN                               */
      193     1716    1             ELSE;
      194     1717    1           CMBOX.LPW$=DCW$;
      195     1718    1           CMBOX.W1.H2.TALLY=4095;
      196     1719    1           DEVINFO.STATUS(INDX)='0'B;      /* Clear Status words                 */
      197     1720    1           I=DEVINFO.CHN#(INDX);           /* See if channel 0-31 or 32-63       */
      198     1721    1           IF I<32 THEN
      199     1722    1             IMW_PTR.WOFFS=IMWBASE+DEVINFO.IOM#(INDX)+12;/*For channels 0-31*/
      200     1723    2             ELSE DO;
      201     1724    2                 I=I-32;
      202     1725    2                 IMW_PTR.WOFFS=IMWBASE+DEVINFO.IOM#(INDX)+8;/*For channels 32-63 */
      203     1726    2               END;                        /* ELSE                               */
      204     1727    1           IMWCEL(I)='0'B;                 /*Turn INT bit off                    */
      205     1728    1           PORT#=IOMTAB.PORT#(DEVINFO.IOM#(INDX));
      206     1729    1           CALL START_IO(PORT#);
      207     1730    1           CHAN$=CON$;
      208     1731        /* Wait until connect channel non_busy */
      209     1732    2           DO UNTIL CMBOX.W1.H2.TALLY=0;
      210     1733    2           END;                            /* DO                                 */
      211     1734    2           IF ADDR(TIME_OUT)~=ADDR(NIL) THEN DO; /* Time_out required            */
      212     1735    2                 INT_TIME=TIME_OUT;
      213     1736    3                 DO UNTIL INT_TIME=0;
      214     1737    3                   INT_TIME=INT_TIME-1;
      215     1738    3                   IF DEVINFO.STATUS.TBIT(INDX)='1'B THEN GOTO IOTERM;
              1738                            /* IO finished */
      216     1739    3                     ELSE;
      217     1740    3                 END;                      /* DO UNTIL                           */
      218     1741    2                 GOTO IODONE;
      219     1742    2               END;                        /* THEN                               */
      220     1743    2             ELSE DO UNTIL DEVINFO.STATUS.TBIT(INDX)='1'B;
PL6.E3A0      #001=DOIOX File=ISI$IOPROC.:E05TSI                                 TUE 07/29/97 22:51 Page:7
      221     1744    2               END;                        /* ELSE                               */
      222     1745        /* Wait for INT bit,then turn it off */
      223     1746    1   IOTERM: ;
      224     1747    2           DO UNTIL IMWCEL(I)='1'B;
      225     1748    2           END;                            /* DO                                 */
      226     1749    1           IMWCEL(I)='0'B;
      227     1750    1   IODONE: ;
      228     1751    1           CALL CLEAR_CACHE;
      229     1752    2           IF ADDREXT1='1'B THEN DO;       /*Buffer cross 256 K                  */
      230     1753    2                 ADDREXT1='0'B;
      231     1754        /* Move POBUF into buffer */
      232     1755    2                 SUBSTR(I$CHAIN$->USBUF,0,L)=SUBSTR(POBUF,0,L);
      233     1756    2               END;                        /*THEN                                */
      234     1757    1             ELSE;
      235     1758        /* Restore mailboxes */
      236     1759    1           CHAN$=CON$;
      237     1760    1           CMBOX.W1=SAVE_CONMBOX.W1;
      238     1761    1           CMBOX.W2=SAVE_CONMBOX.W2;
      239     1762    1           CHAN$=PAYLD$;
      240     1763    1           CMBOX=SAVE_PMBOX;
      241     1764    1           PSI_FLG='0'B;                   /* Restore flag                       */
      242     1765    1           RETURN;
      243     1766    1   DOIO_RPM: ;
      244     1767        /* This program issues the I/O operation  on an IMX */
      245     1768        /* INDX Index in DEVINFO,
      246     1769           COMMAND$ Pointer to the command area,
      247     1770           TIME_OUT Eventually time_out value */
      248     1771        /**/
      249     1772        /**/
      250     1773        /** Code **/
      251     1774    1           MAILBOX$=DEVINFO.RPM_PTRS.MBX$(INDX);
      252     1775        /* Init Mailbox */
      253     1776    1           MBX.LPW.DCW_ADDR=DEVINFO.RPM_PTRS.EF_DCWS_PTR.WOFFS(INDX);
              1776                    /* Set LPW to point to respective DCWs */
      254     1777    1           EF_DCWS$=DEVINFO.RPM_PTRS.EF_DCWS$(INDX);
      255     1778    1           DCW$=ADDR(COMZONE.DCW);
      256     1779    2           DO WHILE DCW.TYPE='10'B ;       /* TDCW,look for DCW                  */
PL6.E3A0      #001=DOIOX File=ISI$IOPROC.:E05TSI                                 TUE 07/29/97 22:51 Page:8
      257     1780    2             DCW_PTR.WOFFS=DCW.AD;
      258     1781    2           END;
      259     1782    1           EF_DCWS.DCW0=COMZONE.IDCW$->DCW;
      260     1783    1           EF_DCWS.DCW0.DEV#=DEVINFO.DEV#(INDX);
      261     1784    1           EF_DCWS.DCW0.TYPE='7'O;
      262     1785    2           IF RD_FW_FLG='1'B THEN DO;      /* Read FW                            */
      263     1786    2                 EF_DCWS.DCW1=DCW;
      264     1787    2                 GOTO R_DODCWAD;
      265     1788    2               END;                        /* THEN                               */
      266     1789    1             ELSE;
      267     1790        /* In DCW1,build a TDCW */
      268     1791    1           EF_DCWS.DCW1=DCW_PTR;           /* Pointer to the DCW                 */
      269     1792    1           DCW$=ADDR(EF_DCWS.DCW1);
      270     1793    1           DCW.TALLY=0;
      271     1794    1           DCW.TYPE='10'B;                 /* Make it a TDCW                     */
      272     1795    2           IF DISK_FLG='1'B THEN DO;       /* DISK I/O                           */
      273     1796        /* Make room for SEEK */
      274     1797    2                 EF_DCWS.DCW2=EF_DCWS.DCW0;
      275     1798    2                 EF_DCWS.DCW3=EF_DCWS.DCW1;
      276     1799    2                 EF_DCWS.DCW0.OPCODE='34'O; /*Make it a SEEK                     */
      277     1800    2                 EF_DCWS.DCW0.CONT='1'B;   /*with continue                       */
      278     1801    2                 EF_DCWS.DCW1=SKDCW;
      279     1802    2               END;                        /* THEN                               */
      280     1803    1             ELSE;
      281     1804    1   R_DODCWAD: ;
      282     1805        /*  Clear STATUS WORDS */
      283     1806    1           MBX.STATUS='0'B;
      284     1807    1           MBX.CHN_LINK.SYNC='0'B;         /* Reset SYNC                         */
      285     1808    1           LOGIC_CHAN=128*DEVINFO.IOM#(INDX)+DEVINFO.CHN#(INDX)+8;
      286     1809    1           CALL START_IO_RPM(LOGIC_CHAN,MAILBOX$);
      287     1810    2           IF ADDR(TIME_OUT)~=ADDR(NIL) THEN DO; /* TIMEOUT required             */
      288     1811    2                 INT_TIME=TIME_OUT;
      289     1812    3                 DO UNTIL INT_TIME=0;
      290     1813    3                   INT_TIME=INT_TIME-1;
      291     1814    3                   IF MBX.STATUS.W8.TBIT THEN GOTO R_IOTERM;
      292     1815    3                 END;
      293     1816    2                 GOTO R_IODONE;
PL6.E3A0      #001=DOIOX File=ISI$IOPROC.:E05TSI                                 TUE 07/29/97 22:51 Page:9
      294     1817    2               END;
      295     1818    1             ELSE
      296     1819    2             IF INDX = 0 THEN DO;
      297     1820    2                   INT_TIME = 36000000;
      298     1821    3                   DO UNTIL INT_TIME = 0;
      299     1822    3                     INT_TIME = INT_TIME-1;
      300     1823    3                     IF MBX.STATUS.W8.TBIT THEN GOTO R_IOTERM;
      301     1824    3                   END;
      302     1825    2                   GOTO R_DODCWAD;
      303     1826    2                 END;
      304     1827    2               ELSE DO UNTIL MBX.STATUS.W8.TBIT='1'B;
      305     1828    2                 END;
      306     1829    1   R_IOTERM:;
      307     1830    2           DO UNTIL MBX.CHN_LINK.SYNC='1'B;
      308     1831    2           END;
      309     1832    1   R_IODONE:;
      310     1833    1           MBX.CHN_LINK.SYNC='0'B;
      311     1834    1           CALL CLEAR_CACHE;
      312     1835        /*  Move STATUS in DEVINFO */
      313     1836    1           DEVINFO.BSTAT.W1(INDX)=MBX.STATUS.W8;
      314     1837    1           DEVINFO.BSTAT.W2(INDX)=MBX.STATUS.W11;
      315     1838    1           RETURN;
      316     1839    1   END DOIOX;
      317     1840        /**/
      318     1841        %EJECT;
PL6.E3A0      #001=DOIOX File=ISI$IOPROC.:E05TSI                                 TUE 07/29/97 22:51 Page:10
      319     1842        %EOD;

PL6.E3A0      #001=DOIOX File=ISI$IOPROC.:E05TSI                                 TUE 07/29/97 22:51 Page:11
--  Include file information  --

   IS$MACROS.:E05TOU  is referenced.
      No diagnostics issued in procedure DOIOX.

   Procedure DOIOX requires 520 words for executable code.
   Procedure DOIOX requires 26 words of local(AUTO) storage.

PL6.E3A0      #001=DOIOX File=ISI$IOPROC.:E05TSI                                 TUE 07/29/97 22:51 Page:12

 Object Unit name= DOIOX                                      File name= ISI$IOPROC.:E05TOU
 UTS= JUL 29 '97 22:51:57.08 TUE                              Compiler= PL-6/E31         Sev=      00
 SharedLib= :SHARED_SYSTEM                                    Alt SharedLib=


    ****  Control sections  ****

 Sect   Type Bound  Init  Size OctSiz  Section name(segment info)
    0   Data  even  none     9     11  DOIOX
    1  RoData even  UTS      1      1  DOIOX
    2   Proc  even  none   520   1010  DOIOX
    3  RoData even  none    11     13  DOIOX

    ****  Entry defs  ****

                              Check   Calling
                             calling  sequence
  Sect OctLoc Primary Altret sequence   type   Parms  Name
     2      0   yes            yes      Std        4  DOIOX
     2      5                  yes      Std        4  DOIO

  ****  Data defs  ****

 Sect OctLoc  Name                           Sect OctLoc  Name
    0      0  CON_PTR                            0      1  PAYLD_PTR
    0      2  DCW_PTR                            0      3  IMW_PTR
    0     10  PSI_FLG
PL6.E3A0      #001=DOIOX File=ISI$IOPROC.:E05TSI                                 TUE 07/29/97 22:51 Page:13

  ****  Entry refs  ****

         Check        Calling
        calling       sequence
Altret sequence SRef   type   Args  Name
         yes           Std       1 WT_TIME
         yes           Std       0 CLEAR_CACHE
         yes           Std       2 START_IO_RPM
         yes           Std       1 START_IO
                       nStd      0 X66_AUTO_4
                       Std       0 B_CONSPOOL_D
                       nStd      0 X66_ARET

  ****  Data refs  ****

  Flags:  r = read only, s = secondary
Flgs Name                             Flgs Name                             Flgs Name
     DEVINFO                               IOMTAB                                ADDREXT
     ADDREXT1                              RD_FW_FLG                             DISK_FLG
     SKIDCW                                SKDCW                                 IMWBASE
     I$CHAIN$                              POBUF                                 RPM_FLG
     B_VECTNIL

  ****  Segment refs  ****

  Flags:  r = read only, s = secondary
Flgs Name                             Flgs Name                             Flgs Name
     ISSID
PL6.E3A0      #001=DOIOX File=ISI$IOPROC.:E05TSI                                 TUE 07/29/97 22:51 Page:14


        1        1        /*T***********************************************************/
        2        2        /*T*                                                         */
        3        3        /*T* Copyright (c) Bull HN Information Systems Inc., 1997    */
        4        4        /*T*                                                         */
        5        5        /*T***********************************************************/
        6        6        /*X* PLM=8,IND=2,THI=2,ENU=2,CSU=2,DTI=4,DCI=4,ECU=4,AND */
        7        7        DOIOX:  PROC(INDX,COMMAND$,TIME_OUT,L);

      7  2 000000   000000 700200 xent  DOIOX        TSX0  ! X66_AUTO_4
         2 000001   000032 000004                    ZERO    26,4

        8        8        /* This procedure issues the I/O operation */
        9        9        /* Calling sequence :CALL DOIOX  If PSI interface
       10       10                             CALL DOIO   If standard intreface */
       11       11        /* INDX Index in DEVINFO,
       12       12           COMMAND$ Pointer to the command area,
       13       13           TIME_OUT Eventually time_out value */
       14       14        /* The command area has the following structure:
       15       15                   Address of IDCW or PCW
       16       16                   DCW                                  */
       17       17        /**/
       18       18        %INCLUDE IS$MACROS;
       19     1293    1   DCL INDX UBIN WORD;
       20     1294    1   DCL COMMAND$ PTR;
       21     1295    1   DCL TIME_OUT UBIN WORD;
       22     1296    1   DCL L UBIN WORD;
       23     1297        /**/
       24     1298    1   DCL START_IO ENTRY(1);
       25     1299    1   DCL CLEAR_CACHE ENTRY;
       26     1300    1   DCL WT_TIME ENTRY(1);
       27     1301        /**/
       28     1302        %DEVINFO(STCLASS="SYMREF");
       29     1371        %IOM_TAB(NAME=IOMTAB,STCLASS="SYMREF");
       30     1388        %DCW_STRUCT(NAME=DCW,STCLASS="BASED(DCW$)");
       31     1406        %CHANMBOX(NAME=CMBOX);
       32     1431        /**/
PL6.E3A0      #001=DOIOX File=ISI$IOPROC.:E05TSI                                 TUE 07/29/97 22:51 Page:15
       33     1432        %PTR_STRUCT(NAME=CON_PTR);              /* Pointer to connect chann mailbox   */
       34     1450    1   DCL CON$ REDEF CON_PTR PTR;
       35     1451        %PTR_STRUCT(NAME=PAYLD_PTR);            /*Pointer to payload chann mailbox    */
       36     1469    1   DCL PAYLD$ REDEF PAYLD_PTR PTR;
       37     1470        %PTR_STRUCT(NAME=DCW_PTR);
       38     1488    1   DCL DCW$ REDEF DCW_PTR PTR;
       39     1489        %PTR_STRUCT(NAME=IMW_PTR);
       40     1507    1   DCL IMW$ REDEF IMW_PTR PTR;
       41     1508        /**/
       42     1509    1   DCL CHAN$ PTR;
       43     1510    1   DCL PCW$ PTR;
       44     1511    1   DCL INT_IDCW$ PTR;
       45     1512        /**/
       46     1513    1   DCL INT_TIME UBIN WORD;                 /* Time_out value                     */
       47     1514    1   DCL 1 COMZONE BASED(COMMAND$),
       48     1515    1         2 IDCW$ PTR,
       49     1516    1         2 DCW BIT(36);                    /* DOIO Command area                  */
       50     1517    1   DCL 1 IDCW BASED(INT_IDCW$) ALIGNED,
       51     1518    1         2 CHINFO1 BIT(6),
       52     1519    1         2 DEV# UBIN(6) UNAL,
       53     1520    1         2 ADEXT BIT(6),
       54     1521    1         2 TYPE BIT(3),
       55     1522    1         2 EC BIT(1),
       56     1523    1         2 CHINFO2 BIT(14);
       57     1524    1   DCL 1 SAVE_CONMBOX DALIGNED,
       58     1525    1         2 W1 BIT(36),
       59     1526    1         2 W2 BIT(36);                     /* Connect mailbox save area          */
       60     1527    1   DCL SAVE_PMBOX(0:3) BIT(36) ALIGNED;    /*Payld chan mailbox save area*/
       61     1528    1   DCL IMWCEL(0:31) BIT(1) BASED(IMW$) UNAL;
       62     1529        /**/
       63     1530        /* Effective DCW's area */
       64     1531    1   DCL SIDCW BIT(36) STATIC ALIGNED;
       65     1532    1   DCL SIDCW1 BIT(36) STATIC ALIGNED;
       66     1533    1   DCL SIDCW2 BIT(36) STATIC ALIGNED;
       67     1534    1   DCL SIDCW3 BIT(36) STATIC ALIGNED;
       68     1535        /**/
       69     1536    1   DCL ADDREXT BIT(1) SYMREF;
PL6.E3A0      #001=DOIOX File=ISI$IOPROC.:E05TSI                                 TUE 07/29/97 22:51 Page:16
       70     1537    1   DCL ADDREXT1 BIT(1) SYMREF;
       71     1538    1   DCL RD_FW_FLG BIT(1) SYMREF;
       72     1539    1   DCL DISK_FLG BIT(1) SYMREF;
       73     1540    1   DCL SKIDCW BIT(36) SYMREF;
       74     1541    1   DCL SKDCW BIT(36) SYMREF;
       75     1542    1   DCL IMWBASE UBIN WORD SYMREF;
       76     1543    1   DCL I$CHAIN$ PTR SYMREF;
       77     1544    1   DCL POBUF CHAR(1024) SYMREF;
       78     1545    1   DCL USBUF CHAR(1024) BASED;
       79     1546        /**/
       80     1547    1   DCL PSI_FLG BIT(1) STATIC SYMDEF INIT('0'B);
       81     1548    1   DCL PORT# UBIN WORD;
       82     1549    1   DCL I UBIN WORD;
       83     1550        /**/
       84     1551        /**/
       85     1552        /* Declarations specific to RPM DOIO */
       86     1553        /**/
       87     1554    1   DCL START_IO_RPM ENTRY(2);
       88     1555        /**/
       89     1556        %IMX_MBX(NAME=MBX,STCLASS="BASED(MAILBOX$)");
       90     1613    1   DCL MAILBOX$ PTR;
       91     1614    1   DCL EF_DCWS$ PTR;
       92     1615        /**/
       93     1616    1   DCL LOGIC_CHAN UBIN WORD;               /*For START_IO                        */
       94     1617        /**/
       95     1618    1   DCL 1 EF_DCWS BASED(EF_DCWS$) ALIGNED,
       96     1619    1         2 DCW0,
       97     1620    1           3 OPCODE BIT(6),
       98     1621    1           3 DEV# UBIN(6) UNAL,
       99     1622    1           3 ADEXT BIT(6),
      100     1623    1           3 TYPE BIT(3),
      101     1624    1           3 EC BIT(1),
      102     1625    1           3 CONT BIT(1),
      103     1626    1           3 MARK BIT(1),
      104     1627    1           3 * BIT(12),
      105     1628    1         2 DCW1 BIT(36),
      106     1629    1         2 DCW2 BIT(36),
PL6.E3A0      #001=DOIOX File=ISI$IOPROC.:E05TSI                                 TUE 07/29/97 22:51 Page:17
      107     1630    1         2 DCW3 BIT(36);
      108     1631    1   DCL RPM_FLG BIT(1) SYMREF;
      109     1632        /**/
      110     1633        /** Code **/
      111     1634    1           PSI_FLG='1'B;

   1634  2 000002   400000 236003                    LDQ     -131072,DU
         2 000003   000010 756000 0                  STQ     PSI_FLG
         2 000004   000007 710000 2                  TRA     s:1636

      112     1635    1   DOIO:   ENTRY(INDX,COMMAND$,TIME_OUT,L);

   1635  2 000005   000000 700200 xent  DOIO         TSX0  ! X66_AUTO_4
         2 000006   000032 000004                    ZERO    26,4

      113     1636    1           IF RPM_FLG THEN GOTO DOIO_RPM;

   1636  2 000007   000000 234000 xsym               SZN     RPM_FLG
         2 000010   000542 604000 2                  TMI     DOIO_RPM

      114     1637    1           INT_IDCW$=COMZONE.IDCW$;

   1637  2 000011   200004 470500                    LDP0    @COMMAND$,,AUTO
         2 000012   000000 471500                    LDP1    0,,PR0
         2 000013   100000 236100                    LDQ     0,,PR1
         2 000014   200011 756100                    STQ     INT_IDCW$,,AUTO

      115     1638        /* Find Payload channel mailbox */
      116     1639    1           PAYLD_PTR.WOFFS=IOMTAB.MAILBAD(DEVINFO.IOM#(INDX))+4*(DEVINFO.CHN#(INDX));

   1639  2 000015   200003 473500                    LDP3    @INDX,,AUTO
         2 000016   300000 236100                    LDQ     0,,PR3
         2 000017   000006 402007                    MPY     6,DL
         2 000020   000001 736000                    QLS     1
         2 000021   000000 236006 xsym               LDQ     DEVINFO,QL
         2 000022   000023 772000                    QRL     19
         2 000023   000003 376007                    ANQ     3,DL
PL6.E3A0      #001=DOIOX File=ISI$IOPROC.:E05TSI                                 TUE 07/29/97 22:51 Page:18
         2 000024   000000 620006                    EAX0    0,QL
         2 000025   300000 236100                    LDQ     0,,PR3
         2 000026   000006 402007                    MPY     6,DL
         2 000027   000000 621006                    EAX1    0,QL
         2 000030   000000 236010 xsym               LDQ     IOMTAB,X0
         2 000031   000022 772000                    QRL     18
         2 000032   200030 756100                    STQ     LOGIC_CHAN+2,,AUTO
         2 000033   000000 635011                    EAA     0,X1
         2 000034   000021 771000                    ARL     17
         2 000035   000000 236005 xsym               LDQ     DEVINFO,AL
         2 000036   000031 772000                    QRL     25
         2 000037   003774 376007                    ANQ     2044,DL
         2 000040   200030 036100                    ADLQ    LOGIC_CHAN+2,,AUTO
         2 000041   000000 620006                    EAX0    0,QL
         2 000042   000001 740000 0                  STX0    PAYLD_PTR

      117     1640        /* Find Connect channel mailbox */
      118     1641    1           CON_PTR.WOFFS=IOMTAB.MAILBAD(DEVINFO.IOM#(INDX))+2*4;

   1641  2 000043   300000 236100                    LDQ     0,,PR3
         2 000044   000006 402007                    MPY     6,DL
         2 000045   000001 736000                    QLS     1
         2 000046   000000 236006 xsym               LDQ     DEVINFO,QL
         2 000047   000023 772000                    QRL     19
         2 000050   000003 376007                    ANQ     3,DL
         2 000051   000000 221006 xsym               LDX1    IOMTAB,QL
         2 000052   000010 622011                    EAX2    8,X1
         2 000053   000000 742000 0                  STX2    CON_PTR

      119     1642        /* Wait a while for the connect channel to go non_busy */
      120     1643    1           CHAN$=CON$;

   1643  2 000054   000000 236000 0                  LDQ     CON_PTR
         2 000055   200007 756100                    STQ     CHAN$,,AUTO

      121     1644    1           IF CMBOX.W4='0'B THEN;          /* Not the first MINI IO              */

PL6.E3A0      #001=DOIOX File=ISI$IOPROC.:E05TSI                                 TUE 07/29/97 22:51 Page:19
   1644  2 000056   200007 471500                    LDP1    CHAN$,,AUTO
         2 000057   100003 235100                    LDA     3,,PR1
         2 000060   000066 600000 2                  TZE     s:1649

      122     1645    2             ELSE DO ;

      123     1646    2                 CMBOX.W4='0'B;

   1646  2 000061   100003 450100                    STZ     3,,PR1

      124     1647    2                 CALL WT_TIME(1000000);    /* Wait a sec                         */

   1647  2 000062   000001 630400 3                  EPPR0   1
         2 000063   000017 631400 xsym               EPPR1   B_VECTNIL+15
         2 000064   000000 701000 xent               TSX1    WT_TIME
         2 000065   000000 011000                    NOP     0

      125     1648    2               END;                        /* ELSE                               */

      126     1649    1           IF CMBOX.W1.H2.TALLY=0 THEN;    /* Tally=0,chann free                 */

   1649  2 000066   200007 470500                    LDP0    CHAN$,,AUTO
         2 000067   000000 236100                    LDQ     0,,PR0
         2 000070   007777 316007                    CANQ    4095,DL
         2 000071   000100 600000 2                  TZE     s:1653

      127     1650    2             ELSE DO I=0 TO 4000;

   1650  2 000072   200023 450100                    STZ     I,,AUTO

      128     1651    2               END;                        /* ELSE                               */

   1651  2 000073   200023 235100                    LDA     I,,AUTO
         2 000074   000001 035007                    ADLA    1,DL
         2 000075   200023 755100                    STA     I,,AUTO
         2 000076   007641 115007                    CMPA    4001,DL
         2 000077   000073 602000 2                  TNC     s:1651
PL6.E3A0      #001=DOIOX File=ISI$IOPROC.:E05TSI                                 TUE 07/29/97 22:51 Page:20

      129     1652        /* Build PCW */
      130     1653    1           DEVINFO.PCWS.PCW1.CHINFO1(INDX)=IDCW.CHINFO1;

   1653  2 000100   200003 470500                    LDP0    @INDX,,AUTO
         2 000101   000000 236100                    LDQ     0,,PR0
         2 000102   000006 402007                    MPY     6,DL
         2 000103   000001 736000                    QLS     1
         2 000104   200011 471500                    LDP1    INT_IDCW$,,AUTO
         2 000105   000000 620006                    EAX0    0,QL
         2 000106   100000 236100                    LDQ     0,,PR1
         2 000107   000002 676010 xsym               ERQ     DEVINFO+2,X0
         2 000110   770000 376003                    ANQ     -4096,DU
         2 000111   000002 656010 xsym               ERSQ    DEVINFO+2,X0

      131     1654    1           DEVINFO.PCWS.PCW1.CHINFO2(INDX)=IDCW.CHINFO2;

   1654  2 000112   000000 236100                    LDQ     0,,PR0
         2 000113   000006 402007                    MPY     6,DL
         2 000114   000001 736000                    QLS     1
         2 000115   000000 620006                    EAX0    0,QL
         2 000116   100000 236100                    LDQ     0,,PR1
         2 000117   000002 676010 xsym               ERQ     DEVINFO+2,X0
         2 000120   037777 376007                    ANQ     16383,DL
         2 000121   000002 656010 xsym               ERSQ    DEVINFO+2,X0

      132     1655    1           DEVINFO.PCWS.PCW1.M(INDX)='0'B;

   1655  2 000122   000000 236100                    LDQ     0,,PR0
         2 000123   000006 402007                    MPY     6,DL
         2 000124   000001 736000                    QLS     1
         2 000125   000000 620006                    EAX0    0,QL
         2 000126   000002 236000 3                  LDQ     2
         2 000127   000002 356010 xsym               ANSQ    DEVINFO+2,X0

      133     1656    1           IF ADDREXT='0'B THEN;           /* No address extention               */

PL6.E3A0      #001=DOIOX File=ISI$IOPROC.:E05TSI                                 TUE 07/29/97 22:51 Page:21
   1656  2 000130   000000 234000 xsym               SZN     ADDREXT
         2 000131   000143 605000 2                  TPL     s:1661

      134     1657    2             ELSE DO;

      135     1658    2                 ADDREXT='0'B;

   1658  2 000132   000000 450000 xsym               STZ     ADDREXT

      136     1659    2                 DEVINFO.PCWS.PCW1.ADEXT(INDX)='1'B;

   1659  2 000133   000000 236100                    LDQ     0,,PR0
         2 000134   000006 402007                    MPY     6,DL
         2 000135   000001 736000                    QLS     1
         2 000136   000000 620006                    EAX0    0,QL
         2 000137   000002 236006 xsym               LDQ     DEVINFO+2,QL
         2 000140   000003 376000 3                  ANQ     3
         2 000141   000040 276003                    ORQ     32,DU
         2 000142   000002 756010 xsym               STQ     DEVINFO+2,X0

      137     1660    2               END;                        /* ELSE                               */

      138     1661    1           DEVINFO.PCWS.PCW1.DEV#(INDX)=DEVINFO.DEV#(INDX);

   1661  2 000143   000000 236100                    LDQ     0,,PR0
         2 000144   000006 402007                    MPY     6,DL
         2 000145   000001 736000                    QLS     1
         2 000146   000000 620006                    EAX0    0,QL
         2 000147   000000 236100                    LDQ     0,,PR0
         2 000150   000006 402007                    MPY     6,DL
         2 000151   000001 736000                    QLS     1
         2 000152   000000 236006 xsym               LDQ     DEVINFO,QL
         2 000153   000003 736000                    QLS     3
         2 000154   000002 676010 xsym               ERQ     DEVINFO+2,X0
         2 000155   007700 376003                    ANQ     4032,DU
         2 000156   000002 656010 xsym               ERSQ    DEVINFO+2,X0

PL6.E3A0      #001=DOIOX File=ISI$IOPROC.:E05TSI                                 TUE 07/29/97 22:51 Page:22
      139     1662    1           DEVINFO.PCWS.PCW2.CHN#(INDX)=DEVINFO.CHN#(INDX);

   1662  2 000157   000000 236100                    LDQ     0,,PR0
         2 000160   000006 402007                    MPY     6,DL
         2 000161   000001 736000                    QLS     1
         2 000162   000000 620006                    EAX0    0,QL
         2 000163   000000 236100                    LDQ     0,,PR0
         2 000164   000006 402007                    MPY     6,DL
         2 000165   000001 736000                    QLS     1
         2 000166   000000 236006 xsym               LDQ     DEVINFO,QL
         2 000167   000003 676010 xsym               ERQ     DEVINFO+3,X0
         2 000170   777000 376003                    ANQ     -512,DU
         2 000171   000003 656010 xsym               ERSQ    DEVINFO+3,X0

      140     1663        /**/
      141     1664        /* Save connect mailbox 1,2 */
      142     1665    1           SAVE_CONMBOX.W1=CMBOX.W1;

   1665  2 000172   200007 473500                    LDP3    CHAN$,,AUTO
         2 000173   300000 236100                    LDQ     0,,PR3
         2 000174   200014 756100                    STQ     SAVE_CONMBOX,,AUTO

      143     1666    1           SAVE_CONMBOX.W2=CMBOX.W2;

   1666  2 000175   300001 236100                    LDQ     1,,PR3
         2 000176   200015 756100                    STQ     SAVE_CONMBOX+1,,AUTO

      144     1667        /* Build LPW,LPWX words for connect channel */
      145     1668    1           CMBOX.LPW$=ADDR(DEVINFO.PCWS.PCW1(INDX));

   1668  2 000177   000000 236100                    LDQ     0,,PR0
         2 000200   000006 402007                    MPY     6,DL
         2 000201   000023 736000                    QLS     19
         2 000202   000004 036000 3                  ADLQ    4
         2 000203   300000 756100                    STQ     0,,PR3

      146     1669    1           CMBOX.W1.H2.TAL='1'B;
PL6.E3A0      #001=DOIOX File=ISI$IOPROC.:E05TSI                                 TUE 07/29/97 22:51 Page:23

   1669  2 000204   020000 236007                    LDQ     8192,DL
         2 000205   300000 256100                    ORSQ    0,,PR3

      147     1670    1           CMBOX.W1.H2.TALLY=1;

   1670  2 000206   000001 236007                    LDQ     1,DL
         2 000207   300000 752103                    STCQ    0,'03'O,PR3

      148     1671    1           CMBOX.W2.H2='777777'O;          /* LPWX                               */

   1671  2 000210   777777 220003                    LDX0    -1,DU
         2 000211   300001 440100                    SXL0    1,,PR3

      149     1672        /* Set up payload channel mailbox */
      150     1673    1           CHAN$=PAYLD$;

   1673  2 000212   000001 236000 0                  LDQ     PAYLD_PTR
         2 000213   200007 756100                    STQ     CHAN$,,AUTO

      151     1674    1           SAVE_PMBOX=CMBOX;

   1674  2 000214   200007 473500                    LDP3    CHAN$,,AUTO
         2 000215   000100 100500                    MLR     fill='000'O
         2 000216   300000 000020                    ADSC9   0,,PR3                   cn=0,n=16
         2 000217   200016 000020                    ADSC9   SAVE_PMBOX,,AUTO         cn=0,n=16

      152     1675    1           CMBOX.SCW$=ADDR(DEVINFO.STATUS(INDX)); /* SCW                         */

   1675  2 000220   000000 236100                    LDQ     0,,PR0
         2 000221   000006 402007                    MPY     6,DL
         2 000222   000023 736000                    QLS     19
         2 000223   000005 036000 3                  ADLQ    5
         2 000224   300002 756100                    STQ     2,,PR3

      153     1676    1           CMBOX.W3.H2='0'B;

PL6.E3A0      #001=DOIOX File=ISI$IOPROC.:E05TSI                                 TUE 07/29/97 22:51 Page:24
   1676  2 000225   000000 221003                    LDX1    0,DU
         2 000226   300002 441100                    SXL1    2,,PR3

      154     1677    1           CMBOX.W2.H1='0'B;               /* LPWX                               */

   1677  2 000227   300001 741100                    STX1    1,,PR3

      155     1678    1           CMBOX.W2.H2='777777'O;

   1678  2 000230   300001 440100                    SXL0    1,,PR3

      156     1679    1           CMBOX.W4='0'B;                  /* DCW                                */

   1679  2 000231   300003 450100                    STZ     3,,PR3

      157     1680    1           DCW$=ADDR(COMZONE.DCW);

   1680  2 000232   200004 474500                    LDP4    @COMMAND$,,AUTO
         2 000233   400000 475500                    LDP5    0,,PR4
         2 000234   500001 636500                    EPPR6   1,,PR5
         2 000235   000002 456400 0                  STP6    DCW_PTR

   1680  2 000236                       FIND_DCW     null
      158     1681    1   FIND_DCW:;
      159     1682    2           IF DCW.TYPE='10'B THEN DO;      /* TDCW,look for DCW                  */

   1682  2 000236   000002 470400 0                  LDP0    DCW_PTR
         2 000237   000000 236100                    LDQ     0,,PR0
         2 000240   030000 376007                    ANQ     12288,DL
         2 000241   020000 116007                    CMPQ    8192,DL
         2 000242   000246 601000 2                  TNZ     s:1687

      160     1683    2                 DCW_PTR.WOFFS=DCW.AD;

   1683  2 000243   000000 220100                    LDX0    0,,PR0
         2 000244   000002 740000 0                  STX0    DCW_PTR

PL6.E3A0      #001=DOIOX File=ISI$IOPROC.:E05TSI                                 TUE 07/29/97 22:51 Page:25
      161     1684    2                 GOTO FIND_DCW;

   1684  2 000245   000236 710000 2                  TRA     FIND_DCW

      162     1685    2               END;                        /* THEN                               */
      163     1686    1             ELSE;
      164     1687    2           IF PSI_FLG='1'B THEN DO;        /* PSI, set IDCW                      */

   1687  2 000246   000010 234000 0                  SZN     PSI_FLG
         2 000247   000341 605000 2                  TPL     s:1717

      165     1688    2                 PSI_FLG='0'B;

   1688  2 000250   000010 450000 0                  STZ     PSI_FLG

      166     1689    2                 SIDCW=DEVINFO.PCWS.PCW1(INDX);

   1689  2 000251   200003 471500                    LDP1    @INDX,,AUTO
         2 000252   100000 236100                    LDQ     0,,PR1
         2 000253   000006 402007                    MPY     6,DL
         2 000254   000001 736000                    QLS     1
         2 000255   000002 236006 xsym               LDQ     DEVINFO+2,QL
         2 000256   000004 756000 0                  STQ     SIDCW

      167     1690    2                IF DEVINFO.PCWS.PCW1.ADEXT(INDX)='0'B THEN; /* No address extention */

   1690  2 000257   100000 236100                    LDQ     0,,PR1
         2 000260   000006 402007                    MPY     6,DL
         2 000261   000001 736000                    QLS     1
         2 000262   000002 236006 xsym               LDQ     DEVINFO+2,QL
         2 000263   000077 316003                    CANQ    63,DU
         2 000264   000270 600000 2                  TZE     s:1692

      168     1691    2                   ELSE SIDCW=SIDCW|'040000'O; /*Set EC bit in IDCW              */

   1691  2 000265   000004 236000 0                  LDQ     SIDCW
         2 000266   040000 276003                    ORQ     16384,DU
PL6.E3A0      #001=DOIOX File=ISI$IOPROC.:E05TSI                                 TUE 07/29/97 22:51 Page:26
         2 000267   000004 756000 0                  STQ     SIDCW

      169     1692    2                 DEVINFO.PCWS.PCW1(INDX)='0'B;

   1692  2 000270   100000 236100                    LDQ     0,,PR1
         2 000271   000006 402007                    MPY     6,DL
         2 000272   000001 736000                    QLS     1
         2 000273   000002 450006 xsym               STZ     DEVINFO+2,QL

      170     1693    2                 DEVINFO.PCWS.PCW1.PCWID(INDX)='7'O;

   1693  2 000274   100000 236100                    LDQ     0,,PR1
         2 000275   000006 402007                    MPY     6,DL
         2 000276   000001 736000                    QLS     1
         2 000277   000000 620006                    EAX0    0,QL
         2 000300   700000 236007                    LDQ     -32768,DL
         2 000301   000002 256010 xsym               ORSQ    DEVINFO+2,X0

      171     1694    3                 IF RD_FW_FLG='1'B THEN DO; /* Read FW                           */

   1694  2 000302   000000 234000 xsym               SZN     RD_FW_FLG
         2 000303   000307 605000 2                  TPL     s:1700

      172     1695    3                       SIDCW1=DCW;

   1695  2 000304   000000 236100                    LDQ     0,,PR0
         2 000305   000005 756000 0                  STQ     SIDCW1

      173     1696    3                       GOTO DODCWAD;

   1696  2 000306   000337 710000 2                  TRA     DODCWAD

      174     1697    3                     END;                  /* THEN                               */
      175     1698    2                   ELSE;
      176     1699        /* In SIDCW1,build a TDCW */
      177     1700    2                 SIDCW1=DCW_PTR;           /* Pointer to the DCW                 */

PL6.E3A0      #001=DOIOX File=ISI$IOPROC.:E05TSI                                 TUE 07/29/97 22:51 Page:27
   1700  2 000307   000002 236000 0                  LDQ     DCW_PTR
         2 000310   000005 756000 0                  STQ     SIDCW1

      178     1701    2                 DCW$=ADDR(SIDCW1);

   1701  2 000311   000006 236000 3                  LDQ     6
         2 000312   000002 756000 0                  STQ     DCW_PTR

      179     1702    2                 DCW.TALLY=0;

   1702  2 000313   000002 470400 0                  LDP0    DCW_PTR
         2 000314   000000 236003                    LDQ     0,DU
         2 000315   000000 752103                    STCQ    0,'03'O,PR0

      180     1703    2                 DCW.TYPE='10'B;           /* Make it a TDCW                     */

   1703  2 000316   000002 470400 0                  LDP0    DCW_PTR
         2 000317   000000 236100                    LDQ     0,,PR0
         2 000320   000007 376000 3                  ANQ     7
         2 000321   020000 276007                    ORQ     8192,DL
         2 000322   000000 756100                    STQ     0,,PR0

      181     1704    3                 IF DISK_FLG='1'B THEN DO; /* DISK I/O                           */

   1704  2 000323   000000 234000 xsym               SZN     DISK_FLG
         2 000324   000337 605000 2                  TPL     DODCWAD

      182     1705        /* Make room for SEEK */
      183     1706    3                       SIDCW2=SIDCW;

   1706  2 000325   000004 236000 0                  LDQ     SIDCW
         2 000326   000006 756000 0                  STQ     SIDCW2

      184     1707    3                       SIDCW3=SIDCW1;

   1707  2 000327   000005 236000 0                  LDQ     SIDCW1
         2 000330   000007 756000 0                  STQ     SIDCW3
PL6.E3A0      #001=DOIOX File=ISI$IOPROC.:E05TSI                                 TUE 07/29/97 22:51 Page:28

      185     1708    3                       SIDCW=SIDCW&'007777737777'O|SKIDCW;
              1708                                /*Mask out READ or WRITE and bit 21,

   1708  2 000331   000004 236000 0                  LDQ     SIDCW
         2 000332   000000 376000 1                  ANQ     0
         2 000333   000000 276000 xsym               ORQ     SKIDCW
         2 000334   000004 756000 0                  STQ     SIDCW

      186     1709                                           and make it a SEEK with continue */
      187     1710    3                       SIDCW1=SKDCW;

   1710  2 000335   000000 236000 xsym               LDQ     SKDCW
         2 000336   000005 756000 0                  STQ     SIDCW1

      188     1711    3                     END;                  /* THEN                               */

   1704  2 000337                       DODCWAD      null
      189     1712    2                   ELSE;
      190     1713    2   DODCWAD:      ;
      191     1714    2                 DCW$=ADDR(SIDCW);

   1714  2 000337   000010 236000 3                  LDQ     8
         2 000340   000002 756000 0                  STQ     DCW_PTR

      192     1715    2               END;                        /* THEN                               */

      193     1716    1             ELSE;
      194     1717    1           CMBOX.LPW$=DCW$;

   1717  2 000341   000002 236000 0                  LDQ     DCW_PTR
         2 000342   200007 470500                    LDP0    CHAN$,,AUTO
         2 000343   000000 756100                    STQ     0,,PR0

      195     1718    1           CMBOX.W1.H2.TALLY=4095;

   1718  2 000344   007777 236007                    LDQ     4095,DL
PL6.E3A0      #001=DOIOX File=ISI$IOPROC.:E05TSI                                 TUE 07/29/97 22:51 Page:29
         2 000345   000000 752103                    STCQ    0,'03'O,PR0

      196     1719    1           DEVINFO.STATUS(INDX)='0'B;      /* Clear Status words                 */

   1719  2 000346   200003 471500                    LDP1    @INDX,,AUTO
         2 000347   100000 236100                    LDQ     0,,PR1
         2 000350   000006 402007                    MPY     6,DL
         2 000351   000001 736000                    QLS     1
         2 000352   000000 235003                    LDA     0,DU
         2 000353   000000 620006                    EAX0    0,QL
         2 000354   000000 236003                    LDQ     0,DU
         2 000355   000004 757010 xsym               STAQ    DEVINFO+4,X0

      197     1720    1           I=DEVINFO.CHN#(INDX);           /* See if channel 0-31 or 32-63       */

   1720  2 000356   100000 236100                    LDQ     0,,PR1
         2 000357   000006 402007                    MPY     6,DL
         2 000360   000001 736000                    QLS     1
         2 000361   000000 236006 xsym               LDQ     DEVINFO,QL
         2 000362   000033 772000                    QRL     27
         2 000363   200023 756100                    STQ     I,,AUTO

      198     1721    1           IF I<32 THEN

   1721  2 000364   000040 116007                    CMPQ    32,DL
         2 000365   000400 603000 2                  TRC     s:1724

      199     1722    1             IMW_PTR.WOFFS=IMWBASE+DEVINFO.IOM#(INDX)+12;/*For channels 0-31*/

   1722  2 000366   100000 236100                    LDQ     0,,PR1
         2 000367   000006 402007                    MPY     6,DL
         2 000370   000001 736000                    QLS     1
         2 000371   000000 236006 xsym               LDQ     DEVINFO,QL
         2 000372   000023 772000                    QRL     19
         2 000373   000003 376007                    ANQ     3,DL
         2 000374   000000 036000 xsym               ADLQ    IMWBASE
         2 000375   000014 620006                    EAX0    12,QL
PL6.E3A0      #001=DOIOX File=ISI$IOPROC.:E05TSI                                 TUE 07/29/97 22:51 Page:30
         2 000376   000003 740000 0                  STX0    IMW_PTR
         2 000377   000413 710000 2                  TRA     s:1727

      200     1723    2             ELSE DO;

      201     1724    2                 I=I-32;

   1724  2 000400   000040 136007                    SBLQ    32,DL
         2 000401   200023 756100                    STQ     I,,AUTO

      202     1725    2                 IMW_PTR.WOFFS=IMWBASE+DEVINFO.IOM#(INDX)+8;/*For channels 32-63 */

   1725  2 000402   100000 236100                    LDQ     0,,PR1
         2 000403   000006 402007                    MPY     6,DL
         2 000404   000001 736000                    QLS     1
         2 000405   000000 236006 xsym               LDQ     DEVINFO,QL
         2 000406   000023 772000                    QRL     19
         2 000407   000003 376007                    ANQ     3,DL
         2 000410   000000 036000 xsym               ADLQ    IMWBASE
         2 000411   000010 620006                    EAX0    8,QL
         2 000412   000003 740000 0                  STX0    IMW_PTR

      203     1726    2               END;                        /* ELSE                               */

      204     1727    1           IMWCEL(I)='0'B;                 /*Turn INT bit off                    */

   1727  2 000413   000003 473400 0                  LDP3    IMW_PTR
         2 000414   200023 235100                    LDA     I,,AUTO
         2 000415   003105 060400                    CSL     bolr='003'O
         2 000416   000002 000001 xsym               BDSC    B_VECTNIL+2              by=0,bit=0,n=1
         2 000417   300000 000001                    BDSC    0,A,PR3                  by=0,bit=0,n=1

      205     1728    1           PORT#=IOMTAB.PORT#(DEVINFO.IOM#(INDX));

   1728  2 000420   100000 236100                    LDQ     0,,PR1
         2 000421   000006 402007                    MPY     6,DL
         2 000422   000001 736000                    QLS     1
PL6.E3A0      #001=DOIOX File=ISI$IOPROC.:E05TSI                                 TUE 07/29/97 22:51 Page:31
         2 000423   000000 236006 xsym               LDQ     DEVINFO,QL
         2 000424   000023 772000                    QRL     19
         2 000425   000003 376007                    ANQ     3,DL
         2 000426   000000 236006 xsym               LDQ     IOMTAB,QL
         2 000427   000007 376007                    ANQ     7,DL
         2 000430   200022 756100                    STQ     PORT#,,AUTO

      206     1729    1           CALL START_IO(PORT#);

   1729  2 000431   200022 633500                    EPPR3   PORT#,,AUTO
         2 000432   200030 453500                    STP3    LOGIC_CHAN+2,,AUTO
         2 000433   200030 630500                    EPPR0   LOGIC_CHAN+2,,AUTO
         2 000434   000017 631400 xsym               EPPR1   B_VECTNIL+15
         2 000435   000000 701000 xent               TSX1    START_IO
         2 000436   000000 011000                    NOP     0

      207     1730    1           CHAN$=CON$;

   1730  2 000437   000000 236000 0                  LDQ     CON_PTR
         2 000440   200007 756100                    STQ     CHAN$,,AUTO

      208     1731        /* Wait until connect channel non_busy */
      209     1732    2           DO UNTIL CMBOX.W1.H2.TALLY=0;

      210     1733    2           END;                            /* DO                                 */

   1733  2 000441   200007 470500                    LDP0    CHAN$,,AUTO
         2 000442   000000 236100                    LDQ     0,,PR0
         2 000443   007777 316007                    CANQ    4095,DL
         2 000444   000441 601000 2                  TNZ     s:1733

      211     1734    2           IF ADDR(TIME_OUT)~=ADDR(NIL) THEN DO; /* Time_out required            */

   1734  2 000445   200005 236100                    LDQ     @TIME_OUT,,AUTO
         2 000446   000001 116000 xsym               CMPQ    B_VECTNIL+1
         2 000447   000467 600000 2                  TZE     s:1744

PL6.E3A0      #001=DOIOX File=ISI$IOPROC.:E05TSI                                 TUE 07/29/97 22:51 Page:32
      212     1735    2                 INT_TIME=TIME_OUT;

   1735  2 000450   200005 471500                    LDP1    @TIME_OUT,,AUTO
         2 000451   100000 235100                    LDA     0,,PR1
         2 000452   200012 755100                    STA     INT_TIME,,AUTO

      213     1736    3                 DO UNTIL INT_TIME=0;

      214     1737    3                   INT_TIME=INT_TIME-1;

   1737  2 000453   200012 235100                    LDA     INT_TIME,,AUTO
         2 000454   000001 135007                    SBLA    1,DL
         2 000455   200012 755100                    STA     INT_TIME,,AUTO

      215     1738    3                   IF DEVINFO.STATUS.TBIT(INDX)='1'B THEN GOTO IOTERM;
              1738                            /* IO finished */

   1738  2 000456   200003 470500                    LDP0    @INDX,,AUTO
         2 000457   000000 236100                    LDQ     0,,PR0
         2 000460   000006 402007                    MPY     6,DL
         2 000461   000001 736000                    QLS     1
         2 000462   000004 234006 xsym               SZN     DEVINFO+4,QL
         2 000463   000475 604000 2                  TMI     IOTERM

      216     1739    3                     ELSE;
      217     1740    3                 END;                      /* DO UNTIL                           */

   1740  2 000464   200012 235100                    LDA     INT_TIME,,AUTO
         2 000465   000453 601000 2                  TNZ     s:1737

      218     1741    2                 GOTO IODONE;

   1741  2 000466   000506 710000 2                  TRA     IODONE

      219     1742    2               END;                        /* THEN                               */
      220     1743    2             ELSE DO UNTIL DEVINFO.STATUS.TBIT(INDX)='1'B;

PL6.E3A0      #001=DOIOX File=ISI$IOPROC.:E05TSI                                 TUE 07/29/97 22:51 Page:33
      221     1744    2               END;                        /* ELSE                               */

   1744  2 000467   200003 470500                    LDP0    @INDX,,AUTO
         2 000470   000000 236100                    LDQ     0,,PR0
         2 000471   000006 402007                    MPY     6,DL
         2 000472   000001 736000                    QLS     1
         2 000473   000004 234006 xsym               SZN     DEVINFO+4,QL
         2 000474   000467 605000 2                  TPL     s:1744

   1742  2 000475                       IOTERM       null
      222     1745        /* Wait for INT bit,then turn it off */
      223     1746    1   IOTERM: ;
      224     1747    2           DO UNTIL IMWCEL(I)='1'B;

      225     1748    2           END;                            /* DO                                 */

   1748  2 000475   000003 470400 0                  LDP0    IMW_PTR
         2 000476   200023 235100                    LDA     I,,AUTO
         2 000477   000000 066505                    CMPB    filb='0'B
         2 000500   000000 000001                    BDSC    0,A,PR0                  by=0,bit=0,n=1
         2 000501   000002 000022 xsym               BDSC    B_VECTNIL+2              by=0,bit=0,n=18
         2 000502   000475 600000 2                  TZE     IOTERM

      226     1749    1           IMWCEL(I)='0'B;

   1749  2 000503   003105 060400                    CSL     bolr='003'O
         2 000504   000002 000001 xsym               BDSC    B_VECTNIL+2              by=0,bit=0,n=1
         2 000505   000000 000001                    BDSC    0,A,PR0                  by=0,bit=0,n=1

   1749  2 000506                       IODONE       null
      227     1750    1   IODONE: ;
      228     1751    1           CALL CLEAR_CACHE;

   1751  2 000506   000002 631400 xsym               EPPR1   B_VECTNIL+2
         2 000507   000000 701000 xent               TSX1    CLEAR_CACHE
         2 000510   000000 011000                    NOP     0

PL6.E3A0      #001=DOIOX File=ISI$IOPROC.:E05TSI                                 TUE 07/29/97 22:51 Page:34
      229     1752    2           IF ADDREXT1='1'B THEN DO;       /*Buffer cross 256 K                  */

   1752  2 000511   000000 234000 xsym               SZN     ADDREXT1
         2 000512   000523 605000 2                  TPL     s:1759

      230     1753    2                 ADDREXT1='0'B;

   1753  2 000513   000000 450000 xsym               STZ     ADDREXT1

      231     1754        /* Move POBUF into buffer */
      232     1755    2                 SUBSTR(I$CHAIN$->USBUF,0,L)=SUBSTR(POBUF,0,L);

   1755  2 000514   200006 470500                    LDP0    @L,,AUTO
         2 000515   000000 720100                    LXL0    0,,PR0
         2 000516   000000 721100                    LXL1    0,,PR0
         2 000517   000000 471400 xsym               LDP1    I$CHAIN$
         2 000520   040140 100440                    MLR     fill='040'O
         2 000521   000000 000011 xsym               ADSC9   POBUF                    cn=0,n=*X1
         2 000522   100000 000010                    ADSC9   0,,PR1                   cn=0,n=*X0

      233     1756    2               END;                        /*THEN                                */

      234     1757    1             ELSE;
      235     1758        /* Restore mailboxes */
      236     1759    1           CHAN$=CON$;

   1759  2 000523   000000 236000 0                  LDQ     CON_PTR
         2 000524   200007 756100                    STQ     CHAN$,,AUTO

      237     1760    1           CMBOX.W1=SAVE_CONMBOX.W1;

   1760  2 000525   200014 236100                    LDQ     SAVE_CONMBOX,,AUTO
         2 000526   200007 470500                    LDP0    CHAN$,,AUTO
         2 000527   000000 756100                    STQ     0,,PR0

      238     1761    1           CMBOX.W2=SAVE_CONMBOX.W2;

PL6.E3A0      #001=DOIOX File=ISI$IOPROC.:E05TSI                                 TUE 07/29/97 22:51 Page:35
   1761  2 000530   200015 236100                    LDQ     SAVE_CONMBOX+1,,AUTO
         2 000531   000001 756100                    STQ     1,,PR0

      239     1762    1           CHAN$=PAYLD$;

   1762  2 000532   000001 236000 0                  LDQ     PAYLD_PTR
         2 000533   200007 756100                    STQ     CHAN$,,AUTO

      240     1763    1           CMBOX=SAVE_PMBOX;

   1763  2 000534   200007 470500                    LDP0    CHAN$,,AUTO
         2 000535   000100 100500                    MLR     fill='000'O
         2 000536   200016 000020                    ADSC9   SAVE_PMBOX,,AUTO         cn=0,n=16
         2 000537   000000 000020                    ADSC9   0,,PR0                   cn=0,n=16

      241     1764    1           PSI_FLG='0'B;                   /* Restore flag                       */

   1764  2 000540   000010 450000 0                  STZ     PSI_FLG

      242     1765    1           RETURN;

   1765  2 000541   000000 702200 xent               TSX2  ! X66_ARET

   1764  2 000542                       DOIO_RPM     null
      243     1766    1   DOIO_RPM: ;
      244     1767        /* This program issues the I/O operation  on an IMX */
      245     1768        /* INDX Index in DEVINFO,
      246     1769           COMMAND$ Pointer to the command area,
      247     1770           TIME_OUT Eventually time_out value */
      248     1771        /**/
      249     1772        /**/
      250     1773        /** Code **/
      251     1774    1           MAILBOX$=DEVINFO.RPM_PTRS.MBX$(INDX);

   1774  2 000542   200003 470500                    LDP0    @INDX,,AUTO
         2 000543   000000 236100                    LDQ     0,,PR0
         2 000544   000006 402007                    MPY     6,DL
PL6.E3A0      #001=DOIOX File=ISI$IOPROC.:E05TSI                                 TUE 07/29/97 22:51 Page:36
         2 000545   000001 736000                    QLS     1
         2 000546   000002 236006 xsym               LDQ     DEVINFO+2,QL
         2 000547   200024 756100                    STQ     MAILBOX$,,AUTO

      252     1775        /* Init Mailbox */
      253     1776    1           MBX.LPW.DCW_ADDR=DEVINFO.RPM_PTRS.EF_DCWS_PTR.WOFFS(INDX);
              1776                    /* Set LPW to point to respective DCWs */

   1776  2 000550   000000 236100                    LDQ     0,,PR0
         2 000551   000006 402007                    MPY     6,DL
         2 000552   000001 736000                    QLS     1
         2 000553   000003 220006 xsym               LDX0    DEVINFO+3,QL
         2 000554   200024 471500                    LDP1    MAILBOX$,,AUTO
         2 000555   100007 740100                    STX0    7,,PR1

      254     1777    1           EF_DCWS$=DEVINFO.RPM_PTRS.EF_DCWS$(INDX);

   1777  2 000556   000000 236100                    LDQ     0,,PR0
         2 000557   000006 402007                    MPY     6,DL
         2 000560   000001 736000                    QLS     1
         2 000561   000003 236006 xsym               LDQ     DEVINFO+3,QL
         2 000562   200025 756100                    STQ     EF_DCWS$,,AUTO

      255     1778    1           DCW$=ADDR(COMZONE.DCW);

   1778  2 000563   200004 471500                    LDP1    @COMMAND$,,AUTO
         2 000564   100000 473500                    LDP3    0,,PR1
         2 000565   300001 634500                    EPPR4   1,,PR3
         2 000566   000002 454400 0                  STP4    DCW_PTR

      256     1779    2           DO WHILE DCW.TYPE='10'B ;       /* TDCW,look for DCW                  */

   1779  2 000567   400000 236100                    LDQ     0,,PR4
         2 000570   030000 376007                    ANQ     12288,DL
         2 000571   020000 116007                    CMPQ    8192,DL
         2 000572   000603 601000 2                  TNZ     s:1782

PL6.E3A0      #001=DOIOX File=ISI$IOPROC.:E05TSI                                 TUE 07/29/97 22:51 Page:37
      257     1780    2             DCW_PTR.WOFFS=DCW.AD;

   1780  2 000573   000002 470400 0                  LDP0    DCW_PTR
         2 000574   000000 220100                    LDX0    0,,PR0
         2 000575   000002 740000 0                  STX0    DCW_PTR

      258     1781    2           END;

   1781  2 000576   000002 470400 0                  LDP0    DCW_PTR
         2 000577   000000 236100                    LDQ     0,,PR0
         2 000600   030000 376007                    ANQ     12288,DL
         2 000601   020000 116007                    CMPQ    8192,DL
         2 000602   000573 600000 2                  TZE     s:1780

      259     1782    1           EF_DCWS.DCW0=COMZONE.IDCW$->DCW;

   1782  2 000603   200004 470500                    LDP0    @COMMAND$,,AUTO
         2 000604   000000 471500                    LDP1    0,,PR0
         2 000605   100000 473500                    LDP3    0,,PR1
         2 000606   300000 236100                    LDQ     0,,PR3
         2 000607   200025 474500                    LDP4    EF_DCWS$,,AUTO
         2 000610   400000 756100                    STQ     0,,PR4

      260     1783    1           EF_DCWS.DCW0.DEV#=DEVINFO.DEV#(INDX);

   1783  2 000611   200003 471500                    LDP1    @INDX,,AUTO
         2 000612   100000 236100                    LDQ     0,,PR1
         2 000613   000006 402007                    MPY     6,DL
         2 000614   000001 736000                    QLS     1
         2 000615   000000 236006 xsym               LDQ     DEVINFO,QL
         2 000616   000003 736000                    QLS     3
         2 000617   400000 752120                    STCQ    0,'20'O,PR4

      261     1784    1           EF_DCWS.DCW0.TYPE='7'O;

   1784  2 000620   700000 236007                    LDQ     -32768,DL
         2 000621   400000 256100                    ORSQ    0,,PR4
PL6.E3A0      #001=DOIOX File=ISI$IOPROC.:E05TSI                                 TUE 07/29/97 22:51 Page:38

      262     1785    2           IF RD_FW_FLG='1'B THEN DO;      /* Read FW                            */

   1785  2 000622   000000 234000 xsym               SZN     RD_FW_FLG
         2 000623   000630 605000 2                  TPL     s:1791

      263     1786    2                 EF_DCWS.DCW1=DCW;

   1786  2 000624   000002 473400 0                  LDP3    DCW_PTR
         2 000625   300000 236100                    LDQ     0,,PR3
         2 000626   400001 756100                    STQ     1,,PR4

      264     1787    2                 GOTO R_DODCWAD;

   1787  2 000627   000661 710000 2                  TRA     R_DODCWAD

      265     1788    2               END;                        /* THEN                               */
      266     1789    1             ELSE;
      267     1790        /* In DCW1,build a TDCW */
      268     1791    1           EF_DCWS.DCW1=DCW_PTR;           /* Pointer to the DCW                 */

   1791  2 000630   000002 236000 0                  LDQ     DCW_PTR
         2 000631   400001 756100                    STQ     1,,PR4

      269     1792    1           DCW$=ADDR(EF_DCWS.DCW1);

   1792  2 000632   200025 236100                    LDQ     EF_DCWS$,,AUTO
         2 000633   000001 036003                    ADLQ    1,DU
         2 000634   000002 756000 0                  STQ     DCW_PTR

      270     1793    1           DCW.TALLY=0;

   1793  2 000635   000002 473400 0                  LDP3    DCW_PTR
         2 000636   000000 236003                    LDQ     0,DU
         2 000637   300000 752103                    STCQ    0,'03'O,PR3

      271     1794    1           DCW.TYPE='10'B;                 /* Make it a TDCW                     */
PL6.E3A0      #001=DOIOX File=ISI$IOPROC.:E05TSI                                 TUE 07/29/97 22:51 Page:39

   1794  2 000640   000002 473400 0                  LDP3    DCW_PTR
         2 000641   300000 236100                    LDQ     0,,PR3
         2 000642   000007 376000 3                  ANQ     7
         2 000643   020000 276007                    ORQ     8192,DL
         2 000644   300000 756100                    STQ     0,,PR3

      272     1795    2           IF DISK_FLG='1'B THEN DO;       /* DISK I/O                           */

   1795  2 000645   000000 234000 xsym               SZN     DISK_FLG
         2 000646   000661 605000 2                  TPL     R_DODCWAD

      273     1796        /* Make room for SEEK */
      274     1797    2                 EF_DCWS.DCW2=EF_DCWS.DCW0;

   1797  2 000647   400000 236100                    LDQ     0,,PR4
         2 000650   400002 756100                    STQ     2,,PR4

      275     1798    2                 EF_DCWS.DCW3=EF_DCWS.DCW1;

   1798  2 000651   400001 236100                    LDQ     1,,PR4
         2 000652   400003 756100                    STQ     3,,PR4

      276     1799    2                 EF_DCWS.DCW0.OPCODE='34'O; /*Make it a SEEK                     */

   1799  2 000653   340000 236003                    LDQ     114688,DU
         2 000654   400000 752140                    STCQ    0,'40'O,PR4

      277     1800    2                 EF_DCWS.DCW0.CONT='1'B;   /*with continue                       */

   1800  2 000655   020000 236007                    LDQ     8192,DL
         2 000656   400000 256100                    ORSQ    0,,PR4

      278     1801    2                 EF_DCWS.DCW1=SKDCW;

   1801  2 000657   000000 236000 xsym               LDQ     SKDCW
         2 000660   400001 756100                    STQ     1,,PR4
PL6.E3A0      #001=DOIOX File=ISI$IOPROC.:E05TSI                                 TUE 07/29/97 22:51 Page:40

      279     1802    2               END;                        /* THEN                               */

   1795  2 000661                       R_DODCWAD    null
      280     1803    1             ELSE;
      281     1804    1   R_DODCWAD: ;
      282     1805        /*  Clear STATUS WORDS */
      283     1806    1           MBX.STATUS='0'B;

   1806  2 000661   200024 470500                    LDP0    MAILBOX$,,AUTO
         2 000662   000100 100400                    MLR     fill='000'O
         2 000663   000002 000001 xsym               ADSC9   B_VECTNIL+2              cn=0,n=1
         2 000664   000010 000040                    ADSC9   8,,PR0                   cn=0,n=32

      284     1807    1           MBX.CHN_LINK.SYNC='0'B;         /* Reset SYNC                         */

   1807  2 000665   200024 470500                    LDP0    MAILBOX$,,AUTO
         2 000666   000011 236000 3                  LDQ     9
         2 000667   000006 356100                    ANSQ    6,,PR0

      285     1808    1           LOGIC_CHAN=128*DEVINFO.IOM#(INDX)+DEVINFO.CHN#(INDX)+8;

   1808  2 000670   200003 470500                    LDP0    @INDX,,AUTO
         2 000671   000000 236100                    LDQ     0,,PR0
         2 000672   000006 402007                    MPY     6,DL
         2 000673   000000 620006                    EAX0    0,QL
         2 000674   000001 736000                    QLS     1
         2 000675   000000 236006 xsym               LDQ     DEVINFO,QL
         2 000676   000033 772000                    QRL     27
         2 000677   200030 756100                    STQ     LOGIC_CHAN+2,,AUTO
         2 000700   000000 635010                    EAA     0,X0
         2 000701   000021 771000                    ARL     17
         2 000702   000000 236005 xsym               LDQ     DEVINFO,AL
         2 000703   000014 772000                    QRL     12
         2 000704   000600 376007                    ANQ     384,DL
         2 000705   200030 036100                    ADLQ    LOGIC_CHAN+2,,AUTO
         2 000706   000010 036007                    ADLQ    8,DL
PL6.E3A0      #001=DOIOX File=ISI$IOPROC.:E05TSI                                 TUE 07/29/97 22:51 Page:41
         2 000707   200026 756100                    STQ     LOGIC_CHAN,,AUTO

      286     1809    1           CALL START_IO_RPM(LOGIC_CHAN,MAILBOX$);

   1809  2 000710   200024 631500                    EPPR1   MAILBOX$,,AUTO
         2 000711   200031 451500                    STP1    LOGIC_CHAN+3,,AUTO
         2 000712   200026 633500                    EPPR3   LOGIC_CHAN,,AUTO
         2 000713   200030 453500                    STP3    LOGIC_CHAN+2,,AUTO
         2 000714   200030 630500                    EPPR0   LOGIC_CHAN+2,,AUTO
         2 000715   000020 631400 xsym               EPPR1   B_VECTNIL+16
         2 000716   000000 701000 xent               TSX1    START_IO_RPM
         2 000717   000000 011000                    NOP     0

      287     1810    2           IF ADDR(TIME_OUT)~=ADDR(NIL) THEN DO; /* TIMEOUT required             */

   1810  2 000720   200005 236100                    LDQ     @TIME_OUT,,AUTO
         2 000721   000001 116000 xsym               CMPQ    B_VECTNIL+1
         2 000722   000737 600000 2                  TZE     s:1819

      288     1811    2                 INT_TIME=TIME_OUT;

   1811  2 000723   200005 470500                    LDP0    @TIME_OUT,,AUTO
         2 000724   000000 235100                    LDA     0,,PR0
         2 000725   200012 755100                    STA     INT_TIME,,AUTO

      289     1812    3                 DO UNTIL INT_TIME=0;

      290     1813    3                   INT_TIME=INT_TIME-1;

   1813  2 000726   200012 235100                    LDA     INT_TIME,,AUTO
         2 000727   000001 135007                    SBLA    1,DL
         2 000730   200012 755100                    STA     INT_TIME,,AUTO

      291     1814    3                   IF MBX.STATUS.W8.TBIT THEN GOTO R_IOTERM;

   1814  2 000731   200024 470500                    LDP0    MAILBOX$,,AUTO
         2 000732   000010 234100                    SZN     8,,PR0
PL6.E3A0      #001=DOIOX File=ISI$IOPROC.:E05TSI                                 TUE 07/29/97 22:51 Page:42
         2 000733   000760 604000 2                  TMI     R_IOTERM

      292     1815    3                 END;

   1815  2 000734   000000 115003                    CMPA    0,DU
         2 000735   000726 601000 2                  TNZ     s:1813

      293     1816    2                 GOTO R_IODONE;

   1816  2 000736   000764 710000 2                  TRA     R_IODONE

      294     1817    2               END;
      295     1818    1             ELSE
      296     1819    2             IF INDX = 0 THEN DO;

   1819  2 000737   200003 470500                    LDP0    @INDX,,AUTO
         2 000740   000000 235100                    LDA     0,,PR0
         2 000741   000755 601000 2                  TNZ     s:1828

      297     1820    2                   INT_TIME = 36000000;

   1820  2 000742   000012 235000 3                  LDA     10
         2 000743   200012 755100                    STA     INT_TIME,,AUTO

      298     1821    3                   DO UNTIL INT_TIME = 0;

      299     1822    3                     INT_TIME = INT_TIME-1;

   1822  2 000744   200012 235100                    LDA     INT_TIME,,AUTO
         2 000745   000001 135007                    SBLA    1,DL
         2 000746   200012 755100                    STA     INT_TIME,,AUTO

      300     1823    3                     IF MBX.STATUS.W8.TBIT THEN GOTO R_IOTERM;

   1823  2 000747   200024 470500                    LDP0    MAILBOX$,,AUTO
         2 000750   000010 234100                    SZN     8,,PR0
         2 000751   000760 604000 2                  TMI     R_IOTERM
PL6.E3A0      #001=DOIOX File=ISI$IOPROC.:E05TSI                                 TUE 07/29/97 22:51 Page:43

      301     1824    3                   END;

   1824  2 000752   000000 115003                    CMPA    0,DU
         2 000753   000744 601000 2                  TNZ     s:1822

      302     1825    2                   GOTO R_DODCWAD;

   1825  2 000754   000661 710000 2                  TRA     R_DODCWAD

      303     1826    2                 END;
      304     1827    2               ELSE DO UNTIL MBX.STATUS.W8.TBIT='1'B;

      305     1828    2                 END;

   1828  2 000755   200024 470500                    LDP0    MAILBOX$,,AUTO
         2 000756   000010 234100                    SZN     8,,PR0
         2 000757   000755 605000 2                  TPL     s:1828

   1827  2 000760                       R_IOTERM     null
      306     1829    1   R_IOTERM:;
      307     1830    2           DO UNTIL MBX.CHN_LINK.SYNC='1'B;

      308     1831    2           END;

   1831  2 000760   200024 470500                    LDP0    MAILBOX$,,AUTO
         2 000761   000006 236100                    LDQ     6,,PR0
         2 000762   000400 316007                    CANQ    256,DL
         2 000763   000760 600000 2                  TZE     R_IOTERM

   1830  2 000764                       R_IODONE     null
      309     1832    1   R_IODONE:;
      310     1833    1           MBX.CHN_LINK.SYNC='0'B;

   1833  2 000764   000011 236000 3                  LDQ     9
         2 000765   000006 356100                    ANSQ    6,,PR0

PL6.E3A0      #001=DOIOX File=ISI$IOPROC.:E05TSI                                 TUE 07/29/97 22:51 Page:44
      311     1834    1           CALL CLEAR_CACHE;

   1834  2 000766   000002 631400 xsym               EPPR1   B_VECTNIL+2
         2 000767   000000 701000 xent               TSX1    CLEAR_CACHE
         2 000770   000000 011000                    NOP     0

      312     1835        /*  Move STATUS in DEVINFO */
      313     1836    1           DEVINFO.BSTAT.W1(INDX)=MBX.STATUS.W8;

   1836  2 000771   200003 470500                    LDP0    @INDX,,AUTO
         2 000772   000000 236100                    LDQ     0,,PR0
         2 000773   000006 402007                    MPY     6,DL
         2 000774   000001 736000                    QLS     1
         2 000775   200024 471500                    LDP1    MAILBOX$,,AUTO
         2 000776   000000 620006                    EAX0    0,QL
         2 000777   100010 236100                    LDQ     8,,PR1
         2 001000   000004 756010 xsym               STQ     DEVINFO+4,X0

      314     1837    1           DEVINFO.BSTAT.W2(INDX)=MBX.STATUS.W11;

   1837  2 001001   000000 236100                    LDQ     0,,PR0
         2 001002   000006 402007                    MPY     6,DL
         2 001003   000001 736000                    QLS     1
         2 001004   000000 620006                    EAX0    0,QL
         2 001005   100013 236100                    LDQ     11,,PR1
         2 001006   000005 756010 xsym               STQ     DEVINFO+5,X0

      315     1838    1           RETURN;

   1838  2 001007   000000 702200 xent               TSX2  ! X66_ARET
      316     1839    1   END DOIOX;
      317     1840        /**/
      318     1841        %EJECT;
PL6.E3A0      #001=DOIOX File=ISI$IOPROC.:E05TSI                                 TUE 07/29/97 22:51 Page:45
      319     1842        %EOD;

PL6.E3A0      #001=DOIOX File=ISI$IOPROC.:E05TSI                                 TUE 07/29/97 22:51 Page:46
--  Include file information  --

   IS$MACROS.:E05TOU  is referenced.
      No diagnostics issued in procedure DOIOX.
PL6.E3A0      #001=DOIOX File=ISI$IOPROC.:E05TSI                                 TUE 07/29/97 22:51 Page:47

 **** Variables and constants ****

  ****  Section 000  Data  DOIOX

  ****  Scalars and arrays  ****
OctLoc.c.b A Datatyp(siz) R M Lvl/name                 OctLoc.c.b A Datatyp(siz) R M Lvl/name

     0-0-0/w PTR         r     1 CON$                       0-0-0/w STRC        r     1 CON_PTR
     2-0-0/w PTR         r     1 DCW$                       2-0-0/w STRC        r     1 DCW_PTR
     3-0-0/w PTR         r     1 IMW$                       3-0-0/w STRC        r     1 IMW_PTR
     1-0-0/w PTR         r     1 PAYLD$                     1-0-0/w STRC        r     1 PAYLD_PTR
    10-0-0/b BIT         r     1 PSI_FLG                    4-0-0/w BIT         r     1 SIDCW
     5-0-0/w BIT         r     1 SIDCW1                     6-0-0/w BIT         r     1 SIDCW2
     7-0-0/w BIT         r     1 SIDCW3

  ****  Auto variables  ****

  ****  Scalars and arrays  ****
OctLoc.c.b A Datatyp(siz) R M Lvl/name                 OctLoc.c.b A Datatyp(siz) R M Lvl/name

     4-0-0/w PTR         r     1 @COMMAND$                  3-0-0/w PTR         r     1 @INDX
     6-0-0/w PTR         r     1 @L                         5-0-0/w PTR         r     1 @TIME_OUT
     7-0-0/w PTR         r     1 CHAN$                     *0-0-0/w PTR         r     1 COMMAND$
    25-0-0/w PTR         r     1 EF_DCWS$                  23-0-0/w UBIN        r     1 I
    *0-0-0/w UBIN        r     1 INDX                      11-0-0/w PTR         r     1 INT_IDCW$
    12-0-0/w UBIN        r     1 INT_TIME                  *0-0-0/w UBIN        r     1 L
    26-0-0/w UBIN        r     1 LOGIC_CHAN                24-0-0/w PTR         r     1 MAILBOX$
    22-0-0/w UBIN        r     1 PORT#                     14-0-0/d STRC(72)    r     1 SAVE_CONMBOX
    16-0-0/w BIT         r     1 SAVE_PMBOX(0:3)
    *0-0-0/w UBIN        r     1 TIME_OUT

  ****  SYMREF variables  ****

  ****  Scalars and arrays  ****
OctLoc.c.b A Datatyp(siz) R M Lvl/name                 OctLoc.c.b A Datatyp(siz) R M Lvl/name

     0-0-0/b BIT         r     1 ADDREXT                    0-0-0/b BIT         r     1 ADDREXT1
PL6.E3A0      #001=DOIOX File=ISI$IOPROC.:E05TSI                                 TUE 07/29/97 22:51 Page:48
     0-0-0/d STRC(396)   r     1 DEVINFO(0:21)              0-0-0/b BIT         r     1 DISK_FLG
     0-0-0/w PTR         r     1 I$CHAIN$                   0-0-0/w UBIN        r     1 IMWBASE
     0-0-0/w STRC        r     1 IOMTAB(0:3)                0-0-0/c CHAR(1024)  r     1 POBUF
     0-0-0/b BIT         r     1 RD_FW_FLG                  0-0-0/b BIT         r     1 RPM_FLG
     0-0-0/b BIT         r     1 SKDCW                      0-0-0/b BIT         r     1 SKIDCW

  ****  BASED and DCB variables  ****

  ****  Scalars and arrays  ****
OctLoc.c.b A Datatyp(siz) R M Lvl/name                 OctLoc.c.b A Datatyp(siz) R M Lvl/name

     0-0-0/w STRC(144)   r     1 CMBOX                      0-0-0/w STRC(72)    r     1 COMZONE
     0-0-0/w STRC        r     1 DCW                        0-0-0/w STRC(144)   r     1 EF_DCWS
     0-0-0/w STRC        r     1 IDCW                       0-0-0/b BIT         r     1 IMWCEL(0:31)
     0-0-0/w STRC(864)   r     1 MBX                        0-0-0/c CHAR(1024)  r     1 USBUF


   Procedure DOIOX requires 520 words for executable code.
   Procedure DOIOX requires 26 words of local(AUTO) storage.
PL6.E3A0      #001=DOIOX File=ISI$IOPROC.:E05TSI                                 TUE 07/29/97 22:51 Page:49
          *** CROSS REFERENCE LISTING ***
**     DENOTES     IDENTIFIER DEFINITION
<<                 IDENTIFIER'S VALUE SET
>>                 IDENTIFIER'S VALUE USED
<>                 IDENTIFIER SET AND/OR USED
--                 IDENTIFIER REFERENCED
PL6.E3A0      #001=DOIOX File=ISI$IOPROC.:E05TSI                                 TUE 07/29/97 22:51 Page:50
          MINI XREF LISTING

ADDREXT
      1536**DCL      1656>>IF       1658<<ASSIGN
ADDREXT1
      1537**DCL      1752>>IF       1753<<ASSIGN
CHAN$
      1509**DCL      1407--IMP-PTR  1643<<ASSIGN   1644>>IF       1646>>ASSIGN   1649>>IF       1665>>ASSIGN
      1666>>ASSIGN   1668>>ASSIGN   1669>>ASSIGN   1670>>ASSIGN   1671>>ASSIGN   1673<<ASSIGN   1674>>ASSIGN
      1675>>ASSIGN   1676>>ASSIGN   1677>>ASSIGN   1678>>ASSIGN   1679>>ASSIGN   1717>>ASSIGN   1718>>ASSIGN
      1730<<ASSIGN   1732>>DOUNTIL  1759<<ASSIGN   1760>>ASSIGN   1761>>ASSIGN   1762<<ASSIGN   1763>>ASSIGN
CLEAR_CACHE
      1299**DCL-ENT  1751--CALL     1834--CALL
CMBOX
      1407**DCL      1674>>ASSIGN   1763<<ASSIGN
CMBOX.LPW$
      1418**DCL      1668<<ASSIGN   1717<<ASSIGN
CMBOX.SCW$
      1425**DCL      1675<<ASSIGN
CMBOX.W1
      1408**DCL      1418--REDEF    1665>>ASSIGN   1760<<ASSIGN
CMBOX.W1.H2.TAL
      1415**DCL      1669<<ASSIGN
CMBOX.W1.H2.TALLY
      1417**DCL      1649>>IF       1670<<ASSIGN   1718<<ASSIGN   1732>>DOUNTIL
CMBOX.W2
      1419**DCL      1666>>ASSIGN   1761<<ASSIGN
CMBOX.W2.H1
      1420**DCL      1677<<ASSIGN
CMBOX.W2.H2
      1421**DCL      1671<<ASSIGN   1678<<ASSIGN
CMBOX.W3
      1422**DCL      1425--REDEF
CMBOX.W3.H2
PL6.E3A0      #001=DOIOX File=ISI$IOPROC.:E05TSI                                 TUE 07/29/97 22:51 Page:51
      1424**DCL      1676<<ASSIGN
CMBOX.W4
      1426**DCL      1429--REDEF    1644>>IF       1646<<ASSIGN   1679<<ASSIGN
COMMAND$
      1294**DCL         7--PROC     1514--IMP-PTR  1635--ENTRY    1637>>ASSIGN   1680>>ASSIGN   1778>>ASSIGN
      1782>>ASSIGN
COMZONE.DCW
      1516**DCL      1680--ASSIGN   1778--ASSIGN
COMZONE.IDCW$
      1515**DCL      1637>>ASSIGN   1782>>ASSIGN
CON$
      1450**DCL      1643>>ASSIGN   1730>>ASSIGN   1759>>ASSIGN
CON_PTR
      1443**DCL      1450--REDEF
CON_PTR.WOFFS
      1444**DCL      1641<<ASSIGN
DCW
      1398**DCL      1695>>ASSIGN   1782>>ASSIGN   1786>>ASSIGN
DCW.AD
      1399**DCL      1683>>ASSIGN   1780>>ASSIGN
DCW.TALLY
      1403**DCL      1702<<ASSIGN   1793<<ASSIGN
DCW.TYPE
      1402**DCL      1682>>IF       1703<<ASSIGN   1779>>DOWHILE  1794<<ASSIGN
DCW$
      1488**DCL      1398--IMP-PTR  1680<<ASSIGN   1682>>IF       1683>>ASSIGN   1695>>ASSIGN   1701<<ASSIGN
      1702>>ASSIGN   1703>>ASSIGN   1714<<ASSIGN   1717>>ASSIGN   1778<<ASSIGN   1779>>DOWHILE  1780>>ASSIGN
      1786>>ASSIGN   1792<<ASSIGN   1793>>ASSIGN   1794>>ASSIGN
DCW_PTR
      1481**DCL      1488--REDEF    1700>>ASSIGN   1791>>ASSIGN
DCW_PTR.WOFFS
      1482**DCL      1683<<ASSIGN   1780<<ASSIGN
DEVINFO.BSTAT.W1
      1355**DCL      1836<<ASSIGN
DEVINFO.BSTAT.W2
      1358**DCL      1837<<ASSIGN
PL6.E3A0      #001=DOIOX File=ISI$IOPROC.:E05TSI                                 TUE 07/29/97 22:51 Page:52
DEVINFO.CHN#
      1314**DCL      1639>>ASSIGN   1662>>ASSIGN   1720>>ASSIGN   1808>>ASSIGN
DEVINFO.DEV#
      1315**DCL      1661>>ASSIGN   1783>>ASSIGN
DEVINFO.IOM#
      1316**DCL      1639>>ASSIGN   1641>>ASSIGN   1722>>ASSIGN   1725>>ASSIGN   1728>>ASSIGN   1808>>ASSIGN
DEVINFO.PCWS
      1318**DCL      1329--REDEF
DEVINFO.PCWS.PCW1
      1319**DCL      1668--ASSIGN   1689>>ASSIGN   1692<<ASSIGN
DEVINFO.PCWS.PCW1.ADEXT
      1322**DCL      1659<<ASSIGN   1690>>IF
DEVINFO.PCWS.PCW1.CHINFO1
      1320**DCL      1653<<ASSIGN
DEVINFO.PCWS.PCW1.CHINFO2
      1325**DCL      1654<<ASSIGN
DEVINFO.PCWS.PCW1.DEV#
      1321**DCL      1661<<ASSIGN
DEVINFO.PCWS.PCW1.M
      1324**DCL      1655<<ASSIGN
DEVINFO.PCWS.PCW1.PCWID
      1323**DCL      1693<<ASSIGN
DEVINFO.PCWS.PCW2.CHN#
      1327**DCL      1662<<ASSIGN
DEVINFO.RPM_PTRS.EF_DCWS$
      1331**DCL      1332--REDEF    1777>>ASSIGN
DEVINFO.RPM_PTRS.EF_DCWS_PTR.WOFFS
      1333**DCL      1776>>ASSIGN
DEVINFO.RPM_PTRS.MBX$
      1330**DCL      1774>>ASSIGN
DEVINFO.STATUS
      1335**DCL      1354--REDEF    1675--ASSIGN   1719<<ASSIGN
DEVINFO.STATUS.TBIT
      1336**DCL      1738>>IF       1743>>DOUNTIL
DISK_FLG
      1539**DCL      1704>>IF       1795>>IF
PL6.E3A0      #001=DOIOX File=ISI$IOPROC.:E05TSI                                 TUE 07/29/97 22:51 Page:53
DODCWAD
      1704**LABEL    1696--GOTO
DOIO_RPM
      1764**LABEL    1636--GOTO
EF_DCWS.DCW0
      1619**DCL      1782<<ASSIGN   1797>>ASSIGN
EF_DCWS.DCW0.CONT
      1625**DCL      1800<<ASSIGN
EF_DCWS.DCW0.DEV#
      1621**DCL      1783<<ASSIGN
EF_DCWS.DCW0.OPCODE
      1620**DCL      1799<<ASSIGN
EF_DCWS.DCW0.TYPE
      1623**DCL      1784<<ASSIGN
EF_DCWS.DCW1
      1628**DCL      1786<<ASSIGN   1791<<ASSIGN   1792--ASSIGN   1798>>ASSIGN   1801<<ASSIGN
EF_DCWS.DCW2
      1629**DCL      1797<<ASSIGN
EF_DCWS.DCW3
      1630**DCL      1798<<ASSIGN
EF_DCWS$
      1614**DCL      1618--IMP-PTR  1777<<ASSIGN   1782>>ASSIGN   1783>>ASSIGN   1784>>ASSIGN   1786>>ASSIGN
      1791>>ASSIGN   1792>>ASSIGN   1797>>ASSIGN   1797>>ASSIGN   1798>>ASSIGN   1798>>ASSIGN   1799>>ASSIGN
      1800>>ASSIGN   1801>>ASSIGN
FIND_DCW
      1680**LABEL    1684--GOTO
I
      1549**DCL      1650<<DOINDEX  1720<<ASSIGN   1721>>IF       1724<<ASSIGN   1724>>ASSIGN   1727>>ASSIGN
      1747>>DOUNTIL  1749>>ASSIGN
I$CHAIN$
      1543**DCL      1755>>ASSIGN
IDCW.CHINFO1
      1518**DCL      1653>>ASSIGN
IDCW.CHINFO2
      1523**DCL      1654>>ASSIGN
IMW$
PL6.E3A0      #001=DOIOX File=ISI$IOPROC.:E05TSI                                 TUE 07/29/97 22:51 Page:54
      1507**DCL      1528--IMP-PTR  1727>>ASSIGN   1747>>DOUNTIL  1749>>ASSIGN
IMWBASE
      1542**DCL      1722>>ASSIGN   1725>>ASSIGN
IMWCEL
      1528**DCL      1727<<ASSIGN   1747>>DOUNTIL  1749<<ASSIGN
IMW_PTR
      1500**DCL      1507--REDEF
IMW_PTR.WOFFS
      1501**DCL      1722<<ASSIGN   1725<<ASSIGN
INDX
      1293**DCL         7--PROC     1635--ENTRY    1639>>ASSIGN   1639>>ASSIGN   1641>>ASSIGN   1653>>ASSIGN
      1654>>ASSIGN   1655>>ASSIGN   1659>>ASSIGN   1661>>ASSIGN   1661>>ASSIGN   1662>>ASSIGN   1662>>ASSIGN
      1668>>ASSIGN   1675>>ASSIGN   1689>>ASSIGN   1690>>IF       1692>>ASSIGN   1693>>ASSIGN   1719>>ASSIGN
      1720>>ASSIGN   1722>>ASSIGN   1725>>ASSIGN   1728>>ASSIGN   1738>>IF       1743>>DOUNTIL  1774>>ASSIGN
      1776>>ASSIGN   1777>>ASSIGN   1783>>ASSIGN   1808>>ASSIGN   1808>>ASSIGN   1819>>IF       1836>>ASSIGN
      1837>>ASSIGN
INT_IDCW$
      1511**DCL      1517--IMP-PTR  1637<<ASSIGN   1653>>ASSIGN   1654>>ASSIGN
INT_TIME
      1513**DCL      1735<<ASSIGN   1736>>DOUNTIL  1737<<ASSIGN   1737>>ASSIGN   1811<<ASSIGN   1812>>DOUNTIL
      1813<<ASSIGN   1813>>ASSIGN   1820<<ASSIGN   1821>>DOUNTIL  1822<<ASSIGN   1822>>ASSIGN
IODONE
      1749**LABEL    1741--GOTO
IOMTAB.MAILBAD
      1383**DCL      1639>>ASSIGN   1641>>ASSIGN
IOMTAB.PORT#
      1385**DCL      1728>>ASSIGN
IOTERM
      1742**LABEL    1738--GOTO
L
      1296**DCL         7--PROC     1635--ENTRY    1755>>ASSIGN   1755>>ASSIGN
LOGIC_CHAN
      1616**DCL      1808<<ASSIGN   1809<>CALL
MAILBOX$
      1613**DCL      1567--IMP-PTR  1774<<ASSIGN   1776>>ASSIGN   1806>>ASSIGN   1807>>ASSIGN   1809<>CALL
      1814>>IF       1823>>IF       1827>>DOUNTIL  1830>>DOUNTIL  1833>>ASSIGN   1836>>ASSIGN   1837>>ASSIGN
PL6.E3A0      #001=DOIOX File=ISI$IOPROC.:E05TSI                                 TUE 07/29/97 22:51 Page:55
MBX.CHN_LINK.SYNC
      1580**DCL      1807<<ASSIGN   1830>>DOUNTIL  1833<<ASSIGN
MBX.LPW.DCW_ADDR
      1587**DCL      1776<<ASSIGN
MBX.STATUS
      1596**DCL      1806<<ASSIGN
MBX.STATUS.W11
      1605**DCL      1837>>ASSIGN
MBX.STATUS.W8
      1597**DCL      1600--REDEF    1836>>ASSIGN
MBX.STATUS.W8.TBIT
      1598**DCL      1814>>IF       1823>>IF       1827>>DOUNTIL
PAYLD$
      1469**DCL      1673>>ASSIGN   1762>>ASSIGN
PAYLD_PTR
      1462**DCL      1469--REDEF
PAYLD_PTR.WOFFS
      1463**DCL      1639<<ASSIGN
POBUF
      1544**DCL      1755>>ASSIGN
PORT#
      1548**DCL      1728<<ASSIGN   1729<>CALL
PSI_FLG
      1547**DCL      1634<<ASSIGN   1687>>IF       1688<<ASSIGN   1764<<ASSIGN
RD_FW_FLG
      1538**DCL      1694>>IF       1785>>IF
RPM_FLG
      1631**DCL      1636>>IF
R_DODCWAD
      1795**LABEL    1787--GOTO     1825--GOTO
R_IODONE
      1830**LABEL    1816--GOTO
R_IOTERM
      1827**LABEL    1814--GOTO     1823--GOTO
SAVE_CONMBOX.W1
      1525**DCL      1665<<ASSIGN   1760>>ASSIGN
PL6.E3A0      #001=DOIOX File=ISI$IOPROC.:E05TSI                                 TUE 07/29/97 22:51 Page:56
SAVE_CONMBOX.W2
      1526**DCL      1666<<ASSIGN   1761>>ASSIGN
SAVE_PMBOX
      1527**DCL      1674<<ASSIGN   1763>>ASSIGN
SIDCW
      1531**DCL      1689<<ASSIGN   1691<<ASSIGN   1691>>ASSIGN   1706>>ASSIGN   1708<<ASSIGN   1708>>ASSIGN
      1714--ASSIGN
SIDCW1
      1532**DCL      1695<<ASSIGN   1700<<ASSIGN   1701--ASSIGN   1707>>ASSIGN   1710<<ASSIGN
SIDCW2
      1533**DCL      1706<<ASSIGN
SIDCW3
      1534**DCL      1707<<ASSIGN
SKDCW
      1541**DCL      1710>>ASSIGN   1801>>ASSIGN
SKIDCW
      1540**DCL      1708>>ASSIGN
START_IO
      1298**DCL-ENT  1729--CALL
START_IO_RPM
      1554**DCL-ENT  1809--CALL
TIME_OUT
      1295**DCL         7--PROC     1635--ENTRY    1734--IF       1735>>ASSIGN   1810--IF       1811>>ASSIGN
USBUF
      1545**DCL      1755<<ASSIGN
WT_TIME
      1300**DCL-ENT  1647--CALL

PL6.E3A0      #002=PUSSYCAT_PL6 File=ISI$IOPROC.:E05TSI                          TUE 07/29/97 22:52 Page:57
      320        1        /*T***********************************************************/
      321        2        /*T*                                                         */
      322        3        /*T* Copyright (c) Bull HN Information Systems Inc., 1997    */
      323        4        /*T*                                                         */
      324        5        /*T***********************************************************/
      325        6        /**/
      326        7        PUSSYCAT_PL6:PROC ALTRET;
      327        8        /* This procedure gets AARDVARK configuration */
      328        9        %INCLUDE IS$MACROS;
      329     1284        %DEVINFO(STCLASS="SYMREF");
      330     1353        %IOM_TAB(NAME=IOMTAB,STCLASS="SYMREF");
      331     1370        %CONNECT_TAB(NAME=CONNECT_TABLE,STCLASS="SYMREF");
      332     1390        %DOIO_COMZONE(NAME=OCZONE);
      333     1423        /**/
      334     1424    1   DCL IMWBASE STATIC SYMDEF UBIN WORD INIT(0);
      335     1425    1   DCL TYPEBI BIT(36) STATIC SYMDEF INIT('510000000001'O); /* Write alert        */
      336     1426    1   DCL URCHN STATIC SYMDEF UBIN WORD INIT(24); /* UR base chann                  */
      337     1427    1   DCL FEPIOM STATIC SYMDEF UBIN WORD INIT(0); /* FEP IOM                        */
      338     1428    1   DCL FEPCHAN STATIC SYMDEF UBIN WORD INIT(33); /* FEP Chann                    */
      339     1429    1   DCL MDELTAFLG STATIC SYMDEF UBIN WORD INIT(0); /* Flag for MDELTA call        */
      340     1430    1   DCL 1 BOOTINFO STATIC SYMDEF ALIGNED,
      341     1431    1         2 BCHN UBIN(9) UNAL INIT(0),
      342     1432    1         2 * BIT(24),
      343     1433    1         2 BPORT# UBIN(3) UNAL INIT(0),
      344     1434    1         2 BIOMAD UBIN(18) UNAL INIT(0),
      345     1435    1         2 BIMWAD UBIN(13) UNAL INIT(0),
      346     1436    1         2 * BIT(3),
      347     1437    1         2 BIOM# UBIN(2) UNAL INIT(0);
      348     1438    1   DCL 1 RPM_BOOTIN SYMREF,
      349     1439    1         2 * BIT(9),
      350     1440    1         2 CHN# UBIN(9) UNAL,
      351     1441    1         2 * BIT (7),
      352     1442    1         2 IMX# UBIN(2) UNAL,
      353     1443    1         2 * BIT (9);
      354     1444    1   DCL 1 RPM_BOOT_IDCW SYMREF,
      355     1445    1         2 * BIT(6),
      356     1446    1         2 DEV# UBIN(6) UNAL,
PL6.E3A0      #002=PUSSYCAT_PL6 File=ISI$IOPROC.:E05TSI                          TUE 07/29/97 22:52 Page:58
      357     1447    1         2 * BIT(24) UNAL;
      358     1448    1   DCL 1 ORDBFLG SYMREF,
      359     1449    1         2 ORF BIT(1),
      360     1450    1         2 DBF BIT(1);
      361     1451    1   DCL 1 RCV_FLG SYMREF,
      362     1452    1         2 RC BIT(1),
      363     1453    1         2 DB BIT(1),
      364     1454    1         2 RBD BIT(1),
      365     1455    1         2 RBO BIT(1);
      366     1456    1   DCL VOFLG BIT(1) SYMREF;
      367     1457    1   DCL 1 ADPXF SYMREF,
      368     1458    1         2 A BIT(1),
      369     1459    1         2 D BIT(1),
      370     1460    1         2 P BIT(1),
      371     1461    1         2 X BIT(1),
      372     1462    1         2 F BIT(1);
      373     1463        /**/
      374     1464    1   DCL BOOTTAPE UBIN WORD SYMREF;
      375     1465    1   DCL FW_LOAD(0:511) BIT(1) UNAL SYMREF;
      376     1466    1   DCL TIGRPA BIT(1) SYMREF;
      377     1467    1   DCL MONPA BIT(1) SYMREF;
      378     1468    1   DCL RUMPA BIT(1) SYMREF;
      379     1469    1   DCL PLVPA BIT(1) SYMREF;
      380     1470    1   DCL SILENT BIT(1) STATIC SYMDEF INIT('0'B); /* Write FW names                 */
      381     1471    1   DCL MESSAGE CHAR(80) SYMREF;
      382     1472    1   DCL MESSAGE_CNT UBIN SYMREF;
      383     1473    1   DCL CONS_DCWS BIT(1) SYMREF;            /* Console DCWs on RPM                */
      384     1474        %IMX_MBX(NAME=CONS_MBX,STCLASS="SYMREF"); /* Cons MAILBOX on an RPM           */
      385     1531        %IMX_MBX(NAME=SH_MBX,STCLASS="SYMREF"); /* Shared MAILBOX on an RPM           */
      386     1588        %IMX_MBX(NAME=PATT_MBX,STCLASS="SYMREF"); /* Mailbox Pattern                  */
      387     1645        %MCA_CFG(STCLASS="SYMREF");
      388     1755    1   DCL   RPM_CONSOLE SBIN WORD SYMREF;
      389     1756    1   DCL RPM_FLG BIT(1) SYMREF;
      390     1757    1   DCL S1000_FLG BIT(1) SYMREF;
      391     1758    1   DCL SH_DCWS BIT(1) SYMREF;              /* Shared DCWs on RPM                 */
      392     1759    1   DCL   HIGHEST_CHAN UBIN WORD;
      393     1760    1   DCL 1 B_VERSION CALIGNED SYMREF,
PL6.E3A0      #002=PUSSYCAT_PL6 File=ISI$IOPROC.:E05TSI                          TUE 07/29/97 22:52 Page:59
      394     1761    1         2 L UBIN BYTE UNAL,
      395     1762    1         2 C CHAR(B_VERSION.L);
      396     1763    1   DCL 1 CONS_INFO SYMREF,
      397     1764    1         2 * BIT(6),
      398     1765    1         2 PORT# UBIN(3) UNAL,
      399     1766    1         2 IOM# UBIN(3) UNAL,
      400     1767    1         2 CHN# UBIN(6) UNAL;
      401     1768    1   DCL 1 ANSBUF SYMREF,
      402     1769    1         2 CNT UBIN WORD,
      403     1770    1         2 TXT CHAR(16);
      404     1771    1   DCL 1 TEXTM BASED(MESSAGE$),
      405     1772    1         2 CNT UBIN WORD,
      406     1773    1         2 TXT CHAR(TEXTM.CNT);
      407     1774    1   DCL MESSAGE$ PTR;
      408     1775    1   DCL FIELD$ PTR SYMREF;                  /* Result from GETFD                  */
      409     1776    1   DCL FIELD_LEN UBIN WORD SYMREF;         /* Result from GETFD                  */
      410     1777    1   DCL DECIM_FLG BIT(1) SYMREF;            /* Result from GETFD                  */
      411     1778    1   DCL ALPHA_FLG BIT(1) SYMREF;            /* Result from GETFD                  */
      412     1779    1   DCL HIPAGE UBIN WORD SYMREF;
      413     1780    1   DCL GAP_SZ UBIN WORD SYMREF;
      414     1781    1   DCL 1 LOWER_SCU SYMREF,
      415     1782    1         2 LOW_BND UBIN WORD,
      416     1783    1         2 UPP_BND UBIN WORD;
      417     1784    1   DCL 1 UPPER_SCU SYMREF,
      418     1785    1         2 LOW_BND UBIN WORD,
      419     1786    1         2 UPP_BND UBIN WORD;
      420     1787    1   DCL IS_CFG_TYPE UBIN SYMREF;
      421     1788    1   DCL IS_PPUT_SIZE UBIN WORD SYMREF;
      422     1789    1   DCL IS_MEM_SIDE1 BIT(1) SYMREF;
      423     1790    1   DCL CHN_CFG(0:511) BIT(1) UNAL SYMREF;
      424     1791        /* Messages */
      425     1792        %TEXTC(N#=TBDBORQ,M#="'TB/DB/OR/VO?'");
      426     1797        %TEXTC(N#=HUHHH,M#="'Consult your System Services Manual for help in booting CP-6'")
              1797            ;
      427     1802        %TEXTC(N#=Q1Q,M#="'Change boot options (Y/N)/(ADPXF)/(? for help)?'");
      428     1807        %TEXTC(N#=Q2Q,M#="'Change boot options (Y/N)/(D)/(? for help)?'");
      429     1812        %TEXTC(N#=CATQU,M#="' URC assignments OK (Y/N)?'");
PL6.E3A0      #002=PUSSYCAT_PL6 File=ISI$IOPROC.:E05TSI                          TUE 07/29/97 22:52 Page:60
      430     1817        %TEXTC(N#=CATQCH,M#="'  URC base channel# = '");
      431     1822        %TEXTC(N#=CATQFEP,M#="' FEP 0-033=FEP'");
      432     1827        %TEXTC(N#=HELPY,M#="'Y-All of the above options.'");
      433     1832        %TEXTC(N#=HELPN,M#="'N-None of the above options.'");
      434     1837        %TEXTC(N#=HELPA,M#="'A-Read AARDVARK patches before continuing.'");
      435     1842        %TEXTC(N#=HELPD,M#="'D-Change default device assignments.'");
      436     1847        %TEXTC(N#=HELPP,M#="'P-Change default patching directions.'");
      437     1852        %TEXTC(N#=HELPX,M#="'X-Retain XDELTA in memory.'");
      438     1857        %TEXTC(N#=HELPF,M#="'F-Read firmware from IFAD tape.'");
      439     1862        %TEXTC(N#=AM2MS,M#="'The memory available to CP-6 is xxxxxx pages.'");
      440     1867        %TEXTC(N#=AM2MS_FIXED,M#="'The memory available to CP-6 is xxxxxx pages.'");
      441     1872        %TEXTC(N#=RCVRM,M#="' Recovery says-HANG LOOSE... '");
      442     1877    1   DCL AARDVARK_NAME CHAR(0) CONSTANT INIT('AARDVARK ');
      443     1878    1   DCL AARDVARK_SERVICE CHAR(0) CONSTANT INIT(' at your service');
      444     1879        /**/
      445     1880    1   DCL TIME_OUT UBIN WORD;
      446     1881    1   DCL   CHG_IOM UBIN WORD;
      447     1882    1   DCL   CHG_CHN UBIN WORD;
      448     1883    1   DCL I UBIN WORD;
      449     1884    1   DCL COMMAND$ PTR;
      450     1885    1   DCL ANS CHAR(16) BASED(FIELD$);
      451     1886    1   DCL 1 BUILT_MES,
      452     1887    1         2 CNT UBIN WORD,
      453     1888    1         2 TXT CHAR(40);
      454     1889        /**/
      455     1890    1   DCL DOIO ENTRY(4);
      456     1891    1   DCL   DO_RPM_CFG ENTRY(1) ALTRET;
      457     1892    1   DCL   DO_SCU_STATE ENTRY(1) ALTRET;
      458     1893    1   DCL  DO_RPM_TIME ENTRY(1) ALTRET;
      459     1894    1   DCL KEYIN ENTRY(2) ALTRET;
      460     1895    1   DCL TYPEC ENTRY(1);
      461     1896    1   DCL UPPER_CASE ENTRY(2);
      462     1897    1   DCL GETFD ENTRY(2) ALTRET;
      463     1898    1   DCL   READ_CONNECT_TABLE ENTRY;
      464     1899        /**/
      465     1900        /** Code **/
      466     1901    1           HIGHEST_CHAN = %HIGH_CHAN;
PL6.E3A0      #002=PUSSYCAT_PL6 File=ISI$IOPROC.:E05TSI                          TUE 07/29/97 22:52 Page:61
      467     1902    2           IF RPM_FLG THEN DO;   /* Fake BOOTINFO and change DEVINFO defaults    */
      468     1903    2                 HIGHEST_CHAN = %HIGH_RPM_CHAN;
      469     1904    2                 BOOTINFO.BCHN=RPM_BOOTIN.CHN#;
      470     1905    2                 BOOTINFO.BIOM#=RPM_BOOTIN.IMX#;
      471     1906    2                 URCHN = 40;
      472     1907    2                 FEPCHAN = 46;
      473     1908    2                 MESSAGE$ = ADDR(CATQFEP);
      474     1909    2                 SUBSTR(TEXTM.TXT,8,2) = '46';
      475     1910    2                 CALL BINCHAR(SUBSTR(TEXTM.TXT,5,1),BOOTINFO.BIOM#);
      476     1911    3                 DO I = %FRSTLP TO %FRSTLP + %LP# -1;
      477     1912    3                   DEVINFO.CHN#(I) = 40;
      478     1913    3                   SUBSTR(DEVINFO.DEVNAME(I),6,2) = '40';
      479     1914    3                 END;
      480     1915    3                 DO I = %FRSTCR TO %FRSTCR + %CR# -1;
      481     1916    3                   DEVINFO.CHN#(I) = 38;
      482     1917    3                   SUBSTR(DEVINFO.DEVNAME(I),6,2) = '38';
      483     1918    3                 END;
      484     1919    3                 DO I = %FRSTDP TO %FRSTDP + %DP# -1;
      485     1920    3                   DEVINFO.CHN#(I) = 64;
      486     1921    3                   SUBSTR(DEVINFO.DEVNAME(I),3,2) = '64';
      487     1922    3                 END;
      488     1923    2               END;
      489     1924        /* Fill device tables with IOM number */
      490     1925    2           DO I=0 TO %DIM-1;
      491     1926    2             DEVINFO.IOM#(I)=BOOTINFO.BIOM#;
      492     1927    2           END;                            /* DO                                 */
      493     1928        /* Fill device table for tapes with channel and
      494     1929                                            device number */
      495     1930    2           DO I=%FRSTMT TO %FRSTDP-1;
      496     1931    2             DEVINFO.CHN#(I)=BOOTINFO.BCHN;
      497     1932    2             DEVINFO.DEV#(I)=I-%FRSTMT;
      498     1933    2           END;                            /* DO                                 */
      499     1934    2           DO I=0 TO %FRSTMT-1;
      500     1935    2             CALL BINCHAR(SUBSTR(DEVINFO.DEVNAME(I),3,1),BOOTINFO.BIOM#);
      501     1936    2           END;                            /* DO                                 */
      502     1937    2           DO I=%FRSTMT TO %DIM-1;
      503     1938    2             CALL BINCHAR(SUBSTR(DEVINFO.DEVNAME(I),0,1),BOOTINFO.BIOM#);
PL6.E3A0      #002=PUSSYCAT_PL6 File=ISI$IOPROC.:E05TSI                          TUE 07/29/97 22:52 Page:62
      504     1939    2           END;                            /* DO                                 */
      505     1940    2           DO I=%FRSTMT TO %FRSTDP-1;
      506     1941    2             CALL BINCHAR(SUBSTR(DEVINFO.DEVNAME(I),2,3),BOOTINFO.BCHN);
      507     1942    2             CALL BINCHAR(SUBSTR(DEVINFO.DEVNAME(I),6,2),(I-%FRSTMT));
      508     1943    2           END;                            /* DO                                 */
      509     1944        /* Fill in MAILBOX and DCWs addr. on an RPM */
      510     1945    2           IF RPM_FLG THEN DO;
      511     1946    2                 CONS_MBX = PATT_MBX;
      512     1947    2                 SH_MBX = PATT_MBX;
      513     1948    2                 DEVINFO.RPM_PTRS.MBX$(0)=ADDR(CONS_MBX);
      514     1949    2                 DEVINFO.RPM_PTRS.EF_DCWS$(0)=ADDR(CONS_DCWS);
      515     1950    3                 DO I=%FRSTLP TO %DIM-1;
      516     1951    3                   DEVINFO.RPM_PTRS.MBX$(I)=ADDR(SH_MBX);
      517     1952    3                   DEVINFO.RPM_PTRS.EF_DCWS$(I)=ADDR(SH_DCWS);
      518     1953    3                 END;                      /* DO I=                              */
      519     1954    2                 I = RPM_BOOTIN.IMX#;
      520     1955    2                 CALL DO_RPM_CFG(I);
      521     1956    2                 IF NOT FW_LOAD(DEVINFO.IOM#(%FRSTMT+BOOTTAPE)*128 + DEVINFO.CHN#(%
              1956                          FRSTMT+BOOTTAPE)) THEN
      522     1957    2                   BOOTTAPE = %FRSTMT + RPM_BOOT_IDCW.DEV#;
      523     1958    2                 IF NOT (CHN_CFG(I *128 +64)) THEN
      524     1959    3                     DO I = %FRSTDP TO %FRSTDP + %DP# -1;
      525     1960    3                       DEVINFO.CHN#(I) = 120;
      526     1961    3                       DEVINFO.DEV#(I) = 0;
      527     1962    3                       SUBSTR(DEVINFO.DEVNAME(I),2,3) = '120';
      528     1963    3                       SUBSTR(DEVINFO.DEVNAME(I),7,1) = '0';
      529     1964    3                     END;
      530     1965    2                 CALL READ_CONNECT_TABLE;
      531     1966    3                 DO I=0 TO 3;
      532     1967    3                   IOMTAB.PORT#(I)=CONNECT_TABLE.ENTRI.SCU_PORT(I);
      533     1968    3                 END;                      /* DO                                 */
      534     1969    2               END;                        /* THEN                               */
      535     1970    2             ELSE DO;
      536     1971        /* Fill in IOMTAB for all IOM's */
      537     1972    3                 DO I=0 TO 3;
      538     1973    3                   IOMTAB.MAILBAD(I)=BOOTINFO.BIOMAD-((BOOTINFO.BIOM#-I)*%MBOXSIZ);
      539     1974    3                   IOMTAB.PORT#(I)=BOOTINFO.BPORT#-(BOOTINFO.BIOM#-I);
PL6.E3A0      #002=PUSSYCAT_PL6 File=ISI$IOPROC.:E05TSI                          TUE 07/29/97 22:52 Page:63
      540     1975    3                 END;                      /* DO                                 */
      541     1976    2                 IMWBASE=BOOTINFO.BIMWAD*32; /* Append 5 bits of 0               */
      542     1977    2               END;                        /* ELSE                               */
      543     1978        /* Find lowest OC channel on OCIOM */
      544     1979    2           IF S1000_FLG='1'B THEN DO; /* On S1000 the console is already known   */
      545     1980    2                 DEVINFO.CHN#(0)=CONS_INFO.CHN#;
      546     1981    2                 DEVINFO.IOM#(0)=CONS_INFO.IOM#;
      547     1982    2               END;                        /* THEN                               */
      548     1983    2             ELSE DO;
      549     1984    3                 IF RPM_FLG AND RPM_CONSOLE ~=-1 THEN DO;
      550     1985    3                       DEVINFO.CHN#(0) = RPM_CONSOLE;
      551     1986    3                     END;
      552     1987    3                   ELSE DO;
      553     1988    4                       DO I=0 TO 300000;   /* Wait a second                      */
      554     1989    4                       END;                /* DO                                 */
      555     1990    3                       TIME_OUT=6*512;
      556     1991    3                       OCZONE.IDCW$=ADDR(TYPEBI);
      557     1992    3                       OCZONE.DCW='0'B;
      558     1993    3                       COMMAND$=ADDR(OCZONE);
      559     1994    3   FINDOC:             ;
      560     1995    4                       DO I=8 TO HIGHEST_CHAN;
      561     1996    4                         DEVINFO.CHN#(0)=I;
      562     1997    4                         CALL DOIO(0,COMMAND$,TIME_OUT);
      563     1998    4                         IF (DEVINFO.BSTAT.W1.H1(0)&'777705'O)='400000'O&
      564     1999    4                           DEVINFO.STATUS.IOM_CHAN_STAT(0)='0'B&DEVINFO.STATUS.
              1999                                    IOM_CENT_STAT(0)='0'B THEN GOTO OCFOUND;
      565     2000    4                           ELSE;
      566     2001    4                       END;                /* DO                                 */
      567     2002        /* OC not found , try again */
      568     2003    3                       GOTO FINDOC;
      569     2004    3                     END;                  /* ELSE                               */
      570     2005    2               END;
      571     2006    1   OCFOUND:;
      572     2007    1           CALL BINCHAR(SUBSTR(DEVINFO.DEVNAME(0),5,3),I);
      573     2008    1           BUILT_MES.TXT = AARDVARK_NAME;
      574     2009    1           SUBSTR(BUILT_MES.TXT,LENGTHC(AARDVARK_NAME),B_VERSION.L) = B_VERSION.C;
      575     2010    1           SUBSTR(BUILT_MES.TXT,B_VERSION.L+LENGTHC(AARDVARK_NAME),LENGTHC(
PL6.E3A0      #002=PUSSYCAT_PL6 File=ISI$IOPROC.:E05TSI                          TUE 07/29/97 22:52 Page:64
              2010                    AARDVARK_SERVICE)) =AARDVARK_SERVICE;
      576     2011    1           BUILT_MES.CNT = LENGTHC(AARDVARK_NAME) + LENGTHC(AARDVARK_SERVICE) +
              2011                    B_VERSION.L ;
      577     2012    1           CALL TYPEC(BUILT_MES);
      578     2013        /* Find out what kind of boot this is to be */
      579     2014    1   TBDBOR:
      580     2015    1           RCV_FLG='0'B;
      581     2016    1           CALL KEYIN(TBDBORQ,ANSBUF);
      582     2017    1           IF SUBSTR(ANSBUF.TXT,0,1)='?'THEN GOTO ITSHELP;
      583     2018    1             ELSE;
      584     2019    1           CALL UPPER_CASE(ANSBUF.TXT,2);
      585     2020    2           DO SELECT(SUBSTR(ANSBUF.TXT,0,2));
      586     2021    2             SELECT('TB');
      587     2022    2             GOTO ITSTB;
      588     2023    2             SELECT('DB');
      589     2024    2             ORDBFLG.DBF='1'B;
      590     2025    2             GOTO Q2;
      591     2026    2             SELECT('OR');
      592     2027    2             ORDBFLG.ORF='1'B;
      593     2028    3             IF RPM_FLG THEN DO;
      594     2029    3                   I = RPM_BOOTIN.IMX#;
      595     2030    3                   CALL DO_RPM_TIME(I);
      596     2031    3                 END;
      597     2032    2             GOTO Q2;
      598     2033    2             SELECT('VO');
      599     2034    2             VOFLG='1'B;
      600     2035    2             GOTO ITSTB;
      601     2036    2             SELECT(ELSE);
      602     2037    2           GOTO TBDBOR;
      603     2038    2           END;                            /* DO SELECT                          */
      604     2039    1   ITSTB:
      605     2040    1           TIGRPA='0'B; /* Make sure !TIGR,!MON,!RUM,!PLOVER get written later   */
      606     2041    1           MONPA='0'B;
      607     2042    1           RUMPA='0'B;
      608     2043    1           PLVPA='0'B;
      609     2044    1           GOTO Q1;
      610     2045    1   ITSHELP:
PL6.E3A0      #002=PUSSYCAT_PL6 File=ISI$IOPROC.:E05TSI                          TUE 07/29/97 22:52 Page:65
      611     2046    1           CALL TYPEC(HUHHH);
      612     2047    1           GOTO TBDBOR;
      613     2048    1   Q2:
      614     2049    1           CALL KEYIN(Q2Q,ANSBUF);
      615     2050    1           GOTO Q01;
      616     2051    1   Q1:
      617     2052    1           CALL KEYIN(Q1Q,ANSBUF);
      618     2053    1   Q01:
      619     2054    1           ADPXF='0'B;
      620     2055    1           CALL GETFD(ANSBUF.TXT,16) ALTRET(CAT9E);/* Default=NO */;
      621     2056    2           DO SELECT(SUBSTR(ANSBUF.TXT,0,1));
      622     2057    2             SELECT('?');
      623     2058    2             IF ORDBFLG='0'B THEN GOTO HELPTB;
      624     2059    2               ELSE GOTO HELPDBOR;
      625     2060    2             SELECT('N','n');
      626     2061    2             GOTO CAT9E;                   /* Establish return procedure         */
      627     2062    2             SELECT('Y','y');
      628     2063    2             IF ORDBFLG='0'B THEN ADPXF='11111'B;
      629     2064    2               ELSE ADPXF.D='1'B;
      630     2065    2             SELECT(ELSE);
      631     2066    3           DO I=0 TO 15;
      632     2067    4             DO SELECT(SUBSTR(ANSBUF.TXT,I,1));
      633     2068    4               SELECT(' ');
      634     2069    4               SELECT('*');
      635     2070    4               MDELTAFLG=1;
      636     2071    4               SELECT(ELSE);
      637     2072    4             CALL UPPER_CASE(SUBSTR(ANSBUF.TXT,I),1);
      638     2073    5             DO SELECT(SUBSTR(ANSBUF.TXT,I,1));
      639     2074    5               SELECT('A');
      640     2075    5               IF ORDBFLG~='0'B THEN GOTO Q2;
      641     2076    5                 ELSE ADPXF.A='1'B;
      642     2077    5               SELECT('D');
      643     2078    5               ADPXF.D='1'B;
      644     2079    5               SELECT('P');
      645     2080    5               IF ORDBFLG~='0'B THEN GOTO Q2;
      646     2081    5                 ELSE ADPXF.P='1'B;
      647     2082    5               SELECT('X');
PL6.E3A0      #002=PUSSYCAT_PL6 File=ISI$IOPROC.:E05TSI                          TUE 07/29/97 22:52 Page:66
      648     2083    5               IF ORDBFLG~='0'B THEN GOTO Q2;
      649     2084    5                 ELSE ADPXF.X='1'B;
      650     2085    5               SELECT('F');
      651     2086    5               IF ORDBFLG~='0'B THEN GOTO Q2;
      652     2087    5                 ELSE ADPXF.F='1'B;
      653     2088    5               SELECT('S');
      654     2089    5               SILENT='1'B;                /* Don't write FW names               */
      655     2090    5               SELECT(ELSE);
      656     2091    5             IF ORDBFLG='0'B THEN GOTO Q1;
      657     2092    5               ELSE GOTO Q2;
      658     2093    5             END;                          /* DO SELECT                          */
      659     2094    4             END;                          /* DO SELECT                          */
      660     2095    3           END;                            /* DO I=                              */
      661     2096    2           END;                            /* DO SELECT                          */
      662     2097    1           IF ADPXF.D='0'B THEN GOTO CAT9E; /* Establish return                  */
      663     2098    1             ELSE;
      664     2099    1   CAT5:
      665     2100    1           CALL KEYIN(CATQU,ANSBUF);       /* Ask about URC devices              */
      666     2101    1           CALL GETFD(ANSBUF.TXT,16) ALTRET(CAT9); /* Default=YES                */
      667     2102    1           CALL UPPER_CASE(ANSBUF.TXT,1);
      668     2103    2           DO SELECT(SUBSTR(ANSBUF.TXT,0,1));
      669     2104    2             SELECT('Y');
      670     2105    2             GOTO CAT9;
      671     2106    2             SELECT('N');
      672     2107    2             SELECT(ELSE);
      673     2108    2           GOTO CAT5;
      674     2109    2           END;                            /* DO SELECT                          */
      675     2110    1   CAT6:   ;                               /* Ask about base chann               */
      676     2111    1           CALL KEYIN(CATQCH,ANSBUF);
      677     2112    1           CALL GETFD(ANSBUF.TXT,16) ALTRET(CAT6E); /* Default OK                */
      678     2113    1           IF ALPHA_FLG='1'B THEN GOTO CAT6; /* It has to be decimal             */
      679     2114    1             ELSE;
      680     2115    1           CALL CHARBIN(URCHN,SUBSTR(ANS,0,FIELD_LEN));
      681     2116    1           IF URCHN>HIGHEST_CHAN THEN GOTO CAT6;
      682     2117    1             ELSE;
      683     2118    1   CAT6E:
      684     2119    2           DO I=%OC# TO %(OC#+LP#-1);      /* Ask about LPs                      */
PL6.E3A0      #002=PUSSYCAT_PL6 File=ISI$IOPROC.:E05TSI                          TUE 07/29/97 22:52 Page:67
      685     2120    2   CAT7:
      686     2121    2             BUILT_MES.TXT = ' ';
      687     2122    2             SUBSTR(BUILT_MES.TXT,2)=DEVINFO.DEVNAME(I);
      688     2123    2             SUBSTR(BUILT_MES.TXT,10)='=LP ';
      689     2124    2             BUILT_MES.CNT=10+4;
      690     2125    2   CAT7A:
      691     2126    2             CALL KEYIN(BUILT_MES,ANSBUF);
      692     2127    2             CALL GETFD(ANSBUF.TXT,16) ALTRET(CAT7E); /* Default OK              */
      693     2128    2             IF ALPHA_FLG='1'B THEN GOTO CAT7A; /* It has to be decimal          */
      694     2129    2             CALL CHARBIN(CHG_IOM,SUBSTR(ANS,0,FIELD_LEN));
      695     2130    2             IF CHG_IOM>%HIGHEST_IOM THEN GOTO CAT7A;
      696     2131    2             IF RPM_FLG THEN
      697     2132    2               IF CHG_IOM ~= RPM_BOOTIN.IMX# THEN
      698     2133    2                 CALL DO_RPM_CFG(CHG_IOM);
      699     2134    2             CALL GETFD(SUBSTR(ANSBUF.TXT,FIELD_LEN+1),16-FIELD_LEN-1) ALTRET(CAT7A);
      700     2135    2             IF ALPHA_FLG='1'B THEN GOTO CAT7A;
      701     2136    2               ELSE;
      702     2137    2             CALL CHARBIN(CHG_CHN,SUBSTR(ANS,0,FIELD_LEN));
      703     2138    2             IF CHG_CHN>HIGHEST_CHAN THEN GOTO CAT7A;
      704     2139    2             DEVINFO.IOM#(I) = CHG_IOM;
      705     2140    2             DEVINFO.CHN#(I)=CHG_CHN;
      706     2141    2             CALL BINCHAR(SUBSTR(DEVINFO.DEVNAME(I),3,1),DEVINFO.IOM#(I));
      707     2142    2             CALL BINCHAR(SUBSTR(DEVINFO.DEVNAME(I),5,3),DEVINFO.CHN#(I));
      708     2143    2   CAT7E:
      709     2144    2           END;                            /* DO I=                              */
      710     2145    2           DO I=%(OC#+LP#) TO %(OC#+LP#+CR#-1); /* Ask about CRs                 */
      711     2146    2   CAT8:
      712     2147    2             BUILT_MES.TXT = ' ';
      713     2148    2             SUBSTR(BUILT_MES.TXT,2)=DEVINFO.DEVNAME(I);
      714     2149    2             SUBSTR(BUILT_MES.TXT,10)='=CR ';
      715     2150    2             BUILT_MES.CNT=10+4;
      716     2151    2   CAT8A:
      717     2152    2             CALL KEYIN(BUILT_MES,ANSBUF);
      718     2153    2             CALL GETFD(ANSBUF.TXT,16) ALTRET(CAT8E); /* Default OK              */
      719     2154    2             IF ALPHA_FLG='1'B THEN GOTO CAT8A; /* It has to be decimal          */
      720     2155    2             CALL CHARBIN(CHG_IOM,SUBSTR(ANS,0,FIELD_LEN));
      721     2156    2             IF CHG_IOM>%HIGHEST_IOM THEN GOTO CAT8A;
PL6.E3A0      #002=PUSSYCAT_PL6 File=ISI$IOPROC.:E05TSI                          TUE 07/29/97 22:52 Page:68
      722     2157    2             IF RPM_FLG THEN
      723     2158    2               IF CHG_IOM ~= RPM_BOOTIN.IMX# THEN
      724     2159    2                 CALL DO_RPM_CFG(CHG_IOM);
      725     2160    2             CALL GETFD(SUBSTR(ANSBUF.TXT,FIELD_LEN+1),16-FIELD_LEN-1) ALTRET(CAT8A);
      726     2161    2             IF ALPHA_FLG='1'B THEN GOTO CAT8A;
      727     2162    2               ELSE;
      728     2163    2             CALL CHARBIN(CHG_CHN,SUBSTR(ANS,0,FIELD_LEN));
      729     2164    2             IF CHG_CHN>HIGHEST_CHAN THEN GOTO CAT8A;
      730     2165    2             DEVINFO.CHN#(I)=CHG_CHN;
      731     2166    2             DEVINFO.IOM#(I)=CHG_IOM;
      732     2167    2             CALL BINCHAR(SUBSTR(DEVINFO.DEVNAME(I),3,1),DEVINFO.IOM#(I));
      733     2168    2             CALL BINCHAR(SUBSTR(DEVINFO.DEVNAME(I),5,3),DEVINFO.CHN#(I));
      734     2169    2   CAT8E:
      735     2170    2           END;                            /* DO I=                              */
      736     2171    1   CAT9:
      737     2172    1           CALL KEYIN(CATQFEP,ANSBUF);     /* Ask about FEP                      */
      738     2173    1           CALL GETFD(ANSBUF.TXT,16) ALTRET(CAT9E); /* Default OK                */
      739     2174    1           IF ALPHA_FLG='1'B THEN GOTO CAT9; /* It has to be decimal             */
      740     2175    1           CALL CHARBIN(FEPIOM,SUBSTR(ANS,0,FIELD_LEN));
      741     2176    1           IF FEPIOM>%HIGHEST_IOM THEN GOTO CAT9;
      742     2177    1           CALL GETFD(SUBSTR(ANSBUF.TXT,FIELD_LEN+1),16-FIELD_LEN-1) ALTRET(CAT9);
      743     2178    1           IF ALPHA_FLG='1'B THEN GOTO CAT9;
      744     2179    1             ELSE;
      745     2180    1           CALL CHARBIN(FEPCHAN,SUBSTR(ANS,0,FIELD_LEN));
      746     2181    1           IF FEPCHAN>HIGHEST_CHAN THEN GOTO CAT9;
      747     2182    1   CAT9E:  ;
      748     2183    1   TYPE_SIZE: ENTRY ALTRET;
      749     2184    1           IF RCV_FLG.RBO='1'B THEN CALL TYPEC(RCVRM);
      750     2185    1           IS_PPUT_SIZE = HIPAGE;
      751     2186    2           IF RPM_FLG THEN DO;
      752     2187    2                 I = RPM_BOOTIN.IMX#;
      753     2188    3                 CALL DO_SCU_STATE(I) WHENRETURN DO;
      754     2189    4                       IF IS_CFG_TYPE = %IS_CFG_MULT_CAB_REL# THEN DO;
      755     2190    4                             UPPER_SCU.UPP_BND = MCA_CFG.PORT_INFO.START_ADDR(1) * 1024
              2190                                      +
      756     2191    4                               MCA_CFG.PORT_INFO.SIZE(1) * 256 -1;
      757     2192    4                             UPPER_SCU.LOW_BND = MCA_CFG.PORT_INFO.START_ADDR(1) * 1024
PL6.E3A0      #002=PUSSYCAT_PL6 File=ISI$IOPROC.:E05TSI                          TUE 07/29/97 22:52 Page:69
              2192                                      ;
      758     2193    4                             IS_PPUT_SIZE = UPPER_SCU.UPP_BND;
      759     2194    4                             GAP_SZ = UPPER_SCU.LOW_BND - LOWER_SCU.UPP_BND-1;
      760     2195    4                           END;
      761     2196    3                     END;
      762     2197    2               END;
      763     2198    2           IF ORDBFLG='0'B THEN DO;
      764     2199    2                 AM2MS = AM2MS_FIXED;
      765     2200                                                /* Type mem size                      */
      766     2201    2                 MESSAGE$=ADDR(AM2MS);
      767     2202    2                 IF IS_CFG_TYPE = %IS_CFG_MULT_CAB_REL# THEN
      768     2203    2                   CALL BINCHAR(SUBSTR(TEXTM.TXT,32,6),HIPAGE+1);
      769     2204    2                   ELSE
      770     2205    2                   CALL BINCHAR(SUBSTR(TEXTM.TXT,32,6),HIPAGE+1-GAP_SZ);
      771     2206    3                 DO WHILE (SUBSTR(TEXTM.TXT,32,1)='0');
      772     2207    3                   SUBSTR(TEXTM.TXT,32)=SUBSTR(TEXTM.TXT,33);
      773     2208    3                   TEXTM.CNT = TEXTM.CNT - 1;
      774     2209    3                 END;
      775     2210    2                 CALL TYPEC(AM2MS);
      776     2211    2                 RETURN;
      777     2212    2               END;                        /* THEN                               */
      778     2213    2             ELSE DO;
      779     2214    2                 ALTRETURN;
      780     2215    2               END;                        /*ELSE                                */
      781     2216    1   HELPTB:
      782     2217    1           CALL TYPEC(HELPA);
      783     2218    1   HELPDBOR:
      784     2219    1           CALL TYPEC(HELPD);
      785     2220    1           IF ORDBFLG~='0'B THEN GOTO HELPALL;
      786     2221    1             ELSE;
      787     2222    1           CALL TYPEC(HELPP);
      788     2223    1           CALL TYPEC(HELPX);
      789     2224    1           CALL TYPEC(HELPF);
      790     2225    1   HELPALL:
      791     2226    1           CALL TYPEC(HELPY);
      792     2227    1           CALL TYPEC(HELPN);
      793     2228    1           IF ORDBFLG='0'B THEN GOTO Q1;
PL6.E3A0      #002=PUSSYCAT_PL6 File=ISI$IOPROC.:E05TSI                          TUE 07/29/97 22:52 Page:70
      794     2229    1             ELSE GOTO Q2;
      795     2230    1   END PUSSYCAT_PL6;
      796     2231        %EOD;

PL6.E3A0      #002=PUSSYCAT_PL6 File=ISI$IOPROC.:E05TSI                          TUE 07/29/97 22:52 Page:71
--  Include file information  --

   IS$MACROS.:E05TOU  is referenced.
      No diagnostics issued in procedure PUSSYCAT_PL6.

   Procedure PUSSYCAT_PL6 requires 1121 words for executable code.
   Procedure PUSSYCAT_PL6 requires 26 words of local(AUTO) storage.

PL6.E3A0      #002=PUSSYCAT_PL6 File=ISI$IOPROC.:E05TSI                          TUE 07/29/97 22:52 Page:72

 Object Unit name= PUSSYCAT_PL6                               File name= ISI$IOPROC.:E05TOU
 UTS= JUL 29 '97 22:52:11.20 TUE                              Compiler= PL-6/E31         Sev=      00
 SharedLib= :SHARED_SYSTEM                                    Alt SharedLib=


    ****  Control sections  ****

 Sect   Type Bound  Init  Size OctSiz  Section name(segment info)
    0   Data  even  none   177    261  PUSSYCAT_PL6
    1  RoData even  UTS     18     22  PUSSYCAT_PL6
    2   Proc  even  none  1121   2141  PUSSYCAT_PL6
    3  RoData even  none    51     63  PUSSYCAT_PL6

    ****  Entry defs  ****

                              Check   Calling
                             calling  sequence
  Sect OctLoc Primary Altret sequence   type   Parms  Name
     2      0   yes    yes     yes      Std        0  PUSSYCAT_PL6
     2   1734          yes     yes      Std        0  TYPE_SIZE
PL6.E3A0      #002=PUSSYCAT_PL6 File=ISI$IOPROC.:E05TSI                          TUE 07/29/97 22:52 Page:73

  ****  Data defs  ****

 Sect OctLoc  Name                           Sect OctLoc  Name
    0      0  OCZONE                             0      2  IMWBASE
    0      3  TYPEBI                             0      4  URCHN
    0      5  FEPIOM                             0      6  FEPCHAN
    0      7  MDELTAFLG                          0     10  BOOTINFO
    0     12  SILENT                             0     13  TBDBORQ
    0     17  HUHHH                              0     37  Q1Q
    0     54  Q2Q                                0     70  CATQU
    0    100  CATQCH                             0    107  CATQFEP
    0    114  HELPY                              0    124  HELPN
    0    134  HELPA                              0    150  HELPD
    0    162  HELPP                              0    175  HELPX
    0    205  HELPF                              0    216  AM2MS
    0    233  AM2MS_FIXED                        0    250  RCVRM

  ****  Entry refs  ****

         Check        Calling
        calling       sequence
Altret sequence SRef   type   Args  Name
 yes     yes           Std       1 DO_RPM_CFG
         yes           Std       0 READ_CONNECT_TABLE
         yes           Std       4 DOIO
         yes           Std       1 TYPEC
 yes     yes           Std       2 KEYIN
 yes     yes           Std       2 GETFD
 yes     yes           Std       1 DO_SCU_STATE
         yes           Std       2 UPPER_CASE
 yes     yes           Std       1 DO_RPM_TIME
                       nStd      0 X66_AUTO_0
                       Std       0 B_CONSPOOL_D
                       nStd      0 X66_ARET
                       nStd      0 X66_AALT
PL6.E3A0      #002=PUSSYCAT_PL6 File=ISI$IOPROC.:E05TSI                          TUE 07/29/97 22:52 Page:74

  ****  Data refs  ****

  Flags:  r = read only, s = secondary
Flgs Name                             Flgs Name                             Flgs Name
     DEVINFO                               IOMTAB                                CONNECT_TABLE
     RPM_BOOTIN                            RPM_BOOT_IDCW                         ORDBFLG
     RCV_FLG                               VOFLG                                 ADPXF
     BOOTTAPE                              FW_LOAD                               TIGRPA
     MONPA                                 RUMPA                                 PLVPA
     CONS_DCWS                             CONS_MBX                              SH_MBX
     PATT_MBX                              MCA_CFG                               RPM_CONSOLE
     RPM_FLG                               S1000_FLG                             SH_DCWS
     B_VERSION                             CONS_INFO                             ANSBUF
     FIELD$                                FIELD_LEN                             ALPHA_FLG
     HIPAGE                                GAP_SZ                                LOWER_SCU
     UPPER_SCU                             IS_CFG_TYPE                           IS_PPUT_SIZE
     CHN_CFG                               B_VECTNIL

  ****  Segment refs  ****

  Flags:  r = read only, s = secondary
Flgs Name                             Flgs Name                             Flgs Name
     ISSID
PL6.E3A0      #002=PUSSYCAT_PL6 File=ISI$IOPROC.:E05TSI                          TUE 07/29/97 22:52 Page:75


      320        1        /*T***********************************************************/
      321        2        /*T*                                                         */
      322        3        /*T* Copyright (c) Bull HN Information Systems Inc., 1997    */
      323        4        /*T*                                                         */
      324        5        /*T***********************************************************/
      325        6        /**/
      326        7        PUSSYCAT_PL6:PROC ALTRET;

      7  2 000000   000000 700200 xent  PUSSYCAT_PL6 TSX0  ! X66_AUTO_0
         2 000001   000032 000000                    ZERO    26,0

      327        8        /* This procedure gets AARDVARK configuration */
      328        9        %INCLUDE IS$MACROS;
      329     1284        %DEVINFO(STCLASS="SYMREF");
      330     1353        %IOM_TAB(NAME=IOMTAB,STCLASS="SYMREF");
      331     1370        %CONNECT_TAB(NAME=CONNECT_TABLE,STCLASS="SYMREF");
      332     1390        %DOIO_COMZONE(NAME=OCZONE);
      333     1423        /**/
      334     1424    1   DCL IMWBASE STATIC SYMDEF UBIN WORD INIT(0);
      335     1425    1   DCL TYPEBI BIT(36) STATIC SYMDEF INIT('510000000001'O); /* Write alert        */
      336     1426    1   DCL URCHN STATIC SYMDEF UBIN WORD INIT(24); /* UR base chann                  */
      337     1427    1   DCL FEPIOM STATIC SYMDEF UBIN WORD INIT(0); /* FEP IOM                        */
      338     1428    1   DCL FEPCHAN STATIC SYMDEF UBIN WORD INIT(33); /* FEP Chann                    */
      339     1429    1   DCL MDELTAFLG STATIC SYMDEF UBIN WORD INIT(0); /* Flag for MDELTA call        */
      340     1430    1   DCL 1 BOOTINFO STATIC SYMDEF ALIGNED,
      341     1431    1         2 BCHN UBIN(9) UNAL INIT(0),
      342     1432    1         2 * BIT(24),
      343     1433    1         2 BPORT# UBIN(3) UNAL INIT(0),
      344     1434    1         2 BIOMAD UBIN(18) UNAL INIT(0),
      345     1435    1         2 BIMWAD UBIN(13) UNAL INIT(0),
      346     1436    1         2 * BIT(3),
      347     1437    1         2 BIOM# UBIN(2) UNAL INIT(0);
      348     1438    1   DCL 1 RPM_BOOTIN SYMREF,
      349     1439    1         2 * BIT(9),
      350     1440    1         2 CHN# UBIN(9) UNAL,
      351     1441    1         2 * BIT (7),
PL6.E3A0      #002=PUSSYCAT_PL6 File=ISI$IOPROC.:E05TSI                          TUE 07/29/97 22:52 Page:76
      352     1442    1         2 IMX# UBIN(2) UNAL,
      353     1443    1         2 * BIT (9);
      354     1444    1   DCL 1 RPM_BOOT_IDCW SYMREF,
      355     1445    1         2 * BIT(6),
      356     1446    1         2 DEV# UBIN(6) UNAL,
      357     1447    1         2 * BIT(24) UNAL;
      358     1448    1   DCL 1 ORDBFLG SYMREF,
      359     1449    1         2 ORF BIT(1),
      360     1450    1         2 DBF BIT(1);
      361     1451    1   DCL 1 RCV_FLG SYMREF,
      362     1452    1         2 RC BIT(1),
      363     1453    1         2 DB BIT(1),
      364     1454    1         2 RBD BIT(1),
      365     1455    1         2 RBO BIT(1);
      366     1456    1   DCL VOFLG BIT(1) SYMREF;
      367     1457    1   DCL 1 ADPXF SYMREF,
      368     1458    1         2 A BIT(1),
      369     1459    1         2 D BIT(1),
      370     1460    1         2 P BIT(1),
      371     1461    1         2 X BIT(1),
      372     1462    1         2 F BIT(1);
      373     1463        /**/
      374     1464    1   DCL BOOTTAPE UBIN WORD SYMREF;
      375     1465    1   DCL FW_LOAD(0:511) BIT(1) UNAL SYMREF;
      376     1466    1   DCL TIGRPA BIT(1) SYMREF;
      377     1467    1   DCL MONPA BIT(1) SYMREF;
      378     1468    1   DCL RUMPA BIT(1) SYMREF;
      379     1469    1   DCL PLVPA BIT(1) SYMREF;
      380     1470    1   DCL SILENT BIT(1) STATIC SYMDEF INIT('0'B); /* Write FW names                 */
      381     1471    1   DCL MESSAGE CHAR(80) SYMREF;
      382     1472    1   DCL MESSAGE_CNT UBIN SYMREF;
      383     1473    1   DCL CONS_DCWS BIT(1) SYMREF;            /* Console DCWs on RPM                */
      384     1474        %IMX_MBX(NAME=CONS_MBX,STCLASS="SYMREF"); /* Cons MAILBOX on an RPM           */
      385     1531        %IMX_MBX(NAME=SH_MBX,STCLASS="SYMREF"); /* Shared MAILBOX on an RPM           */
      386     1588        %IMX_MBX(NAME=PATT_MBX,STCLASS="SYMREF"); /* Mailbox Pattern                  */
      387     1645        %MCA_CFG(STCLASS="SYMREF");
      388     1755    1   DCL   RPM_CONSOLE SBIN WORD SYMREF;
PL6.E3A0      #002=PUSSYCAT_PL6 File=ISI$IOPROC.:E05TSI                          TUE 07/29/97 22:52 Page:77
      389     1756    1   DCL RPM_FLG BIT(1) SYMREF;
      390     1757    1   DCL S1000_FLG BIT(1) SYMREF;
      391     1758    1   DCL SH_DCWS BIT(1) SYMREF;              /* Shared DCWs on RPM                 */
      392     1759    1   DCL   HIGHEST_CHAN UBIN WORD;
      393     1760    1   DCL 1 B_VERSION CALIGNED SYMREF,
      394     1761    1         2 L UBIN BYTE UNAL,
      395     1762    1         2 C CHAR(B_VERSION.L);
      396     1763    1   DCL 1 CONS_INFO SYMREF,
      397     1764    1         2 * BIT(6),
      398     1765    1         2 PORT# UBIN(3) UNAL,
      399     1766    1         2 IOM# UBIN(3) UNAL,
      400     1767    1         2 CHN# UBIN(6) UNAL;
      401     1768    1   DCL 1 ANSBUF SYMREF,
      402     1769    1         2 CNT UBIN WORD,
      403     1770    1         2 TXT CHAR(16);
      404     1771    1   DCL 1 TEXTM BASED(MESSAGE$),
      405     1772    1         2 CNT UBIN WORD,
      406     1773    1         2 TXT CHAR(TEXTM.CNT);
      407     1774    1   DCL MESSAGE$ PTR;
      408     1775    1   DCL FIELD$ PTR SYMREF;                  /* Result from GETFD                  */
      409     1776    1   DCL FIELD_LEN UBIN WORD SYMREF;         /* Result from GETFD                  */
      410     1777    1   DCL DECIM_FLG BIT(1) SYMREF;            /* Result from GETFD                  */
      411     1778    1   DCL ALPHA_FLG BIT(1) SYMREF;            /* Result from GETFD                  */
      412     1779    1   DCL HIPAGE UBIN WORD SYMREF;
      413     1780    1   DCL GAP_SZ UBIN WORD SYMREF;
      414     1781    1   DCL 1 LOWER_SCU SYMREF,
      415     1782    1         2 LOW_BND UBIN WORD,
      416     1783    1         2 UPP_BND UBIN WORD;
      417     1784    1   DCL 1 UPPER_SCU SYMREF,
      418     1785    1         2 LOW_BND UBIN WORD,
      419     1786    1         2 UPP_BND UBIN WORD;
      420     1787    1   DCL IS_CFG_TYPE UBIN SYMREF;
      421     1788    1   DCL IS_PPUT_SIZE UBIN WORD SYMREF;
      422     1789    1   DCL IS_MEM_SIDE1 BIT(1) SYMREF;
      423     1790    1   DCL CHN_CFG(0:511) BIT(1) UNAL SYMREF;
      424     1791        /* Messages */
      425     1792        %TEXTC(N#=TBDBORQ,M#="'TB/DB/OR/VO?'");
PL6.E3A0      #002=PUSSYCAT_PL6 File=ISI$IOPROC.:E05TSI                          TUE 07/29/97 22:52 Page:78
      426     1797       %TEXTC(N#=HUHHH,M#="'Consult your System Services Manual for help in booting CP-6'")
              1797            ;
      427     1802        %TEXTC(N#=Q1Q,M#="'Change boot options (Y/N)/(ADPXF)/(? for help)?'");
      428     1807        %TEXTC(N#=Q2Q,M#="'Change boot options (Y/N)/(D)/(? for help)?'");
      429     1812        %TEXTC(N#=CATQU,M#="' URC assignments OK (Y/N)?'");
      430     1817        %TEXTC(N#=CATQCH,M#="'  URC base channel# = '");
      431     1822        %TEXTC(N#=CATQFEP,M#="' FEP 0-033=FEP'");
      432     1827        %TEXTC(N#=HELPY,M#="'Y-All of the above options.'");
      433     1832        %TEXTC(N#=HELPN,M#="'N-None of the above options.'");
      434     1837        %TEXTC(N#=HELPA,M#="'A-Read AARDVARK patches before continuing.'");
      435     1842        %TEXTC(N#=HELPD,M#="'D-Change default device assignments.'");
      436     1847        %TEXTC(N#=HELPP,M#="'P-Change default patching directions.'");
      437     1852        %TEXTC(N#=HELPX,M#="'X-Retain XDELTA in memory.'");
      438     1857        %TEXTC(N#=HELPF,M#="'F-Read firmware from IFAD tape.'");
      439     1862        %TEXTC(N#=AM2MS,M#="'The memory available to CP-6 is xxxxxx pages.'");
      440     1867        %TEXTC(N#=AM2MS_FIXED,M#="'The memory available to CP-6 is xxxxxx pages.'");
      441     1872        %TEXTC(N#=RCVRM,M#="' Recovery says-HANG LOOSE... '");
      442     1877    1   DCL AARDVARK_NAME CHAR(0) CONSTANT INIT('AARDVARK ');
      443     1878    1   DCL AARDVARK_SERVICE CHAR(0) CONSTANT INIT(' at your service');
      444     1879        /**/
      445     1880    1   DCL TIME_OUT UBIN WORD;
      446     1881    1   DCL   CHG_IOM UBIN WORD;
      447     1882    1   DCL   CHG_CHN UBIN WORD;
      448     1883    1   DCL I UBIN WORD;
      449     1884    1   DCL COMMAND$ PTR;
      450     1885    1   DCL ANS CHAR(16) BASED(FIELD$);
      451     1886    1   DCL 1 BUILT_MES,
      452     1887    1         2 CNT UBIN WORD,
      453     1888    1         2 TXT CHAR(40);
      454     1889        /**/
      455     1890    1   DCL DOIO ENTRY(4);
      456     1891    1   DCL   DO_RPM_CFG ENTRY(1) ALTRET;
      457     1892    1   DCL   DO_SCU_STATE ENTRY(1) ALTRET;
      458     1893    1   DCL  DO_RPM_TIME ENTRY(1) ALTRET;
      459     1894    1   DCL KEYIN ENTRY(2) ALTRET;
      460     1895    1   DCL TYPEC ENTRY(1);
      461     1896    1   DCL UPPER_CASE ENTRY(2);
PL6.E3A0      #002=PUSSYCAT_PL6 File=ISI$IOPROC.:E05TSI                          TUE 07/29/97 22:52 Page:79
      462     1897    1   DCL GETFD ENTRY(2) ALTRET;
      463     1898    1   DCL   READ_CONNECT_TABLE ENTRY;
      464     1899        /**/
      465     1900        /** Code **/
      466     1901    1           HIGHEST_CHAN = %HIGH_CHAN;

   1901  2 000002   000077 235007                    LDA     63,DL
         2 000003   200003 755100                    STA     HIGHEST_CHAN,,AUTO

      467     1902    2           IF RPM_FLG THEN DO;   /* Fake BOOTINFO and change DEVINFO defaults    */

   1902  2 000004   000000 234000 xsym               SZN     RPM_FLG
         2 000005   000132 605000 2                  TPL     s:1925

      468     1903    2                 HIGHEST_CHAN = %HIGH_RPM_CHAN;

   1903  2 000006   000177 236007                    LDQ     127,DL
         2 000007   200003 756100                    STQ     HIGHEST_CHAN,,AUTO

      469     1904    2                 BOOTINFO.BCHN=RPM_BOOTIN.CHN#;

   1904  2 000010   000000 236000 xsym               LDQ     RPM_BOOTIN
         2 000011   000011 736000                    QLS     9
         2 000012   000010 552040 0                  STBQ    BOOTINFO,'40'O

      470     1905    2                 BOOTINFO.BIOM#=RPM_BOOTIN.IMX#;

   1905  2 000013   000000 236000 xsym               LDQ     RPM_BOOTIN
         2 000014   000011 772000                    QRL     9
         2 000015   000011 676000 0                  ERQ     BOOTINFO+1
         2 000016   000003 376007                    ANQ     3,DL
         2 000017   000011 656000 0                  ERSQ    BOOTINFO+1

      471     1906    2                 URCHN = 40;

   1906  2 000020   000050 236007                    LDQ     40,DL
         2 000021   000004 756000 0                  STQ     URCHN
PL6.E3A0      #002=PUSSYCAT_PL6 File=ISI$IOPROC.:E05TSI                          TUE 07/29/97 22:52 Page:80

      472     1907    2                 FEPCHAN = 46;

   1907  2 000022   000056 235007                    LDA     46,DL
         2 000023   000006 755000 0                  STA     FEPCHAN

      473     1908    2                 MESSAGE$ = ADDR(CATQFEP);

   1908  2 000024   000000 236000 3                  LDQ     0
         2 000025   200004 756100                    STQ     MESSAGE$,,AUTO

      474     1909    2                 SUBSTR(TEXTM.TXT,8,2) = '46';

   1909  2 000026   200004 470500                    LDP0    MESSAGE$,,AUTO
         2 000027   000000 720100                    LXL0    0,,PR0
         2 000030   000007 221000 1                  LDX1    AARDVARK_SERVICE+4
         2 000031   000003 741100                    STX1    3,,PR0

      475     1910    2                 CALL BINCHAR(SUBSTR(TEXTM.TXT,5,1),BOOTINFO.BIOM#);

   1910  2 000032   000011 236000 0                  LDQ     BOOTINFO+1
         2 000033   000003 376007                    ANQ     3,DL
         2 000034   000000 235003                    LDA     0,DU
         2 000035   200026 757100                    STAQ    BUILT_MES+12,,AUTO
         2 000036   000100 301500                    BTD
         2 000037   200026 000010                    NDSC9   BUILT_MES+12,,AUTO       cn=0,s=lsgnf,sf=0,n=8
         2 000040   000002 230001                    NDSC9   2,,PR0                   cn=1,s=nosgn,sf=0,n=1

      476     1911    3                 DO I = %FRSTLP TO %FRSTLP + %LP# -1;

   1911  2 000041   000001 236007                    LDQ     1,DL
         2 000042   200010 756100                    STQ     I,,AUTO
         2 000043   000060 710000 2                  TRA     s:1914+3

      477     1912    3                   DEVINFO.CHN#(I) = 40;

   1912  2 000044   200010 236100                    LDQ     I,,AUTO
PL6.E3A0      #002=PUSSYCAT_PL6 File=ISI$IOPROC.:E05TSI                          TUE 07/29/97 22:52 Page:81
         2 000045   000014 402007                    MPY     12,DL
         2 000046   000000 620006                    EAX0    0,QL
         2 000047   000000 236006 xsym               LDQ     DEVINFO,QL
         2 000050   000032 376000 xsym               ANQ     B_VECTNIL+26
         2 000051   050000 276003                    ORQ     20480,DU
         2 000052   000000 756010 xsym               STQ     DEVINFO,X0

      478     1913    3                   SUBSTR(DEVINFO.DEVNAME(I),6,2) = '40';

   1913  2 000053   000010 221000 1                  LDX1    AARDVARK_SERVICE+5
         2 000054   000007 441010 xsym               SXL1    DEVINFO+7,X0

      479     1914    3                 END;

   1914  2 000055   200010 235100                    LDA     I,,AUTO
         2 000056   000001 035007                    ADLA    1,DL
         2 000057   200010 755100                    STA     I,,AUTO
         2 000060   200010 235100                    LDA     I,,AUTO
         2 000061   000002 115007                    CMPA    2,DL
         2 000062   000044 602000 2                  TNC     s:1912

      480     1915    3                 DO I = %FRSTCR TO %FRSTCR + %CR# -1;

   1915  2 000063   000002 236007                    LDQ     2,DL
         2 000064   200010 756100                    STQ     I,,AUTO
         2 000065   000102 710000 2                  TRA     s:1918+3

      481     1916    3                   DEVINFO.CHN#(I) = 38;

   1916  2 000066   200010 236100                    LDQ     I,,AUTO
         2 000067   000014 402007                    MPY     12,DL
         2 000070   000000 620006                    EAX0    0,QL
         2 000071   000000 236006 xsym               LDQ     DEVINFO,QL
         2 000072   000032 376000 xsym               ANQ     B_VECTNIL+26
         2 000073   046000 276003                    ORQ     19456,DU
         2 000074   000000 756010 xsym               STQ     DEVINFO,X0

PL6.E3A0      #002=PUSSYCAT_PL6 File=ISI$IOPROC.:E05TSI                          TUE 07/29/97 22:52 Page:82
      482     1917    3                   SUBSTR(DEVINFO.DEVNAME(I),6,2) = '38';

   1917  2 000075   000011 221000 1                  LDX1    AARDVARK_SERVICE+6
         2 000076   000007 441010 xsym               SXL1    DEVINFO+7,X0

      483     1918    3                 END;

   1918  2 000077   200010 235100                    LDA     I,,AUTO
         2 000100   000001 035007                    ADLA    1,DL
         2 000101   200010 755100                    STA     I,,AUTO
         2 000102   200010 235100                    LDA     I,,AUTO
         2 000103   000003 115007                    CMPA    3,DL
         2 000104   000066 602000 2                  TNC     s:1916

      484     1919    3                 DO I = %FRSTDP TO %FRSTDP + %DP# -1;

   1919  2 000105   000024 236007                    LDQ     20,DL
         2 000106   200010 756100                    STQ     I,,AUTO
         2 000107   000127 710000 2                  TRA     s:1922+3

      485     1920    3                   DEVINFO.CHN#(I) = 64;

   1920  2 000110   200010 236100                    LDQ     I,,AUTO
         2 000111   000014 402007                    MPY     12,DL
         2 000112   000000 620006                    EAX0    0,QL
         2 000113   000000 236006 xsym               LDQ     DEVINFO,QL
         2 000114   000032 376000 xsym               ANQ     B_VECTNIL+26
         2 000115   100000 276003                    ORQ     32768,DU
         2 000116   000000 756010 xsym               STQ     DEVINFO,X0

      486     1921    3                   SUBSTR(DEVINFO.DEVNAME(I),3,2) = '64';

   1921  2 000117   200010 236100                    LDQ     I,,AUTO
         2 000120   000060 402007                    MPY     48,DL
         2 000121   040006 100400                    MLR     fill='040'O
         2 000122   000012 000002 1                  ADSC9   AARDVARK_SERVICE+7       cn=0,n=2
         2 000123   000006 600002 xsym               ADSC9   DEVINFO+6,Q              cn=3,n=2
PL6.E3A0      #002=PUSSYCAT_PL6 File=ISI$IOPROC.:E05TSI                          TUE 07/29/97 22:52 Page:83

      487     1922    3                 END;

   1922  2 000124   200010 235100                    LDA     I,,AUTO
         2 000125   000001 035007                    ADLA    1,DL
         2 000126   200010 755100                    STA     I,,AUTO
         2 000127   200010 235100                    LDA     I,,AUTO
         2 000130   000026 115007                    CMPA    22,DL
         2 000131   000110 602000 2                  TNC     s:1920

      488     1923    2               END;

      489     1924        /* Fill device tables with IOM number */
      490     1925    2           DO I=0 TO %DIM-1;

   1925  2 000132   200010 450100                    STZ     I,,AUTO
         2 000133   000147 710000 2                  TRA     s:1927+3

      491     1926    2             DEVINFO.IOM#(I)=BOOTINFO.BIOM#;

   1926  2 000134   200010 236100                    LDQ     I,,AUTO
         2 000135   000014 402007                    MPY     12,DL
         2 000136   000000 620006                    EAX0    0,QL
         2 000137   000011 236000 0                  LDQ     BOOTINFO+1
         2 000140   000023 736000                    QLS     19
         2 000141   000000 676010 xsym               ERQ     DEVINFO,X0
         2 000142   000006 376003                    ANQ     6,DU
         2 000143   000000 656010 xsym               ERSQ    DEVINFO,X0

      492     1927    2           END;                            /* DO                                 */

   1927  2 000144   200010 235100                    LDA     I,,AUTO
         2 000145   000001 035007                    ADLA    1,DL
         2 000146   200010 755100                    STA     I,,AUTO
         2 000147   200010 235100                    LDA     I,,AUTO
         2 000150   000026 115007                    CMPA    22,DL
         2 000151   000134 602000 2                  TNC     s:1926
PL6.E3A0      #002=PUSSYCAT_PL6 File=ISI$IOPROC.:E05TSI                          TUE 07/29/97 22:52 Page:84

      493     1928        /* Fill device table for tapes with channel and
      494     1929                                            device number */
      495     1930    2           DO I=%FRSTMT TO %FRSTDP-1;

   1930  2 000152   000003 236007                    LDQ     3,DL
         2 000153   200010 756100                    STQ     I,,AUTO
         2 000154   000175 710000 2                  TRA     s:1933+3

      496     1931    2             DEVINFO.CHN#(I)=BOOTINFO.BCHN;

   1931  2 000155   200010 236100                    LDQ     I,,AUTO
         2 000156   000014 402007                    MPY     12,DL
         2 000157   000000 620006                    EAX0    0,QL
         2 000160   000010 236000 0                  LDQ     BOOTINFO
         2 000161   000000 676010 xsym               ERQ     DEVINFO,X0
         2 000162   777000 376003                    ANQ     -512,DU
         2 000163   000000 656010 xsym               ERSQ    DEVINFO,X0

      497     1932    2             DEVINFO.DEV#(I)=I-%FRSTMT;

   1932  2 000164   200010 236100                    LDQ     I,,AUTO
         2 000165   000003 136007                    SBLQ    3,DL
         2 000166   000025 736000                    QLS     21
         2 000167   000000 676010 xsym               ERQ     DEVINFO,X0
         2 000170   000770 376003                    ANQ     504,DU
         2 000171   000000 656010 xsym               ERSQ    DEVINFO,X0

      498     1933    2           END;                            /* DO                                 */

   1933  2 000172   200010 235100                    LDA     I,,AUTO
         2 000173   000001 035007                    ADLA    1,DL
         2 000174   200010 755100                    STA     I,,AUTO
         2 000175   200010 235100                    LDA     I,,AUTO
         2 000176   000024 115007                    CMPA    20,DL
         2 000177   000155 602000 2                  TNC     s:1931

PL6.E3A0      #002=PUSSYCAT_PL6 File=ISI$IOPROC.:E05TSI                          TUE 07/29/97 22:52 Page:85
      499     1934    2           DO I=0 TO %FRSTMT-1;

   1934  2 000200   200010 450100                    STZ     I,,AUTO
         2 000201   000220 710000 2                  TRA     s:1936+3

      500     1935    2             CALL BINCHAR(SUBSTR(DEVINFO.DEVNAME(I),3,1),BOOTINFO.BIOM#);

   1935  2 000202   200010 236100                    LDQ     I,,AUTO
         2 000203   000060 402007                    MPY     48,DL
         2 000204   200026 756100                    STQ     BUILT_MES+12,,AUTO
         2 000205   000011 236000 0                  LDQ     BOOTINFO+1
         2 000206   000003 376007                    ANQ     3,DL
         2 000207   000000 235003                    LDA     0,DU
         2 000210   200030 757100                    STAQ    BUILT_MES+14,,AUTO
         2 000211   200026 235100                    LDA     BUILT_MES+12,,AUTO
         2 000212   000005 301500                    BTD
         2 000213   200030 000010                    NDSC9   BUILT_MES+14,,AUTO       cn=0,s=lsgnf,sf=0,n=8
         2 000214   000006 630001 xsym               NDSC9   DEVINFO+6,A              cn=3,s=nosgn,sf=0,n=1

      501     1936    2           END;                            /* DO                                 */

   1936  2 000215   200010 235100                    LDA     I,,AUTO
         2 000216   000001 035007                    ADLA    1,DL
         2 000217   200010 755100                    STA     I,,AUTO
         2 000220   200010 235100                    LDA     I,,AUTO
         2 000221   000003 115007                    CMPA    3,DL
         2 000222   000202 602000 2                  TNC     s:1935

      502     1937    2           DO I=%FRSTMT TO %DIM-1;

   1937  2 000223   000003 236007                    LDQ     3,DL
         2 000224   200010 756100                    STQ     I,,AUTO
         2 000225   000244 710000 2                  TRA     s:1939+3

      503     1938    2             CALL BINCHAR(SUBSTR(DEVINFO.DEVNAME(I),0,1),BOOTINFO.BIOM#);

   1938  2 000226   200010 236100                    LDQ     I,,AUTO
PL6.E3A0      #002=PUSSYCAT_PL6 File=ISI$IOPROC.:E05TSI                          TUE 07/29/97 22:52 Page:86
         2 000227   000060 402007                    MPY     48,DL
         2 000230   200026 756100                    STQ     BUILT_MES+12,,AUTO
         2 000231   000011 236000 0                  LDQ     BOOTINFO+1
         2 000232   000003 376007                    ANQ     3,DL
         2 000233   000000 235003                    LDA     0,DU
         2 000234   200030 757100                    STAQ    BUILT_MES+14,,AUTO
         2 000235   200026 235100                    LDA     BUILT_MES+12,,AUTO
         2 000236   000005 301500                    BTD
         2 000237   200030 000010                    NDSC9   BUILT_MES+14,,AUTO       cn=0,s=lsgnf,sf=0,n=8
         2 000240   000006 030001 xsym               NDSC9   DEVINFO+6,A              cn=0,s=nosgn,sf=0,n=1

      504     1939    2           END;                            /* DO                                 */

   1939  2 000241   200010 235100                    LDA     I,,AUTO
         2 000242   000001 035007                    ADLA    1,DL
         2 000243   200010 755100                    STA     I,,AUTO
         2 000244   200010 235100                    LDA     I,,AUTO
         2 000245   000026 115007                    CMPA    22,DL
         2 000246   000226 602000 2                  TNC     s:1938

      505     1940    2           DO I=%FRSTMT TO %FRSTDP-1;

   1940  2 000247   000003 236007                    LDQ     3,DL
         2 000250   200010 756100                    STQ     I,,AUTO
         2 000251   000300 710000 2                  TRA     s:1943+3

      506     1941    2             CALL BINCHAR(SUBSTR(DEVINFO.DEVNAME(I),2,3),BOOTINFO.BCHN);

   1941  2 000252   200010 236100                    LDQ     I,,AUTO
         2 000253   000060 402007                    MPY     48,DL
         2 000254   200026 756100                    STQ     BUILT_MES+12,,AUTO
         2 000255   000010 236000 0                  LDQ     BOOTINFO
         2 000256   000033 772000                    QRL     27
         2 000257   000000 235003                    LDA     0,DU
         2 000260   200030 757100                    STAQ    BUILT_MES+14,,AUTO
         2 000261   200026 235100                    LDA     BUILT_MES+12,,AUTO
         2 000262   000005 301500                    BTD
PL6.E3A0      #002=PUSSYCAT_PL6 File=ISI$IOPROC.:E05TSI                          TUE 07/29/97 22:52 Page:87
         2 000263   200030 000010                    NDSC9   BUILT_MES+14,,AUTO       cn=0,s=lsgnf,sf=0,n=8
         2 000264   000006 430003 xsym               NDSC9   DEVINFO+6,A              cn=2,s=nosgn,sf=0,n=3

      507     1942    2             CALL BINCHAR(SUBSTR(DEVINFO.DEVNAME(I),6,2),(I-%FRSTMT));

   1942  2 000265   200010 236100                    LDQ     I,,AUTO
         2 000266   000060 402007                    MPY     48,DL
         2 000267   200010 235100                    LDA     I,,AUTO
         2 000270   000003 135007                    SBLA    3,DL
         2 000271   200026 755100                    STA     BUILT_MES+12,,AUTO
         2 000272   000006 301500                    BTD
         2 000273   200026 000004                    NDSC9   BUILT_MES+12,,AUTO       cn=0,s=lsgnf,sf=0,n=4
         2 000274   000007 430002 xsym               NDSC9   DEVINFO+7,Q              cn=2,s=nosgn,sf=0,n=2

      508     1943    2           END;                            /* DO                                 */

   1943  2 000275   200010 235100                    LDA     I,,AUTO
         2 000276   000001 035007                    ADLA    1,DL
         2 000277   200010 755100                    STA     I,,AUTO
         2 000300   200010 235100                    LDA     I,,AUTO
         2 000301   000024 115007                    CMPA    20,DL
         2 000302   000252 602000 2                  TNC     s:1941

      509     1944        /* Fill in MAILBOX and DCWs addr. on an RPM */
      510     1945    2           IF RPM_FLG THEN DO;

   1945  2 000303   000000 234000 xsym               SZN     RPM_FLG
         2 000304   000460 605000 2                  TPL     s:1972

      511     1946    2                 CONS_MBX = PATT_MBX;

   1946  2 000305   000000 100400                    MLR     fill='000'O
         2 000306   000000 000140 xsym               ADSC9   PATT_MBX                 cn=0,n=96
         2 000307   000000 000140 xsym               ADSC9   CONS_MBX                 cn=0,n=96

      512     1947    2                 SH_MBX = PATT_MBX;

PL6.E3A0      #002=PUSSYCAT_PL6 File=ISI$IOPROC.:E05TSI                          TUE 07/29/97 22:52 Page:88
   1947  2 000310   000000 100400                    MLR     fill='000'O
         2 000311   000000 000140 xsym               ADSC9   PATT_MBX                 cn=0,n=96
         2 000312   000000 000140 xsym               ADSC9   SH_MBX                   cn=0,n=96

      513     1948    2                 DEVINFO.RPM_PTRS.MBX$(0)=ADDR(CONS_MBX);

   1948  2 000313   000001 236000 3                  LDQ     1
         2 000314   000002 756000 xsym               STQ     DEVINFO+2

      514     1949    2                 DEVINFO.RPM_PTRS.EF_DCWS$(0)=ADDR(CONS_DCWS);

   1949  2 000315   000002 236000 3                  LDQ     2
         2 000316   000003 756000 xsym               STQ     DEVINFO+3

      515     1950    3                 DO I=%FRSTLP TO %DIM-1;

   1950  2 000317   000001 235007                    LDA     1,DL
         2 000320   200010 755100                    STA     I,,AUTO
         2 000321   000334 710000 2                  TRA     s:1953+3

      516     1951    3                   DEVINFO.RPM_PTRS.MBX$(I)=ADDR(SH_MBX);

   1951  2 000322   200010 236100                    LDQ     I,,AUTO
         2 000323   000014 402007                    MPY     12,DL
         2 000324   000000 620006                    EAX0    0,QL
         2 000325   000003 236000 3                  LDQ     3
         2 000326   000002 756010 xsym               STQ     DEVINFO+2,X0

      517     1952    3                   DEVINFO.RPM_PTRS.EF_DCWS$(I)=ADDR(SH_DCWS);

   1952  2 000327   000004 236000 3                  LDQ     4
         2 000330   000003 756010 xsym               STQ     DEVINFO+3,X0

      518     1953    3                 END;                      /* DO I=                              */

   1953  2 000331   200010 235100                    LDA     I,,AUTO
         2 000332   000001 035007                    ADLA    1,DL
PL6.E3A0      #002=PUSSYCAT_PL6 File=ISI$IOPROC.:E05TSI                          TUE 07/29/97 22:52 Page:89
         2 000333   200010 755100                    STA     I,,AUTO
         2 000334   000026 115007                    CMPA    22,DL
         2 000335   000322 602000 2                  TNC     s:1951

      519     1954    2                 I = RPM_BOOTIN.IMX#;

   1954  2 000336   000000 236000 xsym               LDQ     RPM_BOOTIN
         2 000337   000011 772000                    QRL     9
         2 000340   000003 376007                    ANQ     3,DL
         2 000341   200010 756100                    STQ     I,,AUTO

      520     1955    2                 CALL DO_RPM_CFG(I);

   1955  2 000342   200010 630500                    EPPR0   I,,AUTO
         2 000343   200026 450500                    STP0    BUILT_MES+12,,AUTO
         2 000344   200026 630500                    EPPR0   BUILT_MES+12,,AUTO
         2 000345   000017 631400 xsym               EPPR1   B_VECTNIL+15
         2 000346   000000 701000 xent               TSX1    DO_RPM_CFG
         2 000347   000000 011000                    NOP     0

      521     1956    2                 IF NOT FW_LOAD(DEVINFO.IOM#(%FRSTMT+BOOTTAPE)*128 + DEVINFO.CHN#(%
              1956                          FRSTMT+BOOTTAPE)) THEN

   1956  2 000350   000000 236000 xsym               LDQ     BOOTTAPE
         2 000351   000014 402007                    MPY     12,DL
         2 000352   000044 236006 xsym               LDQ     DEVINFO+36,QL
         2 000353   000033 772000                    QRL     27
         2 000354   200026 756100                    STQ     BUILT_MES+12,,AUTO
         2 000355   000000 236000 xsym               LDQ     BOOTTAPE
         2 000356   000014 402007                    MPY     12,DL
         2 000357   000044 236006 xsym               LDQ     DEVINFO+36,QL
         2 000360   000014 772000                    QRL     12
         2 000361   000600 376007                    ANQ     384,DL
         2 000362   200026 036100                    ADLQ    BUILT_MES+12,,AUTO
         2 000363   000000 066406                    CMPB    filb='0'B
         2 000364   000000 000001 xsym               BDSC    FW_LOAD,Q                by=0,bit=0,n=1
         2 000365   000002 000022 xsym               BDSC    B_VECTNIL+2              by=0,bit=0,n=18
PL6.E3A0      #002=PUSSYCAT_PL6 File=ISI$IOPROC.:E05TSI                          TUE 07/29/97 22:52 Page:90
         2 000366   000374 601000 2                  TNZ     s:1958

      522     1957    2                   BOOTTAPE = %FRSTMT + RPM_BOOT_IDCW.DEV#;

   1957  2 000367   000000 236000 xsym               LDQ     RPM_BOOT_IDCW
         2 000370   000030 772000                    QRL     24
         2 000371   000077 376007                    ANQ     63,DL
         2 000372   000003 036007                    ADLQ    3,DL
         2 000373   000000 756000 xsym               STQ     BOOTTAPE

      523     1958    2                 IF NOT (CHN_CFG(I *128 +64)) THEN

   1958  2 000374   200010 235100                    LDA     I,,AUTO
         2 000375   000007 735000                    ALS     7
         2 000376   000000 066405                    CMPB    filb='0'B
         2 000377   000001 610001 xsym               BDSC    CHN_CFG+1,A              by=3,bit=1,n=1
         2 000400   000002 000022 xsym               BDSC    B_VECTNIL+2              by=0,bit=0,n=18
         2 000401   000435 601000 2                  TNZ     s:1965

      524     1959    3                     DO I = %FRSTDP TO %FRSTDP + %DP# -1;

   1959  2 000402   000024 236007                    LDQ     20,DL
         2 000403   200010 756100                    STQ     I,,AUTO
         2 000404   000432 710000 2                  TRA     s:1964+3

      525     1960    3                       DEVINFO.CHN#(I) = 120;

   1960  2 000405   200010 236100                    LDQ     I,,AUTO
         2 000406   000014 402007                    MPY     12,DL
         2 000407   000000 620006                    EAX0    0,QL
         2 000410   000000 236006 xsym               LDQ     DEVINFO,QL
         2 000411   000032 376000 xsym               ANQ     B_VECTNIL+26
         2 000412   170000 276003                    ORQ     61440,DU
         2 000413   000000 756010 xsym               STQ     DEVINFO,X0

      526     1961    3                       DEVINFO.DEV#(I) = 0;

PL6.E3A0      #002=PUSSYCAT_PL6 File=ISI$IOPROC.:E05TSI                          TUE 07/29/97 22:52 Page:91
   1961  2 000414   000005 236000 3                  LDQ     5
         2 000415   000000 356010 xsym               ANSQ    DEVINFO,X0

      527     1962    3                       SUBSTR(DEVINFO.DEVNAME(I),2,3) = '120';

   1962  2 000416   200010 236100                    LDQ     I,,AUTO
         2 000417   000060 402007                    MPY     48,DL
         2 000420   040006 100400                    MLR     fill='040'O
         2 000421   000013 000003 1                  ADSC9   AARDVARK_SERVICE+8       cn=0,n=3
         2 000422   000006 400003 xsym               ADSC9   DEVINFO+6,Q              cn=2,n=3

      528     1963    3                       SUBSTR(DEVINFO.DEVNAME(I),7,1) = '0';

   1963  2 000423   000007 236010 xsym               LDQ     DEVINFO+7,X0
         2 000424   000006 376000 3                  ANQ     6
         2 000425   000060 276007                    ORQ     48,DL
         2 000426   000007 756010 xsym               STQ     DEVINFO+7,X0

      529     1964    3                     END;

   1964  2 000427   200010 235100                    LDA     I,,AUTO
         2 000430   000001 035007                    ADLA    1,DL
         2 000431   200010 755100                    STA     I,,AUTO
         2 000432   200010 235100                    LDA     I,,AUTO
         2 000433   000026 115007                    CMPA    22,DL
         2 000434   000405 602000 2                  TNC     s:1960

      530     1965    2                 CALL READ_CONNECT_TABLE;

   1965  2 000435   000002 631400 xsym               EPPR1   B_VECTNIL+2
         2 000436   000000 701000 xent               TSX1    READ_CONNECT_TABLE
         2 000437   000000 011000                    NOP     0

      531     1966    3                 DO I=0 TO 3;

   1966  2 000440   200010 450100                    STZ     I,,AUTO

PL6.E3A0      #002=PUSSYCAT_PL6 File=ISI$IOPROC.:E05TSI                          TUE 07/29/97 22:52 Page:92
      532     1967    3                   IOMTAB.PORT#(I)=CONNECT_TABLE.ENTRI.SCU_PORT(I);

   1967  2 000441   200010 236100                    LDQ     I,,AUTO
         2 000442   000014 402007                    MPY     12,DL
         2 000443   200026 756100                    STQ     BUILT_MES+12,,AUTO
         2 000444   200010 236100                    LDQ     I,,AUTO
         2 000445   000044 402007                    MPY     36,DL
         2 000446   200026 235100                    LDA     BUILT_MES+12,,AUTO
         2 000447   003006 060405                    CSL     bolr='003'O
         2 000450   000000 000003 xsym               BDSC    CONNECT_TABLE,A          by=0,bit=0,n=3
         2 000451   000000 660003 xsym               BDSC    IOMTAB,Q                 by=3,bit=6,n=3

      533     1968    3                 END;                      /* DO                                 */

   1968  2 000452   200010 235100                    LDA     I,,AUTO
         2 000453   000001 035007                    ADLA    1,DL
         2 000454   200010 755100                    STA     I,,AUTO
         2 000455   000004 115007                    CMPA    4,DL
         2 000456   000441 602000 2                  TNC     s:1967

      534     1969    2               END;                        /* THEN                               */

   1969  2 000457   000516 710000 2                  TRA     s:1979

      535     1970    2             ELSE DO;

      536     1971        /* Fill in IOMTAB for all IOM's */
      537     1972    3                 DO I=0 TO 3;

   1972  2 000460   200010 450100                    STZ     I,,AUTO

      538     1973    3                   IOMTAB.MAILBAD(I)=BOOTINFO.BIOMAD-((BOOTINFO.BIOM#-I)*%MBOXSIZ);

   1973  2 000461   000011 236000 0                  LDQ     BOOTINFO+1
         2 000462   000003 376007                    ANQ     3,DL
         2 000463   200010 136100                    SBLQ    I,,AUTO
         2 000464   000011 235000 0                  LDA     BOOTINFO+1
PL6.E3A0      #002=PUSSYCAT_PL6 File=ISI$IOPROC.:E05TSI                          TUE 07/29/97 22:52 Page:93
         2 000465   000022 771000                    ARL     18
         2 000466   200026 755100                    STA     BUILT_MES+12,,AUTO
         2 000467   000007 402000 3                  MPY     7
         2 000470   200026 036100                    ADLQ    BUILT_MES+12,,AUTO
         2 000471   000000 620006                    EAX0    0,QL
         2 000472   200010 721100                    LXL1    I,,AUTO
         2 000473   000000 740011 xsym               STX0    IOMTAB,X1

      539     1974    3                   IOMTAB.PORT#(I)=BOOTINFO.BPORT#-(BOOTINFO.BIOM#-I);

   1974  2 000474   000011 236000 0                  LDQ     BOOTINFO+1
         2 000475   000003 376007                    ANQ     3,DL
         2 000476   200010 136100                    SBLQ    I,,AUTO
         2 000477   200026 756100                    STQ     BUILT_MES+12,,AUTO
         2 000500   000010 236000 0                  LDQ     BOOTINFO
         2 000501   000007 376007                    ANQ     7,DL
         2 000502   200026 136100                    SBLQ    BUILT_MES+12,,AUTO
         2 000503   000000 676011 xsym               ERQ     IOMTAB,X1
         2 000504   000007 376007                    ANQ     7,DL
         2 000505   000000 656011 xsym               ERSQ    IOMTAB,X1

      540     1975    3                 END;                      /* DO                                 */

   1975  2 000506   200010 235100                    LDA     I,,AUTO
         2 000507   000001 035007                    ADLA    1,DL
         2 000510   200010 755100                    STA     I,,AUTO
         2 000511   000004 115007                    CMPA    4,DL
         2 000512   000461 602000 2                  TNC     s:1973

      541     1976    2                 IMWBASE=BOOTINFO.BIMWAD*32; /* Append 5 bits of 0               */

   1976  2 000513   000011 236000 0                  LDQ     BOOTINFO+1
         2 000514   777740 376007                    ANQ     -32,DL
         2 000515   000002 756000 0                  STQ     IMWBASE

      542     1977    2               END;                        /* ELSE                               */

PL6.E3A0      #002=PUSSYCAT_PL6 File=ISI$IOPROC.:E05TSI                          TUE 07/29/97 22:52 Page:94
      543     1978        /* Find lowest OC channel on OCIOM */
      544     1979    2           IF S1000_FLG='1'B THEN DO; /* On S1000 the console is already known   */

   1979  2 000516   000000 234000 xsym               SZN     S1000_FLG
         2 000517   000532 605000 2                  TPL     s:1984

      545     1980    2                 DEVINFO.CHN#(0)=CONS_INFO.CHN#;

   1980  2 000520   000000 236000 xsym               LDQ     CONS_INFO
         2 000521   000077 376003                    ANQ     63,DU
         2 000522   000011 736000                    QLS     9
         2 000523   000000 552040 xsym               STBQ    DEVINFO,'40'O

      546     1981    2                 DEVINFO.IOM#(0)=CONS_INFO.IOM#;

   1981  2 000524   000000 236000 xsym               LDQ     CONS_INFO
         2 000525   000005 772000                    QRL     5
         2 000526   000000 676000 xsym               ERQ     DEVINFO
         2 000527   000006 376003                    ANQ     6,DU
         2 000530   000000 656000 xsym               ERSQ    DEVINFO

      547     1982    2               END;                        /* THEN                               */

   1982  2 000531   000636 710000 2                  TRA     OCFOUND

      548     1983    2             ELSE DO;

      549     1984    3                 IF RPM_FLG AND RPM_CONSOLE ~=-1 THEN DO;

   1984  2 000532   000000 234000 xsym               SZN     RPM_FLG
         2 000533   000542 605000 2                  TPL     s:1988
         2 000534   000000 236000 xsym               LDQ     RPM_CONSOLE
         2 000535   000027 116000 xsym               CMPQ    B_VECTNIL+23
         2 000536   000542 600000 2                  TZE     s:1988

      550     1985    3                       DEVINFO.CHN#(0) = RPM_CONSOLE;

PL6.E3A0      #002=PUSSYCAT_PL6 File=ISI$IOPROC.:E05TSI                          TUE 07/29/97 22:52 Page:95
   1985  2 000537   000033 736000                    QLS     27
         2 000540   000000 552040 xsym               STBQ    DEVINFO,'40'O

      551     1986    3                     END;

   1986  2 000541   000636 710000 2                  TRA     OCFOUND

      552     1987    3                   ELSE DO;

      553     1988    4                       DO I=0 TO 300000;   /* Wait a second                      */

   1988  2 000542   200010 450100                    STZ     I,,AUTO

      554     1989    4                       END;                /* DO                                 */

   1989  2 000543   200010 235100                    LDA     I,,AUTO
         2 000544   000001 035007                    ADLA    1,DL
         2 000545   200010 755100                    STA     I,,AUTO
         2 000546   000010 115000 3                  CMPA    8
         2 000547   000543 602000 2                  TNC     s:1989

      555     1990    3                       TIME_OUT=6*512;

   1990  2 000550   006000 236007                    LDQ     3072,DL
         2 000551   200005 756100                    STQ     TIME_OUT,,AUTO

      556     1991    3                       OCZONE.IDCW$=ADDR(TYPEBI);

   1991  2 000552   000011 236000 3                  LDQ     9
         2 000553   000000 756000 0                  STQ     OCZONE

      557     1992    3                       OCZONE.DCW='0'B;

   1992  2 000554   000001 450000 0                  STZ     OCZONE+1

      558     1993    3                       COMMAND$=ADDR(OCZONE);

PL6.E3A0      #002=PUSSYCAT_PL6 File=ISI$IOPROC.:E05TSI                          TUE 07/29/97 22:52 Page:96
   1993  2 000555   000012 236000 3                  LDQ     10
         2 000556   200011 756100                    STQ     COMMAND$,,AUTO

   1993  2 000557                       FINDOC       null
      559     1994    3   FINDOC:             ;
      560     1995    4                       DO I=8 TO HIGHEST_CHAN;

   1995  2 000557   000010 235007                    LDA     8,DL
         2 000560   200010 755100                    STA     I,,AUTO
         2 000561   000632 710000 2                  TRA     s:2001+3

      561     1996    4                         DEVINFO.CHN#(0)=I;

   1996  2 000562   200010 236100                    LDQ     I,,AUTO
         2 000563   000033 736000                    QLS     27
         2 000564   000000 552040 xsym               STBQ    DEVINFO,'40'O

      562     1997    4                         CALL DOIO(0,COMMAND$,TIME_OUT);

   1997  2 000565   200005 630500                    EPPR0   TIME_OUT,,AUTO
         2 000566   200030 450500                    STP0    BUILT_MES+14,,AUTO
         2 000567   200011 631500                    EPPR1   COMMAND$,,AUTO
         2 000570   200027 451500                    STP1    BUILT_MES+13,,AUTO
         2 000571   000013 236000 3                  LDQ     11
         2 000572   200026 756100                    STQ     BUILT_MES+12,,AUTO
         2 000573   200026 630500                    EPPR0   BUILT_MES+12,,AUTO
         2 000574   000021 631400 xsym               EPPR1   B_VECTNIL+17
         2 000575   000000 701000 xent               TSX1    DOIO
         2 000576   000000 011000                    NOP     0

      563     1998    4                         IF (DEVINFO.BSTAT.W1.H1(0)&'777705'O)='400000'O&

   1998  2 000577   000004 220000 xsym               LDX0    DEVINFO+4
         2 000600   777705 360003                    ANX0    -59,DU
         2 000601   400000 221003                    LDX1    -131072,DU
         2 000602   400000 100003                    CMPX0   -131072,DU
         2 000603   000605 600000 2                  TZE     s:1998+6
PL6.E3A0      #002=PUSSYCAT_PL6 File=ISI$IOPROC.:E05TSI                          TUE 07/29/97 22:52 Page:97
         2 000604   000000 221003                    LDX1    0,DU
         2 000605   400000 220003                    LDX0    -131072,DU
         2 000606   000004 236000 xsym               LDQ     DEVINFO+4
         2 000607   700000 316007                    CANQ    -32768,DL
         2 000610   000612 600000 2                  TZE     s:1998+11
         2 000611   000000 220003                    LDX0    0,DU
         2 000612   000000 636010                    EAQ     0,X0
         2 000613   200026 756100                    STQ     BUILT_MES+12,,AUTO
         2 000614   000000 636011                    EAQ     0,X1
         2 000615   200026 376100                    ANQ     BUILT_MES+12,,AUTO
         2 000616   400000 220003                    LDX0    -131072,DU
         2 000617   200027 756100                    STQ     BUILT_MES+13,,AUTO
         2 000620   000004 236000 xsym               LDQ     DEVINFO+4
         2 000621   070000 316007                    CANQ    28672,DL
         2 000622   000624 600000 2                  TZE     s:1998+21
         2 000623   000000 220003                    LDX0    0,DU
         2 000624   000000 636010                    EAQ     0,X0
         2 000625   200027 376100                    ANQ     BUILT_MES+13,,AUTO
         2 000626   000636 601000 2                  TNZ     OCFOUND

      564     1999    4                           DEVINFO.STATUS.IOM_CHAN_STAT(0)='0'B&DEVINFO.STATUS.
              1999                                    IOM_CENT_STAT(0)='0'B THEN GOTO OCFOUND;
      565     2000    4                           ELSE;
      566     2001    4                       END;                /* DO                                 */

   2001  2 000627   200010 235100                    LDA     I,,AUTO
         2 000630   000001 035007                    ADLA    1,DL
         2 000631   200010 755100                    STA     I,,AUTO
         2 000632   200003 236100                    LDQ     HIGHEST_CHAN,,AUTO
         2 000633   200010 116100                    CMPQ    I,,AUTO
         2 000634   000562 603000 2                  TRC     s:1996

      567     2002        /* OC not found , try again */
      568     2003    3                       GOTO FINDOC;

   2003  2 000635   000557 710000 2                  TRA     FINDOC

PL6.E3A0      #002=PUSSYCAT_PL6 File=ISI$IOPROC.:E05TSI                          TUE 07/29/97 22:52 Page:98
   1999  2 000636                       OCFOUND      null
      569     2004    3                     END;                  /* ELSE                               */
      570     2005    2               END;
      571     2006    1   OCFOUND:;
      572     2007    1           CALL BINCHAR(SUBSTR(DEVINFO.DEVNAME(0),5,3),I);

   2007  2 000636   200010 235100                    LDA     I,,AUTO
         2 000637   000044 773000                    LRL     36
         2 000640   200026 757100                    STAQ    BUILT_MES+12,,AUTO
         2 000641   000000 301500                    BTD
         2 000642   200026 000010                    NDSC9   BUILT_MES+12,,AUTO       cn=0,s=lsgnf,sf=0,n=8
         2 000643   000007 230003 xsym               NDSC9   DEVINFO+7                cn=1,s=nosgn,sf=0,n=3

      573     2008    1           BUILT_MES.TXT = AARDVARK_NAME;

   2008  2 000644   040100 100400                    MLR     fill='040'O
         2 000645   000000 000011 1                  ADSC9   AARDVARK_NAME            cn=0,n=9
         2 000646   200013 000050                    ADSC9   BUILT_MES+1,,AUTO        cn=0,n=40

      574     2009    1           SUBSTR(BUILT_MES.TXT,LENGTHC(AARDVARK_NAME),B_VERSION.L) = B_VERSION.C;

   2009  2 000647   000000 236000 xsym               LDQ     B_VERSION
         2 000650   000033 772000                    QRL     27
         2 000651   000000 620006                    EAX0    0,QL
         2 000652   000000 236000 xsym               LDQ     B_VERSION
         2 000653   000033 772000                    QRL     27
         2 000654   000000 621006                    EAX1    0,QL
         2 000655   040140 100440                    MLR     fill='040'O
         2 000656   000000 200011 xsym               ADSC9   B_VERSION                cn=1,n=*X1
         2 000657   200015 200010                    ADSC9   BUILT_MES+3,,AUTO        cn=1,n=*X0

      575     2010    1           SUBSTR(BUILT_MES.TXT,B_VERSION.L+LENGTHC(AARDVARK_NAME),LENGTHC(
              2010                    AARDVARK_SERVICE)) =AARDVARK_SERVICE;

   2010  2 000660   040106 100400                    MLR     fill='040'O
         2 000661   000003 000020 1                  ADSC9   AARDVARK_SERVICE         cn=0,n=16
         2 000662   200015 200020                    ADSC9   BUILT_MES+3,Q,AUTO       cn=1,n=16
PL6.E3A0      #002=PUSSYCAT_PL6 File=ISI$IOPROC.:E05TSI                          TUE 07/29/97 22:52 Page:99

      576     2011    1           BUILT_MES.CNT = LENGTHC(AARDVARK_NAME) + LENGTHC(AARDVARK_SERVICE) +
              2011                    B_VERSION.L ;

   2011  2 000663   000031 036007                    ADLQ    25,DL
         2 000664   200012 756100                    STQ     BUILT_MES,,AUTO

      577     2012    1           CALL TYPEC(BUILT_MES);

   2012  2 000665   200012 630500                    EPPR0   BUILT_MES,,AUTO
         2 000666   200026 450500                    STP0    BUILT_MES+12,,AUTO
         2 000667   200026 630500                    EPPR0   BUILT_MES+12,,AUTO
         2 000670   000017 631400 xsym               EPPR1   B_VECTNIL+15
         2 000671   000000 701000 xent               TSX1    TYPEC
         2 000672   000000 011000                    NOP     0

      578     2013        /* Find out what kind of boot this is to be */
      579     2014    1   TBDBOR:
      580     2015    1           RCV_FLG='0'B;

   2015  2 000673   000000 450000 xsym  TBDBOR       STZ     RCV_FLG

      581     2016    1           CALL KEYIN(TBDBORQ,ANSBUF);

   2016  2 000674   000014 630400 3                  EPPR0   12
         2 000675   000020 631400 xsym               EPPR1   B_VECTNIL+16
         2 000676   000000 701000 xent               TSX1    KEYIN
         2 000677   000000 011000                    NOP     0

      582     2017    1           IF SUBSTR(ANSBUF.TXT,0,1)='?'THEN GOTO ITSHELP;

   2017  2 000700   000001 236000 xsym               LDQ     ANSBUF+1
         2 000701   777000 376003                    ANQ     -512,DU
         2 000702   077000 116003                    CMPQ    32256,DU
         2 000703   000761 600000 2                  TZE     ITSHELP

      583     2018    1             ELSE;
PL6.E3A0      #002=PUSSYCAT_PL6 File=ISI$IOPROC.:E05TSI                          TUE 07/29/97 22:52 Page:100
      584     2019    1           CALL UPPER_CASE(ANSBUF.TXT,2);

   2019  2 000704   000016 630400 3                  EPPR0   14
         2 000705   000020 631400 xsym               EPPR1   B_VECTNIL+16
         2 000706   000000 701000 xent               TSX1    UPPER_CASE
         2 000707   000000 011000                    NOP     0

      585     2020    2           DO SELECT(SUBSTR(ANSBUF.TXT,0,2));

   2020  2 000710   000001 220000 xsym               LDX0    ANSBUF+1
         2 000711   000014 100000 1                  CMPX0   AARDVARK_SERVICE+9
         2 000712   000722 602000 2                  TNC     s:2020+10
         2 000713   000731 600000 2                  TZE     s:2027
         2 000714   000015 100000 1                  CMPX0   AARDVARK_SERVICE+10
         2 000715   000753 602000 2                  TNC     s:2037
         2 000716   000725 600000 2                  TZE     s:2022
         2 000717   000016 100000 1                  CMPX0   AARDVARK_SERVICE+11
         2 000720   000753 601000 2                  TNZ     s:2037
         2 000721   000750 710000 2                  TRA     s:2034
         2 000722   000017 100000 1                  CMPX0   AARDVARK_SERVICE+12
         2 000723   000753 601000 2                  TNZ     s:2037
         2 000724   000726 710000 2                  TRA     s:2024

      586     2021    2             SELECT('TB');

      587     2022    2             GOTO ITSTB;

   2022  2 000725   000754 710000 2                  TRA     ITSTB

      588     2023    2             SELECT('DB');

      589     2024    2             ORDBFLG.DBF='1'B;

   2024  2 000726   200000 236003                    LDQ     65536,DU
         2 000727   000000 256000 xsym               ORSQ    ORDBFLG

      590     2025    2             GOTO Q2;
PL6.E3A0      #002=PUSSYCAT_PL6 File=ISI$IOPROC.:E05TSI                          TUE 07/29/97 22:52 Page:101

   2025  2 000730   000766 710000 2                  TRA     Q2

      591     2026    2             SELECT('OR');

      592     2027    2             ORDBFLG.ORF='1'B;

   2027  2 000731   400000 236003                    LDQ     -131072,DU
         2 000732   000000 256000 xsym               ORSQ    ORDBFLG

      593     2028    3             IF RPM_FLG THEN DO;

   2028  2 000733   000000 234000 xsym               SZN     RPM_FLG
         2 000734   000747 605000 2                  TPL     s:2032

      594     2029    3                   I = RPM_BOOTIN.IMX#;

   2029  2 000735   000000 236000 xsym               LDQ     RPM_BOOTIN
         2 000736   000011 772000                    QRL     9
         2 000737   000003 376007                    ANQ     3,DL
         2 000740   200010 756100                    STQ     I,,AUTO

      595     2030    3                   CALL DO_RPM_TIME(I);

   2030  2 000741   200010 630500                    EPPR0   I,,AUTO
         2 000742   200026 450500                    STP0    BUILT_MES+12,,AUTO
         2 000743   200026 630500                    EPPR0   BUILT_MES+12,,AUTO
         2 000744   000017 631400 xsym               EPPR1   B_VECTNIL+15
         2 000745   000000 701000 xent               TSX1    DO_RPM_TIME
         2 000746   000000 011000                    NOP     0

      596     2031    3                 END;

      597     2032    2             GOTO Q2;

   2032  2 000747   000766 710000 2                  TRA     Q2

PL6.E3A0      #002=PUSSYCAT_PL6 File=ISI$IOPROC.:E05TSI                          TUE 07/29/97 22:52 Page:102
      598     2033    2             SELECT('VO');

      599     2034    2             VOFLG='1'B;

   2034  2 000750   400000 236003                    LDQ     -131072,DU
         2 000751   000000 756000 xsym               STQ     VOFLG

      600     2035    2             GOTO ITSTB;

   2035  2 000752   000754 710000 2                  TRA     ITSTB

      601     2036    2             SELECT(ELSE);

      602     2037    2           GOTO TBDBOR;

   2037  2 000753   000673 710000 2                  TRA     TBDBOR

      603     2038    2           END;                            /* DO SELECT                          */

      604     2039    1   ITSTB:
      605     2040    1           TIGRPA='0'B; /* Make sure !TIGR,!MON,!RUM,!PLOVER get written later   */

   2040  2 000754   000000 450000 xsym  ITSTB        STZ     TIGRPA

      606     2041    1           MONPA='0'B;

   2041  2 000755   000000 450000 xsym               STZ     MONPA

      607     2042    1           RUMPA='0'B;

   2042  2 000756   000000 450000 xsym               STZ     RUMPA

      608     2043    1           PLVPA='0'B;

   2043  2 000757   000000 450000 xsym               STZ     PLVPA

      609     2044    1           GOTO Q1;
PL6.E3A0      #002=PUSSYCAT_PL6 File=ISI$IOPROC.:E05TSI                          TUE 07/29/97 22:52 Page:103

   2044  2 000760   000773 710000 2                  TRA     Q1

      610     2045    1   ITSHELP:
      611     2046    1           CALL TYPEC(HUHHH);

   2046  2 000761   000020 630400 3     ITSHELP      EPPR0   16
         2 000762   000017 631400 xsym               EPPR1   B_VECTNIL+15
         2 000763   000000 701000 xent               TSX1    TYPEC
         2 000764   000000 011000                    NOP     0

      612     2047    1           GOTO TBDBOR;

   2047  2 000765   000673 710000 2                  TRA     TBDBOR

      613     2048    1   Q2:
      614     2049    1           CALL KEYIN(Q2Q,ANSBUF);

   2049  2 000766   000021 630400 3     Q2           EPPR0   17
         2 000767   000020 631400 xsym               EPPR1   B_VECTNIL+16
         2 000770   000000 701000 xent               TSX1    KEYIN
         2 000771   000000 011000                    NOP     0

      615     2050    1           GOTO Q01;

   2050  2 000772   000777 710000 2                  TRA     Q01

      616     2051    1   Q1:
      617     2052    1           CALL KEYIN(Q1Q,ANSBUF);

   2052  2 000773   000023 630400 3     Q1           EPPR0   19
         2 000774   000020 631400 xsym               EPPR1   B_VECTNIL+16
         2 000775   000000 701000 xent               TSX1    KEYIN
         2 000776   000000 011000                    NOP     0

      618     2053    1   Q01:
      619     2054    1           ADPXF='0'B;
PL6.E3A0      #002=PUSSYCAT_PL6 File=ISI$IOPROC.:E05TSI                          TUE 07/29/97 22:52 Page:104

   2054  2 000777   000000 450000 xsym  Q01          STZ     ADPXF

      620     2055    1           CALL GETFD(ANSBUF.TXT,16) ALTRET(CAT9E);/* Default=NO */;

   2055  2 001000   000026 630400 3                  EPPR0   22
         2 001001   000020 631400 xsym               EPPR1   B_VECTNIL+16
         2 001002   000000 701000 xent               TSX1    GETFD
         2 001003   001733 702000 2                  TSX2    CAT9E

      621     2056    2           DO SELECT(SUBSTR(ANSBUF.TXT,0,1));

   2056  2 001004   000001 236000 xsym               LDQ     ANSBUF+1
         2 001005   777000 376003                    ANQ     -512,DU
         2 001006   116000 116003                    CMPQ    39936,DU
         2 001007   001036 602000 2                  TNC     s:2056+26
         2 001010   000001 236000 xsym               LDQ     ANSBUF+1
         2 001011   777000 376003                    ANQ     -512,DU
         2 001012   116000 116003                    CMPQ    39936,DU
         2 001013   001047 600000 2                  TZE     s:2061
         2 001014   000001 236000 xsym               LDQ     ANSBUF+1
         2 001015   777000 376003                    ANQ     -512,DU
         2 001016   156000 116003                    CMPQ    56320,DU
         2 001017   001031 602000 2                  TNC     s:2056+21
         2 001020   000001 236000 xsym               LDQ     ANSBUF+1
         2 001021   777000 376003                    ANQ     -512,DU
         2 001022   156000 116003                    CMPQ    56320,DU
         2 001023   001047 600000 2                  TZE     s:2061
         2 001024   000001 236000 xsym               LDQ     ANSBUF+1
         2 001025   777000 376003                    ANQ     -512,DU
         2 001026   171000 116003                    CMPQ    61952,DU
         2 001027   001061 601000 2                  TNZ     s:2066
         2 001030   001050 710000 2                  TRA     s:2063
         2 001031   000001 236000 xsym               LDQ     ANSBUF+1
         2 001032   777000 376003                    ANQ     -512,DU
         2 001033   131000 116003                    CMPQ    45568,DU
         2 001034   001061 601000 2                  TNZ     s:2066
PL6.E3A0      #002=PUSSYCAT_PL6 File=ISI$IOPROC.:E05TSI                          TUE 07/29/97 22:52 Page:105
         2 001035   001050 710000 2                  TRA     s:2063
         2 001036   000001 236000 xsym               LDQ     ANSBUF+1
         2 001037   777000 376003                    ANQ     -512,DU
         2 001040   077000 116003                    CMPQ    32256,DU
         2 001041   001061 601000 2                  TNZ     s:2066
         2 001042   001043 710000 2                  TRA     s:2058

      622     2057    2             SELECT('?');

      623     2058    2             IF ORDBFLG='0'B THEN GOTO HELPTB;

   2058  2 001043   000000 236000 xsym               LDQ     ORDBFLG
         2 001044   600000 316003                    CANQ    -65536,DU
         2 001045   002076 600000 2                  TZE     HELPTB

      624     2059    2               ELSE GOTO HELPDBOR;

   2059  2 001046   002102 710000 2                  TRA     HELPDBOR

      625     2060    2             SELECT('N','n');

      626     2061    2             GOTO CAT9E;                   /* Establish return procedure         */

   2061  2 001047   001733 710000 2                  TRA     CAT9E

      627     2062    2             SELECT('Y','y');

      628     2063    2             IF ORDBFLG='0'B THEN ADPXF='11111'B;

   2063  2 001050   000000 236000 xsym               LDQ     ORDBFLG
         2 001051   600000 316003                    CANQ    -65536,DU
         2 001052   001056 601000 2                  TNZ     s:2064

   2063  2 001053   760000 236003                    LDQ     -8192,DU
         2 001054   000000 756000 xsym               STQ     ADPXF
         2 001055   001221 710000 2                  TRA     s:2097

PL6.E3A0      #002=PUSSYCAT_PL6 File=ISI$IOPROC.:E05TSI                          TUE 07/29/97 22:52 Page:106
      629     2064    2               ELSE ADPXF.D='1'B;

   2064  2 001056   200000 236003                    LDQ     65536,DU
         2 001057   000000 256000 xsym               ORSQ    ADPXF
         2 001060   001221 710000 2                  TRA     s:2097

      630     2065    2             SELECT(ELSE);

      631     2066    3           DO I=0 TO 15;

   2066  2 001061   200010 450100                    STZ     I,,AUTO

      632     2067    4             DO SELECT(SUBSTR(ANSBUF.TXT,I,1));

   2067  2 001062   200010 235100                    LDA     I,,AUTO
         2 001063   040000 106405                    CMPC    fill='040'O
         2 001064   000001 000001 xsym               ADSC9   ANSBUF+1,A               cn=0,n=1
         2 001065   000035 000001 xsym               ADSC9   B_VECTNIL+29             cn=0,n=1
         2 001066   001101 602000 2                  TNC     s:2072
         2 001067   001075 600000 2                  TZE     s:2068
         2 001070   040000 106405                    CMPC    fill='040'O
         2 001071   000001 000001 xsym               ADSC9   ANSBUF+1,A               cn=0,n=1
         2 001072   000030 000001 3                  ADSC9   24                       cn=0,n=1
         2 001073   001101 601000 2                  TNZ     s:2072
         2 001074   001076 710000 2                  TRA     s:2070

      633     2068    4               SELECT(' ');

   2068  2 001075   001215 710000 2                  TRA     s:2095

      634     2069    4               SELECT('*');

      635     2070    4               MDELTAFLG=1;

   2070  2 001076   000001 236007                    LDQ     1,DL
         2 001077   000007 756000 0                  STQ     MDELTAFLG
         2 001100   001215 710000 2                  TRA     s:2095
PL6.E3A0      #002=PUSSYCAT_PL6 File=ISI$IOPROC.:E05TSI                          TUE 07/29/97 22:52 Page:107

      636     2071    4               SELECT(ELSE);

      637     2072    4             CALL UPPER_CASE(SUBSTR(ANSBUF.TXT,I),1);

   2072  2 001101   000031 236000 3                  LDQ     25
         2 001102   200027 756100                    STQ     BUILT_MES+13,,AUTO
         2 001103   200010 236100                    LDQ     I,,AUTO
         2 001104   000020 736000                    QLS     16
         2 001105   000016 036000 3                  ADLQ    14
         2 001106   200026 756100                    STQ     BUILT_MES+12,,AUTO
         2 001107   200026 630500                    EPPR0   BUILT_MES+12,,AUTO
         2 001110   000020 631400 xsym               EPPR1   B_VECTNIL+16
         2 001111   000000 701000 xent               TSX1    UPPER_CASE
         2 001112   000000 011000                    NOP     0

      638     2073    5             DO SELECT(SUBSTR(ANSBUF.TXT,I,1));

   2073  2 001113   200010 235100                    LDA     I,,AUTO
         2 001114   040000 106405                    CMPC    fill='040'O
         2 001115   000001 000001 xsym               ADSC9   ANSBUF+1,A               cn=0,n=1
         2 001116   000032 000001 3                  ADSC9   26                       cn=0,n=1
         2 001117   001134 602000 2                  TNC     s:2073+17
         2 001120   001164 600000 2                  TZE     s:2080
         2 001121   040000 106405                    CMPC    fill='040'O
         2 001122   000001 000001 xsym               ADSC9   ANSBUF+1,A               cn=0,n=1
         2 001123   000033 000001 3                  ADSC9   27                       cn=0,n=1
         2 001124   001127 602000 2                  TNC     s:2073+12
         2 001125   001172 600000 2                  TZE     s:2083
         2 001126   001211 710000 2                  TRA     s:2091
         2 001127   040000 106405                    CMPC    fill='040'O
         2 001130   000001 000001 xsym               ADSC9   ANSBUF+1,A               cn=0,n=1
         2 001131   000034 000001 3                  ADSC9   28                       cn=0,n=1
         2 001132   001211 601000 2                  TNZ     s:2091
         2 001133   001206 710000 2                  TRA     s:2089
         2 001134   040000 106405                    CMPC    fill='040'O
         2 001135   000001 000001 xsym               ADSC9   ANSBUF+1,A               cn=0,n=1
PL6.E3A0      #002=PUSSYCAT_PL6 File=ISI$IOPROC.:E05TSI                          TUE 07/29/97 22:52 Page:108
         2 001136   000035 000001 3                  ADSC9   29                       cn=0,n=1
         2 001137   001146 602000 2                  TNC     s:2073+27
         2 001140   001161 600000 2                  TZE     s:2078
         2 001141   040000 106405                    CMPC    fill='040'O
         2 001142   000001 000001 xsym               ADSC9   ANSBUF+1,A               cn=0,n=1
         2 001143   000036 000001 3                  ADSC9   30                       cn=0,n=1
         2 001144   001211 601000 2                  TNZ     s:2091
         2 001145   001200 710000 2                  TRA     s:2086
         2 001146   040000 106405                    CMPC    fill='040'O
         2 001147   000001 000001 xsym               ADSC9   ANSBUF+1,A               cn=0,n=1
         2 001150   000037 000001 3                  ADSC9   31                       cn=0,n=1
         2 001151   001211 601000 2                  TNZ     s:2091
         2 001152   001153 710000 2                  TRA     s:2075

      639     2074    5               SELECT('A');

      640     2075    5               IF ORDBFLG~='0'B THEN GOTO Q2;

   2075  2 001153   000000 236000 xsym               LDQ     ORDBFLG
         2 001154   600000 316003                    CANQ    -65536,DU
         2 001155   000766 601000 2                  TNZ     Q2

      641     2076    5                 ELSE ADPXF.A='1'B;

   2076  2 001156   400000 236003                    LDQ     -131072,DU
         2 001157   000000 256000 xsym               ORSQ    ADPXF
         2 001160   001215 710000 2                  TRA     s:2095

      642     2077    5               SELECT('D');

      643     2078    5               ADPXF.D='1'B;

   2078  2 001161   200000 236003                    LDQ     65536,DU
         2 001162   000000 256000 xsym               ORSQ    ADPXF
         2 001163   001215 710000 2                  TRA     s:2095

      644     2079    5               SELECT('P');
PL6.E3A0      #002=PUSSYCAT_PL6 File=ISI$IOPROC.:E05TSI                          TUE 07/29/97 22:52 Page:109

      645     2080    5               IF ORDBFLG~='0'B THEN GOTO Q2;

   2080  2 001164   000000 236000 xsym               LDQ     ORDBFLG
         2 001165   600000 316003                    CANQ    -65536,DU
         2 001166   000766 601000 2                  TNZ     Q2

      646     2081    5                 ELSE ADPXF.P='1'B;

   2081  2 001167   100000 236003                    LDQ     32768,DU
         2 001170   000000 256000 xsym               ORSQ    ADPXF
         2 001171   001215 710000 2                  TRA     s:2095

      647     2082    5               SELECT('X');

      648     2083    5               IF ORDBFLG~='0'B THEN GOTO Q2;

   2083  2 001172   000000 236000 xsym               LDQ     ORDBFLG
         2 001173   600000 316003                    CANQ    -65536,DU
         2 001174   000766 601000 2                  TNZ     Q2

      649     2084    5                 ELSE ADPXF.X='1'B;

   2084  2 001175   040000 236003                    LDQ     16384,DU
         2 001176   000000 256000 xsym               ORSQ    ADPXF
         2 001177   001215 710000 2                  TRA     s:2095

      650     2085    5               SELECT('F');

      651     2086    5               IF ORDBFLG~='0'B THEN GOTO Q2;

   2086  2 001200   000000 236000 xsym               LDQ     ORDBFLG
         2 001201   600000 316003                    CANQ    -65536,DU
         2 001202   000766 601000 2                  TNZ     Q2

      652     2087    5                 ELSE ADPXF.F='1'B;

PL6.E3A0      #002=PUSSYCAT_PL6 File=ISI$IOPROC.:E05TSI                          TUE 07/29/97 22:52 Page:110
   2087  2 001203   020000 236003                    LDQ     8192,DU
         2 001204   000000 256000 xsym               ORSQ    ADPXF
         2 001205   001215 710000 2                  TRA     s:2095

      653     2088    5               SELECT('S');

      654     2089    5               SILENT='1'B;                /* Don't write FW names               */

   2089  2 001206   400000 236003                    LDQ     -131072,DU
         2 001207   000012 756000 0                  STQ     SILENT
         2 001210   001215 710000 2                  TRA     s:2095

      655     2090    5               SELECT(ELSE);

      656     2091    5             IF ORDBFLG='0'B THEN GOTO Q1;

   2091  2 001211   000000 236000 xsym               LDQ     ORDBFLG
         2 001212   600000 316003                    CANQ    -65536,DU
         2 001213   000773 600000 2                  TZE     Q1

      657     2092    5               ELSE GOTO Q2;

   2092  2 001214   000766 710000 2                  TRA     Q2

      658     2093    5             END;                          /* DO SELECT                          */

      659     2094    4             END;                          /* DO SELECT                          */

      660     2095    3           END;                            /* DO I=                              */

   2095  2 001215   000001 035007                    ADLA    1,DL
         2 001216   200010 755100                    STA     I,,AUTO
         2 001217   000020 115007                    CMPA    16,DL
         2 001220   001062 602000 2                  TNC     s:2067

      661     2096    2           END;                            /* DO SELECT                          */

PL6.E3A0      #002=PUSSYCAT_PL6 File=ISI$IOPROC.:E05TSI                          TUE 07/29/97 22:52 Page:111
      662     2097    1           IF ADPXF.D='0'B THEN GOTO CAT9E; /* Establish return                  */

   2097  2 001221   000000 236000 xsym               LDQ     ADPXF
         2 001222   200000 316003                    CANQ    65536,DU
         2 001223   001733 600000 2                  TZE     CAT9E

      663     2098    1             ELSE;
      664     2099    1   CAT5:
      665     2100    1           CALL KEYIN(CATQU,ANSBUF);       /* Ask about URC devices              */

   2100  2 001224   000040 630400 3     CAT5         EPPR0   32
         2 001225   000020 631400 xsym               EPPR1   B_VECTNIL+16
         2 001226   000000 701000 xent               TSX1    KEYIN
         2 001227   000000 011000                    NOP     0

      666     2101    1           CALL GETFD(ANSBUF.TXT,16) ALTRET(CAT9); /* Default=YES                */

   2101  2 001230   000026 630400 3                  EPPR0   22
         2 001231   000020 631400 xsym               EPPR1   B_VECTNIL+16
         2 001232   000000 701000 xent               TSX1    GETFD
         2 001233   001657 702000 2                  TSX2    CAT9

      667     2102    1           CALL UPPER_CASE(ANSBUF.TXT,1);

   2102  2 001234   000042 630400 3                  EPPR0   34
         2 001235   000020 631400 xsym               EPPR1   B_VECTNIL+16
         2 001236   000000 701000 xent               TSX1    UPPER_CASE
         2 001237   000000 011000                    NOP     0

      668     2103    2           DO SELECT(SUBSTR(ANSBUF.TXT,0,1));

   2103  2 001240   000001 236000 xsym               LDQ     ANSBUF+1
         2 001241   777000 376003                    ANQ     -512,DU
         2 001242   131000 116003                    CMPQ    45568,DU
         2 001243   001251 602000 2                  TNC     s:2103+9
         2 001244   000001 236000 xsym               LDQ     ANSBUF+1
         2 001245   777000 376003                    ANQ     -512,DU
PL6.E3A0      #002=PUSSYCAT_PL6 File=ISI$IOPROC.:E05TSI                          TUE 07/29/97 22:52 Page:112
         2 001246   131000 116003                    CMPQ    45568,DU
         2 001247   001256 600000 2                  TZE     s:2105
         2 001250   001260 710000 2                  TRA     s:2108
         2 001251   000001 236000 xsym               LDQ     ANSBUF+1
         2 001252   777000 376003                    ANQ     -512,DU
         2 001253   116000 116003                    CMPQ    39936,DU
         2 001254   001260 601000 2                  TNZ     s:2108
         2 001255   001257 710000 2                  TRA     s:2106

      669     2104    2             SELECT('Y');

      670     2105    2             GOTO CAT9;

   2105  2 001256   001657 710000 2                  TRA     CAT9

      671     2106    2             SELECT('N');

   2106  2 001257   001261 710000 2                  TRA     CAT6

      672     2107    2             SELECT(ELSE);

      673     2108    2           GOTO CAT5;

   2108  2 001260   001224 710000 2                  TRA     CAT5

      674     2109    2           END;                            /* DO SELECT                          */

   2103  2 001261                       CAT6         null
      675     2110    1   CAT6:   ;                               /* Ask about base chann               */
      676     2111    1           CALL KEYIN(CATQCH,ANSBUF);

   2111  2 001261   000044 630400 3                  EPPR0   36
         2 001262   000020 631400 xsym               EPPR1   B_VECTNIL+16
         2 001263   000000 701000 xent               TSX1    KEYIN
         2 001264   000000 011000                    NOP     0

      677     2112    1           CALL GETFD(ANSBUF.TXT,16) ALTRET(CAT6E); /* Default OK                */
PL6.E3A0      #002=PUSSYCAT_PL6 File=ISI$IOPROC.:E05TSI                          TUE 07/29/97 22:52 Page:113

   2112  2 001265   000026 630400 3                  EPPR0   22
         2 001266   000020 631400 xsym               EPPR1   B_VECTNIL+16
         2 001267   000000 701000 xent               TSX1    GETFD
         2 001270   001305 702000 2                  TSX2    CAT6E

      678     2113    1           IF ALPHA_FLG='1'B THEN GOTO CAT6; /* It has to be decimal             */

   2113  2 001271   000000 234000 xsym               SZN     ALPHA_FLG
         2 001272   001261 604000 2                  TMI     CAT6

      679     2114    1             ELSE;
      680     2115    1           CALL CHARBIN(URCHN,SUBSTR(ANS,0,FIELD_LEN));

   2115  2 001273   000000 470400 xsym               LDP0    FIELD$
         2 001274   000000 720000 xsym               LXL0    FIELD_LEN
         2 001275   000100 305540                    DTB
         2 001276   000000 030010                    NDSC9   0,,PR0                   cn=0,s=nosgn,sf=0,n=*X0
         2 001277   200026 000010                    NDSC9   BUILT_MES+12,,AUTO       cn=0,s=lsgnf,sf=0,n=8
         2 001300   200027 235100                    LDA     BUILT_MES+13,,AUTO
         2 001301   000004 755000 0                  STA     URCHN

      681     2116    1           IF URCHN>HIGHEST_CHAN THEN GOTO CAT6;

   2116  2 001302   200003 236100                    LDQ     HIGHEST_CHAN,,AUTO
         2 001303   000004 116000 0                  CMPQ    URCHN
         2 001304   001261 602000 2                  TNC     CAT6

      682     2117    1             ELSE;
      683     2118    1   CAT6E:
      684     2119    2           DO I=%OC# TO %(OC#+LP#-1);      /* Ask about LPs                      */

   2119  2 001305   000001 235007       CAT6E        LDA     1,DL
         2 001306   200010 755100                    STA     I,,AUTO

      685     2120    2   CAT7:
      686     2121    2             BUILT_MES.TXT = ' ';
PL6.E3A0      #002=PUSSYCAT_PL6 File=ISI$IOPROC.:E05TSI                          TUE 07/29/97 22:52 Page:114

   2121  2 001307   040100 100400       CAT7         MLR     fill='040'O
         2 001310   000035 000001 xsym               ADSC9   B_VECTNIL+29             cn=0,n=1
         2 001311   200013 000050                    ADSC9   BUILT_MES+1,,AUTO        cn=0,n=40

      687     2122    2             SUBSTR(BUILT_MES.TXT,2)=DEVINFO.DEVNAME(I);

   2122  2 001312   200010 236100                    LDQ     I,,AUTO
         2 001313   000060 402007                    MPY     48,DL
         2 001314   040100 100406                    MLR     fill='040'O
         2 001315   000006 000010 xsym               ADSC9   DEVINFO+6,Q              cn=0,n=8
         2 001316   200013 400046                    ADSC9   BUILT_MES+1,,AUTO        cn=2,n=38

      688     2123    2             SUBSTR(BUILT_MES.TXT,10)='=LP ';

   2123  2 001317   040100 100400                    MLR     fill='040'O
         2 001320   000020 000004 1                  ADSC9   AARDVARK_SERVICE+13      cn=0,n=4
         2 001321   200015 400036                    ADSC9   BUILT_MES+3,,AUTO        cn=2,n=30

      689     2124    2             BUILT_MES.CNT=10+4;

   2124  2 001322   000016 235007                    LDA     14,DL
         2 001323   200012 755100                    STA     BUILT_MES,,AUTO

      690     2125    2   CAT7A:
      691     2126    2             CALL KEYIN(BUILT_MES,ANSBUF);

   2126  2 001324   000015 236000 3     CAT7A        LDQ     13
         2 001325   200027 756100                    STQ     BUILT_MES+13,,AUTO
         2 001326   200012 630500                    EPPR0   BUILT_MES,,AUTO
         2 001327   200026 450500                    STP0    BUILT_MES+12,,AUTO
         2 001330   200026 630500                    EPPR0   BUILT_MES+12,,AUTO
         2 001331   000020 631400 xsym               EPPR1   B_VECTNIL+16
         2 001332   000000 701000 xent               TSX1    KEYIN
         2 001333   000000 011000                    NOP     0

      692     2127    2             CALL GETFD(ANSBUF.TXT,16) ALTRET(CAT7E); /* Default OK              */
PL6.E3A0      #002=PUSSYCAT_PL6 File=ISI$IOPROC.:E05TSI                          TUE 07/29/97 22:52 Page:115

   2127  2 001334   000026 630400 3                  EPPR0   22
         2 001335   000020 631400 xsym               EPPR1   B_VECTNIL+16
         2 001336   000000 701000 xent               TSX1    GETFD
         2 001337   001465 702000 2                  TSX2    CAT7E

      693     2128    2             IF ALPHA_FLG='1'B THEN GOTO CAT7A; /* It has to be decimal          */

   2128  2 001340   000000 234000 xsym               SZN     ALPHA_FLG
         2 001341   001324 604000 2                  TMI     CAT7A

      694     2129    2             CALL CHARBIN(CHG_IOM,SUBSTR(ANS,0,FIELD_LEN));

   2129  2 001342   000000 470400 xsym               LDP0    FIELD$
         2 001343   000000 720000 xsym               LXL0    FIELD_LEN
         2 001344   000100 305540                    DTB
         2 001345   000000 030010                    NDSC9   0,,PR0                   cn=0,s=nosgn,sf=0,n=*X0
         2 001346   200026 000010                    NDSC9   BUILT_MES+12,,AUTO       cn=0,s=lsgnf,sf=0,n=8
         2 001347   200027 235100                    LDA     BUILT_MES+13,,AUTO
         2 001350   200006 755100                    STA     CHG_IOM,,AUTO

      695     2130    2             IF CHG_IOM>%HIGHEST_IOM THEN GOTO CAT7A;

   2130  2 001351   000004 115007                    CMPA    4,DL
         2 001352   001324 603000 2                  TRC     CAT7A

      696     2131    2             IF RPM_FLG THEN

   2131  2 001353   000000 234000 xsym               SZN     RPM_FLG
         2 001354   001370 605000 2                  TPL     s:2134

      697     2132    2               IF CHG_IOM ~= RPM_BOOTIN.IMX# THEN

   2132  2 001355   000000 236000 xsym               LDQ     RPM_BOOTIN
         2 001356   000011 772000                    QRL     9
         2 001357   000003 376007                    ANQ     3,DL
         2 001360   200006 116100                    CMPQ    CHG_IOM,,AUTO
PL6.E3A0      #002=PUSSYCAT_PL6 File=ISI$IOPROC.:E05TSI                          TUE 07/29/97 22:52 Page:116
         2 001361   001370 600000 2                  TZE     s:2134

      698     2133    2                 CALL DO_RPM_CFG(CHG_IOM);

   2133  2 001362   200006 631500                    EPPR1   CHG_IOM,,AUTO
         2 001363   200026 451500                    STP1    BUILT_MES+12,,AUTO
         2 001364   200026 630500                    EPPR0   BUILT_MES+12,,AUTO
         2 001365   000017 631400 xsym               EPPR1   B_VECTNIL+15
         2 001366   000000 701000 xent               TSX1    DO_RPM_CFG
         2 001367   000000 011000                    NOP     0

      699     2134    2             CALL GETFD(SUBSTR(ANSBUF.TXT,FIELD_LEN+1),16-FIELD_LEN-1) ALTRET(CAT7A);

   2134  2 001370   000017 235007                    LDA     15,DL
         2 001371   000000 135000 xsym               SBLA    FIELD_LEN
         2 001372   200026 755100                    STA     BUILT_MES+12,,AUTO
         2 001373   200026 630500                    EPPR0   BUILT_MES+12,,AUTO
         2 001374   200031 450500                    STP0    BUILT_MES+15,,AUTO
         2 001375   000000 236000 xsym               LDQ     FIELD_LEN
         2 001376   000020 736000                    QLS     16
         2 001377   000046 036000 3                  ADLQ    38
         2 001400   200030 756100                    STQ     BUILT_MES+14,,AUTO
         2 001401   200030 630500                    EPPR0   BUILT_MES+14,,AUTO
         2 001402   000020 631400 xsym               EPPR1   B_VECTNIL+16
         2 001403   000000 701000 xent               TSX1    GETFD
         2 001404   001324 702000 2                  TSX2    CAT7A

      700     2135    2             IF ALPHA_FLG='1'B THEN GOTO CAT7A;

   2135  2 001405   000000 234000 xsym               SZN     ALPHA_FLG
         2 001406   001324 604000 2                  TMI     CAT7A

      701     2136    2               ELSE;
      702     2137    2             CALL CHARBIN(CHG_CHN,SUBSTR(ANS,0,FIELD_LEN));

   2137  2 001407   000000 470400 xsym               LDP0    FIELD$
         2 001410   000000 720000 xsym               LXL0    FIELD_LEN
PL6.E3A0      #002=PUSSYCAT_PL6 File=ISI$IOPROC.:E05TSI                          TUE 07/29/97 22:52 Page:117
         2 001411   000100 305540                    DTB
         2 001412   000000 030010                    NDSC9   0,,PR0                   cn=0,s=nosgn,sf=0,n=*X0
         2 001413   200026 000010                    NDSC9   BUILT_MES+12,,AUTO       cn=0,s=lsgnf,sf=0,n=8
         2 001414   200027 235100                    LDA     BUILT_MES+13,,AUTO
         2 001415   200007 755100                    STA     CHG_CHN,,AUTO

      703     2138    2             IF CHG_CHN>HIGHEST_CHAN THEN GOTO CAT7A;

   2138  2 001416   200003 236100                    LDQ     HIGHEST_CHAN,,AUTO
         2 001417   200007 116100                    CMPQ    CHG_CHN,,AUTO
         2 001420   001324 602000 2                  TNC     CAT7A

      704     2139    2             DEVINFO.IOM#(I) = CHG_IOM;

   2139  2 001421   200010 236100                    LDQ     I,,AUTO
         2 001422   000014 402007                    MPY     12,DL
         2 001423   000000 621006                    EAX1    0,QL
         2 001424   200006 236100                    LDQ     CHG_IOM,,AUTO
         2 001425   000023 736000                    QLS     19
         2 001426   000000 676011 xsym               ERQ     DEVINFO,X1
         2 001427   000006 376003                    ANQ     6,DU
         2 001430   000000 656011 xsym               ERSQ    DEVINFO,X1

      705     2140    2             DEVINFO.CHN#(I)=CHG_CHN;

   2140  2 001431   200007 236100                    LDQ     CHG_CHN,,AUTO
         2 001432   000033 736000                    QLS     27
         2 001433   000000 676011 xsym               ERQ     DEVINFO,X1
         2 001434   777000 376003                    ANQ     -512,DU
         2 001435   000000 656011 xsym               ERSQ    DEVINFO,X1

      706     2141    2             CALL BINCHAR(SUBSTR(DEVINFO.DEVNAME(I),3,1),DEVINFO.IOM#(I));

   2141  2 001436   200010 236100                    LDQ     I,,AUTO
         2 001437   000060 402007                    MPY     48,DL
         2 001440   200026 756100                    STQ     BUILT_MES+12,,AUTO
         2 001441   000000 236011 xsym               LDQ     DEVINFO,X1
PL6.E3A0      #002=PUSSYCAT_PL6 File=ISI$IOPROC.:E05TSI                          TUE 07/29/97 22:52 Page:118
         2 001442   000023 772000                    QRL     19
         2 001443   000003 376007                    ANQ     3,DL
         2 001444   000000 235003                    LDA     0,DU
         2 001445   200030 757100                    STAQ    BUILT_MES+14,,AUTO
         2 001446   200026 235100                    LDA     BUILT_MES+12,,AUTO
         2 001447   000005 301500                    BTD
         2 001450   200030 000010                    NDSC9   BUILT_MES+14,,AUTO       cn=0,s=lsgnf,sf=0,n=8
         2 001451   000006 630001 xsym               NDSC9   DEVINFO+6,A              cn=3,s=nosgn,sf=0,n=1

      707     2142    2             CALL BINCHAR(SUBSTR(DEVINFO.DEVNAME(I),5,3),DEVINFO.CHN#(I));

   2142  2 001452   200010 236100                    LDQ     I,,AUTO
         2 001453   000060 402007                    MPY     48,DL
         2 001454   200026 756100                    STQ     BUILT_MES+12,,AUTO
         2 001455   000000 236011 xsym               LDQ     DEVINFO,X1
         2 001456   000033 772000                    QRL     27
         2 001457   000000 235003                    LDA     0,DU
         2 001460   200030 757100                    STAQ    BUILT_MES+14,,AUTO
         2 001461   200026 235100                    LDA     BUILT_MES+12,,AUTO
         2 001462   000005 301500                    BTD
         2 001463   200030 000010                    NDSC9   BUILT_MES+14,,AUTO       cn=0,s=lsgnf,sf=0,n=8
         2 001464   000007 230003 xsym               NDSC9   DEVINFO+7,A              cn=1,s=nosgn,sf=0,n=3

      708     2143    2   CAT7E:
      709     2144    2           END;                            /* DO I=                              */

   2144  2 001465   200010 235100       CAT7E        LDA     I,,AUTO
         2 001466   000001 035007                    ADLA    1,DL
         2 001467   200010 755100                    STA     I,,AUTO
         2 001470   000002 115007                    CMPA    2,DL
         2 001471   001307 602000 2                  TNC     CAT7

      710     2145    2           DO I=%(OC#+LP#) TO %(OC#+LP#+CR#-1); /* Ask about CRs                 */

   2145  2 001472   000002 236007                    LDQ     2,DL
         2 001473   200010 756100                    STQ     I,,AUTO

PL6.E3A0      #002=PUSSYCAT_PL6 File=ISI$IOPROC.:E05TSI                          TUE 07/29/97 22:52 Page:119
      711     2146    2   CAT8:
      712     2147    2             BUILT_MES.TXT = ' ';

   2147  2 001474   040100 100400       CAT8         MLR     fill='040'O
         2 001475   000035 000001 xsym               ADSC9   B_VECTNIL+29             cn=0,n=1
         2 001476   200013 000050                    ADSC9   BUILT_MES+1,,AUTO        cn=0,n=40

      713     2148    2             SUBSTR(BUILT_MES.TXT,2)=DEVINFO.DEVNAME(I);

   2148  2 001477   200010 236100                    LDQ     I,,AUTO
         2 001500   000060 402007                    MPY     48,DL
         2 001501   040100 100406                    MLR     fill='040'O
         2 001502   000006 000010 xsym               ADSC9   DEVINFO+6,Q              cn=0,n=8
         2 001503   200013 400046                    ADSC9   BUILT_MES+1,,AUTO        cn=2,n=38

      714     2149    2             SUBSTR(BUILT_MES.TXT,10)='=CR ';

   2149  2 001504   040100 100400                    MLR     fill='040'O
         2 001505   000021 000004 1                  ADSC9   AARDVARK_SERVICE+14      cn=0,n=4
         2 001506   200015 400036                    ADSC9   BUILT_MES+3,,AUTO        cn=2,n=30

      715     2150    2             BUILT_MES.CNT=10+4;

   2150  2 001507   000016 235007                    LDA     14,DL
         2 001510   200012 755100                    STA     BUILT_MES,,AUTO

      716     2151    2   CAT8A:
      717     2152    2             CALL KEYIN(BUILT_MES,ANSBUF);

   2152  2 001511   000015 236000 3     CAT8A        LDQ     13
         2 001512   200027 756100                    STQ     BUILT_MES+13,,AUTO
         2 001513   200012 630500                    EPPR0   BUILT_MES,,AUTO
         2 001514   200026 450500                    STP0    BUILT_MES+12,,AUTO
         2 001515   200026 630500                    EPPR0   BUILT_MES+12,,AUTO
         2 001516   000020 631400 xsym               EPPR1   B_VECTNIL+16
         2 001517   000000 701000 xent               TSX1    KEYIN
         2 001520   000000 011000                    NOP     0
PL6.E3A0      #002=PUSSYCAT_PL6 File=ISI$IOPROC.:E05TSI                          TUE 07/29/97 22:52 Page:120

      718     2153    2             CALL GETFD(ANSBUF.TXT,16) ALTRET(CAT8E); /* Default OK              */

   2153  2 001521   000026 630400 3                  EPPR0   22
         2 001522   000020 631400 xsym               EPPR1   B_VECTNIL+16
         2 001523   000000 701000 xent               TSX1    GETFD
         2 001524   001652 702000 2                  TSX2    CAT8E

      719     2154    2             IF ALPHA_FLG='1'B THEN GOTO CAT8A; /* It has to be decimal          */

   2154  2 001525   000000 234000 xsym               SZN     ALPHA_FLG
         2 001526   001511 604000 2                  TMI     CAT8A

      720     2155    2             CALL CHARBIN(CHG_IOM,SUBSTR(ANS,0,FIELD_LEN));

   2155  2 001527   000000 470400 xsym               LDP0    FIELD$
         2 001530   000000 720000 xsym               LXL0    FIELD_LEN
         2 001531   000100 305540                    DTB
         2 001532   000000 030010                    NDSC9   0,,PR0                   cn=0,s=nosgn,sf=0,n=*X0
         2 001533   200026 000010                    NDSC9   BUILT_MES+12,,AUTO       cn=0,s=lsgnf,sf=0,n=8
         2 001534   200027 235100                    LDA     BUILT_MES+13,,AUTO
         2 001535   200006 755100                    STA     CHG_IOM,,AUTO

      721     2156    2             IF CHG_IOM>%HIGHEST_IOM THEN GOTO CAT8A;

   2156  2 001536   000004 115007                    CMPA    4,DL
         2 001537   001511 603000 2                  TRC     CAT8A

      722     2157    2             IF RPM_FLG THEN

   2157  2 001540   000000 234000 xsym               SZN     RPM_FLG
         2 001541   001555 605000 2                  TPL     s:2160

      723     2158    2               IF CHG_IOM ~= RPM_BOOTIN.IMX# THEN

   2158  2 001542   000000 236000 xsym               LDQ     RPM_BOOTIN
         2 001543   000011 772000                    QRL     9
PL6.E3A0      #002=PUSSYCAT_PL6 File=ISI$IOPROC.:E05TSI                          TUE 07/29/97 22:52 Page:121
         2 001544   000003 376007                    ANQ     3,DL
         2 001545   200006 116100                    CMPQ    CHG_IOM,,AUTO
         2 001546   001555 600000 2                  TZE     s:2160

      724     2159    2                 CALL DO_RPM_CFG(CHG_IOM);

   2159  2 001547   200006 631500                    EPPR1   CHG_IOM,,AUTO
         2 001550   200026 451500                    STP1    BUILT_MES+12,,AUTO
         2 001551   200026 630500                    EPPR0   BUILT_MES+12,,AUTO
         2 001552   000017 631400 xsym               EPPR1   B_VECTNIL+15
         2 001553   000000 701000 xent               TSX1    DO_RPM_CFG
         2 001554   000000 011000                    NOP     0

      725     2160    2             CALL GETFD(SUBSTR(ANSBUF.TXT,FIELD_LEN+1),16-FIELD_LEN-1) ALTRET(CAT8A);

   2160  2 001555   000017 235007                    LDA     15,DL
         2 001556   000000 135000 xsym               SBLA    FIELD_LEN
         2 001557   200026 755100                    STA     BUILT_MES+12,,AUTO
         2 001560   200026 630500                    EPPR0   BUILT_MES+12,,AUTO
         2 001561   200031 450500                    STP0    BUILT_MES+15,,AUTO
         2 001562   000000 236000 xsym               LDQ     FIELD_LEN
         2 001563   000020 736000                    QLS     16
         2 001564   000046 036000 3                  ADLQ    38
         2 001565   200030 756100                    STQ     BUILT_MES+14,,AUTO
         2 001566   200030 630500                    EPPR0   BUILT_MES+14,,AUTO
         2 001567   000020 631400 xsym               EPPR1   B_VECTNIL+16
         2 001570   000000 701000 xent               TSX1    GETFD
         2 001571   001511 702000 2                  TSX2    CAT8A

      726     2161    2             IF ALPHA_FLG='1'B THEN GOTO CAT8A;

   2161  2 001572   000000 234000 xsym               SZN     ALPHA_FLG
         2 001573   001511 604000 2                  TMI     CAT8A

      727     2162    2               ELSE;
      728     2163    2             CALL CHARBIN(CHG_CHN,SUBSTR(ANS,0,FIELD_LEN));

PL6.E3A0      #002=PUSSYCAT_PL6 File=ISI$IOPROC.:E05TSI                          TUE 07/29/97 22:52 Page:122
   2163  2 001574   000000 470400 xsym               LDP0    FIELD$
         2 001575   000000 720000 xsym               LXL0    FIELD_LEN
         2 001576   000100 305540                    DTB
         2 001577   000000 030010                    NDSC9   0,,PR0                   cn=0,s=nosgn,sf=0,n=*X0
         2 001600   200026 000010                    NDSC9   BUILT_MES+12,,AUTO       cn=0,s=lsgnf,sf=0,n=8
         2 001601   200027 235100                    LDA     BUILT_MES+13,,AUTO
         2 001602   200007 755100                    STA     CHG_CHN,,AUTO

      729     2164    2             IF CHG_CHN>HIGHEST_CHAN THEN GOTO CAT8A;

   2164  2 001603   200003 236100                    LDQ     HIGHEST_CHAN,,AUTO
         2 001604   200007 116100                    CMPQ    CHG_CHN,,AUTO
         2 001605   001511 602000 2                  TNC     CAT8A

      730     2165    2             DEVINFO.CHN#(I)=CHG_CHN;

   2165  2 001606   200010 236100                    LDQ     I,,AUTO
         2 001607   000014 402007                    MPY     12,DL
         2 001610   000000 621006                    EAX1    0,QL
         2 001611   200007 236100                    LDQ     CHG_CHN,,AUTO
         2 001612   000033 736000                    QLS     27
         2 001613   000000 676011 xsym               ERQ     DEVINFO,X1
         2 001614   777000 376003                    ANQ     -512,DU
         2 001615   000000 656011 xsym               ERSQ    DEVINFO,X1

      731     2166    2             DEVINFO.IOM#(I)=CHG_IOM;

   2166  2 001616   200006 236100                    LDQ     CHG_IOM,,AUTO
         2 001617   000023 736000                    QLS     19
         2 001620   000000 676011 xsym               ERQ     DEVINFO,X1
         2 001621   000006 376003                    ANQ     6,DU
         2 001622   000000 656011 xsym               ERSQ    DEVINFO,X1

      732     2167    2             CALL BINCHAR(SUBSTR(DEVINFO.DEVNAME(I),3,1),DEVINFO.IOM#(I));

   2167  2 001623   200010 236100                    LDQ     I,,AUTO
         2 001624   000060 402007                    MPY     48,DL
PL6.E3A0      #002=PUSSYCAT_PL6 File=ISI$IOPROC.:E05TSI                          TUE 07/29/97 22:52 Page:123
         2 001625   200026 756100                    STQ     BUILT_MES+12,,AUTO
         2 001626   000000 236011 xsym               LDQ     DEVINFO,X1
         2 001627   000023 772000                    QRL     19
         2 001630   000003 376007                    ANQ     3,DL
         2 001631   000000 235003                    LDA     0,DU
         2 001632   200030 757100                    STAQ    BUILT_MES+14,,AUTO
         2 001633   200026 235100                    LDA     BUILT_MES+12,,AUTO
         2 001634   000005 301500                    BTD
         2 001635   200030 000010                    NDSC9   BUILT_MES+14,,AUTO       cn=0,s=lsgnf,sf=0,n=8
         2 001636   000006 630001 xsym               NDSC9   DEVINFO+6,A              cn=3,s=nosgn,sf=0,n=1

      733     2168    2             CALL BINCHAR(SUBSTR(DEVINFO.DEVNAME(I),5,3),DEVINFO.CHN#(I));

   2168  2 001637   200010 236100                    LDQ     I,,AUTO
         2 001640   000060 402007                    MPY     48,DL
         2 001641   200026 756100                    STQ     BUILT_MES+12,,AUTO
         2 001642   000000 236011 xsym               LDQ     DEVINFO,X1
         2 001643   000033 772000                    QRL     27
         2 001644   000000 235003                    LDA     0,DU
         2 001645   200030 757100                    STAQ    BUILT_MES+14,,AUTO
         2 001646   200026 235100                    LDA     BUILT_MES+12,,AUTO
         2 001647   000005 301500                    BTD
         2 001650   200030 000010                    NDSC9   BUILT_MES+14,,AUTO       cn=0,s=lsgnf,sf=0,n=8
         2 001651   000007 230003 xsym               NDSC9   DEVINFO+7,A              cn=1,s=nosgn,sf=0,n=3

      734     2169    2   CAT8E:
      735     2170    2           END;                            /* DO I=                              */

   2170  2 001652   200010 235100       CAT8E        LDA     I,,AUTO
         2 001653   000001 035007                    ADLA    1,DL
         2 001654   200010 755100                    STA     I,,AUTO
         2 001655   000003 115007                    CMPA    3,DL
         2 001656   001474 602000 2                  TNC     CAT8

      736     2171    1   CAT9:
      737     2172    1           CALL KEYIN(CATQFEP,ANSBUF);     /* Ask about FEP                      */

PL6.E3A0      #002=PUSSYCAT_PL6 File=ISI$IOPROC.:E05TSI                          TUE 07/29/97 22:52 Page:124
   2172  2 001657   000047 630400 3     CAT9         EPPR0   39
         2 001660   000020 631400 xsym               EPPR1   B_VECTNIL+16
         2 001661   000000 701000 xent               TSX1    KEYIN
         2 001662   000000 011000                    NOP     0

      738     2173    1           CALL GETFD(ANSBUF.TXT,16) ALTRET(CAT9E); /* Default OK                */

   2173  2 001663   000026 630400 3                  EPPR0   22
         2 001664   000020 631400 xsym               EPPR1   B_VECTNIL+16
         2 001665   000000 701000 xent               TSX1    GETFD
         2 001666   001733 702000 2                  TSX2    CAT9E

      739     2174    1           IF ALPHA_FLG='1'B THEN GOTO CAT9; /* It has to be decimal             */

   2174  2 001667   000000 234000 xsym               SZN     ALPHA_FLG
         2 001670   001657 604000 2                  TMI     CAT9

      740     2175    1           CALL CHARBIN(FEPIOM,SUBSTR(ANS,0,FIELD_LEN));

   2175  2 001671   000000 470400 xsym               LDP0    FIELD$
         2 001672   000000 720000 xsym               LXL0    FIELD_LEN
         2 001673   000100 305540                    DTB
         2 001674   000000 030010                    NDSC9   0,,PR0                   cn=0,s=nosgn,sf=0,n=*X0
         2 001675   200026 000010                    NDSC9   BUILT_MES+12,,AUTO       cn=0,s=lsgnf,sf=0,n=8
         2 001676   200027 235100                    LDA     BUILT_MES+13,,AUTO
         2 001677   000005 755000 0                  STA     FEPIOM

      741     2176    1           IF FEPIOM>%HIGHEST_IOM THEN GOTO CAT9;

   2176  2 001700   000004 115007                    CMPA    4,DL
         2 001701   001657 603000 2                  TRC     CAT9

      742     2177    1           CALL GETFD(SUBSTR(ANSBUF.TXT,FIELD_LEN+1),16-FIELD_LEN-1) ALTRET(CAT9);

   2177  2 001702   000017 236007                    LDQ     15,DL
         2 001703   000000 136000 xsym               SBLQ    FIELD_LEN
         2 001704   200026 756100                    STQ     BUILT_MES+12,,AUTO
PL6.E3A0      #002=PUSSYCAT_PL6 File=ISI$IOPROC.:E05TSI                          TUE 07/29/97 22:52 Page:125
         2 001705   200026 631500                    EPPR1   BUILT_MES+12,,AUTO
         2 001706   200031 451500                    STP1    BUILT_MES+15,,AUTO
         2 001707   000000 236000 xsym               LDQ     FIELD_LEN
         2 001710   000020 736000                    QLS     16
         2 001711   000046 036000 3                  ADLQ    38
         2 001712   200030 756100                    STQ     BUILT_MES+14,,AUTO
         2 001713   200030 630500                    EPPR0   BUILT_MES+14,,AUTO
         2 001714   000020 631400 xsym               EPPR1   B_VECTNIL+16
         2 001715   000000 701000 xent               TSX1    GETFD
         2 001716   001657 702000 2                  TSX2    CAT9

      743     2178    1           IF ALPHA_FLG='1'B THEN GOTO CAT9;

   2178  2 001717   000000 234000 xsym               SZN     ALPHA_FLG
         2 001720   001657 604000 2                  TMI     CAT9

      744     2179    1             ELSE;
      745     2180    1           CALL CHARBIN(FEPCHAN,SUBSTR(ANS,0,FIELD_LEN));

   2180  2 001721   000000 470400 xsym               LDP0    FIELD$
         2 001722   000000 720000 xsym               LXL0    FIELD_LEN
         2 001723   000100 305540                    DTB
         2 001724   000000 030010                    NDSC9   0,,PR0                   cn=0,s=nosgn,sf=0,n=*X0
         2 001725   200026 000010                    NDSC9   BUILT_MES+12,,AUTO       cn=0,s=lsgnf,sf=0,n=8
         2 001726   200027 235100                    LDA     BUILT_MES+13,,AUTO
         2 001727   000006 755000 0                  STA     FEPCHAN

      746     2181    1           IF FEPCHAN>HIGHEST_CHAN THEN GOTO CAT9;

   2181  2 001730   200003 236100                    LDQ     HIGHEST_CHAN,,AUTO
         2 001731   000006 116000 0                  CMPQ    FEPCHAN
         2 001732   001657 602000 2                  TNC     CAT9

   2181  2 001733   001736 710000 2     CAT9E        TRA     s:2184

      747     2182    1   CAT9E:  ;
      748     2183    1   TYPE_SIZE: ENTRY ALTRET;
PL6.E3A0      #002=PUSSYCAT_PL6 File=ISI$IOPROC.:E05TSI                          TUE 07/29/97 22:52 Page:126

   2183  2 001734   000000 700200 xent  TYPE_SIZE    TSX0  ! X66_AUTO_0
         2 001735   000032 000000                    ZERO    26,0

      749     2184    1           IF RCV_FLG.RBO='1'B THEN CALL TYPEC(RCVRM);

   2184  2 001736   000000 236000 xsym               LDQ     RCV_FLG
         2 001737   040000 316003                    CANQ    16384,DU
         2 001740   001745 600000 2                  TZE     s:2185

   2184  2 001741   000051 630400 3                  EPPR0   41
         2 001742   000017 631400 xsym               EPPR1   B_VECTNIL+15
         2 001743   000000 701000 xent               TSX1    TYPEC
         2 001744   000000 011000                    NOP     0

      750     2185    1           IS_PPUT_SIZE = HIPAGE;

   2185  2 001745   000000 235000 xsym               LDA     HIPAGE
         2 001746   000000 755000 xsym               STA     IS_PPUT_SIZE

      751     2186    2           IF RPM_FLG THEN DO;

   2186  2 001747   000000 234000 xsym               SZN     RPM_FLG
         2 001750   002012 605000 2                  TPL     s:2198

      752     2187    2                 I = RPM_BOOTIN.IMX#;

   2187  2 001751   000000 236000 xsym               LDQ     RPM_BOOTIN
         2 001752   000011 772000                    QRL     9
         2 001753   000003 376007                    ANQ     3,DL
         2 001754   200010 756100                    STQ     I,,AUTO

      753     2188    3                 CALL DO_SCU_STATE(I) WHENRETURN DO;

   2188  2 001755   200010 630500                    EPPR0   I,,AUTO
         2 001756   200026 450500                    STP0    BUILT_MES+12,,AUTO
         2 001757   200026 630500                    EPPR0   BUILT_MES+12,,AUTO
PL6.E3A0      #002=PUSSYCAT_PL6 File=ISI$IOPROC.:E05TSI                          TUE 07/29/97 22:52 Page:127
         2 001760   000017 631400 xsym               EPPR1   B_VECTNIL+15
         2 001761   000000 701000 xent               TSX1    DO_SCU_STATE
         2 001762   002012 702000 2                  TSX2    s:2198

      754     2189    4                       IF IS_CFG_TYPE = %IS_CFG_MULT_CAB_REL# THEN DO;

   2189  2 001763   000000 235000 xsym               LDA     IS_CFG_TYPE
         2 001764   000002 115007                    CMPA    2,DL
         2 001765   002012 601000 2                  TNZ     s:2198

      755     2190    4                            UPPER_SCU.UPP_BND = MCA_CFG.PORT_INFO.START_ADDR(1) * 1024
              2190                                      +

   2190  2 001766   000020 236000 xsym               LDQ     MCA_CFG+16
         2 001767   000011 772000                    QRL     9
         2 001770   000777 376007                    ANQ     511,DL
         2 001771   200026 756100                    STQ     BUILT_MES+12,,AUTO
         2 001772   000021 236000 xsym               LDQ     MCA_CFG+17
         2 001773   000007 772000                    QRL     7
         2 001774   003774 376007                    ANQ     2044,DL
         2 001775   200026 036100                    ADLQ    BUILT_MES+12,,AUTO
         2 001776   000010 736000                    QLS     8
         2 001777   000001 136007                    SBLQ    1,DL
         2 002000   000001 756000 xsym               STQ     UPPER_SCU+1

      756     2191    4                               MCA_CFG.PORT_INFO.SIZE(1) * 256 -1;
      757     2192    4                            UPPER_SCU.LOW_BND = MCA_CFG.PORT_INFO.START_ADDR(1) * 1024
              2192                                      ;

   2192  2 002001   000021 236000 xsym               LDQ     MCA_CFG+17
         2 002002   000001 736000                    QLS     1
         2 002003   000052 376000 3                  ANQ     42
         2 002004   000000 756000 xsym               STQ     UPPER_SCU

      758     2193    4                             IS_PPUT_SIZE = UPPER_SCU.UPP_BND;

   2193  2 002005   000001 235000 xsym               LDA     UPPER_SCU+1
PL6.E3A0      #002=PUSSYCAT_PL6 File=ISI$IOPROC.:E05TSI                          TUE 07/29/97 22:52 Page:128
         2 002006   000000 755000 xsym               STA     IS_PPUT_SIZE

      759     2194    4                             GAP_SZ = UPPER_SCU.LOW_BND - LOWER_SCU.UPP_BND-1;

   2194  2 002007   000001 136000 xsym               SBLQ    LOWER_SCU+1
         2 002010   000001 136007                    SBLQ    1,DL
         2 002011   000000 756000 xsym               STQ     GAP_SZ

      760     2195    4                           END;

      761     2196    3                     END;

      762     2197    2               END;

      763     2198    2           IF ORDBFLG='0'B THEN DO;

   2198  2 002012   000000 236000 xsym               LDQ     ORDBFLG
         2 002013   600000 316003                    CANQ    -65536,DU
         2 002014   002075 601000 2                  TNZ     s:2214

      764     2199    2                 AM2MS = AM2MS_FIXED;

   2199  2 002015   000000 100400                    MLR     fill='000'O
         2 002016   000233 000061 0                  ADSC9   AM2MS_FIXED              cn=0,n=49
         2 002017   000216 000061 0                  ADSC9   AM2MS                    cn=0,n=49

      765     2200                                                /* Type mem size                      */
      766     2201    2                 MESSAGE$=ADDR(AM2MS);

   2201  2 002020   000053 236000 3                  LDQ     43
         2 002021   200004 756100                    STQ     MESSAGE$,,AUTO

      767     2202    2                 IF IS_CFG_TYPE = %IS_CFG_MULT_CAB_REL# THEN

   2202  2 002022   000000 235000 xsym               LDA     IS_CFG_TYPE
         2 002023   000002 115007                    CMPA    2,DL
         2 002024   002037 601000 2                  TNZ     s:2205
PL6.E3A0      #002=PUSSYCAT_PL6 File=ISI$IOPROC.:E05TSI                          TUE 07/29/97 22:52 Page:129

      768     2203    2                   CALL BINCHAR(SUBSTR(TEXTM.TXT,32,6),HIPAGE+1);

   2203  2 002025   200004 470500                    LDP0    MESSAGE$,,AUTO
         2 002026   000000 720100                    LXL0    0,,PR0
         2 002027   000000 235000 xsym               LDA     HIPAGE
         2 002030   000001 035007                    ADLA    1,DL
         2 002031   000044 773000                    LRL     36
         2 002032   200026 757100                    STAQ    BUILT_MES+12,,AUTO
         2 002033   000100 301500                    BTD
         2 002034   200026 000010                    NDSC9   BUILT_MES+12,,AUTO       cn=0,s=lsgnf,sf=0,n=8
         2 002035   000011 030006                    NDSC9   9,,PR0                   cn=0,s=nosgn,sf=0,n=6
         2 002036   002050 710000 2                  TRA     s:2206

      769     2204    2                   ELSE
      770     2205    2                   CALL BINCHAR(SUBSTR(TEXTM.TXT,32,6),HIPAGE+1-GAP_SZ);

   2205  2 002037   200004 470500                    LDP0    MESSAGE$,,AUTO
         2 002040   000000 720100                    LXL0    0,,PR0
         2 002041   000000 236000 xsym               LDQ     HIPAGE
         2 002042   000000 136000 xsym               SBLQ    GAP_SZ
         2 002043   000001 036007                    ADLQ    1,DL
         2 002044   200026 756100                    STQ     BUILT_MES+12,,AUTO
         2 002045   000100 301500                    BTD
         2 002046   200026 000004                    NDSC9   BUILT_MES+12,,AUTO       cn=0,s=lsgnf,sf=0,n=4
         2 002047   000011 030006                    NDSC9   9,,PR0                   cn=0,s=nosgn,sf=0,n=6

      771     2206    3                 DO WHILE (SUBSTR(TEXTM.TXT,32,1)='0');

   2206  2 002050   002063 710000 2                  TRA     s:2209

      772     2207    3                   SUBSTR(TEXTM.TXT,32)=SUBSTR(TEXTM.TXT,33);

   2207  2 002051   200004 470500                    LDP0    MESSAGE$,,AUTO
         2 002052   000000 720100                    LXL0    0,,PR0
         2 002053   777737 621010                    EAX1    -33,X0
         2 002054   777740 622010                    EAX2    -32,X0
PL6.E3A0      #002=PUSSYCAT_PL6 File=ISI$IOPROC.:E05TSI                          TUE 07/29/97 22:52 Page:130
         2 002055   040140 100540                    MLR     fill='040'O
         2 002056   000011 200011                    ADSC9   9,,PR0                   cn=1,n=*X1
         2 002057   000011 000012                    ADSC9   9,,PR0                   cn=0,n=*X2

      773     2208    3                   TEXTM.CNT = TEXTM.CNT - 1;

   2208  2 002060   000000 235100                    LDA     0,,PR0
         2 002061   000001 135007                    SBLA    1,DL
         2 002062   000000 755100                    STA     0,,PR0

      774     2209    3                 END;

   2209  2 002063   000000 720100                    LXL0    0,,PR0
         2 002064   000011 236100                    LDQ     9,,PR0
         2 002065   777000 376003                    ANQ     -512,DU
         2 002066   060000 116003                    CMPQ    24576,DU
         2 002067   002051 600000 2                  TZE     s:2207

      775     2210    2                 CALL TYPEC(AM2MS);

   2210  2 002070   000053 630400 3                  EPPR0   43
         2 002071   000017 631400 xsym               EPPR1   B_VECTNIL+15
         2 002072   000000 701000 xent               TSX1    TYPEC
         2 002073   000000 011000                    NOP     0

      776     2211    2                 RETURN;

   2211  2 002074   000000 702200 xent               TSX2  ! X66_ARET

      777     2212    2               END;                        /* THEN                               */
      778     2213    2             ELSE DO;

      779     2214    2                 ALTRETURN;

   2214  2 002075   000000 702200 xent               TSX2  ! X66_AALT

      780     2215    2               END;                        /*ELSE                                */
PL6.E3A0      #002=PUSSYCAT_PL6 File=ISI$IOPROC.:E05TSI                          TUE 07/29/97 22:52 Page:131
      781     2216    1   HELPTB:
      782     2217    1           CALL TYPEC(HELPA);

   2217  2 002076   000054 630400 3     HELPTB       EPPR0   44
         2 002077   000017 631400 xsym               EPPR1   B_VECTNIL+15
         2 002100   000000 701000 xent               TSX1    TYPEC
         2 002101   000000 011000                    NOP     0

      783     2218    1   HELPDBOR:
      784     2219    1           CALL TYPEC(HELPD);

   2219  2 002102   000055 630400 3     HELPDBOR     EPPR0   45
         2 002103   000017 631400 xsym               EPPR1   B_VECTNIL+15
         2 002104   000000 701000 xent               TSX1    TYPEC
         2 002105   000000 011000                    NOP     0

      785     2220    1           IF ORDBFLG~='0'B THEN GOTO HELPALL;

   2220  2 002106   000000 236000 xsym               LDQ     ORDBFLG
         2 002107   600000 316003                    CANQ    -65536,DU
         2 002110   002125 601000 2                  TNZ     HELPALL

      786     2221    1             ELSE;
      787     2222    1           CALL TYPEC(HELPP);

   2222  2 002111   000056 630400 3                  EPPR0   46
         2 002112   000017 631400 xsym               EPPR1   B_VECTNIL+15
         2 002113   000000 701000 xent               TSX1    TYPEC
         2 002114   000000 011000                    NOP     0

      788     2223    1           CALL TYPEC(HELPX);

   2223  2 002115   000057 630400 3                  EPPR0   47
         2 002116   000017 631400 xsym               EPPR1   B_VECTNIL+15
         2 002117   000000 701000 xent               TSX1    TYPEC
         2 002120   000000 011000                    NOP     0

PL6.E3A0      #002=PUSSYCAT_PL6 File=ISI$IOPROC.:E05TSI                          TUE 07/29/97 22:52 Page:132
      789     2224    1           CALL TYPEC(HELPF);

   2224  2 002121   000060 630400 3                  EPPR0   48
         2 002122   000017 631400 xsym               EPPR1   B_VECTNIL+15
         2 002123   000000 701000 xent               TSX1    TYPEC
         2 002124   000000 011000                    NOP     0

      790     2225    1   HELPALL:
      791     2226    1           CALL TYPEC(HELPY);

   2226  2 002125   000061 630400 3     HELPALL      EPPR0   49
         2 002126   000017 631400 xsym               EPPR1   B_VECTNIL+15
         2 002127   000000 701000 xent               TSX1    TYPEC
         2 002130   000000 011000                    NOP     0

      792     2227    1           CALL TYPEC(HELPN);

   2227  2 002131   000062 630400 3                  EPPR0   50
         2 002132   000017 631400 xsym               EPPR1   B_VECTNIL+15
         2 002133   000000 701000 xent               TSX1    TYPEC
         2 002134   000000 011000                    NOP     0

      793     2228    1           IF ORDBFLG='0'B THEN GOTO Q1;

   2228  2 002135   000000 236000 xsym               LDQ     ORDBFLG
         2 002136   600000 316003                    CANQ    -65536,DU
         2 002137   000773 600000 2                  TZE     Q1

      794     2229    1             ELSE GOTO Q2;

   2229  2 002140   000766 710000 2                  TRA     Q2
      795     2230    1   END PUSSYCAT_PL6;
      796     2231        %EOD;

PL6.E3A0      #002=PUSSYCAT_PL6 File=ISI$IOPROC.:E05TSI                          TUE 07/29/97 22:52 Page:133
--  Include file information  --

   IS$MACROS.:E05TOU  is referenced.
      No diagnostics issued in procedure PUSSYCAT_PL6.
PL6.E3A0      #002=PUSSYCAT_PL6 File=ISI$IOPROC.:E05TSI                          TUE 07/29/97 22:52 Page:134

 **** Variables and constants ****

  ****  Section 000  Data  PUSSYCAT_PL6

  ****  Scalars and arrays  ****
OctLoc.c.b A Datatyp(siz) R M Lvl/name                 OctLoc.c.b A Datatyp(siz) R M Lvl/name

   216-0-0/w STRC(441)   r     1 AM2MS                    233-0-0/w STRC(441)   r     1 AM2MS_FIXED
    10-0-0/w STRC(72)    r     1 BOOTINFO                 100-0-0/w STRC(234)   r     1 CATQCH
   107-0-0/w STRC(162)   r     1 CATQFEP                   70-0-0/w STRC(270)   r     1 CATQU
     6-0-0/w UBIN        r     1 FEPCHAN                    5-0-0/w UBIN        r     1 FEPIOM
   134-0-0/w STRC(414)   r     1 HELPA                    150-0-0/w STRC(360)   r     1 HELPD
   205-0-0/w STRC(315)   r     1 HELPF                    124-0-0/w STRC(288)   r     1 HELPN
   162-0-0/w STRC(369)   r     1 HELPP                    175-0-0/w STRC(270)   r     1 HELPX
   114-0-0/w STRC(279)   r     1 HELPY                     17-0-0/w STRC(576)   r     1 HUHHH
     2-0-0/w UBIN        r     1 IMWBASE                    7-0-0/w UBIN        r     1 MDELTAFLG
     0-0-0/w STRC(72)    r     1 OCZONE                    37-0-0/w STRC(459)   r     1 Q1Q
    54-0-0/w STRC(423)   r     1 Q2Q                      250-0-0/w STRC(297)   r     1 RCVRM
    12-0-0/b BIT         r     1 SILENT                    13-0-0/w STRC(144)   r     1 TBDBORQ
     3-0-0/b BIT         r     1 TYPEBI                     4-0-0/w UBIN        r     1 URCHN

  ****  Section 001 RoData PUSSYCAT_PL6

  ****  Scalars and arrays  ****
OctLoc.c.b A Datatyp(siz) R M Lvl/name                 OctLoc.c.b A Datatyp(siz) R M Lvl/name

     0-0-0/c CHAR(9)     r     1 AARDVARK_NAME              3-0-0/c CHAR(16)    r     1 AARDVARK_SERVICE

  ****  Auto variables  ****

  ****  Scalars and arrays  ****
OctLoc.c.b A Datatyp(siz) R M Lvl/name                 OctLoc.c.b A Datatyp(siz) R M Lvl/name

    12-0-0/w STRC(396)   r     1 BUILT_MES                  7-0-0/w UBIN        r     1 CHG_CHN
     6-0-0/w UBIN        r     1 CHG_IOM                   11-0-0/w PTR         r     1 COMMAND$
     3-0-0/w UBIN        r     1 HIGHEST_CHAN              10-0-0/w UBIN        r     1 I
     4-0-0/w PTR         r     1 MESSAGE$                   5-0-0/w UBIN        r     1 TIME_OUT
PL6.E3A0      #002=PUSSYCAT_PL6 File=ISI$IOPROC.:E05TSI                          TUE 07/29/97 22:52 Page:135

  ****  SYMREF variables  ****

  ****  Scalars and arrays  ****
OctLoc.c.b A Datatyp(siz) R M Lvl/name                 OctLoc.c.b A Datatyp(siz) R M Lvl/name

     0-0-0/b STRC(5)     r     1 ADPXF                      0-0-0/b BIT         r     1 ALPHA_FLG
     0-0-0/w STRC(180)   r     1 ANSBUF                     0-0-0/w UBIN        r     1 BOOTTAPE
     0-0-0/c ASTR(9)     r     1 B_VERSION                  0-0-0/b BIT         r     1 CHN_CFG(0:511)
     0-0-0/d STRC(288)   r     1 CONNECT_TABLE              0-0-0/b BIT         r     1 CONS_DCWS
     0-0-0/b STRC(18)    r     1 CONS_INFO                  0-0-0/w STRC(864)   r     1 CONS_MBX
     0-0-0/d STRC(396)   r     1 DEVINFO(0:21)              0-0-0/w PTR         r     1 FIELD$
     0-0-0/w UBIN        r     1 FIELD_LEN                  0-0-0/b BIT         r     1 FW_LOAD(0:511)
     0-0-0/w UBIN        r     1 GAP_SZ                     0-0-0/w UBIN        r     1 HIPAGE
     0-0-0/w STRC        r     1 IOMTAB(0:3)                0-0-0/w UBIN        r     1 IS_CFG_TYPE
     0-0-0/w UBIN        r     1 IS_PPUT_SIZE               0-0-0/w STRC(72)    r     1 LOWER_SCU
     0-0-0/w STRC(14616) r     1 MCA_CFG                    0-0-0/b BIT         r     1 MONPA
     0-0-0/b STRC(2)     r     1 ORDBFLG                    0-0-0/w STRC(864)   r     1 PATT_MBX
     0-0-0/b BIT         r     1 PLVPA                      0-0-0/b STRC(4)     r     1 RCV_FLG
     0-0-0/b STRC        r     1 RPM_BOOTIN                 0-0-0/b STRC        r     1 RPM_BOOT_IDCW
     0-0-0/w SBIN        r     1 RPM_CONSOLE                0-0-0/b BIT         r     1 RPM_FLG
     0-0-0/b BIT         r     1 RUMPA                      0-0-0/b BIT         r     1 S1000_FLG
     0-0-0/b BIT         r     1 SH_DCWS                    0-0-0/w STRC(864)   r     1 SH_MBX
     0-0-0/b BIT         r     1 TIGRPA                     0-0-0/w STRC(72)    r     1 UPPER_SCU
     0-0-0/b BIT         r     1 VOFLG

  ****  BASED and DCB variables  ****

  ****  Scalars and arrays  ****
OctLoc.c.b A Datatyp(siz) R M Lvl/name                 OctLoc.c.b A Datatyp(siz) R M Lvl/name

     0-0-0/c CHAR(16)    r     1 ANS                        0-0-0/w ASTR        r     1 TEXTM


   Procedure PUSSYCAT_PL6 requires 1121 words for executable code.
   Procedure PUSSYCAT_PL6 requires 26 words of local(AUTO) storage.
PL6.E3A0      #002=PUSSYCAT_PL6 File=ISI$IOPROC.:E05TSI                          TUE 07/29/97 22:52 Page:136
          *** CROSS REFERENCE LISTING ***
**     DENOTES     IDENTIFIER DEFINITION
<<                 IDENTIFIER'S VALUE SET
>>                 IDENTIFIER'S VALUE USED
<>                 IDENTIFIER SET AND/OR USED
--                 IDENTIFIER REFERENCED
PL6.E3A0      #002=PUSSYCAT_PL6 File=ISI$IOPROC.:E05TSI                          TUE 07/29/97 22:52 Page:137
          MINI XREF LISTING

AARDVARK_NAME
      1877**DCL      2008>>ASSIGN   2009--ASSIGN   2010--ASSIGN   2011--ASSIGN
AARDVARK_SERVICE
      1878**DCL      2010--ASSIGN   2010>>ASSIGN   2011--ASSIGN
ADPXF
      1457**DCL      2054<<ASSIGN   2063<<ASSIGN
ADPXF.A
      1458**DCL      2076<<ASSIGN
ADPXF.D
      1459**DCL      2064<<ASSIGN   2078<<ASSIGN   2097>>IF
ADPXF.F
      1462**DCL      2087<<ASSIGN
ADPXF.P
      1460**DCL      2081<<ASSIGN
ADPXF.X
      1461**DCL      2084<<ASSIGN
ALPHA_FLG
      1778**DCL      2113>>IF       2128>>IF       2135>>IF       2154>>IF       2161>>IF       2174>>IF
      2178>>IF
AM2MS
      1863**DCL      2199<<ASSIGN   2201--ASSIGN   2210<>CALL
AM2MS_FIXED
      1868**DCL      2199>>ASSIGN
ANS
      1885**DCL      2115>>CALLBLT  2129>>CALLBLT  2137>>CALLBLT  2155>>CALLBLT  2163>>CALLBLT  2175>>CALLBLT
      2180>>CALLBLT
ANSBUF
      1768**DCL      2016<>CALL     2049<>CALL     2052<>CALL     2100<>CALL     2111<>CALL     2126<>CALL
      2152<>CALL     2172<>CALL
ANSBUF.TXT
      1770**DCL      2017>>IF       2019<>CALL     2020>>DOSELCT  2055<>CALL     2056>>DOSELCT  2067>>DOSELCT
      2072<>CALL     2073>>DOSELCT  2101<>CALL     2102<>CALL     2103>>DOSELCT  2112<>CALL     2127<>CALL
PL6.E3A0      #002=PUSSYCAT_PL6 File=ISI$IOPROC.:E05TSI                          TUE 07/29/97 22:52 Page:138
      2134<>CALL     2153<>CALL     2160<>CALL     2173<>CALL     2177<>CALL
BOOTINFO.BCHN
      1431**DCL      1904<<ASSIGN   1931>>ASSIGN   1941>>CALLBLT
BOOTINFO.BIMWAD
      1435**DCL      1976>>ASSIGN
BOOTINFO.BIOM#
      1437**DCL      1905<<ASSIGN   1910>>CALLBLT  1926>>ASSIGN   1935>>CALLBLT  1938>>CALLBLT  1973>>ASSIGN
      1974>>ASSIGN
BOOTINFO.BIOMAD
      1434**DCL      1973>>ASSIGN
BOOTINFO.BPORT#
      1433**DCL      1974>>ASSIGN
BOOTTAPE
      1464**DCL      1956>>IF       1956>>IF       1957<<ASSIGN
BUILT_MES
      1886**DCL      2012<>CALL     2126<>CALL     2152<>CALL
BUILT_MES.CNT
      1887**DCL      2011<<ASSIGN   2124<<ASSIGN   2150<<ASSIGN
BUILT_MES.TXT
      1888**DCL      2008<<ASSIGN   2009<<ASSIGN   2010<<ASSIGN   2121<<ASSIGN   2122<<ASSIGN   2123<<ASSIGN
      2147<<ASSIGN   2148<<ASSIGN   2149<<ASSIGN
B_VERSION.C
      1762**DCL      2009>>ASSIGN
B_VERSION.L
      1761**DCL      1762--IMP-SIZ  2009>>ASSIGN   2009>>ASSIGN   2010>>ASSIGN   2011>>ASSIGN
CAT5
      2100**LABEL    2108--GOTO
CAT6
      2103**LABEL    2113--GOTO     2116--GOTO
CAT6E
      2119**LABEL    2112--CALLALT
CAT7A
      2126**LABEL    2128--GOTO     2130--GOTO     2134--CALLALT  2135--GOTO     2138--GOTO
CAT7E
      2144**LABEL    2127--CALLALT
CAT8A
PL6.E3A0      #002=PUSSYCAT_PL6 File=ISI$IOPROC.:E05TSI                          TUE 07/29/97 22:52 Page:139
      2152**LABEL    2154--GOTO     2156--GOTO     2160--CALLALT  2161--GOTO     2164--GOTO
CAT8E
      2170**LABEL    2153--CALLALT
CAT9
      2172**LABEL    2101--CALLALT  2105--GOTO     2174--GOTO     2176--GOTO     2177--CALLALT  2178--GOTO
      2181--GOTO
CAT9E
      2181**LABEL    2055--CALLALT  2061--GOTO     2097--GOTO     2173--CALLALT
CATQCH
      1818**DCL      2111<>CALL
CATQFEP
      1823**DCL      1908--ASSIGN   2172<>CALL
CATQU
      1813**DCL      2100<>CALL
CHG_CHN
      1882**DCL      2137<<CALLBLT  2138>>IF       2140>>ASSIGN   2163<<CALLBLT  2164>>IF       2165>>ASSIGN
CHG_IOM
      1881**DCL      2129<<CALLBLT  2130>>IF       2132>>IF       2133<>CALL     2139>>ASSIGN   2155<<CALLBLT
      2156>>IF       2158>>IF       2159<>CALL     2166>>ASSIGN
CHN_CFG
      1790**DCL      1958>>IF
COMMAND$
      1884**DCL      1993<<ASSIGN   1997<>CALL
CONNECT_TABLE.ENTRI.SCU_PORT
      1383**DCL      1967>>ASSIGN
CONS_DCWS
      1473**DCL      1949--ASSIGN
CONS_INFO.CHN#
      1767**DCL      1980>>ASSIGN
CONS_INFO.IOM#
      1766**DCL      1981>>ASSIGN
CONS_MBX
      1485**DCL      1946<<ASSIGN   1948--ASSIGN
CONS_MBX.STATUS.W8
      1515**DCL      1518--REDEF
DEVINFO.BSTAT.W1.H1
PL6.E3A0      #002=PUSSYCAT_PL6 File=ISI$IOPROC.:E05TSI                          TUE 07/29/97 22:52 Page:140
      1338**DCL      1998>>IF
DEVINFO.CHN#
      1296**DCL      1912<<ASSIGN   1916<<ASSIGN   1920<<ASSIGN   1931<<ASSIGN   1956>>IF       1960<<ASSIGN
      1980<<ASSIGN   1985<<ASSIGN   1996<<ASSIGN   2140<<ASSIGN   2142>>CALLBLT  2165<<ASSIGN   2168>>CALLBLT
DEVINFO.DEV#
      1297**DCL      1932<<ASSIGN   1961<<ASSIGN
DEVINFO.DEVNAME
      1343**DCL      1913<<ASSIGN   1917<<ASSIGN   1921<<ASSIGN   1935<<CALLBLT  1938<<CALLBLT  1941<<CALLBLT
      1942<<CALLBLT  1962<<ASSIGN   1963<<ASSIGN   2007<<CALLBLT  2122>>ASSIGN   2141<<CALLBLT  2142<<CALLBLT
      2148>>ASSIGN   2167<<CALLBLT  2168<<CALLBLT
DEVINFO.IOM#
      1298**DCL      1926<<ASSIGN   1956>>IF       1981<<ASSIGN   2139<<ASSIGN   2141>>CALLBLT  2166<<ASSIGN
      2167>>CALLBLT
DEVINFO.PCWS
      1300**DCL      1311--REDEF
DEVINFO.RPM_PTRS.EF_DCWS$
      1313**DCL      1314--REDEF    1949<<ASSIGN   1952<<ASSIGN
DEVINFO.RPM_PTRS.MBX$
      1312**DCL      1948<<ASSIGN   1951<<ASSIGN
DEVINFO.STATUS
      1317**DCL      1336--REDEF
DEVINFO.STATUS.IOM_CENT_STAT
      1328**DCL      1998>>IF
DEVINFO.STATUS.IOM_CHAN_STAT
      1327**DCL      1998>>IF
DOIO
      1890**DCL-ENT  1997--CALL
DO_RPM_CFG
      1891**DCL-ENT  1955--CALL     2133--CALL     2159--CALL
DO_RPM_TIME
      1893**DCL-ENT  2030--CALL
DO_SCU_STATE
      1892**DCL-ENT  2188--CALL
FEPCHAN
      1428**DCL      1907<<ASSIGN   2180<<CALLBLT  2181>>IF
FEPIOM
PL6.E3A0      #002=PUSSYCAT_PL6 File=ISI$IOPROC.:E05TSI                          TUE 07/29/97 22:52 Page:141
      1427**DCL      2175<<CALLBLT  2176>>IF
FIELD$
      1775**DCL      1885--IMP-PTR  2115>>CALLBLT  2129>>CALLBLT  2137>>CALLBLT  2155>>CALLBLT  2163>>CALLBLT
      2175>>CALLBLT  2180>>CALLBLT
FIELD_LEN
      1776**DCL      2115>>CALLBLT  2129>>CALLBLT  2134>>CALL     2134>>CALL     2137>>CALLBLT  2155>>CALLBLT
      2160>>CALL     2160>>CALL     2163>>CALLBLT  2175>>CALLBLT  2177>>CALL     2177>>CALL     2180>>CALLBLT
FINDOC
      1993**LABEL    2003--GOTO
FW_LOAD
      1465**DCL      1956>>IF
GAP_SZ
      1780**DCL      2194<<ASSIGN   2205>>CALLBLT
GETFD
      1897**DCL-ENT  2055--CALL     2101--CALL     2112--CALL     2127--CALL     2134--CALL     2153--CALL
      2160--CALL     2173--CALL     2177--CALL
HELPA
      1838**DCL      2217<>CALL
HELPALL
      2226**LABEL    2220--GOTO
HELPD
      1843**DCL      2219<>CALL
HELPDBOR
      2219**LABEL    2059--GOTO
HELPF
      1858**DCL      2224<>CALL
HELPN
      1833**DCL      2227<>CALL
HELPP
      1848**DCL      2222<>CALL
HELPTB
      2217**LABEL    2058--GOTO
HELPX
      1853**DCL      2223<>CALL
HELPY
      1828**DCL      2226<>CALL
PL6.E3A0      #002=PUSSYCAT_PL6 File=ISI$IOPROC.:E05TSI                          TUE 07/29/97 22:52 Page:142
HIGHEST_CHAN
      1759**DCL      1901<<ASSIGN   1903<<ASSIGN   1995>>DOINDEX  2116>>IF       2138>>IF       2164>>IF
      2181>>IF
HIPAGE
      1779**DCL      2185>>ASSIGN   2203>>CALLBLT  2205>>CALLBLT
HUHHH
      1798**DCL      2046<>CALL
I
      1883**DCL      1911<<DOINDEX  1912>>ASSIGN   1913>>ASSIGN   1915<<DOINDEX  1916>>ASSIGN   1917>>ASSIGN
      1919<<DOINDEX  1920>>ASSIGN   1921>>ASSIGN   1925<<DOINDEX  1926>>ASSIGN   1930<<DOINDEX  1931>>ASSIGN
      1932>>ASSIGN   1932>>ASSIGN   1934<<DOINDEX  1935>>CALLBLT  1937<<DOINDEX  1938>>CALLBLT  1940<<DOINDEX
      1941>>CALLBLT  1942>>CALLBLT  1942>>CALLBLT  1950<<DOINDEX  1951>>ASSIGN   1952>>ASSIGN   1954<<ASSIGN
      1955<>CALL     1958>>IF       1959<<DOINDEX  1960>>ASSIGN   1961>>ASSIGN   1962>>ASSIGN   1963>>ASSIGN
      1966<<DOINDEX  1967>>ASSIGN   1967>>ASSIGN   1972<<DOINDEX  1973>>ASSIGN   1973>>ASSIGN   1974>>ASSIGN
      1974>>ASSIGN   1988<<DOINDEX  1995<<DOINDEX  1996>>ASSIGN   2007>>CALLBLT  2029<<ASSIGN   2030<>CALL
      2066<<DOINDEX  2067>>DOSELCT  2072>>CALL     2073>>DOSELCT  2119<<DOINDEX  2122>>ASSIGN   2139>>ASSIGN
      2140>>ASSIGN   2141>>CALLBLT  2141>>CALLBLT  2142>>CALLBLT  2142>>CALLBLT  2145<<DOINDEX  2148>>ASSIGN
      2165>>ASSIGN   2166>>ASSIGN   2167>>CALLBLT  2167>>CALLBLT  2168>>CALLBLT  2168>>CALLBLT  2187<<ASSIGN
      2188<>CALL
IMWBASE
      1424**DCL      1976<<ASSIGN
IOMTAB.MAILBAD
      1365**DCL      1973<<ASSIGN
IOMTAB.PORT#
      1367**DCL      1967<<ASSIGN   1974<<ASSIGN
IS_CFG_TYPE
      1787**DCL      2189>>IF       2202>>IF
IS_PPUT_SIZE
      1788**DCL      2185<<ASSIGN   2193<<ASSIGN
ITSHELP
      2046**LABEL    2017--GOTO
ITSTB
      2040**LABEL    2022--GOTO     2035--GOTO
KEYIN
      1894**DCL-ENT  2016--CALL     2049--CALL     2052--CALL     2100--CALL     2111--CALL     2126--CALL
      2152--CALL     2172--CALL
PL6.E3A0      #002=PUSSYCAT_PL6 File=ISI$IOPROC.:E05TSI                          TUE 07/29/97 22:52 Page:143
LOWER_SCU.UPP_BND
      1783**DCL      2194>>ASSIGN
MCA_CFG.LEVEL_1.CONSOLE_CNTL
      1717**DCL      1723--REDEF    1727--REDEF
MCA_CFG.PORT_INFO.SIZE
      1709**DCL      2190>>ASSIGN
MCA_CFG.PORT_INFO.START_ADDR
      1713**DCL      2190>>ASSIGN   2192>>ASSIGN
MDELTAFLG
      1429**DCL      2070<<ASSIGN
MESSAGE$
      1774**DCL      1771--IMP-PTR  1908<<ASSIGN   1909>>ASSIGN   1909>>ASSIGN   1910>>CALLBLT  1910>>CALLBLT
      2201<<ASSIGN   2203>>CALLBLT  2203>>CALLBLT  2205>>CALLBLT  2205>>CALLBLT  2206>>DOWHILE  2206>>DOWHILE
      2207>>ASSIGN   2207>>ASSIGN   2207>>ASSIGN   2207>>ASSIGN   2208>>ASSIGN   2208>>ASSIGN
MONPA
      1467**DCL      2041<<ASSIGN
OCFOUND
      1999**LABEL    1999--GOTO
OCZONE
      1401**DCL      1993--ASSIGN
OCZONE.DCW
      1408**DCL      1412--REDEF    1415--REDEF    1416--REDEF    1992<<ASSIGN
OCZONE.IDCW$
      1407**DCL      1991<<ASSIGN
OCZONE.W1
      1402**DCL      1407--REDEF
ORDBFLG
      1448**DCL      2058>>IF       2063>>IF       2075>>IF       2080>>IF       2083>>IF       2086>>IF
      2091>>IF       2198>>IF       2220>>IF       2228>>IF
ORDBFLG.DBF
      1450**DCL      2024<<ASSIGN
ORDBFLG.ORF
      1449**DCL      2027<<ASSIGN
PATT_MBX
      1599**DCL      1946>>ASSIGN   1947>>ASSIGN
PATT_MBX.STATUS.W8
PL6.E3A0      #002=PUSSYCAT_PL6 File=ISI$IOPROC.:E05TSI                          TUE 07/29/97 22:52 Page:144
      1629**DCL      1632--REDEF
PLVPA
      1469**DCL      2043<<ASSIGN
Q01
      2054**LABEL    2050--GOTO
Q1
      2052**LABEL    2044--GOTO     2091--GOTO     2228--GOTO
Q1Q
      1803**DCL      2052<>CALL
Q2
      2049**LABEL    2025--GOTO     2032--GOTO     2075--GOTO     2080--GOTO     2083--GOTO     2086--GOTO
      2092--GOTO     2229--GOTO
Q2Q
      1808**DCL      2049<>CALL
RCVRM
      1873**DCL      2184<>CALL
RCV_FLG
      1451**DCL      2015<<ASSIGN
RCV_FLG.RBO
      1455**DCL      2184>>IF
READ_CONNECT_TABLE
      1898**DCL-ENT  1965--CALL
RPM_BOOTIN.CHN#
      1440**DCL      1904>>ASSIGN
RPM_BOOTIN.IMX#
      1442**DCL      1905>>ASSIGN   1954>>ASSIGN   2029>>ASSIGN   2132>>IF       2158>>IF       2187>>ASSIGN
RPM_BOOT_IDCW.DEV#
      1446**DCL      1957>>ASSIGN
RPM_CONSOLE
      1755**DCL      1984>>IF       1985>>ASSIGN
RPM_FLG
      1756**DCL      1902>>IF       1945>>IF       1984>>IF       2028>>IF       2131>>IF       2157>>IF
      2186>>IF
RUMPA
      1468**DCL      2042<<ASSIGN
S1000_FLG
PL6.E3A0      #002=PUSSYCAT_PL6 File=ISI$IOPROC.:E05TSI                          TUE 07/29/97 22:52 Page:145
      1757**DCL      1979>>IF
SH_DCWS
      1758**DCL      1952--ASSIGN
SH_MBX
      1542**DCL      1947<<ASSIGN   1951--ASSIGN
SH_MBX.STATUS.W8
      1572**DCL      1575--REDEF
SILENT
      1470**DCL      2089<<ASSIGN
TBDBOR
      2015**LABEL    2037--GOTO     2047--GOTO
TBDBORQ
      1793**DCL      2016<>CALL
TEXTM.CNT
      1772**DCL      1773--IMP-SIZ  1909>>ASSIGN   1910>>CALLBLT  2203>>CALLBLT  2205>>CALLBLT  2206>>DOWHILE
      2207>>ASSIGN   2207>>ASSIGN   2208<<ASSIGN   2208>>ASSIGN
TEXTM.TXT
      1773**DCL      1909<<ASSIGN   1910<<CALLBLT  2203<<CALLBLT  2205<<CALLBLT  2206>>DOWHILE  2207<<ASSIGN
      2207>>ASSIGN
TIGRPA
      1466**DCL      2040<<ASSIGN
TIME_OUT
      1880**DCL      1990<<ASSIGN   1997<>CALL
TYPEBI
      1425**DCL      1991--ASSIGN
TYPEC
      1895**DCL-ENT  2012--CALL     2046--CALL     2184--CALL     2210--CALL     2217--CALL     2219--CALL
      2222--CALL     2223--CALL     2224--CALL     2226--CALL     2227--CALL
UPPER_CASE
      1896**DCL-ENT  2019--CALL     2072--CALL     2102--CALL
UPPER_SCU.LOW_BND
      1785**DCL      2192<<ASSIGN   2194>>ASSIGN
UPPER_SCU.UPP_BND
      1786**DCL      2190<<ASSIGN   2193>>ASSIGN
URCHN
      1426**DCL      1906<<ASSIGN   2115<<CALLBLT  2116>>IF
PL6.E3A0      #002=PUSSYCAT_PL6 File=ISI$IOPROC.:E05TSI                          TUE 07/29/97 22:52 Page:146
VOFLG
      1456**DCL      2034<<ASSIGN

