PL6.E3A0      #003=MINIQ_PL6 File=ISI$IOPROC.:E05TSI                             TUE 07/29/97 22:52 Page:147
      797        1        /*T***********************************************************/
      798        2        /*T*                                                         */
      799        3        /*T* Copyright (c) Bull HN Information Systems Inc., 1997    */
      800        4        /*T*                                                         */
      801        5        /*T***********************************************************/
      802        6        MINIQ_PL6:PROC(INDX,BUF$,L,CODE,GRAN#) ALTRET;
      803        7        /* This programm receives I/O requests */
      804        8        /* Calling param: INDX entry in DEVINFO */
      805        9        /*                BUF$ ptr to buffer    */
      806       10        /*                L buffer length       */
      807       11        /*                CODE  I/O code        */
      808       12        %INCLUDE IS$MACROS;
      809     1287    1   DCL INDX UBIN WORD;
      810     1288    1   DCL BUF$ PTR;
      811     1289        %PTR_STRUCT(NAME=BUF_PTR,STCLASS="REDEF BUF$");
      812     1307    1   DCL L UBIN WORD;
      813     1308    1   DCL CODE UBIN WORD;
      814     1309    1   DCL GRAN# UBIN WORD;
      815     1310        /**/
      816     1311    1   DCL DOIO ENTRY(4);
      817     1312    1   DCL S_INT ENTRY;
      818     1313    1   DCL R_INT ENTRY;
      819     1314    1   DCL CLLD EPTR;
      820     1315        /**/
      821     1316        %DEVINFO(STCLASS="SYMREF");
      822     1385    1   DCL BUF CHAR(1024) BASED(BUF$);
      823     1386        %DCW_STRUCT(NAME=IOTEMP);
      824     1404        %DOIO_COMZONE(NAME=MINI_ZONE);
      825     1437        %DCW_STRUCT(NAME=TDCW_IODCW);
      826     1455    1   DCL IODCW(0:2) STATIC SYMDEF BIT(36) ALIGNED;
      827     1456    1   DCL RETRY_FLG STATIC SYMDEF BIT(1) INIT('0'B);
      828     1457    1   DCL C_FLG STATIC BIT(1) INIT('0'B);
      829     1458    1   DCL IODCW$ PTR STATIC INIT(ADDR(IODCW));
      830     1459        %PTR_STRUCT(NAME=IODCW_PTR,STCLASS="REDEF IODCW$");
      831     1477    1   DCL CODETAB(0:19) BIT(36) BASED ALIGNED;
      832     1478    1   DCL DOIO_COM$ PTR STATIC INIT(ADDR(MINI_ZONE));
      833     1479    1   DCL TIMES_THRU SBIN WORD STATIC INIT(0);
PL6.E3A0      #003=MINIQ_PL6 File=ISI$IOPROC.:E05TSI                             TUE 07/29/97 22:52 Page:148
      834     1480        /**/
      835     1481    2           DO INHIBIT;
      836     1482    2             IF TIMES_THRU = 0 THEN
      837     1483    2               CALL S_INT;
      838     1484    2             TIMES_THRU = TIMES_THRU + 1;
      839     1485    2           END;                            /* DO INHIBIT                         */
      840     1486    1   ENT_MINIQ:;
      841     1487    1           C_FLG='0'B;
      842     1488        /* Build a DCW */
      843     1489    1           IOTEMP.AD=BUF_PTR.WOFFS;
      844     1490    1           IOTEMP.CP=BUF_PTR.BYTEPOS;
      845     1491    1           IOTEMP.TYPE='0'B;               /* Make it an IOTD                    */
      846     1492    1           IOTEMP.TALLY=(L+3)/4;
      847     1493    1   MINIQ1:
      848     1494    1           IODCW(0)=IOTEMP;
      849     1495        /* Call device handler routine */
      850     1496    1           CLLD=DEVINFO.HANDROUT$(INDX);
      851     1497    1           RETRY_FLG='0'B;
      852     1498    1           CALL CLLD(INDX,CODE,GRAN#) ALTRET(MINIQER);
      853     1499        /* Build DOIO command zone */
      854     1500    1           MINI_ZONE.IDCW$=ADDR(DEVINFO.FUNCTAB$(INDX)->CODETAB(CODE));
      855     1501    1           TDCW_IODCW.AD=IODCW_PTR.WOFFS;
      856     1502    1           TDCW_IODCW.TYPE='10'B;          /* TDCW to IODCW                      */
      857     1503    1           MINI_ZONE.DCW=TDCW_IODCW;
      858     1504    1           CALL DOIO(INDX,DOIO_COM$);
      859     1505        /* Call device clean_up routine */
      860     1506    1           CLLD=DEVINFO.CLEANROUT$(INDX);
      861     1507    1           RETRY_FLG='0'B;
      862     1508    1           CALL CLLD(INDX,CODE,GRAN#) ALTRET(MINIQER);
      863     1509    2           DO INHIBIT;
      864     1510    2             TIMES_THRU = TIMES_THRU - 1;
      865     1511    2             IF TIMES_THRU = 0 THEN
      866     1512    2               CALL R_INT;
      867     1513    2             RETURN;
      868     1514    2           END;                            /* DO INHIBIT                         */
      869     1515    1   MINIQER:;
      870     1516    2           IF RETRY_FLG='1'B THEN DO;
PL6.E3A0      #003=MINIQ_PL6 File=ISI$IOPROC.:E05TSI                             TUE 07/29/97 22:52 Page:149
      871     1517    2                 IF C_FLG='0'B THEN GOTO ENT_MINIQ;
      872     1518    2                   ELSE GOTO ENT_MINIQC;
      873     1519    2               END;                        /* THEN                               */
      874     1520    1             ELSE;
      875     1521    2           DO INHIBIT;
      876     1522    2             TIMES_THRU = TIMES_THRU - 1;
      877     1523    2             IF TIMES_THRU = 0 THEN
      878     1524    2               CALL R_INT;
      879     1525    2             ALTRETURN;
      880     1526    2           END;                            /* DO INHIBIT                         */
      881     1527        /**/
      882     1528    1   MINIQC_PL6:ENTRY(INDX,BUF$,L,CODE,GRAN#) ALTRET;
      883     1529        /* Here BUF$ is the address of an user DCW */
      884     1530    2           DO INHIBIT;
      885     1531    2             IF TIMES_THRU = 0 THEN
      886     1532    2               CALL S_INT;
      887     1533    2             TIMES_THRU = TIMES_THRU + 1;
      888     1534    2           END;                            /* DO INHIBIT                         */
      889     1535    1   ENT_MINIQC:
      890     1536        /* Build a TDCW to user's DCW */
      891     1537    1           IOTEMP.AD=BUF_PTR.WOFFS;
      892     1538    1           IOTEMP.CP=0;
      893     1539    1           IOTEMP.NU='0'B;
      894     1540    1           IOTEMP.TYPE='10'B;              /* Make a TDCW                        */
      895     1541    1           IOTEMP.TALLY=0;
      896     1542    1           C_FLG='1'B;                     /* For possible retry                 */
      897     1543    1           GOTO MINIQ1;
      898     1544    1   END MINIQ_PL6;
      899     1545        %EOD;

PL6.E3A0      #003=MINIQ_PL6 File=ISI$IOPROC.:E05TSI                             TUE 07/29/97 22:52 Page:150
--  Include file information  --

   IS$MACROS.:E05TOU  is referenced.
      No diagnostics issued in procedure MINIQ_PL6.

   Procedure MINIQ_PL6 requires 129 words for executable code.
   Procedure MINIQ_PL6 requires 14 words of local(AUTO) storage.

PL6.E3A0      #003=MINIQ_PL6 File=ISI$IOPROC.:E05TSI                             TUE 07/29/97 22:52 Page:151

 Object Unit name= MINIQ_PL6                                  File name= ISI$IOPROC.:E05TOU
 UTS= JUL 29 '97 22:52:30.76 TUE                              Compiler= PL-6/E31         Sev=      00
 SharedLib= :SHARED_SYSTEM                                    Alt SharedLib=


    ****  Control sections  ****

 Sect   Type Bound  Init  Size OctSiz  Section name(segment info)
    0   Data  even  none    12     14  MINIQ_PL6
    1   Proc  even  none   129    201  MINIQ_PL6
    2  RoData even  none     4      4  MINIQ_PL6

    ****  Entry defs  ****

                              Check   Calling
                             calling  sequence
  Sect OctLoc Primary Altret sequence   type   Parms  Name
     1      0   yes    yes     yes      Std        5  MINIQ_PL6
     1    151          yes     yes      Std        5  MINIQC_PL6

  ****  Data defs  ****

 Sect OctLoc  Name                           Sect OctLoc  Name
    0      0  IOTEMP                             0      1  MINI_ZONE
    0      3  TDCW_IODCW                         0      4  IODCW
    0      7  RETRY_FLG
PL6.E3A0      #003=MINIQ_PL6 File=ISI$IOPROC.:E05TSI                             TUE 07/29/97 22:52 Page:152

  ****  Entry refs  ****

         Check        Calling
        calling       sequence
Altret sequence SRef   type   Args  Name
         yes           Std       0 S_INT
         yes           Std       4 DOIO
         yes           Std       0 R_INT
                       nStd      0 X66_AUTO_5
                       Std       0 B_CONSPOOL_D
                       nStd      0 X66_ARET
                       nStd      0 X66_AALT

  ****  Data refs  ****

  Flags:  r = read only, s = secondary
Flgs Name                             Flgs Name                             Flgs Name
     DEVINFO                               B_VECTNIL

  ****  Segment refs  ****

  Flags:  r = read only, s = secondary
Flgs Name                             Flgs Name                             Flgs Name
     ISSID
PL6.E3A0      #003=MINIQ_PL6 File=ISI$IOPROC.:E05TSI                             TUE 07/29/97 22:52 Page:153


      797        1        /*T***********************************************************/
      798        2        /*T*                                                         */
      799        3        /*T* Copyright (c) Bull HN Information Systems Inc., 1997    */
      800        4        /*T*                                                         */
      801        5        /*T***********************************************************/
      802        6        MINIQ_PL6:PROC(INDX,BUF$,L,CODE,GRAN#) ALTRET;

      6  1 000000   000000 700200 xent  MINIQ_PL6    TSX0  ! X66_AUTO_5
         1 000001   000016 000005                    ZERO    14,5

      803        7        /* This programm receives I/O requests */
      804        8        /* Calling param: INDX entry in DEVINFO */
      805        9        /*                BUF$ ptr to buffer    */
      806       10        /*                L buffer length       */
      807       11        /*                CODE  I/O code        */
      808       12        %INCLUDE IS$MACROS;
      809     1287    1   DCL INDX UBIN WORD;
      810     1288    1   DCL BUF$ PTR;
      811     1289        %PTR_STRUCT(NAME=BUF_PTR,STCLASS="REDEF BUF$");
      812     1307    1   DCL L UBIN WORD;
      813     1308    1   DCL CODE UBIN WORD;
      814     1309    1   DCL GRAN# UBIN WORD;
      815     1310        /**/
      816     1311    1   DCL DOIO ENTRY(4);
      817     1312    1   DCL S_INT ENTRY;
      818     1313    1   DCL R_INT ENTRY;
      819     1314    1   DCL CLLD EPTR;
      820     1315        /**/
      821     1316        %DEVINFO(STCLASS="SYMREF");
      822     1385    1   DCL BUF CHAR(1024) BASED(BUF$);
      823     1386        %DCW_STRUCT(NAME=IOTEMP);
      824     1404        %DOIO_COMZONE(NAME=MINI_ZONE);
      825     1437        %DCW_STRUCT(NAME=TDCW_IODCW);
      826     1455    1   DCL IODCW(0:2) STATIC SYMDEF BIT(36) ALIGNED;
      827     1456    1   DCL RETRY_FLG STATIC SYMDEF BIT(1) INIT('0'B);
      828     1457    1   DCL C_FLG STATIC BIT(1) INIT('0'B);
PL6.E3A0      #003=MINIQ_PL6 File=ISI$IOPROC.:E05TSI                             TUE 07/29/97 22:52 Page:154
      829     1458    1   DCL IODCW$ PTR STATIC INIT(ADDR(IODCW));
      830     1459        %PTR_STRUCT(NAME=IODCW_PTR,STCLASS="REDEF IODCW$");
      831     1477    1   DCL CODETAB(0:19) BIT(36) BASED ALIGNED;
      832     1478    1   DCL DOIO_COM$ PTR STATIC INIT(ADDR(MINI_ZONE));
      833     1479    1   DCL TIMES_THRU SBIN WORD STATIC INIT(0);
      834     1480        /**/
      835     1481    2           DO INHIBIT;

      836     1482    2             IF TIMES_THRU = 0 THEN

   1482  1 000002   000013 235200 0                  LDA   ! TIMES_THRU
         1 000003   000007 601200 1                  TNZ   ! s:1484

      837     1483    2               CALL S_INT;

   1483  1 000004   000002 631600 xsym               EPPR1 ! B_VECTNIL+2
         1 000005   000000 701200 xent               TSX1  ! S_INT
         1 000006   000000 011200                    NOP   ! 0

      838     1484    2             TIMES_THRU = TIMES_THRU + 1;

   1484  1 000007   000013 054200 0                  AOS   ! TIMES_THRU

      839     1485    2           END;                            /* DO INHIBIT                         */

   1484  1 000010                       ENT_MINIQ    null
      840     1486    1   ENT_MINIQ:;
      841     1487    1           C_FLG='0'B;

   1487  1 000010   000010 450000 0                  STZ     C_FLG

      842     1488        /* Build a DCW */
      843     1489    1           IOTEMP.AD=BUF_PTR.WOFFS;

   1489  1 000011   200004 470500                    LDP0    @BUF$,,AUTO
         1 000012   000000 220100                    LDX0    0,,PR0
         1 000013   000000 740000 0                  STX0    IOTEMP
PL6.E3A0      #003=MINIQ_PL6 File=ISI$IOPROC.:E05TSI                             TUE 07/29/97 22:52 Page:155

      844     1490    1           IOTEMP.CP=BUF_PTR.BYTEPOS;

   1490  1 000014   000000 236100                    LDQ     0,,PR0
         1 000015   600000 376007                    ANQ     -65536,DL
         1 000016   000001 772000                    QRL     1
         1 000017   000000 676000 0                  ERQ     IOTEMP
         1 000020   700000 376007                    ANQ     -32768,DL
         1 000021   000000 656000 0                  ERSQ    IOTEMP

      845     1491    1           IOTEMP.TYPE='0'B;               /* Make it an IOTD                    */

   1491  1 000022   000000 236000 2                  LDQ     0
         1 000023   000000 356000 0                  ANSQ    IOTEMP

      846     1492    1           IOTEMP.TALLY=(L+3)/4;

   1492  1 000024   200005 471500                    LDP1    @L,,AUTO
         1 000025   100000 236100                    LDQ     0,,PR1
         1 000026   000003 036007                    ADLQ    3,DL
         1 000027   000002 772000                    QRL     2
         1 000030   000000 752003 0                  STCQ    IOTEMP,'03'O

      847     1493    1   MINIQ1:
      848     1494    1           IODCW(0)=IOTEMP;

   1494  1 000031   000000 236000 0     MINIQ1       LDQ     IOTEMP
         1 000032   000004 756000 0                  STQ     IODCW

      849     1495        /* Call device handler routine */
      850     1496    1           CLLD=DEVINFO.HANDROUT$(INDX);

   1496  1 000033   200003 470500                    LDP0    @INDX,,AUTO
         1 000034   000000 236100                    LDQ     0,,PR0
         1 000035   000006 402007                    MPY     6,DL
         1 000036   000001 736000                    QLS     1
         1 000037   000010 236006 xsym               LDQ     DEVINFO+8,QL
PL6.E3A0      #003=MINIQ_PL6 File=ISI$IOPROC.:E05TSI                             TUE 07/29/97 22:52 Page:156
         1 000040   200010 756100                    STQ     CLLD,,AUTO

      851     1497    1           RETRY_FLG='0'B;

   1497  1 000041   000007 450000 0                  STZ     RETRY_FLG

      852     1498    1           CALL CLLD(INDX,CODE,GRAN#) ALTRET(MINIQER);

   1498  1 000042   200007 236100                    LDQ     @GRAN#,,AUTO
         1 000043   200014 756100                    STQ     CLLD+4,,AUTO
         1 000044   200006 236100                    LDQ     @CODE,,AUTO
         1 000045   200003 235100                    LDA     @INDX,,AUTO
         1 000046   200012 757100                    STAQ    CLLD+2,,AUTO
         1 000047   200012 630500                    EPPR0   CLLD+2,,AUTO
         1 000050   200010 220100                    LDX0    CLLD,,AUTO
         1 000051   000021 631400 xsym               EPPR1   B_VECTNIL+17
         1 000052   000000 701010                    TSX1    0,X0
         1 000053   000134 702000 1                  TSX2    MINIQER

      853     1499        /* Build DOIO command zone */
      854     1500    1           MINI_ZONE.IDCW$=ADDR(DEVINFO.FUNCTAB$(INDX)->CODETAB(CODE));

   1500  1 000054   200003 470500                    LDP0    @INDX,,AUTO
         1 000055   000000 236100                    LDQ     0,,PR0
         1 000056   000006 402007                    MPY     6,DL
         1 000057   000001 736000                    QLS     1
         1 000060   000012 471406 xsym               LDP1    DEVINFO+10,QL
         1 000061   200006 473500                    LDP3    @CODE,,AUTO
         1 000062   300000 720100                    LXL0    0,,PR3
         1 000063   100000 634510                    EPPR4   0,X0,PR1
         1 000064   000001 454400 0                  STP4    MINI_ZONE

      855     1501    1           TDCW_IODCW.AD=IODCW_PTR.WOFFS;

   1501  1 000065   000011 220000 0                  LDX0    IODCW$
         1 000066   000003 740000 0                  STX0    TDCW_IODCW

PL6.E3A0      #003=MINIQ_PL6 File=ISI$IOPROC.:E05TSI                             TUE 07/29/97 22:52 Page:157
      856     1502    1           TDCW_IODCW.TYPE='10'B;          /* TDCW to IODCW                      */

   1502  1 000067   000003 236000 0                  LDQ     TDCW_IODCW
         1 000070   000000 376000 2                  ANQ     0
         1 000071   020000 276007                    ORQ     8192,DL
         1 000072   000003 756000 0                  STQ     TDCW_IODCW

      857     1503    1           MINI_ZONE.DCW=TDCW_IODCW;

   1503  1 000073   000003 236000 0                  LDQ     TDCW_IODCW
         1 000074   000002 756000 0                  STQ     MINI_ZONE+1

      858     1504    1           CALL DOIO(INDX,DOIO_COM$);

   1504  1 000075   000001 236000 2                  LDQ     1
         1 000076   200003 235100                    LDA     @INDX,,AUTO
         1 000077   200012 757100                    STAQ    CLLD+2,,AUTO
         1 000100   200012 630500                    EPPR0   CLLD+2,,AUTO
         1 000101   000020 631400 xsym               EPPR1   B_VECTNIL+16
         1 000102   000000 701000 xent               TSX1    DOIO
         1 000103   000000 011000                    NOP     0

      859     1505        /* Call device clean_up routine */
      860     1506    1           CLLD=DEVINFO.CLEANROUT$(INDX);

   1506  1 000104   200003 470500                    LDP0    @INDX,,AUTO
         1 000105   000000 236100                    LDQ     0,,PR0
         1 000106   000006 402007                    MPY     6,DL
         1 000107   000001 736000                    QLS     1
         1 000110   000011 236006 xsym               LDQ     DEVINFO+9,QL
         1 000111   200010 756100                    STQ     CLLD,,AUTO

      861     1507    1           RETRY_FLG='0'B;

   1507  1 000112   000007 450000 0                  STZ     RETRY_FLG

      862     1508    1           CALL CLLD(INDX,CODE,GRAN#) ALTRET(MINIQER);
PL6.E3A0      #003=MINIQ_PL6 File=ISI$IOPROC.:E05TSI                             TUE 07/29/97 22:52 Page:158

   1508  1 000113   200007 236100                    LDQ     @GRAN#,,AUTO
         1 000114   200014 756100                    STQ     CLLD+4,,AUTO
         1 000115   200006 236100                    LDQ     @CODE,,AUTO
         1 000116   200003 235100                    LDA     @INDX,,AUTO
         1 000117   200012 757100                    STAQ    CLLD+2,,AUTO
         1 000120   200012 630500                    EPPR0   CLLD+2,,AUTO
         1 000121   200010 220100                    LDX0    CLLD,,AUTO
         1 000122   000021 631400 xsym               EPPR1   B_VECTNIL+17
         1 000123   000000 701010                    TSX1    0,X0
         1 000124   000134 702000 1                  TSX2    MINIQER

      863     1509    2           DO INHIBIT;

      864     1510    2             TIMES_THRU = TIMES_THRU - 1;

   1510  1 000125   000001 336207                    LCQ   ! 1,DL
         1 000126   000013 056200 0                  ASQ   ! TIMES_THRU

      865     1511    2             IF TIMES_THRU = 0 THEN

   1511  1 000127   000133 601200 1                  TNZ   ! s:1513

      866     1512    2               CALL R_INT;

   1512  1 000130   000002 631600 xsym               EPPR1 ! B_VECTNIL+2
         1 000131   000000 701200 xent               TSX1  ! R_INT
         1 000132   000000 011200                    NOP   ! 0

      867     1513    2             RETURN;

   1513  1 000133   000000 702200 xent               TSX2  ! X66_ARET

      868     1514    2           END;                            /* DO INHIBIT                         */

   1510  1 000134                       MINIQER      null
      869     1515    1   MINIQER:;
PL6.E3A0      #003=MINIQ_PL6 File=ISI$IOPROC.:E05TSI                             TUE 07/29/97 22:52 Page:159
      870     1516    2           IF RETRY_FLG='1'B THEN DO;

   1516  1 000134   000007 234000 0                  SZN     RETRY_FLG
         1 000135   000141 605000 1                  TPL     s:1522

      871     1517    2                 IF C_FLG='0'B THEN GOTO ENT_MINIQ;

   1517  1 000136   000010 234000 0                  SZN     C_FLG
         1 000137   000010 605000 1                  TPL     ENT_MINIQ

      872     1518    2                   ELSE GOTO ENT_MINIQC;

   1518  1 000140   000161 710000 1                  TRA     ENT_MINIQC

      873     1519    2               END;                        /* THEN                               */
      874     1520    1             ELSE;
      875     1521    2           DO INHIBIT;

      876     1522    2             TIMES_THRU = TIMES_THRU - 1;

   1522  1 000141   000001 336207                    LCQ   ! 1,DL
         1 000142   000013 056200 0                  ASQ   ! TIMES_THRU

      877     1523    2             IF TIMES_THRU = 0 THEN

   1523  1 000143   000147 601200 1                  TNZ   ! s:1525

      878     1524    2               CALL R_INT;

   1524  1 000144   000002 631600 xsym               EPPR1 ! B_VECTNIL+2
         1 000145   000000 701200 xent               TSX1  ! R_INT
         1 000146   000000 011200                    NOP   ! 0

      879     1525    2             ALTRETURN;

   1525  1 000147   000000 702200 xent               TSX2  ! X66_AALT

PL6.E3A0      #003=MINIQ_PL6 File=ISI$IOPROC.:E05TSI                             TUE 07/29/97 22:52 Page:160
      880     1526    2           END;                            /* DO INHIBIT                         */

   1526  1 000150   000153 710000 1                  TRA     s:1531

      881     1527        /**/
      882     1528    1   MINIQC_PL6:ENTRY(INDX,BUF$,L,CODE,GRAN#) ALTRET;

   1528  1 000151   000000 700200 xent  MINIQC_PL6   TSX0  ! X66_AUTO_5
         1 000152   000016 000005                    ZERO    14,5

      883     1529        /* Here BUF$ is the address of an user DCW */
      884     1530    2           DO INHIBIT;

      885     1531    2             IF TIMES_THRU = 0 THEN

   1531  1 000153   000013 235200 0                  LDA   ! TIMES_THRU
         1 000154   000160 601200 1                  TNZ   ! s:1533

      886     1532    2               CALL S_INT;

   1532  1 000155   000002 631600 xsym               EPPR1 ! B_VECTNIL+2
         1 000156   000000 701200 xent               TSX1  ! S_INT
         1 000157   000000 011200                    NOP   ! 0

      887     1533    2             TIMES_THRU = TIMES_THRU + 1;

   1533  1 000160   000013 054200 0                  AOS   ! TIMES_THRU

      888     1534    2           END;                            /* DO INHIBIT                         */

      889     1535    1   ENT_MINIQC:
      890     1536        /* Build a TDCW to user's DCW */
      891     1537    1           IOTEMP.AD=BUF_PTR.WOFFS;

   1537  1 000161   200004 470500       ENT_MINIQC   LDP0    @BUF$,,AUTO
         1 000162   000000 220100                    LDX0    0,,PR0
         1 000163   000000 740000 0                  STX0    IOTEMP
PL6.E3A0      #003=MINIQ_PL6 File=ISI$IOPROC.:E05TSI                             TUE 07/29/97 22:52 Page:161

      892     1538    1           IOTEMP.CP=0;

   1538  1 000164   000002 236000 2                  LDQ     2
         1 000165   000000 356000 0                  ANSQ    IOTEMP

      893     1539    1           IOTEMP.NU='0'B;

   1539  1 000166   000003 236000 2                  LDQ     3
         1 000167   000000 356000 0                  ANSQ    IOTEMP

      894     1540    1           IOTEMP.TYPE='10'B;              /* Make a TDCW                        */

   1540  1 000170   000000 236000 0                  LDQ     IOTEMP
         1 000171   000000 376000 2                  ANQ     0
         1 000172   020000 276007                    ORQ     8192,DL
         1 000173   000000 756000 0                  STQ     IOTEMP

      895     1541    1           IOTEMP.TALLY=0;

   1541  1 000174   000000 236003                    LDQ     0,DU
         1 000175   000000 752003 0                  STCQ    IOTEMP,'03'O

      896     1542    1           C_FLG='1'B;                     /* For possible retry                 */

   1542  1 000176   400000 236003                    LDQ     -131072,DU
         1 000177   000010 756000 0                  STQ     C_FLG

      897     1543    1           GOTO MINIQ1;

   1543  1 000200   000031 710000 1                  TRA     MINIQ1
      898     1544    1   END MINIQ_PL6;
      899     1545        %EOD;

PL6.E3A0      #003=MINIQ_PL6 File=ISI$IOPROC.:E05TSI                             TUE 07/29/97 22:52 Page:162
--  Include file information  --

   IS$MACROS.:E05TOU  is referenced.
      No diagnostics issued in procedure MINIQ_PL6.
PL6.E3A0      #003=MINIQ_PL6 File=ISI$IOPROC.:E05TSI                             TUE 07/29/97 22:52 Page:163

 **** Variables and constants ****

  ****  Section 000  Data  MINIQ_PL6

  ****  Scalars and arrays  ****
OctLoc.c.b A Datatyp(siz) R M Lvl/name                 OctLoc.c.b A Datatyp(siz) R M Lvl/name

    10-0-0/b BIT         r     1 C_FLG                     12-0-0/w PTR         r     1 DOIO_COM$
     4-0-0/w BIT         r     1 IODCW(0:2)                11-0-0/w PTR         r     1 IODCW$
    11-0-0/w STRC        r     1 IODCW_PTR                  0-0-0/w STRC        r     1 IOTEMP
     1-0-0/w STRC(72)    r     1 MINI_ZONE                  7-0-0/b BIT         r     1 RETRY_FLG
     3-0-0/w STRC        r     1 TDCW_IODCW                13-0-0/w SBIN        r     1 TIMES_THRU

  ****  Auto variables  ****

  ****  Scalars and arrays  ****
OctLoc.c.b A Datatyp(siz) R M Lvl/name                 OctLoc.c.b A Datatyp(siz) R M Lvl/name

     4-0-0/w PTR         r     1 @BUF$                      6-0-0/w PTR         r     1 @CODE
     7-0-0/w PTR         r     1 @GRAN#                     3-0-0/w PTR         r     1 @INDX
     5-0-0/w PTR         r     1 @L                        *0-0-0/w PTR         r     1 BUF$
    *0-0-0/w STRC        r     1 BUF_PTR                   10-0-0/w EPTR        r     1 CLLD
    *0-0-0/w UBIN        r     1 CODE                      *0-0-0/w UBIN        r     1 GRAN#
    *0-0-0/w UBIN        r     1 INDX                      *0-0-0/w UBIN        r     1 L

  ****  SYMREF variables  ****

  ****  Scalars and arrays  ****
OctLoc.c.b A Datatyp(siz) R M Lvl/name                 OctLoc.c.b A Datatyp(siz) R M Lvl/name

     0-0-0/d STRC(396)   r     1 DEVINFO(0:21)

  ****  BASED and DCB variables  ****

  ****  Scalars and arrays  ****
OctLoc.c.b A Datatyp(siz) R M Lvl/name                 OctLoc.c.b A Datatyp(siz) R M Lvl/name

PL6.E3A0      #003=MINIQ_PL6 File=ISI$IOPROC.:E05TSI                             TUE 07/29/97 22:52 Page:164
     0-0-0/w BIT         r     1 CODETAB(0:19)


   Procedure MINIQ_PL6 requires 129 words for executable code.
   Procedure MINIQ_PL6 requires 14 words of local(AUTO) storage.
PL6.E3A0      #003=MINIQ_PL6 File=ISI$IOPROC.:E05TSI                             TUE 07/29/97 22:52 Page:165
          *** CROSS REFERENCE LISTING ***
**     DENOTES     IDENTIFIER DEFINITION
<<                 IDENTIFIER'S VALUE SET
>>                 IDENTIFIER'S VALUE USED
<>                 IDENTIFIER SET AND/OR USED
--                 IDENTIFIER REFERENCED
PL6.E3A0      #003=MINIQ_PL6 File=ISI$IOPROC.:E05TSI                             TUE 07/29/97 22:52 Page:166
          MINI XREF LISTING

BUF$
      1288**DCL         6--PROC     1300--REDEF    1385--IMP-PTR  1528--ENTRY
BUF_PTR.BYTEPOS
      1302**DCL      1490>>ASSIGN
BUF_PTR.WOFFS
      1301**DCL      1489>>ASSIGN   1537>>ASSIGN
CLLD
      1314**DCL      1496<<ASSIGN   1498>>CALL     1506<<ASSIGN   1508>>CALL
CODE
      1308**DCL         6--PROC     1498<>CALL     1500>>ASSIGN   1508<>CALL     1528--ENTRY
CODETAB
      1477**DCL      1500--ASSIGN
C_FLG
      1457**DCL      1487<<ASSIGN   1517>>IF       1542<<ASSIGN
DEVINFO.CLEANROUT$
      1379**DCL      1506>>ASSIGN
DEVINFO.FUNCTAB$
      1381**DCL      1500>>ASSIGN
DEVINFO.HANDROUT$
      1377**DCL      1496>>ASSIGN
DEVINFO.PCWS
      1332**DCL      1343--REDEF
DEVINFO.RPM_PTRS.EF_DCWS$
      1345**DCL      1346--REDEF
DEVINFO.STATUS
      1349**DCL      1368--REDEF
DOIO
      1311**DCL-ENT  1504--CALL
DOIO_COM$
      1478**DCL      1504<>CALL
ENT_MINIQ
      1484**LABEL    1517--GOTO
PL6.E3A0      #003=MINIQ_PL6 File=ISI$IOPROC.:E05TSI                             TUE 07/29/97 22:52 Page:167
ENT_MINIQC
      1537**LABEL    1518--GOTO
GRAN#
      1309**DCL         6--PROC     1498<>CALL     1508<>CALL     1528--ENTRY
INDX
      1287**DCL         6--PROC     1496>>ASSIGN   1498<>CALL     1500>>ASSIGN   1504<>CALL     1506>>ASSIGN
      1508<>CALL     1528--ENTRY
IODCW
      1455**DCL      1458--DCLINIT  1494<<ASSIGN
IODCW$
      1458**DCL      1470--REDEF
IODCW_PTR.WOFFS
      1471**DCL      1501>>ASSIGN
IOTEMP
      1396**DCL      1494>>ASSIGN
IOTEMP.AD
      1397**DCL      1489<<ASSIGN   1537<<ASSIGN
IOTEMP.CP
      1398**DCL      1490<<ASSIGN   1538<<ASSIGN
IOTEMP.NU
      1399**DCL      1539<<ASSIGN
IOTEMP.TALLY
      1401**DCL      1492<<ASSIGN   1541<<ASSIGN
IOTEMP.TYPE
      1400**DCL      1491<<ASSIGN   1540<<ASSIGN
L
      1307**DCL         6--PROC     1492>>ASSIGN   1528--ENTRY
MINIQ1
      1494**LABEL    1543--GOTO
MINIQER
      1510**LABEL    1498--CALLALT  1508--CALLALT
MINI_ZONE
      1415**DCL      1478--DCLINIT
MINI_ZONE.DCW
      1422**DCL      1426--REDEF    1429--REDEF    1430--REDEF    1503<<ASSIGN
MINI_ZONE.IDCW$
PL6.E3A0      #003=MINIQ_PL6 File=ISI$IOPROC.:E05TSI                             TUE 07/29/97 22:52 Page:168
      1421**DCL      1500<<ASSIGN
MINI_ZONE.W1
      1416**DCL      1421--REDEF
RETRY_FLG
      1456**DCL      1497<<ASSIGN   1507<<ASSIGN   1516>>IF
R_INT
      1313**DCL-ENT  1512--CALL     1524--CALL
S_INT
      1312**DCL-ENT  1483--CALL     1532--CALL
TDCW_IODCW
      1447**DCL      1503>>ASSIGN
TDCW_IODCW.AD
      1448**DCL      1501<<ASSIGN
TDCW_IODCW.TYPE
      1451**DCL      1502<<ASSIGN
TIMES_THRU
      1479**DCL      1482>>IF       1484<<ASSIGN   1484>>ASSIGN   1510<<ASSIGN   1510>>ASSIGN   1511>>IF
      1522<<ASSIGN   1522>>ASSIGN   1523>>IF       1531>>IF       1533<<ASSIGN   1533>>ASSIGN

PL6.E3A0      #004=OCIO File=ISI$IOPROC.:E05TSI                                  TUE 07/29/97 22:52 Page:169
      900        1        /*T***********************************************************/
      901        2        /*T*                                                         */
      902        3        /*T* Copyright (c) Bull HN Information Systems Inc., 1997    */
      903        4        /*T*                                                         */
      904        5        /*T***********************************************************/
      905        6        OCIO:   PROC(INDX,CODE);
      906        7        %INCLUDE IS$MACROS;
      907     1282    1   DCL CODE UBIN WORD;
      908     1283    1   DCL INDX UBIN WORD;
      909     1284    1   DCL S1000_FLG BIT(1) SYMREF;
      910     1285    1   DCL PSI_FLG BIT(1) SYMREF;
      911     1286        /**/
      912     1287    1   DCL IODCW(0:2) BIT(36) SYMREF;
      913     1288        %DCW_STRUCT(NAME=IOTP_CR);
      914     1306    1   DCL CR_BUF BIT(36) STATIC ALIGNED INIT('015015015012'O);
      915     1307    1   DCL CR_BUF$ PTR STATIC INIT(ADDR(CR_BUF));
      916     1308        %PTR_STRUCT(NAME=CR_BUF_PTR,STCLASS="REDEF CR_BUF$");
      917     1326        %DCW_STRUCT(NAME=W_CELL,STCLASS="");
      918     1344        %PTR_STRUCT(NAME=CHECK_PTR);
      919     1362    1   DCL CHECK$ REDEF CHECK_PTR PTR;
      920     1363    1   DCL CCBUF CHAR(LGTH) BASED(CHECK$);
      921     1364    1   DCL UBUF(0:0) UBIN(9) BASED(CHECK$) UNAL;
      922     1365    1   DCL I UBIN WORD;
      923     1366    1   DCL LGTH UBIN WORD;
      924     1367    1           IF S1000_FLG='1'B THEN PSI_FLG='1'B;
              1367                    /* On IOP the console is a PSI device */
      925     1368    1             ELSE;
      926     1369    2           IF (CODE=%FCNWCA OR CODE=%FCNWCM) AND S1000_FLG THEN DO;
      927     1370                                      /* Check for unprintable characters on S1000    */
      928     1371    2                 W_CELL=IODCW(0);
      929     1372    2                 CHECK_PTR.WOFFS=W_CELL.AD;
      930     1373    2                 CHECK_PTR.BYTEPOS=W_CELL.CP;
      931     1374    2                 LGTH=W_CELL.TALLY*4;
      932     1375    3                 DO I=0 TO LGTH-1;
      933     1376    3                   IF NOT(UBUF(I)=10 OR UBUF(I)=13) THEN
      934     1377    3                     IF ( UBUF(I)>=126 OR UBUF(I)<32 ) THEN
      935     1378    3                       SUBSTR(CCBUF,I,1)=' ';
PL6.E3A0      #004=OCIO File=ISI$IOPROC.:E05TSI                                  TUE 07/29/97 22:52 Page:170
      936     1379    3                 END;                      /* DO I=                              */
      937     1380    2               END;                        /* THEN                               */
      938     1381    1           IOTP_CR.AD=CR_BUF_PTR.WOFFS;
      939     1382    1           IOTP_CR.TYPE='01'B;
      940     1383    1           IOTP_CR.TALLY=1;                /* IOTP with CR                       */
      941     1384    1           IF CODE~=1 THEN RETURN;
      942     1385    2             ELSE DO;
      943     1386    2                 IODCW(1)=IODCW(0);
      944     1387    2                 IODCW(0)=IOTP_CR;
      945     1388    2               END;                        /* ELSE                               */
      946     1389    1           RETURN;
      947     1390    1   END OCIO;
      948     1391        %EOD;

PL6.E3A0      #004=OCIO File=ISI$IOPROC.:E05TSI                                  TUE 07/29/97 22:52 Page:171
--  Include file information  --

   IS$MACROS.:E05TOU  is referenced.
      No diagnostics issued in procedure OCIO.

   Procedure OCIO requires 89 words for executable code.
   Procedure OCIO requires 10 words of local(AUTO) storage.

PL6.E3A0      #004=OCIO File=ISI$IOPROC.:E05TSI                                  TUE 07/29/97 22:52 Page:172

 Object Unit name= OCIO                                       File name= ISI$IOPROC.:E05TOU
 UTS= JUL 29 '97 22:52:36.00 TUE                              Compiler= PL-6/E31         Sev=      00
 SharedLib= :SHARED_SYSTEM                                    Alt SharedLib=


    ****  Control sections  ****

 Sect   Type Bound  Init  Size OctSiz  Section name(segment info)
    0   Data  even  none     4      4  OCIO
    1   Proc  even  none    89    131  OCIO
    2  RoData even  none     1      1  OCIO

    ****  Entry defs  ****

                              Check   Calling
                             calling  sequence
  Sect OctLoc Primary Altret sequence   type   Parms  Name
     1      0   yes            yes      Std        2  OCIO

  ****  Data defs  ****

 Sect OctLoc  Name                           Sect OctLoc  Name
    0      0  IOTP_CR                            0      3  CHECK_PTR

  ****  Entry refs  ****

         Check        Calling
        calling       sequence
Altret sequence SRef   type   Args  Name
                       nStd      0 X66_AUTO_2
                       Std       0 B_CONSPOOL_D
                       nStd      0 X66_ARET
PL6.E3A0      #004=OCIO File=ISI$IOPROC.:E05TSI                                  TUE 07/29/97 22:52 Page:173

  ****  Data refs  ****

  Flags:  r = read only, s = secondary
Flgs Name                             Flgs Name                             Flgs Name
     S1000_FLG                             PSI_FLG                               IODCW
     B_VECTNIL

  ****  Segment refs  ****

  Flags:  r = read only, s = secondary
Flgs Name                             Flgs Name                             Flgs Name
     ISSID
PL6.E3A0      #004=OCIO File=ISI$IOPROC.:E05TSI                                  TUE 07/29/97 22:52 Page:174


      900        1        /*T***********************************************************/
      901        2        /*T*                                                         */
      902        3        /*T* Copyright (c) Bull HN Information Systems Inc., 1997    */
      903        4        /*T*                                                         */
      904        5        /*T***********************************************************/
      905        6        OCIO:   PROC(INDX,CODE);

      6  1 000000   000000 700200 xent  OCIO         TSX0  ! X66_AUTO_2
         1 000001   000012 000002                    ZERO    10,2

      906        7        %INCLUDE IS$MACROS;
      907     1282    1   DCL CODE UBIN WORD;
      908     1283    1   DCL INDX UBIN WORD;
      909     1284    1   DCL S1000_FLG BIT(1) SYMREF;
      910     1285    1   DCL PSI_FLG BIT(1) SYMREF;
      911     1286        /**/
      912     1287    1   DCL IODCW(0:2) BIT(36) SYMREF;
      913     1288        %DCW_STRUCT(NAME=IOTP_CR);
      914     1306    1   DCL CR_BUF BIT(36) STATIC ALIGNED INIT('015015015012'O);
      915     1307    1   DCL CR_BUF$ PTR STATIC INIT(ADDR(CR_BUF));
      916     1308        %PTR_STRUCT(NAME=CR_BUF_PTR,STCLASS="REDEF CR_BUF$");
      917     1326        %DCW_STRUCT(NAME=W_CELL,STCLASS="");
      918     1344        %PTR_STRUCT(NAME=CHECK_PTR);
      919     1362    1   DCL CHECK$ REDEF CHECK_PTR PTR;
      920     1363    1   DCL CCBUF CHAR(LGTH) BASED(CHECK$);
      921     1364    1   DCL UBUF(0:0) UBIN(9) BASED(CHECK$) UNAL;
      922     1365    1   DCL I UBIN WORD;
      923     1366    1   DCL LGTH UBIN WORD;
      924     1367    1           IF S1000_FLG='1'B THEN PSI_FLG='1'B;
              1367                    /* On IOP the console is a PSI device */

   1367  1 000002   000000 234000 xsym               SZN     S1000_FLG
         1 000003   000006 605000 1                  TPL     s:1369

   1367  1 000004   400000 236003                    LDQ     -131072,DU
         1 000005   000000 756000 xsym               STQ     PSI_FLG
PL6.E3A0      #004=OCIO File=ISI$IOPROC.:E05TSI                                  TUE 07/29/97 22:52 Page:175

      925     1368    1             ELSE;
      926     1369    2           IF (CODE=%FCNWCA OR CODE=%FCNWCM) AND S1000_FLG THEN DO;

   1369  1 000006   200004 470500                    LDP0    @CODE,,AUTO
         1 000007   000000 235100                    LDA     0,,PR0
         1 000010   000001 115007                    CMPA    1,DL
         1 000011   000014 600000 1                  TZE     s:1369+6
         1 000012   000002 115007                    CMPA    2,DL
         1 000013   000107 601000 1                  TNZ     s:1381
         1 000014   000000 234000 xsym               SZN     S1000_FLG
         1 000015   000107 605000 1                  TPL     s:1381

      927     1370                                      /* Check for unprintable characters on S1000    */
      928     1371    2                 W_CELL=IODCW(0);

   1371  1 000016   000000 236000 xsym               LDQ     IODCW
         1 000017   200005 756100                    STQ     W_CELL,,AUTO

      929     1372    2                 CHECK_PTR.WOFFS=W_CELL.AD;

   1372  1 000020   200005 220100                    LDX0    W_CELL,,AUTO
         1 000021   000003 740000 0                  STX0    CHECK_PTR

      930     1373    2                 CHECK_PTR.BYTEPOS=W_CELL.CP;

   1373  1 000022   000001 736000                    QLS     1
         1 000023   000003 676000 0                  ERQ     CHECK_PTR
         1 000024   600000 376007                    ANQ     -65536,DL
         1 000025   000003 656000 0                  ERSQ    CHECK_PTR

      931     1374    2                 LGTH=W_CELL.TALLY*4;

   1374  1 000026   200005 236100                    LDQ     W_CELL,,AUTO
         1 000027   000002 736000                    QLS     2
         1 000030   037774 376007                    ANQ     16380,DL
         1 000031   200007 756100                    STQ     LGTH,,AUTO
PL6.E3A0      #004=OCIO File=ISI$IOPROC.:E05TSI                                  TUE 07/29/97 22:52 Page:176

      932     1375    3                 DO I=0 TO LGTH-1;

   1375  1 000032   200006 450100                    STZ     I,,AUTO
         1 000033   000104 710000 1                  TRA     s:1379+3

      933     1376    3                   IF NOT(UBUF(I)=10 OR UBUF(I)=13) THEN

   1376  1 000034   200006 236100                    LDQ     I,,AUTO
         1 000035   000011 402007                    MPY     9,DL
         1 000036   000003 470400 0                  LDP0    CHECK_PTR
         1 000037   003100 061506                    CSR     bolr='003'O
         1 000040   000000 000011                    BDSC    0,Q,PR0                  by=0,bit=0,n=9
         1 000041   200010 000044                    BDSC    LGTH+1,,AUTO             by=0,bit=0,n=36
         1 000042   200010 236100                    LDQ     LGTH+1,,AUTO
         1 000043   000012 116007                    CMPQ    10,DL
         1 000044   000101 600000 1                  TZE     s:1379
         1 000045   200006 236100                    LDQ     I,,AUTO
         1 000046   000011 402007                    MPY     9,DL
         1 000047   003100 061506                    CSR     bolr='003'O
         1 000050   000000 000011                    BDSC    0,Q,PR0                  by=0,bit=0,n=9
         1 000051   200011 000044                    BDSC    LGTH+2,,AUTO             by=0,bit=0,n=36
         1 000052   200011 236100                    LDQ     LGTH+2,,AUTO
         1 000053   000015 116007                    CMPQ    13,DL
         1 000054   000101 600000 1                  TZE     s:1379

      934     1377    3                     IF ( UBUF(I)>=126 OR UBUF(I)<32 ) THEN

   1377  1 000055   200006 236100                    LDQ     I,,AUTO
         1 000056   000011 402007                    MPY     9,DL
         1 000057   003100 061506                    CSR     bolr='003'O
         1 000060   000000 000011                    BDSC    0,Q,PR0                  by=0,bit=0,n=9
         1 000061   200010 000044                    BDSC    LGTH+1,,AUTO             by=0,bit=0,n=36
         1 000062   200010 236100                    LDQ     LGTH+1,,AUTO
         1 000063   000176 116007                    CMPQ    126,DL
         1 000064   000075 605000 1                  TPL     s:1378
         1 000065   200006 236100                    LDQ     I,,AUTO
PL6.E3A0      #004=OCIO File=ISI$IOPROC.:E05TSI                                  TUE 07/29/97 22:52 Page:177
         1 000066   000011 402007                    MPY     9,DL
         1 000067   003100 061506                    CSR     bolr='003'O
         1 000070   000000 000011                    BDSC    0,Q,PR0                  by=0,bit=0,n=9
         1 000071   200011 000044                    BDSC    LGTH+2,,AUTO             by=0,bit=0,n=36
         1 000072   200011 236100                    LDQ     LGTH+2,,AUTO
         1 000073   000040 116007                    CMPQ    32,DL
         1 000074   000101 605000 1                  TPL     s:1379

      935     1378    3                       SUBSTR(CCBUF,I,1)=' ';

   1378  1 000075   200006 235100                    LDA     I,,AUTO
         1 000076   040105 100400                    MLR     fill='040'O
         1 000077   000035 000001 xsym               ADSC9   B_VECTNIL+29             cn=0,n=1
         1 000100   000000 000001                    ADSC9   0,A,PR0                  cn=0,n=1

      936     1379    3                 END;                      /* DO I=                              */

   1379  1 000101   200006 235100                    LDA     I,,AUTO
         1 000102   000001 035007                    ADLA    1,DL
         1 000103   200006 755100                    STA     I,,AUTO
         1 000104   200006 236100                    LDQ     I,,AUTO
         1 000105   200007 116100                    CMPQ    LGTH,,AUTO
         1 000106   000034 602000 1                  TNC     s:1376

      937     1380    2               END;                        /* THEN                               */

      938     1381    1           IOTP_CR.AD=CR_BUF_PTR.WOFFS;

   1381  1 000107   000002 220000 0                  LDX0    CR_BUF$
         1 000110   000000 740000 0                  STX0    IOTP_CR

      939     1382    1           IOTP_CR.TYPE='01'B;

   1382  1 000111   000000 236000 0                  LDQ     IOTP_CR
         1 000112   000000 376000 2                  ANQ     0
         1 000113   010000 276007                    ORQ     4096,DL
         1 000114   000000 756000 0                  STQ     IOTP_CR
PL6.E3A0      #004=OCIO File=ISI$IOPROC.:E05TSI                                  TUE 07/29/97 22:52 Page:178

      940     1383    1           IOTP_CR.TALLY=1;                /* IOTP with CR                       */

   1383  1 000115   000001 236007                    LDQ     1,DL
         1 000116   000000 752003 0                  STCQ    IOTP_CR,'03'O

      941     1384    1           IF CODE~=1 THEN RETURN;

   1384  1 000117   200004 470500                    LDP0    @CODE,,AUTO
         1 000120   000000 235100                    LDA     0,,PR0
         1 000121   000001 115007                    CMPA    1,DL
         1 000122   000124 600000 1                  TZE     s:1386

   1384  1 000123   000000 702200 xent               TSX2  ! X66_ARET

      942     1385    2             ELSE DO;

      943     1386    2                 IODCW(1)=IODCW(0);

   1386  1 000124   000000 236000 xsym               LDQ     IODCW
         1 000125   000001 756000 xsym               STQ     IODCW+1

      944     1387    2                 IODCW(0)=IOTP_CR;

   1387  1 000126   000000 236000 0                  LDQ     IOTP_CR
         1 000127   000000 756000 xsym               STQ     IODCW

      945     1388    2               END;                        /* ELSE                               */

      946     1389    1           RETURN;

   1389  1 000130   000000 702200 xent               TSX2  ! X66_ARET
      947     1390    1   END OCIO;
      948     1391        %EOD;

PL6.E3A0      #004=OCIO File=ISI$IOPROC.:E05TSI                                  TUE 07/29/97 22:52 Page:179
--  Include file information  --

   IS$MACROS.:E05TOU  is referenced.
      No diagnostics issued in procedure OCIO.
PL6.E3A0      #004=OCIO File=ISI$IOPROC.:E05TSI                                  TUE 07/29/97 22:52 Page:180

 **** Variables and constants ****

  ****  Section 000  Data  OCIO

  ****  Scalars and arrays  ****
OctLoc.c.b A Datatyp(siz) R M Lvl/name                 OctLoc.c.b A Datatyp(siz) R M Lvl/name

     3-0-0/w PTR         r     1 CHECK$                     3-0-0/w STRC        r     1 CHECK_PTR
     1-0-0/w BIT         r     1 CR_BUF                     2-0-0/w PTR         r     1 CR_BUF$
     2-0-0/w STRC        r     1 CR_BUF_PTR                 0-0-0/w STRC        r     1 IOTP_CR

  ****  Auto variables  ****

  ****  Scalars and arrays  ****
OctLoc.c.b A Datatyp(siz) R M Lvl/name                 OctLoc.c.b A Datatyp(siz) R M Lvl/name

     4-0-0/w PTR         r     1 @CODE                      3-0-0/w PTR         r     1 @INDX
    *0-0-0/w UBIN        r     1 CODE                       6-0-0/w UBIN        r     1 I
    *0-0-0/w UBIN        r     1 INDX                       7-0-0/w UBIN        r     1 LGTH
     5-0-0/w STRC        r     1 W_CELL

  ****  SYMREF variables  ****

  ****  Scalars and arrays  ****
OctLoc.c.b A Datatyp(siz) R M Lvl/name                 OctLoc.c.b A Datatyp(siz) R M Lvl/name

     0-0-0/b BIT         r     1 IODCW(0:2)                 0-0-0/b BIT         r     1 PSI_FLG
     0-0-0/b BIT         r     1 S1000_FLG

  ****  BASED and DCB variables  ****

  ****  Scalars and arrays  ****
OctLoc.c.b A Datatyp(siz) R M Lvl/name                 OctLoc.c.b A Datatyp(siz) R M Lvl/name

     0-0-0/c ACHR        r     1 CCBUF                      0-0-0/b UBIN(9)     r     1 UBUF(0:0)

PL6.E3A0      #004=OCIO File=ISI$IOPROC.:E05TSI                                  TUE 07/29/97 22:52 Page:181

   Procedure OCIO requires 89 words for executable code.
   Procedure OCIO requires 10 words of local(AUTO) storage.
PL6.E3A0      #004=OCIO File=ISI$IOPROC.:E05TSI                                  TUE 07/29/97 22:52 Page:182
          *** CROSS REFERENCE LISTING ***
**     DENOTES     IDENTIFIER DEFINITION
<<                 IDENTIFIER'S VALUE SET
>>                 IDENTIFIER'S VALUE USED
<>                 IDENTIFIER SET AND/OR USED
--                 IDENTIFIER REFERENCED
PL6.E3A0      #004=OCIO File=ISI$IOPROC.:E05TSI                                  TUE 07/29/97 22:52 Page:183
          MINI XREF LISTING

CCBUF
      1363**DCL      1378<<ASSIGN
CHECK$
      1362**DCL      1363--IMP-PTR  1364--IMP-PTR  1376>>IF       1376>>IF       1377>>IF       1377>>IF
      1378>>ASSIGN
CHECK_PTR
      1355**DCL      1362--REDEF
CHECK_PTR.BYTEPOS
      1357**DCL      1373<<ASSIGN
CHECK_PTR.WOFFS
      1356**DCL      1372<<ASSIGN
CODE
      1282**DCL         6--PROC     1369>>IF       1369>>IF       1384>>IF
CR_BUF
      1306**DCL      1307--DCLINIT
CR_BUF$
      1307**DCL      1319--REDEF
CR_BUF_PTR.WOFFS
      1320**DCL      1381>>ASSIGN
I
      1365**DCL      1375<<DOINDEX  1376>>IF       1376>>IF       1377>>IF       1377>>IF       1378>>ASSIGN
INDX
      1283**DCL         6--PROC
IODCW
      1287**DCL      1371>>ASSIGN   1386<<ASSIGN   1386>>ASSIGN   1387<<ASSIGN
IOTP_CR
      1298**DCL      1387>>ASSIGN
IOTP_CR.AD
      1299**DCL      1381<<ASSIGN
IOTP_CR.TALLY
      1303**DCL      1383<<ASSIGN
IOTP_CR.TYPE
PL6.E3A0      #004=OCIO File=ISI$IOPROC.:E05TSI                                  TUE 07/29/97 22:52 Page:184
      1302**DCL      1382<<ASSIGN
LGTH
      1366**DCL      1363--IMP-SIZ  1374<<ASSIGN   1375>>DOINDEX  1378>>ASSIGN
PSI_FLG
      1285**DCL      1367<<ASSIGN
S1000_FLG
      1284**DCL      1367>>IF       1369>>IF
UBUF
      1364**DCL      1376>>IF       1376>>IF       1377>>IF       1377>>IF
W_CELL
      1336**DCL      1371<<ASSIGN
W_CELL.AD
      1337**DCL      1372>>ASSIGN
W_CELL.CP
      1338**DCL      1373>>ASSIGN
W_CELL.TALLY
      1341**DCL      1374>>ASSIGN

PL6.E3A0      #005=OCCU File=ISI$IOPROC.:E05TSI                                  TUE 07/29/97 22:52 Page:185
      949        1        /*T***********************************************************/
      950        2        /*T*                                                         */
      951        3        /*T* Copyright (c) Bull HN Information Systems Inc., 1997    */
      952        4        /*T*                                                         */
      953        5        /*T***********************************************************/
      954        6        OCCU:   PROC(INDX,CODE) ALTRET;
      955        7        %INCLUDE IS$MACROS;
      956     1282    1   DCL INDX UBIN WORD;
      957     1283    1   DCL CODE UBIN WORD;
      958     1284        /**/
      959     1285    1   DCL BUILD_MESSAGE ENTRY(1);
      960     1286    1   DCL MINIQ_PL6 ENTRY(5) ALTRET;
      961     1287    1   DCL DOIO ENTRY(4);
      962     1288    1   DCL DOIOX ENTRY(4);
      963     1289        /**/
      964     1290        %DEVINFO(STCLASS="SYMREF");
      965     1359        %DOIO_COMZONE(NAME=OCCU_ZONE);
      966     1392    1   DCL DOIO_COM$ PTR STATIC INIT(ADDR(OCCU_ZONE));
      967     1393    1   DCL BUF CHAR(1024) BASED(RES_BUF$);
      968     1394        %PTR_STRUCT(NAME=RES_BUF_PTR);
      969     1412    1   DCL RES_BUF$ REDEF RES_BUF_PTR PTR;
      970     1413    1   DCL RETRY_FLG BIT(1) SYMREF;
      971     1414    1   DCL TYPEBI BIT(36) SYMREF;
      972     1415    1   DCL OCCUM CHAR(1) SYMREF;
      973     1416    1   DCL MESSAGE CHAR(80) SYMREF;
      974     1417    1   DCL MESSAGE_CNT UBIN SYMREF;
      975     1418    1   DCL S1000_FLG BIT(1) SYMREF;
      976     1419    1   DCL CRNOLF BIT(36) ALIGNED STATIC INIT('015040040040'O);
      977     1420        /**/
      978     1421    1           IF CODE=%FCNWCA OR CODE=%FCNWCM THEN GOTO OCCUW; /* Write codes       */
      979     1422    1             ELSE;
      980     1423    1           IF (DEVINFO.BSTAT.W1.H1(INDX)&'777707'O)~='400000'O OR
      981     1424    1             DEVINFO.STATUS.IOM_CHAN_STAT(INDX)~='0'B OR
      982     1425    1             DEVINFO.STATUS.IOM_CENT_STAT(INDX)~='0'B
      983     1426    1             THEN GOTO OCCU7;              /* Not ready status                   */
      984     1427    1             ELSE;                         /* Ready                              */
      985     1428        /* Fill buffer with blanks */
PL6.E3A0      #005=OCCU File=ISI$IOPROC.:E05TSI                                  TUE 07/29/97 22:52 Page:186
      986     1429    1   OCCU6:  ;
      987     1430    1           RES_BUF_PTR.WOFFS=DEVINFO.STATUS.NEXT_ADDR(INDX)-1;
      988     1431    1           RES_BUF_PTR.BYTEPOS=DEVINFO.STATUS.CHAR_POS(INDX);
      989     1432    2           IF DEVINFO.STATUS.CHAR_POS(INDX)=0 THEN DO;
      990     1433    2                 RES_BUF_PTR.WOFFS=RES_BUF_PTR.WOFFS+1;
      991     1434    2                 SUBSTR(BUF,0,DEVINFO.STATUS.TALLY_RESID(INDX)*4)=' ';
      992     1435    2               END;                        /* THEN                               */
      993     1436    1             ELSE
      994     1437    1             SUBSTR(BUF,0,(DEVINFO.STATUS.TALLY_RESID(INDX)*4+4-DEVINFO.STATUS.CHAR_POS
              1437                      (INDX)))=' ';
      995     1438    1           RETURN;
      996     1439        /**/
      997     1440    1   OCCU7:  ;
      998     1441    1           IF DEVINFO.STATUS.MAJ_STAT(INDX)~='0011'B THEN GOTO WRIT_ALERT;
      999     1442    1             ELSE;
     1000     1443    1           IF DEVINFO.STATUS.SUB_STAT(INDX)='04'O THEN GOTO RETRY0;
              1443                    /* Operator input alert */
     1001     1444    1             ELSE;
     1002     1445    1           IF DEVINFO.STATUS.SUB_STAT(INDX)='40'O THEN GOTO OCCU6; /* Length error */
     1003     1446    1             ELSE;
     1004     1447    1           IF DEVINFO.STATUS.SUB_STAT(INDX)='10'O THEN GOTO OCCUB;
              1447                    /* Operator distracted */
     1005     1448        /* Call DOIO */
     1006     1449    1   WRIT_ALERT:;
     1007     1450    1           OCCU_ZONE.IDCW$=ADDR(TYPEBI);
     1008     1451    1           OCCU_ZONE.DCW='0'B;
     1009     1452    1           IF S1000_FLG='0'B THEN CALL DOIO(INDX,DOIO_COM$);
     1010     1453    1             ELSE CALL DOIOX(INDX,DOIO_COM$);
     1011     1454    1           IF DEVINFO.STATUS.TBIT(INDX)='0'B&DEVINFO.STATUS.MAJ_STAT(INDX)='0011'B THEN
              1454                    GOTO OCCUA; /* Data alert */
     1012     1455    1             ELSE GOTO RETRY;
     1013     1456    1   OCCUB:  ;
     1014     1457    1           IF CODE=%FCNRCR THEN ALTRETURN; /* Time out                           */
     1015     1458    1             ELSE GOTO RETRY;
     1016     1459    1   OCCUA:  ;
     1017     1460    1           CALL BUILD_MESSAGE(OCCUM);
     1018     1461    1           CALL MINIQ_PL6(INDX,ADDR(MESSAGE),MESSAGE_CNT,%FCNWCA);
PL6.E3A0      #005=OCCU File=ISI$IOPROC.:E05TSI                                  TUE 07/29/97 22:52 Page:187
     1019     1462    1           GOTO RETRY;
     1020     1463    1   RETRY0: ;
     1021     1464    1           CALL MINIQ_PL6(INDX,ADDR(CRNOLF),4,%FCNWCA);
     1022     1465    1   RETRY:  ;
     1023     1466    1           RETRY_FLG='1'B;
     1024     1467    1           ALTRETURN;
     1025     1468    1   OCCUW:  ;
     1026     1469    1           IF (DEVINFO.BSTAT.W1.H1(INDX)&'777707'O)='400000'O THEN RETURN;
     1027     1470    1             ELSE GOTO RETRY;
     1028     1471    1   END OCCU;
     1029     1472        %EOD;

PL6.E3A0      #005=OCCU File=ISI$IOPROC.:E05TSI                                  TUE 07/29/97 22:52 Page:188
--  Include file information  --

   IS$MACROS.:E05TOU  is referenced.
      No diagnostics issued in procedure OCCU.

   Procedure OCCU requires 202 words for executable code.
   Procedure OCCU requires 12 words of local(AUTO) storage.

PL6.E3A0      #005=OCCU File=ISI$IOPROC.:E05TSI                                  TUE 07/29/97 22:52 Page:189

 Object Unit name= OCCU                                       File name= ISI$IOPROC.:E05TOU
 UTS= JUL 29 '97 22:52:39.64 TUE                              Compiler= PL-6/E31         Sev=      00
 SharedLib= :SHARED_SYSTEM                                    Alt SharedLib=


    ****  Control sections  ****

 Sect   Type Bound  Init  Size OctSiz  Section name(segment info)
    0   Data  even  none     5      5  OCCU
    1   Proc  even  none   202    312  OCCU
    2  RoData even  none    10     12  OCCU

    ****  Entry defs  ****

                              Check   Calling
                             calling  sequence
  Sect OctLoc Primary Altret sequence   type   Parms  Name
     1      0   yes    yes     yes      Std        2  OCCU

  ****  Data defs  ****

 Sect OctLoc  Name                           Sect OctLoc  Name
    0      0  OCCU_ZONE                          0      3  RES_BUF_PTR

  ****  Entry refs  ****

         Check        Calling
        calling       sequence
Altret sequence SRef   type   Args  Name
         yes           Std       4 DOIO
         yes           Std       1 BUILD_MESSAGE
         yes           Std       4 DOIOX
 yes     yes           Std       5 MINIQ_PL6
                       nStd      0 X66_AUTO_2
                       Std       0 B_CONSPOOL_D
                       nStd      0 X66_ARET
                       nStd      0 X66_AALT
PL6.E3A0      #005=OCCU File=ISI$IOPROC.:E05TSI                                  TUE 07/29/97 22:52 Page:190

  ****  Data refs  ****

  Flags:  r = read only, s = secondary
Flgs Name                             Flgs Name                             Flgs Name
     DEVINFO                               RETRY_FLG                             TYPEBI
     OCCUM                                 MESSAGE                               MESSAGE_CNT
     S1000_FLG                             B_VECTNIL

  ****  Segment refs  ****

  Flags:  r = read only, s = secondary
Flgs Name                             Flgs Name                             Flgs Name
     ISSID
PL6.E3A0      #005=OCCU File=ISI$IOPROC.:E05TSI                                  TUE 07/29/97 22:52 Page:191


      949        1        /*T***********************************************************/
      950        2        /*T*                                                         */
      951        3        /*T* Copyright (c) Bull HN Information Systems Inc., 1997    */
      952        4        /*T*                                                         */
      953        5        /*T***********************************************************/
      954        6        OCCU:   PROC(INDX,CODE) ALTRET;

      6  1 000000   000000 700200 xent  OCCU         TSX0  ! X66_AUTO_2
         1 000001   000014 000002                    ZERO    12,2

      955        7        %INCLUDE IS$MACROS;
      956     1282    1   DCL INDX UBIN WORD;
      957     1283    1   DCL CODE UBIN WORD;
      958     1284        /**/
      959     1285    1   DCL BUILD_MESSAGE ENTRY(1);
      960     1286    1   DCL MINIQ_PL6 ENTRY(5) ALTRET;
      961     1287    1   DCL DOIO ENTRY(4);
      962     1288    1   DCL DOIOX ENTRY(4);
      963     1289        /**/
      964     1290        %DEVINFO(STCLASS="SYMREF");
      965     1359        %DOIO_COMZONE(NAME=OCCU_ZONE);
      966     1392    1   DCL DOIO_COM$ PTR STATIC INIT(ADDR(OCCU_ZONE));
      967     1393    1   DCL BUF CHAR(1024) BASED(RES_BUF$);
      968     1394        %PTR_STRUCT(NAME=RES_BUF_PTR);
      969     1412    1   DCL RES_BUF$ REDEF RES_BUF_PTR PTR;
      970     1413    1   DCL RETRY_FLG BIT(1) SYMREF;
      971     1414    1   DCL TYPEBI BIT(36) SYMREF;
      972     1415    1   DCL OCCUM CHAR(1) SYMREF;
      973     1416    1   DCL MESSAGE CHAR(80) SYMREF;
      974     1417    1   DCL MESSAGE_CNT UBIN SYMREF;
      975     1418    1   DCL S1000_FLG BIT(1) SYMREF;
      976     1419    1   DCL CRNOLF BIT(36) ALIGNED STATIC INIT('015040040040'O);
      977     1420        /**/
      978     1421    1           IF CODE=%FCNWCA OR CODE=%FCNWCM THEN GOTO OCCUW; /* Write codes       */

   1421  1 000002   200004 470500                    LDP0    @CODE,,AUTO
PL6.E3A0      #005=OCCU File=ISI$IOPROC.:E05TSI                                  TUE 07/29/97 22:52 Page:192
         1 000003   000000 235100                    LDA     0,,PR0
         1 000004   000001 115007                    CMPA    1,DL
         1 000005   000301 600000 1                  TZE     OCCUW
         1 000006   000002 115007                    CMPA    2,DL
         1 000007   000301 600000 1                  TZE     OCCUW

      979     1422    1             ELSE;
      980     1423    1           IF (DEVINFO.BSTAT.W1.H1(INDX)&'777707'O)~='400000'O OR

   1423  1 000010   200003 471500                    LDP1    @INDX,,AUTO
         1 000011   100000 236100                    LDQ     0,,PR1
         1 000012   000006 402007                    MPY     6,DL
         1 000013   000001 736000                    QLS     1
         1 000014   000004 220006 xsym               LDX0    DEVINFO+4,QL
         1 000015   777707 360003                    ANX0    -57,DU
         1 000016   400000 100003                    CMPX0   -131072,DU
         1 000017   000126 601000 1                  TNZ     OCCU7
         1 000020   100000 236100                    LDQ     0,,PR1
         1 000021   000006 402007                    MPY     6,DL
         1 000022   000001 736000                    QLS     1
         1 000023   000004 236006 xsym               LDQ     DEVINFO+4,QL
         1 000024   700000 316007                    CANQ    -32768,DL
         1 000025   000126 601000 1                  TNZ     OCCU7
         1 000026   100000 236100                    LDQ     0,,PR1
         1 000027   000006 402007                    MPY     6,DL
         1 000030   000001 736000                    QLS     1
         1 000031   000004 236006 xsym               LDQ     DEVINFO+4,QL
         1 000032   070000 316007                    CANQ    28672,DL
         1 000033   000126 601000 1                  TNZ     OCCU7

   1423  1 000034                       OCCU6        null
      981     1424    1             DEVINFO.STATUS.IOM_CHAN_STAT(INDX)~='0'B OR
      982     1425    1             DEVINFO.STATUS.IOM_CENT_STAT(INDX)~='0'B
      983     1426    1             THEN GOTO OCCU7;              /* Not ready status                   */
      984     1427    1             ELSE;                         /* Ready                              */
      985     1428        /* Fill buffer with blanks */
      986     1429    1   OCCU6:  ;
PL6.E3A0      #005=OCCU File=ISI$IOPROC.:E05TSI                                  TUE 07/29/97 22:52 Page:193
      987     1430    1           RES_BUF_PTR.WOFFS=DEVINFO.STATUS.NEXT_ADDR(INDX)-1;

   1430  1 000034   200003 470500                    LDP0    @INDX,,AUTO
         1 000035   000000 236100                    LDQ     0,,PR0
         1 000036   000006 402007                    MPY     6,DL
         1 000037   000001 736000                    QLS     1
         1 000040   000005 220006 xsym               LDX0    DEVINFO+5,QL
         1 000041   777777 621010                    EAX1    -1,X0
         1 000042   000003 741000 0                  STX1    RES_BUF_PTR

      988     1431    1           RES_BUF_PTR.BYTEPOS=DEVINFO.STATUS.CHAR_POS(INDX);

   1431  1 000043   000000 236100                    LDQ     0,,PR0
         1 000044   000006 402007                    MPY     6,DL
         1 000045   000001 736000                    QLS     1
         1 000046   000005 236006 xsym               LDQ     DEVINFO+5,QL
         1 000047   000001 736000                    QLS     1
         1 000050   000003 676000 0                  ERQ     RES_BUF_PTR
         1 000051   600000 376007                    ANQ     -65536,DL
         1 000052   000003 656000 0                  ERSQ    RES_BUF_PTR

      989     1432    2           IF DEVINFO.STATUS.CHAR_POS(INDX)=0 THEN DO;

   1432  1 000053   000000 236100                    LDQ     0,,PR0
         1 000054   000006 402007                    MPY     6,DL
         1 000055   000001 736000                    QLS     1
         1 000056   000005 236006 xsym               LDQ     DEVINFO+5,QL
         1 000057   700000 316007                    CANQ    -32768,DL
         1 000060   000077 601000 1                  TNZ     s:1437

      990     1433    2                 RES_BUF_PTR.WOFFS=RES_BUF_PTR.WOFFS+1;

   1433  1 000061   000001 620011                    EAX0    1,X1
         1 000062   000003 740000 0                  STX0    RES_BUF_PTR

      991     1434    2                 SUBSTR(BUF,0,DEVINFO.STATUS.TALLY_RESID(INDX)*4)=' ';

PL6.E3A0      #005=OCCU File=ISI$IOPROC.:E05TSI                                  TUE 07/29/97 22:52 Page:194
   1434  1 000063   000000 236100                    LDQ     0,,PR0
         1 000064   000006 402007                    MPY     6,DL
         1 000065   000001 736000                    QLS     1
         1 000066   000005 236006 xsym               LDQ     DEVINFO+5,QL
         1 000067   000002 736000                    QLS     2
         1 000070   037774 376007                    ANQ     16380,DL
         1 000071   000003 471400 0                  LDP1    RES_BUF_PTR
         1 000072   000000 621006                    EAX1    0,QL
         1 000073   040140 100400                    MLR     fill='040'O
         1 000074   000035 000001 xsym               ADSC9   B_VECTNIL+29             cn=0,n=1
         1 000075   100000 000011                    ADSC9   0,,PR1                   cn=0,n=*X1

      992     1435    2               END;                        /* THEN                               */

   1435  1 000076   000125 710000 1                  TRA     s:1438

      993     1436    1             ELSE
      994     1437    1            SUBSTR(BUF,0,(DEVINFO.STATUS.TALLY_RESID(INDX)*4+4-DEVINFO.STATUS.CHAR_POS
              1437                      (INDX)))=' ';

   1437  1 000077   000000 236100                    LDQ     0,,PR0
         1 000100   000006 402007                    MPY     6,DL
         1 000101   000000 620006                    EAX0    0,QL
         1 000102   000001 736000                    QLS     1
         1 000103   000005 236006 xsym               LDQ     DEVINFO+5,QL
         1 000104   000017 772000                    QRL     15
         1 000105   000007 376007                    ANQ     7,DL
         1 000106   200006 756100                    STQ     @CODE+2,,AUTO
         1 000107   000000 635010                    EAA     0,X0
         1 000110   000021 771000                    ARL     17
         1 000111   000005 236005 xsym               LDQ     DEVINFO+5,AL
         1 000112   000002 736000                    QLS     2
         1 000113   037774 376007                    ANQ     16380,DL
         1 000114   000027 676000 xsym               ERQ     B_VECTNIL+23
         1 000115   000001 036007                    ADLQ    1,DL
         1 000116   200006 036100                    ADLQ    @CODE+2,,AUTO
         1 000117   777773 620006                    EAX0    -5,QL
PL6.E3A0      #005=OCCU File=ISI$IOPROC.:E05TSI                                  TUE 07/29/97 22:52 Page:195
         1 000120   777777 660003                    ERX0    -1,DU
         1 000121   000003 471400 0                  LDP1    RES_BUF_PTR
         1 000122   040140 100400                    MLR     fill='040'O
         1 000123   000035 000001 xsym               ADSC9   B_VECTNIL+29             cn=0,n=1
         1 000124   100000 000010                    ADSC9   0,,PR1                   cn=0,n=*X0

      995     1438    1           RETURN;

   1438  1 000125   000000 702200 xent               TSX2  ! X66_ARET

   1437  1 000126                       OCCU7        null
      996     1439        /**/
      997     1440    1   OCCU7:  ;
      998     1441    1           IF DEVINFO.STATUS.MAJ_STAT(INDX)~='0011'B THEN GOTO WRIT_ALERT;

   1441  1 000126   100000 236100                    LDQ     0,,PR1
         1 000127   000006 402007                    MPY     6,DL
         1 000130   000001 736000                    QLS     1
         1 000131   000004 236006 xsym               LDQ     DEVINFO+4,QL
         1 000132   170000 376003                    ANQ     61440,DU
         1 000133   030000 116003                    CMPQ    12288,DU
         1 000134   000162 601000 1                  TNZ     WRIT_ALERT

      999     1442    1             ELSE;
     1000     1443    1           IF DEVINFO.STATUS.SUB_STAT(INDX)='04'O THEN GOTO RETRY0;
              1443                    /* Operator input alert */

   1443  1 000135   100000 236100                    LDQ     0,,PR1
         1 000136   000006 402007                    MPY     6,DL
         1 000137   000001 736000                    QLS     1
         1 000140   000004 236006 xsym               LDQ     DEVINFO+4,QL
         1 000141   007700 376003                    ANQ     4032,DU
         1 000142   000400 116003                    CMPQ    256,DU
         1 000143   000262 600000 1                  TZE     RETRY0

     1001     1444    1             ELSE;
     1002     1445    1           IF DEVINFO.STATUS.SUB_STAT(INDX)='40'O THEN GOTO OCCU6; /* Length error */
PL6.E3A0      #005=OCCU File=ISI$IOPROC.:E05TSI                                  TUE 07/29/97 22:52 Page:196

   1445  1 000144   100000 236100                    LDQ     0,,PR1
         1 000145   000006 402007                    MPY     6,DL
         1 000146   000001 736000                    QLS     1
         1 000147   000004 236006 xsym               LDQ     DEVINFO+4,QL
         1 000150   007700 376003                    ANQ     4032,DU
         1 000151   004000 116003                    CMPQ    2048,DU
         1 000152   000034 600000 1                  TZE     OCCU6

     1003     1446    1             ELSE;
     1004     1447    1           IF DEVINFO.STATUS.SUB_STAT(INDX)='10'O THEN GOTO OCCUB;
              1447                    /* Operator distracted */

   1447  1 000153   100000 236100                    LDQ     0,,PR1
         1 000154   000006 402007                    MPY     6,DL
         1 000155   000001 736000                    QLS     1
         1 000156   000004 236006 xsym               LDQ     DEVINFO+4,QL
         1 000157   007700 376003                    ANQ     4032,DU
         1 000160   001000 116003                    CMPQ    512,DU
         1 000161   000235 600000 1                  TZE     OCCUB

   1447  1 000162                       WRIT_ALERT   null
     1005     1448        /* Call DOIO */
     1006     1449    1   WRIT_ALERT:;
     1007     1450    1           OCCU_ZONE.IDCW$=ADDR(TYPEBI);

   1450  1 000162   000000 236000 2                  LDQ     0
         1 000163   000000 756000 0                  STQ     OCCU_ZONE

     1008     1451    1           OCCU_ZONE.DCW='0'B;

   1451  1 000164   000001 450000 0                  STZ     OCCU_ZONE+1

     1009     1452    1           IF S1000_FLG='0'B THEN CALL DOIO(INDX,DOIO_COM$);

   1452  1 000165   000000 234000 xsym               SZN     S1000_FLG
         1 000166   000177 604000 1                  TMI     s:1453
PL6.E3A0      #005=OCCU File=ISI$IOPROC.:E05TSI                                  TUE 07/29/97 22:52 Page:197

   1452  1 000167   000001 236000 2                  LDQ     1
         1 000170   200003 235100                    LDA     @INDX,,AUTO
         1 000171   200006 757100                    STAQ    @CODE+2,,AUTO
         1 000172   200006 630500                    EPPR0   @CODE+2,,AUTO
         1 000173   000020 631400 xsym               EPPR1   B_VECTNIL+16
         1 000174   000000 701000 xent               TSX1    DOIO
         1 000175   000000 011000                    NOP     0
         1 000176   000206 710000 1                  TRA     s:1454

     1010     1453    1             ELSE CALL DOIOX(INDX,DOIO_COM$);

   1453  1 000177   000001 236000 2                  LDQ     1
         1 000200   200003 235100                    LDA     @INDX,,AUTO
         1 000201   200006 757100                    STAQ    @CODE+2,,AUTO
         1 000202   200006 630500                    EPPR0   @CODE+2,,AUTO
         1 000203   000020 631400 xsym               EPPR1   B_VECTNIL+16
         1 000204   000000 701000 xent               TSX1    DOIOX
         1 000205   000000 011000                    NOP     0

     1011     1454    1          IF DEVINFO.STATUS.TBIT(INDX)='0'B&DEVINFO.STATUS.MAJ_STAT(INDX)='0011'B THEN
              1454                    GOTO OCCUA; /* Data alert */

   1454  1 000206   200003 470500                    LDP0    @INDX,,AUTO
         1 000207   000000 236100                    LDQ     0,,PR0
         1 000210   000006 402007                    MPY     6,DL
         1 000211   400000 220003                    LDX0    -131072,DU
         1 000212   000001 736000                    QLS     1
         1 000213   000004 234006 xsym               SZN     DEVINFO+4,QL
         1 000214   000216 605000 1                  TPL     s:1454+8
         1 000215   000000 220003                    LDX0    0,DU
         1 000216   000000 236100                    LDQ     0,,PR0
         1 000217   000006 402007                    MPY     6,DL
         1 000220   400000 221003                    LDX1    -131072,DU
         1 000221   000001 736000                    QLS     1
         1 000222   000004 236006 xsym               LDQ     DEVINFO+4,QL
         1 000223   170000 376003                    ANQ     61440,DU
PL6.E3A0      #005=OCCU File=ISI$IOPROC.:E05TSI                                  TUE 07/29/97 22:52 Page:198
         1 000224   030000 116003                    CMPQ    12288,DU
         1 000225   000227 600000 1                  TZE     s:1454+17
         1 000226   000000 221003                    LDX1    0,DU
         1 000227   000000 636011                    EAQ     0,X1
         1 000230   200006 756100                    STQ     @CODE+2,,AUTO
         1 000231   000000 636010                    EAQ     0,X0
         1 000232   200006 376100                    ANQ     @CODE+2,,AUTO
         1 000233   000241 601000 1                  TNZ     OCCUA

     1012     1455    1             ELSE GOTO RETRY;

   1455  1 000234   000276 710000 1                  TRA     RETRY

   1454  1 000235                       OCCUB        null
     1013     1456    1   OCCUB:  ;
     1014     1457    1           IF CODE=%FCNRCR THEN ALTRETURN; /* Time out                           */

   1457  1 000235   000000 235100                    LDA     0,,PR0
         1 000236   000003 115007                    CMPA    3,DL
         1 000237   000276 601000 1                  TNZ     RETRY

   1457  1 000240   000000 702200 xent               TSX2  ! X66_AALT

   1457  1 000241                       OCCUA        null
     1015     1458    1             ELSE GOTO RETRY;
     1016     1459    1   OCCUA:  ;
     1017     1460    1           CALL BUILD_MESSAGE(OCCUM);

   1460  1 000241   000002 630400 2                  EPPR0   2
         1 000242   000017 631400 xsym               EPPR1   B_VECTNIL+15
         1 000243   000000 701000 xent               TSX1    BUILD_MESSAGE
         1 000244   000000 011000                    NOP     0

     1018     1461    1           CALL MINIQ_PL6(INDX,ADDR(MESSAGE),MESSAGE_CNT,%FCNWCA);

   1461  1 000245   000003 236000 2                  LDQ     3
         1 000246   200006 756100                    STQ     @CODE+2,,AUTO
PL6.E3A0      #005=OCCU File=ISI$IOPROC.:E05TSI                                  TUE 07/29/97 22:52 Page:199
         1 000247   000004 237000 2                  LDAQ    4
         1 000250   200012 757100                    STAQ    @CODE+6,,AUTO
         1 000251   200006 630500                    EPPR0   @CODE+2,,AUTO
         1 000252   200011 450500                    STP0    @CODE+5,,AUTO
         1 000253   200003 236100                    LDQ     @INDX,,AUTO
         1 000254   200010 756100                    STQ     @CODE+4,,AUTO
         1 000255   200010 630500                    EPPR0   @CODE+4,,AUTO
         1 000256   000022 631400 xsym               EPPR1   B_VECTNIL+18
         1 000257   000000 701000 xent               TSX1    MINIQ_PL6
         1 000260   000000 011000                    NOP     0

     1019     1462    1           GOTO RETRY;

   1462  1 000261   000276 710000 1                  TRA     RETRY

   1457  1 000262                       RETRY0       null
     1020     1463    1   RETRY0: ;
     1021     1464    1           CALL MINIQ_PL6(INDX,ADDR(CRNOLF),4,%FCNWCA);

   1464  1 000262   000006 236000 2                  LDQ     6
         1 000263   200006 756100                    STQ     @CODE+2,,AUTO
         1 000264   000010 237000 2                  LDAQ    8
         1 000265   200012 757100                    STAQ    @CODE+6,,AUTO
         1 000266   200006 633500                    EPPR3   @CODE+2,,AUTO
         1 000267   200011 453500                    STP3    @CODE+5,,AUTO
         1 000270   200003 236100                    LDQ     @INDX,,AUTO
         1 000271   200010 756100                    STQ     @CODE+4,,AUTO
         1 000272   200010 630500                    EPPR0   @CODE+4,,AUTO
         1 000273   000022 631400 xsym               EPPR1   B_VECTNIL+18
         1 000274   000000 701000 xent               TSX1    MINIQ_PL6
         1 000275   000000 011000                    NOP     0

   1464  1 000276                       RETRY        null
     1022     1465    1   RETRY:  ;
     1023     1466    1           RETRY_FLG='1'B;

   1466  1 000276   400000 236003                    LDQ     -131072,DU
PL6.E3A0      #005=OCCU File=ISI$IOPROC.:E05TSI                                  TUE 07/29/97 22:52 Page:200
         1 000277   000000 756000 xsym               STQ     RETRY_FLG

     1024     1467    1           ALTRETURN;

   1467  1 000300   000000 702200 xent               TSX2  ! X66_AALT

   1466  1 000301                       OCCUW        null
     1025     1468    1   OCCUW:  ;
     1026     1469    1           IF (DEVINFO.BSTAT.W1.H1(INDX)&'777707'O)='400000'O THEN RETURN;

   1469  1 000301   200003 471500                    LDP1    @INDX,,AUTO
         1 000302   100000 236100                    LDQ     0,,PR1
         1 000303   000006 402007                    MPY     6,DL
         1 000304   000001 736000                    QLS     1
         1 000305   000004 220006 xsym               LDX0    DEVINFO+4,QL
         1 000306   777707 360003                    ANX0    -57,DU
         1 000307   400000 100003                    CMPX0   -131072,DU
         1 000310   000276 601000 1                  TNZ     RETRY

   1469  1 000311   000000 702200 xent               TSX2  ! X66_ARET
     1027     1470    1             ELSE GOTO RETRY;
     1028     1471    1   END OCCU;
     1029     1472        %EOD;

PL6.E3A0      #005=OCCU File=ISI$IOPROC.:E05TSI                                  TUE 07/29/97 22:52 Page:201
--  Include file information  --

   IS$MACROS.:E05TOU  is referenced.
      No diagnostics issued in procedure OCCU.
PL6.E3A0      #005=OCCU File=ISI$IOPROC.:E05TSI                                  TUE 07/29/97 22:52 Page:202

 **** Variables and constants ****

  ****  Section 000  Data  OCCU

  ****  Scalars and arrays  ****
OctLoc.c.b A Datatyp(siz) R M Lvl/name                 OctLoc.c.b A Datatyp(siz) R M Lvl/name

     4-0-0/w BIT         r     1 CRNOLF                     2-0-0/w PTR         r     1 DOIO_COM$
     0-0-0/w STRC(72)    r     1 OCCU_ZONE                  3-0-0/w PTR         r     1 RES_BUF$
     3-0-0/w STRC        r     1 RES_BUF_PTR

  ****  Auto variables  ****

  ****  Scalars and arrays  ****
OctLoc.c.b A Datatyp(siz) R M Lvl/name                 OctLoc.c.b A Datatyp(siz) R M Lvl/name

     4-0-0/w PTR         r     1 @CODE                      3-0-0/w PTR         r     1 @INDX
    *0-0-0/w UBIN        r     1 CODE                      *0-0-0/w UBIN        r     1 INDX

  ****  SYMREF variables  ****

  ****  Scalars and arrays  ****
OctLoc.c.b A Datatyp(siz) R M Lvl/name                 OctLoc.c.b A Datatyp(siz) R M Lvl/name

     0-0-0/d STRC(396)   r     1 DEVINFO(0:21)              0-0-0/c CHAR(80)    r     1 MESSAGE
     0-0-0/w UBIN        r     1 MESSAGE_CNT                0-0-0/c CHAR        r     1 OCCUM
     0-0-0/b BIT         r     1 RETRY_FLG                  0-0-0/b BIT         r     1 S1000_FLG
     0-0-0/b BIT         r     1 TYPEBI

  ****  BASED and DCB variables  ****

  ****  Scalars and arrays  ****
OctLoc.c.b A Datatyp(siz) R M Lvl/name                 OctLoc.c.b A Datatyp(siz) R M Lvl/name

     0-0-0/c CHAR(1024)  r     1 BUF

PL6.E3A0      #005=OCCU File=ISI$IOPROC.:E05TSI                                  TUE 07/29/97 22:52 Page:203

   Procedure OCCU requires 202 words for executable code.
   Procedure OCCU requires 12 words of local(AUTO) storage.
PL6.E3A0      #005=OCCU File=ISI$IOPROC.:E05TSI                                  TUE 07/29/97 22:52 Page:204
          *** CROSS REFERENCE LISTING ***
**     DENOTES     IDENTIFIER DEFINITION
<<                 IDENTIFIER'S VALUE SET
>>                 IDENTIFIER'S VALUE USED
<>                 IDENTIFIER SET AND/OR USED
--                 IDENTIFIER REFERENCED
PL6.E3A0      #005=OCCU File=ISI$IOPROC.:E05TSI                                  TUE 07/29/97 22:52 Page:205
          MINI XREF LISTING

BUF
      1393**DCL      1434<<ASSIGN   1437<<ASSIGN
BUILD_MESSAGE
      1285**DCL-ENT  1460--CALL
CODE
      1283**DCL         6--PROC     1421>>IF       1421>>IF       1457>>IF
CRNOLF
      1419**DCL      1464--CALL
DEVINFO.BSTAT.W1.H1
      1344**DCL      1423>>IF       1469>>IF
DEVINFO.PCWS
      1306**DCL      1317--REDEF
DEVINFO.RPM_PTRS.EF_DCWS$
      1319**DCL      1320--REDEF
DEVINFO.STATUS
      1323**DCL      1342--REDEF
DEVINFO.STATUS.CHAR_POS
      1338**DCL      1431>>ASSIGN   1432>>IF       1437>>ASSIGN
DEVINFO.STATUS.IOM_CENT_STAT
      1334**DCL      1423>>IF
DEVINFO.STATUS.IOM_CHAN_STAT
      1333**DCL      1423>>IF
DEVINFO.STATUS.MAJ_STAT
      1326**DCL      1441>>IF       1454>>IF
DEVINFO.STATUS.NEXT_ADDR
      1337**DCL      1430>>ASSIGN
DEVINFO.STATUS.SUB_STAT
      1327**DCL      1443>>IF       1445>>IF       1447>>IF
DEVINFO.STATUS.TALLY_RESID
      1341**DCL      1434>>ASSIGN   1437>>ASSIGN
DEVINFO.STATUS.TBIT
      1324**DCL      1454>>IF
PL6.E3A0      #005=OCCU File=ISI$IOPROC.:E05TSI                                  TUE 07/29/97 22:52 Page:206
DOIO
      1287**DCL-ENT  1452--CALL
DOIOX
      1288**DCL-ENT  1453--CALL
DOIO_COM$
      1392**DCL      1452<>CALL     1453<>CALL
INDX
      1282**DCL         6--PROC     1423>>IF       1423>>IF       1423>>IF       1430>>ASSIGN   1431>>ASSIGN
      1432>>IF       1434>>ASSIGN   1437>>ASSIGN   1437>>ASSIGN   1441>>IF       1443>>IF       1445>>IF
      1447>>IF       1452<>CALL     1453<>CALL     1454>>IF       1454>>IF       1461<>CALL     1464<>CALL
      1469>>IF
MESSAGE
      1416**DCL      1461--CALL
MESSAGE_CNT
      1417**DCL      1461<>CALL
MINIQ_PL6
      1286**DCL-ENT  1461--CALL     1464--CALL
OCCU6
      1423**LABEL    1445--GOTO
OCCU7
      1437**LABEL    1426--GOTO
OCCUA
      1457**LABEL    1454--GOTO
OCCUB
      1454**LABEL    1447--GOTO
OCCUM
      1415**DCL      1460<>CALL
OCCUW
      1466**LABEL    1421--GOTO
OCCU_ZONE
      1370**DCL      1392--DCLINIT
OCCU_ZONE.DCW
      1377**DCL      1381--REDEF    1384--REDEF    1385--REDEF    1451<<ASSIGN
OCCU_ZONE.IDCW$
      1376**DCL      1450<<ASSIGN
OCCU_ZONE.W1
PL6.E3A0      #005=OCCU File=ISI$IOPROC.:E05TSI                                  TUE 07/29/97 22:52 Page:207
      1371**DCL      1376--REDEF
RES_BUF$
      1412**DCL      1393--IMP-PTR  1434>>ASSIGN   1437>>ASSIGN
RES_BUF_PTR
      1405**DCL      1412--REDEF
RES_BUF_PTR.BYTEPOS
      1407**DCL      1431<<ASSIGN
RES_BUF_PTR.WOFFS
      1406**DCL      1430<<ASSIGN   1433<<ASSIGN   1433>>ASSIGN
RETRY
      1464**LABEL    1455--GOTO     1458--GOTO     1462--GOTO     1470--GOTO
RETRY0
      1457**LABEL    1443--GOTO
RETRY_FLG
      1413**DCL      1466<<ASSIGN
S1000_FLG
      1418**DCL      1452>>IF
TYPEBI
      1414**DCL      1450--ASSIGN
WRIT_ALERT
      1447**LABEL    1441--GOTO

PL6.E3A0      #006=LPIO File=ISI$IOPROC.:E05TSI                                  TUE 07/29/97 22:52 Page:208
     1030        1        /*T***********************************************************/
     1031        2        /*T*                                                         */
     1032        3        /*T* Copyright (c) Bull HN Information Systems Inc., 1997    */
     1033        4        /*T*                                                         */
     1034        5        /*T***********************************************************/
     1035        6        LPIO:   PROC(INDX,CODE) ALTRET;
     1036        7        %INCLUDE IS$MACROS;
     1037     1282    1   DCL INDX UBIN WORD;
     1038     1283    1   DCL CODE UBIN WORD;
     1039     1284        %DEVINFO(STCLASS="SYMREF");
     1040     1353    1   DCL LPXTRA BIT(36) STATIC ALIGNED INIT('0301007'O); /* Read Status Command    */
     1041     1354    1   DCL LPSTAT$ PTR STATIC INIT(ADDR(LPSTAT));
     1042     1355        %DCW_STRUCT(NAME=GET_LPSTAT,STCLASS="REDEF LPSTAT$"); /* Get status IOTD      */
     1043     1373    1   DCL LPXTRA$ PTR STATIC INIT(ADDR(LPXTRA));
     1044     1374        %DCW_STRUCT(NAME=TDCW_LPEXT,STCLASS="REDEF LPXTRA$"); /* TDCW to LPXTRA       */
     1045     1392    1   DCL LPSTAT(0:3) BIT(36) STATIC SYMDEF ALIGNED; /* Status answer buffer        */
     1046     1393    1   DCL 1 LPBUF STATIC ALIGNED,   /* Control character + actual printer buffer    */
     1047     1394    1         2 CONTRB UBIN(9) UNAL,
     1048     1395    1         2 TXT CHAR(160);
     1049     1396        %PTR_STRUCT(NAME=USER_BUF_PTR);         /* Pointer to user's buffer           */
     1050     1414    1   DCL USER_BUF$ REDEF USER_BUF_PTR PTR;
     1051     1415    1   DCL USER_BUF CHAR(160) BASED(USER_BUF$);
     1052     1416        %DCW_STRUCT(NAME=COPY_IODCW);
     1053     1434        /**/
     1054     1435    1   DCL PSI_FLG BIT(1) SYMREF;
     1055     1436    1   DCL IODCW(0:2) BIT(36) SYMREF;
     1056     1437    1   DCL DCTLINES(0:%(FRSTCR-FRSTLP-1)) SBIN(18) SYMREF;
     1057     1438    1   DCL CURR_LINES(0:%(FRSTCR-FRSTLP-1)) SBIN(18) SYMREF;
     1058     1439        /**/
     1059     1440    1           IF DEVINFO.BITS(INDX)~='0'B THEN ALTRETURN; /* LP down                */
     1060     1441    1             ELSE;
     1061     1442    1           GET_LPSTAT.TALLY=4;             /* Initialize Get Status IOTD         */
     1062     1443    1           TDCW_LPEXT.TYPE='10'B;          /* Make a TDCW to Get Status IDCW     */
     1063     1444    1           TDCW_LPEXT.TALLY=0;
     1064     1445    1           IODCW(1)=TDCW_LPEXT;            /* Append to DCW list                 */
     1065     1446    2           DO CASE(CODE);
     1066     1447    2             CASE(4);
PL6.E3A0      #006=LPIO File=ISI$IOPROC.:E05TSI                                  TUE 07/29/97 22:52 Page:209
     1067     1448    2   LPIOX:
     1068     1449    2               CURR_LINES(INDX-%FRSTLP)=-DCTLINES(INDX-%FRSTLP);
              1449                        /* Reset lines count */
     1069     1450    2   LPIOX1:
     1070     1451    2               PSI_FLG='1'B;
     1071     1452    2               RETURN;
     1072     1453    2             CASE(3);
     1073     1454    2               LPBUF.CONTRB=%CB_TOF;       /* Top of Form                        */
     1074     1455    2   RLINE:
     1075     1456    2               CURR_LINES(INDX-%FRSTLP)=-DCTLINES(INDX-%FRSTLP);
              1456                        /* Reset lines count */
     1076     1457    2   LPIO1:
     1077     1458    2               COPY_IODCW=IODCW(0);        /* User's IODCW                       */
     1078     1459    2               IF COPY_IODCW.TALLY>40 THEN COPY_IODCW.TALLY=40; /* Truncate it   */
     1079     1460        /* Move user's buffer */
     1080     1461    2               USER_BUF_PTR.WOFFS=COPY_IODCW.AD;
     1081     1462    2               USER_BUF_PTR.BYTEPOS=COPY_IODCW.CP;
     1082     1463    2               LPBUF.TXT=SUBSTR(USER_BUF,0,COPY_IODCW.TALLY*4);
     1083     1464        /* Make a DCW with LPBUF */
     1084     1465    2               USER_BUF$=ADDR(LPBUF);
     1085     1466    2               COPY_IODCW.AD=USER_BUF_PTR.WOFFS;
     1086     1467    2               COPY_IODCW.TALLY=COPY_IODCW.TALLY+1;
     1087     1468    2               IODCW(0)=COPY_IODCW;
     1088     1469    2               GOTO LPIOX1;
     1089     1470    2             CASE(1,2);
     1090     1471    3               IF CURR_LINES(INDX-%FRSTLP)+CODE<=0 THEN DO;
              1471                        /* Lines count not too big */
     1091     1472    3                     CURR_LINES(INDX-%FRSTLP)=CURR_LINES(INDX-%FRSTLP)+CODE;
     1092     1473    3                     LPBUF.CONTRB=%CB_SAP+CODE;
     1093     1474    3                     GOTO LPIO1;
     1094     1475    3                   END;                    /* THEN                               */
     1095     1476    3                 ELSE DO;                  /* Line count too big                 */
     1096     1477    3                     LPBUF.CONTRB=%CB_TOF+CODE;
     1097     1478    3                     GOTO RLINE;
     1098     1479    3                   END;                    /* ELSE                               */
     1099     1480    2             CASE(ELSE);
     1100     1481    2               ALTRETURN;
PL6.E3A0      #006=LPIO File=ISI$IOPROC.:E05TSI                                  TUE 07/29/97 22:52 Page:210
     1101     1482    2           END;                            /* DO CASE                            */
     1102     1483    1   END LPIO;
     1103     1484        %EOD;

PL6.E3A0      #006=LPIO File=ISI$IOPROC.:E05TSI                                  TUE 07/29/97 22:52 Page:211
--  Include file information  --

   IS$MACROS.:E05TOU  is referenced.
      No diagnostics issued in procedure LPIO.

   Procedure LPIO requires 97 words for executable code.
   Procedure LPIO requires 6 words of local(AUTO) storage.

PL6.E3A0      #006=LPIO File=ISI$IOPROC.:E05TSI                                  TUE 07/29/97 22:52 Page:212

 Object Unit name= LPIO                                       File name= ISI$IOPROC.:E05TOU
 UTS= JUL 29 '97 22:52:45.12 TUE                              Compiler= PL-6/E31         Sev=      00
 SharedLib= :SHARED_SYSTEM                                    Alt SharedLib=


    ****  Control sections  ****

 Sect   Type Bound  Init  Size OctSiz  Section name(segment info)
    0   Data  even  none    50     62  LPIO
    1   Proc  even  none    97    141  LPIO
    2  RoData even  none     2      2  LPIO

    ****  Entry defs  ****

                              Check   Calling
                             calling  sequence
  Sect OctLoc Primary Altret sequence   type   Parms  Name
     1      0   yes    yes     yes      Std        2  LPIO

  ****  Data defs  ****

 Sect OctLoc  Name                           Sect OctLoc  Name
    0      3  LPSTAT                             0     60  USER_BUF_PTR
    0     61  COPY_IODCW

  ****  Entry refs  ****

         Check        Calling
        calling       sequence
Altret sequence SRef   type   Args  Name
                       nStd      0 X66_AUTO_2
                       nStd      0 X66_AALT
                       nStd      0 X66_ARET
PL6.E3A0      #006=LPIO File=ISI$IOPROC.:E05TSI                                  TUE 07/29/97 22:52 Page:213

  ****  Data refs  ****

  Flags:  r = read only, s = secondary
Flgs Name                             Flgs Name                             Flgs Name
     DEVINFO                               PSI_FLG                               IODCW
     DCTLINES                              CURR_LINES

  ****  Segment refs  ****

  Flags:  r = read only, s = secondary
Flgs Name                             Flgs Name                             Flgs Name
     ISSID
PL6.E3A0      #006=LPIO File=ISI$IOPROC.:E05TSI                                  TUE 07/29/97 22:52 Page:214


     1030        1        /*T***********************************************************/
     1031        2        /*T*                                                         */
     1032        3        /*T* Copyright (c) Bull HN Information Systems Inc., 1997    */
     1033        4        /*T*                                                         */
     1034        5        /*T***********************************************************/
     1035        6        LPIO:   PROC(INDX,CODE) ALTRET;

      6  1 000000   000000 700200 xent  LPIO         TSX0  ! X66_AUTO_2
         1 000001   000006 000002                    ZERO    6,2

     1036        7        %INCLUDE IS$MACROS;
     1037     1282    1   DCL INDX UBIN WORD;
     1038     1283    1   DCL CODE UBIN WORD;
     1039     1284        %DEVINFO(STCLASS="SYMREF");
     1040     1353    1   DCL LPXTRA BIT(36) STATIC ALIGNED INIT('0301007'O); /* Read Status Command    */
     1041     1354    1   DCL LPSTAT$ PTR STATIC INIT(ADDR(LPSTAT));
     1042     1355        %DCW_STRUCT(NAME=GET_LPSTAT,STCLASS="REDEF LPSTAT$"); /* Get status IOTD      */
     1043     1373    1   DCL LPXTRA$ PTR STATIC INIT(ADDR(LPXTRA));
     1044     1374        %DCW_STRUCT(NAME=TDCW_LPEXT,STCLASS="REDEF LPXTRA$"); /* TDCW to LPXTRA       */
     1045     1392    1   DCL LPSTAT(0:3) BIT(36) STATIC SYMDEF ALIGNED; /* Status answer buffer        */
     1046     1393    1   DCL 1 LPBUF STATIC ALIGNED,   /* Control character + actual printer buffer    */
     1047     1394    1         2 CONTRB UBIN(9) UNAL,
     1048     1395    1         2 TXT CHAR(160);
     1049     1396        %PTR_STRUCT(NAME=USER_BUF_PTR);         /* Pointer to user's buffer           */
     1050     1414    1   DCL USER_BUF$ REDEF USER_BUF_PTR PTR;
     1051     1415    1   DCL USER_BUF CHAR(160) BASED(USER_BUF$);
     1052     1416        %DCW_STRUCT(NAME=COPY_IODCW);
     1053     1434        /**/
     1054     1435    1   DCL PSI_FLG BIT(1) SYMREF;
     1055     1436    1   DCL IODCW(0:2) BIT(36) SYMREF;
     1056     1437    1   DCL DCTLINES(0:%(FRSTCR-FRSTLP-1)) SBIN(18) SYMREF;
     1057     1438    1   DCL CURR_LINES(0:%(FRSTCR-FRSTLP-1)) SBIN(18) SYMREF;
     1058     1439        /**/
     1059     1440    1           IF DEVINFO.BITS(INDX)~='0'B THEN ALTRETURN; /* LP down                */

   1440  1 000002   200003 470500                    LDP0    @INDX,,AUTO
PL6.E3A0      #006=LPIO File=ISI$IOPROC.:E05TSI                                  TUE 07/29/97 22:52 Page:215
         1 000003   000000 236100                    LDQ     0,,PR0
         1 000004   000006 402007                    MPY     6,DL
         1 000005   000001 736000                    QLS     1
         1 000006   000001 235006 xsym               LDA     DEVINFO+1,QL
         1 000007   000011 600000 1                  TZE     s:1442

   1440  1 000010   000000 702200 xent               TSX2  ! X66_AALT

     1060     1441    1             ELSE;
     1061     1442    1           GET_LPSTAT.TALLY=4;             /* Initialize Get Status IOTD         */

   1442  1 000011   000004 236007                    LDQ     4,DL
         1 000012   000001 752003 0                  STCQ    LPSTAT$,'03'O

     1062     1443    1           TDCW_LPEXT.TYPE='10'B;          /* Make a TDCW to Get Status IDCW     */

   1443  1 000013   000002 236000 0                  LDQ     LPXTRA$
         1 000014   000000 376000 2                  ANQ     0
         1 000015   020000 276007                    ORQ     8192,DL
         1 000016   000002 756000 0                  STQ     LPXTRA$

     1063     1444    1           TDCW_LPEXT.TALLY=0;

   1444  1 000017   000000 236003                    LDQ     0,DU
         1 000020   000002 752003 0                  STCQ    LPXTRA$,'03'O

     1064     1445    1           IODCW(1)=TDCW_LPEXT;            /* Append to DCW list                 */

   1445  1 000021   000002 236000 0                  LDQ     LPXTRA$
         1 000022   000001 756000 xsym               STQ     IODCW+1

     1065     1446    2           DO CASE(CODE);

   1446  1 000023   200004 471500                    LDP1    @CODE,,AUTO
         1 000024   100000 235100                    LDA     0,,PR1
         1 000025   000005 115007                    CMPA    5,DL
         1 000026   000030 602005 1                  TNC     s:1446+5,AL
PL6.E3A0      #006=LPIO File=ISI$IOPROC.:E05TSI                                  TUE 07/29/97 22:52 Page:216
         1 000027   000140 710000 1                  TRA     s:1481
         1 000030   000140 710000 1                  TRA     s:1481
         1 000031   000114 710000 1                  TRA     s:1471
         1 000032   000114 710000 1                  TRA     s:1471
         1 000033   000044 710000 1                  TRA     s:1454
         1 000034   000035 710000 1                  TRA     LPIOX

     1066     1447    2             CASE(4);

     1067     1448    2   LPIOX:
     1068     1449    2               CURR_LINES(INDX-%FRSTLP)=-DCTLINES(INDX-%FRSTLP);
              1449                        /* Reset lines count */

   1449  1 000035   000000 720100       LPIOX        LXL0    0,,PR0
         1 000036   000000 221003                    LDX1    0,DU
         1 000037   777777 121010 xsym               SBLX1   DCTLINES-1,X0
         1 000040   777777 741010 xsym               STX1    CURR_LINES-1,X0

     1069     1450    2   LPIOX1:
     1070     1451    2               PSI_FLG='1'B;

   1451  1 000041   400000 236003       LPIOX1       LDQ     -131072,DU
         1 000042   000000 756000 xsym               STQ     PSI_FLG

     1071     1452    2               RETURN;

   1452  1 000043   000000 702200 xent               TSX2  ! X66_ARET

     1072     1453    2             CASE(3);

     1073     1454    2               LPBUF.CONTRB=%CB_TOF;       /* Top of Form                        */

   1454  1 000044   160000 236003                    LDQ     57344,DU
         1 000045   000007 552040 0                  STBQ    LPBUF,'40'O

     1074     1455    2   RLINE:
     1075     1456    2               CURR_LINES(INDX-%FRSTLP)=-DCTLINES(INDX-%FRSTLP);
PL6.E3A0      #006=LPIO File=ISI$IOPROC.:E05TSI                                  TUE 07/29/97 22:52 Page:217
              1456                        /* Reset lines count */

   1456  1 000046   200003 470500       RLINE        LDP0    @INDX,,AUTO
         1 000047   000000 720100                    LXL0    0,,PR0
         1 000050   000000 221003                    LDX1    0,DU
         1 000051   777777 121010 xsym               SBLX1   DCTLINES-1,X0
         1 000052   777777 741010 xsym               STX1    CURR_LINES-1,X0

     1076     1457    2   LPIO1:
     1077     1458    2               COPY_IODCW=IODCW(0);        /* User's IODCW                       */

   1458  1 000053   000000 236000 xsym  LPIO1        LDQ     IODCW
         1 000054   000061 756000 0                  STQ     COPY_IODCW

     1078     1459    2               IF COPY_IODCW.TALLY>40 THEN COPY_IODCW.TALLY=40; /* Truncate it   */

   1459  1 000055   000061 236000 0                  LDQ     COPY_IODCW
         1 000056   007777 376007                    ANQ     4095,DL
         1 000057   000051 116007                    CMPQ    41,DL
         1 000060   000063 602000 1                  TNC     s:1461

   1459  1 000061   000050 236007                    LDQ     40,DL
         1 000062   000061 752003 0                  STCQ    COPY_IODCW,'03'O

     1079     1460        /* Move user's buffer */
     1080     1461    2               USER_BUF_PTR.WOFFS=COPY_IODCW.AD;

   1461  1 000063   000061 220000 0                  LDX0    COPY_IODCW
         1 000064   000060 740000 0                  STX0    USER_BUF_PTR

     1081     1462    2               USER_BUF_PTR.BYTEPOS=COPY_IODCW.CP;

   1462  1 000065   000061 236000 0                  LDQ     COPY_IODCW
         1 000066   000001 736000                    QLS     1
         1 000067   000060 676000 0                  ERQ     USER_BUF_PTR
         1 000070   600000 376007                    ANQ     -65536,DL
         1 000071   000060 656000 0                  ERSQ    USER_BUF_PTR
PL6.E3A0      #006=LPIO File=ISI$IOPROC.:E05TSI                                  TUE 07/29/97 22:52 Page:218

     1082     1463    2               LPBUF.TXT=SUBSTR(USER_BUF,0,COPY_IODCW.TALLY*4);

   1463  1 000072   000061 236000 0                  LDQ     COPY_IODCW
         1 000073   000002 736000                    QLS     2
         1 000074   037774 376007                    ANQ     16380,DL
         1 000075   000060 470400 0                  LDP0    USER_BUF_PTR
         1 000076   000000 621006                    EAX1    0,QL
         1 000077   040000 100540                    MLR     fill='040'O
         1 000100   000000 000011                    ADSC9   0,,PR0                   cn=0,n=*X1
         1 000101   000007 200240 0                  ADSC9   LPBUF                    cn=1,n=160

     1083     1464        /* Make a DCW with LPBUF */
     1084     1465    2               USER_BUF$=ADDR(LPBUF);

   1465  1 000102   000001 236000 2                  LDQ     1
         1 000103   000060 756000 0                  STQ     USER_BUF_PTR

     1085     1466    2               COPY_IODCW.AD=USER_BUF_PTR.WOFFS;

   1466  1 000104   000060 221000 0                  LDX1    USER_BUF_PTR
         1 000105   000061 741000 0                  STX1    COPY_IODCW

     1086     1467    2               COPY_IODCW.TALLY=COPY_IODCW.TALLY+1;

   1467  1 000106   000061 236000 0                  LDQ     COPY_IODCW
         1 000107   000001 036007                    ADLQ    1,DL
         1 000110   000061 752003 0                  STCQ    COPY_IODCW,'03'O

     1087     1468    2               IODCW(0)=COPY_IODCW;

   1468  1 000111   000061 236000 0                  LDQ     COPY_IODCW
         1 000112   000000 756000 xsym               STQ     IODCW

     1088     1469    2               GOTO LPIOX1;

   1469  1 000113   000041 710000 1                  TRA     LPIOX1
PL6.E3A0      #006=LPIO File=ISI$IOPROC.:E05TSI                                  TUE 07/29/97 22:52 Page:219

     1089     1470    2             CASE(1,2);

     1090     1471    3               IF CURR_LINES(INDX-%FRSTLP)+CODE<=0 THEN DO;
              1471                        /* Lines count not too big */

   1471  1 000114   000000 720100                    LXL0    0,,PR0
         1 000115   777777 236010 xsym               LDQ     CURR_LINES-1,X0
         1 000116   000022 732000                    QRS     18
         1 000117   100000 036100                    ADLQ    0,,PR1
         1 000120   000133 605400 1                  TPNZ    s:1477

     1091     1472    3                     CURR_LINES(INDX-%FRSTLP)=CURR_LINES(INDX-%FRSTLP)+CODE;

   1472  1 000121   777777 236010 xsym               LDQ     CURR_LINES-1,X0
         1 000122   000022 732000                    QRS     18
         1 000123   100000 036100                    ADLQ    0,,PR1
         1 000124   000000 621006                    EAX1    0,QL
         1 000125   777777 741010 xsym               STX1    CURR_LINES-1,X0

     1092     1473    3                     LPBUF.CONTRB=%CB_SAP+CODE;

   1473  1 000126   100000 236100                    LDQ     0,,PR1
         1 000127   000100 036007                    ADLQ    64,DL
         1 000130   000033 736000                    QLS     27
         1 000131   000007 552040 0                  STBQ    LPBUF,'40'O

     1093     1474    3                     GOTO LPIO1;

   1474  1 000132   000053 710000 1                  TRA     LPIO1

     1094     1475    3                   END;                    /* THEN                               */
     1095     1476    3                 ELSE DO;                  /* Line count too big                 */

     1096     1477    3                     LPBUF.CONTRB=%CB_TOF+CODE;

   1477  1 000133   100000 236100                    LDQ     0,,PR1
PL6.E3A0      #006=LPIO File=ISI$IOPROC.:E05TSI                                  TUE 07/29/97 22:52 Page:220
         1 000134   000160 036007                    ADLQ    112,DL
         1 000135   000033 736000                    QLS     27
         1 000136   000007 552040 0                  STBQ    LPBUF,'40'O

     1097     1478    3                     GOTO RLINE;

   1478  1 000137   000046 710000 1                  TRA     RLINE

     1098     1479    3                   END;                    /* ELSE                               */
     1099     1480    2             CASE(ELSE);

     1100     1481    2               ALTRETURN;

   1481  1 000140   000000 702200 xent               TSX2  ! X66_AALT
     1101     1482    2           END;                            /* DO CASE                            */
     1102     1483    1   END LPIO;
     1103     1484        %EOD;

PL6.E3A0      #006=LPIO File=ISI$IOPROC.:E05TSI                                  TUE 07/29/97 22:52 Page:221
--  Include file information  --

   IS$MACROS.:E05TOU  is referenced.
      No diagnostics issued in procedure LPIO.
PL6.E3A0      #006=LPIO File=ISI$IOPROC.:E05TSI                                  TUE 07/29/97 22:52 Page:222

 **** Variables and constants ****

  ****  Section 000  Data  LPIO

  ****  Scalars and arrays  ****
OctLoc.c.b A Datatyp(siz) R M Lvl/name                 OctLoc.c.b A Datatyp(siz) R M Lvl/name

    61-0-0/w STRC        r     1 COPY_IODCW                 1-0-0/w STRC        r     1 GET_LPSTAT
     7-0-0/w STRC(1449)  r     1 LPBUF                      3-0-0/w BIT         r     1 LPSTAT(0:3)
     1-0-0/w PTR         r     1 LPSTAT$                    0-0-0/w BIT         r     1 LPXTRA
     2-0-0/w PTR         r     1 LPXTRA$                    2-0-0/w STRC        r     1 TDCW_LPEXT
    60-0-0/w PTR         r     1 USER_BUF$                 60-0-0/w STRC        r     1 USER_BUF_PTR

  ****  Auto variables  ****

  ****  Scalars and arrays  ****
OctLoc.c.b A Datatyp(siz) R M Lvl/name                 OctLoc.c.b A Datatyp(siz) R M Lvl/name

     4-0-0/w PTR         r     1 @CODE                      3-0-0/w PTR         r     1 @INDX
    *0-0-0/w UBIN        r     1 CODE                      *0-0-0/w UBIN        r     1 INDX

  ****  SYMREF variables  ****

  ****  Scalars and arrays  ****
OctLoc.c.b A Datatyp(siz) R M Lvl/name                 OctLoc.c.b A Datatyp(siz) R M Lvl/name

     0-0-0/w SBIN(18)    r     1 CURR_LINES(0:0)
     0-0-0/w SBIN(18)    r     1 DCTLINES(0:0)
     0-0-0/d STRC(396)   r     1 DEVINFO(0:21)              0-0-0/b BIT         r     1 IODCW(0:2)
     0-0-0/b BIT         r     1 PSI_FLG

  ****  BASED and DCB variables  ****

  ****  Scalars and arrays  ****
OctLoc.c.b A Datatyp(siz) R M Lvl/name                 OctLoc.c.b A Datatyp(siz) R M Lvl/name

     0-0-0/c CHAR(160)   r     1 USER_BUF
PL6.E3A0      #006=LPIO File=ISI$IOPROC.:E05TSI                                  TUE 07/29/97 22:52 Page:223


   Procedure LPIO requires 97 words for executable code.
   Procedure LPIO requires 6 words of local(AUTO) storage.
PL6.E3A0      #006=LPIO File=ISI$IOPROC.:E05TSI                                  TUE 07/29/97 22:52 Page:224
          *** CROSS REFERENCE LISTING ***
**     DENOTES     IDENTIFIER DEFINITION
<<                 IDENTIFIER'S VALUE SET
>>                 IDENTIFIER'S VALUE USED
<>                 IDENTIFIER SET AND/OR USED
--                 IDENTIFIER REFERENCED
PL6.E3A0      #006=LPIO File=ISI$IOPROC.:E05TSI                                  TUE 07/29/97 22:52 Page:225
          MINI XREF LISTING

CODE
      1283**DCL         6--PROC     1446>>DOCASE   1471>>IF       1472>>ASSIGN   1473>>ASSIGN   1477>>ASSIGN
COPY_IODCW
      1426**DCL      1458<<ASSIGN   1468>>ASSIGN
COPY_IODCW.AD
      1427**DCL      1461>>ASSIGN   1466<<ASSIGN
COPY_IODCW.CP
      1428**DCL      1462>>ASSIGN
COPY_IODCW.TALLY
      1431**DCL      1459>>IF       1459<<ASSIGN   1463>>ASSIGN   1467<<ASSIGN   1467>>ASSIGN
CURR_LINES
      1438**DCL      1449<<ASSIGN   1456<<ASSIGN   1471>>IF       1472<<ASSIGN   1472>>ASSIGN
DCTLINES
      1437**DCL      1449>>ASSIGN   1456>>ASSIGN
DEVINFO.BITS
      1299**DCL      1440>>IF
DEVINFO.PCWS
      1300**DCL      1311--REDEF
DEVINFO.RPM_PTRS.EF_DCWS$
      1313**DCL      1314--REDEF
DEVINFO.STATUS
      1317**DCL      1336--REDEF
GET_LPSTAT.TALLY
      1370**DCL      1442<<ASSIGN
INDX
      1282**DCL         6--PROC     1440>>IF       1449>>ASSIGN   1449>>ASSIGN   1456>>ASSIGN   1456>>ASSIGN
      1471>>IF       1472>>ASSIGN   1472>>ASSIGN
IODCW
      1436**DCL      1445<<ASSIGN   1458>>ASSIGN   1468<<ASSIGN
LPBUF
      1393**DCL      1465--ASSIGN
LPBUF.CONTRB
PL6.E3A0      #006=LPIO File=ISI$IOPROC.:E05TSI                                  TUE 07/29/97 22:52 Page:226
      1394**DCL      1454<<ASSIGN   1473<<ASSIGN   1477<<ASSIGN
LPBUF.TXT
      1395**DCL      1463<<ASSIGN
LPIO1
      1458**LABEL    1474--GOTO
LPIOX1
      1451**LABEL    1469--GOTO
LPSTAT
      1392**DCL      1354--DCLINIT
LPSTAT$
      1354**DCL      1365--REDEF
LPXTRA
      1353**DCL      1373--DCLINIT
LPXTRA$
      1373**DCL      1384--REDEF
PSI_FLG
      1435**DCL      1451<<ASSIGN
RLINE
      1456**LABEL    1478--GOTO
TDCW_LPEXT
      1384**DCL      1445>>ASSIGN
TDCW_LPEXT.TALLY
      1389**DCL      1444<<ASSIGN
TDCW_LPEXT.TYPE
      1388**DCL      1443<<ASSIGN
USER_BUF
      1415**DCL      1463>>ASSIGN
USER_BUF$
      1414**DCL      1415--IMP-PTR  1463>>ASSIGN   1465<<ASSIGN
USER_BUF_PTR
      1407**DCL      1414--REDEF
USER_BUF_PTR.BYTEPOS
      1409**DCL      1462<<ASSIGN
USER_BUF_PTR.WOFFS
      1408**DCL      1461<<ASSIGN   1466>>ASSIGN

PL6.E3A0      #007=LPCU File=ISI$IOPROC.:E05TSI                                  TUE 07/29/97 22:52 Page:227
     1104        1        /*T***********************************************************/
     1105        2        /*T*                                                         */
     1106        3        /*T* Copyright (c) Bull HN Information Systems Inc., 1997    */
     1107        4        /*T*                                                         */
     1108        5        /*T***********************************************************/
     1109        6        LPCU:   PROC(INDX) ALTRET;
     1110        7        %INCLUDE IS$MACROS;
     1111     1282    1   DCL INDX UBIN WORD;
     1112     1283        %DEVINFO(STCLASS="SYMREF");
     1113     1352        %TEXTC(N#=LPHMX,M#="' XXXXXXXX READY status not returned . '");
     1114     1357        %TEXTC(N#=LPHMY,M#="' XXXXXXXX error . '");
     1115     1362    1   DCL LPHM BIT(1) SYMREF;
     1116     1363    1   DCL MESSAGE$ PTR;
     1117     1364    1   DCL 1 TEXTM BASED(MESSAGE$),
     1118     1365    1         2 CNT UBIN WORD,
     1119     1366    1         2 TXT CHAR(TEXTM.CNT);
     1120     1367    1   DCL RETR# UBIN(9);                      /* Number of retries                  */
     1121     1368    1   DCL I UBIN WORD;
     1122     1369        /**/
     1123     1370    1   DCL RETRY_FLG BIT(1) SYMREF;
     1124     1371    1   DCL LPSTAT(0:3) BIT(36) SYMREF;
     1125     1372    1   DCL 1 ANSBUF SYMREF,
     1126     1373    1         2 CNT UBIN WORD,
     1127     1374    1         2 TXT CHAR(16);
     1128     1375    1   DCL LPINIT ENTRY(1) ALTRET;
     1129     1376    1   DCL SET_TRAIN5 ENTRY(1) ALTRET;
     1130     1377    1   DCL SET_TRAIN6 ENTRY(1) ALTRET;
     1131     1378    1   DCL TYPEC ENTRY(1);
     1132     1379    1   DCL TYPEST ENTRY(1);
     1133     1380    1   DCL KEYIN ENTRY(2) ALTRET;
     1134     1381        /**/
     1135     1382    1           IF(DEVINFO.BSTAT.W1(INDX)&%STATUS_MASK)~=%TERM_STATUS THEN GOTO ANALZ_STAT;
     1136     1383    1             ELSE;
     1137     1384        /* See if all is OK */
     1138     1385    2           IF LPSTAT(0)~='0'B THEN DO;     /* All is well;normal return          */
     1139     1386    2   NORM_RET:
     1140     1387    2                 RETR#=0;
PL6.E3A0      #007=LPCU File=ISI$IOPROC.:E05TSI                                  TUE 07/29/97 22:52 Page:228
     1141     1388    2                 RETURN;
     1142     1389    2               END;                        /* THEN                               */
     1143     1390    1             ELSE GOTO LPCUX;              /* The impossible ..                  */
     1144     1391    1   ANALZ_STAT:
     1145     1392    2           DO SELECT(DEVINFO.STATUS.MAJ_STAT(INDX)); /* Transfer on major status */
     1146     1393    2             SELECT('0011'B);              /* Major status=3 : data alert        */
     1147     1394    3             DO SELECT(DEVINFO.STATUS.SUB_STAT(INDX)); /* Check sub_status       */
     1148     1395    3               SELECT('01'O,'02'O);
     1149     1396    3               GOTO RETRY;
     1150     1397    3               SELECT('00'O);              /* Reload VFC and train image         */
     1151     1398    3               CALL LPINIT(INDX) ALTRET(ERR_RET);
     1152     1399    4               DO I=0 TO 30000;            /* Wait                               */
     1153     1400    4               END;                        /* DO I=                              */
     1154     1401    3   RETR2:
     1155     1402    3               RETR#=RETR#+1;
     1156     1403    3               IF RETR#<=2 THEN GOTO NRETRY;
     1157     1404    3                 ELSE GOTO ERR_RET;
     1158     1405    3               SELECT('10'O);              /* Top of page echo                   */
     1159     1406    3               GOTO NORM_RET;              /* OK                                 */
     1160     1407    3               SELECT(ELSE);
     1161     1408    3   RETR4:
     1162     1409    3             RETR#=RETR#+1;
     1163     1410    3             IF RETR#<=4 THEN GOTO NRETRY;
     1164     1411    3               ELSE GOTO ERR_RET;
     1165     1412    3             END;                          /* DO SELECT on sub_status            */
     1166     1413    2           SELECT('0101'B);                /* Major status=5 : command reject    */
     1167     1414    3           DO SELECT(DEVINFO.STATUS.SUB_STAT(INDX)); /* Check sub_status         */
     1168     1415    3             SELECT('04'O,'02'O);     /* Paper motion alert, top of page echo    */
     1169     1416    3             GOTO RETR4;
     1170     1417    3             SELECT(ELSE);
     1171     1418    3           GOTO LPCU2;
     1172     1419    3           END;                            /* DO SELECT on sub_status            */
     1173     1420    2           SELECT(ELSE);
     1174     1421    2   LPCU2:
     1175     1422    2           MESSAGE$=ADDR(LPHMY);
     1176     1423    2           SUBSTR(TEXTM.TXT,1,8)=DEVINFO.DEVNAME(INDX);
     1177     1424    2           CALL TYPEC(LPHMY);
PL6.E3A0      #007=LPCU File=ISI$IOPROC.:E05TSI                                  TUE 07/29/97 22:52 Page:229
     1178     1425    2           CALL TYPEST(DEVINFO.STATUS(INDX)); /* Give status info                */
     1179     1426    2   LPCU20:
     1180     1427    2           MESSAGE$=ADDR(LPHM);
     1181     1428    2           SUBSTR(TEXTM.TXT,0,8)=DEVINFO.DEVNAME(INDX);
     1182     1429    2   ASK:
     1183     1430    2           CALL KEYIN(LPHM,ANSBUF);
     1184     1431    3           DO SELECT(SUBSTR(ANSBUF.TXT,0,1));
     1185     1432    3             SELECT('5');
     1186     1433    3             CALL SET_TRAIN5(INDX) ALTRET(ERR_RET);
     1187     1434    4             DO I=0 TO 30000;              /* Wait                               */
     1188     1435    4             END;                          /* DO I=                              */
     1189     1436    3             GOTO RETRY;
     1190     1437    3             SELECT('6');
     1191     1438    3             CALL SET_TRAIN6(INDX) ALTRET(ERR_RET);
     1192     1439    4             DO I=0 TO 30000;              /* Wait                               */
     1193     1440    4             END;                          /* DO I=                              */
     1194     1441    3             GOTO RETRY;
     1195     1442    3             SELECT('S','s');
     1196     1443    3   LPDWN:
     1197     1444    3             DEVINFO.BITS(INDX)='1'B;
     1198     1445    3   ERR_RET:
     1199     1446    3             RETR#=0;
     1200     1447    3             ALTRETURN;
     1201     1448    3             SELECT('G','g');
     1202     1449    3             GOTO RETRY;
     1203     1450    3             SELECT(ELSE);
     1204     1451    3           GOTO ASK;
     1205     1452    3           END;                            /* DO SELECT on answer                */
     1206     1453    2           END;                            /* DO SELECT on major status          */
     1207     1454    1   LPCUX:
     1208     1455    1           MESSAGE$=ADDR(LPHMX);
     1209     1456    1           SUBSTR(TEXTM.TXT,1,8)=DEVINFO.DEVNAME(INDX);
     1210     1457    1           CALL TYPEC(LPHMX);
     1211     1458    1           GOTO NORM_RET;                  /* Ignore it                          */
     1212     1459    1   RETRY:
     1213     1460    1           RETR#=0;
     1214     1461    1   NRETRY:
PL6.E3A0      #007=LPCU File=ISI$IOPROC.:E05TSI                                  TUE 07/29/97 22:52 Page:230
     1215     1462    1           RETRY_FLG='1'B;
     1216     1463    1           ALTRETURN;
     1217     1464    1   END LPCU;
     1218     1465        %EOD;

PL6.E3A0      #007=LPCU File=ISI$IOPROC.:E05TSI                                  TUE 07/29/97 22:52 Page:231
--  Include file information  --

   IS$MACROS.:E05TOU  is referenced.
      No diagnostics issued in procedure LPCU.

   Procedure LPCU requires 255 words for executable code.
   Procedure LPCU requires 10 words of local(AUTO) storage.

PL6.E3A0      #007=LPCU File=ISI$IOPROC.:E05TSI                                  TUE 07/29/97 22:52 Page:232

 Object Unit name= LPCU                                       File name= ISI$IOPROC.:E05TOU
 UTS= JUL 29 '97 22:52:49.72 TUE                              Compiler= PL-6/E31         Sev=      00
 SharedLib= :SHARED_SYSTEM                                    Alt SharedLib=


    ****  Control sections  ****

 Sect   Type Bound  Init  Size OctSiz  Section name(segment info)
    0   Data  even  none    17     21  LPCU
    1  RoData even  UTS      1      1  LPCU
    2   Proc  even  none   255    377  LPCU
    3  RoData even  none     6      6  LPCU

    ****  Entry defs  ****

                              Check   Calling
                             calling  sequence
  Sect OctLoc Primary Altret sequence   type   Parms  Name
     2      0   yes    yes     yes      Std        1  LPCU

  ****  Data defs  ****

 Sect OctLoc  Name                           Sect OctLoc  Name
    0      0  LPHMX                              0     13  LPHMY
PL6.E3A0      #007=LPCU File=ISI$IOPROC.:E05TSI                                  TUE 07/29/97 22:52 Page:233

  ****  Entry refs  ****

         Check        Calling
        calling       sequence
Altret sequence SRef   type   Args  Name
 yes     yes           Std       1 LPINIT
         yes           Std       1 TYPEC
 yes     yes           Std       2 KEYIN
 yes     yes           Std       1 SET_TRAIN5
 yes     yes           Std       1 SET_TRAIN6
         yes           Std       1 TYPEST
                       nStd      0 X66_AUTO_1
                       nStd      0 X66_ARET
                       Std       0 B_CONSPOOL_D
                       nStd      0 X66_AALT

  ****  Data refs  ****

  Flags:  r = read only, s = secondary
Flgs Name                             Flgs Name                             Flgs Name
     DEVINFO                               LPHM                                  RETRY_FLG
     LPSTAT                                ANSBUF                                B_VECTNIL

  ****  Segment refs  ****

  Flags:  r = read only, s = secondary
Flgs Name                             Flgs Name                             Flgs Name
     ISSID
PL6.E3A0      #007=LPCU File=ISI$IOPROC.:E05TSI                                  TUE 07/29/97 22:52 Page:234


     1104        1        /*T***********************************************************/
     1105        2        /*T*                                                         */
     1106        3        /*T* Copyright (c) Bull HN Information Systems Inc., 1997    */
     1107        4        /*T*                                                         */
     1108        5        /*T***********************************************************/
     1109        6        LPCU:   PROC(INDX) ALTRET;

      6  2 000000   000000 700200 xent  LPCU         TSX0  ! X66_AUTO_1
         2 000001   000012 000001                    ZERO    10,1

     1110        7        %INCLUDE IS$MACROS;
     1111     1282    1   DCL INDX UBIN WORD;
     1112     1283        %DEVINFO(STCLASS="SYMREF");
     1113     1352        %TEXTC(N#=LPHMX,M#="' XXXXXXXX READY status not returned . '");
     1114     1357        %TEXTC(N#=LPHMY,M#="' XXXXXXXX error . '");
     1115     1362    1   DCL LPHM BIT(1) SYMREF;
     1116     1363    1   DCL MESSAGE$ PTR;
     1117     1364    1   DCL 1 TEXTM BASED(MESSAGE$),
     1118     1365    1         2 CNT UBIN WORD,
     1119     1366    1         2 TXT CHAR(TEXTM.CNT);
     1120     1367    1   DCL RETR# UBIN(9);                      /* Number of retries                  */
     1121     1368    1   DCL I UBIN WORD;
     1122     1369        /**/
     1123     1370    1   DCL RETRY_FLG BIT(1) SYMREF;
     1124     1371    1   DCL LPSTAT(0:3) BIT(36) SYMREF;
     1125     1372    1   DCL 1 ANSBUF SYMREF,
     1126     1373    1         2 CNT UBIN WORD,
     1127     1374    1         2 TXT CHAR(16);
     1128     1375    1   DCL LPINIT ENTRY(1) ALTRET;
     1129     1376    1   DCL SET_TRAIN5 ENTRY(1) ALTRET;
     1130     1377    1   DCL SET_TRAIN6 ENTRY(1) ALTRET;
     1131     1378    1   DCL TYPEC ENTRY(1);
     1132     1379    1   DCL TYPEST ENTRY(1);
     1133     1380    1   DCL KEYIN ENTRY(2) ALTRET;
     1134     1381        /**/
     1135     1382    1           IF(DEVINFO.BSTAT.W1(INDX)&%STATUS_MASK)~=%TERM_STATUS THEN GOTO ANALZ_STAT;
PL6.E3A0      #007=LPCU File=ISI$IOPROC.:E05TSI                                  TUE 07/29/97 22:52 Page:235

   1382  2 000002   200003 470500                    LDP0    @INDX,,AUTO
         2 000003   000000 236100                    LDQ     0,,PR0
         2 000004   000006 402007                    MPY     6,DL
         2 000005   000001 736000                    QLS     1
         2 000006   000000 620006                    EAX0    0,QL
         2 000007   000000 236000 1                  LDQ     0
         2 000010   000004 376010 xsym               ANQ     DEVINFO+4,X0
         2 000011   400000 116003                    CMPQ    -131072,DU
         2 000012   000017 601000 2                  TNZ     ANALZ_STAT

     1136     1383    1             ELSE;
     1137     1384        /* See if all is OK */
     1138     1385    2           IF LPSTAT(0)~='0'B THEN DO;     /* All is well;normal return          */

   1385  2 000013   000000 235000 xsym               LDA     LPSTAT
         2 000014   000354 600000 2                  TZE     LPCUX

     1139     1386    2   NORM_RET:
     1140     1387    2                 RETR#=0;

   1387  2 000015   200005 450100       NORM_RET     STZ     RETR#,,AUTO

     1141     1388    2                 RETURN;

   1388  2 000016   000000 702200 xent               TSX2  ! X66_ARET

     1142     1389    2               END;                        /* THEN                               */
     1143     1390    1             ELSE GOTO LPCUX;              /* The impossible ..                  */
     1144     1391    1   ANALZ_STAT:
     1145     1392    2           DO SELECT(DEVINFO.STATUS.MAJ_STAT(INDX)); /* Transfer on major status */

   1392  2 000017   000000 236100       ANALZ_STAT   LDQ     0,,PR0
         2 000020   000006 402007                    MPY     6,DL
         2 000021   000000 620006                    EAX0    0,QL
         2 000022   000001 736000                    QLS     1
         2 000023   000004 236006 xsym               LDQ     DEVINFO+4,QL
PL6.E3A0      #007=LPCU File=ISI$IOPROC.:E05TSI                                  TUE 07/29/97 22:52 Page:236
         2 000024   170000 376003                    ANQ     61440,DU
         2 000025   030000 116003                    CMPQ    12288,DU
         2 000026   000175 602000 2                  TNC     LPCU2
         2 000027   000000 635010                    EAA     0,X0
         2 000030   000021 771000                    ARL     17
         2 000031   000004 236005 xsym               LDQ     DEVINFO+4,AL
         2 000032   170000 376003                    ANQ     61440,DU
         2 000033   030000 116003                    CMPQ    12288,DU
         2 000034   000044 600000 2                  TZE     s:1394
         2 000035   000000 635010                    EAA     0,X0
         2 000036   000021 771000                    ARL     17
         2 000037   000004 236005 xsym               LDQ     DEVINFO+4,AL
         2 000040   170000 376003                    ANQ     61440,DU
         2 000041   050000 116003                    CMPQ    20480,DU
         2 000042   000175 601000 2                  TNZ     LPCU2
         2 000043   000147 710000 2                  TRA     s:1414

     1146     1393    2             SELECT('0011'B);              /* Major status=3 : data alert        */

     1147     1394    3             DO SELECT(DEVINFO.STATUS.SUB_STAT(INDX)); /* Check sub_status       */

   1394  2 000044   000000 635010                    EAA     0,X0
         2 000045   000021 771000                    ARL     17
         2 000046   000004 236005 xsym               LDQ     DEVINFO+4,AL
         2 000047   007700 376003                    ANQ     4032,DU
         2 000050   000100 116003                    CMPQ    64,DU
         2 000051   000103 602000 2                  TNC     s:1394+31
         2 000052   000000 635010                    EAA     0,X0
         2 000053   000021 771000                    ARL     17
         2 000054   000004 236005 xsym               LDQ     DEVINFO+4,AL
         2 000055   007700 376003                    ANQ     4032,DU
         2 000056   000100 116003                    CMPQ    64,DU
         2 000057   000113 600000 2                  TZE     s:1396
         2 000060   000000 635010                    EAA     0,X0
         2 000061   000021 771000                    ARL     17
         2 000062   000004 236005 xsym               LDQ     DEVINFO+4,AL
         2 000063   007700 376003                    ANQ     4032,DU
PL6.E3A0      #007=LPCU File=ISI$IOPROC.:E05TSI                                  TUE 07/29/97 22:52 Page:237
         2 000064   000200 116003                    CMPQ    128,DU
         2 000065   000137 602000 2                  TNC     RETR4
         2 000066   000000 635010                    EAA     0,X0
         2 000067   000021 771000                    ARL     17
         2 000070   000004 236005 xsym               LDQ     DEVINFO+4,AL
         2 000071   007700 376003                    ANQ     4032,DU
         2 000072   000200 116003                    CMPQ    128,DU
         2 000073   000113 600000 2                  TZE     s:1396
         2 000074   000000 635010                    EAA     0,X0
         2 000075   000021 771000                    ARL     17
         2 000076   000004 236005 xsym               LDQ     DEVINFO+4,AL
         2 000077   007700 376003                    ANQ     4032,DU
         2 000100   001000 116003                    CMPQ    512,DU
         2 000101   000137 601000 2                  TNZ     RETR4
         2 000102   000136 710000 2                  TRA     s:1406
         2 000103   000000 635010                    EAA     0,X0
         2 000104   000021 771000                    ARL     17
         2 000105   000004 236005 xsym               LDQ     DEVINFO+4,AL
         2 000106   007700 376003                    ANQ     4032,DU
         2 000107   000000 116003                    CMPQ    0,DU
         2 000110   000114 602000 2                  TNC     s:1398
         2 000111   000114 600000 2                  TZE     s:1398
         2 000112   000137 710000 2                  TRA     RETR4

     1148     1395    3               SELECT('01'O,'02'O);

     1149     1396    3               GOTO RETRY;

   1396  2 000113   000373 710000 2                  TRA     RETRY

     1150     1397    3               SELECT('00'O);              /* Reload VFC and train image         */

     1151     1398    3               CALL LPINIT(INDX) ALTRET(ERR_RET);

   1398  2 000114   200003 630500                    EPPR0   @INDX,,AUTO
         2 000115   000017 631400 xsym               EPPR1   B_VECTNIL+15
         2 000116   000000 701000 xent               TSX1    LPINIT
PL6.E3A0      #007=LPCU File=ISI$IOPROC.:E05TSI                                  TUE 07/29/97 22:52 Page:238
         2 000117   000350 702000 2                  TSX2    ERR_RET

     1152     1399    4               DO I=0 TO 30000;            /* Wait                               */

   1399  2 000120   200006 450100                    STZ     I,,AUTO

     1153     1400    4               END;                        /* DO I=                              */

   1400  2 000121   200006 235100                    LDA     I,,AUTO
         2 000122   000001 035007                    ADLA    1,DL
         2 000123   200006 755100                    STA     I,,AUTO
         2 000124   072461 115007                    CMPA    30001,DL
         2 000125   000121 602000 2                  TNC     s:1400

     1154     1401    3   RETR2:
     1155     1402    3               RETR#=RETR#+1;

   1402  2 000126   200005 236100       RETR2        LDQ     RETR#,,AUTO
         2 000127   001000 036003                    ADLQ    512,DU
         2 000130   200005 552140                    STBQ    RETR#,'40'O,AUTO

     1156     1403    3               IF RETR#<=2 THEN GOTO NRETRY;

   1403  2 000131   200005 236100                    LDQ     RETR#,,AUTO
         2 000132   777000 376003                    ANQ     -512,DU
         2 000133   003000 116003                    CMPQ    1536,DU
         2 000134   000374 602000 2                  TNC     NRETRY

     1157     1404    3                 ELSE GOTO ERR_RET;

   1404  2 000135   000350 710000 2                  TRA     ERR_RET

     1158     1405    3               SELECT('10'O);              /* Top of page echo                   */

     1159     1406    3               GOTO NORM_RET;              /* OK                                 */

   1406  2 000136   000015 710000 2                  TRA     NORM_RET
PL6.E3A0      #007=LPCU File=ISI$IOPROC.:E05TSI                                  TUE 07/29/97 22:52 Page:239

     1160     1407    3               SELECT(ELSE);

     1161     1408    3   RETR4:
     1162     1409    3             RETR#=RETR#+1;

   1409  2 000137   200005 236100       RETR4        LDQ     RETR#,,AUTO
         2 000140   001000 036003                    ADLQ    512,DU
         2 000141   200005 552140                    STBQ    RETR#,'40'O,AUTO

     1163     1410    3             IF RETR#<=4 THEN GOTO NRETRY;

   1410  2 000142   200005 236100                    LDQ     RETR#,,AUTO
         2 000143   777000 376003                    ANQ     -512,DU
         2 000144   005000 116003                    CMPQ    2560,DU
         2 000145   000374 602000 2                  TNC     NRETRY

     1164     1411    3               ELSE GOTO ERR_RET;

   1411  2 000146   000350 710000 2                  TRA     ERR_RET

     1165     1412    3             END;                          /* DO SELECT on sub_status            */

     1166     1413    2           SELECT('0101'B);                /* Major status=5 : command reject    */

     1167     1414    3           DO SELECT(DEVINFO.STATUS.SUB_STAT(INDX)); /* Check sub_status         */

   1414  2 000147   000000 635010                    EAA     0,X0
         2 000150   000021 771000                    ARL     17
         2 000151   000004 236005 xsym               LDQ     DEVINFO+4,AL
         2 000152   007700 376003                    ANQ     4032,DU
         2 000153   000400 116003                    CMPQ    256,DU
         2 000154   000164 602000 2                  TNC     s:1414+13
         2 000155   000000 635010                    EAA     0,X0
         2 000156   000021 771000                    ARL     17
         2 000157   000004 236005 xsym               LDQ     DEVINFO+4,AL
         2 000160   007700 376003                    ANQ     4032,DU
PL6.E3A0      #007=LPCU File=ISI$IOPROC.:E05TSI                                  TUE 07/29/97 22:52 Page:240
         2 000161   000400 116003                    CMPQ    256,DU
         2 000162   000173 600000 2                  TZE     s:1416
         2 000163   000174 710000 2                  TRA     s:1418
         2 000164   000000 635010                    EAA     0,X0
         2 000165   000021 771000                    ARL     17
         2 000166   000004 236005 xsym               LDQ     DEVINFO+4,AL
         2 000167   007700 376003                    ANQ     4032,DU
         2 000170   000200 116003                    CMPQ    128,DU
         2 000171   000174 601000 2                  TNZ     s:1418
         2 000172   000173 710000 2                  TRA     s:1416

     1168     1415    3             SELECT('04'O,'02'O);     /* Paper motion alert, top of page echo    */

     1169     1416    3             GOTO RETR4;

   1416  2 000173   000137 710000 2                  TRA     RETR4

     1170     1417    3             SELECT(ELSE);

     1171     1418    3           GOTO LPCU2;

   1418  2 000174   000175 710000 2                  TRA     LPCU2

     1172     1419    3           END;                            /* DO SELECT on sub_status            */

     1173     1420    2           SELECT(ELSE);

     1174     1421    2   LPCU2:
     1175     1422    2           MESSAGE$=ADDR(LPHMY);

   1422  2 000175   000000 236000 3     LPCU2        LDQ     0
         2 000176   200004 756100                    STQ     MESSAGE$,,AUTO

     1176     1423    2           SUBSTR(TEXTM.TXT,1,8)=DEVINFO.DEVNAME(INDX);

   1423  2 000177   200004 471500                    LDP1    MESSAGE$,,AUTO
         2 000200   100000 721100                    LXL1    0,,PR1
PL6.E3A0      #007=LPCU File=ISI$IOPROC.:E05TSI                                  TUE 07/29/97 22:52 Page:241
         2 000201   000000 635010                    EAA     0,X0
         2 000202   000017 771000                    ARL     15
         2 000203   040100 100405                    MLR     fill='040'O
         2 000204   000006 000010 xsym               ADSC9   DEVINFO+6,A              cn=0,n=8
         2 000205   100001 200010                    ADSC9   1,,PR1                   cn=1,n=8

     1177     1424    2           CALL TYPEC(LPHMY);

   1424  2 000206   000000 630400 3                  EPPR0   0
         2 000207   000017 631400 xsym               EPPR1   B_VECTNIL+15
         2 000210   000000 701000 xent               TSX1    TYPEC
         2 000211   000000 011000                    NOP     0

     1178     1425    2           CALL TYPEST(DEVINFO.STATUS(INDX)); /* Give status info                */

   1425  2 000212   200003 470500                    LDP0    @INDX,,AUTO
         2 000213   000000 236100                    LDQ     0,,PR0
         2 000214   000006 402007                    MPY     6,DL
         2 000215   000023 736000                    QLS     19
         2 000216   000001 036000 3                  ADLQ    1
         2 000217   200010 756100                    STQ     I+2,,AUTO
         2 000220   200010 630500                    EPPR0   I+2,,AUTO
         2 000221   000017 631400 xsym               EPPR1   B_VECTNIL+15
         2 000222   000000 701000 xent               TSX1    TYPEST
         2 000223   000000 011000                    NOP     0

     1179     1426    2   LPCU20:
     1180     1427    2           MESSAGE$=ADDR(LPHM);

   1427  2 000224   000002 236000 3     LPCU20       LDQ     2
         2 000225   200004 756100                    STQ     MESSAGE$,,AUTO

     1181     1428    2           SUBSTR(TEXTM.TXT,0,8)=DEVINFO.DEVNAME(INDX);

   1428  2 000226   200004 470500                    LDP0    MESSAGE$,,AUTO
         2 000227   000000 720100                    LXL0    0,,PR0
         2 000230   200003 471500                    LDP1    @INDX,,AUTO
PL6.E3A0      #007=LPCU File=ISI$IOPROC.:E05TSI                                  TUE 07/29/97 22:52 Page:242
         2 000231   100000 236100                    LDQ     0,,PR1
         2 000232   000006 402007                    MPY     6,DL
         2 000233   000001 736000                    QLS     1
         2 000234   000006 237006 xsym               LDAQ    DEVINFO+6,QL
         2 000235   000001 755100                    STA     1,,PR0
         2 000236   000002 756100                    STQ     2,,PR0

     1182     1429    2   ASK:
     1183     1430    2           CALL KEYIN(LPHM,ANSBUF);

   1430  2 000237   000003 630400 3     ASK          EPPR0   3
         2 000240   000020 631400 xsym               EPPR1   B_VECTNIL+16
         2 000241   000000 701000 xent               TSX1    KEYIN
         2 000242   000000 011000                    NOP     0

     1184     1431    3           DO SELECT(SUBSTR(ANSBUF.TXT,0,1));

   1431  2 000243   000001 236000 xsym               LDQ     ANSBUF+1
         2 000244   777000 376003                    ANQ     -512,DU
         2 000245   123000 116003                    CMPQ    42496,DU
         2 000246   000271 602000 2                  TNC     s:1431+22
         2 000247   000001 236000 xsym               LDQ     ANSBUF+1
         2 000250   777000 376003                    ANQ     -512,DU
         2 000251   123000 116003                    CMPQ    42496,DU
         2 000252   000341 600000 2                  TZE     LPDWN
         2 000253   000001 236000 xsym               LDQ     ANSBUF+1
         2 000254   777000 376003                    ANQ     -512,DU
         2 000255   163000 116003                    CMPQ    58880,DU
         2 000256   000264 602000 2                  TNC     s:1431+17
         2 000257   000001 236000 xsym               LDQ     ANSBUF+1
         2 000260   777000 376003                    ANQ     -512,DU
         2 000261   163000 116003                    CMPQ    58880,DU
         2 000262   000341 600000 2                  TZE     LPDWN
         2 000263   000353 710000 2                  TRA     s:1451
         2 000264   000001 236000 xsym               LDQ     ANSBUF+1
         2 000265   777000 376003                    ANQ     -512,DU
         2 000266   147000 116003                    CMPQ    52736,DU
PL6.E3A0      #007=LPCU File=ISI$IOPROC.:E05TSI                                  TUE 07/29/97 22:52 Page:243
         2 000267   000353 601000 2                  TNZ     s:1451
         2 000270   000352 710000 2                  TRA     s:1449
         2 000271   000001 236000 xsym               LDQ     ANSBUF+1
         2 000272   777000 376003                    ANQ     -512,DU
         2 000273   066000 116003                    CMPQ    27648,DU
         2 000274   000306 602000 2                  TNC     s:1431+35
         2 000275   000001 236000 xsym               LDQ     ANSBUF+1
         2 000276   777000 376003                    ANQ     -512,DU
         2 000277   066000 116003                    CMPQ    27648,DU
         2 000300   000326 600000 2                  TZE     s:1438
         2 000301   000001 236000 xsym               LDQ     ANSBUF+1
         2 000302   777000 376003                    ANQ     -512,DU
         2 000303   107000 116003                    CMPQ    36352,DU
         2 000304   000353 601000 2                  TNZ     s:1451
         2 000305   000352 710000 2                  TRA     s:1449
         2 000306   000001 236000 xsym               LDQ     ANSBUF+1
         2 000307   777000 376003                    ANQ     -512,DU
         2 000310   065000 116003                    CMPQ    27136,DU
         2 000311   000353 601000 2                  TNZ     s:1451
         2 000312   000313 710000 2                  TRA     s:1433

     1185     1432    3             SELECT('5');

     1186     1433    3             CALL SET_TRAIN5(INDX) ALTRET(ERR_RET);

   1433  2 000313   200003 630500                    EPPR0   @INDX,,AUTO
         2 000314   000017 631400 xsym               EPPR1   B_VECTNIL+15
         2 000315   000000 701000 xent               TSX1    SET_TRAIN5
         2 000316   000350 702000 2                  TSX2    ERR_RET

     1187     1434    4             DO I=0 TO 30000;              /* Wait                               */

   1434  2 000317   200006 450100                    STZ     I,,AUTO

     1188     1435    4             END;                          /* DO I=                              */

   1435  2 000320   200006 235100                    LDA     I,,AUTO
PL6.E3A0      #007=LPCU File=ISI$IOPROC.:E05TSI                                  TUE 07/29/97 22:52 Page:244
         2 000321   000001 035007                    ADLA    1,DL
         2 000322   200006 755100                    STA     I,,AUTO
         2 000323   072461 115007                    CMPA    30001,DL
         2 000324   000320 602000 2                  TNC     s:1435

     1189     1436    3             GOTO RETRY;

   1436  2 000325   000373 710000 2                  TRA     RETRY

     1190     1437    3             SELECT('6');

     1191     1438    3             CALL SET_TRAIN6(INDX) ALTRET(ERR_RET);

   1438  2 000326   200003 630500                    EPPR0   @INDX,,AUTO
         2 000327   000017 631400 xsym               EPPR1   B_VECTNIL+15
         2 000330   000000 701000 xent               TSX1    SET_TRAIN6
         2 000331   000350 702000 2                  TSX2    ERR_RET

     1192     1439    4             DO I=0 TO 30000;              /* Wait                               */

   1439  2 000332   200006 450100                    STZ     I,,AUTO

     1193     1440    4             END;                          /* DO I=                              */

   1440  2 000333   200006 235100                    LDA     I,,AUTO
         2 000334   000001 035007                    ADLA    1,DL
         2 000335   200006 755100                    STA     I,,AUTO
         2 000336   072461 115007                    CMPA    30001,DL
         2 000337   000333 602000 2                  TNC     s:1440

     1194     1441    3             GOTO RETRY;

   1441  2 000340   000373 710000 2                  TRA     RETRY

     1195     1442    3             SELECT('S','s');

     1196     1443    3   LPDWN:
PL6.E3A0      #007=LPCU File=ISI$IOPROC.:E05TSI                                  TUE 07/29/97 22:52 Page:245
     1197     1444    3             DEVINFO.BITS(INDX)='1'B;

   1444  2 000341   200003 470500       LPDWN        LDP0    @INDX,,AUTO
         2 000342   000000 236100                    LDQ     0,,PR0
         2 000343   000006 402007                    MPY     6,DL
         2 000344   000001 736000                    QLS     1
         2 000345   000000 620006                    EAX0    0,QL
         2 000346   400000 236003                    LDQ     -131072,DU
         2 000347   000001 756010 xsym               STQ     DEVINFO+1,X0

     1198     1445    3   ERR_RET:
     1199     1446    3             RETR#=0;

   1446  2 000350   200005 450100       ERR_RET      STZ     RETR#,,AUTO

     1200     1447    3             ALTRETURN;

   1447  2 000351   000000 702200 xent               TSX2  ! X66_AALT

     1201     1448    3             SELECT('G','g');

     1202     1449    3             GOTO RETRY;

   1449  2 000352   000373 710000 2                  TRA     RETRY

     1203     1450    3             SELECT(ELSE);

     1204     1451    3           GOTO ASK;

   1451  2 000353   000237 710000 2                  TRA     ASK

     1205     1452    3           END;                            /* DO SELECT on answer                */

     1206     1453    2           END;                            /* DO SELECT on major status          */

     1207     1454    1   LPCUX:
     1208     1455    1           MESSAGE$=ADDR(LPHMX);
PL6.E3A0      #007=LPCU File=ISI$IOPROC.:E05TSI                                  TUE 07/29/97 22:52 Page:246

   1455  2 000354   000005 236000 3     LPCUX        LDQ     5
         2 000355   200004 756100                    STQ     MESSAGE$,,AUTO

     1209     1456    1           SUBSTR(TEXTM.TXT,1,8)=DEVINFO.DEVNAME(INDX);

   1456  2 000356   200004 471500                    LDP1    MESSAGE$,,AUTO
         2 000357   100000 720100                    LXL0    0,,PR1
         2 000360   000000 236100                    LDQ     0,,PR0
         2 000361   000006 402007                    MPY     6,DL
         2 000362   000003 736000                    QLS     3
         2 000363   040100 100406                    MLR     fill='040'O
         2 000364   000006 000010 xsym               ADSC9   DEVINFO+6,Q              cn=0,n=8
         2 000365   100001 200010                    ADSC9   1,,PR1                   cn=1,n=8

     1210     1457    1           CALL TYPEC(LPHMX);

   1457  2 000366   000005 630400 3                  EPPR0   5
         2 000367   000017 631400 xsym               EPPR1   B_VECTNIL+15
         2 000370   000000 701000 xent               TSX1    TYPEC
         2 000371   000000 011000                    NOP     0

     1211     1458    1           GOTO NORM_RET;                  /* Ignore it                          */

   1458  2 000372   000015 710000 2                  TRA     NORM_RET

     1212     1459    1   RETRY:
     1213     1460    1           RETR#=0;

   1460  2 000373   200005 450100       RETRY        STZ     RETR#,,AUTO

     1214     1461    1   NRETRY:
     1215     1462    1           RETRY_FLG='1'B;

   1462  2 000374   400000 236003       NRETRY       LDQ     -131072,DU
         2 000375   000000 756000 xsym               STQ     RETRY_FLG

PL6.E3A0      #007=LPCU File=ISI$IOPROC.:E05TSI                                  TUE 07/29/97 22:52 Page:247
     1216     1463    1           ALTRETURN;

   1463  2 000376   000000 702200 xent               TSX2  ! X66_AALT
     1217     1464    1   END LPCU;
     1218     1465        %EOD;

PL6.E3A0      #007=LPCU File=ISI$IOPROC.:E05TSI                                  TUE 07/29/97 22:52 Page:248
--  Include file information  --

   IS$MACROS.:E05TOU  is referenced.
      No diagnostics issued in procedure LPCU.
PL6.E3A0      #007=LPCU File=ISI$IOPROC.:E05TSI                                  TUE 07/29/97 22:52 Page:249

 **** Variables and constants ****

  ****  Section 000  Data  LPCU

  ****  Scalars and arrays  ****
OctLoc.c.b A Datatyp(siz) R M Lvl/name                 OctLoc.c.b A Datatyp(siz) R M Lvl/name

     0-0-0/w STRC(378)   r     1 LPHMX                     13-0-0/w STRC(198)   r     1 LPHMY

  ****  Auto variables  ****

  ****  Scalars and arrays  ****
OctLoc.c.b A Datatyp(siz) R M Lvl/name                 OctLoc.c.b A Datatyp(siz) R M Lvl/name

     3-0-0/w PTR         r     1 @INDX                      6-0-0/w UBIN        r     1 I
    *0-0-0/w UBIN        r     1 INDX                       4-0-0/w PTR         r     1 MESSAGE$
     5-0-0/w UBIN(9)     r     1 RETR#

  ****  SYMREF variables  ****

  ****  Scalars and arrays  ****
OctLoc.c.b A Datatyp(siz) R M Lvl/name                 OctLoc.c.b A Datatyp(siz) R M Lvl/name

     0-0-0/w STRC(180)   r     1 ANSBUF                     0-0-0/d STRC(396)   r     1 DEVINFO(0:21)
     0-0-0/b BIT         r     1 LPHM                       0-0-0/b BIT         r     1 LPSTAT(0:3)
     0-0-0/b BIT         r     1 RETRY_FLG

  ****  BASED and DCB variables  ****

  ****  Scalars and arrays  ****
OctLoc.c.b A Datatyp(siz) R M Lvl/name                 OctLoc.c.b A Datatyp(siz) R M Lvl/name

     0-0-0/w ASTR        r     1 TEXTM


   Procedure LPCU requires 255 words for executable code.
PL6.E3A0      #007=LPCU File=ISI$IOPROC.:E05TSI                                  TUE 07/29/97 22:52 Page:250
   Procedure LPCU requires 10 words of local(AUTO) storage.
PL6.E3A0      #007=LPCU File=ISI$IOPROC.:E05TSI                                  TUE 07/29/97 22:52 Page:251
          *** CROSS REFERENCE LISTING ***
**     DENOTES     IDENTIFIER DEFINITION
<<                 IDENTIFIER'S VALUE SET
>>                 IDENTIFIER'S VALUE USED
<>                 IDENTIFIER SET AND/OR USED
--                 IDENTIFIER REFERENCED
PL6.E3A0      #007=LPCU File=ISI$IOPROC.:E05TSI                                  TUE 07/29/97 22:52 Page:252
          MINI XREF LISTING

ANALZ_STAT
      1392**LABEL    1382--GOTO
ANSBUF
      1372**DCL      1430<>CALL
ANSBUF.TXT
      1374**DCL      1431>>DOSELCT
ASK
      1430**LABEL    1451--GOTO
DEVINFO.BITS
      1298**DCL      1444<<ASSIGN
DEVINFO.BSTAT.W1
      1336**DCL      1382>>IF
DEVINFO.DEVNAME
      1342**DCL      1423>>ASSIGN   1428>>ASSIGN   1456>>ASSIGN
DEVINFO.PCWS
      1299**DCL      1310--REDEF
DEVINFO.RPM_PTRS.EF_DCWS$
      1312**DCL      1313--REDEF
DEVINFO.STATUS
      1316**DCL      1335--REDEF    1425<>CALL
DEVINFO.STATUS.MAJ_STAT
      1319**DCL      1392>>DOSELCT
DEVINFO.STATUS.SUB_STAT
      1320**DCL      1394>>DOSELCT  1414>>DOSELCT
ERR_RET
      1446**LABEL    1398--CALLALT  1404--GOTO     1411--GOTO     1433--CALLALT  1438--CALLALT
I
      1368**DCL      1399<<DOINDEX  1434<<DOINDEX  1439<<DOINDEX
INDX
      1282**DCL         6--PROC     1382>>IF       1392>>DOSELCT  1394>>DOSELCT  1398<>CALL     1414>>DOSELCT
      1423>>ASSIGN   1425>>CALL     1428>>ASSIGN   1433<>CALL     1438<>CALL     1444>>ASSIGN   1456>>ASSIGN
KEYIN
PL6.E3A0      #007=LPCU File=ISI$IOPROC.:E05TSI                                  TUE 07/29/97 22:52 Page:253
      1380**DCL-ENT  1430--CALL
LPCU2
      1422**LABEL    1418--GOTO
LPCUX
      1455**LABEL    1390--GOTO
LPHM
      1362**DCL      1427--ASSIGN   1430<>CALL
LPHMX
      1353**DCL      1455--ASSIGN   1457<>CALL
LPHMY
      1358**DCL      1422--ASSIGN   1424<>CALL
LPINIT
      1375**DCL-ENT  1398--CALL
LPSTAT
      1371**DCL      1385>>IF
MESSAGE$
      1363**DCL      1364--IMP-PTR  1422<<ASSIGN   1423>>ASSIGN   1423>>ASSIGN   1427<<ASSIGN   1428>>ASSIGN
      1428>>ASSIGN   1455<<ASSIGN   1456>>ASSIGN   1456>>ASSIGN
NORM_RET
      1387**LABEL    1406--GOTO     1458--GOTO
NRETRY
      1462**LABEL    1403--GOTO     1410--GOTO
RETR#
      1367**DCL      1387<<ASSIGN   1402<<ASSIGN   1402>>ASSIGN   1403>>IF       1409<<ASSIGN   1409>>ASSIGN
      1410>>IF       1446<<ASSIGN   1460<<ASSIGN
RETR4
      1409**LABEL    1416--GOTO
RETRY
      1460**LABEL    1396--GOTO     1436--GOTO     1441--GOTO     1449--GOTO
RETRY_FLG
      1370**DCL      1462<<ASSIGN
SET_TRAIN5
      1376**DCL-ENT  1433--CALL
SET_TRAIN6
      1377**DCL-ENT  1438--CALL
TEXTM.CNT
PL6.E3A0      #007=LPCU File=ISI$IOPROC.:E05TSI                                  TUE 07/29/97 22:52 Page:254
      1365**DCL      1366--IMP-SIZ  1423>>ASSIGN   1428>>ASSIGN   1456>>ASSIGN
TEXTM.TXT
      1366**DCL      1423<<ASSIGN   1428<<ASSIGN   1456<<ASSIGN
TYPEC
      1378**DCL-ENT  1424--CALL     1457--CALL
TYPEST
      1379**DCL-ENT  1425--CALL

PL6.E3A0      #008=MTIO File=ISI$IOPROC.:E05TSI                                  TUE 07/29/97 22:52 Page:255
     1219        1        /*T***********************************************************/
     1220        2        /*T*                                                         */
     1221        3        /*T* Copyright (c) Bull HN Information Systems Inc., 1997    */
     1222        4        /*T*                                                         */
     1223        5        /*T***********************************************************/
     1224        6        MTIO:   PROC;
     1225        7    1   DCL INDX UBIN WORD;
     1226        8    1   DCL CODE UBIN WORD;
     1227        9    1   DCL PSI_FLG BIT(1) SYMREF;
     1228       10        /**/
     1229       11    1           PSI_FLG='1'B;                   /* Set PSI interface                  */
     1230       12    1           RETURN;
     1231       13    1   END MTIO;
     1232       14        %EOD;

PL6.E3A0      #008=MTIO File=ISI$IOPROC.:E05TSI                                  TUE 07/29/97 22:52 Page:256
      No diagnostics issued in procedure MTIO.

   Procedure MTIO requires 5 words for executable code.
   Procedure MTIO requires 6 words of local(AUTO) storage.

PL6.E3A0      #008=MTIO File=ISI$IOPROC.:E05TSI                                  TUE 07/29/97 22:52 Page:257

 Object Unit name= MTIO                                       File name= ISI$IOPROC.:E05TOU
 UTS= JUL 29 '97 22:52:55.40 TUE                              Compiler= PL-6/E31         Sev=      00
 SharedLib= :SHARED_SYSTEM                                    Alt SharedLib=


    ****  Control sections  ****

 Sect   Type Bound  Init  Size OctSiz  Section name(segment info)
    0   Proc  even  none     5      5  MTIO

    ****  Entry defs  ****

                              Check   Calling
                             calling  sequence
  Sect OctLoc Primary Altret sequence   type   Parms  Name
     0      0   yes            yes      Std        0  MTIO

  ****  Entry refs  ****

         Check        Calling
        calling       sequence
Altret sequence SRef   type   Args  Name
                       nStd      0 X66_AUTO_0
                       nStd      0 X66_ARET

  ****  Data refs  ****

  Flags:  r = read only, s = secondary
Flgs Name                             Flgs Name                             Flgs Name
     PSI_FLG
PL6.E3A0      #008=MTIO File=ISI$IOPROC.:E05TSI                                  TUE 07/29/97 22:52 Page:258


     1219        1        /*T***********************************************************/
     1220        2        /*T*                                                         */
     1221        3        /*T* Copyright (c) Bull HN Information Systems Inc., 1997    */
     1222        4        /*T*                                                         */
     1223        5        /*T***********************************************************/
     1224        6        MTIO:   PROC;

      6  0 000000   000000 700200 xent  MTIO         TSX0  ! X66_AUTO_0
         0 000001   000006 000000                    ZERO    6,0

     1225        7    1   DCL INDX UBIN WORD;
     1226        8    1   DCL CODE UBIN WORD;
     1227        9    1   DCL PSI_FLG BIT(1) SYMREF;
     1228       10        /**/
     1229       11    1           PSI_FLG='1'B;                   /* Set PSI interface                  */

     11  0 000002   400000 236003                    LDQ     -131072,DU
         0 000003   000000 756000 xsym               STQ     PSI_FLG

     1230       12    1           RETURN;

     12  0 000004   000000 702200 xent               TSX2  ! X66_ARET
     1231       13    1   END MTIO;
     1232       14        %EOD;

PL6.E3A0      #008=MTIO File=ISI$IOPROC.:E05TSI                                  TUE 07/29/97 22:52 Page:259
      No diagnostics issued in procedure MTIO.
PL6.E3A0      #008=MTIO File=ISI$IOPROC.:E05TSI                                  TUE 07/29/97 22:52 Page:260

 **** Variables and constants ****

  ****  SYMREF variables  ****

  ****  Scalars and arrays  ****
OctLoc.c.b A Datatyp(siz) R M Lvl/name                 OctLoc.c.b A Datatyp(siz) R M Lvl/name

     0-0-0/b BIT         r     1 PSI_FLG


   Procedure MTIO requires 5 words for executable code.
   Procedure MTIO requires 6 words of local(AUTO) storage.
PL6.E3A0      #008=MTIO File=ISI$IOPROC.:E05TSI                                  TUE 07/29/97 22:52 Page:261
          *** CROSS REFERENCE LISTING ***
**     DENOTES     IDENTIFIER DEFINITION
<<                 IDENTIFIER'S VALUE SET
>>                 IDENTIFIER'S VALUE USED
<>                 IDENTIFIER SET AND/OR USED
--                 IDENTIFIER REFERENCED
PL6.E3A0      #008=MTIO File=ISI$IOPROC.:E05TSI                                  TUE 07/29/97 22:52 Page:262
          MINI XREF LISTING

PSI_FLG
         9**DCL        11<<ASSIGN

PL6.E3A0      #009=MTCU File=ISI$IOPROC.:E05TSI                                  TUE 07/29/97 22:52 Page:263
     1233        1        /*T***********************************************************/
     1234        2        /*T*                                                         */
     1235        3        /*T* Copyright (c) Bull HN Information Systems Inc., 1997    */
     1236        4        /*T*                                                         */
     1237        5        /*T***********************************************************/
     1238        6        MTCU:   PROC(INDX,CODE) ALTRET;
     1239        7        %INCLUDE IS$MACROS;
     1240     1282    1   DCL INDX UBIN WORD;
     1241     1283    1   DCL CODE UBIN WORD;
     1242     1284    1   DCL RETRY_FLG BIT(1) SYMREF;
     1243     1285        %DEVINFO(STCLASS="SYMREF");
     1244     1354        %TEXTC(N#=MTM,M#="' Error on tape drive X-XXX-XX.'");
     1245     1359    1   DCL MESSAGE$ PTR;
     1246     1360    1   DCL 1 TEXTM BASED(MESSAGE$),
     1247     1361    1         2 CNT UBIN WORD,
     1248     1362    1         2 TXT CHAR(TEXTM.CNT);
     1249     1363        /**/
     1250     1364    1   DCL TYPEC ENTRY(1);
     1251     1365    1   DCL TYPEST ENTRY(1);
     1252     1366        /**/
     1253     1367    1           IF (DEVINFO.BSTAT.W1(INDX)&'770005777'O)='4'O OR
     1254     1368    1             (DEVINFO.BSTAT.W1(INDX)&'770005777'O)='44'O THEN RETURN;
              1368                      /*Ready status or EOF */
     1255     1369    1             ELSE;
     1256     1370    1           IF (DEVINFO.BSTAT.W1(INDX)&'770005777'O)='41'O THEN GOTO RETRY;
              1370                    /* Busy,probably rewinding */
     1257     1371    1             ELSE;
     1258     1372    1           IF(CODE=%FCNUNL OR CODE=%FCNSDT8 OR CODE=%FCNSDT16 OR CODE = %FCNSDT62)THEN
              1372                    ALTRETURN; /* Unload or set density code */
     1259     1373    1             ELSE;
     1260     1374        /* Build message */
     1261     1375    2           IF (DEVINFO.BSTAT.W1(INDX) & '777700'O) ~= '5210'O THEN DO;
     1262     1376    2                 MESSAGE$=ADDR(MTM);
     1263     1377    2                 SUBSTR(TEXTM.TXT,21,8)=DEVINFO.DEVNAME(INDX);
     1264     1378    2                 CALL TYPEC(MTM);
     1265     1379    2                 CALL TYPEST(DEVINFO.STATUS(INDX));
     1266     1380    2               END;
PL6.E3A0      #009=MTCU File=ISI$IOPROC.:E05TSI                                  TUE 07/29/97 22:52 Page:264
     1267     1381    1           ALTRETURN;
     1268     1382    1   RETRY:
     1269     1383    1           RETRY_FLG='1'B;
     1270     1384    1           ALTRETURN;
     1271     1385    1   END MTCU;
     1272     1386        %EOD;

PL6.E3A0      #009=MTCU File=ISI$IOPROC.:E05TSI                                  TUE 07/29/97 22:52 Page:265
--  Include file information  --

   IS$MACROS.:E05TOU  is referenced.
      No diagnostics issued in procedure MTCU.

   Procedure MTCU requires 74 words for executable code.
   Procedure MTCU requires 8 words of local(AUTO) storage.

PL6.E3A0      #009=MTCU File=ISI$IOPROC.:E05TSI                                  TUE 07/29/97 22:52 Page:266

 Object Unit name= MTCU                                       File name= ISI$IOPROC.:E05TOU
 UTS= JUL 29 '97 22:52:56.56 TUE                              Compiler= PL-6/E31         Sev=      00
 SharedLib= :SHARED_SYSTEM                                    Alt SharedLib=


    ****  Control sections  ****

 Sect   Type Bound  Init  Size OctSiz  Section name(segment info)
    0   Data  even  none     9     11  MTCU
    1  RoData even  UTS      1      1  MTCU
    2   Proc  even  none    74    112  MTCU
    3  RoData even  none     2      2  MTCU

    ****  Entry defs  ****

                              Check   Calling
                             calling  sequence
  Sect OctLoc Primary Altret sequence   type   Parms  Name
     2      0   yes    yes     yes      Std        2  MTCU

  ****  Data defs  ****

 Sect OctLoc  Name                           Sect OctLoc  Name
    0      0  MTM

  ****  Entry refs  ****

         Check        Calling
        calling       sequence
Altret sequence SRef   type   Args  Name
         yes           Std       1 TYPEC
         yes           Std       1 TYPEST
                       nStd      0 X66_AUTO_2
                       nStd      0 X66_ARET
                       nStd      0 X66_AALT
                       Std       0 B_CONSPOOL_D
PL6.E3A0      #009=MTCU File=ISI$IOPROC.:E05TSI                                  TUE 07/29/97 22:52 Page:267

  ****  Data refs  ****

  Flags:  r = read only, s = secondary
Flgs Name                             Flgs Name                             Flgs Name
     RETRY_FLG                             DEVINFO                               B_VECTNIL

  ****  Segment refs  ****

  Flags:  r = read only, s = secondary
Flgs Name                             Flgs Name                             Flgs Name
     ISSID
PL6.E3A0      #009=MTCU File=ISI$IOPROC.:E05TSI                                  TUE 07/29/97 22:52 Page:268


     1233        1        /*T***********************************************************/
     1234        2        /*T*                                                         */
     1235        3        /*T* Copyright (c) Bull HN Information Systems Inc., 1997    */
     1236        4        /*T*                                                         */
     1237        5        /*T***********************************************************/
     1238        6        MTCU:   PROC(INDX,CODE) ALTRET;

      6  2 000000   000000 700200 xent  MTCU         TSX0  ! X66_AUTO_2
         2 000001   000010 000002                    ZERO    8,2

     1239        7        %INCLUDE IS$MACROS;
     1240     1282    1   DCL INDX UBIN WORD;
     1241     1283    1   DCL CODE UBIN WORD;
     1242     1284    1   DCL RETRY_FLG BIT(1) SYMREF;
     1243     1285        %DEVINFO(STCLASS="SYMREF");
     1244     1354        %TEXTC(N#=MTM,M#="' Error on tape drive X-XXX-XX.'");
     1245     1359    1   DCL MESSAGE$ PTR;
     1246     1360    1   DCL 1 TEXTM BASED(MESSAGE$),
     1247     1361    1         2 CNT UBIN WORD,
     1248     1362    1         2 TXT CHAR(TEXTM.CNT);
     1249     1363        /**/
     1250     1364    1   DCL TYPEC ENTRY(1);
     1251     1365    1   DCL TYPEST ENTRY(1);
     1252     1366        /**/
     1253     1367    1           IF (DEVINFO.BSTAT.W1(INDX)&'770005777'O)='4'O OR

   1367  2 000002   200003 470500                    LDP0    @INDX,,AUTO
         2 000003   000000 236100                    LDQ     0,,PR0
         2 000004   000006 402007                    MPY     6,DL
         2 000005   000001 736000                    QLS     1
         2 000006   000000 620006                    EAX0    0,QL
         2 000007   000000 236000 1                  LDQ     0
         2 000010   000004 376010 xsym               ANQ     DEVINFO+4,X0
         2 000011   400000 116003                    CMPQ    -131072,DU
         2 000012   000023 600000 2                  TZE     s:1368
         2 000013   000000 236100                    LDQ     0,,PR0
PL6.E3A0      #009=MTCU File=ISI$IOPROC.:E05TSI                                  TUE 07/29/97 22:52 Page:269
         2 000014   000006 402007                    MPY     6,DL
         2 000015   000001 736000                    QLS     1
         2 000016   000000 620006                    EAX0    0,QL
         2 000017   000000 236000 1                  LDQ     0
         2 000020   000004 376010 xsym               ANQ     DEVINFO+4,X0
         2 000021   440000 116003                    CMPQ    -114688,DU
         2 000022   000024 601000 2                  TNZ     s:1370

     1254     1368    1             (DEVINFO.BSTAT.W1(INDX)&'770005777'O)='44'O THEN RETURN;
              1368                      /*Ready status or EOF */

   1368  2 000023   000000 702200 xent               TSX2  ! X66_ARET

     1255     1369    1             ELSE;
     1256     1370    1           IF (DEVINFO.BSTAT.W1(INDX)&'770005777'O)='41'O THEN GOTO RETRY;
              1370                    /* Busy,probably rewinding */

   1370  2 000024   000000 236100                    LDQ     0,,PR0
         2 000025   000006 402007                    MPY     6,DL
         2 000026   000001 736000                    QLS     1
         2 000027   000000 620006                    EAX0    0,QL
         2 000030   000000 236000 1                  LDQ     0
         2 000031   000004 376010 xsym               ANQ     DEVINFO+4,X0
         2 000032   410000 116003                    CMPQ    -126976,DU
         2 000033   000107 600000 2                  TZE     RETRY

     1257     1371    1             ELSE;
     1258     1372    1           IF(CODE=%FCNUNL OR CODE=%FCNSDT8 OR CODE=%FCNSDT16 OR CODE = %FCNSDT62)THEN
              1372                    ALTRETURN; /* Unload or set density code */

   1372  2 000034   200004 471500                    LDP1    @CODE,,AUTO
         2 000035   100000 235100                    LDA     0,,PR1
         2 000036   000011 115007                    CMPA    9,DL
         2 000037   000046 600000 2                  TZE     s:1372+10
         2 000040   000006 115007                    CMPA    6,DL
         2 000041   000046 600000 2                  TZE     s:1372+10
         2 000042   000007 115007                    CMPA    7,DL
PL6.E3A0      #009=MTCU File=ISI$IOPROC.:E05TSI                                  TUE 07/29/97 22:52 Page:270
         2 000043   000046 600000 2                  TZE     s:1372+10
         2 000044   000017 115007                    CMPA    15,DL
         2 000045   000047 601000 2                  TNZ     s:1375

   1372  2 000046   000000 702200 xent               TSX2  ! X66_AALT

     1259     1373    1             ELSE;
     1260     1374        /* Build message */
     1261     1375    2           IF (DEVINFO.BSTAT.W1(INDX) & '777700'O) ~= '5210'O THEN DO;

   1375  2 000047   000000 236100                    LDQ     0,,PR0
         2 000050   000006 402007                    MPY     6,DL
         2 000051   000001 736000                    QLS     1
         2 000052   000004 236006 xsym               LDQ     DEVINFO+4,QL
         2 000053   777700 376003                    ANQ     -64,DU
         2 000054   521000 116003                    CMPQ    -89600,DU
         2 000055   000106 600000 2                  TZE     s:1381

     1262     1376    2                 MESSAGE$=ADDR(MTM);

   1376  2 000056   000000 236000 3                  LDQ     0
         2 000057   200005 756100                    STQ     MESSAGE$,,AUTO

     1263     1377    2                 SUBSTR(TEXTM.TXT,21,8)=DEVINFO.DEVNAME(INDX);

   1377  2 000060   200005 473500                    LDP3    MESSAGE$,,AUTO
         2 000061   300000 720100                    LXL0    0,,PR3
         2 000062   000000 236100                    LDQ     0,,PR0
         2 000063   000006 402007                    MPY     6,DL
         2 000064   000003 736000                    QLS     3
         2 000065   040100 100406                    MLR     fill='040'O
         2 000066   000006 000010 xsym               ADSC9   DEVINFO+6,Q              cn=0,n=8
         2 000067   300006 200010                    ADSC9   6,,PR3                   cn=1,n=8

     1264     1378    2                 CALL TYPEC(MTM);

   1378  2 000070   000000 630400 3                  EPPR0   0
PL6.E3A0      #009=MTCU File=ISI$IOPROC.:E05TSI                                  TUE 07/29/97 22:52 Page:271
         2 000071   000017 631400 xsym               EPPR1   B_VECTNIL+15
         2 000072   000000 701000 xent               TSX1    TYPEC
         2 000073   000000 011000                    NOP     0

     1265     1379    2                 CALL TYPEST(DEVINFO.STATUS(INDX));

   1379  2 000074   200003 470500                    LDP0    @INDX,,AUTO
         2 000075   000000 236100                    LDQ     0,,PR0
         2 000076   000006 402007                    MPY     6,DL
         2 000077   000023 736000                    QLS     19
         2 000100   000001 036000 3                  ADLQ    1
         2 000101   200006 756100                    STQ     MESSAGE$+1,,AUTO
         2 000102   200006 630500                    EPPR0   MESSAGE$+1,,AUTO
         2 000103   000017 631400 xsym               EPPR1   B_VECTNIL+15
         2 000104   000000 701000 xent               TSX1    TYPEST
         2 000105   000000 011000                    NOP     0

     1266     1380    2               END;

     1267     1381    1           ALTRETURN;

   1381  2 000106   000000 702200 xent               TSX2  ! X66_AALT

     1268     1382    1   RETRY:
     1269     1383    1           RETRY_FLG='1'B;

   1383  2 000107   400000 236003       RETRY        LDQ     -131072,DU
         2 000110   000000 756000 xsym               STQ     RETRY_FLG

     1270     1384    1           ALTRETURN;

   1384  2 000111   000000 702200 xent               TSX2  ! X66_AALT
     1271     1385    1   END MTCU;
     1272     1386        %EOD;

PL6.E3A0      #009=MTCU File=ISI$IOPROC.:E05TSI                                  TUE 07/29/97 22:52 Page:272
--  Include file information  --

   IS$MACROS.:E05TOU  is referenced.
      No diagnostics issued in procedure MTCU.
PL6.E3A0      #009=MTCU File=ISI$IOPROC.:E05TSI                                  TUE 07/29/97 22:52 Page:273

 **** Variables and constants ****

  ****  Section 000  Data  MTCU

  ****  Scalars and arrays  ****
OctLoc.c.b A Datatyp(siz) R M Lvl/name                 OctLoc.c.b A Datatyp(siz) R M Lvl/name

     0-0-0/w STRC(306)   r     1 MTM

  ****  Auto variables  ****

  ****  Scalars and arrays  ****
OctLoc.c.b A Datatyp(siz) R M Lvl/name                 OctLoc.c.b A Datatyp(siz) R M Lvl/name

     4-0-0/w PTR         r     1 @CODE                      3-0-0/w PTR         r     1 @INDX
    *0-0-0/w UBIN        r     1 CODE                      *0-0-0/w UBIN        r     1 INDX
     5-0-0/w PTR         r     1 MESSAGE$

  ****  SYMREF variables  ****

  ****  Scalars and arrays  ****
OctLoc.c.b A Datatyp(siz) R M Lvl/name                 OctLoc.c.b A Datatyp(siz) R M Lvl/name

     0-0-0/d STRC(396)   r     1 DEVINFO(0:21)              0-0-0/b BIT         r     1 RETRY_FLG

  ****  BASED and DCB variables  ****

  ****  Scalars and arrays  ****
OctLoc.c.b A Datatyp(siz) R M Lvl/name                 OctLoc.c.b A Datatyp(siz) R M Lvl/name

     0-0-0/w ASTR        r     1 TEXTM


   Procedure MTCU requires 74 words for executable code.
   Procedure MTCU requires 8 words of local(AUTO) storage.
PL6.E3A0      #009=MTCU File=ISI$IOPROC.:E05TSI                                  TUE 07/29/97 22:52 Page:274
          *** CROSS REFERENCE LISTING ***
**     DENOTES     IDENTIFIER DEFINITION
<<                 IDENTIFIER'S VALUE SET
>>                 IDENTIFIER'S VALUE USED
<>                 IDENTIFIER SET AND/OR USED
--                 IDENTIFIER REFERENCED
PL6.E3A0      #009=MTCU File=ISI$IOPROC.:E05TSI                                  TUE 07/29/97 22:52 Page:275
          MINI XREF LISTING

CODE
      1283**DCL         6--PROC     1372>>IF       1372>>IF       1372>>IF       1372>>IF
DEVINFO.BSTAT.W1
      1338**DCL      1367>>IF       1367>>IF       1370>>IF       1375>>IF
DEVINFO.DEVNAME
      1344**DCL      1377>>ASSIGN
DEVINFO.PCWS
      1301**DCL      1312--REDEF
DEVINFO.RPM_PTRS.EF_DCWS$
      1314**DCL      1315--REDEF
DEVINFO.STATUS
      1318**DCL      1337--REDEF    1379<>CALL
INDX
      1282**DCL         6--PROC     1367>>IF       1367>>IF       1370>>IF       1375>>IF       1377>>ASSIGN
      1379>>CALL
MESSAGE$
      1359**DCL      1360--IMP-PTR  1376<<ASSIGN   1377>>ASSIGN   1377>>ASSIGN
MTM
      1355**DCL      1376--ASSIGN   1378<>CALL
RETRY
      1383**LABEL    1370--GOTO
RETRY_FLG
      1284**DCL      1383<<ASSIGN
TEXTM.CNT
      1361**DCL      1362--IMP-SIZ  1377>>ASSIGN
TEXTM.TXT
      1362**DCL      1377<<ASSIGN
TYPEC
      1364**DCL-ENT  1378--CALL
TYPEST
      1365**DCL-ENT  1379--CALL

PL6.E3A0      #010=DPIO File=ISI$IOPROC.:E05TSI                                  TUE 07/29/97 22:53 Page:276
     1273        1        /*T***********************************************************/
     1274        2        /*T*                                                         */
     1275        3        /*T* Copyright (c) Bull HN Information Systems Inc., 1997    */
     1276        4        /*T*                                                         */
     1277        5        /*T***********************************************************/
     1278        6        DPIO:   PROC(INDX,CODE,GRAN#);
     1279        7        %INCLUDE IS$MACROS;
     1280     1282    1   DCL INDX UBIN WORD;
     1281     1283    1   DCL CODE UBIN WORD;
     1282     1284    1   DCL GRAN# UBIN WORD;
     1283     1285    1   DCL PSI_FLG BIT(1) SYMREF;
     1284     1286    1   DCL DISK_FLG BIT(1) STATIC SYMDEF INIT('0'B);
     1285     1287    1   DCL SKIDCW BIT(36) ALIGNED STATIC SYMDEF INIT('34000002'O);
              1287            /* Seek IDCW with continue */
     1286     1288    1   DCL SKADD$ PTR STATIC INIT(ADDR(SKADD));
     1287     1289        %PTR_STRUCT(NAME=SKADD_PTR,STCLASS="REDEF SKADD$");
     1288     1307        %DCW_STRUCT(NAME=SKDCW);
     1289     1325    1   DCL SKADD UBIN WORD STATIC INIT(0);     /* Seek address                       */
     1290     1326    1   DCL NSPG(0:%(DIM-FRSTDP-1)) UBIN(18) SYMREF; /* Nr of sectors/granule         */
     1291     1327    1   DCL TYPEC ENTRY(1);
     1292     1328        /**/
     1293     1329    1           SKDCW.AD=SKADD_PTR.WOFFS;       /* Build seek DCW                     */
     1294     1330    1           SKDCW.TALLY=1;
     1295     1331    1           SKADD=GRAN#*NSPG(INDX-%FRSTDP); /* Seek address                       */
     1296     1332    1           DISK_FLG='1'B;
     1297     1333    1           PSI_FLG='1'B;
     1298     1334    1           RETURN;
     1299     1335    1   END DPIO;
     1300     1336        %EOD;

PL6.E3A0      #010=DPIO File=ISI$IOPROC.:E05TSI                                  TUE 07/29/97 22:53 Page:277
--  Include file information  --

   IS$MACROS.:E05TOU  is referenced.
      No diagnostics issued in procedure DPIO.

   Procedure DPIO requires 17 words for executable code.
   Procedure DPIO requires 6 words of local(AUTO) storage.

PL6.E3A0      #010=DPIO File=ISI$IOPROC.:E05TSI                                  TUE 07/29/97 22:53 Page:278

 Object Unit name= DPIO                                       File name= ISI$IOPROC.:E05TOU
 UTS= JUL 29 '97 22:53:00.08 TUE                              Compiler= PL-6/E31         Sev=      00
 SharedLib= :SHARED_SYSTEM                                    Alt SharedLib=


    ****  Control sections  ****

 Sect   Type Bound  Init  Size OctSiz  Section name(segment info)
    0   Data  even  none     5      5  DPIO
    1   Proc  even  none    17     21  DPIO

    ****  Entry defs  ****

                              Check   Calling
                             calling  sequence
  Sect OctLoc Primary Altret sequence   type   Parms  Name
     1      0   yes            yes      Std        3  DPIO

  ****  Data defs  ****

 Sect OctLoc  Name                           Sect OctLoc  Name
    0      0  DISK_FLG                           0      1  SKIDCW
    0      3  SKDCW

  ****  Entry refs  ****

         Check        Calling
        calling       sequence
Altret sequence SRef   type   Args  Name
                       nStd      0 X66_AUTO_3
                       nStd      0 X66_ARET
PL6.E3A0      #010=DPIO File=ISI$IOPROC.:E05TSI                                  TUE 07/29/97 22:53 Page:279

  ****  Data refs  ****

  Flags:  r = read only, s = secondary
Flgs Name                             Flgs Name                             Flgs Name
     PSI_FLG                               NSPG

  ****  Segment refs  ****

  Flags:  r = read only, s = secondary
Flgs Name                             Flgs Name                             Flgs Name
     ISSID
PL6.E3A0      #010=DPIO File=ISI$IOPROC.:E05TSI                                  TUE 07/29/97 22:53 Page:280


     1273        1        /*T***********************************************************/
     1274        2        /*T*                                                         */
     1275        3        /*T* Copyright (c) Bull HN Information Systems Inc., 1997    */
     1276        4        /*T*                                                         */
     1277        5        /*T***********************************************************/
     1278        6        DPIO:   PROC(INDX,CODE,GRAN#);

      6  1 000000   000000 700200 xent  DPIO         TSX0  ! X66_AUTO_3
         1 000001   000006 000003                    ZERO    6,3

     1279        7        %INCLUDE IS$MACROS;
     1280     1282    1   DCL INDX UBIN WORD;
     1281     1283    1   DCL CODE UBIN WORD;
     1282     1284    1   DCL GRAN# UBIN WORD;
     1283     1285    1   DCL PSI_FLG BIT(1) SYMREF;
     1284     1286    1   DCL DISK_FLG BIT(1) STATIC SYMDEF INIT('0'B);
     1285     1287    1   DCL SKIDCW BIT(36) ALIGNED STATIC SYMDEF INIT('34000002'O);
              1287            /* Seek IDCW with continue */
     1286     1288    1   DCL SKADD$ PTR STATIC INIT(ADDR(SKADD));
     1287     1289        %PTR_STRUCT(NAME=SKADD_PTR,STCLASS="REDEF SKADD$");
     1288     1307        %DCW_STRUCT(NAME=SKDCW);
     1289     1325    1   DCL SKADD UBIN WORD STATIC INIT(0);     /* Seek address                       */
     1290     1326    1   DCL NSPG(0:%(DIM-FRSTDP-1)) UBIN(18) SYMREF; /* Nr of sectors/granule         */
     1291     1327    1   DCL TYPEC ENTRY(1);
     1292     1328        /**/
     1293     1329    1           SKDCW.AD=SKADD_PTR.WOFFS;       /* Build seek DCW                     */

   1329  1 000002   000002 220000 0                  LDX0    SKADD$
         1 000003   000003 740000 0                  STX0    SKDCW

     1294     1330    1           SKDCW.TALLY=1;

   1330  1 000004   000001 236007                    LDQ     1,DL
         1 000005   000003 752003 0                  STCQ    SKDCW,'03'O

     1295     1331    1           SKADD=GRAN#*NSPG(INDX-%FRSTDP); /* Seek address                       */
PL6.E3A0      #010=DPIO File=ISI$IOPROC.:E05TSI                                  TUE 07/29/97 22:53 Page:281

   1331  1 000006   200003 470500                    LDP0    @INDX,,AUTO
         1 000007   000000 721100                    LXL1    0,,PR0
         1 000010   200005 471500                    LDP1    @GRAN#,,AUTO
         1 000011   777754 236011 xsym               LDQ     NSPG-20,X1
         1 000012   000022 772000                    QRL     18
         1 000013   100000 402100                    MPY     0,,PR1
         1 000014   000004 756000 0                  STQ     SKADD

     1296     1332    1           DISK_FLG='1'B;

   1332  1 000015   400000 236003                    LDQ     -131072,DU
         1 000016   000000 756000 0                  STQ     DISK_FLG

     1297     1333    1           PSI_FLG='1'B;

   1333  1 000017   000000 756000 xsym               STQ     PSI_FLG

     1298     1334    1           RETURN;

   1334  1 000020   000000 702200 xent               TSX2  ! X66_ARET
     1299     1335    1   END DPIO;
     1300     1336        %EOD;

PL6.E3A0      #010=DPIO File=ISI$IOPROC.:E05TSI                                  TUE 07/29/97 22:53 Page:282
--  Include file information  --

   IS$MACROS.:E05TOU  is referenced.
      No diagnostics issued in procedure DPIO.
PL6.E3A0      #010=DPIO File=ISI$IOPROC.:E05TSI                                  TUE 07/29/97 22:53 Page:283

 **** Variables and constants ****

  ****  Section 000  Data  DPIO

  ****  Scalars and arrays  ****
OctLoc.c.b A Datatyp(siz) R M Lvl/name                 OctLoc.c.b A Datatyp(siz) R M Lvl/name

     0-0-0/b BIT         r     1 DISK_FLG                   4-0-0/w UBIN        r     1 SKADD
     2-0-0/w PTR         r     1 SKADD$                     2-0-0/w STRC        r     1 SKADD_PTR
     3-0-0/w STRC        r     1 SKDCW

  ****  Auto variables  ****

  ****  Scalars and arrays  ****
OctLoc.c.b A Datatyp(siz) R M Lvl/name                 OctLoc.c.b A Datatyp(siz) R M Lvl/name

     4-0-0/w PTR         r     1 @CODE                      5-0-0/w PTR         r     1 @GRAN#
     3-0-0/w PTR         r     1 @INDX                     *0-0-0/w UBIN        r     1 CODE
    *0-0-0/w UBIN        r     1 GRAN#                     *0-0-0/w UBIN        r     1 INDX

  ****  SYMREF variables  ****

  ****  Scalars and arrays  ****
OctLoc.c.b A Datatyp(siz) R M Lvl/name                 OctLoc.c.b A Datatyp(siz) R M Lvl/name

     0-0-0/w UBIN(18)    r     1 NSPG(0:1)                  0-0-0/b BIT         r     1 PSI_FLG


   Procedure DPIO requires 17 words for executable code.
   Procedure DPIO requires 6 words of local(AUTO) storage.
PL6.E3A0      #010=DPIO File=ISI$IOPROC.:E05TSI                                  TUE 07/29/97 22:53 Page:284
          *** CROSS REFERENCE LISTING ***
**     DENOTES     IDENTIFIER DEFINITION
<<                 IDENTIFIER'S VALUE SET
>>                 IDENTIFIER'S VALUE USED
<>                 IDENTIFIER SET AND/OR USED
--                 IDENTIFIER REFERENCED
PL6.E3A0      #010=DPIO File=ISI$IOPROC.:E05TSI                                  TUE 07/29/97 22:53 Page:285
          MINI XREF LISTING

CODE
      1283**DCL         6--PROC
DISK_FLG
      1286**DCL      1332<<ASSIGN
GRAN#
      1284**DCL         6--PROC     1331>>ASSIGN
INDX
      1282**DCL         6--PROC     1331>>ASSIGN
NSPG
      1326**DCL      1331>>ASSIGN
PSI_FLG
      1285**DCL      1333<<ASSIGN
SKADD
      1325**DCL      1288--DCLINIT  1331<<ASSIGN
SKADD$
      1288**DCL      1300--REDEF
SKADD_PTR.WOFFS
      1301**DCL      1329>>ASSIGN
SKDCW.AD
      1318**DCL      1329<<ASSIGN
SKDCW.TALLY
      1322**DCL      1330<<ASSIGN

PL6.E3A0      #011=DPCU File=ISI$IOPROC.:E05TSI                                  TUE 07/29/97 22:53 Page:286
     1301        1        /*T***********************************************************/
     1302        2        /*T*                                                         */
     1303        3        /*T* Copyright (c) Bull HN Information Systems Inc., 1997    */
     1304        4        /*T*                                                         */
     1305        5        /*T***********************************************************/
     1306        6        DPCU:   PROC(INDX) ALTRET;
     1307        7        %INCLUDE IS$MACROS;
     1308     1282        %DEVINFO(STCLASS="SYMREF");
     1309     1351        %TEXTC(N#=DPM,M#="' Error on disk drive X-XXX-XX. '");
     1310     1356    1   DCL MESSAGE$ PTR;
     1311     1357    1   DCL 1 TEXTM BASED(MESSAGE$),
     1312     1358    1         2 CNT UBIN WORD,
     1313     1359    1         2 TXT CHAR(TEXTM.CNT);
     1314     1360    1   DCL INDX UBIN WORD;
     1315     1361    1   DCL CODE UBIN WORD;
     1316     1362    1   DCL DISK_FLG BIT(1) SYMREF;
     1317     1363    1   DCL TYPEC ENTRY(1);
     1318     1364    1   DCL TYPEST ENTRY(1);
     1319     1365        /**/
     1320     1366    1           DISK_FLG='0'B;
     1321     1367    1           IF(DEVINFO.BSTAT.W1(INDX)&%STATUS_MASK)=%TERM_STATUS THEN RETURN;
     1322     1368    1             ELSE;
     1323     1369    1           MESSAGE$=ADDR(DPM);
     1324     1370    1           CALL BINCHAR(SUBSTR(DEVINFO.DEVNAME(INDX),0,1),DEVINFO.IOM#(INDX));
     1325     1371    1           CALL BINCHAR(SUBSTR(DEVINFO.DEVNAME(INDX),2,3),DEVINFO.CHN#(INDX));
     1326     1372    1           CALL BINCHAR(SUBSTR(DEVINFO.DEVNAME(INDX),6,2),DEVINFO.DEV#(INDX));
     1327     1373    1           SUBSTR(TEXTM.TXT,21,8)=DEVINFO.DEVNAME(INDX);
     1328     1374    1           CALL TYPEC(DPM);
     1329     1375    1           CALL TYPEST(DEVINFO.STATUS(INDX));
     1330     1376    1           ALTRETURN;
     1331     1377    1   END DPCU;
     1332     1378        %EOD;

PL6.E3A0      #011=DPCU File=ISI$IOPROC.:E05TSI                                  TUE 07/29/97 22:53 Page:287
--  Include file information  --

   IS$MACROS.:E05TOU  is referenced.
      No diagnostics issued in procedure DPCU.

   Procedure DPCU requires 85 words for executable code.
   Procedure DPCU requires 10 words of local(AUTO) storage.

PL6.E3A0      #011=DPCU File=ISI$IOPROC.:E05TSI                                  TUE 07/29/97 22:53 Page:288

 Object Unit name= DPCU                                       File name= ISI$IOPROC.:E05TOU
 UTS= JUL 29 '97 22:53:02.88 TUE                              Compiler= PL-6/E31         Sev=      00
 SharedLib= :SHARED_SYSTEM                                    Alt SharedLib=


    ****  Control sections  ****

 Sect   Type Bound  Init  Size OctSiz  Section name(segment info)
    0   Data  even  none     9     11  DPCU
    1  RoData even  UTS      1      1  DPCU
    2   Proc  even  none    85    125  DPCU
    3  RoData even  none     2      2  DPCU

    ****  Entry defs  ****

                              Check   Calling
                             calling  sequence
  Sect OctLoc Primary Altret sequence   type   Parms  Name
     2      0   yes    yes     yes      Std        1  DPCU

  ****  Data defs  ****

 Sect OctLoc  Name                           Sect OctLoc  Name
    0      0  DPM

  ****  Entry refs  ****

         Check        Calling
        calling       sequence
Altret sequence SRef   type   Args  Name
         yes           Std       1 TYPEC
         yes           Std       1 TYPEST
                       nStd      0 X66_AUTO_1
                       nStd      0 X66_ARET
                       Std       0 B_CONSPOOL_D
                       nStd      0 X66_AALT
PL6.E3A0      #011=DPCU File=ISI$IOPROC.:E05TSI                                  TUE 07/29/97 22:53 Page:289

  ****  Data refs  ****

  Flags:  r = read only, s = secondary
Flgs Name                             Flgs Name                             Flgs Name
     DEVINFO                               DISK_FLG                              B_VECTNIL

  ****  Segment refs  ****

  Flags:  r = read only, s = secondary
Flgs Name                             Flgs Name                             Flgs Name
     ISSID
PL6.E3A0      #011=DPCU File=ISI$IOPROC.:E05TSI                                  TUE 07/29/97 22:53 Page:290


     1301        1        /*T***********************************************************/
     1302        2        /*T*                                                         */
     1303        3        /*T* Copyright (c) Bull HN Information Systems Inc., 1997    */
     1304        4        /*T*                                                         */
     1305        5        /*T***********************************************************/
     1306        6        DPCU:   PROC(INDX) ALTRET;

      6  2 000000   000000 700200 xent  DPCU         TSX0  ! X66_AUTO_1
         2 000001   000012 000001                    ZERO    10,1

     1307        7        %INCLUDE IS$MACROS;
     1308     1282        %DEVINFO(STCLASS="SYMREF");
     1309     1351        %TEXTC(N#=DPM,M#="' Error on disk drive X-XXX-XX. '");
     1310     1356    1   DCL MESSAGE$ PTR;
     1311     1357    1   DCL 1 TEXTM BASED(MESSAGE$),
     1312     1358    1         2 CNT UBIN WORD,
     1313     1359    1         2 TXT CHAR(TEXTM.CNT);
     1314     1360    1   DCL INDX UBIN WORD;
     1315     1361    1   DCL CODE UBIN WORD;
     1316     1362    1   DCL DISK_FLG BIT(1) SYMREF;
     1317     1363    1   DCL TYPEC ENTRY(1);
     1318     1364    1   DCL TYPEST ENTRY(1);
     1319     1365        /**/
     1320     1366    1           DISK_FLG='0'B;

   1366  2 000002   000000 450000 xsym               STZ     DISK_FLG

     1321     1367    1           IF(DEVINFO.BSTAT.W1(INDX)&%STATUS_MASK)=%TERM_STATUS THEN RETURN;

   1367  2 000003   200003 470500                    LDP0    @INDX,,AUTO
         2 000004   000000 236100                    LDQ     0,,PR0
         2 000005   000006 402007                    MPY     6,DL
         2 000006   000001 736000                    QLS     1
         2 000007   000000 620006                    EAX0    0,QL
         2 000010   000000 236000 1                  LDQ     0
         2 000011   000004 376010 xsym               ANQ     DEVINFO+4,X0
PL6.E3A0      #011=DPCU File=ISI$IOPROC.:E05TSI                                  TUE 07/29/97 22:53 Page:291
         2 000012   400000 116003                    CMPQ    -131072,DU
         2 000013   000015 601000 2                  TNZ     s:1369

   1367  2 000014   000000 702200 xent               TSX2  ! X66_ARET

     1322     1368    1             ELSE;
     1323     1369    1           MESSAGE$=ADDR(DPM);

   1369  2 000015   000000 236000 3                  LDQ     0
         2 000016   200004 756100                    STQ     MESSAGE$,,AUTO

     1324     1370    1           CALL BINCHAR(SUBSTR(DEVINFO.DEVNAME(INDX),0,1),DEVINFO.IOM#(INDX));

   1370  2 000017   000000 236100                    LDQ     0,,PR0
         2 000020   000006 402007                    MPY     6,DL
         2 000021   000000 620006                    EAX0    0,QL
         2 000022   000003 736000                    QLS     3
         2 000023   000000 635010                    EAA     0,X0
         2 000024   000021 771000                    ARL     17
         2 000025   200006 756100                    STQ     MESSAGE$+2,,AUTO
         2 000026   000000 236005 xsym               LDQ     DEVINFO,AL
         2 000027   000023 772000                    QRL     19
         2 000030   000003 376007                    ANQ     3,DL
         2 000031   000000 235003                    LDA     0,DU
         2 000032   200010 757100                    STAQ    MESSAGE$+4,,AUTO
         2 000033   200006 235100                    LDA     MESSAGE$+2,,AUTO
         2 000034   000005 301500                    BTD
         2 000035   200010 000010                    NDSC9   MESSAGE$+4,,AUTO         cn=0,s=lsgnf,sf=0,n=8
         2 000036   000006 030001 xsym               NDSC9   DEVINFO+6,A              cn=0,s=nosgn,sf=0,n=1

     1325     1371    1           CALL BINCHAR(SUBSTR(DEVINFO.DEVNAME(INDX),2,3),DEVINFO.CHN#(INDX));

   1371  2 000037   000000 236100                    LDQ     0,,PR0
         2 000040   000006 402007                    MPY     6,DL
         2 000041   000000 620006                    EAX0    0,QL
         2 000042   000003 736000                    QLS     3
         2 000043   000000 635010                    EAA     0,X0
PL6.E3A0      #011=DPCU File=ISI$IOPROC.:E05TSI                                  TUE 07/29/97 22:53 Page:292
         2 000044   000021 771000                    ARL     17
         2 000045   200006 756100                    STQ     MESSAGE$+2,,AUTO
         2 000046   000000 236005 xsym               LDQ     DEVINFO,AL
         2 000047   000033 772000                    QRL     27
         2 000050   000000 235003                    LDA     0,DU
         2 000051   200010 757100                    STAQ    MESSAGE$+4,,AUTO
         2 000052   200006 235100                    LDA     MESSAGE$+2,,AUTO
         2 000053   000005 301500                    BTD
         2 000054   200010 000010                    NDSC9   MESSAGE$+4,,AUTO         cn=0,s=lsgnf,sf=0,n=8
         2 000055   000006 430003 xsym               NDSC9   DEVINFO+6,A              cn=2,s=nosgn,sf=0,n=3

     1326     1372    1           CALL BINCHAR(SUBSTR(DEVINFO.DEVNAME(INDX),6,2),DEVINFO.DEV#(INDX));

   1372  2 000056   000000 236100                    LDQ     0,,PR0
         2 000057   000006 402007                    MPY     6,DL
         2 000060   000000 620006                    EAX0    0,QL
         2 000061   000003 736000                    QLS     3
         2 000062   000000 635010                    EAA     0,X0
         2 000063   000021 771000                    ARL     17
         2 000064   200006 756100                    STQ     MESSAGE$+2,,AUTO
         2 000065   000000 236005 xsym               LDQ     DEVINFO,AL
         2 000066   000025 772000                    QRL     21
         2 000067   000077 376007                    ANQ     63,DL
         2 000070   000000 235003                    LDA     0,DU
         2 000071   200010 757100                    STAQ    MESSAGE$+4,,AUTO
         2 000072   200006 235100                    LDA     MESSAGE$+2,,AUTO
         2 000073   000005 301500                    BTD
         2 000074   200010 000010                    NDSC9   MESSAGE$+4,,AUTO         cn=0,s=lsgnf,sf=0,n=8
         2 000075   000007 430002 xsym               NDSC9   DEVINFO+7,A              cn=2,s=nosgn,sf=0,n=2

     1327     1373    1           SUBSTR(TEXTM.TXT,21,8)=DEVINFO.DEVNAME(INDX);

   1373  2 000076   200004 471500                    LDP1    MESSAGE$,,AUTO
         2 000077   100000 720100                    LXL0    0,,PR1
         2 000100   000000 236100                    LDQ     0,,PR0
         2 000101   000006 402007                    MPY     6,DL
         2 000102   000003 736000                    QLS     3
PL6.E3A0      #011=DPCU File=ISI$IOPROC.:E05TSI                                  TUE 07/29/97 22:53 Page:293
         2 000103   040100 100406                    MLR     fill='040'O
         2 000104   000006 000010 xsym               ADSC9   DEVINFO+6,Q              cn=0,n=8
         2 000105   100006 200010                    ADSC9   6,,PR1                   cn=1,n=8

     1328     1374    1           CALL TYPEC(DPM);

   1374  2 000106   000000 630400 3                  EPPR0   0
         2 000107   000017 631400 xsym               EPPR1   B_VECTNIL+15
         2 000110   000000 701000 xent               TSX1    TYPEC
         2 000111   000000 011000                    NOP     0

     1329     1375    1           CALL TYPEST(DEVINFO.STATUS(INDX));

   1375  2 000112   200003 470500                    LDP0    @INDX,,AUTO
         2 000113   000000 236100                    LDQ     0,,PR0
         2 000114   000006 402007                    MPY     6,DL
         2 000115   000023 736000                    QLS     19
         2 000116   000001 036000 3                  ADLQ    1
         2 000117   200006 756100                    STQ     MESSAGE$+2,,AUTO
         2 000120   200006 630500                    EPPR0   MESSAGE$+2,,AUTO
         2 000121   000017 631400 xsym               EPPR1   B_VECTNIL+15
         2 000122   000000 701000 xent               TSX1    TYPEST
         2 000123   000000 011000                    NOP     0

     1330     1376    1           ALTRETURN;

   1376  2 000124   000000 702200 xent               TSX2  ! X66_AALT
     1331     1377    1   END DPCU;
     1332     1378        %EOD;

PL6.E3A0      #011=DPCU File=ISI$IOPROC.:E05TSI                                  TUE 07/29/97 22:53 Page:294
--  Include file information  --

   IS$MACROS.:E05TOU  is referenced.
      No diagnostics issued in procedure DPCU.
PL6.E3A0      #011=DPCU File=ISI$IOPROC.:E05TSI                                  TUE 07/29/97 22:53 Page:295

 **** Variables and constants ****

  ****  Section 000  Data  DPCU

  ****  Scalars and arrays  ****
OctLoc.c.b A Datatyp(siz) R M Lvl/name                 OctLoc.c.b A Datatyp(siz) R M Lvl/name

     0-0-0/w STRC(315)   r     1 DPM

  ****  Auto variables  ****

  ****  Scalars and arrays  ****
OctLoc.c.b A Datatyp(siz) R M Lvl/name                 OctLoc.c.b A Datatyp(siz) R M Lvl/name

     3-0-0/w PTR         r     1 @INDX                     *0-0-0/w UBIN        r     1 INDX
     4-0-0/w PTR         r     1 MESSAGE$

  ****  SYMREF variables  ****

  ****  Scalars and arrays  ****
OctLoc.c.b A Datatyp(siz) R M Lvl/name                 OctLoc.c.b A Datatyp(siz) R M Lvl/name

     0-0-0/d STRC(396)   r     1 DEVINFO(0:21)              0-0-0/b BIT         r     1 DISK_FLG

  ****  BASED and DCB variables  ****

  ****  Scalars and arrays  ****
OctLoc.c.b A Datatyp(siz) R M Lvl/name                 OctLoc.c.b A Datatyp(siz) R M Lvl/name

     0-0-0/w ASTR        r     1 TEXTM


   Procedure DPCU requires 85 words for executable code.
   Procedure DPCU requires 10 words of local(AUTO) storage.
PL6.E3A0      #011=DPCU File=ISI$IOPROC.:E05TSI                                  TUE 07/29/97 22:53 Page:296
          *** CROSS REFERENCE LISTING ***
**     DENOTES     IDENTIFIER DEFINITION
<<                 IDENTIFIER'S VALUE SET
>>                 IDENTIFIER'S VALUE USED
<>                 IDENTIFIER SET AND/OR USED
--                 IDENTIFIER REFERENCED
PL6.E3A0      #011=DPCU File=ISI$IOPROC.:E05TSI                                  TUE 07/29/97 22:53 Page:297
          MINI XREF LISTING

DEVINFO.BSTAT.W1
      1335**DCL      1367>>IF
DEVINFO.CHN#
      1294**DCL      1371>>CALLBLT
DEVINFO.DEV#
      1295**DCL      1372>>CALLBLT
DEVINFO.DEVNAME
      1341**DCL      1370<<CALLBLT  1371<<CALLBLT  1372<<CALLBLT  1373>>ASSIGN
DEVINFO.IOM#
      1296**DCL      1370>>CALLBLT
DEVINFO.PCWS
      1298**DCL      1309--REDEF
DEVINFO.RPM_PTRS.EF_DCWS$
      1311**DCL      1312--REDEF
DEVINFO.STATUS
      1315**DCL      1334--REDEF    1375<>CALL
DISK_FLG
      1362**DCL      1366<<ASSIGN
DPM
      1352**DCL      1369--ASSIGN   1374<>CALL
INDX
      1360**DCL         6--PROC     1367>>IF       1370>>CALLBLT  1370>>CALLBLT  1371>>CALLBLT  1371>>CALLBLT
      1372>>CALLBLT  1372>>CALLBLT  1373>>ASSIGN   1375>>CALL
MESSAGE$
      1356**DCL      1357--IMP-PTR  1369<<ASSIGN   1373>>ASSIGN   1373>>ASSIGN
TEXTM.CNT
      1358**DCL      1359--IMP-SIZ  1373>>ASSIGN
TEXTM.TXT
      1359**DCL      1373<<ASSIGN
TYPEC
      1363**DCL-ENT  1374--CALL
TYPEST
PL6.E3A0      #011=DPCU File=ISI$IOPROC.:E05TSI                                  TUE 07/29/97 22:53 Page:298
      1364**DCL-ENT  1375--CALL

PL6.E3A0      #012=CRIO File=ISI$IOPROC.:E05TSI                                  TUE 07/29/97 22:53 Page:299
     1333        1        /*T***********************************************************/
     1334        2        /*T*                                                         */
     1335        3        /*T* Copyright (c) Bull HN Information Systems Inc., 1997    */
     1336        4        /*T*                                                         */
     1337        5        /*T***********************************************************/
     1338        6        CRIO:   PROC;
     1339        7    1   DCL PSI_FLG BIT(1) SYMREF;
     1340        8    1           PSI_FLG='1'B;
     1341        9    1           RETURN;
     1342       10    1   END CRIO;
     1343       11        %EOD;

PL6.E3A0      #012=CRIO File=ISI$IOPROC.:E05TSI                                  TUE 07/29/97 22:53 Page:300
      No diagnostics issued in procedure CRIO.

   Procedure CRIO requires 5 words for executable code.
   Procedure CRIO requires 4 words of local(AUTO) storage.

PL6.E3A0      #012=CRIO File=ISI$IOPROC.:E05TSI                                  TUE 07/29/97 22:53 Page:301

 Object Unit name= CRIO                                       File name= ISI$IOPROC.:E05TOU
 UTS= JUL 29 '97 22:53:06.32 TUE                              Compiler= PL-6/E31         Sev=      00
 SharedLib= :SHARED_SYSTEM                                    Alt SharedLib=


    ****  Control sections  ****

 Sect   Type Bound  Init  Size OctSiz  Section name(segment info)
    0   Proc  even  none     5      5  CRIO

    ****  Entry defs  ****

                              Check   Calling
                             calling  sequence
  Sect OctLoc Primary Altret sequence   type   Parms  Name
     0      0   yes            yes      Std        0  CRIO

  ****  Entry refs  ****

         Check        Calling
        calling       sequence
Altret sequence SRef   type   Args  Name
                       nStd      0 X66_AUTO_0
                       nStd      0 X66_ARET

  ****  Data refs  ****

  Flags:  r = read only, s = secondary
Flgs Name                             Flgs Name                             Flgs Name
     PSI_FLG
PL6.E3A0      #012=CRIO File=ISI$IOPROC.:E05TSI                                  TUE 07/29/97 22:53 Page:302


     1333        1        /*T***********************************************************/
     1334        2        /*T*                                                         */
     1335        3        /*T* Copyright (c) Bull HN Information Systems Inc., 1997    */
     1336        4        /*T*                                                         */
     1337        5        /*T***********************************************************/
     1338        6        CRIO:   PROC;

      6  0 000000   000000 700200 xent  CRIO         TSX0  ! X66_AUTO_0
         0 000001   000004 000000                    ZERO    4,0

     1339        7    1   DCL PSI_FLG BIT(1) SYMREF;
     1340        8    1           PSI_FLG='1'B;

      8  0 000002   400000 236003                    LDQ     -131072,DU
         0 000003   000000 756000 xsym               STQ     PSI_FLG

     1341        9    1           RETURN;

      9  0 000004   000000 702200 xent               TSX2  ! X66_ARET
     1342       10    1   END CRIO;
     1343       11        %EOD;

PL6.E3A0      #012=CRIO File=ISI$IOPROC.:E05TSI                                  TUE 07/29/97 22:53 Page:303
      No diagnostics issued in procedure CRIO.
PL6.E3A0      #012=CRIO File=ISI$IOPROC.:E05TSI                                  TUE 07/29/97 22:53 Page:304

 **** Variables and constants ****

  ****  SYMREF variables  ****

  ****  Scalars and arrays  ****
OctLoc.c.b A Datatyp(siz) R M Lvl/name                 OctLoc.c.b A Datatyp(siz) R M Lvl/name

     0-0-0/b BIT         r     1 PSI_FLG


   Procedure CRIO requires 5 words for executable code.
   Procedure CRIO requires 4 words of local(AUTO) storage.
PL6.E3A0      #012=CRIO File=ISI$IOPROC.:E05TSI                                  TUE 07/29/97 22:53 Page:305
          *** CROSS REFERENCE LISTING ***
**     DENOTES     IDENTIFIER DEFINITION
<<                 IDENTIFIER'S VALUE SET
>>                 IDENTIFIER'S VALUE USED
<>                 IDENTIFIER SET AND/OR USED
--                 IDENTIFIER REFERENCED
PL6.E3A0      #012=CRIO File=ISI$IOPROC.:E05TSI                                  TUE 07/29/97 22:53 Page:306
          MINI XREF LISTING

PSI_FLG
         7**DCL         8<<ASSIGN

PL6.E3A0      #013=CRCU File=ISI$IOPROC.:E05TSI                                  TUE 07/29/97 22:53 Page:307
     1344        1        /*T***********************************************************/
     1345        2        /*T*                                                         */
     1346        3        /*T* Copyright (c) Bull HN Information Systems Inc., 1997    */
     1347        4        /*T*                                                         */
     1348        5        /*T***********************************************************/
     1349        6        CRCU:   PROC(INDX,CODE) ALTRET;
     1350        7        %INCLUDE IS$MACROS;
     1351     1282        %DEVINFO(STCLASS="SYMREF");
     1352     1351        %TEXTC(N#=CRM,M#="' Error reading cards. '");
     1353     1356    1   DCL INDX UBIN WORD;
     1354     1357    1   DCL CODE UBIN WORD;
     1355     1358    1   DCL TYPEC ENTRY(1);
     1356     1359        /**/
     1357     1360    1           IF(DEVINFO.BSTAT.W1(INDX)&%STATUS_MASK)=%TERM_STATUS THEN RETURN;
     1358     1361    1             ELSE;
     1359     1362    2           DO SELECT(DEVINFO.STATUS.MAJ_STAT(INDX));
     1360     1363    2             SELECT('0010'B);              /* Device attention                   */
     1361     1364    2             IF(DEVINFO.STATUS.SUB_STAT(INDX)&'07'O)~='0'B THEN RETURN;
     1362     1365    2               ELSE GOTO CRCU8;
     1363     1366    2             SELECT(ELSE);
     1364     1367    2   CRCU8:
     1365     1368    2           CALL TYPEC(CRM);
     1366     1369    2           ALTRETURN;
     1367     1370    2           END;                            /* DO SELECT                          */
     1368     1371    1   END CRCU;
     1369     1372        %EOD;

PL6.E3A0      #013=CRCU File=ISI$IOPROC.:E05TSI                                  TUE 07/29/97 22:53 Page:308
--  Include file information  --

   IS$MACROS.:E05TOU  is referenced.
      No diagnostics issued in procedure CRCU.

   Procedure CRCU requires 34 words for executable code.
   Procedure CRCU requires 6 words of local(AUTO) storage.

PL6.E3A0      #013=CRCU File=ISI$IOPROC.:E05TSI                                  TUE 07/29/97 22:53 Page:309

 Object Unit name= CRCU                                       File name= ISI$IOPROC.:E05TOU
 UTS= JUL 29 '97 22:53:07.48 TUE                              Compiler= PL-6/E31         Sev=      00
 SharedLib= :SHARED_SYSTEM                                    Alt SharedLib=


    ****  Control sections  ****

 Sect   Type Bound  Init  Size OctSiz  Section name(segment info)
    0   Data  even  none     7      7  CRCU
    1  RoData even  UTS      1      1  CRCU
    2   Proc  even  none    34     42  CRCU
    3  RoData even  none     1      1  CRCU

    ****  Entry defs  ****

                              Check   Calling
                             calling  sequence
  Sect OctLoc Primary Altret sequence   type   Parms  Name
     2      0   yes    yes     yes      Std        2  CRCU

  ****  Data defs  ****

 Sect OctLoc  Name                           Sect OctLoc  Name
    0      0  CRM

  ****  Entry refs  ****

         Check        Calling
        calling       sequence
Altret sequence SRef   type   Args  Name
         yes           Std       1 TYPEC
                       nStd      0 X66_AUTO_2
                       nStd      0 X66_ARET
                       Std       0 B_CONSPOOL_D
                       nStd      0 X66_AALT
PL6.E3A0      #013=CRCU File=ISI$IOPROC.:E05TSI                                  TUE 07/29/97 22:53 Page:310

  ****  Data refs  ****

  Flags:  r = read only, s = secondary
Flgs Name                             Flgs Name                             Flgs Name
     DEVINFO                               B_VECTNIL

  ****  Segment refs  ****

  Flags:  r = read only, s = secondary
Flgs Name                             Flgs Name                             Flgs Name
     ISSID
PL6.E3A0      #013=CRCU File=ISI$IOPROC.:E05TSI                                  TUE 07/29/97 22:53 Page:311


     1344        1        /*T***********************************************************/
     1345        2        /*T*                                                         */
     1346        3        /*T* Copyright (c) Bull HN Information Systems Inc., 1997    */
     1347        4        /*T*                                                         */
     1348        5        /*T***********************************************************/
     1349        6        CRCU:   PROC(INDX,CODE) ALTRET;

      6  2 000000   000000 700200 xent  CRCU         TSX0  ! X66_AUTO_2
         2 000001   000006 000002                    ZERO    6,2

     1350        7        %INCLUDE IS$MACROS;
     1351     1282        %DEVINFO(STCLASS="SYMREF");
     1352     1351        %TEXTC(N#=CRM,M#="' Error reading cards. '");
     1353     1356    1   DCL INDX UBIN WORD;
     1354     1357    1   DCL CODE UBIN WORD;
     1355     1358    1   DCL TYPEC ENTRY(1);
     1356     1359        /**/
     1357     1360    1           IF(DEVINFO.BSTAT.W1(INDX)&%STATUS_MASK)=%TERM_STATUS THEN RETURN;

   1360  2 000002   200003 470500                    LDP0    @INDX,,AUTO
         2 000003   000000 236100                    LDQ     0,,PR0
         2 000004   000006 402007                    MPY     6,DL
         2 000005   000001 736000                    QLS     1
         2 000006   000000 620006                    EAX0    0,QL
         2 000007   000000 236000 1                  LDQ     0
         2 000010   000004 376010 xsym               ANQ     DEVINFO+4,X0
         2 000011   400000 116003                    CMPQ    -131072,DU
         2 000012   000014 601000 2                  TNZ     s:1362

   1360  2 000013   000000 702200 xent               TSX2  ! X66_ARET

     1358     1361    1             ELSE;
     1359     1362    2           DO SELECT(DEVINFO.STATUS.MAJ_STAT(INDX));

   1362  2 000014   000000 236100                    LDQ     0,,PR0
         2 000015   000006 402007                    MPY     6,DL
PL6.E3A0      #013=CRCU File=ISI$IOPROC.:E05TSI                                  TUE 07/29/97 22:53 Page:312
         2 000016   000001 736000                    QLS     1
         2 000017   000004 236006 xsym               LDQ     DEVINFO+4,QL
         2 000020   170000 376003                    ANQ     61440,DU
         2 000021   020000 116003                    CMPQ    8192,DU
         2 000022   000035 601000 2                  TNZ     CRCU8
         2 000023   000024 710000 2                  TRA     s:1364

     1360     1363    2             SELECT('0010'B);              /* Device attention                   */

     1361     1364    2             IF(DEVINFO.STATUS.SUB_STAT(INDX)&'07'O)~='0'B THEN RETURN;

   1364  2 000024   000000 236100                    LDQ     0,,PR0
         2 000025   000006 402007                    MPY     6,DL
         2 000026   000001 736000                    QLS     1
         2 000027   000004 236006 xsym               LDQ     DEVINFO+4,QL
         2 000030   000006 736000                    QLS     6
         2 000031   770000 376003                    ANQ     -4096,DU
         2 000032   070000 376003                    ANQ     28672,DU
         2 000033   000035 600000 2                  TZE     CRCU8

   1364  2 000034   000000 702200 xent               TSX2  ! X66_ARET

     1362     1365    2               ELSE GOTO CRCU8;
     1363     1366    2             SELECT(ELSE);

     1364     1367    2   CRCU8:
     1365     1368    2           CALL TYPEC(CRM);

   1368  2 000035   000000 630400 3     CRCU8        EPPR0   0
         2 000036   000017 631400 xsym               EPPR1   B_VECTNIL+15
         2 000037   000000 701000 xent               TSX1    TYPEC
         2 000040   000000 011000                    NOP     0

     1366     1369    2           ALTRETURN;

   1369  2 000041   000000 702200 xent               TSX2  ! X66_AALT
     1367     1370    2           END;                            /* DO SELECT                          */
PL6.E3A0      #013=CRCU File=ISI$IOPROC.:E05TSI                                  TUE 07/29/97 22:53 Page:313
     1368     1371    1   END CRCU;
     1369     1372        %EOD;

PL6.E3A0      #013=CRCU File=ISI$IOPROC.:E05TSI                                  TUE 07/29/97 22:53 Page:314
--  Include file information  --

   IS$MACROS.:E05TOU  is referenced.
      No diagnostics issued in procedure CRCU.
PL6.E3A0      #013=CRCU File=ISI$IOPROC.:E05TSI                                  TUE 07/29/97 22:53 Page:315

 **** Variables and constants ****

  ****  Section 000  Data  CRCU

  ****  Scalars and arrays  ****
OctLoc.c.b A Datatyp(siz) R M Lvl/name                 OctLoc.c.b A Datatyp(siz) R M Lvl/name

     0-0-0/w STRC(234)   r     1 CRM

  ****  Auto variables  ****

  ****  Scalars and arrays  ****
OctLoc.c.b A Datatyp(siz) R M Lvl/name                 OctLoc.c.b A Datatyp(siz) R M Lvl/name

     4-0-0/w PTR         r     1 @CODE                      3-0-0/w PTR         r     1 @INDX
    *0-0-0/w UBIN        r     1 CODE                      *0-0-0/w UBIN        r     1 INDX

  ****  SYMREF variables  ****

  ****  Scalars and arrays  ****
OctLoc.c.b A Datatyp(siz) R M Lvl/name                 OctLoc.c.b A Datatyp(siz) R M Lvl/name

     0-0-0/d STRC(396)   r     1 DEVINFO(0:21)


   Procedure CRCU requires 34 words for executable code.
   Procedure CRCU requires 6 words of local(AUTO) storage.
PL6.E3A0      #013=CRCU File=ISI$IOPROC.:E05TSI                                  TUE 07/29/97 22:53 Page:316
          *** CROSS REFERENCE LISTING ***
**     DENOTES     IDENTIFIER DEFINITION
<<                 IDENTIFIER'S VALUE SET
>>                 IDENTIFIER'S VALUE USED
<>                 IDENTIFIER SET AND/OR USED
--                 IDENTIFIER REFERENCED
PL6.E3A0      #013=CRCU File=ISI$IOPROC.:E05TSI                                  TUE 07/29/97 22:53 Page:317
          MINI XREF LISTING

CODE
      1357**DCL         6--PROC
CRCU8
      1368**LABEL    1365--GOTO
CRM
      1352**DCL      1368<>CALL
DEVINFO.BSTAT.W1
      1335**DCL      1360>>IF
DEVINFO.PCWS
      1298**DCL      1309--REDEF
DEVINFO.RPM_PTRS.EF_DCWS$
      1311**DCL      1312--REDEF
DEVINFO.STATUS
      1315**DCL      1334--REDEF
DEVINFO.STATUS.MAJ_STAT
      1318**DCL      1362>>DOSELCT
DEVINFO.STATUS.SUB_STAT
      1319**DCL      1364>>IF
INDX
      1356**DCL         6--PROC     1360>>IF       1362>>DOSELCT  1364>>IF
TYPEC
      1358**DCL-ENT  1368--CALL

PL6.E3A0      #014=BUILD_MESSAGE File=ISI$IOPROC.:E05TSI                         TUE 07/29/97 22:53 Page:318
     1370        1        /*T***********************************************************/
     1371        2        /*T*                                                         */
     1372        3        /*T* Copyright (c) Bull HN Information Systems Inc., 1997    */
     1373        4        /*T*                                                         */
     1374        5        /*T***********************************************************/
     1375        6        BUILD_MESSAGE:PROC(MES);
     1376        7        /* This programm builds a message with an entire NR
     1377        8        of words; the TXT is completed with null characters */
     1378        9    1   DCL 1 MES,
     1379       10    1         2 CNT UBIN WORD,
     1380       11    1         2 TXT CHAR(MES.CNT);
     1381       12    1   DCL MESSAGE CHAR(80) STATIC SYMDEF;
     1382       13    1   DCL MESSAGE_CNT UBIN WORD STATIC SYMDEF;
     1383       14    1   DCL BNUL_CHAR BIT(27) STATIC INIT('0'B);
     1384       15    1   DCL NUL_CHAR REDEF BNUL_CHAR CHAR(3);
     1385       16        /**/
     1386       17    1           MESSAGE_CNT=(MES.CNT+3)/4*4;
     1387       18    1           SUBSTR(MESSAGE,0,MES.CNT)=MES.TXT;
     1388       19    1           SUBSTR(MESSAGE,MES.CNT,(MESSAGE_CNT-MES.CNT))=NUL_CHAR;
     1389       20    1           RETURN;
     1390       21    1   END BUILD_MESSAGE;
     1391       22        %EOD;

PL6.E3A0      #014=BUILD_MESSAGE File=ISI$IOPROC.:E05TSI                         TUE 07/29/97 22:53 Page:319
      No diagnostics issued in procedure BUILD_MESSAGE.

   Procedure BUILD_MESSAGE requires 21 words for executable code.
   Procedure BUILD_MESSAGE requires 4 words of local(AUTO) storage.

PL6.E3A0      #014=BUILD_MESSAGE File=ISI$IOPROC.:E05TSI                         TUE 07/29/97 22:53 Page:320

 Object Unit name= BUILD_MESSAGE                              File name= ISI$IOPROC.:E05TOU
 UTS= JUL 29 '97 22:53:10.44 TUE                              Compiler= PL-6/E31         Sev=      00
 SharedLib= :SHARED_SYSTEM                                    Alt SharedLib=


    ****  Control sections  ****

 Sect   Type Bound  Init  Size OctSiz  Section name(segment info)
    0   Data  even  none    22     26  BUILD_MESSAGE
    1   Proc  even  none    21     25  BUILD_MESSAGE

    ****  Entry defs  ****

                              Check   Calling
                             calling  sequence
  Sect OctLoc Primary Altret sequence   type   Parms  Name
     1      0   yes            yes      Std        1  BUILD_MESSAGE

  ****  Data defs  ****

 Sect OctLoc  Name                           Sect OctLoc  Name
    0      0  MESSAGE                            0     24  MESSAGE_CNT

  ****  Entry refs  ****

         Check        Calling
        calling       sequence
Altret sequence SRef   type   Args  Name
                       nStd      0 X66_AUTO_1
                       nStd      0 X66_ARET
PL6.E3A0      #014=BUILD_MESSAGE File=ISI$IOPROC.:E05TSI                         TUE 07/29/97 22:53 Page:321


     1370        1        /*T***********************************************************/
     1371        2        /*T*                                                         */
     1372        3        /*T* Copyright (c) Bull HN Information Systems Inc., 1997    */
     1373        4        /*T*                                                         */
     1374        5        /*T***********************************************************/
     1375        6        BUILD_MESSAGE:PROC(MES);

      6  1 000000   000000 700200 xent  BUILD_MESSA* TSX0  ! X66_AUTO_1
         1 000001   000004 000001                    ZERO    4,1

     1376        7        /* This programm builds a message with an entire NR
     1377        8        of words; the TXT is completed with null characters */
     1378        9    1   DCL 1 MES,
     1379       10    1         2 CNT UBIN WORD,
     1380       11    1         2 TXT CHAR(MES.CNT);
     1381       12    1   DCL MESSAGE CHAR(80) STATIC SYMDEF;
     1382       13    1   DCL MESSAGE_CNT UBIN WORD STATIC SYMDEF;
     1383       14    1   DCL BNUL_CHAR BIT(27) STATIC INIT('0'B);
     1384       15    1   DCL NUL_CHAR REDEF BNUL_CHAR CHAR(3);
     1385       16        /**/
     1386       17    1           MESSAGE_CNT=(MES.CNT+3)/4*4;

     17  1 000002   200003 470500                    LDP0    @MES,,AUTO
         1 000003   000000 236100                    LDQ     0,,PR0
         1 000004   000003 036007                    ADLQ    3,DL
         1 000005   000002 772000                    QRL     2
         1 000006   000002 736000                    QLS     2
         1 000007   000024 756000 0                  STQ     MESSAGE_CNT

     1387       18    1           SUBSTR(MESSAGE,0,MES.CNT)=MES.TXT;

     18  1 000010   000000 720100                    LXL0    0,,PR0
         1 000011   000000 721100                    LXL1    0,,PR0
         1 000012   040040 100540                    MLR     fill='040'O
         1 000013   000001 000011                    ADSC9   1,,PR0                   cn=0,n=*X1
         1 000014   000000 000010 0                  ADSC9   MESSAGE                  cn=0,n=*X0
PL6.E3A0      #014=BUILD_MESSAGE File=ISI$IOPROC.:E05TSI                         TUE 07/29/97 22:53 Page:322

     1388       19    1           SUBSTR(MESSAGE,MES.CNT,(MESSAGE_CNT-MES.CNT))=NUL_CHAR;

     19  1 000015   000024 236000 0                  LDQ     MESSAGE_CNT
         1 000016   000000 136100                    SBLQ    0,,PR0
         1 000017   000000 235100                    LDA     0,,PR0
         1 000020   000000 620006                    EAX0    0,QL
         1 000021   040045 100400                    MLR     fill='040'O
         1 000022   000025 000003 0                  ADSC9   BNUL_CHAR                cn=0,n=3
         1 000023   000000 000010 0                  ADSC9   MESSAGE,A                cn=0,n=*X0

     1389       20    1           RETURN;

     20  1 000024   000000 702200 xent               TSX2  ! X66_ARET
     1390       21    1   END BUILD_MESSAGE;
     1391       22        %EOD;

PL6.E3A0      #014=BUILD_MESSAGE File=ISI$IOPROC.:E05TSI                         TUE 07/29/97 22:53 Page:323
      No diagnostics issued in procedure BUILD_MESSAGE.
PL6.E3A0      #014=BUILD_MESSAGE File=ISI$IOPROC.:E05TSI                         TUE 07/29/97 22:53 Page:324

 **** Variables and constants ****

  ****  Section 000  Data  BUILD_MESSAGE

  ****  Scalars and arrays  ****
OctLoc.c.b A Datatyp(siz) R M Lvl/name                 OctLoc.c.b A Datatyp(siz) R M Lvl/name

    25-0-0/b BIT (27)    r     1 BNUL_CHAR                  0-0-0/c CHAR(80)    r     1 MESSAGE
    24-0-0/w UBIN        r     1 MESSAGE_CNT               25-0-0/c CHAR(3)     r     1 NUL_CHAR

  ****  Auto variables  ****

  ****  Scalars and arrays  ****
OctLoc.c.b A Datatyp(siz) R M Lvl/name                 OctLoc.c.b A Datatyp(siz) R M Lvl/name

     3-0-0/w PTR         r     1 @MES                      *0-0-0/w ASTR        r     1 MES


   Procedure BUILD_MESSAGE requires 21 words for executable code.
   Procedure BUILD_MESSAGE requires 4 words of local(AUTO) storage.
PL6.E3A0      #014=BUILD_MESSAGE File=ISI$IOPROC.:E05TSI                         TUE 07/29/97 22:53 Page:325
          *** CROSS REFERENCE LISTING ***
**     DENOTES     IDENTIFIER DEFINITION
<<                 IDENTIFIER'S VALUE SET
>>                 IDENTIFIER'S VALUE USED
<>                 IDENTIFIER SET AND/OR USED
--                 IDENTIFIER REFERENCED
PL6.E3A0      #014=BUILD_MESSAGE File=ISI$IOPROC.:E05TSI                         TUE 07/29/97 22:53 Page:326
          MINI XREF LISTING

BNUL_CHAR
        14**DCL        15--REDEF
MES
         9**DCL         6--PROC
MES.CNT
        10**DCL        11--IMP-SIZ    17>>ASSIGN     18>>ASSIGN     18>>ASSIGN     19>>ASSIGN     19>>ASSIGN
MES.TXT
        11**DCL        18>>ASSIGN
MESSAGE
        12**DCL        18<<ASSIGN     19<<ASSIGN
MESSAGE_CNT
        13**DCL        17<<ASSIGN     19>>ASSIGN
NUL_CHAR
        15**DCL        19>>ASSIGN

PL6.E3A0      #015=TYPEC File=ISI$IOPROC.:E05TSI                                 TUE 07/29/97 22:53 Page:327
     1392        1        /*T***********************************************************/
     1393        2        /*T*                                                         */
     1394        3        /*T* Copyright (c) Bull HN Information Systems Inc., 1997    */
     1395        4        /*T*                                                         */
     1396        5        /*T***********************************************************/
     1397        6        TYPEC:  PROC(TXT);
     1398        7        /* Types a message */
     1399        8        %INCLUDE IS$MACROS;
     1400     1283    1   DCL TXT CHAR(1);
     1401     1284    1   DCL BUILD_MESSAGE ENTRY(1);
     1402     1285    1   DCL MINIQ_PL6 ENTRY(5) ALTRET;
     1403     1286    1   DCL MESSAGE CHAR(80) SYMREF;
     1404     1287    1   DCL MESSAGE_CNT UBIN WORD SYMREF;
     1405     1288        /**/
     1406     1289    1           CALL BUILD_MESSAGE(TXT);
     1407     1290    1           CALL MINIQ_PL6(0,ADDR(MESSAGE),MESSAGE_CNT,%FCNWCA);
     1408     1291    1           RETURN;
     1409     1292    1   END TYPEC;
     1410     1293        %EOD;

PL6.E3A0      #015=TYPEC File=ISI$IOPROC.:E05TSI                                 TUE 07/29/97 22:53 Page:328
--  Include file information  --

   IS$MACROS.:E05TOU  is referenced.
      No diagnostics issued in procedure TYPEC.

   Procedure TYPEC requires 19 words for executable code.
   Procedure TYPEC requires 10 words of local(AUTO) storage.

PL6.E3A0      #015=TYPEC File=ISI$IOPROC.:E05TSI                                 TUE 07/29/97 22:53 Page:329

 Object Unit name= TYPEC                                      File name= ISI$IOPROC.:E05TOU
 UTS= JUL 29 '97 22:53:11.84 TUE                              Compiler= PL-6/E31         Sev=      00
 SharedLib= :SHARED_SYSTEM                                    Alt SharedLib=


    ****  Control sections  ****

 Sect   Type Bound  Init  Size OctSiz  Section name(segment info)
    0   Proc  even  none    19     23  TYPEC
    1  RoData even  none     5      5  TYPEC

    ****  Entry defs  ****

                              Check   Calling
                             calling  sequence
  Sect OctLoc Primary Altret sequence   type   Parms  Name
     0      0   yes            yes      Std        1  TYPEC

  ****  Entry refs  ****

         Check        Calling
        calling       sequence
Altret sequence SRef   type   Args  Name
         yes           Std       1 BUILD_MESSAGE
 yes     yes           Std       5 MINIQ_PL6
                       nStd      0 X66_AUTO_1
                       Std       0 B_CONSPOOL_D
                       nStd      0 X66_ARET

  ****  Data refs  ****

  Flags:  r = read only, s = secondary
Flgs Name                             Flgs Name                             Flgs Name
     MESSAGE                               MESSAGE_CNT                           B_VECTNIL
PL6.E3A0      #015=TYPEC File=ISI$IOPROC.:E05TSI                                 TUE 07/29/97 22:53 Page:330

  ****  Segment refs  ****

  Flags:  r = read only, s = secondary
Flgs Name                             Flgs Name                             Flgs Name
     ISSID
PL6.E3A0      #015=TYPEC File=ISI$IOPROC.:E05TSI                                 TUE 07/29/97 22:53 Page:331


     1392        1        /*T***********************************************************/
     1393        2        /*T*                                                         */
     1394        3        /*T* Copyright (c) Bull HN Information Systems Inc., 1997    */
     1395        4        /*T*                                                         */
     1396        5        /*T***********************************************************/
     1397        6        TYPEC:  PROC(TXT);

      6  0 000000   000000 700200 xent  TYPEC        TSX0  ! X66_AUTO_1
         0 000001   000012 000001                    ZERO    10,1

     1398        7        /* Types a message */
     1399        8        %INCLUDE IS$MACROS;
     1400     1283    1   DCL TXT CHAR(1);
     1401     1284    1   DCL BUILD_MESSAGE ENTRY(1);
     1402     1285    1   DCL MINIQ_PL6 ENTRY(5) ALTRET;
     1403     1286    1   DCL MESSAGE CHAR(80) SYMREF;
     1404     1287    1   DCL MESSAGE_CNT UBIN WORD SYMREF;
     1405     1288        /**/
     1406     1289    1           CALL BUILD_MESSAGE(TXT);

   1289  0 000002   200003 630500                    EPPR0   @TXT,,AUTO
         0 000003   000017 631400 xsym               EPPR1   B_VECTNIL+15
         0 000004   000000 701000 xent               TSX1    BUILD_MESSAGE
         0 000005   000000 011000                    NOP     0

     1407     1290    1           CALL MINIQ_PL6(0,ADDR(MESSAGE),MESSAGE_CNT,%FCNWCA);

   1290  0 000006   000000 236000 1                  LDQ     0
         0 000007   200004 756100                    STQ     @TXT+1,,AUTO
         0 000010   000002 237000 1                  LDAQ    2
         0 000011   200010 757100                    STAQ    @TXT+5,,AUTO
         0 000012   200004 630500                    EPPR0   @TXT+1,,AUTO
         0 000013   200007 450500                    STP0    @TXT+4,,AUTO
         0 000014   000004 236000 1                  LDQ     4
         0 000015   200006 756100                    STQ     @TXT+3,,AUTO
         0 000016   200006 630500                    EPPR0   @TXT+3,,AUTO
PL6.E3A0      #015=TYPEC File=ISI$IOPROC.:E05TSI                                 TUE 07/29/97 22:53 Page:332
         0 000017   000022 631400 xsym               EPPR1   B_VECTNIL+18
         0 000020   000000 701000 xent               TSX1    MINIQ_PL6
         0 000021   000000 011000                    NOP     0

     1408     1291    1           RETURN;

   1291  0 000022   000000 702200 xent               TSX2  ! X66_ARET
     1409     1292    1   END TYPEC;
     1410     1293        %EOD;

PL6.E3A0      #015=TYPEC File=ISI$IOPROC.:E05TSI                                 TUE 07/29/97 22:53 Page:333
--  Include file information  --

   IS$MACROS.:E05TOU  is referenced.
      No diagnostics issued in procedure TYPEC.
PL6.E3A0      #015=TYPEC File=ISI$IOPROC.:E05TSI                                 TUE 07/29/97 22:53 Page:334

 **** Variables and constants ****

  ****  Auto variables  ****

  ****  Scalars and arrays  ****
OctLoc.c.b A Datatyp(siz) R M Lvl/name                 OctLoc.c.b A Datatyp(siz) R M Lvl/name

     3-0-0/w PTR         r     1 @TXT                      *0-0-0/c CHAR        r     1 TXT

  ****  SYMREF variables  ****

  ****  Scalars and arrays  ****
OctLoc.c.b A Datatyp(siz) R M Lvl/name                 OctLoc.c.b A Datatyp(siz) R M Lvl/name

     0-0-0/c CHAR(80)    r     1 MESSAGE                    0-0-0/w UBIN        r     1 MESSAGE_CNT


   Procedure TYPEC requires 19 words for executable code.
   Procedure TYPEC requires 10 words of local(AUTO) storage.
PL6.E3A0      #015=TYPEC File=ISI$IOPROC.:E05TSI                                 TUE 07/29/97 22:53 Page:335
          *** CROSS REFERENCE LISTING ***
**     DENOTES     IDENTIFIER DEFINITION
<<                 IDENTIFIER'S VALUE SET
>>                 IDENTIFIER'S VALUE USED
<>                 IDENTIFIER SET AND/OR USED
--                 IDENTIFIER REFERENCED
PL6.E3A0      #015=TYPEC File=ISI$IOPROC.:E05TSI                                 TUE 07/29/97 22:53 Page:336
          MINI XREF LISTING

BUILD_MESSAGE
      1284**DCL-ENT  1289--CALL
MESSAGE
      1286**DCL      1290--CALL
MESSAGE_CNT
      1287**DCL      1290<>CALL
MINIQ_PL6
      1285**DCL-ENT  1290--CALL
TXT
      1283**DCL         6--PROC     1289<>CALL

PL6.E3A0      #016=TYPEST File=ISI$IOPROC.:E05TSI                                TUE 07/29/97 22:53 Page:337
     1411        1        /*T***********************************************************/
     1412        2        /*T*                                                         */
     1413        3        /*T* Copyright (c) Bull HN Information Systems Inc., 1997    */
     1414        4        /*T*                                                         */
     1415        5        /*T***********************************************************/
     1416        6        TYPEST: PROC(DIG);
     1417        7        /* Type status */
     1418        8        %INCLUDE IS$MACROS;
     1419     1283    1   DCL DIG(0:11) UBIN(3) UNAL;             /* Redefines status                   */
     1420     1284        %TEXTC(N#=STATUSM,M#="' STATUS = 000000000000'");
     1421     1289    1   DCL MESSAGE$ PTR;
     1422     1290    1   DCL 1 TEXTM BASED(MESSAGE$),
     1423     1291    1         2 CNT UBIN WORD,
     1424     1292    1         2 TXT CHAR(TEXTM.CNT);
     1425     1293    1   DCL I UBIN WORD;
     1426     1294        /**/
     1427     1295    1   DCL BUILD_MESSAGE ENTRY(1);
     1428     1296    1   DCL MINIQ_PL6 ENTRY(5) ALTRET;
     1429     1297    1   DCL MESSAGE CHAR(80) SYMREF;
     1430     1298    1   DCL MESSAGE_CNT UBIN WORD SYMREF;
     1431     1299        /**/
     1432     1300    1           MESSAGE$=ADDR(STATUSM);
     1433     1301    2           DO I=0 TO 11;
     1434     1302    2             CALL BINCHAR(SUBSTR(TEXTM.TXT,10+I,1),DIG(I));
     1435     1303    2           END;                            /* DO I=                              */
     1436     1304    1           CALL BUILD_MESSAGE(STATUSM);
     1437     1305    1           CALL MINIQ_PL6(0,ADDR(MESSAGE),MESSAGE_CNT,%FCNWCM);
     1438     1306    1           RETURN;
     1439     1307    1   END TYPEST;
     1440     1308        %EOD;

PL6.E3A0      #016=TYPEST File=ISI$IOPROC.:E05TSI                                TUE 07/29/97 22:53 Page:338
--  Include file information  --

   IS$MACROS.:E05TOU  is referenced.
      No diagnostics issued in procedure TYPEST.

   Procedure TYPEST requires 41 words for executable code.
   Procedure TYPEST requires 12 words of local(AUTO) storage.

PL6.E3A0      #016=TYPEST File=ISI$IOPROC.:E05TSI                                TUE 07/29/97 22:53 Page:339

 Object Unit name= TYPEST                                     File name= ISI$IOPROC.:E05TOU
 UTS= JUL 29 '97 22:53:14.28 TUE                              Compiler= PL-6/E31         Sev=      00
 SharedLib= :SHARED_SYSTEM                                    Alt SharedLib=


    ****  Control sections  ****

 Sect   Type Bound  Init  Size OctSiz  Section name(segment info)
    0   Data  even  none     7      7  TYPEST
    1   Proc  even  none    41     51  TYPEST
    2  RoData even  none     5      5  TYPEST

    ****  Entry defs  ****

                              Check   Calling
                             calling  sequence
  Sect OctLoc Primary Altret sequence   type   Parms  Name
     1      0   yes            yes      Std        1  TYPEST

  ****  Data defs  ****

 Sect OctLoc  Name                           Sect OctLoc  Name
    0      0  STATUSM

  ****  Entry refs  ****

         Check        Calling
        calling       sequence
Altret sequence SRef   type   Args  Name
         yes           Std       1 BUILD_MESSAGE
 yes     yes           Std       5 MINIQ_PL6
                       nStd      0 X66_AUTO_1
                       Std       0 B_CONSPOOL_D
                       nStd      0 X66_ARET
PL6.E3A0      #016=TYPEST File=ISI$IOPROC.:E05TSI                                TUE 07/29/97 22:53 Page:340

  ****  Data refs  ****

  Flags:  r = read only, s = secondary
Flgs Name                             Flgs Name                             Flgs Name
     MESSAGE                               MESSAGE_CNT                           B_VECTNIL

  ****  Segment refs  ****

  Flags:  r = read only, s = secondary
Flgs Name                             Flgs Name                             Flgs Name
     ISSID
PL6.E3A0      #016=TYPEST File=ISI$IOPROC.:E05TSI                                TUE 07/29/97 22:53 Page:341


     1411        1        /*T***********************************************************/
     1412        2        /*T*                                                         */
     1413        3        /*T* Copyright (c) Bull HN Information Systems Inc., 1997    */
     1414        4        /*T*                                                         */
     1415        5        /*T***********************************************************/
     1416        6        TYPEST: PROC(DIG);

      6  1 000000   000000 700200 xent  TYPEST       TSX0  ! X66_AUTO_1
         1 000001   000014 000001                    ZERO    12,1

     1417        7        /* Type status */
     1418        8        %INCLUDE IS$MACROS;
     1419     1283    1   DCL DIG(0:11) UBIN(3) UNAL;             /* Redefines status                   */
     1420     1284        %TEXTC(N#=STATUSM,M#="' STATUS = 000000000000'");
     1421     1289    1   DCL MESSAGE$ PTR;
     1422     1290    1   DCL 1 TEXTM BASED(MESSAGE$),
     1423     1291    1         2 CNT UBIN WORD,
     1424     1292    1         2 TXT CHAR(TEXTM.CNT);
     1425     1293    1   DCL I UBIN WORD;
     1426     1294        /**/
     1427     1295    1   DCL BUILD_MESSAGE ENTRY(1);
     1428     1296    1   DCL MINIQ_PL6 ENTRY(5) ALTRET;
     1429     1297    1   DCL MESSAGE CHAR(80) SYMREF;
     1430     1298    1   DCL MESSAGE_CNT UBIN WORD SYMREF;
     1431     1299        /**/
     1432     1300    1           MESSAGE$=ADDR(STATUSM);

   1300  1 000002   000000 236000 2                  LDQ     0
         1 000003   200004 756100                    STQ     MESSAGE$,,AUTO

     1433     1301    2           DO I=0 TO 11;

   1301  1 000004   200005 450100                    STZ     I,,AUTO

     1434     1302    2             CALL BINCHAR(SUBSTR(TEXTM.TXT,10+I,1),DIG(I));

PL6.E3A0      #016=TYPEST File=ISI$IOPROC.:E05TSI                                TUE 07/29/97 22:53 Page:342
   1302  1 000005   200004 470500                    LDP0    MESSAGE$,,AUTO
         1 000006   000000 720100                    LXL0    0,,PR0
         1 000007   200005 236100                    LDQ     I,,AUTO
         1 000010   000003 402007                    MPY     3,DL
         1 000011   200003 471500                    LDP1    @DIG,,AUTO
         1 000012   003100 061506                    CSR     bolr='003'O
         1 000013   100000 000003                    BDSC    0,Q,PR1                  by=0,bit=0,n=3
         1 000014   200006 000044                    BDSC    I+1,,AUTO                by=0,bit=0,n=36
         1 000015   200006 236100                    LDQ     I+1,,AUTO
         1 000016   000000 235003                    LDA     0,DU
         1 000017   200010 757100                    STAQ    I+3,,AUTO
         1 000020   200005 235100                    LDA     I,,AUTO
         1 000021   000105 301500                    BTD
         1 000022   200010 000010                    NDSC9   I+3,,AUTO                cn=0,s=lsgnf,sf=0,n=8
         1 000023   000003 430001                    NDSC9   3,A,PR0                  cn=2,s=nosgn,sf=0,n=1

     1435     1303    2           END;                            /* DO I=                              */

   1303  1 000024   000001 035007                    ADLA    1,DL
         1 000025   200005 755100                    STA     I,,AUTO
         1 000026   000014 115007                    CMPA    12,DL
         1 000027   000005 602000 1                  TNC     s:1302

     1436     1304    1           CALL BUILD_MESSAGE(STATUSM);

   1304  1 000030   000000 630400 2                  EPPR0   0
         1 000031   000017 631400 xsym               EPPR1   B_VECTNIL+15
         1 000032   000000 701000 xent               TSX1    BUILD_MESSAGE
         1 000033   000000 011000                    NOP     0

     1437     1305    1           CALL MINIQ_PL6(0,ADDR(MESSAGE),MESSAGE_CNT,%FCNWCM);

   1305  1 000034   000001 236000 2                  LDQ     1
         1 000035   200006 756100                    STQ     I+1,,AUTO
         1 000036   000002 237000 2                  LDAQ    2
         1 000037   200012 757100                    STAQ    I+5,,AUTO
         1 000040   200006 630500                    EPPR0   I+1,,AUTO
PL6.E3A0      #016=TYPEST File=ISI$IOPROC.:E05TSI                                TUE 07/29/97 22:53 Page:343
         1 000041   200011 450500                    STP0    I+4,,AUTO
         1 000042   000004 236000 2                  LDQ     4
         1 000043   200010 756100                    STQ     I+3,,AUTO
         1 000044   200010 630500                    EPPR0   I+3,,AUTO
         1 000045   000022 631400 xsym               EPPR1   B_VECTNIL+18
         1 000046   000000 701000 xent               TSX1    MINIQ_PL6
         1 000047   000000 011000                    NOP     0

     1438     1306    1           RETURN;

   1306  1 000050   000000 702200 xent               TSX2  ! X66_ARET
     1439     1307    1   END TYPEST;
     1440     1308        %EOD;

PL6.E3A0      #016=TYPEST File=ISI$IOPROC.:E05TSI                                TUE 07/29/97 22:53 Page:344
--  Include file information  --

   IS$MACROS.:E05TOU  is referenced.
      No diagnostics issued in procedure TYPEST.
PL6.E3A0      #016=TYPEST File=ISI$IOPROC.:E05TSI                                TUE 07/29/97 22:53 Page:345

 **** Variables and constants ****

  ****  Section 000  Data  TYPEST

  ****  Scalars and arrays  ****
OctLoc.c.b A Datatyp(siz) R M Lvl/name                 OctLoc.c.b A Datatyp(siz) R M Lvl/name

     0-0-0/w STRC(234)   r     1 STATUSM

  ****  Auto variables  ****

  ****  Scalars and arrays  ****
OctLoc.c.b A Datatyp(siz) R M Lvl/name                 OctLoc.c.b A Datatyp(siz) R M Lvl/name

     3-0-0/w PTR         r     1 @DIG                      *0-0-0/b UBIN(3)     r     1 DIG(0:11)
     5-0-0/w UBIN        r     1 I                          4-0-0/w PTR         r     1 MESSAGE$

  ****  SYMREF variables  ****

  ****  Scalars and arrays  ****
OctLoc.c.b A Datatyp(siz) R M Lvl/name                 OctLoc.c.b A Datatyp(siz) R M Lvl/name

     0-0-0/c CHAR(80)    r     1 MESSAGE                    0-0-0/w UBIN        r     1 MESSAGE_CNT

  ****  BASED and DCB variables  ****

  ****  Scalars and arrays  ****
OctLoc.c.b A Datatyp(siz) R M Lvl/name                 OctLoc.c.b A Datatyp(siz) R M Lvl/name

     0-0-0/w ASTR        r     1 TEXTM


   Procedure TYPEST requires 41 words for executable code.
   Procedure TYPEST requires 12 words of local(AUTO) storage.
PL6.E3A0      #016=TYPEST File=ISI$IOPROC.:E05TSI                                TUE 07/29/97 22:53 Page:346
          *** CROSS REFERENCE LISTING ***
**     DENOTES     IDENTIFIER DEFINITION
<<                 IDENTIFIER'S VALUE SET
>>                 IDENTIFIER'S VALUE USED
<>                 IDENTIFIER SET AND/OR USED
--                 IDENTIFIER REFERENCED
PL6.E3A0      #016=TYPEST File=ISI$IOPROC.:E05TSI                                TUE 07/29/97 22:53 Page:347
          MINI XREF LISTING

BUILD_MESSAGE
      1295**DCL-ENT  1304--CALL
DIG
      1283**DCL         6--PROC     1302>>CALLBLT
I
      1293**DCL      1301<<DOINDEX  1302>>CALLBLT  1302>>CALLBLT
MESSAGE
      1297**DCL      1305--CALL
MESSAGE$
      1289**DCL      1290--IMP-PTR  1300<<ASSIGN   1302>>CALLBLT  1302>>CALLBLT
MESSAGE_CNT
      1298**DCL      1305<>CALL
MINIQ_PL6
      1296**DCL-ENT  1305--CALL
STATUSM
      1285**DCL      1300--ASSIGN   1304<>CALL
TEXTM.CNT
      1291**DCL      1292--IMP-SIZ  1302>>CALLBLT
TEXTM.TXT
      1292**DCL      1302<<CALLBLT

PL6.E3A0      #017=KEYIN File=ISI$IOPROC.:E05TSI                                 TUE 07/29/97 22:53 Page:348
     1441        1        /*T***********************************************************/
     1442        2        /*T*                                                         */
     1443        3        /*T* Copyright (c) Bull HN Information Systems Inc., 1997    */
     1444        4        /*T*                                                         */
     1445        5        /*T***********************************************************/
     1446        6        KEYIN:  PROC(TXT,BUF) ALTRET;
     1447        7        /* Types a message (in TXT) ,
     1448        8           Receives an answer (in BUF) */
     1449        9        %INCLUDE IS$MACROS;
     1450     1284    1   DCL TXT CHAR(1);
     1451     1285    1   DCL 1 BUF,
     1452     1286    1         2 CNT UBIN WORD,
     1453     1287    1         2 TXT CHAR(BUF.CNT);
     1454     1288        /**/
     1455     1289    1   DCL TYPEC ENTRY(1);
     1456     1290    1   DCL MINIQ_PL6 ENTRY(5) ALTRET;
     1457     1291    1   DCL EDIT_INP ENTRY(1);
     1458     1292        /**/
     1459     1293    1           CALL TYPEC(TXT);
     1460     1294    1           CALL MINIQ_PL6(0,ADDR(BUF.TXT),BUF.CNT,%FCNRCA) ALTRET(IN_ERR);
     1461     1295    1           CALL EDIT_INP(BUF);
     1462     1296    1           RETURN;
     1463     1297    1   IN_ERR:
     1464     1298    1           ALTRETURN;
     1465     1299    1   END KEYIN;
     1466     1300        %EOD;

PL6.E3A0      #017=KEYIN File=ISI$IOPROC.:E05TSI                                 TUE 07/29/97 22:53 Page:349
--  Include file information  --

   IS$MACROS.:E05TOU  is referenced.
      No diagnostics issued in procedure KEYIN.

   Procedure KEYIN requires 26 words for executable code.
   Procedure KEYIN requires 12 words of local(AUTO) storage.

PL6.E3A0      #017=KEYIN File=ISI$IOPROC.:E05TSI                                 TUE 07/29/97 22:53 Page:350

 Object Unit name= KEYIN                                      File name= ISI$IOPROC.:E05TOU
 UTS= JUL 29 '97 22:53:17.08 TUE                              Compiler= PL-6/E31         Sev=      00
 SharedLib= :SHARED_SYSTEM                                    Alt SharedLib=


    ****  Control sections  ****

 Sect   Type Bound  Init  Size OctSiz  Section name(segment info)
    0   Proc  even  none    26     32  KEYIN
    1  RoData even  none     1      1  KEYIN

    ****  Entry defs  ****

                              Check   Calling
                             calling  sequence
  Sect OctLoc Primary Altret sequence   type   Parms  Name
     0      0   yes    yes     yes      Std        2  KEYIN

  ****  Entry refs  ****

         Check        Calling
        calling       sequence
Altret sequence SRef   type   Args  Name
         yes           Std       1 TYPEC
 yes     yes           Std       5 MINIQ_PL6
         yes           Std       1 EDIT_INP
                       nStd      0 X66_AUTO_2
                       Std       0 B_CONSPOOL_D
                       nStd      0 X66_ARET
                       nStd      0 X66_AALT

  ****  Data refs  ****

  Flags:  r = read only, s = secondary
Flgs Name                             Flgs Name                             Flgs Name
     B_VECTNIL
PL6.E3A0      #017=KEYIN File=ISI$IOPROC.:E05TSI                                 TUE 07/29/97 22:53 Page:351

  ****  Segment refs  ****

  Flags:  r = read only, s = secondary
Flgs Name                             Flgs Name                             Flgs Name
     ISSID
PL6.E3A0      #017=KEYIN File=ISI$IOPROC.:E05TSI                                 TUE 07/29/97 22:53 Page:352


     1441        1        /*T***********************************************************/
     1442        2        /*T*                                                         */
     1443        3        /*T* Copyright (c) Bull HN Information Systems Inc., 1997    */
     1444        4        /*T*                                                         */
     1445        5        /*T***********************************************************/
     1446        6        KEYIN:  PROC(TXT,BUF) ALTRET;

      6  0 000000   000000 700200 xent  KEYIN        TSX0  ! X66_AUTO_2
         0 000001   000014 000002                    ZERO    12,2

     1447        7        /* Types a message (in TXT) ,
     1448        8           Receives an answer (in BUF) */
     1449        9        %INCLUDE IS$MACROS;
     1450     1284    1   DCL TXT CHAR(1);
     1451     1285    1   DCL 1 BUF,
     1452     1286    1         2 CNT UBIN WORD,
     1453     1287    1         2 TXT CHAR(BUF.CNT);
     1454     1288        /**/
     1455     1289    1   DCL TYPEC ENTRY(1);
     1456     1290    1   DCL MINIQ_PL6 ENTRY(5) ALTRET;
     1457     1291    1   DCL EDIT_INP ENTRY(1);
     1458     1292        /**/
     1459     1293    1           CALL TYPEC(TXT);

   1293  0 000002   200003 630500                    EPPR0   @TXT,,AUTO
         0 000003   000017 631400 xsym               EPPR1   B_VECTNIL+15
         0 000004   000000 701000 xent               TSX1    TYPEC
         0 000005   000000 011000                    NOP     0

     1460     1294    1           CALL MINIQ_PL6(0,ADDR(BUF.TXT),BUF.CNT,%FCNRCA) ALTRET(IN_ERR);

   1294  0 000006   200004 236100                    LDQ     @BUF,,AUTO
         0 000007   000001 036003                    ADLQ    1,DU
         0 000010   200006 756100                    STQ     @BUF+2,,AUTO
         0 000011   000000 236000 1                  LDQ     0
         0 000012   200004 235100                    LDA     @BUF,,AUTO
PL6.E3A0      #017=KEYIN File=ISI$IOPROC.:E05TSI                                 TUE 07/29/97 22:53 Page:353
         0 000013   200012 757100                    STAQ    @BUF+6,,AUTO
         0 000014   200006 630500                    EPPR0   @BUF+2,,AUTO
         0 000015   200011 450500                    STP0    @BUF+5,,AUTO
         0 000016   000000 236000 1                  LDQ     0
         0 000017   200010 756100                    STQ     @BUF+4,,AUTO
         0 000020   200010 630500                    EPPR0   @BUF+4,,AUTO
         0 000021   000022 631400 xsym               EPPR1   B_VECTNIL+18
         0 000022   000000 701000 xent               TSX1    MINIQ_PL6
         0 000023   000031 702000 0                  TSX2    IN_ERR

     1461     1295    1           CALL EDIT_INP(BUF);

   1295  0 000024   200004 630500                    EPPR0   @BUF,,AUTO
         0 000025   000017 631400 xsym               EPPR1   B_VECTNIL+15
         0 000026   000000 701000 xent               TSX1    EDIT_INP
         0 000027   000000 011000                    NOP     0

     1462     1296    1           RETURN;

   1296  0 000030   000000 702200 xent               TSX2  ! X66_ARET

     1463     1297    1   IN_ERR:
     1464     1298    1           ALTRETURN;

   1298  0 000031   000000 702200 xent  IN_ERR       TSX2  ! X66_AALT
     1465     1299    1   END KEYIN;
     1466     1300        %EOD;

PL6.E3A0      #017=KEYIN File=ISI$IOPROC.:E05TSI                                 TUE 07/29/97 22:53 Page:354
--  Include file information  --

   IS$MACROS.:E05TOU  is referenced.
      No diagnostics issued in procedure KEYIN.
PL6.E3A0      #017=KEYIN File=ISI$IOPROC.:E05TSI                                 TUE 07/29/97 22:53 Page:355

 **** Variables and constants ****

  ****  Auto variables  ****

  ****  Scalars and arrays  ****
OctLoc.c.b A Datatyp(siz) R M Lvl/name                 OctLoc.c.b A Datatyp(siz) R M Lvl/name

     4-0-0/w PTR         r     1 @BUF                       3-0-0/w PTR         r     1 @TXT
    *0-0-0/w ASTR        r     1 BUF                       *0-0-0/c CHAR        r     1 TXT


   Procedure KEYIN requires 26 words for executable code.
   Procedure KEYIN requires 12 words of local(AUTO) storage.
PL6.E3A0      #017=KEYIN File=ISI$IOPROC.:E05TSI                                 TUE 07/29/97 22:53 Page:356
          *** CROSS REFERENCE LISTING ***
**     DENOTES     IDENTIFIER DEFINITION
<<                 IDENTIFIER'S VALUE SET
>>                 IDENTIFIER'S VALUE USED
<>                 IDENTIFIER SET AND/OR USED
--                 IDENTIFIER REFERENCED
PL6.E3A0      #017=KEYIN File=ISI$IOPROC.:E05TSI                                 TUE 07/29/97 22:53 Page:357
          MINI XREF LISTING

BUF
      1285**DCL         6--PROC     1295<>CALL
BUF.CNT
      1286**DCL      1287--IMP-SIZ  1294<>CALL     1295>>CALL
BUF.TXT
      1287**DCL      1294--CALL
EDIT_INP
      1291**DCL-ENT  1295--CALL
IN_ERR
      1298**LABEL    1294--CALLALT
MINIQ_PL6
      1290**DCL-ENT  1294--CALL
TXT
      1284**DCL         6--PROC     1293<>CALL
TYPEC
      1289**DCL-ENT  1293--CALL

PL6.E3A0      #018=KEYINX File=ISI$IOPROC.:E05TSI                                TUE 07/29/97 22:53 Page:358
     1467        1        /*T***********************************************************/
     1468        2        /*T*                                                         */
     1469        3        /*T* Copyright (c) Bull HN Information Systems Inc., 1997    */
     1470        4        /*T*                                                         */
     1471        5        /*T***********************************************************/
     1472        6        KEYINX: PROC(TXT,BUF,IANS);
     1473        7        /* Types a message (in TXT) ,
     1474        8           Receives an answer (in BUF),
     1475        9           If timeout & non_recovery->BUF=IANS
     1476       10            (answer=implicit answer)         */
     1477       11        %INCLUDE IS$MACROS;
     1478     1286    1   DCL TXT CHAR(1);
     1479     1287    1   DCL 1 BUF,
     1480     1288    1         2 CNT UBIN WORD,
     1481     1289    1         2 TXT CHAR(BUF.CNT);
     1482     1290    1   DCL 1 IANS,
     1483     1291    1         2 CNT UBIN WORD,
     1484     1292    1         2 TXT CHAR(IANS.CNT);
     1485     1293        /**/
     1486     1294    1   DCL RCV_FLG BIT(4) SYMREF;
     1487     1295    1   DCL TYPEC ENTRY(1);
     1488     1296    1   DCL MINIQ_PL6 ENTRY(5) ALTRET;
     1489     1297    1   DCL EDIT_INP ENTRY(1);
     1490     1298        /**/
     1491     1299    1           CALL TYPEC(TXT);
     1492     1300    1   GTANS:
     1493     1301    2           CALL MINIQ_PL6(0,ADDR(BUF.TXT),BUF.CNT,%FCNRCR) WHENALTRETURN DO;
              1301                    /*Command code=3,Read console ASCII return on Timeout */
     1494     1302    2                 IF RCV_FLG='0'B THEN GOTO GTANS;
     1495     1303    2                   ELSE;
     1496     1304        /* Don't timeout unless recovery */
     1497     1305    2                 BUF.CNT=IANS.CNT;
     1498     1306    2                 BUF.TXT=IANS.TXT;
     1499     1307    2               END;                        /* WHENALTRETURN                      */
     1500     1308    1           CALL EDIT_INP(BUF);
     1501     1309    1           RETURN;
     1502     1310    1   END KEYINX;
PL6.E3A0      #018=KEYINX File=ISI$IOPROC.:E05TSI                                TUE 07/29/97 22:53 Page:359
     1503     1311        %EOD;

PL6.E3A0      #018=KEYINX File=ISI$IOPROC.:E05TSI                                TUE 07/29/97 22:53 Page:360
--  Include file information  --

   IS$MACROS.:E05TOU  is referenced.
      No diagnostics issued in procedure KEYINX.

   Procedure KEYINX requires 38 words for executable code.
   Procedure KEYINX requires 12 words of local(AUTO) storage.

PL6.E3A0      #018=KEYINX File=ISI$IOPROC.:E05TSI                                TUE 07/29/97 22:53 Page:361

 Object Unit name= KEYINX                                     File name= ISI$IOPROC.:E05TOU
 UTS= JUL 29 '97 22:53:19.56 TUE                              Compiler= PL-6/E31         Sev=      00
 SharedLib= :SHARED_SYSTEM                                    Alt SharedLib=


    ****  Control sections  ****

 Sect   Type Bound  Init  Size OctSiz  Section name(segment info)
    0   Proc  even  none    38     46  KEYINX
    1  RoData even  none     2      2  KEYINX

    ****  Entry defs  ****

                              Check   Calling
                             calling  sequence
  Sect OctLoc Primary Altret sequence   type   Parms  Name
     0      0   yes            yes      Std        3  KEYINX

  ****  Entry refs  ****

         Check        Calling
        calling       sequence
Altret sequence SRef   type   Args  Name
         yes           Std       1 TYPEC
 yes     yes           Std       5 MINIQ_PL6
         yes           Std       1 EDIT_INP
                       nStd      0 X66_AUTO_3
                       Std       0 B_CONSPOOL_D
                       nStd      0 X66_ARET

  ****  Data refs  ****

  Flags:  r = read only, s = secondary
Flgs Name                             Flgs Name                             Flgs Name
     RCV_FLG                               B_VECTNIL
PL6.E3A0      #018=KEYINX File=ISI$IOPROC.:E05TSI                                TUE 07/29/97 22:53 Page:362

  ****  Segment refs  ****

  Flags:  r = read only, s = secondary
Flgs Name                             Flgs Name                             Flgs Name
     ISSID
PL6.E3A0      #018=KEYINX File=ISI$IOPROC.:E05TSI                                TUE 07/29/97 22:53 Page:363


     1467        1        /*T***********************************************************/
     1468        2        /*T*                                                         */
     1469        3        /*T* Copyright (c) Bull HN Information Systems Inc., 1997    */
     1470        4        /*T*                                                         */
     1471        5        /*T***********************************************************/
     1472        6        KEYINX: PROC(TXT,BUF,IANS);

      6  0 000000   000000 700200 xent  KEYINX       TSX0  ! X66_AUTO_3
         0 000001   000014 000003                    ZERO    12,3

     1473        7        /* Types a message (in TXT) ,
     1474        8           Receives an answer (in BUF),
     1475        9           If timeout & non_recovery->BUF=IANS
     1476       10            (answer=implicit answer)         */
     1477       11        %INCLUDE IS$MACROS;
     1478     1286    1   DCL TXT CHAR(1);
     1479     1287    1   DCL 1 BUF,
     1480     1288    1         2 CNT UBIN WORD,
     1481     1289    1         2 TXT CHAR(BUF.CNT);
     1482     1290    1   DCL 1 IANS,
     1483     1291    1         2 CNT UBIN WORD,
     1484     1292    1         2 TXT CHAR(IANS.CNT);
     1485     1293        /**/
     1486     1294    1   DCL RCV_FLG BIT(4) SYMREF;
     1487     1295    1   DCL TYPEC ENTRY(1);
     1488     1296    1   DCL MINIQ_PL6 ENTRY(5) ALTRET;
     1489     1297    1   DCL EDIT_INP ENTRY(1);
     1490     1298        /**/
     1491     1299    1           CALL TYPEC(TXT);

   1299  0 000002   200003 630500                    EPPR0   @TXT,,AUTO
         0 000003   000017 631400 xsym               EPPR1   B_VECTNIL+15
         0 000004   000000 701000 xent               TSX1    TYPEC
         0 000005   000000 011000                    NOP     0

     1492     1300    1   GTANS:
PL6.E3A0      #018=KEYINX File=ISI$IOPROC.:E05TSI                                TUE 07/29/97 22:53 Page:364
     1493     1301    2           CALL MINIQ_PL6(0,ADDR(BUF.TXT),BUF.CNT,%FCNRCR) WHENALTRETURN DO;
              1301                    /*Command code=3,Read console ASCII return on Timeout */

   1301  0 000006   200004 236100       GTANS        LDQ     @BUF,,AUTO
         0 000007   000001 036003                    ADLQ    1,DU
         0 000010   200006 756100                    STQ     @IANS+1,,AUTO
         0 000011   000000 236000 1                  LDQ     0
         0 000012   200004 235100                    LDA     @BUF,,AUTO
         0 000013   200012 757100                    STAQ    @IANS+5,,AUTO
         0 000014   200006 630500                    EPPR0   @IANS+1,,AUTO
         0 000015   200011 450500                    STP0    @IANS+4,,AUTO
         0 000016   000001 236000 1                  LDQ     1
         0 000017   200010 756100                    STQ     @IANS+3,,AUTO
         0 000020   200010 630500                    EPPR0   @IANS+3,,AUTO
         0 000021   000022 631400 xsym               EPPR1   B_VECTNIL+18
         0 000022   000000 701000 xent               TSX1    MINIQ_PL6
         0 000023   000025 702000 0                  TSX2    s:1302
         0 000024   000041 710000 0                  TRA     s:1308

     1494     1302    2                 IF RCV_FLG='0'B THEN GOTO GTANS;

   1302  0 000025   000000 236000 xsym               LDQ     RCV_FLG
         0 000026   740000 316003                    CANQ    -16384,DU
         0 000027   000006 600000 0                  TZE     GTANS

     1495     1303    2                   ELSE;
     1496     1304        /* Don't timeout unless recovery */
     1497     1305    2                 BUF.CNT=IANS.CNT;

   1305  0 000030   200005 470500                    LDP0    @IANS,,AUTO
         0 000031   200004 471500                    LDP1    @BUF,,AUTO
         0 000032   000000 235100                    LDA     0,,PR0
         0 000033   100000 755100                    STA     0,,PR1

     1498     1306    2                 BUF.TXT=IANS.TXT;

   1306  0 000034   100000 720100                    LXL0    0,,PR1
PL6.E3A0      #018=KEYINX File=ISI$IOPROC.:E05TSI                                TUE 07/29/97 22:53 Page:365
         0 000035   000000 721100                    LXL1    0,,PR0
         0 000036   040140 100540                    MLR     fill='040'O
         0 000037   000001 000011                    ADSC9   1,,PR0                   cn=0,n=*X1
         0 000040   100001 000010                    ADSC9   1,,PR1                   cn=0,n=*X0

     1499     1307    2               END;                        /* WHENALTRETURN                      */

     1500     1308    1           CALL EDIT_INP(BUF);

   1308  0 000041   200004 630500                    EPPR0   @BUF,,AUTO
         0 000042   000017 631400 xsym               EPPR1   B_VECTNIL+15
         0 000043   000000 701000 xent               TSX1    EDIT_INP
         0 000044   000000 011000                    NOP     0

     1501     1309    1           RETURN;

   1309  0 000045   000000 702200 xent               TSX2  ! X66_ARET
     1502     1310    1   END KEYINX;
     1503     1311        %EOD;

PL6.E3A0      #018=KEYINX File=ISI$IOPROC.:E05TSI                                TUE 07/29/97 22:53 Page:366
--  Include file information  --

   IS$MACROS.:E05TOU  is referenced.
      No diagnostics issued in procedure KEYINX.
PL6.E3A0      #018=KEYINX File=ISI$IOPROC.:E05TSI                                TUE 07/29/97 22:53 Page:367

 **** Variables and constants ****

  ****  Auto variables  ****

  ****  Scalars and arrays  ****
OctLoc.c.b A Datatyp(siz) R M Lvl/name                 OctLoc.c.b A Datatyp(siz) R M Lvl/name

     4-0-0/w PTR         r     1 @BUF                       5-0-0/w PTR         r     1 @IANS
     3-0-0/w PTR         r     1 @TXT                      *0-0-0/w ASTR        r     1 BUF
    *0-0-0/w ASTR        r     1 IANS                      *0-0-0/c CHAR        r     1 TXT

  ****  SYMREF variables  ****

  ****  Scalars and arrays  ****
OctLoc.c.b A Datatyp(siz) R M Lvl/name                 OctLoc.c.b A Datatyp(siz) R M Lvl/name

     0-0-0/b BIT (4)     r     1 RCV_FLG


   Procedure KEYINX requires 38 words for executable code.
   Procedure KEYINX requires 12 words of local(AUTO) storage.
PL6.E3A0      #018=KEYINX File=ISI$IOPROC.:E05TSI                                TUE 07/29/97 22:53 Page:368
          *** CROSS REFERENCE LISTING ***
**     DENOTES     IDENTIFIER DEFINITION
<<                 IDENTIFIER'S VALUE SET
>>                 IDENTIFIER'S VALUE USED
<>                 IDENTIFIER SET AND/OR USED
--                 IDENTIFIER REFERENCED
PL6.E3A0      #018=KEYINX File=ISI$IOPROC.:E05TSI                                TUE 07/29/97 22:53 Page:369
          MINI XREF LISTING

BUF
      1287**DCL         6--PROC     1308<>CALL
BUF.CNT
      1288**DCL      1289--IMP-SIZ  1301<>CALL     1305<<ASSIGN   1306>>ASSIGN   1308>>CALL
BUF.TXT
      1289**DCL      1301--CALL     1306<<ASSIGN
EDIT_INP
      1297**DCL-ENT  1308--CALL
GTANS
      1301**LABEL    1302--GOTO
IANS
      1290**DCL         6--PROC
IANS.CNT
      1291**DCL      1292--IMP-SIZ  1305>>ASSIGN   1306>>ASSIGN
IANS.TXT
      1292**DCL      1306>>ASSIGN
MINIQ_PL6
      1296**DCL-ENT  1301--CALL
RCV_FLG
      1294**DCL      1302>>IF
TXT
      1286**DCL         6--PROC     1299<>CALL
TYPEC
      1295**DCL-ENT  1299--CALL

PL6.E3A0      #019=KEYINXX File=ISI$IOPROC.:E05TSI                               TUE 07/29/97 22:53 Page:370
     1504        1        /*T***********************************************************/
     1505        2        /*T*                                                         */
     1506        3        /*T* Copyright (c) Bull HN Information Systems Inc., 1997    */
     1507        4        /*T*                                                         */
     1508        5        /*T***********************************************************/
     1509        6        KEYINXX: PROC(TXT,BUF);
     1510        7        /* Types a message (in TXT) ,
     1511        8           Receives an answer (in BUF) ,
     1512        9           When timed out, Reprompt.    */
     1513       10        %INCLUDE IS$MACROS;
     1514     1285    1   DCL TXT CHAR(1);
     1515     1286    1   DCL 1 BUF,
     1516     1287    1         2 CNT UBIN WORD,
     1517     1288    1         2 TXT CHAR(BUF.CNT);
     1518     1289        /**/
     1519     1290    1   DCL TYPEC ENTRY(1);
     1520     1291    1   DCL MINIQ_PL6 ENTRY(5) ALTRET;
     1521     1292    1   DCL EDIT_INP ENTRY(1);
     1522     1293        /**/
     1523     1294    1   REPROMPT:
     1524     1295    1           CALL TYPEC(TXT);
     1525     1296    1           CALL MINIQ_PL6(0,ADDR(BUF.TXT),BUF.CNT,%FCNRCR) ALTRET(REPROMPT);
     1526     1297    1           CALL EDIT_INP(BUF);
     1527     1298    1           RETURN;
     1528     1299    1   END KEYINXX;
     1529     1300        %EOD;

PL6.E3A0      #019=KEYINXX File=ISI$IOPROC.:E05TSI                               TUE 07/29/97 22:53 Page:371
--  Include file information  --

   IS$MACROS.:E05TOU  is referenced.
      No diagnostics issued in procedure KEYINXX.

   Procedure KEYINXX requires 25 words for executable code.
   Procedure KEYINXX requires 12 words of local(AUTO) storage.

PL6.E3A0      #019=KEYINXX File=ISI$IOPROC.:E05TSI                               TUE 07/29/97 22:53 Page:372

 Object Unit name= KEYINXX                                    File name= ISI$IOPROC.:E05TOU
 UTS= JUL 29 '97 22:53:22.36 TUE                              Compiler= PL-6/E31         Sev=      00
 SharedLib= :SHARED_SYSTEM                                    Alt SharedLib=


    ****  Control sections  ****

 Sect   Type Bound  Init  Size OctSiz  Section name(segment info)
    0   Proc  even  none    25     31  KEYINXX
    1  RoData even  none     2      2  KEYINXX

    ****  Entry defs  ****

                              Check   Calling
                             calling  sequence
  Sect OctLoc Primary Altret sequence   type   Parms  Name
     0      0   yes            yes      Std        2  KEYINXX

  ****  Entry refs  ****

         Check        Calling
        calling       sequence
Altret sequence SRef   type   Args  Name
         yes           Std       1 TYPEC
 yes     yes           Std       5 MINIQ_PL6
         yes           Std       1 EDIT_INP
                       nStd      0 X66_AUTO_2
                       Std       0 B_CONSPOOL_D
                       nStd      0 X66_ARET

  ****  Data refs  ****

  Flags:  r = read only, s = secondary
Flgs Name                             Flgs Name                             Flgs Name
     B_VECTNIL
PL6.E3A0      #019=KEYINXX File=ISI$IOPROC.:E05TSI                               TUE 07/29/97 22:53 Page:373

  ****  Segment refs  ****

  Flags:  r = read only, s = secondary
Flgs Name                             Flgs Name                             Flgs Name
     ISSID
PL6.E3A0      #019=KEYINXX File=ISI$IOPROC.:E05TSI                               TUE 07/29/97 22:53 Page:374


     1504        1        /*T***********************************************************/
     1505        2        /*T*                                                         */
     1506        3        /*T* Copyright (c) Bull HN Information Systems Inc., 1997    */
     1507        4        /*T*                                                         */
     1508        5        /*T***********************************************************/
     1509        6        KEYINXX: PROC(TXT,BUF);

      6  0 000000   000000 700200 xent  KEYINXX      TSX0  ! X66_AUTO_2
         0 000001   000014 000002                    ZERO    12,2

     1510        7        /* Types a message (in TXT) ,
     1511        8           Receives an answer (in BUF) ,
     1512        9           When timed out, Reprompt.    */
     1513       10        %INCLUDE IS$MACROS;
     1514     1285    1   DCL TXT CHAR(1);
     1515     1286    1   DCL 1 BUF,
     1516     1287    1         2 CNT UBIN WORD,
     1517     1288    1         2 TXT CHAR(BUF.CNT);
     1518     1289        /**/
     1519     1290    1   DCL TYPEC ENTRY(1);
     1520     1291    1   DCL MINIQ_PL6 ENTRY(5) ALTRET;
     1521     1292    1   DCL EDIT_INP ENTRY(1);
     1522     1293        /**/
     1523     1294    1   REPROMPT:
     1524     1295    1           CALL TYPEC(TXT);

   1295  0 000002   200003 630500       REPROMPT     EPPR0   @TXT,,AUTO
         0 000003   000017 631400 xsym               EPPR1   B_VECTNIL+15
         0 000004   000000 701000 xent               TSX1    TYPEC
         0 000005   000000 011000                    NOP     0

     1525     1296    1           CALL MINIQ_PL6(0,ADDR(BUF.TXT),BUF.CNT,%FCNRCR) ALTRET(REPROMPT);

   1296  0 000006   200004 236100                    LDQ     @BUF,,AUTO
         0 000007   000001 036003                    ADLQ    1,DU
         0 000010   200006 756100                    STQ     @BUF+2,,AUTO
PL6.E3A0      #019=KEYINXX File=ISI$IOPROC.:E05TSI                               TUE 07/29/97 22:53 Page:375
         0 000011   000000 236000 1                  LDQ     0
         0 000012   200004 235100                    LDA     @BUF,,AUTO
         0 000013   200012 757100                    STAQ    @BUF+6,,AUTO
         0 000014   200006 630500                    EPPR0   @BUF+2,,AUTO
         0 000015   200011 450500                    STP0    @BUF+5,,AUTO
         0 000016   000001 236000 1                  LDQ     1
         0 000017   200010 756100                    STQ     @BUF+4,,AUTO
         0 000020   200010 630500                    EPPR0   @BUF+4,,AUTO
         0 000021   000022 631400 xsym               EPPR1   B_VECTNIL+18
         0 000022   000000 701000 xent               TSX1    MINIQ_PL6
         0 000023   000002 702000 0                  TSX2    REPROMPT

     1526     1297    1           CALL EDIT_INP(BUF);

   1297  0 000024   200004 630500                    EPPR0   @BUF,,AUTO
         0 000025   000017 631400 xsym               EPPR1   B_VECTNIL+15
         0 000026   000000 701000 xent               TSX1    EDIT_INP
         0 000027   000000 011000                    NOP     0

     1527     1298    1           RETURN;

   1298  0 000030   000000 702200 xent               TSX2  ! X66_ARET
     1528     1299    1   END KEYINXX;
     1529     1300        %EOD;

PL6.E3A0      #019=KEYINXX File=ISI$IOPROC.:E05TSI                               TUE 07/29/97 22:53 Page:376
--  Include file information  --

   IS$MACROS.:E05TOU  is referenced.
      No diagnostics issued in procedure KEYINXX.
PL6.E3A0      #019=KEYINXX File=ISI$IOPROC.:E05TSI                               TUE 07/29/97 22:53 Page:377

 **** Variables and constants ****

  ****  Auto variables  ****

  ****  Scalars and arrays  ****
OctLoc.c.b A Datatyp(siz) R M Lvl/name                 OctLoc.c.b A Datatyp(siz) R M Lvl/name

     4-0-0/w PTR         r     1 @BUF                       3-0-0/w PTR         r     1 @TXT
    *0-0-0/w ASTR        r     1 BUF                       *0-0-0/c CHAR        r     1 TXT


   Procedure KEYINXX requires 25 words for executable code.
   Procedure KEYINXX requires 12 words of local(AUTO) storage.
PL6.E3A0      #019=KEYINXX File=ISI$IOPROC.:E05TSI                               TUE 07/29/97 22:53 Page:378
          *** CROSS REFERENCE LISTING ***
**     DENOTES     IDENTIFIER DEFINITION
<<                 IDENTIFIER'S VALUE SET
>>                 IDENTIFIER'S VALUE USED
<>                 IDENTIFIER SET AND/OR USED
--                 IDENTIFIER REFERENCED
PL6.E3A0      #019=KEYINXX File=ISI$IOPROC.:E05TSI                               TUE 07/29/97 22:53 Page:379
          MINI XREF LISTING

BUF
      1286**DCL         6--PROC     1297<>CALL
BUF.CNT
      1287**DCL      1288--IMP-SIZ  1296<>CALL     1297>>CALL
BUF.TXT
      1288**DCL      1296--CALL
EDIT_INP
      1292**DCL-ENT  1297--CALL
MINIQ_PL6
      1291**DCL-ENT  1296--CALL
REPROMPT
      1295**LABEL    1296--CALLALT
TXT
      1285**DCL         6--PROC     1295<>CALL
TYPEC
      1290**DCL-ENT  1295--CALL

PL6.E3A0      #020=EDIT_INP File=ISI$IOPROC.:E05TSI                              TUE 07/29/97 22:53 Page:380
     1530        1        /*T***********************************************************/
     1531        2        /*T*                                                         */
     1532        3        /*T* Copyright (c) Bull HN Information Systems Inc., 1997    */
     1533        4        /*T*                                                         */
     1534        5        /*T***********************************************************/
     1535        6        EDIT_INP:PROC(BUF);
     1536        7        /* Edits a console input string */
     1537        8        /* (any character followed by DEL or BS is deleted) */
     1538        9        /**/
     1539       10    1   DCL 1 BUF,
     1540       11    1         2 CNT UBIN WORD,
     1541       12    1         2 TXT CHAR(BUF.CNT);
     1542       13        /**/
     1543       14    1   DCL BDEL BIT(9) CALIGNED STATIC INIT('177'O); /* ASCII for DEL                */
     1544       15    1   DCL DEL REDEF BDEL CHAR(1);
     1545       16    1   DCL BBS BIT(9) CALIGNED STATIC INIT('010'O); /* ASCII for BS                  */
     1546       17    1   DCL BS REDEF BBS CHAR(1);
     1547       18    1   DCL CH CHAR(1);
     1548       19    1   DCL I UBIN WORD;
     1549       20    1   DCL J UBIN WORD;
     1550       21        /**/
     1551       22    1           I=0;
     1552       23    2           DO J=0 TO BUF.CNT-1;
     1553       24    2             CH=SUBSTR(BUF.TXT,I,1);
     1554       25    3             IF CH=DEL OR CH=BS THEN DO;
     1555       26    3                   IF I=0 THEN SUBSTR(BUF.TXT,0)=SUBSTR(BUF.TXT,1);
     1556       27    4                     ELSE DO;
     1557       28    4                         SUBSTR(BUF.TXT,I-1)=SUBSTR(BUF.TXT,I+1);
     1558       29    4                         I=I-1;
     1559       30    4                       END;                /* ELSE                               */
     1560       31    3                 END;                      /*THEN                                */
     1561       32    2               ELSE I=I+1;
     1562       33    2           END;                            /* DO                                 */
     1563       34    1           RETURN;
     1564       35    1   END EDIT_INP;
     1565       36        %EOD;

PL6.E3A0      #020=EDIT_INP File=ISI$IOPROC.:E05TSI                              TUE 07/29/97 22:53 Page:381
      No diagnostics issued in procedure EDIT_INP.

   Procedure EDIT_INP requires 52 words for executable code.
   Procedure EDIT_INP requires 10 words of local(AUTO) storage.

PL6.E3A0      #020=EDIT_INP File=ISI$IOPROC.:E05TSI                              TUE 07/29/97 22:53 Page:382

 Object Unit name= EDIT_INP                                   File name= ISI$IOPROC.:E05TOU
 UTS= JUL 29 '97 22:53:24.88 TUE                              Compiler= PL-6/E31         Sev=      00
 SharedLib= :SHARED_SYSTEM                                    Alt SharedLib=


    ****  Control sections  ****

 Sect   Type Bound  Init  Size OctSiz  Section name(segment info)
    0   Data  even  none     2      2  EDIT_INP
    1   Proc  even  none    52     64  EDIT_INP

    ****  Entry defs  ****

                              Check   Calling
                             calling  sequence
  Sect OctLoc Primary Altret sequence   type   Parms  Name
     1      0   yes            yes      Std        1  EDIT_INP

  ****  Entry refs  ****

         Check        Calling
        calling       sequence
Altret sequence SRef   type   Args  Name
                       nStd      0 X66_AUTO_1
                       nStd      0 X66_ARET
PL6.E3A0      #020=EDIT_INP File=ISI$IOPROC.:E05TSI                              TUE 07/29/97 22:53 Page:383


     1530        1        /*T***********************************************************/
     1531        2        /*T*                                                         */
     1532        3        /*T* Copyright (c) Bull HN Information Systems Inc., 1997    */
     1533        4        /*T*                                                         */
     1534        5        /*T***********************************************************/
     1535        6        EDIT_INP:PROC(BUF);

      6  1 000000   000000 700200 xent  EDIT_INP     TSX0  ! X66_AUTO_1
         1 000001   000012 000001                    ZERO    10,1

     1536        7        /* Edits a console input string */
     1537        8        /* (any character followed by DEL or BS is deleted) */
     1538        9        /**/
     1539       10    1   DCL 1 BUF,
     1540       11    1         2 CNT UBIN WORD,
     1541       12    1         2 TXT CHAR(BUF.CNT);
     1542       13        /**/
     1543       14    1   DCL BDEL BIT(9) CALIGNED STATIC INIT('177'O); /* ASCII for DEL                */
     1544       15    1   DCL DEL REDEF BDEL CHAR(1);
     1545       16    1   DCL BBS BIT(9) CALIGNED STATIC INIT('010'O); /* ASCII for BS                  */
     1546       17    1   DCL BS REDEF BBS CHAR(1);
     1547       18    1   DCL CH CHAR(1);
     1548       19    1   DCL I UBIN WORD;
     1549       20    1   DCL J UBIN WORD;
     1550       21        /**/
     1551       22    1           I=0;

     22  1 000002   200005 450100                    STZ     I,,AUTO

     1552       23    2           DO J=0 TO BUF.CNT-1;

     23  1 000003   200006 450100                    STZ     J,,AUTO
         1 000004   000057 710000 1                  TRA     s:33+3

     1553       24    2             CH=SUBSTR(BUF.TXT,I,1);

PL6.E3A0      #020=EDIT_INP File=ISI$IOPROC.:E05TSI                              TUE 07/29/97 22:53 Page:384
     24  1 000005   200003 470500                    LDP0    @BUF,,AUTO
         1 000006   000000 720100                    LXL0    0,,PR0
         1 000007   200005 235100                    LDA     I,,AUTO
         1 000010   040100 100505                    MLR     fill='040'O
         1 000011   000001 000001                    ADSC9   1,A,PR0                  cn=0,n=1
         1 000012   200004 000001                    ADSC9   CH,,AUTO                 cn=0,n=1

     1554       25    3             IF CH=DEL OR CH=BS THEN DO;

     25  1 000013   200004 236100                    LDQ     CH,,AUTO
         1 000014   000000 676000 0                  ERQ     BDEL
         1 000015   777000 376003                    ANQ     -512,DU
         1 000016   000023 600000 1                  TZE     s:26
         1 000017   200004 236100                    LDQ     CH,,AUTO
         1 000020   000001 676000 0                  ERQ     BBS
         1 000021   777000 376003                    ANQ     -512,DU
         1 000022   000052 601000 1                  TNZ     s:32

     1555       26    3                   IF I=0 THEN SUBSTR(BUF.TXT,0)=SUBSTR(BUF.TXT,1);

     26  1 000023   000000 115003                    CMPA    0,DU
         1 000024   000032 601000 1                  TNZ     s:28

     26  1 000025   777777 621010                    EAX1    -1,X0
         1 000026   040140 100540                    MLR     fill='040'O
         1 000027   000001 200011                    ADSC9   1,,PR0                   cn=1,n=*X1
         1 000030   000001 000010                    ADSC9   1,,PR0                   cn=0,n=*X0
         1 000031   000054 710000 1                  TRA     s:33

     1556       27    4                     ELSE DO;

     1557       28    4                         SUBSTR(BUF.TXT,I-1)=SUBSTR(BUF.TXT,I+1);

     28  1 000032   000000 636010                    EAQ     0,X0
         1 000033   000022 772000                    QRL     18
         1 000034   200005 136100                    SBLQ    I,,AUTO
         1 000035   200010 756100                    STQ     J+2,,AUTO
PL6.E3A0      #020=EDIT_INP File=ISI$IOPROC.:E05TSI                              TUE 07/29/97 22:53 Page:385
         1 000036   000000 636010                    EAQ     0,X0
         1 000037   000022 772000                    QRL     18
         1 000040   200005 136100                    SBLQ    I,,AUTO
         1 000041   777777 620006                    EAX0    -1,QL
         1 000042   200010 721100                    LXL1    J+2,,AUTO
         1 000043   000001 622011                    EAX2    1,X1
         1 000044   040145 100545                    MLR     fill='040'O
         1 000045   000001 200010                    ADSC9   1,A,PR0                  cn=1,n=*X0
         1 000046   000000 600012                    ADSC9   0,A,PR0                  cn=3,n=*X2

     1558       29    4                         I=I-1;

     29  1 000047   000001 135007                    SBLA    1,DL
         1 000050   200005 755100                    STA     I,,AUTO

     1559       30    4                       END;                /* ELSE                               */

     1560       31    3                 END;                      /*THEN                                */

     31  1 000051   000054 710000 1                  TRA     s:33

     1561       32    2               ELSE I=I+1;

     32  1 000052   000001 035007                    ADLA    1,DL
         1 000053   200005 755100                    STA     I,,AUTO

     1562       33    2           END;                            /* DO                                 */

     33  1 000054   200006 236100                    LDQ     J,,AUTO
         1 000055   000001 036007                    ADLQ    1,DL
         1 000056   200006 756100                    STQ     J,,AUTO
         1 000057   200003 470500                    LDP0    @BUF,,AUTO
         1 000060   200006 236100                    LDQ     J,,AUTO
         1 000061   000000 116100                    CMPQ    0,,PR0
         1 000062   000005 602000 1                  TNC     s:24

     1563       34    1           RETURN;
PL6.E3A0      #020=EDIT_INP File=ISI$IOPROC.:E05TSI                              TUE 07/29/97 22:53 Page:386

     34  1 000063   000000 702200 xent               TSX2  ! X66_ARET
     1564       35    1   END EDIT_INP;
     1565       36        %EOD;

PL6.E3A0      #020=EDIT_INP File=ISI$IOPROC.:E05TSI                              TUE 07/29/97 22:53 Page:387
      No diagnostics issued in procedure EDIT_INP.
PL6.E3A0      #020=EDIT_INP File=ISI$IOPROC.:E05TSI                              TUE 07/29/97 22:53 Page:388

 **** Variables and constants ****

  ****  Section 000  Data  EDIT_INP

  ****  Scalars and arrays  ****
OctLoc.c.b A Datatyp(siz) R M Lvl/name                 OctLoc.c.b A Datatyp(siz) R M Lvl/name

     1-0-0/c BIT (9)     r     1 BBS                        0-0-0/c BIT (9)     r     1 BDEL
     1-0-0/c CHAR        r     1 BS                         0-0-0/c CHAR        r     1 DEL

  ****  Auto variables  ****

  ****  Scalars and arrays  ****
OctLoc.c.b A Datatyp(siz) R M Lvl/name                 OctLoc.c.b A Datatyp(siz) R M Lvl/name

     3-0-0/w PTR         r     1 @BUF                      *0-0-0/w ASTR        r     1 BUF
     4-0-0/c CHAR        r     1 CH                         5-0-0/w UBIN        r     1 I
     6-0-0/w UBIN        r     1 J


   Procedure EDIT_INP requires 52 words for executable code.
   Procedure EDIT_INP requires 10 words of local(AUTO) storage.
PL6.E3A0      #020=EDIT_INP File=ISI$IOPROC.:E05TSI                              TUE 07/29/97 22:53 Page:389
          *** CROSS REFERENCE LISTING ***
**     DENOTES     IDENTIFIER DEFINITION
<<                 IDENTIFIER'S VALUE SET
>>                 IDENTIFIER'S VALUE USED
<>                 IDENTIFIER SET AND/OR USED
--                 IDENTIFIER REFERENCED
PL6.E3A0      #020=EDIT_INP File=ISI$IOPROC.:E05TSI                              TUE 07/29/97 22:53 Page:390
          MINI XREF LISTING

BBS
        16**DCL        17--REDEF
BDEL
        14**DCL        15--REDEF
BS
        17**DCL        25>>IF
BUF
        10**DCL         6--PROC
BUF.CNT
        11**DCL        12--IMP-SIZ    23>>DOINDEX    24>>ASSIGN     26>>ASSIGN     26>>ASSIGN     28>>ASSIGN
        28>>ASSIGN
BUF.TXT
        12**DCL        24>>ASSIGN     26<<ASSIGN     26>>ASSIGN     28<<ASSIGN     28>>ASSIGN
CH
        18**DCL        24<<ASSIGN     25>>IF         25>>IF
DEL
        15**DCL        25>>IF
I
        19**DCL        22<<ASSIGN     24>>ASSIGN     26>>IF         28>>ASSIGN     28>>ASSIGN     29<<ASSIGN
        29>>ASSIGN     32<<ASSIGN     32>>ASSIGN
J
        20**DCL        23<<DOINDEX

PL6.E3A0      #021=UPPER_CASE File=ISI$IOPROC.:E05TSI                            TUE 07/29/97 22:53 Page:391
     1566        1        /*T***********************************************************/
     1567        2        /*T*                                                         */
     1568        3        /*T* Copyright (c) Bull HN Information Systems Inc., 1997    */
     1569        4        /*T*                                                         */
     1570        5        /*T***********************************************************/
     1571        6        UPPER_CASE:PROC(BUF,L);
     1572        7        /* Converts characters in BUF on length L
     1573        8            in upper_case characters               */
     1574        9        %INCLUDE IS$MACROS;
     1575     1284    1   DCL L UBIN WORD;
     1576     1285    1   DCL BUF CHAR(L);
     1577     1286    1   DCL BCH BIT(9) CALIGNED BASED(CH$);
     1578     1287    1   DCL BINCH UBIN(9) CALIGNED BASED(CH$);
     1579     1288    1   DCL OLLIM BIT(9) CALIGNED STATIC INIT('141'O); /* Lower limit of low case ASCII */
     1580     1289    1   DCL LLIM REDEF OLLIM UBIN(9) UNAL;
     1581     1290    1   DCL OULIM BIT(9) CALIGNED STATIC INIT('172'O); /* Upper limit of low case ASCII */
     1582     1291    1   DCL ULIM REDEF OULIM UBIN(9) UNAL;
     1583     1292        %PTR_STRUCT(NAME=CH_PTR,STCLASS="STATIC");
     1584     1310    1   DCL CH$ REDEF CH_PTR PTR;
     1585     1311    1   DCL 1 CH_AD REDEF CH_PTR,
     1586     1312    1         2 BYTEAD UBIN(20) UNAL,
     1587     1313    1         2 * BIT(16);
     1588     1314    1   DCL UP BIT(9) CALIGNED STATIC INIT('737'O);
     1589     1315    1   DCL I UBIN WORD;
     1590     1316        /**/
     1591     1317    1           CH$=ADDR(BUF);
     1592     1318    2           DO I=0 TO L-1;
     1593     1319    2             IF(BINCH>=LLIM AND BINCH<=ULIM) THEN BCH=BCH&UP;
     1594     1320    2               ELSE;
     1595     1321        /* Update POINTER to next character */
     1596     1322    2             CH_AD.BYTEAD=CH_AD.BYTEAD+1;
     1597     1323    2           END;                            /* DO                                 */
     1598     1324    1           RETURN;
     1599     1325    1   END UPPER_CASE;
     1600     1326        %EOD;

PL6.E3A0      #021=UPPER_CASE File=ISI$IOPROC.:E05TSI                            TUE 07/29/97 22:53 Page:392
--  Include file information  --

   IS$MACROS.:E05TOU  is referenced.
      No diagnostics issued in procedure UPPER_CASE.

   Procedure UPPER_CASE requires 50 words for executable code.
   Procedure UPPER_CASE requires 10 words of local(AUTO) storage.

PL6.E3A0      #021=UPPER_CASE File=ISI$IOPROC.:E05TSI                            TUE 07/29/97 22:53 Page:393

 Object Unit name= UPPER_CASE                                 File name= ISI$IOPROC.:E05TOU
 UTS= JUL 29 '97 22:53:26.68 TUE                              Compiler= PL-6/E31         Sev=      00
 SharedLib= :SHARED_SYSTEM                                    Alt SharedLib=


    ****  Control sections  ****

 Sect   Type Bound  Init  Size OctSiz  Section name(segment info)
    0   Data  even  none     4      4  UPPER_CASE
    1   Proc  even  none    50     62  UPPER_CASE

    ****  Entry defs  ****

                              Check   Calling
                             calling  sequence
  Sect OctLoc Primary Altret sequence   type   Parms  Name
     1      0   yes            yes      Std        2  UPPER_CASE

  ****  Entry refs  ****

         Check        Calling
        calling       sequence
Altret sequence SRef   type   Args  Name
                       nStd      0 X66_AUTO_2
                       Std       0 B_CONSPOOL_D
                       nStd      0 X66_ARET

  ****  Data refs  ****

  Flags:  r = read only, s = secondary
Flgs Name                             Flgs Name                             Flgs Name
     B_VECTNIL
PL6.E3A0      #021=UPPER_CASE File=ISI$IOPROC.:E05TSI                            TUE 07/29/97 22:53 Page:394


     1566        1        /*T***********************************************************/
     1567        2        /*T*                                                         */
     1568        3        /*T* Copyright (c) Bull HN Information Systems Inc., 1997    */
     1569        4        /*T*                                                         */
     1570        5        /*T***********************************************************/
     1571        6        UPPER_CASE:PROC(BUF,L);

      6  1 000000   000000 700200 xent  UPPER_CASE   TSX0  ! X66_AUTO_2
         1 000001   000012 000002                    ZERO    10,2

     1572        7        /* Converts characters in BUF on length L
     1573        8            in upper_case characters               */
     1574        9        %INCLUDE IS$MACROS;
     1575     1284    1   DCL L UBIN WORD;
     1576     1285    1   DCL BUF CHAR(L);
     1577     1286    1   DCL BCH BIT(9) CALIGNED BASED(CH$);
     1578     1287    1   DCL BINCH UBIN(9) CALIGNED BASED(CH$);
     1579     1288    1   DCL OLLIM BIT(9) CALIGNED STATIC INIT('141'O); /* Lower limit of low case ASCII */
     1580     1289    1   DCL LLIM REDEF OLLIM UBIN(9) UNAL;
     1581     1290    1   DCL OULIM BIT(9) CALIGNED STATIC INIT('172'O); /* Upper limit of low case ASCII */
     1582     1291    1   DCL ULIM REDEF OULIM UBIN(9) UNAL;
     1583     1292        %PTR_STRUCT(NAME=CH_PTR,STCLASS="STATIC");
     1584     1310    1   DCL CH$ REDEF CH_PTR PTR;
     1585     1311    1   DCL 1 CH_AD REDEF CH_PTR,
     1586     1312    1         2 BYTEAD UBIN(20) UNAL,
     1587     1313    1         2 * BIT(16);
     1588     1314    1   DCL UP BIT(9) CALIGNED STATIC INIT('737'O);
     1589     1315    1   DCL I UBIN WORD;
     1590     1316        /**/
     1591     1317    1           CH$=ADDR(BUF);

   1317  1 000002   200003 236100                    LDQ     @BUF,,AUTO
         1 000003   000002 756000 0                  STQ     CH_PTR

     1592     1318    2           DO I=0 TO L-1;

PL6.E3A0      #021=UPPER_CASE File=ISI$IOPROC.:E05TSI                            TUE 07/29/97 22:53 Page:395
   1318  1 000004   200005 450100                    STZ     I,,AUTO
         1 000005   000055 710000 1                  TRA     s:1323+3

     1593     1319    2             IF(BINCH>=LLIM AND BINCH<=ULIM) THEN BCH=BCH&UP;

   1319  1 000006   000000 236000 0                  LDQ     OLLIM
         1 000007   000033 772000                    QRL     27
         1 000010   200006 756100                    STQ     I+1,,AUTO
         1 000011   000002 470400 0                  LDP0    CH_PTR
         1 000012   000100 101500                    MRL     fill='000'O
         1 000013   000000 000001                    ADSC9   0,,PR0                   cn=0,n=1
         1 000014   200007 000004                    ADSC9   I+2,,AUTO                cn=0,n=4
         1 000015   200007 236100                    LDQ     I+2,,AUTO
         1 000016   200006 116100                    CMPQ    I+1,,AUTO
         1 000017   000043 604000 1                  TMI     s:1322
         1 000020   000100 101500                    MRL     fill='000'O
         1 000021   000000 000001                    ADSC9   0,,PR0                   cn=0,n=1
         1 000022   200010 000004                    ADSC9   I+3,,AUTO                cn=0,n=4
         1 000023   000001 236000 0                  LDQ     OULIM
         1 000024   000033 772000                    QRL     27
         1 000025   200010 116100                    CMPQ    I+3,,AUTO
         1 000026   000043 604000 1                  TMI     s:1322

   1319  1 000027   000003 236000 0                  LDQ     UP
         1 000030   777000 376003                    ANQ     -512,DU
         1 000031   200006 756100                    STQ     I+1,,AUTO
         1 000032   000100 100500                    MLR     fill='000'O
         1 000033   000000 000001                    ADSC9   0,,PR0                   cn=0,n=1
         1 000034   200007 000004                    ADSC9   I+2,,AUTO                cn=0,n=4
         1 000035   200007 236100                    LDQ     I+2,,AUTO
         1 000036   200006 376100                    ANQ     I+1,,AUTO
         1 000037   200010 756100                    STQ     I+3,,AUTO
         1 000040   000100 100500                    MLR     fill='000'O
         1 000041   200010 000004                    ADSC9   I+3,,AUTO                cn=0,n=4
         1 000042   000000 000001                    ADSC9   0,,PR0                   cn=0,n=1

     1594     1320    2               ELSE;
PL6.E3A0      #021=UPPER_CASE File=ISI$IOPROC.:E05TSI                            TUE 07/29/97 22:53 Page:396
     1595     1321        /* Update POINTER to next character */
     1596     1322    2             CH_AD.BYTEAD=CH_AD.BYTEAD+1;

   1322  1 000043   000002 236000 0                  LDQ     CH_PTR
         1 000044   000020 772000                    QRL     16
         1 000045   000001 036007                    ADLQ    1,DL
         1 000046   000020 736000                    QLS     16
         1 000047   000002 676000 0                  ERQ     CH_PTR
         1 000050   000034 376000 xsym               ANQ     B_VECTNIL+28
         1 000051   000002 656000 0                  ERSQ    CH_PTR

     1597     1323    2           END;                            /* DO                                 */

   1323  1 000052   200005 235100                    LDA     I,,AUTO
         1 000053   000001 035007                    ADLA    1,DL
         1 000054   200005 755100                    STA     I,,AUTO
         1 000055   200004 470500                    LDP0    @L,,AUTO
         1 000056   200005 236100                    LDQ     I,,AUTO
         1 000057   000000 116100                    CMPQ    0,,PR0
         1 000060   000006 602000 1                  TNC     s:1319

     1598     1324    1           RETURN;

   1324  1 000061   000000 702200 xent               TSX2  ! X66_ARET
     1599     1325    1   END UPPER_CASE;
     1600     1326        %EOD;

PL6.E3A0      #021=UPPER_CASE File=ISI$IOPROC.:E05TSI                            TUE 07/29/97 22:53 Page:397
--  Include file information  --

   IS$MACROS.:E05TOU  is referenced.
      No diagnostics issued in procedure UPPER_CASE.
PL6.E3A0      #021=UPPER_CASE File=ISI$IOPROC.:E05TSI                            TUE 07/29/97 22:53 Page:398

 **** Variables and constants ****

  ****  Section 000  Data  UPPER_CASE

  ****  Scalars and arrays  ****
OctLoc.c.b A Datatyp(siz) R M Lvl/name                 OctLoc.c.b A Datatyp(siz) R M Lvl/name

     2-0-0/w PTR         r     1 CH$                        2-0-0/w STRC        r     1 CH_AD
     2-0-0/w STRC        r     1 CH_PTR                     0-0-0/c UBIN(9)     r     1 LLIM
     0-0-0/c BIT (9)     r     1 OLLIM                      1-0-0/c BIT (9)     r     1 OULIM
     1-0-0/c UBIN(9)     r     1 ULIM                       3-0-0/c BIT (9)     r     1 UP

  ****  Auto variables  ****

  ****  Scalars and arrays  ****
OctLoc.c.b A Datatyp(siz) R M Lvl/name                 OctLoc.c.b A Datatyp(siz) R M Lvl/name

     3-0-0/w PTR         r     1 @BUF                       4-0-0/w PTR         r     1 @L
    *0-0-0/c ACHR        r     1 BUF                        5-0-0/w UBIN        r     1 I
    *0-0-0/w UBIN        r     1 L

  ****  BASED and DCB variables  ****

  ****  Scalars and arrays  ****
OctLoc.c.b A Datatyp(siz) R M Lvl/name                 OctLoc.c.b A Datatyp(siz) R M Lvl/name

     0-0-0/c BIT (9)     r     1 BCH                        0-0-0/c UBIN(9)     r     1 BINCH


   Procedure UPPER_CASE requires 50 words for executable code.
   Procedure UPPER_CASE requires 10 words of local(AUTO) storage.
PL6.E3A0      #021=UPPER_CASE File=ISI$IOPROC.:E05TSI                            TUE 07/29/97 22:53 Page:399
          *** CROSS REFERENCE LISTING ***
**     DENOTES     IDENTIFIER DEFINITION
<<                 IDENTIFIER'S VALUE SET
>>                 IDENTIFIER'S VALUE USED
<>                 IDENTIFIER SET AND/OR USED
--                 IDENTIFIER REFERENCED
PL6.E3A0      #021=UPPER_CASE File=ISI$IOPROC.:E05TSI                            TUE 07/29/97 22:53 Page:400
          MINI XREF LISTING

BCH
      1286**DCL      1319<<ASSIGN   1319>>ASSIGN
BINCH
      1287**DCL      1319>>IF       1319>>IF
BUF
      1285**DCL         6--PROC     1317--ASSIGN
CH$
      1310**DCL      1286--IMP-PTR  1287--IMP-PTR  1317<<ASSIGN   1319>>IF       1319>>IF       1319>>ASSIGN
      1319>>ASSIGN
CH_AD.BYTEAD
      1312**DCL      1322<<ASSIGN   1322>>ASSIGN
CH_PTR
      1303**DCL      1310--REDEF    1311--REDEF
I
      1315**DCL      1318<<DOINDEX
L
      1284**DCL         6--PROC     1285--IMP-SIZ  1318>>DOINDEX
LLIM
      1289**DCL      1319>>IF
OLLIM
      1288**DCL      1289--REDEF
OULIM
      1290**DCL      1291--REDEF
ULIM
      1291**DCL      1319>>IF
UP
      1314**DCL      1319>>ASSIGN

