VERSION E05

 22:54 07/29/97  FILE=ISI$MINI.:E05TSI                                                                   1    BMAP - B00
                                         1  *M*    ISI$MINI_DELTA - AARDVARK
                                         2  *T***********************************************************
                                         3  *T*                                                         *
                                         4  *T* Copyright (c) Bull HN Information Systems Inc., 1997    *
                                         5  *T*                                                         *
                                         6  *T***********************************************************
             000000000001                7  BMAP   SET     1               0 -> GMAP     1 -> BMAP
             000000000001                8  AARDVARK SET   1               SEE IS$MACROS (TEMPORARY -> SHOULD BE 0)

 22:54 07/29/97  FILE=ISI$MINI.:E05TSI        M I N I - D E L T A  -  O C E L O T - 0 0                  2    BMAP - B00
                                         9         TTL     M I N I - D E L T A  -  O C E L O T - 0 0
                                        10         ENTDEF  MDELTA          PATCHING ENTRY
                                        11         ENTDEF  BINCHR
                                        12         ENTDEF  DRLH            AARDVARK FAULT ENTRY
                                        13         ENTDEF  MDELTA          PATCHING ENTRY
                                        14         ENTREF  GT_SYSPACKAD
                                        15         ENTREF  GT_PACK
                                        16         ENTREF  LDSPWS
                                        17         ENTREF  MINIQ_PL6
                                        18         ENTREF  MINIQC_PL6
                                        19         ENTREF  KEYIN
                                        20         ENTREF  WRITE_PATCH
                                        21         ENTREF  READ_PATCH
                                        22         ENTREF  DBOOT           'DBOO' COMMAND
                                        23         ENTREF  RCVR
                                        24         ENTREF  XDRET           X-DELTA RETURN (DRL -4)
                                        25         ENTREF  X66_MSTATIC
                                        26         SYMREF  DESAAAUTO
                                        27         SYMREF  I$AAAUTO$
                                        28         SYMDEF  FLTSW
                                        29         SYMDEF  MINID
                                        30         SYMDEF  TQFLAG
                                        31         SYMREF     AAFLTD
                                        32         SYMREF  AFLTLC
                                        33         SYMREF  BSNLS
                                        34         SYMREF  DEVINFO
                                        35         SYMREF  DESC0
                                        36         SYMREF  DESCCP
                                        37         SYMREF  DESCMI
                                        38         SYMREF  DESCRL
                                        39         SYMREF  DESCTEMP
                                        40         SYMREF  DESCUI
                                        41         SYMREF  DESCXI
                                        42         SYMREF  SYS_DPX         INDEX OF SYSTEM DISK
                                        43         SYMREF  REC_DPX         INDEX OF RECOVERY DISK
                                        44         SYMREF  I$TYP0$
                                        45         SYMREF  I$MLS$
 22:54 07/29/97  FILE=ISI$MINI.:E05TSI        M I N I - D E L T A  -  O C E L O T - 0 0                  3    BMAP - B00
                                        46         SYMREF  I$PO$
                                        47         SYMREF  I$REAL$
                                        48         SYMREF  I$TEMP$
                                        49         ENTREF  IRR$RECOVER     SYMBOL TABLE DEFINITION = IRR
                                        50         SYMREF  MONLSR
                                        51         SYMREF  PDEV            N.Z. -> READ VIA PATCH DEVICE
                                        52         SYMREF  PMASK
                                        53         SYMREF  POBUF
                                        54         SYMREF  PO_INDX
                                        55         SYMREF  PODESC
                                        56         SYMREF  RPM_FLG
                                        57         ENTREF  IR_BUFF_D       SYMBOL TABLE DEFINITION = BUFF
                                        58         ENTREF  IRD$DUMP        SYMBOL TABLE DEFINITION = IRD
                                        59         ENTREF  IRD$DUMP2       SYMBOL TABLE DEFINITION = DUMP2
                                        60         ENTREF  IRF$CLSF        SYMBOL TABLE DEFINITION = CLSF
                                        61         ENTREF  IRN$RCVRIO      SYMBOL TABLE DEFINITION = RCVRIO
                                        62         ENTREF  IRN$MINIQ       SYMBOL TABLE DEFINITION = JTQ
                                        63         SYMREF  S1000_FLG       N.Z. -> S1000
                                        64         SYMREF  SPW1
                                        65         SYMREF  SPW2
                                        66         SYMREF  SPW3
                                        67         SYMREF  SPWF
                                        68         SYMREF  SPWI
                                        69         SYMREF  TEMPD
                                        70         SYMREF  XDFLAG          X-DELTA RETURN FLAG
                                        71  *  SYMBOLIC REGISTER DEFINITIONS
             000000000000               72  X0     EQU     0
             000000000001               73  X1     EQU     1
             000000000002               74  X2     EQU     2
             000000000003               75  X3     EQU     3
             000000000004               76  X4     EQU     4
             000000000005               77  X5     EQU     5               RESERVE FOR USE WITH DR.USE
             000000000006               78  X6     EQU     6
             000000000007               79  X7     EQU     7
                                        80  *
                                        81  *  POINTER REGISTERS ALSO DEFINED IN BOOT
                                        82  *
 22:54 07/29/97  FILE=ISI$MINI.:E05TSI        M I N I - D E L T A  -  O C E L O T - 0 0                  4    BMAP - B00
             000000000001               83  DR.LS  EQU     1               USED TO LTRAD TO MON
             000000000001               84  LS     EQU     DR.LS
             000000001771               85  DLS    BOOL    1770+LS
             000000000003               86  DR.LSA EQU     3               HOLDS AARDVARK'S LS DESC
             000000000004               87  DR.SSR EQU     4               DESCRIPTOR REG. TO HOLD SS STACK DESC.
             000000000005               88  DR.USE EQU     5
             000000000006               89  DR.X   EQU     6               DR.X USED FOR SCRATCH
             000000000000               90  DR.Y   EQU     0               DR.Y USED FOR SCRATCH
             000000006000               91  S.AIS  BOOL    6000
             000000001761               92  DTYP   BOOL    1761            CHANGE DESCRIPTOR TYPE
             000000001762               93  DISR   BOOL    1762            ISR
             000000001762               94  ISR    BOOL    1762            ISR REGISTER
             000000001764               95  DSSR   BOOL    1764            SAFE STORE REGISTER
             000000001765               96  DLSR   BOOL    1765            LSR
                                        97  * SAFE STORE FRAME DISPLACEMENT DEFINITIONS
             000000000004               98  SSIC   EQU     4               LOCATION OF IC IN SAFE STORE FRAME
             000000000005               99  SSFLT  EQU     5               LOCATION OF 5 BIT CODE IN SS FRAME
             000000000000              100  TRMASK BOOL    0               SAVE TRAP MASK HERE IN SS STACK
             000000000005              101  FC     BOOL    5               POSITION OF FAULT CODE IN SS STACK
             000000000010              102  SSISR  EQU     8               DISP TO ISR DESC IN SS FRAME
             000000000020              103  SSAR   EQU     16              POSITION OF AR'S IN SS FRAME
             000000000030              104  SSDR   EQU     24              POSITION OF DR'S IN SS FRAME
                                       105  *
             000000000004              106  ICADD  EQU     4               IC+1,INDICATORS OF DERAIL
             000000000050              107  ICREGS EQU     40              REGISTER AREA
             000000000000              108  HJ.ULS EQU     0               OFFSET OF USER LS IN HJIT
             000000000002              109  WSRX   EQU     2               XDELTA'S WSR NUMBER
             000000002000              110  AARD   BOOL    2000            SYMBOL TABLE DEFINITION
             000000000032              111  FLTLOC BOOL    32              FAULT ENTRY DESC LOCATION
             000000010000              112  WHOMINI BOOL   010000          TELLS READ_PATCH THAT MINI CALLED IT
             000000000000              113  RD     EQU     0               FCN CODE FOR READ CONSOLE ASCII
             000000000001              114  WRITE  EQU     1               FCN CODE FOR WRITE CONSOLE ASCII
             000000000002              115  SCRLF  EQU     2               FCN FOR WRITE CONSOLE W/O CRLF
             000000000002              116  DOUBLE EQU     2               FCN CODE FOR DOUBLE SPACE
             000000000003              117  TOP    EQU     3               FCN CODE FOR TOP OF PAGE
             000000000002              118  FCNRT9 EQU     2               FCN CODE FOR READ TAPE 9-TRACK ASCII
             000000000000              119  FCNRDB EQU     0               FCN CODE FOR READ DISK BINARY
 22:54 07/29/97  FILE=ISI$MINI.:E05TSI        M I N I - D E L T A  -  O C E L O T - 0 0                  5    BMAP - B00
             000000000040              120  P.P    BOOL    40              PAGE IN MEMORY
             000000000020              121  P.W    BOOL    20              WRITE PERMISSION
                                       122  *
             000000000024              123  NSYM   EQU     20              NUMBER OF SYMBOL ENTRIES
                                       124         LODM    IS$BMACROS
                                       125         LODM    B_BMACROS_C
                                       126         PMC     ON
                                       127         MONLS
             000000000000                   LS.IS EQU 0             MONITOR INSTRUCTION SEGMENT
             000000000001                   LS.JITU EQU LS.IS+1       USER JIT
             000000000002                   LS.BUF EQU LS.JITU+1     USER FILE MANAGEMENT BUFFERS
             000000000003                   LS.ROSEG EQU LS.BUF+1      USER READ ONLY SEGMENT
             000000000004                   LS.DS1 EQU LS.ROSEG+1    MONITOR DATA SEGMENT 1
             000000000004                   LS.CFU EQU LS.DS1        MON DS1 -- CFUS
             000000000005                   LS.DS2 EQU LS.DS1+1      MONITOR DATA SEGMENT 2
             000000000006                   LS.DS3 EQU LS.DS2+1      MONITOR DATA SEGMENT 3
             000000000007                   LS.DS4 EQU LS.DS3+1      MONITOR DATA SEGMENT 4
             000000000010                   LS.DS5 EQU LS.DS4+1      MONITOR DATA SEGMENT 5
             000000000011                   LS.DS6 EQU LS.DS5+1      MONITOR DATA SEGMENT 6
             000000000012                   LS.DS7 EQU LS.DS6+1      MONITOR DATA SEGMENT 7
             000000000013                   LS.DS8 EQU LS.DS7+1      MONITOR DATA SEGMENT 8
             000000000013                   LS.LDCT EQU LS.DS8        MON DS8 -- LDCTS
             000000000014                   LS.NULL EQU LS.DS8+1      NULL DESCRIPTOR
             000000000015                   LS.XLAT EQU LS.NULL+1     XLATE/SEARCH TABLES
             000000000016                   LS.ECCB EQU LS.XLAT+1     ECCB
             000000000017                   LS.TCB EQU LS.ECCB+1     TCB
             000000000020                   LS.TSTACK EQU LS.TCB+1      TSTACK
             000000000021                   LS.REAL EQU LS.TSTACK+1   REAL PG 0-3
             000000000022                   LS.USSS EQU LS.REAL+1     USER SS AREA
             000000000023                   LS.USDS0 EQU LS.USSS+1     USER SDS TYPE 0
             000000000024                   LS.USDS1 EQU LS.USDS0+1    USER SDS TYPE 1
             000000000025                   LS.SCR EQU LS.USDS1+1    SCREECH ENTRY
             000000000026                   LS.XD EQU LS.SCR+1      XDELTA ENTRY DESCRIPTOR
             000000000027                   LS.PMME EQU LS.XD+1       PMME ENTRY DESCRIPTOR
             000000000030                   LS.REG EQU LS.PMME+1     SCHED REG ENTRY DESCRIPTOR
             000000000031                   LS.ULS EQU LS.REG+1      USER LINKAGE SEGMENT
             000000000032                   LS.DBLS EQU LS.ULS+1      DEBUGGER LINKAGE SEGMENT
 22:54 07/29/97  FILE=ISI$MINI.:E05TSI        M I N I - D E L T A  -  O C E L O T - 0 0                  6    BMAP - B00
             000000000033                   LS.ASLLS EQU LS.DBLS+1     ASL LINKAGE SEGMENT
             000000000034                   LS.CPLS EQU LS.ASLLS+1    COMMAND PROCESSOR LINKAGE SEGMENT
             000000000035                   LS.MLS EQU LS.CPLS+1     MONITOR LINKAGE SEGMENT
             000000000036                   LS.UPT EQU LS.MLS+1      USER PAGE TABLE
             000000000037                   LS.MPT EQU LS.UPT+1      MONITOR PAGE TABLE
             000000000040                   LS.USRIS EQU LS.MPT+1      USER INSTRUCTION SEGMENT
             000000000041                   LS.MTSTACK EQU LS.USRIS+1    TSTACKU
             000000000042                   LS.MJIT EQU LS.MTSTACK+1  MONITOR JIT
             000000000043                   LS.MHJIT EQU LS.MJIT+1     MONITOR HJIT
             000000000044                   LS.MONSSS EQU LS.MHJIT+1    MONITOR SSS -- TYPE 0
             000000000045                   LS.HJITU EQU LS.MONSSS+1   USER HJIT
             000000000046                   LS.SBUF1 EQU LS.HJITU+1    SPECIAL BUFFER 1
             000000000047                   LS.SBUF2 EQU LS.SBUF1+1    SPECIAL BUFFER 2
             000000000050                   LS.ISB EQU LS.SBUF2+1    MON ISR -- BYPASS CACHE
             000000000051                   LS.SCU EQU LS.ISB+1      SPECIAL PAGES FOR GETTING SCU ADDR
             000000000052                   LS.WINDOW EQU LS.SCU+1      WINDOW AREA
             000000000053                   LS.ASR EQU LS.WINDOW+1   MONITOR ARGUMENT STACK DESC
             000000000054                   LS.MISC EQU LS.ASR+1      MISCELLANEOUS (can be used @ int level)
             000000000055                   LS.CWSQ1 EQU LS.MISC+1     COMMUNICATIONS WSQ
             000000000075                   LS.CPGT1 EQU LS.CWSQ1+16   CWSQ PG TABLE
             000000000115                   LS.JITPG EQU LS.CPGT1+16
             000000000116                   LS.PPUT EQU LS.JITPG+1
             000000000117                   LS.VPT EQU LS.PPUT+1
             000000000120                   LS.MOUSE EQU LS.VPT+1
             000000000121                   LS.LOWMEM EQU LS.MOUSE+1
             000000000122                   LS.IOEND EQU LS.LOWMEM+1
             000000000123                   LS.TIGR EQU LS.IOEND+1    TIGR DATA
             000000000124                   LS.RONC EQU LS.TIGR+1     READ ONLY SEG -- BYPASS CACHE
             000000000125                   LS.ROSEG8 EQU LS.RONC+1     READ ONLY SEG -- AT IO END ACT (WSQ8)
             000000000126                   LS.XDRTN EQU LS.ROSEG8+1   XDELTA RETURN ENTRY DESCRIPTOR
             000000000127                   LS.RCVRTN EQU LS.XDRTN+1    SUA OR SNAP RETURN ENTRY DESCRIPTOR
             000000000130                   LS.MISC2 EQU LS.RCVRTN+1   MISCELLANEOUS (used on behalf of user only)
             000000000131                   LS.RCVENT EQU LS.MISC2+1    RECOVERY ENTRY DESCRIPTOR
             000000000132                   LS.MLS1 EQU LS.RCVENT+1   MON LS -- TYPE 1 FOR ANLZ
             000000000133                   LS.WS3MLS EQU LS.MLS1+1
             000000000134                   LS.LDCTNC EQU LS.WS3MLS+1
             000000000135                   LS.MSTRPT EQU LS.LDCTNC+1
 22:54 07/29/97  FILE=ISI$MINI.:E05TSI        M I N I - D E L T A  -  O C E L O T - 0 0                  7    BMAP - B00
             000000000136                   LS.SLV1PT EQU LS.MSTRPT+1
             000000000137                   LS.SLV2PT EQU LS.SLV1PT+1
             000000000140                   LS.SLV3PT EQU LS.SLV2PT+1
             000000000141                   LS.SLV4PT EQU LS.SLV3PT+1
             000000000142                   LS.SLV5PT EQU LS.SLV4PT+1
             000000000143                   LS.SLV6PT EQU LS.SLV5PT+1
             000000000144                   LS.SLV7PT EQU LS.SLV6PT+1
             000000000145                   LS.MSTRHJ EQU LS.SLV7PT+1
             000000000146                   LS.SLV1HJ EQU LS.MSTRHJ+1
             000000000147                   LS.SLV2HJ EQU LS.SLV1HJ+1
             000000000150                   LS.SLV3HJ EQU LS.SLV2HJ+1
             000000000151                   LS.SLV4HJ EQU LS.SLV3HJ+1
             000000000152                   LS.SLV5HJ EQU LS.SLV4HJ+1
             000000000153                   LS.SLV6HJ EQU LS.SLV5HJ+1
             000000000154                   LS.SLV7HJ EQU LS.SLV6HJ+1
             000000000155                   LS.AARDV EQU LS.SLV7HJ+1
             000000000155                   LS.FLT EQU LS.AARDV      AARDVARK FAULT ENTRY DESCR
             000000000156                   LS.AARDV2 EQU LS.AARDV+1
             000000000156                   LS.MONRL EQU LS.AARDV2     REAL MON ISR FOR MINIQ
             000000000157                   LS.FIRM EQU LS.AARDV2+1
             000000000160                   LS.WS3MLSNW EQU LS.FIRM+1
             000000000161                   LS.BUFCACH EQU LS.WS3MLSNW+1
             000000000162                   LS.IMX EQU LS.BUFCACH+1  IMX DATA
             000000000163                   LS.CGPT EQU LS.IMX+1      CG PAGE TABLE
             000000000164                   LS.CGCTXT EQU LS.CGPT+1     CG CONTEXT & DESCRIPTOR SEG BLKS
             000000000165                   LS.MAGSS EQU LS.CGCTXT+1   MAGIC SS FRAME
             000000000166                   LS.MAGLS EQU LS.MAGSS+1    MAGIC LS
             000000000167                   LS.MAGAS EQU LS.MAGLS+1    MAGIC AS
             000000000170                   LS.MAGPS EQU LS.MAGAS+1    MAGIC PS
             000000000171                   LS.MAGTCB EQU LS.MAGPS+1    MAGIC TCB
             000000000172                   LS.MAGECCB EQU LS.MAGTCB+1   MAGIC ECCB
             000000000173                   LS.MLSREAD EQU LS.MAGECCB+1  MLS - READ ONLY
             000000000174                   LS.SEGTBL EQU LS.MLSREAD+1    MON OVERLAY SEGMENT TABLE
             000000000175                   LS.WSQ0PT EQU LS.SEGTBL+1     WSQ #0 Page Table.  DPS-90 only
             000000000176                   LS.IPHY_MAP EQU LS.WSQ0PT+1   Inverse physical map for DPS-90
             000000000177                   LS.MINIQ_ENT EQU LS.IPHY_MAP+1 Entry for MINIQ's climb to itself
             000000000200                   LS.XLNORM EQU LS.MINIQ_ENT+1 Normal XLATE tables (Note space reserved for X1000)
 22:54 07/29/97  FILE=ISI$MINI.:E05TSI        M I N I - D E L T A  -  O C E L O T - 0 0                  8    BMAP - B00
             000000000201                   LS.XLALT EQU LS.XLNORM+1   Alternate XLATE tables
             000000000202                   LS.DVT EQU LS.XLALT+1    DVT TABLE
                                       128         PMC     ON                 This is on for test purposes!

 22:54 07/29/97  FILE=ISI$MINI.:E05TSI                     M I N I - X D E L T A                         9    BMAP - B00
                                       129         TTL                  M I N I - X D E L T A
                                       130         EVEN
 0 000000                              131  MINID  NULL

 22:54 07/29/97  FILE=ISI$MINI.:E05TSI        MINI-DELTA - COMMAND INTERPRETER                           10   BMAP - B00
                                       132         TTLS    MINI-DELTA - COMMAND INTERPRETER
                                       133  *
                                       134  *  MINI-XDELTA PATCHING ENTRY POINT - CALLED BY BOOTSUBR
                                       135  *
   000000                              136         USE     ISI$MINI,1
   000000                              137  MDELTA NULL
   000000    001764 4744 07            138         LDP     DR.SSR,DSSR,DL  LOAD SAFE STORE STACK DESCRIPTOR
   000001    001761 4744 07            139         LDP     DR.SSR,DTYP,DL  CHANGE SO CAN STORE
   000002    001762 4754 07            140         LDP     DR.USE,ISR,DL   PICK UP AARDVARK'S ISR AS DEFAULT
   000003 (0)000576 4500 00            141         STZ     VECTNO          MAKE SURE IT'S RIGHT
   000004 (0)000577 4500 00            142         STZ     USENO
   000005 (0)004010 4500 00            143         STZ     INDEV           MAKE IT 'READ ME'
   000006 (0)010000 7470 00            144         STX7    RETURN          SAVE RETURN ADDRESS
   000007 (0)010001 7410 00            145         STX1    OLDX1           SAVE X1 TO RETURN TO PL6
   000010 (0)010002 0540 00            146         AOS     RTNFLG          A RETURN ADDRES IS PRESENT
   000011 (0)004361 7070 00            147         TSX7    BKFLPE          FLIP THE BREAKPOINTS OUT
   000012  X 000000 2340 00            148         SZN     PDEV            READ VIA PATCH DEVICE???
   000013 (0)000032 6010 00            149         TNZ     NEXTC           YES -> SKIP PROMPT
   000014 (0)000751 2350 00            150  DHERE  LDA     TALY16
   000015 (0)005071 7070 00            151         TSX7    OCOUT           PRINT DELTA HERE
   000016 (0)000032 7100 00            152         TRA     NEXTC           BYPASS ERROR
                                       153  *
          (0)000000000017              154  ERROR  EQU     *
   000017 (0)000747 2350 00            155         LDA     TALY13          OUT PUT EH?
   000020 (0)005105 7070 00            156         TSX7    TYPE            TO CURRENT OUPUT DEVICE
   000021 (0)004010 2340 00            157         SZN     INDEV           INPUT FROM ME
   000022 (0)000032 6000 00            158         TZE     NEXTC           YES-NO ADDITIONAL INTERACTION NEEDED
   000023 (0)000756 2350 00            159         LDA     COMAND-1        TALLY WORD TO PRINT COMMAND
   000024 (0)005071 7070 00            160         TSX7    OCOUT           PRINT BAD COMMAND
   000025 (0)000747 2350 00            161         LDA     TALY13
   000026 (0)005071 7070 00            162         TSX7    OCOUT           PRINT EH?
   000027 (0)004010 4500 00            163  ERROR1 STZ     INDEV           CHANGE INPUT TO ME
   000030  X 000000 4500 00            164         STZ     PDEV            RESET RPD FLAG
   000031 (0)000014 7100 00            165         TRA     DHERE           PRINT 'DELTA HERE'
          (0)000000000032              166  NEXTC  EQU     *
   000032    004000 2360 07            167         LDQ     =O004000,DL     SET OVERFLOW MASK
   000033 (0)001004 7560 00            168         STQ     INDICT
 22:54 07/29/97  FILE=ISI$MINI.:E05TSI        MINI-DELTA - COMMAND INTERPRETER                           11   BMAP - B00
   000034 (0)000107 4500 00            169         STZ     IDTALY          CLEAR ID PRESENT WORD
   000035 (0)002310 4500 00            170         STZ     QFLAG
   000036  X 000000 2340 00            171         SZN     PDEV            READ VIA PATCH DEVICE???
   000037 (0)000044 6010 00            172         TNZ     NEXTC1          YES -> DO NOT PROMPT
   000040 (0)004010 2340 00            173         SZN     INDEV           INPUT FROM CARD READER OR TAPE
   000041 (0)000044 6010 00            174         TNZ     NEXTC1          YES-SKIP PROMPT CHAR WRITE
   000042 (0)000745 2350 00            175         LDA     TALLY7
   000043 (0)005071 7070 00            176         TSX7    OCOUT           PRINT PROMPT CHAR
   000044 (0)000756 2350 00            177  NEXTC1 LDA     COMAND-1        TALLY WORD FOR COMMAND BUFER
   000045 (0)000757 7550 00            178         STA     COMAND
   000046 (0)004746 7070 00            179         TSX7    TYIN            GO GET COMAND
   000047 (0)004030 7070 00            180         TSX7    UPPERC          FORCE COMMAND LINE TO UPPER CASE
   000050 (0)004046 7070 00            181         TSX7    GETF            GET COMMAND TYPE
   000051 (0)000032 7100 00            182         TRA     NEXTC           NULL COMMAND
   000052 (0)000054 7100 00            183         TRA     *+2             ALPHA CHECK FOR TYPE
   000053 (0)000102 7100 00            184         TRA     ID              NUMERIC SAVE ID FIELD
   000054 (1)000000 3750 00            185  KRD11  ANA     =O777777000077
   000055    000400 2750 07            186         ORA     =O400,DL        FORCE CHAR COUNT TO FOUR(ONE WORD)
   000056 (0)001014 7550 00            187         STA     TEMP            TALLY WORD OF ALPHA FIELD
   000057 (0)001014 2360 52            188         LDQ     TEMP,SC         FIRST CHAR OF COMMAND
   000060 (0)000150 7540 00            189         STI     CINDIC          SAVE FIELD RUN OUT INDICATOR
   000061 (0)000174 2350 00            190         LDA     TALLY1
   000062 (0)000173 7550 00            191         STA     CTYPE           INITIALIZE COMMAND TYPE TALLY WORD
   000063 (0)000173 1160 52            192  KRD3   CMPQ    CTYPE,SC        LOOK FOR MATCH ON FIRST CHAR OF COMMAND
   000064 (0)000067 6000 00            193         TZE     KRD4            MATCH
   000065 (0)000063 6070 00            194         TTF     KRD3            MORE POSSIBLE CHARS
   000066 (0)000017 7100 00            195         TRA     ERROR           NOT VALID COMMAND
   000067 (0)000173 2350 00            196  KRD4   LDA     CTYPE           TALLY WORD
   000070    000006 7310 00            197         ARS     6               SHIFT REMAINING CHAR COUNT
   000071    007777 3750 07            198         ANA     =O7777,DL       MASK REMAINING CHAR COUNT
   000072    000000 6210 05            199         EAX1    0,AL            INTO Q
   000073 (0)004520 2350 00            200         LDA     BLANKS          BLANK OUT A
   000074 (0)000150 6340 00            201         LDI     CINDIC          RESTORE FIELD RUN OUT INDIC
   000075    000033 7360 00            202  KRD5   QLS     27
   000076    000011 7370 00            203         LLS     9               PUT CHAR IN Q
   000077 (0)000151 6064 31            204         TTN     COMVEC,X1*      END OF FIELD
   000100 (0)001014 2360 52            205         LDQ     TEMP,SC         NEXT CHAR OF FIELD
 22:54 07/29/97  FILE=ISI$MINI.:E05TSI        MINI-DELTA - COMMAND INTERPRETER                           12   BMAP - B00
   000101 (0)000075 7100 00            206         TRA     KRD5            PACK FIELD INTO (Q)
                                       207  *
          (0)000000000102              208  ID     EQU     *
   000102 (0)000107 7550 00            209         STA     IDTALY          SAVE TALLY WORD POINTING TO ID FIELD
   000103 (0)004046 7070 00            210         TSX7    GETF            GET COMMAND NAME FIELD
   000104 (0)000017 7100 00            211         TRA     ERROR           ERROR-NO COMMAND NAMED
   000105 (0)000054 7100 00            212         TRA     KRD11           ALPHA COMMAND NAME
   000106 (0)000017 7100 00            213         TRA     ERROR           ERROR-COMMAND NAME CANT BE NUMERIC
                                       214  *
   000107    000000 000000             215  IDTALY ZERO                    TALLY WORD POINTING TO ID FIELD
                                       216         MINIT
   000110 (0)000116 0 00 6000               PLST1 PTR S.AIS,ALST1     POINTER LIST FOR MINIQC
   000111 (0)000117 0 00 6000                PTR S.AIS,ALST1+1
   000112 (0)000120 0 00 6000                PTR S.AIS,ALST1+2
   000113 (0)000121 0 00 6000                PTR S.AIS,ALST1+3
   000114 (0)000122 0 00 6000                PTR S.AIS,ALST1+4
   000115    000000000000                   DLST1 OCT 0               DESC LIST
   000116                                   ALST1 BSS 5               VALUES PASSED TO MINIQ
   000123    000000 000120                  TBUF.N ZERO 0,80            LENGTH OF TBUF.C
   000124                                   TBUF.C BSS 20              TEMPORARY BUFFER FOR INTERFACE TO PL6
   000150    000000 000000             217  CINDIC ZERO                    RUN OUT INDICATOR FOR COMMAND FIELD
                                       218  *
          (0)000000000151              219  COMVEC EQU     *
   000151 (0)002312 0000 00            220         ARG     EOD             ! -> !EOD -> TREAT AS GO FOR NOW
   000152 (0)002274 0000 00            221         ARG     TBOOT           T -> QUIT AND REBOOT FROM TAPE
   000153 (0)002275 0000 00            222         ARG     KILLQ           Q -> QUIT -> AARDVARK RECOVERY
   000154 (0)002237 0000 00            223         ARG     FAULT           FAULT -> TOGGLE FAULT HANDLER SWITCH
   000155 (0)000032 0000 00            224         ARG     NEXTC           C -> COMMENT CARD
   000156 (0)000202 0000 00            225         ARG     USE             USE SPECIFIED DESCRIPTOR
   000157 (0)002246 0000 00            226         ARG     KILL            KILL ROUTINE
   000160 (0)001062 0000 00            227         ARG     AT              (AT) BREAK ROUTINE
   000161 (0)007765 0000 00            228         ARG     EXIT (EVALUATE)
   000162 (0)001040 0000 00            229         ARG     ASTER           * ROUTINE
   000163 (0)001020 0000 00            230         ARG     PREVIO
   000164 (0)001030 0000 00            231         ARG     NEXT
   000165 (0)003054 0000 00            232         ARG     DEFINE       (DUMP)
   000166 (0)002315 0000 00            233         ARG     GO
 22:54 07/29/97  FILE=ISI$MINI.:E05TSI        MINI-DELTA - COMMAND INTERPRETER                           13   BMAP - B00
   000167 (0)003006 0000 00            234         ARG     STEP       (SHOW)
   000170 (0)004024 0000 00            235         ARG     OLD       (OUTPUT)
   000171 (0)003751 0000 00            236         ARG     READ            (RANGE)
   000172 (0)000600 0000 00            237         ARG     MODIFY
             000000000022              238  NCOM   EQU     *-COMVEC        NO. OF COMMAND TYPES  IN LIST
   000173    000000 000000             239  CTYPE  ZERO
   000174 (0)000175 0022 40            240  TALLY1 TALLYB  *+1,NCOM        TALLY FOR COMMAND TYPES
   000175    115122117123              241         UASCI   4,MROSGDNP*EAKUCFQ
   000176    107104116120
   000177    052105101113
   000200    125103106121
   000201    124041040040              242         UASCI   1,T!
                                       243  *

 22:54 07/29/97  FILE=ISI$MINI.:E05TSI        MINI-DELTA - U -> USE SPECIFIED DESCRIPTOR -> LOAD DR.USE  14   BMAP - B00
                                       244         TTLS    MINI-DELTA - U -> USE SPECIFIED DESCRIPTOR -> LOAD DR.USE
                                       245  *
   000202                              246  USE    NULL
   000202                              247  VECTR  NULL
   000202 (0)004046 7070 00            248         TSX7    GETF            GET VECTOR     NAME
   000203 (0)000260 7100 00            249         TRA     VECTR3          NONE SPECIFIED -> USE BISON'S ISR
   000204 (0)000206 7100 00            250         TRA     *+2             ALPHA
   000205 (0)000267 7100 00            251         TRA     USE4            NUMERIC -> USE REAL DESC
   000206 (0)004450 7070 00            252         TSX7    FINSYB          GET NAME IN (AQ) RIGHT JUSTIFIED
   000207 (0)000210 7100 00            253         TRA     *+1
   000210    000002 6210 00            254         EAX1    2               VECTOR     NAME INDEX+2 -> X1
   000211                              255  VECTR1 NULL
   000211 (0)000326 1170 11            256         CMPAQ   VNMS-2,X1       SEARCH FOR SPECIFIED NAME       NAME
   000212 (0)000217 6000 00            257         TZE     VECTR2          I FOUND IT
   000213    000234 1010 03            258         CMPX1   UNMSL,DU        NOT YET FOUND -> ARE THERE MORE NAMES
   000214 (0)000017 6054 00            259         TPNZ    ERROR           NO -> ERROR
   000215    000002 6210 11            260         EAX1    2,X1            YES -> BUMP VECTOR     NAME INDEX
   000216 (0)000211 7100 00            261         TRA     VECTR1          AND KEEP ON SEARCHIN'
   000217                              262  VECTR2 NULL                    VECTOR     NAME FOUND -> LOAD DR
   000217    000200 1010 03            263         CMPX1   VNMSL,DU        IS IT ONE OF THE VECTOR NAMES?
   000220 (0)000236 6054 00            264         TPNZ    USE2            NO -> GET  DESC FROM MON L.S.
   000221    000156 1010 03            265         CMPX1   UVNMSL,DU       YES -> IS IT AN UNMAPPED DESC NAME?
   000222 (0)000225 6054 00            266         TPNZ    *+3             NO -> MAPPED DESC -> SKIP BASE TEST
   000223  X 777777 2350 11            267         LDA     DESC0-2+1,X1    HAS THIS DESC   BEEN FILLED IN?
   000224 (0)000017 6000 00            268         TZE     ERROR           NO -> ERROR
   000225 (0)000576 7410 00            269         STX1    VECTNO          YES -> SAVE VECTOR INDEX
   000226 (0)000577 4500 00            270         STZ     USENO
   000227    000 0 000 1004 00         271         MLR                     MOVE USE COMMAND
   000230 (0)000760 0 0 0 0020         272         ADSC9   COMAND+1,0,16
   000231 (0)003454 0 0 0 0020         273         ADSC9   USEM,0,16       TO DUMP HEADING
   000232    000000 6350 11            274         EAA     0,X1            CONVERT INDEX
   000233    000001 7710 00            275         ARL     1               TO WORD INDEX
   000234  X 000000 4754 01            276         LDP     DR.USE,I$TYP0$,AU              PICK UP THE DESC
   000235 (0)000032 7100 00            277         TRA     NEXTC           AND PROCESS NEXT COMMAND
                                       278  *
   000236                              279  USE2   NULL                    GET DESC FROM MON L.S.
   000236    000214 1010 03            280         CMPX1   LSNMSL,DU       IS IT ONE OF $_LS NAMES?
 22:54 07/29/97  FILE=ISI$MINI.:E05TSI        MINI-DELTA - U -> USE SPECIFIED DESCRIPTOR -> LOAD DR.USE  15   BMAP - B00
   000237 (0)000301 6044 00            281         TMOZ    USE5            YES
   000240  X 000000 2340 00            282         SZN     MONLSR          IS MON L.S. PRESENT
   000241 (0)000017 6000 00            283         TZE     ERROR           NO -> CAN'T USE $DSN
   000242  X 000000 4764 00            284         LDP     DR.X,I$MLS$               MON LSR DESC -> DR.X
   000243    001776 4704 07            285         LDP     DR.Y,DR.X+=O1770,DL COPY DR.X TO DR.Y
   000244    001761 4704 07            286         LDP     DR.Y,DTYP,DL    CHANGE TO TYPE=0 FOR TESTING
   000245    000004 6270 11            287         EAX7    LS.DS1,X1       RELOCATION
   000246    000004 6270 17            288         EAX7    LS.DS1,X7       RELOCATION
   000247    0 77602 2271 17           289         LDX7    HJ.ULS-VNMSL+2,X7,DR.Y            CHECK BOUND
   000250 (0)000017 6000 00            290         TZE     ERROR           0 -> CAN'T USE
   000251    6 77602 6755 17           291         LDD     DR.USE,HJ.ULS-VNMSL+2,X7,DR.X
   000252 (0)000576 4500 00            292         STZ     VECTNO          CLEAR VECTOR NAME INDEX
   000253 (0)000577 7410 00            293         STX1    USENO           SAVE MON L.S. INDEX
   000254    000 0 000 1004 00         294         MLR                     MOVE USE COMMAND
   000255 (0)000760 0 0 0 0020         295         ADSC9   COMAND+1,0,16
   000256 (0)003454 0 0 0 0020         296         ADSC9   USEM,0,16       TO DUMP HEADING
   000257 (0)000032 7100 00            297         TRA     NEXTC           AND PROCESS NEXT COMMAND
                                       298  *
                                       299  *
   000260                              300  VECTR3 NULL                    VECTOR NAME NOT SPECIFIED -> ISR
   000260 (0)000576 4500 00            301         STZ     VECTNO          ZAP TO INDICATE BISON DESCRIPTOR
   000261 (0)000577 4500 00            302         STZ     USENO
   000262    001762 4754 07            303         LDP     DR.USE,ISR,DL   PICK UP ISR DESCRIPTOR IN DR.USE
   000263    000 0 000 1004 00         304         MLR                     MOVE USE COMMAND
   000264 (0)000760 0 0 0 0020         305         ADSC9   COMAND+1,0,16
   000265 (0)003454 0 0 0 0020         306         ADSC9   USEM,0,16       TO DUMP HEADING
   000266 (0)000032 7100 00            307         TRA     NEXTC           AND PROCESS NEXT COMMAND
   000267                              308  USE4   NULL                    USE REAL DESC
   000267 (0)004132 7070 00            309         TSX7    CHRBIN          CONVERT MEMORY NO. TO BINARY
   000270    000024 7360 00            310         QLS     18+2            CONVERT BINARY MEMORY NO. TO BASE
   000271  X 000001 7560 00            311         STQ     DESCRL+1        AND STUFF REAL DESC
   000272  X 000000 4754 00            312         LDP     DR.USE,I$REAL$               PICK UP REAL DESC
   000273 (0)000576 4500 00            313         STZ     VECTNO          CLEAR VECTOR NAME INDEX
   000274 (0)000577 7560 00            314         STQ     USENO           REMEMBER NOT TO ALLOW BREAKS
   000275    000 0 000 1004 00         315         MLR                     MOVE USE COMMAND
   000276 (0)000760 0 0 0 0020         316         ADSC9   COMAND+1,0,16
   000277 (0)003454 0 0 0 0020         317         ADSC9   USEM,0,16       TO DUMP HEADING
 22:54 07/29/97  FILE=ISI$MINI.:E05TSI        MINI-DELTA - U -> USE SPECIFIED DESCRIPTOR -> LOAD DR.USE  16   BMAP - B00
   000300 (0)000032 7100 00            318         TRA     NEXTC           AND GET NEXT COMMAND
                                       319  *   USE $_LS N        WHERE N IS DESC# (IN OCTAL)
   000301                              320  USE5   NULL
   000301    000000 6350 11            321         EAA     0,X1            CONVERT INDEX
   000302    000001 7710 00            322         ARL     1               TO WORD INDEX
   000303  X 000000 4754 01            323         LDP     DR.USE,I$TYP0$,AU              PICK UP THE DESC
   000304  X 000000 4764 01            324         LDP     DR.X,I$TYP0$,AU              FRAME THE LS WITH DR.X
   000305    001776 4704 07            325         LDP     DR.Y,DR.X+=O1770,DL COPY DR.X TO DR.Y
   000306    001761 4704 07            326         LDP     DR.Y,DTYP,DL    CHANGE TO TYPE=0 FOR TESTING
   000307 (0)004046 7070 00            327         TSX7    GETF            GET DESC#
   000310 (0)000017 7100 00            328         TRA     ERROR           NONE -> ERROR
   000311 (0)000017 7100 00            329         TRA     ERROR           ALPHA -> ERROR
   000312 (0)004132 7070 00            330         TSX7    CHRBIN          NUMERIC -> CONVERT TO BINARY
   000313    000023 7360 00            331         QLS     18+1            MAKE INTO DOUBLEWORD INDEX -> QU
   000314    0 00000 2271 02           332         LDX7    0,QU,DR.Y       CHECK BOUND
   000315 (0)000017 6000 00            333         TZE     ERROR           0 -> CAN'T USE
   000316    6 00000 6755 02           334         LDD     DR.USE,0,QU,DR.X OKAY -> LOAD DESC INTO DR.USE
   000317  X 000000 0554 00            335         STD     DR.USE,DESCTEMP PARK IN AARDVARK'S LS
   000320    140000 2350 07            336         LDA     =O140000,DL     DESC FLAGS R AND W
   000321  X 000000 2550 00            337         ORSA    DESCTEMP        MAKE SURE THEY ARE SET
   000322  X 000000 4754 00            338         LDP     DR.USE,I$TEMP$                AND LOAD IT UP
   000323 (0)000576 4500 00            339         STZ     VECTNO          CLEAR VECTOR NAME INDEX
   000324 (0)000577 7560 00            340         STQ     USENO           SAVE DESC#
   000325 (0)000577 0540 00            341         AOS     USENO           MUST BE N.Z. TO DISALLOW BREAKS
   000326 (0)000032 7100 00            342         TRA     NEXTC           AND PROCESS NEXT COMMAND
                                       343  *
                                       344  *
   000327    000000 0110 00            345         EVEN
   000330
   000330                              346  VNMS   NULL                    TABLE OF VALID VECTOR AND DESC NAMES
   000330    040040040040              347         UASCI   2,    XDLS      XDELTA LS/SSS
   000331    130104114123
   000332    040040040040              348         UASCI   2,    XDEL      XDELTA ISR
   000333    130104105114
   000334    040040040040              349         UASCI   2,    HJIT      MONITOR HJIT
   000335    110112111124
   000336    040040040040              350         UASCI   2,    MOND      MONITOR DATA
 22:54 07/29/97  FILE=ISI$MINI.:E05TSI        MINI-DELTA - U -> USE SPECIFIED DESCRIPTOR -> LOAD DR.USE  17   BMAP - B00
   000337    115117116104
   000340    040040040040              351         UASCI   2,    MONP      MONITOR PROCEDURE
   000341    115117116120
   000342    040040040040              352         UASCI   2,    ENTD      ENTDEFS
   000343    105116124104
   000344    040040040040              353         UASCI   2,    SYMD      SYMDEFS
   000345    123131115104
   000346    040040040040              354         UASCI   2,    DEFN      DEFNAMES
   000347    104105106116
   000350    040040040040              355         UASCI   2,    DSCH      DEBUG SCHEMA
   000351    104123103110
   000352    040040040040              356         UASCI   2,    G1RO      GHOST1 ROSEG
   000353    107061122117
   000354    040040040040              357         UASCI   2,     G1D      GHOST1 DATA
   000355    040107061104
   000356    040040040040              358         UASCI   2,     G1P      GHOST1 PROCEDURE
   000357    040107061120
   000360    040040040105              359         UASCI   2,   ENTD1      ALTERNATE ENTDEFS
   000361    116124104061
   000362    040040040123              360         UASCI   2,   SYMD1      ALTERNATE SYMDEFS
   000363    131115104061
   000364    040040040104              361         UASCI   2,   DEFN1      ALTERNATE DEFNAMES
   000365    105106116061
   000366    040040040040              362         UASCI   2,    ASCH      ALTERNATE SCHEMA
   000367    101123103110
   000370    040040040040              363         UASCI   2,    TIGR      TIGR MISCELLANEOUS
   000371    124111107122
   000372    040040040040              364         UASCI   2,     MON      MONITOR ISR
   000373    040115117116
   000374    040040040040              365         UASCI   2,      G1      GHOST1 ISR
   000375    040040107061
   000376    040040040040              366         UASCI   2,     JIT      MONITOR JIT
   000377    040112111124
   000400    040040040040              367         UASCI   2,    JIT1      GHOST1 JIT
   000401    112111124061
   000402    040040040110              368         UASCI   2,   HJIT1      GHOST1 HJIT
   000403    112111124061
 22:54 07/29/97  FILE=ISI$MINI.:E05TSI        MINI-DELTA - U -> USE SPECIFIED DESCRIPTOR -> LOAD DR.USE  18   BMAP - B00
   000404    040040040040              369         UASCI   2,     SST      BISON   SAFE STORE STACK
   000405    040123123124
   000406    040040040040              370         UASCI   2,     SSS      MONITOR SAFE STORE STACK
   000407    040123123123
   000410    040040040040              371         UASCI   2,    SSS1      GHOST1  SAFE STORE STACK
   000411    123123123061
   000412    040040040040              372         UASCI   2,    TSTK      MON TSTACK
   000413    124123124113
   000414    040040040124              373         UASCI   2,   TSTK1      GHOST1 TSTACK
   000415    123124113061
   000416    040040040040              374         UASCI   2,    ASTK      MON ASTACK
   000417    101123124113
   000420    040040040101              375         UASCI   2,   ASTK1      GHOST1 ASTACK
   000421    123124113061
   000422    040040040104              376         UASCI   2,   DSCH0      DEBUG SCHEMA OU RECORDS
   000423    123103110060
   000424    040040040104              377         UASCI   2,   DSCH1      DEBUG SCHEMA OU RECORDS
   000425    123103110061
   000426    040040040104              378         UASCI   2,   DSCH2      DEBUG SCHEMA OU RECORDS
   000427    123103110062
   000430    040040040104              379         UASCI   2,   DSCH3      DEBUG SCHEMA OU RECORDS
   000431    123103110063
   000432    040040040104              380         UASCI   2,   DSCH4      DEBUG SCHEMA OU RECORDS
   000433    123103110064
   000434    040040040104              381         UASCI   2,   DSCH5      DEBUG SCHEMA OU RECORDS
   000435    123103110065
   000436    040040040104              382         UASCI   2,   DSCH6      DEBUG SCHEMA OU RECORDS
   000437    123103110066
   000440    040040040104              383         UASCI   2,   DSCH7      DEBUG SCHEMA OU RECORDS
   000441    123103110067
   000442    040040040104              384         UASCI   2,   DSCH8      DEBUG SCHEMA OU RECORDS
   000443    123103110070
   000444    040040040104              385         UASCI   2,   DSCH9      DEBUG SCHEMA OU RECORDS
   000445    123103110071
   000446    040040104123              386         UASCI   2,  DSCH10      DEBUG SCHEMA OU RECORDS
   000447    103110061060
   000450    040040104123              387         UASCI   2,  DSCH11      DEBUG SCHEMA OU RECORDS
 22:54 07/29/97  FILE=ISI$MINI.:E05TSI        MINI-DELTA - U -> USE SPECIFIED DESCRIPTOR -> LOAD DR.USE  19   BMAP - B00
   000451    103110061061
   000452    040040040101              388         UASCI   2,   ASCH0      ALT SCHEMA OU RECORDS
   000453    123103110060
   000454    040040040101              389         UASCI   2,   ASCH1      ALT SCHEMA OU RECORDS
   000455    123103110061
   000456    040040040101              390         UASCI   2,   ASCH2      ALT SCHEMA OU RECORDS
   000457    123103110062
   000460    040040040101              391         UASCI   2,   ASCH3      ALT SCHEMA OU RECORDS
   000461    123103110063
   000462    040040040101              392         UASCI   2,   ASCH4      ALT SCHEMA OU RECORDS
   000463    123103110064
   000464    040040040101              393         UASCI   2,   ASCH5      ALT SCHEMA OU RECORDS
   000465    123103110065
   000466    040040040101              394         UASCI   2,   ASCH6      ALT SCHEMA OU RECORDS
   000467    123103110066
   000470    040040040101              395         UASCI   2,   ASCH7      ALT SCHEMA OU RECORDS
   000471    123103110067
   000472    040040040101              396         UASCI   2,   ASCH8      ALT SCHEMA OU RECORDS
   000473    123103110070
   000474    040040040101              397         UASCI   2,   ASCH9      ALT SCHEMA OU RECORDS
   000475    123103110071
   000476    040040101123              398         UASCI   2,  ASCH10      ALT SCHEMA OU RECORDS
   000477    103110061060
   000500    040040101123              399         UASCI   2,  ASCH11      ALT SCHEMA OU RECORDS
   000501    103110061061
   000502    040040040040              400         UASCI   2,    MPGT      MONITOR PAGE TABLE
   000503    115120107124
   000504    040040040107              401         UASCI   2,   G1PGT      GHOST1 PAGE TABLE
   000505    061120107124
             000000000156              402  UVNMSL EQU     *-VNMS          NAME INDEX OF LAST UNMAPPED DESC
   000506    040040040040              403         UASCI   2,      CP      COMMAND PROCESSOR(VIA WSRCP)
   000507    040040103120
   000510    040040040040              404         UASCI   2,    CPPT      COMMAND PROCESSOR PAGE TABLE(VIA WSRCP)
   000511    103120120124
   000512    040040040040              405         UASCI   2,    SSSU      CURRENT USER SAFE STORE STACK(VIA WSRU)
   000513    123123123125
   000514    040040040124              406         UASCI   2,   TSTKU      CURRENT USER TSTACK(VIA WSRU)
 22:54 07/29/97  FILE=ISI$MINI.:E05TSI        MINI-DELTA - U -> USE SPECIFIED DESCRIPTOR -> LOAD DR.USE  20   BMAP - B00
   000515    123124113125
   000516    040040040101              407         UASCI   2,   ASTKU      CURRENT USER ASTACK(VIA WSRU)
   000517    123124113125
   000520    040040040040              408         UASCI   2,    JITU      JIT CURRENT USER(MAPPED)
   000521    112111124125
   000522    040040040040              409         UASCI   2,    UPGT      CURRENT USER PAGE TABLE (MAPPED)
   000523    125120107124
   000524    040040040110              410         UASCI   2,   HJITU      HJIT CURRENT USER(MAPPED)
   000525    112111124125
   000526    040040040040              411         UASCI   2,    USER      ISR CURRENT USER(MAPPED)
   000527    125123105122
             000000000200              412  VNMSL  EQU     *-VNMS          NAME INDEX OF LAST VECTOR
   000530    040040040040              413         UASCI   2,     $LS      AARDVARK'S LINKAGE SEGMENT
   000531    040044114123
   000532    040040040040              414         UASCI   2,    $MLS      MONITOR LINKAGE SEGMENT
   000533    044115114123
   000534    040040040040              415         UASCI   2,    $ULS      USER LINKAGE SEGMENT
   000535    044125114123
   000536    040040040040              416         UASCI   2,    $DLS      DEBUGGER LINKAGE SEGMENT
   000537    044104114123
   000540    040040040040              417         UASCI   2,    $ALS      ALT SHARED LIB LINKAGE SEGMENT
   000541    044101114123
   000542    040040040040              418         UASCI   2,    $CLS      COMMAND PROCESSOR LINKAGE SEGMENT
   000543    044103114123
             000000000214              419  LSNMSL EQU     *-VNMS          INDEX OF LAST L.S. NAME
   000544    040040040040              420         UASCI   2,    $DS1      MON DATA SEGMENT 1
   000545    044104123061
   000546    040040040040              421         UASCI   2,    $DS2      MON DATA SEGMENT 2
   000547    044104123062
   000550    040040040040              422         UASCI   2,    $DS3      MON DATA SEGMENT 3
   000551    044104123063
   000552    040040040040              423         UASCI   2,    $DS4      MON DATA SEGMENT 4
   000553    044104123064
   000554    040040040040              424         UASCI   2,    $DS5      MON DATA SEGMENT 5
   000555    044104123065
   000556    040040040040              425         UASCI   2,    $DS6      MON DATA SEGMENT 6
   000557    044104123066
 22:54 07/29/97  FILE=ISI$MINI.:E05TSI        MINI-DELTA - U -> USE SPECIFIED DESCRIPTOR -> LOAD DR.USE  21   BMAP - B00
   000560    040040040040              426         UASCI   2,    $DS7      MON DATA SEGMENT 7
   000561    044104123067
   000562    040040040040              427         UASCI   2,    $DS8      MON DATA SEGMENT 8
   000563    044104123070
             000000000234              428  UNMSL  EQU     *-VNMS          NAME INDEX OF LAST DESCRIPTOR
   000564                              429  BNMS   NULL                    PERMIT BREAKS IN THESE SEGMENTS
   000564    040040040040              430         UASCI   2,     MON
   000565    040115117116
   000566    040040040040              431         UASCI   2,      G1
   000567    040040107061
   000570    040040040040              432         UASCI   2,    XDEL
   000571    130104105114
   000572    040040040040              433         UASCI   2,      CP
   000573    040040103120
   000574    040040040040              434         UASCI   2,    USER
   000575    125123105122
             000000000012              435  BNMSL  EQU     *-BNMS
                                       436         EVEN
   000576    000000000000              437  VECTNO OCT     0               VECTOR INDEX OF DESC IN DR.USE.
   000577    000000000000              438  USENO  OCT     0               NAME TABLE INDEX OD DESC IN DR.USE
                                       439  *

 22:54 07/29/97  FILE=ISI$MINI.:E05TSI        MINI-DELTA - M -> MODIFY COMMAND PROCESSOR                 22   BMAP - B00
                                       440         TTLS    MINI-DELTA - M -> MODIFY COMMAND PROCESSOR
          (0)000000000600              441  MODIFY EQU     *
   000600 (0)001006 4500 00            442         STZ     OPNLCM          CLEAR SYMBOLIC MODE FLAG
   000601 (0)004522 7070 00            443         TSX7    LEXP            EVALUATE LOCATION EXPRESSION
   000602 (0)000017 7100 00            444         TRA     ERROR           ERROR-NO FIELD PRESENT
   000603    000000 0110 00            445         NOP                     SYMBOLIC LOCATION OK
   000604 (0)001005 7560 00            446         STQ     OPENLC          CURRENT OPEN LOCATION
   000605 (0)004046 7070 00            447  XOLD   TSX7    GETF            GO GET NEW VALUE
   000606 (0)000615 7100 00            448         TRA     KRD8            END OF COMMAND
   000607 (0)000017 7100 00            449         TRA     ERROR           ERROR-ALPHA FEILD
   000610    000015 1060 03            450         CMPX6   13,DU
   000611 (0)000017 6030 00            451         TRC     ERROR           ERROR-TOO MANY CHARS
   000612 (0)004132 7070 00            452         TSX7    CHRBIN          GO CONVERT NEW VALUE TO BINARY
   000613 (0)001007 7560 00            453         STQ     NEWVAL          SAVE NEW VALUE
   000614 (0)001010 0540 00            454         AOS     NEWVFL          SET THERE IS A NEW VALUE
                                       455  *
   000615    040 0 000 1004 00         456  KRD8   MLR     ,,040           BLANK THE MESSAGE BUFFER
   000616    000000 0 0 0 0000         457         ADSC9   0,0,0
   000617 (0)000724 0 0 0 0017         458         ADSC9   MMESS,0,15
   000620 (0)001005 2360 00            459         LDQ     OPENLC          CURRENT OPEN LOCATION
   000621 (0)001006 2340 00            460         SZN     OPNLCM          SYMBOLIC LOCATION
   000622 (0)000633 6010 00            461         TNZ     MOD5            YES-LOCATION ALREADY IN MESSAGE
   000623 (0)000740 2350 00            462         LDA     TALLY2          POINT TO OPEN LOC IN MESSAGE
   000624 (0)004643 7070 00            463         TSX7    LOCOFF          GET LOCATION PLUS OFFSET
   000625 (0)001005 2250 00            464         LDX5    OPENLC          ADDRESS OF OPEN CELL -> X5
   000626  X 000000 0554 00            465         STD     DR.USE,TEMPD    NEED TO CHECK
   000627  X 000000 1050 00            466         CMPX5   TEMPD           FOR OUT OF BOUNDS
   000630 (0)000632 6000 00            467         TZE     *+2             ON THE LINE -> IN BOUNDS
   000631 (0)000017 6030 00            468         TRC     ERROR           OVER THE LINE -> TELL 'EM
   000632    5 00000 2361 15           469         LDQ     0,X5,DR.USE     CONTENTS OF OPEN CELL -> Q
   000633 (0)000741 2350 00            470  MOD5   LDA     TALLY3          POINT TO OLD VALUE IN MESSAGE
   000634 (0)001006 2340 00            471         SZN     OPNLCM          SYMBOLIC LOCATION MODE
   000635 (0)000637 6000 00            472         TZE     *+2             NO
   000636 (0)004155 7070 00            473         TSX7    SYMLOC          YES-GET OLD VALUE,  SETUP MESSAGE
   000637 (0)004143 7070 00            474         TSX7    BINCHR          CONVERT TO BCD
   000640 (0)001010 0340 00            475         LDAC    NEWVFL          NEW VALUE PRESENT
   000641 (0)000666 6000 00            476         TZE     KRD12           NO
 22:54 07/29/97  FILE=ISI$MINI.:E05TSI        MINI-DELTA - M -> MODIFY COMMAND PROCESSOR                 23   BMAP - B00
   000642 (0)001007 2360 00            477         LDQ     NEWVAL          NEW VALUE
   000643 (0)001006 2340 00            478         SZN     OPNLCM          SYMBOLIC LOCATION MODE
   000644 (0)000647 6000 00            479         TZE     *+3             NO
   000645 (0)004217 7070 00            480         TSX7    SYMSTR          YES-STORE VALUE IN SYMBOLIC LOCATION
   000646 (0)000656 7100 00            481         TRA     MOD6            VALUE HAS BEEN STORED
   000647 (0)001005 2250 00            482         LDX5    OPENLC          ADDRESS OF OPEN CELL -> X5
   000650  X 000000 0554 00            483         STD     DR.USE,TEMPD    NEED TO CHECK
   000651  X 000000 1050 00            484         CMPX5   TEMPD           FOR OUT OF BOUNDS
   000652 (0)000654 6000 00            485         TZE     *+2             ON THE LINE -> IN BOUNDS
   000653 (0)000017 6030 00            486         TRC     ERROR           OVER THE LINE -> TELL 'EM
   000654 (0)004413 7060 00            487         TSX6    STORE           MAKE SURE WE CAN WRITE
   000655    5 00000 7561 15           488         STQ     0,X5,DR.USE     REPLACE OLD VALUE WITH NEW VALUE
   000656                              489  MOD6   NULL
   000656 (0)000742 2350 00            490         LDA     TALLY4          POINT TO NEW VALUE IN MESSAGE
   000657 (0)001006 2340 00            491         SZN     OPNLCM          SYMBOLIC LOCATION MODE
   000660 (0)000662 6000 00            492         TZE     *+2             NO
   000661 (0)004153 7070 00            493         TSX7    SYMLC1          YES-SETUP MESSAGE
   000662 (0)004143 7070 00            494         TSX7    BINCHR          CONVERT TO BCD
   000663 (0)000743 2350 00            495         LDA     TALLY5          PRINT FULL MESSAGE
   000664 (0)005105 7070 00            496         TSX7    TYPE
   000665 (0)000670 7100 00            497         TRA     KRD9            READ FOR NEW VALUE,N P *
   000666 (0)000744 2350 00            498  KRD12  LDA     TALLY6          PRINT OLD VALUE ONLY
   000667 (0)005105 7070 00            499         TSX7    TYPE
   000670 (0)000756 2350 00            500  KRD9   LDA     COMAND-1        INITIAL COMMAND TALLY WORD
   000671 (0)000757 7550 00            501         STA     COMAND
   000672    004000 2360 07            502         LDQ     =O004000,DL
   000673 (0)001004 7560 00            503         STQ     INDICT          TURN OFF OVERFLOW
   000674 (0)004746 7070 00            504         TSX7    TYIN            READ - NEW VALUE, P N *
   000675 (0)004030 7070 00            505         TSX7    UPPERC          FORCE COMMAND LINE TO UPPER CASE
   000676 (0)004046 7070 00            506         TSX7    GETF
   000677 (0)000032 7100 00            507         TRA     NEXTC           NO FIELD GO TO NEXT COMMAND
   000700 (0)000054 7100 00            508         TRA     KRD11           ALPHA SO LOOK FOR NEXT COMMAND
   000701    000015 1060 03            509         CMPX6   13,DU
   000702 (0)000017 6030 00            510         TRC     ERROR           ERROR-TOO MANY CHARS
   000703 (0)004132 7070 00            511         TSX7    CHRBIN          NUMERIC- CONVERT NEW VALUE
   000704 (0)001006 2340 00            512         SZN     OPNLCM          SYMBOLIC LOCATION MODE
   000705 (0)000710 6000 00            513         TZE     *+3             NO
 22:54 07/29/97  FILE=ISI$MINI.:E05TSI        MINI-DELTA - M -> MODIFY COMMAND PROCESSOR                 24   BMAP - B00
   000706 (0)004217 7070 00            514         TSX7    SYMSTR          YES-STORE NEW VALUE IN SYMBOLIC LOC
   000707 (0)000717 7100 00            515         TRA     MOD7            VALUE HAS BEEN STORED
   000710 (0)001005 2250 00            516         LDX5    OPENLC          ADDRESS OF OPEN CELL -> X5
   000711  X 000000 0554 00            517         STD     DR.USE,TEMPD    NEED TO CHECK
   000712  X 000000 1050 00            518         CMPX5   TEMPD           FOR OUT OF BOUNDS
   000713 (0)000715 6000 00            519         TZE     *+2             ON THE LINE -> IN BOUNDS
   000714 (0)000017 6030 00            520         TRC     ERROR           OVER THE LINE -> TELL 'EM
   000715 (0)004413 7060 00            521         TSX6    STORE           MAKE SURE WE CAN WRITE
   000716    5 00000 7561 15           522         STQ     0,X5,DR.USE     REPLACE OLD WITH NEW VALUE
   000717                              523  MOD7   NULL
   000717 (0)004046 7070 00            524         TSX7    GETF            GET NEXT COMMAND(WITHOUT PROMPT)
   000720 (0)000032 7100 00            525         TRA     NEXTC           JUST TRAILING BLANKS
   000721 (0)000054 7100 00            526         TRA     KRD11           ALPHA-O. K.
   000722 (0)000102 7100 00            527         TRA     ID              NUMERIC ID FIELD

 22:54 07/29/97  FILE=ISI$MINI.:E05TSI        MINI-DELTA - *******                                       25   BMAP - B00
                                       528         TTLS    MINI-DELTA - *******
   000723    000000 0110 00            529         EVEN
   000724
   000724    124124124124              530  MMESS  UASCI   12,TTTTTTTT+YYYYYY  XXXXXXXXXXXX   XXXXXXXXXXXX
   000725    124124124124
   000726    053131131131
   000727    131131131040
   000730    040130130130
   000731    130130130130
   000732    130130130130
   000733    130040040040
   000734    130130130130
   000735    130130130130
   000736    130130130130
   000737    040040040040
                                       531  *
   000740 (0)000724 0017 40            532  TALLY2 TALLYB  MMESS,15        INSERT OPEN LOCATION
   000741 (0)000730 0014 41            533  TALLY3 TALLYB  MMESS+4,12,1    INSERT OLD VALUE
   000742 (0)000734 0014 40            534  TALLY4 TALLYB  MMESS+8,12      INSERT NEW VALUE
   000743 (0)000724 0060 40            535  TALLY5 TALLYB  MMESS,48        PRINT ENTIRE LINE
   000744 (0)000724 0040 40            536  TALLY6 TALLYB  MMESS,32        PRINT JUST OLD VALUE
   000745 (0)000746 0004 40            537  TALLY7 TALLYB  *+1,4           PRINT PROMPT CHAR
   000746    040040040077              538         UASCI   1,   ?
   000747 (0)000750 0004 40            539  TALY13 TALLYB  *+1,4
   000750    105110077040              540         UASCI   1,EH?
   000751 (0)000752 0020 40            541  TALY16 TALLYB  *+1,4*4
   000752    040101101122              542         UASCI   4, AARDVARK HERE
   000753    104126101122
   000754    113040110105
   000755    122105040040
   000756 (0)000760 0120 40            543         TALLYB  COMAND+1,80
   000757    000000 000000             544  COMAND ZERO                    TALLY FOR COMMAND INPUT
   000760    040040040040              545         UASCI   10,
   000761    040040040040
   000762    040040040040
   000763    040040040040
   000764    040040040040
 22:54 07/29/97  FILE=ISI$MINI.:E05TSI        MINI-DELTA - *******                                       26   BMAP - B00
   000765    040040040040
   000766    040040040040
   000767    040040040040
   000770    040040040040
   000771    040040040040
   000772    040040040040              546         UASCI   10,
   000773    040040040040
   000774    040040040040
   000775    040040040040
   000776    040040040040
   000777    040040040040
   001000    040040040040
   001001    040040040040
   001002    040040040040
   001003    040040040040
   001004    000000 000000             547  INDICT ZERO                    SAVE TALLY RUN OUT FROM INPUT COMMAND
   001005    000000 000000             548  OPENLC ZERO                    CURRENT ADDRESS OF OPEN CELL
   001006    000000 000000             549  OPNLCM ZERO                    OPEN LOC MODE. (NZ SYMBOLIC LOCATION)
   001007    000000 000000             550  NEWVAL ZERO                    NEW VALUE
   001010    000000 000000             551  NEWVFL ZERO                    NEW VALUE PRESENT FLAG(NZ PRESENT)
   001011 (0)001014 0010 40            552         TALLYB  TEMP,8          EIGHT CHARS IN TEMP
   001012    000000 000000             553  TALTMP ZERO
   001013    000000 0110 00            554         EVEN
   001014
   001014    000000 000000             555  TEMP   ZERO
   001015    000000 000000             556         ZERO
   001016    000000 000000             557  ALPHAF ZERO                    ALPHA CHAR FLAG(NZ ALPHA)
   001017    000000 000000             558  NUMERF ZERO                    NUMERIC FLAG (NZ FIELD NUMERIC)

 22:54 07/29/97  FILE=ISI$MINI.:E05TSI        MINI-DELTA - P -> PREVIOUS COMMAND PROCESSOR               27   BMAP - B00
                                       559         TTLS    MINI-DELTA - P -> PREVIOUS COMMAND PROCESSOR
          (0)000000001020              560  PREVIO EQU     *
   001020 (0)001005 2350 00            561         LDA     OPENLC          OPEN ADDRESS
   001021    000001 1350 03            562         SBLA    1,DU            MINUS ONE
   001022 (0)001006 2340 00            563         SZN     OPNLCM          SYMBOLIC LOCATION MODE
   001023 (0)001026 6000 00            564         TZE     PREV1           NO
   001024    000001 1350 03            565         SBLA    1,DU            DOUBLE WORD TABLE
   001025 (0)004241 7070 00            566         TSX7    RCHECK          YES-CHECK MUST BE A-X7
   001026 (0)001005 7550 00            567  PREV1  STA     OPENLC
   001027 (0)000615 7100 00            568         TRA     KRD8            PRINT CONTENTS
          (0)000000001030              569  NEXT   EQU     *
   001030 (0)001005 2350 00            570         LDA     OPENLC
   001031    000001 0350 03            571         ADLA    1,DU            ADD ONE TO OPEN LOCATION
   001032 (0)001006 2340 00            572         SZN     OPNLCM          SYMBOLIC LOCATION MODE
   001033 (0)001036 6000 00            573         TZE     NEXT1           NO
   001034    000001 0350 03            574         ADLA    1,DU            DOUBLE WORD TABLE
   001035 (0)004241 7070 00            575         TSX7    RCHECK          YES-CHECK MUST BE A-X7
   001036 (0)001005 7550 00            576  NEXT1  STA     OPENLC
   001037 (0)000615 7100 00            577         TRA     KRD8            PRINT CONTENTS

 22:54 07/29/97  FILE=ISI$MINI.:E05TSI        MINI-DELTA - * -> ASTERISK COMMAND PROCESSOR               28   BMAP - B00
                                       578         TTLS    MINI-DELTA - * -> ASTERISK COMMAND PROCESSOR
          (0)000000001040              579  ASTER  EQU     *
   001040 (0)001006 2340 00            580         SZN     OPNLCM          SYMBOLIC LOCATION MODE
   001041 (0)001050 6000 00            581         TZE     ASTER1          NO
   001042 (0)001005 2350 00            582         LDA     OPENLC          YES-CKECK MUST BE A-X7
   001043 (0)004241 7070 00            583         TSX7    RCHECK
   001044 (0)000741 2350 00            584         LDA     TALLY3          DUMMY FOR SYMLOC ROUTINE
   001045 (0)001005 2360 00            585         LDQ     OPENLC          SYMBOLIC INDEX
   001046 (0)004155 7070 00            586         TSX7    SYMLOC          GET VALUE IN Q
   001047 (0)001052 7100 00            587         TRA     ASTER1+2
   001050                              588  ASTER1 NULL
   001050 (0)001005 2250 00            589         LDX5    OPENLC          ADDRESS OF OPEN CELL -> X5
   001051  X 000000 0554 00            590         STD     DR.USE,TEMPD    NEED TO CHECK
   001052  X 000000 1050 00            591         CMPX5   TEMPD           FOR OUT OF BOUNDS
   001053 (0)001055 6000 00            592         TZE     *+2             ON THE LINE -> IN BOUNDS
   001054 (0)000017 6030 00            593         TRC     ERROR           OVER THE LINE -> TELL 'EM
   001055    5 00000 2361 15           594         LDQ     0,X5,DR.USE     CONTENTS OF OPEN CELL -> Q
   001056    000000 6360 02            595         EAQ     0,QU            ADDRESS IN OPEN CELL
   001057 (0)001005 7560 00            596         STQ     OPENLC            INTO OPEN LOCATION
   001060 (0)001006 4500 00            597         STZ     OPNLCM          NO LONGER IN SYMBOLIC MODE
   001061 (0)000615 7100 00            598         TRA     KRD8            PRINT CONTENTS

 22:54 07/29/97  FILE=ISI$MINI.:E05TSI        MINI-DELTA - A -> AT COMMAND PROCESSOR                     29   BMAP - B00
                                       599         TTLS    MINI-DELTA - A -> AT COMMAND PROCESSOR
          (0)000000001062              600  AT     EQU     *               BREAK SET ROUTINE
   001062    000000 6200 00            601         EAX0    0
   001063 (0)001153 7400 00            602         STX0    BRKNUM          CLEAR BREAK NUMBERS
   001064    000000 6210 00            603         EAX1    0               ASSUME NO ID NUMBER
   001065 (0)000107 2350 00            604         LDA     IDTALY          TALLY WORD POINTING TO ID FIELD
   001066 (0)001073 6000 00            605         TZE     BRK5            NO ID FIELD
   001067 (0)004132 7070 00            606         TSX7    CHRBIN          CONVERT ID TO BINARY
   001070    000000 6210 06            607         EAX1    0,QL              INTO (X1)
   001071 (0)001153 2340 11            608         SZN     EMPTBL-1,X1     ENTRY ALREADY IN USE
   001072 (0)001146 6010 00            609         TNZ     BRKERR          YES-PRINT ERROR MESSAGE
   001073 (0)004522 7070 00            610  BRK5   TSX7    LEXP            EVALUATE LOCATION EXPRESSION
   001074 (0)000017 7100 00            611         TRA     ERROR           ERROR-NO FIELD
   001075 (0)000017 7100 00            612         TRA     ERROR           ERROR-SYMBOLIC MODE
   001076    000007 6220 00            613         EAX2    7               SEVEN POSSIBLE BREAK POINTS
   001077 (0)000577 2340 00            614         SZN     USENO           ARE WE 'USING' DESC FROM MON L.S.
   001100 (0)000017 6010 00            615         TNZ     ERROR           YES -> CANNOT SET BREAK THERE
   001101 (0)000576 2350 00            616         LDA     VECTNO          GET CURRENT SEGMENT NO. -> A
   001102 (0)001153 2340 12            617  BRK1   SZN     EMPTBL-1,X2     EMPTY BREAK POSITION
   001103 (0)001106 6010 00            618         TNZ     BRK2            NO
   001104 (0)001153 7420 00            619         STX2    BRKNUM          YES-SAVE BREAK FOR POSSIBLE USE
   001105 (0)001112 7100 00            620         TRA     BRK3
   001106 (0)001162 1160 12            621  BRK2   CMPQ    ADDTBL-1,X2     A BREAK AT THIS ADDRESS ALREADY
   001107 (0)001112 6010 00            622         TNZ     BRK3            NO -> CONTINUE THRU ALL BREAKS
   001110 (0)001200 1150 12            623         CMPA    SEGTBL-1,X2     COMPARE TO OLD BREAK'S SEGMENT NO.
   001111 (0)000017 6000 00            624         TZE     ERROR           EQUAL -> A BREAK IS ALREADY SET
   001112    000001 1620 03            625  BRK3   SBX2    1,DU            GO THROUGH ALL BREAK NUMBERS
   001113 (0)001102 6010 00            626         TNZ     BRK1
   001114    000000 1010 03            627         CMPX1   0,DU            ID SPECIFIED
   001115 (0)001120 6010 00            628         TNZ     BRK4            YES-USE IT
                                       629  *
   001116 (0)001153 2210 00            630         LDX1    BRKNUM          LOWEST EMPTY BREAK NUMBER
   001117 (0)001146 6000 00            631         TZE     BRKERR          ERROR-NO BREAK POSITIONS AVIALABLE
   001120                              632  BRK4   NULL
   001120 (0)001200 7550 11            633         STA     SEGTBL-1,X1     SAVE SEG. NO. OF BREAK
   001121 (0)001162 7560 11            634         STQ     ADDTBL-1,X1     AND BREAK ADDRESS
   001122    000000 6350 01            635         EAA     0,AU            IS BREAK IN AARDVARK?
 22:54 07/29/97  FILE=ISI$MINI.:E05TSI        MINI-DELTA - A -> AT COMMAND PROCESSOR                     30   BMAP - B00
   001123 (0)001135 6000 00            636         TZE     BRK43           YES -> ALLOW IT
   001124 (0)000326 2370 01            637         LDAQ    VNMS-2,AU       NO -> GET SEGMENT NAME
   001125    000010 6250 00            638         EAX5    BNMSL-2         AND CHECK FOR LEGALITY OF BREAK
   001126                              639  BRK41  NULL
   001126 (0)000564 1170 15            640         CMPAQ   BNMS,X5         IS THIS ONE OF THE LEGAL SEGMENTS?
   001127 (0)001135 6000 00            641         TZE     BRK43           YUP
   001130    777776 6250 15            642         EAX5    -2,X5           NO -> DECREMENT INDEX
   001131 (0)001126 6050 00            643         TPL     BRK41           AND CONTINUE
   001132                              644  BRK42  NULL
   001132 (0)001200 4500 11            645         STZ     SEGTBL-1,X1     NO MATCH -> KILL BREAK
   001133 (0)001162 4500 11            646         STZ     ADDTBL-1,X1
   001134 (0)000017 7100 00            647         TRA     ERROR
   001135                              648  BRK43  NULL
   001135 (0)001162 2250 11            649         LDX5    ADDTBL-1,X1     BREAK ADDRESS -> X5
   001136  X 000000 0554 00            650         STD     DR.USE,TEMPD    NEED TO CHECK
   001137  X 000000 1050 00            651         CMPX5   TEMPD           FOR OUT OF BOUNDS
   001140 (0)001142 6000 00            652         TZE     *+2             ON THE LINE -> IN BOUNDS
   001141 (0)001132 6030 00            653         TRC     BRK42           OVER THE LINE -> TELL 'EM
   001142 (0)001153 0540 11            654         AOS     EMPTBL-1,X1     SET IN USE
   001143 (0)001153 2350 00            655         LDA     BRKNUM          DERAIL WITH BREAK NUM IN ADDRESS
   001144 (0)001171 7550 11            656         STA     SAVINT-1,X1     SAVE BREAK PLANT
   001145 (0)000032 7100 00            657         TRA     NEXTC           NEXT COMMAND
                                       658  *
   001146 (0)002163 2350 00            659  BRKERR LDA     TALY14
   001147 (0)005105 7070 00            660         TSX7    TYPE            PRINT BREAK ERROR MESSAGE
   001150 (0)000032 7100 00            661         TRA     NEXTC           NEXT COMMAND
                                       662  *
                                       663         INHIB   ON              DON'T ALLOW TIMER RUNOUT
   001151    000077 0022 00            664  SNKDRL DRL     0+=O77          SNEAKY DERAIL DERAIL
   001152    000000000000              665         OCT     0               NON-ZERO -> SNEAKY DERAIL IS SET
   001153    000000 0022 00            666  BRKNUM DRL     0               FILL IN ADDRESS WITH BREAK NUMBER
                                       667         INHIB   OFF
   001154    000000000000              668  EMPTBL OCT     0,0,0,0,0,0,0   IN USE TABLE
   001155    000000000000
   001156    000000000000
   001157    000000000000
   001160    000000000000
 22:54 07/29/97  FILE=ISI$MINI.:E05TSI        MINI-DELTA - A -> AT COMMAND PROCESSOR                     31   BMAP - B00
   001161    000000000000
   001162    000000000000
   001163    000000000000              669  ADDTBL OCT     0,0,0,0,0,0,0   ADDRESS TABLE
   001164    000000000000
   001165    000000000000
   001166    000000000000
   001167    000000000000
   001170    000000000000
   001171    000000000000
   001172    000000000000              670  SAVINT OCT     0,0,0,0,0,0,0   SAVED INSTRUCTION TABLE
   001173    000000000000
   001174    000000000000
   001175    000000000000
   001176    000000000000
   001177    000000000000
   001200    000000000000
   001201    000000000000              671  SEGTBL OCT     0,0,0,0,0,0,0   SAVE VECTOR NAME TABLE INDEX+1
   001202    000000000000
   001203    000000000000
   001204    000000000000
   001205    000000000000
   001206    000000000000
   001207    000000000000

 22:54 07/29/97  FILE=ISI$MINI.:E05TSI        MINI-DELTA - FAULT HANDLER                                 32   BMAP - B00
                                       672         TTLS    MINI-DELTA - FAULT HANDLER
                                       673  *
                                       674  *  THE FOLLOWING ARE SPECIAL FAULTS THAT MINI-DELTA RECOGNIZES
                                       675  *
                                       676  *      DRL     -1              SCREECH
                                       677  *      DRL     -2              X-DELTA QUIT COMMAND
                                       678  *      DRL     -3              X-DELTA TBOOT COMMAND
                                       679  *      DRL     -4              X-DELTA PATCH ENTRY RETURN
                                       680  *      DRL     -5              X-DELTA DBOOT ENTRY
                                       681  *
                                       682         INHIB   ON              ******* INHIBIT ********
   001210                              683  DRLHND NULL
   001210                              684  DRLH   NULL
   001210    000000 6342 07            685         LDI     0,DL            SET INDICATORS TO KNOWN VALUE
   001211  X 000000 2342 00            686         SZN S1000_FLG           IF ON A 90 THEN
   001212 (0)001221 6042 00            687         TMI *+7                 DONT DO THE LCPRs
   001213 (0)001337 6742 04            688         LCPR    MODE,04         ENABLE HISTORY REGS
   001214  X 000000 2342 00            689         SZN     RPM_FLG         RPM?
   001215 (0)001220 6012 00            690         TNZ     RPM_CACHE
   001216 (0)001334 6742 02            691         LCPR    CACHE,02        ENABLE CACHE
   001217 (0)001222 7102 00            692         TRA     CACHE_DONE
   001220                              693  RPM_CACHE NULL
   001220 (0)001336 6742 02            694         LCPR    CACHEF_RPM,02
   001221 (0)001335 6742 02            695         LCPR    CACHE_RPM,02
   001222                              696  CACHE_DONE NULL
   001222 (0)004212 7536 00            697         STSS    SSR             STORE SSR
   001223 (0)004216 1516 00            698         SPDBR   PDBR                  PDBR
   001224 (0)004214 7526 00            699         STWS    WSR0                  WSR0-3
   001225 (0)004215 7526 00            700         STWS    WSR4                  WSR4-7
   001226    001764 4746 07            701         LDP     DR.SSR,DSSR,DL  SSR DESCRIPTOR -> DR.SSR
   001227    4 00010 6767 00           702         LDD     DR.X,SSISR,,DR.SSR   FAULTING ISR -> DR.X
   001230    001761 4746 07            703         LDP     DR.SSR,DTYP,DL  CHANGE SO CAN STORE
   001231  X 000000 2372 00            704         LDAQ    DESAAAUTO       PICK UP AUTO DESCRIPTOR
   001232 (0)005176 7572 00            705         STAQ    SAVAUTO         AND REMEMBER IT FOR WHEN WE GO BACK
   001233 (0)005202 6362 00            706         EAQ     ABUF            CHANGE DESCRIPTOR BASE TO -> ABUF
   001234    000020 7722 00            707         QRL     16              BYTE ADDRESS IN Q
   001235  X 000000 7572 00            708         STAQ    DESAAAUTO       PLANT NEW AUTO DESCRIPTOR
 22:54 07/29/97  FILE=ISI$MINI.:E05TSI        MINI-DELTA - FAULT HANDLER                                 33   BMAP - B00
   001236 (0)005161 7022 00            709         TSX2    SETAUTO         AND INITIALIZE THE STACK
   001237 (0)002310 4502 00            710         STZ     QFLAG           ZAP FLAG JUST IN CASE
                                       711  *
   001240 (0)004412 2212 00            712         LDX1    BKFLPF          BREAK FLIP IN PROGRESS FLAG SET?
   001241 (0)001250 6002 00            713         TZE     DRLH0           NO -> CONTINUE
   001242 (0)004412 4502 00            714         STZ     BKFLPF          YES -> RESET FLAG AND
   001243 (0)001163 4502 11            715         STZ     EMPTBL+7,X1     KILL THE
   001244 (0)001210 4502 11            716         STZ     SEGTBL+7,X1     FAULTING BREAK
   001245 (0)004333 6212 00            717         EAX1    BRKFL1          AND RETURN
   001246    4 00004 7413 00           718         STX1    ICADD,,DR.SSR   TO BREAK FLIPPER
   001247 (0)001657 7102 00            719         TRA     GOBACK
   001250                              720  DRLH0  NULL
   001250 (0)003557 2142 00            721         SZNC    DUMPSW          DID WE FAULT TRYING TO DUMP?
   001251 (0)001254 6002 00            722         TZE     DRLH01          NOPE -> THAT'S GOOD
   001252 (0)003563 4502 00            723         STZ     DHIGH           YES  -> ZAP HIGH DUMP ADDRESS
   001253 (0)001657 7102 00            724         TRA     GOBACK          AND RETURN
   001254                              725  DRLH01 NULL
   001254 (0)000576 4502 00            726         STZ     VECTNO          MAKE SURE IT'S RIGHT
   001255 (0)000577 4502 00            727         STZ     USENO
   001256 (0)001152 2342 00            728         SZN     SNKDRL+1        IS SNEAKY DERAIL SET?
   001257 (0)001302 6012 00            729         TNZ     DRLH3           YES -> ALREADY DISABLED
                                       730  *
                                       731  *
                                       732  *
                                       733         SIMR                    SAVE INT MASK REG AND DISABLE
   001260  X 000000 2342 00                  SZN S1000_FLG       ARE WE ON AN S1000?
   001261 (0)001271 6012 00                  TNZ *+8             YES
   001262    000000 2332 00                  RMCM 0               NO  -  LOAD MASK
   001263  X 000000 7572 53                  STAQ SPWI,AD         SAVE IT ON ITS OWN STACK
   001264    000017 3752 07                  ANA =O017,DL        KEEP PORT INFO
   001265    000017 3762 07                  ANQ =O017,DL
   001266  X 000000 7572 00                  STAQ PMASK           SAVE THIS FOR LATER
   001267    000000 5532 00                  SMCM 0               DISABLE INTERRUPTS
   001270 (0)001275 7102 00                  TRA *+5             EXIT
   001271    000000 2332 00                  RIMR
   001272  X 000000 7572 53                  STAQ SPWI,AD         SAVE ON STACK
   001273    000000 6352 00                  EAA 0               DISABLE
 22:54 07/29/97  FILE=ISI$MINI.:E05TSI        MINI-DELTA - FAULT HANDLER                                 34   BMAP - B00
   001274    000000 5532 00                  LIMR
                                       734         SFAULT                  SAVE AND SWITCH FAULT ENTRY DESCRIPTORS
                                             IFE AARDVARK,0,4
                                             SYMREF FLTLOC
                                             SYMREF AFLTLC
                                             SYMREF AAFLTD
                                             SYMREF SPWF
   001275    000032 2372 00                  LDAQ FLTLOC          OLD VALUE
   001276  X 000000 7572 53                  STAQ SPWF,AD         PUSH IT ON ITS OWN STACK
   001277  X 000000 2372 00                  LDAQ AAFLTD          GET AARDVARK'S FAULT DESCRIPTOR
   001300    000032 7572 00                  STAQ FLTLOC          PLAANT IT
   001301  X 000000 7572 00                  STAQ AFLTLC
                                       735  *
                                       736  *
                                       737         INHIB   OFF             ******* ENABLE *********
   001302                              738  DRLH3  NULL
   001302    4 00005 2351 00           739         LDA     FC,,DR.SSR
   001303    000100 3150 03            740         CANA    =O100,DU        INTERRUPT BIT SET IN SSS FRAME
   001304 (0)001410 6010 00            741         TNZ     DRLH1           YES-PROMPT
   001305    4 00004 2361 00           742         LDQ     ICADD,,DR.SSR   GET IC AND INDICATORS (SSR FRAME)
   001306  X 000000 2340 00            743         SZN     S1000_FLG       Are we on a DPS-90?
   001307 (0)001330 6040 00            744         TMI     FIXIC           YES-> IC is the current address
   001310    000040 3160 07            745         CANQ    =O40,DL         IC AT INSTRUCTION +1
   001311 (0)001313 6010 00            746         TNZ     ICOK            NO
   001312    777777 6360 02            747         EAQ     -1,QU
   001313    000000 6360 02            748  ICOK   EAQ     0,QU            ISOLATE FAULT ADDRESS
   001314    000076 3750 03            749         ANA     =O76,DU         ISOLATE FAULT CODE FROM SS STACK
   001315    000014 1150 03            750         CMPA    =O14,DU         DERAIL FAULT
   001316 (0)001412 6010 00            751         TNZ     DRLERR          NO-REPORT FAULT
   001317    000000 6210 02            752         EAX1    0,QU            ADDRESS OF DERAIL ->X1
   001320 (0)001152 2340 00            753         SZN     SNKDRL+1        IS SNEAKY DERAIL IN PLACE?
   001321 (0)001340 6000 00            754         TZE     DRLH2           NO -> MAYBE IT'S A REGULAR BREAK
   001322 (0)002702 1010 00            755         CMPX1   GOADD           IS THIS A SNEAKY DERAIL ADDRESS
   001323 (0)001412 6010 00            756         TNZ     DRLERR          NO -> FAULT BECAUSE IT CANNOT BE BREAK
   001324    6 00000 2351 11           757         LDA     0,X1,DR.X       FAULTING DERAIL INST -> A
   001325 (0)001151 1150 00            758         CMPA    SNKDRL          IS IT REALLY A SNEAKY DERAIL
   001326 (0)002404 6000 00            759         TZE     GO8             IT SURE IS -> JUST FLIP AND GET OUT
 22:54 07/29/97  FILE=ISI$MINI.:E05TSI        MINI-DELTA - FAULT HANDLER                                 35   BMAP - B00
   001327 (0)001412 7100 00            760         TRA     DRLERR          NO -> FAULT BECAUSE IT CANNOT BE BREAK
   001330                              761  FIXIC  NULL                    Add 1 to IC in SSR frame for S1000
   001330    000000 6210 02            762         EAX1    0,QU
   001331    000001 6210 11            763         EAX1    1,X1
   001332    4 00004 7411 00           764         STX1    ICADD,,DR.SSR
   001333 (0)001313 7100 00            765         TRA     ICOK
                                       766         EVEN
   001334    000000740000              767  CACHE  OCT     740000
   001335    000000446000              768  CACHE_RPM  OCT     446000
   001336    000000046000              769  CACHEF_RPM OCT     046000
   001337    000000000065              770  MODE   OCT     65
   001340                              771  DRLH2  NULL
   001340    6 00000 2211 11           772         LDX1    0,X1,DR.X       BREAK NUMBER FROM DERAIL -> X1
   001341 (0)001412 6000 00            773         TZE     DRLERR          NO BREAK POINT ZERO-REPORT FAULT
   001342  X 000000 2140 00            774         SZNC    XDFLAG          X-DELTA RETURN EXPECTED?
   001343 (0)001352 6000 00            775         TZE     *+7             NO -> DON'T TEST FOR IT
   001344    777774 1010 03            776         CMPX1   -4,DU           YES -> IS THIS IT?
   001345 (0)001351 6010 00            777         TNZ     *+4             NO
   001346 (0)005176 2370 00            778         LDAQ    SAVAUTO         YES -> GET OLD AUTO DESC
   001347  X 000000 7570 00            779         STAQ    DESAAAUTO       PUT IT BACK IN THE LINKAGE SEG
   001350  X 000000 7100 00            780         TRA     XDRET           GO BACK TO XDELTA
   001351  X 000000 0540 00            781         AOS     XDFLAG          NO -> RESET FLAG
   001352    777777 1010 03            782         CMPX1   -1,DU           WAS IT SCREECH WHAT GOT US HERE
   001353 (0)001624 6000 00            783         TZE     DRLSCR          YES -> SPECIAL HANDLING
   001354    777773 1010 03            784         CMPX1   -5,DU           NO  -> POSSIBLY XDELTA DISC BOOT?
   001355 (0)001360 6000 00            785         TZE     *+3             YES -> SET FLAG
   001356    777775 1010 03            786         CMPX1   -3,DU           NO -> POSSIBLY X-DELTA TBOOT?
   001357 (0)001362 6010 00            787         TNZ     *+3             NOPE
   001360 (0)002311 0540 00            788         AOS     TQFLAG          PERHAPS -> SET FLAG
   001361 (0)001412 7100 00            789         TRA     DRLERR          AND CONTINUE
   001362    777776 1010 03            790         CMPX1   -2,DU           NO -> POSSIBLY X-DELTA QUIT?
   001363 (0)001366 6010 00            791         TNZ     *+3             NOPE
   001364 (0)002310 0540 00            792         AOS     QFLAG           PERHAPS -> SET FLAG
   001365 (0)001412 7100 00            793         TRA     DRLERR          AND CONTINUE
   001366    000010 1010 03            794         CMPX1   8,DU
   001367 (0)001412 6030 00            795         TRC     DRLERR          CAN NOT BE A BREAK
   001370 (0)001153 2340 11            796         SZN     EMPTBL-1,X1     LIVE BREAK POSITION
 22:54 07/29/97  FILE=ISI$MINI.:E05TSI        MINI-DELTA - FAULT HANDLER                                 36   BMAP - B00
   001371 (0)001412 6000 00            797         TZE     DRLERR          NO-REPORT FAULT
   001372 (0)001162 1160 11            798         CMPQ    ADDTBL-1,X1     A BREAK AT THIS LOCATION
   001373 (0)001412 6010 00            799         TNZ     DRLERR          NO-ERROR REPORT DERAIL TRAP
   001374 (0)002157 4410 00            800         SXL1    CBKNUM          SAVE CURRENT BREAK NUMBER
   001375 (0)001200 2350 11            801         LDA     SEGTBL-1,X1     GET VECTOR INDEX -> AU
   001376 (0)000576 7550 00            802         STA     VECTNO          SAVE IT
   001377 (0)001403 6000 00            803         TZE     *+4             0 -> BREAK IS IN BISON -> USE ISR
   001400    000001 7710 00            804         ARL     1               CONVERT INDEX TO WORD INDEX
   001401  X 000000 4754 01            805         LDP     DR.USE,I$TYP0$,AU              PICK UP THE DESC
   001402 (0)001404 7100 00            806         TRA     *+2             AND MAKE IT THE DEFAULT
   001403    001762 4754 07            807         LDP     DR.USE,ISR,DL   MAKE SURE WE'VE GOT BISON'S DESCR.
   001404 (0)004265 7070 00            808         TSX7    PRTBRK          PRINT THE BREAK POINT
   001405 (0)002156 0540 00            809         AOS     ATBRK           SET AT BREAK POINT
   001406 (0)004361 7070 00            810         TSX7    BKFLPE          FLIP BREAK POINTS AT ENTRY TO DELTA
   001407 (0)000032 7100 00            811         TRA     NEXTC           NEXT COMMAND
   001410 (0)004361 7070 00            812  DRLH1  TSX7    BKFLPE          FLIP BREAK POINTS AT ENTRY TO DELTA
   001411 (0)000014 7100 00            813         TRA     DHERE           PROMPT
                                       814  *
   001412                              815  DRLERR NULL
   001412    000000 6270 02            816         EAX7    0,QU            QU =  LOCATION OF FAULT -> X7
   001413    4 00010 2351 00           817         LDA     SSISR,,DR.SSR   ISR FROM SS FRAME
   001414    000004 7310 00            818         ARS     4               RIGHT JUSTIFY WSR
   001415    000007 3750 07            819         ANA     7,DL            MASK ALL BUT WSR
   001416 (0)001417 7100 25            820         TRA     *+1,AL*         GO TO APPROPRIATE PLACE
   001417 (0)001465 0000 00            821         ARG     DRLER6          WSR=0 -> MON
   001420 (0)001427 0000 00            822         ARG     DRLERG          WSR=1 -> UNDEFINED
   001421 (0)001474 0000 00            823         ARG     DRLER7          WSR=2 -> AARDVARK OR X-DELTA
   001422 (0)001427 0000 00            824         ARG     DRLERG          WSR=3 -> UNDEFINED
   001423 (0)001447 0000 00            825         ARG     DRLER9          WSR=4 -> COMMAND PROCESSOR
   001424 (0)001431 0000 00            826         ARG     DRLERU          WSR=5 -> USER-DELTA
   001425 (0)001440 0000 00            827         ARG     DRLERL          WSR=6 -> ASL
   001426 (0)001456 0000 00            828         ARG     DRLER8          WSR=7 -> USER
   001427                              829  DRLERG NULL                    UNDEFINED GUY FAULTED
   001427 (0)002176 2370 00            830         LDAQ    GARBTM          NO -> PICK UP GARBAGE
   001430 (0)001514 7100 00            831         TRA     DRLER0+1        AND GO
   001431                              832  DRLERU NULL                    USER-DELTA FAULTED
   001431  X 000002 6350 00            833         EAA     DESCUI+2        RELOCATION
 22:54 07/29/97  FILE=ISI$MINI.:E05TSI        MINI-DELTA - FAULT HANDLER                                 37   BMAP - B00
   001432  X 000000 6350 01            834         EAA     -DESC0,AU         INDEX TO USER ISR DESC
   001433 (0)000576 7550 00            835         STA     VECTNO
   001434    000001 7710 00            836         ARL     1               CONVERT INDEX TO WORD INDEX
   001435  X 000000 4754 01            837         LDP     DR.USE,I$TYP0$,AU               FRAME IT
   001436 (0)002170 2370 00            838         LDAQ    UDTM            PICK UP 'U-DELTA '
   001437 (0)001514 7100 00            839         TRA     DRLER0+1
   001440                              840  DRLERL NULL                    ASL FAULTED
   001440  X 000002 6350 00            841         EAA     DESCUI+2        RELOCATION
   001441  X 000000 6350 01            842         EAA     -DESC0,AU         INDEX TO USER ISR DESC
   001442 (0)000576 7550 00            843         STA     VECTNO
   001443    000001 7710 00            844         ARL     1               CONVERT INDEX TO WORD INDEX
   001444  X 000000 4754 01            845         LDP     DR.USE,I$TYP0$,AU               FRAME IT
   001445 (0)002172 2370 00            846         LDAQ    ASLTM           PICK UP '     ASL'
   001446 (0)001514 7100 00            847         TRA     DRLER0+1
   001447                              848  DRLER9 NULL                    COME HERE IF CP FAULTED
   001447  X 000002 6350 00            849         EAA     DESCCP+2        RELOCATION
   001450  X 000000 6350 01            850         EAA     -DESC0,AU         INDEX TO CP       DESC
   001451 (0)000576 7550 00            851         STA     VECTNO          SAVE IT
   001452    000001 7710 00            852         ARL     1               CONVERT INDEX TO WORD INDEX
   001453  X 000000 4754 01            853         LDP     DR.USE,I$TYP0$,AU               FRAME IT
   001454 (0)002174 2370 00            854         LDAQ    CPTM            PICK UP '   CP '
   001455 (0)001514 7100 00            855         TRA     DRLER0+1
   001456                              856  DRLER8 NULL                    COME HERE IF GHOST1/USER TRAPPED
   001456  X 000002 6350 00            857         EAA     DESCUI+2        RELOCATION
   001457  X 000000 6350 01            858         EAA     -DESC0,AU         INDEX TO USER ISR DESC
   001460 (0)000576 7550 00            859         STA     VECTNO          SAVE IT
   001461    000001 7710 00            860         ARL     1               CONVERT INDEX TO WORD INDEX
   001462  X 000000 4754 01            861         LDP     DR.USE,I$TYP0$,AU               FRAME IT
   001463 (0)002202 2370 00            862         LDAQ    USERTM          PICK UP '    USER'
   001464 (0)001514 7100 00            863         TRA     DRLER0+1
   001465                              864  DRLER6 NULL
   001465  X 000002 6350 00            865         EAA     DESCMI+2        RELOCATION
   001466  X 000000 6350 01            866         EAA     -DESC0,AU         INDEX TO MON  ISR DESC
   001467 (0)000576 7550 00            867         STA     VECTNO          SAVE IT
   001470    000001 7710 00            868         ARL     1               CONVERT INDEX TO WORD INDEX
   001471  X 000000 4754 01            869         LDP     DR.USE,I$TYP0$,AU               FRAME IT
   001472 (0)002200 2370 00            870         LDAQ    MONTM           PICK UP '   MON  '
 22:54 07/29/97  FILE=ISI$MINI.:E05TSI        MINI-DELTA - FAULT HANDLER                                 38   BMAP - B00
   001473 (0)001514 7100 00            871         TRA     DRLER0+1
   001474                              872  DRLER7 NULL
   001474    4 00011 2341 00           873         SZN     SSISR+1,,DR.SSR IS ISR BASE=0
   001475 (0)001513 6000 00            874         TZE     DRLER0          YES -> AARDVARK
   001476    777773 1010 03            875         CMPX1   -5,DU           NO -> XDELTA, IS IT DBOOT?
   001477 (0)002270 6000 00            876         TZE     DBT0            YEP
   001500 (0)002311 2140 00            877         SZNC    TQFLAG          NO -> X-DELTA, IS IT TBOOT?
   001501 (0)002274 6010 00            878         TNZ     TBOOT           YUP
   001502 (0)002310 2140 00            879         SZNC    QFLAG           NO -> X-DELTA, IS IT QUIT?
   001503 (0)002275 6010 00            880         TNZ     KILLQ           YUP
   001504  X 000002 6350 00            881         EAA     DESCXI+2        RELOCATION
   001505  X 000000 6350 01            882         EAA     -DESC0,AU         INDEX TO X-DELTA ISR DESC
   001506 (0)000576 7550 00            883         STA     VECTNO          SAVE IT
   001507    000001 7710 00            884         ARL     1               CONVERT INDEX TO WORD INDEX
   001510  X 000000 4754 01            885         LDP     DR.USE,I$TYP0$,AU               FRAME IT
   001511 (0)002166 2370 00            886         LDAQ    XDTM            PICK       UP 'X-DELTA'
   001512 (0)001514 7100 00            887         TRA     DRLER0+1
   001513                              888  DRLER0 NULL
   001513 (0)002164 2370 00            889         LDAQ    BOOTTM          PICK UP 'AARDVRK'
   001514 (0)002310 4500 00            890         STZ     QFLAG           ZAP FLAG JUST IN CASE
   001515 (0)002311 4500 00            891         STZ     TQFLAG          DITTO
   001516 (0)002204 7570 00            892         STAQ    DMESS-2         FIX UP FAULT MESSAGE
   001517 (0)003454 7570 00            893         STAQ    USEM            AND DUMP HEADING
   001520 (0)004520 2370 00            894         LDAQ    BLANKS
   001521 (0)003456 7570 00            895         STAQ    USEM+2
   001522    000000 6360 17            896         EAQ     0,X7            RESTORE FAULT LOCATION -> QU
   001523 (0)002160 2350 00            897         LDA     TALY10
   001524 (0)004643 7070 00            898         TSX7    LOCOFF          GET LOCATION PLUS OFFSET
   001525    4 00005 2361 00           899         LDQ     FC,,DR.SSR
   001526    000076 3760 03            900         ANQ     =O76,DU         FAULT CODE * 2  ->  QU
   001527    000010 1160 03            901         CMPQ    8,DU            *******IS IT TIMER RUNOUT
   001530 (0)001546 6010 00            902         TNZ     DRLER5          *******NO -> CONTINUE
                                       903         INHIB   ON              *******
                                       904  *
   001531 (0)001152 2342 00            905         SZN     SNKDRL+1        IS SNEAKY DERAIL SET?
   001532 (0)001542 6012 00            906         TNZ     DRLER01         YES -> NO PUSH WAS DONE
                                       907         RIMR1                   RESTORE INT MASK REG
 22:54 07/29/97  FILE=ISI$MINI.:E05TSI        MINI-DELTA - FAULT HANDLER                                 39   BMAP - B00
   001533  X 000000 2372 44                  LDAQ SPWI,SD         PULL FROM SPECIAL STACK
   001534  X 000000 2342 00                  SZN S1000_FLG       ARE WE ON AN S1000
   001535 (0)001541 6012 00                  TNZ *+4             YES
   001536  X 000000 2772 00                  ORAQ PMASK           MAKE SURE PORTS ARE ENABLED
   001537    000000 5532 00                  SMCM 0               ENABLE OR WHATEVER
   001540 (0)001542 7102 00                  TRA *+2             EXIT
   001541    000000 5532 00                  LIMR
   001542                              908  DRLER01 NULL
   001542 (0)001605 7102 00            909         TRA     DRLER4          *******GO TO FAULT HANDLER REGARDLESS
   001543 (0)002245 2342 00            910         SZN     FLTSW           *******IS FAULT HANDLER SWITCH ON?
   001544 (0)001605 6012 00            911         TNZ     DRLER4          *******YES -> GO THERE NOW
   001545 (0)001657 7102 00            912         TRA     GOBACK          *******NO -> IGNORE FOR COYOTE
   001546                              913  DRLER5 NULL                    *******
                                       914         INHIB   OFF             *******
   001546    000052 1160 03            915         CMPQ    =O52,DU         LARGEST KNOWN FAULT CODE=O25
   001547 (0)001553 6044 00            916         TMOZ    DRLER1          FAULT CODE IS OKAY
   001550    000026 2270 03            917         LDX7    =O026,DU        FAULT CODE TOO LARGE -> USE O26
   001551    000002 7360 00            918         QLS     2               FAULT CODE * 8  ->  QU
   001552 (0)001555 7100 00            919         TRA     DRLER2          AND GO
   001553                              920  DRLER1 NULL
   001553    000002 7360 00            921         QLS     2               FAULT CODE * 8  ->  QU
   001554    000000 6270 02            922         EAX7    0,QU            QU -> X7
   001555                              923  DRLER2 NULL
   001555    000000 6230 02            924         EAX3    0,QU            SAVE FAULT CODE * 8 -> X3
   001556 (0)001666 2370 17            925         LDAQ    FLTNM,X7        MOVE
   001557 (0)002220 7570 00            926         STAQ    DMESS+10        FAULT NAME
   001560 (0)001670 2370 17            927         LDAQ    FLTNM+2,X7      TO
   001561 (0)002222 7570 00            928         STAQ    DMESS+12        FAULT MESSAGE
   001562 (0)001672 2370 17            929         LDAQ    FLTNM+4,X7      TO
   001563 (0)002224 7570 00            930         STAQ    DMESS+14        FAULT MESSAGE
   001564 (0)001674 2370 17            931         LDAQ    FLTNM+6,X7      TO
   001565 (0)002226 7570 00            932         STAQ    DMESS+16        FAULT MESSAGE
   001566    000000 6360 13            933         EAQ     0,X3            RESTORE FAULT CODE * 8 -> QU
   001567    000011 7360 00            934         QLS     9               SHIFT FAULT CODE TO POSITION
   001570 (0)002162 2350 00            935         LDA     TALY17
   001571 (0)004143 7070 00            936         TSX7    BINCHR          PUT FAULT CODE IN MESSAGE
   001572 (0)002161 2350 00            937         LDA     TALY11
 22:54 07/29/97  FILE=ISI$MINI.:E05TSI        MINI-DELTA - FAULT HANDLER                                 40   BMAP - B00
   001573                              938  DRLER3 NULL
   001573 (0)005071 7070 00            939         TSX7    OCOUT           PRINT             MESSAGE
   001574 (0)004361 7070 00            940         TSX7    BKFLPE          FLIP BREAK POINTS AT ENTRY TO DELTA
   001575 (0)000576 2340 00            941         SZN     VECTNO          WAS IT AARDVARK WHAT TRAPPED?
   001576 (0)000032 6000 00            942         TZE     NEXTC           IT SURE WAS -> STAY OUT OF FAULT HANDLER
   001577 (0)002245 2340 00            943         SZN     FLTSW           DO WE GO TO FAULT HANDLER?
   001600 (0)000032 6000 00            944         TZE     NEXTC           NO -> NEXT COMMAND
   001601 (0)001152 4500 00            945         STZ     SNKDRL+1        SNEAKY DERAIL IS NOW GONE
   001602 (0)004402 7070 00            946         TSX7    BKFLPR          FLIP BRK POINTS AT RETURN FROM DEL
                                       947         INHIB   ON
   001603 (0)002702 4502 00            948         STZ     GOADD           CLEAR SNEAKY DERAIL ADDRESS
   001604 (0)002156 4502 00            949         STZ     ATBRK           CLEAR AT BREAK
   001605                              950  DRLER4 NULL
   001605  X 000000 4716 00            951         LDP     LS,I$MLS$                 MON LSR DESC -> DR#LS
   001606    1 00000 6707 00           952         LDD0    LS.IS*2,,LS     MON ISR  -> DR0
   001607    1 00000 6727 00           953         LDD2    LS.IS*2,,LS     MON ISR  -> DR2
   001610    1 00000 6737 00           954         LDD3    LS.IS*2,,LS     MON ISR  -> DR3
   001611    1 00000 6747 00           955         LDD4    LS.IS*2,,LS     MON ISR  -> DR4
   001612    1 00000 6757 00           956         LDD5    LS.IS*2,,LS     MON ISR  -> DR5
   001613    1 00000 6767 00           957         LDD6    LS.IS*2,,LS     MON ISR  -> DR6
   001614    1 00000 6777 00           958         LDD7    LS.IS*2,,LS     MON ISR  -> DR7
   001615    000155 6272 00            959         EAX7    LS.FLT          RELOCATION
   001616    1 00155 6717 17           960         LDD     LS,LS.FLT,X7,LS PICK UP FAULT ENTRY DESC FROM MON LS
                                       961         RFAULT                  RESTORE FAULT ENTRY DESCRIPTORS
                                             IFE AARDVARK,0,3
                                             SYMREF FLTLOC
                                             SYMREF AFLTLC
                                             SYMREF SPWF
   001617  X 000000 2372 44                  LDAQ SPWF,SD         PULL IT FROM ITS STACK
   001620    000032 7572 00                  STAQ FLTLOC          AND RE-PLANT IT
   001621  X 000000 7572 00                  STAQ AFLTLC
   001622    000000 7134 00            962         GOTO    LS+=O1770       LATERAL TRANSFER
   001623    0 000 000 23 1771
                                       963         INHIB   OFF
                                       964  *
                                       965  *
   001624                              966  DRLSCR NULL                    COME HERE IF SCREECH
 22:54 07/29/97  FILE=ISI$MINI.:E05TSI        MINI-DELTA - FAULT HANDLER                                 41   BMAP - B00
   001624  X 000000 2370 44            967         LDAQ    SPWI,SD         EMPTY STACK BEFORE INITIALIZING
   001625 (0)001014 7550 00            968         STA     TEMP            LDSPWS USES A-REG
   001626 (0)001630 7100 00            969         TRA     *+2             WHY WAS I DOING THIS?
   001627  X 000000 7070 00            970         TSX7    LDSPWS          INITIALIZE THE STACKS
   001630 (0)001014 2350 00            971         LDA     TEMP
   001631  X 000000 7570 53            972         STAQ    SPWI,AD         PUT IT BACK
   001632    4 00010 2351 00           973         LDA     SSISR,,DR.SSR   ISR FROM SS FRAME
   001633    000004 7310 00            974         ARS     4               RIGHT JUSTIFY AND
   001634    000007 3750 07            975         ANA     7,DL            ISOLATE WSR -> AL
   001635    000002 1150 07            976         CMPA    WSRX,DL         IS IT X-DELTA'S ISR?
   001636 (0)001642 6010 00            977         TNZ     *+4             NO -> ASSUME MON
   001637  X 000002 6350 00            978         EAA     DESCXI+2          YES -> USE X-DELTA
   001640  X 000000 6350 01            979         EAA     -DESC0,AU       RELOCATION
   001641 (0)001644 7100 00            980         TRA     *+3
   001642  X 000002 6350 00            981         EAA     DESCMI+2          INDEX TO MON ISR DESCRIPTOR
   001643  X 000000 6350 01            982         EAA     -DESC0,AU       RELOCATION
   001644 (0)000576 7550 00            983         STA     VECTNO          SAVE IT
   001645    000001 7710 00            984         ARL     1               CONVERT INDEX TO WORD INDEX
   001646  X 000000 4754 01            985         LDP     DR.USE,I$TYP0$,AU              PICK UP THE DESC
   001647 (0)002166 2370 00            986         LDAQ    XDTM            PICK UP 'X-DELTA'
   001650 (0)003454 7570 00            987         STAQ    USEM            AND FIX UP DUMP HEADING
   001651 (0)004520 2370 00            988         LDAQ    BLANKS
   001652 (0)003456 7570 00            989         STAQ    USEM+2
   001653 (0)000751 2350 00            990         LDA     TALY16          DO IT DICKEY'S WAY
   001654 (0)005071 7070 00            991         TSX7    OCOUT           PRINT DERAIL TRAP MESSAGE
   001655 (0)004361 7070 00            992         TSX7    BKFLPE          FLIP BREAK POINTS AT ENTRY TO DELTA
   001656 (0)000032 7100 00            993         TRA     NEXTC           NEXT COMMAND
                                       994  *
   001657                              995  GOBACK NULL                    RETURN TO THE DOMAIN THAT WE CAME FROM
   001657 (0)005176 2370 00            996         LDAQ    SAVAUTO         PICK UP OLD AUTO DESCRIPTOR
   001660  X 000000 7570 00            997         STAQ    DESAAAUTO       PUT IT BACK
   001661    000000 7134 00            998         EXIT                    AND CLIMB BACK TO WHOEVER FAULTED
   001662    0 000 000 01 0000
                                       999  *
   001663 (0)001664 0010 40           1000         TALLYB   *+1,2*4
   001664    040123103122             1001  SCRMES UASCI   2, SCREECH
   001665    105105103110
 22:54 07/29/97  FILE=ISI$MINI.:E05TSI        MINI-DELTA - FAULT HANDLER                                 42   BMAP - B00
                                      1002  *
                                      1003         EVEN
   001666                             1004  FLTNM  NULL                    FAULT NAME TABLE
   001666    123110125124             1005         UASCI   8,SHUTDOWN                            CODE=00000
   001667    104117127116
   001670    040040040040
   001671    040040040040
   001672    040040040040
   001673    040040040040
   001674    040040040040
   001675    040040040040
   001676    115105115117             1006         UASCI   8,MEMORY(STR)                         CODE=00001
   001677    122131050123
   001700    124122051040
   001701    040040040040
   001702    040040040040
   001703    040040040040
   001704    040040040040
   001705    040040040040
   001706    115101123124             1007         UASCI   8,MASTER MODE ENTRY                   CODE=00010
   001707    105122040115
   001710    117104105040
   001711    105116124122
   001712    131040040040
   001713    040040040040
   001714    040040040040
   001715    040040040040
   001716    106101125114             1008         UASCI   8,FAULT TAG                           CODE=00011
   001717    124040124101
   001720    107040040040
   001721    040040040040
   001722    040040040040
   001723    040040040040
   001724    040040040040
   001725    040040040040
   001726    124111115105             1009         UASCI   8,TIMER RUNOUT                        CODE=00100
   001727    122040122125
 22:54 07/29/97  FILE=ISI$MINI.:E05TSI        MINI-DELTA - FAULT HANDLER                                 43   BMAP - B00
   001730    116117125124
   001731    040040040040
   001732    040040040040
   001733    040040040040
   001734    040040040040
   001735    040040040040
   001736    103117115115             1010         UASCI   8,COMMAND                             CODE=00101
   001737    101116104040
   001740    040040040040
   001741    040040040040
   001742    040040040040
   001743    040040040040
   001744    040040040040
   001745    040040040040
   001746    104105122101             1011         UASCI   8,DERAIL                              CODE=00110
   001747    111114040040
   001750    040040040040
   001751    040040040040
   001752    040040040040
   001753    040040040040
   001754    040040040040
   001755    040040040040
   001756    114117103113             1012         UASCI   8,LOCKUP                              CODE=00111
   001757    125120040040
   001760    040040040040
   001761    040040040040
   001762    040040040040
   001763    040040040040
   001764    040040040040
   001765    040040040040
   001766    103117116116             1013         UASCI   8,CONNECT                             CODE=01000
   001767    105103124040
   001770    040040040040
   001771    040040040040
   001772    040040040040
   001773    040040040040
   001774    040040040040
 22:54 07/29/97  FILE=ISI$MINI.:E05TSI        MINI-DELTA - FAULT HANDLER                                 44   BMAP - B00
   001775    040040040040
   001776    120101122111             1014         UASCI   8,PARITY                              CODE=01001
   001777    124131040040
   002000    040040040040
   002001    040040040040
   002002    040040040040
   002003    040040040040
   002004    040040040040
   002005    040040040040
   002006    111114114105             1015         UASCI   8,ILLEGAL PROCEDURE                   CODE=01010
   002007    107101114040
   002010    120122117103
   002011    105104125122
   002012    105040040040
   002013    040040040040
   002014    040040040040
   002015    040040040040
   002016    117120105122             1016         UASCI   8,OPERATION NOT COMPLETED             CODE=01011
   002017    101124111117
   002020    116040116117
   002021    124040103117
   002022    115120114105
   002023    124105104040
   002024    040040040040
   002025    040040040040
   002026    123124101122             1017         UASCI   8,STARTUP                             CODE=01100
   002027    124125120040
   002030    040040040040
   002031    040040040040
   002032    040040040040
   002033    040040040040
   002034    040040040040
   002035    040040040040
   002036    117126105122             1018         UASCI   8,OVERFLOW                            CODE=01101
   002037    106114117127
   002040    040040040040
   002041    040040040040
 22:54 07/29/97  FILE=ISI$MINI.:E05TSI        MINI-DELTA - FAULT HANDLER                                 45   BMAP - B00
   002042    040040040040
   002043    040040040040
   002044    040040040040
   002045    040040040040
   002046    104111126111             1019         UASCI   8,DIVIDE CHECK                        CODE=01110
   002047    104105040103
   002050    110105103113
   002051    040040040040
   002052    040040040040
   002053    040040040040
   002054    040040040040
   002055    040040040040
   002056    105130105103             1020         UASCI   8,EXECUTE                             CODE=01111
   002057    125124105040
   002060    040040040040
   002061    040040040040
   002062    040040040040
   002063    040040040040
   002064    040040040040
   002065    040040040040
   002066    123105103125             1021         UASCI   8,SECURITY FAULT, CLASS 1             CODE=10000
   002067    122111124131
   002070    040106101125
   002071    114124054040
   002072    103114101123
   002073    123040061040
   002074    040040040040
   002075    040040040040
   002076    104131116101             1022         UASCI   8,DYNAMIC LINKING                     CODE=10001
   002077    115111103040
   002100    114111116113
   002101    111116107040
   002102    040040040040
   002103    040040040040
   002104    040040040040
   002105    040040040040
   002106    115111123123             1023         UASCI   8,MISSING SEGMENT                     CODE=10010
 22:54 07/29/97  FILE=ISI$MINI.:E05TSI        MINI-DELTA - FAULT HANDLER                                 46   BMAP - B00
   002107    111116107040
   002110    123105107115
   002111    105116124040
   002112    040040040040
   002113    040040040040
   002114    040040040040
   002115    040040040040
   002116    115111123123             1024         UASCI   8,MISSING WORKING SPACE               CODE=10011
   002117    111116107040
   002120    127117122113
   002121    111116107040
   002122    123120101103
   002123    105040040040
   002124    040040040040
   002125    040040040040
   002126    115111123123             1025         UASCI   8,MISSING PAGE                        CODE=10100
   002127    111116107040
   002130    120101107105
   002131    040040040040
   002132    040040040040
   002133    040040040040
   002134    040040040040
   002135    040040040040
   002136    123105103125             1026         UASCI   8,SECURITY FAULT, CLASS 2             CODE=10101
   002137    122111124131
   002140    040106101125
   002141    114124054040
   002142    103114101123
   002143    123040062040
   002144    040040040040
   002145    040040040040
   002146    125116113116             1027         UASCI   8,UNKNOWN FAULT                       CODE>10101
   002147    117127116040
   002150    106101125114
   002151    124040040040
   002152    040040040040
   002153    040040040040
 22:54 07/29/97  FILE=ISI$MINI.:E05TSI        MINI-DELTA - FAULT HANDLER                                 47   BMAP - B00
   002154    040040040040
   002155    040040040040
                                      1028  *
   002156    000000 000000            1029  ATBRK  ZERO                    SET IF AT BREAK POINT
   002157    000000 000000            1030  CBKNUM ZERO                    CURRENT BREAK NUMBER IF ATBRK SET
   002160 (0)002210 0017 42           1031  TALY10 TALLYB  DMESS+2,15,2    INSERT ADDRESS
   002161 (0)002204 0120 40           1032  TALY11 TALLYB DMESS-2,80      PRINT FAULT MESSAGE
   002162 (0)002216 0002 42           1033  TALY17 TALLYB  DMESS+8,2,2     INSERT FAULT CODE
   002163 (0)002230 0034 40           1034  TALY14 TALLYB  FMESS,28        PRINT BREAK TABLE FULL
                                      1035         EVEN
   002164    101101122104             1036  BOOTTM UASCI   2,AARDVRK
   002165    126122113040
   002166    130055104105             1037  XDTM   UASCI   2,X-DELTA
   002167    114124101040
   002170    125055104105             1038  UDTM   UASCI   2,U-DELTA
   002171    114124101040
   002172    040040101123             1039  ASLTM  UASCI   2,  ASL
   002173    114040040040
   002174    040040040040             1040  CPTM   UASCI   2,     CP
   002175    040103120040
   002176    040077077077             1041  GARBTM UASCI   2, ??????
   002177    077077077040
   002200    040040040115             1042  MONTM  UASCI   2,   MON
   002201    117116040040
   002202    040040125123             1043  USERTM UASCI   2,  USER
   002203    105122040040
   002204    040040040130             1044         UASCI   2,   XXXX
   002205    130130130040
   002206    106101125114             1045  DMESS  UASCI   10,FAULT AT  XXXXXXXX+XXXXXX   CODE  XX ->
   002207    124040101124
   002210    040040130130
   002211    130130130130
   002212    130130053130
   002213    130130130130
   002214    130040040040
   002215    103117104105
   002216    040040130130
 22:54 07/29/97  FILE=ISI$MINI.:E05TSI        MINI-DELTA - FAULT HANDLER                                 48   BMAP - B00
   002217    040055076040
   002220    040040040040             1046         UASCI   8,
   002221    040040040040
   002222    040040040040
   002223    040040040040
   002224    040040040040
   002225    040040040040
   002226    040040040040
   002227    040040040040
   002230    102122105101             1047  FMESS  UASCI   7,BREAK POSITION NOT AVAILABLE
   002231    113040120117
   002232    123111124111
   002233    117116040116
   002234    117124040101
   002235    126101111114
   002236    101102114105

 22:54 07/29/97  FILE=ISI$MINI.:E05TSI        MINI-DELTA - FAUL -> TOGGLE FAULT HANDLER SWITCH           49   BMAP - B00
                                      1048         TTLS    MINI-DELTA - FAUL -> TOGGLE FAULT HANDLER SWITCH
                                      1049  *
   002237                             1050  FAULT  NULL
   002237 (1)000001 1150 00           1051         CMPA    =UFAUL          IS IT FAUL?
   002240 (0)000017 6010 00           1052         TNZ     ERROR           NO -> REJECT IT
   002241 (0)002245 2140 00           1053         SZNC    FLTSW           TEST AND CLEAR SWITCH
   002242 (0)000032 6010 00           1054         TNZ     NEXTC           OLD VALUE WAS NON-ZERO -> DONE
   002243 (0)002245 0540 00           1055         AOS     FLTSW           OLD VALUE WAS 0 -> MAKE NEW VALUE N.Z.
   002244 (0)000032 7100 00           1056         TRA     NEXTC           DONE
                                      1057  *
   002245    000000000001             1058  FLTSW  OCT     1               NON-ZERO -> USE FAULT HANDLER
                                      1059  *

 22:54 07/29/97  FILE=ISI$MINI.:E05TSI        MINI-DELTA - K -> KILL COMMAND PROCESSOR                   50   BMAP - B00
                                      1060         TTLS    MINI-DELTA - K -> KILL COMMAND PROCESSOR
          (0)000000002246             1061  KILL   EQU     *               KILL BREAK POINTS
   002246 (0)004046 7070 00           1062         TSX7    GETF            GET BREAK NUMBER
   002247 (0)002276 7100 00           1063         TRA     KILL2           NO BREAK NO. SPECIFIED-KILL ALL
   002250 (0)002301 7100 00           1064         TRA     KILL3           KILL A SYMBOL
   002251    000001 6220 00           1065         EAX2    1               KILL ONE BREAK NUMBER
   002252 (0)004132 7070 00           1066         TSX7    CHRBIN          CONVERT BREAK NUMBER TO BINARY
   002253    000010 1160 07           1067         CMPQ    8,DL            BREAK NUMBER TOO LARGE
   002254 (0)000017 6030 00           1068         TRC     ERROR           YES-ERROR
   002255    000000 6210 06           1069         EAX1    0,QL            BREAK NUMBER TO KILL
   002256 (0)000017 6000 00           1070         TZE     ERROR           ERROR-NO BREAK NUMBER ZERO
   002257 (0)001153 4500 11           1071  KILL1  STZ     EMPTBL-1,X1     KILL THE BREAK POINT
   002260 (0)001200 4500 11           1072         STZ     SEGTBL-1,X1     JUST IN CASE WE EVER SHOW 'EMPTY'
   002261    000001 1610 03           1073         SBX1    1,DU            DEC. BREAK NUMBER
   002262    000001 1620 03           1074         SBX2    1,DU            DEC. COUNT
   002263 (0)002257 6010 00           1075         TNZ     KILL1           GO THROUGH EITHER ONE OR ALL
   002264 (0)002310 2140 00           1076         SZNC    QFLAG           IS THIS A QUIT
   002265 (0)000032 6000 00           1077         TZE     NEXTC           NEITHER A QUIT NOR 'DBOO' COMMAND
   002266  X 000000 6050 00           1078         TPL     RCVR            A QUIT COMMAND
   002267  X 000000 7100 00           1079         TRA     DBOOT           'DBOO' COMMAND
                                      1080  *
   002270 (0)002311 4500 00           1081  DBT0   STZ     TQFLAG          XDELTA DBOOT COMMAND
   002271                             1082  DBT    NULL                    'DBOO' COMMAND
   002271    777777 6210 00           1083         EAX1    -1              SET FLAG
   002272 (0)002310 7410 00           1084         STX1    QFLAG           TO INDICATE DBOO
   002273 (0)002276 7100 00           1085         TRA     KILL2           AND KILL BREAKS ETC.
   002274                             1086  TBOOT  NULL                    SET TAPE BOOT QUIT FLAG
   002274 (0)002311 0540 00           1087         AOS     TQFLAG
   002275                             1088  KILLQ  NULL                    KILL ALL BREAKS BEFORE RECOVERY
   002275 (0)002310 0540 00           1089         AOS     QFLAG           SET QUIT FLAG
   002276    000007 6210 00           1090  KILL2  EAX1    7               SEVEN BREAKS
   002277    000007 6220 00           1091         EAX2    7
   002300 (0)002257 7100 00           1092         TRA     KILL1           CLEAR ALL SEVEN BREAKS
                                      1093  *
   002301 (0)004450 7070 00           1094  KILL3  TSX7    FINSYB          FIND THE SYMBOL
   002302 (0)002304 7100 00           1095         TRA     *+2
   002303 (0)000017 7100 00           1096         TRA     ERROR           SYMBOL NOT IN TABLE
 22:54 07/29/97  FILE=ISI$MINI.:E05TSI        MINI-DELTA - K -> KILL COMMAND PROCESSOR                   51   BMAP - B00
   002304    000075 1010 03           1097         CMPX1   LOWINX,DU       USER DEFINED SYMBOL
   002305 (0)000017 6030 00           1098         TRC     ERROR           ERROR-NOT USER DEFINED SYMBOL
   002306 (0)007243 4500 11           1099         STZ     SYMTBL-1,X1     KILL THE SYMBOL
   002307 (0)000032 7100 00           1100         TRA     NEXTC           NEXT COMMAND
                                      1101  *
   002310    000000000000             1102  QFLAG  OCT     0               NZ -> QUIT COMMAND
   002311    000000000000             1103  TQFLAG OCT     0               N.Z. -> T COMMAND
                                      1104  *

 22:54 07/29/97  FILE=ISI$MINI.:E05TSI        MINI-DELTA - G -> GO COMMAND PROCESSOR                     52   BMAP - B00
                                      1105         TTLS    MINI-DELTA - G -> GO COMMAND PROCESSOR
                                      1106  *
   002312                             1107  EOD    NULL                    COME DIRECTLY HERE ON ! CARDS
   002312 (0)004010 4500 00           1108         STZ     INDEV           SET INDEV=0 -> ME
   002313  X 000000 4500 00           1109         STZ     PDEV            RESET READ PATCH DEVICE FLAG
   002314 (0)002334 7100 00           1110         TRA     GO2             AND GO
          (0)000000002315             1111  GO     EQU     *               GO ROUTINE
   002315 (0)004522 7070 00           1112         TSX7    LEXP            EVALUATE LOCATION EXPRESSION
   002316 (0)002334 7100 00           1113         TRA     GO2             GO FROM INSTRUCTION COUNTER
   002317 (0)000017 7100 00           1114         TRA     ERROR           ERROR-SYMBOLIC MODE
   002320                             1115  GO3    NULL
   002320 (0)010002 2340 00           1116         SZN     RTNFLG          RETURN PRESENT
   002321 (0)000017 6010 00           1117         TNZ     ERROR           YES-MUST EXIT-NO STACK PRESENT
   002322    000000 6220 02           1118         EAX2    0,QU
   002323    4 00004 7421 00          1119         STX2    ICADD,,DR.SSR   GO TO THIS ADDRESS
   002324                             1120  GO3A   NULL
   002324    000041 3350 07           1121         LCA     =O41,DL         TURN OFF
   002325    4 00004 3551 00          1122         ANSA    ICADD,,DR.SSR   IR BIT30 =  MULTI-WORD INST. BIT
   002326 (0)004402 7070 00           1123         TSX7    BKFLPR          FLIP BRK POINTS AT RETURN FROM DEL
                                      1124         INHIB   ON              ******* INHIBIT ********
   002327 (0)002156 4502 00           1125         STZ     ATBRK           CLEAR AT BREAK
                                      1126         RFAULT                  RESTORE FAULT ENTRY DESCRIPTORS
                                             IFE AARDVARK,0,3
                                             SYMREF FLTLOC
                                             SYMREF AFLTLC
                                             SYMREF SPWF
   002330  X 000000 2372 44                  LDAQ SPWF,SD         PULL IT FROM ITS STACK
   002331    000032 7572 00                  STAQ FLTLOC          AND RE-PLANT IT
   002332  X 000000 7572 00                  STAQ AFLTLC
   002333 (0)001657 7102 00           1127         TRA     GOBACK          CLIMB BACK TO USER
                                      1128         INHIB   OFF             ******* ENABLE *********
                                      1129  *
   002334                             1130  GO2    NULL
   002334 (0)010002 2340 00           1131         SZN     RTNFLG          RETURN PRESENT
   002335 (0)007765 6010 00           1132         TNZ     EXIT            YES-MUST EXIT-NO STACK PRESENT
   002336    4 00004 2361 00          1133         LDQ     ICADD,,DR.SSR   INSTRUCTION COUNTER ADDRESS
   002337 (0)002156 2340 00           1134         SZN     ATBRK           AT A BREAK POINT
 22:54 07/29/97  FILE=ISI$MINI.:E05TSI        MINI-DELTA - G -> GO COMMAND PROCESSOR                     53   BMAP - B00
   002340 (0)002324 6000 00           1135         TZE     GO3A            NO-IC IS POINTING CORRECTLY
   002341    000001 1360 03           1136         SBLQ    1,DU            POINT IC BACK AT BREAK LOCATION
   002342    000000 6360 02           1137         EAQ     0,QU            MASK OUT IC ADDRESS
   002343 (0)002157 7210 00           1138         LXL1    CBKNUM          GET CURRENT BREAK NUMBER
   002344 (0)001153 2340 11           1139  GO1    SZN     EMPTBL-1,X1     LIVE BREAK POINT
   002345 (0)002320 6000 00           1140         TZE     GO3             NO
   002346 (0)001162 1160 11           1141         CMPQ    ADDTBL-1,X1     YES -> SAME BREAK POINT?
   002347 (0)002320 6010 00           1142         TNZ     GO3             NO -> BREAK WAS KILLED AND NEW ONE SET
                                      1143  *
   002350    000001 0360 03           1144  GO4    ADLQ    1,DU                   ONE AFTER THE BREAK POINT
   002351 (0)002702 7560 00           1145         STQ     GOADD
   002352 (0)001200 2350 11           1146         LDA     SEGTBL-1,X1     GET VECTOR NAME TABLE INDEX+1 -> AU
   002353 (0)002360 6000 00           1147         TZE     *+5             0 -> BREAK IS IN BISON -> USE ISR
   002354    000001 7710 00           1148         ARL     1               CONVERT INDEX TO WORD INDEX
   002355  X 000000 4754 01           1149         LDP     DR.USE,I$TYP0$,AU              PICK UP THE DESC
   002356    000001 7350 00           1150         ALS     1               CONVERT BACK TO DOUBLEWORD INDEX
   002357 (0)002361 7100 00           1151         TRA     *+2             AND USE IT TO FLIP
   002360    001762 4754 07           1152         LDP     DR.USE,ISR,DL   MAKE SURE WE'VE GOT BISON'S DESCR.
   002361 (0)002704 7550 00           1153         STA     SNKVCT          SAVE (SEGMENT# * 2)
   002362 (0)001162 6250 31           1154         EAX5    ADDTBL-1,X1*    ADDRESS OF BREAK -> X5
   002363    5 00000 2351 15          1155         LDA     0,X5,DR.USE      CONTENTS AT BREAK
   002364 (1)000002 2360 00           1156         LDQ     =O777777000377  OP CODE MASK
   002365    777704 6220 00           1157         EAX2    -NSINS          # OF OP CODES
   002366                             1158  GO5    NULL
   002366 (0)003001 2110 12           1159         CMK     SINS+NSINS,X2   IS THIS A SPECIAL INSTRUCTION
   002367 (0)003001 6000 32           1160         TZE     SINS+NSINS,X2*  YES -> DO IT RIGHT ETC.
   002370    000001 0620 03           1161         ADX2    1,DU            NO -> BUMP THRU WHOLE TABLE
   002371 (0)002366 6010 00           1162         TNZ     GO5
   002372                             1163  GO5OK  NULL
   002372    4 00004 7451 00          1164         STX5    ICADD,,DR.SSR   ADDRESS OF BREAK -> IC
   002373 (0)002702 2250 00           1165         LDX5    GOADD           ADDRESS OF 'SNEAKY DERAIL' -> X5
   002374    5 00000 2351 15          1166         LDA     0,X5,DR.USE     CONTENTS AT SNEAKY DERAIL -> A
   002375 (0)001151 2360 00           1167         LDQ     SNKDRL          SNEAKY DERAIL -> Q
   002376  X 000000 0554 00           1168         STD     DR.USE,DESCTEMP
   002377 (0)004413 7060 00           1169         TSX6    STORE           MAKE SURE WE CAN WRITE
   002400    5 00000 7561 15          1170         STQ     0,X5,DR.USE     PLANT SNEAKY DERAIL
   002401 (0)001152 7560 00           1171         STQ     SNKDRL+1        REMEMBER THAT SNEAKY DERAIL IS SET
 22:54 07/29/97  FILE=ISI$MINI.:E05TSI        MINI-DELTA - G -> GO COMMAND PROCESSOR                     54   BMAP - B00
   002402 (0)002703 7550 00           1172         STA     XECINT          SAVE CONTENTS OF SNEAKY DERAIL LOCATION
   002403 (0)001657 7100 00           1173         TRA     GOBACK          AND VISIT THE USER
   002404                             1174  GO8    NULL                    GET RID OF SNEAKY DERAIL
   002404 (0)002704 0340 00           1175         LDAC    SNKVCT          (SEGMENT# *2) WAS SAVED HERE
   002405 (0)002411 6000 00           1176         TZE     *+4             0 -> BISON'S SEGMENT
   002406    000001 7710 00           1177         ARL     1               CONVERT INDEX TO WORD INDEX
   002407  X 000000 4754 01           1178         LDP     DR.USE,I$TYP0$,AU              PICK UP THE DESC
   002410 (0)002412 7100 00           1179         TRA     *+2             AND USE IT
   002411    001762 4754 07           1180         LDP     DR.USE,ISR,DL   USE BISON'S DESCRIPTOR
   002412 (0)002702 2250 00           1181         LDX5    GOADD           ADDRESS OF SNEAKY DERAIL -> X5
   002413    4 00004 7451 00          1182         STX5    ICADD,,DR.SSR   DITTO -> IC
   002414 (0)002703 2350 00           1183         LDA     XECINT          SAVED CONTENTS OF SNEAKY DERAIL LOC.
   002415  X 000000 0554 00           1184         STD     DR.USE,DESCTEMP
   002416 (0)004413 7060 00           1185         TSX6    STORE           MAKE SURE WE CAN WRITE
   002417    5 00000 7551 15          1186         STA     0,X5,DR.USE     PUT IT BACK
   002420                             1187  GO8A   NULL
   002420 (0)001152 4500 00           1188         STZ     SNKDRL+1        SNEAKY DERAIL IS NOW GONE
   002421 (0)004402 7070 00           1189         TSX7    BKFLPR          FLIP BRK POINTS AT RETURN FROM DEL
                                      1190         INHIB   ON
   002422 (0)002702 4502 00           1191         STZ     GOADD           CLEAR SNEAKY DERAIL ADDRESS
   002423 (0)002156 4502 00           1192         STZ     ATBRK           CLEAR AT BREAK
                                      1193         RFAULT                  RESTORE FAULT ENTRY DESCRIPTORS
                                             IFE AARDVARK,0,3
                                             SYMREF FLTLOC
                                             SYMREF AFLTLC
                                             SYMREF SPWF
   002424  X 000000 2372 44                  LDAQ SPWF,SD         PULL IT FROM ITS STACK
   002425    000032 7572 00                  STAQ FLTLOC          AND RE-PLANT IT
   002426  X 000000 7572 00                  STAQ AFLTLC
   002427 (0)001657 7102 00           1194         TRA     GOBACK          AND RETURN
                                      1195         INHIB   OFF
                                      1196  *
                                      1197  *
                                      1198  *
                                      1199  *  THESE ROUTINES SIMULATE TRANSFER INSTRUCTIONS, WHERE POSSIBLE.
                                      1200  *  CALLING SEQUENCE
                                      1201  *  INSTRUCTION IN A
 22:54 07/29/97  FILE=ISI$MINI.:E05TSI        MINI-DELTA - G -> GO COMMAND PROCESSOR                     55   BMAP - B00
                                      1202  *  ADDRESS OF INSTRUCTION IN X5
                                      1203  *  ENVIRONMENT IN SS FRAME POINTED TO BY DR.SSR
                                      1204  *
   002430                             1205  GOTEO  NULL
   002430    4 00004 6341 00          1206         LDI     ICADD,,DR.SSR   GET IR FROM SS FRAME
   002431 (0)002433 6140 00           1207         TEO     *+2             CONDITION MET -> SIMULATE
   002432 (0)002661 7100 00           1208         TRA     NOTRA           CONDITION NOT MET -> NO SWEAT
   002433 (0)002631 7070 00           1209         TSX7    TRATAG          GET EFFECTIVE ADDRESS -> X0
   002434    000000 6200 01           1210         EAX0    0,AU            NO TAG -> DO IT YOURSELF
   002435    4 00004 7401 00          1211         STX0    ICADD,,DR.SSR   STICK IT IN
   002436 (0)002420 7100 00           1212         TRA     GO8A            AND RETURN TO EA
   002437                             1213  GOTEU  NULL
   002437    4 00004 6341 00          1214         LDI     ICADD,,DR.SSR   GET IR FROM SS FRAME
   002440 (0)002442 6150 00           1215         TEU     *+2             CONDITION MET -> SIMULATE
   002441 (0)002661 7100 00           1216         TRA     NOTRA           CONDITION NOT MET -> NO SWEAT
   002442 (0)002631 7070 00           1217         TSX7    TRATAG          GET EFFECTIVE ADDRESS -> X0
   002443    000000 6200 01           1218         EAX0    0,AU            NO TAG -> DO IT YOURSELF
   002444    4 00004 7401 00          1219         STX0    ICADD,,DR.SSR   STICK IT IN
   002445 (0)002420 7100 00           1220         TRA     GO8A            AND RETURN TO EA
   002446                             1221  GOTMI  NULL
   002446    4 00004 6341 00          1222         LDI     ICADD,,DR.SSR   GET IR FROM SS FRAME
   002447 (0)002451 6040 00           1223         TMI     *+2             CONDITION MET -> SIMULATE
   002450 (0)002661 7100 00           1224         TRA     NOTRA           CONDITION NOT MET -> NO SWEAT
   002451 (0)002631 7070 00           1225         TSX7    TRATAG          GET EFFECTIVE ADDRESS -> X0
   002452    000000 6200 01           1226         EAX0    0,AU            NO TAG -> DO IT YOURSELF
   002453    4 00004 7401 00          1227         STX0    ICADD,,DR.SSR   STICK IT IN
   002454 (0)002420 7100 00           1228         TRA     GO8A            AND RETURN TO EA
   002455                             1229  GOTNC  NULL
   002455    4 00004 6341 00          1230         LDI     ICADD,,DR.SSR   GET IR FROM SS FRAME
   002456 (0)002460 6020 00           1231         TNC     *+2             CONDITION MET -> SIMULATE
   002457 (0)002661 7100 00           1232         TRA     NOTRA           CONDITION NOT MET -> NO SWEAT
   002460 (0)002631 7070 00           1233         TSX7    TRATAG          GET EFFECTIVE ADDRESS -> X0
   002461    000000 6200 01           1234         EAX0    0,AU            NO TAG -> DO IT YOURSELF
   002462    4 00004 7401 00          1235         STX0    ICADD,,DR.SSR   STICK IT IN
   002463 (0)002420 7100 00           1236         TRA     GO8A            AND RETURN TO EA
   002464                             1237  GOTNZ  NULL
   002464    4 00004 6341 00          1238         LDI     ICADD,,DR.SSR   GET IR FROM SS FRAME
 22:54 07/29/97  FILE=ISI$MINI.:E05TSI        MINI-DELTA - G -> GO COMMAND PROCESSOR                     56   BMAP - B00
   002465 (0)002467 6010 00           1239         TNZ     *+2             CONDITION MET -> SIMULATE
   002466 (0)002661 7100 00           1240         TRA     NOTRA           CONDITION NOT MET -> NO SWEAT
   002467 (0)002631 7070 00           1241         TSX7    TRATAG          GET EFFECTIVE ADDRESS -> X0
   002470    000000 6200 01           1242         EAX0    0,AU            NO TAG -> DO IT YOURSELF
   002471    4 00004 7401 00          1243         STX0    ICADD,,DR.SSR   STICK IT IN
   002472 (0)002420 7100 00           1244         TRA     GO8A            AND RETURN TO EA
   002473                             1245  GOTOV  NULL
   002473    4 00004 6341 00          1246         LDI     ICADD,,DR.SSR   GET IR FROM SS FRAME
   002474 (0)002476 6170 00           1247         TOV     *+2             CONDITION MET -> SIMULATE
   002475 (0)002661 7100 00           1248         TRA     NOTRA           CONDITION NOT MET -> NO SWEAT
   002476 (0)002631 7070 00           1249         TSX7    TRATAG          GET EFFECTIVE ADDRESS -> X0
   002477    000000 6200 01           1250         EAX0    0,AU            NO TAG -> DO IT YOURSELF
   002500    4 00004 7401 00          1251         STX0    ICADD,,DR.SSR   STICK IT IN
   002501 (0)002420 7100 00           1252         TRA     GO8A            AND RETURN TO EA
   002502                             1253  GOTPL  NULL
   002502    4 00004 6341 00          1254         LDI     ICADD,,DR.SSR   GET IR FROM SS FRAME
   002503 (0)002505 6050 00           1255         TPL     *+2             CONDITION MET -> SIMULATE
   002504 (0)002661 7100 00           1256         TRA     NOTRA           CONDITION NOT MET -> NO SWEAT
   002505 (0)002631 7070 00           1257         TSX7    TRATAG          GET EFFECTIVE ADDRESS -> X0
   002506    000000 6200 01           1258         EAX0    0,AU            NO TAG -> DO IT YOURSELF
   002507    4 00004 7401 00          1259         STX0    ICADD,,DR.SSR   STICK IT IN
   002510 (0)002420 7100 00           1260         TRA     GO8A            AND RETURN TO EA
                                      1261  *
   002511                             1262  GOTRA  NULL
   002511 (0)002631 7070 00           1263         TSX7    TRATAG          GET EFFECTIVE ADDRESS -> X0
   002512    000000 6200 01           1264         EAX0    0,AU            NO TAG -> DO IT YOURSELF
   002513    4 00004 7401 00          1265         STX0    ICADD,,DR.SSR   STICK IT IN
   002514 (0)002420 7100 00           1266         TRA     GO8A            AND RETURN TO EA
                                      1267  *
   002515                             1268  GOTRC  NULL
   002515    4 00004 6341 00          1269         LDI     ICADD,,DR.SSR   GET IR FROM SS FRAME
   002516 (0)002520 6030 00           1270         TRC     *+2             CONDITION MET -> SIMULATE
   002517 (0)002661 7100 00           1271         TRA     NOTRA           CONDITION NOT MET -> NO SWEAT
   002520 (0)002631 7070 00           1272         TSX7    TRATAG          GET EFFECTIVE ADDRESS -> X0
   002521    000000 6200 01           1273         EAX0    0,AU            NO TAG -> DO IT YOURSELF
   002522    4 00004 7401 00          1274         STX0    ICADD,,DR.SSR   STICK IT IN
   002523 (0)002420 7100 00           1275         TRA     GO8A            AND RETURN TO EA
 22:54 07/29/97  FILE=ISI$MINI.:E05TSI        MINI-DELTA - G -> GO COMMAND PROCESSOR                     57   BMAP - B00
                                      1276  *
   002524                             1277  GOTSS  NULL
   002524 (0)002626 7100 00           1278         TRA     GO6             CAN'T HANDLE
   002525                             1279  GOTSX  NULL
   002525 (0)001014 7550 00           1280         STA     TEMP            NEED OP CODE LATER
   002526 (0)002631 7070 00           1281         TSX7    TRATAG          GET EFFECTIVE ADDRESS -> X0
   002527    000000 6200 01           1282         EAX0    0,AU            NO TAG -> DO IT YOURSELF
   002530    4 00004 7401 00          1283         STX0    ICADD,,DR.SSR   STICK IT IN
   002531    000001 6210 15           1284         EAX1    1,X5            ADDRESS+1 -> X1
   002532 (0)001014 2360 00           1285         LDQ     TEMP            OP CODE -> QL
   002533    007000 3760 07           1286         ANQ     =O7000,DL       TSX REGISTER
   002534    000011 7360 00           1287         QLS     9               -> QU(RIGHT JUSTIFIED)
   002535    000000 6270 02           1288         EAX7    0,QU            DITTO -> X7
   002536    000001 7720 00           1289         QRL     1               HALFWORD INDEX -> QU
   002537    000001 3670 03           1290         ANX7    1,DU            0 OR 1 -> X7
   002540 (0)002542 7160 17           1291         XEC     TSXTBL,X7       STX1 OR SXL1 DEPENDING ON X7
   002541 (0)002420 7100 00           1292         TRA     GO8A            AND RETURN TO EA
                                      1293  *
   002542                             1294  TSXTBL NULL
   002542    4 00050 7411 02          1295         STX1    ICREGS,QU,DR.SSR ADDRESS+1 OF TSXN -> XN IN SS FRAME
   002543    4 00050 4411 02          1296         SXL1    ICREGS,QU,DR.SSR DITTO FOR ODD XN
                                      1297  *
   002544                             1298  GOTTF  NULL
   002544    4 00004 6341 00          1299         LDI     ICADD,,DR.SSR   GET IR FROM SS FRAME
   002545 (0)002547 6070 00           1300         TTF     *+2             CONDITION MET -> SIMULATE
   002546 (0)002661 7100 00           1301         TRA     NOTRA           CONDITION NOT MET -> NO SWEAT
   002547 (0)002631 7070 00           1302         TSX7    TRATAG          GET EFFECTIVE ADDRESS -> X0
   002550    000000 6200 01           1303         EAX0    0,AU            NO TAG -> DO IT YOURSELF
   002551    4 00004 7401 00          1304         STX0    ICADD,,DR.SSR   STICK IT IN
   002552 (0)002420 7100 00           1305         TRA     GO8A            AND RETURN TO EA
                                      1306  *
   002553                             1307  GOTZE  NULL
   002553    4 00004 6341 00          1308         LDI     ICADD,,DR.SSR   GET IR FROM SS FRAME
   002554 (0)002556 6000 00           1309         TZE     *+2             CONDITION MET -> SIMULATE
   002555 (0)002661 7100 00           1310         TRA     NOTRA           CONDITION NOT MET -> NO SWEAT
   002556 (0)002631 7070 00           1311         TSX7    TRATAG          GET EFFECTIVE ADDRESS -> X0
   002557    000000 6200 01           1312         EAX0    0,AU            NO TAG -> DO IT YOURSELF
 22:54 07/29/97  FILE=ISI$MINI.:E05TSI        MINI-DELTA - G -> GO COMMAND PROCESSOR                     58   BMAP - B00
   002560    4 00004 7401 00          1313         STX0    ICADD,,DR.SSR   STICK IT IN
   002561 (0)002420 7100 00           1314         TRA     GO8A            AND RETURN TO EA
                                      1315  *
   002562                             1316  GOTRTN NULL
   002562    4 00004 6341 00          1317         LDI     ICADD,,DR.SSR   GET IR FROM SS FRAME
   002563 (0)002565 6004 00           1318         TRTN    *+2             CONDITION MET -> SIMULATE
   002564 (0)002661 7100 00           1319         TRA     NOTRA           CONDITION NOT MET -> NO SWEAT
   002565 (0)002631 7070 00           1320         TSX7    TRATAG          GET EFFECTIVE ADDRESS -> X0
   002566    000000 6200 01           1321         EAX0    0,AU            NO TAG -> DO IT YOURSELF
   002567    4 00004 7401 00          1322         STX0    ICADD,,DR.SSR   STICK IT IN
   002570 (0)002420 7100 00           1323         TRA     GO8A            AND RETURN TO EA
                                      1324  *
   002571                             1325  GOTRTF NULL
   002571    4 00004 6341 00          1326         LDI     ICADD,,DR.SSR   GET IR FROM SS FRAME
   002572 (0)002574 6014 00           1327         TRTF    *+2             CONDITION MET -> SIMULATE
   002573 (0)002661 7100 00           1328         TRA     NOTRA           CONDITION NOT MET -> NO SWEAT
   002574 (0)002631 7070 00           1329         TSX7    TRATAG          GET EFFECTIVE ADDRESS -> X0
   002575    000000 6200 01           1330         EAX0    0,AU            NO TAG -> DO IT YOURSELF
   002576    4 00004 7401 00          1331         STX0    ICADD,,DR.SSR   STICK IT IN
   002577 (0)002420 7100 00           1332         TRA     GO8A            AND RETURN TO EA
                                      1333  *
   002600                             1334  GOTTN  NULL
   002600    4 00004 6341 00          1335         LDI     ICADD,,DR.SSR   GET IR FROM SS FRAME
   002601 (0)002603 6064 00           1336         TTN     *+2             CONDITION MET -> SIMULATE
   002602 (0)002661 7100 00           1337         TRA     NOTRA           CONDITION NOT MET -> NO SWEAT
   002603 (0)002631 7070 00           1338         TSX7    TRATAG          GET EFFECTIVE ADDRESS -> X0
   002604    000000 6200 01           1339         EAX0    0,AU            NO TAG -> DO IT YOURSELF
   002605    4 00004 7401 00          1340         STX0    ICADD,,DR.SSR   STICK IT IN
   002606 (0)002420 7100 00           1341         TRA     GO8A            AND RETURN TO EA
                                      1342  *
   002607                             1343  GOTPNZ NULL
   002607    4 00004 6341 00          1344         LDI     ICADD,,DR.SSR   GET IR FROM SS FRAME
   002610 (0)002612 6054 00           1345         TPNZ    *+2             CONDITION MET -> SIMULATE
   002611 (0)002661 7100 00           1346         TRA     NOTRA           CONDITION NOT MET -> NO SWEAT
   002612 (0)002631 7070 00           1347         TSX7    TRATAG          GET EFFECTIVE ADDRESS -> X0
   002613    000000 6200 01           1348         EAX0    0,AU            NO TAG -> DO IT YOURSELF
   002614    4 00004 7401 00          1349         STX0    ICADD,,DR.SSR   STICK IT IN
 22:54 07/29/97  FILE=ISI$MINI.:E05TSI        MINI-DELTA - G -> GO COMMAND PROCESSOR                     59   BMAP - B00
   002615 (0)002420 7100 00           1350         TRA     GO8A            AND RETURN TO EA
                                      1351  *
   002616                             1352  GOTMOZ NULL
   002616    4 00004 6341 00          1353         LDI     ICADD,,DR.SSR   GET IR FROM SS FRAME
   002617 (0)002621 6044 00           1354         TMOZ    *+2             CONDITION MET -> SIMULATE
   002620 (0)002661 7100 00           1355         TRA     NOTRA           CONDITION NOT MET -> NO SWEAT
   002621 (0)002631 7070 00           1356         TSX7    TRATAG          GET EFFECTIVE ADDRESS -> X0
   002622    000000 6200 01           1357         EAX0    0,AU            NO TAG -> DO IT YOURSELF
   002623    4 00004 7401 00          1358         STX0    ICADD,,DR.SSR   STICK IT IN
   002624 (0)002420 7100 00           1359         TRA     GO8A            AND RETURN TO EA
                                      1360  *
   002625                             1361  GORET  NULL
   002625 (0)002626 7100 00           1362         TRA     GO6             CAN'T HANDLE
   002626 (0)002672 2350 00           1363  GO6    LDA     TALY15
   002627 (0)005105 7070 00           1364         TSX7    TYPE            PRINT MUST KILL BREAK MESSAGE
   002630 (0)000032 7100 00           1365         TRA     NEXTC           NEXT COMMAND
                                      1366  *
                                      1367  *  THIS ROUTINE COMPUTES THE EFFECTIVE ADDRESS OF THE TRANSFER
                                      1368  *  INSTRUCTION CONTAINED IN A.  IF IT CANNOT DO SO IT GOES TO GO6.
                                      1369  *  CALLING SEQUENCE
                                      1370  *      TSX7    TRATAG
                                      1371  *      EAX0    0,AU            NO TAG FIELD
                                      1372  *      NORMAL ROUTINE -> EFFECTIVE ADDRESS IS IN X0
   002631                             1373  TRATAG NULL
   002631    000177 3150 07           1374         CANA    =O177,DL        IS THERE A TAG OR AR/DR MODIF.?
   002632    000000 6000 17           1375         TZE     0,X7            NO -> RETURN TO TSX+1
   002633    000160 3150 07           1376         CANA    =O160,DL        AR/DR MODIFICATION OR RI, IR, IT
   002634 (0)002626 6010 00           1377         TNZ     GO6             ONE OF THE ABOVE -> CANNOT HANDLE
   002635 (0)001014 7550 00           1378         STA     TEMP            NONE OF THE ABOVE -> SAVE INSTR.
   002636    000017 3750 07           1379         ANA     =O17,DL         ISOLATE TAG
   002637 (0)002641 7160 05           1380         XEC     TAGTBL-1,AL     GET CONTENTS OF REGISTER -> X0
   002640 (0)001014 0200 00           1381         ADLX0   TEMP            ADD ADDRESS FROM INSTR.
   002641    000001 7100 17           1382         TRA     1,X7            AND RETURN WITH EA -> X0
   002642                             1383  TAGTBL NULL
   002642    4 00054 2201 00          1384         LDX0    ICREGS+4,,DR.SSR 1 -> AU
   002643    4 00055 2201 00          1385         LDX0    ICREGS+5,,DR.SSR 2 -> QU
   002644 (0)002626 7100 00           1386         TRA     GO6             3 -> DU -> ILLEGAL -> CAN'T HANDLE
 22:54 07/29/97  FILE=ISI$MINI.:E05TSI        MINI-DELTA - G -> GO COMMAND PROCESSOR                     60   BMAP - B00
   002645    000000 6200 15           1387         EAX0    0,X5            4 -> IC -> IC VALUE IN X5
   002646    4 00054 7201 00          1388         LXL0    ICREGS+4,,DR.SSR 5 -> AL
   002647    4 00055 7201 00          1389         LXL0    ICREGS+5,,DR.SSR 6 -> QL
   002650 (0)002626 7100 00           1390         TRA     GO6             7 -> DL -> ILLEGAL -> CAN'T HANDLE
   002651    4 00050 2201 00          1391         LDX0    ICREGS,,DR.SSR  10 -> X0
   002652    4 00050 7201 00          1392         LXL0    ICREGS,,DR.SSR  11 -> X1
   002653    4 00051 2201 00          1393         LDX0    ICREGS+1,,DR.SSR 12 -> X2
   002654    4 00051 7201 00          1394         LXL0    ICREGS+1,,DR.SSR 13 -> X3
   002655    4 00052 2201 00          1395         LDX0    ICREGS+2,,DR.SSR 14 -> X4
   002656    4 00052 7201 00          1396         LXL0    ICREGS+2,,DR.SSR 15 -> X5
   002657    4 00053 2201 00          1397         LDX0    ICREGS+3,,DR.SSR 16 -> X6
   002660    4 00053 7201 00          1398         LXL0    ICREGS+3,,DR.SSR 17 -> X7
                                      1399  *
   002661                             1400  NOTRA  NULL                    TRANSFER CONDITION NOT MET -> NOP
   002661    000001 6250 15           1401         EAX5    1,X5            BUMP IC VALUE IN X5
   002662    4 00004 7451 00          1402         STX5    ICADD,,DR.SSR   AND STUFF IT
   002663 (0)002420 7100 00           1403         TRA     GO8A            AND GET BACK TO USER
                                      1404  *
                                      1405  *
   002664                             1406  GOEIS3 NULL                    FIX UP TO HANDLE 3 WORD EIS BREAKS
   002664    000002 6350 00           1407         EAA     2               BUMP SNEAKY DERAIL LOC. BY 2
   002665 (0)002702 0550 00           1408         ASA     GOADD
   002666 (0)002372 7100 00           1409         TRA     GO5OK           AND LET 'ER RIP
                                      1410  *
   002667                             1411  GOEIS4 NULL                    FIX UP TO HANDLE 4 WORD EIS BREAKS
   002667    000003 6350 00           1412         EAA     3               BUMP SNEAKY DERAIL LOC. BY 3
   002670 (0)002702 0550 00           1413         ASA     GOADD
   002671 (0)002372 7100 00           1414         TRA     GO5OK           AND LET 'ER RIP
   002672 (0)002673 0034 40           1415  TALY15 TALLYB  NMESS,28
   002673    115125123124             1416  NMESS  UASCI   7,MUST KILL BREAK BEFORE GO
   002674    040113111114
   002675    114040102122
   002676    105101113040
   002677    102105106117
   002700    122105040107
   002701    117040040040
                                      1417  *
 22:54 07/29/97  FILE=ISI$MINI.:E05TSI        MINI-DELTA - G -> GO COMMAND PROCESSOR                     61   BMAP - B00
   002702    000000 000000            1418  GOADD  ZERO                    SNEAKY DERAIL ADDRESS
   002703    000000 000000            1419  XECINT ZERO                    SAVED CONTENTS OF SNEAKY DERAIL LOC
   002704    000000000000             1420  SNKVCT OCT     0               (SEGMENT# * 2) OF SNEAKY DERAIL SEGMENT
                                      1421  *
                                      1422  *  TABLE OF INSTRUCTIONS TO BE SIMULATED
                                      1423  *
   002705                             1424  SINS   NULL
   002705 (0)002430 6140 00           1425         TEO     GOTEO
   002706 (0)002437 6150 00           1426         TEU     GOTEU
   002707 (0)002446 6040 00           1427         TMI     GOTMI
   002710 (0)002455 6020 00           1428         TNC     GOTNC
   002711 (0)002464 6010 00           1429         TNZ     GOTNZ
   002712 (0)002473 6170 00           1430         TOV     GOTOV
   002713 (0)002502 6050 00           1431         TPL     GOTPL
   002714 (0)002511 7100 00           1432         TRA     GOTRA
   002715 (0)002515 6030 00           1433         TRC     GOTRC
   002716 (0)002524 7150 00           1434         TSS     GOTSS
   002717 (0)002525 7000 00           1435         TSX0    GOTSX
   002720 (0)002525 7010 00           1436         TSX1    GOTSX
   002721 (0)002525 7020 00           1437         TSX2    GOTSX
   002722 (0)002525 7030 00           1438         TSX3    GOTSX
   002723 (0)002525 7040 00           1439         TSX4    GOTSX
   002724 (0)002525 7050 00           1440         TSX5    GOTSX
   002725 (0)002525 7060 00           1441         TSX6    GOTSX
   002726 (0)002525 7070 00           1442         TSX7    GOTSX
   002727 (0)002544 6070 00           1443         TTF     GOTTF
   002730 (0)002553 6000 00           1444         TZE     GOTZE
   002731 (0)002626 717000            1445         VFD     18/GO6,O18/717000  XED
   002732 (0)002626 520200            1446         VFD     18/GO6,O18/520200  RPT
   002733 (0)002626 560200            1447         VFD     18/GO6,O18/560200  RPD
   002734 (0)002626 500200            1448         VFD     18/GO6,O18/500200  RPL
   002735 (0)002626 713400            1449         VFD     18/GO6,O18/713400  CLIMB
                                      1450  *  EIS  MULTI-WORD INSTRUCTIONS
   002736 (0)002664 100400            1451         VFD     18/GOEIS3,O18/100400  MLR
   002737 (0)002664 101400            1452         VFD     18/GOEIS3,O18/101400  MRL
   002740 (0)002664 160400            1453         VFD     18/GOEIS3,O18/160400  MVT
   002741 (0)002667 020400            1454         VFD     18/GOEIS4,O18/020400  MVE
 22:54 07/29/97  FILE=ISI$MINI.:E05TSI        MINI-DELTA - G -> GO COMMAND PROCESSOR                     62   BMAP - B00
   002742 (0)002664 106400            1455         VFD     18/GOEIS3,O18/106400  CMPC
   002743 (0)002667 120400            1456         VFD     18/GOEIS4,O18/120400  SCD
   002744 (0)002667 121400            1457         VFD     18/GOEIS4,O18/121400  SCDR
   002745 (0)002667 164400            1458         VFD     18/GOEIS4,O18/164400  TCT
   002746 (0)002667 165400            1459         VFD     18/GOEIS4,O18/165400  TCTR
   002747 (0)002667 124400            1460         VFD     18/GOEIS4,O18/124400  SCM
   002750 (0)002667 125400            1461         VFD     18/GOEIS4,O18/125400  SCMR
   002751 (0)002664 300400            1462         VFD     18/GOEIS3,O18/300400  MVN
   002752 (0)002664 303400            1463         VFD     18/GOEIS3,O18/303400  CMPN
   002753 (0)002667 244400            1464         VFD     18/GOEIS4,O18/244400  MVNE
   002754 (0)002667 222400            1465         VFD     18/GOEIS4,O18/222400  AD3D
   002755 (0)002664 202400            1466         VFD     18/GOEIS3,O18/202400  AD2D
   002756 (0)002667 223400            1467         VFD     18/GOEIS4,O18/223400  SB3D
   002757 (0)002664 203400            1468         VFD     18/GOEIS3,O18/203400  SB2D
   002760 (0)002667 226400            1469         VFD     18/GOEIS4,O18/226400  MP3D
   002761 (0)002664 206400            1470         VFD     18/GOEIS3,O18/206400  MP2D
   002762 (0)002667 227400            1471         VFD     18/GOEIS4,O18/227400  DV3D
   002763 (0)002664 207400            1472         VFD     18/GOEIS3,O18/207400  DV2D
   002764 (0)002664 060400            1473         VFD     18/GOEIS3,O18/060400  CSL
   002765 (0)002664 061400            1474         VFD     18/GOEIS3,O18/061400  CSR
   002766 (0)002664 064400            1475         VFD     18/GOEIS3,O18/064400  SZTL
   002767 (0)002664 065400            1476         VFD     18/GOEIS3,O18/065400  SZTR
   002770 (0)002664 066400            1477         VFD     18/GOEIS3,O18/066400  CMPB
   002771 (0)002664 305400            1478         VFD     18/GOEIS3,O18/305400  DTB
   002772 (0)002664 301400            1479         VFD     18/GOEIS3,O18/301400  BTD
   002773 (0)002562 6004 00           1480         TRTN    GOTRTN
   002774 (0)002571 6014 00           1481         TRTF    GOTRTF
   002775 (0)002600 6064 00           1482         TTN     GOTTN
   002776 (0)002607 6054 00           1483         TPNZ    GOTPNZ
   002777 (0)002616 6044 00           1484         TMOZ    GOTMOZ
   003000 (0)002625 6300 00           1485         RET     GORET
             000000000074             1486  NSINS  EQU     *-SINS
                                      1487  *
          (0)000000003001             1488  INSTBL EQU     *               CANT HANDLE THESE INSTRUCTIONS
   003001    000000716000             1489         OCT     716000          XEC INSTRUCTION
   003002    000000717000             1490         OCT     717000          XED
   003003    000000520200             1491         OCT     520200          RPT
 22:54 07/29/97  FILE=ISI$MINI.:E05TSI        MINI-DELTA - G -> GO COMMAND PROCESSOR                     63   BMAP - B00
   003004    000000560200             1492         OCT     560200          RPD
   003005    000000500200             1493         OCT     500200          RPL
             000000000005             1494  NINST  EQU     *-INSTBL        NUMBER OF OP CODES TO LOOK OUT FORE

 22:54 07/29/97  FILE=ISI$MINI.:E05TSI        MINI-DELTA - ST -> STEP COMMAND PROCESSOR (NOT YET IMPLEM  64   BMAP - B00
                                      1495         TTLS    MINI-DELTA - ST -> STEP COMMAND PROCESSOR (NOT YET IMPLEMENTED)
          (0)000000003006             1496  STEP   EQU     *
   003006    777777 2360 07           1497         LDQ     =O777777,DL
   003007    123110 2110 03           1498         CMK     =2USH,DU        SHOW COMMAND
   003010 (0)003014 6000 00           1499         TZE     SHOW            YES
   003011 (1)000003 2110 00           1500         CMK     =2USY           SYSDISK COMMAND?
   003012 (0)003140 6000 00           1501         TZE     SYSDISK         YUP
   003013 (0)000017 7100 00           1502         TRA     ERROR

 22:54 07/29/97  FILE=ISI$MINI.:E05TSI        MINI-DELTA - SH -> SHOW -> SHOW(DISPLAY) BREAKPOINTS, IF   65   BMAP - B00
                                      1503         TTLS    MINI-DELTA - SH -> SHOW -> SHOW(DISPLAY) BREAKPOINTS, IF ANY
          (0)000000003014             1504  SHOW   EQU     *               SHOW COMMAND
   003014 (0)004046 7070 00           1505         TSX7    GETF            GET BREAK NUMBER
   003015 (0)003045 7100 00           1506         TRA     SHOW3           SHOW ALL BREAK NUMBERS
   003016 (0)000017 7100 00           1507         TRA     ERROR
   003017 (0)004132 7070 00           1508         TSX7    CHRBIN          CONVERT BREAK TO BINARY
   003020    000010 1160 07           1509         CMPQ    8,DL
   003021 (0)000017 6030 00           1510         TRC     ERROR           TOO BIG FOR A BREAK NUMBER
   003022    000000 6210 06           1511         EAX1    0,QL            BREAK NUMBER
   003023 (0)000017 6000 00           1512         TZE     ERROR           BREAK NO. CANT BE ZERO
   003024    000001 6220 00           1513         EAX2    1               PRINT ONE BREAK POSITION
   003025 (0)001153 2340 11           1514  SHOW1  SZN     EMPTBL-1,X1     LIVE ENTRY
   003026 (0)003035 6000 00           1515         TZE     SHOW2           NO -> DON'T SAY ANYTHING
   003027 (0)001162 2360 11           1516         LDQ     ADDTBL-1,X1     ADDRESS OF BREAK POINT
   003030 (0)003354 7410 00           1517         STX1    TMPSV+1         MAKE SURE THIS DOESN'T GET DESTROYED
   003031 (0)003355 7420 00           1518         STX2    TMPSV+2         NOR THIS - PL6 EATS REGISTERS
   003032 (0)004265 7070 00           1519         TSX7    PRTBRK          PRINT BREAK POINT ADDRESS
   003033 (0)003354 2210 00           1520  SHOWR  LDX1    TMPSV+1         RESTORE
   003034 (0)003355 2220 00           1521         LDX2    TMPSV+2         BOTH VALUES
   003035    000001 0610 03           1522  SHOW2  ADX1    1,DU            NEXT BREAK POINT
   003036    000001 1620 03           1523         SBX2    1,DU
   003037 (0)003025 6010 00           1524         TNZ     SHOW1           PRINT EM ALL
   003040 (0)003033 1070 03           1525         CMPX7   SHOWR,DU        WERE ANY BREAKPOINTS FOUND?
   003041 (0)000032 6000 00           1526         TZE     NEXTC           YES -> GET NEXT COMMAND
   003042 (0)003052 2350 00           1527         LDA     TALY19          NO -> PRINT 'NONE'
   003043 (0)005105 7070 00           1528         TSX7    TYPE            ON OUTPUT DEVICE
   003044 (0)000032 7100 00           1529         TRA     NEXTC           NEXT COMMAND
                                      1530  *
   003045    000001 6210 00           1531  SHOW3  EAX1    1               START AT BREAK ONE
   003046    000007 6220 00           1532         EAX2    7                 AND PRINT ALL SEVEN BREAKS
   003047 (0)003025 7100 00           1533         TRA     SHOW1
                                      1534  *
   003050                             1535  SHOW4  NULL
   003050 (0)004256 7070 00           1536         TSX7    PRTBK1          PRINT EMPTY MESSAGE
   003051 (0)003035 7100 00           1537         TRA     SHOW2
                                      1538  *
   003052 (0)003053 0004 40           1539  TALY19 TALLYB  *+1,4
 22:54 07/29/97  FILE=ISI$MINI.:E05TSI        MINI-DELTA - SH -> SHOW -> SHOW(DISPLAY) BREAKPOINTS, IF   66   BMAP - B00
   003053    116117116105             1540         UASCI   1,NONE
                                      1541  *

 22:54 07/29/97  FILE=ISI$MINI.:E05TSI        MINI-DELTA - DE -> DEFINE SYMBOL                           67   BMAP - B00
                                      1542         TTLS    MINI-DELTA - DE -> DEFINE SYMBOL
          (0)000000003054             1543  DEFINE EQU     *
   003054 (1)000004 1150 00           1544         CMPA    =UDBOO          IS IT 'DBOO' COMMAND?
   003055 (0)002271 6000 00           1545         TZE     DBT             YEP
   003056    777777 2360 07           1546         LDQ     =O777777,DL
   003057    104125 2110 03           1547         CMK     =2UDU,DU        DUMP COMMAND
   003060 (0)003374 6000 00           1548         TZE     DUMP            YES
   003061 (1)000005 2110 00           1549         CMK     =2UDD           DISK DUMP COMMMAND?
   003062 (0)003151 6000 00           1550         TZE     DISKDUMP        YUP
                                      1551  *
   003063 (0)004046 7070 00           1552         TSX7    GETF            GET SYMBOL NAME
   003064 (0)000017 7100 00           1553         TRA     ERROR           NO NAME
   003065 (0)003067 7100 00           1554         TRA     *+2
   003066 (0)000017 7100 00           1555         TRA     ERROR           ERROR-NUMERIC NAME
   003067 (0)004450 7070 00           1556         TSX7    FINSYB          GET A SYMBOLIC INDEX
   003070 (0)003105 7100 00           1557         TRA     DEF2            SYMBOL ALREADY THERE
   003071 (0)003136 7570 00           1558         STAQ    DSYMBL          SAVE SYMBOL NAME
   003072 (0)003135 7410 00           1559         STX1    DSINX           SAVE INDEX TO SYMBOL
   003073 (0)004522 7070 00           1560  DEF1   TSX7    LEXP            EVALUATE LOCATION EXPRESSION
   003074 (0)000017 7100 00           1561         TRA     ERROR           NO VALUE PRESENT
   003075 (0)000017 7100 00           1562         TRA     ERROR           ERROR-SYMBOLIC MODE
   003076    000000 6220 02           1563         EAX2    0,QU            LOCATION VALUE OF SYMBOL
   003077 (0)003135 2210 00           1564         LDX1    DSINX           INDEX OF SYMBOL
   003100 (0)003136 2370 00           1565         LDAQ    DSYMBL          TEXT OF SYMBOL
   003101 (0)007243 7570 11           1566         STAQ    SYMTBL-1,X1       INTO SYMBOL TABLE
   003102 (0)007513 7420 11           1567         STX2    SFETCH-1,X1
   003103 (0)007514 7420 11           1568         STX2    SSTORE-1,X1     PUT ADDRESS IN SYMBOL TABLES
   003104 (0)000032 7100 00           1569         TRA     NEXTC           NEXT COMMAND
                                      1570  *
          (0)000000003105             1571  DEF2   EQU     *               SYMBOL ALREADY IN TABLE
   003105    000101 1010 03           1572         CMPX1   MSKINX,DU       POINTING TO $MASK
   003106 (0)003113 6000 00           1573         TZE     DEF3            YES
   003107 (0)000017 6030 00           1574         TRC     ERROR           ERROR-CANT DEFINE ENVIRNMENT SYMBOLS
   003110    000075 1010 03           1575         CMPX1   LOWINX,DU
   003111 (0)003123 6020 00           1576         TNC     DEF4            REDEFINING -> ONLY OK IF SAME VALUE
   003112 (0)003073 7100 00           1577         TRA     DEF1            CAN REDEFINE $LOW OR $HIGH
   003113 (0)004046 7070 00           1578  DEF3   TSX7    GETF            GET $MASK VALUE
 22:54 07/29/97  FILE=ISI$MINI.:E05TSI        MINI-DELTA - DE -> DEFINE SYMBOL                           68   BMAP - B00
   003114 (0)000017 7100 00           1579         TRA     ERROR           ERROR-NONE GIVEN
   003115 (0)000017 7100 00           1580         TRA     ERROR           ERROR-ALPHA
   003116    000015 1060 03           1581         CMPX6   13,DU
   003117 (0)000017 6030 00           1582         TRC     ERROR           ERROR-TOO MANY CHARS FOR VALUE
   003120 (0)004132 7070 00           1583         TSX7    CHRBIN          CONVERT VALUE TO BINARY
   003121 (0)007764 7560 00           1584         STQ     MASK            VALUE OF MASK
   003122 (0)000032 7100 00           1585         TRA     NEXTC           NEXT COMMAND
                                      1586  *
   003123                             1587  DEF4   NULL
   003123 (0)003136 7570 00           1588         STAQ    DSYMBL          SAVE SYMBOL BEING REDEFINED
   003124 (0)003135 7410 00           1589         STX1    DSINX           AND IT'S INDEX
   003125 (0)004522 7070 00           1590         TSX7    LEXP            EVALUATE LOCATION EXPRESSION
   003126 (0)000017 7100 00           1591         TRA     ERROR           NO VALUE GIVEN
   003127 (0)000017 7100 00           1592         TRA     ERROR           SYMBOLIC VALUE NOT ALLOWED
   003130    000000 6220 02           1593         EAX2    0,QU            NEW SYMBOL VALUE -> X2
   003131 (0)003135 2210 00           1594         LDX1    DSINX           GET OLD INDEX
   003132 (0)007513 1020 11           1595         CMPX2   SFETCH-1,X1     SEE IF NEW VALUE EQUALS OLD
   003133 (0)000017 6010 00           1596         TNZ     ERROR           NO -> CAN'T REDEFINE -> MUST KILL
   003134 (0)000032 7100 00           1597         TRA     NEXTC           YES -> IGNORE
                                      1598  *
   003135    000000 000000            1599  DSINX  ZERO                    INDEX TO NEW SYMBOL
                                      1600         EVEN
   003136    000000 000000            1601  DSYMBL ZERO                    TEXT OF SYMBOL NAME
   003137    000000 000000            1602         ZERO

 22:54 07/29/97  FILE=ISI$MINI.:E05TSI        SY -> SYSDISK -> DUMP SYSTEM DISK                          69   BMAP - B00
                                      1603         TTLS    SY -> SYSDISK -> DUMP SYSTEM DISK
                                      1604  *
   003140                             1605  SYSDISK NULL                   DUMP SYSTEM DISK
   003140  X 000000 2360 00           1606         LDQ     SYS_DPX         IS SYS DISK KNOWN YET?
   003141 (0)000017 6000 00           1607         TZE     ERROR           NOT YET
   003142    000014 4020 07           1608         MPY     12,DL           DEVINFO STRUCTURE IS 12 WORDS
   003143  X 000000 2350 06           1609         LDA     DEVINFO,QL      DCT1(SYS DISK)
   003144  X 000000 2360 00           1610         LDQ     REC_DPX
   003145 (0)003353 7550 00           1611         STA     TMPSV           MPY USES AQ
   003146    000014 4020 07           1612         MPY     12,DL
   003147 (0)003353 2350 00           1613         LDA     TMPSV           GET OLD VALUE OF DCT1(SYS DISK)
   003150  X 000000 7550 06           1614         STA     DEVINFO,QL      DCT1(DISK TO DUMP)
   003151                             1615  DISKDUMP NULL                  DD COMMAND -> DISK DUMP
   003151  X 000000 2360 00           1616         LDQ     REC_DPX         GET INDX OF DISK TO DUMP
   003152 (0)000116 7560 00           1617         STQ     ALST1           SET UP FOR CALL TO PL6
   003153    000001 2350 03           1618         LDA     1,DU            ONE ARG
   003154 (0)000115 7550 00           1619         STA     DLST1
   003155 (0)000110 6304 00           1620         EPPR0   PLST1
   003156 (0)000115 6314 00           1621         EPPR1   DLST1
   003157  X 000000 7010 00           1622         TSX1    GT_PACK         ASK OPERATOR FOR DISK ADDRESS
   003160    000000 0110 00           1623         NOP                     NO ALTRETURN
   003161 (0)003343 2350 00           1624         LDA     FDAQM-1         TALLY WORD FOR FIRST DISK ADDR MESSAGE
   003162 (0)005071 7070 00           1625         TSX7    OCOUT           ASK FOR DISK ADDRESS
   003163 (0)000756 2350 00           1626         LDA     COMAND-1        TALLY WORD FOR RESPONSE BUFFER
   003164 (0)004746 7070 00           1627         TSX7    TYIN            GET OPERATOR'S REPLY
   003165 (0)000756 2350 00           1628         LDA     COMAND-1        TALLY WORD FOR COMMAND BUFFER
   003166 (0)000757 7550 00           1629         STA     COMAND
   003167 (0)004046 7070 00           1630         TSX7    GETF            GET IT
   003170 (0)000032 7100 00           1631         TRA     NEXTC           NONE -> HE CHANGED HIS MIND
   003171 (0)003140 7100 00           1632         TRA     SYSDISK         ALPHA -> TRY AGAIN
   003172    000006 1060 03           1633         CMPX6   6,DU            MAX# CHARACTERS ALLOWED
   003173 (0)003140 6054 00           1634         TPNZ    SYSDISK         TOO MANY -> TRY AGAIN
   003174 (0)004132 7070 00           1635         TSX7    CHRBIN          CONVERT FROM OCTAL TO BINARY
   003175    000000 6270 06           1636         EAX7    0,QL            GET INTO X7
   003176 (0)003351 7470 00           1637         STX7    FDA             SAVE IT
   003177 (0)003352 7470 00           1638         STX7    LDA             SET LDA=FDA JUST IN CASE
   003200                             1639  SYSD1  NULL
 22:54 07/29/97  FILE=ISI$MINI.:E05TSI        SY -> SYSDISK -> DUMP SYSTEM DISK                          70   BMAP - B00
   003200 (0)003345 2350 00           1640         LDA     LDAQM-1         TALLY WORD FOR LAST DISK ADDR MESSAGE
   003201 (0)005071 7070 00           1641         TSX7    OCOUT           ASK FOR DISK ADDRESS
   003202 (0)000756 2350 00           1642         LDA     COMAND-1        TALLY WORD FOR RESPONSE BUFFER
   003203 (0)004746 7070 00           1643         TSX7    TYIN            GET OPERATOR'S REPLY
   003204 (0)000756 2350 00           1644         LDA     COMAND-1        TALLY WORD FOR COMMAND BUFFER
   003205 (0)000757 7550 00           1645         STA     COMAND
   003206 (0)004046 7070 00           1646         TSX7    GETF            GET IT
   003207 (0)003223 7100 00           1647         TRA     SYSD2+1         NONE -> ASSUME LDA=FDA
   003210 (0)003200 7100 00           1648         TRA     SYSD1           ALPHA -> TRY AGAIN
   003211    000006 1060 03           1649         CMPX6   6,DU            MAX# CHARS ALLOWED
   003212 (0)003200 6054 00           1650         TPNZ    SYSD1           TOO MANY -> TRY AGAIN
   003213 (0)004132 7070 00           1651         TSX7    CHRBIN          OCTAL TO BINARY
   003214    000000 6270 06           1652         EAX7    0,QL            SHIFT TO X7
   003215 (0)003351 1070 00           1653         CMPX7   FDA             COMPARE LDA WITH FDA
   003216 (0)003222 6050 00           1654         TPL     SYSD2           LDA >= FDA -> OKAY
   003217 (0)003351 2260 00           1655         LDX6    FDA             LDA < FDA  -> FLIP 'EM
   003220 (0)003351 7470 00           1656         STX7    FDA
   003221    000000 6270 16           1657         EAX7    0,X6            (X6) -> (X7)
   003222                             1658  SYSD2  NULL
   003222 (0)003352 7470 00           1659         STX7    LDA
   003223 (0)003562 4500 00           1660         STZ     DLOW            FWA OF BUFFER TO DUMP
   003224    001777 6270 00           1661         EAX7    1023            LWA OF BUFFER TO DUMP
   003225 (0)003563 7470 00           1662         STX7    DHIGH
   003226    000010 6270 00           1663         EAX7    8               8 WORDS PER DUMP LINE
   003227 (0)003575 2360 00           1664         LDQ     DLINEP          TALLY WORD FOR 8 WORD LINE
   003230 (0)004011 2340 00           1665         SZN     OUTDEV          LP OUTPUT?
   003231 (0)003234 6000 00           1666         TZE     *+3             SI
   003232    000004 6270 00           1667         EAX7    4               NO -> 4 WORDS PER LINE
   003233 (0)003576 2360 00           1668         LDQ     DLINTY          TALLY WORD FOR 4 WORD LINE
   003234 (0)003561 7560 00           1669         STQ     DUMPTL          DUMP TALLY WORD
   003235 (0)003560 7470 00           1670         STX7    DNWRDS          4 OR 8 WORDS/LINE
   003236  X 000000 6360 00           1671         EAQ     POBUF           FIX UP
   003237    000020 7720 00           1672         QRL     18-2            PODESC BASE
   003240  X 000001 7560 00           1673         STQ     PODESC+1        AND
   003241    001775 4714 07           1674         LDP     LS,DR.USE+=O1770,DL   SAVE OLD VALUE OF DR.USE
   003242  X 000000 4754 00           1675         LDP     DR.USE,I$PO$    FRAME POBUF
   003243 (0)003351 2250 00           1676         LDX5    FDA
 22:54 07/29/97  FILE=ISI$MINI.:E05TSI        SY -> SYSDISK -> DUMP SYSTEM DISK                          71   BMAP - B00
   003244                             1677  RDDSK  NULL                    READ NEXT GRANULE FROM SYSDISK
   003244    010000 6230 00           1678         EAX3    4*1024          1ST FILL POBUF WITH ONES
   003245    777 0 040 1004 00        1679         MLR     ,(,1),777
   003246    000000 0 0 0 0000        1680         ADSC9   0,0,0
   003247  X 000000 0 0 0 0013        1681         ADSC9   POBUF,0,X3
   003250    000000 6230 00           1682         EAX3    FCNRDB          READ DISK BINARY
   003251  X 000000 7240 00           1683         LXL4    SYS_DPX         DCTX OF DISK TO DUMP
   003252 (0)003351 2250 00           1684         LDX5    FDA             PICK UP GRANULE NUMBER
   003253 (0)003350 4500 00           1685         STZ     DISKERR         ZAP ERROR FLAG
   003254 (0)000116 4440 00           1686         SXL4    ALST1           INDX
   003255 (0)003347 6304 00           1687         EPPR0   GRANDCW
   003256 (0)000117 4504 00           1688         STP0    ALST1+1         BUF$
   003257 (0)000121 4430 00           1689         SXL3    ALST1+3         CODE
   003260 (0)000122 4450 00           1690         SXL5    ALST1+4         GRAN#
   003261    000005 2350 03           1691         LDA     =O5,DU
   003262 (0)000115 7550 00           1692         STA     DLST1           NUMBER OF ARGS
   003263 (0)000110 6304 00           1693         EPPR0   PLST1
   003264 (0)000115 6314 00           1694         EPPR1   DLST1
                                      1695         PUSH                    SAVE OUR REGISTERS FROM PL6
                                             IFE AARDVARK,0,1
                                             SYMREF SPW1
   003265  X 000000 7530 53                  SREG SPW1,AD         SAVE ENVIRONMENT
   003266  X 000000 0554 00                  STD DR.USE,TEMPD    NEVER LET DR5 GET CLOBBERED!!
   003267  X 000000 7010 00           1696         TSX1    MINIQC_PL6      READ IT INTO POBUF
   003270 (0)003272 7100 00           1697         TRA     RDDSK1          ERROR
   003271 (0)003273 7100 00           1698         TRA     RDDSK2          NORMAL RETURN
   003272                             1699  RDDSK1 NULL                    ERROR READING SYSDISK GRANULE
   003272 (0)003350 0540 00           1700         AOS     DISKERR         SET ERROR FLAG
   003273                             1701  RDDSK2 NULL                    GOTCHA
                                      1702         PULL                    RESTORE EVERYTHING
                                             IFE AARDVARK,0,1
                                             SYMREF SPW1
   003273  X 000000 0730 44                  LREG SPW1,SD         RESTORE ENVIRONMENT
   003274  X 000000 4754 00                  LDP DR.USE,I$TEMP$
   003275    001764 4744 07                  LDP DR.SSR,DSSR,DL
   003276    001761 4744 07                  LDP DR.SSR,DTYP,DL
   003277 (0)003351 2250 00           1703         LDX5    FDA             PL6 TRASHED X5
 22:54 07/29/97  FILE=ISI$MINI.:E05TSI        SY -> SYSDISK -> DUMP SYSTEM DISK                          72   BMAP - B00
   003300    000001 6250 15           1704         EAX5    1,X5            BUMP TO NEXT GRANULE
   003301 (0)003351 7450 00           1705         STX5    FDA             AND STASH IT AWAY
   003302 (0)004517 2350 00           1706         LDA     TBLNKS          TOP OF
   003303 (0)005076 7070 00           1707         TSX7    TPAGE           PAGE
   003304 (0)003334 2350 00           1708         LDA     GRANM-2         OUTPUT TALLY WORD
   003305    777777 6360 15           1709         EAQ     -1,X5           LAST GRANULE# -> QU
   003306 (0)004143 7070 00           1710         TSX7    BINCHR          CONVERT AND STUFF MESSAGE
   003307 (0)003335 2350 00           1711         LDA     GRANM-1         OUTPUT HEADING
   003310 (0)005103 7070 00           1712         TSX7    TYPE1           ON THE OUTPUT DEVICE
   003311 (0)003350 2140 00           1713         SZNC    DISKERR         CHECK ERROR FLAG
   003312 (0)003315 6000 00           1714         TZE     RDDSK3          NO ERROR
   003313 (0)003323 2350 00           1715         LDA     DSKERM-1        OUTPUT ERROR MESSAGE BEFORE DUMPING
   003314 (0)005103 7070 00           1716         TSX7    TYPE1           ON THE OUTPUT DEVICE
   003315                             1717  RDDSK3 NULL
   003315 (0)003460 7070 00           1718         TSX7    DUMPSUB         DUMPIT
   003316 (0)003352 2250 00           1719         LDX5    LDA             LAST GRANULE# TO BE DUMPED
   003317 (0)003351 1050 00           1720         CMPX5   FDA             LAST GRANULE# DUMPED +1
   003320 (0)003244 6050 00           1721         TPL     RDDSK           NEED WE CONTINUE?
   003321    001771 4754 07           1722         LDP     DR.USE,LS+=O1770,DL RESTORE OLD VALUE OF DR.USE
   003322 (0)000032 7100 00           1723         TRA     NEXTC           THAT'S ALL -> NEXT COMMAND
                                      1724  *
   003323 (0)003324 0040 40           1725         TALLYB  *+1,32
   003324    040104111123             1726  DSKERM UASCI   8, DISK ERROR READING THIS GRANULE
   003325    113040105122
   003326    122117122040
   003327    122105101104
   003330    111116107040
   003331    124110111123
   003332    040107122101
   003333    116125114105
   003334 (0)003340 0006 43           1727         TALLYB  GRANM+2,6,3     OUTPUT TALLY WORD FOR BINCHR
   003335 (0)003336 0024 40           1728         TALLYB  *+1,20
   003336    040107122101             1729  GRANM  UASCI   5, GRANULE# .XXXXXX
   003337    116125114105
   003340    043040056130
   003341    130130130130
   003342    130040040040
 22:54 07/29/97  FILE=ISI$MINI.:E05TSI        SY -> SYSDISK -> DUMP SYSTEM DISK                          73   BMAP - B00
   003343 (0)003344 0004 40           1730         TALLYB  *+1,4
   003344    106104101075             1731  FDAQM  UASCI   1,FDA=
   003345 (0)003346 0004 40           1732         TALLYB  *+1,4
   003346    114104101075             1733  LDAQM  UASCI   1,LDA=
   003347  X 000000 00 2000           1734  GRANDCW IOTD   POBUF,1024      READ 1 GRANULE INTO POBUF
   003350    000000000000             1735  DISKERR OCT    0               ERROR FLAG
   003351    000000000000             1736  FDA    OCT     0
   003352    000000000000             1737  LDA    OCT     0
   003353                             1738  TMPSV  BSS     5               REG SAVE AREA WHEN CALLING PL6
                                      1739  *

 22:54 07/29/97  FILE=ISI$MINI.:E05TSI        MINI-DELTA - E -> EVALUATE EXPRESSION                      74   BMAP - B00
                                      1740         TTLS    MINI-DELTA - E -> EVALUATE EXPRESSION
          (0)000000003360             1741  EVALUA EQU     *               EVALUATE COMMAND
   003360 (0)004522 7070 00           1742         TSX7    LEXP            GET VALUE OF EXPRESSION
   003361 (0)000017 7100 00           1743         TRA     ERROR           ERROR-NOTHING NAMED
   003362 (0)000017 7100 00           1744         TRA     ERROR           ERROR-SYMBOLIC MODE
   003363 (0)003371 2350 00           1745         LDA     EVAL2           TALLY WORD FOR VALUE IN MESSAGE
   003364 (0)004143 7070 00           1746         TSX7    BINCHR          CONVERT VALUE TO CHAR
   003365 (0)003370 2350 00           1747         LDA     EVAL1           TALLY WORD TO TYPE MESSAGE
   003366 (0)005101 7070 00           1748         TSX7    TYPSNL          TYPE SUPRESS NEW LINE
   003367 (0)000032 7100 00           1749         TRA     NEXTC           NEXT COMMAND
                                      1750  *
   003370 (0)003372 0010 40           1751  EVAL1  TALLYB  EVAL3,8         TALLY TO TYPE ENTIRE LINE
   003371 (0)003372 0006 41           1752  EVAL2  TALLYB  EVAL3,6,1       TALLY TO INSERT LOCATION
   003372    075130130130             1753  EVAL3  UASCI   2,=XXXXXX
   003373    130130130040

 22:54 07/29/97  FILE=ISI$MINI.:E05TSI        MINI-DELTA - DU -> DUMP SPECIFIED RANGE TO LP OR ME        75   BMAP - B00
                                      1754         TTLS    MINI-DELTA - DU -> DUMP SPECIFIED RANGE TO LP OR ME
          (0)000000003374             1755  DUMP   EQU     *
   003374 (0)003563 4500 00           1756         STZ     DHIGH           CLEAR LAST DUMP ADDRESS
   003375 (0)003575 2360 00           1757         LDQ     DLINEP          TALLY WORD FOR EIGHT WORD LINE
   003376    000010 6220 00           1758         EAX2    8               EIGHT WORDS PER LINE
   003377 (0)004011 2340 00           1759         SZN     OUTDEV          LP OUTPUT
   003400 (0)003403 6000 00           1760         TZE     *+3             YES
   003401    000004 6220 00           1761         EAX2    4               NO-FOUR WORDS PER LINE
   003402 (0)003576 2360 00           1762         LDQ     DLINTY          TALLY WORD FOR FOUR WORD LINE
   003403 (0)003560 7420 00           1763         STX2    DNWRDS          WORDS PER LINE
   003404 (0)003561 7560 00           1764         STQ     DUMPTL          LINE TALLY WORD
                                      1765  *
   003405 (0)004522 7070 00           1766         TSX7    LEXP            GET FIRST LOCATION
   003406 (0)000017 7100 00           1767         TRA     ERROR           ERROR-NO FIELD
   003407 (0)000017 7100 00           1768         TRA     ERROR           ERROR-SYMBOLIC MODE
   003410 (0)003562 7560 00           1769         STQ     DLOW            LOW DUMP ADDRESS
   003411    000000 6210 02           1770         EAX1    0,QU            FIRST DUMP ADDRESS
   003412 (0)004046 7070 00           1771         TSX7    GETF            GET 'TO' VERB
   003413 (0)003424 7100 00           1772         TRA     DUMP9           NO 'TO' DUMP ONE WORD
   003414 (0)003416 7100 00           1773         TRA     *+2             ALPHA WHAT WE WANT
   003415 (0)000017 7100 00           1774         TRA     ERROR           ERROR BAD SYNTAX
   003416 (0)004522 7070 00           1775         TSX7    LEXP            GET LAST ADDRESS
   003417 (0)000017 7100 00           1776         TRA     ERROR           ERROR-NO LAST ADDRESS
   003420 (0)000017 7100 00           1777         TRA     ERROR           ERROR-SYMBOLIC MODE
   003421 (0)003562 1160 00           1778         CMPQ    DLOW
   003422 (0)000017 6020 00           1779         TNC     ERROR           ERROR-HIGH LESS THAN LOW
   003423 (0)003563 7560 00           1780         STQ     DHIGH           HIGH DUMP ADDRESS
   003424                             1781  DUMP9  NULL
   003424  X 000000 0554 00           1782         STD     DR.USE,TEMPD    NEED TO CHECK
   003425  X 000000 2250 00           1783         LDX5    TEMPD           FOR OUT OF BOUNDS
   003426  X 000000 7270 00           1784         LXL7    TEMPD           DO WE HAVE BOUND
   003427    600000 3070 03           1785         CANX7   =O600000,DU     OR DO WE HAVE SIZE?
   003430 (0)003432 6010 00           1786         TNZ     *+2             NZ -> BOUND
   003431    777777 6250 15           1787         EAX5    -1,X5           ZERO -> SIZE -> BOUND IS SIZE-1
   003432 (0)003562 1050 00           1788         CMPX5   DLOW            1ST CHECK LOW DUMP ADDRESS
   003433 (0)000017 6020 00           1789         TNC     ERROR           OVER THE LINE -> TELL 'EM
   003434 (0)003563 1050 00           1790         CMPX5   DHIGH           OKAY -> NOW CHECK HIGH DUMP ADDRESS
 22:54 07/29/97  FILE=ISI$MINI.:E05TSI        MINI-DELTA - DU -> DUMP SPECIFIED RANGE TO LP OR ME        76   BMAP - B00
   003435 (0)003437 6030 00           1791         TRC     *+2             OKAY -> DO IT
   003436 (0)003563 7450 00           1792         STX5    DHIGH           HIGH OVER THE LINE -> USE THE LINE
   003437 (0)004011 2340 00           1793         SZN     OUTDEV          OUTPUT TO LP
   003440 (0)003445 6000 00           1794         TZE     *+5             YUP
   003441 (0)000032 6270 00           1795         EAX7    NEXTC           NOPE -> RETURN ADDRESS TO X7
   003442  X 000000 7470 56           1796         STX7    SPW2,ID         PUSH IT
   003443 (0)003562 2210 00           1797         LDX1    DLOW            STARTING DUMP ADDRESS -> X1
   003444 (0)003511 7100 00           1798         TRA     DUMP3           AND JUMP INTO DUMPSUB
                                      1799  *
                                      1800  *
   003445 (0)004517 2350 00           1801         LDA     TBLNKS
   003446 (0)005076 7070 00           1802         TSX7    TPAGE           TOP THE PAGE
   003447 (0)003453 2350 00           1803         LDA     USEM-1          OUTPUT TALLY WORD
   003450 (0)005103 7070 00           1804         TSX7    TYPE1           TELL 'EM WHAT WE'RE DUMPIN'
                                      1805  *
   003451 (0)003460 7070 00           1806         TSX7    DUMPSUB         NOW GO DUMP THE SEGMENT
   003452 (0)000032 7100 00           1807         TRA     NEXTC           AND GET NEXT COMMAND
                                      1808  *
                                      1809         ODD
   003453 (0)003454 0020 40           1810         TALLYB  *+1,16
   003454    040040040040             1811  USEM   UASCI   4,
   003455    040040040040
   003456    040040040040
   003457    040040040040
                                      1812  *

 22:54 07/29/97  FILE=ISI$MINI.:E05TSI        DUMPSUB - SUBROUTINE TO DUMP A BUFFER ON LP OR OC          77   BMAP - B00
                                      1813         TTLS    DUMPSUB - SUBROUTINE TO DUMP A BUFFER ON LP OR OC
                                      1814  *
                                      1815  *      CALLING SEQUENCE
                                      1816  *
                                      1817  *      TSX7    DUMPSUB
                                      1818  *      NORMAL RETURN
                                      1819  *
                                      1820  *      INPUT: DLOW AND DHIGH CONTAIN 1ST AND LAST ADDRESS OF THE BUFFER
                                      1821  *              DNWRDS CONTAINS THE NUMBER OF WORDS IN A PRINT LINE
                                      1822  *               DUMPTL CONTAINS THE APPROPRIATE TALLY WORD
                                      1823  *              DR.USE FRAMES THE SEGMENT BEING DUMPED
                                      1824  *
   003460                             1825  DUMPSUB NULL
   003460  X 000000 7470 56           1826         STX7    SPW2,ID         PUSH (X7)
   003461 (0)003562 2210 00           1827         LDX1    DLOW            STARTING ADDRESS -> X1
   003462    000007 3010 03           1828         CANX1   7,DU            AT 8 WORD BOUNDARY
   003463 (0)003546 6010 00           1829         TNZ     DUMP6           NO
                                      1830  *
   003464    000000 6220 11           1831  DUMP4  EAX2    0,X1
   003465 (0)003560 1620 00           1832         SBX2    DNWRDS          START OF PREVIOUS LINE
   003466    000000 6230 11           1833         EAX3    0,X1
   003467 (0)003562 1030 00           1834         CMPX3   DLOW            AT THE FIRST LINE
   003470 (0)003511 6000 00           1835         TZE     DUMP3           YES-PRINT THE FIRST LINE
   003471 (0)003560 2240 00           1836         LDX4    DNWRDS          NUMBER OF WORDS PER LINE
   003472                             1837  DUMP2  NULL
   003472 (0)003557 0540 00           1838         AOS     DUMPSW          SET DUMP SWITCH IN CASE OF FAULT
   003473    5 00000 2351 13          1839         LDA     0,X3,DR.USE     GET NEXT VALUE
   003474 (0)003557 4500 00           1840         STZ     DUMPSW          RESET DUMP SWITCH
   003475    5 00000 1151 12          1841         CMPA    0,X2,DR.USE     COMPARE CURRENT LINE WITH PREV. LINE
   003476 (0)003511 6010 00           1842         TNZ     DUMP3           NOT THE SAME
   003477 (0)003563 1030 00           1843         CMPX3   DHIGH           LOOKED AT LAST CELL TO DUMP
   003500 (0)003511 6030 00           1844         TRC     DUMP3           YES-PRINT THE LAST LINE
   003501    000001 6220 12           1845         EAX2    1,X2
   003502    000001 6230 13           1846         EAX3    1,X3            INC TO NEXT WORD
   003503    777777 6240 14           1847         EAX4    -1,X4
   003504 (0)003472 6010 00           1848         TNZ     DUMP2           COMPARE ENTIRE LINE
   003505    052040 2350 07           1849         LDA     =2U* ,DL
 22:54 07/29/97  FILE=ISI$MINI.:E05TSI        DUMPSUB - SUBROUTINE TO DUMP A BUFFER ON LP OR OC          78   BMAP - B00
   003506 (0)003600 5510 10           1850         STBA    DLINE+1,10      LINE SAME PUT '*' IN LINE
   003507 (0)003560 0610 00           1851         ADX1    DNWRDS          INC PAST THE LINE
   003510 (0)003464 7100 00           1852         TRA     DUMP4           SET UP THE NEXT LINE
                                      1853  *
   003511    000000 6220 00           1854  DUMP3  EAX2    0               START AT FIRST WORD IN LINE
   003512    000000 6360 11           1855         EAQ     0,X1            ADDRESS
   003513 (0)003564 2350 00           1856  DUMP7  LDA     DTALAD          TALLY WORD OF ADDRESS FIELD
   003514 (0)004143 7070 00           1857         TSX7    BINCHR          PUT ADDRESS IN LINE
                                      1858  *
   003515    040 0 000 1004 00        1859         MLR     ,,040           BLANK THE PRINT LINE
   003516    000000 0 0 0 0000        1860         ADSC9   0,0,0
   003517 (0)003601 0 0 0 0160        1861         ADSC9   DLINE+2,0,112
                                      1862  *
   003520                             1863  DUMP1  NULL
   003520 (0)003557 0540 00           1864         AOS     DUMPSW          SET DUMP SWITCH IN CASE OF FAULT
   003521    5 00000 2361 11          1865         LDQ     0,X1,DR.USE     GET NEXT VALUE
   003522 (0)003557 4500 00           1866         STZ     DUMPSW          RESET DUMP SWITCH
   003523 (0)003565 2350 12           1867         LDA     DTALW0,X2       TALLY WORD IN LINE
   003524 (0)004143 7070 00           1868         TSX7    BINCHR          PUT DUMP WORD IN LINE
   003525 (0)003563 1010 00           1869         CMPX1   DHIGH           DUMPED THE LAST WORD
   003526 (0)003540 6030 00           1870         TRC     DUMP5           YES-PRINT THE LAST LINE
   003527    000001 6220 12           1871         EAX2    1,X2
   003530    000001 6210 11           1872         EAX1    1,X1
   003531 (0)003560 1020 00           1873         CMPX2   DNWRDS          ALL THE WORDS IN A LINE FILLED
   003532 (0)003520 6020 00           1874         TNC     DUMP1           NO-KEEP FILLING
                                      1875  *
   003533 (0)003561 2350 00           1876         LDA     DUMPTL          TALLY WORD TO PRINT THE LINE
   003534 (0)005103 7070 00           1877         TSX7    TYPE1           PRINT THE LINE
   003535    040040 2350 07           1878         LDA     =2U  ,DL
   003536 (0)003600 5510 10           1879         STBA    DLINE+1,10      CLEAR THE '*'
   003537 (0)003464 7100 00           1880         TRA     DUMP4           SET UP THE NEXT LINE
                                      1881  *
   003540 (0)003561 2350 00           1882  DUMP5  LDA     DUMPTL          TALLY WORD TO PRINT THE LINE
   003541 (0)005103 7070 00           1883         TSX7    TYPE1           PRINT THE LAST LINE
   003542    040040 2350 07           1884         LDA     =2U  ,DL
   003543 (0)003600 5510 10           1885         STBA    DLINE+1,10      CLEAR THE '*'
   003544  X 000000 2270 54           1886         LDX7    SPW2,DI         PULL (X7)
 22:54 07/29/97  FILE=ISI$MINI.:E05TSI        DUMPSUB - SUBROUTINE TO DUMP A BUFFER ON LP OR OC          79   BMAP - B00
   003545    000000 7100 17           1887         TRA     0,X7            RETURN
                                      1888  *
   003546 (0)003563 2350 00           1889  DUMP6  LDA     DHIGH           LAST ADDRESS
   003547 (0)003562 1350 00           1890         SBLA    DLOW             MINUS FIRST ADDRESS
   003550 (0)003560 1150 00           1891         CMPA    DNWRDS          NUMBER OF WORDS PER LINE
   003551 (0)003464 6020 00           1892         TNC     DUMP4           NOT A FULL LINE SO DUMP
   003552 (0)003562 2220 00           1893         LDX2    DLOW            FIRST ADDRESS
   003553    000007 3620 03           1894         ANX2    =O7,DU          START AT THIS WORD IN PRINT LINE
   003554    000000 6360 11           1895         EAQ     0,X1
   003555    777770 3760 03           1896         ANQ     =O777770,DU     SET ADDRESS FOR PRINT LINE
   003556 (0)003513 7100 00           1897         TRA     DUMP7           SET UP FIRST LINE
                                      1898  *
   003557    000000000000             1899  DUMPSW OCT     0               N.Z. -> DUMP IN PROGRESS (FOR FAULTS)
   003560    000000 000000            1900  DNWRDS ZERO                    NUMBER OF WORDS IN THE PRINT LINE
   003561    000000 000000            1901  DUMPTL ZERO                    TALLY WORD POINTING TO PRINT LINE
   003562    000000 000000            1902  DLOW   ZERO                    FIRST DUMP ADDRESS
   003563    000000 000000            1903  DHIGH  ZERO                    LAST DUMP ADDRESS
   003564 (0)003577 0006 40           1904  DTALAD TALLYB  DLINE,6         TALLY WORD FOR ADDRESS FIELD
   003565 (0)003601 0014 42           1905  DTALW0 TALLYB  DLINE+2,12,2    TALLY WORD POINTING TO PRPER WORD
   003566 (0)003605 0014 40           1906         TALLYB  DLINE+6,12
   003567 (0)003610 0014 42           1907         TALLYB  DLINE+9,12,2
   003570 (0)003614 0014 40           1908         TALLYB  DLINE+13,12
   003571 (0)003617 0014 42           1909         TALLYB  DLINE+16,12,2
   003572 (0)003623 0014 40           1910         TALLYB  DLINE+20,12
   003573 (0)003626 0014 42           1911         TALLYB  DLINE+23,12,2
   003574 (0)003632 0014 40           1912         TALLYB  DLINE+27,12
   003575 (0)003577 0170 40           1913  DLINEP TALLYB  DLINE,120       TALLY WORD TO PRINT ENTIRE LINE
   003576 (0)003577 0100 40           1914  DLINTY TALLYB  DLINE,64        TALLY WORD TO PRINT FOUR WORD LINE
   003577    040040040040             1915  DLINE  UASCI   13,
   003600    040040040040
   003601    040040040040
   003602    040040040040
   003603    040040040040
   003604    040040040040
   003605    040040040040
   003606    040040040040
   003607    040040040040
 22:54 07/29/97  FILE=ISI$MINI.:E05TSI        DUMPSUB - SUBROUTINE TO DUMP A BUFFER ON LP OR OC          80   BMAP - B00
   003610    040040040040
   003611    040040040040
   003612    040040040040
   003613    040040040040
   003614    040040040040             1916         UASCI   13,
   003615    040040040040
   003616    040040040040
   003617    040040040040
   003620    040040040040
   003621    040040040040
   003622    040040040040
   003623    040040040040
   003624    040040040040
   003625    040040040040
   003626    040040040040
   003627    040040040040
   003630    040040040040
   003631    040040040040             1917         UASCI   4,
   003632    040040040040
   003633    040040040040
   003634    040040040040
                                      1918  *
   003635 (0)003702 0003 40           1919  ENVTAL TALLYB  PRT3+14,3       E REGISTER
   003636 (0)003676 0011 41           1920         TALLYB  PRT3+10,9,1     TR
   003637 (0)003665 0014 40           1921         TALLYB  PRT3+1,12       A
   003640 (0)003671 0014 42           1922         TALLYB  PRT3+5,12,2     Q
   003641 (0)003704 0006 40           1923         TALLYB  PRT4+1,6        X0
   003642 (0)003706 0006 40           1924         TALLYB  PRT4+3,6        X1
   003643 (0)003710 0006 40           1925         TALLYB  PRT4+5,6        X2
   003644 (0)003712 0006 40           1926         TALLYB  PRT4+7,6        X3
   003645 (0)003714 0006 40           1927         TALLYB  PRT4+9,6        X4
   003646 (0)003716 0006 40           1928         TALLYB  PRT4+11,6       X5
   003647 (0)003720 0006 40           1929         TALLYB  PRT4+13,6       X6
   003650 (0)003722 0006 40           1930         TALLYB  PRT4+15,6       X7
   003651 (0)003657 0006 40           1931         TALLYB  PRT2+1,6        I
   003652 (0)003662 0006 41           1932         TALLYB  PRT2+4,6,1      ID
   003653 (0)003656 0030 40           1933  ENVT1  TALLYB  PRT2,24
 22:54 07/29/97  FILE=ISI$MINI.:E05TSI        DUMPSUB - SUBROUTINE TO DUMP A BUFFER ON LP OR OC          81   BMAP - B00
   003654 (0)003664 0074 40           1934  ENVT2  TALLYB  PRT3,60
   003655 (0)003703 0104 40           1935  ENVT3  TALLYB  PRT4,68
   003656    040111040040             1936  PRT2   UASCI   6, I  XXXXXX   ID  XXXXXX
   003657    130130130130
   003660    130130040040
   003661    040111104040
   003662    040130130130
   003663    130130130040
   003664    040101040040             1937  PRT3   UASCI   13, A  XXXXXXXXXXXX   Q  XXXXXXXXXXXX   TR  XXXXXXXXX
   003665    130130130130
   003666    130130130130
   003667    130130130130
   003670    040040040121
   003671    040040130130
   003672    130130130130
   003673    130130130130
   003674    130130040040
   003675    040124122040
   003676    040130130130
   003677    130130130130
   003700    130130040040
   003701    040105040040             1938         UASCI   2, E  XXX
   003702    130130130040
   003703    130060040040             1939  PRT4   UASCI   13,X0
   003704    040040040040
   003705    040040040040
   003706    040040040040
   003707    040040040040
   003710    040040040040
   003711    040040040040
   003712    040040040040
   003713    040040040040
   003714    040040040040
   003715    040040040040
   003716    040040040040
   003717    040040040040
   003720    040040040040             1940         UASCI   4,
 22:54 07/29/97  FILE=ISI$MINI.:E05TSI        DUMPSUB - SUBROUTINE TO DUMP A BUFFER ON LP OR OC          82   BMAP - B00
   003721    040040040040
   003722    040040040040
   003723    040040040040

 22:54 07/29/97  FILE=ISI$MINI.:E05TSI        MINI-DELTA - OU -> SET OUTPUT DEVICE TO LP OR ME           83   BMAP - B00
                                      1941         TTLS    MINI-DELTA - OU -> SET OUTPUT DEVICE TO LP OR ME
          (0)000000003724             1942  OUTPUT EQU     *
   003724 (0)004046 7070 00           1943         TSX7    GETF            GET OUPUT NAME
   003725 (0)000017 7100 00           1944         TRA     ERROR           ERROR-NO FIELD
   003726 (0)003730 7100 00           1945         TRA     *+2             ALPHA
   003727 (0)000017 7100 00           1946         TRA     ERROR           ERROR-NUMERIC
   003730 (0)004450 7070 00           1947         TSX7    FINSYB          GET NAME IN (AQ) RIGHT JUSTIFIED
   003731 (0)003732 7100 00           1948         TRA     *+1
   003732 (1)000006 1160 00           1949         CMPQ    =4U  LP         'LP' NAMED
   003733 (0)003741 6010 00           1950         TNZ     OUTP1           NO
   003734 (0)004011 4500 00           1951         STZ     OUTDEV          YES-SET UP OUTDEV
   003735 (0)004014 2360 00           1952         LDQ     LP              INDX OF LP
   003736    000014 4020 07           1953         MPY     12,DL
   003737  X 000001 2140 06           1954         SZNC    DEVINFO+1,QL    CLEAR DEVINFO BITS (WHY NOT?)
   003740 (0)003744 7100 00           1955         TRA     OUTP2
   003741 (1)000007 1160 00           1956  OUTP1  CMPQ    =4U  ME         ME NAMED
   003742 (0)000017 6010 00           1957         TNZ     ERROR           ERROR-NOT A LEGAL NAME
   003743 (0)004011 0540 00           1958         AOS     OUTDEV          YES
   003744 (0)004522 7070 00           1959  OUTP2  TSX7    LEXP            GET SLEW VALUE
   003745 (0)000032 7100 00           1960         TRA     NEXTC           NON PRESENT
   003746 (0)000017 7100 00           1961         TRA     ERROR           ERROR-SYMBOLIC MODE
   003747 (0)004012 7560 00           1962         STQ     SLEW            SAVE SLEW VALUE
   003750 (0)000032 7100 00           1963         TRA     NEXTC           NEXT COMMAND

 22:54 07/29/97  FILE=ISI$MINI.:E05TSI        MINI-DELTA - R -> READ COMMANDS FROM ME OR CR OR TA        84   BMAP - B00
                                      1964         TTLS    MINI-DELTA - R -> READ COMMANDS FROM ME OR CR OR TA
          (0)000000003751             1965  READ   EQU     *
   003751    777777 2360 07           1966         LDQ     =O777777,DL
   003752 (1)000010 2110 00           1967         CMK     =2URA           RANGE COMMAND?
   003753 (0)004016 6000 00           1968         TZE     RANGE           YES
   003754 (0)004046 7070 00           1969         TSX7    GETF            GET READ NAME
   003755 (0)000017 7100 00           1970         TRA     ERROR           ERROR-NO NAME PRESENT
   003756 (0)003760 7100 00           1971         TRA     *+2             ALPHA OK
   003757 (0)000017 7100 00           1972         TRA     ERROR           ERROR-NUMERIC
   003760 (0)004450 7070 00           1973         TSX7    FINSYB          GET NAME IN (AQ)
   003761 (0)003762 7100 00           1974         TRA     *+1
   003762 (1)000011 1160 00           1975         CMPQ    =4U  CR         'CR' NAMED
   003763 (0)003770 6010 00           1976         TNZ     READ1           NO
   003764 (0)004010 7560 00           1977         STQ     INDEV           YES SET INDEV TO CR -> INDEV>0
   003765  X 000000 4500 00           1978         STZ     PDEV            RESET READ PATCH DEVICE FLAG
   003766                             1979  READ1A NULL
   003766 (0)004011 4500 00           1980         STZ     OUTDEV          DEFAULT OUTPUT TO LP
   003767 (0)000032 7100 00           1981         TRA     NEXTC           NEXT COMMAND
                                      1982  *
   003770 (1)000007 1160 00           1983  READ1  CMPQ    =4U  ME         'ME' NAMED
   003771 (0)003775 6010 00           1984         TNZ     READ2           NO
   003772 (0)004010 4500 00           1985         STZ     INDEV           SET INDEV=0 -> ME
   003773  X 000000 4500 00           1986         STZ     PDEV            RESET READ PATCH DEVICE FLAG
   003774 (0)000014 7100 00           1987         TRA     DHERE           'DELTA HERE'
                                      1988  *
   003775                             1989  READ2  NULL
   003775  X 000000 2270 00           1990         LDX7    PO_INDX         HAS PO TAPE BEEN BOOTED?
   003776 (0)000017 6000 00           1991         TZE     ERROR           NO -> READ TA IS INVALID
   003777 (1)000012 1160 00           1992         CMPQ    =4U  PA         'PA' NAMED???
   004000 (0)004006 6000 00           1993         TZE     READ2A          YES
   004001 (1)000013 1160 00           1994         CMPQ    =4U  TA         'TA' NAMED?
   004002 (0)000017 6010 00           1995         TNZ     ERROR           NO -> ILLEGAL DEVICE
   004003    777777 6360 00           1996         EAQ     -1
   004004 (0)004010 7560 00           1997         STQ     INDEV           SET INDEV<0 -> READ TAPE
   004005 (0)003766 7100 00           1998         TRA     READ1A
                                      1999  *
   004006                             2000  READ2A NULL
 22:54 07/29/97  FILE=ISI$MINI.:E05TSI        MINI-DELTA - R -> READ COMMANDS FROM ME OR CR OR TA        85   BMAP - B00
   004006  X 000000 0540 00           2001         AOS     PDEV            SET READ PATCH DEVICE FLAG
   004007 (0)003766 7100 00           2002         TRA     READ1A
                                      2003  *
   004010    000000 000000            2004  INDEV  ZERO    0,0             - -> TA; 0 -> ME; + -> CR
   004011    000000000000             2005  OUTDEV OCT     0               NZ=ME;Z=LP
   004012    000000 000000            2006  SLEW   ZERO                    SLEW VALUE FOR PRINTER
   004013    000000000000             2007  ME     OCT     0               DCT OF ME
   004014    000000000001             2008  LP     OCT     1               DCT OF LP
   004015    000000000002             2009  CR     OCT     2               DCT OF CR
                                      2010  *

 22:54 07/29/97  FILE=ISI$MINI.:E05TSI        MINI-DELTA - RA -> DEFINE RANGE OF SYMBOLS                 86   BMAP - B00
                                      2011         TTLS    MINI-DELTA - RA -> DEFINE RANGE OF SYMBOLS
                                      2012  *
   004016                             2013  RANGE  NULL
   004016 (0)004522 7070 00           2014         TSX7    LEXP            EVALUATE RANGE EXPRESSION
   004017 (0)000017 7100 00           2015         TRA     ERROR           NONE -> ERROR
   004020 (0)000017 7100 00           2016         TRA     ERROR           SYMBOLIC -> ERROR
   004021 (0)004023 7560 00           2017         STQ     MAXOFF          NUMERIC -> VALUE IN QU
   004022 (0)000032 7100 00           2018         TRA     NEXTC
                                      2019  *
   004023    007777 0000 00           2020  MAXOFF ARG     4095            MAX OFFSET FOR LOCOFF
                                      2021  *

 22:54 07/29/97  FILE=ISI$MINI.:E05TSI        MINI-DELTA - O -> MODIFY CURRENTLY OPEN CELL               87   BMAP - B00
                                      2022         TTLS    MINI-DELTA - O -> MODIFY CURRENTLY OPEN CELL
          (0)000000004024             2023  OLD    EQU     *
   004024    777777 2360 07           2024         LDQ     =O777777,DL
   004025    117125 2110 03           2025         CMK     =2UOU,DU        DUMP COMMAND
   004026 (0)003724 6000 00           2026         TZE     OUTPUT          YES
   004027 (0)000605 7100 00           2027         TRA     XOLD            NO-OLD COMMAND

 22:54 07/29/97  FILE=ISI$MINI.:E05TSI        MINI-DELTA - CONVERT INPUT LINE TO ALL UASCI               88   BMAP - B00
                                      2028         TTLS    MINI-DELTA - CONVERT INPUT LINE TO ALL UASCI
                                      2029  *      FORCE TO UPPER CASE
                                      2030  *
                                      2031  *      TSX7    UPPERC
   004030 (0)004044 2370 00           2032  UPPERC LDAQ    ALPHAR          RANGE OF ALPHA CHARS
   004031 (0)000757 1110 50           2033         CWL     COMAND,CI       ALPHA CHAR
   004032 (0)004036 6010 00           2034         TNZ     KRD16           NO
   004033 (0)000757 2350 50           2035         LDA     COMAND,CI       LOAD CHAR
   004034    000137 3750 07           2036         ANA     =O137,DL        FORCE UPPER CASE
   004035 (0)000757 7550 50           2037         STA     COMAND,CI
   004036 (0)000757 2350 52           2038  KRD16  LDA     COMAND,SC       ADVANCE TO NEXT CHAR
   004037 (0)004030 6070 00           2039         TTF     UPPERC          SCAN ENTIRE LINE
   004040 (0)000756 2350 00           2040         LDA     COMAND-1
   004041 (0)000757 7550 00           2041         STA     COMAND          TALLY WORD FOR COMMAND BUFFER
   004042    000000 7100 17           2042         TRA     0,X7            RETURN
                                      2043  *
   004043    000000 0110 00           2044         EVEN
   004044
   004044    000000000141             2045  ALPHAR OCT     141,172         RANGE OF LOWER CASE ASCII
   004045    000000000172

 22:54 07/29/97  FILE=ISI$MINI.:E05TSI        MINI-DELTA - GETF -> GET A FIELD FROM THE INPUT BUFFER     89   BMAP - B00
                                      2046         TTLS    MINI-DELTA - GETF -> GET A FIELD FROM THE INPUT BUFFER
                                      2047  *      GET A FIELD FROM THE INPUT BUFFER
                                      2048  *
                                      2049  *IN:   COMAND TALLY WORD SET UP FOR INPUT BUFFER
                                      2050  *
                                      2051  *OUT:  (A) TALLY WORD POINTING TO FIELD
                                      2052  *      (Q) TERMINATEING CHAR
                                      2053  *      (X6) CHAR COUNT IN FIELD
                                      2054  *      (INDICT) SET UP BY COMMAND FOR TALLY RUN OUT
                                      2055  *
                                      2056  *RETURN:
                                      2057  *      TSX7    GETF
                                      2058  *              +1              NO FIELD
                                      2059  *              +2              ALPHA FIELD
                                      2060  *              +3              NUMERIC FIELD
                                      2061  *
          (0)000000004046             2062  GETF   EQU     *
   004046 (0)001004 6340 00           2063         LDI     INDICT          COMMAND RUN OUT INDICATOR
   004047    000000 6064 17           2064         TTN     0,X7            AT END OF COMMAND RETURN NO FIELD
   004050 (0)000757 2360 00           2065         LDQ     COMAND          COMMAND TALLY
   004051 (1)000000 3760 00           2066         ANQ     =O777777000077  REMOVE COUNT
   004052 (0)004122 7560 00           2067         STQ     OTALLY          SET UP OUTPUT TALLY
   004053 (0)000757 2350 50           2068         LDA     COMAND,CI       GET A CHAR
   004054    000040 1150 07           2069         CMPA    =O40,DL         FIRST NON BLANK
   004055 (0)004070 6010 00           2070         TNZ     GETF3           YES
   004056 (0)000757 2340 52           2071         SZN     COMAND,SC       ADVANCE TO NEXT CHAR
   004057 (0)001004 7540 00           2072         STI     INDICT          SAVE RUN OUT INDICATOR
   004060 (0)004046 6070 00           2073         TTF     GETF            BURN LEADING BLANKS
   004061    000000 7100 17           2074         TRA     0,X7            RETURN NO FIELD
                                      2075  *
   004062 (0)004126 2360 00           2076  GETF2  LDQ     TERM-1
   004063 (0)004127 7560 00           2077         STQ     TERM            SET TALLY WORD FOR TERMINATORS
   004064 (0)004127 2360 52           2078  GETF6  LDQ     TERM,SC         TERMINATER
   004065 (0)000757 1160 50           2079         CMPQ    COMAND,CI       TERMINATER
   004066 (0)004110 6000 00           2080         TZE     GETF4           YES
   004067 (0)004064 6070 00           2081         TTF     GETF6           RUN THROUGH TERMINATERS
   004070 (0)004124 2370 00           2082  GETF3  LDAQ    NRANGE          RANGE OF OCT NUMERIC
 22:54 07/29/97  FILE=ISI$MINI.:E05TSI        MINI-DELTA - GETF -> GET A FIELD FROM THE INPUT BUFFER     90   BMAP - B00
   004071 (0)000757 1110 50           2083         CWL     COMAND,CI       OCTAL NUMERIC CHAR
   004072 (0)004101 6000 00           2084         TZE     GETF1           YES-START NUMERIC MUST STAY NUMERIC
   004073 (0)001016 2340 00           2085         SZN     ALPHAF          NO-CHANGE FROM NUMERIC TO ALPHA
   004074 (0)004102 6010 00           2086         TNZ     GETF5           NO-OK STILL ALPHA
   004075 (0)001017 2340 00           2087         SZN     NUMERF          NUMERIC MODE
   004076 (0)004111 6010 00           2088         TNZ     GETF7           YES-END OF FIELD
   004077 (0)001016 0540 00           2089         AOS     ALPHAF          SET FIRST TIME THROUGH FOR ALPHA
   004100 (0)004102 7100 00           2090         TRA     *+2             TEST FOR END OF COMMAND
   004101 (0)001017 0540 00           2091  GETF1  AOS     NUMERF          SET NUMERIC FIELD
   004102    000100 2360 07           2092  GETF5  LDQ     =O100,DL
   004103 (0)004122 0560 00           2093         ASQ     OTALLY          COUNT THIS CHAR IN OUTPUT TALLY
   004104 (0)000757 2340 52           2094         SZN     COMAND,SC       ADVANCE TO NEXT CHAR
   004105 (0)001004 7540 00           2095         STI     INDICT          SAVE RUN OUT INDICATOR
   004106 (0)004062 6070 00           2096         TTF     GETF2           KEEP SCANNING
   004107    000040 2360 07           2097         LDQ     =O40,DL         BLANK TERMINATER
   004110 (0)000757 2340 52           2098  GETF4  SZN     COMAND,SC       MOVE TALLY WORD AFTER THE TERMINATER
   004111 (0)004122 2350 00           2099  GETF7  LDA     OTALLY          TALLY OF FIELD
   004112    000006 7310 00           2100         ARS     6
   004113    007777 3750 07           2101         ANA     =O7777,DL       CHAR COUNT IN FIELD
   004114    000000 6260 05           2102         EAX6    0,AL            CHAR COUNT INTO X6
   004115 (0)004122 2350 00           2103         LDA     OTALLY          TALLY WORD POINTING TO FIELD
   004116 (0)001017 4500 00           2104         STZ     NUMERF          CLEAR NUMERIC FIELD FLAG
   004117 (0)001016 2140 00           2105         SZNC    ALPHAF          ALPHA FIELD
   004120    000001 6010 17           2106         TNZ     1,X7            YES-RETURN 1,X7
   004121    000002 6000 17           2107         TZE     2,X7            NO-RETURN 2,X7
                                      2108  *
   004122    000000 000000            2109  OTALLY ZERO                    TALLY WORD FOR OUTPUT
   004123    000000 0110 00           2110         EVEN
   004124
   004124    000000000060             2111  NRANGE OCT     060,067         OCT RANGE
   004125    000000000067
   004126 (0)004130 0006 40           2112         TALLYB  TERM+1,6
   004127    000000 000000            2113  TERM   ZERO
   004130    040075053055             2114         UASCI   2, =+-<>        LIST OF TERMINATERS
   004131    074076040040

 22:54 07/29/97  FILE=ISI$MINI.:E05TSI        MINI-DELTA - CHRBIN -> CONVERT ASCII CHARACTERS TO BINARY  91   BMAP - B00
                                      2115         TTLS    MINI-DELTA - CHRBIN -> CONVERT ASCII CHARACTERS TO BINARY
                                      2116  *CONVERT CHARS TO BINARY
                                      2117  *
                                      2118  *IN:   (A) TALLY WORD POINTING TO CHAR FIELD
                                      2119  *
                                      2120  *OUT:  BINARY NUMBER IN (Q)
                                      2121  *
                                      2122  *      TSX7    CHRBIN
                                      2123  *
   004132 (0)004142 7550 00           2124  CHRBIN STA     TALLY           SET UP INPUT TALLY WORD
   004133    000000 6350 00           2125         EAA     0
   004134 (0)004142 2360 52           2126  BIN1   LDQ     TALLY,SC        GET A CHAR
   004135    000041 7360 00           2127         QLS     33
   004136    000003 7370 00           2128         LLS     3               SHIFT NUMERIC PART
   004137 (0)004134 6070 00           2129         TTF     BIN1
   004140    000044 7730 00           2130         LRL     36              PUT BINARY IN (Q)
   004141    000000 7100 17           2131         TRA     0,X7            RETURN
   004142    000000 000000            2132  TALLY  ZERO                    SAVE INPUT TALLY WORD FOR CHRBIN

 22:54 07/29/97  FILE=ISI$MINI.:E05TSI        MINI-DELTA - BINCHR -> CONVERT BINARY TO ASCII CHARACTERS  92   BMAP - B00
                                      2133         TTLS    MINI-DELTA - BINCHR -> CONVERT BINARY TO ASCII CHARACTERS
                                      2134  *CONVERT BINARY TO CHARS
                                      2135  *
                                      2136  *IN:   (A) TALLY WORD POINTING TO BUFFER FOR OUTPUT STRING
                                      2137  *      (Q) BINARY NUMBER
                                      2138  *
                                      2139  *      TSX7    BINCHR
                                      2140  *
   004143 (0)004152 7550 00           2141  BINCHR STA     XTALLY          SET UP OUPUT TALLY WORD
   004144    000000 6350 00           2142  CHR1   EAA     0
   004145    000003 7370 00           2143         LLS     3               OCTAL DIGIT
   004146    000060 2750 07           2144         ORA     =O060,DL        MAKE ASCII CHAR
   004147 (0)004152 7550 52           2145         STA     XTALLY,SC       STORE CHAR
   004150 (0)004144 6070 00           2146         TTF     CHR1
   004151    000000 7100 17           2147         TRA     0,X7            RETURN
   004152    000000 000000            2148  XTALLY ZERO                    SAVE TALLY WORD FOR OUPUT FROM BINCHR

 22:54 07/29/97  FILE=ISI$MINI.:E05TSI        MINI-DELTA -                                               93   BMAP - B00
                                      2149         TTLS    MINI-DELTA -
                                      2150  * BLANK BUFFER, UPDATE TALLY WORD FOR VALUE.
                                      2151  * LOAD VALUE INTO (Q)
                                      2152  *IN:   (A) TALLY WORD POINTING TO MESSAGE
                                      2153  *      (QU) SYMBOLIC INDEX
                                      2154  *
                                      2155  *OUT:  (A) UPDATED TALLY WORD
                                      2156  *      (Q) NUMERIC VALUE OF (SYMBOL)
                                      2157  *
                                      2158  *      TSX7    SYMLOC
                                      2159  *OR
                                      2160  *      TSX7    SYMLC1          VALUE ALREADY IN (Q)
                                      2161  *
          (0)000000004153             2162  SYMLC1 EQU     *
   004153    000000 6220 06           2163         EAX2    0,QL            PUT VALUE INTO X2 IN CASE HALF WORD VALUE
   004154 (0)004156 7100 00           2164         TRA     *+2
          (0)000000004155             2165  SYMLOC EQU     *
   004155    000102 1160 03           2166         CMPQ    ENVIR-SFETCH,DU IS SYMBOLIC LOCATION PART OF SS FRAME?
   004156 (0)004161 6044 00           2167         TMOZ    *+3             NO -> MUST USE DR.USE TO ACCESS
   004157 (0)007513 7160 02           2168         XEC     SFETCH-1,QU     YES -> USE FETCH TABLE DIRECTLY
   004160 (0)004167 7100 00           2169         TRA     SYMLC2          AND SKIP
   004161 (0)007513 2250 02           2170         LDX5    SFETCH-1,QU     ADDRESS OF SYMBOL -> X5
   004162  X 000000 0554 00           2171         STD     DR.USE,TEMPD    NEED TO CHECK
   004163  X 000000 1050 00           2172         CMPX5   TEMPD           FOR OUT OF BOUNDS
   004164 (0)004166 6000 00           2173         TZE     *+2             ON THE LINE -> IN BOUNDS
   004165 (0)000017 6030 00           2174         TRC     ERROR           OVER THE LINE -> TELL 'EM
   004166    5 00000 2361 15          2175         LDQ     0,X5,DR.USE     CONTENTS OF SYMOLIC LOCATION -> Q
   004167                             2176  SYMLC2 NULL
   004167 (0)001005 2210 00           2177         LDX1    OPENLC          SYMBOL INDEX
   004170 (0)004210 7570 00           2178         STAQ    SREG            SAVE REGISTERS
   004171 (0)007243 2370 11           2179         LDAQ    SYMTBL-1,X1     TEXT OF SYMBOLIC LOCATION
   004172 (0)000724 7570 00           2180         STAQ    MMESS           PUT SYMBOLIC LOC IN PRINT MESS
   004173 (0)004210 2370 00           2181         LDAQ    SREG            RESTORE REGISTERS
   004174    000225 1010 03           2182         CMPX1   HRANGE,DU       HALF WORD ENTRY
   004175    000000 6020 17           2183         TNC     0,X7            NO-RETURN
                                      2184  *
   004176 (1)000000 3750 00           2185         ANA     =O777777000077  REMOVE COUNT
 22:54 07/29/97  FILE=ISI$MINI.:E05TSI        MINI-DELTA -                                               94   BMAP - B00
   004177    000600 2750 07           2186         ORA     =O600,DL        SIX LEADING BLANKS
   004200 (0)001014 7550 00           2187         STA     TEMP
   004201    000040 2350 07           2188         LDA     =O40,DL         BLANK
   004202 (0)001014 7550 52           2189         STA     TEMP,SC
   004203 (0)004202 6070 00           2190         TTF     *-1             BLANK THE FIELD
                                      2191  *
   004204 (0)001014 2350 00           2192         LDA     TEMP
   004205    000600 2750 07           2193         ORA     =O600,DL        SIX CHARS IN HALF WORD
   004206    000000 6360 12           2194         EAQ     0,X2            VALUE IN (QU)
   004207    000000 7100 17           2195         TRA     0,X7
                                      2196  *
                                      2197         EVEN
   004210    000000000000             2198  SREG   DEC     0,0             TEMP AREA FOR REGISTERS
   004211    000000000000
   004212    000000000000             2199  SSR    DEC     0,0             TEMP FOR SS REG
   004213    000000000000
                                      2200         EVEN
   004214    000000000000             2201  WSR0   DEC     0                        WSR0-3
   004215    000000000000             2202  WSR4   DEC     0                        WSR4-7
   004216    000000000000             2203  PDBR   DEC     0                        PDBR

 22:54 07/29/97  FILE=ISI$MINI.:E05TSI        MINI-DELTA -                                               95   BMAP - B00
                                      2204         TTLS    MINI-DELTA -
                                      2205  * STORE VALUE INTO SYMBOLIC LOCATION
                                      2206  *
                                      2207  *IN: (Q) VALUE TO STORE
                                      2208  *
                                      2209  *      TSX7    SYMSTR
                                      2210  *              +1              RETURN HERE
                                      2211  *
          (0)000000004217             2212  SYMSTR EQU     *
   004217    000000 6220 06           2213         EAX2    0,QL            IN CASE HALF WORD ENTRY
   004220 (0)001005 2210 00           2214         LDX1    OPENLC          SYMBOLIC LOCATION INDEX
   004221    000225 1010 03           2215         CMPX1   HRANGE,DU       HALF WORD RANGE
   004222 (0)004225 6020 00           2216         TNC     *+3             NO
   004223    000007 1060 03           2217         CMPX6   7,DU
   004224 (0)000017 6030 00           2218         TRC     ERROR           ERROR-TOO MANY CHARS
   004225    000101 1010 03           2219         CMPX1   ENVIR-SSTORE,DU IS SYMBOLIC LOCATION PART OF SS FRAME?
   004226 (0)004231 6044 00           2220         TMOZ    *+3             NO -> MUST USE DR.USE TO ACCESS
   004227 (0)007514 7160 11           2221         XEC     SSTORE-1,X1     YES -> USE STORE TABLE DIRECTLY
   004230    000000 7100 17           2222         TRA     0,X7            AND RETURN
   004231 (0)007514 2250 11           2223         LDX5    SSTORE-1,X1           ADDRESS OF SYMBOL -> X5
   004232  X 000000 0554 00           2224         STD     DR.USE,TEMPD    NEED TO CHECK
   004233  X 000000 1050 00           2225         CMPX5   TEMPD           FOR OUT OF BOUNDS
   004234 (0)004236 6000 00           2226         TZE     *+2             ON THE LINE -> IN BOUNDS
   004235 (0)000017 6030 00           2227         TRC     ERROR           OVER THE LINE -> TELL 'EM
   004236 (0)004413 7060 00           2228         TSX6    STORE           MAKE SURE WE CAN WRITE
   004237    5 00000 7561 15          2229         STQ     0,X5,DR.USE     STORE NEW VALUE
   004240    000000 7100 17           2230         TRA     0,X7            RETURN

 22:54 07/29/97  FILE=ISI$MINI.:E05TSI        MINI-DELTA -                                               96   BMAP - B00
                                      2231         TTLS    MINI-DELTA -
                                      2232  * SYMBOLIC INDEX RANGE CHECK MUST BE A-I
                                      2233  *
                                      2234  *IN: (A) SYMBOLIC INDEX
                                      2235  *
                                      2236  *      TSX7    RCHECK
                                      2237  *
          (0)000000004241             2238  RCHECK EQU     *
   004241 (0)004251 7550 00           2239         STA     SINDEX          SAVE SYMBOLIC INDEX
   004242 (0)004254 2370 00           2240         LDAQ    SRANGE          ISR -> X7 RANGE
   004243 (0)004251 1110 00           2241         CWL     SINDEX
   004244 (0)004252 7540 00           2242         STI     RIND            SAVE INDICATORS
   004245 (0)004251 2350 00           2243         LDA     SINDEX          RESTORE (A)
   004246 (0)004252 6340 00           2244         LDI     RIND            RESTORE INDICATORES FROM COMPARE
   004247    000000 6000 17           2245         TZE     0,X7            O. K.
   004250 (0)000017 7100 00           2246         TRA     ERROR           ERROR-SYMBOLIC INDEX OF A-X7
                                      2247  *
   004251    000000 000000            2248  SINDEX ZERO                    SYMBOLIC INDEX
   004252    000000 000000            2249  RIND   ZERO                    INDICATORS
   004253    000000 0110 00           2250         EVEN
   004254
   004254    000107 000000            2251  SRANGE ZERO    DRANGE,0
   004255    000245 000000            2252         ZERO    IRANGE,0

 22:54 07/29/97  FILE=ISI$MINI.:E05TSI        MINI-DELTA -                                               97   BMAP - B00
                                      2253         TTLS    MINI-DELTA -
                                      2254  * PRINT THE BREAK POINT MESSAGE
                                      2255  *
                                      2256  * IN:  (Q) BREAK POINT LOCATION
                                      2257  *      (X1) BREAK POINT NUMBER
                                      2258  *
                                      2259  *      TSX7    PRTBRK
                                      2260  *
          (0)000000004256             2261  PRTBK1 EQU     *               PRINT EMPTY MESSAGE
   004256 (0)004310 7470 00           2262         STX7    BRKRTN          SAVE RETURN
   004257 (0)004330 2370 00           2263         LDAQ    TEMPTY
   004260 (0)004320 7570 00           2264         STAQ    BMESS+2         'EMPTY'
   004261 (0)004520 2370 00           2265         LDAQ    BLANKS
   004262 (0)004322 7570 00           2266         STAQ    BMESS+4
   004263 (0)004324 7550 00           2267         STA     BMESS+6         BLANK THE MESSAGE BUFFER
   004264 (0)004270 7100 00           2268         TRA     PRT1
                                      2269  *
          (0)000000004265             2270  PRTBRK EQU     *
   004265 (0)004310 7470 00           2271         STX7    BRKRTN          SAVE RETURN
   004266 (0)004311 2350 00           2272         LDA     TALLY8
   004267 (0)004643 7070 00           2273         TSX7    LOCOFF          GET LOCATION PLUS OFFSET
   004270    000000 6360 11           2274  PRT1   EAQ     0,X1            BREAK NUMBER IN Q
   004271    000017 7360 00           2275         QLS     15
   004272 (0)004314 2350 00           2276         LDA     TALY12
   004273 (0)004143 7070 00           2277         TSX7    BINCHR          PUT BREAK NUMBER IN MESSSAGE
   004274 (0)001200 2350 11           2278         LDA     SEGTBL-1,X1     BREAK'S SEGMENT NO. -> AU
   004275 (0)004302 6000 00           2279         TZE     PRT1A           0 -> BISON'S SEGMENT
   004276 (0)000327 2350 01           2280         LDA     VNMS-1,AU       PUT SEGMENT NAME(RIGHT HALF)
   004277 (0)004326 7550 00           2281         STA     BMESS+8         INTO EXTENDED MESSAGE
   004300 (0)004313 2350 00           2282         LDA     TALLY9+1        PRINT USING EXTENDED TALLY
   004301 (0)004303 7100 00           2283         TRA     PRT1A+1
   004302                             2284  PRT1A  NULL                    AND PRINT IT
   004302 (0)004312 2350 00           2285         LDA     TALLY9
   004303 (0)005105 7070 00           2286         TSX7    TYPE            PRINT BREAK MESSAGE
   004304    100040 2350 03           2287         LDA     =2U@ ,DU
   004305 (0)004320 5510 40           2288         STBA    BMESS+2,40      PUT '@' BACK INTO MESSAGE
   004306 (0)004310 2270 00           2289         LDX7    BRKRTN          RESTORE RETURN
 22:54 07/29/97  FILE=ISI$MINI.:E05TSI        MINI-DELTA -                                               98   BMAP - B00
   004307    000000 7100 17           2290         TRA     0,X7            RETURN
                                      2291  *
   004310    000000 000000            2292  BRKRTN ZERO                    RETURN ADDRESS
   004311 (0)004320 0017 42           2293  TALLY8 TALLYB  BMESS+2,15,2    INSERT BREAK ADDRESS
   004312 (0)004316 0034 40           2294  TALLY9 TALLYB  BMESS,28        PRINT BREAK MESSAGE
   004313 (0)004316 0044 40           2295         TALLYB  BMESS,36        PRINT EXTENDED BREAK MESSAGE
   004314 (0)004317 0001 41           2296  TALY12 TALLYB  BMESS+1,1,1     INSERT BREAK NUMBER
   004315    000000 0110 00           2297         EVEN
   004316
   004316    076102122113             2298  BMESS  UASCI   7,>BRK X  @ XXXXXX
   004317    040130040040
   004320    100040130130
   004321    130130130130
   004322    040040040040
   004323    040040040040
   004324    040040040040
   004325    040111116040             2299         UASCI   2, IN  XXXX
   004326    040130130130
   004327    000000 0110 00           2300         EVEN
   004330
   004330    040040040105             2301  TEMPTY UASCI   2,   EMPTY
   004331    115120124131

 22:54 07/29/97  FILE=ISI$MINI.:E05TSI        MINI-DELTA -                                               99   BMAP - B00
                                      2302         TTLS    MINI-DELTA -
                                      2303  * PUT DRL AT BREAK LOCATIONS, SAVE CONTENTS OF LOCATION
                                      2304  *
                                      2305  *      TSX7    BRKFLP
                                      2306  *
                                      2307         INHIB   ON              ******* INHIBIT ********
          (0)000000004332             2308  BRKFLP EQU     *
   004332    777771 6212 00           2309         EAX1    -7              SEVEN BREAK LOCATIONS
   004333 (0)001163 2342 11           2310  BRKFL1 SZN     EMPTBL+7,X1     LIVE ENTRY
   004334 (0)004355 6002 00           2311         TZE     BRKFL2          NO
   004335 (0)001210 2352 11           2312         LDA     SEGTBL+7,X1     GET VECTOR NAME TABLE INDEX+1 -> AU
   004336 (0)004342 6002 00           2313         TZE     *+4             0 -> BISON'S SEGMENT
   004337    000001 7712 00           2314         ARL     1               CONVERT INDEX TO WORD INDEX
   004340  X 000000 4766 01           2315         LDP     DR.X,I$TYP0$,AU              PICK UP THE DESC
   004341 (0)004343 7102 00           2316         TRA     *+2             AND USE IT TO FLIP
   004342    001762 4766 07           2317         LDP     DR.X,ISR,DL     MAKE SURE WE'VE GOT BISON'S DESCR.
   004343 (0)001172 6252 31           2318         EAX5    ADDTBL+7,X1*    ADDRESS OF BREAK -> X5
   004344 (0)004412 7412 00           2319         STX1    BKFLPF          SAVE BREAK# IN BREAK FLAG
   004345    6 00000 2353 15          2320         LDA     0,X5,DR.X        CONTENTS AT BREAK
   004346    000200 2752 07           2321         ORA     =O200,DL        DON'T ALLOW TIMER RUNOUT
   004347 (0)001201 2362 11           2322         LDQ     SAVINT+7,X1     DRL WITH BREAK NUMBER
   004350  X 000000 0566 00           2323         STD     DR.X,DESCTEMP
   004351 (0)004413 7062 00           2324         TSX6    STORE           MAKE SURE WE CAN WRITE
   004352    6 00000 7563 15          2325         STQ     0,X5,DR.X        INTO CORE
   004353 (0)001201 7552 11           2326         STA     SAVINT+7,X1     SAVE CONTENTS AT BREAK
   004354 (0)004412 4502 00           2327         STZ     BKFLPF          RESET BREAK FLAG
   004355    000001 0612 03           2328  BRKFL2 ADX1    1,DU
   004356 (0)004333 6012 00           2329         TNZ     BRKFL1          GO THROUGH ALL BREAKS
   004357    001762 4766 07           2330         LDP     DR.X,ISR,DL     MAKE SURE WE'VE GOT BISON'S DESCR.
   004360    000000 7102 17           2331         TRA     0,X7            RETURN
                                      2332  *
                                      2333  *
             000000001400             2334  MSTRT  BOOL    1400            START OF SAVE AREA
             000000001777             2335  MEND   BOOL    1777            END OF SAVE AREA
             000000000400             2336  DIF    EQU     MEND-MSTRT+1    SIZE OF SAVE AREA
                                      2337  *
          (0)000000004361             2338  BKFLPE EQU     *               SAVE TRAP MASK AT ENTRY TO DELTA
 22:54 07/29/97  FILE=ISI$MINI.:E05TSI        MINI-DELTA -                                               100  BMAP - B00
   004361 (0)001152 2142 00           2339         SZNC    SNKDRL+1        IS SNEAKY DERAIL IN PLACE
   004362 (0)004332 6002 00           2340         TZE     BRKFLP          NO -> GO AHEAD AND FLIP BREAKS
                                      2341  *                              YES -> JUST FLIP-OFF SNEAKY DERAIL
   004363 (0)002704 0342 00           2342         LDAC    SNKVCT          (SEGMENT# *2) WAS SAVED HERE
   004364 (0)004370 6002 00           2343         TZE     *+4             0 -> BISON'S SEGMENT
   004365    000001 7712 00           2344         ARL     1               CONVERT INDEX TO WORD INDEX
   004366  X 000000 4766 01           2345         LDP     DR.X,I$TYP0$,AU              PICK UP THE DESC
   004367 (0)004371 7102 00           2346         TRA     *+2             AND USE IT
   004370    001762 4766 07           2347         LDP     DR.X,DISR,DL    USE BISON'S DESCRIPTOR
   004371 (0)002702 2252 00           2348         LDX5    GOADD           ADDRESS OF SNEAKY DERAIL -> X5
   004372    4 00004 7453 00          2349         STX5    ICADD,,DR.SSR   DITTO -> IC
   004373 (0)002703 2352 00           2350         LDA     XECINT          SAVED CONTENTS OF SNEAKY DERAIL LOC.
   004374  X 000000 0566 00           2351         STD     DR.X,DESCTEMP
   004375 (0)004413 7062 00           2352         TSX6    STORE           MAKE SURE WE CAN WRITE
   004376    6 00000 7553 15          2353         STA     0,X5,DR.X       PUT IT BACK
   004377 (0)002702 4502 00           2354         STZ     GOADD           CLEAR SNEAKY DERAIL ADDRESS
   004400 (0)002156 4502 00           2355         STZ     ATBRK           CLEAR AT BREAK
   004401    000000 7102 17           2356         TRA     0,X7            RETURN
                                      2357  *
          (0)000000004402             2358  BKFLPR EQU     *               RESTORE TRAP MASK
                                      2359  *
                                      2360         RIMR1                   RESTORE INT MASK REG
   004402  X 000000 2372 44                  LDAQ SPWI,SD         PULL FROM SPECIAL STACK
   004403  X 000000 2342 00                  SZN S1000_FLG       ARE WE ON AN S1000
   004404 (0)004410 6012 00                  TNZ *+4             YES
   004405  X 000000 2772 00                  ORAQ PMASK           MAKE SURE PORTS ARE ENABLED
   004406    000000 5532 00                  SMCM 0               ENABLE OR WHATEVER
   004407 (0)004411 7102 00                  TRA *+2             EXIT
   004410    000000 5532 00                  LIMR
   004411 (0)004332 7102 00           2361         TRA     BRKFLP
                                      2362  *
   004412    000000000000             2363  BKFLPF OCT     0               N.Z. -> BREAK FLIP IN PROGRESS
                                      2364  *

 22:54 07/29/97  FILE=ISI$MINI.:E05TSI        STORE - ALLOW AARDVARK TO WRITE IN USER PROCEDURE.         101  BMAP - B00
                                      2365         TTLS    STORE - ALLOW AARDVARK TO WRITE IN USER PROCEDURE.
                                      2366  *   THIS ROUTINE ALLOWS AARDVARK TO STORE IN USER'S PROCEDURE
                                      2367  *   BY TEMPORARILY SETTING THE WRITE ALLOWED FLAG IN HIS PAGE TABLE.
                                      2368  *
                                      2369  *   CALLING SEQUENCE
                                      2370  *      STD     XXX,DESCTEMP
                                      2371  *      TSX6    STORE
                                      2372  *      STA     0,X5,XXX
                                      2373  * OR   STQ     0,X5,XXX
                                      2374  *      RETURN
                                      2375  *   X3, X4, TEMP, DESCTEMP, AND DR.Y ARE DESTROYED
                                      2376  *
   004413                             2377  STORE  NULL
                                      2378         PSHAQ
                                             IFE AARDVARK,0,1
                                             SYMREF SPW3
   004413  X 000000 7572 53                  STAQ SPW3,AD
   004414  X 000000 2352 00           2379         LDA     DESCTEMP        GET WSR# * 16
   004415    000004 7712 00           2380         ARL     4               WSR# -> AL
   004416    000007 3752 07           2381         ANA     7,DL
   004417    000002 1152 07           2382         CMPA    WSRX,DL         IS IT WSRX?
   004420 (0)004423 6012 00           2383         TNZ     STORE1          NO -> MAKE SURE WRITE IS ALLOWED
                                      2384         PLLAQ
                                             IFE AARDVARK,0,1
                                             SYMREF SPW3
   004421  X 000000 2372 44                  LDAQ SPW3,SD
   004422    000000 7102 16           2385         TRA     0,X6            RETURN TO THE STA OR STQ
   004423                             2386  STORE1 NULL
   004423  X 000001 2362 00           2387         LDQ     DESCTEMP+1      BASE -> Q
   004424    000002 7722 00           2388         QRL     2               CONVERT TO WORDS    -> Q
   004425 (0)001014 7562 00           2389         STQ     TEMP            SAVE FOR LATER
   004426    001777 6242 00           2390         EAX4    1023            MAKE SURE DESC
   004427  X 000000 7442 00           2391         STX4    DESCTEMP        FRAMES 1 PAGE
   004430  X 000001 4502 00           2392         STZ     DESCTEMP+1      AND BASE = 0 -> DESC FRAMES PT
   004431  X 000000 4706 00           2393         LDP     DR.Y,I$TEMP$                FRAME THE P.T.
   004432    000020 2362 07           2394         LDQ     P.W,DL          PT WRITE PERMISSION BIT
   004433    000000 6352 15           2395         EAA     0,X5            ADDRESS TO STORE INTO -> AU
 22:54 07/29/97  FILE=ISI$MINI.:E05TSI        STORE - ALLOW AARDVARK TO WRITE IN USER PROCEDURE.         102  BMAP - B00
   004434    000022 7712 00           2396         ARL     18              -> A
   004435 (0)001014 0352 00           2397         ADLA    TEMP            + WA(BASE) = WSQ REL ADDR -> A
   004436    000012 7712 00           2398         ARL     10              CONVERT TO PAGE#
   004437    000000 6232 05           2399         EAX3    0,AL            -> X3
   004440    0 00000 7243 13          2400         LXL4    0,X3,DR.Y       OLD PT FLAGS -> X4
   004441    000040 3042 03           2401         CANX4   P.P,DU          SEE IF PAGE IS PRESENT
   004442 (0)000017 6002 00           2402         TZE     ERROR           NOT PRESENT -> CANNOT STORE
   004443    0 00000 2563 13          2403         ORSQ    0,X3,DR.Y       SET WRITE ALLOWED FLAG
                                      2404         PLLAQ
                                             IFE AARDVARK,0,1
                                             SYMREF SPW3
   004444  X 000000 2372 44                  LDAQ SPW3,SD
   004445    000000 7162 16           2405         XEC     0,X6            STA(OR STQ) 0,X5,XXX
   004446    0 00000 4443 13          2406         SXL4    0,X3,DR.Y       REPLACE OLD FLAGS IN PT
   004447    000001 7102 16           2407         TRA     1,X6            AND RETURN
                                      2408  *
                                      2409         INHIB   OFF             *******ENABLE ********

 22:54 07/29/97  FILE=ISI$MINI.:E05TSI        MINI-DELTA -                                               103  BMAP - B00
                                      2410         TTLS    MINI-DELTA -
                                      2411  * FIND A SLOT IN THE SYMBOL TABLE OR DETERMINE IF DUPLICATE
                                      2412  * DEFINITION IS BEING ATTEMPTED.
                                      2413  *
                                      2414  * IN:  (A) TALLY WORD POINTING TO SYMBOL NAME
                                      2415  *
                                      2416  * OUT: (AQ) NAME  RIGHT JUSTIFIED
                                      2417  *      (X1) SYMBOL INDEX
                                      2418  *
                                      2419  *      TSX7    FINSYB
                                      2420  *              +1              SYMBOL ALREADY IN TABLE
                                      2421  *              +2              SYMBOL NOT IN TABLE, SLOT AVIALABLE
                                      2422  *
          (0)000000004450             2423  FINSYB EQU     *
   004450    000011 1060 03           2424         CMPX6   9,DU
   004451 (0)000017 6030 00           2425         TRC     ERROR           ERROR-TOO MANY CHARS IN SYMBOL
   004452 (0)001014 7550 00           2426         STA     TEMP            TALLY WORD POINTING TO SYMBOL NAME
   004453 (0)004512 2350 00           2427         LDA     SYMTAL-1
   004454 (0)004513 7550 00           2428         STA     SYMTAL          SET UP TALLY WORD FOR NAME BUFFER
   004455 (0)004520 2370 00           2429         LDAQ    BLANKS
   004456 (0)004514 7570 00           2430         STAQ    SYMBUF          BLANK THE NAME BUFFER
   004457 (0)004513 2340 52           2431  FINSY1 SZN     SYMTAL,SC       ADVANCE TO NEXT CHAR IN NAME BUF
   004460 (0)001014 2350 52           2432         LDA     TEMP,SC         CHAR FROM COMMAND
   004461 (0)004513 7550 50           2433         STA     SYMTAL,CI       BUILD NAME IN BUFFER
   004462 (0)004457 6070 00           2434         TTF     FINSY1
   004463 (0)004514 2370 00           2435         LDAQ    SYMBUF          SYMBOL NAME
                                      2436  *
   004464    040000 2220 03           2437         LDX2    =O040000,DU     A BLANK IN CHAR POSITION ZERO
   004465 (0)001014 4500 00           2438         STZ     TEMP            CLEAR TEMP
   004466    000010 6210 00           2439         EAX1    8               EIGHT CHARS
   004467    000011 7770 00           2440  FINSY3 LLR     9               ONE CHAR POSITION
   004470 (0)001014 7510 40           2441         STCA    TEMP,40         UPPER CHAR
   004471 (0)001014 1020 00           2442         CMPX2   TEMP            BLANK IN UPPER POSITION
   004472 (0)004475 6000 00           2443         TZE     FINSY4          YES-DONE
   004473    777777 6210 11           2444         EAX1    -1,X1
   004474 (0)004467 6010 00           2445         TNZ     FINSY3          RIGHT JUSTIFY   ALL THE CHARS
                                      2446  *
 22:54 07/29/97  FILE=ISI$MINI.:E05TSI        MINI-DELTA -                                               104  BMAP - B00
   004475 (0)004516 4500 00           2447  FINSY4 STZ     FINDEX          SET SYMBOL INDEX AT ZERO
   004476    000001 6210 00           2448         EAX1    1               START AT FIRST ENTRY
   004477 (0)007243 1170 11           2449  FINSY2 CMPAQ   SYMTBL-1,X1     SYMBOL HERE
   004500    000000 6000 17           2450         TZE     0,X7            YES-SYMBOL ALREADY IN TABLE
   004501 (0)007243 2340 11           2451         SZN     SYMTBL-1,X1     FREE ENTRY
   004502 (0)004504 6010 00           2452         TNZ     *+2             NO
   004503 (0)004516 7410 00           2453         STX1    FINDEX          YES-SAVE INDEX
   004504    000002 0610 03           2454         ADX1    2,DU            ADVANCE TO NEXT ENTRY
   004505    000250 1010 03           2455         CMPX1   NSYMLC,DU       END OF TABLE
   004506 (0)004477 6020 00           2456         TNC     FINSY2          NO-KEEP LOOKING
                                      2457  *
   004507 (0)004516 2210 00           2458         LDX1    FINDEX          INDEX OF A FREE ENTRY
   004510 (0)000017 6000 00           2459         TZE     ERROR           ERROR-THERE IS NO FREE ENTRY
   004511    000001 7100 17           2460         TRA     1,X7            RETURN
                                      2461  *
   004512 (0)004513 0010 43           2462         TALLYB  SYMBUF-1,8,3
   004513    000000 000000            2463  SYMTAL ZERO                    TALLY WORD POINTING TO NAME BUFFER
                                      2464         EVEN
   004514    000000 000000            2465  SYMBUF ZERO                    NAME BUFFER
   004515    000000 000000            2466         ZERO
   004516    000000 000000            2467  FINDEX ZERO                    SYMBOL TABLE INDEX
   004517 (0)004520 0010 40           2468  TBLNKS TALLYB  BLANKS,8        TALLY WORD POINTING TO BLANKS
                                      2469         EVEN
   004520    040040040040             2470  BLANKS UASCI   2,              BLANKS
   004521    040040040040

 22:54 07/29/97  FILE=ISI$MINI.:E05TSI        MINI-DELTA -                                               105  BMAP - B00
                                      2471         TTLS    MINI-DELTA -
                                      2472  * EVALUATE A SIMPLE LOCATION EXPRESSION
                                      2473  *
                                      2474  * OUT: (QU) LOCATION
                                      2475  *
                                      2476  *      TSX7    LEXP
                                      2477  *              +1              NO FIELD TO EVALUATE
                                      2478  *              +2              SYMBOLIC INDEX RETURN
                                      2479  *              +3              NORMAL RETURN
                                      2480  *
          (0)000000004522             2481  LEXP   EQU     *
   004522 (0)004636 7470 00           2482         STX7    LEXPRT          SAVE RETURN
   004523 (0)004637 7410 00           2483         STX1    LEX1                 (X1)
   004524 (0)004640 4500 00           2484         STZ     ACCUM           ZERO THE ACCUMULATOR
   004525    000053 2350 07           2485         LDA     =O053,DL        PLUS SIGN
   004526 (0)004641 7550 00           2486         STA     ACCTRM          ADD THE FIRST ITEM TO THE ACCUM
   004527 (0)004046 7070 00           2487         TSX7    GETF            GET THE FIRST ITEM
   004530 (0)004633 7100 00           2488         TRA     LEXP9           NOTHING-TAKE +1 RETURN
   004531 (0)004620 7100 00           2489         TRA     LEXP8           SYMBOL FOUND
   004532 (0)004536 7100 00           2490         TRA     LEXP10          NUMERIC ITEM
   004533 (0)004046 7070 00           2491  LEXP1  TSX7    GETF            GET NEXT ITEM
   004534 (0)000017 7100 00           2492         TRA     ERROR           ERROR-NOTHING
   004535 (0)004603 7100 00           2493         TRA     LEXP5           SYMBOL
   004536    000007 1060 03           2494  LEXP10 CMPX6   7,DU
   004537 (0)000017 6030 00           2495         TRC     ERROR           ERROR-TOO MANY CHARS FOR LOCATION
   004540 (0)004642 7560 00           2496         STQ     CURTRM          CURRENT TREMINATION CHAR
   004541 (0)004132 7070 00           2497         TSX7    CHRBIN          CONVERT TO BINARY
   004542    000022 7360 00           2498         QLS     18              SHIFT TO ADDRESS FIELD
   004543 (0)004126 2350 00           2499  LEXP2  LDA     TERM-1
   004544 (0)004127 7550 00           2500         STA     TERM            SET UP TERMINATER TALLY WORD
   004545 (0)004127 2350 52           2501  LEXP3  LDA     TERM,SC
   004546 (0)004641 1150 00           2502         CMPA    ACCTRM          FIND WHAT TO DO WITH THIS ITEM
   004547 (0)004552 6000 00           2503         TZE     LEXP4
   004550 (0)004545 6070 00           2504         TTF     LEXP3           GO THROUGH ALL TERMINATORS
   004551 (0)000017 7100 00           2505         TRA     ERROR           ERROR-NOT VALID TERMINATOR
   004552 (0)004127 2350 00           2506  LEXP4  LDA     TERM
   004553    000006 7310 00           2507         ARS     6
 22:54 07/29/97  FILE=ISI$MINI.:E05TSI        MINI-DELTA -                                               106  BMAP - B00
   004554    007777 3750 07           2508         ANA     =O7777,DL
   004555 (0)004556 7100 25           2509         TRA     ARITHM,AL*      GO TO CORRECT ARITHMETIC ROUTINE
                                      2510  *
   004556                             2511  ARITHM NULL
   004556 (0)004563 0000 00           2512         ARG     LRIGHT          RIGHT SHIFT
   004557 (0)004570 0000 00           2513         ARG     LLEFT           LEFT SHIFT
   004560 (0)004574 0000 00           2514         ARG     LMIN            SUBTRACTION
   004561 (0)004575 0000 00           2515         ARG     LPLUS           ADDITION
   004562 (0)000017 0000 00           2516         ARG     ERROR
                                      2517  *
   004563                             2518  LRIGHT NULL                    RIGHT SHIFT
   004563 (0)004640 2350 00           2519         LDA     ACCUM           GET ACCUMULATOR
   004564    000000 7710 02           2520         ARL     0,QU            SHIFT IT
   004565    000000 6350 01           2521         EAA     0,AU            THROW AWAY BITS
   004566 (0)004640 7550 00           2522         STA     ACCUM           BACK TO ACCUMULATOR
   004567 (0)004576 7100 00           2523         TRA     LPLUS+1         AND CONTINUE
                                      2524  *
   004570                             2525  LLEFT  NULL                    LEFT  SHIFT
   004570 (0)004640 2350 00           2526         LDA     ACCUM           GET ACCUMULATOR
   004571    000000 7350 02           2527         ALS     0,QU            SHIFT IT
   004572 (0)004640 7550 00           2528         STA     ACCUM           BACK TO ACCUMULATOR
   004573 (0)004576 7100 00           2529         TRA     LPLUS+1         AND CONTINUE
                                      2530  *
   004574    000000 5330 00           2531  LMIN   NEGL                    MAKE ITEM NEGATIVE
   004575 (0)004640 0560 00           2532  LPLUS  ASQ     ACCUM           ADD TO THE EXPREESION
   004576 (0)004642 2350 00           2533         LDA     CURTRM          CURRENT TERMINATOR
   004577    000040 1150 07           2534         CMPA    =O40,DL         BLANK-END OF EXPRESSION
   004600 (0)004614 6000 00           2535         TZE     LEXP6           YES
   004601 (0)004641 7550 00           2536         STA     ACCTRM          MORE ITEMS SHOULD FOLLOW
   004602 (0)004533 7100 00           2537         TRA     LEXP1
                                      2538  *
   004603 (0)004642 7560 00           2539  LEXP5  STQ     CURTRM          CURRENT TERMINATOR AFTER A SYMBOL
   004604 (0)004450 7070 00           2540         TSX7    FINSYB          FIND THE SYMBOL
   004605 (0)004607 7100 00           2541         TRA     *+2
   004606 (0)000017 7100 00           2542         TRA     ERROR           ERROR-SYMBOL NOT FOUND
   004607    000101 1010 03           2543         CMPX1   MSKINX,DU
   004610 (0)000017 6030 00           2544         TRC     ERROR           ERROR-NOT A LOCATION SYMBOL
 22:54 07/29/97  FILE=ISI$MINI.:E05TSI        MINI-DELTA -                                               107  BMAP - B00
   004611 (0)007513 2360 11           2545  LEXP11 LDQ     SFETCH-1,X1     VALUE OF SYMBOL
   004612    000000 6360 02           2546         EAQ     0,QU            MASK OUT VALUE
   004613 (0)004543 7100 00           2547         TRA     LEXP2
                                      2548  *
   004614 (0)004640 2360 00           2549  LEXP6  LDQ     ACCUM           VALUE OF EXPRESSION
   004615 (0)004636 2270 00           2550         LDX7    LEXPRT          RETURN ADDRESS
   004616 (0)004637 2210 00           2551         LDX1    LEX1            RESTORE (X1)
   004617    000002 7100 17           2552         TRA     2,X7            NORMAL RETURN
                                      2553  *
   004620 (0)004642 7560 00           2554  LEXP8  STQ     CURTRM          CURRENT TERMINATOR
   004621 (0)004450 7070 00           2555         TSX7    FINSYB          FIND THE FIRST SYMBOL
   004622 (0)004624 7100 00           2556         TRA     *+2
   004623 (0)000017 7100 00           2557         TRA     ERROR           ERROR-NOT IN TABLE
   004624    000101 1010 03           2558         CMPX1   MSKINX,DU       LOCATION SYMBOL
   004625 (0)004611 6020 00           2559         TNC     LEXP11          YES
   004626    000000 6360 11           2560         EAQ     0,X1            SYMBOLIC INDEX TO (QU)
   004627 (0)001006 0540 00           2561         AOS     OPNLCM          SET SYMBOLIC LOCATION MODE
   004630 (0)004636 2270 00           2562         LDX7    LEXPRT          RETURN ADDRESS
   004631 (0)004637 2210 00           2563         LDX1    LEX1            RESTORE (X1)
   004632    000001 7100 17           2564         TRA     1,X7            SYMBOLIC INDEX RETURN
                                      2565  *
   004633 (0)004636 2270 00           2566  LEXP9  LDX7    LEXPRT          RETURN ADDRESS
   004634 (0)004637 2210 00           2567         LDX1    LEX1            RESTORE (X1)
   004635    000000 7100 17           2568         TRA     0,X7            NO FIELD PRESENT RETURN
                                      2569  *
   004636    000000 000000            2570  LEXPRT ZERO                    RETURN ADDRESS
   004637    000000 000000            2571  LEX1   ZERO                    REGISTER ONE
   004640    000000 000000            2572  ACCUM  ZERO                    ACCUMULATOR
   004641    000000 000000            2573  ACCTRM ZERO                    WHAT TO DO WITH NEXT ITEM
   004642    000000 000000            2574  CURTRM ZERO                    CURRENT TERMINATOR

 22:54 07/29/97  FILE=ISI$MINI.:E05TSI        MINI-DELTA -                                               108  BMAP - B00
                                      2575         TTLS    MINI-DELTA -
                                      2576  * GIVEN A LOCATION DEVELOP A SYMBOL PLUS OFFSET
                                      2577  *
                                      2578  * IN:  (A) TALLY WORD POINTING TO MESSAGE
                                      2579  *      (QU) LOCATION
                                      2580  *
                                      2581  *      TSX7    LOCOFF
             000000005000             2582  MAXOFS BOOL    5000            MAX OFFSET
                                      2583  *
          (0)000000004643             2584  LOCOFF EQU     *
   004643 (0)004741 7470 00           2585         STX7    LOCRTN          SAVE RETURN ADDRESS
   004644 (0)004742 7410 00           2586         STX1    LOCX1                (X1)
   004645 (0)004743 7550 00           2587         STA     LOCTAL          SAVE TALLY WORD POINTING TO MESSAGE
   004646 (0)001014 7550 00           2588         STA     TEMP
   004647    000040 2350 07           2589         LDA     =O40,DL
   004650 (0)001014 7550 52           2590         STA     TEMP,SC         BLANK THE MESSAGE FIELD
   004651 (0)004650 6070 00           2591         TTF     *-1
   004652 (0)004023 2350 00           2592         LDA     MAXOFF          MAX OFFSET PERMITTED
   004653 (0)004744 7550 00           2593         STA     LCOFST
   004654 (0)004745 4500 00           2594         STZ     LCINDX          CLEAR INDEX OF CLOSEST SYMBOL
                                      2595  *
   004655    000001 6210 00           2596         EAX1    1
   004656 (0)007243 2340 11           2597  LOC1   SZN     SYMTBL-1,X1     ENTRY LIVE
   004657 (0)004673 6000 00           2598         TZE     LOC2            NO
   004660 (0)007513 2350 11           2599         LDA     SFETCH-1,X1     SYMBOL VALUE
   004661    000000 6350 01           2600         EAA     0,AU
   004662 (0)001014 7550 00           2601         STA     TEMP            SYMBOL VALUE
   004663 (0)001014 1160 00           2602         CMPQ    TEMP
   004664 (0)004673 6020 00           2603         TNC     LOC2            LOCATION LESS THAN SYMBOL VALUE
   004665    000000 6350 02           2604         EAA     0,QU            OFFSET FROM THIS SYMBOL
   004666 (0)001014 1350 00           2605         SBLA    TEMP            -> AU
   004667 (0)004744 1150 00           2606         CMPA    LCOFST
   004670 (0)004673 6030 00           2607         TRC     LOC2            THIS OFFSET EQUAL OR GREATER THAN PREV.
   004671 (0)004744 7550 00           2608         STA     LCOFST          BETTER OFFSET
   004672 (0)004745 7410 00           2609         STX1    LCINDX          INDEX OF BEST OFFSET
   004673    000002 0610 03           2610  LOC2   ADX1    2,DU
   004674    000075 1010 03           2611         CMPX1   LOWINX,DU       LOOK AT ALL LOCATION SYMBOLS
 22:54 07/29/97  FILE=ISI$MINI.:E05TSI        MINI-DELTA -                                               109  BMAP - B00
   004675 (0)004656 6020 00           2612         TNC     LOC1
                                      2613  *
   004676 (0)004745 2210 00           2614         LDX1    LCINDX
   004677 (0)004716 6000 00           2615         TZE     LOC5            NO SYMBOL FOUND
   004700 (0)007243 2370 11           2616         LDAQ    SYMTBL-1,X1     TEXT OF SYMBOL
   004701 (0)001014 7570 00           2617         STAQ    TEMP
   004702 (0)001011 2350 00           2618         LDA     TALTMP-1
   004703 (0)001012 7550 00           2619         STA     TALTMP          SET UP TALLY WORD POINTING TO TEMP
   004704 (0)001012 2350 52           2620  LOC3   LDA     TALTMP,SC
   004705 (0)004743 7550 50           2621         STA     LOCTAL,CI       COPY TEXT OF SYMBOL TO MESSAGE
   004706 (0)004711 6064 00           2622         TTN     LOC4            ALL OF TEXT CHAR
   004707 (0)004743 2340 52           2623         SZN     LOCTAL,SC       ADVANCE MESSAGE FIELD
   004710 (0)004704 7100 00           2624         TRA     LOC3
   004711 (0)004744 2360 00           2625  LOC4   LDQ     LCOFST          IS THERE AN OFFSET
   004712 (0)004736 6000 00           2626         TZE     LOC6            NO
   004713 (0)004743 2340 52           2627         SZN     LOCTAL,SC       ADVANCE TO NEXT CHAR
   004714    000053 2350 07           2628         LDA     =O053,DL        PLUS SIGN
   004715 (0)004743 7550 52           2629         STA     LOCTAL,SC       PUT + SIGN IN MESSAGE
   004716    000006 6210 00           2630  LOC5   EAX1    6               SIX CHARS IN LOCATION
   004717    000000 6350 00           2631  LOC8   EAA     0
   004720    000003 7370 00           2632         LLS     3               OCT DIGIT
   004721    000001 1010 03           2633         CMPX1   1,DU            LAST DIGIT
   004722 (0)004725 6000 00           2634         TZE     LOC9            YES-PRINT IT
   004723    000000 1150 07           2635         CMPA    0,DL            LEADING ZERO
   004724 (0)004730 6000 00           2636         TZE     LOC10           YES-STRIP IT
   004725    000060 2750 07           2637  LOC9   ORA     =O60,DL         MAKE ASCII CHAR
   004726 (0)004743 7550 52           2638         STA     LOCTAL,SC       PUT CHAR IN LINE
   004727 (0)004732 7100 00           2639         TRA     LOC11           PRINT TRAILING ZEROS
   004730    777777 6210 11           2640  LOC10  EAX1    -1,X1
   004731 (0)004717 6010 00           2641         TNZ     LOC8            STRIP ALL LEADING ZEROS
   004732    000000 6350 00           2642  LOC11  EAA     0
   004733    000003 7370 00           2643         LLS     3               OCT DIGIT
   004734    777777 6210 11           2644         EAX1    -1,X1
   004735 (0)004725 6010 00           2645         TNZ     LOC9
                                      2646  *
   004736 (0)004742 2210 00           2647  LOC6   LDX1    LOCX1           RESTORE (X1)
   004737 (0)004741 2270 00           2648         LDX7    LOCRTN          RETURN ADDRESS
 22:54 07/29/97  FILE=ISI$MINI.:E05TSI        MINI-DELTA -                                               110  BMAP - B00
   004740    000000 7100 17           2649         TRA     0,X7            RETURN
                                      2650  *
   004741    000000 000000            2651  LOCRTN ZERO                    RETURN ADDRESS
   004742    000000 000000            2652  LOCX1  ZERO                    (X1)
   004743    000000 000000            2653  LOCTAL ZERO                    TALLY WORD POINTING TO MESSAGE
   004744    000000 000000            2654  LCOFST ZERO                    VALUE OF SMALLEST OFFSET
   004745    000000 000000            2655  LCINDX ZERO                    INDEX TO NEAREST SYMBOL

 22:54 07/29/97  FILE=ISI$MINI.:E05TSI        MINI-DELTA -                                               111  BMAP - B00
                                      2656         TTLS    MINI-DELTA -
                                      2657  * READ OR TYPE A LINE AT THE CONSOLE
                                      2658  *
                                      2659  * IN:  (A) TALLY WORD POINTING TO MESSAGE
                                      2660  *
                                      2661  *      TSX7    TYIN            READ A MESSAGE
                                      2662  *
                                      2663  *      TSX7    TYPE            TYPE STARTING WITH NEW LINE
                                      2664  *
                                      2665  *      TSX7    TYPSNL          TYPE STAY ON SAME LINE
                                      2666  *
   004746    000000 2230 03           2667  TYIN   LDX3    RD,DU           READ THE CONSOLE
   004747 (0)005157 7470 00           2668         STX7    TYRTN           SAVE RETURN
   004750 (0)004015 7240 00           2669         LXL4    CR              CR DCTX
   004751 (0)004010 2340 00           2670         SZN     INDEV
   004752 (0)004760 6054 00           2671         TPNZ    TYIN1           >0 -> READING CR
   004753 (0)004757 6000 00           2672         TZE     TYIN1-1         =0 -> READ ME
   004754  X 000000 7240 00           2673         LXL4    PO_INDX         <0 -> READ TAPE
   004755    000002 2230 03           2674         LDX3    FCNRT9,DU       READ TAPE NINE FUNCTION CODE
   004756 (0)004760 7100 00           2675         TRA     TYIN1
   004757 (0)004013 7240 00           2676         LXL4    ME              ME SPECIFIED
   004760                             2677  TYIN1  NULL
   004760 (1)000014 2360 00           2678         LDQ     =UR ME          SET UP
   004761    000000 7560 01           2679         STQ     0,AU            INPUT BUFFER
   004762 (0)004520 2360 00           2680         LDQ     BLANKS          JUST IN CASE
   004763    000001 7560 01           2681         STQ     1,AU            CARD READER IS EMPTY
   004764  X 000000 2340 00           2682         SZN     PDEV            READ VIA PATCH DEVICE???
   004765 (0)005013 6000 00           2683         TZE     TYNP            NO -> GO
   004766 (0)003353 7550 00           2684         STA     TMPSV           YES - SAVE TALLY WORD
   004767    010000 2360 03           2685         LDQ     WHOMINI,DU      TELL THE READ ROUTINE WHO WE ARE
   004770 (0)000116 7560 00           2686         STQ     ALST1
   004771    000000 6304 01           2687         EPPR0   0,AU            MAKE POINTER FROM WA OF BUFFER
   004772 (0)000117 4504 00           2688         STP0    ALST1+1         SECOND ARG
   004773    777777 3750 07           2689         ANA     =O777777,DL     MASK OFF ADDRESS PART
   004774    000006 7710 00           2690         ARL     6               SHIFT OUT TALLYB STUFF LEAVING LENGTH
   004775 (0)000120 7550 00           2691         STA     ALST1+2         THIRD ARG
   004776    000003 2350 03           2692         LDA     3,DU
 22:54 07/29/97  FILE=ISI$MINI.:E05TSI        MINI-DELTA -                                               112  BMAP - B00
   004777 (0)000115 7550 00           2693         STA     DLST1
   005000 (0)000110 6304 00           2694         EPPR0   PLST1
   005001 (0)000115 6314 00           2695         EPPR1   DLST1
                                      2696         PUSH
                                             IFE AARDVARK,0,1
                                             SYMREF SPW1
   005002  X 000000 7530 53                  SREG SPW1,AD         SAVE ENVIRONMENT
   005003  X 000000 0554 00                  STD DR.USE,TEMPD    NEVER LET DR5 GET CLOBBERED!!
   005004  X 000000 7010 00           2697         TSX1    READ_PATCH
   005005 (0)005144 7100 00           2698         TRA     INERR           ALTRETURN
                                      2699         PULL
                                             IFE AARDVARK,0,1
                                             SYMREF SPW1
   005006  X 000000 0730 44                  LREG SPW1,SD         RESTORE ENVIRONMENT
   005007  X 000000 4754 00                  LDP DR.USE,I$TEMP$
   005010    001764 4744 07                  LDP DR.SSR,DSSR,DL
   005011    001761 4744 07                  LDP DR.SSR,DTYP,DL
   005012 (0)005037 7100 00           2700         TRA     TYEDIT
   005013 (0)000116 4440 00           2701  TYNP   SXL4    ALST1
   005014    000000 6304 01           2702         EPPR0   0,AU            MAKE POINTER FROM WA OF BUFFER
   005015 (0)000117 4504 00           2703         STP0    ALST1+1         BUF$
   005016 (0)003353 7550 00           2704         STA     TMPSV           SAVE BUFFER INFO
   005017    777777 3750 07           2705         ANA     =O777777,DL     MASK OUT WORD ADDRESS LEAVING LENGTH
   005020    000006 7710 00           2706         ARL     6               PL6 DOESN'T ACCEPT TALLY'S
   005021 (0)000120 7550 00           2707         STA     ALST1+2         LENGTH
   005022 (0)000121 4430 00           2708         SXL3    ALST1+3         CODE
   005023    000005 2350 03           2709         LDA     =O5,DU
   005024 (0)000115 7550 00           2710         STA     DLST1           NUMBER OF ARGS
   005025 (0)000110 6304 00           2711         EPPR0   PLST1
   005026 (0)000115 6314 00           2712         EPPR1   DLST1
                                      2713         PUSH                    SAVE REGISTERS FROM PL6
                                             IFE AARDVARK,0,1
                                             SYMREF SPW1
   005027  X 000000 7530 53                  SREG SPW1,AD         SAVE ENVIRONMENT
   005030  X 000000 0554 00                  STD DR.USE,TEMPD    NEVER LET DR5 GET CLOBBERED!!
   005031  X 000000 7010 00           2714         TSX1    MINIQ_PL6       DO THE I/O
   005032 (0)005144 7100 00           2715         TRA     INERR           I/O ERROR ON INPUT DEVICE
 22:54 07/29/97  FILE=ISI$MINI.:E05TSI        MINI-DELTA -                                               113  BMAP - B00
                                      2716         PULL                    RESTORE REGISTERS
                                             IFE AARDVARK,0,1
                                             SYMREF SPW1
   005033  X 000000 0730 44                  LREG SPW1,SD         RESTORE ENVIRONMENT
   005034  X 000000 4754 00                  LDP DR.USE,I$TEMP$
   005035    001764 4744 07                  LDP DR.SSR,DSSR,DL
   005036    001761 4744 07                  LDP DR.SSR,DTYP,DL
   005037 (0)003353 2350 00           2717  TYEDIT LDA     TMPSV           RECALL BUFFER INFO
   005040    000000 6360 05           2718         EAQ     0,AL
   005041    000006 7720 00           2719         QRL     6
   005042    000000 6230 02           2720         EAX3    0,QU
   005043    000000 6360 01           2721         EAQ     0,AU
   005044    000002 7360 00           2722         QLS     2
   005045 (0)007202 7070 00           2723         TSX7    EDIT
   005046  X 000000 2340 00           2724         SZN     PDEV            READ VIA PATCH DEVICE?
   005047 (0)005064 6000 00           2725         TZE     TYIN2           NO -> DON'T WRITE PATCH AREA ETC.
   005050    000000 6304 01           2726         EPPR0   0,AU            MAKE POINTER FROM WA OF BUFFER
   005051 (0)000116 4504 00           2727         STP0    ALST1           BUF$
   005052    777777 3750 07           2728         ANA     =O777777,DL     MASK OUT WORD ADDRESS LEAVING LENGTH
   005053    000006 7710 00           2729         ARL     6               SHIFT OUT TALLYB JUNK FOR PL6
   005054 (0)000117 7550 00           2730         STA     ALST1+1         LENGTH
   005055    000002 2350 03           2731         LDA     =O2,DU
   005056 (0)000115 7550 00           2732         STA     DLST1           NUMBER OF ARGS
   005057 (0)000110 6304 00           2733         EPPR0   PLST1
   005060 (0)000115 6314 00           2734         EPPR1   DLST1
   005061  X 000000 7010 00           2735         TSX1    WRITE_PATCH
   005062    000000 0110 00           2736         NOP                     IGNORE ERROR RETURN
   005063 (0)005067 7100 00           2737         TRA     TYIN3           AND CONTINUE
   005064                             2738  TYIN2  NULL
   005064 (0)004010 2340 00           2739         SZN     INDEV           INPUT FROM CONSOLE
   005065 (0)005067 6000 00           2740         TZE     *+2             YES -> DO NOT ECHO
   005066 (0)005105 7070 00           2741         TSX7    TYPE            PRINT CARD IMAGE
   005067                             2742  TYIN3  NULL
   005067 (0)005157 2270 00           2743         LDX7    TYRTN           RETURN ADDRESS
   005070    000000 7100 17           2744         TRA     0,X7
                                      2745  *
   005071    000001 2230 03           2746  OCOUT  LDX3    WRITE,DU        WRITE TO THE OC
 22:54 07/29/97  FILE=ISI$MINI.:E05TSI        MINI-DELTA -                                               114  BMAP - B00
   005072 (0)005115 7100 00           2747         TRA     TYP2
                                      2748  *
   005073    000002 2230 03           2749  DSPACE LDX3    DOUBLE,DU       ORDER CODE FOR DOUBLR SPACE
   005074 (0)004014 7240 00           2750         LXL4    LP              LP DCTX
   005075 (0)005116 7100 00           2751         TRA     TYP1
                                      2752  *
   005076    000003 2230 03           2753  TPAGE  LDX3    TOP,DU          TOP OF PAGE ORDER CODE
   005077 (0)004014 7240 00           2754         LXL4    LP              LP DCTX
   005100 (0)005116 7100 00           2755         TRA     TYP1
                                      2756  *
   005101    000002 2230 03           2757  TYPSNL LDX3    SCRLF,DU        TYPE STAY ON SAME LINE
   005102 (0)005106 7100 00           2758         TRA     TYPE+1
                                      2759  *
   005103    000001 2230 03           2760  TYPE1  LDX3    WRITE,DU        WRITE ORDER CODE
   005104 (0)005112 7100 00           2761         TRA     TYP3
                                      2762  *
   005105    000001 2230 03           2763  TYPE   LDX3    WRITE,DU        TYPE ON THE CONSOLE
   005106  X 000000 2340 00           2764         SZN     PDEV            READ VIA PATCH DEVICE?
   005107 (0)005112 6010 00           2765         TNZ     TYP3            YES -> DO IT ON LP (I HOPE!)
   005110 (0)004010 2340 00           2766         SZN     INDEV           INPUT FROM ME
   005111 (0)005115 6000 00           2767         TZE     TYP2            YES-OUTPUT FROM ME
   005112 (0)004014 7240 00           2768  TYP3   LXL4    LP
   005113 (0)004011 2340 00           2769         SZN     OUTDEV
   005114 (0)005116 6000 00           2770         TZE     *+2             LP SPECIFIED
   005115 (0)004013 7240 00           2771  TYP2   LXL4    ME              ME SPECIFIED
   005116 (0)005160 7470 00           2772  TYP1   STX7    TYPRTN          SAVE RETURN
   005117 (0)000116 4440 00           2773         SXL4    ALST1
   005120    000000 6304 01           2774         EPPR0   0,AU            MAKE POINTER FROM WA OF BUFFER
   005121 (0)000117 4504 00           2775         STP0    ALST1+1         BUF$
   005122    777777 3750 07           2776         ANA     =O777777,DL     MASK OUT WORD ADDRESS LEAVING LENGTH
   005123    000006 7710 00           2777         ARL     6               REMOVE TALLYB JUNK
   005124 (0)000120 7550 00           2778         STA     ALST1+2         LENGTH
   005125 (0)000121 4430 00           2779         SXL3    ALST1+3         CODE
   005126    000005 2350 03           2780         LDA     =O5,DU
   005127 (0)000115 7550 00           2781         STA     DLST1           NUMBER OF ARGS
   005130 (0)000110 6304 00           2782         EPPR0   PLST1
   005131 (0)000115 6314 00           2783         EPPR1   DLST1
 22:54 07/29/97  FILE=ISI$MINI.:E05TSI        MINI-DELTA -                                               115  BMAP - B00
                                      2784         PUSH                    SAVE REGISTERS
                                             IFE AARDVARK,0,1
                                             SYMREF SPW1
   005132  X 000000 7530 53                  SREG SPW1,AD         SAVE ENVIRONMENT
   005133  X 000000 0554 00                  STD DR.USE,TEMPD    NEVER LET DR5 GET CLOBBERED!!
   005134  X 000000 7010 00           2785         TSX1    MINIQ_PL6       GO DO THE I/O
   005135    000000 0110 00           2786         NOP                     ERROR RETURN
                                      2787         PULL                    RESTORE REGISTERS
                                             IFE AARDVARK,0,1
                                             SYMREF SPW1
   005136  X 000000 0730 44                  LREG SPW1,SD         RESTORE ENVIRONMENT
   005137  X 000000 4754 00                  LDP DR.USE,I$TEMP$
   005140    001764 4744 07                  LDP DR.SSR,DSSR,DL
   005141    001761 4744 07                  LDP DR.SSR,DTYP,DL
   005142 (0)005160 2270 00           2788         LDX7    TYPRTN          RETURN ADDRESS
   005143    000000 7100 17           2789         TRA     0,X7            RETURN
                                      2790  *
   005144 (0)005147 2350 00           2791  INERR  LDA     TALY18
   005145 (0)005071 7070 00           2792         TSX7    OCOUT           PRINT INPUT I/O/ERROR
   005146 (0)000027 7100 00           2793         TRA     ERROR1
   005147 (0)005150 0034 40           2794  TALY18 TALLYB  *+1,28
   005150    111057117040             2795         UASCI   7,I/O ERROR ON INPUT DEVICE
   005151    105122122117
   005152    122040117116
   005153    040111116120
   005154    125124040104
   005155    105126111103
   005156    105040040040
   005157    000000 000000            2796  TYRTN  ZERO                    TYIN RETURN ADDRESS
   005160    000000 000000            2797  TYPRTN ZERO                    RETURN ADDRESS

 22:54 07/29/97  FILE=ISI$MINI.:E05TSI        SETAUTO - INIT THE AUTO SPACE FOR PL6 ROUTINES             116  BMAP - B00
                                      2798         TTLS    SETAUTO - INIT THE AUTO SPACE FOR PL6 ROUTINES
   005161                             2799  SETAUTO NULL
   005161 (0)005200 7210 00           2800         LXL1    ASIZE
   005162    000001 1610 03           2801         SBX1    1,DU
   005163  X 000000 7410 00           2802         STX1    DESAAAUTO
   005164 (0)005172 6304 00           2803         EPPR0   PTRLIST
   005165 (1)000015 6314 00           2804         EPPR1   =V18/3,18/0
   005166  X 000000 7010 00           2805         TSX1    X66_MSTATIC
   005167    000000 0110 00           2806         NOP
   005170 (0)005175 4724 00           2807         LDP2    INITPR2$
   005171    000000 7100 12           2808         TRA     0,X2
   005172                             2809  PTRLIST NULL
   005172  X 000000 0 00 6000         2810         PTR     S.AIS,I$AAAUTO$
   005173 (0)005200 0 00 6000         2811         PTR     S.AIS,ASIZE
   005174 (0)005175 0 00 6000         2812         PTR     S.AIS,INITPR2$
   005175    000000000000             2813  INITPR2$ OCT   0
   005176                             2814  SAVAUTO  BSS   2
   005200    000000 002000            2815  ASIZE    ZERO  0,1024          AUTO BUFFER IS 1 PAGE
   005201    000000 0110 00           2816           EVEN                  AUTO STACK MUST START ON A DBLWRD
   005202
   005202                             2817  ABUF  BSS      1024            AUTO BUFFER FOR PL6

 22:54 07/29/97  FILE=ISI$MINI.:E05TSI        EDIT ANSWERS                                               117  BMAP - B00
                                      2818         TTLS    EDIT ANSWERS
   007202                             2819  EDIT   NULL                    FIX INPUT BUFFER FROM KEYIN
   007202 (0)007241 7430 00           2820         STX3    BOUNDTEMP
   007203    000000 6240 02           2821         EAX4    0,QU
   007204    000000 6230 02           2822         EAX3    0,QU
   007205 (0)007241 0630 00           2823         ADX3    BOUNDTEMP
   007206 (0)007241 7430 00           2824         STX3    BOUNDTEMP
   007207 (0)007242 7560 00           2825         STQ     STARTTEMP
   007210    000 0 000 1004 02        2826  GETCHAR MLR    (,,,QU)
   007211    000000 0 0 0 0001        2827         ADSC9   0,0,1
   007212 (0)007240 2 0 0 0001        2828         ADSC9   CTEMP,1,1
   007213    040 0 002 1004 00        2829         MLR     ,(,,,QU),040
   007214    000000 0 0 0 0000        2830         ADSC9   0,0,0
   007215    000000 0 0 0 0001        2831         ADSC9   0,0,1
   007216 (0)007240 2250 00           2832         LDX5    CTEMP
   007217    000177 1050 03           2833         CMPX5   =O177,DU
   007220 (0)007233 6000 00           2834         TZE     DELCHAR
   007221    000010 1050 03           2835         CMPX5   =O010,DU
   007222 (0)007233 6000 00           2836         TZE     DELCHAR
   007223    000 0 014 1004 00        2837         MLR     ,(,,,X4)
   007224 (0)007240 2 0 0 0001        2838         ADSC9   CTEMP,1,1
   007225    000000 0 0 0 0001        2839         ADSC9   0,0,1
   007226    000001 6240 14           2840         EAX4    1,X4
   007227    000001 6360 02           2841  NEXTCHAR EAQ   1,QU
   007230 (0)007241 1160 00           2842         CMPQ    BOUNDTEMP
   007231 (0)007237 6000 00           2843         TZE     EDONE
   007232 (0)007210 7100 00           2844         TRA     GETCHAR
   007233                             2845  DELCHAR NULL
   007233 (0)007242 1040 00           2846         CMPX4   STARTTEMP
   007234 (0)007227 6000 00           2847         TZE     NEXTCHAR
   007235    777777 6240 14           2848         EAX4    -1,X4
   007236 (0)007227 7100 00           2849         TRA     NEXTCHAR
   007237                             2850  EDONE  NULL
   007237    000000 7100 17           2851         TRA     0,X7
                                      2852  *
   007240    000000000000             2853  CTEMP  OCT     0
   007241    000000000000             2854  BOUNDTEMP OCT  0
 22:54 07/29/97  FILE=ISI$MINI.:E05TSI        EDIT ANSWERS                                               118  BMAP - B00
   007242    000000000000             2855  STARTTEMP OCT  0

 22:54 07/29/97  FILE=ISI$MINI.:E05TSI        MINI-DELTA -                                               119  BMAP - B00
                                      2856         TTLS    MINI-DELTA -
                                      2857         IFE     BMAP,0,1
                                      2858         DETAIL  OFF
                                      2859  *              SYMBOLIC LOCATION TABLE
                                      2860  *
   007243    000000 0110 00           2861         EVEN
   007244
          (0)000000007244             2862  SYMTBL EQU     *
                                      2863         DUP     2,NSYM
   007244    000000 000000            2864         ZERO                    FREE AREA
   007245    000000 000000            2865         ZERO
   007246    000000 000000
   007247    000000 000000
   007250    000000 000000
   007251    000000 000000
   007252    000000 000000
   007253    000000 000000
   007254    000000 000000
   007255    000000 000000
   007256    000000 000000
   007257    000000 000000
   007260    000000 000000
   007261    000000 000000
   007262    000000 000000
   007263    000000 000000
   007264    000000 000000
   007265    000000 000000
   007266    000000 000000
   007267    000000 000000
   007270    000000 000000
   007271    000000 000000
   007272    000000 000000
   007273    000000 000000
   007274    000000 000000
   007275    000000 000000
   007276    000000 000000
   007277    000000 000000
 22:54 07/29/97  FILE=ISI$MINI.:E05TSI        MINI-DELTA -                                               120  BMAP - B00
   007300    000000 000000
   007301    000000 000000
   007302    000000 000000
   007303    000000 000000
   007304    000000 000000
   007305    000000 000000
   007306    000000 000000
   007307    000000 000000
   007310    000000 000000
   007311    000000 000000
   007312    000000 000000
   007313    000000 000000
   007314    040040040040             2866         UASCI   2,    BOOT      RECOGNIZE AARDVARK
   007315    102117117124
   007316    040040040040             2867         UASCI   2,    MINI      RECOGNIZE MINID
   007317    115111116111
   007320    040122105103             2868         UASCI   2  RECOVER      RECOGNIZE IRR$RECOVER
   007321    117126105122
   007322    040040040040             2869         UASCI   2,    BUFF      RECOGNIZE IR_BUFF_D
   007323    102125106106
   007324    040040040040             2870         UASCI   2,    DUMP      RECOGNIZE IRD$DUMP
   007325    104125115120
   007326    040040040104             2871         UASCI   2,   DUMP2      RECOGNIZE IRD$DUMP2
   007327    125115120062
   007330    040040040040             2872         UASCI   2,    CLSF      RECOGNIZE IRF$CLSF
   007331    103114123106
   007332    040040122103             2873         UASCI   2,  RCVRIO      RECOGNIZE IRN$RCVRIO
   007333    126122111117
   007334    040040040040             2874         UASCI   2,     JTQ      RECOGNIZE IRN$MINIQ
   007335    040112124121
   007336    040040040120             2875         UASCI   2,   POBUF      RECOGNIZE POBUF
   007337    117102125106
             000000000075             2876  LOWINX EQU     *-SYMTBL+1      INDEX OF $LOW
   007340    040040040040             2877         UASCI   2,    $LOW
   007341    044114117127
   007342    040040040044             2878         UASCI   2,   $HIGH
   007343    110111107110
 22:54 07/29/97  FILE=ISI$MINI.:E05TSI        MINI-DELTA -                                               121  BMAP - B00
             000000000101             2879  MSKINX EQU     *-SYMTBL+1      INDEX OF $MASK
   007344    040040040044             2880         UASCI   2,   $MASK
   007345    115101123113
   007346    040040040040             2881         UASCI   2,      $E      E REGISTER
   007347    040040044105
   007350    040040040040             2882         UASCI   2,     $TR      TR REGISTER
   007351    040044124122
             000000000107             2883  DRANGE EQU     *-SYMTBL+1      DESCRIPTOR LOCATIONS
   007352    040040040040             2884         UASCI   2,    $ISR      ISR DESCRIPTOR
   007353    044111123122
   007354    040040040040             2885         UASCI   2,    $ISR
   007355    044111123122
   007356    040040040040             2886         UASCI   2,    $ASR      ASR DESCRIPTOR
   007357    044101123122
   007360    040040040040             2887         UASCI   2,    $ASR
   007361    044101123122
   007362    040040040040             2888         UASCI   2,    $LSR      LSR DESCRIPTOR
   007363    044114123122
   007364    040040040040             2889         UASCI   2,    $LSR
   007365    044114123122
   007366    040040040040             2890         UASCI   2,    $PSR      PSR DESCRIPTOR
   007367    044120123122
   007370    040040040040             2891         UASCI   2,    $PSR
   007371    044120123122
   007372    040040040040             2892         UASCI   2,    $SSR
   007373    044123123122
   007374    040040040040             2893         UASCI   2,    $SSR
   007375    044123123122
   007376    040040040040             2894         UASCI   2,    $WSR
   007377    044127123122
   007400    040040040040             2895         UASCI   2,    $WSR
   007401    044127123122
   007402    040040040044             2896         UASCI   2    $PDBR
   007403    120104102122
   007404    040040040040             2897         UASCI   2,    $DR0      DESCRIPTOR REGISTER 0
   007405    044104122060
   007406    040040040040             2898         UASCI   2,    $DR0
 22:54 07/29/97  FILE=ISI$MINI.:E05TSI        MINI-DELTA -                                               122  BMAP - B00
   007407    044104122060
   007410    040040040040             2899         UASCI   2,    $DR1      DESCRIPTOR REGISTER 1
   007411    044104122061
   007412    040040040040             2900         UASCI   2,    $DR1
   007413    044104122061
   007414    040040040040             2901         UASCI   2,    $DR2      DESCRIPTOR REGISTER 2
   007415    044104122062
   007416    040040040040             2902         UASCI   2,    $DR2
   007417    044104122062
   007420    040040040040             2903         UASCI   2,    $DR3      DESCRIPTOR REGISTER 3
   007421    044104122063
   007422    040040040040             2904         UASCI   2,    $DR3
   007423    044104122063
   007424    040040040040             2905         UASCI   2,    $DR4      DESCRIPTOR REGISTER 4
   007425    044104122064
   007426    040040040040             2906         UASCI   2,    $DR4
   007427    044104122064
   007430    040040040040             2907         UASCI   2,    $DR5      DESCRIPTOR REGISTER 5
   007431    044104122065
   007432    040040040040             2908         UASCI   2,    $DR5
   007433    044104122065
   007434    040040040040             2909         UASCI   2,    $DR6      DESCRIPTOR REGISTER 6
   007435    044104122066
   007436    040040040040             2910         UASCI   2,    $DR6
   007437    044104122066
   007440    040040040040             2911         UASCI   2,    $DR7      DESCRIPTOR REGISTER 7
   007441    044104122067
   007442    040040040040             2912         UASCI   2,    $DR7
   007443    044104122067
             000000000201             2913  ARANGE EQU     *-SYMTBL+1      INDEX OF A REGISTER
   007444    040040040040             2914         UASCI   2,    $AR0      ADDRESS REGISTER 0 - SEGID 0
   007445    044101122060
   007446    040040040040             2915         UASCI   2,    $AR1
   007447    044101122061
   007450    040040040040             2916         UASCI   2,    $AR2
   007451    044101122062
   007452    040040040040             2917         UASCI   2,    $AR3
 22:54 07/29/97  FILE=ISI$MINI.:E05TSI        MINI-DELTA -                                               123  BMAP - B00
   007453    044101122063
   007454    040040040040             2918         UASCI   2,    $AR4
   007455    044101122064
   007456    040040040040             2919         UASCI   2,    $AR5
   007457    044101122065
   007460    040040040040             2920         UASCI   2,    $AR6
   007461    044101122066
   007462    040040040040             2921         UASCI   2,    $AR7
   007463    044101122067
   007464    040040040040             2922         UASCI   2,      $A      A REGISTER
   007465    040040044101
   007466    040040040040             2923         UASCI   2,      $Q      Q
   007467    040040044121
             000000000225             2924  HRANGE EQU     *-SYMTBL+1              HALF WORD LOCATIONS
   007470    040040040040             2925         UASCI   2,     $X0      X0 INDEX REGISTER
   007471    040044130060
   007472    040040040040             2926         UASCI   2,     $X1      X1
   007473    040044130061
   007474    040040040040             2927         UASCI   2,     $X2      X2
   007475    040044130062
   007476    040040040040             2928         UASCI   2,     $X3      X3
   007477    040044130063
   007500    040040040040             2929         UASCI   2,     $X4      X4
   007501    040044130064
   007502    040040040040             2930         UASCI   2,     $X5      X5
   007503    040044130065
   007504    040040040040             2931         UASCI   2,     $X6      X6
   007505    040044130066
   007506    040040040040             2932         UASCI   2,     $X7      X7
   007507    040044130067
             000000000245             2933  IRANGE EQU     *-SYMTBL+1      INDEX OF INSTRUCTION COUNTER
   007510    040040040040             2934         UASCI   2,     $IC      INSTRUCTION COUNTER
   007511    040044111103
   007512    040040040040             2935         UASCI   2,     $IR      INDICATOR REGISTER
   007513    040044111122
             000000000250             2936  NSYMLC EQU     *-SYMTBL          NUMBER OF ITEMS IN TABLE
                                      2937  *
 22:54 07/29/97  FILE=ISI$MINI.:E05TSI        MINI-DELTA -                                               124  BMAP - B00
                                      2938  *      FETCH AND STORE TABLE FOR SYMBOLIC LOCATIONS
                                      2939  *
                                      2940         DUP     2,NSYM
   007514    000000 2360 00           2941  SFETCH LDQ     **              FREE AREA
   007515    000000 7560 00           2942  SSTORE STQ     **
   007516    000000 2360 00
   007517    000000 7560 00
   007520    000000 2360 00
   007521    000000 7560 00
   007522    000000 2360 00
   007523    000000 7560 00
   007524    000000 2360 00
   007525    000000 7560 00
   007526    000000 2360 00
   007527    000000 7560 00
   007530    000000 2360 00
   007531    000000 7560 00
   007532    000000 2360 00
   007533    000000 7560 00
   007534    000000 2360 00
   007535    000000 7560 00
   007536    000000 2360 00
   007537    000000 7560 00
   007540    000000 2360 00
   007541    000000 7560 00
   007542    000000 2360 00
   007543    000000 7560 00
   007544    000000 2360 00
   007545    000000 7560 00
   007546    000000 2360 00
   007547    000000 7560 00
   007550    000000 2360 00
   007551    000000 7560 00
   007552    000000 2360 00
   007553    000000 7560 00
   007554    000000 2360 00
   007555    000000 7560 00
 22:54 07/29/97  FILE=ISI$MINI.:E05TSI        MINI-DELTA -                                               125  BMAP - B00
   007556    000000 2360 00
   007557    000000 7560 00
   007560    000000 2360 00
   007561    000000 7560 00
   007562    000000 2360 00
   007563    000000 7560 00
   007564    002000 2360 00           2943         LDQ     AARD
   007565    002000 7560 00           2944         STQ     AARD
   007566 (0)000000 2360 00           2945         LDQ     MINID
   007567 (0)000000 7560 00           2946         STQ     MINID
   007570  X 000000 2360 00           2947         LDQ     IRR$RECOVER
   007571  X 000000 7560 00           2948         STQ     IRR$RECOVER
   007572  X 000000 2360 00           2949         LDQ     IR_BUFF_D
   007573  X 000000 7560 00           2950         STQ     IR_BUFF_D
   007574  X 000000 2360 00           2951         LDQ     IRD$DUMP
   007575  X 000000 7560 00           2952         STQ     IRD$DUMP
   007576  X 000000 2360 00           2953         LDQ     IRD$DUMP2
   007577  X 000000 7560 00           2954         STQ     IRD$DUMP2
   007600  X 000000 2360 00           2955         LDQ     IRF$CLSF
   007601  X 000000 7560 00           2956         STQ     IRF$CLSF
   007602  X 000000 2360 00           2957         LDQ     IRN$RCVRIO
   007603  X 000000 7560 00           2958         STQ     IRN$RCVRIO
   007604  X 000000 2360 00           2959         LDQ     IRN$MINIQ
   007605  X 000000 7560 00           2960         STQ     IRN$MINIQ
   007606  X 000000 2360 00           2961         LDQ     POBUF
   007607  X 000000 7560 00           2962         STQ     POBUF
   007610    000000 2360 00           2963  LOW    LDQ     **              $LOW
   007611    000000 7560 00           2964         STQ     **
   007612    000000 2360 00           2965  HIGH   LDQ     **              $HIGH
   007613    000000 7560 00           2966         STQ     **
   007614 (0)007764 2360 00           2967         LDQ     MASK            $MASK
   007615 (0)007764 7560 00           2968         STQ     MASK
   007616    4 00056 2361 00          2969  ENVIR  LDQ     ICREGS+6,,DR.SSR E REGISTER
   007617    4 00056 7561 00          2970         STQ     ICREGS+6,,DR.SSR
   007620    4 00057 2361 00          2971         LDQ     ICREGS+7,,DR.SSR TR REGISTER
   007621    4 00057 7561 00          2972         STQ     ICREGS+7,,DR.SSR
   007622    4 00010 2361 00          2973         LDQ     SSISR,,DR.SSR   ISR DESCRIPTOR
 22:54 07/29/97  FILE=ISI$MINI.:E05TSI        MINI-DELTA -                                               126  BMAP - B00
   007623    4 00010 7561 00          2974         STQ     SSISR,,DR.SSR
   007624    4 00011 2361 00          2975         LDQ     SSISR+1,,DR.SSR ISR DESCRIPTOR
   007625    4 00011 7561 00          2976         STQ     SSISR+1,,DR.SSR
   007626    4 00012 2361 00          2977         LDQ     SSISR+2,,DR.SSR ASR DESCRIPTOR
   007627    4 00012 7561 00          2978         STQ     SSISR+2,,DR.SSR
   007630    4 00013 2361 00          2979         LDQ     SSISR+3,,DR.SSR ASR DESCRIPTOR
   007631    4 00013 7561 00          2980         STQ     SSISR+3,,DR.SSR
   007632    4 00014 2361 00          2981         LDQ     SSISR+4,,DR.SSR LSR DESCRIPTOR
   007633    4 00014 7561 00          2982         STQ     SSISR+4,,DR.SSR
   007634    4 00015 2361 00          2983         LDQ     SSISR+5,,DR.SSR LSR DESCRIPTOR
   007635    4 00015 7561 00          2984         STQ     SSISR+5,,DR.SSR
   007636    4 00016 2361 00          2985         LDQ     SSISR+6,,DR.SSR PSR DESCRIPTOR
   007637    4 00016 7561 00          2986         STQ     SSISR+6,,DR.SSR
   007640    4 00017 2361 00          2987         LDQ     SSISR+7,,DR.SSR PSR DESCRIPTOR
   007641    4 00017 7561 00          2988         STQ     SSISR+7,,DR.SSR
   007642 (0)004212 2360 00           2989         LDQ     SSR
   007643 (0)004212 7560 00           2990         STQ     SSR
   007644 (0)004213 2360 00           2991         LDQ     SSR+1
   007645 (0)004213 7560 00           2992         STQ     SSR+1
   007646 (0)004214 2360 00           2993         LDQ     WSR0
   007647 (0)004214 7560 00           2994         STQ     WSR0
   007650 (0)004215 2360 00           2995         LDQ     WSR4
   007651 (0)004215 7560 00           2996         STQ     WSR4
   007652 (0)004216 2360 00           2997         LDQ     PDBR
   007653 (0)004216 7560 00           2998         STQ     PDBR
   007654    4 00030 2361 00          2999         LDQ     SSDR,,DR.SSR    DR0
   007655    4 00030 7561 00          3000         STQ     SSDR,,DR.SSR
   007656    4 00031 2361 00          3001         LDQ     SSDR+1,,DR.SSR
   007657    4 00031 7561 00          3002         STQ     SSDR+1,,DR.SSR
   007660    4 00032 2361 00          3003         LDQ     SSDR+2,,DR.SSR  DR1
   007661    4 00032 7561 00          3004         STQ     SSDR+2,,DR.SSR
   007662    4 00033 2361 00          3005         LDQ     SSDR+3,,DR.SSR
   007663    4 00033 7561 00          3006         STQ     SSDR+3,,DR.SSR
   007664    4 00034 2361 00          3007         LDQ     SSDR+4,,DR.SSR  DR2
   007665    4 00034 7561 00          3008         STQ     SSDR+4,,DR.SSR
   007666    4 00035 2361 00          3009         LDQ     SSDR+5,,DR.SSR
   007667    4 00035 7561 00          3010         STQ     SSDR+5,,DR.SSR
 22:54 07/29/97  FILE=ISI$MINI.:E05TSI        MINI-DELTA -                                               127  BMAP - B00
   007670    4 00036 2361 00          3011         LDQ     SSDR+6,,DR.SSR  DR3
   007671    4 00036 7561 00          3012         STQ     SSDR+6,,DR.SSR
   007672    4 00037 2361 00          3013         LDQ     SSDR+7,,DR.SSR
   007673    4 00037 7561 00          3014         STQ     SSDR+7,,DR.SSR
   007674    4 00040 2361 00          3015         LDQ     SSDR+8,,DR.SSR  DR4
   007675    4 00040 7561 00          3016         STQ     SSDR+8,,DR.SSR
   007676    4 00041 2361 00          3017         LDQ     SSDR+9,,DR.SSR
   007677    4 00041 7561 00          3018         STQ     SSDR+9,,DR.SSR
   007700    4 00042 2361 00          3019         LDQ     SSDR+10,,DR.SSR DR5
   007701    4 00042 7561 00          3020         STQ     SSDR+10,,DR.SSR
   007702    4 00043 2361 00          3021         LDQ     SSDR+11,,DR.SSR
   007703    4 00043 7561 00          3022         STQ     SSDR+11,,DR.SSR
   007704    4 00044 2361 00          3023         LDQ     SSDR+12,,DR.SSR DR6
   007705    4 00044 7561 00          3024         STQ     SSDR+12,,DR.SSR
   007706    4 00045 2361 00          3025         LDQ     SSDR+13,,DR.SSR
   007707    4 00045 7561 00          3026         STQ     SSDR+13,,DR.SSR
   007710    4 00046 2361 00          3027         LDQ     SSDR+14,,DR.SSR DR7
   007711    4 00046 7561 00          3028         STQ     SSDR+14,,DR.SSR
   007712    4 00047 2361 00          3029         LDQ     SSDR+15,,DR.SSR
   007713    4 00047 7561 00          3030         STQ     SSDR+15,,DR.SSR
   007714    4 00020 2361 00          3031         LDQ     SSAR,,DR.SSR    AR0
   007715    4 00020 7561 00          3032         STQ     SSAR,,DR.SSR
   007716    4 00021 2361 00          3033         LDQ     SSAR+1,,DR.SSR  AR1
   007717    4 00021 7561 00          3034         STQ     SSAR+1,,DR.SSR
   007720    4 00022 2361 00          3035         LDQ     SSAR+2,,DR.SSR  AR2
   007721    4 00022 7561 00          3036         STQ     SSAR+2,,DR.SSR
   007722    4 00023 2361 00          3037         LDQ     SSAR+3,,DR.SSR  AR3
   007723    4 00023 7561 00          3038         STQ     SSAR+3,,DR.SSR
   007724    4 00024 2361 00          3039         LDQ     SSAR+4,,DR.SSR  AR4
   007725    4 00024 7561 00          3040         STQ     SSAR+4,,DR.SSR
   007726    4 00025 2361 00          3041         LDQ     SSAR+5,,DR.SSR  AR5
   007727    4 00025 7561 00          3042         STQ     SSAR+5,,DR.SSR
   007730    4 00026 2361 00          3043         LDQ     SSAR+6,,DR.SSR  AR6
   007731    4 00026 7561 00          3044         STQ     SSAR+6,,DR.SSR
   007732    4 00027 2361 00          3045         LDQ     SSAR+7,,DR.SSR  AR7
   007733    4 00027 7561 00          3046         STQ     SSAR+7,,DR.SSR
   007734    4 00054 2361 00          3047         LDQ     ICREGS+4,,DR.SSR A REGISTER
 22:54 07/29/97  FILE=ISI$MINI.:E05TSI        MINI-DELTA -                                               128  BMAP - B00
   007735    4 00054 7561 00          3048         STQ     ICREGS+4,,DR.SSR
   007736    4 00055 2361 00          3049         LDQ     ICREGS+5,,DR.SSR Q
   007737    4 00055 7561 00          3050         STQ     ICREGS+5,,DR.SSR
   007740    4 00050 2221 00          3051         LDX2    ICREGS,,DR.SSR  X0 INDEX REGISTER
   007741    4 00050 7421 00          3052         STX2    ICREGS,,DR.SSR
   007742    4 00050 7221 00          3053         LXL2    ICREGS,,DR.SSR  X1
   007743    4 00050 4421 00          3054         SXL2    ICREGS,,DR.SSR
   007744    4 00051 2221 00          3055         LDX2    ICREGS+1,,DR.SSR X2
   007745    4 00051 7421 00          3056         STX2    ICREGS+1,,DR.SSR
   007746    4 00051 7221 00          3057         LXL2    ICREGS+1,,DR.SSR X3
   007747    4 00051 4421 00          3058         SXL2    ICREGS+1,,DR.SSR
   007750    4 00052 2221 00          3059         LDX2    ICREGS+2,,DR.SSR X4
   007751    4 00052 7421 00          3060         STX2    ICREGS+2,,DR.SSR
   007752    4 00052 7221 00          3061         LXL2    ICREGS+2,,DR.SSR X5
   007753    4 00052 4421 00          3062         SXL2    ICREGS+2,,DR.SSR
   007754    4 00053 2221 00          3063         LDX2    ICREGS+3,,DR.SSR X6
   007755    4 00053 7421 00          3064         STX2    ICREGS+3,,DR.SSR
   007756    4 00053 7221 00          3065         LXL2    ICREGS+3,,DR.SSR X7
   007757    4 00053 4421 00          3066         SXL2    ICREGS+3,,DR.SSR
   007760    4 00004 2221 00          3067         LDX2    ICADD,,DR.SSR   INSTRUCTION COUNTER
   007761    4 00004 7421 00          3068         STX2    ICADD,,DR.SSR
   007762    4 00004 7221 00          3069         LXL2    ICADD,,DR.SSR   INDICATOR REGISTER
   007763    4 00004 4421 00          3070         SXL2    ICADD,,DR.SSR
                                      3071  *
   007764    777777777777             3072  MASK   OCT     777777777777    $MASK VALUE
                                      3073         IFE     BMAP,0,1
                                      3074         DETAIL  ON

 22:54 07/29/97  FILE=ISI$MINI.:E05TSI        MINI-DELTA -                                               129  BMAP - B00
                                      3075         TTLS    MINI-DELTA -
          (0)000000007765             3076  EXIT   EQU     *
   007765    777777 2360 07           3077         LDQ     =O777777,DL
   007766    105126 2110 03           3078         CMK     =2UEV,DU        EVALUATE COMMAND
   007767 (0)003360 6000 00           3079         TZE     EVALUA          YES
                                      3080  *
   007770 (0)010002 2140 00           3081         SZNC    RTNFLG          RETURN PRESENT
   007771 (0)000017 6000 00           3082         TZE     ERROR           NO-ERROR
   007772    001762 4744 07           3083         LDP     DR.SSR,ISR,DL   RE-INITIALIZE DR.SSR TO ISR REGISTER
   007773    001762 4754 07           3084         LDP     DR.USE,ISR,DL   RE-INITIALIZE DR.USE TO ISR REGISTER
   007774 (0)004332 7070 00           3085         TSX7    BRKFLP          PUT THE BREAK POINTS IN CORE
   007775 (0)010000 2270 00           3086         LDX7    RETURN
   007776 (0)010001 2210 00           3087         LDX1    OLDX1           X1 MUST BE RESTORED TO RETURN TO PL6
   007777    000000 7100 17           3088         TRA     0,X7            RETURN
                                      3089  *
   010000    000000 000000            3090  RETURN ZERO                    RETURN ADDRESS
   010001    000000 000000            3091  OLDX1  ZERO                    X1 SAVE AREA
   010002    000000 000000            3092  RTNFLG ZERO                    RETURN PRESENT FLAG
                                      3093         IFE     BMAP,0,2
                                      3094         IFE     COMBO,1,1
                                      3095         LIT                     GET LITERALS OUT OF THE WAY
                                      3096  ****   END
          (0)000000010002             3097  MINIUL EQU     *-1             ASSIGN LABEL TO TOP OF MINI-DELTA
                                      3098  *
                                      3099         IFE     BMAP,1,1
 2 000000                             3100         USE     ENDAA,1
   000000                             3101  AAUL   BSS     1
                                      3102         END
 1 000000    777777000077
   000001    106101125114
   000002    777777000377
   000003    123131040040
   000004    104102117117
   000005    104104040040
   000006    040040114120
   000007    040040115105
   000010    122101040040
 22:54 07/29/97  FILE=ISI$MINI.:E05TSI        MINI-DELTA -                                               130  BMAP - B00
   000011    040040103122
   000012    040040120101
   000013    040040124101
   000014    122040115105
   000015    000003000000

  CONTROL SECTION TABLE

   0 CODE   EVEN  010003 ISI$MINI
   1 RODATA EVEN  000016 LITERALS
   2 CODE   EVEN  000001 ENDAA

 22:54 07/29/97  FILE=ISI$MINI.:E05TSI        SYMBOL TABLE                                               131  BMAP - B00
 03301002 000000000000 AAFLTD         *31       734
 41000000 000000002000 AARD          *110      2943      2944
 61000000 000000000001 AARDVARK        *8       734       961      1126      1193      1695      1702
                                     2378      2384      2404      2696      2699      2713      2716
                                     2784      2787
 00101002 000000000000 AAUL         *3101
 01101000 000000005202 ABUF           706     *2817
 01101000 000000004641 ACCTRM        2486      2502      2536     *2573
 01101000 000000004640 ACCUM         2484      2519      2522      2526      2528      2532      2549
                                    *2572
 01101000 000000001163 ADDTBL         621       634       646       649      *669       798      1141
                                     1154      1516      2318
 03301003 000000000000 AFLTLC         *32       734       961      1126      1193
 01101000 000000001016 ALPHAF        *557      2085      2089      2105
 01101000 000000004044 ALPHAR        2032     *2045
 01101000 000000000116 ALST1         *216      1617      1686      1688      1689      1690      2686
                                     2688      2691      2701      2703      2707      2708      2727
                                     2730      2773      2775      2778      2779
 40000000 000000000201 ARANGE       *2913
 01101000 000000004556 ARITHM        2509     *2511
 01101000 000000005200 ASIZE         2800      2811     *2815
 01101000 000000002172 ASLTM          846     *1039
 41101000 000000001040 ASTER          229      *579
 01101000 000000001050 ASTER1         581       587      *588
 41101000 000000001062 AT             227      *600
 01101000 000000002156 ATBRK          809       949     *1029      1125      1134      1192      2355
 01101000 000000004134 BIN1         *2126      2129
 13101000 000000004143 BINCHR          11       474       494       936      1710      1746      1857
                                     1868     *2141      2277
 41101000 000000004361 BKFLPE         147       810       812       940       992     *2338
 01101000 000000004412 BKFLPF         712       714      2319      2327     *2363
 41101000 000000004402 BKFLPR         946      1123      1189     *2358
 01101000 000000004520 BLANKS         200       894       988      2265      2429      2468     *2470
                                     2680
 61000000 000000000001 BMAP            *7      2857      3073      3093      3099
 01101000 000000004316 BMESS         2264      2266      2267      2281      2288      2293      2294
                                     2295      2296     *2298
 22:54 07/29/97  FILE=ISI$MINI.:E05TSI        SYMBOL TABLE                                               132  BMAP - B00
 01101000 000000000564 BNMS          *429       435       640
 41000000 000000000012 BNMSL         *435       638
 01101000 000000002164 BOOTTM         889     *1036
 01101000 000000007241 BOUNDTEMP     2820      2823      2824      2842     *2854
 01101000 000000001102 BRK1          *617       626
 01101000 000000001106 BRK2           618      *621
 01101000 000000001112 BRK3           620       622      *625
 01101000 000000001120 BRK4           628      *632
 01101000 000000001126 BRK41         *639       643
 01101000 000000001132 BRK42         *644       653
 01101000 000000001135 BRK43          636       641      *648
 01101000 000000001073 BRK5           605      *610
 01101000 000000001146 BRKERR         609       631      *659
 01101000 000000004333 BRKFL1         717     *2310      2329
 01101000 000000004355 BRKFL2        2311     *2328
 41101000 000000004332 BRKFLP       *2308      2340      2361      3085
 01101000 000000001153 BRKNUM         602       619       630       655      *666
 01101000 000000004310 BRKRTN        2262      2271      2289     *2292
 02301004 000000000000 BSNLS          *33
 01101000 000000001334 CACHE          691      *767
 01101000 000000001336 CACHEF_RPM     694      *769
 01101000 000000001222 CACHE_DONE     692      *696
 01101000 000000001335 CACHE_RPM      695      *768
 01101000 000000002157 CBKNUM         800     *1030      1138
 01101000 000000004144 CHR1         *2142      2146
 01101000 000000004132 CHRBIN         309       330       452       511       606      1066      1508
                                     1583      1635      1651     *2124      2497
 01101000 000000000150 CINDIC         189       201      *217
 01101000 000000000757 COMAND         159       177       178       272       295       305       316
                                      500       501       543      *544      1626      1628      1629
                                     1642      1644      1645      2033      2035      2037      2038
                                     2040      2041      2065      2068      2071      2079      2083
                                     2094      2098
 41101000 000000000151 COMVEC         204      *219       238
 01101000 000000002174 CPTM           854     *1040
 01101000 000000004015 CR           *2009      2669
 01101000 000000007240 CTEMP         2828      2832      2838     *2853
 22:54 07/29/97  FILE=ISI$MINI.:E05TSI        SYMBOL TABLE                                               133  BMAP - B00
 01101000 000000000173 CTYPE          191       192       196      *239
 01101000 000000004642 CURTRM        2496      2533      2539      2554     *2574
 03201008 000000000000 DBOOT          *22      1079
 01101000 000000002271 DBT          *1082      1545
 01101000 000000002270 DBT0           876     *1081
 01101000 000000003073 DEF1         *1560      1577
 41101000 000000003105 DEF2          1557     *1571
 01101000 000000003113 DEF3          1573     *1578
 01101000 000000003123 DEF4          1576     *1587
 41101000 000000003054 DEFINE         232     *1543
 01101000 000000007233 DELCHAR       2834      2836     *2845
 03301000 000000000000 DESAAAUTO      *26       704       708       779       997      2802
 03301006 000000000000 DESC0          *35       267       834       842       850       858       866
                                      882       979       982
 03301007 000000000000 DESCCP         *36       849
 03301008 000000000000 DESCMI         *37       865       981
 03301009 000000000000 DESCRL         *38       311
 03301010 000000000000 DESCTEMP       *39       335       337      1168      1184      2323      2351
                                     2379      2387      2391      2392
 03301011 000000000000 DESCUI         *40       833       841       857
 03301012 000000000000 DESCXI         *41       881       978
 03301005 000000000000 DEVINFO        *34      1609      1614      1954
 01101000 000000000014 DHERE         *150       165       813      1987
 01101000 000000003563 DHIGH          723      1662      1756      1780      1790      1792      1843
                                     1869      1889     *1903
 40000000 000000000400 DIF          *2336
 01101000 000000003151 DISKDUMP      1550     *1615
 01101000 000000003350 DISKERR       1685      1700      1713     *1735
 41000000 000000001762 DISR           *93      2347
 01101000 000000003577 DLINE         1850      1861      1879      1885      1904      1905      1906
                                     1907      1908      1909      1910      1911      1912      1913
                                     1914     *1915
 01101000 000000003575 DLINEP        1664      1757     *1913
 01101000 000000003576 DLINTY        1668      1762     *1914
 01101000 000000003562 DLOW          1660      1769      1778      1788      1797      1827      1834
                                     1890      1893     *1902
 40000000 000000001771 DLS            *85
 22:54 07/29/97  FILE=ISI$MINI.:E05TSI        SYMBOL TABLE                                               134  BMAP - B00
 40000000 000000001765 DLSR           *96
 01101000 000000000115 DLST1         *216      1619      1621      1692      1694      2693      2695
                                     2710      2712      2732      2734      2781      2783
 01101000 000000002206 DMESS          892       926       928       930       932      1031      1032
                                     1033     *1045
 01101000 000000003560 DNWRDS        1670      1763      1832      1836      1851      1873      1891
                                    *1900
 41000000 000000000002 DOUBLE        *116      2749
 41000000 000000000001 DR.LS          *83        84
 40000000 000000000003 DR.LSA         *86
 41000000 000000000004 DR.SSR         *87       138       139       701       702       703       718
                                      739       742       764       817       873       899       973
                                     1119      1122      1133      1164      1182      1206      1211
                                     1214      1219      1222      1227      1230      1235      1238
                                     1243      1246      1251      1254      1259      1265      1269
                                     1274      1283      1295      1296      1299      1304      1308
                                     1313      1317      1322      1326      1331      1335      1340
                                     1344      1349      1353      1358      1384      1385      1388
                                     1389      1391      1392      1393      1394      1395      1396
                                     1397      1398      1402      1702      2349      2699      2716
                                     2787      2969      2970      2971      2972      2973      2974
                                     2975      2976      2977      2978      2979      2980      2981
                                     2982      2983      2984      2985      2986      2987      2988
                                     2999      3000      3001      3002      3003      3004      3005
                                     3006      3007      3008      3009      3010      3011      3012
                                     3013      3014      3015      3016      3017      3018      3019
                                     3020      3021      3022      3023      3024      3025      3026
                                     3027      3028      3029      3030      3031      3032      3033
                                     3034      3035      3036      3037      3038      3039      3040
                                     3041      3042      3043      3044      3045      3046      3047
                                     3048      3049      3050      3051      3052      3053      3054
                                     3055      3056      3057      3058      3059      3060      3061
                                     3062      3063      3064      3065      3066      3067      3068
                                     3069      3070      3083
 41000000 000000000005 DR.USE         *88       140       276       291       303       312       323
                                      334       335       338       465       469       483       488
                                      517       522       590       594       650       805       807
 22:54 07/29/97  FILE=ISI$MINI.:E05TSI        SYMBOL TABLE                                               135  BMAP - B00
                                      837       845       853       861       869       885       985
                                     1149      1152      1155      1166      1168      1170      1178
                                     1180      1184      1186      1674      1675      1695      1702
                                     1722      1782      1839      1841      1865      2171      2175
                                     2224      2229      2696      2699      2713      2716      2784
                                     2787      3084
 41000000 000000000006 DR.X           *89       284       285       291       324       325       334
                                      702       757       772      2315      2317      2320      2323
                                     2325      2330      2345      2347      2351      2353
 41000000 000000000000 DR.Y           *90       285       286       289       325       326       332
                                     2393      2400      2403      2406
 41000000 000000000107 DRANGE        2251     *2883
 01101000 000000001513 DRLER0         831       839       847       855       863       871       874
                                      887      *888
 01101000 000000001542 DRLER01        906      *908
 01101000 000000001553 DRLER1         916      *920
 01101000 000000001555 DRLER2         919      *923
 00101000 000000001573 DRLER3        *938
 01101000 000000001605 DRLER4         909       911      *950
 01101000 000000001546 DRLER5         902      *913
 01101000 000000001465 DRLER6         821      *864
 01101000 000000001474 DRLER7         823      *872
 01101000 000000001456 DRLER8         828      *856
 01101000 000000001447 DRLER9         825      *848
 01101000 000000001427 DRLERG         822       824      *829
 01101000 000000001440 DRLERL         827      *840
 01101000 000000001412 DRLERR         751       756       760       773       789       793       795
                                      797       799      *815
 01101000 000000001431 DRLERU         826      *832
 12101000 000000001210 DRLH            12      *684
 01101000 000000001250 DRLH0          713      *720
 01101000 000000001254 DRLH01         722      *725
 01101000 000000001410 DRLH1          741      *812
 01101000 000000001340 DRLH2          754      *771
 01101000 000000001302 DRLH3          729      *738
 00101000 000000001210 DRLHND        *683
 01101000 000000001624 DRLSCR         783      *966
 22:54 07/29/97  FILE=ISI$MINI.:E05TSI        SYMBOL TABLE                                               136  BMAP - B00
 01101000 000000003135 DSINX         1559      1564      1589      1594     *1599
 01101000 000000003324 DSKERM        1715     *1726
 00101000 000000005073 DSPACE       *2749
 41000000 000000001764 DSSR           *95       138       701      1702      2699      2716      2787
 01101000 000000003136 DSYMBL        1558      1565      1588     *1601
 01101000 000000003564 DTALAD        1856     *1904
 01101000 000000003565 DTALW0        1867     *1905
 41000000 000000001761 DTYP           *92       139       286       326       703      1702      2699
                                     2716      2787
 41101000 000000003374 DUMP          1548     *1755
 01101000 000000003520 DUMP1        *1863      1874
 01101000 000000003472 DUMP2        *1837      1848
 01101000 000000003511 DUMP3         1798      1835      1842      1844     *1854
 01101000 000000003464 DUMP4        *1831      1852      1880      1892
 01101000 000000003540 DUMP5         1870     *1882
 01101000 000000003546 DUMP6         1829     *1889
 01101000 000000003513 DUMP7        *1856      1897
 01101000 000000003424 DUMP9         1772     *1781
 01101000 000000003460 DUMPSUB       1718      1806     *1825
 01101000 000000003557 DUMPSW         721      1838      1840      1864      1866     *1899
 01101000 000000003561 DUMPTL        1669      1764      1876      1882     *1901
 01101000 000000007202 EDIT          2723     *2819
 01101000 000000007237 EDONE         2843     *2850
 01101000 000000001154 EMPTBL         608       617       654      *668       715       796      1071
                                     1139      1514      2310
 01101000 000000007616 ENVIR         2166      2219     *2969
 00101000 000000003653 ENVT1        *1933
 00101000 000000003654 ENVT2        *1934
 00101000 000000003655 ENVT3        *1935
 00101000 000000003635 ENVTAL       *1919
 01101000 000000002312 EOD            220     *1107
 41101000 000000000017 ERROR         *154       195       211       213       259       268       283
                                      290       328       329       333       444       449       451
                                      468       486       510       520       593       611       612
                                      615       624       647      1052      1068      1070      1096
                                     1098      1114      1117      1502      1507      1510      1512
                                     1553      1555      1561      1562      1574      1579      1580
 22:54 07/29/97  FILE=ISI$MINI.:E05TSI        SYMBOL TABLE                                               137  BMAP - B00
                                     1582      1591      1592      1596      1607      1743      1744
                                     1767      1768      1774      1776      1777      1779      1789
                                     1944      1946      1957      1961      1970      1972      1991
                                     1995      2015      2016      2174      2218      2227      2246
                                     2402      2425      2459      2492      2495      2505      2516
                                     2542      2544      2557      3082
 01101000 000000000027 ERROR1        *163      2793
 01101000 000000003370 EVAL1         1747     *1751
 01101000 000000003371 EVAL2         1745     *1752
 01101000 000000003372 EVAL3         1751      1752     *1753
 41101000 000000003360 EVALUA       *1741      3079
 41101000 000000007765 EXIT           228      1132     *3076
 01101000 000000002237 FAULT          223     *1050
 41000000 000000000005 FC            *101       739       899
 41000000 000000000000 FCNRDB        *119      1682
 41000000 000000000002 FCNRT9        *118      2674
 01101000 000000003351 FDA           1637      1653      1655      1656      1676      1684      1703
                                     1705      1720     *1736
 01101000 000000003344 FDAQM         1624     *1731
 01101000 000000004516 FINDEX        2447      2453      2458     *2467
 01101000 000000004457 FINSY1       *2431      2434
 01101000 000000004477 FINSY2       *2449      2456
 01101000 000000004467 FINSY3       *2440      2445
 01101000 000000004475 FINSY4        2443     *2447
 41101000 000000004450 FINSYB         252      1094      1556      1947      1973     *2423      2540
                                     2555
 01101000 000000001330 FIXIC          744      *761
 41000000 000000000032 FLTLOC        *111       734       961      1126      1193
 01101000 000000001666 FLTNM          925       927       929       931     *1004
 07101000 000000002245 FLTSW           28       910       943      1053      1055     *1058
 01101000 000000002230 FMESS         1034     *1047
 01101000 000000002176 GARBTM         830     *1041
 01101000 000000007210 GETCHAR      *2826      2844
 41101000 000000004046 GETF           181       210       248       327       447       506       524
                                     1062      1505      1552      1578      1630      1646      1771
                                     1943      1969     *2062      2073      2487      2491
 01101000 000000004101 GETF1         2084     *2091
 22:54 07/29/97  FILE=ISI$MINI.:E05TSI        SYMBOL TABLE                                               138  BMAP - B00
 01101000 000000004062 GETF2        *2076      2096
 01101000 000000004070 GETF3         2070     *2082
 01101000 000000004110 GETF4         2080     *2098
 01101000 000000004102 GETF5         2086     *2092
 01101000 000000004064 GETF6        *2078      2081
 01101000 000000004111 GETF7         2088     *2099
 41101000 000000002315 GO             233     *1111
 00101000 000000002344 GO1          *1139
 01101000 000000002334 GO2           1110      1113     *1130
 01101000 000000002320 GO3          *1115      1140      1142
 01101000 000000002324 GO3A         *1120      1135
 00101000 000000002350 GO4          *1144
 01101000 000000002366 GO5          *1158      1162
 01101000 000000002372 GO5OK        *1163      1409      1414
 01101000 000000002626 GO6           1278      1362     *1363      1377      1386      1390      1445
                                     1446      1447      1448      1449
 01101000 000000002404 GO8            759     *1174
 01101000 000000002420 GO8A         *1187      1212      1220      1228      1236      1244      1252
                                     1260      1266      1275      1292      1305      1314      1323
                                     1332      1341      1350      1359      1403
 01101000 000000002702 GOADD          755       948      1145      1165      1181      1191      1408
                                     1413     *1418      2348      2354
 01101000 000000001657 GOBACK         719       724       912      *995      1127      1173      1194
 01101000 000000002664 GOEIS3       *1406      1451      1452      1453      1455      1462      1463
                                     1466      1468      1470      1472      1473      1474      1475
                                     1476      1477      1478      1479
 01101000 000000002667 GOEIS4       *1411      1454      1456      1457      1458      1459      1460
                                     1461      1464      1465      1467      1469      1471
 01101000 000000002625 GORET        *1361      1485
 01101000 000000002430 GOTEO        *1205      1425
 01101000 000000002437 GOTEU        *1213      1426
 01101000 000000002446 GOTMI        *1221      1427
 01101000 000000002616 GOTMOZ       *1352      1484
 01101000 000000002455 GOTNC        *1229      1428
 01101000 000000002464 GOTNZ        *1237      1429
 01101000 000000002473 GOTOV        *1245      1430
 01101000 000000002502 GOTPL        *1253      1431
 22:54 07/29/97  FILE=ISI$MINI.:E05TSI        SYMBOL TABLE                                               139  BMAP - B00
 01101000 000000002607 GOTPNZ       *1343      1483
 01101000 000000002511 GOTRA        *1262      1432
 01101000 000000002515 GOTRC        *1268      1433
 01101000 000000002571 GOTRTF       *1325      1481
 01101000 000000002562 GOTRTN       *1316      1480
 01101000 000000002524 GOTSS        *1277      1434
 01101000 000000002525 GOTSX        *1279      1435      1436      1437      1438      1439      1440
                                     1441      1442
 01101000 000000002544 GOTTF        *1298      1443
 01101000 000000002600 GOTTN        *1334      1482
 01101000 000000002553 GOTZE        *1307      1444
 01101000 000000003347 GRANDCW       1687     *1734
 01101000 000000003336 GRANM         1708      1711      1727     *1729
 03201001 000000000000 GT_PACK        *15      1622
 02201000 000000000000 GT_SYSPACKAD   *14
 00101000 000000007612 HIGH         *2965
 41000000 000000000000 HJ.ULS        *108       289       291
 41000000 000000000225 HRANGE        2182      2215     *2924
 03301001 000000000000 I$AAAUTO$      *27      2810
 03301016 000000000000 I$MLS$         *45       284       951
 03301017 000000000000 I$PO$          *46      1675
 03301018 000000000000 I$REAL$        *47       312
 03301019 000000000000 I$TEMP$        *48       338      1702      2393      2699      2716      2787
 03301015 000000000000 I$TYP0$        *44       276       323       324       805       837       845
                                      853       861       869       885       985      1149      1178
                                     2315      2345
 41000000 000000000004 ICADD         *106       718       742       764      1119      1122      1133
                                     1164      1182      1206      1211      1214      1219      1222
                                     1227      1230      1235      1238      1243      1246      1251
                                     1254      1259      1265      1269      1274      1283      1299
                                     1304      1308      1313      1317      1322      1326      1331
                                     1335      1340      1344      1349      1353      1358      1402
                                     2349      3067      3068      3069      3070
 01101000 000000001313 ICOK           746      *748       765
 41000000 000000000050 ICREGS        *107      1295      1296      1384      1385      1388      1389
                                     1391      1392      1393      1394      1395      1396      1397
                                     1398      2969      2970      2971      2972      3047      3048
 22:54 07/29/97  FILE=ISI$MINI.:E05TSI        SYMBOL TABLE                                               140  BMAP - B00
                                     3049      3050      3051      3052      3053      3054      3055
                                     3056      3057      3058      3059      3060      3061      3062
                                     3063      3064      3065      3066
 41101000 000000000102 ID             184      *208       527
 01101000 000000000107 IDTALY         169       209      *215       604
 01101000 000000004010 INDEV          143       157       163       173      1108      1977      1985
                                     1997     *2004      2670      2739      2766
 01101000 000000001004 INDICT         168       503      *547      2063      2072      2095
 01101000 000000005144 INERR         2698      2715     *2791
 01101000 000000005175 INITPR2$      2807      2812     *2813
 41101000 000000003001 INSTBL       *1488      1494
 41000000 000000000245 IRANGE        2252     *2933
 03201014 000000000000 IRD$DUMP       *58      2951      2952
 03201015 000000000000 IRD$DUMP2      *59      2953      2954
 03201016 000000000000 IRF$CLSF       *60      2955      2956
 03201018 000000000000 IRN$MINIQ      *62      2959      2960
 03201017 000000000000 IRN$RCVRIO     *61      2957      2958
 03201012 000000000000 IRR$RECOVER    *49      2947      2948
 03201013 000000000000 IR_BUFF_D      *57      2949      2950
 41000000 000000001762 ISR            *94       140       303       807      1152      1180      2317
                                     2330      3083      3084
 02201005 000000000000 KEYIN          *19
 41101000 000000002246 KILL           226     *1061
 01101000 000000002257 KILL1        *1071      1075      1092
 01101000 000000002276 KILL2         1063      1085     *1090
 01101000 000000002301 KILL3         1064     *1094
 01101000 000000002275 KILLQ          222       880     *1088
 01101000 000000000054 KRD11         *185       212       508       526
 01101000 000000000666 KRD12          476      *498
 01101000 000000004036 KRD16         2034     *2038
 01101000 000000000063 KRD3          *192       194
 01101000 000000000067 KRD4           193      *196
 01101000 000000000075 KRD5          *202       206
 01101000 000000000615 KRD8           448      *456       568       577       598
 01101000 000000000670 KRD9           497      *500
 01101000 000000004745 LCINDX        2594      2609      2614     *2655
 01101000 000000004744 LCOFST        2593      2606      2608      2625     *2654
 22:54 07/29/97  FILE=ISI$MINI.:E05TSI        SYMBOL TABLE                                               141  BMAP - B00
 01101000 000000003352 LDA           1638      1659      1719     *1737
 01101000 000000003346 LDAQM         1640     *1733
 03201002 000000000000 LDSPWS         *16       970
 01101000 000000004637 LEX1          2483      2551      2563      2567     *2571
 41101000 000000004522 LEXP           443       610      1112      1560      1590      1742      1766
                                     1775      1959      2014     *2481
 01101000 000000004533 LEXP1        *2491      2537
 01101000 000000004536 LEXP10        2490     *2494
 01101000 000000004611 LEXP11       *2545      2559
 01101000 000000004543 LEXP2        *2499      2547
 01101000 000000004545 LEXP3        *2501      2504
 01101000 000000004552 LEXP4         2503     *2506
 01101000 000000004603 LEXP5         2493     *2539
 01101000 000000004614 LEXP6         2535     *2549
 01101000 000000004620 LEXP8         2489     *2554
 01101000 000000004633 LEXP9         2488     *2566
 01101000 000000004636 LEXPRT        2482      2550      2562      2566     *2570
 01101000 000000004570 LLEFT         2513     *2525
 01101000 000000004574 LMIN          2514     *2531
 01101000 000000004656 LOC1         *2597      2612
 01101000 000000004730 LOC10         2636     *2640
 01101000 000000004732 LOC11         2639     *2642
 01101000 000000004673 LOC2          2598      2603      2607     *2610
 01101000 000000004704 LOC3         *2620      2624
 01101000 000000004711 LOC4          2622     *2625
 01101000 000000004716 LOC5          2615     *2630
 01101000 000000004736 LOC6          2626     *2647
 01101000 000000004717 LOC8         *2631      2641
 01101000 000000004725 LOC9          2634     *2637      2645
 41101000 000000004643 LOCOFF         463       898      2273     *2584
 01101000 000000004741 LOCRTN        2585      2648     *2651
 01101000 000000004743 LOCTAL        2587      2621      2623      2627      2629      2638     *2653
 01101000 000000004742 LOCX1         2586      2647     *2652
 00101000 000000007610 LOW          *2963
 41000000 000000000075 LOWINX        1097      1575      2611     *2876
 01101000 000000004014 LP            1952     *2008      2750      2754      2768
 01101000 000000004575 LPLUS         2515      2523      2529     *2532
 22:54 07/29/97  FILE=ISI$MINI.:E05TSI        SYMBOL TABLE                                               142  BMAP - B00
 01101000 000000004563 LRIGHT        2512     *2518
 41000000 000000000001 LS             *84        85       951       952       953       954       955
                                      956       957       958       960       962      1674      1722
 41000000 000000000155 LS.AARDV      *127
 41000000 000000000156 LS.AARDV2     *127
 41000000 000000000033 LS.ASLLS      *127
 41000000 000000000053 LS.ASR        *127
 41000000 000000000002 LS.BUF        *127
 41000000 000000000161 LS.BUFCACH    *127
 40000000 000000000004 LS.CFU        *127
 41000000 000000000164 LS.CGCTXT     *127
 41000000 000000000163 LS.CGPT       *127
 41000000 000000000075 LS.CPGT1      *127
 41000000 000000000034 LS.CPLS       *127
 41000000 000000000055 LS.CWSQ1      *127
 41000000 000000000032 LS.DBLS       *127
 41000000 000000000004 LS.DS1        *127       287       288
 41000000 000000000005 LS.DS2        *127
 41000000 000000000006 LS.DS3        *127
 41000000 000000000007 LS.DS4        *127
 41000000 000000000010 LS.DS5        *127
 41000000 000000000011 LS.DS6        *127
 41000000 000000000012 LS.DS7        *127
 41000000 000000000013 LS.DS8        *127
 40000000 000000000202 LS.DVT        *127
 41000000 000000000016 LS.ECCB       *127
 41000000 000000000157 LS.FIRM       *127
 41000000 000000000155 LS.FLT        *127       959       960
 41000000 000000000045 LS.HJITU      *127
 41000000 000000000162 LS.IMX        *127
 41000000 000000000122 LS.IOEND      *127
 41000000 000000000176 LS.IPHY_MAP   *127
 41000000 000000000000 LS.IS         *127       952       953       954       955       956       957
                                      958
 41000000 000000000050 LS.ISB        *127
 41000000 000000000115 LS.JITPG      *127
 41000000 000000000001 LS.JITU       *127
 22:54 07/29/97  FILE=ISI$MINI.:E05TSI        SYMBOL TABLE                                               143  BMAP - B00
 40000000 000000000013 LS.LDCT       *127
 41000000 000000000134 LS.LDCTNC     *127
 41000000 000000000121 LS.LOWMEM     *127
 41000000 000000000167 LS.MAGAS      *127
 41000000 000000000172 LS.MAGECCB    *127
 41000000 000000000166 LS.MAGLS      *127
 41000000 000000000170 LS.MAGPS      *127
 41000000 000000000165 LS.MAGSS      *127
 41000000 000000000171 LS.MAGTCB     *127
 41000000 000000000043 LS.MHJIT      *127
 41000000 000000000177 LS.MINIQ_ENT  *127
 41000000 000000000054 LS.MISC       *127
 41000000 000000000130 LS.MISC2      *127
 41000000 000000000042 LS.MJIT       *127
 41000000 000000000035 LS.MLS        *127
 41000000 000000000132 LS.MLS1       *127
 41000000 000000000173 LS.MLSREAD    *127
 40000000 000000000156 LS.MONRL      *127
 41000000 000000000044 LS.MONSSS     *127
 41000000 000000000120 LS.MOUSE      *127
 41000000 000000000037 LS.MPT        *127
 41000000 000000000145 LS.MSTRHJ     *127
 41000000 000000000135 LS.MSTRPT     *127
 41000000 000000000041 LS.MTSTACK    *127
 41000000 000000000014 LS.NULL       *127
 41000000 000000000027 LS.PMME       *127
 41000000 000000000116 LS.PPUT       *127
 41000000 000000000131 LS.RCVENT     *127
 41000000 000000000127 LS.RCVRTN     *127
 41000000 000000000021 LS.REAL       *127
 41000000 000000000030 LS.REG        *127
 41000000 000000000124 LS.RONC       *127
 41000000 000000000003 LS.ROSEG      *127
 41000000 000000000125 LS.ROSEG8     *127
 41000000 000000000046 LS.SBUF1      *127
 41000000 000000000047 LS.SBUF2      *127
 41000000 000000000025 LS.SCR        *127
 22:54 07/29/97  FILE=ISI$MINI.:E05TSI        SYMBOL TABLE                                               144  BMAP - B00
 41000000 000000000051 LS.SCU        *127
 41000000 000000000174 LS.SEGTBL     *127
 41000000 000000000146 LS.SLV1HJ     *127
 41000000 000000000136 LS.SLV1PT     *127
 41000000 000000000147 LS.SLV2HJ     *127
 41000000 000000000137 LS.SLV2PT     *127
 41000000 000000000150 LS.SLV3HJ     *127
 41000000 000000000140 LS.SLV3PT     *127
 41000000 000000000151 LS.SLV4HJ     *127
 41000000 000000000141 LS.SLV4PT     *127
 41000000 000000000152 LS.SLV5HJ     *127
 41000000 000000000142 LS.SLV5PT     *127
 41000000 000000000153 LS.SLV6HJ     *127
 41000000 000000000143 LS.SLV6PT     *127
 41000000 000000000154 LS.SLV7HJ     *127
 41000000 000000000144 LS.SLV7PT     *127
 41000000 000000000017 LS.TCB        *127
 41000000 000000000123 LS.TIGR       *127
 41000000 000000000020 LS.TSTACK     *127
 41000000 000000000031 LS.ULS        *127
 41000000 000000000036 LS.UPT        *127
 41000000 000000000023 LS.USDS0      *127
 41000000 000000000024 LS.USDS1      *127
 41000000 000000000040 LS.USRIS      *127
 41000000 000000000022 LS.USSS       *127
 41000000 000000000117 LS.VPT        *127
 41000000 000000000052 LS.WINDOW     *127
 41000000 000000000133 LS.WS3MLS     *127
 41000000 000000000160 LS.WS3MLSNW   *127
 41000000 000000000175 LS.WSQ0PT     *127
 41000000 000000000026 LS.XD         *127
 41000000 000000000126 LS.XDRTN      *127
 41000000 000000000201 LS.XLALT      *127
 41000000 000000000015 LS.XLAT       *127
 41000000 000000000200 LS.XLNORM     *127
 41000000 000000000214 LSNMSL         280      *419
 01101000 000000007764 MASK          1584      2967      2968     *3072
 22:54 07/29/97  FILE=ISI$MINI.:E05TSI        SYMBOL TABLE                                               145  BMAP - B00
 01101000 000000004023 MAXOFF        2017     *2020      2592
 40000000 000000005000 MAXOFS       *2582
 12101000 000000000000 MDELTA          10        13      *137
 01101000 000000004013 ME           *2007      2676      2771
 41000000 000000001777 MEND         *2335      2336
 07101000 000000000000 MINID           29      *131      2945      2946
 03201004 000000000000 MINIQC_PL6     *18      1696
 03201003 000000000000 MINIQ_PL6      *17      2714      2785
 40101000 000000010002 MINIUL       *3097
 01101000 000000000724 MMESS          458      *530       532       533       534       535       536
                                     2180
 01101000 000000000633 MOD5           461      *470
 01101000 000000000656 MOD6           481      *489
 01101000 000000000717 MOD7           515      *523
 01101000 000000001337 MODE           688      *770
 41101000 000000000600 MODIFY         237      *441
 03301020 000000000000 MONLSR         *50       282
 01101000 000000002200 MONTM          870     *1042
 41000000 000000000101 MSKINX        1572      2543      2558     *2879
 41000000 000000001400 MSTRT        *2334      2336
 41000000 000000000022 NCOM          *238       240
 01101000 000000001007 NEWVAL         453       477      *550
 01101000 000000001010 NEWVFL         454       475      *551
 41101000 000000001030 NEXT           231      *569
 01101000 000000001036 NEXT1          573      *576
 41101000 000000000032 NEXTC          149       152       158      *166       182       224       277
                                      297       307       318       342       507       525       657
                                      661       811       942       944       993      1054      1056
                                     1077      1100      1365      1526      1529      1569      1585
                                     1597      1631      1723      1749      1795      1807      1960
                                     1963      1981      2018
 01101000 000000000044 NEXTC1         172       174      *177
 01101000 000000007227 NEXTCHAR     *2841      2847      2849
 40000000 000000000005 NINST        *1494
 01101000 000000002673 NMESS         1415     *1416
 01101000 000000002661 NOTRA         1208      1216      1224      1232      1240      1248      1256
                                     1271      1301      1310      1319      1328      1337      1346
 22:54 07/29/97  FILE=ISI$MINI.:E05TSI        SYMBOL TABLE                                               146  BMAP - B00
                                     1355     *1400
 01101000 000000004124 NRANGE        2082     *2111
 41000000 000000000074 NSINS         1157      1159      1160     *1486
 41000000 000000000024 NSYM          *123      2863      2940
 41000000 000000000250 NSYMLC        2455     *2936
 01101000 000000001017 NUMERF        *558      2087      2091      2104
 01101000 000000005071 OCOUT          151       160       162       176       939       991      1625
                                     1641     *2746      2792
 41101000 000000004024 OLD            235     *2023
 01101000 000000010001 OLDX1          145      3087     *3091
 01101000 000000001005 OPENLC         446       459       464       482       516      *548       561
                                      567       570       576       582       585       589       596
                                     2177      2214
 01101000 000000001006 OPNLCM         442       460       471       478       491       512      *549
                                      563       572       580       597      2561
 01101000 000000004122 OTALLY        2067      2093      2099      2103     *2109
 01101000 000000004011 OUTDEV        1665      1759      1793      1951      1958      1980     *2005
                                     2769
 01101000 000000003741 OUTP1         1950     *1956
 01101000 000000003744 OUTP2         1955     *1959
 41101000 000000003724 OUTPUT       *1942      2026
 41000000 000000000040 P.P           *120      2401
 41000000 000000000020 P.W           *121      2394
 01101000 000000004216 PDBR           698     *2203      2997      2998
 03301021 000000000000 PDEV           *51       148       164       171      1109      1978      1986
                                     2001      2682      2724      2764
 01101000 000000000110 PLST1         *216      1620      1693      2694      2711      2733      2782
 03301022 000000000000 PMASK          *52       733       907      2360
 03301023 000000000000 POBUF          *53      1671      1681      1734      2961      2962
 03301025 000000000000 PODESC         *55      1673
 03301024 000000000000 PO_INDX        *54      1990      2673
 01101000 000000001026 PREV1          564      *567
 41101000 000000001020 PREVIO         230      *560
 01101000 000000004270 PRT1          2268     *2274
 01101000 000000004302 PRT1A         2279      2283     *2284
 01101000 000000003656 PRT2          1931      1932      1933     *1936
 01101000 000000003664 PRT3          1919      1920      1921      1922      1934     *1937
 22:54 07/29/97  FILE=ISI$MINI.:E05TSI        SYMBOL TABLE                                               147  BMAP - B00
 01101000 000000003703 PRT4          1923      1924      1925      1926      1927      1928      1929
                                     1930      1935     *1939
 41101000 000000004256 PRTBK1        1536     *2261
 41101000 000000004265 PRTBRK         808      1519     *2270
 01101000 000000005172 PTRLIST       2803     *2809
 01101000 000000002310 QFLAG          170       710       792       879       890      1076      1084
                                     1089     *1102
 01101000 000000004016 RANGE         1968     *2013
 41101000 000000004241 RCHECK         566       575       583     *2238
 03201009 000000000000 RCVR           *23      1078
 41000000 000000000000 RD            *113      2667
 01101000 000000003244 RDDSK        *1677      1721
 01101000 000000003272 RDDSK1        1697     *1699
 01101000 000000003273 RDDSK2        1698     *1701
 01101000 000000003315 RDDSK3        1714     *1717
 41101000 000000003751 READ           236     *1965
 01101000 000000003770 READ1         1976     *1983
 01101000 000000003766 READ1A       *1979      1998      2002
 01101000 000000003775 READ2         1984     *1989
 01101000 000000004006 READ2A        1993     *2000
 03201007 000000000000 READ_PATCH     *21      2697
 03301014 000000000000 REC_DPX        *43      1610      1616
 01101000 000000010000 RETURN         144      3086     *3090
 01101000 000000004252 RIND          2242      2244     *2249
 01101000 000000001220 RPM_CACHE      690      *693
 03301026 000000000000 RPM_FLG        *56       689
 01101000 000000010002 RTNFLG         146      1116      1131      3081     *3092
 41000000 000000006000 S.AIS          *91       216      2810      2811      2812
 03301027 000000000000 S1000_FLG      *63       686       733       743       907      2360
 01101000 000000005176 SAVAUTO        705       778       996     *2814
 01101000 000000001172 SAVINT         656      *670      2322      2326
 41000000 000000000002 SCRLF         *115      2757
 00101000 000000001664 SCRMES       *1001
 01101000 000000001201 SEGTBL         623       633       645      *671       716       801      1072
                                     1146      2278      2312
 01101000 000000005161 SETAUTO        709     *2799
 01101000 000000007514 SFETCH        1567      1595      2166      2168      2170      2545      2599
 22:54 07/29/97  FILE=ISI$MINI.:E05TSI        SYMBOL TABLE                                               148  BMAP - B00
                                    *2941
 41101000 000000003014 SHOW          1499     *1504
 01101000 000000003025 SHOW1        *1514      1524      1533
 01101000 000000003035 SHOW2         1515     *1522      1537
 01101000 000000003045 SHOW3         1506     *1531
 00101000 000000003050 SHOW4        *1535
 01101000 000000003033 SHOWR        *1520      1525
 01101000 000000004251 SINDEX        2239      2241      2243     *2248
 01101000 000000002705 SINS          1159      1160     *1424      1486
 01101000 000000004012 SLEW          1962     *2006
 01101000 000000001151 SNKDRL        *664       728       753       758       905       945      1167
                                     1171      1188      2339
 01101000 000000002704 SNKVCT        1153      1175     *1420      2342
 03301028 000000000000 SPW1           *64      1695      1702      2696      2699      2713      2716
                                     2784      2787
 03301029 000000000000 SPW2           *65      1796      1826      1886
 03301030 000000000000 SPW3           *66      2378      2384      2404
 03301031 000000000000 SPWF           *67       734       961      1126      1193
 03301032 000000000000 SPWI           *68       733       907       967       972      2360
 01101000 000000004254 SRANGE        2240     *2251
 01101000 000000004210 SREG          2178      2181     *2198
 41000000 000000000020 SSAR          *103      3031      3032      3033      3034      3035      3036
                                     3037      3038      3039      3040      3041      3042      3043
                                     3044      3045      3046
 41000000 000000000030 SSDR          *104      2999      3000      3001      3002      3003      3004
                                     3005      3006      3007      3008      3009      3010      3011
                                     3012      3013      3014      3015      3016      3017      3018
                                     3019      3020      3021      3022      3023      3024      3025
                                     3026      3027      3028      3029      3030
 40000000 000000000005 SSFLT          *99
 40000000 000000000004 SSIC           *98
 41000000 000000000010 SSISR         *102       702       817       873       973      2973      2974
                                     2975      2976      2977      2978      2979      2980      2981
                                     2982      2983      2984      2985      2986      2987      2988
 01101000 000000004212 SSR            697     *2199      2989      2990      2991      2992
 01101000 000000007515 SSTORE        1568      2219      2221      2223     *2942
 01101000 000000007242 STARTTEMP     2825      2846     *2855
 22:54 07/29/97  FILE=ISI$MINI.:E05TSI        SYMBOL TABLE                                               149  BMAP - B00
 41101000 000000003006 STEP           234     *1496
 01101000 000000004413 STORE          487       521      1169      1185      2228      2324      2352
                                    *2377
 01101000 000000004423 STORE1        2383     *2386
 01101000 000000004514 SYMBUF        2430      2435      2462     *2465
 41101000 000000004153 SYMLC1         493     *2162
 01101000 000000004167 SYMLC2        2169     *2176
 41101000 000000004155 SYMLOC         473       586     *2165
 41101000 000000004217 SYMSTR         480       514     *2212
 01101000 000000004513 SYMTAL        2427      2428      2431      2433     *2463
 41101000 000000007244 SYMTBL        1099      1566      2179      2449      2451      2597      2616
                                    *2862      2876      2879      2883      2913      2924      2933
                                     2936
 01101000 000000003200 SYSD1        *1639      1648      1650
 01101000 000000003222 SYSD2         1647      1654     *1658
 01101000 000000003140 SYSDISK       1501     *1605      1632      1634
 03301013 000000000000 SYS_DPX        *42      1606      1683
 01101000 000000002642 TAGTBL        1380     *1383
 01101000 000000004142 TALLY         2124      2126     *2132
 01101000 000000000174 TALLY1         190      *240
 01101000 000000000740 TALLY2         462      *532
 01101000 000000000741 TALLY3         470      *533       584
 01101000 000000000742 TALLY4         490      *534
 01101000 000000000743 TALLY5         495      *535
 01101000 000000000744 TALLY6         498      *536
 01101000 000000000745 TALLY7         175      *537
 01101000 000000004311 TALLY8        2272     *2293
 01101000 000000004312 TALLY9        2282      2285     *2294
 01101000 000000001012 TALTMP        *553      2618      2619      2620
 01101000 000000002160 TALY10         897     *1031
 01101000 000000002161 TALY11         937     *1032
 01101000 000000004314 TALY12        2276     *2296
 01101000 000000000747 TALY13         155       161      *539
 01101000 000000002163 TALY14         659     *1034
 01101000 000000002672 TALY15        1363     *1415
 01101000 000000000751 TALY16         150      *541       990
 01101000 000000002162 TALY17         935     *1033
 22:54 07/29/97  FILE=ISI$MINI.:E05TSI        SYMBOL TABLE                                               150  BMAP - B00
 01101000 000000005147 TALY18        2791     *2794
 01101000 000000003052 TALY19        1527     *1539
 01101000 000000004517 TBLNKS        1706      1801     *2468
 01101000 000000002274 TBOOT          221       878     *1086
 00101000 000000000124 TBUF.C        *216
 00101000 000000000123 TBUF.N        *216
 01101000 000000001014 TEMP           187       188       205       552      *555       968       971
                                     1280      1285      1378      1381      2187      2189      2192
                                     2389      2397      2426      2432      2438      2441      2442
                                     2588      2590      2601      2602      2605      2617
 03301033 000000000000 TEMPD          *69       465       466       483       484       517       518
                                      590       591       650       651      1695      1782      1783
                                     1784      2171      2172      2224      2225      2696      2713
                                     2784
 01101000 000000004330 TEMPTY        2263     *2301
 01101000 000000004127 TERM          2076      2077      2078      2112     *2113      2499      2500
                                     2501      2506
 01101000 000000003353 TMPSV         1517      1518      1520      1521      1611      1613     *1738
                                     2684      2704      2717
 41000000 000000000003 TOP           *117      2753
 01101000 000000005076 TPAGE         1707      1802     *2753
 07101000 000000002311 TQFLAG          30       788       877       891      1081      1087     *1103
 01101000 000000002631 TRATAG        1209      1217      1225      1233      1241      1249      1257
                                     1263      1272      1281      1302      1311      1320      1329
                                     1338      1347      1356     *1373
 40000000 000000000000 TRMASK        *100
 01101000 000000002542 TSXTBL        1291     *1294
 01101000 000000005037 TYEDIT        2700     *2717
 01101000 000000004746 TYIN           179       504      1627      1643     *2667
 01101000 000000004760 TYIN1         2671      2672      2675     *2677
 01101000 000000005064 TYIN2         2725     *2738
 01101000 000000005067 TYIN3         2737     *2742
 01101000 000000005013 TYNP          2683     *2701
 01101000 000000005116 TYP1          2751      2755     *2772
 01101000 000000005115 TYP2          2747      2767     *2771
 01101000 000000005112 TYP3          2761      2765     *2768
 01101000 000000005105 TYPE           156       496       499       660      1364      1528      2286
 22:54 07/29/97  FILE=ISI$MINI.:E05TSI        SYMBOL TABLE                                               151  BMAP - B00
                                     2741      2758     *2763
 01101000 000000005103 TYPE1         1712      1716      1804      1877      1883     *2760
 01101000 000000005160 TYPRTN        2772      2788     *2797
 01101000 000000005101 TYPSNL        1748     *2757
 01101000 000000005157 TYRTN         2668      2743     *2796
 01101000 000000002170 UDTM           838     *1038
 41000000 000000000234 UNMSL          258      *428
 01101000 000000004030 UPPERC         180       505     *2032      2039
 01101000 000000000202 USE            225      *246
 01101000 000000000236 USE2           264      *279
 01101000 000000000267 USE4           251      *308
 01101000 000000000301 USE5           281      *320
 01101000 000000003454 USEM           273       296       306       317       893       895       987
                                      989      1803     *1811
 01101000 000000000577 USENO          142       270       293       302       314       340       341
                                     *438       614       727
 01101000 000000002202 USERTM         862     *1043
 41000000 000000000156 UVNMSL         265      *402
 01101000 000000000576 VECTNO         141       269       292       301       313       339      *437
                                      616       726       802       835       843       851       859
                                      867       883       941       983
 00101000 000000000202 VECTR         *247
 01101000 000000000211 VECTR1        *255       261
 01101000 000000000217 VECTR2         257      *262
 01101000 000000000260 VECTR3         249      *300
 01101000 000000000330 VNMS           256      *346       402       412       419       428       637
                                     2280
 41000000 000000000200 VNMSL          263       289       291      *412
 41000000 000000010000 WHOMINI       *112      2685
 41000000 000000000001 WRITE         *114      2746      2760      2763
 03201006 000000000000 WRITE_PATCH    *20      2735
 01101000 000000004214 WSR0           699     *2201      2993      2994
 01101000 000000004215 WSR4           700     *2202      2995      2996
 41000000 000000000002 WSRX          *109       976      2382
 40000000 000000000000 X0             *72
 40000000 000000000001 X1             *73
 40000000 000000000002 X2             *74
 22:54 07/29/97  FILE=ISI$MINI.:E05TSI        SYMBOL TABLE                                               152  BMAP - B00
 40000000 000000000003 X3             *75
 40000000 000000000004 X4             *76
 40000000 000000000005 X5             *77
 40000000 000000000006 X6             *78
 03201011 000000000000 X66_MSTATIC    *25      2805
 40000000 000000000007 X7             *79
 03301034 000000000000 XDFLAG         *70       774       781
 03201010 000000000000 XDRET          *24       780
 01101000 000000002166 XDTM           886       986     *1037
 01101000 000000002703 XECINT        1172      1183     *1419      2350
 01101000 000000000605 XOLD          *447      2027
 01101000 000000004152 XTALLY        2141      2145     *2148

     640 SYMBOLS

 22:54 07/29/97  FILE=ISI$MINI.:E05TSI        MACRO TABLE                                                153  BMAP - B00
 MINIT          216
 MONLS          127
 PLLAQ         2384      2404
 PSHAQ         2378
 PULL          1702      2699      2716      2787
 PUSH          1695      2696      2713      2784
 RFAULT         961      1126      1193
 RIMR1          907      2360
 SFAULT         734
 SIMR           733

      40 MACROS

    SYMBOL SPACE USED 10025 WORDS
     MACRO SPACE USED  5139 WORDS
   INPUT RECORDS READ  6966
 STATEMENTS PROCESSED  3565
         ELAPSED TIME  0:32.08
             CPU TIME    29.17 SEC.
        ASSEMBLY RATE  7333 STATEMENTS/CPU MIN.

      NO ERRORS

