VERSION E05

PL6.E3A0      #001=INITM File=ISI$MM.:E05TSI                                     TUE 07/29/97 22:54 Page:1
        1        1        /*M* ROUTINES TO INITIALIZE MM TABLES                */
        2        2        /*T***********************************************************/
        3        3        /*T*                                                         */
        4        4        /*T* Copyright (c) Bull HN Information Systems Inc., 1997    */
        5        5        /*T*                                                         */
        6        6        /*T***********************************************************/
        7        7        /*X* PLM=8,IND=2,THI=2,ENU=2,CSU=2,DTI=4,DCI=4,ECU=4,AND */
        8        8        INITM:  PROC;
        9        9        /* Build WSPTD at start of MON ISR */
       10       10        /* Build Page Table for MON */
       11       11        /**/
       12       12        %INCLUDE IS$MACROS;
       13     1287        %INCLUDE B_STRINGS_C;
       14     1416        %INCLUDE M_INFO_C;
       15     1556        %INCLUDE B$JIT_C;
       16     1870        /**/
       17     1871        %B$JIT0(STCLASS="BASED(INFOX$)");
       18     1960    1         2 * BIT(1);                       /* Just to end the macro              */
       19     1961        %DISKDIR(NAME=ADIR,STCLASS="SYMREF");
       20     2217    1   DCL INFOX$ PTR;
       21     2218        %PTR_STRUCT(NAME=INFOX_PTR,STCLASS="REDEF INFOX$");
       22     2236    1   DCL INFOY$ PTR;
       23     2237        %PTR_STRUCT(NAME=INFOY_PTR,STCLASS="REDEF INFOY$");
       24     2255    1   DCL WS0PT$ PTR SYMREF;
       25     2256    1   DCL 1 WSPTD(0:28) ALIGNED BASED(INFOX$), /* Directory                         */
       26     2257        %DIRW(LVL=2);
       27     2285    1   DCL 1 MONPT(0:0) ALIGNED BASED(INFOY$), /* MON PT                             */
       28     2286        %PTW(LVL=2);
       29     2314    1   DCL 1 WS0PT(0:0) ALIGNED BASED(WS0PT$), /* WS0 PT                             */
       30     2315        %PTW(LVL=2);
       31     2343        %AALS(STCLASS="BASED(AALS$)");          /* AARDV LSR                          */
       32     4670    1   DCL BSNLS BIT(1) SYMREF;
       33     4671    1   DCL AALS$ PTR STATIC INIT(ADDR(BSNLS));
       34     4672    1   DCL MSEGTBL BIT(1) SYMREF;
       35     4673    1   DCL MSEGTBL$ PTR STATIC INIT(ADDR(MSEGTBL));
       36     4674        %PTR_STRUCT(NAME=MSEGTBL_PTR,STCLASS="REDEF MSEGTBL$");
       37     4692    1   DCL 1 MSEGTAB BASED(MSEGTBL$),
PL6.E3A0      #001=INITM File=ISI$MM.:E05TSI                                     TUE 07/29/97 22:54 Page:2
       38     4693    1         2 FSTPG_BYTEAD UBIN WORD,
              4693                  /* Byte index in MON PT of the frst page of overlay */
       39     4694    1         2 NODEINFO(0:14),
       40     4695    1           3 RELADDR UBIN HALF UNAL, /* Byte index in SEGTAB for this node mapwords */
       41     4696    1           3 SIZE UBIN HALF UNAL;          /* Size of mapwords for this node     */
       42     4697    1   DCL 1 BAS_PT(0:0) ALIGNED BASED(INFOX$),
       43     4698        %PTW(LVL=2);                            /* PT for overlays , build in SEGTAB  */
       44     4726    1   DCL MROREC_NODES# UBIN WORD BASED(INFOX$); /* Nodes nr on PO tape             */
       45     4727    1   DCL NUMNODES UBIN WORD;
       46     4728    1   DCL LSEG#PTWS UBIN WORD;           /* Max size in PT words of an overlay seg  */
       47     4729    1   DCL STARTPG UBIN WORD;
       48     4730    1   DCL LASTPG UBIN WORD;
       49     4731        %DIRW(NAME=DIRW0,STCLASS="BASED(INFOY$)"); /* Word 0 of Dir for S1000         */
       50     4759        %PTW(NAME=W_PTW,STCLASS="STATIC");      /* Page Table Word                    */
       51     4787        %DIRHDR(NAME=HDRMH,STCLASS="SYMREF");   /* Headers                            */
       52     4798        %DIRHDR(NAME=HDRMD,STCLASS="SYMREF");
       53     4809        %DIRHDR(NAME=HDRMP0,STCLASS="SYMREF");
       54     4820        %DIRHDR(NAME=BAS_HDR,STCLASS="BASED(HDR$)");
       55     4831    1   DCL HDRMP1 BIT(1) SYMREF;
       56     4832    1   DCL HDR$ PTR;
       57     4833        /**/
       58     4834    1   DCL PPDBR UBIN(19) ALIGNED STATIC SYMDEF;
       59     4835    1   DCL DIR_ENT0 BIT(36) ALIGNED STATIC SYMDEF; /* WSPTD0                         */
       60     4836    1   DCL MONPLL UBIN WORD SYMREF;
       61     4837    1   DCL BASEMPT UBIN WORD SYMREF;
       62     4838    1   DCL BASEJ UBIN WORD SYMREF;
       63     4839    1   DCL S1000_FLG BIT(1) SYMREF;
       64     4840    1   DCL XA_MODE BIT(1) SYMREF;
       65     4841    1   DCL RPM_FLG BIT(1) SYMREF;
       66     4842    1   DCL RCV_FLG BIT(4) SYMREF;
       67     4843        %PTW(NAME=FPMC,STCLASS="SYMREF",LVL=1); /* Free page constant                 */
       68     4871        /**/
       69     4872    1   DCL I UBIN WORD;
       70     4873    1   DCL J SBIN WORD;
       71     4874        /**/
       72     4875    1           INFOX_PTR='0'B;                 /* Build Dir Pointer                  */
       73     4876    1           INFOX_PTR.S_D_FIELD=%ALS_MONIS;
PL6.E3A0      #001=INITM File=ISI$MM.:E05TSI                                     TUE 07/29/97 22:54 Page:3
       74     4877    2           DO I=1 TO 9;                    /* Fill Dir with filler               */
       75     4878    2             WSPTD(I)='0'B;
       76     4879    2             WSPTD.P(I)='1'B;              /* PT present                         */
       77     4880    2             WSPTD.NBLKS(I)=16;
       78     4881    2           END;                            /* DO I=                              */
       79     4882    2           IF S1000_FLG='1'B THEN DO;      /* Move page table entry for WS0      */
       80     4883    2                 INFOY_PTR='0'B;
       81     4884    2                 INFOY_PTR.S_D_FIELD=%ALS_AIS;
       82     4885    2                 INFOY_PTR.WOFFS=512;
       83     4886    2                 WSPTD(0)=DIRW0;
       84     4887    2                 DIR_ENT0=DIRW0;
       85     4888    2               END;                        /* THEN                               */
       86     4889    1             ELSE;
       87     4890        /* Init Mon page table */
       88     4891    1           INFOY_PTR='0'B;
       89     4892    1           INFOY_PTR.S_D_FIELD=%ALS_MPGTBL;
       90     4893        /* Fill with free page pattern */
       91     4894    2           DO I=0 TO 1024*11-1;
       92     4895    2             MONPT(I)=FPMC;
       93     4896    2           END;                            /* DO I=                              */
       94     4897        /* Init entry in WSPTD for MON */
       95     4898    1           IF RPM_FLG THEN WSPTD.BLKNO(%MONWSQ)=BASEMPT/1024;
       96     4899    2             ELSE IF S1000_FLG='1'B THEN DO;
       97     4900    2                   IF XA_MODE THEN WSPTD.BLKNO(%MONWSQ)=WS0PT.RPN(BASEMPT/1024);
       98     4901    2                     ELSE WSPTD.BLKNO(%MONWSQ)=WS0PT.RPN(BASEMPT/1024)*16;
              4901                              /* Make it a mod 64 address */
       99     4902    2                 END;                      /* THEN                               */
      100     4903    1               ELSE WSPTD.BLKNO(%MONWSQ)=BASEMPT/64;
      101     4904        /* Init entry in WSPTD for CG */
      102     4905    1           WSPTD(%CGWSQ)='0'B;
      103     4906    1           WSPTD.P(%CGWSQ)='1'B;
      104     4907    1           WSPTD.NBLKS(%CGWSQ)=16*10;
      105     4908    1           IF RPM_FLG THEN WSPTD.BLKNO(%CGWSQ)=(BASEMPT+1024)/1024;
      106     4909    2             ELSE IF S1000_FLG='1'B THEN DO;
      107     4910    2                   IF XA_MODE THEN WSPTD.BLKNO(%CGWSQ)=WS0PT.RPN((BASEMPT+1024)/1024);
      108     4911    2                     ELSE WSPTD.BLKNO(%CGWSQ)=WS0PT.RPN((BASEMPT+1024)/1024)*16;
              4911                              /* Make it a mod 64 address */
PL6.E3A0      #001=INITM File=ISI$MM.:E05TSI                                     TUE 07/29/97 22:54 Page:4
      109     4912    2                 END;                      /* THEN                               */
      110     4913    1               ELSE WSPTD.BLKNO(%CGWSQ)=(BASEMPT+1024)/64;
      111     4914        /* Init PT words */
      112     4915    2           DO I=%PGTBLLO TO %PGTBLHI;
      113     4916    2             MONPT.SCTRL(I)=%SCUSER;
      114     4917    2             MONPT.CTRL(I)=%PGINMEM|%PGWRITE|%PGIOM;
      115     4918    2             IF S1000_FLG='1'B THEN MONPT.RPN(I)=WS0PT.RPN(BASEMPT/1024+I);
      116     4919    2               ELSE MONPT.RPN(I)=BASEMPT/1024+I;
      117     4920    2           END;                            /* DO I=                              */
      118     4921    2           DO I=%JITPG TO %JITEND;         /* JIT pages                          */
      119     4922    2             J=I-%JITPG;
      120     4923    2             MONPT.SCTRL(I)=%SCUSER;
      121     4924    2             MONPT.CTRL(I)=%PGINMEM|%PGWRITE|%PGIOM;
      122     4925    2             IF S1000_FLG='1'B THEN MONPT.RPN(I)=WS0PT.RPN(BASEJ/1024+J);
      123     4926    2               ELSE MONPT.RPN(I)=BASEJ/1024+J;
      124     4927    2           END;                            /* DO I=                              */
      125     4928        /* MON low real pages */
      126     4929    2           DO I=0 TO 7;
      127     4930    2             MONPT.SCTRL(%REALLO+I)=%SCUSER;
      128     4931    2             MONPT.CTRL(%REALLO+I)=%PGINMEM|%PGWRITE|%PGIOM;
      129     4932    2             IF S1000_FLG='1'B THEN MONPT.RPN(%REALLO+I)=WS0PT.RPN(I);
      130     4933    2               ELSE MONPT.RPN(%REALLO+I)=I;
      131     4934    2           END;                            /* DO I=                              */
      132     4935        /* Init Pt for MON HJIT */
      133     4936    1           J=HDRMH.SIZE;
      134     4937    1           I=0;
      135     4938    1   INITMHJ:
      136     4939    1           MONPT.SCTRL(%HJITPG+I)=%SCUSER;
      137     4940    1           MONPT.CTRL(%HJITPG+I)=%PGINMEM|%PGWRITE|%PGHKEEP|%PGIOM;
      138     4941    1           IF S1000_FLG='1'B THEN MONPT.RPN(%HJITPG+I)=WS0PT.RPN(HDRMH.BASE/1024+I);
      139     4942    1             ELSE MONPT.RPN(%HJITPG+I)=HDRMH.BASE/1024+I;
      140     4943    2           IF (J-1024)>0 THEN DO;
      141     4944    2                 J=J-1024;
      142     4945    2                 I=I+1;
      143     4946    2                 GOTO INITMHJ;
      144     4947    2               END;                        /* THEN                               */
      145     4948    1             ELSE;
PL6.E3A0      #001=INITM File=ISI$MM.:E05TSI                                     TUE 07/29/97 22:54 Page:5
      146     4949        /* Init page table for overlay */
      147     4950    1           MONPT.SCTRL(%SEGTBL)=%SCUSER;
      148     4951    1           MONPT.CTRL(%SEGTBL)=%PGINMEM|%PGWRITE|%PGIOM;
      149     4952    1           IF S1000_FLG='1'B THEN MONPT.RPN(%SEGTBL)=WS0PT.RPN(MSEGTBL_PTR.WOFFS/1024);
      150     4953    1             ELSE MONPT.RPN(%SEGTBL)=MSEGTBL_PTR.WOFFS/1024;
      151     4954        /* Init page table for ISR */
      152     4955    1           J=HDRMD.SIZE;
      153     4956    1           I=0;
      154     4957    1   INITM1:
      155     4958    1           MONPT.SCTRL(%ISEGLO+I)=%SCUSER;
      156     4959    1           MONPT.CTRL(%ISEGLO+I)=%PGINMEM|%PGWRITE|%PGIOM;
      157     4960    1           IF S1000_FLG='1'B THEN MONPT.RPN(%ISEGLO+I)=WS0PT.RPN(HDRMD.BASE/1024+I);
      158     4961    1             ELSE MONPT.RPN(%ISEGLO+I)=HDRMD.BASE/1024+I;
      159     4962    2           IF (J-1024)>0 THEN DO;
      160     4963    2                 J=J-1024;
      161     4964    2                 I=I+1;
      162     4965    2                 GOTO INITM1;
      163     4966    2               END;                        /* THEN                               */
      164     4967    1             ELSE;
      165     4968    1           I=I+1;
      166     4969    1           MONPLL=%ISEGLO+I;          /* Save MON PROC lowest page for recovery  */
      167     4970    1           J=HDRMP0.SIZE;
      168     4971    1   INITM2:
      169     4972    1           MONPT.SCTRL(%ISEGLO+I)=%SCUSER;
      170     4973    1           MONPT.CTRL(%ISEGLO+I)=%PGINMEM|%PGHKEEP|%PGIOM;
      171     4974    1           IF S1000_FLG='1'B THEN MONPT.RPN(%ISEGLO+I)=WS0PT.RPN(HDRMD.BASE/1024+I);
      172     4975    1             ELSE MONPT.RPN(%ISEGLO+I)=HDRMD.BASE/1024+I;
      173     4976    2           IF (J-1024)>0 THEN DO;
      174     4977    2                 J=J-1024;
      175     4978    2                 I=I+1;
      176     4979    2                 GOTO INITM2;
      177     4980    2               END;                        /* THEN                               */
      178     4981    1             ELSE;
      179     4982        /* Build the overlay info */
      180     4983    1           MSEGTAB.FSTPG_BYTEAD=(%ISEGLO+I+1)*4;
      181     4984    1           INFOX_PTR='0'B;
      182     4985    1           INFOX_PTR.S_D_FIELD=%ALS_DEFDIR;
PL6.E3A0      #001=INITM File=ISI$MM.:E05TSI                                     TUE 07/29/97 22:54 Page:6
      183     4986    1           NUMNODES=MROREC_NODES#;         /* Nr of nodes as on the PO tape      */
      184     4987    1           HDR$=ADDR(HDRMP1);
      185     4988    1           LSEG#PTWS=HDR$->BAS_HDR.SIZE;
      186     4989    2           DO I=1 TO NUMNODES-2;           /* Nodes#-root-1                      */
      187     4990    2             LSEG#PTWS=MAXIMUM(LSEG#PTWS,PINCRW(HDR$,I*4)->BAS_HDR.SIZE);
      188     4991    2           END;                            /* DO I=                              */
      189     4992    1           LSEG#PTWS=(LSEG#PTWS+1023)/1024; /* Make it a nr of pages             */
      190     4993    2           DO I=0 TO NUMNODES-2;
      191     4994    2             MSEGTAB.NODEINFO.SIZE(I)=LSEG#PTWS*4; /* Size in bytes              */
      192     4995    2           END;                            /* DO I=                              */
      193     4996    2           DO I=1 TO NUMNODES-2;
      194     4997    2             MSEGTAB.NODEINFO.RELADDR(I)=MSEGTAB.NODEINFO.RELADDR(I-1)+LSEG#PTWS*4;
      195     4998    2           END;                            /* DO I=                              */
      196     4999    2           DO I=0 TO NUMNODES-2;
      197     5000    2             STARTPG=PINCRW(HDR$,I*4)->BAS_HDR.BASE/1024;
      198     5001    2             LASTPG=STARTPG+PINCRW(HDR$,I*4)->BAS_HDR.SIZE/1024-1;
      199     5002    2             INFOX$=PINCRW(MSEGTBL$,15+I*LSEG#PTWS);
      200     5003    3             DO J=0 TO LASTPG-STARTPG;
      201     5004    3               BAS_PT.SCTRL(J)=%SCUSER;
      202     5005    3               BAS_PT.CTRL(J)=%PGINMEM|%PGHKEEP|%PGIOM;
      203     5006    3               IF S1000_FLG='1'B THEN BAS_PT.RPN(J)=WS0PT.RPN(STARTPG+J);
      204     5007    3                 ELSE BAS_PT.RPN(J)=STARTPG+J;
      205     5008    3             END;                          /* DO J=                              */
      206     5009    2           END;                            /* DO I=                              */
      207     5010    1           MSEGTAB.NODEINFO(NUMNODES-1)='0'B;
      208     5011        /**/
      209     5012    1   INITM4:
      210     5013        /* TIGR data if DB or Recovery */
      211     5014    1           IF(RCV_FLG='0'B OR ADIR.TIGRDATA.SIZE=0) THEN;
      212     5015    2             ELSE DO;
      213     5016    2                 J=ADIR.TIGRDATA.SIZE;
      214     5017    2                 I=0;
      215     5018    2   INITM5:
      216     5019    2                 MONPT.SCTRL(%TIGRLO+I)=%SCUSER;
      217     5020    2                 MONPT.CTRL(%TIGRLO+I)=%PGINMEM|%PGWRITE|%PGIOM;
      218     5021    2                 IF S1000_FLG='1'B THEN MONPT.RPN(%TIGRLO+I)=WS0PT.RPN(ADIR.TIGRDATA.
              5021                          BASE/1024+I);
PL6.E3A0      #001=INITM File=ISI$MM.:E05TSI                                     TUE 07/29/97 22:54 Page:7
      219     5022    2                   ELSE MONPT.RPN(%TIGRLO+I)=ADIR.TIGRDATA.BASE/1024+I;
      220     5023    3                 IF (J-1024)>0 THEN DO;
      221     5024    3                       J=J-1024;
      222     5025    3                       I=I+1;
      223     5026    3                       GOTO INITM5;
      224     5027    3                     END;                  /* THEN                               */
      225     5028    2                   ELSE;
      226     5029    2               END;                        /* ELSE                               */
      227     5030        /* Put privileges in JIT */
      228     5031    1           INFOX_PTR='0'B;
      229     5032    1           INFOX_PTR.S_D_FIELD=%ALS_JIT;
      230     5033    1           B$JIT.PRIV.ACTIVE='777777777777'O;
      231     5034    1           B$JIT.PRIV.AUTH='777777777777'O;
      232     5035    1           IF RPM_FLG THEN PPDBR=HDRMD.BASE/512; /* On RPM the PDBR is 19 bits   */
      233     5036    1             ELSE IF S1000_FLG='1'B THEN PPDBR=WS0PT.RPN(HDRMD.BASE/1024)*2*4;
              5036                      /* PPDBR is a mod 512 address on 17 bits */
      234     5037    1               ELSE PPDBR=(HDRMD.BASE/512)*16; /* On DPS8 the PDBR is 15 bits long */
      235     5038    1           RETURN;
      236     5039    1   END INITM;
      237     5040        %EOD;

PL6.E3A0      #001=INITM File=ISI$MM.:E05TSI                                     TUE 07/29/97 22:54 Page:8
--  Include file information  --

   B$JIT_C.:E05TOU  is referenced.
   M_INFO_C.:E05TOU  is referenced.
   B_STRINGS_C.:E05TOU  is referenced.
   IS$MACROS.:E05TOU  is referenced.
      No diagnostics issued in procedure INITM.

   Procedure INITM requires 549 words for executable code.
   Procedure INITM requires 14 words of local(AUTO) storage.

PL6.E3A0      #001=INITM File=ISI$MM.:E05TSI                                     TUE 07/29/97 22:54 Page:9

 Object Unit name= INITM                                      File name= ISI$MM.:E05TOU
 UTS= JUL 29 '97 22:54:50.64 TUE                              Compiler= PL-6/E31         Sev=      00
 SharedLib= :SHARED_SYSTEM                                    Alt SharedLib=


    ****  Control sections  ****

 Sect   Type Bound  Init  Size OctSiz  Section name(segment info)
    0   Data  even  none     5      5  INITM
    1   Proc  even  none   549   1045  INITM
    2  RoData even  none     6      6  INITM

    ****  Entry defs  ****

                              Check   Calling
                             calling  sequence
  Sect OctLoc Primary Altret sequence   type   Parms  Name
     1      0   yes            yes      Std        0  INITM

  ****  Data defs  ****

 Sect OctLoc  Name                           Sect OctLoc  Name
    0      3  PPDBR                              0      4  DIR_ENT0

  ****  Entry refs  ****

         Check        Calling
        calling       sequence
Altret sequence SRef   type   Args  Name
                       Std       0 B_CONSPOOL_D
                       nStd      0 X66_AUTO_0
                       nStd      0 X66_ARET
PL6.E3A0      #001=INITM File=ISI$MM.:E05TSI                                     TUE 07/29/97 22:54 Page:10

  ****  Data refs  ****

  Flags:  r = read only, s = secondary
Flgs Name                             Flgs Name                             Flgs Name
     ADIR                                  WS0PT$                                BSNLS
     MSEGTBL                               HDRMH                                 HDRMD
     HDRMP0                                HDRMP1                                MONPLL
     BASEMPT                               BASEJ                                 S1000_FLG
     XA_MODE                               RPM_FLG                               RCV_FLG
     FPMC                                  B_VECTNIL

  ****  Segment refs  ****

  Flags:  r = read only, s = secondary
Flgs Name                             Flgs Name                             Flgs Name
     ISSID
PL6.E3A0      #001=INITM File=ISI$MM.:E05TSI                                     TUE 07/29/97 22:54 Page:11


        1        1        /*M* ROUTINES TO INITIALIZE MM TABLES                */
        2        2        /*T***********************************************************/
        3        3        /*T*                                                         */
        4        4        /*T* Copyright (c) Bull HN Information Systems Inc., 1997    */
        5        5        /*T*                                                         */
        6        6        /*T***********************************************************/
        7        7        /*X* PLM=8,IND=2,THI=2,ENU=2,CSU=2,DTI=4,DCI=4,ECU=4,AND */
        8        8        INITM:  PROC;

      8  1 000000   000000 700200 xent  INITM        TSX0  ! X66_AUTO_0
         1 000001   000016 000000                    ZERO    14,0

        9        9        /* Build WSPTD at start of MON ISR */
       10       10        /* Build Page Table for MON */
       11       11        /**/
       12       12        %INCLUDE IS$MACROS;
       13     1287        %INCLUDE B_STRINGS_C;
       14     1416        %INCLUDE M_INFO_C;
       15     1556        %INCLUDE B$JIT_C;
       16     1870        /**/
       17     1871        %B$JIT0(STCLASS="BASED(INFOX$)");
       18     1960    1         2 * BIT(1);                       /* Just to end the macro              */
       19     1961        %DISKDIR(NAME=ADIR,STCLASS="SYMREF");
       20     2217    1   DCL INFOX$ PTR;
       21     2218        %PTR_STRUCT(NAME=INFOX_PTR,STCLASS="REDEF INFOX$");
       22     2236    1   DCL INFOY$ PTR;
       23     2237        %PTR_STRUCT(NAME=INFOY_PTR,STCLASS="REDEF INFOY$");
       24     2255    1   DCL WS0PT$ PTR SYMREF;
       25     2256    1   DCL 1 WSPTD(0:28) ALIGNED BASED(INFOX$), /* Directory                         */
       26     2257        %DIRW(LVL=2);
       27     2285    1   DCL 1 MONPT(0:0) ALIGNED BASED(INFOY$), /* MON PT                             */
       28     2286        %PTW(LVL=2);
       29     2314    1   DCL 1 WS0PT(0:0) ALIGNED BASED(WS0PT$), /* WS0 PT                             */
       30     2315        %PTW(LVL=2);
       31     2343        %AALS(STCLASS="BASED(AALS$)");          /* AARDV LSR                          */
       32     4670    1   DCL BSNLS BIT(1) SYMREF;
PL6.E3A0      #001=INITM File=ISI$MM.:E05TSI                                     TUE 07/29/97 22:54 Page:12
       33     4671    1   DCL AALS$ PTR STATIC INIT(ADDR(BSNLS));
       34     4672    1   DCL MSEGTBL BIT(1) SYMREF;
       35     4673    1   DCL MSEGTBL$ PTR STATIC INIT(ADDR(MSEGTBL));
       36     4674        %PTR_STRUCT(NAME=MSEGTBL_PTR,STCLASS="REDEF MSEGTBL$");
       37     4692    1   DCL 1 MSEGTAB BASED(MSEGTBL$),
       38     4693    1         2 FSTPG_BYTEAD UBIN WORD,
              4693                  /* Byte index in MON PT of the frst page of overlay */
       39     4694    1         2 NODEINFO(0:14),
       40     4695    1           3 RELADDR UBIN HALF UNAL, /* Byte index in SEGTAB for this node mapwords */
       41     4696    1           3 SIZE UBIN HALF UNAL;          /* Size of mapwords for this node     */
       42     4697    1   DCL 1 BAS_PT(0:0) ALIGNED BASED(INFOX$),
       43     4698        %PTW(LVL=2);                            /* PT for overlays , build in SEGTAB  */
       44     4726    1   DCL MROREC_NODES# UBIN WORD BASED(INFOX$); /* Nodes nr on PO tape             */
       45     4727    1   DCL NUMNODES UBIN WORD;
       46     4728    1   DCL LSEG#PTWS UBIN WORD;           /* Max size in PT words of an overlay seg  */
       47     4729    1   DCL STARTPG UBIN WORD;
       48     4730    1   DCL LASTPG UBIN WORD;
       49     4731        %DIRW(NAME=DIRW0,STCLASS="BASED(INFOY$)"); /* Word 0 of Dir for S1000         */
       50     4759        %PTW(NAME=W_PTW,STCLASS="STATIC");      /* Page Table Word                    */
       51     4787        %DIRHDR(NAME=HDRMH,STCLASS="SYMREF");   /* Headers                            */
       52     4798        %DIRHDR(NAME=HDRMD,STCLASS="SYMREF");
       53     4809        %DIRHDR(NAME=HDRMP0,STCLASS="SYMREF");
       54     4820        %DIRHDR(NAME=BAS_HDR,STCLASS="BASED(HDR$)");
       55     4831    1   DCL HDRMP1 BIT(1) SYMREF;
       56     4832    1   DCL HDR$ PTR;
       57     4833        /**/
       58     4834    1   DCL PPDBR UBIN(19) ALIGNED STATIC SYMDEF;
       59     4835    1   DCL DIR_ENT0 BIT(36) ALIGNED STATIC SYMDEF; /* WSPTD0                         */
       60     4836    1   DCL MONPLL UBIN WORD SYMREF;
       61     4837    1   DCL BASEMPT UBIN WORD SYMREF;
       62     4838    1   DCL BASEJ UBIN WORD SYMREF;
       63     4839    1   DCL S1000_FLG BIT(1) SYMREF;
       64     4840    1   DCL XA_MODE BIT(1) SYMREF;
       65     4841    1   DCL RPM_FLG BIT(1) SYMREF;
       66     4842    1   DCL RCV_FLG BIT(4) SYMREF;
       67     4843        %PTW(NAME=FPMC,STCLASS="SYMREF",LVL=1); /* Free page constant                 */
       68     4871        /**/
PL6.E3A0      #001=INITM File=ISI$MM.:E05TSI                                     TUE 07/29/97 22:54 Page:13
       69     4872    1   DCL I UBIN WORD;
       70     4873    1   DCL J SBIN WORD;
       71     4874        /**/
       72     4875    1           INFOX_PTR='0'B;                 /* Build Dir Pointer                  */

   4875  1 000002   200003 450100                    STZ     INFOX$,,AUTO

       73     4876    1           INFOX_PTR.S_D_FIELD=%ALS_MONIS;

   4876  1 000003   006050 236007                    LDQ     3112,DL
         1 000004   200003 752103                    STCQ    INFOX$,'03'O,AUTO

       74     4877    2           DO I=1 TO 9;                    /* Fill Dir with filler               */

   4877  1 000005   000001 235007                    LDA     1,DL
         1 000006   200012 755100                    STA     I,,AUTO

       75     4878    2             WSPTD(I)='0'B;

   4878  1 000007   200003 470500                    LDP0    INFOX$,,AUTO
         1 000010   200012 720100                    LXL0    I,,AUTO
         1 000011   000000 450110                    STZ     0,X0,PR0

       76     4879    2             WSPTD.P(I)='1'B;              /* PT present                         */

   4879  1 000012   100000 236007                    LDQ     32768,DL
         1 000013   000000 256110                    ORSQ    0,X0,PR0

       77     4880    2             WSPTD.NBLKS(I)=16;

   4880  1 000014   000000 236110                    LDQ     0,X0,PR0
         1 000015   000000 376000 2                  ANQ     0
         1 000016   000020 276007                    ORQ     16,DL
         1 000017   000000 756110                    STQ     0,X0,PR0

       78     4881    2           END;                            /* DO I=                              */

PL6.E3A0      #001=INITM File=ISI$MM.:E05TSI                                     TUE 07/29/97 22:54 Page:14
   4881  1 000020   200012 235100                    LDA     I,,AUTO
         1 000021   000001 035007                    ADLA    1,DL
         1 000022   200012 755100                    STA     I,,AUTO
         1 000023   000012 115007                    CMPA    10,DL
         1 000024   000007 602000 1                  TNC     s:4878

       79     4882    2           IF S1000_FLG='1'B THEN DO;      /* Move page table entry for WS0      */

   4882  1 000025   000000 234000 xsym               SZN     S1000_FLG
         1 000026   000041 605000 1                  TPL     s:4891

       80     4883    2                 INFOY_PTR='0'B;

   4883  1 000027   200004 450100                    STZ     INFOY$,,AUTO

       81     4884    2                 INFOY_PTR.S_D_FIELD=%ALS_AIS;

   4884  1 000030   006000 236007                    LDQ     3072,DL
         1 000031   200004 752103                    STCQ    INFOY$,'03'O,AUTO

       82     4885    2                 INFOY_PTR.WOFFS=512;

   4885  1 000032   001000 220003                    LDX0    512,DU
         1 000033   200004 740100                    STX0    INFOY$,,AUTO

       83     4886    2                 WSPTD(0)=DIRW0;

   4886  1 000034   200004 471500                    LDP1    INFOY$,,AUTO
         1 000035   100000 236100                    LDQ     0,,PR1
         1 000036   000000 756100                    STQ     0,,PR0

       84     4887    2                 DIR_ENT0=DIRW0;

   4887  1 000037   100000 236100                    LDQ     0,,PR1
         1 000040   000004 756000 0                  STQ     DIR_ENT0

       85     4888    2               END;                        /* THEN                               */
PL6.E3A0      #001=INITM File=ISI$MM.:E05TSI                                     TUE 07/29/97 22:54 Page:15

       86     4889    1             ELSE;
       87     4890        /* Init Mon page table */
       88     4891    1           INFOY_PTR='0'B;

   4891  1 000041   200004 450100                    STZ     INFOY$,,AUTO

       89     4892    1           INFOY_PTR.S_D_FIELD=%ALS_MPGTBL;

   4892  1 000042   006114 236007                    LDQ     3148,DL
         1 000043   200004 752103                    STCQ    INFOY$,'03'O,AUTO

       90     4893        /* Fill with free page pattern */
       91     4894    2           DO I=0 TO 1024*11-1;

   4894  1 000044   200012 450100                    STZ     I,,AUTO
         1 000045   000055 710000 1                  TRA     s:4896+3

       92     4895    2             MONPT(I)=FPMC;

   4895  1 000046   000000 236000 xsym               LDQ     FPMC
         1 000047   200004 470500                    LDP0    INFOY$,,AUTO
         1 000050   200012 720100                    LXL0    I,,AUTO
         1 000051   000000 756110                    STQ     0,X0,PR0

       93     4896    2           END;                            /* DO I=                              */

   4896  1 000052   200012 235100                    LDA     I,,AUTO
         1 000053   000001 035007                    ADLA    1,DL
         1 000054   200012 755100                    STA     I,,AUTO
         1 000055   200012 235100                    LDA     I,,AUTO
         1 000056   026000 115007                    CMPA    11264,DL
         1 000057   000046 602000 1                  TNC     s:4895

       94     4897        /* Init entry in WSPTD for MON */
       95     4898    1           IF RPM_FLG THEN WSPTD.BLKNO(%MONWSQ)=BASEMPT/1024;

PL6.E3A0      #001=INITM File=ISI$MM.:E05TSI                                     TUE 07/29/97 22:54 Page:16
   4898  1 000060   000000 234000 xsym               SZN     RPM_FLG
         1 000061   000070 605000 1                  TPL     s:4899

   4898  1 000062   000000 236000 xsym               LDQ     BASEMPT
         1 000063   000012 772000                    QRL     10
         1 000064   000000 620006                    EAX0    0,QL
         1 000065   200003 470500                    LDP0    INFOX$,,AUTO
         1 000066   000001 740100                    STX0    1,,PR0
         1 000067   000122 710000 1                  TRA     s:4905

       96     4899    2             ELSE IF S1000_FLG='1'B THEN DO;

   4899  1 000070   000000 234000 xsym               SZN     S1000_FLG
         1 000071   000115 605000 1                  TPL     s:4903

       97     4900    2                   IF XA_MODE THEN WSPTD.BLKNO(%MONWSQ)=WS0PT.RPN(BASEMPT/1024);

   4900  1 000072   000000 234000 xsym               SZN     XA_MODE
         1 000073   000103 605000 1                  TPL     s:4901

   4900  1 000074   000000 236000 xsym               LDQ     BASEMPT
         1 000075   000012 772000                    QRL     10
         1 000076   000000 470400 xsym               LDP0    WS0PT$
         1 000077   000000 220106                    LDX0    0,QL,PR0
         1 000100   200003 471500                    LDP1    INFOX$,,AUTO
         1 000101   100001 740100                    STX0    1,,PR1
         1 000102   000122 710000 1                  TRA     s:4905

       98     4901    2                     ELSE WSPTD.BLKNO(%MONWSQ)=WS0PT.RPN(BASEMPT/1024)*16;
              4901                              /* Make it a mod 64 address */

   4901  1 000103   000000 236000 xsym               LDQ     BASEMPT
         1 000104   000012 772000                    QRL     10
         1 000105   000000 470400 xsym               LDP0    WS0PT$
         1 000106   000000 236106                    LDQ     0,QL,PR0
         1 000107   000016 772000                    QRL     14
         1 000110   000001 376000 2                  ANQ     1
PL6.E3A0      #001=INITM File=ISI$MM.:E05TSI                                     TUE 07/29/97 22:54 Page:17
         1 000111   000000 620006                    EAX0    0,QL
         1 000112   200003 471500                    LDP1    INFOX$,,AUTO
         1 000113   100001 740100                    STX0    1,,PR1

       99     4902    2                 END;                      /* THEN                               */

   4902  1 000114   000122 710000 1                  TRA     s:4905

      100     4903    1               ELSE WSPTD.BLKNO(%MONWSQ)=BASEMPT/64;

   4903  1 000115   000000 236000 xsym               LDQ     BASEMPT
         1 000116   000006 772000                    QRL     6
         1 000117   000000 620006                    EAX0    0,QL
         1 000120   200003 470500                    LDP0    INFOX$,,AUTO
         1 000121   000001 740100                    STX0    1,,PR0

      101     4904        /* Init entry in WSPTD for CG */
      102     4905    1           WSPTD(%CGWSQ)='0'B;

   4905  1 000122   200003 470500                    LDP0    INFOX$,,AUTO
         1 000123   000014 450100                    STZ     12,,PR0

      103     4906    1           WSPTD.P(%CGWSQ)='1'B;

   4906  1 000124   100000 236007                    LDQ     32768,DL
         1 000125   000014 256100                    ORSQ    12,,PR0

      104     4907    1           WSPTD.NBLKS(%CGWSQ)=16*10;

   4907  1 000126   000240 236007                    LDQ     160,DL
         1 000127   000014 752103                    STCQ    12,'03'O,PR0

      105     4908    1           IF RPM_FLG THEN WSPTD.BLKNO(%CGWSQ)=(BASEMPT+1024)/1024;

   4908  1 000130   000000 234000 xsym               SZN     RPM_FLG
         1 000131   000140 605000 1                  TPL     s:4909

PL6.E3A0      #001=INITM File=ISI$MM.:E05TSI                                     TUE 07/29/97 22:54 Page:18
   4908  1 000132   000000 236000 xsym               LDQ     BASEMPT
         1 000133   002000 036007                    ADLQ    1024,DL
         1 000134   000012 772000                    QRL     10
         1 000135   000000 620006                    EAX0    0,QL
         1 000136   000014 740100                    STX0    12,,PR0
         1 000137   000172 710000 1                  TRA     s:4915

      106     4909    2             ELSE IF S1000_FLG='1'B THEN DO;

   4909  1 000140   000000 234000 xsym               SZN     S1000_FLG
         1 000141   000165 605000 1                  TPL     s:4913

      107     4910    2                   IF XA_MODE THEN WSPTD.BLKNO(%CGWSQ)=WS0PT.RPN((BASEMPT+1024)/1024);

   4910  1 000142   000000 234000 xsym               SZN     XA_MODE
         1 000143   000153 605000 1                  TPL     s:4911

   4910  1 000144   000000 236000 xsym               LDQ     BASEMPT
         1 000145   002000 036007                    ADLQ    1024,DL
         1 000146   000012 772000                    QRL     10
         1 000147   000000 471400 xsym               LDP1    WS0PT$
         1 000150   100000 220106                    LDX0    0,QL,PR1
         1 000151   000014 740100                    STX0    12,,PR0
         1 000152   000172 710000 1                  TRA     s:4915

      108     4911    2                     ELSE WSPTD.BLKNO(%CGWSQ)=WS0PT.RPN((BASEMPT+1024)/1024)*16;
              4911                              /* Make it a mod 64 address */

   4911  1 000153   000000 236000 xsym               LDQ     BASEMPT
         1 000154   002000 036007                    ADLQ    1024,DL
         1 000155   000012 772000                    QRL     10
         1 000156   000000 471400 xsym               LDP1    WS0PT$
         1 000157   100000 236106                    LDQ     0,QL,PR1
         1 000160   000016 772000                    QRL     14
         1 000161   000001 376000 2                  ANQ     1
         1 000162   000000 620006                    EAX0    0,QL
         1 000163   000014 740100                    STX0    12,,PR0
PL6.E3A0      #001=INITM File=ISI$MM.:E05TSI                                     TUE 07/29/97 22:54 Page:19

      109     4912    2                 END;                      /* THEN                               */

   4912  1 000164   000172 710000 1                  TRA     s:4915

      110     4913    1               ELSE WSPTD.BLKNO(%CGWSQ)=(BASEMPT+1024)/64;

   4913  1 000165   000000 236000 xsym               LDQ     BASEMPT
         1 000166   002000 036007                    ADLQ    1024,DL
         1 000167   000006 772000                    QRL     6
         1 000170   000000 620006                    EAX0    0,QL
         1 000171   000014 740100                    STX0    12,,PR0

      111     4914        /* Init PT words */
      112     4915    2           DO I=%PGTBLLO TO %PGTBLHI;

   4915  1 000172   200012 450100                    STZ     I,,AUTO

      113     4916    2             MONPT.SCTRL(I)=%SCUSER;

   4916  1 000173   200004 470500                    LDP0    INFOY$,,AUTO
         1 000174   200012 720100                    LXL0    I,,AUTO
         1 000175   000000 236110                    LDQ     0,X0,PR0
         1 000176   000002 376000 2                  ANQ     2
         1 000177   000400 276007                    ORQ     256,DL
         1 000200   000000 756110                    STQ     0,X0,PR0

      114     4917    2             MONPT.CTRL(I)=%PGINMEM|%PGWRITE|%PGIOM;

   4917  1 000201   000000 236110                    LDQ     0,X0,PR0
         1 000202   000003 376000 2                  ANQ     3
         1 000203   000064 276007                    ORQ     52,DL
         1 000204   000000 756110                    STQ     0,X0,PR0

      115     4918    2             IF S1000_FLG='1'B THEN MONPT.RPN(I)=WS0PT.RPN(BASEMPT/1024+I);

   4918  1 000205   000000 234000 xsym               SZN     S1000_FLG
PL6.E3A0      #001=INITM File=ISI$MM.:E05TSI                                     TUE 07/29/97 22:54 Page:20
         1 000206   000216 605000 1                  TPL     s:4919

   4918  1 000207   000000 236000 xsym               LDQ     BASEMPT
         1 000210   000012 772000                    QRL     10
         1 000211   200012 036100                    ADLQ    I,,AUTO
         1 000212   000000 471400 xsym               LDP1    WS0PT$
         1 000213   100000 221106                    LDX1    0,QL,PR1
         1 000214   000000 741110                    STX1    0,X0,PR0
         1 000215   000223 710000 1                  TRA     s:4920

      116     4919    2               ELSE MONPT.RPN(I)=BASEMPT/1024+I;

   4919  1 000216   000000 236000 xsym               LDQ     BASEMPT
         1 000217   000012 772000                    QRL     10
         1 000220   200012 036100                    ADLQ    I,,AUTO
         1 000221   000000 621006                    EAX1    0,QL
         1 000222   000000 741110                    STX1    0,X0,PR0

      117     4920    2           END;                            /* DO I=                              */

   4920  1 000223   200012 235100                    LDA     I,,AUTO
         1 000224   000001 035007                    ADLA    1,DL
         1 000225   200012 755100                    STA     I,,AUTO
         1 000226   000013 115007                    CMPA    11,DL
         1 000227   000173 602000 1                  TNC     s:4916

      118     4921    2           DO I=%JITPG TO %JITEND;         /* JIT pages                          */

   4921  1 000230   000013 236007                    LDQ     11,DL
         1 000231   200012 756100                    STQ     I,,AUTO

      119     4922    2             J=I-%JITPG;

   4922  1 000232   200012 235100                    LDA     I,,AUTO
         1 000233   000013 135007                    SBLA    11,DL
         1 000234   200013 755100                    STA     J,,AUTO

PL6.E3A0      #001=INITM File=ISI$MM.:E05TSI                                     TUE 07/29/97 22:54 Page:21
      120     4923    2             MONPT.SCTRL(I)=%SCUSER;

   4923  1 000235   200004 470500                    LDP0    INFOY$,,AUTO
         1 000236   200012 720100                    LXL0    I,,AUTO
         1 000237   000000 236110                    LDQ     0,X0,PR0
         1 000240   000002 376000 2                  ANQ     2
         1 000241   000400 276007                    ORQ     256,DL
         1 000242   000000 756110                    STQ     0,X0,PR0

      121     4924    2             MONPT.CTRL(I)=%PGINMEM|%PGWRITE|%PGIOM;

   4924  1 000243   000000 236110                    LDQ     0,X0,PR0
         1 000244   000003 376000 2                  ANQ     3
         1 000245   000064 276007                    ORQ     52,DL
         1 000246   000000 756110                    STQ     0,X0,PR0

      122     4925    2             IF S1000_FLG='1'B THEN MONPT.RPN(I)=WS0PT.RPN(BASEJ/1024+J);

   4925  1 000247   000000 234000 xsym               SZN     S1000_FLG
         1 000250   000260 605000 1                  TPL     s:4926

   4925  1 000251   000000 236000 xsym               LDQ     BASEJ
         1 000252   000012 772000                    QRL     10
         1 000253   200013 036100                    ADLQ    J,,AUTO
         1 000254   000000 471400 xsym               LDP1    WS0PT$
         1 000255   100000 221106                    LDX1    0,QL,PR1
         1 000256   000000 741110                    STX1    0,X0,PR0
         1 000257   000265 710000 1                  TRA     s:4927

      123     4926    2               ELSE MONPT.RPN(I)=BASEJ/1024+J;

   4926  1 000260   000000 236000 xsym               LDQ     BASEJ
         1 000261   000012 772000                    QRL     10
         1 000262   200013 036100                    ADLQ    J,,AUTO
         1 000263   000000 621006                    EAX1    0,QL
         1 000264   000000 741110                    STX1    0,X0,PR0

PL6.E3A0      #001=INITM File=ISI$MM.:E05TSI                                     TUE 07/29/97 22:54 Page:22
      124     4927    2           END;                            /* DO I=                              */

   4927  1 000265   200012 236100                    LDQ     I,,AUTO
         1 000266   000001 036007                    ADLQ    1,DL
         1 000267   200012 756100                    STQ     I,,AUTO
         1 000270   000015 116007                    CMPQ    13,DL
         1 000271   000232 602000 1                  TNC     s:4922

      125     4928        /* MON low real pages */
      126     4929    2           DO I=0 TO 7;

   4929  1 000272   200012 450100                    STZ     I,,AUTO

      127     4930    2             MONPT.SCTRL(%REALLO+I)=%SCUSER;

   4930  1 000273   200004 470500                    LDP0    INFOY$,,AUTO
         1 000274   200012 720100                    LXL0    I,,AUTO
         1 000275   000500 236110                    LDQ     320,X0,PR0
         1 000276   000002 376000 2                  ANQ     2
         1 000277   000400 276007                    ORQ     256,DL
         1 000300   000500 756110                    STQ     320,X0,PR0

      128     4931    2             MONPT.CTRL(%REALLO+I)=%PGINMEM|%PGWRITE|%PGIOM;

   4931  1 000301   000500 236110                    LDQ     320,X0,PR0
         1 000302   000003 376000 2                  ANQ     3
         1 000303   000064 276007                    ORQ     52,DL
         1 000304   000500 756110                    STQ     320,X0,PR0

      129     4932    2             IF S1000_FLG='1'B THEN MONPT.RPN(%REALLO+I)=WS0PT.RPN(I);

   4932  1 000305   000000 234000 xsym               SZN     S1000_FLG
         1 000306   000313 605000 1                  TPL     s:4933

   4932  1 000307   000000 471400 xsym               LDP1    WS0PT$
         1 000310   100000 221110                    LDX1    0,X0,PR1
         1 000311   000500 741110                    STX1    320,X0,PR0
PL6.E3A0      #001=INITM File=ISI$MM.:E05TSI                                     TUE 07/29/97 22:54 Page:23
         1 000312   000314 710000 1                  TRA     s:4934

      130     4933    2               ELSE MONPT.RPN(%REALLO+I)=I;

   4933  1 000313   000500 740110                    STX0    320,X0,PR0

      131     4934    2           END;                            /* DO I=                              */

   4934  1 000314   200012 235100                    LDA     I,,AUTO
         1 000315   000001 035007                    ADLA    1,DL
         1 000316   200012 755100                    STA     I,,AUTO
         1 000317   000010 115007                    CMPA    8,DL
         1 000320   000273 602000 1                  TNC     s:4930

      132     4935        /* Init Pt for MON HJIT */
      133     4936    1           J=HDRMH.SIZE;

   4936  1 000321   000002 236000 xsym               LDQ     HDRMH+2
         1 000322   200013 756100                    STQ     J,,AUTO

      134     4937    1           I=0;

   4937  1 000323   200012 450100                    STZ     I,,AUTO

      135     4938    1   INITMHJ:
      136     4939    1           MONPT.SCTRL(%HJITPG+I)=%SCUSER;

   4939  1 000324   200004 470500       INITMHJ      LDP0    INFOY$,,AUTO
         1 000325   200012 720100                    LXL0    I,,AUTO
         1 000326   000015 236110                    LDQ     13,X0,PR0
         1 000327   000002 376000 2                  ANQ     2
         1 000330   000400 276007                    ORQ     256,DL
         1 000331   000015 756110                    STQ     13,X0,PR0

      137     4940    1           MONPT.CTRL(%HJITPG+I)=%PGINMEM|%PGWRITE|%PGHKEEP|%PGIOM;

   4940  1 000332   000015 236110                    LDQ     13,X0,PR0
PL6.E3A0      #001=INITM File=ISI$MM.:E05TSI                                     TUE 07/29/97 22:54 Page:24
         1 000333   000003 376000 2                  ANQ     3
         1 000334   000074 276007                    ORQ     60,DL
         1 000335   000015 756110                    STQ     13,X0,PR0

      138     4941    1           IF S1000_FLG='1'B THEN MONPT.RPN(%HJITPG+I)=WS0PT.RPN(HDRMH.BASE/1024+I);

   4941  1 000336   000000 234000 xsym               SZN     S1000_FLG
         1 000337   000347 605000 1                  TPL     s:4942

   4941  1 000340   000000 236000 xsym               LDQ     HDRMH
         1 000341   002000 506007                    DIV     1024,DL
         1 000342   200012 036100                    ADLQ    I,,AUTO
         1 000343   000000 471400 xsym               LDP1    WS0PT$
         1 000344   100000 221106                    LDX1    0,QL,PR1
         1 000345   000015 741110                    STX1    13,X0,PR0
         1 000346   000354 710000 1                  TRA     s:4943

      139     4942    1             ELSE MONPT.RPN(%HJITPG+I)=HDRMH.BASE/1024+I;

   4942  1 000347   000000 236000 xsym               LDQ     HDRMH
         1 000350   002000 506007                    DIV     1024,DL
         1 000351   200012 036100                    ADLQ    I,,AUTO
         1 000352   000000 621006                    EAX1    0,QL
         1 000353   000015 741110                    STX1    13,X0,PR0

      140     4943    2           IF (J-1024)>0 THEN DO;

   4943  1 000354   200013 235100                    LDA     J,,AUTO
         1 000355   002000 115007                    CMPA    1024,DL
         1 000356   000365 604400 1                  TMOZ    s:4950

      141     4944    2                 J=J-1024;

   4944  1 000357   002000 336007                    LCQ     1024,DL
         1 000360   200013 056100                    ASQ     J,,AUTO

      142     4945    2                 I=I+1;
PL6.E3A0      #001=INITM File=ISI$MM.:E05TSI                                     TUE 07/29/97 22:54 Page:25

   4945  1 000361   200012 235100                    LDA     I,,AUTO
         1 000362   000001 035007                    ADLA    1,DL
         1 000363   200012 755100                    STA     I,,AUTO

      143     4946    2                 GOTO INITMHJ;

   4946  1 000364   000324 710000 1                  TRA     INITMHJ

      144     4947    2               END;                        /* THEN                               */
      145     4948    1             ELSE;
      146     4949        /* Init page table for overlay */
      147     4950    1           MONPT.SCTRL(%SEGTBL)=%SCUSER;

   4950  1 000365   000077 236100                    LDQ     63,,PR0
         1 000366   000002 376000 2                  ANQ     2
         1 000367   000400 276007                    ORQ     256,DL
         1 000370   000077 756100                    STQ     63,,PR0

      148     4951    1           MONPT.CTRL(%SEGTBL)=%PGINMEM|%PGWRITE|%PGIOM;

   4951  1 000371   000064 236007                    LDQ     52,DL
         1 000372   000077 752101                    STCQ    63,'01'O,PR0

      149     4952    1          IF S1000_FLG='1'B THEN MONPT.RPN(%SEGTBL)=WS0PT.RPN(MSEGTBL_PTR.WOFFS/1024);

   4952  1 000373   000000 234000 xsym               SZN     S1000_FLG
         1 000374   000404 605000 1                  TPL     s:4953

   4952  1 000375   000001 236000 0                  LDQ     MSEGTBL$
         1 000376   000022 772000                    QRL     18
         1 000377   000012 772000                    QRL     10
         1 000400   000000 471400 xsym               LDP1    WS0PT$
         1 000401   100000 221106                    LDX1    0,QL,PR1
         1 000402   000077 741100                    STX1    63,,PR0
         1 000403   000411 710000 1                  TRA     s:4955

PL6.E3A0      #001=INITM File=ISI$MM.:E05TSI                                     TUE 07/29/97 22:54 Page:26
      150     4953    1             ELSE MONPT.RPN(%SEGTBL)=MSEGTBL_PTR.WOFFS/1024;

   4953  1 000404   000001 236000 0                  LDQ     MSEGTBL$
         1 000405   000022 772000                    QRL     18
         1 000406   000012 772000                    QRL     10
         1 000407   000000 621006                    EAX1    0,QL
         1 000410   000077 741100                    STX1    63,,PR0

      151     4954        /* Init page table for ISR */
      152     4955    1           J=HDRMD.SIZE;

   4955  1 000411   000002 236000 xsym               LDQ     HDRMD+2
         1 000412   200013 756100                    STQ     J,,AUTO

      153     4956    1           I=0;

   4956  1 000413   200012 450100                    STZ     I,,AUTO

      154     4957    1   INITM1:
      155     4958    1           MONPT.SCTRL(%ISEGLO+I)=%SCUSER;

   4958  1 000414   200004 470500       INITM1       LDP0    INFOY$,,AUTO
         1 000415   200012 720100                    LXL0    I,,AUTO
         1 000416   000100 236110                    LDQ     64,X0,PR0
         1 000417   000002 376000 2                  ANQ     2
         1 000420   000400 276007                    ORQ     256,DL
         1 000421   000100 756110                    STQ     64,X0,PR0

      156     4959    1           MONPT.CTRL(%ISEGLO+I)=%PGINMEM|%PGWRITE|%PGIOM;

   4959  1 000422   000100 236110                    LDQ     64,X0,PR0
         1 000423   000003 376000 2                  ANQ     3
         1 000424   000064 276007                    ORQ     52,DL
         1 000425   000100 756110                    STQ     64,X0,PR0

      157     4960    1           IF S1000_FLG='1'B THEN MONPT.RPN(%ISEGLO+I)=WS0PT.RPN(HDRMD.BASE/1024+I);

PL6.E3A0      #001=INITM File=ISI$MM.:E05TSI                                     TUE 07/29/97 22:54 Page:27
   4960  1 000426   000000 234000 xsym               SZN     S1000_FLG
         1 000427   000437 605000 1                  TPL     s:4961

   4960  1 000430   000000 236000 xsym               LDQ     HDRMD
         1 000431   002000 506007                    DIV     1024,DL
         1 000432   200012 036100                    ADLQ    I,,AUTO
         1 000433   000000 471400 xsym               LDP1    WS0PT$
         1 000434   100000 221106                    LDX1    0,QL,PR1
         1 000435   000100 741110                    STX1    64,X0,PR0
         1 000436   000444 710000 1                  TRA     s:4962

      158     4961    1             ELSE MONPT.RPN(%ISEGLO+I)=HDRMD.BASE/1024+I;

   4961  1 000437   000000 236000 xsym               LDQ     HDRMD
         1 000440   002000 506007                    DIV     1024,DL
         1 000441   200012 036100                    ADLQ    I,,AUTO
         1 000442   000000 621006                    EAX1    0,QL
         1 000443   000100 741110                    STX1    64,X0,PR0

      159     4962    2           IF (J-1024)>0 THEN DO;

   4962  1 000444   200013 235100                    LDA     J,,AUTO
         1 000445   002000 115007                    CMPA    1024,DL
         1 000446   000455 604400 1                  TMOZ    s:4968

      160     4963    2                 J=J-1024;

   4963  1 000447   002000 336007                    LCQ     1024,DL
         1 000450   200013 056100                    ASQ     J,,AUTO

      161     4964    2                 I=I+1;

   4964  1 000451   200012 235100                    LDA     I,,AUTO
         1 000452   000001 035007                    ADLA    1,DL
         1 000453   200012 755100                    STA     I,,AUTO

      162     4965    2                 GOTO INITM1;
PL6.E3A0      #001=INITM File=ISI$MM.:E05TSI                                     TUE 07/29/97 22:54 Page:28

   4965  1 000454   000414 710000 1                  TRA     INITM1

      163     4966    2               END;                        /* THEN                               */
      164     4967    1             ELSE;
      165     4968    1           I=I+1;

   4968  1 000455   200012 236100                    LDQ     I,,AUTO
         1 000456   000001 036007                    ADLQ    1,DL
         1 000457   200012 756100                    STQ     I,,AUTO

      166     4969    1           MONPLL=%ISEGLO+I;          /* Save MON PROC lowest page for recovery  */

   4969  1 000460   000100 036007                    ADLQ    64,DL
         1 000461   000000 756000 xsym               STQ     MONPLL

      167     4970    1           J=HDRMP0.SIZE;

   4970  1 000462   000002 235000 xsym               LDA     HDRMP0+2
         1 000463   200013 755100                    STA     J,,AUTO

      168     4971    1   INITM2:
      169     4972    1           MONPT.SCTRL(%ISEGLO+I)=%SCUSER;

   4972  1 000464   200004 470500       INITM2       LDP0    INFOY$,,AUTO
         1 000465   200012 720100                    LXL0    I,,AUTO
         1 000466   000100 236110                    LDQ     64,X0,PR0
         1 000467   000002 376000 2                  ANQ     2
         1 000470   000400 276007                    ORQ     256,DL
         1 000471   000100 756110                    STQ     64,X0,PR0

      170     4973    1           MONPT.CTRL(%ISEGLO+I)=%PGINMEM|%PGHKEEP|%PGIOM;

   4973  1 000472   000100 236110                    LDQ     64,X0,PR0
         1 000473   000003 376000 2                  ANQ     3
         1 000474   000054 276007                    ORQ     44,DL
         1 000475   000100 756110                    STQ     64,X0,PR0
PL6.E3A0      #001=INITM File=ISI$MM.:E05TSI                                     TUE 07/29/97 22:54 Page:29

      171     4974    1           IF S1000_FLG='1'B THEN MONPT.RPN(%ISEGLO+I)=WS0PT.RPN(HDRMD.BASE/1024+I);

   4974  1 000476   000000 234000 xsym               SZN     S1000_FLG
         1 000477   000507 605000 1                  TPL     s:4975

   4974  1 000500   000000 236000 xsym               LDQ     HDRMD
         1 000501   002000 506007                    DIV     1024,DL
         1 000502   200012 036100                    ADLQ    I,,AUTO
         1 000503   000000 471400 xsym               LDP1    WS0PT$
         1 000504   100000 221106                    LDX1    0,QL,PR1
         1 000505   000100 741110                    STX1    64,X0,PR0
         1 000506   000514 710000 1                  TRA     s:4976

      172     4975    1             ELSE MONPT.RPN(%ISEGLO+I)=HDRMD.BASE/1024+I;

   4975  1 000507   000000 236000 xsym               LDQ     HDRMD
         1 000510   002000 506007                    DIV     1024,DL
         1 000511   200012 036100                    ADLQ    I,,AUTO
         1 000512   000000 621006                    EAX1    0,QL
         1 000513   000100 741110                    STX1    64,X0,PR0

      173     4976    2           IF (J-1024)>0 THEN DO;

   4976  1 000514   200013 235100                    LDA     J,,AUTO
         1 000515   002000 115007                    CMPA    1024,DL
         1 000516   000525 604400 1                  TMOZ    s:4983

      174     4977    2                 J=J-1024;

   4977  1 000517   002000 336007                    LCQ     1024,DL
         1 000520   200013 056100                    ASQ     J,,AUTO

      175     4978    2                 I=I+1;

   4978  1 000521   200012 235100                    LDA     I,,AUTO
         1 000522   000001 035007                    ADLA    1,DL
PL6.E3A0      #001=INITM File=ISI$MM.:E05TSI                                     TUE 07/29/97 22:54 Page:30
         1 000523   200012 755100                    STA     I,,AUTO

      176     4979    2                 GOTO INITM2;

   4979  1 000524   000464 710000 1                  TRA     INITM2

      177     4980    2               END;                        /* THEN                               */
      178     4981    1             ELSE;
      179     4982        /* Build the overlay info */
      180     4983    1           MSEGTAB.FSTPG_BYTEAD=(%ISEGLO+I+1)*4;

   4983  1 000525   000001 471400 0                  LDP1    MSEGTBL$
         1 000526   200012 236100                    LDQ     I,,AUTO
         1 000527   000002 736000                    QLS     2
         1 000530   000404 036007                    ADLQ    260,DL
         1 000531   100000 756100                    STQ     0,,PR1

      181     4984    1           INFOX_PTR='0'B;

   4984  1 000532   200003 450100                    STZ     INFOX$,,AUTO

      182     4985    1           INFOX_PTR.S_D_FIELD=%ALS_DEFDIR;

   4985  1 000533   006031 236007                    LDQ     3097,DL
         1 000534   200003 752103                    STCQ    INFOX$,'03'O,AUTO

      183     4986    1           NUMNODES=MROREC_NODES#;         /* Nr of nodes as on the PO tape      */

   4986  1 000535   200003 473500                    LDP3    INFOX$,,AUTO
         1 000536   300000 235100                    LDA     0,,PR3
         1 000537   200005 755100                    STA     NUMNODES,,AUTO

      184     4987    1           HDR$=ADDR(HDRMP1);

   4987  1 000540   000004 236000 2                  LDQ     4
         1 000541   200011 756100                    STQ     HDR$,,AUTO

PL6.E3A0      #001=INITM File=ISI$MM.:E05TSI                                     TUE 07/29/97 22:54 Page:31
      185     4988    1           LSEG#PTWS=HDR$->BAS_HDR.SIZE;

   4988  1 000542   200011 474500                    LDP4    HDR$,,AUTO
         1 000543   400002 235100                    LDA     2,,PR4
         1 000544   200006 755100                    STA     LSEG#PTWS,,AUTO

      186     4989    2           DO I=1 TO NUMNODES-2;           /* Nodes#-root-1                      */

   4989  1 000545   000001 235007                    LDA     1,DL
         1 000546   200012 755100                    STA     I,,AUTO
         1 000547   000563 710000 1                  TRA     s:4991+3

      187     4990    2             LSEG#PTWS=MAXIMUM(LSEG#PTWS,PINCRW(HDR$,I*4)->BAS_HDR.SIZE);

   4990  1 000550   200012 235100                    LDA     I,,AUTO
         1 000551   000002 735000                    ALS     2
         1 000552   200011 470500                    LDP0    HDR$,,AUTO
         1 000553   000002 236105                    LDQ     2,AL,PR0
         1 000554   200006 116100                    CMPQ    LSEG#PTWS,,AUTO
         1 000555   000557 603000 1                  TRC     s:4990+7
         1 000556   200006 236100                    LDQ     LSEG#PTWS,,AUTO
         1 000557   200006 756100                    STQ     LSEG#PTWS,,AUTO

      188     4991    2           END;                            /* DO I=                              */

   4991  1 000560   200012 235100                    LDA     I,,AUTO
         1 000561   000001 035007                    ADLA    1,DL
         1 000562   200012 755100                    STA     I,,AUTO
         1 000563   200005 236100                    LDQ     NUMNODES,,AUTO
         1 000564   000002 136007                    SBLQ    2,DL
         1 000565   000570 604000 1                  TMI     s:4992
         1 000566   200012 116100                    CMPQ    I,,AUTO
         1 000567   000550 603000 1                  TRC     s:4990

      189     4992    1           LSEG#PTWS=(LSEG#PTWS+1023)/1024; /* Make it a nr of pages             */

   4992  1 000570   200006 236100                    LDQ     LSEG#PTWS,,AUTO
PL6.E3A0      #001=INITM File=ISI$MM.:E05TSI                                     TUE 07/29/97 22:54 Page:32
         1 000571   001777 036007                    ADLQ    1023,DL
         1 000572   000012 772000                    QRL     10
         1 000573   200006 756100                    STQ     LSEG#PTWS,,AUTO

      190     4993    2           DO I=0 TO NUMNODES-2;

   4993  1 000574   200012 450100                    STZ     I,,AUTO
         1 000575   000607 710000 1                  TRA     s:4995+3

      191     4994    2             MSEGTAB.NODEINFO.SIZE(I)=LSEG#PTWS*4; /* Size in bytes              */

   4994  1 000576   200006 235100                    LDA     LSEG#PTWS,,AUTO
         1 000577   000002 735000                    ALS     2
         1 000600   000000 620005                    EAX0    0,AL
         1 000601   000001 470400 0                  LDP0    MSEGTBL$
         1 000602   200012 721100                    LXL1    I,,AUTO
         1 000603   000001 440111                    SXL0    1,X1,PR0

      192     4995    2           END;                            /* DO I=                              */

   4995  1 000604   200012 236100                    LDQ     I,,AUTO
         1 000605   000001 036007                    ADLQ    1,DL
         1 000606   200012 756100                    STQ     I,,AUTO
         1 000607   200005 236100                    LDQ     NUMNODES,,AUTO
         1 000610   000002 136007                    SBLQ    2,DL
         1 000611   000614 604000 1                  TMI     s:4996
         1 000612   200012 116100                    CMPQ    I,,AUTO
         1 000613   000576 603000 1                  TRC     s:4994

      193     4996    2           DO I=1 TO NUMNODES-2;

   4996  1 000614   000001 235007                    LDA     1,DL
         1 000615   200012 755100                    STA     I,,AUTO
         1 000616   000634 710000 1                  TRA     s:4998+3

      194     4997    2             MSEGTAB.NODEINFO.RELADDR(I)=MSEGTAB.NODEINFO.RELADDR(I-1)+LSEG#PTWS*4;

PL6.E3A0      #001=INITM File=ISI$MM.:E05TSI                                     TUE 07/29/97 22:54 Page:33
   4997  1 000617   000001 470400 0                  LDP0    MSEGTBL$
         1 000620   200012 720100                    LXL0    I,,AUTO
         1 000621   000000 236110                    LDQ     0,X0,PR0
         1 000622   000022 772000                    QRL     18
         1 000623   200014 756100                    STQ     J+1,,AUTO
         1 000624   200006 236100                    LDQ     LSEG#PTWS,,AUTO
         1 000625   000002 736000                    QLS     2
         1 000626   200014 036100                    ADLQ    J+1,,AUTO
         1 000627   000000 621006                    EAX1    0,QL
         1 000630   000001 741110                    STX1    1,X0,PR0

      195     4998    2           END;                            /* DO I=                              */

   4998  1 000631   200012 235100                    LDA     I,,AUTO
         1 000632   000001 035007                    ADLA    1,DL
         1 000633   200012 755100                    STA     I,,AUTO
         1 000634   200005 236100                    LDQ     NUMNODES,,AUTO
         1 000635   000002 136007                    SBLQ    2,DL
         1 000636   000641 604000 1                  TMI     s:4999
         1 000637   200012 116100                    CMPQ    I,,AUTO
         1 000640   000617 603000 1                  TRC     s:4997

      196     4999    2           DO I=0 TO NUMNODES-2;

   4999  1 000641   200012 450100                    STZ     I,,AUTO
         1 000642   000726 710000 1                  TRA     s:5009+3

      197     5000    2             STARTPG=PINCRW(HDR$,I*4)->BAS_HDR.BASE/1024;

   5000  1 000643   200012 235100                    LDA     I,,AUTO
         1 000644   000002 735000                    ALS     2
         1 000645   200011 470500                    LDP0    HDR$,,AUTO
         1 000646   000000 236105                    LDQ     0,AL,PR0
         1 000647   002000 506007                    DIV     1024,DL
         1 000650   200007 756100                    STQ     STARTPG,,AUTO

      198     5001    2             LASTPG=STARTPG+PINCRW(HDR$,I*4)->BAS_HDR.SIZE/1024-1;
PL6.E3A0      #001=INITM File=ISI$MM.:E05TSI                                     TUE 07/29/97 22:54 Page:34

   5001  1 000651   200012 235100                    LDA     I,,AUTO
         1 000652   000002 735000                    ALS     2
         1 000653   000002 236105                    LDQ     2,AL,PR0
         1 000654   000012 772000                    QRL     10
         1 000655   200007 036100                    ADLQ    STARTPG,,AUTO
         1 000656   000001 136007                    SBLQ    1,DL
         1 000657   200010 756100                    STQ     LASTPG,,AUTO

      199     5002    2             INFOX$=PINCRW(MSEGTBL$,15+I*LSEG#PTWS);

   5002  1 000660   200012 236100                    LDQ     I,,AUTO
         1 000661   200006 402100                    MPY     LSEG#PTWS,,AUTO
         1 000662   000022 736000                    QLS     18
         1 000663   000017 036003                    ADLQ    15,DU
         1 000664   000001 036000 0                  ADLQ    MSEGTBL$
         1 000665   200003 756100                    STQ     INFOX$,,AUTO

      200     5003    3             DO J=0 TO LASTPG-STARTPG;

   5003  1 000666   200013 450100                    STZ     J,,AUTO
         1 000667   000717 710000 1                  TRA     s:5008+1

      201     5004    3               BAS_PT.SCTRL(J)=%SCUSER;

   5004  1 000670   200003 470500                    LDP0    INFOX$,,AUTO
         1 000671   200013 720100                    LXL0    J,,AUTO
         1 000672   000000 236110                    LDQ     0,X0,PR0
         1 000673   000002 376000 2                  ANQ     2
         1 000674   000400 276007                    ORQ     256,DL
         1 000675   000000 756110                    STQ     0,X0,PR0

      202     5005    3               BAS_PT.CTRL(J)=%PGINMEM|%PGHKEEP|%PGIOM;

   5005  1 000676   000000 236110                    LDQ     0,X0,PR0
         1 000677   000003 376000 2                  ANQ     3
         1 000700   000054 276007                    ORQ     44,DL
PL6.E3A0      #001=INITM File=ISI$MM.:E05TSI                                     TUE 07/29/97 22:54 Page:35
         1 000701   000000 756110                    STQ     0,X0,PR0

      203     5006    3               IF S1000_FLG='1'B THEN BAS_PT.RPN(J)=WS0PT.RPN(STARTPG+J);

   5006  1 000702   000000 234000 xsym               SZN     S1000_FLG
         1 000703   000712 605000 1                  TPL     s:5007

   5006  1 000704   200007 236100                    LDQ     STARTPG,,AUTO
         1 000705   200013 036100                    ADLQ    J,,AUTO
         1 000706   000000 471400 xsym               LDP1    WS0PT$
         1 000707   100000 221106                    LDX1    0,QL,PR1
         1 000710   000000 741110                    STX1    0,X0,PR0
         1 000711   000716 710000 1                  TRA     s:5008

      204     5007    3                 ELSE BAS_PT.RPN(J)=STARTPG+J;

   5007  1 000712   200007 236100                    LDQ     STARTPG,,AUTO
         1 000713   200013 036100                    ADLQ    J,,AUTO
         1 000714   000000 621006                    EAX1    0,QL
         1 000715   000000 741110                    STX1    0,X0,PR0

      205     5008    3             END;                          /* DO J=                              */

   5008  1 000716   200013 054100                    AOS     J,,AUTO
         1 000717   200010 236100                    LDQ     LASTPG,,AUTO
         1 000720   200007 136100                    SBLQ    STARTPG,,AUTO
         1 000721   200013 116100                    CMPQ    J,,AUTO
         1 000722   000670 605000 1                  TPL     s:5004

      206     5009    2           END;                            /* DO I=                              */

   5009  1 000723   200012 235100                    LDA     I,,AUTO
         1 000724   000001 035007                    ADLA    1,DL
         1 000725   200012 755100                    STA     I,,AUTO
         1 000726   200005 236100                    LDQ     NUMNODES,,AUTO
         1 000727   000002 136007                    SBLQ    2,DL
         1 000730   000733 604000 1                  TMI     s:5010
PL6.E3A0      #001=INITM File=ISI$MM.:E05TSI                                     TUE 07/29/97 22:54 Page:36
         1 000731   200012 116100                    CMPQ    I,,AUTO
         1 000732   000643 603000 1                  TRC     s:5000

      207     5010    1           MSEGTAB.NODEINFO(NUMNODES-1)='0'B;

   5010  1 000733   000001 470400 0                  LDP0    MSEGTBL$
         1 000734   200005 720100                    LXL0    NUMNODES,,AUTO
         1 000735   000000 450110                    STZ     0,X0,PR0

      208     5011        /**/
      209     5012    1   INITM4:
      210     5013        /* TIGR data if DB or Recovery */
      211     5014    1           IF(RCV_FLG='0'B OR ADIR.TIGRDATA.SIZE=0) THEN;

   5014  1 000736   000000 236000 xsym  INITM4       LDQ     RCV_FLG
         1 000737   740000 316003                    CANQ    -16384,DU
         1 000740   001006 600000 1                  TZE     s:5031
         1 000741   000116 235000 xsym               LDA     ADIR+78
         1 000742   001006 600000 1                  TZE     s:5031

      212     5015    2             ELSE DO;

      213     5016    2                 J=ADIR.TIGRDATA.SIZE;

   5016  1 000743   200013 755100                    STA     J,,AUTO

      214     5017    2                 I=0;

   5017  1 000744   200012 450100                    STZ     I,,AUTO

      215     5018    2   INITM5:
      216     5019    2                 MONPT.SCTRL(%TIGRLO+I)=%SCUSER;

   5019  1 000745   200004 470500       INITM5       LDP0    INFOY$,,AUTO
         1 000746   200012 720100                    LXL0    I,,AUTO
         1 000747   000610 236110                    LDQ     392,X0,PR0
         1 000750   000002 376000 2                  ANQ     2
PL6.E3A0      #001=INITM File=ISI$MM.:E05TSI                                     TUE 07/29/97 22:54 Page:37
         1 000751   000400 276007                    ORQ     256,DL
         1 000752   000610 756110                    STQ     392,X0,PR0

      217     5020    2                 MONPT.CTRL(%TIGRLO+I)=%PGINMEM|%PGWRITE|%PGIOM;

   5020  1 000753   000610 236110                    LDQ     392,X0,PR0
         1 000754   000003 376000 2                  ANQ     3
         1 000755   000064 276007                    ORQ     52,DL
         1 000756   000610 756110                    STQ     392,X0,PR0

      218     5021    2                 IF S1000_FLG='1'B THEN MONPT.RPN(%TIGRLO+I)=WS0PT.RPN(ADIR.TIGRDATA.
              5021                          BASE/1024+I);

   5021  1 000757   000000 234000 xsym               SZN     S1000_FLG
         1 000760   000770 605000 1                  TPL     s:5022

   5021  1 000761   000114 236000 xsym               LDQ     ADIR+76
         1 000762   000012 772000                    QRL     10
         1 000763   200012 036100                    ADLQ    I,,AUTO
         1 000764   000000 471400 xsym               LDP1    WS0PT$
         1 000765   100000 221106                    LDX1    0,QL,PR1
         1 000766   000610 741110                    STX1    392,X0,PR0
         1 000767   000775 710000 1                  TRA     s:5023

      219     5022    2                   ELSE MONPT.RPN(%TIGRLO+I)=ADIR.TIGRDATA.BASE/1024+I;

   5022  1 000770   000114 236000 xsym               LDQ     ADIR+76
         1 000771   000012 772000                    QRL     10
         1 000772   200012 036100                    ADLQ    I,,AUTO
         1 000773   000000 621006                    EAX1    0,QL
         1 000774   000610 741110                    STX1    392,X0,PR0

      220     5023    3                 IF (J-1024)>0 THEN DO;

   5023  1 000775   200013 235100                    LDA     J,,AUTO
         1 000776   002000 115007                    CMPA    1024,DL
         1 000777   001006 604400 1                  TMOZ    s:5031
PL6.E3A0      #001=INITM File=ISI$MM.:E05TSI                                     TUE 07/29/97 22:54 Page:38

      221     5024    3                       J=J-1024;

   5024  1 001000   002000 336007                    LCQ     1024,DL
         1 001001   200013 056100                    ASQ     J,,AUTO

      222     5025    3                       I=I+1;

   5025  1 001002   200012 235100                    LDA     I,,AUTO
         1 001003   000001 035007                    ADLA    1,DL
         1 001004   200012 755100                    STA     I,,AUTO

      223     5026    3                       GOTO INITM5;

   5026  1 001005   000745 710000 1                  TRA     INITM5

      224     5027    3                     END;                  /* THEN                               */
      225     5028    2                   ELSE;
      226     5029    2               END;                        /* ELSE                               */
      227     5030        /* Put privileges in JIT */
      228     5031    1           INFOX_PTR='0'B;

   5031  1 001006   200003 450100                    STZ     INFOX$,,AUTO

      229     5032    1           INFOX_PTR.S_D_FIELD=%ALS_JIT;

   5032  1 001007   006052 236007                    LDQ     3114,DL
         1 001010   200003 752103                    STCQ    INFOX$,'03'O,AUTO

      230     5033    1           B$JIT.PRIV.ACTIVE='777777777777'O;

   5033  1 001011   000027 236000 xsym               LDQ     B_VECTNIL+23
         1 001012   200003 470500                    LDP0    INFOX$,,AUTO
         1 001013   000013 756100                    STQ     11,,PR0

      231     5034    1           B$JIT.PRIV.AUTH='777777777777'O;

PL6.E3A0      #001=INITM File=ISI$MM.:E05TSI                                     TUE 07/29/97 22:54 Page:39
   5034  1 001014   000014 756100                    STQ     12,,PR0

      232     5035    1           IF RPM_FLG THEN PPDBR=HDRMD.BASE/512; /* On RPM the PDBR is 19 bits   */

   5035  1 001015   000000 234000 xsym               SZN     RPM_FLG
         1 001016   001024 605000 1                  TPL     s:5036

   5035  1 001017   000000 236000 xsym               LDQ     HDRMD
         1 001020   001000 506007                    DIV     512,DL
         1 001021   000021 736000                    QLS     17
         1 001022   000003 756000 0                  STQ     PPDBR
         1 001023   001044 710000 1                  TRA     s:5038

      233     5036    1             ELSE IF S1000_FLG='1'B THEN PPDBR=WS0PT.RPN(HDRMD.BASE/1024)*2*4;
              5036                      /* PPDBR is a mod 512 address on 17 bits */

   5036  1 001024   000000 234000 xsym               SZN     S1000_FLG
         1 001025   001037 605000 1                  TPL     s:5037

   5036  1 001026   000000 236000 xsym               LDQ     HDRMD
         1 001027   002000 506007                    DIV     1024,DL
         1 001030   000000 471400 xsym               LDP1    WS0PT$
         1 001031   100000 236106                    LDQ     0,QL,PR1
         1 001032   000017 772000                    QRL     15
         1 001033   000005 376000 2                  ANQ     5
         1 001034   000021 736000                    QLS     17
         1 001035   000003 756000 0                  STQ     PPDBR
         1 001036   001044 710000 1                  TRA     s:5038

      234     5037    1               ELSE PPDBR=(HDRMD.BASE/512)*16; /* On DPS8 the PDBR is 15 bits long */

   5037  1 001037   000000 236000 xsym               LDQ     HDRMD
         1 001040   001000 506007                    DIV     512,DL
         1 001041   000004 736000                    QLS     4
         1 001042   000021 736000                    QLS     17
         1 001043   000003 756000 0                  STQ     PPDBR

PL6.E3A0      #001=INITM File=ISI$MM.:E05TSI                                     TUE 07/29/97 22:54 Page:40
      235     5038    1           RETURN;

   5038  1 001044   000000 702200 xent               TSX2  ! X66_ARET
      236     5039    1   END INITM;
      237     5040        %EOD;

PL6.E3A0      #001=INITM File=ISI$MM.:E05TSI                                     TUE 07/29/97 22:54 Page:41
--  Include file information  --

   B$JIT_C.:E05TOU  is referenced.
   M_INFO_C.:E05TOU  is referenced.
   B_STRINGS_C.:E05TOU  is referenced.
   IS$MACROS.:E05TOU  is referenced.
      No diagnostics issued in procedure INITM.
PL6.E3A0      #001=INITM File=ISI$MM.:E05TSI                                     TUE 07/29/97 22:54 Page:42

 **** Variables and constants ****

  ****  Section 000  Data  INITM

  ****  Scalars and arrays  ****
OctLoc.c.b A Datatyp(siz) R M Lvl/name                 OctLoc.c.b A Datatyp(siz) R M Lvl/name

     0-0-0/w PTR         r     1 AALS$                      4-0-0/w BIT         r     1 DIR_ENT0
     1-0-0/w PTR         r     1 MSEGTBL$                   1-0-0/w STRC        r     1 MSEGTBL_PTR
     3-0-0/w UBIN(19)    r     1 PPDBR

  ****  Auto variables  ****

  ****  Scalars and arrays  ****
OctLoc.c.b A Datatyp(siz) R M Lvl/name                 OctLoc.c.b A Datatyp(siz) R M Lvl/name

    11-0-0/w PTR         r     1 HDR$                      12-0-0/w UBIN        r     1 I
     3-0-0/w PTR         r     1 INFOX$                     3-0-0/w STRC        r     1 INFOX_PTR
     4-0-0/w PTR         r     1 INFOY$                     4-0-0/w STRC        r     1 INFOY_PTR
    13-0-0/w SBIN        r     1 J                         10-0-0/w UBIN        r     1 LASTPG
     6-0-0/w UBIN        r     1 LSEG#PTWS                  5-0-0/w UBIN        r     1 NUMNODES
     7-0-0/w UBIN        r     1 STARTPG

  ****  SYMREF variables  ****

  ****  Scalars and arrays  ****
OctLoc.c.b A Datatyp(siz) R M Lvl/name                 OctLoc.c.b A Datatyp(siz) R M Lvl/name

     0-0-0/w STRC(8640)  r     1 ADIR                       0-0-0/w UBIN        r     1 BASEJ
     0-0-0/w UBIN        r     1 BASEMPT                    0-0-0/b BIT         r     1 BSNLS
     0-0-0/w STRC        r     1 FPMC                       0-0-0/w STRC(144)   r     1 HDRMD
     0-0-0/w STRC(144)   r     1 HDRMH                      0-0-0/w STRC(144)   r     1 HDRMP0
     0-0-0/b BIT         r     1 HDRMP1                     0-0-0/w UBIN        r     1 MONPLL
     0-0-0/b BIT         r     1 MSEGTBL                    0-0-0/b BIT (4)     r     1 RCV_FLG
     0-0-0/b BIT         r     1 RPM_FLG                    0-0-0/b BIT         r     1 S1000_FLG
     0-0-0/w PTR         r     1 WS0PT$                     0-0-0/b BIT         r     1 XA_MODE

PL6.E3A0      #001=INITM File=ISI$MM.:E05TSI                                     TUE 07/29/97 22:54 Page:43
  ****  BASED and DCB variables  ****

  ****  Scalars and arrays  ****
OctLoc.c.b A Datatyp(siz) R M Lvl/name                 OctLoc.c.b A Datatyp(siz) R M Lvl/name

     0-0-0/d STRC(865)   r     1 B$JIT                      0-0-0/w STRC(144)   r     1 BAS_HDR
     0-0-0/w STRC        r     1 BAS_PT(0:0)                0-0-0/w STRC        r     1 DIRW0
     0-0-0/w STRC        r     1 MONPT(0:0)                 0-0-0/w UBIN        r     1 MROREC_NODES#
     0-0-0/w STRC(576)   r     1 MSEGTAB                    0-0-0/w STRC        r     1 WS0PT(0:0)
     0-0-0/w STRC        r     1 WSPTD(0:28)


   Procedure INITM requires 549 words for executable code.
   Procedure INITM requires 14 words of local(AUTO) storage.
PL6.E3A0      #001=INITM File=ISI$MM.:E05TSI                                     TUE 07/29/97 22:54 Page:44
          *** CROSS REFERENCE LISTING ***
**     DENOTES     IDENTIFIER DEFINITION
<<                 IDENTIFIER'S VALUE SET
>>                 IDENTIFIER'S VALUE USED
<>                 IDENTIFIER SET AND/OR USED
--                 IDENTIFIER REFERENCED
PL6.E3A0      #001=INITM File=ISI$MM.:E05TSI                                     TUE 07/29/97 22:54 Page:45
          MINI XREF LISTING

AALS$
      4671**DCL      2354--IMP-PTR
ADIR.FW.ADIR
      2214**DCL      2215--REDEF
ADIR.MONID.M
      2174**DCL      2177--REDEF
ADIR.TIGRDATA.BASE
      2088**DCL      5021>>ASSIGN   5022>>ASSIGN
ADIR.TIGRDATA.SIZE
      2090**DCL      5014>>IF       5016>>ASSIGN
B$JIT.ERR.MID
      1878**DCL      1878--REDEF
B$JIT.PRIV.ACTIVE
      1878**DCL      5033<<ASSIGN
B$JIT.PRIV.AUTH
      1918**DCL      5034<<ASSIGN
BASEJ
      4838**DCL      4925>>ASSIGN   4926>>ASSIGN
BASEMPT
      4837**DCL      4898>>ASSIGN   4900>>ASSIGN   4901>>ASSIGN   4903>>ASSIGN   4908>>ASSIGN   4910>>ASSIGN
      4911>>ASSIGN   4913>>ASSIGN   4918>>ASSIGN   4919>>ASSIGN
BAS_HDR.BASE
      4822**DCL      5000>>ASSIGN
BAS_HDR.DA
      4823**DCL      4824--REDEF
BAS_HDR.SIZE
      4827**DCL      4988>>ASSIGN   4990>>ASSIGN   5001>>ASSIGN
BAS_PT.CTRL
      4722**DCL      5005<<ASSIGN
BAS_PT.RPN
      4717**DCL      4718--REDEF    5006<<ASSIGN   5007<<ASSIGN
BAS_PT.SCTRL
PL6.E3A0      #001=INITM File=ISI$MM.:E05TSI                                     TUE 07/29/97 22:54 Page:46
      4719**DCL      4720--REDEF    5004<<ASSIGN
BSNLS
      4670**DCL      4671--DCLINIT
DIRW0
      4742**DCL      4886>>ASSIGN   4887>>ASSIGN
DIR_ENT0
      4835**DCL      4887<<ASSIGN
FPMC
      4854**DCL      4895>>ASSIGN
FPMC.RPN
      4855**DCL      4856--REDEF
FPMC.SCTRL
      4857**DCL      4858--REDEF
HDR$
      4832**DCL      4821--IMP-PTR  4987<<ASSIGN   4988>>ASSIGN   4990>>ASSIGN   5000>>ASSIGN   5001>>ASSIGN
HDRMD.BASE
      4800**DCL      4960>>ASSIGN   4961>>ASSIGN   4974>>ASSIGN   4975>>ASSIGN   5035>>ASSIGN   5036>>ASSIGN
      5037>>ASSIGN
HDRMD.DA
      4801**DCL      4802--REDEF
HDRMD.SIZE
      4805**DCL      4955>>ASSIGN
HDRMH.BASE
      4789**DCL      4941>>ASSIGN   4942>>ASSIGN
HDRMH.DA
      4790**DCL      4791--REDEF
HDRMH.SIZE
      4794**DCL      4936>>ASSIGN
HDRMP0.DA
      4812**DCL      4813--REDEF
HDRMP0.SIZE
      4816**DCL      4970>>ASSIGN
HDRMP1
      4831**DCL      4987--ASSIGN
I
      4872**DCL      4877<<DOINDEX  4878>>ASSIGN   4879>>ASSIGN   4880>>ASSIGN   4894<<DOINDEX  4895>>ASSIGN
PL6.E3A0      #001=INITM File=ISI$MM.:E05TSI                                     TUE 07/29/97 22:54 Page:47
      4915<<DOINDEX  4916>>ASSIGN   4917>>ASSIGN   4918>>ASSIGN   4918>>ASSIGN   4919>>ASSIGN   4919>>ASSIGN
      4921<<DOINDEX  4922>>ASSIGN   4923>>ASSIGN   4924>>ASSIGN   4925>>ASSIGN   4926>>ASSIGN   4929<<DOINDEX
      4930>>ASSIGN   4931>>ASSIGN   4932>>ASSIGN   4932>>ASSIGN   4933>>ASSIGN   4933>>ASSIGN   4937<<ASSIGN
      4939>>ASSIGN   4940>>ASSIGN   4941>>ASSIGN   4941>>ASSIGN   4942>>ASSIGN   4942>>ASSIGN   4945<<ASSIGN
      4945>>ASSIGN   4956<<ASSIGN   4958>>ASSIGN   4959>>ASSIGN   4960>>ASSIGN   4960>>ASSIGN   4961>>ASSIGN
      4961>>ASSIGN   4964<<ASSIGN   4964>>ASSIGN   4968<<ASSIGN   4968>>ASSIGN   4969>>ASSIGN   4972>>ASSIGN
      4973>>ASSIGN   4974>>ASSIGN   4974>>ASSIGN   4975>>ASSIGN   4975>>ASSIGN   4978<<ASSIGN   4978>>ASSIGN
      4983>>ASSIGN   4989<<DOINDEX  4990>>ASSIGN   4993<<DOINDEX  4994>>ASSIGN   4996<<DOINDEX  4997>>ASSIGN
      4997>>ASSIGN   4999<<DOINDEX  5000>>ASSIGN   5001>>ASSIGN   5002>>ASSIGN   5017<<ASSIGN   5019>>ASSIGN
      5020>>ASSIGN   5021>>ASSIGN   5021>>ASSIGN   5022>>ASSIGN   5022>>ASSIGN   5025<<ASSIGN   5025>>ASSIGN
INFOX$
      2217**DCL      1872--IMP-PTR  2229--REDEF    2256--IMP-PTR  4697--IMP-PTR  4726--IMP-PTR  4878>>ASSIGN
      4879>>ASSIGN   4880>>ASSIGN   4886>>ASSIGN   4898>>ASSIGN   4900>>ASSIGN   4901>>ASSIGN   4903>>ASSIGN
      4905>>ASSIGN   4906>>ASSIGN   4907>>ASSIGN   4908>>ASSIGN   4910>>ASSIGN   4911>>ASSIGN   4913>>ASSIGN
      4986>>ASSIGN   5002<<ASSIGN   5004>>ASSIGN   5005>>ASSIGN   5006>>ASSIGN   5007>>ASSIGN   5033>>ASSIGN
      5034>>ASSIGN
INFOX_PTR
      2229**DCL      4875<<ASSIGN   4984<<ASSIGN   5031<<ASSIGN
INFOX_PTR.S_D_FIELD
      2233**DCL      4876<<ASSIGN   4985<<ASSIGN   5032<<ASSIGN
INFOY$
      2236**DCL      2248--REDEF    2285--IMP-PTR  4742--IMP-PTR  4886>>ASSIGN   4887>>ASSIGN   4895>>ASSIGN
      4916>>ASSIGN   4917>>ASSIGN   4918>>ASSIGN   4919>>ASSIGN   4923>>ASSIGN   4924>>ASSIGN   4925>>ASSIGN
      4926>>ASSIGN   4930>>ASSIGN   4931>>ASSIGN   4932>>ASSIGN   4933>>ASSIGN   4939>>ASSIGN   4940>>ASSIGN
      4941>>ASSIGN   4942>>ASSIGN   4950>>ASSIGN   4951>>ASSIGN   4952>>ASSIGN   4953>>ASSIGN   4958>>ASSIGN
      4959>>ASSIGN   4960>>ASSIGN   4961>>ASSIGN   4972>>ASSIGN   4973>>ASSIGN   4974>>ASSIGN   4975>>ASSIGN
      5019>>ASSIGN   5020>>ASSIGN   5021>>ASSIGN   5022>>ASSIGN
INFOY_PTR
      2248**DCL      4883<<ASSIGN   4891<<ASSIGN
INFOY_PTR.S_D_FIELD
      2252**DCL      4884<<ASSIGN   4892<<ASSIGN
INFOY_PTR.WOFFS
      2249**DCL      4885<<ASSIGN
INITM1
      4958**LABEL    4965--GOTO
INITM2
PL6.E3A0      #001=INITM File=ISI$MM.:E05TSI                                     TUE 07/29/97 22:54 Page:48
      4972**LABEL    4979--GOTO
INITM5
      5019**LABEL    5026--GOTO
INITMHJ
      4939**LABEL    4946--GOTO
J
      4873**DCL      4922<<ASSIGN   4925>>ASSIGN   4926>>ASSIGN   4936<<ASSIGN   4943>>IF       4944<<ASSIGN
      4944>>ASSIGN   4955<<ASSIGN   4962>>IF       4963<<ASSIGN   4963>>ASSIGN   4970<<ASSIGN   4976>>IF
      4977<<ASSIGN   4977>>ASSIGN   5003<<DOINDEX  5004>>ASSIGN   5005>>ASSIGN   5006>>ASSIGN   5006>>ASSIGN
      5007>>ASSIGN   5007>>ASSIGN   5016<<ASSIGN   5023>>IF       5024<<ASSIGN   5024>>ASSIGN
LASTPG
      4730**DCL      5001<<ASSIGN   5003>>DOINDEX
LSEG#PTWS
      4728**DCL      4988<<ASSIGN   4990<<ASSIGN   4990>>ASSIGN   4992<<ASSIGN   4992>>ASSIGN   4994>>ASSIGN
      4997>>ASSIGN   5002>>ASSIGN
MONPLL
      4836**DCL      4969<<ASSIGN
MONPT
      2285**DCL      4895<<ASSIGN
MONPT.CTRL
      2310**DCL      4917<<ASSIGN   4924<<ASSIGN   4931<<ASSIGN   4940<<ASSIGN   4951<<ASSIGN   4959<<ASSIGN
      4973<<ASSIGN   5020<<ASSIGN
MONPT.RPN
      2305**DCL      2306--REDEF    4918<<ASSIGN   4919<<ASSIGN   4925<<ASSIGN   4926<<ASSIGN   4932<<ASSIGN
      4933<<ASSIGN   4941<<ASSIGN   4942<<ASSIGN   4952<<ASSIGN   4953<<ASSIGN   4960<<ASSIGN   4961<<ASSIGN
      4974<<ASSIGN   4975<<ASSIGN   5021<<ASSIGN   5022<<ASSIGN
MONPT.SCTRL
      2307**DCL      2308--REDEF    4916<<ASSIGN   4923<<ASSIGN   4930<<ASSIGN   4939<<ASSIGN   4950<<ASSIGN
      4958<<ASSIGN   4972<<ASSIGN   5019<<ASSIGN
MROREC_NODES#
      4726**DCL      4986>>ASSIGN
MSEGTAB.FSTPG_BYTEAD
      4693**DCL      4983<<ASSIGN
MSEGTAB.NODEINFO
      4694**DCL      5010<<ASSIGN
MSEGTAB.NODEINFO.RELADDR
PL6.E3A0      #001=INITM File=ISI$MM.:E05TSI                                     TUE 07/29/97 22:54 Page:49
      4695**DCL      4997<<ASSIGN   4997>>ASSIGN
MSEGTAB.NODEINFO.SIZE
      4696**DCL      4994<<ASSIGN
MSEGTBL
      4672**DCL      4673--DCLINIT
MSEGTBL$
      4673**DCL      4685--REDEF    4692--IMP-PTR  4983>>ASSIGN   4994>>ASSIGN   4997>>ASSIGN   4997>>ASSIGN
      5002>>ASSIGN   5010>>ASSIGN
MSEGTBL_PTR.WOFFS
      4686**DCL      4952>>ASSIGN   4953>>ASSIGN
NUMNODES
      4727**DCL      4986<<ASSIGN   4989>>DOINDEX  4993>>DOINDEX  4996>>DOINDEX  4999>>DOINDEX  5010>>ASSIGN
PPDBR
      4834**DCL      5035<<ASSIGN   5036<<ASSIGN   5037<<ASSIGN
RCV_FLG
      4842**DCL      5014>>IF
RPM_FLG
      4841**DCL      4898>>IF       4908>>IF       5035>>IF
S1000_FLG
      4839**DCL      4882>>IF       4899>>IF       4909>>IF       4918>>IF       4925>>IF       4932>>IF
      4941>>IF       4952>>IF       4960>>IF       4974>>IF       5006>>IF       5021>>IF       5036>>IF
STARTPG
      4729**DCL      5000<<ASSIGN   5001>>ASSIGN   5003>>DOINDEX  5006>>ASSIGN   5007>>ASSIGN
WS0PT.RPN
      2334**DCL      2335--REDEF    4900>>ASSIGN   4901>>ASSIGN   4910>>ASSIGN   4911>>ASSIGN   4918>>ASSIGN
      4925>>ASSIGN   4932>>ASSIGN   4941>>ASSIGN   4952>>ASSIGN   4960>>ASSIGN   4974>>ASSIGN   5006>>ASSIGN
      5021>>ASSIGN   5036>>ASSIGN
WS0PT.SCTRL
      2336**DCL      2337--REDEF
WS0PT$
      2255**DCL      2314--IMP-PTR  4900>>ASSIGN   4901>>ASSIGN   4910>>ASSIGN   4911>>ASSIGN   4918>>ASSIGN
      4925>>ASSIGN   4932>>ASSIGN   4941>>ASSIGN   4952>>ASSIGN   4960>>ASSIGN   4974>>ASSIGN   5006>>ASSIGN
      5021>>ASSIGN   5036>>ASSIGN
WSPTD
      2256**DCL      4878<<ASSIGN   4886<<ASSIGN   4905<<ASSIGN
WSPTD.BLKNO
PL6.E3A0      #001=INITM File=ISI$MM.:E05TSI                                     TUE 07/29/97 22:54 Page:50
      2276**DCL      4898<<ASSIGN   4900<<ASSIGN   4901<<ASSIGN   4903<<ASSIGN   4908<<ASSIGN   4910<<ASSIGN
      4911<<ASSIGN   4913<<ASSIGN
WSPTD.NBLKS
      2281**DCL      4880<<ASSIGN   4907<<ASSIGN
WSPTD.P
      2278**DCL      4879<<ASSIGN   4906<<ASSIGN
W_PTW.RPN
      4771**DCL      4772--REDEF
W_PTW.SCTRL
      4773**DCL      4774--REDEF
XA_MODE
      4840**DCL      4900>>IF       4910>>IF

PL6.E3A0      #002=INIT1 File=ISI$MM.:E05TSI                                     TUE 07/29/97 22:55 Page:51
      238        1        /*T***********************************************************/
      239        2        /*T*                                                         */
      240        3        /*T* Copyright (c) Bull HN Information Systems Inc., 1997    */
      241        4        /*T*                                                         */
      242        5        /*T***********************************************************/
      243        6        INIT1:  PROC;
      244        7        /* Build GHOST1 page table */
      245        8        /**/
      246        9        %INCLUDE IS$MACROS;
      247     1284        %INCLUDE B_STRINGS_C;
      248     1413        %INCLUDE M_INFO_C;
      249     1553        %INCLUDE B$JIT_C;
      250     1867        %INCLUDE B_LSDATA_C;
      251     5073        %INCLUDE B_UHJMAC_C;
      252     5402        /**/
      253     5403        %B$JIT0(STCLASS="BASED(INFOY$)");
      254     5492        %U$JIT1;
      255     5566        %M$JIT2;
      256     5576        %F$JIT3;
      257     5581        %S$JIT4;
      258     5587        %J$JIT5;
      259     5675        %A$JIT6;
      260     5685        %DIRHDR(NAME=HDRGD,STCLASS="SYMREF");
      261     5696        %DIRHDR(NAME=HDRGP,STCLASS="SYMREF");
      262     5707    1   DCL INFOX$ PTR;
      263     5708        %PTR_STRUCT(NAME=INFOX_PTR,STCLASS="REDEF INFOX$");
      264     5726    1   DCL INFOY$ PTR;
      265     5727        %PTR_STRUCT(NAME=INFOY_PTR,STCLASS="REDEF INFOY$");
      266     5745    1   DCL WS0PT$ PTR SYMREF;
      267     5746        %PTR_STRUCT(NAME=WS0PT_PTR,STCLASS="REDEF WS0PT$");
      268     5764    1   DCL 1 WSPTD(0:28) ALIGNED BASED(INFOY$), /* Directory                         */
      269     5765        %DIRW(LVL=2);
      270     5793    1   DCL 1 WS0PT(0:0) ALIGNED BASED(WS0PT$), /* WS0 PT                             */
      271     5794        %PTW(LVL=2);
      272     5822        %AALS(STCLASS="BASED(AALS$)");          /* AARDV LSR                          */
      273     8149    1   DCL BSNLS BIT(1) SYMREF;
      274     8150    1   DCL AALS$ PTR STATIC INIT(ADDR(BSNLS));
PL6.E3A0      #002=INIT1 File=ISI$MM.:E05TSI                                     TUE 07/29/97 22:55 Page:52
      275     8151    1   DCL 1 G1PT(0:0) ALIGNED BASED(INFOX$),  /* MON PT                             */
      276     8152        %PTW(LVL=2);
      277     8180        /**/
      278     8181    1   DCL PAG_PPH UBIN HALF STATIC SYMDEF;    /* Phisical page head                 */
      279     8182    1   DCL PAG_PPT UBIN HALF STATIC SYMDEF;    /* Phisical page tail                 */
      280     8183    1   DCL PAG_PPC UBIN HALF STATIC SYMDEF;    /* Phisical page count                */
      281     8184    1   DCL BASEH1 UBIN WORD SYMREF;
      282     8185    1   DCL BASEJ1 UBIN WORD SYMREF;
      283     8186    1   DCL BASEGPT UBIN WORD SYMREF;
      284     8187    1   DCL S1000_FLG BIT(1) SYMREF;
      285     8188    1   DCL XA_MODE BIT(1) SYMREF;
      286     8189    1   DCL RPM_FLG BIT(1) SYMREF;
      287     8190    1   DCL FPMC BIT(36) SYMREF;
      288     8191        /**/
      289     8192    1   DCL I UBIN WORD;
      290     8193    1   DCL J SBIN WORD;
      291     8194    1   DCL K UBIN WORD;
      292     8195        /**/
      293     8196    1           INFOX_PTR='0'B;
      294     8197    1           INFOX_PTR.S_D_FIELD=%ALS_G1PGTBL; /* Frame GHOST1 PT                  */
      295     8198    2           DO I=0 TO 1023;                 /* Fill with free page pattern        */
      296     8199    2             G1PT(I)=FPMC;
      297     8200    2           END;                            /* DO I=                              */
      298     8201        /* Fill WSPTD entry */
      299     8202    1           INFOY_PTR='0'B;
      300     8203    1           INFOY_PTR.S_D_FIELD=%ALS_MONIS; /* Frame WSPTD                        */
      301     8204    1           WSPTD(%USERWSQ)='0'B;
      302     8205    1           WSPTD.P(%USERWSQ)='1'B;
      303     8206    1           WSPTD.NBLKS(%USERWSQ)=16;
      304     8207    1           IF RPM_FLG THEN WSPTD.BLKNO(%USERWSQ)=BASEGPT/1024;
      305     8208    2             ELSE IF S1000_FLG='1'B THEN DO;
      306     8209    2                   IF XA_MODE THEN WSPTD.BLKNO(%USERWSQ)=WS0PT.RPN(BASEGPT/1024);
      307     8210    2                     ELSE WSPTD.BLKNO(%USERWSQ)=WS0PT.RPN(BASEGPT/1024)*16;
              8210                              /* Make it a MOD 64 address */
      308     8211    2                 END;                      /*THEN                                */
      309     8212    1               ELSE WSPTD.BLKNO(%USERWSQ)=BASEGPT/64; /* Make it a MOD 64 address */
      310     8213        /* Fill 1'st page */
PL6.E3A0      #002=INIT1 File=ISI$MM.:E05TSI                                     TUE 07/29/97 22:55 Page:53
      311     8214    1           G1PT.SCTRL(%PGTBLLO)=%SCUSER;
      312     8215    1           G1PT.CTRL(%PGTBLLO)=%PGINMEM|%PGWRITE|%PGIOM;
      313     8216    1           IF S1000_FLG='1'B THEN G1PT.RPN(%PGTBLLO)=WS0PT.RPN(BASEGPT/1024);
      314     8217    1             ELSE G1PT.RPN(%PGTBLLO)=BASEGPT/1024;
      315     8218    2           DO I=%JITPG TO %JITEND;         /* JIT pages                          */
      316     8219    2             J=I-%JITPG;
      317     8220    2             G1PT.SCTRL(I)=%SCUSER;
      318     8221    2             G1PT.CTRL(I)=%PGINMEM|%PGWRITE|%PGIOM;
      319     8222    2             IF S1000_FLG='1'B THEN G1PT.RPN(I)=WS0PT.RPN(BASEJ1/1024+J);
      320     8223    2               ELSE G1PT.RPN(I)=BASEJ1/1024+J;
      321     8224    2           END;                            /* DO I=                              */
      322     8225    1           INFOY_PTR='0'B;
      323     8226    1           INFOY_PTR.S_D_FIELD=%ALS_JIT1;  /* Frame GHOST1 JIT                   */
      324     8227    1           B$JIT='0'B;
      325     8228    1           B$JIT.PRIOCORE=BASEJ1/1024+J;
      326     8229    1           B$JIT.USERWORD(0)=HDRGP.START;  /* GHOST1 start address               */
      327     8230    1           PAG_PPT=BASEJ1/1024+J;
      328     8231        /* Fix GHOST1 Roseg PT words */
      329     8232    1           J=AALS.DESCGR.BOUND/4;          /* Size in words                      */
      330     8233    1           I=0;
      331     8234    1   INITGR1:
      332     8235    2           IF J>0 THEN DO;
      333     8236    2                 G1PT.SCTRL(%ROSEGLO+I)=%SCUSER;
      334     8237    2                 G1PT.CTRL(%ROSEGLO+I)=%PGINMEM|%PGWRITE|%PGIOM;
      335     8238    2                 IF S1000_FLG='1'B THEN G1PT.RPN(%ROSEGLO+I)=WS0PT.RPN(AALS.DESCGR.BASE
              8238                          /4/1024+I);
      336     8239    2                   ELSE G1PT.RPN(%ROSEGLO+I)=AALS.DESCGR.BASE/4/1024+I;
      337     8240    2                 J=J-1024;
      338     8241    2                 I=I+1;
      339     8242    2                 GOTO INITGR1;
      340     8243    2               END;                        /* THEN                               */
      341     8244    1             ELSE;
      342     8245    1           B$JIT.PCROS=I;                  /* Page count Roseg                   */
      343     8246    1           IF BASEH1=0 THEN RETURN;
      344     8247    1             ELSE;
      345     8248    1           G1PT.SCTRL(%HJITPG)=%SCUSER;
      346     8249    1           G1PT.CTRL(%HJITPG)=%PGINMEM|%PGWRITE|%PGIOM|%PGHKEEP;
PL6.E3A0      #002=INIT1 File=ISI$MM.:E05TSI                                     TUE 07/29/97 22:55 Page:54
      347     8250    1           IF S1000_FLG='1'B THEN G1PT.RPN(%HJITPG)=WS0PT.RPN(BASEH1/1024);
      348     8251    1             ELSE G1PT.RPN(%HJITPG)=BASEH1/1024;
      349     8252    1           PAG_PPH=BASEH1/1024;            /* Physical page head                 */
      350     8253    1           J=HDRGD.SIZE;                   /*GHOST1 data, size in words          */
      351     8254    1           I=0;
      352     8255    1   INITGD1:
      353     8256    2           IF J>0 THEN DO;
      354     8257    2                 G1PT.SCTRL(%ISEGLO+I)=%SCUSER;
      355     8258    2                 G1PT.CTRL(%ISEGLO+I)=%PGINMEM|%PGWRITE|%PGIOM;
      356     8259    2                 IF S1000_FLG='1'B THEN G1PT.RPN(%ISEGLO+I)=WS0PT.RPN(HDRGD.BASE/1024+I
              8259                          );
      357     8260    2                   ELSE G1PT.RPN(%ISEGLO+I)=HDRGD.BASE/1024+I;
      358     8261    2                 J=J-1024;
      359     8262    2                 I=I+1;
      360     8263    2                 GOTO INITGD1;
      361     8264    2               END;                        /* THEN                               */
      362     8265    1             ELSE;
      363     8266    1           B$JIT.PCD=I;                    /* Page count for data                */
      364     8267    1           J=HDRGP.SIZE;                   /*GHOST1 proc, size in words          */
      365     8268    1           K=0;
      366     8269    1   INITGP1:
      367     8270    2           IF J>0 THEN DO;
      368     8271    2                 G1PT.SCTRL(%ISEGLO+I)=%SCUSER;
      369     8272    2                 G1PT.CTRL(%ISEGLO+I)=%PGINMEM|%PGIOM;
      370     8273    2                 IF S1000_FLG='1'B THEN G1PT.RPN(%ISEGLO+I)=WS0PT.RPN(HDRGP.BASE/1024+K
              8273                          );
      371     8274    2                   ELSE G1PT.RPN(%ISEGLO+I)=HDRGP.BASE/1024+K;
      372     8275    2                 J=J-1024;
      373     8276    2                 I=I+1;
      374     8277    2                 K=K+1;
      375     8278    2                 GOTO INITGP1;
      376     8279    2               END;                        /* THEN                               */
      377     8280    1             ELSE;
      378     8281    1           B$JIT.PCP=K;                    /* Page count for proc                */
      379     8282        /* Compute Physical page count */
      380     8283    1           B$JIT.PPC=PAG_PPT-PAG_PPH+1;
      381     8284    1           PAG_PPC=PAG_PPT-PAG_PPH+1;
PL6.E3A0      #002=INIT1 File=ISI$MM.:E05TSI                                     TUE 07/29/97 22:55 Page:55
      382     8285    1           B$JIT.PCC=5;               /* 1 page HJIT, 2 pages JIT, 1 page PT     */
      383     8286        /* Compute virtual page limits */
      384     8287    1           B$JIT.DLL=%ISEGLO;         /* Virtual page# of ISR=data lower limit   */
      385     8288    1           B$JIT.PLL=B$JIT.PCD+B$JIT.DLL;
              8288                    /* Proc lower limit=data lower limit+data count */
      386     8289    1           B$JIT.DUL=B$JIT.PLL-1;     /* Data upper limit= proc lower limit-1    */
      387     8290    1           B$JIT.PUL=B$JIT.DUL+B$JIT.PCP;  /* Proc upper limit                   */
      388     8291    1           B$JIT.TDP=B$JIT.PUL+1;          /* Top dynamic page                   */
      389     8292    1           B$JIT.DDLL=B$JIT.TDP;           /* Dynamic data lower limit           */
      390     8293    1           B$JIT.DDUL=%ISEGLO+255;         /* Dynamic data upper limit           */
      391     8294    1           B$JIT.EUP=B$JIT.DDUL;           /* End user page in ISR               */
      392     8295    1           B$JIT.PTSIZ=1023;               /* Size of users page table           */
      393     8296        /* Turn on all privilege bits */
      394     8297    1           B$JIT.PRIV.ACTIVE='777777777777'O;
      395     8298    1           B$JIT.PRIV.AUTH='777777777777'O;
      396     8299    1           B$JIT.PRIV.JOB='777777777777'O;
      397     8300        /* Set mode to GHOST1 */
      398     8301    1           B$JIT.FBUL=31;
      399     8302    1           B$JIT.MAXCORE=512;              /* #FPOOLS                            */
      400     8303    1           B$JIT.UNAME='GHOST1';
      401     8304    1           B$JIT.FACCN=':SYS';
      402     8305    1           B$JIT.ACCN=':SYS';
      403     8306    1           B$JIT.WOO='LOCAL';
      404     8307    1           B$JIT.REMLO=-1;
      405     8308    1           B$JIT.REMDO=-1;
      406     8309    1           B$JIT.MAXENQ = 255;
      407     8310    1           RETURN;
      408     8311    1   END INIT1;
      409     8312        %EOD;

PL6.E3A0      #002=INIT1 File=ISI$MM.:E05TSI                                     TUE 07/29/97 22:55 Page:56
--  Include file information  --

   B_UHJMAC_C.:E05TOU  is referenced.
   B_MLSMAC_C.:E05TOU  is referenced.
   B_ULSMAC_C.:E05TOU  is referenced.
   B_LSDATA_C.:E05TOU  cannot be made into a system file and is referenced.
   B$JIT_C.:E05TOU  is referenced.
   M_INFO_C.:E05TOU  is referenced.
   B_STRINGS_C.:E05TOU  is referenced.
   IS$MACROS.:E05TOU  is referenced.
      No diagnostics issued in procedure INIT1.

   Procedure INIT1 requires 347 words for executable code.
   Procedure INIT1 requires 10 words of local(AUTO) storage.

PL6.E3A0      #002=INIT1 File=ISI$MM.:E05TSI                                     TUE 07/29/97 22:55 Page:57

 Object Unit name= INIT1                                      File name= ISI$MM.:E05TOU
 UTS= JUL 29 '97 22:55:10.20 TUE                              Compiler= PL-6/E31         Sev=      00
 SharedLib= :SHARED_SYSTEM                                    Alt SharedLib=


    ****  Control sections  ****

 Sect   Type Bound  Init  Size OctSiz  Section name(segment info)
    0   Data  even  none     4      4  INIT1
    1  RoData even  UTS      5      5  INIT1
    2   Proc  even  none   347    533  INIT1
    3  RoData even  none     3      3  INIT1

    ****  Entry defs  ****

                              Check   Calling
                             calling  sequence
  Sect OctLoc Primary Altret sequence   type   Parms  Name
     2      0   yes            yes      Std        0  INIT1

  ****  Data defs  ****

 Sect OctLoc  Name                           Sect OctLoc  Name
    0      1  PAG_PPH                            0      2  PAG_PPT
    0      3  PAG_PPC

  ****  Entry refs  ****

         Check        Calling
        calling       sequence
Altret sequence SRef   type   Args  Name
                       Std       0 B_CONSPOOL_D
                       nStd      0 X66_AUTO_0
                       nStd      0 X66_ARET
PL6.E3A0      #002=INIT1 File=ISI$MM.:E05TSI                                     TUE 07/29/97 22:55 Page:58

  ****  Data refs  ****

  Flags:  r = read only, s = secondary
Flgs Name                             Flgs Name                             Flgs Name
     HDRGD                                 HDRGP                                 WS0PT$
     BSNLS                                 BASEH1                                BASEJ1
     BASEGPT                               S1000_FLG                             XA_MODE
     RPM_FLG                               FPMC                                  B_VECTNIL

  ****  Segment refs  ****

  Flags:  r = read only, s = secondary
Flgs Name                             Flgs Name                             Flgs Name
     ISSID
PL6.E3A0      #002=INIT1 File=ISI$MM.:E05TSI                                     TUE 07/29/97 22:55 Page:59


      238        1        /*T***********************************************************/
      239        2        /*T*                                                         */
      240        3        /*T* Copyright (c) Bull HN Information Systems Inc., 1997    */
      241        4        /*T*                                                         */
      242        5        /*T***********************************************************/
      243        6        INIT1:  PROC;

      6  2 000000   000000 700200 xent  INIT1        TSX0  ! X66_AUTO_0
         2 000001   000012 000000                    ZERO    10,0

      244        7        /* Build GHOST1 page table */
      245        8        /**/
      246        9        %INCLUDE IS$MACROS;
      247     1284        %INCLUDE B_STRINGS_C;
      248     1413        %INCLUDE M_INFO_C;
      249     1553        %INCLUDE B$JIT_C;
      250     1867        %INCLUDE B_LSDATA_C;
      251     5073        %INCLUDE B_UHJMAC_C;
      252     5402        /**/
      253     5403        %B$JIT0(STCLASS="BASED(INFOY$)");
      254     5492        %U$JIT1;
      255     5566        %M$JIT2;
      256     5576        %F$JIT3;
      257     5581        %S$JIT4;
      258     5587        %J$JIT5;
      259     5675        %A$JIT6;
      260     5685        %DIRHDR(NAME=HDRGD,STCLASS="SYMREF");
      261     5696        %DIRHDR(NAME=HDRGP,STCLASS="SYMREF");
      262     5707    1   DCL INFOX$ PTR;
      263     5708        %PTR_STRUCT(NAME=INFOX_PTR,STCLASS="REDEF INFOX$");
      264     5726    1   DCL INFOY$ PTR;
      265     5727        %PTR_STRUCT(NAME=INFOY_PTR,STCLASS="REDEF INFOY$");
      266     5745    1   DCL WS0PT$ PTR SYMREF;
      267     5746        %PTR_STRUCT(NAME=WS0PT_PTR,STCLASS="REDEF WS0PT$");
      268     5764    1   DCL 1 WSPTD(0:28) ALIGNED BASED(INFOY$), /* Directory                         */
      269     5765        %DIRW(LVL=2);
PL6.E3A0      #002=INIT1 File=ISI$MM.:E05TSI                                     TUE 07/29/97 22:55 Page:60
      270     5793    1   DCL 1 WS0PT(0:0) ALIGNED BASED(WS0PT$), /* WS0 PT                             */
      271     5794        %PTW(LVL=2);
      272     5822        %AALS(STCLASS="BASED(AALS$)");          /* AARDV LSR                          */
      273     8149    1   DCL BSNLS BIT(1) SYMREF;
      274     8150    1   DCL AALS$ PTR STATIC INIT(ADDR(BSNLS));
      275     8151    1   DCL 1 G1PT(0:0) ALIGNED BASED(INFOX$),  /* MON PT                             */
      276     8152        %PTW(LVL=2);
      277     8180        /**/
      278     8181    1   DCL PAG_PPH UBIN HALF STATIC SYMDEF;    /* Phisical page head                 */
      279     8182    1   DCL PAG_PPT UBIN HALF STATIC SYMDEF;    /* Phisical page tail                 */
      280     8183    1   DCL PAG_PPC UBIN HALF STATIC SYMDEF;    /* Phisical page count                */
      281     8184    1   DCL BASEH1 UBIN WORD SYMREF;
      282     8185    1   DCL BASEJ1 UBIN WORD SYMREF;
      283     8186    1   DCL BASEGPT UBIN WORD SYMREF;
      284     8187    1   DCL S1000_FLG BIT(1) SYMREF;
      285     8188    1   DCL XA_MODE BIT(1) SYMREF;
      286     8189    1   DCL RPM_FLG BIT(1) SYMREF;
      287     8190    1   DCL FPMC BIT(36) SYMREF;
      288     8191        /**/
      289     8192    1   DCL I UBIN WORD;
      290     8193    1   DCL J SBIN WORD;
      291     8194    1   DCL K UBIN WORD;
      292     8195        /**/
      293     8196    1           INFOX_PTR='0'B;

   8196  2 000002   200003 450100                    STZ     INFOX$,,AUTO

      294     8197    1           INFOX_PTR.S_D_FIELD=%ALS_G1PGTBL; /* Frame GHOST1 PT                  */

   8197  2 000003   006115 236007                    LDQ     3149,DL
         2 000004   200003 752103                    STCQ    INFOX$,'03'O,AUTO

      295     8198    2           DO I=0 TO 1023;                 /* Fill with free page pattern        */

   8198  2 000005   200005 450100                    STZ     I,,AUTO

      296     8199    2             G1PT(I)=FPMC;
PL6.E3A0      #002=INIT1 File=ISI$MM.:E05TSI                                     TUE 07/29/97 22:55 Page:61

   8199  2 000006   000000 236000 xsym               LDQ     FPMC
         2 000007   200003 470500                    LDP0    INFOX$,,AUTO
         2 000010   200005 720100                    LXL0    I,,AUTO
         2 000011   000000 756110                    STQ     0,X0,PR0

      297     8200    2           END;                            /* DO I=                              */

   8200  2 000012   200005 235100                    LDA     I,,AUTO
         2 000013   000001 035007                    ADLA    1,DL
         2 000014   200005 755100                    STA     I,,AUTO
         2 000015   002000 115007                    CMPA    1024,DL
         2 000016   000006 602000 2                  TNC     s:8199

      298     8201        /* Fill WSPTD entry */
      299     8202    1           INFOY_PTR='0'B;

   8202  2 000017   200004 450100                    STZ     INFOY$,,AUTO

      300     8203    1           INFOY_PTR.S_D_FIELD=%ALS_MONIS; /* Frame WSPTD                        */

   8203  2 000020   006050 236007                    LDQ     3112,DL
         2 000021   200004 752103                    STCQ    INFOY$,'03'O,AUTO

      301     8204    1           WSPTD(%USERWSQ)='0'B;

   8204  2 000022   200004 471500                    LDP1    INFOY$,,AUTO
         2 000023   100010 450100                    STZ     8,,PR1

      302     8205    1           WSPTD.P(%USERWSQ)='1'B;

   8205  2 000024   100000 236007                    LDQ     32768,DL
         2 000025   100010 256100                    ORSQ    8,,PR1

      303     8206    1           WSPTD.NBLKS(%USERWSQ)=16;

   8206  2 000026   000020 236007                    LDQ     16,DL
PL6.E3A0      #002=INIT1 File=ISI$MM.:E05TSI                                     TUE 07/29/97 22:55 Page:62
         2 000027   100010 752103                    STCQ    8,'03'O,PR1

      304     8207    1           IF RPM_FLG THEN WSPTD.BLKNO(%USERWSQ)=BASEGPT/1024;

   8207  2 000030   000000 234000 xsym               SZN     RPM_FLG
         2 000031   000037 605000 2                  TPL     s:8208

   8207  2 000032   000000 236000 xsym               LDQ     BASEGPT
         2 000033   000012 772000                    QRL     10
         2 000034   000000 620006                    EAX0    0,QL
         2 000035   100010 740100                    STX0    8,,PR1
         2 000036   000066 710000 2                  TRA     s:8214

      305     8208    2             ELSE IF S1000_FLG='1'B THEN DO;

   8208  2 000037   000000 234000 xsym               SZN     S1000_FLG
         2 000040   000062 605000 2                  TPL     s:8212

      306     8209    2                   IF XA_MODE THEN WSPTD.BLKNO(%USERWSQ)=WS0PT.RPN(BASEGPT/1024);

   8209  2 000041   000000 234000 xsym               SZN     XA_MODE
         2 000042   000051 605000 2                  TPL     s:8210

   8209  2 000043   000000 236000 xsym               LDQ     BASEGPT
         2 000044   000012 772000                    QRL     10
         2 000045   000000 473400 xsym               LDP3    WS0PT$
         2 000046   300000 220106                    LDX0    0,QL,PR3
         2 000047   100010 740100                    STX0    8,,PR1
         2 000050   000066 710000 2                  TRA     s:8214

      307     8210    2                     ELSE WSPTD.BLKNO(%USERWSQ)=WS0PT.RPN(BASEGPT/1024)*16;
              8210                              /* Make it a MOD 64 address */

   8210  2 000051   000000 236000 xsym               LDQ     BASEGPT
         2 000052   000012 772000                    QRL     10
         2 000053   000000 473400 xsym               LDP3    WS0PT$
         2 000054   300000 236106                    LDQ     0,QL,PR3
PL6.E3A0      #002=INIT1 File=ISI$MM.:E05TSI                                     TUE 07/29/97 22:55 Page:63
         2 000055   000016 772000                    QRL     14
         2 000056   000000 376000 3                  ANQ     0
         2 000057   000000 620006                    EAX0    0,QL
         2 000060   100010 740100                    STX0    8,,PR1

      308     8211    2                 END;                      /*THEN                                */

   8211  2 000061   000066 710000 2                  TRA     s:8214

      309     8212    1               ELSE WSPTD.BLKNO(%USERWSQ)=BASEGPT/64; /* Make it a MOD 64 address */

   8212  2 000062   000000 236000 xsym               LDQ     BASEGPT
         2 000063   000006 772000                    QRL     6
         2 000064   000000 620006                    EAX0    0,QL
         2 000065   100010 740100                    STX0    8,,PR1

      310     8213        /* Fill 1'st page */
      311     8214    1           G1PT.SCTRL(%PGTBLLO)=%SCUSER;

   8214  2 000066   000000 236100                    LDQ     0,,PR0
         2 000067   000001 376000 3                  ANQ     1
         2 000070   000400 276007                    ORQ     256,DL
         2 000071   000000 756100                    STQ     0,,PR0

      312     8215    1           G1PT.CTRL(%PGTBLLO)=%PGINMEM|%PGWRITE|%PGIOM;

   8215  2 000072   000064 236007                    LDQ     52,DL
         2 000073   000000 752101                    STCQ    0,'01'O,PR0

      313     8216    1           IF S1000_FLG='1'B THEN G1PT.RPN(%PGTBLLO)=WS0PT.RPN(BASEGPT/1024);

   8216  2 000074   000000 234000 xsym               SZN     S1000_FLG
         2 000075   000104 605000 2                  TPL     s:8217

   8216  2 000076   000000 236000 xsym               LDQ     BASEGPT
         2 000077   000012 772000                    QRL     10
         2 000100   000000 473400 xsym               LDP3    WS0PT$
PL6.E3A0      #002=INIT1 File=ISI$MM.:E05TSI                                     TUE 07/29/97 22:55 Page:64
         2 000101   300000 220106                    LDX0    0,QL,PR3
         2 000102   000000 740100                    STX0    0,,PR0
         2 000103   000110 710000 2                  TRA     s:8218

      314     8217    1             ELSE G1PT.RPN(%PGTBLLO)=BASEGPT/1024;

   8217  2 000104   000000 236000 xsym               LDQ     BASEGPT
         2 000105   000012 772000                    QRL     10
         2 000106   000000 620006                    EAX0    0,QL
         2 000107   000000 740100                    STX0    0,,PR0

      315     8218    2           DO I=%JITPG TO %JITEND;         /* JIT pages                          */

   8218  2 000110   000013 236007                    LDQ     11,DL
         2 000111   200005 756100                    STQ     I,,AUTO

      316     8219    2             J=I-%JITPG;

   8219  2 000112   200005 235100                    LDA     I,,AUTO
         2 000113   000013 135007                    SBLA    11,DL
         2 000114   200006 755100                    STA     J,,AUTO

      317     8220    2             G1PT.SCTRL(I)=%SCUSER;

   8220  2 000115   200003 470500                    LDP0    INFOX$,,AUTO
         2 000116   200005 720100                    LXL0    I,,AUTO
         2 000117   000000 236110                    LDQ     0,X0,PR0
         2 000120   000001 376000 3                  ANQ     1
         2 000121   000400 276007                    ORQ     256,DL
         2 000122   000000 756110                    STQ     0,X0,PR0

      318     8221    2             G1PT.CTRL(I)=%PGINMEM|%PGWRITE|%PGIOM;

   8221  2 000123   000000 236110                    LDQ     0,X0,PR0
         2 000124   000002 376000 3                  ANQ     2
         2 000125   000064 276007                    ORQ     52,DL
         2 000126   000000 756110                    STQ     0,X0,PR0
PL6.E3A0      #002=INIT1 File=ISI$MM.:E05TSI                                     TUE 07/29/97 22:55 Page:65

      319     8222    2             IF S1000_FLG='1'B THEN G1PT.RPN(I)=WS0PT.RPN(BASEJ1/1024+J);

   8222  2 000127   000000 234000 xsym               SZN     S1000_FLG
         2 000130   000140 605000 2                  TPL     s:8223

   8222  2 000131   000000 236000 xsym               LDQ     BASEJ1
         2 000132   000012 772000                    QRL     10
         2 000133   200006 036100                    ADLQ    J,,AUTO
         2 000134   000000 471400 xsym               LDP1    WS0PT$
         2 000135   100000 221106                    LDX1    0,QL,PR1
         2 000136   000000 741110                    STX1    0,X0,PR0
         2 000137   000145 710000 2                  TRA     s:8224

      320     8223    2               ELSE G1PT.RPN(I)=BASEJ1/1024+J;

   8223  2 000140   000000 236000 xsym               LDQ     BASEJ1
         2 000141   000012 772000                    QRL     10
         2 000142   200006 036100                    ADLQ    J,,AUTO
         2 000143   000000 621006                    EAX1    0,QL
         2 000144   000000 741110                    STX1    0,X0,PR0

      321     8224    2           END;                            /* DO I=                              */

   8224  2 000145   200005 236100                    LDQ     I,,AUTO
         2 000146   000001 036007                    ADLQ    1,DL
         2 000147   200005 756100                    STQ     I,,AUTO
         2 000150   000015 116007                    CMPQ    13,DL
         2 000151   000112 602000 2                  TNC     s:8219

      322     8225    1           INFOY_PTR='0'B;

   8225  2 000152   200004 450100                    STZ     INFOY$,,AUTO

      323     8226    1           INFOY_PTR.S_D_FIELD=%ALS_JIT1;  /* Frame GHOST1 JIT                   */

   8226  2 000153   006053 236007                    LDQ     3115,DL
PL6.E3A0      #002=INIT1 File=ISI$MM.:E05TSI                                     TUE 07/29/97 22:55 Page:66
         2 000154   200004 752103                    STCQ    INFOY$,'03'O,AUTO

      324     8227    1           B$JIT='0'B;

   8227  2 000155   200004 471500                    LDP1    INFOY$,,AUTO
         2 000156   000100 100400                    MLR     fill='000'O
         2 000157   000002 000001 xsym               ADSC9   B_VECTNIL+2              cn=0,n=1
         2 000160   100000 001730                    ADSC9   0,,PR1                   cn=0,n=984

      325     8228    1           B$JIT.PRIOCORE=BASEJ1/1024+J;

   8228  2 000161   000000 236000 xsym               LDQ     BASEJ1
         2 000162   000012 772000                    QRL     10
         2 000163   200006 036100                    ADLQ    J,,AUTO
         2 000164   000000 620006                    EAX0    0,QL
         2 000165   100207 740100                    STX0    135,,PR1

      326     8229    1           B$JIT.USERWORD(0)=HDRGP.START;  /* GHOST1 start address               */

   8229  2 000166   000003 721000 xsym               LXL1    HDRGP+3
         2 000167   100133 741100                    STX1    91,,PR1

      327     8230    1           PAG_PPT=BASEJ1/1024+J;

   8230  2 000170   000000 236000 xsym               LDQ     BASEJ1
         2 000171   000012 772000                    QRL     10
         2 000172   200006 036100                    ADLQ    J,,AUTO
         2 000173   000000 622006                    EAX2    0,QL
         2 000174   000002 742000 0                  STX2    PAG_PPT

      328     8231        /* Fix GHOST1 Roseg PT words */
      329     8232    1           J=AALS.DESCGR.BOUND/4;          /* Size in words                      */

   8232  2 000175   000000 473400 0                  LDP3    AALS$
         2 000176   300042 236100                    LDQ     34,,PR3
         2 000177   000020 772000                    QRL     16
         2 000200   000002 772000                    QRL     2
PL6.E3A0      #002=INIT1 File=ISI$MM.:E05TSI                                     TUE 07/29/97 22:55 Page:67
         2 000201   200006 756100                    STQ     J,,AUTO

      330     8233    1           I=0;

   8233  2 000202   200005 450100                    STZ     I,,AUTO

      331     8234    1   INITGR1:
      332     8235    2           IF J>0 THEN DO;

   8235  2 000203   200006 235100       INITGR1      LDA     J,,AUTO
         2 000204   000247 604400 2                  TMOZ    s:8245

      333     8236    2                 G1PT.SCTRL(%ROSEGLO+I)=%SCUSER;

   8236  2 000205   200003 470500                    LDP0    INFOX$,,AUTO
         2 000206   200005 720100                    LXL0    I,,AUTO
         2 000207   000057 236110                    LDQ     47,X0,PR0
         2 000210   000001 376000 3                  ANQ     1
         2 000211   000400 276007                    ORQ     256,DL
         2 000212   000057 756110                    STQ     47,X0,PR0

      334     8237    2                 G1PT.CTRL(%ROSEGLO+I)=%PGINMEM|%PGWRITE|%PGIOM;

   8237  2 000213   000057 236110                    LDQ     47,X0,PR0
         2 000214   000002 376000 3                  ANQ     2
         2 000215   000064 276007                    ORQ     52,DL
         2 000216   000057 756110                    STQ     47,X0,PR0

      335     8238    2                IF S1000_FLG='1'B THEN G1PT.RPN(%ROSEGLO+I)=WS0PT.RPN(AALS.DESCGR.BASE
              8238                          /4/1024+I);

   8238  2 000217   000000 234000 xsym               SZN     S1000_FLG
         2 000220   000232 605000 2                  TPL     s:8239

   8238  2 000221   000000 471400 0                  LDP1    AALS$
         2 000222   100043 236100                    LDQ     35,,PR1
         2 000223   000004 506007                    DIV     4,DL
PL6.E3A0      #002=INIT1 File=ISI$MM.:E05TSI                                     TUE 07/29/97 22:55 Page:68
         2 000224   002000 506007                    DIV     1024,DL
         2 000225   200005 036100                    ADLQ    I,,AUTO
         2 000226   000000 473400 xsym               LDP3    WS0PT$
         2 000227   300000 221106                    LDX1    0,QL,PR3
         2 000230   000057 741110                    STX1    47,X0,PR0
         2 000231   000241 710000 2                  TRA     s:8240

      336     8239    2                   ELSE G1PT.RPN(%ROSEGLO+I)=AALS.DESCGR.BASE/4/1024+I;

   8239  2 000232   000000 471400 0                  LDP1    AALS$
         2 000233   100043 236100                    LDQ     35,,PR1
         2 000234   000004 506007                    DIV     4,DL
         2 000235   002000 506007                    DIV     1024,DL
         2 000236   200005 036100                    ADLQ    I,,AUTO
         2 000237   000000 621006                    EAX1    0,QL
         2 000240   000057 741110                    STX1    47,X0,PR0

      337     8240    2                 J=J-1024;

   8240  2 000241   002000 336007                    LCQ     1024,DL
         2 000242   200006 056100                    ASQ     J,,AUTO

      338     8241    2                 I=I+1;

   8241  2 000243   200005 235100                    LDA     I,,AUTO
         2 000244   000001 035007                    ADLA    1,DL
         2 000245   200005 755100                    STA     I,,AUTO

      339     8242    2                 GOTO INITGR1;

   8242  2 000246   000203 710000 2                  TRA     INITGR1

      340     8243    2               END;                        /* THEN                               */
      341     8244    1             ELSE;
      342     8245    1           B$JIT.PCROS=I;                  /* Page count Roseg                   */

   8245  2 000247   200005 720100                    LXL0    I,,AUTO
PL6.E3A0      #002=INIT1 File=ISI$MM.:E05TSI                                     TUE 07/29/97 22:55 Page:69
         2 000250   200004 470500                    LDP0    INFOY$,,AUTO
         2 000251   000203 740100                    STX0    131,,PR0

      343     8246    1           IF BASEH1=0 THEN RETURN;

   8246  2 000252   000000 236000 xsym               LDQ     BASEH1
         2 000253   000255 601000 2                  TNZ     s:8248

   8246  2 000254   000000 702200 xent               TSX2  ! X66_ARET

      344     8247    1             ELSE;
      345     8248    1           G1PT.SCTRL(%HJITPG)=%SCUSER;

   8248  2 000255   200003 471500                    LDP1    INFOX$,,AUTO
         2 000256   100015 236100                    LDQ     13,,PR1
         2 000257   000001 376000 3                  ANQ     1
         2 000260   000400 276007                    ORQ     256,DL
         2 000261   100015 756100                    STQ     13,,PR1

      346     8249    1           G1PT.CTRL(%HJITPG)=%PGINMEM|%PGWRITE|%PGIOM|%PGHKEEP;

   8249  2 000262   000074 236007                    LDQ     60,DL
         2 000263   100015 752101                    STCQ    13,'01'O,PR1

      347     8250    1           IF S1000_FLG='1'B THEN G1PT.RPN(%HJITPG)=WS0PT.RPN(BASEH1/1024);

   8250  2 000264   000000 234000 xsym               SZN     S1000_FLG
         2 000265   000274 605000 2                  TPL     s:8251

   8250  2 000266   000000 236000 xsym               LDQ     BASEH1
         2 000267   000012 772000                    QRL     10
         2 000270   000000 473400 xsym               LDP3    WS0PT$
         2 000271   300000 221106                    LDX1    0,QL,PR3
         2 000272   100015 741100                    STX1    13,,PR1
         2 000273   000300 710000 2                  TRA     s:8252

      348     8251    1             ELSE G1PT.RPN(%HJITPG)=BASEH1/1024;
PL6.E3A0      #002=INIT1 File=ISI$MM.:E05TSI                                     TUE 07/29/97 22:55 Page:70

   8251  2 000274   000000 236000 xsym               LDQ     BASEH1
         2 000275   000012 772000                    QRL     10
         2 000276   000000 621006                    EAX1    0,QL
         2 000277   100015 741100                    STX1    13,,PR1

      349     8252    1           PAG_PPH=BASEH1/1024;            /* Physical page head                 */

   8252  2 000300   000000 236000 xsym               LDQ     BASEH1
         2 000301   000012 772000                    QRL     10
         2 000302   000000 622006                    EAX2    0,QL
         2 000303   000001 742000 0                  STX2    PAG_PPH

      350     8253    1           J=HDRGD.SIZE;                   /*GHOST1 data, size in words          */

   8253  2 000304   000002 236000 xsym               LDQ     HDRGD+2
         2 000305   200006 756100                    STQ     J,,AUTO

      351     8254    1           I=0;

   8254  2 000306   200005 450100                    STZ     I,,AUTO

      352     8255    1   INITGD1:
      353     8256    2           IF J>0 THEN DO;

   8256  2 000307   200006 235100       INITGD1      LDA     J,,AUTO
         2 000310   000347 604400 2                  TMOZ    s:8266

      354     8257    2                 G1PT.SCTRL(%ISEGLO+I)=%SCUSER;

   8257  2 000311   200003 470500                    LDP0    INFOX$,,AUTO
         2 000312   200005 720100                    LXL0    I,,AUTO
         2 000313   000100 236110                    LDQ     64,X0,PR0
         2 000314   000001 376000 3                  ANQ     1
         2 000315   000400 276007                    ORQ     256,DL
         2 000316   000100 756110                    STQ     64,X0,PR0

PL6.E3A0      #002=INIT1 File=ISI$MM.:E05TSI                                     TUE 07/29/97 22:55 Page:71
      355     8258    2                 G1PT.CTRL(%ISEGLO+I)=%PGINMEM|%PGWRITE|%PGIOM;

   8258  2 000317   000100 236110                    LDQ     64,X0,PR0
         2 000320   000002 376000 3                  ANQ     2
         2 000321   000064 276007                    ORQ     52,DL
         2 000322   000100 756110                    STQ     64,X0,PR0

      356     8259    2                IF S1000_FLG='1'B THEN G1PT.RPN(%ISEGLO+I)=WS0PT.RPN(HDRGD.BASE/1024+I
              8259                          );

   8259  2 000323   000000 234000 xsym               SZN     S1000_FLG
         2 000324   000334 605000 2                  TPL     s:8260

   8259  2 000325   000000 236000 xsym               LDQ     HDRGD
         2 000326   002000 506007                    DIV     1024,DL
         2 000327   200005 036100                    ADLQ    I,,AUTO
         2 000330   000000 471400 xsym               LDP1    WS0PT$
         2 000331   100000 221106                    LDX1    0,QL,PR1
         2 000332   000100 741110                    STX1    64,X0,PR0
         2 000333   000341 710000 2                  TRA     s:8261

      357     8260    2                   ELSE G1PT.RPN(%ISEGLO+I)=HDRGD.BASE/1024+I;

   8260  2 000334   000000 236000 xsym               LDQ     HDRGD
         2 000335   002000 506007                    DIV     1024,DL
         2 000336   200005 036100                    ADLQ    I,,AUTO
         2 000337   000000 621006                    EAX1    0,QL
         2 000340   000100 741110                    STX1    64,X0,PR0

      358     8261    2                 J=J-1024;

   8261  2 000341   002000 336007                    LCQ     1024,DL
         2 000342   200006 056100                    ASQ     J,,AUTO

      359     8262    2                 I=I+1;

   8262  2 000343   200005 235100                    LDA     I,,AUTO
PL6.E3A0      #002=INIT1 File=ISI$MM.:E05TSI                                     TUE 07/29/97 22:55 Page:72
         2 000344   000001 035007                    ADLA    1,DL
         2 000345   200005 755100                    STA     I,,AUTO

      360     8263    2                 GOTO INITGD1;

   8263  2 000346   000307 710000 2                  TRA     INITGD1

      361     8264    2               END;                        /* THEN                               */
      362     8265    1             ELSE;
      363     8266    1           B$JIT.PCD=I;                    /* Page count for data                */

   8266  2 000347   200005 720100                    LXL0    I,,AUTO
         2 000350   200004 470500                    LDP0    INFOY$,,AUTO
         2 000351   000201 440100                    SXL0    129,,PR0

      364     8267    1           J=HDRGP.SIZE;                   /*GHOST1 proc, size in words          */

   8267  2 000352   000002 236000 xsym               LDQ     HDRGP+2
         2 000353   200006 756100                    STQ     J,,AUTO

      365     8268    1           K=0;

   8268  2 000354   200007 450100                    STZ     K,,AUTO

      366     8269    1   INITGP1:
      367     8270    2           IF J>0 THEN DO;

   8270  2 000355   200006 235100       INITGP1      LDA     J,,AUTO
         2 000356   000420 604400 2                  TMOZ    s:8281

      368     8271    2                 G1PT.SCTRL(%ISEGLO+I)=%SCUSER;

   8271  2 000357   200003 470500                    LDP0    INFOX$,,AUTO
         2 000360   200005 720100                    LXL0    I,,AUTO
         2 000361   000100 236110                    LDQ     64,X0,PR0
         2 000362   000001 376000 3                  ANQ     1
         2 000363   000400 276007                    ORQ     256,DL
PL6.E3A0      #002=INIT1 File=ISI$MM.:E05TSI                                     TUE 07/29/97 22:55 Page:73
         2 000364   000100 756110                    STQ     64,X0,PR0

      369     8272    2                 G1PT.CTRL(%ISEGLO+I)=%PGINMEM|%PGIOM;

   8272  2 000365   000100 236110                    LDQ     64,X0,PR0
         2 000366   000002 376000 3                  ANQ     2
         2 000367   000044 276007                    ORQ     36,DL
         2 000370   000100 756110                    STQ     64,X0,PR0

      370     8273    2                IF S1000_FLG='1'B THEN G1PT.RPN(%ISEGLO+I)=WS0PT.RPN(HDRGP.BASE/1024+K
              8273                          );

   8273  2 000371   000000 234000 xsym               SZN     S1000_FLG
         2 000372   000402 605000 2                  TPL     s:8274

   8273  2 000373   000000 236000 xsym               LDQ     HDRGP
         2 000374   002000 506007                    DIV     1024,DL
         2 000375   200007 036100                    ADLQ    K,,AUTO
         2 000376   000000 471400 xsym               LDP1    WS0PT$
         2 000377   100000 221106                    LDX1    0,QL,PR1
         2 000400   000100 741110                    STX1    64,X0,PR0
         2 000401   000407 710000 2                  TRA     s:8275

      371     8274    2                   ELSE G1PT.RPN(%ISEGLO+I)=HDRGP.BASE/1024+K;

   8274  2 000402   000000 236000 xsym               LDQ     HDRGP
         2 000403   002000 506007                    DIV     1024,DL
         2 000404   200007 036100                    ADLQ    K,,AUTO
         2 000405   000000 621006                    EAX1    0,QL
         2 000406   000100 741110                    STX1    64,X0,PR0

      372     8275    2                 J=J-1024;

   8275  2 000407   002000 336007                    LCQ     1024,DL
         2 000410   200006 056100                    ASQ     J,,AUTO

      373     8276    2                 I=I+1;
PL6.E3A0      #002=INIT1 File=ISI$MM.:E05TSI                                     TUE 07/29/97 22:55 Page:74

   8276  2 000411   200005 235100                    LDA     I,,AUTO
         2 000412   000001 035007                    ADLA    1,DL
         2 000413   200005 755100                    STA     I,,AUTO

      374     8277    2                 K=K+1;

   8277  2 000414   200007 235100                    LDA     K,,AUTO
         2 000415   000001 035007                    ADLA    1,DL
         2 000416   200007 755100                    STA     K,,AUTO

      375     8278    2                 GOTO INITGP1;

   8278  2 000417   000355 710000 2                  TRA     INITGP1

      376     8279    2               END;                        /* THEN                               */
      377     8280    1             ELSE;
      378     8281    1           B$JIT.PCP=K;                    /* Page count for proc                */

   8281  2 000420   200007 720100                    LXL0    K,,AUTO
         2 000421   200004 470500                    LDP0    INFOY$,,AUTO
         2 000422   000201 740100                    STX0    129,,PR0

      379     8282        /* Compute Physical page count */
      380     8283    1           B$JIT.PPC=PAG_PPT-PAG_PPH+1;

   8283  2 000423   000001 236000 0                  LDQ     PAG_PPH
         2 000424   000022 772000                    QRL     18
         2 000425   200010 756100                    STQ     K+1,,AUTO
         2 000426   000002 236000 0                  LDQ     PAG_PPT
         2 000427   000022 772000                    QRL     18
         2 000430   200010 136100                    SBLQ    K+1,,AUTO
         2 000431   000001 621006                    EAX1    1,QL
         2 000432   000207 441100                    SXL1    135,,PR0

      381     8284    1           PAG_PPC=PAG_PPT-PAG_PPH+1;

PL6.E3A0      #002=INIT1 File=ISI$MM.:E05TSI                                     TUE 07/29/97 22:55 Page:75
   8284  2 000433   000001 236000 0                  LDQ     PAG_PPH
         2 000434   000022 772000                    QRL     18
         2 000435   200010 756100                    STQ     K+1,,AUTO
         2 000436   000002 236000 0                  LDQ     PAG_PPT
         2 000437   000022 772000                    QRL     18
         2 000440   200010 136100                    SBLQ    K+1,,AUTO
         2 000441   000001 622006                    EAX2    1,QL
         2 000442   000003 742000 0                  STX2    PAG_PPC

      382     8285    1           B$JIT.PCC=5;               /* 1 page HJIT, 2 pages JIT, 1 page PT     */

   8285  2 000443   000005 223003                    LDX3    5,DU
         2 000444   000202 443100                    SXL3    130,,PR0

      383     8286        /* Compute virtual page limits */
      384     8287    1           B$JIT.DLL=%ISEGLO;         /* Virtual page# of ISR=data lower limit   */

   8287  2 000445   000100 224003                    LDX4    64,DU
         2 000446   000177 744100                    STX4    127,,PR0

      385     8288    1           B$JIT.PLL=B$JIT.PCD+B$JIT.DLL;
              8288                    /* Proc lower limit=data lower limit+data count */

   8288  2 000447   000177 236100                    LDQ     127,,PR0
         2 000450   000022 772000                    QRL     18
         2 000451   200010 756100                    STQ     K+1,,AUTO
         2 000452   000201 236100                    LDQ     129,,PR0
         2 000453   777777 376007                    ANQ     -1,DL
         2 000454   200010 036100                    ADLQ    K+1,,AUTO
         2 000455   000000 625006                    EAX5    0,QL
         2 000456   000176 745100                    STX5    126,,PR0

      386     8289    1           B$JIT.DUL=B$JIT.PLL-1;     /* Data upper limit= proc lower limit-1    */

   8289  2 000457   777777 626015                    EAX6    -1,X5
         2 000460   000177 446100                    SXL6    127,,PR0

PL6.E3A0      #002=INIT1 File=ISI$MM.:E05TSI                                     TUE 07/29/97 22:55 Page:76
      387     8290    1           B$JIT.PUL=B$JIT.DUL+B$JIT.PCP;  /* Proc upper limit                   */

   8290  2 000461   000201 236100                    LDQ     129,,PR0
         2 000462   000022 772000                    QRL     18
         2 000463   200010 756100                    STQ     K+1,,AUTO
         2 000464   000177 236100                    LDQ     127,,PR0
         2 000465   777777 376007                    ANQ     -1,DL
         2 000466   200010 036100                    ADLQ    K+1,,AUTO
         2 000467   000000 627006                    EAX7    0,QL
         2 000470   000176 447100                    SXL7    126,,PR0

      388     8291    1           B$JIT.TDP=B$JIT.PUL+1;          /* Top dynamic page                   */

   8291  2 000471   000001 620017                    EAX0    1,X7
         2 000472   000204 740100                    STX0    132,,PR0

      389     8292    1           B$JIT.DDLL=B$JIT.TDP;           /* Dynamic data lower limit           */

   8292  2 000473   000200 740100                    STX0    128,,PR0

      390     8293    1           B$JIT.DDUL=%ISEGLO+255;         /* Dynamic data upper limit           */

   8293  2 000474   000477 220003                    LDX0    319,DU
         2 000475   000200 440100                    SXL0    128,,PR0

      391     8294    1           B$JIT.EUP=B$JIT.DDUL;           /* End user page in ISR               */

   8294  2 000476   000204 440100                    SXL0    132,,PR0

      392     8295    1           B$JIT.PTSIZ=1023;               /* Size of users page table           */

   8295  2 000477   001777 220003                    LDX0    1023,DU
         2 000500   000216 440100                    SXL0    142,,PR0

      393     8296        /* Turn on all privilege bits */
      394     8297    1           B$JIT.PRIV.ACTIVE='777777777777'O;

PL6.E3A0      #002=INIT1 File=ISI$MM.:E05TSI                                     TUE 07/29/97 22:55 Page:77
   8297  2 000501   000027 236000 xsym               LDQ     B_VECTNIL+23
         2 000502   000013 756100                    STQ     11,,PR0

      395     8298    1           B$JIT.PRIV.AUTH='777777777777'O;

   8298  2 000503   000014 756100                    STQ     12,,PR0

      396     8299    1           B$JIT.PRIV.JOB='777777777777'O;

   8299  2 000504   000015 756100                    STQ     13,,PR0

      397     8300        /* Set mode to GHOST1 */
      398     8301    1           B$JIT.FBUL=31;

   8301  2 000505   000037 220003                    LDX0    31,DU
         2 000506   000205 440100                    SXL0    133,,PR0

      399     8302    1           B$JIT.MAXCORE=512;              /* #FPOOLS                            */

   8302  2 000507   001000 220003                    LDX0    512,DU
         2 000510   000210 740100                    STX0    136,,PR0

      400     8303    1           B$JIT.UNAME='GHOST1';

   8303  2 000511   040100 100400                    MLR     fill='040'O
         2 000512   000000 000006 1                  ADSC9   0                        cn=0,n=6
         2 000513   000003 000014                    ADSC9   3,,PR0                   cn=0,n=12

      401     8304    1           B$JIT.FACCN=':SYS';

   8304  2 000514   000002 235000 1                  LDA     2
         2 000515   000035 236000 xsym               LDQ     B_VECTNIL+29
         2 000516   000006 757100                    STAQ    6,,PR0

      402     8305    1           B$JIT.ACCN=':SYS';

   8305  2 000517   040100 100400                    MLR     fill='040'O
PL6.E3A0      #002=INIT1 File=ISI$MM.:E05TSI                                     TUE 07/29/97 22:55 Page:78
         2 000520   000002 000004 1                  ADSC9   2                        cn=0,n=4
         2 000521   000001 000010                    ADSC9   1,,PR0                   cn=0,n=8

      403     8306    1           B$JIT.WOO='LOCAL';

   8306  2 000522   040100 100400                    MLR     fill='040'O
         2 000523   000003 000005 1                  ADSC9   3                        cn=0,n=5
         2 000524   000010 000010                    ADSC9   8,,PR0                   cn=0,n=8

      404     8307    1           B$JIT.REMLO=-1;

   8307  2 000525   000001 335007                    LCA     1,DL
         2 000526   000361 755100                    STA     241,,PR0

      405     8308    1           B$JIT.REMDO=-1;

   8308  2 000527   000362 755100                    STA     242,,PR0

      406     8309    1           B$JIT.MAXENQ = 255;

   8309  2 000530   000377 222003                    LDX2    255,DU
         2 000531   000363 742100                    STX2    243,,PR0

      407     8310    1           RETURN;

   8310  2 000532   000000 702200 xent               TSX2  ! X66_ARET
      408     8311    1   END INIT1;
      409     8312        %EOD;

PL6.E3A0      #002=INIT1 File=ISI$MM.:E05TSI                                     TUE 07/29/97 22:55 Page:79
--  Include file information  --

   B_UHJMAC_C.:E05TOU  is referenced.
   B_MLSMAC_C.:E05TOU  is referenced.
   B_ULSMAC_C.:E05TOU  is referenced.
   B_LSDATA_C.:E05TOU  cannot be made into a system file and is referenced.
   B$JIT_C.:E05TOU  is referenced.
   M_INFO_C.:E05TOU  is referenced.
   B_STRINGS_C.:E05TOU  is referenced.
   IS$MACROS.:E05TOU  is referenced.
      No diagnostics issued in procedure INIT1.
PL6.E3A0      #002=INIT1 File=ISI$MM.:E05TSI                                     TUE 07/29/97 22:55 Page:80

 **** Variables and constants ****

  ****  Section 000  Data  INIT1

  ****  Scalars and arrays  ****
OctLoc.c.b A Datatyp(siz) R M Lvl/name                 OctLoc.c.b A Datatyp(siz) R M Lvl/name

     0-0-0/w PTR         r     1 AALS$                      3-0-0/w UBIN(18)    r     1 PAG_PPC
     1-0-0/w UBIN(18)    r     1 PAG_PPH                    2-0-0/w UBIN(18)    r     1 PAG_PPT

  ****  Auto variables  ****

  ****  Scalars and arrays  ****
OctLoc.c.b A Datatyp(siz) R M Lvl/name                 OctLoc.c.b A Datatyp(siz) R M Lvl/name

     5-0-0/w UBIN        r     1 I                          3-0-0/w PTR         r     1 INFOX$
     3-0-0/w STRC        r     1 INFOX_PTR                  4-0-0/w PTR         r     1 INFOY$
     4-0-0/w STRC        r     1 INFOY_PTR                  6-0-0/w SBIN        r     1 J
     7-0-0/w UBIN        r     1 K

  ****  SYMREF variables  ****

  ****  Scalars and arrays  ****
OctLoc.c.b A Datatyp(siz) R M Lvl/name                 OctLoc.c.b A Datatyp(siz) R M Lvl/name

     0-0-0/w UBIN        r     1 BASEGPT                    0-0-0/w UBIN        r     1 BASEH1
     0-0-0/w UBIN        r     1 BASEJ1                     0-0-0/b BIT         r     1 BSNLS
     0-0-0/b BIT         r     1 FPMC                       0-0-0/w STRC(144)   r     1 HDRGD
     0-0-0/w STRC(144)   r     1 HDRGP                      0-0-0/b BIT         r     1 RPM_FLG
     0-0-0/b BIT         r     1 S1000_FLG                  0-0-0/w PTR         r     1 WS0PT$
     0-0-0/b BIT         r     1 XA_MODE

  ****  BASED and DCB variables  ****

  ****  Scalars and arrays  ****
OctLoc.c.b A Datatyp(siz) R M Lvl/name                 OctLoc.c.b A Datatyp(siz) R M Lvl/name

PL6.E3A0      #002=INIT1 File=ISI$MM.:E05TSI                                     TUE 07/29/97 22:55 Page:81
     0-0-0/d STRC(7560)  r     1 AALS                       0-0-0/d STRC(8856)  r     1 B$JIT
     0-0-0/w STRC        r     1 G1PT(0:0)                  0-0-0/w STRC        r     1 WS0PT(0:0)
     0-0-0/w STRC        r     1 WSPTD(0:28)


   Procedure INIT1 requires 347 words for executable code.
   Procedure INIT1 requires 10 words of local(AUTO) storage.
PL6.E3A0      #002=INIT1 File=ISI$MM.:E05TSI                                     TUE 07/29/97 22:55 Page:82
          *** CROSS REFERENCE LISTING ***
**     DENOTES     IDENTIFIER DEFINITION
<<                 IDENTIFIER'S VALUE SET
>>                 IDENTIFIER'S VALUE USED
<>                 IDENTIFIER SET AND/OR USED
--                 IDENTIFIER REFERENCED
PL6.E3A0      #002=INIT1 File=ISI$MM.:E05TSI                                     TUE 07/29/97 22:55 Page:83
          MINI XREF LISTING

AALS.DESCGR.BASE
      6227**DCL      8238>>ASSIGN   8239>>ASSIGN
AALS.DESCGR.BOUND
      6223**DCL      8232>>ASSIGN
AALS$
      8150**DCL      5833--IMP-PTR  8232>>ASSIGN   8238>>ASSIGN   8239>>ASSIGN
B$JIT
      5404**DCL      8227<<ASSIGN
B$JIT.ACCN
      5409**DCL      8305<<ASSIGN
B$JIT.CPFLAGS1.SLEAZE
      5503**DCL      5503--REDEF
B$JIT.DDLL
      5567**DCL      8292<<ASSIGN
B$JIT.DDUL
      5567**DCL      8293<<ASSIGN   8294>>ASSIGN
B$JIT.DLL
      5567**DCL      8287<<ASSIGN   8288>>ASSIGN
B$JIT.DUL
      5567**DCL      8289<<ASSIGN   8290>>ASSIGN
B$JIT.ERR.MID
      5410**DCL      5410--REDEF
B$JIT.EUP
      5569**DCL      8294<<ASSIGN
B$JIT.FACCN
      5409**DCL      8304<<ASSIGN
B$JIT.FBUL
      5569**DCL      8301<<ASSIGN
B$JIT.JRESPEAK
      5571**DCL      5572--REDEF
B$JIT.MAXCORE
      5570**DCL      8302<<ASSIGN
PL6.E3A0      #002=INIT1 File=ISI$MM.:E05TSI                                     TUE 07/29/97 22:55 Page:84
B$JIT.MAXENQ
      5682**DCL      8309<<ASSIGN
B$JIT.ORIGINATOR_PORT.FROM_CR
      5680**DCL      5680--REDEF    5681--REDEF
B$JIT.PCC
      5568**DCL      8285<<ASSIGN
B$JIT.PCD
      5568**DCL      8266<<ASSIGN   8288>>ASSIGN
B$JIT.PCP
      5568**DCL      8281<<ASSIGN   8290>>ASSIGN
B$JIT.PCROS
      5568**DCL      8245<<ASSIGN
B$JIT.PLL
      5567**DCL      8288<<ASSIGN   8289>>ASSIGN
B$JIT.PNR
      5584**DCL      5584--REDEF
B$JIT.PPC
      5570**DCL      8283<<ASSIGN
B$JIT.PRIOCORE
      5570**DCL      8228<<ASSIGN
B$JIT.PRIV.ACTIVE
      5410**DCL      8297<<ASSIGN
B$JIT.PRIV.AUTH
      5450**DCL      8298<<ASSIGN
B$JIT.PRIV.JOB
      5453**DCL      8299<<ASSIGN
B$JIT.PTSIZ
      5573**DCL      8295<<ASSIGN
B$JIT.PUL
      5567**DCL      8290<<ASSIGN   8291>>ASSIGN
B$JIT.REMDO
      5682**DCL      8308<<ASSIGN
B$JIT.REMLO
      5682**DCL      8307<<ASSIGN
B$JIT.TDP
      5569**DCL      8291<<ASSIGN   8292>>ASSIGN
PL6.E3A0      #002=INIT1 File=ISI$MM.:E05TSI                                     TUE 07/29/97 22:55 Page:85
B$JIT.TSLINE
      5678**DCL      5679--REDEF
B$JIT.UNAME
      5409**DCL      8303<<ASSIGN
B$JIT.USERWORD
      5497**DCL      8229<<ASSIGN
B$JIT.WOO
      5409**DCL      8306<<ASSIGN
BASEGPT
      8186**DCL      8207>>ASSIGN   8209>>ASSIGN   8210>>ASSIGN   8212>>ASSIGN   8216>>ASSIGN   8217>>ASSIGN
BASEH1
      8184**DCL      8246>>IF       8250>>ASSIGN   8251>>ASSIGN   8252>>ASSIGN
BASEJ1
      8185**DCL      8222>>ASSIGN   8223>>ASSIGN   8228>>ASSIGN   8230>>ASSIGN
BSNLS
      8149**DCL      8150--DCLINIT
FPMC
      8190**DCL      8199>>ASSIGN
G1PT
      8151**DCL      8199<<ASSIGN
G1PT.CTRL
      8176**DCL      8215<<ASSIGN   8221<<ASSIGN   8237<<ASSIGN   8249<<ASSIGN   8258<<ASSIGN   8272<<ASSIGN
G1PT.RPN
      8171**DCL      8172--REDEF    8216<<ASSIGN   8217<<ASSIGN   8222<<ASSIGN   8223<<ASSIGN   8238<<ASSIGN
      8239<<ASSIGN   8250<<ASSIGN   8251<<ASSIGN   8259<<ASSIGN   8260<<ASSIGN   8273<<ASSIGN   8274<<ASSIGN
G1PT.SCTRL
      8173**DCL      8174--REDEF    8214<<ASSIGN   8220<<ASSIGN   8236<<ASSIGN   8248<<ASSIGN   8257<<ASSIGN
      8271<<ASSIGN
HDRGD.BASE
      5687**DCL      8259>>ASSIGN   8260>>ASSIGN
HDRGD.DA
      5688**DCL      5689--REDEF
HDRGD.SIZE
      5692**DCL      8253>>ASSIGN
HDRGP.BASE
      5698**DCL      8273>>ASSIGN   8274>>ASSIGN
PL6.E3A0      #002=INIT1 File=ISI$MM.:E05TSI                                     TUE 07/29/97 22:55 Page:86
HDRGP.DA
      5699**DCL      5700--REDEF
HDRGP.SIZE
      5703**DCL      8267>>ASSIGN
HDRGP.START
      5705**DCL      8229>>ASSIGN
I
      8192**DCL      8198<<DOINDEX  8199>>ASSIGN   8218<<DOINDEX  8219>>ASSIGN   8220>>ASSIGN   8221>>ASSIGN
      8222>>ASSIGN   8223>>ASSIGN   8233<<ASSIGN   8236>>ASSIGN   8237>>ASSIGN   8238>>ASSIGN   8238>>ASSIGN
      8239>>ASSIGN   8239>>ASSIGN   8241<<ASSIGN   8241>>ASSIGN   8245>>ASSIGN   8254<<ASSIGN   8257>>ASSIGN
      8258>>ASSIGN   8259>>ASSIGN   8259>>ASSIGN   8260>>ASSIGN   8260>>ASSIGN   8262<<ASSIGN   8262>>ASSIGN
      8266>>ASSIGN   8271>>ASSIGN   8272>>ASSIGN   8273>>ASSIGN   8274>>ASSIGN   8276<<ASSIGN   8276>>ASSIGN
INFOX$
      5707**DCL      5719--REDEF    8151--IMP-PTR  8199>>ASSIGN   8214>>ASSIGN   8215>>ASSIGN   8216>>ASSIGN
      8217>>ASSIGN   8220>>ASSIGN   8221>>ASSIGN   8222>>ASSIGN   8223>>ASSIGN   8236>>ASSIGN   8237>>ASSIGN
      8238>>ASSIGN   8239>>ASSIGN   8248>>ASSIGN   8249>>ASSIGN   8250>>ASSIGN   8251>>ASSIGN   8257>>ASSIGN
      8258>>ASSIGN   8259>>ASSIGN   8260>>ASSIGN   8271>>ASSIGN   8272>>ASSIGN   8273>>ASSIGN   8274>>ASSIGN
INFOX_PTR
      5719**DCL      8196<<ASSIGN
INFOX_PTR.S_D_FIELD
      5723**DCL      8197<<ASSIGN
INFOY$
      5726**DCL      5404--IMP-PTR  5738--REDEF    5764--IMP-PTR  8204>>ASSIGN   8205>>ASSIGN   8206>>ASSIGN
      8207>>ASSIGN   8209>>ASSIGN   8210>>ASSIGN   8212>>ASSIGN   8227>>ASSIGN   8228>>ASSIGN   8229>>ASSIGN
      8245>>ASSIGN   8266>>ASSIGN   8281>>ASSIGN   8283>>ASSIGN   8285>>ASSIGN   8287>>ASSIGN   8288>>ASSIGN
      8288>>ASSIGN   8288>>ASSIGN   8289>>ASSIGN   8289>>ASSIGN   8290>>ASSIGN   8290>>ASSIGN   8290>>ASSIGN
      8291>>ASSIGN   8291>>ASSIGN   8292>>ASSIGN   8292>>ASSIGN   8293>>ASSIGN   8294>>ASSIGN   8294>>ASSIGN
      8295>>ASSIGN   8297>>ASSIGN   8298>>ASSIGN   8299>>ASSIGN   8301>>ASSIGN   8302>>ASSIGN   8303>>ASSIGN
      8304>>ASSIGN   8305>>ASSIGN   8306>>ASSIGN   8307>>ASSIGN   8308>>ASSIGN   8309>>ASSIGN
INFOY_PTR
      5738**DCL      8202<<ASSIGN   8225<<ASSIGN
INFOY_PTR.S_D_FIELD
      5742**DCL      8203<<ASSIGN   8226<<ASSIGN
INITGD1
      8256**LABEL    8263--GOTO
INITGP1
PL6.E3A0      #002=INIT1 File=ISI$MM.:E05TSI                                     TUE 07/29/97 22:55 Page:87
      8270**LABEL    8278--GOTO
INITGR1
      8235**LABEL    8242--GOTO
J
      8193**DCL      8219<<ASSIGN   8222>>ASSIGN   8223>>ASSIGN   8228>>ASSIGN   8230>>ASSIGN   8232<<ASSIGN
      8235>>IF       8240<<ASSIGN   8240>>ASSIGN   8253<<ASSIGN   8256>>IF       8261<<ASSIGN   8261>>ASSIGN
      8267<<ASSIGN   8270>>IF       8275<<ASSIGN   8275>>ASSIGN
K
      8194**DCL      8268<<ASSIGN   8273>>ASSIGN   8274>>ASSIGN   8277<<ASSIGN   8277>>ASSIGN   8281>>ASSIGN
PAG_PPC
      8183**DCL      8284<<ASSIGN
PAG_PPH
      8181**DCL      8252<<ASSIGN   8283>>ASSIGN   8284>>ASSIGN
PAG_PPT
      8182**DCL      8230<<ASSIGN   8283>>ASSIGN   8284>>ASSIGN
RPM_FLG
      8189**DCL      8207>>IF
S1000_FLG
      8187**DCL      8208>>IF       8216>>IF       8222>>IF       8238>>IF       8250>>IF       8259>>IF
      8273>>IF
WS0PT.RPN
      5813**DCL      5814--REDEF    8209>>ASSIGN   8210>>ASSIGN   8216>>ASSIGN   8222>>ASSIGN   8238>>ASSIGN
      8250>>ASSIGN   8259>>ASSIGN   8273>>ASSIGN
WS0PT.SCTRL
      5815**DCL      5816--REDEF
WS0PT$
      5745**DCL      5757--REDEF    5793--IMP-PTR  8209>>ASSIGN   8210>>ASSIGN   8216>>ASSIGN   8222>>ASSIGN
      8238>>ASSIGN   8250>>ASSIGN   8259>>ASSIGN   8273>>ASSIGN
WSPTD
      5764**DCL      8204<<ASSIGN
WSPTD.BLKNO
      5784**DCL      8207<<ASSIGN   8209<<ASSIGN   8210<<ASSIGN   8212<<ASSIGN
WSPTD.NBLKS
      5789**DCL      8206<<ASSIGN
WSPTD.P
      5786**DCL      8205<<ASSIGN
PL6.E3A0      #002=INIT1 File=ISI$MM.:E05TSI                                     TUE 07/29/97 22:55 Page:88
XA_MODE
      8188**DCL      8209>>IF

PL6.E3A0      #003=INITP File=ISI$MM.:E05TSI                                     TUE 07/29/97 22:55 Page:89
      410        1        /*T***********************************************************/
      411        2        /*T*                                                         */
      412        3        /*T* Copyright (c) Bull HN Information Systems Inc., 1997    */
      413        4        /*T*                                                         */
      414        5        /*T***********************************************************/
      415        6        INITP:  PROC;
      416        7        /*F*   NAME:   INITP
      417        8               PURPOSE:  Build MM_PPUT and for and DPS90 the Physical->Real map
      418        9        */
      419       10        /*D*   NAME:     INITP
      420       11               CALL:     CALL INITP;
      421       12               ENVIRONMENT: AARDVARK Linkage Segment
      422       13               INPUT:    None
      423       14               OUTPUT:   None
      424       15               DESCRIPTION:
      425       16                  This routine is called to build PPUT and the DPS90
      426       17                  Physical to real map.  It uses IS_PPUT_SIZE to determine how
      427       18                  big PPUT should be.  PPUT is initially
      428       19                  all zeroes.  The GHOST1 pages are marked as user pages and
      429       20                  user number is set to 1.  On all hardware except the DPS800,
      430       21                  all pages in the range NAVPG/1024 to IS_PPUT_SIZE are marked free
      431       22                  and linked together.  On the DPS8000 if there is no gap in
      432       23                  Physical memory (GAP_SZ = 0), then PPUT is build in the same
      433       24                  manner as other hardware.  If there is a gap, the pages in
      434       25                  the range, NAVPG/1024 to the upper bound of low memory are
      435       26                  set to free and linked together along with the pages in the
      436       27                  range high memory lower bound to HIAVPG.  The pages in the
      437       28                  gap, low memory upper bound to high memory lower bound are
      438       29                  marked as STOLEN with a user number of 511. On DPS90 hardware
      439       30                  the Physical to Real map is also build.  On DPS8000,
      440       31                  IS_PPUT_SIZE includes memory that has been released.
      441       32        */
      442       33        /**/
      443       34
      444       35        %INCLUDE IS$MACROS;
      445     1310        %INCLUDE MM_DATA_R;
      446     1830        /**/
PL6.E3A0      #003=INITP File=ISI$MM.:E05TSI                                     TUE 07/29/97 22:55 Page:90
      447     1831    1   DCL INFOX$ PTR;
      448     1832        %PTR_STRUCT(NAME=INFOX_PTR,STCLASS="REDEF INFOX$");
      449     1850    1   DCL 1 WS0PT(0:0) ALIGNED BASED(WS0PT$), /* WS0 PT                             */
      450     1851        %PTW(LVL=2);
      451     1879    1   DCL WS0PT$ PTR SYMREF;
      452     1880    1   DCL IPHY_MAP(0:0) BASED(INFOX$) SBIN HALF HALIGNED;
      453     1881    1   DCL HIPAGE UBIN WORD SYMREF;
      454     1882    1   DCL HIAVPG UBIN WORD SYMREF;            /* Highest avail page on S1000        */
      455     1883    1   DCL IS_PPUT_SIZE UBIN WORD SYMREF;      /* size of pput usually HIPAGE        */
      456     1884    1   DCL PHYMEM_SZ UBIN WORD SYMREF;         /* Size of Physical mem for S1000     */
      457     1885    1   DCL IPHYPG UBIN WORD SYMREF;            /* Address of Physical->Real map      */
      458     1886    1   DCL B$IPHYMAP$ PTR STATIC SYMDEF;
      459     1887    1   DCL NAVPG UBIN WORD SYMREF;
      460     1888    1   DCL PAG_PPH UBIN HALF SYMREF;           /* Physical page head of GHOST1       */
      461     1889    1   DCL PAG_PPT UBIN HALF SYMREF;           /* Physical page tail of GHOST1       */
      462     1890    1   DCL S1000_FLG BIT(1) SYMREF;
      463     1891    1   DCL GAP_SZ UBIN WORD SYMREF;            /*Size of the eventual gap on RPM*/
      464     1892    1   DCL 1 LOWER_SCU SYMREF,
      465     1893    1         2 LOW_BND UBIN WORD,
      466     1894    1         2 UPP_BND UBIN WORD;
      467     1895    1   DCL 1 UPPER_SCU SYMREF,
      468     1896    1         2 LOW_BND UBIN WORD,
      469     1897    1         2 UPP_BND UBIN WORD;
      470     1898    1   DCL I UBIN WORD;
      471     1899        /**/
      472     1900    1           INFOX_PTR='0'B;
      473     1901    1           INFOX_PTR.S_D_FIELD=%ALS_PPUT;  /* Frame PPUT                         */
      474     1902        /* Clean the table */
      475     1903    2           DO I=0 TO IS_PPUT_SIZE-1;
      476     1904    2             INFOX$->MM$PPUT(I)='0'B;
      477     1905    2           END;                            /* DO I=                              */
      478     1906        /* Do GHOST1 pages */
      479     1907    2           DO I=0 TO PAG_PPT-PAG_PPH;
      480     1908    2             INFOX$->MM$PPUT.USER(PAG_PPH+I)='1'B; /* User page                  */
      481     1909    2             INFOX$->MM$PPUT.USER#(PAG_PPH+I)=1; /* User#                        */
      482     1910    2           END;                            /* DO I=                              */
      483     1911        /* Do free pages */
PL6.E3A0      #003=INITP File=ISI$MM.:E05TSI                                     TUE 07/29/97 22:55 Page:91
      484     1912    2           IF GAP_SZ~=0 THEN DO;           /* We are on RPM and we have a gap    */
      485     1913    3                 DO I=NAVPG/1024 TO LOWER_SCU.UPP_BND-1;
      486     1914    3                   INFOX$->MM$PPUT.FREE(I)='1'B;
      487     1915    3                   INFOX$->MM$PPUT.PPNO(I)=I+1; /* Next available page           */
      488     1916    3                 END;
      489     1917    2                 INFOX$->MM$PPUT.FREE(LOWER_SCU.UPP_BND)='1'B;
      490     1918    2                 INFOX$->MM$PPUT.PPNO(LOWER_SCU.UPP_BND)=UPPER_SCU.LOW_BND;
      491     1919                                                /* Do the gap                         */
      492     1920    3                 DO I=LOWER_SCU.UPP_BND+1 TO UPPER_SCU.LOW_BND-1;
      493     1921    3                   INFOX$->MM$PPUT.STOLEN(I)='1'B;
      494     1922    3                   INFOX$->MM$PPUT.USER#(I)=511; /* Convention for the gap       */
      495     1923    3                 END;
      496     1924    3                 DO I=UPPER_SCU.LOW_BND TO HIAVPG-1;
      497     1925    3                   INFOX$->MM$PPUT.FREE(I)='1'B;
      498     1926    3                   INFOX$->MM$PPUT.PPNO(I)=I+1; /* Next available page           */
      499     1927    3                 END;
      500     1928    2               END;
      501     1929    2             ELSE DO I=NAVPG/1024 TO HIAVPG-1;
      502     1930    2                 INFOX$->MM$PPUT.FREE(I)='1'B; /* Page free                      */
      503     1931    2                 INFOX$->MM$PPUT.PPNO(I)=I+1; /* Next available page             */
      504     1932    2               END;                        /* DO I=                              */
      505     1933    2           IF IS_PPUT_SIZE > HIPAGE THEN DO;
      506     1934    3                 DO I = UPPER_SCU.LOW_BND TO UPPER_SCU.UPP_BND;
      507     1935    3                   INFOX$->MM$PPUT.STOLEN(I) = '1'B;
      508     1936    3                   INFOX$->MM$PPUT.USER#(I) = 511;
      509     1937    3                 END;
      510     1938    2               END;
      511     1939        /* Do the tail */
      512     1940    1           INFOX$->MM$PPUT.FREE(HIAVPG)='1'B;
      513     1941    1           IF S1000_FLG='0'B THEN RETURN;
      514     1942    1             ELSE;
      515     1943    1           INFOX_PTR.S_D_FIELD=%ALS_AIS;
      516     1944    1           INFOX_PTR.WOFFS=IPHYPG;         /* Frame map                          */
      517     1945    2           DO I=0 TO PHYMEM_SZ;
      518     1946    2             IPHY_MAP(I)=-1;               /* Free pattern                       */
      519     1947    2           END;                            /* DO I=                              */
      520     1948    2           DO I=0 TO IS_PPUT_SIZE;
PL6.E3A0      #003=INITP File=ISI$MM.:E05TSI                                     TUE 07/29/97 22:55 Page:92
      521     1949    2             IPHY_MAP(WS0PT.RPN(I))=I;
      522     1950    2           END;                            /* DO I=                              */
      523     1951
      524     1952    1           B$IPHYMAP$ = INFOX$;
      525     1953    1           RETURN;
      526     1954    1   END INITP;
      527     1955        %EOD;

PL6.E3A0      #003=INITP File=ISI$MM.:E05TSI                                     TUE 07/29/97 22:55 Page:93
--  Include file information  --

   MM_MACRO_M.:E05TOU  is referenced.
   B_STRINGS_C.:E05TOU  is referenced.
   MM$SYSGEN.:E05TOU  is referenced.
   M_INFO_C.:E05TOU  is referenced.
   MM_DATA_R.:E05TOU  cannot be made into a system file and is referenced.
   IS$MACROS.:E05TOU  is referenced.
      No diagnostics issued in procedure INITP.

   Procedure INITP requires 181 words for executable code.
   Procedure INITP requires 8 words of local(AUTO) storage.

PL6.E3A0      #003=INITP File=ISI$MM.:E05TSI                                     TUE 07/29/97 22:55 Page:94

 Object Unit name= INITP                                      File name= ISI$MM.:E05TOU
 UTS= JUL 29 '97 22:55:35.08 TUE                              Compiler= PL-6/E31         Sev=      00
 SharedLib= :SHARED_SYSTEM                                    Alt SharedLib=


    ****  Control sections  ****

 Sect   Type Bound  Init  Size OctSiz  Section name(segment info)
    0   Data  even  none     1      1  INITP
    1   Proc  even  none   181    265  INITP
    2  RoData even  none     1      1  INITP

    ****  Entry defs  ****

                              Check   Calling
                             calling  sequence
  Sect OctLoc Primary Altret sequence   type   Parms  Name
     1      0   yes            yes      Std        0  INITP

  ****  Data defs  ****

 Sect OctLoc  Name                           Sect OctLoc  Name
    0      0  B$IPHYMAP$

  ****  Entry refs  ****

         Check        Calling
        calling       sequence
Altret sequence SRef   type   Args  Name
                       nStd      0 X66_AUTO_0
                       nStd      0 X66_ARET
                       Std       0 B_CONSPOOL_D
PL6.E3A0      #003=INITP File=ISI$MM.:E05TSI                                     TUE 07/29/97 22:55 Page:95

  ****  Data refs  ****

  Flags:  r = read only, s = secondary
Flgs Name                             Flgs Name                             Flgs Name
r    MM_BYP$                               WS0PT$                                HIPAGE
     HIAVPG                                IS_PPUT_SIZE                          PHYMEM_SZ
     IPHYPG                                NAVPG                                 PAG_PPH
     PAG_PPT                               S1000_FLG                             GAP_SZ
     LOWER_SCU                             UPPER_SCU                             B_VECTNIL
PL6.E3A0      #003=INITP File=ISI$MM.:E05TSI                                     TUE 07/29/97 22:55 Page:96


      410        1        /*T***********************************************************/
      411        2        /*T*                                                         */
      412        3        /*T* Copyright (c) Bull HN Information Systems Inc., 1997    */
      413        4        /*T*                                                         */
      414        5        /*T***********************************************************/
      415        6        INITP:  PROC;

      6  1 000000   000000 700200 xent  INITP        TSX0  ! X66_AUTO_0
         1 000001   000010 000000                    ZERO    8,0

      416        7        /*F*   NAME:   INITP
      417        8               PURPOSE:  Build MM_PPUT and for and DPS90 the Physical->Real map
      418        9        */
      419       10        /*D*   NAME:     INITP
      420       11               CALL:     CALL INITP;
      421       12               ENVIRONMENT: AARDVARK Linkage Segment
      422       13               INPUT:    None
      423       14               OUTPUT:   None
      424       15               DESCRIPTION:
      425       16                  This routine is called to build PPUT and the DPS90
      426       17                  Physical to real map.  It uses IS_PPUT_SIZE to determine how
      427       18                  big PPUT should be.  PPUT is initially
      428       19                  all zeroes.  The GHOST1 pages are marked as user pages and
      429       20                  user number is set to 1.  On all hardware except the DPS800,
      430       21                  all pages in the range NAVPG/1024 to IS_PPUT_SIZE are marked free
      431       22                  and linked together.  On the DPS8000 if there is no gap in
      432       23                  Physical memory (GAP_SZ = 0), then PPUT is build in the same
      433       24                  manner as other hardware.  If there is a gap, the pages in
      434       25                  the range, NAVPG/1024 to the upper bound of low memory are
      435       26                  set to free and linked together along with the pages in the
      436       27                  range high memory lower bound to HIAVPG.  The pages in the
      437       28                  gap, low memory upper bound to high memory lower bound are
      438       29                  marked as STOLEN with a user number of 511. On DPS90 hardware
      439       30                  the Physical to Real map is also build.  On DPS8000,
      440       31                  IS_PPUT_SIZE includes memory that has been released.
      441       32        */
PL6.E3A0      #003=INITP File=ISI$MM.:E05TSI                                     TUE 07/29/97 22:55 Page:97
      442       33        /**/
      443       34
      444       35        %INCLUDE IS$MACROS;
      445     1310        %INCLUDE MM_DATA_R;
      446     1830        /**/
      447     1831    1   DCL INFOX$ PTR;
      448     1832        %PTR_STRUCT(NAME=INFOX_PTR,STCLASS="REDEF INFOX$");
      449     1850    1   DCL 1 WS0PT(0:0) ALIGNED BASED(WS0PT$), /* WS0 PT                             */
      450     1851        %PTW(LVL=2);
      451     1879    1   DCL WS0PT$ PTR SYMREF;
      452     1880    1   DCL IPHY_MAP(0:0) BASED(INFOX$) SBIN HALF HALIGNED;
      453     1881    1   DCL HIPAGE UBIN WORD SYMREF;
      454     1882    1   DCL HIAVPG UBIN WORD SYMREF;            /* Highest avail page on S1000        */
      455     1883    1   DCL IS_PPUT_SIZE UBIN WORD SYMREF;      /* size of pput usually HIPAGE        */
      456     1884    1   DCL PHYMEM_SZ UBIN WORD SYMREF;         /* Size of Physical mem for S1000     */
      457     1885    1   DCL IPHYPG UBIN WORD SYMREF;            /* Address of Physical->Real map      */
      458     1886    1   DCL B$IPHYMAP$ PTR STATIC SYMDEF;
      459     1887    1   DCL NAVPG UBIN WORD SYMREF;
      460     1888    1   DCL PAG_PPH UBIN HALF SYMREF;           /* Physical page head of GHOST1       */
      461     1889    1   DCL PAG_PPT UBIN HALF SYMREF;           /* Physical page tail of GHOST1       */
      462     1890    1   DCL S1000_FLG BIT(1) SYMREF;
      463     1891    1   DCL GAP_SZ UBIN WORD SYMREF;            /*Size of the eventual gap on RPM*/
      464     1892    1   DCL 1 LOWER_SCU SYMREF,
      465     1893    1         2 LOW_BND UBIN WORD,
      466     1894    1         2 UPP_BND UBIN WORD;
      467     1895    1   DCL 1 UPPER_SCU SYMREF,
      468     1896    1         2 LOW_BND UBIN WORD,
      469     1897    1         2 UPP_BND UBIN WORD;
      470     1898    1   DCL I UBIN WORD;
      471     1899        /**/
      472     1900    1           INFOX_PTR='0'B;

   1900  1 000002   200003 450100                    STZ     INFOX$,,AUTO

      473     1901    1           INFOX_PTR.S_D_FIELD=%ALS_PPUT;  /* Frame PPUT                         */

   1901  1 000003   006003 236007                    LDQ     3075,DL
PL6.E3A0      #003=INITP File=ISI$MM.:E05TSI                                     TUE 07/29/97 22:55 Page:98
         1 000004   200003 752103                    STCQ    INFOX$,'03'O,AUTO

      474     1902        /* Clean the table */
      475     1903    2           DO I=0 TO IS_PPUT_SIZE-1;

   1903  1 000005   200004 450100                    STZ     I,,AUTO
         1 000006   000015 710000 1                  TRA     s:1905+3

      476     1904    2             INFOX$->MM$PPUT(I)='0'B;

   1904  1 000007   200003 470500                    LDP0    INFOX$,,AUTO
         1 000010   200004 720100                    LXL0    I,,AUTO
         1 000011   000000 450110                    STZ     0,X0,PR0

      477     1905    2           END;                            /* DO I=                              */

   1905  1 000012   200004 235100                    LDA     I,,AUTO
         1 000013   000001 035007                    ADLA    1,DL
         1 000014   200004 755100                    STA     I,,AUTO
         1 000015   200004 236100                    LDQ     I,,AUTO
         1 000016   000000 116000 xsym               CMPQ    IS_PPUT_SIZE
         1 000017   000007 602000 1                  TNC     s:1904

      478     1906        /* Do GHOST1 pages */
      479     1907    2           DO I=0 TO PAG_PPT-PAG_PPH;

   1907  1 000020   200004 450100                    STZ     I,,AUTO
         1 000021   000044 710000 1                  TRA     s:1910+3

      480     1908    2             INFOX$->MM$PPUT.USER(PAG_PPH+I)='1'B; /* User page                  */

   1908  1 000022   000000 236000 xsym               LDQ     PAG_PPH
         1 000023   000022 772000                    QRL     18
         1 000024   200004 036100                    ADLQ    I,,AUTO
         1 000025   200003 470500                    LDP0    INFOX$,,AUTO
         1 000026   000000 620006                    EAX0    0,QL
         1 000027   020000 236003                    LDQ     8192,DU
PL6.E3A0      #003=INITP File=ISI$MM.:E05TSI                                     TUE 07/29/97 22:55 Page:99
         1 000030   000000 256110                    ORSQ    0,X0,PR0

      481     1909    2             INFOX$->MM$PPUT.USER#(PAG_PPH+I)=1; /* User#                        */

   1909  1 000031   000000 236000 xsym               LDQ     PAG_PPH
         1 000032   000022 772000                    QRL     18
         1 000033   200004 036100                    ADLQ    I,,AUTO
         1 000034   000000 620006                    EAX0    0,QL
         1 000035   000000 236106                    LDQ     0,QL,PR0
         1 000036   000000 376000 2                  ANQ     0
         1 000037   000001 276003                    ORQ     1,DU
         1 000040   000000 756110                    STQ     0,X0,PR0

      482     1910    2           END;                            /* DO I=                              */

   1910  1 000041   200004 235100                    LDA     I,,AUTO
         1 000042   000001 035007                    ADLA    1,DL
         1 000043   200004 755100                    STA     I,,AUTO
         1 000044   000000 235000 xsym               LDA     PAG_PPH
         1 000045   000022 771000                    ARL     18
         1 000046   200006 755100                    STA     I+2,,AUTO
         1 000047   000000 236000 xsym               LDQ     PAG_PPT
         1 000050   000022 772000                    QRL     18
         1 000051   200006 136100                    SBLQ    I+2,,AUTO
         1 000052   000055 604000 1                  TMI     s:1912
         1 000053   200004 116100                    CMPQ    I,,AUTO
         1 000054   000022 603000 1                  TRC     s:1908

      483     1911        /* Do free pages */
      484     1912    2           IF GAP_SZ~=0 THEN DO;           /* We are on RPM and we have a gap    */

   1912  1 000055   000000 236000 xsym               LDQ     GAP_SZ
         1 000056   000146 600000 1                  TZE     s:1929

      485     1913    3                 DO I=NAVPG/1024 TO LOWER_SCU.UPP_BND-1;

   1913  1 000057   000000 236000 xsym               LDQ     NAVPG
PL6.E3A0      #003=INITP File=ISI$MM.:E05TSI                                     TUE 07/29/97 22:55 Page:100
         1 000060   000012 772000                    QRL     10
         1 000061   200004 756100                    STQ     I,,AUTO
         1 000062   000074 710000 1                  TRA     s:1916+3

      486     1914    3                   INFOX$->MM$PPUT.FREE(I)='1'B;

   1914  1 000063   200003 470500                    LDP0    INFOX$,,AUTO
         1 000064   200004 720100                    LXL0    I,,AUTO
         1 000065   040000 236003                    LDQ     16384,DU
         1 000066   000000 256110                    ORSQ    0,X0,PR0

      487     1915    3                   INFOX$->MM$PPUT.PPNO(I)=I+1; /* Next available page           */

   1915  1 000067   000001 621010                    EAX1    1,X0
         1 000070   000000 441110                    SXL1    0,X0,PR0

      488     1916    3                 END;

   1916  1 000071   200004 235100                    LDA     I,,AUTO
         1 000072   000001 035007                    ADLA    1,DL
         1 000073   200004 755100                    STA     I,,AUTO
         1 000074   200004 236100                    LDQ     I,,AUTO
         1 000075   000001 116000 xsym               CMPQ    LOWER_SCU+1
         1 000076   000063 602000 1                  TNC     s:1914

      489     1917    2                 INFOX$->MM$PPUT.FREE(LOWER_SCU.UPP_BND)='1'B;

   1917  1 000077   200003 470500                    LDP0    INFOX$,,AUTO
         1 000100   000001 720000 xsym               LXL0    LOWER_SCU+1
         1 000101   040000 236003                    LDQ     16384,DU
         1 000102   000000 256110                    ORSQ    0,X0,PR0

      490     1918    2                 INFOX$->MM$PPUT.PPNO(LOWER_SCU.UPP_BND)=UPPER_SCU.LOW_BND;

   1918  1 000103   000000 720000 xsym               LXL0    UPPER_SCU
         1 000104   000001 721000 xsym               LXL1    LOWER_SCU+1
         1 000105   000000 440111                    SXL0    0,X1,PR0
PL6.E3A0      #003=INITP File=ISI$MM.:E05TSI                                     TUE 07/29/97 22:55 Page:101

      491     1919                                                /* Do the gap                         */
      492     1920    3                 DO I=LOWER_SCU.UPP_BND+1 TO UPPER_SCU.LOW_BND-1;

   1920  1 000106   000001 235000 xsym               LDA     LOWER_SCU+1
         1 000107   000001 035007                    ADLA    1,DL
         1 000110   200004 755100                    STA     I,,AUTO
         1 000111   000123 710000 1                  TRA     s:1923+3

      493     1921    3                   INFOX$->MM$PPUT.STOLEN(I)='1'B;

   1921  1 000112   200003 470500                    LDP0    INFOX$,,AUTO
         1 000113   200004 720100                    LXL0    I,,AUTO
         1 000114   002000 236003                    LDQ     1024,DU
         1 000115   000000 256110                    ORSQ    0,X0,PR0

      494     1922    3                   INFOX$->MM$PPUT.USER#(I)=511; /* Convention for the gap       */

   1922  1 000116   000777 236003                    LDQ     511,DU
         1 000117   000000 256110                    ORSQ    0,X0,PR0

      495     1923    3                 END;

   1923  1 000120   200004 235100                    LDA     I,,AUTO
         1 000121   000001 035007                    ADLA    1,DL
         1 000122   200004 755100                    STA     I,,AUTO
         1 000123   200004 236100                    LDQ     I,,AUTO
         1 000124   000000 116000 xsym               CMPQ    UPPER_SCU
         1 000125   000112 602000 1                  TNC     s:1921

      496     1924    3                 DO I=UPPER_SCU.LOW_BND TO HIAVPG-1;

   1924  1 000126   000000 235000 xsym               LDA     UPPER_SCU
         1 000127   200004 755100                    STA     I,,AUTO
         1 000130   000142 710000 1                  TRA     s:1927+3

      497     1925    3                   INFOX$->MM$PPUT.FREE(I)='1'B;
PL6.E3A0      #003=INITP File=ISI$MM.:E05TSI                                     TUE 07/29/97 22:55 Page:102

   1925  1 000131   200003 470500                    LDP0    INFOX$,,AUTO
         1 000132   200004 720100                    LXL0    I,,AUTO
         1 000133   040000 236003                    LDQ     16384,DU
         1 000134   000000 256110                    ORSQ    0,X0,PR0

      498     1926    3                   INFOX$->MM$PPUT.PPNO(I)=I+1; /* Next available page           */

   1926  1 000135   000001 621010                    EAX1    1,X0
         1 000136   000000 441110                    SXL1    0,X0,PR0

      499     1927    3                 END;

   1927  1 000137   200004 235100                    LDA     I,,AUTO
         1 000140   000001 035007                    ADLA    1,DL
         1 000141   200004 755100                    STA     I,,AUTO
         1 000142   200004 236100                    LDQ     I,,AUTO
         1 000143   000000 116000 xsym               CMPQ    HIAVPG
         1 000144   000131 602000 1                  TNC     s:1925

      500     1928    2               END;

   1928  1 000145   000166 710000 1                  TRA     s:1933

      501     1929    2             ELSE DO I=NAVPG/1024 TO HIAVPG-1;

   1929  1 000146   000000 236000 xsym               LDQ     NAVPG
         1 000147   000012 772000                    QRL     10
         1 000150   200004 756100                    STQ     I,,AUTO
         1 000151   000163 710000 1                  TRA     s:1932+3

      502     1930    2                 INFOX$->MM$PPUT.FREE(I)='1'B; /* Page free                      */

   1930  1 000152   200003 470500                    LDP0    INFOX$,,AUTO
         1 000153   200004 720100                    LXL0    I,,AUTO
         1 000154   040000 236003                    LDQ     16384,DU
         1 000155   000000 256110                    ORSQ    0,X0,PR0
PL6.E3A0      #003=INITP File=ISI$MM.:E05TSI                                     TUE 07/29/97 22:55 Page:103

      503     1931    2                 INFOX$->MM$PPUT.PPNO(I)=I+1; /* Next available page             */

   1931  1 000156   000001 621010                    EAX1    1,X0
         1 000157   000000 441110                    SXL1    0,X0,PR0

      504     1932    2               END;                        /* DO I=                              */

   1932  1 000160   200004 235100                    LDA     I,,AUTO
         1 000161   000001 035007                    ADLA    1,DL
         1 000162   200004 755100                    STA     I,,AUTO
         1 000163   200004 236100                    LDQ     I,,AUTO
         1 000164   000000 116000 xsym               CMPQ    HIAVPG
         1 000165   000152 602000 1                  TNC     s:1930

      505     1933    2           IF IS_PPUT_SIZE > HIPAGE THEN DO;

   1933  1 000166   000000 236000 xsym               LDQ     HIPAGE
         1 000167   000000 116000 xsym               CMPQ    IS_PPUT_SIZE
         1 000170   000210 603000 1                  TRC     s:1940

      506     1934    3                 DO I = UPPER_SCU.LOW_BND TO UPPER_SCU.UPP_BND;

   1934  1 000171   000000 235000 xsym               LDA     UPPER_SCU
         1 000172   200004 755100                    STA     I,,AUTO
         1 000173   000205 710000 1                  TRA     s:1937+3

      507     1935    3                   INFOX$->MM$PPUT.STOLEN(I) = '1'B;

   1935  1 000174   200003 470500                    LDP0    INFOX$,,AUTO
         1 000175   200004 720100                    LXL0    I,,AUTO
         1 000176   002000 236003                    LDQ     1024,DU
         1 000177   000000 256110                    ORSQ    0,X0,PR0

      508     1936    3                   INFOX$->MM$PPUT.USER#(I) = 511;

   1936  1 000200   000777 236003                    LDQ     511,DU
PL6.E3A0      #003=INITP File=ISI$MM.:E05TSI                                     TUE 07/29/97 22:55 Page:104
         1 000201   000000 256110                    ORSQ    0,X0,PR0

      509     1937    3                 END;

   1937  1 000202   200004 235100                    LDA     I,,AUTO
         1 000203   000001 035007                    ADLA    1,DL
         1 000204   200004 755100                    STA     I,,AUTO
         1 000205   000001 236000 xsym               LDQ     UPPER_SCU+1
         1 000206   200004 116100                    CMPQ    I,,AUTO
         1 000207   000174 603000 1                  TRC     s:1935

      510     1938    2               END;

      511     1939        /* Do the tail */
      512     1940    1           INFOX$->MM$PPUT.FREE(HIAVPG)='1'B;

   1940  1 000210   200003 470500                    LDP0    INFOX$,,AUTO
         1 000211   000000 720000 xsym               LXL0    HIAVPG
         1 000212   040000 236003                    LDQ     16384,DU
         1 000213   000000 256110                    ORSQ    0,X0,PR0

      513     1941    1           IF S1000_FLG='0'B THEN RETURN;

   1941  1 000214   000000 234000 xsym               SZN     S1000_FLG
         1 000215   000217 604000 1                  TMI     s:1943

   1941  1 000216   000000 702200 xent               TSX2  ! X66_ARET

      514     1942    1             ELSE;
      515     1943    1           INFOX_PTR.S_D_FIELD=%ALS_AIS;

   1943  1 000217   006000 236007                    LDQ     3072,DL
         1 000220   200003 752103                    STCQ    INFOX$,'03'O,AUTO

      516     1944    1           INFOX_PTR.WOFFS=IPHYPG;         /* Frame map                          */

   1944  1 000221   000000 720000 xsym               LXL0    IPHYPG
PL6.E3A0      #003=INITP File=ISI$MM.:E05TSI                                     TUE 07/29/97 22:55 Page:105
         1 000222   200003 740100                    STX0    INFOX$,,AUTO

      517     1945    2           DO I=0 TO PHYMEM_SZ;

   1945  1 000223   200004 450100                    STZ     I,,AUTO
         1 000224   000236 710000 1                  TRA     s:1947+3

      518     1946    2             IPHY_MAP(I)=-1;               /* Free pattern                       */

   1946  1 000225   200004 235100                    LDA     I,,AUTO
         1 000226   000001 735000                    ALS     1
         1 000227   200003 470500                    LDP0    INFOX$,,AUTO
         1 000230   000105 101400                    MRL     fill='000'O
         1 000231   000027 000004 xsym               ADSC9   B_VECTNIL+23             cn=0,n=4
         1 000232   000000 000002                    ADSC9   0,A,PR0                  cn=0,n=2

      519     1947    2           END;                            /* DO I=                              */

   1947  1 000233   200004 236100                    LDQ     I,,AUTO
         1 000234   000001 036007                    ADLQ    1,DL
         1 000235   200004 756100                    STQ     I,,AUTO
         1 000236   000000 236000 xsym               LDQ     PHYMEM_SZ
         1 000237   200004 116100                    CMPQ    I,,AUTO
         1 000240   000225 603000 1                  TRC     s:1946

      520     1948    2           DO I=0 TO IS_PPUT_SIZE;

   1948  1 000241   200004 450100                    STZ     I,,AUTO
         1 000242   000257 710000 1                  TRA     s:1950+3

      521     1949    2             IPHY_MAP(WS0PT.RPN(I))=I;

   1949  1 000243   000000 470400 xsym               LDP0    WS0PT$
         1 000244   200004 720100                    LXL0    I,,AUTO
         1 000245   000000 236110                    LDQ     0,X0,PR0
         1 000246   000022 772000                    QRL     18
         1 000247   000001 736000                    QLS     1
PL6.E3A0      #003=INITP File=ISI$MM.:E05TSI                                     TUE 07/29/97 22:55 Page:106
         1 000250   200003 471500                    LDP1    INFOX$,,AUTO
         1 000251   000106 101500                    MRL     fill='000'O
         1 000252   200004 000004                    ADSC9   I,,AUTO                  cn=0,n=4
         1 000253   100000 000002                    ADSC9   0,Q,PR1                  cn=0,n=2

      522     1950    2           END;                            /* DO I=                              */

   1950  1 000254   200004 235100                    LDA     I,,AUTO
         1 000255   000001 035007                    ADLA    1,DL
         1 000256   200004 755100                    STA     I,,AUTO
         1 000257   000000 236000 xsym               LDQ     IS_PPUT_SIZE
         1 000260   200004 116100                    CMPQ    I,,AUTO
         1 000261   000243 603000 1                  TRC     s:1949

      523     1951
      524     1952    1           B$IPHYMAP$ = INFOX$;

   1952  1 000262   200003 236100                    LDQ     INFOX$,,AUTO
         1 000263   000000 756000 0                  STQ     B$IPHYMAP$

      525     1953    1           RETURN;

   1953  1 000264   000000 702200 xent               TSX2  ! X66_ARET
      526     1954    1   END INITP;
      527     1955        %EOD;

PL6.E3A0      #003=INITP File=ISI$MM.:E05TSI                                     TUE 07/29/97 22:55 Page:107
--  Include file information  --

   MM_MACRO_M.:E05TOU  is referenced.
   B_STRINGS_C.:E05TOU  is referenced.
   MM$SYSGEN.:E05TOU  is referenced.
   M_INFO_C.:E05TOU  is referenced.
   MM_DATA_R.:E05TOU  cannot be made into a system file and is referenced.
   IS$MACROS.:E05TOU  is referenced.
      No diagnostics issued in procedure INITP.
PL6.E3A0      #003=INITP File=ISI$MM.:E05TSI                                     TUE 07/29/97 22:55 Page:108

 **** Variables and constants ****

  ****  Section 000  Data  INITP

  ****  Scalars and arrays  ****
OctLoc.c.b A Datatyp(siz) R M Lvl/name                 OctLoc.c.b A Datatyp(siz) R M Lvl/name

     0-0-0/w PTR         r     1 B$IPHYMAP$

  ****  Auto variables  ****

  ****  Scalars and arrays  ****
OctLoc.c.b A Datatyp(siz) R M Lvl/name                 OctLoc.c.b A Datatyp(siz) R M Lvl/name

     4-0-0/w UBIN        r     1 I                          3-0-0/w PTR         r     1 INFOX$
     3-0-0/w STRC        r     1 INFOX_PTR

  ****  SYMREF variables  ****

  ****  Scalars and arrays  ****
OctLoc.c.b A Datatyp(siz) R M Lvl/name                 OctLoc.c.b A Datatyp(siz) R M Lvl/name

     0-0-0/w UBIN        r     1 GAP_SZ                     0-0-0/w UBIN        r     1 HIAVPG
     0-0-0/w UBIN        r     1 HIPAGE                     0-0-0/w UBIN        r     1 IPHYPG
     0-0-0/w UBIN        r     1 IS_PPUT_SIZE               0-0-0/w STRC(72)    r     1 LOWER_SCU
     0-0-0/w PTR         r     1 MM_BYP$                    0-0-0/w UBIN        r     1 NAVPG
     0-0-0/w UBIN(18)    r     1 PAG_PPH                    0-0-0/w UBIN(18)    r     1 PAG_PPT
     0-0-0/w UBIN        r     1 PHYMEM_SZ                  0-0-0/b BIT         r     1 S1000_FLG
     0-0-0/w STRC(72)    r     1 UPPER_SCU                  0-0-0/w PTR         r     1 WS0PT$

  ****  BASED and DCB variables  ****

  ****  Scalars and arrays  ****
OctLoc.c.b A Datatyp(siz) R M Lvl/name                 OctLoc.c.b A Datatyp(siz) R M Lvl/name

     0-0-0/h SBIN(18)    r     1 IPHY_MAP(0:0)
     0-0-0/w STRC        r     1 MM$PPUT(0:0)
PL6.E3A0      #003=INITP File=ISI$MM.:E05TSI                                     TUE 07/29/97 22:55 Page:109
     0-0-0/w STRC        r     1 WS0PT(0:0)


   Procedure INITP requires 181 words for executable code.
   Procedure INITP requires 8 words of local(AUTO) storage.
PL6.E3A0      #003=INITP File=ISI$MM.:E05TSI                                     TUE 07/29/97 22:55 Page:110
          *** CROSS REFERENCE LISTING ***
**     DENOTES     IDENTIFIER DEFINITION
<<                 IDENTIFIER'S VALUE SET
>>                 IDENTIFIER'S VALUE USED
<>                 IDENTIFIER SET AND/OR USED
--                 IDENTIFIER REFERENCED
PL6.E3A0      #003=INITP File=ISI$MM.:E05TSI                                     TUE 07/29/97 22:55 Page:111
          MINI XREF LISTING

B$IPHYMAP$
      1886**DCL      1952<<ASSIGN
GAP_SZ
      1891**DCL      1912>>IF
HIAVPG
      1882**DCL      1924>>DOINDEX  1929>>DOINDEX  1940>>ASSIGN
HIPAGE
      1881**DCL      1933>>IF
I
      1898**DCL      1903<<DOINDEX  1904>>ASSIGN   1907<<DOINDEX  1908>>ASSIGN   1909>>ASSIGN   1913<<DOINDEX
      1914>>ASSIGN   1915>>ASSIGN   1915>>ASSIGN   1920<<DOINDEX  1921>>ASSIGN   1922>>ASSIGN   1924<<DOINDEX
      1925>>ASSIGN   1926>>ASSIGN   1926>>ASSIGN   1929<<DOINDEX  1930>>ASSIGN   1931>>ASSIGN   1931>>ASSIGN
      1934<<DOINDEX  1935>>ASSIGN   1936>>ASSIGN   1945<<DOINDEX  1946>>ASSIGN   1948<<DOINDEX  1949>>ASSIGN
      1949>>ASSIGN
INFOX$
      1831**DCL      1843--REDEF    1880--IMP-PTR  1904>>ASSIGN   1908>>ASSIGN   1909>>ASSIGN   1914>>ASSIGN
      1915>>ASSIGN   1917>>ASSIGN   1918>>ASSIGN   1921>>ASSIGN   1922>>ASSIGN   1925>>ASSIGN   1926>>ASSIGN
      1930>>ASSIGN   1931>>ASSIGN   1935>>ASSIGN   1936>>ASSIGN   1940>>ASSIGN   1946>>ASSIGN   1949>>ASSIGN
      1952>>ASSIGN
INFOX_PTR
      1843**DCL      1900<<ASSIGN
INFOX_PTR.S_D_FIELD
      1847**DCL      1901<<ASSIGN   1943<<ASSIGN
INFOX_PTR.WOFFS
      1844**DCL      1944<<ASSIGN
IPHYPG
      1885**DCL      1944>>ASSIGN
IPHY_MAP
      1880**DCL      1946<<ASSIGN   1949<<ASSIGN
IS_PPUT_SIZE
      1883**DCL      1903>>DOINDEX  1933>>IF       1948>>DOINDEX
LOWER_SCU.UPP_BND
PL6.E3A0      #003=INITP File=ISI$MM.:E05TSI                                     TUE 07/29/97 22:55 Page:112
      1894**DCL      1913>>DOINDEX  1917>>ASSIGN   1918>>ASSIGN   1920>>DOINDEX
MM$DESC.BOUND
      1781**DCL      1782--REDEF
MM$DESC.FLGS
      1782**DCL      1782--REDEF
MM$PPUT
      1768**DCL      1904<<ASSIGN
MM$PPUT.FREE
      1769**DCL      1914<<ASSIGN   1917<<ASSIGN   1925<<ASSIGN   1930<<ASSIGN   1940<<ASSIGN
MM$PPUT.PPNO
      1770**DCL      1915<<ASSIGN   1918<<ASSIGN   1926<<ASSIGN   1931<<ASSIGN
MM$PPUT.STOLEN
      1769**DCL      1921<<ASSIGN   1935<<ASSIGN
MM$PPUT.USER
      1769**DCL      1908<<ASSIGN
MM$PPUT.USER#
      1770**DCL      1770--REDEF    1909<<ASSIGN   1922<<ASSIGN   1936<<ASSIGN
MM_BYP$
      1701**DCL      1701--IMP-PTR
NAVPG
      1887**DCL      1913>>DOINDEX  1929>>DOINDEX
PAG_PPH
      1888**DCL      1907>>DOINDEX  1908>>ASSIGN   1909>>ASSIGN
PAG_PPT
      1889**DCL      1907>>DOINDEX
PHYMEM_SZ
      1884**DCL      1945>>DOINDEX
S1000_FLG
      1890**DCL      1941>>IF
UPPER_SCU.LOW_BND
      1896**DCL      1918>>ASSIGN   1920>>DOINDEX  1924>>DOINDEX  1934>>DOINDEX
UPPER_SCU.UPP_BND
      1897**DCL      1934>>DOINDEX
WS0PT.RPN
      1870**DCL      1871--REDEF    1949>>ASSIGN
WS0PT.SCTRL
PL6.E3A0      #003=INITP File=ISI$MM.:E05TSI                                     TUE 07/29/97 22:55 Page:113
      1872**DCL      1873--REDEF
WS0PT$
      1879**DCL      1850--IMP-PTR  1949>>ASSIGN

