PL6.E3A0      #010=FIX_FIRM File=ISI$ROUT.:E05TSI                                TUE 07/29/97 22:57 Page:197
      882        1        /*T***********************************************************/
      883        2        /*T*                                                         */
      884        3        /*T* Copyright (c) Bull HN Information Systems Inc., 1997    */
      885        4        /*T*                                                         */
      886        5        /*T***********************************************************/
      887        6        FIX_FIRM:PROC;
      888        7        %INCLUDE IS$MACROS;
      889     1282    1   DCL IPCW_PL6 ENTRY(1);
      890     1283    1   DCL FWRXX ENTRY(1) ALTRET;
      891     1284    1   DCL BUILDFW_DCWS ENTRY(2);
      892     1285    1   DCL POFWR ENTRY(3) ALTRET;
      893     1286    1   DCL TYPEC ENTRY(1);
      894     1287    1   DCL KEYIN ENTRY(2) ALTRET;
      895     1288    1   DCL GETFD ENTRY(2) ALTRET;
      896     1289    1   DCL HANG ENTRY;
      897     1290    1   DCL MTINIT ENTRY ALTRET;
      898     1291    1   DCL DCINIT ENTRY ALTRET;
      899     1292    1   DCL URINIT ENTRY(1) ALTRET;
      900     1293    1   DCL LPINIT ENTRY(1) ALTRET;
      901     1294    1   DCL MINIQ_PL6 ENTRY(5) ALTRET;
      902     1295    1   DCL GT_SYSPACKAD ENTRY(1);
      903     1296    1   DCL   CLEAR_CACHE ENTRY;
      904     1297    1   DCL   START_IO_RPM ENTRY(2);
      905     1298        /**/
      906     1299        %DISKDIR(NAME=ADIR,STCLASS="SYMREF");
      907     1555    1   DCL NAVHDR$ STATIC SYMDEF PTR;          /* Next available firmware header     */
      908     1556    1   DCL NEWNAVHDR$ PTR;
      909     1557    1   DCL FW$ STATIC SYMDEF PTR INIT(ADDR(CP6UL)); /* Pointer to the firmware buffer */
      910     1558        %PTR_STRUCT(NAME=FW_PTR,STCLASS="REDEF FW$");
      911     1576    1   DCL FWHDR$ PTR STATIC SYMDEF INIT(ADDR(ADIR.FW(0))); /* Pointer to firm header */
      912     1577        %PTR_STRUCT(NAME=FWHDR_PTR,STCLASS="REDEF FWHDR$");
      913     1595    1   DCL NEWFWHDR$ PTR STATIC;
      914     1596        %PTR_STRUCT(NAME=NEWFWHDR_PTR,STCLASS="REDEF NEWFWHDR$");
      915     1614        %PTR_STRUCT(NAME=DCFWSTART_PTR);        /* Pointer to disk firmware           */
      916     1632    1   DCL DCFWSTART$ REDEF DCFWSTART_PTR PTR;
      917     1633        %PTR_STRUCT(NAME=FWSTART_PTR);          /* Pointer to firmware start          */
      918     1651    1   DCL FWSTART$ REDEF FWSTART_PTR PTR;
PL6.E3A0      #010=FIX_FIRM File=ISI$ROUT.:E05TSI                                TUE 07/29/97 22:57 Page:198
      919     1652    1   DCL DCFWHDR$ PTR STATIC SYMDEF;
      920     1653        %FWHDR;                                 /* Description of firmware header     */
      921     1662        %DEVINFO(STCLASS="SYMREF");
      922     1731        /**/
      923     1732        /* Firmware tables */
      924     1733        %FW_TAB(NAME=TAPE_FW,ENT#=3);
      925     1750        %FW_TAB(NAME=DISK_FW,ENT#=3);
      926     1767        %FW_TAB(NAME=UR_FW,ENT#=3);
      927     1784        %FW_TAB(NAME=LP_FW,ENT#=1);
      928     1801        %FW_TAB(NAME=CRP_FW,ENT#=1);
      929     1818        /**/
      930     1819    1   DCL   BOOTTAPE UBIN WORD SYMREF;
      931     1820    1   DCL   FW_LOAD(0:511) BIT(1) UNAL SYMREF;
      932     1821    1   DCL   CHN_CFG(0:511) BIT(1) UNAL SYMREF;
      933     1822    1   DCL 1 HW_LD_FLAG SYMREF,
      934     1823    1         2 CR_FW BIT(1) UNAL,
      935     1824    1         2 DISK_FW BIT(1) UNAL,
      936     1825    1         2 LP_FW BIT(1) UNAL,
      937     1826    1         2 TAPE_FW BIT(1) UNAL,
      938     1827    1         2 * BIT(5) UNAL;
      939     1828    1   DCL   RPM_FLG BIT(1) SYMREF;
      940     1829    1   DCL   DO_RPM_CFG ENTRY(1) ALTRET;
      941     1830    1   DCL 1 RPM_BOOTIN SYMREF,
      942     1831    1         2 * BIT(9),
      943     1832    1         2 CHN# UBIN(9) UNAL,
      944     1833    1         2 * BIT(7),
      945     1834    1         2 IMX# UBIN(2) UNAL,
      946     1835    1         2 * BIT(9);
      947     1836    1   DCL   TEMP_IMX SBIN WORD;
      948     1837    1   DCL CP6UL BIT(1) SYMREF;                /* Top of already used memory         */
      949     1838    1   DCL URCHN UBIN WORD SYMREF;
      950     1839    1   DCL SYS_DPX UBIN WORD SYMREF;           /* System disk index in DEVINFO       */
      951     1840    1   DCL S1000_FLG BIT(1) SYMREF;
      952     1841    1   DCL 1 ANSBUF SYMREF,
      953     1842    1         2 CNT UBIN WORD,
      954     1843    1         2 TXT UBIN(16);
      955     1844    1   DCL MTIDCW(0:14) BIT(36) ALIGNED SYMREF;
PL6.E3A0      #010=FIX_FIRM File=ISI$ROUT.:E05TSI                                TUE 07/29/97 22:57 Page:199
      956     1845    1   DCL FIELD$ PTR SYMREF;
      957     1846    1   DCL FIELD_LEN UBIN WORD SYMREF;
      958     1847    1   DCL FWANS CHAR(2) BASED(FIELD$);
      959     1848    1   DCL DECIM_FLG BIT(1) SYMREF;
      960     1849    1   DCL ORDBFLG BIT(2) SYMREF;
      961     1850    1   DCL RCV_FLG BIT(4) SYMREF;
      962     1851    1   DCL 1 ADPXF SYMREF,
      963     1852    1         2 A BIT(1),
      964     1853    1         2 D BIT(1),
      965     1854    1         2 P BIT(1),
      966     1855    1         2 X BIT(1),
      967     1856    1         2 F BIT(1);
      968     1857        /**/
      969     1858        /* DCWs for firmware writing */
      970     1859        %DCW_STRUCT(NAME=MTCSOD1);              /* MT-MPC CSO DCWs                    */
      971     1877        %DCW_STRUCT(NAME=MTCSOD2);
      972     1895        %DCW_STRUCT(NAME=DCCSOD1);              /* DC-MPC CSO DCWs                    */
      973     1913        %DCW_STRUCT(NAME=DCCSOD2);
      974     1931        %DCW_STRUCT(NAME=URCSOD1);              /* UR-MPC CSO DCWs                    */
      975     1949        %DCW_STRUCT(NAME=URCSOD2);
      976     1967        %DCW_STRUCT(NAME=MTMMOD1);              /* MT-MPC MMO DCWs                    */
      977     1985        %DCW_STRUCT(NAME=MTMMOD2);
      978     2003        %DCW_STRUCT(NAME=DCMMOD1);              /* DC-MPC MMO DCWs                    */
      979     2021        %DCW_STRUCT(NAME=DCMMOD2);
      980     2039        %DCW_STRUCT(NAME=URMMOD1);              /* UR-MPC MMO DCWs                    */
      981     2057        %DCW_STRUCT(NAME=URMMOD2);
      982     2075        %DCW_STRUCT(NAME=LDFWD);                /* PTR400 DCW                         */
      983     2093        %DCW_STRUCT(NAME=CDFWD);                /* CR/CP DCW                          */
      984     2111        /**/
      985     2112    1   DCL ACTFWHD# STATIC SYMDEF UBIN WORD INIT(0); /*Nr of used firmware headers   */
      986     2113    1   DCL EURC_FLG BIT(1) STATIC SYMDEF INIT('0'B);
      987     2114    1   DCL TPUR_FLG BIT(1) STATIC SYMDEF INIT('0'B);
      988     2115    1   DCL POFWHD# UBIN WORD;                  /* Nr of headers read from PO tape    */
      989     2116    1   DCL I UBIN WORD;
      990     2117    1   DCL FWTINDX UBIN WORD STATIC SYMDEF INIT(0); /* Index in DEVINFO of FW tape   */
      991     2118        /* Texts */
      992     2119        %TEXTC(N#=FWERR,M#="' Tape error reading firmware.'");
PL6.E3A0      #010=FIX_FIRM File=ISI$ROUT.:E05TSI                                TUE 07/29/97 22:57 Page:200
      993     2124        %TEXTC(N#=NOFWRM,M#="' Cannot initialize MPC or cannot find firmware XXXX '");
      994     2129        %TEXTC(N#=POEM,M#="'PO boot aborted...'");
      995     2134        %TEXTC(N#=FWTQ2,M#="' FW Tape = X-XXX-'");
      996     2139    1   DCL MESSAGE$ PTR;
      997     2140    1   DCL 1 TEXTM BASED(MESSAGE$),
      998     2141    1         2 CNT UBIN WORD,
      999     2142    1         2 TXT CHAR(TEXTM.CNT);
     1000     2143        /**/
     1001     2144    1           ADIR.FW='0'B;                   /* Zap FW headers                     */
     1002     2145    2           IF S1000_FLG='1'B THEN DO; /* On S1000 the firmware is already loaded */
     1003     2146        /* Load VFC and train image to printers */
     1004     2147    3                 DO I=%FRSTLP TO %(FRSTCR-1);
     1005     2148    3                   CALL LPINIT(I);
     1006     2149    3                 END;                      /* DO I=                              */
     1007     2150    2   DCIS:
     1008     2151    2                 IF SYS_DPX~=0 THEN GOTO DCIS1; /* We already know system disk addr */
     1009     2152    2                   ELSE;
     1010     2153    2                 IF ADPXF.D='1'B THEN CALL GT_SYSPACKAD(%FRSTDP);
              2153                          /* Get sys pack addr */
     1011     2154    2                   ELSE;
     1012     2155    2                 SYS_DPX=%FRSTDP;
     1013     2156    2   DCIS1:
     1014     2157        /* Over top of already used memory , allow 1 page for PTCHBF,
     1015     2158           next page,page boundary */
     1016     2159    2                 FW$=ADDR(CP6UL);
     1017     2160    2                 FW_PTR.WOFFS=(FW_PTR.WOFFS+2048)/1024*1024;
     1018     2161    2                 FWSTART$=FW$;
     1019     2162    2                 RETURN;
     1020     2163    2               END;                        /* THEN                               */
     1021     2164    1             ELSE;
     1022     2165        /**/
     1023     2166        /* build CP6-RPM config tables from RPM - MCA config data */
     1024     2167    2           IF RPM_FLG THEN DO;
     1025     2168    2                 TEMP_IMX = RPM_BOOTIN.IMX#;
     1026     2169    3                 CALL DO_RPM_CFG(TEMP_IMX) WHENRETURN DO;
     1027     2170    3                       HW_LD_FLAG.CR_FW = '0'B;
     1028     2171    3                       HW_LD_FLAG.LP_FW = '0'B;
PL6.E3A0      #010=FIX_FIRM File=ISI$ROUT.:E05TSI                                TUE 07/29/97 22:57 Page:201
     1029     2172    3                       HW_LD_FLAG.TAPE_FW = FW_LOAD(DEVINFO.IOM#(BOOTTAPE)*128 +DEVINFO
              2172                                .CHN#(BOOTTAPE));
     1030     2173    3                       HW_LD_FLAG.DISK_FW = FW_LOAD(DEVINFO.IOM#(%FRSTDP)*128 +DEVINFO.
              2173                                CHN#(%FRSTDP));
     1031     2174    3                     END;
     1032     2175    2               END;
     1033     2176        /* Initialize firmware tables */
     1034     2177    1           TAPE_FW.MODN(0)=%TPFWNM;
     1035     2178    1           TAPE_FW.MODN(1)=%TPFWN2;
     1036     2179    1           TAPE_FW.MODN(2)=%TPFWN3;
     1037     2180        /**/
     1038     2181    1           DISK_FW.MODN(0)=%DCFWNM;
     1039     2182    1           DISK_FW.MODN(1)=%DCFWN2;
     1040     2183    1           DISK_FW.MODN(2)=%DCFWN3;
     1041     2184        /**/
     1042     2185    1           UR_FW.MODN(0)=%URFWN3;
     1043     2186    1           UR_FW.MODN(1)=%URFWNM;
     1044     2187    1           UR_FW.MODN(2)=%URFWN2;
     1045     2188        /**/
     1046     2189    1           LP_FW.MODN(0)=%LPFWNM;
     1047     2190        /**/
     1048     2191    1           CRP_FW.MODN(0)=%CRPFWNM;
     1049     2192        /**/
     1050     2193    1           IF HW_LD_FLAG.TAPE_FW THEN
     1051     2194    1             CALL IPCW_PL6(%FRSTMT);  /* Initialize MT-MPC for primitive read    */
     1052     2195        /* Over top of already used memory , allow 1 page for PTCHBF,
     1053     2196           next page,page boundary, and allow space for NI$FW header */
     1054     2197    1           DCFWSTART$=ADDR(CP6UL);
     1055     2198    1           DCFWSTART_PTR.WOFFS=(DCFWSTART_PTR.WOFFS+2048)/1024*1024+%NIFWHDR;
     1056     2199        /* Make room for system disk firmware */
     1057     2200    1           FWSTART_PTR.WOFFS=(DCFWSTART_PTR.WOFFS+%(MAXDCFW-NIFWHDR+1023))/1024*1024;
     1058     2201    1           FW$=FWSTART$;
     1059     2202        /* Read firmware from PO tape */
     1060     2203    1           IF HW_LD_FLAG.TAPE_FW THEN
     1061     2204    1             CALL POFWR(BOOTTAPE,'0'B,'0'B) ALTRET(ERPO);
     1062     2205    1             ELSE
     1063     2206    1             CALL POFWR(BOOTTAPE,'1'B,'0'B) ALTRET(ERPO);
PL6.E3A0      #010=FIX_FIRM File=ISI$ROUT.:E05TSI                                TUE 07/29/97 22:57 Page:202
     1064     2207    1           NAVHDR$=FWHDR$;                 /* Save next available header address */
     1065     2208    1           POFWHD#=ACTFWHD#;               /* And nr of headers from PO tape     */
     1066     2209    1           NEWNAVHDR$=NAVHDR$;
     1067     2210        /* Build tape firmware table and initialize MT controller */
     1068     2211    1           IF ~HW_LD_FLAG.TAPE_FW THEN
     1069     2212    1             GOTO SKIP_FW_TAPE_LOAD;
     1070     2213    2           DO I=0 TO TAPE_FW.FWM#-1;
     1071     2214    3             CALL FWRXX(TAPE_FW.MODN(I)) WHENRETURN DO; /* Look for this firmware */
     1072     2215    3                   CALL BUILDFW_DCWS(MTCSOD1,MTMMOD1);
     1073     2216    3                   CALL MTINIT ALTRET(NXT_TFW);
     1074     2217    3                   GOTO MTDONE;
              2217                            /* Found one firmware module that initialized the controller */
     1075     2218    3                 END;                      /* WHENRETURN                         */
     1076     2219    2   NXT_TFW:
     1077     2220    2           END;                            /* DO I =                             */
     1078     2221    1   NOMT:
     1079     2222        /* Couldn't initialize MT ; tell them and hang */
     1080     2223    1           MESSAGE$=ADDR(NOFWRM);
     1081     2224    1           SUBSTR(TEXTM.TXT,47,4)='TAPE';
     1082     2225    1           CALL TYPEC(NOFWRM);
     1083     2226    1           GOTO ERPO1;
     1084     2227    1   MTDONE:
     1085     2228    1           IF TAPE_FW.MODN(I)=%TPFWN2 OR TAPE_FW.MODN(I)=%TPFWN3 THEN
     1086     2229    1             MTIDCW(6)=MTIDCW(7);          /* Set density to 1600                */
     1087     2230        /* See if FW tape requested */
     1088     2231    1   SKIP_FW_TAPE_LOAD:
     1089     2232    1           IF ADPXF.F='0'B THEN
     1090     2233    1             IF HW_LD_FLAG.TAPE_FW THEN
     1091     2234    1               GOTO NOFWT;
     1092     2235    1               ELSE
     1093     2236    1               GOTO DO_LP_FW;
     1094     2237    1             ELSE;
     1095     2238        /* Firmware tape requested,ask for address */
     1096     2239    1           MESSAGE$=ADDR(FWTQ2);
     1097     2240    1           SUBSTR(TEXTM.TXT,11,6)=SUBSTR(DEVINFO.DEVNAME(%FRSTMT),0,6);
     1098     2241    1   ASKFWT1:
     1099     2242    1           CALL KEYIN(FWTQ2,ANSBUF);
PL6.E3A0      #010=FIX_FIRM File=ISI$ROUT.:E05TSI                                TUE 07/29/97 22:57 Page:203
     1100     2243    1           CALL GETFD(ANSBUF.TXT,16) ALTRET(NOFWT);
     1101     2244    1           IF FIELD_LEN>2 OR DECIM_FLG='0'B THEN GOTO ASKFWT1; /* Ask again      */
     1102     2245    1             ELSE;
     1103     2246    2           IF FIELD_LEN=1 THEN DO;         /* Make it a 2 digit field            */
     1104     2247    2                 SUBSTR(FWANS,1,1)=SUBSTR(FWANS,0,1);
     1105     2248    2                 SUBSTR(FWANS,0,1)='0';
     1106     2249    2               END;                        /* THEN                               */
     1107     2250    1             ELSE;
     1108     2251    2           DO I=%FRSTMT TO %FRSTDP-1;
     1109     2252    2             IF SUBSTR(DEVINFO.DEVNAME(I),6,2)=FWANS THEN GOTO DOFWT;
     1110     2253    2               ELSE;
     1111     2254    2           END;                            /* ELSE DO I=                         */
     1112     2255    1           GOTO ASKFWT1;                   /* Device not found                   */
     1113     2256    1   DOFWT:
     1114     2257    1           FWTINDX=I;                      /* Index of FW tape in DEVINFO        */
     1115     2258        /* Wait a second */
     1116     2259    2           DO I=0 TO 32000;
     1117     2260    2           END;                            /* DO I=                              */
     1118     2261    1           FWHDR$=NAVHDR$;
     1119     2262    1           CALL POFWR(FWTINDX,'1'B,'1'B);
     1120     2263    1           CALL MINIQ_PL6(FWTINDX,0,0,%FCNUNL); /* Unload the FW tape            */
     1121     2264    1           NEWFWHDR$=NAVHDR$;
     1122     2265    1           NEWNAVHDR$=FWHDR$;
     1123     2266        /* See if duplicate modules ; if YES replace the old ones */
     1124     2267    1           IF ACTFWHD#=POFWHD# THEN GOTO NOFWT; /* No modules read from FW tape  */
     1125     2268    2             ELSE DO I=POFWHD#+1 TO ACTFWHD#;
     1126     2269    2                 CALL FWRXX(NEWFWHDR$->FWHDR.FWNAME) ALTRET(NDUP);
              2269                          /* See if module exists in firmware read from PO tape */
     1127     2270    2                 FWHDR=NEWFWHDR$->FWHDR; /* Yes, replace old header with new one */
     1128     2271    2                 NEWFWHDR$->FWHDR.FWNAME='XXXX'; /* and invalidate new header    */
     1129     2272    2   NDUP:
     1130     2273    2                 NEWFWHDR_PTR.WOFFS=NEWFWHDR_PTR.WOFFS+4; /* Next header         */
     1131     2274    2               END;                        /* ELSE DO I=                         */
     1132     2275        /* All firmware in memory */
     1133     2276        /* Initialize controllers */
     1134     2277    1   NOFWT:
     1135     2278    1           IF ~HW_LD_FLAG.TAPE_FW THEN
PL6.E3A0      #010=FIX_FIRM File=ISI$ROUT.:E05TSI                                TUE 07/29/97 22:57 Page:204
     1136     2279    1             GOTO DO_LP_FW;
     1137     2280    1           NAVHDR$=NEWNAVHDR$;
     1138     2281        /* Reinitialize MT controller */
     1139     2282    2           DO I=0 TO TAPE_FW.FWM#-1;
     1140     2283    3             CALL FWRXX(TAPE_FW.MODN(I)) WHENRETURN DO; /* Look for this firmware */
     1141     2284    3                   CALL BUILDFW_DCWS(MTCSOD1,MTMMOD1);
     1142     2285    3                   CALL MTINIT ALTRET(NXT_TFW1);
     1143     2286    3                   GOTO MTDONE1;
              2286                            /* Found one firmware module that initialized the controller */
     1144     2287    3                 END;                      /* WHENRETURN                         */
     1145     2288    2   NXT_TFW1:
     1146     2289    2           END;                            /* DO I =                             */
     1147     2290    1           GOTO NOMT;
     1148     2291    1   MTDONE1:
     1149     2292    1           TAPE_FW.FW_INDX=I;
     1150     2293    1           IF TAPE_FW.MODN(I)='TPUR' THEN TPUR_FLG='1'B;
     1151     2294    1             ELSE;
     1152     2295        /* Initialize UR controller */
     1153     2296    1   DO_LP_FW:
     1154     2297    1           IF ~HW_LD_FLAG.LP_FW THEN
     1155     2298    1             IF ~HW_LD_FLAG.CR_FW THEN
     1156     2299    1               GOTO DP_NEXT;
     1157     2300    1               ELSE GOTO LPDONE1;
     1158     2301    2           DO I=0 TO LP_FW.FWM#-1;         /* Look for LP application firmware   */
     1159     2302    3             CALL FWRXX(LP_FW.MODN(I)) WHENRETURN DO;
     1160     2303    3                   LDFWD.AD=FWHDR.BUFAD;
     1161     2304    3                   LDFWD.TALLY=FWHDR.CSOSIZE;
     1162     2305    3                   GOTO LPDONE;
     1163     2306    3                 END;                      /* WHENRETURN                         */
     1164     2307    2           END;                            /* DO I=                              */
     1165     2308    1   LPDONE:
     1166     2309    1           LP_FW.FW_INDX=I;
     1167     2310    2           IF ~HW_LD_FLAG.CR_FW THEN DO;
     1168     2311    2                 I = 0;
     1169     2312    2                 EURC_FLG = '1'B;
     1170     2313    2                 GOTO TRY_LP1;
     1171     2314    2               END;
PL6.E3A0      #010=FIX_FIRM File=ISI$ROUT.:E05TSI                                TUE 07/29/97 22:57 Page:205
     1172     2315    1   LPDONE1:
     1173     2316    2           DO I=0 TO CRP_FW.FWM#-1;   /* Look for CR CP application firmware     */
     1174     2317    3             CALL FWRXX(CRP_FW.MODN(I)) WHENRETURN DO;
     1175     2318    3                   CDFWD.AD=FWHDR.BUFAD;
     1176     2319    3                   CDFWD.TALLY=FWHDR.CSOSIZE;
     1177     2320    3                   GOTO CRDONE;
     1178     2321    3                 END;                      /* WHENRETURN                         */
     1179     2322    2           END;                            /* DO I=                              */
     1180     2323    1   CRDONE:
     1181     2324    1           CRP_FW.FW_INDX=I;
     1182     2325        /* Try EURC first */
     1183     2326    1           I=0;
     1184     2327    1           EURC_FLG='1'B;
     1185     2328    1           CALL URINIT(%FRSTCR) ALTRET(TRY_LP1);
     1186     2329    1           GOTO URDONE;
     1187     2330    1   TRY_LP1:
     1188     2331    1           CALL URINIT(%FRSTLP) ALTRET(OTH_URFW);
     1189     2332    1           IF ~HW_LD_FLAG.LP_FW THEN
     1190     2333    1             GOTO OTH_URFW;
     1191     2334    1           GOTO URDONE;
     1192     2335    1   OTH_URFW:
     1193     2336    1           EURC_FLG='0'B;                  /* No EURC , try other firmware       */
     1194     2337    2           DO I=1 TO UR_FW.FWM#-1;
     1195     2338    3             CALL FWRXX(UR_FW.MODN(I)) WHENRETURN DO;
     1196     2339    3                   CALL BUILDFW_DCWS(URCSOD1,URMMOD1);
     1197     2340    4                   IF HW_LD_FLAG.CR_FW THEN DO;
     1198     2341    4                         CALL URINIT(%FRSTCR) ALTRET(TRY_LP2);
     1199     2342    4                         GOTO URDONE;
     1200     2343    4                       END;
     1201     2344    3   TRY_LP2:
     1202     2345    4                   IF HW_LD_FLAG.LP_FW THEN DO;
     1203     2346    4                         CALL URINIT(%FRSTLP) ALTRET(NXT_UFW);
     1204     2347    4                         GOTO URDONE;
     1205     2348    4                       END;
     1206     2349    3                 END;                      /* WHENRETURN                         */
     1207     2350    2   NXT_UFW:
     1208     2351    2           END;                            /* DO I=                              */
PL6.E3A0      #010=FIX_FIRM File=ISI$ROUT.:E05TSI                                TUE 07/29/97 22:57 Page:206
     1209     2352        /* Couldn't initialize UR controller */
     1210     2353    2           DO I=%FRSTLP TO %(FRSTMT-1);    /* Mark UR devices down               */
     1211     2354    2             DEVINFO.BITS(I)='1'B;
     1212     2355    2           END;                            /* DO I=                              */
     1213     2356    1           URCHN=0;                        /*For TIGR                            */
     1214     2357    1           MESSAGE$=ADDR(NOFWRM);
     1215     2358    1           SUBSTR(TEXTM.TXT,47,4)=' UR ';
     1216     2359    1           CALL TYPEC(NOFWRM);
     1217     2360        /* Make sure MT is running */
     1218     2361    1           IF TPUR_FLG='1'B THEN CALL MTINIT ALTRET(NOMT);
     1219     2362    1             ELSE;
     1220     2363    1           GOTO DCI;
     1221     2364    1   URDONE:
     1222     2365    1           UR_FW.FW_INDX=I;
     1223     2366    1   DP_NEXT:
     1224     2367    1           RCV_FLG=ORDBFLG;
     1225     2368    1           IF ORDBFLG~='0'B THEN GOTO DCI;
     1226     2369    1             ELSE;
     1227     2370        /* Load VFC and train image to printers */
     1228     2371    2           DO I=%FRSTLP TO %(FRSTCR-1);
     1229     2372    2             IF NOT RPM_FLG OR CHN_CFG( DEVINFO.IOM#(I) *128 + DEVINFO.CHN#(I)) THEN
     1230     2373    2               CALL LPINIT(I);
     1231     2374    2               ELSE
     1232     2375    2               DEVINFO.BITS(I) = '1'B;
     1233     2376    2           END;                            /* DO I=                              */
     1234     2377    1   DCI:
     1235     2378    1           IF SYS_DPX~=0 THEN GOTO DCI1;   /* We already know system disk addr   */
     1236     2379    1             ELSE;
     1237     2380    1           IF ADPXF.D='1'B THEN CALL GT_SYSPACKAD(%FRSTDP); /* Get sys pack addr */
     1238     2381    1             ELSE;
     1239     2382    1           SYS_DPX=%FRSTDP;
     1240     2383    1   DCI1:
     1241     2384    2           IF RPM_FLG THEN DO;
     1242     2385    2                 TEMP_IMX = DEVINFO.IOM#(SYS_DPX);
     1243     2386    3                 CALL DO_RPM_CFG(TEMP_IMX) WHENRETURN DO;
     1244     2387    3                       HW_LD_FLAG.DISK_FW = FW_LOAD(DEVINFO.IOM#(SYS_DPX)*128 +DEVINFO.
              2387                                CHN#(SYS_DPX));
PL6.E3A0      #010=FIX_FIRM File=ISI$ROUT.:E05TSI                                TUE 07/29/97 22:57 Page:207
     1245     2388    3                     END;
     1246     2389    2               END;
     1247     2390    1           IF ~HW_LD_FLAG.DISK_FW THEN
     1248     2391    1             GOTO DCDONE1;
     1249     2392    2           DO I=0 TO DISK_FW.FWM#-1;
     1250     2393    3             CALL FWRXX(DISK_FW.MODN(I)) WHENRETURN DO; /* Look for this firmware */
     1251     2394    3                   CALL BUILDFW_DCWS(DCCSOD1,DCMMOD1);
     1252     2395    3                   CALL DCINIT ALTRET(NXT_DCFW);
     1253     2396    3                   GOTO DCDONE;
     1254     2397    3                 END;                      /* WHENRETURN                         */
     1255     2398    2   NXT_DCFW:
     1256     2399    2           END;                            /* DO I=                              */
     1257     2400    1   NODCFW:
     1258     2401    1           MESSAGE$=ADDR(NOFWRM);
     1259     2402    1           SUBSTR(TEXTM.TXT,47,4)='DISK';
     1260     2403    1           CALL TYPEC(NOFWRM);
     1261     2404    1           GOTO ERPO1;
     1262     2405    1   DCDONE:
     1263     2406    1           DISK_FW.FW_INDX=I;
     1264     2407    1   DCDONE1:
     1265     2408    1           DCFWHDR$=FWHDR$;
     1266     2409    1           RETURN;
     1267     2410    1   ERPO:
     1268     2411    1           CALL TYPEC(FWERR);
     1269     2412    1   ERPO1:
     1270     2413    1           CALL TYPEC(POEM);
     1271     2414    1           CALL HANG;
     1272     2415    1           RETURN;
     1273     2416    1   INIT_DISK:ENTRY;
     1274     2417    1           IF S1000_FLG='1'B THEN RETURN;
     1275     2418    1             ELSE GOTO DCI1;
     1276     2419    1   END FIX_FIRM;
     1277     2420        %EOD;

PL6.E3A0      #010=FIX_FIRM File=ISI$ROUT.:E05TSI                                TUE 07/29/97 22:57 Page:208
--  Include file information  --

   IS$MACROS.:E05TOU  is referenced.
      No diagnostics issued in procedure FIX_FIRM.

   Procedure FIX_FIRM requires 633 words for executable code.
   Procedure FIX_FIRM requires 10 words of local(AUTO) storage.

PL6.E3A0      #010=FIX_FIRM File=ISI$ROUT.:E05TSI                                TUE 07/29/97 22:57 Page:209

 Object Unit name= FIX_FIRM                                   File name= ISI$ROUT.:E05TOU
 UTS= JUL 29 '97 22:57:41.40 TUE                              Compiler= PL-6/E31         Sev=      00
 SharedLib= :SHARED_SYSTEM                                    Alt SharedLib=


    ****  Control sections  ****

 Sect   Type Bound  Init  Size OctSiz  Section name(segment info)
    0   Data  even  none    81    121  FIX_FIRM
    1  RoData even  UTS     15     17  FIX_FIRM
    2   Proc  even  none   633   1171  FIX_FIRM
    3  RoData even  none    36     44  FIX_FIRM

    ****  Entry defs  ****

                              Check   Calling
                             calling  sequence
  Sect OctLoc Primary Altret sequence   type   Parms  Name
     2      0   yes            yes      Std        0  FIX_FIRM
     2   1164                  yes      Std        0  INIT_DISK
PL6.E3A0      #010=FIX_FIRM File=ISI$ROUT.:E05TSI                                TUE 07/29/97 22:57 Page:210

  ****  Data defs  ****

 Sect OctLoc  Name                           Sect OctLoc  Name
    0      0  NAVHDR$                            0      1  FW$
    0      2  FWHDR$                             0      4  DCFWSTART_PTR
    0      5  FWSTART_PTR                        0      6  DCFWHDR$
    0      7  TAPE_FW                            0     14  DISK_FW
    0     21  UR_FW                              0     26  LP_FW
    0     31  CRP_FW                             0     34  MTCSOD1
    0     35  MTCSOD2                            0     36  DCCSOD1
    0     37  DCCSOD2                            0     40  URCSOD1
    0     41  URCSOD2                            0     42  MTMMOD1
    0     43  MTMMOD2                            0     44  DCMMOD1
    0     45  DCMMOD2                            0     46  URMMOD1
    0     47  URMMOD2                            0     50  LDFWD
    0     51  CDFWD                              0     52  ACTFWHD#
    0     53  EURC_FLG                           0     54  TPUR_FLG
    0     55  FWTINDX                            0     56  FWERR
    0     67  NOFWRM                             0    105  POEM
    0    113  FWTQ2
PL6.E3A0      #010=FIX_FIRM File=ISI$ROUT.:E05TSI                                TUE 07/29/97 22:57 Page:211

  ****  Entry refs  ****

         Check        Calling
        calling       sequence
Altret sequence SRef   type   Args  Name
 yes     yes           Std       1 LPINIT
         yes           Std       1 GT_SYSPACKAD
 yes     yes           Std       3 POFWR
         yes           Std       1 TYPEC
 yes     yes           Std       1 FWRXX
 yes     yes           Std       2 KEYIN
 yes     yes           Std       2 GETFD
 yes     yes           Std       0 DCINIT
 yes     yes           Std       1 DO_RPM_CFG
         yes           Std       1 IPCW_PL6
         yes           Std       2 BUILDFW_DCWS
 yes     yes           Std       0 MTINIT
         yes           Std       0 HANG
 yes     yes           Std       5 MINIQ_PL6
 yes     yes           Std       1 URINIT
                       nStd      0 X66_AUTO_0
                       Std       0 B_CONSPOOL_D
                       nStd      0 X66_ARET

  ****  Data refs  ****

  Flags:  r = read only, s = secondary
Flgs Name                             Flgs Name                             Flgs Name
     ADIR                                  DEVINFO                               BOOTTAPE
     FW_LOAD                               CHN_CFG                               HW_LD_FLAG
     RPM_FLG                               RPM_BOOTIN                            CP6UL
     URCHN                                 SYS_DPX                               S1000_FLG
     ANSBUF                                MTIDCW                                FIELD$
     FIELD_LEN                             DECIM_FLG                             ORDBFLG
     RCV_FLG                               ADPXF                                 B_VECTNIL
PL6.E3A0      #010=FIX_FIRM File=ISI$ROUT.:E05TSI                                TUE 07/29/97 22:57 Page:212

  ****  Segment refs  ****

  Flags:  r = read only, s = secondary
Flgs Name                             Flgs Name                             Flgs Name
     ISSID
PL6.E3A0      #010=FIX_FIRM File=ISI$ROUT.:E05TSI                                TUE 07/29/97 22:57 Page:213


      882        1        /*T***********************************************************/
      883        2        /*T*                                                         */
      884        3        /*T* Copyright (c) Bull HN Information Systems Inc., 1997    */
      885        4        /*T*                                                         */
      886        5        /*T***********************************************************/
      887        6        FIX_FIRM:PROC;

      6  2 000000   000000 700200 xent  FIX_FIRM     TSX0  ! X66_AUTO_0
         2 000001   000012 000000                    ZERO    10,0

      888        7        %INCLUDE IS$MACROS;
      889     1282    1   DCL IPCW_PL6 ENTRY(1);
      890     1283    1   DCL FWRXX ENTRY(1) ALTRET;
      891     1284    1   DCL BUILDFW_DCWS ENTRY(2);
      892     1285    1   DCL POFWR ENTRY(3) ALTRET;
      893     1286    1   DCL TYPEC ENTRY(1);
      894     1287    1   DCL KEYIN ENTRY(2) ALTRET;
      895     1288    1   DCL GETFD ENTRY(2) ALTRET;
      896     1289    1   DCL HANG ENTRY;
      897     1290    1   DCL MTINIT ENTRY ALTRET;
      898     1291    1   DCL DCINIT ENTRY ALTRET;
      899     1292    1   DCL URINIT ENTRY(1) ALTRET;
      900     1293    1   DCL LPINIT ENTRY(1) ALTRET;
      901     1294    1   DCL MINIQ_PL6 ENTRY(5) ALTRET;
      902     1295    1   DCL GT_SYSPACKAD ENTRY(1);
      903     1296    1   DCL   CLEAR_CACHE ENTRY;
      904     1297    1   DCL   START_IO_RPM ENTRY(2);
      905     1298        /**/
      906     1299        %DISKDIR(NAME=ADIR,STCLASS="SYMREF");
      907     1555    1   DCL NAVHDR$ STATIC SYMDEF PTR;          /* Next available firmware header     */
      908     1556    1   DCL NEWNAVHDR$ PTR;
      909     1557    1   DCL FW$ STATIC SYMDEF PTR INIT(ADDR(CP6UL)); /* Pointer to the firmware buffer */
      910     1558        %PTR_STRUCT(NAME=FW_PTR,STCLASS="REDEF FW$");
      911     1576    1   DCL FWHDR$ PTR STATIC SYMDEF INIT(ADDR(ADIR.FW(0))); /* Pointer to firm header */
      912     1577        %PTR_STRUCT(NAME=FWHDR_PTR,STCLASS="REDEF FWHDR$");
      913     1595    1   DCL NEWFWHDR$ PTR STATIC;
PL6.E3A0      #010=FIX_FIRM File=ISI$ROUT.:E05TSI                                TUE 07/29/97 22:57 Page:214
      914     1596        %PTR_STRUCT(NAME=NEWFWHDR_PTR,STCLASS="REDEF NEWFWHDR$");
      915     1614        %PTR_STRUCT(NAME=DCFWSTART_PTR);        /* Pointer to disk firmware           */
      916     1632    1   DCL DCFWSTART$ REDEF DCFWSTART_PTR PTR;
      917     1633        %PTR_STRUCT(NAME=FWSTART_PTR);          /* Pointer to firmware start          */
      918     1651    1   DCL FWSTART$ REDEF FWSTART_PTR PTR;
      919     1652    1   DCL DCFWHDR$ PTR STATIC SYMDEF;
      920     1653        %FWHDR;                                 /* Description of firmware header     */
      921     1662        %DEVINFO(STCLASS="SYMREF");
      922     1731        /**/
      923     1732        /* Firmware tables */
      924     1733        %FW_TAB(NAME=TAPE_FW,ENT#=3);
      925     1750        %FW_TAB(NAME=DISK_FW,ENT#=3);
      926     1767        %FW_TAB(NAME=UR_FW,ENT#=3);
      927     1784        %FW_TAB(NAME=LP_FW,ENT#=1);
      928     1801        %FW_TAB(NAME=CRP_FW,ENT#=1);
      929     1818        /**/
      930     1819    1   DCL   BOOTTAPE UBIN WORD SYMREF;
      931     1820    1   DCL   FW_LOAD(0:511) BIT(1) UNAL SYMREF;
      932     1821    1   DCL   CHN_CFG(0:511) BIT(1) UNAL SYMREF;
      933     1822    1   DCL 1 HW_LD_FLAG SYMREF,
      934     1823    1         2 CR_FW BIT(1) UNAL,
      935     1824    1         2 DISK_FW BIT(1) UNAL,
      936     1825    1         2 LP_FW BIT(1) UNAL,
      937     1826    1         2 TAPE_FW BIT(1) UNAL,
      938     1827    1         2 * BIT(5) UNAL;
      939     1828    1   DCL   RPM_FLG BIT(1) SYMREF;
      940     1829    1   DCL   DO_RPM_CFG ENTRY(1) ALTRET;
      941     1830    1   DCL 1 RPM_BOOTIN SYMREF,
      942     1831    1         2 * BIT(9),
      943     1832    1         2 CHN# UBIN(9) UNAL,
      944     1833    1         2 * BIT(7),
      945     1834    1         2 IMX# UBIN(2) UNAL,
      946     1835    1         2 * BIT(9);
      947     1836    1   DCL   TEMP_IMX SBIN WORD;
      948     1837    1   DCL CP6UL BIT(1) SYMREF;                /* Top of already used memory         */
      949     1838    1   DCL URCHN UBIN WORD SYMREF;
      950     1839    1   DCL SYS_DPX UBIN WORD SYMREF;           /* System disk index in DEVINFO       */
PL6.E3A0      #010=FIX_FIRM File=ISI$ROUT.:E05TSI                                TUE 07/29/97 22:57 Page:215
      951     1840    1   DCL S1000_FLG BIT(1) SYMREF;
      952     1841    1   DCL 1 ANSBUF SYMREF,
      953     1842    1         2 CNT UBIN WORD,
      954     1843    1         2 TXT UBIN(16);
      955     1844    1   DCL MTIDCW(0:14) BIT(36) ALIGNED SYMREF;
      956     1845    1   DCL FIELD$ PTR SYMREF;
      957     1846    1   DCL FIELD_LEN UBIN WORD SYMREF;
      958     1847    1   DCL FWANS CHAR(2) BASED(FIELD$);
      959     1848    1   DCL DECIM_FLG BIT(1) SYMREF;
      960     1849    1   DCL ORDBFLG BIT(2) SYMREF;
      961     1850    1   DCL RCV_FLG BIT(4) SYMREF;
      962     1851    1   DCL 1 ADPXF SYMREF,
      963     1852    1         2 A BIT(1),
      964     1853    1         2 D BIT(1),
      965     1854    1         2 P BIT(1),
      966     1855    1         2 X BIT(1),
      967     1856    1         2 F BIT(1);
      968     1857        /**/
      969     1858        /* DCWs for firmware writing */
      970     1859        %DCW_STRUCT(NAME=MTCSOD1);              /* MT-MPC CSO DCWs                    */
      971     1877        %DCW_STRUCT(NAME=MTCSOD2);
      972     1895        %DCW_STRUCT(NAME=DCCSOD1);              /* DC-MPC CSO DCWs                    */
      973     1913        %DCW_STRUCT(NAME=DCCSOD2);
      974     1931        %DCW_STRUCT(NAME=URCSOD1);              /* UR-MPC CSO DCWs                    */
      975     1949        %DCW_STRUCT(NAME=URCSOD2);
      976     1967        %DCW_STRUCT(NAME=MTMMOD1);              /* MT-MPC MMO DCWs                    */
      977     1985        %DCW_STRUCT(NAME=MTMMOD2);
      978     2003        %DCW_STRUCT(NAME=DCMMOD1);              /* DC-MPC MMO DCWs                    */
      979     2021        %DCW_STRUCT(NAME=DCMMOD2);
      980     2039        %DCW_STRUCT(NAME=URMMOD1);              /* UR-MPC MMO DCWs                    */
      981     2057        %DCW_STRUCT(NAME=URMMOD2);
      982     2075        %DCW_STRUCT(NAME=LDFWD);                /* PTR400 DCW                         */
      983     2093        %DCW_STRUCT(NAME=CDFWD);                /* CR/CP DCW                          */
      984     2111        /**/
      985     2112    1   DCL ACTFWHD# STATIC SYMDEF UBIN WORD INIT(0); /*Nr of used firmware headers   */
      986     2113    1   DCL EURC_FLG BIT(1) STATIC SYMDEF INIT('0'B);
      987     2114    1   DCL TPUR_FLG BIT(1) STATIC SYMDEF INIT('0'B);
PL6.E3A0      #010=FIX_FIRM File=ISI$ROUT.:E05TSI                                TUE 07/29/97 22:57 Page:216
      988     2115    1   DCL POFWHD# UBIN WORD;                  /* Nr of headers read from PO tape    */
      989     2116    1   DCL I UBIN WORD;
      990     2117    1   DCL FWTINDX UBIN WORD STATIC SYMDEF INIT(0); /* Index in DEVINFO of FW tape   */
      991     2118        /* Texts */
      992     2119        %TEXTC(N#=FWERR,M#="' Tape error reading firmware.'");
      993     2124        %TEXTC(N#=NOFWRM,M#="' Cannot initialize MPC or cannot find firmware XXXX '");
      994     2129        %TEXTC(N#=POEM,M#="'PO boot aborted...'");
      995     2134        %TEXTC(N#=FWTQ2,M#="' FW Tape = X-XXX-'");
      996     2139    1   DCL MESSAGE$ PTR;
      997     2140    1   DCL 1 TEXTM BASED(MESSAGE$),
      998     2141    1         2 CNT UBIN WORD,
      999     2142    1         2 TXT CHAR(TEXTM.CNT);
     1000     2143        /**/
     1001     2144    1           ADIR.FW='0'B;                   /* Zap FW headers                     */

   2144  2 000002   000000 100400                    MLR     fill='000'O
         2 000003   000002 000001 xsym               ADSC9   B_VECTNIL+2              cn=0,n=1
         2 000004   000240 000500 xsym               ADSC9   ADIR+160                 cn=0,n=320

     1002     2145    2           IF S1000_FLG='1'B THEN DO; /* On S1000 the firmware is already loaded */

   2145  2 000005   000000 234000 xsym               SZN     S1000_FLG
         2 000006   000053 605000 2                  TPL     s:2167

     1003     2146        /* Load VFC and train image to printers */
     1004     2147    3                 DO I=%FRSTLP TO %(FRSTCR-1);

   2147  2 000007   000001 235007                    LDA     1,DL
         2 000010   200006 755100                    STA     I,,AUTO

     1005     2148    3                   CALL LPINIT(I);

   2148  2 000011   200006 630500                    EPPR0   I,,AUTO
         2 000012   200010 450500                    STP0    MESSAGE$+1,,AUTO
         2 000013   200010 630500                    EPPR0   MESSAGE$+1,,AUTO
         2 000014   000017 631400 xsym               EPPR1   B_VECTNIL+15
         2 000015   000000 701000 xent               TSX1    LPINIT
PL6.E3A0      #010=FIX_FIRM File=ISI$ROUT.:E05TSI                                TUE 07/29/97 22:57 Page:217
         2 000016   000000 011000                    NOP     0

     1006     2149    3                 END;                      /* DO I=                              */

   2149  2 000017   200006 235100                    LDA     I,,AUTO
         2 000020   000001 035007                    ADLA    1,DL
         2 000021   200006 755100                    STA     I,,AUTO
         2 000022   000002 115007                    CMPA    2,DL
         2 000023   000011 602000 2                  TNC     s:2148

     1007     2150    2   DCIS:
     1008     2151    2                 IF SYS_DPX~=0 THEN GOTO DCIS1; /* We already know system disk addr */

   2151  2 000024   000000 236000 xsym  DCIS         LDQ     SYS_DPX
         2 000025   000037 601000 2                  TNZ     DCIS1

     1009     2152    2                   ELSE;
     1010     2153    2                 IF ADPXF.D='1'B THEN CALL GT_SYSPACKAD(%FRSTDP);
              2153                          /* Get sys pack addr */

   2153  2 000026   000000 236000 xsym               LDQ     ADPXF
         2 000027   200000 316003                    CANQ    65536,DU
         2 000030   000035 600000 2                  TZE     s:2155

   2153  2 000031   000001 630400 3                  EPPR0   1
         2 000032   000017 631400 xsym               EPPR1   B_VECTNIL+15
         2 000033   000000 701000 xent               TSX1    GT_SYSPACKAD
         2 000034   000000 011000                    NOP     0

     1011     2154    2                   ELSE;
     1012     2155    2                 SYS_DPX=%FRSTDP;

   2155  2 000035   000024 235007                    LDA     20,DL
         2 000036   000000 755000 xsym               STA     SYS_DPX

     1013     2156    2   DCIS1:
     1014     2157        /* Over top of already used memory , allow 1 page for PTCHBF,
PL6.E3A0      #010=FIX_FIRM File=ISI$ROUT.:E05TSI                                TUE 07/29/97 22:57 Page:218
     1015     2158           next page,page boundary */
     1016     2159    2                 FW$=ADDR(CP6UL);

   2159  2 000037   000002 236000 3     DCIS1        LDQ     2
         2 000040   000001 756000 0                  STQ     FW$

     1017     2160    2                 FW_PTR.WOFFS=(FW_PTR.WOFFS+2048)/1024*1024;

   2160  2 000041   000001 236000 0                  LDQ     FW$
         2 000042   000022 772000                    QRL     18
         2 000043   004000 036007                    ADLQ    2048,DL
         2 000044   000012 772000                    QRL     10
         2 000045   000012 736000                    QLS     10
         2 000046   000000 620006                    EAX0    0,QL
         2 000047   000001 740000 0                  STX0    FW$

     1018     2161    2                 FWSTART$=FW$;

   2161  2 000050   000001 236000 0                  LDQ     FW$
         2 000051   000005 756000 0                  STQ     FWSTART_PTR

     1019     2162    2                 RETURN;

   2162  2 000052   000000 702200 xent               TSX2  ! X66_ARET

     1020     2163    2               END;                        /* THEN                               */
     1021     2164    1             ELSE;
     1022     2165        /**/
     1023     2166        /* build CP6-RPM config tables from RPM - MCA config data */
     1024     2167    2           IF RPM_FLG THEN DO;

   2167  2 000053   000000 234000 xsym               SZN     RPM_FLG
         2 000054   000123 605000 2                  TPL     s:2177

     1025     2168    2                 TEMP_IMX = RPM_BOOTIN.IMX#;

   2168  2 000055   000000 236000 xsym               LDQ     RPM_BOOTIN
PL6.E3A0      #010=FIX_FIRM File=ISI$ROUT.:E05TSI                                TUE 07/29/97 22:57 Page:219
         2 000056   000011 772000                    QRL     9
         2 000057   000003 376007                    ANQ     3,DL
         2 000060   200004 756100                    STQ     TEMP_IMX,,AUTO

     1026     2169    3                 CALL DO_RPM_CFG(TEMP_IMX) WHENRETURN DO;

   2169  2 000061   200004 630500                    EPPR0   TEMP_IMX,,AUTO
         2 000062   200010 450500                    STP0    MESSAGE$+1,,AUTO
         2 000063   200010 630500                    EPPR0   MESSAGE$+1,,AUTO
         2 000064   000017 631400 xsym               EPPR1   B_VECTNIL+15
         2 000065   000000 701000 xent               TSX1    DO_RPM_CFG
         2 000066   000123 702000 2                  TSX2    s:2177

     1027     2170    3                       HW_LD_FLAG.CR_FW = '0'B;

   2170  2 000067   000031 236000 xsym               LDQ     B_VECTNIL+25
         2 000070   000000 356000 xsym               ANSQ    HW_LD_FLAG

     1028     2171    3                       HW_LD_FLAG.LP_FW = '0'B;

   2171  2 000071   000003 236000 3                  LDQ     3
         2 000072   000000 356000 xsym               ANSQ    HW_LD_FLAG

     1029     2172    3                      HW_LD_FLAG.TAPE_FW = FW_LOAD(DEVINFO.IOM#(BOOTTAPE)*128 +DEVINFO
              2172                                .CHN#(BOOTTAPE));

   2172  2 000073   000000 236000 xsym               LDQ     BOOTTAPE
         2 000074   000014 402007                    MPY     12,DL
         2 000075   000000 236006 xsym               LDQ     DEVINFO,QL
         2 000076   000033 772000                    QRL     27
         2 000077   200010 756100                    STQ     MESSAGE$+1,,AUTO
         2 000100   000000 236000 xsym               LDQ     BOOTTAPE
         2 000101   000014 402007                    MPY     12,DL
         2 000102   000000 236006 xsym               LDQ     DEVINFO,QL
         2 000103   000014 772000                    QRL     12
         2 000104   000600 376007                    ANQ     384,DL
         2 000105   200010 036100                    ADLQ    MESSAGE$+1,,AUTO
PL6.E3A0      #010=FIX_FIRM File=ISI$ROUT.:E05TSI                                TUE 07/29/97 22:57 Page:220
         2 000106   003000 060406                    CSL     bolr='003'O
         2 000107   000000 000001 xsym               BDSC    FW_LOAD,Q                by=0,bit=0,n=1
         2 000110   000000 030001 xsym               BDSC    HW_LD_FLAG               by=0,bit=3,n=1

     1030     2173    3                      HW_LD_FLAG.DISK_FW = FW_LOAD(DEVINFO.IOM#(%FRSTDP)*128 +DEVINFO.
              2173                                CHN#(%FRSTDP));

   2173  2 000111   000360 236000 xsym               LDQ     DEVINFO+240
         2 000112   000033 772000                    QRL     27
         2 000113   200010 756100                    STQ     MESSAGE$+1,,AUTO
         2 000114   000360 236000 xsym               LDQ     DEVINFO+240
         2 000115   000014 772000                    QRL     12
         2 000116   000600 376007                    ANQ     384,DL
         2 000117   200010 036100                    ADLQ    MESSAGE$+1,,AUTO
         2 000120   003000 060406                    CSL     bolr='003'O
         2 000121   000000 000001 xsym               BDSC    FW_LOAD,Q                by=0,bit=0,n=1
         2 000122   000000 010001 xsym               BDSC    HW_LD_FLAG               by=0,bit=1,n=1

     1031     2174    3                     END;

     1032     2175    2               END;

     1033     2176        /* Initialize firmware tables */
     1034     2177    1           TAPE_FW.MODN(0)=%TPFWNM;

   2177  2 000123   000000 236000 1                  LDQ     0
         2 000124   000011 756000 0                  STQ     TAPE_FW+2

     1035     2178    1           TAPE_FW.MODN(1)=%TPFWN2;

   2178  2 000125   000001 236000 1                  LDQ     1
         2 000126   000012 756000 0                  STQ     TAPE_FW+3

     1036     2179    1           TAPE_FW.MODN(2)=%TPFWN3;

   2179  2 000127   000002 236000 1                  LDQ     2
         2 000130   000013 756000 0                  STQ     TAPE_FW+4
PL6.E3A0      #010=FIX_FIRM File=ISI$ROUT.:E05TSI                                TUE 07/29/97 22:57 Page:221

     1037     2180        /**/
     1038     2181    1           DISK_FW.MODN(0)=%DCFWNM;

   2181  2 000131   000003 236000 1                  LDQ     3
         2 000132   000016 756000 0                  STQ     DISK_FW+2

     1039     2182    1           DISK_FW.MODN(1)=%DCFWN2;

   2182  2 000133   000004 236000 1                  LDQ     4
         2 000134   000017 756000 0                  STQ     DISK_FW+3

     1040     2183    1           DISK_FW.MODN(2)=%DCFWN3;

   2183  2 000135   000005 236000 1                  LDQ     5
         2 000136   000020 756000 0                  STQ     DISK_FW+4

     1041     2184        /**/
     1042     2185    1           UR_FW.MODN(0)=%URFWN3;

   2185  2 000137   000006 236000 1                  LDQ     6
         2 000140   000023 756000 0                  STQ     UR_FW+2

     1043     2186    1           UR_FW.MODN(1)=%URFWNM;

   2186  2 000141   000007 236000 1                  LDQ     7
         2 000142   000024 756000 0                  STQ     UR_FW+3

     1044     2187    1           UR_FW.MODN(2)=%URFWN2;

   2187  2 000143   000010 236000 1                  LDQ     8
         2 000144   000025 756000 0                  STQ     UR_FW+4

     1045     2188        /**/
     1046     2189    1           LP_FW.MODN(0)=%LPFWNM;

   2189  2 000145   000011 236000 1                  LDQ     9
PL6.E3A0      #010=FIX_FIRM File=ISI$ROUT.:E05TSI                                TUE 07/29/97 22:57 Page:222
         2 000146   000030 756000 0                  STQ     LP_FW+2

     1047     2190        /**/
     1048     2191    1           CRP_FW.MODN(0)=%CRPFWNM;

   2191  2 000147   000012 236000 1                  LDQ     10
         2 000150   000033 756000 0                  STQ     CRP_FW+2

     1049     2192        /**/
     1050     2193    1           IF HW_LD_FLAG.TAPE_FW THEN

   2193  2 000151   000000 236000 xsym               LDQ     HW_LD_FLAG
         2 000152   040000 316003                    CANQ    16384,DU
         2 000153   000160 600000 2                  TZE     s:2197

     1051     2194    1             CALL IPCW_PL6(%FRSTMT);  /* Initialize MT-MPC for primitive read    */

   2194  2 000154   000004 630400 3                  EPPR0   4
         2 000155   000017 631400 xsym               EPPR1   B_VECTNIL+15
         2 000156   000000 701000 xent               TSX1    IPCW_PL6
         2 000157   000000 011000                    NOP     0

     1052     2195        /* Over top of already used memory , allow 1 page for PTCHBF,
     1053     2196           next page,page boundary, and allow space for NI$FW header */
     1054     2197    1           DCFWSTART$=ADDR(CP6UL);

   2197  2 000160   000002 236000 3                  LDQ     2
         2 000161   000004 756000 0                  STQ     DCFWSTART_PTR

     1055     2198    1           DCFWSTART_PTR.WOFFS=(DCFWSTART_PTR.WOFFS+2048)/1024*1024+%NIFWHDR;

   2198  2 000162   000004 236000 0                  LDQ     DCFWSTART_PTR
         2 000163   000022 772000                    QRL     18
         2 000164   004000 036007                    ADLQ    2048,DL
         2 000165   000012 772000                    QRL     10
         2 000166   000012 736000                    QLS     10
         2 000167   000013 620006                    EAX0    11,QL
PL6.E3A0      #010=FIX_FIRM File=ISI$ROUT.:E05TSI                                TUE 07/29/97 22:57 Page:223
         2 000170   000004 740000 0                  STX0    DCFWSTART_PTR

     1056     2199        /* Make room for system disk firmware */
     1057     2200    1           FWSTART_PTR.WOFFS=(DCFWSTART_PTR.WOFFS+%(MAXDCFW-NIFWHDR+1023))/1024*1024;

   2200  2 000171   000004 236000 0                  LDQ     DCFWSTART_PTR
         2 000172   000022 772000                    QRL     18
         2 000173   025764 036007                    ADLQ    11252,DL
         2 000174   000012 772000                    QRL     10
         2 000175   000012 736000                    QLS     10
         2 000176   000000 621006                    EAX1    0,QL
         2 000177   000005 741000 0                  STX1    FWSTART_PTR

     1058     2201    1           FW$=FWSTART$;

   2201  2 000200   000005 236000 0                  LDQ     FWSTART_PTR
         2 000201   000001 756000 0                  STQ     FW$

     1059     2202        /* Read firmware from PO tape */
     1060     2203    1           IF HW_LD_FLAG.TAPE_FW THEN

   2203  2 000202   000000 236000 xsym               LDQ     HW_LD_FLAG
         2 000203   040000 316003                    CANQ    16384,DU
         2 000204   000212 600000 2                  TZE     s:2206

     1061     2204    1             CALL POFWR(BOOTTAPE,'0'B,'0'B) ALTRET(ERPO);

   2204  2 000205   000005 630400 3                  EPPR0   5
         2 000206   000021 631400 xsym               EPPR1   B_VECTNIL+17
         2 000207   000000 701000 xent               TSX1    POFWR
         2 000210   001150 702000 2                  TSX2    ERPO
         2 000211   000216 710000 2                  TRA     s:2207

     1062     2205    1             ELSE
     1063     2206    1             CALL POFWR(BOOTTAPE,'1'B,'0'B) ALTRET(ERPO);

   2206  2 000212   000010 630400 3                  EPPR0   8
PL6.E3A0      #010=FIX_FIRM File=ISI$ROUT.:E05TSI                                TUE 07/29/97 22:57 Page:224
         2 000213   000021 631400 xsym               EPPR1   B_VECTNIL+17
         2 000214   000000 701000 xent               TSX1    POFWR
         2 000215   001150 702000 2                  TSX2    ERPO

     1064     2207    1           NAVHDR$=FWHDR$;                 /* Save next available header address */

   2207  2 000216   000002 236000 0                  LDQ     FWHDR$
         2 000217   000000 756000 0                  STQ     NAVHDR$

     1065     2208    1           POFWHD#=ACTFWHD#;               /* And nr of headers from PO tape     */

   2208  2 000220   000052 235000 0                  LDA     ACTFWHD#
         2 000221   200005 755100                    STA     POFWHD#,,AUTO

     1066     2209    1           NEWNAVHDR$=NAVHDR$;

   2209  2 000222   200003 756100                    STQ     NEWNAVHDR$,,AUTO

     1067     2210        /* Build tape firmware table and initialize MT controller */
     1068     2211    1           IF ~HW_LD_FLAG.TAPE_FW THEN

   2211  2 000223   000000 236000 xsym               LDQ     HW_LD_FLAG
         2 000224   000003 736000                    QLS     3
         2 000225   400000 376003                    ANQ     -131072,DU
         2 000226   400000 676003                    ERQ     -131072,DU
         2 000227   000303 601000 2                  TNZ     SKIP_FW_TAPE_LOAD

     1069     2212    1             GOTO SKIP_FW_TAPE_LOAD;
     1070     2213    2           DO I=0 TO TAPE_FW.FWM#-1;

   2213  2 000230   200006 450100                    STZ     I,,AUTO
         2 000231   000254 710000 2                  TRA     NXT_TFW+3

     1071     2214    3             CALL FWRXX(TAPE_FW.MODN(I)) WHENRETURN DO; /* Look for this firmware */

   2214  2 000232   200006 720100                    LXL0    I,,AUTO
         2 000233   000011 630410 0                  EPPR0   TAPE_FW+2,X0
PL6.E3A0      #010=FIX_FIRM File=ISI$ROUT.:E05TSI                                TUE 07/29/97 22:57 Page:225
         2 000234   200010 450500                    STP0    MESSAGE$+1,,AUTO
         2 000235   200010 630500                    EPPR0   MESSAGE$+1,,AUTO
         2 000236   000017 631400 xsym               EPPR1   B_VECTNIL+15
         2 000237   000000 701000 xent               TSX1    FWRXX
         2 000240   000251 702000 2                  TSX2    NXT_TFW

     1072     2215    3                   CALL BUILDFW_DCWS(MTCSOD1,MTMMOD1);

   2215  2 000241   000013 630400 3                  EPPR0   11
         2 000242   000020 631400 xsym               EPPR1   B_VECTNIL+16
         2 000243   000000 701000 xent               TSX1    BUILDFW_DCWS
         2 000244   000000 011000                    NOP     0

     1073     2216    3                   CALL MTINIT ALTRET(NXT_TFW);

   2216  2 000245   000002 631400 xsym               EPPR1   B_VECTNIL+2
         2 000246   000000 701000 xent               TSX1    MTINIT
         2 000247   000251 702000 2                  TSX2    NXT_TFW

     1074     2217    3                   GOTO MTDONE;
              2217                            /* Found one firmware module that initialized the controller */

   2217  2 000250   000273 710000 2                  TRA     MTDONE

     1075     2218    3                 END;                      /* WHENRETURN                         */
     1076     2219    2   NXT_TFW:
     1077     2220    2           END;                            /* DO I =                             */

   2220  2 000251   200006 235100       NXT_TFW      LDA     I,,AUTO
         2 000252   000001 035007                    ADLA    1,DL
         2 000253   200006 755100                    STA     I,,AUTO
         2 000254   200006 236100                    LDQ     I,,AUTO
         2 000255   000007 116000 0                  CMPQ    TAPE_FW
         2 000256   000232 602000 2                  TNC     s:2214

     1078     2221    1   NOMT:
     1079     2222        /* Couldn't initialize MT ; tell them and hang */
PL6.E3A0      #010=FIX_FIRM File=ISI$ROUT.:E05TSI                                TUE 07/29/97 22:57 Page:226
     1080     2223    1           MESSAGE$=ADDR(NOFWRM);

   2223  2 000257   000015 236000 3     NOMT         LDQ     13
         2 000260   200007 756100                    STQ     MESSAGE$,,AUTO

     1081     2224    1           SUBSTR(TEXTM.TXT,47,4)='TAPE';

   2224  2 000261   200007 470500                    LDP0    MESSAGE$,,AUTO
         2 000262   000000 720100                    LXL0    0,,PR0
         2 000263   040100 100400                    MLR     fill='040'O
         2 000264   000013 000004 1                  ADSC9   11                       cn=0,n=4
         2 000265   000014 600004                    ADSC9   12,,PR0                  cn=3,n=4

     1082     2225    1           CALL TYPEC(NOFWRM);

   2225  2 000266   000015 630400 3                  EPPR0   13
         2 000267   000017 631400 xsym               EPPR1   B_VECTNIL+15
         2 000270   000000 701000 xent               TSX1    TYPEC
         2 000271   000000 011000                    NOP     0

     1083     2226    1           GOTO ERPO1;

   2226  2 000272   001154 710000 2                  TRA     ERPO1

     1084     2227    1   MTDONE:
     1085     2228    1           IF TAPE_FW.MODN(I)=%TPFWN2 OR TAPE_FW.MODN(I)=%TPFWN3 THEN

   2228  2 000273   200006 720100       MTDONE       LXL0    I,,AUTO
         2 000274   000011 236010 0                  LDQ     TAPE_FW+2,X0
         2 000275   000001 116000 1                  CMPQ    1
         2 000276   000301 600000 2                  TZE     s:2229
         2 000277   000002 116000 1                  CMPQ    2
         2 000300   000303 601000 2                  TNZ     SKIP_FW_TAPE_LOAD

     1086     2229    1             MTIDCW(6)=MTIDCW(7);          /* Set density to 1600                */

   2229  2 000301   000007 236000 xsym               LDQ     MTIDCW+7
PL6.E3A0      #010=FIX_FIRM File=ISI$ROUT.:E05TSI                                TUE 07/29/97 22:57 Page:227
         2 000302   000006 756000 xsym               STQ     MTIDCW+6

     1087     2230        /* See if FW tape requested */
     1088     2231    1   SKIP_FW_TAPE_LOAD:
     1089     2232    1           IF ADPXF.F='0'B THEN

   2232  2 000303   000000 236000 xsym  SKIP_FW_TAP* LDQ     ADPXF
         2 000304   020000 316003                    CANQ    8192,DU
         2 000305   000312 601000 2                  TNZ     s:2239

     1090     2233    1             IF HW_LD_FLAG.TAPE_FW THEN

   2233  2 000306   000000 236000 xsym               LDQ     HW_LD_FLAG
         2 000307   040000 316003                    CANQ    16384,DU
         2 000310   000454 601000 2                  TNZ     NOFWT

     1091     2234    1               GOTO NOFWT;
     1092     2235    1               ELSE
     1093     2236    1               GOTO DO_LP_FW;

   2236  2 000311   000522 710000 2                  TRA     DO_LP_FW

     1094     2237    1             ELSE;
     1095     2238        /* Firmware tape requested,ask for address */
     1096     2239    1           MESSAGE$=ADDR(FWTQ2);

   2239  2 000312   000016 236000 3                  LDQ     14
         2 000313   200007 756100                    STQ     MESSAGE$,,AUTO

     1097     2240    1           SUBSTR(TEXTM.TXT,11,6)=SUBSTR(DEVINFO.DEVNAME(%FRSTMT),0,6);

   2240  2 000314   200007 470500                    LDP0    MESSAGE$,,AUTO
         2 000315   000000 720100                    LXL0    0,,PR0
         2 000316   040100 100400                    MLR     fill='040'O
         2 000317   000052 000006 xsym               ADSC9   DEVINFO+42               cn=0,n=6
         2 000320   000003 600006                    ADSC9   3,,PR0                   cn=3,n=6

PL6.E3A0      #010=FIX_FIRM File=ISI$ROUT.:E05TSI                                TUE 07/29/97 22:57 Page:228
     1098     2241    1   ASKFWT1:
     1099     2242    1           CALL KEYIN(FWTQ2,ANSBUF);

   2242  2 000321   000017 630400 3     ASKFWT1      EPPR0   15
         2 000322   000020 631400 xsym               EPPR1   B_VECTNIL+16
         2 000323   000000 701000 xent               TSX1    KEYIN
         2 000324   000000 011000                    NOP     0

     1100     2243    1           CALL GETFD(ANSBUF.TXT,16) ALTRET(NOFWT);

   2243  2 000325   000022 630400 3                  EPPR0   18
         2 000326   000020 631400 xsym               EPPR1   B_VECTNIL+16
         2 000327   000000 701000 xent               TSX1    GETFD
         2 000330   000454 702000 2                  TSX2    NOFWT

     1101     2244    1           IF FIELD_LEN>2 OR DECIM_FLG='0'B THEN GOTO ASKFWT1; /* Ask again      */

   2244  2 000331   000000 235000 xsym               LDA     FIELD_LEN
         2 000332   000003 115007                    CMPA    3,DL
         2 000333   000321 603000 2                  TRC     ASKFWT1
         2 000334   000000 234000 xsym               SZN     DECIM_FLG
         2 000335   000321 605000 2                  TPL     ASKFWT1

     1102     2245    1             ELSE;
     1103     2246    2           IF FIELD_LEN=1 THEN DO;         /* Make it a 2 digit field            */

   2246  2 000336   000001 115007                    CMPA    1,DL
         2 000337   000350 601000 2                  TNZ     s:2251

     1104     2247    2                 SUBSTR(FWANS,1,1)=SUBSTR(FWANS,0,1);

   2247  2 000340   000000 470400 xsym               LDP0    FIELD$
         2 000341   040100 100500                    MLR     fill='040'O
         2 000342   000000 000001                    ADSC9   0,,PR0                   cn=0,n=1
         2 000343   000000 200001                    ADSC9   0,,PR0                   cn=1,n=1

     1105     2248    2                 SUBSTR(FWANS,0,1)='0';
PL6.E3A0      #010=FIX_FIRM File=ISI$ROUT.:E05TSI                                TUE 07/29/97 22:57 Page:229

   2248  2 000344   000000 470400 xsym               LDP0    FIELD$
         2 000345   040100 100400                    MLR     fill='040'O
         2 000346   000024 000001 3                  ADSC9   20                       cn=0,n=1
         2 000347   000000 000001                    ADSC9   0,,PR0                   cn=0,n=1

     1106     2249    2               END;                        /* THEN                               */

     1107     2250    1             ELSE;
     1108     2251    2           DO I=%FRSTMT TO %FRSTDP-1;

   2251  2 000350   000003 235007                    LDA     3,DL
         2 000351   200006 755100                    STA     I,,AUTO
         2 000352   000365 710000 2                  TRA     s:2254+3

     1109     2252    2             IF SUBSTR(DEVINFO.DEVNAME(I),6,2)=FWANS THEN GOTO DOFWT;

   2252  2 000353   200006 236100                    LDQ     I,,AUTO
         2 000354   000060 402007                    MPY     48,DL
         2 000355   000000 470400 xsym               LDP0    FIELD$
         2 000356   040100 106406                    CMPC    fill='040'O
         2 000357   000007 400002 xsym               ADSC9   DEVINFO+7,Q              cn=2,n=2
         2 000360   000000 000002                    ADSC9   0,,PR0                   cn=0,n=2
         2 000361   000370 600000 2                  TZE     DOFWT

     1110     2253    2               ELSE;
     1111     2254    2           END;                            /* ELSE DO I=                         */

   2254  2 000362   200006 235100                    LDA     I,,AUTO
         2 000363   000001 035007                    ADLA    1,DL
         2 000364   200006 755100                    STA     I,,AUTO
         2 000365   000024 115007                    CMPA    20,DL
         2 000366   000353 602000 2                  TNC     s:2252

     1112     2255    1           GOTO ASKFWT1;                   /* Device not found                   */

   2255  2 000367   000321 710000 2                  TRA     ASKFWT1
PL6.E3A0      #010=FIX_FIRM File=ISI$ROUT.:E05TSI                                TUE 07/29/97 22:57 Page:230

     1113     2256    1   DOFWT:
     1114     2257    1           FWTINDX=I;                      /* Index of FW tape in DEVINFO        */

   2257  2 000370   200006 235100       DOFWT        LDA     I,,AUTO
         2 000371   000055 755000 0                  STA     FWTINDX

     1115     2258        /* Wait a second */
     1116     2259    2           DO I=0 TO 32000;

   2259  2 000372   200006 450100                    STZ     I,,AUTO

     1117     2260    2           END;                            /* DO I=                              */

   2260  2 000373   200006 235100                    LDA     I,,AUTO
         2 000374   000001 035007                    ADLA    1,DL
         2 000375   200006 755100                    STA     I,,AUTO
         2 000376   076401 115007                    CMPA    32001,DL
         2 000377   000373 602000 2                  TNC     s:2260

     1118     2261    1           FWHDR$=NAVHDR$;

   2261  2 000400   000000 236000 0                  LDQ     NAVHDR$
         2 000401   000002 756000 0                  STQ     FWHDR$

     1119     2262    1           CALL POFWR(FWTINDX,'1'B,'1'B);

   2262  2 000402   000025 630400 3                  EPPR0   21
         2 000403   000021 631400 xsym               EPPR1   B_VECTNIL+17
         2 000404   000000 701000 xent               TSX1    POFWR
         2 000405   000000 011000                    NOP     0

     1120     2263    1           CALL MINIQ_PL6(FWTINDX,0,0,%FCNUNL); /* Unload the FW tape            */

   2263  2 000406   000030 630400 3                  EPPR0   24
         2 000407   000022 631400 xsym               EPPR1   B_VECTNIL+18
         2 000410   000000 701000 xent               TSX1    MINIQ_PL6
PL6.E3A0      #010=FIX_FIRM File=ISI$ROUT.:E05TSI                                TUE 07/29/97 22:57 Page:231
         2 000411   000000 011000                    NOP     0

     1121     2264    1           NEWFWHDR$=NAVHDR$;

   2264  2 000412   000000 236000 0                  LDQ     NAVHDR$
         2 000413   000003 756000 0                  STQ     NEWFWHDR$

     1122     2265    1           NEWNAVHDR$=FWHDR$;

   2265  2 000414   000002 236000 0                  LDQ     FWHDR$
         2 000415   200003 756100                    STQ     NEWNAVHDR$,,AUTO

     1123     2266        /* See if duplicate modules ; if YES replace the old ones */
     1124     2267    1           IF ACTFWHD#=POFWHD# THEN GOTO NOFWT; /* No modules read from FW tape  */

   2267  2 000416   000052 236000 0                  LDQ     ACTFWHD#
         2 000417   200005 116100                    CMPQ    POFWHD#,,AUTO
         2 000420   000454 600000 2                  TZE     NOFWT

     1125     2268    2             ELSE DO I=POFWHD#+1 TO ACTFWHD#;

   2268  2 000421   200005 235100                    LDA     POFWHD#,,AUTO
         2 000422   000001 035007                    ADLA    1,DL
         2 000423   200006 755100                    STA     I,,AUTO
         2 000424   000451 710000 2                  TRA     s:2274+3

     1126     2269    2                 CALL FWRXX(NEWFWHDR$->FWHDR.FWNAME) ALTRET(NDUP);
              2269                          /* See if module exists in firmware read from PO tape */

   2269  2 000425   000003 236000 0                  LDQ     NEWFWHDR$
         2 000426   000003 036003                    ADLQ    3,DU
         2 000427   200010 756100                    STQ     MESSAGE$+1,,AUTO
         2 000430   200010 630500                    EPPR0   MESSAGE$+1,,AUTO
         2 000431   000017 631400 xsym               EPPR1   B_VECTNIL+15
         2 000432   000000 701000 xent               TSX1    FWRXX
         2 000433   000443 702000 2                  TSX2    NDUP

PL6.E3A0      #010=FIX_FIRM File=ISI$ROUT.:E05TSI                                TUE 07/29/97 22:57 Page:232
     1127     2270    2                 FWHDR=NEWFWHDR$->FWHDR; /* Yes, replace old header with new one */

   2270  2 000434   000003 470400 0                  LDP0    NEWFWHDR$
         2 000435   000002 471400 0                  LDP1    FWHDR$
         2 000436   000100 100500                    MLR     fill='000'O
         2 000437   000000 000020                    ADSC9   0,,PR0                   cn=0,n=16
         2 000440   100000 000020                    ADSC9   0,,PR1                   cn=0,n=16

     1128     2271    2                 NEWFWHDR$->FWHDR.FWNAME='XXXX'; /* and invalidate new header    */

   2271  2 000441   000014 236000 1                  LDQ     12
         2 000442   000003 756100                    STQ     3,,PR0

     1129     2272    2   NDUP:
     1130     2273    2                 NEWFWHDR_PTR.WOFFS=NEWFWHDR_PTR.WOFFS+4; /* Next header         */

   2273  2 000443   000003 220000 0     NDUP         LDX0    NEWFWHDR$
         2 000444   000004 621010                    EAX1    4,X0
         2 000445   000003 741000 0                  STX1    NEWFWHDR$

     1131     2274    2               END;                        /* ELSE DO I=                         */

   2274  2 000446   200006 235100                    LDA     I,,AUTO
         2 000447   000001 035007                    ADLA    1,DL
         2 000450   200006 755100                    STA     I,,AUTO
         2 000451   000052 236000 0                  LDQ     ACTFWHD#
         2 000452   200006 116100                    CMPQ    I,,AUTO
         2 000453   000425 603000 2                  TRC     s:2269

     1132     2275        /* All firmware in memory */
     1133     2276        /* Initialize controllers */
     1134     2277    1   NOFWT:
     1135     2278    1           IF ~HW_LD_FLAG.TAPE_FW THEN

   2278  2 000454   000000 236000 xsym  NOFWT        LDQ     HW_LD_FLAG
         2 000455   000003 736000                    QLS     3
         2 000456   400000 376003                    ANQ     -131072,DU
PL6.E3A0      #010=FIX_FIRM File=ISI$ROUT.:E05TSI                                TUE 07/29/97 22:57 Page:233
         2 000457   400000 676003                    ERQ     -131072,DU
         2 000460   000522 601000 2                  TNZ     DO_LP_FW

     1136     2279    1             GOTO DO_LP_FW;
     1137     2280    1           NAVHDR$=NEWNAVHDR$;

   2280  2 000461   200003 236100                    LDQ     NEWNAVHDR$,,AUTO
         2 000462   000000 756000 0                  STQ     NAVHDR$

     1138     2281        /* Reinitialize MT controller */
     1139     2282    2           DO I=0 TO TAPE_FW.FWM#-1;

   2282  2 000463   200006 450100                    STZ     I,,AUTO
         2 000464   000507 710000 2                  TRA     NXT_TFW1+3

     1140     2283    3             CALL FWRXX(TAPE_FW.MODN(I)) WHENRETURN DO; /* Look for this firmware */

   2283  2 000465   200006 720100                    LXL0    I,,AUTO
         2 000466   000011 630410 0                  EPPR0   TAPE_FW+2,X0
         2 000467   200010 450500                    STP0    MESSAGE$+1,,AUTO
         2 000470   200010 630500                    EPPR0   MESSAGE$+1,,AUTO
         2 000471   000017 631400 xsym               EPPR1   B_VECTNIL+15
         2 000472   000000 701000 xent               TSX1    FWRXX
         2 000473   000504 702000 2                  TSX2    NXT_TFW1

     1141     2284    3                   CALL BUILDFW_DCWS(MTCSOD1,MTMMOD1);

   2284  2 000474   000013 630400 3                  EPPR0   11
         2 000475   000020 631400 xsym               EPPR1   B_VECTNIL+16
         2 000476   000000 701000 xent               TSX1    BUILDFW_DCWS
         2 000477   000000 011000                    NOP     0

     1142     2285    3                   CALL MTINIT ALTRET(NXT_TFW1);

   2285  2 000500   000002 631400 xsym               EPPR1   B_VECTNIL+2
         2 000501   000000 701000 xent               TSX1    MTINIT
         2 000502   000504 702000 2                  TSX2    NXT_TFW1
PL6.E3A0      #010=FIX_FIRM File=ISI$ROUT.:E05TSI                                TUE 07/29/97 22:57 Page:234

     1143     2286    3                   GOTO MTDONE1;
              2286                            /* Found one firmware module that initialized the controller */

   2286  2 000503   000513 710000 2                  TRA     MTDONE1

     1144     2287    3                 END;                      /* WHENRETURN                         */
     1145     2288    2   NXT_TFW1:
     1146     2289    2           END;                            /* DO I =                             */

   2289  2 000504   200006 235100       NXT_TFW1     LDA     I,,AUTO
         2 000505   000001 035007                    ADLA    1,DL
         2 000506   200006 755100                    STA     I,,AUTO
         2 000507   200006 236100                    LDQ     I,,AUTO
         2 000510   000007 116000 0                  CMPQ    TAPE_FW
         2 000511   000465 602000 2                  TNC     s:2283

     1147     2290    1           GOTO NOMT;

   2290  2 000512   000257 710000 2                  TRA     NOMT

     1148     2291    1   MTDONE1:
     1149     2292    1           TAPE_FW.FW_INDX=I;

   2292  2 000513   200006 235100       MTDONE1      LDA     I,,AUTO
         2 000514   000010 755000 0                  STA     TAPE_FW+1

     1150     2293    1           IF TAPE_FW.MODN(I)='TPUR' THEN TPUR_FLG='1'B;

   2293  2 000515   000011 236005 0                  LDQ     TAPE_FW+2,AL
         2 000516   000002 116000 1                  CMPQ    2
         2 000517   000522 601000 2                  TNZ     DO_LP_FW

   2293  2 000520   400000 236003                    LDQ     -131072,DU
         2 000521   000054 756000 0                  STQ     TPUR_FLG

     1151     2294    1             ELSE;
PL6.E3A0      #010=FIX_FIRM File=ISI$ROUT.:E05TSI                                TUE 07/29/97 22:57 Page:235
     1152     2295        /* Initialize UR controller */
     1153     2296    1   DO_LP_FW:
     1154     2297    1           IF ~HW_LD_FLAG.LP_FW THEN

   2297  2 000522   000000 236000 xsym  DO_LP_FW     LDQ     HW_LD_FLAG
         2 000523   000002 736000                    QLS     2
         2 000524   400000 376003                    ANQ     -131072,DU
         2 000525   400000 676003                    ERQ     -131072,DU
         2 000526   000534 600000 2                  TZE     s:2301

     1155     2298    1             IF ~HW_LD_FLAG.CR_FW THEN

   2298  2 000527   000000 236000 xsym               LDQ     HW_LD_FLAG
         2 000530   400000 376003                    ANQ     -131072,DU
         2 000531   400000 676003                    ERQ     -131072,DU
         2 000532   000752 601000 2                  TNZ     DP_NEXT

     1156     2299    1               GOTO DP_NEXT;
     1157     2300    1               ELSE GOTO LPDONE1;

   2300  2 000533   000574 710000 2                  TRA     LPDONE1

     1158     2301    2           DO I=0 TO LP_FW.FWM#-1;         /* Look for LP application firmware   */

   2301  2 000534   200006 450100                    STZ     I,,AUTO
         2 000535   000557 710000 2                  TRA     s:2307+3

     1159     2302    3             CALL FWRXX(LP_FW.MODN(I)) WHENRETURN DO;

   2302  2 000536   200006 720100                    LXL0    I,,AUTO
         2 000537   000030 630410 0                  EPPR0   LP_FW+2,X0
         2 000540   200010 450500                    STP0    MESSAGE$+1,,AUTO
         2 000541   200010 630500                    EPPR0   MESSAGE$+1,,AUTO
         2 000542   000017 631400 xsym               EPPR1   B_VECTNIL+15
         2 000543   000000 701000 xent               TSX1    FWRXX
         2 000544   000554 702000 2                  TSX2    s:2307

PL6.E3A0      #010=FIX_FIRM File=ISI$ROUT.:E05TSI                                TUE 07/29/97 22:57 Page:236
     1160     2303    3                   LDFWD.AD=FWHDR.BUFAD;

   2303  2 000545   000002 470400 0                  LDP0    FWHDR$
         2 000546   000000 720100                    LXL0    0,,PR0
         2 000547   000050 740000 0                  STX0    LDFWD

     1161     2304    3                   LDFWD.TALLY=FWHDR.CSOSIZE;

   2304  2 000550   000002 236100                    LDQ     2,,PR0
         2 000551   000022 772000                    QRL     18
         2 000552   000050 752003 0                  STCQ    LDFWD,'03'O

     1162     2305    3                   GOTO LPDONE;

   2305  2 000553   000562 710000 2                  TRA     LPDONE

     1163     2306    3                 END;                      /* WHENRETURN                         */
     1164     2307    2           END;                            /* DO I=                              */

   2307  2 000554   200006 235100                    LDA     I,,AUTO
         2 000555   000001 035007                    ADLA    1,DL
         2 000556   200006 755100                    STA     I,,AUTO
         2 000557   200006 236100                    LDQ     I,,AUTO
         2 000560   000026 116000 0                  CMPQ    LP_FW
         2 000561   000536 602000 2                  TNC     s:2302

     1165     2308    1   LPDONE:
     1166     2309    1           LP_FW.FW_INDX=I;

   2309  2 000562   200006 235100       LPDONE       LDA     I,,AUTO
         2 000563   000027 755000 0                  STA     LP_FW+1

     1167     2310    2           IF ~HW_LD_FLAG.CR_FW THEN DO;

   2310  2 000564   000000 236000 xsym               LDQ     HW_LD_FLAG
         2 000565   400000 376003                    ANQ     -131072,DU
         2 000566   400000 676003                    ERQ     -131072,DU
PL6.E3A0      #010=FIX_FIRM File=ISI$ROUT.:E05TSI                                TUE 07/29/97 22:57 Page:237
         2 000567   000574 600000 2                  TZE     LPDONE1

     1168     2311    2                 I = 0;

   2311  2 000570   200006 450100                    STZ     I,,AUTO

     1169     2312    2                 EURC_FLG = '1'B;

   2312  2 000571   400000 236003                    LDQ     -131072,DU
         2 000572   000053 756000 0                  STQ     EURC_FLG

     1170     2313    2                 GOTO TRY_LP1;

   2313  2 000573   000634 710000 2                  TRA     TRY_LP1

     1171     2314    2               END;
     1172     2315    1   LPDONE1:
     1173     2316    2           DO I=0 TO CRP_FW.FWM#-1;   /* Look for CR CP application firmware     */

   2316  2 000574   200006 450100       LPDONE1      STZ     I,,AUTO
         2 000575   000617 710000 2                  TRA     s:2322+3

     1174     2317    3             CALL FWRXX(CRP_FW.MODN(I)) WHENRETURN DO;

   2317  2 000576   200006 720100                    LXL0    I,,AUTO
         2 000577   000033 630410 0                  EPPR0   CRP_FW+2,X0
         2 000600   200010 450500                    STP0    MESSAGE$+1,,AUTO
         2 000601   200010 630500                    EPPR0   MESSAGE$+1,,AUTO
         2 000602   000017 631400 xsym               EPPR1   B_VECTNIL+15
         2 000603   000000 701000 xent               TSX1    FWRXX
         2 000604   000614 702000 2                  TSX2    s:2322

     1175     2318    3                   CDFWD.AD=FWHDR.BUFAD;

   2318  2 000605   000002 470400 0                  LDP0    FWHDR$
         2 000606   000000 720100                    LXL0    0,,PR0
         2 000607   000051 740000 0                  STX0    CDFWD
PL6.E3A0      #010=FIX_FIRM File=ISI$ROUT.:E05TSI                                TUE 07/29/97 22:57 Page:238

     1176     2319    3                   CDFWD.TALLY=FWHDR.CSOSIZE;

   2319  2 000610   000002 236100                    LDQ     2,,PR0
         2 000611   000022 772000                    QRL     18
         2 000612   000051 752003 0                  STCQ    CDFWD,'03'O

     1177     2320    3                   GOTO CRDONE;

   2320  2 000613   000622 710000 2                  TRA     CRDONE

     1178     2321    3                 END;                      /* WHENRETURN                         */
     1179     2322    2           END;                            /* DO I=                              */

   2322  2 000614   200006 235100                    LDA     I,,AUTO
         2 000615   000001 035007                    ADLA    1,DL
         2 000616   200006 755100                    STA     I,,AUTO
         2 000617   200006 236100                    LDQ     I,,AUTO
         2 000620   000031 116000 0                  CMPQ    CRP_FW
         2 000621   000576 602000 2                  TNC     s:2317

     1180     2323    1   CRDONE:
     1181     2324    1           CRP_FW.FW_INDX=I;

   2324  2 000622   200006 235100       CRDONE       LDA     I,,AUTO
         2 000623   000032 755000 0                  STA     CRP_FW+1

     1182     2325        /* Try EURC first */
     1183     2326    1           I=0;

   2326  2 000624   200006 450100                    STZ     I,,AUTO

     1184     2327    1           EURC_FLG='1'B;

   2327  2 000625   400000 236003                    LDQ     -131072,DU
         2 000626   000053 756000 0                  STQ     EURC_FLG

PL6.E3A0      #010=FIX_FIRM File=ISI$ROUT.:E05TSI                                TUE 07/29/97 22:57 Page:239
     1185     2328    1           CALL URINIT(%FRSTCR) ALTRET(TRY_LP1);

   2328  2 000627   000034 630400 3                  EPPR0   28
         2 000630   000017 631400 xsym               EPPR1   B_VECTNIL+15
         2 000631   000000 701000 xent               TSX1    URINIT
         2 000632   000634 702000 2                  TSX2    TRY_LP1

     1186     2329    1           GOTO URDONE;

   2329  2 000633   000750 710000 2                  TRA     URDONE

     1187     2330    1   TRY_LP1:
     1188     2331    1           CALL URINIT(%FRSTLP) ALTRET(OTH_URFW);

   2331  2 000634   000035 630400 3     TRY_LP1      EPPR0   29
         2 000635   000017 631400 xsym               EPPR1   B_VECTNIL+15
         2 000636   000000 701000 xent               TSX1    URINIT
         2 000637   000646 702000 2                  TSX2    OTH_URFW

     1189     2332    1           IF ~HW_LD_FLAG.LP_FW THEN

   2332  2 000640   000000 236000 xsym               LDQ     HW_LD_FLAG
         2 000641   000002 736000                    QLS     2
         2 000642   400000 376003                    ANQ     -131072,DU
         2 000643   400000 676003                    ERQ     -131072,DU
         2 000644   000646 601000 2                  TNZ     OTH_URFW

     1190     2333    1             GOTO OTH_URFW;
     1191     2334    1           GOTO URDONE;

   2334  2 000645   000750 710000 2                  TRA     URDONE

     1192     2335    1   OTH_URFW:
     1193     2336    1           EURC_FLG='0'B;                  /* No EURC , try other firmware       */

   2336  2 000646   000053 450000 0     OTH_URFW     STZ     EURC_FLG

PL6.E3A0      #010=FIX_FIRM File=ISI$ROUT.:E05TSI                                TUE 07/29/97 22:57 Page:240
     1194     2337    2           DO I=1 TO UR_FW.FWM#-1;

   2337  2 000647   000001 235007                    LDA     1,DL
         2 000650   200006 755100                    STA     I,,AUTO
         2 000651   000707 710000 2                  TRA     NXT_UFW+3

     1195     2338    3             CALL FWRXX(UR_FW.MODN(I)) WHENRETURN DO;

   2338  2 000652   200006 720100                    LXL0    I,,AUTO
         2 000653   000023 630410 0                  EPPR0   UR_FW+2,X0
         2 000654   200010 450500                    STP0    MESSAGE$+1,,AUTO
         2 000655   200010 630500                    EPPR0   MESSAGE$+1,,AUTO
         2 000656   000017 631400 xsym               EPPR1   B_VECTNIL+15
         2 000657   000000 701000 xent               TSX1    FWRXX
         2 000660   000704 702000 2                  TSX2    NXT_UFW

     1196     2339    3                   CALL BUILDFW_DCWS(URCSOD1,URMMOD1);

   2339  2 000661   000036 630400 3                  EPPR0   30
         2 000662   000020 631400 xsym               EPPR1   B_VECTNIL+16
         2 000663   000000 701000 xent               TSX1    BUILDFW_DCWS
         2 000664   000000 011000                    NOP     0

     1197     2340    4                   IF HW_LD_FLAG.CR_FW THEN DO;

   2340  2 000665   000000 234000 xsym               SZN     HW_LD_FLAG
         2 000666   000674 605000 2                  TPL     TRY_LP2

     1198     2341    4                         CALL URINIT(%FRSTCR) ALTRET(TRY_LP2);

   2341  2 000667   000034 630400 3                  EPPR0   28
         2 000670   000017 631400 xsym               EPPR1   B_VECTNIL+15
         2 000671   000000 701000 xent               TSX1    URINIT
         2 000672   000674 702000 2                  TSX2    TRY_LP2

     1199     2342    4                         GOTO URDONE;

PL6.E3A0      #010=FIX_FIRM File=ISI$ROUT.:E05TSI                                TUE 07/29/97 22:57 Page:241
   2342  2 000673   000750 710000 2                  TRA     URDONE

     1200     2343    4                       END;
     1201     2344    3   TRY_LP2:
     1202     2345    4                   IF HW_LD_FLAG.LP_FW THEN DO;

   2345  2 000674   000000 236000 xsym  TRY_LP2      LDQ     HW_LD_FLAG
         2 000675   100000 316003                    CANQ    32768,DU
         2 000676   000704 600000 2                  TZE     NXT_UFW

     1203     2346    4                         CALL URINIT(%FRSTLP) ALTRET(NXT_UFW);

   2346  2 000677   000035 630400 3                  EPPR0   29
         2 000700   000017 631400 xsym               EPPR1   B_VECTNIL+15
         2 000701   000000 701000 xent               TSX1    URINIT
         2 000702   000704 702000 2                  TSX2    NXT_UFW

     1204     2347    4                         GOTO URDONE;

   2347  2 000703   000750 710000 2                  TRA     URDONE

     1205     2348    4                       END;
     1206     2349    3                 END;                      /* WHENRETURN                         */
     1207     2350    2   NXT_UFW:
     1208     2351    2           END;                            /* DO I=                              */

   2351  2 000704   200006 235100       NXT_UFW      LDA     I,,AUTO
         2 000705   000001 035007                    ADLA    1,DL
         2 000706   200006 755100                    STA     I,,AUTO
         2 000707   200006 236100                    LDQ     I,,AUTO
         2 000710   000021 116000 0                  CMPQ    UR_FW
         2 000711   000652 602000 2                  TNC     s:2338

     1209     2352        /* Couldn't initialize UR controller */
     1210     2353    2           DO I=%FRSTLP TO %(FRSTMT-1);    /* Mark UR devices down               */

   2353  2 000712   000001 235007                    LDA     1,DL
PL6.E3A0      #010=FIX_FIRM File=ISI$ROUT.:E05TSI                                TUE 07/29/97 22:57 Page:242
         2 000713   200006 755100                    STA     I,,AUTO

     1211     2354    2             DEVINFO.BITS(I)='1'B;

   2354  2 000714   200006 236100                    LDQ     I,,AUTO
         2 000715   000014 402007                    MPY     12,DL
         2 000716   000000 620006                    EAX0    0,QL
         2 000717   400000 236003                    LDQ     -131072,DU
         2 000720   000001 756010 xsym               STQ     DEVINFO+1,X0

     1212     2355    2           END;                            /* DO I=                              */

   2355  2 000721   200006 235100                    LDA     I,,AUTO
         2 000722   000001 035007                    ADLA    1,DL
         2 000723   200006 755100                    STA     I,,AUTO
         2 000724   000003 115007                    CMPA    3,DL
         2 000725   000714 602000 2                  TNC     s:2354

     1213     2356    1           URCHN=0;                        /*For TIGR                            */

   2356  2 000726   000000 450000 xsym               STZ     URCHN

     1214     2357    1           MESSAGE$=ADDR(NOFWRM);

   2357  2 000727   000015 236000 3                  LDQ     13
         2 000730   200007 756100                    STQ     MESSAGE$,,AUTO

     1215     2358    1           SUBSTR(TEXTM.TXT,47,4)=' UR ';

   2358  2 000731   200007 470500                    LDP0    MESSAGE$,,AUTO
         2 000732   000000 720100                    LXL0    0,,PR0
         2 000733   040100 100400                    MLR     fill='040'O
         2 000734   000015 000004 1                  ADSC9   13                       cn=0,n=4
         2 000735   000014 600004                    ADSC9   12,,PR0                  cn=3,n=4

     1216     2359    1           CALL TYPEC(NOFWRM);

PL6.E3A0      #010=FIX_FIRM File=ISI$ROUT.:E05TSI                                TUE 07/29/97 22:57 Page:243
   2359  2 000736   000015 630400 3                  EPPR0   13
         2 000737   000017 631400 xsym               EPPR1   B_VECTNIL+15
         2 000740   000000 701000 xent               TSX1    TYPEC
         2 000741   000000 011000                    NOP     0

     1217     2360        /* Make sure MT is running */
     1218     2361    1           IF TPUR_FLG='1'B THEN CALL MTINIT ALTRET(NOMT);

   2361  2 000742   000054 234000 0                  SZN     TPUR_FLG
         2 000743   000747 605000 2                  TPL     s:2363

   2361  2 000744   000002 631400 xsym               EPPR1   B_VECTNIL+2
         2 000745   000000 701000 xent               TSX1    MTINIT
         2 000746   000257 702000 2                  TSX2    NOMT

     1219     2362    1             ELSE;
     1220     2363    1           GOTO DCI;

   2363  2 000747   001024 710000 2                  TRA     DCI

     1221     2364    1   URDONE:
     1222     2365    1           UR_FW.FW_INDX=I;

   2365  2 000750   200006 235100       URDONE       LDA     I,,AUTO
         2 000751   000022 755000 0                  STA     UR_FW+1

     1223     2366    1   DP_NEXT:
     1224     2367    1           RCV_FLG=ORDBFLG;

   2367  2 000752   000000 236000 xsym  DP_NEXT      LDQ     ORDBFLG
         2 000753   600000 376003                    ANQ     -65536,DU
         2 000754   000000 756000 xsym               STQ     RCV_FLG

     1225     2368    1           IF ORDBFLG~='0'B THEN GOTO DCI;

   2368  2 000755   000000 236000 xsym               LDQ     ORDBFLG
         2 000756   600000 316003                    CANQ    -65536,DU
PL6.E3A0      #010=FIX_FIRM File=ISI$ROUT.:E05TSI                                TUE 07/29/97 22:57 Page:244
         2 000757   001024 601000 2                  TNZ     DCI

     1226     2369    1             ELSE;
     1227     2370        /* Load VFC and train image to printers */
     1228     2371    2           DO I=%FRSTLP TO %(FRSTCR-1);

   2371  2 000760   000001 235007                    LDA     1,DL
         2 000761   200006 755100                    STA     I,,AUTO

     1229     2372    2             IF NOT RPM_FLG OR CHN_CFG( DEVINFO.IOM#(I) *128 + DEVINFO.CHN#(I)) THEN

   2372  2 000762   000000 234000 xsym               SZN     RPM_FLG
         2 000763   001003 605000 2                  TPL     s:2373
         2 000764   200006 236100                    LDQ     I,,AUTO
         2 000765   000014 402007                    MPY     12,DL
         2 000766   000000 236006 xsym               LDQ     DEVINFO,QL
         2 000767   000033 772000                    QRL     27
         2 000770   200010 756100                    STQ     MESSAGE$+1,,AUTO
         2 000771   200006 236100                    LDQ     I,,AUTO
         2 000772   000014 402007                    MPY     12,DL
         2 000773   000000 236006 xsym               LDQ     DEVINFO,QL
         2 000774   000014 772000                    QRL     12
         2 000775   000600 376007                    ANQ     384,DL
         2 000776   200010 036100                    ADLQ    MESSAGE$+1,,AUTO
         2 000777   000000 066406                    CMPB    filb='0'B
         2 001000   000000 000001 xsym               BDSC    CHN_CFG,Q                by=0,bit=0,n=1
         2 001001   000002 000022 xsym               BDSC    B_VECTNIL+2              by=0,bit=0,n=18
         2 001002   001012 600000 2                  TZE     s:2375

     1230     2373    2               CALL LPINIT(I);

   2373  2 001003   200006 630500                    EPPR0   I,,AUTO
         2 001004   200010 450500                    STP0    MESSAGE$+1,,AUTO
         2 001005   200010 630500                    EPPR0   MESSAGE$+1,,AUTO
         2 001006   000017 631400 xsym               EPPR1   B_VECTNIL+15
         2 001007   000000 701000 xent               TSX1    LPINIT
         2 001010   000000 011000                    NOP     0
PL6.E3A0      #010=FIX_FIRM File=ISI$ROUT.:E05TSI                                TUE 07/29/97 22:57 Page:245
         2 001011   001017 710000 2                  TRA     s:2376

     1231     2374    2               ELSE
     1232     2375    2               DEVINFO.BITS(I) = '1'B;

   2375  2 001012   200006 236100                    LDQ     I,,AUTO
         2 001013   000014 402007                    MPY     12,DL
         2 001014   000000 620006                    EAX0    0,QL
         2 001015   400000 236003                    LDQ     -131072,DU
         2 001016   000001 756010 xsym               STQ     DEVINFO+1,X0

     1233     2376    2           END;                            /* DO I=                              */

   2376  2 001017   200006 235100                    LDA     I,,AUTO
         2 001020   000001 035007                    ADLA    1,DL
         2 001021   200006 755100                    STA     I,,AUTO
         2 001022   000002 115007                    CMPA    2,DL
         2 001023   000762 602000 2                  TNC     s:2372

     1234     2377    1   DCI:
     1235     2378    1           IF SYS_DPX~=0 THEN GOTO DCI1;   /* We already know system disk addr   */

   2378  2 001024   000000 235000 xsym  DCI          LDA     SYS_DPX
         2 001025   001037 601000 2                  TNZ     DCI1

     1236     2379    1             ELSE;
     1237     2380    1           IF ADPXF.D='1'B THEN CALL GT_SYSPACKAD(%FRSTDP); /* Get sys pack addr */

   2380  2 001026   000000 236000 xsym               LDQ     ADPXF
         2 001027   200000 316003                    CANQ    65536,DU
         2 001030   001035 600000 2                  TZE     s:2382

   2380  2 001031   000001 630400 3                  EPPR0   1
         2 001032   000017 631400 xsym               EPPR1   B_VECTNIL+15
         2 001033   000000 701000 xent               TSX1    GT_SYSPACKAD
         2 001034   000000 011000                    NOP     0

PL6.E3A0      #010=FIX_FIRM File=ISI$ROUT.:E05TSI                                TUE 07/29/97 22:57 Page:246
     1238     2381    1             ELSE;
     1239     2382    1           SYS_DPX=%FRSTDP;

   2382  2 001035   000024 235007                    LDA     20,DL
         2 001036   000000 755000 xsym               STA     SYS_DPX

     1240     2383    1   DCI1:
     1241     2384    2           IF RPM_FLG THEN DO;

   2384  2 001037   000000 234000 xsym  DCI1         SZN     RPM_FLG
         2 001040   001073 605000 2                  TPL     s:2390

     1242     2385    2                 TEMP_IMX = DEVINFO.IOM#(SYS_DPX);

   2385  2 001041   000000 236000 xsym               LDQ     SYS_DPX
         2 001042   000014 402007                    MPY     12,DL
         2 001043   000000 236006 xsym               LDQ     DEVINFO,QL
         2 001044   000023 772000                    QRL     19
         2 001045   000003 376007                    ANQ     3,DL
         2 001046   200004 756100                    STQ     TEMP_IMX,,AUTO

     1243     2386    3                 CALL DO_RPM_CFG(TEMP_IMX) WHENRETURN DO;

   2386  2 001047   200004 630500                    EPPR0   TEMP_IMX,,AUTO
         2 001050   200010 450500                    STP0    MESSAGE$+1,,AUTO
         2 001051   200010 630500                    EPPR0   MESSAGE$+1,,AUTO
         2 001052   000017 631400 xsym               EPPR1   B_VECTNIL+15
         2 001053   000000 701000 xent               TSX1    DO_RPM_CFG
         2 001054   001073 702000 2                  TSX2    s:2390

     1244     2387    3                      HW_LD_FLAG.DISK_FW = FW_LOAD(DEVINFO.IOM#(SYS_DPX)*128 +DEVINFO.
              2387                                CHN#(SYS_DPX));

   2387  2 001055   000000 236000 xsym               LDQ     SYS_DPX
         2 001056   000014 402007                    MPY     12,DL
         2 001057   000000 236006 xsym               LDQ     DEVINFO,QL
         2 001060   000033 772000                    QRL     27
PL6.E3A0      #010=FIX_FIRM File=ISI$ROUT.:E05TSI                                TUE 07/29/97 22:57 Page:247
         2 001061   200010 756100                    STQ     MESSAGE$+1,,AUTO
         2 001062   000000 236000 xsym               LDQ     SYS_DPX
         2 001063   000014 402007                    MPY     12,DL
         2 001064   000000 236006 xsym               LDQ     DEVINFO,QL
         2 001065   000014 772000                    QRL     12
         2 001066   000600 376007                    ANQ     384,DL
         2 001067   200010 036100                    ADLQ    MESSAGE$+1,,AUTO
         2 001070   003000 060406                    CSL     bolr='003'O
         2 001071   000000 000001 xsym               BDSC    FW_LOAD,Q                by=0,bit=0,n=1
         2 001072   000000 010001 xsym               BDSC    HW_LD_FLAG               by=0,bit=1,n=1

     1245     2388    3                     END;

     1246     2389    2               END;

     1247     2390    1           IF ~HW_LD_FLAG.DISK_FW THEN

   2390  2 001073   000000 236000 xsym               LDQ     HW_LD_FLAG
         2 001074   000001 736000                    QLS     1
         2 001075   400000 376003                    ANQ     -131072,DU
         2 001076   400000 676003                    ERQ     -131072,DU
         2 001077   001145 601000 2                  TNZ     DCDONE1

     1248     2391    1             GOTO DCDONE1;
     1249     2392    2           DO I=0 TO DISK_FW.FWM#-1;

   2392  2 001100   200006 450100                    STZ     I,,AUTO
         2 001101   001124 710000 2                  TRA     NXT_DCFW+3

     1250     2393    3             CALL FWRXX(DISK_FW.MODN(I)) WHENRETURN DO; /* Look for this firmware */

   2393  2 001102   200006 720100                    LXL0    I,,AUTO
         2 001103   000016 630410 0                  EPPR0   DISK_FW+2,X0
         2 001104   200010 450500                    STP0    MESSAGE$+1,,AUTO
         2 001105   200010 630500                    EPPR0   MESSAGE$+1,,AUTO
         2 001106   000017 631400 xsym               EPPR1   B_VECTNIL+15
         2 001107   000000 701000 xent               TSX1    FWRXX
PL6.E3A0      #010=FIX_FIRM File=ISI$ROUT.:E05TSI                                TUE 07/29/97 22:57 Page:248
         2 001110   001121 702000 2                  TSX2    NXT_DCFW

     1251     2394    3                   CALL BUILDFW_DCWS(DCCSOD1,DCMMOD1);

   2394  2 001111   000040 630400 3                  EPPR0   32
         2 001112   000020 631400 xsym               EPPR1   B_VECTNIL+16
         2 001113   000000 701000 xent               TSX1    BUILDFW_DCWS
         2 001114   000000 011000                    NOP     0

     1252     2395    3                   CALL DCINIT ALTRET(NXT_DCFW);

   2395  2 001115   000002 631400 xsym               EPPR1   B_VECTNIL+2
         2 001116   000000 701000 xent               TSX1    DCINIT
         2 001117   001121 702000 2                  TSX2    NXT_DCFW

     1253     2396    3                   GOTO DCDONE;

   2396  2 001120   001143 710000 2                  TRA     DCDONE

     1254     2397    3                 END;                      /* WHENRETURN                         */
     1255     2398    2   NXT_DCFW:
     1256     2399    2           END;                            /* DO I=                              */

   2399  2 001121   200006 235100       NXT_DCFW     LDA     I,,AUTO
         2 001122   000001 035007                    ADLA    1,DL
         2 001123   200006 755100                    STA     I,,AUTO
         2 001124   200006 236100                    LDQ     I,,AUTO
         2 001125   000014 116000 0                  CMPQ    DISK_FW
         2 001126   001102 602000 2                  TNC     s:2393

     1257     2400    1   NODCFW:
     1258     2401    1           MESSAGE$=ADDR(NOFWRM);

   2401  2 001127   000015 236000 3     NODCFW       LDQ     13
         2 001130   200007 756100                    STQ     MESSAGE$,,AUTO

     1259     2402    1           SUBSTR(TEXTM.TXT,47,4)='DISK';
PL6.E3A0      #010=FIX_FIRM File=ISI$ROUT.:E05TSI                                TUE 07/29/97 22:57 Page:249

   2402  2 001131   200007 470500                    LDP0    MESSAGE$,,AUTO
         2 001132   000000 720100                    LXL0    0,,PR0
         2 001133   040100 100400                    MLR     fill='040'O
         2 001134   000016 000004 1                  ADSC9   14                       cn=0,n=4
         2 001135   000014 600004                    ADSC9   12,,PR0                  cn=3,n=4

     1260     2403    1           CALL TYPEC(NOFWRM);

   2403  2 001136   000015 630400 3                  EPPR0   13
         2 001137   000017 631400 xsym               EPPR1   B_VECTNIL+15
         2 001140   000000 701000 xent               TSX1    TYPEC
         2 001141   000000 011000                    NOP     0

     1261     2404    1           GOTO ERPO1;

   2404  2 001142   001154 710000 2                  TRA     ERPO1

     1262     2405    1   DCDONE:
     1263     2406    1           DISK_FW.FW_INDX=I;

   2406  2 001143   200006 235100       DCDONE       LDA     I,,AUTO
         2 001144   000015 755000 0                  STA     DISK_FW+1

     1264     2407    1   DCDONE1:
     1265     2408    1           DCFWHDR$=FWHDR$;

   2408  2 001145   000002 236000 0     DCDONE1      LDQ     FWHDR$
         2 001146   000006 756000 0                  STQ     DCFWHDR$

     1266     2409    1           RETURN;

   2409  2 001147   000000 702200 xent               TSX2  ! X66_ARET

     1267     2410    1   ERPO:
     1268     2411    1           CALL TYPEC(FWERR);

PL6.E3A0      #010=FIX_FIRM File=ISI$ROUT.:E05TSI                                TUE 07/29/97 22:57 Page:250
   2411  2 001150   000042 630400 3     ERPO         EPPR0   34
         2 001151   000017 631400 xsym               EPPR1   B_VECTNIL+15
         2 001152   000000 701000 xent               TSX1    TYPEC
         2 001153   000000 011000                    NOP     0

     1269     2412    1   ERPO1:
     1270     2413    1           CALL TYPEC(POEM);

   2413  2 001154   000043 630400 3     ERPO1        EPPR0   35
         2 001155   000017 631400 xsym               EPPR1   B_VECTNIL+15
         2 001156   000000 701000 xent               TSX1    TYPEC
         2 001157   000000 011000                    NOP     0

     1271     2414    1           CALL HANG;

   2414  2 001160   000002 631400 xsym               EPPR1   B_VECTNIL+2
         2 001161   000000 701000 xent               TSX1    HANG
         2 001162   000000 011000                    NOP     0

     1272     2415    1           RETURN;

   2415  2 001163   000000 702200 xent               TSX2  ! X66_ARET

     1273     2416    1   INIT_DISK:ENTRY;

   2416  2 001164   000000 700200 xent  INIT_DISK    TSX0  ! X66_AUTO_0
         2 001165   000012 000000                    ZERO    10,0

     1274     2417    1           IF S1000_FLG='1'B THEN RETURN;

   2417  2 001166   000000 234000 xsym               SZN     S1000_FLG
         2 001167   001037 605000 2                  TPL     DCI1

   2417  2 001170   000000 702200 xent               TSX2  ! X66_ARET
     1275     2418    1             ELSE GOTO DCI1;
     1276     2419    1   END FIX_FIRM;
     1277     2420        %EOD;
PL6.E3A0      #010=FIX_FIRM File=ISI$ROUT.:E05TSI                                TUE 07/29/97 22:57 Page:251

PL6.E3A0      #010=FIX_FIRM File=ISI$ROUT.:E05TSI                                TUE 07/29/97 22:57 Page:252
--  Include file information  --

   IS$MACROS.:E05TOU  is referenced.
      No diagnostics issued in procedure FIX_FIRM.
PL6.E3A0      #010=FIX_FIRM File=ISI$ROUT.:E05TSI                                TUE 07/29/97 22:57 Page:253

 **** Variables and constants ****

  ****  Section 000  Data  FIX_FIRM

  ****  Scalars and arrays  ****
OctLoc.c.b A Datatyp(siz) R M Lvl/name                 OctLoc.c.b A Datatyp(siz) R M Lvl/name

    52-0-0/w UBIN        r     1 ACTFWHD#                  51-0-0/w STRC        r     1 CDFWD
    31-0-0/w STRC(108)   r     1 CRP_FW                    36-0-0/w STRC        r     1 DCCSOD1
     6-0-0/w PTR         r     1 DCFWHDR$                   4-0-0/w PTR         r     1 DCFWSTART$
     4-0-0/w STRC        r     1 DCFWSTART_PTR             44-0-0/w STRC        r     1 DCMMOD1
    14-0-0/w STRC(180)   r     1 DISK_FW                   53-0-0/b BIT         r     1 EURC_FLG
     1-0-0/w PTR         r     1 FW$                       56-0-0/w STRC(297)   r     1 FWERR
     2-0-0/w PTR         r     1 FWHDR$                     5-0-0/w PTR         r     1 FWSTART$
     5-0-0/w STRC        r     1 FWSTART_PTR               55-0-0/w UBIN        r     1 FWTINDX
   113-0-0/w STRC(189)   r     1 FWTQ2                      1-0-0/w STRC        r     1 FW_PTR
    50-0-0/w STRC        r     1 LDFWD                     26-0-0/w STRC(108)   r     1 LP_FW
    34-0-0/w STRC        r     1 MTCSOD1                   42-0-0/w STRC        r     1 MTMMOD1
     0-0-0/w PTR         r     1 NAVHDR$                    3-0-0/w PTR         r     1 NEWFWHDR$
     3-0-0/w STRC        r     1 NEWFWHDR_PTR              67-0-0/w STRC(504)   r     1 NOFWRM
   105-0-0/w STRC(198)   r     1 POEM                       7-0-0/w STRC(180)   r     1 TAPE_FW
    54-0-0/b BIT         r     1 TPUR_FLG                  40-0-0/w STRC        r     1 URCSOD1
    46-0-0/w STRC        r     1 URMMOD1                   21-0-0/w STRC(180)   r     1 UR_FW

  ****  Auto variables  ****

  ****  Scalars and arrays  ****
OctLoc.c.b A Datatyp(siz) R M Lvl/name                 OctLoc.c.b A Datatyp(siz) R M Lvl/name

     6-0-0/w UBIN        r     1 I                          7-0-0/w PTR         r     1 MESSAGE$
     3-0-0/w PTR         r     1 NEWNAVHDR$                 5-0-0/w UBIN        r     1 POFWHD#
     4-0-0/w SBIN        r     1 TEMP_IMX

  ****  SYMREF variables  ****

  ****  Scalars and arrays  ****
OctLoc.c.b A Datatyp(siz) R M Lvl/name                 OctLoc.c.b A Datatyp(siz) R M Lvl/name
PL6.E3A0      #010=FIX_FIRM File=ISI$ROUT.:E05TSI                                TUE 07/29/97 22:57 Page:254

     0-0-0/w STRC(8640)  r     1 ADIR                       0-0-0/b STRC(5)     r     1 ADPXF
     0-0-0/w STRC(72)    r     1 ANSBUF                     0-0-0/w UBIN        r     1 BOOTTAPE
     0-0-0/b BIT         r     1 CHN_CFG(0:511)             0-0-0/b BIT         r     1 CP6UL
     0-0-0/b BIT         r     1 DECIM_FLG                  0-0-0/d STRC(396)   r     1 DEVINFO(0:21)
     0-0-0/w PTR         r     1 FIELD$                     0-0-0/w UBIN        r     1 FIELD_LEN
     0-0-0/b BIT         r     1 FW_LOAD(0:511)             0-0-0/b STRC(9)     r     1 HW_LD_FLAG
     0-0-0/w BIT         r     1 MTIDCW(0:14)               0-0-0/b BIT (2)     r     1 ORDBFLG
     0-0-0/b BIT (4)     r     1 RCV_FLG                    0-0-0/b STRC        r     1 RPM_BOOTIN
     0-0-0/b BIT         r     1 RPM_FLG                    0-0-0/b BIT         r     1 S1000_FLG
     0-0-0/w UBIN        r     1 SYS_DPX                    0-0-0/w UBIN        r     1 URCHN

  ****  BASED and DCB variables  ****

  ****  Scalars and arrays  ****
OctLoc.c.b A Datatyp(siz) R M Lvl/name                 OctLoc.c.b A Datatyp(siz) R M Lvl/name

     0-0-0/c CHAR(2)     r     1 FWANS                      0-0-0/w STRC(144)   r     1 FWHDR
     0-0-0/w ASTR        r     1 TEXTM


   Procedure FIX_FIRM requires 633 words for executable code.
   Procedure FIX_FIRM requires 10 words of local(AUTO) storage.
PL6.E3A0      #010=FIX_FIRM File=ISI$ROUT.:E05TSI                                TUE 07/29/97 22:57 Page:255
          *** CROSS REFERENCE LISTING ***
**     DENOTES     IDENTIFIER DEFINITION
<<                 IDENTIFIER'S VALUE SET
>>                 IDENTIFIER'S VALUE USED
<>                 IDENTIFIER SET AND/OR USED
--                 IDENTIFIER REFERENCED
PL6.E3A0      #010=FIX_FIRM File=ISI$ROUT.:E05TSI                                TUE 07/29/97 22:57 Page:256
          MINI XREF LISTING

ACTFWHD#
      2112**DCL      2208>>ASSIGN   2267>>IF       2268>>DOINDEX
ADIR.FW
      1546**DCL      1576--DCLINIT  2144<<ASSIGN
ADIR.FW.ADIR
      1552**DCL      1553--REDEF
ADIR.MONID.M
      1512**DCL      1515--REDEF
ADPXF.D
      1853**DCL      2153>>IF       2380>>IF
ADPXF.F
      1856**DCL      2232>>IF
ANSBUF
      1841**DCL      2242<>CALL
ANSBUF.TXT
      1843**DCL      2243<>CALL
ASKFWT1
      2242**LABEL    2244--GOTO     2255--GOTO
BOOTTAPE
      1819**DCL      2172>>ASSIGN   2172>>ASSIGN   2204<>CALL     2206<>CALL
BUILDFW_DCWS
      1284**DCL-ENT  2215--CALL     2284--CALL     2339--CALL     2394--CALL
CDFWD.AD
      2104**DCL      2318<<ASSIGN
CDFWD.TALLY
      2108**DCL      2319<<ASSIGN
CHN_CFG
      1821**DCL      2372>>IF
CP6UL
      1837**DCL      1557--DCLINIT  2159--ASSIGN   2197--ASSIGN
CRDONE
      2324**LABEL    2320--GOTO
PL6.E3A0      #010=FIX_FIRM File=ISI$ROUT.:E05TSI                                TUE 07/29/97 22:57 Page:257
CRP_FW.FWM#
      1813**DCL      2316>>DOINDEX
CRP_FW.FW_INDX
      1814**DCL      2324<<ASSIGN
CRP_FW.MODN
      1815**DCL      2191<<ASSIGN   2317<>CALL
DCCSOD1
      1905**DCL      2394<>CALL
DCDONE
      2406**LABEL    2396--GOTO
DCDONE1
      2408**LABEL    2391--GOTO
DCFWHDR$
      1652**DCL      2408<<ASSIGN
DCFWSTART$
      1632**DCL      2197<<ASSIGN
DCFWSTART_PTR
      1625**DCL      1632--REDEF
DCFWSTART_PTR.WOFFS
      1626**DCL      2198<<ASSIGN   2198>>ASSIGN   2200>>ASSIGN
DCI
      2378**LABEL    2363--GOTO     2368--GOTO
DCI1
      2384**LABEL    2378--GOTO     2418--GOTO
DCINIT
      1291**DCL-ENT  2395--CALL
DCIS1
      2159**LABEL    2151--GOTO
DCMMOD1
      2013**DCL      2394<>CALL
DECIM_FLG
      1848**DCL      2244>>IF
DEVINFO.BITS
      1677**DCL      2354<<ASSIGN   2375<<ASSIGN
DEVINFO.CHN#
      1674**DCL      2172>>ASSIGN   2173>>ASSIGN   2372>>IF       2387>>ASSIGN
PL6.E3A0      #010=FIX_FIRM File=ISI$ROUT.:E05TSI                                TUE 07/29/97 22:57 Page:258
DEVINFO.DEVNAME
      1721**DCL      2240>>ASSIGN   2252>>IF
DEVINFO.IOM#
      1676**DCL      2172>>ASSIGN   2173>>ASSIGN   2372>>IF       2385>>ASSIGN   2387>>ASSIGN
DEVINFO.PCWS
      1678**DCL      1689--REDEF
DEVINFO.RPM_PTRS.EF_DCWS$
      1691**DCL      1692--REDEF
DEVINFO.STATUS
      1695**DCL      1714--REDEF
DISK_FW.FWM#
      1762**DCL      2392>>DOINDEX
DISK_FW.FW_INDX
      1763**DCL      2406<<ASSIGN
DISK_FW.MODN
      1764**DCL      2181<<ASSIGN   2182<<ASSIGN   2183<<ASSIGN   2393<>CALL
DOFWT
      2257**LABEL    2252--GOTO
DO_LP_FW
      2297**LABEL    2236--GOTO     2279--GOTO
DO_RPM_CFG
      1829**DCL-ENT  2169--CALL     2386--CALL
DP_NEXT
      2367**LABEL    2299--GOTO
ERPO
      2411**LABEL    2204--CALLALT  2206--CALLALT
ERPO1
      2413**LABEL    2226--GOTO     2404--GOTO
EURC_FLG
      2113**DCL      2312<<ASSIGN   2327<<ASSIGN   2336<<ASSIGN
FIELD$
      1845**DCL      1847--IMP-PTR  2247>>ASSIGN   2247>>ASSIGN   2248>>ASSIGN   2252>>IF
FIELD_LEN
      1846**DCL      2244>>IF       2246>>IF
FW$
      1557**DCL      1569--REDEF    2159<<ASSIGN   2161>>ASSIGN   2201<<ASSIGN
PL6.E3A0      #010=FIX_FIRM File=ISI$ROUT.:E05TSI                                TUE 07/29/97 22:57 Page:259
FWANS
      1847**DCL      2247<<ASSIGN   2247>>ASSIGN   2248<<ASSIGN   2252>>IF
FWERR
      2120**DCL      2411<>CALL
FWHDR
      1654**DCL      2270<<ASSIGN   2270>>ASSIGN
FWHDR.BUFAD
      1656**DCL      2303>>ASSIGN   2318>>ASSIGN
FWHDR.CSOSIZE
      1658**DCL      2304>>ASSIGN   2319>>ASSIGN
FWHDR.FWNAME
      1660**DCL      2269<>CALL     2271<<ASSIGN
FWHDR$
      1576**DCL      1588--REDEF    1654--IMP-PTR  2207>>ASSIGN   2261<<ASSIGN   2265>>ASSIGN   2270>>ASSIGN
      2303>>ASSIGN   2304>>ASSIGN   2318>>ASSIGN   2319>>ASSIGN   2408>>ASSIGN
FWRXX
      1283**DCL-ENT  2214--CALL     2269--CALL     2283--CALL     2302--CALL     2317--CALL     2338--CALL
      2393--CALL
FWSTART$
      1651**DCL      2161<<ASSIGN   2201>>ASSIGN
FWSTART_PTR
      1644**DCL      1651--REDEF
FWSTART_PTR.WOFFS
      1645**DCL      2200<<ASSIGN
FWTINDX
      2117**DCL      2257<<ASSIGN   2262<>CALL     2263<>CALL
FWTQ2
      2135**DCL      2239--ASSIGN   2242<>CALL
FW_LOAD
      1820**DCL      2172>>ASSIGN   2173>>ASSIGN   2387>>ASSIGN
FW_PTR.WOFFS
      1570**DCL      2160<<ASSIGN   2160>>ASSIGN
GETFD
      1288**DCL-ENT  2243--CALL
GT_SYSPACKAD
      1295**DCL-ENT  2153--CALL     2380--CALL
PL6.E3A0      #010=FIX_FIRM File=ISI$ROUT.:E05TSI                                TUE 07/29/97 22:57 Page:260
HANG
      1289**DCL-ENT  2414--CALL
HW_LD_FLAG.CR_FW
      1823**DCL      2170<<ASSIGN   2298>>IF       2310>>IF       2340>>IF
HW_LD_FLAG.DISK_FW
      1824**DCL      2173<<ASSIGN   2387<<ASSIGN   2390>>IF
HW_LD_FLAG.LP_FW
      1825**DCL      2171<<ASSIGN   2297>>IF       2332>>IF       2345>>IF
HW_LD_FLAG.TAPE_FW
      1826**DCL      2172<<ASSIGN   2193>>IF       2203>>IF       2211>>IF       2233>>IF       2278>>IF
I
      2116**DCL      2147<<DOINDEX  2148<>CALL     2213<<DOINDEX  2214>>CALL     2228>>IF       2228>>IF
      2251<<DOINDEX  2252>>IF       2257>>ASSIGN   2259<<DOINDEX  2268<<DOINDEX  2282<<DOINDEX  2283>>CALL
      2292>>ASSIGN   2293>>IF       2301<<DOINDEX  2302>>CALL     2309>>ASSIGN   2311<<ASSIGN   2316<<DOINDEX
      2317>>CALL     2324>>ASSIGN   2326<<ASSIGN   2337<<DOINDEX  2338>>CALL     2353<<DOINDEX  2354>>ASSIGN
      2365>>ASSIGN   2371<<DOINDEX  2372>>IF       2372>>IF       2373<>CALL     2375>>ASSIGN   2392<<DOINDEX
      2393>>CALL     2406>>ASSIGN
IPCW_PL6
      1282**DCL-ENT  2194--CALL
KEYIN
      1287**DCL-ENT  2242--CALL
LDFWD.AD
      2086**DCL      2303<<ASSIGN
LDFWD.TALLY
      2090**DCL      2304<<ASSIGN
LPDONE
      2309**LABEL    2305--GOTO
LPDONE1
      2316**LABEL    2300--GOTO
LPINIT
      1293**DCL-ENT  2148--CALL     2373--CALL
LP_FW.FWM#
      1796**DCL      2301>>DOINDEX
LP_FW.FW_INDX
      1797**DCL      2309<<ASSIGN
LP_FW.MODN
PL6.E3A0      #010=FIX_FIRM File=ISI$ROUT.:E05TSI                                TUE 07/29/97 22:57 Page:261
      1798**DCL      2189<<ASSIGN   2302<>CALL
MESSAGE$
      2139**DCL      2140--IMP-PTR  2223<<ASSIGN   2224>>ASSIGN   2224>>ASSIGN   2239<<ASSIGN   2240>>ASSIGN
      2240>>ASSIGN   2357<<ASSIGN   2358>>ASSIGN   2358>>ASSIGN   2401<<ASSIGN   2402>>ASSIGN   2402>>ASSIGN
MINIQ_PL6
      1294**DCL-ENT  2263--CALL
MTCSOD1
      1869**DCL      2215<>CALL     2284<>CALL
MTDONE
      2228**LABEL    2217--GOTO
MTDONE1
      2292**LABEL    2286--GOTO
MTIDCW
      1844**DCL      2229<<ASSIGN   2229>>ASSIGN
MTINIT
      1290**DCL-ENT  2216--CALL     2285--CALL     2361--CALL
MTMMOD1
      1977**DCL      2215<>CALL     2284<>CALL
NAVHDR$
      1555**DCL      2207<<ASSIGN   2209>>ASSIGN   2261>>ASSIGN   2264>>ASSIGN   2280<<ASSIGN
NDUP
      2273**LABEL    2269--CALLALT
NEWFWHDR$
      1595**DCL      1607--REDEF    2264<<ASSIGN   2269>>CALL     2270>>ASSIGN   2271>>ASSIGN
NEWFWHDR_PTR.WOFFS
      1608**DCL      2273<<ASSIGN   2273>>ASSIGN
NEWNAVHDR$
      1556**DCL      2209<<ASSIGN   2265<<ASSIGN   2280>>ASSIGN
NOFWRM
      2125**DCL      2223--ASSIGN   2225<>CALL     2357--ASSIGN   2359<>CALL     2401--ASSIGN   2403<>CALL
NOFWT
      2278**LABEL    2234--GOTO     2243--CALLALT  2267--GOTO
NOMT
      2223**LABEL    2290--GOTO     2361--CALLALT
NXT_DCFW
      2399**LABEL    2395--CALLALT
PL6.E3A0      #010=FIX_FIRM File=ISI$ROUT.:E05TSI                                TUE 07/29/97 22:57 Page:262
NXT_TFW
      2220**LABEL    2216--CALLALT
NXT_TFW1
      2289**LABEL    2285--CALLALT
NXT_UFW
      2351**LABEL    2346--CALLALT
ORDBFLG
      1849**DCL      2367>>ASSIGN   2368>>IF
OTH_URFW
      2336**LABEL    2331--CALLALT  2333--GOTO
POEM
      2130**DCL      2413<>CALL
POFWHD#
      2115**DCL      2208<<ASSIGN   2267>>IF       2268>>DOINDEX
POFWR
      1285**DCL-ENT  2204--CALL     2206--CALL     2262--CALL
RCV_FLG
      1850**DCL      2367<<ASSIGN
RPM_BOOTIN.IMX#
      1834**DCL      2168>>ASSIGN
RPM_FLG
      1828**DCL      2167>>IF       2372>>IF       2384>>IF
S1000_FLG
      1840**DCL      2145>>IF       2417>>IF
SKIP_FW_TAPE_LOAD
      2232**LABEL    2212--GOTO
SYS_DPX
      1839**DCL      2151>>IF       2155<<ASSIGN   2378>>IF       2382<<ASSIGN   2385>>ASSIGN   2387>>ASSIGN
      2387>>ASSIGN
TAPE_FW.FWM#
      1745**DCL      2213>>DOINDEX  2282>>DOINDEX
TAPE_FW.FW_INDX
      1746**DCL      2292<<ASSIGN
TAPE_FW.MODN
      1747**DCL      2177<<ASSIGN   2178<<ASSIGN   2179<<ASSIGN   2214<>CALL     2228>>IF       2228>>IF
      2283<>CALL     2293>>IF
PL6.E3A0      #010=FIX_FIRM File=ISI$ROUT.:E05TSI                                TUE 07/29/97 22:57 Page:263
TEMP_IMX
      1836**DCL      2168<<ASSIGN   2169<>CALL     2385<<ASSIGN   2386<>CALL
TEXTM.CNT
      2141**DCL      2142--IMP-SIZ  2224>>ASSIGN   2240>>ASSIGN   2358>>ASSIGN   2402>>ASSIGN
TEXTM.TXT
      2142**DCL      2224<<ASSIGN   2240<<ASSIGN   2358<<ASSIGN   2402<<ASSIGN
TPUR_FLG
      2114**DCL      2293<<ASSIGN   2361>>IF
TRY_LP1
      2331**LABEL    2313--GOTO     2328--CALLALT
TRY_LP2
      2345**LABEL    2341--CALLALT
TYPEC
      1286**DCL-ENT  2225--CALL     2359--CALL     2403--CALL     2411--CALL     2413--CALL
URCHN
      1838**DCL      2356<<ASSIGN
URCSOD1
      1941**DCL      2339<>CALL
URDONE
      2365**LABEL    2329--GOTO     2334--GOTO     2342--GOTO     2347--GOTO
URINIT
      1292**DCL-ENT  2328--CALL     2331--CALL     2341--CALL     2346--CALL
URMMOD1
      2049**DCL      2339<>CALL
UR_FW.FWM#
      1779**DCL      2337>>DOINDEX
UR_FW.FW_INDX
      1780**DCL      2365<<ASSIGN
UR_FW.MODN
      1781**DCL      2185<<ASSIGN   2186<<ASSIGN   2187<<ASSIGN   2338<>CALL

PL6.E3A0      #011=POFWR File=ISI$ROUT.:E05TSI                                   TUE 07/29/97 22:57 Page:264
     1278        1        /*T***********************************************************/
     1279        2        /*T*                                                         */
     1280        3        /*T* Copyright (c) Bull HN Information Systems Inc., 1997    */
     1281        4        /*T*                                                         */
     1282        5        /*T***********************************************************/
     1283        6        POFWR:  PROC(INDX,READ_FLG,TAPE_FLG) ALTRET;
     1284        7        /* This program reads firmware from PO or FW tape */
     1285        8        /* Altreturns on error reading tape */
     1286        9        %INCLUDE IS$MACROS;
     1287     1284    1   DCL INDX UBIN WORD;                     /* Tape index in DEVINFO              */
     1288     1285    1   DCL TAPE_FLG BIT(1) ALIGNED;            /* '0'B-> PO tape; '1'B-> FW tape     */
     1289     1286    1   DCL READ_FLG BIT(1) ALIGNED;  /* '0'B-> PRIMITIVE READ; '1'B->  NON-PRIMITIVE */
     1290     1287        /**/
     1291     1288    1   DCL GTFWR ENTRY(3) ALTRET;
     1292     1289        /**/
     1293     1290    1   DCL LABEL CHAR(4)STATIC SYMDEF ALIGNED INIT(' ');
     1294     1291    1   DCL MPCINF UBIN HALF SYMREF;            /* Firmware CSO size                  */
     1295     1292        %FWHDR;
     1296     1301    1   DCL ACTFWHD# UBIN WORD SYMREF;          /* Nr of FW headers used              */
     1297     1302    1   DCL FW$ SYMREF PTR;                     /* Pointer to the firmware buffer     */
     1298     1303        %PTR_STRUCT(NAME=FW_PTR,STCLASS="REDEF FW$");
     1299     1321    1   DCL FWHDR$ PTR SYMREF;                  /* Pointer to firm header             */
     1300     1322        %PTR_STRUCT(NAME=FWHDR_PTR,STCLASS="REDEF FWHDR$");
     1301     1340    2           DO UNTIL ACTFWHD#=%FWHDR#;
     1302     1341    2             FW_PTR.WOFFS=FW_PTR.WOFFS+1; /* Allow one word just in case (for U400) */
     1303     1342    2             FWHDR.H11='0'B;
     1304     1343    2             FWHDR.BUFAD=FW_PTR.WOFFS;
     1305     1344    2             LABEL=' ';
     1306     1345    2             CALL GTFWR(INDX,READ_FLG,TAPE_FLG) ALTRET(NOFWRA);
              1345                      /* Get one module,when reading error-> NOFWRA */
     1307     1346    2             IF LABEL=' ' THEN GOTO POFWR2; /* No more firmware found            */
     1308     1347    2               ELSE;
     1309     1348        /* Process the firmware */
     1310     1349    2             FWHDR.FWNAME=LABEL;           /* Name of firmware                   */
     1311     1350    2             FWHDR.CSOSIZE=MPCINF;
     1312     1351    2             FWHDR.MMOSIZE=0;
     1313     1352    2             IF FWHDR.CSOSIZE=0 THEN FWHDR.CSOSIZE=FW_PTR.WOFFS-FWHDR.BUFAD;
PL6.E3A0      #011=POFWR File=ISI$ROUT.:E05TSI                                   TUE 07/29/97 22:57 Page:265
              1352                      /* Only one size */
     1314     1353    2               ELSE FWHDR.MMOSIZE=FW_PTR.WOFFS-FWHDR.BUFAD-FWHDR.CSOSIZE;
     1315     1354    2   POFWR1A:
     1316     1355    3             IF FWHDR.FWNAME=%LPFWNM OR FWHDR.FWNAME=%CRPFWNM THEN DO;
              1355                      /* LP or CR/CP firmware */
     1317     1356        /* Allow room for device control word */
     1318     1357    3                   FWHDR.BUFAD=FWHDR.BUFAD-1;
     1319     1358    3                   FWHDR.CSOSIZE=FWHDR.CSOSIZE+1;
     1320     1359    3                 END;                      /*THEN                                */
     1321     1360    2               ELSE;
     1322     1361        /* Use next header */
     1323     1362    2   POFWR1B:
     1324     1363    2             ACTFWHD#=ACTFWHD#+1;
     1325     1364    2             FWHDR_PTR.WOFFS=FWHDR_PTR.WOFFS+4;
     1326     1365    2           END;                            /* DO UNTIL                           */
     1327     1366    1   POFWR2:
     1328     1367    1           RETURN;
     1329     1368    1   NOFWRA:
     1330     1369    1           ALTRETURN;
     1331     1370    1   END POFWR;

PL6.E3A0      #011=POFWR File=ISI$ROUT.:E05TSI                                   TUE 07/29/97 22:57 Page:266
--  Include file information  --

   IS$MACROS.:E05TOU  is referenced.
      No diagnostics issued in procedure POFWR.

   Procedure POFWR requires 73 words for executable code.
   Procedure POFWR requires 10 words of local(AUTO) storage.

    No errors detected in file ISI$ROUT.:E05TSI    .

PL6.E3A0      #011=POFWR File=ISI$ROUT.:E05TSI                                   TUE 07/29/97 22:57 Page:267

 Object Unit name= POFWR                                      File name= ISI$ROUT.:E05TOU
 UTS= JUL 29 '97 22:57:57.04 TUE                              Compiler= PL-6/E31         Sev=      00
 SharedLib= :SHARED_SYSTEM                                    Alt SharedLib=


    ****  Control sections  ****

 Sect   Type Bound  Init  Size OctSiz  Section name(segment info)
    0   Data  even  none     1      1  POFWR
    1  RoData even  UTS      2      2  POFWR
    2   Proc  even  none    73    111  POFWR

    ****  Entry defs  ****

                              Check   Calling
                             calling  sequence
  Sect OctLoc Primary Altret sequence   type   Parms  Name
     2      0   yes    yes     yes      Std        3  POFWR

  ****  Data defs  ****

 Sect OctLoc  Name                           Sect OctLoc  Name
    0      0  LABEL

  ****  Entry refs  ****

         Check        Calling
        calling       sequence
Altret sequence SRef   type   Args  Name
 yes     yes           Std       3 GTFWR
                       nStd      0 X66_AUTO_3
                       Std       0 B_CONSPOOL_D
                       nStd      0 X66_ARET
                       nStd      0 X66_AALT
PL6.E3A0      #011=POFWR File=ISI$ROUT.:E05TSI                                   TUE 07/29/97 22:57 Page:268

  ****  Data refs  ****

  Flags:  r = read only, s = secondary
Flgs Name                             Flgs Name                             Flgs Name
     MPCINF                                ACTFWHD#                              FW$
     FWHDR$                                B_VECTNIL
PL6.E3A0      #011=POFWR File=ISI$ROUT.:E05TSI                                   TUE 07/29/97 22:57 Page:269


     1278        1        /*T***********************************************************/
     1279        2        /*T*                                                         */
     1280        3        /*T* Copyright (c) Bull HN Information Systems Inc., 1997    */
     1281        4        /*T*                                                         */
     1282        5        /*T***********************************************************/
     1283        6        POFWR:  PROC(INDX,READ_FLG,TAPE_FLG) ALTRET;

      6  2 000000   000000 700200 xent  POFWR        TSX0  ! X66_AUTO_3
         2 000001   000012 000003                    ZERO    10,3

     1284        7        /* This program reads firmware from PO or FW tape */
     1285        8        /* Altreturns on error reading tape */
     1286        9        %INCLUDE IS$MACROS;
     1287     1284    1   DCL INDX UBIN WORD;                     /* Tape index in DEVINFO              */
     1288     1285    1   DCL TAPE_FLG BIT(1) ALIGNED;            /* '0'B-> PO tape; '1'B-> FW tape     */
     1289     1286    1   DCL READ_FLG BIT(1) ALIGNED;  /* '0'B-> PRIMITIVE READ; '1'B->  NON-PRIMITIVE */
     1290     1287        /**/
     1291     1288    1   DCL GTFWR ENTRY(3) ALTRET;
     1292     1289        /**/
     1293     1290    1   DCL LABEL CHAR(4)STATIC SYMDEF ALIGNED INIT(' ');
     1294     1291    1   DCL MPCINF UBIN HALF SYMREF;            /* Firmware CSO size                  */
     1295     1292        %FWHDR;
     1296     1301    1   DCL ACTFWHD# UBIN WORD SYMREF;          /* Nr of FW headers used              */
     1297     1302    1   DCL FW$ SYMREF PTR;                     /* Pointer to the firmware buffer     */
     1298     1303        %PTR_STRUCT(NAME=FW_PTR,STCLASS="REDEF FW$");
     1299     1321    1   DCL FWHDR$ PTR SYMREF;                  /* Pointer to firm header             */
     1300     1322        %PTR_STRUCT(NAME=FWHDR_PTR,STCLASS="REDEF FWHDR$");
     1301     1340    2           DO UNTIL ACTFWHD#=%FWHDR#;

     1302     1341    2             FW_PTR.WOFFS=FW_PTR.WOFFS+1; /* Allow one word just in case (for U400) */

   1341  2 000002   000000 220000 xsym               LDX0    FW$
         2 000003   000001 621010                    EAX1    1,X0
         2 000004   000000 741000 xsym               STX1    FW$

     1303     1342    2             FWHDR.H11='0'B;
PL6.E3A0      #011=POFWR File=ISI$ROUT.:E05TSI                                   TUE 07/29/97 22:57 Page:270

   1342  2 000005   000000 220003                    LDX0    0,DU
         2 000006   000000 470400 xsym               LDP0    FWHDR$
         2 000007   000000 740100                    STX0    0,,PR0

     1304     1343    2             FWHDR.BUFAD=FW_PTR.WOFFS;

   1343  2 000010   000000 221000 xsym               LDX1    FW$
         2 000011   000000 470400 xsym               LDP0    FWHDR$
         2 000012   000000 441100                    SXL1    0,,PR0

     1305     1344    2             LABEL=' ';

   1344  2 000013   000035 236000 xsym               LDQ     B_VECTNIL+29
         2 000014   000000 756000 0                  STQ     LABEL

     1306     1345    2             CALL GTFWR(INDX,READ_FLG,TAPE_FLG) ALTRET(NOFWRA);
              1345                      /* Get one module,when reading error-> NOFWRA */

   1345  2 000015   200003 630500                    EPPR0   @INDX,,AUTO
         2 000016   000021 631400 xsym               EPPR1   B_VECTNIL+17
         2 000017   000000 701000 xent               TSX1    GTFWR
         2 000020   000110 702000 2                  TSX2    NOFWRA

     1307     1346    2             IF LABEL=' ' THEN GOTO POFWR2; /* No more firmware found            */

   1346  2 000021   000000 236000 0                  LDQ     LABEL
         2 000022   000035 116000 xsym               CMPQ    B_VECTNIL+29
         2 000023   000107 600000 2                  TZE     POFWR2

     1308     1347    2               ELSE;
     1309     1348        /* Process the firmware */
     1310     1349    2             FWHDR.FWNAME=LABEL;           /* Name of firmware                   */

   1349  2 000024   000000 470400 xsym               LDP0    FWHDR$
         2 000025   000003 756100                    STQ     3,,PR0

PL6.E3A0      #011=POFWR File=ISI$ROUT.:E05TSI                                   TUE 07/29/97 22:57 Page:271
     1311     1350    2             FWHDR.CSOSIZE=MPCINF;

   1350  2 000026   000000 220000 xsym               LDX0    MPCINF
         2 000027   000002 740100                    STX0    2,,PR0

     1312     1351    2             FWHDR.MMOSIZE=0;

   1351  2 000030   000000 221003                    LDX1    0,DU
         2 000031   000002 441100                    SXL1    2,,PR0

     1313     1352    2             IF FWHDR.CSOSIZE=0 THEN FWHDR.CSOSIZE=FW_PTR.WOFFS-FWHDR.BUFAD;
              1352                      /* Only one size */

   1352  2 000032   000000 100003                    CMPX0   0,DU
         2 000033   000045 601000 2                  TNZ     s:1353

   1352  2 000034   000000 236100                    LDQ     0,,PR0
         2 000035   777777 376007                    ANQ     -1,DL
         2 000036   200006 756100                    STQ     @TAPE_FLG+1,,AUTO
         2 000037   000000 236000 xsym               LDQ     FW$
         2 000040   000022 772000                    QRL     18
         2 000041   200006 136100                    SBLQ    @TAPE_FLG+1,,AUTO
         2 000042   000000 622006                    EAX2    0,QL
         2 000043   000002 742100                    STX2    2,,PR0
         2 000044   000063 710000 2                  TRA     POFWR1A

     1314     1353    2               ELSE FWHDR.MMOSIZE=FW_PTR.WOFFS-FWHDR.BUFAD-FWHDR.CSOSIZE;

   1353  2 000045   000000 236100                    LDQ     0,,PR0
         2 000046   777777 376007                    ANQ     -1,DL
         2 000047   200006 756100                    STQ     @TAPE_FLG+1,,AUTO
         2 000050   000000 236000 xsym               LDQ     FW$
         2 000051   000022 772000                    QRL     18
         2 000052   200006 136100                    SBLQ    @TAPE_FLG+1,,AUTO
         2 000053   200007 756100                    STQ     @TAPE_FLG+2,,AUTO
         2 000054   000002 236100                    LDQ     2,,PR0
         2 000055   000022 772000                    QRL     18
PL6.E3A0      #011=POFWR File=ISI$ROUT.:E05TSI                                   TUE 07/29/97 22:57 Page:272
         2 000056   200010 756100                    STQ     @TAPE_FLG+3,,AUTO
         2 000057   200007 236100                    LDQ     @TAPE_FLG+2,,AUTO
         2 000060   200010 136100                    SBLQ    @TAPE_FLG+3,,AUTO
         2 000061   000000 622006                    EAX2    0,QL
         2 000062   000002 442100                    SXL2    2,,PR0

     1315     1354    2   POFWR1A:
     1316     1355    3             IF FWHDR.FWNAME=%LPFWNM OR FWHDR.FWNAME=%CRPFWNM THEN DO;
              1355                      /* LP or CR/CP firmware */

   1355  2 000063   000003 236100       POFWR1A      LDQ     3,,PR0
         2 000064   000000 116000 1                  CMPQ    0
         2 000065   000070 600000 2                  TZE     s:1357
         2 000066   000001 116000 1                  CMPQ    1
         2 000067   000077 601000 2                  TNZ     POFWR1B

     1317     1356        /* Allow room for device control word */
     1318     1357    3                   FWHDR.BUFAD=FWHDR.BUFAD-1;

   1357  2 000070   000000 722100                    LXL2    0,,PR0
         2 000071   777777 623012                    EAX3    -1,X2
         2 000072   000000 443100                    SXL3    0,,PR0

     1319     1358    3                   FWHDR.CSOSIZE=FWHDR.CSOSIZE+1;

   1358  2 000073   000000 470400 xsym               LDP0    FWHDR$
         2 000074   000002 222100                    LDX2    2,,PR0
         2 000075   000001 623012                    EAX3    1,X2
         2 000076   000002 743100                    STX3    2,,PR0

     1320     1359    3                 END;                      /*THEN                                */

     1321     1360    2               ELSE;
     1322     1361        /* Use next header */
     1323     1362    2   POFWR1B:
     1324     1363    2             ACTFWHD#=ACTFWHD#+1;

PL6.E3A0      #011=POFWR File=ISI$ROUT.:E05TSI                                   TUE 07/29/97 22:57 Page:273
   1363  2 000077   000000 235000 xsym  POFWR1B      LDA     ACTFWHD#
         2 000100   000001 035007                    ADLA    1,DL
         2 000101   000000 755000 xsym               STA     ACTFWHD#

     1325     1364    2             FWHDR_PTR.WOFFS=FWHDR_PTR.WOFFS+4;

   1364  2 000102   000000 222000 xsym               LDX2    FWHDR$
         2 000103   000004 623012                    EAX3    4,X2
         2 000104   000000 743000 xsym               STX3    FWHDR$

     1326     1365    2           END;                            /* DO UNTIL                           */

   1365  2 000105   000024 115007                    CMPA    20,DL
         2 000106   000002 601000 2                  TNZ     s:1341

     1327     1366    1   POFWR2:
     1328     1367    1           RETURN;

   1367  2 000107   000000 702200 xent  POFWR2       TSX2  ! X66_ARET

     1329     1368    1   NOFWRA:
     1330     1369    1           ALTRETURN;

   1369  2 000110   000000 702200 xent  NOFWRA       TSX2  ! X66_AALT
     1331     1370    1   END POFWR;

PL6.E3A0      #011=POFWR File=ISI$ROUT.:E05TSI                                   TUE 07/29/97 22:57 Page:274
--  Include file information  --

   IS$MACROS.:E05TOU  is referenced.
      No diagnostics issued in procedure POFWR.
PL6.E3A0      #011=POFWR File=ISI$ROUT.:E05TSI                                   TUE 07/29/97 22:57 Page:275

 **** Variables and constants ****

  ****  Section 000  Data  POFWR

  ****  Scalars and arrays  ****
OctLoc.c.b A Datatyp(siz) R M Lvl/name                 OctLoc.c.b A Datatyp(siz) R M Lvl/name

     0-0-0/w CHAR(4)     r     1 LABEL

  ****  Auto variables  ****

  ****  Scalars and arrays  ****
OctLoc.c.b A Datatyp(siz) R M Lvl/name                 OctLoc.c.b A Datatyp(siz) R M Lvl/name

     3-0-0/w PTR         r     1 @INDX                      4-0-0/w PTR         r     1 @READ_FLG
     5-0-0/w PTR         r     1 @TAPE_FLG                 *0-0-0/w UBIN        r     1 INDX
    *0-0-0/w BIT         r     1 READ_FLG                  *0-0-0/w BIT         r     1 TAPE_FLG

  ****  SYMREF variables  ****

  ****  Scalars and arrays  ****
OctLoc.c.b A Datatyp(siz) R M Lvl/name                 OctLoc.c.b A Datatyp(siz) R M Lvl/name

     0-0-0/w UBIN        r     1 ACTFWHD#                   0-0-0/w PTR         r     1 FW$
     0-0-0/w PTR         r     1 FWHDR$                     0-0-0/w STRC        r     1 FWHDR_PTR
     0-0-0/w STRC        r     1 FW_PTR                     0-0-0/w UBIN(18)    r     1 MPCINF

  ****  BASED and DCB variables  ****

  ****  Scalars and arrays  ****
OctLoc.c.b A Datatyp(siz) R M Lvl/name                 OctLoc.c.b A Datatyp(siz) R M Lvl/name

     0-0-0/w STRC(144)   r     1 FWHDR


   Procedure POFWR requires 73 words for executable code.
PL6.E3A0      #011=POFWR File=ISI$ROUT.:E05TSI                                   TUE 07/29/97 22:57 Page:276
   Procedure POFWR requires 10 words of local(AUTO) storage.

    No errors detected in file ISI$ROUT.:E05TSI    .
PL6.E3A0      #011=POFWR File=ISI$ROUT.:E05TSI                                   TUE 07/29/97 22:57 Page:277
          *** CROSS REFERENCE LISTING ***
**     DENOTES     IDENTIFIER DEFINITION
<<                 IDENTIFIER'S VALUE SET
>>                 IDENTIFIER'S VALUE USED
<>                 IDENTIFIER SET AND/OR USED
--                 IDENTIFIER REFERENCED
PL6.E3A0      #011=POFWR File=ISI$ROUT.:E05TSI                                   TUE 07/29/97 22:57 Page:278
          MINI XREF LISTING

ACTFWHD#
      1301**DCL      1340>>DOUNTIL  1363<<ASSIGN   1363>>ASSIGN
FW$
      1302**DCL      1314--REDEF
FWHDR.BUFAD
      1295**DCL      1343<<ASSIGN   1352>>ASSIGN   1353>>ASSIGN   1357<<ASSIGN   1357>>ASSIGN
FWHDR.CSOSIZE
      1297**DCL      1350<<ASSIGN   1352>>IF       1352<<ASSIGN   1353>>ASSIGN   1358<<ASSIGN   1358>>ASSIGN
FWHDR.FWNAME
      1299**DCL      1349<<ASSIGN   1355>>IF       1355>>IF
FWHDR.H11
      1294**DCL      1342<<ASSIGN
FWHDR.MMOSIZE
      1298**DCL      1351<<ASSIGN   1353<<ASSIGN
FWHDR$
      1321**DCL      1293--IMP-PTR  1333--REDEF    1342>>ASSIGN   1343>>ASSIGN   1349>>ASSIGN   1350>>ASSIGN
      1351>>ASSIGN   1352>>IF       1352>>ASSIGN   1352>>ASSIGN   1353>>ASSIGN   1353>>ASSIGN   1353>>ASSIGN
      1355>>IF       1355>>IF       1357>>ASSIGN   1357>>ASSIGN   1358>>ASSIGN   1358>>ASSIGN
FWHDR_PTR.WOFFS
      1334**DCL      1364<<ASSIGN   1364>>ASSIGN
FW_PTR.WOFFS
      1315**DCL      1341<<ASSIGN   1341>>ASSIGN   1343>>ASSIGN   1352>>ASSIGN   1353>>ASSIGN
GTFWR
      1288**DCL-ENT  1345--CALL
INDX
      1284**DCL         6--PROC     1345<>CALL
LABEL
      1290**DCL      1344<<ASSIGN   1346>>IF       1349>>ASSIGN
MPCINF
      1291**DCL      1350>>ASSIGN
NOFWRA
      1369**LABEL    1345--CALLALT
PL6.E3A0      #011=POFWR File=ISI$ROUT.:E05TSI                                   TUE 07/29/97 22:57 Page:279
POFWR2
      1367**LABEL    1346--GOTO
READ_FLG
      1286**DCL         6--PROC     1345<>CALL
TAPE_FLG
      1285**DCL         6--PROC     1345<>CALL
