VERSION E05

PL6.E3A0      #001=IS_DATA_IO File=IS_DATA_D.:E05TSI                             TUE 07/29/97 22:58 Page:1
        1        1        /*T***********************************************************/
        2        2        /*T*                                                         */
        3        3        /*T* Copyright (c) Bull HN Information Systems Inc., 1997    */
        4        4        /*T*                                                         */
        5        5        /*T***********************************************************/
        6        6        IS_DATA_IO:PROC;
        7        7        /* This procedure contains IO related data */
        8        8        /**/
        9        9        %INCLUDE IS$MACROS;
       10     1284        %INCLUDE M_INFO_C;
       11     1424    1   DCL AUTOBUF(0:511) BIT(72) STATIC SYMDEF DALIGNED;
       12     1425    1   DCL AUTOSIZEW UBIN CONSTANT SYMDEF INIT(SIZEW(AUTOBUF));
       13     1426        %DEVINFO;
       14     1495    1   DCL DCTLINES(0:%(FRSTCR-FRSTLP-1)) SBIN(18) STATIC SYMDEF INIT(%NLPP*0);
              1495            /* Nr of lines/page */
       15     1496    1   DCL CURR_LINES(0:%(FRSTCR-FRSTLP-1)) SBIN(18) STATIC SYMDEF;
              1496            /* Current nr of lines/page */
       16     1497    1   DCL NSPG(0:%(DIM-FRSTDP-1)) UBIN(18) STATIC SYMDEF INIT(%IM_NSPG*0);
              1497            /* Nr of sectors/granule */
       17     1498    1   DCL SYS_DPX UBIN WORD STATIC SYMDEF INIT(0); /* System disk index in DEVINFO */
       18     1499    1   DCL REC_DPX UBIN WORD STATIC SYMDEF INIT(%(FRSTDP+1));
              1499            /* Recovery disk index in DEVINFO */
       19     1500    1   DCL PO_INDX UBIN WORD STATIC SYMDEF INIT(%DFLTMT); /* PO tape index in DEVINFO */
       20     1501    1   DCL IPO_INDX UBIN WORD STATIC SYMDEF INIT(%DFLTMT); /* PO tape index in DEVINFO */
       21     1502    1   DCL PO_DEVN CHAR(2) STATIC SYMDEF;
       22     1503        %IOM_TAB(NAME=IOMTAB);
       23     1520        %CONNECT_TAB(NAME=CONNECT_TABLE);
       24     1540    1   DCL ADDREXT BIT(1) STATIC SYMDEF INIT('0'B);
       25     1541    1   DCL ADDREXT1 BIT(1) STATIC SYMDEF INIT('0'B);
       26     1542    1   DCL RD_FW_FLG BIT(1) STATIC SYMDEF INIT('0'B);
       27     1543    1   DCL I$CHAIN$ STATIC SYMDEF PTR;
       28     1544        /**/
       29     1545        /* Device Function tables */
       30     1546        /**/
       31     1547        /* OC Function table */
       32     1548    1   DCL OCIDCW(0:3) BIT(36) ALIGNED STATIC INIT('23'O,
       33     1549    1                                               '33'O,
PL6.E3A0      #001=IS_DATA_IO File=IS_DATA_D.:E05TSI                             TUE 07/29/97 22:58 Page:2
       34     1550    1                                               '33'O,
       35     1551    1                                               '23'O);
       36     1552        /* LP Function table */
       37     1553    1   DCL LPIDCW(0:5) BIT(36) ALIGNED STATIC INIT('60000002'O,
       38     1554    1                                               '60000002'O,
       39     1555    1                                               '60000002'O,
       40     1556    1                                               '60000002'O,
       41     1557    1                                               '60000002'O,
       42     1558    1                                               '0301007'O);
       43     1559        /* CR Function table */
       44     1560    1   DCL CRIDCW BIT(36) ALIGNED STATIC INIT('1'O);
       45     1561        /* MT Function table */
       46     1562    1   DCL MTIDCW(0:15) BIT(36) ALIGNED STATIC SYMDEF INIT('05'O,
       47     1563    1                                                       '15'O,
       48     1564    1                                                       '03'O,
       49     1565    1                                                       '13'O,
       50     1566    1                                                       '5400000002'O,
       51     1567    1                                                       '5500000002'O,
       52     1568    1                                                       '6000000002'O,
       53     1569    1                                                       '6500000002'O,
       54     1570    1                                                       '7000000002'O,
       55     1571    1                                                       '7200000002'O,
       56     1572    1                                                       '440000000201'O,
       57     1573    1                                                       '4500000002'O,
       58     1574    1                                                       '460000000201'O,
       59     1575    1                                                       '4700000002'O,
       60     1576    1                                                       '6300000002'O,
       61     1577    1                                                       '4100000002'O);
       62     1578        /* DP Function table */
       63     1579    1   DCL DPIDCW(0:4) BIT(36) ALIGNED STATIC INIT('25'O,
       64     1580    1                                               '31'O,
       65     1581    1                                               '23'O,
       66     1582    1                                               '32'O,
       67     1583    1                                               '24'O);
       68     1584        /**/
       69     1585        /** Handler and Clean_up routines */
       70     1586    1   DCL OCIO ENTRY(2);
PL6.E3A0      #001=IS_DATA_IO File=IS_DATA_D.:E05TSI                             TUE 07/29/97 22:58 Page:3
       71     1587    1   DCL OCCU ENTRY(2) ALTRET;
       72     1588    1   DCL LPIO ENTRY(2) ALTRET;
       73     1589    1   DCL LPCU ENTRY(1) ALTRET;
       74     1590    1   DCL CRIO ENTRY;
       75     1591    1   DCL CRCU ENTRY(2) ALTRET;
       76     1592    1   DCL MTIO ENTRY;
       77     1593    1   DCL MTCU ENTRY(2) ALTRET;
       78     1594    1   DCL DPIO ENTRY(3);
       79     1595    1   DCL DPCU ENTRY(1) ALTRET;
       80     1596        /* MESSAGES */
       81     1597    1   DCL 1 ANSBUF STATIC SYMDEF,  /* Answer buffer */
       82     1598    1         2 CNT UBIN WORD INIT(16),
       83     1599    1         2 TXT CHAR(16) INIT(' ');
       84     1600        %TEXTC(N#=OCCUM,M#="'Typewriter error, RE-ENTER message'");
       85     1605        /**/
       86     1606    1   DCL TIGRPA BIT(1) STATIC SYMDEF INIT('0'B);
       87     1607    1   DCL MONPA BIT(1) STATIC SYMDEF INIT('0'B);
       88     1608    1   DCL RUMPA BIT(1) STATIC SYMDEF INIT('0'B);
       89     1609    1   DCL PLVPA BIT(1)STATIC SYMDEF INIT('0'B);
       90     1610    1   DCL BTMPA BIT(1)STATIC SYMDEF INIT('0'B);
       91     1611    1   DCL RPB_FLAG BIT(1)STATIC SYMDEF INIT('0'B);
       92     1612    1   DCL 1 ORDBFLG STATIC SYMDEF,
       93     1613    1         2 ORF BIT(1) INIT('0'B),
       94     1614    1         2 DBF BIT(1) INIT('0'B),
       95     1615    1         2 * BIT(34) INIT('0'B);
       96     1616    1   DCL 1 RCV_FLG STATIC SYMDEF,
       97     1617    1         2 RC BIT(1) INIT('0'B),
       98     1618    1         2 DB BIT(1) INIT('0'B),
       99     1619    1         2 RBD BIT(1) INIT('0'B),  /* Rebooted from disk */
      100     1620    1         2 RBO BIT(1) INIT('0'B);  /* Rebooted for op rec */
      101     1621    1   DCL VOFLG BIT(1) STATIC SYMDEF;
      102     1622    1   DCL 1 ADPXF STATIC SYMDEF,
      103     1623    1         2 A BIT(1) INIT('0'B),
      104     1624    1         2 D BIT(1) INIT('0'B),
      105     1625    1         2 P BIT(1) INIT('0'B),
      106     1626    1         2 X BIT(1) INIT('0'B),
      107     1627    1         2 F BIT(1) INIT('0'B);
PL6.E3A0      #001=IS_DATA_IO File=IS_DATA_D.:E05TSI                             TUE 07/29/97 22:58 Page:4
      108     1628    1   DCL 1 NF_FLG STATIC SYMDEF,/* New Files,Recon,etc */
      109     1629    1         2 RECON BIT(1) INIT('0'B),
      110     1630    1         2 NONEW BIT(1) INIT('0'B),
      111     1631    1         2 S BIT(1) INIT('0'B);
      112     1632    1   DCL TOPDA UBIN WORD STATIC SYMDEF INIT(0); /* Highest disk address */
      113     1633    1   DCL PDEV UBIN WORD STATIC SYMDEF INIT(0); /* Flag for MINI to read patches */
      114     1634    1   DCL MONPLL UBIN WORD STATIC SYMDEF;
      115     1635    1   DCL XDFLAG UBIN WORD STATIC SYMDEF INIT(0);
      116     1636    1   DCL NAVDA UBIN WORD STATIC SYMDEF INIT(0);
              1636            /* Next available seek address (full word) */
      117     1637    1   DCL NAVDW UBIN WORD STATIC SYMDEF INIT(0); /* Next available double word */
      118     1638    1   DCL NAV8W UBIN WORD STATIC SYMDEF INIT(0); /* Next available 8-word boundary */
      119     1639    1   DCL NAVPG UBIN WORD STATIC SYMDEF INIT(0); /* Next available page(word address */
      120     1640    1   DCL CSOC BIT(36) STATIC SYMDEF ALIGNED INIT('1'O);
              1640            /* MPC Control store overlay command */
      121     1641    1   DCL MMOC BIT(36) STATIC SYMDEF ALIGNED INIT('11'O);
              1641            /* MPC Main memory overlay command */
      122     1642    1   DCL EFMC BIT(36) STATIC SYMDEF ALIGNED INIT('05'O); /* Enter firmware command */
      123     1643    1   DCL LDFWC BIT(36) STATIC SYMDEF ALIGNED INIT('360000704'O);
              1643            /* Load device firmware command */
      124     1644    1   DCL RELDEV BIT(36) STATIC SYMDEF ALIGNED INIT('670100004'O);
              1644            /* Release device command */
      125     1645        /* Table with dev indexes in DEVINFO for external calls to MINIQ */
      126     1646    1   DCL INDXT(0:6) UBIN WORD STATIC SYMDEF
      127     1647    1                  INIT(0,                     /* Not used device */
      128     1648    1                       0,                     /* Console */
      129     1649    1                       %FRSTLP,               /* Line printer */
      130     1650    1                       0,                     /* Not used device */
      131     1651    1                       %FRSTCR,               /* Card reader */
      132     1652    1                       %FRSTMT,               /* Tape */
      133     1653    1                       %FRSTDP);              /* Disk */
      134     1654    1   DCL BOOTTAPE UBIN WORD STATIC SYMDEF INIT(%DFLTMT);
      135     1655    1   DCL FRSTDISK UBIN WORD STATIC SYMDEF INIT(%FRSTDP);
      136     1656    1   DCL 1 FPMC STATIC SYMDEF,
      137     1657    1         2 RPN UBIN(18) UNAL INIT (%FPMC),
      138     1658    1         2 * BIT(18) UNAL INIT('0'B);
      139     1659        /*   RPM specific data */
PL6.E3A0      #001=IS_DATA_IO File=IS_DATA_D.:E05TSI                             TUE 07/29/97 22:58 Page:5
      140     1660    1   DCL CH3_CONS_DCWS(0:3) UBIN WORD STATIC SYMDEF;  /* DCW area for CH3 use */
      141     1661    1   DCL CONS_DCWS(0:3) UBIN WORD STATIC SYMDEF;  /* DCW area for Cons use */
      142     1662    1   DCL   FW_LOAD(0:511) BIT(1) UNAL STATIC SYMDEF INIT('1'B*0);
      143     1663    1   DCL   CHN_CFG(0:511) BIT(1) UNAL STATIC SYMDEF INIT('0'B*0);
      144     1664    1   DCL   1 HW_LD_FLAG STATIC SYMDEF CALIGNED,
      145     1665    1           2 CR_FW BIT(1) UNAL INIT('1'B),
      146     1666    1           2 DISK_FW BIT(1) UNAL INIT('1'B),
      147     1667    1           2 LP_FW BIT(1) UNAL INIT('1'B),
      148     1668    1           2 TAPE_FW BIT(1) UNAL INIT('1'B),
      149     1669    1           2 * BIT(5) UNAL;
      150     1670    1   DCL   HW_RPM_CFG BIT(1) STATIC SYMDEF INIT('1'B);
      151     1671        %IMX_MBX(NAME=PATT_MBX);   /*  PATTERN MAILBOX */
      152     1728        %MCA_CFG;
      153     1838    1   DCL   RPM_CONSOLE SBIN WORD STATIC SYMDEF INIT(-1);
      154     1839    1   DCL SH_DCWS(0:3) UBIN WORD STATIC SYMDEF;  /* DCW area for shared use */
      155     1840    1   DCL IS_PPUT_SIZE UBIN WORD STATIC SYMDEF INIT(0); /* REAL SIZE OF PPUT*/
      156     1841    1   DCL IS_CFG_NAME CHAR(12) STATIC SYMDEF INIT(' ') ;  /* CONFIGURATION FILE */
      157     1842    1   DCL IS_MEM_SIDE1 BIT(1) STATIC SYMDEF INIT('0'B);
              1842            /* 0 - LOW MEM SIDE 0, '1'B LOW MEM SIDE 1 */
      158     1843    1   DCL IS_CSP_SIDE1 BIT(1) STATIC SYMDEF INIT('0'B);
              1843            /* 0 - CSP SIDE 0, '1'B - CSP SIDE 1 */
      159     1844    1   DCL IS_CFG_TYPE UBIN WORD STATIC SYMDEF INIT(0); /* 0 -HALF, 1-TANDEM, 2-RELEASED */
      160     1845    1   END IS_DATA_IO;

PL6.E3A0      #001=IS_DATA_IO File=IS_DATA_D.:E05TSI                             TUE 07/29/97 22:58 Page:6
--  Include file information  --

   M_INFO_C.:E05TOU  is referenced.
   IS$MACROS.:E05TOU  is referenced.
      No diagnostics issued in procedure IS_DATA_IO.

   No code generated for procedure IS_DATA_IO .
   Procedure IS_DATA_IO requires 4 words of local(AUTO) storage.

    No errors detected in file IS_DATA_D.:E05TSI    .

PL6.E3A0      #001=IS_DATA_IO File=IS_DATA_D.:E05TSI                             TUE 07/29/97 22:58 Page:7

 Object Unit name= IS_DATA_IO                                 File name= IS_DATA_D.:E05TOU
 UTS= JUL 29 '97 22:58:08.56 TUE                              Compiler= PL-6/E31         Sev=      00
 SharedLib= :SHARED_SYSTEM                                    Alt SharedLib=


    ****  Control sections  ****

 Sect   Type Bound  Init  Size OctSiz  Section name(segment info)
    0   Data  even  none  1877   3525  IS_DATA_IO
    1  RoData even  UTS      1      1  IS_DATA_IO
    2   Proc  even  none     0      0  IS_DATA_IO

    ****  Entry defs  ****

                              Check   Calling
                             calling  sequence
  Sect OctLoc Primary Altret sequence   type   Parms  Name
     2      0   yes            yes     ~proc       0  IS_DATA_IO
PL6.E3A0      #001=IS_DATA_IO File=IS_DATA_D.:E05TSI                             TUE 07/29/97 22:58 Page:8

  ****  Data defs  ****

 Sect OctLoc  Name                           Sect OctLoc  Name
    0      0  AUTOBUF                            1      0  AUTOSIZEW
    0   2000  DEVINFO                            0   2410  DCTLINES
    0   2411  CURR_LINES                         0   2412  NSPG
    0   2414  SYS_DPX                            0   2415  REC_DPX
    0   2416  PO_INDX                            0   2417  IPO_INDX
    0   2420  PO_DEVN                            0   2421  IOMTAB
    0   2426  CONNECT_TABLE                      0   2436  ADDREXT
    0   2437  ADDREXT1                           0   2440  RD_FW_FLG
    0   2441  I$CHAIN$                           0   2455  MTIDCW
    0   2502  ANSBUF                             0   2507  OCCUM
    0   2521  TIGRPA                             0   2522  MONPA
    0   2523  RUMPA                              0   2524  PLVPA
    0   2525  BTMPA                              0   2526  RPB_FLAG
    0   2527  ORDBFLG                            0   2530  RCV_FLG
    0   2531  VOFLG                              0   2532  ADPXF
    0   2533  NF_FLG                             0   2534  TOPDA
    0   2535  PDEV                               0   2536  MONPLL
    0   2537  XDFLAG                             0   2540  NAVDA
    0   2541  NAVDW                              0   2542  NAV8W
    0   2543  NAVPG                              0   2544  CSOC
    0   2545  MMOC                               0   2546  EFMC
    0   2547  LDFWC                              0   2550  RELDEV
    0   2551  INDXT                              0   2560  BOOTTAPE
    0   2561  FRSTDISK                           0   2562  FPMC
    0   2563  CH3_CONS_DCWS                      0   2567  CONS_DCWS
    0   2573  FW_LOAD                            0   2612  CHN_CFG
    0   2631  HW_LD_FLAG                         0   2632  HW_RPM_CFG
    0   2633  PATT_MBX                           0   2663  MCA_CFG
    0   3511  RPM_CONSOLE                        0   3512  SH_DCWS
    0   3516  IS_PPUT_SIZE                       0   3517  IS_CFG_NAME
    0   3522  IS_MEM_SIDE1                       0   3523  IS_CSP_SIDE1
    0   3524  IS_CFG_TYPE
PL6.E3A0      #001=IS_DATA_IO File=IS_DATA_D.:E05TSI                             TUE 07/29/97 22:58 Page:9

  ****  Entry refs  ****

         Check        Calling
        calling       sequence
Altret sequence SRef   type   Args  Name
         yes           Std       2 OCIO
 yes     yes           Std       2 LPIO
         yes           Std       3 DPIO
 yes     yes           Std       1 LPCU
         yes           Std       0 CRIO
         yes           Std       0 MTIO
 yes     yes           Std       2 OCCU
 yes     yes           Std       2 MTCU
 yes     yes           Std       2 CRCU
 yes     yes           Std       1 DPCU

  ****  Segment refs  ****

  Flags:  r = read only, s = secondary
Flgs Name                             Flgs Name                             Flgs Name
     ISSID
PL6.E3A0      #001=IS_DATA_IO File=IS_DATA_D.:E05TSI                             TUE 07/29/97 22:58 Page:10

        1        1        /*T***********************************************************/
        2        2        /*T*                                                         */
        3        3        /*T* Copyright (c) Bull HN Information Systems Inc., 1997    */
        4        4        /*T*                                                         */
        5        5        /*T***********************************************************/
        6        6        IS_DATA_IO:PROC;
        7        7        /* This procedure contains IO related data */
        8        8        /**/
        9        9        %INCLUDE IS$MACROS;
       10     1284        %INCLUDE M_INFO_C;
       11     1424    1   DCL AUTOBUF(0:511) BIT(72) STATIC SYMDEF DALIGNED;
       12     1425    1   DCL AUTOSIZEW UBIN CONSTANT SYMDEF INIT(SIZEW(AUTOBUF));
       13     1426        %DEVINFO;
       14     1495    1   DCL DCTLINES(0:%(FRSTCR-FRSTLP-1)) SBIN(18) STATIC SYMDEF INIT(%NLPP*0);
              1495            /* Nr of lines/page */
       15     1496    1   DCL CURR_LINES(0:%(FRSTCR-FRSTLP-1)) SBIN(18) STATIC SYMDEF;
              1496            /* Current nr of lines/page */
       16     1497    1   DCL NSPG(0:%(DIM-FRSTDP-1)) UBIN(18) STATIC SYMDEF INIT(%IM_NSPG*0);
              1497            /* Nr of sectors/granule */
       17     1498    1   DCL SYS_DPX UBIN WORD STATIC SYMDEF INIT(0); /* System disk index in DEVINFO */
       18     1499    1   DCL REC_DPX UBIN WORD STATIC SYMDEF INIT(%(FRSTDP+1));
              1499            /* Recovery disk index in DEVINFO */
       19     1500    1   DCL PO_INDX UBIN WORD STATIC SYMDEF INIT(%DFLTMT); /* PO tape index in DEVINFO */
       20     1501    1   DCL IPO_INDX UBIN WORD STATIC SYMDEF INIT(%DFLTMT); /* PO tape index in DEVINFO */
       21     1502    1   DCL PO_DEVN CHAR(2) STATIC SYMDEF;
       22     1503        %IOM_TAB(NAME=IOMTAB);
       23     1520        %CONNECT_TAB(NAME=CONNECT_TABLE);
       24     1540    1   DCL ADDREXT BIT(1) STATIC SYMDEF INIT('0'B);
       25     1541    1   DCL ADDREXT1 BIT(1) STATIC SYMDEF INIT('0'B);
       26     1542    1   DCL RD_FW_FLG BIT(1) STATIC SYMDEF INIT('0'B);
       27     1543    1   DCL I$CHAIN$ STATIC SYMDEF PTR;
       28     1544        /**/
       29     1545        /* Device Function tables */
       30     1546        /**/
       31     1547        /* OC Function table */
       32     1548    1   DCL OCIDCW(0:3) BIT(36) ALIGNED STATIC INIT('23'O,
       33     1549    1                                               '33'O,
PL6.E3A0      #001=IS_DATA_IO File=IS_DATA_D.:E05TSI                             TUE 07/29/97 22:58 Page:11
       34     1550    1                                               '33'O,
       35     1551    1                                               '23'O);
       36     1552        /* LP Function table */
       37     1553    1   DCL LPIDCW(0:5) BIT(36) ALIGNED STATIC INIT('60000002'O,
       38     1554    1                                               '60000002'O,
       39     1555    1                                               '60000002'O,
       40     1556    1                                               '60000002'O,
       41     1557    1                                               '60000002'O,
       42     1558    1                                               '0301007'O);
       43     1559        /* CR Function table */
       44     1560    1   DCL CRIDCW BIT(36) ALIGNED STATIC INIT('1'O);
       45     1561        /* MT Function table */
       46     1562    1   DCL MTIDCW(0:15) BIT(36) ALIGNED STATIC SYMDEF INIT('05'O,
       47     1563    1                                                       '15'O,
       48     1564    1                                                       '03'O,
       49     1565    1                                                       '13'O,
       50     1566    1                                                       '5400000002'O,
       51     1567    1                                                       '5500000002'O,
       52     1568    1                                                       '6000000002'O,
       53     1569    1                                                       '6500000002'O,
       54     1570    1                                                       '7000000002'O,
       55     1571    1                                                       '7200000002'O,
       56     1572    1                                                       '440000000201'O,
       57     1573    1                                                       '4500000002'O,
       58     1574    1                                                       '460000000201'O,
       59     1575    1                                                       '4700000002'O,
       60     1576    1                                                       '6300000002'O,
       61     1577    1                                                       '4100000002'O);
       62     1578        /* DP Function table */
       63     1579    1   DCL DPIDCW(0:4) BIT(36) ALIGNED STATIC INIT('25'O,
       64     1580    1                                               '31'O,
       65     1581    1                                               '23'O,
       66     1582    1                                               '32'O,
       67     1583    1                                               '24'O);
       68     1584        /**/
       69     1585        /** Handler and Clean_up routines */
       70     1586    1   DCL OCIO ENTRY(2);
PL6.E3A0      #001=IS_DATA_IO File=IS_DATA_D.:E05TSI                             TUE 07/29/97 22:58 Page:12
       71     1587    1   DCL OCCU ENTRY(2) ALTRET;
       72     1588    1   DCL LPIO ENTRY(2) ALTRET;
       73     1589    1   DCL LPCU ENTRY(1) ALTRET;
       74     1590    1   DCL CRIO ENTRY;
       75     1591    1   DCL CRCU ENTRY(2) ALTRET;
       76     1592    1   DCL MTIO ENTRY;
       77     1593    1   DCL MTCU ENTRY(2) ALTRET;
       78     1594    1   DCL DPIO ENTRY(3);
       79     1595    1   DCL DPCU ENTRY(1) ALTRET;
       80     1596        /* MESSAGES */
       81     1597    1   DCL 1 ANSBUF STATIC SYMDEF,  /* Answer buffer */
       82     1598    1         2 CNT UBIN WORD INIT(16),
       83     1599    1         2 TXT CHAR(16) INIT(' ');
       84     1600        %TEXTC(N#=OCCUM,M#="'Typewriter error, RE-ENTER message'");
       85     1605        /**/
       86     1606    1   DCL TIGRPA BIT(1) STATIC SYMDEF INIT('0'B);
       87     1607    1   DCL MONPA BIT(1) STATIC SYMDEF INIT('0'B);
       88     1608    1   DCL RUMPA BIT(1) STATIC SYMDEF INIT('0'B);
       89     1609    1   DCL PLVPA BIT(1)STATIC SYMDEF INIT('0'B);
       90     1610    1   DCL BTMPA BIT(1)STATIC SYMDEF INIT('0'B);
       91     1611    1   DCL RPB_FLAG BIT(1)STATIC SYMDEF INIT('0'B);
       92     1612    1   DCL 1 ORDBFLG STATIC SYMDEF,
       93     1613    1         2 ORF BIT(1) INIT('0'B),
       94     1614    1         2 DBF BIT(1) INIT('0'B),
       95     1615    1         2 * BIT(34) INIT('0'B);
       96     1616    1   DCL 1 RCV_FLG STATIC SYMDEF,
       97     1617    1         2 RC BIT(1) INIT('0'B),
       98     1618    1         2 DB BIT(1) INIT('0'B),
       99     1619    1         2 RBD BIT(1) INIT('0'B),  /* Rebooted from disk */
      100     1620    1         2 RBO BIT(1) INIT('0'B);  /* Rebooted for op rec */
      101     1621    1   DCL VOFLG BIT(1) STATIC SYMDEF;
      102     1622    1   DCL 1 ADPXF STATIC SYMDEF,
      103     1623    1         2 A BIT(1) INIT('0'B),
      104     1624    1         2 D BIT(1) INIT('0'B),
      105     1625    1         2 P BIT(1) INIT('0'B),
      106     1626    1         2 X BIT(1) INIT('0'B),
      107     1627    1         2 F BIT(1) INIT('0'B);
PL6.E3A0      #001=IS_DATA_IO File=IS_DATA_D.:E05TSI                             TUE 07/29/97 22:58 Page:13
      108     1628    1   DCL 1 NF_FLG STATIC SYMDEF,/* New Files,Recon,etc */
      109     1629    1         2 RECON BIT(1) INIT('0'B),
      110     1630    1         2 NONEW BIT(1) INIT('0'B),
      111     1631    1         2 S BIT(1) INIT('0'B);
      112     1632    1   DCL TOPDA UBIN WORD STATIC SYMDEF INIT(0); /* Highest disk address */
      113     1633    1   DCL PDEV UBIN WORD STATIC SYMDEF INIT(0); /* Flag for MINI to read patches */
      114     1634    1   DCL MONPLL UBIN WORD STATIC SYMDEF;
      115     1635    1   DCL XDFLAG UBIN WORD STATIC SYMDEF INIT(0);
      116     1636    1   DCL NAVDA UBIN WORD STATIC SYMDEF INIT(0);
              1636            /* Next available seek address (full word) */
      117     1637    1   DCL NAVDW UBIN WORD STATIC SYMDEF INIT(0); /* Next available double word */
      118     1638    1   DCL NAV8W UBIN WORD STATIC SYMDEF INIT(0); /* Next available 8-word boundary */
      119     1639    1   DCL NAVPG UBIN WORD STATIC SYMDEF INIT(0); /* Next available page(word address */
      120     1640    1   DCL CSOC BIT(36) STATIC SYMDEF ALIGNED INIT('1'O);
              1640            /* MPC Control store overlay command */
      121     1641    1   DCL MMOC BIT(36) STATIC SYMDEF ALIGNED INIT('11'O);
              1641            /* MPC Main memory overlay command */
      122     1642    1   DCL EFMC BIT(36) STATIC SYMDEF ALIGNED INIT('05'O); /* Enter firmware command */
      123     1643    1   DCL LDFWC BIT(36) STATIC SYMDEF ALIGNED INIT('360000704'O);
              1643            /* Load device firmware command */
      124     1644    1   DCL RELDEV BIT(36) STATIC SYMDEF ALIGNED INIT('670100004'O);
              1644            /* Release device command */
      125     1645        /* Table with dev indexes in DEVINFO for external calls to MINIQ */
      126     1646    1   DCL INDXT(0:6) UBIN WORD STATIC SYMDEF
      127     1647    1                  INIT(0,                     /* Not used device */
      128     1648    1                       0,                     /* Console */
      129     1649    1                       %FRSTLP,               /* Line printer */
      130     1650    1                       0,                     /* Not used device */
      131     1651    1                       %FRSTCR,               /* Card reader */
      132     1652    1                       %FRSTMT,               /* Tape */
      133     1653    1                       %FRSTDP);              /* Disk */
      134     1654    1   DCL BOOTTAPE UBIN WORD STATIC SYMDEF INIT(%DFLTMT);
      135     1655    1   DCL FRSTDISK UBIN WORD STATIC SYMDEF INIT(%FRSTDP);
      136     1656    1   DCL 1 FPMC STATIC SYMDEF,
      137     1657    1         2 RPN UBIN(18) UNAL INIT (%FPMC),
      138     1658    1         2 * BIT(18) UNAL INIT('0'B);
      139     1659        /*   RPM specific data */
PL6.E3A0      #001=IS_DATA_IO File=IS_DATA_D.:E05TSI                             TUE 07/29/97 22:58 Page:14
      140     1660    1   DCL CH3_CONS_DCWS(0:3) UBIN WORD STATIC SYMDEF;  /* DCW area for CH3 use */
      141     1661    1   DCL CONS_DCWS(0:3) UBIN WORD STATIC SYMDEF;  /* DCW area for Cons use */
      142     1662    1   DCL   FW_LOAD(0:511) BIT(1) UNAL STATIC SYMDEF INIT('1'B*0);
      143     1663    1   DCL   CHN_CFG(0:511) BIT(1) UNAL STATIC SYMDEF INIT('0'B*0);
      144     1664    1   DCL   1 HW_LD_FLAG STATIC SYMDEF CALIGNED,
      145     1665    1           2 CR_FW BIT(1) UNAL INIT('1'B),
      146     1666    1           2 DISK_FW BIT(1) UNAL INIT('1'B),
      147     1667    1           2 LP_FW BIT(1) UNAL INIT('1'B),
      148     1668    1           2 TAPE_FW BIT(1) UNAL INIT('1'B),
      149     1669    1           2 * BIT(5) UNAL;
      150     1670    1   DCL   HW_RPM_CFG BIT(1) STATIC SYMDEF INIT('1'B);
      151     1671        %IMX_MBX(NAME=PATT_MBX);   /*  PATTERN MAILBOX */
      152     1728        %MCA_CFG;
      153     1838    1   DCL   RPM_CONSOLE SBIN WORD STATIC SYMDEF INIT(-1);
      154     1839    1   DCL SH_DCWS(0:3) UBIN WORD STATIC SYMDEF;  /* DCW area for shared use */
      155     1840    1   DCL IS_PPUT_SIZE UBIN WORD STATIC SYMDEF INIT(0); /* REAL SIZE OF PPUT*/
      156     1841    1   DCL IS_CFG_NAME CHAR(12) STATIC SYMDEF INIT(' ') ;  /* CONFIGURATION FILE */
      157     1842    1   DCL IS_MEM_SIDE1 BIT(1) STATIC SYMDEF INIT('0'B);
              1842            /* 0 - LOW MEM SIDE 0, '1'B LOW MEM SIDE 1 */
      158     1843    1   DCL IS_CSP_SIDE1 BIT(1) STATIC SYMDEF INIT('0'B);
              1843            /* 0 - CSP SIDE 0, '1'B - CSP SIDE 1 */
      159     1844    1  DCL IS_CFG_TYPE UBIN WORD STATIC SYMDEF INIT(0); /* 0 -HALF, 1-TANDEM, 2-RELEASED */
      160     1845    1   END IS_DATA_IO;

PL6.E3A0      #001=IS_DATA_IO File=IS_DATA_D.:E05TSI                             TUE 07/29/97 22:58 Page:15
--  Include file information  --

   M_INFO_C.:E05TOU  is referenced.
   IS$MACROS.:E05TOU  is referenced.
      No diagnostics issued in procedure IS_DATA_IO.
PL6.E3A0      #001=IS_DATA_IO File=IS_DATA_D.:E05TSI                             TUE 07/29/97 22:58 Page:16

 **** Variables and constants ****

  ****  Section 000  Data  IS_DATA_IO

  ****  Scalars and arrays  ****
OctLoc.c.b A Datatyp(siz) R M Lvl/name                 OctLoc.c.b A Datatyp(siz) R M Lvl/name

     0-0-0/d BIT (72)    r     1 AUTOBUF(0:511)          2454-0-0/w BIT         r     1 CRIDCW
  2475-0-0/w BIT         r     1 DPIDCW(0:4)             2446-0-0/w BIT         r     1 LPIDCW(0:5)
  2455-0-0/w BIT         r     1 MTIDCW(0:15)            2442-0-0/w BIT         r     1 OCIDCW(0:3)


   No code generated for procedure IS_DATA_IO .
   Procedure IS_DATA_IO requires 4 words of local(AUTO) storage.

    No errors detected in file IS_DATA_D.:E05TSI    .
PL6.E3A0      #001=IS_DATA_IO File=IS_DATA_D.:E05TSI                             TUE 07/29/97 22:58 Page:17
          *** CROSS REFERENCE LISTING ***
**     DENOTES     IDENTIFIER DEFINITION
<<                 IDENTIFIER'S VALUE SET
>>                 IDENTIFIER'S VALUE USED
<>                 IDENTIFIER SET AND/OR USED
--                 IDENTIFIER REFERENCED
PL6.E3A0      #001=IS_DATA_IO File=IS_DATA_D.:E05TSI                             TUE 07/29/97 22:58 Page:18
          MINI XREF LISTING

AUTOBUF
      1424**DCL      1425--DCLINIT
CRCU
      1591**DCL-ENT  1489--DCLINIT
CRIDCW
      1560**DCL      1491--DCLINIT
CRIO
      1590**DCL-ENT  1487--DCLINIT
DEVINFO.PCWS
      1442**DCL      1453--REDEF
DEVINFO.RPM_PTRS.EF_DCWS$
      1455**DCL      1456--REDEF
DEVINFO.STATUS
      1459**DCL      1478--REDEF
DPCU
      1595**DCL-ENT  1490--DCLINIT
DPIDCW
      1579**DCL      1492--DCLINIT
DPIO
      1594**DCL-ENT  1488--DCLINIT
LPCU
      1589**DCL-ENT  1489--DCLINIT
LPIDCW
      1553**DCL      1491--DCLINIT
LPIO
      1588**DCL-ENT  1487--DCLINIT
MCA_CFG.LEVEL_1.CONSOLE_CNTL
      1800**DCL      1806--REDEF    1810--REDEF
MTCU
      1593**DCL-ENT  1490--DCLINIT
MTIDCW
      1562**DCL      1492--DCLINIT
PL6.E3A0      #001=IS_DATA_IO File=IS_DATA_D.:E05TSI                             TUE 07/29/97 22:58 Page:19
MTIO
      1592**DCL-ENT  1488--DCLINIT
OCCU
      1587**DCL-ENT  1489--DCLINIT
OCIDCW
      1548**DCL      1491--DCLINIT
OCIO
      1586**DCL-ENT  1487--DCLINIT
PATT_MBX.STATUS.W8
      1712**DCL      1715--REDEF
