VERSION E05

 22:58 07/29/97  FILE=ITB$BEGIN.:E05TSI                                                                  1    BMAP - B00
                                         1  *M*    TIGR initialization routine
                                         2  *T***********************************************************
                                         3  *T*                                                         *
                                         4  *T* Copyright (c) Bull HN Information Systems Inc., 1997    *
                                         5  *T*                                                         *
                                         6  *T***********************************************************
                                         7         ENTDEF  ITB$BEGIN
                                         8         SYMDEF  MONECCB
                                         9  *
                                        10         ENTREF  ITT$TIGR
                                        11         ENTREF  S_REGR
                                        12         ENTREF  IRM$SCREECH
                                        13         ENTREF  IRM$RETURN
                                        14         ENTREF  UDA$SSPATCH
                                        15         ENTREF  HFA$FAULT
                                        16         ENTREF  HFA$XDELRTN
                                        17         ENTREF  HFC$CPUTYPE
                                        18         ENTREF  UDE$FPTCHK
                                        19         ENTREF  X66_MSTATIC
                                        20  *
                                        21         SYMREF  S_MPSTATE
                                        22         SYMREF  S_TIMR
                                        23         SYMREF  S_PORTNR
                                        24         SYMREF  S_CNODE
                                        25         SYMREF  IT_CP6UP
                                        26         SYMREF  IT_CLOCKOK
                                        27         SYMREF  IT_BOOTFLAG
                                        28         SYMREF  HW_TYPE
                                        29         SYMREF  H_MEMOK
                                        30         SYMREF  IT_MONFAULT
                                        31         SYMREF  IT_OLDPORT
                                        32         SYMREF  B$MONTSTACK$    MON TSTACK DESCRIPTOR
                                        33         SYMREF  B$TSTACK$       GHOST1 TSTACK DESCRIPTOR
                                        34  *
                                        35         SEGREF  ISSID
                                        36         SEGREF  TSTACKSID
                                        37         SEGREF  REALSID
 22:58 07/29/97  FILE=ITB$BEGIN.:E05TSI                                                                  2    BMAP - B00
                                        38         SEGREF  MJITSID
                                        39         SEGREF  LSSID
                                        40         SEGREF  SCUSID
                                        41  *
                                        42         LODM    B_BMACROS_C
                                        43         DETAIL  OFF
             000000000000               44         MONLS
                                        45         DETAIL  ON
                                        46  *
             000000000034               47  PMMLOC BOOL    34              ADDRESS OF PMME ENTRY DESC IN LOW REAL
             000000000032               48  FLTLOC BOOL    32              ADDRESS OF FAULT ENTRY DESC IN LOW REAL
             000000000040               49  AFLTLC BOOL    40              DITTO ALTERNATE FAULT ENTRY
             000000000002               50  CPURUN EQU     2
             0000 00 2 77 00 0 3        51  ZOP     OPD    12/0,6/0,2/2,O6/77,6/0,2/0,2/3
                                        52          EVEN
 0 000000    000000045605               53  MAXCL   OCT    000000045605,777232101700
   000001    777232101700
                                        54                 *************************************************
                                        55                 * CPU TYPE DEFINITIONS
                                        56                 *************************************************
             000000000000               57  OLD    EQU     0
             000000000004               58  DPS90  EQU     4
             000000000005               59  DPS90XA EQU    5
             000000000006               60  RPM    EQU     6
                                        61  *
                                        62  *      AARDVARK HAS INITIALIZED THE FOLLOWING MONITOR DATA
                                        63  *
                                        64  *      MM_FPPH,MM_FPPT,MM_FPPC   FREE PAGE CHAIN
                                        65  *      IT_AAFAULT                HIS ENTRY DESCRIPTOR
                                        66  *      FM_POTAPE,FM_SYSDP        SYSTEM DISC AND PO TAPE UNIT
                                        67  *      IT_XDELTA                 ALLOW DELTA KEYINS
                                        68  *      IT_BOOTFLAG               TYPE OF BOOT
                                        69  *      HW_TYPE                   TYPE OF HARDWARE(0,4,5,6)
                                        70  *
                                        71  *
                                        72  *
 2 000000                               73         USE     ITB$BEGIN,1
 22:58 07/29/97  FILE=ITB$BEGIN.:E05TSI                                                                  3    BMAP - B00
   000000                               74  ITB$BEGIN NULL
   000000  X 000000 4500 00             75         STZ     IT_CP6UP        ZERO SYSTEM UP FLAG
   000001  X 000000 4500 00             76         STZ     IT_CLOCKOK      ZERO CLOCK OK FLAG
   000002  X 000000 4500 00             77         STZ     H_MEMOK        ZERO MEM CONFIG OK FLAG
   000003  X 000000 2350 00             78         LDA     IT_BOOTFLAG     GET BOOTFLAG TO SEE IF CLOCK IS OK
   000004    000011 1150 07             79         CMPA    9,DL            IF WE ARE GOING THRU RECOVERY...
   000005 (2)000024 6010 00             80         TNZ     SKIP_CLOCK_CHECK            ...CLOCK IS OK,
   000006    000001 3350 07             81         LCA     1,DL            SO RESET...
   000007  X 000000 7550 00             82         STA     IT_CLOCKOK      ...IT_CLOCKOK.
   000010  X 000000 2350 00             83         LDA     HW_TYPE         WHAT HARDWARE IS IT
   000011    000004 1150 07             84         CMPA    DPS90,DL        90?
   000012 (2)000024 6000 00             85         TZE     SKIP_CLOCK_CHECK
   000013    000005 1150 07             86         CMPA    DPS90XA,DL     90 XA
   000014 (2)000024 6000 00             87         TZE     SKIP_CLOCK_CHECK
   000015  X 000000 4704 07             88         LDP0    SCUSID,DL
   000016    0 00040 4131 00            89         RSCR    32,,0
   000017 (0)000000 1170 00             90         CMPAQ   MAXCL
   000020 (2)000024 6040 00             91         TMI     SKIP_CLOCK_CHECK
   000021    000000 2350 07             92         LDA     0,DL            ZERO OUT THE CLOCK
   000022    000000 2360 07             93         LDQ     0,DL
   000023    0 00040 0571 00            94         SSCR    32,,0           SET THE CLOCK
   000024                               95  SKIP_CLOCK_CHECK NULL
   000024    000002 2350 07             96         LDA     CPURUN,DL
   000025  X 000000 7550 00             97         STA     S_MPSTATE       SET MASTER RUNNING
   000026    000002 2350 07             98         LDA     2,DL
   000027  X 000000 7550 00             99         STA     S_TIMR          SET ACCNTG MODE TO MON EXECUTION
   000030  X 000000 4500 00            100         STZ     S_CNODE         NO CURRENT NODE
                                       101  *
                                       102  * SETUP CPU TYPE
                                       103  *
   000031  X 000000 7010 00            104         TSX1    HFC$CPUTYPE     READ PROC ID AND SET S_PTYPE
   000032    000000 0110 00            105         NOP
   000033  X 000000 4704 07            106         LDP0    LSSID,DL        MON LS DESC
   000034  X 000000 4724 07            107         LDP2    REALSID,DL      LOW REAL DESC
                                       108  *
                                       109  * SET UP THE FAULT HANDLER
                                       110  *
 22:58 07/29/97  FILE=ITB$BEGIN.:E05TSI                                                                  4    BMAP - B00
   000035    0 00332 2371 00           111         LDAQ    2*LS.FLT,,0     AARDVARK PRE-FAULT ENTRY DESC
   000036    2 00032 7571 00           112         STAQ    FLTLOC,,2       -> LOW MEMORY
   000037    2 00040 7571 00           113         STAQ    AFLTLC,,2
   000040  X 000000 7570 00            114         STAQ    IT_MONFAULT     SAVE MON ENTRY DESCRIPTOR
   000041    0 00052 2371 00           115         LDAQ    2*LS.SCR,,0     GET A MONITOR ENTRY DESCRIPTOR
   000042    777777 3750 07            116         ANA     =O777777,DL     MASK OFF ADDRESS
   000043  X 000000 2750 03            117         ORA     HFA$XDELRTN,DU  XDELTA RETURN TO FAULT HANDLER
   000044    0 00254 7571 00           118         STAQ    2*LS.XDRTN,,0   PUT IN MON LS
   000045    777777 3750 07            119         ANA     =O777777,DL     MASK OFF ADDRESS
   000046  X 000000 2750 03            120         ORA     HFA$FAULT,DU    FAULT HANDLER ENTRY
   000047    0 00332 7571 00           121         STAQ    2*LS.FLT,,0     MON FAULT ENTRY DESCRIPTOR
                                       122  * SET UP THE REG ENTRY DESCRIPTOR
   000050  X 000000 6200 00            123         EAX0    S_REGR          ADDR OF REG ENTRY
   000051    0 00060 7401 00           124         STX0    2*LS.REG,,0     TO REG ENTRY DESC IN MON LS
                                       125  * SET UP THE SCREECH ENTRY DESCRIPTOR
   000052  X 000000 6200 00            126         EAX0    IRM$SCREECH
   000053    0 00052 7401 00           127         STX0    2*LS.SCR,,0     -> SCREECH ENTRY DESC IN MON LS
                                       128  * SET UP THE ENTRY FOR RCVR RETURN AFTER SUA
   000054  X 000000 6200 00            129         EAX0    IRM$RETURN      ADDR OF WHERE RCVR RETURNS IF SUA
   000055    0 00256 7401 00           130         STX0    2*LS.RCVRTN,,0  -> RCVR ENTRY DESC IN MON LS
                                       131  * SET UP THE PMME ENTRY DESCRIPTORS
   000056  X 000000 6200 00            132         EAX0    UDA$SSPATCH     ADDR OF PMME ENTRY
   000057    0 00056 7401 00           133         STX0    2*LS.PMME,,0     -> PMME ENTRY DESC IN MON LS
   000060    0 00056 2371 00           134         LDAQ    2*LS.PMME,,0     PMME ENTRY DESC(TYPE=8) -> (AQ)
   000061    000003 2750 07            135         ORA     3,DL            CHANGE TO TYPE=11
   000062    2 00034 7571 00           136         STAQ    PMMLOC,,2       PMME ENTRY DESC -> LOW MEMORY
                                       137  *  SET UP TO GO TO FPT CHECKER IF MONITOR TRAPS
   000063  X 000000 4704 07            138         LDP0    MJITSID,DL      MONITOR JIT
   000064  X 000000 6210 00            139         EAX1    UDE$FPTCHK      FPT CHECKER ADDRESS
   000065    0 00003 4411 00           140         SXL1    3,,0            -> JIT WORD 3(LOWER HALF)
   000066 (2)000151 2350 00            141         LDA     MONECCB         MONITOR ECCB FLAGS
   000067    0 00004 7551 00           142         STA     4,,0            -> JIT WORD 4
                                       143  * SET UP MASTER CPU PORT NUMBER
   000070  X 000000 2350 00            144         LDA     S_PORTNR        SAVE OLD MASTER CPU PORT FROM DISK
   000071  X 000000 7550 00            145         STA     IT_OLDPORT      ...IN CASE THIS IS A DISK BOOT
   000072  X 000000 2350 00            146         LDA     HW_TYPE         GET THE HW_TYPE CELL THAT AARDVARK MADE
   000073    000000 1150 07            147         CMPA    0,DL            IS IT OLD HARDWARE?
 22:58 07/29/97  FILE=ITB$BEGIN.:E05TSI                                                                  5    BMAP - B00
   000074 (2)000113 6000 00            148         TZE     CPUOLD          YES.
   000075    000004 1150 07            149         CMPA    DPS90,DL          IS IT A DPS90?
   000076 (2)000104 6000 00            150         TZE     CPU90             YES.
   000077    000005 1150 07            151         CMPA    DPS90XA,DL        IS IT A DPS90XA?
   000100 (2)000104 6000 00            152         TZE     CPU90             YES. SAME AS NON-XA FOR GETTING CPU#
   000101    000006 1150 07            153         CMPA    RPM,DL          HOWABOUT RPM?
   000102 (2)000107 6000 00            154         TZE     CPURPM          YES.
   000103    000000 0000 00            155         ZOP                     ! ! S C R E E C H ! ! - WIERD HW_TYPE
   000104                              156  CPU90  NULL                    ...DO AN RPN INSTR.
   000104    000000 3674 00            157         RPN     0               GET PNO (PORT) INTO X7
   000105  X 000000 4470 00            158         SXL7    S_PORTNR        STORE IT
   000106 (2)000120 7100 00            159         TRA     GOTPRT          GOT IT
   000107                              160  CPURPM NULL                   ...DO THE RSW INSTR
   000107    0 00010 4131 00           161         RSCR    8,,0             CONFIG REG
   000110    000010 7710 00            162         ARL     8
   000111 (2)000116 7100 00            163         TRA     LOWA
   000112 (2)000116 7100 00            164         TRA     LOWA
   000113  X 000000 4704 07            165  CPUOLD LDP0    SCUSID,DL       IF NOT S1000, DO IT THE OLD WAY.
   000114    0 00010 4131 00           166         RSCR    8,,0            READ SCU CONFIGURATION SWITCHES
   000115    000020 7710 00            167         ARL     16
   000116    000007 3750 07            168  LOWA   ANA     7,DL            RETAIN LOWER 3 BITS
   000117  X 000000 7550 00            169         STA     S_PORTNR        MASTER CPU PORT #
   000120                              170  GOTPRT NULL                    S_PORTNR IS OK HERE.
                                       171  *
                                       172  * INITIALIZE GHOST1  TSTACK
   000120  X 000000 4724 07            173         LDP2    TSTACKSID,DL    USE GHOST1 STACK FOR SCRATCH
   000121  X 000000 4714 07            174         LDP1    LSSID,DL        MON LS (DATA)
   000122    1 00040 2351 00           175         LDA     2*LS.TSTACK,,1  TSTACK SIZE
   000123    000022 7310 00            176         ARS     18
   000124    2 00025 7551 00           177         STA     21,,2           SIZE OF AUTO
   000125 (2)000143 6304 00            178         EPPR0   G1PTRS
   000126 (1)000000 6314 00            179         EPPR1   =V18/3,18/0
   000127  X 000000 7010 00            180         TSX1    X66_MSTATIC
   000130    000000 0110 00            181         NOP
                                       182  * INITIALIZE MONITOR TSTACK
   000131  X 000000 4714 07            183         LDP1    LSSID,DL        MON LS (DATA)
   000132    1 00102 2351 00           184         LDA     2*LS.MTSTACK,,1 TSTACK SIZE
 22:58 07/29/97  FILE=ITB$BEGIN.:E05TSI                                                                  6    BMAP - B00
   000133    000022 7310 00            185         ARS     18
   000134    2 00025 7551 00           186         STA     21,,2           SIZE OF AUTO
   000135 (2)000146 6304 00            187         EPPR0   MPTRS
   000136 (1)000000 6314 00            188         EPPR1   =V18/3,18/0
   000137  X 000000 7010 00            189         TSX1    X66_MSTATIC
   000140    000000 0110 00            190         NOP
   000141    2 00024 4725 00           191         LDP2    20,,2           POINT TO FIRST FRAME
   000142  X 000000 7010 00            192         TSX1    ITT$TIGR        WILL NOT RETURN
                                       193  *
   000143                              194  G1PTRS NULL
   000143  X 000000 0 00 X 0000        195         PTR     ISSID,B$TSTACK$  GHOST1 TSTACK
   000144    000025 0 00 X 0000        196         PTR     TSTACKSID,21    SIZE OF GHOST1 AUTO
   000145    000024 0 00 X 0000        197         PTR     TSTACKSID,20    INIT PTR
   000146                              198  MPTRS  NULL
   000146  X 000000 0 00 X 0000        199         PTR     ISSID,B$MONTSTACK$  MON TSTACK
   000147    000025 0 00 X 0000        200         PTR     TSTACKSID,21     SIZE OF MON AUTO
   000150    000024 0 00 X 0000        201         PTR     TSTACKSID,20     INIT PTR
                                       202  *
   000151    002000000474              203  MONECCB OCT    002000000474    MONITOR ECCB FLAGS - GO TO FPT
                                       204  *                                CHECKER FOR MEM, IPR, MSEG,
                                       205  *                                MPG, AND SEC2 FAULTS
          (2)000000                    206         END     ITB$BEGIN
 1 000000    000003000000

  CONTROL SECTION TABLE

   0 CODE   EVEN  000002
   1 RODATA EVEN  000001 LITERALS
   2 CODE   EVEN  000152 ITB$BEGIN

 22:58 07/29/97  FILE=ITB$BEGIN.:E05TSI       SYMBOL TABLE                                               7    BMAP - B00
 41000000 000000000040 AFLTLC         *49       113
 03301011 000000000000 B$MONTSTACK$   *32       199
 03301012 000000000000 B$TSTACK$      *33       195
 01101002 000000000104 CPU90          150       152      *156
 01101002 000000000113 CPUOLD         148      *165
 01101002 000000000107 CPURPM         154      *160
 41000000 000000000002 CPURUN         *50        96
 41000000 000000000004 DPS90          *58        84       149
 41000000 000000000005 DPS90XA        *59        86       151
 41000000 000000000032 FLTLOC         *48       112
 01101002 000000000143 G1PTRS         178      *194
 01101002 000000000120 GOTPRT         159      *170
 03201005 000000000000 HFA$FAULT      *15       120
 03201006 000000000000 HFA$XDELRTN    *16       117
 03201007 000000000000 HFC$CPUTYPE    *17       104
 03301007 000000000000 HW_TYPE        *28        83       146
 03301008 000000000000 H_MEMOK        *29        77
 03201003 000000000000 IRM$RETURN     *13       129
 03201002 000000000000 IRM$SCREECH    *12       126
 03601000 000000000000 ISSID          *35       195       199
 13101002 000000000000 ITB$BEGIN        7       *74       206
 03201000 000000000000 ITT$TIGR       *10       192
 03301006 000000000000 IT_BOOTFLAG    *27        78
 03301005 000000000000 IT_CLOCKOK     *26        76        82
 03301004 000000000000 IT_CP6UP       *25        75
 03301009 000000000000 IT_MONFAULT    *30       114
 03301010 000000000000 IT_OLDPORT     *31       145
 01101002 000000000116 LOWA           163       164      *168
 41000000 000000000155 LS.AARDV       *44
 41000000 000000000156 LS.AARDV2      *44
 41000000 000000000033 LS.ASLLS       *44
 41000000 000000000053 LS.ASR         *44
 41000000 000000000002 LS.BUF         *44
 41000000 000000000161 LS.BUFCACH     *44
 40000000 000000000004 LS.CFU         *44
 41000000 000000000164 LS.CGCTXT      *44
 41000000 000000000163 LS.CGPT        *44
 22:58 07/29/97  FILE=ITB$BEGIN.:E05TSI       SYMBOL TABLE                                               8    BMAP - B00
 41000000 000000000075 LS.CPGT1       *44
 41000000 000000000034 LS.CPLS        *44
 41000000 000000000055 LS.CWSQ1       *44
 41000000 000000000032 LS.DBLS        *44
 41000000 000000000004 LS.DS1         *44
 41000000 000000000005 LS.DS2         *44
 41000000 000000000006 LS.DS3         *44
 41000000 000000000007 LS.DS4         *44
 41000000 000000000010 LS.DS5         *44
 41000000 000000000011 LS.DS6         *44
 41000000 000000000012 LS.DS7         *44
 41000000 000000000013 LS.DS8         *44
 40000000 000000000202 LS.DVT         *44
 41000000 000000000016 LS.ECCB        *44
 41000000 000000000157 LS.FIRM        *44
 41000000 000000000155 LS.FLT         *44       111       121
 41000000 000000000045 LS.HJITU       *44
 41000000 000000000162 LS.IMX         *44
 41000000 000000000122 LS.IOEND       *44
 41000000 000000000176 LS.IPHY_MAP    *44
 41000000 000000000000 LS.IS          *44
 41000000 000000000050 LS.ISB         *44
 41000000 000000000115 LS.JITPG       *44
 41000000 000000000001 LS.JITU        *44
 40000000 000000000013 LS.LDCT        *44
 41000000 000000000134 LS.LDCTNC      *44
 41000000 000000000121 LS.LOWMEM      *44
 41000000 000000000167 LS.MAGAS       *44
 41000000 000000000172 LS.MAGECCB     *44
 41000000 000000000166 LS.MAGLS       *44
 41000000 000000000170 LS.MAGPS       *44
 41000000 000000000165 LS.MAGSS       *44
 41000000 000000000171 LS.MAGTCB      *44
 41000000 000000000043 LS.MHJIT       *44
 41000000 000000000177 LS.MINIQ_ENT   *44
 41000000 000000000054 LS.MISC        *44
 41000000 000000000130 LS.MISC2       *44
 22:58 07/29/97  FILE=ITB$BEGIN.:E05TSI       SYMBOL TABLE                                               9    BMAP - B00
 41000000 000000000042 LS.MJIT        *44
 41000000 000000000035 LS.MLS         *44
 41000000 000000000132 LS.MLS1        *44
 41000000 000000000173 LS.MLSREAD     *44
 40000000 000000000156 LS.MONRL       *44
 41000000 000000000044 LS.MONSSS      *44
 41000000 000000000120 LS.MOUSE       *44
 41000000 000000000037 LS.MPT         *44
 41000000 000000000145 LS.MSTRHJ      *44
 41000000 000000000135 LS.MSTRPT      *44
 41000000 000000000041 LS.MTSTACK     *44       184
 41000000 000000000014 LS.NULL        *44
 41000000 000000000027 LS.PMME        *44       133       134
 41000000 000000000116 LS.PPUT        *44
 41000000 000000000131 LS.RCVENT      *44
 41000000 000000000127 LS.RCVRTN      *44       130
 41000000 000000000021 LS.REAL        *44
 41000000 000000000030 LS.REG         *44       124
 41000000 000000000124 LS.RONC        *44
 41000000 000000000003 LS.ROSEG       *44
 41000000 000000000125 LS.ROSEG8      *44
 41000000 000000000046 LS.SBUF1       *44
 41000000 000000000047 LS.SBUF2       *44
 41000000 000000000025 LS.SCR         *44       115       127
 41000000 000000000051 LS.SCU         *44
 41000000 000000000174 LS.SEGTBL      *44
 41000000 000000000146 LS.SLV1HJ      *44
 41000000 000000000136 LS.SLV1PT      *44
 41000000 000000000147 LS.SLV2HJ      *44
 41000000 000000000137 LS.SLV2PT      *44
 41000000 000000000150 LS.SLV3HJ      *44
 41000000 000000000140 LS.SLV3PT      *44
 41000000 000000000151 LS.SLV4HJ      *44
 41000000 000000000141 LS.SLV4PT      *44
 41000000 000000000152 LS.SLV5HJ      *44
 41000000 000000000142 LS.SLV5PT      *44
 41000000 000000000153 LS.SLV6HJ      *44
 22:58 07/29/97  FILE=ITB$BEGIN.:E05TSI       SYMBOL TABLE                                               10   BMAP - B00
 41000000 000000000143 LS.SLV6PT      *44
 41000000 000000000154 LS.SLV7HJ      *44
 41000000 000000000144 LS.SLV7PT      *44
 41000000 000000000017 LS.TCB         *44
 41000000 000000000123 LS.TIGR        *44
 41000000 000000000020 LS.TSTACK      *44       175
 41000000 000000000031 LS.ULS         *44
 41000000 000000000036 LS.UPT         *44
 41000000 000000000023 LS.USDS0       *44
 41000000 000000000024 LS.USDS1       *44
 41000000 000000000040 LS.USRIS       *44
 41000000 000000000022 LS.USSS        *44
 41000000 000000000117 LS.VPT         *44
 41000000 000000000052 LS.WINDOW      *44
 41000000 000000000133 LS.WS3MLS      *44
 41000000 000000000160 LS.WS3MLSNW    *44
 41000000 000000000175 LS.WSQ0PT      *44
 41000000 000000000026 LS.XD          *44
 41000000 000000000126 LS.XDRTN       *44       118
 41000000 000000000201 LS.XLALT       *44
 41000000 000000000015 LS.XLAT        *44
 41000000 000000000200 LS.XLNORM      *44
 03601004 000000000000 LSSID          *39       106       174       183
 01101000 000000000000 MAXCL          *53        90
 03601003 000000000000 MJITSID        *38       138
 07101002 000000000151 MONECCB          8       141      *203
 01101002 000000000146 MPTRS          187      *198
 40000000 000000000000 OLD            *57
 41000000 000000000034 PMMLOC         *47       136
 03601002 000000000000 REALSID        *37       107
 41000000 000000000006 RPM            *60       153
 03601005 000000000000 SCUSID         *40        88       165
 01101002 000000000024 SKIP_CLOCK_CHECK          80        85        87        91       *95
 03301003 000000000000 S_CNODE        *24       100
 03301000 000000000000 S_MPSTATE      *21        97
 03301002 000000000000 S_PORTNR       *23       144       158       169
 03201001 000000000000 S_REGR         *11       123
 22:58 07/29/97  FILE=ITB$BEGIN.:E05TSI       SYMBOL TABLE                                               11   BMAP - B00
 03301001 000000000000 S_TIMR         *22        99
 03601001 000000000000 TSTACKSID      *36       173       196       197       200       201
 03201004 000000000000 UDA$SSPATCH    *14       132
 03201008 000000000000 UDE$FPTCHK     *18       139
 03201009 000000000000 X66_MSTATIC    *19       180       189

     153 SYMBOLS

 22:58 07/29/97  FILE=ITB$BEGIN.:E05TSI       MACRO TABLE                                                12   BMAP - B00
 MONLS           44

      16 MACROS

    SYMBOL SPACE USED  1704 WORDS
     MACRO SPACE USED  3324 WORDS
   INPUT RECORDS READ   867
 STATEMENTS PROCESSED   415
         ELAPSED TIME  0:03.48
             CPU TIME     2.91 SEC.
        ASSEMBLY RATE  8557 STATEMENTS/CPU MIN.

      NO ERRORS

