VERSION E05

PL6.E3A0      #001=ITE$ERROR File=ITE$ERROR.:E05TSI                              TUE 07/29/97 23:03 Page:1
        1        1        /*M*     TIGR error reporting routine */
        2        2        /*T***********************************************************/
        3        3        /*T*                                                         */
        4        4        /*T* Copyright (c) Bull HN Information Systems Inc., 1997    */
        5        5        /*T*                                                         */
        6        6        /*T***********************************************************/
        7        7        /**/
        8        8        /*P*     NAME:     ITE$ERROR
        9        9                 PURPOSE:  ITE$ERROR outputs TIGR error messages   */
       10       10        ITE$ERROR: PROC(ERR_CODE,SUB$);
       11       11        /**/
       12       12    1   DCL ERR_CODE UBIN(36);
       13       13    1   DCL SUB$ PTR;
       14       14        /**/
       15       15        /*  INCLUDE FILES  */
       16       16        /**/
       17       17        %INCLUDE IT_SUBS_C;
       18      284        /**/
       19      285        /*  MACROS  */
       20      286        /**/
       21      287            %MACRO ITERR (NAME=ITERR,C=0,T=' ',LAST=",");
       22      288                 2 NAME UBIN BYTE INIT(C) UNAL,
       23      289                  2 * UNAL,
       24      290                  3 COUNT UBIN(9) INIT(LENGTHC(T)) UNAL,
       25      291                  3 TEXT CHAR(0) INIT(T) UNAL LAST
       26      292            %MEND;
       27      293        /**/
       28      294        /*  AUTOMATIC  */
       29      295        /**/
       30      296    1             DCL ERR$ PTR;
       31      297    1   DCL ERR_INDEX SBIN;
       32      298    1   DCL LEFT SBIN;
       33      299    1   DCL SAVEOUT UBIN WORD;
       34      300        /**/
       35      301        /*  SYMREFS  */
       36      302    1   DCL IT_OUTDEV UBIN WORD SYMREF;
       37      303    1   DCL IT_ECHODEV UBIN WORD SYMREF;
PL6.E3A0      #001=ITE$ERROR File=ITE$ERROR.:E05TSI                              TUE 07/29/97 23:03 Page:2
       38      304        /**/
       39      305        /*  STATIC  */
       40      306    1   DCL TIGR_BUF CHAR(80) SYMREF;
       41      307        /**/
       42      308        /*  ENTRY DCLS  */
       43      309        /**/
       44      310    1   DCL ITR$WRITE ENTRY(2) ALTRET;
       45      311        /**/
       46      312        /*  CONSTANTS  */
       47      313        /**/
       48      314    1   DCL ERR_END$ PTR CONSTANT INIT(ADDR(IT_ERR.ERREND));
       49      315    1   DCL 1 IT_ERR CONSTANT,                  /* ERROR MESSAGE TEXT                 */
       50      316        %INCLUDE IT_ERR_C;
       51      774        %ITERR (NAME=ERREND,C=511,LAST=";",T='**** NO MESSAGE FOUND');
       52      780        /**/
       53      781        /*  BASED  */
       54      782    1         DCL 1 IT$ERRTEXT BASED UNAL,
       55      783    1         2 CODE UBIN BYTE UNAL,
       56      784    1         2 TEXTC,
       57      785    1           3 COUNT UBIN(9) UNAL,
       58      786    1           3 TEXT CHAR(IT$ERRTEXT.TEXTC.COUNT) UNAL;
       59      787    1   DCL 1 TEXT$C BASED UNAL,
       60      788    1         2 COUNT UBIN(9) UNAL,
       61      789    1         2 TEXT CHAR(TEXT$C.COUNT) UNAL;
       62      790        %EJECT;
PL6.E3A0      #001=ITE$ERROR File=ITE$ERROR.:E05TSI                              TUE 07/29/97 23:03 Page:3
       63      791        /*D*     NAME:     ITE$ERROR
       64      792                 PURPOSE:  To output TIGR error messages.
       65      793                 DESCRIPTION: The macro %ITERR is used to build TIGR's error
       66      794                           messages in constant data. Each error message has an
       67      795                           associated error code which is passed as a parameter
       68      796                           to ITE$ERROR and is used to find the correct message.
       69      797                           The parameter SUB$ if not null points to a TEXTC
       70      798                           string which is to precede the error message text.
       71      799                 INPUT:    ERR_CODE - code which identifies message
       72      800                           SUB$ - pointer to text to precede message
       73      801                 OUTPUT:   Error message written         */
       74      802        /**/
       75      803    1           TIGR_BUF = ' ';
       76      804    1           ERR_INDEX = 0;
       77      805    1           LEFT = LENGTHC(TIGR_BUF);
       78      806    1           ERR$ = ADDR(IT_ERR);
       79      807        /**/
       80      808    1           IF (ADDR(SUB$) ~= ADDR(NIL)) AND (SUB$  ~= ADDR(NIL))
       81      809    1           THEN CALL M_TADD(SUB$ -> TEXT$C);
       82      810        /**/
       83      811    2           DO WHILE (ERR$ < ERR_END$);
       84      812    2              IF (ERR$ -> IT$ERRTEXT.CODE = ERR_CODE) THEN GOTO GOT_IT;
       85      813    2              ERR$ = PINCRC(ERR$,SIZEC(IT$ERRTEXT.CODE) +
       86      814    2                SIZEC(IT$ERRTEXT.TEXTC.COUNT) +
       87      815    2                ERR$ -> IT$ERRTEXT.TEXTC.COUNT);
       88      816    2              END;
       89      817        /**/
       90      818    1   GOT_IT:
       91      819    1           CALL M_TADD (ERR$ -> IT$ERRTEXT.TEXTC);
       92      820    1           CALL M_TRUNC;
       93      821    1           RETURN;
       94      822        /**/
       95      823        %EJECT;
PL6.E3A0      #001=ITE$ERROR File=ITE$ERROR.:E05TSI                              TUE 07/29/97 23:03 Page:4
       96      824        /**/
       97      825    1   M_TADD: PROC (TEXTC);
       98      826        /**/
       99      827    2   DCL 1 TEXTC UNAL,
      100      828    2         2 COUNT UBIN(9) UNAL,
      101      829    2         2 TEXT CHAR(TEXTC.COUNT) UNAL;
      102      830        /**/
      103      831        /*  AUTOMATIC  */
      104      832        /**/
      105      833    2   DCL START SBIN;
      106      834    2   DCL LE SBIN;
      107      835        /**/
      108      836        /**/
      109      837    2           START = 0;
      110      838    2           LE = TEXTC.COUNT;
      111      839        /**/
      112      840    2   MORE:
      113      841    2           CALL INSERT (TIGR_BUF,ERR_INDEX,LEFT,SUBSTR(TEXTC.TEXT,START,LE))
      114      842    2             ALTRET (TRUNC);
      115      843    2           LEFT = LEFT - LE -1;            /* LEAVE A BLANK                      */
      116      844    2           ERR_INDEX = ERR_INDEX + LE + 1;
      117      845    2           RETURN;
      118      846        /**/
      119      847    2   TRUNC:
      120      848    2           CALL ITR$WRITE (VECTOR(TIGR_BUF),LENGTHC(TIGR_BUF));
      121      849    2           START = START + LEFT;
      122      850    2           LE = LE - LEFT;
      123      851    2           GOTO MORE;
      124      852        /**/
      125      853    2   END;
      126      854        /**/
      127      855        %EJECT;
PL6.E3A0      #001=ITE$ERROR File=ITE$ERROR.:E05TSI                              TUE 07/29/97 23:03 Page:5
      128      856        /**/
      129      857    1   M_TRUNC: PROC;
      130      858        /**/
      131      859    2           CALL ITR$WRITE (VECTOR(TIGR_BUF),ERR_INDEX);
      132      860    3           IF (IT_OUTDEV ~= IT_ECHODEV) THEN DO;
      133      861    3              SAVEOUT = IT_OUTDEV;
      134      862    3              IT_OUTDEV = IT_ECHODEV;
      135      863    3              CALL ITR$WRITE (VECTOR(TIGR_BUF),ERR_INDEX);
      136      864    3              IT_OUTDEV = SAVEOUT;
      137      865    3              END;
      138      866        /**/
      139      867    2           TIGR_BUF = ' ';
      140      868    2           LEFT = LENGTHC(TIGR_BUF);
      141      869    2           ERR_INDEX = 0;
      142      870    2           RETURN;
      143      871    2   END;
      144      872    1   END;

PL6.E3A0      #001=ITE$ERROR File=ITE$ERROR.:E05TSI                              TUE 07/29/97 23:03 Page:6
--  Include file information  --

   IT_ERR_C.:E05TOU  cannot be made into a system file and is referenced.
   IT_SUBS_C.:E05TOU  is referenced.
      No diagnostics issued in procedure ITE$ERROR.

   Procedure ITE$ERROR requires 129 words for executable code.
   Procedure ITE$ERROR requires 16 words of local(AUTO) storage.

    No errors detected in file ITE$ERROR.:E05TSI    .

PL6.E3A0      #001=ITE$ERROR File=ITE$ERROR.:E05TSI                              TUE 07/29/97 23:03 Page:7

 Object Unit name= ITE$ERROR                                  File name= ITE$ERROR.:E05TOU
 UTS= JUL 29 '97 23:03:30.32 TUE                              Compiler= PL-6/E31         Sev=      00
 SharedLib= :SHARED_SYSTEM                                    Alt SharedLib=


    ****  Control sections  ****

 Sect   Type Bound  Init  Size OctSiz  Section name(segment info)
    0  RoData even  UTS    794   1432  ITE$ERROR
    1   Proc  even  none   129    201  ITE$ERROR
    2  RoData even  none     7      7  ITE$ERROR

    ****  Entry defs  ****

                              Check   Calling
                             calling  sequence
  Sect OctLoc Primary Altret sequence   type   Parms  Name
     1      0   yes            yes      Std        2  ITE$ERROR

  ****  Entry refs  ****

         Check        Calling
        calling       sequence
Altret sequence SRef   type   Args  Name
 yes     yes           Std       2 ITR$WRITE
                       nStd      0 X66_AUTO_2
                       Std       0 B_CONSPOOL_D
                       nStd      0 X66_ARET

  ****  Data refs  ****

  Flags:  r = read only, s = secondary
Flgs Name                             Flgs Name                             Flgs Name
     IT_OUTDEV                             IT_ECHODEV                            TIGR_BUF
     B_VECTNIL
PL6.E3A0      #001=ITE$ERROR File=ITE$ERROR.:E05TSI                              TUE 07/29/97 23:03 Page:8

  ****  Segment refs  ****

  Flags:  r = read only, s = secondary
Flgs Name                             Flgs Name                             Flgs Name
     ISSID
PL6.E3A0      #001=ITE$ERROR File=ITE$ERROR.:E05TSI                              TUE 07/29/97 23:03 Page:9


        1        1        /*M*     TIGR error reporting routine */
        2        2        /*T***********************************************************/
        3        3        /*T*                                                         */
        4        4        /*T* Copyright (c) Bull HN Information Systems Inc., 1997    */
        5        5        /*T*                                                         */
        6        6        /*T***********************************************************/
        7        7        /**/
        8        8        /*P*     NAME:     ITE$ERROR
        9        9                 PURPOSE:  ITE$ERROR outputs TIGR error messages   */
       10       10        ITE$ERROR: PROC(ERR_CODE,SUB$);

     10  1 000000   000000 700200 xent  ITE$ERROR    TSX0  ! X66_AUTO_2
         1 000001   000020 000002                    ZERO    16,2

       11       11        /**/
       12       12    1   DCL ERR_CODE UBIN(36);
       13       13    1   DCL SUB$ PTR;
       14       14        /**/
       15       15        /*  INCLUDE FILES  */
       16       16        /**/
       17       17        %INCLUDE IT_SUBS_C;
       18      284        /**/
       19      285        /*  MACROS  */
       20      286        /**/
       21      287            %MACRO ITERR (NAME=ITERR,C=0,T=' ',LAST=",");
       22      288                 2 NAME UBIN BYTE INIT(C) UNAL,
       23      289                  2 * UNAL,
       24      290                  3 COUNT UBIN(9) INIT(LENGTHC(T)) UNAL,
       25      291                  3 TEXT CHAR(0) INIT(T) UNAL LAST
       26      292            %MEND;
       27      293        /**/
       28      294        /*  AUTOMATIC  */
       29      295        /**/
       30      296    1             DCL ERR$ PTR;
       31      297    1   DCL ERR_INDEX SBIN;
       32      298    1   DCL LEFT SBIN;
PL6.E3A0      #001=ITE$ERROR File=ITE$ERROR.:E05TSI                              TUE 07/29/97 23:03 Page:10
       33      299    1   DCL SAVEOUT UBIN WORD;
       34      300        /**/
       35      301        /*  SYMREFS  */
       36      302    1   DCL IT_OUTDEV UBIN WORD SYMREF;
       37      303    1   DCL IT_ECHODEV UBIN WORD SYMREF;
       38      304        /**/
       39      305        /*  STATIC  */
       40      306    1   DCL TIGR_BUF CHAR(80) SYMREF;
       41      307        /**/
       42      308        /*  ENTRY DCLS  */
       43      309        /**/
       44      310    1   DCL ITR$WRITE ENTRY(2) ALTRET;
       45      311        /**/
       46      312        /*  CONSTANTS  */
       47      313        /**/
       48      314    1   DCL ERR_END$ PTR CONSTANT INIT(ADDR(IT_ERR.ERREND));
       49      315    1   DCL 1 IT_ERR CONSTANT,                  /* ERROR MESSAGE TEXT                 */
       50      316        %INCLUDE IT_ERR_C;
       51      774        %ITERR (NAME=ERREND,C=511,LAST=";",T='**** NO MESSAGE FOUND');
       52      780        /**/
       53      781        /*  BASED  */
       54      782    1         DCL 1 IT$ERRTEXT BASED UNAL,
       55      783    1         2 CODE UBIN BYTE UNAL,
       56      784    1         2 TEXTC,
       57      785    1           3 COUNT UBIN(9) UNAL,
       58      786    1           3 TEXT CHAR(IT$ERRTEXT.TEXTC.COUNT) UNAL;
       59      787    1   DCL 1 TEXT$C BASED UNAL,
       60      788    1         2 COUNT UBIN(9) UNAL,
       61      789    1         2 TEXT CHAR(TEXT$C.COUNT) UNAL;
       62      790        %EJECT;
PL6.E3A0      #001=ITE$ERROR File=ITE$ERROR.:E05TSI                              TUE 07/29/97 23:03 Page:11
       63      791        /*D*     NAME:     ITE$ERROR
       64      792                 PURPOSE:  To output TIGR error messages.
       65      793                 DESCRIPTION: The macro %ITERR is used to build TIGR's error
       66      794                           messages in constant data. Each error message has an
       67      795                           associated error code which is passed as a parameter
       68      796                           to ITE$ERROR and is used to find the correct message.
       69      797                           The parameter SUB$ if not null points to a TEXTC
       70      798                           string which is to precede the error message text.
       71      799                 INPUT:    ERR_CODE - code which identifies message
       72      800                           SUB$ - pointer to text to precede message
       73      801                 OUTPUT:   Error message written         */
       74      802        /**/
       75      803    1           TIGR_BUF = ' ';

    803  1 000002   040000 100400                    MLR     fill='040'O
         1 000003   000035 000001 xsym               ADSC9   B_VECTNIL+29             cn=0,n=1
         1 000004   000000 000120 xsym               ADSC9   TIGR_BUF                 cn=0,n=80

       76      804    1           ERR_INDEX = 0;

    804  1 000005   200006 450100                    STZ     ERR_INDEX,,AUTO

       77      805    1           LEFT = LENGTHC(TIGR_BUF);

    805  1 000006   000120 235007                    LDA     80,DL
         1 000007   200007 755100                    STA     LEFT,,AUTO

       78      806    1           ERR$ = ADDR(IT_ERR);

    806  1 000010   000000 236000 2                  LDQ     0
         1 000011   200005 756100                    STQ     ERR$,,AUTO

       79      807        /**/
       80      808    1           IF (ADDR(SUB$) ~= ADDR(NIL)) AND (SUB$  ~= ADDR(NIL))

    808  1 000012   200004 236100                    LDQ     @SUB$,,AUTO
         1 000013   000001 116000 xsym               CMPQ    B_VECTNIL+1
PL6.E3A0      #001=ITE$ERROR File=ITE$ERROR.:E05TSI                              TUE 07/29/97 23:03 Page:12
         1 000014   000025 600000 1                  TZE     s:811
         1 000015   200004 470500                    LDP0    @SUB$,,AUTO
         1 000016   000000 236100                    LDQ     0,,PR0
         1 000017   000001 116000 xsym               CMPQ    B_VECTNIL+1
         1 000020   000025 600000 1                  TZE     s:811

       81      809    1           THEN CALL M_TADD(SUB$ -> TEXT$C);

    809  1 000021   000000 471500                    LDP1    0,,PR0
         1 000022   200013 451500                    STP1    SAVEOUT+3,,AUTO
         1 000023   000062 701000 1                  TSX1    M_TADD
         1 000024   000000 011000                    NOP     0

       82      810        /**/
       83      811    2           DO WHILE (ERR$ < ERR_END$);

    811  1 000025   200005 236100                    LDQ     ERR$,,AUTO
         1 000026   000000 116000 0                  CMPQ    ERR_END$
         1 000027   000052 603000 1                  TRC     GOT_IT

       84      812    2              IF (ERR$ -> IT$ERRTEXT.CODE = ERR_CODE) THEN GOTO GOT_IT;

    812  1 000030   200003 470500                    LDP0    @ERR_CODE,,AUTO
         1 000031   200005 471500                    LDP1    ERR$,,AUTO
         1 000032   000100 101500                    MRL     fill='000'O
         1 000033   100000 000001                    ADSC9   0,,PR1                   cn=0,n=1
         1 000034   200016 000004                    ADSC9   LE+1,,AUTO               cn=0,n=4
         1 000035   200016 236100                    LDQ     LE+1,,AUTO
         1 000036   000000 116100                    CMPQ    0,,PR0
         1 000037   000052 600000 1                  TZE     GOT_IT

       85      813    2              ERR$ = PINCRC(ERR$,SIZEC(IT$ERRTEXT.CODE) +

    813  1 000040   000100 101500                    MRL     fill='000'O
         1 000041   100000 200001                    ADSC9   0,,PR1                   cn=1,n=1
         1 000042   200016 000004                    ADSC9   LE+1,,AUTO               cn=0,n=4
         1 000043   200016 236100                    LDQ     LE+1,,AUTO
PL6.E3A0      #001=ITE$ERROR File=ITE$ERROR.:E05TSI                              TUE 07/29/97 23:03 Page:13
         1 000044   000020 736000                    QLS     16
         1 000045   400000 036007                    ADLQ    -131072,DL
         1 000046   200005 036100                    ADLQ    ERR$,,AUTO
         1 000047   200005 756100                    STQ     ERR$,,AUTO

       86      814    2                SIZEC(IT$ERRTEXT.TEXTC.COUNT) +
       87      815    2                ERR$ -> IT$ERRTEXT.TEXTC.COUNT);
       88      816    2              END;

    816  1 000050   000000 116000 0                  CMPQ    ERR_END$
         1 000051   000030 602000 1                  TNC     s:812

       89      817        /**/
       90      818    1   GOT_IT:
       91      819    1           CALL M_TADD (ERR$ -> IT$ERRTEXT.TEXTC);

    819  1 000052   200005 236100       GOT_IT       LDQ     ERR$,,AUTO
         1 000053   200000 036007                    ADLQ    65536,DL
         1 000054   200013 756100                    STQ     SAVEOUT+3,,AUTO
         1 000055   000062 701000 1                  TSX1    M_TADD
         1 000056   000000 011000                    NOP     0

       92      820    1           CALL M_TRUNC;

    820  1 000057   000140 701000 1                  TSX1    M_TRUNC
         1 000060   000000 011000                    NOP     0

       93      821    1           RETURN;

    821  1 000061   000000 702200 xent               TSX2  ! X66_ARET

       94      822        /**/
       95      823        %EJECT;
PL6.E3A0      #001=ITE$ERROR File=ITE$ERROR.:E05TSI                              TUE 07/29/97 23:03 Page:14
       96      824        /**/
       97      825    1   M_TADD: PROC (TEXTC);

    825  1 000062   200012 741300       M_TADD       STX1  ! SAVEOUT+2,,AUTO

       98      826        /**/
       99      827    2   DCL 1 TEXTC UNAL,
      100      828    2         2 COUNT UBIN(9) UNAL,
      101      829    2         2 TEXT CHAR(TEXTC.COUNT) UNAL;
      102      830        /**/
      103      831        /*  AUTOMATIC  */
      104      832        /**/
      105      833    2   DCL START SBIN;
      106      834    2   DCL LE SBIN;
      107      835        /**/
      108      836        /**/
      109      837    2           START = 0;

    837  1 000063   200014 450100                    STZ     START,,AUTO

      110      838    2           LE = TEXTC.COUNT;

    838  1 000064   200013 470500                    LDP0    @TEXTC,,AUTO
         1 000065   000100 101500                    MRL     fill='000'O
         1 000066   000000 000001                    ADSC9   0,,PR0                   cn=0,n=1
         1 000067   200015 000004                    ADSC9   LE,,AUTO                 cn=0,n=4

      111      839        /**/
      112      840    2   MORE:
      113      841    2           CALL INSERT (TIGR_BUF,ERR_INDEX,LEFT,SUBSTR(TEXTC.TEXT,START,LE))

    841  1 000070   200013 470500       MORE         LDP0    @TEXTC,,AUTO
         1 000071   000100 101500                    MRL     fill='000'O
         1 000072   000000 000001                    ADSC9   0,,PR0                   cn=0,n=1
         1 000073   200016 000002                    ADSC9   LE+1,,AUTO               cn=0,n=2
         1 000074   200016 220100                    LDX0    LE+1,,AUTO
         1 000075   200015 721100                    LXL1    LE,,AUTO
PL6.E3A0      #001=ITE$ERROR File=ITE$ERROR.:E05TSI                              TUE 07/29/97 23:03 Page:15
         1 000076   200014 235100                    LDA     START,,AUTO
         1 000077   200007 722100                    LXL2    LEFT,,AUTO
         1 000100   200006 236100                    LDQ     ERR_INDEX,,AUTO
         1 000101   040046 100545                    MLR     fill='040'O
         1 000102   000000 200011                    ADSC9   0,A,PR0                  cn=1,n=*X1
         1 000103   000000 000012 xsym               ADSC9   TIGR_BUF,Q               cn=0,n=*X2
         1 000104   200015 236100                    LDQ     LE,,AUTO
         1 000105   000011 402007                    MPY     9,DL
         1 000106   200017 756100                    STQ     LE+2,,AUTO
         1 000107   200007 236100                    LDQ     LEFT,,AUTO
         1 000110   000011 402007                    MPY     9,DL
         1 000111   200017 116100                    CMPQ    LE+2,,AUTO
         1 000112   000125 604000 1                  TMI     TRUNC

      114      842    2             ALTRET (TRUNC);
      115      843    2           LEFT = LEFT - LE -1;            /* LEAVE A BLANK                      */

    843  1 000113   200007 236100                    LDQ     LEFT,,AUTO
         1 000114   200015 136100                    SBLQ    LE,,AUTO
         1 000115   000001 136007                    SBLQ    1,DL
         1 000116   200007 756100                    STQ     LEFT,,AUTO

      116      844    2           ERR_INDEX = ERR_INDEX + LE + 1;

    844  1 000117   200006 236100                    LDQ     ERR_INDEX,,AUTO
         1 000120   200015 036100                    ADLQ    LE,,AUTO
         1 000121   000001 036007                    ADLQ    1,DL
         1 000122   200006 756100                    STQ     ERR_INDEX,,AUTO

      117      845    2           RETURN;

    845  1 000123   200012 221300                    LDX1  ! SAVEOUT+2,,AUTO
         1 000124   000001 702211                    TSX2  ! 1,X1

      118      846        /**/
      119      847    2   TRUNC:
      120      848    2           CALL ITR$WRITE (VECTOR(TIGR_BUF),LENGTHC(TIGR_BUF));
PL6.E3A0      #001=ITE$ERROR File=ITE$ERROR.:E05TSI                              TUE 07/29/97 23:03 Page:16

    848  1 000125   000005 630400 2     TRUNC        EPPR0   5
         1 000126   000020 631400 xsym               EPPR1   B_VECTNIL+16
         1 000127   000000 701000 xent               TSX1    ITR$WRITE
         1 000130   000000 011000                    NOP     0

      121      849    2           START = START + LEFT;

    849  1 000131   200014 236100                    LDQ     START,,AUTO
         1 000132   200007 036100                    ADLQ    LEFT,,AUTO
         1 000133   200014 756100                    STQ     START,,AUTO

      122      850    2           LE = LE - LEFT;

    850  1 000134   200015 236100                    LDQ     LE,,AUTO
         1 000135   200007 136100                    SBLQ    LEFT,,AUTO
         1 000136   200015 756100                    STQ     LE,,AUTO

      123      851    2           GOTO MORE;

    851  1 000137   000070 710000 1                  TRA     MORE

      124      852        /**/
      125      853    2   END;
      126      854        /**/
      127      855        %EJECT;
PL6.E3A0      #001=ITE$ERROR File=ITE$ERROR.:E05TSI                              TUE 07/29/97 23:03 Page:17
      128      856        /**/
      129      857    1   M_TRUNC: PROC;

    857  1 000140   200012 741300       M_TRUNC      STX1  ! SAVEOUT+2,,AUTO

      130      858        /**/
      131      859    2           CALL ITR$WRITE (VECTOR(TIGR_BUF),ERR_INDEX);

    859  1 000141   200006 630500                    EPPR0   ERR_INDEX,,AUTO
         1 000142   200017 450500                    STP0    LE+2,,AUTO
         1 000143   000005 236000 2                  LDQ     5
         1 000144   200016 756100                    STQ     LE+1,,AUTO
         1 000145   200016 630500                    EPPR0   LE+1,,AUTO
         1 000146   000020 631400 xsym               EPPR1   B_VECTNIL+16
         1 000147   000000 701000 xent               TSX1    ITR$WRITE
         1 000150   000000 011000                    NOP     0

      132      860    3           IF (IT_OUTDEV ~= IT_ECHODEV) THEN DO;

    860  1 000151   000000 236000 xsym               LDQ     IT_OUTDEV
         1 000152   000000 116000 xsym               CMPQ    IT_ECHODEV
         1 000153   000171 600000 1                  TZE     s:867

      133      861    3              SAVEOUT = IT_OUTDEV;

    861  1 000154   200010 756100                    STQ     SAVEOUT,,AUTO

      134      862    3              IT_OUTDEV = IT_ECHODEV;

    862  1 000155   000000 235000 xsym               LDA     IT_ECHODEV
         1 000156   000000 755000 xsym               STA     IT_OUTDEV

      135      863    3              CALL ITR$WRITE (VECTOR(TIGR_BUF),ERR_INDEX);

    863  1 000157   200006 630500                    EPPR0   ERR_INDEX,,AUTO
         1 000160   200017 450500                    STP0    LE+2,,AUTO
         1 000161   000005 236000 2                  LDQ     5
PL6.E3A0      #001=ITE$ERROR File=ITE$ERROR.:E05TSI                              TUE 07/29/97 23:03 Page:18
         1 000162   200016 756100                    STQ     LE+1,,AUTO
         1 000163   200016 630500                    EPPR0   LE+1,,AUTO
         1 000164   000020 631400 xsym               EPPR1   B_VECTNIL+16
         1 000165   000000 701000 xent               TSX1    ITR$WRITE
         1 000166   000000 011000                    NOP     0

      136      864    3              IT_OUTDEV = SAVEOUT;

    864  1 000167   200010 235100                    LDA     SAVEOUT,,AUTO
         1 000170   000000 755000 xsym               STA     IT_OUTDEV

      137      865    3              END;

      138      866        /**/
      139      867    2           TIGR_BUF = ' ';

    867  1 000171   040000 100400                    MLR     fill='040'O
         1 000172   000035 000001 xsym               ADSC9   B_VECTNIL+29             cn=0,n=1
         1 000173   000000 000120 xsym               ADSC9   TIGR_BUF                 cn=0,n=80

      140      868    2           LEFT = LENGTHC(TIGR_BUF);

    868  1 000174   000120 235007                    LDA     80,DL
         1 000175   200007 755100                    STA     LEFT,,AUTO

      141      869    2           ERR_INDEX = 0;

    869  1 000176   200006 450100                    STZ     ERR_INDEX,,AUTO

      142      870    2           RETURN;

    870  1 000177   200012 221300                    LDX1  ! SAVEOUT+2,,AUTO
         1 000200   000001 702211                    TSX2  ! 1,X1

ERR_END$
 Sect OctLoc
   0     000   001423 406000                                                    ....
PL6.E3A0      #001=ITE$ERROR File=ITE$ERROR.:E05TSI                              TUE 07/29/97 23:03 Page:19

IT_ERR
 Sect OctLoc
   0     001   145053 151163   040141 156040   165156 153156   157167 156040    e+is an unknown
   0     005   155157 144145   154040 157162   040146 145141   164165 162145    model or feature
   0     011   040142 157141   162144 040156   165155 142145   162146 051116     board numberf)N
   0     015   157040 155157   162145 040164   150141 156040   065040 163154    o more than 5 sl
   0     021   141166 145040   103120 125047   163040 155141   171040 142145    ave CPU's may be
   0     025   040144 145146   151156 145144   147042 151163   040141 154162     definedg"is alr
   0     031   145141 144171   040141 163163   151147 156145   144040 055040    eady assigned -
   0     035   151147 156157   162145 144040   150145 162145   150042 115157    ignored hereh"Mo
   0     041   162145 040164   150141 156040   047104 105126   115101 130047    re than 'DEVMAX'
   0     045   040144 145166   151143 145163   040144 145146   151156 145144     devices defined
   0     051   151041 103150   141156 156145   154040 162141   156147 145040    i!Channel range
   0     055   151163 040154   151155 151164   145144 040164   157040 145151    is limited to ei
   0     061   147150 164152   055104 145166   040156 165155   142145 162040    ghtj-Dev number
   0     065   151156 040155   156145 155157   156151 143040   155165 163164    in mnemonic must
   0     071   040142 145040   164167 157040   143150 141162   141143 164145     be two characte
   0     075   162163 153044   105151 147150   164040 144145   166151 143145    rsk$Eight device
   0     101   163040 155141   170040 157156   040165 156151   164040 163165    s max on unit su
   0     105   142055 163171   163164 145155   154026 106157   165162 040151    b-systeml.Four i
   0     111   157155 163040   151163 040155   141170 040166   141154 165145    oms is max value
   0     115   155053 103157   155155 141156   144163 040157   165164 040157    m+Commands out o
   0     121   146040 157162   144145 162040   055040 111117   115040 143157    f order - IOM co
   0     125   155155 141156   144040 151147   156157 162145   144156 034104    mmand ignoredn.D
   0     131   145166 151143   145040 145162   162157 162040   162145 141144    evice error read
   0     135   151156 147040   143157 155155   141156 144157   040103 157162    ing commando Cor
   0     141   162145 143164   040124 111107   122040 143157   155155 141156    rect TIGR comman
   0     145   144163 040141   156144 040162   145142 157157   164160 043104    ds and rebootp#D
   0     151   165160 154151   143141 164145   040106 105120   040156 165155    uplicate FEP num
   0     155   142145 162040   055040 151147   156157 162145   144040 150145    ber - ignored he
   0     161   162145 161032   105162 162157   162040 147145   164164 151156    req.Error gettin
   0     165   147040 144141   164141 040163   145147 155145   156164 162033    g data segmentr.
   0     171   111117 115043   040163 160145   143151 146151   145144 040151    IOM# specified i
   0     175   163040 164157   157040 154141   162147 145163   042103 150141    s too larges"Cha
   0     201   156040 156165   155142 145162   040163 160145   143151 146151    n number specifi
   0     205   145144 040151   163040 164157   157040 154141   162147 145164    ed is too larget
PL6.E3A0      #001=ITE$ERROR File=ITE$ERROR.:E05TSI                              TUE 07/29/97 23:03 Page:20
   0     211   066111 117123   040160 141143   153145 164163   040167 151154    6IOS packets wil
   0     215   154040 142145   040142 165151   154164 040055   040163 160145    l be built - spe
   0     221   143151 146151   145144 040156   165155 142145   162040 164157    cified number to
   0     225   157040 154141   162147 145165   046105 162162   157162 040162    o largeu&Error r
   0     231   145164 165162   156040 164162   171151 156147   040164 157040    eturn trying to
   0     235   147145 164040   164141 142154   145040 163160   141143 145166    get table spacev
   0     241   034124 150145   040155 141170   040160 157162   164040 156165    .The max port nu
   0     245   155142 145162   040151 163040   163145 166145   156167 042111    mber is sevenw"I
   0     251   154154 145147   141154 040106   105120 040156   165155 142145    llegal FEP numbe
   0     255   162040 055040   155165 163164   040142 145040   061040 055040    r - must be 1 -
   0     261   064170 047105   162162 157162   040165 163151   156147 040143    4x'Error using c
   0     265   166155 040164   157040 151156   151164 040160   162157 143145    vm to init proce
   0     271   163163 157162   040160 141147   145163 171104   111154 154145    ssor pagesyDIlle
   0     275   147141 154040   143150 141156   156145 154040   156165 155142    gal channel numb
   0     301   145162 040055   040162 145163   164162 151143   164151 157156    er - restriction
   0     305   163040 157156   040143 150141   156156 145154   040162 141156    s on channel ran
   0     311   147145 163040   156157 164040   146157 154154   157167 145144    ges not followed
   0     315   172070 151163   040155 141170   151155 165155   040156 165155    z8is maximum num
   0     321   142145 162040   157146 040145   156161 040160   141147 145163    ber of enq pages
   0     325   040055 040164   150151 163040   166141 154165   145040 167151     - this value wi
   0     331   154154 040142   145040 165163   145144 173070   151163 040155    ll be used{8is m
   0     335   141170 151155   165155 040156   165155 142145   162040 157146    aximum number of
   0     341   040143 146165   040160 141147   145163 040055   040164 150151     cfu pages - thi
   0     345   163040 166141   154165 145040   167151 154154   040142 145040    s value will be
   0     351   165163 145144   174043 101040   163171 156164   141170 040145    used|#A syntax e
   0     355   162162 157162   040150 141163   040142 145145   156040 144145    rror has been de
   0     361   164145 143164   145144 040141   164175 023157   146040 164150    tected at}.of th
   0     365   145040 154141   163164 040143   157155 155141   156144 176053    e last command~+
   0     371   105162 162157   162040 157156   040162 145141   144057 167162    Error on read/wr
   0     375   151164 145040   157146 040163   171163 164145   155040 144151    ite of system di
   0     401   163153 040055   040162 145142   157157 164177   043123 171163    sk - reboot.#Sys
   0     405   164145 155040   144151 163153   040141 162145   141040 164157    tem disk area to
   0     411   157040 163155   141154 154040   055040 162145   142157 157164    o small - reboot
   0     415   200026 105162   162157 162040   154157 141144   151156 147040    ..Error loading
   0     421   146151 162155   167141 162145   201050 124157   157040 155141    firmware.(Too ma
   0     425   156171 040162   145163 157165   162143 145163   040163 160145    ny resources spe
   0     431   143151 146151   145144 040055   040145 151147   150164 040155    cified - eight m
PL6.E3A0      #001=ITE$ERROR File=ITE$ERROR.:E05TSI                              TUE 07/29/97 23:03 Page:21
   0     435   141170 202054   111154 154145   147141 154040   162145 163157    ax.,Illegal reso
   0     441   165162 143145   040156 141155   145040 055040   145151 147150    urce name - eigh
   0     445   164040 143150   141162 141143   164145 162163   040155 141170    t characters max
   0     451   203007 123164   141162 164145   144204 012127   157156 164040    ..Started..Wont
   0     455   163164 141162   164205 012103   166155 040141   154164 162145    start..Cvm altre
   0     461   164206 021123   164145 141154   040160 141147   145040 141154    t..Steal page al
   0     465   164162 145164   210067 101040   163171 163164   145155 040143    tret.7A system c
   0     471   157156 163157   154145 040155   165163 164040   142145 040163    onsole must be s
   0     475   160145 143151   146151 145144   040151 156040   164150 145040    pecified in the
   0     501   143157 156146   151147 165162   141164 151157   156211 076101    configuration.>A
   0     505   164040 154145   141163 164040   157156 145040   144151 163153    t least one disk
   0     511   040144 162151   166145 040155   165163 164040   142145 040163     drive must be s
   0     515   160145 143151   146151 145144   040151 156040   164150 145040    pecified in the
   0     521   143157 156146   151147 165162   141164 151157   156212 076101    configuration.>A
   0     525   164040 154145   141163 164040   157156 145040   164141 160145    t least one tape
   0     531   040144 162151   166145 040155   165163 164040   142145 040163     drive must be s
   0     535   160145 143151   146151 145144   040151 156040   164150 145040    pecified in the
   0     541   143157 156146   151147 165162   141164 151157   156214 061127    configuration.1W
   0     545   157162 153163   164141 164151   157156 040156   141155 145163    orkstation names
   0     551   040141 162145   040154 151155   151164 145144   040164 157040     are limited to
   0     555   145151 147150   164040 143150   141162 141143   164145 162163    eight characters
   0     561   215077 101040   155141 170151   155165 155040   157146 040146    .?A maximum of f
   0     565   157165 162040   167157 162153   163164 141164   151157 156163    our workstations
   0     571   040050 151156   143154 165144   151156 147040   114117 103101     (including LOCA
   0     575   114051 040155   141171 040142   145040 144145   146151 156145    L) may be define
   0     601   144216 050123   171163 164145   155040 144151   163153 040143    d.(System disk c
   0     605   141156 156157   164040 142145   040146 157165   156144 040151    annot be found i
   0     611   156040 104103   124040 164141   142154 145217   062111 154154    n DCT table.2Ill
   0     615   145147 141154   040106 105120   040143 151162   143165 154141    egal FEP circula
   0     621   162040 161165   145165 145040   163151 172145   040055 040156    r queue size - n
   0     625   157164 040061   055064 040055   040061 040165   163145 144220    ot 1-4 - 1 used.
   0     631   050106 157162   155040 156141   155145 163040   141162 145040    (Form names are
   0     635   154151 155151   164145 144040   164157 040163   151170 040143    limited to six c
   0     641   150141 162141   143164 145162   163221 055115   157144 145154    haracters.-Model
   0     645   040156 165155   142145 162163   040141 162145   040154 151155     numbers are lim
   0     651   151164 145144   040164 157040   145151 147150   164040 143150    ited to eight ch
   0     655   141162 141143   164145 162163   222032 055040   103141 156047    aracters..- Can'
PL6.E3A0      #001=ITE$ERROR File=ITE$ERROR.:E05TSI                              TUE 07/29/97 23:03 Page:22
   0     661   164040 146151   156144 040164   150151 163040   146151 162155    t find this firm
   0     665   167141 162145   223060 123151   164145 040151   144145 156164    ware.0Site ident
   0     671   151146 151143   141164 151157   156040 143141   156156 157164    ification cannot
   0     675   040145 170143   145145 144040   163151 170040   143150 141162     exceed six char
   0     701   141143 164145   162163 224074   151163 040155   141170 151155    acters.<is maxim
   0     705   165155 040156   165155 142145   162040 157146   040143 147161    um number of cgq
   0     711   040155 141160   040160 141147   145163 040055   040164 150151     map pages - thi
   0     715   163040 166141   154165 145040   167151 154154   040142 145040    s value will be
   0     721   165163 145144   225073 145156   164162 151145   163040 162145    used.;entries re
   0     725   163145 162166   145144 040146   157162 040143   157156 164145    served for conte
   0     731   170164 040055   040160 145162   155151 163163   151142 154145    xt - permissible
   0     735   040162 141156   147145 040151   163040 064040   055040 062065     range is 4 - 25
   0     741   064226 060116   141164 151166   145040 154141   156147 165141    4.0Native langua
   0     745   147145 040151   144145 156164   151146 151145   162040 155165    ge identifier mu
   0     751   163164 040142   145040 157156   145040 143150   141162 141143    st be one charac
   0     755   164145 162227   046126 141154   165145 040163   160145 143151    ter.&Value speci
   0     761   146151 145144   040146 157162   040115 101130   120122 111117    fied for MAXPRIO
   0     765   040145 170143   145145 144163   040061 065230   040103 115104     exceeds 15. CMD
   0     771   040154 145156   147164 150040   145170 143145   145144 163040     length exceeds
   0     775   070060 040143   150141 162141   143164 145162   163231 050151    80 characters.(i
   0    1001   163040 144165   160154 151143   141164 145144   040141 163040    s duplicated as
   0    1005   141040 163150   141162 145144   040160 162157   143145 163163    a shared process
   0    1011   157162 040156   141155 145232   073111 156163   165146 146151    or name.;Insuffi
   0    1015   143151 145156   164040 164141   142154 145040   163160 141143    cient table spac
   0    1021   145040 151156   040124 111107   122040 055040   144145 143162    e in TIGR - decr
   0    1025   145141 163145   040141 155157   165156 164040   162145 161165    ease amount requ
   0    1031   151162 145144   233053 111154   154145 147141   154040 127123    ired.+Illegal WS
   0    1035   116040 156141   155145 040055   040077 040155   165163 164040    N name - ? must
   0    1041   142145 040154   141163 164040   143150 141162   141143 164145    be last characte
   0    1045   162234 071101   125124 117103   117116 106111   107040 156157    r.9AUTOCONFIG no
   0    1051   164040 141154   154157 167145   144040 167151   164150 040157    t allowed with o
   0    1055   164150 145162   040143 157156   146151 147165   162141 164151    ther configurati
   0    1061   157156 040143   157155 155141   156144 163056   235104 104141    on commands..DDa
   0    1065   164141 040151   156143 157156   163151 163164   145156 143171    ta inconsistency
   0    1071   040151 156040   122145 143157   166145 162171   040102 165146     in Recovery Buf
   0    1075   146145 162040   055040 122145   143157 166145   162171 040102    fer - Recovery B
   0    1101   165146 146145   162040 156157   164040 162145   163164 157162    uffer not restor
PL6.E3A0      #001=ITE$ERROR File=ITE$ERROR.:E05TSI                              TUE 07/29/97 23:03 Page:23
   0    1105   145144 236030   116157 040122   145143 157166   145162 171040    ed..No Recovery
   0    1111   102165 146146   145162 040146   157165 156144   237075 104141    Buffer found.=Da
   0    1115   164141 040151   156143 157156   163151 163164   145156 143171    ta inconsistency
   0    1121   040151 156040   115157 156151   164157 162040   104141 164141     in Monitor Data
   0    1125   040055 040115   165154 164151   160162 157143   145163 163151     - Multiprocessi
   0    1131   156147 040144   151163 141142   154145 144240   063101 120040    ng disabled.3AP
   0    1135   144145 166151   143145 163040   155165 163164   040142 145040    devices must be
   0    1141   144145 146151   156145 144040   157156 040143   157156 163145    defined on conse
   0    1145   143165 164151   166145 040143   150141 156156   145154 163056    cutive channels.
   0    1151   241070 065061   061040 151163   040155 141170   151155 165155    .8511 is maximum
   0    1155   040156 165155   142145 162040   157146 040165   163145 162163     number of users
   0    1161   040055 040164   150151 163040   166141 154165   145040 167151     - this value wi
   0    1165   154154 040142   145040 165163   145144 242063   131157 165040    ll be used.3You
   0    1171   150141 166145   040155 165154   164151 160154   145040 144145    have multiple de
   0    1175   146151 156151   164151 157156   163040 146157   162040 157156    finitions for on
   0    1201   145040 157146   040171 157165   162040 103120   125163 056243    e of your CPUs..
   0    1205   070124 150145   040143 157156   163157 154145   040164 150141    8The console tha
   0    1211   164040 101101   122104 126101   122113 040146   157165 156144    t AARDVARK found
   0    1215   040151 163040   156157 164040   151156 040164   150145 040124     is not in the T
   0    1221   111107 122040   144145 143153   056245 046055   040143 157165    IGR deck..&- cou
   0    1225   154144 040156   157164 040160   141162 164151   164151 157156    ld not partition
   0    1231   054040 115044   123131 123103   117116 040141   154164 162145    , M$SYSCON altre
   0    1235   164246 056105   162162 157162   040157 143143   165162 145144    t..Error occured
   0    1241   040144 157151   156147 040122   105101 104040   103117 116106     doing READ CONF
   0    1245   111107 040143   157155 155141   156144 040164   157040 115103    IG command to MC
   0    1251   101247 111111   117103 101103   110105 040163   151172 145040    A.IIOCACHE size
   0    1255   155165 163164   040142 145040   062115 127040   154145 163163    must be 2MW less
   0    1261   040164 150141   156040 141166   141151 154141   142154 145040     than available
   0    1265   155145 155157   162171 040141   156144 040150   141163 040142    memory and has b
   0    1271   145145 156040   141144 152165   163164 145144   250056 116157    een adjusted..No
   0    1275   144145 040156   165155 142145   162040 151163   040147 162145    de number is gre
   0    1301   141164 145162   040164 150141   156040 154141   162147 145163    ater than larges
   0    1305   164040 106105   120040 156165   155142 145162   251031 167151    t FEP number..wi
   0    1311   154154 040142   145040 165163   145144 040146   157162 040123    ll be used for S
   0    1315   123116 137115   101130 056252   035167 151154   154040 142145    SN_MAX...will be
   0    1321   040165 163145   144040 146157   162040 123123   116137 103114     used for SSN_CL
   0    1325   111105 116124   123056 253035   167151 154154   040142 145040    IENTS...will be
PL6.E3A0      #001=ITE$ERROR File=ITE$ERROR.:E05TSI                              TUE 07/29/97 23:03 Page:24
   0    1331   165163 145144   040146 157162   040123 123116   137123 105122    used for SSN_SER
   0    1335   126105 122123   056254 033167   151154 154040   142145 040165    VERS...will be u
   0    1341   163145 144040   146157 162040   117123 111122   117125 124105    sed for OSIROUTE
   0    1345   123056 255061   103150 141156   040156 165155   142145 162040    S..1Chan number
   0    1351   163160 145143   151146 151145   144040 151163   040164 157157    specified is too
   0    1355   040163 155141   154154 040050   070074 075040   156156 040074     small (8<= nn <
   0    1361   075155 141170   051256 047144   165160 154151   143141 164145    =max).'duplicate
   0    1365   040144 145166   151143 145040   156141 155145   040165 163145     device name use
   0    1371   144054 040116   117124 040141   154154 157167   145144 257031    d, NOT allowed..
   0    1375   150141 163040   141156 040157   165164 163164   141156 144151    has an outstandi
   0    1401   156147 040111   117040 052052   052260 025105   162162 157162    ng IO ***..Error
   0    1405   040166 145162   151146 171040   123101 104040   144141 164141     verify SAD data
   0    1411   261010 122145   154145 141163   145144 262036   116157 144145    ..Released..Node
   0    1415   163040 166141   154165 145040   151163 040147   162145 141164    s value is great
   0    1421   145162 040164   150141 156040   071071 777025   052052 052052    er than 99..****
   0    1425   040116 117040   115105 123123   101107 105040   106117 125116     NO MESSAGE FOUN
   0    1431   104*** ******                                                    D...

(unnamed)
 Sect OctLoc
   2     000   000001 006000   000000 000000   000023 777640   000000 006000    ................
   2     004   000000 000120   000002 006000   000004 006000                    ...P........
      143      871    2   END;
      144      872    1   END;

PL6.E3A0      #001=ITE$ERROR File=ITE$ERROR.:E05TSI                              TUE 07/29/97 23:03 Page:25
--  Include file information  --

   IT_ERR_C.:E05TOU  cannot be made into a system file and is referenced.
   IT_SUBS_C.:E05TOU  is referenced.
      No diagnostics issued in procedure ITE$ERROR.
PL6.E3A0      #001=ITE$ERROR File=ITE$ERROR.:E05TSI                              TUE 07/29/97 23:03 Page:26

 **** Variables and constants ****

  ****  Section 000 RoData ITE$ERROR

  ****  Scalars and arrays  ****
OctLoc.c.b A Datatyp(siz) R M Lvl/name                 OctLoc.c.b A Datatyp(siz) R M Lvl/name

     0-0-0/w PTR         r     1 ERR_END$                   1-0-0/c STRC(28521) r     1 IT_ERR

  ****  Auto variables  ****

  ****  Scalars and arrays  ****
OctLoc.c.b A Datatyp(siz) R M Lvl/name                 OctLoc.c.b A Datatyp(siz) R M Lvl/name

     3-0-0/w PTR         r     1 @ERR_CODE                  4-0-0/w PTR         r     1 @SUB$
    13-0-0/w PTR         r     1 @TEXTC                     5-0-0/w PTR         r     1 ERR$
    *0-0-0/w UBIN        r     1 ERR_CODE                   6-0-0/w SBIN        r     1 ERR_INDEX
    15-0-0/w SBIN        r     1 LE                         7-0-0/w SBIN        r     1 LEFT
    10-0-0/w UBIN        r     1 SAVEOUT                   14-0-0/w SBIN        r     1 START
    *0-0-0/w PTR         r     1 SUB$                      *0-0-0/c ASTR(9)     r     1 TEXTC

  ****  SYMREF variables  ****

  ****  Scalars and arrays  ****
OctLoc.c.b A Datatyp(siz) R M Lvl/name                 OctLoc.c.b A Datatyp(siz) R M Lvl/name

     0-0-0/w UBIN        r     1 IT_ECHODEV                 0-0-0/w UBIN        r     1 IT_OUTDEV
     0-0-0/c CHAR(80)    r     1 TIGR_BUF

  ****  BASED and DCB variables  ****

  ****  Scalars and arrays  ****
OctLoc.c.b A Datatyp(siz) R M Lvl/name                 OctLoc.c.b A Datatyp(siz) R M Lvl/name

     0-0-0/c ASTR(18)    r     1 IT$ERRTEXT                 0-0-0/c ASTR(9)     r     1 TEXT$C

PL6.E3A0      #001=ITE$ERROR File=ITE$ERROR.:E05TSI                              TUE 07/29/97 23:03 Page:27

   Procedure ITE$ERROR requires 129 words for executable code.
   Procedure ITE$ERROR requires 16 words of local(AUTO) storage.

    No errors detected in file ITE$ERROR.:E05TSI    .
PL6.E3A0      #001=ITE$ERROR File=ITE$ERROR.:E05TSI                              TUE 07/29/97 23:03 Page:28
          *** CROSS REFERENCE LISTING ***
**     DENOTES     IDENTIFIER DEFINITION
<<                 IDENTIFIER'S VALUE SET
>>                 IDENTIFIER'S VALUE USED
<>                 IDENTIFIER SET AND/OR USED
--                 IDENTIFIER REFERENCED
PL6.E3A0      #001=ITE$ERROR File=ITE$ERROR.:E05TSI                              TUE 07/29/97 23:03 Page:29
          MINI XREF LISTING

ERR$
       296**DCL       806<<ASSIGN    811>>DOWHILE   812>>IF        813<<ASSIGN    813>>ASSIGN    813>>ASSIGN
       819>>CALL      819>>CALL
ERR_CODE
        12**DCL        10--PROC      812>>IF
ERR_END$
       314**DCL       811>>DOWHILE
ERR_INDEX
       297**DCL       804<<ASSIGN    841>>CALLBLT   844<<ASSIGN    844>>ASSIGN    859<>CALL      863<>CALL
       869<<ASSIGN
GOT_IT
       819**LABEL     812--GOTO
IT$ERRTEXT.CODE
       783**DCL       812>>IF        813--ASSIGN
IT$ERRTEXT.TEXTC
       784**DCL       819<>CALL
IT$ERRTEXT.TEXTC.COUNT
       785**DCL       786--IMP-SIZ   813--ASSIGN    813>>ASSIGN    819>>CALL
ITR$WRITE
       310**DCL-ENT   848--CALL      859--CALL      863--CALL
IT_ECHODEV
       303**DCL       860>>IF        862>>ASSIGN
IT_ERR
       315**DCL       806--ASSIGN
IT_ERR.ERREND
       775**DCL       314--DCLINIT
IT_OUTDEV
       302**DCL       860>>IF        861>>ASSIGN    862<<ASSIGN    864<<ASSIGN
LE IN PROCEDURE M_TADD
       834**DCL       838<<ASSIGN    841>>CALLBLT   843>>ASSIGN    844>>ASSIGN    850<<ASSIGN    850>>ASSIGN
LEFT
       298**DCL       805<<ASSIGN    841>>CALLBLT   843<<ASSIGN    843>>ASSIGN    849>>ASSIGN    850>>ASSIGN
PL6.E3A0      #001=ITE$ERROR File=ITE$ERROR.:E05TSI                              TUE 07/29/97 23:03 Page:30
       868<<ASSIGN
MORE IN PROCEDURE M_TADD
       841**LABEL     851--GOTO
M_TADD
       825**PROC      809--CALL      819--CALL
M_TRUNC
       857**PROC      820--CALL
SAVEOUT
       299**DCL       861<<ASSIGN    864>>ASSIGN
START IN PROCEDURE M_TADD
       833**DCL       837<<ASSIGN    841>>CALLBLT   849<<ASSIGN    849>>ASSIGN
SUB$
        13**DCL        10--PROC      808--IF        808>>IF        809>>CALL      809>>CALL
TEXT$C
       787**DCL       809<>CALL
TEXT$C.COUNT
       788**DCL       789--IMP-SIZ   809>>CALL
TEXTC IN PROCEDURE M_TADD
       827**DCL       825--PROC
TEXTC.COUNT IN PROCEDURE M_TADD
       828**DCL       829--IMP-SIZ   838>>ASSIGN    841>>CALLBLT
TEXTC.TEXT IN PROCEDURE M_TADD
       829**DCL       841>>CALLBLT
TIGR_BUF
       306**DCL       803<<ASSIGN    805--ASSIGN    841<<CALLBLT   848--CALL      848--CALL      859--CALL
       863--CALL      867<<ASSIGN    868--ASSIGN
TRUNC IN PROCEDURE M_TADD
       848**LABEL     841--CALLALT
