VERSION E05

PL6.E3A0      #001=ITF$FEP File=ITF$FEP.:E05TSI                                  TUE 07/29/97 23:03 Page:1
        1        1        /*M*     Allocate TIGR built front end tables */
        2        2        /*T***********************************************************/
        3        3        /*T*                                                         */
        4        4        /*T* Copyright (c) Bull HN Information Systems Inc., 1997    */
        5        5        /*T*                                                         */
        6        6        /*T***********************************************************/
        7        7        /**/
        8        8        /*P*     NAME:     ITF$FEP
        9        9                 PURPOSE:  ITF$FEP builds and initializes all of the tables
       10       10                           relating to the front end processors    */
       11       11        ITF$FEP: PROC (PTR$)  ALTRET;
       12       12        /**/
       13       13    1   DCL PTR$ PTR;                           /* PTR TO TIGR TABLE SPACE            */
       14       14        /**/
       15       15        /*  INCLUDE FILES  */
       16       16        /**/
       17       17        %INCLUDE IT$FEP;
       18       43        %INCLUDE IT_ERROR_C;
       19      126        %INCLUDE NI_DATA_C;
       20      239        %INCLUDE IT$CMDWD;
       21      247        %INCLUDE HF_DATA_R;
       22      290        %INCLUDE NI_DATA_R;
       23      727        %INCLUDE KI_DATA_R;
       24      753        %INCLUDE KI_MACROS_C;
       25     1361        %INCLUDE KI_SUBS_C;
       26     1497        %INCLUDE IT_IDATA_R;
       27     1614        %SUB YES = '1'B/*YES*/;
       28     1615        %SUB NO = '0'B/*NO*/;
       29     1616        %NI$PARTITION(NAME=IT_PARTITION,STCLASS=SYMREF);
       30     1624        /**/
       31     1625        /*  AUTOMATIC  */
       32     1626        /**/
       33     1627    1   DCL CHTX UBIN WORD;
       34     1628    1   DCL FEI# UBIN WORD;
       35     1629    1   DCL FEP# UBIN WORD;
       36     1630    1   DCL CMD$ PTR;
       37     1631    1   DCL DQH$ PTR;
PL6.E3A0      #001=ITF$FEP File=ITF$FEP.:E05TSI                                  TUE 07/29/97 23:03 Page:2
       38     1632    1   DCL 1 DUPCHANERR_TEXT,
       39     1633    1         2 COUNT UBIN(9) UNAL,
       40     1634    1         2 CHANNEL CHAR(8) UNAL,
       41     1635    1         2 IOMTEXT CHAR(1) UNAL,
       42     1636    1         2 DASH CHAR(1) UNAL,
       43     1637    1         2 CHANTEXT CHAR(2) UNAL;
       44     1638    1   DCL I SBIN;
       45     1639        /**/
       46     1640        /*  BASED  */
       47     1641        /**/
       48     1642        %KI$FEI (STCLASS=BASED);
       49     1726        %NI$DQH;
       50     1749        %NI$CHT;
       51     1752        %NI$IOM;
       52     1757        %NI$MBX;
       53     1776        /**/
       54     1777        /*  ENTRY DECLARES  */
       55     1778        /**/
       56     1779    1   DCL ITE$ERROR ENTRY(2);
       57     1780    1   DCL KIQ$FEINT ENTRY(3);
       58     1781    1   DCL ITH$ALLOCATE ENTRY(2) ALTRET;
       59     1782        /**/
       60     1783        /*  SYMREFS  */
       61     1784        /**/
       62     1785    1   DCL B$DS5$ PTR SYMREF;
       63     1786    1   DCL IT_FEI$$ PTR SYMREF;
       64     1787        /**/
       65     1788        /*  Constant */
       66     1789        %KI$FEI (FPTN=KI_FEI,STCLASS=CONSTANT);
       67     1873
       68     1874        %EJECT;
PL6.E3A0      #001=ITF$FEP File=ITF$FEP.:E05TSI                                  TUE 07/29/97 23:03 Page:3
       69     1875        /*D*     NAME:     ITF$FEP
       70     1876                 INPUT:    PTR$ - pointer to next available word in TIGR table
       71     1877                                  area
       72     1878                           Command table - built by ITC$CHECK_FEP in DS5.
       73     1879                 OUTPUT:   FEP tables built and initialized
       74     1880        *
       75     1881                 DESCRIPTION:  ITF$FEP initializes the channel table for the
       76     1882                           channel connected to the FEP, increments KI_MXFE,
       77     1883                           initializes KI_FECH and builds the DQH entry for
       78     1884                           the FEP.
       79     1885        */
       80     1886        /**/
       81     1887    1           CMD$ = B$DS5$;
       82     1888        /**/
       83     1889    1           CMD$ = PINCRW (CMD$,SIZEW(IT$CMDWD));
       84     1890        /**/
       85     1891    1           CHTX = ((CMD$ -> IT$FEP.IOM#) * %N_MAXCHANS) + CMD$ -> IT$FEP.CHAN;
       86     1892    2           IF (NI$CHT$ -> NI$CHT.DQH$(CHTX) ~= ADDR(NIL) ) THEN DO;
       87     1893    2              DUPCHANERR_TEXT.COUNT = SIZEC(DUPCHANERR_TEXT) - 1;
       88     1894    2              DUPCHANERR_TEXT.CHANNEL = 'CHANNEL ';
       89     1895    2              CALL BINCHAR(DUPCHANERR_TEXT.IOMTEXT,CMD$ -> IT$FEP.IOM#);
       90     1896    2              DUPCHANERR_TEXT.DASH = '-';
       91     1897    2              CALL BINCHAR(DUPCHANERR_TEXT.CHANTEXT,CMD$ -> IT$FEP.CHAN);
       92     1898    2              CALL ITE$ERROR(%E$DUPCHAN,ADDR(DUPCHANERR_TEXT));
       93     1899    2              RETURN;
       94     1900    2              END;
       95     1901    2           DO I=1 TO KI_MXFE;
       96     1902    3              IF IT_FEI$$->KI$FEI$(I)->KI$FEI.FEP# = CMD$->IT$FEP.FEP# THEN DO;
       97     1903    3                 CALL ITE$ERROR(%E$DUPFEP#);
       98     1904    3                 RETURN;
       99     1905    3                 END;
      100     1906    2              END;
      101     1907    1           KI_MXFE = KI_MXFE + 1;
      102     1908    1           FEI# = KI_MXFE;
      103     1909    1           FEP# = CMD$ -> IT$FEP.FEP#;
      104     1910        /**/
      105     1911    1           NI$CHT$ -> NI$CHT.DQH$(CHTX) = PTR$;
PL6.E3A0      #001=ITF$FEP File=ITF$FEP.:E05TSI                                  TUE 07/29/97 23:03 Page:4
      106     1912    1           NI$CHT$ -> NI$CHT.POSTER(CHTX) = ENTADDR(KIQ$FEINT);
      107     1913        /**/
      108     1914    1           DQH$ = PTR$;
      109     1915    1           CALL ITH$ALLOCATE(PTR$,SIZEW(NI$DQH)) ALTRET(IT$FEP_ERR);
      110     1916        /**/
      111     1917    1           DQH$ -> NI$DQH = NI$DQH_C;     /* set to constant inited structure    */
      112     1918        /**/
      113     1919        /*      DQH$ -> NI$DQH.FL$ = ADDR(NIL);         */
      114     1920        /*      DQH$ -> NI$DQH.IO$ = ADDR(NIL);         */
      115     1921    1           IF HW_IMX THEN  ;
      116     1922        /*         DQH$ -> NI$DQH.MBX$ = ADDR(NIL);     */
      117     1923    1           ELSE
      118     1924    1              DQH$ -> NI$DQH.MBX$ = PINCRW (NI$IOM$(CMD$->IT$FEP.IOM#) -> NI$IOM.MBX$,
      119     1925    1                SIZEW(NI$MBX(0)) * CMD$->IT$FEP.CHAN);
      120     1926        /*      DQH$ -> NI$DQH.SQH$ = ADDR(NIL);        */
      121     1927        /*      DQH$ -> NI$DQH.MPC$ = ADDR(NIL);        */
      122     1928        /*      DQH$ -> NI$DQH.IOSTATUS$ = ADDR(NIL);    NO STATUS FOR DIRECT CHANNELS */
      123     1929    1           DQH$ -> NI$DQH.IOCHAN.IOM = CMD$ -> IT$FEP.IOM#;
      124     1930    1           DQH$ -> NI$DQH.IOCHAN.CHANNEL = CMD$ -> IT$FEP.CHAN;
      125     1931    1           DQH$ -> NI$DQH.FEX = FEI#;
      126     1932    1           IT_PARTITION.IOCHAN(CMD$->IT$FEP.IOM#*%N_MAXCHANS+CMD$->IT$FEP.CHAN) = CMD$
              1932                    -> IT$FEP.FLAGS.DOWN;
      127     1933    1           DQH$ -> NI$DQH.STATE = %IDLE;
      128     1934        /**/
      129     1935    1           IT_FEI$$->KI$FEI$(FEI#) = PTR$;
      130     1936    1           CALL ITH$ALLOCATE (PTR$,SIZEW(KI$FEI)) ALTRET (IT$FEP_ERR);
      131     1937    1           IT_FEI$$->KI$FEI$(FEI#)->KI$FEI = KI_FEI;
      132     1938    1           IT_FEI$$->KI$FEI$(FEI#)->KI$FEI.FEP# = FEP#;
      133     1939    1           IT_FEI$$->KI$FEI$(FEI#)->KI$FEI.FECH.IOM = CMD$ -> IT$FEP.IOM#;
      134     1940    1           IT_FEI$$->KI$FEI$(FEI#)->KI$FEI.FECH.DEV = CMD$ -> IT$FEP.CHAN;
      135     1941        /**/
      136     1942    1           IT_FEI$$->KI$FEI$(FEI#)->KI$FEI.IQSZ = CMD$ -> IT$FEP.INQSZ;
      137     1943    1           IT_FEI$$->KI$FEI$(FEI#)->KI$FEI.OQSZ = CMD$ -> IT$FEP.OUTQSZ;
      138     1944    1           IT_FEI$$->KI$FEI$(FEI#)->KI$FEI.QOS = CMD$ -> IT$FEP.QOS;
      139     1945    1           IT_FEI$$->KI$FEI$(FEI#)->KI$FEI.TIMEOUT.BOOT=CMD$->IT$FEP.TIMEOUT.BOOT;
      140     1946    1           IT_FEI$$->KI$FEI$(FEI#)->KI$FEI.TIMEOUT.DUMP=CMD$->IT$FEP.TIMEOUT.DUMP;
      141     1947    1           IT_FEI$$->KI$FEI$(FEI#)->KI$FEI.TIMEOUT.RUN=CMD$->IT$FEP.TIMEOUT.RUN;
PL6.E3A0      #001=ITF$FEP File=ITF$FEP.:E05TSI                                  TUE 07/29/97 23:03 Page:5
      142     1948    1           IT_FEI$$->KI$FEI$(FEI#)->KI$FEI.TIMEOUT.INT=CMD$->IT$FEP.TIMEOUT.INT;
      143     1949    1           RETURN;
      144     1950    1   IT$FEP_ERR:
      145     1951    1           ALTRETURN;
      146     1952    1   END;

PL6.E3A0      #001=ITF$FEP File=ITF$FEP.:E05TSI                                  TUE 07/29/97 23:03 Page:6
--  Include file information  --

   IT_IDATA_R.:E05TOU  cannot be made into a system file and is referenced.
   KI_SUBS_C.:E05TOU  is referenced.
   KI_MACROS_C.:E05TOU  is referenced.
   KI_DATA_R.:E05TOU  cannot be made into a system file and is referenced.
   NI$TABLES.:E05TOU  is referenced.
   N$REQ.:E05TOU  is referenced.
   NI_DATA_R.:E05TOU  cannot be made into a system file and is referenced.
   HF_DATA_R.:E05TOU  cannot be made into a system file and is referenced.
   IT$CMDWD.:E05TOU  cannot be made into a system file and is referenced.
   NI_DATA_C.:E05TOU  is referenced.
   IT_ERROR_C.:E05TOU  is referenced.
   IT$FEP.:E05TOU  cannot be made into a system file and is referenced.
      No diagnostics issued in procedure ITF$FEP.

   Procedure ITF$FEP requires 186 words for executable code.
   Procedure ITF$FEP requires 18 words of local(AUTO) storage.

    No errors detected in file ITF$FEP.:E05TSI    .

PL6.E3A0      #001=ITF$FEP File=ITF$FEP.:E05TSI                                  TUE 07/29/97 23:03 Page:7

 Object Unit name= ITF$FEP                                    File name= ITF$FEP.:E05TOU
 UTS= JUL 29 '97 23:03:30.48 TUE                              Compiler= PL-6/E31         Sev=      00
 SharedLib= :SHARED_SYSTEM                                    Alt SharedLib=


    ****  Control sections  ****

 Sect   Type Bound  Init  Size OctSiz  Section name(segment info)
    0  RoData even  UTS     19     23  ITF$FEP
    1   Proc  even  none   186    272  ITF$FEP
    2  RoData even  none     8     10  ITF$FEP

    ****  Entry defs  ****

                              Check   Calling
                             calling  sequence
  Sect OctLoc Primary Altret sequence   type   Parms  Name
     1      0   yes    yes     yes      Std        1  ITF$FEP

  ****  Entry refs  ****

         Check        Calling
        calling       sequence
Altret sequence SRef   type   Args  Name
         yes           Std       2 ITE$ERROR
         yes           Std       3 KIQ$FEINT
 yes     yes           Std       2 ITH$ALLOCATE
                       nStd      0 X66_AUTO_1
                       Std       0 B_CONSPOOL_D
                       nStd      0 X66_ARET
                       nStd      0 X66_AALT
PL6.E3A0      #001=ITF$FEP File=ITF$FEP.:E05TSI                                  TUE 07/29/97 23:03 Page:8

  ****  Data refs  ****

  Flags:  r = read only, s = secondary
Flgs Name                             Flgs Name                             Flgs Name
     HW_IMX                                N$DCT$$                               N$FQ$
     NI$CHT$                               NI$FQ$                                NI$IBUF$
     NI$IOM$                               NI$RP$                                KI_FEI$$
     KI_MXFE                               NI$DQH_C                              IT_PARTITION
     B$DS5$                                IT_FEI$$                              B_VECTNIL

  ****  Segment refs  ****

  Flags:  r = read only, s = secondary
Flgs Name                             Flgs Name                             Flgs Name
     NULLSID                               ISSID
PL6.E3A0      #001=ITF$FEP File=ITF$FEP.:E05TSI                                  TUE 07/29/97 23:03 Page:9


        1        1        /*M*     Allocate TIGR built front end tables */
        2        2        /*T***********************************************************/
        3        3        /*T*                                                         */
        4        4        /*T* Copyright (c) Bull HN Information Systems Inc., 1997    */
        5        5        /*T*                                                         */
        6        6        /*T***********************************************************/
        7        7        /**/
        8        8        /*P*     NAME:     ITF$FEP
        9        9                 PURPOSE:  ITF$FEP builds and initializes all of the tables
       10       10                           relating to the front end processors    */
       11       11        ITF$FEP: PROC (PTR$)  ALTRET;

     11  1 000000   000000 700200 xent  ITF$FEP      TSX0  ! X66_AUTO_1
         1 000001   000022 000001                    ZERO    18,1

       12       12        /**/
       13       13    1   DCL PTR$ PTR;                           /* PTR TO TIGR TABLE SPACE            */
       14       14        /**/
       15       15        /*  INCLUDE FILES  */
       16       16        /**/
       17       17        %INCLUDE IT$FEP;
       18       43        %INCLUDE IT_ERROR_C;
       19      126        %INCLUDE NI_DATA_C;
       20      239        %INCLUDE IT$CMDWD;
       21      247        %INCLUDE HF_DATA_R;
       22      290        %INCLUDE NI_DATA_R;
       23      727        %INCLUDE KI_DATA_R;
       24      753        %INCLUDE KI_MACROS_C;
       25     1361        %INCLUDE KI_SUBS_C;
       26     1497        %INCLUDE IT_IDATA_R;
       27     1614        %SUB YES = '1'B/*YES*/;
       28     1615        %SUB NO = '0'B/*NO*/;
       29     1616        %NI$PARTITION(NAME=IT_PARTITION,STCLASS=SYMREF);
       30     1624        /**/
       31     1625        /*  AUTOMATIC  */
       32     1626        /**/
PL6.E3A0      #001=ITF$FEP File=ITF$FEP.:E05TSI                                  TUE 07/29/97 23:03 Page:10
       33     1627    1   DCL CHTX UBIN WORD;
       34     1628    1   DCL FEI# UBIN WORD;
       35     1629    1   DCL FEP# UBIN WORD;
       36     1630    1   DCL CMD$ PTR;
       37     1631    1   DCL DQH$ PTR;
       38     1632    1   DCL 1 DUPCHANERR_TEXT,
       39     1633    1         2 COUNT UBIN(9) UNAL,
       40     1634    1         2 CHANNEL CHAR(8) UNAL,
       41     1635    1         2 IOMTEXT CHAR(1) UNAL,
       42     1636    1         2 DASH CHAR(1) UNAL,
       43     1637    1         2 CHANTEXT CHAR(2) UNAL;
       44     1638    1   DCL I SBIN;
       45     1639        /**/
       46     1640        /*  BASED  */
       47     1641        /**/
       48     1642        %KI$FEI (STCLASS=BASED);
       49     1726        %NI$DQH;
       50     1749        %NI$CHT;
       51     1752        %NI$IOM;
       52     1757        %NI$MBX;
       53     1776        /**/
       54     1777        /*  ENTRY DECLARES  */
       55     1778        /**/
       56     1779    1   DCL ITE$ERROR ENTRY(2);
       57     1780    1   DCL KIQ$FEINT ENTRY(3);
       58     1781    1   DCL ITH$ALLOCATE ENTRY(2) ALTRET;
       59     1782        /**/
       60     1783        /*  SYMREFS  */
       61     1784        /**/
       62     1785    1   DCL B$DS5$ PTR SYMREF;
       63     1786    1   DCL IT_FEI$$ PTR SYMREF;
       64     1787        /**/
       65     1788        /*  Constant */
       66     1789        %KI$FEI (FPTN=KI_FEI,STCLASS=CONSTANT);
       67     1873
       68     1874        %EJECT;
PL6.E3A0      #001=ITF$FEP File=ITF$FEP.:E05TSI                                  TUE 07/29/97 23:03 Page:11
       69     1875        /*D*     NAME:     ITF$FEP
       70     1876                 INPUT:    PTR$ - pointer to next available word in TIGR table
       71     1877                                  area
       72     1878                           Command table - built by ITC$CHECK_FEP in DS5.
       73     1879                 OUTPUT:   FEP tables built and initialized
       74     1880        *
       75     1881                 DESCRIPTION:  ITF$FEP initializes the channel table for the
       76     1882                           channel connected to the FEP, increments KI_MXFE,
       77     1883                           initializes KI_FECH and builds the DQH entry for
       78     1884                           the FEP.
       79     1885        */
       80     1886        /**/
       81     1887    1           CMD$ = B$DS5$;

   1887  1 000002   000000 236000 xsym               LDQ     B$DS5$
         1 000003   200007 756100                    STQ     CMD$,,AUTO

       82     1888        /**/
       83     1889    1           CMD$ = PINCRW (CMD$,SIZEW(IT$CMDWD));

   1889  1 000004   000001 036003                    ADLQ    1,DU
         1 000005   200007 756100                    STQ     CMD$,,AUTO

       84     1890        /**/
       85     1891    1           CHTX = ((CMD$ -> IT$FEP.IOM#) * %N_MAXCHANS) + CMD$ -> IT$FEP.CHAN;

   1891  1 000006   200007 470500                    LDP0    CMD$,,AUTO
         1 000007   000001 236100                    LDQ     1,,PR0
         1 000010   000007 736000                    QLS     7
         1 000011   000002 036100                    ADLQ    2,,PR0
         1 000012   200004 756100                    STQ     CHTX,,AUTO

       86     1892    2           IF (NI$CHT$ -> NI$CHT.DQH$(CHTX) ~= ADDR(NIL) ) THEN DO;

   1892  1 000013   200004 235100                    LDA     CHTX,,AUTO
         1 000014   000001 735000                    ALS     1
         1 000015   000000 471400 xsym               LDP1    NI$CHT$
PL6.E3A0      #001=ITF$FEP File=ITF$FEP.:E05TSI                                  TUE 07/29/97 23:03 Page:12
         1 000016   100000 236105                    LDQ     0,AL,PR1
         1 000017   000001 116000 xsym               CMPQ    B_VECTNIL+1
         1 000020   000051 600000 1                  TZE     s:1901

       87     1893    2              DUPCHANERR_TEXT.COUNT = SIZEC(DUPCHANERR_TEXT) - 1;

   1893  1 000021   014000 236003                    LDQ     6144,DU
         1 000022   200011 552140                    STBQ    DUPCHANERR_TEXT,'40'O,AUTO

       88     1894    2              DUPCHANERR_TEXT.CHANNEL = 'CHANNEL ';

   1894  1 000023   040100 100400                    MLR     fill='040'O
         1 000024   000021 000010 0                  ADSC9   KI_FEI+17                cn=0,n=8
         1 000025   200011 200010                    ADSC9   DUPCHANERR_TEXT,,AUTO    cn=1,n=8

       89     1895    2              CALL BINCHAR(DUPCHANERR_TEXT.IOMTEXT,CMD$ -> IT$FEP.IOM#);

   1895  1 000026   000100 301500                    BTD
         1 000027   000001 000004                    NDSC9   1,,PR0                   cn=0,s=lsgnf,sf=0,n=4
         1 000030   200013 230001                    NDSC9   DUPCHANERR_TEXT+2,,AUTO  cn=1,s=nosgn,sf=0,n=1

       90     1896    2              DUPCHANERR_TEXT.DASH = '-';

   1896  1 000031   055000 236007                    LDQ     23040,DL
         1 000032   200013 552110                    STBQ    DUPCHANERR_TEXT+2,'10'O,AUTO

       91     1897    2              CALL BINCHAR(DUPCHANERR_TEXT.CHANTEXT,CMD$ -> IT$FEP.CHAN);

   1897  1 000033   000100 301500                    BTD
         1 000034   000002 000004                    NDSC9   2,,PR0                   cn=0,s=lsgnf,sf=0,n=4
         1 000035   200013 630002                    NDSC9   DUPCHANERR_TEXT+2,,AUTO  cn=3,s=nosgn,sf=0,n=2

       92     1898    2              CALL ITE$ERROR(%E$DUPCHAN,ADDR(DUPCHANERR_TEXT));

   1898  1 000036   200011 633500                    EPPR3   DUPCHANERR_TEXT,,AUTO
         1 000037   200016 453500                    STP3    I+1,,AUTO
         1 000040   200016 634500                    EPPR4   I+1,,AUTO
PL6.E3A0      #001=ITF$FEP File=ITF$FEP.:E05TSI                                  TUE 07/29/97 23:03 Page:13
         1 000041   200021 454500                    STP4    I+4,,AUTO
         1 000042   000001 236000 2                  LDQ     1
         1 000043   200020 756100                    STQ     I+3,,AUTO
         1 000044   200020 630500                    EPPR0   I+3,,AUTO
         1 000045   000020 631400 xsym               EPPR1   B_VECTNIL+16
         1 000046   000000 701000 xent               TSX1    ITE$ERROR
         1 000047   000000 011000                    NOP     0

       93     1899    2              RETURN;

   1899  1 000050   000000 702200 xent               TSX2  ! X66_ARET

       94     1900    2              END;
       95     1901    2           DO I=1 TO KI_MXFE;

   1901  1 000051   000001 235007                    LDA     1,DL
         1 000052   200015 755100                    STA     I,,AUTO
         1 000053   000073 710000 1                  TRA     s:1906+1

       96     1902    3              IF IT_FEI$$->KI$FEI$(I)->KI$FEI.FEP# = CMD$->IT$FEP.FEP# THEN DO;

   1902  1 000054   000000 470400 xsym               LDP0    IT_FEI$$
         1 000055   200015 720100                    LXL0    I,,AUTO
         1 000056   000000 471510                    LDP1    0,X0,PR0
         1 000057   200007 473500                    LDP3    CMD$,,AUTO
         1 000060   100012 236100                    LDQ     10,,PR1
         1 000061   000011 772000                    QRL     9
         1 000062   000777 376007                    ANQ     511,DL
         1 000063   300004 116100                    CMPQ    4,,PR3
         1 000064   000072 601000 1                  TNZ     s:1906

       97     1903    3                 CALL ITE$ERROR(%E$DUPFEP#);

   1903  1 000065   000003 630400 2                  EPPR0   3
         1 000066   000017 631400 xsym               EPPR1   B_VECTNIL+15
         1 000067   000000 701000 xent               TSX1    ITE$ERROR
         1 000070   000000 011000                    NOP     0
PL6.E3A0      #001=ITF$FEP File=ITF$FEP.:E05TSI                                  TUE 07/29/97 23:03 Page:14

       98     1904    3                 RETURN;

   1904  1 000071   000000 702200 xent               TSX2  ! X66_ARET

       99     1905    3                 END;
      100     1906    2              END;

   1906  1 000072   200015 054100                    AOS     I,,AUTO
         1 000073   000000 236000 xsym               LDQ     KI_MXFE
         1 000074   000054 604000 1                  TMI     s:1902
         1 000075   200015 116100                    CMPQ    I,,AUTO
         1 000076   000054 605000 1                  TPL     s:1902

      101     1907    1           KI_MXFE = KI_MXFE + 1;

   1907  1 000077   000001 036007                    ADLQ    1,DL
         1 000100   000000 756000 xsym               STQ     KI_MXFE

      102     1908    1           FEI# = KI_MXFE;

   1908  1 000101   200005 756100                    STQ     FEI#,,AUTO

      103     1909    1           FEP# = CMD$ -> IT$FEP.FEP#;

   1909  1 000102   200007 470500                    LDP0    CMD$,,AUTO
         1 000103   000004 235100                    LDA     4,,PR0
         1 000104   200006 755100                    STA     FEP#,,AUTO

      104     1910        /**/
      105     1911    1           NI$CHT$ -> NI$CHT.DQH$(CHTX) = PTR$;

   1911  1 000105   200004 235100                    LDA     CHTX,,AUTO
         1 000106   000001 735000                    ALS     1
         1 000107   200003 471500                    LDP1    @PTR$,,AUTO
         1 000110   100000 236100                    LDQ     0,,PR1
         1 000111   000000 473400 xsym               LDP3    NI$CHT$
PL6.E3A0      #001=ITF$FEP File=ITF$FEP.:E05TSI                                  TUE 07/29/97 23:03 Page:15
         1 000112   300000 756105                    STQ     0,AL,PR3

      106     1912    1           NI$CHT$ -> NI$CHT.POSTER(CHTX) = ENTADDR(KIQ$FEINT);

   1912  1 000113   000000 636000 xent               EAQ     KIQ$FEINT
         1 000114   000000 473400 xsym               LDP3    NI$CHT$
         1 000115   300001 756105                    STQ     1,AL,PR3

      107     1913        /**/
      108     1914    1           DQH$ = PTR$;

   1914  1 000116   100000 236100                    LDQ     0,,PR1
         1 000117   200010 756100                    STQ     DQH$,,AUTO

      109     1915    1           CALL ITH$ALLOCATE(PTR$,SIZEW(NI$DQH)) ALTRET(IT$FEP_ERR);

   1915  1 000120   000005 236000 2                  LDQ     5
         1 000121   200003 235100                    LDA     @PTR$,,AUTO
         1 000122   200016 757100                    STAQ    I+1,,AUTO
         1 000123   200016 630500                    EPPR0   I+1,,AUTO
         1 000124   000020 631400 xsym               EPPR1   B_VECTNIL+16
         1 000125   000000 701000 xent               TSX1    ITH$ALLOCATE
         1 000126   000271 702000 1                  TSX2    IT$FEP_ERR

      110     1916        /**/
      111     1917    1           DQH$ -> NI$DQH = NI$DQH_C;     /* set to constant inited structure    */

   1917  1 000127   200010 470500                    LDP0    DQH$,,AUTO
         1 000130   000100 100400                    MLR     fill='000'O
         1 000131   000000 000110 xsym               ADSC9   NI$DQH_C                 cn=0,n=72
         1 000132   000000 000110                    ADSC9   0,,PR0                   cn=0,n=72

      112     1918        /**/
      113     1919        /*      DQH$ -> NI$DQH.FL$ = ADDR(NIL);         */
      114     1920        /*      DQH$ -> NI$DQH.IO$ = ADDR(NIL);         */
      115     1921    1           IF HW_IMX THEN  ;

PL6.E3A0      #001=ITF$FEP File=ITF$FEP.:E05TSI                                  TUE 07/29/97 23:03 Page:16
   1921  1 000133   000000 234000 xsym               SZN     HW_IMX
         1 000134   000145 604000 1                  TMI     s:1929

      116     1922        /*         DQH$ -> NI$DQH.MBX$ = ADDR(NIL);     */
      117     1923    1           ELSE
      118     1924    1              DQH$ -> NI$DQH.MBX$ = PINCRW (NI$IOM$(CMD$->IT$FEP.IOM#) -> NI$IOM.MBX$,

   1924  1 000135   200007 471500                    LDP1    CMD$,,AUTO
         1 000136   100001 720100                    LXL0    1,,PR1
         1 000137   000000 473410 xsym               LDP3    NI$IOM$,X0
         1 000140   100002 236100                    LDQ     2,,PR1
         1 000141   300002 474500                    LDP4    2,,PR3
         1 000142   000002 736000                    QLS     2
         1 000143   400000 633506                    EPPR3   0,QL,PR4
         1 000144   000021 453500                    STP3    17,,PR0

      119     1925    1                SIZEW(NI$MBX(0)) * CMD$->IT$FEP.CHAN);
      120     1926        /*      DQH$ -> NI$DQH.SQH$ = ADDR(NIL);        */
      121     1927        /*      DQH$ -> NI$DQH.MPC$ = ADDR(NIL);        */
      122     1928        /*      DQH$ -> NI$DQH.IOSTATUS$ = ADDR(NIL);    NO STATUS FOR DIRECT CHANNELS */
      123     1929    1           DQH$ -> NI$DQH.IOCHAN.IOM = CMD$ -> IT$FEP.IOM#;

   1929  1 000145   200007 471500                    LDP1    CMD$,,AUTO
         1 000146   100001 236100                    LDQ     1,,PR1
         1 000147   000031 736000                    QLS     25
         1 000150   000001 676100                    ERQ     1,,PR0
         1 000151   000600 376003                    ANQ     384,DU
         1 000152   000001 656100                    ERSQ    1,,PR0

      124     1930    1           DQH$ -> NI$DQH.IOCHAN.CHANNEL = CMD$ -> IT$FEP.CHAN;

   1930  1 000153   100002 236100                    LDQ     2,,PR1
         1 000154   000022 736000                    QLS     18
         1 000155   000001 676100                    ERQ     1,,PR0
         1 000156   000177 376003                    ANQ     127,DU
         1 000157   000001 656100                    ERSQ    1,,PR0

PL6.E3A0      #001=ITF$FEP File=ITF$FEP.:E05TSI                                  TUE 07/29/97 23:03 Page:17
      125     1931    1           DQH$ -> NI$DQH.FEX = FEI#;

   1931  1 000160   200005 236100                    LDQ     FEI#,,AUTO
         1 000161   000006 736000                    QLS     6
         1 000162   000001 752102                    STCQ    1,'02'O,PR0

      126     1932    1           IT_PARTITION.IOCHAN(CMD$->IT$FEP.IOM#*%N_MAXCHANS+CMD$->IT$FEP.CHAN) = CMD$
              1932                    -> IT$FEP.FLAGS.DOWN;

   1932  1 000163   100001 236100                    LDQ     1,,PR1
         1 000164   000007 736000                    QLS     7
         1 000165   100002 036100                    ADLQ    2,,PR1
         1 000166   000170 605000 1                  TPL     s:1932+5
         1 000167   000044 036003                    ADLQ    36,DU
         1 000170   003006 060500                    CSL     bolr='003'O
         1 000171   100003 000001                    BDSC    3,,PR1                   by=0,bit=0,n=1
         1 000172   000012 000001 xsym               BDSC    IT_PARTITION+10,Q        by=0,bit=0,n=1

      127     1933    1           DQH$ -> NI$DQH.STATE = %IDLE;

   1933  1 000173   000000 236003                    LDQ     0,DU
         1 000174   000001 752101                    STCQ    1,'01'O,PR0

      128     1934        /**/
      129     1935    1           IT_FEI$$->KI$FEI$(FEI#) = PTR$;

   1935  1 000175   200003 473500                    LDP3    @PTR$,,AUTO
         1 000176   300000 236100                    LDQ     0,,PR3
         1 000177   000000 474400 xsym               LDP4    IT_FEI$$
         1 000200   200005 720100                    LXL0    FEI#,,AUTO
         1 000201   400000 756110                    STQ     0,X0,PR4

      130     1936    1           CALL ITH$ALLOCATE (PTR$,SIZEW(KI$FEI)) ALTRET (IT$FEP_ERR);

   1936  1 000202   000007 236000 2                  LDQ     7
         1 000203   200003 235100                    LDA     @PTR$,,AUTO
         1 000204   200016 757100                    STAQ    I+1,,AUTO
PL6.E3A0      #001=ITF$FEP File=ITF$FEP.:E05TSI                                  TUE 07/29/97 23:03 Page:18
         1 000205   200016 630500                    EPPR0   I+1,,AUTO
         1 000206   000020 631400 xsym               EPPR1   B_VECTNIL+16
         1 000207   000000 701000 xent               TSX1    ITH$ALLOCATE
         1 000210   000271 702000 1                  TSX2    IT$FEP_ERR

      131     1937    1           IT_FEI$$->KI$FEI$(FEI#)->KI$FEI = KI_FEI;

   1937  1 000211   000000 470400 xsym               LDP0    IT_FEI$$
         1 000212   200005 720100                    LXL0    FEI#,,AUTO
         1 000213   000000 471510                    LDP1    0,X0,PR0
         1 000214   000100 100400                    MLR     fill='000'O
         1 000215   000000 000104 0                  ADSC9   KI_FEI                   cn=0,n=68
         1 000216   100000 000104                    ADSC9   0,,PR1                   cn=0,n=68

      132     1938    1           IT_FEI$$->KI$FEI$(FEI#)->KI$FEI.FEP# = FEP#;

   1938  1 000217   000000 470400 xsym               LDP0    IT_FEI$$
         1 000220   000000 471510                    LDP1    0,X0,PR0
         1 000221   200006 236100                    LDQ     FEP#,,AUTO
         1 000222   000011 736000                    QLS     9
         1 000223   100012 552110                    STBQ    10,'10'O,PR1

      133     1939    1           IT_FEI$$->KI$FEI$(FEI#)->KI$FEI.FECH.IOM = CMD$ -> IT$FEP.IOM#;

   1939  1 000224   000000 471510                    LDP1    0,X0,PR0
         1 000225   200007 473500                    LDP3    CMD$,,AUTO
         1 000226   300001 236100                    LDQ     1,,PR3
         1 000227   000042 736000                    QLS     34
         1 000230   100002 676100                    ERQ     2,,PR1
         1 000231   600000 376003                    ANQ     -65536,DU
         1 000232   100002 656100                    ERSQ    2,,PR1

      134     1940    1           IT_FEI$$->KI$FEI$(FEI#)->KI$FEI.FECH.DEV = CMD$ -> IT$FEP.CHAN;

   1940  1 000233   000000 471510                    LDP1    0,X0,PR0
         1 000234   300002 236100                    LDQ     2,,PR3
         1 000235   000033 736000                    QLS     27
PL6.E3A0      #001=ITF$FEP File=ITF$FEP.:E05TSI                                  TUE 07/29/97 23:03 Page:19
         1 000236   100002 676100                    ERQ     2,,PR1
         1 000237   177000 376003                    ANQ     65024,DU
         1 000240   100002 656100                    ERSQ    2,,PR1

      135     1941        /**/
      136     1942    1           IT_FEI$$->KI$FEI$(FEI#)->KI$FEI.IQSZ = CMD$ -> IT$FEP.INQSZ;

   1942  1 000241   000000 471510                    LDP1    0,X0,PR0
         1 000242   300005 236100                    LDQ     5,,PR3
         1 000243   000022 736000                    QLS     18
         1 000244   100013 552120                    STBQ    11,'20'O,PR1

      137     1943    1           IT_FEI$$->KI$FEI$(FEI#)->KI$FEI.OQSZ = CMD$ -> IT$FEP.OUTQSZ;

   1943  1 000245   000000 471510                    LDP1    0,X0,PR0
         1 000246   300006 236100                    LDQ     6,,PR3
         1 000247   000033 736000                    QLS     27
         1 000250   100013 552140                    STBQ    11,'40'O,PR1

      138     1944    1           IT_FEI$$->KI$FEI$(FEI#)->KI$FEI.QOS = CMD$ -> IT$FEP.QOS;

   1944  1 000251   000000 471510                    LDP1    0,X0,PR0
         1 000252   300007 236100                    LDQ     7,,PR3
         1 000253   100012 552104                    STBQ    10,'04'O,PR1

      139     1945    1           IT_FEI$$->KI$FEI$(FEI#)->KI$FEI.TIMEOUT.BOOT=CMD$->IT$FEP.TIMEOUT.BOOT;

   1945  1 000254   000000 471510                    LDP1    0,X0,PR0
         1 000255   300010 236100                    LDQ     8,,PR3
         1 000256   100020 552140                    STBQ    16,'40'O,PR1

      140     1946    1           IT_FEI$$->KI$FEI$(FEI#)->KI$FEI.TIMEOUT.DUMP=CMD$->IT$FEP.TIMEOUT.DUMP;

   1946  1 000257   000000 471510                    LDP1    0,X0,PR0
         1 000260   300010 236100                    LDQ     8,,PR3
         1 000261   100020 552120                    STBQ    16,'20'O,PR1

PL6.E3A0      #001=ITF$FEP File=ITF$FEP.:E05TSI                                  TUE 07/29/97 23:03 Page:20
      141     1947    1           IT_FEI$$->KI$FEI$(FEI#)->KI$FEI.TIMEOUT.RUN=CMD$->IT$FEP.TIMEOUT.RUN;

   1947  1 000262   000000 471510                    LDP1    0,X0,PR0
         1 000263   300010 236100                    LDQ     8,,PR3
         1 000264   100020 552110                    STBQ    16,'10'O,PR1

      142     1948    1           IT_FEI$$->KI$FEI$(FEI#)->KI$FEI.TIMEOUT.INT=CMD$->IT$FEP.TIMEOUT.INT;

   1948  1 000265   000000 471510                    LDP1    0,X0,PR0
         1 000266   300010 236100                    LDQ     8,,PR3
         1 000267   100020 552104                    STBQ    16,'04'O,PR1

      143     1949    1           RETURN;

   1949  1 000270   000000 702200 xent               TSX2  ! X66_ARET

      144     1950    1   IT$FEP_ERR:
      145     1951    1           ALTRETURN;

   1951  1 000271   000000 702200 xent  IT$FEP_ERR   TSX2  ! X66_AALT

KI_FEI
 Sect OctLoc
   0     000   400000 000000   000000 000000   000000 000003   000000 006014    ................
   0     004   000000 006014   000000 000000   000000 000000   000000 000000    ................
   0     010   000000 006014   000000 000000   000000 000001   001001 000000    ................
   0     014   000000 000000   000000 000000   000000 000000   000000 006014    ................
   0     020   000000 000000                                                    ....

(unnamed)
 Sect OctLoc
   0     021   103110 101116   116105 114040                                    CHANNEL

(unnamed)
 Sect OctLoc
   2     000   000000 000147   000000 006000   000000 000160   000002 006000    ...g.......p....
   2     004   000000 000022   000004 006000   000000 000021   000006 006000    ................
PL6.E3A0      #001=ITF$FEP File=ITF$FEP.:E05TSI                                  TUE 07/29/97 23:03 Page:21
      146     1952    1   END;

PL6.E3A0      #001=ITF$FEP File=ITF$FEP.:E05TSI                                  TUE 07/29/97 23:03 Page:22
--  Include file information  --

   IT_IDATA_R.:E05TOU  cannot be made into a system file and is referenced.
   KI_SUBS_C.:E05TOU  is referenced.
   KI_MACROS_C.:E05TOU  is referenced.
   KI_DATA_R.:E05TOU  cannot be made into a system file and is referenced.
   NI$TABLES.:E05TOU  is referenced.
   N$REQ.:E05TOU  is referenced.
   NI_DATA_R.:E05TOU  cannot be made into a system file and is referenced.
   HF_DATA_R.:E05TOU  cannot be made into a system file and is referenced.
   IT$CMDWD.:E05TOU  cannot be made into a system file and is referenced.
   NI_DATA_C.:E05TOU  is referenced.
   IT_ERROR_C.:E05TOU  is referenced.
   IT$FEP.:E05TOU  cannot be made into a system file and is referenced.
      No diagnostics issued in procedure ITF$FEP.
PL6.E3A0      #001=ITF$FEP File=ITF$FEP.:E05TSI                                  TUE 07/29/97 23:03 Page:23

 **** Variables and constants ****

  ****  Section 000 RoData ITF$FEP

  ****  Scalars and arrays  ****
OctLoc.c.b A Datatyp(siz) R M Lvl/name                 OctLoc.c.b A Datatyp(siz) R M Lvl/name

     0-0-0/w STRC(612)   r     1 KI_FEI

  ****  Auto variables  ****

  ****  Scalars and arrays  ****
OctLoc.c.b A Datatyp(siz) R M Lvl/name                 OctLoc.c.b A Datatyp(siz) R M Lvl/name

     3-0-0/w PTR         r     1 @PTR$                      4-0-0/w UBIN        r     1 CHTX
     7-0-0/w PTR         r     1 CMD$                      10-0-0/w PTR         r     1 DQH$
    11-0-0/c STRC(117)   r     1 DUPCHANERR_TEXT            5-0-0/w UBIN        r     1 FEI#
     6-0-0/w UBIN        r     1 FEP#                      15-0-0/w SBIN        r     1 I
    *0-0-0/w PTR         r     1 PTR$

  ****  SYMREF variables  ****

  ****  Scalars and arrays  ****
OctLoc.c.b A Datatyp(siz) R M Lvl/name                 OctLoc.c.b A Datatyp(siz) R M Lvl/name

     0-0-0/w PTR         r     1 B$DS5$                     0-0-0/w BIT         r     1 HW_IMX
     0-0-0/w PTR         r     1 IT_FEI$$                   0-0-0/w STRC(1800)  r     1 IT_PARTITION
     0-0-0/w PTR         r     1 KI_FEI$$                   0-0-0/w UBIN        r     1 KI_MXFE
     0-0-0/w PTR         r     1 N$DCT$$                    0-0-0/w PTR         r     1 N$FQ$
     0-0-0/w PTR         r     1 NI$CHT$                    0-0-0/w STRC(648)   r     1 NI$DQH_C
     0-0-0/w PTR         r     1 NI$FQ$                     0-0-0/w PTR         r     1 NI$IBUF$
     0-0-0/w PTR         r     1 NI$IOM$(0:3)
     0-0-0/w PTR         r     1 NI$RP$

  ****  BASED and DCB variables  ****

  ****  Scalars and arrays  ****
PL6.E3A0      #001=ITF$FEP File=ITF$FEP.:E05TSI                                  TUE 07/29/97 23:03 Page:24
OctLoc.c.b A Datatyp(siz) R M Lvl/name                 OctLoc.c.b A Datatyp(siz) R M Lvl/name

     0-0-0/w UBIN        r     1 IT$CMDWD                   0-0-0/w STRC(324)   r     1 IT$FEP
     0-0-0/w STRC(612)   r     1 KI$FEI
     0-0-0/w PTR         r     1 KI$FEI$(0:0)
     0-0-0/w STRC(72)    r     1 NI$CHT(0:127)              0-0-0/w STRC(648)   r     1 NI$DQH
     0-0-0/w STRC(252)   r     1 NI$IOM                     0-0-0/d STRC(144)   r     1 NI$MBX(0:63)


   Procedure ITF$FEP requires 186 words for executable code.
   Procedure ITF$FEP requires 18 words of local(AUTO) storage.

    No errors detected in file ITF$FEP.:E05TSI    .
PL6.E3A0      #001=ITF$FEP File=ITF$FEP.:E05TSI                                  TUE 07/29/97 23:03 Page:25
          *** CROSS REFERENCE LISTING ***
**     DENOTES     IDENTIFIER DEFINITION
<<                 IDENTIFIER'S VALUE SET
>>                 IDENTIFIER'S VALUE USED
<>                 IDENTIFIER SET AND/OR USED
--                 IDENTIFIER REFERENCED
PL6.E3A0      #001=ITF$FEP File=ITF$FEP.:E05TSI                                  TUE 07/29/97 23:03 Page:26
          MINI XREF LISTING

B$DS5$
      1785**DCL      1887>>ASSIGN
CHTX
      1627**DCL      1891<<ASSIGN   1892>>IF       1911>>ASSIGN   1912>>ASSIGN
CMD$
      1630**DCL      1887<<ASSIGN   1889<<ASSIGN   1889>>ASSIGN   1891>>ASSIGN   1891>>ASSIGN   1895>>CALLBLT
      1897>>CALLBLT  1902>>IF       1909>>ASSIGN   1924>>ASSIGN   1924>>ASSIGN   1929>>ASSIGN   1930>>ASSIGN
      1932>>ASSIGN   1932>>ASSIGN   1932>>ASSIGN   1939>>ASSIGN   1940>>ASSIGN   1942>>ASSIGN   1943>>ASSIGN
      1944>>ASSIGN   1945>>ASSIGN   1946>>ASSIGN   1947>>ASSIGN   1948>>ASSIGN
DQH$
      1631**DCL      1914<<ASSIGN   1917>>ASSIGN   1924>>ASSIGN   1929>>ASSIGN   1930>>ASSIGN   1931>>ASSIGN
      1933>>ASSIGN
DUPCHANERR_TEXT
      1632**DCL      1893--ASSIGN   1898--CALL
DUPCHANERR_TEXT.CHANNEL
      1634**DCL      1894<<ASSIGN
DUPCHANERR_TEXT.CHANTEXT
      1637**DCL      1897<<CALLBLT
DUPCHANERR_TEXT.COUNT
      1633**DCL      1893<<ASSIGN
DUPCHANERR_TEXT.DASH
      1636**DCL      1896<<ASSIGN
DUPCHANERR_TEXT.IOMTEXT
      1635**DCL      1895<<CALLBLT
FEI#
      1628**DCL      1908<<ASSIGN   1931>>ASSIGN   1935>>ASSIGN   1937>>ASSIGN   1938>>ASSIGN   1939>>ASSIGN
      1940>>ASSIGN   1942>>ASSIGN   1943>>ASSIGN   1944>>ASSIGN   1945>>ASSIGN   1946>>ASSIGN   1947>>ASSIGN
      1948>>ASSIGN
FEP#
      1629**DCL      1909<<ASSIGN   1938>>ASSIGN
HW_IMX
       289**DCL      1921>>IF
PL6.E3A0      #001=ITF$FEP File=ITF$FEP.:E05TSI                                  TUE 07/29/97 23:03 Page:27
I
      1638**DCL      1901<<DOINDEX  1902>>IF
IT$CMDWD
       246**DCL      1889--ASSIGN
IT$FEP.CHAN
        31**DCL      1891>>ASSIGN   1897>>CALLBLT  1924>>ASSIGN   1930>>ASSIGN   1932>>ASSIGN   1940>>ASSIGN
IT$FEP.FEP#
        34**DCL      1902>>IF       1909>>ASSIGN
IT$FEP.FLAGS.DOWN
        33**DCL      1932>>ASSIGN
IT$FEP.INQSZ
        35**DCL      1942>>ASSIGN
IT$FEP.IOM#
        30**DCL      1891>>ASSIGN   1895>>CALLBLT  1924>>ASSIGN   1929>>ASSIGN   1932>>ASSIGN   1939>>ASSIGN
IT$FEP.OUTQSZ
        36**DCL      1943>>ASSIGN
IT$FEP.QOS
        37**DCL      1944>>ASSIGN
IT$FEP.TIMEOUT.BOOT
        39**DCL      1945>>ASSIGN
IT$FEP.TIMEOUT.DUMP
        40**DCL      1946>>ASSIGN
IT$FEP.TIMEOUT.INT
        42**DCL      1948>>ASSIGN
IT$FEP.TIMEOUT.RUN
        41**DCL      1947>>ASSIGN
IT$FEP_ERR
      1951**LABEL    1915--CALLALT  1936--CALLALT
ITE$ERROR
      1779**DCL-ENT  1898--CALL     1903--CALL
ITH$ALLOCATE
      1781**DCL-ENT  1915--CALL     1936--CALL
IT_FEI$$
      1786**DCL      1902>>IF       1935>>ASSIGN   1937>>ASSIGN   1938>>ASSIGN   1939>>ASSIGN   1940>>ASSIGN
      1942>>ASSIGN   1943>>ASSIGN   1944>>ASSIGN   1945>>ASSIGN   1946>>ASSIGN   1947>>ASSIGN   1948>>ASSIGN
IT_PARTITION.IOCHAN
PL6.E3A0      #001=ITF$FEP File=ITF$FEP.:E05TSI                                  TUE 07/29/97 23:03 Page:28
      1622**DCL      1932<<ASSIGN
KI$FEI
      1655**DCL      1936--CALL     1937<<ASSIGN
KI$FEI.BD$
      1690**DCL      1691--REDEF
KI$FEI.BDAD.WADDR
      1692**DCL      1693--REDEF
KI$FEI.FECH.DEV
      1659**DCL      1940<<ASSIGN
KI$FEI.FECH.IOM
      1658**DCL      1939<<ASSIGN
KI$FEI.FEP#
      1700**DCL      1902>>IF       1938<<ASSIGN
KI$FEI.IQSZ
      1703**DCL      1942<<ASSIGN
KI$FEI.OQSZ
      1702**DCL      1943<<ASSIGN
KI$FEI.QOS
      1701**DCL      1944<<ASSIGN
KI$FEI.RCVPB
      1706**DCL      1707--REDEF
KI$FEI.TIMEOUT.BOOT
      1721**DCL      1945<<ASSIGN
KI$FEI.TIMEOUT.DUMP
      1722**DCL      1946<<ASSIGN
KI$FEI.TIMEOUT.INT
      1724**DCL      1948<<ASSIGN
KI$FEI.TIMEOUT.RUN
      1723**DCL      1947<<ASSIGN
KI$FEI$
       739**DCL      1902>>IF       1935<<ASSIGN   1937>>ASSIGN   1938>>ASSIGN   1939>>ASSIGN   1940>>ASSIGN
      1942>>ASSIGN   1943>>ASSIGN   1944>>ASSIGN   1945>>ASSIGN   1946>>ASSIGN   1947>>ASSIGN   1948>>ASSIGN
KIQ$FEINT
      1780**DCL-ENT  1912--ASSIGN
KI_FEI
      1802**DCL      1937>>ASSIGN
PL6.E3A0      #001=ITF$FEP File=ITF$FEP.:E05TSI                                  TUE 07/29/97 23:03 Page:29
KI_FEI.BD$
      1837**DCL      1838--REDEF
KI_FEI.BDAD.WADDR
      1839**DCL      1840--REDEF
KI_FEI.RCVPB
      1853**DCL      1854--REDEF
KI_FEI$$
       738**DCL       739--IMP-PTR
KI_MXFE
       747**DCL      1901>>DOINDEX  1907<<ASSIGN   1907>>ASSIGN   1908>>ASSIGN
N$DCT$$
       588**DCL       722--IMP-PTR
N$FQ$
       588**DCL       723--IMP-PTR
N$REQ_INIT.BUFADDR
       607**DCL       608--REDEF     608--REDEF
N$REQ_INIT.DLA.DRELADDR
       599**DCL       599--REDEF
N$REQ_INIT.DVE.EOMCHAR
       636**DCL       637--REDEF
N$REQ_INIT.EAINFO
       630**DCL       630--REDEF
N$REQ_INIT.EAINFOX
       630**DCL       631--REDEF
N$REQ_INIT.EVNTINFO
       631**DCL       631--REDEF
N$REQ_INIT.STATUS
       612**DCL       618--REDEF
NI$CHT.DQH$
      1750**DCL      1892>>IF       1911<<ASSIGN
NI$CHT.POSTER
      1750**DCL      1912<<ASSIGN
NI$CHT$
       647**DCL      1750--IMP-PTR  1892>>IF       1911>>ASSIGN   1912>>ASSIGN
NI$DCT_C.DP
      1544**DCL      1551--REDEF    1554--REDEF    1555--REDEF    1557--REDEF    1557--REDEF    1558--REDEF
PL6.E3A0      #001=ITF$FEP File=ITF$FEP.:E05TSI                                  TUE 07/29/97 23:03 Page:30
      1559--REDEF    1559--REDEF
NI$DCT_C.MPC.IOCHANX
      1552**DCL      1552--REDEF
NI$DQH
      1735**DCL      1915--CALL     1917<<ASSIGN
NI$DQH.FEX
      1738**DCL      1931<<ASSIGN
NI$DQH.IOCHAN.CHANNEL
      1738**DCL      1930<<ASSIGN
NI$DQH.IOCHAN.IOM
      1738**DCL      1929<<ASSIGN
NI$DQH.IOCHANX
      1737**DCL      1738--REDEF
NI$DQH.MBX$
      1746**DCL      1747--REDEF    1924<<ASSIGN
NI$DQH.STATE
      1739**DCL      1933<<ASSIGN
NI$DQH_C
      1572**DCL      1917>>ASSIGN
NI$DQH_C.IOCHANX
      1574**DCL      1575--REDEF
NI$DQH_C.MBX$
      1583**DCL      1584--REDEF
NI$FQ$
       648**DCL       724--IMP-PTR
NI$IBUF$
       648**DCL       724--IMP-PTR
NI$IMXMBX_INIT.PAGED_BASE
       658**DCL       659--REDEF     659--REDEF
NI$IMXMBX_INIT.SIZE
       660**DCL       660--REDEF
NI$IOM.MBX$
      1753**DCL      1924>>ASSIGN
NI$IOM$
       670**DCL      1924>>ASSIGN
NI$IOSTAT_C.AESDCW
PL6.E3A0      #001=ITF$FEP File=ITF$FEP.:E05TSI                                  TUE 07/29/97 23:03 Page:31
      1610**DCL      1610--REDEF
NI$MBX
      1768**DCL      1924--ASSIGN
NI$MBX.DCW.CONTROL.AE
      1773**DCL      1773--REDEF
NI$MBX.LPW.CONTROL.AE
      1769**DCL      1769--REDEF
NI$REQ_INIT.DCW
       682**DCL       685--REDEF
NI$REQ_INIT.DCW.TALLY
       683**DCL       683--REDEF
NI$REQ_INIT.IDCW.EXTA
       685**DCL       685--REDEF
NI$REQ_INIT.PCW
       687**DCL       691--REDEF
NI$REQ_INIT.SEEK
       692**DCL       693--REDEF     694--REDEF
NI$RP$
       696**DCL       726--IMP-PTR
NI$SQH_C.DOOR
      1595**DCL      1595--REDEF
NI_MBX_INIT.DCW.CONTROL.AE
       718**DCL       718--REDEF
NI_MBX_INIT.LPW.CONTROL.AE
       714**DCL       714--REDEF
PTR$
        13**DCL        11--PROC     1911>>ASSIGN   1914>>ASSIGN   1915<>CALL     1935>>ASSIGN   1936<>CALL
