VERSION E05

PL6.E3A0      #001=ITF$FREEZE File=ITF$FREEZE.:E05TSI                            TUE 07/29/97 23:03 Page:1
        1        1        /*M*    Freeze routine for TIGR */
        2        2        /*T***********************************************************/
        3        3        /*T*                                                         */
        4        4        /*T* Copyright (c) Bull HN Information Systems Inc., 1997    */
        5        5        /*T*                                                         */
        6        6        /*T***********************************************************/
        7        7        /**/
        8        8        /*X*/
        9        9        /**/
       10       10        /*P*     NAME:     ITF$FREEZE
       11       11                 PURPOSE:  Just loop forever.
       12       12                 DESCRIPTION: If TIGR finds itself in trouble, such that
       13       13                           he cannot continue the boot, it calls this routine.
       14       14                           This is not in ITH, to facilitate TIGRCUB.X
       15       15                 INPUT:    none
       16       16                 OUTPUT:   None - we never return.
       17       17        */
       18       18        /*************************************************************/
       19       19        ITF$FREEZE: PROC;
       20       20        /**/
       21       21    1   DCL J SBIN;
       22       22        /**/
       23       23    1   LOOP: J = 0;
       24       24    1         J = 0;
       25       25    1         GOTO LOOP;
       26       26
       27       27    1   END ITF$FREEZE;

PL6.E3A0      #001=ITF$FREEZE File=ITF$FREEZE.:E05TSI                            TUE 07/29/97 23:03 Page:2
      No diagnostics issued in procedure ITF$FREEZE.

   Procedure ITF$FREEZE requires 5 words for executable code.
   Procedure ITF$FREEZE requires 4 words of local(AUTO) storage.

    No errors detected in file ITF$FREEZE.:E05TSI    .

PL6.E3A0      #001=ITF$FREEZE File=ITF$FREEZE.:E05TSI                            TUE 07/29/97 23:03 Page:3

 Object Unit name= ITF$FREEZE                                 File name= ITF$FREEZE.:E05TOU
 UTS= JUL 29 '97 23:03:30.80 TUE                              Compiler= PL-6/E31         Sev=      00
 SharedLib= :SHARED_SYSTEM                                    Alt SharedLib=


    ****  Control sections  ****

 Sect   Type Bound  Init  Size OctSiz  Section name(segment info)
    0   Proc  even  none     5      5  ITF$FREEZE

    ****  Entry defs  ****

                              Check   Calling
                             calling  sequence
  Sect OctLoc Primary Altret sequence   type   Parms  Name
     0      0   yes            yes      Std        0  ITF$FREEZE

  ****  Entry refs  ****

         Check        Calling
        calling       sequence
Altret sequence SRef   type   Args  Name
                       nStd      0 X66_AUTO_0
PL6.E3A0      #001=ITF$FREEZE File=ITF$FREEZE.:E05TSI                            TUE 07/29/97 23:03 Page:4


        1        1        /*M*    Freeze routine for TIGR */
        2        2        /*T***********************************************************/
        3        3        /*T*                                                         */
        4        4        /*T* Copyright (c) Bull HN Information Systems Inc., 1997    */
        5        5        /*T*                                                         */
        6        6        /*T***********************************************************/
        7        7        /**/
        8        8        /*X*/
        9        9        /**/
       10       10        /*P*     NAME:     ITF$FREEZE
       11       11                 PURPOSE:  Just loop forever.
       12       12                 DESCRIPTION: If TIGR finds itself in trouble, such that
       13       13                           he cannot continue the boot, it calls this routine.
       14       14                           This is not in ITH, to facilitate TIGRCUB.X
       15       15                 INPUT:    none
       16       16                 OUTPUT:   None - we never return.
       17       17        */
       18       18        /*************************************************************/
       19       19        ITF$FREEZE: PROC;

     19  0 000000   000000 700200 xent  ITF$FREEZE   TSX0  ! X66_AUTO_0
         0 000001   000004 000000                    ZERO    4,0

       20       20        /**/
       21       21    1   DCL J SBIN;
       22       22        /**/
       23       23    1   LOOP: J = 0;

     23  0 000002   200003 450100       LOOP         STZ     J,,AUTO

       24       24    1         J = 0;

     24  0 000003   200003 450100                    STZ     J,,AUTO

       25       25    1         GOTO LOOP;

PL6.E3A0      #001=ITF$FREEZE File=ITF$FREEZE.:E05TSI                            TUE 07/29/97 23:03 Page:5
     25  0 000004   000002 710000 0                  TRA     LOOP
       26       26
       27       27    1   END ITF$FREEZE;

PL6.E3A0      #001=ITF$FREEZE File=ITF$FREEZE.:E05TSI                            TUE 07/29/97 23:03 Page:6
      No diagnostics issued in procedure ITF$FREEZE.
PL6.E3A0      #001=ITF$FREEZE File=ITF$FREEZE.:E05TSI                            TUE 07/29/97 23:03 Page:7

 **** Variables and constants ****

  ****  Auto variables  ****

  ****  Scalars and arrays  ****
OctLoc.c.b A Datatyp(siz) R M Lvl/name                 OctLoc.c.b A Datatyp(siz) R M Lvl/name

     3-0-0/w SBIN        r     1 J


   Procedure ITF$FREEZE requires 5 words for executable code.
   Procedure ITF$FREEZE requires 4 words of local(AUTO) storage.

    No errors detected in file ITF$FREEZE.:E05TSI    .
PL6.E3A0      #001=ITF$FREEZE File=ITF$FREEZE.:E05TSI                            TUE 07/29/97 23:03 Page:8
          *** CROSS REFERENCE LISTING ***
**     DENOTES     IDENTIFIER DEFINITION
<<                 IDENTIFIER'S VALUE SET
>>                 IDENTIFIER'S VALUE USED
<>                 IDENTIFIER SET AND/OR USED
--                 IDENTIFIER REFERENCED
PL6.E3A0      #001=ITF$FREEZE File=ITF$FREEZE.:E05TSI                            TUE 07/29/97 23:03 Page:9
          MINI XREF LISTING

J
        21**DCL        23<<ASSIGN     24<<ASSIGN
LOOP
        23**LABEL      25--GOTO
