VERSION E05

 23:03 07/29/97  FILE=ITG$GIVEUP.:E05TSI                                                                 1    BMAP - B00
                                         1  *M*    Reinitialize tstack and exit
                                         2  *T***********************************************************
                                         3  *T*                                                         *
                                         4  *T* Copyright (c) Bull HN Information Systems Inc., 1997    *
                                         5  *T*                                                         *
                                         6  *T***********************************************************
                                         7  *
                                         8         ENTDEF  B_PATCHI
                                         9         ENTDEF  ITG$GIVEUP
                                        10         ENTDEF  ITG$FIXCLOCK
                                        11         ENTDEF  ITG$MPY10000
                                        12         ENTREF  SSS$SENT
                                        13         ENTREF  X66_MSTATIC
                                        14         SYMDEF  B_PATCHI
                                        15         SYMDEF  B_PATCHIH
                                        16         SYMDEF  IT_DBUF
                                        17         SYMDEF  IT_DBUFEND
                                        18         SYMDEF  IT_RBUFF
                                        19         SYMDEF  IT_RBUFFEND
                                        20         SYMREF  SS_UTS_COOKIE
                                        21         SYMREF  SS_MS_COOKIE
                                        22         SYMREF  IT_CP6UP
                                        23         SYMREF  B$MONTSTACK$
                                        24         SYMREF  HW_NORM_CLOCK
                                        25         SEGREF  ISSID
                                        26         SEGREF  MTSTACKSID
                                        27         SEGREF  LSSID
                                        28         SEGREF  SCUSID
                                        29  *
                                        30         LODM    B_BMACROS_C
                                        31         DETAIL  OFF
             000000000000               32         MONLS
                                        33         DETAIL  ON
                                        34  *
             000000006000               35  PROCSIZE EQU   3072
                                        36  *
 0 000000                               37         USE     ITG$GIVEUP,1     ITG$GIVEUP CODE MUST COME FIRST - CS0
 23:03 07/29/97  FILE=ITG$GIVEUP.:E05TSI                                                                 2    BMAP - B00
                                        38  *
 2 000000                               39         USE     B_PATCHIH,1      B_BATCHI PRIMARY ENTDEF - PATCH LISTING
                                        40         EVEN
   000000 (2)000002 006000              41  B_PATCHIH ZERO B_PATCHI,=O6000        MAKE IT AN IS POINTER
   000001    000000 006000              42         ZERO    0,PROCSIZE
                                        43         DETAIL  OFF
   000002                               44  B_PATCHI DUP   1,PROCSIZE
   000002    000000 000000              45         ZERO
                                        46  *
 0 000000                               47         USE     ITG$GIVEUP
   000000                               48  ITG$GIVEUP NULL
   000000  X 000000 4724 07             49         LDP2    MTSTACKSID,DL   USE FOR TEMP
   000001  X 000000 4714 07             50         LDP1    LSSID,DL        MON LS (DATA)
   000002    1 00102 2351 00            51         LDA     2*LS.MTSTACK,,1 TSTACK SIZE
   000003    000022 7310 00             52         ARS     18
   000004    2 00025 7551 00            53         STA     21,,2            SIZE OF AUTO
                                        54  *      CALL    X66_MSTATIC(AUTO$,SIZE,PR2$)
   000005 (0)000014 6304 00             55         EPPR0   MPTRS
   000006 (1)000000 6314 00             56         EPPR1   =V18/3,18/0
   000007  X 000000 7010 00             57         TSX1    X66_MSTATIC
   000010    000000 0110 00             58         NOP
   000011    2 00024 4725 00            59         LDP2    20,,2
                                        60  *
                                        61  *      SET SYSTEM UP FLAG
                                        62  *
   000012  X 000000 0540 00             63         AOS     IT_CP6UP
                                        64  *
   000013  X 000000 7100 00             65         TRA     SSS$SENT
                                        66  *
   000014                               67  MPTRS  NULL
   000014  X 000000 0 00 X 0000         68         PTR     ISSID,B$MONTSTACK$  MON TSTACK
   000015    000025 0 00 X 0000         69         PTR     MTSTACKSID,21    SIZE OF MON AUTO
   000016    000024 0 00 X 0000         70         PTR     MTSTACKSID,20     INIT PTR
 2 006002                               71         USE     B_PATCHIH,1
                                        72         EVEN
          (2)000000006002               73  IT_RBUFF EQU *
                                        74         DUP     1,1024
 23:03 07/29/97  FILE=ITG$GIVEUP.:E05TSI                                                                 3    BMAP - B00
   006002    000000 000000              75         ZERO
          (2)000000010002               76  IT_RBUFFEND EQU *
          (2)000000010002               77  IT_DBUF EQU    *
                                        78         DUP     1,1024
   010002    000000 000000              79         ZERO
          (2)000000012002               80  IT_DBUFEND EQU *
   012002    000000 000000              81         ZERO
                                        82  *
                                        83  * Convert UTS in argument 2 to a double word microsecond value in
                                        84  * argument 1
                                        85  *
   012003                               86  ITG$MPY10000 NULL
   012003    0 00000 4715 00            87         LDP1    0,,0
   012004    0 00001 4735 00            88         LDP3    1,,0
   012005    3 00000 2361 00            89         LDQ     0,,3
   012006    000000 6200 06             90         EAX0    0,QL        SAVE LOW BIT
   012007  X 000000 1160 00             91         CMPQ    SS_UTS_COOKIE  IS IT POST 1/1/93
   012010 (2)012020 6030 00             92         TRC     POST_COOKIE  YES IT IS
   012011    000001 7720 00             93         QRL     1           UTS/2 TO TURN OFF SIGN BIT
   012012    047040 4020 07             94         MPY     20000,DL    MULTIPLY BY 10000*2
   012013    000001 3600 03             95         ANX0    1,DU        IF LOW ORDER BIT WAS SET...
   012014 (2)012016 6000 00             96         TZE     RESLT
   012015 (2)012032 0370 00             97         ADLAQ   TENTHO      ADD 10000
   012016    1 00000 7571 00            98  RESLT  STAQ    0,,1        STORE RESULT
   012017    000001 7100 11             99         TRA     1,X1
   012020                              100  POST_COOKIE NULL
   012020  X 000000 1760 00            101         SBQ     SS_UTS_COOKIE   SUBTRACT COOKIE UTS
   012021    000001 7720 00            102         QRL     1            SHIFT RESULT
   012022    234200 4020 07            103         MPY     80000,DL     CONVERT INTO MICROSECONDS
   012023    000001 3600 07            104         ANX0    1,DL         WAS LOW ORDER BIT SET
   012024 (2)012026 6000 00            105         TZE     *+2          NOPE
   012025 (2)012034 0370 00            106         ADLAQ   TWENFIFHO    ADD IN 40000 micro seconds
   012026  X 000000 0370 00            107         ADLAQ   SS_MS_COOKIE ADD IN MICRO SECONDS FOR COOKIE
   012027    1 00000 7571 00           108         STAQ    0,,1         STORE RESULTS
   012030    000001 7100 11            109         TRA     1,X1
   012031    000000 0110 00            110         EVEN
   012032    000000000000              111  TENTHO OCT     000000000000
 23:03 07/29/97  FILE=ITG$GIVEUP.:E05TSI                                                                 4    BMAP - B00
   012033    000000023420              112         OCT     000000023420
                                       113         EVEN
   012034    000000000000              114  TWENFIFHO OCT  000000000000
   012035    000000116100              115         OCT     000000116100
                                       116  *
                                       117  *      See if SCU clock is ok.
                                       118  *
   012036                              119  ITG$FIXCLOCK NULL
   012036  X 000000 2340 00            120         SZN     HW_NORM_CLOCK
   012037    000001 6050 11            121         TPL     1,X1
   012040  X 000000 4704 07            122         LDP0    SCUSID,DL
   012041    0 00040 4131 00           123         RSCR    32,,0
   012042 (2)012050 1170 00            124         CMPAQ   MAXCL
   012043    000001 6040 11            125         TMI     1,X1
   012044    000000 2350 07            126         LDA     0,DL
   012045    000000 2360 07            127         LDQ     0,DL
   012046    0 00040 0571 00           128         SSCR    32,,0
   012047    000001 7100 11            129         TRA     1,X1
   012050    000000045605              130  MAXCL  OCT     000000045605
   012051    777232101700              131         OCT     777232101700
                                       132  *
                                       133         END

  CONTROL SECTION TABLE

   0 CODE   EVEN  000017 ITG$GIVEUP
   1 RODATA EVEN  000001 LITERALS
   2 CODE   EVEN  012052 B_PATCHIH

 23:03 07/29/97  FILE=ITG$GIVEUP.:E05TSI      SYMBOL TABLE                                               5    BMAP - B00
 03301003 000000000000 B$MONTSTACK$   *23        68
 17101002 000000000002 B_PATCHI         8        14        41       *44
 06101002 000000000000 B_PATCHIH       15       *41
 03301004 000000000000 HW_NORM_CLOCK  *24       120
 03601000 000000000000 ISSID          *25        68
 12101002 000000012036 ITG$FIXCLOCK    10      *119
 12101000 000000000000 ITG$GIVEUP       9       *48
 12101002 000000012003 ITG$MPY10000    11       *86
 03301002 000000000000 IT_CP6UP       *22        63
 46101002 000000010002 IT_DBUF         16       *77
 46101002 000000012002 IT_DBUFEND      17       *80
 46101002 000000006002 IT_RBUFF        18       *73
 46101002 000000010002 IT_RBUFFEND     19       *76
 41000000 000000000155 LS.AARDV       *32
 41000000 000000000156 LS.AARDV2      *32
 41000000 000000000033 LS.ASLLS       *32
 41000000 000000000053 LS.ASR         *32
 41000000 000000000002 LS.BUF         *32
 41000000 000000000161 LS.BUFCACH     *32
 40000000 000000000004 LS.CFU         *32
 41000000 000000000164 LS.CGCTXT      *32
 41000000 000000000163 LS.CGPT        *32
 41000000 000000000075 LS.CPGT1       *32
 41000000 000000000034 LS.CPLS        *32
 41000000 000000000055 LS.CWSQ1       *32
 41000000 000000000032 LS.DBLS        *32
 41000000 000000000004 LS.DS1         *32
 41000000 000000000005 LS.DS2         *32
 41000000 000000000006 LS.DS3         *32
 41000000 000000000007 LS.DS4         *32
 41000000 000000000010 LS.DS5         *32
 41000000 000000000011 LS.DS6         *32
 41000000 000000000012 LS.DS7         *32
 41000000 000000000013 LS.DS8         *32
 40000000 000000000202 LS.DVT         *32
 41000000 000000000016 LS.ECCB        *32
 41000000 000000000157 LS.FIRM        *32
 23:03 07/29/97  FILE=ITG$GIVEUP.:E05TSI      SYMBOL TABLE                                               6    BMAP - B00
 40000000 000000000155 LS.FLT         *32
 41000000 000000000045 LS.HJITU       *32
 41000000 000000000162 LS.IMX         *32
 41000000 000000000122 LS.IOEND       *32
 41000000 000000000176 LS.IPHY_MAP    *32
 41000000 000000000000 LS.IS          *32
 41000000 000000000050 LS.ISB         *32
 41000000 000000000115 LS.JITPG       *32
 41000000 000000000001 LS.JITU        *32
 40000000 000000000013 LS.LDCT        *32
 41000000 000000000134 LS.LDCTNC      *32
 41000000 000000000121 LS.LOWMEM      *32
 41000000 000000000167 LS.MAGAS       *32
 41000000 000000000172 LS.MAGECCB     *32
 41000000 000000000166 LS.MAGLS       *32
 41000000 000000000170 LS.MAGPS       *32
 41000000 000000000165 LS.MAGSS       *32
 41000000 000000000171 LS.MAGTCB      *32
 41000000 000000000043 LS.MHJIT       *32
 41000000 000000000177 LS.MINIQ_ENT   *32
 41000000 000000000054 LS.MISC        *32
 41000000 000000000130 LS.MISC2       *32
 41000000 000000000042 LS.MJIT        *32
 41000000 000000000035 LS.MLS         *32
 41000000 000000000132 LS.MLS1        *32
 41000000 000000000173 LS.MLSREAD     *32
 40000000 000000000156 LS.MONRL       *32
 41000000 000000000044 LS.MONSSS      *32
 41000000 000000000120 LS.MOUSE       *32
 41000000 000000000037 LS.MPT         *32
 41000000 000000000145 LS.MSTRHJ      *32
 41000000 000000000135 LS.MSTRPT      *32
 41000000 000000000041 LS.MTSTACK     *32        51
 41000000 000000000014 LS.NULL        *32
 41000000 000000000027 LS.PMME        *32
 41000000 000000000116 LS.PPUT        *32
 41000000 000000000131 LS.RCVENT      *32
 23:03 07/29/97  FILE=ITG$GIVEUP.:E05TSI      SYMBOL TABLE                                               7    BMAP - B00
 41000000 000000000127 LS.RCVRTN      *32
 41000000 000000000021 LS.REAL        *32
 41000000 000000000030 LS.REG         *32
 41000000 000000000124 LS.RONC        *32
 41000000 000000000003 LS.ROSEG       *32
 41000000 000000000125 LS.ROSEG8      *32
 41000000 000000000046 LS.SBUF1       *32
 41000000 000000000047 LS.SBUF2       *32
 41000000 000000000025 LS.SCR         *32
 41000000 000000000051 LS.SCU         *32
 41000000 000000000174 LS.SEGTBL      *32
 41000000 000000000146 LS.SLV1HJ      *32
 41000000 000000000136 LS.SLV1PT      *32
 41000000 000000000147 LS.SLV2HJ      *32
 41000000 000000000137 LS.SLV2PT      *32
 41000000 000000000150 LS.SLV3HJ      *32
 41000000 000000000140 LS.SLV3PT      *32
 41000000 000000000151 LS.SLV4HJ      *32
 41000000 000000000141 LS.SLV4PT      *32
 41000000 000000000152 LS.SLV5HJ      *32
 41000000 000000000142 LS.SLV5PT      *32
 41000000 000000000153 LS.SLV6HJ      *32
 41000000 000000000143 LS.SLV6PT      *32
 41000000 000000000154 LS.SLV7HJ      *32
 41000000 000000000144 LS.SLV7PT      *32
 41000000 000000000017 LS.TCB         *32
 41000000 000000000123 LS.TIGR        *32
 41000000 000000000020 LS.TSTACK      *32
 41000000 000000000031 LS.ULS         *32
 41000000 000000000036 LS.UPT         *32
 41000000 000000000023 LS.USDS0       *32
 41000000 000000000024 LS.USDS1       *32
 41000000 000000000040 LS.USRIS       *32
 41000000 000000000022 LS.USSS        *32
 41000000 000000000117 LS.VPT         *32
 41000000 000000000052 LS.WINDOW      *32
 41000000 000000000133 LS.WS3MLS      *32
 23:03 07/29/97  FILE=ITG$GIVEUP.:E05TSI      SYMBOL TABLE                                               8    BMAP - B00
 41000000 000000000160 LS.WS3MLSNW    *32
 41000000 000000000175 LS.WSQ0PT      *32
 41000000 000000000026 LS.XD          *32
 41000000 000000000126 LS.XDRTN       *32
 41000000 000000000201 LS.XLALT       *32
 41000000 000000000015 LS.XLAT        *32
 41000000 000000000200 LS.XLNORM      *32
 03601002 000000000000 LSSID          *27        50
 01101002 000000012050 MAXCL          124      *130
 01101000 000000000014 MPTRS           55       *67
 03601001 000000000000 MTSTACKSID     *26        49        69        70
 01101002 000000012020 POST_COOKIE     92      *100
 41000000 000000006000 PROCSIZE       *35        42        44
 01101002 000000012016 RESLT           96       *98
 03601003 000000000000 SCUSID         *28       122
 03201000 000000000000 SSS$SENT       *12        65
 03301001 000000000000 SS_MS_COOKIE   *21       107
 03301000 000000000000 SS_UTS_COOKIE  *20        91       101
 01101002 000000012032 TENTHO          97      *111
 01101002 000000012034 TWENFIFHO      106      *114
 03201001 000000000000 X66_MSTATIC    *13        57

     132 SYMBOLS

 23:03 07/29/97  FILE=ITG$GIVEUP.:E05TSI      MACRO TABLE                                                9    BMAP - B00
 MONLS           32

      16 MACROS

    SYMBOL SPACE USED  1416 WORDS
     MACRO SPACE USED  3324 WORDS
   INPUT RECORDS READ   721
 STATEMENTS PROCESSED  5479
         ELAPSED TIME  1:29.12
             CPU TIME    13.33 SEC.
        ASSEMBLY RATE 24662 STATEMENTS/CPU MIN.

      NO ERRORS

