VERSION E05

 23:07 07/29/97  FILE=ITQ$READ.:E05TSI                                                                   1    BMAP - B00
                                         1  *M* Interface to MINIQ read/write routines
                                         2  *T***********************************************************
                                         3  *T*                                                         *
                                         4  *T* Copyright (c) Bull HN Information Systems Inc., 1997    *
                                         5  *T*                                                         *
                                         6  *T***********************************************************
                                         7           ENTDEF   ITQ$READ
                                         8           ENTDEF   ITQ$WRITE
                                         9          ENTDEF   ITQ$DREAD
                                        10          ENTDEF   ITQ$DWRITE
                                        11           ENTREF   X66_AUTO_N
                                        12           ENTREF   X66_PREGS_2
                                        13           ENTREF   X66_AALT
                                        14           ENTREF   X66_ARET
                                        15           SYMREF   B$ISB$
                                        16           SYMREF   B$LOWMEM$
                                        17           SYMREF   IT_MINIQ_ME
                                        18           SYMREF    IT_MINIQ_TA
                                        19           SYMREF   IT_INDEV
                                        20           SYMREF   IT_OUTDEV
             000000000002               21  AUTO     BOOL     2
             000000020000               22  MINIQENT BOOL     20000
             000000000000               23  PR0      EQU      0
             000000000001               24  PARG1    EQU      1
             000000000003               25  PARG2    EQU      3
             000000000004               26  PR4      EQU      4
             000000000005               27  PR5      EQU      5
             000000000006               28  PR6      EQU      6
             000000000007               29  PR7      EQU      7
             000000000003               30  PARM1    EQU      3                OFFSET IN AUTO FRAME
             000000000004               31  PARM2    EQU      4                OFFSET IN AUTO FRAME
             000000000005               32  SAVE1    EQU      5                OFFSET IN AUTO FRAME
             000000000006               33  SAVE2    EQU      6                OFFSET IN AUTO FRAME
             000000000006               34  MAXAUTO  EQU      SAVE2            MAXIMUM OFFSET IN AUTO FRAME
                                        35  *
 0 000000                               36           USE     ITQ$READ,1
          (0)000000000000               37  ITQ$READ EQU      *
 23:07 07/29/97  FILE=ITQ$READ.:E05TSI                                                                   2    BMAP - B00
   000000  X 000000 7000 00             38           TSX0     X66_AUTO_N
   000001    000010 000002              39           ZERO     MAXAUTO/2*2+2,2     # AUTO CELLS, 2 ARGUMENTS
   000002    2 00003 4715 00            40           LDP      PARG1,PARM1,,AUTO POINTER TO BUF$
   000003    2 00004 4735 00            41           LDP      PARG2,PARM2,,AUTO GET POINTER TO MSG_LENGTH
   000004  X 000000 4774 00             42           LDP7     B$ISB$            MONITOR'S ISR
   000005  X 000000 4764 00             43           LDP6     B$LOWMEM$         MINIQ'S ISR
   000006    1 00000 2351 00            44           LDA      0,,PARG1          PTR TO BUFFER
   000007    000022 7710 00             45           ARL      18
   000010    000022 7350 00             46           ALS      18
   000011    002400 2750 07             47           ORA      =O2400,DL         20 WORDS
   000012    000000 2230 03             48           LDX3     0,DU              FC FOR READ (OC OR CR)
   000013  X 000000 2360 00             49           LDQ      IT_INDEV           TEST FOR TAPE
   000014  X 000000 1160 00             50           CMPQ     IT_MINIQ_TA
   000015    000002 6010 04             51           TNZ      2,IC
   000016    000002 2230 03             52           LDX3     2,DU              FC FOR READ ASCII  - TAPE
   000017  X 000000 7240 00             53           LXL4     IT_INDEV          DCTX
   000020    6 20000 7071 00            54           TSX7     MINIQENT,,PR6
   000021  X 000000 7100 00             55           TRA      X66_AALT            ALTRET IF CR ERROR
   000022  X 000000 2350 00             56           LDA      IT_INDEV
   000023  X 000000 1150 00             57           CMPA     IT_MINIQ_ME     DONT ECHO IF INPUT DEVICE IS ME
   000024 (0)000040 6000 00             58           TZE      RET
   000025    2 00004 4735 00            59           LDP      PARG2,4,,AUTO
   000026    000024 2350 07             60           LDA      20,DL
   000027    3 00000 7551 00            61           STA      0,,PARG2
   000030    2 00005 4515 00            62           STP      PARG1,SAVE1,,AUTO     SAVE BEFORE CALL
   000031    2 00006 4535 00            63           STP      PARG2,SAVE2,,AUTO     ..
   000032    2 00003 6305 00            64           EPPR0    3,,AUTO
   000033 (1)000000 6314 00             65           EPPR1    =V18/2,18/0
   000034 (0)000043 7010 00             66           TSX1     ITQ$WRITE
   000035    000000 0110 00             67           NOP
   000036    2 00005 4715 00            68           LDP      PARG1,SAVE1,,AUTO     RESTORE AFTER CALL
   000037    2 00006 4735 00            69           LDP      PARG2,SAVE2,,AUTO     ..
          (0)000000000040               70  RET      EQU      *
   000040    000120 2350 07             71           LDA      80,DL             BYTE COUNT
   000041    3 00000 7551 00            72           STA      0,,PARG2          SIZE IN BYTES
   000042  X 000000 7100 00             73           TRA      X66_ARET

 23:07 07/29/97  FILE=ITQ$READ.:E05TSI                                                                   3    BMAP - B00
                                        74         EJECT
                                        75  *
          (0)000000000043               76  ITQ$WRITE EQU     *
   000043  X 000000 7000 00             77           TSX0     X66_PREGS_2
   000044    000000 000002              78           ZERO     0,2
   000045  X 000000 4774 00             79           LDP7     B$ISB$            MONITOR'S ISR
   000046  X 000000 4764 00             80           LDP6     B$LOWMEM$         MINIQ'S ISR
   000047    1 00000 2351 00            81           LDA      0,,PARG1          GET PTR (OFFSET IN IS IN LH)
   000050    3 00000 2361 00            82           LDQ      0,,PARG2
   000051    000030 7360 00             83           QLS      24
   000052    000022 7710 00             84           ARL      18
   000053    000022 7370 00             85           LLS      18                PUT WORD COUNT INTO A WITH ADDR
   000054    000002 2230 03             86           LDX3     2,DU              ASSUME CONSOLE FC
   000055  X 000000 7240 00             87           LXL4     IT_OUTDEV         GET DCTX FOR OUTPUT DEV
   000056    000001 1040 03             88           CMPX4    1,DU              IS IT CONSOLE ?
   000057 (0)000061 6000 00             89           TZE      GOTFC             T/ YES, GOT FC OK
   000060    000001 2230 03             90           LDX3     1,DU              FC FOR LP (PRINT, SLEW 1)
          (0)000000000061               91  GOTFC    EQU      *
   000061    6 20000 7071 00            92           TSX7     MINIQENT,,PR6     GO DO IT
   000062    000000 0110 00             93           NOP                        IGNORE ERRORS
   000063    000001 7100 11             94           TRA      1,X1              RETURN
                                        95  *

 23:07 07/29/97  FILE=ITQ$READ.:E05TSI                                                                   4    BMAP - B00
                                        96          EJECT
                                        97  *
          (0)000000000064               98  ITQ$DREAD EQU    *
   000064  X 000000 7000 00             99          TSX0     X66_PREGS_2
   000065    000000 000002             100          ZERO     0,2
   000066    000000 2230 03            101          LDX3     0,DU              FC FOR READ
                                       102  *
          (0)000000000067              103  COMMON  EQU      *
                                       104  *
   000067  X 000000 4774 00            105          LDP7     B$ISB$            DESC FOR AARDVARK
   000070  X 000000 4764 00            106          LDP6     B$LOWMEM$         DESC OF AARDVARK
   000071    1 00000 2351 00           107          LDA      0,,PARG1          GET PTR TO BUFFER
   000072    777777 3750 03            108          ANA      =O777777,DU       MASK OFF ADDRESS - NOT SEGID
   000073    200000 2750 07            109          ORA      =O200000,DL       ONE PAGE - O2000 WORDS
   000074    000006 2240 03            110          LDX4     6,DU              O06 - SYSTEM DISK
   000075    3 00000 7251 00           111          LXL5     0,,PARG2          SECTOR ADDRESS
   000076    6 20000 7071 00           112          TSX7     MINIQENT,,PR6
   000077    000000 7100 11            113          TRA      0,X1
   000100    000001 7100 11            114          TRA      1,X1
                                       115  *
                                       116  *
          (0)000000000101              117  ITQ$DWRITE EQU   *
   000101  X 000000 7000 00            118          TSX0     X66_PREGS_2
   000102    000000 000002             119          ZERO     0,2
   000103    000001 2230 03            120          LDX3     1,DU              FC FOR WRITE
   000104 (0)000067 7100 00            121          TRA      COMMON
                                       122  *
                                       123           END
 1 000000    000002000000

  CONTROL SECTION TABLE

   0 CODE   EVEN  000105 ITQ$READ
   1 RODATA EVEN  000001 LITERALS

 23:07 07/29/97  FILE=ITQ$READ.:E05TSI        SYMBOL TABLE                                               5    BMAP - B00
 41000000 000000000002 AUTO           *21        40        41        59        62        63        64
                                       68        69
 03301000 000000000000 B$ISB$         *15        42        79       105
 03301001 000000000000 B$LOWMEM$      *16        43        80       106
 41101000 000000000067 COMMON        *103       121
 41101000 000000000061 GOTFC           89       *91
 52101000 000000000064 ITQ$DREAD        9       *98
 52101000 000000000101 ITQ$DWRITE      10      *117
 52101000 000000000000 ITQ$READ         7       *37
 53101000 000000000043 ITQ$WRITE        8        66       *76
 03301004 000000000000 IT_INDEV       *19        49        53        56
 03301002 000000000000 IT_MINIQ_ME    *17        57
 03301003 000000000000 IT_MINIQ_TA    *18        50
 03301005 000000000000 IT_OUTDEV      *20        87
 41000000 000000000006 MAXAUTO        *34        39
 41000000 000000020000 MINIQENT       *22        54        92       112
 41000000 000000000001 PARG1          *24        40        44        62        68        81       107
 41000000 000000000003 PARG2          *25        41        59        61        63        69        72
                                       82       111
 41000000 000000000003 PARM1          *30        40
 41000000 000000000004 PARM2          *31        41
 40000000 000000000000 PR0            *23
 40000000 000000000004 PR4            *26
 40000000 000000000005 PR5            *27
 41000000 000000000006 PR6            *28        54        92       112
 40000000 000000000007 PR7            *29
 41101000 000000000040 RET             58       *70
 41000000 000000000005 SAVE1          *32        62        68
 41000000 000000000006 SAVE2          *33        34        63        69
 03201002 000000000000 X66_AALT       *13        55
 03201003 000000000000 X66_ARET       *14        73
 03201000 000000000000 X66_AUTO_N     *11        38
 03201001 000000000000 X66_PREGS_2    *12        77        99       118

      31 SYMBOLS

       0 MACROS
 23:07 07/29/97  FILE=ITQ$READ.:E05TSI        SYMBOL TABLE                                               6    BMAP - B00

    SYMBOL SPACE USED   424 WORDS
     MACRO SPACE USED     0 WORDS
   INPUT RECORDS READ   246
 STATEMENTS PROCESSED   131
         ELAPSED TIME  0:05.60
             CPU TIME     1.06 SEC.
        ASSEMBLY RATE  7415 STATEMENTS/CPU MIN.

      NO ERRORS

