VERSION E05

PL6.E3A0      #001=ITS$SYSCON File=ITS$SYSCON.:E05TSI                            TUE 07/29/97 23:08 Page:1
        1        1        /*M*     Allocate TIGR built tables for system console */
        2        2        /*T***********************************************************/
        3        3        /*T*                                                         */
        4        4        /*T* Copyright (c) Bull HN Information Systems Inc., 1997    */
        5        5        /*T*                                                         */
        6        6        /*T***********************************************************/
        7        7        /**/
        8        8        /*P*     NAME:     ITS$SYSCON
        9        9                 PURPOSE:  ITS$SYSCON builds and initializes the tables for the
       10       10                           system console.               */
       11       11        ITS$SYSCON: PROC(PTR$)  ALTRET;
       12       12        /**/
       13       13    1   DCL PTR$ PTR;                           /* POINTER TO TIGR TABLE SPACE        */
       14       14        /**/
       15       15        /*  INCLUDE FILES  */
       16       16        /**/
       17       17        %INCLUDE IT$CONSOLE;
       18      135        %INCLUDE IT$CMDWD;
       19      143        %INCLUDE IT$CONFIG;
       20      212        %INCLUDE IT_ERROR_C;
       21      295        %INCLUDE IT_SUBS_C;
       22      562        %INCLUDE NI_DATA_R ;
       23      999        %INCLUDE NK_SUBS;
       24     1024        %INCLUDE HF_DATA_R;
       25     1067        %SUB YES = '1'B/*YES*/;
       26     1068        %SUB NO = '0'B/*NO*/;
       27     1069        /**/
       28     1070        /*  AUTOMATIC  */
       29     1071        /**/
       30     1072    1   DCL CMD$ PTR;
       31     1073    1   DCL SQH$ PTR;
       32     1074    1   DCL DQH$ PTR;
       33     1075    1   DCL CHTX SBIN(36);
       34     1076    1   DCL DEV$ PTR;
       35     1077    1   DCL 1 DUPCHANERR_TEXT,
       36     1078    1         2 COUNT UBIN(9) UNAL,
       37     1079    1         2 CHANNEL CHAR(8) UNAL,
PL6.E3A0      #001=ITS$SYSCON File=ITS$SYSCON.:E05TSI                            TUE 07/29/97 23:08 Page:2
       38     1080    1         2 IOMTEXT CHAR(1) UNAL,
       39     1081    1         2 DASH CHAR(1) UNAL,
       40     1082    1         2 CHANTEXT CHAR(2) UNAL;
       41     1083        /**/
       42     1084        /*  BASED  */
       43     1085        /**/
       44     1086        %NI$DVT;
       45     1093        %NI$SQH;
       46     1106        %NI$DQH;
       47     1129        %NI$CHT;
       48     1132        %NI$DCT;
       49     1180        %NI$IOM;
       50     1185        %NI$IOSTAT;
       51     1194        %NI$MBX;
       52     1213        %OC$INFO (FPTN=OC$INFO,STCLASS=BASED);
       53     1250        %IT$CONFIG (NAME=IT_CONFIG,STCLASS=SYMREF);
       54     1311        %NI$PARTITION (NAME=IT_PARTITION, STCLASS=SYMREF);
       55     1319        /**/
       56     1320        /*  ENTRY DCLS  */
       57     1321        /**/
       58     1322    1   DCL ITE$ERROR ENTRY(2);
       59     1323    1   DCL NIC$POSTER ENTRY(3);
       60     1324    1   DCL ITH$ALLOCATE ENTRY(2) ALTRET;
       61     1325    1   DCL ITH$SQH_INIT ENTRY(2) ALTRET;
       62     1326    1   DCL ITH$DCT_INIT ENTRY(2) ALTRET;
       63     1327        /**/
       64     1328        /*  SYMREFS  */
       65     1329        /**/
       66     1330    1   DCL B$REAL$ PTR SYMREF;
       67     1331    1   DCL B$DS5$ PTR SYMREF;                  /* COMMANDS                           */
       68     1332    1   DCL B_SCDCTX UBIN WORD SYMREF;
       69     1333    1   DCL AARDCONFOUND BIT(1) SYMREF;
       70     1334        /**/
       71     1335        %INCLUDE IT_IDATA_R;
       72     1452        /**/
       73     1453        %EJECT;
PL6.E3A0      #001=ITS$SYSCON File=ITS$SYSCON.:E05TSI                            TUE 07/29/97 23:08 Page:3
       74     1454        /*D*     NAME:     ITS$SYSCON
       75     1455                 PURPOSE:  To build the necessary tables for the system console
       76     1456        *
       77     1457                 INPUT:    PTR$ - parameter - pointer to next available location
       78     1458                           in the TIGR table area
       79     1459                           Command table - built in DS5 by ITC$CHECK_CON
       80     1460        *
       81     1461                 OUTPUT:   The initialized tables
       82     1462        *
       83     1463                 DESCRIPTION:  ITS$SYSCON aquirs space for and initializes the
       84     1464                           NI$SQH,NI$DQH and NI$DCT entries for this console. In
       85     1465                           addition the cell B_SCDCTX is initialized to the DCT
       86     1466                           index of this console if this is the first console
       87     1467                           defined. The channel entry in the NI$CHT table is
       88     1468                           initialized to point to the DQH.        */
       89     1469        /**/
       90     1470    1           CMD$ = B$DS5$;
       91     1471    1           CMD$ = PINCRW(CMD$,SIZEW(IT$CMDWD));
       92     1472        /**/
       93     1473    1           CALL ITH$SQH_INIT(PTR$,SQH$) ALTRET(ITS$SYSCON_ERR);
       94     1474    1           SQH$ -> NI$SQH.NDCT = 1;
       95     1475        /**/
       96     1476    1           DQH$ = PTR$;
       97     1477    1           CALL ITH$ALLOCATE(PTR$,SIZEW(NI$DQH)) ALTRET(ITS$SYSCON_ERR);
       98     1478        /**/
       99     1479    1           DQH$ -> NI$DQH = NI$DQH_C;     /* set to constant inited structure    */
      100     1480        /**/
      101     1481    1           DQH$ -> NI$DQH.FL$ = DQH$;
      102     1482        /*      DQH$ -> NI$DQH.IO$ = ADDR(NIL);            */
      103     1483    1           DQH$ -> NI$DQH.SQH$ = SQH$;
      104     1484    1           DQH$ -> NI$DQH.IOCHAN.IOM = CMD$ -> IT$CONSOLE.IOM#;
      105     1485    1           DQH$ -> NI$DQH.IOCHAN.CHANNEL = CMD$ -> IT$CONSOLE.CHAN;
      106     1486        /*      DQH$ -> NI$DQH.MPC$ = ADDR(NIL);           */
      107     1487    2           IF HW_IMX THEN DO;
      108     1488        /*         DQH$ -> NI$DQH.MBX$ = ADDR(NIL);        */
      109     1489        /*         DQH$->NI$DQH.IOSTATUS$ = ADDR(NIL);     */
      110     1490    2              END;
PL6.E3A0      #001=ITS$SYSCON File=ITS$SYSCON.:E05TSI                            TUE 07/29/97 23:08 Page:4
      111     1491    2           ELSE DO;
      112     1492    2              DQH$ -> NI$DQH.MBX$ = PINCRW (NI$IOM$(CMD$->IT$CONSOLE.IOM#) -> NI$IOM.
              1492                       MBX$,
      113     1493    2                SIZEW(NI$MBX(0)) * CMD$->IT$CONSOLE.CHAN);
      114     1494    2              DQH$ -> NI$DQH.IOSTATUS$ = NI$FQ$ -> NI$FQ.HD$;
              1494                       /* STATUS IN LOW REAL MEM */
      115     1495    3              IF HW_IOP THEN DO;
      116     1496    3                 DQH$ -> NI$DQH.IOSTATUS$ -> NI$IOSTAT.AESDCW = %IOP_AESDCW_INIT;
      117     1497    3                 DQH$ -> NI$DQH.IOSTATUS$ -> NI$IOSTAT.AESDCW.ADDRESS =
      118     1498    3                   POFFW (ADDR (DQH$ -> NI$DQH.IOSTATUS$ -> NI$IOSTAT.EXTST), B$REAL$);
      119     1499    3                 END;
      120     1500
      121     1501    2              NI$FQ$ -> NI$FQ.HD$ = PINCRW(NI$FQ$ -> NI$FQ.HD$,SIZEW(NI$IOSTAT));
      122     1502    2              END;
      123     1503        /**/
      124     1504    1         IF ((IT_CONFIG.IOM.PORT = NI$IOM$(CMD$->IT$CONSOLE.IOM#)->NI$IOM.ADDRESS) AND
      125     1505    1             (IT_CONFIG.SC01.CHAN = CMD$->IT$CONSOLE.CHAN)) THEN AARDCONFOUND = '1'B;
      126     1506        /**/
      127     1507    1           CHTX = ((CMD$ -> IT$CONSOLE.IOM#)*%N_MAXCHANS) + CMD$ -> IT$CONSOLE.CHAN;
      128     1508    2           IF (NI$CHT$ -> NI$CHT.DQH$(CHTX) ~= ADDR(NIL)) THEN DO;
      129     1509    2              DUPCHANERR_TEXT.COUNT = SIZEC(DUPCHANERR_TEXT) - 1;
      130     1510    2              DUPCHANERR_TEXT.CHANNEL = 'CHANNEL ';
      131     1511    2              CALL BINCHAR(DUPCHANERR_TEXT.IOMTEXT,CMD$ -> IT$CONSOLE.IOM#);
      132     1512    2              DUPCHANERR_TEXT.DASH = '-';
      133     1513    2              CALL BINCHAR(DUPCHANERR_TEXT.CHANTEXT,CMD$ -> IT$CONSOLE.CHAN);
      134     1514    2              CALL ITE$ERROR(%E$DUPCHAN,ADDR(DUPCHANERR_TEXT));
      135     1515    2              RETURN;
      136     1516    2              END;
      137     1517        /**/
      138     1518    1           NI$CHT$ -> NI$CHT.DQH$(CHTX) = DQH$;
      139     1519    1           NI$CHT$ -> NI$CHT.POSTER(CHTX) = ENTADDR(NIC$POSTER);
      140     1520        /**/
      141     1521    1           CALL ITH$DCT_INIT(PTR$,DEV$) ALTRET(ITS$SYSCON_ERR);
      142     1522        /**/
      143     1523    1           IF (B_SCDCTX = 0) THEN B_SCDCTX = N_DCTXMAX;
      144     1524        /**/
      145     1525    1           DEV$ -> NI$DCT.DEVNM = CMD$ -> IT$CONSOLE.NAME;
PL6.E3A0      #001=ITS$SYSCON File=ITS$SYSCON.:E05TSI                            TUE 07/29/97 23:08 Page:5
      146     1526    1           DEV$ -> NI$DCT.DVT$ = NI$DVT$(CMD$ -> IT$CONSOLE.TYPE);
      147     1527    1           DEV$ -> NI$DCT.TYPE = DEV$ -> NI$DCT.DVT$ -> NI$DVT.TYPE;
      148     1528    1           DEV$ -> NI$DCT.MODX = CMD$ -> IT$CONSOLE.MODX;
      149     1529    1           DEV$ -> NI$DCT.FX = CMD$ -> IT$CONSOLE.FX;
      150     1530    1           DEV$ -> NI$DCT.SQH$ = SQH$;
      151     1531    1           DEV$ -> NI$DCT.DQH$ = DQH$;
      152     1532    1           DEV$ -> NI$DCT.DFLG.INPUT = YES;
      153     1533    1           DEV$ -> NI$DCT.DFLG.OUTPUT = YES;
      154     1534    1           DEV$ -> NI$DCT.DFLG.CONSOLE = YES;
      155     1535    1           IF HW_TYPE ~= 0 THEN DEV$ -> NI$DCT.DFLG.PSIA = YES;
      156     1536    1           IT_PARTITION.DEVICE(N_DCTXMAX) = CMD$->IT$CONSOLE.DOWN;
      157     1537        /**/
      158     1538    1           DEV$ -> NI$DCT.SC.OCINFO$ = PTR$;
      159     1539    1           PTR$ -> OC$INFO = CMD$ -> IT$CONSOLE.OCINFO;
      160     1540    1           CALL ITH$ALLOCATE(PTR$,SIZEW(OC$INFO)) ALTRET(ITS$SYSCON_ERR);
      161     1541    1           RETURN;
      162     1542    1   ITS$SYSCON_ERR:
      163     1543    1           ALTRETURN;
      164     1544    1   END;

PL6.E3A0      #001=ITS$SYSCON File=ITS$SYSCON.:E05TSI                            TUE 07/29/97 23:08 Page:6
--  Include file information  --

   IT_IDATA_R.:E05TOU  cannot be made into a system file and is referenced.
   HF_DATA_R.:E05TOU  cannot be made into a system file and is referenced.
   NK_SUBS.:E05TOU  is referenced.
   NI$TABLES.:E05TOU  is referenced.
   N$REQ.:E05TOU  is referenced.
   NI_DATA_R.:E05TOU  cannot be made into a system file and is referenced.
   IT_SUBS_C.:E05TOU  is referenced.
   IT_ERROR_C.:E05TOU  is referenced.
   IT$CONFIG.:E05TOU  is referenced.
   IT$CMDWD.:E05TOU  cannot be made into a system file and is referenced.
   OC$INFO.:E05TOU  is referenced.
   IT$CONSOLE.:E05TOU  cannot be made into a system file and is referenced.
      No diagnostics issued in procedure ITS$SYSCON.

   Procedure ITS$SYSCON requires 203 words for executable code.
   Procedure ITS$SYSCON requires 18 words of local(AUTO) storage.

    No errors detected in file ITS$SYSCON.:E05TSI    .

PL6.E3A0      #001=ITS$SYSCON File=ITS$SYSCON.:E05TSI                            TUE 07/29/97 23:08 Page:7

 Object Unit name= ITS$SYSCON                                 File name= ITS$SYSCON.:E05TOU
 UTS= JUL 29 '97 23:08:17.36 TUE                              Compiler= PL-6/E31         Sev=      00
 SharedLib= :SHARED_SYSTEM                                    Alt SharedLib=


    ****  Control sections  ****

 Sect   Type Bound  Init  Size OctSiz  Section name(segment info)
    0  RoData even  UTS      2      2  ITS$SYSCON
    1   Proc  even  none   203    313  ITS$SYSCON
    2  RoData even  none     6      6  ITS$SYSCON

    ****  Entry defs  ****

                              Check   Calling
                             calling  sequence
  Sect OctLoc Primary Altret sequence   type   Parms  Name
     1      0   yes    yes     yes      Std        1  ITS$SYSCON

  ****  Entry refs  ****

         Check        Calling
        calling       sequence
Altret sequence SRef   type   Args  Name
 yes     yes           Std       2 ITH$SQH_INIT
 yes     yes           Std       2 ITH$ALLOCATE
         yes           Std       2 ITE$ERROR
         yes           Std       3 NIC$POSTER
 yes     yes           Std       2 ITH$DCT_INIT
                       Std       0 B_CONSPOOL_D
                       nStd      0 X66_AUTO_1
                       nStd      0 X66_ARET
                       nStd      0 X66_AALT
PL6.E3A0      #001=ITS$SYSCON File=ITS$SYSCON.:E05TSI                            TUE 07/29/97 23:08 Page:8

  ****  Data refs  ****

  Flags:  r = read only, s = secondary
Flgs Name                             Flgs Name                             Flgs Name
     N$DCT$$                               N$FQ$                                 NI$CHT$
     NI$DVT$                               NI$FQ$                                NI$IBUF$
     NI$IOM$                               NI$RP$                                N_DCTXMAX
     HW_TYPE                               HW_IOP                                HW_IMX
     IT_CONFIG                             IT_PARTITION                          B$REAL$
     B$DS5$                                B_SCDCTX                              AARDCONFOUND
     NI$DQH_C                              B_VECTNIL

  ****  Segment refs  ****

  Flags:  r = read only, s = secondary
Flgs Name                             Flgs Name                             Flgs Name
     ISSID
PL6.E3A0      #001=ITS$SYSCON File=ITS$SYSCON.:E05TSI                            TUE 07/29/97 23:08 Page:9


        1        1        /*M*     Allocate TIGR built tables for system console */
        2        2        /*T***********************************************************/
        3        3        /*T*                                                         */
        4        4        /*T* Copyright (c) Bull HN Information Systems Inc., 1997    */
        5        5        /*T*                                                         */
        6        6        /*T***********************************************************/
        7        7        /**/
        8        8        /*P*     NAME:     ITS$SYSCON
        9        9                 PURPOSE:  ITS$SYSCON builds and initializes the tables for the
       10       10                           system console.               */
       11       11        ITS$SYSCON: PROC(PTR$)  ALTRET;

     11  1 000000   000000 700200 xent  ITS$SYSCON   TSX0  ! X66_AUTO_1
         1 000001   000022 000001                    ZERO    18,1

       12       12        /**/
       13       13    1   DCL PTR$ PTR;                           /* POINTER TO TIGR TABLE SPACE        */
       14       14        /**/
       15       15        /*  INCLUDE FILES  */
       16       16        /**/
       17       17        %INCLUDE IT$CONSOLE;
       18      135        %INCLUDE IT$CMDWD;
       19      143        %INCLUDE IT$CONFIG;
       20      212        %INCLUDE IT_ERROR_C;
       21      295        %INCLUDE IT_SUBS_C;
       22      562        %INCLUDE NI_DATA_R ;
       23      999        %INCLUDE NK_SUBS;
       24     1024        %INCLUDE HF_DATA_R;
       25     1067        %SUB YES = '1'B/*YES*/;
       26     1068        %SUB NO = '0'B/*NO*/;
       27     1069        /**/
       28     1070        /*  AUTOMATIC  */
       29     1071        /**/
       30     1072    1   DCL CMD$ PTR;
       31     1073    1   DCL SQH$ PTR;
       32     1074    1   DCL DQH$ PTR;
PL6.E3A0      #001=ITS$SYSCON File=ITS$SYSCON.:E05TSI                            TUE 07/29/97 23:08 Page:10
       33     1075    1   DCL CHTX SBIN(36);
       34     1076    1   DCL DEV$ PTR;
       35     1077    1   DCL 1 DUPCHANERR_TEXT,
       36     1078    1         2 COUNT UBIN(9) UNAL,
       37     1079    1         2 CHANNEL CHAR(8) UNAL,
       38     1080    1         2 IOMTEXT CHAR(1) UNAL,
       39     1081    1         2 DASH CHAR(1) UNAL,
       40     1082    1         2 CHANTEXT CHAR(2) UNAL;
       41     1083        /**/
       42     1084        /*  BASED  */
       43     1085        /**/
       44     1086        %NI$DVT;
       45     1093        %NI$SQH;
       46     1106        %NI$DQH;
       47     1129        %NI$CHT;
       48     1132        %NI$DCT;
       49     1180        %NI$IOM;
       50     1185        %NI$IOSTAT;
       51     1194        %NI$MBX;
       52     1213        %OC$INFO (FPTN=OC$INFO,STCLASS=BASED);
       53     1250        %IT$CONFIG (NAME=IT_CONFIG,STCLASS=SYMREF);
       54     1311        %NI$PARTITION (NAME=IT_PARTITION, STCLASS=SYMREF);
       55     1319        /**/
       56     1320        /*  ENTRY DCLS  */
       57     1321        /**/
       58     1322    1   DCL ITE$ERROR ENTRY(2);
       59     1323    1   DCL NIC$POSTER ENTRY(3);
       60     1324    1   DCL ITH$ALLOCATE ENTRY(2) ALTRET;
       61     1325    1   DCL ITH$SQH_INIT ENTRY(2) ALTRET;
       62     1326    1   DCL ITH$DCT_INIT ENTRY(2) ALTRET;
       63     1327        /**/
       64     1328        /*  SYMREFS  */
       65     1329        /**/
       66     1330    1   DCL B$REAL$ PTR SYMREF;
       67     1331    1   DCL B$DS5$ PTR SYMREF;                  /* COMMANDS                           */
       68     1332    1   DCL B_SCDCTX UBIN WORD SYMREF;
       69     1333    1   DCL AARDCONFOUND BIT(1) SYMREF;
PL6.E3A0      #001=ITS$SYSCON File=ITS$SYSCON.:E05TSI                            TUE 07/29/97 23:08 Page:11
       70     1334        /**/
       71     1335        %INCLUDE IT_IDATA_R;
       72     1452        /**/
       73     1453        %EJECT;
PL6.E3A0      #001=ITS$SYSCON File=ITS$SYSCON.:E05TSI                            TUE 07/29/97 23:08 Page:12
       74     1454        /*D*     NAME:     ITS$SYSCON
       75     1455                 PURPOSE:  To build the necessary tables for the system console
       76     1456        *
       77     1457                 INPUT:    PTR$ - parameter - pointer to next available location
       78     1458                           in the TIGR table area
       79     1459                           Command table - built in DS5 by ITC$CHECK_CON
       80     1460        *
       81     1461                 OUTPUT:   The initialized tables
       82     1462        *
       83     1463                 DESCRIPTION:  ITS$SYSCON aquirs space for and initializes the
       84     1464                           NI$SQH,NI$DQH and NI$DCT entries for this console. In
       85     1465                           addition the cell B_SCDCTX is initialized to the DCT
       86     1466                           index of this console if this is the first console
       87     1467                           defined. The channel entry in the NI$CHT table is
       88     1468                           initialized to point to the DQH.        */
       89     1469        /**/
       90     1470    1           CMD$ = B$DS5$;

   1470  1 000002   000000 236000 xsym               LDQ     B$DS5$
         1 000003   200004 756100                    STQ     CMD$,,AUTO

       91     1471    1           CMD$ = PINCRW(CMD$,SIZEW(IT$CMDWD));

   1471  1 000004   000001 036003                    ADLQ    1,DU
         1 000005   200004 756100                    STQ     CMD$,,AUTO

       92     1472        /**/
       93     1473    1           CALL ITH$SQH_INIT(PTR$,SQH$) ALTRET(ITS$SYSCON_ERR);

   1473  1 000006   200005 630500                    EPPR0   SQH$,,AUTO
         1 000007   200017 450500                    STP0    DUPCHANERR_TEXT+6,,AUTO
         1 000010   200003 236100                    LDQ     @PTR$,,AUTO
         1 000011   200016 756100                    STQ     DUPCHANERR_TEXT+5,,AUTO
         1 000012   200016 630500                    EPPR0   DUPCHANERR_TEXT+5,,AUTO
         1 000013   000020 631400 xsym               EPPR1   B_VECTNIL+16
         1 000014   000000 701000 xent               TSX1    ITH$SQH_INIT
         1 000015   000312 702000 1                  TSX2    ITS$SYSCON_ERR
PL6.E3A0      #001=ITS$SYSCON File=ITS$SYSCON.:E05TSI                            TUE 07/29/97 23:08 Page:13

       94     1474    1           SQH$ -> NI$SQH.NDCT = 1;

   1474  1 000016   000001 220003                    LDX0    1,DU
         1 000017   200005 470500                    LDP0    SQH$,,AUTO
         1 000020   000002 440100                    SXL0    2,,PR0

       95     1475        /**/
       96     1476    1           DQH$ = PTR$;

   1476  1 000021   200003 470500                    LDP0    @PTR$,,AUTO
         1 000022   000000 236100                    LDQ     0,,PR0
         1 000023   200006 756100                    STQ     DQH$,,AUTO

       97     1477    1           CALL ITH$ALLOCATE(PTR$,SIZEW(NI$DQH)) ALTRET(ITS$SYSCON_ERR);

   1477  1 000024   000001 236000 2                  LDQ     1
         1 000025   200003 235100                    LDA     @PTR$,,AUTO
         1 000026   200016 757100                    STAQ    DUPCHANERR_TEXT+5,,AUTO
         1 000027   200016 630500                    EPPR0   DUPCHANERR_TEXT+5,,AUTO
         1 000030   000020 631400 xsym               EPPR1   B_VECTNIL+16
         1 000031   000000 701000 xent               TSX1    ITH$ALLOCATE
         1 000032   000312 702000 1                  TSX2    ITS$SYSCON_ERR

       98     1478        /**/
       99     1479    1           DQH$ -> NI$DQH = NI$DQH_C;     /* set to constant inited structure    */

   1479  1 000033   200006 470500                    LDP0    DQH$,,AUTO
         1 000034   000100 100400                    MLR     fill='000'O
         1 000035   000000 000110 xsym               ADSC9   NI$DQH_C                 cn=0,n=72
         1 000036   000000 000110                    ADSC9   0,,PR0                   cn=0,n=72

      100     1480        /**/
      101     1481    1           DQH$ -> NI$DQH.FL$ = DQH$;

   1481  1 000037   200006 236100                    LDQ     DQH$,,AUTO
         1 000040   000000 756100                    STQ     0,,PR0
PL6.E3A0      #001=ITS$SYSCON File=ITS$SYSCON.:E05TSI                            TUE 07/29/97 23:08 Page:14

      102     1482        /*      DQH$ -> NI$DQH.IO$ = ADDR(NIL);            */
      103     1483    1           DQH$ -> NI$DQH.SQH$ = SQH$;

   1483  1 000041   200005 236100                    LDQ     SQH$,,AUTO
         1 000042   000013 756100                    STQ     11,,PR0

      104     1484    1           DQH$ -> NI$DQH.IOCHAN.IOM = CMD$ -> IT$CONSOLE.IOM#;

   1484  1 000043   200004 471500                    LDP1    CMD$,,AUTO
         1 000044   100003 236100                    LDQ     3,,PR1
         1 000045   000031 736000                    QLS     25
         1 000046   000001 676100                    ERQ     1,,PR0
         1 000047   000600 376003                    ANQ     384,DU
         1 000050   000001 656100                    ERSQ    1,,PR0

      105     1485    1           DQH$ -> NI$DQH.IOCHAN.CHANNEL = CMD$ -> IT$CONSOLE.CHAN;

   1485  1 000051   100004 236100                    LDQ     4,,PR1
         1 000052   000022 736000                    QLS     18
         1 000053   000001 676100                    ERQ     1,,PR0
         1 000054   000177 376003                    ANQ     127,DU
         1 000055   000001 656100                    ERSQ    1,,PR0

      106     1486        /*      DQH$ -> NI$DQH.MPC$ = ADDR(NIL);           */
      107     1487    2           IF HW_IMX THEN DO;

   1487  1 000056   000000 234000 xsym               SZN     HW_IMX
         1 000057   000061 605000 1                  TPL     s:1492

      108     1488        /*         DQH$ -> NI$DQH.MBX$ = ADDR(NIL);        */
      109     1489        /*         DQH$->NI$DQH.IOSTATUS$ = ADDR(NIL);     */
      110     1490    2              END;

   1490  1 000060   000116 710000 1                  TRA     s:1504

      111     1491    2           ELSE DO;
PL6.E3A0      #001=ITS$SYSCON File=ITS$SYSCON.:E05TSI                            TUE 07/29/97 23:08 Page:15

      112     1492    2              DQH$ -> NI$DQH.MBX$ = PINCRW (NI$IOM$(CMD$->IT$CONSOLE.IOM#) -> NI$IOM.
              1492                       MBX$,

   1492  1 000061   100003 720100                    LXL0    3,,PR1
         1 000062   000000 473410 xsym               LDP3    NI$IOM$,X0
         1 000063   100004 236100                    LDQ     4,,PR1
         1 000064   300002 474500                    LDP4    2,,PR3
         1 000065   000002 736000                    QLS     2
         1 000066   400000 633506                    EPPR3   0,QL,PR4
         1 000067   000021 453500                    STP3    17,,PR0

      113     1493    2                SIZEW(NI$MBX(0)) * CMD$->IT$CONSOLE.CHAN);
      114     1494    2              DQH$ -> NI$DQH.IOSTATUS$ = NI$FQ$ -> NI$FQ.HD$;
              1494                       /* STATUS IN LOW REAL MEM */

   1494  1 000070   000000 474400 xsym               LDP4    NI$FQ$
         1 000071   400002 236100                    LDQ     2,,PR4
         1 000072   000016 756100                    STQ     14,,PR0

      115     1495    3              IF HW_IOP THEN DO;

   1495  1 000073   000000 234000 xsym               SZN     HW_IOP
         1 000074   000113 605000 1                  TPL     s:1501

      116     1496    3                 DQH$ -> NI$DQH.IOSTATUS$ -> NI$IOSTAT.AESDCW = %IOP_AESDCW_INIT;

   1496  1 000075   000016 475500                    LDP5    14,,PR0
         1 000076   000012 236000 xsym               LDQ     B_VECTNIL+10
         1 000077   500004 756100                    STQ     4,,PR5

      117     1497    3                 DQH$ -> NI$DQH.IOSTATUS$ -> NI$IOSTAT.AESDCW.ADDRESS =

   1497  1 000100   000016 473500                    LDP3    14,,PR0
         1 000101   200016 453500                    STP3    DUPCHANERR_TEXT+5,,AUTO
         1 000102   200016 236100                    LDQ     DUPCHANERR_TEXT+5,,AUTO
         1 000103   000010 036003                    ADLQ    8,DU
PL6.E3A0      #001=ITS$SYSCON File=ITS$SYSCON.:E05TSI                            TUE 07/29/97 23:08 Page:16
         1 000104   000022 772000                    QRL     18
         1 000105   000000 235000 xsym               LDA     B$REAL$
         1 000106   000022 771000                    ARL     18
         1 000107   200017 755100                    STA     DUPCHANERR_TEXT+6,,AUTO
         1 000110   200017 136100                    SBLQ    DUPCHANERR_TEXT+6,,AUTO
         1 000111   000000 620006                    EAX0    0,QL
         1 000112   300004 740100                    STX0    4,,PR3

      118     1498    3                  POFFW (ADDR (DQH$ -> NI$DQH.IOSTATUS$ -> NI$IOSTAT.EXTST), B$REAL$);
      119     1499    3                 END;

      120     1500
      121     1501    2              NI$FQ$ -> NI$FQ.HD$ = PINCRW(NI$FQ$ -> NI$FQ.HD$,SIZEW(NI$IOSTAT));

   1501  1 000113   400002 236100                    LDQ     2,,PR4
         1 000114   000020 036003                    ADLQ    16,DU
         1 000115   400002 756100                    STQ     2,,PR4

      122     1502    2              END;

      123     1503        /**/
      124     1504    1         IF ((IT_CONFIG.IOM.PORT = NI$IOM$(CMD$->IT$CONSOLE.IOM#)->NI$IOM.ADDRESS) AND

   1504  1 000116   100003 720100                    LXL0    3,,PR1
         1 000117   000000 473410 xsym               LDP3    NI$IOM$,X0
         1 000120   300003 236100                    LDQ     3,,PR3
         1 000121   000007 376007                    ANQ     7,DL
         1 000122   000000 116000 xsym               CMPQ    IT_CONFIG
         1 000123   000132 601000 1                  TNZ     s:1507
         1 000124   000002 236000 xsym               LDQ     IT_CONFIG+2
         1 000125   000132 604000 1                  TMI     s:1507
         1 000126   100004 116100                    CMPQ    4,,PR1
         1 000127   000132 601000 1                  TNZ     s:1507

      125     1505    1             (IT_CONFIG.SC01.CHAN = CMD$->IT$CONSOLE.CHAN)) THEN AARDCONFOUND = '1'B;

   1505  1 000130   400000 236003                    LDQ     -131072,DU
PL6.E3A0      #001=ITS$SYSCON File=ITS$SYSCON.:E05TSI                            TUE 07/29/97 23:08 Page:17
         1 000131   000000 756000 xsym               STQ     AARDCONFOUND

      126     1506        /**/
      127     1507    1           CHTX = ((CMD$ -> IT$CONSOLE.IOM#)*%N_MAXCHANS) + CMD$ -> IT$CONSOLE.CHAN;

   1507  1 000132   100003 236100                    LDQ     3,,PR1
         1 000133   000007 736000                    QLS     7
         1 000134   100004 036100                    ADLQ    4,,PR1
         1 000135   200007 756100                    STQ     CHTX,,AUTO

      128     1508    2           IF (NI$CHT$ -> NI$CHT.DQH$(CHTX) ~= ADDR(NIL)) THEN DO;

   1508  1 000136   200007 235100                    LDA     CHTX,,AUTO
         1 000137   000001 735000                    ALS     1
         1 000140   000000 473400 xsym               LDP3    NI$CHT$
         1 000141   300000 236105                    LDQ     0,AL,PR3
         1 000142   000001 116000 xsym               CMPQ    B_VECTNIL+1
         1 000143   000174 600000 1                  TZE     s:1518

      129     1509    2              DUPCHANERR_TEXT.COUNT = SIZEC(DUPCHANERR_TEXT) - 1;

   1509  1 000144   014000 236003                    LDQ     6144,DU
         1 000145   200011 552140                    STBQ    DUPCHANERR_TEXT,'40'O,AUTO

      130     1510    2              DUPCHANERR_TEXT.CHANNEL = 'CHANNEL ';

   1510  1 000146   040100 100400                    MLR     fill='040'O
         1 000147   000000 000010 0                  ADSC9   0                        cn=0,n=8
         1 000150   200011 200010                    ADSC9   DUPCHANERR_TEXT,,AUTO    cn=1,n=8

      131     1511    2              CALL BINCHAR(DUPCHANERR_TEXT.IOMTEXT,CMD$ -> IT$CONSOLE.IOM#);

   1511  1 000151   000100 301500                    BTD
         1 000152   100003 000004                    NDSC9   3,,PR1                   cn=0,s=lsgnf,sf=0,n=4
         1 000153   200013 230001                    NDSC9   DUPCHANERR_TEXT+2,,AUTO  cn=1,s=nosgn,sf=0,n=1

      132     1512    2              DUPCHANERR_TEXT.DASH = '-';
PL6.E3A0      #001=ITS$SYSCON File=ITS$SYSCON.:E05TSI                            TUE 07/29/97 23:08 Page:18

   1512  1 000154   055000 236007                    LDQ     23040,DL
         1 000155   200013 552110                    STBQ    DUPCHANERR_TEXT+2,'10'O,AUTO

      133     1513    2              CALL BINCHAR(DUPCHANERR_TEXT.CHANTEXT,CMD$ -> IT$CONSOLE.CHAN);

   1513  1 000156   000100 301500                    BTD
         1 000157   100004 000004                    NDSC9   4,,PR1                   cn=0,s=lsgnf,sf=0,n=4
         1 000160   200013 630002                    NDSC9   DUPCHANERR_TEXT+2,,AUTO  cn=3,s=nosgn,sf=0,n=2

      134     1514    2              CALL ITE$ERROR(%E$DUPCHAN,ADDR(DUPCHANERR_TEXT));

   1514  1 000161   200011 634500                    EPPR4   DUPCHANERR_TEXT,,AUTO
         1 000162   200016 454500                    STP4    DUPCHANERR_TEXT+5,,AUTO
         1 000163   200016 635500                    EPPR5   DUPCHANERR_TEXT+5,,AUTO
         1 000164   200021 455500                    STP5    DUPCHANERR_TEXT+8,,AUTO
         1 000165   000003 236000 2                  LDQ     3
         1 000166   200020 756100                    STQ     DUPCHANERR_TEXT+7,,AUTO
         1 000167   200020 630500                    EPPR0   DUPCHANERR_TEXT+7,,AUTO
         1 000170   000020 631400 xsym               EPPR1   B_VECTNIL+16
         1 000171   000000 701000 xent               TSX1    ITE$ERROR
         1 000172   000000 011000                    NOP     0

      135     1515    2              RETURN;

   1515  1 000173   000000 702200 xent               TSX2  ! X66_ARET

      136     1516    2              END;
      137     1517        /**/
      138     1518    1           NI$CHT$ -> NI$CHT.DQH$(CHTX) = DQH$;

   1518  1 000174   200006 236100                    LDQ     DQH$,,AUTO
         1 000175   300000 756105                    STQ     0,AL,PR3

      139     1519    1           NI$CHT$ -> NI$CHT.POSTER(CHTX) = ENTADDR(NIC$POSTER);

   1519  1 000176   000000 636000 xent               EAQ     NIC$POSTER
PL6.E3A0      #001=ITS$SYSCON File=ITS$SYSCON.:E05TSI                            TUE 07/29/97 23:08 Page:19
         1 000177   000000 473400 xsym               LDP3    NI$CHT$
         1 000200   300001 756105                    STQ     1,AL,PR3

      140     1520        /**/
      141     1521    1           CALL ITH$DCT_INIT(PTR$,DEV$) ALTRET(ITS$SYSCON_ERR);

   1521  1 000201   200010 633500                    EPPR3   DEV$,,AUTO
         1 000202   200017 453500                    STP3    DUPCHANERR_TEXT+6,,AUTO
         1 000203   200003 236100                    LDQ     @PTR$,,AUTO
         1 000204   200016 756100                    STQ     DUPCHANERR_TEXT+5,,AUTO
         1 000205   200016 630500                    EPPR0   DUPCHANERR_TEXT+5,,AUTO
         1 000206   000020 631400 xsym               EPPR1   B_VECTNIL+16
         1 000207   000000 701000 xent               TSX1    ITH$DCT_INIT
         1 000210   000312 702000 1                  TSX2    ITS$SYSCON_ERR

      142     1522        /**/
      143     1523    1           IF (B_SCDCTX = 0) THEN B_SCDCTX = N_DCTXMAX;

   1523  1 000211   000000 235000 xsym               LDA     B_SCDCTX
         1 000212   000215 601000 1                  TNZ     s:1525

   1523  1 000213   000000 236000 xsym               LDQ     N_DCTXMAX
         1 000214   000000 756000 xsym               STQ     B_SCDCTX

      144     1524        /**/
      145     1525    1           DEV$ -> NI$DCT.DEVNM = CMD$ -> IT$CONSOLE.NAME;

   1525  1 000215   200004 470500                    LDP0    CMD$,,AUTO
         1 000216   200010 471500                    LDP1    DEV$,,AUTO
         1 000217   040100 100500                    MLR     fill='040'O
         1 000220   000001 000010                    ADSC9   1,,PR0                   cn=0,n=8
         1 000221   100002 000010                    ADSC9   2,,PR1                   cn=0,n=8

      146     1526    1           DEV$ -> NI$DCT.DVT$ = NI$DVT$(CMD$ -> IT$CONSOLE.TYPE);

   1526  1 000222   000006 220100                    LDX0    6,,PR0
         1 000223   000000 236010 xsym               LDQ     NI$DVT$,X0
PL6.E3A0      #001=ITS$SYSCON File=ITS$SYSCON.:E05TSI                            TUE 07/29/97 23:08 Page:20
         1 000224   200010 471500                    LDP1    DEV$,,AUTO
         1 000225   100024 756100                    STQ     20,,PR1

      147     1527    1           DEV$ -> NI$DCT.TYPE = DEV$ -> NI$DCT.DVT$ -> NI$DVT.TYPE;

   1527  1 000226   100024 473500                    LDP3    20,,PR1
         1 000227   300053 236100                    LDQ     43,,PR3
         1 000230   000025 772000                    QRL     21
         1 000231   100007 752102                    STCQ    7,'02'O,PR1

      148     1528    1           DEV$ -> NI$DCT.MODX = CMD$ -> IT$CONSOLE.MODX;

   1528  1 000232   200010 471500                    LDP1    DEV$,,AUTO
         1 000233   000006 236100                    LDQ     6,,PR0
         1 000234   000022 736000                    QLS     18
         1 000235   100007 752110                    STCQ    7,'10'O,PR1

      149     1529    1           DEV$ -> NI$DCT.FX = CMD$ -> IT$CONSOLE.FX;

   1529  1 000236   200010 471500                    LDP1    DEV$,,AUTO
         1 000237   000007 236100                    LDQ     7,,PR0
         1 000240   000006 772000                    QRL     6
         1 000241   100007 752104                    STCQ    7,'04'O,PR1

      150     1530    1           DEV$ -> NI$DCT.SQH$ = SQH$;

   1530  1 000242   200005 236100                    LDQ     SQH$,,AUTO
         1 000243   200010 471500                    LDP1    DEV$,,AUTO
         1 000244   100022 756100                    STQ     18,,PR1

      151     1531    1           DEV$ -> NI$DCT.DQH$ = DQH$;

   1531  1 000245   200006 236100                    LDQ     DQH$,,AUTO
         1 000246   100023 756100                    STQ     19,,PR1

      152     1532    1           DEV$ -> NI$DCT.DFLG.INPUT = YES;

PL6.E3A0      #001=ITS$SYSCON File=ITS$SYSCON.:E05TSI                            TUE 07/29/97 23:08 Page:21
   1532  1 000247   400000 236007                    LDQ     -131072,DL
         1 000250   100006 256100                    ORSQ    6,,PR1

      153     1533    1           DEV$ -> NI$DCT.DFLG.OUTPUT = YES;

   1533  1 000251   200010 471500                    LDP1    DEV$,,AUTO
         1 000252   200000 236007                    LDQ     65536,DL
         1 000253   100006 256100                    ORSQ    6,,PR1

      154     1534    1           DEV$ -> NI$DCT.DFLG.CONSOLE = YES;

   1534  1 000254   200010 471500                    LDP1    DEV$,,AUTO
         1 000255   040000 236007                    LDQ     16384,DL
         1 000256   100006 256100                    ORSQ    6,,PR1

      155     1535    1           IF HW_TYPE ~= 0 THEN DEV$ -> NI$DCT.DFLG.PSIA = YES;

   1535  1 000257   000000 235000 xsym               LDA     HW_TYPE
         1 000260   000264 600000 1                  TZE     s:1536

   1535  1 000261   200010 471500                    LDP1    DEV$,,AUTO
         1 000262   010000 236007                    LDQ     4096,DL
         1 000263   100006 256100                    ORSQ    6,,PR1

      156     1536    1           IT_PARTITION.DEVICE(N_DCTXMAX) = CMD$->IT$CONSOLE.DOWN;

   1536  1 000264   000000 236000 xsym               LDQ     N_DCTXMAX
         1 000265   000267 605000 1                  TPL     s:1536+3
         1 000266   000044 036003                    ADLQ    36,DU
         1 000267   003006 060500                    CSL     bolr='003'O
         1 000270   000005 000001                    BDSC    5,,PR0                   by=0,bit=0,n=1
         1 000271   000000 000001 xsym               BDSC    IT_PARTITION,Q           by=0,bit=0,n=1

      157     1537        /**/
      158     1538    1           DEV$ -> NI$DCT.SC.OCINFO$ = PTR$;

   1538  1 000272   200003 471500                    LDP1    @PTR$,,AUTO
PL6.E3A0      #001=ITS$SYSCON File=ITS$SYSCON.:E05TSI                            TUE 07/29/97 23:08 Page:22
         1 000273   100000 236100                    LDQ     0,,PR1
         1 000274   200010 473500                    LDP3    DEV$,,AUTO
         1 000275   300030 756100                    STQ     24,,PR3

      159     1539    1           PTR$ -> OC$INFO = CMD$ -> IT$CONSOLE.OCINFO;

   1539  1 000276   100000 474500                    LDP4    0,,PR1
         1 000277   000100 100500                    MLR     fill='000'O
         1 000300   000010 000160                    ADSC9   8,,PR0                   cn=0,n=112
         1 000301   400000 000160                    ADSC9   0,,PR4                   cn=0,n=112

      160     1540    1           CALL ITH$ALLOCATE(PTR$,SIZEW(OC$INFO)) ALTRET(ITS$SYSCON_ERR);

   1540  1 000302   000005 236000 2                  LDQ     5
         1 000303   200003 235100                    LDA     @PTR$,,AUTO
         1 000304   200016 757100                    STAQ    DUPCHANERR_TEXT+5,,AUTO
         1 000305   200016 630500                    EPPR0   DUPCHANERR_TEXT+5,,AUTO
         1 000306   000020 631400 xsym               EPPR1   B_VECTNIL+16
         1 000307   000000 701000 xent               TSX1    ITH$ALLOCATE
         1 000310   000312 702000 1                  TSX2    ITS$SYSCON_ERR

      161     1541    1           RETURN;

   1541  1 000311   000000 702200 xent               TSX2  ! X66_ARET

      162     1542    1   ITS$SYSCON_ERR:
      163     1543    1           ALTRETURN;

   1543  1 000312   000000 702200 xent  ITS$SYSCON_* TSX2  ! X66_AALT

(unnamed)
 Sect OctLoc
   0     000   103110 101116   116105 114040                                    CHANNEL

(unnamed)
 Sect OctLoc
   2     000   000000 000022   000000 006000   000000 000147   000002 006000    ...........g....
PL6.E3A0      #001=ITS$SYSCON File=ITS$SYSCON.:E05TSI                            TUE 07/29/97 23:08 Page:23
   2     004   000000 000034   000004 006000                                    ........
      164     1544    1   END;

PL6.E3A0      #001=ITS$SYSCON File=ITS$SYSCON.:E05TSI                            TUE 07/29/97 23:08 Page:24
--  Include file information  --

   IT_IDATA_R.:E05TOU  cannot be made into a system file and is referenced.
   HF_DATA_R.:E05TOU  cannot be made into a system file and is referenced.
   NK_SUBS.:E05TOU  is referenced.
   NI$TABLES.:E05TOU  is referenced.
   N$REQ.:E05TOU  is referenced.
   NI_DATA_R.:E05TOU  cannot be made into a system file and is referenced.
   IT_SUBS_C.:E05TOU  is referenced.
   IT_ERROR_C.:E05TOU  is referenced.
   IT$CONFIG.:E05TOU  is referenced.
   IT$CMDWD.:E05TOU  cannot be made into a system file and is referenced.
   OC$INFO.:E05TOU  is referenced.
   IT$CONSOLE.:E05TOU  cannot be made into a system file and is referenced.
      No diagnostics issued in procedure ITS$SYSCON.
PL6.E3A0      #001=ITS$SYSCON File=ITS$SYSCON.:E05TSI                            TUE 07/29/97 23:08 Page:25

 **** Variables and constants ****

  ****  Auto variables  ****

  ****  Scalars and arrays  ****
OctLoc.c.b A Datatyp(siz) R M Lvl/name                 OctLoc.c.b A Datatyp(siz) R M Lvl/name

     3-0-0/w PTR         r     1 @PTR$                      7-0-0/w SBIN        r     1 CHTX
     4-0-0/w PTR         r     1 CMD$                      10-0-0/w PTR         r     1 DEV$
     6-0-0/w PTR         r     1 DQH$                      11-0-0/c STRC(117)   r     1 DUPCHANERR_TEXT
    *0-0-0/w PTR         r     1 PTR$                       5-0-0/w PTR         r     1 SQH$

  ****  SYMREF variables  ****

  ****  Scalars and arrays  ****
OctLoc.c.b A Datatyp(siz) R M Lvl/name                 OctLoc.c.b A Datatyp(siz) R M Lvl/name

     0-0-0/b BIT         r     1 AARDCONFOUND               0-0-0/w PTR         r     1 B$DS5$
     0-0-0/w PTR         r     1 B$REAL$                    0-0-0/w UBIN        r     1 B_SCDCTX
     0-0-0/w BIT         r     1 HW_IMX                     0-0-0/w BIT         r     1 HW_IOP
     0-0-0/w UBIN        r     1 HW_TYPE                    0-0-0/d STRC(936)   r     1 IT_CONFIG
     0-0-0/w STRC(1800)  r     1 IT_PARTITION               0-0-0/w PTR         r     1 N$DCT$$
     0-0-0/w PTR         r     1 N$FQ$                      0-0-0/w PTR         r     1 NI$CHT$
     0-0-0/w STRC(648)   r     1 NI$DQH_C                   0-0-0/w PTR         r     1 NI$DVT$(0:49)
     0-0-0/w PTR         r     1 NI$FQ$                     0-0-0/w PTR         r     1 NI$IBUF$
     0-0-0/w PTR         r     1 NI$IOM$(0:3)
     0-0-0/w PTR         r     1 NI$RP$                     0-0-0/w SBIN        r     1 N_DCTXMAX

  ****  BASED and DCB variables  ****

  ****  Scalars and arrays  ****
OctLoc.c.b A Datatyp(siz) R M Lvl/name                 OctLoc.c.b A Datatyp(siz) R M Lvl/name

     0-0-0/w UBIN        r     1 IT$CMDWD                   0-0-0/w STRC(1368)  r     1 IT$CONSOLE
     0-0-0/w STRC(72)    r     1 NI$CHT(0:127)              0-0-0/w STRC(1332)  r     1 NI$DCT
     0-0-0/w STRC(648)   r     1 NI$DQH                     0-0-0/w STRC(2844)  r     1 NI$DVT
     0-0-0/w STRC(144)   r     1 NI$FQ                      0-0-0/w STRC(252)   r     1 NI$IOM
PL6.E3A0      #001=ITS$SYSCON File=ITS$SYSCON.:E05TSI                            TUE 07/29/97 23:08 Page:26
     0-0-0/d STRC(576)   r     1 NI$IOSTAT                  0-0-0/d STRC(144)   r     1 NI$MBX(0:63)
     0-0-0/w STRC(252)   r     1 NI$SQH                     0-0-0/w STRC(1008)  r     1 OC$INFO


   Procedure ITS$SYSCON requires 203 words for executable code.
   Procedure ITS$SYSCON requires 18 words of local(AUTO) storage.

    No errors detected in file ITS$SYSCON.:E05TSI    .
PL6.E3A0      #001=ITS$SYSCON File=ITS$SYSCON.:E05TSI                            TUE 07/29/97 23:08 Page:27
          *** CROSS REFERENCE LISTING ***
**     DENOTES     IDENTIFIER DEFINITION
<<                 IDENTIFIER'S VALUE SET
>>                 IDENTIFIER'S VALUE USED
<>                 IDENTIFIER SET AND/OR USED
--                 IDENTIFIER REFERENCED
PL6.E3A0      #001=ITS$SYSCON File=ITS$SYSCON.:E05TSI                            TUE 07/29/97 23:08 Page:28
          MINI XREF LISTING

AARDCONFOUND
      1333**DCL      1505<<ASSIGN
B$DS5$
      1331**DCL      1470>>ASSIGN
B$REAL$
      1330**DCL      1497>>ASSIGN
B_SCDCTX
      1332**DCL      1523>>IF       1523<<ASSIGN
CHTX
      1075**DCL      1507<<ASSIGN   1508>>IF       1518>>ASSIGN   1519>>ASSIGN
CMD$
      1072**DCL      1470<<ASSIGN   1471<<ASSIGN   1471>>ASSIGN   1484>>ASSIGN   1485>>ASSIGN   1492>>ASSIGN
      1492>>ASSIGN   1504>>IF       1504>>IF       1507>>ASSIGN   1507>>ASSIGN   1511>>CALLBLT  1513>>CALLBLT
      1525>>ASSIGN   1526>>ASSIGN   1528>>ASSIGN   1529>>ASSIGN   1536>>ASSIGN   1539>>ASSIGN
DEV$
      1076**DCL      1521<>CALL     1525>>ASSIGN   1526>>ASSIGN   1527>>ASSIGN   1527>>ASSIGN   1528>>ASSIGN
      1529>>ASSIGN   1530>>ASSIGN   1531>>ASSIGN   1532>>ASSIGN   1533>>ASSIGN   1534>>ASSIGN   1535>>ASSIGN
      1538>>ASSIGN
DQH$
      1074**DCL      1476<<ASSIGN   1479>>ASSIGN   1481>>ASSIGN   1481>>ASSIGN   1483>>ASSIGN   1484>>ASSIGN
      1485>>ASSIGN   1492>>ASSIGN   1494>>ASSIGN   1496>>ASSIGN   1497>>ASSIGN   1497>>ASSIGN   1518>>ASSIGN
      1531>>ASSIGN
DUPCHANERR_TEXT
      1077**DCL      1509--ASSIGN   1514--CALL
DUPCHANERR_TEXT.CHANNEL
      1079**DCL      1510<<ASSIGN
DUPCHANERR_TEXT.CHANTEXT
      1082**DCL      1513<<CALLBLT
DUPCHANERR_TEXT.COUNT
      1078**DCL      1509<<ASSIGN
DUPCHANERR_TEXT.DASH
      1081**DCL      1512<<ASSIGN
PL6.E3A0      #001=ITS$SYSCON File=ITS$SYSCON.:E05TSI                            TUE 07/29/97 23:08 Page:29
DUPCHANERR_TEXT.IOMTEXT
      1080**DCL      1511<<CALLBLT
HW_IMX
      1066**DCL      1487>>IF
HW_IOP
      1063**DCL      1495>>IF
HW_TYPE
      1061**DCL      1535>>IF
IT$CMDWD
       142**DCL      1471--ASSIGN
IT$CONSOLE.CHAN
        92**DCL      1485>>ASSIGN   1492>>ASSIGN   1504>>IF       1507>>ASSIGN   1513>>CALLBLT
IT$CONSOLE.DOWN
        93**DCL      1536>>ASSIGN
IT$CONSOLE.FX
        96**DCL      1529>>ASSIGN
IT$CONSOLE.IOM#
        91**DCL      1484>>ASSIGN   1492>>ASSIGN   1504>>IF       1507>>ASSIGN   1511>>CALLBLT
IT$CONSOLE.MODX
        95**DCL      1528>>ASSIGN
IT$CONSOLE.NAME
        86**DCL        87--REDEF    1525>>ASSIGN
IT$CONSOLE.OCINFO
       113**DCL      1539>>ASSIGN
IT$CONSOLE.TYPE
        94**DCL      1526>>ASSIGN
ITE$ERROR
      1322**DCL-ENT  1514--CALL
ITH$ALLOCATE
      1324**DCL-ENT  1477--CALL     1540--CALL
ITH$DCT_INIT
      1326**DCL-ENT  1521--CALL
ITH$SQH_INIT
      1325**DCL-ENT  1473--CALL
ITS$SYSCON_ERR
      1543**LABEL    1473--CALLALT  1477--CALLALT  1521--CALLALT  1540--CALLALT
PL6.E3A0      #001=ITS$SYSCON File=ITS$SYSCON.:E05TSI                            TUE 07/29/97 23:08 Page:30
IT_CONFIG.IOM.PORT
      1275**DCL      1504>>IF
IT_CONFIG.SC01.CHAN
      1278**DCL      1504>>IF
IT_PARTITION.DEVICE
      1317**DCL      1536<<ASSIGN
N$DCT$$
       860**DCL       994--IMP-PTR
N$FQ$
       860**DCL       995--IMP-PTR
N$REQ_INIT.BUFADDR
       879**DCL       880--REDEF     880--REDEF
N$REQ_INIT.DLA.DRELADDR
       871**DCL       871--REDEF
N$REQ_INIT.DVE.EOMCHAR
       908**DCL       909--REDEF
N$REQ_INIT.EAINFO
       902**DCL       902--REDEF
N$REQ_INIT.EAINFOX
       902**DCL       903--REDEF
N$REQ_INIT.EVNTINFO
       903**DCL       903--REDEF
N$REQ_INIT.STATUS
       884**DCL       890--REDEF
NI$CHT.DQH$
      1130**DCL      1508>>IF       1518<<ASSIGN
NI$CHT.POSTER
      1130**DCL      1519<<ASSIGN
NI$CHT$
       919**DCL      1130--IMP-PTR  1508>>IF       1518>>ASSIGN   1519>>ASSIGN
NI$DCT.DEVNM
      1141**DCL      1525<<ASSIGN
NI$DCT.DFLG.CONSOLE
      1144**DCL      1534<<ASSIGN
NI$DCT.DFLG.INPUT
      1143**DCL      1532<<ASSIGN
PL6.E3A0      #001=ITS$SYSCON File=ITS$SYSCON.:E05TSI                            TUE 07/29/97 23:08 Page:31
NI$DCT.DFLG.OUTPUT
      1144**DCL      1533<<ASSIGN
NI$DCT.DFLG.PSIA
      1145**DCL      1535<<ASSIGN
NI$DCT.DP
      1161**DCL      1168--REDEF    1171--REDEF    1172--REDEF    1174--REDEF    1174--REDEF    1175--REDEF
      1176--REDEF    1176--REDEF
NI$DCT.DQH$
      1157**DCL      1531<<ASSIGN
NI$DCT.DVT$
      1157**DCL      1526<<ASSIGN   1527>>ASSIGN
NI$DCT.FX
      1150**DCL      1529<<ASSIGN
NI$DCT.MODX
      1150**DCL      1528<<ASSIGN
NI$DCT.MPC.IOCHANX
      1169**DCL      1169--REDEF
NI$DCT.SC.OCINFO$
      1174**DCL      1538<<ASSIGN
NI$DCT.SQH$
      1156**DCL      1530<<ASSIGN
NI$DCT.TYPE
      1151**DCL      1527<<ASSIGN
NI$DCT_C.DP
      1382**DCL      1389--REDEF    1392--REDEF    1393--REDEF    1395--REDEF    1395--REDEF    1396--REDEF
      1397--REDEF    1397--REDEF
NI$DCT_C.MPC.IOCHANX
      1390**DCL      1390--REDEF
NI$DQH
      1115**DCL      1477--CALL     1479<<ASSIGN
NI$DQH.FL$
      1115**DCL      1481<<ASSIGN
NI$DQH.IOCHAN.CHANNEL
      1118**DCL      1485<<ASSIGN
NI$DQH.IOCHAN.IOM
      1118**DCL      1484<<ASSIGN
PL6.E3A0      #001=ITS$SYSCON File=ITS$SYSCON.:E05TSI                            TUE 07/29/97 23:08 Page:32
NI$DQH.IOCHANX
      1117**DCL      1118--REDEF
NI$DQH.IOSTATUS$
      1122**DCL      1494<<ASSIGN   1496>>ASSIGN   1497>>ASSIGN   1497>>ASSIGN
NI$DQH.MBX$
      1126**DCL      1127--REDEF    1492<<ASSIGN
NI$DQH.SQH$
      1121**DCL      1483<<ASSIGN
NI$DQH_C
      1410**DCL      1479>>ASSIGN
NI$DQH_C.IOCHANX
      1412**DCL      1413--REDEF
NI$DQH_C.MBX$
      1421**DCL      1422--REDEF
NI$DVT.MPC
      1089**DCL      1090--REDEF
NI$DVT.TYPE
      1087**DCL      1527>>ASSIGN
NI$DVT$
       919**DCL      1526>>ASSIGN
NI$FQ.HD$
       996**DCL      1494>>ASSIGN   1501<<ASSIGN   1501>>ASSIGN
NI$FQ$
       920**DCL       996--IMP-PTR  1494>>ASSIGN   1501>>ASSIGN   1501>>ASSIGN
NI$IBUF$
       920**DCL       996--IMP-PTR
NI$IMXMBX_INIT.PAGED_BASE
       930**DCL       931--REDEF     931--REDEF
NI$IMXMBX_INIT.SIZE
       932**DCL       932--REDEF
NI$IOM.ADDRESS
      1182**DCL      1504>>IF
NI$IOM.MBX$
      1181**DCL      1492>>ASSIGN
NI$IOM$
       942**DCL      1492>>ASSIGN   1504>>IF
PL6.E3A0      #001=ITS$SYSCON File=ITS$SYSCON.:E05TSI                            TUE 07/29/97 23:08 Page:33
NI$IOSTAT
      1186**DCL      1501--ASSIGN
NI$IOSTAT.AESDCW
      1191**DCL      1191--REDEF    1496<<ASSIGN
NI$IOSTAT.AESDCW.ADDRESS
      1191**DCL      1497<<ASSIGN
NI$IOSTAT.EXTST
      1192**DCL      1497--ASSIGN
NI$IOSTAT_C.AESDCW
      1448**DCL      1448--REDEF
NI$MBX
      1205**DCL      1492--ASSIGN
NI$MBX.DCW.CONTROL.AE
      1210**DCL      1210--REDEF
NI$MBX.LPW.CONTROL.AE
      1206**DCL      1206--REDEF
NI$REQ_INIT.DCW
       954**DCL       957--REDEF
NI$REQ_INIT.DCW.TALLY
       955**DCL       955--REDEF
NI$REQ_INIT.IDCW.EXTA
       957**DCL       957--REDEF
NI$REQ_INIT.PCW
       959**DCL       963--REDEF
NI$REQ_INIT.SEEK
       964**DCL       965--REDEF     966--REDEF
NI$RP$
       968**DCL       998--IMP-PTR
NI$SQH.DOOR
      1102**DCL      1102--REDEF
NI$SQH.NDCT
      1103**DCL      1474<<ASSIGN
NI$SQH_C.DOOR
      1433**DCL      1433--REDEF
NIC$POSTER
      1323**DCL-ENT  1519--ASSIGN
PL6.E3A0      #001=ITS$SYSCON File=ITS$SYSCON.:E05TSI                            TUE 07/29/97 23:08 Page:34
NI_MBX_INIT.DCW.CONTROL.AE
       990**DCL       990--REDEF
NI_MBX_INIT.LPW.CONTROL.AE
       986**DCL       986--REDEF
N_DCTXMAX
       968**DCL      1523>>ASSIGN   1536>>ASSIGN
OC$INFO
      1227**DCL      1539<<ASSIGN   1540--CALL
PTR$
        13**DCL        11--PROC     1473<>CALL     1476>>ASSIGN   1477<>CALL     1521<>CALL     1538>>ASSIGN
      1539>>ASSIGN   1540<>CALL
SQH$
      1073**DCL      1473<>CALL     1474>>ASSIGN   1483>>ASSIGN   1530>>ASSIGN
