VERSION E05

PL6.E3A0      #001=ITX$INITS File=ITX$INITS.:E05TSI                              TUE 07/29/97 23:10 Page:1
        1        1        /*M* ITX$INITS TIGR initialization of FEPs, COMGROUPs, files, and AVR */
        2        2        /*T***********************************************************/
        3        3        /*T*                                                         */
        4        4        /*T* Copyright (c) Bull HN Information Systems Inc., 1997    */
        5        5        /*T*                                                         */
        6        6        /*T***********************************************************/
        7        7        /*X* DMR,PLM=5,IND=5,CTI=5,SDI=5,MCL=10,CSI=0,ECI=0 */
        8        8        ITX$INITS: PROC;
        9        9        /**/
       10       10        %INCLUDE CP_6_SUBS;
       11      550        %INCLUDE B$MAP;
       12      649        %INCLUDE B$P;
       13      733        %INCLUDE KI_DATA_R;
       14      759        %INCLUDE KI_MACROS_C;
       15     1367        %INCLUDE K_DATA_R;
       16     2078        %INCLUDE KI$QHDR;
       17     2230        %INCLUDE NK$LDCT;
       18     2332        %INCLUDE KL_MACRO_C;
       19     5684        %INCLUDE S$WSPTD;
       20     5693        %INCLUDE S_WSPTD_R;
       21     5709        %INCLUDE HF_DATA_R;
       22     5752        %INCLUDE B_STRINGS_C;
       23     5881        %INCLUDE M_INFO_C;
       24     6021        %INCLUDE P_PMDAT_R;
       25     6329        %INCLUDE NI_DATA_R;
       26     6766        %INCLUDE NI_DATA_C;
       27     6879        %INCLUDE FR$RAT;
       28     6932        /**/
       29     6933        %INCLUDE FR_DATA_R;
       30     6965        %INCLUDE FM$MACROS;
       31     7340        %INCLUDE N_FC_C;
       32     7377        %INCLUDE OC_DATA_R;
       33     7386        %INCLUDE B$JIT_C;
       34     7700        %INCLUDE FT$DDT;
       35     7761        %INCLUDE JG_GHOSTS_C;
       36     7851        %INCLUDE UM_CP6;
       37     8703        /**/
PL6.E3A0      #001=ITX$INITS File=ITX$INITS.:E05TSI                              TUE 07/29/97 23:10 Page:2
       38     8704        %INCLUDE KC_DATA_R;
       39     8717        %INCLUDE KC$CGBLK;
       40     8765        %INCLUDE KC_CP6;
       41     9325        %INCLUDE OC$INFO;
       42     9381        %INCLUDE FOO_MAC_C;
       43    10129        %INCLUDE FI_MAC_C;
       44    10499        %INCLUDE KL_SUBS_C;
       45    10553        %INCLUDE KL_SUPER_C;
       46    13455        %INCLUDE KI_SUBS_C;
       47    13591        %KI$FEI (STCLASS="BASED(FEI$)");
       48    13675        %NK$LDCT;
       49    13721        %KI_CCMD (NAME=IT_INTL66,STCLASS=SYMREF);
       50    13749        %FR$RAT;
       51    13789        %NI$DCT;
       52    13837        %NI$CHT;
       53    13840        %NI$DQH;
       54    13863        %NI$SQH;
       55    13876        %NI$IOM;
       56    13881        %N$REQ (NAME=N$REQ);
       57    13939        %NI$DVT;
       58    13946        %FM$DEV(BASED="BASED(FM$SET$)");
       59    13952        %FM$CFUX;
       60    13957        %B$JIT0 (STCLASS=BASED);
       61    14046        %A$JIT6X;
       62    14049        %VLR_SITEINFO (FPTN=B_SITEINFO,STCLASS=SYMREF);
       63    14068        %VLR_MONINFO (FPTN=B_MONINFO,STCLASS=SYMREF);
       64    14086        %VLR_MONPTRS (FPTN=B_MONPTRS,STCLASS=SYMREF);
       65    14101        %KC$CGID (FPTN=KC_OSID,STCLASS=SYMREF);
       66    14127        %KC$CGID (FPTN=KC_ISID,STCLASS=SYMREF);
       67    14153        %KC$CGID (FPTN=KC_OCID,STCLASS=SYMREF);
       68    14179        %B$CGAUCI (FPTN=KC_HOG_INFO,STCLASS=SYMREF,LAST=",");
       69    14201        %OC$INFO (LVL=2,STCLASS=SYMREF);
       70    14238    1   DCL KC_HOG$ PTR SYMREF;
       71    14239        %B$CGAUCI (FPTN=CINFO,STCLASS=CONSTANT,LAST=",",INFOSZ=13,NM='*',AC='LOCAL');
       72    14261    1            2 * (0:12) UBIN WORD INIT(0*0);
       73    14262        %FI_CONINFO (FPTN=ISI,STCLASS=BASED);
       74    14306        %FO_CONINFO (FPTN=OSI,STCLASS=BASED);
PL6.E3A0      #001=ITX$INITS File=ITX$INITS.:E05TSI                              TUE 07/29/97 23:10 Page:3
       75    14337        %OC$INFO (FPTN=OCI,STCLASS=BASED);
       76    14374        %KL_PCD (FPTN=KL$PCD,CG=1,STCLASS=AUTO);
       77    14539        /**/
       78    14540        %INCLUDE NK_SUBS;
       79    14565        %INCLUDE FR_SUBS;
       80    14633        %INCLUDE I_SUBS_C;
       81    14657        %INCLUDE FT_SUBS;
       82    14737        %INCLUDE EL_SUBS_C;
       83    14821        %INCLUDE TM_DATA_M;
       84    14923        %INCLUDE TM_DATA_R;
       85    14932        %INCLUDE FP_MACRO_C;
       86    15204        %FP$OPCI (STCLASS=BASED);
       87    15214        /**/
       88    15215    1   DCL FEI SBIN(36);
       89    15216    1   DCL FEI$ PTR;
       90    15217    1   DCL SZ SBIN;
       91    15218    1   DCL CWSQ SBIN(36);
       92    15219    1   DCL J SBIN;
       93    15220    1   DCL I SBIN WORD;
       94    15221    1   DCL 1 IU REDEF I,
       95    15222    1            2 * UBIN(21) UNAL,
       96    15223    1            2 DCTX UBIN(15) UNAL;
       97    15224    1   DCL DCTX UBIN(15);
       98    15225    1   DCL STATUS UBIN;
       99    15226    1   DCL DATETYC BIT(36);
      100    15227    1   DCL NUM SBIN;
      101    15228    1   DCL LDX SBIN(36);
      102    15229        /**/
      103    15230    1   DCL PPNO SBIN;
      104    15231    1   DCL 1 NUMSP,
      105    15232    1            2 CP UBIN,
      106    15233    1            2 DB UBIN,
      107    15234    1            2 ASL UBIN;
      108    15235    1   DCL 1 NUMPROCS REDEF NUMSP,
      109    15236    1            2 NUM(0:2) UBIN;
      110    15237    1   DCL P$ PTR;
      111    15238    1   DCL Q$ PTR;
PL6.E3A0      #001=ITX$INITS File=ITX$INITS.:E05TSI                              TUE 07/29/97 23:10 Page:4
      112    15239    1   DCL LDCT$ PTR;
      113    15240    1   DCL DCT$ PTR;
      114    15241    1   DCL RAT$ PTR;
      115    15242    1   DCL WSNX SBIN WORD;
      116    15243    1   DCL WTNM CHAR(8);
      117    15244    1   DCL DDT$ PTR;
      118    15245    1   DCL SQH$ PTR;
      119    15246    1   DCL DQH$ PTR;
      120    15247    1   DCL BUF$ PTR;
      121    15248    1   DCL BUFX SBIN;
      122    15249    1   DCL 1 TEMP_FEP_ERA,
      123    15250    1            2 ERA UBIN(6) UNAL,
      124    15251    1            2 FUTS UBIN(30) UNAL;
      125    15252    1   DCL UTS_B UBIN BASED;
      126    15253    1   DCL B$CHAR8 CHAR(8) BASED;
      127    15254    1   DCL B$CHAR5 CHAR(5) BASED;
      128    15255        /**/
      129    15256        %MACRO MSG (NAME=MSG,TXT='');
      130    15257        DCL 1 NAME CONSTANT,
      131    15258                 2 * UBIN(36) INIT(SIZEC(NAME.CHR)),
      132    15259                 2 * BIT(18) INIT('015012'O) UNAL,
      133    15260                 2 CHR CHAR(0) INIT(TXT) UNAL,
      134    15261                 2 * UBIN(36) INIT(0) UNAL;
      135    15262        %MEND;
      136    15263        %MSG (NAME=NOPOMSG,TXT="'Can''t find PO tape in DCT tables, tape not mounted'");
      137    15270        %MSG (NAME=DTMSG,TXT="'Date (MM/DD/YY) '");
      138    15277        %MSG (NAME=TMMSG,TXT="'Time (HH:MM) '");
      139    15284        %MSG (NAME=CURMSG,TXT="'Current time is MM/DD/YY HH:SS'");
      140    15291        /**/
      141    15292    1   DCL IT_DATE CHAR(8) SYMREF;
      142    15293    1   DCL IT_TIME CHAR(5) SYMREF;
      143    15294    1   DCL IT_UTS UBIN WORD SYMREF;
      144    15295    1   DCL IT_TXT_LOCAL CHAR(5) SYMREF;
      145    15296        /**/
      146    15297    1   DCL 1 FM_POTAPE SYMREF,                 /* THIS FORM MAKES IT EASY FOR BOOT   */
      147    15298    1            2 PORT UBIN(9) UNAL,           /* N.B IF YOU CHANGE THIS */
      148    15299    1            2 CHN UBIN(9) UNAL,            /* CHANGE TIGRCUB.X TOO */
PL6.E3A0      #001=ITX$INITS File=ITX$INITS.:E05TSI                              TUE 07/29/97 23:10 Page:5
      149    15300    1            2 DVN UBIN(9) UNAL,
      150    15301    1            2 * UBIN(9) UNAL;
      151    15302    1   DCL FR_TIFLG SBIN SYMREF;
      152    15303        /**/
      153    15304    1   DCL NK_MONKLDX UBIN WORD SYMREF;
      154    15305    1   DCL NK_RESUSLDX UBIN WORD SYMREF;
      155    15306    1   DCL NK_RESUSLDX_HLP UBIN WORD SYMREF;
      156    15307    1   DCL NK_BABOONLDX UBIN WORD SYMREF;
      157    15308    1   DCL NK_MXLOCAL UBIN(36) SYMREF;
      158    15309    1   DCL IT_BOOTFLAG UBIN WORD SYMREF;
      159    15310    1   DCL IT_WSN (0:0) CHAR(8) SYMREF;
      160    15311    1   DCL IT_CP6UP UBIN WORD SYMREF;
      161    15312    1   DCL IT_CLOCKOK BIT(1) ALIGNED SYMREF;
      162    15313    1   DCL IT_SYSDISK UBIN SYMREF;
      163    15314    1   DCL IT_SCPUWSPTD(0:7) UBIN SYMREF;
      164    15315    1   DCL MM_FPMC BIT(36) SYMREF;
      165    15316    1   DCL B$WINDOW$ PTR SYMREF;
      166    15317    1   DCL B$WSQ0PT$ PTR SYMREF;
      167    15318    1   DCL B_MUAIS UBIN WORD SYMREF;
      168    15319    1   DCL FM$SET$ PTR SYMREF;
      169    15320    1   DCL F$CFU$ PTR SYMREF;
      170    15321    1   DCL FM_SRZERO UBIN SYMREF;
      171    15322    1   DCL FOS_WSQ UBIN WORD SYMREF;
      172    15323    1   DCL FOM_WSQ UBIN WORD SYMREF;
      173    15324    1   DCL B$USRT$ PTR SYMREF;
      174    15325    1   DCL S_NSCPU UBIN SYMREF;
      175    15326    1   DCL S_BOOTERA UBIN WORD SYMREF;
      176    15327    1   DCL S_BOOTQUARTER UBIN WORD SYMREF;
      177    15328    1   DCL FP_OPCI$$ PTR SYMREF;
      178    15329        /**/
      179    15330    1   DCL NKL$GETDCT ENTRY(1) ALTRET;
      180    15331    1   DCL KIQ$TMLP ENTRY(1);
      181    15332    1   DCL MMS$WSQINIT ENTRY(5) ALTRET;
      182    15333    1   DCL MMB$GPP ENTRY(2) ALTRET;
      183    15334    1   DCL MMB$GNPP ENTRY(2) ALTRET;
      184    15335    1   DCL NIM$WRENBL ENTRY(2) ALTRET;
      185    15336    1   DCL NIM$WRDSBL ENTRY(2) ALTRET;
PL6.E3A0      #001=ITX$INITS File=ITX$INITS.:E05TSI                              TUE 07/29/97 23:10 Page:6
      186    15337    1   DCL MME$CVM ENTRY(4) ALTRET;
      187    15338    1   DCL MMS$WSQSETUP ENTRY(1) ALTRET;
      188    15339    1   DCL MMS$WSQMAP ENTRY(1) ALTRET;
      189    15340    1   DCL MMQ$INIT ENTRY(3) ALTRET;
      190    15341    1   DCL KCC$CLOCK ENTRY(1);
      191    15342    1   DCL MMS$GETCQ ENTRY(3) ALTRET;
      192    15343    1   DCL NIS$DCCON ENTRY(3);
      193    15344    1   DCL SC_NCOMPP ENTRY CONV(2,0);
      194    15345    1   DCL SC_NLCLPP ENTRY CONV(2,0);
      195    15346    1   DCL NIO$SPINTCON ENTRY(3) ALTRET;
      196    15347    1   DCL KCL$CONN ENTRY(1) ALTRET;
      197    15348    1   DCL NIK$KIPND ENTRY(2);
      198    15349    1   DCL NIQ$GET ENTRY(1) ALTRET;
      199    15350    1   DCL NIQ$GETS ENTRY(1) ALTRET;
      200    15351    1   DCL NIQ$REL ENTRY(1) ALTRET;
      201    15352    1   DCL NIO$QUE ENTRY(1) ALTRET;
      202    15353    1   DCL NIO$IOSPIN ENTRY(1);
      203    15354    1   DCL ITK$TMA$UP ENTRY ALTRET;
      204    15355    1   DCL FMR$M8 ENTRY(2);                    /* STEAL A CFU ENTRY                  */
      205    15356    1   DCL FMN$AVR ENTRY(2);                   /* HEAR PACK IN/OFF                   */
      206    15357    1   DCL FMS$GARBCOL ENTRY ALTRET;
      207    15358    1   DCL UMT$LCLDATE ENTRY(3) ALTRET;
      208    15359    1   DCL UMT$IDT ENTRY(2) ALTRET;
      209    15360    1   DCL SSS$SETBTIME ENTRY(1);
      210    15361    1   DCL FRZ$GETRES ENTRY(5) ALTRET;
      211    15362    1   DCL FRL$AVR ENTRY (3) ALTRET;           /* AVR processer                      */
      212    15363    1   DCL PMC$COLLECT ENTRY;                  /* once-a-minute routine              */
      213    15364    1   DCL PMN$COLLECT ENTRY (2);              /* munge device-timing figures        */
      214    15365    1   DCL SSC$MONTIMR ENTRY (3);         /* routine to set up once-a-minute call    */
      215    15366    1   DCL UQC$INIT ENTRY ALTRET;         /* INITIALIZE THE ENQ-DEQ DATA SEGMENT     */
      216    15367    1   DCL SSS$CURTIME ENTRY (1);              /* Read clock and fetch UTS value     */
      217    15368    1   DCL HFC$RSCR ENTRY(3);
      218    15369    1   DCL HFC$SSCR ENTRY(3);
      219    15370    1   DCL ITG$MPY10000 ENTRY(2);
      220    15371    1   DCL SSS$FEPERA ENTRY(3);
      221    15372    1   DCL ITK$TMB$MCA ENTRY(3) ALTRET;
      222    15373    1   DCL ITK$TMB$BUF_ALLOC ENTRY(3) ALTRET;
PL6.E3A0      #001=ITX$INITS File=ITX$INITS.:E05TSI                              TUE 07/29/97 23:10 Page:7
      223    15374    1   DCL ITK$TMB$BUF_DEALLOC ENTRY(2) ALTRET;
      224    15375    1   DCL ELA$SYSLOG ENTRY(6) ALTRET;
      225    15376    1   DCL KCL$WRTEA ENTRY(1);
      226    15377    1   DCL KCL$OCINT ENTRY(3);
      227    15378    1   DCL KCL$RDEA ENTRY(1);
      228    15379    1   DCL KCL$ININT ENTRY(3);
      229    15380    1   DCL KIQ$QINIT ENTRY(1);
      230    15381        /**/
      231    15382        %EJECT;
PL6.E3A0      #001=ITX$INITS File=ITX$INITS.:E05TSI                              TUE 07/29/97 23:10 Page:8
      232    15383        /*   Initialize the WSQs for ASLs, DBs, or CPs. */
      233    15384    1        NUMSP.ASL=0;
      234    15385    1        NUMSP.CP=0;
      235    15386    1        NUMSP.DB=0;
      236    15387
      237    15388    2        DO I = 1 TO P_NPROCS;
      238    15389    2             IF B$P$->B$P.FLGS(I) & %P_ASL
      239    15390    2             THEN
      240    15391    2                  NUMSP.ASL = NUMSP.ASL + 1;
      241    15392    2             IF B$P$->B$P.FLGS(I) & %P_DB
      242    15393    2             THEN
      243    15394    2                  NUMSP.DB = NUMSP.DB + 1;
      244    15395    2             IF B$P$->B$P.FLGS(I) & %P_CP
      245    15396    2             THEN
      246    15397    2                  NUMSP.CP = NUMSP.CP + 1;
      247    15398    2           END;
      248    15399
      249    15400    2        DO I = %CPWSQ TO %ASLWSQ;
      250    15401    2             PPNO = 2;
      251    15402    2             CALL MMB$GNPP (PPNO,%MONWSQ);
      252    15403    2             IF PPNO = 0
      253    15404    2             THEN
      254    15405    2                  CALL SC_NCOMPP;
      255    15406    2             IF HW_WSQ0PT THEN
      256    15407    2                  S_WSPTD.BLKNO(I) = B$WSQ0PT$->B$MAP.RPN(PPNO)*(1024/HW_PTB_UNITS);
      257    15408    2             ELSE
      258    15409    2                  S_WSPTD.BLKNO(I) = PPNO * (1024/HW_PTB_UNITS);
      259    15410    2             S_WSPTD.P(I) = '1'B;
      260    15411    2             S_WSPTD.NBLKS(I) = 32;
      261    15412
      262    15413    2             CALL MME$CVM(%MONWSQ,%WINDOWLO,PPNO,SZ);
      263    15414    2             CALL MME$CVM(%MONWSQ,%WINDOWLO+1,PPNO+1,SZ);
      264    15415
      265    15416    3             IF HW_WSQ0PT THEN DO;
      266    15417    3                  B$WINDOW$->B$MAP.RPN(0) = B$WSQ0PT$->B$MAP.RPN(PPNO);
      267    15418    3                  B$WINDOW$->B$MAP.RPN(1) = B$WSQ0PT$->B$MAP.RPN(PPNO+1);
      268    15419    3                END;
PL6.E3A0      #001=ITX$INITS File=ITX$INITS.:E05TSI                              TUE 07/29/97 23:10 Page:9
      269    15420    3             ELSE DO;
      270    15421    3                  B$WINDOW$->B$MAP.RPN(0) = PPNO;
      271    15422    3                  B$WINDOW$->B$MAP.RPN(1) = PPNO+1;
      272    15423    3                END;
      273    15424    2             B$WINDOW$->B$MAP.CTRL(0) = %PGINMEM | %PGIOM | %PGWRITE;
      274    15425    2             B$WINDOW$->B$MAP.CTRL(1) = %PGINMEM | %PGIOM | %PGWRITE;
      275    15426
      276    15427    3             DO J = 2 TO S_WSPTD.NBLKS(I)*64-1;
      277    15428    3                  B$WINDOW$->B$MAP(J) = MM_FPMC;
      278    15429    3                END;
      279    15430    2           END;
      280    15431
      281    15432        /* Update each slave cpu's wsptd */
      282    15433    2        DO I = 1 TO S_NSCPU;
      283    15434    2             CALL MME$CVM(%MONWSQ,%WINDOWLO,IT_SCPUWSPTD(I),SZ);
      284    15435    2             B$WINDOW$->S$WSPTD(0) = S_WSPTD(0);
      285    15436    2             B$WINDOW$->S$WSPTD(%CPWSQ) = S_WSPTD(%CPWSQ);
      286    15437    2             B$WINDOW$->S$WSPTD(%DBWSQ) = S_WSPTD(%DBWSQ);
      287    15438    2             B$WINDOW$->S$WSPTD(%ASLWSQ) = S_WSPTD(%ASLWSQ);
      288    15439    2           END;
      289    15440    1        DCT$=N$DCT$(B_SCDCTX);
      290    15441    1        CALL NIQ$GET(Q$);
      291    15442    1        CALL NIQ$GETS(Q$->N$REQ.IOS$);
      292    15443    1        Q$->N$REQ.IOFLG.IOS='1'B;
      293    15444    1        DCT$->NI$DCT.SC.IOQ$=Q$;
      294    15445        /**/
      295    15446    1        IF NOT HW_TIME_LEGAL THEN GOTO RCVRDATE;
      296    15447        /**/
      297    15448    1        IF IT_BOOTFLAG >= I_RECOVERY AND IT_BOOTFLAG ~= I_OPRECOVRY THEN
      298    15449    1             GOTO RCVRDATE;
      299    15450    1        TM_MCA_DO_TIME = '1'B;
      300    15451    1        CALL UMT$IDT (IT_DATE, IT_TIME);
      301    15452    1        TM_MCA_DO_TIME = '0'B;
      302    15453    1        CALL NIM$WRENBL (CURMSG, PINCRW(ADDR(CURMSG),SIZEW(CURMSG))->B$CHAR8);
             15453                 /* Pretty sleazy, eh? */
      303    15454    1        PINCRC(ADDR(CURMSG.CHR), 16)->B$CHAR8 = IT_DATE;
      304    15455    1        PINCRC(ADDR(CURMSG.CHR), 25)->B$CHAR5 = IT_TIME;
PL6.E3A0      #001=ITX$INITS File=ITX$INITS.:E05TSI                              TUE 07/29/97 23:10 Page:10
      305    15456    1        CALL NIM$WRDSBL (CURMSG, PINCRW(ADDR(CURMSG),SIZEW(CURMSG))->B$CHAR8);
             15456                 /* Pretty sleazy, eh? */
      306    15457    1        CALL OCWRITE (CURMSG);
      307    15458    1   RDDATE: CALL OCWRITE(DTMSG);            /*  READ DATE AND TIME                */
      308    15459    1   RERDDATE:;
      309    15460    1        IT_DATE=' ';
      310    15461    1        IT_TIME=' ';
      311    15462    1        CALL OCREAD(IT_DATE);
      312    15463    1        IF DATETYC & ~%TYC_EGV THEN GOTO RERDDATE;
      313    15464    1        IF IT_DATE=' ' THEN GOTO RCVRDATE;
      314    15465    1        CALL OCWRITE (TMMSG);
      315    15466    1   RERDTIME:;
      316    15467    1        CALL OCREAD(IT_TIME);
      317    15468    1        IF DATETYC & ~%TYC_EGV THEN GOTO RERDTIME;
      318    15469    1        CALL UMT$LCLDATE (IT_UTS,IT_DATE,IT_TIME) ALTRET(RDDATE);
      319    15470    1        CALL SSS$SETBTIME(IT_UTS);
      320    15471    2        IF HW_IMX THEN DO;
      321    15472    2             CALL ITK$TMB$BUF_ALLOC (BUF$,BUFX,DQH$) ALTRET (RCVRDATE);
      322    15473    2             BUF$ -> UTS_B = IT_UTS;
      323    15474    2             CALL ITK$TMB$MCA (DQH$->NI$DQH,TM_OC_TIME_WRITE#,BUFX);
      324    15475    2             CALL ITK$TMB$BUF_DEALLOC (BUF$,BUFX);
      325    15476    2           END;
      326    15477    1   RCVRDATE:
      327    15478    1        CALL MMQ$INIT;
      328    15479    1        IT_CLOCKOK='1'B;
      329    15480    1        CALL KCC$CLOCK;
      330    15481    1        I = 2 + MINIMUM(KI_MXFE,%B_CWSQMAX-2); /* -2 IS FOR FEPS > 14 */
      331    15482    1        CALL MMS$WSQINIT (I) ALTRET (SCNPP);
      332    15483    1        FOM_WSQ = %B_CWSQ1;
      333    15484    1        FOS_WSQ=%B_CWSQ2;
      334    15485    1        CWSQ=%B_CWSQ3;
      335    15486    1        PPNO = 0;
      336    15487    2        DO FEI=1 TO KI_MXFE;
      337    15488    2             FEI$ = KI$FEI$(FEI);
      338    15489    2             KI$FEI.FEWSQ =CWSQ;
      339    15490    2             KI$FEI.PTPPNO# = PPNO;
      340    15491    2             SZ = KI$FEI.OQSZ;
PL6.E3A0      #001=ITX$INITS File=ITX$INITS.:E05TSI                              TUE 07/29/97 23:10 Page:11
      341    15492    2             CALL MMS$GETCQ (CWSQ,P$,SZ ) ALTRET (SCNPP);
      342    15493    2             P$->KI$QHDR='0'B;
      343    15494    2             P$->KI$QHDR.QSIZE=(KI$FEI.IQSZ *1024-SIZEW(KI$QHDR));
      344    15495    2             KI$FEI.ICQ$=P$;
      345    15496    3             DO I=1 TO KI$FEI.IQSZ -1;
      346    15497    3                  CALL MMS$GETCQ (CWSQ,P$,I+SZ) ALTRET (SCNPP);
      347    15498    3                END;
      348    15499    2             CALL MMS$GETCQ (CWSQ,P$,0) ALTRET (SCNPP);
      349    15500    2             P$->KI$QHDR='0'B;
      350    15501    2             P$->KI$QHDR.QSIZE=(KI$FEI.OQSZ *1024-SIZEW(KI$QHDR));
      351    15502    2             P$->KI$QHDR.HOST_NODE# = K_NODE#;
      352    15503    2             P$->KI$QHDR.FEP_NODE#=KI$FEI.FEP#;
      353    15504    2             P$->KI$QHDR.QOS = KI$FEI.QOS;
      354    15505    2             KI$FEI.OCQ$=P$;
      355    15506    2             IT_INTL66.L66INT=FE_ICQINT*2+1;
      356    15507    2             IF KI$FEI.FECH.DEV >31 THEN IT_INTL66.L66INT=IT_INTL66.L66INT-1;
      357    15508    2             P$->KI$QHDR.CCMD=IT_INTL66;
      358    15509    3             DO I=1 TO KI$FEI.OQSZ -1;
      359    15510    3                  CALL MMS$GETCQ (CWSQ,P$,I) ALTRET (SCNPP);
      360    15511    3                END;
      361    15512    2             IF KI$FEI.PBST.PROB ~= KIER_PART AND
      362    15513    3                  KI$FEI.PBST.PROB ~= KIER_STOP THEN DO;
      363    15514    3                  KI$FEI.PBST.PROB = KIER_OK ;
      364    15515    3                  IF HW_IMX THEN
             15515                           /* INIT DIRECT CHANNEL - '2'O NOT VALID HARDWARE MASK */
      365    15516    3                       CALL NIS$DCCON (KI$FEI.FECH, '2'O, KI$FEI.FEWSQ);
      366    15517    3                  CALL NIS$DCCON (KI$FEI.FECH, '4'O, KI$FEI.FEWSQ);
      367    15518    3                END;
      368    15519    2             KI$FEI.PBST.STATE = KIST_MASKED ;
      369    15520    2             CALL KIQ$QINIT(FEI);
      370    15521    2             CWSQ=CWSQ+1;
      371    15522    2             IF CWSQ > %B_CWSQ16
      372    15523    2             THEN
      373    15524    2                  CWSQ = %B_CWSQ13;
      374    15525    2           END;
      375    15526    1        CALL CGINIT;
      376    15527    1        CALL OPCINIT ALTRET (SCNPP);
PL6.E3A0      #001=ITX$INITS File=ITX$INITS.:E05TSI                              TUE 07/29/97 23:10 Page:12
      377    15528    1        CALL KIQ$TMLP (FEI);
      378    15529    1        CALL PMINIT;                       /* Initialize performance monitor     */
      379    15530    1        CALL SSS$FEPERA(P_STARTUP,TEMP_FEP_ERA);
      380    15531    1        S_BOOTERA = TEMP_FEP_ERA.ERA/3;
      381    15532    1        S_BOOTQUARTER = MOD(TEMP_FEP_ERA.ERA,3);
      382    15533                                                /* INITIALIZE M$MONINFO STUFF         */
      383    15534    1        B_MONINFO.INIT_UTS#=P_STARTUP;
      384    15535    1        B_MONINFO.BOOTFLAG#=IT_BOOTFLAG;
      385    15536    1        B_MONINFO.MUAIS#=B_MUAIS;
      386    15537    1        B_MONPTRS.N$DCT$$=N$DCT$$;
      387    15538    1        B_MONPTRS.NI$CHT$=NI$CHT$;
      388    15539    1        B_MONPTRS.NI$DVT$$=ADDR(NI$DVT$(0));
      389    15540    1        B_MONPTRS.B$USRT$=B$USRT$;
      390    15541    1        B_MONPTRS.B$P$=B$P$;
      391    15542    1        CALL ELA$SYSLOG(EL_SYSID,B_SITEINFO,SIZEW(B_SITEINFO),'0'B,1,I);
      392    15543    1        CALL SSC$MONTIMR(30000,ENTADDR(NIK$KIPND),0);
      393    15544    1        IF HW_IOP THEN                     /* MSOS */
      394    15545    1             CALL ITK$TMA$UP;
      395    15546
      396    15547    1        RETURN;
      397    15548
      398    15549        %EJECT;
PL6.E3A0      #001=ITX$INITS File=ITX$INITS.:E05TSI                              TUE 07/29/97 23:10 Page:13
      399    15550    1   ITX$INITS2: ENTRY;
      400    15551
      401    15552
      402    15553                                      /* START LOOKING FOR PENDING KEYINS IN 5 MIN.   */
      403    15554    1        CALL UQC$INIT;                /* INITIALIZE THE ENQ-DEQ DATA SEGMENT     */
      404    15555    1        CALL FMS$GARBCOL;                  /* INITIALIZE THE CFU AREA            */
      405    15556    1        P$=FR$HD$(1);                      /* HEAD OF TAPE CHAIN                 */
      406    15557    2        DO WHILE(P$~=ADDR(NIL));
      407    15558    2             CALL AVRINIT(P$->FR$RAT.DCTX);
      408    15559    2             P$=P$->FR$RAT.LNK$;
      409    15560    2           END;
      410    15561        /* */
      411    15562    2        IF (IT_BOOTFLAG < I_DISKBOOT) THEN DO; /* NOT DB OR RECOVERY          */
      412    15563    2             CALL RESINIT ALTRET (SETINIT);
      413    15564    2             CALL OCWRITE(NOPOMSG);
      414    15565    2           END;
      415    15566        /* */
      416    15567    1   SETINIT:;
      417    15568    1        P$=FR$HD$(0);
      418    15569    1        DCTX=0;
      419    15570    1        FM$CFUX.DSETH=P$->FR$RAT.DCTX;
      420    15571    2        DO WHILE (P$~=ADDR(NIL));
      421    15572    2             IF DCTX~=0 THEN FM$DEV.DEVL(DCTX)=P$->FR$RAT.DCTX;
      422    15573    2             DCTX=P$->FR$RAT.DCTX;
      423    15574    2             Q$=ADDR(FM$DEV(DCTX));
      424    15575    2             CALL FMR$M8(Q$,Q$);
      425    15576    2             FM$DEV.XCL(DCTX)='1'B;
      426    15577    2             FM$DEV.DCTX(DCTX)=DCTX;
      427    15578    2             CALL CHARBIN(I,SUBSTR(N$DCT$(DCTX)->NI$DCT.DEVNM,2,2));
      428    15579    2             FM$DEV.NN(DCTX)=I;
      429    15580    2             FM$DEV.NXTSDA(DCTX)=N$DCT$(DCTX)->NI$DCT.DVT$->
      430    15581    2                  NI$DVT.PACKSIZE+FM_SRZERO;
      431    15582    2             CALL NIO$SPINTCON(DCTX,ENTADDR(FMN$AVR),0);
      432    15583    2             CALL DPREQST;
      433    15584    2             CALL FMN$AVR(DCTX,STATUS);
      434    15585    2             P$=P$->FR$RAT.LNK$;
      435    15586    2           END;
PL6.E3A0      #001=ITX$INITS File=ITX$INITS.:E05TSI                              TUE 07/29/97 23:10 Page:14
      436    15587    1        I=FM$CFUX.DSETH;
      437    15588    2        IF I~=IT_SYSDISK THEN DO;          /* PUT SYS FIRST                      */
      438    15589    3             DO WHILE(FM$DEV.DEVL(I)~=IT_SYSDISK);
      439    15590    3                  I=FM$DEV.DEVL(I);
      440    15591    3                END;
      441    15592    2             FM$DEV.DEVL(I)=FM$DEV.DEVL(IT_SYSDISK);
      442    15593    2             FM$DEV.DEVL(IT_SYSDISK)=FM$CFUX.DSETH;
      443    15594    2             FM$CFUX.DSETH=IT_SYSDISK;
      444    15595    2           END;
      445    15596    1        RETURN;
      446    15597        /* */
      447    15598    1   SCNPP: ;
      448    15599    1        CALL SC_NCOMPP;
      449    15600        /*S*  SCREECH_CODE:  KIS-S$NCOMPP
      450    15601              TYPE:          Screech
      451    15602              MESSAGE:       Cant get physical pages to initialize FEPs
      452    15603              REMARKS:       This screech occurs when physical pages cannot be
      453    15604                             obtained for the following FEP initialization uses:
      454    15605                               1. The page table for a communication WSQ
      455    15606                               2. The primary LDCT for an FEP
      456    15607                               3. The FEPs input or output circular queue
      457    15608                             Since these pages are obtained at initialization
      458    15609                             this screech should only occur as a result of memory
      459    15610                             management bugs.                                        */
      460    15611        /* */
      461    15612    1   OCWRITE: PROC(MSG);
      462    15613    2   DCL MSG SBIN;
      463    15614    2   DCL FC SBIN;
      464    15615    2        FC=%N_WRASC;
      465    15616    2        GOTO COMMON;
      466    15617    2   OCREAD: ENTRY(MSG);
      467    15618    2        FC=%N_RDASC;
      468    15619    2        GOTO COMMON;
      469    15620    2   DPREQST: ENTRY;
      470    15621    2        FC=%N_RQSTAT;
      471    15622    3        IF N$DCT$(DCTX)->NI$DCT.STATUS.DOWN THEN DO;
      472    15623    3             STATUS=0;
PL6.E3A0      #001=ITX$INITS File=ITX$INITS.:E05TSI                              TUE 07/29/97 23:10 Page:15
      473    15624    3             RETURN;
      474    15625    3           END;
      475    15626    2   COMMON: CALL NIQ$GET(Q$);
      476    15627    3        IF FC=%N_RQSTAT THEN DO;
      477    15628    3             Q$->N$REQ.BPMIR = '1'B ;
      478    15629    3             Q$->N$REQ.DLA.DCTX=DCTX;
      479    15630    3             Q$->N$REQ.OPFLG=OP_HOLD;
      480    15631    3           END;
      481    15632    3        ELSE DO;
      482    15633    3             IF FC=%N_WRASC
      483    15634    3             THEN                          /* WRITE                              */
      484    15635    4             DO;
      485    15636    4                  Q$->N$REQ.BUF$=PINCRW(ADDR(MSG),1);
      486    15637    4                  Q$->N$REQ.BUFSIZE=MSG+2;
      487    15638    4                END;
      488    15639    3             ELSE                          /* READ                               */
      489    15640    4             DO;
      490    15641    4                  Q$->N$REQ.BUF$=ADDR(MSG);
      491    15642    4                  Q$->N$REQ.BUFSIZE=8;
      492    15643    4                END;
      493    15644    3             Q$->N$REQ.OPFLG=OP_HOLD|OP_BPF;
      494    15645    3             Q$->N$REQ.DLA.DCTX=B_SCDCTX;
      495    15646    3           END;
      496    15647    2        Q$->N$REQ.FC=FC;
      497    15648    2        CALL NIO$QUE(Q$->N$REQ);
      498    15649    2        CALL NIO$IOSPIN(Q$->N$REQ);
      499    15650    2        IF Q$->N$REQ.STATUS & '37'O THEN STATUS=0;
      500    15651    2        ELSE STATUS=1;
      501    15652    2        DATETYC=Q$->N$REQ.TYC;
      502    15653    2        CALL NIQ$REL(Q$);
      503    15654    2        RETURN;
      504    15655    2   END OCWRITE;
      505    15656        /**/
      506    15657    1   CGINIT: PROC;
      507    15658        /**/
      508    15659    2        CALL ELA$SYSLOG (EL_RESET,0,1,'0'B,2,DCT$) ALTRET (SCNPP);
      509    15660    2        CALL NKL$GETDCT (LDCT$) ALTRET (SCNPP);
PL6.E3A0      #001=ITX$INITS File=ITX$INITS.:E05TSI                              TUE 07/29/97 23:10 Page:16
      510    15661    2        LDCT$->NK$LDCT.DFLG.LOCAL = '1'B;
      511    15662    2        LDCT$->LDCT.DEVNM='MONKEY';
      512    15663    2        LDCT$->LDCT.RESCOD=NK_CGDCB;
      513    15664    2        NK_MONKLDX=LDCT$->LDCT.LDCTX;
      514    15665    2        CALL NKL$GETDCT (LDCT$) ALTRET (SCNPP);
      515    15666    2        LDCT$->NK$LDCT.DFLG.LOCAL = '1'B;
      516    15667    2        LDCT$->LDCT.DEVNM='RESUS';
      517    15668    2        LDCT$->LDCT.RESCOD=NK_CGDCB;
      518    15669    2        NK_RESUSLDX_HLP=LDCT$->LDCT.LDCTX;
      519    15670    2        CALL NKL$GETDCT (LDCT$) ALTRET (SCNPP);
      520    15671    2        LDCT$->NK$LDCT.DFLG.LOCAL = '1'B;
      521    15672    2        LDCT$->LDCT.DEVNM='RESUS';
      522    15673    2        LDCT$->LDCT.RESCOD=NK_CGDCB;
      523    15674    2        NK_RESUSLDX=LDCT$->LDCT.LDCTX;
      524    15675    2        CALL NKL$GETDCT (LDCT$) ALTRET (SCNPP);
      525    15676    2        LDCT$->NK$LDCT.DFLG.LOCAL = '1'B;
      526    15677    2        LDCT$->LDCT.DEVNM='BABOON';
      527    15678    2        LDCT$->LDCT.RESCOD=NK_CGDCB;
      528    15679    2        NK_BABOONLDX=LDCT$->LDCT.LDCTX;
      529    15680    3        DO I=1 TO NK_MXLOCAL;
      530    15681    3             DCT$=N$DCT$(I);
      531    15682    4             IF DCT$~=ADDR(NIL) THEN DO;
      532    15683    5                  IF DCT$->NI$DCT.DFLG.CONSOLE OR DCT$->NI$DCT.DFLG.SYMBIONT THEN DO;
      533    15684    5                       DCT$->NI$DCT.DFLG.CM='1'B;
      534    15685    5                       CALL NKL$GETDCT (LDCT$) ALTRET (SCNPP);
      535    15686    5                       CALL NIQ$GET (Q$) ALTRET (SCNPP);
      536    15687    5                       LDCT$->LDCT.IOQ$=Q$;
      537    15688    5                       LDCT$->LDCT.DEVNM=DCT$->NI$DCT.DEVNM;
      538    15689    5                       LDCT$->LDCT.DFLG=DCT$->NI$DCT.DFLG&NK_CGF;
      539    15690    5                       LDCT$->LDCT.DFLG.LOCAL = '1'B;
      540    15691    5                       LDCT$->LDCT.RLCID.LDCTX=DCT$->NI$DCT.DCTX;
      541    15692    5                       Q$->N$REQ.NOALT='1'B;
      542    15693    5                       Q$->N$REQ.OPFLG=OP_EA|OP_BPF|OP_HOLD;
      543    15694    5                       Q$->N$REQ.DLA.DCTX=DCT$->NI$DCT.DCTX;
      544    15695    5                       Q$->N$REQ.EAINFOP$=LDCT$;
      545    15696    5                       RAT$=DCT$->NI$DCT.RAT$;
      546    15697    5                       CALL CHARBIN (WSNX,SUBSTR(DCT$->NI$DCT.DEVNM,4,4));
PL6.E3A0      #001=ITX$INITS File=ITX$INITS.:E05TSI                              TUE 07/29/97 23:10 Page:17
      547    15698    5                       WTNM=IT_WSN(WSNX);
      548    15699    5                       KL$PCD='0'B;
      549    15700    5                       KL$PCD.CGINFO=CINFO;
      550    15701    5                       KL$PCD.ADDD.ACTYP=%KLAC_NONE;
      551    15702    5                       KL$PCD.ADDD.ATYP=%KLAT_CG#;
      552    15703    5                       KL$PCD.ADDD.DEVNM=DCT$->NI$DCT.DEVNM;
      553    15704    5                       KL$PCD.CGINFO.WHO.ACCT = KL$PCD.ADDD.DEVNM;
      554    15705    5                       KL$PCD.ADDD.TNAME=WTNM;
      555    15706    5                       KL$PCD.ADDD.ASSOCTRM=IT_TXT_LOCAL;
      556    15707    5                       KL$PCD.ADDD.TWSN=KL$PCD.ADDD.DTW.TW;
      557    15708    5                       KL$PCD.ADDD.LDINFO.LDCTX=LDCT$->LDCT.LDCTX;
      558    15709    6                       IF LDCT$->LDCT.DFLG.CONSOLE THEN DO;
      559    15710    6                            KL$PCD.CGID=KC_OCID;
      560    15711    6                            KL$PCD.CGINFO.WIDTH=80;
      561    15712    6                            KL$PCD.CGINFO.FLG.INPUT='1'B;
      562    15713    6                            KL$PCD.CGINFO.FLG.OUTPUT='1'B;
      563    15714    6                            ADDR(KL$PCD.CGINFO.XTRAINFO)->OCI=DCT$->NI$DCT.SC.OCINFO$->
             15714                                     OCI;
      564    15715    6                            KL$PCD.CGINFO.NWINFO=SIZEW(OCI)+((ADDR(KL$PCD.CGINFO.
             15715                                     XTRAINFO)->OCI.CMDCNT+3)/4)-SIZEW(OCI.CMD);
      565    15716    6                            Q$->N$REQ.EAENTRY=ENTADDR(KCL$WRTEA);
      566    15717    6                            IF DCT$->NI$DCT.STATUS.DOWN='0'B THEN CALL NIO$SPINTCON (
             15717                                     DCT$->NI$DCT.DCTX,ENTADDR(KCL$OCINT),LDCT$);
      567    15718                            /* If we have not saved a hog entry yet save this one */
      568    15719    6                            IF I = B_SCDCTX
      569    15720    7                            THEN DO;
      570    15721    7                                 KC_HOG$ = LDCT$;
      571    15722    7                                 KC_HOG_INFO = KL$PCD.CGINFO;
      572    15723    7                               END;
      573    15724    6                          END;
      574    15725    6                       ELSE DO;
      575    15726    6                            LDCT$->LDCT.RAT$=RAT$;
      576    15727    6                            RAT$->FR$RAT.RES.RFLG.NOSLD='1'B;
      577    15728    6                            RAT$->FR$RAT.RES.SISID=1;
      578    15729    6                            RAT$->FR$RAT.FLG.SYMBIONT='1'B;
      579    15730    7                            IF DCT$->NI$DCT.DFLG.OUTPUT THEN DO;
      580    15731    7                                 KL$PCD.CGID=KC_OSID;
PL6.E3A0      #001=ITX$INITS File=ITX$INITS.:E05TSI                              TUE 07/29/97 23:10 Page:18
      581    15732    7                                 KL$PCD.CGINFO.WIDTH=132;
      582    15733    7                                 KL$PCD.CGINFO.FLG.OUTPUT='1'B;
      583    15734    7                                 KL$PCD.CGINFO.ATTR=RAT$->FR$RAT.M1;
      584    15735    7                                 ADDR(KL$PCD.CGINFO.XTRAINFO)->OSI.UPLOCKED='1'B;
      585    15736    7                                 ADDR(KL$PCD.CGINFO.XTRAINFO)->OSI.FNAME=RAT$->FR$RAT.
             15736                                          REEL.SER;
      586    15737    7                                 ADDR(KL$PCD.CGINFO.XTRAINFO)->OSI.TNAME=WTNM;
      587    15738    7                                 KL$PCD.CGINFO.NWINFO=SIZEW(OSI);
      588    15739    7                                 Q$->N$REQ.EAENTRY=ENTADDR(KCL$WRTEA);
      589    15740    7                               END;
      590    15741    7                            ELSE DO;
      591    15742    7                                 KL$PCD.CGID=KC_ISID;
      592    15743    7                                 KL$PCD.CGINFO.FLG.INPUT='1'B;
      593    15744    7                                 KL$PCD.CGINFO.ATTR=RAT$->FR$RAT.M1;
      594    15745    7                                 ADDR(KL$PCD.CGINFO.XTRAINFO)->ISI.NCTLOK='1'B;
      595    15746    7                                 ADDR(KL$PCD.CGINFO.XTRAINFO)->ISI.MXPRI=511;
      596    15747    7                                 ADDR(KL$PCD.CGINFO.XTRAINFO)->ISI.DFLTPRI=511;
      597    15748    7                                 ADDR(KL$PCD.CGINFO.XTRAINFO)->ISI.NCACCT=':NCTL';
      598    15749    7                                 ADDR(KL$PCD.CGINFO.XTRAINFO)->ISI.TNAME=WTNM;
      599    15750    7                                 ADDR(KL$PCD.CGINFO.XTRAINFO)->ISI.WSN=WTNM;
      600    15751    7                                 KL$PCD.CGINFO.NWINFO=SIZEW(ISI);
      601    15752    7                                 Q$->N$REQ.EAENTRY=ENTADDR(KCL$RDEA);
      602    15753    7                                 Q$->N$REQ.FC=%N_READ;
      603    15754    7                                 IF DCT$->NI$DCT.STATUS.DOWN='0'B THEN CALL
             15754                                          NIO$SPINTCON (DCT$->NI$DCT.DCTX,ENTADDR(KCL$ININT)
             15754                                          ,LDCT$);
      604    15755    7                               END;
      605    15756    6                          END;
      606    15757    5                       LDCT$->LDCT.LNK$=KC_NOCG$;
      607    15758    5                       KC_NOCG$=LDCT$;
      608    15759    6                       IF DCT$->NI$DCT.STATUS.DOWN THEN DO;
      609    15760    6                            LDCT$->LDCT.RESCOD=NK_PART;
      610    15761    6                            DCT$->NI$DCT.DFLG.CM='0'B;
      611    15762    6                          END;
      612    15763    5                       ELSE LDCT$->LDCT.RESCOD=NK_NOCG;
      613    15764    5                       WSNX=SIZEW(KL$PCD)+KL$PCD.CGINFO.NWINFO-SIZEW(KL$PCD.CGINFO.
             15764                                XTRAINFO);
PL6.E3A0      #001=ITX$INITS File=ITX$INITS.:E05TSI                              TUE 07/29/97 23:10 Page:19
      614    15765    5                       CALL ELA$SYSLOG (EL_CONN,KL$PCD,WSNX,'0'B,2,Q$) ALTRET (SCNPP);
      615    15766    5                     END;
      616    15767    4                END;
      617    15768    3           END;
      618    15769    2        RETURN;
      619    15770        /**/
      620    15771    2   SCNPP: ;
      621    15772    2        CALL SC_NLCLPP;
      622    15773        /*S*  SCREECH_CODE:  KCL-S$NLCLPP
      623    15774              TYPE:          Screech
      624    15775              MESSAGE:       Cant get physical page for local device comgroup LDCTs
      625    15776              REMARKS:       During initialization, LDCT entries are obtained for
      626    15777                             local consoles and symbiont devices to represent them
      627    15778                             on comgroups.  This screech occurs if these LDCTs
      628    15779                             cannot be obtained.  The only reason for this is
      629    15780                             that no memory is available, thus suspect an MM bug.
      630    15781                             It may be possible to give TIGR a number small enough
      631    15782                             to cause this screech.                                  */
      632    15783    2   END CGINIT;
      633    15784        /**/
      634    15785    1   RESINIT: PROC ALTRET;
      635    15786        /**/
      636    15787    2   GTTPE: ;
      637    15788    3   GTT: DO I = 0 TO NI_IOMS-1;
      638    15789    3             IF NI$IOM$(I) ~= ADDR(NIL) THEN IF NI$IOM$(I)->NI$IOM.ADDRESS
      639    15790    3                       = FM_POTAPE.PORT THEN
      640    15791    3                       GOTO GOTIOM;
      641    15792    3           END;
      642    15793    2        GOTO RTN;
      643    15794    2   GOTIOM: IF NI$CHT$->NI$CHT.DQH$(I*%N_MAXCHANS+FM_POTAPE.CHN) = ADDR(NIL) THEN
      644    15795    2             GOTO RTN;
      645    15796    2        SQH$=NI$CHT$->NI$CHT.DQH$(I*%N_MAXCHANS+FM_POTAPE.CHN)->NI$DQH.SQH$;
      646    15797    3        DO I = SQH$->NI$SQH.FDCT TO SQH$->NI$SQH.FDCT+SQH$->NI$SQH.NDCT-1;
      647    15798    3             IF N$DCT$(I)->NI$DCT.DVN = FM_POTAPE.DVN AND N$DCT$(I)->NI$DCT.TYPE = %
             15798                      DV_MT THEN
      648    15799    3                  GOTO GTIT;
      649    15800    3           END;
PL6.E3A0      #001=ITX$INITS File=ITX$INITS.:E05TSI                              TUE 07/29/97 23:10 Page:20
      650    15801    2   RTN: ;
      651    15802    2        RETURN;
      652    15803    2   GTIT: CALL FRZ$GETRES ('MT',N$DCT$(I)->NI$DCT.RAT$->FR$RAT.M1,
      653    15804    2             JG_SLUG#,%M_GHOST#,RAT$) ALTRET (RTN);
      654    15805    2        RAT$->FR$RAT.RES.NUMB='01';
      655    15806    2        RAT$=N$DCT$(I)->NK$LDCT.RAT$;
      656    15807    2        RAT$->FR$RAT.REEL.SER='CP6PO1';
      657    15808    2        RAT$->FR$RAT.FLG.RUP='1'B;
      658    15809    2        DDT$=N$DCT$(I)->NK$LDCT.DDT$;
      659    15810    2        DDT$->FT$DDT.ANST='1'B;
      660    15811    2        DDT$->FT$DDT.POS = FTP_HDR#;
      661    15812    2        CALL NIQ$GET(Q$);
      662    15813    2        Q$->N$REQ.DLA.DCTX=I;
      663    15814    2        Q$->N$REQ.OPFLG.HOLD='1'B;
      664    15815    2        Q$->N$REQ.FC=%N_SPFILE;
      665    15816    2        Q$->N$REQ.RCT=1;
      666    15817    2        CALL NIO$QUE(Q$->N$REQ);
      667    15818    2        CALL NIO$IOSPIN(Q$->N$REQ);
      668    15819    2        CALL NIQ$REL(Q$);
      669    15820    2        ALTRETURN;
      670    15821        /**/
      671    15822    2   END;
      672    15823        /**/
      673    15824    1   AVRINIT: PROC(DCTX) ALTRET;
      674    15825        /**/
      675    15826    2   DCL DCTX UBIN(18) UNAL;                 /* DCT index of drive                 */
      676    15827    2   DCL XDCT UBIN(15) AUTO;
      677    15828    2        XDCT=DCTX;
      678    15829    2        CALL NIO$SPINTCON(XDCT,ENTADDR(FRL$AVR),0) ALTRET(JUSTALT);
      679    15830    2        RETURN;
      680    15831    2   JUSTALT: ALTRETURN;
      681    15832    2   END;
      682    15833        /**/
      683    15834    1   PMINIT: PROC;
      684    15835        /**/
      685    15836    2        CALL SSS$CURTIME (P_STARTUP);      /* Record system-startup time         */
      686    15837                                                /**/
PL6.E3A0      #001=ITX$INITS File=ITX$INITS.:E05TSI                              TUE 07/29/97 23:10 Page:21
      687    15838    2        CALL SSC$MONTIMR (6000, ENTADDR(PMC$COLLECT), 0); /* once-a-minute dude */
      688    15839                                                /**/
      689    15840    2        P_DCTXMAX = NK_MXLOCAL + 1;        /* Calc. # of entries in table        */
      690    15841                                                /**/
      691    15842    3        DO I = 0 TO NK_MXLOCAL;            /* Initialize DCT-table PM stuff      */
      692    15843                                                /**/
      693    15844    3             P$ = N$DCT$$->N$DCT$(I);
      694    15845                                                /**/
      695    15846    3             IF P$ ~= ADDR(NIL)
      696    15847    4             THEN DO;
      697    15848                                                /**/
      698    15849    4                  CALL PMN$COLLECT (P$->NI$DCT.PM, 0);
      699    15850    4                  P$->NI$DCT.PM.CONNCT = 0;
      700    15851    4                  P$->NI$DCT.PM.ELAPSED_TIME = '0'B;
      701    15852    4                  IF P$->NI$DCT.PMD$ ~= ADDR(NIL)
      702    15853    4                  THEN P$->NI$DCT.PMD$->P$IODATA = P$->NI$DCT.PM;
      703    15854                                                /**/
      704    15855    4                END;
      705    15856                                                /**/
      706    15857    3           END;
      707    15858                                                /**/
      708    15859    3        DO I = 0 TO NI_IOMS - 1 ;          /* Initialize channel-table PM stuff  */
      709    15860    4             DO J = 3 TO NI_CHANS(I) ;
      710    15861                                                /**/
      711    15862    4                  IF ( J >= 8 )       OR
      712    15863    4                       ( HW_IMX AND J = 3 ) OR
      713    15864    5                       ( HW_IOP AND J = 4 ) THEN DO ;
      714    15865                                                /**/
      715    15866    5                       P$ = NI$CHT$->NI$CHT.DQH$(I*%N_MAXCHANS+J);
      716    15867    6                       IF (P$ ~= ADDR(NIL)) THEN DO ;
      717    15868    6                            CALL PMN$COLLECT (P$->NI$DQH.PM, 0);
      718    15869    6                            P$->NI$DQH.PM.CONNCT = 0;
      719    15870    6                            P$->NI$DQH.PM.ELAPSED_TIME = '0'B;
      720    15871    6                          END;
      721    15872    5                     END ;
      722    15873    4                END ;
      723    15874    3           END ;
PL6.E3A0      #001=ITX$INITS File=ITX$INITS.:E05TSI                              TUE 07/29/97 23:10 Page:22
      724    15875                                                /**/
      725    15876    2        RETURN;
      726    15877    2   END;
      727    15878        /**/
      728    15879    1   OPCINIT: PROC ALTRET;
      729    15880    2   DCL S CHAR(4);
      730    15881    2   DCL R$ PTR;
      731    15882    2        P$=FP_OPCI$$;
      732    15883    3        DO WHILE (P$ ~= ADDR(NIL));
      733    15884    3             CALL NKL$GETDCT (LDCT$) ALTRET(SCNPP);
      734    15885    3             P$->FP$OPCI.LDCTX = LDCT$->NK$LDCT.LDCTX;
      735    15886    3             CALL BINCHAR (S,P$->FP$OPCI.FEI#);
      736    15887    3             CALL CONCAT (LDCT$->NK$LDCT.DEVNM,'OPCA',S);
      737    15888    3             LDCT$->NK$LDCT.RESCOD = NK_OPCTL;
      738    15889    3             LDCT$->NK$LDCT.RLCID = '0'B;
      739    15890    3             LDCT$->NK$LDCT.RLCID.NODE =
      740    15891    3                  KI$FEI$(P$->FP$OPCI.FEI#)->KI$FEI.FEP#;
      741    15892    3             LDCT$->NK$LDCT.DFLG.INPUT = '1'B;
      742    15893    3             LDCT$->NK$LDCT.DFLG.OUTPUT = '1'B;
      743    15894    3             LDCT$->NK$LDCT.DFLG.CM='1'B;
      744    15895    3             LDCT$->NK$LDCT.LKFLG.ACTIVE='1'B;
      745    15896    3             LDCT$->NK$LDCT.LKFLG.QDPPATH = '1'B;
      746    15897    3             LDCT$->NK$LDCT.LKFLG.OBLK = '0'B;
      747    15898    3             R$ = FR$HD$(FR_NPOOL);
      748    15899    4             DO WHILE (R$ ~= ADDR(NIL));
      749    15900    4                  IF (R$->FR$RAT.TYP = 'OD' AND
      750    15901    4                       N$DCT$(R$->FR$RAT.DCTX)->NI$DCT.DQH$->NI$DQH.FEX =
      751    15902    5                       P$->FP$OPCI.FEI#) THEN DO;
      752    15903    5                       N$DCT$(R$->FR$RAT.DCTX)->NI$DCT.OD.LDCT$ = LDCT$;
      753    15904    5                       N$DCT$(R$->FR$RAT.DCTX)->NI$DCT.OD.FEI$ =
      754    15905    5                            KI$FEI$(P$->FP$OPCI.FEI#);
      755    15906    5                       N$DCT$(R$->FR$RAT.DCTX)->NI$DCT.OD.OPCI$ = P$;
      756    15907    5                     END;
      757    15908    4                  R$ = R$->FR$RAT.LNK$;
      758    15909    4                END;
      759    15910    3             P$ = P$->FP$OPCI.LNK$;
      760    15911    3           END;
PL6.E3A0      #001=ITX$INITS File=ITX$INITS.:E05TSI                              TUE 07/29/97 23:10 Page:23
      761    15912    2        RETURN;
      762    15913    2   SCNPP: ALTRETURN;
      763    15914    2   END;
      764    15915    1   END;

PL6.E3A0      #001=ITX$INITS File=ITX$INITS.:E05TSI                              TUE 07/29/97 23:10 Page:24
--  Include file information  --

   FP_MACRO_C.:E05TOU  is referenced.
   TM_DATA_R.:E05TOU  cannot be made into a system file and is referenced.
   TM_DATA_M.:E05TOU  is referenced.
   EL_SUBS_C.:E05TOU  is referenced.
   FT_SUBS.:E05TOU  is referenced.
   I_SUBS_C.:E05TOU  is referenced.
   FR_SUBS.:E05TOU  is referenced.
   NK_SUBS.:E05TOU  is referenced.
   KI_SUBS_C.:E05TOU  is referenced.
   KL_SUPER_C.:E05TOU  is referenced.
   KL_SUBS_C.:E05TOU  is referenced.
   FI_MAC_C.:E05TOU  is referenced.
   FOO_MAC_C.:E05TOU  is referenced.
   OC$INFO.:E05TOU  is referenced.
   KC_CP6.:E05TOU  is referenced.
   KC$CGBLK.:E05TOU  is referenced.
   KC_DATA_R.:E05TOU  cannot be made into a system file and is referenced.
   UM_CP6.:E05TOU  is referenced.
   JG_GHOSTS_C.:E05TOU  is referenced.
   FT$DDT.:E05TOU  cannot be made into a system file and is referenced.
   B$JIT_C.:E05TOU  is referenced.
   OC_DATA_R.:E05TOU  cannot be made into a system file and is referenced.
   N_FC_C.:E05TOU  is referenced.
   FM$MACROS.:E05TOU  is referenced.
   FR_DATA_R.:E05TOU  cannot be made into a system file and is referenced.
   FR$RAT.:E05TOU  is referenced.
   NI_DATA_C.:E05TOU  is referenced.
   NI$TABLES.:E05TOU  is referenced.
   N$REQ.:E05TOU  is referenced.
   NI_DATA_R.:E05TOU  cannot be made into a system file and is referenced.
   P_PMDAT_C.:E05TOU  is referenced.
   P_PMDAT_R.:E05TOU  cannot be made into a system file and is referenced.
   M_INFO_C.:E05TOU  is referenced.
   B_STRINGS_C.:E05TOU  is referenced.
   HF_DATA_R.:E05TOU  cannot be made into a system file and is referenced.
PL6.E3A0      #001=ITX$INITS File=ITX$INITS.:E05TSI                              TUE 07/29/97 23:10 Page:25
   S_WSPTD_R.:E05TOU  cannot be made into a system file and is referenced.
   S$WSPTD.:E05TOU  cannot be made into a system file and is referenced.
   KL_MACRO_C.:E05TOU  is referenced.
   NK$LDCT.:E05TOU  is referenced.
   KI$QHDR.:E05TOU  cannot be made into a system file and is referenced.
   K$RWPARM.:E05TOU  is referenced.
   K_DATA_R.:E05TOU  cannot be made into a system file and is referenced.
   KI_MACROS_C.:E05TOU  is referenced.
   KI_DATA_R.:E05TOU  cannot be made into a system file and is referenced.
   B$P.:E05TOU  cannot be made into a system file and is referenced.
   B$MAP.:E05TOU  cannot be made into a system file and is referenced.
   CP_6_SUBS.:E05TOU  is referenced.
      No diagnostics issued in procedure ITX$INITS.

   Procedure ITX$INITS requires 1657 words for executable code.
   Procedure ITX$INITS requires 110 words of local(AUTO) storage.

    No errors detected in file ITX$INITS.:E05TSI    .

PL6.E3A0      #001=ITX$INITS File=ITX$INITS.:E05TSI                              TUE 07/29/97 23:10 Page:26

 Object Unit name= ITX$INITS                                  File name= ITX$INITS.:E05TOU
 UTS= JUL 29 '97 23:10:05.08 TUE                              Compiler= PL-6/E31         Sev=      00
 SharedLib= :SHARED_SYSTEM                                    Alt SharedLib=


    ****  Control sections  ****

 Sect   Type Bound  Init  Size OctSiz  Section name(segment info)
    0  RoData even  UTS     74    112  ITX$INITS
    1   Proc  even  none  1657   3171  ITX$INITS
    2  RoData even  none    52     64  ITX$INITS

    ****  Entry defs  ****

                              Check   Calling
                             calling  sequence
  Sect OctLoc Primary Altret sequence   type   Parms  Name
     1      0   yes            yes      Std        0  ITX$INITS
     1   1123                  yes      Std        0  ITX$INITS2
PL6.E3A0      #001=ITX$INITS File=ITX$INITS.:E05TSI                              TUE 07/29/97 23:10 Page:27

  ****  Entry refs  ****

         Check        Calling
        calling       sequence
Altret sequence SRef   type   Args  Name
 yes     yes           Std       2 MMB$GNPP
 yes     yes           Std       4 MME$CVM
 yes     yes           Std       2 UMT$IDT
 yes     yes           Std       2 NIM$WRENBL
 yes     yes           Std       3 UMT$LCLDATE
 yes     yes           Std       0 UQC$INIT
 yes     yes           Std       0 ITK$TMA$UP
         yes           Std       3 SSC$MONTIMR
 yes     yes           Std       0 FMS$GARBCOL
         yes           Std       2 FMN$AVR
 yes     yes           Std       3 ITK$TMB$BUF_ALLOC
 yes     yes           Std       1 NIQ$GET
         yes           Std       2 NIK$KIPND
 yes     yes           Std       2 NIM$WRDSBL
         yes           Std       1 KIQ$QINIT
 yes     yes           Std       3 NIO$SPINTCON
 yes     yes           Std       6 ELA$SYSLOG
         yes           Std       2 FMR$M8
 yes     yes           Std       3 ITK$TMB$MCA
 yes     yes           Std       3 MMQ$INIT
         yes           Std       1 KCC$CLOCK
 yes     yes           Std       3 MMS$GETCQ
         yes           Std       3 NIS$DCCON
         yes           Std       1 KIQ$TMLP
 yes     yes           Std       2 ITK$TMB$BUF_DEALLOC
 yes     yes           Std       1 NIQ$GETS
         yes           Std       1 SSS$SETBTIME
         yes           Std       3 SSS$FEPERA
 yes     yes           Std       5 MMS$WSQINIT
 yes     yes           Std       1 NIO$QUE
 yes     yes           Std       1 NIQ$REL
         yes           Std       1 NIO$IOSPIN
PL6.E3A0      #001=ITX$INITS File=ITX$INITS.:E05TSI                              TUE 07/29/97 23:10 Page:28
 yes     yes           Std       1 NKL$GETDCT
         yes           Std       1 KCL$WRTEA
         yes           Std       1 KCL$RDEA
         yes           Std       3 KCL$OCINT
         yes           Std       3 KCL$ININT
 yes     yes           Std       5 FRZ$GETRES
 yes     yes           Std       3 FRL$AVR
         yes           Std       1 SSS$CURTIME
         yes           Std       0 PMC$COLLECT
         yes           Std       2 PMN$COLLECT
                       Std       0 B_CONSPOOL_D
                       nStd      0 X66_AUTO_0
                       nStd      0 X66_ARET

  ****  Data refs  ****

  Flags:  r = read only, s = secondary
Flgs Name                             Flgs Name                             Flgs Name
     SC_NCOMPP                             SC_NLCLPP                             P_NPROCS
     B$P$                                  KI_FEI$$                              KI_MXFE
     K_NODE#                               S_WSPTD                               HW_PTB_UNITS
     HW_WSQ0PT                             HW_TIME_LEGAL                         HW_IOP
     HW_IMX                                P_RESOURCE$                           P_STARTUP
     P_UPTIME                              P_DCTXMAX                             P_NSCPU
     N$DCT$$                               N$FQ$                                 NI$CHT$
     NI$DVT$                               NI$FQ$                                NI$IBUF$
     NI$IOM$                               NI$RP$                                NI_CHANS
     NI_IOMS                               FR$HD$                                B_SCDCTX
     KC_NOCG$                              IT_INTL66                             B_SITEINFO
     B_MONINFO                             B_MONPTRS                             KC_OSID
     KC_ISID                               KC_OCID                               KC_HOG_INFO
     KC_HOG$                               TM_MCA_DO_TIME                        IT_DATE
     IT_TIME                               IT_UTS                                IT_TXT_LOCAL
     FM_POTAPE                             NK_MONKLDX                            NK_RESUSLDX
     NK_RESUSLDX_HLP                       NK_BABOONLDX                          NK_MXLOCAL
     IT_BOOTFLAG                           IT_WSN                                IT_CLOCKOK
     IT_SYSDISK                            IT_SCPUWSPTD                          MM_FPMC
PL6.E3A0      #001=ITX$INITS File=ITX$INITS.:E05TSI                              TUE 07/29/97 23:10 Page:29
     B$WINDOW$                             B$WSQ0PT$                             B_MUAIS
     FM$SET$                               F$CFU$                                FM_SRZERO
     FOS_WSQ                               FOM_WSQ                               B$USRT$
     S_NSCPU                               S_BOOTERA                             S_BOOTQUARTER
     FP_OPCI$$                             B_VECTNIL

  ****  Segment refs  ****

  Flags:  r = read only, s = secondary
Flgs Name                             Flgs Name                             Flgs Name
     ASLENTSID                             ISSID
PL6.E3A0      #001=ITX$INITS File=ITX$INITS.:E05TSI                              TUE 07/29/97 23:10 Page:30


        1        1        /*M* ITX$INITS TIGR initialization of FEPs, COMGROUPs, files, and AVR */
        2        2        /*T***********************************************************/
        3        3        /*T*                                                         */
        4        4        /*T* Copyright (c) Bull HN Information Systems Inc., 1997    */
        5        5        /*T*                                                         */
        6        6        /*T***********************************************************/
        7        7        /*X* DMR,PLM=5,IND=5,CTI=5,SDI=5,MCL=10,CSI=0,ECI=0 */
        8        8        ITX$INITS: PROC;

      8  1 000000   000000 700200 xent  ITX$INITS    TSX0  ! X66_AUTO_0
         1 000001   000156 000000                    ZERO    110,0

        9        9        /**/
       10       10        %INCLUDE CP_6_SUBS;
       11      550        %INCLUDE B$MAP;
       12      649        %INCLUDE B$P;
       13      733        %INCLUDE KI_DATA_R;
       14      759        %INCLUDE KI_MACROS_C;
       15     1367        %INCLUDE K_DATA_R;
       16     2078        %INCLUDE KI$QHDR;
       17     2230        %INCLUDE NK$LDCT;
       18     2332        %INCLUDE KL_MACRO_C;
       19     5684        %INCLUDE S$WSPTD;
       20     5693        %INCLUDE S_WSPTD_R;
       21     5709        %INCLUDE HF_DATA_R;
       22     5752        %INCLUDE B_STRINGS_C;
       23     5881        %INCLUDE M_INFO_C;
       24     6021        %INCLUDE P_PMDAT_R;
       25     6329        %INCLUDE NI_DATA_R;
       26     6766        %INCLUDE NI_DATA_C;
       27     6879        %INCLUDE FR$RAT;
       28     6932        /**/
       29     6933        %INCLUDE FR_DATA_R;
       30     6965        %INCLUDE FM$MACROS;
       31     7340        %INCLUDE N_FC_C;
       32     7377        %INCLUDE OC_DATA_R;
PL6.E3A0      #001=ITX$INITS File=ITX$INITS.:E05TSI                              TUE 07/29/97 23:10 Page:31
       33     7386        %INCLUDE B$JIT_C;
       34     7700        %INCLUDE FT$DDT;
       35     7761        %INCLUDE JG_GHOSTS_C;
       36     7851        %INCLUDE UM_CP6;
       37     8703        /**/
       38     8704        %INCLUDE KC_DATA_R;
       39     8717        %INCLUDE KC$CGBLK;
       40     8765        %INCLUDE KC_CP6;
       41     9325        %INCLUDE OC$INFO;
       42     9381        %INCLUDE FOO_MAC_C;
       43    10129        %INCLUDE FI_MAC_C;
       44    10499        %INCLUDE KL_SUBS_C;
       45    10553        %INCLUDE KL_SUPER_C;
       46    13455        %INCLUDE KI_SUBS_C;
       47    13591        %KI$FEI (STCLASS="BASED(FEI$)");
       48    13675        %NK$LDCT;
       49    13721        %KI_CCMD (NAME=IT_INTL66,STCLASS=SYMREF);
       50    13749        %FR$RAT;
       51    13789        %NI$DCT;
       52    13837        %NI$CHT;
       53    13840        %NI$DQH;
       54    13863        %NI$SQH;
       55    13876        %NI$IOM;
       56    13881        %N$REQ (NAME=N$REQ);
       57    13939        %NI$DVT;
       58    13946        %FM$DEV(BASED="BASED(FM$SET$)");
       59    13952        %FM$CFUX;
       60    13957        %B$JIT0 (STCLASS=BASED);
       61    14046        %A$JIT6X;
       62    14049        %VLR_SITEINFO (FPTN=B_SITEINFO,STCLASS=SYMREF);
       63    14068        %VLR_MONINFO (FPTN=B_MONINFO,STCLASS=SYMREF);
       64    14086        %VLR_MONPTRS (FPTN=B_MONPTRS,STCLASS=SYMREF);
       65    14101        %KC$CGID (FPTN=KC_OSID,STCLASS=SYMREF);
       66    14127        %KC$CGID (FPTN=KC_ISID,STCLASS=SYMREF);
       67    14153        %KC$CGID (FPTN=KC_OCID,STCLASS=SYMREF);
       68    14179        %B$CGAUCI (FPTN=KC_HOG_INFO,STCLASS=SYMREF,LAST=",");
       69    14201        %OC$INFO (LVL=2,STCLASS=SYMREF);
PL6.E3A0      #001=ITX$INITS File=ITX$INITS.:E05TSI                              TUE 07/29/97 23:10 Page:32
       70    14238    1   DCL KC_HOG$ PTR SYMREF;
       71    14239        %B$CGAUCI (FPTN=CINFO,STCLASS=CONSTANT,LAST=",",INFOSZ=13,NM='*',AC='LOCAL');
       72    14261    1            2 * (0:12) UBIN WORD INIT(0*0);
       73    14262        %FI_CONINFO (FPTN=ISI,STCLASS=BASED);
       74    14306        %FO_CONINFO (FPTN=OSI,STCLASS=BASED);
       75    14337        %OC$INFO (FPTN=OCI,STCLASS=BASED);
       76    14374        %KL_PCD (FPTN=KL$PCD,CG=1,STCLASS=AUTO);
       77    14539        /**/
       78    14540        %INCLUDE NK_SUBS;
       79    14565        %INCLUDE FR_SUBS;
       80    14633        %INCLUDE I_SUBS_C;
       81    14657        %INCLUDE FT_SUBS;
       82    14737        %INCLUDE EL_SUBS_C;
       83    14821        %INCLUDE TM_DATA_M;
       84    14923        %INCLUDE TM_DATA_R;
       85    14932        %INCLUDE FP_MACRO_C;
       86    15204        %FP$OPCI (STCLASS=BASED);
       87    15214        /**/
       88    15215    1   DCL FEI SBIN(36);
       89    15216    1   DCL FEI$ PTR;
       90    15217    1   DCL SZ SBIN;
       91    15218    1   DCL CWSQ SBIN(36);
       92    15219    1   DCL J SBIN;
       93    15220    1   DCL I SBIN WORD;
       94    15221    1   DCL 1 IU REDEF I,
       95    15222    1            2 * UBIN(21) UNAL,
       96    15223    1            2 DCTX UBIN(15) UNAL;
       97    15224    1   DCL DCTX UBIN(15);
       98    15225    1   DCL STATUS UBIN;
       99    15226    1   DCL DATETYC BIT(36);
      100    15227    1   DCL NUM SBIN;
      101    15228    1   DCL LDX SBIN(36);
      102    15229        /**/
      103    15230    1   DCL PPNO SBIN;
      104    15231    1   DCL 1 NUMSP,
      105    15232    1            2 CP UBIN,
      106    15233    1            2 DB UBIN,
PL6.E3A0      #001=ITX$INITS File=ITX$INITS.:E05TSI                              TUE 07/29/97 23:10 Page:33
      107    15234    1            2 ASL UBIN;
      108    15235    1   DCL 1 NUMPROCS REDEF NUMSP,
      109    15236    1            2 NUM(0:2) UBIN;
      110    15237    1   DCL P$ PTR;
      111    15238    1   DCL Q$ PTR;
      112    15239    1   DCL LDCT$ PTR;
      113    15240    1   DCL DCT$ PTR;
      114    15241    1   DCL RAT$ PTR;
      115    15242    1   DCL WSNX SBIN WORD;
      116    15243    1   DCL WTNM CHAR(8);
      117    15244    1   DCL DDT$ PTR;
      118    15245    1   DCL SQH$ PTR;
      119    15246    1   DCL DQH$ PTR;
      120    15247    1   DCL BUF$ PTR;
      121    15248    1   DCL BUFX SBIN;
      122    15249    1   DCL 1 TEMP_FEP_ERA,
      123    15250    1            2 ERA UBIN(6) UNAL,
      124    15251    1            2 FUTS UBIN(30) UNAL;
      125    15252    1   DCL UTS_B UBIN BASED;
      126    15253    1   DCL B$CHAR8 CHAR(8) BASED;
      127    15254    1   DCL B$CHAR5 CHAR(5) BASED;
      128    15255        /**/
      129    15256        %MACRO MSG (NAME=MSG,TXT='');
      130    15257        DCL 1 NAME CONSTANT,
      131    15258                 2 * UBIN(36) INIT(SIZEC(NAME.CHR)),
      132    15259                 2 * BIT(18) INIT('015012'O) UNAL,
      133    15260                 2 CHR CHAR(0) INIT(TXT) UNAL,
      134    15261                 2 * UBIN(36) INIT(0) UNAL;
      135    15262        %MEND;
      136    15263        %MSG (NAME=NOPOMSG,TXT="'Can''t find PO tape in DCT tables, tape not mounted'");
      137    15270        %MSG (NAME=DTMSG,TXT="'Date (MM/DD/YY) '");
      138    15277        %MSG (NAME=TMMSG,TXT="'Time (HH:MM) '");
      139    15284        %MSG (NAME=CURMSG,TXT="'Current time is MM/DD/YY HH:SS'");
      140    15291        /**/
      141    15292    1   DCL IT_DATE CHAR(8) SYMREF;
      142    15293    1   DCL IT_TIME CHAR(5) SYMREF;
      143    15294    1   DCL IT_UTS UBIN WORD SYMREF;
PL6.E3A0      #001=ITX$INITS File=ITX$INITS.:E05TSI                              TUE 07/29/97 23:10 Page:34
      144    15295    1   DCL IT_TXT_LOCAL CHAR(5) SYMREF;
      145    15296        /**/
      146    15297    1   DCL 1 FM_POTAPE SYMREF,                 /* THIS FORM MAKES IT EASY FOR BOOT   */
      147    15298    1            2 PORT UBIN(9) UNAL,           /* N.B IF YOU CHANGE THIS */
      148    15299    1            2 CHN UBIN(9) UNAL,            /* CHANGE TIGRCUB.X TOO */
      149    15300    1            2 DVN UBIN(9) UNAL,
      150    15301    1            2 * UBIN(9) UNAL;
      151    15302    1   DCL FR_TIFLG SBIN SYMREF;
      152    15303        /**/
      153    15304    1   DCL NK_MONKLDX UBIN WORD SYMREF;
      154    15305    1   DCL NK_RESUSLDX UBIN WORD SYMREF;
      155    15306    1   DCL NK_RESUSLDX_HLP UBIN WORD SYMREF;
      156    15307    1   DCL NK_BABOONLDX UBIN WORD SYMREF;
      157    15308    1   DCL NK_MXLOCAL UBIN(36) SYMREF;
      158    15309    1   DCL IT_BOOTFLAG UBIN WORD SYMREF;
      159    15310    1   DCL IT_WSN (0:0) CHAR(8) SYMREF;
      160    15311    1   DCL IT_CP6UP UBIN WORD SYMREF;
      161    15312    1   DCL IT_CLOCKOK BIT(1) ALIGNED SYMREF;
      162    15313    1   DCL IT_SYSDISK UBIN SYMREF;
      163    15314    1   DCL IT_SCPUWSPTD(0:7) UBIN SYMREF;
      164    15315    1   DCL MM_FPMC BIT(36) SYMREF;
      165    15316    1   DCL B$WINDOW$ PTR SYMREF;
      166    15317    1   DCL B$WSQ0PT$ PTR SYMREF;
      167    15318    1   DCL B_MUAIS UBIN WORD SYMREF;
      168    15319    1   DCL FM$SET$ PTR SYMREF;
      169    15320    1   DCL F$CFU$ PTR SYMREF;
      170    15321    1   DCL FM_SRZERO UBIN SYMREF;
      171    15322    1   DCL FOS_WSQ UBIN WORD SYMREF;
      172    15323    1   DCL FOM_WSQ UBIN WORD SYMREF;
      173    15324    1   DCL B$USRT$ PTR SYMREF;
      174    15325    1   DCL S_NSCPU UBIN SYMREF;
      175    15326    1   DCL S_BOOTERA UBIN WORD SYMREF;
      176    15327    1   DCL S_BOOTQUARTER UBIN WORD SYMREF;
      177    15328    1   DCL FP_OPCI$$ PTR SYMREF;
      178    15329        /**/
      179    15330    1   DCL NKL$GETDCT ENTRY(1) ALTRET;
      180    15331    1   DCL KIQ$TMLP ENTRY(1);
PL6.E3A0      #001=ITX$INITS File=ITX$INITS.:E05TSI                              TUE 07/29/97 23:10 Page:35
      181    15332    1   DCL MMS$WSQINIT ENTRY(5) ALTRET;
      182    15333    1   DCL MMB$GPP ENTRY(2) ALTRET;
      183    15334    1   DCL MMB$GNPP ENTRY(2) ALTRET;
      184    15335    1   DCL NIM$WRENBL ENTRY(2) ALTRET;
      185    15336    1   DCL NIM$WRDSBL ENTRY(2) ALTRET;
      186    15337    1   DCL MME$CVM ENTRY(4) ALTRET;
      187    15338    1   DCL MMS$WSQSETUP ENTRY(1) ALTRET;
      188    15339    1   DCL MMS$WSQMAP ENTRY(1) ALTRET;
      189    15340    1   DCL MMQ$INIT ENTRY(3) ALTRET;
      190    15341    1   DCL KCC$CLOCK ENTRY(1);
      191    15342    1   DCL MMS$GETCQ ENTRY(3) ALTRET;
      192    15343    1   DCL NIS$DCCON ENTRY(3);
      193    15344    1   DCL SC_NCOMPP ENTRY CONV(2,0);
      194    15345    1   DCL SC_NLCLPP ENTRY CONV(2,0);
      195    15346    1   DCL NIO$SPINTCON ENTRY(3) ALTRET;
      196    15347    1   DCL KCL$CONN ENTRY(1) ALTRET;
      197    15348    1   DCL NIK$KIPND ENTRY(2);
      198    15349    1   DCL NIQ$GET ENTRY(1) ALTRET;
      199    15350    1   DCL NIQ$GETS ENTRY(1) ALTRET;
      200    15351    1   DCL NIQ$REL ENTRY(1) ALTRET;
      201    15352    1   DCL NIO$QUE ENTRY(1) ALTRET;
      202    15353    1   DCL NIO$IOSPIN ENTRY(1);
      203    15354    1   DCL ITK$TMA$UP ENTRY ALTRET;
      204    15355    1   DCL FMR$M8 ENTRY(2);                    /* STEAL A CFU ENTRY                  */
      205    15356    1   DCL FMN$AVR ENTRY(2);                   /* HEAR PACK IN/OFF                   */
      206    15357    1   DCL FMS$GARBCOL ENTRY ALTRET;
      207    15358    1   DCL UMT$LCLDATE ENTRY(3) ALTRET;
      208    15359    1   DCL UMT$IDT ENTRY(2) ALTRET;
      209    15360    1   DCL SSS$SETBTIME ENTRY(1);
      210    15361    1   DCL FRZ$GETRES ENTRY(5) ALTRET;
      211    15362    1   DCL FRL$AVR ENTRY (3) ALTRET;           /* AVR processer                      */
      212    15363    1   DCL PMC$COLLECT ENTRY;                  /* once-a-minute routine              */
      213    15364    1   DCL PMN$COLLECT ENTRY (2);              /* munge device-timing figures        */
      214    15365    1   DCL SSC$MONTIMR ENTRY (3);         /* routine to set up once-a-minute call    */
      215    15366    1   DCL UQC$INIT ENTRY ALTRET;         /* INITIALIZE THE ENQ-DEQ DATA SEGMENT     */
      216    15367    1   DCL SSS$CURTIME ENTRY (1);              /* Read clock and fetch UTS value     */
      217    15368    1   DCL HFC$RSCR ENTRY(3);
PL6.E3A0      #001=ITX$INITS File=ITX$INITS.:E05TSI                              TUE 07/29/97 23:10 Page:36
      218    15369    1   DCL HFC$SSCR ENTRY(3);
      219    15370    1   DCL ITG$MPY10000 ENTRY(2);
      220    15371    1   DCL SSS$FEPERA ENTRY(3);
      221    15372    1   DCL ITK$TMB$MCA ENTRY(3) ALTRET;
      222    15373    1   DCL ITK$TMB$BUF_ALLOC ENTRY(3) ALTRET;
      223    15374    1   DCL ITK$TMB$BUF_DEALLOC ENTRY(2) ALTRET;
      224    15375    1   DCL ELA$SYSLOG ENTRY(6) ALTRET;
      225    15376    1   DCL KCL$WRTEA ENTRY(1);
      226    15377    1   DCL KCL$OCINT ENTRY(3);
      227    15378    1   DCL KCL$RDEA ENTRY(1);
      228    15379    1   DCL KCL$ININT ENTRY(3);
      229    15380    1   DCL KIQ$QINIT ENTRY(1);
      230    15381        /**/
      231    15382        %EJECT;
PL6.E3A0      #001=ITX$INITS File=ITX$INITS.:E05TSI                              TUE 07/29/97 23:10 Page:37
      232    15383        /*   Initialize the WSQs for ASLs, DBs, or CPs. */
      233    15384    1        NUMSP.ASL=0;

  15384  1 000002   200125 450100                    STZ     NUMSP+2,,AUTO

      234    15385    1        NUMSP.CP=0;

  15385  1 000003   200123 450100                    STZ     NUMSP,,AUTO

      235    15386    1        NUMSP.DB=0;

  15386  1 000004   200124 450100                    STZ     NUMSP+1,,AUTO

      236    15387
      237    15388    2        DO I = 1 TO P_NPROCS;

  15388  1 000005   000001 235007                    LDA     1,DL
         1 000006   200114 755100                    STA     I,,AUTO
         1 000007   000036 710000 1                  TRA     s:15398+1

      238    15389    2             IF B$P$->B$P.FLGS(I) & %P_ASL

  15389  1 000010   200114 236100                    LDQ     I,,AUTO
         1 000011   000042 402007                    MPY     34,DL
         1 000012   000000 470400 xsym               LDP0    B$P$
         1 000013   000027 220106                    LDX0    23,QL,PR0
         1 000014   200000 360003                    ANX0    65536,DU
         1 000015   000021 600000 1                  TZE     s:15392

      239    15390    2             THEN
      240    15391    2                  NUMSP.ASL = NUMSP.ASL + 1;

  15391  1 000016   200125 235100                    LDA     NUMSP+2,,AUTO
         1 000017   000001 035007                    ADLA    1,DL
         1 000020   200125 755100                    STA     NUMSP+2,,AUTO

      241    15392    2             IF B$P$->B$P.FLGS(I) & %P_DB
PL6.E3A0      #001=ITX$INITS File=ITX$INITS.:E05TSI                              TUE 07/29/97 23:10 Page:38

  15392  1 000021   000027 220106                    LDX0    23,QL,PR0
         1 000022   020000 360003                    ANX0    8192,DU
         1 000023   000027 600000 1                  TZE     s:15395

      242    15393    2             THEN
      243    15394    2                  NUMSP.DB = NUMSP.DB + 1;

  15394  1 000024   200124 235100                    LDA     NUMSP+1,,AUTO
         1 000025   000001 035007                    ADLA    1,DL
         1 000026   200124 755100                    STA     NUMSP+1,,AUTO

      244    15395    2             IF B$P$->B$P.FLGS(I) & %P_CP

  15395  1 000027   000027 220106                    LDX0    23,QL,PR0
         1 000030   400000 360003                    ANX0    -131072,DU
         1 000031   000035 600000 1                  TZE     s:15398

      245    15396    2             THEN
      246    15397    2                  NUMSP.CP = NUMSP.CP + 1;

  15397  1 000032   200123 235100                    LDA     NUMSP,,AUTO
         1 000033   000001 035007                    ADLA    1,DL
         1 000034   200123 755100                    STA     NUMSP,,AUTO

      247    15398    2           END;

  15398  1 000035   200114 054100                    AOS     I,,AUTO
         1 000036   000000 236000 xsym               LDQ     P_NPROCS
         1 000037   000010 604000 1                  TMI     s:15389
         1 000040   200114 116100                    CMPQ    I,,AUTO
         1 000041   000010 605000 1                  TPL     s:15389

      248    15399
      249    15400    2        DO I = %CPWSQ TO %ASLWSQ;

  15400  1 000042   000004 235007                    LDA     4,DL
PL6.E3A0      #001=ITX$INITS File=ITX$INITS.:E05TSI                              TUE 07/29/97 23:10 Page:39
         1 000043   200114 755100                    STA     I,,AUTO

      250    15401    2             PPNO = 2;

  15401  1 000044   000002 235007                    LDA     2,DL
         1 000045   200122 755100                    STA     PPNO,,AUTO

      251    15402    2             CALL MMB$GNPP (PPNO,%MONWSQ);

  15402  1 000046   000000 236000 2                  LDQ     0
         1 000047   200151 756100                    STQ     R$+3,,AUTO
         1 000050   200122 630500                    EPPR0   PPNO,,AUTO
         1 000051   200150 450500                    STP0    R$+2,,AUTO
         1 000052   200150 630500                    EPPR0   R$+2,,AUTO
         1 000053   000020 631400 xsym               EPPR1   B_VECTNIL+16
         1 000054   000000 701000 xent               TSX1    MMB$GNPP
         1 000055   000000 011000                    NOP     0

      252    15403    2             IF PPNO = 0

  15403  1 000056   200122 235100                    LDA     PPNO,,AUTO
         1 000057   000062 601000 1                  TNZ     s:15406

      253    15404    2             THEN
      254    15405    2                  CALL SC_NCOMPP;

  15405  1 000060   000000 713400 xsym               CLIMB   SC_NCOMPP
         1 000061   000000 600000 xsid               climb   nvectors=         0

      255    15406    2             IF HW_WSQ0PT THEN

  15406  1 000062   000000 234000 xsym               SZN     HW_WSQ0PT
         1 000063   000100 605000 1                  TPL     s:15409

      256    15407    2                  S_WSPTD.BLKNO(I) = B$WSQ0PT$->B$MAP.RPN(PPNO)*(1024/HW_PTB_UNITS);

  15407  1 000064   002000 236007                    LDQ     1024,DL
PL6.E3A0      #001=ITX$INITS File=ITX$INITS.:E05TSI                              TUE 07/29/97 23:10 Page:40
         1 000065   000000 506000 xsym               DIV     HW_PTB_UNITS
         1 000066   200150 756100                    STQ     R$+2,,AUTO
         1 000067   000000 470400 xsym               LDP0    B$WSQ0PT$
         1 000070   200122 720100                    LXL0    PPNO,,AUTO
         1 000071   000000 236110                    LDQ     0,X0,PR0
         1 000072   000022 772000                    QRL     18
         1 000073   200150 402100                    MPY     R$+2,,AUTO
         1 000074   000000 621006                    EAX1    0,QL
         1 000075   200114 722100                    LXL2    I,,AUTO
         1 000076   000000 741012 xsym               STX1    S_WSPTD,X2
         1 000077   000106 710000 1                  TRA     s:15410

      257    15408    2             ELSE
      258    15409    2                  S_WSPTD.BLKNO(I) = PPNO * (1024/HW_PTB_UNITS);

  15409  1 000100   002000 236007                    LDQ     1024,DL
         1 000101   000000 506000 xsym               DIV     HW_PTB_UNITS
         1 000102   200122 402100                    MPY     PPNO,,AUTO
         1 000103   000000 620006                    EAX0    0,QL
         1 000104   200114 721100                    LXL1    I,,AUTO
         1 000105   000000 740011 xsym               STX0    S_WSPTD,X1

      259    15410    2             S_WSPTD.P(I) = '1'B;

  15410  1 000106   200114 720100                    LXL0    I,,AUTO
         1 000107   100000 236007                    LDQ     32768,DL
         1 000110   000000 256010 xsym               ORSQ    S_WSPTD,X0

      260    15411    2             S_WSPTD.NBLKS(I) = 32;

  15411  1 000111   000000 236010 xsym               LDQ     S_WSPTD,X0
         1 000112   000001 376000 2                  ANQ     1
         1 000113   000040 276007                    ORQ     32,DL
         1 000114   000000 756010 xsym               STQ     S_WSPTD,X0

      261    15412
      262    15413    2             CALL MME$CVM(%MONWSQ,%WINDOWLO,PPNO,SZ);
PL6.E3A0      #001=ITX$INITS File=ITX$INITS.:E05TSI                              TUE 07/29/97 23:10 Page:41

  15413  1 000115   200111 630500                    EPPR0   SZ,,AUTO
         1 000116   200153 450500                    STP0    R$+5,,AUTO
         1 000117   200122 631500                    EPPR1   PPNO,,AUTO
         1 000120   200152 451500                    STP1    R$+4,,AUTO
         1 000121   000004 237000 2                  LDAQ    4
         1 000122   200150 757100                    STAQ    R$+2,,AUTO
         1 000123   200150 630500                    EPPR0   R$+2,,AUTO
         1 000124   000022 631400 xsym               EPPR1   B_VECTNIL+18
         1 000125   000000 701000 xent               TSX1    MME$CVM
         1 000126   000000 011000                    NOP     0

      263    15414    2             CALL MME$CVM(%MONWSQ,%WINDOWLO+1,PPNO+1,SZ);

  15414  1 000127   200122 235100                    LDA     PPNO,,AUTO
         1 000130   000001 035007                    ADLA    1,DL
         1 000131   200150 755100                    STA     R$+2,,AUTO
         1 000132   200111 630500                    EPPR0   SZ,,AUTO
         1 000133   200155 450500                    STP0    R$+7,,AUTO
         1 000134   200150 631500                    EPPR1   R$+2,,AUTO
         1 000135   200154 451500                    STP1    R$+6,,AUTO
         1 000136   000006 237000 2                  LDAQ    6
         1 000137   200152 757100                    STAQ    R$+4,,AUTO
         1 000140   200152 630500                    EPPR0   R$+4,,AUTO
         1 000141   000022 631400 xsym               EPPR1   B_VECTNIL+18
         1 000142   000000 701000 xent               TSX1    MME$CVM
         1 000143   000000 011000                    NOP     0

      264    15415
      265    15416    3             IF HW_WSQ0PT THEN DO;

  15416  1 000144   000000 234000 xsym               SZN     HW_WSQ0PT
         1 000145   000161 605000 1                  TPL     s:15421

      266    15417    3                  B$WINDOW$->B$MAP.RPN(0) = B$WSQ0PT$->B$MAP.RPN(PPNO);

  15417  1 000146   000000 470400 xsym               LDP0    B$WSQ0PT$
PL6.E3A0      #001=ITX$INITS File=ITX$INITS.:E05TSI                              TUE 07/29/97 23:10 Page:42
         1 000147   200122 720100                    LXL0    PPNO,,AUTO
         1 000150   000000 221110                    LDX1    0,X0,PR0
         1 000151   000000 471400 xsym               LDP1    B$WINDOW$
         1 000152   100000 741100                    STX1    0,,PR1

      267    15418    3                  B$WINDOW$->B$MAP.RPN(1) = B$WSQ0PT$->B$MAP.RPN(PPNO+1);

  15418  1 000153   000000 470400 xsym               LDP0    B$WSQ0PT$
         1 000154   200122 720100                    LXL0    PPNO,,AUTO
         1 000155   000001 221110                    LDX1    1,X0,PR0
         1 000156   000000 471400 xsym               LDP1    B$WINDOW$
         1 000157   100001 741100                    STX1    1,,PR1

      268    15419    3                END;

  15419  1 000160   000170 710000 1                  TRA     s:15424

      269    15420    3             ELSE DO;

      270    15421    3                  B$WINDOW$->B$MAP.RPN(0) = PPNO;

  15421  1 000161   200122 720100                    LXL0    PPNO,,AUTO
         1 000162   000000 470400 xsym               LDP0    B$WINDOW$
         1 000163   000000 740100                    STX0    0,,PR0

      271    15422    3                  B$WINDOW$->B$MAP.RPN(1) = PPNO+1;

  15422  1 000164   200122 720100                    LXL0    PPNO,,AUTO
         1 000165   000001 621010                    EAX1    1,X0
         1 000166   000000 470400 xsym               LDP0    B$WINDOW$
         1 000167   000001 741100                    STX1    1,,PR0

      272    15423    3                END;

      273    15424    2             B$WINDOW$->B$MAP.CTRL(0) = %PGINMEM | %PGIOM | %PGWRITE;

  15424  1 000170   000000 470400 xsym               LDP0    B$WINDOW$
PL6.E3A0      #001=ITX$INITS File=ITX$INITS.:E05TSI                              TUE 07/29/97 23:10 Page:43
         1 000171   000064 236007                    LDQ     52,DL
         1 000172   000000 752101                    STCQ    0,'01'O,PR0

      274    15425    2             B$WINDOW$->B$MAP.CTRL(1) = %PGINMEM | %PGIOM | %PGWRITE;

  15425  1 000173   000000 470400 xsym               LDP0    B$WINDOW$
         1 000174   000001 752101                    STCQ    1,'01'O,PR0

      275    15426
      276    15427    3             DO J = 2 TO S_WSPTD.NBLKS(I)*64-1;

  15427  1 000175   000002 235007                    LDA     2,DL
         1 000176   200113 755100                    STA     J,,AUTO
         1 000177   000205 710000 1                  TRA     s:15429+1

      277    15428    3                  B$WINDOW$->B$MAP(J) = MM_FPMC;

  15428  1 000200   000000 236000 xsym               LDQ     MM_FPMC
         1 000201   000000 470400 xsym               LDP0    B$WINDOW$
         1 000202   200113 720100                    LXL0    J,,AUTO
         1 000203   000000 756110                    STQ     0,X0,PR0

      278    15429    3                END;

  15429  1 000204   200113 054100                    AOS     J,,AUTO
         1 000205   200114 720100                    LXL0    I,,AUTO
         1 000206   000000 236010 xsym               LDQ     S_WSPTD,X0
         1 000207   000006 736000                    QLS     6
         1 000210   777700 376007                    ANQ     -64,DL
         1 000211   200113 116100                    CMPQ    J,,AUTO
         1 000212   000200 605400 1                  TPNZ    s:15428

      279    15430    2           END;

  15430  1 000213   200114 054100                    AOS     I,,AUTO
         1 000214   200114 235100                    LDA     I,,AUTO
         1 000215   000006 115007                    CMPA    6,DL
PL6.E3A0      #001=ITX$INITS File=ITX$INITS.:E05TSI                              TUE 07/29/97 23:10 Page:44
         1 000216   000044 604400 1                  TMOZ    s:15401

      280    15431
      281    15432        /* Update each slave cpu's wsptd */
      282    15433    2        DO I = 1 TO S_NSCPU;

  15433  1 000217   000001 236007                    LDQ     1,DL
         1 000220   200114 756100                    STQ     I,,AUTO
         1 000221   000250 710000 1                  TRA     s:15439+1

      283    15434    2             CALL MME$CVM(%MONWSQ,%WINDOWLO,IT_SCPUWSPTD(I),SZ);

  15434  1 000222   200111 630500                    EPPR0   SZ,,AUTO
         1 000223   200153 450500                    STP0    R$+5,,AUTO
         1 000224   200114 720100                    LXL0    I,,AUTO
         1 000225   000000 631410 xsym               EPPR1   IT_SCPUWSPTD,X0
         1 000226   200152 451500                    STP1    R$+4,,AUTO
         1 000227   000004 237000 2                  LDAQ    4
         1 000230   200150 757100                    STAQ    R$+2,,AUTO
         1 000231   200150 630500                    EPPR0   R$+2,,AUTO
         1 000232   000022 631400 xsym               EPPR1   B_VECTNIL+18
         1 000233   000000 701000 xent               TSX1    MME$CVM
         1 000234   000000 011000                    NOP     0

      284    15435    2             B$WINDOW$->S$WSPTD(0) = S_WSPTD(0);

  15435  1 000235   000000 236000 xsym               LDQ     S_WSPTD
         1 000236   000000 470400 xsym               LDP0    B$WINDOW$
         1 000237   000000 756100                    STQ     0,,PR0

      285    15436    2             B$WINDOW$->S$WSPTD(%CPWSQ) = S_WSPTD(%CPWSQ);

  15436  1 000240   000004 236000 xsym               LDQ     S_WSPTD+4
         1 000241   000000 470400 xsym               LDP0    B$WINDOW$
         1 000242   000004 756100                    STQ     4,,PR0

      286    15437    2             B$WINDOW$->S$WSPTD(%DBWSQ) = S_WSPTD(%DBWSQ);
PL6.E3A0      #001=ITX$INITS File=ITX$INITS.:E05TSI                              TUE 07/29/97 23:10 Page:45

  15437  1 000243   000005 236000 xsym               LDQ     S_WSPTD+5
         1 000244   000005 756100                    STQ     5,,PR0

      287    15438    2             B$WINDOW$->S$WSPTD(%ASLWSQ) = S_WSPTD(%ASLWSQ);

  15438  1 000245   000006 236000 xsym               LDQ     S_WSPTD+6
         1 000246   000006 756100                    STQ     6,,PR0

      288    15439    2           END;

  15439  1 000247   200114 054100                    AOS     I,,AUTO
         1 000250   000000 236000 xsym               LDQ     S_NSCPU
         1 000251   000222 604000 1                  TMI     s:15434
         1 000252   200114 116100                    CMPQ    I,,AUTO
         1 000253   000222 605000 1                  TPL     s:15434

      289    15440    1        DCT$=N$DCT$(B_SCDCTX);

  15440  1 000254   000000 470400 xsym               LDP0    N$DCT$$
         1 000255   000000 720000 xsym               LXL0    B_SCDCTX
         1 000256   000000 236110                    LDQ     0,X0,PR0
         1 000257   200131 756100                    STQ     DCT$,,AUTO

      290    15441    1        CALL NIQ$GET(Q$);

  15441  1 000260   200127 631500                    EPPR1   Q$,,AUTO
         1 000261   200150 451500                    STP1    R$+2,,AUTO
         1 000262   200150 630500                    EPPR0   R$+2,,AUTO
         1 000263   000017 631400 xsym               EPPR1   B_VECTNIL+15
         1 000264   000000 701000 xent               TSX1    NIQ$GET
         1 000265   000000 011000                    NOP     0

      291    15442    1        CALL NIQ$GETS(Q$->N$REQ.IOS$);

  15442  1 000266   200127 236100                    LDQ     Q$,,AUTO
         1 000267   000012 036003                    ADLQ    10,DU
PL6.E3A0      #001=ITX$INITS File=ITX$INITS.:E05TSI                              TUE 07/29/97 23:10 Page:46
         1 000270   200150 756100                    STQ     R$+2,,AUTO
         1 000271   200150 630500                    EPPR0   R$+2,,AUTO
         1 000272   000017 631400 xsym               EPPR1   B_VECTNIL+15
         1 000273   000000 701000 xent               TSX1    NIQ$GETS
         1 000274   000000 011000                    NOP     0

      292    15443    1        Q$->N$REQ.IOFLG.IOS='1'B;

  15443  1 000275   200127 470500                    LDP0    Q$,,AUTO
         1 000276   040000 236007                    LDQ     16384,DL
         1 000277   000004 256100                    ORSQ    4,,PR0

      293    15444    1        DCT$->NI$DCT.SC.IOQ$=Q$;

  15444  1 000300   200127 236100                    LDQ     Q$,,AUTO
         1 000301   200131 470500                    LDP0    DCT$,,AUTO
         1 000302   000032 756100                    STQ     26,,PR0

      294    15445        /**/
      295    15446    1        IF NOT HW_TIME_LEGAL THEN GOTO RCVRDATE;

  15446  1 000303   000000 234000 xsym               SZN     HW_TIME_LEGAL
         1 000304   000456 605000 1                  TPL     RCVRDATE

      296    15447        /**/
      297    15448    1        IF IT_BOOTFLAG >= I_RECOVERY AND IT_BOOTFLAG ~= I_OPRECOVRY THEN

  15448  1 000305   000000 235000 xsym               LDA     IT_BOOTFLAG
         1 000306   000011 115007                    CMPA    9,DL
         1 000307   000312 602000 1                  TNC     s:15450
         1 000310   000013 115007                    CMPA    11,DL
         1 000311   000456 601000 1                  TNZ     RCVRDATE

      298    15449    1             GOTO RCVRDATE;
      299    15450    1        TM_MCA_DO_TIME = '1'B;

  15450  1 000312   400000 236003                    LDQ     -131072,DU
PL6.E3A0      #001=ITX$INITS File=ITX$INITS.:E05TSI                              TUE 07/29/97 23:10 Page:47
         1 000313   000000 756000 xsym               STQ     TM_MCA_DO_TIME

      300    15451    1        CALL UMT$IDT (IT_DATE, IT_TIME);

  15451  1 000314   000010 630400 2                  EPPR0   8
         1 000315   000020 631400 xsym               EPPR1   B_VECTNIL+16
         1 000316   000000 701000 xent               TSX1    UMT$IDT
         1 000317   000000 011000                    NOP     0

      301    15452    1        TM_MCA_DO_TIME = '0'B;

  15452  1 000320   000000 450000 xsym               STZ     TM_MCA_DO_TIME

      302    15453    1        CALL NIM$WRENBL (CURMSG, PINCRW(ADDR(CURMSG),SIZEW(CURMSG))->B$CHAR8);
             15453                 /* Pretty sleazy, eh? */

  15453  1 000321   000012 630400 2                  EPPR0   10
         1 000322   000020 631400 xsym               EPPR1   B_VECTNIL+16
         1 000323   000000 701000 xent               TSX1    NIM$WRENBL
         1 000324   000000 011000                    NOP     0

      303    15454    1        PINCRC(ADDR(CURMSG.CHR), 16)->B$CHAR8 = IT_DATE;

  15454  1 000325   040000 100400                    MLR     fill='040'O
         1 000326   000000 000010 xsym               ADSC9   IT_DATE                  cn=0,n=8
         1 000327   000067 400010 0                  ADSC9   CURMSG+5                 cn=2,n=8

      304    15455    1        PINCRC(ADDR(CURMSG.CHR), 25)->B$CHAR5 = IT_TIME;

  15455  1 000330   040000 100400                    MLR     fill='040'O
         1 000331   000000 000005 xsym               ADSC9   IT_TIME                  cn=0,n=5
         1 000332   000071 600005 0                  ADSC9   CURMSG+7                 cn=3,n=5

      305    15456    1        CALL NIM$WRDSBL (CURMSG, PINCRW(ADDR(CURMSG),SIZEW(CURMSG))->B$CHAR8);
             15456                 /* Pretty sleazy, eh? */

  15456  1 000333   000012 630400 2                  EPPR0   10
PL6.E3A0      #001=ITX$INITS File=ITX$INITS.:E05TSI                              TUE 07/29/97 23:10 Page:48
         1 000334   000020 631400 xsym               EPPR1   B_VECTNIL+16
         1 000335   000000 701000 xent               TSX1    NIM$WRDSBL
         1 000336   000000 011000                    NOP     0

      306    15457    1        CALL OCWRITE (CURMSG);

  15457  1 000337   000012 236000 2                  LDQ     10
         1 000340   200145 756100                    STQ     TEMP_FEP_ERA+2,,AUTO
         1 000341   001401 701000 1                  TSX1    OCWRITE
         1 000342   000000 011000                    NOP     0

      307    15458    1   RDDATE: CALL OCWRITE(DTMSG);            /*  READ DATE AND TIME                */

  15458  1 000343   000014 236000 2     RDDATE       LDQ     12
         1 000344   200145 756100                    STQ     TEMP_FEP_ERA+2,,AUTO
         1 000345   001401 701000 1                  TSX1    OCWRITE
         1 000346   000000 011000                    NOP     0

  15455  1 000347                       RERDDATE     null
      308    15459    1   RERDDATE:;
      309    15460    1        IT_DATE=' ';

  15460  1 000347   000035 235000 xsym               LDA     B_VECTNIL+29
         1 000350   000035 236000 xsym               LDQ     B_VECTNIL+29
         1 000351   000000 755000 xsym               STA     IT_DATE
         1 000352   000001 756000 xsym               STQ     IT_DATE+1

      310    15461    1        IT_TIME=' ';

  15461  1 000353   040000 100400                    MLR     fill='040'O
         1 000354   000035 000001 xsym               ADSC9   B_VECTNIL+29             cn=0,n=1
         1 000355   000000 000005 xsym               ADSC9   IT_TIME                  cn=0,n=5

      311    15462    1        CALL OCREAD(IT_DATE);

  15462  1 000356   000010 236000 2                  LDQ     8
         1 000357   200145 756100                    STQ     TEMP_FEP_ERA+2,,AUTO
PL6.E3A0      #001=ITX$INITS File=ITX$INITS.:E05TSI                              TUE 07/29/97 23:10 Page:49
         1 000360   001405 701000 1                  TSX1    OCREAD
         1 000361   000000 011000                    NOP     0

      312    15463    1        IF DATETYC & ~%TYC_EGV THEN GOTO RERDDATE;

  15463  1 000362   000030 236000 xsym               LDQ     B_VECTNIL+24
         1 000363   000027 676000 xsym               ERQ     B_VECTNIL+23
         1 000364   200117 376100                    ANQ     DATETYC,,AUTO
         1 000365   000347 601000 1                  TNZ     RERDDATE

      313    15464    1        IF IT_DATE=' ' THEN GOTO RCVRDATE;

  15464  1 000366   040000 106400                    CMPC    fill='040'O
         1 000367   000000 000010 xsym               ADSC9   IT_DATE                  cn=0,n=8
         1 000370   000035 000001 xsym               ADSC9   B_VECTNIL+29             cn=0,n=1
         1 000371   000456 600000 1                  TZE     RCVRDATE

      314    15465    1        CALL OCWRITE (TMMSG);

  15465  1 000372   000015 236000 2                  LDQ     13
         1 000373   200145 756100                    STQ     TEMP_FEP_ERA+2,,AUTO
         1 000374   001401 701000 1                  TSX1    OCWRITE
         1 000375   000000 011000                    NOP     0

  15464  1 000376                       RERDTIME     null
      315    15466    1   RERDTIME:;
      316    15467    1        CALL OCREAD(IT_TIME);

  15467  1 000376   000011 236000 2                  LDQ     9
         1 000377   200145 756100                    STQ     TEMP_FEP_ERA+2,,AUTO
         1 000400   001405 701000 1                  TSX1    OCREAD
         1 000401   000000 011000                    NOP     0

      317    15468    1        IF DATETYC & ~%TYC_EGV THEN GOTO RERDTIME;

  15468  1 000402   000030 236000 xsym               LDQ     B_VECTNIL+24
         1 000403   000027 676000 xsym               ERQ     B_VECTNIL+23
PL6.E3A0      #001=ITX$INITS File=ITX$INITS.:E05TSI                              TUE 07/29/97 23:10 Page:50
         1 000404   200117 376100                    ANQ     DATETYC,,AUTO
         1 000405   000376 601000 1                  TNZ     RERDTIME

      318    15469    1        CALL UMT$LCLDATE (IT_UTS,IT_DATE,IT_TIME) ALTRET(RDDATE);

  15469  1 000406   000016 630400 2                  EPPR0   14
         1 000407   000021 631400 xsym               EPPR1   B_VECTNIL+17
         1 000410   000000 701000 xent               TSX1    UMT$LCLDATE
         1 000411   000343 702000 1                  TSX2    RDDATE

      319    15470    1        CALL SSS$SETBTIME(IT_UTS);

  15470  1 000412   000016 630400 2                  EPPR0   14
         1 000413   000017 631400 xsym               EPPR1   B_VECTNIL+15
         1 000414   000000 701000 xent               TSX1    SSS$SETBTIME
         1 000415   000000 011000                    NOP     0

      320    15471    2        IF HW_IMX THEN DO;

  15471  1 000416   000000 234000 xsym               SZN     HW_IMX
         1 000417   000456 605000 1                  TPL     RCVRDATE

      321    15472    2             CALL ITK$TMB$BUF_ALLOC (BUF$,BUFX,DQH$) ALTRET (RCVRDATE);

  15472  1 000420   200140 630500                    EPPR0   DQH$,,AUTO
         1 000421   200152 450500                    STP0    R$+4,,AUTO
         1 000422   200142 631500                    EPPR1   BUFX,,AUTO
         1 000423   200151 451500                    STP1    R$+3,,AUTO
         1 000424   200141 633500                    EPPR3   BUF$,,AUTO
         1 000425   200150 453500                    STP3    R$+2,,AUTO
         1 000426   200150 630500                    EPPR0   R$+2,,AUTO
         1 000427   000021 631400 xsym               EPPR1   B_VECTNIL+17
         1 000430   000000 701000 xent               TSX1    ITK$TMB$BUF_ALLOC
         1 000431   000456 702000 1                  TSX2    RCVRDATE

      322    15473    2             BUF$ -> UTS_B = IT_UTS;

PL6.E3A0      #001=ITX$INITS File=ITX$INITS.:E05TSI                              TUE 07/29/97 23:10 Page:51
  15473  1 000432   200141 470500                    LDP0    BUF$,,AUTO
         1 000433   000000 235000 xsym               LDA     IT_UTS
         1 000434   000000 755100                    STA     0,,PR0

      323    15474    2             CALL ITK$TMB$MCA (DQH$->NI$DQH,TM_OC_TIME_WRITE#,BUFX);

  15474  1 000435   200142 630500                    EPPR0   BUFX,,AUTO
         1 000436   200152 450500                    STP0    R$+4,,AUTO
         1 000437   000021 236000 2                  LDQ     17
         1 000440   200140 235100                    LDA     DQH$,,AUTO
         1 000441   200150 757100                    STAQ    R$+2,,AUTO
         1 000442   200150 630500                    EPPR0   R$+2,,AUTO
         1 000443   000021 631400 xsym               EPPR1   B_VECTNIL+17
         1 000444   000000 701000 xent               TSX1    ITK$TMB$MCA
         1 000445   000000 011000                    NOP     0

      324    15475    2             CALL ITK$TMB$BUF_DEALLOC (BUF$,BUFX);

  15475  1 000446   200142 630500                    EPPR0   BUFX,,AUTO
         1 000447   200151 450500                    STP0    R$+3,,AUTO
         1 000450   200141 631500                    EPPR1   BUF$,,AUTO
         1 000451   200150 451500                    STP1    R$+2,,AUTO
         1 000452   200150 630500                    EPPR0   R$+2,,AUTO
         1 000453   000020 631400 xsym               EPPR1   B_VECTNIL+16
         1 000454   000000 701000 xent               TSX1    ITK$TMB$BUF_DEALLOC
         1 000455   000000 011000                    NOP     0

      325    15476    2           END;

      326    15477    1   RCVRDATE:
      327    15478    1        CALL MMQ$INIT;

  15478  1 000456   000002 631400 xsym  RCVRDATE     EPPR1   B_VECTNIL+2
         1 000457   000000 701000 xent               TSX1    MMQ$INIT
         1 000460   000000 011000                    NOP     0

      328    15479    1        IT_CLOCKOK='1'B;
PL6.E3A0      #001=ITX$INITS File=ITX$INITS.:E05TSI                              TUE 07/29/97 23:10 Page:52

  15479  1 000461   400000 236003                    LDQ     -131072,DU
         1 000462   000000 756000 xsym               STQ     IT_CLOCKOK

      329    15480    1        CALL KCC$CLOCK;

  15480  1 000463   000002 631400 xsym               EPPR1   B_VECTNIL+2
         1 000464   000000 701000 xent               TSX1    KCC$CLOCK
         1 000465   000000 011000                    NOP     0

      330    15481    1        I = 2 + MINIMUM(KI_MXFE,%B_CWSQMAX-2); /* -2 IS FOR FEPS > 14 */

  15481  1 000466   000016 236007                    LDQ     14,DL
         1 000467   000000 116000 xsym               CMPQ    KI_MXFE
         1 000470   000473 602000 1                  TNC     s:15481+5
         1 000471   000473 600000 1                  TZE     s:15481+5
         1 000472   000000 236000 xsym               LDQ     KI_MXFE
         1 000473   000002 036007                    ADLQ    2,DL
         1 000474   200114 756100                    STQ     I,,AUTO

      331    15482    1        CALL MMS$WSQINIT (I) ALTRET (SCNPP);

  15482  1 000475   200114 630500                    EPPR0   I,,AUTO
         1 000476   200150 450500                    STP0    R$+2,,AUTO
         1 000477   200150 630500                    EPPR0   R$+2,,AUTO
         1 000500   000017 631400 xsym               EPPR1   B_VECTNIL+15
         1 000501   000000 701000 xent               TSX1    MMS$WSQINIT
         1 000502   001376 702000 1                  TSX2    SCNPP

      332    15483    1        FOM_WSQ = %B_CWSQ1;

  15483  1 000503   000015 235007                    LDA     13,DL
         1 000504   000000 755000 xsym               STA     FOM_WSQ

      333    15484    1        FOS_WSQ=%B_CWSQ2;

  15484  1 000505   000016 236007                    LDQ     14,DL
PL6.E3A0      #001=ITX$INITS File=ITX$INITS.:E05TSI                              TUE 07/29/97 23:10 Page:53
         1 000506   000000 756000 xsym               STQ     FOS_WSQ

      334    15485    1        CWSQ=%B_CWSQ3;

  15485  1 000507   000017 235007                    LDA     15,DL
         1 000510   200112 755100                    STA     CWSQ,,AUTO

      335    15486    1        PPNO = 0;

  15486  1 000511   200122 450100                    STZ     PPNO,,AUTO

      336    15487    2        DO FEI=1 TO KI_MXFE;

  15487  1 000512   000001 235007                    LDA     1,DL
         1 000513   200107 755100                    STA     FEI,,AUTO
         1 000514   001005 710000 1                  TRA     s:15525+1

      337    15488    2             FEI$ = KI$FEI$(FEI);

  15488  1 000515   000000 470400 xsym               LDP0    KI_FEI$$
         1 000516   200107 720100                    LXL0    FEI,,AUTO
         1 000517   000000 236110                    LDQ     0,X0,PR0
         1 000520   200110 756100                    STQ     FEI$,,AUTO

      338    15489    2             KI$FEI.FEWSQ =CWSQ;

  15489  1 000521   200112 235100                    LDA     CWSQ,,AUTO
         1 000522   200110 471500                    LDP1    FEI$,,AUTO
         1 000523   100005 755100                    STA     5,,PR1

      339    15490    2             KI$FEI.PTPPNO# = PPNO;

  15490  1 000524   200122 235100                    LDA     PPNO,,AUTO
         1 000525   100014 755100                    STA     12,,PR1

      340    15491    2             SZ = KI$FEI.OQSZ;

PL6.E3A0      #001=ITX$INITS File=ITX$INITS.:E05TSI                              TUE 07/29/97 23:10 Page:54
  15491  1 000526   100013 236100                    LDQ     11,,PR1
         1 000527   000033 772000                    QRL     27
         1 000530   200111 756100                    STQ     SZ,,AUTO

      341    15492    2             CALL MMS$GETCQ (CWSQ,P$,SZ ) ALTRET (SCNPP);

  15492  1 000531   200111 633500                    EPPR3   SZ,,AUTO
         1 000532   200152 453500                    STP3    R$+4,,AUTO
         1 000533   200126 634500                    EPPR4   P$,,AUTO
         1 000534   200151 454500                    STP4    R$+3,,AUTO
         1 000535   200112 635500                    EPPR5   CWSQ,,AUTO
         1 000536   200150 455500                    STP5    R$+2,,AUTO
         1 000537   200150 630500                    EPPR0   R$+2,,AUTO
         1 000540   000021 631400 xsym               EPPR1   B_VECTNIL+17
         1 000541   000000 701000 xent               TSX1    MMS$GETCQ
         1 000542   001376 702000 1                  TSX2    SCNPP

      342    15493    2             P$->KI$QHDR='0'B;

  15493  1 000543   200126 470500                    LDP0    P$,,AUTO
         1 000544   000100 100400                    MLR     fill='000'O
         1 000545   000002 000001 xsym               ADSC9   B_VECTNIL+2              cn=0,n=1
         1 000546   000000 000100                    ADSC9   0,,PR0                   cn=0,n=64

      343    15494    2             P$->KI$QHDR.QSIZE=(KI$FEI.IQSZ *1024-SIZEW(KI$QHDR));

  15494  1 000547   200110 470500                    LDP0    FEI$,,AUTO
         1 000550   200126 471500                    LDP1    P$,,AUTO
         1 000551   000013 236100                    LDQ     11,,PR0
         1 000552   000010 772000                    QRL     8
         1 000553   000022 376000 2                  ANQ     18
         1 000554   000020 136007                    SBLQ    16,DL
         1 000555   000004 736000                    QLS     4
         1 000556   100005 676100                    ERQ     5,,PR1
         1 000557   000023 376000 2                  ANQ     19
         1 000560   100005 656100                    ERSQ    5,,PR1

PL6.E3A0      #001=ITX$INITS File=ITX$INITS.:E05TSI                              TUE 07/29/97 23:10 Page:55
      344    15495    2             KI$FEI.ICQ$=P$;

  15495  1 000561   200126 236100                    LDQ     P$,,AUTO
         1 000562   000004 756100                    STQ     4,,PR0

      345    15496    3             DO I=1 TO KI$FEI.IQSZ -1;

  15496  1 000563   000001 235007                    LDA     1,DL
         1 000564   200114 755100                    STA     I,,AUTO
         1 000565   000604 710000 1                  TRA     s:15498+1

      346    15497    3                  CALL MMS$GETCQ (CWSQ,P$,I+SZ) ALTRET (SCNPP);

  15497  1 000566   200114 236100                    LDQ     I,,AUTO
         1 000567   200111 036100                    ADLQ    SZ,,AUTO
         1 000570   200150 756100                    STQ     R$+2,,AUTO
         1 000571   200150 630500                    EPPR0   R$+2,,AUTO
         1 000572   200153 450500                    STP0    R$+5,,AUTO
         1 000573   200126 631500                    EPPR1   P$,,AUTO
         1 000574   200152 451500                    STP1    R$+4,,AUTO
         1 000575   200112 633500                    EPPR3   CWSQ,,AUTO
         1 000576   200151 453500                    STP3    R$+3,,AUTO
         1 000577   200151 630500                    EPPR0   R$+3,,AUTO
         1 000600   000021 631400 xsym               EPPR1   B_VECTNIL+17
         1 000601   000000 701000 xent               TSX1    MMS$GETCQ
         1 000602   001376 702000 1                  TSX2    SCNPP

      347    15498    3                END;

  15498  1 000603   200114 054100                    AOS     I,,AUTO
         1 000604   200110 470500                    LDP0    FEI$,,AUTO
         1 000605   000013 236100                    LDQ     11,,PR0
         1 000606   000022 772000                    QRL     18
         1 000607   000777 376007                    ANQ     511,DL
         1 000610   200114 116100                    CMPQ    I,,AUTO
         1 000611   000566 605400 1                  TPNZ    s:15497

PL6.E3A0      #001=ITX$INITS File=ITX$INITS.:E05TSI                              TUE 07/29/97 23:10 Page:56
      348    15499    2             CALL MMS$GETCQ (CWSQ,P$,0) ALTRET (SCNPP);

  15499  1 000612   000024 236000 2                  LDQ     20
         1 000613   200152 756100                    STQ     R$+4,,AUTO
         1 000614   200126 631500                    EPPR1   P$,,AUTO
         1 000615   200151 451500                    STP1    R$+3,,AUTO
         1 000616   200112 633500                    EPPR3   CWSQ,,AUTO
         1 000617   200150 453500                    STP3    R$+2,,AUTO
         1 000620   200150 630500                    EPPR0   R$+2,,AUTO
         1 000621   000021 631400 xsym               EPPR1   B_VECTNIL+17
         1 000622   000000 701000 xent               TSX1    MMS$GETCQ
         1 000623   001376 702000 1                  TSX2    SCNPP

      349    15500    2             P$->KI$QHDR='0'B;

  15500  1 000624   200126 470500                    LDP0    P$,,AUTO
         1 000625   000100 100400                    MLR     fill='000'O
         1 000626   000002 000001 xsym               ADSC9   B_VECTNIL+2              cn=0,n=1
         1 000627   000000 000100                    ADSC9   0,,PR0                   cn=0,n=64

      350    15501    2             P$->KI$QHDR.QSIZE=(KI$FEI.OQSZ *1024-SIZEW(KI$QHDR));

  15501  1 000630   200110 470500                    LDP0    FEI$,,AUTO
         1 000631   200126 471500                    LDP1    P$,,AUTO
         1 000632   000013 236100                    LDQ     11,,PR0
         1 000633   000021 772000                    QRL     17
         1 000634   000022 376000 2                  ANQ     18
         1 000635   000020 136007                    SBLQ    16,DL
         1 000636   000004 736000                    QLS     4
         1 000637   100005 676100                    ERQ     5,,PR1
         1 000640   000023 376000 2                  ANQ     19
         1 000641   100005 656100                    ERSQ    5,,PR1

      351    15502    2             P$->KI$QHDR.HOST_NODE# = K_NODE#;

  15502  1 000642   200126 471500                    LDP1    P$,,AUTO
         1 000643   000000 236000 xsym               LDQ     K_NODE#
PL6.E3A0      #001=ITX$INITS File=ITX$INITS.:E05TSI                              TUE 07/29/97 23:10 Page:57
         1 000644   000033 736000                    QLS     27
         1 000645   100003 552140                    STBQ    3,'40'O,PR1

      352    15503    2             P$->KI$QHDR.FEP_NODE#=KI$FEI.FEP#;

  15503  1 000646   200126 471500                    LDP1    P$,,AUTO
         1 000647   000012 236100                    LDQ     10,,PR0
         1 000650   000011 736000                    QLS     9
         1 000651   100003 552120                    STBQ    3,'20'O,PR1

      353    15504    2             P$->KI$QHDR.QOS = KI$FEI.QOS;

  15504  1 000652   200126 471500                    LDP1    P$,,AUTO
         1 000653   000012 236100                    LDQ     10,,PR0
         1 000654   000011 736000                    QLS     9
         1 000655   100003 552110                    STBQ    3,'10'O,PR1

      354    15505    2             KI$FEI.OCQ$=P$;

  15505  1 000656   200126 236100                    LDQ     P$,,AUTO
         1 000657   000003 756100                    STQ     3,,PR0

      355    15506    2             IT_INTL66.L66INT=FE_ICQINT*2+1;

  15506  1 000660   000700 236007                    LDQ     448,DL
         1 000661   000000 256000 xsym               ORSQ    IT_INTL66

      356    15507    2             IF KI$FEI.FECH.DEV >31 THEN IT_INTL66.L66INT=IT_INTL66.L66INT-1;

  15507  1 000662   000002 236100                    LDQ     2,,PR0
         1 000663   177000 376003                    ANQ     65024,DU
         1 000664   040000 116003                    CMPQ    16384,DU
         1 000665   000676 602000 1                  TNC     s:15508

  15507  1 000666   000000 236000 xsym               LDQ     IT_INTL66
         1 000667   000006 772000                    QRL     6
         1 000670   000007 376007                    ANQ     7,DL
PL6.E3A0      #001=ITX$INITS File=ITX$INITS.:E05TSI                              TUE 07/29/97 23:10 Page:58
         1 000671   000001 136007                    SBLQ    1,DL
         1 000672   000006 736000                    QLS     6
         1 000673   000000 676000 xsym               ERQ     IT_INTL66
         1 000674   000700 376007                    ANQ     448,DL
         1 000675   000000 656000 xsym               ERSQ    IT_INTL66

      357    15508    2             P$->KI$QHDR.CCMD=IT_INTL66;

  15508  1 000676   000000 236000 xsym               LDQ     IT_INTL66
         1 000677   200126 471500                    LDP1    P$,,AUTO
         1 000700   100000 756100                    STQ     0,,PR1

      358    15509    3             DO I=1 TO KI$FEI.OQSZ -1;

  15509  1 000701   000001 235007                    LDA     1,DL
         1 000702   200114 755100                    STA     I,,AUTO
         1 000703   000717 710000 1                  TRA     s:15511+1

      359    15510    3                  CALL MMS$GETCQ (CWSQ,P$,I) ALTRET (SCNPP);

  15510  1 000704   200114 630500                    EPPR0   I,,AUTO
         1 000705   200152 450500                    STP0    R$+4,,AUTO
         1 000706   200126 631500                    EPPR1   P$,,AUTO
         1 000707   200151 451500                    STP1    R$+3,,AUTO
         1 000710   200112 633500                    EPPR3   CWSQ,,AUTO
         1 000711   200150 453500                    STP3    R$+2,,AUTO
         1 000712   200150 630500                    EPPR0   R$+2,,AUTO
         1 000713   000021 631400 xsym               EPPR1   B_VECTNIL+17
         1 000714   000000 701000 xent               TSX1    MMS$GETCQ
         1 000715   001376 702000 1                  TSX2    SCNPP

      360    15511    3                END;

  15511  1 000716   200114 054100                    AOS     I,,AUTO
         1 000717   200110 470500                    LDP0    FEI$,,AUTO
         1 000720   000013 236100                    LDQ     11,,PR0
         1 000721   000033 772000                    QRL     27
PL6.E3A0      #001=ITX$INITS File=ITX$INITS.:E05TSI                              TUE 07/29/97 23:10 Page:59
         1 000722   200114 116100                    CMPQ    I,,AUTO
         1 000723   000704 605400 1                  TPNZ    s:15510

      361    15512    2             IF KI$FEI.PBST.PROB ~= KIER_PART AND

  15512  1 000724   000015 220100                    LDX0    13,,PR0
         1 000725   000016 100003                    CMPX0   14,DU
         1 000726   000765 600000 1                  TZE     s:15519
         1 000727   000015 100003                    CMPX0   13,DU
         1 000730   000765 600000 1                  TZE     s:15519

      362    15513    3                  KI$FEI.PBST.PROB ~= KIER_STOP THEN DO;

      363    15514    3                  KI$FEI.PBST.PROB = KIER_OK ;

  15514  1 000731   000000 221003                    LDX1    0,DU
         1 000732   000015 741100                    STX1    13,,PR0

      364    15515    3                  IF HW_IMX THEN
             15515                           /* INIT DIRECT CHANNEL - '2'O NOT VALID HARDWARE MASK */

  15515  1 000733   000000 234000 xsym               SZN     HW_IMX
         1 000734   000751 605000 1                  TPL     s:15517

      365    15516    3                       CALL NIS$DCCON (KI$FEI.FECH, '2'O, KI$FEI.FEWSQ);

  15516  1 000735   200110 236100                    LDQ     FEI$,,AUTO
         1 000736   000005 036003                    ADLQ    5,DU
         1 000737   200152 756100                    STQ     R$+4,,AUTO
         1 000740   000026 236000 2                  LDQ     22
         1 000741   200151 756100                    STQ     R$+3,,AUTO
         1 000742   200110 236100                    LDQ     FEI$,,AUTO
         1 000743   000002 036003                    ADLQ    2,DU
         1 000744   200150 756100                    STQ     R$+2,,AUTO
         1 000745   200150 630500                    EPPR0   R$+2,,AUTO
         1 000746   000021 631400 xsym               EPPR1   B_VECTNIL+17
         1 000747   000000 701000 xent               TSX1    NIS$DCCON
PL6.E3A0      #001=ITX$INITS File=ITX$INITS.:E05TSI                              TUE 07/29/97 23:10 Page:60
         1 000750   000000 011000                    NOP     0

      366    15517    3                  CALL NIS$DCCON (KI$FEI.FECH, '4'O, KI$FEI.FEWSQ);

  15517  1 000751   200110 236100                    LDQ     FEI$,,AUTO
         1 000752   000005 036003                    ADLQ    5,DU
         1 000753   200152 756100                    STQ     R$+4,,AUTO
         1 000754   000027 236000 2                  LDQ     23
         1 000755   200151 756100                    STQ     R$+3,,AUTO
         1 000756   200110 236100                    LDQ     FEI$,,AUTO
         1 000757   000002 036003                    ADLQ    2,DU
         1 000760   200150 756100                    STQ     R$+2,,AUTO
         1 000761   200150 630500                    EPPR0   R$+2,,AUTO
         1 000762   000021 631400 xsym               EPPR1   B_VECTNIL+17
         1 000763   000000 701000 xent               TSX1    NIS$DCCON
         1 000764   000000 011000                    NOP     0

      367    15518    3                END;

      368    15519    2             KI$FEI.PBST.STATE = KIST_MASKED ;

  15519  1 000765   000007 220003                    LDX0    7,DU
         1 000766   200110 470500                    LDP0    FEI$,,AUTO
         1 000767   000015 440100                    SXL0    13,,PR0

      369    15520    2             CALL KIQ$QINIT(FEI);

  15520  1 000770   200107 631500                    EPPR1   FEI,,AUTO
         1 000771   200150 451500                    STP1    R$+2,,AUTO
         1 000772   200150 630500                    EPPR0   R$+2,,AUTO
         1 000773   000017 631400 xsym               EPPR1   B_VECTNIL+15
         1 000774   000000 701000 xent               TSX1    KIQ$QINIT
         1 000775   000000 011000                    NOP     0

      370    15521    2             CWSQ=CWSQ+1;

  15521  1 000776   200112 054100                    AOS     CWSQ,,AUTO
PL6.E3A0      #001=ITX$INITS File=ITX$INITS.:E05TSI                              TUE 07/29/97 23:10 Page:61

      371    15522    2             IF CWSQ > %B_CWSQ16

  15522  1 000777   200112 235100                    LDA     CWSQ,,AUTO
         1 001000   000034 115007                    CMPA    28,DL
         1 001001   001004 604400 1                  TMOZ    s:15525

      372    15523    2             THEN
      373    15524    2                  CWSQ = %B_CWSQ13;

  15524  1 001002   000031 236007                    LDQ     25,DL
         1 001003   200112 756100                    STQ     CWSQ,,AUTO

      374    15525    2           END;

  15525  1 001004   200107 054100                    AOS     FEI,,AUTO
         1 001005   000000 236000 xsym               LDQ     KI_MXFE
         1 001006   000515 604000 1                  TMI     s:15488
         1 001007   200107 116100                    CMPQ    FEI,,AUTO
         1 001010   000515 605000 1                  TPL     s:15488

      375    15526    1        CALL CGINIT;

  15526  1 001011   001546 701000 1                  TSX1    CGINIT
         1 001012   000000 011000                    NOP     0

      376    15527    1        CALL OPCINIT ALTRET (SCNPP);

  15527  1 001013   003020 701000 1                  TSX1    OPCINIT
         1 001014   001376 702000 1                  TSX2    SCNPP

      377    15528    1        CALL KIQ$TMLP (FEI);

  15528  1 001015   200107 630500                    EPPR0   FEI,,AUTO
         1 001016   200150 450500                    STP0    R$+2,,AUTO
         1 001017   200150 630500                    EPPR0   R$+2,,AUTO
         1 001020   000017 631400 xsym               EPPR1   B_VECTNIL+15
PL6.E3A0      #001=ITX$INITS File=ITX$INITS.:E05TSI                              TUE 07/29/97 23:10 Page:62
         1 001021   000000 701000 xent               TSX1    KIQ$TMLP
         1 001022   000000 011000                    NOP     0

      378    15529    1        CALL PMINIT;                       /* Initialize performance monitor     */

  15529  1 001023   002644 701000 1                  TSX1    PMINIT
         1 001024   000000 011000                    NOP     0

      379    15530    1        CALL SSS$FEPERA(P_STARTUP,TEMP_FEP_ERA);

  15530  1 001025   200143 630500                    EPPR0   TEMP_FEP_ERA,,AUTO
         1 001026   200151 450500                    STP0    R$+3,,AUTO
         1 001027   000030 236000 2                  LDQ     24
         1 001030   200150 756100                    STQ     R$+2,,AUTO
         1 001031   200150 630500                    EPPR0   R$+2,,AUTO
         1 001032   000020 631400 xsym               EPPR1   B_VECTNIL+16
         1 001033   000000 701000 xent               TSX1    SSS$FEPERA
         1 001034   000000 011000                    NOP     0

      380    15531    1        S_BOOTERA = TEMP_FEP_ERA.ERA/3;

  15531  1 001035   200143 236100                    LDQ     TEMP_FEP_ERA,,AUTO
         1 001036   000036 772000                    QRL     30
         1 001037   000003 506007                    DIV     3,DL
         1 001040   000000 756000 xsym               STQ     S_BOOTERA

      381    15532    1        S_BOOTQUARTER = MOD(TEMP_FEP_ERA.ERA,3);

  15532  1 001041   200143 236100                    LDQ     TEMP_FEP_ERA,,AUTO
         1 001042   000036 772000                    QRL     30
         1 001043   000003 506007                    DIV     3,DL
         1 001044   000000 755000 xsym               STA     S_BOOTQUARTER

      382    15533                                                /* INITIALIZE M$MONINFO STUFF         */
      383    15534    1        B_MONINFO.INIT_UTS#=P_STARTUP;

  15534  1 001045   000000 236000 xsym               LDQ     P_STARTUP
PL6.E3A0      #001=ITX$INITS File=ITX$INITS.:E05TSI                              TUE 07/29/97 23:10 Page:63
         1 001046   000000 756000 xsym               STQ     B_MONINFO

      384    15535    1        B_MONINFO.BOOTFLAG#=IT_BOOTFLAG;

  15535  1 001047   000000 235000 xsym               LDA     IT_BOOTFLAG
         1 001050   000006 755000 xsym               STA     B_MONINFO+6

      385    15536    1        B_MONINFO.MUAIS#=B_MUAIS;

  15536  1 001051   000000 235000 xsym               LDA     B_MUAIS
         1 001052   000007 755000 xsym               STA     B_MONINFO+7

      386    15537    1        B_MONPTRS.N$DCT$$=N$DCT$$;

  15537  1 001053   000000 236000 xsym               LDQ     N$DCT$$
         1 001054   000000 756000 xsym               STQ     B_MONPTRS

      387    15538    1        B_MONPTRS.NI$CHT$=NI$CHT$;

  15538  1 001055   000000 236000 xsym               LDQ     NI$CHT$
         1 001056   000001 756000 xsym               STQ     B_MONPTRS+1

      388    15539    1        B_MONPTRS.NI$DVT$$=ADDR(NI$DVT$(0));

  15539  1 001057   000031 236000 2                  LDQ     25
         1 001060   000002 756000 xsym               STQ     B_MONPTRS+2

      389    15540    1        B_MONPTRS.B$USRT$=B$USRT$;

  15540  1 001061   000000 236000 xsym               LDQ     B$USRT$
         1 001062   000003 756000 xsym               STQ     B_MONPTRS+3

      390    15541    1        B_MONPTRS.B$P$=B$P$;

  15541  1 001063   000000 236000 xsym               LDQ     B$P$
         1 001064   000004 756000 xsym               STQ     B_MONPTRS+4

PL6.E3A0      #001=ITX$INITS File=ITX$INITS.:E05TSI                              TUE 07/29/97 23:10 Page:64
      391    15542    1        CALL ELA$SYSLOG(EL_SYSID,B_SITEINFO,SIZEW(B_SITEINFO),'0'B,1,I);

  15542  1 001065   200114 630500                    EPPR0   I,,AUTO
         1 001066   200155 450500                    STP0    R$+7,,AUTO
         1 001067   000000 236000 2                  LDQ     0
         1 001070   200154 756100                    STQ     R$+6,,AUTO
         1 001071   000034 237000 2                  LDAQ    28
         1 001072   200152 757100                    STAQ    R$+4,,AUTO
         1 001073   000036 237000 2                  LDAQ    30
         1 001074   200150 757100                    STAQ    R$+2,,AUTO
         1 001075   200150 630500                    EPPR0   R$+2,,AUTO
         1 001076   000024 631400 xsym               EPPR1   B_VECTNIL+20
         1 001077   000000 701000 xent               TSX1    ELA$SYSLOG
         1 001100   000000 011000                    NOP     0

      392    15543    1        CALL SSC$MONTIMR(30000,ENTADDR(NIK$KIPND),0);

  15543  1 001101   000000 636000 xent               EAQ     NIK$KIPND
         1 001102   200150 756100                    STQ     R$+2,,AUTO
         1 001103   000024 236000 2                  LDQ     20
         1 001104   200153 756100                    STQ     R$+5,,AUTO
         1 001105   200150 630500                    EPPR0   R$+2,,AUTO
         1 001106   200152 450500                    STP0    R$+4,,AUTO
         1 001107   000041 236000 2                  LDQ     33
         1 001110   200151 756100                    STQ     R$+3,,AUTO
         1 001111   200151 630500                    EPPR0   R$+3,,AUTO
         1 001112   000021 631400 xsym               EPPR1   B_VECTNIL+17
         1 001113   000000 701000 xent               TSX1    SSC$MONTIMR
         1 001114   000000 011000                    NOP     0

      393    15544    1        IF HW_IOP THEN                     /* MSOS */

  15544  1 001115   000000 234000 xsym               SZN     HW_IOP
         1 001116   001122 605000 1                  TPL     s:15547

      394    15545    1             CALL ITK$TMA$UP;

PL6.E3A0      #001=ITX$INITS File=ITX$INITS.:E05TSI                              TUE 07/29/97 23:10 Page:65
  15545  1 001117   000002 631400 xsym               EPPR1   B_VECTNIL+2
         1 001120   000000 701000 xent               TSX1    ITK$TMA$UP
         1 001121   000000 011000                    NOP     0

      395    15546
      396    15547    1        RETURN;

  15547  1 001122   000000 702200 xent               TSX2  ! X66_ARET

      397    15548
      398    15549        %EJECT;
PL6.E3A0      #001=ITX$INITS File=ITX$INITS.:E05TSI                              TUE 07/29/97 23:10 Page:66
      399    15550    1   ITX$INITS2: ENTRY;

  15550  1 001123   000000 700200 xent  ITX$INITS2   TSX0  ! X66_AUTO_0
         1 001124   000156 000000                    ZERO    110,0

      400    15551
      401    15552
      402    15553                                      /* START LOOKING FOR PENDING KEYINS IN 5 MIN.   */
      403    15554    1        CALL UQC$INIT;                /* INITIALIZE THE ENQ-DEQ DATA SEGMENT     */

  15554  1 001125   000002 631400 xsym               EPPR1   B_VECTNIL+2
         1 001126   000000 701000 xent               TSX1    UQC$INIT
         1 001127   000000 011000                    NOP     0

      404    15555    1        CALL FMS$GARBCOL;                  /* INITIALIZE THE CFU AREA            */

  15555  1 001130   000002 631400 xsym               EPPR1   B_VECTNIL+2
         1 001131   000000 701000 xent               TSX1    FMS$GARBCOL
         1 001132   000000 011000                    NOP     0

      405    15556    1        P$=FR$HD$(1);                      /* HEAD OF TAPE CHAIN                 */

  15556  1 001133   000001 236000 xsym               LDQ     FR$HD$+1
         1 001134   200126 756100                    STQ     P$,,AUTO

      406    15557    2        DO WHILE(P$~=ADDR(NIL));

  15557  1 001135   001146 710000 1                  TRA     s:15560

      407    15558    2             CALL AVRINIT(P$->FR$RAT.DCTX);

  15558  1 001136   200126 236100                    LDQ     P$,,AUTO
         1 001137   000042 036000 2                  ADLQ    34
         1 001140   200145 756100                    STQ     TEMP_FEP_ERA+2,,AUTO
         1 001141   002617 701000 1                  TSX1    AVRINIT
         1 001142   000000 011000                    NOP     0

PL6.E3A0      #001=ITX$INITS File=ITX$INITS.:E05TSI                              TUE 07/29/97 23:10 Page:67
      408    15559    2             P$=P$->FR$RAT.LNK$;

  15559  1 001143   200126 470500                    LDP0    P$,,AUTO
         1 001144   000000 236100                    LDQ     0,,PR0
         1 001145   200126 756100                    STQ     P$,,AUTO

      409    15560    2           END;

  15560  1 001146   000001 116000 xsym               CMPQ    B_VECTNIL+1
         1 001147   001136 601000 1                  TNZ     s:15558

      410    15561        /* */
      411    15562    2        IF (IT_BOOTFLAG < I_DISKBOOT) THEN DO; /* NOT DB OR RECOVERY          */

  15562  1 001150   000000 235000 xsym               LDA     IT_BOOTFLAG
         1 001151   000007 115007                    CMPA    7,DL
         1 001152   001161 603000 1                  TRC     SETINIT

      412    15563    2             CALL RESINIT ALTRET (SETINIT);

  15563  1 001153   002365 701000 1                  TSX1    RESINIT
         1 001154   001161 702000 1                  TSX2    SETINIT

      413    15564    2             CALL OCWRITE(NOPOMSG);

  15564  1 001155   000043 236000 2                  LDQ     35
         1 001156   200145 756100                    STQ     TEMP_FEP_ERA+2,,AUTO
         1 001157   001401 701000 1                  TSX1    OCWRITE
         1 001160   000000 011000                    NOP     0

      414    15565    2           END;

  15562  1 001161                       SETINIT      null
      415    15566        /* */
      416    15567    1   SETINIT:;
      417    15568    1        P$=FR$HD$(0);

PL6.E3A0      #001=ITX$INITS File=ITX$INITS.:E05TSI                              TUE 07/29/97 23:10 Page:68
  15568  1 001161   000000 236000 xsym               LDQ     FR$HD$
         1 001162   200126 756100                    STQ     P$,,AUTO

      418    15569    1        DCTX=0;

  15569  1 001163   200115 450100                    STZ     DCTX,,AUTO

      419    15570    1        FM$CFUX.DSETH=P$->FR$RAT.DCTX;

  15570  1 001164   200126 470500                    LDP0    P$,,AUTO
         1 001165   000003 720100                    LXL0    3,,PR0
         1 001166   000000 471400 xsym               LDP1    F$CFU$
         1 001167   100005 440100                    SXL0    5,,PR1

      420    15571    2        DO WHILE (P$~=ADDR(NIL));

  15571  1 001170   001322 710000 1                  TRA     s:15586

      421    15572    2             IF DCTX~=0 THEN FM$DEV.DEVL(DCTX)=P$->FR$RAT.DCTX;

  15572  1 001171   200115 236100                    LDQ     DCTX,,AUTO
         1 001172   777770 316003                    CANQ    -8,DU
         1 001173   001202 600000 1                  TZE     s:15573

  15572  1 001174   200115 220100                    LDX0    DCTX,,AUTO
         1 001175   777770 360003                    ANX0    -8,DU
         1 001176   200126 470500                    LDP0    P$,,AUTO
         1 001177   000003 721100                    LXL1    3,,PR0
         1 001200   000000 471400 xsym               LDP1    FM$SET$
         1 001201   100005 741110                    STX1    5,X0,PR1

      422    15573    2             DCTX=P$->FR$RAT.DCTX;

  15573  1 001202   200126 470500                    LDP0    P$,,AUTO
         1 001203   000003 236100                    LDQ     3,,PR0
         1 001204   777777 376007                    ANQ     -1,DL
         1 001205   000025 736000                    QLS     21
PL6.E3A0      #001=ITX$INITS File=ITX$INITS.:E05TSI                              TUE 07/29/97 23:10 Page:69
         1 001206   200115 756100                    STQ     DCTX,,AUTO

      423    15574    2             Q$=ADDR(FM$DEV(DCTX));

  15574  1 001207   200115 220100                    LDX0    DCTX,,AUTO
         1 001210   777770 360003                    ANX0    -8,DU
         1 001211   000000 636010                    EAQ     0,X0
         1 001212   000000 036000 xsym               ADLQ    FM$SET$
         1 001213   200127 756100                    STQ     Q$,,AUTO

      424    15575    2             CALL FMR$M8(Q$,Q$);

  15575  1 001214   200127 631500                    EPPR1   Q$,,AUTO
         1 001215   200151 451500                    STP1    R$+3,,AUTO
         1 001216   200127 633500                    EPPR3   Q$,,AUTO
         1 001217   200150 453500                    STP3    R$+2,,AUTO
         1 001220   200150 630500                    EPPR0   R$+2,,AUTO
         1 001221   000020 631400 xsym               EPPR1   B_VECTNIL+16
         1 001222   000000 701000 xent               TSX1    FMR$M8
         1 001223   000000 011000                    NOP     0

      425    15576    2             FM$DEV.XCL(DCTX)='1'B;

  15576  1 001224   200115 220100                    LDX0    DCTX,,AUTO
         1 001225   777770 360003                    ANX0    -8,DU
         1 001226   000000 470400 xsym               LDP0    FM$SET$
         1 001227   400000 236003                    LDQ     -131072,DU
         1 001230   000002 256110                    ORSQ    2,X0,PR0

      426    15577    2             FM$DEV.DCTX(DCTX)=DCTX;

  15577  1 001231   200115 220100                    LDX0    DCTX,,AUTO
         1 001232   777770 360003                    ANX0    -8,DU
         1 001233   200115 236100                    LDQ     DCTX,,AUTO
         1 001234   000025 772000                    QRL     21
         1 001235   000000 621006                    EAX1    0,QL
         1 001236   000000 470400 xsym               LDP0    FM$SET$
PL6.E3A0      #001=ITX$INITS File=ITX$INITS.:E05TSI                              TUE 07/29/97 23:10 Page:70
         1 001237   000000 741110                    STX1    0,X0,PR0

      427    15578    2             CALL CHARBIN(I,SUBSTR(N$DCT$(DCTX)->NI$DCT.DEVNM,2,2));

  15578  1 001240   200115 236100                    LDQ     DCTX,,AUTO
         1 001241   000025 772000                    QRL     21
         1 001242   000000 470400 xsym               LDP0    N$DCT$$
         1 001243   000000 471506                    LDP1    0,QL,PR0
         1 001244   000100 305500                    DTB
         1 001245   100002 430002                    NDSC9   2,,PR1                   cn=2,s=nosgn,sf=0,n=2
         1 001246   200114 000004                    NDSC9   I,,AUTO                  cn=0,s=lsgnf,sf=0,n=4

      428    15579    2             FM$DEV.NN(DCTX)=I;

  15579  1 001247   200115 220100                    LDX0    DCTX,,AUTO
         1 001250   777770 360003                    ANX0    -8,DU
         1 001251   200114 721100                    LXL1    I,,AUTO
         1 001252   000000 471400 xsym               LDP1    FM$SET$
         1 001253   100000 441110                    SXL1    0,X0,PR1

      429    15580    2             FM$DEV.NXTSDA(DCTX)=N$DCT$(DCTX)->NI$DCT.DVT$->

  15580  1 001254   200115 220100                    LDX0    DCTX,,AUTO
         1 001255   777770 360003                    ANX0    -8,DU
         1 001256   200115 236100                    LDQ     DCTX,,AUTO
         1 001257   000025 772000                    QRL     21
         1 001260   000000 470400 xsym               LDP0    N$DCT$$
         1 001261   000000 471506                    LDP1    0,QL,PR0
         1 001262   100024 473500                    LDP3    20,,PR1
         1 001263   300054 236100                    LDQ     44,,PR3
         1 001264   000000 036000 xsym               ADLQ    FM_SRZERO
         1 001265   000000 471400 xsym               LDP1    FM$SET$
         1 001266   100003 676110                    ERQ     3,X0,PR1
         1 001267   000032 376000 xsym               ANQ     B_VECTNIL+26
         1 001270   100003 656110                    ERSQ    3,X0,PR1

      430    15581    2                  NI$DVT.PACKSIZE+FM_SRZERO;
PL6.E3A0      #001=ITX$INITS File=ITX$INITS.:E05TSI                              TUE 07/29/97 23:10 Page:71
      431    15582    2             CALL NIO$SPINTCON(DCTX,ENTADDR(FMN$AVR),0);

  15582  1 001271   000000 636000 xent               EAQ     FMN$AVR
         1 001272   200150 756100                    STQ     R$+2,,AUTO
         1 001273   000024 236000 2                  LDQ     20
         1 001274   200153 756100                    STQ     R$+5,,AUTO
         1 001275   200150 630500                    EPPR0   R$+2,,AUTO
         1 001276   200152 450500                    STP0    R$+4,,AUTO
         1 001277   200115 631500                    EPPR1   DCTX,,AUTO
         1 001300   200151 451500                    STP1    R$+3,,AUTO
         1 001301   200151 630500                    EPPR0   R$+3,,AUTO
         1 001302   000021 631400 xsym               EPPR1   B_VECTNIL+17
         1 001303   000000 701000 xent               TSX1    NIO$SPINTCON
         1 001304   000000 011000                    NOP     0

      432    15583    2             CALL DPREQST;

  15583  1 001305   001411 701000 1                  TSX1    DPREQST
         1 001306   000000 011000                    NOP     0

      433    15584    2             CALL FMN$AVR(DCTX,STATUS);

  15584  1 001307   200116 630500                    EPPR0   STATUS,,AUTO
         1 001310   200151 450500                    STP0    R$+3,,AUTO
         1 001311   200115 631500                    EPPR1   DCTX,,AUTO
         1 001312   200150 451500                    STP1    R$+2,,AUTO
         1 001313   200150 630500                    EPPR0   R$+2,,AUTO
         1 001314   000020 631400 xsym               EPPR1   B_VECTNIL+16
         1 001315   000000 701000 xent               TSX1    FMN$AVR
         1 001316   000000 011000                    NOP     0

      434    15585    2             P$=P$->FR$RAT.LNK$;

  15585  1 001317   200126 470500                    LDP0    P$,,AUTO
         1 001320   000000 236100                    LDQ     0,,PR0
         1 001321   200126 756100                    STQ     P$,,AUTO

PL6.E3A0      #001=ITX$INITS File=ITX$INITS.:E05TSI                              TUE 07/29/97 23:10 Page:72
      435    15586    2           END;

  15586  1 001322   200126 236100                    LDQ     P$,,AUTO
         1 001323   000001 116000 xsym               CMPQ    B_VECTNIL+1
         1 001324   001171 601000 1                  TNZ     s:15572

      436    15587    1        I=FM$CFUX.DSETH;

  15587  1 001325   000000 470400 xsym               LDP0    F$CFU$
         1 001326   000005 236100                    LDQ     5,,PR0
         1 001327   777777 376007                    ANQ     -1,DL
         1 001330   200114 756100                    STQ     I,,AUTO

      437    15588    2        IF I~=IT_SYSDISK THEN DO;          /* PUT SYS FIRST                      */

  15588  1 001331   001334 604000 1                  TMI     s:15589
         1 001332   000000 116000 xsym               CMPQ    IT_SYSDISK
         1 001333   001375 600000 1                  TZE     s:15596

      438    15589    3             DO WHILE(FM$DEV.DEVL(I)~=IT_SYSDISK);

  15589  1 001334   200114 235100                    LDA     I,,AUTO
         1 001335   000003 735000                    ALS     3
         1 001336   000000 471400 xsym               LDP1    FM$SET$
         1 001337   100005 236105                    LDQ     5,AL,PR1
         1 001340   000022 772000                    QRL     18
         1 001341   000000 116000 xsym               CMPQ    IT_SYSDISK
         1 001342   001357 600000 1                  TZE     s:15592

      439    15590    3                  I=FM$DEV.DEVL(I);

  15590  1 001343   200114 235100                    LDA     I,,AUTO
         1 001344   000003 735000                    ALS     3
         1 001345   000000 470400 xsym               LDP0    FM$SET$
         1 001346   000005 236105                    LDQ     5,AL,PR0
         1 001347   000022 772000                    QRL     18
         1 001350   200114 756100                    STQ     I,,AUTO
PL6.E3A0      #001=ITX$INITS File=ITX$INITS.:E05TSI                              TUE 07/29/97 23:10 Page:73

      440    15591    3                END;

  15591  1 001351   200114 235100                    LDA     I,,AUTO
         1 001352   000003 735000                    ALS     3
         1 001353   000005 236105                    LDQ     5,AL,PR0
         1 001354   000022 772000                    QRL     18
         1 001355   000000 116000 xsym               CMPQ    IT_SYSDISK
         1 001356   001343 601000 1                  TNZ     s:15590

      441    15592    2             FM$DEV.DEVL(I)=FM$DEV.DEVL(IT_SYSDISK);

  15592  1 001357   000000 236000 xsym               LDQ     IT_SYSDISK
         1 001360   000003 736000                    QLS     3
         1 001361   000000 470400 xsym               LDP0    FM$SET$
         1 001362   000005 220106                    LDX0    5,QL,PR0
         1 001363   000005 740105                    STX0    5,AL,PR0

      442    15593    2             FM$DEV.DEVL(IT_SYSDISK)=FM$CFUX.DSETH;

  15593  1 001364   000000 235000 xsym               LDA     IT_SYSDISK
         1 001365   000003 735000                    ALS     3
         1 001366   000000 470400 xsym               LDP0    F$CFU$
         1 001367   000005 720100                    LXL0    5,,PR0
         1 001370   000000 471400 xsym               LDP1    FM$SET$
         1 001371   100005 740105                    STX0    5,AL,PR1

      443    15594    2             FM$CFUX.DSETH=IT_SYSDISK;

  15594  1 001372   000000 720000 xsym               LXL0    IT_SYSDISK
         1 001373   000000 470400 xsym               LDP0    F$CFU$
         1 001374   000005 440100                    SXL0    5,,PR0

      444    15595    2           END;

      445    15596    1        RETURN;

PL6.E3A0      #001=ITX$INITS File=ITX$INITS.:E05TSI                              TUE 07/29/97 23:10 Page:74
  15596  1 001375   000000 702200 xent               TSX2  ! X66_ARET

  15593  1 001376                       SCNPP        null
      446    15597        /* */
      447    15598    1   SCNPP: ;
      448    15599    1        CALL SC_NCOMPP;

  15599  1 001376   000000 713400 xsym               CLIMB   SC_NCOMPP
         1 001377   000000 600000 xsid               climb   nvectors=         0
         1 001400   003170 710000 1                  TRA     s:15915

      449    15600        /*S*  SCREECH_CODE:  KIS-S$NCOMPP
      450    15601              TYPE:          Screech
      451    15602              MESSAGE:       Cant get physical pages to initialize FEPs
      452    15603              REMARKS:       This screech occurs when physical pages cannot be
      453    15604                             obtained for the following FEP initialization uses:
      454    15605                               1. The page table for a communication WSQ
      455    15606                               2. The primary LDCT for an FEP
      456    15607                               3. The FEPs input or output circular queue
      457    15608                             Since these pages are obtained at initialization
      458    15609                             this screech should only occur as a result of memory
      459    15610                             management bugs.                                        */
      460    15611        /* */
      461    15612    1   OCWRITE: PROC(MSG);

  15612  1 001401   200144 741300       OCWRITE      STX1  ! TEMP_FEP_ERA+1,,AUTO

      462    15613    2   DCL MSG SBIN;
      463    15614    2   DCL FC SBIN;
      464    15615    2        FC=%N_WRASC;

  15615  1 001402   000005 235007                    LDA     5,DL
         1 001403   200146 755100                    STA     FC,,AUTO

      465    15616    2        GOTO COMMON;

  15616  1 001404   001424 710000 1                  TRA     COMMON
PL6.E3A0      #001=ITX$INITS File=ITX$INITS.:E05TSI                              TUE 07/29/97 23:10 Page:75

      466    15617    2   OCREAD: ENTRY(MSG);

  15617  1 001405   200144 741300       OCREAD       STX1  ! TEMP_FEP_ERA+1,,AUTO

      467    15618    2        FC=%N_RDASC;

  15618  1 001406   000004 235007                    LDA     4,DL
         1 001407   200146 755100                    STA     FC,,AUTO

      468    15619    2        GOTO COMMON;

  15619  1 001410   001424 710000 1                  TRA     COMMON

      469    15620    2   DPREQST: ENTRY;

  15620  1 001411   200144 741300       DPREQST      STX1  ! TEMP_FEP_ERA+1,,AUTO

      470    15621    2        FC=%N_RQSTAT;

  15621  1 001412   000001 235007                    LDA     1,DL
         1 001413   200146 755100                    STA     FC,,AUTO

      471    15622    3        IF N$DCT$(DCTX)->NI$DCT.STATUS.DOWN THEN DO;

  15622  1 001414   200115 236100                    LDQ     DCTX,,AUTO
         1 001415   000025 772000                    QRL     21
         1 001416   000000 470400 xsym               LDP0    N$DCT$$
         1 001417   000000 471506                    LDP1    0,QL,PR0
         1 001420   100027 234100                    SZN     23,,PR1
         1 001421   001424 605000 1                  TPL     COMMON

      472    15623    3             STATUS=0;

  15623  1 001422   200116 450100                    STZ     STATUS,,AUTO

      473    15624    3             RETURN;
PL6.E3A0      #001=ITX$INITS File=ITX$INITS.:E05TSI                              TUE 07/29/97 23:10 Page:76

  15624  1 001423   000001 702211                    TSX2  ! 1,X1

      474    15625    3           END;
      475    15626    2   COMMON: CALL NIQ$GET(Q$);

  15626  1 001424   200127 630500       COMMON       EPPR0   Q$,,AUTO
         1 001425   200150 450500                    STP0    R$+2,,AUTO
         1 001426   200150 630500                    EPPR0   R$+2,,AUTO
         1 001427   000017 631400 xsym               EPPR1   B_VECTNIL+15
         1 001430   000000 701000 xent               TSX1    NIQ$GET
         1 001431   000000 011000                    NOP     0

      476    15627    3        IF FC=%N_RQSTAT THEN DO;

  15627  1 001432   200146 235100                    LDA     FC,,AUTO
         1 001433   000001 115007                    CMPA    1,DL
         1 001434   001451 601000 1                  TNZ     s:15633

      477    15628    3             Q$->N$REQ.BPMIR = '1'B ;

  15628  1 001435   200127 470500                    LDP0    Q$,,AUTO
         1 001436   200000 236003                    LDQ     65536,DU
         1 001437   000034 256100                    ORSQ    28,,PR0

      478    15629    3             Q$->N$REQ.DLA.DCTX=DCTX;

  15629  1 001440   200127 470500                    LDP0    Q$,,AUTO
         1 001441   200115 236100                    LDQ     DCTX,,AUTO
         1 001442   000001 676100                    ERQ     1,,PR0
         1 001443   777770 376003                    ANQ     -8,DU
         1 001444   000001 656100                    ERSQ    1,,PR0

      479    15630    3             Q$->N$REQ.OPFLG=OP_HOLD;

  15630  1 001445   200127 470500                    LDP0    Q$,,AUTO
         1 001446   000004 236007                    LDQ     4,DL
PL6.E3A0      #001=ITX$INITS File=ITX$INITS.:E05TSI                              TUE 07/29/97 23:10 Page:77
         1 001447   000004 552104                    STBQ    4,'04'O,PR0

      480    15631    3           END;

  15631  1 001450   001511 710000 1                  TRA     s:15647

      481    15632    3        ELSE DO;

      482    15633    3             IF FC=%N_WRASC

  15633  1 001451   000005 115007                    CMPA    5,DL
         1 001452   001470 601000 1                  TNZ     s:15641

      483    15634    3             THEN                          /* WRITE                              */
      484    15635    4             DO;

      485    15636    4                  Q$->N$REQ.BUF$=PINCRW(ADDR(MSG),1);

  15636  1 001453   200145 236100                    LDQ     @MSG,,AUTO
         1 001454   000001 036003                    ADLQ    1,DU
         1 001455   200127 470500                    LDP0    Q$,,AUTO
         1 001456   000005 756100                    STQ     5,,PR0

      486    15637    4                  Q$->N$REQ.BUFSIZE=MSG+2;

  15637  1 001457   200127 470500                    LDP0    Q$,,AUTO
         1 001460   200145 471500                    LDP1    @MSG,,AUTO
         1 001461   100000 236100                    LDQ     0,,PR1
         1 001462   000002 036007                    ADLQ    2,DL
         1 001463   000020 736000                    QLS     16
         1 001464   000004 676100                    ERQ     4,,PR0
         1 001465   000034 376000 xsym               ANQ     B_VECTNIL+28
         1 001466   000004 656100                    ERSQ    4,,PR0

      487    15638    4                END;

  15638  1 001467   001500 710000 1                  TRA     s:15644
PL6.E3A0      #001=ITX$INITS File=ITX$INITS.:E05TSI                              TUE 07/29/97 23:10 Page:78

      488    15639    3             ELSE                          /* READ                               */
      489    15640    4             DO;

      490    15641    4                  Q$->N$REQ.BUF$=ADDR(MSG);

  15641  1 001470   200145 236100                    LDQ     @MSG,,AUTO
         1 001471   200127 470500                    LDP0    Q$,,AUTO
         1 001472   000005 756100                    STQ     5,,PR0

      491    15642    4                  Q$->N$REQ.BUFSIZE=8;

  15642  1 001473   200127 470500                    LDP0    Q$,,AUTO
         1 001474   000004 236100                    LDQ     4,,PR0
         1 001475   177777 376007                    ANQ     65535,DL
         1 001476   000002 276003                    ORQ     2,DU
         1 001477   000004 756100                    STQ     4,,PR0

      492    15643    4                END;

      493    15644    3             Q$->N$REQ.OPFLG=OP_HOLD|OP_BPF;

  15644  1 001500   200127 470500                    LDP0    Q$,,AUTO
         1 001501   000014 236007                    LDQ     12,DL
         1 001502   000004 552104                    STBQ    4,'04'O,PR0

      494    15645    3             Q$->N$REQ.DLA.DCTX=B_SCDCTX;

  15645  1 001503   200127 470500                    LDP0    Q$,,AUTO
         1 001504   000000 236000 xsym               LDQ     B_SCDCTX
         1 001505   000025 736000                    QLS     21
         1 001506   000001 676100                    ERQ     1,,PR0
         1 001507   777770 376003                    ANQ     -8,DU
         1 001510   000001 656100                    ERSQ    1,,PR0

      495    15646    3           END;

PL6.E3A0      #001=ITX$INITS File=ITX$INITS.:E05TSI                              TUE 07/29/97 23:10 Page:79
      496    15647    2        Q$->N$REQ.FC=FC;

  15647  1 001511   200127 470500                    LDP0    Q$,,AUTO
         1 001512   200146 236100                    LDQ     FC,,AUTO
         1 001513   000003 552104                    STBQ    3,'04'O,PR0

      497    15648    2        CALL NIO$QUE(Q$->N$REQ);

  15648  1 001514   200127 630500                    EPPR0   Q$,,AUTO
         1 001515   000017 631400 xsym               EPPR1   B_VECTNIL+15
         1 001516   000000 701000 xent               TSX1    NIO$QUE
         1 001517   000000 011000                    NOP     0

      498    15649    2        CALL NIO$IOSPIN(Q$->N$REQ);

  15649  1 001520   200127 630500                    EPPR0   Q$,,AUTO
         1 001521   000017 631400 xsym               EPPR1   B_VECTNIL+15
         1 001522   000000 701000 xent               TSX1    NIO$IOSPIN
         1 001523   000000 011000                    NOP     0

      499    15650    2        IF Q$->N$REQ.STATUS & '37'O THEN STATUS=0;

  15650  1 001524   200127 470500                    LDP0    Q$,,AUTO
         1 001525   000014 237100                    LDAQ    12,,PR0
         1 001526   000044 377000 2                  ANAQ    36
         1 001527   001532 600000 1                  TZE     s:15651

  15650  1 001530   200116 450100                    STZ     STATUS,,AUTO
         1 001531   001534 710000 1                  TRA     s:15652

      500    15651    2        ELSE STATUS=1;

  15651  1 001532   000001 235007                    LDA     1,DL
         1 001533   200116 755100                    STA     STATUS,,AUTO

      501    15652    2        DATETYC=Q$->N$REQ.TYC;

PL6.E3A0      #001=ITX$INITS File=ITX$INITS.:E05TSI                              TUE 07/29/97 23:10 Page:80
  15652  1 001534   000021 236100                    LDQ     17,,PR0
         1 001535   200117 756100                    STQ     DATETYC,,AUTO

      502    15653    2        CALL NIQ$REL(Q$);

  15653  1 001536   200127 631500                    EPPR1   Q$,,AUTO
         1 001537   200150 451500                    STP1    R$+2,,AUTO
         1 001540   200150 630500                    EPPR0   R$+2,,AUTO
         1 001541   000017 631400 xsym               EPPR1   B_VECTNIL+15
         1 001542   000000 701000 xent               TSX1    NIQ$REL
         1 001543   000000 011000                    NOP     0

      503    15654    2        RETURN;

  15654  1 001544   200144 221300                    LDX1  ! TEMP_FEP_ERA+1,,AUTO
         1 001545   000001 702211                    TSX2  ! 1,X1

      504    15655    2   END OCWRITE;
      505    15656        /**/
      506    15657    1   CGINIT: PROC;

  15657  1 001546   200144 741300       CGINIT       STX1  ! TEMP_FEP_ERA+1,,AUTO

      507    15658        /**/
      508    15659    2        CALL ELA$SYSLOG (EL_RESET,0,1,'0'B,2,DCT$) ALTRET (SCNPP);

  15659  1 001547   200131 630500                    EPPR0   DCT$,,AUTO
         1 001550   200155 450500                    STP0    R$+7,,AUTO
         1 001551   000046 236000 2                  LDQ     38
         1 001552   200154 756100                    STQ     R$+6,,AUTO
         1 001553   000050 237000 2                  LDAQ    40
         1 001554   200152 757100                    STAQ    R$+4,,AUTO
         1 001555   000052 237000 2                  LDAQ    42
         1 001556   200150 757100                    STAQ    R$+2,,AUTO
         1 001557   200150 630500                    EPPR0   R$+2,,AUTO
         1 001560   000024 631400 xsym               EPPR1   B_VECTNIL+20
         1 001561   000000 701000 xent               TSX1    ELA$SYSLOG
PL6.E3A0      #001=ITX$INITS File=ITX$INITS.:E05TSI                              TUE 07/29/97 23:10 Page:81
         1 001562   002361 702000 1                  TSX2    SCNPP

      509    15660    2        CALL NKL$GETDCT (LDCT$) ALTRET (SCNPP);

  15660  1 001563   200130 630500                    EPPR0   LDCT$,,AUTO
         1 001564   200150 450500                    STP0    R$+2,,AUTO
         1 001565   200150 630500                    EPPR0   R$+2,,AUTO
         1 001566   000017 631400 xsym               EPPR1   B_VECTNIL+15
         1 001567   000000 701000 xent               TSX1    NKL$GETDCT
         1 001570   002361 702000 1                  TSX2    SCNPP

      510    15661    2        LDCT$->NK$LDCT.DFLG.LOCAL = '1'B;

  15661  1 001571   200130 470500                    LDP0    LDCT$,,AUTO
         1 001572   002000 236007                    LDQ     1024,DL
         1 001573   000006 256100                    ORSQ    6,,PR0

      511    15662    2        LDCT$->LDCT.DEVNM='MONKEY';

  15662  1 001574   200130 470500                    LDP0    LDCT$,,AUTO
         1 001575   040100 100400                    MLR     fill='040'O
         1 001576   000074 000006 0                  ADSC9   CURMSG+10                cn=0,n=6
         1 001577   000002 000010                    ADSC9   2,,PR0                   cn=0,n=8

      512    15663    2        LDCT$->LDCT.RESCOD=NK_CGDCB;

  15663  1 001600   200130 470500                    LDP0    LDCT$,,AUTO
         1 001601   000006 236100                    LDQ     6,,PR0
         1 001602   000023 376000 2                  ANQ     19
         1 001603   000004 276007                    ORQ     4,DL
         1 001604   000006 756100                    STQ     6,,PR0

      513    15664    2        NK_MONKLDX=LDCT$->LDCT.LDCTX;

  15664  1 001605   200130 470500                    LDP0    LDCT$,,AUTO
         1 001606   000006 236100                    LDQ     6,,PR0
         1 001607   000022 772000                    QRL     18
PL6.E3A0      #001=ITX$INITS File=ITX$INITS.:E05TSI                              TUE 07/29/97 23:10 Page:82
         1 001610   000000 756000 xsym               STQ     NK_MONKLDX

      514    15665    2        CALL NKL$GETDCT (LDCT$) ALTRET (SCNPP);

  15665  1 001611   200130 631500                    EPPR1   LDCT$,,AUTO
         1 001612   200150 451500                    STP1    R$+2,,AUTO
         1 001613   200150 630500                    EPPR0   R$+2,,AUTO
         1 001614   000017 631400 xsym               EPPR1   B_VECTNIL+15
         1 001615   000000 701000 xent               TSX1    NKL$GETDCT
         1 001616   002361 702000 1                  TSX2    SCNPP

      515    15666    2        LDCT$->NK$LDCT.DFLG.LOCAL = '1'B;

  15666  1 001617   200130 470500                    LDP0    LDCT$,,AUTO
         1 001620   002000 236007                    LDQ     1024,DL
         1 001621   000006 256100                    ORSQ    6,,PR0

      516    15667    2        LDCT$->LDCT.DEVNM='RESUS';

  15667  1 001622   200130 470500                    LDP0    LDCT$,,AUTO
         1 001623   040100 100400                    MLR     fill='040'O
         1 001624   000076 000005 0                  ADSC9   CURMSG+12                cn=0,n=5
         1 001625   000002 000010                    ADSC9   2,,PR0                   cn=0,n=8

      517    15668    2        LDCT$->LDCT.RESCOD=NK_CGDCB;

  15668  1 001626   200130 470500                    LDP0    LDCT$,,AUTO
         1 001627   000006 236100                    LDQ     6,,PR0
         1 001630   000023 376000 2                  ANQ     19
         1 001631   000004 276007                    ORQ     4,DL
         1 001632   000006 756100                    STQ     6,,PR0

      518    15669    2        NK_RESUSLDX_HLP=LDCT$->LDCT.LDCTX;

  15669  1 001633   200130 470500                    LDP0    LDCT$,,AUTO
         1 001634   000006 236100                    LDQ     6,,PR0
         1 001635   000022 772000                    QRL     18
PL6.E3A0      #001=ITX$INITS File=ITX$INITS.:E05TSI                              TUE 07/29/97 23:10 Page:83
         1 001636   000000 756000 xsym               STQ     NK_RESUSLDX_HLP

      519    15670    2        CALL NKL$GETDCT (LDCT$) ALTRET (SCNPP);

  15670  1 001637   200130 631500                    EPPR1   LDCT$,,AUTO
         1 001640   200150 451500                    STP1    R$+2,,AUTO
         1 001641   200150 630500                    EPPR0   R$+2,,AUTO
         1 001642   000017 631400 xsym               EPPR1   B_VECTNIL+15
         1 001643   000000 701000 xent               TSX1    NKL$GETDCT
         1 001644   002361 702000 1                  TSX2    SCNPP

      520    15671    2        LDCT$->NK$LDCT.DFLG.LOCAL = '1'B;

  15671  1 001645   200130 470500                    LDP0    LDCT$,,AUTO
         1 001646   002000 236007                    LDQ     1024,DL
         1 001647   000006 256100                    ORSQ    6,,PR0

      521    15672    2        LDCT$->LDCT.DEVNM='RESUS';

  15672  1 001650   200130 470500                    LDP0    LDCT$,,AUTO
         1 001651   040100 100400                    MLR     fill='040'O
         1 001652   000076 000005 0                  ADSC9   CURMSG+12                cn=0,n=5
         1 001653   000002 000010                    ADSC9   2,,PR0                   cn=0,n=8

      522    15673    2        LDCT$->LDCT.RESCOD=NK_CGDCB;

  15673  1 001654   200130 470500                    LDP0    LDCT$,,AUTO
         1 001655   000006 236100                    LDQ     6,,PR0
         1 001656   000023 376000 2                  ANQ     19
         1 001657   000004 276007                    ORQ     4,DL
         1 001660   000006 756100                    STQ     6,,PR0

      523    15674    2        NK_RESUSLDX=LDCT$->LDCT.LDCTX;

  15674  1 001661   200130 470500                    LDP0    LDCT$,,AUTO
         1 001662   000006 236100                    LDQ     6,,PR0
         1 001663   000022 772000                    QRL     18
PL6.E3A0      #001=ITX$INITS File=ITX$INITS.:E05TSI                              TUE 07/29/97 23:10 Page:84
         1 001664   000000 756000 xsym               STQ     NK_RESUSLDX

      524    15675    2        CALL NKL$GETDCT (LDCT$) ALTRET (SCNPP);

  15675  1 001665   200130 631500                    EPPR1   LDCT$,,AUTO
         1 001666   200150 451500                    STP1    R$+2,,AUTO
         1 001667   200150 630500                    EPPR0   R$+2,,AUTO
         1 001670   000017 631400 xsym               EPPR1   B_VECTNIL+15
         1 001671   000000 701000 xent               TSX1    NKL$GETDCT
         1 001672   002361 702000 1                  TSX2    SCNPP

      525    15676    2        LDCT$->NK$LDCT.DFLG.LOCAL = '1'B;

  15676  1 001673   200130 470500                    LDP0    LDCT$,,AUTO
         1 001674   002000 236007                    LDQ     1024,DL
         1 001675   000006 256100                    ORSQ    6,,PR0

      526    15677    2        LDCT$->LDCT.DEVNM='BABOON';

  15677  1 001676   200130 470500                    LDP0    LDCT$,,AUTO
         1 001677   040100 100400                    MLR     fill='040'O
         1 001700   000100 000006 0                  ADSC9   CURMSG+14                cn=0,n=6
         1 001701   000002 000010                    ADSC9   2,,PR0                   cn=0,n=8

      527    15678    2        LDCT$->LDCT.RESCOD=NK_CGDCB;

  15678  1 001702   200130 470500                    LDP0    LDCT$,,AUTO
         1 001703   000006 236100                    LDQ     6,,PR0
         1 001704   000023 376000 2                  ANQ     19
         1 001705   000004 276007                    ORQ     4,DL
         1 001706   000006 756100                    STQ     6,,PR0

      528    15679    2        NK_BABOONLDX=LDCT$->LDCT.LDCTX;

  15679  1 001707   200130 470500                    LDP0    LDCT$,,AUTO
         1 001710   000006 236100                    LDQ     6,,PR0
         1 001711   000022 772000                    QRL     18
PL6.E3A0      #001=ITX$INITS File=ITX$INITS.:E05TSI                              TUE 07/29/97 23:10 Page:85
         1 001712   000000 756000 xsym               STQ     NK_BABOONLDX

      529    15680    3        DO I=1 TO NK_MXLOCAL;

  15680  1 001713   000001 235007                    LDA     1,DL
         1 001714   200114 755100                    STA     I,,AUTO
         1 001715   002353 710000 1                  TRA     s:15768+1

      530    15681    3             DCT$=N$DCT$(I);

  15681  1 001716   000000 470400 xsym               LDP0    N$DCT$$
         1 001717   200114 720100                    LXL0    I,,AUTO
         1 001720   000000 236110                    LDQ     0,X0,PR0
         1 001721   200131 756100                    STQ     DCT$,,AUTO

      531    15682    4             IF DCT$~=ADDR(NIL) THEN DO;

  15682  1 001722   000001 116000 xsym               CMPQ    B_VECTNIL+1
         1 001723   002352 600000 1                  TZE     s:15768

      532    15683    5                  IF DCT$->NI$DCT.DFLG.CONSOLE OR DCT$->NI$DCT.DFLG.SYMBIONT THEN DO;

  15683  1 001724   200131 471500                    LDP1    DCT$,,AUTO
         1 001725   100006 236100                    LDQ     6,,PR1
         1 001726   040000 316007                    CANQ    16384,DL
         1 001727   001732 601000 1                  TNZ     s:15684
         1 001730   020000 316007                    CANQ    8192,DL
         1 001731   002352 600000 1                  TZE     s:15768

      533    15684    5                       DCT$->NI$DCT.DFLG.CM='1'B;

  15684  1 001732   100000 236007                    LDQ     32768,DL
         1 001733   100006 256100                    ORSQ    6,,PR1

      534    15685    5                       CALL NKL$GETDCT (LDCT$) ALTRET (SCNPP);

  15685  1 001734   200130 631500                    EPPR1   LDCT$,,AUTO
PL6.E3A0      #001=ITX$INITS File=ITX$INITS.:E05TSI                              TUE 07/29/97 23:10 Page:86
         1 001735   200150 451500                    STP1    R$+2,,AUTO
         1 001736   200150 630500                    EPPR0   R$+2,,AUTO
         1 001737   000017 631400 xsym               EPPR1   B_VECTNIL+15
         1 001740   000000 701000 xent               TSX1    NKL$GETDCT
         1 001741   002361 702000 1                  TSX2    SCNPP

      535    15686    5                       CALL NIQ$GET (Q$) ALTRET (SCNPP);

  15686  1 001742   200127 630500                    EPPR0   Q$,,AUTO
         1 001743   200150 450500                    STP0    R$+2,,AUTO
         1 001744   200150 630500                    EPPR0   R$+2,,AUTO
         1 001745   000017 631400 xsym               EPPR1   B_VECTNIL+15
         1 001746   000000 701000 xent               TSX1    NIQ$GET
         1 001747   002361 702000 1                  TSX2    SCNPP

      536    15687    5                       LDCT$->LDCT.IOQ$=Q$;

  15687  1 001750   200127 236100                    LDQ     Q$,,AUTO
         1 001751   200130 470500                    LDP0    LDCT$,,AUTO
         1 001752   000001 756100                    STQ     1,,PR0

      537    15688    5                       LDCT$->LDCT.DEVNM=DCT$->NI$DCT.DEVNM;

  15688  1 001753   200131 470500                    LDP0    DCT$,,AUTO
         1 001754   200130 471500                    LDP1    LDCT$,,AUTO
         1 001755   040100 100500                    MLR     fill='040'O
         1 001756   000002 000010                    ADSC9   2,,PR0                   cn=0,n=8
         1 001757   100002 000010                    ADSC9   2,,PR1                   cn=0,n=8

      538    15689    5                       LDCT$->LDCT.DFLG=DCT$->NI$DCT.DFLG&NK_CGF;

  15689  1 001760   200131 470500                    LDP0    DCT$,,AUTO
         1 001761   000006 236100                    LDQ     6,,PR0
         1 001762   000022 736000                    QLS     18
         1 001763   777760 376003                    ANQ     -16,DU
         1 001764   742000 376003                    ANQ     -15360,DU
         1 001765   200130 471500                    LDP1    LDCT$,,AUTO
PL6.E3A0      #001=ITX$INITS File=ITX$INITS.:E05TSI                              TUE 07/29/97 23:10 Page:87
         1 001766   000022 772000                    QRL     18
         1 001767   100006 676100                    ERQ     6,,PR1
         1 001770   777760 376007                    ANQ     -16,DL
         1 001771   100006 656100                    ERSQ    6,,PR1

      539    15690    5                       LDCT$->LDCT.DFLG.LOCAL = '1'B;

  15690  1 001772   200130 470500                    LDP0    LDCT$,,AUTO
         1 001773   002000 236007                    LDQ     1024,DL
         1 001774   000006 256100                    ORSQ    6,,PR0

      540    15691    5                       LDCT$->LDCT.RLCID.LDCTX=DCT$->NI$DCT.DCTX;

  15691  1 001775   200131 470500                    LDP0    DCT$,,AUTO
         1 001776   000006 236100                    LDQ     6,,PR0
         1 001777   000025 772000                    QRL     21
         1 002000   000000 620006                    EAX0    0,QL
         1 002001   200130 471500                    LDP1    LDCT$,,AUTO
         1 002002   100015 440100                    SXL0    13,,PR1

      541    15692    5                       Q$->N$REQ.NOALT='1'B;

  15692  1 002003   200127 470500                    LDP0    Q$,,AUTO
         1 002004   100000 236007                    LDQ     32768,DL
         1 002005   000004 256100                    ORSQ    4,,PR0

      542    15693    5                       Q$->N$REQ.OPFLG=OP_EA|OP_BPF|OP_HOLD;

  15693  1 002006   200127 470500                    LDP0    Q$,,AUTO
         1 002007   000054 236007                    LDQ     44,DL
         1 002010   000004 552104                    STBQ    4,'04'O,PR0

      543    15694    5                       Q$->N$REQ.DLA.DCTX=DCT$->NI$DCT.DCTX;

  15694  1 002011   200131 470500                    LDP0    DCT$,,AUTO
         1 002012   200127 471500                    LDP1    Q$,,AUTO
         1 002013   000006 236100                    LDQ     6,,PR0
PL6.E3A0      #001=ITX$INITS File=ITX$INITS.:E05TSI                              TUE 07/29/97 23:10 Page:88
         1 002014   100001 676100                    ERQ     1,,PR1
         1 002015   777770 376003                    ANQ     -8,DU
         1 002016   100001 656100                    ERSQ    1,,PR1

      544    15695    5                       Q$->N$REQ.EAINFOP$=LDCT$;

  15695  1 002017   200130 236100                    LDQ     LDCT$,,AUTO
         1 002020   200127 470500                    LDP0    Q$,,AUTO
         1 002021   000024 756100                    STQ     20,,PR0

      545    15696    5                       RAT$=DCT$->NI$DCT.RAT$;

  15696  1 002022   200131 470500                    LDP0    DCT$,,AUTO
         1 002023   000005 236100                    LDQ     5,,PR0
         1 002024   200132 756100                    STQ     RAT$,,AUTO

      546    15697    5                       CALL CHARBIN (WSNX,SUBSTR(DCT$->NI$DCT.DEVNM,4,4));

  15697  1 002025   000100 305500                    DTB
         1 002026   000003 030004                    NDSC9   3,,PR0                   cn=0,s=nosgn,sf=0,n=4
         1 002027   200133 000004                    NDSC9   WSNX,,AUTO               cn=0,s=lsgnf,sf=0,n=4

      547    15698    5                       WTNM=IT_WSN(WSNX);

  15698  1 002030   200133 235100                    LDA     WSNX,,AUTO
         1 002031   000003 735000                    ALS     3
         1 002032   040100 100405                    MLR     fill='040'O
         1 002033   000000 000010 xsym               ADSC9   IT_WSN,A                 cn=0,n=8
         1 002034   200134 000010                    ADSC9   WTNM,,AUTO               cn=0,n=8

      548    15699    5                       KL$PCD='0'B;

  15699  1 002035   000100 100400                    MLR     fill='000'O
         1 002036   000002 000001 xsym               ADSC9   B_VECTNIL+2              cn=0,n=1
         1 002037   200003 000420                    ADSC9   KL$PCD,,AUTO             cn=0,n=272

      549    15700    5                       KL$PCD.CGINFO=CINFO;
PL6.E3A0      #001=ITX$INITS File=ITX$INITS.:E05TSI                              TUE 07/29/97 23:10 Page:89

  15700  1 002040   000100 100400                    MLR     fill='000'O
         1 002041   000000 000130 0                  ADSC9   CINFO                    cn=0,n=88
         1 002042   200036 000244                    ADSC9   KL$PCD+27,,AUTO          cn=0,n=164

      550    15701    5                       KL$PCD.ADDD.ACTYP=%KLAC_NONE;

  15701  1 002043   000000 236003                    LDQ     0,DU
         1 002044   200003 552140                    STBQ    KL$PCD,'40'O,AUTO

      551    15702    5                       KL$PCD.ADDD.ATYP=%KLAT_CG#;

  15702  1 002045   000002 236003                    LDQ     2,DU
         1 002046   200003 552120                    STBQ    KL$PCD,'20'O,AUTO

      552    15703    5                       KL$PCD.ADDD.DEVNM=DCT$->NI$DCT.DEVNM;

  15703  1 002047   040100 100500                    MLR     fill='040'O
         1 002050   000002 000010                    ADSC9   2,,PR0                   cn=0,n=8
         1 002051   200010 400010                    ADSC9   KL$PCD+5,,AUTO           cn=2,n=8

      553    15704    5                       KL$PCD.CGINFO.WHO.ACCT = KL$PCD.ADDD.DEVNM;

  15704  1 002052   040100 100500                    MLR     fill='040'O
         1 002053   200010 400010                    ADSC9   KL$PCD+5,,AUTO           cn=2,n=8
         1 002054   200041 000010                    ADSC9   KL$PCD+30,,AUTO          cn=0,n=8

      554    15705    5                       KL$PCD.ADDD.TNAME=WTNM;

  15705  1 002055   040100 100500                    MLR     fill='040'O
         1 002056   200134 000010                    ADSC9   WTNM,,AUTO               cn=0,n=8
         1 002057   200012 400010                    ADSC9   KL$PCD+7,,AUTO           cn=2,n=8

      555    15706    5                       KL$PCD.ADDD.ASSOCTRM=IT_TXT_LOCAL;

  15706  1 002060   040100 100400                    MLR     fill='040'O
         1 002061   000000 000005 xsym               ADSC9   IT_TXT_LOCAL             cn=0,n=5
PL6.E3A0      #001=ITX$INITS File=ITX$INITS.:E05TSI                              TUE 07/29/97 23:10 Page:90
         1 002062   200014 400010                    ADSC9   KL$PCD+9,,AUTO           cn=2,n=8

      556    15707    5                       KL$PCD.ADDD.TWSN=KL$PCD.ADDD.DTW.TW;

  15707  1 002063   040100 100500                    MLR     fill='040'O
         1 002064   200011 400004                    ADSC9   KL$PCD+6,,AUTO           cn=2,n=4
         1 002065   200016 400004                    ADSC9   KL$PCD+11,,AUTO          cn=2,n=4

      557    15708    5                       KL$PCD.ADDD.LDINFO.LDCTX=LDCT$->LDCT.LDCTX;

  15708  1 002066   200130 471500                    LDP1    LDCT$,,AUTO
         1 002067   100006 220100                    LDX0    6,,PR1
         1 002070   200017 440100                    SXL0    KL$PCD+12,,AUTO

      558    15709    6                       IF LDCT$->LDCT.DFLG.CONSOLE THEN DO;

  15709  1 002071   100006 236100                    LDQ     6,,PR1
         1 002072   040000 316007                    CANQ    16384,DL
         1 002073   002153 600000 1                  TZE     s:15726

      559    15710    6                            KL$PCD.CGID=KC_OCID;

  15710  1 002074   000100 100400                    MLR     fill='000'O
         1 002075   000000 000060 xsym               ADSC9   KC_OCID                  cn=0,n=48
         1 002076   200022 000060                    ADSC9   KL$PCD+15,,AUTO          cn=0,n=48

      560    15711    6                            KL$PCD.CGINFO.WIDTH=80;

  15711  1 002077   000120 221003                    LDX1    80,DU
         1 002100   200036 741100                    STX1    KL$PCD+27,,AUTO

      561    15712    6                            KL$PCD.CGINFO.FLG.INPUT='1'B;

  15712  1 002101   400000 236003                    LDQ     -131072,DU
         1 002102   200046 256100                    ORSQ    KL$PCD+35,,AUTO

      562    15713    6                            KL$PCD.CGINFO.FLG.OUTPUT='1'B;
PL6.E3A0      #001=ITX$INITS File=ITX$INITS.:E05TSI                              TUE 07/29/97 23:10 Page:91

  15713  1 002103   200000 236003                    LDQ     65536,DU
         1 002104   200046 256100                    ORSQ    KL$PCD+35,,AUTO

      563    15714    6                           ADDR(KL$PCD.CGINFO.XTRAINFO)->OCI=DCT$->NI$DCT.SC.OCINFO$->
             15714                                     OCI;

  15714  1 002105   000030 473500                    LDP3    24,,PR0
         1 002106   000100 100500                    MLR     fill='000'O
         1 002107   300000 000160                    ADSC9   0,,PR3                   cn=0,n=112
         1 002110   200047 000160                    ADSC9   KL$PCD+36,,AUTO          cn=0,n=112

      564    15715    6                            KL$PCD.CGINFO.NWINFO=SIZEW(OCI)+((ADDR(KL$PCD.CGINFO.
             15715                                     XTRAINFO)->OCI.CMDCNT+3)/4)-SIZEW(OCI.CMD);

  15715  1 002111   200056 236100                    LDQ     KL$PCD+43,,AUTO
         1 002112   000003 036007                    ADLQ    3,DL
         1 002113   000002 772000                    QRL     2
         1 002114   000010 036007                    ADLQ    8,DL
         1 002115   200046 552104                    STBQ    KL$PCD+35,'04'O,AUTO

      565    15716    6                            Q$->N$REQ.EAENTRY=ENTADDR(KCL$WRTEA);

  15716  1 002116   000000 636000 xent               EAQ     KCL$WRTEA
         1 002117   200127 473500                    LDP3    Q$,,AUTO
         1 002120   300023 756100                    STQ     19,,PR3

      566    15717    6                            IF DCT$->NI$DCT.STATUS.DOWN='0'B THEN CALL NIO$SPINTCON (
             15717                                     DCT$->NI$DCT.DCTX,ENTADDR(KCL$OCINT),LDCT$);

  15717  1 002121   200131 470500                    LDP0    DCT$,,AUTO
         1 002122   000027 234100                    SZN     23,,PR0
         1 002123   002141 604000 1                  TMI     s:15719

  15717  1 002124   000000 636000 xent               EAQ     KCL$OCINT
         1 002125   200150 756100                    STQ     R$+2,,AUTO
         1 002126   200130 631500                    EPPR1   LDCT$,,AUTO
PL6.E3A0      #001=ITX$INITS File=ITX$INITS.:E05TSI                              TUE 07/29/97 23:10 Page:92
         1 002127   200153 451500                    STP1    R$+5,,AUTO
         1 002130   200150 633500                    EPPR3   R$+2,,AUTO
         1 002131   200152 453500                    STP3    R$+4,,AUTO
         1 002132   200131 236100                    LDQ     DCT$,,AUTO
         1 002133   000006 036003                    ADLQ    6,DU
         1 002134   200151 756100                    STQ     R$+3,,AUTO
         1 002135   200151 630500                    EPPR0   R$+3,,AUTO
         1 002136   000021 631400 xsym               EPPR1   B_VECTNIL+17
         1 002137   000000 701000 xent               TSX1    NIO$SPINTCON
         1 002140   000000 011000                    NOP     0

      567    15718                            /* If we have not saved a hog entry yet save this one */
      568    15719    6                            IF I = B_SCDCTX

  15719  1 002141   200114 236100                    LDQ     I,,AUTO
         1 002142   002300 604000 1                  TMI     s:15757
         1 002143   000000 116000 xsym               CMPQ    B_SCDCTX
         1 002144   002300 601000 1                  TNZ     s:15757

      569    15720    7                            THEN DO;

      570    15721    7                                 KC_HOG$ = LDCT$;

  15721  1 002145   200130 236100                    LDQ     LDCT$,,AUTO
         1 002146   000000 756000 xsym               STQ     KC_HOG$

      571    15722    7                                 KC_HOG_INFO = KL$PCD.CGINFO;

  15722  1 002147   000000 100500                    MLR     fill='000'O
         1 002150   200036 000224                    ADSC9   KL$PCD+27,,AUTO          cn=0,n=148
         1 002151   000000 000224 xsym               ADSC9   KC_HOG_INFO              cn=0,n=148

      572    15723    7                               END;

      573    15724    6                          END;

  15724  1 002152   002300 710000 1                  TRA     s:15757
PL6.E3A0      #001=ITX$INITS File=ITX$INITS.:E05TSI                              TUE 07/29/97 23:10 Page:93

      574    15725    6                       ELSE DO;

      575    15726    6                            LDCT$->LDCT.RAT$=RAT$;

  15726  1 002153   200132 236100                    LDQ     RAT$,,AUTO
         1 002154   100005 756100                    STQ     5,,PR1

      576    15727    6                            RAT$->FR$RAT.RES.RFLG.NOSLD='1'B;

  15727  1 002155   200132 470500                    LDP0    RAT$,,AUTO
         1 002156   010000 236003                    LDQ     4096,DU
         1 002157   000003 256100                    ORSQ    3,,PR0

      577    15728    6                            RAT$->FR$RAT.RES.SISID=1;

  15728  1 002160   000001 220003                    LDX0    1,DU
         1 002161   200132 470500                    LDP0    RAT$,,AUTO
         1 002162   000001 740100                    STX0    1,,PR0

      578    15729    6                            RAT$->FR$RAT.FLG.SYMBIONT='1'B;

  15729  1 002163   200132 470500                    LDP0    RAT$,,AUTO
         1 002164   000001 236007                    LDQ     1,DL
         1 002165   000010 256100                    ORSQ    8,,PR0

      579    15730    7                            IF DCT$->NI$DCT.DFLG.OUTPUT THEN DO;

  15730  1 002166   200131 470500                    LDP0    DCT$,,AUTO
         1 002167   000006 236100                    LDQ     6,,PR0
         1 002170   200000 316007                    CANQ    65536,DL
         1 002171   002222 600000 1                  TZE     s:15742

      580    15731    7                                 KL$PCD.CGID=KC_OSID;

  15731  1 002172   000100 100400                    MLR     fill='000'O
         1 002173   000000 000060 xsym               ADSC9   KC_OSID                  cn=0,n=48
PL6.E3A0      #001=ITX$INITS File=ITX$INITS.:E05TSI                              TUE 07/29/97 23:10 Page:94
         1 002174   200022 000060                    ADSC9   KL$PCD+15,,AUTO          cn=0,n=48

      581    15732    7                                 KL$PCD.CGINFO.WIDTH=132;

  15732  1 002175   000204 221003                    LDX1    132,DU
         1 002176   200036 741100                    STX1    KL$PCD+27,,AUTO

      582    15733    7                                 KL$PCD.CGINFO.FLG.OUTPUT='1'B;

  15733  1 002177   200000 236003                    LDQ     65536,DU
         1 002200   200046 256100                    ORSQ    KL$PCD+35,,AUTO

      583    15734    7                                 KL$PCD.CGINFO.ATTR=RAT$->FR$RAT.M1;

  15734  1 002201   200132 471500                    LDP1    RAT$,,AUTO
         1 002202   100006 236100                    LDQ     6,,PR1
         1 002203   000011 772000                    QRL     9
         1 002204   200046 552130                    STBQ    KL$PCD+35,'30'O,AUTO

      584    15735    7                                 ADDR(KL$PCD.CGINFO.XTRAINFO)->OSI.UPLOCKED='1'B;

  15735  1 002205   400000 236003                    LDQ     -131072,DU
         1 002206   200047 256100                    ORSQ    KL$PCD+36,,AUTO

      585    15736    7                                 ADDR(KL$PCD.CGINFO.XTRAINFO)->OSI.FNAME=RAT$->FR$RAT.
             15736                                          REEL.SER;

  15736  1 002207   040100 100500                    MLR     fill='040'O
         1 002210   100004 400006                    ADSC9   4,,PR1                   cn=2,n=6
         1 002211   200050 000006                    ADSC9   KL$PCD+37,,AUTO          cn=0,n=6

      586    15737    7                                 ADDR(KL$PCD.CGINFO.XTRAINFO)->OSI.TNAME=WTNM;

  15737  1 002212   200134 237100                    LDAQ    WTNM,,AUTO
         1 002213   200052 757100                    STAQ    KL$PCD+39,,AUTO

      587    15738    7                                 KL$PCD.CGINFO.NWINFO=SIZEW(OSI);
PL6.E3A0      #001=ITX$INITS File=ITX$INITS.:E05TSI                              TUE 07/29/97 23:10 Page:95

  15738  1 002214   000005 236007                    LDQ     5,DL
         1 002215   200046 552104                    STBQ    KL$PCD+35,'04'O,AUTO

      588    15739    7                                 Q$->N$REQ.EAENTRY=ENTADDR(KCL$WRTEA);

  15739  1 002216   000000 636000 xent               EAQ     KCL$WRTEA
         1 002217   200127 473500                    LDP3    Q$,,AUTO
         1 002220   300023 756100                    STQ     19,,PR3

      589    15740    7                               END;

  15740  1 002221   002300 710000 1                  TRA     s:15757

      590    15741    7                            ELSE DO;

      591    15742    7                                 KL$PCD.CGID=KC_ISID;

  15742  1 002222   000100 100400                    MLR     fill='000'O
         1 002223   000000 000060 xsym               ADSC9   KC_ISID                  cn=0,n=48
         1 002224   200022 000060                    ADSC9   KL$PCD+15,,AUTO          cn=0,n=48

      592    15743    7                                 KL$PCD.CGINFO.FLG.INPUT='1'B;

  15743  1 002225   400000 236003                    LDQ     -131072,DU
         1 002226   200046 256100                    ORSQ    KL$PCD+35,,AUTO

      593    15744    7                                 KL$PCD.CGINFO.ATTR=RAT$->FR$RAT.M1;

  15744  1 002227   200132 471500                    LDP1    RAT$,,AUTO
         1 002230   100006 236100                    LDQ     6,,PR1
         1 002231   000011 772000                    QRL     9
         1 002232   200046 552130                    STBQ    KL$PCD+35,'30'O,AUTO

      594    15745    7                                 ADDR(KL$PCD.CGINFO.XTRAINFO)->ISI.NCTLOK='1'B;

  15745  1 002233   200000 236003                    LDQ     65536,DU
PL6.E3A0      #001=ITX$INITS File=ITX$INITS.:E05TSI                              TUE 07/29/97 23:10 Page:96
         1 002234   200047 256100                    ORSQ    KL$PCD+36,,AUTO

      595    15746    7                                 ADDR(KL$PCD.CGINFO.XTRAINFO)->ISI.MXPRI=511;

  15746  1 002235   000777 236007                    LDQ     511,DL
         1 002236   200047 552104                    STBQ    KL$PCD+36,'04'O,AUTO

      596    15747    7                                 ADDR(KL$PCD.CGINFO.XTRAINFO)->ISI.DFLTPRI=511;

  15747  1 002237   777000 236007                    LDQ     -512,DL
         1 002240   200047 552110                    STBQ    KL$PCD+36,'10'O,AUTO

      597    15748    7                                 ADDR(KL$PCD.CGINFO.XTRAINFO)->ISI.NCACCT=':NCTL';

  15748  1 002241   040100 100400                    MLR     fill='040'O
         1 002242   000102 000005 0                  ADSC9   CURMSG+16                cn=0,n=5
         1 002243   200050 000010                    ADSC9   KL$PCD+37,,AUTO          cn=0,n=8

      598    15749    7                                 ADDR(KL$PCD.CGINFO.XTRAINFO)->ISI.TNAME=WTNM;

  15749  1 002244   200134 237100                    LDAQ    WTNM,,AUTO
         1 002245   200076 757100                    STAQ    KL$PCD+59,,AUTO

      599    15750    7                                 ADDR(KL$PCD.CGINFO.XTRAINFO)->ISI.WSN=WTNM;

  15750  1 002246   200134 237100                    LDAQ    WTNM,,AUTO
         1 002247   200100 757100                    STAQ    KL$PCD+61,,AUTO

      600    15751    7                                 KL$PCD.CGINFO.NWINFO=SIZEW(ISI);

  15751  1 002250   000033 236007                    LDQ     27,DL
         1 002251   200046 552104                    STBQ    KL$PCD+35,'04'O,AUTO

      601    15752    7                                 Q$->N$REQ.EAENTRY=ENTADDR(KCL$RDEA);

  15752  1 002252   000000 636000 xent               EAQ     KCL$RDEA
         1 002253   200127 473500                    LDP3    Q$,,AUTO
PL6.E3A0      #001=ITX$INITS File=ITX$INITS.:E05TSI                              TUE 07/29/97 23:10 Page:97
         1 002254   300023 756100                    STQ     19,,PR3

      602    15753    7                                 Q$->N$REQ.FC=%N_READ;

  15753  1 002255   200127 470500                    LDP0    Q$,,AUTO
         1 002256   000014 236007                    LDQ     12,DL
         1 002257   000003 552104                    STBQ    3,'04'O,PR0

      603    15754    7                                 IF DCT$->NI$DCT.STATUS.DOWN='0'B THEN CALL
             15754                                         NIO$SPINTCON (DCT$->NI$DCT.DCTX,ENTADDR(KCL$ININT)
             15754                                          ,LDCT$);

  15754  1 002260   200131 470500                    LDP0    DCT$,,AUTO
         1 002261   000027 234100                    SZN     23,,PR0
         1 002262   002300 604000 1                  TMI     s:15757

  15754  1 002263   000000 636000 xent               EAQ     KCL$ININT
         1 002264   200150 756100                    STQ     R$+2,,AUTO
         1 002265   200130 631500                    EPPR1   LDCT$,,AUTO
         1 002266   200153 451500                    STP1    R$+5,,AUTO
         1 002267   200150 633500                    EPPR3   R$+2,,AUTO
         1 002270   200152 453500                    STP3    R$+4,,AUTO
         1 002271   200131 236100                    LDQ     DCT$,,AUTO
         1 002272   000006 036003                    ADLQ    6,DU
         1 002273   200151 756100                    STQ     R$+3,,AUTO
         1 002274   200151 630500                    EPPR0   R$+3,,AUTO
         1 002275   000021 631400 xsym               EPPR1   B_VECTNIL+17
         1 002276   000000 701000 xent               TSX1    NIO$SPINTCON
         1 002277   000000 011000                    NOP     0

      604    15755    7                               END;

      605    15756    6                          END;

      606    15757    5                       LDCT$->LDCT.LNK$=KC_NOCG$;

  15757  1 002300   000000 236000 xsym               LDQ     KC_NOCG$
PL6.E3A0      #001=ITX$INITS File=ITX$INITS.:E05TSI                              TUE 07/29/97 23:10 Page:98
         1 002301   200130 470500                    LDP0    LDCT$,,AUTO
         1 002302   000004 756100                    STQ     4,,PR0

      607    15758    5                       KC_NOCG$=LDCT$;

  15758  1 002303   200130 236100                    LDQ     LDCT$,,AUTO
         1 002304   000000 756000 xsym               STQ     KC_NOCG$

      608    15759    6                       IF DCT$->NI$DCT.STATUS.DOWN THEN DO;

  15759  1 002305   200131 470500                    LDP0    DCT$,,AUTO
         1 002306   000027 234100                    SZN     23,,PR0
         1 002307   002321 605000 1                  TPL     s:15763

      609    15760    6                            LDCT$->LDCT.RESCOD=NK_PART;

  15760  1 002310   200130 471500                    LDP1    LDCT$,,AUTO
         1 002311   100006 236100                    LDQ     6,,PR1
         1 002312   000023 376000 2                  ANQ     19
         1 002313   000007 276007                    ORQ     7,DL
         1 002314   100006 756100                    STQ     6,,PR1

      610    15761    6                            DCT$->NI$DCT.DFLG.CM='0'B;

  15761  1 002315   200131 470500                    LDP0    DCT$,,AUTO
         1 002316   000054 236000 2                  LDQ     44
         1 002317   000006 356100                    ANSQ    6,,PR0

      611    15762    6                          END;

  15762  1 002320   002326 710000 1                  TRA     s:15764

      612    15763    5                       ELSE LDCT$->LDCT.RESCOD=NK_NOCG;

  15763  1 002321   200130 471500                    LDP1    LDCT$,,AUTO
         1 002322   100006 236100                    LDQ     6,,PR1
         1 002323   000023 376000 2                  ANQ     19
PL6.E3A0      #001=ITX$INITS File=ITX$INITS.:E05TSI                              TUE 07/29/97 23:10 Page:99
         1 002324   000006 276007                    ORQ     6,DL
         1 002325   100006 756100                    STQ     6,,PR1

      613    15764    5                       WSNX=SIZEW(KL$PCD)+KL$PCD.CGINFO.NWINFO-SIZEW(KL$PCD.CGINFO.
             15764                                XTRAINFO);

  15764  1 002326   200046 236100                    LDQ     KL$PCD+35,,AUTO
         1 002327   000777 376007                    ANQ     511,DL
         1 002330   000044 036007                    ADLQ    36,DL
         1 002331   200133 756100                    STQ     WSNX,,AUTO

      614    15765    5                       CALL ELA$SYSLOG (EL_CONN,KL$PCD,WSNX,'0'B,2,Q$) ALTRET (SCNPP);

  15765  1 002332   200127 630500                    EPPR0   Q$,,AUTO
         1 002333   200155 450500                    STP0    R$+7,,AUTO
         1 002334   000046 236000 2                  LDQ     38
         1 002335   200154 756100                    STQ     R$+6,,AUTO
         1 002336   000024 236000 2                  LDQ     20
         1 002337   200153 756100                    STQ     R$+5,,AUTO
         1 002340   200133 631500                    EPPR1   WSNX,,AUTO
         1 002341   200152 451500                    STP1    R$+4,,AUTO
         1 002342   200003 633500                    EPPR3   KL$PCD,,AUTO
         1 002343   200151 453500                    STP3    R$+3,,AUTO
         1 002344   000000 236000 2                  LDQ     0
         1 002345   200150 756100                    STQ     R$+2,,AUTO
         1 002346   200150 630500                    EPPR0   R$+2,,AUTO
         1 002347   000024 631400 xsym               EPPR1   B_VECTNIL+20
         1 002350   000000 701000 xent               TSX1    ELA$SYSLOG
         1 002351   002361 702000 1                  TSX2    SCNPP

      615    15766    5                     END;

      616    15767    4                END;

      617    15768    3           END;

  15768  1 002352   200114 054100                    AOS     I,,AUTO
PL6.E3A0      #001=ITX$INITS File=ITX$INITS.:E05TSI                              TUE 07/29/97 23:10 Page:100
         1 002353   000000 236000 xsym               LDQ     NK_MXLOCAL
         1 002354   001716 604000 1                  TMI     s:15681
         1 002355   200114 116100                    CMPQ    I,,AUTO
         1 002356   001716 605000 1                  TPL     s:15681

      618    15769    2        RETURN;

  15769  1 002357   200144 221300                    LDX1  ! TEMP_FEP_ERA+1,,AUTO
         1 002360   000001 702211                    TSX2  ! 1,X1

  15764  1 002361                       SCNPP        null
      619    15770        /**/
      620    15771    2   SCNPP: ;
      621    15772    2        CALL SC_NLCLPP;

  15772  1 002361   000000 713400 xsym               CLIMB   SC_NLCLPP
         1 002362   000000 600000 xsid               climb   nvectors=         0

      622    15773        /*S*  SCREECH_CODE:  KCL-S$NLCLPP
      623    15774              TYPE:          Screech
      624    15775              MESSAGE:       Cant get physical page for local device comgroup LDCTs
      625    15776              REMARKS:       During initialization, LDCT entries are obtained for
      626    15777                             local consoles and symbiont devices to represent them
      627    15778                             on comgroups.  This screech occurs if these LDCTs
      628    15779                             cannot be obtained.  The only reason for this is
      629    15780                             that no memory is available, thus suspect an MM bug.
      630    15781                             It may be possible to give TIGR a number small enough
      631    15782                             to cause this screech.                                  */
      632    15783    2   END CGINIT;

  15783  1 002363   200144 221300                    LDX1  ! TEMP_FEP_ERA+1,,AUTO
         1 002364   000001 702211                    TSX2  ! 1,X1

      633    15784        /**/
      634    15785    1   RESINIT: PROC ALTRET;

  15785  1 002365   200144 741300       RESINIT      STX1  ! TEMP_FEP_ERA+1,,AUTO
PL6.E3A0      #001=ITX$INITS File=ITX$INITS.:E05TSI                              TUE 07/29/97 23:10 Page:101

  15785  1 002366                       GTTPE        null
      635    15786        /**/
      636    15787    2   GTTPE: ;
      637    15788    3   GTT: DO I = 0 TO NI_IOMS-1;

  15788  1 002366   200114 450100       GTT          STZ     I,,AUTO
         1 002367   002405 710000 1                  TRA     s:15792+1

      638    15789    3             IF NI$IOM$(I) ~= ADDR(NIL) THEN IF NI$IOM$(I)->NI$IOM.ADDRESS

  15789  1 002370   200114 720100                    LXL0    I,,AUTO
         1 002371   000000 236010 xsym               LDQ     NI$IOM$,X0
         1 002372   000001 116000 xsym               CMPQ    B_VECTNIL+1
         1 002373   002404 600000 1                  TZE     s:15792

  15789  1 002374   000000 470410 xsym               LDP0    NI$IOM$,X0
         1 002375   000000 236000 xsym               LDQ     FM_POTAPE
         1 002376   000033 772000                    QRL     27
         1 002377   200150 756100                    STQ     R$+2,,AUTO
         1 002400   000003 236100                    LDQ     3,,PR0
         1 002401   000007 376007                    ANQ     7,DL
         1 002402   200150 116100                    CMPQ    R$+2,,AUTO
         1 002403   002411 600000 1                  TZE     GOTIOM

      639    15790    3                       = FM_POTAPE.PORT THEN
      640    15791    3                       GOTO GOTIOM;
      641    15792    3           END;

  15792  1 002404   200114 054100                    AOS     I,,AUTO
         1 002405   200114 236100                    LDQ     I,,AUTO
         1 002406   000000 116000 xsym               CMPQ    NI_IOMS
         1 002407   002370 604000 1                  TMI     s:15789

      642    15793    2        GOTO RTN;

  15793  1 002410   002501 710000 1                  TRA     RTN
PL6.E3A0      #001=ITX$INITS File=ITX$INITS.:E05TSI                              TUE 07/29/97 23:10 Page:102

      643    15794    2   GOTIOM: IF NI$CHT$->NI$CHT.DQH$(I*%N_MAXCHANS+FM_POTAPE.CHN) = ADDR(NIL) THEN

  15794  1 002411   000000 236000 xsym  GOTIOM       LDQ     FM_POTAPE
         1 002412   000022 772000                    QRL     18
         1 002413   000777 376007                    ANQ     511,DL
         1 002414   200150 756100                    STQ     R$+2,,AUTO
         1 002415   200114 236100                    LDQ     I,,AUTO
         1 002416   000007 736000                    QLS     7
         1 002417   200150 036100                    ADLQ    R$+2,,AUTO
         1 002420   000001 736000                    QLS     1
         1 002421   000000 471400 xsym               LDP1    NI$CHT$
         1 002422   100000 236106                    LDQ     0,QL,PR1
         1 002423   000001 116000 xsym               CMPQ    B_VECTNIL+1
         1 002424   002501 600000 1                  TZE     RTN

      644    15795    2             GOTO RTN;
      645    15796    2        SQH$=NI$CHT$->NI$CHT.DQH$(I*%N_MAXCHANS+FM_POTAPE.CHN)->NI$DQH.SQH$;

  15796  1 002425   000000 236000 xsym               LDQ     FM_POTAPE
         1 002426   000022 772000                    QRL     18
         1 002427   000777 376007                    ANQ     511,DL
         1 002430   200150 756100                    STQ     R$+2,,AUTO
         1 002431   200114 236100                    LDQ     I,,AUTO
         1 002432   000007 736000                    QLS     7
         1 002433   200150 036100                    ADLQ    R$+2,,AUTO
         1 002434   000001 736000                    QLS     1
         1 002435   100000 473506                    LDP3    0,QL,PR1
         1 002436   300013 236100                    LDQ     11,,PR3
         1 002437   200137 756100                    STQ     SQH$,,AUTO

      646    15797    3        DO I = SQH$->NI$SQH.FDCT TO SQH$->NI$SQH.FDCT+SQH$->NI$SQH.NDCT-1;

  15797  1 002440   200137 473500                    LDP3    SQH$,,AUTO
         1 002441   300002 236100                    LDQ     2,,PR3
         1 002442   000022 772000                    QRL     18
         1 002443   200114 756100                    STQ     I,,AUTO
PL6.E3A0      #001=ITX$INITS File=ITX$INITS.:E05TSI                              TUE 07/29/97 23:10 Page:103
         1 002444   002467 710000 1                  TRA     s:15800+1

      647    15798    3             IF N$DCT$(I)->NI$DCT.DVN = FM_POTAPE.DVN AND N$DCT$(I)->NI$DCT.TYPE = %
             15798                      DV_MT THEN

  15798  1 002445   000000 470400 xsym               LDP0    N$DCT$$
         1 002446   200114 720100                    LXL0    I,,AUTO
         1 002447   000000 471510                    LDP1    0,X0,PR0
         1 002450   000000 236000 xsym               LDQ     FM_POTAPE
         1 002451   000011 772000                    QRL     9
         1 002452   000777 376007                    ANQ     511,DL
         1 002453   200150 756100                    STQ     R$+2,,AUTO
         1 002454   100007 236100                    LDQ     7,,PR1
         1 002455   000030 772000                    QRL     24
         1 002456   000077 376007                    ANQ     63,DL
         1 002457   200150 116100                    CMPQ    R$+2,,AUTO
         1 002460   002466 601000 1                  TNZ     s:15800
         1 002461   000000 471510                    LDP1    0,X0,PR0
         1 002462   100007 236100                    LDQ     7,,PR1
         1 002463   007700 376007                    ANQ     4032,DL
         1 002464   000400 116007                    CMPQ    256,DL
         1 002465   002503 600000 1                  TZE     GTIT

      648    15799    3                  GOTO GTIT;
      649    15800    3           END;

  15800  1 002466   200114 054100                    AOS     I,,AUTO
         1 002467   200137 470500                    LDP0    SQH$,,AUTO
         1 002470   000002 236100                    LDQ     2,,PR0
         1 002471   777777 376007                    ANQ     -1,DL
         1 002472   200150 756100                    STQ     R$+2,,AUTO
         1 002473   000002 236100                    LDQ     2,,PR0
         1 002474   000022 772000                    QRL     18
         1 002475   200150 036100                    ADLQ    R$+2,,AUTO
         1 002476   002445 604000 1                  TMI     s:15798
         1 002477   200114 116100                    CMPQ    I,,AUTO
         1 002500   002445 605400 1                  TPNZ    s:15798
PL6.E3A0      #001=ITX$INITS File=ITX$INITS.:E05TSI                              TUE 07/29/97 23:10 Page:104

      650    15801    2   RTN: ;

  15801  1 002501                       RTN          null
      651    15802    2        RETURN;

  15802  1 002501   200144 221300                    LDX1  ! TEMP_FEP_ERA+1,,AUTO
         1 002502   000001 702211                    TSX2  ! 1,X1

      652    15803    2   GTIT: CALL FRZ$GETRES ('MT',N$DCT$(I)->NI$DCT.RAT$->FR$RAT.M1,

  15803  1 002503   100005 473500       GTIT         LDP3    5,,PR1
         1 002504   200132 634500                    EPPR4   RAT$,,AUTO
         1 002505   200154 454500                    STP4    R$+6,,AUTO
         1 002506   000056 237000 2                  LDAQ    46
         1 002507   200152 757100                    STAQ    R$+4,,AUTO
         1 002510   300006 631500                    EPPR1   6,,PR3
         1 002511   200151 451500                    STP1    R$+3,,AUTO
         1 002512   000055 236000 2                  LDQ     45
         1 002513   200150 756100                    STQ     R$+2,,AUTO
         1 002514   200150 630500                    EPPR0   R$+2,,AUTO
         1 002515   000023 631400 xsym               EPPR1   B_VECTNIL+19
         1 002516   000000 701000 xent               TSX1    FRZ$GETRES
         1 002517   002501 702000 1                  TSX2    RTN

      653    15804    2             JG_SLUG#,%M_GHOST#,RAT$) ALTRET (RTN);
      654    15805    2        RAT$->FR$RAT.RES.NUMB='01';

  15805  1 002520   000105 220000 0                  LDX0    CURMSG+19
         1 002521   200132 470500                    LDP0    RAT$,,AUTO
         1 002522   000001 440100                    SXL0    1,,PR0

      655    15806    2        RAT$=N$DCT$(I)->NK$LDCT.RAT$;

  15806  1 002523   000000 470400 xsym               LDP0    N$DCT$$
         1 002524   200114 721100                    LXL1    I,,AUTO
         1 002525   000000 471511                    LDP1    0,X1,PR0
PL6.E3A0      #001=ITX$INITS File=ITX$INITS.:E05TSI                              TUE 07/29/97 23:10 Page:105
         1 002526   100005 236100                    LDQ     5,,PR1
         1 002527   200132 756100                    STQ     RAT$,,AUTO

      656    15807    2        RAT$->FR$RAT.REEL.SER='CP6PO1';

  15807  1 002530   200132 471500                    LDP1    RAT$,,AUTO
         1 002531   040100 100400                    MLR     fill='040'O
         1 002532   000106 000006 0                  ADSC9   CURMSG+20                cn=0,n=6
         1 002533   100004 400006                    ADSC9   4,,PR1                   cn=2,n=6

      657    15808    2        RAT$->FR$RAT.FLG.RUP='1'B;

  15808  1 002534   200132 471500                    LDP1    RAT$,,AUTO
         1 002535   000004 236007                    LDQ     4,DL
         1 002536   100010 256100                    ORSQ    8,,PR1

      658    15809    2        DDT$=N$DCT$(I)->NK$LDCT.DDT$;

  15809  1 002537   200114 721100                    LXL1    I,,AUTO
         1 002540   000000 471511                    LDP1    0,X1,PR0
         1 002541   100004 236100                    LDQ     4,,PR1
         1 002542   200136 756100                    STQ     DDT$,,AUTO

      659    15810    2        DDT$->FT$DDT.ANST='1'B;

  15810  1 002543   200136 473500                    LDP3    DDT$,,AUTO
         1 002544   400000 236007                    LDQ     -131072,DL
         1 002545   300006 256100                    ORSQ    6,,PR3

      660    15811    2        DDT$->FT$DDT.POS = FTP_HDR#;

  15811  1 002546   300006 236100                    LDQ     6,,PR3
         1 002547   000060 376000 2                  ANQ     48
         1 002550   000040 276007                    ORQ     32,DL
         1 002551   300006 756100                    STQ     6,,PR3

      661    15812    2        CALL NIQ$GET(Q$);
PL6.E3A0      #001=ITX$INITS File=ITX$INITS.:E05TSI                              TUE 07/29/97 23:10 Page:106

  15812  1 002552   200127 631500                    EPPR1   Q$,,AUTO
         1 002553   200150 451500                    STP1    R$+2,,AUTO
         1 002554   200150 630500                    EPPR0   R$+2,,AUTO
         1 002555   000017 631400 xsym               EPPR1   B_VECTNIL+15
         1 002556   000000 701000 xent               TSX1    NIQ$GET
         1 002557   000000 011000                    NOP     0

      662    15813    2        Q$->N$REQ.DLA.DCTX=I;

  15813  1 002560   200127 470500                    LDP0    Q$,,AUTO
         1 002561   200114 236100                    LDQ     I,,AUTO
         1 002562   000025 736000                    QLS     21
         1 002563   000001 676100                    ERQ     1,,PR0
         1 002564   777770 376003                    ANQ     -8,DU
         1 002565   000001 656100                    ERSQ    1,,PR0

      663    15814    2        Q$->N$REQ.OPFLG.HOLD='1'B;

  15814  1 002566   200127 470500                    LDP0    Q$,,AUTO
         1 002567   000004 236007                    LDQ     4,DL
         1 002570   000004 256100                    ORSQ    4,,PR0

      664    15815    2        Q$->N$REQ.FC=%N_SPFILE;

  15815  1 002571   200127 470500                    LDP0    Q$,,AUTO
         1 002572   000017 236007                    LDQ     15,DL
         1 002573   000003 552104                    STBQ    3,'04'O,PR0

      665    15816    2        Q$->N$REQ.RCT=1;

  15816  1 002574   000001 220003                    LDX0    1,DU
         1 002575   200127 470500                    LDP0    Q$,,AUTO
         1 002576   000030 440100                    SXL0    24,,PR0

      666    15817    2        CALL NIO$QUE(Q$->N$REQ);

PL6.E3A0      #001=ITX$INITS File=ITX$INITS.:E05TSI                              TUE 07/29/97 23:10 Page:107
  15817  1 002577   200127 630500                    EPPR0   Q$,,AUTO
         1 002600   000017 631400 xsym               EPPR1   B_VECTNIL+15
         1 002601   000000 701000 xent               TSX1    NIO$QUE
         1 002602   000000 011000                    NOP     0

      667    15818    2        CALL NIO$IOSPIN(Q$->N$REQ);

  15818  1 002603   200127 630500                    EPPR0   Q$,,AUTO
         1 002604   000017 631400 xsym               EPPR1   B_VECTNIL+15
         1 002605   000000 701000 xent               TSX1    NIO$IOSPIN
         1 002606   000000 011000                    NOP     0

      668    15819    2        CALL NIQ$REL(Q$);

  15819  1 002607   200127 630500                    EPPR0   Q$,,AUTO
         1 002610   200150 450500                    STP0    R$+2,,AUTO
         1 002611   200150 630500                    EPPR0   R$+2,,AUTO
         1 002612   000017 631400 xsym               EPPR1   B_VECTNIL+15
         1 002613   000000 701000 xent               TSX1    NIQ$REL
         1 002614   000000 011000                    NOP     0

      669    15820    2        ALTRETURN;

  15820  1 002615   200144 221300                    LDX1  ! TEMP_FEP_ERA+1,,AUTO
         1 002616   000000 702211                    TSX2  ! 0,X1

      670    15821        /**/
      671    15822    2   END;
      672    15823        /**/
      673    15824    1   AVRINIT: PROC(DCTX) ALTRET;

  15824  1 002617   200144 741300       AVRINIT      STX1  ! TEMP_FEP_ERA+1,,AUTO

      674    15825        /**/
      675    15826    2   DCL DCTX UBIN(18) UNAL;                 /* DCT index of drive                 */
      676    15827    2   DCL XDCT UBIN(15) AUTO;
      677    15828    2        XDCT=DCTX;
PL6.E3A0      #001=ITX$INITS File=ITX$INITS.:E05TSI                              TUE 07/29/97 23:10 Page:108

  15828  1 002620   200145 470500                    LDP0    @DCTX,,AUTO
         1 002621   003100 061500                    CSR     bolr='003'O
         1 002622   000000 000022                    BDSC    0,,PR0                   by=0,bit=0,n=18
         1 002623   200146 000017                    BDSC    XDCT,,AUTO               by=0,bit=0,n=15

      678    15829    2        CALL NIO$SPINTCON(XDCT,ENTADDR(FRL$AVR),0) ALTRET(JUSTALT);

  15829  1 002624   000000 636000 xent               EAQ     FRL$AVR
         1 002625   200150 756100                    STQ     R$+2,,AUTO
         1 002626   000024 236000 2                  LDQ     20
         1 002627   200153 756100                    STQ     R$+5,,AUTO
         1 002630   200150 631500                    EPPR1   R$+2,,AUTO
         1 002631   200152 451500                    STP1    R$+4,,AUTO
         1 002632   200146 633500                    EPPR3   XDCT,,AUTO
         1 002633   200151 453500                    STP3    R$+3,,AUTO
         1 002634   200151 630500                    EPPR0   R$+3,,AUTO
         1 002635   000021 631400 xsym               EPPR1   B_VECTNIL+17
         1 002636   000000 701000 xent               TSX1    NIO$SPINTCON
         1 002637   002642 702000 1                  TSX2    JUSTALT

      679    15830    2        RETURN;

  15830  1 002640   200144 221300                    LDX1  ! TEMP_FEP_ERA+1,,AUTO
         1 002641   000001 702211                    TSX2  ! 1,X1

      680    15831    2   JUSTALT: ALTRETURN;

  15831  1 002642   200144 221300       JUSTALT      LDX1  ! TEMP_FEP_ERA+1,,AUTO
         1 002643   000000 702211                    TSX2  ! 0,X1

      681    15832    2   END;
      682    15833        /**/
      683    15834    1   PMINIT: PROC;

  15834  1 002644   200144 741300       PMINIT       STX1  ! TEMP_FEP_ERA+1,,AUTO

PL6.E3A0      #001=ITX$INITS File=ITX$INITS.:E05TSI                              TUE 07/29/97 23:10 Page:109
      684    15835        /**/
      685    15836    2        CALL SSS$CURTIME (P_STARTUP);      /* Record system-startup time         */

  15836  1 002645   000030 630400 2                  EPPR0   24
         1 002646   000017 631400 xsym               EPPR1   B_VECTNIL+15
         1 002647   000000 701000 xent               TSX1    SSS$CURTIME
         1 002650   000000 011000                    NOP     0

      686    15837                                                /**/
      687    15838    2        CALL SSC$MONTIMR (6000, ENTADDR(PMC$COLLECT), 0); /* once-a-minute dude */

  15838  1 002651   000000 636000 xent               EAQ     PMC$COLLECT
         1 002652   200150 756100                    STQ     R$+2,,AUTO
         1 002653   000024 236000 2                  LDQ     20
         1 002654   200153 756100                    STQ     R$+5,,AUTO
         1 002655   200150 630500                    EPPR0   R$+2,,AUTO
         1 002656   200152 450500                    STP0    R$+4,,AUTO
         1 002657   000062 236000 2                  LDQ     50
         1 002660   200151 756100                    STQ     R$+3,,AUTO
         1 002661   200151 630500                    EPPR0   R$+3,,AUTO
         1 002662   000021 631400 xsym               EPPR1   B_VECTNIL+17
         1 002663   000000 701000 xent               TSX1    SSC$MONTIMR
         1 002664   000000 011000                    NOP     0

      688    15839                                                /**/
      689    15840    2        P_DCTXMAX = NK_MXLOCAL + 1;        /* Calc. # of entries in table        */

  15840  1 002665   000000 235000 xsym               LDA     NK_MXLOCAL
         1 002666   000001 035007                    ADLA    1,DL
         1 002667   000000 755000 xsym               STA     P_DCTXMAX

      690    15841                                                /**/
      691    15842    3        DO I = 0 TO NK_MXLOCAL;            /* Initialize DCT-table PM stuff      */

  15842  1 002670   200114 450100                    STZ     I,,AUTO
         1 002671   002730 710000 1                  TRA     s:15857+1

PL6.E3A0      #001=ITX$INITS File=ITX$INITS.:E05TSI                              TUE 07/29/97 23:10 Page:110
      692    15843                                                /**/
      693    15844    3             P$ = N$DCT$$->N$DCT$(I);

  15844  1 002672   000000 470400 xsym               LDP0    N$DCT$$
         1 002673   200114 720100                    LXL0    I,,AUTO
         1 002674   000000 236110                    LDQ     0,X0,PR0
         1 002675   200126 756100                    STQ     P$,,AUTO

      694    15845                                                /**/
      695    15846    3             IF P$ ~= ADDR(NIL)

  15846  1 002676   000001 116000 xsym               CMPQ    B_VECTNIL+1
         1 002677   002727 600000 1                  TZE     s:15857

      696    15847    4             THEN DO;

      697    15848                                                /**/
      698    15849    4                  CALL PMN$COLLECT (P$->NI$DCT.PM, 0);

  15849  1 002700   000024 236000 2                  LDQ     20
         1 002701   200151 756100                    STQ     R$+3,,AUTO
         1 002702   200126 236100                    LDQ     P$,,AUTO
         1 002703   000010 036003                    ADLQ    8,DU
         1 002704   200150 756100                    STQ     R$+2,,AUTO
         1 002705   200150 630500                    EPPR0   R$+2,,AUTO
         1 002706   000020 631400 xsym               EPPR1   B_VECTNIL+16
         1 002707   000000 701000 xent               TSX1    PMN$COLLECT
         1 002710   000000 011000                    NOP     0

      699    15850    4                  P$->NI$DCT.PM.CONNCT = 0;

  15850  1 002711   200126 470500                    LDP0    P$,,AUTO
         1 002712   000011 450100                    STZ     9,,PR0

      700    15851    4                  P$->NI$DCT.PM.ELAPSED_TIME = '0'B;

  15851  1 002713   200126 470500                    LDP0    P$,,AUTO
PL6.E3A0      #001=ITX$INITS File=ITX$INITS.:E05TSI                              TUE 07/29/97 23:10 Page:111
         1 002714   000100 100400                    MLR     fill='000'O
         1 002715   000002 000001 xsym               ADSC9   B_VECTNIL+2              cn=0,n=1
         1 002716   000013 000020                    ADSC9   11,,PR0                  cn=0,n=16

      701    15852    4                  IF P$->NI$DCT.PMD$ ~= ADDR(NIL)

  15852  1 002717   200126 470500                    LDP0    P$,,AUTO
         1 002720   000044 236100                    LDQ     36,,PR0
         1 002721   000001 116000 xsym               CMPQ    B_VECTNIL+1
         1 002722   002727 600000 1                  TZE     s:15857

      702    15853    4                  THEN P$->NI$DCT.PMD$->P$IODATA = P$->NI$DCT.PM;

  15853  1 002723   000044 471500                    LDP1    36,,PR0
         1 002724   000100 100500                    MLR     fill='000'O
         1 002725   000010 000034                    ADSC9   8,,PR0                   cn=0,n=28
         1 002726   100000 000034                    ADSC9   0,,PR1                   cn=0,n=28

      703    15854                                                /**/
      704    15855    4                END;

      705    15856                                                /**/
      706    15857    3           END;

  15857  1 002727   200114 054100                    AOS     I,,AUTO
         1 002730   000000 236000 xsym               LDQ     NK_MXLOCAL
         1 002731   002672 604000 1                  TMI     s:15844
         1 002732   200114 116100                    CMPQ    I,,AUTO
         1 002733   002672 605000 1                  TPL     s:15844

      707    15858                                                /**/
      708    15859    3        DO I = 0 TO NI_IOMS - 1 ;          /* Initialize channel-table PM stuff  */

  15859  1 002734   200114 450100                    STZ     I,,AUTO
         1 002735   003013 710000 1                  TRA     s:15874+1

      709    15860    4             DO J = 3 TO NI_CHANS(I) ;
PL6.E3A0      #001=ITX$INITS File=ITX$INITS.:E05TSI                              TUE 07/29/97 23:10 Page:112

  15860  1 002736   000003 235007                    LDA     3,DL
         1 002737   200113 755100                    STA     J,,AUTO
         1 002740   003005 710000 1                  TRA     s:15873+1

      710    15861                                                /**/
      711    15862    4                  IF ( J >= 8 )       OR

  15862  1 002741   200113 235100                    LDA     J,,AUTO
         1 002742   000010 115007                    CMPA    8,DL
         1 002743   002754 605000 1                  TPL     s:15866
         1 002744   000000 234000 xsym               SZN     HW_IMX
         1 002745   002750 605000 1                  TPL     s:15862+7
         1 002746   000003 115007                    CMPA    3,DL
         1 002747   002754 600000 1                  TZE     s:15866
         1 002750   000000 234000 xsym               SZN     HW_IOP
         1 002751   003004 605000 1                  TPL     s:15873
         1 002752   000004 115007                    CMPA    4,DL
         1 002753   003004 601000 1                  TNZ     s:15873

      712    15863    4                       ( HW_IMX AND J = 3 ) OR
      713    15864    5                       ( HW_IOP AND J = 4 ) THEN DO ;

      714    15865                                                /**/
      715    15866    5                       P$ = NI$CHT$->NI$CHT.DQH$(I*%N_MAXCHANS+J);

  15866  1 002754   200114 236100                    LDQ     I,,AUTO
         1 002755   000007 736000                    QLS     7
         1 002756   200113 036100                    ADLQ    J,,AUTO
         1 002757   000001 736000                    QLS     1
         1 002760   000000 470400 xsym               LDP0    NI$CHT$
         1 002761   000000 236106                    LDQ     0,QL,PR0
         1 002762   200126 756100                    STQ     P$,,AUTO

      716    15867    6                       IF (P$ ~= ADDR(NIL)) THEN DO ;

  15867  1 002763   000001 116000 xsym               CMPQ    B_VECTNIL+1
PL6.E3A0      #001=ITX$INITS File=ITX$INITS.:E05TSI                              TUE 07/29/97 23:10 Page:113
         1 002764   003004 600000 1                  TZE     s:15873

      717    15868    6                            CALL PMN$COLLECT (P$->NI$DQH.PM, 0);

  15868  1 002765   000024 236000 2                  LDQ     20
         1 002766   200151 756100                    STQ     R$+3,,AUTO
         1 002767   200126 236100                    LDQ     P$,,AUTO
         1 002770   000002 036003                    ADLQ    2,DU
         1 002771   200150 756100                    STQ     R$+2,,AUTO
         1 002772   200150 630500                    EPPR0   R$+2,,AUTO
         1 002773   000020 631400 xsym               EPPR1   B_VECTNIL+16
         1 002774   000000 701000 xent               TSX1    PMN$COLLECT
         1 002775   000000 011000                    NOP     0

      718    15869    6                            P$->NI$DQH.PM.CONNCT = 0;

  15869  1 002776   200126 470500                    LDP0    P$,,AUTO
         1 002777   000003 450100                    STZ     3,,PR0

      719    15870    6                            P$->NI$DQH.PM.ELAPSED_TIME = '0'B;

  15870  1 003000   200126 470500                    LDP0    P$,,AUTO
         1 003001   000100 100400                    MLR     fill='000'O
         1 003002   000002 000001 xsym               ADSC9   B_VECTNIL+2              cn=0,n=1
         1 003003   000005 000020                    ADSC9   5,,PR0                   cn=0,n=16

      720    15871    6                          END;

      721    15872    5                     END ;

      722    15873    4                END ;

  15873  1 003004   200113 054100                    AOS     J,,AUTO
         1 003005   200114 720100                    LXL0    I,,AUTO
         1 003006   000000 236010 xsym               LDQ     NI_CHANS,X0
         1 003007   002741 604000 1                  TMI     s:15862
         1 003010   200113 116100                    CMPQ    J,,AUTO
PL6.E3A0      #001=ITX$INITS File=ITX$INITS.:E05TSI                              TUE 07/29/97 23:10 Page:114
         1 003011   002741 605000 1                  TPL     s:15862

      723    15874    3           END ;

  15874  1 003012   200114 054100                    AOS     I,,AUTO
         1 003013   200114 236100                    LDQ     I,,AUTO
         1 003014   000000 116000 xsym               CMPQ    NI_IOMS
         1 003015   002736 604000 1                  TMI     s:15860

      724    15875                                                /**/
      725    15876    2        RETURN;

  15876  1 003016   200144 221300                    LDX1  ! TEMP_FEP_ERA+1,,AUTO
         1 003017   000001 702211                    TSX2  ! 1,X1

      726    15877    2   END;
      727    15878        /**/
      728    15879    1   OPCINIT: PROC ALTRET;

  15879  1 003020   200144 741300       OPCINIT      STX1  ! TEMP_FEP_ERA+1,,AUTO

      729    15880    2   DCL S CHAR(4);
      730    15881    2   DCL R$ PTR;
      731    15882    2        P$=FP_OPCI$$;

  15882  1 003021   000000 236000 xsym               LDQ     FP_OPCI$$
         1 003022   200126 756100                    STQ     P$,,AUTO

      732    15883    3        DO WHILE (P$ ~= ADDR(NIL));

  15883  1 003023   003162 710000 1                  TRA     s:15911

      733    15884    3             CALL NKL$GETDCT (LDCT$) ALTRET(SCNPP);

  15884  1 003024   200130 630500                    EPPR0   LDCT$,,AUTO
         1 003025   200150 450500                    STP0    R$+2,,AUTO
         1 003026   200150 630500                    EPPR0   R$+2,,AUTO
PL6.E3A0      #001=ITX$INITS File=ITX$INITS.:E05TSI                              TUE 07/29/97 23:10 Page:115
         1 003027   000017 631400 xsym               EPPR1   B_VECTNIL+15
         1 003030   000000 701000 xent               TSX1    NKL$GETDCT
         1 003031   003166 702000 1                  TSX2    SCNPP

      734    15885    3             P$->FP$OPCI.LDCTX = LDCT$->NK$LDCT.LDCTX;

  15885  1 003032   200130 470500                    LDP0    LDCT$,,AUTO
         1 003033   000006 236100                    LDQ     6,,PR0
         1 003034   000022 772000                    QRL     18
         1 003035   200126 471500                    LDP1    P$,,AUTO
         1 003036   100002 756100                    STQ     2,,PR1

      735    15886    3             CALL BINCHAR (S,P$->FP$OPCI.FEI#);

  15886  1 003037   200126 470500                    LDP0    P$,,AUTO
         1 003040   000001 235100                    LDA     1,,PR0
         1 003041   000044 773000                    LRL     36
         1 003042   200150 757100                    STAQ    R$+2,,AUTO
         1 003043   000100 301500                    BTD
         1 003044   200150 000010                    NDSC9   R$+2,,AUTO               cn=0,s=lsgnf,sf=0,n=8
         1 003045   200145 030004                    NDSC9   S,,AUTO                  cn=0,s=nosgn,sf=0,n=4

      736    15887    3             CALL CONCAT (LDCT$->NK$LDCT.DEVNM,'OPCA',S);

  15887  1 003046   000110 236000 0                  LDQ     CURMSG+22
         1 003047   200130 471500                    LDP1    LDCT$,,AUTO
         1 003050   100002 756100                    STQ     2,,PR1
         1 003051   200145 236100                    LDQ     S,,AUTO
         1 003052   200130 470500                    LDP0    LDCT$,,AUTO
         1 003053   000003 756100                    STQ     3,,PR0

      737    15888    3             LDCT$->NK$LDCT.RESCOD = NK_OPCTL;

  15888  1 003054   200130 470500                    LDP0    LDCT$,,AUTO
         1 003055   000006 236100                    LDQ     6,,PR0
         1 003056   000023 376000 2                  ANQ     19
         1 003057   000016 276007                    ORQ     14,DL
PL6.E3A0      #001=ITX$INITS File=ITX$INITS.:E05TSI                              TUE 07/29/97 23:10 Page:116
         1 003060   000006 756100                    STQ     6,,PR0

      738    15889    3             LDCT$->NK$LDCT.RLCID = '0'B;

  15889  1 003061   200130 470500                    LDP0    LDCT$,,AUTO
         1 003062   000015 450100                    STZ     13,,PR0

      739    15890    3             LDCT$->NK$LDCT.RLCID.NODE =

  15890  1 003063   200126 470500                    LDP0    P$,,AUTO
         1 003064   000001 720100                    LXL0    1,,PR0
         1 003065   000000 471400 xsym               LDP1    KI_FEI$$
         1 003066   100000 473510                    LDP3    0,X0,PR1
         1 003067   200130 474500                    LDP4    LDCT$,,AUTO
         1 003070   300012 236100                    LDQ     10,,PR3
         1 003071   000022 736000                    QLS     18
         1 003072   400015 552140                    STBQ    13,'40'O,PR4

      740    15891    3                  KI$FEI$(P$->FP$OPCI.FEI#)->KI$FEI.FEP#;
      741    15892    3             LDCT$->NK$LDCT.DFLG.INPUT = '1'B;

  15892  1 003073   200130 470500                    LDP0    LDCT$,,AUTO
         1 003074   400000 236007                    LDQ     -131072,DL
         1 003075   000006 256100                    ORSQ    6,,PR0

      742    15893    3             LDCT$->NK$LDCT.DFLG.OUTPUT = '1'B;

  15893  1 003076   200130 470500                    LDP0    LDCT$,,AUTO
         1 003077   200000 236007                    LDQ     65536,DL
         1 003100   000006 256100                    ORSQ    6,,PR0

      743    15894    3             LDCT$->NK$LDCT.DFLG.CM='1'B;

  15894  1 003101   200130 470500                    LDP0    LDCT$,,AUTO
         1 003102   100000 236007                    LDQ     32768,DL
         1 003103   000006 256100                    ORSQ    6,,PR0

PL6.E3A0      #001=ITX$INITS File=ITX$INITS.:E05TSI                              TUE 07/29/97 23:10 Page:117
      744    15895    3             LDCT$->NK$LDCT.LKFLG.ACTIVE='1'B;

  15895  1 003104   200130 470500                    LDP0    LDCT$,,AUTO
         1 003105   000040 236003                    LDQ     32,DU
         1 003106   000011 256100                    ORSQ    9,,PR0

      745    15896    3             LDCT$->NK$LDCT.LKFLG.QDPPATH = '1'B;

  15896  1 003107   200130 470500                    LDP0    LDCT$,,AUTO
         1 003110   002000 236003                    LDQ     1024,DU
         1 003111   000011 256100                    ORSQ    9,,PR0

      746    15897    3             LDCT$->NK$LDCT.LKFLG.OBLK = '0'B;

  15897  1 003112   200130 470500                    LDP0    LDCT$,,AUTO
         1 003113   000063 236000 2                  LDQ     51
         1 003114   000011 356100                    ANSQ    9,,PR0

      747    15898    3             R$ = FR$HD$(FR_NPOOL);

  15898  1 003115   000002 236000 xsym               LDQ     FR$HD$+2
         1 003116   200146 756100                    STQ     R$,,AUTO

      748    15899    4             DO WHILE (R$ ~= ADDR(NIL));

  15899  1 003117   003155 710000 1                  TRA     s:15909

      749    15900    4                  IF (R$->FR$RAT.TYP = 'OD' AND

  15900  1 003120   200146 470500                    LDP0    R$,,AUTO
         1 003121   000010 220100                    LDX0    8,,PR0
         1 003122   000111 100000 0                  CMPX0   CURMSG+23
         1 003123   003153 601000 1                  TNZ     s:15908
         1 003124   000003 721100                    LXL1    3,,PR0
         1 003125   000000 471400 xsym               LDP1    N$DCT$$
         1 003126   100000 473511                    LDP3    0,X1,PR1
         1 003127   300023 474500                    LDP4    19,,PR3
PL6.E3A0      #001=ITX$INITS File=ITX$INITS.:E05TSI                              TUE 07/29/97 23:10 Page:118
         1 003130   200126 475500                    LDP5    P$,,AUTO
         1 003131   400001 236100                    LDQ     1,,PR4
         1 003132   000006 772000                    QRL     6
         1 003133   000077 376007                    ANQ     63,DL
         1 003134   500001 116100                    CMPQ    1,,PR5
         1 003135   003153 601000 1                  TNZ     s:15908

      750    15901    4                       N$DCT$(R$->FR$RAT.DCTX)->NI$DCT.DQH$->NI$DQH.FEX =
      751    15902    5                       P$->FP$OPCI.FEI#) THEN DO;

      752    15903    5                       N$DCT$(R$->FR$RAT.DCTX)->NI$DCT.OD.LDCT$ = LDCT$;

  15903  1 003136   200130 236100                    LDQ     LDCT$,,AUTO
         1 003137   300030 756100                    STQ     24,,PR3

      753    15904    5                       N$DCT$(R$->FR$RAT.DCTX)->NI$DCT.OD.FEI$ =

  15904  1 003140   000003 720100                    LXL0    3,,PR0
         1 003141   100000 473510                    LDP3    0,X0,PR1
         1 003142   200126 474500                    LDP4    P$,,AUTO
         1 003143   400001 721100                    LXL1    1,,PR4
         1 003144   000000 475400 xsym               LDP5    KI_FEI$$
         1 003145   500000 236111                    LDQ     0,X1,PR5
         1 003146   300032 756100                    STQ     26,,PR3

      754    15905    5                            KI$FEI$(P$->FP$OPCI.FEI#);
      755    15906    5                       N$DCT$(R$->FR$RAT.DCTX)->NI$DCT.OD.OPCI$ = P$;

  15906  1 003147   000003 720100                    LXL0    3,,PR0
         1 003150   100000 473510                    LDP3    0,X0,PR1
         1 003151   200126 236100                    LDQ     P$,,AUTO
         1 003152   300031 756100                    STQ     25,,PR3

      756    15907    5                     END;

      757    15908    4                  R$ = R$->FR$RAT.LNK$;

PL6.E3A0      #001=ITX$INITS File=ITX$INITS.:E05TSI                              TUE 07/29/97 23:10 Page:119
  15908  1 003153   000000 236100                    LDQ     0,,PR0
         1 003154   200146 756100                    STQ     R$,,AUTO

      758    15909    4                END;

  15909  1 003155   000001 116000 xsym               CMPQ    B_VECTNIL+1
         1 003156   003120 601000 1                  TNZ     s:15900

      759    15910    3             P$ = P$->FP$OPCI.LNK$;

  15910  1 003157   200126 470500                    LDP0    P$,,AUTO
         1 003160   000000 236100                    LDQ     0,,PR0
         1 003161   200126 756100                    STQ     P$,,AUTO

      760    15911    3           END;

  15911  1 003162   000001 116000 xsym               CMPQ    B_VECTNIL+1
         1 003163   003024 601000 1                  TNZ     s:15884

      761    15912    2        RETURN;

  15912  1 003164   200144 221300                    LDX1  ! TEMP_FEP_ERA+1,,AUTO
         1 003165   000001 702211                    TSX2  ! 1,X1

      762    15913    2   SCNPP: ALTRETURN;

  15913  1 003166   200144 221300       SCNPP        LDX1  ! TEMP_FEP_ERA+1,,AUTO
         1 003167   000000 702211                    TSX2  ! 0,X1

      763    15914    2   END;
      764    15915    1   END;

  15915  1 003170   000000 702200 xent               TSX2  ! X66_ARET

CINFO
 Sect OctLoc
   0     000   000000 000000   000000 000000   000000 000000   114117 103101    ............LOCA
PL6.E3A0      #001=ITX$INITS File=ITX$INITS.:E05TSI                              TUE 07/29/97 23:10 Page:120
   0     004   114040 040040   052040 040040   040040 040040   040040 040040    L   *
   0     010   000000 000015   000000 000000   000000 000000   000000 000000    ................
   0     014   000000 000000   000000 000000   000000 000000   000000 000000    ................
   0     024*  000000 000000   000000 000000                                    ........

NOPOMSG
 Sect OctLoc
   0     026   000000 000062   015012 103141   156047 164040   146151 156144    ...2..Can't find
   0     032   040120 117040   164141 160145   040151 156040   104103 124040     PO tape in DCT
   0     036   164141 142154   145163 054040   164141 160145   040156 157164    tables, tape not
   0     042   040155 157165   156164 145144   000000 000000                     mounted....

DTMSG
 Sect OctLoc
   0     045   000000 000020   015012 104141   164145 040050   115115 057104    ......Date (MM/D
   0     051   104057 131131   051040 000000   000000 ******                    D/YY) ......

TMMSG
 Sect OctLoc
   0     054   000000 000015   015012 124151   155145 040050   110110 072115    ......Time (HH:M
   0     060   115051 040000   000000 000***                                    M) .....

CURMSG
 Sect OctLoc
   0     062   000000 000036   015012 103165   162162 145156   164040 164151    ......Current ti
   0     066   155145 040151   163040 115115   057104 104057   131131 040110    me is MM/DD/YY H
   0     072   110072 123123   000000 000000                                    H:SS....

(unnamed)
 Sect OctLoc
   0     074   115117 116113   105131 040040   122105 123125   123040 040040    MONKEY  RESUS
   0     100   102101 102117   117116 040040   072116 103124   114040 040040    BABOON  :NCTL
   0     104   115124 040040   060061 040040   103120 066120   117061 040040    MT  01  CP6PO1
   0     110   117120 103101   117104 040040                                    OPCAOD

(unnamed)
 Sect OctLoc
PL6.E3A0      #001=ITX$INITS File=ITX$INITS.:E05TSI                              TUE 07/29/97 23:10 Page:121
   2     000   000003 006000   777777 770000   000000 000063   000000 000064    ...........3...4
   2     004   000003 006000   000002 006000   000003 006000   000003 006000    ................
   2     010   000000 006000   000000 006000   000062 006000   000074 006000    .........2...<..
   2     014   000045 006000   000054 006000   000000 006000   000000 006000    .%...,..........
   2     020   000000 006000   000006 006000   000001 776000   777777 777760    ................
   2     024   000002 006000   200000 000000   000025 006000   000030 006000    ................
   2     030   000000 006000   000000 006000   000000 000160   000000 000076    ...........p...>
   2     034   000033 006000   000002 006000   000032 006000   000000 006000    ................
   2     040   000000 072460   000040 006000   000003 400000   000026 006000    ..:.. ..........
   2     044   370000 000000   000000 000000   000004 006000   000000 000000    ................
   2     050   000003 006000   000002 006000   000012 006000   000002 006000    ................
   2     054   777777 677777   000104 006000   000003 006000   000004 006000    .....D..........
   2     060   777777 777617   000000 013560   000061 006000   577777 777777    .........1......

PL6.E3A0      #001=ITX$INITS File=ITX$INITS.:E05TSI                              TUE 07/29/97 23:10 Page:122
--  Include file information  --

   FP_MACRO_C.:E05TOU  is referenced.
   TM_DATA_R.:E05TOU  cannot be made into a system file and is referenced.
   TM_DATA_M.:E05TOU  is referenced.
   EL_SUBS_C.:E05TOU  is referenced.
   FT_SUBS.:E05TOU  is referenced.
   I_SUBS_C.:E05TOU  is referenced.
   FR_SUBS.:E05TOU  is referenced.
   NK_SUBS.:E05TOU  is referenced.
   KI_SUBS_C.:E05TOU  is referenced.
   KL_SUPER_C.:E05TOU  is referenced.
   KL_SUBS_C.:E05TOU  is referenced.
   FI_MAC_C.:E05TOU  is referenced.
   FOO_MAC_C.:E05TOU  is referenced.
   OC$INFO.:E05TOU  is referenced.
   KC_CP6.:E05TOU  is referenced.
   KC$CGBLK.:E05TOU  is referenced.
   KC_DATA_R.:E05TOU  cannot be made into a system file and is referenced.
   UM_CP6.:E05TOU  is referenced.
   JG_GHOSTS_C.:E05TOU  is referenced.
   FT$DDT.:E05TOU  cannot be made into a system file and is referenced.
   B$JIT_C.:E05TOU  is referenced.
   OC_DATA_R.:E05TOU  cannot be made into a system file and is referenced.
   N_FC_C.:E05TOU  is referenced.
   FM$MACROS.:E05TOU  is referenced.
   FR_DATA_R.:E05TOU  cannot be made into a system file and is referenced.
   FR$RAT.:E05TOU  is referenced.
   NI_DATA_C.:E05TOU  is referenced.
   NI$TABLES.:E05TOU  is referenced.
   N$REQ.:E05TOU  is referenced.
   NI_DATA_R.:E05TOU  cannot be made into a system file and is referenced.
   P_PMDAT_C.:E05TOU  is referenced.
   P_PMDAT_R.:E05TOU  cannot be made into a system file and is referenced.
   M_INFO_C.:E05TOU  is referenced.
   B_STRINGS_C.:E05TOU  is referenced.
   HF_DATA_R.:E05TOU  cannot be made into a system file and is referenced.
PL6.E3A0      #001=ITX$INITS File=ITX$INITS.:E05TSI                              TUE 07/29/97 23:10 Page:123
   S_WSPTD_R.:E05TOU  cannot be made into a system file and is referenced.
   S$WSPTD.:E05TOU  cannot be made into a system file and is referenced.
   KL_MACRO_C.:E05TOU  is referenced.
   NK$LDCT.:E05TOU  is referenced.
   KI$QHDR.:E05TOU  cannot be made into a system file and is referenced.
   K$RWPARM.:E05TOU  is referenced.
   K_DATA_R.:E05TOU  cannot be made into a system file and is referenced.
   KI_MACROS_C.:E05TOU  is referenced.
   KI_DATA_R.:E05TOU  cannot be made into a system file and is referenced.
   B$P.:E05TOU  cannot be made into a system file and is referenced.
   B$MAP.:E05TOU  cannot be made into a system file and is referenced.
   CP_6_SUBS.:E05TOU  is referenced.
      No diagnostics issued in procedure ITX$INITS.
PL6.E3A0      #001=ITX$INITS File=ITX$INITS.:E05TSI                              TUE 07/29/97 23:10 Page:124

 **** Variables and constants ****

  ****  Section 000 RoData ITX$INITS

  ****  Scalars and arrays  ****
OctLoc.c.b A Datatyp(siz) R M Lvl/name                 OctLoc.c.b A Datatyp(siz) R M Lvl/name

     0-0-0/w STRC(792)   r     1 CINFO                     62-0-0/w STRC(360)   r     1 CURMSG
    45-0-0/w STRC(234)   r     1 DTMSG                     26-0-0/w STRC(540)   r     1 NOPOMSG
    54-0-0/w STRC(207)   r     1 TMMSG

  ****  Auto variables  ****

  ****  Scalars and arrays  ****
OctLoc.c.b A Datatyp(siz) R M Lvl/name                 OctLoc.c.b A Datatyp(siz) R M Lvl/name

   145-0-0/w PTR         r     1 @DCTX                    145-0-0/w PTR         r     1 @MSG
   141-0-0/w PTR         r     1 BUF$                     142-0-0/w SBIN        r     1 BUFX
   112-0-0/w SBIN        r     1 CWSQ                     117-0-0/b BIT         r     1 DATETYC
   131-0-0/w PTR         r     1 DCT$                     115-0-0/w UBIN(15)    r     1 DCTX
    *0-0-0/b UBIN(18)    r     1 DCTX                     136-0-0/w PTR         r     1 DDT$
   140-0-0/w PTR         r     1 DQH$                     146-0-0/w SBIN        r     1 FC
   107-0-0/w SBIN        r     1 FEI                      110-0-0/w PTR         r     1 FEI$
   114-0-0/w SBIN        r     1 I                        113-0-0/w SBIN        r     1 J
     3-0-0/w STRC(2448)  r     1 KL$PCD                   130-0-0/w PTR         r     1 LDCT$
    *0-0-0/w SBIN        r     1 MSG                      123-0-0/w STRC(108)   r     1 NUMSP
   126-0-0/w PTR         r     1 P$                       122-0-0/w SBIN        r     1 PPNO
   127-0-0/w PTR         r     1 Q$                       146-0-0/w PTR         r     1 R$
   132-0-0/w PTR         r     1 RAT$                     145-0-0/c CHAR(4)     r     1 S
   137-0-0/w PTR         r     1 SQH$                     116-0-0/w UBIN        r     1 STATUS
   111-0-0/w SBIN        r     1 SZ                       143-0-0/b STRC        r     1 TEMP_FEP_ERA
   133-0-0/w SBIN        r     1 WSNX                     134-0-0/c CHAR(8)     r     1 WTNM
   146-0-0/w UBIN(15)    r     1 XDCT

  ****  SYMREF variables  ****

  ****  Scalars and arrays  ****
PL6.E3A0      #001=ITX$INITS File=ITX$INITS.:E05TSI                              TUE 07/29/97 23:10 Page:125
OctLoc.c.b A Datatyp(siz) R M Lvl/name                 OctLoc.c.b A Datatyp(siz) R M Lvl/name

     0-0-0/w PTR         r     1 B$P$                       0-0-0/w PTR         r     1 B$USRT$
     0-0-0/w PTR         r     1 B$WINDOW$                  0-0-0/w PTR         r     1 B$WSQ0PT$
     0-0-0/d STRC(540)   r     1 B_MONINFO                  0-0-0/d STRC(468)   r     1 B_MONPTRS
     0-0-0/w UBIN        r     1 B_MUAIS                    0-0-0/w UBIN        r     1 B_SCDCTX
     0-0-0/d STRC(2232)  r     1 B_SITEINFO                 0-0-0/w PTR         r     1 F$CFU$
     0-0-0/w PTR         r     1 FM$SET$                    0-0-0/b STRC        r     1 FM_POTAPE
     0-0-0/w UBIN        r     1 FM_SRZERO                  0-0-0/w UBIN        r     1 FOM_WSQ
     0-0-0/w UBIN        r     1 FOS_WSQ                    0-0-0/w PTR         r     1 FP_OPCI$$
     0-0-0/w PTR         r     1 FR$HD$(0:3)                0-0-0/w BIT         r     1 HW_IMX
     0-0-0/w BIT         r     1 HW_IOP                     0-0-0/w SBIN        r     1 HW_PTB_UNITS
     0-0-0/w BIT         r     1 HW_TIME_LEGAL              0-0-0/w BIT         r     1 HW_WSQ0PT
     0-0-0/w UBIN        r     1 IT_BOOTFLAG                0-0-0/w BIT         r     1 IT_CLOCKOK
     0-0-0/c CHAR(8)     r     1 IT_DATE                    0-0-0/w STRC        r     1 IT_INTL66
     0-0-0/w UBIN        r     1 IT_SCPUWSPTD(0:7)
     0-0-0/w UBIN        r     1 IT_SYSDISK                 0-0-0/c CHAR(5)     r     1 IT_TIME
     0-0-0/c CHAR(5)     r     1 IT_TXT_LOCAL               0-0-0/w UBIN        r     1 IT_UTS
     0-0-0/c CHAR(8)     r     1 IT_WSN(0:0)                0-0-0/w PTR         r     1 KC_HOG$
     0-0-0/w STRC(1332)  r     1 KC_HOG_INFO                0-0-0/w STRC(432)   r     1 KC_ISID
     0-0-0/w PTR         r     1 KC_NOCG$                   0-0-0/w STRC(432)   r     1 KC_OCID
     0-0-0/w STRC(432)   r     1 KC_OSID                    0-0-0/w PTR         r     1 KI_FEI$$
     0-0-0/w UBIN        r     1 KI_MXFE                    0-0-0/w UBIN        r     1 K_NODE#
     0-0-0/b BIT         r     1 MM_FPMC                    0-0-0/w PTR         r     1 N$DCT$$
     0-0-0/w PTR         r     1 N$FQ$                      0-0-0/w PTR         r     1 NI$CHT$
     0-0-0/w PTR         r     1 NI$DVT$(0:49)              0-0-0/w PTR         r     1 NI$FQ$
     0-0-0/w PTR         r     1 NI$IBUF$
     0-0-0/w PTR         r     1 NI$IOM$(0:3)
     0-0-0/w PTR         r     1 NI$RP$
     0-0-0/w UBIN        r     1 NI_CHANS(0:3)
     0-0-0/w SBIN        r     1 NI_IOMS                    0-0-0/w UBIN        r     1 NK_BABOONLDX
     0-0-0/w UBIN        r     1 NK_MONKLDX                 0-0-0/w UBIN        r     1 NK_MXLOCAL
     0-0-0/w UBIN        r     1 NK_RESUSLDX                0-0-0/w UBIN        r     1 NK_RESUSLDX_HLP
     0-0-0/w UBIN        r     1 P_DCTXMAX                  0-0-0/w UBIN        r     1 P_NPROCS
     0-0-0/w PTR         r     1 P_RESOURCE$                0-0-0/w SBIN        r     1 P_STARTUP
     0-0-0/w UBIN        r     1 S_BOOTERA                  0-0-0/w UBIN        r     1 S_BOOTQUARTER
     0-0-0/w UBIN        r     1 S_NSCPU                    0-0-0/w STRC        r     1 S_WSPTD(0:28)
PL6.E3A0      #001=ITX$INITS File=ITX$INITS.:E05TSI                              TUE 07/29/97 23:10 Page:126
     0-0-0/w BIT         r     1 TM_MCA_DO_TIME

  ****  BASED and DCB variables  ****

  ****  Scalars and arrays  ****
OctLoc.c.b A Datatyp(siz) R M Lvl/name                 OctLoc.c.b A Datatyp(siz) R M Lvl/name

     0-0-0/c CHAR(5)     r     1 B$CHAR5                    0-0-0/c CHAR(8)     r     1 B$CHAR8
     0-0-0/w STRC        r     1 B$MAP(0:1023)              0-0-0/d STRC(1224)  r     1 B$P(0:0)
     0-0-0/w STRC(288)   r     1 FM$CFUX                    0-0-0/w STRC(288)   r     1 FM$DEV(0:0)
     0-0-0/w STRC(108)   r     1 FP$OPCI                    0-0-0/w STRC(324)   r     1 FR$RAT
     0-0-0/w STRC(288)   r     1 FT$DDT                     0-0-0/w STRC(972)   r     1 ISI
     0-0-0/w STRC(612)   r     1 KI$FEI
     0-0-0/w PTR         r     1 KI$FEI$(0:0)
     0-0-0/d STRC(576)   r     1 KI$QHDR                    0-0-0/w PTR         r     1 N$DCT$(0:0)
     0-0-0/d STRC(1080)  r     1 N$REQ                      0-0-0/w STRC(72)    r     1 NI$CHT(0:127)
     0-0-0/w STRC(1332)  r     1 NI$DCT                     0-0-0/w STRC(648)   r     1 NI$DQH
     0-0-0/w STRC(2844)  r     1 NI$DVT                     0-0-0/w STRC(252)   r     1 NI$IOM
     0-0-0/w STRC(252)   r     1 NI$SQH                     0-0-0/d STRC(864)   r     1 NK$LDCT
     0-0-0/w STRC(1008)  r     1 OCI                        0-0-0/w STRC(180)   r     1 OSI
     0-0-0/w STRC(252)   r     1 P$IODATA                   0-0-0/w STRC        r     1 S$WSPTD(0:28)
     0-0-0/w UBIN        r     1 UTS_B


   Procedure ITX$INITS requires 1657 words for executable code.
   Procedure ITX$INITS requires 110 words of local(AUTO) storage.

    No errors detected in file ITX$INITS.:E05TSI    .
PL6.E3A0      #001=ITX$INITS File=ITX$INITS.:E05TSI                              TUE 07/29/97 23:10 Page:127
          *** CROSS REFERENCE LISTING ***
**     DENOTES     IDENTIFIER DEFINITION
<<                 IDENTIFIER'S VALUE SET
>>                 IDENTIFIER'S VALUE USED
<>                 IDENTIFIER SET AND/OR USED
--                 IDENTIFIER REFERENCED
PL6.E3A0      #001=ITX$INITS File=ITX$INITS.:E05TSI                              TUE 07/29/97 23:10 Page:128
          MINI XREF LISTING

AVRINIT
     15824**PROC    15558--CALL
B$CHAR5
     15254**DCL     15455<<ASSIGN
B$CHAR8
     15253**DCL     15453<>CALL    15454<<ASSIGN  15456<>CALL
B$JIT.ERR.MID
     13964**DCL     13964--REDEF
B$MAP
       591**DCL     15428<<ASSIGN
B$MAP.CTRL
       596**DCL     15424<<ASSIGN  15425<<ASSIGN
B$MAP.RPN
       592**DCL     15407>>ASSIGN  15417<<ASSIGN  15417>>ASSIGN  15418<<ASSIGN  15418>>ASSIGN  15421<<ASSIGN
     15422<<ASSIGN
B$MAP.SCTRL
       593**DCL       594--REDEF
B$P.FLGS
       678**DCL     15389>>IF      15392>>IF      15395>>IF
B$P$
       711**DCL     15389>>IF      15392>>IF      15395>>IF      15541>>ASSIGN
B$USRT$
     15324**DCL     15540>>ASSIGN
B$WINDOW$
     15316**DCL     15417>>ASSIGN  15418>>ASSIGN  15421>>ASSIGN  15422>>ASSIGN  15424>>ASSIGN  15425>>ASSIGN
     15428>>ASSIGN  15435>>ASSIGN  15436>>ASSIGN  15437>>ASSIGN  15438>>ASSIGN
B$WSQ0PT$
     15317**DCL     15407>>ASSIGN  15417>>ASSIGN  15418>>ASSIGN
BUF$
     15247**DCL     15472<>CALL    15473>>ASSIGN  15475<>CALL
BUFX
     15248**DCL     15472<>CALL    15474<>CALL    15475<>CALL
PL6.E3A0      #001=ITX$INITS File=ITX$INITS.:E05TSI                              TUE 07/29/97 23:10 Page:129
B_MONINFO.BOOTFLAG#
     14081**DCL     15535<<ASSIGN
B_MONINFO.INIT_UTS#
     14079**DCL     15534<<ASSIGN
B_MONINFO.MUAIS#
     14081**DCL     15536<<ASSIGN
B_MONPTRS.B$P$
     14098**DCL     15541<<ASSIGN
B_MONPTRS.B$USRT$
     14098**DCL     15540<<ASSIGN
B_MONPTRS.N$DCT$$
     14097**DCL     15537<<ASSIGN
B_MONPTRS.NI$CHT$
     14097**DCL     15538<<ASSIGN
B_MONPTRS.NI$DVT$$
     14097**DCL     15539<<ASSIGN
B_MUAIS
     15318**DCL     15536>>ASSIGN
B_SCDCTX
      7385**DCL     15440>>ASSIGN  15645>>ASSIGN  15719>>IF
B_SITEINFO
     14060**DCL     15542<>CALL    15542--CALL
CGINIT
     15657**PROC    15526--CALL
CINFO
     14251**DCL     15700>>ASSIGN
CINFO.ATTR
     14258**DCL     14258--REDEF
COMMON IN PROCEDURE OCWRITE
     15626**LABEL   15616--GOTO    15619--GOTO
CURMSG
     15285**DCL     15453<>CALL    15453--CALL    15453--CALL    15456<>CALL    15456--CALL    15456--CALL
     15457<>CALL
CURMSG.CHR
     15288**DCL     15286--DCLINIT 15454--ASSIGN  15455--ASSIGN
CWSQ
PL6.E3A0      #001=ITX$INITS File=ITX$INITS.:E05TSI                              TUE 07/29/97 23:10 Page:130
     15218**DCL     15485<<ASSIGN  15489>>ASSIGN  15492<>CALL    15497<>CALL    15499<>CALL    15510<>CALL
     15521<<ASSIGN  15521>>ASSIGN  15522>>IF      15524<<ASSIGN
DATETYC
     15226**DCL     15463>>IF      15468>>IF      15652<<ASSIGN
DCT$
     15240**DCL     15440<<ASSIGN  15444>>ASSIGN  15659<>CALL    15681<<ASSIGN  15682>>IF      15683>>IF
     15683>>IF      15684>>ASSIGN  15688>>ASSIGN  15689>>ASSIGN  15691>>ASSIGN  15694>>ASSIGN  15696>>ASSIGN
     15697>>CALLBLT 15703>>ASSIGN  15714>>ASSIGN  15717>>IF      15717>>CALL    15730>>IF      15754>>IF
     15754>>CALL    15759>>IF      15761>>ASSIGN
DCTX
     15224**DCL     15569<<ASSIGN  15572>>IF      15572>>ASSIGN  15573<<ASSIGN  15574>>ASSIGN  15576>>ASSIGN
     15577>>ASSIGN  15577>>ASSIGN  15578>>CALLBLT 15579>>ASSIGN  15580>>ASSIGN  15580>>ASSIGN  15582<>CALL
     15584<>CALL    15622>>IF      15629>>ASSIGN
DCTX IN PROCEDURE AVRINIT
     15826**DCL     15824--PROC    15828>>ASSIGN
DDT$
     15244**DCL     15809<<ASSIGN  15810>>ASSIGN  15811>>ASSIGN
DPREQST IN PROCEDURE OCWRITE
     15620**ENTRY   15583--CALL
DQH$
     15246**DCL     15472<>CALL    15474>>CALL
DTMSG
     15271**DCL     15458<>CALL
DTMSG.CHR
     15274**DCL     15272--DCLINIT
ELA$SYSLOG
     15375**DCL-ENT 15542--CALL    15659--CALL    15765--CALL
F$CFU$
     15320**DCL     13953--IMP-PTR 15570>>ASSIGN  15587>>ASSIGN  15593>>ASSIGN  15594>>ASSIGN
FC IN PROCEDURE OCWRITE
     15614**DCL     15615<<ASSIGN  15618<<ASSIGN  15621<<ASSIGN  15627>>IF      15633>>IF      15647>>ASSIGN
FEI
     15215**DCL     15487<<DOINDEX 15488>>ASSIGN  15520<>CALL    15528<>CALL
FEI$
     15216**DCL     13604--IMP-PTR 15488<<ASSIGN  15489>>ASSIGN  15490>>ASSIGN  15491>>ASSIGN  15494>>ASSIGN
     15495>>ASSIGN  15496>>DOINDEX 15501>>ASSIGN  15503>>ASSIGN  15504>>ASSIGN  15505>>ASSIGN  15507>>IF
PL6.E3A0      #001=ITX$INITS File=ITX$INITS.:E05TSI                              TUE 07/29/97 23:10 Page:131
     15509>>DOINDEX 15512>>IF      15512>>IF      15514>>ASSIGN  15516>>CALL    15516>>CALL    15517>>CALL
     15517>>CALL    15519>>ASSIGN
FM$CFUX.DSETH
     13954**DCL     15570<<ASSIGN  15587>>ASSIGN  15593>>ASSIGN  15594<<ASSIGN
FM$DEV
     13947**DCL     15574--ASSIGN
FM$DEV.DCTX
     13947**DCL     15577<<ASSIGN
FM$DEV.DEVL
     13949**DCL     15572<<ASSIGN  15589>>DOWHILE 15590>>ASSIGN  15592<<ASSIGN  15592>>ASSIGN  15593<<ASSIGN
FM$DEV.NN
     13947**DCL     15579<<ASSIGN
FM$DEV.NXTSDA
     13949**DCL     15580<<ASSIGN
FM$DEV.USERLIST
     13948**DCL     13949--REDEF
FM$DEV.XCL
     13947**DCL     15576<<ASSIGN
FM$SET$
     15319**DCL     13947--IMP-PTR 15572>>ASSIGN  15574>>ASSIGN  15576>>ASSIGN  15577>>ASSIGN  15579>>ASSIGN
     15580>>ASSIGN  15589>>DOWHILE 15590>>ASSIGN  15592>>ASSIGN  15592>>ASSIGN  15593>>ASSIGN
FMN$AVR
     15356**DCL-ENT 15582--CALL    15584--CALL
FMR$M8
     15355**DCL-ENT 15575--CALL
FMS$GARBCOL
     15357**DCL-ENT 15555--CALL
FM_POTAPE.CHN
     15299**DCL     15794>>IF      15796>>ASSIGN
FM_POTAPE.DVN
     15300**DCL     15798>>IF
FM_POTAPE.PORT
     15298**DCL     15789>>IF
FM_SRZERO
     15321**DCL     15580>>ASSIGN
FOM_WSQ
PL6.E3A0      #001=ITX$INITS File=ITX$INITS.:E05TSI                              TUE 07/29/97 23:10 Page:132
     15323**DCL     15483<<ASSIGN
FOS_WSQ
     15322**DCL     15484<<ASSIGN
FP$OPCI.FEI#
     15211**DCL     15886>>CALLBLT 15890>>ASSIGN  15900>>IF      15904>>ASSIGN
FP$OPCI.LDCTX
     15212**DCL     15885<<ASSIGN
FP$OPCI.LNK$
     15210**DCL     15910>>ASSIGN
FP_OPCI$$
     15328**DCL     15882>>ASSIGN
FR$HD$
      6942**DCL     15556>>ASSIGN  15568>>ASSIGN  15898>>ASSIGN
FR$RAT.DCTX
     13769**DCL     15558<>CALL    15570>>ASSIGN  15572>>ASSIGN  15573>>ASSIGN  15900>>IF      15903>>ASSIGN
     15904>>ASSIGN  15906>>ASSIGN
FR$RAT.FLG.RUP
     13785**DCL     15808<<ASSIGN
FR$RAT.FLG.SYMBIONT
     13787**DCL     15729<<ASSIGN
FR$RAT.LNK$
     13752**DCL     15559>>ASSIGN  15585>>ASSIGN  15908>>ASSIGN
FR$RAT.M1
     13773**DCL     15734>>ASSIGN  15744>>ASSIGN  15803<>CALL
FR$RAT.REEL.SER
     13772**DCL     15736>>ASSIGN  15807<<ASSIGN
FR$RAT.RES.NUMB
     13755**DCL     15805<<ASSIGN
FR$RAT.RES.RFLG.NOSLD
     13761**DCL     15727<<ASSIGN
FR$RAT.RES.SISID
     13754**DCL     15728<<ASSIGN
FR$RAT.TYP
     13775**DCL     15900>>IF
FRL$AVR
     15362**DCL-ENT 15829--CALL
PL6.E3A0      #001=ITX$INITS File=ITX$INITS.:E05TSI                              TUE 07/29/97 23:10 Page:133
FRZ$GETRES
     15361**DCL-ENT 15803--CALL
FT$DDT.ANST
      7724**DCL     15810<<ASSIGN
FT$DDT.POS
      7742**DCL     15811<<ASSIGN
GOTIOM IN PROCEDURE RESINIT
     15794**LABEL   15791--GOTO
GTIT IN PROCEDURE RESINIT
     15803**LABEL   15799--GOTO
HW_IMX
      5751**DCL     15471>>IF      15515>>IF      15862>>IF
HW_IOP
      5748**DCL     15544>>IF      15862>>IF
HW_PTB_UNITS
      5746**DCL     15407>>ASSIGN  15409>>ASSIGN
HW_TIME_LEGAL
      5747**DCL     15446>>IF
HW_WSQ0PT
      5747**DCL     15406>>IF      15416>>IF
I
     15220**DCL     15221--REDEF   15388<<DOINDEX 15389>>IF      15392>>IF      15395>>IF      15400<<DOINDEX
     15407>>ASSIGN  15409>>ASSIGN  15410>>ASSIGN  15411>>ASSIGN  15427>>DOINDEX 15433<<DOINDEX 15434>>CALL
     15481<<ASSIGN  15482<>CALL    15496<<DOINDEX 15497>>CALL    15509<<DOINDEX 15510<>CALL    15542<>CALL
     15578<<CALLBLT 15579>>ASSIGN  15587<<ASSIGN  15588>>IF      15589>>DOWHILE 15590<<ASSIGN  15590>>ASSIGN
     15592>>ASSIGN  15680<<DOINDEX 15681>>ASSIGN  15719>>IF      15788<<DOINDEX 15789>>IF      15789>>IF
     15794>>IF      15796>>ASSIGN  15797<<DOINDEX 15798>>IF      15798>>IF      15803>>CALL    15806>>ASSIGN
     15809>>ASSIGN  15813>>ASSIGN  15842<<DOINDEX 15844>>ASSIGN  15859<<DOINDEX 15860>>DOINDEX 15866>>ASSIGN
ISI
     14277**DCL     15751--ASSIGN
ISI.DFLTPRI
     14291**DCL     14292--REDEF   15747<<ASSIGN
ISI.MXPRI
     14293**DCL     15746<<ASSIGN
ISI.NCACCT
     14295**DCL     15748<<ASSIGN
PL6.E3A0      #001=ITX$INITS File=ITX$INITS.:E05TSI                              TUE 07/29/97 23:10 Page:134
ISI.NCTLOK
     14284**DCL     15745<<ASSIGN
ISI.TNAME
     14301**DCL     15749<<ASSIGN
ISI.WSN
     14303**DCL     15750<<ASSIGN
ITK$TMA$UP
     15354**DCL-ENT 15545--CALL
ITK$TMB$BUF_ALLOC
     15373**DCL-ENT 15472--CALL
ITK$TMB$BUF_DEALLOC
     15374**DCL-ENT 15475--CALL
ITK$TMB$MCA
     15372**DCL-ENT 15474--CALL
IT_BOOTFLAG
     15309**DCL     15448>>IF      15448>>IF      15535>>ASSIGN  15562>>IF
IT_CLOCKOK
     15312**DCL     15479<<ASSIGN
IT_DATE
     15292**DCL     15451<>CALL    15454>>ASSIGN  15460<<ASSIGN  15462<>CALL    15464>>IF      15469<>CALL
IT_INTL66
     13730**DCL     15508>>ASSIGN
IT_INTL66.L66INT
     13738**DCL     13739--REDEF   13743--REDEF   15506<<ASSIGN  15507<<ASSIGN  15507>>ASSIGN
IT_INTL66.L6INT
     13736**DCL     13737--REDEF
IT_SCPUWSPTD
     15314**DCL     15434<>CALL
IT_SYSDISK
     15313**DCL     15588>>IF      15589>>DOWHILE 15592>>ASSIGN  15593>>ASSIGN  15594>>ASSIGN
IT_TIME
     15293**DCL     15451<>CALL    15455>>ASSIGN  15461<<ASSIGN  15467<>CALL    15469<>CALL
IT_TXT_LOCAL
     15295**DCL     15706>>ASSIGN
IT_UTS
     15294**DCL     15469<>CALL    15470<>CALL    15473>>ASSIGN
PL6.E3A0      #001=ITX$INITS File=ITX$INITS.:E05TSI                              TUE 07/29/97 23:10 Page:135
IT_WSN
     15310**DCL     15698>>ASSIGN
J
     15219**DCL     15427<<DOINDEX 15428>>ASSIGN  15860<<DOINDEX 15862>>IF      15862>>IF      15862>>IF
     15866>>ASSIGN
JUSTALT IN PROCEDURE AVRINIT
     15831**LABEL   15829--CALLALT
KCC$CLOCK
     15341**DCL-ENT 15480--CALL
KCL$ININT
     15379**DCL-ENT 15754--CALL
KCL$OCINT
     15377**DCL-ENT 15717--CALL
KCL$RDEA
     15378**DCL-ENT 15752--ASSIGN
KCL$WRTEA
     15376**DCL-ENT 15716--ASSIGN  15739--ASSIGN
KC_HOG$
     14238**DCL     15721<<ASSIGN
KC_HOG_INFO
     14191**DCL     15722<<ASSIGN
KC_HOG_INFO.ATTR
     14198**DCL     14198--REDEF
KC_ISID
     14142**DCL     15742>>ASSIGN
KC_NOCG$
      8715**DCL     15757>>ASSIGN  15758<<ASSIGN
KC_OCID
     14168**DCL     15710>>ASSIGN
KC_OSID
     14116**DCL     15731>>ASSIGN
KI$FEI.BD$
     13639**DCL     13640--REDEF
KI$FEI.BDAD.WADDR
     13641**DCL     13642--REDEF
KI$FEI.FECH
PL6.E3A0      #001=ITX$INITS File=ITX$INITS.:E05TSI                              TUE 07/29/97 23:10 Page:136
     13606**DCL     15516<>CALL    15517<>CALL
KI$FEI.FECH.DEV
     13608**DCL     15507>>IF
KI$FEI.FEP#
     13649**DCL     15503>>ASSIGN  15890>>ASSIGN
KI$FEI.FEWSQ
     13632**DCL     15489<<ASSIGN  15516<>CALL    15517<>CALL
KI$FEI.ICQ$
     13626**DCL     15495<<ASSIGN
KI$FEI.IQSZ
     13652**DCL     15494>>ASSIGN  15496>>DOINDEX
KI$FEI.OCQ$
     13620**DCL     15505<<ASSIGN
KI$FEI.OQSZ
     13651**DCL     15491>>ASSIGN  15501>>ASSIGN  15509>>DOINDEX
KI$FEI.PBST.PROB
     13657**DCL     15512>>IF      15512>>IF      15514<<ASSIGN
KI$FEI.PBST.STATE
     13661**DCL     15519<<ASSIGN
KI$FEI.PTPPNO#
     13654**DCL     15490<<ASSIGN
KI$FEI.QOS
     13650**DCL     15504>>ASSIGN
KI$FEI.RCVPB
     13655**DCL     13656--REDEF
KI$FEI$
       745**DCL     15488>>ASSIGN  15890>>ASSIGN  15904>>ASSIGN
KI$QHDR
      2107**DCL     15493<<ASSIGN  15494--ASSIGN  15500<<ASSIGN  15501--ASSIGN
KI$QHDR.CCMD
      2108**DCL     15508<<ASSIGN
KI$QHDR.FEP_NODE#
      2123**DCL     15503<<ASSIGN
KI$QHDR.HOST_NODE#
      2122**DCL     15502<<ASSIGN
KI$QHDR.QOS
PL6.E3A0      #001=ITX$INITS File=ITX$INITS.:E05TSI                              TUE 07/29/97 23:10 Page:137
      2124**DCL     15504<<ASSIGN
KI$QHDR.QSIZE
      2127**DCL     15494<<ASSIGN  15501<<ASSIGN
KIQ$QINIT
     15380**DCL-ENT 15520--CALL
KIQ$TMLP
     15331**DCL-ENT 15528--CALL
KI_FEI$$
       744**DCL       745--IMP-PTR 15488>>ASSIGN  15890>>ASSIGN  15904>>ASSIGN
KI_MXFE
       753**DCL     15481>>ASSIGN  15487>>DOINDEX
KL$PCD
     14389**DCL     15699<<ASSIGN  15764--ASSIGN  15765<>CALL
KL$PCD.ADDD.ACTYP
     14413**DCL     15701<<ASSIGN
KL$PCD.ADDD.ASSOCTRM
     14437**DCL     15706<<ASSIGN
KL$PCD.ADDD.ATYP
     14414**DCL     15702<<ASSIGN
KL$PCD.ADDD.CINFO
     14439**DCL     14443--REDEF
KL$PCD.ADDD.DEVNM
     14432**DCL     14433--REDEF   15703<<ASSIGN  15704>>ASSIGN
KL$PCD.ADDD.DTW.TW
     14435**DCL     15707>>ASSIGN
KL$PCD.ADDD.LDINFO.LDCTX
     14444**DCL     15708<<ASSIGN
KL$PCD.ADDD.NMID
     14446**DCL     14447--REDEF
KL$PCD.ADDD.TNAME
     14436**DCL     15705<<ASSIGN
KL$PCD.ADDD.TWSN
     14438**DCL     15707<<ASSIGN
KL$PCD.CGID
     14470**DCL     15710<<ASSIGN  15731<<ASSIGN  15742<<ASSIGN
KL$PCD.CGINFO
PL6.E3A0      #001=ITX$INITS File=ITX$INITS.:E05TSI                              TUE 07/29/97 23:10 Page:138
     14493**DCL     15700<<ASSIGN  15722>>ASSIGN
KL$PCD.CGINFO.ATTR
     14498**DCL     14498--REDEF   15734<<ASSIGN  15744<<ASSIGN
KL$PCD.CGINFO.FLG.INPUT
     14497**DCL     15712<<ASSIGN  15743<<ASSIGN
KL$PCD.CGINFO.FLG.OUTPUT
     14497**DCL     15713<<ASSIGN  15733<<ASSIGN
KL$PCD.CGINFO.NWINFO
     14499**DCL     15715<<ASSIGN  15738<<ASSIGN  15751<<ASSIGN  15764>>ASSIGN
KL$PCD.CGINFO.WHO.ACCT
     14496**DCL     15704<<ASSIGN
KL$PCD.CGINFO.WIDTH
     14495**DCL     15711<<ASSIGN  15732<<ASSIGN
KL$PCD.CGINFO.XTRAINFO
     14501**DCL     14503--REDEF   15714--ASSIGN  15715--ASSIGN  15735--ASSIGN  15736--ASSIGN  15737--ASSIGN
     15745--ASSIGN  15746--ASSIGN  15747--ASSIGN  15748--ASSIGN  15749--ASSIGN  15750--ASSIGN  15764--ASSIGN
K_NODE#
      2077**DCL     15502>>ASSIGN
K_RWPARM_CON.BLKREC
      1808**DCL      1833--REDEF
K_RWPARM_CON.BLKREC.BLKU#
      1809**DCL      1811--REDEF
K_RWPARM_CON.BLKREC.RECU#
      1821**DCL      1823--REDEF
K_RWPARM_CON.DVE.DVBYTE.VFC
      1848**DCL      1849--REDEF
K_RWPARM_CON.DVE.EOMCHAR
      1856**DCL      1860--REDEF
K_RWPARM_CON.ERR
      1920**DCL      1925--REDEF
K_RWPARM_CON.FC
      1884**DCL      1885--REDEF
K_RWPARM_CON.FLDID
      2066**DCL      2067--REDEF
K_RWPARM_CON.FPT$
      1947**DCL      1954--REDEF
PL6.E3A0      #001=ITX$INITS File=ITX$INITS.:E05TSI                              TUE 07/29/97 23:10 Page:139
K_RWPARM_CON.KEYTYPE
      2073**DCL      2074--REDEF
K_RWPARM_CON.MSG$
      1783**DCL      1789--REDEF
K_RWPARM_CON.MSGID
      1895**DCL      1900--REDEF
K_RWPARM_CON.MSGIDXT
      1908**DCL      1912--REDEF
K_RWPARM_CON.ORG
      2044**DCL      2045--REDEF
K_RWPARM_CON.THDRSZ
      1988**DCL      1992--REDEF
K_RWPARM_CON.VDOFLGS
      2046**DCL      2057--REDEF
LDCT$
     15239**DCL     15660<>CALL    15661>>ASSIGN  15662>>ASSIGN  15663>>ASSIGN  15664>>ASSIGN  15665<>CALL
     15666>>ASSIGN  15667>>ASSIGN  15668>>ASSIGN  15669>>ASSIGN  15670<>CALL    15671>>ASSIGN  15672>>ASSIGN
     15673>>ASSIGN  15674>>ASSIGN  15675<>CALL    15676>>ASSIGN  15677>>ASSIGN  15678>>ASSIGN  15679>>ASSIGN
     15685<>CALL    15687>>ASSIGN  15688>>ASSIGN  15689>>ASSIGN  15690>>ASSIGN  15691>>ASSIGN  15695>>ASSIGN
     15708>>ASSIGN  15709>>IF      15717<>CALL    15721>>ASSIGN  15726>>ASSIGN  15754<>CALL    15757>>ASSIGN
     15758>>ASSIGN  15760>>ASSIGN  15763>>ASSIGN  15884<>CALL    15885>>ASSIGN  15887>>CALLBLT 15888>>ASSIGN
     15889>>ASSIGN  15890>>ASSIGN  15892>>ASSIGN  15893>>ASSIGN  15894>>ASSIGN  15895>>ASSIGN  15896>>ASSIGN
     15897>>ASSIGN  15903>>ASSIGN
MMB$GNPP
     15334**DCL-ENT 15402--CALL
MME$CVM
     15337**DCL-ENT 15413--CALL    15414--CALL    15434--CALL
MMQ$INIT
     15340**DCL-ENT 15478--CALL
MMS$GETCQ
     15342**DCL-ENT 15492--CALL    15497--CALL    15499--CALL    15510--CALL
MMS$WSQINIT
     15332**DCL-ENT 15482--CALL
MM_FPMC
     15315**DCL     15428>>ASSIGN
MSG IN PROCEDURE OCWRITE
PL6.E3A0      #001=ITX$INITS File=ITX$INITS.:E05TSI                              TUE 07/29/97 23:10 Page:140
     15613**DCL     15612--PROC    15617--ENTRY   15636--ASSIGN  15637>>ASSIGN  15641--ASSIGN
N$DCT$
      6761**DCL     15440>>ASSIGN  15578>>CALLBLT 15580>>ASSIGN  15622>>IF      15681>>ASSIGN  15798>>IF
     15798>>IF      15803>>CALL    15806>>ASSIGN  15809>>ASSIGN  15844>>ASSIGN  15900>>IF      15903>>ASSIGN
     15904>>ASSIGN  15906>>ASSIGN
N$DCT$$
      6627**DCL      6761--IMP-PTR 15440>>ASSIGN  15537>>ASSIGN  15578>>CALLBLT 15580>>ASSIGN  15622>>IF
     15681>>ASSIGN  15798>>IF      15798>>IF      15803>>CALL    15806>>ASSIGN  15809>>ASSIGN  15844>>ASSIGN
     15900>>IF      15903>>ASSIGN  15904>>ASSIGN  15906>>ASSIGN
N$FQ$
      6627**DCL      6762--IMP-PTR
N$REQ
     13890**DCL     15648<>CALL    15649<>CALL    15817<>CALL    15818<>CALL
N$REQ.BPMIR
     13935**DCL     15628<<ASSIGN
N$REQ.BUF$
     13899**DCL     15636<<ASSIGN  15641<<ASSIGN
N$REQ.BUFADDR
     13899**DCL     13900--REDEF   13900--REDEF
N$REQ.BUFSIZE
     13893**DCL     15637<<ASSIGN  15642<<ASSIGN
N$REQ.DLA.DCTX
     13890**DCL     15629<<ASSIGN  15645<<ASSIGN  15694<<ASSIGN  15813<<ASSIGN
N$REQ.DLA.DRELADDR
     13891**DCL     13891--REDEF
N$REQ.DVE.EOMCHAR
     13928**DCL     13929--REDEF
N$REQ.EAENTRY
     13921**DCL     15716<<ASSIGN  15739<<ASSIGN  15752<<ASSIGN
N$REQ.EAINFO
     13922**DCL     13922--REDEF
N$REQ.EAINFOP$
     13922**DCL     15695<<ASSIGN
N$REQ.EAINFOX
     13922**DCL     13923--REDEF
N$REQ.EVNTINFO
PL6.E3A0      #001=ITX$INITS File=ITX$INITS.:E05TSI                              TUE 07/29/97 23:10 Page:141
     13923**DCL     13923--REDEF
N$REQ.FC
     13893**DCL     15647<<ASSIGN  15753<<ASSIGN  15815<<ASSIGN
N$REQ.IOFLG.IOS
     13894**DCL     15443<<ASSIGN
N$REQ.IOS$
     13903**DCL     15442<>CALL
N$REQ.NOALT
     13893**DCL     15692<<ASSIGN
N$REQ.OPFLG
     13896**DCL     15630<<ASSIGN  15644<<ASSIGN  15693<<ASSIGN
N$REQ.OPFLG.HOLD
     13898**DCL     15814<<ASSIGN
N$REQ.RCT
     13925**DCL     15816<<ASSIGN
N$REQ.STATUS
     13904**DCL     13910--REDEF   15650>>IF
N$REQ.TYC
     13912**DCL     15652>>ASSIGN
N$REQ_INIT.BUFADDR
      6646**DCL      6647--REDEF    6647--REDEF
N$REQ_INIT.DLA.DRELADDR
      6638**DCL      6638--REDEF
N$REQ_INIT.DVE.EOMCHAR
      6675**DCL      6676--REDEF
N$REQ_INIT.EAINFO
      6669**DCL      6669--REDEF
N$REQ_INIT.EAINFOX
      6669**DCL      6670--REDEF
N$REQ_INIT.EVNTINFO
      6670**DCL      6670--REDEF
N$REQ_INIT.STATUS
      6651**DCL      6657--REDEF
NI$CHT.DQH$
     13838**DCL     15794>>IF      15796>>ASSIGN  15866>>ASSIGN
NI$CHT$
PL6.E3A0      #001=ITX$INITS File=ITX$INITS.:E05TSI                              TUE 07/29/97 23:10 Page:142
      6686**DCL     13838--IMP-PTR 15538>>ASSIGN  15794>>IF      15796>>ASSIGN  15866>>ASSIGN
NI$DCT.DCTX
     13799**DCL     15691>>ASSIGN  15694>>ASSIGN  15717<>CALL    15754<>CALL
NI$DCT.DEVNM
     13798**DCL     15578>>CALLBLT 15688>>ASSIGN  15697>>CALLBLT 15703>>ASSIGN
NI$DCT.DFLG
     13800**DCL     15689>>ASSIGN
NI$DCT.DFLG.CM
     13801**DCL     15684<<ASSIGN  15761<<ASSIGN
NI$DCT.DFLG.CONSOLE
     13801**DCL     15683>>IF
NI$DCT.DFLG.OUTPUT
     13801**DCL     15730>>IF
NI$DCT.DFLG.SYMBIONT
     13802**DCL     15683>>IF
NI$DCT.DP
     13818**DCL     13825--REDEF   13828--REDEF   13829--REDEF   13831--REDEF   13831--REDEF   13832--REDEF
     13833--REDEF   13833--REDEF
NI$DCT.DQH$
     13814**DCL     15900>>IF
NI$DCT.DVN
     13807**DCL     15798>>IF
NI$DCT.DVT$
     13814**DCL     15580>>ASSIGN
NI$DCT.MPC.IOCHANX
     13826**DCL     13826--REDEF
NI$DCT.OD.FEI$
     13834**DCL     15904<<ASSIGN
NI$DCT.OD.LDCT$
     13833**DCL     15903<<ASSIGN
NI$DCT.OD.OPCI$
     13833**DCL     15906<<ASSIGN
NI$DCT.PM
     13809**DCL     15849<>CALL    15853>>ASSIGN
NI$DCT.PM.CONNCT
     13809**DCL     15850<<ASSIGN
PL6.E3A0      #001=ITX$INITS File=ITX$INITS.:E05TSI                              TUE 07/29/97 23:10 Page:143
NI$DCT.PM.ELAPSED_TIME
     13810**DCL     15851<<ASSIGN
NI$DCT.PMD$
     13834**DCL     15852>>IF      15853>>ASSIGN
NI$DCT.RAT$
     13799**DCL     15696>>ASSIGN  15803>>CALL
NI$DCT.SC.IOQ$
     13831**DCL     15444<<ASSIGN
NI$DCT.SC.OCINFO$
     13831**DCL     15714>>ASSIGN
NI$DCT.STATUS.DOWN
     13815**DCL     15622>>IF      15717>>IF      15754>>IF      15759>>IF
NI$DCT.TYPE
     13808**DCL     15798>>IF
NI$DQH
     13849**DCL     15474<>CALL
NI$DQH.FEX
     13852**DCL     15900>>IF
NI$DQH.IOCHANX
     13851**DCL     13852--REDEF
NI$DQH.MBX$
     13860**DCL     13861--REDEF
NI$DQH.PM
     13853**DCL     15868<>CALL
NI$DQH.PM.CONNCT
     13854**DCL     15869<<ASSIGN
NI$DQH.PM.ELAPSED_TIME
     13854**DCL     15870<<ASSIGN
NI$DQH.SQH$
     13855**DCL     15796>>ASSIGN
NI$DVT.MPC
     13942**DCL     13943--REDEF
NI$DVT.PACKSIZE
     13941**DCL     15580>>ASSIGN
NI$DVT$
      6686**DCL     15539--ASSIGN
PL6.E3A0      #001=ITX$INITS File=ITX$INITS.:E05TSI                              TUE 07/29/97 23:10 Page:144
NI$FQ$
      6687**DCL      6763--IMP-PTR
NI$IBUF$
      6687**DCL      6763--IMP-PTR
NI$IMXMBX_INIT.PAGED_BASE
      6697**DCL      6698--REDEF    6698--REDEF
NI$IMXMBX_INIT.SIZE
      6699**DCL      6699--REDEF
NI$IOM.ADDRESS
     13878**DCL     15789>>IF
NI$IOM$
      6709**DCL     15789>>IF      15789>>IF
NI$REQ_INIT.DCW
      6721**DCL      6724--REDEF
NI$REQ_INIT.DCW.TALLY
      6722**DCL      6722--REDEF
NI$REQ_INIT.IDCW.EXTA
      6724**DCL      6724--REDEF
NI$REQ_INIT.PCW
      6726**DCL      6730--REDEF
NI$REQ_INIT.SEEK
      6731**DCL      6732--REDEF    6733--REDEF
NI$RP$
      6735**DCL      6765--IMP-PTR
NI$SQH.DOOR
     13872**DCL     13872--REDEF
NI$SQH.FDCT
     13872**DCL     15797>>DOINDEX 15797>>DOINDEX
NI$SQH.NDCT
     13873**DCL     15797>>DOINDEX
NIK$KIPND
     15348**DCL-ENT 15543--CALL
NIM$WRDSBL
     15336**DCL-ENT 15456--CALL
NIM$WRENBL
     15335**DCL-ENT 15453--CALL
PL6.E3A0      #001=ITX$INITS File=ITX$INITS.:E05TSI                              TUE 07/29/97 23:10 Page:145
NIO$IOSPIN
     15353**DCL-ENT 15649--CALL    15818--CALL
NIO$QUE
     15352**DCL-ENT 15648--CALL    15817--CALL
NIO$SPINTCON
     15346**DCL-ENT 15582--CALL    15717--CALL    15754--CALL    15829--CALL
NIQ$GET
     15349**DCL-ENT 15441--CALL    15626--CALL    15686--CALL    15812--CALL
NIQ$GETS
     15350**DCL-ENT 15442--CALL
NIQ$REL
     15351**DCL-ENT 15653--CALL    15819--CALL
NIS$DCCON
     15343**DCL-ENT 15516--CALL    15517--CALL
NI_CHANS
      6735**DCL     15860>>DOINDEX
NI_IOMS
      6739**DCL     15788>>DOINDEX 15859>>DOINDEX
NI_MBX_INIT.DCW.CONTROL.AE
      6757**DCL      6757--REDEF
NI_MBX_INIT.LPW.CONTROL.AE
      6753**DCL      6753--REDEF
NK$LDCT.DDT$
     13690**DCL     13690--REDEF   15809>>ASSIGN
NK$LDCT.DEVNM
     13690**DCL     15662<<ASSIGN  15667<<ASSIGN  15672<<ASSIGN  15677<<ASSIGN  15688<<ASSIGN  15887<<CALLBLT
NK$LDCT.DFLG
     13692**DCL     15689<<ASSIGN
NK$LDCT.DFLG.CM
     13692**DCL     15894<<ASSIGN
NK$LDCT.DFLG.CONSOLE
     13693**DCL     15709>>IF
NK$LDCT.DFLG.INPUT
     13692**DCL     15892<<ASSIGN
NK$LDCT.DFLG.LOCAL
     13694**DCL     15661<<ASSIGN  15666<<ASSIGN  15671<<ASSIGN  15676<<ASSIGN  15690<<ASSIGN
PL6.E3A0      #001=ITX$INITS File=ITX$INITS.:E05TSI                              TUE 07/29/97 23:10 Page:146
NK$LDCT.DFLG.OUTPUT
     13692**DCL     15893<<ASSIGN
NK$LDCT.IOQ$
     13689**DCL     13690--REDEF   15687<<ASSIGN
NK$LDCT.LDCTX
     13691**DCL     13691--REDEF   15664>>ASSIGN  15669>>ASSIGN  15674>>ASSIGN  15679>>ASSIGN  15708>>ASSIGN
     15885>>ASSIGN
NK$LDCT.LKFLG.ABORTED
     13703**DCL     13704--REDEF
NK$LDCT.LKFLG.ACTIVE
     13707**DCL     15895<<ASSIGN
NK$LDCT.LKFLG.OBLK
     13703**DCL     15897<<ASSIGN
NK$LDCT.LKFLG.QDPPATH
     13705**DCL     15896<<ASSIGN
NK$LDCT.LNK$
     13690**DCL     15757<<ASSIGN
NK$LDCT.RAT$
     13691**DCL     15726<<ASSIGN  15806>>ASSIGN
NK$LDCT.RESCOD
     13696**DCL     15663<<ASSIGN  15668<<ASSIGN  15673<<ASSIGN  15678<<ASSIGN  15760<<ASSIGN  15763<<ASSIGN
     15888<<ASSIGN
NK$LDCT.RLCID
     13712**DCL     15889<<ASSIGN
NK$LDCT.RLCID.LDCTX
     13713**DCL     13713--REDEF   15691<<ASSIGN
NK$LDCT.RLCID.NODE
     13712**DCL     15890<<ASSIGN
NK$LDCT.STA$
     13709**DCL     13710--REDEF
NK$LDCT.SYMB$
     13688**DCL     13688--REDEF   13688--REDEF   13689--REDEF
NKL$GETDCT
     15330**DCL-ENT 15660--CALL    15665--CALL    15670--CALL    15675--CALL    15685--CALL    15884--CALL
NK_BABOONLDX
     15307**DCL     15679<<ASSIGN
PL6.E3A0      #001=ITX$INITS File=ITX$INITS.:E05TSI                              TUE 07/29/97 23:10 Page:147
NK_MONKLDX
     15304**DCL     15664<<ASSIGN
NK_MXLOCAL
     15308**DCL     15680>>DOINDEX 15840>>ASSIGN  15842>>DOINDEX
NK_RESUSLDX
     15305**DCL     15674<<ASSIGN
NK_RESUSLDX_HLP
     15306**DCL     15669<<ASSIGN
NOPOMSG
     15264**DCL     15564<>CALL
NOPOMSG.CHR
     15267**DCL     15265--DCLINIT
NUMSP
     15231**DCL     15235--REDEF
NUMSP.ASL
     15234**DCL     15384<<ASSIGN  15391<<ASSIGN  15391>>ASSIGN
NUMSP.CP
     15232**DCL     15385<<ASSIGN  15397<<ASSIGN  15397>>ASSIGN
NUMSP.DB
     15233**DCL     15386<<ASSIGN  15394<<ASSIGN  15394>>ASSIGN
OCI
     14351**DCL     15714<<ASSIGN  15714>>ASSIGN  15715--ASSIGN
OCI.CMD
     14371**DCL     15715--ASSIGN
OCI.CMDCNT
     14369**DCL     15715>>ASSIGN
OCREAD IN PROCEDURE OCWRITE
     15617**ENTRY   15462--CALL    15467--CALL
OCWRITE
     15612**PROC    15457--CALL    15458--CALL    15465--CALL    15564--CALL
OPCINIT
     15879**PROC    15527--CALL
OSI
     14321**DCL     15738--ASSIGN
OSI.FNAME
     14329**DCL     14332--REDEF   14333--REDEF   15736<<ASSIGN
PL6.E3A0      #001=ITX$INITS File=ITX$INITS.:E05TSI                              TUE 07/29/97 23:10 Page:148
OSI.TNAME
     14335**DCL     15737<<ASSIGN
OSI.UPLOCKED
     14326**DCL     15735<<ASSIGN
P$
     15237**DCL     15492<>CALL    15493>>ASSIGN  15494>>ASSIGN  15495>>ASSIGN  15497<>CALL    15499<>CALL
     15500>>ASSIGN  15501>>ASSIGN  15502>>ASSIGN  15503>>ASSIGN  15504>>ASSIGN  15505>>ASSIGN  15508>>ASSIGN
     15510<>CALL    15556<<ASSIGN  15557>>DOWHILE 15558>>CALL    15559<<ASSIGN  15559>>ASSIGN  15568<<ASSIGN
     15570>>ASSIGN  15571>>DOWHILE 15572>>ASSIGN  15573>>ASSIGN  15585<<ASSIGN  15585>>ASSIGN  15844<<ASSIGN
     15846>>IF      15849>>CALL    15850>>ASSIGN  15851>>ASSIGN  15852>>IF      15853>>ASSIGN  15853>>ASSIGN
     15866<<ASSIGN  15867>>IF      15868>>CALL    15869>>ASSIGN  15870>>ASSIGN  15882<<ASSIGN  15883>>DOWHILE
     15885>>ASSIGN  15886>>CALLBLT 15890>>ASSIGN  15900>>IF      15904>>ASSIGN  15906>>ASSIGN  15910<<ASSIGN
     15910>>ASSIGN
P$IODATA
      6263**DCL     15853<<ASSIGN
PMC$COLLECT
     15363**DCL-ENT 15838--CALL
PMINIT
     15834**PROC    15529--CALL
PMN$COLLECT
     15364**DCL-ENT 15849--CALL    15868--CALL
PPNO
     15230**DCL     15401<<ASSIGN  15402<>CALL    15403>>IF      15407>>ASSIGN  15409>>ASSIGN  15413<>CALL
     15414>>CALL    15417>>ASSIGN  15418>>ASSIGN  15421>>ASSIGN  15422>>ASSIGN  15486<<ASSIGN  15490>>ASSIGN
P_DCTXMAX
      6305**DCL     15840<<ASSIGN
P_NPROCS
       704**DCL     15388>>DOINDEX
P_NSCPU
      6309**DCL      6310--REDEF
P_RESOURCE.RES
      6182**DCL      6249--REDEF
P_RESOURCE$
      6262**DCL      6150--IMP-PTR
P_STARTUP
      6285**DCL     15530<>CALL    15534>>ASSIGN  15836<>CALL
PL6.E3A0      #001=ITX$INITS File=ITX$INITS.:E05TSI                              TUE 07/29/97 23:10 Page:149
P_UPTIME
      6298**DCL      6299--REDEF
Q$
     15238**DCL     15441<>CALL    15442>>CALL    15443>>ASSIGN  15444>>ASSIGN  15574<<ASSIGN  15575<>CALL
     15575<>CALL    15626<>CALL    15628>>ASSIGN  15629>>ASSIGN  15630>>ASSIGN  15636>>ASSIGN  15637>>ASSIGN
     15641>>ASSIGN  15642>>ASSIGN  15644>>ASSIGN  15645>>ASSIGN  15647>>ASSIGN  15648>>CALL    15649>>CALL
     15650>>IF      15652>>ASSIGN  15653<>CALL    15686<>CALL    15687>>ASSIGN  15692>>ASSIGN  15693>>ASSIGN
     15694>>ASSIGN  15695>>ASSIGN  15716>>ASSIGN  15739>>ASSIGN  15752>>ASSIGN  15753>>ASSIGN  15765<>CALL
     15812<>CALL    15813>>ASSIGN  15814>>ASSIGN  15815>>ASSIGN  15816>>ASSIGN  15817>>CALL    15818>>CALL
     15819<>CALL
R$ IN PROCEDURE OPCINIT
     15881**DCL     15898<<ASSIGN  15899>>DOWHILE 15900>>IF      15900>>IF      15903>>ASSIGN  15904>>ASSIGN
     15906>>ASSIGN  15908<<ASSIGN  15908>>ASSIGN
RAT$
     15241**DCL     15696<<ASSIGN  15726>>ASSIGN  15727>>ASSIGN  15728>>ASSIGN  15729>>ASSIGN  15734>>ASSIGN
     15736>>ASSIGN  15744>>ASSIGN  15803<>CALL    15805>>ASSIGN  15806<<ASSIGN  15807>>ASSIGN  15808>>ASSIGN
RCVRDATE
     15478**LABEL   15446--GOTO    15449--GOTO    15464--GOTO    15472--CALLALT
RDDATE
     15458**LABEL   15469--CALLALT
RERDDATE
     15455**LABEL   15463--GOTO
RERDTIME
     15464**LABEL   15468--GOTO
RESINIT
     15785**PROC    15563--CALL
RTN IN PROCEDURE RESINIT
     15801**LABEL   15793--GOTO    15795--GOTO    15803--CALLALT
S IN PROCEDURE OPCINIT
     15880**DCL     15886<<CALLBLT 15887>>CALLBLT
S$WSPTD
      5692**DCL     15435<<ASSIGN  15436<<ASSIGN  15437<<ASSIGN  15438<<ASSIGN
SCNPP
     15593**LABEL   15482--CALLALT 15492--CALLALT 15497--CALLALT 15499--CALLALT 15510--CALLALT 15527--CALLALT
SCNPP IN PROCEDURE CGINIT
     15764**LABEL   15659--CALLALT 15660--CALLALT 15665--CALLALT 15670--CALLALT 15675--CALLALT 15685--CALLALT
PL6.E3A0      #001=ITX$INITS File=ITX$INITS.:E05TSI                              TUE 07/29/97 23:10 Page:150
     15686--CALLALT 15765--CALLALT
SCNPP IN PROCEDURE OPCINIT
     15913**LABEL   15884--CALLALT
SC_NCOMPP
     15344**DCL-ENT 15405--CALL    15599--CALL
SC_NLCLPP
     15345**DCL-ENT 15772--CALL
SETINIT
     15562**LABEL   15563--CALLALT
SQH$
     15245**DCL     15796<<ASSIGN  15797>>DOINDEX 15797>>DOINDEX 15797>>DOINDEX
SSC$MONTIMR
     15365**DCL-ENT 15543--CALL    15838--CALL
SSS$CURTIME
     15367**DCL-ENT 15836--CALL
SSS$FEPERA
     15371**DCL-ENT 15530--CALL
SSS$SETBTIME
     15360**DCL-ENT 15470--CALL
STATUS
     15225**DCL     15584<>CALL    15623<<ASSIGN  15650<<ASSIGN  15651<<ASSIGN
SZ
     15217**DCL     15413<>CALL    15414<>CALL    15434<>CALL    15491<<ASSIGN  15492<>CALL    15497>>CALL
S_BOOTERA
     15326**DCL     15531<<ASSIGN
S_BOOTQUARTER
     15327**DCL     15532<<ASSIGN
S_NSCPU
     15325**DCL     15433>>DOINDEX
S_WSPTD
      5701**DCL     15435>>ASSIGN  15436>>ASSIGN  15437>>ASSIGN  15438>>ASSIGN
S_WSPTD.BLKNO
      5701**DCL     15407<<ASSIGN  15409<<ASSIGN
S_WSPTD.NBLKS
      5701**DCL     15411<<ASSIGN  15427>>DOINDEX
S_WSPTD.P
PL6.E3A0      #001=ITX$INITS File=ITX$INITS.:E05TSI                              TUE 07/29/97 23:10 Page:151
      5701**DCL     15410<<ASSIGN
TEMP_FEP_ERA
     15249**DCL     15530<>CALL
TEMP_FEP_ERA.ERA
     15250**DCL     15531>>ASSIGN  15532>>ASSIGN
TMMSG
     15278**DCL     15465<>CALL
TMMSG.CHR
     15281**DCL     15279--DCLINIT
TM_MCA_DO_TIME
     14931**DCL     15450<<ASSIGN  15452<<ASSIGN
UMT$IDT
     15359**DCL-ENT 15451--CALL
UMT$LCLDATE
     15358**DCL-ENT 15469--CALL
UQC$INIT
     15366**DCL-ENT 15554--CALL
UTS_B
     15252**DCL     15473<<ASSIGN
WSNX
     15242**DCL     15697<<CALLBLT 15698>>ASSIGN  15764<<ASSIGN  15765<>CALL
WTNM
     15243**DCL     15698<<ASSIGN  15705>>ASSIGN  15737>>ASSIGN  15749>>ASSIGN  15750>>ASSIGN
XDCT IN PROCEDURE AVRINIT
     15827**DCL     15828<<ASSIGN  15829<>CALL
