VERSION E05

PL6.E3A0      #001=IT_DATA_D File=IT_DATA_D.:E05TSI                              TUE 07/29/97 23:11 Page:1
        1        1        /*M*     Temporary data required by TIGR */
        2        2        /*T***********************************************************/
        3        3        /*T*                                                         */
        4        4        /*T* Copyright (c) Bull HN Information Systems Inc., 1997    */
        5        5        /*T*                                                         */
        6        6        /*T***********************************************************/
        7        7        /**/
        8        8        IT_DATA_D: PROC;
        9        9        /**/
       10       10        %INCLUDE N_FC_C;
       11       47        %INCLUDE NI_DATA_C;
       12      160        %INCLUDE NI$TABLES;
       13      376        %INCLUDE IT_SUBS_C;
       14      643        %INCLUDE IT$CONFIG;
       15      712        %INCLUDE KI$QHDR;
       16      864        %INCLUDE KI_SUBS_C;
       17     1000        /**/
       18     1001        /**/
       19     1002    1   DCL IT_VFC(0:14) BIT(36) CONSTANT SYMDEF ALIGNED INIT ( /* Printer vfc image  */
       20     1003    1              '006063001020'O,'002020003020'O,'004020005020'O,
       21     1004    1              '006020007140'O,'010040011001'O,'013002015003'O,
       22     1005    1              '017004022005'O,'025006030007'O,'033010036011'O,
       23     1006    1              '041012044013'O,'047014052015'O,'054016055060'O,
       24     1007    1              '056024057024'O,'060024061024'O,'062024063024'O);
       25     1008    1   DCL IT_CHAIN500(0:5) CHAR(40) CONSTANT SYMDEF ALIGNED INIT(
              1008            /* Printer chain model 500 */
       26     1009    1              '=5678GHIJKL|0.-*/MNOPQR:&(9),STUVWX}0123',
       27     1010    1              '4YZ$`#+!?5678ABCDEF~0.-*/GHIJKL<>(9),MNO',
       28     1011    1              'PQR{01234STUVWX;''5678YZ$@#%_0.-*/ABCDEF"',
       29     1012    1              '=(9),GHIJKL\01234MNOPQR:&5678STUVWX]0.-*',
       30     1013    1              '/YZ$@#+!?(9),ABCDEF^01234ghijkl<>5678mno',
       31     1014    1              'pqr[0.-*/stuvwx;''(9),yz$@#%_01234abcdef"');
       32     1015    1   DCL IT_CHAIN600(0:5) CHAR(40) CONSTANT SYMDEF ALIGNED INIT(
              1015            /* Printer chain model 600 */
       33     1016    1              'BDFGHJgS0ACEINORLTabcdefKhijklmM0PQUVWXY',
       34     1017    1              'Z:;?!%7xynoprstw0z123456#89.,()@$=&/''\^_',
       35     1018    1              '0"<>[]gS~ACEINOR{Tabcdef0hijklm}|`-*+quv',
PL6.E3A0      #001=IT_DATA_D File=IT_DATA_D.:E05TSI                              TUE 07/29/97 23:11 Page:2
       36     1019    1              'BDFGHJ7x0noprstwLz123456K89.,()M0PQUVWXY',
       37     1020    1              'Z:;?!%gSyACEINOR0Tabcdef#hijklm@$=&/''\^_',
       38     1021    1              '0"<>[]7x~noprstw{z123456089.,()}|`-*+quv');
       39     1022        /**/
       40     1023    1   DCL IT_OUTDEV UBIN WORD STATIC SYMDEF INIT(1); /* Me                          */
       41     1024    1   DCL IT_INDEV UBIN WORD STATIC SYMDEF INIT(0); /* Patch                        */
       42     1025    1   DCL IT_ECHODEV UBIN WORD STATIC SYMDEF INIT(2); /* Lp                         */
       43     1026        /**/
       44     1027    1   DCL IT_MINIQ_ME UBIN WORD STATIC SYMDEF INIT(1); /* Me                        */
       45     1028    1   DCL IT_MINIQ_LP UBIN WORD STATIC SYMDEF INIT(2); /* Lp                        */
       46     1029    1   DCL IT_MINIQ_CR UBIN WORD STATIC SYMDEF INIT(4); /* Cr                        */
       47     1030    1   DCL IT_MINIQ_TA UBIN WORD STATIC SYMDEF INIT(8); /* Ta                        */
       48     1031    1   DCL IT_MINIQ_PA UBIN WORD STATIC SYMDEF INIT(0); /* PATCH STREAM              */
       49     1032        /**/
       50     1033    1   DCL IT_MMDSMAX(0:7) UBIN BYTE STATIC SYMDEF UNAL INIT(0*0); /* SAVE MM_DSMAX  */
       51     1034    1   DCL IT_CP6UP UBIN WORD STATIC SYMDEF INIT(0);   /* System is up flag       */
       52     1035    1   DCL IT_CLOCKOK BIT(1) ALIGNED STATIC SYMDEF INIT('0'B);
       53     1036    1   DCL IT_CLOFF BIT(72) DALIGNED STATIC SYMDEF;
       54     1037    1   DCL B$IMXBUF$ PTR STATIC SYMDEF;
       55     1038    1   DCL IT_DATASIZE UBIN WORD ALIGNED STATIC SYMDEF;
       56     1039    1   DCL IT_SYSDISK UBIN WORD STATIC SYMDEF INIT(0); /* DCTX OF SYSTEM DISK        */
       57     1040    1   DCL IT_SYSDIR$ PTR STATIC SYMDEF;  /* POINTER TO SYSTEM AREA DIRECTORY */
       58     1041    1   DCL IT_DUMPSIZE UBIN WORD STATIC SYMDEF INIT(0); /* SYS DISK GRANULES RESERVED */
       59     1042    1   DCL IT_XDELTA UBIN WORD STATIC SYMDEF INIT(0);
       60     1043    1   DCL IT_BOOTFLAG UBIN WORD STATIC SYMDEF INIT(0);
       61     1044    1   DCL IT_PATCHSP UBIN WORD STATIC SYMDEF INIT(0); /* Minimum patch space        */
       62     1045    1   DCL IT_UFLG UBIN STATIC SYMDEF INIT(0);
       63     1046    1   DCL IT_WSNX UBIN WORD STATIC SYMDEF INIT(0);
       64     1047    1   DCL 1 IT_WSN STATIC SYMDEF,
       65     1048    1         2 NAME(0:3) CHAR(8) UNAL INIT('LOCAL',' '*0);
       66     1049    1   DCL IT_GOTLP BIT(1) STATIC SYMDEF INIT ('0'B);
       67     1050    1   DCL IT_SCPUWSPTD(0:%NUM_CPUS) UBIN WORD STATIC SYMDEF;
              1050            /* Page address of wsptd for slaves */
       68     1051    1   DCL IT_SCPUJIT(0:%NUM_CPUS) UBIN WORD STATIC SYMDEF;
              1051            /* Jit page numbers              */
       69     1052    1   DCL IT_SCPUHJIT(0:%NUM_CPUS) UBIN WORD STATIC SYMDEF;
              1052            /* Hjit page numbers            */
PL6.E3A0      #001=IT_DATA_D File=IT_DATA_D.:E05TSI                              TUE 07/29/97 23:11 Page:3
       70     1053    1   DCL IT_AAFAULT BIT(72) DALIGNED STATIC SYMDEF;
              1053            /* Aardvark fault handler entry desc. */
       71     1054    1   DCL IT_MONFAULT BIT(72) DALIGNED STATIC SYMDEF; /* Mon fault handler entry desc. */
       72     1055    1   DCL IT_OLDPORT UBIN WORD STATIC SYMDEF;
       73     1056            /* Old master CPU port number from disk on disk boot */
       74     1057    1   DCL IT_FEI$$ PTR STATIC SYMDEF INIT(ADDR(NIL));
       75     1058    1   DCL FP_OPCI$$ PTR STATIC SYMDEF INIT(ADDR(NIL));
       76     1059    1   DCL FP_MXOPC UBIN STATIC SYMDEF INIT(0);
       77     1060        %NI$PARTITION (NAME=IT_PARTITION,STCLASS="STATIC SYMDEF");
       78     1068        %IT$CONFIG (NAME=IT_CONFIG,STCLASS="STATIC SYMDEF");
       79     1129        /**/
       80     1130    1   DCL TIGR_BUF CHAR(80) ALIGNED STATIC SYMDEF INIT(' ');
       81     1131    1   DCL TIGRHERE(0:2) BIT(36) ALIGNED STATIC SYMDEF INIT('015012012124'O,'111107122040'O
              1131            ,
       82     1132    1         '150145162145'O); /* CR,LF,LF,'TIGR here' */
       83     1133    1   DCL TIGR_FIRST BIT(1) ALIGNED STATIC SYMDEF INIT('1'B);
       84     1134    1   DCL TIGRPROMPT BIT(36) ALIGNED STATIC SYMDEF INIT('015015012044'O);
              1134            /* CR,CR,LF,'$' */
       85     1135    1   DCL MASTER_GIVEN BIT(1) ALIGNED STATIC SYMDEF INIT('0'B);
       86     1136    1   DCL AARDCONFOUND BIT(1) ALIGNED STATIC SYMDEF INIT('0'B);
       87     1137    1   DCL GORCHBUF CHAR(80) ALIGNED STATIC SYMDEF;
       88     1138    1   DCL IT_CRLF BIT(72) ALIGNED CONSTANT SYMDEF INIT('015015015012'O);
       89     1139    1   DCL 1 FM_SYSDP STATIC SYMDEF,           /* THIS FORM MAKES IT EASY FOR BOOT   */
       90     1140    1         2 PORT UBIN(9) UNAL,
       91     1141    1         2 CHN UBIN(9) UNAL,
       92     1142    1         2 DVN UBIN(9) UNAL,
       93     1143    1         2 * UBIN(9) UNAL;
       94     1144        %KI_CCMD (NAME=IT_INTL66,STCLASS="STATIC SYMDEF",CMD=KIOP_INTL66);
       95     1172    1   DCL IT_DATE CHAR(8) STATIC SYMDEF;
       96     1173    1   DCL IT_TIME CHAR(5) STATIC SYMDEF;
       97     1174    1   DCL IT_UTS UBIN WORD STATIC SYMDEF INIT(0);
       98     1175        /**/
       99     1176    1   DCL 1 FM_POTAPE STATIC SYMDEF,          /* THIS FORM MAKES IT EASY FOR BOOT   */
      100     1177    1         2 PORT UBIN(9) UNAL,
      101     1178    1         2 CHN UBIN(9) UNAL,
      102     1179    1         2 DVN UBIN(9) UNAL,
      103     1180    1         2 * UBIN(9) UNAL;
PL6.E3A0      #001=IT_DATA_D File=IT_DATA_D.:E05TSI                              TUE 07/29/97 23:11 Page:4
      104     1181    1   DCL FR_TIFLG SBIN STATIC SYMDEF INIT(3);
      105     1182    1   DCL IT_TIGRCUB BIT(1) ALIGNED STATIC SYMDEF INIT('0'B);
      106     1183
      107     1184                                                /* GLOBAL TIGR CONSTANTS */
      108     1185    1   DCL IT_TXT_0000        CHAR(4) CONSTANT SYMDEF INIT('0000');
      109     1186    1   DCL IT_TXT_LOCAL       CHAR(5) CONSTANT SYMDEF INIT('LOCAL');
      110     1187    1   END;

PL6.E3A0      #001=IT_DATA_D File=IT_DATA_D.:E05TSI                              TUE 07/29/97 23:11 Page:5
--  Include file information  --

   KI_SUBS_C.:E05TOU  is referenced.
   KI$QHDR.:E05TOU  cannot be made into a system file and is referenced.
   IT$CONFIG.:E05TOU  is referenced.
   IT_SUBS_C.:E05TOU  is referenced.
   NI$TABLES.:E05TOU  is referenced.
   NI_DATA_C.:E05TOU  is referenced.
   N_FC_C.:E05TOU  is referenced.
      No diagnostics issued in procedure IT_DATA_D.

   No code generated for procedure IT_DATA_D .
   Procedure IT_DATA_D requires 4 words of local(AUTO) storage.

    No errors detected in file IT_DATA_D.:E05TSI    .

PL6.E3A0      #001=IT_DATA_D File=IT_DATA_D.:E05TSI                              TUE 07/29/97 23:11 Page:6

 Object Unit name= IT_DATA_D                                  File name= IT_DATA_D.:E05TOU
 UTS= JUL 29 '97 23:11:41.16 TUE                              Compiler= PL-6/E31         Sev=      00
 SharedLib= :SHARED_SYSTEM                                    Alt SharedLib=


    ****  Control sections  ****

 Sect   Type Bound  Init  Size OctSiz  Section name(segment info)
    0  RoData even  UTS    140    214  IT_DATA_D
    1   Data  even  none   199    307  IT_DATA_D
    2   Proc  even  none     0      0  IT_DATA_D

    ****  Entry defs  ****

                              Check   Calling
                             calling  sequence
  Sect OctLoc Primary Altret sequence   type   Parms  Name
     2      0   yes            yes     ~proc       0  IT_DATA_D
PL6.E3A0      #001=IT_DATA_D File=IT_DATA_D.:E05TSI                              TUE 07/29/97 23:11 Page:7

  ****  Data defs  ****

 Sect OctLoc  Name                           Sect OctLoc  Name
    0      0  IT_VFC                             0     17  IT_CHAIN500
    0    113  IT_CHAIN600                        1      0  IT_OUTDEV
    1      1  IT_INDEV                           1      2  IT_ECHODEV
    1      3  IT_MINIQ_ME                        1      4  IT_MINIQ_LP
    1      5  IT_MINIQ_CR                        1      6  IT_MINIQ_TA
    1      7  IT_MINIQ_PA                        1     10  IT_MMDSMAX
    1     12  IT_CP6UP                           1     13  IT_CLOCKOK
    1     14  IT_CLOFF                           1     16  B$IMXBUF$
    1     17  IT_DATASIZE                        1     20  IT_SYSDISK
    1     21  IT_SYSDIR$                         1     22  IT_DUMPSIZE
    1     23  IT_XDELTA                          1     24  IT_BOOTFLAG
    1     25  IT_PATCHSP                         1     26  IT_UFLG
    1     27  IT_WSNX                            1     30  IT_WSN
    1     40  IT_GOTLP                           1     41  IT_SCPUWSPTD
    1     51  IT_SCPUJIT                         1     61  IT_SCPUHJIT
    1     72  IT_AAFAULT                         1     74  IT_MONFAULT
    1     76  IT_OLDPORT                         1     77  IT_FEI$$
    1    100  FP_OPCI$$                          1    101  FP_MXOPC
    1    102  IT_PARTITION                       1    164  IT_CONFIG
    1    216  TIGR_BUF                           1    242  TIGRHERE
    1    245  TIGR_FIRST                         1    246  TIGRPROMPT
    1    247  MASTER_GIVEN                       1    250  AARDCONFOUND
    1    251  GORCHBUF                           0    207  IT_CRLF
    1    275  FM_SYSDP                           1    276  IT_INTL66
    1    277  IT_DATE                            1    301  IT_TIME
    1    303  IT_UTS                             1    304  FM_POTAPE
    1    305  FR_TIFLG                           1    306  IT_TIGRCUB
    0    211  IT_TXT_0000                        0    212  IT_TXT_LOCAL
PL6.E3A0      #001=IT_DATA_D File=IT_DATA_D.:E05TSI                              TUE 07/29/97 23:11 Page:8

  ****  Segment refs  ****

  Flags:  r = read only, s = secondary
Flgs Name                             Flgs Name                             Flgs Name
     NULLSID
PL6.E3A0      #001=IT_DATA_D File=IT_DATA_D.:E05TSI                              TUE 07/29/97 23:11 Page:9


(unnamed)
 Sect OctLoc
   0     000   006063 001020   002020 003020   004020 005020   006020 007140    .3.............`
   0     004   010040 011001   013002 015003   017004 022005   025006 030007    . ..............
   0     010   033010 036011   041012 044013   047014 052015   054016 055060    ....!.$.'.*.,.-0
   0     014   056024 057024   060024 061024   062024 063024   075065 066067    ../.0.1.2.3.=567
   0     020   070107 110111   112113 114174   060056 055052   057115 116117    8GHIJKL|0.-*/MNO
   0     024   120121 122072   046050 071051   054123 124125   126127 130175    PQR:&(9),STUVWX}
   0     030   060061 062063   064131 132044   140043 053041   077065 066067    01234YZ$`#+!?567
   0     034   070101 102103   104105 106176   060056 055052   057107 110111    8ABCDEF~0.-*/GHI
   0     040   112113 114074   076050 071051   054115 116117   120121 122173    JKL<>(9),MNOPQR{
   0     044   060061 062063   064123 124125   126127 130073   047065 066067    01234STUVWX;'567
   0     050   070131 132044   100043 045137   060056 055052   057101 102103    8YZ$@#%_0.-*/ABC
   0     054   104105 106042   075050 071051   054107 110111   112113 114134    DEF"=(9),GHIJKL\
   0     060   060061 062063   064115 116117   120121 122072   046065 066067    01234MNOPQR:&567
   0     064   070123 124125   126127 130135   060056 055052   057131 132044    8STUVWX]0.-*/YZ$
   0     070   100043 053041   077050 071051   054101 102103   104105 106136    @#+!?(9),ABCDEF^
   0     074   060061 062063   064147 150151   152153 154074   076065 066067    01234ghijkl<>567
   0     100   070155 156157   160161 162133   060056 055052   057163 164165    8mnopqr[0.-*/stu
   0     104   166167 170073   047050 071051   054171 172044   100043 045137    vwx;'(9),yz$@#%_
   0     110   060061 062063   064141 142143   144145 146042   102104 106107    01234abcdef"BDFG
   0     114   110112 147123   060101 103105   111116 117122   114124 141142    HJgS0ACEINORLTab
   0     120   143144 145146   113150 151152   153154 155115   060120 121125    cdefKhijklmM0PQU
   0     124   126127 130131   132072 073077   041045 067170   171156 157160    VWXYZ:;?!%7xynop
   0     130   162163 164167   060172 061062   063064 065066   043070 071056    rstw0z123456#89.
   0     134   054050 051100   044075 046057   047134 136137   060042 074076    ,()@$=&/'\^_0"<>
   0     140   133135 147123   176101 103105   111116 117122   173124 141142    []gS~ACEINOR{Tab
   0     144   143144 145146   060150 151152   153154 155175   174140 055052    cdef0hijklm}|`-*
   0     150   053161 165166   102104 106107   110112 067170   060156 157160    +quvBDFGHJ7x0nop
   0     154   162163 164167   114172 061062   063064 065066   113070 071056    rstwLz123456K89.
   0     160   054050 051115   060120 121125   126127 130131   132072 073077    ,()M0PQUVWXYZ:;?
   0     164   041045 147123   171101 103105   111116 117122   060124 141142    !%gSyACEINOR0Tab
   0     170   143144 145146   043150 151152   153154 155100   044075 046057    cdef#hijklm@$=&/
   0     174   047134 136137   060042 074076   133135 067170   176156 157160    '\^_0"<>[]7x~nop
   0     200   162163 164167   173172 061062   063064 065066   060070 071056    rstw{z123456089.
   0     204   054050 051175   174140 055052   053161 165166   015015 015012    ,()}|`-*+quv....
PL6.E3A0      #001=IT_DATA_D File=IT_DATA_D.:E05TSI                              TUE 07/29/97 23:11 Page:10
   0     210   000000 000000   060060 060060   114117 103101   114*** ******    ....0000LOCAL...

(unnamed)
 Sect OctLoc
   1     000   000000 000001   000000 000000   000000 000002   000000 000001    ................
   1     004   000000 000002   000000 000004   000000 000010   000000 000000    ................
   1     010   000000 000000   000000 000000   000000 000000   0***** ******    ................
   1     020*  000000 000000   ****** ******   000000 000000   000000 000000    ................
   1     024   000000 000000   000000 000000   000000 000000   000000 000000    ................
   1     030   114117 103101   114040 040040   040040 040040   040040 040040    LOCAL
   1     034   040040 040040   040040 040040   040040 040040   040040 040040
   1     040   0***** ******   ****** ******   ****** ******   ****** ******    ................
   1     074*  ****** ******   ****** ******   ****** ******   000000 006014    ................
   1     100   000000 006014   000000 000000   ****** ******   ****** ******    ................
   1     164*  000000 000000   000000 000000   000000 000000   000000 000000    ................
   1     170   000000 000000   040040 040040   040040 040040   040040 040040    ....
   1     174   000000 000000   000000 000000   000000 000000   000000 000000    ................
   1     200   000000 000000   000000 000000   040040 040040   000000 000000    ........    ....
   1     204   000000 000000   000000 000000   000000 000000   040040 040040    ............
   1     210   000000 000000   000000 000000   000000 000000   ****** ******    ................
   1     214   400000 000000   000000 000000   040040 040040   040040 040040    ........
   1     220   040040 040040   040040 040040   040040 040040   040040 040040
   1     240*  040040 040040   040040 040040   015012 012124   111107 122040            ...TIGR
   1     244   150145 162145   4***** ******   015015 012044   0***** ******    here.......$....
   1     250   0***** ******   ****** ******   ****** ******   ****** ******    ................
   1     274*  ****** ******   ****** ******   000000 000073   ****** ******    ...........;....
   1     300   ****** ******   ****** ******   ****** ******   000000 000000    ................
   1     304   ****** ******   000000 000003   0***** ******                    ............
        1        1        /*M*     Temporary data required by TIGR */
        2        2        /*T***********************************************************/
        3        3        /*T*                                                         */
        4        4        /*T* Copyright (c) Bull HN Information Systems Inc., 1997    */
        5        5        /*T*                                                         */
        6        6        /*T***********************************************************/
        7        7        /**/
        8        8        IT_DATA_D: PROC;
        9        9        /**/
PL6.E3A0      #001=IT_DATA_D File=IT_DATA_D.:E05TSI                              TUE 07/29/97 23:11 Page:11
       10       10        %INCLUDE N_FC_C;
       11       47        %INCLUDE NI_DATA_C;
       12      160        %INCLUDE NI$TABLES;
       13      376        %INCLUDE IT_SUBS_C;
       14      643        %INCLUDE IT$CONFIG;
       15      712        %INCLUDE KI$QHDR;
       16      864        %INCLUDE KI_SUBS_C;
       17     1000        /**/
       18     1001        /**/
       19     1002    1   DCL IT_VFC(0:14) BIT(36) CONSTANT SYMDEF ALIGNED INIT ( /* Printer vfc image  */
       20     1003    1              '006063001020'O,'002020003020'O,'004020005020'O,
       21     1004    1              '006020007140'O,'010040011001'O,'013002015003'O,
       22     1005    1              '017004022005'O,'025006030007'O,'033010036011'O,
       23     1006    1              '041012044013'O,'047014052015'O,'054016055060'O,
       24     1007    1              '056024057024'O,'060024061024'O,'062024063024'O);
       25     1008    1   DCL IT_CHAIN500(0:5) CHAR(40) CONSTANT SYMDEF ALIGNED INIT(
              1008            /* Printer chain model 500 */
       26     1009    1              '=5678GHIJKL|0.-*/MNOPQR:&(9),STUVWX}0123',
       27     1010    1              '4YZ$`#+!?5678ABCDEF~0.-*/GHIJKL<>(9),MNO',
       28     1011    1              'PQR{01234STUVWX;''5678YZ$@#%_0.-*/ABCDEF"',
       29     1012    1              '=(9),GHIJKL\01234MNOPQR:&5678STUVWX]0.-*',
       30     1013    1              '/YZ$@#+!?(9),ABCDEF^01234ghijkl<>5678mno',
       31     1014    1              'pqr[0.-*/stuvwx;''(9),yz$@#%_01234abcdef"');
       32     1015    1   DCL IT_CHAIN600(0:5) CHAR(40) CONSTANT SYMDEF ALIGNED INIT(
              1015            /* Printer chain model 600 */
       33     1016    1              'BDFGHJgS0ACEINORLTabcdefKhijklmM0PQUVWXY',
       34     1017    1              'Z:;?!%7xynoprstw0z123456#89.,()@$=&/''\^_',
       35     1018    1              '0"<>[]gS~ACEINOR{Tabcdef0hijklm}|`-*+quv',
       36     1019    1              'BDFGHJ7x0noprstwLz123456K89.,()M0PQUVWXY',
       37     1020    1              'Z:;?!%gSyACEINOR0Tabcdef#hijklm@$=&/''\^_',
       38     1021    1              '0"<>[]7x~noprstw{z123456089.,()}|`-*+quv');
       39     1022        /**/
       40     1023    1   DCL IT_OUTDEV UBIN WORD STATIC SYMDEF INIT(1); /* Me                          */
       41     1024    1   DCL IT_INDEV UBIN WORD STATIC SYMDEF INIT(0); /* Patch                        */
       42     1025    1   DCL IT_ECHODEV UBIN WORD STATIC SYMDEF INIT(2); /* Lp                         */
       43     1026        /**/
       44     1027    1   DCL IT_MINIQ_ME UBIN WORD STATIC SYMDEF INIT(1); /* Me                        */
PL6.E3A0      #001=IT_DATA_D File=IT_DATA_D.:E05TSI                              TUE 07/29/97 23:11 Page:12
       45     1028    1   DCL IT_MINIQ_LP UBIN WORD STATIC SYMDEF INIT(2); /* Lp                        */
       46     1029    1   DCL IT_MINIQ_CR UBIN WORD STATIC SYMDEF INIT(4); /* Cr                        */
       47     1030    1   DCL IT_MINIQ_TA UBIN WORD STATIC SYMDEF INIT(8); /* Ta                        */
       48     1031    1   DCL IT_MINIQ_PA UBIN WORD STATIC SYMDEF INIT(0); /* PATCH STREAM              */
       49     1032        /**/
       50     1033    1   DCL IT_MMDSMAX(0:7) UBIN BYTE STATIC SYMDEF UNAL INIT(0*0); /* SAVE MM_DSMAX  */
       51     1034    1   DCL IT_CP6UP UBIN WORD STATIC SYMDEF INIT(0);   /* System is up flag       */
       52     1035    1   DCL IT_CLOCKOK BIT(1) ALIGNED STATIC SYMDEF INIT('0'B);
       53     1036    1   DCL IT_CLOFF BIT(72) DALIGNED STATIC SYMDEF;
       54     1037    1   DCL B$IMXBUF$ PTR STATIC SYMDEF;
       55     1038    1   DCL IT_DATASIZE UBIN WORD ALIGNED STATIC SYMDEF;
       56     1039    1   DCL IT_SYSDISK UBIN WORD STATIC SYMDEF INIT(0); /* DCTX OF SYSTEM DISK        */
       57     1040    1   DCL IT_SYSDIR$ PTR STATIC SYMDEF;  /* POINTER TO SYSTEM AREA DIRECTORY */
       58     1041    1   DCL IT_DUMPSIZE UBIN WORD STATIC SYMDEF INIT(0); /* SYS DISK GRANULES RESERVED */
       59     1042    1   DCL IT_XDELTA UBIN WORD STATIC SYMDEF INIT(0);
       60     1043    1   DCL IT_BOOTFLAG UBIN WORD STATIC SYMDEF INIT(0);
       61     1044    1   DCL IT_PATCHSP UBIN WORD STATIC SYMDEF INIT(0); /* Minimum patch space        */
       62     1045    1   DCL IT_UFLG UBIN STATIC SYMDEF INIT(0);
       63     1046    1   DCL IT_WSNX UBIN WORD STATIC SYMDEF INIT(0);
       64     1047    1   DCL 1 IT_WSN STATIC SYMDEF,
       65     1048    1         2 NAME(0:3) CHAR(8) UNAL INIT('LOCAL',' '*0);
       66     1049    1   DCL IT_GOTLP BIT(1) STATIC SYMDEF INIT ('0'B);
       67     1050    1   DCL IT_SCPUWSPTD(0:%NUM_CPUS) UBIN WORD STATIC SYMDEF;
              1050            /* Page address of wsptd for slaves */
       68     1051    1   DCL IT_SCPUJIT(0:%NUM_CPUS) UBIN WORD STATIC SYMDEF;
              1051            /* Jit page numbers              */
       69     1052    1   DCL IT_SCPUHJIT(0:%NUM_CPUS) UBIN WORD STATIC SYMDEF;
              1052            /* Hjit page numbers            */
       70     1053    1   DCL IT_AAFAULT BIT(72) DALIGNED STATIC SYMDEF;
              1053            /* Aardvark fault handler entry desc. */
       71     1054    1   DCL IT_MONFAULT BIT(72) DALIGNED STATIC SYMDEF; /* Mon fault handler entry desc. */
       72     1055    1   DCL IT_OLDPORT UBIN WORD STATIC SYMDEF;
       73     1056            /* Old master CPU port number from disk on disk boot */
       74     1057    1   DCL IT_FEI$$ PTR STATIC SYMDEF INIT(ADDR(NIL));
       75     1058    1   DCL FP_OPCI$$ PTR STATIC SYMDEF INIT(ADDR(NIL));
       76     1059    1   DCL FP_MXOPC UBIN STATIC SYMDEF INIT(0);
       77     1060        %NI$PARTITION (NAME=IT_PARTITION,STCLASS="STATIC SYMDEF");
PL6.E3A0      #001=IT_DATA_D File=IT_DATA_D.:E05TSI                              TUE 07/29/97 23:11 Page:13
       78     1068        %IT$CONFIG (NAME=IT_CONFIG,STCLASS="STATIC SYMDEF");
       79     1129        /**/
       80     1130    1   DCL TIGR_BUF CHAR(80) ALIGNED STATIC SYMDEF INIT(' ');
       81     1131    1  DCL TIGRHERE(0:2) BIT(36) ALIGNED STATIC SYMDEF INIT('015012012124'O,'111107122040'O
              1131            ,
       82     1132    1         '150145162145'O); /* CR,LF,LF,'TIGR here' */
       83     1133    1   DCL TIGR_FIRST BIT(1) ALIGNED STATIC SYMDEF INIT('1'B);
       84     1134    1   DCL TIGRPROMPT BIT(36) ALIGNED STATIC SYMDEF INIT('015015012044'O);
              1134            /* CR,CR,LF,'$' */
       85     1135    1   DCL MASTER_GIVEN BIT(1) ALIGNED STATIC SYMDEF INIT('0'B);
       86     1136    1   DCL AARDCONFOUND BIT(1) ALIGNED STATIC SYMDEF INIT('0'B);
       87     1137    1   DCL GORCHBUF CHAR(80) ALIGNED STATIC SYMDEF;
       88     1138    1   DCL IT_CRLF BIT(72) ALIGNED CONSTANT SYMDEF INIT('015015015012'O);
       89     1139    1   DCL 1 FM_SYSDP STATIC SYMDEF,           /* THIS FORM MAKES IT EASY FOR BOOT   */
       90     1140    1         2 PORT UBIN(9) UNAL,
       91     1141    1         2 CHN UBIN(9) UNAL,
       92     1142    1         2 DVN UBIN(9) UNAL,
       93     1143    1         2 * UBIN(9) UNAL;
       94     1144        %KI_CCMD (NAME=IT_INTL66,STCLASS="STATIC SYMDEF",CMD=KIOP_INTL66);
       95     1172    1   DCL IT_DATE CHAR(8) STATIC SYMDEF;
       96     1173    1   DCL IT_TIME CHAR(5) STATIC SYMDEF;
       97     1174    1   DCL IT_UTS UBIN WORD STATIC SYMDEF INIT(0);
       98     1175        /**/
       99     1176    1   DCL 1 FM_POTAPE STATIC SYMDEF,          /* THIS FORM MAKES IT EASY FOR BOOT   */
      100     1177    1         2 PORT UBIN(9) UNAL,
      101     1178    1         2 CHN UBIN(9) UNAL,
      102     1179    1         2 DVN UBIN(9) UNAL,
      103     1180    1         2 * UBIN(9) UNAL;
      104     1181    1   DCL FR_TIFLG SBIN STATIC SYMDEF INIT(3);
      105     1182    1   DCL IT_TIGRCUB BIT(1) ALIGNED STATIC SYMDEF INIT('0'B);
      106     1183
      107     1184                                                /* GLOBAL TIGR CONSTANTS */
      108     1185    1   DCL IT_TXT_0000        CHAR(4) CONSTANT SYMDEF INIT('0000');
      109     1186    1   DCL IT_TXT_LOCAL       CHAR(5) CONSTANT SYMDEF INIT('LOCAL');
      110     1187    1   END;

PL6.E3A0      #001=IT_DATA_D File=IT_DATA_D.:E05TSI                              TUE 07/29/97 23:11 Page:14
--  Include file information  --

   KI_SUBS_C.:E05TOU  is referenced.
   KI$QHDR.:E05TOU  cannot be made into a system file and is referenced.
   IT$CONFIG.:E05TOU  is referenced.
   IT_SUBS_C.:E05TOU  is referenced.
   NI$TABLES.:E05TOU  is referenced.
   NI_DATA_C.:E05TOU  is referenced.
   N_FC_C.:E05TOU  is referenced.
      No diagnostics issued in procedure IT_DATA_D.
PL6.E3A0      #001=IT_DATA_D File=IT_DATA_D.:E05TSI                              TUE 07/29/97 23:11 Page:15

 **** Variables and constants ****


   No code generated for procedure IT_DATA_D .
   Procedure IT_DATA_D requires 4 words of local(AUTO) storage.

    No errors detected in file IT_DATA_D.:E05TSI    .
PL6.E3A0      #001=IT_DATA_D File=IT_DATA_D.:E05TSI                              TUE 07/29/97 23:11 Page:16
          *** CROSS REFERENCE LISTING ***
**     DENOTES     IDENTIFIER DEFINITION
<<                 IDENTIFIER'S VALUE SET
>>                 IDENTIFIER'S VALUE USED
<>                 IDENTIFIER SET AND/OR USED
--                 IDENTIFIER REFERENCED
PL6.E3A0      #001=IT_DATA_D File=IT_DATA_D.:E05TSI                              TUE 07/29/97 23:11 Page:17
          MINI XREF LISTING

IT_INTL66.L66INT
      1161**DCL      1162--REDEF    1166--REDEF
IT_INTL66.L6INT
      1159**DCL      1160--REDEF
