PL6.E3A0      #007=IVO$OPINT File=IVO$OFFLINE.:E05TSI                            TUE 07/29/97 23:16 Page:203
      928        1        /*T***********************************************************/
      929        2        /*T*                                                         */
      930        3        /*T* Copyright (c) Bull HN Information Systems Inc., 1997    */
      931        4        /*T*                                                         */
      932        5        /*T***********************************************************/
      933        6        /**/
      934        7        /* OPERATOR INTERRUPT AND WAIT ROUTINES */
      935        8        /**/
      936        9        IVO$OPINT: PROC (DCTX,STATUS,INFO) ALTRET;
      937       10        /**/
      938       11        /* PARAMETERS */
      939       12        /**/
      940       13    1   DCL DCTX UBIN(15);
      941       14    1   DCL OPINT REDEF DCTX BIT(1) ALIGNED;
      942       15    1   DCL STATUS SBIN;
      943       16    1   DCL INFO SBIN;
      944       17        /**/
      945       18        /* EXTERNAL REFERENCES */
      946       19        /**/
      947       20    1   DCL NII$LIP ENTRY (1);
      948       21    1   DCL IVZ$IDLE ENTRY;
      949       22        /**/
      950       23        /* STATIC DATA */
      951       24        /**/
      952       25    1   DCL IVO_OPINT BIT(1) SYMREF;
      953       26    1   DCL CTR SBIN SYMREF;
      954       27        /**/
      955       28        /* OPERATOR INTERRUPT */
      956       29        /**/
      957       30    1           IVO_OPINT='1'B;
      958       31    1           RETURN;
      959       32        /**/
      960       33        /* WAIT FOR OPERATOR INTERRUPT */
      961       34        /**/
      962       35    1   IVO$WAIT: ENTRY (DCTX) ALTRET;
      963       36    1           CALL IVZ$IDLE;
      964       37    2           DO INHIBIT;
PL6.E3A0      #007=IVO$OPINT File=IVO$OFFLINE.:E05TSI                            TUE 07/29/97 23:16 Page:204
      965       38    2              CTR=CTR+1;
      966       39    3              IF CTR>=300 THEN DO;
      967       40    3                 CTR=0;
      968       41    3                 CALL NII$LIP(1);
      969       42    3                 END;
      970       43    3              IF IVO_OPINT THEN DO;
      971       44    4                 IF OPINT THEN DO;
      972       45    4                    IVO_OPINT='0'B;
      973       46    4                    ALTRETURN;
      974       47    4                    END;
      975       48    3                 END/* IF IVO_OPINT */;
      976       49    2              RETURN;
      977       50    2              END/* INHIBIT */;
      978       51    1   END IVO$OPINT;

PL6.E3A0      #007=IVO$OPINT File=IVO$OFFLINE.:E05TSI                            TUE 07/29/97 23:16 Page:205
      No diagnostics issued in procedure IVO$OPINT.

   Procedure IVO$OPINT requires 28 words for executable code.
   Procedure IVO$OPINT requires 6 words of local(AUTO) storage.

    No errors detected in file IVO$OFFLINE.:E05TSI    .

PL6.E3A0      #007=IVO$OPINT File=IVO$OFFLINE.:E05TSI                            TUE 07/29/97 23:16 Page:206

 Object Unit name= IVO$OPINT                                  File name= IVO$OFFLINE.:E05TOU
 UTS= JUL 29 '97 23:16:23.56 TUE                              Compiler= PL-6/E31         Sev=      00
 SharedLib= :SHARED_SYSTEM                                    Alt SharedLib=


    ****  Control sections  ****

 Sect   Type Bound  Init  Size OctSiz  Section name(segment info)
    0   Proc  even  none    28     34  IVO$OPINT
    1  RoData even  none     1      1  IVO$OPINT

    ****  Entry defs  ****

                              Check   Calling
                             calling  sequence
  Sect OctLoc Primary Altret sequence   type   Parms  Name
     0      0   yes    yes     yes      Std        3  IVO$OPINT
     0      5          yes     yes      Std        1  IVO$WAIT

  ****  Entry refs  ****

         Check        Calling
        calling       sequence
Altret sequence SRef   type   Args  Name
         yes           Std       0 IVZ$IDLE
         yes           Std       1 NII$LIP
                       nStd      0 X66_AUTO_3
                       nStd      0 X66_ARET
                       Std       0 B_CONSPOOL_D
                       nStd      0 X66_AALT

  ****  Data refs  ****

  Flags:  r = read only, s = secondary
Flgs Name                             Flgs Name                             Flgs Name
     IVO_OPINT                             CTR                                   B_VECTNIL
PL6.E3A0      #007=IVO$OPINT File=IVO$OFFLINE.:E05TSI                            TUE 07/29/97 23:16 Page:207

  ****  Segment refs  ****

  Flags:  r = read only, s = secondary
Flgs Name                             Flgs Name                             Flgs Name
     ISSID
PL6.E3A0      #007=IVO$OPINT File=IVO$OFFLINE.:E05TSI                            TUE 07/29/97 23:16 Page:208


      928        1        /*T***********************************************************/
      929        2        /*T*                                                         */
      930        3        /*T* Copyright (c) Bull HN Information Systems Inc., 1997    */
      931        4        /*T*                                                         */
      932        5        /*T***********************************************************/
      933        6        /**/
      934        7        /* OPERATOR INTERRUPT AND WAIT ROUTINES */
      935        8        /**/
      936        9        IVO$OPINT: PROC (DCTX,STATUS,INFO) ALTRET;

      9  0 000000   000000 700200 xent  IVO$OPINT    TSX0  ! X66_AUTO_3
         0 000001   000006 000003                    ZERO    6,3

      937       10        /**/
      938       11        /* PARAMETERS */
      939       12        /**/
      940       13    1   DCL DCTX UBIN(15);
      941       14    1   DCL OPINT REDEF DCTX BIT(1) ALIGNED;
      942       15    1   DCL STATUS SBIN;
      943       16    1   DCL INFO SBIN;
      944       17        /**/
      945       18        /* EXTERNAL REFERENCES */
      946       19        /**/
      947       20    1   DCL NII$LIP ENTRY (1);
      948       21    1   DCL IVZ$IDLE ENTRY;
      949       22        /**/
      950       23        /* STATIC DATA */
      951       24        /**/
      952       25    1   DCL IVO_OPINT BIT(1) SYMREF;
      953       26    1   DCL CTR SBIN SYMREF;
      954       27        /**/
      955       28        /* OPERATOR INTERRUPT */
      956       29        /**/
      957       30    1           IVO_OPINT='1'B;

     30  0 000002   400000 236003                    LDQ     -131072,DU
PL6.E3A0      #007=IVO$OPINT File=IVO$OFFLINE.:E05TSI                            TUE 07/29/97 23:16 Page:209
         0 000003   000000 756000 xsym               STQ     IVO_OPINT

      958       31    1           RETURN;

     31  0 000004   000000 702200 xent               TSX2  ! X66_ARET

      959       32        /**/
      960       33        /* WAIT FOR OPERATOR INTERRUPT */
      961       34        /**/
      962       35    1   IVO$WAIT: ENTRY (DCTX) ALTRET;

     35  0 000005   000000 700200 xent  IVO$WAIT     TSX0  ! X66_AUTO_3
         0 000006   000006 000003                    ZERO    6,3

      963       36    1           CALL IVZ$IDLE;

     36  0 000007   000002 631400 xsym               EPPR1   B_VECTNIL+2
         0 000010   000000 701000 xent               TSX1    IVZ$IDLE
         0 000011   000000 011000                    NOP     0

      964       37    2           DO INHIBIT;

      965       38    2              CTR=CTR+1;

     38  0 000012   000000 054200 xsym               AOS   ! CTR

      966       39    3              IF CTR>=300 THEN DO;

     39  0 000013   000000 235200 xsym               LDA   ! CTR
         0 000014   000454 115207                    CMPA  ! 300,DL
         0 000015   000023 604200 0                  TMI   ! s:43

      967       40    3                 CTR=0;

     40  0 000016   000000 450200 xsym               STZ   ! CTR

      968       41    3                 CALL NII$LIP(1);
PL6.E3A0      #007=IVO$OPINT File=IVO$OFFLINE.:E05TSI                            TUE 07/29/97 23:16 Page:210

     41  0 000017   000000 630600 1                  EPPR0 ! 0
         0 000020   000017 631600 xsym               EPPR1 ! B_VECTNIL+15
         0 000021   000000 701200 xent               TSX1  ! NII$LIP
         0 000022   000000 011200                    NOP   ! 0

      969       42    3                 END;

      970       43    3              IF IVO_OPINT THEN DO;

     43  0 000023   000000 234200 xsym               SZN   ! IVO_OPINT
         0 000024   000032 605200 0                  TPL   ! s:49

      971       44    4                 IF OPINT THEN DO;

     44  0 000025   200003 470700                    LDP0  ! @DCTX,,AUTO
         0 000026   000000 234300                    SZN   ! 0,,PR0
         0 000027   000032 605200 0                  TPL   ! s:49

      972       45    4                    IVO_OPINT='0'B;

     45  0 000030   000000 450200 xsym               STZ   ! IVO_OPINT

      973       46    4                    ALTRETURN;

     46  0 000031   000000 702200 xent               TSX2  ! X66_AALT

      974       47    4                    END;
      975       48    3                 END/* IF IVO_OPINT */;
      976       49    2              RETURN;

     49  0 000032   000000 702200 xent               TSX2  ! X66_ARET

      977       50    2              END/* INHIBIT */;

      978       51    1   END IVO$OPINT;

PL6.E3A0      #007=IVO$OPINT File=IVO$OFFLINE.:E05TSI                            TUE 07/29/97 23:16 Page:211
     51  0 000033   000000 702200 xent               TSX2  ! X66_ARET

(unnamed)
 Sect OctLoc
   1     000   000003 006000                                                    ....

PL6.E3A0      #007=IVO$OPINT File=IVO$OFFLINE.:E05TSI                            TUE 07/29/97 23:16 Page:212
      No diagnostics issued in procedure IVO$OPINT.
PL6.E3A0      #007=IVO$OPINT File=IVO$OFFLINE.:E05TSI                            TUE 07/29/97 23:16 Page:213

 **** Variables and constants ****

  ****  Auto variables  ****

  ****  Scalars and arrays  ****
OctLoc.c.b A Datatyp(siz) R M Lvl/name                 OctLoc.c.b A Datatyp(siz) R M Lvl/name

     3-0-0/w PTR         r     1 @DCTX                      5-0-0/w PTR         r     1 @INFO
     4-0-0/w PTR         r     1 @STATUS                   *0-0-0/w UBIN(15)    r     1 DCTX
    *0-0-0/w SBIN        r     1 INFO                      *0-0-0/w BIT         r     1 OPINT
    *0-0-0/w SBIN        r     1 STATUS

  ****  SYMREF variables  ****

  ****  Scalars and arrays  ****
OctLoc.c.b A Datatyp(siz) R M Lvl/name                 OctLoc.c.b A Datatyp(siz) R M Lvl/name

     0-0-0/w SBIN        r     1 CTR                        0-0-0/b BIT         r     1 IVO_OPINT


   Procedure IVO$OPINT requires 28 words for executable code.
   Procedure IVO$OPINT requires 6 words of local(AUTO) storage.

    No errors detected in file IVO$OFFLINE.:E05TSI    .
PL6.E3A0      #007=IVO$OPINT File=IVO$OFFLINE.:E05TSI                            TUE 07/29/97 23:16 Page:214
          *** CROSS REFERENCE LISTING ***
**     DENOTES     IDENTIFIER DEFINITION
<<                 IDENTIFIER'S VALUE SET
>>                 IDENTIFIER'S VALUE USED
<>                 IDENTIFIER SET AND/OR USED
--                 IDENTIFIER REFERENCED
PL6.E3A0      #007=IVO$OPINT File=IVO$OFFLINE.:E05TSI                            TUE 07/29/97 23:16 Page:215
          MINI XREF LISTING

CTR
        26**DCL        38<<ASSIGN     38>>ASSIGN     39>>IF         40<<ASSIGN
DCTX
        13**DCL         9--PROC       14--REDEF      35--ENTRY
INFO
        16**DCL         9--PROC
IVO_OPINT
        25**DCL        30<<ASSIGN     43>>IF         45<<ASSIGN
IVZ$IDLE
        21**DCL-ENT    36--CALL
NII$LIP
        20**DCL-ENT    41--CALL
OPINT
        14**DCL        44>>IF
STATUS
        15**DCL         9--PROC
