PL6.E3A0      #009=IVO$OPINT File=IVO$ONLINE.:E05TSI                             TUE 07/29/97 23:17 Page:216
      979        1        /*T***********************************************************/
      980        2        /*T*                                                         */
      981        3        /*T* Copyright (c) Bull HN Information Systems Inc., 1997    */
      982        4        /*T*                                                         */
      983        5        /*T***********************************************************/
      984        6        /**/
      985        7        /* OPERATOR INTERRUPT */
      986        8        /**/
      987        9        IVO$OPINT: PROC ASYNC ALTRET;
      988       10        /**/
      989       11        /* INCLUDE FILES */
      990       12        /**/
      991       13        %INCLUDE B_SEGIDS_C;
      992      552 S      %INCLUDE CP_6_C;
      993      553        /**/
      994      554        /* DATA STRUCTURES */
      995      555        /**/
      996      556        %B$EXCFR;
      997      574        %B$TCB(STCLASS="BASED(B$TCB$)");
      998      577        %SUB_EXC;
      999      624        /**/
     1000      625        /* CONSTANT DATA */
     1001      626        /**/
     1002      627    1   DCL B$TCB$ PTR SYMREF;
     1003      628        /**/
     1004      629        /* STATIC DATA */
     1005      630        /**/
     1006      631    1   DCL IVO_OPINT BIT(1) STATIC SYMDEF INIT('0'B);
     1007      632        /**/
     1008      633        /* OPERATOR INTERRUPT */
     1009      634        /**/
     1010      635    1           IF B$TCB.STK$->B$EXCFR.ECC~=%ECC_INT# THEN ALTRETURN;
     1011      636    1           IVO_OPINT='1'B;
     1012      637    1           RETURN;
     1013      638    1   END IVO$OPINT;
     1014      639        %EOD;

PL6.E3A0      #009=IVO$OPINT File=IVO$ONLINE.:E05TSI                             TUE 07/29/97 23:17 Page:217
--  Include file information  --

   B_SEGIDS_C.:E05TOU  is referenced.
   B$JIT_C.:E05TOU  was found in the system file and is never referenced.
   CP_6_C.:E05TOU  was found in the system file and is referenced.
      No diagnostics issued in procedure IVO$OPINT.

   Procedure IVO$OPINT requires 11 words for executable code.
   Procedure IVO$OPINT requires 4 words of local(AUTO) storage.

PL6.E3A0      #009=IVO$OPINT File=IVO$ONLINE.:E05TSI                             TUE 07/29/97 23:17 Page:218

 Object Unit name= IVO$OPINT                                  File name= IVO$ONLINE.:E05TOU
 UTS= JUL 29 '97 23:17:13.92 TUE                              Compiler= PL-6/E31         Sev=      00
 SharedLib= :SHARED_SYSTEM                                    Alt SharedLib=


    ****  Control sections  ****

 Sect   Type Bound  Init  Size OctSiz  Section name(segment info)
    0   Data  even  none     1      1  IVO$OPINT
    1   Proc  even  none    11     13  IVO$OPINT

    ****  Entry defs  ****

                              Check   Calling
                             calling  sequence
  Sect OctLoc Primary Altret sequence   type   Parms  Name
     1      0   yes    yes     yes     Async       0  IVO$OPINT

  ****  Data defs  ****

 Sect OctLoc  Name                           Sect OctLoc  Name
    0      0  IVO_OPINT

  ****  Entry refs  ****

         Check        Calling
        calling       sequence
Altret sequence SRef   type   Args  Name
                       nStd      0 X66_AAUTO
                       nStd      0 X66_AAALT
                       nStd      0 X66_AARET
PL6.E3A0      #009=IVO$OPINT File=IVO$ONLINE.:E05TSI                             TUE 07/29/97 23:17 Page:219

  ****  Data refs  ****

  Flags:  r = read only, s = secondary
Flgs Name                             Flgs Name                             Flgs Name
     B$TCB$
PL6.E3A0      #009=IVO$OPINT File=IVO$ONLINE.:E05TSI                             TUE 07/29/97 23:17 Page:220


      979        1        /*T***********************************************************/
      980        2        /*T*                                                         */
      981        3        /*T* Copyright (c) Bull HN Information Systems Inc., 1997    */
      982        4        /*T*                                                         */
      983        5        /*T***********************************************************/
      984        6        /**/
      985        7        /* OPERATOR INTERRUPT */
      986        8        /**/
      987        9        IVO$OPINT: PROC ASYNC ALTRET;

      9  1 000000   000000 700200 xent  IVO$OPINT    TSX0  ! X66_AAUTO
         1 000001   000004 000000                    ZERO    4,0

      988       10        /**/
      989       11        /* INCLUDE FILES */
      990       12        /**/
      991       13        %INCLUDE B_SEGIDS_C;
      992      552 S      %INCLUDE CP_6_C;
      993      553        /**/
      994      554        /* DATA STRUCTURES */
      995      555        /**/
      996      556        %B$EXCFR;
      997      574        %B$TCB(STCLASS="BASED(B$TCB$)");
      998      577        %SUB_EXC;
      999      624        /**/
     1000      625        /* CONSTANT DATA */
     1001      626        /**/
     1002      627    1   DCL B$TCB$ PTR SYMREF;
     1003      628        /**/
     1004      629        /* STATIC DATA */
     1005      630        /**/
     1006      631    1   DCL IVO_OPINT BIT(1) STATIC SYMDEF INIT('0'B);
     1007      632        /**/
     1008      633        /* OPERATOR INTERRUPT */
     1009      634        /**/
     1010      635    1           IF B$TCB.STK$->B$EXCFR.ECC~=%ECC_INT# THEN ALTRETURN;
PL6.E3A0      #009=IVO$OPINT File=IVO$ONLINE.:E05TSI                             TUE 07/29/97 23:17 Page:221

    635  1 000002   000000 470400 xsym               LDP0    B$TCB$
         1 000003   000001 471500                    LDP1    1,,PR0
         1 000004   100000 720100                    LXL0    0,,PR1
         1 000005   000002 100003                    CMPX0   2,DU
         1 000006   000010 600000 1                  TZE     s:636

    635  1 000007   000000 702200 xent               TSX2  ! X66_AAALT

     1011      636    1           IVO_OPINT='1'B;

    636  1 000010   400000 236003                    LDQ     -131072,DU
         1 000011   000000 756000 0                  STQ     IVO_OPINT

     1012      637    1           RETURN;

    637  1 000012   000000 702200 xent               TSX2  ! X66_AARET
     1013      638    1   END IVO$OPINT;
     1014      639        %EOD;

PL6.E3A0      #009=IVO$OPINT File=IVO$ONLINE.:E05TSI                             TUE 07/29/97 23:17 Page:222
--  Include file information  --

   B_SEGIDS_C.:E05TOU  is referenced.
   B$JIT_C.:E05TOU  was found in the system file and is never referenced.
   CP_6_C.:E05TOU  was found in the system file and is referenced.
      No diagnostics issued in procedure IVO$OPINT.
PL6.E3A0      #009=IVO$OPINT File=IVO$ONLINE.:E05TSI                             TUE 07/29/97 23:17 Page:223

 **** Variables and constants ****

  ****  Section 000  Data  IVO$OPINT

  ****  Scalars and arrays  ****
OctLoc.c.b A Datatyp(siz) R M Lvl/name                 OctLoc.c.b A Datatyp(siz) R M Lvl/name

     0-0-0/b BIT         r     1 IVO_OPINT

  ****  SYMREF variables  ****

  ****  Scalars and arrays  ****
OctLoc.c.b A Datatyp(siz) R M Lvl/name                 OctLoc.c.b A Datatyp(siz) R M Lvl/name

     0-0-0/w PTR         r     1 B$TCB$

  ****  BASED and DCB variables  ****

  ****  Scalars and arrays  ****
OctLoc.c.b A Datatyp(siz) R M Lvl/name                 OctLoc.c.b A Datatyp(siz) R M Lvl/name

     0-0-0/w STRC(2448)  r     1 B$EXCFR                    0-0-0/w STRC(144)   r     1 B$TCB


   Procedure IVO$OPINT requires 11 words for executable code.
   Procedure IVO$OPINT requires 4 words of local(AUTO) storage.
PL6.E3A0      #009=IVO$OPINT File=IVO$ONLINE.:E05TSI                             TUE 07/29/97 23:17 Page:224
          *** CROSS REFERENCE LISTING ***
**     DENOTES     IDENTIFIER DEFINITION
<<                 IDENTIFIER'S VALUE SET
>>                 IDENTIFIER'S VALUE USED
<>                 IDENTIFIER SET AND/OR USED
--                 IDENTIFIER REFERENCED
PL6.E3A0      #009=IVO$OPINT File=IVO$ONLINE.:E05TSI                             TUE 07/29/97 23:17 Page:225
          MINI XREF LISTING

B$EXCFR.ASL
       557**DCL       557--REDEF
B$EXCFR.ECC
       557**DCL       635>>IF
B$EXCFR.ERR.ERR#
       571**DCL       571--REDEF
B$EXCFR.EVID
       570**DCL       570--REDEF     571--REDEF
B$EXCFR.IR
       558**DCL       558--REDEF
B$EXCFR.PREVSZ
       557**DCL       557--REDEF
B$EXCFR.SUBC
       569**DCL       569--REDEF     570--REDEF     570--REDEF
B$TCB.STK$
       575**DCL       635>>IF
B$TCB$
       627**DCL       575--IMP-PTR   635>>IF
IVO_OPINT
       631**DCL       636<<ASSIGN

PL6.E3A0      #010=IVO$WAIT File=IVO$ONLINE.:E05TSI                              TUE 07/29/97 23:17 Page:226
     1015        1        /*T***********************************************************/
     1016        2        /*T*                                                         */
     1017        3        /*T* Copyright (c) Bull HN Information Systems Inc., 1997    */
     1018        4        /*T*                                                         */
     1019        5        /*T***********************************************************/
     1020        6        /**/
     1021        7        /* WAIT FOR OPERATOR INTERRUPT */
     1022        8        /**/
     1023        9        IVO$WAIT: PROC (DUMMY) ALTRET;
     1024       10    1   DCL DUMMY BIT(1) UNAL;
     1025       11        /**/
     1026       12        /* INCLUDE FILES */
     1027       13        /**/
     1028       14        %INCLUDE CP_6;
     1029       95        /**/
     1030       96        /* EXTERNAL REFERENCE */
     1031       97        /**/
     1032       98    1   DCL IVO_OPINT BIT(1) SYMREF;
     1033       99        /**/
     1034      100        /* STATIC DATA */
     1035      101        /**/
     1036      102        %FPT_WAIT(UNITS=10);
     1037      116        /**/
     1038      117        /* PROCEDURE */
     1039      118        /**/
     1040      119    1           CALL M$WAIT(FPT_WAIT);
     1041      120    2           IF IVO_OPINT THEN DO;
     1042      121    2              IVO_OPINT='0'B;
     1043      122    2              ALTRETURN;
     1044      123    2              END;
     1045      124    1           RETURN;
     1046      125    1   END IVO$WAIT;

PL6.E3A0      #010=IVO$WAIT File=IVO$ONLINE.:E05TSI                              TUE 07/29/97 23:17 Page:227
--  Include file information  --

   CP_6.:E05TOU  cannot be made into a system file and is referenced.
   B$JIT_C.:E05TOU  was found in the system file and is never referenced.
   CP_6_C.:E05TOU  was found in the system file and is referenced.
      No diagnostics issued in procedure IVO$WAIT.

   Procedure IVO$WAIT requires 10 words for executable code.
   Procedure IVO$WAIT requires 4 words of local(AUTO) storage.

    No errors detected in file IVO$ONLINE.:E05TSI    .

PL6.E3A0      #010=IVO$WAIT File=IVO$ONLINE.:E05TSI                              TUE 07/29/97 23:17 Page:228

 Object Unit name= IVO$WAIT                                   File name= IVO$ONLINE.:E05TOU
 UTS= JUL 29 '97 23:17:24.24 TUE                              Compiler= PL-6/E31         Sev=      00
 SharedLib= :SHARED_SYSTEM                                    Alt SharedLib=


    ****  Control sections  ****

 Sect   Type Bound  Init  Size OctSiz  Section name(segment info)
    0   DCB   even  none     0      0  M$UC
    1   Data  even  none     6      6  IVO$WAIT
    2   Proc  even  none    10     12  IVO$WAIT

    ****  Entry defs  ****

                              Check   Calling
                             calling  sequence
  Sect OctLoc Primary Altret sequence   type   Parms  Name
     2      0   yes    yes     yes      Std        1  IVO$WAIT

  ****  Entry refs  ****

         Check        Calling
        calling       sequence
Altret sequence SRef   type   Args  Name
                       nStd      0 X66_AUTO_1
                       nStd      0 X66_AALT
                       nStd      0 X66_ARET

  ****  Data refs  ****

  Flags:  r = read only, s = secondary
Flgs Name                             Flgs Name                             Flgs Name
     M$UC                                  IVO_OPINT
PL6.E3A0      #010=IVO$WAIT File=IVO$ONLINE.:E05TSI                              TUE 07/29/97 23:17 Page:229

  ****  Segment refs  ****

  Flags:  r = read only, s = secondary
Flgs Name                             Flgs Name                             Flgs Name
     ISSID                                 NULLSID
PL6.E3A0      #010=IVO$WAIT File=IVO$ONLINE.:E05TSI                              TUE 07/29/97 23:17 Page:230


     1015        1        /*T***********************************************************/
     1016        2        /*T*                                                         */
     1017        3        /*T* Copyright (c) Bull HN Information Systems Inc., 1997    */
     1018        4        /*T*                                                         */
     1019        5        /*T***********************************************************/
     1020        6        /**/
     1021        7        /* WAIT FOR OPERATOR INTERRUPT */
     1022        8        /**/
     1023        9        IVO$WAIT: PROC (DUMMY) ALTRET;

      9  2 000000   000000 700200 xent  IVO$WAIT     TSX0  ! X66_AUTO_1
         2 000001   000004 000001                    ZERO    4,1

     1024       10    1   DCL DUMMY BIT(1) UNAL;
     1025       11        /**/
     1026       12        /* INCLUDE FILES */
     1027       13        /**/
     1028       14        %INCLUDE CP_6;
     1029       95        /**/
     1030       96        /* EXTERNAL REFERENCE */
     1031       97        /**/
     1032       98    1   DCL IVO_OPINT BIT(1) SYMREF;
     1033       99        /**/
     1034      100        /* STATIC DATA */
     1035      101        /**/
     1036      102        %FPT_WAIT(UNITS=10);
     1037      116        /**/
     1038      117        /* PROCEDURE */
     1039      118        /**/
     1040      119    1           CALL M$WAIT(FPT_WAIT);

    119  2 000002   000000 630400 1                  EPPR0   FPT_WAIT
         2 000003   020006 713400                    CLIMB   8198
         2 000004   400400 401760                    pmme    nvectors=2

     1041      120    2           IF IVO_OPINT THEN DO;
PL6.E3A0      #010=IVO$WAIT File=IVO$ONLINE.:E05TSI                              TUE 07/29/97 23:17 Page:231

    120  2 000005   000000 234000 xsym               SZN     IVO_OPINT
         2 000006   000011 605000 2                  TPL     s:124

     1042      121    2              IVO_OPINT='0'B;

    121  2 000007   000000 450000 xsym               STZ     IVO_OPINT

     1043      122    2              ALTRETURN;

    122  2 000010   000000 702200 xent               TSX2  ! X66_AALT

     1044      123    2              END;
     1045      124    1           RETURN;

    124  2 000011   000000 702200 xent               TSX2  ! X66_ARET
     1046      125    1   END IVO$WAIT;

PL6.E3A0      #010=IVO$WAIT File=IVO$ONLINE.:E05TSI                              TUE 07/29/97 23:17 Page:232
--  Include file information  --

   CP_6.:E05TOU  cannot be made into a system file and is referenced.
   B$JIT_C.:E05TOU  was found in the system file and is never referenced.
   CP_6_C.:E05TOU  was found in the system file and is referenced.
      No diagnostics issued in procedure IVO$WAIT.
PL6.E3A0      #010=IVO$WAIT File=IVO$ONLINE.:E05TSI                              TUE 07/29/97 23:17 Page:233

 **** Variables and constants ****

  ****  Section 001  Data  IVO$WAIT

  ****  Scalars and arrays  ****
OctLoc.c.b A Datatyp(siz) R M Lvl/name                 OctLoc.c.b A Datatyp(siz) R M Lvl/name

     0-0-0/d STRC(216)   r     1 FPT_WAIT

  ****  Auto variables  ****

  ****  Scalars and arrays  ****
OctLoc.c.b A Datatyp(siz) R M Lvl/name                 OctLoc.c.b A Datatyp(siz) R M Lvl/name

     3-0-0/w PTR         r     1 @DUMMY                    *0-0-0/b BIT         r     1 DUMMY

  ****  SYMREF variables  ****

  ****  Scalars and arrays  ****
OctLoc.c.b A Datatyp(siz) R M Lvl/name                 OctLoc.c.b A Datatyp(siz) R M Lvl/name

     0-0-0/b BIT         r     1 IVO_OPINT


   Procedure IVO$WAIT requires 10 words for executable code.
   Procedure IVO$WAIT requires 4 words of local(AUTO) storage.

    No errors detected in file IVO$ONLINE.:E05TSI    .
PL6.E3A0      #010=IVO$WAIT File=IVO$ONLINE.:E05TSI                              TUE 07/29/97 23:17 Page:234
          *** CROSS REFERENCE LISTING ***
**     DENOTES     IDENTIFIER DEFINITION
<<                 IDENTIFIER'S VALUE SET
>>                 IDENTIFIER'S VALUE USED
<>                 IDENTIFIER SET AND/OR USED
--                 IDENTIFIER REFERENCED
PL6.E3A0      #010=IVO$WAIT File=IVO$ONLINE.:E05TSI                              TUE 07/29/97 23:17 Page:235
          MINI XREF LISTING

DUMMY
        10**DCL         9--PROC
FPT_WAIT
       113**DCL       119<>CALL
FPT_WAIT.V
       114**DCL       113--DCLINIT
IVO_OPINT
        98**DCL       120>>IF        121<<ASSIGN
M$WAIT
        81**DCL-ENT   119--CALL
