PL6.E3A0      #002=DCWBUILD File=IVV$VOLINIT.:E05TSI                             TUE 07/29/97 23:18 Page:224
     1097        1        /*T***********************************************************/
     1098        2        /*T*                                                         */
     1099        3        /*T* Copyright (c) Bull HN Information Systems Inc., 1997    */
     1100        4        /*T*                                                         */
     1101        5        /*T***********************************************************/
     1102        6        %EJECT;
PL6.E3A0      #002=DCWBUILD File=IVV$VOLINIT.:E05TSI                             TUE 07/29/97 23:18 Page:225
     1103        7        DCWBUILD: PROC (DCW,FWA,TALLY);
     1104        8    1   DCL 1 DCW(0:0) ALIGNED,
     1105        9    1         2 FWA UBIN(18) UNAL,
     1106       10    1         2 * BIT(6) UNAL,
     1107       11    1         2 TALLY UBIN(12) UNAL;
     1108       12    1   DCL FWA SBIN;
     1109       13    1   DCL TALLY SBIN;
     1110       14    1   DCL I SBIN;
     1111       15        /**/
     1112       16    1           I=0;
     1113       17    2           DO WHILE(TALLY-I>4096);
     1114       18    2              DCW(I/4096)='000000010000'O;
     1115       19    2              DCW.FWA(I/4096)=FWA+I;
     1116       20    2              I=I+4096;
     1117       21    2              END;
     1118       22    1           DCW(I/4096)='0'B;
     1119       23    1           DCW.FWA(I/4096)=FWA+I;
     1120       24    1           DCW.TALLY(I/4096)=TALLY;
     1121       25    1           RETURN;
     1122       26    1   END DCWBUILD;
     1123       27        %EOD;

PL6.E3A0      #002=DCWBUILD File=IVV$VOLINIT.:E05TSI                             TUE 07/29/97 23:18 Page:226
      No diagnostics issued in procedure DCWBUILD.

   Procedure DCWBUILD requires 48 words for executable code.
   Procedure DCWBUILD requires 10 words of local(AUTO) storage.

PL6.E3A0      #002=DCWBUILD File=IVV$VOLINIT.:E05TSI                             TUE 07/29/97 23:18 Page:227

 Object Unit name= DCWBUILD                                   File name= IVV$VOLINIT.:E05TOU
 UTS= JUL 29 '97 23:18:51.84 TUE                              Compiler= PL-6/E31         Sev=      00
 SharedLib= :SHARED_SYSTEM                                    Alt SharedLib=


    ****  Control sections  ****

 Sect   Type Bound  Init  Size OctSiz  Section name(segment info)
    0  RoData even  UTS      1      1  DCWBUILD
    1   Proc  even  none    48     60  DCWBUILD

    ****  Entry defs  ****

                              Check   Calling
                             calling  sequence
  Sect OctLoc Primary Altret sequence   type   Parms  Name
     1      0   yes            yes      Std        3  DCWBUILD

  ****  Entry refs  ****

         Check        Calling
        calling       sequence
Altret sequence SRef   type   Args  Name
                       nStd      0 X66_AUTO_3
                       nStd      0 X66_ARET
PL6.E3A0      #002=DCWBUILD File=IVV$VOLINIT.:E05TSI                             TUE 07/29/97 23:18 Page:228


     1097        1        /*T***********************************************************/
     1098        2        /*T*                                                         */
     1099        3        /*T* Copyright (c) Bull HN Information Systems Inc., 1997    */
     1100        4        /*T*                                                         */
     1101        5        /*T***********************************************************/
     1102        6        %EJECT;
PL6.E3A0      #002=DCWBUILD File=IVV$VOLINIT.:E05TSI                             TUE 07/29/97 23:18 Page:229
     1103        7        DCWBUILD: PROC (DCW,FWA,TALLY);

      7  1 000000   000000 700200 xent  DCWBUILD     TSX0  ! X66_AUTO_3
         1 000001   000012 000003                    ZERO    10,3

     1104        8    1   DCL 1 DCW(0:0) ALIGNED,
     1105        9    1         2 FWA UBIN(18) UNAL,
     1106       10    1         2 * BIT(6) UNAL,
     1107       11    1         2 TALLY UBIN(12) UNAL;
     1108       12    1   DCL FWA SBIN;
     1109       13    1   DCL TALLY SBIN;
     1110       14    1   DCL I SBIN;
     1111       15        /**/
     1112       16    1           I=0;

     16  1 000002   200006 450100                    STZ     I,,AUTO

     1113       17    2           DO WHILE(TALLY-I>4096);

     17  1 000003   000026 710000 1                  TRA     s:21

     1114       18    2              DCW(I/4096)='000000010000'O;

     18  1 000004   200006 236100                    LDQ     I,,AUTO
         1 000005   010000 506007                    DIV     4096,DL
         1 000006   200010 756100                    STQ     I+2,,AUTO
         1 000007   000000 236000 0                  LDQ     0
         1 000010   200003 470500                    LDP0    @DCW,,AUTO
         1 000011   200010 720100                    LXL0    I+2,,AUTO
         1 000012   000000 756110                    STQ     0,X0,PR0

     1115       19    2              DCW.FWA(I/4096)=FWA+I;

     19  1 000013   200006 236100                    LDQ     I,,AUTO
         1 000014   010000 506007                    DIV     4096,DL
         1 000015   200004 471500                    LDP1    @FWA,,AUTO
         1 000016   200010 756100                    STQ     I+2,,AUTO
PL6.E3A0      #002=DCWBUILD File=IVV$VOLINIT.:E05TSI                             TUE 07/29/97 23:18 Page:230
         1 000017   100000 236100                    LDQ     0,,PR1
         1 000020   200006 036100                    ADLQ    I,,AUTO
         1 000021   000000 620006                    EAX0    0,QL
         1 000022   200010 721100                    LXL1    I+2,,AUTO
         1 000023   000000 740111                    STX0    0,X1,PR0

     1116       20    2              I=I+4096;

     20  1 000024   010000 236007                    LDQ     4096,DL
         1 000025   200006 056100                    ASQ     I,,AUTO

     1117       21    2              END;

     21  1 000026   200005 470500                    LDP0    @TALLY,,AUTO
         1 000027   000000 236100                    LDQ     0,,PR0
         1 000030   200006 136100                    SBLQ    I,,AUTO
         1 000031   010000 116007                    CMPQ    4096,DL
         1 000032   000004 605400 1                  TPNZ    s:18

     1118       22    1           DCW(I/4096)='0'B;

     22  1 000033   200006 236100                    LDQ     I,,AUTO
         1 000034   010000 506007                    DIV     4096,DL
         1 000035   200003 471500                    LDP1    @DCW,,AUTO
         1 000036   100000 450106                    STZ     0,QL,PR1

     1119       23    1           DCW.FWA(I/4096)=FWA+I;

     23  1 000037   200006 236100                    LDQ     I,,AUTO
         1 000040   010000 506007                    DIV     4096,DL
         1 000041   200004 473500                    LDP3    @FWA,,AUTO
         1 000042   200010 756100                    STQ     I+2,,AUTO
         1 000043   300000 236100                    LDQ     0,,PR3
         1 000044   200006 036100                    ADLQ    I,,AUTO
         1 000045   000000 620006                    EAX0    0,QL
         1 000046   200010 721100                    LXL1    I+2,,AUTO
         1 000047   100000 740111                    STX0    0,X1,PR1
PL6.E3A0      #002=DCWBUILD File=IVV$VOLINIT.:E05TSI                             TUE 07/29/97 23:18 Page:231

     1120       24    1           DCW.TALLY(I/4096)=TALLY;

     24  1 000050   200006 236100                    LDQ     I,,AUTO
         1 000051   010000 506007                    DIV     4096,DL
         1 000052   000000 620006                    EAX0    0,QL
         1 000053   000000 236100                    LDQ     0,,PR0
         1 000054   100000 676110                    ERQ     0,X0,PR1
         1 000055   007777 376007                    ANQ     4095,DL
         1 000056   100000 656110                    ERSQ    0,X0,PR1

     1121       25    1           RETURN;

     25  1 000057   000000 702200 xent               TSX2  ! X66_ARET

(unnamed)
 Sect OctLoc
   0     000   000000 010000                                                    ....
     1122       26    1   END DCWBUILD;
     1123       27        %EOD;

PL6.E3A0      #002=DCWBUILD File=IVV$VOLINIT.:E05TSI                             TUE 07/29/97 23:18 Page:232
      No diagnostics issued in procedure DCWBUILD.
PL6.E3A0      #002=DCWBUILD File=IVV$VOLINIT.:E05TSI                             TUE 07/29/97 23:18 Page:233

 **** Variables and constants ****

  ****  Auto variables  ****

  ****  Scalars and arrays  ****
OctLoc.c.b A Datatyp(siz) R M Lvl/name                 OctLoc.c.b A Datatyp(siz) R M Lvl/name

     3-0-0/w PTR         r     1 @DCW                       4-0-0/w PTR         r     1 @FWA
     5-0-0/w PTR         r     1 @TALLY                    *0-0-0/w STRC        r     1 DCW(0:0)
    *0-0-0/w SBIN        r     1 FWA                        6-0-0/w SBIN        r     1 I
    *0-0-0/w SBIN        r     1 TALLY


   Procedure DCWBUILD requires 48 words for executable code.
   Procedure DCWBUILD requires 10 words of local(AUTO) storage.
PL6.E3A0      #002=DCWBUILD File=IVV$VOLINIT.:E05TSI                             TUE 07/29/97 23:18 Page:234
          *** CROSS REFERENCE LISTING ***
**     DENOTES     IDENTIFIER DEFINITION
<<                 IDENTIFIER'S VALUE SET
>>                 IDENTIFIER'S VALUE USED
<>                 IDENTIFIER SET AND/OR USED
--                 IDENTIFIER REFERENCED
PL6.E3A0      #002=DCWBUILD File=IVV$VOLINIT.:E05TSI                             TUE 07/29/97 23:18 Page:235
          MINI XREF LISTING

DCW
         8**DCL         7--PROC       18<<ASSIGN     22<<ASSIGN
DCW.FWA
         9**DCL        19<<ASSIGN     23<<ASSIGN
DCW.TALLY
        11**DCL        24<<ASSIGN
FWA
        12**DCL         7--PROC       19>>ASSIGN     23>>ASSIGN
I
        14**DCL        16<<ASSIGN     17>>DOWHILE    18>>ASSIGN     19>>ASSIGN     19>>ASSIGN     20<<ASSIGN
        20>>ASSIGN     22>>ASSIGN     23>>ASSIGN     23>>ASSIGN     24>>ASSIGN
TALLY
        13**DCL         7--PROC       17>>DOWHILE    24>>ASSIGN

PL6.E3A0      #003=IVV$BINDEC File=IVV$VOLINIT.:E05TSI                           TUE 07/29/97 23:18 Page:236
     1124        1        /*T***********************************************************/
     1125        2        /*T*                                                         */
     1126        3        /*T* Copyright (c) Bull HN Information Systems Inc., 1997    */
     1127        4        /*T*                                                         */
     1128        5        /*T***********************************************************/
     1129        6        /* CONVERT BINARY NUMBER TO DECIMAL STRING */
     1130        7        /**/
     1131        8        IVV$BINDEC: PROC (NN,STR,FC,NC);
     1132        9        /**/
     1133       10        /* PARAMETERS */
     1134       11        /**/
     1135       12    1   DCL NN SBIN;                            /* NUMBER TO CONVERT */
     1136       13    1   DCL STR CHAR(99);                       /* OUTPUT STRING */
     1137       14    1   DCL FC SBIN;                            /* FIRST CHARACTER OF DECIMAL STRING */
     1138       15    1   DCL NC SBIN;                            /* NUMBER OF CHARACTERS TO CONVERT */
     1139       16        /**/
     1140       17        /* AUTO STACK */
     1141       18        /**/
     1142       19    1   DCL I SBIN;
     1143       20    1   DCL N SBIN;
     1144       21        /**/
     1145       22    1           N=NN;
     1146       23    1           I=FC+NC-1;
     1147       24    2           DO WHILE (I>=FC);
     1148       25    2              CALL INSERT(STR,I,1,BINASC(ASCBIN('0')+MOD(N,10)));
     1149       26    2              N=N/10;
     1150       27    2              I=I-1;
     1151       28    2              END;
     1152       29    1           RETURN;
     1153       30    1   END IVV$BINDEC;
     1154       31        %EOD;

PL6.E3A0      #003=IVV$BINDEC File=IVV$VOLINIT.:E05TSI                           TUE 07/29/97 23:18 Page:237
      No diagnostics issued in procedure IVV$BINDEC.

   Procedure IVV$BINDEC requires 35 words for executable code.
   Procedure IVV$BINDEC requires 12 words of local(AUTO) storage.

PL6.E3A0      #003=IVV$BINDEC File=IVV$VOLINIT.:E05TSI                           TUE 07/29/97 23:18 Page:238

 Object Unit name= IVV$BINDEC                                 File name= IVV$VOLINIT.:E05TOU
 UTS= JUL 29 '97 23:18:58.08 TUE                              Compiler= PL-6/E31         Sev=      00
 SharedLib= :SHARED_SYSTEM                                    Alt SharedLib=


    ****  Control sections  ****

 Sect   Type Bound  Init  Size OctSiz  Section name(segment info)
    0   Proc  even  none    35     43  IVV$BINDEC
    1  RoData even  none     1      1  IVV$BINDEC

    ****  Entry defs  ****

                              Check   Calling
                             calling  sequence
  Sect OctLoc Primary Altret sequence   type   Parms  Name
     0      0   yes            yes      Std        4  IVV$BINDEC

  ****  Entry refs  ****

         Check        Calling
        calling       sequence
Altret sequence SRef   type   Args  Name
                       nStd      0 X66_AUTO_4
                       nStd      0 X66_ARET
PL6.E3A0      #003=IVV$BINDEC File=IVV$VOLINIT.:E05TSI                           TUE 07/29/97 23:18 Page:239


     1124        1        /*T***********************************************************/
     1125        2        /*T*                                                         */
     1126        3        /*T* Copyright (c) Bull HN Information Systems Inc., 1997    */
     1127        4        /*T*                                                         */
     1128        5        /*T***********************************************************/
     1129        6        /* CONVERT BINARY NUMBER TO DECIMAL STRING */
     1130        7        /**/
     1131        8        IVV$BINDEC: PROC (NN,STR,FC,NC);

      8  0 000000   000000 700200 xent  IVV$BINDEC   TSX0  ! X66_AUTO_4
         0 000001   000014 000004                    ZERO    12,4

     1132        9        /**/
     1133       10        /* PARAMETERS */
     1134       11        /**/
     1135       12    1   DCL NN SBIN;                            /* NUMBER TO CONVERT */
     1136       13    1   DCL STR CHAR(99);                       /* OUTPUT STRING */
     1137       14    1   DCL FC SBIN;                            /* FIRST CHARACTER OF DECIMAL STRING */
     1138       15    1   DCL NC SBIN;                            /* NUMBER OF CHARACTERS TO CONVERT */
     1139       16        /**/
     1140       17        /* AUTO STACK */
     1141       18        /**/
     1142       19    1   DCL I SBIN;
     1143       20    1   DCL N SBIN;
     1144       21        /**/
     1145       22    1           N=NN;

     22  0 000002   200003 470500                    LDP0    @NN,,AUTO
         0 000003   000000 235100                    LDA     0,,PR0
         0 000004   200010 755100                    STA     N,,AUTO

     1146       23    1           I=FC+NC-1;

     23  0 000005   200005 471500                    LDP1    @FC,,AUTO
         0 000006   200006 473500                    LDP3    @NC,,AUTO
         0 000007   100000 236100                    LDQ     0,,PR1
PL6.E3A0      #003=IVV$BINDEC File=IVV$VOLINIT.:E05TSI                           TUE 07/29/97 23:18 Page:240
         0 000010   300000 036100                    ADLQ    0,,PR3
         0 000011   000001 136007                    SBLQ    1,DL
         0 000012   200007 756100                    STQ     I,,AUTO

     1147       24    2           DO WHILE (I>=FC);

     24  0 000013   100000 116100                    CMPQ    0,,PR1
         0 000014   000042 604000 0                  TMI     s:29

     1148       25    2              CALL INSERT(STR,I,1,BINASC(ASCBIN('0')+MOD(N,10)));

     25  0 000015   200010 236100                    LDQ     N,,AUTO
         0 000016   000012 506007                    DIV     10,DL
         0 000017   000044 733000                    LRS     36
         0 000020   000060 036007                    ADLQ    48,DL
         0 000021   000033 736000                    QLS     27
         0 000022   000000 276000 1                  ORQ     0
         0 000023   200012 756100                    STQ     N+2,,AUTO
         0 000024   200004 470500                    LDP0    @STR,,AUTO
         0 000025   200007 235100                    LDA     I,,AUTO
         0 000026   040105 100500                    MLR     fill='040'O
         0 000027   200012 000004                    ADSC9   N+2,,AUTO                cn=0,n=4
         0 000030   000000 000001                    ADSC9   0,A,PR0                  cn=0,n=1

     1149       26    2              N=N/10;

     26  0 000031   200010 236100                    LDQ     N,,AUTO
         0 000032   000012 506007                    DIV     10,DL
         0 000033   200010 756100                    STQ     N,,AUTO

     1150       27    2              I=I-1;

     27  0 000034   000001 336007                    LCQ     1,DL
         0 000035   200007 056100                    ASQ     I,,AUTO

     1151       28    2              END;

PL6.E3A0      #003=IVV$BINDEC File=IVV$VOLINIT.:E05TSI                           TUE 07/29/97 23:18 Page:241
     28  0 000036   200005 471500                    LDP1    @FC,,AUTO
         0 000037   200007 236100                    LDQ     I,,AUTO
         0 000040   100000 116100                    CMPQ    0,,PR1
         0 000041   000015 605000 0                  TPL     s:25

     1152       29    1           RETURN;

     29  0 000042   000000 702200 xent               TSX2  ! X66_ARET

(unnamed)
 Sect OctLoc
   1     000   000040 040040                                                    .
     1153       30    1   END IVV$BINDEC;
     1154       31        %EOD;

PL6.E3A0      #003=IVV$BINDEC File=IVV$VOLINIT.:E05TSI                           TUE 07/29/97 23:18 Page:242
      No diagnostics issued in procedure IVV$BINDEC.
PL6.E3A0      #003=IVV$BINDEC File=IVV$VOLINIT.:E05TSI                           TUE 07/29/97 23:18 Page:243

 **** Variables and constants ****

  ****  Auto variables  ****

  ****  Scalars and arrays  ****
OctLoc.c.b A Datatyp(siz) R M Lvl/name                 OctLoc.c.b A Datatyp(siz) R M Lvl/name

     5-0-0/w PTR         r     1 @FC                        6-0-0/w PTR         r     1 @NC
     3-0-0/w PTR         r     1 @NN                        4-0-0/w PTR         r     1 @STR
    *0-0-0/w SBIN        r     1 FC                         7-0-0/w SBIN        r     1 I
    10-0-0/w SBIN        r     1 N                         *0-0-0/w SBIN        r     1 NC
    *0-0-0/w SBIN        r     1 NN                        *0-0-0/c CHAR(99)    r     1 STR


   Procedure IVV$BINDEC requires 35 words for executable code.
   Procedure IVV$BINDEC requires 12 words of local(AUTO) storage.
PL6.E3A0      #003=IVV$BINDEC File=IVV$VOLINIT.:E05TSI                           TUE 07/29/97 23:18 Page:244
          *** CROSS REFERENCE LISTING ***
**     DENOTES     IDENTIFIER DEFINITION
<<                 IDENTIFIER'S VALUE SET
>>                 IDENTIFIER'S VALUE USED
<>                 IDENTIFIER SET AND/OR USED
--                 IDENTIFIER REFERENCED
PL6.E3A0      #003=IVV$BINDEC File=IVV$VOLINIT.:E05TSI                           TUE 07/29/97 23:18 Page:245
          MINI XREF LISTING

FC
        14**DCL         8--PROC       23>>ASSIGN     24>>DOWHILE
I
        19**DCL        23<<ASSIGN     24>>DOWHILE    25>>CALLBLT    27<<ASSIGN     27>>ASSIGN
N
        20**DCL        22<<ASSIGN     25>>CALLBLT    26<<ASSIGN     26>>ASSIGN
NC
        15**DCL         8--PROC       23>>ASSIGN
NN
        12**DCL         8--PROC       22>>ASSIGN
STR
        13**DCL         8--PROC       25<<CALLBLT

PL6.E3A0      #004=IVV$ERROR File=IVV$VOLINIT.:E05TSI                            TUE 07/29/97 23:19 Page:246
     1155        1        /*T***********************************************************/
     1156        2        /*T*                                                         */
     1157        3        /*T* Copyright (c) Bull HN Information Systems Inc., 1997    */
     1158        4        /*T*                                                         */
     1159        5        /*T***********************************************************/
     1160        6        /* PRINT ERROR MESSAGE */
     1161        7        /**/
     1162        8        IVV$ERROR: PROC (DEVID,ERRNO,VSN);
     1163        9        /**/
     1164       10        /* INCLUDE FILES */
     1165       11        /**/
     1166       12        %INCLUDE IV$MACROS;
     1167      182        /**/
     1168      183        /* PARAMETERS */
     1169      184        /**/
     1170      185    1   DCL DEVID CHAR(4);
     1171      186    1   DCL ERRNO SBIN;
     1172      187    1   DCL VSN SBIN;
     1173      188        /**/
     1174      189        /* SUBSTITUTIONS */
     1175      190        /**/
     1176      191        %SUB NULL="ADDR(NIL)";
     1177      192        /**/
     1178      193        /* EXTERNAL REFERENCES */
     1179      194        /**/
     1180      195    1   DCL IVO$PRINT ENTRY (2) ALTRET;
     1181      196    1   DCL IVV$BINDEC ENTRY (4);
     1182      197        /**/
     1183      198        /* CONSTANT DATA */
     1184      199        /**/
     1185      200    1   DCL 1 ERR(0:39) CONSTANT ALIGNED,
     1186      201    1         2 LEN SBIN INIT(16,19,20,27,45,21,31,19,22,26,20,18,24,10,30,25,
     1187      202    1                       42,49,47,56,52,45,45,43,52,45,58,52,62,50,51,28,60,61,63,45,49,
               202                                40,40,47),
     1188      203    1         2 MSG CHAR(80) INIT(
     1189      204    1           'AIllegal command',
     1190      205    1           'ADPnn command error',
PL6.E3A0      #004=IVV$ERROR File=IVV$VOLINIT.:E05TSI                            TUE 07/29/97 23:19 Page:247
     1191      206    1           'ADPnn not in VOLINIT',
     1192      207    1           'ADPnn invalid track address',
     1193      208    1           'ADPnn not there, not disk, or not partitioned',
     1194      209    1           'ADPnn too many ranges',
     1195      210    1           'ADPnn too many defective tracks',
     1196      211    1           'ADPnn missing DTEND',
     1197      212    1           'ADPnn xxxxxx wrong VSN',
     1198      213    1           'ADPnn data space exhausted',
     1199      214    1           'ADPnn disk i/o error',
     1200      215    1           'ACommand i/o error',
     1201      216    1           'ADPnn old VID unreadable',
     1202      217    1           'ADPnn busy',
     1203      218    1           'APlease specify format or test',
     1204      219    1           'ADPnn ELT not recoverable',
     1205      220    1           'ADPnn need MTAR to work on ELT (840.20-39)',
     1206      221    1           'AThat command only allowed during offline VOLINIT',
     1207      222    1           'ADPnn operator won''t let you VOLINIT that drive',
     1208      223    1           'ADPnn break hit while opening drive, VOLINIT not started',
     1209      224    1           'ADPnn DTT=NEW must be specified for this device type',
     1210      225    1           'ADPnn FORMAT not allowed for this device type',
     1211      226    1           'ADPnn VERIFY not allowed for this device type',
     1212      227    1           'ADPnn TEST not allowed for this device type',
     1213      228    1           'ADPnn SCRATCH must be specified for this device type',
     1214      229    1           'ADPnn NEWDTS not allowed for this device type',
     1215      230    1           'ADPnn Range specification not allowed for this device type',
     1216      231    1           'ANo more DCB slots available - I/O operation aborted',
     1217      232    1           'AInsufficient privilege to run VOLINIT - I/O operation aborted',
     1218      233    1           'ADPnn MDS disk not formatted with 512 words/sector',
     1219      234    1           'ADPnn FIPS disk not formatted with 512 words/sector',
     1220      235    1           'ADPnn not a 501N device type',
     1221      236    1           'AUnable to get an I/O request packet - I/O operation aborted',
     1222      237    1           'ADPnn An error occurred when attempting to verify disk format',
     1223      238    1           'ADPnn Device not configured or off-line - I/O operation aborted',
     1224      239    1           'ADPnn NOTEST not allowed for this device type',
     1225      240    1           'ADPnn ALT option not allowed for this device type',
     1226      241    1           'ADPnn FORMAT not allowed with ALT option',
     1227      242    1           'ADPnn NEWDTS not allowed with ALT option',
PL6.E3A0      #004=IVV$ERROR File=IVV$VOLINIT.:E05TSI                            TUE 07/29/97 23:19 Page:248
     1228      243    1           'ADPnn Range cannot be specified with ALT option');
     1229      244        /**/
     1230      245        /* AUTO STACK */
     1231      246        /**/
     1232      247    1   DCL 1 OUT ALIGNED,
     1233      248    1         2 LEN SBIN,
     1234      249    1         2 MSG CHAR(80);
     1235      250        /**/
     1236      251        /* FORMAT ERROR MESSAGE AND PRINT IT */
     1237      252        /**/
     1238      253    1           OUT=ERR(ERRNO);
     1239      254    1           IF ADDR(DEVID)~=NULL THEN
     1240      255    1              CALL INSERT(OUT.MSG,1,4,DEVID);
     1241      256    1           IF ADDR(VSN)~=NULL THEN
     1242      257    1              CALL IVV$BINDEC(VSN,OUT.MSG,6,6);
     1243      258    1           CALL IVO$PRINT(OUT,'1'B);
     1244      259    1           RETURN;
     1245      260    1   END IVV$ERROR;
     1246      261        %EOD;

PL6.E3A0      #004=IVV$ERROR File=IVV$VOLINIT.:E05TSI                            TUE 07/29/97 23:19 Page:249
--  Include file information  --

   IV$MACROS.:E05TOU  is referenced.
      No diagnostics issued in procedure IVV$ERROR.

   Procedure IVV$ERROR requires 38 words for executable code.
   Procedure IVV$ERROR requires 32 words of local(AUTO) storage.

PL6.E3A0      #004=IVV$ERROR File=IVV$VOLINIT.:E05TSI                            TUE 07/29/97 23:19 Page:250

 Object Unit name= IVV$ERROR                                  File name= IVV$VOLINIT.:E05TOU
 UTS= JUL 29 '97 23:19:04.32 TUE                              Compiler= PL-6/E31         Sev=      00
 SharedLib= :SHARED_SYSTEM                                    Alt SharedLib=


    ****  Control sections  ****

 Sect   Type Bound  Init  Size OctSiz  Section name(segment info)
    0  RoData even  UTS    840   1510  IVV$ERROR
    1   Proc  even  none    38     46  IVV$ERROR
    2  RoData even  none     3      3  IVV$ERROR

    ****  Entry defs  ****

                              Check   Calling
                             calling  sequence
  Sect OctLoc Primary Altret sequence   type   Parms  Name
     1      0   yes            yes      Std        3  IVV$ERROR

  ****  Entry refs  ****

         Check        Calling
        calling       sequence
Altret sequence SRef   type   Args  Name
         yes           Std       4 IVV$BINDEC
 yes     yes           Std       2 IVO$PRINT
                       nStd      0 X66_AUTO_3
                       Std       0 B_CONSPOOL_D
                       nStd      0 X66_ARET

  ****  Data refs  ****

  Flags:  r = read only, s = secondary
Flgs Name                             Flgs Name                             Flgs Name
     B_VECTNIL
PL6.E3A0      #004=IVV$ERROR File=IVV$VOLINIT.:E05TSI                            TUE 07/29/97 23:19 Page:251

  ****  Segment refs  ****

  Flags:  r = read only, s = secondary
Flgs Name                             Flgs Name                             Flgs Name
     ISSID
PL6.E3A0      #004=IVV$ERROR File=IVV$VOLINIT.:E05TSI                            TUE 07/29/97 23:19 Page:252


     1155        1        /*T***********************************************************/
     1156        2        /*T*                                                         */
     1157        3        /*T* Copyright (c) Bull HN Information Systems Inc., 1997    */
     1158        4        /*T*                                                         */
     1159        5        /*T***********************************************************/
     1160        6        /* PRINT ERROR MESSAGE */
     1161        7        /**/
     1162        8        IVV$ERROR: PROC (DEVID,ERRNO,VSN);

      8  1 000000   000000 700200 xent  IVV$ERROR    TSX0  ! X66_AUTO_3
         1 000001   000040 000003                    ZERO    32,3

     1163        9        /**/
     1164       10        /* INCLUDE FILES */
     1165       11        /**/
     1166       12        %INCLUDE IV$MACROS;
     1167      182        /**/
     1168      183        /* PARAMETERS */
     1169      184        /**/
     1170      185    1   DCL DEVID CHAR(4);
     1171      186    1   DCL ERRNO SBIN;
     1172      187    1   DCL VSN SBIN;
     1173      188        /**/
     1174      189        /* SUBSTITUTIONS */
     1175      190        /**/
     1176      191        %SUB NULL="ADDR(NIL)";
     1177      192        /**/
     1178      193        /* EXTERNAL REFERENCES */
     1179      194        /**/
     1180      195    1   DCL IVO$PRINT ENTRY (2) ALTRET;
     1181      196    1   DCL IVV$BINDEC ENTRY (4);
     1182      197        /**/
     1183      198        /* CONSTANT DATA */
     1184      199        /**/
     1185      200    1   DCL 1 ERR(0:39) CONSTANT ALIGNED,
     1186      201    1         2 LEN SBIN INIT(16,19,20,27,45,21,31,19,22,26,20,18,24,10,30,25,
PL6.E3A0      #004=IVV$ERROR File=IVV$VOLINIT.:E05TSI                            TUE 07/29/97 23:19 Page:253
     1187      202    1                       42,49,47,56,52,45,45,43,52,45,58,52,62,50,51,28,60,61,63,45,49,
               202                                40,40,47),
     1188      203    1         2 MSG CHAR(80) INIT(
     1189      204    1           'AIllegal command',
     1190      205    1           'ADPnn command error',
     1191      206    1           'ADPnn not in VOLINIT',
     1192      207    1           'ADPnn invalid track address',
     1193      208    1           'ADPnn not there, not disk, or not partitioned',
     1194      209    1           'ADPnn too many ranges',
     1195      210    1           'ADPnn too many defective tracks',
     1196      211    1           'ADPnn missing DTEND',
     1197      212    1           'ADPnn xxxxxx wrong VSN',
     1198      213    1           'ADPnn data space exhausted',
     1199      214    1           'ADPnn disk i/o error',
     1200      215    1           'ACommand i/o error',
     1201      216    1           'ADPnn old VID unreadable',
     1202      217    1           'ADPnn busy',
     1203      218    1           'APlease specify format or test',
     1204      219    1           'ADPnn ELT not recoverable',
     1205      220    1           'ADPnn need MTAR to work on ELT (840.20-39)',
     1206      221    1           'AThat command only allowed during offline VOLINIT',
     1207      222    1           'ADPnn operator won''t let you VOLINIT that drive',
     1208      223    1           'ADPnn break hit while opening drive, VOLINIT not started',
     1209      224    1           'ADPnn DTT=NEW must be specified for this device type',
     1210      225    1           'ADPnn FORMAT not allowed for this device type',
     1211      226    1           'ADPnn VERIFY not allowed for this device type',
     1212      227    1           'ADPnn TEST not allowed for this device type',
     1213      228    1           'ADPnn SCRATCH must be specified for this device type',
     1214      229    1           'ADPnn NEWDTS not allowed for this device type',
     1215      230    1           'ADPnn Range specification not allowed for this device type',
     1216      231    1           'ANo more DCB slots available - I/O operation aborted',
     1217      232    1           'AInsufficient privilege to run VOLINIT - I/O operation aborted',
     1218      233    1           'ADPnn MDS disk not formatted with 512 words/sector',
     1219      234    1           'ADPnn FIPS disk not formatted with 512 words/sector',
     1220      235    1           'ADPnn not a 501N device type',
     1221      236    1           'AUnable to get an I/O request packet - I/O operation aborted',
     1222      237    1           'ADPnn An error occurred when attempting to verify disk format',
PL6.E3A0      #004=IVV$ERROR File=IVV$VOLINIT.:E05TSI                            TUE 07/29/97 23:19 Page:254
     1223      238    1           'ADPnn Device not configured or off-line - I/O operation aborted',
     1224      239    1           'ADPnn NOTEST not allowed for this device type',
     1225      240    1           'ADPnn ALT option not allowed for this device type',
     1226      241    1           'ADPnn FORMAT not allowed with ALT option',
     1227      242    1           'ADPnn NEWDTS not allowed with ALT option',
     1228      243    1           'ADPnn Range cannot be specified with ALT option');
     1229      244        /**/
     1230      245        /* AUTO STACK */
     1231      246        /**/
     1232      247    1   DCL 1 OUT ALIGNED,
     1233      248    1         2 LEN SBIN,
     1234      249    1         2 MSG CHAR(80);
     1235      250        /**/
     1236      251        /* FORMAT ERROR MESSAGE AND PRINT IT */
     1237      252        /**/
     1238      253    1           OUT=ERR(ERRNO);

    253  1 000002   200004 470500                    LDP0    @ERRNO,,AUTO
         1 000003   000000 236100                    LDQ     0,,PR0
         1 000004   000025 402007                    MPY     21,DL
         1 000005   000002 736000                    QLS     2
         1 000006   000100 100406                    MLR     fill='000'O
         1 000007   000000 000124 0                  ADSC9   ERR,Q                    cn=0,n=84
         1 000010   200006 000124                    ADSC9   OUT,,AUTO                cn=0,n=84

     1239      254    1           IF ADDR(DEVID)~=NULL THEN

    254  1 000011   200003 236100                    LDQ     @DEVID,,AUTO
         1 000012   000001 116000 xsym               CMPQ    B_VECTNIL+1
         1 000013   000020 600000 1                  TZE     s:256

     1240      255    1              CALL INSERT(OUT.MSG,1,4,DEVID);

    255  1 000014   200003 471500                    LDP1    @DEVID,,AUTO
         1 000015   040100 100500                    MLR     fill='040'O
         1 000016   100000 000004                    ADSC9   0,,PR1                   cn=0,n=4
         1 000017   200007 200004                    ADSC9   OUT+1,,AUTO              cn=1,n=4
PL6.E3A0      #004=IVV$ERROR File=IVV$VOLINIT.:E05TSI                            TUE 07/29/97 23:19 Page:255

     1241      256    1           IF ADDR(VSN)~=NULL THEN

    256  1 000020   200005 236100                    LDQ     @VSN,,AUTO
         1 000021   000001 116000 xsym               CMPQ    B_VECTNIL+1
         1 000022   000035 600000 1                  TZE     s:258

     1242      257    1              CALL IVV$BINDEC(VSN,OUT.MSG,6,6);

    257  1 000023   000000 237000 2                  LDAQ    0
         1 000024   200036 757100                    STAQ    OUT+24,,AUTO
         1 000025   200007 631500                    EPPR1   OUT+1,,AUTO
         1 000026   200035 451500                    STP1    OUT+23,,AUTO
         1 000027   200005 236100                    LDQ     @VSN,,AUTO
         1 000030   200034 756100                    STQ     OUT+22,,AUTO
         1 000031   200034 630500                    EPPR0   OUT+22,,AUTO
         1 000032   000022 631400 xsym               EPPR1   B_VECTNIL+18
         1 000033   000000 701000 xent               TSX1    IVV$BINDEC
         1 000034   000000 011000                    NOP     0

     1243      258    1           CALL IVO$PRINT(OUT,'1'B);

    258  1 000035   000002 236000 2                  LDQ     2
         1 000036   200035 756100                    STQ     OUT+23,,AUTO
         1 000037   200006 630500                    EPPR0   OUT,,AUTO
         1 000040   200034 450500                    STP0    OUT+22,,AUTO
         1 000041   200034 630500                    EPPR0   OUT+22,,AUTO
         1 000042   000020 631400 xsym               EPPR1   B_VECTNIL+16
         1 000043   000000 701000 xent               TSX1    IVO$PRINT
         1 000044   000000 011000                    NOP     0

     1244      259    1           RETURN;

    259  1 000045   000000 702200 xent               TSX2  ! X66_ARET

ERR
 Sect OctLoc
PL6.E3A0      #004=IVV$ERROR File=IVV$VOLINIT.:E05TSI                            TUE 07/29/97 23:19 Page:256
   0     000   000000 000020   101111 154154   145147 141154   040143 157155    ....AIllegal com
   0     004   155141 156144   040040 040040   040040 040040   040040 040040    mand
   0     010   040040 040040   040040 040040   040040 040040   040040 040040
   0     024*  040040 040040   000000 000023   101104 120156   156040 143157        ....ADPnn co
   0     030   155155 141156   144040 145162   162157 162040   040040 040040    mmand error
   0     034   040040 040040   040040 040040   040040 040040   040040 040040
   0     050*  040040 040040   040040 040040   000000 000024   101104 120156            ....ADPn
   0     054   156040 156157   164040 151156   040126 117114   111116 111124    n not in VOLINIT
   0     060   040040 040040   040040 040040   040040 040040   040040 040040
   0     074*  040040 040040   040040 040040   040040 040040   000000 000033                ....
   0     100   101104 120156   156040 151156   166141 154151   144040 164162    ADPnn invalid tr
   0     104   141143 153040   141144 144162   145163 163040   040040 040040    ack address
   0     110   040040 040040   040040 040040   040040 040040   040040 040040
   0     124*  000000 000055   101104 120156   156040 156157   164040 164150    ...-ADPnn not th
   0     130   145162 145054   040156 157164   040144 151163   153054 040157    ere, not disk, o
   0     134   162040 156157   164040 160141   162164 151164   151157 156145    r not partitione
   0     140   144040 040040   040040 040040   040040 040040   040040 040040    d
   0     144   040040 040040   040040 040040   040040 040040   040040 040040
   0     150   040040 040040   000000 000025   101104 120156   156040 164157        ....ADPnn to
   0     154   157040 155141   156171 040162   141156 147145   163040 040040    o many ranges
   0     160   040040 040040   040040 040040   040040 040040   040040 040040
   0     174*  040040 040040   040040 040040   000000 000037   101104 120156            ....ADPn
   0     200   156040 164157   157040 155141   156171 040144   145146 145143    n too many defec
   0     204   164151 166145   040164 162141   143153 163040   040040 040040    tive tracks
   0     210   040040 040040   040040 040040   040040 040040   040040 040040
   0     220*  040040 040040   040040 040040   040040 040040   000000 000023                ....
   0     224   101104 120156   156040 155151   163163 151156   147040 104124    ADPnn missing DT
   0     230   105116 104040   040040 040040   040040 040040   040040 040040    END
   0     234   040040 040040   040040 040040   040040 040040   040040 040040
   0     250*  000000 000026   101104 120156   156040 170170   170170 170170    ....ADPnn xxxxxx
   0     254   040167 162157   156147 040126   123116 040040   040040 040040     wrong VSN
   0     260   040040 040040   040040 040040   040040 040040   040040 040040
   0     274*  040040 040040   000000 000032   101104 120156   156040 144141        ....ADPnn da
   0     300   164141 040163   160141 143145   040145 170150   141165 163164    ta space exhaust
   0     304   145144 040040   040040 040040   040040 040040   040040 040040    ed
   0     310   040040 040040   040040 040040   040040 040040   040040 040040
   0     320*  040040 040040   040040 040040   000000 000024   101104 120156            ....ADPn
PL6.E3A0      #004=IVV$ERROR File=IVV$VOLINIT.:E05TSI                            TUE 07/29/97 23:19 Page:257
   0     324   156040 144151   163153 040151   057157 040145   162162 157162    n disk i/o error
   0     330   040040 040040   040040 040040   040040 040040   040040 040040
   0     344*  040040 040040   040040 040040   040040 040040   000000 000022                ....
   0     350   101103 157155   155141 156144   040151 057157   040145 162162    ACommand i/o err
   0     354   157162 040040   040040 040040   040040 040040   040040 040040    or
   0     360   040040 040040   040040 040040   040040 040040   040040 040040
   0     374*  000000 000030   101104 120156   156040 157154   144040 126111    ....ADPnn old VI
   0     400   104040 165156   162145 141144   141142 154145   040040 040040    D unreadable
   0     404   040040 040040   040040 040040   040040 040040   040040 040040
   0     420*  040040 040040   000000 000012   101104 120156   156040 142165        ....ADPnn bu
   0     424   163171 040040   040040 040040   040040 040040   040040 040040    sy
   0     430   040040 040040   040040 040040   040040 040040   040040 040040
   0     444*  040040 040040   040040 040040   000000 000036   101120 154145            ....APle
   0     450   141163 145040   163160 145143   151146 171040   146157 162155    ase specify form
   0     454   141164 040157   162040 164145   163164 040040   040040 040040    at or test
   0     460   040040 040040   040040 040040   040040 040040   040040 040040
   0     470*  040040 040040   040040 040040   040040 040040   000000 000031                ....
   0     474   101104 120156   156040 105114   124040 156157   164040 162145    ADPnn ELT not re
   0     500   143157 166145   162141 142154   145040 040040   040040 040040    coverable
   0     504   040040 040040   040040 040040   040040 040040   040040 040040
   0     520*  000000 000052   101104 120156   156040 156145   145144 040115    ...*ADPnn need M
   0     524   124101 122040   164157 040167   157162 153040   157156 040105    TAR to work on E
   0     530   114124 040050   070064 060056   062060 055063   071051 040040    LT (840.20-39)
   0     534   040040 040040   040040 040040   040040 040040   040040 040040
   0     544*  040040 040040   000000 000061   101124 150141   164040 143157        ...1AThat co
   0     550   155155 141156   144040 157156   154171 040141   154154 157167    mmand only allow
   0     554   145144 040144   165162 151156   147040 157146   146154 151156    ed during offlin
   0     560   145040 126117   114111 116111   124040 040040   040040 040040    e VOLINIT
   0     564   040040 040040   040040 040040   040040 040040   040040 040040
   0     570   040040 040040   040040 040040   000000 000057   101104 120156            .../ADPn
   0     574   156040 157160   145162 141164   157162 040167   157156 047164    n operator won't
   0     600   040154 145164   040171 157165   040126 117114   111116 111124     let you VOLINIT
   0     604   040164 150141   164040 144162   151166 145040   040040 040040     that drive
   0     610   040040 040040   040040 040040   040040 040040   040040 040040
   0     614   040040 040040   040040 040040   040040 040040   000000 000070                ...8
   0     620   101104 120156   156040 142162   145141 153040   150151 164040    ADPnn break hit
   0     624   167150 151154   145040 157160   145156 151156   147040 144162    while opening dr
PL6.E3A0      #004=IVV$ERROR File=IVV$VOLINIT.:E05TSI                            TUE 07/29/97 23:19 Page:258
   0     630   151166 145054   040126 117114   111116 111124   040156 157164    ive, VOLINIT not
   0     634   040163 164141   162164 145144   040040 040040   040040 040040     started
   0     640   040040 040040   040040 040040   040040 040040   040040 040040
   0     644   000000 000064   101104 120156   156040 104124   124075 116105    ...4ADPnn DTT=NE
   0     650   127040 155165   163164 040142   145040 163160   145143 151146    W must be specif
   0     654   151145 144040   146157 162040   164150 151163   040144 145166    ied for this dev
   0     660   151143 145040   164171 160145   040040 040040   040040 040040    ice type
   0     664   040040 040040   040040 040040   040040 040040   040040 040040
   0     670   040040 040040   000000 000055   101104 120156   156040 106117        ...-ADPnn FO
   0     674   122115 101124   040156 157164   040141 154154   157167 145144    RMAT not allowed
   0     700   040146 157162   040164 150151   163040 144145   166151 143145     for this device
   0     704   040164 171160   145040 040040   040040 040040   040040 040040     type
   0     710   040040 040040   040040 040040   040040 040040   040040 040040
   0     714   040040 040040   040040 040040   000000 000055   101104 120156            ...-ADPn
   0     720   156040 126105   122111 106131   040156 157164   040141 154154    n VERIFY not all
   0     724   157167 145144   040146 157162   040164 150151   163040 144145    owed for this de
   0     730   166151 143145   040164 171160   145040 040040   040040 040040    vice type
   0     734   040040 040040   040040 040040   040040 040040   040040 040040
   0     740   040040 040040   040040 040040   040040 040040   000000 000053                ...+
   0     744   101104 120156   156040 124105   123124 040156   157164 040141    ADPnn TEST not a
   0     750   154154 157167   145144 040146   157162 040164   150151 163040    llowed for this
   0     754   144145 166151   143145 040164   171160 145040   040040 040040    device type
   0     760   040040 040040   040040 040040   040040 040040   040040 040040
   0     770*  000000 000064   101104 120156   156040 123103   122101 124103    ...4ADPnn SCRATC
   0     774   110040 155165   163164 040142   145040 163160   145143 151146    H must be specif
   0    1000   151145 144040   146157 162040   164150 151163   040144 145166    ied for this dev
   0    1004   151143 145040   164171 160145   040040 040040   040040 040040    ice type
   0    1010   040040 040040   040040 040040   040040 040040   040040 040040
   0    1014   040040 040040   000000 000055   101104 120156   156040 116105        ...-ADPnn NE
   0    1020   127104 124123   040156 157164   040141 154154   157167 145144    WDTS not allowed
   0    1024   040146 157162   040164 150151   163040 144145   166151 143145     for this device
   0    1030   040164 171160   145040 040040   040040 040040   040040 040040     type
   0    1034   040040 040040   040040 040040   040040 040040   040040 040040
   0    1040   040040 040040   040040 040040   000000 000072   101104 120156            ...:ADPn
   0    1044   156040 122141   156147 145040   163160 145143   151146 151143    n Range specific
   0    1050   141164 151157   156040 156157   164040 141154   154157 167145    ation not allowe
   0    1054   144040 146157   162040 164150   151163 040144   145166 151143    d for this devic
PL6.E3A0      #004=IVV$ERROR File=IVV$VOLINIT.:E05TSI                            TUE 07/29/97 23:19 Page:259
   0    1060   145040 164171   160145 040040   040040 040040   040040 040040    e type
   0    1064   040040 040040   040040 040040   040040 040040   000000 000064                ...4
   0    1070   101116 157040   155157 162145   040104 103102   040163 154157    ANo more DCB slo
   0    1074   164163 040141   166141 151154   141142 154145   040055 040111    ts available - I
   0    1100   057117 040157   160145 162141   164151 157156   040141 142157    /O operation abo
   0    1104   162164 145144   040040 040040   040040 040040   040040 040040    rted
   0    1110   040040 040040   040040 040040   040040 040040   040040 040040
   0    1114   000000 000076   101111 156163   165146 146151   143151 145156    ...>AInsufficien
   0    1120   164040 160162   151166 151154   145147 145040   164157 040162    t privilege to r
   0    1124   165156 040126   117114 111116   111124 040055   040111 057117    un VOLINIT - I/O
   0    1130   040157 160145   162141 164151   157156 040141   142157 162164     operation abort
   0    1134   145144 040040   040040 040040   040040 040040   040040 040040    ed
   0    1140   040040 040040   000000 000062   101104 120156   156040 115104        ...2ADPnn MD
   0    1144   123040 144151   163153 040156   157164 040146   157162 155141    S disk not forma
   0    1150   164164 145144   040167 151164   150040 065061   062040 167157    tted with 512 wo
   0    1154   162144 163057   163145 143164   157162 040040   040040 040040    rds/sector
   0    1160   040040 040040   040040 040040   040040 040040   040040 040040
   0    1164   040040 040040   040040 040040   000000 000063   101104 120156            ...3ADPn
   0    1170   156040 106111   120123 040144   151163 153040   156157 164040    n FIPS disk not
   0    1174   146157 162155   141164 164145   144040 167151   164150 040065    formatted with 5
   0    1200   061062 040167   157162 144163   057163 145143   164157 162040    12 words/sector
   0    1204   040040 040040   040040 040040   040040 040040   040040 040040
   0    1210   040040 040040   040040 040040   040040 040040   000000 000034                ....
   0    1214   101104 120156   156040 156157   164040 141040   065060 061116    ADPnn not a 501N
   0    1220   040144 145166   151143 145040   164171 160145   040040 040040     device type
   0    1224   040040 040040   040040 040040   040040 040040   040040 040040
   0    1240*  000000 000074   101125 156141   142154 145040   164157 040147    ...<AUnable to g
   0    1244   145164 040141   156040 111057   117040 162145   161165 145163    et an I/O reques
   0    1250   164040 160141   143153 145164   040055 040111   057117 040157    t packet - I/O o
   0    1254   160145 162141   164151 157156   040141 142157   162164 145144    peration aborted
   0    1260   040040 040040   040040 040040   040040 040040   040040 040040
   0    1264   040040 040040   000000 000075   101104 120156   156040 101156        ...=ADPnn An
   0    1270   040145 162162   157162 040157   143143 165162   162145 144040     error occurred
   0    1274   167150 145156   040141 164164   145155 160164   151156 147040    when attempting
   0    1300   164157 040166   145162 151146   171040 144151   163153 040146    to verify disk f
   0    1304   157162 155141   164040 040040   040040 040040   040040 040040    ormat
   0    1310   040040 040040   040040 040040   000000 000077   101104 120156            ...?ADPn
PL6.E3A0      #004=IVV$ERROR File=IVV$VOLINIT.:E05TSI                            TUE 07/29/97 23:19 Page:260
   0    1314   156040 104145   166151 143145   040156 157164   040143 157156    n Device not con
   0    1320   146151 147165   162145 144040   157162 040157   146146 055154    figured or off-l
   0    1324   151156 145040   055040 111057   117040 157160   145162 141164    ine - I/O operat
   0    1330   151157 156040   141142 157162   164145 144040   040040 040040    ion aborted
   0    1334   040040 040040   040040 040040   040040 040040   000000 000055                ...-
   0    1340   101104 120156   156040 116117   124105 123124   040156 157164    ADPnn NOTEST not
   0    1344   040141 154154   157167 145144   040146 157162   040164 150151     allowed for thi
   0    1350   163040 144145   166151 143145   040164 171160   145040 040040    s device type
   0    1354   040040 040040   040040 040040   040040 040040   040040 040040
   0    1364*  000000 000061   101104 120156   156040 101114   124040 157160    ...1ADPnn ALT op
   0    1370   164151 157156   040156 157164   040141 154154   157167 145144    tion not allowed
   0    1374   040146 157162   040164 150151   163040 144145   166151 143145     for this device
   0    1400   040164 171160   145040 040040   040040 040040   040040 040040     type
   0    1404   040040 040040   040040 040040   040040 040040   040040 040040
   0    1410   040040 040040   000000 000050   101104 120156   156040 106117        ...(ADPnn FO
   0    1414   122115 101124   040156 157164   040141 154154   157167 145144    RMAT not allowed
   0    1420   040167 151164   150040 101114   124040 157160   164151 157156     with ALT option
   0    1424   040040 040040   040040 040040   040040 040040   040040 040040
   0    1434*  040040 040040   040040 040040   000000 000050   101104 120156            ...(ADPn
   0    1440   156040 116105   127104 124123   040156 157164   040141 154154    n NEWDTS not all
   0    1444   157167 145144   040167 151164   150040 101114   124040 157160    owed with ALT op
   0    1450   164151 157156   040040 040040   040040 040040   040040 040040    tion
   0    1454   040040 040040   040040 040040   040040 040040   040040 040040
   0    1460   040040 040040   040040 040040   040040 040040   000000 000057                .../
   0    1464   101104 120156   156040 122141   156147 145040   143141 156156    ADPnn Range cann
   0    1470   157164 040142   145040 163160   145143 151146   151145 144040    ot be specified
   0    1474   167151 164150   040101 114124   040157 160164   151157 156040    with ALT option
   0    1500   040040 040040   040040 040040   040040 040040   040040 040040
   0    1504   040040 040040   040040 040040   040040 040040   040040 040040

(unnamed)
 Sect OctLoc
   2     000   000010 006000   000010 006000   000030 006000                    ............
     1245      260    1   END IVV$ERROR;
     1246      261        %EOD;

PL6.E3A0      #004=IVV$ERROR File=IVV$VOLINIT.:E05TSI                            TUE 07/29/97 23:19 Page:261
--  Include file information  --

   IV$MACROS.:E05TOU  is referenced.
      No diagnostics issued in procedure IVV$ERROR.
PL6.E3A0      #004=IVV$ERROR File=IVV$VOLINIT.:E05TSI                            TUE 07/29/97 23:19 Page:262

 **** Variables and constants ****

  ****  Section 000 RoData IVV$ERROR

  ****  Scalars and arrays  ****
OctLoc.c.b A Datatyp(siz) R M Lvl/name                 OctLoc.c.b A Datatyp(siz) R M Lvl/name

     0-0-0/w STRC(756)   r     1 ERR(0:39)

  ****  Auto variables  ****

  ****  Scalars and arrays  ****
OctLoc.c.b A Datatyp(siz) R M Lvl/name                 OctLoc.c.b A Datatyp(siz) R M Lvl/name

     3-0-0/w PTR         r     1 @DEVID                     4-0-0/w PTR         r     1 @ERRNO
     5-0-0/w PTR         r     1 @VSN                      *0-0-0/c CHAR(4)     r     1 DEVID
    *0-0-0/w SBIN        r     1 ERRNO                      6-0-0/w STRC(756)   r     1 OUT
    *0-0-0/w SBIN        r     1 VSN


   Procedure IVV$ERROR requires 38 words for executable code.
   Procedure IVV$ERROR requires 32 words of local(AUTO) storage.
PL6.E3A0      #004=IVV$ERROR File=IVV$VOLINIT.:E05TSI                            TUE 07/29/97 23:19 Page:263
          *** CROSS REFERENCE LISTING ***
**     DENOTES     IDENTIFIER DEFINITION
<<                 IDENTIFIER'S VALUE SET
>>                 IDENTIFIER'S VALUE USED
<>                 IDENTIFIER SET AND/OR USED
--                 IDENTIFIER REFERENCED
PL6.E3A0      #004=IVV$ERROR File=IVV$VOLINIT.:E05TSI                            TUE 07/29/97 23:19 Page:264
          MINI XREF LISTING

DEVID
       185**DCL         8--PROC      254--IF        255>>CALLBLT
ERR
       200**DCL       253>>ASSIGN
ERRNO
       186**DCL         8--PROC      253>>ASSIGN
IVO$PRINT
       195**DCL-ENT   258--CALL
IVV$BINDEC
       196**DCL-ENT   257--CALL
OUT
       247**DCL       253<<ASSIGN    258<>CALL
OUT.MSG
       249**DCL       255<<CALLBLT   257<>CALL
VSN
       187**DCL         8--PROC      256--IF        257<>CALL

PL6.E3A0      #005=IVV$HEADER File=IVV$VOLINIT.:E05TSI                           TUE 07/29/97 23:19 Page:265
     1247        1        /*T***********************************************************/
     1248        2        /*T*                                                         */
     1249        3        /*T* Copyright (c) Bull HN Information Systems Inc., 1997    */
     1250        4        /*T*                                                         */
     1251        5        /*T***********************************************************/
     1252        6        /* SET UP TRACK FORMAT HEADER */
     1253        7        /**/
     1254        8        IVV$HEADER: PROC (VIP);
     1255        9        /**/
     1256       10        /* INCLUDE FILES */
     1257       11        /**/
     1258       12        %INCLUDE FM$GRAN;
     1259       81        %INCLUDE IV$MACROS;
     1260      251        /**/
     1261      252        /* PARAMETERS */
     1262      253        /**/
     1263      254        %IV$VIP(NAME=VIP,STCLASS="");
     1264      318        /**/
     1265      319        /* DATA STRUCTURES */
     1266      320        /**/
     1267      321        %IV$FMT(NAME=FMT,STCLASS="BASED(FMT$)");
     1268      377        %FM$VID(FM$VID=VID,BASED="BASED(VID$)");
     1269      383        /**/
     1270      384        /* AUTO STACK */
     1271      385        /**/
     1272      386    1   DCL CK BIT(6);
     1273      387    1   DCL FMT$ PTR;
     1274      388    1   DCL I SBIN;
     1275      389    1   DCL J SBIN;
     1276      390    1   DCL TRACK SBIN;
     1277      391    1   DCL 1 TR REDEF TRACK,
     1278      392    1         2 * BIT(18),
     1279      393    1         2 CYL UBIN(10) UNAL,              /* CYLINDER NUMBER */
     1280      394    1         2 HD UBIN(8) UNAL;                /* HEAD NUMBER */
     1281      395    1   DCL VID$ PTR;
     1282      396    1   DCL HDR5$ PTR;
     1283      397    1   DCL DATA$ PTR;
PL6.E3A0      #005=IVV$HEADER File=IVV$VOLINIT.:E05TSI                           TUE 07/29/97 23:19 Page:266
     1284      398        %IV$HDR(NAME=CF,STCLASS="BASED(HDR5$)");
     1285      426
     1286      427    1   DCL 1 LOG(0:3071) BASED(DATA$) UNAL,
     1287      428    1         2 * BIT(6) UNAL,
     1288      429    1         2 CYL UBIN(10) UNAL,
     1289      430    1         2 HD UBIN(8) UNAL,
     1290      431    1         2 POS UBIN(16) UNAL,
     1291      432    1         2 LTH UBIN(8) UNAL;
     1292      433
     1293      434    1   DCL 1 SKIP(0:1),
     1294      435    1         2 S BIT(4) UNAL,
     1295      436    1         2 SK UBIN(12) UNAL;
     1296      437
     1297      438    1   DCL TALLY(0:3) SBIN INIT(169,64,2310,81) CONSTANT;
     1298      439    1   DCL DP(0:3) BIT(4)
     1299      440    1            INIT(BINBIT(1),BINBIT(4),BINBIT(8),BINBIT(2)) CONSTANT;
     1300      441    1   DCL RUNBYT SBIN ALIGNED;                /* RUNNING BYTE COUNT IN A TRACK */
     1301      442    1   DCL DPN SBIN ALIGNED;
     1302      443    1   DCL DPSEC SBIN ALIGNED;                 /* NUMBER OF DEFECT POS IN A SECTOR */
     1303      444    1   DCL SKIPLTH SBIN ALIGNED INIT(64) CONSTANT; /* DEFECT SKIP LENGTH */
     1304      445    1   DCL POS(0:3) UBIN(16) ;                 /* DEFECT POSITION IN BYTE COUNT */
     1305      446    1   DCL LTH(0:3) UBIN(8) ;                  /* DEFECT LENGTH */
     1306      447    1   DCL DEFNO SBIN ALIGNED;                 /* DEFECT # IN A TRACK */
     1307      448    1   DCL TPOS UBIN(16) ;
     1308      449    1   DCL PART SBIN ALIGNED;                  /* PARTS IN A SECTOR;
     1309      450                                                    0: G1+C0+32  1: G2
     1310      451                                                    2: DATA+EDAC 3: G3+CN */
     1311      452        /**/
     1312      453        %EJECT;
PL6.E3A0      #005=IVV$HEADER File=IVV$VOLINIT.:E05TSI                           TUE 07/29/97 23:19 Page:267
     1313      454    1           FMT$=VIP.FMT$;
     1314      455    1           VID$=VIP.VID$;
     1315      456    1           DATA$=PINCRW(VIP.ELT$,SIZEW(FMT)+82); /* ELT ENTRY STARTS  */
     1316      457    2           DO SELECT(VIP.MODEL);
     1317      458    2              SELECT('MSU0501 ','MSU0509 ');
     1318      459    2              CALL INITHDR;
     1319      460    2              CALL HDR5XX;
     1320      461    2              SELECT(ELSE);
     1321      462    2           J=FMT.SEEK.SECTOR/VIP.NSECTS;
     1322      463    2           TR.CYL=J/VIP.NHEADS;
     1323      464    2           TR.HD=MOD(J,VIP.NHEADS);
     1324      465    2           IF VIP.DISKERR THEN GOTO DEFECTIVE;
     1325      466    2           I=0;
     1326      467    3           DO WHILE (I<63 AND VID.DTT(I)~=BITBIN('777777'O));
     1327      468    4              IF TRACK=VID.DTT(I) THEN DO;
     1328      469    4   DEFECTIVE:
     1329      470    4                 FMT.SEEK.TI='11'B;        /* DEFECTIVE TRACK, NO ALTERNATE */
     1330      471    4                 GOTO DTT_FOUND;
     1331      472    4                 END;
     1332      473    3              I=I+1;
     1333      474    3              END/* WHILE I */;
     1334      475    2           FMT.SEEK.TI='00'B;              /* TRACK NOT DEFECTIVE */
     1335      476    2   DTT_FOUND:
     1336      477    2           FMT.HEADER.CYL=TR.CYL;
     1337      478    2           FMT.HEADER.HD=TR.HD;
     1338      479    2           FMT.HEADER.Z=VIP.VERIFY;
     1339      480    2           FMT.HEADER.TI=FMT.SEEK.TI;
     1340      481    2           FMT.HEADER.R0.CYL=FMT.HEADER.CYL;
     1341      482    2           FMT.HEADER.R0.HD=FMT.HEADER.HD;
     1342      483    2           CK='0'B;
     1343      484    3           DO I=0 TO 13;
     1344      485    3              CK=CK & ~FMT.CKBYTES(I) | ~CK & FMT.CKBYTES(I);
     1345      486    3              END/* DO I */;
     1346      487    2           FMT.HEADER.CHECK=CK;
     1347      488    2              END;                         /* SELECT VIP.MODEL */
     1348      489
     1349      490    1           RETURN;
PL6.E3A0      #005=IVV$HEADER File=IVV$VOLINIT.:E05TSI                           TUE 07/29/97 23:19 Page:268
     1350      491        %EJECT;
PL6.E3A0      #005=IVV$HEADER File=IVV$VOLINIT.:E05TSI                           TUE 07/29/97 23:19 Page:269
     1351      492    1   INITHDR: PROC;
     1352      493    2           FMT.SEEK.TI='00'B;
     1353      494    2           VIP.FLAG='0'B; VIP.FLAG.F512='1'B; VIP.FLAG.MTAR='1'B;
     1354      495    2           HDR5$=PINCRW(ADDR(FMT.HEADER),6); /* 451 HDR SZ IS 6 */
     1355      496    2           CF='0'B;
     1356      497    2           CF.C0.CYL.LWR=FMT.SEEK.SEC.CL;
     1357      498    2           CF.C0.CYL.UPR=FMT.SEEK.SEC.CU;
     1358      499    2           CF.C0.HD=FMT.SEEK.SEC.HD;
     1359      500    2           CF.C0.FLAG=VIP.FLAG;       /* INIT FLAG, REC, T-SKIP TO GOOD VALUE */
     1360      501    2           CF.C0.REC=128;
     1361      502    2           CF.C0.CONDFLAG='16'O;           /* RIGHT JUSTIFY TO OCTAL CODE 70 */
     1362      503    3           DO I=0 TO 2;
     1363      504    3              CF.C0.TSKP.G(I)=1;
     1364      505    3              END;
     1365      506    2           CF.C.FLAG(0)=VIP.FLAG;
     1366      507    2           CF.C.CYL.LWR(0)=FMT.SEEK.SEC.CL;
     1367      508    2           CF.C.CYL.UPR(0)=FMT.SEEK.SEC.CU;
     1368      509    2           CF.C.HD(0)=FMT.SEEK.SEC.HD;
     1369      510    2           CF.C.REC(0)=129;
     1370      511    2           CF.C.CONDFLAG(0)='16'O;
     1371      512    3           DO I=1 TO VIP.NSECTS-2;
     1372      513    3              CF.C.FLAG(I)=CF.C0.FLAG;
     1373      514    3              CF.C.CYL.LWR(I)=FMT.SEEK.SEC.CL;
     1374      515    3              CF.C.CYL.UPR(I)=FMT.SEEK.SEC.CU;
     1375      516    3              CF.C.HD(I)=FMT.SEEK.SEC.HD;
     1376      517    3              CF.C.REC(I)=CF.C.REC(I-1)+1;
     1377      518    3              CF.C.CONDFLAG(I)='16'O;
     1378      519    3              END;
     1379      520
     1380      521    2   END INITHDR;
     1381      522        %EJECT;
PL6.E3A0      #005=IVV$HEADER File=IVV$VOLINIT.:E05TSI                           TUE 07/29/97 23:19 Page:270
     1382      523    1   HDR5XX: PROC;
     1383      524
     1384      525    3           DO I=0 TO 3;
     1385      526    3              POS(I)=0; LTH(I)=0;
     1386      527    3              END;
     1387      528    2           DEFNO=0; SKIP='0'B;
     1388      529    2           TR.CYL=VIP.CTR.CYL; TR.HD=VIP.CTR.HD;
     1389      530    3           DO WHILE (LOG(VIP.LOGX)~='0'B AND VIP.LOGX<3072 );
     1390      531
     1391      532    4              DO WHILE ( TR.CYL=LOG.CYL(VIP.LOGX) AND TR.HD=LOG.HD(VIP.LOGX) );
     1392      533    5                 DO WHILE (LOG(VIP.LOGX)=LOG(VIP.LOGX+1) );
     1393      534    5                    VIP.LOGX=VIP.LOGX+1;   /* BYPASS DUPLICATE LOG ENTRY */
     1394      535    5                    END;
     1395      536    4                 POS(DEFNO)=LOG.POS(VIP.LOGX);
     1396      537    4                 LTH(DEFNO)=LOG.LTH(VIP.LOGX);
     1397      538    4                 CALL POS_VALU(POS(DEFNO),LTH(DEFNO));
     1398      539    4                 DEFNO=DEFNO+1;
     1399      540    4                 VIP.LOGX=VIP.LOGX+1;
     1400      541    4                 END;
     1401      542    3              IF ( TR.CYL>LOG.CYL(VIP.LOGX) )OR(  ( TR.CYL=LOG.CYL(VIP.LOGX) )
     1402      543    3                AND( TR.HD>LOG.HD(VIP.LOGX) ) ) THEN
     1403      544    3                 VIP.LOGX =VIP.LOGX+1;
     1404      545    3              ELSE GOTO LOGGED;
     1405      546    3              END;
     1406      547    3   LOGGED: IF DEFNO > 0 THEN DO;
     1407      548    3              IF DEFNO>3 OR LTH(DEFNO-1)=255 THEN
     1408      549    3                 CALL MARKDTT;
     1409      550    3              J=DEFNO-1; I=MOD(J,2);
     1410      551    4              DO UNTIL (J < 0);
     1411      552    5                 IF LTH(J) ~=255 THEN DO;
     1412      553    5                    IF J-1 < 0 THEN CF.C0.TSKIP(2)=POS(0);
     1413      554    5                    ELSE
     1414      555    5                       CF.C0.TSKIP(I)=POS(J)-POS(J-1);
     1415      556    5                    END;
     1416      557    4                 I=I+1;J=J-1;
     1417      558    4                 END;
     1418      559    3              RUNBYT=0; DPSEC=0; DPN=1;
PL6.E3A0      #005=IVV$HEADER File=IVV$VOLINIT.:E05TSI                           TUE 07/29/97 23:19 Page:271
     1419      560    4              DO PART=0 TO 3;
     1420      561    4                 RUNBYT=RUNBYT+TALLY(PART);
     1421      562    4                 IF POS(DPN-1) <= RUNBYT THEN CALL SKPOS;
     1422      563    4                 IF DPN > DEFNO THEN PART=3;
     1423      564    4                 END;
     1424      565    4              IF DPN > 1 THEN DO;
     1425      566    4                 CF.C0.SKP=SKIP;
     1426      567    4                 SKIP='0'B; DPSEC=0;
     1427      568    4                 END;
     1428      569    3              IF ( DPN > DEFNO ) OR ( VIP.FLAG.TI='11'B ) THEN RETURN;
     1429      570    4              DO J=2 TO VIP.NSECTS;
     1430      571    5                 DO PART=1 TO 3;
     1431      572    5                    RUNBYT=RUNBYT+TALLY(PART);
     1432      573    5                    IF POS(DPN-1) <= RUNBYT THEN CALL SKPOS;
     1433      574    5                    IF DPN > DEFNO THEN PART=3;
     1434      575    5                    END;
     1435      576    4                 CF.C.SKP(J-2)=SKIP;
     1436      577    4                 SKIP='0'B; DPSEC=0;
     1437      578
     1438      579    4                 IF DPN > DEFNO THEN J=VIP.NSECTS;
     1439      580    4                 END;
     1440      581    3              END;                         /* DEFNO ~=0 */
     1441      582    2   END HDR5XX;
     1442      583        %EJECT;
PL6.E3A0      #005=IVV$HEADER File=IVV$VOLINIT.:E05TSI                           TUE 07/29/97 23:19 Page:272
     1443      584    1   SKPOS:  PROC;
     1444      585
     1445      586    2   DCL REMN SBIN ALIGNED;
     1446      587    2   DCL 1 MPI REDEF REMN,                   /* CORRECTION FOR MPI */
     1447      588    2         2 * BIT(34) UNAL,
     1448      589    2         2 CR BIT(2) UNAL;
     1449      590
     1450      591    3           IF DPSEC < 2 THEN DO;
     1451      592    4              DO CASE(PART);
     1452      593    4               CASE (2);
     1453      594    4                 REMN=POS(DPN-1)-RUNBYT+6; /* EDAC HAS 6 BYTES IN DATA PART */
     1454      595    4                 IF REMN > 0 THEN
     1455      596    4                    SKIP.S(DPSEC)=DP(3);   /* ASSIGN DEFECT TO PART 3 */
     1456      597    5                 ELSE IF (REMN >= -2304) AND (REMN <= -2301) THEN DO;
     1457      598    5                       SKIP.S(DPSEC)=DP(1); /* ASSIGN DEFECT TO PART 1 */
     1458      599    5                       PART=2;
     1459      600    5                       RUNBYT=RUNBYT-TALLY(PART);
     1460      601    5                       END;
     1461      602    5                    ELSE DO;               /* DEFECT IN DATA PART, SPLIT DATA. */
     1462      603    5                       RUNBYT=RUNBYT+2;    /* FOR HEX 19 & SYNC BYTE */
     1463      604    5                       SKIP.S(DPSEC)=DP(2);
     1464      605    5                       MPI.CR='01'B;
     1465      606    5                       SKIP.SK(DPSEC)=REMN; /* REMAIN GOOD DATA BYTES */
     1466      607    5                       END;
     1467      608    4               CASE(ELSE);
     1468      609    4                 SKIP.S(DPSEC)=DP(PART);
     1469      610    4               END;
     1470      611    3              DPSEC=DPSEC+1;
     1471      612    3              RUNBYT=RUNBYT+SKIPLTH;
     1472      613    3              DPN=DPN+1;
     1473      614    3              END;
     1474      615    2           ELSE CALL MARKDTT;
     1475      616    2   END SKPOS;
     1476      617
     1477      618
     1478      619    1   POS_VALU: PROC(POS,LTH);
     1479      620    2   DCL POS UBIN(16);
PL6.E3A0      #005=IVV$HEADER File=IVV$VOLINIT.:E05TSI                           TUE 07/29/97 23:19 Page:273
     1480      621    2   DCL LTH UBIN(8);
     1481      622
     1482      623    2           IF LTH=255 THEN POS=0;
     1483      624    3           ELSE DO;
     1484      625    3              IF POS=0 THEN POS=32;
     1485      626    3              ELSE
     1486      627    3                 IF POS >= (19968-32) THEN
     1487      628    3                    POS = 19968-32;        /* TOTAL BYTE PER TRACK IS 19968 */
     1488      629    3              LTH=40;
     1489      630    3              END;
     1490      631    2   END POS_VALU;
     1491      632
     1492      633
     1493      634    1   MARKDTT: PROC;
     1494      635
     1495      636    2           VIP.LOGX=VIP.LOGX-5;       /* BACK OFF 5 ERROR LOG INDEX FOR RETRY */
     1496      637    2           VIP.FLAG.TI='11'B;
     1497      638    2           CF.C0.FLAG=VIP.FLAG;
     1498      639    2           CF.C0.CONDFLAG='0'B;
     1499      640    3           DO I=0 TO VIP.NSECTS-2;
     1500      641    3              CF.C.FLAG(I)='0'B;
     1501      642    3              CF.C.CONDFLAG(I)='0'B;
     1502      643    3              CF.C.REC(I)=0;
     1503      644    3              CF.C.CYL(I)='0'B;
     1504      645    3              CF.C.HD(I)=0;
     1505      646    3              END;
     1506      647    2           FMT.SEEK.TI=VIP.FLAG.TI;
     1507      648    2           VID$=VIP.VID$;
     1508      649    3           DO I=0 TO 62;
     1509      650    4              IF VID.DTT(I)=BITBIN('777777'O) THEN DO;
     1510      651    4                 VID.DTT(I)=VIP.CTRACK;
     1511      652    4                 VIP.DTTCH='1'B;
     1512      653    4                 RETURN;
     1513      654    4                 END;
     1514      655    3              END;
     1515      656    2           VIP.DTTOVF='1'B;
     1516      657    2           VIP.STOP='1'B;
PL6.E3A0      #005=IVV$HEADER File=IVV$VOLINIT.:E05TSI                           TUE 07/29/97 23:19 Page:274
     1517      658    2           RETURN;
     1518      659    2   END MARKDTT;
     1519      660
     1520      661
     1521      662    1   END IVV$HEADER;
     1522      663        %EOD;

PL6.E3A0      #005=IVV$HEADER File=IVV$VOLINIT.:E05TSI                           TUE 07/29/97 23:19 Page:275
--  Include file information  --

   IV$MACROS.:E05TOU  is referenced.
   FM$GRAN.:E05TOU  is referenced.
      No diagnostics issued in procedure IVV$HEADER.

   Procedure IVV$HEADER requires 797 words for executable code.
   Procedure IVV$HEADER requires 42 words of local(AUTO) storage.

PL6.E3A0      #005=IVV$HEADER File=IVV$VOLINIT.:E05TSI                           TUE 07/29/97 23:19 Page:276

 Object Unit name= IVV$HEADER                                 File name= IVV$VOLINIT.:E05TOU
 UTS= JUL 29 '97 23:19:21.04 TUE                              Compiler= PL-6/E31         Sev=      00
 SharedLib= :SHARED_SYSTEM                                    Alt SharedLib=


    ****  Control sections  ****

 Sect   Type Bound  Init  Size OctSiz  Section name(segment info)
    0  RoData even  UTS     10     12  IVV$HEADER
    1   Proc  even  none   797   1435  IVV$HEADER
    2  RoData even  none    14     16  IVV$HEADER

    ****  Entry defs  ****

                              Check   Calling
                             calling  sequence
  Sect OctLoc Primary Altret sequence   type   Parms  Name
     1      0   yes            yes      Std        1  IVV$HEADER

  ****  Entry refs  ****

         Check        Calling
        calling       sequence
Altret sequence SRef   type   Args  Name
                       nStd      0 X66_AUTO_1
                       Std       0 B_CONSPOOL_D
                       nStd      0 X66_ARET

  ****  Data refs  ****

  Flags:  r = read only, s = secondary
Flgs Name                             Flgs Name                             Flgs Name
     B_VECTNIL
PL6.E3A0      #005=IVV$HEADER File=IVV$VOLINIT.:E05TSI                           TUE 07/29/97 23:19 Page:277


     1247        1        /*T***********************************************************/
     1248        2        /*T*                                                         */
     1249        3        /*T* Copyright (c) Bull HN Information Systems Inc., 1997    */
     1250        4        /*T*                                                         */
     1251        5        /*T***********************************************************/
     1252        6        /* SET UP TRACK FORMAT HEADER */
     1253        7        /**/
     1254        8        IVV$HEADER: PROC (VIP);

      8  1 000000   000000 700200 xent  IVV$HEADER   TSX0  ! X66_AUTO_1
         1 000001   000052 000001                    ZERO    42,1

     1255        9        /**/
     1256       10        /* INCLUDE FILES */
     1257       11        /**/
     1258       12        %INCLUDE FM$GRAN;
     1259       81        %INCLUDE IV$MACROS;
     1260      251        /**/
     1261      252        /* PARAMETERS */
     1262      253        /**/
     1263      254        %IV$VIP(NAME=VIP,STCLASS="");
     1264      318        /**/
     1265      319        /* DATA STRUCTURES */
     1266      320        /**/
     1267      321        %IV$FMT(NAME=FMT,STCLASS="BASED(FMT$)");
     1268      377        %FM$VID(FM$VID=VID,BASED="BASED(VID$)");
     1269      383        /**/
     1270      384        /* AUTO STACK */
     1271      385        /**/
     1272      386    1   DCL CK BIT(6);
     1273      387    1   DCL FMT$ PTR;
     1274      388    1   DCL I SBIN;
     1275      389    1   DCL J SBIN;
     1276      390    1   DCL TRACK SBIN;
     1277      391    1   DCL 1 TR REDEF TRACK,
     1278      392    1         2 * BIT(18),
PL6.E3A0      #005=IVV$HEADER File=IVV$VOLINIT.:E05TSI                           TUE 07/29/97 23:19 Page:278
     1279      393    1         2 CYL UBIN(10) UNAL,              /* CYLINDER NUMBER */
     1280      394    1         2 HD UBIN(8) UNAL;                /* HEAD NUMBER */
     1281      395    1   DCL VID$ PTR;
     1282      396    1   DCL HDR5$ PTR;
     1283      397    1   DCL DATA$ PTR;
     1284      398        %IV$HDR(NAME=CF,STCLASS="BASED(HDR5$)");
     1285      426
     1286      427    1   DCL 1 LOG(0:3071) BASED(DATA$) UNAL,
     1287      428    1         2 * BIT(6) UNAL,
     1288      429    1         2 CYL UBIN(10) UNAL,
     1289      430    1         2 HD UBIN(8) UNAL,
     1290      431    1         2 POS UBIN(16) UNAL,
     1291      432    1         2 LTH UBIN(8) UNAL;
     1292      433
     1293      434    1   DCL 1 SKIP(0:1),
     1294      435    1         2 S BIT(4) UNAL,
     1295      436    1         2 SK UBIN(12) UNAL;
     1296      437
     1297      438    1   DCL TALLY(0:3) SBIN INIT(169,64,2310,81) CONSTANT;
     1298      439    1   DCL DP(0:3) BIT(4)
     1299      440    1            INIT(BINBIT(1),BINBIT(4),BINBIT(8),BINBIT(2)) CONSTANT;
     1300      441    1   DCL RUNBYT SBIN ALIGNED;                /* RUNNING BYTE COUNT IN A TRACK */
     1301      442    1   DCL DPN SBIN ALIGNED;
     1302      443    1   DCL DPSEC SBIN ALIGNED;                 /* NUMBER OF DEFECT POS IN A SECTOR */
     1303      444    1   DCL SKIPLTH SBIN ALIGNED INIT(64) CONSTANT; /* DEFECT SKIP LENGTH */
     1304      445    1   DCL POS(0:3) UBIN(16) ;                 /* DEFECT POSITION IN BYTE COUNT */
     1305      446    1   DCL LTH(0:3) UBIN(8) ;                  /* DEFECT LENGTH */
     1306      447    1   DCL DEFNO SBIN ALIGNED;                 /* DEFECT # IN A TRACK */
     1307      448    1   DCL TPOS UBIN(16) ;
     1308      449    1   DCL PART SBIN ALIGNED;                  /* PARTS IN A SECTOR;
     1309      450                                                    0: G1+C0+32  1: G2
     1310      451                                                    2: DATA+EDAC 3: G3+CN */
     1311      452        /**/
     1312      453        %EJECT;
PL6.E3A0      #005=IVV$HEADER File=IVV$VOLINIT.:E05TSI                           TUE 07/29/97 23:19 Page:279
     1313      454    1           FMT$=VIP.FMT$;

    454  1 000002   200003 470500                    LDP0    @VIP,,AUTO
         1 000003   000013 236100                    LDQ     11,,PR0
         1 000004   200005 756100                    STQ     FMT$,,AUTO

     1314      455    1           VID$=VIP.VID$;

    455  1 000005   000012 236100                    LDQ     10,,PR0
         1 000006   200011 756100                    STQ     VID$,,AUTO

     1315      456    1           DATA$=PINCRW(VIP.ELT$,SIZEW(FMT)+82); /* ELT ENTRY STARTS  */

    456  1 000007   000003 236100                    LDQ     3,,PR0
         1 000010   000151 036003                    ADLQ    105,DU
         1 000011   200013 756100                    STQ     DATA$,,AUTO

     1316      457    2           DO SELECT(VIP.MODEL);

    457  1 000012   040000 106500                    CMPC    fill='040'O
         1 000013   000007 000010                    ADSC9   7,,PR0                   cn=0,n=8
         1 000014   000006 000010 0                  ADSC9   SKIPLTH+1                cn=0,n=8
         1 000015   000031 602000 1                  TNC     s:462
         1 000016   000024 600000 1                  TZE     s:459
         1 000017   040000 106500                    CMPC    fill='040'O
         1 000020   000007 000010                    ADSC9   7,,PR0                   cn=0,n=8
         1 000021   000010 000010 0                  ADSC9   SKIPLTH+3                cn=0,n=8
         1 000022   000031 601000 1                  TNZ     s:462
         1 000023   000024 710000 1                  TRA     s:459

     1317      458    2              SELECT('MSU0501 ','MSU0509 ');

     1318      459    2              CALL INITHDR;

    459  1 000024   000222 701000 1                  TSX1    INITHDR
         1 000025   000000 011000                    NOP     0

PL6.E3A0      #005=IVV$HEADER File=IVV$VOLINIT.:E05TSI                           TUE 07/29/97 23:19 Page:280
     1319      460    2              CALL HDR5XX;

    460  1 000026   000426 701000 1                  TSX1    HDR5XX
         1 000027   000000 011000                    NOP     0
         1 000030   000221 710000 1                  TRA     s:490

     1320      461    2              SELECT(ELSE);

     1321      462    2           J=FMT.SEEK.SECTOR/VIP.NSECTS;

    462  1 000031   000014 236100                    LDQ     12,,PR0
         1 000032   000033 772000                    QRL     27
         1 000033   200042 756100                    STQ     @LTH+2,,AUTO
         1 000034   200005 471500                    LDP1    FMT$,,AUTO
         1 000035   100007 236100                    LDQ     7,,PR1
         1 000036   000000 376000 2                  ANQ     0
         1 000037   200042 506100                    DIV     @LTH+2,,AUTO
         1 000040   200007 756100                    STQ     J,,AUTO

     1322      463    2           TR.CYL=J/VIP.NHEADS;

    463  1 000041   000014 236100                    LDQ     12,,PR0
         1 000042   000022 772000                    QRL     18
         1 000043   000777 376007                    ANQ     511,DL
         1 000044   200042 756100                    STQ     @LTH+2,,AUTO
         1 000045   200007 236100                    LDQ     J,,AUTO
         1 000046   200042 506100                    DIV     @LTH+2,,AUTO
         1 000047   000010 736000                    QLS     8
         1 000050   200010 676100                    ERQ     TRACK,,AUTO
         1 000051   777400 376007                    ANQ     -256,DL
         1 000052   200010 656100                    ERSQ    TRACK,,AUTO

     1323      464    2           TR.HD=MOD(J,VIP.NHEADS);

    464  1 000053   000014 236100                    LDQ     12,,PR0
         1 000054   000022 772000                    QRL     18
         1 000055   000777 376007                    ANQ     511,DL
PL6.E3A0      #005=IVV$HEADER File=IVV$VOLINIT.:E05TSI                           TUE 07/29/97 23:19 Page:281
         1 000056   200042 756100                    STQ     @LTH+2,,AUTO
         1 000057   200007 236100                    LDQ     J,,AUTO
         1 000060   200042 506100                    DIV     @LTH+2,,AUTO
         1 000061   000044 733000                    LRS     36
         1 000062   200010 676100                    ERQ     TRACK,,AUTO
         1 000063   000377 376007                    ANQ     255,DL
         1 000064   200010 656100                    ERSQ    TRACK,,AUTO

     1324      465    2           IF VIP.DISKERR THEN GOTO DEFECTIVE;

    465  1 000065   000017 236100                    LDQ     15,,PR0
         1 000066   001000 316007                    CANQ    512,DL
         1 000067   000100 601000 1                  TNZ     DEFECTIVE

     1325      466    2           I=0;

    466  1 000070   200006 450100                    STZ     I,,AUTO

     1326      467    3           DO WHILE (I<63 AND VID.DTT(I)~=BITBIN('777777'O));

    467  1 000071   000105 710000 1                  TRA     s:474

     1327      468    4              IF TRACK=VID.DTT(I) THEN DO;

    468  1 000072   200011 470500                    LDP0    VID$,,AUTO
         1 000073   200006 720100                    LXL0    I,,AUTO
         1 000074   000400 236110                    LDQ     256,X0,PR0
         1 000075   000022 772000                    QRL     18
         1 000076   200010 116100                    CMPQ    TRACK,,AUTO
         1 000077   000104 601000 1                  TNZ     s:473

     1328      469    4   DEFECTIVE:
     1329      470    4                 FMT.SEEK.TI='11'B;        /* DEFECTIVE TRACK, NO ALTERNATE */

    470  1 000100   200005 470500       DEFECTIVE    LDP0    FMT$,,AUTO
         1 000101   000060 236003                    LDQ     48,DU
         1 000102   000007 256100                    ORSQ    7,,PR0
PL6.E3A0      #005=IVV$HEADER File=IVV$VOLINIT.:E05TSI                           TUE 07/29/97 23:19 Page:282

     1330      471    4                 GOTO DTT_FOUND;

    471  1 000103   000117 710000 1                  TRA     DTT_FOUND

     1331      472    4                 END;
     1332      473    3              I=I+1;

    473  1 000104   200006 054100                    AOS     I,,AUTO

     1333      474    3              END/* WHILE I */;

    474  1 000105   200006 235100                    LDA     I,,AUTO
         1 000106   000077 115007                    CMPA    63,DL
         1 000107   000114 605000 1                  TPL     s:475
         1 000110   200011 470500                    LDP0    VID$,,AUTO
         1 000111   000400 220105                    LDX0    256,AL,PR0
         1 000112   777777 100003                    CMPX0   -1,DU
         1 000113   000072 601000 1                  TNZ     s:468

     1334      475    2           FMT.SEEK.TI='00'B;              /* TRACK NOT DEFECTIVE */

    475  1 000114   200005 470500                    LDP0    FMT$,,AUTO
         1 000115   000001 236000 2                  LDQ     1
         1 000116   000007 356100                    ANSQ    7,,PR0

     1335      476    2   DTT_FOUND:
     1336      477    2           FMT.HEADER.CYL=TR.CYL;

    477  1 000117   200010 236100       DTT_FOUND    LDQ     TRACK,,AUTO
         1 000120   777400 376007                    ANQ     -256,DL
         1 000121   000014 736000                    QLS     12
         1 000122   000021 676100                    ERQ     17,,PR0
         1 000123   777774 376003                    ANQ     -4,DU
         1 000124   000021 656100                    ERSQ    17,,PR0

     1337      478    2           FMT.HEADER.HD=TR.HD;
PL6.E3A0      #005=IVV$HEADER File=IVV$VOLINIT.:E05TSI                           TUE 07/29/97 23:19 Page:283

    478  1 000125   200010 236100                    LDQ     TRACK,,AUTO
         1 000126   000377 376007                    ANQ     255,DL
         1 000127   000004 736000                    QLS     4
         1 000130   000021 676100                    ERQ     17,,PR0
         1 000131   000002 376000 2                  ANQ     2
         1 000132   000021 656100                    ERSQ    17,,PR0

     1338      479    2           FMT.HEADER.Z=VIP.VERIFY;

    479  1 000133   200003 471500                    LDP1    @VIP,,AUTO
         1 000134   100017 236100                    LDQ     15,,PR1
         1 000135   000016 772000                    QRL     14
         1 000136   000021 676100                    ERQ     17,,PR0
         1 000137   000004 376007                    ANQ     4,DL
         1 000140   000021 656100                    ERSQ    17,,PR0

     1339      480    2           FMT.HEADER.TI=FMT.SEEK.TI;

    480  1 000141   000007 236100                    LDQ     7,,PR0
         1 000142   000026 772000                    QRL     22
         1 000143   000021 676100                    ERQ     17,,PR0
         1 000144   000003 376007                    ANQ     3,DL
         1 000145   000021 656100                    ERSQ    17,,PR0

     1340      481    2           FMT.HEADER.R0.CYL=FMT.HEADER.CYL;

    481  1 000146   000021 236100                    LDQ     17,,PR0
         1 000147   000014 772000                    QRL     12
         1 000150   000022 676100                    ERQ     18,,PR0
         1 000151   000003 376000 2                  ANQ     3
         1 000152   000022 656100                    ERSQ    18,,PR0

     1341      482    2           FMT.HEADER.R0.HD=FMT.HEADER.HD;

    482  1 000153   003100 060500                    CSL     bolr='003'O
         1 000154   000021 270020                    BDSC    17,,PR0                  by=1,bit=7,n=16
PL6.E3A0      #005=IVV$HEADER File=IVV$VOLINIT.:E05TSI                           TUE 07/29/97 23:19 Page:284
         1 000155   000022 610020                    BDSC    18,,PR0                  by=3,bit=1,n=16

     1342      483    2           CK='0'B;

    483  1 000156   200004 450100                    STZ     CK,,AUTO

     1343      484    3           DO I=0 TO 13;

    484  1 000157   200006 450100                    STZ     I,,AUTO

     1344      485    3              CK=CK & ~FMT.CKBYTES(I) | ~CK & FMT.CKBYTES(I);

    485  1 000160   200006 235100                    LDA     I,,AUTO
         1 000161   000163 605000 1                  TPL     s:485+3
         1 000162   000006 035003                    ADLA    6,DU
         1 000163   200005 470500                    LDP0    FMT$,,AUTO
         1 000164   000100 100505                    MLR     fill='000'O
         1 000165   000021 020001                    ADSC6   17,A,PR0                 cn=0,n=1
         1 000166   200042 020006                    ADSC6   @LTH+2,,AUTO             cn=0,n=6
         1 000167   200042 236100                    LDQ     @LTH+2,,AUTO
         1 000170   770000 676003                    ERQ     -4096,DU
         1 000171   200043 756100                    STQ     @LTH+3,,AUTO
         1 000172   200004 236100                    LDQ     CK,,AUTO
         1 000173   770000 376003                    ANQ     -4096,DU
         1 000174   200043 376100                    ANQ     @LTH+3,,AUTO
         1 000175   200044 756100                    STQ     @LTH+4,,AUTO
         1 000176   200004 236100                    LDQ     CK,,AUTO
         1 000177   770000 376003                    ANQ     -4096,DU
         1 000200   770000 676003                    ERQ     -4096,DU
         1 000201   200006 235100                    LDA     I,,AUTO
         1 000202   000204 605000 1                  TPL     s:485+20
         1 000203   000006 035003                    ADLA    6,DU
         1 000204   000100 100505                    MLR     fill='000'O
         1 000205   000021 020001                    ADSC6   17,A,PR0                 cn=0,n=1
         1 000206   200045 020006                    ADSC6   @LTH+5,,AUTO             cn=0,n=6
         1 000207   200045 376100                    ANQ     @LTH+5,,AUTO
         1 000210   200044 276100                    ORQ     @LTH+4,,AUTO
PL6.E3A0      #005=IVV$HEADER File=IVV$VOLINIT.:E05TSI                           TUE 07/29/97 23:19 Page:285
         1 000211   200004 756100                    STQ     CK,,AUTO

     1345      486    3              END/* DO I */;

    486  1 000212   200006 054100                    AOS     I,,AUTO
         1 000213   200006 235100                    LDA     I,,AUTO
         1 000214   000015 115007                    CMPA    13,DL
         1 000215   000160 604400 1                  TMOZ    s:485

     1346      487    2           FMT.HEADER.CHECK=CK;

    487  1 000216   200004 236100                    LDQ     CK,,AUTO
         1 000217   000022 772000                    QRL     18
         1 000220   000023 752104                    STCQ    19,'04'O,PR0

     1347      488    2              END;                         /* SELECT VIP.MODEL */

     1348      489
     1349      490    1           RETURN;

    490  1 000221   000000 702200 xent               TSX2  ! X66_ARET

     1350      491        %EJECT;
PL6.E3A0      #005=IVV$HEADER File=IVV$VOLINIT.:E05TSI                           TUE 07/29/97 23:19 Page:286
     1351      492    1   INITHDR: PROC;

    492  1 000222   200034 741300       INITHDR      STX1  ! PART+2,,AUTO

     1352      493    2           FMT.SEEK.TI='00'B;

    493  1 000223   200005 470500                    LDP0    FMT$,,AUTO
         1 000224   000001 236000 2                  LDQ     1
         1 000225   000007 356100                    ANSQ    7,,PR0

     1353      494    2           VIP.FLAG='0'B; VIP.FLAG.F512='1'B; VIP.FLAG.MTAR='1'B;

    494  1 000226   200003 471500                    LDP1    @VIP,,AUTO
         1 000227   000004 236000 2                  LDQ     4
         1 000230   100020 356100                    ANSQ    16,,PR1

    494  1 000231   400000 236007                    LDQ     -131072,DL
         1 000232   100020 256100                    ORSQ    16,,PR1

    494  1 000233   200000 236007                    LDQ     65536,DL
         1 000234   100020 256100                    ORSQ    16,,PR1

     1354      495    2           HDR5$=PINCRW(ADDR(FMT.HEADER),6); /* 451 HDR SZ IS 6 */

    495  1 000235   200005 236100                    LDQ     FMT$,,AUTO
         1 000236   000027 036003                    ADLQ    23,DU
         1 000237   200012 756100                    STQ     HDR5$,,AUTO

     1355      496    2           CF='0'B;

    496  1 000240   200012 473500                    LDP3    HDR5$,,AUTO
         1 000241   000100 100400                    MLR     fill='000'O
         1 000242   000002 000001 xsym               ADSC9   B_VECTNIL+2              cn=0,n=1
         1 000243   300000 000510                    ADSC9   0,,PR3                   cn=0,n=328

     1356      497    2           CF.C0.CYL.LWR=FMT.SEEK.SEC.CL;

PL6.E3A0      #005=IVV$HEADER File=IVV$VOLINIT.:E05TSI                           TUE 07/29/97 23:19 Page:287
    497  1 000244   000007 236100                    LDQ     7,,PR0
         1 000245   000014 736000                    QLS     12
         1 000246   300000 676100                    ERQ     0,,PR3
         1 000247   001774 376003                    ANQ     1020,DU
         1 000250   300000 656100                    ERSQ    0,,PR3

     1357      498    2           CF.C0.CYL.UPR=FMT.SEEK.SEC.CU;

    498  1 000251   000007 236100                    LDQ     7,,PR0
         1 000252   000014 736000                    QLS     12
         1 000253   300000 676100                    ERQ     0,,PR3
         1 000254   000003 376003                    ANQ     3,DU
         1 000255   300000 656100                    ERSQ    0,,PR3

     1358      499    2           CF.C0.HD=FMT.SEEK.SEC.HD;

    499  1 000256   000007 236100                    LDQ     7,,PR0
         1 000257   000014 736000                    QLS     12
         1 000260   300000 752104                    STCQ    0,'04'O,PR3

     1359      500    2           CF.C0.FLAG=VIP.FLAG;       /* INIT FLAG, REC, T-SKIP TO GOOD VALUE */

    500  1 000261   100020 236100                    LDQ     16,,PR1
         1 000262   000022 736000                    QLS     18
         1 000263   300000 676100                    ERQ     0,,PR3
         1 000264   776000 376003                    ANQ     -1024,DU
         1 000265   300000 656100                    ERSQ    0,,PR3

     1360      501    2           CF.C0.REC=128;

    501  1 000266   300000 236100                    LDQ     0,,PR3
         1 000267   000005 376000 2                  ANQ     5
         1 000270   004000 276007                    ORQ     2048,DL
         1 000271   300000 756100                    STQ     0,,PR3

     1361      502    2           CF.C0.CONDFLAG='16'O;           /* RIGHT JUSTIFY TO OCTAL CODE 70 */

PL6.E3A0      #005=IVV$HEADER File=IVV$VOLINIT.:E05TSI                           TUE 07/29/97 23:19 Page:288
    502  1 000272   300003 236100                    LDQ     3,,PR3
         1 000273   000006 376000 2                  ANQ     6
         1 000274   000070 276007                    ORQ     56,DL
         1 000275   300003 756100                    STQ     3,,PR3

     1362      503    3           DO I=0 TO 2;

    503  1 000276   200006 450100                    STZ     I,,AUTO

     1363      504    3              CF.C0.TSKP.G(I)=1;

    504  1 000277   200006 235100                    LDA     I,,AUTO
         1 000300   000004 735000                    ALS     4
         1 000301   000303 605000 1                  TPL     s:504+4
         1 000302   000044 035003                    ADLA    36,DU
         1 000303   200012 470500                    LDP0    HDR5$,,AUTO
         1 000304   003105 061400                    CSR     bolr='003'O
         1 000305   000003 000044 xsym               BDSC    B_VECTNIL+3              by=0,bit=0,n=36
         1 000306   000002 100001                    BDSC    2,A,PR0                  by=0,bit=8,n=1

     1364      505    3              END;

    505  1 000307   200006 054100                    AOS     I,,AUTO
         1 000310   200006 235100                    LDA     I,,AUTO
         1 000311   000002 115007                    CMPA    2,DL
         1 000312   000277 604400 1                  TMOZ    s:504

     1365      506    2           CF.C.FLAG(0)=VIP.FLAG;

    506  1 000313   200003 471500                    LDP1    @VIP,,AUTO
         1 000314   100020 236100                    LDQ     16,,PR1
         1 000315   000022 736000                    QLS     18
         1 000316   000004 676100                    ERQ     4,,PR0
         1 000317   776000 376003                    ANQ     -1024,DU
         1 000320   000004 656100                    ERSQ    4,,PR0

     1366      507    2           CF.C.CYL.LWR(0)=FMT.SEEK.SEC.CL;
PL6.E3A0      #005=IVV$HEADER File=IVV$VOLINIT.:E05TSI                           TUE 07/29/97 23:19 Page:289

    507  1 000321   200005 473500                    LDP3    FMT$,,AUTO
         1 000322   300007 236100                    LDQ     7,,PR3
         1 000323   000014 736000                    QLS     12
         1 000324   000004 676100                    ERQ     4,,PR0
         1 000325   001774 376003                    ANQ     1020,DU
         1 000326   000004 656100                    ERSQ    4,,PR0

     1367      508    2           CF.C.CYL.UPR(0)=FMT.SEEK.SEC.CU;

    508  1 000327   300007 236100                    LDQ     7,,PR3
         1 000330   000014 736000                    QLS     12
         1 000331   000004 676100                    ERQ     4,,PR0
         1 000332   000003 376003                    ANQ     3,DU
         1 000333   000004 656100                    ERSQ    4,,PR0

     1368      509    2           CF.C.HD(0)=FMT.SEEK.SEC.HD;

    509  1 000334   300007 236100                    LDQ     7,,PR3
         1 000335   000014 736000                    QLS     12
         1 000336   000004 752104                    STCQ    4,'04'O,PR0

     1369      510    2           CF.C.REC(0)=129;

    510  1 000337   000004 236100                    LDQ     4,,PR0
         1 000340   000005 376000 2                  ANQ     5
         1 000341   004020 276007                    ORQ     2064,DL
         1 000342   000004 756100                    STQ     4,,PR0

     1370      511    2           CF.C.CONDFLAG(0)='16'O;

    511  1 000343   000005 236100                    LDQ     5,,PR0
         1 000344   000006 376000 2                  ANQ     6
         1 000345   000070 276007                    ORQ     56,DL
         1 000346   000005 756100                    STQ     5,,PR0

     1371      512    3           DO I=1 TO VIP.NSECTS-2;
PL6.E3A0      #005=IVV$HEADER File=IVV$VOLINIT.:E05TSI                           TUE 07/29/97 23:19 Page:290

    512  1 000347   000001 235007                    LDA     1,DL
         1 000350   200006 755100                    STA     I,,AUTO
         1 000351   000416 710000 1                  TRA     s:519+1

     1372      513    3              CF.C.FLAG(I)=CF.C0.FLAG;

    513  1 000352   200006 235100                    LDA     I,,AUTO
         1 000353   000001 735000                    ALS     1
         1 000354   200012 470500                    LDP0    HDR5$,,AUTO
         1 000355   000000 236100                    LDQ     0,,PR0
         1 000356   000004 676105                    ERQ     4,AL,PR0
         1 000357   776000 376003                    ANQ     -1024,DU
         1 000360   000004 656105                    ERSQ    4,AL,PR0

     1373      514    3              CF.C.CYL.LWR(I)=FMT.SEEK.SEC.CL;

    514  1 000361   200005 471500                    LDP1    FMT$,,AUTO
         1 000362   100007 236100                    LDQ     7,,PR1
         1 000363   000014 736000                    QLS     12
         1 000364   000004 676105                    ERQ     4,AL,PR0
         1 000365   001774 376003                    ANQ     1020,DU
         1 000366   000004 656105                    ERSQ    4,AL,PR0

     1374      515    3              CF.C.CYL.UPR(I)=FMT.SEEK.SEC.CU;

    515  1 000367   100007 236100                    LDQ     7,,PR1
         1 000370   000014 736000                    QLS     12
         1 000371   000004 676105                    ERQ     4,AL,PR0
         1 000372   000003 376003                    ANQ     3,DU
         1 000373   000004 656105                    ERSQ    4,AL,PR0

     1375      516    3              CF.C.HD(I)=FMT.SEEK.SEC.HD;

    516  1 000374   100007 236100                    LDQ     7,,PR1
         1 000375   000014 736000                    QLS     12
         1 000376   000004 676105                    ERQ     4,AL,PR0
PL6.E3A0      #005=IVV$HEADER File=IVV$VOLINIT.:E05TSI                           TUE 07/29/97 23:19 Page:291
         1 000377   770000 376007                    ANQ     -4096,DL
         1 000400   000004 656105                    ERSQ    4,AL,PR0

     1376      517    3              CF.C.REC(I)=CF.C.REC(I-1)+1;

    517  1 000401   000002 236105                    LDQ     2,AL,PR0
         1 000402   000004 772000                    QRL     4
         1 000403   000377 376007                    ANQ     255,DL
         1 000404   000001 036007                    ADLQ    1,DL
         1 000405   000004 736000                    QLS     4
         1 000406   000004 676105                    ERQ     4,AL,PR0
         1 000407   007760 376007                    ANQ     4080,DL
         1 000410   000004 656105                    ERSQ    4,AL,PR0

     1377      518    3              CF.C.CONDFLAG(I)='16'O;

    518  1 000411   000005 236105                    LDQ     5,AL,PR0
         1 000412   000006 376000 2                  ANQ     6
         1 000413   000070 276007                    ORQ     56,DL
         1 000414   000005 756105                    STQ     5,AL,PR0

     1378      519    3              END;

    519  1 000415   200006 054100                    AOS     I,,AUTO
         1 000416   200003 471500                    LDP1    @VIP,,AUTO
         1 000417   100014 236100                    LDQ     12,,PR1
         1 000420   000033 772000                    QRL     27
         1 000421   000002 136007                    SBLQ    2,DL
         1 000422   200006 116100                    CMPQ    I,,AUTO
         1 000423   000352 605000 1                  TPL     s:513

     1379      520
     1380      521    2   END INITHDR;

    521  1 000424   200034 221300                    LDX1  ! PART+2,,AUTO
         1 000425   000001 702211                    TSX2  ! 1,X1

PL6.E3A0      #005=IVV$HEADER File=IVV$VOLINIT.:E05TSI                           TUE 07/29/97 23:19 Page:292
     1381      522        %EJECT;
PL6.E3A0      #005=IVV$HEADER File=IVV$VOLINIT.:E05TSI                           TUE 07/29/97 23:19 Page:293
     1382      523    1   HDR5XX: PROC;

    523  1 000426   200034 741300       HDR5XX       STX1  ! PART+2,,AUTO

     1383      524
     1384      525    3           DO I=0 TO 3;

    525  1 000427   200006 450100                    STZ     I,,AUTO

     1385      526    3              POS(I)=0; LTH(I)=0;

    526  1 000430   200006 720100                    LXL0    I,,AUTO
         1 000431   200020 450110                    STZ     POS,X0,AUTO

    526  1 000432   200024 450110                    STZ     LTH,X0,AUTO

     1386      527    3              END;

    527  1 000433   200006 054100                    AOS     I,,AUTO
         1 000434   200006 235100                    LDA     I,,AUTO
         1 000435   000003 115007                    CMPA    3,DL
         1 000436   000430 604400 1                  TMOZ    s:526

     1387      528    2           DEFNO=0; SKIP='0'B;

    528  1 000437   200030 450100                    STZ     DEFNO,,AUTO

    528  1 000440   000017 236007                    LDQ     15,DL
         1 000441   200014 356100                    ANSQ    SKIP,,AUTO

     1388      529    2           TR.CYL=VIP.CTR.CYL; TR.HD=VIP.CTR.HD;

    529  1 000442   200003 470500                    LDP0    @VIP,,AUTO
         1 000443   000016 236100                    LDQ     14,,PR0
         1 000444   000022 772000                    QRL     18
         1 000445   200010 676100                    ERQ     TRACK,,AUTO
         1 000446   777400 376007                    ANQ     -256,DL
PL6.E3A0      #005=IVV$HEADER File=IVV$VOLINIT.:E05TSI                           TUE 07/29/97 23:19 Page:294
         1 000447   200010 656100                    ERSQ    TRACK,,AUTO

    529  1 000450   000016 236100                    LDQ     14,,PR0
         1 000451   000022 772000                    QRL     18
         1 000452   200010 676100                    ERQ     TRACK,,AUTO
         1 000453   000377 376007                    ANQ     255,DL
         1 000454   200010 656100                    ERSQ    TRACK,,AUTO

     1389      530    3           DO WHILE (LOG(VIP.LOGX)~='0'B AND VIP.LOGX<3072 );

    530  1 000455   000713 710000 1                  TRA     s:546

     1390      531
     1391      532    4              DO WHILE ( TR.CYL=LOG.CYL(VIP.LOGX) AND TR.HD=LOG.HD(VIP.LOGX) );

    532  1 000456   000602 710000 1                  TRA     s:541

     1392      533    5                 DO WHILE (LOG(VIP.LOGX)=LOG(VIP.LOGX+1) );

    533  1 000457   200003 470500                    LDP0    @VIP,,AUTO
         1 000460   000004 235100                    LDA     4,,PR0
         1 000461   000003 735000                    ALS     3
         1 000462   200042 755100                    STA     @LTH+2,,AUTO
         1 000463   000044 733000                    LRS     36
         1 000464   000006 402007                    MPY     6,DL
         1 000465   000000 116003                    CMPQ    0,DU
         1 000466   000470 605000 1                  TPL     s:533+9
         1 000467   000044 036003                    ADLQ    36,DU
         1 000470   200043 756100                    STQ     @LTH+3,,AUTO
         1 000471   200042 236100                    LDQ     @LTH+2,,AUTO
         1 000472   000006 402007                    MPY     6,DL
         1 000473   000000 116003                    CMPQ    0,DU
         1 000474   000476 605000 1                  TPL     s:533+15
         1 000475   000044 036003                    ADLQ    36,DU
         1 000476   200013 471500                    LDP1    DATA$,,AUTO
         1 000477   200043 235100                    LDA     @LTH+3,,AUTO
         1 000500   000106 066505                    CMPB    filb='0'B
PL6.E3A0      #005=IVV$HEADER File=IVV$VOLINIT.:E05TSI                           TUE 07/29/97 23:19 Page:295
         1 000501   100000 000060                    BDSC    0,A,PR1                  by=0,bit=0,n=48
         1 000502   100001 230060                    BDSC    1,Q,PR1                  by=1,bit=3,n=48
         1 000503   000532 601000 1                  TNZ     s:536

     1393      534    5                    VIP.LOGX=VIP.LOGX+1;   /* BYPASS DUPLICATE LOG ENTRY */

    534  1 000504   200003 470500                    LDP0    @VIP,,AUTO
         1 000505   000004 054100                    AOS     4,,PR0

     1394      535    5                    END;

    535  1 000506   000004 235100                    LDA     4,,PR0
         1 000507   000003 735000                    ALS     3
         1 000510   200042 755100                    STA     @LTH+2,,AUTO
         1 000511   000044 733000                    LRS     36
         1 000512   000006 402007                    MPY     6,DL
         1 000513   000000 116003                    CMPQ    0,DU
         1 000514   000516 605000 1                  TPL     s:535+8
         1 000515   000044 036003                    ADLQ    36,DU
         1 000516   200043 756100                    STQ     @LTH+3,,AUTO
         1 000517   200042 236100                    LDQ     @LTH+2,,AUTO
         1 000520   000006 402007                    MPY     6,DL
         1 000521   000000 116003                    CMPQ    0,DU
         1 000522   000524 605000 1                  TPL     s:535+14
         1 000523   000044 036003                    ADLQ    36,DU
         1 000524   200013 471500                    LDP1    DATA$,,AUTO
         1 000525   200043 235100                    LDA     @LTH+3,,AUTO
         1 000526   000106 066505                    CMPB    filb='0'B
         1 000527   100000 000060                    BDSC    0,A,PR1                  by=0,bit=0,n=48
         1 000530   100001 230060                    BDSC    1,Q,PR1                  by=1,bit=3,n=48
         1 000531   000504 600000 1                  TZE     s:534

     1395      536    4                 POS(DEFNO)=LOG.POS(VIP.LOGX);

    536  1 000532   000004 236100                    LDQ     4,,PR0
         1 000533   000060 402007                    MPY     48,DL
         1 000534   000000 116003                    CMPQ    0,DU
PL6.E3A0      #005=IVV$HEADER File=IVV$VOLINIT.:E05TSI                           TUE 07/29/97 23:19 Page:296
         1 000535   000537 605000 1                  TPL     s:536+5
         1 000536   000044 036003                    ADLQ    36,DU
         1 000537   200042 756100                    STQ     @LTH+2,,AUTO
         1 000540   200030 236100                    LDQ     DEFNO,,AUTO
         1 000541   000044 402007                    MPY     36,DL
         1 000542   000000 116003                    CMPQ    0,DU
         1 000543   000545 605000 1                  TPL     s:536+11
         1 000544   000044 036003                    ADLQ    36,DU
         1 000545   200042 235100                    LDA     @LTH+2,,AUTO
         1 000546   003106 060505                    CSL     bolr='003'O
         1 000547   100000 460020                    BDSC    0,A,PR1                  by=2,bit=6,n=16
         1 000550   200020 000020                    BDSC    POS,Q,AUTO               by=0,bit=0,n=16

     1396      537    4                 LTH(DEFNO)=LOG.LTH(VIP.LOGX);

    537  1 000551   000004 236100                    LDQ     4,,PR0
         1 000552   000060 402007                    MPY     48,DL
         1 000553   000000 116003                    CMPQ    0,DU
         1 000554   000556 605000 1                  TPL     s:537+5
         1 000555   000044 036003                    ADLQ    36,DU
         1 000556   200042 756100                    STQ     @LTH+2,,AUTO
         1 000557   200030 236100                    LDQ     DEFNO,,AUTO
         1 000560   000044 402007                    MPY     36,DL
         1 000561   000000 116003                    CMPQ    0,DU
         1 000562   000564 605000 1                  TPL     s:537+11
         1 000563   000044 036003                    ADLQ    36,DU
         1 000564   200042 235100                    LDA     @LTH+2,,AUTO
         1 000565   003106 060505                    CSL     bolr='003'O
         1 000566   100001 040010                    BDSC    1,A,PR1                  by=0,bit=4,n=8
         1 000567   200024 000010                    BDSC    LTH,Q,AUTO               by=0,bit=0,n=8

     1397      538    4                 CALL POS_VALU(POS(DEFNO),LTH(DEFNO));

    538  1 000570   200030 720100                    LXL0    DEFNO,,AUTO
         1 000571   200024 633510                    EPPR3   LTH,X0,AUTO
         1 000572   200040 453500                    STP3    @POS+1,,AUTO
         1 000573   200020 634510                    EPPR4   POS,X0,AUTO
PL6.E3A0      #005=IVV$HEADER File=IVV$VOLINIT.:E05TSI                           TUE 07/29/97 23:19 Page:297
         1 000574   200037 454500                    STP4    PART+5,,AUTO
         1 000575   001277 701000 1                  TSX1    POS_VALU
         1 000576   000000 011000                    NOP     0

     1398      539    4                 DEFNO=DEFNO+1;

    539  1 000577   200030 054100                    AOS     DEFNO,,AUTO

     1399      540    4                 VIP.LOGX=VIP.LOGX+1;

    540  1 000600   200003 470500                    LDP0    @VIP,,AUTO
         1 000601   000004 054100                    AOS     4,,PR0

     1400      541    4                 END;

    541  1 000602   200003 470500                    LDP0    @VIP,,AUTO
         1 000603   000004 236100                    LDQ     4,,PR0
         1 000604   000060 402007                    MPY     48,DL
         1 000605   000000 116003                    CMPQ    0,DU
         1 000606   000610 605000 1                  TPL     s:541+6
         1 000607   000044 036003                    ADLQ    36,DU
         1 000610   200013 471500                    LDP1    DATA$,,AUTO
         1 000611   003100 061506                    CSR     bolr='003'O
         1 000612   100000 060012                    BDSC    0,Q,PR1                  by=0,bit=6,n=10
         1 000613   200042 000044                    BDSC    @LTH+2,,AUTO             by=0,bit=0,n=36
         1 000614   200010 236100                    LDQ     TRACK,,AUTO
         1 000615   000010 772000                    QRL     8
         1 000616   001777 376007                    ANQ     1023,DL
         1 000617   200042 116100                    CMPQ    @LTH+2,,AUTO
         1 000620   000635 601000 1                  TNZ     s:542
         1 000621   000004 236100                    LDQ     4,,PR0
         1 000622   000060 402007                    MPY     48,DL
         1 000623   000000 116003                    CMPQ    0,DU
         1 000624   000626 605000 1                  TPL     s:541+20
         1 000625   000044 036003                    ADLQ    36,DU
         1 000626   003100 061506                    CSR     bolr='003'O
         1 000627   100000 270010                    BDSC    0,Q,PR1                  by=1,bit=7,n=8
PL6.E3A0      #005=IVV$HEADER File=IVV$VOLINIT.:E05TSI                           TUE 07/29/97 23:19 Page:298
         1 000630   200043 000044                    BDSC    @LTH+3,,AUTO             by=0,bit=0,n=36
         1 000631   200010 236100                    LDQ     TRACK,,AUTO
         1 000632   000377 376007                    ANQ     255,DL
         1 000633   200043 116100                    CMPQ    @LTH+3,,AUTO
         1 000634   000457 600000 1                  TZE     s:533

     1401      542    3              IF ( TR.CYL>LOG.CYL(VIP.LOGX) )OR(  ( TR.CYL=LOG.CYL(VIP.LOGX) )

    542  1 000635   000004 236100                    LDQ     4,,PR0
         1 000636   000060 402007                    MPY     48,DL
         1 000637   200042 756100                    STQ     @LTH+2,,AUTO
         1 000640   200010 236100                    LDQ     TRACK,,AUTO
         1 000641   000010 772000                    QRL     8
         1 000642   001777 376007                    ANQ     1023,DL
         1 000643   200043 756100                    STQ     @LTH+3,,AUTO
         1 000644   200042 235100                    LDA     @LTH+2,,AUTO
         1 000645   000647 605000 1                  TPL     s:542+10
         1 000646   000044 035003                    ADLA    36,DU
         1 000647   003100 061505                    CSR     bolr='003'O
         1 000650   100000 060012                    BDSC    0,A,PR1                  by=0,bit=6,n=10
         1 000651   200044 000044                    BDSC    @LTH+4,,AUTO             by=0,bit=0,n=36
         1 000652   200044 236100                    LDQ     @LTH+4,,AUTO
         1 000653   200043 116100                    CMPQ    @LTH+3,,AUTO
         1 000654   000711 604000 1                  TMI     s:544
         1 000655   000004 236100                    LDQ     4,,PR0
         1 000656   000060 402007                    MPY     48,DL
         1 000657   000000 116003                    CMPQ    0,DU
         1 000660   000662 605000 1                  TPL     s:542+21
         1 000661   000044 036003                    ADLQ    36,DU
         1 000662   003100 061506                    CSR     bolr='003'O
         1 000663   100000 060012                    BDSC    0,Q,PR1                  by=0,bit=6,n=10
         1 000664   200045 000044                    BDSC    @LTH+5,,AUTO             by=0,bit=0,n=36
         1 000665   200010 236100                    LDQ     TRACK,,AUTO
         1 000666   000010 772000                    QRL     8
         1 000667   001777 376007                    ANQ     1023,DL
         1 000670   200045 116100                    CMPQ    @LTH+5,,AUTO
         1 000671   000732 601000 1                  TNZ     LOGGED
PL6.E3A0      #005=IVV$HEADER File=IVV$VOLINIT.:E05TSI                           TUE 07/29/97 23:19 Page:299
         1 000672   000004 236100                    LDQ     4,,PR0
         1 000673   000060 402007                    MPY     48,DL
         1 000674   200046 756100                    STQ     @LTH+6,,AUTO
         1 000675   200010 236100                    LDQ     TRACK,,AUTO
         1 000676   000377 376007                    ANQ     255,DL
         1 000677   200047 756100                    STQ     @LTH+7,,AUTO
         1 000700   200046 235100                    LDA     @LTH+6,,AUTO
         1 000701   000703 605000 1                  TPL     s:542+38
         1 000702   000044 035003                    ADLA    36,DU
         1 000703   003100 061505                    CSR     bolr='003'O
         1 000704   100000 270010                    BDSC    0,A,PR1                  by=1,bit=7,n=8
         1 000705   200050 000044                    BDSC    @LTH+8,,AUTO             by=0,bit=0,n=36
         1 000706   200050 236100                    LDQ     @LTH+8,,AUTO
         1 000707   200047 116100                    CMPQ    @LTH+7,,AUTO
         1 000710   000732 605000 1                  TPL     LOGGED

     1402      543    3                AND( TR.HD>LOG.HD(VIP.LOGX) ) ) THEN
     1403      544    3                 VIP.LOGX =VIP.LOGX+1;

    544  1 000711   000004 054100                    AOS     4,,PR0
         1 000712   000713 710000 1                  TRA     s:546

     1404      545    3              ELSE GOTO LOGGED;
     1405      546    3              END;

    546  1 000713   000004 235100                    LDA     4,,PR0
         1 000714   000003 735000                    ALS     3
         1 000715   000044 733000                    LRS     36
         1 000716   000006 402007                    MPY     6,DL
         1 000717   000000 116003                    CMPQ    0,DU
         1 000720   000722 605000 1                  TPL     s:546+7
         1 000721   000044 036003                    ADLQ    36,DU
         1 000722   200013 471500                    LDP1    DATA$,,AUTO
         1 000723   000000 066506                    CMPB    filb='0'B
         1 000724   100000 000060                    BDSC    0,Q,PR1                  by=0,bit=0,n=48
         1 000725   000002 000022 xsym               BDSC    B_VECTNIL+2              by=0,bit=0,n=18
         1 000726   000732 600000 1                  TZE     LOGGED
PL6.E3A0      #005=IVV$HEADER File=IVV$VOLINIT.:E05TSI                           TUE 07/29/97 23:19 Page:300
         1 000727   000004 235100                    LDA     4,,PR0
         1 000730   006000 115007                    CMPA    3072,DL
         1 000731   000456 604000 1                  TMI     s:532

     1406      547    3   LOGGED: IF DEFNO > 0 THEN DO;

    547  1 000732   200030 235100       LOGGED       LDA     DEFNO,,AUTO
         1 000733   001153 604400 1                  TMOZ    s:582

     1407      548    3              IF DEFNO>3 OR LTH(DEFNO-1)=255 THEN

    548  1 000734   000003 115007                    CMPA    3,DL
         1 000735   000742 605400 1                  TPNZ    s:549
         1 000736   200023 236105                    LDQ     POS+3,AL,AUTO
         1 000737   776000 376003                    ANQ     -1024,DU
         1 000740   776000 116003                    CMPQ    -1024,DU
         1 000741   000744 601000 1                  TNZ     s:550

     1408      549    3                 CALL MARKDTT;

    549  1 000742   001331 701000 1                  TSX1    MARKDTT
         1 000743   000000 011000                    NOP     0

     1409      550    3              J=DEFNO-1; I=MOD(J,2);

    550  1 000744   200030 235100                    LDA     DEFNO,,AUTO
         1 000745   000001 135007                    SBLA    1,DL
         1 000746   200007 755100                    STA     J,,AUTO

    550  1 000747   200007 236100                    LDQ     J,,AUTO
         1 000750   000002 506007                    DIV     2,DL
         1 000751   200006 755100                    STA     I,,AUTO

     1410      551    4              DO UNTIL (J < 0);

     1411      552    5                 IF LTH(J) ~=255 THEN DO;

PL6.E3A0      #005=IVV$HEADER File=IVV$VOLINIT.:E05TSI                           TUE 07/29/97 23:19 Page:301
    552  1 000752   200007 720100                    LXL0    J,,AUTO
         1 000753   200024 236110                    LDQ     LTH,X0,AUTO
         1 000754   776000 376003                    ANQ     -1024,DU
         1 000755   776000 116003                    CMPQ    -1024,DU
         1 000756   001007 600000 1                  TZE     s:557

     1412      553    5                    IF J-1 < 0 THEN CF.C0.TSKIP(2)=POS(0);

    553  1 000757   200007 235100                    LDA     J,,AUTO
         1 000760   000770 605400 1                  TPNZ    s:555

    553  1 000761   200012 470500                    LDP0    HDR5$,,AUTO
         1 000762   200020 236100                    LDQ     POS,,AUTO
         1 000763   000004 772000                    QRL     4
         1 000764   000003 676100                    ERQ     3,,PR0
         1 000765   000007 376000 2                  ANQ     7
         1 000766   000003 656100                    ERSQ    3,,PR0
         1 000767   001007 710000 1                  TRA     s:557

     1413      554    5                    ELSE
     1414      555    5                       CF.C0.TSKIP(I)=POS(J)-POS(J-1);

    555  1 000770   200017 236110                    LDQ     DPSEC,X0,AUTO
         1 000771   000024 772000                    QRL     20
         1 000772   200042 756100                    STQ     @LTH+2,,AUTO
         1 000773   200020 236110                    LDQ     POS,X0,AUTO
         1 000774   000024 772000                    QRL     20
         1 000775   200042 136100                    SBLQ    @LTH+2,,AUTO
         1 000776   200043 756100                    STQ     @LTH+3,,AUTO
         1 000777   200006 235100                    LDA     I,,AUTO
         1 001000   000004 735000                    ALS     4
         1 001001   001003 605000 1                  TPL     s:555+11
         1 001002   000044 035003                    ADLA    36,DU
         1 001003   200012 470500                    LDP0    HDR5$,,AUTO
         1 001004   003105 061500                    CSR     bolr='003'O
         1 001005   200043 000044                    BDSC    @LTH+3,,AUTO             by=0,bit=0,n=36
         1 001006   000002 100020                    BDSC    2,A,PR0                  by=0,bit=8,n=16
PL6.E3A0      #005=IVV$HEADER File=IVV$VOLINIT.:E05TSI                           TUE 07/29/97 23:19 Page:302

     1415      556    5                    END;

     1416      557    4                 I=I+1;J=J-1;

    557  1 001007   200006 054100                    AOS     I,,AUTO

    557  1 001010   000001 336007                    LCQ     1,DL
         1 001011   200007 056100                    ASQ     J,,AUTO

     1417      558    4                 END;

    558  1 001012   000752 605000 1                  TPL     s:552

     1418      559    3              RUNBYT=0; DPSEC=0; DPN=1;

    559  1 001013   200015 450100                    STZ     RUNBYT,,AUTO

    559  1 001014   200017 450100                    STZ     DPSEC,,AUTO

    559  1 001015   000001 235007                    LDA     1,DL
         1 001016   200016 755100                    STA     DPN,,AUTO

     1419      560    4              DO PART=0 TO 3;

    560  1 001017   200032 450100                    STZ     PART,,AUTO

     1420      561    4                 RUNBYT=RUNBYT+TALLY(PART);

    561  1 001020   200032 720100                    LXL0    PART,,AUTO
         1 001021   200015 236100                    LDQ     RUNBYT,,AUTO
         1 001022   000000 036010 0                  ADLQ    TALLY,X0
         1 001023   200015 756100                    STQ     RUNBYT,,AUTO

     1421      562    4                 IF POS(DPN-1) <= RUNBYT THEN CALL SKPOS;

    562  1 001024   200016 721100                    LXL1    DPN,,AUTO
PL6.E3A0      #005=IVV$HEADER File=IVV$VOLINIT.:E05TSI                           TUE 07/29/97 23:19 Page:303
         1 001025   200017 236111                    LDQ     DPSEC,X1,AUTO
         1 001026   000024 772000                    QRL     20
         1 001027   200015 116100                    CMPQ    RUNBYT,,AUTO
         1 001030   001033 605400 1                  TPNZ    s:563

    562  1 001031   001155 701000 1                  TSX1    SKPOS
         1 001032   000000 011000                    NOP     0

     1422      563    4                 IF DPN > DEFNO THEN PART=3;

    563  1 001033   200016 236100                    LDQ     DPN,,AUTO
         1 001034   200030 116100                    CMPQ    DEFNO,,AUTO
         1 001035   001040 604400 1                  TMOZ    s:564

    563  1 001036   000003 235007                    LDA     3,DL
         1 001037   200032 755100                    STA     PART,,AUTO

     1423      564    4                 END;

    564  1 001040   200032 054100                    AOS     PART,,AUTO
         1 001041   200032 235100                    LDA     PART,,AUTO
         1 001042   000003 115007                    CMPA    3,DL
         1 001043   001020 604400 1                  TMOZ    s:561

     1424      565    4              IF DPN > 1 THEN DO;

    565  1 001044   000001 116007                    CMPQ    1,DL
         1 001045   001055 604400 1                  TMOZ    s:569

     1425      566    4                 CF.C0.SKP=SKIP;

    566  1 001046   200012 470500                    LDP0    HDR5$,,AUTO
         1 001047   003100 060500                    CSL     bolr='003'O
         1 001050   200014 000040                    BDSC    SKIP,,AUTO               by=0,bit=0,n=32
         1 001051   000000 650040                    BDSC    0,,PR0                   by=3,bit=5,n=32

     1426      567    4                 SKIP='0'B; DPSEC=0;
PL6.E3A0      #005=IVV$HEADER File=IVV$VOLINIT.:E05TSI                           TUE 07/29/97 23:19 Page:304

    567  1 001052   000017 236007                    LDQ     15,DL
         1 001053   200014 356100                    ANSQ    SKIP,,AUTO

    567  1 001054   200017 450100                    STZ     DPSEC,,AUTO

     1427      568    4                 END;

     1428      569    3              IF ( DPN > DEFNO ) OR ( VIP.FLAG.TI='11'B ) THEN RETURN;

    569  1 001055   200016 236100                    LDQ     DPN,,AUTO
         1 001056   200030 116100                    CMPQ    DEFNO,,AUTO
         1 001057   001065 605400 1                  TPNZ    s:569+8
         1 001060   200003 470500                    LDP0    @VIP,,AUTO
         1 001061   000020 236100                    LDQ     16,,PR0
         1 001062   006000 376007                    ANQ     3072,DL
         1 001063   006000 116007                    CMPQ    3072,DL
         1 001064   001067 601000 1                  TNZ     s:570

    569  1 001065   200034 221300                    LDX1  ! PART+2,,AUTO
         1 001066   000001 702211                    TSX2  ! 1,X1

     1429      570    4              DO J=2 TO VIP.NSECTS;

    570  1 001067   000002 236007                    LDQ     2,DL
         1 001070   200007 756100                    STQ     J,,AUTO
         1 001071   001146 710000 1                  TRA     s:580+1

     1430      571    5                 DO PART=1 TO 3;

    571  1 001072   000001 235007                    LDA     1,DL
         1 001073   200032 755100                    STA     PART,,AUTO

     1431      572    5                    RUNBYT=RUNBYT+TALLY(PART);

    572  1 001074   200032 720100                    LXL0    PART,,AUTO
         1 001075   200015 236100                    LDQ     RUNBYT,,AUTO
PL6.E3A0      #005=IVV$HEADER File=IVV$VOLINIT.:E05TSI                           TUE 07/29/97 23:19 Page:305
         1 001076   000000 036010 0                  ADLQ    TALLY,X0
         1 001077   200015 756100                    STQ     RUNBYT,,AUTO

     1432      573    5                    IF POS(DPN-1) <= RUNBYT THEN CALL SKPOS;

    573  1 001100   200016 721100                    LXL1    DPN,,AUTO
         1 001101   200017 236111                    LDQ     DPSEC,X1,AUTO
         1 001102   000024 772000                    QRL     20
         1 001103   200015 116100                    CMPQ    RUNBYT,,AUTO
         1 001104   001107 605400 1                  TPNZ    s:574

    573  1 001105   001155 701000 1                  TSX1    SKPOS
         1 001106   000000 011000                    NOP     0

     1433      574    5                    IF DPN > DEFNO THEN PART=3;

    574  1 001107   200016 236100                    LDQ     DPN,,AUTO
         1 001110   200030 116100                    CMPQ    DEFNO,,AUTO
         1 001111   001114 604400 1                  TMOZ    s:575

    574  1 001112   000003 235007                    LDA     3,DL
         1 001113   200032 755100                    STA     PART,,AUTO

     1434      575    5                    END;

    575  1 001114   200032 054100                    AOS     PART,,AUTO
         1 001115   200032 235100                    LDA     PART,,AUTO
         1 001116   000003 115007                    CMPA    3,DL
         1 001117   001074 604400 1                  TMOZ    s:572

     1435      576    4                 CF.C.SKP(J-2)=SKIP;

    576  1 001120   200007 235100                    LDA     J,,AUTO
         1 001121   000001 735000                    ALS     1
         1 001122   000044 733000                    LRS     36
         1 001123   000044 402007                    MPY     36,DL
         1 001124   000000 116003                    CMPQ    0,DU
PL6.E3A0      #005=IVV$HEADER File=IVV$VOLINIT.:E05TSI                           TUE 07/29/97 23:19 Page:306
         1 001125   001127 605000 1                  TPL     s:576+7
         1 001126   000044 036003                    ADLQ    36,DU
         1 001127   200012 470500                    LDP0    HDR5$,,AUTO
         1 001130   003106 060500                    CSL     bolr='003'O
         1 001131   200014 000040                    BDSC    SKIP,,AUTO               by=0,bit=0,n=32
         1 001132   000000 650040                    BDSC    0,Q,PR0                  by=3,bit=5,n=32

     1436      577    4                 SKIP='0'B; DPSEC=0;

    577  1 001133   000017 236007                    LDQ     15,DL
         1 001134   200014 356100                    ANSQ    SKIP,,AUTO

    577  1 001135   200017 450100                    STZ     DPSEC,,AUTO

     1437      578
     1438      579    4                 IF DPN > DEFNO THEN J=VIP.NSECTS;

    579  1 001136   200016 236100                    LDQ     DPN,,AUTO
         1 001137   200030 116100                    CMPQ    DEFNO,,AUTO
         1 001140   001145 604400 1                  TMOZ    s:580

    579  1 001141   200003 471500                    LDP1    @VIP,,AUTO
         1 001142   100014 236100                    LDQ     12,,PR1
         1 001143   000033 772000                    QRL     27
         1 001144   200007 756100                    STQ     J,,AUTO

     1439      580    4                 END;

    580  1 001145   200007 054100                    AOS     J,,AUTO
         1 001146   200003 470500                    LDP0    @VIP,,AUTO
         1 001147   000014 236100                    LDQ     12,,PR0
         1 001150   000033 772000                    QRL     27
         1 001151   200007 116100                    CMPQ    J,,AUTO
         1 001152   001072 605000 1                  TPL     s:571

     1440      581    3              END;                         /* DEFNO ~=0 */

PL6.E3A0      #005=IVV$HEADER File=IVV$VOLINIT.:E05TSI                           TUE 07/29/97 23:19 Page:307
     1441      582    2   END HDR5XX;

    582  1 001153   200034 221300                    LDX1  ! PART+2,,AUTO
         1 001154   000001 702211                    TSX2  ! 1,X1

     1442      583        %EJECT;
PL6.E3A0      #005=IVV$HEADER File=IVV$VOLINIT.:E05TSI                           TUE 07/29/97 23:19 Page:308
     1443      584    1   SKPOS:  PROC;

    584  1 001155   200036 741300       SKPOS        STX1  ! PART+4,,AUTO

     1444      585
     1445      586    2   DCL REMN SBIN ALIGNED;
     1446      587    2   DCL 1 MPI REDEF REMN,                   /* CORRECTION FOR MPI */
     1447      588    2         2 * BIT(34) UNAL,
     1448      589    2         2 CR BIT(2) UNAL;
     1449      590
     1450      591    3           IF DPSEC < 2 THEN DO;

    591  1 001156   200017 235100                    LDA     DPSEC,,AUTO
         1 001157   000002 115007                    CMPA    2,DL
         1 001160   001273 605000 1                  TPL     s:615

     1451      592    4              DO CASE(PART);

    592  1 001161   200032 236100                    LDQ     PART,,AUTO
         1 001162   000003 116007                    CMPQ    3,DL
         1 001163   001165 602006 1                  TNC     s:592+4,QL
         1 001164   001252 710000 1                  TRA     s:609
         1 001165   001252 710000 1                  TRA     s:609
         1 001166   001252 710000 1                  TRA     s:609
         1 001167   001170 710000 1                  TRA     s:594

     1452      593    4               CASE (2);

     1453      594    4                 REMN=POS(DPN-1)-RUNBYT+6; /* EDAC HAS 6 BYTES IN DATA PART */

    594  1 001170   200016 720100                    LXL0    DPN,,AUTO
         1 001171   200017 236110                    LDQ     DPSEC,X0,AUTO
         1 001172   000024 772000                    QRL     20
         1 001173   200015 136100                    SBLQ    RUNBYT,,AUTO
         1 001174   000006 036007                    ADLQ    6,DL
         1 001175   200037 756100                    STQ     REMN,,AUTO

PL6.E3A0      #005=IVV$HEADER File=IVV$VOLINIT.:E05TSI                           TUE 07/29/97 23:19 Page:309
     1454      595    4                 IF REMN > 0 THEN

    595  1 001176   001206 604400 1                  TMOZ    s:597

     1455      596    4                    SKIP.S(DPSEC)=DP(3);   /* ASSIGN DEFECT TO PART 3 */

    596  1 001177   000004 735000                    ALS     4
         1 001200   001202 605000 1                  TPL     s:596+3
         1 001201   000044 035003                    ADLA    36,DU
         1 001202   003105 060400                    CSL     bolr='003'O
         1 001203   000004 230004 0                  BDSC    DP                       by=1,bit=3,n=4
         1 001204   200014 000004                    BDSC    SKIP,A,AUTO              by=0,bit=0,n=4
         1 001205   001265 710000 1                  TRA     s:611

     1456      597    5                 ELSE IF (REMN >= -2304) AND (REMN <= -2301) THEN DO;

    597  1 001206   000010 116000 2                  CMPQ    8
         1 001207   001226 604000 1                  TMI     s:603
         1 001210   000011 116000 2                  CMPQ    9
         1 001211   001226 605400 1                  TPNZ    s:603

     1457      598    5                       SKIP.S(DPSEC)=DP(1); /* ASSIGN DEFECT TO PART 1 */

    598  1 001212   000004 735000                    ALS     4
         1 001213   001215 605000 1                  TPL     s:598+3
         1 001214   000044 035003                    ADLA    36,DU
         1 001215   003105 060400                    CSL     bolr='003'O
         1 001216   000004 040004 0                  BDSC    DP                       by=0,bit=4,n=4
         1 001217   200014 000004                    BDSC    SKIP,A,AUTO              by=0,bit=0,n=4

     1458      599    5                       PART=2;

    599  1 001220   000002 235007                    LDA     2,DL
         1 001221   200032 755100                    STA     PART,,AUTO

     1459      600    5                       RUNBYT=RUNBYT-TALLY(PART);

PL6.E3A0      #005=IVV$HEADER File=IVV$VOLINIT.:E05TSI                           TUE 07/29/97 23:19 Page:310
    600  1 001222   200015 236100                    LDQ     RUNBYT,,AUTO
         1 001223   000000 136005 0                  SBLQ    TALLY,AL
         1 001224   200015 756100                    STQ     RUNBYT,,AUTO

     1460      601    5                       END;

    601  1 001225   001265 710000 1                  TRA     s:611

     1461      602    5                    ELSE DO;               /* DEFECT IN DATA PART, SPLIT DATA. */

     1462      603    5                       RUNBYT=RUNBYT+2;    /* FOR HEX 19 & SYNC BYTE */

    603  1 001226   000002 236007                    LDQ     2,DL
         1 001227   200015 056100                    ASQ     RUNBYT,,AUTO

     1463      604    5                       SKIP.S(DPSEC)=DP(2);

    604  1 001230   000004 735000                    ALS     4
         1 001231   001233 605000 1                  TPL     s:604+3
         1 001232   000044 035003                    ADLA    36,DU
         1 001233   003105 060400                    CSL     bolr='003'O
         1 001234   000004 100004 0                  BDSC    DP                       by=0,bit=8,n=4
         1 001235   200014 000004                    BDSC    SKIP,A,AUTO              by=0,bit=0,n=4

     1464      605    5                       MPI.CR='01'B;

    605  1 001236   200037 236100                    LDQ     REMN,,AUTO
         1 001237   000012 376000 2                  ANQ     10
         1 001240   000001 276007                    ORQ     1,DL
         1 001241   200037 756100                    STQ     REMN,,AUTO

     1465      606    5                       SKIP.SK(DPSEC)=REMN; /* REMAIN GOOD DATA BYTES */

    606  1 001242   200017 235100                    LDA     DPSEC,,AUTO
         1 001243   000004 735000                    ALS     4
         1 001244   001246 605000 1                  TPL     s:606+4
         1 001245   000044 035003                    ADLA    36,DU
PL6.E3A0      #005=IVV$HEADER File=IVV$VOLINIT.:E05TSI                           TUE 07/29/97 23:19 Page:311
         1 001246   003105 061500                    CSR     bolr='003'O
         1 001247   200037 000044                    BDSC    REMN,,AUTO               by=0,bit=0,n=36
         1 001250   200014 040014                    BDSC    SKIP,A,AUTO              by=0,bit=4,n=12

     1466      607    5                       END;

    607  1 001251   001265 710000 1                  TRA     s:611

     1467      608    4               CASE(ELSE);

     1468      609    4                 SKIP.S(DPSEC)=DP(PART);

    609  1 001252   200032 235100                    LDA     PART,,AUTO
         1 001253   000002 735000                    ALS     2
         1 001254   001256 605000 1                  TPL     s:609+4
         1 001255   000044 035003                    ADLA    36,DU
         1 001256   200017 236100                    LDQ     DPSEC,,AUTO
         1 001257   000004 736000                    QLS     4
         1 001260   001262 605000 1                  TPL     s:609+8
         1 001261   000044 036003                    ADLQ    36,DU
         1 001262   003106 060405                    CSL     bolr='003'O
         1 001263   000004 000004 0                  BDSC    DP,A                     by=0,bit=0,n=4
         1 001264   200014 000004                    BDSC    SKIP,Q,AUTO              by=0,bit=0,n=4

     1469      610    4               END;

     1470      611    3              DPSEC=DPSEC+1;

    611  1 001265   200017 054100                    AOS     DPSEC,,AUTO

     1471      612    3              RUNBYT=RUNBYT+SKIPLTH;

    612  1 001266   200015 236100                    LDQ     RUNBYT,,AUTO
         1 001267   000005 036000 0                  ADLQ    SKIPLTH
         1 001270   200015 756100                    STQ     RUNBYT,,AUTO

     1472      613    3              DPN=DPN+1;
PL6.E3A0      #005=IVV$HEADER File=IVV$VOLINIT.:E05TSI                           TUE 07/29/97 23:19 Page:312

    613  1 001271   200016 054100                    AOS     DPN,,AUTO

     1473      614    3              END;

    614  1 001272   001275 710000 1                  TRA     s:616

     1474      615    2           ELSE CALL MARKDTT;

    615  1 001273   001331 701000 1                  TSX1    MARKDTT
         1 001274   000000 011000                    NOP     0

     1475      616    2   END SKPOS;

    616  1 001275   200036 221300                    LDX1  ! PART+4,,AUTO
         1 001276   000001 702211                    TSX2  ! 1,X1

     1476      617
     1477      618
     1478      619    1   POS_VALU: PROC(POS,LTH);

    619  1 001277   200036 741300       POS_VALU     STX1  ! PART+4,,AUTO

     1479      620    2   DCL POS UBIN(16);
     1480      621    2   DCL LTH UBIN(8);
     1481      622
     1482      623    2           IF LTH=255 THEN POS=0;

    623  1 001300   200040 470500                    LDP0    @LTH,,AUTO
         1 001301   000000 236100                    LDQ     0,,PR0
         1 001302   776000 376003                    ANQ     -1024,DU
         1 001303   776000 116003                    CMPQ    -1024,DU
         1 001304   001310 601000 1                  TNZ     s:625

    623  1 001305   200037 471500                    LDP1    @POS,,AUTO
         1 001306   100000 450100                    STZ     0,,PR1
         1 001307   001327 710000 1                  TRA     s:631
PL6.E3A0      #005=IVV$HEADER File=IVV$VOLINIT.:E05TSI                           TUE 07/29/97 23:19 Page:313

     1483      624    3           ELSE DO;

     1484      625    3              IF POS=0 THEN POS=32;

    625  1 001310   200037 471500                    LDP1    @POS,,AUTO
         1 001311   100000 236100                    LDQ     0,,PR1
         1 001312   777774 316003                    CANQ    -4,DU
         1 001313   001317 601000 1                  TNZ     s:627

    625  1 001314   000200 236003                    LDQ     128,DU
         1 001315   100000 756100                    STQ     0,,PR1
         1 001316   001325 710000 1                  TRA     s:629

     1485      626    3              ELSE
     1486      627    3                 IF POS >= (19968-32) THEN

    627  1 001317   100000 236100                    LDQ     0,,PR1
         1 001320   777774 376003                    ANQ     -4,DU
         1 001321   233600 116003                    CMPQ    79744,DU
         1 001322   001325 602000 1                  TNC     s:629

     1487      628    3                    POS = 19968-32;        /* TOTAL BYTE PER TRACK IS 19968 */

    628  1 001323   233600 236003                    LDQ     79744,DU
         1 001324   100000 756100                    STQ     0,,PR1

     1488      629    3              LTH=40;

    629  1 001325   120000 236003                    LDQ     40960,DU
         1 001326   000000 756100                    STQ     0,,PR0

     1489      630    3              END;

     1490      631    2   END POS_VALU;

    631  1 001327   200036 221300                    LDX1  ! PART+4,,AUTO
PL6.E3A0      #005=IVV$HEADER File=IVV$VOLINIT.:E05TSI                           TUE 07/29/97 23:19 Page:314
         1 001330   000001 702211                    TSX2  ! 1,X1

     1491      632
     1492      633
     1493      634    1   MARKDTT: PROC;

    634  1 001331   200040 741300       MARKDTT      STX1  ! @LTH,,AUTO

     1494      635
     1495      636    2           VIP.LOGX=VIP.LOGX-5;       /* BACK OFF 5 ERROR LOG INDEX FOR RETRY */

    636  1 001332   200003 470500                    LDP0    @VIP,,AUTO
         1 001333   000005 336007                    LCQ     5,DL
         1 001334   000004 056100                    ASQ     4,,PR0

     1496      637    2           VIP.FLAG.TI='11'B;

    637  1 001335   006000 236007                    LDQ     3072,DL
         1 001336   000020 256100                    ORSQ    16,,PR0

     1497      638    2           CF.C0.FLAG=VIP.FLAG;

    638  1 001337   200012 471500                    LDP1    HDR5$,,AUTO
         1 001340   000020 236100                    LDQ     16,,PR0
         1 001341   000022 736000                    QLS     18
         1 001342   100000 676100                    ERQ     0,,PR1
         1 001343   776000 376003                    ANQ     -1024,DU
         1 001344   100000 656100                    ERSQ    0,,PR1

     1498      639    2           CF.C0.CONDFLAG='0'B;

    639  1 001345   000006 236000 2                  LDQ     6
         1 001346   100003 356100                    ANSQ    3,,PR1

     1499      640    3           DO I=0 TO VIP.NSECTS-2;

    640  1 001347   200006 450100                    STZ     I,,AUTO
PL6.E3A0      #005=IVV$HEADER File=IVV$VOLINIT.:E05TSI                           TUE 07/29/97 23:19 Page:315
         1 001350   001367 710000 1                  TRA     s:646+1

     1500      641    3              CF.C.FLAG(I)='0'B;

    641  1 001351   200006 235100                    LDA     I,,AUTO
         1 001352   000001 735000                    ALS     1
         1 001353   200012 470500                    LDP0    HDR5$,,AUTO
         1 001354   000013 236000 2                  LDQ     11
         1 001355   000004 356105                    ANSQ    4,AL,PR0

     1501      642    3              CF.C.CONDFLAG(I)='0'B;

    642  1 001356   000006 236000 2                  LDQ     6
         1 001357   000005 356105                    ANSQ    5,AL,PR0

     1502      643    3              CF.C.REC(I)=0;

    643  1 001360   000005 236000 2                  LDQ     5
         1 001361   000004 356105                    ANSQ    4,AL,PR0

     1503      644    3              CF.C.CYL(I)='0'B;

    644  1 001362   000014 236000 2                  LDQ     12
         1 001363   000004 356105                    ANSQ    4,AL,PR0

     1504      645    3              CF.C.HD(I)=0;

    645  1 001364   000015 236000 2                  LDQ     13
         1 001365   000004 356105                    ANSQ    4,AL,PR0

     1505      646    3              END;

    646  1 001366   200006 054100                    AOS     I,,AUTO
         1 001367   200003 470500                    LDP0    @VIP,,AUTO
         1 001370   000014 236100                    LDQ     12,,PR0
         1 001371   000033 772000                    QRL     27
         1 001372   000002 136007                    SBLQ    2,DL
PL6.E3A0      #005=IVV$HEADER File=IVV$VOLINIT.:E05TSI                           TUE 07/29/97 23:19 Page:316
         1 001373   200006 116100                    CMPQ    I,,AUTO
         1 001374   001351 605000 1                  TPL     s:641

     1506      647    2           FMT.SEEK.TI=VIP.FLAG.TI;

    647  1 001375   200005 471500                    LDP1    FMT$,,AUTO
         1 001376   000020 236100                    LDQ     16,,PR0
         1 001377   000014 736000                    QLS     12
         1 001400   100007 676100                    ERQ     7,,PR1
         1 001401   000060 376003                    ANQ     48,DU
         1 001402   100007 656100                    ERSQ    7,,PR1

     1507      648    2           VID$=VIP.VID$;

    648  1 001403   000012 236100                    LDQ     10,,PR0
         1 001404   200011 756100                    STQ     VID$,,AUTO

     1508      649    3           DO I=0 TO 62;

    649  1 001405   200006 450100                    STZ     I,,AUTO

     1509      650    4              IF VID.DTT(I)=BITBIN('777777'O) THEN DO;

    650  1 001406   200011 470500                    LDP0    VID$,,AUTO
         1 001407   200006 720100                    LXL0    I,,AUTO
         1 001410   000400 221110                    LDX1    256,X0,PR0
         1 001411   777777 101003                    CMPX1   -1,DU
         1 001412   001422 601000 1                  TNZ     s:655

     1510      651    4                 VID.DTT(I)=VIP.CTRACK;

    651  1 001413   200003 471500                    LDP1    @VIP,,AUTO
         1 001414   100016 222100                    LDX2    14,,PR1
         1 001415   000400 742110                    STX2    256,X0,PR0

     1511      652    4                 VIP.DTTCH='1'B;

PL6.E3A0      #005=IVV$HEADER File=IVV$VOLINIT.:E05TSI                           TUE 07/29/97 23:19 Page:317
    652  1 001416   004000 236007                    LDQ     2048,DL
         1 001417   100017 256100                    ORSQ    15,,PR1

     1512      653    4                 RETURN;

    653  1 001420   200040 221300                    LDX1  ! @LTH,,AUTO
         1 001421   000001 702211                    TSX2  ! 1,X1

     1513      654    4                 END;
     1514      655    3              END;

    655  1 001422   200006 054100                    AOS     I,,AUTO
         1 001423   200006 235100                    LDA     I,,AUTO
         1 001424   000076 115007                    CMPA    62,DL
         1 001425   001406 604400 1                  TMOZ    s:650

     1515      656    2           VIP.DTTOVF='1'B;

    656  1 001426   200003 471500                    LDP1    @VIP,,AUTO
         1 001427   002000 236007                    LDQ     1024,DL
         1 001430   100017 256100                    ORSQ    15,,PR1

     1516      657    2           VIP.STOP='1'B;

    657  1 001431   010000 236007                    LDQ     4096,DL
         1 001432   100017 256100                    ORSQ    15,,PR1

     1517      658    2           RETURN;

    658  1 001433   200040 221300                    LDX1  ! @LTH,,AUTO
         1 001434   000001 702211                    TSX2  ! 1,X1

TALLY
 Sect OctLoc
   0     000   000000 000251   000000 000100   000000 004406   000000 000121    .......@.......Q

DP
PL6.E3A0      #005=IVV$HEADER File=IVV$VOLINIT.:E05TSI                           TUE 07/29/97 23:19 Page:318
 Sect OctLoc
   0     004   051010 ******                                                    )...

SKIPLTH
 Sect OctLoc
   0     005   000000 000100                                                    ...@

(unnamed)
 Sect OctLoc
   0     006   115123 125060   065060 061040   115123 125060   065060 071040    MSU0501 MSU0509

(unnamed)
 Sect OctLoc
   2     000   000007 777777   777717 777777   000003 777760   000077 777400    .............?..
   2     004   777777 001777   777777 770017   777777 777400   037777 600000    ................
   2     010   777777 773400   777777 773403   777777 777774   001777 777777    ................
   2     014   776000 777777   777777 007777                                    ........
     1518      659    2   END MARKDTT;
     1519      660
     1520      661
     1521      662    1   END IVV$HEADER;
     1522      663        %EOD;

PL6.E3A0      #005=IVV$HEADER File=IVV$VOLINIT.:E05TSI                           TUE 07/29/97 23:19 Page:319
--  Include file information  --

   IV$MACROS.:E05TOU  is referenced.
   FM$GRAN.:E05TOU  is referenced.
      No diagnostics issued in procedure IVV$HEADER.
PL6.E3A0      #005=IVV$HEADER File=IVV$VOLINIT.:E05TSI                           TUE 07/29/97 23:19 Page:320

 **** Variables and constants ****

  ****  Section 000 RoData IVV$HEADER

  ****  Scalars and arrays  ****
OctLoc.c.b A Datatyp(siz) R M Lvl/name                 OctLoc.c.b A Datatyp(siz) R M Lvl/name

     4-0-0/b BIT (4)     r     1 DP(0:3)                    5-0-0/w SBIN        r     1 SKIPLTH
     0-0-0/w SBIN        r     1 TALLY(0:3)

  ****  Auto variables  ****

  ****  Scalars and arrays  ****
OctLoc.c.b A Datatyp(siz) R M Lvl/name                 OctLoc.c.b A Datatyp(siz) R M Lvl/name

    40-0-0/w PTR         r     1 @LTH                      37-0-0/w PTR         r     1 @POS
     3-0-0/w PTR         r     1 @VIP                       4-0-0/b BIT (6)     r     1 CK
    13-0-0/w PTR         r     1 DATA$                     30-0-0/w SBIN        r     1 DEFNO
    16-0-0/w SBIN        r     1 DPN                       17-0-0/w SBIN        r     1 DPSEC
     5-0-0/w PTR         r     1 FMT$                      12-0-0/w PTR         r     1 HDR5$
     6-0-0/w SBIN        r     1 I                          7-0-0/w SBIN        r     1 J
    24-0-0/w UBIN(8)     r     1 LTH(0:3)                  *0-0-0/w UBIN(8)     r     1 LTH
    37-0-0/w STRC        r     1 MPI                       32-0-0/w SBIN        r     1 PART
    20-0-0/w UBIN(16)    r     1 POS(0:3)                  *0-0-0/w UBIN(16)    r     1 POS
    37-0-0/w SBIN        r     1 REMN                      15-0-0/w SBIN        r     1 RUNBYT
    14-0-0/b STRC(16)    r     1 SKIP(0:1)                 10-0-0/w STRC        r     1 TR
    10-0-0/w SBIN        r     1 TRACK                     11-0-0/w PTR         r     1 VID$
    *0-0-0/w STRC(3024)  r     1 VIP

  ****  BASED and DCB variables  ****

  ****  Scalars and arrays  ****
OctLoc.c.b A Datatyp(siz) R M Lvl/name                 OctLoc.c.b A Datatyp(siz) R M Lvl/name

     0-0-0/d STRC(2952)  r     1 CF                         0-0-0/w STRC(828)   r     1 FMT
     0-0-0/b STRC(48)    r     1 LOG(0:3071)                0-0-0/w STRC(36864) r     1 VID

PL6.E3A0      #005=IVV$HEADER File=IVV$VOLINIT.:E05TSI                           TUE 07/29/97 23:19 Page:321

   Procedure IVV$HEADER requires 797 words for executable code.
   Procedure IVV$HEADER requires 42 words of local(AUTO) storage.
PL6.E3A0      #005=IVV$HEADER File=IVV$VOLINIT.:E05TSI                           TUE 07/29/97 23:19 Page:322
          *** CROSS REFERENCE LISTING ***
**     DENOTES     IDENTIFIER DEFINITION
<<                 IDENTIFIER'S VALUE SET
>>                 IDENTIFIER'S VALUE USED
<>                 IDENTIFIER SET AND/OR USED
--                 IDENTIFIER REFERENCED
PL6.E3A0      #005=IVV$HEADER File=IVV$VOLINIT.:E05TSI                           TUE 07/29/97 23:19 Page:323
          MINI XREF LISTING

CF
       399**DCL       496<<ASSIGN
CF.C.CONDFLAG
       424**DCL       511<<ASSIGN    518<<ASSIGN    642<<ASSIGN
CF.C.CYL
       418**DCL       644<<ASSIGN
CF.C.CYL.LWR
       419**DCL       507<<ASSIGN    514<<ASSIGN
CF.C.CYL.UPR
       420**DCL       508<<ASSIGN    515<<ASSIGN
CF.C.FLAG
       417**DCL       506<<ASSIGN    513<<ASSIGN    641<<ASSIGN
CF.C.HD
       421**DCL       509<<ASSIGN    516<<ASSIGN    645<<ASSIGN
CF.C.REC
       422**DCL       510<<ASSIGN    517<<ASSIGN    517>>ASSIGN    643<<ASSIGN
CF.C.SKP
       423**DCL       576<<ASSIGN
CF.C0.CONDFLAG
       415**DCL       502<<ASSIGN    639<<ASSIGN
CF.C0.CYL.LWR
       403**DCL       497<<ASSIGN
CF.C0.CYL.UPR
       404**DCL       498<<ASSIGN
CF.C0.FLAG
       401**DCL       500<<ASSIGN    513>>ASSIGN    638<<ASSIGN
CF.C0.HD
       405**DCL       499<<ASSIGN
CF.C0.REC
       406**DCL       501<<ASSIGN
CF.C0.SKP
       407**DCL       566<<ASSIGN
PL6.E3A0      #005=IVV$HEADER File=IVV$VOLINIT.:E05TSI                           TUE 07/29/97 23:19 Page:324
CF.C0.TSKIP
       410**DCL       411--REDEF     553<<ASSIGN    555<<ASSIGN
CF.C0.TSKP.G
       412**DCL       504<<ASSIGN
CK
       386**DCL       483<<ASSIGN    485<<ASSIGN    485>>ASSIGN    485>>ASSIGN    487>>ASSIGN
DATA$
       397**DCL       427--IMP-PTR   456<<ASSIGN    530>>DOWHILE   532>>DOWHILE   532>>DOWHILE   533>>DOWHILE
       533>>DOWHILE   536>>ASSIGN    537>>ASSIGN    542>>IF        542>>IF        542>>IF
DEFECTIVE
       470**LABEL     465--GOTO
DEFNO
       447**DCL       528<<ASSIGN    536>>ASSIGN    537>>ASSIGN    538>>CALL      538>>CALL      539<<ASSIGN
       539>>ASSIGN    547>>IF        548>>IF        548>>IF        550>>ASSIGN    563>>IF        569>>IF
       574>>IF        579>>IF
DP
       439**DCL       596>>ASSIGN    598>>ASSIGN    604>>ASSIGN    609>>ASSIGN
DPN
       442**DCL       559<<ASSIGN    562>>IF        563>>IF        565>>IF        569>>IF        573>>IF
       574>>IF        579>>IF        594>>ASSIGN    613<<ASSIGN    613>>ASSIGN
DPSEC
       443**DCL       559<<ASSIGN    567<<ASSIGN    577<<ASSIGN    591>>IF        596>>ASSIGN    598>>ASSIGN
       604>>ASSIGN    606>>ASSIGN    609>>ASSIGN    611<<ASSIGN    611>>ASSIGN
DTT_FOUND
       477**LABEL     471--GOTO
FMT
       322**DCL       456--ASSIGN
FMT.CKBYTES
       374**DCL       485>>ASSIGN    485>>ASSIGN
FMT.HEADER
       358**DCL       374--REDEF     375--REDEF     495--ASSIGN
FMT.HEADER.CHECK
       371**DCL       487<<ASSIGN
FMT.HEADER.CYL
       359**DCL       477<<ASSIGN    481>>ASSIGN
FMT.HEADER.HD
PL6.E3A0      #005=IVV$HEADER File=IVV$VOLINIT.:E05TSI                           TUE 07/29/97 23:19 Page:325
       360**DCL       478<<ASSIGN    482>>ASSIGN
FMT.HEADER.R0.CYL
       367**DCL       481<<ASSIGN
FMT.HEADER.R0.HD
       368**DCL       482<<ASSIGN
FMT.HEADER.TI
       363**DCL       480<<ASSIGN
FMT.HEADER.Z
       362**DCL       479<<ASSIGN
FMT.SEEK.SEC.CL
       346**DCL       497>>ASSIGN    507>>ASSIGN    514>>ASSIGN
FMT.SEEK.SEC.CU
       347**DCL       498>>ASSIGN    508>>ASSIGN    515>>ASSIGN
FMT.SEEK.SEC.HD
       348**DCL       499>>ASSIGN    509>>ASSIGN    516>>ASSIGN
FMT.SEEK.SECTOR
       342**DCL       343--REDEF     462>>ASSIGN
FMT.SEEK.TI
       340**DCL       470<<ASSIGN    475<<ASSIGN    480>>ASSIGN    493<<ASSIGN    647<<ASSIGN
FMT$
       387**DCL       322--IMP-PTR   454<<ASSIGN    462>>ASSIGN    470>>ASSIGN    475>>ASSIGN    477>>ASSIGN
       478>>ASSIGN    479>>ASSIGN    480>>ASSIGN    480>>ASSIGN    481>>ASSIGN    481>>ASSIGN    482>>ASSIGN
       482>>ASSIGN    485>>ASSIGN    485>>ASSIGN    487>>ASSIGN    493>>ASSIGN    495>>ASSIGN    497>>ASSIGN
       498>>ASSIGN    499>>ASSIGN    507>>ASSIGN    508>>ASSIGN    509>>ASSIGN    514>>ASSIGN    515>>ASSIGN
       516>>ASSIGN    647>>ASSIGN
HDR5$
       396**DCL       399--IMP-PTR   495<<ASSIGN    496>>ASSIGN    497>>ASSIGN    498>>ASSIGN    499>>ASSIGN
       500>>ASSIGN    501>>ASSIGN    502>>ASSIGN    504>>ASSIGN    506>>ASSIGN    507>>ASSIGN    508>>ASSIGN
       509>>ASSIGN    510>>ASSIGN    511>>ASSIGN    513>>ASSIGN    513>>ASSIGN    514>>ASSIGN    515>>ASSIGN
       516>>ASSIGN    517>>ASSIGN    517>>ASSIGN    518>>ASSIGN    553>>ASSIGN    555>>ASSIGN    566>>ASSIGN
       576>>ASSIGN    638>>ASSIGN    639>>ASSIGN    641>>ASSIGN    642>>ASSIGN    643>>ASSIGN    644>>ASSIGN
       645>>ASSIGN
HDR5XX
       523**PROC      460--CALL
I
       388**DCL       466<<ASSIGN    467>>DOWHILE   467>>DOWHILE   468>>IF        473<<ASSIGN    473>>ASSIGN
PL6.E3A0      #005=IVV$HEADER File=IVV$VOLINIT.:E05TSI                           TUE 07/29/97 23:19 Page:326
       484<<DOINDEX   485>>ASSIGN    485>>ASSIGN    503<<DOINDEX   504>>ASSIGN    512<<DOINDEX   513>>ASSIGN
       514>>ASSIGN    515>>ASSIGN    516>>ASSIGN    517>>ASSIGN    517>>ASSIGN    518>>ASSIGN    525<<DOINDEX
       526>>ASSIGN    526>>ASSIGN    550<<ASSIGN    555>>ASSIGN    557<<ASSIGN    557>>ASSIGN    640<<DOINDEX
       641>>ASSIGN    642>>ASSIGN    643>>ASSIGN    644>>ASSIGN    645>>ASSIGN    649<<DOINDEX   650>>IF
       651>>ASSIGN
INITHDR
       492**PROC      459--CALL
J
       389**DCL       462<<ASSIGN    463>>ASSIGN    464>>ASSIGN    550<<ASSIGN    550>>ASSIGN    551>>DOUNTIL
       552>>IF        553>>IF        555>>ASSIGN    555>>ASSIGN    557<<ASSIGN    557>>ASSIGN    570<<DOINDEX
       576>>ASSIGN    579<<ASSIGN
LOG
       427**DCL       530>>DOWHILE   533>>DOWHILE   533>>DOWHILE
LOG.CYL
       429**DCL       532>>DOWHILE   542>>IF        542>>IF
LOG.HD
       430**DCL       532>>DOWHILE   542>>IF
LOG.LTH
       432**DCL       537>>ASSIGN
LOG.POS
       431**DCL       536>>ASSIGN
LOGGED IN PROCEDURE HDR5XX
       547**LABEL     545--GOTO
LTH
       446**DCL       526<<ASSIGN    537<<ASSIGN    538<>CALL      548>>IF        552>>IF
LTH IN PROCEDURE POS_VALU
       621**DCL       619--PROC      623>>IF        629<<ASSIGN
MARKDTT
       634**PROC      549--CALL      615--CALL
MPI.CR IN PROCEDURE SKPOS
       589**DCL       605<<ASSIGN
PART
       449**DCL       560<<DOINDEX   561>>ASSIGN    563<<ASSIGN    571<<DOINDEX   572>>ASSIGN    574<<ASSIGN
       592>>DOCASE    599<<ASSIGN    600>>ASSIGN    609>>ASSIGN
POS
       445**DCL       526<<ASSIGN    536<<ASSIGN    538<>CALL      553>>ASSIGN    555>>ASSIGN    555>>ASSIGN
PL6.E3A0      #005=IVV$HEADER File=IVV$VOLINIT.:E05TSI                           TUE 07/29/97 23:19 Page:327
       562>>IF        573>>IF        594>>ASSIGN
POS IN PROCEDURE POS_VALU
       620**DCL       619--PROC      623<<ASSIGN    625>>IF        625<<ASSIGN    627>>IF        628<<ASSIGN
POS_VALU
       619**PROC      538--CALL
REMN IN PROCEDURE SKPOS
       586**DCL       587--REDEF     594<<ASSIGN    595>>IF        597>>IF        597>>IF        606>>ASSIGN
RUNBYT
       441**DCL       559<<ASSIGN    561<<ASSIGN    561>>ASSIGN    562>>IF        572<<ASSIGN    572>>ASSIGN
       573>>IF        594>>ASSIGN    600<<ASSIGN    600>>ASSIGN    603<<ASSIGN    603>>ASSIGN    612<<ASSIGN
       612>>ASSIGN
SKIP
       434**DCL       528<<ASSIGN    566>>ASSIGN    567<<ASSIGN    576>>ASSIGN    577<<ASSIGN
SKIP.S
       435**DCL       596<<ASSIGN    598<<ASSIGN    604<<ASSIGN    609<<ASSIGN
SKIP.SK
       436**DCL       606<<ASSIGN
SKIPLTH
       444**DCL       612>>ASSIGN
SKPOS
       584**PROC      562--CALL      573--CALL
TALLY
       438**DCL       561>>ASSIGN    572>>ASSIGN    600>>ASSIGN
TR.CYL
       393**DCL       463<<ASSIGN    477>>ASSIGN    529<<ASSIGN    532>>DOWHILE   542>>IF        542>>IF
TR.HD
       394**DCL       464<<ASSIGN    478>>ASSIGN    529<<ASSIGN    532>>DOWHILE   542>>IF
TRACK
       390**DCL       391--REDEF     468>>IF
VID.DTT
       380**DCL       380--REDEF     467>>DOWHILE   468>>IF        650>>IF        651<<ASSIGN
VID$
       395**DCL       378--IMP-PTR   455<<ASSIGN    467>>DOWHILE   468>>IF        648<<ASSIGN    650>>IF
       651>>ASSIGN
VIP
       255**DCL         8--PROC
PL6.E3A0      #005=IVV$HEADER File=IVV$VOLINIT.:E05TSI                           TUE 07/29/97 23:19 Page:328
VIP.CTR.CYL
       273**DCL       529>>ASSIGN
VIP.CTR.HD
       274**DCL       529>>ASSIGN
VIP.CTRACK
       271**DCL       272--REDEF     651>>ASSIGN
VIP.DISKERR
       286**DCL       465>>IF
VIP.DTTCH
       284**DCL       652<<ASSIGN
VIP.DTTOVF
       285**DCL       656<<ASSIGN
VIP.ELT$
       259**DCL       456>>ASSIGN
VIP.FLAG
       292**DCL       494<<ASSIGN    500>>ASSIGN    506>>ASSIGN    638>>ASSIGN
VIP.FLAG.F512
       293**DCL       494<<ASSIGN
VIP.FLAG.MTAR
       294**DCL       494<<ASSIGN
VIP.FLAG.TI
       297**DCL       569>>IF        637<<ASSIGN    647>>ASSIGN
VIP.FMT$
       265**DCL       454>>ASSIGN
VIP.LOGX
       260**DCL       530>>DOWHILE   530>>DOWHILE   532>>DOWHILE   532>>DOWHILE   533>>DOWHILE   533>>DOWHILE
       534<<ASSIGN    534>>ASSIGN    536>>ASSIGN    537>>ASSIGN    540<<ASSIGN    540>>ASSIGN    542>>IF
       542>>IF        542>>IF        544<<ASSIGN    544>>ASSIGN    636<<ASSIGN    636>>ASSIGN
VIP.MODEL
       262**DCL       457>>DOSELCT
VIP.NHEADS
       267**DCL       463>>ASSIGN    464>>ASSIGN
VIP.NSECTS
       266**DCL       462>>ASSIGN    512>>DOINDEX   570>>DOINDEX   579>>ASSIGN    640>>DOINDEX
VIP.RANGE.FTRACK
       309**DCL       310--REDEF
PL6.E3A0      #005=IVV$HEADER File=IVV$VOLINIT.:E05TSI                           TUE 07/29/97 23:19 Page:329
VIP.RANGE.LTRACK
       313**DCL       314--REDEF
VIP.STOP
       283**DCL       657<<ASSIGN
VIP.VERIFY
       279**DCL       479>>ASSIGN
VIP.VID$
       264**DCL       455>>ASSIGN    648>>ASSIGN

PL6.E3A0      #006=IVV$NEXT File=IVV$VOLINIT.:E05TSI                             TUE 07/29/97 23:20 Page:330
     1523        1        /*T***********************************************************/
     1524        2        /*T*                                                         */
     1525        3        /*T* Copyright (c) Bull HN Information Systems Inc., 1997    */
     1526        4        /*T*                                                         */
     1527        5        /*T***********************************************************/
     1528        6        /* FORMAT NEXT TRACK */
     1529        7        /**/
     1530        8        IVV$NEXT: PROC (VIP,TYC) ALTRET;
     1531        9        /**/
     1532       10        /* INCLUDE FILES */
     1533       11        /**/
     1534       12        %INCLUDE CP_6_SUBS;
     1535      552        %INCLUDE FM$GRAN;
     1536      621        %INCLUDE IV$MACROS;
     1537      791        %INCLUDE NI$TABLES;
     1538     1007        /**/
     1539     1008                                           /* Storage structure for MSU050X header */
     1540     1009    1   DCL HDR5$ PTR;
     1541     1010    1   DCL DATA$ PTR;
     1542     1011        %IV$HDR(NAME=CF,STCLASS="BASED(HDR5$)");
     1543     1039
     1544     1040    1   DCL 1 SKIP(0:1) UNAL,
     1545     1041    1         2 S BIT(4),
     1546     1042    1         2 SK UBIN(12);
     1547     1043
     1548     1044        /**/
     1549     1045        /* PARAMETERS */
     1550     1046        /**/
     1551     1047        %IV$VIP(NAME=VIP,STCLASS="");
     1552     1111    1   DCL TYC BIT(36) ALIGNED;
     1553     1112        /**/
     1554     1113        /* EXTERNAL REFERENCES */
     1555     1114        /**/
     1556     1115    1   DCL IVV$HEADER ENTRY (1);
     1557     1116    1   DCL IVO$READ_ELT ENTRY (1) ALTRET;
     1558     1117    1   DCL DCWBUILD ENTRY(3);
     1559     1118    1   DCL IVO$GET ENTRY (2) ALTRET;
PL6.E3A0      #006=IVV$NEXT File=IVV$VOLINIT.:E05TSI                             TUE 07/29/97 23:20 Page:331
     1560     1119    1   DCL IVV$ERROR ENTRY (3);
     1561     1120    1   DCL IVV$FMTPAC ENTRY (2) ALTRET;
     1562     1121    1   DCL IVO$PRINT ENTRY (2) ALTRET;
     1563     1122    1   DCL IVV$BINDEC ENTRY (4);
     1564     1123        /**/
     1565     1124        /* SUBSTITUTIONS */
     1566     1125        %EQU FORMAT='17'O;                      /* DISK FORMAT TRACK COMMAND */
     1567     1126        %EQU WRCMP='33'O;                       /* DISK WRITE & COMPARE COMMAND */
     1568     1127        %EQU WRASC='32'O;                       /* DISK WRITE ASCII COMMAND */
     1569     1128        %EQU DP_TDSEEK512='35'O;                /* DISK SEEK OF 512 FORMAT COMMAND */
     1570     1129        %EQU RDHEADER='27'O;                    /* READ TRACK HEADER COMMAND */
     1571     1130        %EQU RDBIN='25'O;                       /* READ ELT DATA IN BINA COMMAND */
     1572     1131        /* DATA STRUCTURES */
     1573     1132        /**/
     1574     1133        %IV$FMT(NAME=FMT,STCLASS="BASED(FMT$)");
     1575     1189        %IV$FMT(NAME=ELT,STCLASS="BASED(VIP.ELT$)");
     1576     1245        %FM$VID(FM$VID=VID,BASED="BASED(VID$)");
     1577     1251        %NI$DVT(NAME=DVT,STCLASS="BASED(DVT$)");
     1578     1258        /**/
     1579     1259        /* STATIC DATA */
     1580     1260        /**/
     1581     1261    1   DCL IV_IO$ PTR SYMREF;
     1582     1262    1   DCL CEDATA(0:7) BIT(36) INIT('252252252252'O,'252252252252'O,
     1583     1263    1                                '252252377377'O,'377377377377'O,
     1584     1264    1                                '377377252252'O,'252252252252'O,
     1585     1265    1                                '252252377377'O,'377377377377'O) CONSTANT;
     1586     1266        /* 10 BYTE 'A' (1010) @ 143 * ( 8 BYTE 'F' (1111) @ 8 BYTE 'A' )
     1587     1267          @ 6 BYTE 'F' - TOTAL 576 WORD ( 9-BIT BYTE) OR 512 WORD ( 8-BIT ) */
     1588     1268        /**/
     1589     1269        /* AUTO STACK */
     1590     1270        /**/
     1591     1271    1   DCL FMT$ PTR;
     1592     1272    1   DCL DATA(0:575) BIT(36) BASED(DATA$) UNAL;
     1593     1273    1   DCL DVT$ PTR;
     1594     1274    1   DCL I SBIN;
     1595     1275    1   DCL J SBIN;
     1596     1276    1   DCL LOOP BIT(1) ALIGNED;
PL6.E3A0      #006=IVV$NEXT File=IVV$VOLINIT.:E05TSI                             TUE 07/29/97 23:20 Page:332
     1597     1277    1   DCL TRACK UBIN(18);
     1598     1278    1   DCL 1 TR REDEF TRACK ALIGNED,
     1599     1279    1         2 CYL UBIN(10) UNAL,              /* CYLINDER NUMBER */
     1600     1280    1         2 CY REDEF CYL,
     1601     1281    1           3 UPR UBIN(2) UNAL,
     1602     1282    1           3 LWR UBIN(8) UNAL,
     1603     1283    1         2 X UBIN(2) UNAL,
     1604     1284    1         2 HD UBIN(6) UNAL;                /* HEAD NUMBER */
     1605     1285    1   DCL LTRACK UBIN(18);
     1606     1286    1   DCL VID$ PTR;
     1607     1287        /**/
     1608     1288        /* SUBSTITUTIONS */
     1609     1289        /**/
     1610     1290        %SUB NULL="ADDR(NIL)";
     1611     1291        %SUB IV_BEGIN=0;
     1612     1292        %SUB IV_NEXTTRACK=1;
     1613     1293        %SUB IV_INITFMT=2;
     1614     1294        %SUB IV_COMPFMT=3;
     1615     1295        %SUB IV_INITTEST=4;
     1616     1296        %SUB IV_COMPTEST=5;
     1617     1297        %SUB IV_DONE=6;
     1618     1298        %SUB IV_INITCE=7;
     1619     1299        %SUB IV_COMPCE=8;
     1620     1300        %EJECT;
PL6.E3A0      #006=IVV$NEXT File=IVV$VOLINIT.:E05TSI                             TUE 07/29/97 23:20 Page:333
     1621     1301    1           IF VIP.STOP THEN VIP.STEP=IV_DONE;
     1622     1302    1           FMT$=VIP.FMT$;
     1623     1303    1           IF VIP.MODEL='MSU0501 ' OR VIP.MODEL='MSU0509 ' THEN
     1624     1304    2           DO;
     1625     1305    2              DATA$=PINCRW(ADDR(FMT.HEADER),88); /* 50X HDR SZ IS 88 WORDS */
     1626     1306    2              TRACK=VIP.CTRACK;
     1627     1307    2              END;
     1628     1308    1           LOOP='1'B;
     1629     1309    2           DO WHILE(LOOP);
     1630     1310    3              DO CASE(VIP.STEP);
     1631     1311    3               CASE(IV_BEGIN);             /* INITIATE VOLINIT */
     1632     1312    3                 IF VIP.FORMAT THEN
     1633     1313    3                    VIP.STEP=IV_INITFMT;
     1634     1314    3                 ELSE IF VIP.TEST THEN
     1635     1315    3                       VIP.STEP=IV_INITTEST;
     1636     1316    3                    ELSE VIP.STEP=IV_DONE;
     1637     1317    3               CASE(IV_NEXTTRACK);         /* NEXT TRACK */
     1638     1318    3                 VIP.STEP=IV_BEGIN;
     1639     1319    3                 VIP.DISKERR='0'B;
     1640     1320    3                 IF VIP.MODEL='MSU0501 ' OR VIP.MODEL='MSU0509 ' THEN
     1641     1321    4                 DO;
     1642     1322    5                    IF VIP.CTRACK < VIP.RANGE.LTRACK(VIP.CRANGE) THEN DO;
     1643     1323    5                       IF VIP.CTR.HD < VIP.NHEADS-1 THEN
     1644     1324    5                          VIP.CTR.HD=VIP.CTR.HD+1;
     1645     1325    6                       ELSE DO;
     1646     1326    6                          VIP.CTR.HD=0;
     1647     1327    6                          VIP.CTR.CYL=VIP.CTR.CYL+1;
     1648     1328    6                          END;
     1649     1329    5                       END;
     1650     1330    5                    ELSE DO;
     1651     1331    5                       VIP.CRANGE=VIP.CRANGE+1;
     1652     1332    6                       IF VIP.CRANGE < VIP.NRANGES THEN DO;
     1653     1333    6                          VIP.CTRACK=VIP.RANGE.FTRACK(VIP.CRANGE);
     1654     1334    6                          END;
     1655     1335    5                       ELSE VIP.STEP=IV_DONE;
     1656     1336    5                       END;
     1657     1337    5                    IF VIP.CTR.CYL=840 AND VIP.CTR.HD>=20 THEN DO;
PL6.E3A0      #006=IVV$NEXT File=IVV$VOLINIT.:E05TSI                             TUE 07/29/97 23:20 Page:334
     1658     1338    5                       VIP.CTR.CYL=841;
     1659     1339    5                       VIP.CTR.HD=0;
     1660     1340    5                       END;
     1661     1341    4                    TRACK=VIP.CTRACK;
     1662     1342    4                    END;
     1663     1343    4                 ELSE DO;
     1664     1344    4                    FMT.SEEK.SECTOR=FMT.SEEK.SECTOR+VIP.NSECTS;
     1665     1345    4                    J=FMT.SEEK.SECTOR/VIP.NSECTS;
     1666     1346    4                    TR.CYL=J/VIP.NHEADS;
     1667     1347    4                    TR.HD=MOD(J,VIP.NHEADS);
     1668     1348    5                    IF TR.CYL=VIP.NCYLS AND TR.HD=0 THEN DO;
     1669     1349    5                       FMT.SEEK.SECTOR=VIP.T@DCYL*VIP.NHEADS*VIP.NSECTS;
     1670     1350    5                       TR.CYL=VIP.T@DCYL;
     1671     1351    5                       TR.HD=0;
     1672     1352    5                       END;
     1673     1353    5                    IF TRACK>VIP.RANGE.LTRACK(VIP.CRANGE) THEN DO;
     1674     1354    5                       VIP.CRANGE=VIP.CRANGE+1;
     1675     1355    5                       IF VIP.CRANGE>=VIP.NRANGES THEN VIP.STEP=IV_DONE;
     1676     1356    6                       ELSE DO;
     1677     1357    6                          FMT.SEEK.SECTOR=(VIP.RANGE.FT.CYL(VIP.CRANGE)*VIP.NHEADS+VIP.
              1357                                   RANGE.FT.HD(VIP.CRANGE))*VIP.NSECTS;
     1678     1358    6                          TRACK=VIP.RANGE.FTRACK(VIP.CRANGE);
     1679     1359    6                          END;
     1680     1360    5                       END;
     1681     1361    5                    IF TR.CYL>=VIP.T@DCYL THEN DO;
     1682     1362    5                       IF VIP.GRANSIZE=2 THEN FMT.SEEK_IDCW='357700720000'O;
     1683     1363    5                       ELSE FMT.SEEK_IDCW='367700720000'O;
     1684     1364    5                       END;
     1685     1365    4                    END;
     1686     1366    3               CASE(IV_INITFMT);           /* INITIALIZE FOR FORMATTING */
     1687     1367    3                 FMT.IDCW.DC=%FORMAT;
     1688     1368    3                 FMT.DCW=FMT.HEADER_DCW;
     1689     1369    3                 IF VIP.MODEL='MSU0501 ' OR VIP.MODEL='MSU0509 ' THEN
     1690     1370    3                    CALL CONVMPC(FMT.SEEK.SECTOR);
     1691     1371    3                 CALL IVV$HEADER(VIP);
     1692     1372    3                 VIP.STEP=IV_COMPFMT;
     1693     1373    3                 LOOP='0'B;
PL6.E3A0      #006=IVV$NEXT File=IVV$VOLINIT.:E05TSI                             TUE 07/29/97 23:20 Page:335
     1694     1374    3               CASE(IV_COMPFMT);           /* FORMATTING COMPLETE */
     1695     1375    4                 IF TYC AND NOT VIP.DISKERR THEN DO;
     1696     1376    4                    CALL MARKDT;
     1697     1377    4                    VIP.DISKERR='1'B;
     1698     1378    4                    VIP.STEP=IV_INITFMT;
     1699     1379    4                    END;
     1700     1380    3                 ELSE
     1701     1381    3                    IF VIP.TEST AND NOT VIP.DISKERR THEN
     1702     1382    3                       VIP.STEP=IV_INITTEST;
     1703     1383    3                    ELSE
     1704     1384    3                       IF VIP.MODEL = 'MSU509 ' THEN GOTO M509;
     1705     1385    3                 IF VIP.MODEL='MSU0501 ' THEN
     1706     1386    3                    IF VIP.CTR.CYL=842 AND VIP.CTR.HD=39 THEN VIP.STEP=IV_INITCE;
     1707     1387    3                    ELSE;
     1708     1388    3                 ELSE
     1709     1389    3   M509:            VIP.STEP=IV_NEXTTRACK;
     1710     1390    3               CASE(IV_INITTEST);          /* INITIALIZE FOR SURFACE TEST */
     1711     1391    3                 IF VIP.MODEL='MSU0501 ' OR VIP.MODEL='MSU0509 ' THEN
     1712     1392    3                    CALL CONVMPC(FMT.SEEK.SECTOR);
     1713     1393    3                 FMT.IDCW.DC=%WRCMP;
     1714     1394    3                 FMT.DCW=FMT.DATA_DCW;
     1715     1395    3                 VIP.STEP=IV_COMPTEST;
     1716     1396    3                 LOOP='0'B;
     1717     1397    3               CASE(IV_COMPTEST);          /* SURFACE TEST COMPLETE */
     1718     1398    4                 IF TYC THEN DO;
     1719     1399    4                    CALL MARKDT;
     1720     1400    5                    IF VIP.FORMAT THEN DO;
     1721     1401    5                       VIP.DISKERR='1'B;
     1722     1402    5                       VIP.STEP=IV_INITFMT;
     1723     1403    5                       END;
     1724     1404    5                    ELSE DO;
     1725     1405    5                       VIP.STEP=IV_NEXTTRACK;
     1726     1406    5                       END;
     1727     1407    4                    END;
     1728     1408    4                 ELSE DO;
     1729     1409    4                    IF VIP.MODEL='MSU0501 ' OR VIP.MODEL='MSU0509 ' THEN
     1730     1410    4                       IF VIP.CTR.CYL=842 AND VIP.CTR.HD=39 THEN VIP.STEP=IV_INITCE;
PL6.E3A0      #006=IVV$NEXT File=IVV$VOLINIT.:E05TSI                             TUE 07/29/97 23:20 Page:336
     1731     1411    4                       ELSE
     1732     1412    4                          VIP.STEP=IV_NEXTTRACK;
     1733     1413    4                    ELSE VIP.STEP=IV_NEXTTRACK;
     1734     1414    4                    END;
     1735     1415    3               CASE(IV_INITCE);
     1736     1416    4                 DO I=0 TO 3 BY 1;
     1737     1417    4                    DATA(I)=CEDATA(I);
     1738     1418    4                    END;
     1739     1419    4                 DO I=4 TO 575 BY 4;
     1740     1420    5                    DO J=0 TO 3 BY 1;
     1741     1421    5                       DATA(I+J)=CEDATA(4+J);
     1742     1422    5                       END;
     1743     1423    4                    END;
     1744     1424    3                 FMT.IDCW.DC=%WRASC;
     1745     1425    3                 FMT.DCW=FMT.DATA_DCW;
     1746     1426    3                 FMT.DCW.TALLY(0)=576;
     1747     1427    3                 FMT.SEEK.SCL=0;
     1748     1428    3                 FMT.SEEK.Y='1'B;
     1749     1429    3                 FMT.SEEK.SEC.ELT='1'B;
     1750     1430    3                 VIP.STEP=IV_COMPCE;
     1751     1431    3                 LOOP='0'B;
     1752     1432    3               CASE(IV_COMPCE);
     1753     1433    4                 IF TYC THEN DO;
     1754     1434    4                    CALL MARKDT;
     1755     1435    4                    VIP.STEP=IV_DONE;
     1756     1436    4                    END;
     1757     1437    4                 ELSE DO;
     1758     1438    4                    IF FMT.SEEK.SCL>= 7 THEN VIP.STEP=IV_DONE;
     1759     1439    5                    ELSE DO;
     1760     1440    5                       FMT.SEEK.SCL=FMT.SEEK.SCL+1;
     1761     1441    5                       LOOP='0'B;
     1762     1442    5                       VIP.STEP=IV_COMPCE;
     1763     1443    5                       END;
     1764     1444    4                    END;
     1765     1445    3               CASE(IV_DONE);              /* VOLINIT DONE */
     1766     1446    3                 VIP.DONE='1'B;
     1767     1447    3                 ALTRETURN;
PL6.E3A0      #006=IVV$NEXT File=IVV$VOLINIT.:E05TSI                             TUE 07/29/97 23:20 Page:337
     1768     1448    3               END;
     1769     1449    2              END;
     1770     1450    2           DO INHIBIT;
     1771     1451    2              VIP.IO$=IV_IO$;
     1772     1452    2              IV_IO$=ADDR(VIP);
     1773     1453    2              END;
     1774     1454    1           RETURN;
     1775     1455        %EJECT;
PL6.E3A0      #006=IVV$NEXT File=IVV$VOLINIT.:E05TSI                             TUE 07/29/97 23:20 Page:338
     1776     1456    1   MARKDT: PROC;
     1777     1457    2           IF VIP.MODEL='MSU0501 ' OR VIP.MODEL='MSU0509 ' THEN;
     1778     1458    3           ELSE DO;
     1779     1459    3              J=FMT.SEEK.SECTOR/VIP.NSECTS;
     1780     1460    3              TR.CYL=J/VIP.NHEADS;
     1781     1461    3              TR.HD=MOD(J,VIP.NHEADS);
     1782     1462    3              END;
     1783     1463    2           VID$=VIP.VID$;
     1784     1464    3           DO I=0 TO 62;
     1785     1465    4              IF VID.DTT(I)=BITBIN('777777'O) THEN DO;
     1786     1466    4                 IF VIP.MODEL='MSU0501 ' OR VIP.MODEL='MSU0509 ' THEN
     1787     1467    4                    VID.DTT(I)=VIP.CTRACK;
     1788     1468    4                 ELSE
     1789     1469    4                    VID.DTT(I)=TRACK;
     1790     1470    4                 VIP.DTTCH='1'B;
     1791     1471    4                 RETURN;
     1792     1472    4                 END;
     1793     1473    3              END;
     1794     1474    2           VIP.DTTOVF='1'B;
     1795     1475    2           VIP.STOP='1'B;
     1796     1476    2           RETURN;
     1797     1477    2   END MARKDT;
     1798     1478
     1799     1479
     1800     1480    1   CONVMPC: PROC(SECTOR);
     1801     1481    2   DCL SECTOR BIT(36) ALIGNED;
     1802     1482    2   DCL 1 SEC REDEF SECTOR ALIGNED,
     1803     1483    2         2 * UBIN(20) UNAL,
     1804     1484    2         2 CL UBIN(8) UNAL,
     1805     1485    2         2 CU UBIN(2) UNAL,
     1806     1486    2         2 HD UBIN(6) UNAL;
     1807     1487    2           SEC.CL=TR.CY.LWR;
     1808     1488    2           SEC.CU=TR.CY.UPR;
     1809     1489    2           SEC.HD=TR.HD;
     1810     1490
     1811     1491    2   END CONVMPC;
     1812     1492    1   END IVV$NEXT;
PL6.E3A0      #006=IVV$NEXT File=IVV$VOLINIT.:E05TSI                             TUE 07/29/97 23:20 Page:339
     1813     1493        %EOD;

PL6.E3A0      #006=IVV$NEXT File=IVV$VOLINIT.:E05TSI                             TUE 07/29/97 23:20 Page:340
--  Include file information  --

   NI$TABLES.:E05TOU  is referenced.
   IV$MACROS.:E05TOU  is referenced.
   FM$GRAN.:E05TOU  is referenced.
   CP_6_SUBS.:E05TOU  is referenced.
      No diagnostics issued in procedure IVV$NEXT.

   Procedure IVV$NEXT requires 635 words for executable code.
   Procedure IVV$NEXT requires 28 words of local(AUTO) storage.

PL6.E3A0      #006=IVV$NEXT File=IVV$VOLINIT.:E05TSI                             TUE 07/29/97 23:20 Page:341

 Object Unit name= IVV$NEXT                                   File name= IVV$VOLINIT.:E05TOU
 UTS= JUL 29 '97 23:20:14.28 TUE                              Compiler= PL-6/E31         Sev=      00
 SharedLib= :SHARED_SYSTEM                                    Alt SharedLib=


    ****  Control sections  ****

 Sect   Type Bound  Init  Size OctSiz  Section name(segment info)
    0  RoData even  UTS     16     20  IVV$NEXT
    1   Proc  even  none   635   1173  IVV$NEXT
    2  RoData even  none     7      7  IVV$NEXT

    ****  Entry defs  ****

                              Check   Calling
                             calling  sequence
  Sect OctLoc Primary Altret sequence   type   Parms  Name
     1      0   yes    yes     yes      Std        2  IVV$NEXT

  ****  Entry refs  ****

         Check        Calling
        calling       sequence
Altret sequence SRef   type   Args  Name
         yes           Std       1 IVV$HEADER
                       nStd      0 X66_AUTO_2
                       Std       0 B_CONSPOOL_D
                       nStd      0 X66_AALT
                       nStd      0 X66_ARET

  ****  Data refs  ****

  Flags:  r = read only, s = secondary
Flgs Name                             Flgs Name                             Flgs Name
     IV_IO$                                B_VECTNIL
PL6.E3A0      #006=IVV$NEXT File=IVV$VOLINIT.:E05TSI                             TUE 07/29/97 23:20 Page:342


     1523        1        /*T***********************************************************/
     1524        2        /*T*                                                         */
     1525        3        /*T* Copyright (c) Bull HN Information Systems Inc., 1997    */
     1526        4        /*T*                                                         */
     1527        5        /*T***********************************************************/
     1528        6        /* FORMAT NEXT TRACK */
     1529        7        /**/
     1530        8        IVV$NEXT: PROC (VIP,TYC) ALTRET;

      8  1 000000   000000 700200 xent  IVV$NEXT     TSX0  ! X66_AUTO_2
         1 000001   000034 000002                    ZERO    28,2

     1531        9        /**/
     1532       10        /* INCLUDE FILES */
     1533       11        /**/
     1534       12        %INCLUDE CP_6_SUBS;
     1535      552        %INCLUDE FM$GRAN;
     1536      621        %INCLUDE IV$MACROS;
     1537      791        %INCLUDE NI$TABLES;
     1538     1007        /**/
     1539     1008                                           /* Storage structure for MSU050X header */
     1540     1009    1   DCL HDR5$ PTR;
     1541     1010    1   DCL DATA$ PTR;
     1542     1011        %IV$HDR(NAME=CF,STCLASS="BASED(HDR5$)");
     1543     1039
     1544     1040    1   DCL 1 SKIP(0:1) UNAL,
     1545     1041    1         2 S BIT(4),
     1546     1042    1         2 SK UBIN(12);
     1547     1043
     1548     1044        /**/
     1549     1045        /* PARAMETERS */
     1550     1046        /**/
     1551     1047        %IV$VIP(NAME=VIP,STCLASS="");
     1552     1111    1   DCL TYC BIT(36) ALIGNED;
     1553     1112        /**/
     1554     1113        /* EXTERNAL REFERENCES */
PL6.E3A0      #006=IVV$NEXT File=IVV$VOLINIT.:E05TSI                             TUE 07/29/97 23:20 Page:343
     1555     1114        /**/
     1556     1115    1   DCL IVV$HEADER ENTRY (1);
     1557     1116    1   DCL IVO$READ_ELT ENTRY (1) ALTRET;
     1558     1117    1   DCL DCWBUILD ENTRY(3);
     1559     1118    1   DCL IVO$GET ENTRY (2) ALTRET;
     1560     1119    1   DCL IVV$ERROR ENTRY (3);
     1561     1120    1   DCL IVV$FMTPAC ENTRY (2) ALTRET;
     1562     1121    1   DCL IVO$PRINT ENTRY (2) ALTRET;
     1563     1122    1   DCL IVV$BINDEC ENTRY (4);
     1564     1123        /**/
     1565     1124        /* SUBSTITUTIONS */
     1566     1125        %EQU FORMAT='17'O;                      /* DISK FORMAT TRACK COMMAND */
     1567     1126        %EQU WRCMP='33'O;                       /* DISK WRITE & COMPARE COMMAND */
     1568     1127        %EQU WRASC='32'O;                       /* DISK WRITE ASCII COMMAND */
     1569     1128        %EQU DP_TDSEEK512='35'O;                /* DISK SEEK OF 512 FORMAT COMMAND */
     1570     1129        %EQU RDHEADER='27'O;                    /* READ TRACK HEADER COMMAND */
     1571     1130        %EQU RDBIN='25'O;                       /* READ ELT DATA IN BINA COMMAND */
     1572     1131        /* DATA STRUCTURES */
     1573     1132        /**/
     1574     1133        %IV$FMT(NAME=FMT,STCLASS="BASED(FMT$)");
     1575     1189        %IV$FMT(NAME=ELT,STCLASS="BASED(VIP.ELT$)");
     1576     1245        %FM$VID(FM$VID=VID,BASED="BASED(VID$)");
     1577     1251        %NI$DVT(NAME=DVT,STCLASS="BASED(DVT$)");
     1578     1258        /**/
     1579     1259        /* STATIC DATA */
     1580     1260        /**/
     1581     1261    1   DCL IV_IO$ PTR SYMREF;
     1582     1262    1   DCL CEDATA(0:7) BIT(36) INIT('252252252252'O,'252252252252'O,
     1583     1263    1                                '252252377377'O,'377377377377'O,
     1584     1264    1                                '377377252252'O,'252252252252'O,
     1585     1265    1                                '252252377377'O,'377377377377'O) CONSTANT;
     1586     1266        /* 10 BYTE 'A' (1010) @ 143 * ( 8 BYTE 'F' (1111) @ 8 BYTE 'A' )
     1587     1267          @ 6 BYTE 'F' - TOTAL 576 WORD ( 9-BIT BYTE) OR 512 WORD ( 8-BIT ) */
     1588     1268        /**/
     1589     1269        /* AUTO STACK */
     1590     1270        /**/
     1591     1271    1   DCL FMT$ PTR;
PL6.E3A0      #006=IVV$NEXT File=IVV$VOLINIT.:E05TSI                             TUE 07/29/97 23:20 Page:344
     1592     1272    1   DCL DATA(0:575) BIT(36) BASED(DATA$) UNAL;
     1593     1273    1   DCL DVT$ PTR;
     1594     1274    1   DCL I SBIN;
     1595     1275    1   DCL J SBIN;
     1596     1276    1   DCL LOOP BIT(1) ALIGNED;
     1597     1277    1   DCL TRACK UBIN(18);
     1598     1278    1   DCL 1 TR REDEF TRACK ALIGNED,
     1599     1279    1         2 CYL UBIN(10) UNAL,              /* CYLINDER NUMBER */
     1600     1280    1         2 CY REDEF CYL,
     1601     1281    1           3 UPR UBIN(2) UNAL,
     1602     1282    1           3 LWR UBIN(8) UNAL,
     1603     1283    1         2 X UBIN(2) UNAL,
     1604     1284    1         2 HD UBIN(6) UNAL;                /* HEAD NUMBER */
     1605     1285    1   DCL LTRACK UBIN(18);
     1606     1286    1   DCL VID$ PTR;
     1607     1287        /**/
     1608     1288        /* SUBSTITUTIONS */
     1609     1289        /**/
     1610     1290        %SUB NULL="ADDR(NIL)";
     1611     1291        %SUB IV_BEGIN=0;
     1612     1292        %SUB IV_NEXTTRACK=1;
     1613     1293        %SUB IV_INITFMT=2;
     1614     1294        %SUB IV_COMPFMT=3;
     1615     1295        %SUB IV_INITTEST=4;
     1616     1296        %SUB IV_COMPTEST=5;
     1617     1297        %SUB IV_DONE=6;
     1618     1298        %SUB IV_INITCE=7;
     1619     1299        %SUB IV_COMPCE=8;
     1620     1300        %EJECT;
PL6.E3A0      #006=IVV$NEXT File=IVV$VOLINIT.:E05TSI                             TUE 07/29/97 23:20 Page:345
     1621     1301    1           IF VIP.STOP THEN VIP.STEP=IV_DONE;

   1301  1 000002   200003 470500                    LDP0    @VIP,,AUTO
         1 000003   000017 236100                    LDQ     15,,PR0
         1 000004   010000 316007                    CANQ    4096,DL
         1 000005   000011 600000 1                  TZE     s:1302

   1301  1 000006   000000 376000 2                  ANQ     0
         1 000007   000006 276007                    ORQ     6,DL
         1 000010   000017 756100                    STQ     15,,PR0

     1622     1302    1           FMT$=VIP.FMT$;

   1302  1 000011   000013 236100                    LDQ     11,,PR0
         1 000012   200013 756100                    STQ     FMT$,,AUTO

     1623     1303    1           IF VIP.MODEL='MSU0501 ' OR VIP.MODEL='MSU0509 ' THEN

   1303  1 000013   040000 106500                    CMPC    fill='040'O
         1 000014   000007 000010                    ADSC9   7,,PR0                   cn=0,n=8
         1 000015   000010 000010 0                  ADSC9   CEDATA+8                 cn=0,n=8
         1 000016   000023 600000 1                  TZE     s:1305
         1 000017   040000 106500                    CMPC    fill='040'O
         1 000020   000007 000010                    ADSC9   7,,PR0                   cn=0,n=8
         1 000021   000012 000010 0                  ADSC9   CEDATA+10                cn=0,n=8
         1 000022   000027 601000 1                  TNZ     s:1308

     1624     1304    2           DO;

     1625     1305    2              DATA$=PINCRW(ADDR(FMT.HEADER),88); /* 50X HDR SZ IS 88 WORDS */

   1305  1 000023   000151 036003                    ADLQ    105,DU
         1 000024   200006 756100                    STQ     DATA$,,AUTO

     1626     1306    2              TRACK=VIP.CTRACK;

   1306  1 000025   000016 220100                    LDX0    14,,PR0
PL6.E3A0      #006=IVV$NEXT File=IVV$VOLINIT.:E05TSI                             TUE 07/29/97 23:20 Page:346
         1 000026   200020 740100                    STX0    TRACK,,AUTO

     1627     1307    2              END;

     1628     1308    1           LOOP='1'B;

   1308  1 000027   400000 236003                    LDQ     -131072,DU
         1 000030   200017 756100                    STQ     LOOP,,AUTO

     1629     1309    2           DO WHILE(LOOP);

   1309  1 000031   200017 234100                    SZN     LOOP,,AUTO
         1 000032   001032 605000 1                  TPL     s:1451

     1630     1310    3              DO CASE(VIP.STEP);

   1310  1 000033   200003 470500                    LDP0    @VIP,,AUTO
         1 000034   000017 720100                    LXL0    15,,PR0
         1 000035   000177 360003                    ANX0    127,DU
         1 000036   000011 100003                    CMPX0   9,DU
         1 000037   000041 602010 1                  TNC     s:1310+6,X0
         1 000040   001030 710000 1                  TRA     s:1449
         1 000041   000052 710000 1                  TRA     s:1312
         1 000042   000073 710000 1                  TRA     s:1318
         1 000043   000414 710000 1                  TRA     s:1367
         1 000044   000452 710000 1                  TRA     s:1375
         1 000045   000535 710000 1                  TRA     s:1391
         1 000046   000567 710000 1                  TRA     s:1398
         1 000047   001025 710000 1                  TRA     s:1446
         1 000050   000652 710000 1                  TRA     s:1416
         1 000051   000763 710000 1                  TRA     s:1433

     1631     1311    3               CASE(IV_BEGIN);             /* INITIATE VOLINIT */

     1632     1312    3                 IF VIP.FORMAT THEN

   1312  1 000052   000017 236100                    LDQ     15,,PR0
PL6.E3A0      #006=IVV$NEXT File=IVV$VOLINIT.:E05TSI                             TUE 07/29/97 23:20 Page:347
         1 000053   400000 316007                    CANQ    -131072,DL
         1 000054   000061 600000 1                  TZE     s:1314

     1633     1313    3                    VIP.STEP=IV_INITFMT;

   1313  1 000055   000000 376000 2                  ANQ     0
         1 000056   000002 276007                    ORQ     2,DL
         1 000057   000017 756100                    STQ     15,,PR0
         1 000060   001030 710000 1                  TRA     s:1449

     1634     1314    3                 ELSE IF VIP.TEST THEN

   1314  1 000061   100000 316007                    CANQ    32768,DL
         1 000062   000067 600000 1                  TZE     s:1316

     1635     1315    3                       VIP.STEP=IV_INITTEST;

   1315  1 000063   000000 376000 2                  ANQ     0
         1 000064   000004 276007                    ORQ     4,DL
         1 000065   000017 756100                    STQ     15,,PR0
         1 000066   001030 710000 1                  TRA     s:1449

     1636     1316    3                    ELSE VIP.STEP=IV_DONE;

   1316  1 000067   000000 376000 2                  ANQ     0
         1 000070   000006 276007                    ORQ     6,DL
         1 000071   000017 756100                    STQ     15,,PR0
         1 000072   001030 710000 1                  TRA     s:1449

     1637     1317    3               CASE(IV_NEXTTRACK);         /* NEXT TRACK */

     1638     1318    3                 VIP.STEP=IV_BEGIN;

   1318  1 000073   000000 236000 2                  LDQ     0
         1 000074   000017 356100                    ANSQ    15,,PR0

     1639     1319    3                 VIP.DISKERR='0'B;
PL6.E3A0      #006=IVV$NEXT File=IVV$VOLINIT.:E05TSI                             TUE 07/29/97 23:20 Page:348

   1319  1 000075   000001 236000 2                  LDQ     1
         1 000076   000017 356100                    ANSQ    15,,PR0

     1640     1320    3                 IF VIP.MODEL='MSU0501 ' OR VIP.MODEL='MSU0509 ' THEN

   1320  1 000077   040000 106500                    CMPC    fill='040'O
         1 000100   000007 000010                    ADSC9   7,,PR0                   cn=0,n=8
         1 000101   000010 000010 0                  ADSC9   CEDATA+8                 cn=0,n=8
         1 000102   000107 600000 1                  TZE     s:1322
         1 000103   040000 106500                    CMPC    fill='040'O
         1 000104   000007 000010                    ADSC9   7,,PR0                   cn=0,n=8
         1 000105   000012 000010 0                  ADSC9   CEDATA+10                cn=0,n=8
         1 000106   000210 601000 1                  TNZ     s:1344

     1641     1321    4                 DO;

     1642     1322    5                    IF VIP.CTRACK < VIP.RANGE.LTRACK(VIP.CRANGE) THEN DO;

   1322  1 000107   000015 720100                    LXL0    13,,PR0
         1 000110   000024 721110                    LXL1    20,X0,PR0
         1 000111   000016 101100                    CMPX1   14,,PR0
         1 000112   000146 602000 1                  TNC     s:1331
         1 000113   000146 600000 1                  TZE     s:1331

     1643     1323    5                       IF VIP.CTR.HD < VIP.NHEADS-1 THEN

   1323  1 000114   000014 236100                    LDQ     12,,PR0
         1 000115   000022 772000                    QRL     18
         1 000116   000777 376007                    ANQ     511,DL
         1 000117   000001 136007                    SBLQ    1,DL
         1 000120   200026 756100                    STQ     @SECTOR+1,,AUTO
         1 000121   000016 236100                    LDQ     14,,PR0
         1 000122   000022 772000                    QRL     18
         1 000123   000377 376007                    ANQ     255,DL
         1 000124   200026 116100                    CMPQ    @SECTOR+1,,AUTO
         1 000125   000134 605000 1                  TPL     s:1326
PL6.E3A0      #006=IVV$NEXT File=IVV$VOLINIT.:E05TSI                             TUE 07/29/97 23:20 Page:349

     1644     1324    5                          VIP.CTR.HD=VIP.CTR.HD+1;

   1324  1 000126   000001 036007                    ADLQ    1,DL
         1 000127   000022 736000                    QLS     18
         1 000130   000016 676100                    ERQ     14,,PR0
         1 000131   000377 376003                    ANQ     255,DU
         1 000132   000016 656100                    ERSQ    14,,PR0
         1 000133   000167 710000 1                  TRA     s:1337

     1645     1325    6                       ELSE DO;

     1646     1326    6                          VIP.CTR.HD=0;

   1326  1 000134   000002 236000 2                  LDQ     2
         1 000135   000016 356100                    ANSQ    14,,PR0

     1647     1327    6                          VIP.CTR.CYL=VIP.CTR.CYL+1;

   1327  1 000136   000016 236100                    LDQ     14,,PR0
         1 000137   000032 772000                    QRL     26
         1 000140   000001 036007                    ADLQ    1,DL
         1 000141   000032 736000                    QLS     26
         1 000142   000016 676100                    ERQ     14,,PR0
         1 000143   777400 376003                    ANQ     -256,DU
         1 000144   000016 656100                    ERSQ    14,,PR0

     1648     1328    6                          END;

     1649     1329    5                       END;

   1329  1 000145   000167 710000 1                  TRA     s:1337

     1650     1330    5                    ELSE DO;

     1651     1331    5                       VIP.CRANGE=VIP.CRANGE+1;

PL6.E3A0      #006=IVV$NEXT File=IVV$VOLINIT.:E05TSI                             TUE 07/29/97 23:20 Page:350
   1331  1 000146   000001 622010                    EAX2    1,X0
         1 000147   000015 442100                    SXL2    13,,PR0

     1652     1332    6                       IF VIP.CRANGE < VIP.NRANGES THEN DO;

   1332  1 000150   000020 236100                    LDQ     16,,PR0
         1 000151   000033 772000                    QRL     27
         1 000152   200026 756100                    STQ     @SECTOR+1,,AUTO
         1 000153   000015 236100                    LDQ     13,,PR0
         1 000154   777777 376007                    ANQ     -1,DL
         1 000155   200026 116100                    CMPQ    @SECTOR+1,,AUTO
         1 000156   000163 605000 1                  TPL     s:1335

     1653     1333    6                          VIP.CTRACK=VIP.RANGE.FTRACK(VIP.CRANGE);

   1333  1 000157   000015 720100                    LXL0    13,,PR0
         1 000160   000024 221110                    LDX1    20,X0,PR0
         1 000161   000016 741100                    STX1    14,,PR0

     1654     1334    6                          END;

   1334  1 000162   000167 710000 1                  TRA     s:1337

     1655     1335    5                       ELSE VIP.STEP=IV_DONE;

   1335  1 000163   000017 236100                    LDQ     15,,PR0
         1 000164   000000 376000 2                  ANQ     0
         1 000165   000006 276007                    ORQ     6,DL
         1 000166   000017 756100                    STQ     15,,PR0

     1656     1336    5                       END;

     1657     1337    5                    IF VIP.CTR.CYL=840 AND VIP.CTR.HD>=20 THEN DO;

   1337  1 000167   000016 236100                    LDQ     14,,PR0
         1 000170   777400 376003                    ANQ     -256,DU
         1 000171   644000 116003                    CMPQ    -47104,DU
PL6.E3A0      #006=IVV$NEXT File=IVV$VOLINIT.:E05TSI                             TUE 07/29/97 23:20 Page:351
         1 000172   000205 601000 1                  TNZ     s:1341
         1 000173   000016 236100                    LDQ     14,,PR0
         1 000174   000377 376003                    ANQ     255,DU
         1 000175   000024 116003                    CMPQ    20,DU
         1 000176   000205 602000 1                  TNC     s:1341

     1658     1338    5                       VIP.CTR.CYL=841;

   1338  1 000177   000016 236100                    LDQ     14,,PR0
         1 000200   000003 376000 2                  ANQ     3
         1 000201   644400 276003                    ORQ     -46848,DU
         1 000202   000016 756100                    STQ     14,,PR0

     1659     1339    5                       VIP.CTR.HD=0;

   1339  1 000203   000002 236000 2                  LDQ     2
         1 000204   000016 356100                    ANSQ    14,,PR0

     1660     1340    5                       END;

     1661     1341    4                    TRACK=VIP.CTRACK;

   1341  1 000205   000016 220100                    LDX0    14,,PR0
         1 000206   200020 740100                    STX0    TRACK,,AUTO

     1662     1342    4                    END;

   1342  1 000207   001030 710000 1                  TRA     s:1449

     1663     1343    4                 ELSE DO;

     1664     1344    4                    FMT.SEEK.SECTOR=FMT.SEEK.SECTOR+VIP.NSECTS;

   1344  1 000210   000014 236100                    LDQ     12,,PR0
         1 000211   000033 772000                    QRL     27
         1 000212   200026 756100                    STQ     @SECTOR+1,,AUTO
         1 000213   200013 471500                    LDP1    FMT$,,AUTO
PL6.E3A0      #006=IVV$NEXT File=IVV$VOLINIT.:E05TSI                             TUE 07/29/97 23:20 Page:352
         1 000214   100007 236100                    LDQ     7,,PR1
         1 000215   000004 376000 2                  ANQ     4
         1 000216   200026 036100                    ADLQ    @SECTOR+1,,AUTO
         1 000217   100007 676100                    ERQ     7,,PR1
         1 000220   000004 376000 2                  ANQ     4
         1 000221   100007 656100                    ERSQ    7,,PR1

     1665     1345    4                    J=FMT.SEEK.SECTOR/VIP.NSECTS;

   1345  1 000222   000014 236100                    LDQ     12,,PR0
         1 000223   000033 772000                    QRL     27
         1 000224   200026 756100                    STQ     @SECTOR+1,,AUTO
         1 000225   100007 236100                    LDQ     7,,PR1
         1 000226   000004 376000 2                  ANQ     4
         1 000227   200026 506100                    DIV     @SECTOR+1,,AUTO
         1 000230   200016 756100                    STQ     J,,AUTO

     1666     1346    4                    TR.CYL=J/VIP.NHEADS;

   1346  1 000231   000014 236100                    LDQ     12,,PR0
         1 000232   000022 772000                    QRL     18
         1 000233   000777 376007                    ANQ     511,DL
         1 000234   200026 756100                    STQ     @SECTOR+1,,AUTO
         1 000235   200016 236100                    LDQ     J,,AUTO
         1 000236   200026 506100                    DIV     @SECTOR+1,,AUTO
         1 000237   000032 736000                    QLS     26
         1 000240   200020 676100                    ERQ     TRACK,,AUTO
         1 000241   777400 376003                    ANQ     -256,DU
         1 000242   200020 656100                    ERSQ    TRACK,,AUTO

     1667     1347    4                    TR.HD=MOD(J,VIP.NHEADS);

   1347  1 000243   000014 236100                    LDQ     12,,PR0
         1 000244   000022 772000                    QRL     18
         1 000245   000777 376007                    ANQ     511,DL
         1 000246   200026 756100                    STQ     @SECTOR+1,,AUTO
         1 000247   200016 236100                    LDQ     J,,AUTO
PL6.E3A0      #006=IVV$NEXT File=IVV$VOLINIT.:E05TSI                             TUE 07/29/97 23:20 Page:353
         1 000250   200026 506100                    DIV     @SECTOR+1,,AUTO
         1 000251   000044 733000                    LRS     36
         1 000252   000022 736000                    QLS     18
         1 000253   200020 752110                    STCQ    TRACK,'10'O,AUTO

     1668     1348    5                    IF TR.CYL=VIP.NCYLS AND TR.HD=0 THEN DO;

   1348  1 000254   000014 236100                    LDQ     12,,PR0
         1 000255   777777 376007                    ANQ     -1,DL
         1 000256   200026 756100                    STQ     @SECTOR+1,,AUTO
         1 000257   200020 236100                    LDQ     TRACK,,AUTO
         1 000260   000032 772000                    QRL     26
         1 000261   200026 116100                    CMPQ    @SECTOR+1,,AUTO
         1 000262   000315 601000 1                  TNZ     s:1353
         1 000263   200020 236100                    LDQ     TRACK,,AUTO
         1 000264   000077 316003                    CANQ    63,DU
         1 000265   000315 601000 1                  TNZ     s:1353

     1669     1349    5                       FMT.SEEK.SECTOR=VIP.T@DCYL*VIP.NHEADS*VIP.NSECTS;

   1349  1 000266   000014 236100                    LDQ     12,,PR0
         1 000267   000022 772000                    QRL     18
         1 000270   000777 376007                    ANQ     511,DL
         1 000271   200026 756100                    STQ     @SECTOR+1,,AUTO
         1 000272   000015 236100                    LDQ     13,,PR0
         1 000273   000022 772000                    QRL     18
         1 000274   200026 402100                    MPY     @SECTOR+1,,AUTO
         1 000275   200027 756100                    STQ     @SECTOR+2,,AUTO
         1 000276   000014 236100                    LDQ     12,,PR0
         1 000277   000033 772000                    QRL     27
         1 000300   200030 756100                    STQ     @SECTOR+3,,AUTO
         1 000301   200027 236100                    LDQ     @SECTOR+2,,AUTO
         1 000302   200030 402100                    MPY     @SECTOR+3,,AUTO
         1 000303   100007 676100                    ERQ     7,,PR1
         1 000304   000004 376000 2                  ANQ     4
         1 000305   100007 656100                    ERSQ    7,,PR1

PL6.E3A0      #006=IVV$NEXT File=IVV$VOLINIT.:E05TSI                             TUE 07/29/97 23:20 Page:354
     1670     1350    5                       TR.CYL=VIP.T@DCYL;

   1350  1 000306   000015 236100                    LDQ     13,,PR0
         1 000307   000010 736000                    QLS     8
         1 000310   200020 676100                    ERQ     TRACK,,AUTO
         1 000311   777400 376003                    ANQ     -256,DU
         1 000312   200020 656100                    ERSQ    TRACK,,AUTO

     1671     1351    5                       TR.HD=0;

   1351  1 000313   000000 236003                    LDQ     0,DU
         1 000314   200020 752110                    STCQ    TRACK,'10'O,AUTO

     1672     1352    5                       END;

     1673     1353    5                    IF TRACK>VIP.RANGE.LTRACK(VIP.CRANGE) THEN DO;

   1353  1 000315   000015 720100                    LXL0    13,,PR0
         1 000316   000024 721110                    LXL1    20,X0,PR0
         1 000317   200020 101100                    CMPX1   TRACK,,AUTO
         1 000320   000373 603000 1                  TRC     s:1361

     1674     1354    5                       VIP.CRANGE=VIP.CRANGE+1;

   1354  1 000321   000001 622010                    EAX2    1,X0
         1 000322   000015 442100                    SXL2    13,,PR0

     1675     1355    5                       IF VIP.CRANGE>=VIP.NRANGES THEN VIP.STEP=IV_DONE;

   1355  1 000323   000020 236100                    LDQ     16,,PR0
         1 000324   000033 772000                    QRL     27
         1 000325   200026 756100                    STQ     @SECTOR+1,,AUTO
         1 000326   000015 236100                    LDQ     13,,PR0
         1 000327   777777 376007                    ANQ     -1,DL
         1 000330   200026 116100                    CMPQ    @SECTOR+1,,AUTO
         1 000331   000337 604000 1                  TMI     s:1357

PL6.E3A0      #006=IVV$NEXT File=IVV$VOLINIT.:E05TSI                             TUE 07/29/97 23:20 Page:355
   1355  1 000332   000017 236100                    LDQ     15,,PR0
         1 000333   000000 376000 2                  ANQ     0
         1 000334   000006 276007                    ORQ     6,DL
         1 000335   000017 756100                    STQ     15,,PR0
         1 000336   000373 710000 1                  TRA     s:1361

     1676     1356    6                       ELSE DO;

     1677     1357    6                         FMT.SEEK.SECTOR=(VIP.RANGE.FT.CYL(VIP.CRANGE)*VIP.NHEADS+VIP.
              1357                                   RANGE.FT.HD(VIP.CRANGE))*VIP.NSECTS;

   1357  1 000337   000015 720100                    LXL0    13,,PR0
         1 000340   000014 236100                    LDQ     12,,PR0
         1 000341   000022 772000                    QRL     18
         1 000342   000777 376007                    ANQ     511,DL
         1 000343   200026 756100                    STQ     @SECTOR+1,,AUTO
         1 000344   000024 236110                    LDQ     20,X0,PR0
         1 000345   000032 772000                    QRL     26
         1 000346   200026 402100                    MPY     @SECTOR+1,,AUTO
         1 000347   000015 720100                    LXL0    13,,PR0
         1 000350   200027 756100                    STQ     @SECTOR+2,,AUTO
         1 000351   000024 236110                    LDQ     20,X0,PR0
         1 000352   000022 772000                    QRL     18
         1 000353   000377 376007                    ANQ     255,DL
         1 000354   200030 756100                    STQ     @SECTOR+3,,AUTO
         1 000355   200027 236100                    LDQ     @SECTOR+2,,AUTO
         1 000356   200030 036100                    ADLQ    @SECTOR+3,,AUTO
         1 000357   200031 756100                    STQ     @SECTOR+4,,AUTO
         1 000360   000014 236100                    LDQ     12,,PR0
         1 000361   000033 772000                    QRL     27
         1 000362   200032 756100                    STQ     @SECTOR+5,,AUTO
         1 000363   200031 236100                    LDQ     @SECTOR+4,,AUTO
         1 000364   200032 402100                    MPY     @SECTOR+5,,AUTO
         1 000365   100007 676100                    ERQ     7,,PR1
         1 000366   000004 376000 2                  ANQ     4
         1 000367   100007 656100                    ERSQ    7,,PR1

PL6.E3A0      #006=IVV$NEXT File=IVV$VOLINIT.:E05TSI                             TUE 07/29/97 23:20 Page:356
     1678     1358    6                          TRACK=VIP.RANGE.FTRACK(VIP.CRANGE);

   1358  1 000370   000015 720100                    LXL0    13,,PR0
         1 000371   000024 221110                    LDX1    20,X0,PR0
         1 000372   200020 741100                    STX1    TRACK,,AUTO

     1679     1359    6                          END;

     1680     1360    5                       END;

     1681     1361    5                    IF TR.CYL>=VIP.T@DCYL THEN DO;

   1361  1 000373   000015 236100                    LDQ     13,,PR0
         1 000374   000022 772000                    QRL     18
         1 000375   200026 756100                    STQ     @SECTOR+1,,AUTO
         1 000376   200020 236100                    LDQ     TRACK,,AUTO
         1 000377   000032 772000                    QRL     26
         1 000400   200026 116100                    CMPQ    @SECTOR+1,,AUTO
         1 000401   001030 604000 1                  TMI     s:1449

     1682     1362    5                       IF VIP.GRANSIZE=2 THEN FMT.SEEK_IDCW='357700720000'O;

   1362  1 000402   000020 236100                    LDQ     16,,PR0
         1 000403   000777 376003                    ANQ     511,DU
         1 000404   000002 116003                    CMPQ    2,DU
         1 000405   000411 601000 1                  TNZ     s:1363

   1362  1 000406   000014 236000 0                  LDQ     CEDATA+12
         1 000407   100000 756100                    STQ     0,,PR1
         1 000410   001030 710000 1                  TRA     s:1449

     1683     1363    5                       ELSE FMT.SEEK_IDCW='367700720000'O;

   1363  1 000411   000015 236000 0                  LDQ     CEDATA+13
         1 000412   100000 756100                    STQ     0,,PR1

     1684     1364    5                       END;
PL6.E3A0      #006=IVV$NEXT File=IVV$VOLINIT.:E05TSI                             TUE 07/29/97 23:20 Page:357

     1685     1365    4                    END;

   1365  1 000413   001030 710000 1                  TRA     s:1449

     1686     1366    3               CASE(IV_INITFMT);           /* INITIALIZE FOR FORMATTING */

     1687     1367    3                 FMT.IDCW.DC=%FORMAT;

   1367  1 000414   200013 471500                    LDP1    FMT$,,AUTO
         1 000415   170000 236003                    LDQ     61440,DU
         1 000416   100002 752140                    STCQ    2,'40'O,PR1

     1688     1368    3                 FMT.DCW=FMT.HEADER_DCW;

   1368  1 000417   000100 100500                    MLR     fill='000'O
         1 000420   100011 000020                    ADSC9   9,,PR1                   cn=0,n=16
         1 000421   100003 000020                    ADSC9   3,,PR1                   cn=0,n=16

     1689     1369    3                 IF VIP.MODEL='MSU0501 ' OR VIP.MODEL='MSU0509 ' THEN

   1369  1 000422   040000 106500                    CMPC    fill='040'O
         1 000423   000007 000010                    ADSC9   7,,PR0                   cn=0,n=8
         1 000424   000010 000010 0                  ADSC9   CEDATA+8                 cn=0,n=8
         1 000425   000432 600000 1                  TZE     s:1370
         1 000426   040000 106500                    CMPC    fill='040'O
         1 000427   000007 000010                    ADSC9   7,,PR0                   cn=0,n=8
         1 000430   000012 000010 0                  ADSC9   CEDATA+10                cn=0,n=8
         1 000431   000437 601000 1                  TNZ     s:1371

     1690     1370    3                    CALL CONVMPC(FMT.SEEK.SECTOR);

   1370  1 000432   200013 236100                    LDQ     FMT$,,AUTO
         1 000433   000005 036000 2                  ADLQ    5
         1 000434   200025 756100                    STQ     VID$+3,,AUTO
         1 000435   001152 701000 1                  TSX1    CONVMPC
         1 000436   000000 011000                    NOP     0
PL6.E3A0      #006=IVV$NEXT File=IVV$VOLINIT.:E05TSI                             TUE 07/29/97 23:20 Page:358

     1691     1371    3                 CALL IVV$HEADER(VIP);

   1371  1 000437   200003 630500                    EPPR0   @VIP,,AUTO
         1 000440   000017 631400 xsym               EPPR1   B_VECTNIL+15
         1 000441   000000 701000 xent               TSX1    IVV$HEADER
         1 000442   000000 011000                    NOP     0

     1692     1372    3                 VIP.STEP=IV_COMPFMT;

   1372  1 000443   200003 470500                    LDP0    @VIP,,AUTO
         1 000444   000017 236100                    LDQ     15,,PR0
         1 000445   000000 376000 2                  ANQ     0
         1 000446   000003 276007                    ORQ     3,DL
         1 000447   000017 756100                    STQ     15,,PR0

     1693     1373    3                 LOOP='0'B;

   1373  1 000450   200017 450100                    STZ     LOOP,,AUTO
         1 000451   001030 710000 1                  TRA     s:1449

     1694     1374    3               CASE(IV_COMPFMT);           /* FORMATTING COMPLETE */

     1695     1375    4                 IF TYC AND NOT VIP.DISKERR THEN DO;

   1375  1 000452   200004 471500                    LDP1    @TYC,,AUTO
         1 000453   100000 235100                    LDA     0,,PR1
         1 000454   000472 600000 1                  TZE     s:1381
         1 000455   000017 236100                    LDQ     15,,PR0
         1 000456   001000 316007                    CANQ    512,DL
         1 000457   000472 601000 1                  TNZ     s:1381

     1696     1376    4                    CALL MARKDT;

   1376  1 000460   001040 701000 1                  TSX1    MARKDT
         1 000461   000000 011000                    NOP     0

PL6.E3A0      #006=IVV$NEXT File=IVV$VOLINIT.:E05TSI                             TUE 07/29/97 23:20 Page:359
     1697     1377    4                    VIP.DISKERR='1'B;

   1377  1 000462   200003 470500                    LDP0    @VIP,,AUTO
         1 000463   001000 236007                    LDQ     512,DL
         1 000464   000017 256100                    ORSQ    15,,PR0

     1698     1378    4                    VIP.STEP=IV_INITFMT;

   1378  1 000465   000017 236100                    LDQ     15,,PR0
         1 000466   000000 376000 2                  ANQ     0
         1 000467   000002 276007                    ORQ     2,DL
         1 000470   000017 756100                    STQ     15,,PR0

     1699     1379    4                    END;

   1379  1 000471   000507 710000 1                  TRA     s:1385

     1700     1380    3                 ELSE
     1701     1381    3                    IF VIP.TEST AND NOT VIP.DISKERR THEN

   1381  1 000472   000017 236100                    LDQ     15,,PR0
         1 000473   100000 316007                    CANQ    32768,DL
         1 000474   000503 600000 1                  TZE     s:1384
         1 000475   001000 316007                    CANQ    512,DL
         1 000476   000503 601000 1                  TNZ     s:1384

     1702     1382    3                       VIP.STEP=IV_INITTEST;

   1382  1 000477   000000 376000 2                  ANQ     0
         1 000500   000004 276007                    ORQ     4,DL
         1 000501   000017 756100                    STQ     15,,PR0
         1 000502   000507 710000 1                  TRA     s:1385

     1703     1383    3                    ELSE
     1704     1384    3                       IF VIP.MODEL = 'MSU509 ' THEN GOTO M509;

   1384  1 000503   040000 106500                    CMPC    fill='040'O
PL6.E3A0      #006=IVV$NEXT File=IVV$VOLINIT.:E05TSI                             TUE 07/29/97 23:20 Page:360
         1 000504   000007 000010                    ADSC9   7,,PR0                   cn=0,n=8
         1 000505   000016 000007 0                  ADSC9   CEDATA+14                cn=0,n=7
         1 000506   000530 600000 1                  TZE     M509

     1705     1385    3                 IF VIP.MODEL='MSU0501 ' THEN

   1385  1 000507   040000 106500                    CMPC    fill='040'O
         1 000510   000007 000010                    ADSC9   7,,PR0                   cn=0,n=8
         1 000511   000010 000010 0                  ADSC9   CEDATA+8                 cn=0,n=8
         1 000512   000530 601000 1                  TNZ     M509

     1706     1386    3                    IF VIP.CTR.CYL=842 AND VIP.CTR.HD=39 THEN VIP.STEP=IV_INITCE;

   1386  1 000513   000016 236100                    LDQ     14,,PR0
         1 000514   777400 376003                    ANQ     -256,DU
         1 000515   645000 116003                    CMPQ    -46592,DU
         1 000516   001030 601000 1                  TNZ     s:1449
         1 000517   000016 236100                    LDQ     14,,PR0
         1 000520   000377 376003                    ANQ     255,DU
         1 000521   000047 116003                    CMPQ    39,DU
         1 000522   001030 601000 1                  TNZ     s:1449

   1386  1 000523   000017 236100                    LDQ     15,,PR0
         1 000524   000000 376000 2                  ANQ     0
         1 000525   000007 276007                    ORQ     7,DL
         1 000526   000017 756100                    STQ     15,,PR0
         1 000527   001030 710000 1                  TRA     s:1449

     1707     1387    3                    ELSE;
     1708     1388    3                 ELSE
     1709     1389    3   M509:            VIP.STEP=IV_NEXTTRACK;

   1389  1 000530   000017 236100       M509         LDQ     15,,PR0
         1 000531   000000 376000 2                  ANQ     0
         1 000532   000001 276007                    ORQ     1,DL
         1 000533   000017 756100                    STQ     15,,PR0
         1 000534   001030 710000 1                  TRA     s:1449
PL6.E3A0      #006=IVV$NEXT File=IVV$VOLINIT.:E05TSI                             TUE 07/29/97 23:20 Page:361

     1710     1390    3               CASE(IV_INITTEST);          /* INITIALIZE FOR SURFACE TEST */

     1711     1391    3                 IF VIP.MODEL='MSU0501 ' OR VIP.MODEL='MSU0509 ' THEN

   1391  1 000535   040000 106500                    CMPC    fill='040'O
         1 000536   000007 000010                    ADSC9   7,,PR0                   cn=0,n=8
         1 000537   000010 000010 0                  ADSC9   CEDATA+8                 cn=0,n=8
         1 000540   000545 600000 1                  TZE     s:1392
         1 000541   040000 106500                    CMPC    fill='040'O
         1 000542   000007 000010                    ADSC9   7,,PR0                   cn=0,n=8
         1 000543   000012 000010 0                  ADSC9   CEDATA+10                cn=0,n=8
         1 000544   000552 601000 1                  TNZ     s:1393

     1712     1392    3                    CALL CONVMPC(FMT.SEEK.SECTOR);

   1392  1 000545   200013 236100                    LDQ     FMT$,,AUTO
         1 000546   000005 036000 2                  ADLQ    5
         1 000547   200025 756100                    STQ     VID$+3,,AUTO
         1 000550   001152 701000 1                  TSX1    CONVMPC
         1 000551   000000 011000                    NOP     0

     1713     1393    3                 FMT.IDCW.DC=%WRCMP;

   1393  1 000552   200013 470500                    LDP0    FMT$,,AUTO
         1 000553   330000 236003                    LDQ     110592,DU
         1 000554   000002 752140                    STCQ    2,'40'O,PR0

     1714     1394    3                 FMT.DCW=FMT.DATA_DCW;

   1394  1 000555   000100 100500                    MLR     fill='000'O
         1 000556   000015 000020                    ADSC9   13,,PR0                  cn=0,n=16
         1 000557   000003 000020                    ADSC9   3,,PR0                   cn=0,n=16

     1715     1395    3                 VIP.STEP=IV_COMPTEST;

   1395  1 000560   200003 471500                    LDP1    @VIP,,AUTO
PL6.E3A0      #006=IVV$NEXT File=IVV$VOLINIT.:E05TSI                             TUE 07/29/97 23:20 Page:362
         1 000561   100017 236100                    LDQ     15,,PR1
         1 000562   000000 376000 2                  ANQ     0
         1 000563   000005 276007                    ORQ     5,DL
         1 000564   100017 756100                    STQ     15,,PR1

     1716     1396    3                 LOOP='0'B;

   1396  1 000565   200017 450100                    STZ     LOOP,,AUTO
         1 000566   001030 710000 1                  TRA     s:1449

     1717     1397    3               CASE(IV_COMPTEST);          /* SURFACE TEST COMPLETE */

     1718     1398    4                 IF TYC THEN DO;

   1398  1 000567   200004 471500                    LDP1    @TYC,,AUTO
         1 000570   100000 235100                    LDA     0,,PR1
         1 000571   000613 600000 1                  TZE     s:1409

     1719     1399    4                    CALL MARKDT;

   1399  1 000572   001040 701000 1                  TSX1    MARKDT
         1 000573   000000 011000                    NOP     0

     1720     1400    5                    IF VIP.FORMAT THEN DO;

   1400  1 000574   200003 470500                    LDP0    @VIP,,AUTO
         1 000575   000017 236100                    LDQ     15,,PR0
         1 000576   400000 316007                    CANQ    -131072,DL
         1 000577   000607 600000 1                  TZE     s:1405

     1721     1401    5                       VIP.DISKERR='1'B;

   1401  1 000600   001000 236007                    LDQ     512,DL
         1 000601   000017 256100                    ORSQ    15,,PR0

     1722     1402    5                       VIP.STEP=IV_INITFMT;

PL6.E3A0      #006=IVV$NEXT File=IVV$VOLINIT.:E05TSI                             TUE 07/29/97 23:20 Page:363
   1402  1 000602   000017 236100                    LDQ     15,,PR0
         1 000603   000000 376000 2                  ANQ     0
         1 000604   000002 276007                    ORQ     2,DL
         1 000605   000017 756100                    STQ     15,,PR0

     1723     1403    5                       END;

   1403  1 000606   001030 710000 1                  TRA     s:1449

     1724     1404    5                    ELSE DO;

     1725     1405    5                       VIP.STEP=IV_NEXTTRACK;

   1405  1 000607   000000 376000 2                  ANQ     0
         1 000610   000001 276007                    ORQ     1,DL
         1 000611   000017 756100                    STQ     15,,PR0

     1726     1406    5                       END;

     1727     1407    4                    END;

   1407  1 000612   001030 710000 1                  TRA     s:1449

     1728     1408    4                 ELSE DO;

     1729     1409    4                    IF VIP.MODEL='MSU0501 ' OR VIP.MODEL='MSU0509 ' THEN

   1409  1 000613   040000 106500                    CMPC    fill='040'O
         1 000614   000007 000010                    ADSC9   7,,PR0                   cn=0,n=8
         1 000615   000010 000010 0                  ADSC9   CEDATA+8                 cn=0,n=8
         1 000616   000623 600000 1                  TZE     s:1410
         1 000617   040000 106500                    CMPC    fill='040'O
         1 000620   000007 000010                    ADSC9   7,,PR0                   cn=0,n=8
         1 000621   000012 000010 0                  ADSC9   CEDATA+10                cn=0,n=8
         1 000622   000645 601000 1                  TNZ     s:1413

     1730     1410    4                       IF VIP.CTR.CYL=842 AND VIP.CTR.HD=39 THEN VIP.STEP=IV_INITCE;
PL6.E3A0      #006=IVV$NEXT File=IVV$VOLINIT.:E05TSI                             TUE 07/29/97 23:20 Page:364

   1410  1 000623   000016 236100                    LDQ     14,,PR0
         1 000624   777400 376003                    ANQ     -256,DU
         1 000625   645000 116003                    CMPQ    -46592,DU
         1 000626   000640 601000 1                  TNZ     s:1412
         1 000627   000016 236100                    LDQ     14,,PR0
         1 000630   000377 376003                    ANQ     255,DU
         1 000631   000047 116003                    CMPQ    39,DU
         1 000632   000640 601000 1                  TNZ     s:1412

   1410  1 000633   000017 236100                    LDQ     15,,PR0
         1 000634   000000 376000 2                  ANQ     0
         1 000635   000007 276007                    ORQ     7,DL
         1 000636   000017 756100                    STQ     15,,PR0
         1 000637   001030 710000 1                  TRA     s:1449

     1731     1411    4                       ELSE
     1732     1412    4                          VIP.STEP=IV_NEXTTRACK;

   1412  1 000640   000017 236100                    LDQ     15,,PR0
         1 000641   000000 376000 2                  ANQ     0
         1 000642   000001 276007                    ORQ     1,DL
         1 000643   000017 756100                    STQ     15,,PR0
         1 000644   001030 710000 1                  TRA     s:1449

     1733     1413    4                    ELSE VIP.STEP=IV_NEXTTRACK;

   1413  1 000645   000017 236100                    LDQ     15,,PR0
         1 000646   000000 376000 2                  ANQ     0
         1 000647   000001 276007                    ORQ     1,DL
         1 000650   000017 756100                    STQ     15,,PR0

     1734     1414    4                    END;

   1414  1 000651   001030 710000 1                  TRA     s:1449

     1735     1415    3               CASE(IV_INITCE);
PL6.E3A0      #006=IVV$NEXT File=IVV$VOLINIT.:E05TSI                             TUE 07/29/97 23:20 Page:365

     1736     1416    4                 DO I=0 TO 3 BY 1;

   1416  1 000652   200015 450100                    STZ     I,,AUTO

     1737     1417    4                    DATA(I)=CEDATA(I);

   1417  1 000653   200015 236100                    LDQ     I,,AUTO
         1 000654   000044 402007                    MPY     36,DL
         1 000655   000000 116003                    CMPQ    0,DU
         1 000656   000660 605000 1                  TPL     s:1417+5
         1 000657   000044 036003                    ADLQ    36,DU
         1 000660   200026 756100                    STQ     @SECTOR+1,,AUTO
         1 000661   200015 236100                    LDQ     I,,AUTO
         1 000662   000044 402007                    MPY     36,DL
         1 000663   000000 116003                    CMPQ    0,DU
         1 000664   000666 605000 1                  TPL     s:1417+11
         1 000665   000044 036003                    ADLQ    36,DU
         1 000666   200026 235100                    LDA     @SECTOR+1,,AUTO
         1 000667   200006 470500                    LDP0    DATA$,,AUTO
         1 000670   003106 060405                    CSL     bolr='003'O
         1 000671   000000 000044 0                  BDSC    CEDATA,A                 by=0,bit=0,n=36
         1 000672   000000 000044                    BDSC    0,Q,PR0                  by=0,bit=0,n=36

     1738     1418    4                    END;

   1418  1 000673   200015 054100                    AOS     I,,AUTO
         1 000674   200015 235100                    LDA     I,,AUTO
         1 000675   000003 115007                    CMPA    3,DL
         1 000676   000653 604400 1                  TMOZ    s:1417

     1739     1419    4                 DO I=4 TO 575 BY 4;

   1419  1 000677   000004 236007                    LDQ     4,DL
         1 000700   200015 756100                    STQ     I,,AUTO

     1740     1420    5                    DO J=0 TO 3 BY 1;
PL6.E3A0      #006=IVV$NEXT File=IVV$VOLINIT.:E05TSI                             TUE 07/29/97 23:20 Page:366

   1420  1 000701   200016 450100                    STZ     J,,AUTO

     1741     1421    5                       DATA(I+J)=CEDATA(4+J);

   1421  1 000702   200015 236100                    LDQ     I,,AUTO
         1 000703   200016 036100                    ADLQ    J,,AUTO
         1 000704   200026 756100                    STQ     @SECTOR+1,,AUTO
         1 000705   200016 236100                    LDQ     J,,AUTO
         1 000706   000044 402007                    MPY     36,DL
         1 000707   000000 116003                    CMPQ    0,DU
         1 000710   000712 605000 1                  TPL     s:1421+8
         1 000711   000044 036003                    ADLQ    36,DU
         1 000712   200027 756100                    STQ     @SECTOR+2,,AUTO
         1 000713   200026 236100                    LDQ     @SECTOR+1,,AUTO
         1 000714   000044 402007                    MPY     36,DL
         1 000715   000000 116003                    CMPQ    0,DU
         1 000716   000720 605000 1                  TPL     s:1421+14
         1 000717   000044 036003                    ADLQ    36,DU
         1 000720   200027 235100                    LDA     @SECTOR+2,,AUTO
         1 000721   200006 470500                    LDP0    DATA$,,AUTO
         1 000722   003106 060405                    CSL     bolr='003'O
         1 000723   000004 000044 0                  BDSC    CEDATA+4,A               by=0,bit=0,n=36
         1 000724   000000 000044                    BDSC    0,Q,PR0                  by=0,bit=0,n=36

     1742     1422    5                       END;

   1422  1 000725   200016 054100                    AOS     J,,AUTO
         1 000726   200016 235100                    LDA     J,,AUTO
         1 000727   000003 115007                    CMPA    3,DL
         1 000730   000702 604400 1                  TMOZ    s:1421

     1743     1423    4                    END;

   1423  1 000731   000004 236007                    LDQ     4,DL
         1 000732   200015 056100                    ASQ     I,,AUTO
         1 000733   200015 235100                    LDA     I,,AUTO
PL6.E3A0      #006=IVV$NEXT File=IVV$VOLINIT.:E05TSI                             TUE 07/29/97 23:20 Page:367
         1 000734   001077 115007                    CMPA    575,DL
         1 000735   000701 604400 1                  TMOZ    s:1420

     1744     1424    3                 FMT.IDCW.DC=%WRASC;

   1424  1 000736   200013 471500                    LDP1    FMT$,,AUTO
         1 000737   320000 236003                    LDQ     106496,DU
         1 000740   100002 752140                    STCQ    2,'40'O,PR1

     1745     1425    3                 FMT.DCW=FMT.DATA_DCW;

   1425  1 000741   000100 100500                    MLR     fill='000'O
         1 000742   100015 000020                    ADSC9   13,,PR1                  cn=0,n=16
         1 000743   100003 000020                    ADSC9   3,,PR1                   cn=0,n=16

     1746     1426    3                 FMT.DCW.TALLY(0)=576;

   1426  1 000744   001100 236007                    LDQ     576,DL
         1 000745   100003 752103                    STCQ    3,'03'O,PR1

     1747     1427    3                 FMT.SEEK.SCL=0;

   1427  1 000746   000006 236000 2                  LDQ     6
         1 000747   100007 356100                    ANSQ    7,,PR1

     1748     1428    3                 FMT.SEEK.Y='1'B;

   1428  1 000750   000010 236003                    LDQ     8,DU
         1 000751   100007 256100                    ORSQ    7,,PR1

     1749     1429    3                 FMT.SEEK.SEC.ELT='1'B;

   1429  1 000752   000004 236003                    LDQ     4,DU
         1 000753   100007 256100                    ORSQ    7,,PR1

     1750     1430    3                 VIP.STEP=IV_COMPCE;

PL6.E3A0      #006=IVV$NEXT File=IVV$VOLINIT.:E05TSI                             TUE 07/29/97 23:20 Page:368
   1430  1 000754   200003 473500                    LDP3    @VIP,,AUTO
         1 000755   300017 236100                    LDQ     15,,PR3
         1 000756   000000 376000 2                  ANQ     0
         1 000757   000010 276007                    ORQ     8,DL
         1 000760   300017 756100                    STQ     15,,PR3

     1751     1431    3                 LOOP='0'B;

   1431  1 000761   200017 450100                    STZ     LOOP,,AUTO
         1 000762   001030 710000 1                  TRA     s:1449

     1752     1432    3               CASE(IV_COMPCE);

     1753     1433    4                 IF TYC THEN DO;

   1433  1 000763   200004 471500                    LDP1    @TYC,,AUTO
         1 000764   100000 235100                    LDA     0,,PR1
         1 000765   000776 600000 1                  TZE     s:1438

     1754     1434    4                    CALL MARKDT;

   1434  1 000766   001040 701000 1                  TSX1    MARKDT
         1 000767   000000 011000                    NOP     0

     1755     1435    4                    VIP.STEP=IV_DONE;

   1435  1 000770   200003 470500                    LDP0    @VIP,,AUTO
         1 000771   000017 236100                    LDQ     15,,PR0
         1 000772   000000 376000 2                  ANQ     0
         1 000773   000006 276007                    ORQ     6,DL
         1 000774   000017 756100                    STQ     15,,PR0

     1756     1436    4                    END;

   1436  1 000775   001030 710000 1                  TRA     s:1449

     1757     1437    4                 ELSE DO;
PL6.E3A0      #006=IVV$NEXT File=IVV$VOLINIT.:E05TSI                             TUE 07/29/97 23:20 Page:369

     1758     1438    4                    IF FMT.SEEK.SCL>= 7 THEN VIP.STEP=IV_DONE;

   1438  1 000776   200013 473500                    LDP3    FMT$,,AUTO
         1 000777   300007 236100                    LDQ     7,,PR3
         1 001000   776000 376003                    ANQ     -1024,DU
         1 001001   016000 116003                    CMPQ    7168,DU
         1 001002   001010 602000 1                  TNC     s:1440

   1438  1 001003   000017 236100                    LDQ     15,,PR0
         1 001004   000000 376000 2                  ANQ     0
         1 001005   000006 276007                    ORQ     6,DL
         1 001006   000017 756100                    STQ     15,,PR0
         1 001007   001030 710000 1                  TRA     s:1449

     1759     1439    5                    ELSE DO;

     1760     1440    5                       FMT.SEEK.SCL=FMT.SEEK.SCL+1;

   1440  1 001010   300007 236100                    LDQ     7,,PR3
         1 001011   000034 772000                    QRL     28
         1 001012   000001 036007                    ADLQ    1,DL
         1 001013   000034 736000                    QLS     28
         1 001014   300007 676100                    ERQ     7,,PR3
         1 001015   776000 376003                    ANQ     -1024,DU
         1 001016   300007 656100                    ERSQ    7,,PR3

     1761     1441    5                       LOOP='0'B;

   1441  1 001017   200017 450100                    STZ     LOOP,,AUTO

     1762     1442    5                       VIP.STEP=IV_COMPCE;

   1442  1 001020   000017 236100                    LDQ     15,,PR0
         1 001021   000000 376000 2                  ANQ     0
         1 001022   000010 276007                    ORQ     8,DL
         1 001023   000017 756100                    STQ     15,,PR0
PL6.E3A0      #006=IVV$NEXT File=IVV$VOLINIT.:E05TSI                             TUE 07/29/97 23:20 Page:370

     1763     1443    5                       END;

     1764     1444    4                    END;

   1444  1 001024   001030 710000 1                  TRA     s:1449

     1765     1445    3               CASE(IV_DONE);              /* VOLINIT DONE */

     1766     1446    3                 VIP.DONE='1'B;

   1446  1 001025   020000 236007                    LDQ     8192,DL
         1 001026   000017 256100                    ORSQ    15,,PR0

     1767     1447    3                 ALTRETURN;

   1447  1 001027   000000 702200 xent               TSX2  ! X66_AALT

     1768     1448    3               END;

     1769     1449    2              END;

   1449  1 001030   200017 234100                    SZN     LOOP,,AUTO
         1 001031   000033 604000 1                  TMI     s:1310

     1770     1450    2           DO INHIBIT;

     1771     1451    2              VIP.IO$=IV_IO$;

   1451  1 001032   000000 236200 xsym               LDQ   ! IV_IO$
         1 001033   200003 470700                    LDP0  ! @VIP,,AUTO
         1 001034   000001 756300                    STQ   ! 1,,PR0

     1772     1452    2              IV_IO$=ADDR(VIP);

   1452  1 001035   200003 236300                    LDQ   ! @VIP,,AUTO
         1 001036   000000 756200 xsym               STQ   ! IV_IO$
PL6.E3A0      #006=IVV$NEXT File=IVV$VOLINIT.:E05TSI                             TUE 07/29/97 23:20 Page:371

     1773     1453    2              END;

     1774     1454    1           RETURN;

   1454  1 001037   000000 702200 xent               TSX2  ! X66_ARET

     1775     1455        %EJECT;
PL6.E3A0      #006=IVV$NEXT File=IVV$VOLINIT.:E05TSI                             TUE 07/29/97 23:20 Page:372
     1776     1456    1   MARKDT: PROC;

   1456  1 001040   200024 741300       MARKDT       STX1  ! VID$+2,,AUTO

     1777     1457    2           IF VIP.MODEL='MSU0501 ' OR VIP.MODEL='MSU0509 ' THEN;

   1457  1 001041   200003 470500                    LDP0    @VIP,,AUTO
         1 001042   040000 106500                    CMPC    fill='040'O
         1 001043   000007 000010                    ADSC9   7,,PR0                   cn=0,n=8
         1 001044   000010 000010 0                  ADSC9   CEDATA+8                 cn=0,n=8
         1 001045   001105 600000 1                  TZE     s:1463
         1 001046   040000 106500                    CMPC    fill='040'O
         1 001047   000007 000010                    ADSC9   7,,PR0                   cn=0,n=8
         1 001050   000012 000010 0                  ADSC9   CEDATA+10                cn=0,n=8
         1 001051   001105 600000 1                  TZE     s:1463

     1778     1458    3           ELSE DO;

     1779     1459    3              J=FMT.SEEK.SECTOR/VIP.NSECTS;

   1459  1 001052   000014 236100                    LDQ     12,,PR0
         1 001053   000033 772000                    QRL     27
         1 001054   200026 756100                    STQ     @SECTOR+1,,AUTO
         1 001055   200013 471500                    LDP1    FMT$,,AUTO
         1 001056   100007 236100                    LDQ     7,,PR1
         1 001057   000004 376000 2                  ANQ     4
         1 001060   200026 506100                    DIV     @SECTOR+1,,AUTO
         1 001061   200016 756100                    STQ     J,,AUTO

     1780     1460    3              TR.CYL=J/VIP.NHEADS;

   1460  1 001062   000014 236100                    LDQ     12,,PR0
         1 001063   000022 772000                    QRL     18
         1 001064   000777 376007                    ANQ     511,DL
         1 001065   200026 756100                    STQ     @SECTOR+1,,AUTO
         1 001066   200016 236100                    LDQ     J,,AUTO
         1 001067   200026 506100                    DIV     @SECTOR+1,,AUTO
PL6.E3A0      #006=IVV$NEXT File=IVV$VOLINIT.:E05TSI                             TUE 07/29/97 23:20 Page:373
         1 001070   000032 736000                    QLS     26
         1 001071   200020 676100                    ERQ     TRACK,,AUTO
         1 001072   777400 376003                    ANQ     -256,DU
         1 001073   200020 656100                    ERSQ    TRACK,,AUTO

     1781     1461    3              TR.HD=MOD(J,VIP.NHEADS);

   1461  1 001074   000014 236100                    LDQ     12,,PR0
         1 001075   000022 772000                    QRL     18
         1 001076   000777 376007                    ANQ     511,DL
         1 001077   200026 756100                    STQ     @SECTOR+1,,AUTO
         1 001100   200016 236100                    LDQ     J,,AUTO
         1 001101   200026 506100                    DIV     @SECTOR+1,,AUTO
         1 001102   000044 733000                    LRS     36
         1 001103   000022 736000                    QLS     18
         1 001104   200020 752110                    STCQ    TRACK,'10'O,AUTO

     1782     1462    3              END;

     1783     1463    2           VID$=VIP.VID$;

   1463  1 001105   000012 236100                    LDQ     10,,PR0
         1 001106   200022 756100                    STQ     VID$,,AUTO

     1784     1464    3           DO I=0 TO 62;

   1464  1 001107   200015 450100                    STZ     I,,AUTO

     1785     1465    4              IF VID.DTT(I)=BITBIN('777777'O) THEN DO;

   1465  1 001110   200022 470500                    LDP0    VID$,,AUTO
         1 001111   200015 720100                    LXL0    I,,AUTO
         1 001112   000400 221110                    LDX1    256,X0,PR0
         1 001113   777777 101003                    CMPX1   -1,DU
         1 001114   001137 601000 1                  TNZ     s:1473

     1786     1466    4                 IF VIP.MODEL='MSU0501 ' OR VIP.MODEL='MSU0509 ' THEN
PL6.E3A0      #006=IVV$NEXT File=IVV$VOLINIT.:E05TSI                             TUE 07/29/97 23:20 Page:374

   1466  1 001115   200003 471500                    LDP1    @VIP,,AUTO
         1 001116   040000 106500                    CMPC    fill='040'O
         1 001117   100007 000010                    ADSC9   7,,PR1                   cn=0,n=8
         1 001120   000010 000010 0                  ADSC9   CEDATA+8                 cn=0,n=8
         1 001121   001126 600000 1                  TZE     s:1467
         1 001122   040000 106500                    CMPC    fill='040'O
         1 001123   100007 000010                    ADSC9   7,,PR1                   cn=0,n=8
         1 001124   000012 000010 0                  ADSC9   CEDATA+10                cn=0,n=8
         1 001125   001131 601000 1                  TNZ     s:1469

     1787     1467    4                    VID.DTT(I)=VIP.CTRACK;

   1467  1 001126   100016 222100                    LDX2    14,,PR1
         1 001127   000400 742110                    STX2    256,X0,PR0
         1 001130   001133 710000 1                  TRA     s:1470

     1788     1468    4                 ELSE
     1789     1469    4                    VID.DTT(I)=TRACK;

   1469  1 001131   200020 222100                    LDX2    TRACK,,AUTO
         1 001132   000400 742110                    STX2    256,X0,PR0

     1790     1470    4                 VIP.DTTCH='1'B;

   1470  1 001133   004000 236007                    LDQ     2048,DL
         1 001134   100017 256100                    ORSQ    15,,PR1

     1791     1471    4                 RETURN;

   1471  1 001135   200024 221300                    LDX1  ! VID$+2,,AUTO
         1 001136   000001 702211                    TSX2  ! 1,X1

     1792     1472    4                 END;
     1793     1473    3              END;

   1473  1 001137   200015 054100                    AOS     I,,AUTO
PL6.E3A0      #006=IVV$NEXT File=IVV$VOLINIT.:E05TSI                             TUE 07/29/97 23:20 Page:375
         1 001140   200015 235100                    LDA     I,,AUTO
         1 001141   000076 115007                    CMPA    62,DL
         1 001142   001110 604400 1                  TMOZ    s:1465

     1794     1474    2           VIP.DTTOVF='1'B;

   1474  1 001143   200003 471500                    LDP1    @VIP,,AUTO
         1 001144   002000 236007                    LDQ     1024,DL
         1 001145   100017 256100                    ORSQ    15,,PR1

     1795     1475    2           VIP.STOP='1'B;

   1475  1 001146   010000 236007                    LDQ     4096,DL
         1 001147   100017 256100                    ORSQ    15,,PR1

     1796     1476    2           RETURN;

   1476  1 001150   200024 221300                    LDX1  ! VID$+2,,AUTO
         1 001151   000001 702211                    TSX2  ! 1,X1

     1797     1477    2   END MARKDT;
     1798     1478
     1799     1479
     1800     1480    1   CONVMPC: PROC(SECTOR);

   1480  1 001152   200024 741300       CONVMPC      STX1  ! VID$+2,,AUTO

     1801     1481    2   DCL SECTOR BIT(36) ALIGNED;
     1802     1482    2   DCL 1 SEC REDEF SECTOR ALIGNED,
     1803     1483    2         2 * UBIN(20) UNAL,
     1804     1484    2         2 CL UBIN(8) UNAL,
     1805     1485    2         2 CU UBIN(2) UNAL,
     1806     1486    2         2 HD UBIN(6) UNAL;
     1807     1487    2           SEC.CL=TR.CY.LWR;

   1487  1 001153   200025 470500                    LDP0    @SECTOR,,AUTO
         1 001154   200020 236100                    LDQ     TRACK,,AUTO
PL6.E3A0      #006=IVV$NEXT File=IVV$VOLINIT.:E05TSI                             TUE 07/29/97 23:20 Page:376
         1 001155   000022 772000                    QRL     18
         1 001156   000000 676100                    ERQ     0,,PR0
         1 001157   177400 376007                    ANQ     65280,DL
         1 001160   000000 656100                    ERSQ    0,,PR0

     1808     1488    2           SEC.CU=TR.CY.UPR;

   1488  1 001161   200020 236100                    LDQ     TRACK,,AUTO
         1 001162   000034 772000                    QRL     28
         1 001163   000000 676100                    ERQ     0,,PR0
         1 001164   000300 376007                    ANQ     192,DL
         1 001165   000000 656100                    ERSQ    0,,PR0

     1809     1489    2           SEC.HD=TR.HD;

   1489  1 001166   200020 236100                    LDQ     TRACK,,AUTO
         1 001167   000022 772000                    QRL     18
         1 001170   000000 752101                    STCQ    0,'01'O,PR0

     1810     1490
     1811     1491    2   END CONVMPC;

   1491  1 001171   200024 221300                    LDX1  ! VID$+2,,AUTO
         1 001172   000001 702211                    TSX2  ! 1,X1

CEDATA
 Sect OctLoc
   0     000   252252 252252   252252 252252   252252 377377   377377 377377    ................
   0     004   377377 252252   252252 252252   252252 377377   377377 377377    ................

(unnamed)
 Sect OctLoc
   0     010   115123 125060   065060 061040   115123 125060   065060 071040    MSU0501 MSU0509
   0     014   357700 720000   367700 720000   115123 125065   060071 040040    ........MSU509

(unnamed)
 Sect OctLoc
PL6.E3A0      #006=IVV$NEXT File=IVV$VOLINIT.:E05TSI                             TUE 07/29/97 23:20 Page:377
   2     000   777777 777600   777777 776777   777400 777777   000377 777777    ................
   2     004   000007 777777   000007 260000   001777 777777                    ............
     1812     1492    1   END IVV$NEXT;
     1813     1493        %EOD;

PL6.E3A0      #006=IVV$NEXT File=IVV$VOLINIT.:E05TSI                             TUE 07/29/97 23:20 Page:378
--  Include file information  --

   NI$TABLES.:E05TOU  is referenced.
   IV$MACROS.:E05TOU  is referenced.
   FM$GRAN.:E05TOU  is referenced.
   CP_6_SUBS.:E05TOU  is referenced.
      No diagnostics issued in procedure IVV$NEXT.
PL6.E3A0      #006=IVV$NEXT File=IVV$VOLINIT.:E05TSI                             TUE 07/29/97 23:20 Page:379

 **** Variables and constants ****

  ****  Section 000 RoData IVV$NEXT

  ****  Scalars and arrays  ****
OctLoc.c.b A Datatyp(siz) R M Lvl/name                 OctLoc.c.b A Datatyp(siz) R M Lvl/name

     0-0-0/b BIT         r     1 CEDATA(0:7)

  ****  Auto variables  ****

  ****  Scalars and arrays  ****
OctLoc.c.b A Datatyp(siz) R M Lvl/name                 OctLoc.c.b A Datatyp(siz) R M Lvl/name

    25-0-0/w PTR         r     1 @SECTOR                    4-0-0/w PTR         r     1 @TYC
     3-0-0/w PTR         r     1 @VIP                       6-0-0/w PTR         r     1 DATA$
    14-0-0/w PTR         r     1 DVT$                      13-0-0/w PTR         r     1 FMT$
     5-0-0/w PTR         r     1 HDR5$                     15-0-0/w SBIN        r     1 I
    16-0-0/w SBIN        r     1 J                         17-0-0/w BIT         r     1 LOOP
    *0-0-0/w STRC        r     1 SEC                       *0-0-0/w BIT         r     1 SECTOR
    20-0-0/w STRC(18)    r     1 TR                        20-0-0/w UBIN(18)    r     1 TRACK
    *0-0-0/w BIT         r     1 TYC                       22-0-0/w PTR         r     1 VID$
    *0-0-0/w STRC(3024)  r     1 VIP

  ****  SYMREF variables  ****

  ****  Scalars and arrays  ****
OctLoc.c.b A Datatyp(siz) R M Lvl/name                 OctLoc.c.b A Datatyp(siz) R M Lvl/name

     0-0-0/w PTR         r     1 IV_IO$

  ****  BASED and DCB variables  ****

  ****  Scalars and arrays  ****
OctLoc.c.b A Datatyp(siz) R M Lvl/name                 OctLoc.c.b A Datatyp(siz) R M Lvl/name

     0-0-0/b BIT         r     1 DATA(0:575)                0-0-0/w STRC(828)   r     1 FMT
PL6.E3A0      #006=IVV$NEXT File=IVV$VOLINIT.:E05TSI                             TUE 07/29/97 23:20 Page:380
     0-0-0/w STRC(36864) r     1 VID


   Procedure IVV$NEXT requires 635 words for executable code.
   Procedure IVV$NEXT requires 28 words of local(AUTO) storage.
PL6.E3A0      #006=IVV$NEXT File=IVV$VOLINIT.:E05TSI                             TUE 07/29/97 23:20 Page:381
          *** CROSS REFERENCE LISTING ***
**     DENOTES     IDENTIFIER DEFINITION
<<                 IDENTIFIER'S VALUE SET
>>                 IDENTIFIER'S VALUE USED
<>                 IDENTIFIER SET AND/OR USED
--                 IDENTIFIER REFERENCED
PL6.E3A0      #006=IVV$NEXT File=IVV$VOLINIT.:E05TSI                             TUE 07/29/97 23:20 Page:382
          MINI XREF LISTING

CEDATA
      1262**DCL      1417>>ASSIGN   1421>>ASSIGN
CF.C0.TSKIP
      1023**DCL      1024--REDEF
CONVMPC
      1480**PROC     1370--CALL     1392--CALL
DATA
      1272**DCL      1417<<ASSIGN   1421<<ASSIGN
DATA$
      1010**DCL      1272--IMP-PTR  1305<<ASSIGN   1417>>ASSIGN   1421>>ASSIGN
DVT.MPC
      1254**DCL      1255--REDEF
DVT$
      1273**DCL      1252--IMP-PTR
ELT.HEADER
      1226**DCL      1242--REDEF    1243--REDEF
ELT.SEEK.SECTOR
      1210**DCL      1211--REDEF
FMT.DATA_DCW
      1166**DCL      1394>>ASSIGN   1425>>ASSIGN
FMT.DCW
      1145**DCL      1368<<ASSIGN   1394<<ASSIGN   1425<<ASSIGN
FMT.DCW.TALLY
      1148**DCL      1426<<ASSIGN
FMT.HEADER
      1170**DCL      1186--REDEF    1187--REDEF    1305--ASSIGN
FMT.HEADER_DCW
      1162**DCL      1368>>ASSIGN
FMT.IDCW.DC
      1143**DCL      1367<<ASSIGN   1393<<ASSIGN   1424<<ASSIGN
FMT.SEEK.SCL
      1150**DCL      1427<<ASSIGN   1438>>IF       1440<<ASSIGN   1440>>ASSIGN
PL6.E3A0      #006=IVV$NEXT File=IVV$VOLINIT.:E05TSI                             TUE 07/29/97 23:20 Page:383
FMT.SEEK.SEC.ELT
      1156**DCL      1429<<ASSIGN
FMT.SEEK.SECTOR
      1154**DCL      1155--REDEF    1344<<ASSIGN   1344>>ASSIGN   1345>>ASSIGN   1349<<ASSIGN   1357<<ASSIGN
      1370<>CALL     1392<>CALL     1459>>ASSIGN
FMT.SEEK.Y
      1153**DCL      1428<<ASSIGN
FMT.SEEK_IDCW
      1135**DCL      1362<<ASSIGN   1363<<ASSIGN
FMT$
      1271**DCL      1134--IMP-PTR  1302<<ASSIGN   1305>>ASSIGN   1344>>ASSIGN   1344>>ASSIGN   1345>>ASSIGN
      1349>>ASSIGN   1357>>ASSIGN   1362>>ASSIGN   1363>>ASSIGN   1367>>ASSIGN   1368>>ASSIGN   1368>>ASSIGN
      1370>>CALL     1392>>CALL     1393>>ASSIGN   1394>>ASSIGN   1394>>ASSIGN   1424>>ASSIGN   1425>>ASSIGN
      1425>>ASSIGN   1426>>ASSIGN   1427>>ASSIGN   1428>>ASSIGN   1429>>ASSIGN   1438>>IF       1440>>ASSIGN
      1440>>ASSIGN   1459>>ASSIGN
HDR5$
      1009**DCL      1012--IMP-PTR
I
      1274**DCL      1416<<DOINDEX  1417>>ASSIGN   1417>>ASSIGN   1419<<DOINDEX  1421>>ASSIGN   1464<<DOINDEX
      1465>>IF       1467>>ASSIGN   1469>>ASSIGN
IVV$HEADER
      1115**DCL-ENT  1371--CALL
IV_IO$
      1261**DCL      1451>>ASSIGN   1452<<ASSIGN
J
      1275**DCL      1345<<ASSIGN   1346>>ASSIGN   1347>>ASSIGN   1420<<DOINDEX  1421>>ASSIGN   1421>>ASSIGN
      1459<<ASSIGN   1460>>ASSIGN   1461>>ASSIGN
LOOP
      1276**DCL      1308<<ASSIGN   1309>>DOWHILE  1373<<ASSIGN   1396<<ASSIGN   1431<<ASSIGN   1441<<ASSIGN
M509
      1389**LABEL    1384--GOTO
MARKDT
      1456**PROC     1376--CALL     1399--CALL     1434--CALL
SEC.CL IN PROCEDURE CONVMPC
      1484**DCL      1487<<ASSIGN
SEC.CU IN PROCEDURE CONVMPC
PL6.E3A0      #006=IVV$NEXT File=IVV$VOLINIT.:E05TSI                             TUE 07/29/97 23:20 Page:384
      1485**DCL      1488<<ASSIGN
SEC.HD IN PROCEDURE CONVMPC
      1486**DCL      1489<<ASSIGN
SECTOR IN PROCEDURE CONVMPC
      1481**DCL      1480--PROC     1482--REDEF
TR.CY.LWR
      1282**DCL      1487>>ASSIGN
TR.CY.UPR
      1281**DCL      1488>>ASSIGN
TR.CYL
      1279**DCL      1280--REDEF    1346<<ASSIGN   1348>>IF       1350<<ASSIGN   1361>>IF       1460<<ASSIGN
TR.HD
      1284**DCL      1347<<ASSIGN   1348>>IF       1351<<ASSIGN   1461<<ASSIGN   1489>>ASSIGN
TRACK
      1277**DCL      1278--REDEF    1306<<ASSIGN   1341<<ASSIGN   1353>>IF       1358<<ASSIGN   1469>>ASSIGN
TYC
      1111**DCL         8--PROC     1375>>IF       1398>>IF       1433>>IF
VID.DTT
      1248**DCL      1248--REDEF    1465>>IF       1467<<ASSIGN   1469<<ASSIGN
VID$
      1286**DCL      1246--IMP-PTR  1463<<ASSIGN   1465>>IF       1467>>ASSIGN   1469>>ASSIGN
VIP
      1048**DCL         8--PROC     1371<>CALL     1452--ASSIGN
VIP.CRANGE
      1063**DCL      1322>>IF       1331<<ASSIGN   1331>>ASSIGN   1332>>IF       1333>>ASSIGN   1353>>IF
      1354<<ASSIGN   1354>>ASSIGN   1355>>IF       1357>>ASSIGN   1357>>ASSIGN   1358>>ASSIGN
VIP.CTR.CYL
      1066**DCL      1327<<ASSIGN   1327>>ASSIGN   1337>>IF       1338<<ASSIGN   1386>>IF       1410>>IF
VIP.CTR.HD
      1067**DCL      1323>>IF       1324<<ASSIGN   1324>>ASSIGN   1326<<ASSIGN   1337>>IF       1339<<ASSIGN
      1386>>IF       1410>>IF
VIP.CTRACK
      1064**DCL      1065--REDEF    1306>>ASSIGN   1322>>IF       1333<<ASSIGN   1341>>ASSIGN   1467>>ASSIGN
VIP.DISKERR
      1079**DCL      1319<<ASSIGN   1375>>IF       1377<<ASSIGN   1381>>IF       1401<<ASSIGN
VIP.DONE
PL6.E3A0      #006=IVV$NEXT File=IVV$VOLINIT.:E05TSI                             TUE 07/29/97 23:20 Page:385
      1075**DCL      1446<<ASSIGN
VIP.DTTCH
      1077**DCL      1470<<ASSIGN
VIP.DTTOVF
      1078**DCL      1474<<ASSIGN
VIP.ELT$
      1052**DCL      1190--IMP-PTR
VIP.FMT$
      1058**DCL      1302>>ASSIGN
VIP.FORMAT
      1071**DCL      1312>>IF       1400>>IF
VIP.GRANSIZE
      1084**DCL      1362>>IF
VIP.IO$
      1050**DCL      1451<<ASSIGN
VIP.MODEL
      1055**DCL      1303>>IF       1303>>IF       1320>>IF       1320>>IF       1369>>IF       1369>>IF
      1384>>IF       1385>>IF       1391>>IF       1391>>IF       1409>>IF       1409>>IF       1457>>IF
      1457>>IF       1466>>IF       1466>>IF
VIP.NCYLS
      1061**DCL      1348>>IF
VIP.NHEADS
      1060**DCL      1323>>IF       1346>>ASSIGN   1347>>ASSIGN   1349>>ASSIGN   1357>>ASSIGN   1460>>ASSIGN
      1461>>ASSIGN
VIP.NRANGES
      1083**DCL      1332>>IF       1355>>IF
VIP.NSECTS
      1059**DCL      1344>>ASSIGN   1345>>ASSIGN   1349>>ASSIGN   1357>>ASSIGN   1459>>ASSIGN
VIP.RANGE.FT.CYL
      1104**DCL      1357>>ASSIGN
VIP.RANGE.FT.HD
      1105**DCL      1357>>ASSIGN
VIP.RANGE.FTRACK
      1102**DCL      1103--REDEF    1333>>ASSIGN   1358>>ASSIGN
VIP.RANGE.LTRACK
      1106**DCL      1107--REDEF    1322>>IF       1353>>IF
PL6.E3A0      #006=IVV$NEXT File=IVV$VOLINIT.:E05TSI                             TUE 07/29/97 23:20 Page:386
VIP.STEP
      1082**DCL      1301<<ASSIGN   1310>>DOCASE   1313<<ASSIGN   1315<<ASSIGN   1316<<ASSIGN   1318<<ASSIGN
      1335<<ASSIGN   1355<<ASSIGN   1372<<ASSIGN   1378<<ASSIGN   1382<<ASSIGN   1386<<ASSIGN   1389<<ASSIGN
      1395<<ASSIGN   1402<<ASSIGN   1405<<ASSIGN   1410<<ASSIGN   1412<<ASSIGN   1413<<ASSIGN   1430<<ASSIGN
      1435<<ASSIGN   1438<<ASSIGN   1442<<ASSIGN
VIP.STOP
      1076**DCL      1301>>IF       1475<<ASSIGN
VIP.T@DCYL
      1062**DCL      1349>>ASSIGN   1350>>ASSIGN   1361>>IF
VIP.TEST
      1073**DCL      1314>>IF       1381>>IF
VIP.VID$
      1057**DCL      1463>>ASSIGN

PL6.E3A0      #007=IVV$FMTPAC File=IVV$VOLINIT.:E05TSI                           TUE 07/29/97 23:21 Page:387
     1814        1        /*T***********************************************************/
     1815        2        /*T*                                                         */
     1816        3        /*T* Copyright (c) Bull HN Information Systems Inc., 1997    */
     1817        4        /*T*                                                         */
     1818        5        /*T***********************************************************/
     1819        6        /* GENERATE FORMAT PACKAGE FOR MSU050X DISK PACK */
     1820        7        IVV$FMTPAC: PROC (VIP,FMT$) ALTRET;
     1821        8
     1822        9        /* INCLUDE FILES */
     1823       10        /**/
     1824       11        %INCLUDE NI$TABLES;
     1825      227        %INCLUDE CP_6_SUBS;
     1826      767        %INCLUDE IV$MACROS;
     1827      937                                           /* Storage structure for MSU050X header */
     1828      938    1   DCL HDR5$ PTR;
     1829      939    1   DCL DATA$ PTR;
     1830      940        %IV$HDR(NAME=CF,STCLASS="BASED(HDR5$)");
     1831      968
     1832      969    1   DCL 1 LOG(0:3071) BASED(DATA$) UNAL,
     1833      970    1         2 CYL UBIN(16) UNAL,
     1834      971    1         2 HD UBIN(8) UNAL,
     1835      972    1         2 POS UBIN(16) UNAL,
     1836      973    1         2 LTH UBIN(8) UNAL;
     1837      974
     1838      975    1   DCL 1 SKIP(0:1) UNAL,
     1839      976    1         2 S BIT(4),
     1840      977    1         2 SK UBIN(12);
     1841      978
     1842      979        /* PARAMETERS */
     1843      980        /**/
     1844      981        %IV$VIP(NAME=VIP,STCLASS="");
     1845     1045        %IV$FMT(NAME=FMT,STCLASS="BASED(FMT$)");
     1846     1101        %NI$DVT(NAME=DVT,STCLASS="BASED(DVT$)");
     1847     1108    1   DCL FMT$ PTR;
     1848     1109    1   DCL DVT$ PTR;
     1849     1110    1   DCL I SBIN;
     1850     1111        /* EXTERNAL REFERENCES */
PL6.E3A0      #007=IVV$FMTPAC File=IVV$VOLINIT.:E05TSI                           TUE 07/29/97 23:21 Page:388
     1851     1112        /**/
     1852     1113    1   DCL DCWBUILD ENTRY(3);
     1853     1114    1   DCL IVO$GET ENTRY (2) ALTRET;
     1854     1115    1   DCL IVV$ERROR ENTRY (3);
     1855     1116        /* SUBSTITUTIONS */
     1856     1117        /**/
     1857     1118        %SUB NULL="ADDR(NIL)";
     1858     1119
     1859     1120        %EJECT;
PL6.E3A0      #007=IVV$FMTPAC File=IVV$VOLINIT.:E05TSI                           TUE 07/29/97 23:21 Page:389
     1860     1121    1           DVT$=VIP.DVT$;
     1861     1122    1           I=SIZEW(FMT)+VIP.NSECTS*DVT.SECSIZE+82; /* 82 WDS FOR C0-C39 */
     1862     1123    1           FMT$=NULL;
     1863     1124    1           CALL IVO$GET(FMT$,I)ALTRET(NO_SPACE_1);
     1864     1125    1           FMT='0'B;
     1865     1126    1           FMT.BOUND=I*4-1;
     1866     1127    1           FMT.SEEK_IDCW='357700720000'O;  /* TDSEEK512=35 OCT. RD_HEADER=27 */
     1867     1128    1           FMT.SEEK_DCW.FWA=POFFW(ADDR(FMT.SEEK),FMT$);
     1868     1129    1           FMT.SEEK_DCW.TALLY=1;
     1869     1130    1           FMT.IDCW='277700702700'O;  /* CHANNEL CMD TO READ ELT BIT24-29=27 */
     1870     1131    1           IF VIP.MODEL='MSU0509 ' OR VIP.MODEL='MSU0501 ' THEN I=24;
     1871     1132    1           ELSE I=5;
     1872     1133    1           CALL DCWBUILD(FMT.HEADER_DCW,SIZEW(FMT)-SIZEW(FMT.HEADER),I);
     1873     1134    1           CALL DCWBUILD(FMT.DATA_DCW,SIZEW(FMT)-SIZEW(FMT.HEADER)+88,
     1874     1135    1             VIP.NSECTS*DVT.SECSIZE);
     1875     1136    1           RETURN;
     1876     1137    2           DO WHILE ('0'B);
     1877     1138    2   NO_SPACE_1:                             /* NO SPACE FOR FMT */
     1878     1139    2              CALL IVV$ERROR(VIP.DEVID,9);
     1879     1140    2              END;
     1880     1141    1           ALTRETURN;
     1881     1142    1   END IVV$FMTPAC;

PL6.E3A0      #007=IVV$FMTPAC File=IVV$VOLINIT.:E05TSI                           TUE 07/29/97 23:21 Page:390
--  Include file information  --

   IV$MACROS.:E05TOU  is referenced.
   CP_6_SUBS.:E05TOU  is referenced.
   NI$TABLES.:E05TOU  is referenced.
      No diagnostics issued in procedure IVV$FMTPAC.

   Procedure IVV$FMTPAC requires 114 words for executable code.
   Procedure IVV$FMTPAC requires 20 words of local(AUTO) storage.

    No errors detected in file IVV$VOLINIT.:E05TSI    .

PL6.E3A0      #007=IVV$FMTPAC File=IVV$VOLINIT.:E05TSI                           TUE 07/29/97 23:21 Page:391

 Object Unit name= IVV$FMTPAC                                 File name= IVV$VOLINIT.:E05TOU
 UTS= JUL 29 '97 23:21:08.44 TUE                              Compiler= PL-6/E31         Sev=      00
 SharedLib= :SHARED_SYSTEM                                    Alt SharedLib=


    ****  Control sections  ****

 Sect   Type Bound  Init  Size OctSiz  Section name(segment info)
    0  RoData even  UTS      6      6  IVV$FMTPAC
    1   Proc  even  none   114    162  IVV$FMTPAC
    2  RoData even  none     5      5  IVV$FMTPAC

    ****  Entry defs  ****

                              Check   Calling
                             calling  sequence
  Sect OctLoc Primary Altret sequence   type   Parms  Name
     1      0   yes    yes     yes      Std        2  IVV$FMTPAC

  ****  Entry refs  ****

         Check        Calling
        calling       sequence
Altret sequence SRef   type   Args  Name
 yes     yes           Std       2 IVO$GET
         yes           Std       3 DCWBUILD
         yes           Std       3 IVV$ERROR
                       nStd      0 X66_AUTO_2
                       Std       0 B_CONSPOOL_D
                       nStd      0 X66_ARET
                       nStd      0 X66_AALT
PL6.E3A0      #007=IVV$FMTPAC File=IVV$VOLINIT.:E05TSI                           TUE 07/29/97 23:21 Page:392

  ****  Data refs  ****

  Flags:  r = read only, s = secondary
Flgs Name                             Flgs Name                             Flgs Name
     B_VECTNIL

  ****  Segment refs  ****

  Flags:  r = read only, s = secondary
Flgs Name                             Flgs Name                             Flgs Name
     ISSID
PL6.E3A0      #007=IVV$FMTPAC File=IVV$VOLINIT.:E05TSI                           TUE 07/29/97 23:21 Page:393


     1814        1        /*T***********************************************************/
     1815        2        /*T*                                                         */
     1816        3        /*T* Copyright (c) Bull HN Information Systems Inc., 1997    */
     1817        4        /*T*                                                         */
     1818        5        /*T***********************************************************/
     1819        6        /* GENERATE FORMAT PACKAGE FOR MSU050X DISK PACK */
     1820        7        IVV$FMTPAC: PROC (VIP,FMT$) ALTRET;

      7  1 000000   000000 700200 xent  IVV$FMTPAC   TSX0  ! X66_AUTO_2
         1 000001   000024 000002                    ZERO    20,2

     1821        8
     1822        9        /* INCLUDE FILES */
     1823       10        /**/
     1824       11        %INCLUDE NI$TABLES;
     1825      227        %INCLUDE CP_6_SUBS;
     1826      767        %INCLUDE IV$MACROS;
     1827      937                                           /* Storage structure for MSU050X header */
     1828      938    1   DCL HDR5$ PTR;
     1829      939    1   DCL DATA$ PTR;
     1830      940        %IV$HDR(NAME=CF,STCLASS="BASED(HDR5$)");
     1831      968
     1832      969    1   DCL 1 LOG(0:3071) BASED(DATA$) UNAL,
     1833      970    1         2 CYL UBIN(16) UNAL,
     1834      971    1         2 HD UBIN(8) UNAL,
     1835      972    1         2 POS UBIN(16) UNAL,
     1836      973    1         2 LTH UBIN(8) UNAL;
     1837      974
     1838      975    1   DCL 1 SKIP(0:1) UNAL,
     1839      976    1         2 S BIT(4),
     1840      977    1         2 SK UBIN(12);
     1841      978
     1842      979        /* PARAMETERS */
     1843      980        /**/
     1844      981        %IV$VIP(NAME=VIP,STCLASS="");
     1845     1045        %IV$FMT(NAME=FMT,STCLASS="BASED(FMT$)");
PL6.E3A0      #007=IVV$FMTPAC File=IVV$VOLINIT.:E05TSI                           TUE 07/29/97 23:21 Page:394
     1846     1101        %NI$DVT(NAME=DVT,STCLASS="BASED(DVT$)");
     1847     1108    1   DCL FMT$ PTR;
     1848     1109    1   DCL DVT$ PTR;
     1849     1110    1   DCL I SBIN;
     1850     1111        /* EXTERNAL REFERENCES */
     1851     1112        /**/
     1852     1113    1   DCL DCWBUILD ENTRY(3);
     1853     1114    1   DCL IVO$GET ENTRY (2) ALTRET;
     1854     1115    1   DCL IVV$ERROR ENTRY (3);
     1855     1116        /* SUBSTITUTIONS */
     1856     1117        /**/
     1857     1118        %SUB NULL="ADDR(NIL)";
     1858     1119
     1859     1120        %EJECT;
PL6.E3A0      #007=IVV$FMTPAC File=IVV$VOLINIT.:E05TSI                           TUE 07/29/97 23:21 Page:395
     1860     1121    1           DVT$=VIP.DVT$;

   1121  1 000002   200003 470500                    LDP0    @VIP,,AUTO
         1 000003   000002 236100                    LDQ     2,,PR0
         1 000004   200013 756100                    STQ     DVT$,,AUTO

     1861     1122    1           I=SIZEW(FMT)+VIP.NSECTS*DVT.SECSIZE+82; /* 82 WDS FOR C0-C39 */

   1122  1 000005   200013 471500                    LDP1    DVT$,,AUTO
         1 000006   100056 236100                    LDQ     46,,PR1
         1 000007   000022 772000                    QRL     18
         1 000010   200016 756100                    STQ     I+2,,AUTO
         1 000011   000014 236100                    LDQ     12,,PR0
         1 000012   000033 772000                    QRL     27
         1 000013   200016 402100                    MPY     I+2,,AUTO
         1 000014   000151 036007                    ADLQ    105,DL
         1 000015   200014 756100                    STQ     I,,AUTO

     1862     1123    1           FMT$=NULL;

   1123  1 000016   000001 236000 xsym               LDQ     B_VECTNIL+1
         1 000017   200004 473500                    LDP3    @FMT$,,AUTO
         1 000020   300000 756100                    STQ     0,,PR3

     1863     1124    1           CALL IVO$GET(FMT$,I)ALTRET(NO_SPACE_1);

   1124  1 000021   200014 634500                    EPPR4   I,,AUTO
         1 000022   200017 454500                    STP4    I+3,,AUTO
         1 000023   200004 236100                    LDQ     @FMT$,,AUTO
         1 000024   200016 756100                    STQ     I+2,,AUTO
         1 000025   200016 630500                    EPPR0   I+2,,AUTO
         1 000026   000020 631400 xsym               EPPR1   B_VECTNIL+16
         1 000027   000000 701000 xent               TSX1    IVO$GET
         1 000030   000150 702000 1                  TSX2    NO_SPACE_1

     1864     1125    1           FMT='0'B;

PL6.E3A0      #007=IVV$FMTPAC File=IVV$VOLINIT.:E05TSI                           TUE 07/29/97 23:21 Page:396
   1125  1 000031   200004 470500                    LDP0    @FMT$,,AUTO
         1 000032   000000 471500                    LDP1    0,,PR0
         1 000033   000100 100400                    MLR     fill='000'O
         1 000034   000002 000001 xsym               ADSC9   B_VECTNIL+2              cn=0,n=1
         1 000035   100000 000134                    ADSC9   0,,PR1                   cn=0,n=92

     1865     1126    1           FMT.BOUND=I*4-1;

   1126  1 000036   000000 471500                    LDP1    0,,PR0
         1 000037   200014 235100                    LDA     I,,AUTO
         1 000040   000002 735000                    ALS     2
         1 000041   000001 135007                    SBLA    1,DL
         1 000042   100010 755100                    STA     8,,PR1

     1866     1127    1           FMT.SEEK_IDCW='357700720000'O;  /* TDSEEK512=35 OCT. RD_HEADER=27 */

   1127  1 000043   000000 471500                    LDP1    0,,PR0
         1 000044   000000 236000 0                  LDQ     0
         1 000045   100000 756100                    STQ     0,,PR1

     1867     1128    1           FMT.SEEK_DCW.FWA=POFFW(ADDR(FMT.SEEK),FMT$);

   1128  1 000046   000000 471500                    LDP1    0,,PR0
         1 000047   200016 451500                    STP1    I+2,,AUTO
         1 000050   200016 236100                    LDQ     I+2,,AUTO
         1 000051   000007 036003                    ADLQ    7,DU
         1 000052   000022 772000                    QRL     18
         1 000053   200017 756100                    STQ     I+3,,AUTO
         1 000054   000000 236100                    LDQ     0,,PR0
         1 000055   000022 772000                    QRL     18
         1 000056   200020 756100                    STQ     I+4,,AUTO
         1 000057   200017 236100                    LDQ     I+3,,AUTO
         1 000060   200020 136100                    SBLQ    I+4,,AUTO
         1 000061   000000 620006                    EAX0    0,QL
         1 000062   100001 740100                    STX0    1,,PR1

     1868     1129    1           FMT.SEEK_DCW.TALLY=1;
PL6.E3A0      #007=IVV$FMTPAC File=IVV$VOLINIT.:E05TSI                           TUE 07/29/97 23:21 Page:397

   1129  1 000063   000000 471500                    LDP1    0,,PR0
         1 000064   000001 236007                    LDQ     1,DL
         1 000065   100001 752103                    STCQ    1,'03'O,PR1

     1869     1130    1           FMT.IDCW='277700702700'O;  /* CHANNEL CMD TO READ ELT BIT24-29=27 */

   1130  1 000066   000000 471500                    LDP1    0,,PR0
         1 000067   000001 236000 0                  LDQ     1
         1 000070   100002 756100                    STQ     2,,PR1

     1870     1131    1           IF VIP.MODEL='MSU0509 ' OR VIP.MODEL='MSU0501 ' THEN I=24;

   1131  1 000071   200003 471500                    LDP1    @VIP,,AUTO
         1 000072   040000 106500                    CMPC    fill='040'O
         1 000073   100007 000010                    ADSC9   7,,PR1                   cn=0,n=8
         1 000074   000002 000010 0                  ADSC9   2                        cn=0,n=8
         1 000075   000102 600000 1                  TZE     s:1131+9
         1 000076   040000 106500                    CMPC    fill='040'O
         1 000077   100007 000010                    ADSC9   7,,PR1                   cn=0,n=8
         1 000100   000004 000010 0                  ADSC9   4                        cn=0,n=8
         1 000101   000105 601000 1                  TNZ     s:1132

   1131  1 000102   000030 235007                    LDA     24,DL
         1 000103   200014 755100                    STA     I,,AUTO
         1 000104   000107 710000 1                  TRA     s:1133

     1871     1132    1           ELSE I=5;

   1132  1 000105   000005 235007                    LDA     5,DL
         1 000106   200014 755100                    STA     I,,AUTO

     1872     1133    1           CALL DCWBUILD(FMT.HEADER_DCW,SIZEW(FMT)-SIZEW(FMT.HEADER),I);

   1133  1 000107   000000 473500                    LDP3    0,,PR0
         1 000110   200014 634500                    EPPR4   I,,AUTO
         1 000111   200020 454500                    STP4    I+4,,AUTO
PL6.E3A0      #007=IVV$FMTPAC File=IVV$VOLINIT.:E05TSI                           TUE 07/29/97 23:21 Page:398
         1 000112   000001 236000 2                  LDQ     1
         1 000113   200017 756100                    STQ     I+3,,AUTO
         1 000114   300011 635500                    EPPR5   9,,PR3
         1 000115   200016 455500                    STP5    I+2,,AUTO
         1 000116   200016 630500                    EPPR0   I+2,,AUTO
         1 000117   000021 631400 xsym               EPPR1   B_VECTNIL+17
         1 000120   000000 701000 xent               TSX1    DCWBUILD
         1 000121   000000 011000                    NOP     0

     1873     1134    1           CALL DCWBUILD(FMT.DATA_DCW,SIZEW(FMT)-SIZEW(FMT.HEADER)+88,

   1134  1 000122   200004 470500                    LDP0    @FMT$,,AUTO
         1 000123   000000 471500                    LDP1    0,,PR0
         1 000124   200013 473500                    LDP3    DVT$,,AUTO
         1 000125   300056 236100                    LDQ     46,,PR3
         1 000126   000022 772000                    QRL     18
         1 000127   200016 756100                    STQ     I+2,,AUTO
         1 000130   200003 474500                    LDP4    @VIP,,AUTO
         1 000131   400014 236100                    LDQ     12,,PR4
         1 000132   000033 772000                    QRL     27
         1 000133   200016 402100                    MPY     I+2,,AUTO
         1 000134   200017 756100                    STQ     I+3,,AUTO
         1 000135   200017 635500                    EPPR5   I+3,,AUTO
         1 000136   200022 455500                    STP5    I+6,,AUTO
         1 000137   000003 236000 2                  LDQ     3
         1 000140   200021 756100                    STQ     I+5,,AUTO
         1 000141   100015 636500                    EPPR6   13,,PR1
         1 000142   200020 456500                    STP6    I+4,,AUTO
         1 000143   200020 630500                    EPPR0   I+4,,AUTO
         1 000144   000021 631400 xsym               EPPR1   B_VECTNIL+17
         1 000145   000000 701000 xent               TSX1    DCWBUILD
         1 000146   000000 011000                    NOP     0

     1874     1135    1             VIP.NSECTS*DVT.SECSIZE);
     1875     1136    1           RETURN;

   1136  1 000147   000000 702200 xent               TSX2  ! X66_ARET
PL6.E3A0      #007=IVV$FMTPAC File=IVV$VOLINIT.:E05TSI                           TUE 07/29/97 23:21 Page:399

     1876     1137    2           DO WHILE ('0'B);

     1877     1138    2   NO_SPACE_1:                             /* NO SPACE FOR FMT */
     1878     1139    2              CALL IVV$ERROR(VIP.DEVID,9);

   1139  1 000150   000004 236000 2     NO_SPACE_1   LDQ     4
         1 000151   200017 756100                    STQ     I+3,,AUTO
         1 000152   200003 236100                    LDQ     @VIP,,AUTO
         1 000153   000005 036003                    ADLQ    5,DU
         1 000154   200016 756100                    STQ     I+2,,AUTO
         1 000155   200016 630500                    EPPR0   I+2,,AUTO
         1 000156   000020 631400 xsym               EPPR1   B_VECTNIL+16
         1 000157   000000 701000 xent               TSX1    IVV$ERROR
         1 000160   000000 011000                    NOP     0

     1879     1140    2              END;

     1880     1141    1           ALTRETURN;

   1141  1 000161   000000 702200 xent               TSX2  ! X66_AALT

(unnamed)
 Sect OctLoc
   0     000   357700 720000   277700 702700   115123 125060   065060 071040    ........MSU0509
   0     004   115123 125060   065060 061040                                    MSU0501

(unnamed)
 Sect OctLoc
   2     000   000000 000021   000000 006000   000000 000151   000002 006000    ...........i....
   2     004   000013 006000                                                    ....
     1881     1142    1   END IVV$FMTPAC;

PL6.E3A0      #007=IVV$FMTPAC File=IVV$VOLINIT.:E05TSI                           TUE 07/29/97 23:21 Page:400
--  Include file information  --

   IV$MACROS.:E05TOU  is referenced.
   CP_6_SUBS.:E05TOU  is referenced.
   NI$TABLES.:E05TOU  is referenced.
      No diagnostics issued in procedure IVV$FMTPAC.
PL6.E3A0      #007=IVV$FMTPAC File=IVV$VOLINIT.:E05TSI                           TUE 07/29/97 23:21 Page:401

 **** Variables and constants ****

  ****  Auto variables  ****

  ****  Scalars and arrays  ****
OctLoc.c.b A Datatyp(siz) R M Lvl/name                 OctLoc.c.b A Datatyp(siz) R M Lvl/name

     4-0-0/w PTR         r     1 @FMT$                      3-0-0/w PTR         r     1 @VIP
     6-0-0/w PTR         r     1 DATA$                     13-0-0/w PTR         r     1 DVT$
    *0-0-0/w PTR         r     1 FMT$                       5-0-0/w PTR         r     1 HDR5$
    14-0-0/w SBIN        r     1 I                         *0-0-0/w STRC(3024)  r     1 VIP

  ****  BASED and DCB variables  ****

  ****  Scalars and arrays  ****
OctLoc.c.b A Datatyp(siz) R M Lvl/name                 OctLoc.c.b A Datatyp(siz) R M Lvl/name

     0-0-0/w STRC(2844)  r     1 DVT                        0-0-0/w STRC(828)   r     1 FMT


   Procedure IVV$FMTPAC requires 114 words for executable code.
   Procedure IVV$FMTPAC requires 20 words of local(AUTO) storage.

    No errors detected in file IVV$VOLINIT.:E05TSI    .
PL6.E3A0      #007=IVV$FMTPAC File=IVV$VOLINIT.:E05TSI                           TUE 07/29/97 23:21 Page:402
          *** CROSS REFERENCE LISTING ***
**     DENOTES     IDENTIFIER DEFINITION
<<                 IDENTIFIER'S VALUE SET
>>                 IDENTIFIER'S VALUE USED
<>                 IDENTIFIER SET AND/OR USED
--                 IDENTIFIER REFERENCED
PL6.E3A0      #007=IVV$FMTPAC File=IVV$VOLINIT.:E05TSI                           TUE 07/29/97 23:21 Page:403
          MINI XREF LISTING

CF.C0.TSKIP
       952**DCL       953--REDEF
DATA$
       939**DCL       969--IMP-PTR
DCWBUILD
      1113**DCL-ENT  1133--CALL     1134--CALL
DVT.MPC
      1104**DCL      1105--REDEF
DVT.SECSIZE
      1104**DCL      1122>>ASSIGN   1134>>CALL
DVT$
      1109**DCL      1102--IMP-PTR  1121<<ASSIGN   1122>>ASSIGN   1134>>CALL
FMT
      1046**DCL      1122--ASSIGN   1125<<ASSIGN   1133--CALL     1134--CALL
FMT.BOUND
      1073**DCL      1126<<ASSIGN
FMT.DATA_DCW
      1078**DCL      1134<>CALL
FMT.HEADER
      1082**DCL      1098--REDEF    1099--REDEF    1133--CALL     1134--CALL
FMT.HEADER_DCW
      1074**DCL      1133<>CALL
FMT.IDCW
      1054**DCL      1130<<ASSIGN
FMT.SEEK
      1061**DCL      1128--ASSIGN
FMT.SEEK.SECTOR
      1066**DCL      1067--REDEF
FMT.SEEK_DCW.FWA
      1051**DCL      1128<<ASSIGN
FMT.SEEK_DCW.TALLY
      1053**DCL      1129<<ASSIGN
PL6.E3A0      #007=IVV$FMTPAC File=IVV$VOLINIT.:E05TSI                           TUE 07/29/97 23:21 Page:404
FMT.SEEK_IDCW
      1047**DCL      1127<<ASSIGN
FMT$
      1108**DCL         7--PROC     1046--IMP-PTR  1123<<ASSIGN   1124<>CALL     1125>>ASSIGN   1126>>ASSIGN
      1127>>ASSIGN   1128>>ASSIGN   1128>>ASSIGN   1128>>ASSIGN   1129>>ASSIGN   1130>>ASSIGN   1133>>CALL
      1134>>CALL
HDR5$
       938**DCL       941--IMP-PTR
I
      1110**DCL      1122<<ASSIGN   1124<>CALL     1126>>ASSIGN   1131<<ASSIGN   1132<<ASSIGN   1133<>CALL
IVO$GET
      1114**DCL-ENT  1124--CALL
IVV$ERROR
      1115**DCL-ENT  1139--CALL
NO_SPACE_1
      1139**LABEL    1124--CALLALT
VIP
       982**DCL         7--PROC
VIP.CTRACK
       998**DCL       999--REDEF
VIP.DEVID
       988**DCL      1139<>CALL
VIP.DVT$
       985**DCL      1121>>ASSIGN
VIP.MODEL
       989**DCL      1131>>IF       1131>>IF
VIP.NSECTS
       993**DCL      1122>>ASSIGN   1134>>CALL
VIP.RANGE.FTRACK
      1036**DCL      1037--REDEF
VIP.RANGE.LTRACK
      1040**DCL      1041--REDEF
