VERSION E05

PL6.E3A0      #001=QTC$DEL_TRADER File=QTC$DEL_TRADER.:E05TSI                    WED 07/30/97 05:49 Page:1
        1        1        /*M* QTC$DEL_TRADER - Delete a record from the TRADER file */
        2        2        /*T***********************************************************/
        3        3        /*T*                                                         */
        4        4        /*T* Copyright (c) Bull HN Information Systems Inc., 1997    */
        5        5        /*T*                                                         */
        6        6        /*T***********************************************************/
        7        7        /*X* IND=2, DCI=4, CSU=2, ECU=4, DTI=2, CTI=4, AND */
        8        8        QTC$DEL_TRADER:
        9        9                PROC(P_MSGTYP, P_TYPE) ALTRET;
       10       10
       11       11        %INCLUDE Q_PAGE_C;
       12       43        %SET LISTEXP = '1'B;
       13       44        %PAGE(ARG="Includes");

                61        /***************************************************************************
                62         *                                                                         *
                63         *                                  Includes                               *
                64         *                                                                         *
                65         ***************************************************************************/

       14       69        %INCLUDE QT_DATA_R;
       15       83        %INCLUDE QT_SUBS_C;
       16      167        %INCLUDE CP_6;
       17      248        %INCLUDE B_ERRORS_C;
       18     1375        %PAGE(ARG="Parameters");

              1392    1   /***************************************************************************
              1393    1    *                                                                         *
              1394    1    *                                 Parameters                              *
              1395    1    *                                                                         *
              1396    1    ***************************************************************************/

       19     1400    1   DCL P_MSGTYP CHAR(8);
       20     1401    1   DCL P_TYPE UBIN WORD;
       21     1402        %PAGE(ARG="Externally defined routines");

              1419    1   /***************************************************************************
PL6.E3A0      #001=QTC$DEL_TRADER File=QTC$DEL_TRADER.:E05TSI                    WED 07/30/97 05:49 Page:2
              1420    1    *                                                                         *
              1421    1    *                        Externally defined routines                      *
              1422    1    *                                                                         *
              1423    1    ***************************************************************************/

       22     1427    1   DCL QTC$MON_ERR ENTRY(1);
       23     1428        %PAGE(ARG="Symrefs");

              1445    1   /***************************************************************************
              1446    1    *                                                                         *
              1447    1    *                                  Symrefs                                *
              1448    1    *                                                                         *
              1449    1    ***************************************************************************/

       24     1453    1   DCL B$TCB$ PTR SYMREF;
       25     1454        %PAGE(ARG="DCBs");

              1471    1   /***************************************************************************
              1472    1    *                                                                         *
              1473    1    *                                    DCBs                                 *
              1474    1    *                                                                         *
              1475    1    ***************************************************************************/

       26     1479    1   DCL M$TRADER DCB;
       27     1480        %PAGE(ARG="Based");

              1497    1   /***************************************************************************
              1498    1    *                                                                         *
              1499    1    *                                   Based                                 *
              1500    1    *                                                                         *
              1501    1    ***************************************************************************/

       28     1505        %B$TCB;
       29     1508        %B$ALT;
       30     1516        %PAGE(ARG="Static");

              1533    1   /***************************************************************************
PL6.E3A0      #001=QTC$DEL_TRADER File=QTC$DEL_TRADER.:E05TSI                    WED 07/30/97 05:49 Page:3
              1534    1    *                                                                         *
              1535    1    *                                   Static                                *
              1536    1    *                                                                         *
              1537    1    ***************************************************************************/

       31     1541    1   DCL 1 KEY STATIC,
       32     1542    1         2 * UBIN(9) UNAL INIT(10),
       33     1543    1         2 MSGTYP CHAR(8),
       34     1544    1         2 SUFFIX CHAR(2);
       35     1545        %PAGE(ARG="FPTs", PAGE=YES);

PL6.E3A0      #001=QTC$DEL_TRADER File=QTC$DEL_TRADER.:E05TSI                    WED 07/30/97 05:49 Page:4
              1562    1   /***************************************************************************
              1563    1    *                                                                         *
              1564    1    *                                    FPTs                                 *
              1565    1    *                                                                         *
              1566    1    ***************************************************************************/

       36     1570        %FPT_DELREC(DCB=M$TRADER, KEY=KEY);
       37     1589        %PAGE(ARG="QTC$DEL_TRADER", PAGE=YES);

PL6.E3A0      #001=QTC$DEL_TRADER File=QTC$DEL_TRADER.:E05TSI                    WED 07/30/97 05:49 Page:5
              1606    1   /***************************************************************************
              1607    1    *                                                                         *
              1608    1    *                               QTC$DEL_TRADER                            *
              1609    1    *                                                                         *
              1610    1    ***************************************************************************/

       38     1614    1           QT_GLOBAL.MUST_FINISH = '1'B;
       39     1615    1           KEY.MSGTYP = P_MSGTYP;
       40     1616
       41     1617    1           IF P_TYPE = 1 /* TYPE_E */ THEN
       42     1618    2             DO;
       43     1619    2               KEY.SUFFIX = '_E';
       44     1620    2             END;
       45     1621    1           ELSE
       46     1622    2             DO;
       47     1623    2               KEY.SUFFIX = '_F';
       48     1624    2             END;
       49     1625
       50     1626    1           CALL M$DELREC(FPT_DELREC) ALTRET(DELREC_ERR);
       51     1627
       52     1628    2           DO WHILE('0'B);
       53     1629
       54     1630    2   DELREC_ERR:
       55     1631    2             IF B$TCB$ -> B$TCB.ALT$ -> B$ALT.ERR.CODE ~= 66 /* E$NOKEY */ THEN
       56     1632    3               DO;
       57     1633    3                 GOTO MON_ERR;
       58     1634    3               END;
       59     1635
       60     1636    2             QT_GLOBAL.MUST_FINISH = '0'B;
       61     1637    2             ALTRETURN;
       62     1638    2           END /* WHILE */;
       63     1639
       64     1640    1           IF P_TYPE = 1 /* TYPE_E */ THEN
       65     1641    2             DO;
       66     1642    2               KEY.SUFFIX = '_S';
       67     1643    2               CALL M$DELREC(FPT_DELREC) ALTRET(DELREC_ERR2);
       68     1644
PL6.E3A0      #001=QTC$DEL_TRADER File=QTC$DEL_TRADER.:E05TSI                    WED 07/30/97 05:49 Page:6
       69     1645    3               DO WHILE('0'B);
       70     1646
       71     1647    3   DELREC_ERR2:
       72     1648    3                 IF B$TCB$ -> B$TCB.ALT$ -> B$ALT.ERR.CODE ~= 66 /* E$NOKEY */ THEN
       73     1649    4                   DO;
       74     1650    4                     GOTO MON_ERR;
       75     1651    4                   END;
       76     1652    3               END /* NEVER */;
       77     1653    2             END;
       78     1654
       79     1655    1           QT_GLOBAL.MUST_FINISH = '0'B;
       80     1656    1           RETURN;
       81     1657
       82     1658    1   MON_ERR:
       83     1659    1           CALL QTC$MON_ERR('1'B);
       84     1660    1   END QTC$DEL_TRADER;

PL6.E3A0      #001=QTC$DEL_TRADER File=QTC$DEL_TRADER.:E05TSI                    WED 07/30/97 05:49 Page:7
--  Include file information  --

   B_ERRORS_C.:E05TOU  is referenced.
   CP_6.:E05TOU  cannot be made into a system file and is referenced.
   QT_SUBS_C.:E05TOU  is referenced.
   QT_DATA_R.:E05TOU  cannot be made into a system file and is referenced.
   Q_PAGE_C.:E05TOU  is referenced.
   B$JIT_C.:E05TOU  was found in the system file and is never referenced.
   CP_6_C.:E05TOU  was found in the system file and is referenced.
      No diagnostics issued in procedure QTC$DEL_TRADER.

   Procedure QTC$DEL_TRADER requires 59 words for executable code.
   Procedure QTC$DEL_TRADER requires 6 words of local(AUTO) storage.

    No errors detected in file QTC$DEL_TRADER.:E05TSI    .

PL6.E3A0      #001=QTC$DEL_TRADER File=QTC$DEL_TRADER.:E05TSI                    WED 07/30/97 05:49 Page:8

 Object Unit name= QTC$DEL_TRADER                             File name= QTC$DEL_TRADER.:E05TOU
 UTS= JUL 30 '97 05:49:52.76 WED                              Compiler= PL-6/E31         Sev=      00
 SharedLib= :SHARED_SYSTEM                                    Alt SharedLib=


    ****  Control sections  ****

 Sect   Type Bound  Init  Size OctSiz  Section name(segment info)
    0   DCB   even  none     0      0  M$UC
    1   DCB   even  none     0      0  M$TRADER
    2   Data  even  none    14     16  QTC$DEL_TRADER
    3  RoData even  UTS      3      3  QTC$DEL_TRADER
    4   Proc  even  none    59     73  QTC$DEL_TRADER
    5  RoData even  none     1      1  QTC$DEL_TRADER

    ****  Entry defs  ****

                              Check   Calling
                             calling  sequence
  Sect OctLoc Primary Altret sequence   type   Parms  Name
     4      0   yes    yes     yes      Std        2  QTC$DEL_TRADER

  ****  Entry refs  ****

         Check        Calling
        calling       sequence
Altret sequence SRef   type   Args  Name
         yes           Std       1 QTC$MON_ERR
                       nStd      0 X66_AUTO_2
                       nStd      0 X66_AALT
                       nStd      0 X66_ARET
                       Std       0 B_CONSPOOL_D
PL6.E3A0      #001=QTC$DEL_TRADER File=QTC$DEL_TRADER.:E05TSI                    WED 07/30/97 05:49 Page:9

  ****  Data refs  ****

  Flags:  r = read only, s = secondary
Flgs Name                             Flgs Name                             Flgs Name
     QT_GLOBAL                             M$UC                                  B$TCB$
     M$TRADER                              B_VECTNIL

  ****  Segment refs  ****

  Flags:  r = read only, s = secondary
Flgs Name                             Flgs Name                             Flgs Name
     ISSID                                 NULLSID
PL6.E3A0      #001=QTC$DEL_TRADER File=QTC$DEL_TRADER.:E05TSI                    WED 07/30/97 05:49 Page:10


        1        1        /*M* QTC$DEL_TRADER - Delete a record from the TRADER file */
        2        2        /*T***********************************************************/
        3        3        /*T*                                                         */
        4        4        /*T* Copyright (c) Bull HN Information Systems Inc., 1997    */
        5        5        /*T*                                                         */
        6        6        /*T***********************************************************/
        7        7        /*X* IND=2, DCI=4, CSU=2, ECU=4, DTI=2, CTI=4, AND */
        8        8        QTC$DEL_TRADER:
        9        9                PROC(P_MSGTYP, P_TYPE) ALTRET;

      9  4 000000   000000 700200 xent  QTC$DEL_TRA* TSX0  ! X66_AUTO_2
         4 000001   000006 000002                    ZERO    6,2

       10       10
       11       11        %INCLUDE Q_PAGE_C;
       12       43        %SET LISTEXP = '1'B;
       13       44        %PAGE(ARG="Includes");

                61        /***************************************************************************
                62         *                                                                         *
                63         *                                  Includes                               *
                64         *                                                                         *
                65         ***************************************************************************/

       14       69        %INCLUDE QT_DATA_R;
       15       83        %INCLUDE QT_SUBS_C;
       16      167        %INCLUDE CP_6;
       17      248        %INCLUDE B_ERRORS_C;
       18     1375        %PAGE(ARG="Parameters");

              1392    1   /***************************************************************************
              1393    1    *                                                                         *
              1394    1    *                                 Parameters                              *
              1395    1    *                                                                         *
              1396    1    ***************************************************************************/

PL6.E3A0      #001=QTC$DEL_TRADER File=QTC$DEL_TRADER.:E05TSI                    WED 07/30/97 05:49 Page:11
       19     1400    1   DCL P_MSGTYP CHAR(8);
       20     1401    1   DCL P_TYPE UBIN WORD;
       21     1402        %PAGE(ARG="Externally defined routines");

              1419    1   /***************************************************************************
              1420    1    *                                                                         *
              1421    1    *                        Externally defined routines                      *
              1422    1    *                                                                         *
              1423    1    ***************************************************************************/

       22     1427    1   DCL QTC$MON_ERR ENTRY(1);
       23     1428        %PAGE(ARG="Symrefs");

              1445    1   /***************************************************************************
              1446    1    *                                                                         *
              1447    1    *                                  Symrefs                                *
              1448    1    *                                                                         *
              1449    1    ***************************************************************************/

       24     1453    1   DCL B$TCB$ PTR SYMREF;
       25     1454        %PAGE(ARG="DCBs");

              1471    1   /***************************************************************************
              1472    1    *                                                                         *
              1473    1    *                                    DCBs                                 *
              1474    1    *                                                                         *
              1475    1    ***************************************************************************/

       26     1479    1   DCL M$TRADER DCB;
       27     1480        %PAGE(ARG="Based");

              1497    1   /***************************************************************************
              1498    1    *                                                                         *
              1499    1    *                                   Based                                 *
              1500    1    *                                                                         *
              1501    1    ***************************************************************************/

PL6.E3A0      #001=QTC$DEL_TRADER File=QTC$DEL_TRADER.:E05TSI                    WED 07/30/97 05:49 Page:12
       28     1505        %B$TCB;
       29     1508        %B$ALT;
       30     1516        %PAGE(ARG="Static");

              1533    1   /***************************************************************************
              1534    1    *                                                                         *
              1535    1    *                                   Static                                *
              1536    1    *                                                                         *
              1537    1    ***************************************************************************/

       31     1541    1   DCL 1 KEY STATIC,
       32     1542    1         2 * UBIN(9) UNAL INIT(10),
       33     1543    1         2 MSGTYP CHAR(8),
       34     1544    1         2 SUFFIX CHAR(2);
       35     1545        %PAGE(ARG="FPTs", PAGE=YES);

PL6.E3A0      #001=QTC$DEL_TRADER File=QTC$DEL_TRADER.:E05TSI                    WED 07/30/97 05:49 Page:13
              1562    1   /***************************************************************************
              1563    1    *                                                                         *
              1564    1    *                                    FPTs                                 *
              1565    1    *                                                                         *
              1566    1    ***************************************************************************/

       36     1570        %FPT_DELREC(DCB=M$TRADER, KEY=KEY);
       37     1589        %PAGE(ARG="QTC$DEL_TRADER", PAGE=YES);

PL6.E3A0      #001=QTC$DEL_TRADER File=QTC$DEL_TRADER.:E05TSI                    WED 07/30/97 05:49 Page:14
              1606    1   /***************************************************************************
              1607    1    *                                                                         *
              1608    1    *                               QTC$DEL_TRADER                            *
              1609    1    *                                                                         *
              1610    1    ***************************************************************************/

       38     1614    1           QT_GLOBAL.MUST_FINISH = '1'B;

   1614  4 000002   400000 236003                    LDQ     -131072,DU
         4 000003   000004 756000 xsym               STQ     QT_GLOBAL+4

       39     1615    1           KEY.MSGTYP = P_MSGTYP;

   1615  4 000004   200003 470500                    LDP0    @P_MSGTYP,,AUTO
         4 000005   040000 100500                    MLR     fill='040'O
         4 000006   000000 000010                    ADSC9   0,,PR0                   cn=0,n=8
         4 000007   000000 200010 2                  ADSC9   KEY                      cn=1,n=8

       40     1616
       41     1617    1           IF P_TYPE = 1 /* TYPE_E */ THEN

   1617  4 000010   200004 471500                    LDP1    @P_TYPE,,AUTO
         4 000011   100000 235100                    LDA     0,,PR1
         4 000012   000001 115007                    CMPA    1,DL
         4 000013   000020 601000 4                  TNZ     s:1623

       42     1618    2             DO;

       43     1619    2               KEY.SUFFIX = '_E';

   1619  4 000014   000000 236000 3                  LDQ     0
         4 000015   000011 772000                    QRL     9
         4 000016   000002 552030 2                  STBQ    KEY+2,'30'O

       44     1620    2             END;

   1620  4 000017   000023 710000 4                  TRA     s:1626
PL6.E3A0      #001=QTC$DEL_TRADER File=QTC$DEL_TRADER.:E05TSI                    WED 07/30/97 05:49 Page:15

       45     1621    1           ELSE
       46     1622    2             DO;

       47     1623    2               KEY.SUFFIX = '_F';

   1623  4 000020   000001 236000 3                  LDQ     1
         4 000021   000011 772000                    QRL     9
         4 000022   000002 552030 2                  STBQ    KEY+2,'30'O

       48     1624    2             END;

       49     1625
       50     1626    1           CALL M$DELREC(FPT_DELREC) ALTRET(DELREC_ERR);

   1626  4 000023   000004 630400 2                  EPPR0   FPT_DELREC
         4 000024   440002 713400                    CLIMB   alt,+16386
         4 000025   401400 401760                    pmme    nvectors=4
         4 000026   000030 702000 4                  TSX2    DELREC_ERR

       51     1627
       52     1628    2           DO WHILE('0'B);

   1628  4 000027   000041 710000 4                  TRA     s:1640

       53     1629
       54     1630    2   DELREC_ERR:
       55     1631    2             IF B$TCB$ -> B$TCB.ALT$ -> B$ALT.ERR.CODE ~= 66 /* E$NOKEY */ THEN

   1631  4 000030   000000 470400 xsym  DELREC_ERR   LDP0    B$TCB$
         4 000031   000000 471500                    LDP1    0,,PR0
         4 000032   100102 236100                    LDQ     66,,PR1
         4 000033   377770 376007                    ANQ     131064,DL
         4 000034   001020 116007                    CMPQ    528,DL
         4 000035   000037 600000 4                  TZE     s:1636

       56     1632    3               DO;
PL6.E3A0      #001=QTC$DEL_TRADER File=QTC$DEL_TRADER.:E05TSI                    WED 07/30/97 05:49 Page:16

       57     1633    3                 GOTO MON_ERR;

   1633  4 000036   000066 710000 4                  TRA     MON_ERR

       58     1634    3               END;
       59     1635
       60     1636    2             QT_GLOBAL.MUST_FINISH = '0'B;

   1636  4 000037   000004 450000 xsym               STZ     QT_GLOBAL+4

       61     1637    2             ALTRETURN;

   1637  4 000040   000000 702200 xent               TSX2  ! X66_AALT

       62     1638    2           END /* WHILE */;

       63     1639
       64     1640    1           IF P_TYPE = 1 /* TYPE_E */ THEN

   1640  4 000041   200004 470500                    LDP0    @P_TYPE,,AUTO
         4 000042   000000 235100                    LDA     0,,PR0
         4 000043   000001 115007                    CMPA    1,DL
         4 000044   000064 601000 4                  TNZ     s:1655

       65     1641    2             DO;

       66     1642    2               KEY.SUFFIX = '_S';

   1642  4 000045   000002 236000 3                  LDQ     2
         4 000046   000011 772000                    QRL     9
         4 000047   000002 552030 2                  STBQ    KEY+2,'30'O

       67     1643    2               CALL M$DELREC(FPT_DELREC) ALTRET(DELREC_ERR2);

   1643  4 000050   000004 630400 2                  EPPR0   FPT_DELREC
         4 000051   440002 713400                    CLIMB   alt,+16386
PL6.E3A0      #001=QTC$DEL_TRADER File=QTC$DEL_TRADER.:E05TSI                    WED 07/30/97 05:49 Page:17
         4 000052   401400 401760                    pmme    nvectors=4
         4 000053   000055 702000 4                  TSX2    DELREC_ERR2

       68     1644
       69     1645    3               DO WHILE('0'B);

   1645  4 000054   000064 710000 4                  TRA     s:1655

       70     1646
       71     1647    3   DELREC_ERR2:
       72     1648    3                 IF B$TCB$ -> B$TCB.ALT$ -> B$ALT.ERR.CODE ~= 66 /* E$NOKEY */ THEN

   1648  4 000055   000000 470400 xsym  DELREC_ERR2  LDP0    B$TCB$
         4 000056   000000 471500                    LDP1    0,,PR0
         4 000057   100102 236100                    LDQ     66,,PR1
         4 000060   377770 376007                    ANQ     131064,DL
         4 000061   001020 116007                    CMPQ    528,DL
         4 000062   000064 600000 4                  TZE     s:1655

       73     1649    4                   DO;

       74     1650    4                     GOTO MON_ERR;

   1650  4 000063   000066 710000 4                  TRA     MON_ERR

       75     1651    4                   END;
       76     1652    3               END /* NEVER */;

       77     1653    2             END;

       78     1654
       79     1655    1           QT_GLOBAL.MUST_FINISH = '0'B;

   1655  4 000064   000004 450000 xsym               STZ     QT_GLOBAL+4

       80     1656    1           RETURN;

PL6.E3A0      #001=QTC$DEL_TRADER File=QTC$DEL_TRADER.:E05TSI                    WED 07/30/97 05:49 Page:18
   1656  4 000065   000000 702200 xent               TSX2  ! X66_ARET

       81     1657
       82     1658    1   MON_ERR:
       83     1659    1           CALL QTC$MON_ERR('1'B);

   1659  4 000066   000000 630400 5     MON_ERR      EPPR0   0
         4 000067   000017 631400 xsym               EPPR1   B_VECTNIL+15
         4 000070   000000 701000 xent               TSX1    QTC$MON_ERR
         4 000071   000000 011000                    NOP     0

       84     1660    1   END QTC$DEL_TRADER;

   1660  4 000072   000000 702200 xent               TSX2  ! X66_ARET

PL6.E3A0      #001=QTC$DEL_TRADER File=QTC$DEL_TRADER.:E05TSI                    WED 07/30/97 05:49 Page:19
--  Include file information  --

   B_ERRORS_C.:E05TOU  is referenced.
   CP_6.:E05TOU  cannot be made into a system file and is referenced.
   QT_SUBS_C.:E05TOU  is referenced.
   QT_DATA_R.:E05TOU  cannot be made into a system file and is referenced.
   Q_PAGE_C.:E05TOU  is referenced.
   B$JIT_C.:E05TOU  was found in the system file and is never referenced.
   CP_6_C.:E05TOU  was found in the system file and is referenced.
      No diagnostics issued in procedure QTC$DEL_TRADER.
PL6.E3A0      #001=QTC$DEL_TRADER File=QTC$DEL_TRADER.:E05TSI                    WED 07/30/97 05:49 Page:20

 **** Variables and constants ****

  ****  Section 002  Data  QTC$DEL_TRADER

  ****  Scalars and arrays  ****
OctLoc.c.b A Datatyp(siz) R M Lvl/name                 OctLoc.c.b A Datatyp(siz) R M Lvl/name

     4-0-0/d STRC(360)   r     1 FPT_DELREC                 0-0-0/c STRC(99)    r     1 KEY

  ****  Auto variables  ****

  ****  Scalars and arrays  ****
OctLoc.c.b A Datatyp(siz) R M Lvl/name                 OctLoc.c.b A Datatyp(siz) R M Lvl/name

     3-0-0/w PTR         r     1 @P_MSGTYP                  4-0-0/w PTR         r     1 @P_TYPE
    *0-0-0/c CHAR(8)     r     1 P_MSGTYP                  *0-0-0/w UBIN        r     1 P_TYPE

  ****  SYMREF variables  ****

  ****  Scalars and arrays  ****
OctLoc.c.b A Datatyp(siz) R M Lvl/name                 OctLoc.c.b A Datatyp(siz) R M Lvl/name

     0-0-0/w PTR         r     1 B$TCB$                     0-0-0/w STRC(1872)  r     1 QT_GLOBAL

  ****  BASED and DCB variables  ****

  ****  Scalars and arrays  ****
OctLoc.c.b A Datatyp(siz) R M Lvl/name                 OctLoc.c.b A Datatyp(siz) R M Lvl/name

     0-0-0/w STRC(2448)  r     1 B$ALT                      0-0-0/w STRC(144)   r     1 B$TCB
     0-0-0N  NULL        r     1 M$TRADER


   Procedure QTC$DEL_TRADER requires 59 words for executable code.
   Procedure QTC$DEL_TRADER requires 6 words of local(AUTO) storage.
PL6.E3A0      #001=QTC$DEL_TRADER File=QTC$DEL_TRADER.:E05TSI                    WED 07/30/97 05:49 Page:21

    No errors detected in file QTC$DEL_TRADER.:E05TSI    .
PL6.E3A0      #001=QTC$DEL_TRADER File=QTC$DEL_TRADER.:E05TSI                    WED 07/30/97 05:49 Page:22
          *** CROSS REFERENCE LISTING ***
**     DENOTES     IDENTIFIER DEFINITION
<<                 IDENTIFIER'S VALUE SET
>>                 IDENTIFIER'S VALUE USED
<>                 IDENTIFIER SET AND/OR USED
--                 IDENTIFIER REFERENCED
PL6.E3A0      #001=QTC$DEL_TRADER File=QTC$DEL_TRADER.:E05TSI                    WED 07/30/97 05:49 Page:23
          MINI XREF LISTING

B$ALT.CODE
      1510**DCL      1510--REDEF    1511--REDEF    1511--REDEF
B$ALT.ERR.CODE
      1512**DCL      1631>>IF       1648>>IF
B$ALT.ERR.ERR#
      1512**DCL      1512--REDEF
B$ALT.EVID
      1511**DCL      1511--REDEF    1511--REDEF
B$TCB.ALT$
      1506**DCL      1631>>IF       1648>>IF
B$TCB$
      1453**DCL      1631>>IF       1648>>IF
DELREC_ERR
      1631**LABEL    1626--CALLALT
DELREC_ERR2
      1648**LABEL    1643--CALLALT
FPT_DELREC
      1581**DCL      1626<>CALL     1643<>CALL
FPT_DELREC.V
      1584**DCL      1581--DCLINIT
KEY
      1541**DCL      1581--DCLINIT  1582--DCLINIT
KEY.MSGTYP
      1543**DCL      1615<<ASSIGN
KEY.SUFFIX
      1544**DCL      1619<<ASSIGN   1623<<ASSIGN   1642<<ASSIGN
M$DELREC
       178**DCL-ENT  1626--CALL     1643--CALL
MON_ERR
      1659**LABEL    1633--GOTO     1650--GOTO
P_MSGTYP
      1400**DCL         8--PROC     1615>>ASSIGN
PL6.E3A0      #001=QTC$DEL_TRADER File=QTC$DEL_TRADER.:E05TSI                    WED 07/30/97 05:49 Page:24
P_TYPE
      1401**DCL         8--PROC     1617>>IF       1640>>IF
QTC$MON_ERR
      1427**DCL-ENT  1659--CALL
QT_CMDBLK.OUT$
        80**DCL        81--REDEF
QT_GLOBAL.MUST_FINISH
        77**DCL      1614<<ASSIGN   1636<<ASSIGN   1655<<ASSIGN
