VERSION E05

PL6.E3A0      #001=QTC$GETMEM File=QTC$GETMEM.:E05TSI                            WED 07/30/97 05:50 Page:1
        1        1        /*M* QTC$GETMEM - Get dynamic memory */
        2        2        /*T***********************************************************/
        3        3        /*T*                                                         */
        4        4        /*T* Copyright (c) Bull HN Information Systems Inc., 1997    */
        5        5        /*T*                                                         */
        6        6        /*T***********************************************************/
        7        7        /*X* IND=2, DCI=4, CSU=2, ECU=4, DTI=2, CTI=4, AND */
        8        8        QTC$GETMEM:
        9        9                PROC(P_PTR$, P_SIZE);
       10       10
       11       11        %INCLUDE Q_PAGE_C;
       12       43        %SET LISTEXP = '1'B;
       13       44        %PAGE(ARG="Includes");

                61        /***************************************************************************
                62         *                                                                         *
                63         *                                  Includes                               *
                64         *                                                                         *
                65         ***************************************************************************/

       14       69        %INCLUDE CP_6;
       15      150        %PAGE(ARG="Parameters");

               167    1   /***************************************************************************
               168    1    *                                                                         *
               169    1    *                                 Parameters                              *
               170    1    *                                                                         *
               171    1    ***************************************************************************/

       16      175    1   DCL P_PTR$ PTR;
       17      176    1   DCL P_SIZE UBIN WORD;
       18      177        %PAGE(ARG="Externally defined routines");

               194    1   /***************************************************************************
               195    1    *                                                                         *
               196    1    *                        Externally defined routines                      *
               197    1    *                                                                         *
PL6.E3A0      #001=QTC$GETMEM File=QTC$GETMEM.:E05TSI                            WED 07/30/97 05:50 Page:2
               198    1    ***************************************************************************/

       19      202    1   DCL QTC$MON_ERR ENTRY(1);
       20      203        %PAGE(ARG="FPTs", PAGE=YES);

PL6.E3A0      #001=QTC$GETMEM File=QTC$GETMEM.:E05TSI                            WED 07/30/97 05:50 Page:3
               220    1   /***************************************************************************
               221    1    *                                                                         *
               222    1    *                                    FPTs                                 *
               223    1    *                                                                         *
               224    1    ***************************************************************************/

       21      228        %FPT_GDS(RESULTS=VLP_VECTOR, SEGSIZE=1024);
       22      244        %PAGE(ARG="VLPs");

               261    1   /***************************************************************************
               262    1    *                                                                         *
               263    1    *                                    VLPs                                 *
               264    1    *                                                                         *
               265    1    ***************************************************************************/

       23      269        %VLP_VECTOR;
       24      284        %PAGE(ARG="QTC$GETMEM", PAGE=YES);

PL6.E3A0      #001=QTC$GETMEM File=QTC$GETMEM.:E05TSI                            WED 07/30/97 05:50 Page:4
               301    1   /***************************************************************************
               302    1    *                                                                         *
               303    1    *                                 QTC$GETMEM                              *
               304    1    *                                                                         *
               305    1    ***************************************************************************/

       25      309    1           VLP_VECTOR.PTR$ = P_PTR$;
       26      310    1           CALL M$GDS(FPT_GDS) ALTRET(MON_ERR);
       27      311    1           P_SIZE = VLP_VECTOR.W1.VSIZE# + 1;
       28      312    1           P_PTR$ = VLP_VECTOR.PTR$;
       29      313
       30      314    1           RETURN;
       31      315
       32      316    1   MON_ERR:
       33      317    1           CALL QTC$MON_ERR('1'B);
       34      318
       35      319    1   END QTC$GETMEM;

PL6.E3A0      #001=QTC$GETMEM File=QTC$GETMEM.:E05TSI                            WED 07/30/97 05:50 Page:5
--  Include file information  --

   CP_6.:E05TOU  cannot be made into a system file and is referenced.
   Q_PAGE_C.:E05TOU  is referenced.
   B$JIT_C.:E05TOU  was found in the system file and is never referenced.
   CP_6_C.:E05TOU  was found in the system file and is referenced.
      No diagnostics issued in procedure QTC$GETMEM.

   Procedure QTC$GETMEM requires 23 words for executable code.
   Procedure QTC$GETMEM requires 6 words of local(AUTO) storage.

    No errors detected in file QTC$GETMEM.:E05TSI    .

PL6.E3A0      #001=QTC$GETMEM File=QTC$GETMEM.:E05TSI                            WED 07/30/97 05:50 Page:6

 Object Unit name= QTC$GETMEM                                 File name= QTC$GETMEM.:E05TOU
 UTS= JUL 30 '97 05:50:07.44 WED                              Compiler= PL-6/E31         Sev=      00
 SharedLib= :SHARED_SYSTEM                                    Alt SharedLib=


    ****  Control sections  ****

 Sect   Type Bound  Init  Size OctSiz  Section name(segment info)
    0   DCB   even  none     0      0  M$UC
    1   Data  even  none     8     10  QTC$GETMEM
    2   Proc  even  none    23     27  QTC$GETMEM
    3  RoData even  none     1      1  QTC$GETMEM

    ****  Entry defs  ****

                              Check   Calling
                             calling  sequence
  Sect OctLoc Primary Altret sequence   type   Parms  Name
     2      0   yes            yes      Std        2  QTC$GETMEM

  ****  Entry refs  ****

         Check        Calling
        calling       sequence
Altret sequence SRef   type   Args  Name
         yes           Std       1 QTC$MON_ERR
                       nStd      0 X66_AUTO_2
                       nStd      0 X66_ARET
                       Std       0 B_CONSPOOL_D

  ****  Data refs  ****

  Flags:  r = read only, s = secondary
Flgs Name                             Flgs Name                             Flgs Name
     M$UC                                  B_VECTNIL
PL6.E3A0      #001=QTC$GETMEM File=QTC$GETMEM.:E05TSI                            WED 07/30/97 05:50 Page:7

  ****  Segment refs  ****

  Flags:  r = read only, s = secondary
Flgs Name                             Flgs Name                             Flgs Name
     ISSID
PL6.E3A0      #001=QTC$GETMEM File=QTC$GETMEM.:E05TSI                            WED 07/30/97 05:50 Page:8


        1        1        /*M* QTC$GETMEM - Get dynamic memory */
        2        2        /*T***********************************************************/
        3        3        /*T*                                                         */
        4        4        /*T* Copyright (c) Bull HN Information Systems Inc., 1997    */
        5        5        /*T*                                                         */
        6        6        /*T***********************************************************/
        7        7        /*X* IND=2, DCI=4, CSU=2, ECU=4, DTI=2, CTI=4, AND */
        8        8        QTC$GETMEM:
        9        9                PROC(P_PTR$, P_SIZE);

      9  2 000000   000000 700200 xent  QTC$GETMEM   TSX0  ! X66_AUTO_2
         2 000001   000006 000002                    ZERO    6,2

       10       10
       11       11        %INCLUDE Q_PAGE_C;
       12       43        %SET LISTEXP = '1'B;
       13       44        %PAGE(ARG="Includes");

                61        /***************************************************************************
                62         *                                                                         *
                63         *                                  Includes                               *
                64         *                                                                         *
                65         ***************************************************************************/

       14       69        %INCLUDE CP_6;
       15      150        %PAGE(ARG="Parameters");

               167    1   /***************************************************************************
               168    1    *                                                                         *
               169    1    *                                 Parameters                              *
               170    1    *                                                                         *
               171    1    ***************************************************************************/

       16      175    1   DCL P_PTR$ PTR;
       17      176    1   DCL P_SIZE UBIN WORD;
       18      177        %PAGE(ARG="Externally defined routines");
PL6.E3A0      #001=QTC$GETMEM File=QTC$GETMEM.:E05TSI                            WED 07/30/97 05:50 Page:9

               194    1   /***************************************************************************
               195    1    *                                                                         *
               196    1    *                        Externally defined routines                      *
               197    1    *                                                                         *
               198    1    ***************************************************************************/

       19      202    1   DCL QTC$MON_ERR ENTRY(1);
       20      203        %PAGE(ARG="FPTs", PAGE=YES);

PL6.E3A0      #001=QTC$GETMEM File=QTC$GETMEM.:E05TSI                            WED 07/30/97 05:50 Page:10
               220    1   /***************************************************************************
               221    1    *                                                                         *
               222    1    *                                    FPTs                                 *
               223    1    *                                                                         *
               224    1    ***************************************************************************/

       21      228        %FPT_GDS(RESULTS=VLP_VECTOR, SEGSIZE=1024);
       22      244        %PAGE(ARG="VLPs");

               261    1   /***************************************************************************
               262    1    *                                                                         *
               263    1    *                                    VLPs                                 *
               264    1    *                                                                         *
               265    1    ***************************************************************************/

       23      269        %VLP_VECTOR;
       24      284        %PAGE(ARG="QTC$GETMEM", PAGE=YES);

PL6.E3A0      #001=QTC$GETMEM File=QTC$GETMEM.:E05TSI                            WED 07/30/97 05:50 Page:11
               301    1   /***************************************************************************
               302    1    *                                                                         *
               303    1    *                                 QTC$GETMEM                              *
               304    1    *                                                                         *
               305    1    ***************************************************************************/

       25      309    1           VLP_VECTOR.PTR$ = P_PTR$;

    309  2 000002   200003 470500                    LDP0    @P_PTR$,,AUTO
         2 000003   000000 236100                    LDQ     0,,PR0
         2 000004   000007 756000 1                  STQ     VLP_VECTOR+1

       26      310    1           CALL M$GDS(FPT_GDS) ALTRET(MON_ERR);

    310  2 000005   000000 630400 1                  EPPR0   FPT_GDS
         2 000006   430001 713400                    CLIMB   alt,gds
         2 000007   400400 401760                    pmme    nvectors=2
         2 000010   000022 702000 2                  TSX2    MON_ERR

       27      311    1           P_SIZE = VLP_VECTOR.W1.VSIZE# + 1;

    311  2 000011   200004 470500                    LDP0    @P_SIZE,,AUTO
         2 000012   000006 236000 1                  LDQ     VLP_VECTOR
         2 000013   000020 772000                    QRL     16
         2 000014   000001 036007                    ADLQ    1,DL
         2 000015   000000 756100                    STQ     0,,PR0

       28      312    1           P_PTR$ = VLP_VECTOR.PTR$;

    312  2 000016   000007 236000 1                  LDQ     VLP_VECTOR+1
         2 000017   200003 471500                    LDP1    @P_PTR$,,AUTO
         2 000020   100000 756100                    STQ     0,,PR1

       29      313
       30      314    1           RETURN;

    314  2 000021   000000 702200 xent               TSX2  ! X66_ARET
PL6.E3A0      #001=QTC$GETMEM File=QTC$GETMEM.:E05TSI                            WED 07/30/97 05:50 Page:12

       31      315
       32      316    1   MON_ERR:
       33      317    1           CALL QTC$MON_ERR('1'B);

    317  2 000022   000000 630400 3     MON_ERR      EPPR0   0
         2 000023   000017 631400 xsym               EPPR1   B_VECTNIL+15
         2 000024   000000 701000 xent               TSX1    QTC$MON_ERR
         2 000025   000000 011000                    NOP     0

       34      318
       35      319    1   END QTC$GETMEM;

    319  2 000026   000000 702200 xent               TSX2  ! X66_ARET

PL6.E3A0      #001=QTC$GETMEM File=QTC$GETMEM.:E05TSI                            WED 07/30/97 05:50 Page:13
--  Include file information  --

   CP_6.:E05TOU  cannot be made into a system file and is referenced.
   Q_PAGE_C.:E05TOU  is referenced.
   B$JIT_C.:E05TOU  was found in the system file and is never referenced.
   CP_6_C.:E05TOU  was found in the system file and is referenced.
      No diagnostics issued in procedure QTC$GETMEM.
PL6.E3A0      #001=QTC$GETMEM File=QTC$GETMEM.:E05TSI                            WED 07/30/97 05:50 Page:14

 **** Variables and constants ****

  ****  Section 001  Data  QTC$GETMEM

  ****  Scalars and arrays  ****
OctLoc.c.b A Datatyp(siz) R M Lvl/name                 OctLoc.c.b A Datatyp(siz) R M Lvl/name

     0-0-0/d STRC(216)   r     1 FPT_GDS                    6-0-0/d STRC(72)    r     1 VLP_VECTOR

  ****  Auto variables  ****

  ****  Scalars and arrays  ****
OctLoc.c.b A Datatyp(siz) R M Lvl/name                 OctLoc.c.b A Datatyp(siz) R M Lvl/name

     3-0-0/w PTR         r     1 @P_PTR$                    4-0-0/w PTR         r     1 @P_SIZE
    *0-0-0/w PTR         r     1 P_PTR$                    *0-0-0/w UBIN        r     1 P_SIZE


   Procedure QTC$GETMEM requires 23 words for executable code.
   Procedure QTC$GETMEM requires 6 words of local(AUTO) storage.

    No errors detected in file QTC$GETMEM.:E05TSI    .
PL6.E3A0      #001=QTC$GETMEM File=QTC$GETMEM.:E05TSI                            WED 07/30/97 05:50 Page:15
          *** CROSS REFERENCE LISTING ***
**     DENOTES     IDENTIFIER DEFINITION
<<                 IDENTIFIER'S VALUE SET
>>                 IDENTIFIER'S VALUE USED
<>                 IDENTIFIER SET AND/OR USED
--                 IDENTIFIER REFERENCED
PL6.E3A0      #001=QTC$GETMEM File=QTC$GETMEM.:E05TSI                            WED 07/30/97 05:50 Page:16
          MINI XREF LISTING

FPT_GDS
       239**DCL       310<>CALL
FPT_GDS.V
       239**DCL       239--DCLINIT
M$GDS
       113**DCL-ENT   310--CALL
MON_ERR
       317**LABEL     310--CALLALT
P_PTR$
       175**DCL         8--PROC      309>>ASSIGN    312<<ASSIGN
P_SIZE
       176**DCL         8--PROC      311<<ASSIGN
QTC$MON_ERR
       202**DCL-ENT   317--CALL
VLP_VECTOR
       280**DCL       239--DCLINIT
VLP_VECTOR.PTR$
       282**DCL       309<<ASSIGN    312>>ASSIGN
VLP_VECTOR.W1.VSIZE#
       280**DCL       311>>ASSIGN
VLP_VECTOR.W2
       281**DCL       282--REDEF
