VERSION E05

PL6.E3A0      #001=QTC$MON_ERR File=QTC$MON_ERR.:E05TSI                          WED 07/30/97 05:50 Page:1
        1        1        /*M* QTC$MON_ERR - Print a monitor error message */
        2        2        /*T***********************************************************/
        3        3        /*T*                                                         */
        4        4        /*T* Copyright (c) Bull HN Information Systems Inc., 1997    */
        5        5        /*T*                                                         */
        6        6        /*T***********************************************************/
        7        7        /*X* IND=2, DCI=4, CSU=2, ECU=4, DTI=2, CTI=4, AND */
        8        8        QTC$MON_ERR:
        9        9                PROC(P_ABORT);
       10       10
       11       11        %INCLUDE Q_PAGE_C;
       12       43        %SET LISTEXP = '1'B;
       13       44        %PAGE(ARG="Includes");

                61        /***************************************************************************
                62         *                                                                         *
                63         *                                  Includes                               *
                64         *                                                                         *
                65         ***************************************************************************/

       14       69        %INCLUDE CP_6;
       15      150        %PAGE(ARG="Parameters");

               167    1   /***************************************************************************
               168    1    *                                                                         *
               169    1    *                                 Parameters                              *
               170    1    *                                                                         *
               171    1    ***************************************************************************/

       16      175    1   DCL P_ABORT BIT(1) ALIGNED;
       17      176        %PAGE(ARG="Externally defined routines");

               193    1   /***************************************************************************
               194    1    *                                                                         *
               195    1    *                        Externally defined routines                      *
               196    1    *                                                                         *
               197    1    ***************************************************************************/
PL6.E3A0      #001=QTC$MON_ERR File=QTC$MON_ERR.:E05TSI                          WED 07/30/97 05:50 Page:2

       18      201    1   DCL XUR$ERRMSG ENTRY(7) ALTRET;
       19      202        %PAGE(ARG="Symrefs");

               219    1   /***************************************************************************
               220    1    *                                                                         *
               221    1    *                                  Symrefs                                *
               222    1    *                                                                         *
               223    1    ***************************************************************************/

       20      227    1   DCL B$TCB$ PTR SYMREF;
       21      228        %PAGE(ARG="Based");

               245    1   /***************************************************************************
               246    1    *                                                                         *
               247    1    *                                   Based                                 *
               248    1    *                                                                         *
               249    1    ***************************************************************************/

       22      253        %B$TCB;
       23      256        %B$ALT;
       24      264        %PAGE(ARG="Auto");

               281    1   /***************************************************************************
               282    1    *                                                                         *
               283    1    *                                    Auto                                 *
               284    1    *                                                                         *
               285    1    ***************************************************************************/

       25      289    1   DCL ERR BIT(36);
       26      290    1   DCL DCB# UBIN WORD;
       27      291        %PAGE(ARG="QTC$MON_ERR", PAGE=YES);

PL6.E3A0      #001=QTC$MON_ERR File=QTC$MON_ERR.:E05TSI                          WED 07/30/97 05:50 Page:3
               308    1   /***************************************************************************
               309    1    *                                                                         *
               310    1    *                                QTC$MON_ERR                              *
               311    1    *                                                                         *
               312    1    ***************************************************************************/

       28      316    1           ERR = B$TCB$ -> B$TCB.ALT$ -> B$ALT.ERR;
       29      317    1           DCB# = B$TCB$ -> B$TCB.ALT$ -> B$ALT.DCB#;
       30      318
       31      319    1           CALL XUR$ERRMSG(ERR, DCB#);
       32      320
       33      321    1           IF P_ABORT THEN
       34      322    2             DO;
       35      323    2               CALL M$ERR;
       36      324    2             END;
       37      325
       38      326    1           RETURN;
       39      327
       40      328    1   END QTC$MON_ERR;

PL6.E3A0      #001=QTC$MON_ERR File=QTC$MON_ERR.:E05TSI                          WED 07/30/97 05:50 Page:4
--  Include file information  --

   CP_6.:E05TOU  cannot be made into a system file and is referenced.
   Q_PAGE_C.:E05TOU  is referenced.
   B$JIT_C.:E05TOU  was found in the system file and is never referenced.
   CP_6_C.:E05TOU  was found in the system file and is referenced.
      No diagnostics issued in procedure QTC$MON_ERR.

   Procedure QTC$MON_ERR requires 23 words for executable code.
   Procedure QTC$MON_ERR requires 8 words of local(AUTO) storage.

    No errors detected in file QTC$MON_ERR.:E05TSI    .

PL6.E3A0      #001=QTC$MON_ERR File=QTC$MON_ERR.:E05TSI                          WED 07/30/97 05:50 Page:5

 Object Unit name= QTC$MON_ERR                                File name= QTC$MON_ERR.:E05TOU
 UTS= JUL 30 '97 05:50:19.20 WED                              Compiler= PL-6/E31         Sev=      00
 SharedLib= :SHARED_SYSTEM                                    Alt SharedLib=


    ****  Control sections  ****

 Sect   Type Bound  Init  Size OctSiz  Section name(segment info)
    0   DCB   even  none     0      0  M$UC
    1   Proc  even  none    23     27  QTC$MON_ERR

    ****  Entry defs  ****

                              Check   Calling
                             calling  sequence
  Sect OctLoc Primary Altret sequence   type   Parms  Name
     1      0   yes            yes      Std        1  QTC$MON_ERR

  ****  Entry refs  ****

         Check        Calling
        calling       sequence
Altret sequence SRef   type   Args  Name
 yes     yes           Std       7 XUR$ERRMSG
                       nStd      0 X66_AUTO_1
                       Std       0 B_CONSPOOL_D
                       nStd      0 X66_ARET

  ****  Data refs  ****

  Flags:  r = read only, s = secondary
Flgs Name                             Flgs Name                             Flgs Name
     M$UC                                  B$TCB$                                B_VECTNIL
PL6.E3A0      #001=QTC$MON_ERR File=QTC$MON_ERR.:E05TSI                          WED 07/30/97 05:50 Page:6


        1        1        /*M* QTC$MON_ERR - Print a monitor error message */
        2        2        /*T***********************************************************/
        3        3        /*T*                                                         */
        4        4        /*T* Copyright (c) Bull HN Information Systems Inc., 1997    */
        5        5        /*T*                                                         */
        6        6        /*T***********************************************************/
        7        7        /*X* IND=2, DCI=4, CSU=2, ECU=4, DTI=2, CTI=4, AND */
        8        8        QTC$MON_ERR:
        9        9                PROC(P_ABORT);

      9  1 000000   000000 700200 xent  QTC$MON_ERR  TSX0  ! X66_AUTO_1
         1 000001   000010 000001                    ZERO    8,1

       10       10
       11       11        %INCLUDE Q_PAGE_C;
       12       43        %SET LISTEXP = '1'B;
       13       44        %PAGE(ARG="Includes");

                61        /***************************************************************************
                62         *                                                                         *
                63         *                                  Includes                               *
                64         *                                                                         *
                65         ***************************************************************************/

       14       69        %INCLUDE CP_6;
       15      150        %PAGE(ARG="Parameters");

               167    1   /***************************************************************************
               168    1    *                                                                         *
               169    1    *                                 Parameters                              *
               170    1    *                                                                         *
               171    1    ***************************************************************************/

       16      175    1   DCL P_ABORT BIT(1) ALIGNED;
       17      176        %PAGE(ARG="Externally defined routines");

PL6.E3A0      #001=QTC$MON_ERR File=QTC$MON_ERR.:E05TSI                          WED 07/30/97 05:50 Page:7
               193    1   /***************************************************************************
               194    1    *                                                                         *
               195    1    *                        Externally defined routines                      *
               196    1    *                                                                         *
               197    1    ***************************************************************************/

       18      201    1   DCL XUR$ERRMSG ENTRY(7) ALTRET;
       19      202        %PAGE(ARG="Symrefs");

               219    1   /***************************************************************************
               220    1    *                                                                         *
               221    1    *                                  Symrefs                                *
               222    1    *                                                                         *
               223    1    ***************************************************************************/

       20      227    1   DCL B$TCB$ PTR SYMREF;
       21      228        %PAGE(ARG="Based");

               245    1   /***************************************************************************
               246    1    *                                                                         *
               247    1    *                                   Based                                 *
               248    1    *                                                                         *
               249    1    ***************************************************************************/

       22      253        %B$TCB;
       23      256        %B$ALT;
       24      264        %PAGE(ARG="Auto");

               281    1   /***************************************************************************
               282    1    *                                                                         *
               283    1    *                                    Auto                                 *
               284    1    *                                                                         *
               285    1    ***************************************************************************/

       25      289    1   DCL ERR BIT(36);
       26      290    1   DCL DCB# UBIN WORD;
       27      291        %PAGE(ARG="QTC$MON_ERR", PAGE=YES);
PL6.E3A0      #001=QTC$MON_ERR File=QTC$MON_ERR.:E05TSI                          WED 07/30/97 05:50 Page:8

PL6.E3A0      #001=QTC$MON_ERR File=QTC$MON_ERR.:E05TSI                          WED 07/30/97 05:50 Page:9
               308    1   /***************************************************************************
               309    1    *                                                                         *
               310    1    *                                QTC$MON_ERR                              *
               311    1    *                                                                         *
               312    1    ***************************************************************************/

       28      316    1           ERR = B$TCB$ -> B$TCB.ALT$ -> B$ALT.ERR;

    316  1 000002   000000 470400 xsym               LDP0    B$TCB$
         1 000003   000000 471500                    LDP1    0,,PR0
         1 000004   100102 236100                    LDQ     66,,PR1
         1 000005   200004 756100                    STQ     ERR,,AUTO

       29      317    1           DCB# = B$TCB$ -> B$TCB.ALT$ -> B$ALT.DCB#;

    317  1 000006   000000 471500                    LDP1    0,,PR0
         1 000007   100101 235100                    LDA     65,,PR1
         1 000010   200005 755100                    STA     DCB#,,AUTO

       30      318
       31      319    1           CALL XUR$ERRMSG(ERR, DCB#);

    319  1 000011   200005 631500                    EPPR1   DCB#,,AUTO
         1 000012   200007 451500                    STP1    DCB#+2,,AUTO
         1 000013   200004 633500                    EPPR3   ERR,,AUTO
         1 000014   200006 453500                    STP3    DCB#+1,,AUTO
         1 000015   200006 630500                    EPPR0   DCB#+1,,AUTO
         1 000016   000020 631400 xsym               EPPR1   B_VECTNIL+16
         1 000017   000000 701000 xent               TSX1    XUR$ERRMSG
         1 000020   000000 011000                    NOP     0

       32      320
       33      321    1           IF P_ABORT THEN

    321  1 000021   200003 470500                    LDP0    @P_ABORT,,AUTO
         1 000022   000000 234100                    SZN     0,,PR0
         1 000023   000026 605000 1                  TPL     s:326
PL6.E3A0      #001=QTC$MON_ERR File=QTC$MON_ERR.:E05TSI                          WED 07/30/97 05:50 Page:10

       34      322    2             DO;

       35      323    2               CALL M$ERR;

    323  1 000024   000002 713400                    CLIMB   err
         1 000025   000000 401760                    pmme    nvectors=0

       36      324    2             END;

       37      325
       38      326    1           RETURN;

    326  1 000026   000000 702200 xent               TSX2  ! X66_ARET
       39      327
       40      328    1   END QTC$MON_ERR;

PL6.E3A0      #001=QTC$MON_ERR File=QTC$MON_ERR.:E05TSI                          WED 07/30/97 05:50 Page:11
--  Include file information  --

   CP_6.:E05TOU  cannot be made into a system file and is referenced.
   Q_PAGE_C.:E05TOU  is referenced.
   B$JIT_C.:E05TOU  was found in the system file and is never referenced.
   CP_6_C.:E05TOU  was found in the system file and is referenced.
      No diagnostics issued in procedure QTC$MON_ERR.
PL6.E3A0      #001=QTC$MON_ERR File=QTC$MON_ERR.:E05TSI                          WED 07/30/97 05:50 Page:12

 **** Variables and constants ****

  ****  Auto variables  ****

  ****  Scalars and arrays  ****
OctLoc.c.b A Datatyp(siz) R M Lvl/name                 OctLoc.c.b A Datatyp(siz) R M Lvl/name

     3-0-0/w PTR         r     1 @P_ABORT                   5-0-0/w UBIN        r     1 DCB#
     4-0-0/b BIT         r     1 ERR                       *0-0-0/w BIT         r     1 P_ABORT

  ****  SYMREF variables  ****

  ****  Scalars and arrays  ****
OctLoc.c.b A Datatyp(siz) R M Lvl/name                 OctLoc.c.b A Datatyp(siz) R M Lvl/name

     0-0-0/w PTR         r     1 B$TCB$

  ****  BASED and DCB variables  ****

  ****  Scalars and arrays  ****
OctLoc.c.b A Datatyp(siz) R M Lvl/name                 OctLoc.c.b A Datatyp(siz) R M Lvl/name

     0-0-0/w STRC(2448)  r     1 B$ALT                      0-0-0/w STRC(144)   r     1 B$TCB


   Procedure QTC$MON_ERR requires 23 words for executable code.
   Procedure QTC$MON_ERR requires 8 words of local(AUTO) storage.

    No errors detected in file QTC$MON_ERR.:E05TSI    .
PL6.E3A0      #001=QTC$MON_ERR File=QTC$MON_ERR.:E05TSI                          WED 07/30/97 05:50 Page:13
          *** CROSS REFERENCE LISTING ***
**     DENOTES     IDENTIFIER DEFINITION
<<                 IDENTIFIER'S VALUE SET
>>                 IDENTIFIER'S VALUE USED
<>                 IDENTIFIER SET AND/OR USED
--                 IDENTIFIER REFERENCED
PL6.E3A0      #001=QTC$MON_ERR File=QTC$MON_ERR.:E05TSI                          WED 07/30/97 05:50 Page:14
          MINI XREF LISTING

B$ALT.CODE
       258**DCL       258--REDEF     259--REDEF     259--REDEF
B$ALT.DCB#
       259**DCL       317>>ASSIGN
B$ALT.ERR
       259**DCL       316>>ASSIGN
B$ALT.ERR.ERR#
       260**DCL       260--REDEF
B$ALT.EVID
       259**DCL       259--REDEF     259--REDEF
B$TCB.ALT$
       254**DCL       316>>ASSIGN    317>>ASSIGN
B$TCB$
       227**DCL       316>>ASSIGN    317>>ASSIGN
DCB#
       290**DCL       317<<ASSIGN    319<>CALL
ERR
       289**DCL       316<<ASSIGN    319<>CALL
M$ERR
        90**DCL-ENT   323--CALL
P_ABORT
       175**DCL         8--PROC      321>>IF
XUR$ERRMSG
       201**DCL-ENT   319--CALL
