VERSION E05

PL6.E3A0      #001=QTC$PRINT_ERR File=QTC$PRINT_ERR.:E05TSI                      WED 07/30/97 05:50 Page:1
        1        1        /*M* QTC$PRINT_ERR - Print an error message */
        2        2        /*T***********************************************************/
        3        3        /*T*                                                         */
        4        4        /*T* Copyright (c) Bull HN Information Systems Inc., 1997    */
        5        5        /*T*                                                         */
        6        6        /*T***********************************************************/
        7        7        /*X* IND=2, DCI=4, CSU=2, ECU=4, DTI=2, CTI=4, AND */
        8        8        QTC$PRINT_ERR:
        9        9                PROC(P_CODE, P_ERRDCB, P_F1, P_F2, P_F3);
       10       10
       11       11        %INCLUDE Q_PAGE_C;
       12       43        %SET LISTEXP = '1'B;
       13       44        %PAGE(ARG="Includes");

                61        /***************************************************************************
                62         *                                                                         *
                63         *                                  Includes                               *
                64         *                                                                         *
                65         ***************************************************************************/

       14       69        %INCLUDE CP_6;
       15      150        %PAGE(ARG="Parameters");

               167    1   /***************************************************************************
               168    1    *                                                                         *
               169    1    *                                 Parameters                              *
               170    1    *                                                                         *
               171    1    ***************************************************************************/

       16      175    1   DCL P_CODE BIT(36) ALIGNED;
       17      176    1   DCL P_ERRDCB UBIN WORD ALIGNED;
       18      177    1   DCL P_F1 BIT(72) ALIGNED;
       19      178    1   DCL P_F2 BIT(72) ALIGNED;
       20      179    1   DCL P_F3 BIT(72) ALIGNED;
       21      180        %PAGE(ARG="DCBs");

               197    1   /***************************************************************************
PL6.E3A0      #001=QTC$PRINT_ERR File=QTC$PRINT_ERR.:E05TSI                      WED 07/30/97 05:50 Page:2
               198    1    *                                                                         *
               199    1    *                                    DCBs                                 *
               200    1    *                                                                         *
               201    1    ***************************************************************************/

       22      205    1   DCL M$DO DCB;
       23      206        %PAGE(ARG="Constants");

               223    1   /***************************************************************************
               224    1    *                                                                         *
               225    1    *                                 Constants                               *
               226    1    *                                                                         *
               227    1    ***************************************************************************/

       24      231        %VLP_NAME(FPTN=QTERRMSG, STCLASS=CONSTANT, NAME=':QTERRMSG');
       25      258        %PAGE(ARG="Static");

               275    1   /***************************************************************************
               276    1    *                                                                         *
               277    1    *                                   Static                                *
               278    1    *                                                                         *
               279    1    ***************************************************************************/

       26      283    1   DCL ERRBUF CHAR(120) STATIC;
       27      284    1   DCL CODE BIT(36) STATIC;
       28      285        %PAGE(ARG="FPTs", PAGE=YES);

PL6.E3A0      #001=QTC$PRINT_ERR File=QTC$PRINT_ERR.:E05TSI                      WED 07/30/97 05:50 Page:3
               302    1   /***************************************************************************
               303    1    *                                                                         *
               304    1    *                                    FPTs                                 *
               305    1    *                                                                         *
               306    1    ***************************************************************************/

       29      310        %FPT_ERRMSG(BUF=ERRBUF, OUTDCB1=M$DO, FILENAME=QTERRMSG, INCLCODE=NO,
       30      311        CODE=CODE, RESULTS=VLR_ERRMSG);
       31      338        %PAGE(ARG="VLRs");

               355    1   /***************************************************************************
               356    1    *                                                                         *
               357    1    *                                    VLRs                                 *
               358    1    *                                                                         *
               359    1    ***************************************************************************/

       32      363        %VLR_ERRMSG;
       33      385        %PAGE(ARG="QTC$PRINT_ERR", PAGE=YES);

PL6.E3A0      #001=QTC$PRINT_ERR File=QTC$PRINT_ERR.:E05TSI                      WED 07/30/97 05:50 Page:4
               402    1   /***************************************************************************
               403    1    *                                                                         *
               404    1    *                               QTC$PRINT_ERR                             *
               405    1    *                                                                         *
               406    1    ***************************************************************************/

       34      410    1           CODE = P_CODE;
       35      411
       36      412    1           IF ADDR(P_ERRDCB) = ADDR(NIL) THEN
       37      413    2             DO;
       38      414    2               FPT_ERRMSG.V.DCB# = 0;
       39      415    2             END;
       40      416    1           ELSE
       41      417    2             DO;
       42      418    2               FPT_ERRMSG.V.DCB# = P_ERRDCB;
       43      419    2             END;
       44      420
       45      421    1           IF ADDR(P_F1) = ADDR(NIL) THEN
       46      422    2             DO;
       47      423    2               FPT_ERRMSG.FIELD1_ = VECTOR(NIL);
       48      424    2             END;
       49      425    1           ELSE
       50      426    2             DO;
       51      427    2               FPT_ERRMSG.FIELD1_ = P_F1;
       52      428    2             END;
       53      429
       54      430    1           IF ADDR(P_F2) = ADDR(NIL) THEN
       55      431    2             DO;
       56      432    2               FPT_ERRMSG.FIELD2_ = VECTOR(NIL);
       57      433    2             END;
       58      434    1           ELSE
       59      435    2             DO;
       60      436    2               FPT_ERRMSG.FIELD2_ = P_F2;
       61      437    2             END;
       62      438
       63      439    1           IF ADDR(P_F3) = ADDR(NIL) THEN
       64      440    2             DO;
PL6.E3A0      #001=QTC$PRINT_ERR File=QTC$PRINT_ERR.:E05TSI                      WED 07/30/97 05:50 Page:5
       65      441    2               FPT_ERRMSG.FIELD3_ = VECTOR(NIL);
       66      442    2             END;
       67      443    1           ELSE
       68      444    2             DO;
       69      445    2               FPT_ERRMSG.FIELD3_ = P_F3;
       70      446    2             END;
       71      447
       72      448    1           CALL M$ERRMSG(FPT_ERRMSG) ALTRET(MON_ERR);
       73      449
       74      450    2           DO WHILE('0'B);
       75      451
       76      452    2   MON_ERR:
       77      453    2             IF NOT(VLR_ERRMSG.NOFILE OR VLR_ERRMSG.NOMSG) THEN
       78      454    3               DO;
       79      455    3                 CALL M$ERR;
       80      456    3               END;
       81      457    2           END /* NEVER */;
       82      458
       83      459    1           RETURN;
       84      460
       85      461    1   END QTC$PRINT_ERR;

PL6.E3A0      #001=QTC$PRINT_ERR File=QTC$PRINT_ERR.:E05TSI                      WED 07/30/97 05:50 Page:6
--  Include file information  --

   CP_6.:E05TOU  cannot be made into a system file and is referenced.
   Q_PAGE_C.:E05TOU  is referenced.
   B$JIT_C.:E05TOU  was found in the system file and is never referenced.
   CP_6_C.:E05TOU  was found in the system file and is referenced.
      No diagnostics issued in procedure QTC$PRINT_ERR.

   Procedure QTC$PRINT_ERR requires 57 words for executable code.
   Procedure QTC$PRINT_ERR requires 8 words of local(AUTO) storage.

    No errors detected in file QTC$PRINT_ERR.:E05TSI    .

PL6.E3A0      #001=QTC$PRINT_ERR File=QTC$PRINT_ERR.:E05TSI                      WED 07/30/97 05:50 Page:7

 Object Unit name= QTC$PRINT_ERR                              File name= QTC$PRINT_ERR.:E05TOU
 UTS= JUL 30 '97 05:50:31.08 WED                              Compiler= PL-6/E31         Sev=      00
 SharedLib= :SHARED_SYSTEM                                    Alt SharedLib=


    ****  Control sections  ****

 Sect   Type Bound  Init  Size OctSiz  Section name(segment info)
    0   DCB   even  none     0      0  M$UC
    1   DCB   even  none     0      0  M$DO
    2  RoData even  UTS      3      3  QTC$PRINT_ERR
    3   Data  even  none    62     76  QTC$PRINT_ERR
    4   Proc  even  none    57     71  QTC$PRINT_ERR
    5  RoData even  none     2      2  QTC$PRINT_ERR

    ****  Entry defs  ****

                              Check   Calling
                             calling  sequence
  Sect OctLoc Primary Altret sequence   type   Parms  Name
     4      0   yes            yes      Std        5  QTC$PRINT_ERR

  ****  Entry refs  ****

         Check        Calling
        calling       sequence
Altret sequence SRef   type   Args  Name
                       nStd      0 X66_AUTO_5
                       Std       0 B_CONSPOOL_D
                       nStd      0 X66_ARET

  ****  Data refs  ****

  Flags:  r = read only, s = secondary
Flgs Name                             Flgs Name                             Flgs Name
     M$UC                                  M$DO                                  B_VECTNIL
PL6.E3A0      #001=QTC$PRINT_ERR File=QTC$PRINT_ERR.:E05TSI                      WED 07/30/97 05:50 Page:8

  ****  Segment refs  ****

  Flags:  r = read only, s = secondary
Flgs Name                             Flgs Name                             Flgs Name
     ISSID                                 NULLSID
PL6.E3A0      #001=QTC$PRINT_ERR File=QTC$PRINT_ERR.:E05TSI                      WED 07/30/97 05:50 Page:9


        1        1        /*M* QTC$PRINT_ERR - Print an error message */
        2        2        /*T***********************************************************/
        3        3        /*T*                                                         */
        4        4        /*T* Copyright (c) Bull HN Information Systems Inc., 1997    */
        5        5        /*T*                                                         */
        6        6        /*T***********************************************************/
        7        7        /*X* IND=2, DCI=4, CSU=2, ECU=4, DTI=2, CTI=4, AND */
        8        8        QTC$PRINT_ERR:
        9        9                PROC(P_CODE, P_ERRDCB, P_F1, P_F2, P_F3);

      9  4 000000   000000 700200 xent  QTC$PRINT_E* TSX0  ! X66_AUTO_5
         4 000001   000010 000005                    ZERO    8,5

       10       10
       11       11        %INCLUDE Q_PAGE_C;
       12       43        %SET LISTEXP = '1'B;
       13       44        %PAGE(ARG="Includes");

                61        /***************************************************************************
                62         *                                                                         *
                63         *                                  Includes                               *
                64         *                                                                         *
                65         ***************************************************************************/

       14       69        %INCLUDE CP_6;
       15      150        %PAGE(ARG="Parameters");

               167    1   /***************************************************************************
               168    1    *                                                                         *
               169    1    *                                 Parameters                              *
               170    1    *                                                                         *
               171    1    ***************************************************************************/

       16      175    1   DCL P_CODE BIT(36) ALIGNED;
       17      176    1   DCL P_ERRDCB UBIN WORD ALIGNED;
       18      177    1   DCL P_F1 BIT(72) ALIGNED;
PL6.E3A0      #001=QTC$PRINT_ERR File=QTC$PRINT_ERR.:E05TSI                      WED 07/30/97 05:50 Page:10
       19      178    1   DCL P_F2 BIT(72) ALIGNED;
       20      179    1   DCL P_F3 BIT(72) ALIGNED;
       21      180        %PAGE(ARG="DCBs");

               197    1   /***************************************************************************
               198    1    *                                                                         *
               199    1    *                                    DCBs                                 *
               200    1    *                                                                         *
               201    1    ***************************************************************************/

       22      205    1   DCL M$DO DCB;
       23      206        %PAGE(ARG="Constants");

               223    1   /***************************************************************************
               224    1    *                                                                         *
               225    1    *                                 Constants                               *
               226    1    *                                                                         *
               227    1    ***************************************************************************/

       24      231        %VLP_NAME(FPTN=QTERRMSG, STCLASS=CONSTANT, NAME=':QTERRMSG');
       25      258        %PAGE(ARG="Static");

               275    1   /***************************************************************************
               276    1    *                                                                         *
               277    1    *                                   Static                                *
               278    1    *                                                                         *
               279    1    ***************************************************************************/

       26      283    1   DCL ERRBUF CHAR(120) STATIC;
       27      284    1   DCL CODE BIT(36) STATIC;
       28      285        %PAGE(ARG="FPTs", PAGE=YES);

PL6.E3A0      #001=QTC$PRINT_ERR File=QTC$PRINT_ERR.:E05TSI                      WED 07/30/97 05:50 Page:11
               302    1   /***************************************************************************
               303    1    *                                                                         *
               304    1    *                                    FPTs                                 *
               305    1    *                                                                         *
               306    1    ***************************************************************************/

       29      310        %FPT_ERRMSG(BUF=ERRBUF, OUTDCB1=M$DO, FILENAME=QTERRMSG, INCLCODE=NO,
       30      311        CODE=CODE, RESULTS=VLR_ERRMSG);
       31      338        %PAGE(ARG="VLRs");

               355    1   /***************************************************************************
               356    1    *                                                                         *
               357    1    *                                    VLRs                                 *
               358    1    *                                                                         *
               359    1    ***************************************************************************/

       32      363        %VLR_ERRMSG;
       33      385        %PAGE(ARG="QTC$PRINT_ERR", PAGE=YES);

PL6.E3A0      #001=QTC$PRINT_ERR File=QTC$PRINT_ERR.:E05TSI                      WED 07/30/97 05:50 Page:12
               402    1   /***************************************************************************
               403    1    *                                                                         *
               404    1    *                               QTC$PRINT_ERR                             *
               405    1    *                                                                         *
               406    1    ***************************************************************************/

       34      410    1           CODE = P_CODE;

    410  4 000002   200003 470500                    LDP0    @P_CODE,,AUTO
         4 000003   000000 236100                    LDQ     0,,PR0
         4 000004   000036 756000 3                  STQ     CODE

       35      411
       36      412    1           IF ADDR(P_ERRDCB) = ADDR(NIL) THEN

    412  4 000005   200004 236100                    LDQ     @P_ERRDCB,,AUTO
         4 000006   000001 116000 xsym               CMPQ    B_VECTNIL+1
         4 000007   000013 601000 4                  TNZ     s:418

       37      413    2             DO;

       38      414    2               FPT_ERRMSG.V.DCB# = 0;

    414  4 000010   000000 220003                    LDX0    0,DU
         4 000011   000066 740000 3                  STX0    FPT_ERRMSG+22

       39      415    2             END;

    415  4 000012   000016 710000 4                  TRA     s:421

       40      416    1           ELSE
       41      417    2             DO;

       42      418    2               FPT_ERRMSG.V.DCB# = P_ERRDCB;

    418  4 000013   200004 471500                    LDP1    @P_ERRDCB,,AUTO
         4 000014   100000 720100                    LXL0    0,,PR1
PL6.E3A0      #001=QTC$PRINT_ERR File=QTC$PRINT_ERR.:E05TSI                      WED 07/30/97 05:50 Page:13
         4 000015   000066 740000 3                  STX0    FPT_ERRMSG+22

       43      419    2             END;

       44      420
       45      421    1           IF ADDR(P_F1) = ADDR(NIL) THEN

    421  4 000016   200005 236100                    LDQ     @P_F1,,AUTO
         4 000017   000001 116000 xsym               CMPQ    B_VECTNIL+1
         4 000020   000024 601000 4                  TNZ     s:427

       46      422    2             DO;

       47      423    2               FPT_ERRMSG.FIELD1_ = VECTOR(NIL);

    423  4 000021   000000 237000 5                  LDAQ    0
         4 000022   000054 757000 3                  STAQ    FPT_ERRMSG+12

       48      424    2             END;

    424  4 000023   000030 710000 4                  TRA     s:430

       49      425    1           ELSE
       50      426    2             DO;

       51      427    2               FPT_ERRMSG.FIELD1_ = P_F1;

    427  4 000024   200005 471500                    LDP1    @P_F1,,AUTO
         4 000025   000000 100500                    MLR     fill='000'O
         4 000026   100000 000010                    ADSC9   0,,PR1                   cn=0,n=8
         4 000027   000054 000010 3                  ADSC9   FPT_ERRMSG+12            cn=0,n=8

       52      428    2             END;

       53      429
       54      430    1           IF ADDR(P_F2) = ADDR(NIL) THEN

PL6.E3A0      #001=QTC$PRINT_ERR File=QTC$PRINT_ERR.:E05TSI                      WED 07/30/97 05:50 Page:14
    430  4 000030   200006 236100                    LDQ     @P_F2,,AUTO
         4 000031   000001 116000 xsym               CMPQ    B_VECTNIL+1
         4 000032   000036 601000 4                  TNZ     s:436

       55      431    2             DO;

       56      432    2               FPT_ERRMSG.FIELD2_ = VECTOR(NIL);

    432  4 000033   000000 237000 5                  LDAQ    0
         4 000034   000056 757000 3                  STAQ    FPT_ERRMSG+14

       57      433    2             END;

    433  4 000035   000042 710000 4                  TRA     s:439

       58      434    1           ELSE
       59      435    2             DO;

       60      436    2               FPT_ERRMSG.FIELD2_ = P_F2;

    436  4 000036   200006 471500                    LDP1    @P_F2,,AUTO
         4 000037   000000 100500                    MLR     fill='000'O
         4 000040   100000 000010                    ADSC9   0,,PR1                   cn=0,n=8
         4 000041   000056 000010 3                  ADSC9   FPT_ERRMSG+14            cn=0,n=8

       61      437    2             END;

       62      438
       63      439    1           IF ADDR(P_F3) = ADDR(NIL) THEN

    439  4 000042   200007 236100                    LDQ     @P_F3,,AUTO
         4 000043   000001 116000 xsym               CMPQ    B_VECTNIL+1
         4 000044   000050 601000 4                  TNZ     s:445

       64      440    2             DO;

       65      441    2               FPT_ERRMSG.FIELD3_ = VECTOR(NIL);
PL6.E3A0      #001=QTC$PRINT_ERR File=QTC$PRINT_ERR.:E05TSI                      WED 07/30/97 05:50 Page:15

    441  4 000045   000000 237000 5                  LDAQ    0
         4 000046   000060 757000 3                  STAQ    FPT_ERRMSG+16

       66      442    2             END;

    442  4 000047   000054 710000 4                  TRA     s:448

       67      443    1           ELSE
       68      444    2             DO;

       69      445    2               FPT_ERRMSG.FIELD3_ = P_F3;

    445  4 000050   200007 471500                    LDP1    @P_F3,,AUTO
         4 000051   000000 100500                    MLR     fill='000'O
         4 000052   100000 000010                    ADSC9   0,,PR1                   cn=0,n=8
         4 000053   000060 000010 3                  ADSC9   FPT_ERRMSG+16            cn=0,n=8

       70      446    2             END;

       71      447
       72      448    1           CALL M$ERRMSG(FPT_ERRMSG) ALTRET(MON_ERR);

    448  4 000054   000040 630400 3                  EPPR0   FPT_ERRMSG
         4 000055   420000 713400                    CLIMB   alt,+8192
         4 000056   405000 401760                    pmme    nvectors=11
         4 000057   000061 702000 4                  TSX2    MON_ERR

       73      449
       74      450    2           DO WHILE('0'B);

    450  4 000060   000070 710000 4                  TRA     s:459

       75      451
       76      452    2   MON_ERR:
       77      453    2             IF NOT(VLR_ERRMSG.NOFILE OR VLR_ERRMSG.NOMSG) THEN

PL6.E3A0      #001=QTC$PRINT_ERR File=QTC$PRINT_ERR.:E05TSI                      WED 07/30/97 05:50 Page:16
    453  4 000061   000072 236000 3     MON_ERR      LDQ     VLR_ERRMSG
         4 000062   200000 316003                    CANQ    65536,DU
         4 000063   000070 601000 4                  TNZ     s:459
         4 000064   100000 316003                    CANQ    32768,DU
         4 000065   000070 601000 4                  TNZ     s:459

       78      454    3               DO;

       79      455    3                 CALL M$ERR;

    455  4 000066   000002 713400                    CLIMB   err
         4 000067   000000 401760                    pmme    nvectors=0

       80      456    3               END;

       81      457    2           END /* NEVER */;

       82      458
       83      459    1           RETURN;

    459  4 000070   000000 702200 xent               TSX2  ! X66_ARET
       84      460
       85      461    1   END QTC$PRINT_ERR;

PL6.E3A0      #001=QTC$PRINT_ERR File=QTC$PRINT_ERR.:E05TSI                      WED 07/30/97 05:50 Page:17
--  Include file information  --

   CP_6.:E05TOU  cannot be made into a system file and is referenced.
   Q_PAGE_C.:E05TOU  is referenced.
   B$JIT_C.:E05TOU  was found in the system file and is never referenced.
   CP_6_C.:E05TOU  was found in the system file and is referenced.
      No diagnostics issued in procedure QTC$PRINT_ERR.
PL6.E3A0      #001=QTC$PRINT_ERR File=QTC$PRINT_ERR.:E05TSI                      WED 07/30/97 05:50 Page:18

 **** Variables and constants ****

  ****  Section 002 RoData QTC$PRINT_ERR

  ****  Scalars and arrays  ****
OctLoc.c.b A Datatyp(siz) R M Lvl/name                 OctLoc.c.b A Datatyp(siz) R M Lvl/name

     0-0-0/c STRC(90)    r     1 QTERRMSG

  ****  Section 003  Data  QTC$PRINT_ERR

  ****  Scalars and arrays  ****
OctLoc.c.b A Datatyp(siz) R M Lvl/name                 OctLoc.c.b A Datatyp(siz) R M Lvl/name

    36-0-0/b BIT         r     1 CODE                       0-0-0/c CHAR(120)   r     1 ERRBUF
    40-0-0/d STRC(936)   r     1 FPT_ERRMSG                72-0-0/d STRC(144)   r     1 VLR_ERRMSG

  ****  Auto variables  ****

  ****  Scalars and arrays  ****
OctLoc.c.b A Datatyp(siz) R M Lvl/name                 OctLoc.c.b A Datatyp(siz) R M Lvl/name

     3-0-0/w PTR         r     1 @P_CODE                    4-0-0/w PTR         r     1 @P_ERRDCB
     5-0-0/w PTR         r     1 @P_F1                      6-0-0/w PTR         r     1 @P_F2
     7-0-0/w PTR         r     1 @P_F3                     *0-0-0/w BIT         r     1 P_CODE
    *0-0-0/w UBIN        r     1 P_ERRDCB                  *0-0-0/w BIT (72)    r     1 P_F1
    *0-0-0/w BIT (72)    r     1 P_F2                      *0-0-0/w BIT (72)    r     1 P_F3

  ****  BASED and DCB variables  ****

  ****  Scalars and arrays  ****
OctLoc.c.b A Datatyp(siz) R M Lvl/name                 OctLoc.c.b A Datatyp(siz) R M Lvl/name

     0-0-0N  NULL        r     1 M$DO

PL6.E3A0      #001=QTC$PRINT_ERR File=QTC$PRINT_ERR.:E05TSI                      WED 07/30/97 05:50 Page:19

   Procedure QTC$PRINT_ERR requires 57 words for executable code.
   Procedure QTC$PRINT_ERR requires 8 words of local(AUTO) storage.

    No errors detected in file QTC$PRINT_ERR.:E05TSI    .
PL6.E3A0      #001=QTC$PRINT_ERR File=QTC$PRINT_ERR.:E05TSI                      WED 07/30/97 05:50 Page:20
          *** CROSS REFERENCE LISTING ***
**     DENOTES     IDENTIFIER DEFINITION
<<                 IDENTIFIER'S VALUE SET
>>                 IDENTIFIER'S VALUE USED
<>                 IDENTIFIER SET AND/OR USED
--                 IDENTIFIER REFERENCED
PL6.E3A0      #001=QTC$PRINT_ERR File=QTC$PRINT_ERR.:E05TSI                      WED 07/30/97 05:50 Page:21
          MINI XREF LISTING

CODE
       284**DCL       322--DCLINIT   410<<ASSIGN
ERRBUF
       283**DCL       323--DCLINIT
FPT_ERRMSG
       322**DCL       448<>CALL
FPT_ERRMSG.FIELD1_
       324**DCL       423<<ASSIGN    427<<ASSIGN
FPT_ERRMSG.FIELD2_
       325**DCL       432<<ASSIGN    436<<ASSIGN
FPT_ERRMSG.FIELD3_
       325**DCL       441<<ASSIGN    445<<ASSIGN
FPT_ERRMSG.V
       326**DCL       322--DCLINIT
FPT_ERRMSG.V.DCB#
       326**DCL       414<<ASSIGN    418<<ASSIGN
M$ERR
        90**DCL-ENT   455--CALL
M$ERRMSG
       141**DCL-ENT   448--CALL
MON_ERR
       453**LABEL     448--CALLALT
P_CODE
       175**DCL         8--PROC      410>>ASSIGN
P_ERRDCB
       176**DCL         8--PROC      412--IF        418>>ASSIGN
P_F1
       177**DCL         8--PROC      421--IF        427>>ASSIGN
P_F2
       178**DCL         8--PROC      430--IF        436>>ASSIGN
P_F3
       179**DCL         8--PROC      439--IF        445>>ASSIGN
PL6.E3A0      #001=QTC$PRINT_ERR File=QTC$PRINT_ERR.:E05TSI                      WED 07/30/97 05:50 Page:22
QTERRMSG
       256**DCL       323--DCLINIT
VLR_ERRMSG
       374**DCL       326--DCLINIT
VLR_ERRMSG.NOFILE
       374**DCL       453>>IF
VLR_ERRMSG.NOMSG
       374**DCL       453>>IF
