VERSION E05

 05:52 07/30/97  FILE=QXA$ENTRY.:E05TSI                                                                  1    BMAP - B00
                                         1  *M* QXA$ENTRY - TPCP entry routine
                                         2  *T***********************************************************
                                         3  *T*                                                         *
                                         4  *T* Copyright (c) Bull HN Information Systems Inc., 1997    *
                                         5  *T*                                                         *
                                         6  *T***********************************************************
 0 000000                                7         USE     QXA$ENTRY,1
                                         8  *
             000000000002                9  AUTO   EQU     2
             000000000000               10  PR0    EQU     0
             000000000001               11  PR1    EQU     1
             000000000002               12  PR2    EQU     2
                                        13  *
                                        14         ENTDEF  QXA$ENTRY
                                        15  *
                                        16         ENTREF  X66_MSTATIC
                                        17         ENTREF  QXA$TPCP
                                        18  *
                                        19         SEGREF  AUTOSID
                                        20         SEGREF  PIASID
                                        21         SEGREF  JITSID
                                        22  *
   000000                               23  QXA$ENTRY
                                        24         INHIB   ON
   000000    004010 6342 07             25         LDI     =O4010,DL       Set Hex / Overflow mask
   000001  X 000000 4716 07             26         LDP     PR1,AUTOSID,DL
   000002  X 000000 4706 07             27         LDP     PR0,PIASID,DL
   000003  X 000000 4726 07             28         LDP     AUTO,JITSID,DL
   000004    0 00000 0517 00            29         STD1    0,,PR0          Store Auto descriptor
   000005    0 00000 7213 00            30         LXL1    0,,PR0          Load the descriptor access flags
   000006    100600 3612 03             31         ANX1    =O100600,DU     Test Read, Notempty, Present
   000007    100600 6612 03             32         ERX1    =O100600,DU
   000010 (0)000017 6002 00             33         TZE     ALLOCATED       Yes, segment previously allocated
   000011    2 00143 2363 00            34         LDQ     99,,PR2
   000012 (1)000000 2762 00             35         ORQ     =O000000200000  Turn on B$JIT.CPFLAGS1.INITIALIZE#
   000013    2 00143 7563 00            36         STQ     99,,PR2
   000014  X 000000 7002 00             37         TSX0    X66_MSTATIC     Allocate the auto segment
 05:52 07/30/97  FILE=QXA$ENTRY.:E05TSI                                                                  2    BMAP - B00
   000015    000000 000000              38         ZERO    0
   000016  X 000000 7102 00             39         TRA     QXA$TPCP        Go to TPCP
   000017                               40  ALLOCATED
                                        41  *
                                        42  * Since the Auto segment has already been allocated just
                                        43  * mark it so no frames are assumed to be present
                                        44  *
   000017  X 000000 4726 07             45         LDP      AUTO,AUTOSID,DL Point to base of AUTO
   000020    777773 2202 03             46         LDX0     -5,DU
   000021    2 00000 4403 00            47         SXL0     0,,AUTO        Set current frame offset
   000022    2 00004 5077 00            48         AWD      4,,AUTO        Point to first frame
                                        49  *
   000023  X 000000 7102 00             50         TRA     QXA$TPCP        Enter TPCP
                                        51         INHIB   OFF
                                        52  *
          (0)000000                     53         END     QXA$ENTRY
 1 000000    000000200000

  CONTROL SECTION TABLE

   0 CODE   EVEN  000024 QXA$ENTRY
   1 RODATA EVEN  000001 LITERALS

 05:52 07/30/97  FILE=QXA$ENTRY.:E05TSI       SYMBOL TABLE                                               3    BMAP - B00
 01101000 000000000017 ALLOCATED       33       *40
 41000000 000000000002 AUTO            *9        28        45        47        48
 03601000 000000000000 AUTOSID        *19        26        45
 03601002 000000000000 JITSID         *21        28
 03601001 000000000000 PIASID         *20        27
 41000000 000000000000 PR0            *10        27        29        30
 41000000 000000000001 PR1            *11        26
 41000000 000000000002 PR2            *12        34        36
 13101000 000000000000 QXA$ENTRY       14       *23        53
 03201001 000000000000 QXA$TPCP       *17        39        50
 03201000 000000000000 X66_MSTATIC    *16        37

      11 SYMBOLS

       0 MACROS

    SYMBOL SPACE USED   150 WORDS
     MACRO SPACE USED     0 WORDS
   INPUT RECORDS READ   106
 STATEMENTS PROCESSED    44
         ELAPSED TIME  0:00.84
             CPU TIME     0.49 SEC.
        ASSEMBLY RATE  5388 STATEMENTS/CPU MIN.

      NO ERRORS

