VERSION E05

PL6.E3A0      #001=QXA$INIT File=QXA$INIT.:E05TSI                                WED 07/30/97 05:52 Page:1
        1        1        /*M* QXA$INIT - TPCP initialization */
        2        2        /*T***********************************************************/
        3        3        /*T*                                                         */
        4        4        /*T* Copyright (c) Bull HN Information Systems Inc., 1997    */
        5        5        /*T*                                                         */
        6        6        /*T***********************************************************/
        7        7        /*X* IND=2, DCI=4, CSU=2, ECU=4, DTI=2, CTI=4, AND */
        8        8        /*P* NAME:        QXA$INIT
        9        9
       10       10             PURPOSE:     This routine initializes TPCP.
       11       11        */
       12       12        /*D* NAME:        QXA$INIT
       13       13
       14       14             CALL:        CALL QXA$INIT
       15       15
       16       16             INPUT:       None
       17       17
       18       18             OUTPUT:      Sets up the global data segment
       19       19
       20       20             ENVIRONMENT: No static permitted!
       21       21
       22       22             DESCRIPTION: This routine is only called once.  TPCP unlike
       23       23                          other shared processors will never have its
       24       24                          data segments given away when it does a
       25       25                          M$CPEXIT.  All the FPTs that are used throughout
       26       26                          TPCP and the VLPs used by the FPTs are initialized
       27       27                          here.
       28       28
       29       29                          After initializing the FPTs the next task is
       30       30                          to extract the information that is in
       31       31                          B$JIT.CCBUF.  The FID of the TRADER file and
       32       32                          the accounting flag are taken from the JIT
       33       33                          buffer along with the message type that this
       34       34                          TPU will be processing is taken from the
       35       35                          JIT buffer.  The message type that the TPU
       36       36                          is supposed to process is the message type that
       37       37                          TPCP itself will use in the VLP_STATION.IMSGTYP
PL6.E3A0      #001=QXA$INIT File=QXA$INIT.:E05TSI                                WED 07/30/97 05:52 Page:2
       38       38                          when it does a read of the comgroup. Also located
       39       39                          in B$JIT.CCBUF (built by QQC$START_TPU) are the
       40       40                          TESTMODE and NOW flags and the TIMEOUT (in minutes)
       41       41                          for this TPU.
       42       42
       43       43                          The last thing that is done is to obtain a buffer
       44       44                          into which we can read the _E records when there
       45       45                          is a transaction to process.
       46       46        */
       47       47        %EJECT;
PL6.E3A0      #001=QXA$INIT File=QXA$INIT.:E05TSI                                WED 07/30/97 05:52 Page:3
       48       48        QXA$INIT:
       49       49                PROC;
       50       50
       51       51        %INCLUDE Q_PAGE_C;
       52       83        %SET LISTEXP = '1'B;
       53       84
       54       85        %PAGE(ARG="Includes");

               102        /***************************************************************************
               103         *                                                                         *
               104         *                                  Includes                               *
               105         *                                                                         *
               106         ***************************************************************************/

       55      110        %INCLUDE QQ_MACROS_C;
       56      535        %INCLUDE QX_MACROS_C;
       57      670        %INCLUDE QX_DATA_R;
       58      680        %INCLUDE Q_SCODE_C;
       59      691        %INCLUDE Q_ERRCODE_C;
       60      714        %INCLUDE XU_MACRO_C;
       61     3820        %INCLUDE CP_6;
       62     3901        %INCLUDE CP_6_SUBS;
       63     4441        %INCLUDE B$JIT;
       64     4731        %INCLUDE FM$FIT;
       65     4952        %PAGE(ARG="Externally defined routines");

              4969    1   /***************************************************************************
              4970    1    *                                                                         *
              4971    1    *                        Externally defined routines                      *
              4972    1    *                                                                         *
              4973    1    ***************************************************************************/

       66     4977    1   DCL QXA$XCON ENTRY ASYNC;
       67     4978    1   DCL QXC$SCREECH ENTRY(3);
       68     4979        %PAGE(ARG="Symrefs");

              4996    1   /***************************************************************************
PL6.E3A0      #001=QXA$INIT File=QXA$INIT.:E05TSI                                WED 07/30/97 05:52 Page:4
              4997    1    *                                                                         *
              4998    1    *                                  Symrefs                                *
              4999    1    *                                                                         *
              5000    1    ***************************************************************************/

       69     5004    1   DCL B$JIT$ PTR SYMREF;
       70     5005    1   DCL B$TCB$ PTR SYMREF;
       71     5006        %PAGE(ARG="Based");

              5023    1   /***************************************************************************
              5024    1    *                                                                         *
              5025    1    *                                   Based                                 *
              5026    1    *                                                                         *
              5027    1    ***************************************************************************/

       72     5031        %B$TCB;
       73     5034        %B$ALT;
       74     5042
       75     5043    1   DCL CHAR$STRING CHAR(CHAR_STRING_SIZE) BASED;
       76     5044
       77     5045    1   DCL BYTTE SBIN(9) UNAL BASED;
       78     5046    1   DCL WORRD SBIN(36) UNAL BASED;
       79     5047    1   DCL 1 BUFFER DALIGNED BASED,
       80     5048    1         2  MSG1 CHAR(24),
       81     5049    1         2  MSG2 CHAR(132);
       82     5050        %PAGE(ARG="Constants");

              5067    1   /***************************************************************************
              5068    1    *                                                                         *
              5069    1    *                                 Constants                               *
              5070    1    *                                                                         *
              5071    1    ***************************************************************************/

       83     5075        %VLP_NAME(FPTN=QQERRMSG, STCLASS=CONSTANT, NAME=':QQERRMSG');
       84     5102        %VLP_ACCT(FPTN=VLP_ACCT_SYS, STCLASS=CONSTANT, ACCT=':SYS');
       85     5115        %VLP_NAME(FPTN=IBEX, NAME='IBEX', STCLASS=CONSTANT);
       86     5142    1   DCL ERRMSG CHAR(0) CONSTANT INIT ('TP Accounting Error:    ');
PL6.E3A0      #001=QXA$INIT File=QXA$INIT.:E05TSI                                WED 07/30/97 05:52 Page:5
       87     5143        %PAGE(ARG="Auto");

              5160    1   /***************************************************************************
              5161    1    *                                                                         *
              5162    1    *                                    Auto                                 *
              5163    1    *                                                                         *
              5164    1    ***************************************************************************/

       88     5168    1   DCL CHAR_STRING_SIZE UBIN WORD;
       89     5169    1   DCL I UBIN WORD;
       90     5170    1   DCL POS UBIN WORD;
       91     5171    1   DCL BLANK_POS UBIN WORD;
       92     5172    1   DCL SPACE_NEEDED UBIN WORD;
       93     5173
       94     5174        %GLOBAL_PTRS;
       95     5267    1   DCL P$ PTR;
       96     5268    1   DCL M$UC$ PTR;
       97     5269    1   DCL M$TPCP$ PTR;
       98     5270    1   DCL CCBUF$ PTR;
       99     5271    1   DCL TEMP_REC$ PTR;
      100     5272
      101     5273    1   DCL VLP_RES CHAR(4);
      102     5274        %PAGE(ARG="FPTs", PAGE=YES);

PL6.E3A0      #001=QXA$INIT File=QXA$INIT.:E05TSI                                WED 07/30/97 05:52 Page:6
              5291    1   /***************************************************************************
              5292    1    *                                                                         *
              5293    1    *                                    FPTs                                 *
              5294    1    *                                                                         *
              5295    1    ***************************************************************************/

      103     5299        %FPT_GDS(FPTN=FPT_GDS_INITIAL, STCLASS=);
      104     5315
      105     5316        %FPT_XCON(STCLASS=CONSTANT, UENTRY=QXA$XCON);
      106     5330        %FPT_SCON(STCLASS=CONSTANT, SAVEFLG=NO);
      107     5345
      108     5346        %FPT_CPEXIT(FPTN=FPT_CPEXIT_NTP, ACCT=VLP_ACCT_SYS, NAME=IBEX,
      109     5347        STCLASS=CONSTANT);
      110     5373        %PAGE(ARG="VLPs");

              5390    1   /***************************************************************************
              5391    1    *                                                                         *
              5392    1    *                                    VLPs                                 *
              5393    1    *                                                                         *
              5394    1    ***************************************************************************/

      111     5398        %VLP_VECTOR(STCLASS=CONSTANT);
      112     5413
      113     5414        %VLP_VECTOR(FPTN=VLP_VECTOR_AUTO, STCLASS=);
      114     5429        %PAGE(ARG="G L O B A L   D A T A", PAGE=YES);

PL6.E3A0      #001=QXA$INIT File=QXA$INIT.:E05TSI                                WED 07/30/97 05:52 Page:7
              5446    1   /***************************************************************************
              5447    1    *                                                                         *
              5448    1    *                           G L O B A L   D A T A                         *
              5449    1    *                                                                         *
              5450    1    ***************************************************************************/

      115     5454        %GLOBAL_PTRS(FPTN=GLOBAL$PTRS, STCLASS="BASED(QX_GLOBAL.GLOBAL$PTRS$)");
      116     5547        %PAGE(ARG="FPTs");

              5564    1   /***************************************************************************
              5565    1    *                                                                         *
              5566    1    *                                    FPTs                                 *
              5567    1    *                                                                         *
              5568    1    ***************************************************************************/

      117     5572        %FPT_READ(FPTN=FPT_READ_KEY, STCLASS=CONSTANT, KEYS=YES);
      118     5611        %FPT_READ(FPTN=FPT$READ_KEY,
      119     5612        STCLASS="BASED(GLOBAL_PTRS.FPT$READ_KEY$)");
      120     5651
      121     5652        %FPT_WRITE(FPTN=FPT_WRITE_KEY, STCLASS=CONSTANT);
      122     5683        %FPT_WRITE(FPTN=FPT$WRITE_KEY,
      123     5684        STCLASS="BASED(GLOBAL_PTRS.FPT$WRITE_KEY$)");
      124     5715
      125     5716        %FPT_GETDCB(STCLASS=CONSTANT);
      126     5731        %FPT_GETDCB(FPTN=FPT$GETDCB,
      127     5732        STCLASS="BASED(GLOBAL_PTRS.FPT$GETDCB$)");
      128     5747
      129     5748        %FPT_RELDCB(STCLASS=CONSTANT);
      130     5762        %FPT_RELDCB(FPTN=FPT$RELDCB,
      131     5763        STCLASS="BASED(GLOBAL_PTRS.FPT$RELDCB$)");
      132     5777
      133     5778        %FPT_CPEXIT(STCLASS=CONSTANT);
      134     5804        %FPT_CPEXIT(FPTN=FPT$CPEXIT,
      135     5805        STCLASS="BASED(GLOBAL_PTRS.FPT$CPEXIT$)");
      136     5831
      137     5832        %FPT_GDS(STCLASS=CONSTANT, SEGSIZE=1024);
      138     5848        %FPT_GDS(FPTN=FPT$GDS,
PL6.E3A0      #001=QXA$INIT File=QXA$INIT.:E05TSI                                WED 07/30/97 05:52 Page:8
      139     5849        STCLASS="BASED(GLOBAL_PTRS.FPT$GDS$)");
      140     5865
      141     5866        %FPT_FID(STCLASS=CONSTANT);
      142     5889        %FPT_FID(FPTN=FPT$FID,
      143     5890        STCLASS="BASED(GLOBAL_PTRS.FPT$FID$)");
      144     5913
      145     5914        %FPT_OPEN(FPTN=FPT_OPEN_FILE, STCLASS=CONSTANT, ASN=FILE,
      146     5915        ACS=DIRECT, SHARE=ALL, ORG=KEYED, FUN=UPDATE);
      147     6024        %FPT_OPEN(FPTN=FPT$OPEN_FILE,
      148     6025        STCLASS="BASED(GLOBAL_PTRS.FPT$OPEN_FILE$)");
      149     6134
      150     6135        %FPT_DELREC(STCLASS=CONSTANT);
      151     6154        %FPT_DELREC(FPTN=FPT$DELREC,
      152     6155        STCLASS="BASED(GLOBAL_PTRS.FPT$DELREC$)");
      153     6174
      154     6175        %FPT_CLOSE(STCLASS=CONSTANT, DISP=SAVE);
      155     6217        %FPT_CLOSE(FPTN=FPT$CLOSE,
      156     6218        STCLASS="BASED(GLOBAL_PTRS.FPT$CLOSE$)");
      157     6260
      158     6261        %FPT_UNLATCH(STCLASS=CONSTANT, DCB=M$UC, INPUT=HOLD, OUTPUT=DELETE);
      159     6278        %FPT_UNLATCH(FPTN=FPT$UNLATCH,
      160     6279        STCLASS="BASED(GLOBAL_PTRS.FPT$UNLATCH$)");
      161     6296
      162     6297        %FPT_READ(FPTN=FPT_READ_CG, STCLASS=CONSTANT, DCB=M$UC);
      163     6336        %FPT_READ(FPTN=FPT$READ_CG,
      164     6337        STCLASS="BASED(GLOBAL_PTRS.FPT$READ_CG$)");
      165     6376
      166     6377        %FPT_WRITE(FPTN=FPT_WRITE_CG, STCLASS=CONSTANT, DCB=M$UC);
      167     6408        %FPT_WRITE(FPTN=FPT$WRITE_CG,
      168     6409        STCLASS="BASED(GLOBAL_PTRS.FPT$WRITE_CG$)");
      169     6440
      170     6441        %FPT_ERRMSG(FPTN=FPT_ERRMSG, STCLASS=CONSTANT, FILENAME=QQERRMSG,
      171     6442        FILEACCT=VLP_ACCT_SYS);
      172     6469        %FPT_ERRMSG(FPTN=FPT$ERRMSG,
      173     6470        STCLASS="BASED(GLOBAL_PTRS.FPT$ERRMSG$)");
      174     6497
      175     6498        %FPT_OPEN(FPTN=FPT_OPEN_CG, STCLASS=CONSTANT, SETDCB=YES, DCB=M$UC);
PL6.E3A0      #001=QXA$INIT File=QXA$INIT.:E05TSI                                WED 07/30/97 05:52 Page:9
      176     6607        %FPT_OPEN(FPTN=FPT$OPEN_CG,
      177     6608        STCLASS="BASED(GLOBAL_PTRS.FPT$OPEN_CG$)");
      178     6717
      179     6718        %FPT_OCMSG(STCLASS=CONSTANT);
      180     6734        %FPT_OCMSG(FPTN=FPT$OCMSG,
      181     6735        STCLASS="BASED(GLOBAL_PTRS.FPT$OCMSG$)");
      182     6751
      183     6752        %FPT_TIME(STCLASS=CONSTANT, DEST=EXT, SOURCE=CLOCK);
      184     6771        %FPT_TIME(FPTN=FPT$TIME,
      185     6772        STCLASS="BASED(GLOBAL_PTRS.FPT$TIME$)");
      186     6791
      187     6792        %FPT_KEYIN(FPTN=FPT_KEYIN, STCLASS=CONSTANT);
      188     6811        %FPT_KEYIN(FPTN=FPT$KEYIN,
      189     6812        STCLASS="BASED(GLOBAL_PTRS.FPT$KEYIN$)");
      190     6831
      191     6832        %XUG_GETCMD(CONTINUE_OK=NO, STCLASS=CONSTANT);
      192     7170        %XUG_GETCMD(NAME=XUG$GETCMD,
      193     7171        STCLASS="BASED(GLOBAL_PTRS.XUG$GETCMD$)");
      194     7509        %PAGE(ARG="VLPs");

              7526    1   /***************************************************************************
              7527    1    *                                                                         *
              7528    1    *                                    VLPs                                 *
              7529    1    *                                                                         *
              7530    1    ***************************************************************************/

      195     7534        %VLP_NAME(FPTN=VLP$NAME,
      196     7535        STCLASS="BASED(GLOBAL_PTRS.VLP$NAME$) DALIGNED", LEN=31);
      197     7562
      198     7563        %VLP_ACCT(FPTN=VLP$ACCT,
      199     7564        STCLASS="BASED(GLOBAL_PTRS.VLP$ACCT$) DALIGNED");
      200     7577
      201     7578        %VLP_PASS(FPTN=VLP$PASS,
      202     7579        STCLASS="BASED(GLOBAL_PTRS.VLP$PASS$) DALIGNED");
      203     7592
      204     7593        %VLP_SN(FPTN=VLP$SN,
      205     7594        STCLASS="BASED(GLOBAL_PTRS.VLP$SN$)");
PL6.E3A0      #001=QXA$INIT File=QXA$INIT.:E05TSI                                WED 07/30/97 05:52 Page:10
      206     7607
      207     7608        %VLP_WSN(FPTN=VLP$WSN,
      208     7609        STCLASS="BASED(GLOBAL_PTRS.VLP$WSN$) DALIGNED");
      209     7622
      210     7623        %VLP_NAME(FPTN=VLP$KEY,
      211     7624        STCLASS="BASED(GLOBAL_PTRS.VLP$KEY$) DALIGNED", LEN=31);
      212     7651
      213     7652    1   DCL VLP$DCBNUM UBIN WORD DALIGNED
      214     7653    1   BASED(GLOBAL_PTRS.VLP$DCBNUM$);
      215     7654
      216     7655        %VLP_NAME(FPTN=VLP$LKEY,
      217     7656        STCLASS="BASED(GLOBAL_PTRS.VLP$LKEY$) DALIGNED", LEN=1);
      218     7683
      219     7684        %VLP_NAME(FPTN=VLP$DEBUGGER,
      220     7685        STCLASS="BASED(GLOBAL_PTRS.VLP$DEBUGGER$) DALIGNED", LEN=15);
      221     7712
      222     7713        %VLP_NAME(FPTN=VLP$MSGTYP,
      223     7714        STCLASS="BASED(GLOBAL_PTRS.VLP$MSGTYP$) DALIGNED", LEN=8);
      224     7741
      225     7742        %VLP_NAME(FPTN=VLP$NAME_TRADER,
      226     7743        STCLASS="BASED(GLOBAL_PTRS.VLP$NAME_TRADER$) DALIGNED", LEN=31);
      227     7770
      228     7771        %VLP_ACCT(FPTN=VLP$ACCT_TRADER,
      229     7772        STCLASS="BASED(GLOBAL_PTRS.VLP$ACCT_TRADER$) DALIGNED");
      230     7785
      231     7786        %FM$FIT(FM$FIT=VLP$IFPARAM_PASS_TRADER,
      232     7787        N=1,
      233     7788        BASED="BASED(GLOBAL_PTRS.VLP$IFPARAM_PASS_TRADER$)");
      234     7791        /* WARNING:  VLP$IFPARAM_PASS_TRADER (above)
      235     7792                     and VLP$CODE07_PASS_TRADER (below)
      236     7793                     must be allocated consecutively, adjacent,
      237     7794                     and right next to each other, too.  */
      238     7795        %CODE07(CODE07=VLP$CODE07_PASS_TRADER,
      239     7796        BASED="BASED(GLOBAL_PTRS.VLP$CODE07_PASS_TRADER$)");
      240     7799
      241     7800        %VLP_SN(FPTN=VLP$SN_TRADER,
      242     7801        STCLASS="BASED(GLOBAL_PTRS.VLP$SN_TRADER$)");
PL6.E3A0      #001=QXA$INIT File=QXA$INIT.:E05TSI                                WED 07/30/97 05:52 Page:11
      243     7814
      244     7815        %VLP_VECTOR(FPTN=VLP$VECTOR,
      245     7816        STCLASS="BASED(GLOBAL_PTRS.VLP$VECTOR$)");
      246     7831
      247     7832        %VLP_NAME(FPTN=VLP$FID,
      248     7833        STCLASS="BASED(GLOBAL_PTRS.VLP$FID$) DALIGNED", LEN=99);
      249     7860
      250     7861        %VLP_STATION(FPTN=VLP$STATION,
      251     7862        STCLASS="BASED(GLOBAL_PTRS.VLP$STATION$)");
      252     7889
      253     7890        %VLP_SETSTA(FPTN=VLP$SETSTA,
      254     7891        STCLASS="BASED(GLOBAL_PTRS.VLP$SETSTA$)");
      255     7919
      256     7920        %VLP_VECTOR(FPTN=VLP$GDS,
      257     7921        STCLASS="BASED(GLOBAL_PTRS.VLP$GDS$)");
      258     7936
      259     7937    1   DCL VLP$ASN UBIN WORD DALIGNED BASED(GLOBAL_PTRS.VLP$ASN$);
      260     7938        %PAGE(ARG="VLRs");

              7955    1   /***************************************************************************
              7956    1    *                                                                         *
              7957    1    *                                    VLRs                                 *
              7958    1    *                                                                         *
              7959    1    ***************************************************************************/

      261     7963
      262     7964    1   DCL VLP$TIME CHAR(11) DALIGNED
      263     7965    1   BASED(GLOBAL_PTRS.VLP$TIME$);
      264     7966
      265     7967        %VLR_FID(FPTN=VLR$FID,
      266     7968        STCLASS="BASED(GLOBAL_PTRS.VLR$FID$)");
      267     7987
      268     7988        %VLR_ERRMSG(FPTN=VLR$ERRMSG,
      269     7989        STCLASS="BASED(GLOBAL_PTRS.VLR$ERRMSG$)");
      270     8011        %PAGE(ARG="QX$GLOBAL");

              8028    1   /***************************************************************************
PL6.E3A0      #001=QXA$INIT File=QXA$INIT.:E05TSI                                WED 07/30/97 05:52 Page:12
              8029    1    *                                                                         *
              8030    1    *                                 QX$GLOBAL                               *
              8031    1    *                                                                         *
              8032    1    ***************************************************************************/

      271     8036        %QX$GLOBAL;
      272     8059        %PAGE(ARG="QXA$INIT", PAGE=YES);

PL6.E3A0      #001=QXA$INIT File=QXA$INIT.:E05TSI                                WED 07/30/97 05:52 Page:13
              8076    1   /***************************************************************************
              8077    1    *                                                                         *
              8078    1    *                                  QXA$INIT                               *
              8079    1    *                                                                         *
              8080    1    ***************************************************************************/

      273     8084    1           IF B$JIT.MODE ~= 4 /* M_TP# */ THEN
      274     8085    2             DO;
      275     8086    2               B$JIT.CCBUF = '!OFF';
      276     8087    2               B$JIT.CCARS = 4;
      277     8088    2               B$JIT.CPFLAGS1 = '000000000040'O | '000000000020'O;
      278     8089    2               CALL M$CPEXIT(FPT_CPEXIT_NTP) ALTRET(SCREECH);
      279     8090    2             END;
      280     8091
      281     8092    1           CALL M$XCON(FPT_XCON) ALTRET(SCREECH);
      282     8093    1           CALL M$SCON(FPT_SCON) ALTRET(SCREECH);
      283     8094
      284     8095    1           SPACE_NEEDED =
      285     8096    1               SIZEW(GLOBAL$PTRS) +
      286     8097    1               SIZEW(VLP$NAME) +
      287     8098    1               SIZEW(VLP$ACCT) +
      288     8099    1               SIZEW(VLP$PASS) +
      289     8100    1               SIZEW(VLP$SN) +
      290     8101    1               SIZEW(VLP$WSN) +
      291     8102    1               SIZEW(VLP$KEY) +
      292     8103    1               SIZEW(VLP$DCBNUM) +
      293     8104    1               SIZEW(VLP$LKEY) +
      294     8105    1               SIZEW(VLP$DEBUGGER) +
      295     8106    1               SIZEW(VLP$MSGTYP) +
      296     8107    1               SIZEW(VLP$NAME_TRADER) +
      297     8108    1               SIZEW(VLP$ACCT_TRADER) +
      298     8109    1               SIZEW(VLP$IFPARAM_PASS_TRADER) +
      299     8110    1               SIZEW(VLP$CODE07_PASS_TRADER) +
      300     8111    1               SIZEW(VLP$SN_TRADER) +
      301     8112    1               SIZEW(VLP$VECTOR) +
      302     8113    1               SIZEW(VLP$FID) +
      303     8114    1               SIZEW(VLP$STATION) +
PL6.E3A0      #001=QXA$INIT File=QXA$INIT.:E05TSI                                WED 07/30/97 05:52 Page:14
      304     8115    1               SIZEW(VLP$SETSTA) +
      305     8116    1               SIZEW(VLP$GDS) +
      306     8117    1               SIZEW(VLP$ASN) +
      307     8118    1               SIZEW(VLP$TIME) +
      308     8119    1               SIZEW(VLR$FID) +
      309     8120    1               SIZEW(VLR$ERRMSG) +
      310     8121    1               SIZEW(FPT$READ_KEY) +
      311     8122    1               SIZEW(FPT$WRITE_KEY) +
      312     8123    1               SIZEW(FPT$GETDCB) +
      313     8124    1               SIZEW(FPT$RELDCB) +
      314     8125    1               SIZEW(FPT$CPEXIT) +
      315     8126    1               SIZEW(FPT$GDS) +
      316     8127    1               SIZEW(FPT$FID) +
      317     8128    1               SIZEW(FPT$OPEN_FILE) +
      318     8129    1               SIZEW(FPT$DELREC) +
      319     8130    1               SIZEW(FPT$CLOSE) +
      320     8131    1               SIZEW(FPT$UNLATCH) +
      321     8132    1               SIZEW(FPT$READ_CG) +
      322     8133    1               SIZEW(FPT$WRITE_CG) +
      323     8134    1               SIZEW(FPT$ERRMSG) +
      324     8135    1               SIZEW(FPT$OPEN_CG) +
      325     8136    1               SIZEW(FPT$OCMSG) +
      326     8137    1               SIZEW(FPT$TIME) +
      327     8138    1               SIZEW(FPT$KEYIN) +
      328     8139    1               SIZEW(BUFFER) +
      329     8140    1               SIZEW(XUG$GETCMD) +
      330     8141    1               SIZEW(QX$GLOBAL);
      331     8142
      332     8143    1           FPT_GDS_INITIAL = FPT_GDS;
      333     8144    1           FPT_GDS_INITIAL.V_ = VECTOR(FPT_GDS_INITIAL.V);
      334     8145    1           FPT_GDS_INITIAL.RESULTS_ = VECTOR(VLP_VECTOR_AUTO);
      335     8146    1           VLP_VECTOR_AUTO = VLP_VECTOR;
      336     8147    1           VLP_VECTOR_AUTO.PTR$ = QX_GLOBAL.GLOBAL$PTRS$;
      337     8148    1           FPT_GDS_INITIAL.V.SEGSIZE# = SPACE_NEEDED;
      338     8149    1           CALL M$GDS(FPT_GDS_INITIAL) ALTRET(SCREECH);
      339     8150
      340     8151    1           P$ = PINCRW(QX_GLOBAL.GLOBAL$PTRS$, SIZEW(GLOBAL$PTRS));
PL6.E3A0      #001=QXA$INIT File=QXA$INIT.:E05TSI                                WED 07/30/97 05:52 Page:15
      341     8152    1           GLOBAL_PTRS.VLP$NAME$ = P$;
      342     8153
      343     8154    1           P$ = PINCRW(P$, SIZEW(VLP$NAME));
      344     8155    1           GLOBAL_PTRS.VLP$ACCT$ = P$;
      345     8156
      346     8157    1           P$ = PINCRW(P$, SIZEW(VLP$ACCT));
      347     8158    1           GLOBAL_PTRS.VLP$PASS$ = P$;
      348     8159
      349     8160    1           P$ = PINCRW(P$, SIZEW(VLP$PASS));
      350     8161    1           GLOBAL_PTRS.VLP$SN$ = P$;
      351     8162    1           VLP$SN.NUM# = 1;
      352     8163
      353     8164    1           P$ = PINCRW(P$, SIZEW(VLP$SN));
      354     8165    1           GLOBAL_PTRS.VLP$WSN$ = P$;
      355     8166
      356     8167    1           P$ = PINCRW(P$, SIZEW(VLP$WSN));
      357     8168    1           GLOBAL_PTRS.VLP$KEY$ = P$;
      358     8169
      359     8170    1           P$ = PINCRW(P$, SIZEW(VLP$KEY));
      360     8171    1           GLOBAL_PTRS.VLP$DCBNUM$ = P$;
      361     8172
      362     8173    1           P$ = PINCRW(P$, SIZEW(VLP$DCBNUM));
      363     8174    1           GLOBAL_PTRS.VLP$LKEY$ = P$;
      364     8175    1           VLP$LKEY = '001777'O;
      365     8176
      366     8177    1           P$ = PINCRW(P$, SIZEW(VLP$LKEY));
      367     8178    1           GLOBAL_PTRS.VLP$DEBUGGER$ = P$;
      368     8179
      369     8180    1           P$ = PINCRW(P$, SIZEW(VLP$DEBUGGER));
      370     8181    1           GLOBAL_PTRS.VLP$MSGTYP$ = P$;
      371     8182
      372     8183    1           P$ = PINCRW(P$, SIZEW(VLP$MSGTYP));
      373     8184    1           GLOBAL_PTRS.VLP$NAME_TRADER$ = P$;
      374     8185
      375     8186    1           P$ = PINCRW(P$, SIZEW(VLP$NAME_TRADER));
      376     8187    1           GLOBAL_PTRS.VLP$ACCT_TRADER$ = P$;
      377     8188
PL6.E3A0      #001=QXA$INIT File=QXA$INIT.:E05TSI                                WED 07/30/97 05:52 Page:16
      378     8189    1           P$ = PINCRW(P$, SIZEW(VLP$ACCT_TRADER));
      379     8190    1           GLOBAL_PTRS.VLP$IFPARAM_PASS_TRADER$ = P$;
      380     8191    1           VLP$IFPARAM_PASS_TRADER.CODES.CODE (0) = 1;
      381     8192    1           VLP$IFPARAM_PASS_TRADER.CODES.ITEMX (0) = 0;
      382     8193    1           VLP$IFPARAM_PASS_TRADER.CODES.NAW (0) =
      383     8194    1               SIZEW(VLP$IFPARAM_PASS_TRADER) +
      384     8195    1               SIZEW(VLP$CODE07_PASS_TRADER);
      385     8196    1           VLP$IFPARAM_PASS_TRADER.CODES.NDW (0) =
      386     8197    1               SIZEW(VLP$CODE07_PASS_TRADER);
      387     8198    1           VLP$IFPARAM_PASS_TRADER.CODES.CODE (1) = 7;
      388     8199    1           VLP$IFPARAM_PASS_TRADER.CODES.ITEMX (1) =
      389     8200    1               SIZEW(VLP$IFPARAM_PASS_TRADER);
      390     8201    1           VLP$IFPARAM_PASS_TRADER.CODES.NAW (1) =
      391     8202    1               SIZEW(VLP$CODE07_PASS_TRADER);
      392     8203    1           VLP$IFPARAM_PASS_TRADER.CODES.NDW (1) =
      393     8204    1               SIZEW(VLP$CODE07_PASS_TRADER);
      394     8205
      395     8206    1           P$ = PINCRW(P$, SIZEW(VLP$IFPARAM_PASS_TRADER));
      396     8207    1           GLOBAL_PTRS.VLP$CODE07_PASS_TRADER$ = P$;
      397     8208
      398     8209    1           P$ = PINCRW(P$, SIZEW(VLP$CODE07_PASS_TRADER));
      399     8210    1           GLOBAL_PTRS.VLP$SN_TRADER$ = P$;
      400     8211    1           VLP$SN_TRADER.NUM# = 1;
      401     8212
      402     8213    1           P$ = PINCRW(P$, SIZEW(VLP$SN_TRADER));
      403     8214    1           GLOBAL_PTRS.VLP$VECTOR$ = P$;
      404     8215    1           VLP$VECTOR.W1.TYP# = '01'B;
      405     8216
      406     8217    1           P$ = PINCRW(P$, SIZEW(VLP$VECTOR));
      407     8218    1           GLOBAL_PTRS.VLP$FID$ = P$;
      408     8219
      409     8220    1           P$ = PINCRW(P$, SIZEW(VLP$FID));
      410     8221    1           GLOBAL_PTRS.VLP$STATION$ = P$;
      411     8222
      412     8223    1           P$ = PINCRW(P$, SIZEW(VLP$STATION));
      413     8224    1           GLOBAL_PTRS.VLP$SETSTA$ = P$;
      414     8225
PL6.E3A0      #001=QXA$INIT File=QXA$INIT.:E05TSI                                WED 07/30/97 05:52 Page:17
      415     8226    1           P$ = PINCRW(P$, SIZEW(VLP$SETSTA));
      416     8227    1           GLOBAL_PTRS.VLP$GDS$ = P$;
      417     8228    1           VLP$GDS = VLP_VECTOR;
      418     8229
      419     8230    1           P$ = PINCRW(P$, SIZEW(VLP$GDS));
      420     8231    1           GLOBAL_PTRS.VLP$ASN$ = P$;
      421     8232
      422     8233    1           P$ = PINCRW(P$, SIZEW(VLP$ASN));
      423     8234    1           GLOBAL_PTRS.VLP$TIME$ = P$;
      424     8235
      425     8236    1           P$ = PINCRW(P$, SIZEW(VLP$TIME));
      426     8237    1           GLOBAL_PTRS.VLR$FID$ = P$;
      427     8238
      428     8239    1           P$ = PINCRW(P$, SIZEW(VLR$FID));
      429     8240    1           GLOBAL_PTRS.VLR$ERRMSG$ = P$;
      430     8241
      431     8242    1           P$ = PINCRW(P$, SIZEW(VLR$ERRMSG));
      432     8243    1           GLOBAL_PTRS.FPT$READ_KEY$ = P$;
      433     8244    1           FPT$READ_KEY = FPT_READ_KEY;
      434     8245    1           FPT$READ_KEY.V_ = VECTOR(FPT$READ_KEY.V);
      435     8246    1           FPT$READ_KEY.V.DCB# = 5 /* M$IBEX# */;
      436     8247    1           FPT$READ_KEY.KEY_ = VECTOR(VLP$KEY);
      437     8248
      438     8249    1           P$ = PINCRW(P$, SIZEW(FPT$READ_KEY));
      439     8250    1           GLOBAL_PTRS.FPT$WRITE_KEY$ = P$;
      440     8251    1           FPT$WRITE_KEY = FPT_WRITE_KEY;
      441     8252    1           FPT$WRITE_KEY.V_ = VECTOR(FPT$WRITE_KEY.V);
      442     8253    1           FPT$WRITE_KEY.KEY_ = VECTOR(VLP$KEY);
      443     8254    1           FPT$WRITE_KEY.V.DCB# = 5 /* M$IBEX# */;
      444     8255
      445     8256    1           P$ = PINCRW(P$, SIZEW(FPT$WRITE_KEY));
      446     8257    1           GLOBAL_PTRS.FPT$GETDCB$ = P$;
      447     8258    1           FPT$GETDCB = FPT_GETDCB;
      448     8259    1           FPT$GETDCB.V_ = VECTOR(FPT$GETDCB.V);
      449     8260    1           FPT$GETDCB.DCBNUM_ = VECTOR(VLP$DCBNUM);
      450     8261    1           FPT$GETDCB.V.DCB# = 5 /* M$IBEX# */;
      451     8262
PL6.E3A0      #001=QXA$INIT File=QXA$INIT.:E05TSI                                WED 07/30/97 05:52 Page:18
      452     8263    1           P$ = PINCRW(P$, SIZEW(FPT$GETDCB));
      453     8264    1           GLOBAL_PTRS.FPT$RELDCB$ = P$;
      454     8265    1           FPT$RELDCB = FPT_RELDCB;
      455     8266    1           FPT$RELDCB.V_ = VECTOR(FPT$RELDCB.V);
      456     8267    1           FPT$RELDCB.V.DCB# = 5 /* M$IBEX# */;
      457     8268
      458     8269    1           P$ = PINCRW(P$, SIZEW(FPT$RELDCB));
      459     8270    1           GLOBAL_PTRS.FPT$CPEXIT$ = P$;
      460     8271
      461     8272    1           P$ = PINCRW(P$, SIZEW(FPT$CPEXIT));
      462     8273    1           GLOBAL_PTRS.FPT$GDS$ = P$;
      463     8274    1           FPT$GDS = FPT_GDS;
      464     8275    1           FPT$GDS.V_ = VECTOR(FPT$GDS.V);
      465     8276    1           FPT$GDS.RESULTS_ = VECTOR(VLP$GDS);
      466     8277
      467     8278    1           P$ = PINCRW(P$, SIZEW(FPT$GDS));
      468     8279    1           GLOBAL_PTRS.FPT$FID$ = P$;
      469     8280    1           FPT$FID = FPT_FID;
      470     8281    1           FPT$FID.V_ = VECTOR(FPT$FID.V);
      471     8282    1           FPT$FID.NAME_ = VECTOR(VLP$NAME);
      472     8283    1           FPT$FID.ACCT_ = VECTOR(VLP$ACCT);
      473     8284    1           FPT$FID.PASS_ = VECTOR(VLP$PASS);
      474     8285    1           FPT$FID.SN_ = VECTOR(VLP$SN);
      475     8286    1           FPT$FID.WSN_ = VECTOR(VLP$WSN);
      476     8287    1           FPT$FID.ASN_ = VECTOR(VLP$ASN);
      477     8288    1           FPT$FID.RES_ = VECTOR(VLP_RES);
      478     8289    1           FPT$FID.TEXTFID_ = VECTOR(VLP$FID.NAME#);
      479     8290    1           FPT$FID.RESULTS_ = VECTOR(VLR$FID);
      480     8291
      481     8292    1           P$ = PINCRW(P$, SIZEW(FPT$FID));
      482     8293    1           GLOBAL_PTRS.FPT$OPEN_FILE$ = P$;
      483     8294    1           FPT$OPEN_FILE = FPT_OPEN_FILE;
      484     8295    1           FPT$OPEN_FILE.V_ = VECTOR(FPT$OPEN_FILE.V);
      485     8296    1           FPT$OPEN_FILE.SN_ = VECTOR(VLP$SN);
      486     8297    1           FPT$OPEN_FILE.NAME_ = VECTOR(VLP$NAME);
      487     8298    1           FPT$OPEN_FILE.ACCT_ = VECTOR(VLP$ACCT);
      488     8299    1           FPT$OPEN_FILE.V.DCB# = 5 /* M$IBEX# */;
PL6.E3A0      #001=QXA$INIT File=QXA$INIT.:E05TSI                                WED 07/30/97 05:52 Page:19
      489     8300
      490     8301    1           P$ = PINCRW(P$, SIZEW(FPT$OPEN_FILE));
      491     8302    1           GLOBAL_PTRS.FPT$DELREC$ = P$;
      492     8303    1           FPT$DELREC = FPT_DELREC;
      493     8304    1           FPT$DELREC.V_ = VECTOR(FPT$DELREC.V);
      494     8305    1           FPT$DELREC.KEY_ = VECTOR(VLP$KEY);
      495     8306    1           FPT$DELREC.LKEY_ = VECTOR(VLP$LKEY);
      496     8307    1           FPT$DELREC.V.DCB# = 5 /* M$IBEX# */;
      497     8308
      498     8309    1           P$ = PINCRW(P$, SIZEW(FPT$DELREC));
      499     8310    1           GLOBAL_PTRS.FPT$CLOSE$ = P$;
      500     8311    1           FPT$CLOSE = FPT_CLOSE;
      501     8312    1           FPT$CLOSE.V_ = VECTOR(FPT$CLOSE.V);
      502     8313    1           FPT$CLOSE.V.DCB# = 5 /* M$IBEX# */;
      503     8314
      504     8315    1           P$ = PINCRW(P$, SIZEW(FPT$CLOSE));
      505     8316    1           GLOBAL_PTRS.FPT$UNLATCH$ = P$;
      506     8317    1           FPT$UNLATCH = FPT_UNLATCH;
      507     8318    1           FPT$UNLATCH.V_ = VECTOR(FPT$UNLATCH.V);
      508     8319
      509     8320    1           P$ = PINCRW(P$, SIZEW(FPT$UNLATCH));
      510     8321    1           GLOBAL_PTRS.FPT$READ_CG$ = P$;
      511     8322    1           FPT$READ_CG = FPT_READ_CG;
      512     8323    1           FPT$READ_CG.V_ = VECTOR(FPT$READ_CG.V);
      513     8324    1           FPT$READ_CG.STATION_ = VECTOR(VLP$STATION);
      514     8325
      515     8326    1           P$ = PINCRW(P$, SIZEW(FPT$READ_CG));
      516     8327    1           GLOBAL_PTRS.FPT$WRITE_CG$ = P$;
      517     8328    1           FPT$WRITE_CG = FPT_WRITE_CG;
      518     8329    1           FPT$WRITE_CG.V_ = VECTOR(FPT$WRITE_CG.V);
      519     8330    1           FPT$WRITE_CG.STATION_ = VECTOR(VLP$STATION);
      520     8331
      521     8332    1           P$ = PINCRW(P$, SIZEW(FPT$WRITE_CG));
      522     8333    1           GLOBAL_PTRS.FPT$ERRMSG$ = P$;
      523     8334    1           FPT$ERRMSG = FPT_ERRMSG;
      524     8335    1           FPT$ERRMSG.V_ = VECTOR(FPT$ERRMSG.V);
      525     8336    1           FPT$ERRMSG.RESULTS_ = VECTOR(VLR$ERRMSG);
PL6.E3A0      #001=QXA$INIT File=QXA$INIT.:E05TSI                                WED 07/30/97 05:52 Page:20
      526     8337
      527     8338    1           P$ = PINCRW(P$, SIZEW(FPT$ERRMSG));
      528     8339    1           GLOBAL_PTRS.FPT$OPEN_CG$ = P$;
      529     8340    1           FPT$OPEN_CG = FPT_OPEN_CG;
      530     8341    1           FPT$OPEN_CG.V_ = VECTOR(FPT$OPEN_CG.V);
      531     8342    1           FPT$OPEN_CG.SETSTA_ = VECTOR(VLP$SETSTA);
      532     8343
      533     8344    1           P$ = PINCRW(P$, SIZEW(FPT$OPEN_CG));
      534     8345    1           GLOBAL_PTRS.FPT$OCMSG$ = P$;
      535     8346    1           FPT$OCMSG = FPT_OCMSG;
      536     8347    1           FPT$OCMSG.V_ = VECTOR(FPT$OCMSG.V);
      537     8348
      538     8349    1           P$ = PINCRW(P$, SIZEW(FPT$OCMSG));
      539     8350    1           GLOBAL_PTRS.FPT$TIME$ = P$;
      540     8351    1           FPT$TIME = FPT_TIME;
      541     8352    1           FPT$TIME.V_ = VECTOR(FPT$TIME.V);
      542     8353    1           FPT$TIME.TIME_ = VECTOR(VLP$TIME);
      543     8354
      544     8355    1           P$ = PINCRW(P$, SIZEW(FPT$TIME));
      545     8356    1           GLOBAL_PTRS.FPT$KEYIN$ = P$;
      546     8357    1           FPT$KEYIN = FPT_KEYIN;
      547     8358    1           FPT$KEYIN.V_ = VECTOR(FPT$KEYIN.V);
      548     8359    1           P$ = PINCRW(P$, SIZEW(FPT$KEYIN));
      549     8360    1           FPT$KEYIN.MESS_.BOUND = 91;
      550     8361    1           FPT$KEYIN.MESS_.BUF$ = P$;
      551     8362    1           P$->BUFFER.MSG1 = ERRMSG;
      552     8363
      553     8364    1           P$ = PINCRW(P$, SIZEW(BUFFER.MSG1));
      554     8365    1           GLOBAL_PTRS.BUFFER$ = P$;
      555     8366
      556     8367    1           P$ = PALIGND(PINCRW(P$, SIZEW(BUFFER.MSG2)));
      557     8368    1           GLOBAL_PTRS.XUG$GETCMD$ = P$;
      558     8369    1           XUG$GETCMD = XUG_GETCMD;
      559     8370
      560     8371    1           P$ = PINCRW(P$, SIZEW(XUG$GETCMD));
      561     8372    1           GLOBAL_PTRS.QX$GLOBAL$ = P$;
      562     8373    1           QX$GLOBAL.SETS = '0'B;
PL6.E3A0      #001=QXA$INIT File=QXA$INIT.:E05TSI                                WED 07/30/97 05:52 Page:21
      563     8374    1           QX$GLOBAL.SETSTA_LOCKED = '0'B;
      564     8375    1           QX$GLOBAL.EXITING = '0'B;
      565     8376    1           QX$GLOBAL.PERM = '0'B;
      566     8377    1           QX$GLOBAL.SEMIPERM = '0'B;
      567     8378    1           QX$GLOBAL.NOW = '0'B;
      568     8379
      569     8380        %EJECT;
PL6.E3A0      #001=QXA$INIT File=QXA$INIT.:E05TSI                                WED 07/30/97 05:52 Page:22
      570     8381    1           GLOBAL$PTRS = GLOBAL_PTRS;
      571     8382
      572     8383    1           B$JIT.CPFLAGS1 = B$JIT.CPFLAGS1 & ~'000000200000'O /* CP_INITIALIZE# */;
      573     8384    1           B$JIT.CPFLAGS1 = B$JIT.CPFLAGS1 | '000000010000'O /* CP_KEEPDS# */;
      574     8385    1           B$JIT.PRIV.ACTIVE = B$JIT.PRIV.AUTH;
      575     8386
      576     8387    1           CCBUF$ = ADDR(B$JIT.CCBUF);
      577     8388    1           POS = B$JIT.CCDISP + 1;
      578     8389    1           CHAR_STRING_SIZE = PINCRC(CCBUF$, POS) -> BYTTE;
      579     8390    1           VLP$FID.L# = CHAR_STRING_SIZE;
      580     8391    1           VLP$FID.NAME# = PINCRC(CCBUF$, POS + 1) -> CHAR$STRING;
      581     8392    1           CALL M$FID(FPT$FID) ALTRET(MON_ERR);
      582     8393    1           VLP$NAME_TRADER = VLP$NAME;
      583     8394    1           VLP$ACCT_TRADER = VLP$ACCT;
      584     8395    1           VLP$SN_TRADER = VLP$SN;
      585     8396    1           POS = POS + CHAR_STRING_SIZE + 1;
      586     8397    1           CHAR_STRING_SIZE = SIZEC(VLP$CODE07_PASS_TRADER.PASS);
      587     8398    1           VLP$CODE07_PASS_TRADER.PASS = PINCRC(CCBUF$, POS) -> CHAR$STRING;
      588     8399
      589     8400    1           POS = POS + SIZEC(VLP$CODE07_PASS_TRADER.PASS);
      590     8401    1           IF PINCRC(CCBUF$, POS) -> BYTTE = -1 THEN
      591     8402    2             DO;
      592     8403    2               B$JIT.CPFLAGS1 = B$JIT.CPFLAGS1 | '000000000400'O /* CP_STEPACCT# */;
      593     8404    2             END;
      594     8405
      595     8406    1           POS = POS + 1;
      596     8407    1           IF PINCRC(CCBUF$, POS) -> BYTTE = -1 THEN
      597     8408    2             DO;
      598     8409    2               B$JIT.CPFLAGS1 = B$JIT.CPFLAGS1 | '000000400000'O /* CP_TESTMODE# */;
      599     8410    2             END;
      600     8411
      601     8412    1           POS = POS + 1;
      602     8413    1           CHAR_STRING_SIZE = SIZEC(VLP$MSGTYP.NAME#);
      603     8414    1           VLP$MSGTYP.NAME# = PINCRC(CCBUF$, POS) -> CHAR$STRING;
      604     8415
      605     8416    1           POS = POS + 8;
      606     8417    1           IF PINCRC(CCBUF$, POS) -> BYTTE = -1 THEN
PL6.E3A0      #001=QXA$INIT File=QXA$INIT.:E05TSI                                WED 07/30/97 05:52 Page:23
      607     8418    2             DO;
      608     8419    2               QX$GLOBAL.NOW = '1'B;
      609     8420    2             END;
      610     8421
      611     8422    1           POS = POS + 1;                  /*  get TIMEOUT info (in minutes)     */
      612     8423    1           QX$GLOBAL.TIMEOUT = PINCRC(CCBUF$, POS) -> WORRD;
      613     8424
      614     8425    1           CALL INDEX(POS, '?', VLP$MSGTYP.NAME#) ALTRET(PERM);
      615     8426
      616     8427    1           QX$GLOBAL.SEMIPERM = '1'B;
      617     8428
      618     8429    2           DO WHILE('0'B);
      619     8430
      620     8431    2   PERM:
      621     8432    2             QX$GLOBAL.PERM = '1'B;
      622     8433    2           END /* NEVER */;
      623     8434
      624     8435
      625     8436    1           B$JIT.CCBUF = ' ';
      626     8437    1           B$JIT.CCARS = 0;
      627     8438
      628     8439    1           VLP$GDS.PTR$ = QX_GLOBAL.QT$ENTRY$;
      629     8440    1           CALL M$GDS(FPT$GDS) ALTRET(MON_ERR);
      630     8441
      631     8442    1           CHAR_STRING_SIZE = 4096;
      632     8443    1           FPT$READ_KEY.BUF_ = VECTOR(QX_GLOBAL.QT$ENTRY$ -> CHAR$STRING);
      633     8444
      634     8445    1           RETURN;
      635     8446
      636     8447    1   MON_ERR:
      637     8448    1           B$JIT.USRERR = B$TCB$ -> B$TCB.ALT$ -> B$ALT.ERR;
      638     8449    1           CALL QXC$SCREECH(750, '01'O, 5);
      639     8450
      640     8451    1   SCREECH:
      641     8452    1           B$JIT.USRERR = B$TCB$ -> B$TCB.ALT$ -> B$ALT.ERR;
      642     8453    1           CALL QXC$SCREECH(750, '01'O, 6);
      643     8454    1   END QXA$INIT;
PL6.E3A0      #001=QXA$INIT File=QXA$INIT.:E05TSI                                WED 07/30/97 05:52 Page:24

PL6.E3A0      #001=QXA$INIT File=QXA$INIT.:E05TSI                                WED 07/30/97 05:52 Page:25
--  Include file information  --

   FM$FIT.:E05TOU  is referenced.
   B$JIT.:E05TOU  cannot be made into a system file and is referenced.
   CP_6_SUBS.:E05TOU  is referenced.
   CP_6.:E05TOU  cannot be made into a system file and is referenced.
   XU_MACRO_C.:E05TOU  is referenced.
   Q_ERRCODE_C.:E05TOU  is referenced.
   Q_SCODE_C.:E05TOU  is referenced.
   QX_DATA_R.:E05TOU  cannot be made into a system file and is referenced.
   QX_MACROS_C.:E05TOU  is referenced.
   QQ_MACROS_C.:E05TOU  is referenced.
   Q_PAGE_C.:E05TOU  is referenced.
   B$JIT_C.:E05TOU  was found in the system file and is referenced.
   CP_6_C.:E05TOU  was found in the system file and is referenced.
      No diagnostics issued in procedure QXA$INIT.

   Procedure QXA$INIT requires 664 words for executable code.
   Procedure QXA$INIT requires 70 words of local(AUTO) storage.

    No errors detected in file QXA$INIT.:E05TSI    .

PL6.E3A0      #001=QXA$INIT File=QXA$INIT.:E05TSI                                WED 07/30/97 05:52 Page:26

 Object Unit name= QXA$INIT                                   File name= QXA$INIT.:E05TOU
 UTS= JUL 30 '97 05:52:37.68 WED                              Compiler= PL-6/E31         Sev=      00
 SharedLib= :SHARED_SYSTEM                                    Alt SharedLib=


    ****  Control sections  ****

 Sect   Type Bound  Init  Size OctSiz  Section name(segment info)
    0   DCB   even  none     0      0  M$UC
    1  RoData even  UTS    425    651  QXA$INIT
    2   Proc  even  none   664   1230  QXA$INIT
    3  RoData even  none    25     31  QXA$INIT

    ****  Entry defs  ****

                              Check   Calling
                             calling  sequence
  Sect OctLoc Primary Altret sequence   type   Parms  Name
     2      0   yes            yes      Std        0  QXA$INIT

  ****  Entry refs  ****

         Check        Calling
        calling       sequence
Altret sequence SRef   type   Args  Name
         yes          Async      0 QXA$XCON
         yes           Std       3 QXC$SCREECH
                       nStd      0 X66_AUTO_0
                       Std       0 B_CONSPOOL_D
                       nStd      0 X66_ARET
PL6.E3A0      #001=QXA$INIT File=QXA$INIT.:E05TSI                                WED 07/30/97 05:52 Page:27

  ****  Data refs  ****

  Flags:  r = read only, s = secondary
Flgs Name                             Flgs Name                             Flgs Name
r    QX_GLOBAL                             M$UC                                  B$JIT$
     B$TCB$                                B_VECTNIL

  ****  Segment refs  ****

  Flags:  r = read only, s = secondary
Flgs Name                             Flgs Name                             Flgs Name
     ISSID                                 NULLSID
PL6.E3A0      #001=QXA$INIT File=QXA$INIT.:E05TSI                                WED 07/30/97 05:52 Page:28


        1        1        /*M* QXA$INIT - TPCP initialization */
        2        2        /*T***********************************************************/
        3        3        /*T*                                                         */
        4        4        /*T* Copyright (c) Bull HN Information Systems Inc., 1997    */
        5        5        /*T*                                                         */
        6        6        /*T***********************************************************/
        7        7        /*X* IND=2, DCI=4, CSU=2, ECU=4, DTI=2, CTI=4, AND */
        8        8        /*P* NAME:        QXA$INIT
        9        9
       10       10             PURPOSE:     This routine initializes TPCP.
       11       11        */
       12       12        /*D* NAME:        QXA$INIT
       13       13
       14       14             CALL:        CALL QXA$INIT
       15       15
       16       16             INPUT:       None
       17       17
       18       18             OUTPUT:      Sets up the global data segment
       19       19
       20       20             ENVIRONMENT: No static permitted!
       21       21
       22       22             DESCRIPTION: This routine is only called once.  TPCP unlike
       23       23                          other shared processors will never have its
       24       24                          data segments given away when it does a
       25       25                          M$CPEXIT.  All the FPTs that are used throughout
       26       26                          TPCP and the VLPs used by the FPTs are initialized
       27       27                          here.
       28       28
       29       29                          After initializing the FPTs the next task is
       30       30                          to extract the information that is in
       31       31                          B$JIT.CCBUF.  The FID of the TRADER file and
       32       32                          the accounting flag are taken from the JIT
       33       33                          buffer along with the message type that this
       34       34                          TPU will be processing is taken from the
       35       35                          JIT buffer.  The message type that the TPU
       36       36                          is supposed to process is the message type that
PL6.E3A0      #001=QXA$INIT File=QXA$INIT.:E05TSI                                WED 07/30/97 05:52 Page:29
       37       37                          TPCP itself will use in the VLP_STATION.IMSGTYP
       38       38                          when it does a read of the comgroup. Also located
       39       39                          in B$JIT.CCBUF (built by QQC$START_TPU) are the
       40       40                          TESTMODE and NOW flags and the TIMEOUT (in minutes)
       41       41                          for this TPU.
       42       42
       43       43                          The last thing that is done is to obtain a buffer
       44       44                          into which we can read the _E records when there
       45       45                          is a transaction to process.
       46       46        */
       47       47        %EJECT;
PL6.E3A0      #001=QXA$INIT File=QXA$INIT.:E05TSI                                WED 07/30/97 05:52 Page:30
       48       48        QXA$INIT:
       49       49                PROC;

     49  2 000000   000000 700200 xent  QXA$INIT     TSX0  ! X66_AUTO_0
         2 000001   000106 000000                    ZERO    70,0

       50       50
       51       51        %INCLUDE Q_PAGE_C;
       52       83        %SET LISTEXP = '1'B;
       53       84
       54       85        %PAGE(ARG="Includes");

               102        /***************************************************************************
               103         *                                                                         *
               104         *                                  Includes                               *
               105         *                                                                         *
               106         ***************************************************************************/

       55      110        %INCLUDE QQ_MACROS_C;
       56      535        %INCLUDE QX_MACROS_C;
       57      670        %INCLUDE QX_DATA_R;
       58      680        %INCLUDE Q_SCODE_C;
       59      691        %INCLUDE Q_ERRCODE_C;
       60      714        %INCLUDE XU_MACRO_C;
       61     3820        %INCLUDE CP_6;
       62     3901        %INCLUDE CP_6_SUBS;
       63     4441        %INCLUDE B$JIT;
       64     4731        %INCLUDE FM$FIT;
       65     4952        %PAGE(ARG="Externally defined routines");

              4969    1   /***************************************************************************
              4970    1    *                                                                         *
              4971    1    *                        Externally defined routines                      *
              4972    1    *                                                                         *
              4973    1    ***************************************************************************/

       66     4977    1   DCL QXA$XCON ENTRY ASYNC;
PL6.E3A0      #001=QXA$INIT File=QXA$INIT.:E05TSI                                WED 07/30/97 05:52 Page:31
       67     4978    1   DCL QXC$SCREECH ENTRY(3);
       68     4979        %PAGE(ARG="Symrefs");

              4996    1   /***************************************************************************
              4997    1    *                                                                         *
              4998    1    *                                  Symrefs                                *
              4999    1    *                                                                         *
              5000    1    ***************************************************************************/

       69     5004    1   DCL B$JIT$ PTR SYMREF;
       70     5005    1   DCL B$TCB$ PTR SYMREF;
       71     5006        %PAGE(ARG="Based");

              5023    1   /***************************************************************************
              5024    1    *                                                                         *
              5025    1    *                                   Based                                 *
              5026    1    *                                                                         *
              5027    1    ***************************************************************************/

       72     5031        %B$TCB;
       73     5034        %B$ALT;
       74     5042
       75     5043    1   DCL CHAR$STRING CHAR(CHAR_STRING_SIZE) BASED;
       76     5044
       77     5045    1   DCL BYTTE SBIN(9) UNAL BASED;
       78     5046    1   DCL WORRD SBIN(36) UNAL BASED;
       79     5047    1   DCL 1 BUFFER DALIGNED BASED,
       80     5048    1         2  MSG1 CHAR(24),
       81     5049    1         2  MSG2 CHAR(132);
       82     5050        %PAGE(ARG="Constants");

              5067    1   /***************************************************************************
              5068    1    *                                                                         *
              5069    1    *                                 Constants                               *
              5070    1    *                                                                         *
              5071    1    ***************************************************************************/

PL6.E3A0      #001=QXA$INIT File=QXA$INIT.:E05TSI                                WED 07/30/97 05:52 Page:32
       83     5075        %VLP_NAME(FPTN=QQERRMSG, STCLASS=CONSTANT, NAME=':QQERRMSG');
       84     5102        %VLP_ACCT(FPTN=VLP_ACCT_SYS, STCLASS=CONSTANT, ACCT=':SYS');
       85     5115        %VLP_NAME(FPTN=IBEX, NAME='IBEX', STCLASS=CONSTANT);
       86     5142    1   DCL ERRMSG CHAR(0) CONSTANT INIT ('TP Accounting Error:    ');
       87     5143        %PAGE(ARG="Auto");

              5160    1   /***************************************************************************
              5161    1    *                                                                         *
              5162    1    *                                    Auto                                 *
              5163    1    *                                                                         *
              5164    1    ***************************************************************************/

       88     5168    1   DCL CHAR_STRING_SIZE UBIN WORD;
       89     5169    1   DCL I UBIN WORD;
       90     5170    1   DCL POS UBIN WORD;
       91     5171    1   DCL BLANK_POS UBIN WORD;
       92     5172    1   DCL SPACE_NEEDED UBIN WORD;
       93     5173
       94     5174        %GLOBAL_PTRS;
       95     5267    1   DCL P$ PTR;
       96     5268    1   DCL M$UC$ PTR;
       97     5269    1   DCL M$TPCP$ PTR;
       98     5270    1   DCL CCBUF$ PTR;
       99     5271    1   DCL TEMP_REC$ PTR;
      100     5272
      101     5273    1   DCL VLP_RES CHAR(4);
      102     5274        %PAGE(ARG="FPTs", PAGE=YES);

PL6.E3A0      #001=QXA$INIT File=QXA$INIT.:E05TSI                                WED 07/30/97 05:52 Page:33
              5291    1   /***************************************************************************
              5292    1    *                                                                         *
              5293    1    *                                    FPTs                                 *
              5294    1    *                                                                         *
              5295    1    ***************************************************************************/

      103     5299        %FPT_GDS(FPTN=FPT_GDS_INITIAL, STCLASS=);
      104     5315
      105     5316        %FPT_XCON(STCLASS=CONSTANT, UENTRY=QXA$XCON);
      106     5330        %FPT_SCON(STCLASS=CONSTANT, SAVEFLG=NO);
      107     5345
      108     5346        %FPT_CPEXIT(FPTN=FPT_CPEXIT_NTP, ACCT=VLP_ACCT_SYS, NAME=IBEX,
      109     5347        STCLASS=CONSTANT);
      110     5373        %PAGE(ARG="VLPs");

              5390    1   /***************************************************************************
              5391    1    *                                                                         *
              5392    1    *                                    VLPs                                 *
              5393    1    *                                                                         *
              5394    1    ***************************************************************************/

      111     5398        %VLP_VECTOR(STCLASS=CONSTANT);
      112     5413
      113     5414        %VLP_VECTOR(FPTN=VLP_VECTOR_AUTO, STCLASS=);
      114     5429        %PAGE(ARG="G L O B A L   D A T A", PAGE=YES);

PL6.E3A0      #001=QXA$INIT File=QXA$INIT.:E05TSI                                WED 07/30/97 05:52 Page:34
              5446    1   /***************************************************************************
              5447    1    *                                                                         *
              5448    1    *                           G L O B A L   D A T A                         *
              5449    1    *                                                                         *
              5450    1    ***************************************************************************/

      115     5454        %GLOBAL_PTRS(FPTN=GLOBAL$PTRS, STCLASS="BASED(QX_GLOBAL.GLOBAL$PTRS$)");
      116     5547        %PAGE(ARG="FPTs");

              5564    1   /***************************************************************************
              5565    1    *                                                                         *
              5566    1    *                                    FPTs                                 *
              5567    1    *                                                                         *
              5568    1    ***************************************************************************/

      117     5572        %FPT_READ(FPTN=FPT_READ_KEY, STCLASS=CONSTANT, KEYS=YES);
      118     5611        %FPT_READ(FPTN=FPT$READ_KEY,
      119     5612        STCLASS="BASED(GLOBAL_PTRS.FPT$READ_KEY$)");
      120     5651
      121     5652        %FPT_WRITE(FPTN=FPT_WRITE_KEY, STCLASS=CONSTANT);
      122     5683        %FPT_WRITE(FPTN=FPT$WRITE_KEY,
      123     5684        STCLASS="BASED(GLOBAL_PTRS.FPT$WRITE_KEY$)");
      124     5715
      125     5716        %FPT_GETDCB(STCLASS=CONSTANT);
      126     5731        %FPT_GETDCB(FPTN=FPT$GETDCB,
      127     5732        STCLASS="BASED(GLOBAL_PTRS.FPT$GETDCB$)");
      128     5747
      129     5748        %FPT_RELDCB(STCLASS=CONSTANT);
      130     5762        %FPT_RELDCB(FPTN=FPT$RELDCB,
      131     5763        STCLASS="BASED(GLOBAL_PTRS.FPT$RELDCB$)");
      132     5777
      133     5778        %FPT_CPEXIT(STCLASS=CONSTANT);
      134     5804        %FPT_CPEXIT(FPTN=FPT$CPEXIT,
      135     5805        STCLASS="BASED(GLOBAL_PTRS.FPT$CPEXIT$)");
      136     5831
      137     5832        %FPT_GDS(STCLASS=CONSTANT, SEGSIZE=1024);
      138     5848        %FPT_GDS(FPTN=FPT$GDS,
PL6.E3A0      #001=QXA$INIT File=QXA$INIT.:E05TSI                                WED 07/30/97 05:52 Page:35
      139     5849        STCLASS="BASED(GLOBAL_PTRS.FPT$GDS$)");
      140     5865
      141     5866        %FPT_FID(STCLASS=CONSTANT);
      142     5889        %FPT_FID(FPTN=FPT$FID,
      143     5890        STCLASS="BASED(GLOBAL_PTRS.FPT$FID$)");
      144     5913
      145     5914        %FPT_OPEN(FPTN=FPT_OPEN_FILE, STCLASS=CONSTANT, ASN=FILE,
      146     5915        ACS=DIRECT, SHARE=ALL, ORG=KEYED, FUN=UPDATE);
      147     6024        %FPT_OPEN(FPTN=FPT$OPEN_FILE,
      148     6025        STCLASS="BASED(GLOBAL_PTRS.FPT$OPEN_FILE$)");
      149     6134
      150     6135        %FPT_DELREC(STCLASS=CONSTANT);
      151     6154        %FPT_DELREC(FPTN=FPT$DELREC,
      152     6155        STCLASS="BASED(GLOBAL_PTRS.FPT$DELREC$)");
      153     6174
      154     6175        %FPT_CLOSE(STCLASS=CONSTANT, DISP=SAVE);
      155     6217        %FPT_CLOSE(FPTN=FPT$CLOSE,
      156     6218        STCLASS="BASED(GLOBAL_PTRS.FPT$CLOSE$)");
      157     6260
      158     6261        %FPT_UNLATCH(STCLASS=CONSTANT, DCB=M$UC, INPUT=HOLD, OUTPUT=DELETE);
      159     6278        %FPT_UNLATCH(FPTN=FPT$UNLATCH,
      160     6279        STCLASS="BASED(GLOBAL_PTRS.FPT$UNLATCH$)");
      161     6296
      162     6297        %FPT_READ(FPTN=FPT_READ_CG, STCLASS=CONSTANT, DCB=M$UC);
      163     6336        %FPT_READ(FPTN=FPT$READ_CG,
      164     6337        STCLASS="BASED(GLOBAL_PTRS.FPT$READ_CG$)");
      165     6376
      166     6377        %FPT_WRITE(FPTN=FPT_WRITE_CG, STCLASS=CONSTANT, DCB=M$UC);
      167     6408        %FPT_WRITE(FPTN=FPT$WRITE_CG,
      168     6409        STCLASS="BASED(GLOBAL_PTRS.FPT$WRITE_CG$)");
      169     6440
      170     6441        %FPT_ERRMSG(FPTN=FPT_ERRMSG, STCLASS=CONSTANT, FILENAME=QQERRMSG,
      171     6442        FILEACCT=VLP_ACCT_SYS);
      172     6469        %FPT_ERRMSG(FPTN=FPT$ERRMSG,
      173     6470        STCLASS="BASED(GLOBAL_PTRS.FPT$ERRMSG$)");
      174     6497
      175     6498        %FPT_OPEN(FPTN=FPT_OPEN_CG, STCLASS=CONSTANT, SETDCB=YES, DCB=M$UC);
PL6.E3A0      #001=QXA$INIT File=QXA$INIT.:E05TSI                                WED 07/30/97 05:52 Page:36
      176     6607        %FPT_OPEN(FPTN=FPT$OPEN_CG,
      177     6608        STCLASS="BASED(GLOBAL_PTRS.FPT$OPEN_CG$)");
      178     6717
      179     6718        %FPT_OCMSG(STCLASS=CONSTANT);
      180     6734        %FPT_OCMSG(FPTN=FPT$OCMSG,
      181     6735        STCLASS="BASED(GLOBAL_PTRS.FPT$OCMSG$)");
      182     6751
      183     6752        %FPT_TIME(STCLASS=CONSTANT, DEST=EXT, SOURCE=CLOCK);
      184     6771        %FPT_TIME(FPTN=FPT$TIME,
      185     6772        STCLASS="BASED(GLOBAL_PTRS.FPT$TIME$)");
      186     6791
      187     6792        %FPT_KEYIN(FPTN=FPT_KEYIN, STCLASS=CONSTANT);
      188     6811        %FPT_KEYIN(FPTN=FPT$KEYIN,
      189     6812        STCLASS="BASED(GLOBAL_PTRS.FPT$KEYIN$)");
      190     6831
      191     6832        %XUG_GETCMD(CONTINUE_OK=NO, STCLASS=CONSTANT);
      192     7170        %XUG_GETCMD(NAME=XUG$GETCMD,
      193     7171        STCLASS="BASED(GLOBAL_PTRS.XUG$GETCMD$)");
      194     7509        %PAGE(ARG="VLPs");

              7526    1   /***************************************************************************
              7527    1    *                                                                         *
              7528    1    *                                    VLPs                                 *
              7529    1    *                                                                         *
              7530    1    ***************************************************************************/

      195     7534        %VLP_NAME(FPTN=VLP$NAME,
      196     7535        STCLASS="BASED(GLOBAL_PTRS.VLP$NAME$) DALIGNED", LEN=31);
      197     7562
      198     7563        %VLP_ACCT(FPTN=VLP$ACCT,
      199     7564        STCLASS="BASED(GLOBAL_PTRS.VLP$ACCT$) DALIGNED");
      200     7577
      201     7578        %VLP_PASS(FPTN=VLP$PASS,
      202     7579        STCLASS="BASED(GLOBAL_PTRS.VLP$PASS$) DALIGNED");
      203     7592
      204     7593        %VLP_SN(FPTN=VLP$SN,
      205     7594        STCLASS="BASED(GLOBAL_PTRS.VLP$SN$)");
PL6.E3A0      #001=QXA$INIT File=QXA$INIT.:E05TSI                                WED 07/30/97 05:52 Page:37
      206     7607
      207     7608        %VLP_WSN(FPTN=VLP$WSN,
      208     7609        STCLASS="BASED(GLOBAL_PTRS.VLP$WSN$) DALIGNED");
      209     7622
      210     7623        %VLP_NAME(FPTN=VLP$KEY,
      211     7624        STCLASS="BASED(GLOBAL_PTRS.VLP$KEY$) DALIGNED", LEN=31);
      212     7651
      213     7652    1   DCL VLP$DCBNUM UBIN WORD DALIGNED
      214     7653    1   BASED(GLOBAL_PTRS.VLP$DCBNUM$);
      215     7654
      216     7655        %VLP_NAME(FPTN=VLP$LKEY,
      217     7656        STCLASS="BASED(GLOBAL_PTRS.VLP$LKEY$) DALIGNED", LEN=1);
      218     7683
      219     7684        %VLP_NAME(FPTN=VLP$DEBUGGER,
      220     7685        STCLASS="BASED(GLOBAL_PTRS.VLP$DEBUGGER$) DALIGNED", LEN=15);
      221     7712
      222     7713        %VLP_NAME(FPTN=VLP$MSGTYP,
      223     7714        STCLASS="BASED(GLOBAL_PTRS.VLP$MSGTYP$) DALIGNED", LEN=8);
      224     7741
      225     7742        %VLP_NAME(FPTN=VLP$NAME_TRADER,
      226     7743        STCLASS="BASED(GLOBAL_PTRS.VLP$NAME_TRADER$) DALIGNED", LEN=31);
      227     7770
      228     7771        %VLP_ACCT(FPTN=VLP$ACCT_TRADER,
      229     7772        STCLASS="BASED(GLOBAL_PTRS.VLP$ACCT_TRADER$) DALIGNED");
      230     7785
      231     7786        %FM$FIT(FM$FIT=VLP$IFPARAM_PASS_TRADER,
      232     7787        N=1,
      233     7788        BASED="BASED(GLOBAL_PTRS.VLP$IFPARAM_PASS_TRADER$)");
      234     7791        /* WARNING:  VLP$IFPARAM_PASS_TRADER (above)
      235     7792                     and VLP$CODE07_PASS_TRADER (below)
      236     7793                     must be allocated consecutively, adjacent,
      237     7794                     and right next to each other, too.  */
      238     7795        %CODE07(CODE07=VLP$CODE07_PASS_TRADER,
      239     7796        BASED="BASED(GLOBAL_PTRS.VLP$CODE07_PASS_TRADER$)");
      240     7799
      241     7800        %VLP_SN(FPTN=VLP$SN_TRADER,
      242     7801        STCLASS="BASED(GLOBAL_PTRS.VLP$SN_TRADER$)");
PL6.E3A0      #001=QXA$INIT File=QXA$INIT.:E05TSI                                WED 07/30/97 05:52 Page:38
      243     7814
      244     7815        %VLP_VECTOR(FPTN=VLP$VECTOR,
      245     7816        STCLASS="BASED(GLOBAL_PTRS.VLP$VECTOR$)");
      246     7831
      247     7832        %VLP_NAME(FPTN=VLP$FID,
      248     7833        STCLASS="BASED(GLOBAL_PTRS.VLP$FID$) DALIGNED", LEN=99);
      249     7860
      250     7861        %VLP_STATION(FPTN=VLP$STATION,
      251     7862        STCLASS="BASED(GLOBAL_PTRS.VLP$STATION$)");
      252     7889
      253     7890        %VLP_SETSTA(FPTN=VLP$SETSTA,
      254     7891        STCLASS="BASED(GLOBAL_PTRS.VLP$SETSTA$)");
      255     7919
      256     7920        %VLP_VECTOR(FPTN=VLP$GDS,
      257     7921        STCLASS="BASED(GLOBAL_PTRS.VLP$GDS$)");
      258     7936
      259     7937    1   DCL VLP$ASN UBIN WORD DALIGNED BASED(GLOBAL_PTRS.VLP$ASN$);
      260     7938        %PAGE(ARG="VLRs");

              7955    1   /***************************************************************************
              7956    1    *                                                                         *
              7957    1    *                                    VLRs                                 *
              7958    1    *                                                                         *
              7959    1    ***************************************************************************/

      261     7963
      262     7964    1   DCL VLP$TIME CHAR(11) DALIGNED
      263     7965    1   BASED(GLOBAL_PTRS.VLP$TIME$);
      264     7966
      265     7967        %VLR_FID(FPTN=VLR$FID,
      266     7968        STCLASS="BASED(GLOBAL_PTRS.VLR$FID$)");
      267     7987
      268     7988        %VLR_ERRMSG(FPTN=VLR$ERRMSG,
      269     7989        STCLASS="BASED(GLOBAL_PTRS.VLR$ERRMSG$)");
      270     8011        %PAGE(ARG="QX$GLOBAL");

              8028    1   /***************************************************************************
PL6.E3A0      #001=QXA$INIT File=QXA$INIT.:E05TSI                                WED 07/30/97 05:52 Page:39
              8029    1    *                                                                         *
              8030    1    *                                 QX$GLOBAL                               *
              8031    1    *                                                                         *
              8032    1    ***************************************************************************/

      271     8036        %QX$GLOBAL;
      272     8059        %PAGE(ARG="QXA$INIT", PAGE=YES);

PL6.E3A0      #001=QXA$INIT File=QXA$INIT.:E05TSI                                WED 07/30/97 05:52 Page:40
              8076    1   /***************************************************************************
              8077    1    *                                                                         *
              8078    1    *                                  QXA$INIT                               *
              8079    1    *                                                                         *
              8080    1    ***************************************************************************/

      273     8084    1           IF B$JIT.MODE ~= 4 /* M_TP# */ THEN

   8084  2 000002   000000 470400 xsym               LDP0    B$JIT$
         2 000003   000000 236100                    LDQ     0,,PR0
         2 000004   740000 376003                    ANQ     -16384,DU
         2 000005   200000 116003                    CMPQ    65536,DU
         2 000006   000023 600000 2                  TZE     s:8092

      274     8085    2             DO;

      275     8086    2               B$JIT.CCBUF = '!OFF';

   8086  2 000007   040100 100400                    MLR     fill='040'O
         2 000010   000642 000004 1                  ADSC9   XUG_GETCMD+42            cn=0,n=4
         2 000011   000033 000400                    ADSC9   27,,PR0                  cn=0,n=256

      276     8087    2               B$JIT.CCARS = 4;

   8087  2 000012   000004 220003                    LDX0    4,DU
         2 000013   000032 740100                    STX0    26,,PR0

      277     8088    2               B$JIT.CPFLAGS1 = '000000000040'O | '000000000020'O;

   8088  2 000014   000643 236000 1                  LDQ     XUG_GETCMD+43
         2 000015   000644 276000 1                  ORQ     XUG_GETCMD+44
         2 000016   000143 756100                    STQ     99,,PR0

      278     8089    2               CALL M$CPEXIT(FPT_CPEXIT_NTP) ALTRET(SCREECH);

   8089  2 000017   000030 630400 1                  EPPR0   FPT_CPEXIT_NTP
         2 000020   400012 713400                    CLIMB   alt,+10
PL6.E3A0      #001=QXA$INIT File=QXA$INIT.:E05TSI                                WED 07/30/97 05:52 Page:41
         2 000021   402400 401760                    pmme    nvectors=6
         2 000022   001216 702000 2                  TSX2    SCREECH

      279     8090    2             END;

      280     8091
      281     8092    1           CALL M$XCON(FPT_XCON) ALTRET(SCREECH);

   8092  2 000023   000016 630400 1                  EPPR0   FPT_XCON
         2 000024   410003 713400                    CLIMB   alt,+4099
         2 000025   400400 401760                    pmme    nvectors=2
         2 000026   001216 702000 2                  TSX2    SCREECH

      282     8093    1           CALL M$SCON(FPT_SCON) ALTRET(SCREECH);

   8093  2 000027   000024 630400 1                  EPPR0   FPT_SCON
         2 000030   400020 713400                    CLIMB   alt,+16
         2 000031   400000 401760                    pmme    nvectors=1
         2 000032   001216 702000 2                  TSX2    SCREECH

      283     8094
      284     8095    1           SPACE_NEEDED =

   8095  2 000033   001206 235007                    LDA     646,DL
         2 000034   200007 755100                    STA     SPACE_NEEDED,,AUTO

      285     8096    1               SIZEW(GLOBAL$PTRS) +
      286     8097    1               SIZEW(VLP$NAME) +
      287     8098    1               SIZEW(VLP$ACCT) +
      288     8099    1               SIZEW(VLP$PASS) +
      289     8100    1               SIZEW(VLP$SN) +
      290     8101    1               SIZEW(VLP$WSN) +
      291     8102    1               SIZEW(VLP$KEY) +
      292     8103    1               SIZEW(VLP$DCBNUM) +
      293     8104    1               SIZEW(VLP$LKEY) +
      294     8105    1               SIZEW(VLP$DEBUGGER) +
      295     8106    1               SIZEW(VLP$MSGTYP) +
PL6.E3A0      #001=QXA$INIT File=QXA$INIT.:E05TSI                                WED 07/30/97 05:52 Page:42
      296     8107    1               SIZEW(VLP$NAME_TRADER) +
      297     8108    1               SIZEW(VLP$ACCT_TRADER) +
      298     8109    1               SIZEW(VLP$IFPARAM_PASS_TRADER) +
      299     8110    1               SIZEW(VLP$CODE07_PASS_TRADER) +
      300     8111    1               SIZEW(VLP$SN_TRADER) +
      301     8112    1               SIZEW(VLP$VECTOR) +
      302     8113    1               SIZEW(VLP$FID) +
      303     8114    1               SIZEW(VLP$STATION) +
      304     8115    1               SIZEW(VLP$SETSTA) +
      305     8116    1               SIZEW(VLP$GDS) +
      306     8117    1               SIZEW(VLP$ASN) +
      307     8118    1               SIZEW(VLP$TIME) +
      308     8119    1               SIZEW(VLR$FID) +
      309     8120    1               SIZEW(VLR$ERRMSG) +
      310     8121    1               SIZEW(FPT$READ_KEY) +
      311     8122    1               SIZEW(FPT$WRITE_KEY) +
      312     8123    1               SIZEW(FPT$GETDCB) +
      313     8124    1               SIZEW(FPT$RELDCB) +
      314     8125    1               SIZEW(FPT$CPEXIT) +
      315     8126    1               SIZEW(FPT$GDS) +
      316     8127    1               SIZEW(FPT$FID) +
      317     8128    1               SIZEW(FPT$OPEN_FILE) +
      318     8129    1               SIZEW(FPT$DELREC) +
      319     8130    1               SIZEW(FPT$CLOSE) +
      320     8131    1               SIZEW(FPT$UNLATCH) +
      321     8132    1               SIZEW(FPT$READ_CG) +
      322     8133    1               SIZEW(FPT$WRITE_CG) +
      323     8134    1               SIZEW(FPT$ERRMSG) +
      324     8135    1               SIZEW(FPT$OPEN_CG) +
      325     8136    1               SIZEW(FPT$OCMSG) +
      326     8137    1               SIZEW(FPT$TIME) +
      327     8138    1               SIZEW(FPT$KEYIN) +
      328     8139    1               SIZEW(BUFFER) +
      329     8140    1               SIZEW(XUG$GETCMD) +
      330     8141    1               SIZEW(QX$GLOBAL);
      331     8142
      332     8143    1           FPT_GDS_INITIAL = FPT_GDS;
PL6.E3A0      #001=QXA$INIT File=QXA$INIT.:E05TSI                                WED 07/30/97 05:52 Page:43

   8143  2 000035   000100 100400                    MLR     fill='000'O
         2 000036   000134 000030 1                  ADSC9   FPT_GDS                  cn=0,n=24
         2 000037   200074 000030                    ADSC9   FPT_GDS_INITIAL,,AUTO    cn=0,n=24

      333     8144    1           FPT_GDS_INITIAL.V_ = VECTOR(FPT_GDS_INITIAL.V);

   8144  2 000040   000000 235000 3                  LDA     0
         2 000041   200104 452500                    STP2    VLP_VECTOR_AUTO+2,,AUTO
         2 000042   200104 236100                    LDQ     VLP_VECTOR_AUTO+2,,AUTO
         2 000043   000100 036003                    ADLQ    64,DU
         2 000044   200074 757100                    STAQ    FPT_GDS_INITIAL,,AUTO

      334     8145    1           FPT_GDS_INITIAL.RESULTS_ = VECTOR(VLP_VECTOR_AUTO);

   8145  2 000045   000000 235000 3                  LDA     0
         2 000046   200104 452500                    STP2    VLP_VECTOR_AUTO+2,,AUTO
         2 000047   200104 236100                    LDQ     VLP_VECTOR_AUTO+2,,AUTO
         2 000050   000102 036003                    ADLQ    66,DU
         2 000051   200076 757100                    STAQ    FPT_GDS_INITIAL+2,,AUTO

      335     8146    1           VLP_VECTOR_AUTO = VLP_VECTOR;

   8146  2 000052   000046 237000 1                  LDAQ    VLP_VECTOR
         2 000053   200102 757100                    STAQ    VLP_VECTOR_AUTO,,AUTO

      336     8147    1           VLP_VECTOR_AUTO.PTR$ = QX_GLOBAL.GLOBAL$PTRS$;

   8147  2 000054   000000 236000 xsym               LDQ     QX_GLOBAL
         2 000055   200103 756100                    STQ     VLP_VECTOR_AUTO+1,,AUTO

      337     8148    1           FPT_GDS_INITIAL.V.SEGSIZE# = SPACE_NEEDED;

   8148  2 000056   200007 720100                    LXL0    SPACE_NEEDED,,AUTO
         2 000057   200100 440100                    SXL0    FPT_GDS_INITIAL+4,,AUTO

      338     8149    1           CALL M$GDS(FPT_GDS_INITIAL) ALTRET(SCREECH);
PL6.E3A0      #001=QXA$INIT File=QXA$INIT.:E05TSI                                WED 07/30/97 05:52 Page:44

   8149  2 000060   200074 630500                    EPPR0   FPT_GDS_INITIAL,,AUTO
         2 000061   430001 713400                    CLIMB   alt,gds
         2 000062   400400 401760                    pmme    nvectors=2
         2 000063   001216 702000 2                  TSX2    SCREECH

      339     8150
      340     8151    1           P$ = PINCRW(QX_GLOBAL.GLOBAL$PTRS$, SIZEW(GLOBAL$PTRS));

   8151  2 000064   000000 236000 xsym               LDQ     QX_GLOBAL
         2 000065   000056 036003                    ADLQ    46,DU
         2 000066   200066 756100                    STQ     P$,,AUTO

      341     8152    1           GLOBAL_PTRS.VLP$NAME$ = P$;

   8152  2 000067   200010 756100                    STQ     GLOBAL_PTRS,,AUTO

      342     8153
      343     8154    1           P$ = PINCRW(P$, SIZEW(VLP$NAME));

   8154  2 000070   000010 036003                    ADLQ    8,DU
         2 000071   200066 756100                    STQ     P$,,AUTO

      344     8155    1           GLOBAL_PTRS.VLP$ACCT$ = P$;

   8155  2 000072   200011 756100                    STQ     GLOBAL_PTRS+1,,AUTO

      345     8156
      346     8157    1           P$ = PINCRW(P$, SIZEW(VLP$ACCT));

   8157  2 000073   000002 036003                    ADLQ    2,DU
         2 000074   200066 756100                    STQ     P$,,AUTO

      347     8158    1           GLOBAL_PTRS.VLP$PASS$ = P$;

   8158  2 000075   200012 756100                    STQ     GLOBAL_PTRS+2,,AUTO

PL6.E3A0      #001=QXA$INIT File=QXA$INIT.:E05TSI                                WED 07/30/97 05:52 Page:45
      348     8159
      349     8160    1           P$ = PINCRW(P$, SIZEW(VLP$PASS));

   8160  2 000076   000002 036003                    ADLQ    2,DU
         2 000077   200066 756100                    STQ     P$,,AUTO

      350     8161    1           GLOBAL_PTRS.VLP$SN$ = P$;

   8161  2 000100   200013 756100                    STQ     GLOBAL_PTRS+3,,AUTO

      351     8162    1           VLP$SN.NUM# = 1;

   8162  2 000101   000001 235007                    LDA     1,DL
         2 000102   200013 470500                    LDP0    GLOBAL_PTRS+3,,AUTO
         2 000103   000000 755100                    STA     0,,PR0

      352     8163
      353     8164    1           P$ = PINCRW(P$, SIZEW(VLP$SN));

   8164  2 000104   000004 036003                    ADLQ    4,DU
         2 000105   200066 756100                    STQ     P$,,AUTO

      354     8165    1           GLOBAL_PTRS.VLP$WSN$ = P$;

   8165  2 000106   200014 756100                    STQ     GLOBAL_PTRS+4,,AUTO

      355     8166
      356     8167    1           P$ = PINCRW(P$, SIZEW(VLP$WSN));

   8167  2 000107   000002 036003                    ADLQ    2,DU
         2 000110   200066 756100                    STQ     P$,,AUTO

      357     8168    1           GLOBAL_PTRS.VLP$KEY$ = P$;

   8168  2 000111   200015 756100                    STQ     GLOBAL_PTRS+5,,AUTO

      358     8169
PL6.E3A0      #001=QXA$INIT File=QXA$INIT.:E05TSI                                WED 07/30/97 05:52 Page:46
      359     8170    1           P$ = PINCRW(P$, SIZEW(VLP$KEY));

   8170  2 000112   000010 036003                    ADLQ    8,DU
         2 000113   200066 756100                    STQ     P$,,AUTO

      360     8171    1           GLOBAL_PTRS.VLP$DCBNUM$ = P$;

   8171  2 000114   200016 756100                    STQ     GLOBAL_PTRS+6,,AUTO

      361     8172
      362     8173    1           P$ = PINCRW(P$, SIZEW(VLP$DCBNUM));

   8173  2 000115   000002 036003                    ADLQ    2,DU
         2 000116   200066 756100                    STQ     P$,,AUTO

      363     8174    1           GLOBAL_PTRS.VLP$LKEY$ = P$;

   8174  2 000117   200017 756100                    STQ     GLOBAL_PTRS+7,,AUTO

      364     8175    1           VLP$LKEY = '001777'O;

   8175  2 000120   001777 220003                    LDX0    1023,DU
         2 000121   200017 471500                    LDP1    GLOBAL_PTRS+7,,AUTO
         2 000122   100000 740100                    STX0    0,,PR1

      365     8176
      366     8177    1           P$ = PINCRW(P$, SIZEW(VLP$LKEY));

   8177  2 000123   000002 036003                    ADLQ    2,DU
         2 000124   200066 756100                    STQ     P$,,AUTO

      367     8178    1           GLOBAL_PTRS.VLP$DEBUGGER$ = P$;

   8178  2 000125   200020 756100                    STQ     GLOBAL_PTRS+8,,AUTO

      368     8179
      369     8180    1           P$ = PINCRW(P$, SIZEW(VLP$DEBUGGER));
PL6.E3A0      #001=QXA$INIT File=QXA$INIT.:E05TSI                                WED 07/30/97 05:52 Page:47

   8180  2 000126   000004 036003                    ADLQ    4,DU
         2 000127   200066 756100                    STQ     P$,,AUTO

      370     8181    1           GLOBAL_PTRS.VLP$MSGTYP$ = P$;

   8181  2 000130   200021 756100                    STQ     GLOBAL_PTRS+9,,AUTO

      371     8182
      372     8183    1           P$ = PINCRW(P$, SIZEW(VLP$MSGTYP));

   8183  2 000131   000004 036003                    ADLQ    4,DU
         2 000132   200066 756100                    STQ     P$,,AUTO

      373     8184    1           GLOBAL_PTRS.VLP$NAME_TRADER$ = P$;

   8184  2 000133   200022 756100                    STQ     GLOBAL_PTRS+10,,AUTO

      374     8185
      375     8186    1           P$ = PINCRW(P$, SIZEW(VLP$NAME_TRADER));

   8186  2 000134   000010 036003                    ADLQ    8,DU
         2 000135   200066 756100                    STQ     P$,,AUTO

      376     8187    1           GLOBAL_PTRS.VLP$ACCT_TRADER$ = P$;

   8187  2 000136   200023 756100                    STQ     GLOBAL_PTRS+11,,AUTO

      377     8188
      378     8189    1           P$ = PINCRW(P$, SIZEW(VLP$ACCT_TRADER));

   8189  2 000137   000002 036003                    ADLQ    2,DU
         2 000140   200066 756100                    STQ     P$,,AUTO

      379     8190    1           GLOBAL_PTRS.VLP$IFPARAM_PASS_TRADER$ = P$;

   8190  2 000141   200024 756100                    STQ     GLOBAL_PTRS+12,,AUTO
PL6.E3A0      #001=QXA$INIT File=QXA$INIT.:E05TSI                                WED 07/30/97 05:52 Page:48

      380     8191    1           VLP$IFPARAM_PASS_TRADER.CODES.CODE (0) = 1;

   8191  2 000142   200024 473500                    LDP3    GLOBAL_PTRS+12,,AUTO
         2 000143   300000 236100                    LDQ     0,,PR3
         2 000144   000001 376000 3                  ANQ     1
         2 000145   020000 276003                    ORQ     8192,DU
         2 000146   300000 756100                    STQ     0,,PR3

      381     8192    1           VLP$IFPARAM_PASS_TRADER.CODES.ITEMX (0) = 0;

   8192  2 000147   000002 236000 3                  LDQ     2
         2 000150   300000 356100                    ANSQ    0,,PR3

      382     8193    1           VLP$IFPARAM_PASS_TRADER.CODES.NAW (0) =

   8193  2 000151   300000 236100                    LDQ     0,,PR3
         2 000152   000003 376000 3                  ANQ     3
         2 000153   000020 276003                    ORQ     16,DU
         2 000154   300000 756100                    STQ     0,,PR3

      383     8194    1               SIZEW(VLP$IFPARAM_PASS_TRADER) +
      384     8195    1               SIZEW(VLP$CODE07_PASS_TRADER);
      385     8196    1           VLP$IFPARAM_PASS_TRADER.CODES.NDW (0) =

   8196  2 000155   300000 236100                    LDQ     0,,PR3
         2 000156   000004 376000 3                  ANQ     4
         2 000157   004000 276007                    ORQ     2048,DL
         2 000160   300000 756100                    STQ     0,,PR3

      386     8197    1               SIZEW(VLP$CODE07_PASS_TRADER);
      387     8198    1           VLP$IFPARAM_PASS_TRADER.CODES.CODE (1) = 7;

   8198  2 000161   300001 236100                    LDQ     1,,PR3
         2 000162   000001 376000 3                  ANQ     1
         2 000163   160000 276003                    ORQ     57344,DU
         2 000164   300001 756100                    STQ     1,,PR3
PL6.E3A0      #001=QXA$INIT File=QXA$INIT.:E05TSI                                WED 07/30/97 05:52 Page:49

      388     8199    1           VLP$IFPARAM_PASS_TRADER.CODES.ITEMX (1) =

   8199  2 000165   300001 236100                    LDQ     1,,PR3
         2 000166   000002 376000 3                  ANQ     2
         2 000167   000002 276007                    ORQ     2,DL
         2 000170   300001 756100                    STQ     1,,PR3

      389     8200    1               SIZEW(VLP$IFPARAM_PASS_TRADER);
      390     8201    1           VLP$IFPARAM_PASS_TRADER.CODES.NAW (1) =

   8201  2 000171   300001 236100                    LDQ     1,,PR3
         2 000172   000003 376000 3                  ANQ     3
         2 000173   000010 276003                    ORQ     8,DU
         2 000174   300001 756100                    STQ     1,,PR3

      391     8202    1               SIZEW(VLP$CODE07_PASS_TRADER);
      392     8203    1           VLP$IFPARAM_PASS_TRADER.CODES.NDW (1) =

   8203  2 000175   300001 236100                    LDQ     1,,PR3
         2 000176   000004 376000 3                  ANQ     4
         2 000177   004000 276007                    ORQ     2048,DL
         2 000200   300001 756100                    STQ     1,,PR3

      393     8204    1               SIZEW(VLP$CODE07_PASS_TRADER);
      394     8205
      395     8206    1           P$ = PINCRW(P$, SIZEW(VLP$IFPARAM_PASS_TRADER));

   8206  2 000201   200066 236100                    LDQ     P$,,AUTO
         2 000202   000002 036003                    ADLQ    2,DU
         2 000203   200066 756100                    STQ     P$,,AUTO

      396     8207    1           GLOBAL_PTRS.VLP$CODE07_PASS_TRADER$ = P$;

   8207  2 000204   200025 756100                    STQ     GLOBAL_PTRS+13,,AUTO

      397     8208
PL6.E3A0      #001=QXA$INIT File=QXA$INIT.:E05TSI                                WED 07/30/97 05:52 Page:50
      398     8209    1           P$ = PINCRW(P$, SIZEW(VLP$CODE07_PASS_TRADER));

   8209  2 000205   000002 036003                    ADLQ    2,DU
         2 000206   200066 756100                    STQ     P$,,AUTO

      399     8210    1           GLOBAL_PTRS.VLP$SN_TRADER$ = P$;

   8210  2 000207   200026 756100                    STQ     GLOBAL_PTRS+14,,AUTO

      400     8211    1           VLP$SN_TRADER.NUM# = 1;

   8211  2 000210   200026 474500                    LDP4    GLOBAL_PTRS+14,,AUTO
         2 000211   400000 755100                    STA     0,,PR4

      401     8212
      402     8213    1           P$ = PINCRW(P$, SIZEW(VLP$SN_TRADER));

   8213  2 000212   000004 036003                    ADLQ    4,DU
         2 000213   200066 756100                    STQ     P$,,AUTO

      403     8214    1           GLOBAL_PTRS.VLP$VECTOR$ = P$;

   8214  2 000214   200027 756100                    STQ     GLOBAL_PTRS+15,,AUTO

      404     8215    1           VLP$VECTOR.W1.TYP# = '01'B;

   8215  2 000215   200027 475500                    LDP5    GLOBAL_PTRS+15,,AUTO
         2 000216   500000 236100                    LDQ     0,,PR5
         2 000217   000005 376000 3                  ANQ     5
         2 000220   000040 276007                    ORQ     32,DL
         2 000221   500000 756100                    STQ     0,,PR5

      405     8216
      406     8217    1           P$ = PINCRW(P$, SIZEW(VLP$VECTOR));

   8217  2 000222   200066 236100                    LDQ     P$,,AUTO
         2 000223   000002 036003                    ADLQ    2,DU
PL6.E3A0      #001=QXA$INIT File=QXA$INIT.:E05TSI                                WED 07/30/97 05:52 Page:51
         2 000224   200066 756100                    STQ     P$,,AUTO

      407     8218    1           GLOBAL_PTRS.VLP$FID$ = P$;

   8218  2 000225   200030 756100                    STQ     GLOBAL_PTRS+16,,AUTO

      408     8219
      409     8220    1           P$ = PINCRW(P$, SIZEW(VLP$FID));

   8220  2 000226   000032 036003                    ADLQ    26,DU
         2 000227   200066 756100                    STQ     P$,,AUTO

      410     8221    1           GLOBAL_PTRS.VLP$STATION$ = P$;

   8221  2 000230   200031 756100                    STQ     GLOBAL_PTRS+17,,AUTO

      411     8222
      412     8223    1           P$ = PINCRW(P$, SIZEW(VLP$STATION));

   8223  2 000231   000010 036003                    ADLQ    8,DU
         2 000232   200066 756100                    STQ     P$,,AUTO

      413     8224    1           GLOBAL_PTRS.VLP$SETSTA$ = P$;

   8224  2 000233   200032 756100                    STQ     GLOBAL_PTRS+18,,AUTO

      414     8225
      415     8226    1           P$ = PINCRW(P$, SIZEW(VLP$SETSTA));

   8226  2 000234   000014 036003                    ADLQ    12,DU
         2 000235   200066 756100                    STQ     P$,,AUTO

      416     8227    1           GLOBAL_PTRS.VLP$GDS$ = P$;

   8227  2 000236   200033 756100                    STQ     GLOBAL_PTRS+19,,AUTO

      417     8228    1           VLP$GDS = VLP_VECTOR;
PL6.E3A0      #001=QXA$INIT File=QXA$INIT.:E05TSI                                WED 07/30/97 05:52 Page:52

   8228  2 000237   000046 237000 1                  LDAQ    VLP_VECTOR
         2 000240   200033 476500                    LDP6    GLOBAL_PTRS+19,,AUTO
         2 000241   600000 757100                    STAQ    0,,PR6

      418     8229
      419     8230    1           P$ = PINCRW(P$, SIZEW(VLP$GDS));

   8230  2 000242   200066 236100                    LDQ     P$,,AUTO
         2 000243   000002 036003                    ADLQ    2,DU
         2 000244   200066 756100                    STQ     P$,,AUTO

      420     8231    1           GLOBAL_PTRS.VLP$ASN$ = P$;

   8231  2 000245   200034 756100                    STQ     GLOBAL_PTRS+20,,AUTO

      421     8232
      422     8233    1           P$ = PINCRW(P$, SIZEW(VLP$ASN));

   8233  2 000246   000002 036003                    ADLQ    2,DU
         2 000247   200066 756100                    STQ     P$,,AUTO

      423     8234    1           GLOBAL_PTRS.VLP$TIME$ = P$;

   8234  2 000250   200035 756100                    STQ     GLOBAL_PTRS+21,,AUTO

      424     8235
      425     8236    1           P$ = PINCRW(P$, SIZEW(VLP$TIME));

   8236  2 000251   000004 036003                    ADLQ    4,DU
         2 000252   200066 756100                    STQ     P$,,AUTO

      426     8237    1           GLOBAL_PTRS.VLR$FID$ = P$;

   8237  2 000253   200036 756100                    STQ     GLOBAL_PTRS+22,,AUTO

      427     8238
PL6.E3A0      #001=QXA$INIT File=QXA$INIT.:E05TSI                                WED 07/30/97 05:52 Page:53
      428     8239    1           P$ = PINCRW(P$, SIZEW(VLR$FID));

   8239  2 000254   000012 036003                    ADLQ    10,DU
         2 000255   200066 756100                    STQ     P$,,AUTO

      429     8240    1           GLOBAL_PTRS.VLR$ERRMSG$ = P$;

   8240  2 000256   200037 756100                    STQ     GLOBAL_PTRS+23,,AUTO

      430     8241
      431     8242    1           P$ = PINCRW(P$, SIZEW(VLR$ERRMSG));

   8242  2 000257   000004 036003                    ADLQ    4,DU
         2 000260   200066 756100                    STQ     P$,,AUTO

      432     8243    1           GLOBAL_PTRS.FPT$READ_KEY$ = P$;

   8243  2 000261   200040 756100                    STQ     GLOBAL_PTRS+24,,AUTO

      433     8244    1           FPT$READ_KEY = FPT_READ_KEY;

   8244  2 000262   200040 477500                    LDP7    GLOBAL_PTRS+24,,AUTO
         2 000263   000100 100400                    MLR     fill='000'O
         2 000264   000050 000070 1                  ADSC9   FPT_READ_KEY             cn=0,n=56
         2 000265   700000 000070                    ADSC9   0,,PR7                   cn=0,n=56

      434     8245    1           FPT$READ_KEY.V_ = VECTOR(FPT$READ_KEY.V);

   8245  2 000266   000006 235000 3                  LDA     6
         2 000267   000010 036003                    ADLQ    8,DU
         2 000270   700000 757100                    STAQ    0,,PR7

      435     8246    1           FPT$READ_KEY.V.DCB# = 5 /* M$IBEX# */;

   8246  2 000271   000005 221003                    LDX1    5,DU
         2 000272   700010 741100                    STX1    8,,PR7

PL6.E3A0      #001=QXA$INIT File=QXA$INIT.:E05TSI                                WED 07/30/97 05:52 Page:54
      436     8247    1           FPT$READ_KEY.KEY_ = VECTOR(VLP$KEY);

   8247  2 000273   000007 235000 3                  LDA     7
         2 000274   200015 236100                    LDQ     GLOBAL_PTRS+5,,AUTO
         2 000275   700002 757100                    STAQ    2,,PR7

      437     8248
      438     8249    1           P$ = PINCRW(P$, SIZEW(FPT$READ_KEY));

   8249  2 000276   200066 236100                    LDQ     P$,,AUTO
         2 000277   000016 036003                    ADLQ    14,DU
         2 000300   200066 756100                    STQ     P$,,AUTO

      439     8250    1           GLOBAL_PTRS.FPT$WRITE_KEY$ = P$;

   8250  2 000301   200041 756100                    STQ     GLOBAL_PTRS+25,,AUTO

      440     8251    1           FPT$WRITE_KEY = FPT_WRITE_KEY;

   8251  2 000302   200041 470500                    LDP0    GLOBAL_PTRS+25,,AUTO
         2 000303   000100 100400                    MLR     fill='000'O
         2 000304   000066 000060 1                  ADSC9   FPT_WRITE_KEY            cn=0,n=48
         2 000305   000000 000060                    ADSC9   0,,PR0                   cn=0,n=48

      441     8252    1           FPT$WRITE_KEY.V_ = VECTOR(FPT$WRITE_KEY.V);

   8252  2 000306   000010 235000 3                  LDA     8
         2 000307   000010 036003                    ADLQ    8,DU
         2 000310   000000 757100                    STAQ    0,,PR0

      442     8253    1           FPT$WRITE_KEY.KEY_ = VECTOR(VLP$KEY);

   8253  2 000311   000007 235000 3                  LDA     7
         2 000312   200015 236100                    LDQ     GLOBAL_PTRS+5,,AUTO
         2 000313   000002 757100                    STAQ    2,,PR0

      443     8254    1           FPT$WRITE_KEY.V.DCB# = 5 /* M$IBEX# */;
PL6.E3A0      #001=QXA$INIT File=QXA$INIT.:E05TSI                                WED 07/30/97 05:52 Page:55

   8254  2 000314   000010 741100                    STX1    8,,PR0

      444     8255
      445     8256    1           P$ = PINCRW(P$, SIZEW(FPT$WRITE_KEY));

   8256  2 000315   200066 236100                    LDQ     P$,,AUTO
         2 000316   000014 036003                    ADLQ    12,DU
         2 000317   200066 756100                    STQ     P$,,AUTO

      446     8257    1           GLOBAL_PTRS.FPT$GETDCB$ = P$;

   8257  2 000320   200042 756100                    STQ     GLOBAL_PTRS+26,,AUTO

      447     8258    1           FPT$GETDCB = FPT_GETDCB;

   8258  2 000321   200042 470500                    LDP0    GLOBAL_PTRS+26,,AUTO
         2 000322   000100 100400                    MLR     fill='000'O
         2 000323   000102 000040 1                  ADSC9   FPT_GETDCB               cn=0,n=32
         2 000324   000000 000040                    ADSC9   0,,PR0                   cn=0,n=32

      448     8259    1           FPT$GETDCB.V_ = VECTOR(FPT$GETDCB.V);

   8259  2 000325   000000 235000 3                  LDA     0
         2 000326   000006 036003                    ADLQ    6,DU
         2 000327   000000 757100                    STAQ    0,,PR0

      449     8260    1           FPT$GETDCB.DCBNUM_ = VECTOR(VLP$DCBNUM);

   8260  2 000330   000000 235000 3                  LDA     0
         2 000331   200016 236100                    LDQ     GLOBAL_PTRS+6,,AUTO
         2 000332   000004 757100                    STAQ    4,,PR0

      450     8261    1           FPT$GETDCB.V.DCB# = 5 /* M$IBEX# */;

   8261  2 000333   000006 741100                    STX1    6,,PR0

PL6.E3A0      #001=QXA$INIT File=QXA$INIT.:E05TSI                                WED 07/30/97 05:52 Page:56
      451     8262
      452     8263    1           P$ = PINCRW(P$, SIZEW(FPT$GETDCB));

   8263  2 000334   200066 236100                    LDQ     P$,,AUTO
         2 000335   000010 036003                    ADLQ    8,DU
         2 000336   200066 756100                    STQ     P$,,AUTO

      453     8264    1           GLOBAL_PTRS.FPT$RELDCB$ = P$;

   8264  2 000337   200043 756100                    STQ     GLOBAL_PTRS+27,,AUTO

      454     8265    1           FPT$RELDCB = FPT_RELDCB;

   8265  2 000340   200043 470500                    LDP0    GLOBAL_PTRS+27,,AUTO
         2 000341   000100 100400                    MLR     fill='000'O
         2 000342   000112 000020 1                  ADSC9   FPT_RELDCB               cn=0,n=16
         2 000343   000000 000020                    ADSC9   0,,PR0                   cn=0,n=16

      455     8266    1           FPT$RELDCB.V_ = VECTOR(FPT$RELDCB.V);

   8266  2 000344   000000 235000 3                  LDA     0
         2 000345   000002 036003                    ADLQ    2,DU
         2 000346   000000 757100                    STAQ    0,,PR0

      456     8267    1           FPT$RELDCB.V.DCB# = 5 /* M$IBEX# */;

   8267  2 000347   000002 741100                    STX1    2,,PR0

      457     8268
      458     8269    1           P$ = PINCRW(P$, SIZEW(FPT$RELDCB));

   8269  2 000350   200066 236100                    LDQ     P$,,AUTO
         2 000351   000004 036003                    ADLQ    4,DU
         2 000352   200066 756100                    STQ     P$,,AUTO

      459     8270    1           GLOBAL_PTRS.FPT$CPEXIT$ = P$;

PL6.E3A0      #001=QXA$INIT File=QXA$INIT.:E05TSI                                WED 07/30/97 05:52 Page:57
   8270  2 000353   200044 756100                    STQ     GLOBAL_PTRS+28,,AUTO

      460     8271
      461     8272    1           P$ = PINCRW(P$, SIZEW(FPT$CPEXIT));

   8272  2 000354   000016 036003                    ADLQ    14,DU
         2 000355   200066 756100                    STQ     P$,,AUTO

      462     8273    1           GLOBAL_PTRS.FPT$GDS$ = P$;

   8273  2 000356   200045 756100                    STQ     GLOBAL_PTRS+29,,AUTO

      463     8274    1           FPT$GDS = FPT_GDS;

   8274  2 000357   200045 470500                    LDP0    GLOBAL_PTRS+29,,AUTO
         2 000360   000100 100400                    MLR     fill='000'O
         2 000361   000134 000030 1                  ADSC9   FPT_GDS                  cn=0,n=24
         2 000362   000000 000030                    ADSC9   0,,PR0                   cn=0,n=24

      464     8275    1           FPT$GDS.V_ = VECTOR(FPT$GDS.V);

   8275  2 000363   000000 235000 3                  LDA     0
         2 000364   000004 036003                    ADLQ    4,DU
         2 000365   000000 757100                    STAQ    0,,PR0

      465     8276    1           FPT$GDS.RESULTS_ = VECTOR(VLP$GDS);

   8276  2 000366   000000 235000 3                  LDA     0
         2 000367   200033 236100                    LDQ     GLOBAL_PTRS+19,,AUTO
         2 000370   000002 757100                    STAQ    2,,PR0

      466     8277
      467     8278    1           P$ = PINCRW(P$, SIZEW(FPT$GDS));

   8278  2 000371   200066 236100                    LDQ     P$,,AUTO
         2 000372   000006 036003                    ADLQ    6,DU
         2 000373   200066 756100                    STQ     P$,,AUTO
PL6.E3A0      #001=QXA$INIT File=QXA$INIT.:E05TSI                                WED 07/30/97 05:52 Page:58

      468     8279    1           GLOBAL_PTRS.FPT$FID$ = P$;

   8279  2 000374   200046 756100                    STQ     GLOBAL_PTRS+30,,AUTO

      469     8280    1           FPT$FID = FPT_FID;

   8280  2 000375   200046 470500                    LDP0    GLOBAL_PTRS+30,,AUTO
         2 000376   000100 100400                    MLR     fill='000'O
         2 000377   000142 000140 1                  ADSC9   FPT_FID                  cn=0,n=96
         2 000400   000000 000140                    ADSC9   0,,PR0                   cn=0,n=96

      470     8281    1           FPT$FID.V_ = VECTOR(FPT$FID.V);

   8281  2 000401   000010 235000 3                  LDA     8
         2 000402   000024 036003                    ADLQ    20,DU
         2 000403   000000 757100                    STAQ    0,,PR0

      471     8282    1           FPT$FID.NAME_ = VECTOR(VLP$NAME);

   8282  2 000404   000007 235000 3                  LDA     7
         2 000405   200010 236100                    LDQ     GLOBAL_PTRS,,AUTO
         2 000406   000004 757100                    STAQ    4,,PR0

      472     8283    1           FPT$FID.ACCT_ = VECTOR(VLP$ACCT);

   8283  2 000407   000000 235000 3                  LDA     0
         2 000410   200011 236100                    LDQ     GLOBAL_PTRS+1,,AUTO
         2 000411   000006 757100                    STAQ    6,,PR0

      473     8284    1           FPT$FID.PASS_ = VECTOR(VLP$PASS);

   8284  2 000412   000000 235000 3                  LDA     0
         2 000413   200012 236100                    LDQ     GLOBAL_PTRS+2,,AUTO
         2 000414   000010 757100                    STAQ    8,,PR0

      474     8285    1           FPT$FID.SN_ = VECTOR(VLP$SN);
PL6.E3A0      #001=QXA$INIT File=QXA$INIT.:E05TSI                                WED 07/30/97 05:52 Page:59

   8285  2 000415   000010 235000 3                  LDA     8
         2 000416   200013 236100                    LDQ     GLOBAL_PTRS+3,,AUTO
         2 000417   000012 757100                    STAQ    10,,PR0

      475     8286    1           FPT$FID.WSN_ = VECTOR(VLP$WSN);

   8286  2 000420   000000 235000 3                  LDA     0
         2 000421   200014 236100                    LDQ     GLOBAL_PTRS+4,,AUTO
         2 000422   000014 757100                    STAQ    12,,PR0

      476     8287    1           FPT$FID.ASN_ = VECTOR(VLP$ASN);

   8287  2 000423   000000 235000 3                  LDA     0
         2 000424   200034 236100                    LDQ     GLOBAL_PTRS+20,,AUTO
         2 000425   000016 757100                    STAQ    14,,PR0

      477     8288    1           FPT$FID.RES_ = VECTOR(VLP_RES);

   8288  2 000426   777640 235007                    LDA     -96,DL
         2 000427   200104 452500                    STP2    VLP_VECTOR_AUTO+2,,AUTO
         2 000430   200104 236100                    LDQ     VLP_VECTOR_AUTO+2,,AUTO
         2 000431   000073 036003                    ADLQ    59,DU
         2 000432   000020 757100                    STAQ    16,,PR0

      478     8289    1           FPT$FID.TEXTFID_ = VECTOR(VLP$FID.NAME#);

   8289  2 000433   000011 235000 3                  LDA     9
         2 000434   200030 236100                    LDQ     GLOBAL_PTRS+16,,AUTO
         2 000435   200000 036007                    ADLQ    65536,DL
         2 000436   000002 757100                    STAQ    2,,PR0

      479     8290    1           FPT$FID.RESULTS_ = VECTOR(VLR$FID);

   8290  2 000437   000012 235000 3                  LDA     10
         2 000440   200036 236100                    LDQ     GLOBAL_PTRS+22,,AUTO
         2 000441   000022 757100                    STAQ    18,,PR0
PL6.E3A0      #001=QXA$INIT File=QXA$INIT.:E05TSI                                WED 07/30/97 05:52 Page:60

      480     8291
      481     8292    1           P$ = PINCRW(P$, SIZEW(FPT$FID));

   8292  2 000442   200066 236100                    LDQ     P$,,AUTO
         2 000443   000030 036003                    ADLQ    24,DU
         2 000444   200066 756100                    STQ     P$,,AUTO

      482     8293    1           GLOBAL_PTRS.FPT$OPEN_FILE$ = P$;

   8293  2 000445   200047 756100                    STQ     GLOBAL_PTRS+31,,AUTO

      483     8294    1           FPT$OPEN_FILE = FPT_OPEN_FILE;

   8294  2 000446   200047 470500                    LDP0    GLOBAL_PTRS+31,,AUTO
         2 000447   000100 100400                    MLR     fill='000'O
         2 000450   000172 000350 1                  ADSC9   FPT_OPEN_FILE            cn=0,n=232
         2 000451   000000 000350                    ADSC9   0,,PR0                   cn=0,n=232

      484     8295    1           FPT$OPEN_FILE.V_ = VECTOR(FPT$OPEN_FILE.V);

   8295  2 000452   000013 235000 3                  LDA     11
         2 000453   000044 036003                    ADLQ    36,DU
         2 000454   000000 757100                    STAQ    0,,PR0

      485     8296    1           FPT$OPEN_FILE.SN_ = VECTOR(VLP$SN);

   8296  2 000455   000010 235000 3                  LDA     8
         2 000456   200013 236100                    LDQ     GLOBAL_PTRS+3,,AUTO
         2 000457   000002 757100                    STAQ    2,,PR0

      486     8297    1           FPT$OPEN_FILE.NAME_ = VECTOR(VLP$NAME);

   8297  2 000460   000007 235000 3                  LDA     7
         2 000461   200010 236100                    LDQ     GLOBAL_PTRS,,AUTO
         2 000462   000006 757100                    STAQ    6,,PR0

PL6.E3A0      #001=QXA$INIT File=QXA$INIT.:E05TSI                                WED 07/30/97 05:52 Page:61
      487     8298    1           FPT$OPEN_FILE.ACCT_ = VECTOR(VLP$ACCT);

   8298  2 000463   000000 235000 3                  LDA     0
         2 000464   200011 236100                    LDQ     GLOBAL_PTRS+1,,AUTO
         2 000465   000024 757100                    STAQ    20,,PR0

      488     8299    1           FPT$OPEN_FILE.V.DCB# = 5 /* M$IBEX# */;

   8299  2 000466   000044 741100                    STX1    36,,PR0

      489     8300
      490     8301    1           P$ = PINCRW(P$, SIZEW(FPT$OPEN_FILE));

   8301  2 000467   200066 236100                    LDQ     P$,,AUTO
         2 000470   000072 036003                    ADLQ    58,DU
         2 000471   200066 756100                    STQ     P$,,AUTO

      491     8302    1           GLOBAL_PTRS.FPT$DELREC$ = P$;

   8302  2 000472   200050 756100                    STQ     GLOBAL_PTRS+32,,AUTO

      492     8303    1           FPT$DELREC = FPT_DELREC;

   8303  2 000473   200050 470500                    LDP0    GLOBAL_PTRS+32,,AUTO
         2 000474   000100 100400                    MLR     fill='000'O
         2 000475   000264 000050 1                  ADSC9   FPT_DELREC               cn=0,n=40
         2 000476   000000 000050                    ADSC9   0,,PR0                   cn=0,n=40

      493     8304    1           FPT$DELREC.V_ = VECTOR(FPT$DELREC.V);

   8304  2 000477   000000 235000 3                  LDA     0
         2 000500   000010 036003                    ADLQ    8,DU
         2 000501   000000 757100                    STAQ    0,,PR0

      494     8305    1           FPT$DELREC.KEY_ = VECTOR(VLP$KEY);

   8305  2 000502   000007 235000 3                  LDA     7
PL6.E3A0      #001=QXA$INIT File=QXA$INIT.:E05TSI                                WED 07/30/97 05:52 Page:62
         2 000503   200015 236100                    LDQ     GLOBAL_PTRS+5,,AUTO
         2 000504   000002 757100                    STAQ    2,,PR0

      495     8306    1           FPT$DELREC.LKEY_ = VECTOR(VLP$LKEY);

   8306  2 000505   000000 235000 3                  LDA     0
         2 000506   200017 236100                    LDQ     GLOBAL_PTRS+7,,AUTO
         2 000507   000004 757100                    STAQ    4,,PR0

      496     8307    1           FPT$DELREC.V.DCB# = 5 /* M$IBEX# */;

   8307  2 000510   000010 741100                    STX1    8,,PR0

      497     8308
      498     8309    1           P$ = PINCRW(P$, SIZEW(FPT$DELREC));

   8309  2 000511   200066 236100                    LDQ     P$,,AUTO
         2 000512   000012 036003                    ADLQ    10,DU
         2 000513   200066 756100                    STQ     P$,,AUTO

      499     8310    1           GLOBAL_PTRS.FPT$CLOSE$ = P$;

   8310  2 000514   200051 756100                    STQ     GLOBAL_PTRS+33,,AUTO

      500     8311    1           FPT$CLOSE = FPT_CLOSE;

   8311  2 000515   200051 470500                    LDP0    GLOBAL_PTRS+33,,AUTO
         2 000516   000100 100400                    MLR     fill='000'O
         2 000517   000276 000170 1                  ADSC9   FPT_CLOSE                cn=0,n=120
         2 000520   000000 000170                    ADSC9   0,,PR0                   cn=0,n=120

      501     8312    1           FPT$CLOSE.V_ = VECTOR(FPT$CLOSE.V);

   8312  2 000521   000010 235000 3                  LDA     8
         2 000522   000032 036003                    ADLQ    26,DU
         2 000523   000000 757100                    STAQ    0,,PR0

PL6.E3A0      #001=QXA$INIT File=QXA$INIT.:E05TSI                                WED 07/30/97 05:52 Page:63
      502     8313    1           FPT$CLOSE.V.DCB# = 5 /* M$IBEX# */;

   8313  2 000524   000032 741100                    STX1    26,,PR0

      503     8314
      504     8315    1           P$ = PINCRW(P$, SIZEW(FPT$CLOSE));

   8315  2 000525   200066 236100                    LDQ     P$,,AUTO
         2 000526   000036 036003                    ADLQ    30,DU
         2 000527   200066 756100                    STQ     P$,,AUTO

      505     8316    1           GLOBAL_PTRS.FPT$UNLATCH$ = P$;

   8316  2 000530   200052 756100                    STQ     GLOBAL_PTRS+34,,AUTO

      506     8317    1           FPT$UNLATCH = FPT_UNLATCH;

   8317  2 000531   200052 470500                    LDP0    GLOBAL_PTRS+34,,AUTO
         2 000532   000100 100400                    MLR     fill='000'O
         2 000533   000334 000050 1                  ADSC9   FPT_UNLATCH              cn=0,n=40
         2 000534   000000 000050                    ADSC9   0,,PR0                   cn=0,n=40

      507     8318    1           FPT$UNLATCH.V_ = VECTOR(FPT$UNLATCH.V);

   8318  2 000535   000010 235000 3                  LDA     8
         2 000536   000006 036003                    ADLQ    6,DU
         2 000537   000000 757100                    STAQ    0,,PR0

      508     8319
      509     8320    1           P$ = PINCRW(P$, SIZEW(FPT$UNLATCH));

   8320  2 000540   200066 236100                    LDQ     P$,,AUTO
         2 000541   000012 036003                    ADLQ    10,DU
         2 000542   200066 756100                    STQ     P$,,AUTO

      510     8321    1           GLOBAL_PTRS.FPT$READ_CG$ = P$;

PL6.E3A0      #001=QXA$INIT File=QXA$INIT.:E05TSI                                WED 07/30/97 05:52 Page:64
   8321  2 000543   200053 756100                    STQ     GLOBAL_PTRS+35,,AUTO

      511     8322    1           FPT$READ_CG = FPT_READ_CG;

   8322  2 000544   200053 470500                    LDP0    GLOBAL_PTRS+35,,AUTO
         2 000545   000100 100400                    MLR     fill='000'O
         2 000546   000346 000070 1                  ADSC9   FPT_READ_CG              cn=0,n=56
         2 000547   000000 000070                    ADSC9   0,,PR0                   cn=0,n=56

      512     8323    1           FPT$READ_CG.V_ = VECTOR(FPT$READ_CG.V);

   8323  2 000550   000006 235000 3                  LDA     6
         2 000551   000010 036003                    ADLQ    8,DU
         2 000552   000000 757100                    STAQ    0,,PR0

      513     8324    1           FPT$READ_CG.STATION_ = VECTOR(VLP$STATION);

   8324  2 000553   000007 235000 3                  LDA     7
         2 000554   200031 236100                    LDQ     GLOBAL_PTRS+17,,AUTO
         2 000555   000006 757100                    STAQ    6,,PR0

      514     8325
      515     8326    1           P$ = PINCRW(P$, SIZEW(FPT$READ_CG));

   8326  2 000556   200066 236100                    LDQ     P$,,AUTO
         2 000557   000016 036003                    ADLQ    14,DU
         2 000560   200066 756100                    STQ     P$,,AUTO

      516     8327    1           GLOBAL_PTRS.FPT$WRITE_CG$ = P$;

   8327  2 000561   200054 756100                    STQ     GLOBAL_PTRS+36,,AUTO

      517     8328    1           FPT$WRITE_CG = FPT_WRITE_CG;

   8328  2 000562   200054 470500                    LDP0    GLOBAL_PTRS+36,,AUTO
         2 000563   000100 100400                    MLR     fill='000'O
         2 000564   000364 000060 1                  ADSC9   FPT_WRITE_CG             cn=0,n=48
PL6.E3A0      #001=QXA$INIT File=QXA$INIT.:E05TSI                                WED 07/30/97 05:52 Page:65
         2 000565   000000 000060                    ADSC9   0,,PR0                   cn=0,n=48

      518     8329    1           FPT$WRITE_CG.V_ = VECTOR(FPT$WRITE_CG.V);

   8329  2 000566   000010 235000 3                  LDA     8
         2 000567   000010 036003                    ADLQ    8,DU
         2 000570   000000 757100                    STAQ    0,,PR0

      519     8330    1           FPT$WRITE_CG.STATION_ = VECTOR(VLP$STATION);

   8330  2 000571   000007 235000 3                  LDA     7
         2 000572   200031 236100                    LDQ     GLOBAL_PTRS+17,,AUTO
         2 000573   000006 757100                    STAQ    6,,PR0

      520     8331
      521     8332    1           P$ = PINCRW(P$, SIZEW(FPT$WRITE_CG));

   8332  2 000574   200066 236100                    LDQ     P$,,AUTO
         2 000575   000014 036003                    ADLQ    12,DU
         2 000576   200066 756100                    STQ     P$,,AUTO

      522     8333    1           GLOBAL_PTRS.FPT$ERRMSG$ = P$;

   8333  2 000577   200055 756100                    STQ     GLOBAL_PTRS+37,,AUTO

      523     8334    1           FPT$ERRMSG = FPT_ERRMSG;

   8334  2 000600   200055 470500                    LDP0    GLOBAL_PTRS+37,,AUTO
         2 000601   000100 100400                    MLR     fill='000'O
         2 000602   000400 000150 1                  ADSC9   FPT_ERRMSG               cn=0,n=104
         2 000603   000000 000150                    ADSC9   0,,PR0                   cn=0,n=104

      524     8335    1           FPT$ERRMSG.V_ = VECTOR(FPT$ERRMSG.V);

   8335  2 000604   000010 235000 3                  LDA     8
         2 000605   000026 036003                    ADLQ    22,DU
         2 000606   000000 757100                    STAQ    0,,PR0
PL6.E3A0      #001=QXA$INIT File=QXA$INIT.:E05TSI                                WED 07/30/97 05:52 Page:66

      525     8336    1           FPT$ERRMSG.RESULTS_ = VECTOR(VLR$ERRMSG);

   8336  2 000607   000010 235000 3                  LDA     8
         2 000610   200037 236100                    LDQ     GLOBAL_PTRS+23,,AUTO
         2 000611   000022 757100                    STAQ    18,,PR0

      526     8337
      527     8338    1           P$ = PINCRW(P$, SIZEW(FPT$ERRMSG));

   8338  2 000612   200066 236100                    LDQ     P$,,AUTO
         2 000613   000032 036003                    ADLQ    26,DU
         2 000614   200066 756100                    STQ     P$,,AUTO

      528     8339    1           GLOBAL_PTRS.FPT$OPEN_CG$ = P$;

   8339  2 000615   200056 756100                    STQ     GLOBAL_PTRS+38,,AUTO

      529     8340    1           FPT$OPEN_CG = FPT_OPEN_CG;

   8340  2 000616   200056 470500                    LDP0    GLOBAL_PTRS+38,,AUTO
         2 000617   000100 100400                    MLR     fill='000'O
         2 000620   000432 000350 1                  ADSC9   FPT_OPEN_CG              cn=0,n=232
         2 000621   000000 000350                    ADSC9   0,,PR0                   cn=0,n=232

      530     8341    1           FPT$OPEN_CG.V_ = VECTOR(FPT$OPEN_CG.V);

   8341  2 000622   000013 235000 3                  LDA     11
         2 000623   000044 036003                    ADLQ    36,DU
         2 000624   000000 757100                    STAQ    0,,PR0

      531     8342    1           FPT$OPEN_CG.SETSTA_ = VECTOR(VLP$SETSTA);

   8342  2 000625   000014 235000 3                  LDA     12
         2 000626   200032 236100                    LDQ     GLOBAL_PTRS+18,,AUTO
         2 000627   000004 757100                    STAQ    4,,PR0

PL6.E3A0      #001=QXA$INIT File=QXA$INIT.:E05TSI                                WED 07/30/97 05:52 Page:67
      532     8343
      533     8344    1           P$ = PINCRW(P$, SIZEW(FPT$OPEN_CG));

   8344  2 000630   200066 236100                    LDQ     P$,,AUTO
         2 000631   000072 036003                    ADLQ    58,DU
         2 000632   200066 756100                    STQ     P$,,AUTO

      534     8345    1           GLOBAL_PTRS.FPT$OCMSG$ = P$;

   8345  2 000633   200057 756100                    STQ     GLOBAL_PTRS+39,,AUTO

      535     8346    1           FPT$OCMSG = FPT_OCMSG;

   8346  2 000634   200057 470500                    LDP0    GLOBAL_PTRS+39,,AUTO
         2 000635   000100 100400                    MLR     fill='000'O
         2 000636   000524 000050 1                  ADSC9   FPT_OCMSG                cn=0,n=40
         2 000637   000000 000050                    ADSC9   0,,PR0                   cn=0,n=40

      536     8347    1           FPT$OCMSG.V_ = VECTOR(FPT$OCMSG.V);

   8347  2 000640   000010 235000 3                  LDA     8
         2 000641   000006 036003                    ADLQ    6,DU
         2 000642   000000 757100                    STAQ    0,,PR0

      537     8348
      538     8349    1           P$ = PINCRW(P$, SIZEW(FPT$OCMSG));

   8349  2 000643   200066 236100                    LDQ     P$,,AUTO
         2 000644   000012 036003                    ADLQ    10,DU
         2 000645   200066 756100                    STQ     P$,,AUTO

      539     8350    1           GLOBAL_PTRS.FPT$TIME$ = P$;

   8350  2 000646   200060 756100                    STQ     GLOBAL_PTRS+40,,AUTO

      540     8351    1           FPT$TIME = FPT_TIME;

PL6.E3A0      #001=QXA$INIT File=QXA$INIT.:E05TSI                                WED 07/30/97 05:52 Page:68
   8351  2 000647   200060 470500                    LDP0    GLOBAL_PTRS+40,,AUTO
         2 000650   000100 100400                    MLR     fill='000'O
         2 000651   000536 000060 1                  ADSC9   FPT_TIME                 cn=0,n=48
         2 000652   000000 000060                    ADSC9   0,,PR0                   cn=0,n=48

      541     8352    1           FPT$TIME.V_ = VECTOR(FPT$TIME.V);

   8352  2 000653   000000 235000 3                  LDA     0
         2 000654   000012 036003                    ADLQ    10,DU
         2 000655   000000 757100                    STAQ    0,,PR0

      542     8353    1           FPT$TIME.TIME_ = VECTOR(VLP$TIME);

   8353  2 000656   000010 235000 3                  LDA     8
         2 000657   200035 236100                    LDQ     GLOBAL_PTRS+21,,AUTO
         2 000660   000004 757100                    STAQ    4,,PR0

      543     8354
      544     8355    1           P$ = PINCRW(P$, SIZEW(FPT$TIME));

   8355  2 000661   200066 236100                    LDQ     P$,,AUTO
         2 000662   000014 036003                    ADLQ    12,DU
         2 000663   200066 756100                    STQ     P$,,AUTO

      545     8356    1           GLOBAL_PTRS.FPT$KEYIN$ = P$;

   8356  2 000664   200061 756100                    STQ     GLOBAL_PTRS+41,,AUTO

      546     8357    1           FPT$KEYIN = FPT_KEYIN;

   8357  2 000665   200061 470500                    LDP0    GLOBAL_PTRS+41,,AUTO
         2 000666   000100 100400                    MLR     fill='000'O
         2 000667   000552 000070 1                  ADSC9   FPT_KEYIN                cn=0,n=56
         2 000670   000000 000070                    ADSC9   0,,PR0                   cn=0,n=56

      547     8358    1           FPT$KEYIN.V_ = VECTOR(FPT$KEYIN.V);

PL6.E3A0      #001=QXA$INIT File=QXA$INIT.:E05TSI                                WED 07/30/97 05:52 Page:69
   8358  2 000671   000006 235000 3                  LDA     6
         2 000672   000010 036003                    ADLQ    8,DU
         2 000673   000000 757100                    STAQ    0,,PR0

      548     8359    1           P$ = PINCRW(P$, SIZEW(FPT$KEYIN));

   8359  2 000674   200066 236100                    LDQ     P$,,AUTO
         2 000675   000016 036003                    ADLQ    14,DU
         2 000676   200066 756100                    STQ     P$,,AUTO

      549     8360    1           FPT$KEYIN.MESS_.BOUND = 91;

   8360  2 000677   000002 236100                    LDQ     2,,PR0
         2 000700   177777 376007                    ANQ     65535,DL
         2 000701   000015 276000 3                  ORQ     13
         2 000702   000002 756100                    STQ     2,,PR0

      550     8361    1           FPT$KEYIN.MESS_.BUF$ = P$;

   8361  2 000703   200066 236100                    LDQ     P$,,AUTO
         2 000704   000003 756100                    STQ     3,,PR0

      551     8362    1           P$->BUFFER.MSG1 = ERRMSG;

   8362  2 000705   200066 470500                    LDP0    P$,,AUTO
         2 000706   040100 100400                    MLR     fill='040'O
         2 000707   000007 000030 1                  ADSC9   ERRMSG                   cn=0,n=24
         2 000710   000000 000030                    ADSC9   0,,PR0                   cn=0,n=24

      552     8363
      553     8364    1           P$ = PINCRW(P$, SIZEW(BUFFER.MSG1));

   8364  2 000711   000006 036003                    ADLQ    6,DU
         2 000712   200066 756100                    STQ     P$,,AUTO

      554     8365    1           GLOBAL_PTRS.BUFFER$ = P$;

PL6.E3A0      #001=QXA$INIT File=QXA$INIT.:E05TSI                                WED 07/30/97 05:52 Page:70
   8365  2 000713   200062 756100                    STQ     GLOBAL_PTRS+42,,AUTO

      555     8366
      556     8367    1           P$ = PALIGND(PINCRW(P$, SIZEW(BUFFER.MSG2)));

   8367  2 000714   000041 036003                    ADLQ    33,DU
         2 000715   000016 036000 3                  ADLQ    14
         2 000716   000017 376000 3                  ANQ     15
         2 000717   200066 756100                    STQ     P$,,AUTO

      557     8368    1           GLOBAL_PTRS.XUG$GETCMD$ = P$;

   8368  2 000720   200063 756100                    STQ     GLOBAL_PTRS+43,,AUTO

      558     8369    1           XUG$GETCMD = XUG_GETCMD;

   8369  2 000721   200063 470500                    LDP0    GLOBAL_PTRS+43,,AUTO
         2 000722   000100 100400                    MLR     fill='000'O
         2 000723   000570 000250 1                  ADSC9   XUG_GETCMD               cn=0,n=168
         2 000724   000000 000250                    ADSC9   0,,PR0                   cn=0,n=168

      559     8370
      560     8371    1           P$ = PINCRW(P$, SIZEW(XUG$GETCMD));

   8371  2 000725   000052 036003                    ADLQ    42,DU
         2 000726   200066 756100                    STQ     P$,,AUTO

      561     8372    1           GLOBAL_PTRS.QX$GLOBAL$ = P$;

   8372  2 000727   200064 756100                    STQ     GLOBAL_PTRS+44,,AUTO

      562     8373    1           QX$GLOBAL.SETS = '0'B;

   8373  2 000730   200064 470500                    LDP0    GLOBAL_PTRS+44,,AUTO
         2 000731   000000 450100                    STZ     0,,PR0

      563     8374    1           QX$GLOBAL.SETSTA_LOCKED = '0'B;
PL6.E3A0      #001=QXA$INIT File=QXA$INIT.:E05TSI                                WED 07/30/97 05:52 Page:71

   8374  2 000732   000001 450100                    STZ     1,,PR0

      564     8375    1           QX$GLOBAL.EXITING = '0'B;

   8375  2 000733   000003 450100                    STZ     3,,PR0

      565     8376    1           QX$GLOBAL.PERM = '0'B;

   8376  2 000734   000005 450100                    STZ     5,,PR0

      566     8377    1           QX$GLOBAL.SEMIPERM = '0'B;

   8377  2 000735   000004 450100                    STZ     4,,PR0

      567     8378    1           QX$GLOBAL.NOW = '0'B;

   8378  2 000736   000006 450100                    STZ     6,,PR0

      568     8379
      569     8380        %EJECT;
PL6.E3A0      #001=QXA$INIT File=QXA$INIT.:E05TSI                                WED 07/30/97 05:52 Page:72
      570     8381    1           GLOBAL$PTRS = GLOBAL_PTRS;

   8381  2 000737   000000 470400 xsym               LDP0    QX_GLOBAL
         2 000740   000100 100500                    MLR     fill='000'O
         2 000741   200010 000264                    ADSC9   GLOBAL_PTRS,,AUTO        cn=0,n=180
         2 000742   000000 000264                    ADSC9   0,,PR0                   cn=0,n=180

      571     8382
      572     8383    1           B$JIT.CPFLAGS1 = B$JIT.CPFLAGS1 & ~'000000200000'O /* CP_INITIALIZE# */;

   8383  2 000743   000645 236000 1                  LDQ     XUG_GETCMD+45
         2 000744   000027 676000 xsym               ERQ     B_VECTNIL+23
         2 000745   000000 470400 xsym               LDP0    B$JIT$
         2 000746   000143 376100                    ANQ     99,,PR0
         2 000747   000143 756100                    STQ     99,,PR0

      573     8384    1           B$JIT.CPFLAGS1 = B$JIT.CPFLAGS1 | '000000010000'O /* CP_KEEPDS# */;

   8384  2 000750   000646 276000 1                  ORQ     XUG_GETCMD+46
         2 000751   000143 756100                    STQ     99,,PR0

      574     8385    1           B$JIT.PRIV.ACTIVE = B$JIT.PRIV.AUTH;

   8385  2 000752   000014 236100                    LDQ     12,,PR0
         2 000753   000013 756100                    STQ     11,,PR0

      575     8386
      576     8387    1           CCBUF$ = ADDR(B$JIT.CCBUF);

   8387  2 000754   000000 236000 xsym               LDQ     B$JIT$
         2 000755   000033 036003                    ADLQ    27,DU
         2 000756   200071 756100                    STQ     CCBUF$,,AUTO

      577     8388    1           POS = B$JIT.CCDISP + 1;

   8388  2 000757   000032 236100                    LDQ     26,,PR0
         2 000760   000022 736000                    QLS     18
PL6.E3A0      #001=QXA$INIT File=QXA$INIT.:E05TSI                                WED 07/30/97 05:52 Page:73
         2 000761   000022 732000                    QRS     18
         2 000762   000001 036007                    ADLQ    1,DL
         2 000763   200005 756100                    STQ     POS,,AUTO

      578     8389    1           CHAR_STRING_SIZE = PINCRC(CCBUF$, POS) -> BYTTE;

   8389  2 000764   000011 402007                    MPY     9,DL
         2 000765   200071 470500                    LDP0    CCBUF$,,AUTO
         2 000766   003100 060506                    CSL     bolr='003'O
         2 000767   000000 000011                    BDSC    0,Q,PR0                  by=0,bit=0,n=9
         2 000770   200104 000044                    BDSC    VLP_VECTOR_AUTO+2,,AUTO  by=0,bit=0,n=36
         2 000771   200104 236100                    LDQ     VLP_VECTOR_AUTO+2,,AUTO
         2 000772   000033 732000                    QRS     27
         2 000773   200003 756100                    STQ     CHAR_STRING_SIZE,,AUTO

      579     8390    1           VLP$FID.L# = CHAR_STRING_SIZE;

   8390  2 000774   200030 470500                    LDP0    GLOBAL_PTRS+16,,AUTO
         2 000775   000033 736000                    QLS     27
         2 000776   000000 552140                    STBQ    0,'40'O,PR0

      580     8391    1           VLP$FID.NAME# = PINCRC(CCBUF$, POS + 1) -> CHAR$STRING;

   8391  2 000777   200071 470500                    LDP0    CCBUF$,,AUTO
         2 001000   200003 722100                    LXL2    CHAR_STRING_SIZE,,AUTO
         2 001001   200005 235100                    LDA     POS,,AUTO
         2 001002   200030 471500                    LDP1    GLOBAL_PTRS+16,,AUTO
         2 001003   040100 100545                    MLR     fill='040'O
         2 001004   000000 200012                    ADSC9   0,A,PR0                  cn=1,n=*X2
         2 001005   100000 200143                    ADSC9   0,,PR1                   cn=1,n=99

      581     8392    1           CALL M$FID(FPT$FID) ALTRET(MON_ERR);

   8392  2 001006   200046 470500                    LDP0    GLOBAL_PTRS+30,,AUTO
         2 001007   420001 713400                    CLIMB   alt,+8193
         2 001010   404400 401760                    pmme    nvectors=10
         2 001011   001205 702000 2                  TSX2    MON_ERR
PL6.E3A0      #001=QXA$INIT File=QXA$INIT.:E05TSI                                WED 07/30/97 05:52 Page:74

      582     8393    1           VLP$NAME_TRADER = VLP$NAME;

   8393  2 001012   200010 470500                    LDP0    GLOBAL_PTRS,,AUTO
         2 001013   200022 471500                    LDP1    GLOBAL_PTRS+10,,AUTO
         2 001014   000100 100500                    MLR     fill='000'O
         2 001015   000000 000040                    ADSC9   0,,PR0                   cn=0,n=32
         2 001016   100000 000040                    ADSC9   0,,PR1                   cn=0,n=32

      583     8394    1           VLP$ACCT_TRADER = VLP$ACCT;

   8394  2 001017   200011 473500                    LDP3    GLOBAL_PTRS+1,,AUTO
         2 001020   300000 237100                    LDAQ    0,,PR3
         2 001021   200023 474500                    LDP4    GLOBAL_PTRS+11,,AUTO
         2 001022   400000 757100                    STAQ    0,,PR4

      584     8395    1           VLP$SN_TRADER = VLP$SN;

   8395  2 001023   200013 475500                    LDP5    GLOBAL_PTRS+3,,AUTO
         2 001024   200026 476500                    LDP6    GLOBAL_PTRS+14,,AUTO
         2 001025   000100 100500                    MLR     fill='000'O
         2 001026   500000 000012                    ADSC9   0,,PR5                   cn=0,n=10
         2 001027   600000 000012                    ADSC9   0,,PR6                   cn=0,n=10

      585     8396    1           POS = POS + CHAR_STRING_SIZE + 1;

   8396  2 001030   200005 236100                    LDQ     POS,,AUTO
         2 001031   200003 036100                    ADLQ    CHAR_STRING_SIZE,,AUTO
         2 001032   000001 036007                    ADLQ    1,DL
         2 001033   200005 756100                    STQ     POS,,AUTO

      586     8397    1           CHAR_STRING_SIZE = SIZEC(VLP$CODE07_PASS_TRADER.PASS);

   8397  2 001034   000010 235007                    LDA     8,DL
         2 001035   200003 755100                    STA     CHAR_STRING_SIZE,,AUTO

      587     8398    1           VLP$CODE07_PASS_TRADER.PASS = PINCRC(CCBUF$, POS) -> CHAR$STRING;
PL6.E3A0      #001=QXA$INIT File=QXA$INIT.:E05TSI                                WED 07/30/97 05:52 Page:75

   8398  2 001036   200071 477500                    LDP7    CCBUF$,,AUTO
         2 001037   000000 620005                    EAX0    0,AL
         2 001040   200025 470500                    LDP0    GLOBAL_PTRS+13,,AUTO
         2 001041   040100 100546                    MLR     fill='040'O
         2 001042   700000 000010                    ADSC9   0,Q,PR7                  cn=0,n=*X0
         2 001043   000000 000010                    ADSC9   0,,PR0                   cn=0,n=8

      588     8399
      589     8400    1           POS = POS + SIZEC(VLP$CODE07_PASS_TRADER.PASS);

   8400  2 001044   000010 036007                    ADLQ    8,DL
         2 001045   200005 756100                    STQ     POS,,AUTO

      590     8401    1           IF PINCRC(CCBUF$, POS) -> BYTTE = -1 THEN

   8401  2 001046   000011 402007                    MPY     9,DL
         2 001047   003100 060506                    CSL     bolr='003'O
         2 001050   700000 000011                    BDSC    0,Q,PR7                  by=0,bit=0,n=9
         2 001051   200104 000044                    BDSC    VLP_VECTOR_AUTO+2,,AUTO  by=0,bit=0,n=36
         2 001052   200104 236100                    LDQ     VLP_VECTOR_AUTO+2,,AUTO
         2 001053   000033 732000                    QRS     27
         2 001054   000027 116000 xsym               CMPQ    B_VECTNIL+23
         2 001055   001062 601000 2                  TNZ     s:8406

      591     8402    2             DO;

      592     8403    2               B$JIT.CPFLAGS1 = B$JIT.CPFLAGS1 | '000000000400'O /* CP_STEPACCT# */;

   8403  2 001056   000000 470400 xsym               LDP0    B$JIT$
         2 001057   000143 236100                    LDQ     99,,PR0
         2 001060   000647 276000 1                  ORQ     XUG_GETCMD+47
         2 001061   000143 756100                    STQ     99,,PR0

      593     8404    2             END;

      594     8405
PL6.E3A0      #001=QXA$INIT File=QXA$INIT.:E05TSI                                WED 07/30/97 05:52 Page:76
      595     8406    1           POS = POS + 1;

   8406  2 001062   200005 235100                    LDA     POS,,AUTO
         2 001063   000001 035007                    ADLA    1,DL
         2 001064   200005 755100                    STA     POS,,AUTO

      596     8407    1           IF PINCRC(CCBUF$, POS) -> BYTTE = -1 THEN

   8407  2 001065   200005 236100                    LDQ     POS,,AUTO
         2 001066   000011 402007                    MPY     9,DL
         2 001067   003100 060506                    CSL     bolr='003'O
         2 001070   700000 000011                    BDSC    0,Q,PR7                  by=0,bit=0,n=9
         2 001071   200104 000044                    BDSC    VLP_VECTOR_AUTO+2,,AUTO  by=0,bit=0,n=36
         2 001072   200104 236100                    LDQ     VLP_VECTOR_AUTO+2,,AUTO
         2 001073   000033 732000                    QRS     27
         2 001074   000027 116000 xsym               CMPQ    B_VECTNIL+23
         2 001075   001102 601000 2                  TNZ     s:8412

      597     8408    2             DO;

      598     8409    2               B$JIT.CPFLAGS1 = B$JIT.CPFLAGS1 | '000000400000'O /* CP_TESTMODE# */;

   8409  2 001076   000000 470400 xsym               LDP0    B$JIT$
         2 001077   000143 236100                    LDQ     99,,PR0
         2 001100   000650 276000 1                  ORQ     XUG_GETCMD+48
         2 001101   000143 756100                    STQ     99,,PR0

      599     8410    2             END;

      600     8411
      601     8412    1           POS = POS + 1;

   8412  2 001102   200005 235100                    LDA     POS,,AUTO
         2 001103   000001 035007                    ADLA    1,DL
         2 001104   200005 755100                    STA     POS,,AUTO

      602     8413    1           CHAR_STRING_SIZE = SIZEC(VLP$MSGTYP.NAME#);
PL6.E3A0      #001=QXA$INIT File=QXA$INIT.:E05TSI                                WED 07/30/97 05:52 Page:77

   8413  2 001105   000010 236007                    LDQ     8,DL
         2 001106   200003 756100                    STQ     CHAR_STRING_SIZE,,AUTO

      603     8414    1           VLP$MSGTYP.NAME# = PINCRC(CCBUF$, POS) -> CHAR$STRING;

   8414  2 001107   000000 620006                    EAX0    0,QL
         2 001110   200021 470500                    LDP0    GLOBAL_PTRS+9,,AUTO
         2 001111   040100 100545                    MLR     fill='040'O
         2 001112   700000 000010                    ADSC9   0,A,PR7                  cn=0,n=*X0
         2 001113   000000 200010                    ADSC9   0,,PR0                   cn=1,n=8

      604     8415
      605     8416    1           POS = POS + 8;

   8416  2 001114   000010 035007                    ADLA    8,DL
         2 001115   200005 755100                    STA     POS,,AUTO

      606     8417    1           IF PINCRC(CCBUF$, POS) -> BYTTE = -1 THEN

   8417  2 001116   200005 236100                    LDQ     POS,,AUTO
         2 001117   000011 402007                    MPY     9,DL
         2 001120   003100 060506                    CSL     bolr='003'O
         2 001121   700000 000011                    BDSC    0,Q,PR7                  by=0,bit=0,n=9
         2 001122   200104 000044                    BDSC    VLP_VECTOR_AUTO+2,,AUTO  by=0,bit=0,n=36
         2 001123   200104 236100                    LDQ     VLP_VECTOR_AUTO+2,,AUTO
         2 001124   000033 732000                    QRS     27
         2 001125   000027 116000 xsym               CMPQ    B_VECTNIL+23
         2 001126   001132 601000 2                  TNZ     s:8422

      607     8418    2             DO;

      608     8419    2               QX$GLOBAL.NOW = '1'B;

   8419  2 001127   400000 236003                    LDQ     -131072,DU
         2 001130   200064 470500                    LDP0    GLOBAL_PTRS+44,,AUTO
         2 001131   000006 756100                    STQ     6,,PR0
PL6.E3A0      #001=QXA$INIT File=QXA$INIT.:E05TSI                                WED 07/30/97 05:52 Page:78

      609     8420    2             END;

      610     8421
      611     8422    1           POS = POS + 1;                  /*  get TIMEOUT info (in minutes)     */

   8422  2 001132   200005 235100                    LDA     POS,,AUTO
         2 001133   000001 035007                    ADLA    1,DL
         2 001134   200005 755100                    STA     POS,,AUTO

      612     8423    1           QX$GLOBAL.TIMEOUT = PINCRC(CCBUF$, POS) -> WORRD;

   8423  2 001135   200005 236100                    LDQ     POS,,AUTO
         2 001136   000011 402007                    MPY     9,DL
         2 001137   200064 470500                    LDP0    GLOBAL_PTRS+44,,AUTO
         2 001140   003100 060506                    CSL     bolr='003'O
         2 001141   700000 000044                    BDSC    0,Q,PR7                  by=0,bit=0,n=36
         2 001142   000007 000044                    BDSC    7,,PR0                   by=0,bit=0,n=36

      613     8424
      614     8425    1           CALL INDEX(POS, '?', VLP$MSGTYP.NAME#) ALTRET(PERM);

   8425  2 001143   200021 470500                    LDP0    GLOBAL_PTRS+9,,AUTO
         2 001144   000000 124500                    SCM     mask='000'O
         2 001145   000000 200010                    ADSC9   0,,PR0                   cn=1,n=8
         2 001146   000020 000001 3                  ADSC9   16                       cn=0,n=1
         2 001147   200005 000100                    ARG     POS,,AUTO
         2 001150   001155 606400 2                  TTN     PERM

      615     8426
      616     8427    1           QX$GLOBAL.SEMIPERM = '1'B;

   8427  2 001151   400000 236003                    LDQ     -131072,DU
         2 001152   200064 470500                    LDP0    GLOBAL_PTRS+44,,AUTO
         2 001153   000004 756100                    STQ     4,,PR0

      617     8428
PL6.E3A0      #001=QXA$INIT File=QXA$INIT.:E05TSI                                WED 07/30/97 05:52 Page:79
      618     8429    2           DO WHILE('0'B);

   8429  2 001154   001160 710000 2                  TRA     s:8436

      619     8430
      620     8431    2   PERM:
      621     8432    2             QX$GLOBAL.PERM = '1'B;

   8432  2 001155   400000 236003       PERM         LDQ     -131072,DU
         2 001156   200064 470500                    LDP0    GLOBAL_PTRS+44,,AUTO
         2 001157   000005 756100                    STQ     5,,PR0

      622     8433    2           END /* NEVER */;

      623     8434
      624     8435
      625     8436    1           B$JIT.CCBUF = ' ';

   8436  2 001160   000000 471400 xsym               LDP1    B$JIT$
         2 001161   040100 100400                    MLR     fill='040'O
         2 001162   000035 000001 xsym               ADSC9   B_VECTNIL+29             cn=0,n=1
         2 001163   100033 000400                    ADSC9   27,,PR1                  cn=0,n=256

      626     8437    1           B$JIT.CCARS = 0;

   8437  2 001164   000000 220003                    LDX0    0,DU
         2 001165   100032 740100                    STX0    26,,PR1

      627     8438
      628     8439    1           VLP$GDS.PTR$ = QX_GLOBAL.QT$ENTRY$;

   8439  2 001166   000001 236000 xsym               LDQ     QX_GLOBAL+1
         2 001167   200033 473500                    LDP3    GLOBAL_PTRS+19,,AUTO
         2 001170   300001 756100                    STQ     1,,PR3

      629     8440    1           CALL M$GDS(FPT$GDS) ALTRET(MON_ERR);

PL6.E3A0      #001=QXA$INIT File=QXA$INIT.:E05TSI                                WED 07/30/97 05:52 Page:80
   8440  2 001171   200045 470500                    LDP0    GLOBAL_PTRS+29,,AUTO
         2 001172   430001 713400                    CLIMB   alt,gds
         2 001173   400400 401760                    pmme    nvectors=2
         2 001174   001205 702000 2                  TSX2    MON_ERR

      630     8441
      631     8442    1           CHAR_STRING_SIZE = 4096;

   8442  2 001175   010000 235007                    LDA     4096,DL
         2 001176   200003 755100                    STA     CHAR_STRING_SIZE,,AUTO

      632     8443    1           FPT$READ_KEY.BUF_ = VECTOR(QX_GLOBAL.QT$ENTRY$ -> CHAR$STRING);

   8443  2 001177   000020 735000                    ALS     16
         2 001200   000140 135007                    SBLA    96,DL
         2 001201   000001 236000 xsym               LDQ     QX_GLOBAL+1
         2 001202   200040 470500                    LDP0    GLOBAL_PTRS+24,,AUTO
         2 001203   000004 757100                    STAQ    4,,PR0

      633     8444
      634     8445    1           RETURN;

   8445  2 001204   000000 702200 xent               TSX2  ! X66_ARET

      635     8446
      636     8447    1   MON_ERR:
      637     8448    1           B$JIT.USRERR = B$TCB$ -> B$TCB.ALT$ -> B$ALT.ERR;

   8448  2 001205   000000 470400 xsym  MON_ERR      LDP0    B$TCB$
         2 001206   000000 471500                    LDP1    0,,PR0
         2 001207   100102 236100                    LDQ     66,,PR1
         2 001210   000000 473400 xsym               LDP3    B$JIT$
         2 001211   300144 756100                    STQ     100,,PR3

      638     8449    1           CALL QXC$SCREECH(750, '01'O, 5);

   8449  2 001212   000023 630400 3                  EPPR0   19
PL6.E3A0      #001=QXA$INIT File=QXA$INIT.:E05TSI                                WED 07/30/97 05:52 Page:81
         2 001213   000021 631400 xsym               EPPR1   B_VECTNIL+17
         2 001214   000000 701000 xent               TSX1    QXC$SCREECH
         2 001215   000000 011000                    NOP     0

      639     8450
      640     8451    1   SCREECH:
      641     8452    1           B$JIT.USRERR = B$TCB$ -> B$TCB.ALT$ -> B$ALT.ERR;

   8452  2 001216   000000 470400 xsym  SCREECH      LDP0    B$TCB$
         2 001217   000000 471500                    LDP1    0,,PR0
         2 001220   100102 236100                    LDQ     66,,PR1
         2 001221   000000 473400 xsym               LDP3    B$JIT$
         2 001222   300144 756100                    STQ     100,,PR3

      642     8453    1           CALL QXC$SCREECH(750, '01'O, 6);

   8453  2 001223   000026 630400 3                  EPPR0   22
         2 001224   000021 631400 xsym               EPPR1   B_VECTNIL+17
         2 001225   000000 701000 xent               TSX1    QXC$SCREECH
         2 001226   000000 011000                    NOP     0

      643     8454    1   END QXA$INIT;

   8454  2 001227   000000 702200 xent               TSX2  ! X66_ARET

PL6.E3A0      #001=QXA$INIT File=QXA$INIT.:E05TSI                                WED 07/30/97 05:52 Page:82
--  Include file information  --

   FM$FIT.:E05TOU  is referenced.
   B$JIT.:E05TOU  cannot be made into a system file and is referenced.
   CP_6_SUBS.:E05TOU  is referenced.
   CP_6.:E05TOU  cannot be made into a system file and is referenced.
   XU_MACRO_C.:E05TOU  is referenced.
   Q_ERRCODE_C.:E05TOU  is referenced.
   Q_SCODE_C.:E05TOU  is referenced.
   QX_DATA_R.:E05TOU  cannot be made into a system file and is referenced.
   QX_MACROS_C.:E05TOU  is referenced.
   QQ_MACROS_C.:E05TOU  is referenced.
   Q_PAGE_C.:E05TOU  is referenced.
   B$JIT_C.:E05TOU  was found in the system file and is referenced.
   CP_6_C.:E05TOU  was found in the system file and is referenced.
      No diagnostics issued in procedure QXA$INIT.
PL6.E3A0      #001=QXA$INIT File=QXA$INIT.:E05TSI                                WED 07/30/97 05:52 Page:83

 **** Variables and constants ****

  ****  Section 001 RoData QXA$INIT

  ****  Scalars and arrays  ****
OctLoc.c.b A Datatyp(siz) R M Lvl/name                 OctLoc.c.b A Datatyp(siz) R M Lvl/name

     7-0-0/c CHAR(24)    r     1 ERRMSG                   276-0-0/d STRC(1080)  r     1 FPT_CLOSE
   116-0-0/d STRC(504)   r     1 FPT_CPEXIT                30-0-0/d STRC(504)   r     1 FPT_CPEXIT_NTP
   264-0-0/d STRC(360)   r     1 FPT_DELREC               400-0-0/d STRC(936)   r     1 FPT_ERRMSG
   142-0-0/d STRC(864)   r     1 FPT_FID                  134-0-0/d STRC(216)   r     1 FPT_GDS
   102-0-0/d STRC(288)   r     1 FPT_GETDCB               552-0-0/d STRC(504)   r     1 FPT_KEYIN
   524-0-0/d STRC(360)   r     1 FPT_OCMSG                432-0-0/d STRC(2088)  r     1 FPT_OPEN_CG
   172-0-0/d STRC(2088)  r     1 FPT_OPEN_FILE            346-0-0/d STRC(504)   r     1 FPT_READ_CG
    50-0-0/d STRC(504)   r     1 FPT_READ_KEY             112-0-0/d STRC(144)   r     1 FPT_RELDCB
    24-0-0/d STRC(144)   r     1 FPT_SCON                 536-0-0/d STRC(432)   r     1 FPT_TIME
   334-0-0/d STRC(360)   r     1 FPT_UNLATCH              364-0-0/d STRC(432)   r     1 FPT_WRITE_CG
    66-0-0/d STRC(432)   r     1 FPT_WRITE_KEY             16-0-0/d STRC(216)   r     1 FPT_XCON
     5-0-0/c STRC(45)    r     1 IBEX                       0-0-0/c STRC(90)    r     1 QQERRMSG
     3-0-0/c STRC(72)    r     1 VLP_ACCT_SYS              46-0-0/d STRC(72)    r     1 VLP_VECTOR
   570-0-0/d STRC(1512)  r     1 XUG_GETCMD

  ****  Auto variables  ****

  ****  Scalars and arrays  ****
OctLoc.c.b A Datatyp(siz) R M Lvl/name                 OctLoc.c.b A Datatyp(siz) R M Lvl/name

    71-0-0/w PTR         r     1 CCBUF$                     3-0-0/w UBIN        r     1 CHAR_STRING_SIZE
    74-0-0/d STRC(216)   r     1 FPT_GDS_INITIAL           10-0-0/d STRC(1620)  r     1 GLOBAL_PTRS
    66-0-0/w PTR         r     1 P$                         5-0-0/w UBIN        r     1 POS
     7-0-0/w UBIN        r     1 SPACE_NEEDED              73-0-0/c CHAR(4)     r     1 VLP_RES
   102-0-0/d STRC(72)    r     1 VLP_VECTOR_AUTO

  ****  SYMREF variables  ****

  ****  Scalars and arrays  ****
OctLoc.c.b A Datatyp(siz) R M Lvl/name                 OctLoc.c.b A Datatyp(siz) R M Lvl/name
PL6.E3A0      #001=QXA$INIT File=QXA$INIT.:E05TSI                                WED 07/30/97 05:52 Page:84

     0-0-0/w PTR         r     1 B$JIT$                     0-0-0/w PTR         r     1 B$TCB$
     0-0-0/w STRC(72)    r     1 QX_GLOBAL

  ****  BASED and DCB variables  ****

  ****  Scalars and arrays  ****
OctLoc.c.b A Datatyp(siz) R M Lvl/name                 OctLoc.c.b A Datatyp(siz) R M Lvl/name

     0-0-0/w STRC(2448)  r     1 B$ALT                      0-0-0/d STRC(8856)  r     1 B$JIT
     0-0-0/w STRC(144)   r     1 B$TCB                      0-0-0/d STRC(1404)  r     1 BUFFER
     0-0-0/b SBIN(9)     r     1 BYTTE                      0-0-0/c ACHR        r     1 CHAR$STRING
     0-0-0/d STRC(1080)  r     1 FPT$CLOSE                  0-0-0/d STRC(504)   r     1 FPT$CPEXIT
     0-0-0/d STRC(360)   r     1 FPT$DELREC                 0-0-0/d STRC(936)   r     1 FPT$ERRMSG
     0-0-0/d STRC(864)   r     1 FPT$FID                    0-0-0/d STRC(216)   r     1 FPT$GDS
     0-0-0/d STRC(288)   r     1 FPT$GETDCB                 0-0-0/d STRC(504)   r     1 FPT$KEYIN
     0-0-0/d STRC(360)   r     1 FPT$OCMSG                  0-0-0/d STRC(2088)  r     1 FPT$OPEN_CG
     0-0-0/d STRC(2088)  r     1 FPT$OPEN_FILE              0-0-0/d STRC(504)   r     1 FPT$READ_CG
     0-0-0/d STRC(504)   r     1 FPT$READ_KEY               0-0-0/d STRC(144)   r     1 FPT$RELDCB
     0-0-0/d STRC(432)   r     1 FPT$TIME                   0-0-0/d STRC(360)   r     1 FPT$UNLATCH
     0-0-0/d STRC(432)   r     1 FPT$WRITE_CG               0-0-0/d STRC(432)   r     1 FPT$WRITE_KEY
     0-0-0/d STRC(1620)  r     1 GLOBAL$PTRS                0-0-0N  NULL        r     1 M$UC
     0-0-0/w STRC(2016)  r     1 QX$GLOBAL                  0-0-0/d STRC(72)    r     1 VLP$ACCT
     0-0-0/d STRC(72)    r     1 VLP$ACCT_TRADER            0-0-0/d UBIN        r     1 VLP$ASN
     0-0-0/w STRC(72)    r     1 VLP$CODE07_PASS_TRADER
     0-0-0/d UBIN        r     1 VLP$DCBNUM                 0-0-0/d STRC(144)   r     1 VLP$DEBUGGER
     0-0-0/d STRC(900)   r     1 VLP$FID                    0-0-0/d STRC(72)    r     1 VLP$GDS
     0-0-0/w STRC(72)    r     1 VLP$IFPARAM_PASS_TRADER
     0-0-0/d STRC(288)   r     1 VLP$KEY                    0-0-0/d STRC(18)    r     1 VLP$LKEY
     0-0-0/d STRC(81)    r     1 VLP$MSGTYP                 0-0-0/d STRC(288)   r     1 VLP$NAME
     0-0-0/d STRC(288)   r     1 VLP$NAME_TRADER            0-0-0/d STRC(72)    r     1 VLP$PASS
     0-0-0/w STRC(432)   r     1 VLP$SETSTA                 0-0-0/d STRC(90)    r     1 VLP$SN
     0-0-0/d STRC(90)    r     1 VLP$SN_TRADER              0-0-0/w STRC(288)   r     1 VLP$STATION
     0-0-0/d CHAR(11)    r     1 VLP$TIME                   0-0-0/d STRC(72)    r     1 VLP$VECTOR
     0-0-0/d STRC(72)    r     1 VLP$WSN                    0-0-0/d STRC(144)   r     1 VLR$ERRMSG
     0-0-0/d STRC(324)   r     1 VLR$FID                    0-0-0/b SBIN        r     1 WORRD
     0-0-0/d STRC(1512)  r     1 XUG$GETCMD
PL6.E3A0      #001=QXA$INIT File=QXA$INIT.:E05TSI                                WED 07/30/97 05:52 Page:85


   Procedure QXA$INIT requires 664 words for executable code.
   Procedure QXA$INIT requires 70 words of local(AUTO) storage.

    No errors detected in file QXA$INIT.:E05TSI    .
PL6.E3A0      #001=QXA$INIT File=QXA$INIT.:E05TSI                                WED 07/30/97 05:52 Page:86
          *** CROSS REFERENCE LISTING ***
**     DENOTES     IDENTIFIER DEFINITION
<<                 IDENTIFIER'S VALUE SET
>>                 IDENTIFIER'S VALUE USED
<>                 IDENTIFIER SET AND/OR USED
--                 IDENTIFIER REFERENCED
PL6.E3A0      #001=QXA$INIT File=QXA$INIT.:E05TSI                                WED 07/30/97 05:52 Page:87
          MINI XREF LISTING

B$ALT.CODE
      5036**DCL      5036--REDEF    5037--REDEF    5037--REDEF
B$ALT.ERR
      5037**DCL      8448>>ASSIGN   8452>>ASSIGN
B$ALT.ERR.ERR#
      5038**DCL      5038--REDEF
B$ALT.EVID
      5037**DCL      5037--REDEF    5037--REDEF
B$JIT.CCARS
      4543**DCL      8087<<ASSIGN   8437<<ASSIGN
B$JIT.CCBUF
      4543**DCL      8086<<ASSIGN   8387--ASSIGN   8436<<ASSIGN
B$JIT.CCDISP
      4543**DCL      8388>>ASSIGN
B$JIT.CPFLAGS1
      4544**DCL      8088<<ASSIGN   8383<<ASSIGN   8383>>ASSIGN   8384<<ASSIGN   8384>>ASSIGN   8403<<ASSIGN
      8403>>ASSIGN   8409<<ASSIGN   8409>>ASSIGN
B$JIT.CPFLAGS1.SLEAZE
      4549**DCL      4549--REDEF
B$JIT.ERR.MID
      4456**DCL      4456--REDEF
B$JIT.JRESPEAK
      4617**DCL      4618--REDEF
B$JIT.MODE
      4450**DCL      8084>>IF
B$JIT.ORIGINATOR_PORT.FROM_CR
      4726**DCL      4726--REDEF    4727--REDEF
B$JIT.PNR
      4630**DCL      4630--REDEF
B$JIT.PRIV.ACTIVE
      4456**DCL      8385<<ASSIGN
B$JIT.PRIV.AUTH
PL6.E3A0      #001=QXA$INIT File=QXA$INIT.:E05TSI                                WED 07/30/97 05:52 Page:88
      4496**DCL      8385>>ASSIGN
B$JIT.TSLINE
      4724**DCL      4725--REDEF
B$JIT.USRERR
      4591**DCL      8448<<ASSIGN   8452<<ASSIGN
B$JIT$
      5004**DCL      4450--IMP-PTR  8084>>IF       8086>>ASSIGN   8087>>ASSIGN   8088>>ASSIGN   8383>>ASSIGN
      8383>>ASSIGN   8384>>ASSIGN   8384>>ASSIGN   8385>>ASSIGN   8385>>ASSIGN   8387>>ASSIGN   8388>>ASSIGN
      8403>>ASSIGN   8403>>ASSIGN   8409>>ASSIGN   8409>>ASSIGN   8436>>ASSIGN   8437>>ASSIGN   8448>>ASSIGN
      8452>>ASSIGN
B$TCB.ALT$
      5032**DCL      8448>>ASSIGN   8452>>ASSIGN
B$TCB$
      5005**DCL      8448>>ASSIGN   8452>>ASSIGN
BUFFER
      5047**DCL      8095--ASSIGN
BUFFER.MSG1
      5048**DCL      8362<<ASSIGN   8364--ASSIGN
BUFFER.MSG2
      5049**DCL      8367--ASSIGN
BYTTE
      5045**DCL      8389>>ASSIGN   8401>>IF       8407>>IF       8417>>IF
CCBUF$
      5270**DCL      8387<<ASSIGN   8389>>ASSIGN   8391>>ASSIGN   8398>>ASSIGN   8401>>IF       8407>>IF
      8414>>ASSIGN   8417>>IF       8423>>ASSIGN
CHAR$STRING
      5043**DCL      8391>>ASSIGN   8398>>ASSIGN   8414>>ASSIGN   8443--ASSIGN
CHAR_STRING_SIZE
      5168**DCL      5043--IMP-SIZ  8389<<ASSIGN   8390>>ASSIGN   8391>>ASSIGN   8396>>ASSIGN   8397<<ASSIGN
      8398>>ASSIGN   8413<<ASSIGN   8414>>ASSIGN   8442<<ASSIGN   8443>>ASSIGN
ERRMSG
      5142**DCL      8362>>ASSIGN
FPT$CLOSE
      6241**DCL      8095--ASSIGN   8311<<ASSIGN   8315--ASSIGN
FPT$CLOSE.SN_
      6241**DCL      6241--REDEF
PL6.E3A0      #001=QXA$INIT File=QXA$INIT.:E05TSI                                WED 07/30/97 05:52 Page:89
FPT$CLOSE.UTL_
      6242**DCL      6242--REDEF
FPT$CLOSE.V
      6246**DCL      8312--ASSIGN
FPT$CLOSE.V.DCB#
      6247**DCL      8313<<ASSIGN
FPT$CLOSE.V.EXPIRE#
      6256**DCL      6256--REDEF
FPT$CLOSE.V.TYPE#
      6254**DCL      6254--REDEF
FPT$CLOSE.V.XTNSIZE#
      6251**DCL      6251--REDEF    6253--REDEF
FPT$CLOSE.V_
      6241**DCL      8312<<ASSIGN
FPT$CPEXIT
      5818**DCL      8095--ASSIGN   8272--ASSIGN
FPT$DELREC
      6166**DCL      8095--ASSIGN   8303<<ASSIGN   8309--ASSIGN
FPT$DELREC.KEY_
      6166**DCL      8305<<ASSIGN
FPT$DELREC.LKEY_
      6168**DCL      8306<<ASSIGN
FPT$DELREC.V
      6169**DCL      8304--ASSIGN
FPT$DELREC.V.DCB#
      6170**DCL      8307<<ASSIGN
FPT$DELREC.V_
      6166**DCL      8304<<ASSIGN
FPT$ERRMSG
      6481**DCL      8095--ASSIGN   8334<<ASSIGN   8338--ASSIGN
FPT$ERRMSG.RESULTS_
      6484**DCL      8336<<ASSIGN
FPT$ERRMSG.V
      6485**DCL      8335--ASSIGN
FPT$ERRMSG.V_
      6481**DCL      8335<<ASSIGN
PL6.E3A0      #001=QXA$INIT File=QXA$INIT.:E05TSI                                WED 07/30/97 05:52 Page:90
FPT$FID
      5901**DCL      8095--ASSIGN   8280<<ASSIGN   8292--ASSIGN   8392<>CALL
FPT$FID.ACCT_
      5902**DCL      8283<<ASSIGN
FPT$FID.ASN_
      5904**DCL      8287<<ASSIGN
FPT$FID.NAME_
      5902**DCL      8282<<ASSIGN
FPT$FID.PASS_
      5902**DCL      8284<<ASSIGN
FPT$FID.RESULTS_
      5904**DCL      8290<<ASSIGN
FPT$FID.RES_
      5904**DCL      8288<<ASSIGN
FPT$FID.SN_
      5903**DCL      8285<<ASSIGN
FPT$FID.TEXTFID_
      5901**DCL      8289<<ASSIGN
FPT$FID.V
      5905**DCL      8281--ASSIGN
FPT$FID.V_
      5901**DCL      8281<<ASSIGN
FPT$FID.WSN_
      5903**DCL      8286<<ASSIGN
FPT$GDS
      5860**DCL      8095--ASSIGN   8274<<ASSIGN   8278--ASSIGN   8440<>CALL
FPT$GDS.RESULTS_
      5860**DCL      8276<<ASSIGN
FPT$GDS.V
      5860**DCL      8275--ASSIGN
FPT$GDS.V_
      5860**DCL      8275<<ASSIGN
FPT$GETDCB
      5743**DCL      8095--ASSIGN   8258<<ASSIGN   8263--ASSIGN
FPT$GETDCB.DCBNUM_
      5743**DCL      8260<<ASSIGN
PL6.E3A0      #001=QXA$INIT File=QXA$INIT.:E05TSI                                WED 07/30/97 05:52 Page:91
FPT$GETDCB.V
      5744**DCL      8259--ASSIGN
FPT$GETDCB.V.DCB#
      5744**DCL      8261<<ASSIGN
FPT$GETDCB.V_
      5743**DCL      8259<<ASSIGN
FPT$KEYIN
      6823**DCL      8095--ASSIGN   8357<<ASSIGN   8359--ASSIGN
FPT$KEYIN.MESS_.BOUND
      6823**DCL      8360<<ASSIGN
FPT$KEYIN.MESS_.BUF$
      6824**DCL      8361<<ASSIGN
FPT$KEYIN.V
      6826**DCL      8358--ASSIGN
FPT$KEYIN.V_
      6823**DCL      8358<<ASSIGN
FPT$OCMSG
      6746**DCL      8095--ASSIGN   8346<<ASSIGN   8349--ASSIGN
FPT$OCMSG.V
      6747**DCL      8347--ASSIGN
FPT$OCMSG.V_
      6746**DCL      8347<<ASSIGN
FPT$OPEN_CG
      6673**DCL      8095--ASSIGN   8340<<ASSIGN   8344--ASSIGN
FPT$OPEN_CG.ACSVEH_
      6675**DCL      6676--REDEF
FPT$OPEN_CG.ALTKEYS_
      6681**DCL      6682--REDEF    6682--REDEF
FPT$OPEN_CG.HDR_
      6680**DCL      6681--REDEF
FPT$OPEN_CG.SETSTA_
      6674**DCL      8342<<ASSIGN
FPT$OPEN_CG.TAB_
      6679**DCL      6680--REDEF
FPT$OPEN_CG.UHL_
      6673**DCL      6674--REDEF    6674--REDEF
PL6.E3A0      #001=QXA$INIT File=QXA$INIT.:E05TSI                                WED 07/30/97 05:52 Page:92
FPT$OPEN_CG.V
      6682**DCL      8341--ASSIGN
FPT$OPEN_CG.V.FSN#
      6713**DCL      6713--REDEF    6713--REDEF
FPT$OPEN_CG.V_
      6673**DCL      8341<<ASSIGN
FPT$OPEN_CG.WSN_
      6679**DCL      6679--REDEF
FPT$OPEN_FILE
      6090**DCL      8095--ASSIGN   8294<<ASSIGN   8301--ASSIGN
FPT$OPEN_FILE.ACCT_
      6094**DCL      8298<<ASSIGN
FPT$OPEN_FILE.ACSVEH_
      6092**DCL      6093--REDEF
FPT$OPEN_FILE.ALTKEYS_
      6098**DCL      6099--REDEF    6099--REDEF
FPT$OPEN_FILE.HDR_
      6097**DCL      6098--REDEF
FPT$OPEN_FILE.NAME_
      6091**DCL      8297<<ASSIGN
FPT$OPEN_FILE.SN_
      6090**DCL      8296<<ASSIGN
FPT$OPEN_FILE.TAB_
      6096**DCL      6097--REDEF
FPT$OPEN_FILE.UHL_
      6090**DCL      6091--REDEF    6091--REDEF
FPT$OPEN_FILE.V
      6099**DCL      8295--ASSIGN
FPT$OPEN_FILE.V.DCB#
      6099**DCL      8299<<ASSIGN
FPT$OPEN_FILE.V.FSN#
      6130**DCL      6130--REDEF    6130--REDEF
FPT$OPEN_FILE.V_
      6090**DCL      8295<<ASSIGN
FPT$OPEN_FILE.WSN_
      6096**DCL      6096--REDEF
PL6.E3A0      #001=QXA$INIT File=QXA$INIT.:E05TSI                                WED 07/30/97 05:52 Page:93
FPT$READ_CG
      6354**DCL      8095--ASSIGN   8322<<ASSIGN   8326--ASSIGN
FPT$READ_CG.STATION_
      6357**DCL      6358--REDEF    8324<<ASSIGN
FPT$READ_CG.V
      6358**DCL      8323--ASSIGN
FPT$READ_CG.V.DVBYTE.REREAD#
      6369**DCL      6369--REDEF
FPT$READ_CG.V.INDX#
      6367**DCL      6367--REDEF
FPT$READ_CG.V_
      6354**DCL      8323<<ASSIGN
FPT$READ_KEY
      5629**DCL      8095--ASSIGN   8244<<ASSIGN   8249--ASSIGN
FPT$READ_KEY.BUF_
      5631**DCL      8443<<ASSIGN
FPT$READ_KEY.KEY_
      5629**DCL      8247<<ASSIGN
FPT$READ_KEY.STATION_
      5632**DCL      5633--REDEF
FPT$READ_KEY.V
      5633**DCL      8245--ASSIGN
FPT$READ_KEY.V.DCB#
      5633**DCL      8246<<ASSIGN
FPT$READ_KEY.V.DVBYTE.REREAD#
      5644**DCL      5644--REDEF
FPT$READ_KEY.V.INDX#
      5642**DCL      5642--REDEF
FPT$READ_KEY.V_
      5629**DCL      8245<<ASSIGN
FPT$RELDCB
      5774**DCL      8095--ASSIGN   8265<<ASSIGN   8269--ASSIGN
FPT$RELDCB.V
      5774**DCL      8266--ASSIGN
FPT$RELDCB.V.DCB#
      5774**DCL      8267<<ASSIGN
PL6.E3A0      #001=QXA$INIT File=QXA$INIT.:E05TSI                                WED 07/30/97 05:52 Page:94
FPT$RELDCB.V_
      5774**DCL      8266<<ASSIGN
FPT$TIME
      6783**DCL      8095--ASSIGN   8351<<ASSIGN   8355--ASSIGN
FPT$TIME.TIME_
      6785**DCL      8353<<ASSIGN
FPT$TIME.V
      6787**DCL      8352--ASSIGN
FPT$TIME.V_
      6783**DCL      8352<<ASSIGN
FPT$UNLATCH
      6290**DCL      8095--ASSIGN   8317<<ASSIGN   8320--ASSIGN
FPT$UNLATCH.V
      6290**DCL      8318--ASSIGN
FPT$UNLATCH.V_
      6290**DCL      8318<<ASSIGN
FPT$WRITE_CG
      6426**DCL      8095--ASSIGN   8328<<ASSIGN   8332--ASSIGN
FPT$WRITE_CG.STATION_
      6428**DCL      6428--REDEF    8330<<ASSIGN
FPT$WRITE_CG.V
      6429**DCL      8329--ASSIGN
FPT$WRITE_CG.V.DVBYTE.VFC#
      6435**DCL      6435--REDEF
FPT$WRITE_CG.V_
      6426**DCL      8329<<ASSIGN
FPT$WRITE_KEY
      5701**DCL      8095--ASSIGN   8251<<ASSIGN   8256--ASSIGN
FPT$WRITE_KEY.KEY_
      5701**DCL      8253<<ASSIGN
FPT$WRITE_KEY.STATION_
      5703**DCL      5703--REDEF
FPT$WRITE_KEY.V
      5704**DCL      8252--ASSIGN
FPT$WRITE_KEY.V.DCB#
      5704**DCL      8254<<ASSIGN
PL6.E3A0      #001=QXA$INIT File=QXA$INIT.:E05TSI                                WED 07/30/97 05:52 Page:95
FPT$WRITE_KEY.V.DVBYTE.VFC#
      5710**DCL      5710--REDEF
FPT$WRITE_KEY.V_
      5701**DCL      8252<<ASSIGN
FPT_CLOSE
      6198**DCL      8311>>ASSIGN
FPT_CLOSE.SN_
      6198**DCL      6198--REDEF
FPT_CLOSE.UTL_
      6199**DCL      6199--REDEF
FPT_CLOSE.V
      6203**DCL      6198--DCLINIT
FPT_CLOSE.V.EXPIRE#
      6213**DCL      6213--REDEF
FPT_CLOSE.V.TYPE#
      6211**DCL      6211--REDEF
FPT_CLOSE.V.XTNSIZE#
      6208**DCL      6208--REDEF    6210--REDEF
FPT_CPEXIT.V
      5794**DCL      5794--DCLINIT
FPT_CPEXIT_NTP
      5360**DCL      8089<>CALL
FPT_CPEXIT_NTP.V
      5363**DCL      5363--DCLINIT
FPT_DELREC
      6146**DCL      8303>>ASSIGN
FPT_DELREC.V
      6149**DCL      6146--DCLINIT
FPT_ERRMSG
      6453**DCL      8334>>ASSIGN
FPT_ERRMSG.V
      6457**DCL      6453--DCLINIT
FPT_FID
      5877**DCL      8280>>ASSIGN
FPT_FID.V
      5881**DCL      5877--DCLINIT
PL6.E3A0      #001=QXA$INIT File=QXA$INIT.:E05TSI                                WED 07/30/97 05:52 Page:96
FPT_GDS
      5843**DCL      8143>>ASSIGN   8274>>ASSIGN
FPT_GDS.V
      5843**DCL      5843--DCLINIT
FPT_GDS_INITIAL
      5310**DCL      8143<<ASSIGN   8149<>CALL
FPT_GDS_INITIAL.RESULTS_
      5310**DCL      8145<<ASSIGN
FPT_GDS_INITIAL.V
      5310**DCL      8144--ASSIGN
FPT_GDS_INITIAL.V.SEGSIZE#
      5313**DCL      8148<<ASSIGN
FPT_GDS_INITIAL.V_
      5310**DCL      8144<<ASSIGN
FPT_GETDCB
      5727**DCL      8258>>ASSIGN
FPT_GETDCB.V
      5728**DCL      5727--DCLINIT
FPT_KEYIN
      6803**DCL      8357>>ASSIGN
FPT_KEYIN.V
      6806**DCL      6803--DCLINIT
FPT_OCMSG
      6729**DCL      8346>>ASSIGN
FPT_OCMSG.V
      6730**DCL      6729--DCLINIT
FPT_OPEN_CG
      6563**DCL      8340>>ASSIGN
FPT_OPEN_CG.ACSVEH_
      6565**DCL      6566--REDEF
FPT_OPEN_CG.ALTKEYS_
      6571**DCL      6572--REDEF    6572--REDEF
FPT_OPEN_CG.HDR_
      6570**DCL      6571--REDEF
FPT_OPEN_CG.TAB_
      6569**DCL      6570--REDEF
PL6.E3A0      #001=QXA$INIT File=QXA$INIT.:E05TSI                                WED 07/30/97 05:52 Page:97
FPT_OPEN_CG.UHL_
      6563**DCL      6564--REDEF    6564--REDEF
FPT_OPEN_CG.V
      6572**DCL      6563--DCLINIT
FPT_OPEN_CG.V.FSN#
      6603**DCL      6603--REDEF    6603--REDEF
FPT_OPEN_CG.WSN_
      6569**DCL      6569--REDEF
FPT_OPEN_FILE
      5980**DCL      8294>>ASSIGN
FPT_OPEN_FILE.ACSVEH_
      5982**DCL      5983--REDEF
FPT_OPEN_FILE.ALTKEYS_
      5988**DCL      5989--REDEF    5989--REDEF
FPT_OPEN_FILE.HDR_
      5987**DCL      5988--REDEF
FPT_OPEN_FILE.TAB_
      5986**DCL      5987--REDEF
FPT_OPEN_FILE.UHL_
      5980**DCL      5981--REDEF    5981--REDEF
FPT_OPEN_FILE.V
      5989**DCL      5980--DCLINIT
FPT_OPEN_FILE.V.FSN#
      6020**DCL      6020--REDEF    6020--REDEF
FPT_OPEN_FILE.WSN_
      5986**DCL      5986--REDEF
FPT_READ_CG
      6314**DCL      8322>>ASSIGN
FPT_READ_CG.STATION_
      6317**DCL      6318--REDEF
FPT_READ_CG.V
      6318**DCL      6314--DCLINIT
FPT_READ_CG.V.DVBYTE.REREAD#
      6329**DCL      6329--REDEF
FPT_READ_CG.V.INDX#
      6327**DCL      6327--REDEF
PL6.E3A0      #001=QXA$INIT File=QXA$INIT.:E05TSI                                WED 07/30/97 05:52 Page:98
FPT_READ_KEY
      5589**DCL      8244>>ASSIGN
FPT_READ_KEY.STATION_
      5592**DCL      5593--REDEF
FPT_READ_KEY.V
      5593**DCL      5589--DCLINIT
FPT_READ_KEY.V.DVBYTE.REREAD#
      5604**DCL      5604--REDEF
FPT_READ_KEY.V.INDX#
      5602**DCL      5602--REDEF
FPT_RELDCB
      5759**DCL      8265>>ASSIGN
FPT_RELDCB.V
      5759**DCL      5759--DCLINIT
FPT_SCON
      5341**DCL      8093<>CALL
FPT_SCON.V
      5341**DCL      5341--DCLINIT
FPT_TIME
      6763**DCL      8351>>ASSIGN
FPT_TIME.V
      6767**DCL      6763--DCLINIT
FPT_UNLATCH
      6272**DCL      8317>>ASSIGN
FPT_UNLATCH.V
      6272**DCL      6272--DCLINIT
FPT_WRITE_CG
      6394**DCL      8328>>ASSIGN
FPT_WRITE_CG.STATION_
      6396**DCL      6396--REDEF
FPT_WRITE_CG.V
      6397**DCL      6394--DCLINIT
FPT_WRITE_CG.V.DVBYTE.VFC#
      6403**DCL      6403--REDEF
FPT_WRITE_KEY
      5669**DCL      8251>>ASSIGN
PL6.E3A0      #001=QXA$INIT File=QXA$INIT.:E05TSI                                WED 07/30/97 05:52 Page:99
FPT_WRITE_KEY.STATION_
      5671**DCL      5671--REDEF
FPT_WRITE_KEY.V
      5672**DCL      5669--DCLINIT
FPT_WRITE_KEY.V.DVBYTE.VFC#
      5678**DCL      5678--REDEF
FPT_XCON
      5327**DCL      8092<>CALL
FPT_XCON.V
      5328**DCL      5327--DCLINIT
GLOBAL$PTRS
      5455**DCL      8095--ASSIGN   8151--ASSIGN   8381<<ASSIGN
GLOBAL_PTRS
      5175**DCL      8381>>ASSIGN
GLOBAL_PTRS.BUFFER$
      5260**DCL      8365<<ASSIGN
GLOBAL_PTRS.FPT$CLOSE$
      5242**DCL      6241--IMP-PTR  8310<<ASSIGN   8311>>ASSIGN   8312>>ASSIGN   8312>>ASSIGN   8313>>ASSIGN
GLOBAL_PTRS.FPT$CPEXIT$
      5232**DCL      5818--IMP-PTR  8270<<ASSIGN
GLOBAL_PTRS.FPT$DELREC$
      5240**DCL      6166--IMP-PTR  8302<<ASSIGN   8303>>ASSIGN   8304>>ASSIGN   8304>>ASSIGN   8305>>ASSIGN
      8306>>ASSIGN   8307>>ASSIGN
GLOBAL_PTRS.FPT$ERRMSG$
      5250**DCL      6481--IMP-PTR  8333<<ASSIGN   8334>>ASSIGN   8335>>ASSIGN   8335>>ASSIGN   8336>>ASSIGN
GLOBAL_PTRS.FPT$FID$
      5236**DCL      5901--IMP-PTR  8279<<ASSIGN   8280>>ASSIGN   8281>>ASSIGN   8281>>ASSIGN   8282>>ASSIGN
      8283>>ASSIGN   8284>>ASSIGN   8285>>ASSIGN   8286>>ASSIGN   8287>>ASSIGN   8288>>ASSIGN   8289>>ASSIGN
      8290>>ASSIGN   8392>>CALL
GLOBAL_PTRS.FPT$GDS$
      5234**DCL      5860--IMP-PTR  8273<<ASSIGN   8274>>ASSIGN   8275>>ASSIGN   8275>>ASSIGN   8276>>ASSIGN
      8440>>CALL
GLOBAL_PTRS.FPT$GETDCB$
      5228**DCL      5743--IMP-PTR  8257<<ASSIGN   8258>>ASSIGN   8259>>ASSIGN   8259>>ASSIGN   8260>>ASSIGN
      8261>>ASSIGN
GLOBAL_PTRS.FPT$KEYIN$
PL6.E3A0      #001=QXA$INIT File=QXA$INIT.:E05TSI                                WED 07/30/97 05:52 Page:100
      5258**DCL      6823--IMP-PTR  8356<<ASSIGN   8357>>ASSIGN   8358>>ASSIGN   8358>>ASSIGN   8360>>ASSIGN
      8361>>ASSIGN
GLOBAL_PTRS.FPT$OCMSG$
      5254**DCL      6746--IMP-PTR  8345<<ASSIGN   8346>>ASSIGN   8347>>ASSIGN   8347>>ASSIGN
GLOBAL_PTRS.FPT$OPEN_CG$
      5252**DCL      6673--IMP-PTR  8339<<ASSIGN   8340>>ASSIGN   8341>>ASSIGN   8341>>ASSIGN   8342>>ASSIGN
GLOBAL_PTRS.FPT$OPEN_FILE$
      5238**DCL      6090--IMP-PTR  8293<<ASSIGN   8294>>ASSIGN   8295>>ASSIGN   8295>>ASSIGN   8296>>ASSIGN
      8297>>ASSIGN   8298>>ASSIGN   8299>>ASSIGN
GLOBAL_PTRS.FPT$READ_CG$
      5246**DCL      6354--IMP-PTR  8321<<ASSIGN   8322>>ASSIGN   8323>>ASSIGN   8323>>ASSIGN   8324>>ASSIGN
GLOBAL_PTRS.FPT$READ_KEY$
      5224**DCL      5629--IMP-PTR  8243<<ASSIGN   8244>>ASSIGN   8245>>ASSIGN   8245>>ASSIGN   8246>>ASSIGN
      8247>>ASSIGN   8443>>ASSIGN
GLOBAL_PTRS.FPT$RELDCB$
      5230**DCL      5774--IMP-PTR  8264<<ASSIGN   8265>>ASSIGN   8266>>ASSIGN   8266>>ASSIGN   8267>>ASSIGN
GLOBAL_PTRS.FPT$TIME$
      5256**DCL      6783--IMP-PTR  8350<<ASSIGN   8351>>ASSIGN   8352>>ASSIGN   8352>>ASSIGN   8353>>ASSIGN
GLOBAL_PTRS.FPT$UNLATCH$
      5244**DCL      6290--IMP-PTR  8316<<ASSIGN   8317>>ASSIGN   8318>>ASSIGN   8318>>ASSIGN
GLOBAL_PTRS.FPT$WRITE_CG$
      5248**DCL      6426--IMP-PTR  8327<<ASSIGN   8328>>ASSIGN   8329>>ASSIGN   8329>>ASSIGN   8330>>ASSIGN
GLOBAL_PTRS.FPT$WRITE_KEY$
      5226**DCL      5701--IMP-PTR  8250<<ASSIGN   8251>>ASSIGN   8252>>ASSIGN   8252>>ASSIGN   8253>>ASSIGN
      8254>>ASSIGN
GLOBAL_PTRS.QX$GLOBAL$
      5264**DCL      8037--IMP-PTR  8372<<ASSIGN   8373>>ASSIGN   8374>>ASSIGN   8375>>ASSIGN   8376>>ASSIGN
      8377>>ASSIGN   8378>>ASSIGN   8419>>ASSIGN   8423>>ASSIGN   8427>>ASSIGN   8432>>ASSIGN
GLOBAL_PTRS.VLP$ACCT$
      5178**DCL      7575--IMP-PTR  8155<<ASSIGN   8283>>ASSIGN   8298>>ASSIGN   8394>>ASSIGN
GLOBAL_PTRS.VLP$ACCT_TRADER$
      5198**DCL      7783--IMP-PTR  8187<<ASSIGN   8394>>ASSIGN
GLOBAL_PTRS.VLP$ASN$
      5216**DCL      7937--IMP-PTR  8231<<ASSIGN   8287>>ASSIGN
GLOBAL_PTRS.VLP$CODE07_PASS_TRADER$
      5202**DCL      7797--IMP-PTR  8207<<ASSIGN   8398>>ASSIGN
PL6.E3A0      #001=QXA$INIT File=QXA$INIT.:E05TSI                                WED 07/30/97 05:52 Page:101
GLOBAL_PTRS.VLP$DCBNUM$
      5188**DCL      7652--IMP-PTR  8171<<ASSIGN   8260>>ASSIGN
GLOBAL_PTRS.VLP$DEBUGGER$
      5192**DCL      7710--IMP-PTR  8178<<ASSIGN
GLOBAL_PTRS.VLP$FID$
      5208**DCL      7858--IMP-PTR  8218<<ASSIGN   8289>>ASSIGN   8390>>ASSIGN   8391>>ASSIGN
GLOBAL_PTRS.VLP$GDS$
      5214**DCL      7932--IMP-PTR  8227<<ASSIGN   8228>>ASSIGN   8276>>ASSIGN   8439>>ASSIGN
GLOBAL_PTRS.VLP$IFPARAM_PASS_TRADER$
      5200**DCL      7789--IMP-PTR  8190<<ASSIGN   8191>>ASSIGN   8192>>ASSIGN   8193>>ASSIGN   8196>>ASSIGN
      8198>>ASSIGN   8199>>ASSIGN   8201>>ASSIGN   8203>>ASSIGN
GLOBAL_PTRS.VLP$KEY$
      5186**DCL      7649--IMP-PTR  8168<<ASSIGN   8247>>ASSIGN   8253>>ASSIGN   8305>>ASSIGN
GLOBAL_PTRS.VLP$LKEY$
      5190**DCL      7681--IMP-PTR  8174<<ASSIGN   8175>>ASSIGN   8306>>ASSIGN
GLOBAL_PTRS.VLP$MSGTYP$
      5194**DCL      7739--IMP-PTR  8181<<ASSIGN   8414>>ASSIGN   8425>>CALLBLT
GLOBAL_PTRS.VLP$NAME$
      5176**DCL      7560--IMP-PTR  8152<<ASSIGN   8282>>ASSIGN   8297>>ASSIGN   8393>>ASSIGN
GLOBAL_PTRS.VLP$NAME_TRADER$
      5196**DCL      7768--IMP-PTR  8184<<ASSIGN   8393>>ASSIGN
GLOBAL_PTRS.VLP$PASS$
      5180**DCL      7590--IMP-PTR  8158<<ASSIGN   8284>>ASSIGN
GLOBAL_PTRS.VLP$SETSTA$
      5212**DCL      7903--IMP-PTR  8224<<ASSIGN   8342>>ASSIGN
GLOBAL_PTRS.VLP$SN$
      5182**DCL      7605--IMP-PTR  8161<<ASSIGN   8162>>ASSIGN   8285>>ASSIGN   8296>>ASSIGN   8395>>ASSIGN
GLOBAL_PTRS.VLP$SN_TRADER$
      5204**DCL      7812--IMP-PTR  8210<<ASSIGN   8211>>ASSIGN   8395>>ASSIGN
GLOBAL_PTRS.VLP$STATION$
      5210**DCL      7874--IMP-PTR  8221<<ASSIGN   8324>>ASSIGN   8330>>ASSIGN
GLOBAL_PTRS.VLP$TIME$
      5218**DCL      7964--IMP-PTR  8234<<ASSIGN   8353>>ASSIGN
GLOBAL_PTRS.VLP$VECTOR$
      5206**DCL      7827--IMP-PTR  8214<<ASSIGN   8215>>ASSIGN
GLOBAL_PTRS.VLP$WSN$
PL6.E3A0      #001=QXA$INIT File=QXA$INIT.:E05TSI                                WED 07/30/97 05:52 Page:102
      5184**DCL      7620--IMP-PTR  8165<<ASSIGN   8286>>ASSIGN
GLOBAL_PTRS.VLR$ERRMSG$
      5222**DCL      8000--IMP-PTR  8240<<ASSIGN   8336>>ASSIGN
GLOBAL_PTRS.VLR$FID$
      5220**DCL      7979--IMP-PTR  8237<<ASSIGN   8290>>ASSIGN
GLOBAL_PTRS.XUG$GETCMD$
      5262**DCL      7184--IMP-PTR  8368<<ASSIGN   8369>>ASSIGN
IBEX
      5140**DCL      5362--DCLINIT
M$CPEXIT
      3843**DCL-ENT  8089--CALL
M$FID
      3892**DCL-ENT  8392--CALL
M$GDS
      3864**DCL-ENT  8149--CALL     8440--CALL
M$SCON
      3845**DCL-ENT  8093--CALL
M$XCON
      3884**DCL-ENT  8092--CALL
MON_ERR
      8448**LABEL    8392--CALLALT  8440--CALLALT
P$
      5267**DCL      8151<<ASSIGN   8152>>ASSIGN   8154<<ASSIGN   8154>>ASSIGN   8155>>ASSIGN   8157<<ASSIGN
      8157>>ASSIGN   8158>>ASSIGN   8160<<ASSIGN   8160>>ASSIGN   8161>>ASSIGN   8164<<ASSIGN   8164>>ASSIGN
      8165>>ASSIGN   8167<<ASSIGN   8167>>ASSIGN   8168>>ASSIGN   8170<<ASSIGN   8170>>ASSIGN   8171>>ASSIGN
      8173<<ASSIGN   8173>>ASSIGN   8174>>ASSIGN   8177<<ASSIGN   8177>>ASSIGN   8178>>ASSIGN   8180<<ASSIGN
      8180>>ASSIGN   8181>>ASSIGN   8183<<ASSIGN   8183>>ASSIGN   8184>>ASSIGN   8186<<ASSIGN   8186>>ASSIGN
      8187>>ASSIGN   8189<<ASSIGN   8189>>ASSIGN   8190>>ASSIGN   8206<<ASSIGN   8206>>ASSIGN   8207>>ASSIGN
      8209<<ASSIGN   8209>>ASSIGN   8210>>ASSIGN   8213<<ASSIGN   8213>>ASSIGN   8214>>ASSIGN   8217<<ASSIGN
      8217>>ASSIGN   8218>>ASSIGN   8220<<ASSIGN   8220>>ASSIGN   8221>>ASSIGN   8223<<ASSIGN   8223>>ASSIGN
      8224>>ASSIGN   8226<<ASSIGN   8226>>ASSIGN   8227>>ASSIGN   8230<<ASSIGN   8230>>ASSIGN   8231>>ASSIGN
      8233<<ASSIGN   8233>>ASSIGN   8234>>ASSIGN   8236<<ASSIGN   8236>>ASSIGN   8237>>ASSIGN   8239<<ASSIGN
      8239>>ASSIGN   8240>>ASSIGN   8242<<ASSIGN   8242>>ASSIGN   8243>>ASSIGN   8249<<ASSIGN   8249>>ASSIGN
      8250>>ASSIGN   8256<<ASSIGN   8256>>ASSIGN   8257>>ASSIGN   8263<<ASSIGN   8263>>ASSIGN   8264>>ASSIGN
      8269<<ASSIGN   8269>>ASSIGN   8270>>ASSIGN   8272<<ASSIGN   8272>>ASSIGN   8273>>ASSIGN   8278<<ASSIGN
      8278>>ASSIGN   8279>>ASSIGN   8292<<ASSIGN   8292>>ASSIGN   8293>>ASSIGN   8301<<ASSIGN   8301>>ASSIGN
PL6.E3A0      #001=QXA$INIT File=QXA$INIT.:E05TSI                                WED 07/30/97 05:52 Page:103
      8302>>ASSIGN   8309<<ASSIGN   8309>>ASSIGN   8310>>ASSIGN   8315<<ASSIGN   8315>>ASSIGN   8316>>ASSIGN
      8320<<ASSIGN   8320>>ASSIGN   8321>>ASSIGN   8326<<ASSIGN   8326>>ASSIGN   8327>>ASSIGN   8332<<ASSIGN
      8332>>ASSIGN   8333>>ASSIGN   8338<<ASSIGN   8338>>ASSIGN   8339>>ASSIGN   8344<<ASSIGN   8344>>ASSIGN
      8345>>ASSIGN   8349<<ASSIGN   8349>>ASSIGN   8350>>ASSIGN   8355<<ASSIGN   8355>>ASSIGN   8356>>ASSIGN
      8359<<ASSIGN   8359>>ASSIGN   8361>>ASSIGN   8362>>ASSIGN   8364<<ASSIGN   8364>>ASSIGN   8365>>ASSIGN
      8367<<ASSIGN   8367>>ASSIGN   8368>>ASSIGN   8371<<ASSIGN   8371>>ASSIGN   8372>>ASSIGN
PERM
      8432**LABEL    8425--CALLALT
POS
      5170**DCL      8388<<ASSIGN   8389>>ASSIGN   8391>>ASSIGN   8396<<ASSIGN   8396>>ASSIGN   8398>>ASSIGN
      8400<<ASSIGN   8400>>ASSIGN   8401>>IF       8406<<ASSIGN   8406>>ASSIGN   8407>>IF       8412<<ASSIGN
      8412>>ASSIGN   8414>>ASSIGN   8416<<ASSIGN   8416>>ASSIGN   8417>>IF       8422<<ASSIGN   8422>>ASSIGN
      8423>>ASSIGN   8425<<CALLBLT
QQERRMSG
      5100**DCL      6454--DCLINIT
QX$GLOBAL
      8037**DCL      8095--ASSIGN
QX$GLOBAL.EXITING
      8044**DCL      8375<<ASSIGN
QX$GLOBAL.NOW
      8050**DCL      8378<<ASSIGN   8419<<ASSIGN
QX$GLOBAL.PERM
      8048**DCL      8376<<ASSIGN   8432<<ASSIGN
QX$GLOBAL.SEMIPERM
      8046**DCL      8377<<ASSIGN   8427<<ASSIGN
QX$GLOBAL.SETS
      8038**DCL      8373<<ASSIGN
QX$GLOBAL.SETSTA_LOCKED
      8040**DCL      8374<<ASSIGN
QX$GLOBAL.TIMEOUT
      8052**DCL      8423<<ASSIGN
QXA$XCON
      4977**DCL-ENT  5328--DCLINIT
QXC$SCREECH
      4978**DCL-ENT  8449--CALL     8453--CALL
QX_GLOBAL.DS2$_BITS
PL6.E3A0      #001=QXA$INIT File=QXA$INIT.:E05TSI                                WED 07/30/97 05:52 Page:104
       678**DCL       678--REDEF
QX_GLOBAL.DS4$_BITS
       678**DCL       679--REDEF
QX_GLOBAL.GLOBAL$PTRS$
       678**DCL      5455--IMP-PTR  8147>>ASSIGN   8151>>ASSIGN   8381>>ASSIGN
QX_GLOBAL.QT$ENTRY$
       679**DCL      8439>>ASSIGN   8443>>ASSIGN
SCREECH
      8452**LABEL    8089--CALLALT  8092--CALLALT  8093--CALLALT  8149--CALLALT
SPACE_NEEDED
      5172**DCL      8095<<ASSIGN   8148>>ASSIGN
VLP$ACCT
      7575**DCL      8095--ASSIGN   8157--ASSIGN   8283--ASSIGN   8298--ASSIGN   8394>>ASSIGN
VLP$ACCT_TRADER
      7783**DCL      8095--ASSIGN   8189--ASSIGN   8394<<ASSIGN
VLP$ASN
      7937**DCL      8095--ASSIGN   8233--ASSIGN   8287--ASSIGN
VLP$CODE07_PASS_TRADER
      7797**DCL      8095--ASSIGN   8193--ASSIGN   8196--ASSIGN   8201--ASSIGN   8203--ASSIGN   8209--ASSIGN
VLP$CODE07_PASS_TRADER.PASS
      7797**DCL      8397--ASSIGN   8398<<ASSIGN   8400--ASSIGN
VLP$DCBNUM
      7652**DCL      8095--ASSIGN   8173--ASSIGN   8260--ASSIGN
VLP$DEBUGGER
      7710**DCL      8095--ASSIGN   8180--ASSIGN
VLP$FID
      7858**DCL      8095--ASSIGN   8220--ASSIGN
VLP$FID.L#
      7858**DCL      8390<<ASSIGN
VLP$FID.NAME#
      7858**DCL      8289--ASSIGN   8391<<ASSIGN
VLP$GDS
      7932**DCL      8095--ASSIGN   8228<<ASSIGN   8230--ASSIGN   8276--ASSIGN
VLP$GDS.PTR$
      7934**DCL      8439<<ASSIGN
VLP$GDS.W2
PL6.E3A0      #001=QXA$INIT File=QXA$INIT.:E05TSI                                WED 07/30/97 05:52 Page:105
      7933**DCL      7934--REDEF
VLP$IFPARAM_PASS_TRADER
      7789**DCL      8095--ASSIGN   8193--ASSIGN   8199--ASSIGN   8206--ASSIGN
VLP$IFPARAM_PASS_TRADER.CODES.CODE
      7789**DCL      8191<<ASSIGN   8198<<ASSIGN
VLP$IFPARAM_PASS_TRADER.CODES.ITEMX
      7789**DCL      8192<<ASSIGN   8199<<ASSIGN
VLP$IFPARAM_PASS_TRADER.CODES.NAW
      7789**DCL      8193<<ASSIGN   8201<<ASSIGN
VLP$IFPARAM_PASS_TRADER.CODES.NDW
      7789**DCL      8196<<ASSIGN   8203<<ASSIGN
VLP$KEY
      7649**DCL      8095--ASSIGN   8170--ASSIGN   8247--ASSIGN   8253--ASSIGN   8305--ASSIGN
VLP$LKEY
      7681**DCL      8095--ASSIGN   8175<<ASSIGN   8177--ASSIGN   8306--ASSIGN
VLP$MSGTYP
      7739**DCL      8095--ASSIGN   8183--ASSIGN
VLP$MSGTYP.NAME#
      7739**DCL      8413--ASSIGN   8414<<ASSIGN   8425>>CALLBLT
VLP$NAME
      7560**DCL      8095--ASSIGN   8154--ASSIGN   8282--ASSIGN   8297--ASSIGN   8393>>ASSIGN
VLP$NAME_TRADER
      7768**DCL      8095--ASSIGN   8186--ASSIGN   8393<<ASSIGN
VLP$PASS
      7590**DCL      8095--ASSIGN   8160--ASSIGN   8284--ASSIGN
VLP$SETSTA
      7903**DCL      8095--ASSIGN   8226--ASSIGN   8342--ASSIGN
VLP$SN
      7605**DCL      8095--ASSIGN   8164--ASSIGN   8285--ASSIGN   8296--ASSIGN   8395>>ASSIGN
VLP$SN.NUM#
      7605**DCL      8162<<ASSIGN
VLP$SN_TRADER
      7812**DCL      8095--ASSIGN   8213--ASSIGN   8395<<ASSIGN
VLP$SN_TRADER.NUM#
      7812**DCL      8211<<ASSIGN
VLP$STATION
PL6.E3A0      #001=QXA$INIT File=QXA$INIT.:E05TSI                                WED 07/30/97 05:52 Page:106
      7874**DCL      8095--ASSIGN   8223--ASSIGN   8324--ASSIGN   8330--ASSIGN
VLP$STATION.MSGIDXT
      7884**DCL      7887--REDEF
VLP$TIME
      7964**DCL      8095--ASSIGN   8236--ASSIGN   8353--ASSIGN
VLP$VECTOR
      7827**DCL      8095--ASSIGN   8217--ASSIGN
VLP$VECTOR.W1.TYP#
      7827**DCL      8215<<ASSIGN
VLP$VECTOR.W2
      7828**DCL      7829--REDEF
VLP$WSN
      7620**DCL      8095--ASSIGN   8167--ASSIGN   8286--ASSIGN
VLP_ACCT_SYS
      5113**DCL      5362--DCLINIT  6454--DCLINIT
VLP_RES
      5273**DCL      8288--ASSIGN
VLP_VECTOR
      5409**DCL      8146>>ASSIGN   8228>>ASSIGN
VLP_VECTOR.W2
      5410**DCL      5411--REDEF
VLP_VECTOR_AUTO
      5425**DCL      8145--ASSIGN   8146<<ASSIGN
VLP_VECTOR_AUTO.PTR$
      5427**DCL      8147<<ASSIGN
VLP_VECTOR_AUTO.W2
      5426**DCL      5427--REDEF
VLR$ERRMSG
      8000**DCL      8095--ASSIGN   8242--ASSIGN   8336--ASSIGN
VLR$FID
      7979**DCL      8095--ASSIGN   8239--ASSIGN   8290--ASSIGN
WORRD
      5046**DCL      8423>>ASSIGN
XUG$GETCMD
      7184**DCL      8095--ASSIGN   8369<<ASSIGN   8371--ASSIGN
XUG$GETCMD.OUT$
PL6.E3A0      #001=QXA$INIT File=QXA$INIT.:E05TSI                                WED 07/30/97 05:52 Page:107
      7189**DCL      7195--REDEF
XUG_GETCMD
      6845**DCL      8369>>ASSIGN
XUG_GETCMD.OUT$
      6850**DCL      6856--REDEF
