VERSION E05

PL6.E3A0      #001=QXC$BLDMSG_ERRBLK File=QXC$BLDMSG_ERRBLK.:E05TSI              WED 07/30/97 05:55 Page:1
        1        1        /*M* QXC$BLDMSG_ERRBLK - TPCP initialize message block */
        2        2        /*T***********************************************************/
        3        3        /*T*                                                         */
        4        4        /*T* Copyright (c) Bull HN Information Systems Inc., 1997    */
        5        5        /*T*                                                         */
        6        6        /*T***********************************************************/
        7        7        /*X* IND=2, DCI=4, CSU=2, ECU=4, DTI=2, CTI=4, AND */
        8        8        QXC$BLDMSG_ERRBLK:
        9        9                PROC(P_MSGBLK);
       10       10
       11       11        %INCLUDE Q_PAGE_C;
       12       43        %SET LISTEXP = '1'B;
       13       44        %PAGE(ARG="Includes");

                61        /***************************************************************************
                62         *                                                                         *
                63         *                                  Includes                               *
                64         *                                                                         *
                65         ***************************************************************************/

       14       69        %INCLUDE CP_6;
       15      150        %INCLUDE QQ_MACROS_C;
       16      575        %INCLUDE QX_MACROS_C;
       17      710        %PAGE(ARG="Parameters");

               727    1   /***************************************************************************
               728    1    *                                                                         *
               729    1    *                                 Parameters                              *
               730    1    *                                                                         *
               731    1    ***************************************************************************/

       18      735        %MSGBLK(FPTN=P_MSGBLK);
       19      825        %PAGE(ARG="Symrefs");

               842    1   /***************************************************************************
               843    1    *                                                                         *
               844    1    *                                  Symrefs                                *
PL6.E3A0      #001=QXC$BLDMSG_ERRBLK File=QXC$BLDMSG_ERRBLK.:E05TSI              WED 07/30/97 05:55 Page:2
               845    1    *                                                                         *
               846    1    ***************************************************************************/

       20      850    1   DCL B$TCB$ PTR SYMREF;
       21      851        %PAGE(ARG="Based");

               868    1   /***************************************************************************
               869    1    *                                                                         *
               870    1    *                                   Based                                 *
               871    1    *                                                                         *
               872    1    ***************************************************************************/

       22      876        %B$TCB;
       23      879        %B$ALT;
       24      887        %F$DCB;
       25      944        %VLP_STATION(FPTN=VLP$STATION, STCLASS=BASED);
       26      971        %PAGE(ARG="QXC$BLDMSG_ERRBLK", PAGE=YES);

PL6.E3A0      #001=QXC$BLDMSG_ERRBLK File=QXC$BLDMSG_ERRBLK.:E05TSI              WED 07/30/97 05:55 Page:3
               988    1   /***************************************************************************
               989    1    *                                                                         *
               990    1    *                             QXC$BLDMSG_ERRBLK                           *
               991    1    *                                                                         *
               992    1    ***************************************************************************/

       27      996    1           P_MSGBLK = '0'B;
       28      997    1           P_MSGBLK.ID = DCBADDR(DCBNUM(M$UC)) -> F$DCB.LASTSTA$ ->
       29      998    1               VLP$STATION.STATION#;
       30      999    1           P_MSGBLK.TEXT$ = ADDR(NIL);
       31     1000    1           P_MSGBLK.FLAGS.DEST.MCT = '1'B;
       32     1001    1           P_MSGBLK.FLAGS.REPORT = '1'B;
       33     1002    1           P_MSGBLK.CODECNT = 2;
       34     1003    1           P_MSGBLK.ERRINFO.ERR(0) = B$TCB$ -> B$TCB.ALT$ -> B$ALT.ERR;
       35     1004    1           P_MSGBLK.ERRINFO.DCB#(0) = B$TCB$ -> B$TCB.ALT$ -> B$ALT.DCB#;
       36     1005    1           P_MSGBLK.ERRINFO.FIELD1(0) = VECTOR(NIL);
       37     1006    1           P_MSGBLK.ERRINFO.FIELD1(1) = VECTOR(NIL);
       38     1007    1           P_MSGBLK.ERRINFO.FIELD2(0) = VECTOR(NIL);
       39     1008    1           P_MSGBLK.ERRINFO.FIELD2(1) = VECTOR(NIL);
       40     1009    1           P_MSGBLK.ERRINFO.FIELD3(0) = VECTOR(NIL);
       41     1010    1           P_MSGBLK.ERRINFO.FIELD3(1) = VECTOR(NIL);
       42     1011    1           RETURN;
       43     1012    1   END QXC$BLDMSG_ERRBLK;

PL6.E3A0      #001=QXC$BLDMSG_ERRBLK File=QXC$BLDMSG_ERRBLK.:E05TSI              WED 07/30/97 05:55 Page:4
--  Include file information  --

   QX_MACROS_C.:E05TOU  is referenced.
   QQ_MACROS_C.:E05TOU  is referenced.
   CP_6.:E05TOU  cannot be made into a system file and is referenced.
   Q_PAGE_C.:E05TOU  is referenced.
   B$JIT_C.:E05TOU  was found in the system file and is never referenced.
   CP_6_C.:E05TOU  was found in the system file and is referenced.
      No diagnostics issued in procedure QXC$BLDMSG_ERRBLK.

   Procedure QXC$BLDMSG_ERRBLK requires 49 words for executable code.
   Procedure QXC$BLDMSG_ERRBLK requires 4 words of local(AUTO) storage.

    No errors detected in file QXC$BLDMSG_ERRBLK.:E05TSI    .

PL6.E3A0      #001=QXC$BLDMSG_ERRBLK File=QXC$BLDMSG_ERRBLK.:E05TSI              WED 07/30/97 05:55 Page:5

 Object Unit name= QXC$BLDMSG_ERRBLK                          File name= QXC$BLDMSG_ERRBLK.:E05TOU
 UTS= JUL 30 '97 05:55:15.76 WED                              Compiler= PL-6/E31         Sev=      00
 SharedLib= :SHARED_SYSTEM                                    Alt SharedLib=


    ****  Control sections  ****

 Sect   Type Bound  Init  Size OctSiz  Section name(segment info)
    0   DCB   even  none     0      0  M$UC
    1   Proc  even  none    49     61  QXC$BLDMSG_ERRBLK
    2  RoData even  none     4      4  QXC$BLDMSG_ERRBLK

    ****  Entry defs  ****

                              Check   Calling
                             calling  sequence
  Sect OctLoc Primary Altret sequence   type   Parms  Name
     1      0   yes            yes      Std        1  QXC$BLDMSG_ERRBLK

  ****  Entry refs  ****

         Check        Calling
        calling       sequence
Altret sequence SRef   type   Args  Name
                       nStd      0 X66_AUTO_1
                       Std       0 B_CONSPOOL_D
                       nStd      0 X66_ARET

  ****  Data refs  ****

  Flags:  r = read only, s = secondary
Flgs Name                             Flgs Name                             Flgs Name
     M$UC                                  B$TCB$                                B_VECTNIL
PL6.E3A0      #001=QXC$BLDMSG_ERRBLK File=QXC$BLDMSG_ERRBLK.:E05TSI              WED 07/30/97 05:55 Page:6

  ****  Segment refs  ****

  Flags:  r = read only, s = secondary
Flgs Name                             Flgs Name                             Flgs Name
     ROSID                                 NULLSID
PL6.E3A0      #001=QXC$BLDMSG_ERRBLK File=QXC$BLDMSG_ERRBLK.:E05TSI              WED 07/30/97 05:55 Page:7


        1        1        /*M* QXC$BLDMSG_ERRBLK - TPCP initialize message block */
        2        2        /*T***********************************************************/
        3        3        /*T*                                                         */
        4        4        /*T* Copyright (c) Bull HN Information Systems Inc., 1997    */
        5        5        /*T*                                                         */
        6        6        /*T***********************************************************/
        7        7        /*X* IND=2, DCI=4, CSU=2, ECU=4, DTI=2, CTI=4, AND */
        8        8        QXC$BLDMSG_ERRBLK:
        9        9                PROC(P_MSGBLK);

      9  1 000000   000000 700200 xent  QXC$BLDMSG_* TSX0  ! X66_AUTO_1
         1 000001   000004 000001                    ZERO    4,1

       10       10
       11       11        %INCLUDE Q_PAGE_C;
       12       43        %SET LISTEXP = '1'B;
       13       44        %PAGE(ARG="Includes");

                61        /***************************************************************************
                62         *                                                                         *
                63         *                                  Includes                               *
                64         *                                                                         *
                65         ***************************************************************************/

       14       69        %INCLUDE CP_6;
       15      150        %INCLUDE QQ_MACROS_C;
       16      575        %INCLUDE QX_MACROS_C;
       17      710        %PAGE(ARG="Parameters");

               727    1   /***************************************************************************
               728    1    *                                                                         *
               729    1    *                                 Parameters                              *
               730    1    *                                                                         *
               731    1    ***************************************************************************/

       18      735        %MSGBLK(FPTN=P_MSGBLK);
PL6.E3A0      #001=QXC$BLDMSG_ERRBLK File=QXC$BLDMSG_ERRBLK.:E05TSI              WED 07/30/97 05:55 Page:8
       19      825        %PAGE(ARG="Symrefs");

               842    1   /***************************************************************************
               843    1    *                                                                         *
               844    1    *                                  Symrefs                                *
               845    1    *                                                                         *
               846    1    ***************************************************************************/

       20      850    1   DCL B$TCB$ PTR SYMREF;
       21      851        %PAGE(ARG="Based");

               868    1   /***************************************************************************
               869    1    *                                                                         *
               870    1    *                                   Based                                 *
               871    1    *                                                                         *
               872    1    ***************************************************************************/

       22      876        %B$TCB;
       23      879        %B$ALT;
       24      887        %F$DCB;
       25      944        %VLP_STATION(FPTN=VLP$STATION, STCLASS=BASED);
       26      971        %PAGE(ARG="QXC$BLDMSG_ERRBLK", PAGE=YES);

PL6.E3A0      #001=QXC$BLDMSG_ERRBLK File=QXC$BLDMSG_ERRBLK.:E05TSI              WED 07/30/97 05:55 Page:9
               988    1   /***************************************************************************
               989    1    *                                                                         *
               990    1    *                             QXC$BLDMSG_ERRBLK                           *
               991    1    *                                                                         *
               992    1    ***************************************************************************/

       27      996    1           P_MSGBLK = '0'B;

    996  1 000002   200003 470500                    LDP0    @P_MSGBLK,,AUTO
         1 000003   000100 100400                    MLR     fill='000'O
         1 000004   000002 000001 xsym               ADSC9   B_VECTNIL+2              cn=0,n=1
         1 000005   000000 000122                    ADSC9   0,,PR0                   cn=0,n=82

       28      997    1           P_MSGBLK.ID = DCBADDR(DCBNUM(M$UC)) -> F$DCB.LASTSTA$ ->

    997  1 000006   000000 236007 xsym               LDQ     M$UC,DL
         1 000007   000000 471400 2                  LDP1    0
         1 000010   100000 473500                    LDP3    0,,PR1
         1 000011   300000 474506                    LDP4    0,QL,PR3
         1 000012   400007 475500                    LDP5    7,,PR4
         1 000013   040100 100500                    MLR     fill='040'O
         1 000014   500000 000010                    ADSC9   0,,PR5                   cn=0,n=8
         1 000015   000000 000010                    ADSC9   0,,PR0                   cn=0,n=8

       29      998    1               VLP$STATION.STATION#;
       30      999    1           P_MSGBLK.TEXT$ = ADDR(NIL);

    999  1 000016   000001 236000 xsym               LDQ     B_VECTNIL+1
         1 000017   000005 756100                    STQ     5,,PR0

       31     1000    1           P_MSGBLK.FLAGS.DEST.MCT = '1'B;

   1000  1 000020   000020 236003                    LDQ     16,DU
         1 000021   000002 256100                    ORSQ    2,,PR0

       32     1001    1           P_MSGBLK.FLAGS.REPORT = '1'B;

PL6.E3A0      #001=QXC$BLDMSG_ERRBLK File=QXC$BLDMSG_ERRBLK.:E05TSI              WED 07/30/97 05:55 Page:10
   1001  1 000022   100000 236007                    LDQ     32768,DL
         1 000023   000002 256100                    ORSQ    2,,PR0

       33     1002    1           P_MSGBLK.CODECNT = 2;

   1002  1 000024   002000 236007                    LDQ     1024,DL
         1 000025   000003 552110                    STBQ    3,'10'O,PR0

       34     1003    1           P_MSGBLK.ERRINFO.ERR(0) = B$TCB$ -> B$TCB.ALT$ -> B$ALT.ERR;

   1003  1 000026   000000 474400 xsym               LDP4    B$TCB$
         1 000027   400000 475500                    LDP5    0,,PR4
         1 000030   500102 236100                    LDQ     66,,PR5
         1 000031   000006 756100                    STQ     6,,PR0

       35     1004    1           P_MSGBLK.ERRINFO.DCB#(0) = B$TCB$ -> B$TCB.ALT$ -> B$ALT.DCB#;

   1004  1 000032   400000 475500                    LDP5    0,,PR4
         1 000033   500101 236100                    LDQ     65,,PR5
         1 000034   000033 736000                    QLS     27
         1 000035   000007 552140                    STBQ    7,'40'O,PR0

       36     1005    1           P_MSGBLK.ERRINFO.FIELD1(0) = VECTOR(NIL);

   1005  1 000036   000100 100400                    MLR     fill='000'O
         1 000037   000002 000010 2                  ADSC9   2                        cn=0,n=8
         1 000040   000007 200010                    ADSC9   7,,PR0                   cn=1,n=8

       37     1006    1           P_MSGBLK.ERRINFO.FIELD1(1) = VECTOR(NIL);

   1006  1 000041   000100 100400                    MLR     fill='000'O
         1 000042   000002 000010 2                  ADSC9   2                        cn=0,n=8
         1 000043   000016 400010                    ADSC9   14,,PR0                  cn=2,n=8

       38     1007    1           P_MSGBLK.ERRINFO.FIELD2(0) = VECTOR(NIL);

   1007  1 000044   000100 100400                    MLR     fill='000'O
PL6.E3A0      #001=QXC$BLDMSG_ERRBLK File=QXC$BLDMSG_ERRBLK.:E05TSI              WED 07/30/97 05:55 Page:11
         1 000045   000002 000010 2                  ADSC9   2                        cn=0,n=8
         1 000046   000011 200010                    ADSC9   9,,PR0                   cn=1,n=8

       39     1008    1           P_MSGBLK.ERRINFO.FIELD2(1) = VECTOR(NIL);

   1008  1 000047   000100 100400                    MLR     fill='000'O
         1 000050   000002 000010 2                  ADSC9   2                        cn=0,n=8
         1 000051   000020 400010                    ADSC9   16,,PR0                  cn=2,n=8

       40     1009    1           P_MSGBLK.ERRINFO.FIELD3(0) = VECTOR(NIL);

   1009  1 000052   000100 100400                    MLR     fill='000'O
         1 000053   000002 000010 2                  ADSC9   2                        cn=0,n=8
         1 000054   000013 200010                    ADSC9   11,,PR0                  cn=1,n=8

       41     1010    1           P_MSGBLK.ERRINFO.FIELD3(1) = VECTOR(NIL);

   1010  1 000055   000100 100400                    MLR     fill='000'O
         1 000056   000002 000010 2                  ADSC9   2                        cn=0,n=8
         1 000057   000022 400010                    ADSC9   18,,PR0                  cn=2,n=8

       42     1011    1           RETURN;

   1011  1 000060   000000 702200 xent               TSX2  ! X66_ARET
       43     1012    1   END QXC$BLDMSG_ERRBLK;

PL6.E3A0      #001=QXC$BLDMSG_ERRBLK File=QXC$BLDMSG_ERRBLK.:E05TSI              WED 07/30/97 05:55 Page:12
--  Include file information  --

   QX_MACROS_C.:E05TOU  is referenced.
   QQ_MACROS_C.:E05TOU  is referenced.
   CP_6.:E05TOU  cannot be made into a system file and is referenced.
   Q_PAGE_C.:E05TOU  is referenced.
   B$JIT_C.:E05TOU  was found in the system file and is never referenced.
   CP_6_C.:E05TOU  was found in the system file and is referenced.
      No diagnostics issued in procedure QXC$BLDMSG_ERRBLK.
PL6.E3A0      #001=QXC$BLDMSG_ERRBLK File=QXC$BLDMSG_ERRBLK.:E05TSI              WED 07/30/97 05:55 Page:13

 **** Variables and constants ****

  ****  Auto variables  ****

  ****  Scalars and arrays  ****
OctLoc.c.b A Datatyp(siz) R M Lvl/name                 OctLoc.c.b A Datatyp(siz) R M Lvl/name

     3-0-0/w PTR         r     1 @P_MSGBLK                 *0-0-0/w STRC(738)   r     1 P_MSGBLK

  ****  SYMREF variables  ****

  ****  Scalars and arrays  ****
OctLoc.c.b A Datatyp(siz) R M Lvl/name                 OctLoc.c.b A Datatyp(siz) R M Lvl/name

     0-0-0/w PTR         r     1 B$TCB$

  ****  BASED and DCB variables  ****

  ****  Scalars and arrays  ****
OctLoc.c.b A Datatyp(siz) R M Lvl/name                 OctLoc.c.b A Datatyp(siz) R M Lvl/name

     0-0-0/w STRC(2448)  r     1 B$ALT                      0-0-0/w STRC(144)   r     1 B$TCB
     0-0-0/d ASTR(3528)  r     1 F$DCB                      0-0-0N  NULL        r     1 M$UC
     0-0-0/w STRC(288)   r     1 VLP$STATION


   Procedure QXC$BLDMSG_ERRBLK requires 49 words for executable code.
   Procedure QXC$BLDMSG_ERRBLK requires 4 words of local(AUTO) storage.

    No errors detected in file QXC$BLDMSG_ERRBLK.:E05TSI    .
PL6.E3A0      #001=QXC$BLDMSG_ERRBLK File=QXC$BLDMSG_ERRBLK.:E05TSI              WED 07/30/97 05:55 Page:14
          *** CROSS REFERENCE LISTING ***
**     DENOTES     IDENTIFIER DEFINITION
<<                 IDENTIFIER'S VALUE SET
>>                 IDENTIFIER'S VALUE USED
<>                 IDENTIFIER SET AND/OR USED
--                 IDENTIFIER REFERENCED
PL6.E3A0      #001=QXC$BLDMSG_ERRBLK File=QXC$BLDMSG_ERRBLK.:E05TSI              WED 07/30/97 05:55 Page:15
          MINI XREF LISTING

B$ALT.CODE
       881**DCL       881--REDEF     882--REDEF     882--REDEF
B$ALT.DCB#
       882**DCL      1004>>ASSIGN
B$ALT.ERR
       882**DCL      1003>>ASSIGN
B$ALT.ERR.ERR#
       883**DCL       883--REDEF
B$ALT.EVID
       882**DCL       882--REDEF     882--REDEF
B$TCB.ALT$
       877**DCL      1003>>ASSIGN   1004>>ASSIGN
B$TCB$
       850**DCL      1003>>ASSIGN   1004>>ASSIGN
F$DCB.ACTPOS
       920**DCL       920--REDEF
F$DCB.ARS#
       894**DCL       894--REDEF
F$DCB.ATTR
       913**DCL       914--REDEF
F$DCB.BORROW
       928**DCL       928--REDEF     928--REDEF     928--REDEF
F$DCB.DCBNAME.L
       942**DCL       942--IMP-SIZ
F$DCB.EOMCHAR#
       898**DCL       898--REDEF
F$DCB.FLDID
       923**DCL       923--REDEF
F$DCB.FORM$
       917**DCL       917--REDEF
F$DCB.FSECT
       933**DCL       933--REDEF
PL6.E3A0      #001=QXC$BLDMSG_ERRBLK File=QXC$BLDMSG_ERRBLK.:E05TSI              WED 07/30/97 05:55 Page:16
F$DCB.FSN#
       910**DCL       910--REDEF     910--REDEF     911--REDEF
F$DCB.HEADER$
       916**DCL       916--REDEF
F$DCB.IXTNSIZE#
       914**DCL       914--REDEF
F$DCB.LASTSTA$
       903**DCL       903--REDEF     997>>ASSIGN
F$DCB.LVL
       929**DCL       929--REDEF
F$DCB.NAME#.C
       904**DCL       904--REDEF
F$DCB.NOEOF
       926**DCL       926--REDEF
F$DCB.NRECS#
       915**DCL       915--REDEF
F$DCB.NRECX
       934**DCL       934--REDEF
F$DCB.OHDR
       926**DCL       926--REDEF
F$DCB.ORG#
       909**DCL       909--REDEF
F$DCB.PRECNO
       932**DCL       932--REDEF
F$DCB.RCSZ
       938**DCL       938--REDEF
F$DCB.RES#
       905**DCL       905--REDEF
F$DCB.SETX
       917**DCL       917--REDEF
F$DCB.TAB$
       917**DCL       917--REDEF
F$DCB.TDA
       931**DCL       932--REDEF
F$DCB.WSN#
       905**DCL       905--REDEF
PL6.E3A0      #001=QXC$BLDMSG_ERRBLK File=QXC$BLDMSG_ERRBLK.:E05TSI              WED 07/30/97 05:55 Page:17
M$UC
       102**DCL       997--ASSIGN
P_MSGBLK
       736**DCL         8--PROC      996<<ASSIGN
P_MSGBLK.CODECNT
       805**DCL      1002<<ASSIGN
P_MSGBLK.ERRINFO.DCB#
       816**DCL      1004<<ASSIGN
P_MSGBLK.ERRINFO.ERR
       814**DCL      1003<<ASSIGN
P_MSGBLK.ERRINFO.FIELD1
       818**DCL      1005<<ASSIGN   1006<<ASSIGN
P_MSGBLK.ERRINFO.FIELD2
       820**DCL      1007<<ASSIGN   1008<<ASSIGN
P_MSGBLK.ERRINFO.FIELD3
       822**DCL      1009<<ASSIGN   1010<<ASSIGN
P_MSGBLK.FLAGS.DEST.MCT
       782**DCL      1000<<ASSIGN
P_MSGBLK.FLAGS.REPORT
       796**DCL      1001<<ASSIGN
P_MSGBLK.ID
       737**DCL       997<<ASSIGN
P_MSGBLK.TEXT$
       810**DCL       999<<ASSIGN
VLP$STATION.MSGIDXT
       966**DCL       969--REDEF
VLP$STATION.STATION#
       960**DCL       997>>ASSIGN
