VERSION E05

PL6.E3A0      #001=QXC$SCREECH File=QXC$SCREECH.:E05TSI                          WED 07/30/97 05:55 Page:1
        1        1        /*M* QXC$SCREECH - TPCP - Screech routine */
        2        2        /*T***********************************************************/
        3        3        /*T*                                                         */
        4        4        /*T* Copyright (c) Bull HN Information Systems Inc., 1997    */
        5        5        /*T*                                                         */
        6        6        /*T***********************************************************/
        7        7        /*X* IND=2, DCI=4, CSU=2, ECU=4, DTI=2, CTI=4, AND */
        8        8        QXC$SCREECH:
        9        9                PROC(P_SCODE, P_MID, P_SEV);
       10       10
       11       11        %INCLUDE Q_PAGE_C;
       12       43        %SET LISTEXP = '1'B;
       13       44
       14       45        %PAGE(ARG="Includes");

                62        /***************************************************************************
                63         *                                                                         *
                64         *                                  Includes                               *
                65         *                                                                         *
                66         ***************************************************************************/

       15       70        %INCLUDE CP_6;
       16      151        %INCLUDE B$JIT;
       17      441        %INCLUDE CP_6_SUBS;
       18      981        %INCLUDE QX_MACROS_C;
       19     1116        %PAGE(ARG="Parameters");

              1133    1   /***************************************************************************
              1134    1    *                                                                         *
              1135    1    *                                 Parameters                              *
              1136    1    *                                                                         *
              1137    1    ***************************************************************************/

       20     1141    1   DCL P_SCODE UBIN WORD;                  /* SCREECH code                       */
       21     1142    1   DCL P_MID BIT(36) ALIGNED;              /* Module Id of the SCREECHer         */
       22     1143    1   DCL P_SEV UBIN WORD;
       23     1144        %PAGE(ARG="Externally defined routines");
PL6.E3A0      #001=QXC$SCREECH File=QXC$SCREECH.:E05TSI                          WED 07/30/97 05:55 Page:2

              1161    1   /***************************************************************************
              1162    1    *                                                                         *
              1163    1    *                        Externally defined routines                      *
              1164    1    *                                                                         *
              1165    1    ***************************************************************************/

       24     1169    1   DCL QXA$TPCP ENTRY;
       25     1170        %PAGE(ARG="Symrefs");

              1187    1   /***************************************************************************
              1188    1    *                                                                         *
              1189    1    *                                  Symrefs                                *
              1190    1    *                                                                         *
              1191    1    ***************************************************************************/

       26     1195    1   DCL B$JIT$ PTR SYMREF;
       27     1196        %PAGE(ARG="FPTs",PAGE=YES);

PL6.E3A0      #001=QXC$SCREECH File=QXC$SCREECH.:E05TSI                          WED 07/30/97 05:55 Page:3
              1213    1   /***************************************************************************
              1214    1    *                                                                         *
              1215    1    *                                    FPTs                                 *
              1216    1    *                                                                         *
              1217    1    ***************************************************************************/

       28     1221        %FPT_SCREECH(STCLASS=CONSTANT);
       29     1235
       30     1236        %FPT_SCREECH(FPTN=FPT$SCREECH, STCLASS=);
       31     1250        %VLP_SCODE(FPTN=SC_SCODE, STCLASS=CONSTANT,  FCG=QX, MON=NO,
       32     1251        MID=A, SPBUF=NO, ROSEG=YES, ISEG=YES, CPSEG=YES, CGDATA=YES,
       33     1252        CURCG=YES, CUSR=YES, PPUT=YES, FMBUF=YES, DDSEG=YES);
       34     1313
       35     1314        %VLP_SCODE(FPTN=SC$SCODE,  STCLASS=AUTO);
       36     1375        %PAGE(ARG="QXC$SCREECH",PAGE=YES);

PL6.E3A0      #001=QXC$SCREECH File=QXC$SCREECH.:E05TSI                          WED 07/30/97 05:55 Page:4
              1392    1   /***************************************************************************
              1393    1    *                                                                         *
              1394    1    *                                QXC$SCREECH                              *
              1395    1    *                                                                         *
              1396    1    ***************************************************************************/

       37     1400    1           FPT$SCREECH = FPT_SCREECH;
       38     1401    1           FPT$SCREECH.SCODE_ = VECTOR(SC$SCODE);
       39     1402    1           FPT$SCREECH.JERR_ = VECTOR(B$JIT.USRERR);
       40     1403    1           SC$SCODE = SC_SCODE;
       41     1404    1           SC$SCODE.CODE# = P_SCODE;
       42     1405    1           SC$SCODE.MID# = P_MID;
       43     1406    1           SC$SCODE.SEV# = P_SEV;
       44     1407
       45     1408    1           IF B$JIT.CPFLAGS1 & '000000000002'O /* CP_SCREECH# */ OR
       46     1409    1               P_SEV = 6 THEN
       47     1410    2             DO;
       48     1411    2               CALL M$SCREECH(FPT$SCREECH); /* SUA dump                          */
       49     1412    2             END;
       50     1413
       51     1414    1           B$JIT.CPFLAGS1 = B$JIT.CPFLAGS1 | '000000000002'O /* CP_SCREECH# */;
       52     1415    1           CALL M$SCREECH(FPT$SCREECH);    /* SNAP dump                          */
       53     1416
       54     1417    1           CALL QXA$TPCP;                  /* Try to log the guy off             */
       55     1418    1   END QXC$SCREECH;

PL6.E3A0      #001=QXC$SCREECH File=QXC$SCREECH.:E05TSI                          WED 07/30/97 05:55 Page:5
--  Include file information  --

   QX_MACROS_C.:E05TOU  is referenced.
   CP_6_SUBS.:E05TOU  is referenced.
   B$JIT.:E05TOU  cannot be made into a system file and is referenced.
   CP_6.:E05TOU  cannot be made into a system file and is referenced.
   Q_PAGE_C.:E05TOU  is referenced.
   B$JIT_C.:E05TOU  was found in the system file and is referenced.
   CP_6_C.:E05TOU  was found in the system file and is referenced.
      No diagnostics issued in procedure QXC$SCREECH.

   Procedure QXC$SCREECH requires 52 words for executable code.
   Procedure QXC$SCREECH requires 16 words of local(AUTO) storage.

    No errors detected in file QXC$SCREECH.:E05TSI    .

PL6.E3A0      #001=QXC$SCREECH File=QXC$SCREECH.:E05TSI                          WED 07/30/97 05:55 Page:6

 Object Unit name= QXC$SCREECH                                File name= QXC$SCREECH.:E05TOU
 UTS= JUL 30 '97 05:55:29.92 WED                              Compiler= PL-6/E31         Sev=      00
 SharedLib= :SHARED_SYSTEM                                    Alt SharedLib=


    ****  Control sections  ****

 Sect   Type Bound  Init  Size OctSiz  Section name(segment info)
    0   DCB   even  none     0      0  M$UC
    1  RoData even  UTS      8     10  QXC$SCREECH
    2   Proc  even  none    52     64  QXC$SCREECH
    3  RoData even  none     1      1  QXC$SCREECH

    ****  Entry defs  ****

                              Check   Calling
                             calling  sequence
  Sect OctLoc Primary Altret sequence   type   Parms  Name
     2      0   yes            yes      Std        3  QXC$SCREECH

  ****  Entry refs  ****

         Check        Calling
        calling       sequence
Altret sequence SRef   type   Args  Name
         yes           Std       0 QXA$TPCP
                       Std       0 B_CONSPOOL_D
                       nStd      0 X66_AUTO_3
                       nStd      0 X66_ARET

  ****  Data refs  ****

  Flags:  r = read only, s = secondary
Flgs Name                             Flgs Name                             Flgs Name
     M$UC                                  B$JIT$                                B_VECTNIL
PL6.E3A0      #001=QXC$SCREECH File=QXC$SCREECH.:E05TSI                          WED 07/30/97 05:55 Page:7

  ****  Segment refs  ****

  Flags:  r = read only, s = secondary
Flgs Name                             Flgs Name                             Flgs Name
     NULLSID
PL6.E3A0      #001=QXC$SCREECH File=QXC$SCREECH.:E05TSI                          WED 07/30/97 05:55 Page:8


        1        1        /*M* QXC$SCREECH - TPCP - Screech routine */
        2        2        /*T***********************************************************/
        3        3        /*T*                                                         */
        4        4        /*T* Copyright (c) Bull HN Information Systems Inc., 1997    */
        5        5        /*T*                                                         */
        6        6        /*T***********************************************************/
        7        7        /*X* IND=2, DCI=4, CSU=2, ECU=4, DTI=2, CTI=4, AND */
        8        8        QXC$SCREECH:
        9        9                PROC(P_SCODE, P_MID, P_SEV);

      9  2 000000   000000 700200 xent  QXC$SCREECH  TSX0  ! X66_AUTO_3
         2 000001   000020 000003                    ZERO    16,3

       10       10
       11       11        %INCLUDE Q_PAGE_C;
       12       43        %SET LISTEXP = '1'B;
       13       44
       14       45        %PAGE(ARG="Includes");

                62        /***************************************************************************
                63         *                                                                         *
                64         *                                  Includes                               *
                65         *                                                                         *
                66         ***************************************************************************/

       15       70        %INCLUDE CP_6;
       16      151        %INCLUDE B$JIT;
       17      441        %INCLUDE CP_6_SUBS;
       18      981        %INCLUDE QX_MACROS_C;
       19     1116        %PAGE(ARG="Parameters");

              1133    1   /***************************************************************************
              1134    1    *                                                                         *
              1135    1    *                                 Parameters                              *
              1136    1    *                                                                         *
              1137    1    ***************************************************************************/
PL6.E3A0      #001=QXC$SCREECH File=QXC$SCREECH.:E05TSI                          WED 07/30/97 05:55 Page:9

       20     1141    1   DCL P_SCODE UBIN WORD;                  /* SCREECH code                       */
       21     1142    1   DCL P_MID BIT(36) ALIGNED;              /* Module Id of the SCREECHer         */
       22     1143    1   DCL P_SEV UBIN WORD;
       23     1144        %PAGE(ARG="Externally defined routines");

              1161    1   /***************************************************************************
              1162    1    *                                                                         *
              1163    1    *                        Externally defined routines                      *
              1164    1    *                                                                         *
              1165    1    ***************************************************************************/

       24     1169    1   DCL QXA$TPCP ENTRY;
       25     1170        %PAGE(ARG="Symrefs");

              1187    1   /***************************************************************************
              1188    1    *                                                                         *
              1189    1    *                                  Symrefs                                *
              1190    1    *                                                                         *
              1191    1    ***************************************************************************/

       26     1195    1   DCL B$JIT$ PTR SYMREF;
       27     1196        %PAGE(ARG="FPTs",PAGE=YES);

PL6.E3A0      #001=QXC$SCREECH File=QXC$SCREECH.:E05TSI                          WED 07/30/97 05:55 Page:10
              1213    1   /***************************************************************************
              1214    1    *                                                                         *
              1215    1    *                                    FPTs                                 *
              1216    1    *                                                                         *
              1217    1    ***************************************************************************/

       28     1221        %FPT_SCREECH(STCLASS=CONSTANT);
       29     1235
       30     1236        %FPT_SCREECH(FPTN=FPT$SCREECH, STCLASS=);
       31     1250        %VLP_SCODE(FPTN=SC_SCODE, STCLASS=CONSTANT,  FCG=QX, MON=NO,
       32     1251        MID=A, SPBUF=NO, ROSEG=YES, ISEG=YES, CPSEG=YES, CGDATA=YES,
       33     1252        CURCG=YES, CUSR=YES, PPUT=YES, FMBUF=YES, DDSEG=YES);
       34     1313
       35     1314        %VLP_SCODE(FPTN=SC$SCODE,  STCLASS=AUTO);
       36     1375        %PAGE(ARG="QXC$SCREECH",PAGE=YES);

PL6.E3A0      #001=QXC$SCREECH File=QXC$SCREECH.:E05TSI                          WED 07/30/97 05:55 Page:11
              1392    1   /***************************************************************************
              1393    1    *                                                                         *
              1394    1    *                                QXC$SCREECH                              *
              1395    1    *                                                                         *
              1396    1    ***************************************************************************/

       37     1400    1           FPT$SCREECH = FPT_SCREECH;

   1400  2 000002   000100 100400                    MLR     fill='000'O
         2 000003   000000 000030 1                  ADSC9   FPT_SCREECH              cn=0,n=24
         2 000004   200006 000030                    ADSC9   FPT$SCREECH,,AUTO        cn=0,n=24

       38     1401    1           FPT$SCREECH.SCODE_ = VECTOR(SC$SCODE);

   1401  2 000005   000000 235000 3                  LDA     0
         2 000006   200016 452500                    STP2    SC$SCODE+2,,AUTO
         2 000007   200016 236100                    LDQ     SC$SCODE+2,,AUTO
         2 000010   000014 036003                    ADLQ    12,DU
         2 000011   200006 757100                    STAQ    FPT$SCREECH,,AUTO

       39     1402    1           FPT$SCREECH.JERR_ = VECTOR(B$JIT.USRERR);

   1402  2 000012   777640 235007                    LDA     -96,DL
         2 000013   000000 236000 xsym               LDQ     B$JIT$
         2 000014   000144 036003                    ADLQ    100,DU
         2 000015   200010 757100                    STAQ    FPT$SCREECH+2,,AUTO

       40     1403    1           SC$SCODE = SC_SCODE;

   1403  2 000016   000006 237000 1                  LDAQ    SC_SCODE
         2 000017   200014 757100                    STAQ    SC$SCODE,,AUTO

       41     1404    1           SC$SCODE.CODE# = P_SCODE;

   1404  2 000020   200003 470500                    LDP0    @P_SCODE,,AUTO
         2 000021   000000 236100                    LDQ     0,,PR0
         2 000022   000003 736000                    QLS     3
PL6.E3A0      #001=QXC$SCREECH File=QXC$SCREECH.:E05TSI                          WED 07/30/97 05:55 Page:12
         2 000023   200014 676100                    ERQ     SC$SCODE,,AUTO
         2 000024   377770 376007                    ANQ     131064,DL
         2 000025   200014 656100                    ERSQ    SC$SCODE,,AUTO

       42     1405    1           SC$SCODE.MID# = P_MID;

   1405  2 000026   200004 471500                    LDP1    @P_MID,,AUTO
         2 000027   100000 236100                    LDQ     0,,PR1
         2 000030   000014 772000                    QRL     12
         2 000031   200014 752110                    STCQ    SC$SCODE,'10'O,AUTO

       43     1406    1           SC$SCODE.SEV# = P_SEV;

   1406  2 000032   200005 473500                    LDP3    @P_SEV,,AUTO
         2 000033   300000 236100                    LDQ     0,,PR3
         2 000034   200014 676100                    ERQ     SC$SCODE,,AUTO
         2 000035   000007 376007                    ANQ     7,DL
         2 000036   200014 656100                    ERSQ    SC$SCODE,,AUTO

       44     1407
       45     1408    1           IF B$JIT.CPFLAGS1 & '000000000002'O /* CP_SCREECH# */ OR

   1408  2 000037   000000 474400 xsym               LDP4    B$JIT$
         2 000040   400143 236100                    LDQ     99,,PR4
         2 000041   000004 376000 xsym               ANQ     B_VECTNIL+4
         2 000042   000046 601000 2                  TNZ     s:1411
         2 000043   300000 235100                    LDA     0,,PR3
         2 000044   000006 115007                    CMPA    6,DL
         2 000045   000051 601000 2                  TNZ     s:1414

       46     1409    1               P_SEV = 6 THEN
       47     1410    2             DO;

       48     1411    2               CALL M$SCREECH(FPT$SCREECH); /* SUA dump                          */

   1411  2 000046   200006 630500                    EPPR0   FPT$SCREECH,,AUTO
         2 000047   000013 713400                    CLIMB   11
PL6.E3A0      #001=QXC$SCREECH File=QXC$SCREECH.:E05TSI                          WED 07/30/97 05:55 Page:13
         2 000050   401000 401760                    pmme    nvectors=3

       49     1412    2             END;

       50     1413
       51     1414    1           B$JIT.CPFLAGS1 = B$JIT.CPFLAGS1 | '000000000002'O /* CP_SCREECH# */;

   1414  2 000051   000000 470400 xsym               LDP0    B$JIT$
         2 000052   000143 236100                    LDQ     99,,PR0
         2 000053   000004 276000 xsym               ORQ     B_VECTNIL+4
         2 000054   000143 756100                    STQ     99,,PR0

       52     1415    1           CALL M$SCREECH(FPT$SCREECH);    /* SNAP dump                          */

   1415  2 000055   200006 630500                    EPPR0   FPT$SCREECH,,AUTO
         2 000056   000013 713400                    CLIMB   11
         2 000057   401000 401760                    pmme    nvectors=3

       53     1416
       54     1417    1           CALL QXA$TPCP;                  /* Try to log the guy off             */

   1417  2 000060   000002 631400 xsym               EPPR1   B_VECTNIL+2
         2 000061   000000 701000 xent               TSX1    QXA$TPCP
         2 000062   000000 011000                    NOP     0

       55     1418    1   END QXC$SCREECH;

   1418  2 000063   000000 702200 xent               TSX2  ! X66_ARET

PL6.E3A0      #001=QXC$SCREECH File=QXC$SCREECH.:E05TSI                          WED 07/30/97 05:55 Page:14
--  Include file information  --

   QX_MACROS_C.:E05TOU  is referenced.
   CP_6_SUBS.:E05TOU  is referenced.
   B$JIT.:E05TOU  cannot be made into a system file and is referenced.
   CP_6.:E05TOU  cannot be made into a system file and is referenced.
   Q_PAGE_C.:E05TOU  is referenced.
   B$JIT_C.:E05TOU  was found in the system file and is referenced.
   CP_6_C.:E05TOU  was found in the system file and is referenced.
      No diagnostics issued in procedure QXC$SCREECH.
PL6.E3A0      #001=QXC$SCREECH File=QXC$SCREECH.:E05TSI                          WED 07/30/97 05:55 Page:15

 **** Variables and constants ****

  ****  Section 001 RoData QXC$SCREECH

  ****  Scalars and arrays  ****
OctLoc.c.b A Datatyp(siz) R M Lvl/name                 OctLoc.c.b A Datatyp(siz) R M Lvl/name

     0-0-0/d STRC(216)   r     1 FPT_SCREECH                6-0-0/d STRC(72)    r     1 SC_SCODE

  ****  Auto variables  ****

  ****  Scalars and arrays  ****
OctLoc.c.b A Datatyp(siz) R M Lvl/name                 OctLoc.c.b A Datatyp(siz) R M Lvl/name

     4-0-0/w PTR         r     1 @P_MID                     3-0-0/w PTR         r     1 @P_SCODE
     5-0-0/w PTR         r     1 @P_SEV                     6-0-0/d STRC(216)   r     1 FPT$SCREECH
    *0-0-0/w BIT         r     1 P_MID                     *0-0-0/w UBIN        r     1 P_SCODE
    *0-0-0/w UBIN        r     1 P_SEV                     14-0-0/d STRC(72)    r     1 SC$SCODE

  ****  SYMREF variables  ****

  ****  Scalars and arrays  ****
OctLoc.c.b A Datatyp(siz) R M Lvl/name                 OctLoc.c.b A Datatyp(siz) R M Lvl/name

     0-0-0/w PTR         r     1 B$JIT$

  ****  BASED and DCB variables  ****

  ****  Scalars and arrays  ****
OctLoc.c.b A Datatyp(siz) R M Lvl/name                 OctLoc.c.b A Datatyp(siz) R M Lvl/name

     0-0-0/d STRC(8856)  r     1 B$JIT


   Procedure QXC$SCREECH requires 52 words for executable code.
   Procedure QXC$SCREECH requires 16 words of local(AUTO) storage.
PL6.E3A0      #001=QXC$SCREECH File=QXC$SCREECH.:E05TSI                          WED 07/30/97 05:55 Page:16

    No errors detected in file QXC$SCREECH.:E05TSI    .
PL6.E3A0      #001=QXC$SCREECH File=QXC$SCREECH.:E05TSI                          WED 07/30/97 05:55 Page:17
          *** CROSS REFERENCE LISTING ***
**     DENOTES     IDENTIFIER DEFINITION
<<                 IDENTIFIER'S VALUE SET
>>                 IDENTIFIER'S VALUE USED
<>                 IDENTIFIER SET AND/OR USED
--                 IDENTIFIER REFERENCED
PL6.E3A0      #001=QXC$SCREECH File=QXC$SCREECH.:E05TSI                          WED 07/30/97 05:55 Page:18
          MINI XREF LISTING

B$JIT.CPFLAGS1
       254**DCL      1408>>IF       1414<<ASSIGN   1414>>ASSIGN
B$JIT.CPFLAGS1.SLEAZE
       259**DCL       259--REDEF
B$JIT.ERR.MID
       166**DCL       166--REDEF
B$JIT.JRESPEAK
       327**DCL       328--REDEF
B$JIT.ORIGINATOR_PORT.FROM_CR
       436**DCL       436--REDEF     437--REDEF
B$JIT.PNR
       340**DCL       340--REDEF
B$JIT.TSLINE
       434**DCL       435--REDEF
B$JIT.USRERR
       301**DCL      1402--ASSIGN
B$JIT$
      1195**DCL       160--IMP-PTR  1402>>ASSIGN   1408>>IF       1414>>ASSIGN   1414>>ASSIGN
FPT$SCREECH
      1247**DCL      1400<<ASSIGN   1411<>CALL     1415<>CALL
FPT$SCREECH.JERR_
      1247**DCL      1402<<ASSIGN
FPT$SCREECH.SCODE_
      1247**DCL      1401<<ASSIGN
FPT_SCREECH
      1232**DCL      1400>>ASSIGN
M$SCREECH
        93**DCL-ENT  1411--CALL     1415--CALL
P_MID
      1142**DCL         8--PROC     1405>>ASSIGN
P_SCODE
      1141**DCL         8--PROC     1404>>ASSIGN
PL6.E3A0      #001=QXC$SCREECH File=QXC$SCREECH.:E05TSI                          WED 07/30/97 05:55 Page:19
P_SEV
      1143**DCL         8--PROC     1406>>ASSIGN   1408>>IF
QXA$TPCP
      1169**DCL-ENT  1417--CALL
SC$SCODE
      1329**DCL      1401--ASSIGN   1403<<ASSIGN
SC$SCODE.CODE#
      1355**DCL      1404<<ASSIGN
SC$SCODE.MID#
      1355**DCL      1405<<ASSIGN
SC$SCODE.SEV#
      1356**DCL      1406<<ASSIGN
SC_SCODE
      1267**DCL      1403>>ASSIGN
