VERSION E05

PL6.E3A0      #001=QX_DATA_D File=QX_DATA_D.:E05TSI                              WED 07/30/97 05:56 Page:1
        1        1        /*M* QX_DATA_D - TPCP constant data */
        2        2        /*T***********************************************************/
        3        3        /*T*                                                         */
        4        4        /*T* Copyright (c) Bull HN Information Systems Inc., 1997    */
        5        5        /*T*                                                         */
        6        6        /*T***********************************************************/
        7        7        /*X* IND=2, DCI=4, CSU=2, ECU=4, DTI=2, CTI=4, AND */
        8        8        QX_DATA_D:
        9        9                PROC;
       10       10                                                /*  ! !                               */
       11       11        %INCLUDE Q_PAGE_C;
       12       43        %SET LISTEXP = '1'B;
       13       44        %PAGE(ARG="Includes");

                61        /***************************************************************************
                62         *                                                                         *
                63         *                                  Includes                               *
                64         *                                                                         *
                65         ***************************************************************************/

       14       69        %INCLUDE B_SEGIDS_C;
       15      608        %PAGE(ARG="Symdefs");

               625        /***************************************************************************
               626         *                                                                         *
               627         *                                  Symdefs                                *
               628         *                                                                         *
               629         ***************************************************************************/

       16      633        /* QX_GLOBAL - Depository of general TPCP constant data.  Note
       17      634           that TPCP does not contain any static data */
       18      635
       19      636        /*  !R!  */
       20      637    1   DCL 1 QX_GLOBAL CONSTANT SYMDEF,
       21      638    1         2 DS2$_BITS,
       22      639    1           3 * BIT(24) UNAL INIT('0'B),
       23      640    1           3 * BIT(12) UNAL INIT('6005'O),
PL6.E3A0      #001=QX_DATA_D File=QX_DATA_D.:E05TSI                              WED 07/30/97 05:56 Page:2
       24      641    1         2 GLOBAL$PTRS$ REDEF DS2$_BITS PTR,
       25      642                                      /* Ptr -> stucture that constains Ptrs -> FPTs  */
       26      643    1         2 DS4$_BITS,
       27      644    1           3 * BIT(24) UNAL INIT('0'B),
       28      645    1           3 * BIT(12) UNAL INIT('6007'O),
       29      646    1         2 QT$ENTRY$ REDEF DS4$_BITS PTR;
       30      647                                      /* Ptr -> place to read the _E records into     */
       31      648    1   END QX_DATA_D;

PL6.E3A0      #001=QX_DATA_D File=QX_DATA_D.:E05TSI                              WED 07/30/97 05:56 Page:3
--  Include file information  --

   B_SEGIDS_C.:E05TOU  is referenced.
   Q_PAGE_C.:E05TOU  is referenced.
      No diagnostics issued in procedure QX_DATA_D.

   No code generated for procedure QX_DATA_D .
   Procedure QX_DATA_D requires 4 words of local(AUTO) storage.

    No errors detected in file QX_DATA_D.:E05TSI    .

PL6.E3A0      #001=QX_DATA_D File=QX_DATA_D.:E05TSI                              WED 07/30/97 05:56 Page:4

 Object Unit name= QX_DATA_D                                  File name= QX_DATA_D.:E05TOU
 UTS= JUL 30 '97 05:56:09.12 WED                              Compiler= PL-6/E31         Sev=      00
 SharedLib= :SHARED_SYSTEM                                    Alt SharedLib=


    ****  Control sections  ****

 Sect   Type Bound  Init  Size OctSiz  Section name(segment info)
    0  RoData even  UTS      2      2  QX_DATA_D
    1   Proc  even  none     0      0  QX_DATA_D

    ****  Entry defs  ****

                              Check   Calling
                             calling  sequence
  Sect OctLoc Primary Altret sequence   type   Parms  Name
     1      0   yes            yes     ~proc       0  QX_DATA_D

  ****  Data defs  ****

 Sect OctLoc  Name                           Sect OctLoc  Name
    0      0  QX_GLOBAL
PL6.E3A0      #001=QX_DATA_D File=QX_DATA_D.:E05TSI                              WED 07/30/97 05:56 Page:5

        1        1        /*M* QX_DATA_D - TPCP constant data */
        2        2        /*T***********************************************************/
        3        3        /*T*                                                         */
        4        4        /*T* Copyright (c) Bull HN Information Systems Inc., 1997    */
        5        5        /*T*                                                         */
        6        6        /*T***********************************************************/
        7        7        /*X* IND=2, DCI=4, CSU=2, ECU=4, DTI=2, CTI=4, AND */
        8        8        QX_DATA_D:
        9        9                PROC;
       10       10                                                /*  ! !                               */
       11       11        %INCLUDE Q_PAGE_C;
       12       43        %SET LISTEXP = '1'B;
       13       44        %PAGE(ARG="Includes");

                61        /***************************************************************************
                62         *                                                                         *
                63         *                                  Includes                               *
                64         *                                                                         *
                65         ***************************************************************************/

       14       69        %INCLUDE B_SEGIDS_C;
       15      608        %PAGE(ARG="Symdefs");

               625        /***************************************************************************
               626         *                                                                         *
               627         *                                  Symdefs                                *
               628         *                                                                         *
               629         ***************************************************************************/

       16      633        /* QX_GLOBAL - Depository of general TPCP constant data.  Note
       17      634           that TPCP does not contain any static data */
       18      635
       19      636        /*  !R!  */
       20      637    1   DCL 1 QX_GLOBAL CONSTANT SYMDEF,
       21      638    1         2 DS2$_BITS,
       22      639    1           3 * BIT(24) UNAL INIT('0'B),
       23      640    1           3 * BIT(12) UNAL INIT('6005'O),
PL6.E3A0      #001=QX_DATA_D File=QX_DATA_D.:E05TSI                              WED 07/30/97 05:56 Page:6
       24      641    1         2 GLOBAL$PTRS$ REDEF DS2$_BITS PTR,
       25      642                                      /* Ptr -> stucture that constains Ptrs -> FPTs  */
       26      643    1         2 DS4$_BITS,
       27      644    1           3 * BIT(24) UNAL INIT('0'B),
       28      645    1           3 * BIT(12) UNAL INIT('6007'O),
       29      646    1         2 QT$ENTRY$ REDEF DS4$_BITS PTR;
       30      647                                      /* Ptr -> place to read the _E records into     */
       31      648    1   END QX_DATA_D;

PL6.E3A0      #001=QX_DATA_D File=QX_DATA_D.:E05TSI                              WED 07/30/97 05:56 Page:7
--  Include file information  --

   B_SEGIDS_C.:E05TOU  is referenced.
   Q_PAGE_C.:E05TOU  is referenced.
      No diagnostics issued in procedure QX_DATA_D.
PL6.E3A0      #001=QX_DATA_D File=QX_DATA_D.:E05TSI                              WED 07/30/97 05:56 Page:8

 **** Variables and constants ****


   No code generated for procedure QX_DATA_D .
   Procedure QX_DATA_D requires 4 words of local(AUTO) storage.

    No errors detected in file QX_DATA_D.:E05TSI    .
PL6.E3A0      #001=QX_DATA_D File=QX_DATA_D.:E05TSI                              WED 07/30/97 05:56 Page:9
          *** CROSS REFERENCE LISTING ***
**     DENOTES     IDENTIFIER DEFINITION
<<                 IDENTIFIER'S VALUE SET
>>                 IDENTIFIER'S VALUE USED
<>                 IDENTIFIER SET AND/OR USED
--                 IDENTIFIER REFERENCED
PL6.E3A0      #001=QX_DATA_D File=QX_DATA_D.:E05TSI                              WED 07/30/97 05:56 Page:10
          MINI XREF LISTING

QX_GLOBAL.DS2$_BITS
       638**DCL       641--REDEF
QX_GLOBAL.DS4$_BITS
       643**DCL       646--REDEF
