PL6.E3A0      #002=SSR$REG File=SSR$RUE.:E05TSI                                  WED 07/30/97 05:59 Page:204
     1118        1        /*T***********************************************************/
     1119        2        /*T*                                                         */
     1120        3        /*T* Copyright (c) Bull HN Information Systems Inc., 1997    */
     1121        4        /*T*                                                         */
     1122        5        /*T***********************************************************/
     1123        6        /*                                                                    */
     1124        7        SSR$REG: PROC(EVENT,FCN,TIME) ALTRET;
     1125        8        /*                                                                    */
     1126        9    1   DCL   EVENT UBIN(36);                   /* SCHEDULER EVENT NUMBER             */
     1127       10    1   DCL   FCN UBIN(9) UNAL;                 /* DCB FUNCTION COUNT AND FLAG        */
     1128       11    1   DCL   TIME UBIN(36);                    /* SLEEP INTERVAL IF SLEEP REG        */
     1129       12        /*                                                                    */
     1130       13    1   DCL   USR UBIN(9);                      /* TEMP REG USER NR.                  */
     1131       14    1   DCL   SSS$RG ENTRY;                     /* BMAP CLIMB ROUTINE                 */
     1132       15    1   DCL   SSR$REGUE ENTRY(4);               /* REPORT USER EVENT                  */
     1133       16    1   DCL   SSS$SENT ENTRY;                   /* SCHEDULER ENTRY POINT              */
     1134       17    1   DCL    SSC$MON ENTRY;                   /* ACCOUNT MON EXECUTION TIME*/
     1135       18    1   DCL HFC$ASSOCCLR ENTRY(3);
     1136       19        /*                                                                    */
     1137       20    1   DCL   S_PNO SBIN SYMREF;
     1138       21    1   DCL   S_CUN UBIN(36) SYMREF;            /* CURRENT USER NUMBER                */
     1139       22    1   DCL   S_CNODE UBIN SYMREF;              /* CURRENT OVERLAY NODE               */
     1140       23    1   DCL   B$SEGTBL$ PTR SYMREF;             /* POINTER TO OVERLAY TABLE           */
     1141       24    1   DCL   B$MPT$ PTR SYMREF;                /* POINTER TO MON PAGE TABLE          */
     1142       25        /**/
     1143       26    1   DCL 1 SEGTBL ALIGNED BASED(B$SEGTBL$),
     1144       27    1         2 * UBIN HALF HALIGNED,
     1145       28    1         2 MPTOFFSET UBIN HALF HALIGNED,
     1146       29    1         2 NODES(0:0) ALIGNED,
     1147       30    1           3 OFFSET UBIN HALF HALIGNED,    /* OFFSET TO SEGMENT ENTRY            */
     1148       31    1           3 SIZE UBIN HALF HALIGNED;      /* SIZE OF PT IN BYTES                */
     1149       32
     1150       33    1   DCL 1 SEGENT ALIGNED,
     1151       34    1         2 OFFSET UBIN HALF HALIGNED,
     1152       35    1         2 SIZE UBIN HALF HALIGNED;
     1153       36
     1154       37    1   DCL CNODE UBIN;
PL6.E3A0      #002=SSR$REG File=SSR$RUE.:E05TSI                                  WED 07/30/97 05:59 Page:205
     1155       38
     1156       39    1   DCL PTSTRING CHAR(SEGENT.SIZE) BASED;
     1157       40        %PLIST;
     1158       41        %INCLUDE HF_LOCK_C;
     1159       55        %INCLUDE HF_DATA_R;
     1160       98        %INCLUDE SS_SCHED_C;
     1161      331        %INCLUDE SS_SCHED_R;
     1162      374        %INCLUDE B$USER;
     1163      590        %INCLUDE B_STRINGS_C;
     1164      719        %B$USERREFS;
     1165      723        /*                                                                    */
     1166      724    2           DO INHIBIT;
     1167      725    2              CALL SSC$MON;
     1168      726    2              USR=S_CUN;
     1169      727                   %LOCK (G#=S_SCHDGATE);
     1170      730    2              CALL SSR$REGUE(EVENT,USR,FCN,ADDR(TIME));
     1171      731    2   RG00:      ;
     1172      732    2              S_CUN=0;                     /* DELETE CURRENT USER                */
     1173      733    2              S_PCU(S_PNO)=0;
     1174      734    2              CNODE=S_CNODE;               /* SAVE CURRENT NODE NUMBER           */
     1175      735    2              CALL SSS$RG;                 /* BLOCK USER, RETURNS AFTER UNBLOCK  */
     1176      736    3              IF CNODE~=S_CNODE THEN DO;   /* RELOAD OVERLAY                     */
     1177      737    3                    SEGENT=SEGTBL.NODES(CNODE-1);
     1178      738    3                    PINCRC(B$MPT$,SEGTBL.MPTOFFSET)->PTSTRING=PINCRC(B$SEGTBL$,SEGENT.
               738                             OFFSET)->PTSTRING;
     1179      739    3                    S_CNODE=CNODE;
     1180      740    3                    CALL HFC$ASSOCCLR (%MONWSQ,SEGTBL.MPTOFFSET/4,SEGENT.SIZE/4);
     1181      741    3                 END;
     1182      742                                                /**/
     1183      743    2              IF S$CU$->B$U.ASYNCH & ~%U_RESET
     1184      744    2              THEN ALTRETURN;
     1185      745    2              ELSE RETURN;
     1186      746    2           END;                            /* END INHIBIT                        */
     1187      747        /*                                                                    */
     1188      748        /*         BLOCK SLAVE USER FOR MASTER                                */
     1189      749        /*         CONTINUE MASTER USER                                       */
     1190      750        /*                                                                    */
PL6.E3A0      #002=SSR$REG File=SSR$RUE.:E05TSI                                  WED 07/30/97 05:59 Page:206
     1191      751    1   SSR$MASTER: ENTRY ALTRET;
     1192      752    2           DO INHIBIT;
     1193      753    2              CALL SSC$MON;
     1194      754                   %LOCK (G#=S_SCHDGATE);
     1195      757    2              CALL SSR$REGUE(%SS_MP);      /* BLOCK FOR MASTER                   */
     1196      758    2              GOTO RG00;
     1197      759    2           END;                            /* END INHIBIT                        */
     1198      760    1   END;

PL6.E3A0      #002=SSR$REG File=SSR$RUE.:E05TSI                                  WED 07/30/97 05:59 Page:207
--  Include file information  --

   B_STRINGS_C.:E05TOU  is referenced.
   B$USER.:E05TOU  cannot be made into a system file and is referenced.
   SS_CNTRLD_R.:E05TOU  cannot be made into a system file and is referenced.
   SS_CNTRL_R.:E05TOU  cannot be made into a system file and is referenced.
   SS_SCHED_R.:E05TOU  cannot be made into a system file and is referenced.
   SS_SCHED_C.:E05TOU  is referenced.
   HF_DATA_R.:E05TOU  cannot be made into a system file and is referenced.
   HF_LOCK_C.:E05TOU  cannot be made into a system file and is referenced.
      No diagnostics issued in procedure SSR$REG.

   Procedure SSR$REG requires 95 words for executable code.
   Procedure SSR$REG requires 16 words of local(AUTO) storage.

    No errors detected in file SSR$RUE.:E05TSI    .

PL6.E3A0      #002=SSR$REG File=SSR$RUE.:E05TSI                                  WED 07/30/97 05:59 Page:208

 Object Unit name= SSR$REG                                    File name= SSR$RUE.:E05TOU
 UTS= JUL 30 '97 05:59:01.72 WED                              Compiler= PL-6/E31         Sev=      00
 SharedLib= :SHARED_SYSTEM                                    Alt SharedLib=


    ****  Control sections  ****

 Sect   Type Bound  Init  Size OctSiz  Section name(segment info)
    0   Proc  even  none    95    137  SSR$REG
    1  RoData even  none     4      4  SSR$REG

    ****  Entry defs  ****

                              Check   Calling
                             calling  sequence
  Sect OctLoc Primary Altret sequence   type   Parms  Name
     0      0   yes    yes     yes      Std        3  SSR$REG
     0    120          yes     yes      Std        0  SSR$MASTER

  ****  Entry refs  ****

         Check        Calling
        calling       sequence
Altret sequence SRef   type   Args  Name
         yes           Std       0 SSC$MON
         yes           Std       3 HFC$ASSOCCLR
         yes           Std       1 HFC$LOCK
         yes           Std       4 SSR$REGUE
         yes           Std       0 SSS$RG
                       Std       0 B_CONSPOOL_D
                       nStd      0 X66_AUTO_3
                       nStd      0 X66_AALT
                       nStd      0 X66_ARET
PL6.E3A0      #002=SSR$REG File=SSR$RUE.:E05TSI                                  WED 07/30/97 05:59 Page:209

  ****  Data refs  ****

  Flags:  r = read only, s = secondary
Flgs Name                             Flgs Name                             Flgs Name
     S_PNO                                 S_CUN                                 S_CNODE
     B$SEGTBL$                             B$MPT$                                S_PCU
     S_SCHDGATE                            S$CU$                                 B_VECTNIL

  ****  Segment refs  ****

  Flags:  r = read only, s = secondary
Flgs Name                             Flgs Name                             Flgs Name
     ISSID
PL6.E3A0      #002=SSR$REG File=SSR$RUE.:E05TSI                                  WED 07/30/97 05:59 Page:210


     1118        1        /*T***********************************************************/
     1119        2        /*T*                                                         */
     1120        3        /*T* Copyright (c) Bull HN Information Systems Inc., 1997    */
     1121        4        /*T*                                                         */
     1122        5        /*T***********************************************************/
     1123        6        /*                                                                    */
     1124        7        SSR$REG: PROC(EVENT,FCN,TIME) ALTRET;

      7  0 000000   000000 700200 xent  SSR$REG      TSX0  ! X66_AUTO_3
         0 000001   000020 000003                    ZERO    16,3

     1125        8        /*                                                                    */
     1126        9    1   DCL   EVENT UBIN(36);                   /* SCHEDULER EVENT NUMBER             */
     1127       10    1   DCL   FCN UBIN(9) UNAL;                 /* DCB FUNCTION COUNT AND FLAG        */
     1128       11    1   DCL   TIME UBIN(36);                    /* SLEEP INTERVAL IF SLEEP REG        */
     1129       12        /*                                                                    */
     1130       13    1   DCL   USR UBIN(9);                      /* TEMP REG USER NR.                  */
     1131       14    1   DCL   SSS$RG ENTRY;                     /* BMAP CLIMB ROUTINE                 */
     1132       15    1   DCL   SSR$REGUE ENTRY(4);               /* REPORT USER EVENT                  */
     1133       16    1   DCL   SSS$SENT ENTRY;                   /* SCHEDULER ENTRY POINT              */
     1134       17    1   DCL    SSC$MON ENTRY;                   /* ACCOUNT MON EXECUTION TIME*/
     1135       18    1   DCL HFC$ASSOCCLR ENTRY(3);
     1136       19        /*                                                                    */
     1137       20    1   DCL   S_PNO SBIN SYMREF;
     1138       21    1   DCL   S_CUN UBIN(36) SYMREF;            /* CURRENT USER NUMBER                */
     1139       22    1   DCL   S_CNODE UBIN SYMREF;              /* CURRENT OVERLAY NODE               */
     1140       23    1   DCL   B$SEGTBL$ PTR SYMREF;             /* POINTER TO OVERLAY TABLE           */
     1141       24    1   DCL   B$MPT$ PTR SYMREF;                /* POINTER TO MON PAGE TABLE          */
     1142       25        /**/
     1143       26    1   DCL 1 SEGTBL ALIGNED BASED(B$SEGTBL$),
     1144       27    1         2 * UBIN HALF HALIGNED,
     1145       28    1         2 MPTOFFSET UBIN HALF HALIGNED,
     1146       29    1         2 NODES(0:0) ALIGNED,
     1147       30    1           3 OFFSET UBIN HALF HALIGNED,    /* OFFSET TO SEGMENT ENTRY            */
     1148       31    1           3 SIZE UBIN HALF HALIGNED;      /* SIZE OF PT IN BYTES                */
     1149       32
PL6.E3A0      #002=SSR$REG File=SSR$RUE.:E05TSI                                  WED 07/30/97 05:59 Page:211
     1150       33    1   DCL 1 SEGENT ALIGNED,
     1151       34    1         2 OFFSET UBIN HALF HALIGNED,
     1152       35    1         2 SIZE UBIN HALF HALIGNED;
     1153       36
     1154       37    1   DCL CNODE UBIN;
     1155       38
     1156       39    1   DCL PTSTRING CHAR(SEGENT.SIZE) BASED;
     1157       40        %PLIST;
     1158       41        %INCLUDE HF_LOCK_C;
     1159       55        %INCLUDE HF_DATA_R;
     1160       98        %INCLUDE SS_SCHED_C;
     1161      331        %INCLUDE SS_SCHED_R;
     1162      374        %INCLUDE B$USER;
     1163      590        %INCLUDE B_STRINGS_C;
     1164      719        %B$USERREFS;
     1165      723        /*                                                                    */
     1166      724    2           DO INHIBIT;

     1167      725    2              CALL SSC$MON;

    725  0 000002   000002 631600 xsym               EPPR1 ! B_VECTNIL+2
         0 000003   000000 701200 xent               TSX1  ! SSC$MON
         0 000004   000000 011200                    NOP   ! 0

     1168      726    2              USR=S_CUN;

    726  0 000005   000000 235200 xsym               LDA   ! S_CUN
         0 000006   000033 735200                    ALS   ! 27
         0 000007   200006 755300                    STA   ! USR,,AUTO

     1169      727                   %LOCK (G#=S_SCHDGATE);

    728  0 000010   000000 630600 1                  EPPR0 ! 0
         0 000011   000017 631600 xsym               EPPR1 ! B_VECTNIL+15
         0 000012   000000 701200 xent               TSX1  ! HFC$LOCK
         0 000013   000000 011200                    NOP   ! 0

PL6.E3A0      #002=SSR$REG File=SSR$RUE.:E05TSI                                  WED 07/30/97 05:59 Page:212
     1170      730    2              CALL SSR$REGUE(EVENT,USR,FCN,ADDR(TIME));

    730  0 000014   200005 236300                    LDQ   ! @TIME,,AUTO
         0 000015   200012 756300                    STQ   ! CNODE+2,,AUTO
         0 000016   200012 630700                    EPPR0 ! CNODE+2,,AUTO
         0 000017   200017 450700                    STP0  ! CNODE+7,,AUTO
         0 000020   200004 236300                    LDQ   ! @FCN,,AUTO
         0 000021   200016 756300                    STQ   ! CNODE+6,,AUTO
         0 000022   200006 631700                    EPPR1 ! USR,,AUTO
         0 000023   200015 451700                    STP1  ! CNODE+5,,AUTO
         0 000024   200003 236300                    LDQ   ! @EVENT,,AUTO
         0 000025   200014 756300                    STQ   ! CNODE+4,,AUTO
         0 000026   200014 630700                    EPPR0 ! CNODE+4,,AUTO
         0 000027   000022 631600 xsym               EPPR1 ! B_VECTNIL+18
         0 000030   000000 701200 xent               TSX1  ! SSR$REGUE
         0 000031   000000 011200                    NOP   ! 0

    726  0 000032                       RG00         null
     1171      731    2   RG00:      ;
     1172      732    2              S_CUN=0;                     /* DELETE CURRENT USER                */

    732  0 000032   000000 450200 xsym               STZ   ! S_CUN

     1173      733    2              S_PCU(S_PNO)=0;

    733  0 000033   000000 720200 xsym               LXL0  ! S_PNO
         0 000034   000000 450210 xsym               STZ   ! S_PCU,X0

     1174      734    2              CNODE=S_CNODE;               /* SAVE CURRENT NODE NUMBER           */

    734  0 000035   000000 235200 xsym               LDA   ! S_CNODE
         0 000036   200010 755300                    STA   ! CNODE,,AUTO

     1175      735    2              CALL SSS$RG;                 /* BLOCK USER, RETURNS AFTER UNBLOCK  */

    735  0 000037   000002 631600 xsym               EPPR1 ! B_VECTNIL+2
         0 000040   000000 701200 xent               TSX1  ! SSS$RG
PL6.E3A0      #002=SSR$REG File=SSR$RUE.:E05TSI                                  WED 07/30/97 05:59 Page:213
         0 000041   000000 011200                    NOP   ! 0

     1176      736    3              IF CNODE~=S_CNODE THEN DO;   /* RELOAD OVERLAY                     */

    736  0 000042   200010 236300                    LDQ   ! CNODE,,AUTO
         0 000043   000000 116200 xsym               CMPQ  ! S_CNODE
         0 000044   000110 600200 0                  TZE   ! s:743

     1177      737    3                    SEGENT=SEGTBL.NODES(CNODE-1);

    737  0 000045   000000 470600 xsym               LDP0  ! B$SEGTBL$
         0 000046   000000 236306                    LDQ   ! 0,QL,PR0
         0 000047   200007 756300                    STQ   ! SEGENT,,AUTO

     1178      738    3                    PINCRC(B$MPT$,SEGTBL.MPTOFFSET)->PTSTRING=PINCRC(B$SEGTBL$,SEGENT.
               738                             OFFSET)->PTSTRING;

    738  0 000050   000000 236300                    LDQ   ! 0,,PR0
         0 000051   777777 376207                    ANQ   ! -1,DL
         0 000052   200007 720300                    LXL0  ! SEGENT,,AUTO
         0 000053   200007 235300                    LDA   ! SEGENT,,AUTO
         0 000054   000022 771200                    ARL   ! 18
         0 000055   000000 471600 xsym               LDP1  ! B$MPT$
         0 000056   040146 100745                    MLR   ! fill='040'O
         0 000057   000000 000010                    ADSC9   0,A,PR0                  cn=0,n=*X0
         0 000060   100000 000010                    ADSC9   0,Q,PR1                  cn=0,n=*X0

     1179      739    3                    S_CNODE=CNODE;

    739  0 000061   200010 236300                    LDQ   ! CNODE,,AUTO
         0 000062   000000 756200 xsym               STQ   ! S_CNODE

     1180      740    3                    CALL HFC$ASSOCCLR (%MONWSQ,SEGTBL.MPTOFFSET/4,SEGENT.SIZE/4);

    740  0 000063   000000 470600 xsym               LDP0  ! B$SEGTBL$
         0 000064   000000 236300                    LDQ   ! 0,,PR0
         0 000065   777777 376207                    ANQ   ! -1,DL
PL6.E3A0      #002=SSR$REG File=SSR$RUE.:E05TSI                                  WED 07/30/97 05:59 Page:214
         0 000066   000002 772200                    QRL   ! 2
         0 000067   200012 756300                    STQ   ! CNODE+2,,AUTO
         0 000070   200007 236300                    LDQ   ! SEGENT,,AUTO
         0 000071   777777 376207                    ANQ   ! -1,DL
         0 000072   000002 772200                    QRL   ! 2
         0 000073   200012 235300                    LDA   ! CNODE+2,,AUTO
         0 000074   200013 755300                    STA   ! CNODE+3,,AUTO
         0 000075   200014 756300                    STQ   ! CNODE+4,,AUTO
         0 000076   200014 631700                    EPPR1 ! CNODE+4,,AUTO
         0 000077   200017 451700                    STP1  ! CNODE+7,,AUTO
         0 000100   200013 633700                    EPPR3 ! CNODE+3,,AUTO
         0 000101   200016 453700                    STP3  ! CNODE+6,,AUTO
         0 000102   000001 236200 1                  LDQ   ! 1
         0 000103   200015 756300                    STQ   ! CNODE+5,,AUTO
         0 000104   200015 630700                    EPPR0 ! CNODE+5,,AUTO
         0 000105   000021 631600 xsym               EPPR1 ! B_VECTNIL+17
         0 000106   000000 701200 xent               TSX1  ! HFC$ASSOCCLR
         0 000107   000000 011200                    NOP   ! 0

     1181      741    3                 END;

     1182      742                                                /**/
     1183      743    2              IF S$CU$->B$U.ASYNCH & ~%U_RESET

    743  0 000110   000003 236200 xsym               LDQ   ! B_VECTNIL+3
         0 000111   000027 676200 xsym               ERQ   ! B_VECTNIL+23
         0 000112   000000 470600 xsym               LDP0  ! S$CU$
         0 000113   000001 376300                    ANQ   ! 1,,PR0
         0 000114   000116 600200 0                  TZE   ! s:745

     1184      744    2              THEN ALTRETURN;

    744  0 000115   000000 702200 xent               TSX2  ! X66_AALT

     1185      745    2              ELSE RETURN;

    745  0 000116   000000 702200 xent               TSX2  ! X66_ARET
PL6.E3A0      #002=SSR$REG File=SSR$RUE.:E05TSI                                  WED 07/30/97 05:59 Page:215

     1186      746    2           END;                            /* END INHIBIT                        */

    746  0 000117   000122 710000 0                  TRA     s:753

     1187      747        /*                                                                    */
     1188      748        /*         BLOCK SLAVE USER FOR MASTER                                */
     1189      749        /*         CONTINUE MASTER USER                                       */
     1190      750        /*                                                                    */
     1191      751    1   SSR$MASTER: ENTRY ALTRET;

    751  0 000120   000000 700200 xent  SSR$MASTER   TSX0  ! X66_AUTO_3
         0 000121   000020 000003                    ZERO    16,3

     1192      752    2           DO INHIBIT;

     1193      753    2              CALL SSC$MON;

    753  0 000122   000002 631600 xsym               EPPR1 ! B_VECTNIL+2
         0 000123   000000 701200 xent               TSX1  ! SSC$MON
         0 000124   000000 011200                    NOP   ! 0

     1194      754                   %LOCK (G#=S_SCHDGATE);

    755  0 000125   000000 630600 1                  EPPR0 ! 0
         0 000126   000017 631600 xsym               EPPR1 ! B_VECTNIL+15
         0 000127   000000 701200 xent               TSX1  ! HFC$LOCK
         0 000130   000000 011200                    NOP   ! 0

     1195      757    2              CALL SSR$REGUE(%SS_MP);      /* BLOCK FOR MASTER                   */

    757  0 000131   000003 630600 1                  EPPR0 ! 3
         0 000132   000017 631600 xsym               EPPR1 ! B_VECTNIL+15
         0 000133   000000 701200 xent               TSX1  ! SSR$REGUE
         0 000134   000000 011200                    NOP   ! 0

     1196      758    2              GOTO RG00;
PL6.E3A0      #002=SSR$REG File=SSR$RUE.:E05TSI                                  WED 07/30/97 05:59 Page:216

    758  0 000135   000032 710200 0                  TRA   ! RG00

     1197      759    2           END;                            /* END INHIBIT                        */

     1198      760    1   END;

    760  0 000136   000000 702200 xent               TSX2  ! X66_ARET

(unnamed)
 Sect OctLoc
   1     000   000000 006000   000003 006000   000000 000044   000002 006000    ...........$....

PL6.E3A0      #002=SSR$REG File=SSR$RUE.:E05TSI                                  WED 07/30/97 05:59 Page:217
--  Include file information  --

   B_STRINGS_C.:E05TOU  is referenced.
   B$USER.:E05TOU  cannot be made into a system file and is referenced.
   SS_CNTRLD_R.:E05TOU  cannot be made into a system file and is referenced.
   SS_CNTRL_R.:E05TOU  cannot be made into a system file and is referenced.
   SS_SCHED_R.:E05TOU  cannot be made into a system file and is referenced.
   SS_SCHED_C.:E05TOU  is referenced.
   HF_DATA_R.:E05TOU  cannot be made into a system file and is referenced.
   HF_LOCK_C.:E05TOU  cannot be made into a system file and is referenced.
      No diagnostics issued in procedure SSR$REG.
PL6.E3A0      #002=SSR$REG File=SSR$RUE.:E05TSI                                  WED 07/30/97 05:59 Page:218

 **** Variables and constants ****

  ****  Auto variables  ****

  ****  Scalars and arrays  ****
OctLoc.c.b A Datatyp(siz) R M Lvl/name                 OctLoc.c.b A Datatyp(siz) R M Lvl/name

     3-0-0/w PTR         r     1 @EVENT                     4-0-0/w PTR         r     1 @FCN
     5-0-0/w PTR         r     1 @TIME                     10-0-0/w UBIN        r     1 CNODE
    *0-0-0/w UBIN        r     1 EVENT                     *0-0-0/b UBIN(9)     r     1 FCN
     7-0-0/w STRC        r     1 SEGENT                    *0-0-0/w UBIN        r     1 TIME
     6-0-0/w UBIN(9)     r     1 USR

  ****  SYMREF variables  ****

  ****  Scalars and arrays  ****
OctLoc.c.b A Datatyp(siz) R M Lvl/name                 OctLoc.c.b A Datatyp(siz) R M Lvl/name

     0-0-0/w PTR         r     1 B$MPT$                     0-0-0/w PTR         r     1 B$SEGTBL$
     0-0-0/w PTR         r     1 S$CU$                      0-0-0/w UBIN        r     1 S_CNODE
     0-0-0/w UBIN        r     1 S_CUN                      0-0-0/w SBIN        r     1 S_PCU(0:7)
     0-0-0/w SBIN        r     1 S_PNO                      0-0-0/b BIT (72)    r     1 S_SCHDGATE

  ****  BASED and DCB variables  ****

  ****  Scalars and arrays  ****
OctLoc.c.b A Datatyp(siz) R M Lvl/name                 OctLoc.c.b A Datatyp(siz) R M Lvl/name

     0-0-0/d STRC(576)   r     1 B$U                        0-0-0/c ACHR        r     1 PTSTRING
     0-0-0/w STRC(72)    r     1 SEGTBL


   Procedure SSR$REG requires 95 words for executable code.
   Procedure SSR$REG requires 16 words of local(AUTO) storage.
PL6.E3A0      #002=SSR$REG File=SSR$RUE.:E05TSI                                  WED 07/30/97 05:59 Page:219

    No errors detected in file SSR$RUE.:E05TSI    .
PL6.E3A0      #002=SSR$REG File=SSR$RUE.:E05TSI                                  WED 07/30/97 05:59 Page:220
          *** CROSS REFERENCE LISTING ***
**     DENOTES     IDENTIFIER DEFINITION
<<                 IDENTIFIER'S VALUE SET
>>                 IDENTIFIER'S VALUE USED
<>                 IDENTIFIER SET AND/OR USED
--                 IDENTIFIER REFERENCED
PL6.E3A0      #002=SSR$REG File=SSR$RUE.:E05TSI                                  WED 07/30/97 05:59 Page:221
          MINI XREF LISTING

B$DO.ECCINFO
       525**DCL       526--REDEF
B$MPT$
        24**DCL       738>>ASSIGN
B$SEGTBL$
        23**DCL        26--IMP-PTR   737>>ASSIGN    738>>ASSIGN    738>>ASSIGN    740>>CALL
B$U.ASYNCH
       462**DCL       743>>IF
B$U.MISC
       504**DCL       505--REDEF
B$USER.MISC
       580**DCL       581--REDEF
CNODE
        37**DCL       734<<ASSIGN    736>>IF        737>>ASSIGN    739>>ASSIGN
EVENT
         9**DCL         7--PROC      730<>CALL
FCN
        10**DCL         7--PROC      730<>CALL
HFC$ASSOCCLR
        18**DCL-ENT   740--CALL
HFC$LOCK
        54**DCL-ENT   728--CALL      755--CALL
PTSTRING
        39**DCL       738<<ASSIGN    738>>ASSIGN
RG00
       726**LABEL     758--GOTO
S$CU$
       720**DCL       743>>IF
SEGENT
        33**DCL       737<<ASSIGN
SEGENT.OFFSET
        34**DCL       738>>ASSIGN
PL6.E3A0      #002=SSR$REG File=SSR$RUE.:E05TSI                                  WED 07/30/97 05:59 Page:222
SEGENT.SIZE
        35**DCL        39--IMP-SIZ   738>>ASSIGN    738>>ASSIGN    740>>CALL
SEGTBL.MPTOFFSET
        28**DCL       738>>ASSIGN    740>>CALL
SEGTBL.NODES
        29**DCL       737>>ASSIGN
SSC$MON
        17**DCL-ENT   725--CALL      753--CALL
SSR$REGUE
        15**DCL-ENT   730--CALL      757--CALL
SSS$RG
        14**DCL-ENT   735--CALL
S_CNODE
        22**DCL       734>>ASSIGN    736>>IF        739<<ASSIGN
S_CUN
        21**DCL       726>>ASSIGN    732<<ASSIGN
S_PCU
       360**DCL       733<<ASSIGN
S_PNO
        20**DCL       733>>ASSIGN
S_SCHDGATE
       372**DCL       728<>CALL      755<>CALL
TIME
        11**DCL         7--PROC      730--CALL
USR
        13**DCL       726<<ASSIGN    730<>CALL
