VERSION E05

PL6.E3A0      #001=SS_SCHED_D File=SS_SCHED_D.:E05TSI                            WED 07/30/97 06:01 Page:1
        1        1        /*M*  SS_SCHED_D:  SCHEDULER DATA  DEFINITIONS                        */
        2        2        /*T***********************************************************/
        3        3        /*T*                                                         */
        4        4        /*T* Copyright (c) Bull HN Information Systems Inc., 1997    */
        5        5        /*T*                                                         */
        6        6        /*T***********************************************************/
        7        7        /*                                                                    */
        8        8        SS_SCHED_D: PROC;
        9        9        /*                                                                    */
       10       10        /* ! ! */
       11       11        %INCLUDE SS_SCHED_C;
       12      244        /* ! R ! %INCLUDE SS_CNTRL_R ;*/
       13      245        /* ! R ! %INCLUDE SS_CNTRLD_R; */
       14      246        /* !! */
       15      247        %INCLUDE B_LSDATA_C;
       16     3453        %INCLUDE JG_GHOSTS_C;
       17     3543        %INCLUDE M_INFO_C;
       18     3683        /* !R! */
       19     3684        /*                                                                    */
       20     3685        /*    SCHEDULER STATE QUEUE HEAD AND TAIL TABLES                      */
       21     3686        /*                                                                    */
       22     3687        /*!!*/
       23     3688    1   DCL   S_HQ(0:%SS_SNULL) SBIN STATIC SYMDEF INIT(0*0);
       24     3689        /*!R!
       25     3690        DCL   S_HQ(0:8191) SBIN STATIC SYMDEF INIT(0*0);
       26     3691        */
       27     3692        /*!!*/
       28     3693    1   DCL   S_TQ(0:%SS_SNULL) SBIN STATIC SYMDEF INIT(0*0);
       29     3694        /*!R!
       30     3695        DCL   S_TQ(0:8191) SBIN STATIC SYMDEF INIT(0*0);
       31     3696        */
       32     3697        /*                                                                    */
       33     3698        /*    SCHEDULING RESOURCE SUBQUEUE HEAD AND TAIL TABLES               */
       34     3699        /*                                                                    */
       35     3700    1   DCL   S_RQH(0:5) SBIN STATIC SYMDEF INIT(0*0);
       36     3701    1   DCL   S_RQT(0:5) SBIN STATIC SYMDEF INIT(0*0);
       37     3702    1   DCL 1 S_RQ(0:5) STATIC SYMDEF,
PL6.E3A0      #001=SS_SCHED_D File=SS_SCHED_D.:E05TSI                            WED 07/30/97 06:01 Page:2
       38     3703    1         2 SPEC BIT(1) UNAL INIT('0'B,'0'B,'1'B,'0'B*0), /* RELEASE SPECIFIC USER*/
       39     3704    1         2 NUL BIT(1) UNAL INIT('0'B*0),
       40     3705    1         2 RELV BIT(1) UNAL INIT('0'B*0),
       41     3706    1         2 FLUSH BIT(1) UNAL INIT('0'B*0);
       42     3707        /*                                                                    */
       43     3708        /*    SCHEDULING PRIORITY INCREMENT TABLE                             */
       44     3709        /*                                                                    */
       45     3710    1   DCL   S_PINC(0:5) UBIN(36) STATIC SYMDEF INIT(
       46     3711    1           0,                              /* COMPUTE                            */
       47     3712    1           3,                              /* SPECIAL COMPUTE                    */
       48     3713    1           2,                              /* I/O COMPLETE                       */
       49     3714    1           6,                              /* INTERACTIVE                        */
       50     3715    1           4,                              /* TERMINAL OUTPUT COMPLETE           */
       51     3716    1           3);                             /* RESOURCE UNBLOCK                   */
       52     3717        /*                                                                    */
       53     3718        /*    MISC USER SCHEDULING DATA                                       */
       54     3719        /*                                                                    */
       55     3720    1   DCL   S_EVF SBIN STATIC SYMDEF INIT(0); /* EVENT REPORT CTR                   */
       56     3721    1   DCL   S_CUP UBIN STATIC SYMDEF INIT(0); /* CUR USR PRIORITY                   */
       57     3722    1   DCL   S_HIR SBIN STATIC SYMDEF INIT(0); /* # USRS WAITING TO RUN              */
       58     3723        /*         PROCESSOR CURRENT USER NUMBER                              */
       59     3724    1   DCL   S_PCU(0:7) SBIN STATIC SYMDEF INIT(0*0);
       60     3725        /*         PROCESSOR PORT NUMBER                                      */
       61     3726        /*
       62     3727                    NOTE:
       63     3728                      S_PORTNR(7) IS THE PARTITIONED CPU FLAG.  WHEN S_PORTNR(7)
       64     3729                      IS ZERO, NO CPU IS PARTITIONED.  OTHERWISE, S_PORTNR(7)
       65     3730                      IS THE LOGICAL PROCESSOR NUMBER OF PARTITIONED CPU.
       66     3731        */
       67     3732    1   DCL   S_PORTNR(0:7) UBIN STATIC SYMDEF INIT(0*0);
       68     3733        /*          0 - STOPPED                                 */
       69     3734        /*          1 - PAUSED                                  */
       70     3735        /*          2 - RUNNING                                 */
       71     3736        /*          3 - RELEASED                                */
       72     3737    1   DCL   S_MPSTATE(0:7) SBIN STATIC SYMDEF INIT(0*0);
       73     3738        /*          PROCESSOR STOP FLAG                                         */
       74     3739    1   DCL   S_STOP(0:7) SBIN STATIC SYMDEF INIT(0*0);
PL6.E3A0      #001=SS_SCHED_D File=SS_SCHED_D.:E05TSI                            WED 07/30/97 06:01 Page:3
       75     3740        /*          UTS AT LAST STATE CHANGE FOR EACH PROCESSOR                   */
       76     3741    1   DCL   S_STIME(0:7) SBIN STATIC SYMDEF INIT(0*0);
       77     3742        /*         PROCESSOR TYPE (0=L66, 1=DPSE, 2=ELS1)                     */
       78     3743    1   DCL   S_PTYPE(0:7) SBIN STATIC SYMDEF INIT(-1*0);
       79     3744        /*         PROCESSOR SAFE STORE TYPE (0=L66, 0=DPSE, 2=ELS1)          */
       80     3745    1   DCL   S_SSPTYPE(0:7) SBIN STATIC SYMDEF INIT(-1*0);
       81     3746        /*                                                                    */
       82     3747        /*    SCHEDULING CONTROL DATA      */
       83     3748        /*                                                                    */
       84     3749    1   DCL S_NSCPU UBIN STATIC SYMDEF INIT(0); /* NUMBER SLAVE PROCS                 */
       85     3750    1   DCL S_NSCPUA UBIN STATIC SYMDEF INIT(0); /* NUMBER SLAVE CPUS RUNNING*/
       86     3751    1   DCL S_TDCPUF SBIN STATIC SYMDEF INIT(0); /* DIAG MODE CPU FLAG                */
       87     3752    1   DCL S_TDCPU# UBIN STATIC SYMDEF INIT(0); /* DIAG MODE CPU NUMBER              */
       88     3753    1   DCL S_TDCPUJ UBIN STATIC SYMDEF INIT(0); /* DIAG MODE JOB SCOPE FLAG          */
       89     3754    1   DCL S_IDLCPU SBIN STATIC SYMDEF INIT(0); /* LAST IDLE CPU #                   */
       90     3755    1   DCL S_BACKUP UBIN WORD CONSTANT SYMDEF INIT(256);
       91     3756        /*                                                                    */
       92     3757        /*    SCHEDULER ACCOUNTING DATA                                       */
       93     3758        /*                                                                    */
       94     3759    1   DCL   S_STREAMFILEID CHAR(3) STATIC SYMDEF ALIGNED INIT('$$$');
       95     3760    1   DCL S_SYSID UBIN WORD STATIC SYMDEF INIT(%(JG_MING#+1));
       96     3761    1   DCL S_NSYSIDS UBIN WORD STATIC SYMDEF INIT(%(99999-JG_MING#));
       97     3762    1   DCL S_GETTING_SYSIDS BIT(1) ALIGNED STATIC SYMDEF INIT('1'B);
       98     3763    1   DCL   S_BTIME BIT(72) DALIGNED STATIC SYMDEF INIT('0'B);
       99     3764    1   DCL   S_PRVTIME BIT(72) DALIGNED STATIC SYMDEF INIT('0'B);
      100     3765    1   DCL S_UXEQTIME(0:7) SBIN STATIC SYMDEF INIT(0*0);/*USR XEQ TIME               */
      101     3766    1   DCL S_USRVTIME(0:7) SBIN STATIC SYMDEF INIT(0*0);/*USR SERVICE TIME           */
      102     3767    1   DCL S_MXUSEC(0:7) SBIN STATIC SYMDEF INIT(0*0);/* USEC REMAINDERS             */
      103     3768    1   DCL S_MIDUSEC(0:7) SBIN STATIC SYMDEF INIT(0*0);/* FOR ABOVE TIMES            */
      104     3769    1   DCL   S_MIIUSEC(0:7) SBIN STATIC SYMDEF INIT(0*0);
      105     3770    1   DCL   S_MIRUSEC(0:7) SBIN STATIC SYMDEF INIT(0*0);
      106     3771    1   DCL   S_MIIRUSEC(0:7) SBIN STATIC SYMDEF INIT(0*0);
      107     3772    1   DCL   S_STOPTIME(0:7) SBIN STATIC SYMDEF INIT(0*0);
      108     3773    1   DCL   S_UXUSEC(0:7) SBIN STATIC SYMDEF INIT(0*0);
      109     3774    1   DCL   S_USUSEC(0:7) SBIN STATIC SYMDEF INIT(0*0);
      110     3775    1   DCL S_MXEQTIME(0:7) SBIN STATIC SYMDEF INIT(0*0);/* MON XEQ TIME              */
      111     3776    1   DCL S_MIDLTIME(0:7) SBIN STATIC SYMDEF INIT(0*0); /* MON IDLE TIME            */
PL6.E3A0      #001=SS_SCHED_D File=SS_SCHED_D.:E05TSI                            WED 07/30/97 06:01 Page:4
      112     3777    1   DCL S_MIDLWIO(0:7) SBIN STATIC SYMDEF INIT(0*0); /* MON IDLE W I/O*/
      113     3778    1   DCL   S_MIDLWRES(0:7) SBIN STATIC SYMDEF INIT(0*0);
      114     3779    1   DCL   S_MIDLWRESIO(0:7) SBIN STATIC SYMDEF INIT(0*0);
      115     3780        /*                                                                    */
      116     3781        /*    SCHEDULER DATA USED TO DETECT HUNG SLAVE CPU'S                  */
      117     3782        /*                                                                    */
      118     3783    1   DCL S_PMUSECTIME(0:7) SBIN STATIC SYMDEF INIT(0*0);  /* PREVIOUS MON XEQ TIME */
      119     3784    1   DCL S_MIN_HUNG(0:7) SBIN STATIC SYMDEF INIT(0*0); /* # MINUTES SLAVE CPU HUNG */
      120     3785        /*                                                                    */
      121     3786        /*    INITIAL MONITOR SAFE STORE STACK DESCRIPTOR                     */
      122     3787        /*                                                                    */
      123     3788    1   DCL 1 S_MONSSR CONSTANT SYMDEF DALIGNED,
      124     3789    1         2 BOUND UBIN(20) UNAL INIT(%(MON_SSS_BOUND%)),
      125     3790    1         2 FLGS BIT(9) UNAL INIT('743'O),
      126     3791    1         2 WSR UBIN(3) UNAL INIT(0),
      127     3792    1         2 TYP UBIN(4) UNAL INIT(1),
      128     3793    1         2 BASE UBIN(36) INIT(%(SSS_BASE%));
      129     3794
      130     3795    1   DCL 1 S_STARTSSR CONSTANT SYMDEF DALIGNED,
      131     3796    1         2 BOUND UBIN(20) UNAL INIT(%(MON_SSS_BOUND%-64)),
      132     3797    1         2 FLGS BIT(9) UNAL INIT('743'O),
      133     3798    1         2 WSR UBIN(3) UNAL INIT(0),
      134     3799    1         2 TYP UBIN(4) UNAL INIT(1),
      135     3800    1         2 BASE UBIN(36) INIT(%(SSS_BASE%+64));
      136     3801
      137     3802    1   DCL   B_TICSDAY UBIN(36)  STATIC SYMDEF INIT(2160000);
      138     3803    1   DCL S_BOOTERA UBIN WORD STATIC SYMDEF INIT(0);
      139     3804    1   DCL S_BOOTQUARTER UBIN WORD STATIC SYMDEF INIT(0);
      140     3805    1   DCL S_DOGATE BIT(72) STATIC SYMDEF INIT('1'B);
      141     3806    1   DCL S_UDLGATE BIT(72) STATIC SYMDEF INIT('1'B);
      142     3807    1   DCL S_ASFGATE BIT(72) STATIC SYMDEF INIT('1'B);
      143     3808    1   DCL S_SCHDGATE BIT(72) STATIC SYMDEF INIT('1'B);
      144     3809    1   DCL S_SYSIDGATE BIT(72) STATIC SYMDEF INIT('1'B);
      145     3810    1   DCL S_TMRGATE BIT(72) STATIC SYMDEF INIT('1'B);
      146     3811    1   DCL   S_C10USR UBIN STATIC SYMDEF INIT(0);
      147     3812    1   DCL   S_C10PR  UBIN STATIC SYMDEF INIT(0);
      148     3813    1   DCL S_UPTIME BIT(72) DALIGNED STATIC SYMDEF INIT('0'B); /* TEMP FOR TIME/DATE KI*/
PL6.E3A0      #001=SS_SCHED_D File=SS_SCHED_D.:E05TSI                            WED 07/30/97 06:01 Page:5
      149     3814    1   END SS_SCHED_D;

PL6.E3A0      #001=SS_SCHED_D File=SS_SCHED_D.:E05TSI                            WED 07/30/97 06:01 Page:6
--  Include file information  --

   M_INFO_C.:E05TOU  is referenced.
   JG_GHOSTS_C.:E05TOU  is referenced.
   B_MLSMAC_C.:E05TOU  is referenced.
   B_ULSMAC_C.:E05TOU  is referenced.
   B_LSDATA_C.:E05TOU  cannot be made into a system file and is referenced.
   SS_SCHED_C.:E05TOU  is referenced.
      No diagnostics issued in procedure SS_SCHED_D.

   No code generated for procedure SS_SCHED_D .
   Procedure SS_SCHED_D requires 4 words of local(AUTO) storage.

    No errors detected in file SS_SCHED_D.:E05TSI    .

PL6.E3A0      #001=SS_SCHED_D File=SS_SCHED_D.:E05TSI                            WED 07/30/97 06:01 Page:7

 Object Unit name= SS_SCHED_D                                 File name= SS_SCHED_D.:E05TOU
 UTS= JUL 30 '97 06:01:52.32 WED                              Compiler= PL-6/E31         Sev=      00
 SharedLib= :SHARED_SYSTEM                                    Alt SharedLib=


    ****  Control sections  ****

 Sect   Type Bound  Init  Size OctSiz  Section name(segment info)
    0   Data  even  none   298    452  SS_SCHED_D
    1  RoData even  UTS      6      6  SS_SCHED_D
    2   Proc  even  none     0      0  SS_SCHED_D

    ****  Entry defs  ****

                              Check   Calling
                             calling  sequence
  Sect OctLoc Primary Altret sequence   type   Parms  Name
     2      0   yes            yes     ~proc       0  SS_SCHED_D
PL6.E3A0      #001=SS_SCHED_D File=SS_SCHED_D.:E05TSI                            WED 07/30/97 06:01 Page:8

  ****  Data defs  ****

 Sect OctLoc  Name                           Sect OctLoc  Name
    0      0  S_HQ                               0     31  S_TQ
    0     62  S_RQH                              0     70  S_RQT
    0     76  S_RQ                               0     77  S_PINC
    0    105  S_EVF                              0    106  S_CUP
    0    107  S_HIR                              0    110  S_PCU
    0    120  S_PORTNR                           0    130  S_MPSTATE
    0    140  S_STOP                             0    150  S_STIME
    0    160  S_PTYPE                            0    170  S_SSPTYPE
    0    200  S_NSCPU                            0    201  S_NSCPUA
    0    202  S_TDCPUF                           0    203  S_TDCPU#
    0    204  S_TDCPUJ                           0    205  S_IDLCPU
    1      0  S_BACKUP                           0    206  S_STREAMFILEID
    0    207  S_SYSID                            0    210  S_NSYSIDS
    0    211  S_GETTING_SYSIDS                   0    212  S_BTIME
    0    214  S_PRVTIME                          0    216  S_UXEQTIME
    0    226  S_USRVTIME                         0    236  S_MXUSEC
    0    246  S_MIDUSEC                          0    256  S_MIIUSEC
    0    266  S_MIRUSEC                          0    276  S_MIIRUSEC
    0    306  S_STOPTIME                         0    316  S_UXUSEC
    0    326  S_USUSEC                           0    336  S_MXEQTIME
    0    346  S_MIDLTIME                         0    356  S_MIDLWIO
    0    366  S_MIDLWRES                         0    376  S_MIDLWRESIO
    0    406  S_PMUSECTIME                       0    416  S_MIN_HUNG
    1      2  S_MONSSR                           1      4  S_STARTSSR
    0    426  B_TICSDAY                          0    427  S_BOOTERA
    0    430  S_BOOTQUARTER                      0    431  S_DOGATE
    0    433  S_UDLGATE                          0    435  S_ASFGATE
    0    437  S_SCHDGATE                         0    441  S_SYSIDGATE
    0    443  S_TMRGATE                          0    445  S_C10USR
    0    446  S_C10PR                            0    450  S_UPTIME
PL6.E3A0      #001=SS_SCHED_D File=SS_SCHED_D.:E05TSI                            WED 07/30/97 06:01 Page:9


(unnamed)
 Sect OctLoc
   0     000   000000 000000   000000 000000   000000 000000   000000 000000    ................
   0     074*  000000 000000   000000 000000   001000 000***   000000 000000    ................
   0     100   000000 000003   000000 000002   000000 000006   000000 000004    ................
   0     104   000000 000003   000000 000000   000000 000000   000000 000000    ................
   0     110   000000 000000   000000 000000   000000 000000   000000 000000    ................
   0     160*  777777 777777   777777 777777   777777 777777   777777 777777    ................
   0     200*  000000 000000   000000 000000   000000 000000   000000 000000    ................
   0     204   000000 000000   000000 000000   044044 044***   000000 000020    ........$$$.....
   0     210   000000 303220   4***** ******   000000 000000   000000 000000    ................
   0     214   000000 000000   000000 000000   000000 000000   000000 000000    ................
   0     424*  000000 000000   000000 000000   000010 172600   000000 000000    ..........z.....
   0     430   000000 000000   400000 000000   000000 000000   400000 000000    ................
   0     444*  000000 000000   000000 000000   000000 000000   ****** ******    ................
   0     450   000000 000000   000000 000000                                    ........

(unnamed)
 Sect OctLoc
   1     000   000000 000400   ****** ******   003117 770601   000000 152300    .........O....j.
   1     004   003077 770601   000000 152400                                    .?....j.
        1        1        /*M*  SS_SCHED_D:  SCHEDULER DATA  DEFINITIONS                        */
        2        2        /*T***********************************************************/
        3        3        /*T*                                                         */
        4        4        /*T* Copyright (c) Bull HN Information Systems Inc., 1997    */
        5        5        /*T*                                                         */
        6        6        /*T***********************************************************/
        7        7        /*                                                                    */
        8        8        SS_SCHED_D: PROC;
        9        9        /*                                                                    */
       10       10        /* ! ! */
       11       11        %INCLUDE SS_SCHED_C;
       12      244        /* ! R ! %INCLUDE SS_CNTRL_R ;*/
       13      245        /* ! R ! %INCLUDE SS_CNTRLD_R; */
       14      246        /* !! */
       15      247        %INCLUDE B_LSDATA_C;
PL6.E3A0      #001=SS_SCHED_D File=SS_SCHED_D.:E05TSI                            WED 07/30/97 06:01 Page:10
       16     3453        %INCLUDE JG_GHOSTS_C;
       17     3543        %INCLUDE M_INFO_C;
       18     3683        /* !R! */
       19     3684        /*                                                                    */
       20     3685        /*    SCHEDULER STATE QUEUE HEAD AND TAIL TABLES                      */
       21     3686        /*                                                                    */
       22     3687        /*!!*/
       23     3688    1   DCL   S_HQ(0:%SS_SNULL) SBIN STATIC SYMDEF INIT(0*0);
       24     3689        /*!R!
       25     3690        DCL   S_HQ(0:8191) SBIN STATIC SYMDEF INIT(0*0);
       26     3691        */
       27     3692        /*!!*/
       28     3693    1   DCL   S_TQ(0:%SS_SNULL) SBIN STATIC SYMDEF INIT(0*0);
       29     3694        /*!R!
       30     3695        DCL   S_TQ(0:8191) SBIN STATIC SYMDEF INIT(0*0);
       31     3696        */
       32     3697        /*                                                                    */
       33     3698        /*    SCHEDULING RESOURCE SUBQUEUE HEAD AND TAIL TABLES               */
       34     3699        /*                                                                    */
       35     3700    1   DCL   S_RQH(0:5) SBIN STATIC SYMDEF INIT(0*0);
       36     3701    1   DCL   S_RQT(0:5) SBIN STATIC SYMDEF INIT(0*0);
       37     3702    1   DCL 1 S_RQ(0:5) STATIC SYMDEF,
       38     3703    1         2 SPEC BIT(1) UNAL INIT('0'B,'0'B,'1'B,'0'B*0), /* RELEASE SPECIFIC USER*/
       39     3704    1         2 NUL BIT(1) UNAL INIT('0'B*0),
       40     3705    1         2 RELV BIT(1) UNAL INIT('0'B*0),
       41     3706    1         2 FLUSH BIT(1) UNAL INIT('0'B*0);
       42     3707        /*                                                                    */
       43     3708        /*    SCHEDULING PRIORITY INCREMENT TABLE                             */
       44     3709        /*                                                                    */
       45     3710    1   DCL   S_PINC(0:5) UBIN(36) STATIC SYMDEF INIT(
       46     3711    1           0,                              /* COMPUTE                            */
       47     3712    1           3,                              /* SPECIAL COMPUTE                    */
       48     3713    1           2,                              /* I/O COMPLETE                       */
       49     3714    1           6,                              /* INTERACTIVE                        */
       50     3715    1           4,                              /* TERMINAL OUTPUT COMPLETE           */
       51     3716    1           3);                             /* RESOURCE UNBLOCK                   */
       52     3717        /*                                                                    */
PL6.E3A0      #001=SS_SCHED_D File=SS_SCHED_D.:E05TSI                            WED 07/30/97 06:01 Page:11
       53     3718        /*    MISC USER SCHEDULING DATA                                       */
       54     3719        /*                                                                    */
       55     3720    1   DCL   S_EVF SBIN STATIC SYMDEF INIT(0); /* EVENT REPORT CTR                   */
       56     3721    1   DCL   S_CUP UBIN STATIC SYMDEF INIT(0); /* CUR USR PRIORITY                   */
       57     3722    1   DCL   S_HIR SBIN STATIC SYMDEF INIT(0); /* # USRS WAITING TO RUN              */
       58     3723        /*         PROCESSOR CURRENT USER NUMBER                              */
       59     3724    1   DCL   S_PCU(0:7) SBIN STATIC SYMDEF INIT(0*0);
       60     3725        /*         PROCESSOR PORT NUMBER                                      */
       61     3726        /*
       62     3727                    NOTE:
       63     3728                      S_PORTNR(7) IS THE PARTITIONED CPU FLAG.  WHEN S_PORTNR(7)
       64     3729                      IS ZERO, NO CPU IS PARTITIONED.  OTHERWISE, S_PORTNR(7)
       65     3730                      IS THE LOGICAL PROCESSOR NUMBER OF PARTITIONED CPU.
       66     3731        */
       67     3732    1   DCL   S_PORTNR(0:7) UBIN STATIC SYMDEF INIT(0*0);
       68     3733        /*          0 - STOPPED                                 */
       69     3734        /*          1 - PAUSED                                  */
       70     3735        /*          2 - RUNNING                                 */
       71     3736        /*          3 - RELEASED                                */
       72     3737    1   DCL   S_MPSTATE(0:7) SBIN STATIC SYMDEF INIT(0*0);
       73     3738        /*          PROCESSOR STOP FLAG                                         */
       74     3739    1   DCL   S_STOP(0:7) SBIN STATIC SYMDEF INIT(0*0);
       75     3740        /*          UTS AT LAST STATE CHANGE FOR EACH PROCESSOR                   */
       76     3741    1   DCL   S_STIME(0:7) SBIN STATIC SYMDEF INIT(0*0);
       77     3742        /*         PROCESSOR TYPE (0=L66, 1=DPSE, 2=ELS1)                     */
       78     3743    1   DCL   S_PTYPE(0:7) SBIN STATIC SYMDEF INIT(-1*0);
       79     3744        /*         PROCESSOR SAFE STORE TYPE (0=L66, 0=DPSE, 2=ELS1)          */
       80     3745    1   DCL   S_SSPTYPE(0:7) SBIN STATIC SYMDEF INIT(-1*0);
       81     3746        /*                                                                    */
       82     3747        /*    SCHEDULING CONTROL DATA      */
       83     3748        /*                                                                    */
       84     3749    1   DCL S_NSCPU UBIN STATIC SYMDEF INIT(0); /* NUMBER SLAVE PROCS                 */
       85     3750    1   DCL S_NSCPUA UBIN STATIC SYMDEF INIT(0); /* NUMBER SLAVE CPUS RUNNING*/
       86     3751    1   DCL S_TDCPUF SBIN STATIC SYMDEF INIT(0); /* DIAG MODE CPU FLAG                */
       87     3752    1   DCL S_TDCPU# UBIN STATIC SYMDEF INIT(0); /* DIAG MODE CPU NUMBER              */
       88     3753    1   DCL S_TDCPUJ UBIN STATIC SYMDEF INIT(0); /* DIAG MODE JOB SCOPE FLAG          */
       89     3754    1   DCL S_IDLCPU SBIN STATIC SYMDEF INIT(0); /* LAST IDLE CPU #                   */
PL6.E3A0      #001=SS_SCHED_D File=SS_SCHED_D.:E05TSI                            WED 07/30/97 06:01 Page:12
       90     3755    1   DCL S_BACKUP UBIN WORD CONSTANT SYMDEF INIT(256);
       91     3756        /*                                                                    */
       92     3757        /*    SCHEDULER ACCOUNTING DATA                                       */
       93     3758        /*                                                                    */
       94     3759    1   DCL   S_STREAMFILEID CHAR(3) STATIC SYMDEF ALIGNED INIT('$$$');
       95     3760    1   DCL S_SYSID UBIN WORD STATIC SYMDEF INIT(%(JG_MING#+1));
       96     3761    1   DCL S_NSYSIDS UBIN WORD STATIC SYMDEF INIT(%(99999-JG_MING#));
       97     3762    1   DCL S_GETTING_SYSIDS BIT(1) ALIGNED STATIC SYMDEF INIT('1'B);
       98     3763    1   DCL   S_BTIME BIT(72) DALIGNED STATIC SYMDEF INIT('0'B);
       99     3764    1   DCL   S_PRVTIME BIT(72) DALIGNED STATIC SYMDEF INIT('0'B);
      100     3765    1   DCL S_UXEQTIME(0:7) SBIN STATIC SYMDEF INIT(0*0);/*USR XEQ TIME               */
      101     3766    1   DCL S_USRVTIME(0:7) SBIN STATIC SYMDEF INIT(0*0);/*USR SERVICE TIME           */
      102     3767    1   DCL S_MXUSEC(0:7) SBIN STATIC SYMDEF INIT(0*0);/* USEC REMAINDERS             */
      103     3768    1   DCL S_MIDUSEC(0:7) SBIN STATIC SYMDEF INIT(0*0);/* FOR ABOVE TIMES            */
      104     3769    1   DCL   S_MIIUSEC(0:7) SBIN STATIC SYMDEF INIT(0*0);
      105     3770    1   DCL   S_MIRUSEC(0:7) SBIN STATIC SYMDEF INIT(0*0);
      106     3771    1   DCL   S_MIIRUSEC(0:7) SBIN STATIC SYMDEF INIT(0*0);
      107     3772    1   DCL   S_STOPTIME(0:7) SBIN STATIC SYMDEF INIT(0*0);
      108     3773    1   DCL   S_UXUSEC(0:7) SBIN STATIC SYMDEF INIT(0*0);
      109     3774    1   DCL   S_USUSEC(0:7) SBIN STATIC SYMDEF INIT(0*0);
      110     3775    1   DCL S_MXEQTIME(0:7) SBIN STATIC SYMDEF INIT(0*0);/* MON XEQ TIME              */
      111     3776    1   DCL S_MIDLTIME(0:7) SBIN STATIC SYMDEF INIT(0*0); /* MON IDLE TIME            */
      112     3777    1   DCL S_MIDLWIO(0:7) SBIN STATIC SYMDEF INIT(0*0); /* MON IDLE W I/O*/
      113     3778    1   DCL   S_MIDLWRES(0:7) SBIN STATIC SYMDEF INIT(0*0);
      114     3779    1   DCL   S_MIDLWRESIO(0:7) SBIN STATIC SYMDEF INIT(0*0);
      115     3780        /*                                                                    */
      116     3781        /*    SCHEDULER DATA USED TO DETECT HUNG SLAVE CPU'S                  */
      117     3782        /*                                                                    */
      118     3783    1   DCL S_PMUSECTIME(0:7) SBIN STATIC SYMDEF INIT(0*0);  /* PREVIOUS MON XEQ TIME */
      119     3784    1   DCL S_MIN_HUNG(0:7) SBIN STATIC SYMDEF INIT(0*0); /* # MINUTES SLAVE CPU HUNG */
      120     3785        /*                                                                    */
      121     3786        /*    INITIAL MONITOR SAFE STORE STACK DESCRIPTOR                     */
      122     3787        /*                                                                    */
      123     3788    1   DCL 1 S_MONSSR CONSTANT SYMDEF DALIGNED,
      124     3789    1         2 BOUND UBIN(20) UNAL INIT(%(MON_SSS_BOUND%)),
      125     3790    1         2 FLGS BIT(9) UNAL INIT('743'O),
      126     3791    1         2 WSR UBIN(3) UNAL INIT(0),
PL6.E3A0      #001=SS_SCHED_D File=SS_SCHED_D.:E05TSI                            WED 07/30/97 06:01 Page:13
      127     3792    1         2 TYP UBIN(4) UNAL INIT(1),
      128     3793    1         2 BASE UBIN(36) INIT(%(SSS_BASE%));
      129     3794
      130     3795    1   DCL 1 S_STARTSSR CONSTANT SYMDEF DALIGNED,
      131     3796    1         2 BOUND UBIN(20) UNAL INIT(%(MON_SSS_BOUND%-64)),
      132     3797    1         2 FLGS BIT(9) UNAL INIT('743'O),
      133     3798    1         2 WSR UBIN(3) UNAL INIT(0),
      134     3799    1         2 TYP UBIN(4) UNAL INIT(1),
      135     3800    1         2 BASE UBIN(36) INIT(%(SSS_BASE%+64));
      136     3801
      137     3802    1   DCL   B_TICSDAY UBIN(36)  STATIC SYMDEF INIT(2160000);
      138     3803    1   DCL S_BOOTERA UBIN WORD STATIC SYMDEF INIT(0);
      139     3804    1   DCL S_BOOTQUARTER UBIN WORD STATIC SYMDEF INIT(0);
      140     3805    1   DCL S_DOGATE BIT(72) STATIC SYMDEF INIT('1'B);
      141     3806    1   DCL S_UDLGATE BIT(72) STATIC SYMDEF INIT('1'B);
      142     3807    1   DCL S_ASFGATE BIT(72) STATIC SYMDEF INIT('1'B);
      143     3808    1   DCL S_SCHDGATE BIT(72) STATIC SYMDEF INIT('1'B);
      144     3809    1   DCL S_SYSIDGATE BIT(72) STATIC SYMDEF INIT('1'B);
      145     3810    1   DCL S_TMRGATE BIT(72) STATIC SYMDEF INIT('1'B);
      146     3811    1   DCL   S_C10USR UBIN STATIC SYMDEF INIT(0);
      147     3812    1   DCL   S_C10PR  UBIN STATIC SYMDEF INIT(0);
      148     3813    1   DCL S_UPTIME BIT(72) DALIGNED STATIC SYMDEF INIT('0'B); /* TEMP FOR TIME/DATE KI*/
      149     3814    1   END SS_SCHED_D;

PL6.E3A0      #001=SS_SCHED_D File=SS_SCHED_D.:E05TSI                            WED 07/30/97 06:01 Page:14
--  Include file information  --

   M_INFO_C.:E05TOU  is referenced.
   JG_GHOSTS_C.:E05TOU  is referenced.
   B_MLSMAC_C.:E05TOU  is referenced.
   B_ULSMAC_C.:E05TOU  is referenced.
   B_LSDATA_C.:E05TOU  cannot be made into a system file and is referenced.
   SS_SCHED_C.:E05TOU  is referenced.
      No diagnostics issued in procedure SS_SCHED_D.
PL6.E3A0      #001=SS_SCHED_D File=SS_SCHED_D.:E05TSI                            WED 07/30/97 06:01 Page:15

 **** Variables and constants ****


   No code generated for procedure SS_SCHED_D .
   Procedure SS_SCHED_D requires 4 words of local(AUTO) storage.

    No errors detected in file SS_SCHED_D.:E05TSI    .
PL6.E3A0      #001=SS_SCHED_D File=SS_SCHED_D.:E05TSI                            WED 07/30/97 06:01 Page:16
          *** CROSS REFERENCE LISTING ***
**     DENOTES     IDENTIFIER DEFINITION
<<                 IDENTIFIER'S VALUE SET
>>                 IDENTIFIER'S VALUE USED
<>                 IDENTIFIER SET AND/OR USED
--                 IDENTIFIER REFERENCED
PL6.E3A0      #001=SS_SCHED_D File=SS_SCHED_D.:E05TSI                            WED 07/30/97 06:01 Page:17
          MINI XREF LISTING

