VERSION E05

PL6.E3A0      #001=S_GJOB_D File=S_GJOB_D.:E05TSI                                WED 07/30/97 06:02 Page:1
        1        1        /*M*  S_GJOB_D: GHOST JOB TABLES DEFINITION                           */
        2        2        /*T***********************************************************/
        3        3        /*T*                                                         */
        4        4        /*T* Copyright (c) Bull HN Information Systems Inc., 1997    */
        5        5        /*T*                                                         */
        6        6        /*T***********************************************************/
        7        7        /*                                                                    */
        8        8        S_GJOB_D: PROC;
        9        9        %INCLUDE JG_GHOSTS_C;
       10       99    1   DCL S_MING STATIC SYMDEF UBIN INIT(JG_MING#); /* # SYSTEM GHOSTS              */
       11      100    1   END;

PL6.E3A0      #001=S_GJOB_D File=S_GJOB_D.:E05TSI                                WED 07/30/97 06:02 Page:2
--  Include file information  --

   JG_GHOSTS_C.:E05TOU  is referenced.
      No diagnostics issued in procedure S_GJOB_D.

   No code generated for procedure S_GJOB_D .
   Procedure S_GJOB_D requires 4 words of local(AUTO) storage.

    No errors detected in file S_GJOB_D.:E05TSI    .

PL6.E3A0      #001=S_GJOB_D File=S_GJOB_D.:E05TSI                                WED 07/30/97 06:02 Page:3

 Object Unit name= S_GJOB_D                                   File name= S_GJOB_D.:E05TOU
 UTS= JUL 30 '97 06:02:19.68 WED                              Compiler= PL-6/E31         Sev=      00
 SharedLib= :SHARED_SYSTEM                                    Alt SharedLib=


    ****  Control sections  ****

 Sect   Type Bound  Init  Size OctSiz  Section name(segment info)
    0   Data  even  none     1      1  S_GJOB_D
    1   Proc  even  none     0      0  S_GJOB_D

    ****  Entry defs  ****

                              Check   Calling
                             calling  sequence
  Sect OctLoc Primary Altret sequence   type   Parms  Name
     1      0   yes            yes     ~proc       0  S_GJOB_D

  ****  Data defs  ****

 Sect OctLoc  Name                           Sect OctLoc  Name
    0      0  S_MING
PL6.E3A0      #001=S_GJOB_D File=S_GJOB_D.:E05TSI                                WED 07/30/97 06:02 Page:4


(unnamed)
 Sect OctLoc
   0     000   000000 000017                                                    ....
        1        1        /*M*  S_GJOB_D: GHOST JOB TABLES DEFINITION                           */
        2        2        /*T***********************************************************/
        3        3        /*T*                                                         */
        4        4        /*T* Copyright (c) Bull HN Information Systems Inc., 1997    */
        5        5        /*T*                                                         */
        6        6        /*T***********************************************************/
        7        7        /*                                                                    */
        8        8        S_GJOB_D: PROC;
        9        9        %INCLUDE JG_GHOSTS_C;
       10       99    1   DCL S_MING STATIC SYMDEF UBIN INIT(JG_MING#); /* # SYSTEM GHOSTS              */
       11      100    1   END;

PL6.E3A0      #001=S_GJOB_D File=S_GJOB_D.:E05TSI                                WED 07/30/97 06:02 Page:5
--  Include file information  --

   JG_GHOSTS_C.:E05TOU  is referenced.
      No diagnostics issued in procedure S_GJOB_D.
PL6.E3A0      #001=S_GJOB_D File=S_GJOB_D.:E05TSI                                WED 07/30/97 06:02 Page:6

 **** Variables and constants ****


   No code generated for procedure S_GJOB_D .
   Procedure S_GJOB_D requires 4 words of local(AUTO) storage.

    No errors detected in file S_GJOB_D.:E05TSI    .
PL6.E3A0      #001=S_GJOB_D File=S_GJOB_D.:E05TSI                                WED 07/30/97 06:02 Page:7
          *** CROSS REFERENCE LISTING ***
**     DENOTES     IDENTIFIER DEFINITION
<<                 IDENTIFIER'S VALUE SET
>>                 IDENTIFIER'S VALUE USED
<>                 IDENTIFIER SET AND/OR USED
--                 IDENTIFIER REFERENCED
PL6.E3A0      #001=S_GJOB_D File=S_GJOB_D.:E05TSI                                WED 07/30/97 06:02 Page:8
          MINI XREF LISTING

