VERSION E05

PL6.E3A0      #001=S_WSPTD_D File=S_WSPTD_D.:E05TSI                              WED 07/30/97 06:02 Page:1
        1        1        /*M*  S_WSPTD_D - Working Space Page Table Directory */
        2        2        /*T***********************************************************/
        3        3        /*T*                                                         */
        4        4        /*T* Copyright (c) Bull HN Information Systems Inc., 1997    */
        5        5        /*T*                                                         */
        6        6        /*T***********************************************************/
        7        7
        8        8        S_WSPTD_D: PROC;
        9        9
       10       10        /*    This module contains definitions for the Working Space Page     */
       11       11        /*    Table Directory and other processor dependant monitor data.     */
       12       12
       13       13        /* ! R $ ! */
       14       14    1   DCL 1 S_WSPTD(0:28) STATIC SYMDEF ALIGNED, /* Working Space Page Table Dir.   */
       15       15    1         2 BLKNO UBIN(18) UNAL INIT(0*29),
                15                  /* 64-word(1024 in XA on DPS-90) block no. of page tbl      */
       16       16    1         2 Q BIT(2) UNAL INIT('00'B*29),   /* WSQ Access control                 */
       17       17    1         2 P BIT(1) UNAL INIT('0'B*29),    /* Page table present bit             */
       18       18    1         2 T BIT(2) UNAL INIT('0'B*29),    /* Type of page table             */
       19       19    1         2 * BIT(1) UNAL INIT('0'B*29),    /* Unused                             */
       20       20    1         2 NBLKS UBIN(12) UNAL INIT(0*29);  /* No. of blocks in page table        */
       21       21        /* ! ! */
       22       22    1   DCL   S$WSPTD$  STATIC SYMDEF PTR INIT(ADDR(S_WSPTD));
       23       23    1   DCL S_CUN UBIN(36) STATIC SYMDEF INIT(0); /* CURRENT USER NUMBER              */
       24       24    1   DCL S$CU$ PTR INIT(ADDR(NIL)) STATIC SYMDEF; /* CURRENT USER TABLE ENTRY      */
       25       25    1   DCL S_PNO UBIN(36) STATIC SYMDEF INIT(0); /* PROCESSOR NUMBER                 */
       26       26    1   DCL BHF_TEMP BIT(72) DALIGNED STATIC SYMDEF; /*TEMP USED BY HFF*/
       27       27    1   DCL S_ITIME BIT(72) DALIGNED STATIC SYMDEF /* BEGIN INTERVAL TIME             */
       28       28    1              INIT('0'B);
       29       29    1   DCL   S_TIMR UBIN(36) STATIC SYMDEF;    /* INTERVAL TIME TYPE                 */
       30       30    1   DCL   S_INCTIME UBIN STATIC SYMDEF;     /* INCREMENT SINCE LAST SWITCH        */
       31       31    1   DCL H_GATECNT SBIN STATIC SYMDEF INIT(0); /* # gates locked                   */
       32       32    1   DCL S_UXTSCHD STATIC SYMDEF UBIN INIT(0); /* XTIME AT SCHEDULE                */
       33       33    1   DCL S_USTSCHD STATIC SYMDEF UBIN INIT(0); /* STIME AT SCHEDULE                */
       34       34    1   DCL S_ACCTIME STATIC SYMDEF UBIN INIT(0); /* NEXT ACCT TIME                   */
       35       35    1   DCL NI_INTLVL SBIN STATIC SYMDEF INIT(0); /* LEVEL OF INTERRUPT STACKING */
       36       36    1   DCL NI_COMPHD$ PTR STATIC SYMDEF INIT(ADDR(NIL)); /* QUEUE OF REQUESTS TO BE POSTED
PL6.E3A0      #001=S_WSPTD_D File=S_WSPTD_D.:E05TSI                              WED 07/30/97 06:02 Page:2
       37       37                                                             AT INTLVL 1 */
       38       38    1   DCL S_CNODE UBIN STATIC SYMDEF INIT(0); /* CURRENT OVERLAY NODE */
       39       39        /* ! R ! */
       40       40    1   DCL S_PDBR UBIN WORD STATIC SYMDEF INIT(0);
       41       41                            /* CONTENTS OF PAGE DIRECTORY BASE REGISTER AFTER FAULT   */
       42       42    1   DCL S_OPTION_REG BIT(36) STATIC SYMDEF ALIGNED INIT('0'B);
       43       43            /* CONTENTS OF OPTION REGISTER AFTER FAULT
       44       44                 BIT 18 -> DATA STACK CLEAR FLAG
       45       45                 BIT 19 -> SAFE STORE BYPASS FLAG
       46       46                 BIT 24 -> CACHE READ CONTROL FLAG */
       47       47    1   DCL S_WSR BIT(72) STATIC SYMDEF DALIGNED INIT('0'B);
       48       48                                 /* CONTENTS OF WORKING SPACE REGISTERS AFTER FAULT   */
       49       49    1   DCL S_FLT_IS_START UBIN WORD STATIC SYMDEF INIT(0);
       50       50                       /* USER ADDR CORRESPONDING TO 1ST LOCATION IN S_FLT_IS ARRAY   */
       51       51    1   DCL S_THIS_PTYPE UBIN WORD STATIC SYMDEF INIT(0);
       52       52            /* PROCESSOR SAFE STORE TYPE FOR THIS CPU (0=L66, 0=DPSE, 2=ELS) */
       53       53    1   DCL S_RETRY SBIN WORD STATIC SYMDEF INIT(0);
       54       54            /* RETRY FLAG - IGNORE WRITE PARITY ERROR ON SCPR INSTRUCTIONS
       55       55                 NEG  -> DONT IGNORE ANY WRITE PARITY ERRORS
       56       56                 ZERO -> NO WRITE PARITY ERRORS HAVE OCCURRED SINCE S_RETRY
       57       57                         WAS CLEARED
       58       58                 POS  -> NUMBER OF WRITE PARITY ERRORS THAT HAVE OCCURRED
       59       59                         SINCE S_RETRY WAS CLEARED                                    */
       60       60    1   DCL S_THIS_PERF UBIN STATIC SYMDEF INIT(0); /* APPROX PERF LEVEL OF THIS CPU */
       61       61        /* ! ! */
       62       62    1   DCL FILL (0:1) BIT(36) STATIC INIT('123456701234'O*0);
       63       63        /* ! R ! */
       64       64    1   DCL S_FLT_IS (0:31) UBIN WORD STATIC SYMDEF INIT(0*0);
       65       65            /* INSTRUCTIONS FROM FAULTING DOMAIN'S INSTRUCTION SEGMENT
       66       66               AROUND FAULTING INSTRUCTION FOR DIAGNOSTIC SNAPSHOT */
       67       67    1   DCL S_INT_SS (0:63) UBIN WORD STATIC SYMDEF INIT(0*0);
       68       68            /* COPY OF SAFE STORE FRAME AFTER AN INTERRUPTED EIS MULITWORD
       69       69               INSTRUCTION ON THIS CPU IS H_SAVE_SS IS SET */
       70       70    1   DCL S_TRO_SS (0:63) UBIN WORD STATIC SYMDEF INIT(0*0);
       71       71            /* COPY OF SAFE STORE FRAME AFTER A TIMER RUNOUT FAULT WHICH
       72       72               INTERRUPTED AN EIS MULTIWORD INSTRUCTION ON THIS CPU IF
       73       73               H_SAVE_SS IS SET */
PL6.E3A0      #001=S_WSPTD_D File=S_WSPTD_D.:E05TSI                              WED 07/30/97 06:02 Page:3
       74       74    1   DCL S_PTWAM (0:255) UBIN WORD STATIC SYMDEF INIT(0*0);
       75       75            /* IF H_SNAP IS SET, THIS AREA CONTAINS THE CONTENTS OF THE PAGE
       76       76               TABLE WORD ASSOCIATIVE MEMORY FOR THIS CPU AFTER A FAULT.
       77       77               ASSOCIATIVE MEMORY IS NOT SAVED FOR TIMER RUNOUT, CONNECT,
       78       78               DERAIL, MME, AND FAULT TAG FAULTS */
       79       79    1   DCL S_PGTABLE (0:255) UBIN WORD STATIC SYMDEF INIT(0*0);
       80       80            /* IF H_SNAP IS SET AND ALL CONDITIONS FOR A SNAPSHOT ARE
       81       81               SATISFIED AND ISR IS NOT MONITOR (WSR0), USER (WSR7), OR REAL
       82       82               (WSQ0) THEN THIS IS THE FIRST 256 WORDS OF THE PAGE TABLE
       83       83               SPECIFIED BY THE WSR OF THE FAULTING INSTRUCTION'S ISR */
       84       84        /*
       85       85            DATA USED BY MAKE CPU MASTER IN HFC$UTIL
       86       86        */
       87       87    1   DCL S_XSSR BIT(72) STATIC SYMDEF DALIGNED INIT('0'B);
       88       88    1   DCL S_XPSR BIT(72) STATIC SYMDEF DALIGNED INIT('0'B);
       89       89    1   DCL S_DPR2 BIT(72) STATIC SYMDEF DALIGNED INIT('0'B);
       90       90    1   DCL S_XASR BIT(72) STATIC SYMDEF DALIGNED INIT('0'B);
       91       91    1   DCL S_XPR2 UBIN STATIC SYMDEF INIT(0);
       92       92    1   DCL S_X1 UBIN STATIC SYMDEF INIT(0);
       93       93    1   DCL S_XX UBIN STATIC SYMDEF INIT(0);
       94       94    1   DCL S_RLF_SSR BIT(72) STATIC SYMDEF DALIGNED INIT('0'B);
       95       95    1   DCL S_SSR_EXIT1 BIT(72) STATIC SYMDEF DALIGNED INIT('0'B);
       96       96    1   DCL S_SSR_EXIT2 BIT(72) STATIC SYMDEF DALIGNED INIT('0'B);
       97       97    1   DCL S_SSR_EXIT3 BIT(72) STATIC SYMDEF DALIGNED INIT('0'B);
       98       98    1   DCL S_SSR_EXIT4 BIT(72) STATIC SYMDEF DALIGNED INIT('0'B);
       99       99    1   DCL S_SSR_EXIT5 BIT(72) STATIC SYMDEF DALIGNED INIT('0'B);
      100      100    1   DCL S_SSR_EXIT6 BIT(72) STATIC SYMDEF DALIGNED INIT('0'B);
      101      101    1   DCL S_RVA UBIN STATIC SYMDEF INIT(0);/* VIRTUAL ADDRESS ON MSP */
      102      102
      103      103        /* RWPARM used when a straight data out is to be done through the network layers */
      104      104        /* ! ! */
      105      105        %INCLUDE K$RWPARM;
      106      491        %K$RWPARM (NAME=S_RWPARM,STCLASS="STATIC SYMDEF");
      107      807    1   DCL KQX_BINBUF (0:8) UBIN STATIC SYMDEF; /*Buffer to stretch 9->8*/
      108      808        /* ! R ! */
      109      809
      110      810    1   END S_WSPTD_D;
PL6.E3A0      #001=S_WSPTD_D File=S_WSPTD_D.:E05TSI                              WED 07/30/97 06:02 Page:4

PL6.E3A0      #001=S_WSPTD_D File=S_WSPTD_D.:E05TSI                              WED 07/30/97 06:02 Page:5
--  Include file information  --

   K$RWPARM.:E05TOU  is referenced.
      No diagnostics issued in procedure S_WSPTD_D.

   No code generated for procedure S_WSPTD_D .
   Procedure S_WSPTD_D requires 4 words of local(AUTO) storage.

    No errors detected in file S_WSPTD_D.:E05TSI    .

PL6.E3A0      #001=S_WSPTD_D File=S_WSPTD_D.:E05TSI                              WED 07/30/97 06:02 Page:6

 Object Unit name= S_WSPTD_D                                  File name= S_WSPTD_D.:E05TOU
 UTS= JUL 30 '97 06:02:39.28 WED                              Compiler= PL-6/E31         Sev=      00
 SharedLib= :SHARED_SYSTEM                                    Alt SharedLib=


    ****  Control sections  ****

 Sect   Type Bound  Init  Size OctSiz  Section name(segment info)
    0   Data  even  none   807   1447  S_WSPTD_D
    1   Proc  even  none     0      0  S_WSPTD_D

    ****  Entry defs  ****

                              Check   Calling
                             calling  sequence
  Sect OctLoc Primary Altret sequence   type   Parms  Name
     1      0   yes            yes     ~proc       0  S_WSPTD_D

  ****  Data defs  ****

 Sect OctLoc  Name                           Sect OctLoc  Name
    0      0  S_WSPTD                            0     35  S$WSPTD$
    0     36  S_CUN                              0     37  S$CU$
    0     40  S_PNO                              0     42  BHF_TEMP
    0     44  S_ITIME                            0     46  S_TIMR
    0     47  S_INCTIME                          0     50  H_GATECNT
    0     51  S_UXTSCHD                          0     52  S_USTSCHD
    0     53  S_ACCTIME                          0     54  NI_INTLVL
    0     55  NI_COMPHD$                         0     56  S_CNODE
    0     57  S_PDBR                             0     60  S_OPTION_REG
    0     62  S_WSR                              0     64  S_FLT_IS_START
    0     65  S_THIS_PTYPE                       0     66  S_RETRY
    0     67  S_THIS_PERF                        0     72  S_FLT_IS
    0    132  S_INT_SS                           0    232  S_TRO_SS
    0    332  S_PTWAM                            0    732  S_PGTABLE
    0   1332  S_XSSR                             0   1334  S_XPSR
    0   1336  S_DPR2                             0   1340  S_XASR
PL6.E3A0      #001=S_WSPTD_D File=S_WSPTD_D.:E05TSI                              WED 07/30/97 06:02 Page:7
    0   1342  S_XPR2                             0   1343  S_X1
    0   1344  S_XX                               0   1346  S_RLF_SSR
    0   1350  S_SSR_EXIT1                        0   1352  S_SSR_EXIT2
    0   1354  S_SSR_EXIT3                        0   1356  S_SSR_EXIT4
    0   1360  S_SSR_EXIT5                        0   1362  S_SSR_EXIT6
    0   1364  S_RVA                              0   1366  S_RWPARM
    0   1436  KQX_BINBUF

  ****  Segment refs  ****

  Flags:  r = read only, s = secondary
Flgs Name                             Flgs Name                             Flgs Name
     ISSID                                 NULLSID
PL6.E3A0      #001=S_WSPTD_D File=S_WSPTD_D.:E05TSI                              WED 07/30/97 06:02 Page:8


S_WSPTD
 Sect OctLoc
   0     000   000000 000000   000000 000000   000000 000000   000000 000000    ................
   0     034*  000000 000000                                                    ....

(unnamed)
 Sect OctLoc
   0     035   000000 006000   000000 000000   000000 006014   000000 000000    ................
   0     041   ****** ******   ****** ******   ****** ******   000000 000000    ................
   0     045   000000 000000   ****** ******   ****** ******   000000 000000    ................
   0     051   000000 000000   000000 000000   000000 000000   000000 000000    ................
   0     055   000000 006014   000000 000000   000000 000000   000000 000000    ................
   0     061   ****** ******   000000 000000   000000 000000   000000 000000    ................
   0     065   000000 000000   000000 000000   000000 000000   123456 701234    ............S...
   0     071   123456 701234   000000 000000   000000 000000   000000 000000    S...............
   0     075   000000 000000   000000 000000   000000 000000   000000 000000    ................
   0    1345*  ****** ******   000000 000000   000000 000000   000000 000000    ................
   0    1351   000000 000000   000000 000000   000000 000000   000000 000000    ................
   0    1365*  ****** ******   000000 006014   000000 000000   040040 040040    ............
   0    1371   040040 040040   040040 040040   040040 040040   000000 000000                ....
   0    1375   000000 000000   200501 000000   000000 000000   000000 000000    ................
   0    1401   000000 000000   000000 006014   000000 000000   000000 006014    ................
   0    1405   000000 006014   000000 000000   000000 000000   000000 006014    ................
   0    1411   000000 000000   000000 006014   000000 000000   000000 006014    ................
   0    1415   000000 000000   000000 000000   000000 006014   000000 000000    ................
   0    1421   000000 000000   000000 006014   000000 006014   000000 006014    ................
   0    1425   000000 000000   000000 000001   000000 000000   000000 ******    ................
   0    1431   000000 006014   000000 006014   000000 000000   000000 000000    ................
   0    1445*  ****** ******   ****** ******                                    ........
        1        1        /*M*  S_WSPTD_D - Working Space Page Table Directory */
        2        2        /*T***********************************************************/
        3        3        /*T*                                                         */
        4        4        /*T* Copyright (c) Bull HN Information Systems Inc., 1997    */
        5        5        /*T*                                                         */
        6        6        /*T***********************************************************/
        7        7
PL6.E3A0      #001=S_WSPTD_D File=S_WSPTD_D.:E05TSI                              WED 07/30/97 06:02 Page:9
        8        8        S_WSPTD_D: PROC;
        9        9
       10       10        /*    This module contains definitions for the Working Space Page     */
       11       11        /*    Table Directory and other processor dependant monitor data.     */
       12       12
       13       13        /* ! R $ ! */
       14       14    1   DCL 1 S_WSPTD(0:28) STATIC SYMDEF ALIGNED, /* Working Space Page Table Dir.   */
       15       15    1         2 BLKNO UBIN(18) UNAL INIT(0*29),
                15                  /* 64-word(1024 in XA on DPS-90) block no. of page tbl      */
       16       16    1         2 Q BIT(2) UNAL INIT('00'B*29),   /* WSQ Access control                 */
       17       17    1         2 P BIT(1) UNAL INIT('0'B*29),    /* Page table present bit             */
       18       18    1         2 T BIT(2) UNAL INIT('0'B*29),    /* Type of page table             */
       19       19    1         2 * BIT(1) UNAL INIT('0'B*29),    /* Unused                             */
       20       20    1         2 NBLKS UBIN(12) UNAL INIT(0*29);  /* No. of blocks in page table        */
       21       21        /* ! ! */
       22       22    1   DCL   S$WSPTD$  STATIC SYMDEF PTR INIT(ADDR(S_WSPTD));
       23       23    1   DCL S_CUN UBIN(36) STATIC SYMDEF INIT(0); /* CURRENT USER NUMBER              */
       24       24    1   DCL S$CU$ PTR INIT(ADDR(NIL)) STATIC SYMDEF; /* CURRENT USER TABLE ENTRY      */
       25       25    1   DCL S_PNO UBIN(36) STATIC SYMDEF INIT(0); /* PROCESSOR NUMBER                 */
       26       26    1   DCL BHF_TEMP BIT(72) DALIGNED STATIC SYMDEF; /*TEMP USED BY HFF*/
       27       27    1   DCL S_ITIME BIT(72) DALIGNED STATIC SYMDEF /* BEGIN INTERVAL TIME             */
       28       28    1              INIT('0'B);
       29       29    1   DCL   S_TIMR UBIN(36) STATIC SYMDEF;    /* INTERVAL TIME TYPE                 */
       30       30    1   DCL   S_INCTIME UBIN STATIC SYMDEF;     /* INCREMENT SINCE LAST SWITCH        */
       31       31    1   DCL H_GATECNT SBIN STATIC SYMDEF INIT(0); /* # gates locked                   */
       32       32    1   DCL S_UXTSCHD STATIC SYMDEF UBIN INIT(0); /* XTIME AT SCHEDULE                */
       33       33    1   DCL S_USTSCHD STATIC SYMDEF UBIN INIT(0); /* STIME AT SCHEDULE                */
       34       34    1   DCL S_ACCTIME STATIC SYMDEF UBIN INIT(0); /* NEXT ACCT TIME                   */
       35       35    1   DCL NI_INTLVL SBIN STATIC SYMDEF INIT(0); /* LEVEL OF INTERRUPT STACKING */
       36       36    1   DCL NI_COMPHD$ PTR STATIC SYMDEF INIT(ADDR(NIL)); /* QUEUE OF REQUESTS TO BE POSTED
       37       37                                                             AT INTLVL 1 */
       38       38    1   DCL S_CNODE UBIN STATIC SYMDEF INIT(0); /* CURRENT OVERLAY NODE */
       39       39        /* ! R ! */
       40       40    1   DCL S_PDBR UBIN WORD STATIC SYMDEF INIT(0);
       41       41                            /* CONTENTS OF PAGE DIRECTORY BASE REGISTER AFTER FAULT   */
       42       42    1   DCL S_OPTION_REG BIT(36) STATIC SYMDEF ALIGNED INIT('0'B);
       43       43            /* CONTENTS OF OPTION REGISTER AFTER FAULT
PL6.E3A0      #001=S_WSPTD_D File=S_WSPTD_D.:E05TSI                              WED 07/30/97 06:02 Page:10
       44       44                 BIT 18 -> DATA STACK CLEAR FLAG
       45       45                 BIT 19 -> SAFE STORE BYPASS FLAG
       46       46                 BIT 24 -> CACHE READ CONTROL FLAG */
       47       47    1   DCL S_WSR BIT(72) STATIC SYMDEF DALIGNED INIT('0'B);
       48       48                                 /* CONTENTS OF WORKING SPACE REGISTERS AFTER FAULT   */
       49       49    1   DCL S_FLT_IS_START UBIN WORD STATIC SYMDEF INIT(0);
       50       50                       /* USER ADDR CORRESPONDING TO 1ST LOCATION IN S_FLT_IS ARRAY   */
       51       51    1   DCL S_THIS_PTYPE UBIN WORD STATIC SYMDEF INIT(0);
       52       52            /* PROCESSOR SAFE STORE TYPE FOR THIS CPU (0=L66, 0=DPSE, 2=ELS) */
       53       53    1   DCL S_RETRY SBIN WORD STATIC SYMDEF INIT(0);
       54       54            /* RETRY FLAG - IGNORE WRITE PARITY ERROR ON SCPR INSTRUCTIONS
       55       55                 NEG  -> DONT IGNORE ANY WRITE PARITY ERRORS
       56       56                 ZERO -> NO WRITE PARITY ERRORS HAVE OCCURRED SINCE S_RETRY
       57       57                         WAS CLEARED
       58       58                 POS  -> NUMBER OF WRITE PARITY ERRORS THAT HAVE OCCURRED
       59       59                         SINCE S_RETRY WAS CLEARED                                    */
       60       60    1   DCL S_THIS_PERF UBIN STATIC SYMDEF INIT(0); /* APPROX PERF LEVEL OF THIS CPU */
       61       61        /* ! ! */
       62       62    1   DCL FILL (0:1) BIT(36) STATIC INIT('123456701234'O*0);
       63       63        /* ! R ! */
       64       64    1   DCL S_FLT_IS (0:31) UBIN WORD STATIC SYMDEF INIT(0*0);
       65       65            /* INSTRUCTIONS FROM FAULTING DOMAIN'S INSTRUCTION SEGMENT
       66       66               AROUND FAULTING INSTRUCTION FOR DIAGNOSTIC SNAPSHOT */
       67       67    1   DCL S_INT_SS (0:63) UBIN WORD STATIC SYMDEF INIT(0*0);
       68       68            /* COPY OF SAFE STORE FRAME AFTER AN INTERRUPTED EIS MULITWORD
       69       69               INSTRUCTION ON THIS CPU IS H_SAVE_SS IS SET */
       70       70    1   DCL S_TRO_SS (0:63) UBIN WORD STATIC SYMDEF INIT(0*0);
       71       71            /* COPY OF SAFE STORE FRAME AFTER A TIMER RUNOUT FAULT WHICH
       72       72               INTERRUPTED AN EIS MULTIWORD INSTRUCTION ON THIS CPU IF
       73       73               H_SAVE_SS IS SET */
       74       74    1   DCL S_PTWAM (0:255) UBIN WORD STATIC SYMDEF INIT(0*0);
       75       75            /* IF H_SNAP IS SET, THIS AREA CONTAINS THE CONTENTS OF THE PAGE
       76       76               TABLE WORD ASSOCIATIVE MEMORY FOR THIS CPU AFTER A FAULT.
       77       77               ASSOCIATIVE MEMORY IS NOT SAVED FOR TIMER RUNOUT, CONNECT,
       78       78               DERAIL, MME, AND FAULT TAG FAULTS */
       79       79    1   DCL S_PGTABLE (0:255) UBIN WORD STATIC SYMDEF INIT(0*0);
       80       80            /* IF H_SNAP IS SET AND ALL CONDITIONS FOR A SNAPSHOT ARE
PL6.E3A0      #001=S_WSPTD_D File=S_WSPTD_D.:E05TSI                              WED 07/30/97 06:02 Page:11
       81       81               SATISFIED AND ISR IS NOT MONITOR (WSR0), USER (WSR7), OR REAL
       82       82               (WSQ0) THEN THIS IS THE FIRST 256 WORDS OF THE PAGE TABLE
       83       83               SPECIFIED BY THE WSR OF THE FAULTING INSTRUCTION'S ISR */
       84       84        /*
       85       85            DATA USED BY MAKE CPU MASTER IN HFC$UTIL
       86       86        */
       87       87    1   DCL S_XSSR BIT(72) STATIC SYMDEF DALIGNED INIT('0'B);
       88       88    1   DCL S_XPSR BIT(72) STATIC SYMDEF DALIGNED INIT('0'B);
       89       89    1   DCL S_DPR2 BIT(72) STATIC SYMDEF DALIGNED INIT('0'B);
       90       90    1   DCL S_XASR BIT(72) STATIC SYMDEF DALIGNED INIT('0'B);
       91       91    1   DCL S_XPR2 UBIN STATIC SYMDEF INIT(0);
       92       92    1   DCL S_X1 UBIN STATIC SYMDEF INIT(0);
       93       93    1   DCL S_XX UBIN STATIC SYMDEF INIT(0);
       94       94    1   DCL S_RLF_SSR BIT(72) STATIC SYMDEF DALIGNED INIT('0'B);
       95       95    1   DCL S_SSR_EXIT1 BIT(72) STATIC SYMDEF DALIGNED INIT('0'B);
       96       96    1   DCL S_SSR_EXIT2 BIT(72) STATIC SYMDEF DALIGNED INIT('0'B);
       97       97    1   DCL S_SSR_EXIT3 BIT(72) STATIC SYMDEF DALIGNED INIT('0'B);
       98       98    1   DCL S_SSR_EXIT4 BIT(72) STATIC SYMDEF DALIGNED INIT('0'B);
       99       99    1   DCL S_SSR_EXIT5 BIT(72) STATIC SYMDEF DALIGNED INIT('0'B);
      100      100    1   DCL S_SSR_EXIT6 BIT(72) STATIC SYMDEF DALIGNED INIT('0'B);
      101      101    1   DCL S_RVA UBIN STATIC SYMDEF INIT(0);/* VIRTUAL ADDRESS ON MSP */
      102      102
      103      103        /* RWPARM used when a straight data out is to be done through the network layers */
      104      104        /* ! ! */
      105      105        %INCLUDE K$RWPARM;
      106      491        %K$RWPARM (NAME=S_RWPARM,STCLASS="STATIC SYMDEF");
      107      807    1   DCL KQX_BINBUF (0:8) UBIN STATIC SYMDEF; /*Buffer to stretch 9->8*/
      108      808        /* ! R ! */
      109      809
      110      810    1   END S_WSPTD_D;

PL6.E3A0      #001=S_WSPTD_D File=S_WSPTD_D.:E05TSI                              WED 07/30/97 06:02 Page:12
--  Include file information  --

   K$RWPARM.:E05TOU  is referenced.
      No diagnostics issued in procedure S_WSPTD_D.
PL6.E3A0      #001=S_WSPTD_D File=S_WSPTD_D.:E05TSI                              WED 07/30/97 06:02 Page:13

 **** Variables and constants ****

  ****  Section 000  Data  S_WSPTD_D

  ****  Scalars and arrays  ****
OctLoc.c.b A Datatyp(siz) R M Lvl/name                 OctLoc.c.b A Datatyp(siz) R M Lvl/name

     0-0-0/w STRC        r     1 S_WSPTD(0:28)


   No code generated for procedure S_WSPTD_D .
   Procedure S_WSPTD_D requires 4 words of local(AUTO) storage.

    No errors detected in file S_WSPTD_D.:E05TSI    .
PL6.E3A0      #001=S_WSPTD_D File=S_WSPTD_D.:E05TSI                              WED 07/30/97 06:02 Page:14
          *** CROSS REFERENCE LISTING ***
**     DENOTES     IDENTIFIER DEFINITION
<<                 IDENTIFIER'S VALUE SET
>>                 IDENTIFIER'S VALUE USED
<>                 IDENTIFIER SET AND/OR USED
--                 IDENTIFIER REFERENCED
PL6.E3A0      #001=S_WSPTD_D File=S_WSPTD_D.:E05TSI                              WED 07/30/97 06:02 Page:15
          MINI XREF LISTING

S_RWPARM.BLKREC
       538**DCL       563--REDEF
S_RWPARM.BLKREC.BLKU#
       539**DCL       541--REDEF
S_RWPARM.BLKREC.RECU#
       551**DCL       553--REDEF
S_RWPARM.DVE.DVBYTE.VFC
       578**DCL       579--REDEF
S_RWPARM.DVE.EOMCHAR
       586**DCL       590--REDEF
S_RWPARM.ERR
       650**DCL       655--REDEF
S_RWPARM.FC
       614**DCL       615--REDEF
S_RWPARM.FLDID
       796**DCL       797--REDEF
S_RWPARM.FPT$
       677**DCL       684--REDEF
S_RWPARM.KEYTYPE
       803**DCL       804--REDEF
S_RWPARM.MSG$
       513**DCL       519--REDEF
S_RWPARM.MSGID
       625**DCL       630--REDEF
S_RWPARM.MSGIDXT
       638**DCL       642--REDEF
S_RWPARM.ORG
       774**DCL       775--REDEF
S_RWPARM.THDRSZ
       718**DCL       722--REDEF
S_RWPARM.VDOFLGS
       776**DCL       787--REDEF
PL6.E3A0      #001=S_WSPTD_D File=S_WSPTD_D.:E05TSI                              WED 07/30/97 06:02 Page:16
S_WSPTD
        14**DCL        22--DCLINIT
