VERSION E05

PL6.E3A0      #001=TDC$COMP File=TDC$COMP.:E05TSI                                WED 07/30/97 06:02 Page:1
        1        1        /*M* TDC$COMP - T&D COMPLETION ROUTINE */
        2        2        /*T***********************************************************/
        3        3        /*T*                                                         */
        4        4        /*T* Copyright (c) Bull HN Information Systems Inc., 1997    */
        5        5        /*T*                                                         */
        6        6        /*T***********************************************************/
        7        7        /*X* DMR */
        8        8        TDC$COMP: PROC(REQ,NI$EXTST);
        9        9        /**/
       10       10        %INCLUDE N$REQ;
       11       84        %INCLUDE NI_MACROS_C;
       12      351        %N$REQ (NAME=REQ,STCLASS="");
       13      409        %NI$EXTST (NAME=NI$EXTST,STCLASS="");
       14      443        /**/
       15      444        %INCLUDE F$DCB;
       16      493        %INCLUDE UE_CP6;
       17     1184        %INCLUDE B_STRINGS_C;
       18     1313        %SUB DCB="DCB$->F$DCB";
       19     1314        /**/
       20     1315    1   DCL IOEVNT UBIN;
       21     1316    1   DCL DCB$ PTR;
       22     1317        %B$TDIO (NAME=EVBLK,STCLASS=AUTO,PARONLY=1);
       23     1326    1   DCL EXTST$ PTR;
       24     1327        /**/
       25     1328    1   DCL F_DCBLOCK BIT(72) SYMREF;
       26     1329    1   DCL S_ASFGATE BIT(72) SYMREF;
       27     1330        /**/
       28     1331    1   DCL SSR$RUE ENTRY(4);
       29     1332    1   DCL SSV$EVENT ENTRY(7);
       30     1333    1   DCL HFC$ASSOCCLR ENTRY(3);
       31     1334        /**/
       32     1335        %INCLUDE S_WSPTD_R;
       33     1351        %INCLUDE B_SEGIDS_C;
       34     1890        %INCLUDE SS_SCHED_C;
       35     2123        %INCLUDE HF_LOCK_C;
       36     2137        %INCLUDE HF_DATA_R;
       37     2180        %B$EVNT;
PL6.E3A0      #001=TDC$COMP File=TDC$COMP.:E05TSI                                WED 07/30/97 06:02 Page:2
       38     2193        %INCLUDE B$USER;
       39     2409        %B$USERREFS;
       40     2413        %NI$EXTST(NAME=EXTST,STCLASS=BASED);
       41     2447    1   DCL 1 POINTER BASED ALIGNED,
       42     2448    1         2 ADR UBIN(24) UNAL,
       43     2449    1         2 SEGID BIT(12);
       44     2450        %EJECT;
PL6.E3A0      #001=TDC$COMP File=TDC$COMP.:E05TSI                                WED 07/30/97 06:02 Page:3
       45     2451                %LOCK (G#=F_DCBLOCK);
       46     2454    1           S_WSPTD.BLKNO(%IOENDWSQ)=B$USRT$->B$USER.PT(REQ.USER#);
       47     2455    1           IF NOT HW_IMX THEN
       48     2456    1              REQ.STATUS.NWA=REQ.STATUS.NWA+(REQ.PTP-S_WSPTD.BLKNO(%IOENDWSQ))*1024*64;
       49     2457    1           CALL HFC$ASSOCCLR (%IOENDWSQ,0,16384); /*MAX Dense PT*/
       50     2458    1           DCB$=REQ.DCB$;
       51     2459    1           ADDR(DCB$)->POINTER.SEGID=%ROSEG8SID;
       52     2460    1           DCB.FLPW=REQ.FLPW;
       53     2461    1           DCB.TDSTAT=REQ.STATUS;
       54     2462    1           EXTST$=DCB.TDEXTST$;
       55     2463    2           IF EXTST$ ~= ADDR(NIL) THEN DO; /* NOT SET UP FOR ARRAY PROCESSOR */
       56     2464    2              ADDR(EXTST$)->POINTER.SEGID=%ROSEG8SID;
       57     2465    2              EXTST$->EXTST=NI$EXTST;
       58     2466    2              END;
       59     2467    1           DCB.CONNCT=DCB.CONNCT+1;
       60     2468    1           DCB.CHANTIME=DCB.CHANTIME+REQ.EAINFO;
       61     2469    1           IOEVNT=%SS_IOC;
       62     2470    2           IF REQ.NWIO=0 THEN DO;
       63     2471    2              DCB$->F$DCB.FCN.CNT(0)=DCB$->F$DCB.FCN.CNT(0)-1;
       64     2472    3              IF DCB$->F$DCB.FCN.CNT(0)=0 AND DCB$->F$DCB.FCN.F(0)='1'B THEN DO;
       65     2473    3                 DCB$->F$DCB.FCN.F(0)='0'B;
       66     2474    3                 IOEVNT=%SS_IOCU;
       67     2475    3                 END;
       68     2476    2              END;
       69     2477    2           ELSE DO;
       70     2478    2              DCB$->F$DCB.FCN.CNT(1)=DCB$->F$DCB.FCN.CNT(1)-1;
       71     2479    3              IF DCB$->F$DCB.FCN.CNT(1)=0 AND DCB$->F$DCB.FCN.F(1)='1'B THEN DO;
       72     2480    3                 DCB$->F$DCB.FCN.F(1)='0'B;
       73     2481    3                 IOEVNT=%SS_IOCU;
       74     2482    3                 END;
       75     2483    2              END;
       76     2484                %UNLOCK (G#=F_DCBLOCK);
       77     2487    2           IF ~REQ.OPFLG.WAIT AND REQ.EVNTINFO~=0 THEN DO;
       78     2488    2              EVBLK.P#=SIZEW(EVBLK)-1;
       79     2489    2              EVBLK.FLPW=BITBIN(REQ.FLPW);
       80     2490    2              EVBLK.STATUS=REQ.STATUS;
       81     2491    2              EVBLK.EXTSTATUS=NI$EXTST;
PL6.E3A0      #001=TDC$COMP File=TDC$COMP.:E05TSI                                WED 07/30/97 06:02 Page:4
       82     2492    2              EVBLK.LPWX=REQ.LPWX;
       83     2493    2              CALL SSV$EVENT(REQ.USER#,7,%EVSC_IO#,REQ.EVNTINFO,0,ADDR(EVBLK));
       84     2494    2              END;
       85     2495    2           IF REQ.OPFLG.CLR THEN DO;
       86     2496                   %LOCK (G=S_ASFGATE);
       87     2499    2              B$USRT$->B$USER.ASYNCH(REQ.USER#) = B$USRT$->B$USER.ASYNCH(REQ.USER#)|%
              2499                       U_CACHE;
       88     2500                   %UNLOCK (G=S_ASFGATE);
       89     2503    2              END;
       90     2504    1           CALL SSR$RUE(IOEVNT,REQ.USER#);
       91     2505    1           RETURN;
       92     2506    1   END TDC$COMP;

PL6.E3A0      #001=TDC$COMP File=TDC$COMP.:E05TSI                                WED 07/30/97 06:02 Page:5
--  Include file information  --

   B$USER.:E05TOU  cannot be made into a system file and is referenced.
   HF_DATA_R.:E05TOU  cannot be made into a system file and is referenced.
   HF_LOCK_C.:E05TOU  cannot be made into a system file and is referenced.
   SS_SCHED_C.:E05TOU  is referenced.
   B_SEGIDS_C.:E05TOU  is referenced.
   S_WSPTD_R.:E05TOU  cannot be made into a system file and is referenced.
   B_STRINGS_C.:E05TOU  is referenced.
   UE_CP6.:E05TOU  is referenced.
   F$DCB.:E05TOU  cannot be made into a system file and is referenced.
   NI_MACROS_C.:E05TOU  cannot be made into a system file and is referenced.
   N$REQ.:E05TOU  is referenced.
      No diagnostics issued in procedure TDC$COMP.

   Procedure TDC$COMP requires 176 words for executable code.
   Procedure TDC$COMP requires 30 words of local(AUTO) storage.

    No errors detected in file TDC$COMP.:E05TSI    .

PL6.E3A0      #001=TDC$COMP File=TDC$COMP.:E05TSI                                WED 07/30/97 06:02 Page:6

 Object Unit name= TDC$COMP                                   File name= TDC$COMP.:E05TOU
 UTS= JUL 30 '97 06:02:41.36 WED                              Compiler= PL-6/E31         Sev=      00
 SharedLib= :SHARED_SYSTEM                                    Alt SharedLib=


    ****  Control sections  ****

 Sect   Type Bound  Init  Size OctSiz  Section name(segment info)
    0   Proc  even  none   176    260  TDC$COMP
    1  RoData even  none     9     11  TDC$COMP

    ****  Entry defs  ****

                              Check   Calling
                             calling  sequence
  Sect OctLoc Primary Altret sequence   type   Parms  Name
     0      0   yes            yes      Std        2  TDC$COMP

  ****  Entry refs  ****

         Check        Calling
        calling       sequence
Altret sequence SRef   type   Args  Name
         yes           Std       1 HFC$LOCK
         yes           Std       3 HFC$ASSOCCLR
         yes           Std       1 HFC$UNLOCK
         yes           Std       7 SSV$EVENT
         yes           Std       4 SSR$RUE
                       Std       0 B_CONSPOOL_D
                       nStd      0 X66_AUTO_2
                       nStd      0 X66_ARET
PL6.E3A0      #001=TDC$COMP File=TDC$COMP.:E05TSI                                WED 07/30/97 06:02 Page:7

  ****  Data refs  ****

  Flags:  r = read only, s = secondary
Flgs Name                             Flgs Name                             Flgs Name
     F_DCBLOCK                             S_ASFGATE                             S_WSPTD
     HW_IMX                                B$USRT$                               B_VECTNIL

  ****  Segment refs  ****

  Flags:  r = read only, s = secondary
Flgs Name                             Flgs Name                             Flgs Name
     ISSID
PL6.E3A0      #001=TDC$COMP File=TDC$COMP.:E05TSI                                WED 07/30/97 06:02 Page:8


        1        1        /*M* TDC$COMP - T&D COMPLETION ROUTINE */
        2        2        /*T***********************************************************/
        3        3        /*T*                                                         */
        4        4        /*T* Copyright (c) Bull HN Information Systems Inc., 1997    */
        5        5        /*T*                                                         */
        6        6        /*T***********************************************************/
        7        7        /*X* DMR */
        8        8        TDC$COMP: PROC(REQ,NI$EXTST);

      8  0 000000   000000 700200 xent  TDC$COMP     TSX0  ! X66_AUTO_2
         0 000001   000036 000002                    ZERO    30,2

        9        9        /**/
       10       10        %INCLUDE N$REQ;
       11       84        %INCLUDE NI_MACROS_C;
       12      351        %N$REQ (NAME=REQ,STCLASS="");
       13      409        %NI$EXTST (NAME=NI$EXTST,STCLASS="");
       14      443        /**/
       15      444        %INCLUDE F$DCB;
       16      493        %INCLUDE UE_CP6;
       17     1184        %INCLUDE B_STRINGS_C;
       18     1313        %SUB DCB="DCB$->F$DCB";
       19     1314        /**/
       20     1315    1   DCL IOEVNT UBIN;
       21     1316    1   DCL DCB$ PTR;
       22     1317        %B$TDIO (NAME=EVBLK,STCLASS=AUTO,PARONLY=1);
       23     1326    1   DCL EXTST$ PTR;
       24     1327        /**/
       25     1328    1   DCL F_DCBLOCK BIT(72) SYMREF;
       26     1329    1   DCL S_ASFGATE BIT(72) SYMREF;
       27     1330        /**/
       28     1331    1   DCL SSR$RUE ENTRY(4);
       29     1332    1   DCL SSV$EVENT ENTRY(7);
       30     1333    1   DCL HFC$ASSOCCLR ENTRY(3);
       31     1334        /**/
       32     1335        %INCLUDE S_WSPTD_R;
PL6.E3A0      #001=TDC$COMP File=TDC$COMP.:E05TSI                                WED 07/30/97 06:02 Page:9
       33     1351        %INCLUDE B_SEGIDS_C;
       34     1890        %INCLUDE SS_SCHED_C;
       35     2123        %INCLUDE HF_LOCK_C;
       36     2137        %INCLUDE HF_DATA_R;
       37     2180        %B$EVNT;
       38     2193        %INCLUDE B$USER;
       39     2409        %B$USERREFS;
       40     2413        %NI$EXTST(NAME=EXTST,STCLASS=BASED);
       41     2447    1   DCL 1 POINTER BASED ALIGNED,
       42     2448    1         2 ADR UBIN(24) UNAL,
       43     2449    1         2 SEGID BIT(12);
       44     2450        %EJECT;
PL6.E3A0      #001=TDC$COMP File=TDC$COMP.:E05TSI                                WED 07/30/97 06:02 Page:10
       45     2451                %LOCK (G#=F_DCBLOCK);

   2452  0 000002   000000 630400 1                  EPPR0   0
         0 000003   000017 631400 xsym               EPPR1   B_VECTNIL+15
         0 000004   000000 701000 xent               TSX1    HFC$LOCK
         0 000005   000000 011000                    NOP     0

       46     2454    1           S_WSPTD.BLKNO(%IOENDWSQ)=B$USRT$->B$USER.PT(REQ.USER#);

   2454  0 000006   200003 470500                    LDP0    @REQ,,AUTO
         0 000007   000027 236100                    LDQ     23,,PR0
         0 000010   000004 736000                    QLS     4
         0 000011   017760 376007                    ANQ     8176,DL
         0 000012   000000 471400 xsym               LDP1    B$USRT$
         0 000013   100014 220106                    LDX0    12,QL,PR1
         0 000014   000007 740000 xsym               STX0    S_WSPTD+7

       47     2455    1           IF NOT HW_IMX THEN

   2455  0 000015   000000 234000 xsym               SZN     HW_IMX
         0 000016   000035 604000 0                  TMI     s:2457

       48     2456    1             REQ.STATUS.NWA=REQ.STATUS.NWA+(REQ.PTP-S_WSPTD.BLKNO(%IOENDWSQ))*1024*64;

   2456  0 000017   000007 235000 xsym               LDA     S_WSPTD+7
         0 000020   000022 771000                    ARL     18
         0 000021   200026 755100                    STA     EXTST$+2,,AUTO
         0 000022   000007 236100                    LDQ     7,,PR0
         0 000023   200026 136100                    SBLQ    EXTST$+2,,AUTO
         0 000024   200027 756100                    STQ     EXTST$+3,,AUTO
         0 000025   000015 236100                    LDQ     13,,PR0
         0 000026   000022 772000                    QRL     18
         0 000027   200030 756100                    STQ     EXTST$+4,,AUTO
         0 000030   200027 236100                    LDQ     EXTST$+3,,AUTO
         0 000031   000020 736000                    QLS     16
         0 000032   200030 036100                    ADLQ    EXTST$+4,,AUTO
         0 000033   000000 621006                    EAX1    0,QL
PL6.E3A0      #001=TDC$COMP File=TDC$COMP.:E05TSI                                WED 07/30/97 06:02 Page:11
         0 000034   000015 741100                    STX1    13,,PR0

       49     2457    1           CALL HFC$ASSOCCLR (%IOENDWSQ,0,16384); /*MAX Dense PT*/

   2457  0 000035   000002 630400 1                  EPPR0   2
         0 000036   000021 631400 xsym               EPPR1   B_VECTNIL+17
         0 000037   000000 701000 xent               TSX1    HFC$ASSOCCLR
         0 000040   000000 011000                    NOP     0

       50     2458    1           DCB$=REQ.DCB$;

   2458  0 000041   200003 470500                    LDP0    @REQ,,AUTO
         0 000042   000022 236100                    LDQ     18,,PR0
         0 000043   200006 756100                    STQ     DCB$,,AUTO

       51     2459    1           ADDR(DCB$)->POINTER.SEGID=%ROSEG8SID;

   2459  0 000044   006125 236007                    LDQ     3157,DL
         0 000045   200006 752103                    STCQ    DCB$,'03'O,AUTO

       52     2460    1           DCB.FLPW=REQ.FLPW;

   2460  0 000046   000016 236100                    LDQ     14,,PR0
         0 000047   200006 471500                    LDP1    DCB$,,AUTO
         0 000050   100000 756100                    STQ     0,,PR1

       53     2461    1           DCB.TDSTAT=REQ.STATUS;

   2461  0 000051   200006 471500                    LDP1    DCB$,,AUTO
         0 000052   000014 237100                    LDAQ    12,,PR0
         0 000053   100027 755100                    STA     23,,PR1
         0 000054   100030 756100                    STQ     24,,PR1

       54     2462    1           EXTST$=DCB.TDEXTST$;

   2462  0 000055   100007 236100                    LDQ     7,,PR1
         0 000056   200024 756100                    STQ     EXTST$,,AUTO
PL6.E3A0      #001=TDC$COMP File=TDC$COMP.:E05TSI                                WED 07/30/97 06:02 Page:12

       55     2463    2           IF EXTST$ ~= ADDR(NIL) THEN DO; /* NOT SET UP FOR ARRAY PROCESSOR */

   2463  0 000057   000001 116000 xsym               CMPQ    B_VECTNIL+1
         0 000060   000070 600000 0                  TZE     s:2467

       56     2464    2              ADDR(EXTST$)->POINTER.SEGID=%ROSEG8SID;

   2464  0 000061   006125 236007                    LDQ     3157,DL
         0 000062   200024 752103                    STCQ    EXTST$,'03'O,AUTO

       57     2465    2              EXTST$->EXTST=NI$EXTST;

   2465  0 000063   200004 473500                    LDP3    @NI$EXTST,,AUTO
         0 000064   200024 474500                    LDP4    EXTST$,,AUTO
         0 000065   000100 100500                    MLR     fill='000'O
         0 000066   300000 000040                    ADSC9   0,,PR3                   cn=0,n=32
         0 000067   400000 000040                    ADSC9   0,,PR4                   cn=0,n=32

       58     2466    2              END;

       59     2467    1           DCB.CONNCT=DCB.CONNCT+1;

   2467  0 000070   200006 471500                    LDP1    DCB$,,AUTO
         0 000071   100041 054100                    AOS     33,,PR1

       60     2468    1           DCB.CHANTIME=DCB.CHANTIME+REQ.EAINFO;

   2468  0 000072   100042 236100                    LDQ     34,,PR1
         0 000073   000024 036100                    ADLQ    20,,PR0
         0 000074   100042 756100                    STQ     34,,PR1

       61     2469    1           IOEVNT=%SS_IOC;

   2469  0 000075   000036 235007                    LDA     30,DL
         0 000076   200005 755100                    STA     IOEVNT,,AUTO

PL6.E3A0      #001=TDC$COMP File=TDC$COMP.:E05TSI                                WED 07/30/97 06:02 Page:13
       62     2470    2           IF REQ.NWIO=0 THEN DO;

   2470  0 000077   000031 236100                    LDQ     25,,PR0
         0 000100   400000 316007                    CANQ    -131072,DL
         0 000101   000124 601000 0                  TNZ     s:2478

       63     2471    2              DCB$->F$DCB.FCN.CNT(0)=DCB$->F$DCB.FCN.CNT(0)-1;

   2471  0 000102   100074 236100                    LDQ     60,,PR1
         0 000103   000033 772000                    QRL     27
         0 000104   000377 376007                    ANQ     255,DL
         0 000105   000001 136007                    SBLQ    1,DL
         0 000106   000033 736000                    QLS     27
         0 000107   100074 676100                    ERQ     60,,PR1
         0 000110   377000 376003                    ANQ     130560,DU
         0 000111   100074 656100                    ERSQ    60,,PR1

       64     2472    3              IF DCB$->F$DCB.FCN.CNT(0)=0 AND DCB$->F$DCB.FCN.F(0)='1'B THEN DO;

   2472  0 000112   100074 236100                    LDQ     60,,PR1
         0 000113   377000 316003                    CANQ    130560,DU
         0 000114   000145 601000 0                  TNZ     s:2485
         0 000115   100074 234100                    SZN     60,,PR1
         0 000116   000145 605000 0                  TPL     s:2485

       65     2473    3                 DCB$->F$DCB.FCN.F(0)='0'B;

   2473  0 000117   000031 236000 xsym               LDQ     B_VECTNIL+25
         0 000120   100074 356100                    ANSQ    60,,PR1

       66     2474    3                 IOEVNT=%SS_IOCU;

   2474  0 000121   000037 235007                    LDA     31,DL
         0 000122   200005 755100                    STA     IOEVNT,,AUTO

       67     2475    3                 END;

PL6.E3A0      #001=TDC$COMP File=TDC$COMP.:E05TSI                                WED 07/30/97 06:02 Page:14
       68     2476    2              END;

   2476  0 000123   000145 710000 0                  TRA     s:2485

       69     2477    2           ELSE DO;

       70     2478    2              DCB$->F$DCB.FCN.CNT(1)=DCB$->F$DCB.FCN.CNT(1)-1;

   2478  0 000124   100074 236100                    LDQ     60,,PR1
         0 000125   000022 772000                    QRL     18
         0 000126   000377 376007                    ANQ     255,DL
         0 000127   000001 136007                    SBLQ    1,DL
         0 000130   000022 736000                    QLS     18
         0 000131   100074 676100                    ERQ     60,,PR1
         0 000132   000377 376003                    ANQ     255,DU
         0 000133   100074 656100                    ERSQ    60,,PR1

       71     2479    3              IF DCB$->F$DCB.FCN.CNT(1)=0 AND DCB$->F$DCB.FCN.F(1)='1'B THEN DO;

   2479  0 000134   100074 236100                    LDQ     60,,PR1
         0 000135   000377 316003                    CANQ    255,DU
         0 000136   000145 601000 0                  TNZ     s:2485
         0 000137   000400 316003                    CANQ    256,DU
         0 000140   000145 600000 0                  TZE     s:2485

       72     2480    3                 DCB$->F$DCB.FCN.F(1)='0'B;

   2480  0 000141   000005 236000 1                  LDQ     5
         0 000142   100074 356100                    ANSQ    60,,PR1

       73     2481    3                 IOEVNT=%SS_IOCU;

   2481  0 000143   000037 235007                    LDA     31,DL
         0 000144   200005 755100                    STA     IOEVNT,,AUTO

       74     2482    3                 END;

PL6.E3A0      #001=TDC$COMP File=TDC$COMP.:E05TSI                                WED 07/30/97 06:02 Page:15
       75     2483    2              END;

       76     2484                %UNLOCK (G#=F_DCBLOCK);

   2485  0 000145   000000 630400 1                  EPPR0   0
         0 000146   000017 631400 xsym               EPPR1   B_VECTNIL+15
         0 000147   000000 701000 xent               TSX1    HFC$UNLOCK
         0 000150   000000 011000                    NOP     0

       77     2487    2           IF ~REQ.OPFLG.WAIT AND REQ.EVNTINFO~=0 THEN DO;

   2487  0 000151   200003 470500                    LDP0    @REQ,,AUTO
         0 000152   000004 236100                    LDQ     4,,PR0
         0 000153   000037 736000                    QLS     31
         0 000154   400000 376003                    ANQ     -131072,DU
         0 000155   400000 676003                    ERQ     -131072,DU
         0 000156   000221 600000 0                  TZE     s:2495
         0 000157   000026 235100                    LDA     22,,PR0
         0 000160   000221 600000 0                  TZE     s:2495

       78     2488    2              EVBLK.P#=SIZEW(EVBLK)-1;

   2488  0 000161   000014 236007                    LDQ     12,DL
         0 000162   200007 756100                    STQ     EVBLK,,AUTO

       79     2489    2              EVBLK.FLPW=BITBIN(REQ.FLPW);

   2489  0 000163   000016 235100                    LDA     14,,PR0
         0 000164   200010 755100                    STA     EVBLK+1,,AUTO

       80     2490    2              EVBLK.STATUS=REQ.STATUS;

   2490  0 000165   000014 237100                    LDAQ    12,,PR0
         0 000166   200011 755100                    STA     EVBLK+2,,AUTO
         0 000167   200012 756100                    STQ     EVBLK+3,,AUTO

       81     2491    2              EVBLK.EXTSTATUS=NI$EXTST;
PL6.E3A0      #001=TDC$COMP File=TDC$COMP.:E05TSI                                WED 07/30/97 06:02 Page:16

   2491  0 000170   200004 471500                    LDP1    @NI$EXTST,,AUTO
         0 000171   000100 100500                    MLR     fill='000'O
         0 000172   100000 000040                    ADSC9   0,,PR1                   cn=0,n=32
         0 000173   200014 000040                    ADSC9   EVBLK+5,,AUTO            cn=0,n=32

       82     2492    2              EVBLK.LPWX=REQ.LPWX;

   2492  0 000174   000011 236100                    LDQ     9,,PR0
         0 000175   200013 756100                    STQ     EVBLK+4,,AUTO

       83     2493    2              CALL SSV$EVENT(REQ.USER#,7,%EVSC_IO#,REQ.EVNTINFO,0,ADDR(EVBLK));

   2493  0 000176   200007 633500                    EPPR3   EVBLK,,AUTO
         0 000177   200026 453500                    STP3    EXTST$+2,,AUTO
         0 000200   200026 634500                    EPPR4   EXTST$+2,,AUTO
         0 000201   200035 454500                    STP4    EXTST$+9,,AUTO
         0 000202   000003 236000 1                  LDQ     3
         0 000203   200034 756100                    STQ     EXTST$+8,,AUTO
         0 000204   200003 236100                    LDQ     @REQ,,AUTO
         0 000205   000026 036003                    ADLQ    22,DU
         0 000206   000006 235000 1                  LDA     6
         0 000207   200032 757100                    STAQ    EXTST$+6,,AUTO
         0 000210   000002 236000 1                  LDQ     2
         0 000211   200031 756100                    STQ     EXTST$+5,,AUTO
         0 000212   200003 236100                    LDQ     @REQ,,AUTO
         0 000213   000007 036000 1                  ADLQ    7
         0 000214   200030 756100                    STQ     EXTST$+4,,AUTO
         0 000215   200030 630500                    EPPR0   EXTST$+4,,AUTO
         0 000216   000024 631400 xsym               EPPR1   B_VECTNIL+20
         0 000217   000000 701000 xent               TSX1    SSV$EVENT
         0 000220   000000 011000                    NOP     0

       84     2494    2              END;

       85     2495    2           IF REQ.OPFLG.CLR THEN DO;

PL6.E3A0      #001=TDC$COMP File=TDC$COMP.:E05TSI                                WED 07/30/97 06:02 Page:17
   2495  0 000221   200003 470500                    LDP0    @REQ,,AUTO
         0 000222   000004 236100                    LDQ     4,,PR0
         0 000223   000001 316007                    CANQ    1,DL
         0 000224   000246 600000 0                  TZE     s:2504

       86     2496                   %LOCK (G=S_ASFGATE);

   2497  0 000225   000010 630400 1                  EPPR0   8
         0 000226   000017 631400 xsym               EPPR1   B_VECTNIL+15
         0 000227   000000 701000 xent               TSX1    HFC$LOCK
         0 000230   000000 011000                    NOP     0

       87     2499    2              B$USRT$->B$USER.ASYNCH(REQ.USER#) = B$USRT$->B$USER.ASYNCH(REQ.USER#)|%
              2499                       U_CACHE;

   2499  0 000231   200003 470500                    LDP0    @REQ,,AUTO
         0 000232   000027 236100                    LDQ     23,,PR0
         0 000233   000004 736000                    QLS     4
         0 000234   017760 376007                    ANQ     8176,DL
         0 000235   000000 471400 xsym               LDP1    B$USRT$
         0 000236   000000 620006                    EAX0    0,QL
         0 000237   100001 236106                    LDQ     1,QL,PR1
         0 000240   000003 276000 xsym               ORQ     B_VECTNIL+3
         0 000241   100001 756110                    STQ     1,X0,PR1

       88     2500                   %UNLOCK (G=S_ASFGATE);

   2501  0 000242   000010 630400 1                  EPPR0   8
         0 000243   000017 631400 xsym               EPPR1   B_VECTNIL+15
         0 000244   000000 701000 xent               TSX1    HFC$UNLOCK
         0 000245   000000 011000                    NOP     0

       89     2503    2              END;

       90     2504    1           CALL SSR$RUE(IOEVNT,REQ.USER#);

   2504  0 000246   200003 236100                    LDQ     @REQ,,AUTO
PL6.E3A0      #001=TDC$COMP File=TDC$COMP.:E05TSI                                WED 07/30/97 06:02 Page:18
         0 000247   000007 036000 1                  ADLQ    7
         0 000250   200027 756100                    STQ     EXTST$+3,,AUTO
         0 000251   200005 630500                    EPPR0   IOEVNT,,AUTO
         0 000252   200026 450500                    STP0    EXTST$+2,,AUTO
         0 000253   200026 630500                    EPPR0   EXTST$+2,,AUTO
         0 000254   000020 631400 xsym               EPPR1   B_VECTNIL+16
         0 000255   000000 701000 xent               TSX1    SSR$RUE
         0 000256   000000 011000                    NOP     0

       91     2505    1           RETURN;

   2505  0 000257   000000 702200 xent               TSX2  ! X66_ARET

(unnamed)
 Sect OctLoc
   1     000   000000 006000   000000 040000   000011 006000   000002 006000    ...... .........
   1     004   000001 006000   777377 777777   000003 006000   000027 600000    ................
   1     010   000000 006000                                                    ....
       92     2506    1   END TDC$COMP;

PL6.E3A0      #001=TDC$COMP File=TDC$COMP.:E05TSI                                WED 07/30/97 06:02 Page:19
--  Include file information  --

   B$USER.:E05TOU  cannot be made into a system file and is referenced.
   HF_DATA_R.:E05TOU  cannot be made into a system file and is referenced.
   HF_LOCK_C.:E05TOU  cannot be made into a system file and is referenced.
   SS_SCHED_C.:E05TOU  is referenced.
   B_SEGIDS_C.:E05TOU  is referenced.
   S_WSPTD_R.:E05TOU  cannot be made into a system file and is referenced.
   B_STRINGS_C.:E05TOU  is referenced.
   UE_CP6.:E05TOU  is referenced.
   F$DCB.:E05TOU  cannot be made into a system file and is referenced.
   NI_MACROS_C.:E05TOU  cannot be made into a system file and is referenced.
   N$REQ.:E05TOU  is referenced.
      No diagnostics issued in procedure TDC$COMP.
PL6.E3A0      #001=TDC$COMP File=TDC$COMP.:E05TSI                                WED 07/30/97 06:02 Page:20

 **** Variables and constants ****

  ****  Auto variables  ****

  ****  Scalars and arrays  ****
OctLoc.c.b A Datatyp(siz) R M Lvl/name                 OctLoc.c.b A Datatyp(siz) R M Lvl/name

     4-0-0/w PTR         r     1 @NI$EXTST                  3-0-0/w PTR         r     1 @REQ
     6-0-0/w PTR         r     1 DCB$                       7-0-0/w STRC(468)   r     1 EVBLK
    24-0-0/w PTR         r     1 EXTST$                     5-0-0/w UBIN        r     1 IOEVNT
    *0-0-0/w STRC(288)   r     1 NI$EXTST                  *0-0-0/d STRC(1080)  r     1 REQ

  ****  SYMREF variables  ****

  ****  Scalars and arrays  ****
OctLoc.c.b A Datatyp(siz) R M Lvl/name                 OctLoc.c.b A Datatyp(siz) R M Lvl/name

     0-0-0/w PTR         r     1 B$USRT$                    0-0-0/b BIT (72)    r     1 F_DCBLOCK
     0-0-0/w BIT         r     1 HW_IMX                     0-0-0/b BIT (72)    r     1 S_ASFGATE
     0-0-0/w STRC        r     1 S_WSPTD(0:28)

  ****  BASED and DCB variables  ****

  ****  Scalars and arrays  ****
OctLoc.c.b A Datatyp(siz) R M Lvl/name                 OctLoc.c.b A Datatyp(siz) R M Lvl/name

     0-0-0/w STRC(576)   r     1 B$USER(0:0)                0-0-0/w STRC(288)   r     1 EXTST
     0-0-0/d ASTR(3528)  r     1 F$DCB                      0-0-0/w STRC        r     1 POINTER


   Procedure TDC$COMP requires 176 words for executable code.
   Procedure TDC$COMP requires 30 words of local(AUTO) storage.

    No errors detected in file TDC$COMP.:E05TSI    .
PL6.E3A0      #001=TDC$COMP File=TDC$COMP.:E05TSI                                WED 07/30/97 06:02 Page:21
          *** CROSS REFERENCE LISTING ***
**     DENOTES     IDENTIFIER DEFINITION
<<                 IDENTIFIER'S VALUE SET
>>                 IDENTIFIER'S VALUE USED
<>                 IDENTIFIER SET AND/OR USED
--                 IDENTIFIER REFERENCED
PL6.E3A0      #001=TDC$COMP File=TDC$COMP.:E05TSI                                WED 07/30/97 06:02 Page:22
          MINI XREF LISTING

B$DO.ECCINFO
      2344**DCL      2345--REDEF
B$EVNT.CODE
      2182**DCL      2182--REDEF    2183--REDEF    2183--REDEF
B$EVNT.ERR.ERR#
      2184**DCL      2184--REDEF
B$EVNT.EVID
      2183**DCL      2183--REDEF    2183--REDEF
B$U.MISC
      2323**DCL      2324--REDEF
B$USER.ASYNCH
      2370**DCL      2499<<ASSIGN   2499>>ASSIGN
B$USER.MISC
      2399**DCL      2400--REDEF
B$USER.PT
      2393**DCL      2454>>ASSIGN
B$USRT$
      2411**DCL      2454>>ASSIGN   2499>>ASSIGN   2499>>ASSIGN
DCB$
      1316**DCL      2458<<ASSIGN   2459--ASSIGN   2460>>ASSIGN   2461>>ASSIGN   2462>>ASSIGN   2467>>ASSIGN
      2467>>ASSIGN   2468>>ASSIGN   2468>>ASSIGN   2471>>ASSIGN   2471>>ASSIGN   2472>>IF       2472>>IF
      2473>>ASSIGN   2478>>ASSIGN   2478>>ASSIGN   2479>>IF       2479>>IF       2480>>ASSIGN
EVBLK
      1321**DCL      2488--ASSIGN   2493--CALL
EVBLK.EXTSTATUS
      1323**DCL      2491<<ASSIGN
EVBLK.FLPW
      1323**DCL      1323--REDEF    2489<<ASSIGN
EVBLK.LPWX
      1323**DCL      2492<<ASSIGN
EVBLK.P#
      1323**DCL      2488<<ASSIGN
PL6.E3A0      #001=TDC$COMP File=TDC$COMP.:E05TSI                                WED 07/30/97 06:02 Page:23
EVBLK.STATUS
      1323**DCL      2490<<ASSIGN
EXTST
      2418**DCL      2465<<ASSIGN
EXTST.EXTST
      2422**DCL      2424--REDEF    2426--REDEF
EXTST$
      1326**DCL      2462<<ASSIGN   2463>>IF       2464--ASSIGN   2465>>ASSIGN
F$DCB.ACTPOS
       470**DCL       470--REDEF
F$DCB.ARS
       445**DCL       445--REDEF
F$DCB.ATTR
       463**DCL       464--REDEF
F$DCB.BORROW
       478**DCL       478--REDEF     478--REDEF     478--REDEF
F$DCB.CHANTIME
       465**DCL      2468<<ASSIGN   2468>>ASSIGN
F$DCB.CONNCT
       464**DCL      2467<<ASSIGN   2467>>ASSIGN
F$DCB.DCBNAME.L
       492**DCL       492--IMP-SIZ
F$DCB.EOMCHAR
       449**DCL       449--REDEF
F$DCB.FCN.CNT
       482**DCL      2471<<ASSIGN   2471>>ASSIGN   2472>>IF       2478<<ASSIGN   2478>>ASSIGN   2479>>IF
F$DCB.FCN.F
       482**DCL      2472>>IF       2473<<ASSIGN   2479>>IF       2480<<ASSIGN
F$DCB.FLDID
       473**DCL       473--REDEF
F$DCB.FLPW
       445**DCL      2460<<ASSIGN
F$DCB.FORM$
       467**DCL       467--REDEF
F$DCB.FSECT
       483**DCL       483--REDEF
PL6.E3A0      #001=TDC$COMP File=TDC$COMP.:E05TSI                                WED 07/30/97 06:02 Page:24
F$DCB.FSN
       460**DCL       460--REDEF     460--REDEF     461--REDEF
F$DCB.HEADER$
       466**DCL       466--REDEF
F$DCB.IXTNSIZE
       464**DCL       464--REDEF
F$DCB.LASTSTA$
       454**DCL       454--REDEF
F$DCB.LVL
       479**DCL       479--REDEF
F$DCB.NAME.C
       454**DCL       454--REDEF
F$DCB.NOEOF
       475**DCL       475--REDEF
F$DCB.NRECS
       465**DCL       465--REDEF
F$DCB.NRECX
       484**DCL       484--REDEF
F$DCB.OHDR
       476**DCL       476--REDEF
F$DCB.ORG
       459**DCL       459--REDEF
F$DCB.PRECNO
       482**DCL       482--REDEF
F$DCB.RCSZ
       487**DCL       487--REDEF
F$DCB.RES
       455**DCL       455--REDEF
F$DCB.SETX
       467**DCL       467--REDEF
F$DCB.TAB$
       466**DCL       467--REDEF
F$DCB.TDA
       481**DCL       481--REDEF
F$DCB.TDEXTST$
       454**DCL      2462>>ASSIGN
PL6.E3A0      #001=TDC$COMP File=TDC$COMP.:E05TSI                                WED 07/30/97 06:02 Page:25
F$DCB.TDSTAT
       456**DCL      2461<<ASSIGN
F$DCB.WSN
       456**DCL       456--REDEF
F_DCBLOCK
      1328**DCL      2452<>CALL     2485<>CALL
HFC$ASSOCCLR
      1333**DCL-ENT  2457--CALL
HFC$LOCK
      2136**DCL-ENT  2452--CALL     2497--CALL
HFC$UNLOCK
      2136**DCL-ENT  2485--CALL     2501--CALL
HW_IMX
      2179**DCL      2455>>IF
IOEVNT
      1315**DCL      2469<<ASSIGN   2474<<ASSIGN   2481<<ASSIGN   2504<>CALL
NI$EXTST
       414**DCL         8--PROC     2465>>ASSIGN   2491>>ASSIGN
NI$EXTST.EXTST
       418**DCL       420--REDEF     422--REDEF
POINTER.SEGID
      2449**DCL      2459<<ASSIGN   2464<<ASSIGN
REQ
       360**DCL         8--PROC
REQ.BUFADDR
       369**DCL       370--REDEF     370--REDEF
REQ.DCB$
       391**DCL      2458>>ASSIGN
REQ.DLA.DRELADDR
       361**DCL       361--REDEF
REQ.DVE.EOMCHAR
       398**DCL       399--REDEF
REQ.EAINFO
       392**DCL       392--REDEF    2468>>ASSIGN
REQ.EAINFOX
       392**DCL       393--REDEF
PL6.E3A0      #001=TDC$COMP File=TDC$COMP.:E05TSI                                WED 07/30/97 06:02 Page:26
REQ.EVNTINFO
       393**DCL       393--REDEF    2487>>IF       2493<>CALL
REQ.FLPW
       381**DCL      2460>>ASSIGN   2489>>ASSIGN
REQ.LPWX
       372**DCL      2492>>ASSIGN
REQ.NWIO
       399**DCL      2470>>IF
REQ.OPFLG.CLR
       369**DCL      2495>>IF
REQ.OPFLG.WAIT
       367**DCL      2487>>IF
REQ.PTP
       371**DCL      2456>>ASSIGN
REQ.STATUS
       374**DCL       380--REDEF    2461>>ASSIGN   2490>>ASSIGN
REQ.STATUS.NWA
       378**DCL      2456<<ASSIGN   2456>>ASSIGN
REQ.USER#
       394**DCL      2454>>ASSIGN   2493<>CALL     2499>>ASSIGN   2499>>ASSIGN   2504<>CALL
SSR$RUE
      1331**DCL-ENT  2504--CALL
SSV$EVENT
      1332**DCL-ENT  2493--CALL
S_ASFGATE
      1329**DCL      2497<>CALL     2501<>CALL
S_WSPTD.BLKNO
      1343**DCL      2454<<ASSIGN   2456>>ASSIGN
