PL6.E3A0      #003=TDP$OPEN File=TDP$PMME.:E05TSI                                WED 07/30/97 06:04 Page:96
      524        1        /*M* TDP$OPEN - M$TDOPEN PMME HANDLER */
      525        2        /*T***********************************************************/
      526        3        /*T*                                                         */
      527        4        /*T* Copyright (c) Bull HN Information Systems Inc., 1997    */
      528        5        /*T*                                                         */
      529        6        /*T***********************************************************/
      530        7        TDP$OPEN: PROC;
      531        8        /*
      532        9                Includes
      533       10        */
      534       11        %INCLUDE                        B$JIT ;
      535      614        %INCLUDE                        B$MAP ;
      536      713        %INCLUDE                        B$USER ;
      537      929        %INCLUDE                        B_STRINGS_C ;
      538     1058        %INCLUDE                        CP_6_SUBS ;
      539     1598        %INCLUDE                        EL$TABLES ;
      540     1921        %INCLUDE                        EL_SUBS_C ;
      541     2005        %INCLUDE                        F$DCB ;
      542     2054        %INCLUDE                        FM$GRAN ;
      543     2123        %INCLUDE                        FR$RAT ;
      544     2176        %INCLUDE                        F_ERRORS_C ;
      545     2416        %INCLUDE                        HF_LOCK_C ;
      546     2430        %INCLUDE                        JG_GHOSTS_C ;
      547     2520        %INCLUDE                        KI_DATA_R ;
      548     2546        %INCLUDE                        KI_MACROS_C ;
      549     3154        %INCLUDE                        KI_SUBS_C ;
      550     3290        %INCLUDE                        M_INFO_C ;
      551     3430        %INCLUDE                        NI_DATA_C ;
      552     3543        %INCLUDE                        NI_DATA_R ;
      553     3980        %INCLUDE                        NI_MACROS_C ;
      554     4247        %INCLUDE                        N_FC_C ;
      555     4284        %INCLUDE                        OC_SUBS_C ;
      556     5015        %INCLUDE                        SS_SCHED_C ;
      557     5248        %INCLUDE                        TD$CP6V_C ;
      558     5284        %INCLUDE                        TD_ERRORS_C ;
      559     5367        %INCLUDE                        UQ_ERRORS_C ;
      560     5389        /*
PL6.E3A0      #003=TDP$OPEN File=TDP$PMME.:E05TSI                                WED 07/30/97 06:04 Page:97
      561     5390                Entries
      562     5391        */
      563     5392    1   DCL 1 ELA$SYSLOG                ENTRY(6) ALTRET ;
      564     5393    1   DCL 1 FMM$SCRUB                 ENTRY(1) ;
      565     5394    1   DCL 1 FSA$GSP                   ENTRY(2) ALTRET ;
      566     5395    1   DCL 1 HFF$DSIZ                  ENTRY(2) ;
      567     5396    1   DCL 1 HFF$NILERASE              ENTRY(1) ALTRET ;
      568     5397    1   DCL 1 NIQ$GET                   ENTRY(1) ALTRET ;
      569     5398    1   DCL 1 NIQ$REL                   ENTRY(1) ALTRET ;
      570     5399    1   DCL 1 NIO$QUE                   ENTRY(1) ALTRET ;
      571     5400    1   DCL 1 NIW$MPCSTOP               ENTRY(1) ;
      572     5401    1   DCL 1 MMS$VGET                  ENTRY(4) ALTRET ;
      573     5402    1   DCL 1 OCI$MK_WR                 ENTRY(7) ;
      574     5403    1   DCL 1 SSR$REG                   ENTRY(3) ALTRET ;
      575     5404    1   DCL 1 TDU$FINDPATH              ENTRY(6) ALTRET ;
      576     5405    1   DCL 1 UDB$PMMEXIT               ENTRY(0) ;
      577     5406        /*
      578     5407                Symrefs
      579     5408        */
      580     5409    1   DCL 1 B$CPGT1$                  PTR SYMREF ;
      581     5410    1   DCL 1 B$JIT$                    PTR SYMREF ;
      582     5411    1   DCL 1 B$PS0$                    PTR SYMREF ;
      583     5412    1   DCL 1 B$PS1$                    PTR SYMREF ;
      584     5413    1   DCL 1 B$PS2$                    PTR SYMREF ;
      585     5414    1   DCL 1 B$PS3$                    PTR SYMREF ;
      586     5415    1   DCL 1 B$UPT$                    PTR SYMREF ;
      587     5416        %B$USERREFS;
      588     5420    1   DCL 1 IT_SYSDISK                SBIN SYMREF ;
      589     5421    1   DCL 1 TD_OPENGATE               BIT(72) SYMREF ;
      590     5422        /*
      591     5423                Auto
      592     5424        */
      593     5425    1   DCL 1 CPT$                      PTR ALIGNED AUTO ;
      594     5426    1   DCL 1 DCB$                      PTR ALIGNED AUTO ;
      595     5427    1   DCL 1 DCT$                      PTR ALIGNED AUTO ;
      596     5428    1   DCL 1 DQH$                      PTR ALIGNED AUTO ;
      597     5429        %EL$DIAG                        ( NAME=EL$DIAG, STCLASS=AUTO );
PL6.E3A0      #003=TDP$OPEN File=TDP$PMME.:E05TSI                                WED 07/30/97 06:04 Page:98
      598     5432    1   DCL 1 EXTST$                    PTR ALIGNED AUTO ;
      599     5433    1   DCL 1 FEI$                      PTR ALIGNED AUTO ;
      600     5434    1   DCL 1 FEI#                      UBIN ALIGNED AUTO ;
      601     5435    1   DCL 1 I                         SBIN ALIGNED AUTO ;
      602     5436    1   DCL 1 MPC$                      PTR ALIGNED AUTO ;
      603     5437    1   DCL 1 MPCFLG                    BIT(1) ALIGNED AUTO ;
      604     5438    1   DCL 1 MSG                       ALIGNED AUTO,
      605     5439    1         2 ACCT                    CHAR(8),
      606     5440    1         2 SYSID                   UBIN HALF UNAL,
      607     5441    1         2 NAME                    CHAR(12) UNAL,
      608     5442    1         2 DEVNM                   CHAR(4) UNAL,
      609     5443    1         2 FEPNO                   REDEF DEVNM UBIN UNAL,
      610     5444    1         2 TEST                    SBIN UNAL ;
      611     5445    1   DCL 1 P$                        PTR ALIGNED AUTO ;
      612     5446    1   DCL 1 PATH                      BIT(1) ALIGNED AUTO ;
      613     5447    1   DCL 1 Q$                        PTR ALIGNED AUTO ;
      614     5448    1   DCL 1 SQH$                      PTR ALIGNED AUTO ;
      615     5449    1   DCL 1 TEMP                      UBIN WORD ALIGNED AUTO ;
      616     5450    1   DCL 1 UPT$                      PTR ALIGNED AUTO ;
      617     5451    1   DCL 1 VID$                      PTR ALIGNED AUTO ;
      618     5452    1   DCL 1 VIDBUF1                   CHAR(%(64*4)) CALIGNED AUTO ;
      619     5453    1   DCL 1 VIDBUF2                   CHAR(%(64*4)) CALIGNED AUTO ;
      620     5454    1   DCL 1 WPTP                      SBIN ALIGNED AUTO ;
      621     5455    1   DCL 1 WSZ                       SBIN ALIGNED AUTO ;
      622     5456    1   DCL 1 WVA                       SBIN ALIGNED AUTO ;
      623     5457    1   DCL 1 X                         SBIN ALIGNED AUTO ;
      624     5458        /*
      625     5459                Based
      626     5460        */
      627     5461    1   DCL 1 CHAINIMG(0:59)            UBIN BASED ;
      628     5462        %NI$DCT                         ( NAME=DCT,           STCLASS="BASED(DCT$)" ) ;
      629     5510        %NI$DVT                         ( NAME=DVT,           STCLASS=BASED         ) ;
      630     5517        %FM$VID                         (                     BASED="BASED(VID$)" ) ;
      631     5523        %FPT$TDOPEN_V ;
      632     5527        %FR$RAT ;
      633     5567        %KI$FEI                         (                     STCLASS="BASED(FEI$)" ) ;
      634     5651        %N$REQ                          ( NAME=N$REQ,         STCLASS="BASED(Q$)" ) ;
PL6.E3A0      #003=TDP$OPEN File=TDP$PMME.:E05TSI                                WED 07/30/97 06:04 Page:99
      635     5709        %NI$CHT                         ( NAME="NI$CHT(0:0)", STCLASS="BASED(NI$CHT$)" ) ;
      636     5712        %NI$DQH                         ( NAME=NI$DQH,        STCLASS="BASED(DQH$)" ) ;
      637     5735        %NI$EXTST                       ( NAME=NI$EXTST,      STCLASS=BASED ) ;
      638     5769        %NI$SQH                         ( NAME=NI$SQH,        STCLASS="BASED(SQH$)" ) ;
      639     5782    1   DCL 1 PBASE$                    PTR BASED ;
      640     5783    1   DCL 1 VFCIMG                    CHAR(TEMP) BASED ;
      641     5784        /*
      642     5785                Constants
      643     5786        */
      644     5787    1   DCL LEN(0:4) UBIN BYTE CONSTANT UNAL INIT(8,2,12,4,4);
      645     5788
      646     5789        %SUB TDOPNV=B$PS0$->FPT$TDOPEN_V;
      647     5790        %EQU FPMC#=%BINBIT(FPMC,18);
      648     5791        %EJECT;
PL6.E3A0      #003=TDP$OPEN File=TDP$PMME.:E05TSI                                WED 07/30/97 06:04 Page:100
      649     5792        /* GET OPERATOR PERMISSION */
      650     5793    1           DCB$=B$JIT.DCB$;
      651     5794    1           IF DCB$->F$DCB.FCD THEN CALL BADRET(%E$DCBOPEN,4) ALTRET(XIT);
      652     5795        /*E*    ERROR:   TDP-E$DCBOPEN
      653     5796                MESSAGE: T & D DCB% %DC % is already open.
      654     5797                                                                           */
      655     5798    1           CALL FMM$SCRUB(DCB$);
      656     5799    1           DCB$->F$DCB.TDFLG.SDSK='0'B;
      657     5800    2           IF TDOPNV.TEST=%TD_TEST_FEP THEN DO;
      658     5801    2              DCT$=ADDR(NIL);
      659     5802    2              SQH$=ADDR(NIL);
      660     5803    2              MPC$=ADDR(NIL);
      661     5804    3              DO FEI# = 1 TO KI_MXFE;
      662     5805    3                 FEI$ = KI$FEI$(FEI#);
      663     5806    3                 IF KI$FEI.FEP# = TDOPNV.DEVICE.DVN
      664     5807    3                 THEN
      665     5808    3                    GOTO FOUND_FEP;
      666     5809    3                 END;
      667     5810    2              CALL BADRET (%E$TDNOTFEP,4) ALTRET(XIT);
      668     5811    2   FOUND_FEP: ;
      669     5812    2              DQH$=NI$CHT.DQH$(BITBIN(KI$FEI.FECH ));
      670     5813    2              IF DQH$=ADDR(NIL) OR TDOPNV.DEVICE.DVN>KI_NODES THEN
      671     5814    2                 CALL BADRET(%E$TDNODEV,4) ALTRET(XIT);
      672     5815    2   GOT_FEP:   MSG.FEPNO=KI$FEI.FEP#;
      673     5816    2              DCB$->F$DCB.NAME.C='FEP';
      674     5817    2              CALL BINCHAR(SUBSTR(DCB$->F$DCB.NAME.C,3,2),MSG.FEPNO);
      675     5818    2              DCB$->F$DCB.NAME.L=5;
      676     5819    2              S$CU$->B$U.FLG.TDOPPERM=NI$DQH.STATUS.TDOK;
      677     5820    2              IF  TDOPNV.TEST = %TD_TEST_MPC
      678     5821    2                OR TDOPNV.TEST = %TD_TEST_IPC
      679     5822    2              THEN                         /* Allow NDIC NFTS for DPS 8000       */
      680     5823    2                 RETURN ;
      681     5824    2              END;
      682     5825    2           ELSE DO;
      683     5826    2              IF  TDOPNV.TEST = %TD_TEST_ITR
      684     5827    2                OR TDOPNV.TEST = %TD_TEST_MPC
      685     5828    2                OR TDOPNV.TEST = %TD_TEST_IPC
PL6.E3A0      #003=TDP$OPEN File=TDP$PMME.:E05TSI                                WED 07/30/97 06:04 Page:101
      686     5829    2              THEN
      687     5830    2                 MPCFLG = '1'B ;
      688     5831    2              ELSE
      689     5832    2                 MPCFLG = '0'B ;
      690     5833    2              CALL TDU$FINDPATH ( TDOPNV.DEVICE, MPCFLG, DCT$, SQH$, DQH$, MPC$ )
              5833                       ALTRET ( TDNODEV ) ;
      691     5834    3              IF DCT$=ADDR(NIL) THEN DO;   /* FEP                                */
      692     5835    3                 FEI$=KI$FEI$(NI$DQH.FEX);
      693     5836    3                 IF KI$FEI.FEST = KIST_MASKED OR
      694     5837    3                   (KI$FEI.FEST = KIST_DN AND KI$FEI.PBST.PROB = KIER_PART) THEN
      695     5838    3                    GOTO GOT_FEP;
      696     5839    3                 ELSE
      697     5840    3                    CALL BADRET(%E$TDDEVBSY,4) ALTRET(XIT);
      698     5841    3                 END;
      699     5842    2              MSG.DEVNM=DCT$->DCT.DEVNM;
      700     5843    2              DCB$->F$DCB.NAME.C=DCT$->DCT.DEVNM;
      701     5844    2              DCB$->F$DCB.NAME.L=8;
      702     5845    2              IF DCT$->DCT.TDUSER#=B$JIT.USER THEN
      703     5846    2                 S$CU$->B$U.FLG.TDOPPERM='1'B;
      704     5847    2              ELSE
      705     5848    2                 S$CU$->B$U.FLG.TDOPPERM=DCT$->DCT.STATUS.TDOK;
      706     5849    2              END;
      707     5850    1           IF TDOPNV.TEST=%TD_TEST_DEVICE OR TDOPNV.TEST=%TD_TEST_MPC THEN RETURN;
              5850                    /* preopen */
      708     5851    1           MSG.ACCT=B$JIT.ACCN;
      709     5852    1           MSG.SYSID=B$JIT.SYSID;
      710     5853    1           MSG.NAME=B$JIT.UNAME;
      711     5854    1           MSG.TEST=TDOPNV.TEST;
      712     5855    1           S$CU$->B$U.FLG.TDNOPERM = '0'B ;
      713     5856    1           IF  TDOPNV.TEST ~= %TD_TEST_MCA
      714     5857    1             AND TDOPNV.TEST ~= %TD_TEST_IPC
      715     5858    1           THEN
      716     5859    2           DO  WHILE  ( NOT S$CU$->B$U.FLG.TDOPPERM ) ;
      717     5860    2              IF  S$CU$->B$U.FLG.TDNOPERM
      718     5861    2              THEN
      719     5862    2                 CALL BADRET ( %E$TDNOPERM, 4 ) ALTRET ( XIT ) ;
      720     5863    2              CALL OCI$MK_WR ( M_SYS, DIAG_MSG#, 5, LEN, MSG ) ;
PL6.E3A0      #003=TDP$OPEN File=TDP$PMME.:E05TSI                                WED 07/30/97 06:04 Page:102
      721     5864    2              CALL SSR$REG ( %SS_SL, , 20 ) ALTRET ( BRKYC ) ;
      722     5865    2              END ;
      723     5866        /* VERIFY THAT THE PATH TO THE DEVICE IS AVAILABLE */
      724     5867    2   PATH:   DO CASE(TDOPNV.TEST);
      725     5868    2            CASE(%TD_TEST_POLTS);
      726     5869    2              IF DCT$->DCT.TYPE=%DV_DP THEN CALL CHECK_SDSK;
      727     5870    2            CASE(%TD_TEST_ITR);
      728     5871    2              IF TDOPNV.DEVICE.DVN~=0 THEN CALL BADRET(%E$TDBADDVN,4) ALTRET(XIT);
      729     5872    2              IF MPC$->DCT.STATUS.TND~=0
      730     5873    2                OR MPC$->DCT.DFLG.MPCBUSY THEN CALL BADRET(%E$TDMPCBSY,4) ALTRET(XIT);
      731     5874    2              X=DCT$->DCT.DCTX;
      732     5875    2              IF  DCT$->DCT.MPC.TYPE=%DV_DP
      733     5876    3              THEN DO ;
      734     5877    3                 PATH = '0'B ;
      735     5878    3                 IF  DCT$->DCT.STATUS.DOWN
      736     5879    3                   OR DCT$->DCT.STATUS.SYSCON_PART
      737     5880    3                   OR DCT$->DCT.STATUS.MSOS_PART
      738     5881    3                   OR DCT$->DCT.DFLG.MPCSUSPENDED
      739     5882    3                   OR DCT$->DCT.DFLG.MPCSTOP
      740     5883    3                 THEN
      741     5884    3                    PATH = '1'B ;
      742     5885    4                 DO  I = 0 TO %N_MPCSPERSQHM1 ;
      743     5886    4                    IF  NI$SQH.MPC$(I) ~= DCT$
      744     5887    4                      AND NI$SQH.MPC$(I) ~= ADDR(NIL)
      745     5888    4                    THEN
      746     5889    4                       IF  NI$SQH.MPC$(I)->DCT.STATUS.DOWN
      747     5890    4                         OR  NI$SQH.MPC$(I)->DCT.STATUS.SYSCON_PART
      748     5891    4                         OR  NI$SQH.MPC$(I)->DCT.STATUS.MSOS_PART
      749     5892    4                         OR  NI$SQH.MPC$(I)->DCT.DFLG.MPCSUSPENDED
      750     5893    4                         OR  NI$SQH.MPC$(I)->DCT.DFLG.MPCSTOP
      751     5894    4                       THEN
      752     5895    4                          ;
      753     5896    4                       ELSE
      754     5897    4                          PATH = '1'B ;
      755     5898    4                    END ;
      756     5899    3                 IF  NOT PATH
      757     5900    3                 THEN
PL6.E3A0      #003=TDP$OPEN File=TDP$PMME.:E05TSI                                WED 07/30/97 06:04 Page:103
      758     5901    3                    CALL BADRET ( %E$TDMPCBSY, 4 ) ALTRET ( XIT ) ;
      759     5902    3                 END ;
      760     5903    2            CASE(%TD_TEST_MDR);
      761     5904    2              IF MPC$->DCT.STATUS.TND~=0 THEN CALL BADRET(%E$TDMPCBSY,4) ALTRET(XIT);
      762     5905    2              IF MPC$->DCT.DFLG.MPCBUSY THEN CALL BADRET(%E$TDMPCBSY,4) ALTRET(XIT);
      763     5906    2              IF NI$DQH.STATUS.DOWN THEN CALL BADRET(%E$TDCHANDOWN,4) ALTRET(XIT);
      764     5907        /*E*    ERROR:  TDP-E$TDCHANDOWN
      765     5908                MESSAGE: Cannot run MDR through partitioned channel.
      766     5909                                                                           */
      767     5910    2              IF DCT$->DCT.TYPE=%DV_DP THEN CALL CHECK_SDSK;
      768     5911    2            CASE(%TD_TEST_MTAR);
      769     5912    2              IF DCT$->DCT.TYPE~=%DV_DP THEN CALL BADRET(%E$TDNODEV,4) ALTRET(XIT);
      770     5913    2              IF NOT DCT$->DCT.STATUS.DOWN THEN
      771     5914    2                 CALL BADRET(%E$TDDEVBSY,4) ALTRET(XIT);
      772     5915    2              CALL CHECK_SDSK ALTRET(TDNODEV);
      773     5916    2            CASE(%TD_TEST_FEP);
      774     5917    2              CALL OPEN_FEP;
      775     5918    2              RETURN;
      776     5919    2            CASE(%TD_TEST_MCA);
      777     5920    2              IF DCT$->DCT.TYPE ~= %DV_MCA THEN CALL BADRET(%E$TDNOTMCA,4) ALTRET(XIT);
      778     5921    2              IF NI$DQH.STATUS.DOWN THEN CALL BADRET(%E$TDCHANDOWN,4) ALTRET(XIT);
      779     5922                   %LOCK(G#=NI$SQH.GATE);
      780     5925    2              IF  DCT$->DCT.MCA.RESERVED
      781     5926    2              THEN
      782     5927    2                 CALL BADRET(%E$TDMCABUSY,4) ALTRET(MCA_UNLK);
      783     5928    2            CASE ( %TD_TEST_IPC ) ;
      784     5929    3              DO  I = 0 TO TDOPNV.NCHANS-1 ;
      785     5930    3                 P$ = NI$CHT.DQH$(NI$DQH.IOCHANX+I) ;
      786     5931    3                 IF  P$ ~= ADDR(NIL)
      787     5932    3                 THEN
      788     5933    3                    IF  NOT  P$->NI$DQH.STATUS.DOWN
      789     5934    3                    THEN
      790     5935    3                       CALL BADRET ( %E$TDDEVBSY, 4 ) ALTRET ( XIT ) ;
      791     5936    3                 END ;
      792     5937    2            CASE(ELSE);
      793     5938    2              CALL BADRET(%E$TDNOTEST,4) ALTRET(XIT);
      794     5939    2            END;                           /* CASE TDOPNV.TEST                   */
PL6.E3A0      #003=TDP$OPEN File=TDP$PMME.:E05TSI                                WED 07/30/97 06:04 Page:104
      795     5940    2           DO CASE(DCT.TYPE);
      796     5941    2            CASE(%DV_CR,%DV_CP,%DV_LP,%DV_MT);
      797     5942    2              IF NOT DCT.STATUS.DOWN AND NOT DCT.STATUS.TDOK THEN
      798     5943    2                 CALL BADRET(%E$TDDEVBSY,4) ALTRET(XIT);
      799     5944    2            CASE(%DV_DP);
      800     5945    2              IF  TDOPNV.TEST ~= %TD_TEST_POLTS
      801     5946    2                AND TDOPNV.TEST ~= %TD_TEST_MDR
      802     5947    2                AND NOT DCT.STATUS.DOWN
      803     5948    2                AND (  DCT.RAT$->FR$RAT.RES.SISID = JG_SLUG#
      804     5949    2                OR  DCT.RAT$->FR$RAT.RES.SISID = JG_PIG#       )
      805     5950    2              THEN
      806     5951    2                 CALL BADRET ( %E$TDDEVBSY, 4 ) ALTRET ( XIT ) ;
      807     5952    2            END;                           /* CASE NI$DVT$(DCT.DVTX)->DVT.TYPE   */
      808     5953                %LOCK (G#=TD_OPENGATE);
      809     5956    1           IF DCT$->DCT.STATUS.TND=0 THEN DCT$->DCT.STATUS.TND=TDOPNV.TEST;
      810     5957    1           ELSE CALL BADRET(%E$TDDEVBSY,4) ALTRET(UNLOCK);
      811     5958                %UNLOCK (G#=TD_OPENGATE);
      812     5961        /**/
      813     5962        /* MODIFY I/O TABLES */
      814     5963        /**/
      815     5964    1           DCT.STATUS.TND=TDOPNV.TEST;
      816     5965    1           DCT.SPEVENT=TDOPNV.SPEVENT;
      817     5966    1           DCT.TDUSER#=B$JIT.USER;
      818     5967    2           DO CASE(TDOPNV.TEST);
      819     5968    2            CASE(%TD_TEST_MDR);
      820     5969    2              MPC$->DCT.STATUS.TND=%TD_TEST_MDR;
      821     5970                                     /* WHILE RUNNING THE MDR THROUGH THIS
      822     5971                                        MPC, MAKE IO THROUGH THE MPC BE
      823     5972                                        SINGLE STREAM ON THE CHANNEL THE
      824     5973                                        MDR IS USING                       */
      825     5974    3              DO I=0 TO 1;
      826     5975    4                 IF NI$SQH.MPC$(I)=MPC$ THEN DO;
      827     5976    4                    CALL NIW$MPCSTOP(NI$SQH.MPC$(I)->DCT);
      828     5977    5                    IF NI$SQH.MPC$(I)->DCT.MPC.ALTMPCX~=0 THEN DO;
      829     5978    5                       CALL NIW$MPCSTOP(N$DCT$(NI$SQH.MPC$(I)->DCT.MPC.ALTMPCX)->DCT);
      830     5979    5                       END;
      831     5980    4                    END;
PL6.E3A0      #003=TDP$OPEN File=TDP$PMME.:E05TSI                                WED 07/30/97 06:04 Page:105
      832     5981    3                 END;
      833     5982    3              DO WHILE(NOT MPC$->DCT.DFLG.MPCSTOP);
      834     5983    3                 CALL SSR$REG(%SS_SL,,1);
      835     5984    3                 END;
      836     5985                   %LOCK (G#=NI$SQH.GATE);
      837     5988    2              MPC$->DCT.DFLG.MPCSTOP='0'B;
      838     5989    3              IF NOT NI$DQH.STATUS.DOWN THEN DO;
      839     5990    3                 NI$DQH.CHANSTATE.STOP='0'B;
      840     5991                      %ENQUEUE(P#=NI$DQH,Q#=NI$SQH.CQ$);
      841     5994    3                 END;
      842     5995                   %UNLOCK (G#=NI$SQH.GATE);
      843     5998    2            CASE(%TD_TEST_ITR);
      844     5999                                                /* STOP THE MPC WHILE RUNNING THE ITR */
      845     6000    2              CALL NIW$MPCSTOP(MPC$->DCT);
      846     6001    2              IF MPC$->DCT.MPC.ALTMPCX~=0 THEN
      847     6002    2                 CALL NIW$MPCSTOP(N$DCT$(MPC$->DCT.MPC.ALTMPCX)->DCT);
      848     6003    2            CASE(%TD_TEST_MCA);
      849     6004    2              DCT$->DCT.MCA.USER#=B$JIT.USER;
      850     6005    2              DCT$->DCT.MCA.RESERVED='1'B;
      851     6006                   %UNLOCK(G#=NI$SQH.GATE);
      852     6009    2            CASE ( %TD_TEST_IPC ) ;
      853     6010
      854     6011    2            END;
      855     6012    1           TEMP=DCT.DCTX;
      856     6013    1           CALL FSA$GSP(SIZEW(NI$EXTST),EXTST$) ALTRET(XIT);
      857     6014    1           CALL OCI$MK_WR(M_DEVC,TDOPN_MSG#,5,LEN,MSG,TEMP);
      858     6015        /**/
      859     6016        /* SET UP TD DCB */
      860     6017        /**/
      861     6018    1           DCB$->F$DCB.TYC='0'B;
      862     6019    1           DCB$->F$DCB.FUN=TDOPNV.TEST;
      863     6020    1           DCB$->F$DCB.DVTYPE=DCT.TYPE;
      864     6021    1           IF DCT.TYPE~=%DV_LP THEN DCB$->F$DCB.WIDTH=0;
      865     6022    2           ELSE DO;
      866     6023    2              DCB$->F$DCB.WIDTH=132;
      867     6024    2              CALL HFF$DSIZ(1,TEMP);
      868     6025    2              IF TEMP>=60*4 THEN B$PS1$->CHAINIMG=DCT.LP.CHAIN$->CHAINIMG;
PL6.E3A0      #003=TDP$OPEN File=TDP$PMME.:E05TSI                                WED 07/30/97 06:04 Page:106
      869     6026    2              CALL HFF$DSIZ(2,TEMP);
      870     6027    3              IF TEMP>=DCT.LP.VFCL*4 THEN DO;
      871     6028    3                 TEMP=DCT.LP.VFCL*4;
      872     6029    3                 B$PS2$->VFCIMG=DCT.LP.VFC$->VFCIMG;
      873     6030    3                 END;
      874     6031    2              END;
      875     6032    1           DCB$->F$DCB.DQH$=DQH$;
      876     6033    1           DCB$->F$DCB.DCT$=DCT$;
      877     6034    1           DCB$->F$DCB.MPC$=MPC$;
      878     6035    1           DCB$->F$DCB.TDEXTST$=EXTST$;
      879     6036    1           DCB$->F$DCB.DEVADR=TDOPNV.DEVICE;
      880     6037    1           DCB$->F$DCB.CONNCT=0;
      881     6038    1           DCB$->F$DCB.CHANTIME=0;
      882     6039    1           DCB$->F$DCB.ASN=%T@D#;
      883     6040    1           DCB$->F$DCB.FCN='0'B;
      884     6041    1           DCB$->F$DCB.FCD='1'B;           /* MARK DCB OPEN                      */
      885     6042    1           EL$DIAG.ACCN=B$JIT.ACCN;
      886     6043    1           EL$DIAG.UNAME=B$JIT.UNAME;
      887     6044    1           EL$DIAG.SYSID=B$JIT.SYSID;
      888     6045    1           EL$DIAG.DEVNM=DCT$->DCT.DEVNM;
      889     6046    1           EL$DIAG.TEST=TDOPNV.TEST;
      890     6047    1           CALL ELA$SYSLOG(EL_DIAG,EL$DIAG,SIZEW(EL$DIAG),'0'B,1,TEMP);
      891     6048    1           RETURN;
      892     6049    1   BRKYC:
      893     6050    1           CALL BADRET(%E$BREAK,4) ALTRET(XIT);
      894     6051    1   TDNODEV:
      895     6052    1           CALL BADRET(%E$TDNODEV,4) ALTRET(XIT);
      896     6053        /*E*        ERROR: TDP-E$TDNODEV
      897     6054                  MESSAGE: Device requested by M$TDOPEN does not exist.
      898     6055        */
      899     6056    1   UNLOCK:
      900     6057                %UNLOCK(G#=TD_OPENGATE);
      901     6060    1   MCA_UNLK:
      902     6061    1           IF TDOPNV.TEST = %TD_TEST_MCA
      903     6062    2           THEN DO;
      904     6063                   %UNLOCK(G#=NI$SQH.GATE);
      905     6066    2              END;
PL6.E3A0      #003=TDP$OPEN File=TDP$PMME.:E05TSI                                WED 07/30/97 06:04 Page:107
      906     6067    1   XIT:    RETURN;
      907     6068    1   BADRET: PROC(ERRCODE,SEV) ALTRET;
      908     6069    2   DCL ERRCODE UBIN WORD;
      909     6070    2   DCL SEV UBIN WORD;
      910     6071        /**/
      911     6072    2           B$JIT.ERR='240420000000'O;
      912     6073    2           B$JIT.ERR.CODE=ERRCODE;
      913     6074    2           B$JIT.ERR.SEV=SEV;
      914     6075    2           ALTRETURN;
      915     6076    2   END BADRET;
      916     6077        %EJECT;
PL6.E3A0      #003=TDP$OPEN File=TDP$PMME.:E05TSI                                WED 07/30/97 06:04 Page:108
      917     6078    1   CHECK_SDSK: PROC ALTRET;
      918     6079    2   DCL I SBIN;
      919     6080        /**/
      920     6081    2           CALL NIQ$GET(Q$);
      921     6082    2           N$REQ.DLA.DCTX=DCT$->DCT.DCTX;
      922     6083    2           N$REQ.FC=%N_RQSTAT;
      923     6084    2           N$REQ.BPMIR = '1'B ;
      924     6085    2           N$REQ.DCB$=DCB$;
      925     6086    2           N$REQ.OPFLG=%(OP_USER|OP_WAIT|OP_HOLD|OP_CLR);
      926     6087    2           CALL NIO$QUE(Q$->N$REQ);
      927     6088    2           IF Q$->N$REQ.STATUS.MAJOR~=0 THEN GOTO SET_SDSK;
      928     6089    2           N$REQ.FC=%N_RDBIN;
      929     6090    2           N$REQ.OPFLG=%(OP_USER|OP_WAIT|OP_BPF|OP_HOLD|OP_CLR);
      930     6091    2           N$REQ.BUF$=ADDR(VIDBUF1);
      931     6092    2           N$REQ.BUFSIZE=SIZEC(VIDBUF1);
      932     6093    2           N$REQ.DLA.DRELADDR=0;
      933     6094    2           CALL NIO$QUE(Q$->N$REQ);
      934     6095    2           VID$=ADDR(VIDBUF1);
      935     6096    3           IF FM$VID.ID='CP6 ' THEN DO;
      936     6097    3              IF FM$VID.VOLCNT~=0 THEN GOTO SET_SDSK;
      937     6098    4              DO I=0 TO 25;
      938     6099    5                 IF FM$VID.SECTSTRT(I)~=0 AND FM$VID.SECTSTRT(I)<DCT$->DCT.DVT$->DVT.
              6099                          PACKSIZE THEN DO;
      939     6100    5                    N$REQ.BUF$=ADDR(VIDBUF2);
      940     6101    5                    N$REQ.BUFSIZE=SIZEC(VIDBUF2);
      941     6102    5                    N$REQ.OPFLG=%(OP_USER|OP_WAIT|OP_BPF|OP_HOLD|OP_CLR);
      942     6103    5                    N$REQ.DLA.DRELADDR=FM$VID.SECTSTRT(I);
      943     6104    5                    CALL NIO$QUE(N$REQ);
      944     6105    5                    IF ADDR(VIDBUF2)->FM$VID.VOLCNT~=0 THEN GOTO SET_SDSK;
      945     6106    5                    END;
      946     6107    4                 END;
      947     6108    3              END;
      948     6109    2           CALL NIQ$REL(Q$);
      949     6110    2           RETURN;
      950     6111    2   SET_SDSK:
      951     6112    2           CALL NIQ$REL(Q$);
      952     6113    2           DCB$->F$DCB.TDFLG.SDSK='1'B;
PL6.E3A0      #003=TDP$OPEN File=TDP$PMME.:E05TSI                                WED 07/30/97 06:04 Page:109
      953     6114    2           ALTRETURN;
      954     6115    2   END CHECK_SDSK;
      955     6116        %EJECT;
PL6.E3A0      #003=TDP$OPEN File=TDP$PMME.:E05TSI                                WED 07/30/97 06:04 Page:110
      956     6117    1   OPEN_FEP: PROC;
      957     6118    2           IF NI$DQH.FEX~=FEI# THEN CALL BADRET(%E$TDNOTFEP,4) ALTRET(XIT);
      958     6119        /*E*    ERROR:   TDP-E$TDNOTFEP
      959     6120                MESSAGE: FEP does not exist.
      960     6121        */
      961     6122    2           CALL HFF$NILERASE(B$PS3$) ALTRET(BADWINDOW);
      962     6123    2           CALL HFF$DSIZ(B$PS3$,WSZ);
      963     6124    3           IF MOD(WSZ,4096)~=0 THEN DO;
      964     6125    3   BADWINDOW: CALL BADRET(%E$TDBADWINDOW,4) ALTRET(XIT);
      965     6126        /*E*    ERROR:   TDP-E$TDBADWINDOW
      966     6127                MESSAGE: Window area must be present for T&D FEP open and must
      967     6128                         begin and end on a page boundary.
      968     6129        */
      969     6130    3              END;
      970     6131                %LOCK (G#=TD_OPENGATE);
      971     6134    2           IF NOT NI$DQH.STATUS.DOWN OR NI$DQH.STATUS.TND~=0 THEN
      972     6135    2              CALL BADRET(%E$TDFEPBSY,4) ALTRET(UNLOCK);
      973     6136    2           NI$DQH.STATUS.TND=TDOPNV.TEST;
      974     6137                %UNLOCK (G#=TD_OPENGATE);
      975     6140    2           FEI$ = KI$FEI$(NI$DQH.FEX);
      976     6141    2           CALL MMS$VGET(KI$FEI.FEWSQ ,B$PS3$,WSZ,KI$FEI.BD$ )
      977     6142    3           WHENALTRETURN DO;
      978     6143                   %LOCK (G=TD_OPENGATE);
      979     6146    3              NI$DQH.STATUS.TND = 0;
      980     6147                   %UNLOCK(G=TD_OPENGATE);
      981     6150    3              GOTO BADWINDOW;
      982     6151    3              END;
      983     6152    2           NI$DQH.USER#=B$JIT.USER;
      984     6153    2           NI$DQH.EVENTINFO = TDOPNV.SPEVENT;
      985     6154    2           DCB$->F$DCB.TYC='0'B;
      986     6155    2           DCB$->F$DCB.FUN=TDOPNV.TEST;
      987     6156    2           DCB$->F$DCB.XTNSIZE=WSZ/4096;
      988     6157    2           DCB$->F$DCB.IXTNSIZE=X;         /* NEED TO SAVE X FOR CLOSE           */
      989     6158    2           DCB$->F$DCB.DQH$=DQH$;
      990     6159    2           DCB$->F$DCB.DEVADR.DVN=FEI#;
      991     6160    2           DCB$->F$DCB.CONNCT=0;
      992     6161    2           DCB$->F$DCB.CHANTIME=0;
PL6.E3A0      #003=TDP$OPEN File=TDP$PMME.:E05TSI                                WED 07/30/97 06:04 Page:111
      993     6162    2           DCB$->F$DCB.ASN=%T@D#;
      994     6163    2           DCB$->F$DCB.FCN='0'B;
      995     6164    2           DCB$->F$DCB.CFU$ = KI$FEI.BD$;
      996     6165    2           DCB$->F$DCB.FCD='1'B;
      997     6166    2           EL$DIAG.ACCN=B$JIT.ACCN;
      998     6167    2           EL$DIAG.UNAME=B$JIT.UNAME;
      999     6168    2           EL$DIAG.SYSID=B$JIT.SYSID;
     1000     6169    2           EL$DIAG.DEVNM='FEP NNN';
     1001     6170    2           CALL BINCHAR(SUBSTR(EL$DIAG.DEVNM,4,3),KI$FEI.FEP#);
     1002     6171    2           EL$DIAG.TEST=TDOPNV.TEST;
     1003     6172    2           DCB$->F$DCB.NAME.L=6;
     1004     6173    2           DCB$->F$DCB.NAME.C=EL$DIAG.DEVNM;
     1005     6174    2           CALL ELA$SYSLOG(EL_DIAG,EL$DIAG,SIZEW(EL$DIAG),'0'B,1,TEMP);
     1006     6175    2           RETURN;
     1007     6176    2   UNLOCK:
     1008     6177                %UNLOCK (G#=TD_OPENGATE);
     1009     6180    2   XIT:    RETURN;
     1010     6181    2   END OPEN_FEP;
     1011     6182    1   END TDP$OPEN;
     1012     6183        %EOD;

PL6.E3A0      #003=TDP$OPEN File=TDP$PMME.:E05TSI                                WED 07/30/97 06:04 Page:112
--  Include file information  --

   UQ_ERRORS_C.:E05TOU  is referenced.
   TD_ERRORS_C.:E05TOU  is referenced.
   TD$CP6V_C.:E05TOU  is referenced.
   SS_SCHED_C.:E05TOU  is referenced.
   OC_SUBS_C.:E05TOU  is referenced.
   N_FC_C.:E05TOU  is referenced.
   NI_MACROS_C.:E05TOU  cannot be made into a system file and is referenced.
   NI$TABLES.:E05TOU  is referenced.
   N$REQ.:E05TOU  is referenced.
   NI_DATA_R.:E05TOU  cannot be made into a system file and is referenced.
   NI_DATA_C.:E05TOU  is referenced.
   M_INFO_C.:E05TOU  is referenced.
   KI_SUBS_C.:E05TOU  is referenced.
   KI_MACROS_C.:E05TOU  is referenced.
   KI_DATA_R.:E05TOU  cannot be made into a system file and is referenced.
   JG_GHOSTS_C.:E05TOU  is referenced.
   HF_LOCK_C.:E05TOU  cannot be made into a system file and is referenced.
   F_ERRORS_C.:E05TOU  is referenced.
   FR$RAT.:E05TOU  is referenced.
   FM$GRAN.:E05TOU  is referenced.
   F$DCB.:E05TOU  cannot be made into a system file and is referenced.
   EL_SUBS_C.:E05TOU  is referenced.
   EL$TABLES.:E05TOU  is referenced.
   CP_6_SUBS.:E05TOU  is referenced.
   B_STRINGS_C.:E05TOU  is referenced.
   B$USER.:E05TOU  cannot be made into a system file and is referenced.
   B$MAP.:E05TOU  cannot be made into a system file and is referenced.
   B$JIT_C.:E05TOU  is referenced.
   B$JIT.:E05TOU  cannot be made into a system file and is referenced.
      No diagnostics issued in procedure TDP$OPEN.

   Procedure TDP$OPEN requires 1178 words for executable code.
   Procedure TDP$OPEN requires 182 words of local(AUTO) storage.
PL6.E3A0      #003=TDP$OPEN File=TDP$PMME.:E05TSI                                WED 07/30/97 06:04 Page:113

PL6.E3A0      #003=TDP$OPEN File=TDP$PMME.:E05TSI                                WED 07/30/97 06:04 Page:114

 Object Unit name= TDP$OPEN                                   File name= TDP$PMME.:E05TOU
 UTS= JUL 30 '97 06:04:48.12 WED                              Compiler= PL-6/E31         Sev=      00
 SharedLib= :SHARED_SYSTEM                                    Alt SharedLib=


    ****  Control sections  ****

 Sect   Type Bound  Init  Size OctSiz  Section name(segment info)
    0  RoData even  UTS      7      7  TDP$OPEN
    1   Proc  even  none  1178   2232  TDP$OPEN
    2  RoData even  none    58     72  TDP$OPEN

    ****  Entry defs  ****

                              Check   Calling
                             calling  sequence
  Sect OctLoc Primary Altret sequence   type   Parms  Name
     1      0   yes            yes      Std        0  TDP$OPEN
PL6.E3A0      #003=TDP$OPEN File=TDP$PMME.:E05TSI                                WED 07/30/97 06:04 Page:115

  ****  Entry refs  ****

         Check        Calling
        calling       sequence
Altret sequence SRef   type   Args  Name
         yes           Std       1 FMM$SCRUB
 yes     yes           Std       6 TDU$FINDPATH
 yes     yes           Std       3 SSR$REG
         yes           Std       1 HFC$UNLOCK
         yes           Std       7 OCI$MK_WR
         yes           Std       1 NIW$MPCSTOP
         yes           Std       2 HFF$DSIZ
 yes     yes           Std       2 FSA$GSP
 yes     yes           Std       6 ELA$SYSLOG
         yes           Std       1 HFC$LOCK
         yes           Std       2 NIM$ENQUEUE
 yes     yes           Std       1 NIQ$GET
 yes     yes           Std       1 NIO$QUE
 yes     yes           Std       1 NIQ$REL
 yes     yes           Std       1 HFF$NILERASE
 yes     yes           Std       4 MMS$VGET
                       nStd      0 X66_AUTO_0
                       Std       0 B_CONSPOOL_D
                       nStd      0 X66_ARET

  ****  Data refs  ****

  Flags:  r = read only, s = secondary
Flgs Name                             Flgs Name                             Flgs Name
     KI_FEI$$                              KI_NODES                              KI_MXFE
     N$DCT$$                               N$FQ$                                 NI$CHT$
     NI$FQ$                                NI$IBUF$                              NI$RP$
     B$JIT$                                B$PS0$                                B$PS1$
     B$PS2$                                B$PS3$                                S$CU$
     TD_OPENGATE                           B_VECTNIL
PL6.E3A0      #003=TDP$OPEN File=TDP$PMME.:E05TSI                                WED 07/30/97 06:04 Page:116

  ****  Segment refs  ****

  Flags:  r = read only, s = secondary
Flgs Name                             Flgs Name                             Flgs Name
     ISSID
PL6.E3A0      #003=TDP$OPEN File=TDP$PMME.:E05TSI                                WED 07/30/97 06:04 Page:117


      524        1        /*M* TDP$OPEN - M$TDOPEN PMME HANDLER */
      525        2        /*T***********************************************************/
      526        3        /*T*                                                         */
      527        4        /*T* Copyright (c) Bull HN Information Systems Inc., 1997    */
      528        5        /*T*                                                         */
      529        6        /*T***********************************************************/
      530        7        TDP$OPEN: PROC;

      7  1 000000   000000 700200 xent  TDP$OPEN     TSX0  ! X66_AUTO_0
         1 000001   000266 000000                    ZERO    182,0

      531        8        /*
      532        9                Includes
      533       10        */
      534       11        %INCLUDE                        B$JIT ;
      535      614        %INCLUDE                        B$MAP ;
      536      713        %INCLUDE                        B$USER ;
      537      929        %INCLUDE                        B_STRINGS_C ;
      538     1058        %INCLUDE                        CP_6_SUBS ;
      539     1598        %INCLUDE                        EL$TABLES ;
      540     1921        %INCLUDE                        EL_SUBS_C ;
      541     2005        %INCLUDE                        F$DCB ;
      542     2054        %INCLUDE                        FM$GRAN ;
      543     2123        %INCLUDE                        FR$RAT ;
      544     2176        %INCLUDE                        F_ERRORS_C ;
      545     2416        %INCLUDE                        HF_LOCK_C ;
      546     2430        %INCLUDE                        JG_GHOSTS_C ;
      547     2520        %INCLUDE                        KI_DATA_R ;
      548     2546        %INCLUDE                        KI_MACROS_C ;
      549     3154        %INCLUDE                        KI_SUBS_C ;
      550     3290        %INCLUDE                        M_INFO_C ;
      551     3430        %INCLUDE                        NI_DATA_C ;
      552     3543        %INCLUDE                        NI_DATA_R ;
      553     3980        %INCLUDE                        NI_MACROS_C ;
      554     4247        %INCLUDE                        N_FC_C ;
      555     4284        %INCLUDE                        OC_SUBS_C ;
PL6.E3A0      #003=TDP$OPEN File=TDP$PMME.:E05TSI                                WED 07/30/97 06:04 Page:118
      556     5015        %INCLUDE                        SS_SCHED_C ;
      557     5248        %INCLUDE                        TD$CP6V_C ;
      558     5284        %INCLUDE                        TD_ERRORS_C ;
      559     5367        %INCLUDE                        UQ_ERRORS_C ;
      560     5389        /*
      561     5390                Entries
      562     5391        */
      563     5392    1   DCL 1 ELA$SYSLOG                ENTRY(6) ALTRET ;
      564     5393    1   DCL 1 FMM$SCRUB                 ENTRY(1) ;
      565     5394    1   DCL 1 FSA$GSP                   ENTRY(2) ALTRET ;
      566     5395    1   DCL 1 HFF$DSIZ                  ENTRY(2) ;
      567     5396    1   DCL 1 HFF$NILERASE              ENTRY(1) ALTRET ;
      568     5397    1   DCL 1 NIQ$GET                   ENTRY(1) ALTRET ;
      569     5398    1   DCL 1 NIQ$REL                   ENTRY(1) ALTRET ;
      570     5399    1   DCL 1 NIO$QUE                   ENTRY(1) ALTRET ;
      571     5400    1   DCL 1 NIW$MPCSTOP               ENTRY(1) ;
      572     5401    1   DCL 1 MMS$VGET                  ENTRY(4) ALTRET ;
      573     5402    1   DCL 1 OCI$MK_WR                 ENTRY(7) ;
      574     5403    1   DCL 1 SSR$REG                   ENTRY(3) ALTRET ;
      575     5404    1   DCL 1 TDU$FINDPATH              ENTRY(6) ALTRET ;
      576     5405    1   DCL 1 UDB$PMMEXIT               ENTRY(0) ;
      577     5406        /*
      578     5407                Symrefs
      579     5408        */
      580     5409    1   DCL 1 B$CPGT1$                  PTR SYMREF ;
      581     5410    1   DCL 1 B$JIT$                    PTR SYMREF ;
      582     5411    1   DCL 1 B$PS0$                    PTR SYMREF ;
      583     5412    1   DCL 1 B$PS1$                    PTR SYMREF ;
      584     5413    1   DCL 1 B$PS2$                    PTR SYMREF ;
      585     5414    1   DCL 1 B$PS3$                    PTR SYMREF ;
      586     5415    1   DCL 1 B$UPT$                    PTR SYMREF ;
      587     5416        %B$USERREFS;
      588     5420    1   DCL 1 IT_SYSDISK                SBIN SYMREF ;
      589     5421    1   DCL 1 TD_OPENGATE               BIT(72) SYMREF ;
      590     5422        /*
      591     5423                Auto
      592     5424        */
PL6.E3A0      #003=TDP$OPEN File=TDP$PMME.:E05TSI                                WED 07/30/97 06:04 Page:119
      593     5425    1   DCL 1 CPT$                      PTR ALIGNED AUTO ;
      594     5426    1   DCL 1 DCB$                      PTR ALIGNED AUTO ;
      595     5427    1   DCL 1 DCT$                      PTR ALIGNED AUTO ;
      596     5428    1   DCL 1 DQH$                      PTR ALIGNED AUTO ;
      597     5429        %EL$DIAG                        ( NAME=EL$DIAG, STCLASS=AUTO );
      598     5432    1   DCL 1 EXTST$                    PTR ALIGNED AUTO ;
      599     5433    1   DCL 1 FEI$                      PTR ALIGNED AUTO ;
      600     5434    1   DCL 1 FEI#                      UBIN ALIGNED AUTO ;
      601     5435    1   DCL 1 I                         SBIN ALIGNED AUTO ;
      602     5436    1   DCL 1 MPC$                      PTR ALIGNED AUTO ;
      603     5437    1   DCL 1 MPCFLG                    BIT(1) ALIGNED AUTO ;
      604     5438    1   DCL 1 MSG                       ALIGNED AUTO,
      605     5439    1         2 ACCT                    CHAR(8),
      606     5440    1         2 SYSID                   UBIN HALF UNAL,
      607     5441    1         2 NAME                    CHAR(12) UNAL,
      608     5442    1         2 DEVNM                   CHAR(4) UNAL,
      609     5443    1         2 FEPNO                   REDEF DEVNM UBIN UNAL,
      610     5444    1         2 TEST                    SBIN UNAL ;
      611     5445    1   DCL 1 P$                        PTR ALIGNED AUTO ;
      612     5446    1   DCL 1 PATH                      BIT(1) ALIGNED AUTO ;
      613     5447    1   DCL 1 Q$                        PTR ALIGNED AUTO ;
      614     5448    1   DCL 1 SQH$                      PTR ALIGNED AUTO ;
      615     5449    1   DCL 1 TEMP                      UBIN WORD ALIGNED AUTO ;
      616     5450    1   DCL 1 UPT$                      PTR ALIGNED AUTO ;
      617     5451    1   DCL 1 VID$                      PTR ALIGNED AUTO ;
      618     5452    1   DCL 1 VIDBUF1                   CHAR(%(64*4)) CALIGNED AUTO ;
      619     5453    1   DCL 1 VIDBUF2                   CHAR(%(64*4)) CALIGNED AUTO ;
      620     5454    1   DCL 1 WPTP                      SBIN ALIGNED AUTO ;
      621     5455    1   DCL 1 WSZ                       SBIN ALIGNED AUTO ;
      622     5456    1   DCL 1 WVA                       SBIN ALIGNED AUTO ;
      623     5457    1   DCL 1 X                         SBIN ALIGNED AUTO ;
      624     5458        /*
      625     5459                Based
      626     5460        */
      627     5461    1   DCL 1 CHAINIMG(0:59)            UBIN BASED ;
      628     5462        %NI$DCT                         ( NAME=DCT,           STCLASS="BASED(DCT$)" ) ;
      629     5510        %NI$DVT                         ( NAME=DVT,           STCLASS=BASED         ) ;
PL6.E3A0      #003=TDP$OPEN File=TDP$PMME.:E05TSI                                WED 07/30/97 06:04 Page:120
      630     5517        %FM$VID                         (                     BASED="BASED(VID$)" ) ;
      631     5523        %FPT$TDOPEN_V ;
      632     5527        %FR$RAT ;
      633     5567        %KI$FEI                         (                     STCLASS="BASED(FEI$)" ) ;
      634     5651        %N$REQ                          ( NAME=N$REQ,         STCLASS="BASED(Q$)" ) ;
      635     5709        %NI$CHT                         ( NAME="NI$CHT(0:0)", STCLASS="BASED(NI$CHT$)" ) ;
      636     5712        %NI$DQH                         ( NAME=NI$DQH,        STCLASS="BASED(DQH$)" ) ;
      637     5735        %NI$EXTST                       ( NAME=NI$EXTST,      STCLASS=BASED ) ;
      638     5769        %NI$SQH                         ( NAME=NI$SQH,        STCLASS="BASED(SQH$)" ) ;
      639     5782    1   DCL 1 PBASE$                    PTR BASED ;
      640     5783    1   DCL 1 VFCIMG                    CHAR(TEMP) BASED ;
      641     5784        /*
      642     5785                Constants
      643     5786        */
      644     5787    1   DCL LEN(0:4) UBIN BYTE CONSTANT UNAL INIT(8,2,12,4,4);
      645     5788
      646     5789        %SUB TDOPNV=B$PS0$->FPT$TDOPEN_V;
      647     5790        %EQU FPMC#=%BINBIT(FPMC,18);
      648     5791        %EJECT;
PL6.E3A0      #003=TDP$OPEN File=TDP$PMME.:E05TSI                                WED 07/30/97 06:04 Page:121
      649     5792        /* GET OPERATOR PERMISSION */
      650     5793    1           DCB$=B$JIT.DCB$;

   5793  1 000002   000000 470400 xsym               LDP0    B$JIT$
         1 000003   000232 236100                    LDQ     154,,PR0
         1 000004   200004 756100                    STQ     DCB$,,AUTO

      651     5794    1           IF DCB$->F$DCB.FCD THEN CALL BADRET(%E$DCBOPEN,4) ALTRET(XIT);

   5794  1 000005   200004 471500                    LDP1    DCB$,,AUTO
         1 000006   100031 236100                    LDQ     25,,PR1
         1 000007   020000 316007                    CANQ    8192,DL
         1 000010   000017 600000 1                  TZE     s:5798

   5794  1 000011   000001 236000 2                  LDQ     1
         1 000012   200256 756100                    STQ     @ERRCODE+1,,AUTO
         1 000013   000002 236000 2                  LDQ     2
         1 000014   200255 756100                    STQ     I+2,,AUTO
         1 000015   001540 701000 1                  TSX1    BADRET
         1 000016   001537 702000 1                  TSX2    XIT

      652     5795        /*E*    ERROR:   TDP-E$DCBOPEN
      653     5796                MESSAGE: T & D DCB% %DC % is already open.
      654     5797                                                                           */
      655     5798    1           CALL FMM$SCRUB(DCB$);

   5798  1 000017   200004 630500                    EPPR0   DCB$,,AUTO
         1 000020   200260 450500                    STP0    @SEV+2,,AUTO
         1 000021   200260 630500                    EPPR0   @SEV+2,,AUTO
         1 000022   000017 631400 xsym               EPPR1   B_VECTNIL+15
         1 000023   000000 701000 xent               TSX1    FMM$SCRUB
         1 000024   000000 011000                    NOP     0

      656     5799    1           DCB$->F$DCB.TDFLG.SDSK='0'B;

   5799  1 000025   200004 470500                    LDP0    DCB$,,AUTO
         1 000026   000003 236000 2                  LDQ     3
PL6.E3A0      #003=TDP$OPEN File=TDP$PMME.:E05TSI                                WED 07/30/97 06:04 Page:122
         1 000027   000040 356100                    ANSQ    32,,PR0

      657     5800    2           IF TDOPNV.TEST=%TD_TEST_FEP THEN DO;

   5800  1 000030   000000 471400 xsym               LDP1    B$PS0$
         1 000031   100002 236100                    LDQ     2,,PR1
         1 000032   770000 376003                    ANQ     -4096,DU
         1 000033   050000 116003                    CMPQ    20480,DU
         1 000034   000166 601000 1                  TNZ     s:5826

      658     5801    2              DCT$=ADDR(NIL);

   5801  1 000035   000001 236000 xsym               LDQ     B_VECTNIL+1
         1 000036   200005 756100                    STQ     DCT$,,AUTO

      659     5802    2              SQH$=ADDR(NIL);

   5802  1 000037   200041 756100                    STQ     SQH$,,AUTO

      660     5803    2              MPC$=ADDR(NIL);

   5803  1 000040   200024 756100                    STQ     MPC$,,AUTO

      661     5804    3              DO FEI# = 1 TO KI_MXFE;

   5804  1 000041   000001 235007                    LDA     1,DL
         1 000042   200022 755100                    STA     FEI#,,AUTO
         1 000043   000066 710000 1                  TRA     s:5809+3

      662     5805    3                 FEI$ = KI$FEI$(FEI#);

   5805  1 000044   000000 470400 xsym               LDP0    KI_FEI$$
         1 000045   200022 720100                    LXL0    FEI#,,AUTO
         1 000046   000000 236110                    LDQ     0,X0,PR0
         1 000047   200021 756100                    STQ     FEI$,,AUTO

      663     5806    3                 IF KI$FEI.FEP# = TDOPNV.DEVICE.DVN
PL6.E3A0      #003=TDP$OPEN File=TDP$PMME.:E05TSI                                WED 07/30/97 06:04 Page:123

   5806  1 000050   000000 471400 xsym               LDP1    B$PS0$
         1 000051   100000 236100                    LDQ     0,,PR1
         1 000052   000014 772000                    QRL     12
         1 000053   000077 376007                    ANQ     63,DL
         1 000054   200260 756100                    STQ     @SEV+2,,AUTO
         1 000055   200021 473500                    LDP3    FEI$,,AUTO
         1 000056   300012 236100                    LDQ     10,,PR3
         1 000057   000011 772000                    QRL     9
         1 000060   000777 376007                    ANQ     511,DL
         1 000061   200260 116100                    CMPQ    @SEV+2,,AUTO
         1 000062   000077 600000 1                  TZE     FOUND_FEP

      664     5807    3                 THEN
      665     5808    3                    GOTO FOUND_FEP;
      666     5809    3                 END;

   5809  1 000063   200022 235100                    LDA     FEI#,,AUTO
         1 000064   000001 035007                    ADLA    1,DL
         1 000065   200022 755100                    STA     FEI#,,AUTO
         1 000066   000000 236000 xsym               LDQ     KI_MXFE
         1 000067   200022 116100                    CMPQ    FEI#,,AUTO
         1 000070   000044 603000 1                  TRC     s:5805

      667     5810    2              CALL BADRET (%E$TDNOTFEP,4) ALTRET(XIT);

   5810  1 000071   000001 236000 2                  LDQ     1
         1 000072   200256 756100                    STQ     @ERRCODE+1,,AUTO
         1 000073   000005 236000 2                  LDQ     5
         1 000074   200255 756100                    STQ     I+2,,AUTO
         1 000075   001540 701000 1                  TSX1    BADRET
         1 000076   001537 702000 1                  TSX2    XIT

   5805  1 000077                       FOUND_FEP    null
      668     5811    2   FOUND_FEP: ;
      669     5812    2              DQH$=NI$CHT.DQH$(BITBIN(KI$FEI.FECH ));

PL6.E3A0      #003=TDP$OPEN File=TDP$PMME.:E05TSI                                WED 07/30/97 06:04 Page:124
   5812  1 000077   200021 470500                    LDP0    FEI$,,AUTO
         1 000100   000002 236100                    LDQ     2,,PR0
         1 000101   000033 772000                    QRL     27
         1 000102   000001 736000                    QLS     1
         1 000103   000000 471400 xsym               LDP1    NI$CHT$
         1 000104   100000 236106                    LDQ     0,QL,PR1
         1 000105   200006 756100                    STQ     DQH$,,AUTO

      670     5813    2              IF DQH$=ADDR(NIL) OR TDOPNV.DEVICE.DVN>KI_NODES THEN

   5813  1 000106   000001 116000 xsym               CMPQ    B_VECTNIL+1
         1 000107   000117 600000 1                  TZE     s:5814
         1 000110   000000 473400 xsym               LDP3    B$PS0$
         1 000111   300000 236100                    LDQ     0,,PR3
         1 000112   000014 772000                    QRL     12
         1 000113   000077 376007                    ANQ     63,DL
         1 000114   000000 116000 xsym               CMPQ    KI_NODES
         1 000115   000125 602000 1                  TNC     GOT_FEP
         1 000116   000125 600000 1                  TZE     GOT_FEP

      671     5814    2                 CALL BADRET(%E$TDNODEV,4) ALTRET(XIT);

   5814  1 000117   000001 236000 2                  LDQ     1
         1 000120   200256 756100                    STQ     @ERRCODE+1,,AUTO
         1 000121   000007 236000 2                  LDQ     7
         1 000122   200255 756100                    STQ     I+2,,AUTO
         1 000123   001540 701000 1                  TSX1    BADRET
         1 000124   001537 702000 1                  TSX2    XIT

      672     5815    2   GOT_FEP:   MSG.FEPNO=KI$FEI.FEP#;

   5815  1 000125   200021 470500       GOT_FEP      LDP0    FEI$,,AUTO
         1 000126   000100 101500                    MRL     fill='000'O
         1 000127   000012 400001                    ADSC9   10,,PR0                  cn=2,n=1
         1 000130   200033 400004                    ADSC9   MSG+5,,AUTO              cn=2,n=4

      673     5816    2              DCB$->F$DCB.NAME.C='FEP';
PL6.E3A0      #003=TDP$OPEN File=TDP$PMME.:E05TSI                                WED 07/30/97 06:04 Page:125

   5816  1 000131   200004 471500                    LDP1    DCB$,,AUTO
         1 000132   040100 100400                    MLR     fill='040'O
         1 000133   000002 000003 0                  ADSC9   LEN+2                    cn=0,n=3
         1 000134   100010 200037                    ADSC9   8,,PR1                   cn=1,n=31

      674     5817    2              CALL BINCHAR(SUBSTR(DCB$->F$DCB.NAME.C,3,2),MSG.FEPNO);

   5817  1 000135   200033 235100                    LDA     MSG+5,,AUTO
         1 000136   200034 236100                    LDQ     MSG+6,,AUTO
         1 000137   000022 773000                    LRL     18
         1 000140   000000 235003                    LDA     0,DU
         1 000141   200260 757100                    STAQ    @SEV+2,,AUTO
         1 000142   000100 301500                    BTD
         1 000143   200260 000010                    NDSC9   @SEV+2,,AUTO             cn=0,s=lsgnf,sf=0,n=8
         1 000144   100011 030002                    NDSC9   9,,PR1                   cn=0,s=nosgn,sf=0,n=2

      675     5818    2              DCB$->F$DCB.NAME.L=5;

   5818  1 000145   005000 236003                    LDQ     2560,DU
         1 000146   100010 552140                    STBQ    8,'40'O,PR1

      676     5819    2              S$CU$->B$U.FLG.TDOPPERM=NI$DQH.STATUS.TDOK;

   5819  1 000147   000000 473400 xsym               LDP3    S$CU$
         1 000150   200006 474500                    LDP4    DQH$,,AUTO
         1 000151   400001 236100                    LDQ     1,,PR4
         1 000152   000006 772000                    QRL     6
         1 000153   300000 676100                    ERQ     0,,PR3
         1 000154   001000 376003                    ANQ     512,DU
         1 000155   300000 656100                    ERSQ    0,,PR3

      677     5820    2              IF  TDOPNV.TEST = %TD_TEST_MPC

   5820  1 000156   000000 471400 xsym               LDP1    B$PS0$
         1 000157   100002 236100                    LDQ     2,,PR1
         1 000160   770000 376003                    ANQ     -4096,DU
PL6.E3A0      #003=TDP$OPEN File=TDP$PMME.:E05TSI                                WED 07/30/97 06:04 Page:126
         1 000161   060000 116003                    CMPQ    24576,DU
         1 000162   000165 600000 1                  TZE     s:5823
         1 000163   100000 116003                    CMPQ    32768,DU
         1 000164   000305 601000 1                  TNZ     s:5850

      678     5821    2                OR TDOPNV.TEST = %TD_TEST_IPC
      679     5822    2              THEN                         /* Allow NDIC NFTS for DPS 8000       */
      680     5823    2                 RETURN ;

   5823  1 000165   000000 702200 xent               TSX2  ! X66_ARET

      681     5824    2              END;
      682     5825    2           ELSE DO;

      683     5826    2              IF  TDOPNV.TEST = %TD_TEST_ITR

   5826  1 000166   020000 116003                    CMPQ    8192,DU
         1 000167   000174 600000 1                  TZE     s:5830
         1 000170   060000 116003                    CMPQ    24576,DU
         1 000171   000174 600000 1                  TZE     s:5830
         1 000172   100000 116003                    CMPQ    32768,DU
         1 000173   000177 601000 1                  TNZ     s:5832

      684     5827    2                OR TDOPNV.TEST = %TD_TEST_MPC
      685     5828    2                OR TDOPNV.TEST = %TD_TEST_IPC
      686     5829    2              THEN
      687     5830    2                 MPCFLG = '1'B ;

   5830  1 000174   400000 236003                    LDQ     -131072,DU
         1 000175   200025 756100                    STQ     MPCFLG,,AUTO
         1 000176   000200 710000 1                  TRA     s:5833

      688     5831    2              ELSE
      689     5832    2                 MPCFLG = '0'B ;

   5832  1 000177   200025 450100                    STZ     MPCFLG,,AUTO

PL6.E3A0      #003=TDP$OPEN File=TDP$PMME.:E05TSI                                WED 07/30/97 06:04 Page:127
      690     5833    2              CALL TDU$FINDPATH ( TDOPNV.DEVICE, MPCFLG, DCT$, SQH$, DQH$, MPC$ )
              5833                       ALTRET ( TDNODEV ) ;

   5833  1 000200   200024 633500                    EPPR3   MPC$,,AUTO
         1 000201   200265 453500                    STP3    @SEV+7,,AUTO
         1 000202   200006 634500                    EPPR4   DQH$,,AUTO
         1 000203   200264 454500                    STP4    @SEV+6,,AUTO
         1 000204   200041 635500                    EPPR5   SQH$,,AUTO
         1 000205   200263 455500                    STP5    @SEV+5,,AUTO
         1 000206   200005 636500                    EPPR6   DCT$,,AUTO
         1 000207   200262 456500                    STP6    @SEV+4,,AUTO
         1 000210   200025 637500                    EPPR7   MPCFLG,,AUTO
         1 000211   200261 457500                    STP7    @SEV+3,,AUTO
         1 000212   000000 236000 xsym               LDQ     B$PS0$
         1 000213   400000 036007                    ADLQ    -131072,DL
         1 000214   200260 756100                    STQ     @SEV+2,,AUTO
         1 000215   200260 630500                    EPPR0   @SEV+2,,AUTO
         1 000216   000024 631400 xsym               EPPR1   B_VECTNIL+20
         1 000217   000000 701000 xent               TSX1    TDU$FINDPATH
         1 000220   001514 702000 1                  TSX2    TDNODEV

      691     5834    3              IF DCT$=ADDR(NIL) THEN DO;   /* FEP                                */

   5834  1 000221   200005 236100                    LDQ     DCT$,,AUTO
         1 000222   000001 116000 xsym               CMPQ    B_VECTNIL+1
         1 000223   000254 601000 1                  TNZ     s:5842

      692     5835    3                 FEI$=KI$FEI$(NI$DQH.FEX);

   5835  1 000224   200006 470500                    LDP0    DQH$,,AUTO
         1 000225   000001 236100                    LDQ     1,,PR0
         1 000226   000006 772000                    QRL     6
         1 000227   000077 376007                    ANQ     63,DL
         1 000230   000000 471400 xsym               LDP1    KI_FEI$$
         1 000231   100000 236106                    LDQ     0,QL,PR1
         1 000232   200021 756100                    STQ     FEI$,,AUTO

PL6.E3A0      #003=TDP$OPEN File=TDP$PMME.:E05TSI                                WED 07/30/97 06:04 Page:128
      693     5836    3                 IF KI$FEI.FEST = KIST_MASKED OR

   5836  1 000233   200021 473500                    LDP3    FEI$,,AUTO
         1 000234   300002 236100                    LDQ     2,,PR3
         1 000235   000777 376003                    ANQ     511,DU
         1 000236   000007 116003                    CMPQ    7,DU
         1 000237   000125 600000 1                  TZE     GOT_FEP
         1 000240   300002 236100                    LDQ     2,,PR3
         1 000241   000777 316003                    CANQ    511,DU
         1 000242   000246 601000 1                  TNZ     s:5840
         1 000243   300015 220100                    LDX0    13,,PR3
         1 000244   000016 100003                    CMPX0   14,DU
         1 000245   000125 600000 1                  TZE     GOT_FEP

      694     5837    3                   (KI$FEI.FEST = KIST_DN AND KI$FEI.PBST.PROB = KIER_PART) THEN
      695     5838    3                    GOTO GOT_FEP;
      696     5839    3                 ELSE
      697     5840    3                    CALL BADRET(%E$TDDEVBSY,4) ALTRET(XIT);

   5840  1 000246   000001 236000 2                  LDQ     1
         1 000247   200256 756100                    STQ     @ERRCODE+1,,AUTO
         1 000250   000011 236000 2                  LDQ     9
         1 000251   200255 756100                    STQ     I+2,,AUTO
         1 000252   001540 701000 1                  TSX1    BADRET
         1 000253   001537 702000 1                  TSX2    XIT

      698     5841    3                 END;

      699     5842    2              MSG.DEVNM=DCT$->DCT.DEVNM;

   5842  1 000254   200005 470500                    LDP0    DCT$,,AUTO
         1 000255   040100 100500                    MLR     fill='040'O
         1 000256   000002 000004                    ADSC9   2,,PR0                   cn=0,n=4
         1 000257   200033 400004                    ADSC9   MSG+5,,AUTO              cn=2,n=4

      700     5843    2              DCB$->F$DCB.NAME.C=DCT$->DCT.DEVNM;

PL6.E3A0      #003=TDP$OPEN File=TDP$PMME.:E05TSI                                WED 07/30/97 06:04 Page:129
   5843  1 000260   200004 471500                    LDP1    DCB$,,AUTO
         1 000261   040100 100500                    MLR     fill='040'O
         1 000262   000002 000010                    ADSC9   2,,PR0                   cn=0,n=8
         1 000263   100010 200037                    ADSC9   8,,PR1                   cn=1,n=31

      701     5844    2              DCB$->F$DCB.NAME.L=8;

   5844  1 000264   010000 236003                    LDQ     4096,DU
         1 000265   100010 552140                    STBQ    8,'40'O,PR1

      702     5845    2              IF DCT$->DCT.TDUSER#=B$JIT.USER THEN

   5845  1 000266   000000 473400 xsym               LDP3    B$JIT$
         1 000267   000027 236100                    LDQ     23,,PR0
         1 000270   300000 676100                    ERQ     0,,PR3
         1 000271   000777 376003                    ANQ     511,DU
         1 000272   000277 601000 1                  TNZ     s:5848

      703     5846    2                 S$CU$->B$U.FLG.TDOPPERM='1'B;

   5846  1 000273   000000 474400 xsym               LDP4    S$CU$
         1 000274   001000 236003                    LDQ     512,DU
         1 000275   400000 256100                    ORSQ    0,,PR4
         1 000276   000305 710000 1                  TRA     s:5850

      704     5847    2              ELSE
      705     5848    2                 S$CU$->B$U.FLG.TDOPPERM=DCT$->DCT.STATUS.TDOK;

   5848  1 000277   000000 474400 xsym               LDP4    S$CU$
         1 000300   000027 236100                    LDQ     23,,PR0
         1 000301   000007 772000                    QRL     7
         1 000302   400000 676100                    ERQ     0,,PR4
         1 000303   001000 376003                    ANQ     512,DU
         1 000304   400000 656100                    ERSQ    0,,PR4

      706     5849    2              END;

PL6.E3A0      #003=TDP$OPEN File=TDP$PMME.:E05TSI                                WED 07/30/97 06:04 Page:130
      707     5850    1           IF TDOPNV.TEST=%TD_TEST_DEVICE OR TDOPNV.TEST=%TD_TEST_MPC THEN RETURN;
              5850                    /* preopen */

   5850  1 000305   000000 470400 xsym               LDP0    B$PS0$
         1 000306   000002 236100                    LDQ     2,,PR0
         1 000307   770000 316003                    CANQ    -4096,DU
         1 000310   000315 600000 1                  TZE     s:5850+8
         1 000311   000002 236100                    LDQ     2,,PR0
         1 000312   770000 376003                    ANQ     -4096,DU
         1 000313   060000 116003                    CMPQ    24576,DU
         1 000314   000316 601000 1                  TNZ     s:5851

   5850  1 000315   000000 702200 xent               TSX2  ! X66_ARET

      708     5851    1           MSG.ACCT=B$JIT.ACCN;

   5851  1 000316   000000 471400 xsym               LDP1    B$JIT$
         1 000317   040100 100500                    MLR     fill='040'O
         1 000320   100001 000010                    ADSC9   1,,PR1                   cn=0,n=8
         1 000321   200026 000010                    ADSC9   MSG,,AUTO                cn=0,n=8

      709     5852    1           MSG.SYSID=B$JIT.SYSID;

   5852  1 000322   100000 720100                    LXL0    0,,PR1
         1 000323   200030 740100                    STX0    MSG+2,,AUTO

      710     5853    1           MSG.NAME=B$JIT.UNAME;

   5853  1 000324   040100 100500                    MLR     fill='040'O
         1 000325   100003 000014                    ADSC9   3,,PR1                   cn=0,n=12
         1 000326   200030 400014                    ADSC9   MSG+2,,AUTO              cn=2,n=12

      711     5854    1           MSG.TEST=TDOPNV.TEST;

   5854  1 000327   000100 101500                    MRL     fill='000'O
         1 000330   000002 020001                    ADSC6   2,,PR0                   cn=0,n=1
         1 000331   200034 320006                    ADSC6   MSG+6,,AUTO              cn=3,n=6
PL6.E3A0      #003=TDP$OPEN File=TDP$PMME.:E05TSI                                WED 07/30/97 06:04 Page:131

      712     5855    1           S$CU$->B$U.FLG.TDNOPERM = '0'B ;

   5855  1 000332   000000 473400 xsym               LDP3    S$CU$
         1 000333   000012 236000 2                  LDQ     10
         1 000334   300000 356100                    ANSQ    0,,PR3

      713     5856    1           IF  TDOPNV.TEST ~= %TD_TEST_MCA

   5856  1 000335   000000 470400 xsym               LDP0    B$PS0$
         1 000336   000002 236100                    LDQ     2,,PR0
         1 000337   770000 376003                    ANQ     -4096,DU
         1 000340   070000 116003                    CMPQ    28672,DU
         1 000341   000405 600000 1                  TZE     PATH
         1 000342   100000 116003                    CMPQ    32768,DU
         1 000343   000405 600000 1                  TZE     PATH

      714     5857    1             AND TDOPNV.TEST ~= %TD_TEST_IPC
      715     5858    1           THEN
      716     5859    2           DO  WHILE  ( NOT S$CU$->B$U.FLG.TDOPPERM ) ;

   5859  1 000344   000402 710000 1                  TRA     s:5865

      717     5860    2              IF  S$CU$->B$U.FLG.TDNOPERM

   5860  1 000345   000000 470400 xsym               LDP0    S$CU$
         1 000346   000000 236100                    LDQ     0,,PR0
         1 000347   000400 316003                    CANQ    256,DU
         1 000350   000357 600000 1                  TZE     s:5863

      718     5861    2              THEN
      719     5862    2                 CALL BADRET ( %E$TDNOPERM, 4 ) ALTRET ( XIT ) ;

   5862  1 000351   000001 236000 2                  LDQ     1
         1 000352   200256 756100                    STQ     @ERRCODE+1,,AUTO
         1 000353   000014 236000 2                  LDQ     12
         1 000354   200255 756100                    STQ     I+2,,AUTO
PL6.E3A0      #003=TDP$OPEN File=TDP$PMME.:E05TSI                                WED 07/30/97 06:04 Page:132
         1 000355   001540 701000 1                  TSX1    BADRET
         1 000356   001537 702000 1                  TSX2    XIT

      720     5863    2              CALL OCI$MK_WR ( M_SYS, DIAG_MSG#, 5, LEN, MSG ) ;

   5863  1 000357   200026 630500                    EPPR0   MSG,,AUTO
         1 000360   200264 450500                    STP0    @SEV+6,,AUTO
         1 000361   000020 237000 2                  LDAQ    16
         1 000362   200262 757100                    STAQ    @SEV+4,,AUTO
         1 000363   000022 237000 2                  LDAQ    18
         1 000364   200260 757100                    STAQ    @SEV+2,,AUTO
         1 000365   200260 630500                    EPPR0   @SEV+2,,AUTO
         1 000366   000023 631400 xsym               EPPR1   B_VECTNIL+19
         1 000367   000000 701000 xent               TSX1    OCI$MK_WR
         1 000370   000000 011000                    NOP     0

      721     5864    2              CALL SSR$REG ( %SS_SL, , 20 ) ALTRET ( BRKYC ) ;

   5864  1 000371   000025 236000 2                  LDQ     21
         1 000372   200262 756100                    STQ     @SEV+4,,AUTO
         1 000373   000001 236000 xsym               LDQ     B_VECTNIL+1
         1 000374   000026 235000 2                  LDA     22
         1 000375   200260 757100                    STAQ    @SEV+2,,AUTO
         1 000376   200260 630500                    EPPR0   @SEV+2,,AUTO
         1 000377   000021 631400 xsym               EPPR1   B_VECTNIL+17
         1 000400   000000 701000 xent               TSX1    SSR$REG
         1 000401   001506 702000 1                  TSX2    BRKYC

      722     5865    2              END ;

   5865  1 000402   000000 470400 xsym               LDP0    S$CU$
         1 000403   000000 430100                    FSZN    0,,PR0
         1 000404   000345 605000 1                  TPL     s:5860

      723     5866        /* VERIFY THAT THE PATH TO THE DEVICE IS AVAILABLE */
      724     5867    2   PATH:   DO CASE(TDOPNV.TEST);

PL6.E3A0      #003=TDP$OPEN File=TDP$PMME.:E05TSI                                WED 07/30/97 06:04 Page:133
   5867  1 000405   000000 470400 xsym  PATH         LDP0    B$PS0$
         1 000406   000002 236100                    LDQ     2,,PR0
         1 000407   000036 772000                    QRL     30
         1 000410   000011 116007                    CMPQ    9,DL
         1 000411   000413 602006 1                  TNC     PATH+6,QL
         1 000412   000757 710000 1                  TRA     s:5938
         1 000413   000757 710000 1                  TRA     s:5938
         1 000414   000424 710000 1                  TRA     s:5869
         1 000415   000434 710000 1                  TRA     s:5871
         1 000416   000555 710000 1                  TRA     s:5904
         1 000417   000623 710000 1                  TRA     s:5912
         1 000420   000652 710000 1                  TRA     s:5917
         1 000421   000757 710000 1                  TRA     s:5938
         1 000422   000655 710000 1                  TRA     s:5920
         1 000423   000720 710000 1                  TRA     s:5929

      725     5868    2            CASE(%TD_TEST_POLTS);

      726     5869    2              IF DCT$->DCT.TYPE=%DV_DP THEN CALL CHECK_SDSK;

   5869  1 000424   200005 471500                    LDP1    DCT$,,AUTO
         1 000425   100007 236100                    LDQ     7,,PR1
         1 000426   007700 376007                    ANQ     4032,DL
         1 000427   000600 116007                    CMPQ    384,DL
         1 000430   000765 601000 1                  TNZ     s:5940

   5869  1 000431   001561 701000 1                  TSX1    CHECK_SDSK
         1 000432   000000 011000                    NOP     0
         1 000433   000765 710000 1                  TRA     s:5940

      727     5870    2            CASE(%TD_TEST_ITR);

      728     5871    2              IF TDOPNV.DEVICE.DVN~=0 THEN CALL BADRET(%E$TDBADDVN,4) ALTRET(XIT);

   5871  1 000434   000000 236100                    LDQ     0,,PR0
         1 000435   770000 316007                    CANQ    -4096,DL
         1 000436   000445 600000 1                  TZE     s:5872
PL6.E3A0      #003=TDP$OPEN File=TDP$PMME.:E05TSI                                WED 07/30/97 06:04 Page:134

   5871  1 000437   000001 236000 2                  LDQ     1
         1 000440   200256 756100                    STQ     @ERRCODE+1,,AUTO
         1 000441   000030 236000 2                  LDQ     24
         1 000442   200255 756100                    STQ     I+2,,AUTO
         1 000443   001540 701000 1                  TSX1    BADRET
         1 000444   001537 702000 1                  TSX2    XIT

      729     5872    2              IF MPC$->DCT.STATUS.TND~=0

   5872  1 000445   200024 470500                    LDP0    MPC$,,AUTO
         1 000446   000027 236100                    LDQ     23,,PR0
         1 000447   170000 316003                    CANQ    61440,DU
         1 000450   000454 601000 1                  TNZ     s:5873
         1 000451   000006 236100                    LDQ     6,,PR0
         1 000452   000400 316007                    CANQ    256,DL
         1 000453   000462 600000 1                  TZE     s:5874

      730     5873    2                OR MPC$->DCT.DFLG.MPCBUSY THEN CALL BADRET(%E$TDMPCBSY,4) ALTRET(XIT);

   5873  1 000454   000001 236000 2                  LDQ     1
         1 000455   200256 756100                    STQ     @ERRCODE+1,,AUTO
         1 000456   000032 236000 2                  LDQ     26
         1 000457   200255 756100                    STQ     I+2,,AUTO
         1 000460   001540 701000 1                  TSX1    BADRET
         1 000461   001537 702000 1                  TSX2    XIT

      731     5874    2              X=DCT$->DCT.DCTX;

   5874  1 000462   200005 470500                    LDP0    DCT$,,AUTO
         1 000463   000006 236100                    LDQ     6,,PR0
         1 000464   000025 772000                    QRL     21
         1 000465   200250 756100                    STQ     X,,AUTO

      732     5875    2              IF  DCT$->DCT.MPC.TYPE=%DV_DP

   5875  1 000466   000035 236100                    LDQ     29,,PR0
PL6.E3A0      #003=TDP$OPEN File=TDP$PMME.:E05TSI                                WED 07/30/97 06:04 Page:135
         1 000467   777000 376003                    ANQ     -512,DU
         1 000470   006000 116003                    CMPQ    3072,DU
         1 000471   000765 601000 1                  TNZ     s:5940

      733     5876    3              THEN DO ;

      734     5877    3                 PATH = '0'B ;

   5877  1 000472   200037 450100                    STZ     PATH,,AUTO

      735     5878    3                 IF  DCT$->DCT.STATUS.DOWN

   5878  1 000473   000027 234100                    SZN     23,,PR0
         1 000474   000507 604000 1                  TMI     s:5884
         1 000475   000027 236100                    LDQ     23,,PR0
         1 000476   004000 316003                    CANQ    2048,DU
         1 000477   000507 601000 1                  TNZ     s:5884
         1 000500   002000 316003                    CANQ    1024,DU
         1 000501   000507 601000 1                  TNZ     s:5884
         1 000502   000006 236100                    LDQ     6,,PR0
         1 000503   002000 316007                    CANQ    1024,DL
         1 000504   000507 601000 1                  TNZ     s:5884
         1 000505   001000 316007                    CANQ    512,DL
         1 000506   000511 600000 1                  TZE     s:5885

      736     5879    3                   OR DCT$->DCT.STATUS.SYSCON_PART
      737     5880    3                   OR DCT$->DCT.STATUS.MSOS_PART
      738     5881    3                   OR DCT$->DCT.DFLG.MPCSUSPENDED
      739     5882    3                   OR DCT$->DCT.DFLG.MPCSTOP
      740     5883    3                 THEN
      741     5884    3                    PATH = '1'B ;

   5884  1 000507   400000 236003                    LDQ     -131072,DU
         1 000510   200037 756100                    STQ     PATH,,AUTO

      742     5885    4                 DO  I = 0 TO %N_MPCSPERSQHM1 ;

PL6.E3A0      #003=TDP$OPEN File=TDP$PMME.:E05TSI                                WED 07/30/97 06:04 Page:136
   5885  1 000511   200023 450100                    STZ     I,,AUTO

      743     5886    4                    IF  NI$SQH.MPC$(I) ~= DCT$

   5886  1 000512   200041 470500                    LDP0    SQH$,,AUTO
         1 000513   200023 720100                    LXL0    I,,AUTO
         1 000514   000005 236110                    LDQ     5,X0,PR0
         1 000515   200005 116100                    CMPQ    DCT$,,AUTO
         1 000516   000540 600000 1                  TZE     s:5898
         1 000517   000001 116000 xsym               CMPQ    B_VECTNIL+1
         1 000520   000540 600000 1                  TZE     s:5898

      744     5887    4                      AND NI$SQH.MPC$(I) ~= ADDR(NIL)
      745     5888    4                    THEN
      746     5889    4                       IF  NI$SQH.MPC$(I)->DCT.STATUS.DOWN

   5889  1 000521   000005 471510                    LDP1    5,X0,PR0
         1 000522   100027 234100                    SZN     23,,PR1
         1 000523   000540 604000 1                  TMI     s:5898
         1 000524   100027 236100                    LDQ     23,,PR1
         1 000525   004000 316003                    CANQ    2048,DU
         1 000526   000540 601000 1                  TNZ     s:5898
         1 000527   002000 316003                    CANQ    1024,DU
         1 000530   000540 601000 1                  TNZ     s:5898
         1 000531   100006 236100                    LDQ     6,,PR1
         1 000532   002000 316007                    CANQ    1024,DL
         1 000533   000540 601000 1                  TNZ     s:5898
         1 000534   001000 316007                    CANQ    512,DL
         1 000535   000540 601000 1                  TNZ     s:5898

      747     5890    4                         OR  NI$SQH.MPC$(I)->DCT.STATUS.SYSCON_PART
      748     5891    4                         OR  NI$SQH.MPC$(I)->DCT.STATUS.MSOS_PART
      749     5892    4                         OR  NI$SQH.MPC$(I)->DCT.DFLG.MPCSUSPENDED
      750     5893    4                         OR  NI$SQH.MPC$(I)->DCT.DFLG.MPCSTOP
      751     5894    4                       THEN
      752     5895    4                          ;
      753     5896    4                       ELSE
PL6.E3A0      #003=TDP$OPEN File=TDP$PMME.:E05TSI                                WED 07/30/97 06:04 Page:137
      754     5897    4                          PATH = '1'B ;

   5897  1 000536   400000 236003                    LDQ     -131072,DU
         1 000537   200037 756100                    STQ     PATH,,AUTO

      755     5898    4                    END ;

   5898  1 000540   200023 054100                    AOS     I,,AUTO
         1 000541   200023 235100                    LDA     I,,AUTO
         1 000542   000001 115007                    CMPA    1,DL
         1 000543   000512 604400 1                  TMOZ    s:5886

      756     5899    3                 IF  NOT PATH

   5899  1 000544   200037 234100                    SZN     PATH,,AUTO
         1 000545   000765 604000 1                  TMI     s:5940

      757     5900    3                 THEN
      758     5901    3                    CALL BADRET ( %E$TDMPCBSY, 4 ) ALTRET ( XIT ) ;

   5901  1 000546   000001 236000 2                  LDQ     1
         1 000547   200256 756100                    STQ     @ERRCODE+1,,AUTO
         1 000550   000032 236000 2                  LDQ     26
         1 000551   200255 756100                    STQ     I+2,,AUTO
         1 000552   001540 701000 1                  TSX1    BADRET
         1 000553   001537 702000 1                  TSX2    XIT

      759     5902    3                 END ;

   5902  1 000554   000765 710000 1                  TRA     s:5940

      760     5903    2            CASE(%TD_TEST_MDR);

      761     5904    2              IF MPC$->DCT.STATUS.TND~=0 THEN CALL BADRET(%E$TDMPCBSY,4) ALTRET(XIT);

   5904  1 000555   200024 471500                    LDP1    MPC$,,AUTO
         1 000556   100027 236100                    LDQ     23,,PR1
PL6.E3A0      #003=TDP$OPEN File=TDP$PMME.:E05TSI                                WED 07/30/97 06:04 Page:138
         1 000557   170000 316003                    CANQ    61440,DU
         1 000560   000567 600000 1                  TZE     s:5905

   5904  1 000561   000001 236000 2                  LDQ     1
         1 000562   200256 756100                    STQ     @ERRCODE+1,,AUTO
         1 000563   000032 236000 2                  LDQ     26
         1 000564   200255 756100                    STQ     I+2,,AUTO
         1 000565   001540 701000 1                  TSX1    BADRET
         1 000566   001537 702000 1                  TSX2    XIT

      762     5905    2              IF MPC$->DCT.DFLG.MPCBUSY THEN CALL BADRET(%E$TDMPCBSY,4) ALTRET(XIT);

   5905  1 000567   200024 470500                    LDP0    MPC$,,AUTO
         1 000570   000006 236100                    LDQ     6,,PR0
         1 000571   000400 316007                    CANQ    256,DL
         1 000572   000601 600000 1                  TZE     s:5906

   5905  1 000573   000001 236000 2                  LDQ     1
         1 000574   200256 756100                    STQ     @ERRCODE+1,,AUTO
         1 000575   000032 236000 2                  LDQ     26
         1 000576   200255 756100                    STQ     I+2,,AUTO
         1 000577   001540 701000 1                  TSX1    BADRET
         1 000600   001537 702000 1                  TSX2    XIT

      763     5906    2              IF NI$DQH.STATUS.DOWN THEN CALL BADRET(%E$TDCHANDOWN,4) ALTRET(XIT);

   5906  1 000601   200006 470500                    LDP0    DQH$,,AUTO
         1 000602   000001 236100                    LDQ     1,,PR0
         1 000603   200000 316003                    CANQ    65536,DU
         1 000604   000613 600000 1                  TZE     s:5910

   5906  1 000605   000001 236000 2                  LDQ     1
         1 000606   200256 756100                    STQ     @ERRCODE+1,,AUTO
         1 000607   000034 236000 2                  LDQ     28
         1 000610   200255 756100                    STQ     I+2,,AUTO
         1 000611   001540 701000 1                  TSX1    BADRET
         1 000612   001537 702000 1                  TSX2    XIT
PL6.E3A0      #003=TDP$OPEN File=TDP$PMME.:E05TSI                                WED 07/30/97 06:04 Page:139

      764     5907        /*E*    ERROR:  TDP-E$TDCHANDOWN
      765     5908                MESSAGE: Cannot run MDR through partitioned channel.
      766     5909                                                                           */
      767     5910    2              IF DCT$->DCT.TYPE=%DV_DP THEN CALL CHECK_SDSK;

   5910  1 000613   200005 470500                    LDP0    DCT$,,AUTO
         1 000614   000007 236100                    LDQ     7,,PR0
         1 000615   007700 376007                    ANQ     4032,DL
         1 000616   000600 116007                    CMPQ    384,DL
         1 000617   000765 601000 1                  TNZ     s:5940

   5910  1 000620   001561 701000 1                  TSX1    CHECK_SDSK
         1 000621   000000 011000                    NOP     0
         1 000622   000765 710000 1                  TRA     s:5940

      768     5911    2            CASE(%TD_TEST_MTAR);

      769     5912    2              IF DCT$->DCT.TYPE~=%DV_DP THEN CALL BADRET(%E$TDNODEV,4) ALTRET(XIT);

   5912  1 000623   200005 471500                    LDP1    DCT$,,AUTO
         1 000624   100007 236100                    LDQ     7,,PR1
         1 000625   007700 376007                    ANQ     4032,DL
         1 000626   000600 116007                    CMPQ    384,DL
         1 000627   000636 600000 1                  TZE     s:5913

   5912  1 000630   000001 236000 2                  LDQ     1
         1 000631   200256 756100                    STQ     @ERRCODE+1,,AUTO
         1 000632   000007 236000 2                  LDQ     7
         1 000633   200255 756100                    STQ     I+2,,AUTO
         1 000634   001540 701000 1                  TSX1    BADRET
         1 000635   001537 702000 1                  TSX2    XIT

      770     5913    2              IF NOT DCT$->DCT.STATUS.DOWN THEN

   5913  1 000636   200005 470500                    LDP0    DCT$,,AUTO
         1 000637   000027 234100                    SZN     23,,PR0
PL6.E3A0      #003=TDP$OPEN File=TDP$PMME.:E05TSI                                WED 07/30/97 06:04 Page:140
         1 000640   000647 604000 1                  TMI     s:5915

      771     5914    2                 CALL BADRET(%E$TDDEVBSY,4) ALTRET(XIT);

   5914  1 000641   000001 236000 2                  LDQ     1
         1 000642   200256 756100                    STQ     @ERRCODE+1,,AUTO
         1 000643   000011 236000 2                  LDQ     9
         1 000644   200255 756100                    STQ     I+2,,AUTO
         1 000645   001540 701000 1                  TSX1    BADRET
         1 000646   001537 702000 1                  TSX2    XIT

      772     5915    2              CALL CHECK_SDSK ALTRET(TDNODEV);

   5915  1 000647   001561 701000 1                  TSX1    CHECK_SDSK
         1 000650   001514 702000 1                  TSX2    TDNODEV
         1 000651   000765 710000 1                  TRA     s:5940

      773     5916    2            CASE(%TD_TEST_FEP);

      774     5917    2              CALL OPEN_FEP;

   5917  1 000652   001744 701000 1                  TSX1    OPEN_FEP
         1 000653   000000 011000                    NOP     0

      775     5918    2              RETURN;

   5918  1 000654   000000 702200 xent               TSX2  ! X66_ARET

      776     5919    2            CASE(%TD_TEST_MCA);

      777     5920    2             IF DCT$->DCT.TYPE ~= %DV_MCA THEN CALL BADRET(%E$TDNOTMCA,4) ALTRET(XIT);

   5920  1 000655   200005 471500                    LDP1    DCT$,,AUTO
         1 000656   100007 236100                    LDQ     7,,PR1
         1 000657   007700 376007                    ANQ     4032,DL
         1 000660   001200 116007                    CMPQ    640,DL
         1 000661   000670 600000 1                  TZE     s:5921
PL6.E3A0      #003=TDP$OPEN File=TDP$PMME.:E05TSI                                WED 07/30/97 06:04 Page:141

   5920  1 000662   000001 236000 2                  LDQ     1
         1 000663   200256 756100                    STQ     @ERRCODE+1,,AUTO
         1 000664   000036 236000 2                  LDQ     30
         1 000665   200255 756100                    STQ     I+2,,AUTO
         1 000666   001540 701000 1                  TSX1    BADRET
         1 000667   001537 702000 1                  TSX2    XIT

      778     5921    2              IF NI$DQH.STATUS.DOWN THEN CALL BADRET(%E$TDCHANDOWN,4) ALTRET(XIT);

   5921  1 000670   200006 470500                    LDP0    DQH$,,AUTO
         1 000671   000001 236100                    LDQ     1,,PR0
         1 000672   200000 316003                    CANQ    65536,DU
         1 000673   000702 600000 1                  TZE     s:5923

   5921  1 000674   000001 236000 2                  LDQ     1
         1 000675   200256 756100                    STQ     @ERRCODE+1,,AUTO
         1 000676   000034 236000 2                  LDQ     28
         1 000677   200255 756100                    STQ     I+2,,AUTO
         1 000700   001540 701000 1                  TSX1    BADRET
         1 000701   001537 702000 1                  TSX2    XIT

      779     5922                   %LOCK(G#=NI$SQH.GATE);

   5923  1 000702   200041 630500                    EPPR0   SQH$,,AUTO
         1 000703   000017 631400 xsym               EPPR1   B_VECTNIL+15
         1 000704   000000 701000 xent               TSX1    HFC$LOCK
         1 000705   000000 011000                    NOP     0

      780     5925    2              IF  DCT$->DCT.MCA.RESERVED

   5925  1 000706   200005 470500                    LDP0    DCT$,,AUTO
         1 000707   000030 234100                    SZN     24,,PR0
         1 000710   000765 605000 1                  TPL     s:5940

      781     5926    2              THEN
      782     5927    2                 CALL BADRET(%E$TDMCABUSY,4) ALTRET(MCA_UNLK);
PL6.E3A0      #003=TDP$OPEN File=TDP$PMME.:E05TSI                                WED 07/30/97 06:04 Page:142

   5927  1 000711   000001 236000 2                  LDQ     1
         1 000712   200256 756100                    STQ     @ERRCODE+1,,AUTO
         1 000713   000040 236000 2                  LDQ     32
         1 000714   200255 756100                    STQ     I+2,,AUTO
         1 000715   001540 701000 1                  TSX1    BADRET
         1 000716   001526 702000 1                  TSX2    MCA_UNLK
         1 000717   000765 710000 1                  TRA     s:5940

      783     5928    2            CASE ( %TD_TEST_IPC ) ;

      784     5929    3              DO  I = 0 TO TDOPNV.NCHANS-1 ;

   5929  1 000720   200023 450100                    STZ     I,,AUTO
         1 000721   000750 710000 1                  TRA     s:5936+1

      785     5930    3                 P$ = NI$CHT.DQH$(NI$DQH.IOCHANX+I) ;

   5930  1 000722   200006 470500                    LDP0    DQH$,,AUTO
         1 000723   000001 236100                    LDQ     1,,PR0
         1 000724   000022 772000                    QRL     18
         1 000725   000777 376007                    ANQ     511,DL
         1 000726   200023 036100                    ADLQ    I,,AUTO
         1 000727   000001 736000                    QLS     1
         1 000730   000000 471400 xsym               LDP1    NI$CHT$
         1 000731   100000 236106                    LDQ     0,QL,PR1
         1 000732   200036 756100                    STQ     P$,,AUTO

      786     5931    3                 IF  P$ ~= ADDR(NIL)

   5931  1 000733   000001 116000 xsym               CMPQ    B_VECTNIL+1
         1 000734   000747 600000 1                  TZE     s:5936

      787     5932    3                 THEN
      788     5933    3                    IF  NOT  P$->NI$DQH.STATUS.DOWN

   5933  1 000735   200036 473500                    LDP3    P$,,AUTO
PL6.E3A0      #003=TDP$OPEN File=TDP$PMME.:E05TSI                                WED 07/30/97 06:04 Page:143
         1 000736   300001 236100                    LDQ     1,,PR3
         1 000737   200000 316003                    CANQ    65536,DU
         1 000740   000747 601000 1                  TNZ     s:5936

      789     5934    3                    THEN
      790     5935    3                       CALL BADRET ( %E$TDDEVBSY, 4 ) ALTRET ( XIT ) ;

   5935  1 000741   000001 236000 2                  LDQ     1
         1 000742   200256 756100                    STQ     @ERRCODE+1,,AUTO
         1 000743   000011 236000 2                  LDQ     9
         1 000744   200255 756100                    STQ     I+2,,AUTO
         1 000745   001540 701000 1                  TSX1    BADRET
         1 000746   001537 702000 1                  TSX2    XIT

      791     5936    3                 END ;

   5936  1 000747   200023 054100                    AOS     I,,AUTO
         1 000750   000000 470400 xsym               LDP0    B$PS0$
         1 000751   000002 236100                    LDQ     2,,PR0
         1 000752   000030 772000                    QRL     24
         1 000753   000077 376007                    ANQ     63,DL
         1 000754   200023 116100                    CMPQ    I,,AUTO
         1 000755   000722 605400 1                  TPNZ    s:5930
         1 000756   000765 710000 1                  TRA     s:5940

      792     5937    2            CASE(ELSE);

      793     5938    2              CALL BADRET(%E$TDNOTEST,4) ALTRET(XIT);

   5938  1 000757   000001 236000 2                  LDQ     1
         1 000760   200256 756100                    STQ     @ERRCODE+1,,AUTO
         1 000761   000042 236000 2                  LDQ     34
         1 000762   200255 756100                    STQ     I+2,,AUTO
         1 000763   001540 701000 1                  TSX1    BADRET
         1 000764   001537 702000 1                  TSX2    XIT

      794     5939    2            END;                           /* CASE TDOPNV.TEST                   */
PL6.E3A0      #003=TDP$OPEN File=TDP$PMME.:E05TSI                                WED 07/30/97 06:04 Page:144

      795     5940    2           DO CASE(DCT.TYPE);

   5940  1 000765   200005 470500                    LDP0    DCT$,,AUTO
         1 000766   000007 236100                    LDQ     7,,PR0
         1 000767   000006 772000                    QRL     6
         1 000770   000077 376007                    ANQ     63,DL
         1 000771   000007 116007                    CMPQ    7,DL
         1 000772   000774 602006 1                  TNC     s:5940+7,QL
         1 000773   001044 710000 1                  TRA     s:5954
         1 000774   001044 710000 1                  TRA     s:5954
         1 000775   001003 710000 1                  TRA     s:5942
         1 000776   001003 710000 1                  TRA     s:5942
         1 000777   001003 710000 1                  TRA     s:5942
         1 001000   001003 710000 1                  TRA     s:5942
         1 001001   001044 710000 1                  TRA     s:5954
         1 001002   001017 710000 1                  TRA     s:5945

      796     5941    2            CASE(%DV_CR,%DV_CP,%DV_LP,%DV_MT);

      797     5942    2              IF NOT DCT.STATUS.DOWN AND NOT DCT.STATUS.TDOK THEN

   5942  1 001003   000027 234100                    SZN     23,,PR0
         1 001004   001044 604000 1                  TMI     s:5954
         1 001005   000027 236100                    LDQ     23,,PR0
         1 001006   200000 316003                    CANQ    65536,DU
         1 001007   001044 601000 1                  TNZ     s:5954

      798     5943    2                 CALL BADRET(%E$TDDEVBSY,4) ALTRET(XIT);

   5943  1 001010   000001 236000 2                  LDQ     1
         1 001011   200256 756100                    STQ     @ERRCODE+1,,AUTO
         1 001012   000011 236000 2                  LDQ     9
         1 001013   200255 756100                    STQ     I+2,,AUTO
         1 001014   001540 701000 1                  TSX1    BADRET
         1 001015   001537 702000 1                  TSX2    XIT
         1 001016   001044 710000 1                  TRA     s:5954
PL6.E3A0      #003=TDP$OPEN File=TDP$PMME.:E05TSI                                WED 07/30/97 06:04 Page:145

      799     5944    2            CASE(%DV_DP);

      800     5945    2              IF  TDOPNV.TEST ~= %TD_TEST_POLTS

   5945  1 001017   000000 471400 xsym               LDP1    B$PS0$
         1 001020   100002 236100                    LDQ     2,,PR1
         1 001021   770000 376003                    ANQ     -4096,DU
         1 001022   010000 116003                    CMPQ    4096,DU
         1 001023   001044 600000 1                  TZE     s:5954
         1 001024   030000 116003                    CMPQ    12288,DU
         1 001025   001044 600000 1                  TZE     s:5954
         1 001026   000027 234100                    SZN     23,,PR0
         1 001027   001044 604000 1                  TMI     s:5954
         1 001030   000005 473500                    LDP3    5,,PR0
         1 001031   300001 220100                    LDX0    1,,PR3
         1 001032   000001 100003                    CMPX0   1,DU
         1 001033   001036 600000 1                  TZE     s:5951
         1 001034   000007 100003                    CMPX0   7,DU
         1 001035   001044 601000 1                  TNZ     s:5954

      801     5946    2                AND TDOPNV.TEST ~= %TD_TEST_MDR
      802     5947    2                AND NOT DCT.STATUS.DOWN
      803     5948    2                AND (  DCT.RAT$->FR$RAT.RES.SISID = JG_SLUG#
      804     5949    2                OR  DCT.RAT$->FR$RAT.RES.SISID = JG_PIG#       )
      805     5950    2              THEN
      806     5951    2                 CALL BADRET ( %E$TDDEVBSY, 4 ) ALTRET ( XIT ) ;

   5951  1 001036   000001 236000 2                  LDQ     1
         1 001037   200256 756100                    STQ     @ERRCODE+1,,AUTO
         1 001040   000011 236000 2                  LDQ     9
         1 001041   200255 756100                    STQ     I+2,,AUTO
         1 001042   001540 701000 1                  TSX1    BADRET
         1 001043   001537 702000 1                  TSX2    XIT

      807     5952    2            END;                           /* CASE NI$DVT$(DCT.DVTX)->DVT.TYPE   */

PL6.E3A0      #003=TDP$OPEN File=TDP$PMME.:E05TSI                                WED 07/30/97 06:04 Page:146
      808     5953                %LOCK (G#=TD_OPENGATE);

   5954  1 001044   000043 630400 2                  EPPR0   35
         1 001045   000017 631400 xsym               EPPR1   B_VECTNIL+15
         1 001046   000000 701000 xent               TSX1    HFC$LOCK
         1 001047   000000 011000                    NOP     0

      809     5956    1           IF DCT$->DCT.STATUS.TND=0 THEN DCT$->DCT.STATUS.TND=TDOPNV.TEST;

   5956  1 001050   200005 470500                    LDP0    DCT$,,AUTO
         1 001051   000027 236100                    LDQ     23,,PR0
         1 001052   170000 316003                    CANQ    61440,DU
         1 001053   001062 601000 1                  TNZ     s:5957

   5956  1 001054   000000 471400 xsym               LDP1    B$PS0$
         1 001055   100002 236100                    LDQ     2,,PR1
         1 001056   000027 676100                    ERQ     23,,PR0
         1 001057   170000 376003                    ANQ     61440,DU
         1 001060   000027 656100                    ERSQ    23,,PR0
         1 001061   001070 710000 1                  TRA     s:5959

      810     5957    1           ELSE CALL BADRET(%E$TDDEVBSY,4) ALTRET(UNLOCK);

   5957  1 001062   000001 236000 2                  LDQ     1
         1 001063   200256 756100                    STQ     @ERRCODE+1,,AUTO
         1 001064   000011 236000 2                  LDQ     9
         1 001065   200255 756100                    STQ     I+2,,AUTO
         1 001066   001540 701000 1                  TSX1    BADRET
         1 001067   001522 702000 1                  TSX2    UNLOCK

      811     5958                %UNLOCK (G#=TD_OPENGATE);

   5959  1 001070   000043 630400 2                  EPPR0   35
         1 001071   000017 631400 xsym               EPPR1   B_VECTNIL+15
         1 001072   000000 701000 xent               TSX1    HFC$UNLOCK
         1 001073   000000 011000                    NOP     0

PL6.E3A0      #003=TDP$OPEN File=TDP$PMME.:E05TSI                                WED 07/30/97 06:04 Page:147
      812     5961        /**/
      813     5962        /* MODIFY I/O TABLES */
      814     5963        /**/
      815     5964    1           DCT.STATUS.TND=TDOPNV.TEST;

   5964  1 001074   000000 470400 xsym               LDP0    B$PS0$
         1 001075   200005 471500                    LDP1    DCT$,,AUTO
         1 001076   000002 236100                    LDQ     2,,PR0
         1 001077   100027 676100                    ERQ     23,,PR1
         1 001100   170000 376003                    ANQ     61440,DU
         1 001101   100027 656100                    ERSQ    23,,PR1

      816     5965    1           DCT.SPEVENT=TDOPNV.SPEVENT;

   5965  1 001102   000001 235100                    LDA     1,,PR0
         1 001103   100025 755100                    STA     21,,PR1

      817     5966    1           DCT.TDUSER#=B$JIT.USER;

   5966  1 001104   000000 473400 xsym               LDP3    B$JIT$
         1 001105   300000 236100                    LDQ     0,,PR3
         1 001106   100027 552120                    STBQ    23,'20'O,PR1

      818     5967    2           DO CASE(TDOPNV.TEST);

   5967  1 001107   000002 236100                    LDQ     2,,PR0
         1 001110   000036 772000                    QRL     30
         1 001111   000010 116007                    CMPQ    8,DL
         1 001112   001114 602006 1                  TNC     s:5967+5,QL
         1 001113   001275 710000 1                  TRA     s:6012
         1 001114   001275 710000 1                  TRA     s:6012
         1 001115   001275 710000 1                  TRA     s:6012
         1 001116   001240 710000 1                  TRA     s:6000
         1 001117   001124 710000 1                  TRA     s:5969
         1 001120   001275 710000 1                  TRA     s:6012
         1 001121   001275 710000 1                  TRA     s:6012
         1 001122   001275 710000 1                  TRA     s:6012
PL6.E3A0      #003=TDP$OPEN File=TDP$PMME.:E05TSI                                WED 07/30/97 06:04 Page:148
         1 001123   001262 710000 1                  TRA     s:6004

      819     5968    2            CASE(%TD_TEST_MDR);

      820     5969    2              MPC$->DCT.STATUS.TND=%TD_TEST_MDR;

   5969  1 001124   200024 474500                    LDP4    MPC$,,AUTO
         1 001125   400027 236100                    LDQ     23,,PR4
         1 001126   000044 376000 2                  ANQ     36
         1 001127   030000 276003                    ORQ     12288,DU
         1 001130   400027 756100                    STQ     23,,PR4

      821     5970                                     /* WHILE RUNNING THE MDR THROUGH THIS
      822     5971                                        MPC, MAKE IO THROUGH THE MPC BE
      823     5972                                        SINGLE STREAM ON THE CHANNEL THE
      824     5973                                        MDR IS USING                       */
      825     5974    3              DO I=0 TO 1;

   5974  1 001131   200023 450100                    STZ     I,,AUTO

      826     5975    4                 IF NI$SQH.MPC$(I)=MPC$ THEN DO;

   5975  1 001132   200041 470500                    LDP0    SQH$,,AUTO
         1 001133   200023 720100                    LXL0    I,,AUTO
         1 001134   000005 236110                    LDQ     5,X0,PR0
         1 001135   200024 116100                    CMPQ    MPC$,,AUTO
         1 001136   001164 601000 1                  TNZ     s:5981

      827     5976    4                    CALL NIW$MPCSTOP(NI$SQH.MPC$(I)->DCT);

   5976  1 001137   000005 471510                    LDP1    5,X0,PR0
         1 001140   200260 451500                    STP1    @SEV+2,,AUTO
         1 001141   200260 630500                    EPPR0   @SEV+2,,AUTO
         1 001142   000017 631400 xsym               EPPR1   B_VECTNIL+15
         1 001143   000000 701000 xent               TSX1    NIW$MPCSTOP
         1 001144   000000 011000                    NOP     0

PL6.E3A0      #003=TDP$OPEN File=TDP$PMME.:E05TSI                                WED 07/30/97 06:04 Page:149
      828     5977    5                    IF NI$SQH.MPC$(I)->DCT.MPC.ALTMPCX~=0 THEN DO;

   5977  1 001145   200041 470500                    LDP0    SQH$,,AUTO
         1 001146   200023 720100                    LXL0    I,,AUTO
         1 001147   000005 471510                    LDP1    5,X0,PR0
         1 001150   100035 236100                    LDQ     29,,PR1
         1 001151   000777 316007                    CANQ    511,DL
         1 001152   001164 600000 1                  TZE     s:5981

      829     5978    5                       CALL NIW$MPCSTOP(N$DCT$(NI$SQH.MPC$(I)->DCT.MPC.ALTMPCX)->DCT);

   5978  1 001153   100035 721100                    LXL1    29,,PR1
         1 001154   000777 361003                    ANX1    511,DU
         1 001155   000000 473400 xsym               LDP3    N$DCT$$
         1 001156   300000 474511                    LDP4    0,X1,PR3
         1 001157   200260 454500                    STP4    @SEV+2,,AUTO
         1 001160   200260 630500                    EPPR0   @SEV+2,,AUTO
         1 001161   000017 631400 xsym               EPPR1   B_VECTNIL+15
         1 001162   000000 701000 xent               TSX1    NIW$MPCSTOP
         1 001163   000000 011000                    NOP     0

      830     5979    5                       END;

      831     5980    4                    END;

      832     5981    3                 END;

   5981  1 001164   200023 054100                    AOS     I,,AUTO
         1 001165   200023 235100                    LDA     I,,AUTO
         1 001166   000001 115007                    CMPA    1,DL
         1 001167   001132 604400 1                  TMOZ    s:5975

      833     5982    3              DO WHILE(NOT MPC$->DCT.DFLG.MPCSTOP);

   5982  1 001170   001202 710000 1                  TRA     s:5984

      834     5983    3                 CALL SSR$REG(%SS_SL,,1);
PL6.E3A0      #003=TDP$OPEN File=TDP$PMME.:E05TSI                                WED 07/30/97 06:04 Page:150

   5983  1 001171   000045 236000 2                  LDQ     37
         1 001172   200262 756100                    STQ     @SEV+4,,AUTO
         1 001173   000001 236000 xsym               LDQ     B_VECTNIL+1
         1 001174   000026 235000 2                  LDA     22
         1 001175   200260 757100                    STAQ    @SEV+2,,AUTO
         1 001176   200260 630500                    EPPR0   @SEV+2,,AUTO
         1 001177   000021 631400 xsym               EPPR1   B_VECTNIL+17
         1 001200   000000 701000 xent               TSX1    SSR$REG
         1 001201   000000 011000                    NOP     0

      835     5984    3                 END;

   5984  1 001202   200024 470500                    LDP0    MPC$,,AUTO
         1 001203   000006 236100                    LDQ     6,,PR0
         1 001204   001000 316007                    CANQ    512,DL
         1 001205   001171 600000 1                  TZE     s:5983

      836     5985                   %LOCK (G#=NI$SQH.GATE);

   5986  1 001206   200041 630500                    EPPR0   SQH$,,AUTO
         1 001207   000017 631400 xsym               EPPR1   B_VECTNIL+15
         1 001210   000000 701000 xent               TSX1    HFC$LOCK
         1 001211   000000 011000                    NOP     0

      837     5988    2              MPC$->DCT.DFLG.MPCSTOP='0'B;

   5988  1 001212   200024 470500                    LDP0    MPC$,,AUTO
         1 001213   000046 236000 2                  LDQ     38
         1 001214   000006 356100                    ANSQ    6,,PR0

      838     5989    3              IF NOT NI$DQH.STATUS.DOWN THEN DO;

   5989  1 001215   200006 470500                    LDP0    DQH$,,AUTO
         1 001216   000001 236100                    LDQ     1,,PR0
         1 001217   200000 316003                    CANQ    65536,DU
         1 001220   001233 601000 1                  TNZ     s:5996
PL6.E3A0      #003=TDP$OPEN File=TDP$PMME.:E05TSI                                WED 07/30/97 06:04 Page:151

      839     5990    3                 NI$DQH.CHANSTATE.STOP='0'B;

   5990  1 001221   000031 236000 xsym               LDQ     B_VECTNIL+25
         1 001222   000020 356100                    ANSQ    16,,PR0

      840     5991                      %ENQUEUE(P#=NI$DQH,Q#=NI$SQH.CQ$);

   5992  1 001223   200041 236100                    LDQ     SQH$,,AUTO
         1 001224   000004 036003                    ADLQ    4,DU
         1 001225   200006 235100                    LDA     DQH$,,AUTO
         1 001226   200260 757100                    STAQ    @SEV+2,,AUTO
         1 001227   200260 630500                    EPPR0   @SEV+2,,AUTO
         1 001230   000020 631400 xsym               EPPR1   B_VECTNIL+16
         1 001231   000000 701000 xent               TSX1    NIM$ENQUEUE
         1 001232   000000 011000                    NOP     0

      841     5994    3                 END;

      842     5995                   %UNLOCK (G#=NI$SQH.GATE);

   5996  1 001233   200041 630500                    EPPR0   SQH$,,AUTO
         1 001234   000017 631400 xsym               EPPR1   B_VECTNIL+15
         1 001235   000000 701000 xent               TSX1    HFC$UNLOCK
         1 001236   000000 011000                    NOP     0
         1 001237   001275 710000 1                  TRA     s:6012

      843     5998    2            CASE(%TD_TEST_ITR);

      844     5999                                                /* STOP THE MPC WHILE RUNNING THE ITR */
      845     6000    2              CALL NIW$MPCSTOP(MPC$->DCT);

   6000  1 001240   200024 630500                    EPPR0   MPC$,,AUTO
         1 001241   000017 631400 xsym               EPPR1   B_VECTNIL+15
         1 001242   000000 701000 xent               TSX1    NIW$MPCSTOP
         1 001243   000000 011000                    NOP     0

PL6.E3A0      #003=TDP$OPEN File=TDP$PMME.:E05TSI                                WED 07/30/97 06:04 Page:152
      846     6001    2              IF MPC$->DCT.MPC.ALTMPCX~=0 THEN

   6001  1 001244   200024 470500                    LDP0    MPC$,,AUTO
         1 001245   000035 236100                    LDQ     29,,PR0
         1 001246   000777 316007                    CANQ    511,DL
         1 001247   001275 600000 1                  TZE     s:6012

      847     6002    2                 CALL NIW$MPCSTOP(N$DCT$(MPC$->DCT.MPC.ALTMPCX)->DCT);

   6002  1 001250   000035 720100                    LXL0    29,,PR0
         1 001251   000777 360003                    ANX0    511,DU
         1 001252   000000 471400 xsym               LDP1    N$DCT$$
         1 001253   100000 473510                    LDP3    0,X0,PR1
         1 001254   200260 453500                    STP3    @SEV+2,,AUTO
         1 001255   200260 630500                    EPPR0   @SEV+2,,AUTO
         1 001256   000017 631400 xsym               EPPR1   B_VECTNIL+15
         1 001257   000000 701000 xent               TSX1    NIW$MPCSTOP
         1 001260   000000 011000                    NOP     0
         1 001261   001275 710000 1                  TRA     s:6012

      848     6003    2            CASE(%TD_TEST_MCA);

      849     6004    2              DCT$->DCT.MCA.USER#=B$JIT.USER;

   6004  1 001262   300000 236100                    LDQ     0,,PR3
         1 001263   000022 772000                    QRL     18
         1 001264   000777 376007                    ANQ     511,DL
         1 001265   100031 756100                    STQ     25,,PR1

      850     6005    2              DCT$->DCT.MCA.RESERVED='1'B;

   6005  1 001266   400000 236003                    LDQ     -131072,DU
         1 001267   100030 256100                    ORSQ    24,,PR1

      851     6006                   %UNLOCK(G#=NI$SQH.GATE);

   6007  1 001270   200041 630500                    EPPR0   SQH$,,AUTO
PL6.E3A0      #003=TDP$OPEN File=TDP$PMME.:E05TSI                                WED 07/30/97 06:04 Page:153
         1 001271   000017 631400 xsym               EPPR1   B_VECTNIL+15
         1 001272   000000 701000 xent               TSX1    HFC$UNLOCK
         1 001273   000000 011000                    NOP     0
         1 001274   001275 710000 1                  TRA     s:6012

      852     6009    2            CASE ( %TD_TEST_IPC ) ;

      853     6010
      854     6011    2            END;

      855     6012    1           TEMP=DCT.DCTX;

   6012  1 001275   200005 470500                    LDP0    DCT$,,AUTO
         1 001276   000006 236100                    LDQ     6,,PR0
         1 001277   000025 772000                    QRL     21
         1 001300   200042 756100                    STQ     TEMP,,AUTO

      856     6013    1           CALL FSA$GSP(SIZEW(NI$EXTST),EXTST$) ALTRET(XIT);

   6013  1 001301   200020 631500                    EPPR1   EXTST$,,AUTO
         1 001302   200261 451500                    STP1    @SEV+3,,AUTO
         1 001303   000047 236000 2                  LDQ     39
         1 001304   200260 756100                    STQ     @SEV+2,,AUTO
         1 001305   200260 630500                    EPPR0   @SEV+2,,AUTO
         1 001306   000020 631400 xsym               EPPR1   B_VECTNIL+16
         1 001307   000000 701000 xent               TSX1    FSA$GSP
         1 001310   001537 702000 1                  TSX2    XIT

      857     6014    1           CALL OCI$MK_WR(M_DEVC,TDOPN_MSG#,5,LEN,MSG,TEMP);

   6014  1 001311   200042 630500                    EPPR0   TEMP,,AUTO
         1 001312   200265 450500                    STP0    @SEV+7,,AUTO
         1 001313   200026 631500                    EPPR1   MSG,,AUTO
         1 001314   200264 451500                    STP1    @SEV+6,,AUTO
         1 001315   000020 237000 2                  LDAQ    16
         1 001316   200262 757100                    STAQ    @SEV+4,,AUTO
         1 001317   000052 237000 2                  LDAQ    42
PL6.E3A0      #003=TDP$OPEN File=TDP$PMME.:E05TSI                                WED 07/30/97 06:04 Page:154
         1 001320   200260 757100                    STAQ    @SEV+2,,AUTO
         1 001321   200260 630500                    EPPR0   @SEV+2,,AUTO
         1 001322   000024 631400 xsym               EPPR1   B_VECTNIL+20
         1 001323   000000 701000 xent               TSX1    OCI$MK_WR
         1 001324   000000 011000                    NOP     0

      858     6015        /**/
      859     6016        /* SET UP TD DCB */
      860     6017        /**/
      861     6018    1           DCB$->F$DCB.TYC='0'B;

   6018  1 001325   200004 470500                    LDP0    DCB$,,AUTO
         1 001326   000001 450100                    STZ     1,,PR0
         1 001327   000002 450100                    STZ     2,,PR0

      862     6019    1           DCB$->F$DCB.FUN=TDOPNV.TEST;

   6019  1 001330   000000 470400 xsym               LDP0    B$PS0$
         1 001331   200004 471500                    LDP1    DCB$,,AUTO
         1 001332   000002 236100                    LDQ     2,,PR0
         1 001333   770000 376003                    ANQ     -4096,DU
         1 001334   000014 772000                    QRL     12
         1 001335   100032 552120                    STBQ    26,'20'O,PR1

      863     6020    1           DCB$->F$DCB.DVTYPE=DCT.TYPE;

   6020  1 001336   200005 473500                    LDP3    DCT$,,AUTO
         1 001337   300007 236100                    LDQ     7,,PR3
         1 001340   007700 376007                    ANQ     4032,DL
         1 001341   000025 736000                    QLS     21
         1 001342   100032 552140                    STBQ    26,'40'O,PR1

      864     6021    1           IF DCT.TYPE~=%DV_LP THEN DCB$->F$DCB.WIDTH=0;

   6021  1 001343   300007 236100                    LDQ     7,,PR3
         1 001344   007700 376007                    ANQ     4032,DL
         1 001345   000300 116007                    CMPQ    192,DL
PL6.E3A0      #003=TDP$OPEN File=TDP$PMME.:E05TSI                                WED 07/30/97 06:04 Page:155
         1 001346   001352 600000 1                  TZE     s:6023

   6021  1 001347   000000 236003                    LDQ     0,DU
         1 001350   100004 552104                    STBQ    4,'04'O,PR1
         1 001351   001423 710000 1                  TRA     s:6032

      865     6022    2           ELSE DO;

      866     6023    2              DCB$->F$DCB.WIDTH=132;

   6023  1 001352   000204 236007                    LDQ     132,DL
         1 001353   100004 552104                    STBQ    4,'04'O,PR1

      867     6024    2              CALL HFF$DSIZ(1,TEMP);

   6024  1 001354   200042 631500                    EPPR1   TEMP,,AUTO
         1 001355   200261 451500                    STP1    @SEV+3,,AUTO
         1 001356   000045 236000 2                  LDQ     37
         1 001357   200260 756100                    STQ     @SEV+2,,AUTO
         1 001360   200260 630500                    EPPR0   @SEV+2,,AUTO
         1 001361   000020 631400 xsym               EPPR1   B_VECTNIL+16
         1 001362   000000 701000 xent               TSX1    HFF$DSIZ
         1 001363   000000 011000                    NOP     0

      868     6025    2              IF TEMP>=60*4 THEN B$PS1$->CHAINIMG=DCT.LP.CHAIN$->CHAINIMG;

   6025  1 001364   200042 235100                    LDA     TEMP,,AUTO
         1 001365   000360 115007                    CMPA    240,DL
         1 001366   001375 602000 1                  TNC     s:6026

   6025  1 001367   200005 470500                    LDP0    DCT$,,AUTO
         1 001370   000032 471500                    LDP1    26,,PR0
         1 001371   000000 473400 xsym               LDP3    B$PS1$
         1 001372   000100 100500                    MLR     fill='000'O
         1 001373   100000 000360                    ADSC9   0,,PR1                   cn=0,n=240
         1 001374   300000 000360                    ADSC9   0,,PR3                   cn=0,n=240

PL6.E3A0      #003=TDP$OPEN File=TDP$PMME.:E05TSI                                WED 07/30/97 06:04 Page:156
      869     6026    2              CALL HFF$DSIZ(2,TEMP);

   6026  1 001375   200042 630500                    EPPR0   TEMP,,AUTO
         1 001376   200261 450500                    STP0    @SEV+3,,AUTO
         1 001377   000054 236000 2                  LDQ     44
         1 001400   200260 756100                    STQ     @SEV+2,,AUTO
         1 001401   200260 630500                    EPPR0   @SEV+2,,AUTO
         1 001402   000020 631400 xsym               EPPR1   B_VECTNIL+16
         1 001403   000000 701000 xent               TSX1    HFF$DSIZ
         1 001404   000000 011000                    NOP     0

      870     6027    3              IF TEMP>=DCT.LP.VFCL*4 THEN DO;

   6027  1 001405   200005 470500                    LDP0    DCT$,,AUTO
         1 001406   000031 236100                    LDQ     25,,PR0
         1 001407   000002 736000                    QLS     2
         1 001410   200042 116100                    CMPQ    TEMP,,AUTO
         1 001411   001413 600000 1                  TZE     s:6028
         1 001412   001423 603000 1                  TRC     s:6032

      871     6028    3                 TEMP=DCT.LP.VFCL*4;

   6028  1 001413   200042 756100                    STQ     TEMP,,AUTO

      872     6029    3                 B$PS2$->VFCIMG=DCT.LP.VFC$->VFCIMG;

   6029  1 001414   000030 471500                    LDP1    24,,PR0
         1 001415   000000 620006                    EAX0    0,QL
         1 001416   000000 473400 xsym               LDP3    B$PS2$
         1 001417   200042 721100                    LXL1    TEMP,,AUTO
         1 001420   040140 100540                    MLR     fill='040'O
         1 001421   100000 000010                    ADSC9   0,,PR1                   cn=0,n=*X0
         1 001422   300000 000011                    ADSC9   0,,PR3                   cn=0,n=*X1

      873     6030    3                 END;

      874     6031    2              END;
PL6.E3A0      #003=TDP$OPEN File=TDP$PMME.:E05TSI                                WED 07/30/97 06:04 Page:157

      875     6032    1           DCB$->F$DCB.DQH$=DQH$;

   6032  1 001423   200006 236100                    LDQ     DQH$,,AUTO
         1 001424   200004 470500                    LDP0    DCB$,,AUTO
         1 001425   000046 756100                    STQ     38,,PR0

      876     6033    1           DCB$->F$DCB.DCT$=DCT$;

   6033  1 001426   200005 236100                    LDQ     DCT$,,AUTO
         1 001427   000047 756100                    STQ     39,,PR0

      877     6034    1           DCB$->F$DCB.MPC$=MPC$;

   6034  1 001430   200024 236100                    LDQ     MPC$,,AUTO
         1 001431   000050 756100                    STQ     40,,PR0

      878     6035    1           DCB$->F$DCB.TDEXTST$=EXTST$;

   6035  1 001432   200020 236100                    LDQ     EXTST$,,AUTO
         1 001433   000007 756100                    STQ     7,,PR0

      879     6036    1           DCB$->F$DCB.DEVADR=TDOPNV.DEVICE;

   6036  1 001434   000000 471400 xsym               LDP1    B$PS0$
         1 001435   100000 720100                    LXL0    0,,PR1
         1 001436   000051 440100                    SXL0    41,,PR0

      880     6037    1           DCB$->F$DCB.CONNCT=0;

   6037  1 001437   000041 450100                    STZ     33,,PR0

      881     6038    1           DCB$->F$DCB.CHANTIME=0;

   6038  1 001440   000042 450100                    STZ     34,,PR0

      882     6039    1           DCB$->F$DCB.ASN=%T@D#;
PL6.E3A0      #003=TDP$OPEN File=TDP$PMME.:E05TSI                                WED 07/30/97 06:04 Page:158

   6039  1 001441   006000 236007                    LDQ     3072,DL
         1 001442   000032 552110                    STBQ    26,'10'O,PR0

      883     6040    1           DCB$->F$DCB.FCN='0'B;

   6040  1 001443   000000 221003                    LDX1    0,DU
         1 001444   000074 741100                    STX1    60,,PR0

      884     6041    1           DCB$->F$DCB.FCD='1'B;           /* MARK DCB OPEN                      */

   6041  1 001445   020000 236007                    LDQ     8192,DL
         1 001446   000031 256100                    ORSQ    25,,PR0

      885     6042    1           EL$DIAG.ACCN=B$JIT.ACCN;

   6042  1 001447   000000 473400 xsym               LDP3    B$JIT$
         1 001450   040100 100500                    MLR     fill='040'O
         1 001451   300001 000010                    ADSC9   1,,PR3                   cn=0,n=8
         1 001452   200007 000010                    ADSC9   EL$DIAG,,AUTO            cn=0,n=8

      886     6043    1           EL$DIAG.UNAME=B$JIT.UNAME;

   6043  1 001453   040100 100500                    MLR     fill='040'O
         1 001454   300003 000014                    ADSC9   3,,PR3                   cn=0,n=12
         1 001455   200011 000014                    ADSC9   EL$DIAG+2,,AUTO          cn=0,n=12

      887     6044    1           EL$DIAG.SYSID=B$JIT.SYSID;

   6044  1 001456   300000 722100                    LXL2    0,,PR3
         1 001457   200014 742100                    STX2    EL$DIAG+5,,AUTO

      888     6045    1           EL$DIAG.DEVNM=DCT$->DCT.DEVNM;

   6045  1 001460   200005 474500                    LDP4    DCT$,,AUTO
         1 001461   040100 100500                    MLR     fill='040'O
         1 001462   400002 000010                    ADSC9   2,,PR4                   cn=0,n=8
PL6.E3A0      #003=TDP$OPEN File=TDP$PMME.:E05TSI                                WED 07/30/97 06:04 Page:159
         1 001463   200015 000010                    ADSC9   EL$DIAG+6,,AUTO          cn=0,n=8

      889     6046    1           EL$DIAG.TEST=TDOPNV.TEST;

   6046  1 001464   100002 236100                    LDQ     2,,PR1
         1 001465   000036 772000                    QRL     30
         1 001466   200017 756100                    STQ     EL$DIAG+8,,AUTO

      890     6047    1           CALL ELA$SYSLOG(EL_DIAG,EL$DIAG,SIZEW(EL$DIAG),'0'B,1,TEMP);

   6047  1 001467   200042 635500                    EPPR5   TEMP,,AUTO
         1 001470   200265 455500                    STP5    @SEV+7,,AUTO
         1 001471   000045 236000 2                  LDQ     37
         1 001472   200264 756100                    STQ     @SEV+6,,AUTO
         1 001473   000056 237000 2                  LDAQ    46
         1 001474   200262 757100                    STAQ    @SEV+4,,AUTO
         1 001475   200007 636500                    EPPR6   EL$DIAG,,AUTO
         1 001476   200261 456500                    STP6    @SEV+3,,AUTO
         1 001477   000060 236000 2                  LDQ     48
         1 001500   200260 756100                    STQ     @SEV+2,,AUTO
         1 001501   200260 630500                    EPPR0   @SEV+2,,AUTO
         1 001502   000024 631400 xsym               EPPR1   B_VECTNIL+20
         1 001503   000000 701000 xent               TSX1    ELA$SYSLOG
         1 001504   000000 011000                    NOP     0

      891     6048    1           RETURN;

   6048  1 001505   000000 702200 xent               TSX2  ! X66_ARET

      892     6049    1   BRKYC:
      893     6050    1           CALL BADRET(%E$BREAK,4) ALTRET(XIT);

   6050  1 001506   000001 236000 2     BRKYC        LDQ     1
         1 001507   200256 756100                    STQ     @ERRCODE+1,,AUTO
         1 001510   000062 236000 2                  LDQ     50
         1 001511   200255 756100                    STQ     I+2,,AUTO
         1 001512   001540 701000 1                  TSX1    BADRET
PL6.E3A0      #003=TDP$OPEN File=TDP$PMME.:E05TSI                                WED 07/30/97 06:04 Page:160
         1 001513   001537 702000 1                  TSX2    XIT

      894     6051    1   TDNODEV:
      895     6052    1           CALL BADRET(%E$TDNODEV,4) ALTRET(XIT);

   6052  1 001514   000001 236000 2     TDNODEV      LDQ     1
         1 001515   200256 756100                    STQ     @ERRCODE+1,,AUTO
         1 001516   000007 236000 2                  LDQ     7
         1 001517   200255 756100                    STQ     I+2,,AUTO
         1 001520   001540 701000 1                  TSX1    BADRET
         1 001521   001537 702000 1                  TSX2    XIT

      896     6053        /*E*        ERROR: TDP-E$TDNODEV
      897     6054                  MESSAGE: Device requested by M$TDOPEN does not exist.
      898     6055        */
      899     6056    1   UNLOCK:
      900     6057                %UNLOCK(G#=TD_OPENGATE);

   6058  1 001522   000043 630400 2     UNLOCK       EPPR0   35
         1 001523   000017 631400 xsym               EPPR1   B_VECTNIL+15
         1 001524   000000 701000 xent               TSX1    HFC$UNLOCK
         1 001525   000000 011000                    NOP     0

      901     6060    1   MCA_UNLK:
      902     6061    1           IF TDOPNV.TEST = %TD_TEST_MCA

   6061  1 001526   000000 470400 xsym  MCA_UNLK     LDP0    B$PS0$
         1 001527   000002 236100                    LDQ     2,,PR0
         1 001530   770000 376003                    ANQ     -4096,DU
         1 001531   070000 116003                    CMPQ    28672,DU
         1 001532   001537 601000 1                  TNZ     XIT

      903     6062    2           THEN DO;

      904     6063                   %UNLOCK(G#=NI$SQH.GATE);

   6064  1 001533   200041 630500                    EPPR0   SQH$,,AUTO
PL6.E3A0      #003=TDP$OPEN File=TDP$PMME.:E05TSI                                WED 07/30/97 06:04 Page:161
         1 001534   000017 631400 xsym               EPPR1   B_VECTNIL+15
         1 001535   000000 701000 xent               TSX1    HFC$UNLOCK
         1 001536   000000 011000                    NOP     0

      905     6066    2              END;

      906     6067    1   XIT:    RETURN;

   6067  1 001537   000000 702200 xent  XIT          TSX2  ! X66_ARET

      907     6068    1   BADRET: PROC(ERRCODE,SEV) ALTRET;

   6068  1 001540   200254 741300       BADRET       STX1  ! I+1,,AUTO

      908     6069    2   DCL ERRCODE UBIN WORD;
      909     6070    2   DCL SEV UBIN WORD;
      910     6071        /**/
      911     6072    2           B$JIT.ERR='240420000000'O;

   6072  1 001541   000003 236000 0                  LDQ     LEN+3
         1 001542   000000 470400 xsym               LDP0    B$JIT$
         1 001543   000012 756100                    STQ     10,,PR0

      912     6073    2           B$JIT.ERR.CODE=ERRCODE;

   6073  1 001544   200255 471500                    LDP1    @ERRCODE,,AUTO
         1 001545   100000 236100                    LDQ     0,,PR1
         1 001546   000003 736000                    QLS     3
         1 001547   000012 676100                    ERQ     10,,PR0
         1 001550   377770 376007                    ANQ     131064,DL
         1 001551   000012 656100                    ERSQ    10,,PR0

      913     6074    2           B$JIT.ERR.SEV=SEV;

   6074  1 001552   200256 473500                    LDP3    @SEV,,AUTO
         1 001553   300000 236100                    LDQ     0,,PR3
         1 001554   000012 676100                    ERQ     10,,PR0
PL6.E3A0      #003=TDP$OPEN File=TDP$PMME.:E05TSI                                WED 07/30/97 06:04 Page:162
         1 001555   000007 376007                    ANQ     7,DL
         1 001556   000012 656100                    ERSQ    10,,PR0

      914     6075    2           ALTRETURN;

   6075  1 001557   200254 221300                    LDX1  ! I+1,,AUTO
         1 001560   000000 702211                    TSX2  ! 0,X1

      915     6076    2   END BADRET;
      916     6077        %EJECT;
PL6.E3A0      #003=TDP$OPEN File=TDP$PMME.:E05TSI                                WED 07/30/97 06:04 Page:163
      917     6078    1   CHECK_SDSK: PROC ALTRET;

   6078  1 001561   200252 741300       CHECK_SDSK   STX1  ! X+2,,AUTO

      918     6079    2   DCL I SBIN;
      919     6080        /**/
      920     6081    2           CALL NIQ$GET(Q$);

   6081  1 001562   200040 630500                    EPPR0   Q$,,AUTO
         1 001563   200260 450500                    STP0    @SEV+2,,AUTO
         1 001564   200260 630500                    EPPR0   @SEV+2,,AUTO
         1 001565   000017 631400 xsym               EPPR1   B_VECTNIL+15
         1 001566   000000 701000 xent               TSX1    NIQ$GET
         1 001567   000000 011000                    NOP     0

      921     6082    2           N$REQ.DLA.DCTX=DCT$->DCT.DCTX;

   6082  1 001570   200005 470500                    LDP0    DCT$,,AUTO
         1 001571   200040 471500                    LDP1    Q$,,AUTO
         1 001572   000006 236100                    LDQ     6,,PR0
         1 001573   100001 676100                    ERQ     1,,PR1
         1 001574   777770 376003                    ANQ     -8,DU
         1 001575   100001 656100                    ERSQ    1,,PR1

      922     6083    2           N$REQ.FC=%N_RQSTAT;

   6083  1 001576   200040 470500                    LDP0    Q$,,AUTO
         1 001577   000001 236007                    LDQ     1,DL
         1 001600   000003 552104                    STBQ    3,'04'O,PR0

      923     6084    2           N$REQ.BPMIR = '1'B ;

   6084  1 001601   200040 470500                    LDP0    Q$,,AUTO
         1 001602   200000 236003                    LDQ     65536,DU
         1 001603   000034 256100                    ORSQ    28,,PR0

      924     6085    2           N$REQ.DCB$=DCB$;
PL6.E3A0      #003=TDP$OPEN File=TDP$PMME.:E05TSI                                WED 07/30/97 06:04 Page:164

   6085  1 001604   200004 236100                    LDQ     DCB$,,AUTO
         1 001605   200040 470500                    LDP0    Q$,,AUTO
         1 001606   000022 756100                    STQ     18,,PR0

      925     6086    2           N$REQ.OPFLG=%(OP_USER|OP_WAIT|OP_HOLD|OP_CLR);

   6086  1 001607   200040 470500                    LDP0    Q$,,AUTO
         1 001610   000425 236007                    LDQ     277,DL
         1 001611   000004 552104                    STBQ    4,'04'O,PR0

      926     6087    2           CALL NIO$QUE(Q$->N$REQ);

   6087  1 001612   200040 630500                    EPPR0   Q$,,AUTO
         1 001613   000017 631400 xsym               EPPR1   B_VECTNIL+15
         1 001614   000000 701000 xent               TSX1    NIO$QUE
         1 001615   000000 011000                    NOP     0

      927     6088    2           IF Q$->N$REQ.STATUS.MAJOR~=0 THEN GOTO SET_SDSK;

   6088  1 001616   200040 470500                    LDP0    Q$,,AUTO
         1 001617   000014 236100                    LDQ     12,,PR0
         1 001620   170000 316003                    CANQ    61440,DU
         1 001621   001731 601000 1                  TNZ     SET_SDSK

      928     6089    2           N$REQ.FC=%N_RDBIN;

   6089  1 001622   000002 236007                    LDQ     2,DL
         1 001623   000003 552104                    STBQ    3,'04'O,PR0

      929     6090    2           N$REQ.OPFLG=%(OP_USER|OP_WAIT|OP_BPF|OP_HOLD|OP_CLR);

   6090  1 001624   200040 470500                    LDP0    Q$,,AUTO
         1 001625   000435 236007                    LDQ     285,DL
         1 001626   000004 552104                    STBQ    4,'04'O,PR0

      930     6091    2           N$REQ.BUF$=ADDR(VIDBUF1);
PL6.E3A0      #003=TDP$OPEN File=TDP$PMME.:E05TSI                                WED 07/30/97 06:04 Page:165

   6091  1 001627   200045 630500                    EPPR0   VIDBUF1,,AUTO
         1 001630   200040 471500                    LDP1    Q$,,AUTO
         1 001631   100005 450500                    STP0    5,,PR1

      931     6092    2           N$REQ.BUFSIZE=SIZEC(VIDBUF1);

   6092  1 001632   200040 470500                    LDP0    Q$,,AUTO
         1 001633   000004 236100                    LDQ     4,,PR0
         1 001634   177777 376007                    ANQ     65535,DL
         1 001635   000100 276003                    ORQ     64,DU
         1 001636   000004 756100                    STQ     4,,PR0

      932     6093    2           N$REQ.DLA.DRELADDR=0;

   6093  1 001637   200040 470500                    LDP0    Q$,,AUTO
         1 001640   777770 236003                    LDQ     -8,DU
         1 001641   000001 356100                    ANSQ    1,,PR0

      933     6094    2           CALL NIO$QUE(Q$->N$REQ);

   6094  1 001642   200040 630500                    EPPR0   Q$,,AUTO
         1 001643   000017 631400 xsym               EPPR1   B_VECTNIL+15
         1 001644   000000 701000 xent               TSX1    NIO$QUE
         1 001645   000000 011000                    NOP     0

      934     6095    2           VID$=ADDR(VIDBUF1);

   6095  1 001646   200045 630500                    EPPR0   VIDBUF1,,AUTO
         1 001647   200044 450500                    STP0    VID$,,AUTO

      935     6096    3           IF FM$VID.ID='CP6 ' THEN DO;

   6096  1 001650   000000 236100                    LDQ     0,,PR0
         1 001651   000004 116000 0                  CMPQ    LEN+4
         1 001652   001721 601000 1                  TNZ     s:6109

PL6.E3A0      #003=TDP$OPEN File=TDP$PMME.:E05TSI                                WED 07/30/97 06:04 Page:166
      936     6097    3              IF FM$VID.VOLCNT~=0 THEN GOTO SET_SDSK;

   6097  1 001653   000004 720100                    LXL0    4,,PR0
         1 001654   001731 601000 1                  TNZ     SET_SDSK

      937     6098    4              DO I=0 TO 25;

   6098  1 001655   200253 450100                    STZ     I,,AUTO

      938     6099    5                 IF FM$VID.SECTSTRT(I)~=0 AND FM$VID.SECTSTRT(I)<DCT$->DCT.DVT$->DVT.
              6099                          PACKSIZE THEN DO;

   6099  1 001656   200044 470500                    LDP0    VID$,,AUTO
         1 001657   200253 720100                    LXL0    I,,AUTO
         1 001660   000010 235110                    LDA     8,X0,PR0
         1 001661   001715 600000 1                  TZE     s:6107
         1 001662   200005 471500                    LDP1    DCT$,,AUTO
         1 001663   100024 473500                    LDP3    20,,PR1
         1 001664   000010 236110                    LDQ     8,X0,PR0
         1 001665   300054 116100                    CMPQ    44,,PR3
         1 001666   001715 603000 1                  TRC     s:6107

      939     6100    5                    N$REQ.BUF$=ADDR(VIDBUF2);

   6100  1 001667   200145 634500                    EPPR4   VIDBUF2,,AUTO
         1 001670   200040 475500                    LDP5    Q$,,AUTO
         1 001671   500005 454500                    STP4    5,,PR5

      940     6101    5                    N$REQ.BUFSIZE=SIZEC(VIDBUF2);

   6101  1 001672   200040 471500                    LDP1    Q$,,AUTO
         1 001673   100004 236100                    LDQ     4,,PR1
         1 001674   177777 376007                    ANQ     65535,DL
         1 001675   000100 276003                    ORQ     64,DU
         1 001676   100004 756100                    STQ     4,,PR1

      941     6102    5                    N$REQ.OPFLG=%(OP_USER|OP_WAIT|OP_BPF|OP_HOLD|OP_CLR);
PL6.E3A0      #003=TDP$OPEN File=TDP$PMME.:E05TSI                                WED 07/30/97 06:04 Page:167

   6102  1 001677   200040 471500                    LDP1    Q$,,AUTO
         1 001700   000435 236007                    LDQ     285,DL
         1 001701   100004 552104                    STBQ    4,'04'O,PR1

      942     6103    5                    N$REQ.DLA.DRELADDR=FM$VID.SECTSTRT(I);

   6103  1 001702   200040 471500                    LDP1    Q$,,AUTO
         1 001703   000010 236110                    LDQ     8,X0,PR0
         1 001704   100001 676100                    ERQ     1,,PR1
         1 001705   000063 376000 2                  ANQ     51
         1 001706   100001 656100                    ERSQ    1,,PR1

      943     6104    5                    CALL NIO$QUE(N$REQ);

   6104  1 001707   200040 630500                    EPPR0   Q$,,AUTO
         1 001710   000017 631400 xsym               EPPR1   B_VECTNIL+15
         1 001711   000000 701000 xent               TSX1    NIO$QUE
         1 001712   000000 011000                    NOP     0

      944     6105    5                    IF ADDR(VIDBUF2)->FM$VID.VOLCNT~=0 THEN GOTO SET_SDSK;

   6105  1 001713   200151 720100                    LXL0    VIDBUF2+4,,AUTO
         1 001714   001731 601000 1                  TNZ     SET_SDSK

      945     6106    5                    END;

      946     6107    4                 END;

   6107  1 001715   200253 054100                    AOS     I,,AUTO
         1 001716   200253 235100                    LDA     I,,AUTO
         1 001717   000031 115007                    CMPA    25,DL
         1 001720   001656 604400 1                  TMOZ    s:6099

      947     6108    3              END;

      948     6109    2           CALL NIQ$REL(Q$);
PL6.E3A0      #003=TDP$OPEN File=TDP$PMME.:E05TSI                                WED 07/30/97 06:04 Page:168

   6109  1 001721   200040 630500                    EPPR0   Q$,,AUTO
         1 001722   200260 450500                    STP0    @SEV+2,,AUTO
         1 001723   200260 630500                    EPPR0   @SEV+2,,AUTO
         1 001724   000017 631400 xsym               EPPR1   B_VECTNIL+15
         1 001725   000000 701000 xent               TSX1    NIQ$REL
         1 001726   000000 011000                    NOP     0

      949     6110    2           RETURN;

   6110  1 001727   200252 221300                    LDX1  ! X+2,,AUTO
         1 001730   000001 702211                    TSX2  ! 1,X1

      950     6111    2   SET_SDSK:
      951     6112    2           CALL NIQ$REL(Q$);

   6112  1 001731   200040 630500       SET_SDSK     EPPR0   Q$,,AUTO
         1 001732   200260 450500                    STP0    @SEV+2,,AUTO
         1 001733   200260 630500                    EPPR0   @SEV+2,,AUTO
         1 001734   000017 631400 xsym               EPPR1   B_VECTNIL+15
         1 001735   000000 701000 xent               TSX1    NIQ$REL
         1 001736   000000 011000                    NOP     0

      952     6113    2           DCB$->F$DCB.TDFLG.SDSK='1'B;

   6113  1 001737   200004 470500                    LDP0    DCB$,,AUTO
         1 001740   400000 236007                    LDQ     -131072,DL
         1 001741   000040 256100                    ORSQ    32,,PR0

      953     6114    2           ALTRETURN;

   6114  1 001742   200252 221300                    LDX1  ! X+2,,AUTO
         1 001743   000000 702211                    TSX2  ! 0,X1

      954     6115    2   END CHECK_SDSK;
      955     6116        %EJECT;
PL6.E3A0      #003=TDP$OPEN File=TDP$PMME.:E05TSI                                WED 07/30/97 06:04 Page:169
      956     6117    1   OPEN_FEP: PROC;

   6117  1 001744   200252 741300       OPEN_FEP     STX1  ! X+2,,AUTO

      957     6118    2           IF NI$DQH.FEX~=FEI# THEN CALL BADRET(%E$TDNOTFEP,4) ALTRET(XIT);

   6118  1 001745   200006 470500                    LDP0    DQH$,,AUTO
         1 001746   000001 236100                    LDQ     1,,PR0
         1 001747   000006 772000                    QRL     6
         1 001750   000077 376007                    ANQ     63,DL
         1 001751   200022 116100                    CMPQ    FEI#,,AUTO
         1 001752   001761 600000 1                  TZE     s:6122

   6118  1 001753   000001 236000 2                  LDQ     1
         1 001754   200256 756100                    STQ     @SEV,,AUTO
         1 001755   000005 236000 2                  LDQ     5
         1 001756   200255 756100                    STQ     @ERRCODE,,AUTO
         1 001757   001540 701000 1                  TSX1    BADRET
         1 001760   002230 702000 1                  TSX2    XIT

      958     6119        /*E*    ERROR:   TDP-E$TDNOTFEP
      959     6120                MESSAGE: FEP does not exist.
      960     6121        */
      961     6122    2           CALL HFF$NILERASE(B$PS3$) ALTRET(BADWINDOW);

   6122  1 001761   000064 630400 2                  EPPR0   52
         1 001762   000017 631400 xsym               EPPR1   B_VECTNIL+15
         1 001763   000000 701000 xent               TSX1    HFF$NILERASE
         1 001764   002002 702000 1                  TSX2    BADWINDOW

      962     6123    2           CALL HFF$DSIZ(B$PS3$,WSZ);

   6123  1 001765   200246 630500                    EPPR0   WSZ,,AUTO
         1 001766   200261 450500                    STP0    @SEV+3,,AUTO
         1 001767   000064 236000 2                  LDQ     52
         1 001770   200260 756100                    STQ     @SEV+2,,AUTO
         1 001771   200260 630500                    EPPR0   @SEV+2,,AUTO
PL6.E3A0      #003=TDP$OPEN File=TDP$PMME.:E05TSI                                WED 07/30/97 06:04 Page:170
         1 001772   000020 631400 xsym               EPPR1   B_VECTNIL+16
         1 001773   000000 701000 xent               TSX1    HFF$DSIZ
         1 001774   000000 011000                    NOP     0

      963     6124    3           IF MOD(WSZ,4096)~=0 THEN DO;

   6124  1 001775   200246 236100                    LDQ     WSZ,,AUTO
         1 001776   010000 506007                    DIV     4096,DL
         1 001777   000044 733000                    LRS     36
         1 002000   000000 116003                    CMPQ    0,DU
         1 002001   002010 600000 1                  TZE     s:6132

      964     6125    3   BADWINDOW: CALL BADRET(%E$TDBADWINDOW,4) ALTRET(XIT);

   6125  1 002002   000001 236000 2     BADWINDOW    LDQ     1
         1 002003   200256 756100                    STQ     @SEV,,AUTO
         1 002004   000066 236000 2                  LDQ     54
         1 002005   200255 756100                    STQ     @ERRCODE,,AUTO
         1 002006   001540 701000 1                  TSX1    BADRET
         1 002007   002230 702000 1                  TSX2    XIT

      965     6126        /*E*    ERROR:   TDP-E$TDBADWINDOW
      966     6127                MESSAGE: Window area must be present for T&D FEP open and must
      967     6128                         begin and end on a page boundary.
      968     6129        */
      969     6130    3              END;

      970     6131                %LOCK (G#=TD_OPENGATE);

   6132  1 002010   000043 630400 2                  EPPR0   35
         1 002011   000017 631400 xsym               EPPR1   B_VECTNIL+15
         1 002012   000000 701000 xent               TSX1    HFC$LOCK
         1 002013   000000 011000                    NOP     0

      971     6134    2           IF NOT NI$DQH.STATUS.DOWN OR NI$DQH.STATUS.TND~=0 THEN

   6134  1 002014   200006 470500                    LDP0    DQH$,,AUTO
PL6.E3A0      #003=TDP$OPEN File=TDP$PMME.:E05TSI                                WED 07/30/97 06:04 Page:171
         1 002015   000001 236100                    LDQ     1,,PR0
         1 002016   200000 316003                    CANQ    65536,DU
         1 002017   002022 600000 1                  TZE     s:6135
         1 002020   074000 316003                    CANQ    30720,DU
         1 002021   002030 600000 1                  TZE     s:6136

      972     6135    2              CALL BADRET(%E$TDFEPBSY,4) ALTRET(UNLOCK);

   6135  1 002022   000001 236000 2                  LDQ     1
         1 002023   200256 756100                    STQ     @SEV,,AUTO
         1 002024   000070 236000 2                  LDQ     56
         1 002025   200255 756100                    STQ     @ERRCODE,,AUTO
         1 002026   001540 701000 1                  TSX1    BADRET
         1 002027   002224 702000 1                  TSX2    UNLOCK

      973     6136    2           NI$DQH.STATUS.TND=TDOPNV.TEST;

   6136  1 002030   000000 470400 xsym               LDP0    B$PS0$
         1 002031   200006 471500                    LDP1    DQH$,,AUTO
         1 002032   000002 236100                    LDQ     2,,PR0
         1 002033   000001 772000                    QRL     1
         1 002034   100001 676100                    ERQ     1,,PR1
         1 002035   074000 376003                    ANQ     30720,DU
         1 002036   100001 656100                    ERSQ    1,,PR1

      974     6137                %UNLOCK (G#=TD_OPENGATE);

   6138  1 002037   000043 630400 2                  EPPR0   35
         1 002040   000017 631400 xsym               EPPR1   B_VECTNIL+15
         1 002041   000000 701000 xent               TSX1    HFC$UNLOCK
         1 002042   000000 011000                    NOP     0

      975     6140    2           FEI$ = KI$FEI$(NI$DQH.FEX);

   6140  1 002043   200006 470500                    LDP0    DQH$,,AUTO
         1 002044   000001 236100                    LDQ     1,,PR0
         1 002045   000006 772000                    QRL     6
PL6.E3A0      #003=TDP$OPEN File=TDP$PMME.:E05TSI                                WED 07/30/97 06:04 Page:172
         1 002046   000077 376007                    ANQ     63,DL
         1 002047   000000 471400 xsym               LDP1    KI_FEI$$
         1 002050   100000 236106                    LDQ     0,QL,PR1
         1 002051   200021 756100                    STQ     FEI$,,AUTO

      976     6141    2           CALL MMS$VGET(KI$FEI.FEWSQ ,B$PS3$,WSZ,KI$FEI.BD$ )

   6141  1 002052   000010 036003                    ADLQ    8,DU
         1 002053   200263 756100                    STQ     @SEV+5,,AUTO
         1 002054   200246 633500                    EPPR3   WSZ,,AUTO
         1 002055   200262 453500                    STP3    @SEV+4,,AUTO
         1 002056   000064 236000 2                  LDQ     52
         1 002057   200261 756100                    STQ     @SEV+3,,AUTO
         1 002060   200021 236100                    LDQ     FEI$,,AUTO
         1 002061   000005 036003                    ADLQ    5,DU
         1 002062   200260 756100                    STQ     @SEV+2,,AUTO
         1 002063   200260 630500                    EPPR0   @SEV+2,,AUTO
         1 002064   000022 631400 xsym               EPPR1   B_VECTNIL+18
         1 002065   000000 701000 xent               TSX1    MMS$VGET
         1 002066   002070 702000 1                  TSX2    s:6144
         1 002067   002104 710000 1                  TRA     s:6152

      977     6142    3           WHENALTRETURN DO;

      978     6143                   %LOCK (G=TD_OPENGATE);

   6144  1 002070   000043 630400 2                  EPPR0   35
         1 002071   000017 631400 xsym               EPPR1   B_VECTNIL+15
         1 002072   000000 701000 xent               TSX1    HFC$LOCK
         1 002073   000000 011000                    NOP     0

      979     6146    3              NI$DQH.STATUS.TND = 0;

   6146  1 002074   200006 470500                    LDP0    DQH$,,AUTO
         1 002075   000071 236000 2                  LDQ     57
         1 002076   000001 356100                    ANSQ    1,,PR0

PL6.E3A0      #003=TDP$OPEN File=TDP$PMME.:E05TSI                                WED 07/30/97 06:04 Page:173
      980     6147                   %UNLOCK(G=TD_OPENGATE);

   6148  1 002077   000043 630400 2                  EPPR0   35
         1 002100   000017 631400 xsym               EPPR1   B_VECTNIL+15
         1 002101   000000 701000 xent               TSX1    HFC$UNLOCK
         1 002102   000000 011000                    NOP     0

      981     6150    3              GOTO BADWINDOW;

   6150  1 002103   002002 710000 1                  TRA     BADWINDOW

      982     6151    3              END;
      983     6152    2           NI$DQH.USER#=B$JIT.USER;

   6152  1 002104   000000 470400 xsym               LDP0    B$JIT$
         1 002105   200006 471500                    LDP1    DQH$,,AUTO
         1 002106   000000 236100                    LDQ     0,,PR0
         1 002107   100020 552120                    STBQ    16,'20'O,PR1

      984     6153    2           NI$DQH.EVENTINFO = TDOPNV.SPEVENT;

   6153  1 002110   000000 473400 xsym               LDP3    B$PS0$
         1 002111   300001 235100                    LDA     1,,PR3
         1 002112   100017 755100                    STA     15,,PR1

      985     6154    2           DCB$->F$DCB.TYC='0'B;

   6154  1 002113   200004 474500                    LDP4    DCB$,,AUTO
         1 002114   400001 450100                    STZ     1,,PR4
         1 002115   400002 450100                    STZ     2,,PR4

      986     6155    2           DCB$->F$DCB.FUN=TDOPNV.TEST;

   6155  1 002116   200004 471500                    LDP1    DCB$,,AUTO
         1 002117   300002 236100                    LDQ     2,,PR3
         1 002120   770000 376003                    ANQ     -4096,DU
         1 002121   000014 772000                    QRL     12
PL6.E3A0      #003=TDP$OPEN File=TDP$PMME.:E05TSI                                WED 07/30/97 06:04 Page:174
         1 002122   100032 552120                    STBQ    26,'20'O,PR1

      987     6156    2           DCB$->F$DCB.XTNSIZE=WSZ/4096;

   6156  1 002123   200246 236100                    LDQ     WSZ,,AUTO
         1 002124   010000 506007                    DIV     4096,DL
         1 002125   000000 620006                    EAX0    0,QL
         1 002126   100037 740100                    STX0    31,,PR1

      988     6157    2           DCB$->F$DCB.IXTNSIZE=X;         /* NEED TO SAVE X FOR CLOSE           */

   6157  1 002127   200250 235100                    LDA     X,,AUTO
         1 002130   100041 755100                    STA     33,,PR1

      989     6158    2           DCB$->F$DCB.DQH$=DQH$;

   6158  1 002131   200006 236100                    LDQ     DQH$,,AUTO
         1 002132   100046 756100                    STQ     38,,PR1

      990     6159    2           DCB$->F$DCB.DEVADR.DVN=FEI#;

   6159  1 002133   200022 236100                    LDQ     FEI#,,AUTO
         1 002134   000014 736000                    QLS     12
         1 002135   100051 752104                    STCQ    41,'04'O,PR1

      991     6160    2           DCB$->F$DCB.CONNCT=0;

   6160  1 002136   100041 450100                    STZ     33,,PR1

      992     6161    2           DCB$->F$DCB.CHANTIME=0;

   6161  1 002137   100042 450100                    STZ     34,,PR1

      993     6162    2           DCB$->F$DCB.ASN=%T@D#;

   6162  1 002140   006000 236007                    LDQ     3072,DL
         1 002141   100032 552110                    STBQ    26,'10'O,PR1
PL6.E3A0      #003=TDP$OPEN File=TDP$PMME.:E05TSI                                WED 07/30/97 06:04 Page:175

      994     6163    2           DCB$->F$DCB.FCN='0'B;

   6163  1 002142   000000 221003                    LDX1    0,DU
         1 002143   100074 741100                    STX1    60,,PR1

      995     6164    2           DCB$->F$DCB.CFU$ = KI$FEI.BD$;

   6164  1 002144   200021 474500                    LDP4    FEI$,,AUTO
         1 002145   400010 236100                    LDQ     8,,PR4
         1 002146   100066 756100                    STQ     54,,PR1

      996     6165    2           DCB$->F$DCB.FCD='1'B;

   6165  1 002147   020000 236007                    LDQ     8192,DL
         1 002150   100031 256100                    ORSQ    25,,PR1

      997     6166    2           EL$DIAG.ACCN=B$JIT.ACCN;

   6166  1 002151   040100 100500                    MLR     fill='040'O
         1 002152   000001 000010                    ADSC9   1,,PR0                   cn=0,n=8
         1 002153   200007 000010                    ADSC9   EL$DIAG,,AUTO            cn=0,n=8

      998     6167    2           EL$DIAG.UNAME=B$JIT.UNAME;

   6167  1 002154   040100 100500                    MLR     fill='040'O
         1 002155   000003 000014                    ADSC9   3,,PR0                   cn=0,n=12
         1 002156   200011 000014                    ADSC9   EL$DIAG+2,,AUTO          cn=0,n=12

      999     6168    2           EL$DIAG.SYSID=B$JIT.SYSID;

   6168  1 002157   000000 722100                    LXL2    0,,PR0
         1 002160   200014 742100                    STX2    EL$DIAG+5,,AUTO

     1000     6169    2           EL$DIAG.DEVNM='FEP NNN';

   6169  1 002161   040100 100400                    MLR     fill='040'O
PL6.E3A0      #003=TDP$OPEN File=TDP$PMME.:E05TSI                                WED 07/30/97 06:04 Page:176
         1 002162   000005 000007 0                  ADSC9   LEN+5                    cn=0,n=7
         1 002163   200015 000010                    ADSC9   EL$DIAG+6,,AUTO          cn=0,n=8

     1001     6170    2           CALL BINCHAR(SUBSTR(EL$DIAG.DEVNM,4,3),KI$FEI.FEP#);

   6170  1 002164   400012 236100                    LDQ     10,,PR4
         1 002165   000011 772000                    QRL     9
         1 002166   000777 376007                    ANQ     511,DL
         1 002167   000000 235003                    LDA     0,DU
         1 002170   200260 757100                    STAQ    @SEV+2,,AUTO
         1 002171   000100 301500                    BTD
         1 002172   200260 000010                    NDSC9   @SEV+2,,AUTO             cn=0,s=lsgnf,sf=0,n=8
         1 002173   200016 030003                    NDSC9   EL$DIAG+7,,AUTO          cn=0,s=nosgn,sf=0,n=3

     1002     6171    2           EL$DIAG.TEST=TDOPNV.TEST;

   6171  1 002174   300002 236100                    LDQ     2,,PR3
         1 002175   000036 772000                    QRL     30
         1 002176   200017 756100                    STQ     EL$DIAG+8,,AUTO

     1003     6172    2           DCB$->F$DCB.NAME.L=6;

   6172  1 002177   006000 236003                    LDQ     3072,DU
         1 002200   100010 552140                    STBQ    8,'40'O,PR1

     1004     6173    2           DCB$->F$DCB.NAME.C=EL$DIAG.DEVNM;

   6173  1 002201   040100 100500                    MLR     fill='040'O
         1 002202   200015 000010                    ADSC9   EL$DIAG+6,,AUTO          cn=0,n=8
         1 002203   100010 200037                    ADSC9   8,,PR1                   cn=1,n=31

     1005     6174    2           CALL ELA$SYSLOG(EL_DIAG,EL$DIAG,SIZEW(EL$DIAG),'0'B,1,TEMP);

   6174  1 002204   200042 635500                    EPPR5   TEMP,,AUTO
         1 002205   200265 455500                    STP5    @SEV+7,,AUTO
         1 002206   000045 236000 2                  LDQ     37
         1 002207   200264 756100                    STQ     @SEV+6,,AUTO
PL6.E3A0      #003=TDP$OPEN File=TDP$PMME.:E05TSI                                WED 07/30/97 06:04 Page:177
         1 002210   000056 237000 2                  LDAQ    46
         1 002211   200262 757100                    STAQ    @SEV+4,,AUTO
         1 002212   200007 636500                    EPPR6   EL$DIAG,,AUTO
         1 002213   200261 456500                    STP6    @SEV+3,,AUTO
         1 002214   000060 236000 2                  LDQ     48
         1 002215   200260 756100                    STQ     @SEV+2,,AUTO
         1 002216   200260 630500                    EPPR0   @SEV+2,,AUTO
         1 002217   000024 631400 xsym               EPPR1   B_VECTNIL+20
         1 002220   000000 701000 xent               TSX1    ELA$SYSLOG
         1 002221   000000 011000                    NOP     0

     1006     6175    2           RETURN;

   6175  1 002222   200252 221300                    LDX1  ! X+2,,AUTO
         1 002223   000001 702211                    TSX2  ! 1,X1

     1007     6176    2   UNLOCK:
     1008     6177                %UNLOCK (G#=TD_OPENGATE);

   6178  1 002224   000043 630400 2     UNLOCK       EPPR0   35
         1 002225   000017 631400 xsym               EPPR1   B_VECTNIL+15
         1 002226   000000 701000 xent               TSX1    HFC$UNLOCK
         1 002227   000000 011000                    NOP     0

     1009     6180    2   XIT:    RETURN;

   6180  1 002230   200252 221300       XIT          LDX1  ! X+2,,AUTO
         1 002231   000001 702211                    TSX2  ! 1,X1

LEN
 Sect OctLoc
   0     000   010002 014004   004*** ******                                    ........

(unnamed)
 Sect OctLoc
   0     002   106105 120040   240420 000000   103120 066040   106105 120040    FEP ....CP6 FEP
   0     006   116116 116040                                                    NNN
PL6.E3A0      #003=TDP$OPEN File=TDP$PMME.:E05TSI                                WED 07/30/97 06:04 Page:178

(unnamed)
 Sect OctLoc
   2     000   000000 000144   000006 006000   000000 006000   777777 377777    ...d............
   2     004   000000 001644   000004 006000   000000 001610   000006 006000    ................
   2     010   000000 001617   000010 006000   777377 777777   000000 001607    ................
   2     014   000013 006000   200000 000000   000000 000036   000000 000031    ................
   2     020   000007 006000   000000 006000   000015 006000   000016 006000    ................
   2     024   000000 000024   000024 006000   000017 006000   000000 001612    ................
   2     030   000027 006000   000000 001613   000031 006000   000000 001650    ................
   2     034   000033 006000   000000 001662   000035 006000   000000 001661    ................
   2     040   000037 006000   000000 001611   000041 006000   000000 006000    .........!......
   2     044   607777 777777   000003 006000   777777 776777   000012 006000    ................
   2     050   100000 000000   000000 000231   000050 006000   000051 006000    @........(...)..
   2     054   000004 006000   000000 000156   000013 006000   000002 006000    .......n........
   2     060   000055 006000   000000 001451   000061 006000   000007 777777    .-.......1......
   2     064   000000 006000   000000 001645   000065 006000   000000 001646    .........5......
   2     070   000067 006000   703777 777777                                    .7......
     1010     6181    2   END OPEN_FEP;
     1011     6182    1   END TDP$OPEN;
     1012     6183        %EOD;

PL6.E3A0      #003=TDP$OPEN File=TDP$PMME.:E05TSI                                WED 07/30/97 06:04 Page:179
--  Include file information  --

   UQ_ERRORS_C.:E05TOU  is referenced.
   TD_ERRORS_C.:E05TOU  is referenced.
   TD$CP6V_C.:E05TOU  is referenced.
   SS_SCHED_C.:E05TOU  is referenced.
   OC_SUBS_C.:E05TOU  is referenced.
   N_FC_C.:E05TOU  is referenced.
   NI_MACROS_C.:E05TOU  cannot be made into a system file and is referenced.
   NI$TABLES.:E05TOU  is referenced.
   N$REQ.:E05TOU  is referenced.
   NI_DATA_R.:E05TOU  cannot be made into a system file and is referenced.
   NI_DATA_C.:E05TOU  is referenced.
   M_INFO_C.:E05TOU  is referenced.
   KI_SUBS_C.:E05TOU  is referenced.
   KI_MACROS_C.:E05TOU  is referenced.
   KI_DATA_R.:E05TOU  cannot be made into a system file and is referenced.
   JG_GHOSTS_C.:E05TOU  is referenced.
   HF_LOCK_C.:E05TOU  cannot be made into a system file and is referenced.
   F_ERRORS_C.:E05TOU  is referenced.
   FR$RAT.:E05TOU  is referenced.
   FM$GRAN.:E05TOU  is referenced.
   F$DCB.:E05TOU  cannot be made into a system file and is referenced.
   EL_SUBS_C.:E05TOU  is referenced.
   EL$TABLES.:E05TOU  is referenced.
   CP_6_SUBS.:E05TOU  is referenced.
   B_STRINGS_C.:E05TOU  is referenced.
   B$USER.:E05TOU  cannot be made into a system file and is referenced.
   B$MAP.:E05TOU  cannot be made into a system file and is referenced.
   B$JIT_C.:E05TOU  is referenced.
   B$JIT.:E05TOU  cannot be made into a system file and is referenced.
      No diagnostics issued in procedure TDP$OPEN.
PL6.E3A0      #003=TDP$OPEN File=TDP$PMME.:E05TSI                                WED 07/30/97 06:04 Page:180

 **** Variables and constants ****

  ****  Section 000 RoData TDP$OPEN

  ****  Scalars and arrays  ****
OctLoc.c.b A Datatyp(siz) R M Lvl/name                 OctLoc.c.b A Datatyp(siz) R M Lvl/name

     0-0-0/b UBIN(9)     r     1 LEN(0:4)

  ****  Auto variables  ****

  ****  Scalars and arrays  ****
OctLoc.c.b A Datatyp(siz) R M Lvl/name                 OctLoc.c.b A Datatyp(siz) R M Lvl/name

   255-0-0/w PTR         r     1 @ERRCODE                 256-0-0/w PTR         r     1 @SEV
     4-0-0/w PTR         r     1 DCB$                       5-0-0/w PTR         r     1 DCT$
     6-0-0/w PTR         r     1 DQH$                       7-0-0/w STRC(324)   r     1 EL$DIAG
    *0-0-0/w UBIN        r     1 ERRCODE                   20-0-0/w PTR         r     1 EXTST$
    22-0-0/w UBIN        r     1 FEI#                      21-0-0/w PTR         r     1 FEI$
    23-0-0/w SBIN        r     1 I                        253-0-0/w SBIN        r     1 I
    24-0-0/w PTR         r     1 MPC$                      25-0-0/w BIT         r     1 MPCFLG
    26-0-0/w STRC(270)   r     1 MSG                       36-0-0/w PTR         r     1 P$
    37-0-0/w BIT         r     1 PATH                      40-0-0/w PTR         r     1 Q$
    *0-0-0/w UBIN        r     1 SEV                       41-0-0/w PTR         r     1 SQH$
    42-0-0/w UBIN        r     1 TEMP                      44-0-0/w PTR         r     1 VID$
    45-0-0/c CHAR(256)   r     1 VIDBUF1                  145-0-0/c CHAR(256)   r     1 VIDBUF2
   246-0-0/w SBIN        r     1 WSZ                      250-0-0/w SBIN        r     1 X

  ****  SYMREF variables  ****

  ****  Scalars and arrays  ****
OctLoc.c.b A Datatyp(siz) R M Lvl/name                 OctLoc.c.b A Datatyp(siz) R M Lvl/name

     0-0-0/w PTR         r     1 B$JIT$                     0-0-0/w PTR         r     1 B$PS0$
     0-0-0/w PTR         r     1 B$PS1$                     0-0-0/w PTR         r     1 B$PS2$
     0-0-0/w PTR         r     1 B$PS3$                     0-0-0/w PTR         r     1 KI_FEI$$
     0-0-0/w UBIN        r     1 KI_MXFE                    0-0-0/w UBIN        r     1 KI_NODES
PL6.E3A0      #003=TDP$OPEN File=TDP$PMME.:E05TSI                                WED 07/30/97 06:04 Page:181
     0-0-0/w PTR         r     1 N$DCT$$                    0-0-0/w PTR         r     1 N$FQ$
     0-0-0/w PTR         r     1 NI$CHT$                    0-0-0/w PTR         r     1 NI$FQ$
     0-0-0/w PTR         r     1 NI$IBUF$                   0-0-0/w PTR         r     1 NI$RP$
     0-0-0/w PTR         r     1 S$CU$                      0-0-0/b BIT (72)    r     1 TD_OPENGATE

  ****  BASED and DCB variables  ****

  ****  Scalars and arrays  ****
OctLoc.c.b A Datatyp(siz) R M Lvl/name                 OctLoc.c.b A Datatyp(siz) R M Lvl/name

     0-0-0/d STRC(8856)  r     1 B$JIT                      0-0-0/d STRC(576)   r     1 B$U
     0-0-0/w UBIN        r     1 CHAINIMG(0:59)
     0-0-0/w STRC(1332)  r     1 DCT                        0-0-0/w STRC(2844)  r     1 DVT
     0-0-0/d ASTR(3528)  r     1 F$DCB                      0-0-0/w STRC(36864) r     1 FM$VID
     0-0-0/d STRC(144)   r     1 FPT$TDOPEN_V               0-0-0/w STRC(324)   r     1 FR$RAT
     0-0-0/w STRC(612)   r     1 KI$FEI
     0-0-0/w PTR         r     1 KI$FEI$(0:0)
     0-0-0/w PTR         r     1 N$DCT$(0:0)                0-0-0/d STRC(1080)  r     1 N$REQ
     0-0-0/w STRC(72)    r     1 NI$CHT(0:0)                0-0-0/w STRC(648)   r     1 NI$DQH
     0-0-0/w STRC(288)   r     1 NI$EXTST                   0-0-0/w STRC(252)   r     1 NI$SQH
     0-0-0/c ACHR        r     1 VFCIMG


   Procedure TDP$OPEN requires 1178 words for executable code.
   Procedure TDP$OPEN requires 182 words of local(AUTO) storage.
PL6.E3A0      #003=TDP$OPEN File=TDP$PMME.:E05TSI                                WED 07/30/97 06:04 Page:182
          *** CROSS REFERENCE LISTING ***
**     DENOTES     IDENTIFIER DEFINITION
<<                 IDENTIFIER'S VALUE SET
>>                 IDENTIFIER'S VALUE USED
<>                 IDENTIFIER SET AND/OR USED
--                 IDENTIFIER REFERENCED
PL6.E3A0      #003=TDP$OPEN File=TDP$PMME.:E05TSI                                WED 07/30/97 06:04 Page:183
          MINI XREF LISTING

B$DO.ECCINFO
       864**DCL       865--REDEF
B$JIT.ACCN
       338**DCL      5851>>ASSIGN   6042>>ASSIGN   6166>>ASSIGN
B$JIT.CPFLAGS1.SLEAZE
       432**DCL       432--REDEF
B$JIT.DCB$
       506**DCL      5793>>ASSIGN
B$JIT.ERR
       338**DCL      6072<<ASSIGN
B$JIT.ERR.CODE
       339**DCL      6073<<ASSIGN
B$JIT.ERR.MID
       339**DCL       339--REDEF
B$JIT.ERR.SEV
       339**DCL      6074<<ASSIGN
B$JIT.JRESPEAK
       500**DCL       501--REDEF
B$JIT.ORIGINATOR_PORT.FROM_CR
       609**DCL       609--REDEF     610--REDEF
B$JIT.PNR
       513**DCL       513--REDEF
B$JIT.SYSID
       338**DCL      5852>>ASSIGN   6044>>ASSIGN   6168>>ASSIGN
B$JIT.TSLINE
       607**DCL       608--REDEF
B$JIT.UNAME
       338**DCL      5853>>ASSIGN   6043>>ASSIGN   6167>>ASSIGN
B$JIT.USER
       338**DCL      5845>>IF       5966>>ASSIGN   6004>>ASSIGN   6152>>ASSIGN
B$JIT$
      5410**DCL       333--IMP-PTR  5793>>ASSIGN   5845>>IF       5851>>ASSIGN   5852>>ASSIGN   5853>>ASSIGN
PL6.E3A0      #003=TDP$OPEN File=TDP$PMME.:E05TSI                                WED 07/30/97 06:04 Page:184
      5966>>ASSIGN   6004>>ASSIGN   6042>>ASSIGN   6043>>ASSIGN   6044>>ASSIGN   6072>>ASSIGN   6073>>ASSIGN
      6074>>ASSIGN   6152>>ASSIGN   6166>>ASSIGN   6167>>ASSIGN   6168>>ASSIGN
B$MAP.SCTRL
       657**DCL       658--REDEF
B$PS0$
      5411**DCL      5800>>IF       5806>>IF       5813>>IF       5820>>IF       5820>>IF       5826>>IF
      5826>>IF       5826>>IF       5833>>CALL     5850>>IF       5850>>IF       5854>>ASSIGN   5856>>IF
      5856>>IF       5867>>DOCASE   5871>>IF       5929>>DOINDEX  5945>>IF       5945>>IF       5956>>ASSIGN
      5964>>ASSIGN   5965>>ASSIGN   5967>>DOCASE   6019>>ASSIGN   6036>>ASSIGN   6046>>ASSIGN   6061>>IF
      6136>>ASSIGN   6153>>ASSIGN   6155>>ASSIGN   6171>>ASSIGN
B$PS1$
      5412**DCL      6025>>ASSIGN
B$PS2$
      5413**DCL      6029>>ASSIGN
B$PS3$
      5414**DCL      6122<>CALL     6123<>CALL     6141<>CALL
B$U.FLG.TDNOPERM
       743**DCL      5855<<ASSIGN   5860>>IF
B$U.FLG.TDOPPERM
       741**DCL      5819<<ASSIGN   5846<<ASSIGN   5848<<ASSIGN   5859>>DOWHILE
B$U.MISC
       843**DCL       844--REDEF
B$USER.MISC
       919**DCL       920--REDEF
BADRET
      6068**PROC     5794--CALL     5810--CALL     5814--CALL     5840--CALL     5862--CALL     5871--CALL
      5873--CALL     5901--CALL     5904--CALL     5905--CALL     5906--CALL     5912--CALL     5914--CALL
      5920--CALL     5921--CALL     5927--CALL     5935--CALL     5938--CALL     5943--CALL     5951--CALL
      5957--CALL     6050--CALL     6052--CALL     6118--CALL     6125--CALL     6135--CALL
BADWINDOW IN PROCEDURE OPEN_FEP
      6125**LABEL    6122--CALLALT  6150--GOTO
BRKYC
      6050**LABEL    5864--CALLALT
CHAINIMG
      5461**DCL      6025<<ASSIGN   6025>>ASSIGN
CHECK_SDSK
PL6.E3A0      #003=TDP$OPEN File=TDP$PMME.:E05TSI                                WED 07/30/97 06:04 Page:185
      6078**PROC     5869--CALL     5910--CALL     5915--CALL
DCB$
      5426**DCL      5793<<ASSIGN   5794>>IF       5798<>CALL     5799>>ASSIGN   5816>>ASSIGN   5817>>CALLBLT
      5818>>ASSIGN   5843>>ASSIGN   5844>>ASSIGN   6018>>ASSIGN   6019>>ASSIGN   6020>>ASSIGN   6021>>ASSIGN
      6023>>ASSIGN   6032>>ASSIGN   6033>>ASSIGN   6034>>ASSIGN   6035>>ASSIGN   6036>>ASSIGN   6037>>ASSIGN
      6038>>ASSIGN   6039>>ASSIGN   6040>>ASSIGN   6041>>ASSIGN   6085>>ASSIGN   6113>>ASSIGN   6154>>ASSIGN
      6155>>ASSIGN   6156>>ASSIGN   6157>>ASSIGN   6158>>ASSIGN   6159>>ASSIGN   6160>>ASSIGN   6161>>ASSIGN
      6162>>ASSIGN   6163>>ASSIGN   6164>>ASSIGN   6165>>ASSIGN   6172>>ASSIGN   6173>>ASSIGN
DCT
      5471**DCL      5976<>CALL     5978<>CALL     6000<>CALL     6002<>CALL
DCT.DCTX
      5472**DCL      5874>>ASSIGN   6012>>ASSIGN   6082>>ASSIGN
DCT.DEVNM
      5471**DCL      5842>>ASSIGN   5843>>ASSIGN   6045>>ASSIGN
DCT.DFLG.MPCBUSY
      5476**DCL      5872>>IF       5905>>IF
DCT.DFLG.MPCSTOP
      5476**DCL      5878>>IF       5889>>IF       5982>>DOWHILE  5988<<ASSIGN
DCT.DFLG.MPCSUSPENDED
      5476**DCL      5878>>IF       5889>>IF
DCT.DP
      5491**DCL      5498--REDEF    5501--REDEF    5502--REDEF    5504--REDEF    5504--REDEF    5505--REDEF
      5506--REDEF    5506--REDEF
DCT.DVT$
      5487**DCL      6099>>IF
DCT.LP.CHAIN$
      5501**DCL      6025>>ASSIGN
DCT.LP.VFC$
      5501**DCL      6029>>ASSIGN
DCT.LP.VFCL
      5501**DCL      6027>>IF       6028>>ASSIGN
DCT.MCA.RESERVED
      5506**DCL      5925>>IF       6005<<ASSIGN
DCT.MCA.USER#
      5506**DCL      6004<<ASSIGN
DCT.MPC.ALTMPCX
PL6.E3A0      #003=TDP$OPEN File=TDP$PMME.:E05TSI                                WED 07/30/97 06:04 Page:186
      5500**DCL      5977>>IF       5978>>CALL     6001>>IF       6002>>CALL
DCT.MPC.IOCHANX
      5499**DCL      5499--REDEF
DCT.MPC.TYPE
      5499**DCL      5875>>IF
DCT.RAT$
      5472**DCL      5945>>IF       5945>>IF
DCT.SPEVENT
      5487**DCL      5965<<ASSIGN
DCT.STATUS.DOWN
      5488**DCL      5878>>IF       5889>>IF       5913>>IF       5942>>IF       5945>>IF
DCT.STATUS.MSOS_PART
      5490**DCL      5878>>IF       5889>>IF
DCT.STATUS.SYSCON_PART
      5489**DCL      5878>>IF       5889>>IF
DCT.STATUS.TDOK
      5489**DCL      5848>>ASSIGN   5942>>IF
DCT.STATUS.TND
      5489**DCL      5872>>IF       5904>>IF       5956>>IF       5956<<ASSIGN   5964<<ASSIGN   5969<<ASSIGN
DCT.TDUSER#
      5490**DCL      5845>>IF       5966<<ASSIGN
DCT.TYPE
      5481**DCL      5869>>IF       5910>>IF       5912>>IF       5920>>IF       5940>>DOCASE   6020>>ASSIGN
      6021>>IF
DCT$
      5427**DCL      5471--IMP-PTR  5801<<ASSIGN   5833<>CALL     5834>>IF       5842>>ASSIGN   5843>>ASSIGN
      5845>>IF       5848>>ASSIGN   5869>>IF       5874>>ASSIGN   5875>>IF       5878>>IF       5878>>IF
      5878>>IF       5878>>IF       5878>>IF       5886>>IF       5910>>IF       5912>>IF       5913>>IF
      5920>>IF       5925>>IF       5940>>DOCASE   5942>>IF       5942>>IF       5945>>IF       5945>>IF
      5945>>IF       5956>>IF       5956>>ASSIGN   5964>>ASSIGN   5965>>ASSIGN   5966>>ASSIGN   6004>>ASSIGN
      6005>>ASSIGN   6012>>ASSIGN   6020>>ASSIGN   6021>>IF       6025>>ASSIGN   6027>>IF       6028>>ASSIGN
      6029>>ASSIGN   6033>>ASSIGN   6045>>ASSIGN   6082>>ASSIGN   6099>>IF
DQH$
      5428**DCL      5721--IMP-PTR  5812<<ASSIGN   5813>>IF       5819>>ASSIGN   5833<>CALL     5835>>ASSIGN
      5906>>IF       5921>>IF       5930>>ASSIGN   5989>>IF       5990>>ASSIGN   5992>>CALL     6032>>ASSIGN
      6118>>IF       6134>>IF       6134>>IF       6136>>ASSIGN   6140>>ASSIGN   6146>>ASSIGN   6152>>ASSIGN
PL6.E3A0      #003=TDP$OPEN File=TDP$PMME.:E05TSI                                WED 07/30/97 06:04 Page:187
      6153>>ASSIGN   6158>>ASSIGN
DVT.MPC
      5513**DCL      5514--REDEF
DVT.PACKSIZE
      5512**DCL      6099>>IF
EL$DIAG
      5430**DCL      6047<>CALL     6047--CALL     6174<>CALL     6174--CALL
EL$DIAG.ACCN
      5430**DCL      6042<<ASSIGN   6166<<ASSIGN
EL$DIAG.DEVNM
      5430**DCL      6045<<ASSIGN   6169<<ASSIGN   6170<<CALLBLT  6173>>ASSIGN
EL$DIAG.SYSID
      5430**DCL      6044<<ASSIGN   6168<<ASSIGN
EL$DIAG.TEST
      5430**DCL      6046<<ASSIGN   6171<<ASSIGN
EL$DIAG.UNAME
      5430**DCL      6043<<ASSIGN   6167<<ASSIGN
ELA$SYSLOG
      5392**DCL-ENT  6047--CALL     6174--CALL
ERRCODE IN PROCEDURE BADRET
      6069**DCL      6068--PROC     6073>>ASSIGN
EXTST$
      5432**DCL      6013<>CALL     6035>>ASSIGN
F$DCB.ACTPOS
      2031**DCL      2031--REDEF
F$DCB.ARS
      2006**DCL      2006--REDEF
F$DCB.ASN
      2021**DCL      6039<<ASSIGN   6162<<ASSIGN
F$DCB.ATTR
      2024**DCL      2025--REDEF
F$DCB.BORROW
      2039**DCL      2039--REDEF    2039--REDEF    2039--REDEF
F$DCB.CFU$
      2040**DCL      6164<<ASSIGN
F$DCB.CHANTIME
PL6.E3A0      #003=TDP$OPEN File=TDP$PMME.:E05TSI                                WED 07/30/97 06:04 Page:188
      2026**DCL      6038<<ASSIGN   6161<<ASSIGN
F$DCB.CONNCT
      2025**DCL      6037<<ASSIGN   6160<<ASSIGN
F$DCB.DCBNAME.L
      2053**DCL      2053--IMP-SIZ
F$DCB.DCT$
      2028**DCL      6033<<ASSIGN
F$DCB.DEVADR
      2028**DCL      6036<<ASSIGN
F$DCB.DEVADR.DVN
      2028**DCL      6159<<ASSIGN
F$DCB.DQH$
      2027**DCL      6032<<ASSIGN   6158<<ASSIGN
F$DCB.DVTYPE
      2020**DCL      6020<<ASSIGN
F$DCB.EOMCHAR
      2010**DCL      2010--REDEF
F$DCB.FCD
      2019**DCL      5794>>IF       6041<<ASSIGN   6165<<ASSIGN
F$DCB.FCN
      2043**DCL      6040<<ASSIGN   6163<<ASSIGN
F$DCB.FLDID
      2034**DCL      2034--REDEF
F$DCB.FORM$
      2028**DCL      2028--REDEF
F$DCB.FSECT
      2044**DCL      2044--REDEF
F$DCB.FSN
      2021**DCL      2021--REDEF    2021--REDEF    2022--REDEF
F$DCB.FUN
      2020**DCL      6019<<ASSIGN   6155<<ASSIGN
F$DCB.HEADER$
      2027**DCL      2027--REDEF
F$DCB.IXTNSIZE
      2025**DCL      2025--REDEF    6157<<ASSIGN
F$DCB.LASTSTA$
PL6.E3A0      #003=TDP$OPEN File=TDP$PMME.:E05TSI                                WED 07/30/97 06:04 Page:189
      2015**DCL      2015--REDEF
F$DCB.LVL
      2040**DCL      2040--REDEF
F$DCB.MPC$
      2028**DCL      6034<<ASSIGN
F$DCB.NAME.C
      2015**DCL      2015--REDEF    5816<<ASSIGN   5817<<CALLBLT  5843<<ASSIGN   6173<<ASSIGN
F$DCB.NAME.L
      2015**DCL      5818<<ASSIGN   5844<<ASSIGN   6172<<ASSIGN
F$DCB.NOEOF
      2036**DCL      2036--REDEF
F$DCB.NRECS
      2026**DCL      2026--REDEF
F$DCB.NRECX
      2045**DCL      2045--REDEF
F$DCB.OHDR
      2037**DCL      2037--REDEF
F$DCB.ORG
      2020**DCL      2020--REDEF
F$DCB.PRECNO
      2043**DCL      2043--REDEF
F$DCB.RCSZ
      2048**DCL      2048--REDEF
F$DCB.RES
      2016**DCL      2016--REDEF
F$DCB.SETX
      2028**DCL      2028--REDEF
F$DCB.TAB$
      2027**DCL      2028--REDEF
F$DCB.TDA
      2042**DCL      2042--REDEF
F$DCB.TDEXTST$
      2015**DCL      6035<<ASSIGN
F$DCB.TDFLG.SDSK
      2025**DCL      5799<<ASSIGN   6113<<ASSIGN
F$DCB.TYC
PL6.E3A0      #003=TDP$OPEN File=TDP$PMME.:E05TSI                                WED 07/30/97 06:04 Page:190
      2006**DCL      6018<<ASSIGN   6154<<ASSIGN
F$DCB.WIDTH
      2013**DCL      6021<<ASSIGN   6023<<ASSIGN
F$DCB.WSN
      2017**DCL      2017--REDEF
F$DCB.XTNSIZE
      2023**DCL      6156<<ASSIGN
FEI#
      5434**DCL      5804<<DOINDEX  5805>>ASSIGN   6118>>IF       6159>>ASSIGN
FEI$
      5433**DCL      5580--IMP-PTR  5805<<ASSIGN   5806>>IF       5812>>ASSIGN   5815>>ASSIGN   5835<<ASSIGN
      5836>>IF       5836>>IF       5836>>IF       6140<<ASSIGN   6141>>CALL     6141>>CALL     6164>>ASSIGN
      6170>>CALLBLT
FM$VID.DTT
      5520**DCL      5520--REDEF
FM$VID.ID
      5518**DCL      6096>>IF
FM$VID.SECTSTRT
      5519**DCL      6099>>IF       6099>>IF       6103>>ASSIGN
FM$VID.VOLCNT
      5518**DCL      6097>>IF       6105>>IF
FMM$SCRUB
      5393**DCL-ENT  5798--CALL
FOUND_FEP
      5805**LABEL    5808--GOTO
FPT$TDOPEN_V.DEVICE
      5524**DCL      5833<>CALL     6036>>ASSIGN
FPT$TDOPEN_V.DEVICE.DVN
      5524**DCL      5806>>IF       5813>>IF       5871>>IF
FPT$TDOPEN_V.NCHANS
      5525**DCL      5929>>DOINDEX
FPT$TDOPEN_V.SPEVENT
      5524**DCL      5965>>ASSIGN   6153>>ASSIGN
FPT$TDOPEN_V.TEST
      5524**DCL      5800>>IF       5820>>IF       5820>>IF       5826>>IF       5826>>IF       5826>>IF
      5850>>IF       5850>>IF       5854>>ASSIGN   5856>>IF       5856>>IF       5867>>DOCASE   5945>>IF
PL6.E3A0      #003=TDP$OPEN File=TDP$PMME.:E05TSI                                WED 07/30/97 06:04 Page:191
      5945>>IF       5956>>ASSIGN   5964>>ASSIGN   5967>>DOCASE   6019>>ASSIGN   6046>>ASSIGN   6061>>IF
      6136>>ASSIGN   6155>>ASSIGN   6171>>ASSIGN
FR$RAT.RES.SISID
      5532**DCL      5945>>IF       5945>>IF
FSA$GSP
      5394**DCL-ENT  6013--CALL
GOT_FEP
      5815**LABEL    5838--GOTO
HFC$LOCK
      2429**DCL-ENT  5923--CALL     5954--CALL     5986--CALL     6132--CALL     6144--CALL
HFC$UNLOCK
      2429**DCL-ENT  5959--CALL     5996--CALL     6007--CALL     6058--CALL     6064--CALL     6138--CALL
      6148--CALL     6178--CALL
HFF$DSIZ
      5395**DCL-ENT  6024--CALL     6026--CALL     6123--CALL
HFF$NILERASE
      5396**DCL-ENT  6122--CALL
I
      5435**DCL      5885<<DOINDEX  5886>>IF       5886>>IF       5889>>IF       5889>>IF       5889>>IF
      5889>>IF       5889>>IF       5929<<DOINDEX  5930>>ASSIGN   5974<<DOINDEX  5975>>IF       5976>>CALL
      5977>>IF       5978>>CALL
I IN PROCEDURE CHECK_SDSK
      6079**DCL      6098<<DOINDEX  6099>>IF       6099>>IF       6103>>ASSIGN
KI$FEI.BD$
      5615**DCL      5616--REDEF    6141<>CALL     6164>>ASSIGN
KI$FEI.BDAD.WADDR
      5617**DCL      5618--REDEF
KI$FEI.FECH
      5582**DCL      5812>>ASSIGN
KI$FEI.FEP#
      5625**DCL      5806>>IF       5815>>ASSIGN   6170>>CALLBLT
KI$FEI.FEST
      5585**DCL      5836>>IF       5836>>IF
KI$FEI.FEWSQ
      5608**DCL      6141<>CALL
KI$FEI.PBST.PROB
PL6.E3A0      #003=TDP$OPEN File=TDP$PMME.:E05TSI                                WED 07/30/97 06:04 Page:192
      5633**DCL      5836>>IF
KI$FEI.RCVPB
      5631**DCL      5632--REDEF
KI$FEI$
      2532**DCL      5805>>ASSIGN   5835>>ASSIGN   6140>>ASSIGN
KI_FEI$$
      2531**DCL      2532--IMP-PTR  5805>>ASSIGN   5835>>ASSIGN   6140>>ASSIGN
KI_MXFE
      2540**DCL      5804>>DOINDEX
KI_NODES
      2539**DCL      5813>>IF
LEN
      5787**DCL      5863<>CALL     6014<>CALL
MCA_UNLK
      6061**LABEL    5927--CALLALT
MMS$VGET
      5401**DCL-ENT  6141--CALL
MPC$
      5436**DCL      5803<<ASSIGN   5833<>CALL     5872>>IF       5872>>IF       5904>>IF       5905>>IF
      5969>>ASSIGN   5975>>IF       5982>>DOWHILE  5988>>ASSIGN   6000>>CALL     6001>>IF       6002>>CALL
      6034>>ASSIGN
MPCFLG
      5437**DCL      5830<<ASSIGN   5832<<ASSIGN   5833<>CALL
MSG
      5438**DCL      5863<>CALL     6014<>CALL
MSG.ACCT
      5439**DCL      5851<<ASSIGN
MSG.DEVNM
      5442**DCL      5443--REDEF    5842<<ASSIGN
MSG.FEPNO
      5443**DCL      5815<<ASSIGN   5817>>CALLBLT
MSG.NAME
      5441**DCL      5853<<ASSIGN
MSG.SYSID
      5440**DCL      5852<<ASSIGN
MSG.TEST
PL6.E3A0      #003=TDP$OPEN File=TDP$PMME.:E05TSI                                WED 07/30/97 06:04 Page:193
      5444**DCL      5854<<ASSIGN
N$DCT$
      3975**DCL      5978>>CALL     6002>>CALL
N$DCT$$
      3841**DCL      3975--IMP-PTR  5978>>CALL     6002>>CALL
N$FQ$
      3841**DCL      3976--IMP-PTR
N$REQ
      5660**DCL      6087<>CALL     6094<>CALL     6104<>CALL
N$REQ.BPMIR
      5705**DCL      6084<<ASSIGN
N$REQ.BUF$
      5669**DCL      6091<<ASSIGN   6100<<ASSIGN
N$REQ.BUFADDR
      5669**DCL      5670--REDEF    5670--REDEF
N$REQ.BUFSIZE
      5663**DCL      6092<<ASSIGN   6101<<ASSIGN
N$REQ.DCB$
      5691**DCL      6085<<ASSIGN
N$REQ.DLA.DCTX
      5660**DCL      6082<<ASSIGN
N$REQ.DLA.DRELADDR
      5661**DCL      5661--REDEF    6093<<ASSIGN   6103<<ASSIGN
N$REQ.DVE.EOMCHAR
      5698**DCL      5699--REDEF
N$REQ.EAINFO
      5692**DCL      5692--REDEF
N$REQ.EAINFOX
      5692**DCL      5693--REDEF
N$REQ.EVNTINFO
      5693**DCL      5693--REDEF
N$REQ.FC
      5663**DCL      6083<<ASSIGN   6089<<ASSIGN
N$REQ.OPFLG
      5666**DCL      6086<<ASSIGN   6090<<ASSIGN   6102<<ASSIGN
N$REQ.STATUS
PL6.E3A0      #003=TDP$OPEN File=TDP$PMME.:E05TSI                                WED 07/30/97 06:04 Page:194
      5674**DCL      5680--REDEF
N$REQ.STATUS.MAJOR
      5674**DCL      6088>>IF
N$REQ_INIT.BUFADDR
      3860**DCL      3861--REDEF    3861--REDEF
N$REQ_INIT.DLA.DRELADDR
      3852**DCL      3852--REDEF
N$REQ_INIT.DVE.EOMCHAR
      3889**DCL      3890--REDEF
N$REQ_INIT.EAINFO
      3883**DCL      3883--REDEF
N$REQ_INIT.EAINFOX
      3883**DCL      3884--REDEF
N$REQ_INIT.EVNTINFO
      3884**DCL      3884--REDEF
N$REQ_INIT.STATUS
      3865**DCL      3871--REDEF
NI$CHT.DQH$
      5710**DCL      5812>>ASSIGN   5930>>ASSIGN
NI$CHT$
      3900**DCL      5710--IMP-PTR  5812>>ASSIGN   5930>>ASSIGN
NI$DQH
      5721**DCL      5992<>CALL
NI$DQH.CHANSTATE.STOP
      5729**DCL      5990<<ASSIGN
NI$DQH.EVENTINFO
      5729**DCL      6153<<ASSIGN
NI$DQH.FEX
      5724**DCL      5835>>ASSIGN   6118>>IF       6140>>ASSIGN
NI$DQH.IOCHANX
      5723**DCL      5724--REDEF    5930>>ASSIGN
NI$DQH.MBX$
      5732**DCL      5733--REDEF
NI$DQH.STATUS.DOWN
      5721**DCL      5906>>IF       5921>>IF       5933>>IF       5989>>IF       6134>>IF
NI$DQH.STATUS.TDOK
PL6.E3A0      #003=TDP$OPEN File=TDP$PMME.:E05TSI                                WED 07/30/97 06:04 Page:195
      5722**DCL      5819>>ASSIGN
NI$DQH.STATUS.TND
      5722**DCL      6134>>IF       6136<<ASSIGN   6146<<ASSIGN
NI$DQH.USER#
      5731**DCL      6152<<ASSIGN
NI$EXTST
      5740**DCL      6013--CALL
NI$EXTST.EXTST
      5744**DCL      5746--REDEF    5748--REDEF
NI$FQ$
      3901**DCL      3977--IMP-PTR
NI$IBUF$
      3901**DCL      3977--IMP-PTR
NI$IMXMBX_INIT.PAGED_BASE
      3911**DCL      3912--REDEF    3912--REDEF
NI$IMXMBX_INIT.SIZE
      3913**DCL      3913--REDEF
NI$REQ_INIT.DCW
      3935**DCL      3938--REDEF
NI$REQ_INIT.DCW.TALLY
      3936**DCL      3936--REDEF
NI$REQ_INIT.IDCW.EXTA
      3938**DCL      3938--REDEF
NI$REQ_INIT.PCW
      3940**DCL      3944--REDEF
NI$REQ_INIT.SEEK
      3945**DCL      3946--REDEF    3947--REDEF
NI$RP$
      3949**DCL      3979--IMP-PTR
NI$SQH.CQ$
      5779**DCL      5992<>CALL
NI$SQH.DOOR
      5778**DCL      5778--REDEF
NI$SQH.GATE
      5778**DCL      5923<>CALL     5986<>CALL     5996<>CALL     6007<>CALL     6064<>CALL
NI$SQH.MPC$
PL6.E3A0      #003=TDP$OPEN File=TDP$PMME.:E05TSI                                WED 07/30/97 06:04 Page:196
      5780**DCL      5886>>IF       5886>>IF       5889>>IF       5889>>IF       5889>>IF       5889>>IF
      5889>>IF       5975>>IF       5976>>CALL     5977>>IF       5978>>CALL
NIM$ENQUEUE
      4005**DCL-ENT  5992--CALL
NIO$QUE
      5399**DCL-ENT  6087--CALL     6094--CALL     6104--CALL
NIQ$GET
      5397**DCL-ENT  6081--CALL
NIQ$REL
      5398**DCL-ENT  6109--CALL     6112--CALL
NIW$MPCSTOP
      5400**DCL-ENT  5976--CALL     5978--CALL     6000--CALL     6002--CALL
NI_MBX_INIT.DCW.CONTROL.AE
      3971**DCL      3971--REDEF
NI_MBX_INIT.LPW.CONTROL.AE
      3967**DCL      3967--REDEF
OCI$MK_WR
      5402**DCL-ENT  5863--CALL     6014--CALL
OPEN_FEP
      6117**PROC     5917--CALL
P$
      5445**DCL      5930<<ASSIGN   5931>>IF       5933>>IF
PATH
      5867**LABEL    5877<<ASSIGN   5884<<ASSIGN   5897<<ASSIGN   5899>>IF
Q$
      5447**DCL      5660--IMP-PTR  6081<>CALL     6082>>ASSIGN   6083>>ASSIGN   6084>>ASSIGN   6085>>ASSIGN
      6086>>ASSIGN   6087>>CALL     6088>>IF       6089>>ASSIGN   6090>>ASSIGN   6091>>ASSIGN   6092>>ASSIGN
      6093>>ASSIGN   6094>>CALL     6100>>ASSIGN   6101>>ASSIGN   6102>>ASSIGN   6103>>ASSIGN   6104>>CALL
      6109<>CALL     6112<>CALL
S$CU$
      5417**DCL      5819>>ASSIGN   5846>>ASSIGN   5848>>ASSIGN   5855>>ASSIGN   5859>>DOWHILE  5860>>IF
SET_SDSK IN PROCEDURE CHECK_SDSK
      6112**LABEL    6088--GOTO     6097--GOTO     6105--GOTO
SEV IN PROCEDURE BADRET
      6070**DCL      6068--PROC     6074>>ASSIGN
SQH$
PL6.E3A0      #003=TDP$OPEN File=TDP$PMME.:E05TSI                                WED 07/30/97 06:04 Page:197
      5448**DCL      5778--IMP-PTR  5802<<ASSIGN   5833<>CALL     5886>>IF       5886>>IF       5889>>IF
      5889>>IF       5889>>IF       5889>>IF       5889>>IF       5923>>CALL     5975>>IF       5976>>CALL
      5977>>IF       5978>>CALL     5986>>CALL     5992>>CALL     5996>>CALL     6007>>CALL     6064>>CALL
SSR$REG
      5403**DCL-ENT  5864--CALL     5983--CALL
TDNODEV
      6052**LABEL    5833--CALLALT  5915--CALLALT
TDU$FINDPATH
      5404**DCL-ENT  5833--CALL
TD_OPENGATE
      5421**DCL      5954<>CALL     5959<>CALL     6058<>CALL     6132<>CALL     6138<>CALL     6144<>CALL
      6148<>CALL     6178<>CALL
TEMP
      5449**DCL      5783--IMP-SIZ  6012<<ASSIGN   6014<>CALL     6024<>CALL     6025>>IF       6026<>CALL
      6027>>IF       6028<<ASSIGN   6029>>ASSIGN   6029>>ASSIGN   6047<>CALL     6174<>CALL
UNLOCK
      6058**LABEL    5957--CALLALT
UNLOCK IN PROCEDURE OPEN_FEP
      6178**LABEL    6135--CALLALT
VFCIMG
      5783**DCL      6029<<ASSIGN   6029>>ASSIGN
VID$
      5451**DCL      5518--IMP-PTR  6095<<ASSIGN   6096>>IF       6097>>IF       6099>>IF       6099>>IF
      6103>>ASSIGN
VIDBUF1
      5452**DCL      6091--ASSIGN   6092--ASSIGN   6095--ASSIGN
VIDBUF2
      5453**DCL      6100--ASSIGN   6101--ASSIGN   6105--IF
WSZ
      5455**DCL      6123<>CALL     6124>>IF       6141<>CALL     6156>>ASSIGN
X
      5457**DCL      5874<<ASSIGN   6157>>ASSIGN
XIT
      6067**LABEL    5794--CALLALT  5810--CALLALT  5814--CALLALT  5840--CALLALT  5862--CALLALT  5871--CALLALT
      5873--CALLALT  5901--CALLALT  5904--CALLALT  5905--CALLALT  5906--CALLALT  5912--CALLALT  5914--CALLALT
      5920--CALLALT  5921--CALLALT  5935--CALLALT  5938--CALLALT  5943--CALLALT  5951--CALLALT  6013--CALLALT
PL6.E3A0      #003=TDP$OPEN File=TDP$PMME.:E05TSI                                WED 07/30/97 06:04 Page:198
      6050--CALLALT  6052--CALLALT
XIT IN PROCEDURE OPEN_FEP
      6180**LABEL    6118--CALLALT  6125--CALLALT

