PL6.E3A0      #004=TDP$TDIO File=TDP$PMME.:E05TSI                                WED 07/30/97 06:06 Page:199
     1013        1        /*M* TDP$TDIO - M$TDIO PMME HANDLER */
     1014        2        /*T***********************************************************/
     1015        3        /*T*                                                         */
     1016        4        /*T* Copyright (c) Bull HN Information Systems Inc., 1997    */
     1017        5        /*T*                                                         */
     1018        6        /*T***********************************************************/
     1019        7        TDP$TDIO: PROC;
     1020        8        /*
     1021        9                Includes
     1022       10        */
     1023       11        %INCLUDE                        B$JIT ;
     1024      614        %INCLUDE                        B$USER ;
     1025      830        %INCLUDE                        B_STRINGS_C ;
     1026      959        %INCLUDE                        CP_6_SUBS ;
     1027     1499        %INCLUDE                        F$DCB ;
     1028     1548        %INCLUDE                        HF_DATA_R ;
     1029     1591        %INCLUDE                        HF_LOCK_C ;
     1030     1605        %INCLUDE                        IT_SUBS_C ;
     1031     1872        %INCLUDE                        M_INFO_C ;
     1032     2012        %INCLUDE                        KI_DATA_R ;
     1033     2038        %INCLUDE                        KI_MACROS_C ;
     1034     2646        %INCLUDE                        NI_DATA_R ;
     1035     3083        %INCLUDE                        NI_DATA_C ;
     1036     3196        %INCLUDE                        NI_MACROS_C ;
     1037     3463        %INCLUDE                        SS_SCHED_C ;
     1038     3696        %INCLUDE                        S_WSPTD_R ;
     1039     3712        %INCLUDE                        TD$CP6V_C ;
     1040     3748        %INCLUDE                        TD_ERRORS_C ;
     1041     3831        /*
     1042     3832                Entries
     1043     3833        */
     1044     3834    1   DCL 1 FMB$IOSPIN                ENTRY ;
     1045     3835    1   DCL 1 HFF$DSIZ                  ENTRY(2) ;
     1046     3836    1   DCL 1 HFF$NILERASE              ENTRY(1) ALTRET ;
     1047     3837    1   DCL 1 NIM$CVTPTR                ENTRY(3) ;
     1048     3838    1   DCL 1 NIQ$GET                   ENTRY(1) ALTRET ;
     1049     3839    1   DCL 1 NIQ$GETS                  ENTRY(1) ALTRET ;
PL6.E3A0      #004=TDP$TDIO File=TDP$PMME.:E05TSI                                WED 07/30/97 06:06 Page:200
     1050     3840    1   DCL 1 NIS$DCCON                 ENTRY(3) ;
     1051     3841    1   DCL 1 NIS$DRIVER                ENTRY(1) ;
     1052     3842    1   DCL 1 SSR$REG                   ENTRY(3) ALTRET ;
     1053     3843    1   DCL 1 TDU$FINDPATH              ENTRY(6) ALTRET ;
     1054     3844    1   DCL 1 UDB$PMMEXIT               ENTRY ;
     1055     3845        /*
     1056     3846                Symrefs
     1057     3847        */
     1058     3848    1   DCL 1 B$JIT$                    PTR SYMREF ;
     1059     3849    1   DCL 1 B$PS0$                    PTR SYMREF ;
     1060     3850    1   DCL 1 B$PS1$                    PTR SYMREF ;
     1061     3851    1   DCL 1 B$PS2$                    PTR SYMREF ;
     1062     3852        %B$USERREFS ;
     1063     3856    1   DCL 1 F_DCBLOCK                 BIT(72) SYMREF ALIGNED ;
     1064     3857    1   DCL 1 SL_MF(0:3)                SBIN SYMREF ;
     1065     3858        /*
     1066     3859                Auto
     1067     3860        */
     1068     3861    1   DCL 1 BUFADDR                   UBIN ALIGNED AUTO ;
     1069     3862    1   DCL 1 BUFVIRT                   REDEF BUFADDR,
     1070     3863    1         2 DA                      UBIN(33) UNAL,
     1071     3864    1         2 BYT                     UBIN(3) UNAL ;
     1072     3865    1   DCL 1 BUFPTP                    SBIN ALIGNED AUTO ;
     1073     3866    1   DCL 1 CONT_FLG                  BIT(1) ALIGNED AUTO ;
     1074     3867    1   DCL 1 DCB$                      PTR ALIGNED AUTO ;
     1075     3868    1   DCL 1 DCPCW                     ALIGNED AUTO,
     1076     3869    1         2 *                       BIT(18) UNAL,
     1077     3870    1         2 SVN                     BIT(3)  UNAL,
     1078     3871    1         2 MASK                    BIT(3)  UNAL,
     1079     3872    1         2 *                       BIT(12) UNAL ;
     1080     3873    1   DCL 1 DCT$                      PTR ALIGNED AUTO ;
     1081     3874    1   DCL 1 DCW$                      PTR ALIGNED AUTO ;
     1082     3875    1   DCL 1 DCWADDR                   UBIN ALIGNED AUTO ;
     1083     3876    1   DCL 1 DCWVIRT                   REDEF DCWADDR,
     1084     3877    1         2 DA                      UBIN(33) UNAL,
     1085     3878    1         2 BYT                     UBIN(3) UNAL;
     1086     3879    1   DCL 1 DCWPTP                    SBIN ALIGNED AUTO ;
PL6.E3A0      #004=TDP$TDIO File=TDP$PMME.:E05TSI                                WED 07/30/97 06:06 Page:201
     1087     3880    1   DCL 1 DQH$                      PTR ALIGNED AUTO ;
     1088     3881    1   DCL 1 EXTRN                     EPTR ALIGNED AUTO ;
     1089     3882    1   DCL 1 I                         SBIN ALIGNED AUTO ;
     1090     3883    1   DCL 1 IOS$                      PTR ALIGNED AUTO ;
     1091     3884    1   DCL 1 FEI$                      PTR ALIGNED AUTO ;
     1092     3885    1   DCL 1 MBX$                      PTR ALIGNED AUTO ;
     1093     3886    1   DCL 1 MPC$                      PTR ALIGNED AUTO ;
     1094     3887    1   DCL 1 PATH                      ALIGNED AUTO,
     1095     3888    1         2 DVN                     UBIN(6) UNAL,
     1096     3889    1         2 IOM                     UBIN(3) UNAL,
     1097     3890    1         2 CHAN                    UBIN(9) UNAL ;
     1098     3891    1   DCL 1 PNTR$                     PTR ALIGNED AUTO ;
     1099     3892    1   DCL 1 PNTR                      REDEF PNTR$,
     1100     3893    1         2 WA                      UBIN(18) HALIGNED,
     1101     3894    1         2 *                       UBIN(18) HALIGNED ;
     1102     3895    1   DCL 1 RELEASE                   BIT(1) ALIGNED AUTO ;
     1103     3896    1   DCL 1 REQ$                      PTR ALIGNED AUTO ;
     1104     3897    1   DCL 1 SQH$                      PTR ALIGNED AUTO ;
     1105     3898    1   DCL 1 SUSPEND                   BIT(1) ALIGNED AUTO ;
     1106     3899    1   DCL 1 WRITE_FLG                 BIT(1) ALIGNED AUTO ;
     1107     3900
     1108     3901        /*
     1109     3902                Based
     1110     3903        */
     1111     3904        %DCW                            ( NAME=DCW,           STCLASS="BASED(DCW$)" ) ;
     1112     3934        %FPT$TDIO_V;
     1113     3938        %IDCW                           ( NAME=IDCW,          STCLASS="BASED(DCW$)" ) ;
     1114     3970        %KI$FEI                         (                     STCLASS="BASED(FEI$)" ) ;
     1115     4054        %N$REQ                          ( NAME=N$REQ,         STCLASS="BASED(REQ$)" ) ;
     1116     4112        %NI$CHT                         ( NAME="NI$CHT(0:0)", STCLASS="BASED(NI$CHT$)" ) ;
     1117     4115        %NI$DCT                         ( NAME=NI$DCT,        STCLASS=BASED         ) ;
     1118     4163        %NI$DQH                         ( NAME=NI$DQH,        STCLASS=BASED         ) ;
     1119     4186        %NI$DVT                         ( NAME=NI$DVT,        STCLASS=BASED         ) ;
     1120     4193        %NI$IMXMBX                      ( NAME=NI$IMXMBX,     STCLASS="BASED(MBX$)" ) ;
     1121     4214        %NI$REQ                         ( NAME=NI$REQ,        STCLASS="BASED(IOS$)" ) ;
     1122     4239        %NI$SQH                         ( NAME=NI$SQH,        STCLASS=BASED         ) ;
     1123     4252    1   DCL 1 PCW_B                     BASED,
PL6.E3A0      #004=TDP$TDIO File=TDP$PMME.:E05TSI                                WED 07/30/97 06:06 Page:202
     1124     4253    1         2 *                       BIT(18) UNAL,
     1125     4254    1         2 SVN                     BIT(3) UNAL,
     1126     4255    1         2 MASK                    UBIN(3) UNAL,
     1127     4256    1         2 *                       BIT(12) UNAL ;
     1128     4257        /*
     1129     4258                Constants
     1130     4259        */
     1131     4260        %SUB DCB=DCB$->F$DCB;
     1132     4261        %SUB TDIOV=B$PS0$->FPT$TDIO_V;
     1133     4262
     1134     4263        %EJECT;
PL6.E3A0      #004=TDP$TDIO File=TDP$PMME.:E05TSI                                WED 07/30/97 06:06 Page:203
     1135     4264    1           DCB$=B$JIT.DCB$;
     1136     4265    1           IF ~DCB$->F$DCB.FCD THEN CALL BADRET(%E$TDNOTOPEN,4);
     1137     4266    1           IF DCB$->F$DCB.ASN~=%T@D# THEN CALL BADRET(%E$TDNOTDCB,4);
     1138     4267    2           IF DCB$->F$DCB.FUN=%TD_TEST_FEP THEN DO;
     1139     4268    2              DCPCW=TDIOV.PCW;
     1140     4269    2              FEI$ = KI$FEI$(DCB$->F$DCB.DEVADR.DVN);
     1141     4270    2              CALL NIS$DCCON(DCB$->F$DCB.DQH$->NI$DQH.IOCHAN,DCPCW.MASK,KI$FEI.FEWSQ);
     1142     4271    2              DCB$->F$DCB.CONNCT=DCB$->F$DCB.CONNCT+1;
     1143     4272    2              RETURN;
     1144     4273    2              END;
     1145     4274    2           IF TDIOV.ALTPATH THEN DO;
     1146     4275    2              IF DCB$->F$DCB.FUN~=%TD_TEST_POLTS THEN
     1147     4276    2                 CALL BADRET(%E$TDALTBAD,4);
     1148     4277    2              PATH.IOM=TDIOV.ALTPATH.IOM;
     1149     4278    2              PATH.CHAN=TDIOV.ALTPATH.CHAN;
     1150     4279    2              PATH.DVN=DCB$->F$DCB.DEVADR.DVN;
     1151     4280    2              CALL TDU$FINDPATH(PATH,'0'B,DCT$,SQH$,DQH$,MPC$) ALTRET(ALTBAD);
     1152     4281    3              IF MPC$~=DCB$->F$DCB.MPC$ THEN DO;
     1153     4282    3   ALTBAD:       CALL BADRET(%E$TDALTBAD,4);
     1154     4283    3                 END;
     1155     4284    2              IF DCT$~=DCB$->F$DCB.DCT$ THEN CALL BADRET(%E$TDALTBAD,4);
     1156     4285    2              DCB$->F$DCB.PATH=TDIOV.ALTPATH;
     1157     4286    2              END;
     1158     4287    2           ELSE DO;
     1159     4288    2              DCB.PATH.IOM=DCB.DEVADR.IOM;
     1160     4289    2              DCB.PATH.CHAN=DCB.DEVADR.CHAN;
     1161     4290    2              END;
     1162     4291    1           DCB.DQH$=NI$CHT.DQH$(DCB.PATH.IOM*%N_MAXCHANS+DCB.PATH.CHAN);
     1163     4292    1           CONT_FLG='1'B;
     1164     4293    1           WRITE_FLG='0'B;
     1165     4294    1           SUSPEND='0'B;
     1166     4295    1           RELEASE='0'B;
     1167     4296    1           CALL HFF$NILERASE(B$PS1$) ALTRET(NO_DCW_LIST);
     1168     4297    1           DCW$=B$PS1$;
     1169     4298    2           DO WHILE (CONT_FLG);
     1170     4299    3              IF IDCW.SVN=7 THEN DO;       /* THIS MUST BE AN IDCW               */
     1171     4300    3                 IF IDCW.DVN~=0 THEN
PL6.E3A0      #004=TDP$TDIO File=TDP$PMME.:E05TSI                                WED 07/30/97 06:06 Page:204
     1172     4301    3                    IDCW.DVN=DCB.DEVADR.DVN;
     1173     4302    3                 IF HW_IMX THEN
     1174     4303    3                    IDCW.DATA.BASE=%IMX_TDBUF_BASE;
     1175     4304    3                 CONT_FLG=IDCW.CONT;
     1176     4305    3                 IF DCB.TDFLG.SDSK THEN
     1177     4306    4                 DO CASE(IDCW.DC);
     1178     4307    4                  CASE(28,24);             /* SEEK                               */
     1179     4308    4                    WRITE_FLG='0'B;
     1180     4309    4                  CASE(30,29);             /* SPECIAL SEEK                       */
     1181     4310    4                    WRITE_FLG='1'B;
     1182     4311    4                  CASE(25,26,27/*WRITES*/);
     1183     4312    4                    IF ~WRITE_FLG THEN CALL BADRET(%E$TDBADIDCW,4);
     1184     4313    4                  END;                     /* CASE IDCW.DC                       */
     1185     4314    4                 IF IDCW.CCB & '40'O THEN DO;
     1186     4315    5                    IF IDCW.DC=0 THEN DO;
     1187     4316    5                       SUSPEND='1'B;
     1188     4317    5                       RELEASE='0'B;
     1189     4318    5                       END;
     1190     4319    5                    ELSE IF IDCW.DC=BITBIN('20'O) THEN DO;
     1191     4320    5                          RELEASE='1'B;
     1192     4321    5                          END;
     1193     4322    4                    END;
     1194     4323    3                 END;                      /* THIS MUST BE AN IDCW               */
     1195     4324    2              ELSE                         /* THIS MUST BE A DCW OF ANOTHER SORT */
     1196     4325    3              DO CASE(DCW.TYPE);
     1197     4326    3               CASE(%DCW_TDCW);
     1198     4327    3                 IF HW_IMX THEN
     1199     4328    3                    DCW.T.DCWLIST.BASE=%IMX_TDBUF_BASE;
     1200     4329    3                 DCW$=PINCRW(B$PS2$,DCW.FWA-1);
     1201     4330    3               CASE(ELSE);
     1202     4331    3               END;
     1203     4332    2              IF CONT_FLG THEN
     1204     4333    2                 DCW$=PINCRW(DCW$,1);
     1205     4334    2              END;                         /* DO WHILE CONT_FLG                  */
     1206     4335    1   NO_DCW_LIST: ;                     /* CONT_FLG WILL BE SET IF NO DCW LIST     */
     1207     4336        /* MAKE NECESSARY UPDATES TO DCB AND USER TABLE INFO */
     1208     4337    1           IF S$CU$->B$U.MF >= SL_MF(B$JIT.MODE)
PL6.E3A0      #004=TDP$TDIO File=TDP$PMME.:E05TSI                                WED 07/30/97 06:06 Page:205
     1209     4338    1           THEN CALL SSR$REG(%SS_QMF);
     1210     4339                %LOCK (G#=NI_MFGATE);
     1211     4342    1           S$CU$->B$U.MF=S$CU$->B$U.MF+1;
     1212     4343                %UNLOCK (G#=NI_MFGATE);
     1213     4346    1           DCB$->F$DCB.WAIT=0;
     1214     4347                %LOCK (G#=F_DCBLOCK);
     1215     4350    1           DCB$->F$DCB.FCN.CNT(0)=DCB$->F$DCB.FCN.CNT(0)+1;
     1216     4351                %UNLOCK (G#=F_DCBLOCK);
     1217     4354        /*   All access checks have been passed, we now get an IOQ packet
     1218     4355             and set it up to do the I/O. */
     1219     4356    1           CALL NIQ$GET(REQ$);
     1220     4357    2           IF N$REQ.IOFLG.IOS THEN DO;
     1221     4358    2              IOS$=N$REQ.IOS$;
     1222     4359    2              NI$REQ=NI$REQ_INIT;
     1223     4360    3              IF HW_IMX THEN DO;
     1224     4361    3                 MBX$=PINCRW(IOS$,%IMX_MBX_OFFSET);
     1225     4362    3                 NI$IMXMBX=NI$IMXMBX_INIT;
     1226     4363    3                 END;
     1227     4364    2              END;
     1228     4365    2           ELSE DO;
     1229     4366    2              CALL NIQ$GETS(IOS$);
     1230     4367    2              IF HW_IMX THEN
     1231     4368    2                 MBX$=PINCRW(IOS$,%IMX_MBX_OFFSET);
     1232     4369    2              N$REQ.IOS$=IOS$;
     1233     4370    2              N$REQ.IOFLG.IOS='1'B;
     1234     4371    2              END;
     1235     4372    1           N$REQ.DCT$=DCB.DCT$;
     1236     4373    1           N$REQ.DLA.DCTX=DCB.DCT$->NI$DCT.DCTX;
     1237     4374    1           N$REQ.COMP=%COMP_TD;
     1238     4375    1           N$REQ.IOFLG.SUSP=SUSPEND;
     1239     4376    1           N$REQ.IOFLG.REL=RELEASE;
     1240     4377    1           N$REQ.BPMIR = '1'B ;
     1241     4378    1           CALL NIM$CVTPTR(B$PS2$,BUFADDR,BUFPTP);
     1242     4379    2           IF CONT_FLG THEN DO;            /* NO DCWLIST                         */
     1243     4380    2              NI$REQ.IDCW(0)='0000007'O;
     1244     4381    2              DCWPTP=BUFPTP;
     1245     4382    2              END;
PL6.E3A0      #004=TDP$TDIO File=TDP$PMME.:E05TSI                                WED 07/30/97 06:06 Page:206
     1246     4383    2           ELSE DO;
     1247     4384    2              CALL NIM$CVTPTR(B$PS1$,DCWADDR,DCWPTP);
     1248     4385    3              IF HW_IMX THEN DO;
     1249     4386    3                 NI$REQ.DCW(0)=%TDCWM1;
     1250     4387    3                 NI$REQ.DCW.T.DCWLIST.BASE(0)=%IMX_TDDCW_BASE;
     1251     4388    3                 CALL HFF$DSIZ (B$PS1$,I);
     1252     4389    3                 NI$IMXMBX.PAGED_BASE.PTWADDR(%IMX_TDDCW_BASE)=DCWPTP;
     1253     4390    3                 NI$IMXMBX.PAGED_BASE.OFFSET(%IMX_TDDCW_BASE)=DCWADDR/4;
     1254     4391    3                 NI$IMXMBX.SIZE(%IMX_TDDCW_BASE)=(I+DCWVIRT.BYT+3)/4 - 1;
     1255     4392    3                 END;
     1256     4393    3              ELSE DO;
     1257     4394    4                 IF BUFPTP<DCWPTP THEN DO;
     1258     4395    4                    DCWADDR=DCWADDR+(4096*HW_IOPTP_UNITS*(DCWPTP-BUFPTP));
     1259     4396    4                    DCWPTP=BUFPTP;
     1260     4397    4                    END;
     1261     4398    4                 ELSE IF BUFPTP>DCWPTP THEN DO;
     1262     4399    4                       BUFADDR=BUFADDR+(4096*HW_IOPTP_UNITS*(BUFPTP-DCWPTP));
     1263     4400    4                       BUFPTP=DCWPTP;
     1264     4401    4                       END;
     1265     4402    3                 NI$REQ.DCW(0)=%TDCWM4;
     1266     4403    3                 NI$REQ.DCW.FWA(0)=DCWADDR/4;
     1267     4404    3                 END;
     1268     4405    2              END;
     1269     4406    1           N$REQ.LPWX.BASE=BUFADDR/8;
     1270     4407    1           CALL HFF$DSIZ(B$PS2$,I);
     1271     4408    1           N$REQ.LPWX.BOUND=(I+BUFVIRT.BYT)/4;
     1272     4409    1           N$REQ.PTP=BUFPTP;
     1273     4410    2           IF HW_IMX THEN DO;
     1274     4411    2              NI$IMXMBX.PAGED_BASE(%IMX_IOS_BASE)=BINBIT(NI_IMXLO_PBASE,36);
     1275     4412    2              NI$IMXMBX.SIZE(%IMX_IOS_BASE)=(%IMXHI-%IMXLO+1)*1024 - 1;
     1276     4413    2              NI$IMXMBX.PAGED_BASE.PTWADDR(%IMX_TDBUF_BASE)=BUFPTP;
     1277     4414    2              NI$IMXMBX.PAGED_BASE.OFFSET(%IMX_TDBUF_BASE)=N$REQ.LPWX.BASE*2;
     1278     4415    2              NI$IMXMBX.SIZE(%IMX_TDBUF_BASE)=N$REQ.LPWX.BOUND-1;
     1279     4416    2              PNTR$=ADDR(NI$REQ.DCW(0));
     1280     4417    2              NI$IMXMBX.LPW.DCW_ADDR=PNTR.WA;
     1281     4418    3              DO CASE (ADDR(TDIOV.PCW)->PCW_B.MASK);
     1282     4419    3               CASE(4);
PL6.E3A0      #004=TDP$TDIO File=TDP$PMME.:E05TSI                                WED 07/30/97 06:06 Page:207
     1283     4420    3                 N$REQ.IMX_TDIO_MASK='1'B;
     1284     4421    3                 NI$IMXMBX.IOSTATUS(0)=%IMX_CCW_MASK_CHAN;
     1285     4422    3               CASE(7);
     1286     4423    3                 N$REQ.IMX_TDIO_MASK='1'B;
     1287     4424    3                 NI$IMXMBX.IOSTATUS(0)=%IMX_CCW_RSO;
     1288     4425    3               CASE(ELSE);
     1289     4426    3               END;
     1290     4427    2              END;
     1291     4428    2           ELSE DO;
     1292     4429    2              NI$REQ.PCW=TDIOV.PCW;
     1293     4430    2              NI$REQ.PCW.FLAGS='600'O;
     1294     4431    2              IF HW_IOP THEN
     1295     4432    2                 NI$REQ.IOP_PTAW=BINBIT(BUFPTP,27)|%IOP_PTA1_INIT; /* PHYSADDR   */
     1296     4433    2              ELSE
     1297     4434    2                 NI$REQ.PCW.PTP=BUFPTP;
     1298     4435    2              END;
     1299     4436    1           N$REQ.USER#=B$JIT.USER;
     1300     4437    1           N$REQ.OPFLG.WAIT=TDIOV.WAIT;
     1301     4438    1           N$REQ.NWIO=0;
     1302     4439    1           N$REQ.DCB$=DCB$;
     1303     4440    1           N$REQ.DQH$=DCB.DQH$;
     1304     4441    1           N$REQ.EVNTINFO=TDIOV.EVENT;
     1305     4442    1           N$REQ.TIMOUT=TDIOV.TIMEOUT;
     1306     4443    1           N$REQ.IOFLG.MREC='1'B;
     1307     4444    1           N$REQ.BUF$=B$PS2$;              /* FOR DEBUG PURPOSES ONLY            */
     1308     4445        /* CALL THE APPROPRIATE DEVICE SCHEDULER TO GET THE I/O STARTED */
     1309     4446    1           EXTRN=N$REQ.DCT$->NI$DCT.DVT$->NI$DVT.SCHED;
     1310     4447    1           N$REQ.IOQFLG.IOQUED = '1'B ;
     1311     4448    1           CALL EXTRN(N$REQ);
     1312     4449    1           IF TDIOV.WAIT THEN CALL FMB$IOSPIN;
     1313     4450    1           RETURN;
     1314     4451        /**/
     1315     4452    1   BADRET: PROC(ERROR,SEV);
     1316     4453    2   DCL ERROR UBIN WORD;
     1317     4454    2   DCL SEV UBIN WORD;
     1318     4455    2           B$JIT.ERR='240420000000'O;
     1319     4456    2           B$JIT.ERR.CODE=ERROR;
PL6.E3A0      #004=TDP$TDIO File=TDP$PMME.:E05TSI                                WED 07/30/97 06:06 Page:208
     1320     4457    2           B$JIT.ERR.SEV=SEV;
     1321     4458    2           CALL UDB$PMMEXIT;
     1322     4459    2   END BADRET;
     1323     4460    1   END TDP$TDIO;
     1324     4461        %EOD;

PL6.E3A0      #004=TDP$TDIO File=TDP$PMME.:E05TSI                                WED 07/30/97 06:06 Page:209
--  Include file information  --

   TD_ERRORS_C.:E05TOU  is referenced.
   TD$CP6V_C.:E05TOU  is referenced.
   S_WSPTD_R.:E05TOU  cannot be made into a system file and is referenced.
   SS_SCHED_C.:E05TOU  is referenced.
   NI_MACROS_C.:E05TOU  cannot be made into a system file and is referenced.
   NI_DATA_C.:E05TOU  is referenced.
   NI$TABLES.:E05TOU  is referenced.
   N$REQ.:E05TOU  is referenced.
   NI_DATA_R.:E05TOU  cannot be made into a system file and is referenced.
   KI_MACROS_C.:E05TOU  is referenced.
   KI_DATA_R.:E05TOU  cannot be made into a system file and is referenced.
   M_INFO_C.:E05TOU  is referenced.
   IT_SUBS_C.:E05TOU  is referenced.
   HF_LOCK_C.:E05TOU  cannot be made into a system file and is referenced.
   HF_DATA_R.:E05TOU  cannot be made into a system file and is referenced.
   F$DCB.:E05TOU  cannot be made into a system file and is referenced.
   CP_6_SUBS.:E05TOU  is referenced.
   B_STRINGS_C.:E05TOU  is referenced.
   B$USER.:E05TOU  cannot be made into a system file and is referenced.
   B$JIT_C.:E05TOU  is referenced.
   B$JIT.:E05TOU  cannot be made into a system file and is referenced.
      No diagnostics issued in procedure TDP$TDIO.

   Procedure TDP$TDIO requires 635 words for executable code.
   Procedure TDP$TDIO requires 36 words of local(AUTO) storage.

PL6.E3A0      #004=TDP$TDIO File=TDP$PMME.:E05TSI                                WED 07/30/97 06:06 Page:210

 Object Unit name= TDP$TDIO                                   File name= TDP$PMME.:E05TOU
 UTS= JUL 30 '97 06:06:08.56 WED                              Compiler= PL-6/E31         Sev=      00
 SharedLib= :SHARED_SYSTEM                                    Alt SharedLib=


    ****  Control sections  ****

 Sect   Type Bound  Init  Size OctSiz  Section name(segment info)
    0  RoData even  UTS      7      7  TDP$TDIO
    1   Proc  even  none   635   1173  TDP$TDIO
    2  RoData even  none    24     30  TDP$TDIO

    ****  Entry defs  ****

                              Check   Calling
                             calling  sequence
  Sect OctLoc Primary Altret sequence   type   Parms  Name
     1      0   yes            yes      Std        0  TDP$TDIO
PL6.E3A0      #004=TDP$TDIO File=TDP$PMME.:E05TSI                                WED 07/30/97 06:06 Page:211

  ****  Entry refs  ****

         Check        Calling
        calling       sequence
Altret sequence SRef   type   Args  Name
         yes           Std       3 NIS$DCCON
 yes     yes           Std       6 TDU$FINDPATH
 yes     yes           Std       3 SSR$REG
         yes           Std       1 HFC$UNLOCK
         yes           Std       0 FMB$IOSPIN
 yes     yes           Std       1 HFF$NILERASE
 yes     yes           Std       1 NIQ$GET
         yes           Std       2 HFF$DSIZ
         yes           Std       1 HFC$LOCK
         yes           Std       3 NIM$CVTPTR
 yes     yes           Std       1 NIQ$GETS
         yes           Std       0 UDB$PMMEXIT
                       nStd      0 X66_AUTO_0
                       Std       0 B_CONSPOOL_D
                       nStd      0 X66_ARET

  ****  Data refs  ****

  Flags:  r = read only, s = secondary
Flgs Name                             Flgs Name                             Flgs Name
     HW_IOPTP_UNITS                        HW_IOP                                HW_IMX
     KI_FEI$$                              N$DCT$$                               N$FQ$
     NI$CHT$                               NI$FQ$                                NI$IBUF$
r    NI$IMXMBX_INIT                   r    NI$REQ_INIT                           NI$RP$
     NI_IMXLO_PBASE                        NI_MFGATE                             B$JIT$
     B$PS0$                                B$PS1$                                B$PS2$
     S$CU$                                 F_DCBLOCK                             SL_MF
     B_VECTNIL
PL6.E3A0      #004=TDP$TDIO File=TDP$PMME.:E05TSI                                WED 07/30/97 06:06 Page:212

  ****  Segment refs  ****

  Flags:  r = read only, s = secondary
Flgs Name                             Flgs Name                             Flgs Name
     ISSID
PL6.E3A0      #004=TDP$TDIO File=TDP$PMME.:E05TSI                                WED 07/30/97 06:06 Page:213


     1013        1        /*M* TDP$TDIO - M$TDIO PMME HANDLER */
     1014        2        /*T***********************************************************/
     1015        3        /*T*                                                         */
     1016        4        /*T* Copyright (c) Bull HN Information Systems Inc., 1997    */
     1017        5        /*T*                                                         */
     1018        6        /*T***********************************************************/
     1019        7        TDP$TDIO: PROC;

      7  1 000000   000000 700200 xent  TDP$TDIO     TSX0  ! X66_AUTO_0
         1 000001   000044 000000                    ZERO    36,0

     1020        8        /*
     1021        9                Includes
     1022       10        */
     1023       11        %INCLUDE                        B$JIT ;
     1024      614        %INCLUDE                        B$USER ;
     1025      830        %INCLUDE                        B_STRINGS_C ;
     1026      959        %INCLUDE                        CP_6_SUBS ;
     1027     1499        %INCLUDE                        F$DCB ;
     1028     1548        %INCLUDE                        HF_DATA_R ;
     1029     1591        %INCLUDE                        HF_LOCK_C ;
     1030     1605        %INCLUDE                        IT_SUBS_C ;
     1031     1872        %INCLUDE                        M_INFO_C ;
     1032     2012        %INCLUDE                        KI_DATA_R ;
     1033     2038        %INCLUDE                        KI_MACROS_C ;
     1034     2646        %INCLUDE                        NI_DATA_R ;
     1035     3083        %INCLUDE                        NI_DATA_C ;
     1036     3196        %INCLUDE                        NI_MACROS_C ;
     1037     3463        %INCLUDE                        SS_SCHED_C ;
     1038     3696        %INCLUDE                        S_WSPTD_R ;
     1039     3712        %INCLUDE                        TD$CP6V_C ;
     1040     3748        %INCLUDE                        TD_ERRORS_C ;
     1041     3831        /*
     1042     3832                Entries
     1043     3833        */
     1044     3834    1   DCL 1 FMB$IOSPIN                ENTRY ;
PL6.E3A0      #004=TDP$TDIO File=TDP$PMME.:E05TSI                                WED 07/30/97 06:06 Page:214
     1045     3835    1   DCL 1 HFF$DSIZ                  ENTRY(2) ;
     1046     3836    1   DCL 1 HFF$NILERASE              ENTRY(1) ALTRET ;
     1047     3837    1   DCL 1 NIM$CVTPTR                ENTRY(3) ;
     1048     3838    1   DCL 1 NIQ$GET                   ENTRY(1) ALTRET ;
     1049     3839    1   DCL 1 NIQ$GETS                  ENTRY(1) ALTRET ;
     1050     3840    1   DCL 1 NIS$DCCON                 ENTRY(3) ;
     1051     3841    1   DCL 1 NIS$DRIVER                ENTRY(1) ;
     1052     3842    1   DCL 1 SSR$REG                   ENTRY(3) ALTRET ;
     1053     3843    1   DCL 1 TDU$FINDPATH              ENTRY(6) ALTRET ;
     1054     3844    1   DCL 1 UDB$PMMEXIT               ENTRY ;
     1055     3845        /*
     1056     3846                Symrefs
     1057     3847        */
     1058     3848    1   DCL 1 B$JIT$                    PTR SYMREF ;
     1059     3849    1   DCL 1 B$PS0$                    PTR SYMREF ;
     1060     3850    1   DCL 1 B$PS1$                    PTR SYMREF ;
     1061     3851    1   DCL 1 B$PS2$                    PTR SYMREF ;
     1062     3852        %B$USERREFS ;
     1063     3856    1   DCL 1 F_DCBLOCK                 BIT(72) SYMREF ALIGNED ;
     1064     3857    1   DCL 1 SL_MF(0:3)                SBIN SYMREF ;
     1065     3858        /*
     1066     3859                Auto
     1067     3860        */
     1068     3861    1   DCL 1 BUFADDR                   UBIN ALIGNED AUTO ;
     1069     3862    1   DCL 1 BUFVIRT                   REDEF BUFADDR,
     1070     3863    1         2 DA                      UBIN(33) UNAL,
     1071     3864    1         2 BYT                     UBIN(3) UNAL ;
     1072     3865    1   DCL 1 BUFPTP                    SBIN ALIGNED AUTO ;
     1073     3866    1   DCL 1 CONT_FLG                  BIT(1) ALIGNED AUTO ;
     1074     3867    1   DCL 1 DCB$                      PTR ALIGNED AUTO ;
     1075     3868    1   DCL 1 DCPCW                     ALIGNED AUTO,
     1076     3869    1         2 *                       BIT(18) UNAL,
     1077     3870    1         2 SVN                     BIT(3)  UNAL,
     1078     3871    1         2 MASK                    BIT(3)  UNAL,
     1079     3872    1         2 *                       BIT(12) UNAL ;
     1080     3873    1   DCL 1 DCT$                      PTR ALIGNED AUTO ;
     1081     3874    1   DCL 1 DCW$                      PTR ALIGNED AUTO ;
PL6.E3A0      #004=TDP$TDIO File=TDP$PMME.:E05TSI                                WED 07/30/97 06:06 Page:215
     1082     3875    1   DCL 1 DCWADDR                   UBIN ALIGNED AUTO ;
     1083     3876    1   DCL 1 DCWVIRT                   REDEF DCWADDR,
     1084     3877    1         2 DA                      UBIN(33) UNAL,
     1085     3878    1         2 BYT                     UBIN(3) UNAL;
     1086     3879    1   DCL 1 DCWPTP                    SBIN ALIGNED AUTO ;
     1087     3880    1   DCL 1 DQH$                      PTR ALIGNED AUTO ;
     1088     3881    1   DCL 1 EXTRN                     EPTR ALIGNED AUTO ;
     1089     3882    1   DCL 1 I                         SBIN ALIGNED AUTO ;
     1090     3883    1   DCL 1 IOS$                      PTR ALIGNED AUTO ;
     1091     3884    1   DCL 1 FEI$                      PTR ALIGNED AUTO ;
     1092     3885    1   DCL 1 MBX$                      PTR ALIGNED AUTO ;
     1093     3886    1   DCL 1 MPC$                      PTR ALIGNED AUTO ;
     1094     3887    1   DCL 1 PATH                      ALIGNED AUTO,
     1095     3888    1         2 DVN                     UBIN(6) UNAL,
     1096     3889    1         2 IOM                     UBIN(3) UNAL,
     1097     3890    1         2 CHAN                    UBIN(9) UNAL ;
     1098     3891    1   DCL 1 PNTR$                     PTR ALIGNED AUTO ;
     1099     3892    1   DCL 1 PNTR                      REDEF PNTR$,
     1100     3893    1         2 WA                      UBIN(18) HALIGNED,
     1101     3894    1         2 *                       UBIN(18) HALIGNED ;
     1102     3895    1   DCL 1 RELEASE                   BIT(1) ALIGNED AUTO ;
     1103     3896    1   DCL 1 REQ$                      PTR ALIGNED AUTO ;
     1104     3897    1   DCL 1 SQH$                      PTR ALIGNED AUTO ;
     1105     3898    1   DCL 1 SUSPEND                   BIT(1) ALIGNED AUTO ;
     1106     3899    1   DCL 1 WRITE_FLG                 BIT(1) ALIGNED AUTO ;
     1107     3900
     1108     3901        /*
     1109     3902                Based
     1110     3903        */
     1111     3904        %DCW                            ( NAME=DCW,           STCLASS="BASED(DCW$)" ) ;
     1112     3934        %FPT$TDIO_V;
     1113     3938        %IDCW                           ( NAME=IDCW,          STCLASS="BASED(DCW$)" ) ;
     1114     3970        %KI$FEI                         (                     STCLASS="BASED(FEI$)" ) ;
     1115     4054        %N$REQ                          ( NAME=N$REQ,         STCLASS="BASED(REQ$)" ) ;
     1116     4112        %NI$CHT                         ( NAME="NI$CHT(0:0)", STCLASS="BASED(NI$CHT$)" ) ;
     1117     4115        %NI$DCT                         ( NAME=NI$DCT,        STCLASS=BASED         ) ;
     1118     4163        %NI$DQH                         ( NAME=NI$DQH,        STCLASS=BASED         ) ;
PL6.E3A0      #004=TDP$TDIO File=TDP$PMME.:E05TSI                                WED 07/30/97 06:06 Page:216
     1119     4186        %NI$DVT                         ( NAME=NI$DVT,        STCLASS=BASED         ) ;
     1120     4193        %NI$IMXMBX                      ( NAME=NI$IMXMBX,     STCLASS="BASED(MBX$)" ) ;
     1121     4214        %NI$REQ                         ( NAME=NI$REQ,        STCLASS="BASED(IOS$)" ) ;
     1122     4239        %NI$SQH                         ( NAME=NI$SQH,        STCLASS=BASED         ) ;
     1123     4252    1   DCL 1 PCW_B                     BASED,
     1124     4253    1         2 *                       BIT(18) UNAL,
     1125     4254    1         2 SVN                     BIT(3) UNAL,
     1126     4255    1         2 MASK                    UBIN(3) UNAL,
     1127     4256    1         2 *                       BIT(12) UNAL ;
     1128     4257        /*
     1129     4258                Constants
     1130     4259        */
     1131     4260        %SUB DCB=DCB$->F$DCB;
     1132     4261        %SUB TDIOV=B$PS0$->FPT$TDIO_V;
     1133     4262
     1134     4263        %EJECT;
PL6.E3A0      #004=TDP$TDIO File=TDP$PMME.:E05TSI                                WED 07/30/97 06:06 Page:217
     1135     4264    1           DCB$=B$JIT.DCB$;

   4264  1 000002   000000 470400 xsym               LDP0    B$JIT$
         1 000003   000232 236100                    LDQ     154,,PR0
         1 000004   200006 756100                    STQ     DCB$,,AUTO

     1136     4265    1           IF ~DCB$->F$DCB.FCD THEN CALL BADRET(%E$TDNOTOPEN,4);

   4265  1 000005   200006 471500                    LDP1    DCB$,,AUTO
         1 000006   100031 236100                    LDQ     25,,PR1
         1 000007   000026 736000                    QLS     22
         1 000010   400000 376003                    ANQ     -131072,DU
         1 000011   400000 676003                    ERQ     -131072,DU
         1 000012   000021 600000 1                  TZE     s:4266

   4265  1 000013   000001 236000 2                  LDQ     1
         1 000014   200034 756100                    STQ     @ERROR+1,,AUTO
         1 000015   000002 236000 2                  LDQ     2
         1 000016   200033 756100                    STQ     WRITE_FLG+2,,AUTO
         1 000017   001147 701000 1                  TSX1    BADRET
         1 000020   000000 011000                    NOP     0

     1137     4266    1           IF DCB$->F$DCB.ASN~=%T@D# THEN CALL BADRET(%E$TDNOTDCB,4);

   4266  1 000021   200006 470500                    LDP0    DCB$,,AUTO
         1 000022   000032 236100                    LDQ     26,,PR0
         1 000023   777000 376007                    ANQ     -512,DL
         1 000024   006000 116007                    CMPQ    3072,DL
         1 000025   000034 600000 1                  TZE     s:4267

   4266  1 000026   000001 236000 2                  LDQ     1
         1 000027   200034 756100                    STQ     @ERROR+1,,AUTO
         1 000030   000004 236000 2                  LDQ     4
         1 000031   200033 756100                    STQ     WRITE_FLG+2,,AUTO
         1 000032   001147 701000 1                  TSX1    BADRET
         1 000033   000000 011000                    NOP     0

PL6.E3A0      #004=TDP$TDIO File=TDP$PMME.:E05TSI                                WED 07/30/97 06:06 Page:218
     1138     4267    2           IF DCB$->F$DCB.FUN=%TD_TEST_FEP THEN DO;

   4267  1 000034   200006 470500                    LDP0    DCB$,,AUTO
         1 000035   000032 236100                    LDQ     26,,PR0
         1 000036   000777 376003                    ANQ     511,DU
         1 000037   000005 116003                    CMPQ    5,DU
         1 000040   000074 601000 1                  TNZ     s:4274

     1139     4268    2              DCPCW=TDIOV.PCW;

   4268  1 000041   000000 471400 xsym               LDP1    B$PS0$
         1 000042   100001 236100                    LDQ     1,,PR1
         1 000043   200007 756100                    STQ     DCPCW,,AUTO

     1140     4269    2              FEI$ = KI$FEI$(DCB$->F$DCB.DEVADR.DVN);

   4269  1 000044   000051 236100                    LDQ     41,,PR0
         1 000045   000014 772000                    QRL     12
         1 000046   000077 376007                    ANQ     63,DL
         1 000047   000000 473400 xsym               LDP3    KI_FEI$$
         1 000050   300000 236106                    LDQ     0,QL,PR3
         1 000051   200020 756100                    STQ     FEI$,,AUTO

     1141     4270    2              CALL NIS$DCCON(DCB$->F$DCB.DQH$->NI$DQH.IOCHAN,DCPCW.MASK,KI$FEI.FEWSQ);

   4270  1 000052   000046 474500                    LDP4    38,,PR0
         1 000053   000005 036003                    ADLQ    5,DU
         1 000054   200040 756100                    STQ     @SEV+4,,AUTO
         1 000055   200041 452500                    STP2    @SEV+5,,AUTO
         1 000056   200041 236100                    LDQ     @SEV+5,,AUTO
         1 000057   000005 036000 2                  ADLQ    5
         1 000060   200037 756100                    STQ     @SEV+3,,AUTO
         1 000061   200042 454500                    STP4    @SEV+6,,AUTO
         1 000062   200042 236100                    LDQ     @SEV+6,,AUTO
         1 000063   000006 036000 2                  ADLQ    6
         1 000064   200036 756100                    STQ     @SEV+2,,AUTO
         1 000065   200036 630500                    EPPR0   @SEV+2,,AUTO
PL6.E3A0      #004=TDP$TDIO File=TDP$PMME.:E05TSI                                WED 07/30/97 06:06 Page:219
         1 000066   000021 631400 xsym               EPPR1   B_VECTNIL+17
         1 000067   000000 701000 xent               TSX1    NIS$DCCON
         1 000070   000000 011000                    NOP     0

     1142     4271    2              DCB$->F$DCB.CONNCT=DCB$->F$DCB.CONNCT+1;

   4271  1 000071   200006 470500                    LDP0    DCB$,,AUTO
         1 000072   000041 054100                    AOS     33,,PR0

     1143     4272    2              RETURN;

   4272  1 000073   000000 702200 xent               TSX2  ! X66_ARET

     1144     4273    2              END;
     1145     4274    2           IF TDIOV.ALTPATH THEN DO;

   4274  1 000074   000000 471400 xsym               LDP1    B$PS0$
         1 000075   100000 236100                    LDQ     0,,PR1
         1 000076   007777 316007                    CANQ    4095,DL
         1 000077   000200 600000 1                  TZE     s:4288

     1146     4275    2              IF DCB$->F$DCB.FUN~=%TD_TEST_POLTS THEN

   4275  1 000100   000032 236100                    LDQ     26,,PR0
         1 000101   000777 376003                    ANQ     511,DU
         1 000102   000001 116003                    CMPQ    1,DU
         1 000103   000112 600000 1                  TZE     s:4277

     1147     4276    2                 CALL BADRET(%E$TDALTBAD,4);

   4276  1 000104   000001 236000 2                  LDQ     1
         1 000105   200034 756100                    STQ     @ERROR+1,,AUTO
         1 000106   000010 236000 2                  LDQ     8
         1 000107   200033 756100                    STQ     WRITE_FLG+2,,AUTO
         1 000110   001147 701000 1                  TSX1    BADRET
         1 000111   000000 011000                    NOP     0

PL6.E3A0      #004=TDP$TDIO File=TDP$PMME.:E05TSI                                WED 07/30/97 06:06 Page:220
     1148     4277    2              PATH.IOM=TDIOV.ALTPATH.IOM;

   4277  1 000112   000000 470400 xsym               LDP0    B$PS0$
         1 000113   000000 236100                    LDQ     0,,PR0
         1 000114   000022 736000                    QLS     18
         1 000115   200023 676100                    ERQ     PATH,,AUTO
         1 000116   007000 376003                    ANQ     3584,DU
         1 000117   200023 656100                    ERSQ    PATH,,AUTO

     1149     4278    2              PATH.CHAN=TDIOV.ALTPATH.CHAN;

   4278  1 000120   000000 236100                    LDQ     0,,PR0
         1 000121   000022 736000                    QLS     18
         1 000122   200023 552120                    STBQ    PATH,'20'O,AUTO

     1150     4279    2              PATH.DVN=DCB$->F$DCB.DEVADR.DVN;

   4279  1 000123   200006 471500                    LDP1    DCB$,,AUTO
         1 000124   100051 236100                    LDQ     41,,PR1
         1 000125   000022 736000                    QLS     18
         1 000126   200023 752140                    STCQ    PATH,'40'O,AUTO

     1151     4280    2              CALL TDU$FINDPATH(PATH,'0'B,DCT$,SQH$,DQH$,MPC$) ALTRET(ALTBAD);

   4280  1 000127   200022 633500                    EPPR3   MPC$,,AUTO
         1 000130   200043 453500                    STP3    @SEV+7,,AUTO
         1 000131   200014 634500                    EPPR4   DQH$,,AUTO
         1 000132   200042 454500                    STP4    @SEV+6,,AUTO
         1 000133   200027 635500                    EPPR5   SQH$,,AUTO
         1 000134   200041 455500                    STP5    @SEV+5,,AUTO
         1 000135   200010 636500                    EPPR6   DCT$,,AUTO
         1 000136   200040 456500                    STP6    @SEV+4,,AUTO
         1 000137   000011 236000 2                  LDQ     9
         1 000140   200037 756100                    STQ     @SEV+3,,AUTO
         1 000141   200023 637500                    EPPR7   PATH,,AUTO
         1 000142   200036 457500                    STP7    @SEV+2,,AUTO
         1 000143   200036 630500                    EPPR0   @SEV+2,,AUTO
PL6.E3A0      #004=TDP$TDIO File=TDP$PMME.:E05TSI                                WED 07/30/97 06:06 Page:221
         1 000144   000024 631400 xsym               EPPR1   B_VECTNIL+20
         1 000145   000000 701000 xent               TSX1    TDU$FINDPATH
         1 000146   000153 702000 1                  TSX2    ALTBAD

     1152     4281    3              IF MPC$~=DCB$->F$DCB.MPC$ THEN DO;

   4281  1 000147   200006 470500                    LDP0    DCB$,,AUTO
         1 000150   200022 236100                    LDQ     MPC$,,AUTO
         1 000151   000050 116100                    CMPQ    40,,PR0
         1 000152   000161 600000 1                  TZE     s:4284

     1153     4282    3   ALTBAD:       CALL BADRET(%E$TDALTBAD,4);

   4282  1 000153   000001 236000 2     ALTBAD       LDQ     1
         1 000154   200034 756100                    STQ     @ERROR+1,,AUTO
         1 000155   000010 236000 2                  LDQ     8
         1 000156   200033 756100                    STQ     WRITE_FLG+2,,AUTO
         1 000157   001147 701000 1                  TSX1    BADRET
         1 000160   000000 011000                    NOP     0

     1154     4283    3                 END;

     1155     4284    2              IF DCT$~=DCB$->F$DCB.DCT$ THEN CALL BADRET(%E$TDALTBAD,4);

   4284  1 000161   200006 470500                    LDP0    DCB$,,AUTO
         1 000162   200010 236100                    LDQ     DCT$,,AUTO
         1 000163   000047 116100                    CMPQ    39,,PR0
         1 000164   000173 600000 1                  TZE     s:4285

   4284  1 000165   000001 236000 2                  LDQ     1
         1 000166   200034 756100                    STQ     @ERROR+1,,AUTO
         1 000167   000010 236000 2                  LDQ     8
         1 000170   200033 756100                    STQ     WRITE_FLG+2,,AUTO
         1 000171   001147 701000 1                  TSX1    BADRET
         1 000172   000000 011000                    NOP     0

     1156     4285    2              DCB$->F$DCB.PATH=TDIOV.ALTPATH;
PL6.E3A0      #004=TDP$TDIO File=TDP$PMME.:E05TSI                                WED 07/30/97 06:06 Page:222

   4285  1 000173   200006 470500                    LDP0    DCB$,,AUTO
         1 000174   000000 471400 xsym               LDP1    B$PS0$
         1 000175   100000 236100                    LDQ     0,,PR1
         1 000176   000060 752103                    STCQ    48,'03'O,PR0

     1157     4286    2              END;

   4286  1 000177   000206 710000 1                  TRA     s:4291

     1158     4287    2           ELSE DO;

     1159     4288    2              DCB.PATH.IOM=DCB.DEVADR.IOM;

   4288  1 000200   000051 236100                    LDQ     41,,PR0
         1 000201   000060 676100                    ERQ     48,,PR0
         1 000202   007000 376007                    ANQ     3584,DL
         1 000203   000060 656100                    ERSQ    48,,PR0

     1160     4289    2              DCB.PATH.CHAN=DCB.DEVADR.CHAN;

   4289  1 000204   000051 236100                    LDQ     41,,PR0
         1 000205   000060 552104                    STBQ    48,'04'O,PR0

     1161     4290    2              END;

     1162     4291    1           DCB.DQH$=NI$CHT.DQH$(DCB.PATH.IOM*%N_MAXCHANS+DCB.PATH.CHAN);

   4291  1 000206   000060 236100                    LDQ     48,,PR0
         1 000207   000777 376007                    ANQ     511,DL
         1 000210   200036 756100                    STQ     @SEV+2,,AUTO
         1 000211   000060 236100                    LDQ     48,,PR0
         1 000212   000002 772000                    QRL     2
         1 000213   001600 376007                    ANQ     896,DL
         1 000214   200036 036100                    ADLQ    @SEV+2,,AUTO
         1 000215   000001 736000                    QLS     1
         1 000216   000000 473400 xsym               LDP3    NI$CHT$
PL6.E3A0      #004=TDP$TDIO File=TDP$PMME.:E05TSI                                WED 07/30/97 06:06 Page:223
         1 000217   300000 236106                    LDQ     0,QL,PR3
         1 000220   000046 756100                    STQ     38,,PR0

     1163     4292    1           CONT_FLG='1'B;

   4292  1 000221   400000 236003                    LDQ     -131072,DU
         1 000222   200005 756100                    STQ     CONT_FLG,,AUTO

     1164     4293    1           WRITE_FLG='0'B;

   4293  1 000223   200031 450100                    STZ     WRITE_FLG,,AUTO

     1165     4294    1           SUSPEND='0'B;

   4294  1 000224   200030 450100                    STZ     SUSPEND,,AUTO

     1166     4295    1           RELEASE='0'B;

   4295  1 000225   200025 450100                    STZ     RELEASE,,AUTO

     1167     4296    1           CALL HFF$NILERASE(B$PS1$) ALTRET(NO_DCW_LIST);

   4296  1 000226   000012 630400 2                  EPPR0   10
         1 000227   000017 631400 xsym               EPPR1   B_VECTNIL+15
         1 000230   000000 701000 xent               TSX1    HFF$NILERASE
         1 000231   000377 702000 1                  TSX2    NO_DCW_LIST

     1168     4297    1           DCW$=B$PS1$;

   4297  1 000232   000000 236000 xsym               LDQ     B$PS1$
         1 000233   200011 756100                    STQ     DCW$,,AUTO

     1169     4298    2           DO WHILE (CONT_FLG);

   4298  1 000234   200005 234100                    SZN     CONT_FLG,,AUTO
         1 000235   000377 605000 1                  TPL     NO_DCW_LIST

PL6.E3A0      #004=TDP$TDIO File=TDP$PMME.:E05TSI                                WED 07/30/97 06:06 Page:224
     1170     4299    3              IF IDCW.SVN=7 THEN DO;       /* THIS MUST BE AN IDCW               */

   4299  1 000236   200011 470500                    LDP0    DCW$,,AUTO
         1 000237   000000 236100                    LDQ     0,,PR0
         1 000240   700000 376007                    ANQ     -32768,DL
         1 000241   700000 116007                    CMPQ    -32768,DL
         1 000242   000346 601000 1                  TNZ     s:4325

     1171     4300    3                 IF IDCW.DVN~=0 THEN

   4300  1 000243   000000 236100                    LDQ     0,,PR0
         1 000244   007700 316003                    CANQ    4032,DU
         1 000245   000252 600000 1                  TZE     s:4302

     1172     4301    3                    IDCW.DVN=DCB.DEVADR.DVN;

   4301  1 000246   200006 471500                    LDP1    DCB$,,AUTO
         1 000247   100051 236100                    LDQ     41,,PR1
         1 000250   000014 736000                    QLS     12
         1 000251   000000 752120                    STCQ    0,'20'O,PR0

     1173     4302    3                 IF HW_IMX THEN

   4302  1 000252   000000 234000 xsym               SZN     HW_IMX
         1 000253   000256 605000 1                  TPL     s:4304

     1174     4303    3                    IDCW.DATA.BASE=%IMX_TDBUF_BASE;

   4303  1 000254   000013 236000 2                  LDQ     11
         1 000255   000000 356100                    ANSQ    0,,PR0

     1175     4304    3                 CONT_FLG=IDCW.CONT;

   4304  1 000256   000000 236100                    LDQ     0,,PR0
         1 000257   000026 736000                    QLS     22
         1 000260   400000 376003                    ANQ     -131072,DU
         1 000261   200005 756100                    STQ     CONT_FLG,,AUTO
PL6.E3A0      #004=TDP$TDIO File=TDP$PMME.:E05TSI                                WED 07/30/97 06:06 Page:225

     1176     4305    3                 IF DCB.TDFLG.SDSK THEN

   4305  1 000262   200006 471500                    LDP1    DCB$,,AUTO
         1 000263   100040 236100                    LDQ     32,,PR1
         1 000264   400000 316007                    CANQ    -131072,DL
         1 000265   000322 600000 1                  TZE     s:4314

     1177     4306    4                 DO CASE(IDCW.DC);

   4306  1 000266   000000 236100                    LDQ     0,,PR0
         1 000267   000036 772000                    QRL     30
         1 000270   000030 136007                    SBLQ    24,DL
         1 000271   000007 116007                    CMPQ    7,DL
         1 000272   000274 602006 1                  TNC     s:4306+6,QL
         1 000273   000322 710000 1                  TRA     s:4314
         1 000274   000303 710000 1                  TRA     s:4308
         1 000275   000310 710000 1                  TRA     s:4312
         1 000276   000310 710000 1                  TRA     s:4312
         1 000277   000310 710000 1                  TRA     s:4312
         1 000300   000303 710000 1                  TRA     s:4308
         1 000301   000305 710000 1                  TRA     s:4310
         1 000302   000305 710000 1                  TRA     s:4310

     1178     4307    4                  CASE(28,24);             /* SEEK                               */

     1179     4308    4                    WRITE_FLG='0'B;

   4308  1 000303   200031 450100                    STZ     WRITE_FLG,,AUTO
         1 000304   000322 710000 1                  TRA     s:4314

     1180     4309    4                  CASE(30,29);             /* SPECIAL SEEK                       */

     1181     4310    4                    WRITE_FLG='1'B;

   4310  1 000305   400000 236003                    LDQ     -131072,DU
         1 000306   200031 756100                    STQ     WRITE_FLG,,AUTO
PL6.E3A0      #004=TDP$TDIO File=TDP$PMME.:E05TSI                                WED 07/30/97 06:06 Page:226
         1 000307   000322 710000 1                  TRA     s:4314

     1182     4311    4                  CASE(25,26,27/*WRITES*/);

     1183     4312    4                    IF ~WRITE_FLG THEN CALL BADRET(%E$TDBADIDCW,4);

   4312  1 000310   200031 236100                    LDQ     WRITE_FLG,,AUTO
         1 000311   400000 376003                    ANQ     -131072,DU
         1 000312   400000 676003                    ERQ     -131072,DU
         1 000313   000322 600000 1                  TZE     s:4314

   4312  1 000314   000001 236000 2                  LDQ     1
         1 000315   200034 756100                    STQ     @ERROR+1,,AUTO
         1 000316   000015 236000 2                  LDQ     13
         1 000317   200033 756100                    STQ     WRITE_FLG+2,,AUTO
         1 000320   001147 701000 1                  TSX1    BADRET
         1 000321   000000 011000                    NOP     0

     1184     4313    4                  END;                     /* CASE IDCW.DC                       */

     1185     4314    4                 IF IDCW.CCB & '40'O THEN DO;

   4314  1 000322   200011 470500                    LDP0    DCW$,,AUTO
         1 000323   000000 236100                    LDQ     0,,PR0
         1 000324   000030 736000                    QLS     24
         1 000325   770000 376003                    ANQ     -4096,DU
         1 000326   400000 376003                    ANQ     -131072,DU
         1 000327   000370 600000 1                  TZE     s:4332

     1186     4315    5                    IF IDCW.DC=0 THEN DO;

   4315  1 000330   000000 236100                    LDQ     0,,PR0
         1 000331   770000 316003                    CANQ    -4096,DU
         1 000332   000337 601000 1                  TNZ     s:4319

     1187     4316    5                       SUSPEND='1'B;

PL6.E3A0      #004=TDP$TDIO File=TDP$PMME.:E05TSI                                WED 07/30/97 06:06 Page:227
   4316  1 000333   400000 236003                    LDQ     -131072,DU
         1 000334   200030 756100                    STQ     SUSPEND,,AUTO

     1188     4317    5                       RELEASE='0'B;

   4317  1 000335   200025 450100                    STZ     RELEASE,,AUTO

     1189     4318    5                       END;

   4318  1 000336   000370 710000 1                  TRA     s:4332

     1190     4319    5                    ELSE IF IDCW.DC=BITBIN('20'O) THEN DO;

   4319  1 000337   000000 236100                    LDQ     0,,PR0
         1 000340   770000 376003                    ANQ     -4096,DU
         1 000341   200000 116003                    CMPQ    65536,DU
         1 000342   000370 601000 1                  TNZ     s:4332

     1191     4320    5                          RELEASE='1'B;

   4320  1 000343   400000 236003                    LDQ     -131072,DU
         1 000344   200025 756100                    STQ     RELEASE,,AUTO

     1192     4321    5                          END;

     1193     4322    4                    END;

     1194     4323    3                 END;                      /* THIS MUST BE AN IDCW               */

   4323  1 000345   000370 710000 1                  TRA     s:4332

     1195     4324    2              ELSE                         /* THIS MUST BE A DCW OF ANOTHER SORT */
     1196     4325    3              DO CASE(DCW.TYPE);

   4325  1 000346   000000 236100                    LDQ     0,,PR0
         1 000347   000014 772000                    QRL     12
         1 000350   000007 376007                    ANQ     7,DL
PL6.E3A0      #004=TDP$TDIO File=TDP$PMME.:E05TSI                                WED 07/30/97 06:06 Page:228
         1 000351   000003 116007                    CMPQ    3,DL
         1 000352   000354 602006 1                  TNC     s:4325+6,QL
         1 000353   000370 710000 1                  TRA     s:4332
         1 000354   000370 710000 1                  TRA     s:4332
         1 000355   000370 710000 1                  TRA     s:4332
         1 000356   000357 710000 1                  TRA     s:4327

     1197     4326    3               CASE(%DCW_TDCW);

     1198     4327    3                 IF HW_IMX THEN

   4327  1 000357   000000 234000 xsym               SZN     HW_IMX
         1 000360   000363 605000 1                  TPL     s:4329

     1199     4328    3                    DCW.T.DCWLIST.BASE=%IMX_TDBUF_BASE;

   4328  1 000361   000016 236000 2                  LDQ     14
         1 000362   000000 356100                    ANSQ    0,,PR0

     1200     4329    3                 DCW$=PINCRW(B$PS2$,DCW.FWA-1);

   4329  1 000363   000000 220100                    LDX0    0,,PR0
         1 000364   777777 636010                    EAQ     -1,X0
         1 000365   000000 036000 xsym               ADLQ    B$PS2$
         1 000366   200011 756100                    STQ     DCW$,,AUTO
         1 000367   000370 710000 1                  TRA     s:4332

     1201     4330    3               CASE(ELSE);

     1202     4331    3               END;

     1203     4332    2              IF CONT_FLG THEN

   4332  1 000370   200005 234100                    SZN     CONT_FLG,,AUTO
         1 000371   000375 605000 1                  TPL     s:4334

     1204     4333    2                 DCW$=PINCRW(DCW$,1);
PL6.E3A0      #004=TDP$TDIO File=TDP$PMME.:E05TSI                                WED 07/30/97 06:06 Page:229

   4333  1 000372   200011 236100                    LDQ     DCW$,,AUTO
         1 000373   000001 036003                    ADLQ    1,DU
         1 000374   200011 756100                    STQ     DCW$,,AUTO

     1205     4334    2              END;                         /* DO WHILE CONT_FLG                  */

   4334  1 000375   200005 234100                    SZN     CONT_FLG,,AUTO
         1 000376   000236 604000 1                  TMI     s:4299

   4330  1 000377                       NO_DCW_LIST  null
     1206     4335    1   NO_DCW_LIST: ;                     /* CONT_FLG WILL BE SET IF NO DCW LIST     */
     1207     4336        /* MAKE NECESSARY UPDATES TO DCB AND USER TABLE INFO */
     1208     4337    1           IF S$CU$->B$U.MF >= SL_MF(B$JIT.MODE)

   4337  1 000377   000000 470400 xsym               LDP0    B$JIT$
         1 000400   000000 236100                    LDQ     0,,PR0
         1 000401   000040 772000                    QRL     32
         1 000402   000000 620006                    EAX0    0,QL
         1 000403   000000 471400 xsym               LDP1    S$CU$
         1 000404   100006 236100                    LDQ     6,,PR1
         1 000405   000033 772000                    QRL     27
         1 000406   000000 116010 xsym               CMPQ    SL_MF,X0
         1 000407   000414 604000 1                  TMI     s:4340

     1209     4338    1           THEN CALL SSR$REG(%SS_QMF);

   4338  1 000410   000017 630400 2                  EPPR0   15
         1 000411   000017 631400 xsym               EPPR1   B_VECTNIL+15
         1 000412   000000 701000 xent               TSX1    SSR$REG
         1 000413   000000 011000                    NOP     0

     1210     4339                %LOCK (G#=NI_MFGATE);

   4340  1 000414   000020 630400 2                  EPPR0   16
         1 000415   000017 631400 xsym               EPPR1   B_VECTNIL+15
         1 000416   000000 701000 xent               TSX1    HFC$LOCK
PL6.E3A0      #004=TDP$TDIO File=TDP$PMME.:E05TSI                                WED 07/30/97 06:06 Page:230
         1 000417   000000 011000                    NOP     0

     1211     4342    1           S$CU$->B$U.MF=S$CU$->B$U.MF+1;

   4342  1 000420   000000 470400 xsym               LDP0    S$CU$
         1 000421   000006 236100                    LDQ     6,,PR0
         1 000422   001000 036003                    ADLQ    512,DU
         1 000423   000006 552140                    STBQ    6,'40'O,PR0

     1212     4343                %UNLOCK (G#=NI_MFGATE);

   4344  1 000424   000020 630400 2                  EPPR0   16
         1 000425   000017 631400 xsym               EPPR1   B_VECTNIL+15
         1 000426   000000 701000 xent               TSX1    HFC$UNLOCK
         1 000427   000000 011000                    NOP     0

     1213     4346    1           DCB$->F$DCB.WAIT=0;

   4346  1 000430   200006 470500                    LDP0    DCB$,,AUTO
         1 000431   000021 236000 2                  LDQ     17
         1 000432   000064 356100                    ANSQ    52,,PR0

     1214     4347                %LOCK (G#=F_DCBLOCK);

   4348  1 000433   000022 630400 2                  EPPR0   18
         1 000434   000017 631400 xsym               EPPR1   B_VECTNIL+15
         1 000435   000000 701000 xent               TSX1    HFC$LOCK
         1 000436   000000 011000                    NOP     0

     1215     4350    1           DCB$->F$DCB.FCN.CNT(0)=DCB$->F$DCB.FCN.CNT(0)+1;

   4350  1 000437   200006 470500                    LDP0    DCB$,,AUTO
         1 000440   000074 236100                    LDQ     60,,PR0
         1 000441   000033 772000                    QRL     27
         1 000442   000377 376007                    ANQ     255,DL
         1 000443   000001 036007                    ADLQ    1,DL
         1 000444   000033 736000                    QLS     27
PL6.E3A0      #004=TDP$TDIO File=TDP$PMME.:E05TSI                                WED 07/30/97 06:06 Page:231
         1 000445   000074 676100                    ERQ     60,,PR0
         1 000446   377000 376003                    ANQ     130560,DU
         1 000447   000074 656100                    ERSQ    60,,PR0

     1216     4351                %UNLOCK (G#=F_DCBLOCK);

   4352  1 000450   000022 630400 2                  EPPR0   18
         1 000451   000017 631400 xsym               EPPR1   B_VECTNIL+15
         1 000452   000000 701000 xent               TSX1    HFC$UNLOCK
         1 000453   000000 011000                    NOP     0

     1217     4354        /*   All access checks have been passed, we now get an IOQ packet
     1218     4355             and set it up to do the I/O. */
     1219     4356    1           CALL NIQ$GET(REQ$);

   4356  1 000454   200026 630500                    EPPR0   REQ$,,AUTO
         1 000455   200036 450500                    STP0    @SEV+2,,AUTO
         1 000456   200036 630500                    EPPR0   @SEV+2,,AUTO
         1 000457   000017 631400 xsym               EPPR1   B_VECTNIL+15
         1 000460   000000 701000 xent               TSX1    NIQ$GET
         1 000461   000000 011000                    NOP     0

     1220     4357    2           IF N$REQ.IOFLG.IOS THEN DO;

   4357  1 000462   200026 470500                    LDP0    REQ$,,AUTO
         1 000463   000004 236100                    LDQ     4,,PR0
         1 000464   040000 316007                    CANQ    16384,DL
         1 000465   000506 600000 1                  TZE     s:4366

     1221     4358    2              IOS$=N$REQ.IOS$;

   4358  1 000466   000012 236100                    LDQ     10,,PR0
         1 000467   200017 756100                    STQ     IOS$,,AUTO

     1222     4359    2              NI$REQ=NI$REQ_INIT;

   4359  1 000470   200017 471500                    LDP1    IOS$,,AUTO
PL6.E3A0      #004=TDP$TDIO File=TDP$PMME.:E05TSI                                WED 07/30/97 06:06 Page:232
         1 000471   000100 100400                    MLR     fill='000'O
         1 000472   000000 000070 xsym               ADSC9   NI$REQ_INIT              cn=0,n=56
         1 000473   100000 000070                    ADSC9   0,,PR1                   cn=0,n=56

     1223     4360    3              IF HW_IMX THEN DO;

   4360  1 000474   000000 234000 xsym               SZN     HW_IMX
         1 000475   000527 605000 1                  TPL     s:4372

     1224     4361    3                 MBX$=PINCRW(IOS$,%IMX_MBX_OFFSET);

   4361  1 000476   200017 236100                    LDQ     IOS$,,AUTO
         1 000477   000010 036003                    ADLQ    8,DU
         1 000500   200021 756100                    STQ     MBX$,,AUTO

     1225     4362    3                 NI$IMXMBX=NI$IMXMBX_INIT;

   4362  1 000501   200021 470500                    LDP0    MBX$,,AUTO
         1 000502   000100 100400                    MLR     fill='000'O
         1 000503   000000 000140 xsym               ADSC9   NI$IMXMBX_INIT           cn=0,n=96
         1 000504   000000 000140                    ADSC9   0,,PR0                   cn=0,n=96

     1226     4363    3                 END;

     1227     4364    2              END;

   4364  1 000505   000527 710000 1                  TRA     s:4372

     1228     4365    2           ELSE DO;

     1229     4366    2              CALL NIQ$GETS(IOS$);

   4366  1 000506   200017 631500                    EPPR1   IOS$,,AUTO
         1 000507   200036 451500                    STP1    @SEV+2,,AUTO
         1 000510   200036 630500                    EPPR0   @SEV+2,,AUTO
         1 000511   000017 631400 xsym               EPPR1   B_VECTNIL+15
         1 000512   000000 701000 xent               TSX1    NIQ$GETS
PL6.E3A0      #004=TDP$TDIO File=TDP$PMME.:E05TSI                                WED 07/30/97 06:06 Page:233
         1 000513   000000 011000                    NOP     0

     1230     4367    2              IF HW_IMX THEN

   4367  1 000514   000000 234000 xsym               SZN     HW_IMX
         1 000515   000521 605000 1                  TPL     s:4369

     1231     4368    2                 MBX$=PINCRW(IOS$,%IMX_MBX_OFFSET);

   4368  1 000516   200017 236100                    LDQ     IOS$,,AUTO
         1 000517   000010 036003                    ADLQ    8,DU
         1 000520   200021 756100                    STQ     MBX$,,AUTO

     1232     4369    2              N$REQ.IOS$=IOS$;

   4369  1 000521   200017 236100                    LDQ     IOS$,,AUTO
         1 000522   200026 470500                    LDP0    REQ$,,AUTO
         1 000523   000012 756100                    STQ     10,,PR0

     1233     4370    2              N$REQ.IOFLG.IOS='1'B;

   4370  1 000524   200026 470500                    LDP0    REQ$,,AUTO
         1 000525   040000 236007                    LDQ     16384,DL
         1 000526   000004 256100                    ORSQ    4,,PR0

     1234     4371    2              END;

     1235     4372    1           N$REQ.DCT$=DCB.DCT$;

   4372  1 000527   200006 470500                    LDP0    DCB$,,AUTO
         1 000530   000047 236100                    LDQ     39,,PR0
         1 000531   200026 471500                    LDP1    REQ$,,AUTO
         1 000532   100002 756100                    STQ     2,,PR1

     1236     4373    1           N$REQ.DLA.DCTX=DCB.DCT$->NI$DCT.DCTX;

   4373  1 000533   000047 471500                    LDP1    39,,PR0
PL6.E3A0      #004=TDP$TDIO File=TDP$PMME.:E05TSI                                WED 07/30/97 06:06 Page:234
         1 000534   200026 473500                    LDP3    REQ$,,AUTO
         1 000535   100006 236100                    LDQ     6,,PR1
         1 000536   300001 676100                    ERQ     1,,PR3
         1 000537   777770 376003                    ANQ     -8,DU
         1 000540   300001 656100                    ERSQ    1,,PR3

     1237     4374    1           N$REQ.COMP=%COMP_TD;

   4374  1 000541   200026 471500                    LDP1    REQ$,,AUTO
         1 000542   100027 236100                    LDQ     23,,PR1
         1 000543   000023 376000 2                  ANQ     19
         1 000544   004000 276007                    ORQ     2048,DL
         1 000545   100027 756100                    STQ     23,,PR1

     1238     4375    1           N$REQ.IOFLG.SUSP=SUSPEND;

   4375  1 000546   200030 236100                    LDQ     SUSPEND,,AUTO
         1 000547   000030 772000                    QRL     24
         1 000550   100004 676100                    ERQ     4,,PR1
         1 000551   004000 376007                    ANQ     2048,DL
         1 000552   100004 656100                    ERSQ    4,,PR1

     1239     4376    1           N$REQ.IOFLG.REL=RELEASE;

   4376  1 000553   200026 471500                    LDP1    REQ$,,AUTO
         1 000554   200025 236100                    LDQ     RELEASE,,AUTO
         1 000555   000031 772000                    QRL     25
         1 000556   100004 676100                    ERQ     4,,PR1
         1 000557   002000 376007                    ANQ     1024,DL
         1 000560   100004 656100                    ERSQ    4,,PR1

     1240     4377    1           N$REQ.BPMIR = '1'B ;

   4377  1 000561   200026 471500                    LDP1    REQ$,,AUTO
         1 000562   200000 236003                    LDQ     65536,DU
         1 000563   100034 256100                    ORSQ    28,,PR1

PL6.E3A0      #004=TDP$TDIO File=TDP$PMME.:E05TSI                                WED 07/30/97 06:06 Page:235
     1241     4378    1           CALL NIM$CVTPTR(B$PS2$,BUFADDR,BUFPTP);

   4378  1 000564   200004 633500                    EPPR3   BUFPTP,,AUTO
         1 000565   200040 453500                    STP3    @SEV+4,,AUTO
         1 000566   200003 634500                    EPPR4   BUFADDR,,AUTO
         1 000567   200037 454500                    STP4    @SEV+3,,AUTO
         1 000570   000024 236000 2                  LDQ     20
         1 000571   200036 756100                    STQ     @SEV+2,,AUTO
         1 000572   200036 630500                    EPPR0   @SEV+2,,AUTO
         1 000573   000021 631400 xsym               EPPR1   B_VECTNIL+17
         1 000574   000000 701000 xent               TSX1    NIM$CVTPTR
         1 000575   000000 011000                    NOP     0

     1242     4379    2           IF CONT_FLG THEN DO;            /* NO DCWLIST                         */

   4379  1 000576   200005 234100                    SZN     CONT_FLG,,AUTO
         1 000577   000606 605000 1                  TPL     s:4384

     1243     4380    2              NI$REQ.IDCW(0)='0000007'O;

   4380  1 000600   000000 236000 0                  LDQ     0
         1 000601   200017 470500                    LDP0    IOS$,,AUTO
         1 000602   000002 756100                    STQ     2,,PR0

     1244     4381    2              DCWPTP=BUFPTP;

   4381  1 000603   200004 235100                    LDA     BUFPTP,,AUTO
         1 000604   200013 755100                    STA     DCWPTP,,AUTO

     1245     4382    2              END;

   4382  1 000605   000721 710000 1                  TRA     s:4406

     1246     4383    2           ELSE DO;

     1247     4384    2              CALL NIM$CVTPTR(B$PS1$,DCWADDR,DCWPTP);

PL6.E3A0      #004=TDP$TDIO File=TDP$PMME.:E05TSI                                WED 07/30/97 06:06 Page:236
   4384  1 000606   200013 630500                    EPPR0   DCWPTP,,AUTO
         1 000607   200040 450500                    STP0    @SEV+4,,AUTO
         1 000610   200012 631500                    EPPR1   DCWADDR,,AUTO
         1 000611   200037 451500                    STP1    @SEV+3,,AUTO
         1 000612   000012 236000 2                  LDQ     10
         1 000613   200036 756100                    STQ     @SEV+2,,AUTO
         1 000614   200036 630500                    EPPR0   @SEV+2,,AUTO
         1 000615   000021 631400 xsym               EPPR1   B_VECTNIL+17
         1 000616   000000 701000 xent               TSX1    NIM$CVTPTR
         1 000617   000000 011000                    NOP     0

     1248     4385    3              IF HW_IMX THEN DO;

   4385  1 000620   000000 234000 xsym               SZN     HW_IMX
         1 000621   000665 605000 1                  TPL     s:4394

     1249     4386    3                 NI$REQ.DCW(0)=%TDCWM1;

   4386  1 000622   000001 236000 0                  LDQ     1
         1 000623   200017 470500                    LDP0    IOS$,,AUTO
         1 000624   000002 756100                    STQ     2,,PR0

     1250     4387    3                 NI$REQ.DCW.T.DCWLIST.BASE(0)=%IMX_TDDCW_BASE;

   4387  1 000625   200017 470500                    LDP0    IOS$,,AUTO
         1 000626   000002 236100                    LDQ     2,,PR0
         1 000627   000016 376000 2                  ANQ     14
         1 000630   000100 276007                    ORQ     64,DL
         1 000631   000002 756100                    STQ     2,,PR0

     1251     4388    3                 CALL HFF$DSIZ (B$PS1$,I);

   4388  1 000632   200016 630500                    EPPR0   I,,AUTO
         1 000633   200037 450500                    STP0    @SEV+3,,AUTO
         1 000634   000012 236000 2                  LDQ     10
         1 000635   200036 756100                    STQ     @SEV+2,,AUTO
         1 000636   200036 630500                    EPPR0   @SEV+2,,AUTO
PL6.E3A0      #004=TDP$TDIO File=TDP$PMME.:E05TSI                                WED 07/30/97 06:06 Page:237
         1 000637   000020 631400 xsym               EPPR1   B_VECTNIL+16
         1 000640   000000 701000 xent               TSX1    HFF$DSIZ
         1 000641   000000 011000                    NOP     0

     1252     4389    3                 NI$IMXMBX.PAGED_BASE.PTWADDR(%IMX_TDDCW_BASE)=DCWPTP;

   4389  1 000642   200021 470500                    LDP0    MBX$,,AUTO
         1 000643   200013 236100                    LDQ     DCWPTP,,AUTO
         1 000644   000012 736000                    QLS     10
         1 000645   000001 676100                    ERQ     1,,PR0
         1 000646   000025 376000 2                  ANQ     21
         1 000647   000001 656100                    ERSQ    1,,PR0

     1253     4390    3                 NI$IMXMBX.PAGED_BASE.OFFSET(%IMX_TDDCW_BASE)=DCWADDR/4;

   4390  1 000650   200012 236100                    LDQ     DCWADDR,,AUTO
         1 000651   000002 772000                    QRL     2
         1 000652   000001 676100                    ERQ     1,,PR0
         1 000653   001777 376007                    ANQ     1023,DL
         1 000654   000001 656100                    ERSQ    1,,PR0

     1254     4391    3                 NI$IMXMBX.SIZE(%IMX_TDDCW_BASE)=(I+DCWVIRT.BYT+3)/4 - 1;

   4391  1 000655   200012 236100                    LDQ     DCWADDR,,AUTO
         1 000656   000007 376007                    ANQ     7,DL
         1 000657   200016 036100                    ADLQ    I,,AUTO
         1 000660   000003 036007                    ADLQ    3,DL
         1 000661   000004 506007                    DIV     4,DL
         1 000662   777777 620006                    EAX0    -1,QL
         1 000663   000004 440100                    SXL0    4,,PR0

     1255     4392    3                 END;

   4392  1 000664   000721 710000 1                  TRA     s:4406

     1256     4393    3              ELSE DO;

PL6.E3A0      #004=TDP$TDIO File=TDP$PMME.:E05TSI                                WED 07/30/97 06:06 Page:238
     1257     4394    4                 IF BUFPTP<DCWPTP THEN DO;

   4394  1 000665   200004 236100                    LDQ     BUFPTP,,AUTO
         1 000666   200013 116100                    CMPQ    DCWPTP,,AUTO
         1 000667   000701 605000 1                  TPL     s:4398

     1258     4395    4                    DCWADDR=DCWADDR+(4096*HW_IOPTP_UNITS*(DCWPTP-BUFPTP));

   4395  1 000670   200013 236100                    LDQ     DCWPTP,,AUTO
         1 000671   200004 136100                    SBLQ    BUFPTP,,AUTO
         1 000672   000000 402000 xsym               MPY     HW_IOPTP_UNITS
         1 000673   000014 736000                    QLS     12
         1 000674   200012 036100                    ADLQ    DCWADDR,,AUTO
         1 000675   200012 756100                    STQ     DCWADDR,,AUTO

     1259     4396    4                    DCWPTP=BUFPTP;

   4396  1 000676   200004 235100                    LDA     BUFPTP,,AUTO
         1 000677   200013 755100                    STA     DCWPTP,,AUTO

     1260     4397    4                    END;

   4397  1 000700   000711 710000 1                  TRA     s:4402

     1261     4398    4                 ELSE IF BUFPTP>DCWPTP THEN DO;

   4398  1 000701   000711 604400 1                  TMOZ    s:4402

     1262     4399    4                       BUFADDR=BUFADDR+(4096*HW_IOPTP_UNITS*(BUFPTP-DCWPTP));

   4399  1 000702   200013 136100                    SBLQ    DCWPTP,,AUTO
         1 000703   000000 402000 xsym               MPY     HW_IOPTP_UNITS
         1 000704   000014 736000                    QLS     12
         1 000705   200003 036100                    ADLQ    BUFADDR,,AUTO
         1 000706   200003 756100                    STQ     BUFADDR,,AUTO

     1263     4400    4                       BUFPTP=DCWPTP;
PL6.E3A0      #004=TDP$TDIO File=TDP$PMME.:E05TSI                                WED 07/30/97 06:06 Page:239

   4400  1 000707   200013 235100                    LDA     DCWPTP,,AUTO
         1 000710   200004 755100                    STA     BUFPTP,,AUTO

     1264     4401    4                       END;

     1265     4402    3                 NI$REQ.DCW(0)=%TDCWM4;

   4402  1 000711   000002 236000 0                  LDQ     2
         1 000712   200017 470500                    LDP0    IOS$,,AUTO
         1 000713   000002 756100                    STQ     2,,PR0

     1266     4403    3                 NI$REQ.DCW.FWA(0)=DCWADDR/4;

   4403  1 000714   200012 236100                    LDQ     DCWADDR,,AUTO
         1 000715   000002 772000                    QRL     2
         1 000716   000000 620006                    EAX0    0,QL
         1 000717   200017 470500                    LDP0    IOS$,,AUTO
         1 000720   000002 740100                    STX0    2,,PR0

     1267     4404    3                 END;

     1268     4405    2              END;

     1269     4406    1           N$REQ.LPWX.BASE=BUFADDR/8;

   4406  1 000721   200003 236100                    LDQ     BUFADDR,,AUTO
         1 000722   000003 772000                    QRL     3
         1 000723   000000 620006                    EAX0    0,QL
         1 000724   200026 470500                    LDP0    REQ$,,AUTO
         1 000725   000011 740100                    STX0    9,,PR0

     1270     4407    1           CALL HFF$DSIZ(B$PS2$,I);

   4407  1 000726   200016 630500                    EPPR0   I,,AUTO
         1 000727   200037 450500                    STP0    @SEV+3,,AUTO
         1 000730   000024 236000 2                  LDQ     20
PL6.E3A0      #004=TDP$TDIO File=TDP$PMME.:E05TSI                                WED 07/30/97 06:06 Page:240
         1 000731   200036 756100                    STQ     @SEV+2,,AUTO
         1 000732   200036 630500                    EPPR0   @SEV+2,,AUTO
         1 000733   000020 631400 xsym               EPPR1   B_VECTNIL+16
         1 000734   000000 701000 xent               TSX1    HFF$DSIZ
         1 000735   000000 011000                    NOP     0

     1271     4408    1           N$REQ.LPWX.BOUND=(I+BUFVIRT.BYT)/4;

   4408  1 000736   200003 236100                    LDQ     BUFADDR,,AUTO
         1 000737   000007 376007                    ANQ     7,DL
         1 000740   200016 036100                    ADLQ    I,,AUTO
         1 000741   000004 506007                    DIV     4,DL
         1 000742   000000 620006                    EAX0    0,QL
         1 000743   200026 470500                    LDP0    REQ$,,AUTO
         1 000744   000011 440100                    SXL0    9,,PR0

     1272     4409    1           N$REQ.PTP=BUFPTP;

   4409  1 000745   200026 470500                    LDP0    REQ$,,AUTO
         1 000746   200004 235100                    LDA     BUFPTP,,AUTO
         1 000747   000007 755100                    STA     7,,PR0

     1273     4410    2           IF HW_IMX THEN DO;

   4410  1 000750   000000 234000 xsym               SZN     HW_IMX
         1 000751   001035 605000 1                  TPL     s:4429

     1274     4411    2              NI$IMXMBX.PAGED_BASE(%IMX_IOS_BASE)=BINBIT(NI_IMXLO_PBASE,36);

   4411  1 000752   000000 236000 xsym               LDQ     NI_IMXLO_PBASE
         1 000753   200021 470500                    LDP0    MBX$,,AUTO
         1 000754   000002 756100                    STQ     2,,PR0

     1275     4412    2              NI$IMXMBX.SIZE(%IMX_IOS_BASE)=(%IMXHI-%IMXLO+1)*1024 - 1;

   4412  1 000755   037777 220003                    LDX0    16383,DU
         1 000756   000005 740100                    STX0    5,,PR0
PL6.E3A0      #004=TDP$TDIO File=TDP$PMME.:E05TSI                                WED 07/30/97 06:06 Page:241

     1276     4413    2              NI$IMXMBX.PAGED_BASE.PTWADDR(%IMX_TDBUF_BASE)=BUFPTP;

   4413  1 000757   200004 236100                    LDQ     BUFPTP,,AUTO
         1 000760   000012 736000                    QLS     10
         1 000761   000000 676100                    ERQ     0,,PR0
         1 000762   000025 376000 2                  ANQ     21
         1 000763   000000 656100                    ERSQ    0,,PR0

     1277     4414    2              NI$IMXMBX.PAGED_BASE.OFFSET(%IMX_TDBUF_BASE)=N$REQ.LPWX.BASE*2;

   4414  1 000764   200026 471500                    LDP1    REQ$,,AUTO
         1 000765   100011 236100                    LDQ     9,,PR1
         1 000766   000021 772000                    QRL     17
         1 000767   000026 376000 2                  ANQ     22
         1 000770   000000 676100                    ERQ     0,,PR0
         1 000771   001777 376007                    ANQ     1023,DL
         1 000772   000000 656100                    ERSQ    0,,PR0

     1278     4415    2              NI$IMXMBX.SIZE(%IMX_TDBUF_BASE)=N$REQ.LPWX.BOUND-1;

   4415  1 000773   200026 471500                    LDP1    REQ$,,AUTO
         1 000774   100011 721100                    LXL1    9,,PR1
         1 000775   777777 622011                    EAX2    -1,X1
         1 000776   000004 742100                    STX2    4,,PR0

     1279     4416    2              PNTR$=ADDR(NI$REQ.DCW(0));

   4416  1 000777   200017 236100                    LDQ     IOS$,,AUTO
         1 001000   000002 036003                    ADLQ    2,DU
         1 001001   200024 756100                    STQ     PNTR$,,AUTO

     1280     4417    2              NI$IMXMBX.LPW.DCW_ADDR=PNTR.WA;

   4417  1 001002   200024 221100                    LDX1    PNTR$,,AUTO
         1 001003   000007 741100                    STX1    7,,PR0

PL6.E3A0      #004=TDP$TDIO File=TDP$PMME.:E05TSI                                WED 07/30/97 06:06 Page:242
     1281     4418    3              DO CASE (ADDR(TDIOV.PCW)->PCW_B.MASK);

   4418  1 001004   000000 471400 xsym               LDP1    B$PS0$
         1 001005   100001 236100                    LDQ     1,,PR1
         1 001006   000014 772000                    QRL     12
         1 001007   000007 376007                    ANQ     7,DL
         1 001010   000004 136007                    SBLQ    4,DL
         1 001011   000004 116007                    CMPQ    4,DL
         1 001012   001014 602006 1                  TNC     s:4418+8,QL
         1 001013   001061 710000 1                  TRA     s:4436
         1 001014   001020 710000 1                  TRA     s:4420
         1 001015   001034 710000 1                  TRA     s:4427
         1 001016   001034 710000 1                  TRA     s:4427
         1 001017   001026 710000 1                  TRA     s:4423

     1282     4419    3               CASE(4);

     1283     4420    3                 N$REQ.IMX_TDIO_MASK='1'B;

   4420  1 001020   200026 473500                    LDP3    REQ$,,AUTO
         1 001021   020000 236007                    LDQ     8192,DL
         1 001022   300031 256100                    ORSQ    25,,PR3

     1284     4421    3                 NI$IMXMBX.IOSTATUS(0)=%IMX_CCW_MASK_CHAN;

   4421  1 001023   000003 236000 0                  LDQ     3
         1 001024   000010 756100                    STQ     8,,PR0
         1 001025   001061 710000 1                  TRA     s:4436

     1285     4422    3               CASE(7);

     1286     4423    3                 N$REQ.IMX_TDIO_MASK='1'B;

   4423  1 001026   200026 473500                    LDP3    REQ$,,AUTO
         1 001027   020000 236007                    LDQ     8192,DL
         1 001030   300031 256100                    ORSQ    25,,PR3

PL6.E3A0      #004=TDP$TDIO File=TDP$PMME.:E05TSI                                WED 07/30/97 06:06 Page:243
     1287     4424    3                 NI$IMXMBX.IOSTATUS(0)=%IMX_CCW_RSO;

   4424  1 001031   000004 236000 0                  LDQ     4
         1 001032   000010 756100                    STQ     8,,PR0
         1 001033   001061 710000 1                  TRA     s:4436

     1288     4425    3               CASE(ELSE);

     1289     4426    3               END;

     1290     4427    2              END;

   4427  1 001034   001061 710000 1                  TRA     s:4436

     1291     4428    2           ELSE DO;

     1292     4429    2              NI$REQ.PCW=TDIOV.PCW;

   4429  1 001035   000000 470400 xsym               LDP0    B$PS0$
         1 001036   000001 235100                    LDA     1,,PR0
         1 001037   000000 236003                    LDQ     0,DU
         1 001040   200017 471500                    LDP1    IOS$,,AUTO
         1 001041   100012 757100                    STAQ    10,,PR1

     1293     4430    2              NI$REQ.PCW.FLAGS='600'O;

   4430  1 001042   200017 471500                    LDP1    IOS$,,AUTO
         1 001043   000600 236007                    LDQ     384,DL
         1 001044   100013 552104                    STBQ    11,'04'O,PR1

     1294     4431    2              IF HW_IOP THEN

   4431  1 001045   000000 234000 xsym               SZN     HW_IOP
         1 001046   001055 605000 1                  TPL     s:4434

     1295     4432    2                 NI$REQ.IOP_PTAW=BINBIT(BUFPTP,27)|%IOP_PTA1_INIT; /* PHYSADDR   */

PL6.E3A0      #004=TDP$TDIO File=TDP$PMME.:E05TSI                                WED 07/30/97 06:06 Page:244
   4432  1 001047   200004 236100                    LDQ     BUFPTP,,AUTO
         1 001050   000011 736000                    QLS     9
         1 001051   000005 276000 0                  ORQ     5
         1 001052   200017 471500                    LDP1    IOS$,,AUTO
         1 001053   100001 756100                    STQ     1,,PR1
         1 001054   001061 710000 1                  TRA     s:4436

     1296     4433    2              ELSE
     1297     4434    2                 NI$REQ.PCW.PTP=BUFPTP;

   4434  1 001055   200017 471500                    LDP1    IOS$,,AUTO
         1 001056   200004 236100                    LDQ     BUFPTP,,AUTO
         1 001057   000011 736000                    QLS     9
         1 001060   100013 552130                    STBQ    11,'30'O,PR1

     1298     4435    2              END;

     1299     4436    1           N$REQ.USER#=B$JIT.USER;

   4436  1 001061   000000 470400 xsym               LDP0    B$JIT$
         1 001062   200026 471500                    LDP1    REQ$,,AUTO
         1 001063   000000 236100                    LDQ     0,,PR0
         1 001064   000022 772000                    QRL     18
         1 001065   100027 552104                    STBQ    23,'04'O,PR1

     1300     4437    1           N$REQ.OPFLG.WAIT=TDIOV.WAIT;

   4437  1 001066   000000 473400 xsym               LDP3    B$PS0$
         1 001067   300000 236100                    LDQ     0,,PR3
         1 001070   000015 772000                    QRL     13
         1 001071   100004 676100                    ERQ     4,,PR1
         1 001072   000020 376007                    ANQ     16,DL
         1 001073   100004 656100                    ERSQ    4,,PR1

     1301     4438    1           N$REQ.NWIO=0;

   4438  1 001074   200026 471500                    LDP1    REQ$,,AUTO
PL6.E3A0      #004=TDP$TDIO File=TDP$PMME.:E05TSI                                WED 07/30/97 06:06 Page:245
         1 001075   000027 236000 2                  LDQ     23
         1 001076   100031 356100                    ANSQ    25,,PR1

     1302     4439    1           N$REQ.DCB$=DCB$;

   4439  1 001077   200006 236100                    LDQ     DCB$,,AUTO
         1 001100   100022 756100                    STQ     18,,PR1

     1303     4440    1           N$REQ.DQH$=DCB.DQH$;

   4440  1 001101   200006 471500                    LDP1    DCB$,,AUTO
         1 001102   100046 236100                    LDQ     38,,PR1
         1 001103   200026 474500                    LDP4    REQ$,,AUTO
         1 001104   400020 756100                    STQ     16,,PR4

     1304     4441    1           N$REQ.EVNTINFO=TDIOV.EVENT;

   4441  1 001105   300002 235100                    LDA     2,,PR3
         1 001106   200026 474500                    LDP4    REQ$,,AUTO
         1 001107   400026 755100                    STA     22,,PR4

     1305     4442    1           N$REQ.TIMOUT=TDIOV.TIMEOUT;

   4442  1 001110   200026 474500                    LDP4    REQ$,,AUTO
         1 001111   300003 236100                    LDQ     3,,PR3
         1 001112   770000 376003                    ANQ     -4096,DU
         1 001113   000014 772000                    QRL     12
         1 001114   400003 552120                    STBQ    3,'20'O,PR4

     1306     4443    1           N$REQ.IOFLG.MREC='1'B;

   4443  1 001115   200026 474500                    LDP4    REQ$,,AUTO
         1 001116   010000 236007                    LDQ     4096,DL
         1 001117   400004 256100                    ORSQ    4,,PR4

     1307     4444    1           N$REQ.BUF$=B$PS2$;              /* FOR DEBUG PURPOSES ONLY            */

PL6.E3A0      #004=TDP$TDIO File=TDP$PMME.:E05TSI                                WED 07/30/97 06:06 Page:246
   4444  1 001120   000000 236000 xsym               LDQ     B$PS2$
         1 001121   200026 474500                    LDP4    REQ$,,AUTO
         1 001122   400005 756100                    STQ     5,,PR4

     1308     4445        /* CALL THE APPROPRIATE DEVICE SCHEDULER TO GET THE I/O STARTED */
     1309     4446    1           EXTRN=N$REQ.DCT$->NI$DCT.DVT$->NI$DVT.SCHED;

   4446  1 001123   200026 474500                    LDP4    REQ$,,AUTO
         1 001124   400002 475500                    LDP5    2,,PR4
         1 001125   500024 476500                    LDP6    20,,PR5
         1 001126   600000 236100                    LDQ     0,,PR6
         1 001127   200015 756100                    STQ     EXTRN,,AUTO

     1310     4447    1           N$REQ.IOQFLG.IOQUED = '1'B ;

   4447  1 001130   200000 236003                    LDQ     65536,DU
         1 001131   400033 256100                    ORSQ    27,,PR4

     1311     4448    1           CALL EXTRN(N$REQ);

   4448  1 001132   200026 630500                    EPPR0   REQ$,,AUTO
         1 001133   200015 220100                    LDX0    EXTRN,,AUTO
         1 001134   000017 631400 xsym               EPPR1   B_VECTNIL+15
         1 001135   000000 701010                    TSX1    0,X0
         1 001136   000000 011000                    NOP     0

     1312     4449    1           IF TDIOV.WAIT THEN CALL FMB$IOSPIN;

   4449  1 001137   000000 470400 xsym               LDP0    B$PS0$
         1 001140   000000 236100                    LDQ     0,,PR0
         1 001141   400000 316007                    CANQ    -131072,DL
         1 001142   001146 600000 1                  TZE     s:4450

   4449  1 001143   000002 631400 xsym               EPPR1   B_VECTNIL+2
         1 001144   000000 701000 xent               TSX1    FMB$IOSPIN
         1 001145   000000 011000                    NOP     0

PL6.E3A0      #004=TDP$TDIO File=TDP$PMME.:E05TSI                                WED 07/30/97 06:06 Page:247
     1313     4450    1           RETURN;

   4450  1 001146   000000 702200 xent               TSX2  ! X66_ARET

     1314     4451        /**/
     1315     4452    1   BADRET: PROC(ERROR,SEV);

   4452  1 001147   200032 741300       BADRET       STX1  ! WRITE_FLG+1,,AUTO

     1316     4453    2   DCL ERROR UBIN WORD;
     1317     4454    2   DCL SEV UBIN WORD;
     1318     4455    2           B$JIT.ERR='240420000000'O;

   4455  1 001150   000006 236000 0                  LDQ     6
         1 001151   000000 470400 xsym               LDP0    B$JIT$
         1 001152   000012 756100                    STQ     10,,PR0

     1319     4456    2           B$JIT.ERR.CODE=ERROR;

   4456  1 001153   200033 471500                    LDP1    @ERROR,,AUTO
         1 001154   100000 236100                    LDQ     0,,PR1
         1 001155   000003 736000                    QLS     3
         1 001156   000012 676100                    ERQ     10,,PR0
         1 001157   377770 376007                    ANQ     131064,DL
         1 001160   000012 656100                    ERSQ    10,,PR0

     1320     4457    2           B$JIT.ERR.SEV=SEV;

   4457  1 001161   200034 473500                    LDP3    @SEV,,AUTO
         1 001162   300000 236100                    LDQ     0,,PR3
         1 001163   000012 676100                    ERQ     10,,PR0
         1 001164   000007 376007                    ANQ     7,DL
         1 001165   000012 656100                    ERSQ    10,,PR0

     1321     4458    2           CALL UDB$PMMEXIT;

   4458  1 001166   000002 631400 xsym               EPPR1   B_VECTNIL+2
PL6.E3A0      #004=TDP$TDIO File=TDP$PMME.:E05TSI                                WED 07/30/97 06:06 Page:248
         1 001167   000000 701000 xent               TSX1    UDB$PMMEXIT
         1 001170   000000 011000                    NOP     0

     1322     4459    2   END BADRET;

   4459  1 001171   200032 221300                    LDX1  ! WRITE_FLG+1,,AUTO
         1 001172   000001 702211                    TSX2  ! 1,X1

(unnamed)
 Sect OctLoc
   0     000   000000 700000   000000 020000   000000 020005   604000 000000    ................
   0     004   630000 000000   000000 000100   240420 000000                    .......@....

(unnamed)
 Sect OctLoc
   2     000   000000 001615   000006 006000   000000 006000   000000 001616    ................
   2     004   000003 006000   000007 430000   000001 200000   000000 001632    ................
   2     010   000007 006000   000002 006000   000000 006000   777747 777777    ................
   2     014   000000 001621   000014 006000   777777 777477   000005 006000    ................
   2     020   000000 006000   777777 777757   000000 006000   777777 600777    ................
   2     024   000000 006000   777777 776000   000001 777776   777777 377777    ................
     1323     4460    1   END TDP$TDIO;
     1324     4461        %EOD;

PL6.E3A0      #004=TDP$TDIO File=TDP$PMME.:E05TSI                                WED 07/30/97 06:06 Page:249
--  Include file information  --

   TD_ERRORS_C.:E05TOU  is referenced.
   TD$CP6V_C.:E05TOU  is referenced.
   S_WSPTD_R.:E05TOU  cannot be made into a system file and is referenced.
   SS_SCHED_C.:E05TOU  is referenced.
   NI_MACROS_C.:E05TOU  cannot be made into a system file and is referenced.
   NI_DATA_C.:E05TOU  is referenced.
   NI$TABLES.:E05TOU  is referenced.
   N$REQ.:E05TOU  is referenced.
   NI_DATA_R.:E05TOU  cannot be made into a system file and is referenced.
   KI_MACROS_C.:E05TOU  is referenced.
   KI_DATA_R.:E05TOU  cannot be made into a system file and is referenced.
   M_INFO_C.:E05TOU  is referenced.
   IT_SUBS_C.:E05TOU  is referenced.
   HF_LOCK_C.:E05TOU  cannot be made into a system file and is referenced.
   HF_DATA_R.:E05TOU  cannot be made into a system file and is referenced.
   F$DCB.:E05TOU  cannot be made into a system file and is referenced.
   CP_6_SUBS.:E05TOU  is referenced.
   B_STRINGS_C.:E05TOU  is referenced.
   B$USER.:E05TOU  cannot be made into a system file and is referenced.
   B$JIT_C.:E05TOU  is referenced.
   B$JIT.:E05TOU  cannot be made into a system file and is referenced.
      No diagnostics issued in procedure TDP$TDIO.
PL6.E3A0      #004=TDP$TDIO File=TDP$PMME.:E05TSI                                WED 07/30/97 06:06 Page:250

 **** Variables and constants ****

  ****  Auto variables  ****

  ****  Scalars and arrays  ****
OctLoc.c.b A Datatyp(siz) R M Lvl/name                 OctLoc.c.b A Datatyp(siz) R M Lvl/name

    33-0-0/w PTR         r     1 @ERROR                    34-0-0/w PTR         r     1 @SEV
     3-0-0/w UBIN        r     1 BUFADDR                    4-0-0/w SBIN        r     1 BUFPTP
     3-0-0/w STRC        r     1 BUFVIRT                    5-0-0/w BIT         r     1 CONT_FLG
     6-0-0/w PTR         r     1 DCB$                       7-0-0/w STRC        r     1 DCPCW
    10-0-0/w PTR         r     1 DCT$                      11-0-0/w PTR         r     1 DCW$
    12-0-0/w UBIN        r     1 DCWADDR                   13-0-0/w SBIN        r     1 DCWPTP
    12-0-0/w STRC        r     1 DCWVIRT                   14-0-0/w PTR         r     1 DQH$
    *0-0-0/w UBIN        r     1 ERROR                     15-0-0/w EPTR        r     1 EXTRN
    20-0-0/w PTR         r     1 FEI$                      16-0-0/w SBIN        r     1 I
    17-0-0/w PTR         r     1 IOS$                      21-0-0/w PTR         r     1 MBX$
    22-0-0/w PTR         r     1 MPC$                      23-0-0/w STRC(18)    r     1 PATH
    24-0-0/w STRC        r     1 PNTR                      24-0-0/w PTR         r     1 PNTR$
    25-0-0/w BIT         r     1 RELEASE                   26-0-0/w PTR         r     1 REQ$
    *0-0-0/w UBIN        r     1 SEV                       27-0-0/w PTR         r     1 SQH$
    30-0-0/w BIT         r     1 SUSPEND                   31-0-0/w BIT         r     1 WRITE_FLG

  ****  SYMREF variables  ****

  ****  Scalars and arrays  ****
OctLoc.c.b A Datatyp(siz) R M Lvl/name                 OctLoc.c.b A Datatyp(siz) R M Lvl/name

     0-0-0/w PTR         r     1 B$JIT$                     0-0-0/w PTR         r     1 B$PS0$
     0-0-0/w PTR         r     1 B$PS1$                     0-0-0/w PTR         r     1 B$PS2$
     0-0-0/w BIT (72)    r     1 F_DCBLOCK                  0-0-0/w BIT         r     1 HW_IMX
     0-0-0/w BIT         r     1 HW_IOP                     0-0-0/w SBIN        r     1 HW_IOPTP_UNITS
     0-0-0/w PTR         r     1 KI_FEI$$                   0-0-0/w PTR         r     1 N$DCT$$
     0-0-0/w PTR         r     1 N$FQ$                      0-0-0/w PTR         r     1 NI$CHT$
     0-0-0/w PTR         r     1 NI$FQ$                     0-0-0/w PTR         r     1 NI$IBUF$
     0-0-0/d STRC(864)   r     1 NI$IMXMBX_INIT             0-0-0/d STRC(504)   r     1 NI$REQ_INIT
     0-0-0/w PTR         r     1 NI$RP$                     0-0-0/w UBIN        r     1 NI_IMXLO_PBASE
PL6.E3A0      #004=TDP$TDIO File=TDP$PMME.:E05TSI                                WED 07/30/97 06:06 Page:251
     0-0-0/w BIT (72)    r     1 NI_MFGATE                  0-0-0/w PTR         r     1 S$CU$
     0-0-0/w SBIN        r     1 SL_MF(0:3)

  ****  BASED and DCB variables  ****

  ****  Scalars and arrays  ****
OctLoc.c.b A Datatyp(siz) R M Lvl/name                 OctLoc.c.b A Datatyp(siz) R M Lvl/name

     0-0-0/d STRC(8856)  r     1 B$JIT                      0-0-0/d STRC(576)   r     1 B$U
     0-0-0/w STRC        r     1 DCW                        0-0-0/d ASTR(3528)  r     1 F$DCB
     0-0-0/d STRC(144)   r     1 FPT$TDIO_V                 0-0-0/w STRC        r     1 IDCW
     0-0-0/w STRC(612)   r     1 KI$FEI
     0-0-0/w PTR         r     1 KI$FEI$(0:0)
     0-0-0/d STRC(1080)  r     1 N$REQ                      0-0-0/w STRC(72)    r     1 NI$CHT(0:0)
     0-0-0/w STRC(1332)  r     1 NI$DCT                     0-0-0/w STRC(648)   r     1 NI$DQH
     0-0-0/w STRC(2844)  r     1 NI$DVT                     0-0-0/d STRC(864)   r     1 NI$IMXMBX
     0-0-0/d STRC(504)   r     1 NI$REQ                     0-0-0/b STRC        r     1 PCW_B


   Procedure TDP$TDIO requires 635 words for executable code.
   Procedure TDP$TDIO requires 36 words of local(AUTO) storage.
PL6.E3A0      #004=TDP$TDIO File=TDP$PMME.:E05TSI                                WED 07/30/97 06:06 Page:252
          *** CROSS REFERENCE LISTING ***
**     DENOTES     IDENTIFIER DEFINITION
<<                 IDENTIFIER'S VALUE SET
>>                 IDENTIFIER'S VALUE USED
<>                 IDENTIFIER SET AND/OR USED
--                 IDENTIFIER REFERENCED
PL6.E3A0      #004=TDP$TDIO File=TDP$PMME.:E05TSI                                WED 07/30/97 06:06 Page:253
          MINI XREF LISTING

ALTBAD
      4282**LABEL    4280--CALLALT
B$DO.ECCINFO
       765**DCL       766--REDEF
B$JIT.CPFLAGS1.SLEAZE
       432**DCL       432--REDEF
B$JIT.DCB$
       506**DCL      4264>>ASSIGN
B$JIT.ERR
       338**DCL      4455<<ASSIGN
B$JIT.ERR.CODE
       339**DCL      4456<<ASSIGN
B$JIT.ERR.MID
       339**DCL       339--REDEF
B$JIT.ERR.SEV
       339**DCL      4457<<ASSIGN
B$JIT.JRESPEAK
       500**DCL       501--REDEF
B$JIT.MODE
       333**DCL      4337>>IF
B$JIT.ORIGINATOR_PORT.FROM_CR
       609**DCL       609--REDEF     610--REDEF
B$JIT.PNR
       513**DCL       513--REDEF
B$JIT.TSLINE
       607**DCL       608--REDEF
B$JIT.USER
       338**DCL      4436>>ASSIGN
B$JIT$
      3848**DCL       333--IMP-PTR  4264>>ASSIGN   4337>>IF       4436>>ASSIGN   4455>>ASSIGN   4456>>ASSIGN
      4457>>ASSIGN
B$PS0$
PL6.E3A0      #004=TDP$TDIO File=TDP$PMME.:E05TSI                                WED 07/30/97 06:06 Page:254
      3849**DCL      4268>>ASSIGN   4274>>IF       4277>>ASSIGN   4278>>ASSIGN   4285>>ASSIGN   4418>>DOCASE
      4429>>ASSIGN   4437>>ASSIGN   4441>>ASSIGN   4442>>ASSIGN   4449>>IF
B$PS1$
      3850**DCL      4296<>CALL     4297>>ASSIGN   4384<>CALL     4388<>CALL
B$PS2$
      3851**DCL      4329>>ASSIGN   4378<>CALL     4407<>CALL     4444>>ASSIGN
B$U.MF
       720**DCL      4337>>IF       4342<<ASSIGN   4342>>ASSIGN
B$U.MISC
       744**DCL       745--REDEF
B$USER.MISC
       820**DCL       821--REDEF
BADRET
      4452**PROC     4265--CALL     4266--CALL     4276--CALL     4282--CALL     4284--CALL     4312--CALL
BUFADDR
      3861**DCL      3862--REDEF    4378<>CALL     4399<<ASSIGN   4399>>ASSIGN   4406>>ASSIGN
BUFPTP
      3865**DCL      4378<>CALL     4381>>ASSIGN   4394>>IF       4395>>ASSIGN   4396>>ASSIGN   4398>>IF
      4399>>ASSIGN   4400<<ASSIGN   4409>>ASSIGN   4413>>ASSIGN   4432>>ASSIGN   4434>>ASSIGN
BUFVIRT.BYT
      3864**DCL      4408>>ASSIGN
CONT_FLG
      3866**DCL      4292<<ASSIGN   4298>>DOWHILE  4304<<ASSIGN   4332>>IF       4379>>IF
DCB$
      3867**DCL      4264<<ASSIGN   4265>>IF       4266>>IF       4267>>IF       4269>>ASSIGN   4270>>CALL
      4271>>ASSIGN   4271>>ASSIGN   4275>>IF       4279>>ASSIGN   4281>>IF       4284>>IF       4285>>ASSIGN
      4288>>ASSIGN   4288>>ASSIGN   4289>>ASSIGN   4289>>ASSIGN   4291>>ASSIGN   4291>>ASSIGN   4291>>ASSIGN
      4301>>ASSIGN   4305>>IF       4346>>ASSIGN   4350>>ASSIGN   4350>>ASSIGN   4372>>ASSIGN   4373>>ASSIGN
      4439>>ASSIGN   4440>>ASSIGN
DCPCW
      3868**DCL      4268<<ASSIGN
DCPCW.MASK
      3871**DCL      4270<>CALL
DCT$
      3873**DCL      4280<>CALL     4284>>IF
DCW.FWA
PL6.E3A0      #004=TDP$TDIO File=TDP$PMME.:E05TSI                                WED 07/30/97 06:06 Page:255
      3913**DCL      4329>>ASSIGN
DCW.T.DCWLIST.BASE
      3921**DCL      4328<<ASSIGN
DCW.TALLY
      3916**DCL      3917--REDEF
DCW.TYPE
      3915**DCL      4325>>DOCASE
DCW$
      3874**DCL      3909--IMP-PTR  3943--IMP-PTR  4297<<ASSIGN   4299>>IF       4300>>IF       4301>>ASSIGN
      4303>>ASSIGN   4304>>ASSIGN   4306>>DOCASE   4314>>IF       4315>>IF       4319>>IF       4325>>DOCASE
      4328>>ASSIGN   4329<<ASSIGN   4329>>ASSIGN   4333<<ASSIGN   4333>>ASSIGN
DCWADDR
      3875**DCL      3876--REDEF    4384<>CALL     4390>>ASSIGN   4395<<ASSIGN   4395>>ASSIGN   4403>>ASSIGN
DCWPTP
      3879**DCL      4381<<ASSIGN   4384<>CALL     4389>>ASSIGN   4394>>IF       4395>>ASSIGN   4396<<ASSIGN
      4398>>IF       4399>>ASSIGN   4400>>ASSIGN
DCWVIRT.BYT
      3878**DCL      4391>>ASSIGN
DQH$
      3880**DCL      4280<>CALL
ERROR IN PROCEDURE BADRET
      4453**DCL      4452--PROC     4456>>ASSIGN
EXTRN
      3881**DCL      4446<<ASSIGN   4448>>CALL
F$DCB.ACTPOS
      1525**DCL      1525--REDEF
F$DCB.ARS
      1500**DCL      1500--REDEF
F$DCB.ASN
      1515**DCL      4266>>IF
F$DCB.ATTR
      1518**DCL      1519--REDEF
F$DCB.BORROW
      1533**DCL      1533--REDEF    1533--REDEF    1533--REDEF
F$DCB.CONNCT
      1519**DCL      4271<<ASSIGN   4271>>ASSIGN
PL6.E3A0      #004=TDP$TDIO File=TDP$PMME.:E05TSI                                WED 07/30/97 06:06 Page:256
F$DCB.DCBNAME.L
      1547**DCL      1547--IMP-SIZ
F$DCB.DCT$
      1522**DCL      4284>>IF       4372>>ASSIGN   4373>>ASSIGN
F$DCB.DEVADR.CHAN
      1523**DCL      4289>>ASSIGN
F$DCB.DEVADR.DVN
      1522**DCL      4269>>ASSIGN   4279>>ASSIGN   4301>>ASSIGN
F$DCB.DEVADR.IOM
      1523**DCL      4288>>ASSIGN
F$DCB.DQH$
      1521**DCL      4270>>CALL     4291<<ASSIGN   4440>>ASSIGN
F$DCB.EOMCHAR
      1504**DCL      1504--REDEF
F$DCB.FCD
      1513**DCL      4265>>IF
F$DCB.FCN.CNT
      1537**DCL      4350<<ASSIGN   4350>>ASSIGN
F$DCB.FLDID
      1528**DCL      1528--REDEF
F$DCB.FORM$
      1522**DCL      1522--REDEF
F$DCB.FSECT
      1538**DCL      1538--REDEF
F$DCB.FSN
      1515**DCL      1515--REDEF    1515--REDEF    1516--REDEF
F$DCB.FUN
      1514**DCL      4267>>IF       4275>>IF
F$DCB.HEADER$
      1521**DCL      1521--REDEF
F$DCB.IXTNSIZE
      1519**DCL      1519--REDEF
F$DCB.LASTSTA$
      1509**DCL      1509--REDEF
F$DCB.LVL
      1534**DCL      1534--REDEF
PL6.E3A0      #004=TDP$TDIO File=TDP$PMME.:E05TSI                                WED 07/30/97 06:06 Page:257
F$DCB.MPC$
      1522**DCL      4281>>IF
F$DCB.NAME.C
      1509**DCL      1509--REDEF
F$DCB.NOEOF
      1530**DCL      1530--REDEF
F$DCB.NRECS
      1520**DCL      1520--REDEF
F$DCB.NRECX
      1539**DCL      1539--REDEF
F$DCB.OHDR
      1531**DCL      1531--REDEF
F$DCB.ORG
      1514**DCL      1514--REDEF
F$DCB.PATH
      1527**DCL      4285<<ASSIGN
F$DCB.PATH.CHAN
      1527**DCL      4289<<ASSIGN   4291>>ASSIGN
F$DCB.PATH.IOM
      1527**DCL      4288<<ASSIGN   4291>>ASSIGN
F$DCB.PRECNO
      1537**DCL      1537--REDEF
F$DCB.RCSZ
      1542**DCL      1542--REDEF
F$DCB.RES
      1510**DCL      1510--REDEF
F$DCB.SETX
      1522**DCL      1522--REDEF
F$DCB.TAB$
      1521**DCL      1522--REDEF
F$DCB.TDA
      1536**DCL      1536--REDEF
F$DCB.TDFLG.SDSK
      1519**DCL      4305>>IF
F$DCB.WAIT
      1532**DCL      4346<<ASSIGN
PL6.E3A0      #004=TDP$TDIO File=TDP$PMME.:E05TSI                                WED 07/30/97 06:06 Page:258
F$DCB.WSN
      1511**DCL      1511--REDEF
FEI$
      3884**DCL      3983--IMP-PTR  4269<<ASSIGN   4270>>CALL
FMB$IOSPIN
      3834**DCL-ENT  4449--CALL
FPT$TDIO_V.ALTPATH
      3935**DCL      4274>>IF       4285>>ASSIGN
FPT$TDIO_V.ALTPATH.CHAN
      3935**DCL      4278>>ASSIGN
FPT$TDIO_V.ALTPATH.IOM
      3935**DCL      4277>>ASSIGN
FPT$TDIO_V.EVENT
      3936**DCL      4441>>ASSIGN
FPT$TDIO_V.PCW
      3935**DCL      4268>>ASSIGN   4418--DOCASE   4429>>ASSIGN
FPT$TDIO_V.TIMEOUT
      3936**DCL      4442>>ASSIGN
FPT$TDIO_V.WAIT
      3935**DCL      4437>>ASSIGN   4449>>IF
F_DCBLOCK
      3856**DCL      4348<>CALL     4352<>CALL
HFC$LOCK
      1604**DCL-ENT  4340--CALL     4348--CALL
HFC$UNLOCK
      1604**DCL-ENT  4344--CALL     4352--CALL
HFF$DSIZ
      3835**DCL-ENT  4388--CALL     4407--CALL
HFF$NILERASE
      3836**DCL-ENT  4296--CALL
HW_IMX
      1590**DCL      4302>>IF       4327>>IF       4360>>IF       4367>>IF       4385>>IF       4410>>IF
HW_IOP
      1587**DCL      4431>>IF
HW_IOPTP_UNITS
      1585**DCL      4395>>ASSIGN   4399>>ASSIGN
PL6.E3A0      #004=TDP$TDIO File=TDP$PMME.:E05TSI                                WED 07/30/97 06:06 Page:259
I
      3882**DCL      4388<>CALL     4391>>ASSIGN   4407<>CALL     4408>>ASSIGN
IDCW.CC
      3958**DCL      3959--REDEF
IDCW.CCB
      3959**DCL      4314>>IF
IDCW.CONT
      3956**DCL      4304>>ASSIGN
IDCW.DATA.BASE
      3952**DCL      4303<<ASSIGN
IDCW.DC
      3947**DCL      4306>>DOCASE   4315>>IF       4319>>IF
IDCW.DVN
      3948**DCL      4300>>IF       4301<<ASSIGN
IDCW.EXTA
      3949**DCL      3950--REDEF
IDCW.SVN
      3954**DCL      4299>>IF
IOS$
      3883**DCL      4223--IMP-PTR  4358<<ASSIGN   4359>>ASSIGN   4361>>ASSIGN   4366<>CALL     4368>>ASSIGN
      4369>>ASSIGN   4380>>ASSIGN   4386>>ASSIGN   4387>>ASSIGN   4402>>ASSIGN   4403>>ASSIGN   4416>>ASSIGN
      4429>>ASSIGN   4430>>ASSIGN   4432>>ASSIGN   4434>>ASSIGN
KI$FEI.BD$
      4018**DCL      4019--REDEF
KI$FEI.BDAD.WADDR
      4020**DCL      4021--REDEF
KI$FEI.FEWSQ
      4011**DCL      4270<>CALL
KI$FEI.RCVPB
      4034**DCL      4035--REDEF
KI$FEI$
      2024**DCL      4269>>ASSIGN
KI_FEI$$
      2023**DCL      2024--IMP-PTR  4269>>ASSIGN
MBX$
      3885**DCL      4202--IMP-PTR  4361<<ASSIGN   4362>>ASSIGN   4368<<ASSIGN   4389>>ASSIGN   4390>>ASSIGN
PL6.E3A0      #004=TDP$TDIO File=TDP$PMME.:E05TSI                                WED 07/30/97 06:06 Page:260
      4391>>ASSIGN   4411>>ASSIGN   4412>>ASSIGN   4413>>ASSIGN   4414>>ASSIGN   4415>>ASSIGN   4417>>ASSIGN
      4421>>ASSIGN   4424>>ASSIGN
MPC$
      3886**DCL      4280<>CALL     4281>>IF
N$DCT$$
      2944**DCL      3078--IMP-PTR
N$FQ$
      2944**DCL      3079--IMP-PTR
N$REQ
      4063**DCL      4448<>CALL
N$REQ.BPMIR
      4108**DCL      4377<<ASSIGN
N$REQ.BUF$
      4072**DCL      4444<<ASSIGN
N$REQ.BUFADDR
      4072**DCL      4073--REDEF    4073--REDEF
N$REQ.COMP
      4097**DCL      4374<<ASSIGN
N$REQ.DCB$
      4094**DCL      4439<<ASSIGN
N$REQ.DCT$
      4064**DCL      4372<<ASSIGN   4446>>ASSIGN
N$REQ.DLA.DCTX
      4063**DCL      4373<<ASSIGN
N$REQ.DLA.DRELADDR
      4064**DCL      4064--REDEF
N$REQ.DQH$
      4085**DCL      4440<<ASSIGN
N$REQ.DVE.EOMCHAR
      4101**DCL      4102--REDEF
N$REQ.EAINFO
      4095**DCL      4095--REDEF
N$REQ.EAINFOX
      4095**DCL      4096--REDEF
N$REQ.EVNTINFO
      4096**DCL      4096--REDEF    4441<<ASSIGN
PL6.E3A0      #004=TDP$TDIO File=TDP$PMME.:E05TSI                                WED 07/30/97 06:06 Page:261
N$REQ.IMX_TDIO_MASK
      4103**DCL      4420<<ASSIGN   4423<<ASSIGN
N$REQ.IOFLG.IOS
      4067**DCL      4357>>IF       4370<<ASSIGN
N$REQ.IOFLG.MREC
      4068**DCL      4443<<ASSIGN
N$REQ.IOFLG.REL
      4068**DCL      4376<<ASSIGN
N$REQ.IOFLG.SUSP
      4068**DCL      4375<<ASSIGN
N$REQ.IOQFLG.IOQUED
      4106**DCL      4447<<ASSIGN
N$REQ.IOS$
      4076**DCL      4358>>ASSIGN   4369<<ASSIGN
N$REQ.LPWX.BASE
      4075**DCL      4406<<ASSIGN   4414>>ASSIGN
N$REQ.LPWX.BOUND
      4075**DCL      4408<<ASSIGN   4415>>ASSIGN
N$REQ.NWIO
      4102**DCL      4438<<ASSIGN
N$REQ.OPFLG.WAIT
      4070**DCL      4437<<ASSIGN
N$REQ.PTP
      4074**DCL      4409<<ASSIGN
N$REQ.STATUS
      4077**DCL      4083--REDEF
N$REQ.TIMOUT
      4065**DCL      4442<<ASSIGN
N$REQ.USER#
      4097**DCL      4436<<ASSIGN
N$REQ_INIT.BUFADDR
      2963**DCL      2964--REDEF    2964--REDEF
N$REQ_INIT.DLA.DRELADDR
      2955**DCL      2955--REDEF
N$REQ_INIT.DVE.EOMCHAR
      2992**DCL      2993--REDEF
PL6.E3A0      #004=TDP$TDIO File=TDP$PMME.:E05TSI                                WED 07/30/97 06:06 Page:262
N$REQ_INIT.EAINFO
      2986**DCL      2986--REDEF
N$REQ_INIT.EAINFOX
      2986**DCL      2987--REDEF
N$REQ_INIT.EVNTINFO
      2987**DCL      2987--REDEF
N$REQ_INIT.STATUS
      2968**DCL      2974--REDEF
NI$CHT.DQH$
      4113**DCL      4291>>ASSIGN
NI$CHT$
      3003**DCL      4113--IMP-PTR  4291>>ASSIGN
NI$DCT.DCTX
      4125**DCL      4373>>ASSIGN
NI$DCT.DP
      4144**DCL      4151--REDEF    4154--REDEF    4155--REDEF    4157--REDEF    4157--REDEF    4158--REDEF
      4159--REDEF    4159--REDEF
NI$DCT.DVT$
      4140**DCL      4446>>ASSIGN
NI$DCT.MPC.IOCHANX
      4152**DCL      4152--REDEF
NI$DQH.IOCHAN
      4175**DCL      4270<>CALL
NI$DQH.IOCHANX
      4174**DCL      4175--REDEF
NI$DQH.MBX$
      4183**DCL      4184--REDEF
NI$DVT.MPC
      4189**DCL      4190--REDEF
NI$DVT.SCHED
      4187**DCL      4446>>ASSIGN
NI$FQ$
      3004**DCL      3080--IMP-PTR
NI$IBUF$
      3004**DCL      3080--IMP-PTR
NI$IMXMBX
PL6.E3A0      #004=TDP$TDIO File=TDP$PMME.:E05TSI                                WED 07/30/97 06:06 Page:263
      4202**DCL      4362<<ASSIGN
NI$IMXMBX.IOSTATUS
      4212**DCL      4421<<ASSIGN   4424<<ASSIGN
NI$IMXMBX.LPW.DCW_ADDR
      4208**DCL      4417<<ASSIGN
NI$IMXMBX.PAGED_BASE
      4202**DCL      4203--REDEF    4203--REDEF    4411<<ASSIGN
NI$IMXMBX.PAGED_BASE.OFFSET
      4202**DCL      4390<<ASSIGN   4414<<ASSIGN
NI$IMXMBX.PAGED_BASE.PTWADDR
      4202**DCL      4389<<ASSIGN   4413<<ASSIGN
NI$IMXMBX.SIZE
      4204**DCL      4204--REDEF    4391<<ASSIGN   4412<<ASSIGN   4415<<ASSIGN
NI$IMXMBX_INIT
      3014**DCL      4362>>ASSIGN
NI$IMXMBX_INIT.PAGED_BASE
      3014**DCL      3015--REDEF    3015--REDEF
NI$IMXMBX_INIT.SIZE
      3016**DCL      3016--REDEF
NI$REQ
      4223**DCL      4359<<ASSIGN
NI$REQ.DCW
      4225**DCL      4228--REDEF    4386<<ASSIGN   4402<<ASSIGN   4416--ASSIGN
NI$REQ.DCW.FWA
      4225**DCL      4403<<ASSIGN
NI$REQ.DCW.T.DCWLIST.BASE
      4227**DCL      4387<<ASSIGN
NI$REQ.DCW.TALLY
      4226**DCL      4226--REDEF
NI$REQ.IDCW
      4228**DCL      4380<<ASSIGN
NI$REQ.IDCW.EXTA
      4228**DCL      4228--REDEF
NI$REQ.IOP_PTAW
      4223**DCL      4432<<ASSIGN
NI$REQ.PCW
PL6.E3A0      #004=TDP$TDIO File=TDP$PMME.:E05TSI                                WED 07/30/97 06:06 Page:264
      4230**DCL      4234--REDEF    4429<<ASSIGN
NI$REQ.PCW.FLAGS
      4234**DCL      4430<<ASSIGN
NI$REQ.PCW.PTP
      4234**DCL      4434<<ASSIGN
NI$REQ.SEEK
      4235**DCL      4236--REDEF    4237--REDEF
NI$REQ_INIT
      3036**DCL      4359>>ASSIGN
NI$REQ_INIT.DCW
      3038**DCL      3041--REDEF
NI$REQ_INIT.DCW.TALLY
      3039**DCL      3039--REDEF
NI$REQ_INIT.IDCW.EXTA
      3041**DCL      3041--REDEF
NI$REQ_INIT.PCW
      3043**DCL      3047--REDEF
NI$REQ_INIT.SEEK
      3048**DCL      3049--REDEF    3050--REDEF
NI$RP$
      3052**DCL      3082--IMP-PTR
NI$SQH.DOOR
      4248**DCL      4248--REDEF
NIM$CVTPTR
      3837**DCL-ENT  4378--CALL     4384--CALL
NIQ$GET
      3838**DCL-ENT  4356--CALL
NIQ$GETS
      3839**DCL-ENT  4366--CALL
NIS$DCCON
      3840**DCL-ENT  4270--CALL
NI_IMXLO_PBASE
      3054**DCL      4411>>ASSIGN
NI_MBX_INIT.DCW.CONTROL.AE
      3074**DCL      3074--REDEF
NI_MBX_INIT.LPW.CONTROL.AE
PL6.E3A0      #004=TDP$TDIO File=TDP$PMME.:E05TSI                                WED 07/30/97 06:06 Page:265
      3070**DCL      3070--REDEF
NI_MFGATE
      3077**DCL      4340<>CALL     4344<>CALL
NO_DCW_LIST
      4330**LABEL    4296--CALLALT
PATH
      3887**DCL      4280<>CALL
PATH.CHAN
      3890**DCL      4278<<ASSIGN
PATH.DVN
      3888**DCL      4279<<ASSIGN
PATH.IOM
      3889**DCL      4277<<ASSIGN
PCW_B.MASK
      4255**DCL      4418>>DOCASE
PNTR.WA
      3893**DCL      4417>>ASSIGN
PNTR$
      3891**DCL      3892--REDEF    4416<<ASSIGN
RELEASE
      3895**DCL      4295<<ASSIGN   4317<<ASSIGN   4320<<ASSIGN   4376>>ASSIGN
REQ$
      3896**DCL      4063--IMP-PTR  4356<>CALL     4357>>IF       4358>>ASSIGN   4369>>ASSIGN   4370>>ASSIGN
      4372>>ASSIGN   4373>>ASSIGN   4374>>ASSIGN   4375>>ASSIGN   4376>>ASSIGN   4377>>ASSIGN   4406>>ASSIGN
      4408>>ASSIGN   4409>>ASSIGN   4414>>ASSIGN   4415>>ASSIGN   4420>>ASSIGN   4423>>ASSIGN   4436>>ASSIGN
      4437>>ASSIGN   4438>>ASSIGN   4439>>ASSIGN   4440>>ASSIGN   4441>>ASSIGN   4442>>ASSIGN   4443>>ASSIGN
      4444>>ASSIGN   4446>>ASSIGN   4447>>ASSIGN   4448>>CALL
S$CU$
      3853**DCL      4337>>IF       4342>>ASSIGN   4342>>ASSIGN
SEV IN PROCEDURE BADRET
      4454**DCL      4452--PROC     4457>>ASSIGN
SL_MF
      3857**DCL      4337>>IF
SQH$
      3897**DCL      4280<>CALL
SSR$REG
PL6.E3A0      #004=TDP$TDIO File=TDP$PMME.:E05TSI                                WED 07/30/97 06:06 Page:266
      3842**DCL-ENT  4338--CALL
SUSPEND
      3898**DCL      4294<<ASSIGN   4316<<ASSIGN   4375>>ASSIGN
TDU$FINDPATH
      3843**DCL-ENT  4280--CALL
UDB$PMMEXIT
      3844**DCL-ENT  4458--CALL
WRITE_FLG
      3899**DCL      4293<<ASSIGN   4308<<ASSIGN   4310<<ASSIGN   4312>>IF

PL6.E3A0      #005=TDP$ERRTEXT File=TDP$PMME.:E05TSI                             WED 07/30/97 06:07 Page:267
     1325        1        /*T***********************************************************/
     1326        2        /*T*                                                         */
     1327        3        /*T* Copyright (c) Bull HN Information Systems Inc., 1997    */
     1328        4        /*T*                                                         */
     1329        5        /*T***********************************************************/
     1330        6        TDP$ERRTEXT: PROC;
     1331        7        /*E*        ERROR:  TDP-E$ERRTOOBIG-0
     1332        8                  MESSAGE: Entry greater than maximum size of 1000 words.
     1333        9        */
     1334       10        /*E*        ERROR:  TDP-E$TDNOPERM-0
     1335       11                  MESSAGE: Operator refused permission to use T&D services.
     1336       12        */
     1337       13        /*E*        ERROR:  TDP-E$TDNOTEST-0
     1338       14                  MESSAGE: No test was specified in M$TDOPEN fpt
     1339       15        */
     1340       16        /*E*        ERROR:  TDP-E$TDBADDVN-0
     1341       17                  MESSAGE: Device number bad in M$TDOPEN fpt.
     1342       18        */
     1343       19        /*E*        ERROR:  TDP-E$TDMPCBSY-0
     1344       20                  MESSAGE: The requested MPC is not available for T & D.
     1345       21        */
     1346       22        /*E*        ERROR:  TDP-E$BREAK-0
     1347       23                  MESSAGE: Break or control Y received during M$TDOPEN.  Open not performed.
     1348       24        */
     1349       25        /*E*        ERROR:  TDP-E$TDNOTOPEN-0
     1350       26                  MESSAGE: DCB %DC is not open.
     1351       27        */
     1352       28        /*E*        ERROR:  TDP-E$TDNOTDCB-0
     1353       29                  MESSAGE: DCB %DC is not a T&D dcb.
     1354       30        */
     1355       31        /*E*        ERROR:  TDP-E$TDDEVBSY-0
     1356       32                  MESSAGE: The requested device is not available for T&D.
     1357       33        */
     1358       34        /*E*        ERROR:  TDP-E$TDMISC-0
     1359       35                  MESSAGE: T & D feature not yet implemented.
     1360       36        */
     1361       37        /*E*        ERROR:  TDP-E$TDBADIDCW-0
PL6.E3A0      #005=TDP$ERRTEXT File=TDP$PMME.:E05TSI                             WED 07/30/97 06:07 Page:268
     1362       38                  MESSAGE: T & D DCW list contains an illegal IDCW.
     1363       39                 MESSAGE1: It is illegal to write on other than a diagnostic cylinder of
     1364       40                           a shared disk.
     1365       41        */
     1366       42        /*E*        ERROR:  TDP-E$BADDCB-0
     1367       43                  MESSAGE: M$IOQ DCB %DC open or assigned.
     1368       44        */
     1369       45        /*E*        ERROR:  TDP-E$BADDCWLIST-0
     1370       46                  MESSAGE: M$IOQ bad DCW list.
     1371       47        */
     1372       48        /*E*        ERROR:  TDP-E$BADDLA-0
     1373       49                  MESSAGE: M$IOQ bad Device Logical Address
     1374       50        */
     1375       51        /*E*        ERROR:  TDP-E$BADLFC-0
     1376       52                  MESSAGE: M$IOQ bad Logical Function Code.
     1377       53        */
     1378       54        /*E*        ERROR:  TDP-E$TDALTBAD-0
     1379       55                    MESSAGE: Bad altpath specified on M$TDIO.
     1380       56               MESSAGE1: The altpath specified does not exist or reaches a device other than
     1381       57                              the one the T & D DCB is opened to.
     1382       58        */
     1383       59        /*E*        ERROR:  TDP-E$SCNNOCOMP-0
     1384       60                  MESSAGE: The specified component does not exist.
     1385       61        */
     1386       62        /*E*        ERROR:  TDP-E$SCNNOTDEV-0
     1387       63                  MESSAGE: The specified component is not a device (It is probably an MPC)
     1388       64        */
     1389       65        /*E*        ERROR:  TDP-E$SCNNOTMPC-0
     1390       66                  MESSAGE: The specified component is not an MPC. (It is probably a device)
     1391       67        */
     1392       68        /*E*        ERROR:  TDP-E$SCNNOPATH-0
     1393       69                  MESSAGE: Can't return that device because all paths to it are partitioned.
     1394       70        */
     1395       71        /*E*        ERROR:  TDP-E$ONLYPATH-0
     1396       72                  MESSAGE: Can't partition that component because it is the only path
     1397       73                           to some device that has not been partitioned.
     1398       74        */
PL6.E3A0      #005=TDP$ERRTEXT File=TDP$PMME.:E05TSI                             WED 07/30/97 06:07 Page:269
     1399       75        /*E*        ERROR:  TDP-E$ONLYSCONS-0
     1400       76                  MESSAGE: Can't partition that system console because it is the only
     1401       77                           console that has not been partitioned.
     1402       78        */
     1403       79        /*E*        ERROR:  TDP-E$IOMDOWN-0
     1404       80                  MESSAGE: Can't return that component because its IOM is partitioned.
     1405       81        */
     1406       82        /*E*        ERROR:  TDP-E$TDOKFORIOM-0
     1407       83                  MESSAGE: Can't specify TDOK for an IOM.
     1408       84        */
     1409       85        /*E*        ERROR:  TDP-E$CHANUP-0
     1410       86                  MESSAGE: Can't partition this IOM because at least one of its
     1411       87                           channels is not partitioned.
     1412       88        */
     1413       89        /*E*        ERROR:  TDP-E$MPCUP-0
     1414       90                  MESSAGE: Can't partition this IOM because it provides the only
     1415       91                           path to an MPC.
     1416       92        */
     1417       93        /*E*        ERROR:  TDP-E$NOPARTRETCHAN-0
     1418       94                  MESSAGE: Can't partition/return channel for FEP or system console;
     1419       95                           partition/return the device.
     1420       96        */
     1421       97        /*E*        ERROR:  TDP-E$SCNNOTFEP-0
     1422       98                  MESSAGE: The specified FEP does not exist
     1423       99        */
     1424      100        /*E*        ERROR:  TDP-E$SCNTDUSER-0
     1425      101                  MESSAGE: Cannot return that component because there is a T & D
     1426      102                           user using it.
     1427      103        */
     1428      104        /*E*       ERROR: TDP-E$CWFORNONDP-0
     1429      105                 MESSAGE: Cannot set CHECKWRITE% for device %U1.%
     1430      106                 MESSAGE1: CHECKWRITE is only legal for disk devices.
     1431      107        */
     1432      108        /*E*       ERROR: TDP-E$REMOTEFEP-0
     1433      109                   MESSAGE: Cannot perform operations on remote FEPs.
     1434      110                   MESSAGE1: Partition, return, or display of remote FEPs
     1435      111                             is not supported in SYSCON.
PL6.E3A0      #005=TDP$ERRTEXT File=TDP$PMME.:E05TSI                             WED 07/30/97 06:07 Page:270
     1436      112        */
     1437      113        /*E*       ERROR: TDP-E$NOPARTRETFEP-0
     1438      114                   MESSAGE: Currently unable to partition/return that FEP.
     1439      115                   MESSAGE1: The FEP cannot be partitioned/returned because
     1440      116                             it is not in the proper state.
     1441      117        */
     1442      118        /*E*       ERROR: TDP-E$TDMCABUSY-0
     1443      119                   MESSAGE: The requested MCA is not available for T&D.
     1444      120        */
     1445      121        /*E*       ERROR: TDP-E$TDNOTMCA-0
     1446      122                   MESSAGE: The requested device is not an MCA.
     1447      123        */
     1448      124        /*E*       ERROR: TDP-E$TDMCANOTRESERVED-0
     1449      125                   MESSAGE: The requested device is not reserved for use by T&D
     1450      126        */
     1451      127        /*E*       ERROR: TDP-E$TDMCANOTUSER-0
     1452      128                  MESSAGE: The requested device is not reserved for user by T&D by this user
     1453      129        */
     1454      130        /*E*       ERROR: TDP-E$MCAINUSE-0
     1455      131                   MESSAGE: Can't partition or release IOM because MCA is in use
     1456      132        */
     1457      133        /*E*       ERROR: TDP-E$DEVNOTIDLE-0
     1458      134                   MESSAGE: Unable to partition that device - state is not idle
     1459      135                   MESSAGE1: This device cannot be partitioned because it is currently
     1460      136                             waiting for an operator keyin
     1461      137        */
     1462      138        /*E*       ERROR:TDP-E$IOMNOTENABLED-0
     1463      139                   MESSAGE: Can't partition IOM because its SCU port is not enabled
     1464      140        */
     1465      141    1   END TDP$ERRTEXT;

PL6.E3A0      #005=TDP$ERRTEXT File=TDP$PMME.:E05TSI                             WED 07/30/97 06:07 Page:271
      No diagnostics issued in procedure TDP$ERRTEXT.

   No code generated for procedure TDP$ERRTEXT .
   Procedure TDP$ERRTEXT requires 4 words of local(AUTO) storage.

    No errors detected in file TDP$PMME.:E05TSI    .

PL6.E3A0      #005=TDP$ERRTEXT File=TDP$PMME.:E05TSI                             WED 07/30/97 06:07 Page:272

 Object Unit name= TDP$ERRTEXT                                File name= TDP$PMME.:E05TOU
 UTS= JUL 30 '97 06:07:08.20 WED                              Compiler= PL-6/E31         Sev=      00
 SharedLib= :SHARED_SYSTEM                                    Alt SharedLib=


    ****  Control sections  ****

 Sect   Type Bound  Init  Size OctSiz  Section name(segment info)
    0   Proc  even  none     0      0  TDP$ERRTEXT

    ****  Entry defs  ****

                              Check   Calling
                             calling  sequence
  Sect OctLoc Primary Altret sequence   type   Parms  Name
     0      0   yes            yes     ~proc       0  TDP$ERRTEXT
PL6.E3A0      #005=TDP$ERRTEXT File=TDP$PMME.:E05TSI                             WED 07/30/97 06:07 Page:273

     1325        1        /*T***********************************************************/
     1326        2        /*T*                                                         */
     1327        3        /*T* Copyright (c) Bull HN Information Systems Inc., 1997    */
     1328        4        /*T*                                                         */
     1329        5        /*T***********************************************************/
     1330        6        TDP$ERRTEXT: PROC;
     1331        7        /*E*        ERROR:  TDP-E$ERRTOOBIG-0
     1332        8                  MESSAGE: Entry greater than maximum size of 1000 words.
     1333        9        */
     1334       10        /*E*        ERROR:  TDP-E$TDNOPERM-0
     1335       11                  MESSAGE: Operator refused permission to use T&D services.
     1336       12        */
     1337       13        /*E*        ERROR:  TDP-E$TDNOTEST-0
     1338       14                  MESSAGE: No test was specified in M$TDOPEN fpt
     1339       15        */
     1340       16        /*E*        ERROR:  TDP-E$TDBADDVN-0
     1341       17                  MESSAGE: Device number bad in M$TDOPEN fpt.
     1342       18        */
     1343       19        /*E*        ERROR:  TDP-E$TDMPCBSY-0
     1344       20                  MESSAGE: The requested MPC is not available for T & D.
     1345       21        */
     1346       22        /*E*        ERROR:  TDP-E$BREAK-0
     1347       23                  MESSAGE: Break or control Y received during M$TDOPEN. Open not performed.
     1348       24        */
     1349       25        /*E*        ERROR:  TDP-E$TDNOTOPEN-0
     1350       26                  MESSAGE: DCB %DC is not open.
     1351       27        */
     1352       28        /*E*        ERROR:  TDP-E$TDNOTDCB-0
     1353       29                  MESSAGE: DCB %DC is not a T&D dcb.
     1354       30        */
     1355       31        /*E*        ERROR:  TDP-E$TDDEVBSY-0
     1356       32                  MESSAGE: The requested device is not available for T&D.
     1357       33        */
     1358       34        /*E*        ERROR:  TDP-E$TDMISC-0
     1359       35                  MESSAGE: T & D feature not yet implemented.
     1360       36        */
     1361       37        /*E*        ERROR:  TDP-E$TDBADIDCW-0
PL6.E3A0      #005=TDP$ERRTEXT File=TDP$PMME.:E05TSI                             WED 07/30/97 06:07 Page:274
     1362       38                  MESSAGE: T & D DCW list contains an illegal IDCW.
     1363       39                 MESSAGE1: It is illegal to write on other than a diagnostic cylinder of
     1364       40                           a shared disk.
     1365       41        */
     1366       42        /*E*        ERROR:  TDP-E$BADDCB-0
     1367       43                  MESSAGE: M$IOQ DCB %DC open or assigned.
     1368       44        */
     1369       45        /*E*        ERROR:  TDP-E$BADDCWLIST-0
     1370       46                  MESSAGE: M$IOQ bad DCW list.
     1371       47        */
     1372       48        /*E*        ERROR:  TDP-E$BADDLA-0
     1373       49                  MESSAGE: M$IOQ bad Device Logical Address
     1374       50        */
     1375       51        /*E*        ERROR:  TDP-E$BADLFC-0
     1376       52                  MESSAGE: M$IOQ bad Logical Function Code.
     1377       53        */
     1378       54        /*E*        ERROR:  TDP-E$TDALTBAD-0
     1379       55                    MESSAGE: Bad altpath specified on M$TDIO.
     1380       56              MESSAGE1: The altpath specified does not exist or reaches a device other than
     1381       57                              the one the T & D DCB is opened to.
     1382       58        */
     1383       59        /*E*        ERROR:  TDP-E$SCNNOCOMP-0
     1384       60                  MESSAGE: The specified component does not exist.
     1385       61        */
     1386       62        /*E*        ERROR:  TDP-E$SCNNOTDEV-0
     1387       63                  MESSAGE: The specified component is not a device (It is probably an MPC)
     1388       64        */
     1389       65        /*E*        ERROR:  TDP-E$SCNNOTMPC-0
     1390       66                  MESSAGE: The specified component is not an MPC. (It is probably a device)
     1391       67        */
     1392       68        /*E*        ERROR:  TDP-E$SCNNOPATH-0
     1393       69                 MESSAGE: Can't return that device because all paths to it are partitioned.
     1394       70        */
     1395       71        /*E*        ERROR:  TDP-E$ONLYPATH-0
     1396       72                  MESSAGE: Can't partition that component because it is the only path
     1397       73                           to some device that has not been partitioned.
     1398       74        */
PL6.E3A0      #005=TDP$ERRTEXT File=TDP$PMME.:E05TSI                             WED 07/30/97 06:07 Page:275
     1399       75        /*E*        ERROR:  TDP-E$ONLYSCONS-0
     1400       76                  MESSAGE: Can't partition that system console because it is the only
     1401       77                           console that has not been partitioned.
     1402       78        */
     1403       79        /*E*        ERROR:  TDP-E$IOMDOWN-0
     1404       80                  MESSAGE: Can't return that component because its IOM is partitioned.
     1405       81        */
     1406       82        /*E*        ERROR:  TDP-E$TDOKFORIOM-0
     1407       83                  MESSAGE: Can't specify TDOK for an IOM.
     1408       84        */
     1409       85        /*E*        ERROR:  TDP-E$CHANUP-0
     1410       86                  MESSAGE: Can't partition this IOM because at least one of its
     1411       87                           channels is not partitioned.
     1412       88        */
     1413       89        /*E*        ERROR:  TDP-E$MPCUP-0
     1414       90                  MESSAGE: Can't partition this IOM because it provides the only
     1415       91                           path to an MPC.
     1416       92        */
     1417       93        /*E*        ERROR:  TDP-E$NOPARTRETCHAN-0
     1418       94                  MESSAGE: Can't partition/return channel for FEP or system console;
     1419       95                           partition/return the device.
     1420       96        */
     1421       97        /*E*        ERROR:  TDP-E$SCNNOTFEP-0
     1422       98                  MESSAGE: The specified FEP does not exist
     1423       99        */
     1424      100        /*E*        ERROR:  TDP-E$SCNTDUSER-0
     1425      101                  MESSAGE: Cannot return that component because there is a T & D
     1426      102                           user using it.
     1427      103        */
     1428      104        /*E*       ERROR: TDP-E$CWFORNONDP-0
     1429      105                 MESSAGE: Cannot set CHECKWRITE% for device %U1.%
     1430      106                 MESSAGE1: CHECKWRITE is only legal for disk devices.
     1431      107        */
     1432      108        /*E*       ERROR: TDP-E$REMOTEFEP-0
     1433      109                   MESSAGE: Cannot perform operations on remote FEPs.
     1434      110                   MESSAGE1: Partition, return, or display of remote FEPs
     1435      111                             is not supported in SYSCON.
PL6.E3A0      #005=TDP$ERRTEXT File=TDP$PMME.:E05TSI                             WED 07/30/97 06:07 Page:276
     1436      112        */
     1437      113        /*E*       ERROR: TDP-E$NOPARTRETFEP-0
     1438      114                   MESSAGE: Currently unable to partition/return that FEP.
     1439      115                   MESSAGE1: The FEP cannot be partitioned/returned because
     1440      116                             it is not in the proper state.
     1441      117        */
     1442      118        /*E*       ERROR: TDP-E$TDMCABUSY-0
     1443      119                   MESSAGE: The requested MCA is not available for T&D.
     1444      120        */
     1445      121        /*E*       ERROR: TDP-E$TDNOTMCA-0
     1446      122                   MESSAGE: The requested device is not an MCA.
     1447      123        */
     1448      124        /*E*       ERROR: TDP-E$TDMCANOTRESERVED-0
     1449      125                   MESSAGE: The requested device is not reserved for use by T&D
     1450      126        */
     1451      127        /*E*       ERROR: TDP-E$TDMCANOTUSER-0
     1452      128                 MESSAGE: The requested device is not reserved for user by T&D by this user
     1453      129        */
     1454      130        /*E*       ERROR: TDP-E$MCAINUSE-0
     1455      131                   MESSAGE: Can't partition or release IOM because MCA is in use
     1456      132        */
     1457      133        /*E*       ERROR: TDP-E$DEVNOTIDLE-0
     1458      134                   MESSAGE: Unable to partition that device - state is not idle
     1459      135                   MESSAGE1: This device cannot be partitioned because it is currently
     1460      136                             waiting for an operator keyin
     1461      137        */
     1462      138        /*E*       ERROR:TDP-E$IOMNOTENABLED-0
     1463      139                   MESSAGE: Can't partition IOM because its SCU port is not enabled
     1464      140        */
     1465      141    1   END TDP$ERRTEXT;

PL6.E3A0      #005=TDP$ERRTEXT File=TDP$PMME.:E05TSI                             WED 07/30/97 06:07 Page:277
      No diagnostics issued in procedure TDP$ERRTEXT.
PL6.E3A0      #005=TDP$ERRTEXT File=TDP$PMME.:E05TSI                             WED 07/30/97 06:07 Page:278

 **** Variables and constants ****


   No code generated for procedure TDP$ERRTEXT .
   Procedure TDP$ERRTEXT requires 4 words of local(AUTO) storage.

    No errors detected in file TDP$PMME.:E05TSI    .
PL6.E3A0      #005=TDP$ERRTEXT File=TDP$PMME.:E05TSI                             WED 07/30/97 06:07 Page:279
          *** CROSS REFERENCE LISTING ***
**     DENOTES     IDENTIFIER DEFINITION
<<                 IDENTIFIER'S VALUE SET
>>                 IDENTIFIER'S VALUE USED
<>                 IDENTIFIER SET AND/OR USED
--                 IDENTIFIER REFERENCED
PL6.E3A0      #005=TDP$ERRTEXT File=TDP$PMME.:E05TSI                             WED 07/30/97 06:07 Page:280
          MINI XREF LISTING

