VERSION E05

PL6.E3A0      #001=TDP$PMME File=TDP$PMME.:E05TSI                                WED 07/30/97 06:03 Page:1
        1        1        /*M* T & D PMME HANDLERS */
        2        2        /*T***********************************************************/
        3        3        /*T*                                                         */
        4        4        /*T* Copyright (c) Bull HN Information Systems Inc., 1997    */
        5        5        /*T*                                                         */
        6        6        /*T***********************************************************/
        7        7        /*X* */
        8        8        /*D*  NAME:   TDP$PMME
        9        9              CALL:   CALL TDP$PMME(CODE);
       10       10                          CODE is the PMME code.
       11       11              ENVIRONMENT:  Privleged master mode.
       12       12              DESCRIPTION:  A DO CASE statement selects which T & D
       13       13                            PMME is to be processed.
       14       14                                                                           */
       15       15        TDP$PMME: PROC(CODE);
       16       16        /**/
       17       17        /* PARAMETERS */
       18       18        /**/
       19       19    1   DCL CODE SBIN;
       20       20        /**/
       21       21        /* EXTERNAL PROCEDURES */
       22       22        /**/
       23       23    1   DCL TDM$MIRROR ENTRY ;
       24       24    1   DCL TDP$OPEN ENTRY;
       25       25    1   DCL TDP$CLOSE ENTRY;
       26       26    1   DCL TDP$TDIO ENTRY;
       27       27    1   DCL TDP$SYSCON ENTRY(3) ALTRET;
       28       28    1   DCL NIE$PMME ENTRY;
       29       29    1   DCL ELA$SYSLOG ENTRY(6) ALTRET;
       30       30    1   DCL MME$CVM ENTRY(4) ALTRET;
       31       31    1   DCL MMD$RSPP ENTRY(2) ALTRET;
       32       32    1   DCL UDB$PMMEXIT ENTRY(0);
       33       33    1   DCL HFF$DSIZ ENTRY(2);
       34       34    1   DCL SSS$CACHE ENTRY;
       35       35    1   DCL SSS$CACHEBP ENTRY;
       36       36        /**/
       37       37        /* MISCELLANEOUS DATA */
PL6.E3A0      #001=TDP$PMME File=TDP$PMME.:E05TSI                                WED 07/30/97 06:03 Page:2
       38       38        /**/
       39       39    1   DCL B$JIT$ PTR SYMREF;
       40       40        %INCLUDE B$JIT_C;
       41      354        %B$JIT0;
       42      443        %U$JIT1X;
       43      446        %M$JIT2X;
       44      449        %F$JIT3X;
       45      452        %S$JIT4;
       46      458        %J$JIT5X;
       47      461        %A$JIT6X;
       48      464    1   DCL B$PS0$ PTR SYMREF;
       49      465    1   DCL B$PS1$ PTR SYMREF;
       50      466        %INCLUDE B_ERRORS_C;
       51     1593    1   DCL DSIZ UBIN WORD;
       52     1594        /**/
       53     1595        /* M$RDSYSLOG DATA */
       54     1596        /**/
       55     1597        %INCLUDE EL_DATA_R;
       56     1606    1   DCL CVMPG UBIN(36);
       57     1607        %INCLUDE EL$TABLES;
       58     1930    1   DCL BUF$ PTR;
       59     1931        %EL$BUF(NAME=BUF,STCLASS="BASED(BUF$)");
       60     1934    1   DCL B$WINDOW$ PTR SYMREF;
       61     1935        %INCLUDE B_STRINGS_C;
       62     2064        %INCLUDE M_INFO_C;
       63     2204        %INCLUDE HF_LOCK_C;
       64     2218    1   DCL ERR UBIN(36);
       65     2219        /**/
       66     2220        /* M$WRSYSLOG DATA */
       67     2221        %INCLUDE EL_DATA_C;
       68     2233        %INCLUDE TD$CP6V_C;
       69     2269        %FPT$WRSYSLOG_V (FPTN=WRFPT);
       70     2272        /* M$TDREQCPU DATA */
       71     2273        %INCLUDE SS_SCHED_R;                    /* CPU REFERENCES                     */
       72     2316    1   DCL S_CUN UBIN SYMREF;
       73     2317        %INCLUDE B$USER;                        /* USER TABLES (B$U.CPU)              */
       74     2533        %B$USERREFS;
PL6.E3A0      #001=TDP$PMME File=TDP$PMME.:E05TSI                                WED 07/30/97 06:03 Page:3
       75     2537    1   DCL   CPU# SBIN;
       76     2538        %FPT$TDREQCPU_V;
       77     2542        /**/
       78     2543                   %FPT$SYSCON_V;
       79     2547    1   DCL SYSCON_RESULT BIT(72) ALIGNED;
       80     2548    1   DCL VLR_SYSCON BIT(72) ALIGNED BASED;
       81     2549    1   DCL 1 ERROR,
       82     2550    1         2 FCG BIT(18),
       83     2551    1         2 MON BIT(1),
       84     2552    1         2 CODE UBIN(14) UNAL,
       85     2553    1         2 SEV UBIN(3) UNAL;
       86     2554        %EJECT;
PL6.E3A0      #001=TDP$PMME File=TDP$PMME.:E05TSI                                WED 07/30/97 06:03 Page:4
       87     2555    2           DO CASE(CODE);
       88     2556    2            CASE(0);                       /* M$RDSYSLOG                         */
       89     2557        /*D*  NAME:   M$RDSYSLOG
       90     2558              CALL:   CALL TDP$PMME(0);
       91     2559              DESCRIPTION:    The first buffer in the error loggers buffer
       92     2560                              chain is moved to the buffer specified in the
       93     2561                              M$RDSYSLOG fpt. If the buffer moved is the
       94     2562                              second buffer in the page, the stolen page is
       95     2563                              returned to the system.
       96     2564                                                                           */
       97     2565    2              CALL SSS$CACHEBP;
       98     2566    3              IF EL_FIRSTBUF=0 THEN DO;
       99     2567    3                 EL_ERRCT=0;
      100     2568    3                 CALL SSS$CACHE;
      101     2569    3                 CALL BADRET(%E$NOBUFS,0);
      102     2570    3                 END;
      103     2571        /*E*  ERROR:  TDP-E$NOBUFS-0
      104     2572              DESCRIPTION:  There are no error log buffers to pass.
      105     2573              MESSAGE: NO ERROR LOG BUFFERS TO BE READ.
      106     2574                                                                           */
      107     2575                   %LOCK (G#=EL_BUSY);
      108     2578    2              CVMPG=EL_FIRSTBUF;
      109     2579    2              CALL SSS$CACHE;
      110     2580    2              CALL MME$CVM(%MONWSQ,%WINDOWHI,CVMPG,ERR) ALTRET(BADCVM);
      111     2581    2              BUF$=PINCRW(B$WINDOW$,(%WINDOWHI-%WINDOWLO)*1024);
      112     2582    2              CALL SSS$CACHEBP;
      113     2583    3              IF BUF.COUNT=0 & EL_FIRSTBUF=EL_CURBUF THEN DO;
      114     2584    3                 CALL SSS$CACHE;
      115     2585    3                 CALL MME$CVM(%MONWSQ,%WINDOWHI,-1,ERR) ALTRET(BADCVM);
      116     2586    3                 CALL SSS$CACHEBP;
      117     2587    3                 EL_ERRCT=0;
      118     2588    3                 CALL SSS$CACHE;
      119     2589                      %UNLOCK (G#=EL_BUSY);
      120     2592    3                 CALL BADRET(%E$NOBUFS,0);
      121     2593    3                 END;
      122     2594    2              CALL SSS$CACHE;
      123     2595    2              CALL HFF$DSIZ (0,DSIZ);
PL6.E3A0      #001=TDP$PMME File=TDP$PMME.:E05TSI                                WED 07/30/97 06:03 Page:5
      124     2596    3              IF DSIZ < 4096 THEN DO;
      125     2597                      %UNLOCK (G#=EL_BUSY);
      126     2600    3                 CALL BADRET (%E$BUF2SMALL,4);
      127     2601    3                 END;
      128     2602        /*E*  ERROR:  TDP-E$BUF2SMALL-0
      129     2603              DESCRIPTION:  The buffer specified in the M$RDSYSLOG fpt is
      130     2604                            smaller than 512 words.
      131     2605              MESSAGE: M$RDSYSLOG BUFFER LESS THAN 512 WORDS.
      132     2606                                                                           */
      133     2607    2              B$PS0$->BUF=BUF$->BUF;
      134     2608    2              CALL SSS$CACHEBP;
      135     2609    2              IF EL_FIRSTBUF=EL_CURBUF THEN
      136     2610    2                 EL_CURBUF=BUF.NXTBUF;
      137     2611    3              ELSE DO INHIBIT;
      138     2612    3                 EL_FULLBUFS=EL_FULLBUFS-1;
      139     2613    3                 END /* INHIBIT */;
      140     2614    2              EL_FIRSTBUF=BUF.NXTBUF;
      141     2615    2              CALL SSS$CACHE;
      142     2616    2              CALL MME$CVM(%MONWSQ,%WINDOWHI,-1,ERR) ALTRET(BADCVM);
      143     2617    2              CALL MMD$RSPP(CVMPG,%MONWSQ);
      144     2618    2              CALL SSS$CACHEBP;
      145     2619    3              DO INHIBIT;
      146     2620    3                 EL_NUMPGS=EL_NUMPGS-1;
      147     2621    3                 END;                      /* INHIBIT                            */
      148     2622    2              CALL SSS$CACHE;
      149     2623                   %UNLOCK (G#=EL_BUSY);
      150     2626    2              RETURN;
      151     2627    2   BADCVM:    ;
      152     2628                   %UNLOCK (G#=EL_BUSY);
      153     2631    2              CALL BADRET(ERR,4);
      154     2632        /**/
      155     2633        /* M$WRSYSLOG */
      156     2634        /**/
      157     2635    2            CASE(1);                       /* M$WRSYSLOG                         */
      158     2636        /*D*  NAME:   M$WRSYSLOG
      159     2637              CALL:   CALL TDP$PMME(1);
      160     2638              DESCRIPTION:    If the size of the entry to be made is not
PL6.E3A0      #001=TDP$PMME File=TDP$PMME.:E05TSI                                WED 07/30/97 06:03 Page:6
      161     2639                              greater than the maximum error log entry size
      162     2640                              a call is made to ELA$ERRLOG with the parameters
      163     2641                              specified in the fpt.
      164     2642                                                                           */
      165     2643    2              CALL HFF$DSIZ (1,DSIZ);
      166     2644    3              IF B$PS0$->WRFPT.SIZE*4 > DSIZ THEN DO;
      167     2645    3                 ERR=%E$INFO2SMALL;
      168     2646        /*E*    ERROR:      TDP-E$INFO2SMALL
      169     2647                MESSAGE: The buffer area passed is smaller than the size of the entry.
      170     2648                MESSAGE1: The area framed by the ENTRY vector of the M$WRSYSLOG
      171     2649                          fpt must be at least as big as the value specified
      172     2650                          for SIZE.
      173     2651        */
      174     2652    3                 GOTO WRALT;
      175     2653    3                 END;
      176     2654    2              CALL ELA$SYSLOG(B$PS0$->WRFPT.TYPE,B$PS1$->WRFPT,B$PS0$->WRFPT.SIZE,
      177     2655    2                B$PS0$->WRFPT.MMINHIB,B$PS0$->WRFPT.FILENUM,ERR) ALTRET(WRALT);
      178     2656    2              RETURN;
      179     2657
      180     2658    2   WRALT:     B$JIT.ERR='240420400004'O;
      181     2659    2              B$JIT.ERR.CODE=ERR;
      182     2660    2              RETURN;
      183     2661        /*E*    ERROR:      TDP-E$NTRY2BIG
      184     2662                MESSAGE: System log entries may not exceed 1000 words.
      185     2663        */
      186     2664        /*E*    ERROR:      TDP-E$SLBUSY
      187     2665                MESSAGE: System log is busy.  Try again later.
      188     2666        */
      189     2667        /*E*    ERROR:      TDP-E$NEEDPAGE
      190     2668                MESSAGE: System log needs a buffer page and can't get it
      191     2669                            right now.
      192     2670        */
      193     2671        /*E*    ERROR:      TDP-E$SLFILE
      194     2672                MESSAGE: System log file number may not exceed 99.
      195     2673        */
      196     2674    2            CASE(2);                       /* M$TDOPEN                           */
      197     2675    2              CALL TDP$OPEN;
PL6.E3A0      #001=TDP$PMME File=TDP$PMME.:E05TSI                                WED 07/30/97 06:03 Page:7
      198     2676    2            CASE(3);                       /* M$TDCLOSE                          */
      199     2677    2              CALL TDP$CLOSE;
      200     2678    2            CASE(4);                       /* M$TDIO                             */
      201     2679    2              CALL TDP$TDIO;
      202     2680    2            CASE(5);                       /* M$TDREQCPU                         */
      203     2681    3              DO CASE(B$PS0$->FPT$TDREQCPU_V.MODE);
      204     2682    3               CASE(2);                    /* MODE=NORMAL                        */
      205     2683    3                 IF S_TDCPUF ~= S_CUN
      206     2684    4                 THEN DO;
      207     2685    4                    S$CU$->B$U.CPU = 0;    /* FOR NONTDJASSIGN                   */
      208     2686    4                    RETURN;
      209     2687    4                    END;
      210     2688    3                 S_TDCPUF=0;
      211     2689    3                 S_TDCPU#=0;
      212     2690    3                 GOTO RESET;               /* RESET DIAG MODE USER               */
      213     2691    3               CASE(1);                    /* MODE=DIAG                          */
      214     2692    3                 IF B$PS0$->FPT$TDREQCPU_V.XEQ = 3
      215     2693    3                   AND B$PS0$->FPT$TDREQCPU_V.CPU = 511
      216     2694    4                 THEN DO;                  /* NONTDJASSIGN REQUEST FOR CPU TYPE  */
      217     2695    5                    DO CPU# = S_NSCPU DOWNTO 0;
      218     2696    5                       IF B$PS0$->FPT$TDREQCPU_V.TYPE = S_PTYPE(CPU#)
      219     2697    5                         AND S_MPSTATE(CPU#) = 2 AND S_STOP(CPU#) ~= 1
      220     2698    5                       THEN GOTO TDREQCPU_SET;
      221     2699    5                       END;
      222     2700    4                    CALL BADRET(%E$NOCPU,4);
      223     2701    4                    END;
      224     2702    3                 CALL PROC#;               /* GET CPU #                          */
      225     2703    3                 IF S_MPSTATE(CPU#) ~= 2 OR S_STOP(CPU#) = 1
      226     2704    3                 THEN CALL BADRET(%E$CPUSTOPPED,4);
      227     2705    3                 IF B$PS0$->FPT$TDREQCPU_V.XEQ = 3
      228     2706    3                 THEN GOTO TDREQCPU_SET;   /* NONTDJASSIGN REQUEST FOR CPU PORT  */
      229     2707    4                 ELSE DO;
      230     2708    4                    IF S_TDCPUF ~= 0
      231     2709    5                    THEN DO;
      232     2710    5                       IF S_TDCPUF ~= S_CUN OR S_TDCPU# ~= CPU#
      233     2711    5                       THEN CALL BADRET(%E$CPUDIAGERR,4);
      234     2712    5                       END;
PL6.E3A0      #001=TDP$PMME File=TDP$PMME.:E05TSI                                WED 07/30/97 06:03 Page:8
      235     2713    4                    S_TDCPUF = S_CUN;
      236     2714    4                    S_TDCPU# = CPU#;
      237     2715    4                    END;
      238     2716    3               END;                        /* END MODE CASES                     */
      239     2717        /*                                                                    */
      240     2718    2              IF B$PS0$->FPT$TDREQCPU_V.XEQ >= 1
      241     2719    3              THEN DO;
      242     2720    3                 IF S_TDCPUF ~= S_CUN
      243     2721    3                 THEN CALL BADRET(%E$CPUASSIGNERR,4);
      244     2722    3                 CALL PROC#;
      245     2723    3                 IF S_TDCPU# ~= CPU#
      246     2724    3                 THEN CALL BADRET(%E$CPUASSIGNERR,4);
      247     2725    3                 IF B$PS0$->FPT$TDREQCPU_V.XEQ = 2
      248     2726    3                 THEN S_TDCPUJ = S_CUN;    /* FOR REMAINDER OF JOB               */
      249     2727    3   TDREQCPU_SET:
      250     2728    3                 S$CU$->B$U.CPU = CPU#+1;
      251     2729    3                 B$JIT.IDELTAT = 0;        /* QUANTUM END USER TO GET ON CPU#    */
      252     2730    3                 RETURN;
      253     2731    3                 END;
      254     2732    3              ELSE DO;
      255     2733    3   RESET:        S$CU$->B$U.CPU=0;
      256     2734    3                 S_TDCPUJ=0;
      257     2735    3                 END;
      258     2736        /**/
      259     2737        /* M$IOQ */
      260     2738        /**/
      261     2739    2            CASE(6);
      262     2740    2              CALL NIE$PMME;
      263     2741    2            CASE(7);                       /* M$SYSCON                           */
      264     2742    2              CALL TDP$SYSCON(B$PS0$->FPT$SYSCON_V,SYSCON_RESULT,ERROR) ALTRET(
              2742                       SYSCON_ALT);
      265     2743    2              CALL HFF$DSIZ(1,ERR);
      266     2744    2              IF ERR>=8 THEN B$PS1$->VLR_SYSCON=SYSCON_RESULT;
      267     2745    2            CASE(8);
      268     2746    2              CALL TDM$MIRROR ;
      269     2747    2            END /* CASE CODE */;
      270     2748    1           RETURN;
PL6.E3A0      #001=TDP$PMME File=TDP$PMME.:E05TSI                                WED 07/30/97 06:03 Page:9
      271     2749    1   SYSCON_ALT: ;
      272     2750    1           IF ERROR.FCG='0'B THEN CALL BADRET(ERROR,4);
      273     2751    1           B$JIT.ERR=ERROR;
      274     2752    1           CALL UDB$PMMEXIT;
      275     2753        /*E*    ERROR:      TDP-E$PRTBSY
      276     2754                MESSAGE: Device in use.  Will be partitioned when released.
      277     2755        */
      278     2756        /*E*    ERROR:      TDP-E$UPNLDT
      279     2757                MESSAGE: Cannot return that device because there are no LDCTs available
      280     2758        */
      281     2759        /*                                                                   */
      282     2760    1   PROC#:  PROC;
      283     2761    3           DO CPU# = 0 TO S_NSCPU;         /*  SEARCH PORT # TABLE FOR PROC      */
      284     2762    3              IF B$PS0$->FPT$TDREQCPU_V.CPU = S_PORTNR(CPU#) THEN RETURN;
      285     2763    3              END;
      286     2764    2           CALL BADRET(%E$NOCPU,4);
      287     2765    2   END PROC#;
      288     2766        /*E*      ERROR: TDP-E$NOCPU-0
      289     2767                  MESSAGE: Designated CPU is unavailable
      290     2768                  DESCRIPTION: THE SPECIFIED CPU IS NOT CONFIGURED IN THE SYSTEM */
      291     2769        /*E*      ERROR: TDP-E$CPUSTOPPED-0
      292     2770                  MESSAGE: Designated CPU not running
      293     2771                  DESCRIPTION: THE SPECIFIED CPU IS PRESENT BUT IS NOT RUNNING. */
      294     2772        /*E*      ERROR: TDP-E$CPURUNNING-0
      295     2773                  MESSAGE: Designated CPU is running
      296     2774                  DESCRIPTION: THE SPECIFIED CPU IS PRESENT BUT IS RUNNING. */
      297     2775        /*E*      ERROR: TDP-E$CPUMASTER-0
      298     2776                  MESSAGE: Designated CPU is the MASTER
      299     2777                  DESCRIPTION: THE MASTER CPU MAY NOT BE  RELEASED. */
      300     2778        /*E*      ERROR: TDP-E$SCUNOTVALID-0
      301     2779                  MESSAGE: Designated SCU may not be released
      302     2780                  DESCRIPTION: LOW MEMORY MAY NOT BE  RELEASED. */
      303     2781        /*E*      ERROR: TDP-E$SCUPAGESINUSE-0
      304     2782                  MESSAGE: Pages in Designated SCU are in use; SCU not released
      305     2783                  DESCRIPTION: A DIE IS REQUIRE TO RELEASE SCU. */
      306     2784        /*E*      ERROR: TDP-E$SCUCMDNOTVALID-0
      307     2785                  MESSAGE: SCU option is only supported on the DPS 8000
PL6.E3A0      #001=TDP$PMME File=TDP$PMME.:E05TSI                                WED 07/30/97 06:03 Page:10
      308     2786                  DESCRIPTION: Use PART/RET PAGE to release or return memory */
      309     2787        /*E*      ERROR: TDP-E$SCUNOTRETURNED-0
      310     2788                  MESSAGE: Designated SCU was not returned
      311     2789                  DESCRIPTION: DPS8000 must be split, STATE SCU command failed*/
      312     2790        /*E*      ERROR: TDP-E$SCUNOTCONFIG-0
      313     2791                  MESSAGE: Designated SCU is not configured
      314     2792            DESCRIPTION: Operating system was not booted with half released configuration */
      315     2793        /*E*      ERROR: TDP-E$CPUNOTRETURNED-0
      316     2794                  MESSAGE: Designated CPU was not returned
      317     2795                  DESCRIPTION: DPS8000 must be split, STATE CPU command failed*/
      318     2796        /*E*      ERROR: TDP-E$IOMNOTRETURNED-0
      319     2797                  MESSAGE: Designated IOM was not returned
      320     2798                  DESCRIPTION: DPS8000 must be split, STATE command failed*/
      321     2799        /*E*      ERROR: TDP-E$IOMNOTRELEASED-0
      322     2800                  MESSAGE: Designated IOM was not released
      323     2801                  DESCRIPTION: DPS8000 must be split, STATE command failed*/
      324     2802        /*E*      ERROR: TDP-E$CPUNOTRELEASED-0
      325     2803                  MESSAGE: Designated CPU was not released
      326     2804                  DESCRIPTION: DPS8000 must be split, STATE CPU command failed*/
      327     2805        /*E*      ERROR: TDP-E$SCUNOTRELEASED-0
      328     2806                  MESSAGE: Designated SCU was not released
      329     2807                  DESCRIPTION: DPS8000 must be split, STATE SCU command failed*/
      330     2808        /*E*      ERROR: TDP-E$CPUDIAGERR-0
      331     2809                  MESSAGE: Another user or CPU is in diagnostic mode;                 */
      332     2810        /*E*      ERROR: TDP-E$CPUASSIGNERR-0
      333     2811                  MESSAGE: Requested CPU not in diagnostic mode               */
      334     2812    1   BADRET: PROC(ERRCODE,SEVERITY);
      335     2813    2   DCL ERRCODE UBIN(36);
      336     2814    2   DCL SEVERITY UBIN(36);
      337     2815    2           B$JIT$->B$JIT.ERR='240420000000'O;
      338     2816    2           B$JIT$->B$JIT.ERR.CODE=ERRCODE;
      339     2817    2           B$JIT$->B$JIT.ERR.SEV=SEVERITY;
      340     2818    2           CALL UDB$PMMEXIT;
      341     2819    2   END BADRET;
      342     2820    1   END TDP$PMME;
      343     2821        %EOD;

PL6.E3A0      #001=TDP$PMME File=TDP$PMME.:E05TSI                                WED 07/30/97 06:03 Page:11
--  Include file information  --

   B$USER.:E05TOU  cannot be made into a system file and is referenced.
   SS_CNTRLD_R.:E05TOU  cannot be made into a system file and is referenced.
   SS_CNTRL_R.:E05TOU  cannot be made into a system file and is referenced.
   SS_SCHED_R.:E05TOU  cannot be made into a system file and is referenced.
   TD$CP6V_C.:E05TOU  is referenced.
   EL_DATA_C.:E05TOU  is referenced.
   HF_LOCK_C.:E05TOU  cannot be made into a system file and is referenced.
   M_INFO_C.:E05TOU  is referenced.
   B_STRINGS_C.:E05TOU  is referenced.
   EL$TABLES.:E05TOU  is referenced.
   EL_DATA_R.:E05TOU  cannot be made into a system file and is referenced.
   B_ERRORS_C.:E05TOU  is referenced.
   B$JIT_C.:E05TOU  is referenced.
      No diagnostics issued in procedure TDP$PMME.

   Procedure TDP$PMME requires 481 words for executable code.
   Procedure TDP$PMME requires 24 words of local(AUTO) storage.

PL6.E3A0      #001=TDP$PMME File=TDP$PMME.:E05TSI                                WED 07/30/97 06:03 Page:12

 Object Unit name= TDP$PMME                                   File name= TDP$PMME.:E05TOU
 UTS= JUL 30 '97 06:03:20.72 WED                              Compiler= PL-6/E31         Sev=      00
 SharedLib= :SHARED_SYSTEM                                    Alt SharedLib=


    ****  Control sections  ****

 Sect   Type Bound  Init  Size OctSiz  Section name(segment info)
    0  RoData even  UTS      2      2  TDP$PMME
    1   Proc  even  none   481    741  TDP$PMME
    2  RoData even  none    19     23  TDP$PMME

    ****  Entry defs  ****

                              Check   Calling
                             calling  sequence
  Sect OctLoc Primary Altret sequence   type   Parms  Name
     1      0   yes            yes      Std        1  TDP$PMME
PL6.E3A0      #001=TDP$PMME File=TDP$PMME.:E05TSI                                WED 07/30/97 06:03 Page:13

  ****  Entry refs  ****

         Check        Calling
        calling       sequence
Altret sequence SRef   type   Args  Name
         yes           Std       0 SSS$CACHEBP
         yes           Std       1 HFC$UNLOCK
         yes           Std       0 TDM$MIRROR
         yes           Std       0 SSS$CACHE
         yes           Std       1 HFC$LOCK
 yes     yes           Std       4 MME$CVM
         yes           Std       2 HFF$DSIZ
         yes           Std       0 NIE$PMME
 yes     yes           Std       2 MMD$RSPP
 yes     yes           Std       6 ELA$SYSLOG
         yes           Std       0 TDP$CLOSE
         yes           Std       0 TDP$OPEN
         yes           Std       0 TDP$TDIO
         yes           Std       0 UDB$PMMEXIT
 yes     yes           Std       3 TDP$SYSCON
                       nStd      0 X66_AUTO_1
                       Std       0 B_CONSPOOL_D
                       nStd      0 X66_ARET

  ****  Data refs  ****

  Flags:  r = read only, s = secondary
Flgs Name                             Flgs Name                             Flgs Name
     B$JIT$                                B$PS0$                                B$PS1$
     EL_BUSY                               EL_NUMPGS                             EL_FULLBUFS
     EL_FIRSTBUF                           EL_CURBUF                             EL_ERRCT
     B$WINDOW$                             S_PORTNR                              S_MPSTATE
     S_STOP                                S_PTYPE                               S_NSCPU
     S_TDCPUF                              S_TDCPU#                              S_TDCPUJ
     S_CUN                                 S$CU$                                 B_VECTNIL
PL6.E3A0      #001=TDP$PMME File=TDP$PMME.:E05TSI                                WED 07/30/97 06:03 Page:14

  ****  Segment refs  ****

  Flags:  r = read only, s = secondary
Flgs Name                             Flgs Name                             Flgs Name
     ISSID
PL6.E3A0      #001=TDP$PMME File=TDP$PMME.:E05TSI                                WED 07/30/97 06:03 Page:15


        1        1        /*M* T & D PMME HANDLERS */
        2        2        /*T***********************************************************/
        3        3        /*T*                                                         */
        4        4        /*T* Copyright (c) Bull HN Information Systems Inc., 1997    */
        5        5        /*T*                                                         */
        6        6        /*T***********************************************************/
        7        7        /*X* */
        8        8        /*D*  NAME:   TDP$PMME
        9        9              CALL:   CALL TDP$PMME(CODE);
       10       10                          CODE is the PMME code.
       11       11              ENVIRONMENT:  Privleged master mode.
       12       12              DESCRIPTION:  A DO CASE statement selects which T & D
       13       13                            PMME is to be processed.
       14       14                                                                           */
       15       15        TDP$PMME: PROC(CODE);

     15  1 000000   000000 700200 xent  TDP$PMME     TSX0  ! X66_AUTO_1
         1 000001   000030 000001                    ZERO    24,1

       16       16        /**/
       17       17        /* PARAMETERS */
       18       18        /**/
       19       19    1   DCL CODE SBIN;
       20       20        /**/
       21       21        /* EXTERNAL PROCEDURES */
       22       22        /**/
       23       23    1   DCL TDM$MIRROR ENTRY ;
       24       24    1   DCL TDP$OPEN ENTRY;
       25       25    1   DCL TDP$CLOSE ENTRY;
       26       26    1   DCL TDP$TDIO ENTRY;
       27       27    1   DCL TDP$SYSCON ENTRY(3) ALTRET;
       28       28    1   DCL NIE$PMME ENTRY;
       29       29    1   DCL ELA$SYSLOG ENTRY(6) ALTRET;
       30       30    1   DCL MME$CVM ENTRY(4) ALTRET;
       31       31    1   DCL MMD$RSPP ENTRY(2) ALTRET;
       32       32    1   DCL UDB$PMMEXIT ENTRY(0);
PL6.E3A0      #001=TDP$PMME File=TDP$PMME.:E05TSI                                WED 07/30/97 06:03 Page:16
       33       33    1   DCL HFF$DSIZ ENTRY(2);
       34       34    1   DCL SSS$CACHE ENTRY;
       35       35    1   DCL SSS$CACHEBP ENTRY;
       36       36        /**/
       37       37        /* MISCELLANEOUS DATA */
       38       38        /**/
       39       39    1   DCL B$JIT$ PTR SYMREF;
       40       40        %INCLUDE B$JIT_C;
       41      354        %B$JIT0;
       42      443        %U$JIT1X;
       43      446        %M$JIT2X;
       44      449        %F$JIT3X;
       45      452        %S$JIT4;
       46      458        %J$JIT5X;
       47      461        %A$JIT6X;
       48      464    1   DCL B$PS0$ PTR SYMREF;
       49      465    1   DCL B$PS1$ PTR SYMREF;
       50      466        %INCLUDE B_ERRORS_C;
       51     1593    1   DCL DSIZ UBIN WORD;
       52     1594        /**/
       53     1595        /* M$RDSYSLOG DATA */
       54     1596        /**/
       55     1597        %INCLUDE EL_DATA_R;
       56     1606    1   DCL CVMPG UBIN(36);
       57     1607        %INCLUDE EL$TABLES;
       58     1930    1   DCL BUF$ PTR;
       59     1931        %EL$BUF(NAME=BUF,STCLASS="BASED(BUF$)");
       60     1934    1   DCL B$WINDOW$ PTR SYMREF;
       61     1935        %INCLUDE B_STRINGS_C;
       62     2064        %INCLUDE M_INFO_C;
       63     2204        %INCLUDE HF_LOCK_C;
       64     2218    1   DCL ERR UBIN(36);
       65     2219        /**/
       66     2220        /* M$WRSYSLOG DATA */
       67     2221        %INCLUDE EL_DATA_C;
       68     2233        %INCLUDE TD$CP6V_C;
       69     2269        %FPT$WRSYSLOG_V (FPTN=WRFPT);
PL6.E3A0      #001=TDP$PMME File=TDP$PMME.:E05TSI                                WED 07/30/97 06:03 Page:17
       70     2272        /* M$TDREQCPU DATA */
       71     2273        %INCLUDE SS_SCHED_R;                    /* CPU REFERENCES                     */
       72     2316    1   DCL S_CUN UBIN SYMREF;
       73     2317        %INCLUDE B$USER;                        /* USER TABLES (B$U.CPU)              */
       74     2533        %B$USERREFS;
       75     2537    1   DCL   CPU# SBIN;
       76     2538        %FPT$TDREQCPU_V;
       77     2542        /**/
       78     2543                   %FPT$SYSCON_V;
       79     2547    1   DCL SYSCON_RESULT BIT(72) ALIGNED;
       80     2548    1   DCL VLR_SYSCON BIT(72) ALIGNED BASED;
       81     2549    1   DCL 1 ERROR,
       82     2550    1         2 FCG BIT(18),
       83     2551    1         2 MON BIT(1),
       84     2552    1         2 CODE UBIN(14) UNAL,
       85     2553    1         2 SEV UBIN(3) UNAL;
       86     2554        %EJECT;
PL6.E3A0      #001=TDP$PMME File=TDP$PMME.:E05TSI                                WED 07/30/97 06:03 Page:18
       87     2555    2           DO CASE(CODE);

   2555  1 000002   200003 470500                    LDP0    @CODE,,AUTO
         1 000003   000000 235100                    LDA     0,,PR0
         1 000004   000011 115007                    CMPA    9,DL
         1 000005   000007 602005 1                  TNC     s:2555+5,AL
         1 000006   000644 710000 1                  TRA     s:2748
         1 000007   000020 710000 1                  TRA     s:2565
         1 000010   000300 710000 1                  TRA     s:2643
         1 000011   000355 710000 1                  TRA     s:2675
         1 000012   000361 710000 1                  TRA     s:2677
         1 000013   000365 710000 1                  TRA     s:2679
         1 000014   000371 710000 1                  TRA     s:2681
         1 000015   000603 710000 1                  TRA     s:2740
         1 000016   000607 710000 1                  TRA     s:2742
         1 000017   000641 710000 1                  TRA     s:2746

       88     2556    2            CASE(0);                       /* M$RDSYSLOG                         */

       89     2557        /*D*  NAME:   M$RDSYSLOG
       90     2558              CALL:   CALL TDP$PMME(0);
       91     2559              DESCRIPTION:    The first buffer in the error loggers buffer
       92     2560                              chain is moved to the buffer specified in the
       93     2561                              M$RDSYSLOG fpt. If the buffer moved is the
       94     2562                              second buffer in the page, the stolen page is
       95     2563                              returned to the system.
       96     2564                                                                           */
       97     2565    2              CALL SSS$CACHEBP;

   2565  1 000020   000002 631400 xsym               EPPR1   B_VECTNIL+2
         1 000021   000000 701000 xent               TSX1    SSS$CACHEBP
         1 000022   000000 011000                    NOP     0

       98     2566    3              IF EL_FIRSTBUF=0 THEN DO;

   2566  1 000023   000000 235000 xsym               LDA     EL_FIRSTBUF
         1 000024   000037 601000 1                  TNZ     s:2576
PL6.E3A0      #001=TDP$PMME File=TDP$PMME.:E05TSI                                WED 07/30/97 06:03 Page:19

       99     2567    3                 EL_ERRCT=0;

   2567  1 000025   000000 450000 xsym               STZ     EL_ERRCT

      100     2568    3                 CALL SSS$CACHE;

   2568  1 000026   000002 631400 xsym               EPPR1   B_VECTNIL+2
         1 000027   000000 701000 xent               TSX1    SSS$CACHE
         1 000030   000000 011000                    NOP     0

      101     2569    3                 CALL BADRET(%E$NOBUFS,0);

   2569  1 000031   000001 236000 2                  LDQ     1
         1 000032   200020 756100                    STQ     @ERRCODE+1,,AUTO
         1 000033   000002 236000 2                  LDQ     2
         1 000034   200017 756100                    STQ     ERROR+4,,AUTO
         1 000035   000714 701000 1                  TSX1    BADRET
         1 000036   000000 011000                    NOP     0

      102     2570    3                 END;

      103     2571        /*E*  ERROR:  TDP-E$NOBUFS-0
      104     2572              DESCRIPTION:  There are no error log buffers to pass.
      105     2573              MESSAGE: NO ERROR LOG BUFFERS TO BE READ.
      106     2574                                                                           */
      107     2575                   %LOCK (G#=EL_BUSY);

   2576  1 000037   000003 630400 2                  EPPR0   3
         1 000040   000017 631400 xsym               EPPR1   B_VECTNIL+15
         1 000041   000000 701000 xent               TSX1    HFC$LOCK
         1 000042   000000 011000                    NOP     0

      108     2578    2              CVMPG=EL_FIRSTBUF;

   2578  1 000043   000000 235000 xsym               LDA     EL_FIRSTBUF
         1 000044   200005 755100                    STA     CVMPG,,AUTO
PL6.E3A0      #001=TDP$PMME File=TDP$PMME.:E05TSI                                WED 07/30/97 06:03 Page:20

      109     2579    2              CALL SSS$CACHE;

   2579  1 000045   000002 631400 xsym               EPPR1   B_VECTNIL+2
         1 000046   000000 701000 xent               TSX1    SSS$CACHE
         1 000047   000000 011000                    NOP     0

      110     2580    2              CALL MME$CVM(%MONWSQ,%WINDOWHI,CVMPG,ERR) ALTRET(BADCVM);

   2580  1 000050   200007 630500                    EPPR0   ERR,,AUTO
         1 000051   200025 450500                    STP0    @SEVERITY+5,,AUTO
         1 000052   200005 631500                    EPPR1   CVMPG,,AUTO
         1 000053   200024 451500                    STP1    @SEVERITY+4,,AUTO
         1 000054   000006 237000 2                  LDAQ    6
         1 000055   200022 757100                    STAQ    @SEVERITY+2,,AUTO
         1 000056   200022 630500                    EPPR0   @SEVERITY+2,,AUTO
         1 000057   000022 631400 xsym               EPPR1   B_VECTNIL+18
         1 000060   000000 701000 xent               TSX1    MME$CVM
         1 000061   000265 702000 1                  TSX2    BADCVM

      111     2581    2              BUF$=PINCRW(B$WINDOW$,(%WINDOWHI-%WINDOWLO)*1024);

   2581  1 000062   000000 236000 xsym               LDQ     B$WINDOW$
         1 000063   022000 036003                    ADLQ    9216,DU
         1 000064   200006 756100                    STQ     BUF$,,AUTO

      112     2582    2              CALL SSS$CACHEBP;

   2582  1 000065   000002 631400 xsym               EPPR1   B_VECTNIL+2
         1 000066   000000 701000 xent               TSX1    SSS$CACHEBP
         1 000067   000000 011000                    NOP     0

      113     2583    3              IF BUF.COUNT=0 & EL_FIRSTBUF=EL_CURBUF THEN DO;

   2583  1 000070   400000 220003                    LDX0    -131072,DU
         1 000071   200006 470500                    LDP0    BUF$,,AUTO
         1 000072   000001 236100                    LDQ     1,,PR0
PL6.E3A0      #001=TDP$PMME File=TDP$PMME.:E05TSI                                WED 07/30/97 06:03 Page:21
         1 000073   777000 316003                    CANQ    -512,DU
         1 000074   000076 600000 1                  TZE     s:2583+6
         1 000075   000000 220003                    LDX0    0,DU
         1 000076   400000 221003                    LDX1    -131072,DU
         1 000077   000000 236000 xsym               LDQ     EL_FIRSTBUF
         1 000100   000000 116000 xsym               CMPQ    EL_CURBUF
         1 000101   000103 600000 1                  TZE     s:2583+11
         1 000102   000000 221003                    LDX1    0,DU
         1 000103   000000 636011                    EAQ     0,X1
         1 000104   200022 756100                    STQ     @SEVERITY+2,,AUTO
         1 000105   000000 636010                    EAQ     0,X0
         1 000106   200022 376100                    ANQ     @SEVERITY+2,,AUTO
         1 000107   000146 600000 1                  TZE     s:2594

      114     2584    3                 CALL SSS$CACHE;

   2584  1 000110   000002 631400 xsym               EPPR1   B_VECTNIL+2
         1 000111   000000 701000 xent               TSX1    SSS$CACHE
         1 000112   000000 011000                    NOP     0

      115     2585    3                 CALL MME$CVM(%MONWSQ,%WINDOWHI,-1,ERR) ALTRET(BADCVM);

   2585  1 000113   200007 630500                    EPPR0   ERR,,AUTO
         1 000114   200025 450500                    STP0    @SEVERITY+5,,AUTO
         1 000115   000005 236000 2                  LDQ     5
         1 000116   200024 756100                    STQ     @SEVERITY+4,,AUTO
         1 000117   000006 237000 2                  LDAQ    6
         1 000120   200022 757100                    STAQ    @SEVERITY+2,,AUTO
         1 000121   200022 630500                    EPPR0   @SEVERITY+2,,AUTO
         1 000122   000022 631400 xsym               EPPR1   B_VECTNIL+18
         1 000123   000000 701000 xent               TSX1    MME$CVM
         1 000124   000265 702000 1                  TSX2    BADCVM

      116     2586    3                 CALL SSS$CACHEBP;

   2586  1 000125   000002 631400 xsym               EPPR1   B_VECTNIL+2
         1 000126   000000 701000 xent               TSX1    SSS$CACHEBP
PL6.E3A0      #001=TDP$PMME File=TDP$PMME.:E05TSI                                WED 07/30/97 06:03 Page:22
         1 000127   000000 011000                    NOP     0

      117     2587    3                 EL_ERRCT=0;

   2587  1 000130   000000 450000 xsym               STZ     EL_ERRCT

      118     2588    3                 CALL SSS$CACHE;

   2588  1 000131   000002 631400 xsym               EPPR1   B_VECTNIL+2
         1 000132   000000 701000 xent               TSX1    SSS$CACHE
         1 000133   000000 011000                    NOP     0

      119     2589                      %UNLOCK (G#=EL_BUSY);

   2590  1 000134   000003 630400 2                  EPPR0   3
         1 000135   000017 631400 xsym               EPPR1   B_VECTNIL+15
         1 000136   000000 701000 xent               TSX1    HFC$UNLOCK
         1 000137   000000 011000                    NOP     0

      120     2592    3                 CALL BADRET(%E$NOBUFS,0);

   2592  1 000140   000001 236000 2                  LDQ     1
         1 000141   200020 756100                    STQ     @ERRCODE+1,,AUTO
         1 000142   000002 236000 2                  LDQ     2
         1 000143   200017 756100                    STQ     ERROR+4,,AUTO
         1 000144   000714 701000 1                  TSX1    BADRET
         1 000145   000000 011000                    NOP     0

      121     2593    3                 END;

      122     2594    2              CALL SSS$CACHE;

   2594  1 000146   000002 631400 xsym               EPPR1   B_VECTNIL+2
         1 000147   000000 701000 xent               TSX1    SSS$CACHE
         1 000150   000000 011000                    NOP     0

      123     2595    2              CALL HFF$DSIZ (0,DSIZ);
PL6.E3A0      #001=TDP$PMME File=TDP$PMME.:E05TSI                                WED 07/30/97 06:03 Page:23

   2595  1 000151   200004 630500                    EPPR0   DSIZ,,AUTO
         1 000152   200023 450500                    STP0    @SEVERITY+3,,AUTO
         1 000153   000001 236000 2                  LDQ     1
         1 000154   200022 756100                    STQ     @SEVERITY+2,,AUTO
         1 000155   200022 630500                    EPPR0   @SEVERITY+2,,AUTO
         1 000156   000020 631400 xsym               EPPR1   B_VECTNIL+16
         1 000157   000000 701000 xent               TSX1    HFF$DSIZ
         1 000160   000000 011000                    NOP     0

      124     2596    3              IF DSIZ < 4096 THEN DO;

   2596  1 000161   200004 235100                    LDA     DSIZ,,AUTO
         1 000162   010000 115007                    CMPA    4096,DL
         1 000163   000176 603000 1                  TRC     s:2607

      125     2597                      %UNLOCK (G#=EL_BUSY);

   2598  1 000164   000003 630400 2                  EPPR0   3
         1 000165   000017 631400 xsym               EPPR1   B_VECTNIL+15
         1 000166   000000 701000 xent               TSX1    HFC$UNLOCK
         1 000167   000000 011000                    NOP     0

      126     2600    3                 CALL BADRET (%E$BUF2SMALL,4);

   2600  1 000170   000011 236000 2                  LDQ     9
         1 000171   200020 756100                    STQ     @ERRCODE+1,,AUTO
         1 000172   000012 236000 2                  LDQ     10
         1 000173   200017 756100                    STQ     ERROR+4,,AUTO
         1 000174   000714 701000 1                  TSX1    BADRET
         1 000175   000000 011000                    NOP     0

      127     2601    3                 END;

      128     2602        /*E*  ERROR:  TDP-E$BUF2SMALL-0
      129     2603              DESCRIPTION:  The buffer specified in the M$RDSYSLOG fpt is
      130     2604                            smaller than 512 words.
PL6.E3A0      #001=TDP$PMME File=TDP$PMME.:E05TSI                                WED 07/30/97 06:03 Page:24
      131     2605              MESSAGE: M$RDSYSLOG BUFFER LESS THAN 512 WORDS.
      132     2606                                                                           */
      133     2607    2              B$PS0$->BUF=BUF$->BUF;

   2607  1 000176   200006 470500                    LDP0    BUF$,,AUTO
         1 000177   010000 220003                    LDX0    4096,DU
         1 000200   000000 471400 xsym               LDP1    B$PS0$
         1 000201   000140 100540                    MLR     fill='000'O
         1 000202   000000 000010                    ADSC9   0,,PR0                   cn=0,n=*X0
         1 000203   100000 000010                    ADSC9   0,,PR1                   cn=0,n=*X0

      134     2608    2              CALL SSS$CACHEBP;

   2608  1 000204   000002 631400 xsym               EPPR1   B_VECTNIL+2
         1 000205   000000 701000 xent               TSX1    SSS$CACHEBP
         1 000206   000000 011000                    NOP     0

      135     2609    2              IF EL_FIRSTBUF=EL_CURBUF THEN

   2609  1 000207   000000 236000 xsym               LDQ     EL_FIRSTBUF
         1 000210   000000 116000 xsym               CMPQ    EL_CURBUF
         1 000211   000216 601000 1                  TNZ     s:2612

      136     2610    2                 EL_CURBUF=BUF.NXTBUF;

   2610  1 000212   200006 470500                    LDP0    BUF$,,AUTO
         1 000213   000000 235100                    LDA     0,,PR0
         1 000214   000000 755000 xsym               STA     EL_CURBUF
         1 000215   000220 710000 1                  TRA     s:2614

      137     2611    3              ELSE DO INHIBIT;

      138     2612    3                 EL_FULLBUFS=EL_FULLBUFS-1;

   2612  1 000216   000001 336207                    LCQ   ! 1,DL
         1 000217   000000 056200 xsym               ASQ   ! EL_FULLBUFS

PL6.E3A0      #001=TDP$PMME File=TDP$PMME.:E05TSI                                WED 07/30/97 06:03 Page:25
      139     2613    3                 END /* INHIBIT */;

      140     2614    2              EL_FIRSTBUF=BUF.NXTBUF;

   2614  1 000220   200006 470500                    LDP0    BUF$,,AUTO
         1 000221   000000 235100                    LDA     0,,PR0
         1 000222   000000 755000 xsym               STA     EL_FIRSTBUF

      141     2615    2              CALL SSS$CACHE;

   2615  1 000223   000002 631400 xsym               EPPR1   B_VECTNIL+2
         1 000224   000000 701000 xent               TSX1    SSS$CACHE
         1 000225   000000 011000                    NOP     0

      142     2616    2              CALL MME$CVM(%MONWSQ,%WINDOWHI,-1,ERR) ALTRET(BADCVM);

   2616  1 000226   200007 630500                    EPPR0   ERR,,AUTO
         1 000227   200025 450500                    STP0    @SEVERITY+5,,AUTO
         1 000230   000005 236000 2                  LDQ     5
         1 000231   200024 756100                    STQ     @SEVERITY+4,,AUTO
         1 000232   000006 237000 2                  LDAQ    6
         1 000233   200022 757100                    STAQ    @SEVERITY+2,,AUTO
         1 000234   200022 630500                    EPPR0   @SEVERITY+2,,AUTO
         1 000235   000022 631400 xsym               EPPR1   B_VECTNIL+18
         1 000236   000000 701000 xent               TSX1    MME$CVM
         1 000237   000265 702000 1                  TSX2    BADCVM

      143     2617    2              CALL MMD$RSPP(CVMPG,%MONWSQ);

   2617  1 000240   000006 236000 2                  LDQ     6
         1 000241   200023 756100                    STQ     @SEVERITY+3,,AUTO
         1 000242   200005 630500                    EPPR0   CVMPG,,AUTO
         1 000243   200022 450500                    STP0    @SEVERITY+2,,AUTO
         1 000244   200022 630500                    EPPR0   @SEVERITY+2,,AUTO
         1 000245   000020 631400 xsym               EPPR1   B_VECTNIL+16
         1 000246   000000 701000 xent               TSX1    MMD$RSPP
         1 000247   000000 011000                    NOP     0
PL6.E3A0      #001=TDP$PMME File=TDP$PMME.:E05TSI                                WED 07/30/97 06:03 Page:26

      144     2618    2              CALL SSS$CACHEBP;

   2618  1 000250   000002 631400 xsym               EPPR1   B_VECTNIL+2
         1 000251   000000 701000 xent               TSX1    SSS$CACHEBP
         1 000252   000000 011000                    NOP     0

      145     2619    3              DO INHIBIT;

      146     2620    3                 EL_NUMPGS=EL_NUMPGS-1;

   2620  1 000253   000001 336207                    LCQ   ! 1,DL
         1 000254   000000 056200 xsym               ASQ   ! EL_NUMPGS

      147     2621    3                 END;                      /* INHIBIT                            */

      148     2622    2              CALL SSS$CACHE;

   2622  1 000255   000002 631400 xsym               EPPR1   B_VECTNIL+2
         1 000256   000000 701000 xent               TSX1    SSS$CACHE
         1 000257   000000 011000                    NOP     0

      149     2623                   %UNLOCK (G#=EL_BUSY);

   2624  1 000260   000003 630400 2                  EPPR0   3
         1 000261   000017 631400 xsym               EPPR1   B_VECTNIL+15
         1 000262   000000 701000 xent               TSX1    HFC$UNLOCK
         1 000263   000000 011000                    NOP     0

      150     2626    2              RETURN;

   2626  1 000264   000000 702200 xent               TSX2  ! X66_ARET

   2620  1 000265                       BADCVM       null
      151     2627    2   BADCVM:    ;
      152     2628                   %UNLOCK (G#=EL_BUSY);

PL6.E3A0      #001=TDP$PMME File=TDP$PMME.:E05TSI                                WED 07/30/97 06:03 Page:27
   2629  1 000265   000003 630400 2                  EPPR0   3
         1 000266   000017 631400 xsym               EPPR1   B_VECTNIL+15
         1 000267   000000 701000 xent               TSX1    HFC$UNLOCK
         1 000270   000000 011000                    NOP     0

      153     2631    2              CALL BADRET(ERR,4);

   2631  1 000271   000011 236000 2                  LDQ     9
         1 000272   200020 756100                    STQ     @ERRCODE+1,,AUTO
         1 000273   200007 630500                    EPPR0   ERR,,AUTO
         1 000274   200017 450500                    STP0    ERROR+4,,AUTO
         1 000275   000714 701000 1                  TSX1    BADRET
         1 000276   000000 011000                    NOP     0
         1 000277   000644 710000 1                  TRA     s:2748

      154     2632        /**/
      155     2633        /* M$WRSYSLOG */
      156     2634        /**/
      157     2635    2            CASE(1);                       /* M$WRSYSLOG                         */

      158     2636        /*D*  NAME:   M$WRSYSLOG
      159     2637              CALL:   CALL TDP$PMME(1);
      160     2638              DESCRIPTION:    If the size of the entry to be made is not
      161     2639                              greater than the maximum error log entry size
      162     2640                              a call is made to ELA$ERRLOG with the parameters
      163     2641                              specified in the fpt.
      164     2642                                                                           */
      165     2643    2              CALL HFF$DSIZ (1,DSIZ);

   2643  1 000300   200004 631500                    EPPR1   DSIZ,,AUTO
         1 000301   200023 451500                    STP1    @SEVERITY+3,,AUTO
         1 000302   000006 236000 2                  LDQ     6
         1 000303   200022 756100                    STQ     @SEVERITY+2,,AUTO
         1 000304   200022 630500                    EPPR0   @SEVERITY+2,,AUTO
         1 000305   000020 631400 xsym               EPPR1   B_VECTNIL+16
         1 000306   000000 701000 xent               TSX1    HFF$DSIZ
         1 000307   000000 011000                    NOP     0
PL6.E3A0      #001=TDP$PMME File=TDP$PMME.:E05TSI                                WED 07/30/97 06:03 Page:28

      166     2644    3              IF B$PS0$->WRFPT.SIZE*4 > DSIZ THEN DO;

   2644  1 000310   000000 470400 xsym               LDP0    B$PS0$
         1 000311   000002 236100                    LDQ     2,,PR0
         1 000312   000002 736000                    QLS     2
         1 000313   200004 116100                    CMPQ    DSIZ,,AUTO
         1 000314   000321 602000 1                  TNC     s:2654
         1 000315   000321 600000 1                  TZE     s:2654

      167     2645    3                 ERR=%E$INFO2SMALL;

   2645  1 000316   001633 235007                    LDA     923,DL
         1 000317   200007 755100                    STA     ERR,,AUTO

      168     2646        /*E*    ERROR:      TDP-E$INFO2SMALL
      169     2647                MESSAGE: The buffer area passed is smaller than the size of the entry.
      170     2648                MESSAGE1: The area framed by the ENTRY vector of the M$WRSYSLOG
      171     2649                          fpt must be at least as big as the value specified
      172     2650                          for SIZE.
      173     2651        */
      174     2652    3                 GOTO WRALT;

   2652  1 000320   000344 710000 1                  TRA     WRALT

      175     2653    3                 END;
      176     2654    2              CALL ELA$SYSLOG(B$PS0$->WRFPT.TYPE,B$PS1$->WRFPT,B$PS0$->WRFPT.SIZE,

   2654  1 000321   200007 631500                    EPPR1   ERR,,AUTO
         1 000322   200027 451500                    STP1    @SEVERITY+7,,AUTO
         1 000323   000000 236000 xsym               LDQ     B$PS0$
         1 000324   000003 036003                    ADLQ    3,DU
         1 000325   200026 756100                    STQ     @SEVERITY+6,,AUTO
         1 000326   000000 236000 xsym               LDQ     B$PS0$
         1 000327   200025 756100                    STQ     @SEVERITY+5,,AUTO
         1 000330   000002 036003                    ADLQ    2,DU
         1 000331   200024 756100                    STQ     @SEVERITY+4,,AUTO
PL6.E3A0      #001=TDP$PMME File=TDP$PMME.:E05TSI                                WED 07/30/97 06:03 Page:29
         1 000332   000000 236000 xsym               LDQ     B$PS1$
         1 000333   200023 756100                    STQ     @SEVERITY+3,,AUTO
         1 000334   000000 236000 xsym               LDQ     B$PS0$
         1 000335   000001 036003                    ADLQ    1,DU
         1 000336   200022 756100                    STQ     @SEVERITY+2,,AUTO
         1 000337   200022 630500                    EPPR0   @SEVERITY+2,,AUTO
         1 000340   000024 631400 xsym               EPPR1   B_VECTNIL+20
         1 000341   000000 701000 xent               TSX1    ELA$SYSLOG
         1 000342   000344 702000 1                  TSX2    WRALT

      177     2655    2                B$PS0$->WRFPT.MMINHIB,B$PS0$->WRFPT.FILENUM,ERR) ALTRET(WRALT);
      178     2656    2              RETURN;

   2656  1 000343   000000 702200 xent               TSX2  ! X66_ARET

      179     2657
      180     2658    2   WRALT:     B$JIT.ERR='240420400004'O;

   2658  1 000344   000000 236000 0     WRALT        LDQ     0
         1 000345   000000 470400 xsym               LDP0    B$JIT$
         1 000346   000012 756100                    STQ     10,,PR0

      181     2659    2              B$JIT.ERR.CODE=ERR;

   2659  1 000347   200007 236100                    LDQ     ERR,,AUTO
         1 000350   000003 736000                    QLS     3
         1 000351   000012 676100                    ERQ     10,,PR0
         1 000352   377770 376007                    ANQ     131064,DL
         1 000353   000012 656100                    ERSQ    10,,PR0

      182     2660    2              RETURN;

   2660  1 000354   000000 702200 xent               TSX2  ! X66_ARET

      183     2661        /*E*    ERROR:      TDP-E$NTRY2BIG
      184     2662                MESSAGE: System log entries may not exceed 1000 words.
      185     2663        */
PL6.E3A0      #001=TDP$PMME File=TDP$PMME.:E05TSI                                WED 07/30/97 06:03 Page:30
      186     2664        /*E*    ERROR:      TDP-E$SLBUSY
      187     2665                MESSAGE: System log is busy.  Try again later.
      188     2666        */
      189     2667        /*E*    ERROR:      TDP-E$NEEDPAGE
      190     2668                MESSAGE: System log needs a buffer page and can't get it
      191     2669                            right now.
      192     2670        */
      193     2671        /*E*    ERROR:      TDP-E$SLFILE
      194     2672                MESSAGE: System log file number may not exceed 99.
      195     2673        */
      196     2674    2            CASE(2);                       /* M$TDOPEN                           */

      197     2675    2              CALL TDP$OPEN;

   2675  1 000355   000002 631400 xsym               EPPR1   B_VECTNIL+2
         1 000356   000000 701000 xent               TSX1    TDP$OPEN
         1 000357   000000 011000                    NOP     0
         1 000360   000644 710000 1                  TRA     s:2748

      198     2676    2            CASE(3);                       /* M$TDCLOSE                          */

      199     2677    2              CALL TDP$CLOSE;

   2677  1 000361   000002 631400 xsym               EPPR1   B_VECTNIL+2
         1 000362   000000 701000 xent               TSX1    TDP$CLOSE
         1 000363   000000 011000                    NOP     0
         1 000364   000644 710000 1                  TRA     s:2748

      200     2678    2            CASE(4);                       /* M$TDIO                             */

      201     2679    2              CALL TDP$TDIO;

   2679  1 000365   000002 631400 xsym               EPPR1   B_VECTNIL+2
         1 000366   000000 701000 xent               TSX1    TDP$TDIO
         1 000367   000000 011000                    NOP     0
         1 000370   000644 710000 1                  TRA     s:2748

PL6.E3A0      #001=TDP$PMME File=TDP$PMME.:E05TSI                                WED 07/30/97 06:03 Page:31
      202     2680    2            CASE(5);                       /* M$TDREQCPU                         */

      203     2681    3              DO CASE(B$PS0$->FPT$TDREQCPU_V.MODE);

   2681  1 000371   000000 471400 xsym               LDP1    B$PS0$
         1 000372   100000 236100                    LDQ     0,,PR1
         1 000373   000033 772000                    QRL     27
         1 000374   000003 116007                    CMPQ    3,DL
         1 000375   000377 602006 1                  TNC     s:2681+6,QL
         1 000376   000526 710000 1                  TRA     s:2718
         1 000377   000526 710000 1                  TRA     s:2718
         1 000400   000415 710000 1                  TRA     s:2692
         1 000401   000402 710000 1                  TRA     s:2683

      204     2682    3               CASE(2);                    /* MODE=NORMAL                        */

      205     2683    3                 IF S_TDCPUF ~= S_CUN

   2683  1 000402   000000 236000 xsym               LDQ     S_TDCPUF
         1 000403   000406 604000 1                  TMI     s:2685
         1 000404   000000 116000 xsym               CMPQ    S_CUN
         1 000405   000412 600000 1                  TZE     s:2688

      206     2684    4                 THEN DO;

      207     2685    4                    S$CU$->B$U.CPU = 0;    /* FOR NONTDJASSIGN                   */

   2685  1 000406   000000 473400 xsym               LDP3    S$CU$
         1 000407   000000 236003                    LDQ     0,DU
         1 000410   300010 552104                    STBQ    8,'04'O,PR3

      208     2686    4                    RETURN;

   2686  1 000411   000000 702200 xent               TSX2  ! X66_ARET

      209     2687    4                    END;
      210     2688    3                 S_TDCPUF=0;
PL6.E3A0      #001=TDP$PMME File=TDP$PMME.:E05TSI                                WED 07/30/97 06:03 Page:32

   2688  1 000412   000000 450000 xsym               STZ     S_TDCPUF

      211     2689    3                 S_TDCPU#=0;

   2689  1 000413   000000 450000 xsym               STZ     S_TDCPU#

      212     2690    3                 GOTO RESET;               /* RESET DIAG MODE USER               */

   2690  1 000414   000576 710000 1                  TRA     RESET

      213     2691    3               CASE(1);                    /* MODE=DIAG                          */

      214     2692    3                 IF B$PS0$->FPT$TDREQCPU_V.XEQ = 3

   2692  1 000415   100001 236100                    LDQ     1,,PR1
         1 000416   777000 376003                    ANQ     -512,DU
         1 000417   003000 116003                    CMPQ    1536,DU
         1 000420   000456 601000 1                  TNZ     s:2702
         1 000421   100003 236100                    LDQ     3,,PR1
         1 000422   777000 376003                    ANQ     -512,DU
         1 000423   777000 116003                    CMPQ    -512,DU
         1 000424   000456 601000 1                  TNZ     s:2702

      215     2693    3                   AND B$PS0$->FPT$TDREQCPU_V.CPU = 511
      216     2694    4                 THEN DO;                  /* NONTDJASSIGN REQUEST FOR CPU TYPE  */

      217     2695    5                    DO CPU# = S_NSCPU DOWNTO 0;

   2695  1 000425   000000 235000 xsym               LDA     S_NSCPU
         1 000426   200010 755100                    STA     CPU#,,AUTO
         1 000427   000446 710000 1                  TRA     s:2699+2

      218     2696    5                       IF B$PS0$->FPT$TDREQCPU_V.TYPE = S_PTYPE(CPU#)

   2696  1 000430   200010 720100                    LXL0    CPU#,,AUTO
         1 000431   000000 470400 xsym               LDP0    B$PS0$
PL6.E3A0      #001=TDP$PMME File=TDP$PMME.:E05TSI                                WED 07/30/97 06:03 Page:33
         1 000432   000002 236100                    LDQ     2,,PR0
         1 000433   000033 772000                    QRL     27
         1 000434   000000 116010 xsym               CMPQ    S_PTYPE,X0
         1 000435   000444 601000 1                  TNZ     s:2699
         1 000436   000000 235010 xsym               LDA     S_MPSTATE,X0
         1 000437   000002 115007                    CMPA    2,DL
         1 000440   000444 601000 1                  TNZ     s:2699
         1 000441   000000 235010 xsym               LDA     S_STOP,X0
         1 000442   000001 115007                    CMPA    1,DL
         1 000443   000567 601000 1                  TNZ     TDREQCPU_SET

      219     2697    5                         AND S_MPSTATE(CPU#) = 2 AND S_STOP(CPU#) ~= 1
      220     2698    5                       THEN GOTO TDREQCPU_SET;
      221     2699    5                       END;

   2699  1 000444   000001 336007                    LCQ     1,DL
         1 000445   200010 056100                    ASQ     CPU#,,AUTO
         1 000446   200010 235100                    LDA     CPU#,,AUTO
         1 000447   000430 605000 1                  TPL     s:2696

      222     2700    4                    CALL BADRET(%E$NOCPU,4);

   2700  1 000450   000011 236000 2                  LDQ     9
         1 000451   200020 756100                    STQ     @ERRCODE+1,,AUTO
         1 000452   000014 236000 2                  LDQ     12
         1 000453   200017 756100                    STQ     ERROR+4,,AUTO
         1 000454   000714 701000 1                  TSX1    BADRET
         1 000455   000000 011000                    NOP     0

      223     2701    4                    END;

      224     2702    3                 CALL PROC#;               /* GET CPU #                          */

   2702  1 000456   000664 701000 1                  TSX1    PROC#
         1 000457   000000 011000                    NOP     0

      225     2703    3                 IF S_MPSTATE(CPU#) ~= 2 OR S_STOP(CPU#) = 1
PL6.E3A0      #001=TDP$PMME File=TDP$PMME.:E05TSI                                WED 07/30/97 06:03 Page:34

   2703  1 000460   200010 720100                    LXL0    CPU#,,AUTO
         1 000461   000000 235010 xsym               LDA     S_MPSTATE,X0
         1 000462   000002 115007                    CMPA    2,DL
         1 000463   000467 601000 1                  TNZ     s:2704
         1 000464   000000 235010 xsym               LDA     S_STOP,X0
         1 000465   000001 115007                    CMPA    1,DL
         1 000466   000475 601000 1                  TNZ     s:2705

      226     2704    3                 THEN CALL BADRET(%E$CPUSTOPPED,4);

   2704  1 000467   000011 236000 2                  LDQ     9
         1 000470   200020 756100                    STQ     @ERRCODE+1,,AUTO
         1 000471   000016 236000 2                  LDQ     14
         1 000472   200017 756100                    STQ     ERROR+4,,AUTO
         1 000473   000714 701000 1                  TSX1    BADRET
         1 000474   000000 011000                    NOP     0

      227     2705    3                 IF B$PS0$->FPT$TDREQCPU_V.XEQ = 3

   2705  1 000475   000000 470400 xsym               LDP0    B$PS0$
         1 000476   000001 236100                    LDQ     1,,PR0
         1 000477   777000 376003                    ANQ     -512,DU
         1 000500   003000 116003                    CMPQ    1536,DU
         1 000501   000567 600000 1                  TZE     TDREQCPU_SET

      228     2706    3                 THEN GOTO TDREQCPU_SET;   /* NONTDJASSIGN REQUEST FOR CPU PORT  */
      229     2707    4                 ELSE DO;

      230     2708    4                    IF S_TDCPUF ~= 0

   2708  1 000502   000000 235000 xsym               LDA     S_TDCPUF
         1 000503   000522 600000 1                  TZE     s:2713

      231     2709    5                    THEN DO;

      232     2710    5                       IF S_TDCPUF ~= S_CUN OR S_TDCPU# ~= CPU#
PL6.E3A0      #001=TDP$PMME File=TDP$PMME.:E05TSI                                WED 07/30/97 06:03 Page:35

   2710  1 000504   000000 236000 xsym               LDQ     S_TDCPUF
         1 000505   000514 604000 1                  TMI     s:2711
         1 000506   000000 116000 xsym               CMPQ    S_CUN
         1 000507   000514 601000 1                  TNZ     s:2711
         1 000510   000000 236000 xsym               LDQ     S_TDCPU#
         1 000511   000514 604000 1                  TMI     s:2711
         1 000512   200010 116100                    CMPQ    CPU#,,AUTO
         1 000513   000522 600000 1                  TZE     s:2713

      233     2711    5                       THEN CALL BADRET(%E$CPUDIAGERR,4);

   2711  1 000514   000011 236000 2                  LDQ     9
         1 000515   200020 756100                    STQ     @ERRCODE+1,,AUTO
         1 000516   000020 236000 2                  LDQ     16
         1 000517   200017 756100                    STQ     ERROR+4,,AUTO
         1 000520   000714 701000 1                  TSX1    BADRET
         1 000521   000000 011000                    NOP     0

      234     2712    5                       END;

      235     2713    4                    S_TDCPUF = S_CUN;

   2713  1 000522   000000 235000 xsym               LDA     S_CUN
         1 000523   000000 755000 xsym               STA     S_TDCPUF

      236     2714    4                    S_TDCPU# = CPU#;

   2714  1 000524   200010 236100                    LDQ     CPU#,,AUTO
         1 000525   000000 756000 xsym               STQ     S_TDCPU#

      237     2715    4                    END;

      238     2716    3               END;                        /* END MODE CASES                     */

      239     2717        /*                                                                    */
      240     2718    2              IF B$PS0$->FPT$TDREQCPU_V.XEQ >= 1
PL6.E3A0      #001=TDP$PMME File=TDP$PMME.:E05TSI                                WED 07/30/97 06:03 Page:36

   2718  1 000526   000000 470400 xsym               LDP0    B$PS0$
         1 000527   000001 236100                    LDQ     1,,PR0
         1 000530   777000 316003                    CANQ    -512,DU
         1 000531   000576 600000 1                  TZE     RESET

      241     2719    3              THEN DO;

      242     2720    3                 IF S_TDCPUF ~= S_CUN

   2720  1 000532   000000 236000 xsym               LDQ     S_TDCPUF
         1 000533   000536 604000 1                  TMI     s:2721
         1 000534   000000 116000 xsym               CMPQ    S_CUN
         1 000535   000544 600000 1                  TZE     s:2722

      243     2721    3                 THEN CALL BADRET(%E$CPUASSIGNERR,4);

   2721  1 000536   000011 236000 2                  LDQ     9
         1 000537   200020 756100                    STQ     @ERRCODE+1,,AUTO
         1 000540   000022 236000 2                  LDQ     18
         1 000541   200017 756100                    STQ     ERROR+4,,AUTO
         1 000542   000714 701000 1                  TSX1    BADRET
         1 000543   000000 011000                    NOP     0

      244     2722    3                 CALL PROC#;

   2722  1 000544   000664 701000 1                  TSX1    PROC#
         1 000545   000000 011000                    NOP     0

      245     2723    3                 IF S_TDCPU# ~= CPU#

   2723  1 000546   000000 236000 xsym               LDQ     S_TDCPU#
         1 000547   000552 604000 1                  TMI     s:2724
         1 000550   200010 116100                    CMPQ    CPU#,,AUTO
         1 000551   000560 600000 1                  TZE     s:2725

      246     2724    3                 THEN CALL BADRET(%E$CPUASSIGNERR,4);
PL6.E3A0      #001=TDP$PMME File=TDP$PMME.:E05TSI                                WED 07/30/97 06:03 Page:37

   2724  1 000552   000011 236000 2                  LDQ     9
         1 000553   200020 756100                    STQ     @ERRCODE+1,,AUTO
         1 000554   000022 236000 2                  LDQ     18
         1 000555   200017 756100                    STQ     ERROR+4,,AUTO
         1 000556   000714 701000 1                  TSX1    BADRET
         1 000557   000000 011000                    NOP     0

      247     2725    3                 IF B$PS0$->FPT$TDREQCPU_V.XEQ = 2

   2725  1 000560   000000 470400 xsym               LDP0    B$PS0$
         1 000561   000001 236100                    LDQ     1,,PR0
         1 000562   777000 376003                    ANQ     -512,DU
         1 000563   002000 116003                    CMPQ    1024,DU
         1 000564   000567 601000 1                  TNZ     TDREQCPU_SET

      248     2726    3                 THEN S_TDCPUJ = S_CUN;    /* FOR REMAINDER OF JOB               */

   2726  1 000565   000000 235000 xsym               LDA     S_CUN
         1 000566   000000 755000 xsym               STA     S_TDCPUJ

      249     2727    3   TDREQCPU_SET:
      250     2728    3                 S$CU$->B$U.CPU = CPU#+1;

   2728  1 000567   000000 471400 xsym  TDREQCPU_SET LDP1    S$CU$
         1 000570   200010 236100                    LDQ     CPU#,,AUTO
         1 000571   000001 036007                    ADLQ    1,DL
         1 000572   100010 552104                    STBQ    8,'04'O,PR1

      251     2729    3                 B$JIT.IDELTAT = 0;        /* QUANTUM END USER TO GET ON CPU#    */

   2729  1 000573   000000 473400 xsym               LDP3    B$JIT$
         1 000574   300266 450100                    STZ     182,,PR3

      252     2730    3                 RETURN;

   2730  1 000575   000000 702200 xent               TSX2  ! X66_ARET
PL6.E3A0      #001=TDP$PMME File=TDP$PMME.:E05TSI                                WED 07/30/97 06:03 Page:38

      253     2731    3                 END;
      254     2732    3              ELSE DO;

      255     2733    3   RESET:        S$CU$->B$U.CPU=0;

   2733  1 000576   000000 470400 xsym  RESET        LDP0    S$CU$
         1 000577   000000 236003                    LDQ     0,DU
         1 000600   000010 552104                    STBQ    8,'04'O,PR0

      256     2734    3                 S_TDCPUJ=0;

   2734  1 000601   000000 450000 xsym               STZ     S_TDCPUJ

      257     2735    3                 END;

   2735  1 000602   000644 710000 1                  TRA     s:2748

      258     2736        /**/
      259     2737        /* M$IOQ */
      260     2738        /**/
      261     2739    2            CASE(6);

      262     2740    2              CALL NIE$PMME;

   2740  1 000603   000002 631400 xsym               EPPR1   B_VECTNIL+2
         1 000604   000000 701000 xent               TSX1    NIE$PMME
         1 000605   000000 011000                    NOP     0
         1 000606   000644 710000 1                  TRA     s:2748

      263     2741    2            CASE(7);                       /* M$SYSCON                           */

      264     2742    2              CALL TDP$SYSCON(B$PS0$->FPT$SYSCON_V,SYSCON_RESULT,ERROR) ALTRET(
              2742                       SYSCON_ALT);

   2742  1 000607   200013 631500                    EPPR1   ERROR,,AUTO
         1 000610   200024 451500                    STP1    @SEVERITY+4,,AUTO
PL6.E3A0      #001=TDP$PMME File=TDP$PMME.:E05TSI                                WED 07/30/97 06:03 Page:39
         1 000611   200011 633500                    EPPR3   SYSCON_RESULT,,AUTO
         1 000612   200023 453500                    STP3    @SEVERITY+3,,AUTO
         1 000613   000000 236000 xsym               LDQ     B$PS0$
         1 000614   200022 756100                    STQ     @SEVERITY+2,,AUTO
         1 000615   200022 630500                    EPPR0   @SEVERITY+2,,AUTO
         1 000616   000021 631400 xsym               EPPR1   B_VECTNIL+17
         1 000617   000000 701000 xent               TSX1    TDP$SYSCON
         1 000620   000645 702000 1                  TSX2    SYSCON_ALT

      265     2743    2              CALL HFF$DSIZ(1,ERR);

   2743  1 000621   200007 630500                    EPPR0   ERR,,AUTO
         1 000622   200023 450500                    STP0    @SEVERITY+3,,AUTO
         1 000623   000006 236000 2                  LDQ     6
         1 000624   200022 756100                    STQ     @SEVERITY+2,,AUTO
         1 000625   200022 630500                    EPPR0   @SEVERITY+2,,AUTO
         1 000626   000020 631400 xsym               EPPR1   B_VECTNIL+16
         1 000627   000000 701000 xent               TSX1    HFF$DSIZ
         1 000630   000000 011000                    NOP     0

      266     2744    2              IF ERR>=8 THEN B$PS1$->VLR_SYSCON=SYSCON_RESULT;

   2744  1 000631   200007 235100                    LDA     ERR,,AUTO
         1 000632   000010 115007                    CMPA    8,DL
         1 000633   000644 602000 1                  TNC     s:2748

   2744  1 000634   000000 470400 xsym               LDP0    B$PS1$
         1 000635   000100 100500                    MLR     fill='000'O
         1 000636   200011 000010                    ADSC9   SYSCON_RESULT,,AUTO      cn=0,n=8
         1 000637   000000 000010                    ADSC9   0,,PR0                   cn=0,n=8
         1 000640   000644 710000 1                  TRA     s:2748

      267     2745    2            CASE(8);

      268     2746    2              CALL TDM$MIRROR ;

   2746  1 000641   000002 631400 xsym               EPPR1   B_VECTNIL+2
PL6.E3A0      #001=TDP$PMME File=TDP$PMME.:E05TSI                                WED 07/30/97 06:03 Page:40
         1 000642   000000 701000 xent               TSX1    TDM$MIRROR
         1 000643   000000 011000                    NOP     0

      269     2747    2            END /* CASE CODE */;

      270     2748    1           RETURN;

   2748  1 000644   000000 702200 xent               TSX2  ! X66_ARET

   2742  1 000645                       SYSCON_ALT   null
      271     2749    1   SYSCON_ALT: ;
      272     2750    1           IF ERROR.FCG='0'B THEN CALL BADRET(ERROR,4);

   2750  1 000645   200013 220100                    LDX0    ERROR,,AUTO
         1 000646   000655 601000 1                  TNZ     s:2751

   2750  1 000647   000011 236000 2                  LDQ     9
         1 000650   200020 756100                    STQ     @ERRCODE+1,,AUTO
         1 000651   200013 630500                    EPPR0   ERROR,,AUTO
         1 000652   200017 450500                    STP0    ERROR+4,,AUTO
         1 000653   000714 701000 1                  TSX1    BADRET
         1 000654   000000 011000                    NOP     0

      273     2751    1           B$JIT.ERR=ERROR;

   2751  1 000655   200013 236100                    LDQ     ERROR,,AUTO
         1 000656   000000 470400 xsym               LDP0    B$JIT$
         1 000657   000012 756100                    STQ     10,,PR0

      274     2752    1           CALL UDB$PMMEXIT;

   2752  1 000660   000002 631400 xsym               EPPR1   B_VECTNIL+2
         1 000661   000000 701000 xent               TSX1    UDB$PMMEXIT
         1 000662   000000 011000                    NOP     0
         1 000663   000740 710000 1                  TRA     s:2820

      275     2753        /*E*    ERROR:      TDP-E$PRTBSY
PL6.E3A0      #001=TDP$PMME File=TDP$PMME.:E05TSI                                WED 07/30/97 06:03 Page:41
      276     2754                MESSAGE: Device in use.  Will be partitioned when released.
      277     2755        */
      278     2756        /*E*    ERROR:      TDP-E$UPNLDT
      279     2757                MESSAGE: Cannot return that device because there are no LDCTs available
      280     2758        */
      281     2759        /*                                                                   */
      282     2760    1   PROC#:  PROC;

   2760  1 000664   200014 741300       PROC#        STX1  ! ERROR+1,,AUTO

      283     2761    3           DO CPU# = 0 TO S_NSCPU;         /*  SEARCH PORT # TABLE FOR PROC      */

   2761  1 000665   200010 450100                    STZ     CPU#,,AUTO
         1 000666   000700 710000 1                  TRA     s:2763+1

      284     2762    3              IF B$PS0$->FPT$TDREQCPU_V.CPU = S_PORTNR(CPU#) THEN RETURN;

   2762  1 000667   200010 720100                    LXL0    CPU#,,AUTO
         1 000670   000000 470400 xsym               LDP0    B$PS0$
         1 000671   000003 236100                    LDQ     3,,PR0
         1 000672   000033 772000                    QRL     27
         1 000673   000000 116010 xsym               CMPQ    S_PORTNR,X0
         1 000674   000677 601000 1                  TNZ     s:2763

   2762  1 000675   200014 221300                    LDX1  ! ERROR+1,,AUTO
         1 000676   000001 702211                    TSX2  ! 1,X1

      285     2763    3              END;

   2763  1 000677   200010 054100                    AOS     CPU#,,AUTO
         1 000700   000000 236000 xsym               LDQ     S_NSCPU
         1 000701   000667 604000 1                  TMI     s:2762
         1 000702   200010 116100                    CMPQ    CPU#,,AUTO
         1 000703   000667 605000 1                  TPL     s:2762

      286     2764    2           CALL BADRET(%E$NOCPU,4);

PL6.E3A0      #001=TDP$PMME File=TDP$PMME.:E05TSI                                WED 07/30/97 06:03 Page:42
   2764  1 000704   000011 236000 2                  LDQ     9
         1 000705   200020 756100                    STQ     @ERRCODE+1,,AUTO
         1 000706   000014 236000 2                  LDQ     12
         1 000707   200017 756100                    STQ     ERROR+4,,AUTO
         1 000710   000714 701000 1                  TSX1    BADRET
         1 000711   000000 011000                    NOP     0

      287     2765    2   END PROC#;

   2765  1 000712   200014 221300                    LDX1  ! ERROR+1,,AUTO
         1 000713   000001 702211                    TSX2  ! 1,X1

      288     2766        /*E*      ERROR: TDP-E$NOCPU-0
      289     2767                  MESSAGE: Designated CPU is unavailable
      290     2768                  DESCRIPTION: THE SPECIFIED CPU IS NOT CONFIGURED IN THE SYSTEM */
      291     2769        /*E*      ERROR: TDP-E$CPUSTOPPED-0
      292     2770                  MESSAGE: Designated CPU not running
      293     2771                  DESCRIPTION: THE SPECIFIED CPU IS PRESENT BUT IS NOT RUNNING. */
      294     2772        /*E*      ERROR: TDP-E$CPURUNNING-0
      295     2773                  MESSAGE: Designated CPU is running
      296     2774                  DESCRIPTION: THE SPECIFIED CPU IS PRESENT BUT IS RUNNING. */
      297     2775        /*E*      ERROR: TDP-E$CPUMASTER-0
      298     2776                  MESSAGE: Designated CPU is the MASTER
      299     2777                  DESCRIPTION: THE MASTER CPU MAY NOT BE  RELEASED. */
      300     2778        /*E*      ERROR: TDP-E$SCUNOTVALID-0
      301     2779                  MESSAGE: Designated SCU may not be released
      302     2780                  DESCRIPTION: LOW MEMORY MAY NOT BE  RELEASED. */
      303     2781        /*E*      ERROR: TDP-E$SCUPAGESINUSE-0
      304     2782                  MESSAGE: Pages in Designated SCU are in use; SCU not released
      305     2783                  DESCRIPTION: A DIE IS REQUIRE TO RELEASE SCU. */
      306     2784        /*E*      ERROR: TDP-E$SCUCMDNOTVALID-0
      307     2785                  MESSAGE: SCU option is only supported on the DPS 8000
      308     2786                  DESCRIPTION: Use PART/RET PAGE to release or return memory */
      309     2787        /*E*      ERROR: TDP-E$SCUNOTRETURNED-0
      310     2788                  MESSAGE: Designated SCU was not returned
      311     2789                  DESCRIPTION: DPS8000 must be split, STATE SCU command failed*/
      312     2790        /*E*      ERROR: TDP-E$SCUNOTCONFIG-0
PL6.E3A0      #001=TDP$PMME File=TDP$PMME.:E05TSI                                WED 07/30/97 06:03 Page:43
      313     2791                  MESSAGE: Designated SCU is not configured
      314     2792           DESCRIPTION: Operating system was not booted with half released configuration */
      315     2793        /*E*      ERROR: TDP-E$CPUNOTRETURNED-0
      316     2794                  MESSAGE: Designated CPU was not returned
      317     2795                  DESCRIPTION: DPS8000 must be split, STATE CPU command failed*/
      318     2796        /*E*      ERROR: TDP-E$IOMNOTRETURNED-0
      319     2797                  MESSAGE: Designated IOM was not returned
      320     2798                  DESCRIPTION: DPS8000 must be split, STATE command failed*/
      321     2799        /*E*      ERROR: TDP-E$IOMNOTRELEASED-0
      322     2800                  MESSAGE: Designated IOM was not released
      323     2801                  DESCRIPTION: DPS8000 must be split, STATE command failed*/
      324     2802        /*E*      ERROR: TDP-E$CPUNOTRELEASED-0
      325     2803                  MESSAGE: Designated CPU was not released
      326     2804                  DESCRIPTION: DPS8000 must be split, STATE CPU command failed*/
      327     2805        /*E*      ERROR: TDP-E$SCUNOTRELEASED-0
      328     2806                  MESSAGE: Designated SCU was not released
      329     2807                  DESCRIPTION: DPS8000 must be split, STATE SCU command failed*/
      330     2808        /*E*      ERROR: TDP-E$CPUDIAGERR-0
      331     2809                  MESSAGE: Another user or CPU is in diagnostic mode;                 */
      332     2810        /*E*      ERROR: TDP-E$CPUASSIGNERR-0
      333     2811                  MESSAGE: Requested CPU not in diagnostic mode               */
      334     2812    1   BADRET: PROC(ERRCODE,SEVERITY);

   2812  1 000714   200016 741300       BADRET       STX1  ! ERROR+3,,AUTO

      335     2813    2   DCL ERRCODE UBIN(36);
      336     2814    2   DCL SEVERITY UBIN(36);
      337     2815    2           B$JIT$->B$JIT.ERR='240420000000'O;

   2815  1 000715   000001 236000 0                  LDQ     1
         1 000716   000000 470400 xsym               LDP0    B$JIT$
         1 000717   000012 756100                    STQ     10,,PR0

      338     2816    2           B$JIT$->B$JIT.ERR.CODE=ERRCODE;

   2816  1 000720   200017 471500                    LDP1    @ERRCODE,,AUTO
         1 000721   100000 236100                    LDQ     0,,PR1
PL6.E3A0      #001=TDP$PMME File=TDP$PMME.:E05TSI                                WED 07/30/97 06:03 Page:44
         1 000722   000003 736000                    QLS     3
         1 000723   000012 676100                    ERQ     10,,PR0
         1 000724   377770 376007                    ANQ     131064,DL
         1 000725   000012 656100                    ERSQ    10,,PR0

      339     2817    2           B$JIT$->B$JIT.ERR.SEV=SEVERITY;

   2817  1 000726   200020 473500                    LDP3    @SEVERITY,,AUTO
         1 000727   300000 236100                    LDQ     0,,PR3
         1 000730   000012 676100                    ERQ     10,,PR0
         1 000731   000007 376007                    ANQ     7,DL
         1 000732   000012 656100                    ERSQ    10,,PR0

      340     2818    2           CALL UDB$PMMEXIT;

   2818  1 000733   000002 631400 xsym               EPPR1   B_VECTNIL+2
         1 000734   000000 701000 xent               TSX1    UDB$PMMEXIT
         1 000735   000000 011000                    NOP     0

      341     2819    2   END BADRET;

   2819  1 000736   200016 221300                    LDX1  ! ERROR+3,,AUTO
         1 000737   000001 702211                    TSX2  ! 1,X1

      342     2820    1   END TDP$PMME;

   2820  1 000740   000000 702200 xent               TSX2  ! X66_ARET

(unnamed)
 Sect OctLoc
   0     000   240420 400004   240420 000000                                    ........

(unnamed)
 Sect OctLoc
   2     000   000000 001605   000002 006000   000000 006000   000000 006000    ................
   2     004   000000 000074   000027 006000   000003 006000   000004 006000    ...<............
   2     010   000000 001606   000006 006000   000010 006000   000000 001622    ................
PL6.E3A0      #001=TDP$PMME File=TDP$PMME.:E05TSI                                WED 07/30/97 06:03 Page:45
   2     014   000013 006000   000000 001623   000015 006000   000000 001624    ................
   2     020   000017 006000   000000 001625   000021 006000                    ............
      343     2821        %EOD;

PL6.E3A0      #001=TDP$PMME File=TDP$PMME.:E05TSI                                WED 07/30/97 06:03 Page:46
--  Include file information  --

   B$USER.:E05TOU  cannot be made into a system file and is referenced.
   SS_CNTRLD_R.:E05TOU  cannot be made into a system file and is referenced.
   SS_CNTRL_R.:E05TOU  cannot be made into a system file and is referenced.
   SS_SCHED_R.:E05TOU  cannot be made into a system file and is referenced.
   TD$CP6V_C.:E05TOU  is referenced.
   EL_DATA_C.:E05TOU  is referenced.
   HF_LOCK_C.:E05TOU  cannot be made into a system file and is referenced.
   M_INFO_C.:E05TOU  is referenced.
   B_STRINGS_C.:E05TOU  is referenced.
   EL$TABLES.:E05TOU  is referenced.
   EL_DATA_R.:E05TOU  cannot be made into a system file and is referenced.
   B_ERRORS_C.:E05TOU  is referenced.
   B$JIT_C.:E05TOU  is referenced.
      No diagnostics issued in procedure TDP$PMME.
PL6.E3A0      #001=TDP$PMME File=TDP$PMME.:E05TSI                                WED 07/30/97 06:03 Page:47

 **** Variables and constants ****

  ****  Auto variables  ****

  ****  Scalars and arrays  ****
OctLoc.c.b A Datatyp(siz) R M Lvl/name                 OctLoc.c.b A Datatyp(siz) R M Lvl/name

     3-0-0/w PTR         r     1 @CODE                     17-0-0/w PTR         r     1 @ERRCODE
    20-0-0/w PTR         r     1 @SEVERITY                  6-0-0/w PTR         r     1 BUF$
    *0-0-0/w SBIN        r     1 CODE                      10-0-0/w SBIN        r     1 CPU#
     5-0-0/w UBIN        r     1 CVMPG                      4-0-0/w UBIN        r     1 DSIZ
     7-0-0/w UBIN        r     1 ERR                       *0-0-0/w UBIN        r     1 ERRCODE
    13-0-0/b STRC        r     1 ERROR                     *0-0-0/w UBIN        r     1 SEVERITY
    11-0-0/w BIT (72)    r     1 SYSCON_RESULT

  ****  SYMREF variables  ****

  ****  Scalars and arrays  ****
OctLoc.c.b A Datatyp(siz) R M Lvl/name                 OctLoc.c.b A Datatyp(siz) R M Lvl/name

     0-0-0/w PTR         r     1 B$JIT$                     0-0-0/w PTR         r     1 B$PS0$
     0-0-0/w PTR         r     1 B$PS1$                     0-0-0/w PTR         r     1 B$WINDOW$
     0-0-0/w SBIN        r     1 EL_BUSY                    0-0-0/w UBIN        r     1 EL_CURBUF
     0-0-0/w SBIN        r     1 EL_ERRCT                   0-0-0/w UBIN        r     1 EL_FIRSTBUF
     0-0-0/w SBIN        r     1 EL_FULLBUFS                0-0-0/w SBIN        r     1 EL_NUMPGS
     0-0-0/w PTR         r     1 S$CU$                      0-0-0/w UBIN        r     1 S_CUN
     0-0-0/w SBIN        r     1 S_MPSTATE(0:7)
     0-0-0/w UBIN        r     1 S_NSCPU
     0-0-0/w UBIN        r     1 S_PORTNR(0:7)
     0-0-0/w SBIN        r     1 S_PTYPE(0:7)
     0-0-0/w SBIN        r     1 S_STOP(0:7)                0-0-0/w UBIN        r     1 S_TDCPU#
     0-0-0/w SBIN        r     1 S_TDCPUF                   0-0-0/w UBIN        r     1 S_TDCPUJ

  ****  BASED and DCB variables  ****

  ****  Scalars and arrays  ****
OctLoc.c.b A Datatyp(siz) R M Lvl/name                 OctLoc.c.b A Datatyp(siz) R M Lvl/name
PL6.E3A0      #001=TDP$PMME File=TDP$PMME.:E05TSI                                WED 07/30/97 06:03 Page:48

     0-0-0/d STRC(8856)  r     1 B$JIT                      0-0-0/d STRC(576)   r     1 B$U
     0-0-0/w STRC(36864) r     1 BUF                        0-0-0/d STRC(118)   r     1 FPT$SYSCON_V
     0-0-0/d STRC(144)   r     1 FPT$TDREQCPU_V             0-0-0/w BIT (72)    r     1 VLR_SYSCON
     0-0-0/d STRC(144)   r     1 WRFPT


   Procedure TDP$PMME requires 481 words for executable code.
   Procedure TDP$PMME requires 24 words of local(AUTO) storage.
PL6.E3A0      #001=TDP$PMME File=TDP$PMME.:E05TSI                                WED 07/30/97 06:03 Page:49
          *** CROSS REFERENCE LISTING ***
**     DENOTES     IDENTIFIER DEFINITION
<<                 IDENTIFIER'S VALUE SET
>>                 IDENTIFIER'S VALUE USED
<>                 IDENTIFIER SET AND/OR USED
--                 IDENTIFIER REFERENCED
PL6.E3A0      #001=TDP$PMME File=TDP$PMME.:E05TSI                                WED 07/30/97 06:03 Page:50
          MINI XREF LISTING

B$DO.ECCINFO
      2468**DCL      2469--REDEF
B$JIT.ERR
       360**DCL      2658<<ASSIGN   2751<<ASSIGN   2815<<ASSIGN
B$JIT.ERR.CODE
       361**DCL      2659<<ASSIGN   2816<<ASSIGN
B$JIT.ERR.MID
       361**DCL       361--REDEF
B$JIT.ERR.SEV
       361**DCL      2817<<ASSIGN
B$JIT.IDELTAT
       454**DCL      2729<<ASSIGN
B$JIT.PNR
       455**DCL       455--REDEF
B$JIT$
        39**DCL       355--IMP-PTR  2658>>ASSIGN   2659>>ASSIGN   2729>>ASSIGN   2751>>ASSIGN   2815>>ASSIGN
      2816>>ASSIGN   2817>>ASSIGN
B$PS0$
       464**DCL      2607>>ASSIGN   2644>>IF       2654>>CALL     2654>>CALL     2654>>CALL     2654>>CALL
      2681>>DOCASE   2692>>IF       2692>>IF       2696>>IF       2705>>IF       2718>>IF       2725>>IF
      2742>>CALL     2762>>IF
B$PS1$
       465**DCL      2654>>CALL     2744>>ASSIGN
B$U.CPU
      2433**DCL      2685<<ASSIGN   2728<<ASSIGN   2733<<ASSIGN
B$U.MISC
      2447**DCL      2448--REDEF
B$USER.MISC
      2523**DCL      2524--REDEF
B$WINDOW$
      1934**DCL      2581>>ASSIGN
BADCVM
PL6.E3A0      #001=TDP$PMME File=TDP$PMME.:E05TSI                                WED 07/30/97 06:03 Page:51
      2620**LABEL    2580--CALLALT  2585--CALLALT  2616--CALLALT
BADRET
      2812**PROC     2569--CALL     2592--CALL     2600--CALL     2631--CALL     2700--CALL     2704--CALL
      2711--CALL     2721--CALL     2724--CALL     2750--CALL     2764--CALL
BUF
      1932**DCL      2607<<ASSIGN   2607>>ASSIGN
BUF.COUNT
      1932**DCL      2583>>IF
BUF.NXTBUF
      1932**DCL      2610>>ASSIGN   2614>>ASSIGN
BUF$
      1930**DCL      1932--IMP-PTR  2581<<ASSIGN   2583>>IF       2607>>ASSIGN   2610>>ASSIGN   2614>>ASSIGN
CODE
        19**DCL        15--PROC     2555>>DOCASE
CPU#
      2537**DCL      2695<<DOINDEX  2696>>IF       2696>>IF       2696>>IF       2703>>IF       2703>>IF
      2710>>IF       2714>>ASSIGN   2723>>IF       2728>>ASSIGN   2761<<DOINDEX  2762>>IF
CVMPG
      1606**DCL      2578<<ASSIGN   2580<>CALL     2617<>CALL
DSIZ
      1593**DCL      2595<>CALL     2596>>IF       2643<>CALL     2644>>IF
ELA$SYSLOG
        29**DCL-ENT  2654--CALL
EL_BUSY
      1604**DCL      2576<>CALL     2590<>CALL     2598<>CALL     2624<>CALL     2629<>CALL
EL_CURBUF
      1605**DCL      2583>>IF       2609>>IF       2610<<ASSIGN
EL_ERRCT
      1605**DCL      2567<<ASSIGN   2587<<ASSIGN
EL_FIRSTBUF
      1604**DCL      2566>>IF       2578>>ASSIGN   2583>>IF       2609>>IF       2614<<ASSIGN
EL_FULLBUFS
      1604**DCL      2612<<ASSIGN   2612>>ASSIGN
EL_NUMPGS
      1604**DCL      2620<<ASSIGN   2620>>ASSIGN
ERR
PL6.E3A0      #001=TDP$PMME File=TDP$PMME.:E05TSI                                WED 07/30/97 06:03 Page:52
      2218**DCL      2580<>CALL     2585<>CALL     2616<>CALL     2631<>CALL     2645<<ASSIGN   2654<>CALL
      2659>>ASSIGN   2743<>CALL     2744>>IF
ERRCODE IN PROCEDURE BADRET
      2813**DCL      2812--PROC     2816>>ASSIGN
ERROR
      2549**DCL      2742<>CALL     2750<>CALL     2751>>ASSIGN
ERROR.FCG
      2550**DCL      2750>>IF
FPT$SYSCON_V
      2544**DCL      2742<>CALL
FPT$SYSCON_V.IOM
      2544**DCL      2544--REDEF    2544--REDEF
FPT$TDREQCPU_V.CPU
      2539**DCL      2692>>IF       2762>>IF
FPT$TDREQCPU_V.MODE
      2539**DCL      2681>>DOCASE
FPT$TDREQCPU_V.TYPE
      2539**DCL      2696>>IF
FPT$TDREQCPU_V.XEQ
      2539**DCL      2692>>IF       2705>>IF       2718>>IF       2725>>IF
HFC$LOCK
      2217**DCL-ENT  2576--CALL
HFC$UNLOCK
      2217**DCL-ENT  2590--CALL     2598--CALL     2624--CALL     2629--CALL
HFF$DSIZ
        33**DCL-ENT  2595--CALL     2643--CALL     2743--CALL
MMD$RSPP
        31**DCL-ENT  2617--CALL
MME$CVM
        30**DCL-ENT  2580--CALL     2585--CALL     2616--CALL
NIE$PMME
        28**DCL-ENT  2740--CALL
PROC#
      2760**PROC     2702--CALL     2722--CALL
RESET
      2733**LABEL    2690--GOTO
PL6.E3A0      #001=TDP$PMME File=TDP$PMME.:E05TSI                                WED 07/30/97 06:03 Page:53
S$CU$
      2534**DCL      2685>>ASSIGN   2728>>ASSIGN   2733>>ASSIGN
SEVERITY IN PROCEDURE BADRET
      2814**DCL      2812--PROC     2817>>ASSIGN
SSS$CACHE
        34**DCL-ENT  2568--CALL     2579--CALL     2584--CALL     2588--CALL     2594--CALL     2615--CALL
      2622--CALL
SSS$CACHEBP
        35**DCL-ENT  2565--CALL     2582--CALL     2586--CALL     2608--CALL     2618--CALL
SYSCON_ALT
      2742**LABEL    2742--CALLALT
SYSCON_RESULT
      2547**DCL      2742<>CALL     2744>>ASSIGN
S_CUN
      2316**DCL      2683>>IF       2710>>IF       2713>>ASSIGN   2720>>IF       2726>>ASSIGN
S_MPSTATE
      2302**DCL      2696>>IF       2703>>IF
S_NSCPU
      2303**DCL      2695>>DOINDEX  2761>>DOINDEX
S_PORTNR
      2302**DCL      2762>>IF
S_PTYPE
      2303**DCL      2696>>IF
S_STOP
      2302**DCL      2696>>IF       2703>>IF
S_TDCPU#
      2304**DCL      2689<<ASSIGN   2710>>IF       2714<<ASSIGN   2723>>IF
S_TDCPUF
      2304**DCL      2683>>IF       2688<<ASSIGN   2708>>IF       2710>>IF       2713<<ASSIGN   2720>>IF
S_TDCPUJ
      2304**DCL      2726<<ASSIGN   2734<<ASSIGN
TDM$MIRROR
        23**DCL-ENT  2746--CALL
TDP$CLOSE
        25**DCL-ENT  2677--CALL
TDP$OPEN
PL6.E3A0      #001=TDP$PMME File=TDP$PMME.:E05TSI                                WED 07/30/97 06:03 Page:54
        24**DCL-ENT  2675--CALL
TDP$SYSCON
        27**DCL-ENT  2742--CALL
TDP$TDIO
        26**DCL-ENT  2679--CALL
TDREQCPU_SET
      2728**LABEL    2698--GOTO     2706--GOTO
UDB$PMMEXIT
        32**DCL-ENT  2752--CALL     2818--CALL
VLR_SYSCON
      2548**DCL      2744<<ASSIGN
WRALT
      2658**LABEL    2652--GOTO     2654--CALLALT
WRFPT
      2270**DCL      2654<>CALL
WRFPT.FILENUM
      2270**DCL      2654<>CALL
WRFPT.MMINHIB
      2270**DCL      2654<>CALL
WRFPT.SIZE
      2270**DCL      2644>>IF       2654<>CALL
WRFPT.TYPE
      2270**DCL      2654<>CALL

PL6.E3A0      #002=TDP$CLOSE File=TDP$PMME.:E05TSI                               WED 07/30/97 06:03 Page:55
      344        1        /*M* TDP$CLOSE - M$TDCLOSE PMME HANDLER */
      345        2        /*T***********************************************************/
      346        3        /*T*                                                         */
      347        4        /*T* Copyright (c) Bull HN Information Systems Inc., 1997    */
      348        5        /*T*                                                         */
      349        6        /*T***********************************************************/
      350        7        /**/
      351        8        TDP$CLOSE: PROC;
      352        9        /*
      353       10                Includes
      354       11        */
      355       12        %INCLUDE                        B$JIT ;
      356      615        %INCLUDE                        B$MAP ;
      357      714        %INCLUDE                        B$USER ;
      358      930        %INCLUDE                        B_STRINGS_C ;
      359     1059        %INCLUDE                        CP_6_SUBS ;
      360     1599        %INCLUDE                        F$DCBM ;
      361     1658        %INCLUDE                        HF_LOCK_C ;
      362     1672        %INCLUDE                        KI_DATA_R ;
      363     1698        %INCLUDE                        KI_MACROS_C ;
      364     2306        %INCLUDE                        M_INFO_C ;
      365     2446        %INCLUDE                        NI_DATA_C ;
      366     2559        %INCLUDE                        NI_DATA_R ;
      367     2996        %INCLUDE                        NI_MACROS_C ;
      368     3263        %INCLUDE                        N_FC_C ;
      369     3300        %INCLUDE                        SS_SCHED_C ;
      370     3533        %INCLUDE                        TD_ERRORS_C ;
      371     3616        /*
      372     3617                Entries
      373     3618        */
      374     3619    1   DCL 1 FMB$IOSPIN                ENTRY ;
      375     3620    1   DCL 1 FSA$FSP                   ENTRY(2) ALTRET ;
      376     3621    1   DCL 1 NIQ$GET                   ENTRY (1) ALTRET ;
      377     3622    1   DCL 1 NIO$QUE                   ENTRY (1) ALTRET ;
      378     3623    1   DCL 1 MMS$VREL                  ENTRY(2) ALTRET ;
      379     3624    1   DCL 1 NIW$LDFW                  ENTRY (2) ALTRET ;
      380     3625    1   DCL 1 NIW$MPCSTART              ENTRY(1) ;
PL6.E3A0      #002=TDP$CLOSE File=TDP$PMME.:E05TSI                               WED 07/30/97 06:03 Page:56
      381     3626    1   DCL 1 SSR$REG                   ENTRY(3) ALTRET ;
      382     3627    1   DCL 1 TDU$FINDPATH              ENTRY(6) ALTRET ;
      383     3628        /*
      384     3629                Symrefs
      385     3630        */
      386     3631    1   DCL 1 B$CPGT1$                  PTR SYMREF ;
      387     3632    1   DCL 1 B$JIT$                    PTR SYMREF ;
      388     3633    1   DCL 1 B$PS0$                    PTR SYMREF ;
      389     3634        %B$USERREFS ;
      390     3638    1   DCL 1 SL_MF(0:3)                SBIN SYMREF ;
      391     3639    1   DCL 1 TD_RELEASE_IDCW           BIT(36) SYMREF ;
      392     3640        /*
      393     3641                Auto
      394     3642        */
      395     3643    1   DCL 1 CPT$                      PTR ALIGNED ;
      396     3644    1   DCL 1 DCB$                      PTR ALIGNED ;
      397     3645    1   DCL 1 DCT$                      PTR ALIGNED ;
      398     3646    1   DCL 1 DQH$                      PTR ALIGNED ;
      399     3647    1   DCL 1 ERRCODE                   UBIN ALIGNED ;
      400     3648    1   DCL 1 FEI$                      PTR ALIGNED ;
      401     3649    1   DCL 1 I                         SBIN ALIGNED ;
      402     3650    1   DCL 1 IOS$                      PTR ALIGNED ;
      403     3651    1   DCL 1 MPC$                      PTR ALIGNED ;
      404     3652    1   DCL 1 SQH$                      PTR ALIGNED ;
      405     3653    1   DCL 1 REQ$                      PTR ALIGNED ;
      406     3654    1   DCL 1 X                         SBIN ALIGNED ;
      407     3655        /*
      408     3656                Based
      409     3657        */
      410     3658        %F$DCB                          ( DCBN=FDCB,     BASED="BASED(DCB$)"   ) ;
      411     3715        %NI$DCT                         ( NAME=DCT,      STCLASS=BASED         ) ;
      412     3763        %NI$DQH                         ( NAME=DQH,      STCLASS=BASED         ) ;
      413     3786        %KI$FEI                         (                STCLASS="BASED(FEI$)" ) ;
      414     3870        %NI$EXTST                       ( NAME=NI$EXTST, STCLASS=BASED         ) ;
      415     3904    1   DCL 1 PBASE$                    PTR BASED ;
      416     3905        %N$REQ                          ( NAME=REQ,      STCLASS="BASED(REQ$)" ) ;
      417     3963        %NI$SQH                         ( NAME=SQH,      STCLASS="BASED(SQH$)" ) ;
PL6.E3A0      #002=TDP$CLOSE File=TDP$PMME.:E05TSI                               WED 07/30/97 06:03 Page:57
      418     3976        /*
      419     3977                Constants
      420     3978        */
      421     3979        %EQU FPMC#=%BINBIT(FPMC,18) ;
      422     3980        %EJECT ;
PL6.E3A0      #002=TDP$CLOSE File=TDP$PMME.:E05TSI                               WED 07/30/97 06:03 Page:58
      423     3981    1           DCB$=B$JIT.DCB$;
      424     3982    2           IF FDCB.FUN# = %TD_TEST_MCA THEN DO;
      425     3983    2              CALL TDU$FINDPATH(FDCB.DEVADR,'0'B,DCT$,SQH$,DQH$,MPC$) ALTRET(TDNODEV);
      426     3984    3              IF DCT$->DCT.MCA.USER# ~= B$JIT.USER THEN DO;
      427     3985    3                 ERRCODE=%E$TDMCANOTUSER;
      428     3986    3                 GOTO BADRET;
      429     3987    3                 END;
      430     3988    2              DCT$->DCT.MCA.USER# = 0;
      431     3989                   %LOCK(G#=SQH.GATE);
      432     3992    3              IF NOT DCT$->DCT.MCA.RESERVED THEN DO;
      433     3993                      %UNLOCK(G#=SQH.GATE);
      434     3996    3                 ERRCODE=%E$TDMCANOTRESERVED;
      435     3997    3                 GOTO BADRET;
      436     3998    3                 END;
      437     3999    2              DCT$->DCT.MCA.RESERVED = '0'B;
      438     4000                   %UNLOCK(G#=SQH.GATE);
      439     4003    2              END;
      440     4004    2           IF FDCB.ASN#~=%T@D# THEN DO;
      441     4005    2              ERRCODE=%E$TDNOTDCB;
      442     4006    2   BADRET:
      443     4007    2              B$JIT.ERR='240420000000'O;
      444     4008    2              B$JIT.ERR.CODE=ERRCODE;
      445     4009    2              B$JIT.ERR.SEV=4;
      446     4010    2              RETURN;
      447     4011    2              END;
      448     4012    2           IF NOT FDCB.FCD# THEN DO;
      449     4013    2              ERRCODE=%E$TDNOTOPEN;
      450     4014    2              GOTO BADRET;
      451     4015    2              END;
      452     4016    2           IF FDCB.FCN.CNT(0)~=0 THEN DO;
      453     4017    2              FDCB.WAIT=0;
      454     4018    2              CALL FMB$IOSPIN;
      455     4019    2              END;
      456     4020    2           IF FDCB.FCN.CNT(1)~=0 THEN DO;
      457     4021    2              FDCB.WAIT=1;
      458     4022    2              CALL FMB$IOSPIN;
      459     4023    2              END;
PL6.E3A0      #002=TDP$CLOSE File=TDP$PMME.:E05TSI                               WED 07/30/97 06:03 Page:59
      460     4024    1           MPC$=FDCB.MPC$;
      461     4025    2           IF FDCB.FUN#=%TD_TEST_FEP THEN DO;
      462     4026    2              FEI$ = KI$FEI$(FDCB.DEVADR.DVN#);
      463     4027    2              CALL MMS$VREL(KI$FEI.FEWSQ ,KI$FEI.BD$ );
      464     4028    2              FDCB.DQH$->DQH.USER#=0;
      465     4029    2              END;
      466     4030    2           ELSE DO;
      467     4031    2              FDCB.DCT$->DCT.STATUS.TND=0;
      468     4032    2              FDCB.DCT$->DCT.SPEVENT=0;
      469     4033    2              END;
      470     4034    1           FDCB.DQH$->DQH.STATUS.TND=0;
      471     4035    2           DO CASE(FDCB.FUN#);
      472     4036    2            CASE(%TD_TEST_ITR);
      473     4037    2              MPC$->DCT.STATUS.TND=0;
      474     4038    2              MPC$->DCT.DFLG.MPCSUSPENDED='0'B;
      475     4039    2              CALL NIW$LDFW(MPC$->DCT,'0'B);
      476     4040    2            CASE(%TD_TEST_MDR);
      477     4041    2              MPC$->DCT.DFLG.MPCSTOP='1'B;
      478     4042    2              SQH$=MPC$->DCT.SQH$;
      479     4043    3              DO I=0 TO 1;
      480     4044    4                 IF SQH.MPC$(I)=MPC$ THEN DO;
      481     4045    4                    CALL NIW$MPCSTART(SQH.MPC$(I)->DCT);
      482     4046    5                    IF SQH.MPC$(I)->DCT.MPC.ALTMPCX~=0 THEN DO;
      483     4047    5                       CALL NIW$MPCSTART(N$DCT$(SQH.MPC$(I)->DCT.MPC.ALTMPCX)->DCT);
      484     4048    5                       END;
      485     4049    4                    END;
      486     4050    3                 END;
      487     4051    3              IF MPC$->DCT.MPC.TYPE=%DV_LP THEN DO;
      488     4052    3                 CALL NIQ$GET(REQ$);
      489     4053    3                 REQ.FC=%N_RESET;
      490     4054    3                 REQ.OPFLG=%(OP_USER|OP_WAIT);
      491     4055    3                 REQ.DCB$=DCB$;
      492     4056    3                 REQ.DLA.DCTX=MPC$->DCT.DCTX;
      493     4057    3                 CALL NIO$QUE(REQ);
      494     4058    3                 END;
      495     4059    2              MPC$->DCT.STATUS.TND=0;
      496     4060    3              IF MPC$->DCT.DFLG.MPCSUSPENDED THEN DO;
PL6.E3A0      #002=TDP$CLOSE File=TDP$PMME.:E05TSI                               WED 07/30/97 06:03 Page:60
      497     4061    3                 MPC$->DCT.DFLG.MPCSUSPENDED='0'B;
      498     4062    3                 CALL NIQ$GET(REQ$);
      499     4063    3                 REQ.DLA.DCTX=MPC$->DCT.DCTX;
      500     4064    3                 REQ.BUFSIZE=4;
      501     4065    3                 REQ.FC=%N_DCWLIST;
      502     4066    3                 REQ.OPFLG=OP_USER | OP_BPF | OP_WAIT;
      503     4067    3                 REQ.USER#=B$JIT.USER;
      504     4068    3                 REQ.DCB$=DCB$;
      505     4069    3                 REQ.BUF$=ADDR(TD_RELEASE_IDCW);
      506     4070    3                 CALL NIO$QUE(REQ);
      507     4071    3                 END/* IF SUSPENDED */;
      508     4072    2            END/* CASE TEST# */;
      509     4073    1           FDCB.DCT$=ADDR(NIL);
      510     4074    1           FDCB.DQH$=ADDR(NIL);
      511     4075    1           FDCB.MPC$=ADDR(NIL);
      512     4076    1           IF FDCB.TDEXTST$ ~= ADDR(NIL) THEN /* NOT SET UP FOR FEPS             */
      513     4077    1              CALL FSA$FSP(SIZEW(NI$EXTST),FDCB.TDEXTST$);
      514     4078    1           FDCB.TDEXTST$=ADDR(NIL);
      515     4079    1           FDCB.CFU$ = ADDR(NIL);
      516     4080    1           FDCB.FCI#=FDCB.FCD#;
      517     4081    1           FDCB.FCD#='0'B;
      518     4082    1           RETURN;
      519     4083    1   TDNODEV:
      520     4084    1           ERRCODE = %E$TDNODEV;
      521     4085    1           GOTO BADRET;
      522     4086    1   END TDP$CLOSE;
      523     4087        %EOD;

PL6.E3A0      #002=TDP$CLOSE File=TDP$PMME.:E05TSI                               WED 07/30/97 06:03 Page:61
--  Include file information  --

   TD_ERRORS_C.:E05TOU  is referenced.
   SS_SCHED_C.:E05TOU  is referenced.
   N_FC_C.:E05TOU  is referenced.
   NI_MACROS_C.:E05TOU  cannot be made into a system file and is referenced.
   NI$TABLES.:E05TOU  is referenced.
   N$REQ.:E05TOU  is referenced.
   NI_DATA_R.:E05TOU  cannot be made into a system file and is referenced.
   NI_DATA_C.:E05TOU  is referenced.
   M_INFO_C.:E05TOU  is referenced.
   KI_MACROS_C.:E05TOU  is referenced.
   KI_DATA_R.:E05TOU  cannot be made into a system file and is referenced.
   HF_LOCK_C.:E05TOU  cannot be made into a system file and is referenced.
   F$DCBM.:E05TOU  is referenced.
   CP_6_SUBS.:E05TOU  is referenced.
   B_STRINGS_C.:E05TOU  is referenced.
   B$USER.:E05TOU  cannot be made into a system file and is referenced.
   B$MAP.:E05TOU  cannot be made into a system file and is referenced.
   B$JIT_C.:E05TOU  is referenced.
   B$JIT.:E05TOU  cannot be made into a system file and is referenced.
      No diagnostics issued in procedure TDP$CLOSE.

   Procedure TDP$CLOSE requires 299 words for executable code.
   Procedure TDP$CLOSE requires 22 words of local(AUTO) storage.

PL6.E3A0      #002=TDP$CLOSE File=TDP$PMME.:E05TSI                               WED 07/30/97 06:03 Page:62

 Object Unit name= TDP$CLOSE                                  File name= TDP$PMME.:E05TOU
 UTS= JUL 30 '97 06:03:59.24 WED                              Compiler= PL-6/E31         Sev=      00
 SharedLib= :SHARED_SYSTEM                                    Alt SharedLib=


    ****  Control sections  ****

 Sect   Type Bound  Init  Size OctSiz  Section name(segment info)
    0  RoData even  UTS      1      1  TDP$CLOSE
    1   Proc  even  none   299    453  TDP$CLOSE
    2  RoData even  none    10     12  TDP$CLOSE

    ****  Entry defs  ****

                              Check   Calling
                             calling  sequence
  Sect OctLoc Primary Altret sequence   type   Parms  Name
     1      0   yes            yes      Std        0  TDP$CLOSE

  ****  Entry refs  ****

         Check        Calling
        calling       sequence
Altret sequence SRef   type   Args  Name
 yes     yes           Std       6 TDU$FINDPATH
         yes           Std       1 HFC$UNLOCK
         yes           Std       0 FMB$IOSPIN
 yes     yes           Std       1 NIO$QUE
         yes           Std       1 HFC$LOCK
 yes     yes           Std       2 MMS$VREL
 yes     yes           Std       1 NIQ$GET
 yes     yes           Std       2 NIW$LDFW
 yes     yes           Std       2 FSA$FSP
         yes           Std       1 NIW$MPCSTART
                       nStd      0 X66_AUTO_0
                       Std       0 B_CONSPOOL_D
                       nStd      0 X66_ARET
PL6.E3A0      #002=TDP$CLOSE File=TDP$PMME.:E05TSI                               WED 07/30/97 06:03 Page:63

  ****  Data refs  ****

  Flags:  r = read only, s = secondary
Flgs Name                             Flgs Name                             Flgs Name
     KI_FEI$$                              N$DCT$$                               N$FQ$
     NI$FQ$                                NI$IBUF$                              NI$RP$
     B$JIT$                                TD_RELEASE_IDCW                       B_VECTNIL

  ****  Segment refs  ****

  Flags:  r = read only, s = secondary
Flgs Name                             Flgs Name                             Flgs Name
     ISSID
PL6.E3A0      #002=TDP$CLOSE File=TDP$PMME.:E05TSI                               WED 07/30/97 06:03 Page:64


      344        1        /*M* TDP$CLOSE - M$TDCLOSE PMME HANDLER */
      345        2        /*T***********************************************************/
      346        3        /*T*                                                         */
      347        4        /*T* Copyright (c) Bull HN Information Systems Inc., 1997    */
      348        5        /*T*                                                         */
      349        6        /*T***********************************************************/
      350        7        /**/
      351        8        TDP$CLOSE: PROC;

      8  1 000000   000000 700200 xent  TDP$CLOSE    TSX0  ! X66_AUTO_0
         1 000001   000026 000000                    ZERO    22,0

      352        9        /*
      353       10                Includes
      354       11        */
      355       12        %INCLUDE                        B$JIT ;
      356      615        %INCLUDE                        B$MAP ;
      357      714        %INCLUDE                        B$USER ;
      358      930        %INCLUDE                        B_STRINGS_C ;
      359     1059        %INCLUDE                        CP_6_SUBS ;
      360     1599        %INCLUDE                        F$DCBM ;
      361     1658        %INCLUDE                        HF_LOCK_C ;
      362     1672        %INCLUDE                        KI_DATA_R ;
      363     1698        %INCLUDE                        KI_MACROS_C ;
      364     2306        %INCLUDE                        M_INFO_C ;
      365     2446        %INCLUDE                        NI_DATA_C ;
      366     2559        %INCLUDE                        NI_DATA_R ;
      367     2996        %INCLUDE                        NI_MACROS_C ;
      368     3263        %INCLUDE                        N_FC_C ;
      369     3300        %INCLUDE                        SS_SCHED_C ;
      370     3533        %INCLUDE                        TD_ERRORS_C ;
      371     3616        /*
      372     3617                Entries
      373     3618        */
      374     3619    1   DCL 1 FMB$IOSPIN                ENTRY ;
      375     3620    1   DCL 1 FSA$FSP                   ENTRY(2) ALTRET ;
PL6.E3A0      #002=TDP$CLOSE File=TDP$PMME.:E05TSI                               WED 07/30/97 06:03 Page:65
      376     3621    1   DCL 1 NIQ$GET                   ENTRY (1) ALTRET ;
      377     3622    1   DCL 1 NIO$QUE                   ENTRY (1) ALTRET ;
      378     3623    1   DCL 1 MMS$VREL                  ENTRY(2) ALTRET ;
      379     3624    1   DCL 1 NIW$LDFW                  ENTRY (2) ALTRET ;
      380     3625    1   DCL 1 NIW$MPCSTART              ENTRY(1) ;
      381     3626    1   DCL 1 SSR$REG                   ENTRY(3) ALTRET ;
      382     3627    1   DCL 1 TDU$FINDPATH              ENTRY(6) ALTRET ;
      383     3628        /*
      384     3629                Symrefs
      385     3630        */
      386     3631    1   DCL 1 B$CPGT1$                  PTR SYMREF ;
      387     3632    1   DCL 1 B$JIT$                    PTR SYMREF ;
      388     3633    1   DCL 1 B$PS0$                    PTR SYMREF ;
      389     3634        %B$USERREFS ;
      390     3638    1   DCL 1 SL_MF(0:3)                SBIN SYMREF ;
      391     3639    1   DCL 1 TD_RELEASE_IDCW           BIT(36) SYMREF ;
      392     3640        /*
      393     3641                Auto
      394     3642        */
      395     3643    1   DCL 1 CPT$                      PTR ALIGNED ;
      396     3644    1   DCL 1 DCB$                      PTR ALIGNED ;
      397     3645    1   DCL 1 DCT$                      PTR ALIGNED ;
      398     3646    1   DCL 1 DQH$                      PTR ALIGNED ;
      399     3647    1   DCL 1 ERRCODE                   UBIN ALIGNED ;
      400     3648    1   DCL 1 FEI$                      PTR ALIGNED ;
      401     3649    1   DCL 1 I                         SBIN ALIGNED ;
      402     3650    1   DCL 1 IOS$                      PTR ALIGNED ;
      403     3651    1   DCL 1 MPC$                      PTR ALIGNED ;
      404     3652    1   DCL 1 SQH$                      PTR ALIGNED ;
      405     3653    1   DCL 1 REQ$                      PTR ALIGNED ;
      406     3654    1   DCL 1 X                         SBIN ALIGNED ;
      407     3655        /*
      408     3656                Based
      409     3657        */
      410     3658        %F$DCB                          ( DCBN=FDCB,     BASED="BASED(DCB$)"   ) ;
      411     3715        %NI$DCT                         ( NAME=DCT,      STCLASS=BASED         ) ;
      412     3763        %NI$DQH                         ( NAME=DQH,      STCLASS=BASED         ) ;
PL6.E3A0      #002=TDP$CLOSE File=TDP$PMME.:E05TSI                               WED 07/30/97 06:03 Page:66
      413     3786        %KI$FEI                         (                STCLASS="BASED(FEI$)" ) ;
      414     3870        %NI$EXTST                       ( NAME=NI$EXTST, STCLASS=BASED         ) ;
      415     3904    1   DCL 1 PBASE$                    PTR BASED ;
      416     3905        %N$REQ                          ( NAME=REQ,      STCLASS="BASED(REQ$)" ) ;
      417     3963        %NI$SQH                         ( NAME=SQH,      STCLASS="BASED(SQH$)" ) ;
      418     3976        /*
      419     3977                Constants
      420     3978        */
      421     3979        %EQU FPMC#=%BINBIT(FPMC,18) ;
      422     3980        %EJECT ;
PL6.E3A0      #002=TDP$CLOSE File=TDP$PMME.:E05TSI                               WED 07/30/97 06:03 Page:67
      423     3981    1           DCB$=B$JIT.DCB$;

   3981  1 000002   000000 470400 xsym               LDP0    B$JIT$
         1 000003   000232 236100                    LDQ     154,,PR0
         1 000004   200004 756100                    STQ     DCB$,,AUTO

      424     3982    2           IF FDCB.FUN# = %TD_TEST_MCA THEN DO;

   3982  1 000005   200004 471500                    LDP1    DCB$,,AUTO
         1 000006   100032 236100                    LDQ     26,,PR1
         1 000007   000777 376003                    ANQ     511,DU
         1 000010   000007 116003                    CMPQ    7,DU
         1 000011   000072 601000 1                  TNZ     s:4004

      425     3983    2              CALL TDU$FINDPATH(FDCB.DEVADR,'0'B,DCT$,SQH$,DQH$,MPC$) ALTRET(TDNODEV);

   3983  1 000012   200013 633500                    EPPR3   MPC$,,AUTO
         1 000013   200025 453500                    STP3    REQ$+8,,AUTO
         1 000014   200006 634500                    EPPR4   DQH$,,AUTO
         1 000015   200024 454500                    STP4    REQ$+7,,AUTO
         1 000016   200014 635500                    EPPR5   SQH$,,AUTO
         1 000017   200023 455500                    STP5    REQ$+6,,AUTO
         1 000020   200005 636500                    EPPR6   DCT$,,AUTO
         1 000021   200022 456500                    STP6    REQ$+5,,AUTO
         1 000022   000000 236000 2                  LDQ     0
         1 000023   200021 756100                    STQ     REQ$+4,,AUTO
         1 000024   200004 236100                    LDQ     DCB$,,AUTO
         1 000025   000001 036000 2                  ADLQ    1
         1 000026   200020 756100                    STQ     REQ$+3,,AUTO
         1 000027   200020 630500                    EPPR0   REQ$+3,,AUTO
         1 000030   000024 631400 xsym               EPPR1   B_VECTNIL+20
         1 000031   000000 701000 xent               TSX1    TDU$FINDPATH
         1 000032   000450 702000 1                  TSX2    TDNODEV

      426     3984    3              IF DCT$->DCT.MCA.USER# ~= B$JIT.USER THEN DO;

   3984  1 000033   200005 470500                    LDP0    DCT$,,AUTO
PL6.E3A0      #002=TDP$CLOSE File=TDP$PMME.:E05TSI                               WED 07/30/97 06:03 Page:68
         1 000034   000000 471400 xsym               LDP1    B$JIT$
         1 000035   100000 236100                    LDQ     0,,PR1
         1 000036   000022 772000                    QRL     18
         1 000037   000777 376007                    ANQ     511,DL
         1 000040   000031 116100                    CMPQ    25,,PR0
         1 000041   000045 600000 1                  TZE     s:3988

      427     3985    3                 ERRCODE=%E$TDMCANOTUSER;

   3985  1 000042   001664 235007                    LDA     948,DL
         1 000043   200007 755100                    STA     ERRCODE,,AUTO

      428     3986    3                 GOTO BADRET;

   3986  1 000044   000101 710000 1                  TRA     BADRET

      429     3987    3                 END;
      430     3988    2              DCT$->DCT.MCA.USER# = 0;

   3988  1 000045   000031 450100                    STZ     25,,PR0

      431     3989                   %LOCK(G#=SQH.GATE);

   3990  1 000046   200014 630500                    EPPR0   SQH$,,AUTO
         1 000047   000017 631400 xsym               EPPR1   B_VECTNIL+15
         1 000050   000000 701000 xent               TSX1    HFC$LOCK
         1 000051   000000 011000                    NOP     0

      432     3992    3              IF NOT DCT$->DCT.MCA.RESERVED THEN DO;

   3992  1 000052   200005 470500                    LDP0    DCT$,,AUTO
         1 000053   000030 234100                    SZN     24,,PR0
         1 000054   000064 604000 1                  TMI     s:3999

      433     3993                      %UNLOCK(G#=SQH.GATE);

   3994  1 000055   200014 630500                    EPPR0   SQH$,,AUTO
PL6.E3A0      #002=TDP$CLOSE File=TDP$PMME.:E05TSI                               WED 07/30/97 06:03 Page:69
         1 000056   000017 631400 xsym               EPPR1   B_VECTNIL+15
         1 000057   000000 701000 xent               TSX1    HFC$UNLOCK
         1 000060   000000 011000                    NOP     0

      434     3996    3                 ERRCODE=%E$TDMCANOTRESERVED;

   3996  1 000061   001663 235007                    LDA     947,DL
         1 000062   200007 755100                    STA     ERRCODE,,AUTO

      435     3997    3                 GOTO BADRET;

   3997  1 000063   000101 710000 1                  TRA     BADRET

      436     3998    3                 END;
      437     3999    2              DCT$->DCT.MCA.RESERVED = '0'B;

   3999  1 000064   000031 236000 xsym               LDQ     B_VECTNIL+25
         1 000065   000030 356100                    ANSQ    24,,PR0

      438     4000                   %UNLOCK(G#=SQH.GATE);

   4001  1 000066   200014 630500                    EPPR0   SQH$,,AUTO
         1 000067   000017 631400 xsym               EPPR1   B_VECTNIL+15
         1 000070   000000 701000 xent               TSX1    HFC$UNLOCK
         1 000071   000000 011000                    NOP     0

      439     4003    2              END;

      440     4004    2           IF FDCB.ASN#~=%T@D# THEN DO;

   4004  1 000072   200004 470500                    LDP0    DCB$,,AUTO
         1 000073   000032 236100                    LDQ     26,,PR0
         1 000074   777000 376007                    ANQ     -512,DL
         1 000075   006000 116007                    CMPQ    3072,DL
         1 000076   000116 600000 1                  TZE     s:4012

      441     4005    2              ERRCODE=%E$TDNOTDCB;
PL6.E3A0      #002=TDP$CLOSE File=TDP$PMME.:E05TSI                               WED 07/30/97 06:03 Page:70

   4005  1 000077   001616 235007                    LDA     910,DL
         1 000100   200007 755100                    STA     ERRCODE,,AUTO

      442     4006    2   BADRET:
      443     4007    2              B$JIT.ERR='240420000000'O;

   4007  1 000101   000000 236000 0     BADRET       LDQ     0
         1 000102   000000 470400 xsym               LDP0    B$JIT$
         1 000103   000012 756100                    STQ     10,,PR0

      444     4008    2              B$JIT.ERR.CODE=ERRCODE;

   4008  1 000104   200007 236100                    LDQ     ERRCODE,,AUTO
         1 000105   000003 736000                    QLS     3
         1 000106   000012 676100                    ERQ     10,,PR0
         1 000107   377770 376007                    ANQ     131064,DL
         1 000110   000012 656100                    ERSQ    10,,PR0

      445     4009    2              B$JIT.ERR.SEV=4;

   4009  1 000111   000012 236100                    LDQ     10,,PR0
         1 000112   000002 376000 2                  ANQ     2
         1 000113   000004 276007                    ORQ     4,DL
         1 000114   000012 756100                    STQ     10,,PR0

      446     4010    2              RETURN;

   4010  1 000115   000000 702200 xent               TSX2  ! X66_ARET

      447     4011    2              END;
      448     4012    2           IF NOT FDCB.FCD# THEN DO;

   4012  1 000116   000031 236100                    LDQ     25,,PR0
         1 000117   020000 316007                    CANQ    8192,DL
         1 000120   000124 601000 1                  TNZ     s:4016

PL6.E3A0      #002=TDP$CLOSE File=TDP$PMME.:E05TSI                               WED 07/30/97 06:03 Page:71
      449     4013    2              ERRCODE=%E$TDNOTOPEN;

   4013  1 000121   001615 235007                    LDA     909,DL
         1 000122   200007 755100                    STA     ERRCODE,,AUTO

      450     4014    2              GOTO BADRET;

   4014  1 000123   000101 710000 1                  TRA     BADRET

      451     4015    2              END;
      452     4016    2           IF FDCB.FCN.CNT(0)~=0 THEN DO;

   4016  1 000124   000074 236100                    LDQ     60,,PR0
         1 000125   377000 316003                    CANQ    130560,DU
         1 000126   000134 600000 1                  TZE     s:4020

      453     4017    2              FDCB.WAIT=0;

   4017  1 000127   000003 236000 2                  LDQ     3
         1 000130   000064 356100                    ANSQ    52,,PR0

      454     4018    2              CALL FMB$IOSPIN;

   4018  1 000131   000002 631400 xsym               EPPR1   B_VECTNIL+2
         1 000132   000000 701000 xent               TSX1    FMB$IOSPIN
         1 000133   000000 011000                    NOP     0

      455     4019    2              END;

      456     4020    2           IF FDCB.FCN.CNT(1)~=0 THEN DO;

   4020  1 000134   200004 470500                    LDP0    DCB$,,AUTO
         1 000135   000074 236100                    LDQ     60,,PR0
         1 000136   000377 316003                    CANQ    255,DU
         1 000137   000145 600000 1                  TZE     s:4024

      457     4021    2              FDCB.WAIT=1;
PL6.E3A0      #002=TDP$CLOSE File=TDP$PMME.:E05TSI                               WED 07/30/97 06:03 Page:72

   4021  1 000140   000020 236007                    LDQ     16,DL
         1 000141   000064 256100                    ORSQ    52,,PR0

      458     4022    2              CALL FMB$IOSPIN;

   4022  1 000142   000002 631400 xsym               EPPR1   B_VECTNIL+2
         1 000143   000000 701000 xent               TSX1    FMB$IOSPIN
         1 000144   000000 011000                    NOP     0

      459     4023    2              END;

      460     4024    1           MPC$=FDCB.MPC$;

   4024  1 000145   200004 470500                    LDP0    DCB$,,AUTO
         1 000146   000050 236100                    LDQ     40,,PR0
         1 000147   200013 756100                    STQ     MPC$,,AUTO

      461     4025    2           IF FDCB.FUN#=%TD_TEST_FEP THEN DO;

   4025  1 000150   000032 236100                    LDQ     26,,PR0
         1 000151   000777 376003                    ANQ     511,DU
         1 000152   000005 116003                    CMPQ    5,DU
         1 000153   000200 601000 1                  TNZ     s:4031

      462     4026    2              FEI$ = KI$FEI$(FDCB.DEVADR.DVN#);

   4026  1 000154   000051 236100                    LDQ     41,,PR0
         1 000155   000014 772000                    QRL     12
         1 000156   000077 376007                    ANQ     63,DL
         1 000157   000000 471400 xsym               LDP1    KI_FEI$$
         1 000160   100000 236106                    LDQ     0,QL,PR1
         1 000161   200010 756100                    STQ     FEI$,,AUTO

      463     4027    2              CALL MMS$VREL(KI$FEI.FEWSQ ,KI$FEI.BD$ );

   4027  1 000162   000010 036003                    ADLQ    8,DU
PL6.E3A0      #002=TDP$CLOSE File=TDP$PMME.:E05TSI                               WED 07/30/97 06:03 Page:73
         1 000163   200021 756100                    STQ     REQ$+4,,AUTO
         1 000164   200010 236100                    LDQ     FEI$,,AUTO
         1 000165   000005 036003                    ADLQ    5,DU
         1 000166   200020 756100                    STQ     REQ$+3,,AUTO
         1 000167   200020 630500                    EPPR0   REQ$+3,,AUTO
         1 000170   000020 631400 xsym               EPPR1   B_VECTNIL+16
         1 000171   000000 701000 xent               TSX1    MMS$VREL
         1 000172   000000 011000                    NOP     0

      464     4028    2              FDCB.DQH$->DQH.USER#=0;

   4028  1 000173   200004 470500                    LDP0    DCB$,,AUTO
         1 000174   000046 471500                    LDP1    38,,PR0
         1 000175   000000 236003                    LDQ     0,DU
         1 000176   100020 552120                    STBQ    16,'20'O,PR1

      465     4029    2              END;

   4029  1 000177   000205 710000 1                  TRA     s:4034

      466     4030    2           ELSE DO;

      467     4031    2              FDCB.DCT$->DCT.STATUS.TND=0;

   4031  1 000200   000047 471500                    LDP1    39,,PR0
         1 000201   000004 236000 2                  LDQ     4
         1 000202   100027 356100                    ANSQ    23,,PR1

      468     4032    2              FDCB.DCT$->DCT.SPEVENT=0;

   4032  1 000203   000047 471500                    LDP1    39,,PR0
         1 000204   100025 450100                    STZ     21,,PR1

      469     4033    2              END;

      470     4034    1           FDCB.DQH$->DQH.STATUS.TND=0;

PL6.E3A0      #002=TDP$CLOSE File=TDP$PMME.:E05TSI                               WED 07/30/97 06:03 Page:74
   4034  1 000205   000046 471500                    LDP1    38,,PR0
         1 000206   000005 236000 2                  LDQ     5
         1 000207   100001 356100                    ANSQ    1,,PR1

      471     4035    2           DO CASE(FDCB.FUN#);

   4035  1 000210   000032 220100                    LDX0    26,,PR0
         1 000211   000777 360003                    ANX0    511,DU
         1 000212   000004 100003                    CMPX0   4,DU
         1 000213   000215 602010 1                  TNC     s:4035+5,X0
         1 000214   000414 710000 1                  TRA     s:4073
         1 000215   000414 710000 1                  TRA     s:4073
         1 000216   000414 710000 1                  TRA     s:4073
         1 000217   000221 710000 1                  TRA     s:4037
         1 000220   000236 710000 1                  TRA     s:4041

      472     4036    2            CASE(%TD_TEST_ITR);

      473     4037    2              MPC$->DCT.STATUS.TND=0;

   4037  1 000221   200013 471500                    LDP1    MPC$,,AUTO
         1 000222   000004 236000 2                  LDQ     4
         1 000223   100027 356100                    ANSQ    23,,PR1

      474     4038    2              MPC$->DCT.DFLG.MPCSUSPENDED='0'B;

   4038  1 000224   000006 236000 2                  LDQ     6
         1 000225   100006 356100                    ANSQ    6,,PR1

      475     4039    2              CALL NIW$LDFW(MPC$->DCT,'0'B);

   4039  1 000226   000000 236000 2                  LDQ     0
         1 000227   200013 235100                    LDA     MPC$,,AUTO
         1 000230   200020 757100                    STAQ    REQ$+3,,AUTO
         1 000231   200020 630500                    EPPR0   REQ$+3,,AUTO
         1 000232   000020 631400 xsym               EPPR1   B_VECTNIL+16
         1 000233   000000 701000 xent               TSX1    NIW$LDFW
PL6.E3A0      #002=TDP$CLOSE File=TDP$PMME.:E05TSI                               WED 07/30/97 06:03 Page:75
         1 000234   000000 011000                    NOP     0
         1 000235   000414 710000 1                  TRA     s:4073

      476     4040    2            CASE(%TD_TEST_MDR);

      477     4041    2              MPC$->DCT.DFLG.MPCSTOP='1'B;

   4041  1 000236   200013 471500                    LDP1    MPC$,,AUTO
         1 000237   001000 236007                    LDQ     512,DL
         1 000240   100006 256100                    ORSQ    6,,PR1

      478     4042    2              SQH$=MPC$->DCT.SQH$;

   4042  1 000241   200013 471500                    LDP1    MPC$,,AUTO
         1 000242   100022 236100                    LDQ     18,,PR1
         1 000243   200014 756100                    STQ     SQH$,,AUTO

      479     4043    3              DO I=0 TO 1;

   4043  1 000244   200011 450100                    STZ     I,,AUTO

      480     4044    4                 IF SQH.MPC$(I)=MPC$ THEN DO;

   4044  1 000245   200014 470500                    LDP0    SQH$,,AUTO
         1 000246   200011 720100                    LXL0    I,,AUTO
         1 000247   000005 236110                    LDQ     5,X0,PR0
         1 000250   200013 116100                    CMPQ    MPC$,,AUTO
         1 000251   000277 601000 1                  TNZ     s:4050

      481     4045    4                    CALL NIW$MPCSTART(SQH.MPC$(I)->DCT);

   4045  1 000252   000005 471510                    LDP1    5,X0,PR0
         1 000253   200020 451500                    STP1    REQ$+3,,AUTO
         1 000254   200020 630500                    EPPR0   REQ$+3,,AUTO
         1 000255   000017 631400 xsym               EPPR1   B_VECTNIL+15
         1 000256   000000 701000 xent               TSX1    NIW$MPCSTART
         1 000257   000000 011000                    NOP     0
PL6.E3A0      #002=TDP$CLOSE File=TDP$PMME.:E05TSI                               WED 07/30/97 06:03 Page:76

      482     4046    5                    IF SQH.MPC$(I)->DCT.MPC.ALTMPCX~=0 THEN DO;

   4046  1 000260   200014 470500                    LDP0    SQH$,,AUTO
         1 000261   200011 720100                    LXL0    I,,AUTO
         1 000262   000005 471510                    LDP1    5,X0,PR0
         1 000263   100035 236100                    LDQ     29,,PR1
         1 000264   000777 316007                    CANQ    511,DL
         1 000265   000277 600000 1                  TZE     s:4050

      483     4047    5                       CALL NIW$MPCSTART(N$DCT$(SQH.MPC$(I)->DCT.MPC.ALTMPCX)->DCT);

   4047  1 000266   100035 721100                    LXL1    29,,PR1
         1 000267   000777 361003                    ANX1    511,DU
         1 000270   000000 473400 xsym               LDP3    N$DCT$$
         1 000271   300000 474511                    LDP4    0,X1,PR3
         1 000272   200020 454500                    STP4    REQ$+3,,AUTO
         1 000273   200020 630500                    EPPR0   REQ$+3,,AUTO
         1 000274   000017 631400 xsym               EPPR1   B_VECTNIL+15
         1 000275   000000 701000 xent               TSX1    NIW$MPCSTART
         1 000276   000000 011000                    NOP     0

      484     4048    5                       END;

      485     4049    4                    END;

      486     4050    3                 END;

   4050  1 000277   200011 054100                    AOS     I,,AUTO
         1 000300   200011 235100                    LDA     I,,AUTO
         1 000301   000001 115007                    CMPA    1,DL
         1 000302   000245 604400 1                  TMOZ    s:4044

      487     4051    3              IF MPC$->DCT.MPC.TYPE=%DV_LP THEN DO;

   4051  1 000303   200013 470500                    LDP0    MPC$,,AUTO
         1 000304   000035 236100                    LDQ     29,,PR0
PL6.E3A0      #002=TDP$CLOSE File=TDP$PMME.:E05TSI                               WED 07/30/97 06:03 Page:77
         1 000305   777000 376003                    ANQ     -512,DU
         1 000306   003000 116003                    CMPQ    1536,DU
         1 000307   000340 601000 1                  TNZ     s:4059

      488     4052    3                 CALL NIQ$GET(REQ$);

   4052  1 000310   200015 631500                    EPPR1   REQ$,,AUTO
         1 000311   200020 451500                    STP1    REQ$+3,,AUTO
         1 000312   200020 630500                    EPPR0   REQ$+3,,AUTO
         1 000313   000017 631400 xsym               EPPR1   B_VECTNIL+15
         1 000314   000000 701000 xent               TSX1    NIQ$GET
         1 000315   000000 011000                    NOP     0

      489     4053    3                 REQ.FC=%N_RESET;

   4053  1 000316   200015 470500                    LDP0    REQ$,,AUTO
         1 000317   000022 236007                    LDQ     18,DL
         1 000320   000003 552104                    STBQ    3,'04'O,PR0

      490     4054    3                 REQ.OPFLG=%(OP_USER|OP_WAIT);

   4054  1 000321   200015 470500                    LDP0    REQ$,,AUTO
         1 000322   000420 236007                    LDQ     272,DL
         1 000323   000004 552104                    STBQ    4,'04'O,PR0

      491     4055    3                 REQ.DCB$=DCB$;

   4055  1 000324   200004 236100                    LDQ     DCB$,,AUTO
         1 000325   200015 470500                    LDP0    REQ$,,AUTO
         1 000326   000022 756100                    STQ     18,,PR0

      492     4056    3                 REQ.DLA.DCTX=MPC$->DCT.DCTX;

   4056  1 000327   200013 471500                    LDP1    MPC$,,AUTO
         1 000330   100006 236100                    LDQ     6,,PR1
         1 000331   000001 676100                    ERQ     1,,PR0
         1 000332   777770 376003                    ANQ     -8,DU
PL6.E3A0      #002=TDP$CLOSE File=TDP$PMME.:E05TSI                               WED 07/30/97 06:03 Page:78
         1 000333   000001 656100                    ERSQ    1,,PR0

      493     4057    3                 CALL NIO$QUE(REQ);

   4057  1 000334   200015 630500                    EPPR0   REQ$,,AUTO
         1 000335   000017 631400 xsym               EPPR1   B_VECTNIL+15
         1 000336   000000 701000 xent               TSX1    NIO$QUE
         1 000337   000000 011000                    NOP     0

      494     4058    3                 END;

      495     4059    2              MPC$->DCT.STATUS.TND=0;

   4059  1 000340   200013 470500                    LDP0    MPC$,,AUTO
         1 000341   000004 236000 2                  LDQ     4
         1 000342   000027 356100                    ANSQ    23,,PR0

      496     4060    3              IF MPC$->DCT.DFLG.MPCSUSPENDED THEN DO;

   4060  1 000343   000006 236100                    LDQ     6,,PR0
         1 000344   002000 316007                    CANQ    1024,DL
         1 000345   000414 600000 1                  TZE     s:4073

      497     4061    3                 MPC$->DCT.DFLG.MPCSUSPENDED='0'B;

   4061  1 000346   000006 236000 2                  LDQ     6
         1 000347   000006 356100                    ANSQ    6,,PR0

      498     4062    3                 CALL NIQ$GET(REQ$);

   4062  1 000350   200015 630500                    EPPR0   REQ$,,AUTO
         1 000351   200020 450500                    STP0    REQ$+3,,AUTO
         1 000352   200020 630500                    EPPR0   REQ$+3,,AUTO
         1 000353   000017 631400 xsym               EPPR1   B_VECTNIL+15
         1 000354   000000 701000 xent               TSX1    NIQ$GET
         1 000355   000000 011000                    NOP     0

PL6.E3A0      #002=TDP$CLOSE File=TDP$PMME.:E05TSI                               WED 07/30/97 06:03 Page:79
      499     4063    3                 REQ.DLA.DCTX=MPC$->DCT.DCTX;

   4063  1 000356   200013 470500                    LDP0    MPC$,,AUTO
         1 000357   200015 471500                    LDP1    REQ$,,AUTO
         1 000360   000006 236100                    LDQ     6,,PR0
         1 000361   100001 676100                    ERQ     1,,PR1
         1 000362   777770 376003                    ANQ     -8,DU
         1 000363   100001 656100                    ERSQ    1,,PR1

      500     4064    3                 REQ.BUFSIZE=4;

   4064  1 000364   200015 470500                    LDP0    REQ$,,AUTO
         1 000365   000004 236100                    LDQ     4,,PR0
         1 000366   177777 376007                    ANQ     65535,DL
         1 000367   000001 276003                    ORQ     1,DU
         1 000370   000004 756100                    STQ     4,,PR0

      501     4065    3                 REQ.FC=%N_DCWLIST;

   4065  1 000371   200015 470500                    LDP0    REQ$,,AUTO
         1 000372   000000 236003                    LDQ     0,DU
         1 000373   000003 552104                    STBQ    3,'04'O,PR0

      502     4066    3                 REQ.OPFLG=OP_USER | OP_BPF | OP_WAIT;

   4066  1 000374   200015 470500                    LDP0    REQ$,,AUTO
         1 000375   000430 236007                    LDQ     280,DL
         1 000376   000004 552104                    STBQ    4,'04'O,PR0

      503     4067    3                 REQ.USER#=B$JIT.USER;

   4067  1 000377   000000 470400 xsym               LDP0    B$JIT$
         1 000400   200015 471500                    LDP1    REQ$,,AUTO
         1 000401   000000 236100                    LDQ     0,,PR0
         1 000402   000022 772000                    QRL     18
         1 000403   100027 552104                    STBQ    23,'04'O,PR1

PL6.E3A0      #002=TDP$CLOSE File=TDP$PMME.:E05TSI                               WED 07/30/97 06:03 Page:80
      504     4068    3                 REQ.DCB$=DCB$;

   4068  1 000404   200004 236100                    LDQ     DCB$,,AUTO
         1 000405   100022 756100                    STQ     18,,PR1

      505     4069    3                 REQ.BUF$=ADDR(TD_RELEASE_IDCW);

   4069  1 000406   000007 236000 2                  LDQ     7
         1 000407   100005 756100                    STQ     5,,PR1

      506     4070    3                 CALL NIO$QUE(REQ);

   4070  1 000410   200015 630500                    EPPR0   REQ$,,AUTO
         1 000411   000017 631400 xsym               EPPR1   B_VECTNIL+15
         1 000412   000000 701000 xent               TSX1    NIO$QUE
         1 000413   000000 011000                    NOP     0

      507     4071    3                 END/* IF SUSPENDED */;

      508     4072    2            END/* CASE TEST# */;

      509     4073    1           FDCB.DCT$=ADDR(NIL);

   4073  1 000414   000001 236000 xsym               LDQ     B_VECTNIL+1
         1 000415   200004 470500                    LDP0    DCB$,,AUTO
         1 000416   000047 756100                    STQ     39,,PR0

      510     4074    1           FDCB.DQH$=ADDR(NIL);

   4074  1 000417   000046 756100                    STQ     38,,PR0

      511     4075    1           FDCB.MPC$=ADDR(NIL);

   4075  1 000420   000050 756100                    STQ     40,,PR0

      512     4076    1           IF FDCB.TDEXTST$ ~= ADDR(NIL) THEN /* NOT SET UP FOR FEPS             */

PL6.E3A0      #002=TDP$CLOSE File=TDP$PMME.:E05TSI                               WED 07/30/97 06:03 Page:81
   4076  1 000421   000007 236100                    LDQ     7,,PR0
         1 000422   000001 116000 xsym               CMPQ    B_VECTNIL+1
         1 000423   000434 600000 1                  TZE     s:4078

      513     4077    1              CALL FSA$FSP(SIZEW(NI$EXTST),FDCB.TDEXTST$);

   4077  1 000424   200004 236100                    LDQ     DCB$,,AUTO
         1 000425   000007 036003                    ADLQ    7,DU
         1 000426   000010 235000 2                  LDA     8
         1 000427   200020 757100                    STAQ    REQ$+3,,AUTO
         1 000430   200020 630500                    EPPR0   REQ$+3,,AUTO
         1 000431   000020 631400 xsym               EPPR1   B_VECTNIL+16
         1 000432   000000 701000 xent               TSX1    FSA$FSP
         1 000433   000000 011000                    NOP     0

      514     4078    1           FDCB.TDEXTST$=ADDR(NIL);

   4078  1 000434   000001 236000 xsym               LDQ     B_VECTNIL+1
         1 000435   200004 470500                    LDP0    DCB$,,AUTO
         1 000436   000007 756100                    STQ     7,,PR0

      515     4079    1           FDCB.CFU$ = ADDR(NIL);

   4079  1 000437   000066 756100                    STQ     54,,PR0

      516     4080    1           FDCB.FCI#=FDCB.FCD#;

   4080  1 000440   000031 236100                    LDQ     25,,PR0
         1 000441   000001 736000                    QLS     1
         1 000442   000031 676100                    ERQ     25,,PR0
         1 000443   040000 376007                    ANQ     16384,DL
         1 000444   000031 656100                    ERSQ    25,,PR0

      517     4081    1           FDCB.FCD#='0'B;

   4081  1 000445   000011 236000 2                  LDQ     9
         1 000446   000031 356100                    ANSQ    25,,PR0
PL6.E3A0      #002=TDP$CLOSE File=TDP$PMME.:E05TSI                               WED 07/30/97 06:03 Page:82

      518     4082    1           RETURN;

   4082  1 000447   000000 702200 xent               TSX2  ! X66_ARET

      519     4083    1   TDNODEV:
      520     4084    1           ERRCODE = %E$TDNODEV;

   4084  1 000450   001610 235007       TDNODEV      LDA     904,DL
         1 000451   200007 755100                    STA     ERRCODE,,AUTO

      521     4085    1           GOTO BADRET;

   4085  1 000452   000101 710000 1                  TRA     BADRET

(unnamed)
 Sect OctLoc
   0     000   240420 000000                                                    ....

(unnamed)
 Sect OctLoc
   2     000   000002 006000   000051 400000   777777 777770   777777 777757    .....)..........
   2     004   607777 777777   703777 777777   777777 775777   000000 006000    ................
   2     010   000012 006000   777777 757777                                    ........
      522     4086    1   END TDP$CLOSE;
      523     4087        %EOD;

PL6.E3A0      #002=TDP$CLOSE File=TDP$PMME.:E05TSI                               WED 07/30/97 06:03 Page:83
--  Include file information  --

   TD_ERRORS_C.:E05TOU  is referenced.
   SS_SCHED_C.:E05TOU  is referenced.
   N_FC_C.:E05TOU  is referenced.
   NI_MACROS_C.:E05TOU  cannot be made into a system file and is referenced.
   NI$TABLES.:E05TOU  is referenced.
   N$REQ.:E05TOU  is referenced.
   NI_DATA_R.:E05TOU  cannot be made into a system file and is referenced.
   NI_DATA_C.:E05TOU  is referenced.
   M_INFO_C.:E05TOU  is referenced.
   KI_MACROS_C.:E05TOU  is referenced.
   KI_DATA_R.:E05TOU  cannot be made into a system file and is referenced.
   HF_LOCK_C.:E05TOU  cannot be made into a system file and is referenced.
   F$DCBM.:E05TOU  is referenced.
   CP_6_SUBS.:E05TOU  is referenced.
   B_STRINGS_C.:E05TOU  is referenced.
   B$USER.:E05TOU  cannot be made into a system file and is referenced.
   B$MAP.:E05TOU  cannot be made into a system file and is referenced.
   B$JIT_C.:E05TOU  is referenced.
   B$JIT.:E05TOU  cannot be made into a system file and is referenced.
      No diagnostics issued in procedure TDP$CLOSE.
PL6.E3A0      #002=TDP$CLOSE File=TDP$PMME.:E05TSI                               WED 07/30/97 06:03 Page:84

 **** Variables and constants ****

  ****  Auto variables  ****

  ****  Scalars and arrays  ****
OctLoc.c.b A Datatyp(siz) R M Lvl/name                 OctLoc.c.b A Datatyp(siz) R M Lvl/name

     4-0-0/w PTR         r     1 DCB$                       5-0-0/w PTR         r     1 DCT$
     6-0-0/w PTR         r     1 DQH$                       7-0-0/w UBIN        r     1 ERRCODE
    10-0-0/w PTR         r     1 FEI$                      11-0-0/w SBIN        r     1 I
    13-0-0/w PTR         r     1 MPC$                      15-0-0/w PTR         r     1 REQ$
    14-0-0/w PTR         r     1 SQH$

  ****  SYMREF variables  ****

  ****  Scalars and arrays  ****
OctLoc.c.b A Datatyp(siz) R M Lvl/name                 OctLoc.c.b A Datatyp(siz) R M Lvl/name

     0-0-0/w PTR         r     1 B$JIT$                     0-0-0/w PTR         r     1 KI_FEI$$
     0-0-0/w PTR         r     1 N$DCT$$                    0-0-0/w PTR         r     1 N$FQ$
     0-0-0/w PTR         r     1 NI$FQ$                     0-0-0/w PTR         r     1 NI$IBUF$
     0-0-0/w PTR         r     1 NI$RP$                     0-0-0/b BIT         r     1 TD_RELEASE_IDCW

  ****  BASED and DCB variables  ****

  ****  Scalars and arrays  ****
OctLoc.c.b A Datatyp(siz) R M Lvl/name                 OctLoc.c.b A Datatyp(siz) R M Lvl/name

     0-0-0/d STRC(8856)  r     1 B$JIT                      0-0-0/w STRC(1332)  r     1 DCT
     0-0-0/w STRC(648)   r     1 DQH                        0-0-0/d ASTR(3528)  r     1 FDCB
     0-0-0/w STRC(612)   r     1 KI$FEI
     0-0-0/w PTR         r     1 KI$FEI$(0:0)
     0-0-0/w PTR         r     1 N$DCT$(0:0)                0-0-0/w STRC(288)   r     1 NI$EXTST
     0-0-0/d STRC(1080)  r     1 REQ                        0-0-0/w STRC(252)   r     1 SQH

PL6.E3A0      #002=TDP$CLOSE File=TDP$PMME.:E05TSI                               WED 07/30/97 06:03 Page:85

   Procedure TDP$CLOSE requires 299 words for executable code.
   Procedure TDP$CLOSE requires 22 words of local(AUTO) storage.
PL6.E3A0      #002=TDP$CLOSE File=TDP$PMME.:E05TSI                               WED 07/30/97 06:03 Page:86
          *** CROSS REFERENCE LISTING ***
**     DENOTES     IDENTIFIER DEFINITION
<<                 IDENTIFIER'S VALUE SET
>>                 IDENTIFIER'S VALUE USED
<>                 IDENTIFIER SET AND/OR USED
--                 IDENTIFIER REFERENCED
PL6.E3A0      #002=TDP$CLOSE File=TDP$PMME.:E05TSI                               WED 07/30/97 06:03 Page:87
          MINI XREF LISTING

B$DO.ECCINFO
       865**DCL       866--REDEF
B$JIT.CPFLAGS1.SLEAZE
       433**DCL       433--REDEF
B$JIT.DCB$
       507**DCL      3981>>ASSIGN
B$JIT.ERR
       339**DCL      4007<<ASSIGN
B$JIT.ERR.CODE
       340**DCL      4008<<ASSIGN
B$JIT.ERR.MID
       340**DCL       340--REDEF
B$JIT.ERR.SEV
       340**DCL      4009<<ASSIGN
B$JIT.JRESPEAK
       501**DCL       502--REDEF
B$JIT.ORIGINATOR_PORT.FROM_CR
       610**DCL       610--REDEF     611--REDEF
B$JIT.PNR
       514**DCL       514--REDEF
B$JIT.TSLINE
       608**DCL       609--REDEF
B$JIT.USER
       339**DCL      3984>>IF       4067>>ASSIGN
B$JIT$
      3632**DCL       334--IMP-PTR  3981>>ASSIGN   3984>>IF       4007>>ASSIGN   4008>>ASSIGN   4009>>ASSIGN
      4067>>ASSIGN
B$MAP.SCTRL
       658**DCL       659--REDEF
B$U.MISC
       844**DCL       845--REDEF
B$USER.MISC
PL6.E3A0      #002=TDP$CLOSE File=TDP$PMME.:E05TSI                               WED 07/30/97 06:03 Page:88
       920**DCL       921--REDEF
BADRET
      4007**LABEL    3986--GOTO     3997--GOTO     4014--GOTO     4085--GOTO
DCB$
      3644**DCL      3659--IMP-PTR  3981<<ASSIGN   3982>>IF       3983>>CALL     4004>>IF       4012>>IF
      4016>>IF       4017>>ASSIGN   4020>>IF       4021>>ASSIGN   4024>>ASSIGN   4025>>IF       4026>>ASSIGN
      4028>>ASSIGN   4031>>ASSIGN   4032>>ASSIGN   4034>>ASSIGN   4035>>DOCASE   4055>>ASSIGN   4068>>ASSIGN
      4073>>ASSIGN   4074>>ASSIGN   4075>>ASSIGN   4076>>IF       4077>>CALL     4078>>ASSIGN   4079>>ASSIGN
      4080>>ASSIGN   4080>>ASSIGN   4081>>ASSIGN
DCT
      3724**DCL      4039<>CALL     4045<>CALL     4047<>CALL
DCT.DCTX
      3725**DCL      4056>>ASSIGN   4063>>ASSIGN
DCT.DFLG.MPCSTOP
      3729**DCL      4041<<ASSIGN
DCT.DFLG.MPCSUSPENDED
      3729**DCL      4038<<ASSIGN   4060>>IF       4061<<ASSIGN
DCT.DP
      3744**DCL      3751--REDEF    3754--REDEF    3755--REDEF    3757--REDEF    3757--REDEF    3758--REDEF
      3759--REDEF    3759--REDEF
DCT.MCA.RESERVED
      3759**DCL      3992>>IF       3999<<ASSIGN
DCT.MCA.USER#
      3759**DCL      3984>>IF       3988<<ASSIGN
DCT.MPC.ALTMPCX
      3753**DCL      4046>>IF       4047>>CALL
DCT.MPC.IOCHANX
      3752**DCL      3752--REDEF
DCT.MPC.TYPE
      3752**DCL      4051>>IF
DCT.SPEVENT
      3740**DCL      4032<<ASSIGN
DCT.SQH$
      3739**DCL      4042>>ASSIGN
DCT.STATUS.TND
      3742**DCL      4031<<ASSIGN   4037<<ASSIGN   4059<<ASSIGN
PL6.E3A0      #002=TDP$CLOSE File=TDP$PMME.:E05TSI                               WED 07/30/97 06:03 Page:89
DCT$
      3645**DCL      3983<>CALL     3984>>IF       3988>>ASSIGN   3992>>IF       3999>>ASSIGN
DQH.IOCHANX
      3774**DCL      3775--REDEF
DQH.MBX$
      3783**DCL      3784--REDEF
DQH.STATUS.TND
      3773**DCL      4034<<ASSIGN
DQH.USER#
      3782**DCL      4028<<ASSIGN
DQH$
      3646**DCL      3983<>CALL
ERRCODE
      3647**DCL      3985<<ASSIGN   3996<<ASSIGN   4005<<ASSIGN   4008>>ASSIGN   4013<<ASSIGN   4084<<ASSIGN
FDCB.ACTPOS
      3691**DCL      3691--REDEF
FDCB.ARS#
      3665**DCL      3665--REDEF
FDCB.ASN#
      3680**DCL      4004>>IF
FDCB.ATTR
      3684**DCL      3685--REDEF
FDCB.BORROW
      3699**DCL      3699--REDEF    3699--REDEF    3699--REDEF
FDCB.CFU$
      3700**DCL      4079<<ASSIGN
FDCB.DCBNAME.L
      3713**DCL      3713--IMP-SIZ
FDCB.DCT$
      3688**DCL      4031>>ASSIGN   4032>>ASSIGN   4073<<ASSIGN
FDCB.DEVADR
      3688**DCL      3983<>CALL
FDCB.DEVADR.DVN#
      3689**DCL      4026>>ASSIGN
FDCB.DQH$
      3687**DCL      4028>>ASSIGN   4034>>ASSIGN   4074<<ASSIGN
PL6.E3A0      #002=TDP$CLOSE File=TDP$PMME.:E05TSI                               WED 07/30/97 06:03 Page:90
FDCB.EOMCHAR#
      3669**DCL      3669--REDEF
FDCB.FCD#
      3678**DCL      4012>>IF       4080>>ASSIGN   4081<<ASSIGN
FDCB.FCI#
      3678**DCL      4080<<ASSIGN
FDCB.FCN.CNT
      3704**DCL      4016>>IF       4020>>IF
FDCB.FLDID
      3694**DCL      3694--REDEF
FDCB.FORM$
      3688**DCL      3688--REDEF
FDCB.FSECT
      3704**DCL      3704--REDEF
FDCB.FSN#
      3681**DCL      3681--REDEF    3681--REDEF    3682--REDEF
FDCB.FUN#
      3680**DCL      3982>>IF       4025>>IF       4035>>DOCASE
FDCB.HEADER$
      3687**DCL      3687--REDEF
FDCB.IXTNSIZE#
      3685**DCL      3685--REDEF
FDCB.LASTSTA$
      3674**DCL      3674--REDEF
FDCB.LVL
      3700**DCL      3700--REDEF
FDCB.MPC$
      3688**DCL      4024>>ASSIGN   4075<<ASSIGN
FDCB.NAME#.C
      3675**DCL      3675--REDEF
FDCB.NOEOF
      3697**DCL      3697--REDEF
FDCB.NRECS#
      3686**DCL      3686--REDEF
FDCB.NRECX
      3705**DCL      3705--REDEF
PL6.E3A0      #002=TDP$CLOSE File=TDP$PMME.:E05TSI                               WED 07/30/97 06:03 Page:91
FDCB.OHDR
      3697**DCL      3697--REDEF
FDCB.ORG#
      3680**DCL      3680--REDEF
FDCB.PRECNO
      3703**DCL      3703--REDEF
FDCB.RCSZ
      3709**DCL      3709--REDEF
FDCB.RES#
      3676**DCL      3676--REDEF
FDCB.SETX
      3688**DCL      3688--REDEF
FDCB.TAB$
      3688**DCL      3688--REDEF
FDCB.TDA
      3702**DCL      3703--REDEF
FDCB.TDEXTST$
      3674**DCL      4076>>IF       4077<>CALL     4078<<ASSIGN
FDCB.WAIT
      3698**DCL      4017<<ASSIGN   4021<<ASSIGN
FDCB.WSN#
      3676**DCL      3676--REDEF
FEI$
      3648**DCL      3799--IMP-PTR  4026<<ASSIGN   4027>>CALL     4027>>CALL
FMB$IOSPIN
      3619**DCL-ENT  4018--CALL     4022--CALL
FSA$FSP
      3620**DCL-ENT  4077--CALL
HFC$LOCK
      1671**DCL-ENT  3990--CALL
HFC$UNLOCK
      1671**DCL-ENT  3994--CALL     4001--CALL
I
      3649**DCL      4043<<DOINDEX  4044>>IF       4045>>CALL     4046>>IF       4047>>CALL
KI$FEI.BD$
      3834**DCL      3835--REDEF    4027<>CALL
PL6.E3A0      #002=TDP$CLOSE File=TDP$PMME.:E05TSI                               WED 07/30/97 06:03 Page:92
KI$FEI.BDAD.WADDR
      3836**DCL      3837--REDEF
KI$FEI.FEWSQ
      3827**DCL      4027<>CALL
KI$FEI.RCVPB
      3850**DCL      3851--REDEF
KI$FEI$
      1684**DCL      4026>>ASSIGN
KI_FEI$$
      1683**DCL      1684--IMP-PTR  4026>>ASSIGN
MMS$VREL
      3623**DCL-ENT  4027--CALL
MPC$
      3651**DCL      3983<>CALL     4024<<ASSIGN   4037>>ASSIGN   4038>>ASSIGN   4039>>CALL     4041>>ASSIGN
      4042>>ASSIGN   4044>>IF       4051>>IF       4056>>ASSIGN   4059>>ASSIGN   4060>>IF       4061>>ASSIGN
      4063>>ASSIGN
N$DCT$
      2991**DCL      4047>>CALL
N$DCT$$
      2857**DCL      2991--IMP-PTR  4047>>CALL
N$FQ$
      2857**DCL      2992--IMP-PTR
N$REQ_INIT.BUFADDR
      2876**DCL      2877--REDEF    2877--REDEF
N$REQ_INIT.DLA.DRELADDR
      2868**DCL      2868--REDEF
N$REQ_INIT.DVE.EOMCHAR
      2905**DCL      2906--REDEF
N$REQ_INIT.EAINFO
      2899**DCL      2899--REDEF
N$REQ_INIT.EAINFOX
      2899**DCL      2900--REDEF
N$REQ_INIT.EVNTINFO
      2900**DCL      2900--REDEF
N$REQ_INIT.STATUS
      2881**DCL      2887--REDEF
PL6.E3A0      #002=TDP$CLOSE File=TDP$PMME.:E05TSI                               WED 07/30/97 06:03 Page:93
NI$EXTST
      3875**DCL      4077--CALL
NI$EXTST.EXTST
      3879**DCL      3881--REDEF    3883--REDEF
NI$FQ$
      2917**DCL      2993--IMP-PTR
NI$IBUF$
      2917**DCL      2993--IMP-PTR
NI$IMXMBX_INIT.PAGED_BASE
      2927**DCL      2928--REDEF    2928--REDEF
NI$IMXMBX_INIT.SIZE
      2929**DCL      2929--REDEF
NI$REQ_INIT.DCW
      2951**DCL      2954--REDEF
NI$REQ_INIT.DCW.TALLY
      2952**DCL      2952--REDEF
NI$REQ_INIT.IDCW.EXTA
      2954**DCL      2954--REDEF
NI$REQ_INIT.PCW
      2956**DCL      2960--REDEF
NI$REQ_INIT.SEEK
      2961**DCL      2962--REDEF    2963--REDEF
NI$RP$
      2965**DCL      2995--IMP-PTR
NIO$QUE
      3622**DCL-ENT  4057--CALL     4070--CALL
NIQ$GET
      3621**DCL-ENT  4052--CALL     4062--CALL
NIW$LDFW
      3624**DCL-ENT  4039--CALL
NIW$MPCSTART
      3625**DCL-ENT  4045--CALL     4047--CALL
NI_MBX_INIT.DCW.CONTROL.AE
      2987**DCL      2987--REDEF
NI_MBX_INIT.LPW.CONTROL.AE
      2983**DCL      2983--REDEF
PL6.E3A0      #002=TDP$CLOSE File=TDP$PMME.:E05TSI                               WED 07/30/97 06:03 Page:94
REQ
      3914**DCL      4057<>CALL     4070<>CALL
REQ.BUF$
      3923**DCL      4069<<ASSIGN
REQ.BUFADDR
      3923**DCL      3924--REDEF    3924--REDEF
REQ.BUFSIZE
      3917**DCL      4064<<ASSIGN
REQ.DCB$
      3945**DCL      4055<<ASSIGN   4068<<ASSIGN
REQ.DLA.DCTX
      3914**DCL      4056<<ASSIGN   4063<<ASSIGN
REQ.DLA.DRELADDR
      3915**DCL      3915--REDEF
REQ.DVE.EOMCHAR
      3952**DCL      3953--REDEF
REQ.EAINFO
      3946**DCL      3946--REDEF
REQ.EAINFOX
      3946**DCL      3947--REDEF
REQ.EVNTINFO
      3947**DCL      3947--REDEF
REQ.FC
      3917**DCL      4053<<ASSIGN   4065<<ASSIGN
REQ.OPFLG
      3920**DCL      4054<<ASSIGN   4066<<ASSIGN
REQ.STATUS
      3928**DCL      3934--REDEF
REQ.USER#
      3948**DCL      4067<<ASSIGN
REQ$
      3653**DCL      3914--IMP-PTR  4052<>CALL     4053>>ASSIGN   4054>>ASSIGN   4055>>ASSIGN   4056>>ASSIGN
      4057>>CALL     4062<>CALL     4063>>ASSIGN   4064>>ASSIGN   4065>>ASSIGN   4066>>ASSIGN   4067>>ASSIGN
      4068>>ASSIGN   4069>>ASSIGN   4070>>CALL
SQH.DOOR
      3972**DCL      3972--REDEF
PL6.E3A0      #002=TDP$CLOSE File=TDP$PMME.:E05TSI                               WED 07/30/97 06:03 Page:95
SQH.GATE
      3972**DCL      3990<>CALL     3994<>CALL     4001<>CALL
SQH.MPC$
      3974**DCL      4044>>IF       4045>>CALL     4046>>IF       4047>>CALL
SQH$
      3652**DCL      3972--IMP-PTR  3983<>CALL     3990>>CALL     3994>>CALL     4001>>CALL     4042<<ASSIGN
      4044>>IF       4045>>CALL     4046>>IF       4047>>CALL
TDNODEV
      4084**LABEL    3983--CALLALT
TDU$FINDPATH
      3627**DCL-ENT  3983--CALL
TD_RELEASE_IDCW
      3639**DCL      4069--ASSIGN

