VERSION E05

PL6.E3A0      #001=TDP$SYSCONEA File=TDP$SYSCONEA.:E05TSI                        WED 07/30/97 06:05 Page:1
        1        1        /*T***********************************************************/
        2        2        /*T*                                                         */
        3        3        /*T* Copyright (c) Bull HN Information Systems Inc., 1997    */
        4        4        /*T*                                                         */
        5        5        /*T***********************************************************/
        6        6        TDP$SYSCONEA: PROC(REQ);
        7        7        /*
        8        8                        Includes
        9        9        */
       10       10        %INCLUDE                N$REQ ;
       11       84        %INCLUDE                NI_DATA_C ;
       12      197        /*
       13      198                        Parameters
       14      199        */
       15      200        %N$REQ                  ( NAME=REQ, STCLASS=PARAM ) ;
       16      258        /*
       17      259                        Entries
       18      260        */
       19      261    1   DCL 1 FMN$AVR           ENTRY(2) ;
       20      262
       21      263
       22      264
       23      265    1           IF  REQ.STATUS.MAJOR = %READY
       24      266    1           THEN
       25      267    1               CALL FMN$AVR ( REQ.DLA.DCTX, %NI_AVR_READY ) ;
       26      268
       27      269    1           RETURN;
       28      270
       29      271    1   END TDP$SYSCONEA;

PL6.E3A0      #001=TDP$SYSCONEA File=TDP$SYSCONEA.:E05TSI                        WED 07/30/97 06:05 Page:2
--  Include file information  --

   NI_DATA_C.:E05TOU  is referenced.
   N$REQ.:E05TOU  is referenced.
      No diagnostics issued in procedure TDP$SYSCONEA.

   Procedure TDP$SYSCONEA requires 16 words for executable code.
   Procedure TDP$SYSCONEA requires 6 words of local(AUTO) storage.

    No errors detected in file TDP$SYSCONEA.:E05TSI    .

PL6.E3A0      #001=TDP$SYSCONEA File=TDP$SYSCONEA.:E05TSI                        WED 07/30/97 06:05 Page:3

 Object Unit name= TDP$SYSCONEA                               File name= TDP$SYSCONEA.:E05TOU
 UTS= JUL 30 '97 06:05:26.52 WED                              Compiler= PL-6/E31         Sev=      00
 SharedLib= :SHARED_SYSTEM                                    Alt SharedLib=


    ****  Control sections  ****

 Sect   Type Bound  Init  Size OctSiz  Section name(segment info)
    0   Proc  even  none    16     20  TDP$SYSCONEA
    1  RoData even  none     1      1  TDP$SYSCONEA

    ****  Entry defs  ****

                              Check   Calling
                             calling  sequence
  Sect OctLoc Primary Altret sequence   type   Parms  Name
     0      0   yes            yes      Std        1  TDP$SYSCONEA

  ****  Entry refs  ****

         Check        Calling
        calling       sequence
Altret sequence SRef   type   Args  Name
         yes           Std       2 FMN$AVR
                       nStd      0 X66_AUTO_1
                       Std       0 B_CONSPOOL_D
                       nStd      0 X66_ARET

  ****  Data refs  ****

  Flags:  r = read only, s = secondary
Flgs Name                             Flgs Name                             Flgs Name
     B_VECTNIL
PL6.E3A0      #001=TDP$SYSCONEA File=TDP$SYSCONEA.:E05TSI                        WED 07/30/97 06:05 Page:4

  ****  Segment refs  ****

  Flags:  r = read only, s = secondary
Flgs Name                             Flgs Name                             Flgs Name
     ISSID
PL6.E3A0      #001=TDP$SYSCONEA File=TDP$SYSCONEA.:E05TSI                        WED 07/30/97 06:05 Page:5


        1        1        /*T***********************************************************/
        2        2        /*T*                                                         */
        3        3        /*T* Copyright (c) Bull HN Information Systems Inc., 1997    */
        4        4        /*T*                                                         */
        5        5        /*T***********************************************************/
        6        6        TDP$SYSCONEA: PROC(REQ);

      6  0 000000   000000 700200 xent  TDP$SYSCONEA TSX0  ! X66_AUTO_1
         0 000001   000006 000001                    ZERO    6,1

        7        7        /*
        8        8                        Includes
        9        9        */
       10       10        %INCLUDE                N$REQ ;
       11       84        %INCLUDE                NI_DATA_C ;
       12      197        /*
       13      198                        Parameters
       14      199        */
       15      200        %N$REQ                  ( NAME=REQ, STCLASS=PARAM ) ;
       16      258        /*
       17      259                        Entries
       18      260        */
       19      261    1   DCL 1 FMN$AVR           ENTRY(2) ;
       20      262
       21      263
       22      264
       23      265    1           IF  REQ.STATUS.MAJOR = %READY

    265  0 000002   200003 470500                    LDP0    @REQ,,AUTO
         0 000003   000014 236100                    LDQ     12,,PR0
         0 000004   170000 316003                    CANQ    61440,DU
         0 000005   000017 601000 0                  TNZ     s:269

       24      266    1           THEN
       25      267    1               CALL FMN$AVR ( REQ.DLA.DCTX, %NI_AVR_READY ) ;

PL6.E3A0      #001=TDP$SYSCONEA File=TDP$SYSCONEA.:E05TSI                        WED 07/30/97 06:05 Page:6
    267  0 000006   000000 236000 1                  LDQ     0
         0 000007   200005 756100                    STQ     @REQ+2,,AUTO
         0 000010   200003 236100                    LDQ     @REQ,,AUTO
         0 000011   000001 036003                    ADLQ    1,DU
         0 000012   200004 756100                    STQ     @REQ+1,,AUTO
         0 000013   200004 630500                    EPPR0   @REQ+1,,AUTO
         0 000014   000020 631400 xsym               EPPR1   B_VECTNIL+16
         0 000015   000000 701000 xent               TSX1    FMN$AVR
         0 000016   000000 011000                    NOP     0

       26      268
       27      269    1           RETURN;

    269  0 000017   000000 702200 xent               TSX2  ! X66_ARET

(unnamed)
 Sect OctLoc
   1     000   000003 006000                                                    ....
       28      270
       29      271    1   END TDP$SYSCONEA;

PL6.E3A0      #001=TDP$SYSCONEA File=TDP$SYSCONEA.:E05TSI                        WED 07/30/97 06:05 Page:7
--  Include file information  --

   NI_DATA_C.:E05TOU  is referenced.
   N$REQ.:E05TOU  is referenced.
      No diagnostics issued in procedure TDP$SYSCONEA.
PL6.E3A0      #001=TDP$SYSCONEA File=TDP$SYSCONEA.:E05TSI                        WED 07/30/97 06:05 Page:8

 **** Variables and constants ****

  ****  Auto variables  ****

  ****  Scalars and arrays  ****
OctLoc.c.b A Datatyp(siz) R M Lvl/name                 OctLoc.c.b A Datatyp(siz) R M Lvl/name

     3-0-0/w PTR         r     1 @REQ                      *0-0-0/d STRC(1080)  r     1 REQ


   Procedure TDP$SYSCONEA requires 16 words for executable code.
   Procedure TDP$SYSCONEA requires 6 words of local(AUTO) storage.

    No errors detected in file TDP$SYSCONEA.:E05TSI    .
PL6.E3A0      #001=TDP$SYSCONEA File=TDP$SYSCONEA.:E05TSI                        WED 07/30/97 06:05 Page:9
          *** CROSS REFERENCE LISTING ***
**     DENOTES     IDENTIFIER DEFINITION
<<                 IDENTIFIER'S VALUE SET
>>                 IDENTIFIER'S VALUE USED
<>                 IDENTIFIER SET AND/OR USED
--                 IDENTIFIER REFERENCED
PL6.E3A0      #001=TDP$SYSCONEA File=TDP$SYSCONEA.:E05TSI                        WED 07/30/97 06:05 Page:10
          MINI XREF LISTING

FMN$AVR
       261**DCL-ENT   267--CALL
REQ
       209**DCL         6--PROC
REQ.BUFADDR
       218**DCL       219--REDEF     219--REDEF
REQ.DLA.DCTX
       209**DCL       267<>CALL
REQ.DLA.DRELADDR
       210**DCL       210--REDEF
REQ.DVE.EOMCHAR
       247**DCL       248--REDEF
REQ.EAINFO
       241**DCL       241--REDEF
REQ.EAINFOX
       241**DCL       242--REDEF
REQ.EVNTINFO
       242**DCL       242--REDEF
REQ.STATUS
       223**DCL       229--REDEF
REQ.STATUS.MAJOR
       223**DCL       265>>IF
