VERSION E05

PL6.E3A0      #001=TDU$FINDPATH File=TDU$FIND.:E05TSI                            WED 07/30/97 06:05 Page:1
        1        1        /*M* TDU$FINDPATH - FIND DCT, SQH, DQH AND MPCDCT GIVEN IOM#, CHAN# AND DEV# */
        2        2        /*T***********************************************************/
        3        3        /*T*                                                         */
        4        4        /*T* Copyright (c) Bull HN Information Systems Inc., 1997    */
        5        5        /*T*                                                         */
        6        6        /*T***********************************************************/
        7        7        TDU$FINDPATH: PROC ( PATH, MPCFLG, DCT$, SQH$, DQH$, MPC$ ) ALTRET;
        8        8        /**/
        9        9        /*D*  NAME: TDU$FINDPATH
       10       10        *     CALL: CALL TDU$FINDPATH(PATH,MPCFLG,DCT$,SQH$,DQH$,MPC$) ALTRET(X);
       11       11        *     INPUT:  PATH   - IOM#, CHANNEL#, and DEVICE#
       12       12        *             MPCFLG - Searching for MPC flag
       13       13        *     OUTPUT: DCT$   - Pointer to device or MPC DCT
       14       14        *             SQH$   - Pointer to subsystem queue header
       15       15        *             DQH$   - Pointer to driver queue header for channel
       16       16        *             MPC$   - Pointer to DCT for MPC
       17       17        *
       18       18        *     DESCRIPTION:
       19       19        *           Finds the patch to a device or MPC.  If MPCFLG is '0'B,
       20       20        *       a path to a device is found.  If MPCFLG is '1'B, a path to
       21       21        *       controller is found.
       22       22        *
       23       23        *           The IOM# and CHANNEL# are concatenated for an index into
       24       24        *       the channel table.  DQH$ is obtained from NI$CHT>DQH$.  If
       25       25        *       DQH$ is NIL, the ALTRETURN is taken.  SQH$ is obtained from
       26       26        *       the DQH$->DQH.SQH$.  MPC$ is determined by the DQH$->DQH.MPC$.
       27       27        *
       28       28        *       If MPCFLG is set, DCT$ is set equal to MPC$.
       29       29        *
       30       30        *       If MPCFLG is not set, DCT$ is found by searching the DCTs
       31       31        *       from SQH.FDCT to SQH.FDCT+SQH.NDCT-1.
       32       32        *
       33       33        *       If the device is not found, the ALTRETURN is taken.
       34       34                                                                        */
       35       35        /*
       36       36                Includes
       37       37        */
PL6.E3A0      #001=TDU$FINDPATH File=TDU$FIND.:E05TSI                            WED 07/30/97 06:05 Page:2
       38       38        %INCLUDE                        NI_DATA_C ;
       39      151        %INCLUDE                        NI_DATA_R ;
       40      588        /*
       41      589                Parameters
       42      590        */
       43      591    1   DCL 1 PATH                      UNAL PARAM,
       44      592    1         2 DVN                     UBIN(6) UNAL,
       45      593    1         2 IOM                     UBIN(3) UNAL,
       46      594    1         2 CHAN                    UBIN(9) UNAL ;
       47      595    1   DCL 1 MPCFLG                    BIT(1) ALIGNED PARAM ;
       48      596    1   DCL 1 DCT$                      PTR ALIGNED PARAM ;
       49      597    1   DCL 1 SQH$                      PTR ALIGNED PARAM ;
       50      598    1   DCL 1 DQH$                      PTR ALIGNED PARAM ;
       51      599    1   DCL 1 MPC$                      PTR ALIGNED PARAM ;
       52      600        /*
       53      601                Auto
       54      602        */
       55      603    1   DCL 1 I                         UBIN ALIGNED AUTO ;
       56      604        /*
       57      605                Based
       58      606        */
       59      607        %NI$CHT                         ( STCLASS="(0:0) BASED(NI$CHT$)" ) ;
       60      610        %NI$DCT                         ( STCLASS="BASED(DCT$)"          ) ;
       61      658        %NI$DQH                         ( STCLASS="BASED(DQH$)"          ) ;
       62      681        %NI$DVT ;
       63      688        %NI$SQH                         ( STCLASS="BASED(SQH$)"          ) ;
       64      701        %EJECT ;
PL6.E3A0      #001=TDU$FINDPATH File=TDU$FIND.:E05TSI                            WED 07/30/97 06:05 Page:3
       65      702    1           DQH$=NI$CHT.DQH$(PATH.IOM*%N_MAXCHANS+PATH.CHAN);
       66      703    1           IF DQH$=ADDR(NIL) THEN ALTRETURN;
       67      704    1           SQH$=NI$DQH.SQH$;
       68      705    1           IF SQH$=ADDR(NIL) THEN
       69      706    2              IF MPCFLG AND NI$DQH.FEX~=0 THEN DO;
       70      707    2                 DCT$=ADDR(NIL);
       71      708    2                 RETURN;                    /* FEP */
       72      709    2                 END;
       73      710    1              ELSE
       74      711    1                 ALTRETURN;
       75      712    1           MPC$=NI$DQH.MPC$;
       76      713    2           IF PATH.DVN=0 THEN DO;
       77      714    3              IF MPC$=ADDR(NIL) AND NOT MPCFLG THEN DO;
       78      715    3                 DCT$=N$DCT$(NI$SQH.FDCT); /* CONSOLE                            */
       79      716    3                 RETURN;
       80      717    3                 END;
       81      718    3              ELSE IF MPC$~=ADDR(NIL) AND MPCFLG THEN DO;
       82      719    3                 DCT$=MPC$;                /* MPC                                */
       83      720    3                 RETURN;
       84      721    3                 END;
       85      722    2              END;
       86      723    2           DO I=NI$SQH.FDCT TO NI$SQH.FDCT+NI$SQH.NDCT-1;
       87      724    2              DCT$=N$DCT$(I);
       88      725    3              DO CASE(NI$DCT.TYPE);
       89      726    3               CASE(%DV_CR,%DV_CP,%DV_LP);
       90      727    3                 IF NI$DCT.DQH$=DQH$ AND NI$DCT.DVN=PATH.DVN THEN RETURN;
       91      728    3               CASE(%DV_DP,%DV_MT,%DV_AP);
       92      729    3                 IF NI$DCT.DVN=PATH.DVN THEN RETURN;
       93      730    3               END;                   /* CASE NI$DVT$(NI$DCT.DVTX)->NI$DVT.TYPE  */
       94      731    2              END;
       95      732    1           ALTRETURN;                      /* DEVICE NOT FOUND                   */
       96      733    1   END TDU$FINDPATH;

PL6.E3A0      #001=TDU$FINDPATH File=TDU$FIND.:E05TSI                            WED 07/30/97 06:05 Page:4
--  Include file information  --

   NI$TABLES.:E05TOU  is referenced.
   N$REQ.:E05TOU  is referenced.
   NI_DATA_R.:E05TOU  cannot be made into a system file and is referenced.
   NI_DATA_C.:E05TOU  is referenced.
      No diagnostics issued in procedure TDU$FINDPATH.

   Procedure TDU$FINDPATH requires 134 words for executable code.
   Procedure TDU$FINDPATH requires 12 words of local(AUTO) storage.

    No errors detected in file TDU$FIND.:E05TSI    .

PL6.E3A0      #001=TDU$FINDPATH File=TDU$FIND.:E05TSI                            WED 07/30/97 06:05 Page:5

 Object Unit name= TDU$FINDPATH                               File name= TDU$FIND.:E05TOU
 UTS= JUL 30 '97 06:05:52.20 WED                              Compiler= PL-6/E31         Sev=      00
 SharedLib= :SHARED_SYSTEM                                    Alt SharedLib=


    ****  Control sections  ****

 Sect   Type Bound  Init  Size OctSiz  Section name(segment info)
    0   Proc  even  none   134    206  TDU$FINDPATH

    ****  Entry defs  ****

                              Check   Calling
                             calling  sequence
  Sect OctLoc Primary Altret sequence   type   Parms  Name
     0      0   yes    yes     yes      Std        6  TDU$FINDPATH

  ****  Entry refs  ****

         Check        Calling
        calling       sequence
Altret sequence SRef   type   Args  Name
                       nStd      0 X66_AUTO_N
                       Std       0 B_CONSPOOL_D
                       nStd      0 X66_AALT
                       nStd      0 X66_ARET

  ****  Data refs  ****

  Flags:  r = read only, s = secondary
Flgs Name                             Flgs Name                             Flgs Name
     N$DCT$$                               N$FQ$                                 NI$CHT$
     NI$FQ$                                NI$IBUF$                              NI$RP$
     B_VECTNIL
PL6.E3A0      #001=TDU$FINDPATH File=TDU$FIND.:E05TSI                            WED 07/30/97 06:05 Page:6


        1        1        /*M* TDU$FINDPATH - FIND DCT, SQH, DQH AND MPCDCT GIVEN IOM#, CHAN# AND DEV# */
        2        2        /*T***********************************************************/
        3        3        /*T*                                                         */
        4        4        /*T* Copyright (c) Bull HN Information Systems Inc., 1997    */
        5        5        /*T*                                                         */
        6        6        /*T***********************************************************/
        7        7        TDU$FINDPATH: PROC ( PATH, MPCFLG, DCT$, SQH$, DQH$, MPC$ ) ALTRET;

      7  0 000000   000000 700200 xent  TDU$FINDPATH TSX0  ! X66_AUTO_N
         0 000001   000014 000006                    ZERO    12,6

        8        8        /**/
        9        9        /*D*  NAME: TDU$FINDPATH
       10       10        *     CALL: CALL TDU$FINDPATH(PATH,MPCFLG,DCT$,SQH$,DQH$,MPC$) ALTRET(X);
       11       11        *     INPUT:  PATH   - IOM#, CHANNEL#, and DEVICE#
       12       12        *             MPCFLG - Searching for MPC flag
       13       13        *     OUTPUT: DCT$   - Pointer to device or MPC DCT
       14       14        *             SQH$   - Pointer to subsystem queue header
       15       15        *             DQH$   - Pointer to driver queue header for channel
       16       16        *             MPC$   - Pointer to DCT for MPC
       17       17        *
       18       18        *     DESCRIPTION:
       19       19        *           Finds the patch to a device or MPC.  If MPCFLG is '0'B,
       20       20        *       a path to a device is found.  If MPCFLG is '1'B, a path to
       21       21        *       controller is found.
       22       22        *
       23       23        *           The IOM# and CHANNEL# are concatenated for an index into
       24       24        *       the channel table.  DQH$ is obtained from NI$CHT>DQH$.  If
       25       25        *       DQH$ is NIL, the ALTRETURN is taken.  SQH$ is obtained from
       26       26        *       the DQH$->DQH.SQH$.  MPC$ is determined by the DQH$->DQH.MPC$.
       27       27        *
       28       28        *       If MPCFLG is set, DCT$ is set equal to MPC$.
       29       29        *
       30       30        *       If MPCFLG is not set, DCT$ is found by searching the DCTs
       31       31        *       from SQH.FDCT to SQH.FDCT+SQH.NDCT-1.
       32       32        *
PL6.E3A0      #001=TDU$FINDPATH File=TDU$FIND.:E05TSI                            WED 07/30/97 06:05 Page:7
       33       33        *       If the device is not found, the ALTRETURN is taken.
       34       34                                                                        */
       35       35        /*
       36       36                Includes
       37       37        */
       38       38        %INCLUDE                        NI_DATA_C ;
       39      151        %INCLUDE                        NI_DATA_R ;
       40      588        /*
       41      589                Parameters
       42      590        */
       43      591    1   DCL 1 PATH                      UNAL PARAM,
       44      592    1         2 DVN                     UBIN(6) UNAL,
       45      593    1         2 IOM                     UBIN(3) UNAL,
       46      594    1         2 CHAN                    UBIN(9) UNAL ;
       47      595    1   DCL 1 MPCFLG                    BIT(1) ALIGNED PARAM ;
       48      596    1   DCL 1 DCT$                      PTR ALIGNED PARAM ;
       49      597    1   DCL 1 SQH$                      PTR ALIGNED PARAM ;
       50      598    1   DCL 1 DQH$                      PTR ALIGNED PARAM ;
       51      599    1   DCL 1 MPC$                      PTR ALIGNED PARAM ;
       52      600        /*
       53      601                Auto
       54      602        */
       55      603    1   DCL 1 I                         UBIN ALIGNED AUTO ;
       56      604        /*
       57      605                Based
       58      606        */
       59      607        %NI$CHT                         ( STCLASS="(0:0) BASED(NI$CHT$)" ) ;
       60      610        %NI$DCT                         ( STCLASS="BASED(DCT$)"          ) ;
       61      658        %NI$DQH                         ( STCLASS="BASED(DQH$)"          ) ;
       62      681        %NI$DVT ;
       63      688        %NI$SQH                         ( STCLASS="BASED(SQH$)"          ) ;
       64      701        %EJECT ;
PL6.E3A0      #001=TDU$FINDPATH File=TDU$FIND.:E05TSI                            WED 07/30/97 06:05 Page:8
       65      702    1           DQH$=NI$CHT.DQH$(PATH.IOM*%N_MAXCHANS+PATH.CHAN);

    702  0 000002   200003 470500                    LDP0    @PATH,,AUTO
         0 000003   003100 061500                    CSR     bolr='003'O
         0 000004   000000 200011                    BDSC    0,,PR0                   by=1,bit=0,n=9
         0 000005   200012 000044                    BDSC    I+1,,AUTO                by=0,bit=0,n=36
         0 000006   003100 061500                    CSR     bolr='003'O
         0 000007   000000 060003                    BDSC    0,,PR0                   by=0,bit=6,n=3
         0 000010   200013 000044                    BDSC    I+2,,AUTO                by=0,bit=0,n=36
         0 000011   200013 236100                    LDQ     I+2,,AUTO
         0 000012   000007 736000                    QLS     7
         0 000013   200012 036100                    ADLQ    I+1,,AUTO
         0 000014   000001 736000                    QLS     1
         0 000015   000000 471400 xsym               LDP1    NI$CHT$
         0 000016   100000 236106                    LDQ     0,QL,PR1
         0 000017   200007 473500                    LDP3    @DQH$,,AUTO
         0 000020   300000 756100                    STQ     0,,PR3

       66      703    1           IF DQH$=ADDR(NIL) THEN ALTRETURN;

    703  0 000021   000001 116000 xsym               CMPQ    B_VECTNIL+1
         0 000022   000024 601000 0                  TNZ     s:704

    703  0 000023   000000 702200 xent               TSX2  ! X66_AALT

       67      704    1           SQH$=NI$DQH.SQH$;

    704  0 000024   300000 471500                    LDP1    0,,PR3
         0 000025   100013 236100                    LDQ     11,,PR1
         0 000026   200006 474500                    LDP4    @SQH$,,AUTO
         0 000027   400000 756100                    STQ     0,,PR4

       68      705    1           IF SQH$=ADDR(NIL) THEN

    705  0 000030   000001 116000 xsym               CMPQ    B_VECTNIL+1
         0 000031   000046 601000 0                  TNZ     s:712

PL6.E3A0      #001=TDU$FINDPATH File=TDU$FIND.:E05TSI                            WED 07/30/97 06:05 Page:9
       69      706    2              IF MPCFLG AND NI$DQH.FEX~=0 THEN DO;

    706  0 000032   200004 471500                    LDP1    @MPCFLG,,AUTO
         0 000033   100000 234100                    SZN     0,,PR1
         0 000034   000045 605000 0                  TPL     s:711
         0 000035   300000 475500                    LDP5    0,,PR3
         0 000036   500001 236100                    LDQ     1,,PR5
         0 000037   007700 316007                    CANQ    4032,DL
         0 000040   000045 600000 0                  TZE     s:711

       70      707    2                 DCT$=ADDR(NIL);

    707  0 000041   000001 236000 xsym               LDQ     B_VECTNIL+1
         0 000042   200005 476500                    LDP6    @DCT$,,AUTO
         0 000043   600000 756100                    STQ     0,,PR6

       71      708    2                 RETURN;                    /* FEP */

    708  0 000044   000000 702200 xent               TSX2  ! X66_ARET

       72      709    2                 END;
       73      710    1              ELSE
       74      711    1                 ALTRETURN;

    711  0 000045   000000 702200 xent               TSX2  ! X66_AALT

       75      712    1           MPC$=NI$DQH.MPC$;

    712  0 000046   300000 471500                    LDP1    0,,PR3
         0 000047   100015 236100                    LDQ     13,,PR1
         0 000050   200010 475500                    LDP5    @MPC$,,AUTO
         0 000051   500000 756100                    STQ     0,,PR5

       76      713    2           IF PATH.DVN=0 THEN DO;

    713  0 000052   003100 061500                    CSR     bolr='003'O
         0 000053   000000 000006                    BDSC    0,,PR0                   by=0,bit=0,n=6
PL6.E3A0      #001=TDU$FINDPATH File=TDU$FIND.:E05TSI                            WED 07/30/97 06:05 Page:10
         0 000054   200012 000044                    BDSC    I+1,,AUTO                by=0,bit=0,n=36
         0 000055   200012 236100                    LDQ     I+1,,AUTO
         0 000056   000000 116003                    CMPQ    0,DU
         0 000057   000105 601000 0                  TNZ     s:723

       77      714    3              IF MPC$=ADDR(NIL) AND NOT MPCFLG THEN DO;

    714  0 000060   500000 236100                    LDQ     0,,PR5
         0 000061   000001 116000 xsym               CMPQ    B_VECTNIL+1
         0 000062   000075 601000 0                  TNZ     s:718
         0 000063   200004 471500                    LDP1    @MPCFLG,,AUTO
         0 000064   100000 234100                    SZN     0,,PR1
         0 000065   000075 604000 0                  TMI     s:718

       78      715    3                 DCT$=N$DCT$(NI$SQH.FDCT); /* CONSOLE                            */

    715  0 000066   400000 476500                    LDP6    0,,PR4
         0 000067   600002 220100                    LDX0    2,,PR6
         0 000070   000000 477400 xsym               LDP7    N$DCT$$
         0 000071   700000 236110                    LDQ     0,X0,PR7
         0 000072   200005 470500                    LDP0    @DCT$,,AUTO
         0 000073   000000 756100                    STQ     0,,PR0

       79      716    3                 RETURN;

    716  0 000074   000000 702200 xent               TSX2  ! X66_ARET

       80      717    3                 END;
       81      718    3              ELSE IF MPC$~=ADDR(NIL) AND MPCFLG THEN DO;

    718  0 000075   000001 116000 xsym               CMPQ    B_VECTNIL+1
         0 000076   000105 600000 0                  TZE     s:723
         0 000077   200004 471500                    LDP1    @MPCFLG,,AUTO
         0 000100   100000 234100                    SZN     0,,PR1
         0 000101   000105 605000 0                  TPL     s:723

       82      719    3                 DCT$=MPC$;                /* MPC                                */
PL6.E3A0      #001=TDU$FINDPATH File=TDU$FIND.:E05TSI                            WED 07/30/97 06:05 Page:11

    719  0 000102   200005 476500                    LDP6    @DCT$,,AUTO
         0 000103   600000 756100                    STQ     0,,PR6

       83      720    3                 RETURN;

    720  0 000104   000000 702200 xent               TSX2  ! X66_ARET

       84      721    3                 END;
       85      722    2              END;
       86      723    2           DO I=NI$SQH.FDCT TO NI$SQH.FDCT+NI$SQH.NDCT-1;

    723  0 000105   400000 471500                    LDP1    0,,PR4
         0 000106   100002 236100                    LDQ     2,,PR1
         0 000107   000022 772000                    QRL     18
         0 000110   200011 756100                    STQ     I,,AUTO
         0 000111   000172 710000 0                  TRA     s:731+3

       87      724    2              DCT$=N$DCT$(I);

    724  0 000112   000000 470400 xsym               LDP0    N$DCT$$
         0 000113   200011 720100                    LXL0    I,,AUTO
         0 000114   000000 236110                    LDQ     0,X0,PR0
         0 000115   200005 471500                    LDP1    @DCT$,,AUTO
         0 000116   100000 756100                    STQ     0,,PR1

       88      725    3              DO CASE(NI$DCT.TYPE);

    725  0 000117   100000 470500                    LDP0    0,,PR1
         0 000120   000007 236100                    LDQ     7,,PR0
         0 000121   000006 772000                    QRL     6
         0 000122   000077 376007                    ANQ     63,DL
         0 000123   000011 116007                    CMPQ    9,DL
         0 000124   000126 602006 0                  TNC     s:725+7,QL
         0 000125   000167 710000 0                  TRA     s:731
         0 000126   000167 710000 0                  TRA     s:731
         0 000127   000137 710000 0                  TRA     s:727
PL6.E3A0      #001=TDU$FINDPATH File=TDU$FIND.:E05TSI                            WED 07/30/97 06:05 Page:12
         0 000130   000137 710000 0                  TRA     s:727
         0 000131   000137 710000 0                  TRA     s:727
         0 000132   000155 710000 0                  TRA     s:729
         0 000133   000167 710000 0                  TRA     s:731
         0 000134   000155 710000 0                  TRA     s:729
         0 000135   000167 710000 0                  TRA     s:731
         0 000136   000155 710000 0                  TRA     s:729

       89      726    3               CASE(%DV_CR,%DV_CP,%DV_LP);

       90      727    3                 IF NI$DCT.DQH$=DQH$ AND NI$DCT.DVN=PATH.DVN THEN RETURN;

    727  0 000137   200007 473500                    LDP3    @DQH$,,AUTO
         0 000140   000023 236100                    LDQ     19,,PR0
         0 000141   300000 116100                    CMPQ    0,,PR3
         0 000142   000167 601000 0                  TNZ     s:731
         0 000143   200003 474500                    LDP4    @PATH,,AUTO
         0 000144   003100 061500                    CSR     bolr='003'O
         0 000145   400000 000006                    BDSC    0,,PR4                   by=0,bit=0,n=6
         0 000146   200012 000044                    BDSC    I+1,,AUTO                by=0,bit=0,n=36
         0 000147   000007 236100                    LDQ     7,,PR0
         0 000150   000030 772000                    QRL     24
         0 000151   000077 376007                    ANQ     63,DL
         0 000152   200012 116100                    CMPQ    I+1,,AUTO
         0 000153   000167 601000 0                  TNZ     s:731

    727  0 000154   000000 702200 xent               TSX2  ! X66_ARET

       91      728    3               CASE(%DV_DP,%DV_MT,%DV_AP);

       92      729    3                 IF NI$DCT.DVN=PATH.DVN THEN RETURN;

    729  0 000155   200003 473500                    LDP3    @PATH,,AUTO
         0 000156   003100 061500                    CSR     bolr='003'O
         0 000157   300000 000006                    BDSC    0,,PR3                   by=0,bit=0,n=6
         0 000160   200012 000044                    BDSC    I+1,,AUTO                by=0,bit=0,n=36
         0 000161   000007 236100                    LDQ     7,,PR0
PL6.E3A0      #001=TDU$FINDPATH File=TDU$FIND.:E05TSI                            WED 07/30/97 06:05 Page:13
         0 000162   000030 772000                    QRL     24
         0 000163   000077 376007                    ANQ     63,DL
         0 000164   200012 116100                    CMPQ    I+1,,AUTO
         0 000165   000167 601000 0                  TNZ     s:731

    729  0 000166   000000 702200 xent               TSX2  ! X66_ARET

       93      730    3               END;                   /* CASE NI$DVT$(NI$DCT.DVTX)->NI$DVT.TYPE  */

       94      731    2              END;

    731  0 000167   200011 235100                    LDA     I,,AUTO
         0 000170   000001 035007                    ADLA    1,DL
         0 000171   200011 755100                    STA     I,,AUTO
         0 000172   200006 470500                    LDP0    @SQH$,,AUTO
         0 000173   000000 471500                    LDP1    0,,PR0
         0 000174   100002 236100                    LDQ     2,,PR1
         0 000175   777777 376007                    ANQ     -1,DL
         0 000176   200012 756100                    STQ     I+1,,AUTO
         0 000177   100002 236100                    LDQ     2,,PR1
         0 000200   000022 772000                    QRL     18
         0 000201   200012 036100                    ADLQ    I+1,,AUTO
         0 000202   200011 116100                    CMPQ    I,,AUTO
         0 000203   000205 600000 0                  TZE     s:732
         0 000204   000112 603000 0                  TRC     s:724

       95      732    1           ALTRETURN;                      /* DEVICE NOT FOUND                   */

    732  0 000205   000000 702200 xent               TSX2  ! X66_AALT
       96      733    1   END TDU$FINDPATH;

PL6.E3A0      #001=TDU$FINDPATH File=TDU$FIND.:E05TSI                            WED 07/30/97 06:05 Page:14
--  Include file information  --

   NI$TABLES.:E05TOU  is referenced.
   N$REQ.:E05TOU  is referenced.
   NI_DATA_R.:E05TOU  cannot be made into a system file and is referenced.
   NI_DATA_C.:E05TOU  is referenced.
      No diagnostics issued in procedure TDU$FINDPATH.
PL6.E3A0      #001=TDU$FINDPATH File=TDU$FIND.:E05TSI                            WED 07/30/97 06:05 Page:15

 **** Variables and constants ****

  ****  Auto variables  ****

  ****  Scalars and arrays  ****
OctLoc.c.b A Datatyp(siz) R M Lvl/name                 OctLoc.c.b A Datatyp(siz) R M Lvl/name

     5-0-0/w PTR         r     1 @DCT$                      7-0-0/w PTR         r     1 @DQH$
    10-0-0/w PTR         r     1 @MPC$                      4-0-0/w PTR         r     1 @MPCFLG
     3-0-0/w PTR         r     1 @PATH                      6-0-0/w PTR         r     1 @SQH$
    *0-0-0/w PTR         r     1 DCT$                      *0-0-0/w PTR         r     1 DQH$
    11-0-0/w UBIN        r     1 I                         *0-0-0/w PTR         r     1 MPC$
    *0-0-0/w BIT         r     1 MPCFLG                    *0-0-0/b STRC(18)    r     1 PATH
    *0-0-0/w PTR         r     1 SQH$

  ****  SYMREF variables  ****

  ****  Scalars and arrays  ****
OctLoc.c.b A Datatyp(siz) R M Lvl/name                 OctLoc.c.b A Datatyp(siz) R M Lvl/name

     0-0-0/w PTR         r     1 N$DCT$$                    0-0-0/w PTR         r     1 N$FQ$
     0-0-0/w PTR         r     1 NI$CHT$                    0-0-0/w PTR         r     1 NI$FQ$
     0-0-0/w PTR         r     1 NI$IBUF$                   0-0-0/w PTR         r     1 NI$RP$

  ****  BASED and DCB variables  ****

  ****  Scalars and arrays  ****
OctLoc.c.b A Datatyp(siz) R M Lvl/name                 OctLoc.c.b A Datatyp(siz) R M Lvl/name

     0-0-0/w PTR         r     1 N$DCT$(0:0)                0-0-0/w STRC(72)    r     1 NI$CHT(0:0)
     0-0-0/w STRC(1332)  r     1 NI$DCT                     0-0-0/w STRC(648)   r     1 NI$DQH
     0-0-0/w STRC(252)   r     1 NI$SQH


   Procedure TDU$FINDPATH requires 134 words for executable code.
   Procedure TDU$FINDPATH requires 12 words of local(AUTO) storage.
PL6.E3A0      #001=TDU$FINDPATH File=TDU$FIND.:E05TSI                            WED 07/30/97 06:05 Page:16

    No errors detected in file TDU$FIND.:E05TSI    .
PL6.E3A0      #001=TDU$FINDPATH File=TDU$FIND.:E05TSI                            WED 07/30/97 06:05 Page:17
          *** CROSS REFERENCE LISTING ***
**     DENOTES     IDENTIFIER DEFINITION
<<                 IDENTIFIER'S VALUE SET
>>                 IDENTIFIER'S VALUE USED
<>                 IDENTIFIER SET AND/OR USED
--                 IDENTIFIER REFERENCED
PL6.E3A0      #001=TDU$FINDPATH File=TDU$FIND.:E05TSI                            WED 07/30/97 06:05 Page:18
          MINI XREF LISTING

DCT$
       596**DCL         7--PROC      619--IMP-PTR   707<<ASSIGN    715<<ASSIGN    719<<ASSIGN    724<<ASSIGN
       725>>DOCASE    727>>IF        727>>IF        729>>IF
DQH$
       598**DCL         7--PROC      667--IMP-PTR   702<<ASSIGN    703>>IF        704>>ASSIGN    706>>IF
       712>>ASSIGN    727>>IF
I
       603**DCL       723<<DOINDEX   724>>ASSIGN
MPC$
       599**DCL         7--PROC      712<<ASSIGN    714>>IF        718>>IF        719>>ASSIGN
MPCFLG
       595**DCL         7--PROC      706>>IF        714>>IF        718>>IF
N$DCT$
       583**DCL       715>>ASSIGN    724>>ASSIGN
N$DCT$$
       449**DCL       583--IMP-PTR   715>>ASSIGN    724>>ASSIGN
N$FQ$
       449**DCL       584--IMP-PTR
N$REQ_INIT.BUFADDR
       468**DCL       469--REDEF     469--REDEF
N$REQ_INIT.DLA.DRELADDR
       460**DCL       460--REDEF
N$REQ_INIT.DVE.EOMCHAR
       497**DCL       498--REDEF
N$REQ_INIT.EAINFO
       491**DCL       491--REDEF
N$REQ_INIT.EAINFOX
       491**DCL       492--REDEF
N$REQ_INIT.EVNTINFO
       492**DCL       492--REDEF
N$REQ_INIT.STATUS
       473**DCL       479--REDEF
PL6.E3A0      #001=TDU$FINDPATH File=TDU$FIND.:E05TSI                            WED 07/30/97 06:05 Page:19
NI$CHT.DQH$
       608**DCL       702>>ASSIGN
NI$CHT$
       508**DCL       608--IMP-PTR   702>>ASSIGN
NI$DCT.DP
       639**DCL       646--REDEF     649--REDEF     650--REDEF     652--REDEF     652--REDEF     653--REDEF
       654--REDEF     654--REDEF
NI$DCT.DQH$
       635**DCL       727>>IF
NI$DCT.DVN
       628**DCL       727>>IF        729>>IF
NI$DCT.MPC.IOCHANX
       647**DCL       647--REDEF
NI$DCT.TYPE
       629**DCL       725>>DOCASE
NI$DQH.FEX
       670**DCL       706>>IF
NI$DQH.IOCHANX
       669**DCL       670--REDEF
NI$DQH.MBX$
       678**DCL       679--REDEF
NI$DQH.MPC$
       674**DCL       712>>ASSIGN
NI$DQH.SQH$
       673**DCL       704>>ASSIGN
NI$DVT.MPC
       684**DCL       685--REDEF
NI$FQ$
       509**DCL       585--IMP-PTR
NI$IBUF$
       509**DCL       585--IMP-PTR
NI$IMXMBX_INIT.PAGED_BASE
       519**DCL       520--REDEF     520--REDEF
NI$IMXMBX_INIT.SIZE
       521**DCL       521--REDEF
NI$REQ_INIT.DCW
PL6.E3A0      #001=TDU$FINDPATH File=TDU$FIND.:E05TSI                            WED 07/30/97 06:05 Page:20
       543**DCL       546--REDEF
NI$REQ_INIT.DCW.TALLY
       544**DCL       544--REDEF
NI$REQ_INIT.IDCW.EXTA
       546**DCL       546--REDEF
NI$REQ_INIT.PCW
       548**DCL       552--REDEF
NI$REQ_INIT.SEEK
       553**DCL       554--REDEF     555--REDEF
NI$RP$
       557**DCL       587--IMP-PTR
NI$SQH.DOOR
       697**DCL       697--REDEF
NI$SQH.FDCT
       697**DCL       715>>ASSIGN    723>>DOINDEX   723>>DOINDEX
NI$SQH.NDCT
       698**DCL       723>>DOINDEX
NI_MBX_INIT.DCW.CONTROL.AE
       579**DCL       579--REDEF
NI_MBX_INIT.LPW.CONTROL.AE
       575**DCL       575--REDEF
PATH
       591**DCL         7--PROC
PATH.CHAN
       594**DCL       702>>ASSIGN
PATH.DVN
       592**DCL       713>>IF        727>>IF        729>>IF
PATH.IOM
       593**DCL       702>>ASSIGN
SQH$
       597**DCL         7--PROC      697--IMP-PTR   704<<ASSIGN    705>>IF        715>>ASSIGN    723>>DOINDEX
       723>>DOINDEX   723>>DOINDEX
