VERSION E05

PL6.E3A0      #001=TD_DATA_D File=TD_DATA_D.:E05TSI                              WED 07/30/97 06:06 Page:1
        1        1        /*M* TD_DATA_D - DATA MODULE FOR DIAGNOSTIC SERVICES */
        2        2        /*T***********************************************************/
        3        3        /*T*                                                         */
        4        4        /*T* Copyright (c) Bull HN Information Systems Inc., 1997    */
        5        5        /*T*                                                         */
        6        6        /*T***********************************************************/
        7        7        /**/
        8        8        TD_DATA_D: PROC;
        9        9        /**/
       10       10    1   DCL TD_OPENGATE BIT(72) STATIC SYMDEF ALIGNED INIT('1'B);
       11       11    1   DCL TD_RELEASE_IDCW BIT(36) STATIC SYMDEF ALIGNED INIT('200000704200'O);
       12       12        /**/
       13       13    1   END TD_DATA_D;

PL6.E3A0      #001=TD_DATA_D File=TD_DATA_D.:E05TSI                              WED 07/30/97 06:06 Page:2
      No diagnostics issued in procedure TD_DATA_D.

   No code generated for procedure TD_DATA_D .
   Procedure TD_DATA_D requires 4 words of local(AUTO) storage.

    No errors detected in file TD_DATA_D.:E05TSI    .

PL6.E3A0      #001=TD_DATA_D File=TD_DATA_D.:E05TSI                              WED 07/30/97 06:06 Page:3

 Object Unit name= TD_DATA_D                                  File name= TD_DATA_D.:E05TOU
 UTS= JUL 30 '97 06:06:01.40 WED                              Compiler= PL-6/E31         Sev=      00
 SharedLib= :SHARED_SYSTEM                                    Alt SharedLib=


    ****  Control sections  ****

 Sect   Type Bound  Init  Size OctSiz  Section name(segment info)
    0   Data  even  none     3      3  TD_DATA_D
    1   Proc  even  none     0      0  TD_DATA_D

    ****  Entry defs  ****

                              Check   Calling
                             calling  sequence
  Sect OctLoc Primary Altret sequence   type   Parms  Name
     1      0   yes            yes     ~proc       0  TD_DATA_D

  ****  Data defs  ****

 Sect OctLoc  Name                           Sect OctLoc  Name
    0      0  TD_OPENGATE                        0      2  TD_RELEASE_IDCW
PL6.E3A0      #001=TD_DATA_D File=TD_DATA_D.:E05TSI                              WED 07/30/97 06:06 Page:4


(unnamed)
 Sect OctLoc
   0     000   400000 000000   000000 000000   200000 704200                    ............
        1        1        /*M* TD_DATA_D - DATA MODULE FOR DIAGNOSTIC SERVICES */
        2        2        /*T***********************************************************/
        3        3        /*T*                                                         */
        4        4        /*T* Copyright (c) Bull HN Information Systems Inc., 1997    */
        5        5        /*T*                                                         */
        6        6        /*T***********************************************************/
        7        7        /**/
        8        8        TD_DATA_D: PROC;
        9        9        /**/
       10       10    1   DCL TD_OPENGATE BIT(72) STATIC SYMDEF ALIGNED INIT('1'B);
       11       11    1   DCL TD_RELEASE_IDCW BIT(36) STATIC SYMDEF ALIGNED INIT('200000704200'O);
       12       12        /**/
       13       13    1   END TD_DATA_D;

PL6.E3A0      #001=TD_DATA_D File=TD_DATA_D.:E05TSI                              WED 07/30/97 06:06 Page:5
      No diagnostics issued in procedure TD_DATA_D.
PL6.E3A0      #001=TD_DATA_D File=TD_DATA_D.:E05TSI                              WED 07/30/97 06:06 Page:6

 **** Variables and constants ****


   No code generated for procedure TD_DATA_D .
   Procedure TD_DATA_D requires 4 words of local(AUTO) storage.

    No errors detected in file TD_DATA_D.:E05TSI    .
PL6.E3A0      #001=TD_DATA_D File=TD_DATA_D.:E05TSI                              WED 07/30/97 06:06 Page:7
          *** CROSS REFERENCE LISTING ***
**     DENOTES     IDENTIFIER DEFINITION
<<                 IDENTIFIER'S VALUE SET
>>                 IDENTIFIER'S VALUE USED
<>                 IDENTIFIER SET AND/OR USED
--                 IDENTIFIER REFERENCED
PL6.E3A0      #001=TD_DATA_D File=TD_DATA_D.:E05TSI                              WED 07/30/97 06:06 Page:8
          MINI XREF LISTING

