PL6.E3A0      #003=THC$REPORT File=THC$COMMANDS.:E05TSI                          WED 07/30/97 06:07 Page:43
      173        1        /*T***********************************************************/
      174        2        /*T*                                                         */
      175        3        /*T* Copyright (c) Bull HN Information Systems Inc., 1997    */
      176        4        /*T*                                                         */
      177        5        /*T***********************************************************/
      178        6        THC$REPORT: PROC(TOP$);
      179        7    1   DCL TOP$ PTR;
      180        8        /**/
      181        9        /* INCLUDE FILES */
      182       10        %INCLUDE CP_6;
      183       91        %INCLUDE CP_6_SUBS;
      184      631        %INCLUDE XU_MACRO_C;
      185     3737        %INCLUDE F$DCB;
      186     3786        %INCLUDE EL$TABLES;
      187     4109        %INCLUDE NI$TABLES;
      188     4325        %INCLUDE TH_SUBS_C;
      189     4707        %INCLUDE TH_DATA_R;
      190     4785        %INCLUDE EL_SUBS_C;
      191     4869        %INCLUDE ZL_MACRO_C;
      192     5519        %INCLUDE B_ERRORS_C;
      193     6646        %INCLUDE XUD_UTS_M;
      194     6728        /**/
      195     6729        /* ENTRY DEFS */
      196     6730    1   DCL X$SORT ENTRY(1) ALTRET;
      197     6731    1   DCL IOERR$COMPARE ENTRY(3);
      198     6732    1   DCL FEPERR$COMPARE ENTRY(3);
      199     6733    1   DCL THM$ERRMSG ENTRY(1);
      200     6734    1   DCL THS$SET_DEVS ENTRY(3) ALTRET;
      201     6735    1   DCL THF$DUMP ENTRY(3);
      202     6736    1   DCL THF$RAW ENTRY(1);
      203     6737    1   DCL THG$GETREC ENTRY(4) ALTRET;
      204     6738    1   DCL THG$OPENXSA ENTRY(1) ALTRET;
      205     6739    1   DCL THG$PRECORDXSA ENTRY(1) ALTRET;
      206     6740    1   DCL THG$CLOSEXSA ENTRY ALTRET;
      207     6741    1   DCL THW$WRITE ENTRY(11);
      208     6742    1   DCL THF$HWE ENTRY(1);
      209     6743    1   DCL THF$CONFIG ENTRY(1);
PL6.E3A0      #003=THC$REPORT File=THC$COMMANDS.:E05TSI                          WED 07/30/97 06:07 Page:44
      210     6744    1   DCL THC$TYPENAME ENTRY(3);
      211     6745    1   DCL THF$ADD_TEXTC ENTRY(3);
      212     6746    1   DCL THF$AMS ENTRY;
      213     6747    1   DCL THF$UPR ENTRY;
      214     6748    1   DCL THF$SYS ENTRY;
      215     6749        /**/
      216     6750        /* DCBS */
      217     6751    1   DCL M$LO DCB;
      218     6752    1   DCL M$ONFILE DCB;
      219     6753    1   DCL M$ERRLOG2 DCB;
      220     6754    1   DCL M$ERRLOG3 DCB;
      221     6755    1   DCL M$ERRLOG4 DCB;
      222     6756    1   DCL M$ERRLOG5 DCB;
      223     6757        /**/
      224     6758        /**/
      225     6759        /* SUBS FOR DEVICE TYPE CHECKING */
      226     6760        %EQU DV_SC = 0;
      227     6761        %EQU DV_MPC = 6;
      228     6762        /**/
      229     6763        /* VARIABLES */
      230     6764    1   DCL START_TIME UBIN WORD;
      231     6765    1   DCL STOP_TIME UBIN WORD;
      232     6766    1   DCL ONFILE_SPECIFIED BIT(1) STATIC INIT('0'B);
      233     6767    1   DCL OUTPUT_DCB# UBIN STATIC SYMDEF INIT( DCBNUM(M$LO));
      234     6768    1   DCL TEXT$ PTR;
      235     6769    1   DCL TEXTBUF CHAR(900) STATIC INIT(' ');
      236     6770    1   DCL 1 TVEC DALIGNED,
      237     6771    1         2 BOUND UBIN(20) UNAL,
      238     6772    1         2 * BIT(16) UNAL,
      239     6773    1         2 PTR$ PTR;
      240     6774    1   DCL TEMP_BUF CHAR(132) STATIC INIT(' ');
      241     6775    1   DCL TEMP_BUF2 CHAR(900);
      242     6776    1   DCL BUF_COUNT UBIN;
      243     6777    1   DCL TH_RAW_FMT(0:0) PTR SYMREF;
      244     6778    1   DCL TH_DETAIL_FMT(0:0) PTR SYMREF;
      245     6779    1   DCL TH_EXTENDED_FMT(0:0) PTR SYMREF;
      246     6780    1   DCL TYPE UBIN WORD;
PL6.E3A0      #003=THC$REPORT File=THC$COMMANDS.:E05TSI                          WED 07/30/97 06:07 Page:45
      247     6781    1   DCL DBUF CHAR(8) STATIC;
      248     6782    1   DCL TBUF CHAR(11) STATIC;
      249     6783    1   DCL LOC_UTS UBIN WORD STATIC;
      250     6784    1   DCL DUMP_HDR CHAR(0) CONSTANT INIT('%2/ TYPE = %D  TIME = %A - %A %10P');
      251     6785    1   DCL DUMP_FMT BIT(72) DALIGNED STATIC INIT(VECTOR(DUMP_HDR));
      252     6786    1   DCL SYM$ PTR;
      253     6787    1   DCL TEXT CHAR(8);
      254     6788    1   DCL CODE UBIN WORD;
      255     6789    1   DCL COMP_CODE UBIN;
      256     6790    1   DCL LEN UBIN WORD;
      257     6791    1   DCL TEXT_LEN UBIN WORD STATIC INIT(0);
      258     6792    1   DCL BUF_INDX UBIN WORD STATIC INIT(0);
      259     6793    1   DCL I UBIN;
      260     6794    1   DCL J UBIN;
      261     6795    1   DCL K SBIN;
      262     6796    1   DCL FOUND BIT(1);
      263     6797    1   DCL FOR_CLAUSE_FLG BIT(1);
      264     6798    1   DCL MEMORY_ERRORS BIT(1);
      265     6799    1   DCL NUM_IOERR_REC SBIN;
      266     6800    1   DCL NUM_FEPERR SBIN;
      267     6801    1   DCL NUM_RECS SBIN;
      268     6802    1   DCL NUM_TYPES SBIN;
      269     6803    1   DCL NUM_DEV SBIN;
      270     6804    1   DCL TYPES(0:%NTYPES) UBIN;
      271     6805    1   DCL RECORD_TYPE UBIN;
      272     6806    1   DCL TYPEB UBIN BYTE;
      273     6807    1   DCL TYPE_CNT(0:%NTYPES) UBIN;
      274     6808    1   DCL DEVNM(0:200) CHAR(8);
      275     6809    1   DCL DEV_CNT(0:200) SBIN;
      276     6810    1   DCL DEV_MOUNT(0:200) SBIN;
      277     6811    1   DCL CONNECTS(0:200) SBIN;
      278     6812    1   DCL ERRORS(0:200) SBIN;
      279     6813    1   DCL INFO$ PTR;
      280     6814        %EL$ENTRY(NAME=RECORD,STCLASS="BASED(TH_RECORD.PTR$)");
      281     6818        %EL$IOERR(STCLASS="BASED(INFO$)");
      282     6828        %EL$FEPERR(STCLASS="BASED(INFO$)");
      283     6907        %EL$MTDMT(STCLASS="BASED(INFO$)");
PL6.E3A0      #003=THC$REPORT File=THC$COMMANDS.:E05TSI                          WED 07/30/97 06:07 Page:46
      284     6910    1   DCL OLD_FEPERR_DATE UBIN WORD STATIC;
      285     6911    1   DCL OLD_IOERR_DATE UBIN WORD STATIC;
      286     6912    1   DCL NEW_FEPERR_DATE UBIN WORD STATIC;
      287     6913    1   DCL NEW_IOERR_DATE UBIN WORD STATIC;
      288     6914    1   DCL OLD_FEPERR_TIME CHAR(11) STATIC;
      289     6915    1   DCL OLD_IOERR_TIME CHAR(11) STATIC;
      290     6916    1   DCL NEW_FEPERR_TIME CHAR(11) STATIC;
      291     6917    1   DCL NEW_IOERR_TIME CHAR(11) STATIC;
      292     6918    1   DCL COUNT UBIN WORD;
      293     6919    1   DCL REPORT_CODE UBIN;
      294     6920    1   DCL ERRLOG_DATE UBIN WORD STATIC;
      295     6921    1   DCL DAY_BUF CHAR(3) STATIC;
      296     6922    1   DCL EOF_FLAG BIT(1);
      297     6923    1   DCL DATE_BUF CHAR(10) STATIC;
      298     6924    1   DCL NOTIMP CHAR(0) CONSTANT INIT('Unimplimented report%10P');
      299     6925    1   DCL FEPNOTIMP CHAR(0) CONSTANT INIT('HWE for FEPs not currently implimented%10P');
      300     6926    1   DCL IOMNOTIMP CHAR(0) CONSTANT INIT('HWE for IOMs not currently implimented%10P');
      301     6927    1   DCL MPCNOTIMP CHAR(0) CONSTANT INIT('HWE for MPCs not currently implimented%10P');
      302     6928    1   DCL TYPE_FMT CHAR(0) CONSTANT INIT(
      303     6929    1   'ERROR TYPES: %T%10P');
      304     6930    1   DCL SUM_FMT CHAR(0) CONSTANT INIT(
      305     6931    1   '%2/SYSTEM ERRORS%2/TYPE  (MNEMONIC)%38-COUNT%/----------------------------------- -
              6931        -----%10P');
      306     6932    1   DCL SUM_ENTRY CHAR(0) CONSTANT INIT(
      307     6933    1   '%T%37-%2P%6D%10P');
      308     6934    1   DCL DEV_FMT CHAR(0) CONSTANT INIT(
      309     6935    1   '%2/PERIPHERAL DEVICE ERRORS%2/DEVICE   COUNT ACTIVITY #RETRY MOUNTS%/-------- -----
              6935         -------- ------ ------%10P');
      310     6936    1   DCL DEV_HDR BIT(72) DALIGNED STATIC INIT(VECTOR(DEV_FMT));
      311     6937    1   DCL DEV_ENTRY CHAR(0) CONSTANT INIT(
      312     6938    1   '%4A%10-%2P%5D%16-%3P%8D%26-%4P%5D%33-%5P%5D%10P');
      313     6939    1   DCL SUM_TOT  CHAR(0) CONSTANT INIT(
      314     6940    1   '%2/TOTAL ERRORS: %D%10P');
      315     6941    1   DCL AMS_HDR CHAR(0) CONSTANT INIT(
      316     6942    1   'Anticipatory Maintenance Summary for %2P%T   %14.36.6U%10P');
      317     6943    1   DCL CONFIG_HDR CHAR(0) CONSTANT INIT(
      318     6944    1   'Configuration Report (%5P%T) for %2P%T   %14.36.6U%10P');
PL6.E3A0      #003=THC$REPORT File=THC$COMMANDS.:E05TSI                          WED 07/30/97 06:07 Page:47
      319     6945    1   DCL HWA_HDR CHAR(0) CONSTANT INIT(
      320     6946    1   '%2/Hardware Analysis Report (%5P%T) for %2P%T from %3P%14.36.2U to %4P%14.36.2U%2/%
              6946        10P');
      321     6947    1   DCL HWE_HDR CHAR(0) CONSTANT INIT(
      322     6948    1   'Hardware Error Report (%5P%T) for %2P%T from %3P%14.36.2U to %4P%14.36.2U%10P');
      323     6949    1   DCL IMS_HDR CHAR(0) CONSTANT INIT(
      324     6950    1   '%2/Installation Management Summary for %2P%T from %3P%14.36.2U to %4P%14.36.2U%2/%1
              6950        0P');
      325     6951    1   DCL KEYIN_HDR CHAR(0) CONSTANT INIT(
      326     6952    1   '%2/Keyin Report for %2P%T from %3P%14.36.2U to %4P%14.36.2U%2/%10P');
      327     6953    1   DCL MPR_HDR CHAR(0) CONSTANT INIT(
      328     6954    1   '%10P');                                /* MPR FORMAT                         */
      329     6955    1   DCL PPR_HDR CHAR(0) CONSTANT INIT(
      330     6956    1   '%10P');                                /* PPR FORMAT                         */
      331     6957    1   DCL RAS_HDR CHAR(0) CONSTANT INIT(
      332     6958    1   '%10P');                                /* RAS FORMAT                         */
      333     6959    1   DCL RAW_HDR CHAR(0) CONSTANT INIT(
      334     6960    1   'Error Log Listing (%5P%T) for %2P%T from %3P%14.36.2U to %4P%14.36.2U%10P');
      335     6961    1   DCL SEC_HDR CHAR(0) CONSTANT INIT(
      336     6962    1   '%10P');                                /* SEC REPORT                         */
      337     6963    1   DCL SWE_HDR CHAR(0) CONSTANT INIT(
      338     6964    1   '%10P');                                /* SWE REPORT                         */
      339     6965    1   DCL SYS_HDR CHAR(0) CONSTANT INIT(
      340     6966    1   'System Summary for %2P%T from %3P%14.36.2U to %4P%14.36.2U%10P');
      341     6967    1   DCL UPR_HDR CHAR(0) CONSTANT INIT(
      342     6968    1   'Unit Performance Report (%5P%T) for %2P%T    %14.36.6U%10P');
      343     6969    1   DCL SUM_HDR CHAR(0) CONSTANT INIT(
      344     6970    1   'Error Log Summary for %2P%T from %3P%14.36.2U to %4P%14.36.2U%10P');
      345     6971    1   DCL DETAIL_HDR CHAR(0) CONSTANT INIT(
      346     6972        'DETAIL ERROR REPORT for %2P%T %2/
      347     6973    1   REPORT PERIOD FROM %3P%14.36.2U TO %4P%14.36.2U %10P');
      348     6974    1   DCL IOERR_HDR CHAR(0) CONSTANT INIT(
      349     6975    1   '%/*** PERIPHERAL I/O DATA ERROR DETAIL REPORT ***%10P');
      350     6976    1   DCL FEPERR_HDR CHAR(0) CONSTANT INIT(
      351     6977    1   '%/*** FEPERR DETAIL REPORT ***%10P');
      352     6978    1   DCL MATCH_FMT CHAR(0) CONSTANT INIT(
      353     6979    1   'STATUS MATCH: %T%10P');
PL6.E3A0      #003=THC$REPORT File=THC$COMMANDS.:E05TSI                          WED 07/30/97 06:07 Page:48
      354     6980    1   DCL EXCLUDE_FMT CHAR(0) CONSTANT INIT(
      355     6981    1   'STATUS EXCLUDE: %T%10P');
      356     6982    1   DCL HDR_TBL(0:17) BIT(72) DALIGNED CONSTANT INIT(VECTOR(NIL),
      357     6983    1                             VECTOR(AMS_HDR),
      358     6984    1                             VECTOR(CONFIG_HDR),
      359     6985    1                             VECTOR(NOTIMP),
      360     6986    1                             VECTOR(HWE_HDR),
      361     6987    1                             VECTOR(NOTIMP),
      362     6988    1                             VECTOR(NOTIMP),
      363     6989    1                             VECTOR(NOTIMP),
      364     6990    1                             VECTOR(NOTIMP),
      365     6991    1                             VECTOR(NOTIMP),
      366     6992    1                             VECTOR(RAW_HDR),
      367     6993    1                             VECTOR(NOTIMP),
      368     6994    1                             VECTOR(NOTIMP),
      369     6995    1                             VECTOR(SYS_HDR),
      370     6996    1                             VECTOR(UPR_HDR),
      371     6997    1                             VECTOR(SUM_HDR),
      372     6998    1                             VECTOR(RAW_HDR),
      373     6999    1                             VECTOR(DETAIL_HDR));
      374     7000    1   DCL TH_OUTBUF CHAR(100) SYMREF;
      375     7001    1   DCL DATE_HDR CHAR(0) CONSTANT INIT('%2/ ***** %A %2P%A ***** %/%10P');
      376     7002    1   DCL DATE_FMT BIT(72) DALIGNED STATIC INIT(VECTOR(DATE_HDR));
      377     7003    1   DCL TIME_HDR CHAR(0) CONSTANT INIT(
      378     7004    1   'OLDEST ENTRY - %2P%8.36.1U %1P%5A   NEWEST ENTRY - %3P%8.36.1U %4P%5A%10P');
      379     7005    1   DCL TIME_FMT BIT(72) DALIGNED STATIC INIT(VECTOR(TIME_HDR));
      380     7006    1   DCL B$TCB$ PTR SYMREF;
      381     7007        /**/
      382     7008        /* MACRO INVOCATIONS */
      383     7009        %NI$DVT (NAME=DVT,STCLASS=BASED);
      384     7016        %PARSE$OUT (NAME=OUT$BLK,STCLASS="BASED(TOP$)");
      385     7061        %PARSE$SYM (NAME=OUT$SYM,STCLASS="BASED(SYM$)");
      386     7099        %B$TCB;
      387     7102        %B$ALT;
      388     7110        %XUD$UTS_ENTRIES;
      389     7142        %XUD_UTS_EQU;
      390     7153        /**/
PL6.E3A0      #003=THC$REPORT File=THC$COMMANDS.:E05TSI                          WED 07/30/97 06:07 Page:49
      391     7154        /* FPT DEFINITIONS */
      392     7155        %FPT_OPEN(FPTN=OPEN_ERRLOG2,
      393     7156                  STCLASS="STATIC SYMDEF",
      394     7157                  ACS=SEQUEN,
      395     7158                  ASN=FILE,
      396     7159                  ORG=CONSEC,
      397     7160                  FUN=CREATE,
      398     7161                  NAME=ERRLOG2,
      399     7162                  DCB=M$ERRLOG2);
      400     7271        %FPT_CLOSE(FPTN=CLOSE_ERRLOG2,
      401     7272                   STCLASS=STATIC,
      402     7273                   DISP=SAVE,
      403     7274                   DCB=M$ERRLOG2);
      404     7316        %FPT_WRITE(FPTN=WRITE_ERRLOG2,
      405     7317                   STCLASS=STATIC,
      406     7318                   DCB=M$ERRLOG2);
      407     7349        %FPT_OPEN(FPTN=OPEN_ERRLOG3,
      408     7350                  STCLASS="STATIC SYMDEF",
      409     7351                  ACS=SEQUEN,
      410     7352                  ASN=FILE,
      411     7353                  FUN=CREATE,
      412     7354                  NAME=ERRLOG3,
      413     7355                  DCB=M$ERRLOG3,
      414     7356                  ORG=CONSEC);
      415     7465        %FPT_CLOSE(FPTN=CLOSE_ERRLOG3,
      416     7466                   STCLASS=STATIC,
      417     7467                   DISP=SAVE,
      418     7468                   DCB=M$ERRLOG3);
      419     7510        %FPT_READ(FPTN=READ_ERRLOG3,
      420     7511                  STCLASS=STATIC,
      421     7512                  DCB=M$ERRLOG3);
      422     7551        %FPT_GDS(FPTN=GET_XSA_BUF,
      423     7552                 FREE=YES,
      424     7553                 RESULTS=TH_XSA_BUF_VECTOR,
      425     7554                 SEGSIZE=1024,
      426     7555                 STCLASS=STATIC);
      427     7571        %ZL_INPUT(FPTN=INPUT_TABLE,STCLASS=STATIC,N=1);
PL6.E3A0      #003=THC$REPORT File=THC$COMMANDS.:E05TSI                          WED 07/30/97 06:07 Page:50
      428     7590        %ZL_FPT(STCLASS=STATIC,FPT=OPEN_ERRLOG2);
      429     7618        %SORT_TABLE(FPTN=SORT_ERRLOG2,
      430     7619                    STCLASS=STATIC,
      431     7620                    INSIZ=1024,
      432     7621                    OUTSIZ=1024,
      433     7622                    KCE=IOERR$COMPARE,
      434     7623                    INPUT=INPUT_TABLE,
      435     7624                    OUTPUT=OPEN_ERRLOG3);
      436     7733        %FPT_TIME (FPTN=RECORD_DATE,
      437     7734                   SOURCE=UTS,
      438     7735                   DEST=EXT,
      439     7736                   DATE=TH_DATE,
      440     7737                   TIME=TH_TIME,
      441     7738                   DAY=TH_DAY,
      442     7739                   TSTAMP=TH_LASTUTS,
      443     7740                   STCLASS=CONSTANT);
      444     7759        %FPT_TIME (FPTN=EXT_DATE,
      445     7760                   STCLASS=CONSTANT,
      446     7761                   SOURCE=UTS,
      447     7762                   TSTAMP=ERRLOG_DATE,
      448     7763                   DEST=EXT,
      449     7764                   DATE=DATE_BUF,
      450     7765                   DAY=DAY_BUF);
      451     7784        %FPT_TIME (FPTN=LOC_DATE,
      452     7785                   STCLASS=CONSTANT,
      453     7786                   SOURCE=UTS,
      454     7787                   TSTAMP=LOC_UTS,
      455     7788                   DATE=DBUF,
      456     7789                   TIME=TBUF,
      457     7790                   DEST=LOCAL);
      458     7809        %FPT_OPEN (FPTN=OPEN_LO,
      459     7810                   STCLASS="SYMREF");
      460     7919        %FPT_OPEN (FPTN=SET_ONFILE,
      461     7920                   DCB=M$ONFILE,
      462     7921                   HDR=LO_HEADER,
      463     7922                   NAME=ONFILE_NAME,
      464     7923                   ACCT=ONFILE_ACCT,
PL6.E3A0      #003=THC$REPORT File=THC$COMMANDS.:E05TSI                          WED 07/30/97 06:07 Page:51
      465     7924                   PASS=ONFILE_PASS,
      466     7925                   SN=ONFILE_SN,
      467     7926                   WSN=ONFILE_WSN,
      468     7927                   FUN=CREATE,
      469     7928                   SCRUB=YES,
      470     7929                   ORG=UR);
      471     8038        %FPT_CLOSE (FPTN=CLOSE_ONFILE,
      472     8039                    STCLASS=CONSTANT,
      473     8040                    DISP=SAVE,
      474     8041                    DCB=M$ONFILE);
      475     8083        %FPT_CLOSE (FPTN=CLOSE_LO,
      476     8084                    STCLASS=CONSTANT,
      477     8085                    DISP=SAVE,
      478     8086                    DCB=M$LO);
      479     8128        %FPT_FID (NAME=ONFILE_NAME,
      480     8129                  ACCT=ONFILE_ACCT,
      481     8130                  PASS=ONFILE_PASS,
      482     8131                  WSN=ONFILE_WSN,
      483     8132                  SN=ONFILE_SN,
      484     8133                  ASN=SET_ONFILE.V.ASN#,
      485     8134                  RES=SET_ONFILE.V.RES#,
      486     8135                  RESULTS=ONFILE_RESULTS);
      487     8158        %FPT_CMDVAR(FPTN=SILENCE_SORT,
      488     8159                    NAME=VLP_NAME,
      489     8160                    VALUE=SORT_SUPPRESS,
      490     8161                    FUN=STORE,
      491     8162                    STCLASS=CONSTANT);
      492     8179        %FPT_OPEN(FPTN=OPEN_ERRLOG4,STCLASS="STATIC SYMDEF",ACS=SEQUEN,ASN=FILE,
      493     8180                  ORG=CONSEC,FUN=CREATE,NAME=ERRLOG4,DCB=M$ERRLOG4);
      494     8289        %FPT_CLOSE(FPTN=CLOSE_ERRLOG4,STCLASS=STATIC,DISP=SAVE,DCB=M$ERRLOG4);
      495     8331        %FPT_WRITE(FPTN=WRITE_ERRLOG4,STCLASS=STATIC,DCB=M$ERRLOG4);
      496     8362        %FPT_OPEN(FPTN=OPEN_ERRLOG5,STCLASS="STATIC SYMDEF",ACS=SEQUEN,FUN=CREATE,
      497     8363                  ASN=FILE,NAME=ERRLOG5,DCB=M$ERRLOG5,ORG=CONSEC);
      498     8472        %FPT_CLOSE(FPTN=CLOSE_ERRLOG5,STCLASS=STATIC,DISP=SAVE,DCB=M$ERRLOG5);
      499     8514        %FPT_READ(FPTN=READ_ERRLOG5,STCLASS=STATIC,DCB=M$ERRLOG5);
      500     8553        %ZL_INPUT(FPTN=INPUT_TBL,STCLASS=STATIC,N=1);
      501     8572        %ZL_FPT(STCLASS=STATIC,FPT=OPEN_ERRLOG4);
PL6.E3A0      #003=THC$REPORT File=THC$COMMANDS.:E05TSI                          WED 07/30/97 06:07 Page:52
      502     8600        %SORT_TABLE(FPTN=SORT_ERRLOG4,STCLASS=STATIC,INSIZ=1024,OUTSIZ=1024,
      503     8601                    KCE=FEPERR$COMPARE,INPUT=INPUT_TBL,OUTPUT=OPEN_ERRLOG5);
      504     8710        %VLP_NAME(NAME='SORT$STAT',STCLASS=CONSTANT);
      505     8737        %VLP_NAME(FPTN=SORT_SUPPRESS,NAME='ERRORS',STCLASS=CONSTANT);
      506     8764        %VLP_NAME(FPTN=ERRLOG2,NAME='*ERRLOG2');
      507     8791        %VLP_NAME(FPTN=ERRLOG3,NAME='*ERRLOG3');
      508     8818        %VLP_NAME(FPTN=ERRLOG4,NAME='*ERRLOG4');
      509     8845        %VLP_NAME(FPTN=ERRLOG5,NAME='*ERRLOG5');
      510     8872        %VLP_NAME (FPTN=ONFILE_NAME,LEN=31);
      511     8899        %VLP_ACCT (FPTN=ONFILE_ACCT);
      512     8912        %VLP_PASS (FPTN=ONFILE_PASS);
      513     8925        %VLP_WSN (FPTN=ONFILE_WSN);
      514     8938        %VLP_SN (FPTN=ONFILE_SN);
      515     8951        %VLR_FID (FPTN=ONFILE_RESULTS);
      516     8970        %VLP_HDR (FPTN=LO_HEADER,
      517     8971                 STCLASS="STATIC SYMDEF",
      518     8972                 COUNT=107,
      519     8973                 HEADERHEIGHT=2,
      520     8974                 TITLE=' ',
      521     8975                 RESETPAGE=YES,
      522     8976                 LEN=106);
      523     8992        %EJECT;
PL6.E3A0      #003=THC$REPORT File=THC$COMMANDS.:E05TSI                          WED 07/30/97 06:07 Page:53
      524     8993    1        ONFILE_SPECIFIED = %FALSE;
      525     8994    1        OUTPUT_DCB# = DCBNUM(M$LO);
      526     8995    1        IF DCBADDR(DCBNUM(M$LO))->F$DCB.FCD THEN CALL M$CLOSE(CLOSE_LO);
      527     8996    1        IF DCBADDR(DCBNUM(M$ONFILE))->F$DCB.FCD THEN CALL M$CLOSE(CLOSE_ONFILE);
      528     8997    1        COMP_CODE = 0;
      529     8998    1        CODE = %ALL;
      530     8999    1        TEMP_BUF = 'ALL';
      531     9000    1        LEN = 0;
      532     9001    1        BUF_INDX = 3;
      533     9002    1        FOR_CLAUSE_FLG = %FALSE;
      534     9003    1        REPORT_CODE = OUT$BLK.SUBLK$(0)->OUT$BLK.CODE;
      535     9004    1        TH_NUM_REP_DEVS = 0;
      536     9005    2        DO I = 1 TO OUT$BLK.NSUBLKS - 1;
      537     9006    3           DO CASE(OUT$BLK.SUBLK$(I)->OUT$BLK.CODE);
      538     9007    3              CASE(%FOR_CLAUSE);
      539     9008    3                 BUF_INDX = 0;
      540     9009    3                 TEMP_BUF = ' ';
      541     9010    4                 DO J = 0 TO OUT$BLK.SUBLK$(I)->OUT$BLK.NSUBLKS - 1;
      542     9011    4                    TEXT = '00000000';
      543     9012    4                    CODE = OUT$BLK.SUBLK$(I)->OUT$BLK.SUBLK$(J)->OUT$BLK.SUBLK$(0)->
              9012                             OUT$BLK.CODE;
      544     9013    4                    LEN = 2;
      545     9014    4                    COMP_CODE = CODE;
      546     9015    5                    DO CASE(CODE);
      547     9016    5                       CASE(%MTU);
      548     9017    5                          TEXT = 'MTU';
      549     9018    5                          COMP_CODE = %PERIPH;
      550     9019    5                          LEN = 3;
      551     9020    5                       CASE(%MSU);
      552     9021    5                          TEXT = 'MSU';
      553     9022    5                          COMP_CODE = %PERIPH;
      554     9023    5                          LEN = 3;
      555     9024    5                       CASE(%CRU);
      556     9025    5                          TEXT = 'CRU';
      557     9026    5                          COMP_CODE = %PERIPH;
      558     9027    5                          LEN = 3;
      559     9028    5                       CASE(%PCU);
PL6.E3A0      #003=THC$REPORT File=THC$COMMANDS.:E05TSI                          WED 07/30/97 06:07 Page:54
      560     9029    5                          TEXT = 'PCU';
      561     9030    5                          COMP_CODE = %PERIPH;
      562     9031    5                          LEN = 3;
      563     9032    5                       CASE(%PRU);
      564     9033    5                          TEXT = 'PRU';
      565     9034    5                          COMP_CODE = %PERIPH;
      566     9035    5                          LEN = 3;
      567     9036    5                       CASE(%MPC1);
      568     9037    5                          TEXT = 'MPC';
      569     9038    5                          COMP_CODE = %MPC;
      570     9039    5                          LEN = 3;
      571     9040    5                       CASE(%CONSOLE);
      572     9041    5                          TEXT = 'CONSOLE';
      573     9042    5                          LEN = 7;
      574     9043    5                       CASE(%MEM);
      575     9044    5                          TEXT = 'MEM';
      576     9045    5                          LEN = 3;
      577     9046    5                       CASE(%MC);
      578     9047    5                          TEXT = 'MC';
      579     9048    5                          COMP_CODE = %PERIPH;
      580     9049    5                       CASE(%MT);
      581     9050    5                          TEXT = 'MT';
      582     9051    5                          COMP_CODE = %PERIPH;
      583     9052    5                       CASE(%SC);
      584     9053    5                          TEXT = 'SC';
      585     9054    5                          COMP_CODE = %PERIPH;
      586     9055    5                       CASE(%DP);
      587     9056    5                          TEXT = 'DP';
      588     9057    5                          COMP_CODE = %PERIPH;
      589     9058    5                       CASE(%CR);
      590     9059    5                          TEXT = 'CR';
      591     9060    5                          COMP_CODE = %PERIPH;
      592     9061    5                       CASE(%CP);
      593     9062    5                          TEXT = 'CP';
      594     9063    5                          COMP_CODE = %PERIPH;
      595     9064    5                       CASE(%LP);
      596     9065    5                          TEXT = 'LP';
PL6.E3A0      #003=THC$REPORT File=THC$COMMANDS.:E05TSI                          WED 07/30/97 06:07 Page:55
      597     9066    5                          COMP_CODE = %PERIPH;
      598     9067    5                       CASE(%AP);
      599     9068    5                          TEXT = 'AP';
      600     9069    5                          COMP_CODE = %PERIPH;
      601     9070    5                       CASE(%OD);
      602     9071    5                          TEXT = 'OD';
      603     9072    5                          COMP_CODE = %PERIPH;
      604     9073    5                       CASE(%AC);
      605     9074    5                          TEXT = 'AC';
      606     9075    5                          COMP_CODE = %MPC;
      607     9076    5                       CASE(%OPC);
      608     9077    5                          TEXT = 'OPTC';
      609     9078    5                          COMP_CODE = %MPC;
      610     9079    5                          LEN = 4;
      611     9080    5                       CASE(%UC);
      612     9081    5                          TEXT = 'UC';
      613     9082    5                          COMP_CODE = %MPC;
      614     9083    5                       CASE(%DC);
      615     9084    5                          TEXT = 'DC';
      616     9085    5                          COMP_CODE = %MPC;
      617     9086    5                       CASE(%TC);
      618     9087    5                          TEXT = 'TC';
      619     9088    5                          COMP_CODE = %MPC;
      620     9089    5                       CASE(%FEP);
      621     9090    5                          TEXT = 'FEP';
      622     9091    5                          LEN = 3;
      623     9092    5                       CASE(%IOM);
      624     9093    5                          TEXT = 'IOM';
      625     9094    5                          LEN = 3;
      626     9095    5                       CASE(%ALL);
      627     9096    5                          COMP_CODE = 0;
      628     9097    5                          TEXT = 'ALL';
      629     9098    5                          LEN = 3;
      630     9099    5                       CASE(%FNP);
      631     9100    5                          TEXT='FEP';
      632     9101    5                          LEN=3;
      633     9102    5                          CODE=%FEP;
PL6.E3A0      #003=THC$REPORT File=THC$COMMANDS.:E05TSI                          WED 07/30/97 06:07 Page:56
      634     9103    5                       CASE(%TAPE);
      635     9104    5                          TEXT='MT';
      636     9105    5                          CODE=%MT;
      637     9106    5                          COMP_CODE=%PERIPH;
      638     9107    5                       CASE(%DISK);
      639     9108    5                          TEXT='DP';
      640     9109    5                          COMP_CODE=%PERIPH;
      641     9110    5                          CODE=%DP;
      642     9111    5                       CASE(%READER);
      643     9112    5                          TEXT='CR';
      644     9113    5                          COMP_CODE=%PERIPH;
      645     9114    5                          CODE=%CR;
      646     9115    5                       CASE(%PUNCH);
      647     9116    5                          TEXT='CP';
      648     9117    5                          COMP_CODE=%PERIPH;
      649     9118    5                          CODE=%CP;
      650     9119    5                       CASE(%PRINTER);
      651     9120    5                          TEXT='LP';
      652     9121    5                          COMP_CODE=%PERIPH;
      653     9122    5                          CODE=%LP;
      654     9123    5                       CASE(%URC);
      655     9124    5                          TEXT='UC';
      656     9125    5                          COMP_CODE=%MPC;
      657     9126    5                          CODE=%UC;
      658     9127    5                    END;                      /* DO CASE CODE                       */
      659     9128    4                    IF OUT$BLK.SUBLK$(I)->OUT$BLK.SUBLK$(J)->OUT$BLK.NSUBLKS = 2
      660     9129    4                       THEN
      661     9130    5                       DO;
      662     9131    5                          SYM$ = OUT$BLK.SUBLK$(I)->OUT$BLK.SUBLK$(J)->OUT$BLK.SUBLK$(1
              9131                                   );
      663     9132    5                          CALL INSERT(TEXT,LEN,OUT$SYM.COUNT,OUT$SYM.TEXT);
      664     9133    5                          LEN = LEN + OUT$SYM.COUNT;
      665     9134    5                          TEXT_LEN = LEN;
      666     9135    5                       END;
      667     9136    4                       ELSE
      668     9137    5                       DO;
      669     9138    5                          TEXT_LEN = LEN;
PL6.E3A0      #003=THC$REPORT File=THC$COMMANDS.:E05TSI                          WED 07/30/97 06:07 Page:57
      670     9139    5                          LEN = 0;
      671     9140    5                       END;
      672     9141    4                    CALL THS$SET_DEVS(CODE,TEXT,LEN) ALTRET(NO_REPORT);
      673     9142    5                    IF BUF_INDX > 0 THEN DO;
      674     9143    5                       CALL INSERT(TEMP_BUF,BUF_INDX,1,',');
      675     9144    5                       BUF_INDX = BUF_INDX + 1;
      676     9145    5                       END;  /* IF BUF_INDX > 0 */
      677     9146    4                    CALL INSERT(TEMP_BUF,BUF_INDX,TEXT_LEN,TEXT);
      678     9147    4                    BUF_INDX = BUF_INDX + TEXT_LEN;
      679     9148    4                    END;  /* DO J */
      680     9149    3                 FOR_CLAUSE_FLG = %TRUE;
      681     9150    3              CASE(%ON_CLAUSE);
      682     9151    3                 SYM$ = OUT$BLK.SUBLK$(I)->OUT$BLK.SUBLK$(1);
      683     9152    3                 FPT_FID.TEXTFID_ = VECTOR(OUT$SYM.TEXT);
      684     9153    3                 CALL M$FID(FPT_FID) ALTRET(FID_ERR);
      685     9154
      686     9155    3                 SET_ONFILE.V.EXIST# = OUT$BLK.SUBLK$(I)->OUT$BLK.SUBLK$(0)->OUT$BLK.
              9155                          CODE;
      687     9156    3                 ONFILE_SPECIFIED = %TRUE;
      688     9157    3                 CALL M$OPEN( SET_ONFILE) ALTRET(OPN_ERR);
      689     9158    3           END;                            /* CASE                               */
      690     9159    2        END;                               /* DO I                               */
      691     9160    1     IF FOR_CLAUSE_FLG
      692     9161    1        THEN ;
      693     9162    2        ELSE DO;
      694     9163    2           TEXT = 'ALL';
      695     9164    2           CALL THS$SET_DEVS(CODE,TEXT,LEN) ALTRET(NO_REPORT);
      696     9165    2           END;
      697     9166    1        TEXT$ = ADDR(TEXTBUF);
      698     9167    1        CALL THF$ADD_TEXTC(TEXT$,TEMP_BUF,BUF_INDX);
      699     9168    1        TVEC = VECTOR(TEXTBUF);
      700     9169    1        TVEC.BOUND = BUF_INDX;
      701     9170    1        CALL THW$WRITE(HDR_TBL(REPORT_CODE),
      702     9171    1                       VECTOR(TH_SITE_ID),
      703     9172    1                       VECTOR(TH_SITE_NAME),
      704     9173    1                       VECTOR(TH_CONSTRAINTS.START),
      705     9174    1                       VECTOR(TH_CONSTRAINTS.STOP),
PL6.E3A0      #003=THC$REPORT File=THC$COMMANDS.:E05TSI                          WED 07/30/97 06:07 Page:58
      706     9175    1                       TVEC);
      707     9176    1     IF ONFILE_SPECIFIED
      708     9177    1      THEN
      709     9178    2       DO;
      710     9179    2         TH_OUTBUF=SUBSTR(TH_OUTBUF,1);
      711     9180    2         CALL INSERT(LO_HEADER.TITL.TITLE#,0,100,TH_OUTBUF);
      712     9181    2         CALL INSERT(LO_HEADER.TITL.TITLE#,101, ,'PAGE');
      713     9182    2         LO_HEADER.TITL.L# = LENGTHC(LO_HEADER.TITL.TITLE#);
      714     9183    2         IF DCBADDR(DCBNUM(M$LO))->F$DCB.FCD THEN CALL M$CLOSE(CLOSE_LO);
      715     9184    2         OUTPUT_DCB# = DCBNUM(M$ONFILE);
      716     9185    2       END;
      717     9186    1        TH_SAVE = TH_CONSTRAINTS;
      718     9187    2        DO CASE(REPORT_CODE);
      719     9188    2           CASE(%AMS);
      720     9189    2            TH_BRKMSG = '0'B;
      721     9190    2              CALL THF$AMS;
      722     9191    2           CASE(%CONFIG);
      723     9192    2            TH_BRKMSG = '0'B;
      724     9193    2              CALL THF$CONFIG(CODE);
      725     9194    2           CASE(%HWA);
      726     9195                                                /* HWA PROCEDURE                      */
      727     9196    2           CASE(%HWE);
      728     9197    2          TH_BRKMSG = '1'B;
      729     9198    2              IF COMP_CODE = %FEP
      730     9199    2                 THEN CALL THW$WRITE(VECTOR(FEPNOTIMP));
      731     9200    2                 ELSE
      732     9201    2              IF COMP_CODE = %MPC
      733     9202    2                 THEN CALL THW$WRITE(VECTOR(MPCNOTIMP));
      734     9203    2                 ELSE
      735     9204    2              IF COMP_CODE = %IOM
      736     9205    2                 THEN CALL THW$WRITE(VECTOR(IOMNOTIMP));
      737     9206    2                 ELSE CALL THF$HWE(COMP_CODE);
      738     9207    2           CASE(%IMS);
      739     9208                                                /* IMS CODE                           */
      740     9209    2           CASE(%KEYIN);
      741     9210                                                /* KEYIN CODE                         */
      742     9211    2           CASE(%MPR);
PL6.E3A0      #003=THC$REPORT File=THC$COMMANDS.:E05TSI                          WED 07/30/97 06:07 Page:59
      743     9212                                                /* MPR CODE                           */
      744     9213    2           CASE(%PPR);
      745     9214                                                /* PPR CODE                           */
      746     9215    2           CASE(%RAS);
      747     9216                                                /* RAS CODE                           */
      748     9217    2           CASE(%RAW,%DETAIL,%EXTENDED);
      749     9218    2            TH_IOERR_FLG = %FALSE;
      750     9219    2            TH_FEPERR_FLG = %FALSE;
      751     9220    2            TH_RAW_FLG = %FALSE;
      752     9221    2          TH_BRKMSG = '1'B;
      753     9222    3              IF TH_CONSTRAINTS.NTYPES > 0 THEN DO;
      754     9223    3                 TEXT$ = ADDR(TEXTBUF);
      755     9224    3                 BUF_COUNT = 0;
      756     9225    4                 DO I = 0 TO TH_CONSTRAINTS.NTYPES - 1;
      757     9226    5                    IF I > 0 THEN DO;
      758     9227    5                       CALL INSERT(TEMP_BUF2,BUF_COUNT,2,', ');
      759     9228    5                       BUF_COUNT = BUF_COUNT + 2;
      760     9229    5                       END;  /* IF I > 0 */
      761     9230    4                    CALL THC$TYPENAME(TH_CONSTRAINTS.TYPES(I),TEMP_BUF,COUNT);
      762     9231    4                    CALL INSERT(TEMP_BUF2,BUF_COUNT,COUNT,SUBSTR(TEMP_BUF,0,COUNT));
      763     9232    4                    BUF_COUNT = BUF_COUNT + COUNT;
      764     9233    4                    END;  /* DO I */
      765     9234    3                 CALL THF$ADD_TEXTC(TEXT$,TEMP_BUF2,BUF_COUNT);
      766     9235    3                 TVEC = VECTOR(TEXTBUF);
      767     9236    3                 TVEC.BOUND = BUF_COUNT;
      768     9237    3                 IF REPORT_CODE ~= %DETAIL
      769     9238    3                 THEN
      770     9239    3                 CALL THW$WRITE(VECTOR(TYPE_FMT),TVEC);
      771     9240    3                 END;  /* IF NTYPES > 0 */
      772     9241    2              TH_LAST_REQID = 0;
      773     9242    2       IF TH_CONSTRAINTS.M_MAJ_S OR TH_CONSTRAINTS.M_SUB_S OR
      774     9243    2          TH_CONSTRAINTS.M_MED_S OR TH_CONSTRAINTS.M_BY_B_SET ~='0'B
      775     9244    2          OR TH_CONSTRAINTS.M_FEP_SET OR TH_CONSTRAINTS.M_CHAN_SET
      776     9245    3            THEN DO;
      777     9246    3            CALL THW$WRITE(VECTOR(MATCH_FMT),VECTOR(TH_LAST_MATCH));
      778     9247    3            END;
      779     9248    2       IF TH_CONSTRAINTS.E_MAJ_S OR TH_CONSTRAINTS.E_SUB_S OR
PL6.E3A0      #003=THC$REPORT File=THC$COMMANDS.:E05TSI                          WED 07/30/97 06:07 Page:60
      780     9249    2          TH_CONSTRAINTS.E_MED_S OR TH_CONSTRAINTS.E_BY_B_SET ~='0'B
      781     9250    2          OR TH_CONSTRAINTS.E_FEP_SET OR TH_CONSTRAINTS.E_CHAN_SET
      782     9251    3            THEN DO;
      783     9252    3            CALL THW$WRITE(VECTOR(EXCLUDE_FMT),VECTOR(TH_LAST_EXCLUDE));
      784     9253    3            END;
      785     9254    3            IF REPORT_CODE = %DETAIL THEN DO;/* if detail report is requested*/
      786     9255    3            OPEN_ERRLOG2.V.FUN# = %CREATE#;   /* set FPTs to create files */
      787     9256    3            OPEN_ERRLOG4.V.FUN# = %CREATE#;
      788     9257    3            OPEN_ERRLOG3.V.FUN# = %CREATE#;
      789     9258    3            OPEN_ERRLOG5.V.FUN# = %CREATE#;
      790     9259    3            CLOSE_ERRLOG2.V.DISP# = %SAVE#;
      791     9260    3            CLOSE_ERRLOG4.V.DISP# = %SAVE#;
      792     9261    3            IF DCBADDR(DCBNUM(M$ERRLOG3))->F$DCB.FCD   /* if dcb is open */
      793     9262    4            THEN DO;
      794     9263    4                CLOSE_ERRLOG3.V.DISP# = %RELEASE#;     /* set it to release */
      795     9264    4                CALL M$CLOSE(CLOSE_ERRLOG3); /* close it */
      796     9265    4                CLOSE_ERRLOG3.V.DISP# = %SAVE#;        /* reset file to save */
      797     9266    4            END;
      798     9267    4            IF DCBADDR(DCBNUM(M$ERRLOG5))->F$DCB.FCD THEN DO;
      799     9268    4                CLOSE_ERRLOG5.V.DISP# = %RELEASE#;
      800     9269    4                CALL M$CLOSE(CLOSE_ERRLOG5);
      801     9270    4                CLOSE_ERRLOG3.V.DISP# = %SAVE#;
      802     9271    4            END;
      803     9272    3            CALL THC$DETAIL; /* call procedure to handle detail report */
      804     9273    4            IF MEMORY_ERRORS THEN DO;/* if MEM errors were read in */
      805     9274    4                COMP_CODE = %MEM;/* set code to MEM */
      806     9275    4                CALL THF$HWE(COMP_CODE);/* then call procedure to handle MEM errs*/
      807     9276    4            END;  /* if memory_errors */
      808     9277    4            IF NUM_FEPERR > 0 THEN DO;  /* if feperr was read */
      809     9278    4              CALL THW$WRITE(VECTOR(FEPERR_HDR));
      810     9279    4              TH_FEPERR_FLG = %TRUE;
      811     9280    4              CALL THW$WRITE(TIME_FMT,VECTOR(OLD_FEPERR_TIME),VECTOR(OLD_FEPERR_DATE),
              9280                       VECTOR(NEW_FEPERR_DATE),VECTOR(NEW_FEPERR_TIME));
      812     9281    5              IF NOT DCBADDR(DCBNUM(M$ERRLOG5))->F$DCB.FCD THEN DO;
              9281                       /*if dcb's not open*/
      813     9282    5                 OPEN_ERRLOG5.V.FUN# = %UPDATE#;/* set it to update */
      814     9283    5                 CALL M$OPEN(OPEN_ERRLOG5);/* open dcb */
PL6.E3A0      #003=THC$REPORT File=THC$COMMANDS.:E05TSI                          WED 07/30/97 06:07 Page:61
      815     9284    5              END;
      816     9285    4              EOF_FLAG = %FALSE;/* set appropriate flags */
      817     9286    4              TH_FIRST_TIME = %TRUE;
      818     9287    4              TH_ITYPE = %TH_FEPERR;
      819     9288    4              CALL M$GDS(GET_XSA_BUF) ALTRET(PMME_ERR);/* get memory */
      820     9289    4              READ_ERRLOG5.BUF_ = TH_XSA_BUF_VECTOR;/* assign read vector */
      821     9290    5                DO WHILE(NOT EOF_FLAG);
      822     9291    5                  CALL M$READ(READ_ERRLOG5) ALTRET(ERRLOG5_EOF);
      823     9292    5                  CALL THF$RAW(TH_DETAIL_FMT);
              9292                           /* call procedure to format/process feperr records */
      824     9293    6   DO NEVER;
      825     9294    6   ERRLOG5_EOF:     IF B$TCB$->B$TCB.ALT$->B$ALT.ERR.CODE = %E$EOF
      826     9295    6                    THEN EOF_FLAG = %TRUE;
      827     9296    6                    ELSE CALL THM$ERRMSG;
      828     9297    6                  END;  /* do never */
      829     9298    5                END;/* do while not eof */
      830     9299    4              CALL M$CLOSE(CLOSE_ERRLOG5);/* close dcb */
      831     9300    4              IF EOF_FLAG /* if its eof */
      832     9301    4                THEN TH_EOF_FLG = %TRUE;
      833     9302    4                CALL THF$RAW(TH_DETAIL_FMT);
              9302                         /* call procedure to process last record(s)*/
      834     9303    4              IF TH_XSA_BUF.P$ ~= ADDR(NIL)/* if memory was used */
      835     9304    4              THEN CALL M$FDS(GET_XSA_BUF) ALTRET(PMME_ERR);/* release it*/
      836     9305    4            END;  /* if num_feperr > 0 */
      837     9306    4            IF NUM_IOERR_REC > 0 THEN DO; /* if ioerr was read in */
      838     9307    4            CALL THW$WRITE(VECTOR(IOERR_HDR));
      839     9308    4        CALL THW$WRITE(TIME_FMT,VECTOR(OLD_IOERR_TIME),VECTOR(OLD_IOERR_DATE),VECTOR(
              9308                 NEW_IOERR_DATE),VECTOR(NEW_IOERR_TIME));
      840     9309    4            IF NOT DCBADDR(DCBNUM(M$ERRLOG3))->F$DCB.FCD  /*if errlog3 isn't open */
      841     9310    5            THEN DO;
      842     9311    5                OPEN_ERRLOG3.V.FUN#=%UPDATE#;   /* set FPT to update file */
      843     9312    5                CALL M$OPEN(OPEN_ERRLOG3);
      844     9313    5            END;
      845     9314    4            EOF_FLAG = %FALSE;/* set appropriate flags */
      846     9315    4            TH_EOF_FLG = %FALSE;
      847     9316    4            TH_IOERR_FLG = %TRUE;  /* set ioerr flg */
      848     9317    4            TH_FEPERR_FLG = %FALSE;
PL6.E3A0      #003=THC$REPORT File=THC$COMMANDS.:E05TSI                          WED 07/30/97 06:07 Page:62
      849     9318    4            TH_FIRST_TIME = %TRUE;
      850     9319    4            TH_ITYPE = %TH_IOERR;
      851     9320    4            CALL M$GDS(GET_XSA_BUF) ALTRET(PMME_ERR);  /* get memory to use */
      852     9321    4            READ_ERRLOG3.BUF_=TH_XSA_BUF_VECTOR;  /* assign FPT's vector */
      853     9322    5              DO WHILE(NOT EOF_FLAG);
      854     9323    5                CALL M$READ(READ_ERRLOG3) ALTRET(ERRLOG3_EOF);
      855     9324    5                CALL THF$RAW(TH_DETAIL_FMT);
              9324                         /* call procedure to process/format ioerr */
      856     9325    6   DO NEVER;
      857     9326    6   ERRLOG3_EOF:   IF B$TCB$->B$TCB.ALT$->B$ALT.ERR.CODE = %E$EOF
      858     9327    6                  THEN EOF_FLAG =%TRUE;
      859     9328    6                  ELSE CALL THM$ERRMSG;
      860     9329    6                END;   /* DO NEVER  */
      861     9330    5              END;     /* DO WHILE  */
      862     9331    4              CALL M$CLOSE(CLOSE_ERRLOG3);/* close dcb */
      863     9332    4            IF EOF_FLAG THEN TH_EOF_FLG = %TRUE;/* if its eof */
      864     9333    4              CALL THF$RAW(TH_DETAIL_FMT);/* call procedure to process last record(s)*/
      865     9334    4              IF TH_XSA_BUF.P$ ~= ADDR(NIL)    /* if memory was used */
      866     9335    4              THEN CALL M$FDS(GET_XSA_BUF) ALTRET(PMME_ERR); /* then release it */
      867     9336    4            END;    /* if num_ioerr_rec > 0 */
      868     9337    3            END;    /* if report_code = %detail */
      869     9338    3            ELSE DO;
      870     9339    3            CALL XUD$UTS_DIFF_SEC (START_TIME, TH_CONSTRAINTS.START, 0);
      871     9340    3            START_TIME = START_TIME / 86400;
      872     9341    3            CALL XUD$UTS_ADJ_25TH (START_TIME, 0, START_TIME*%UTS_25TH_DAY#);
      873     9342    3            CALL XUD$UTS_DIFF_SEC (STOP_TIME, TH_CONSTRAINTS.STOP, 0);
      874     9343    3            STOP_TIME = STOP_TIME / 86400;
      875     9344    3            CALL XUD$UTS_ADJ_25TH (STOP_TIME, 0, STOP_TIME*%UTS_25TH_DAY#);
      876     9345    3          ERRLOG_DATE = START_TIME;
      877     9346    4          DO WHILE (ERRLOG_DATE <= STOP_TIME);
      878     9347    4                 NUM_RECS = 0;
      879     9348    4                 CALL THG$OPENXSA(ERRLOG_DATE) ALTRET(NO_FILE);
      880     9349    4                 CALL M$TIME(EXT_DATE);
      881     9350    4                 IF CODE = %ALL
      882     9351    4                    THEN
      883     9352    5                    DO;
      884     9353    5                       TH_NUM_REP_DEVS = 1;
PL6.E3A0      #003=THC$REPORT File=THC$COMMANDS.:E05TSI                          WED 07/30/97 06:07 Page:63
      885     9354    5                       TH_REP_DEVS(0) = ' ';
      886     9355    5                    END;
      887     9356    5                 DO I = 0 TO TH_NUM_REP_DEVS - 1;
      888     9357    5                    TH_CONSTRAINTS.DEVNM = TH_REP_DEVS(I);
      889     9358    5                    IF TH_CONSTRAINTS.DEVNM ~= ' '
      890     9359    5                    THEN TH_CHECK_DEVNM = '1'B;
      891     9360    5                    ELSE TH_CHECK_DEVNM = '0'B;
      892     9361    5                    EOF_FLAG = %FALSE;
      893     9362    5            CALL THG$PRECORDXSA(TH_CONSTRAINTS.START);
      894     9363    6                    DO WHILE(NOT EOF_FLAG);
      895     9364    6                       CALL THG$GETREC(%ERRLOG) ALTRET(EOF_LBL);
      896     9365    6                       IF (NUM_RECS = 0) AND (REPORT_CODE ~= %DETAIL)
              9365                                /*if first rec & not detail report*/
      897     9366    6                          THEN CALL THW$WRITE(DATE_FMT,VECTOR(DAY_BUF),VECTOR(DATE_BUF)
              9366                                   );
      898     9367    6                       NUM_RECS = NUM_RECS + 1;
      899     9368    7                       IF TH_CONSTRAINTS.OCTAL THEN DO;
      900     9369    7                          LOC_UTS = RECORD.UTS;
      901     9370    7                          CALL M$TIME(LOC_DATE);
      902     9371    7                          TYPE = RECORD.TYPE;
      903     9372    7                          CALL THW$WRITE(DUMP_FMT,VECTOR(TYPE),VECTOR(DBUF),VECTOR(TBUF
              9372                                   ));
      904     9373    7                          CALL THF$DUMP(TH_RECORD.PTR$);
      905     9374    7                          END;  /* IF OCTAL */
      906     9375    7                       ELSE DO;
      907     9376    7                          CALL M$TIME(RECORD_DATE);
      908     9377    7                          TH_DETAIL_FLG = %FALSE;
      909     9378    7                          IF REPORT_CODE = %RAW
      910     9379    8                          THEN DO;  /* call formattor routine with raw formats*/
      911     9380    8                               TH_RAW_FLG = %TRUE;
      912     9381    8                               CALL THF$RAW(TH_RAW_FMT);/* process raw report*/
      913     9382    8                          END;
      914     9383    7                          ELSE /* call formatter routine w/extended formats */
      915     9384    7                               CALL THF$RAW(TH_EXTENDED_FMT);
              9384                                        /* process extended report*/
      916     9385    7                          END;
      917     9386    7                       DO NEVER;
PL6.E3A0      #003=THC$REPORT File=THC$COMMANDS.:E05TSI                          WED 07/30/97 06:07 Page:64
      918     9387    7              EOF_LBL:    EOF_FLAG = %TRUE;
      919     9388    7                       END;                /* DO NEVER                           */
      920     9389    6                    END;                   /* DO WHILE NOT EOF_FLG               */
      921     9390    5                 END;                      /* DO I = 0 TO TH_NUM_REP_DEVS - 1    */
      922     9391    4     NO_FILE:
      923     9392    4                 CALL XUD$UTS_ADJ_25TH (ERRLOG_DATE, ERRLOG_DATE, %UTS_25TH_DAY#);
      924     9393    4              END;                   /* DO WHILE (ERRLOG_DATE <= STOP) */
      925     9394    3              CALL THG$CLOSEXSA;
      926     9395    3              TH_LASTTYPE = -1;
      927     9396    3             END;
      928     9397    2           CASE(%SUM);
      929     9398    2            TH_BRKMSG = '0'B;
      930     9399    3              IF TH_CONSTRAINTS.NTYPES > 0 THEN DO;
      931     9400    3                 TEXT$ = ADDR(TEXTBUF);
      932     9401    3                 BUF_COUNT = 0;
      933     9402    4                 DO I = 0 TO TH_CONSTRAINTS.NTYPES - 1;
      934     9403    5                    IF I > 0 THEN DO;
      935     9404    5                       CALL INSERT(TEMP_BUF2,BUF_COUNT,2,', ');
      936     9405    5                       BUF_COUNT = BUF_COUNT + 2;
      937     9406    5                       END;  /* IF I > 0 */
      938     9407    4                    CALL THC$TYPENAME(TH_CONSTRAINTS.TYPES(I),TEMP_BUF,COUNT);
      939     9408    4                    CALL INSERT(TEMP_BUF2,BUF_COUNT,COUNT,SUBSTR(TEMP_BUF,0,COUNT));
      940     9409    4                    BUF_COUNT = BUF_COUNT + COUNT;
      941     9410    4                    END;  /* DO I */
      942     9411    3                 CALL THF$ADD_TEXTC(TEXT$,TEMP_BUF2,BUF_COUNT);
      943     9412    3                 TVEC = VECTOR(TEXTBUF);
      944     9413    3                 TVEC.BOUND = BUF_COUNT;
      945     9414    3                 CALL THW$WRITE(VECTOR(TYPE_FMT),TVEC);
      946     9415    3                 END;  /* IF NTYPES > 0 */
      947     9416    2       IF TH_CONSTRAINTS.M_MAJ_S OR TH_CONSTRAINTS.M_SUB_S OR
      948     9417    2          TH_CONSTRAINTS.M_MED_S OR TH_CONSTRAINTS.M_BY_B_SET ~='0'B
      949     9418    2          OR TH_CONSTRAINTS.M_FEP_SET OR TH_CONSTRAINTS.M_CHAN_SET
      950     9419    3            THEN DO;
      951     9420    3            CALL THW$WRITE(VECTOR(MATCH_FMT),VECTOR(TH_LAST_MATCH));
      952     9421    3            END;
      953     9422    2       IF TH_CONSTRAINTS.E_MAJ_S OR TH_CONSTRAINTS.E_SUB_S OR
      954     9423    2          TH_CONSTRAINTS.E_MED_S OR TH_CONSTRAINTS.E_BY_B_SET ~='0'B
PL6.E3A0      #003=THC$REPORT File=THC$COMMANDS.:E05TSI                          WED 07/30/97 06:07 Page:65
      955     9424    2          OR TH_CONSTRAINTS.E_FEP_SET OR TH_CONSTRAINTS.M_CHAN_SET
      956     9425    3            THEN DO;
      957     9426    3            CALL THW$WRITE(VECTOR(EXCLUDE_FMT),VECTOR(TH_LAST_EXCLUDE));
      958     9427    3            END;
      959     9428    2              NUM_TYPES = 0;
      960     9429    2              NUM_DEV = 0;
      961     9430    2              NUM_RECS = 0;
      962     9431    3              DO J = 0 TO 200;
      963     9432    3                 DEV_CNT(J) = 0;
      964     9433    3                 CONNECTS(J) = 0;
      965     9434    3                 ERRORS(J) = 0;
      966     9435    3                 DEV_MOUNT(J) = 0;
      967     9436    3              END;  /* do j */
      968     9437    2          CALL XUD$UTS_DIFF_SEC (START_TIME, TH_CONSTRAINTS.START, 0);
      969     9438    2          START_TIME = START_TIME / 86400;
      970     9439    2          CALL XUD$UTS_ADJ_25TH (START_TIME, 0, START_TIME*%UTS_25TH_DAY#);
      971     9440    2          CALL XUD$UTS_DIFF_SEC (STOP_TIME, TH_CONSTRAINTS.STOP, 0);
      972     9441    2          STOP_TIME = STOP_TIME / 86400;
      973     9442    2          CALL XUD$UTS_ADJ_25TH (STOP_TIME, 0, STOP_TIME*%UTS_25TH_DAY#);
      974     9443    2          ERRLOG_DATE = START_TIME;
      975     9444    3          DO WHILE (ERRLOG_DATE <= STOP_TIME);
      976     9445    3                 CALL THG$OPENXSA(ERRLOG_DATE) ALTRET(NO_FILE2);
      977     9446    4                 IF CODE = %ALL THEN DO;
      978     9447    4                    TH_NUM_REP_DEVS = 1;
      979     9448    4                    TH_REP_DEVS(0) = ' ';
      980     9449    4                    END;  /* IF CODE = %ALL */
      981     9450    4                 DO J = 0 TO TH_NUM_REP_DEVS - 1;
      982     9451    4                    TH_CONSTRAINTS.DEVNM = TH_REP_DEVS(J);
      983     9452    4                    IF TH_CONSTRAINTS.DEVNM ~= ' '
      984     9453    4                    THEN TH_CHECK_DEVNM = '1'B;
      985     9454    4                    ELSE TH_CHECK_DEVNM = '0'B;
      986     9455    4                    EOF_FLAG = %FALSE;
      987     9456    4            CALL THG$PRECORDXSA(TH_CONSTRAINTS.START);
      988     9457    5                    DO WHILE(NOT EOF_FLAG);
      989     9458    5                       CALL THG$GETREC(%ERRLOG) ALTRET(EOF);
      990     9459    5                       NUM_RECS = NUM_RECS + 1;
      991     9460    5                       INFO$ = ADDR(RECORD.INFO);
PL6.E3A0      #003=THC$REPORT File=THC$COMMANDS.:E05TSI                          WED 07/30/97 06:07 Page:66
      992     9461    5                       RECORD_TYPE = RECORD.TYPE;
      993     9462    6                       DO K = 1 TO NUM_TYPES;
      994     9463    7                          IF TYPES(K) = RECORD_TYPE THEN DO;
      995     9464    7                             TYPE_CNT(K) = TYPE_CNT(K) + 1;
      996     9465    7                             GOTO FOUND_TYPE;
      997     9466    7                             END;  /* IF */
      998     9467    6                          END;  /* DO K */
      999     9468    5                          NUM_TYPES = NUM_TYPES + 1;
     1000     9469    5                          TYPES(NUM_TYPES) = RECORD_TYPE;
     1001     9470    5                          TYPE_CNT(NUM_TYPES) = 1;
     1002     9471    5   FOUND_TYPE: ;
     1003     9472    6                        IF RECORD.TYPE = EL_MOUNT THEN DO;
              9472                                 /* if record's mount errors */
     1004     9473    7                             DO K = 1 TO NUM_DEV;/* go through device tbl*/
     1005     9474                                    /* if current device is found */
     1006     9475    8                               IF DEVNM(K) = EL$MTDMT.DEVNAME THEN DO;
     1007     9476    8                                  DEV_MOUNT(K) = DEV_MOUNT(K) + 1;
              9476                                           /* increment counter*/
     1008     9477    8                                  GOTO FOUND_MOUNT;
     1009     9478    8                               END; /* if devnm(k) = mount_devnm */
     1010     9479    7                             END;  /* do k */
     1011     9480    6                          NUM_DEV = NUM_DEV + 1;
     1012     9481    6                          DEVNM(NUM_DEV) = EL$MTDMT.DEVNAME;
     1013     9482    6                          DEV_MOUNT(NUM_DEV) = 1;
     1014     9483    6   FOUND_MOUNT: ;
     1015     9484    6                        END; /* if record.type = el_mount */
     1016     9485    6                       IF RECORD.TYPE = EL_IOERR THEN DO;
     1017     9486    7                          DO K = 1 TO NUM_DEV;
     1018     9487    8                             IF DEVNM(K) = EL$IOERR.DEVNM THEN DO;
     1019     9488    8                                DEV_CNT(K) = DEV_CNT(K) + EL$IOERR.COUNT;
     1020     9489    8                                CONNECTS(K) = CONNECTS(K) + EL$IOERR.CONNECTS.DEVICE;
              9489                                         /*add connects*/
     1021     9490    8                                ERRORS(K) = ERRORS(K) + EL$IOERR.ERRCT;
     1022     9491    8                                GOTO FOUND_DEVNM;
     1023     9492    8                                END;  /* IF */
     1024     9493    7                             END;  /* DO K */
     1025     9494    6                             NUM_DEV = NUM_DEV + 1;
PL6.E3A0      #003=THC$REPORT File=THC$COMMANDS.:E05TSI                          WED 07/30/97 06:07 Page:67
     1026     9495    6                             DEVNM(NUM_DEV) = EL$IOERR.DEVNM;
     1027     9496    6                             DEV_CNT(NUM_DEV) = 1;/* set device counter*/
     1028     9497    6                             CONNECTS(NUM_DEV) = EL$IOERR.CONNECTS.DEVICE;
     1029     9498    6                             ERRORS(NUM_DEV) = EL$IOERR.COUNT;
     1030     9499    6   FOUND_DEVNM: ;
     1031     9500    6                          END;  /* IF RECORD.TYPE = EL_IOERR */
     1032     9501    6                       DO NEVER;
     1033     9502    6                 EOF:     EOF_FLAG = %TRUE;
     1034     9503    6                          END;  /* DO NEVER */
     1035     9504    5                       END;  /* DO WHILE NOT EOF_FLAG */
     1036     9505    4                    END;  /* DO J = 0 TO TH_NUM_REP_DEVS - 1 */
     1037     9506    3   NO_FILE2:
     1038     9507    3                 CALL XUD$UTS_ADJ_25TH(ERRLOG_DATE, ERRLOG_DATE, %UTS_25TH_DAY#);
     1039     9508    3                 END;  /* DO WHILE (ERRLOG_DATE <= STOP)  */
     1040     9509    2              CALL THG$CLOSEXSA;
     1041     9510    3              IF NUM_TYPES > 0 THEN DO;
     1042     9511    3                 CALL THW$WRITE(VECTOR(SUM_FMT));
     1043     9512    4                 DO I = 1 TO NUM_TYPES;
     1044     9513    4                    TEXT$ = ADDR(TEXTBUF);
     1045     9514    4                    TYPEB = TYPES(I);
     1046     9515    4                    CALL THC$TYPENAME(TYPEB,TEMP_BUF,COUNT);
     1047     9516    4                    CALL THF$ADD_TEXTC(TEXT$,TEMP_BUF,COUNT);
     1048     9517    4                    TVEC = VECTOR(TEXTBUF);
     1049     9518    4                    TVEC.BOUND = COUNT;
     1050     9519    4                    CALL THW$WRITE(VECTOR(SUM_ENTRY),
     1051     9520    4                                   TVEC,
     1052     9521    4                                   VECTOR(TYPE_CNT(I)));
     1053     9522    4                    END;  /* DO I */
     1054     9523    3                 END;  /* IF NUM_TYPES > 0 */
     1055     9524    3              IF NUM_DEV > 0 THEN DO;
     1056     9525    3                 CALL THW$WRITE(DEV_HDR);
     1057     9526    4                 DO I = 1 TO NUM_DEV;
     1058     9527    4                   IF ((TH_CONSTRAINTS.NTYPES = 0)AND((DEV_CNT(I) > 0)OR(CONNECTS(I) >
              9527                            0)OR(ERRORS(I) > 0)))
     1059     9528    4                     OR (TH_CONSTRAINTS.NTYPES > 0)THEN
     1060     9529    4                    CALL THW$WRITE(VECTOR(DEV_ENTRY),VECTOR(DEVNM(I)),
     1061     9530    4                                   VECTOR(DEV_CNT(I)),VECTOR(CONNECTS(I)),
PL6.E3A0      #003=THC$REPORT File=THC$COMMANDS.:E05TSI                          WED 07/30/97 06:07 Page:68
     1062     9531    4                                   VECTOR(ERRORS(I)),VECTOR(DEV_MOUNT(I)));
     1063     9532    4                    END;  /* DO I */
     1064     9533    3                 END;  /* IF NUM_DEV > 0 */
     1065     9534    2              CALL THW$WRITE(VECTOR(SUM_TOT),VECTOR(NUM_RECS));
     1066     9535    2           CASE(%SEC);
     1067     9536                                                /* SEC CODE                           */
     1068     9537    2           CASE(%SWE);
     1069     9538                                                /* SWE CODE                           */
     1070     9539    2           CASE(%SYS);
     1071     9540    2            TH_BRKMSG = '0'B;
     1072     9541    2              CALL THF$SYS;
     1073     9542    2           CASE(%UPR);
     1074     9543    2            TH_BRKMSG = '0'B;
     1075     9544    2              CALL THF$UPR;
     1076     9545    2        END;                               /* case report code                   */
     1077     9546    1        TH_EOF_FLG = %FALSE;
     1078     9547    1        TH_FIRST_TIME = %TRUE;
     1079     9548    1        TH_IOERR_FLG = %FALSE;
     1080     9549    1        TH_FEPERR_FLG = %FALSE;
     1081     9550    1        TH_DETAIL_FLG = %TRUE;
     1082     9551    1        TH_NUM_REP_DEVS = 0;
     1083     9552    1        TH_CONSTRAINTS = TH_SAVE;
     1084     9553    1        IF DCBADDR(DCBNUM(M$LO))->F$DCB.FCD THEN CALL M$CLOSE(CLOSE_LO);
     1085     9554    1        IF DCBADDR(DCBNUM(M$ONFILE))->F$DCB.FCD THEN CALL M$CLOSE(CLOSE_ONFILE);
     1086     9555    2        DO NEVER;
     1087     9556    2   OPN_ERR:
     1088     9557    2           CALL THM$ERRMSG;
     1089     9558    2        END;                               /* do never                           */
     1090     9559    2   DO NEVER;
     1091     9560    2   PMME_ERR: CALL THM$ERRMSG;
     1092     9561    2   END;
     1093     9562    1   NO_REPORT:
     1094     9563    1        RETURN;
     1095     9564    1   FID_ERR:
     1096     9565    1        CALL THM$ERRMSG;
     1097     9566    1        RETURN;
     1098     9567        %EJECT;
PL6.E3A0      #003=THC$REPORT File=THC$COMMANDS.:E05TSI                          WED 07/30/97 06:07 Page:69
     1099     9568        /* INTERNAL PROC TO PROCESS ERRLOG FILE FOR DETAIL REPORT */
     1100     9569    1   THC$DETAIL: PROC;
     1101     9570        /**/
     1102     9571    2      TH_EOF_FLG = %FALSE;
     1103     9572    2      TH_FIRST_TIME = %TRUE;
     1104     9573    2      TH_IOERR_FLG = %FALSE;
     1105     9574    2      TH_FEPERR_FLG = %FALSE;
     1106     9575    2      TH_DETAIL_FLG = %TRUE;
     1107     9576    2      OLD_FEPERR_TIME = ' ';
     1108     9577    2      NEW_FEPERR_TIME= ' ';
     1109     9578    2      OLD_IOERR_TIME = ' ';
     1110     9579    2      NEW_IOERR_TIME = ' ';
     1111     9580    2      NUM_IOERR_REC = 0;
     1112     9581    2      NUM_FEPERR = 0;
     1113     9582    2      MEMORY_ERRORS = %FALSE;
     1114     9583    2   CALL XUD$UTS_DIFF_SEC (START_TIME, TH_CONSTRAINTS.START, 0);
     1115     9584    2   START_TIME = START_TIME / 86400;
     1116     9585    2   CALL XUD$UTS_ADJ_25TH (START_TIME, 0, START_TIME*%UTS_25TH_DAY#);
     1117     9586    2   CALL XUD$UTS_DIFF_SEC (STOP_TIME, TH_CONSTRAINTS.STOP, 0);
     1118     9587    2   STOP_TIME = STOP_TIME / 86400;
     1119     9588    2   CALL XUD$UTS_ADJ_25TH (STOP_TIME, 0, STOP_TIME*%UTS_25TH_DAY#);
     1120     9589    2   ERRLOG_DATE = START_TIME;
     1121     9590    3   DO WHILE (ERRLOG_DATE <= STOP_TIME);
     1122     9591    3             NUM_RECS = 0;
     1123     9592    3     CALL THG$OPENXSA(ERRLOG_DATE) ALTRET(FILE_NO);
     1124     9593    3     CALL M$TIME(EXT_DATE);
     1125     9594    4     IF CODE = %ALL THEN DO;
     1126     9595    4        TH_NUM_REP_DEVS = 1;
     1127     9596    4        TH_REP_DEVS(0) = ' ';
     1128     9597    4     END;
     1129     9598
     1130     9599    4        DO I = 0 TO TH_NUM_REP_DEVS - 1;
     1131     9600    4          TH_CONSTRAINTS.DEVNM = TH_REP_DEVS(I);
     1132     9601    4          IF TH_CONSTRAINTS.DEVNM ~= ' '
     1133     9602    4          THEN TH_CHECK_DEVNM = '1'B;
     1134     9603    4          ELSE TH_CHECK_DEVNM = '0'B;
     1135     9604    4          EOF_FLAG = %FALSE;
PL6.E3A0      #003=THC$REPORT File=THC$COMMANDS.:E05TSI                          WED 07/30/97 06:07 Page:70
     1136     9605    4          CALL THG$PRECORDXSA(TH_CONSTRAINTS.START);
     1137     9606    4          CALL M$OPEN(OPEN_ERRLOG2);
     1138     9607    4          CALL M$OPEN(OPEN_ERRLOG4);
     1139     9608    5        DO WHILE(NOT EOF_FLAG);
     1140     9609    5          CALL THG$GETREC(%ERRLOG) ALTRET(LBL_EOF);
              9609                   /* get one record from errlog file */
     1141     9610    5          CALL M$TIME(RECORD_DATE);/* get time of error occurrence */
     1142     9611    5            INFO$ = ADDR(RECORD.INFO);  /* assign EL$IOERR frame to input buffer */
     1143     9612    5            WRITE_ERRLOG4.BUF_.BOUND = TH_RECORD.BOUND;
     1144     9613    5            WRITE_ERRLOG4.BUF_.BUF$ = INFO$;
     1145     9614    5            WRITE_ERRLOG2.BUF_.BOUND = TH_RECORD.BOUND; /* assign vectors  bound */
     1146     9615    5            WRITE_ERRLOG2.BUF_.BUF$ = INFO$; /* assign vector's pointer */
     1147     9616    5              IF TH_FIRST_TIME AND (TH_ITYPE = %TH_IOERR OR TH_ITYPE = %TH_FEPERR)
              9616                       /*if first rec is ioerr or feperr */
     1148     9617    6              THEN DO;
     1149     9618    7                DO CASE(TH_ITYPE);
     1150     9619    7                   CASE(%TH_IOERR);/* if ioerr record was fetched */
     1151     9620    7                       NUM_IOERR_REC = NUM_IOERR_REC + 1;/*increment counter*/
     1152     9621    7                       CALL M$WRITE(WRITE_ERRLOG2);/* write record to file*/
     1153     9622    7                       OLD_IOERR_DATE = ERRLOG_DATE;
     1154     9623    7                       OLD_IOERR_TIME = TH_TIME;
     1155     9624    7                   CASE(%TH_FEPERR);/* if feperr record was fetched*/
     1156     9625    7                       NUM_FEPERR = NUM_FEPERR + 1;/*increment counter*/
     1157     9626    7                       CALL M$WRITE(WRITE_ERRLOG4);/* write to file*/
     1158     9627    7                       OLD_FEPERR_DATE = ERRLOG_DATE;
     1159     9628    7                       OLD_FEPERR_TIME = TH_TIME;
     1160     9629    7                END; /* do case */
     1161     9630    6                       TH_FIRST_TIME = %FALSE;
     1162     9631    6              END;   /* if th_first_time & th_itype = th_ioerr or th_feperr */
     1163     9632    6              ELSE IF TH_ITYPE = %TH_IOERR OR TH_ITYPE = %TH_FEPERR THEN DO;
              9632                       /*if it's ioerr record read */
     1164     9633    7                DO CASE(TH_ITYPE);
     1165     9634    7                   CASE(%TH_IOERR);
     1166     9635    7                       NUM_IOERR_REC = NUM_IOERR_REC + 1;
     1167     9636    7                       CALL M$WRITE(WRITE_ERRLOG2);
     1168     9637    8                         IF OLD_IOERR_TIME = ' ' THEN DO;
     1169     9638    8                           OLD_IOERR_TIME = TH_TIME;
PL6.E3A0      #003=THC$REPORT File=THC$COMMANDS.:E05TSI                          WED 07/30/97 06:07 Page:71
     1170     9639    8                           OLD_IOERR_DATE = ERRLOG_DATE;
     1171     9640    8                         END;  /* if old_ioerr_time = ' '*/
     1172     9641    7                       NEW_IOERR_DATE = ERRLOG_DATE;
     1173     9642    7                       NEW_IOERR_TIME = TH_TIME;
     1174     9643    7                   CASE(%TH_FEPERR);
     1175     9644    7                       NUM_FEPERR = NUM_FEPERR + 1;
     1176     9645    7                       CALL M$WRITE(WRITE_ERRLOG4);
     1177     9646    8                         IF OLD_FEPERR_TIME = ' ' THEN DO;
     1178     9647    8                           OLD_FEPERR_TIME = TH_TIME;
     1179     9648    8                           OLD_FEPERR_DATE = ERRLOG_DATE;
     1180     9649    8                         END;  /* if old_feperr_time = ' '*/
     1181     9650    7                       NEW_FEPERR_DATE = ERRLOG_DATE;
     1182     9651    7                       NEW_FEPERR_TIME = TH_TIME;
     1183     9652    7                END; /* do case*/
     1184     9653    6              END;/* if th_itype = th_ioerr or th_feperr */
     1185     9654    6              ELSE DO;/* if ioerr/feperr records were not fetched */
     1186     9655    6                    IF (NUM_RECS = 0) AND (TH_ITYPE ~= %TH_EDAC) THEN
     1187     9656    6                     CALL THW$WRITE(DATE_FMT,VECTOR(DAY_BUF),VECTOR(DATE_BUF));
     1188     9657    6                    NUM_RECS = NUM_RECS + 1;
     1189     9658    7                    IF TH_CONSTRAINTS.OCTAL THEN DO;/* if octal flag's set*/
     1190     9659    7                       LOC_UTS = RECORD.UTS;
     1191     9660    7                       CALL M$TIME(LOC_DATE);
     1192     9661    7                       TYPE = RECORD.TYPE;
     1193     9662    7                       CALL THW$WRITE(DUMP_FMT,VECTOR(TYPE),VECTOR(DBUF),VECTOR(TBUF));
     1194     9663    7                       CALL THF$DUMP(TH_RECORD.PTR$);
     1195     9664    7                    END;
     1196     9665    6                    ELSE IF TH_ITYPE = %TH_EDAC THEN/*if MEM error record was fetched*/
     1197     9666    6                         MEMORY_ERRORS = %TRUE;/*set memory error flag*/
     1198     9667    6                    ELSE
     1199     9668    6                       CALL THF$RAW(TH_DETAIL_FMT);/* process record */
     1200     9669    6              END;/* else do */
     1201     9670    6          DO NEVER;
     1202     9671    6   LBL_EOF:      EOF_FLAG = %TRUE;
     1203     9672    6          END;   /* do never */
     1204     9673    5        END;     /* do while */
     1205     9674    4        END;     /* do i = 0 to th_num_rep_devs */
     1206     9675    3             CALL XUD$UTS_ADJ_25TH(ERRLOG_DATE, ERRLOG_DATE, %UTS_25TH_DAY#);
PL6.E3A0      #003=THC$REPORT File=THC$COMMANDS.:E05TSI                          WED 07/30/97 06:07 Page:72
     1207     9676    3   FILE_NO: END; /* DO WHILE (ERRLOG_DATE <= STOP) */
     1208     9677    2        CALL M$CLOSE(CLOSE_ERRLOG2);/* close dcbs*/
     1209     9678    2        CALL M$CLOSE(CLOSE_ERRLOG4);
     1210     9679    2        OPEN_ERRLOG2.V.FUN# = %UPDATE#;/*set create fpt to update*/
     1211     9680    2        OPEN_ERRLOG4.V.FUN# = %UPDATE#;/* set create fpt to update */
     1212     9681    3          IF NUM_IOERR_REC > 0 THEN DO; /*if ioerr records are read from errlog file*/
     1213     9682    3            SORT_ERRLOG2.NREC# = NUM_IOERR_REC;/* sort fpt gets no. of records */
     1214     9683    3            CALL M$CMDVAR(SILENCE_SORT) ALTRET(SORT_ERR);
     1215     9684    3            CALL X$SORT(SORT_ERRLOG2) ALTRET(SORT_ERR); /*call sort */
     1216     9685    3          END;
     1217     9686    3          ELSE DO;/* if no ioerr records were read */
     1218     9687    3            CLOSE_ERRLOG2.V.DISP# = %RELEASE#; /* otherwise release file */
     1219     9688    3            CALL M$OPEN(OPEN_ERRLOG2)   /* open file*/
     1220     9689    4                WHENALTRETURN DO;
     1221     9690    4                   IF B$TCB$->B$TCB.ALT$->B$ALT.ERR.CODE = %E$NOFILE
     1222     9691    4                   THEN;
     1223     9692    4                   ELSE    CALL M$MERC;
     1224     9693    4                    GOTO CHK_FEP;
     1225     9694    4                END;  /* whenaltreturn do */
     1226     9695    3            CALL M$CLOSE(CLOSE_ERRLOG2);/* and close file to release it*/
     1227     9696    3          END;
     1228     9697    3   CHK_FEP: IF NUM_FEPERR > 0 THEN DO; /* if feperr records were read */
     1229     9698    3            SORT_ERRLOG4.NREC# = NUM_FEPERR;/*sort fpt gets no. of feperr records*/
     1230     9699    3            CALL M$CMDVAR(SILENCE_SORT) ALTRET(SORT_ERR);
     1231     9700    3            CALL X$SORT(SORT_ERRLOG4) ALTRET(SORT_ERR);/* sort feperr recs*/
     1232     9701    3          END;/* if num_feperr > 0 */
     1233     9702    3          ELSE DO;/* if no feperr records were read*/
     1234     9703    3            CLOSE_ERRLOG4.V.DISP# = %RELEASE#;/* set fpt to release*/
     1235     9704    3            CALL M$OPEN(OPEN_ERRLOG4)
     1236     9705    4             WHENALTRETURN DO;
     1237     9706    4               IF B$TCB$->B$TCB.ALT$->B$ALT.ERR.CODE = %E$NOFILE
     1238     9707    4               THEN;
     1239     9708    4               ELSE   CALL M$MERC;
     1240     9709    4                 GOTO DONE;
     1241     9710    4             END;  /* whenaltreturn do */
     1242     9711    3            CALL M$CLOSE(CLOSE_ERRLOG4);/* close dcb to release file*/
     1243     9712    3          END;  /* else do */
PL6.E3A0      #003=THC$REPORT File=THC$COMMANDS.:E05TSI                          WED 07/30/97 06:07 Page:73
     1244     9713    3   DO NEVER;
     1245     9714    3        SORT_ERR: CALL THM$ERRMSG;
     1246     9715    3      END;
     1247     9716    2   DONE:CALL THG$CLOSEXSA;
     1248     9717    2       TH_LASTTYPE = -1;
     1249     9718    2       RETURN;
     1250     9719    2   END THC$DETAIL;
     1251     9720    1   END THC$REPORT;
     1252     9721        %EOD;

PL6.E3A0      #003=THC$REPORT File=THC$COMMANDS.:E05TSI                          WED 07/30/97 06:07 Page:74
--  Include file information  --

   XUD_UTS_M.:E05TOU  is referenced.
   B_ERRORS_C.:E05TOU  is referenced.
   ZL_MACRO_C.:TOOLE04  is referenced.
   EL_SUBS_C.:E05TOU  is referenced.
   TH_DATA_R.:E05TOU  cannot be made into a system file and is referenced.
   B_STRINGS_C.:E05TOU  is referenced.
   TH_SUBS_C.:E05TOU  is referenced.
   NI$TABLES.:E05TOU  is referenced.
   EL$TABLES.:E05TOU  is referenced.
   F$DCB.:E05TOU  cannot be made into a system file and is referenced.
   XU_MACRO_C.:E05TOU  is referenced.
   CP_6_SUBS.:E05TOU  is referenced.
   CP_6.:E05TOU  cannot be made into a system file and is referenced.
   B$JIT_C.:E05TOU  was found in the system file and is never referenced.
   CP_6_C.:E05TOU  was found in the system file and is referenced.
      No diagnostics issued in procedure THC$REPORT.

   Procedure THC$REPORT requires 2050 words for executable code.
   Procedure THC$REPORT requires 1580 words of local(AUTO) storage.

PL6.E3A0      #003=THC$REPORT File=THC$COMMANDS.:E05TSI                          WED 07/30/97 06:07 Page:75

 Object Unit name= THC$REPORT                                 File name= THC$COMMANDS.:E05TOU
 UTS= JUL 30 '97 06:07:32.40 WED                              Compiler= PL-6/E31         Sev=      00
 SharedLib= :SHARED_SYSTEM                                    Alt SharedLib=


    ****  Control sections  ****

 Sect   Type Bound  Init  Size OctSiz  Section name(segment info)
    0   DCB   even  none     0      0  M$UC
    1   DCB   even  none     0      0  M$LO
    2   DCB   even  none     0      0  M$ONFILE
    3   DCB   even  none     0      0  M$ERRLOG2
    4   DCB   even  none     0      0  M$ERRLOG3
    5   DCB   even  none     0      0  M$ERRLOG4
    6   DCB   even  none     0      0  M$ERRLOG5
    7   Data  even  none   934   1646  THC$REPORT
    8  RoData even  UTS    571   1073  THC$REPORT
    9   Proc  even  none  2050   4002  THC$REPORT
   10  RoData even  none   131    203  THC$REPORT

    ****  Entry defs  ****

                              Check   Calling
                             calling  sequence
  Sect OctLoc Primary Altret sequence   type   Parms  Name
     9      0   yes            yes      Std        1  THC$REPORT

  ****  Data defs  ****

 Sect OctLoc  Name                           Sect OctLoc  Name
    7      1  OUTPUT_DCB#                        7    452  OPEN_ERRLOG2
    7    616  OPEN_ERRLOG3                       7   1162  OPEN_ERRLOG4
    7   1326  OPEN_ERRLOG5                       7   1612  LO_HEADER
PL6.E3A0      #003=THC$REPORT File=THC$COMMANDS.:E05TSI                          WED 07/30/97 06:07 Page:76

  ****  Entry refs  ****

         Check        Calling
        calling       sequence
Altret sequence SRef   type   Args  Name
         yes           Std       3 IOERR$COMPARE
         yes           Std       3 FEPERR$COMPARE
         yes           Std       0 THF$AMS
         yes           Std       3 THF$DUMP
         yes           Std       1 THF$CONFIG
         yes           Std       1 THF$HWE
         yes           Std       1 THM$ERRMSG
 yes     yes           Std       3 XUD$UTS_DIFF_SEC
 yes     yes           Std       3 XUD$UTS_ADJ_25TH
         yes           Std       0 THF$UPR
         yes           Std       1 THF$RAW
 yes     yes           Std       3 THS$SET_DEVS
         yes           Std      11 THW$WRITE
 yes     yes           Std       0 THG$CLOSEXSA
         yes           Std       0 THF$SYS
         yes           Std       3 THF$ADD_TEXTC
         yes           Std       3 THC$TYPENAME
 yes     yes           Std       1 THG$PRECORDXSA
 yes     yes           Std       4 THG$GETREC
 yes     yes           Std       1 THG$OPENXSA
 yes     yes           Std       1 X$SORT
                       nStd      0 X66_AUTO_1
                       Std       0 B_CONSPOOL_D
                       nStd      0 X66_ARET
PL6.E3A0      #003=THC$REPORT File=THC$COMMANDS.:E05TSI                          WED 07/30/97 06:07 Page:77

  ****  Data refs  ****

  Flags:  r = read only, s = secondary
Flgs Name                             Flgs Name                             Flgs Name
     M$UC                                  TH_CONSTRAINTS                        TH_SAVE
     TH_BRKMSG                             TH_NUM_REP_DEVS                       TH_REP_DEVS
     TH_RECORD                             TH_ITYPE                              TH_LASTTYPE
     TH_LASTUTS                            TH_DAY                                TH_DATE
     TH_TIME                               TH_SITE_ID                            TH_SITE_NAME
     TH_LAST_MATCH                         TH_LAST_EXCLUDE                       TH_LAST_REQID
     TH_XSA_BUF_VECTOR                     TH_CHECK_DEVNM                        TH_DETAIL_FLG
     TH_RAW_FLG                            TH_IOERR_FLG                          TH_FEPERR_FLG
     TH_FIRST_TIME                         TH_EOF_FLG                            M$LO
     M$ONFILE                              M$ERRLOG2                             M$ERRLOG3
     M$ERRLOG4                             M$ERRLOG5                             TH_RAW_FMT
     TH_DETAIL_FMT                         TH_EXTENDED_FMT                       TH_OUTBUF
     B$TCB$                                B_VECTNIL

  ****  Segment refs  ****

  Flags:  r = read only, s = secondary
Flgs Name                             Flgs Name                             Flgs Name
     ISSID                                 NULLSID                               ROSID
PL6.E3A0      #003=THC$REPORT File=THC$COMMANDS.:E05TSI                          WED 07/30/97 06:07 Page:78


      173        1        /*T***********************************************************/
      174        2        /*T*                                                         */
      175        3        /*T* Copyright (c) Bull HN Information Systems Inc., 1997    */
      176        4        /*T*                                                         */
      177        5        /*T***********************************************************/
      178        6        THC$REPORT: PROC(TOP$);

      6  9 000000   000000 700200 xent  THC$REPORT   TSX0  ! X66_AUTO_1
         9 000001   003054 000001                    ZERO    1580,1

      179        7    1   DCL TOP$ PTR;
      180        8        /**/
      181        9        /* INCLUDE FILES */
      182       10        %INCLUDE CP_6;
      183       91        %INCLUDE CP_6_SUBS;
      184      631        %INCLUDE XU_MACRO_C;
      185     3737        %INCLUDE F$DCB;
      186     3786        %INCLUDE EL$TABLES;
      187     4109        %INCLUDE NI$TABLES;
      188     4325        %INCLUDE TH_SUBS_C;
      189     4707        %INCLUDE TH_DATA_R;
      190     4785        %INCLUDE EL_SUBS_C;
      191     4869        %INCLUDE ZL_MACRO_C;
      192     5519        %INCLUDE B_ERRORS_C;
      193     6646        %INCLUDE XUD_UTS_M;
      194     6728        /**/
      195     6729        /* ENTRY DEFS */
      196     6730    1   DCL X$SORT ENTRY(1) ALTRET;
      197     6731    1   DCL IOERR$COMPARE ENTRY(3);
      198     6732    1   DCL FEPERR$COMPARE ENTRY(3);
      199     6733    1   DCL THM$ERRMSG ENTRY(1);
      200     6734    1   DCL THS$SET_DEVS ENTRY(3) ALTRET;
      201     6735    1   DCL THF$DUMP ENTRY(3);
      202     6736    1   DCL THF$RAW ENTRY(1);
      203     6737    1   DCL THG$GETREC ENTRY(4) ALTRET;
      204     6738    1   DCL THG$OPENXSA ENTRY(1) ALTRET;
PL6.E3A0      #003=THC$REPORT File=THC$COMMANDS.:E05TSI                          WED 07/30/97 06:07 Page:79
      205     6739    1   DCL THG$PRECORDXSA ENTRY(1) ALTRET;
      206     6740    1   DCL THG$CLOSEXSA ENTRY ALTRET;
      207     6741    1   DCL THW$WRITE ENTRY(11);
      208     6742    1   DCL THF$HWE ENTRY(1);
      209     6743    1   DCL THF$CONFIG ENTRY(1);
      210     6744    1   DCL THC$TYPENAME ENTRY(3);
      211     6745    1   DCL THF$ADD_TEXTC ENTRY(3);
      212     6746    1   DCL THF$AMS ENTRY;
      213     6747    1   DCL THF$UPR ENTRY;
      214     6748    1   DCL THF$SYS ENTRY;
      215     6749        /**/
      216     6750        /* DCBS */
      217     6751    1   DCL M$LO DCB;
      218     6752    1   DCL M$ONFILE DCB;
      219     6753    1   DCL M$ERRLOG2 DCB;
      220     6754    1   DCL M$ERRLOG3 DCB;
      221     6755    1   DCL M$ERRLOG4 DCB;
      222     6756    1   DCL M$ERRLOG5 DCB;
      223     6757        /**/
      224     6758        /**/
      225     6759        /* SUBS FOR DEVICE TYPE CHECKING */
      226     6760        %EQU DV_SC = 0;
      227     6761        %EQU DV_MPC = 6;
      228     6762        /**/
      229     6763        /* VARIABLES */
      230     6764    1   DCL START_TIME UBIN WORD;
      231     6765    1   DCL STOP_TIME UBIN WORD;
      232     6766    1   DCL ONFILE_SPECIFIED BIT(1) STATIC INIT('0'B);
      233     6767    1   DCL OUTPUT_DCB# UBIN STATIC SYMDEF INIT( DCBNUM(M$LO));
      234     6768    1   DCL TEXT$ PTR;
      235     6769    1   DCL TEXTBUF CHAR(900) STATIC INIT(' ');
      236     6770    1   DCL 1 TVEC DALIGNED,
      237     6771    1         2 BOUND UBIN(20) UNAL,
      238     6772    1         2 * BIT(16) UNAL,
      239     6773    1         2 PTR$ PTR;
      240     6774    1   DCL TEMP_BUF CHAR(132) STATIC INIT(' ');
      241     6775    1   DCL TEMP_BUF2 CHAR(900);
PL6.E3A0      #003=THC$REPORT File=THC$COMMANDS.:E05TSI                          WED 07/30/97 06:07 Page:80
      242     6776    1   DCL BUF_COUNT UBIN;
      243     6777    1   DCL TH_RAW_FMT(0:0) PTR SYMREF;
      244     6778    1   DCL TH_DETAIL_FMT(0:0) PTR SYMREF;
      245     6779    1   DCL TH_EXTENDED_FMT(0:0) PTR SYMREF;
      246     6780    1   DCL TYPE UBIN WORD;
      247     6781    1   DCL DBUF CHAR(8) STATIC;
      248     6782    1   DCL TBUF CHAR(11) STATIC;
      249     6783    1   DCL LOC_UTS UBIN WORD STATIC;
      250     6784    1   DCL DUMP_HDR CHAR(0) CONSTANT INIT('%2/ TYPE = %D  TIME = %A - %A %10P');
      251     6785    1   DCL DUMP_FMT BIT(72) DALIGNED STATIC INIT(VECTOR(DUMP_HDR));
      252     6786    1   DCL SYM$ PTR;
      253     6787    1   DCL TEXT CHAR(8);
      254     6788    1   DCL CODE UBIN WORD;
      255     6789    1   DCL COMP_CODE UBIN;
      256     6790    1   DCL LEN UBIN WORD;
      257     6791    1   DCL TEXT_LEN UBIN WORD STATIC INIT(0);
      258     6792    1   DCL BUF_INDX UBIN WORD STATIC INIT(0);
      259     6793    1   DCL I UBIN;
      260     6794    1   DCL J UBIN;
      261     6795    1   DCL K SBIN;
      262     6796    1   DCL FOUND BIT(1);
      263     6797    1   DCL FOR_CLAUSE_FLG BIT(1);
      264     6798    1   DCL MEMORY_ERRORS BIT(1);
      265     6799    1   DCL NUM_IOERR_REC SBIN;
      266     6800    1   DCL NUM_FEPERR SBIN;
      267     6801    1   DCL NUM_RECS SBIN;
      268     6802    1   DCL NUM_TYPES SBIN;
      269     6803    1   DCL NUM_DEV SBIN;
      270     6804    1   DCL TYPES(0:%NTYPES) UBIN;
      271     6805    1   DCL RECORD_TYPE UBIN;
      272     6806    1   DCL TYPEB UBIN BYTE;
      273     6807    1   DCL TYPE_CNT(0:%NTYPES) UBIN;
      274     6808    1   DCL DEVNM(0:200) CHAR(8);
      275     6809    1   DCL DEV_CNT(0:200) SBIN;
      276     6810    1   DCL DEV_MOUNT(0:200) SBIN;
      277     6811    1   DCL CONNECTS(0:200) SBIN;
      278     6812    1   DCL ERRORS(0:200) SBIN;
PL6.E3A0      #003=THC$REPORT File=THC$COMMANDS.:E05TSI                          WED 07/30/97 06:07 Page:81
      279     6813    1   DCL INFO$ PTR;
      280     6814        %EL$ENTRY(NAME=RECORD,STCLASS="BASED(TH_RECORD.PTR$)");
      281     6818        %EL$IOERR(STCLASS="BASED(INFO$)");
      282     6828        %EL$FEPERR(STCLASS="BASED(INFO$)");
      283     6907        %EL$MTDMT(STCLASS="BASED(INFO$)");
      284     6910    1   DCL OLD_FEPERR_DATE UBIN WORD STATIC;
      285     6911    1   DCL OLD_IOERR_DATE UBIN WORD STATIC;
      286     6912    1   DCL NEW_FEPERR_DATE UBIN WORD STATIC;
      287     6913    1   DCL NEW_IOERR_DATE UBIN WORD STATIC;
      288     6914    1   DCL OLD_FEPERR_TIME CHAR(11) STATIC;
      289     6915    1   DCL OLD_IOERR_TIME CHAR(11) STATIC;
      290     6916    1   DCL NEW_FEPERR_TIME CHAR(11) STATIC;
      291     6917    1   DCL NEW_IOERR_TIME CHAR(11) STATIC;
      292     6918    1   DCL COUNT UBIN WORD;
      293     6919    1   DCL REPORT_CODE UBIN;
      294     6920    1   DCL ERRLOG_DATE UBIN WORD STATIC;
      295     6921    1   DCL DAY_BUF CHAR(3) STATIC;
      296     6922    1   DCL EOF_FLAG BIT(1);
      297     6923    1   DCL DATE_BUF CHAR(10) STATIC;
      298     6924    1   DCL NOTIMP CHAR(0) CONSTANT INIT('Unimplimented report%10P');
      299     6925    1   DCL FEPNOTIMP CHAR(0) CONSTANT INIT('HWE for FEPs not currently implimented%10P');
      300     6926    1   DCL IOMNOTIMP CHAR(0) CONSTANT INIT('HWE for IOMs not currently implimented%10P');
      301     6927    1   DCL MPCNOTIMP CHAR(0) CONSTANT INIT('HWE for MPCs not currently implimented%10P');
      302     6928    1   DCL TYPE_FMT CHAR(0) CONSTANT INIT(
      303     6929    1   'ERROR TYPES: %T%10P');
      304     6930    1   DCL SUM_FMT CHAR(0) CONSTANT INIT(
      305     6931    1   '%2/SYSTEM ERRORS%2/TYPE (MNEMONIC)%38-COUNT%/----------------------------------- -
              6931        -----%10P');
      306     6932    1   DCL SUM_ENTRY CHAR(0) CONSTANT INIT(
      307     6933    1   '%T%37-%2P%6D%10P');
      308     6934    1   DCL DEV_FMT CHAR(0) CONSTANT INIT(
      309     6935    1   '%2/PERIPHERAL DEVICE ERRORS%2/DEVICE  COUNT ACTIVITY #RETRY MOUNTS%/-------- -----
              6935         -------- ------ ------%10P');
      310     6936    1   DCL DEV_HDR BIT(72) DALIGNED STATIC INIT(VECTOR(DEV_FMT));
      311     6937    1   DCL DEV_ENTRY CHAR(0) CONSTANT INIT(
      312     6938    1   '%4A%10-%2P%5D%16-%3P%8D%26-%4P%5D%33-%5P%5D%10P');
      313     6939    1   DCL SUM_TOT  CHAR(0) CONSTANT INIT(
PL6.E3A0      #003=THC$REPORT File=THC$COMMANDS.:E05TSI                          WED 07/30/97 06:07 Page:82
      314     6940    1   '%2/TOTAL ERRORS: %D%10P');
      315     6941    1   DCL AMS_HDR CHAR(0) CONSTANT INIT(
      316     6942    1   'Anticipatory Maintenance Summary for %2P%T   %14.36.6U%10P');
      317     6943    1   DCL CONFIG_HDR CHAR(0) CONSTANT INIT(
      318     6944    1   'Configuration Report (%5P%T) for %2P%T   %14.36.6U%10P');
      319     6945    1   DCL HWA_HDR CHAR(0) CONSTANT INIT(
      320     6946    1  '%2/Hardware Analysis Report (%5P%T) for %2P%T from %3P%14.36.2U to %4P%14.36.2U%2/%
              6946        10P');
      321     6947    1   DCL HWE_HDR CHAR(0) CONSTANT INIT(
      322     6948    1   'Hardware Error Report (%5P%T) for %2P%T from %3P%14.36.2U to %4P%14.36.2U%10P');
      323     6949    1   DCL IMS_HDR CHAR(0) CONSTANT INIT(
      324     6950    1  '%2/Installation Management Summary for %2P%T from %3P%14.36.2U to %4P%14.36.2U%2/%1
              6950        0P');
      325     6951    1   DCL KEYIN_HDR CHAR(0) CONSTANT INIT(
      326     6952    1   '%2/Keyin Report for %2P%T from %3P%14.36.2U to %4P%14.36.2U%2/%10P');
      327     6953    1   DCL MPR_HDR CHAR(0) CONSTANT INIT(
      328     6954    1   '%10P');                                /* MPR FORMAT                         */
      329     6955    1   DCL PPR_HDR CHAR(0) CONSTANT INIT(
      330     6956    1   '%10P');                                /* PPR FORMAT                         */
      331     6957    1   DCL RAS_HDR CHAR(0) CONSTANT INIT(
      332     6958    1   '%10P');                                /* RAS FORMAT                         */
      333     6959    1   DCL RAW_HDR CHAR(0) CONSTANT INIT(
      334     6960    1   'Error Log Listing (%5P%T) for %2P%T from %3P%14.36.2U to %4P%14.36.2U%10P');
      335     6961    1   DCL SEC_HDR CHAR(0) CONSTANT INIT(
      336     6962    1   '%10P');                                /* SEC REPORT                         */
      337     6963    1   DCL SWE_HDR CHAR(0) CONSTANT INIT(
      338     6964    1   '%10P');                                /* SWE REPORT                         */
      339     6965    1   DCL SYS_HDR CHAR(0) CONSTANT INIT(
      340     6966    1   'System Summary for %2P%T from %3P%14.36.2U to %4P%14.36.2U%10P');
      341     6967    1   DCL UPR_HDR CHAR(0) CONSTANT INIT(
      342     6968    1   'Unit Performance Report (%5P%T) for %2P%T    %14.36.6U%10P');
      343     6969    1   DCL SUM_HDR CHAR(0) CONSTANT INIT(
      344     6970    1   'Error Log Summary for %2P%T from %3P%14.36.2U to %4P%14.36.2U%10P');
      345     6971    1   DCL DETAIL_HDR CHAR(0) CONSTANT INIT(
      346     6972        'DETAIL ERROR REPORT for %2P%T %2/
      347     6973    1   REPORT PERIOD FROM %3P%14.36.2U TO %4P%14.36.2U %10P');
      348     6974    1   DCL IOERR_HDR CHAR(0) CONSTANT INIT(
PL6.E3A0      #003=THC$REPORT File=THC$COMMANDS.:E05TSI                          WED 07/30/97 06:07 Page:83
      349     6975    1   '%/*** PERIPHERAL I/O DATA ERROR DETAIL REPORT ***%10P');
      350     6976    1   DCL FEPERR_HDR CHAR(0) CONSTANT INIT(
      351     6977    1   '%/*** FEPERR DETAIL REPORT ***%10P');
      352     6978    1   DCL MATCH_FMT CHAR(0) CONSTANT INIT(
      353     6979    1   'STATUS MATCH: %T%10P');
      354     6980    1   DCL EXCLUDE_FMT CHAR(0) CONSTANT INIT(
      355     6981    1   'STATUS EXCLUDE: %T%10P');
      356     6982    1   DCL HDR_TBL(0:17) BIT(72) DALIGNED CONSTANT INIT(VECTOR(NIL),
      357     6983    1                             VECTOR(AMS_HDR),
      358     6984    1                             VECTOR(CONFIG_HDR),
      359     6985    1                             VECTOR(NOTIMP),
      360     6986    1                             VECTOR(HWE_HDR),
      361     6987    1                             VECTOR(NOTIMP),
      362     6988    1                             VECTOR(NOTIMP),
      363     6989    1                             VECTOR(NOTIMP),
      364     6990    1                             VECTOR(NOTIMP),
      365     6991    1                             VECTOR(NOTIMP),
      366     6992    1                             VECTOR(RAW_HDR),
      367     6993    1                             VECTOR(NOTIMP),
      368     6994    1                             VECTOR(NOTIMP),
      369     6995    1                             VECTOR(SYS_HDR),
      370     6996    1                             VECTOR(UPR_HDR),
      371     6997    1                             VECTOR(SUM_HDR),
      372     6998    1                             VECTOR(RAW_HDR),
      373     6999    1                             VECTOR(DETAIL_HDR));
      374     7000    1   DCL TH_OUTBUF CHAR(100) SYMREF;
      375     7001    1   DCL DATE_HDR CHAR(0) CONSTANT INIT('%2/ ***** %A %2P%A ***** %/%10P');
      376     7002    1   DCL DATE_FMT BIT(72) DALIGNED STATIC INIT(VECTOR(DATE_HDR));
      377     7003    1   DCL TIME_HDR CHAR(0) CONSTANT INIT(
      378     7004    1   'OLDEST ENTRY - %2P%8.36.1U %1P%5A   NEWEST ENTRY - %3P%8.36.1U %4P%5A%10P');
      379     7005    1   DCL TIME_FMT BIT(72) DALIGNED STATIC INIT(VECTOR(TIME_HDR));
      380     7006    1   DCL B$TCB$ PTR SYMREF;
      381     7007        /**/
      382     7008        /* MACRO INVOCATIONS */
      383     7009        %NI$DVT (NAME=DVT,STCLASS=BASED);
      384     7016        %PARSE$OUT (NAME=OUT$BLK,STCLASS="BASED(TOP$)");
      385     7061        %PARSE$SYM (NAME=OUT$SYM,STCLASS="BASED(SYM$)");
PL6.E3A0      #003=THC$REPORT File=THC$COMMANDS.:E05TSI                          WED 07/30/97 06:07 Page:84
      386     7099        %B$TCB;
      387     7102        %B$ALT;
      388     7110        %XUD$UTS_ENTRIES;
      389     7142        %XUD_UTS_EQU;
      390     7153        /**/
      391     7154        /* FPT DEFINITIONS */
      392     7155        %FPT_OPEN(FPTN=OPEN_ERRLOG2,
      393     7156                  STCLASS="STATIC SYMDEF",
      394     7157                  ACS=SEQUEN,
      395     7158                  ASN=FILE,
      396     7159                  ORG=CONSEC,
      397     7160                  FUN=CREATE,
      398     7161                  NAME=ERRLOG2,
      399     7162                  DCB=M$ERRLOG2);
      400     7271        %FPT_CLOSE(FPTN=CLOSE_ERRLOG2,
      401     7272                   STCLASS=STATIC,
      402     7273                   DISP=SAVE,
      403     7274                   DCB=M$ERRLOG2);
      404     7316        %FPT_WRITE(FPTN=WRITE_ERRLOG2,
      405     7317                   STCLASS=STATIC,
      406     7318                   DCB=M$ERRLOG2);
      407     7349        %FPT_OPEN(FPTN=OPEN_ERRLOG3,
      408     7350                  STCLASS="STATIC SYMDEF",
      409     7351                  ACS=SEQUEN,
      410     7352                  ASN=FILE,
      411     7353                  FUN=CREATE,
      412     7354                  NAME=ERRLOG3,
      413     7355                  DCB=M$ERRLOG3,
      414     7356                  ORG=CONSEC);
      415     7465        %FPT_CLOSE(FPTN=CLOSE_ERRLOG3,
      416     7466                   STCLASS=STATIC,
      417     7467                   DISP=SAVE,
      418     7468                   DCB=M$ERRLOG3);
      419     7510        %FPT_READ(FPTN=READ_ERRLOG3,
      420     7511                  STCLASS=STATIC,
      421     7512                  DCB=M$ERRLOG3);
      422     7551        %FPT_GDS(FPTN=GET_XSA_BUF,
PL6.E3A0      #003=THC$REPORT File=THC$COMMANDS.:E05TSI                          WED 07/30/97 06:07 Page:85
      423     7552                 FREE=YES,
      424     7553                 RESULTS=TH_XSA_BUF_VECTOR,
      425     7554                 SEGSIZE=1024,
      426     7555                 STCLASS=STATIC);
      427     7571        %ZL_INPUT(FPTN=INPUT_TABLE,STCLASS=STATIC,N=1);
      428     7590        %ZL_FPT(STCLASS=STATIC,FPT=OPEN_ERRLOG2);
      429     7618        %SORT_TABLE(FPTN=SORT_ERRLOG2,
      430     7619                    STCLASS=STATIC,
      431     7620                    INSIZ=1024,
      432     7621                    OUTSIZ=1024,
      433     7622                    KCE=IOERR$COMPARE,
      434     7623                    INPUT=INPUT_TABLE,
      435     7624                    OUTPUT=OPEN_ERRLOG3);
      436     7733        %FPT_TIME (FPTN=RECORD_DATE,
      437     7734                   SOURCE=UTS,
      438     7735                   DEST=EXT,
      439     7736                   DATE=TH_DATE,
      440     7737                   TIME=TH_TIME,
      441     7738                   DAY=TH_DAY,
      442     7739                   TSTAMP=TH_LASTUTS,
      443     7740                   STCLASS=CONSTANT);
      444     7759        %FPT_TIME (FPTN=EXT_DATE,
      445     7760                   STCLASS=CONSTANT,
      446     7761                   SOURCE=UTS,
      447     7762                   TSTAMP=ERRLOG_DATE,
      448     7763                   DEST=EXT,
      449     7764                   DATE=DATE_BUF,
      450     7765                   DAY=DAY_BUF);
      451     7784        %FPT_TIME (FPTN=LOC_DATE,
      452     7785                   STCLASS=CONSTANT,
      453     7786                   SOURCE=UTS,
      454     7787                   TSTAMP=LOC_UTS,
      455     7788                   DATE=DBUF,
      456     7789                   TIME=TBUF,
      457     7790                   DEST=LOCAL);
      458     7809        %FPT_OPEN (FPTN=OPEN_LO,
      459     7810                   STCLASS="SYMREF");
PL6.E3A0      #003=THC$REPORT File=THC$COMMANDS.:E05TSI                          WED 07/30/97 06:07 Page:86
      460     7919        %FPT_OPEN (FPTN=SET_ONFILE,
      461     7920                   DCB=M$ONFILE,
      462     7921                   HDR=LO_HEADER,
      463     7922                   NAME=ONFILE_NAME,
      464     7923                   ACCT=ONFILE_ACCT,
      465     7924                   PASS=ONFILE_PASS,
      466     7925                   SN=ONFILE_SN,
      467     7926                   WSN=ONFILE_WSN,
      468     7927                   FUN=CREATE,
      469     7928                   SCRUB=YES,
      470     7929                   ORG=UR);
      471     8038        %FPT_CLOSE (FPTN=CLOSE_ONFILE,
      472     8039                    STCLASS=CONSTANT,
      473     8040                    DISP=SAVE,
      474     8041                    DCB=M$ONFILE);
      475     8083        %FPT_CLOSE (FPTN=CLOSE_LO,
      476     8084                    STCLASS=CONSTANT,
      477     8085                    DISP=SAVE,
      478     8086                    DCB=M$LO);
      479     8128        %FPT_FID (NAME=ONFILE_NAME,
      480     8129                  ACCT=ONFILE_ACCT,
      481     8130                  PASS=ONFILE_PASS,
      482     8131                  WSN=ONFILE_WSN,
      483     8132                  SN=ONFILE_SN,
      484     8133                  ASN=SET_ONFILE.V.ASN#,
      485     8134                  RES=SET_ONFILE.V.RES#,
      486     8135                  RESULTS=ONFILE_RESULTS);
      487     8158        %FPT_CMDVAR(FPTN=SILENCE_SORT,
      488     8159                    NAME=VLP_NAME,
      489     8160                    VALUE=SORT_SUPPRESS,
      490     8161                    FUN=STORE,
      491     8162                    STCLASS=CONSTANT);
      492     8179        %FPT_OPEN(FPTN=OPEN_ERRLOG4,STCLASS="STATIC SYMDEF",ACS=SEQUEN,ASN=FILE,
      493     8180                  ORG=CONSEC,FUN=CREATE,NAME=ERRLOG4,DCB=M$ERRLOG4);
      494     8289        %FPT_CLOSE(FPTN=CLOSE_ERRLOG4,STCLASS=STATIC,DISP=SAVE,DCB=M$ERRLOG4);
      495     8331        %FPT_WRITE(FPTN=WRITE_ERRLOG4,STCLASS=STATIC,DCB=M$ERRLOG4);
      496     8362        %FPT_OPEN(FPTN=OPEN_ERRLOG5,STCLASS="STATIC SYMDEF",ACS=SEQUEN,FUN=CREATE,
PL6.E3A0      #003=THC$REPORT File=THC$COMMANDS.:E05TSI                          WED 07/30/97 06:07 Page:87
      497     8363                  ASN=FILE,NAME=ERRLOG5,DCB=M$ERRLOG5,ORG=CONSEC);
      498     8472        %FPT_CLOSE(FPTN=CLOSE_ERRLOG5,STCLASS=STATIC,DISP=SAVE,DCB=M$ERRLOG5);
      499     8514        %FPT_READ(FPTN=READ_ERRLOG5,STCLASS=STATIC,DCB=M$ERRLOG5);
      500     8553        %ZL_INPUT(FPTN=INPUT_TBL,STCLASS=STATIC,N=1);
      501     8572        %ZL_FPT(STCLASS=STATIC,FPT=OPEN_ERRLOG4);
      502     8600        %SORT_TABLE(FPTN=SORT_ERRLOG4,STCLASS=STATIC,INSIZ=1024,OUTSIZ=1024,
      503     8601                    KCE=FEPERR$COMPARE,INPUT=INPUT_TBL,OUTPUT=OPEN_ERRLOG5);
      504     8710        %VLP_NAME(NAME='SORT$STAT',STCLASS=CONSTANT);
      505     8737        %VLP_NAME(FPTN=SORT_SUPPRESS,NAME='ERRORS',STCLASS=CONSTANT);
      506     8764        %VLP_NAME(FPTN=ERRLOG2,NAME='*ERRLOG2');
      507     8791        %VLP_NAME(FPTN=ERRLOG3,NAME='*ERRLOG3');
      508     8818        %VLP_NAME(FPTN=ERRLOG4,NAME='*ERRLOG4');
      509     8845        %VLP_NAME(FPTN=ERRLOG5,NAME='*ERRLOG5');
      510     8872        %VLP_NAME (FPTN=ONFILE_NAME,LEN=31);
      511     8899        %VLP_ACCT (FPTN=ONFILE_ACCT);
      512     8912        %VLP_PASS (FPTN=ONFILE_PASS);
      513     8925        %VLP_WSN (FPTN=ONFILE_WSN);
      514     8938        %VLP_SN (FPTN=ONFILE_SN);
      515     8951        %VLR_FID (FPTN=ONFILE_RESULTS);
      516     8970        %VLP_HDR (FPTN=LO_HEADER,
      517     8971                 STCLASS="STATIC SYMDEF",
      518     8972                 COUNT=107,
      519     8973                 HEADERHEIGHT=2,
      520     8974                 TITLE=' ',
      521     8975                 RESETPAGE=YES,
      522     8976                 LEN=106);
      523     8992        %EJECT;
PL6.E3A0      #003=THC$REPORT File=THC$COMMANDS.:E05TSI                          WED 07/30/97 06:07 Page:88
      524     8993    1        ONFILE_SPECIFIED = %FALSE;

   8993  9 000002   000000 450000 7                  STZ     ONFILE_SPECIFIED

      525     8994    1        OUTPUT_DCB# = DCBNUM(M$LO);

   8994  9 000003   000000 236007 xsym               LDQ     M$LO,DL
         9 000004   000001 756000 7                  STQ     OUTPUT_DCB#

      526     8995    1        IF DCBADDR(DCBNUM(M$LO))->F$DCB.FCD THEN CALL M$CLOSE(CLOSE_LO);

   8995  9 000005   000000 236007 xsym               LDQ     M$LO,DL
         9 000006   000000 470400 10                 LDP0    0
         9 000007   000000 471500                    LDP1    0,,PR0
         9 000010   100000 473506                    LDP3    0,QL,PR1
         9 000011   300031 236100                    LDQ     25,,PR3
         9 000012   020000 316007                    CANQ    8192,DL
         9 000013   000017 600000 9                  TZE     s:8996

   8995  9 000014   000756 630400 8                  EPPR0   CLOSE_LO
         9 000015   050001 713400                    CLIMB   close
         9 000016   406000 401760                    pmme    nvectors=13

      527     8996    1        IF DCBADDR(DCBNUM(M$ONFILE))->F$DCB.FCD THEN CALL M$CLOSE(CLOSE_ONFILE);

   8996  9 000017   000000 236007 xsym               LDQ     M$ONFILE,DL
         9 000020   000000 470400 10                 LDP0    0
         9 000021   000000 471500                    LDP1    0,,PR0
         9 000022   100000 473506                    LDP3    0,QL,PR1
         9 000023   300031 236100                    LDQ     25,,PR3
         9 000024   020000 316007                    CANQ    8192,DL
         9 000025   000031 600000 9                  TZE     s:8997

   8996  9 000026   000720 630400 8                  EPPR0   CLOSE_ONFILE
         9 000027   050001 713400                    CLIMB   close
         9 000030   406000 401760                    pmme    nvectors=13

PL6.E3A0      #003=THC$REPORT File=THC$COMMANDS.:E05TSI                          WED 07/30/97 06:07 Page:89
      528     8997    1        COMP_CODE = 0;

   8997  9 000031   200361 450100                    STZ     COMP_CODE,,AUTO

      529     8998    1        CODE = %ALL;

   8998  9 000032   000016 235007                    LDA     14,DL
         9 000033   200360 755100                    STA     CODE,,AUTO

      530     8999    1        TEMP_BUF = 'ALL';

   8999  9 000034   040000 100400                    MLR     fill='040'O
         9 000035   001037 000003 8                  ADSC9   SORT_SUPPRESS+2          cn=0,n=3
         9 000036   000343 000204 7                  ADSC9   TEMP_BUF                 cn=0,n=132

      531     9000    1        LEN = 0;

   9000  9 000037   200362 450100                    STZ     LEN,,AUTO

      532     9001    1        BUF_INDX = 3;

   9001  9 000040   000003 236007                    LDQ     3,DL
         9 000041   000415 756000 7                  STQ     BUF_INDX

      533     9002    1        FOR_CLAUSE_FLG = %FALSE;

   9002  9 000042   200367 450100                    STZ     FOR_CLAUSE_FLG,,AUTO

      534     9003    1        REPORT_CODE = OUT$BLK.SUBLK$(0)->OUT$BLK.CODE;

   9003  9 000043   200003 470500                    LDP0    @TOP$,,AUTO
         9 000044   000000 471500                    LDP1    0,,PR0
         9 000045   100003 473500                    LDP3    3,,PR1
         9 000046   300000 236100                    LDQ     0,,PR3
         9 000047   777777 376007                    ANQ     -1,DL
         9 000050   203004 756100                    STQ     REPORT_CODE,,AUTO

PL6.E3A0      #003=THC$REPORT File=THC$COMMANDS.:E05TSI                          WED 07/30/97 06:07 Page:90
      535     9004    1        TH_NUM_REP_DEVS = 0;

   9004  9 000051   000000 450000 xsym               STZ     TH_NUM_REP_DEVS

      536     9005    2        DO I = 1 TO OUT$BLK.NSUBLKS - 1;

   9005  9 000052   000001 235007                    LDA     1,DL
         9 000053   200363 755100                    STA     I,,AUTO
         9 000054   000660 710000 9                  TRA     s:9159+3

      537     9006    3           DO CASE(OUT$BLK.SUBLK$(I)->OUT$BLK.CODE);

   9006  9 000055   200003 470500                    LDP0    @TOP$,,AUTO
         9 000056   000000 471500                    LDP1    0,,PR0
         9 000057   200363 720100                    LXL0    I,,AUTO
         9 000060   100003 473510                    LDP3    3,X0,PR1
         9 000061   300000 721100                    LXL1    0,,PR3
         9 000062   000003 101003                    CMPX1   3,DU
         9 000063   000065 602011 9                  TNC     s:9006+8,X1
         9 000064   000655 710000 9                  TRA     s:9159
         9 000065   000655 710000 9                  TRA     s:9159
         9 000066   000070 710000 9                  TRA     s:9008
         9 000067   000617 710000 9                  TRA     s:9151

      538     9007    3              CASE(%FOR_CLAUSE);

      539     9008    3                 BUF_INDX = 0;

   9008  9 000070   000415 450000 7                  STZ     BUF_INDX

      540     9009    3                 TEMP_BUF = ' ';

   9009  9 000071   040000 100400                    MLR     fill='040'O
         9 000072   000035 000001 xsym               ADSC9   B_VECTNIL+29             cn=0,n=1
         9 000073   000343 000204 7                  ADSC9   TEMP_BUF                 cn=0,n=132

      541     9010    4                 DO J = 0 TO OUT$BLK.SUBLK$(I)->OUT$BLK.NSUBLKS - 1;
PL6.E3A0      #003=THC$REPORT File=THC$COMMANDS.:E05TSI                          WED 07/30/97 06:07 Page:91

   9010  9 000074   200364 450100                    STZ     J,,AUTO
         9 000075   000603 710000 9                  TRA     s:9148+3

      542     9011    4                    TEXT = '00000000';

   9011  9 000076   001040 237000 8                  LDAQ    SORT_SUPPRESS+3
         9 000077   200356 757100                    STAQ    TEXT,,AUTO

      543     9012    4                    CODE = OUT$BLK.SUBLK$(I)->OUT$BLK.SUBLK$(J)->OUT$BLK.SUBLK$(0)->
              9012                             OUT$BLK.CODE;

   9012  9 000100   200003 470500                    LDP0    @TOP$,,AUTO
         9 000101   000000 471500                    LDP1    0,,PR0
         9 000102   200363 720100                    LXL0    I,,AUTO
         9 000103   100003 473510                    LDP3    3,X0,PR1
         9 000104   200364 721100                    LXL1    J,,AUTO
         9 000105   300003 474511                    LDP4    3,X1,PR3
         9 000106   400003 475500                    LDP5    3,,PR4
         9 000107   500000 236100                    LDQ     0,,PR5
         9 000110   777777 376007                    ANQ     -1,DL
         9 000111   200360 756100                    STQ     CODE,,AUTO

      544     9013    4                    LEN = 2;

   9013  9 000112   000002 235007                    LDA     2,DL
         9 000113   200362 755100                    STA     LEN,,AUTO

      545     9014    4                    COMP_CODE = CODE;

   9014  9 000114   200361 756100                    STQ     COMP_CODE,,AUTO

      546     9015    5                    DO CASE(CODE);

   9015  9 000115   000043 116007                    CMPQ    35,DL
         9 000116   000120 602006 9                  TNC     s:9015+3,QL
         9 000117   000515 710000 9                  TRA     s:9128
PL6.E3A0      #003=THC$REPORT File=THC$COMMANDS.:E05TSI                          WED 07/30/97 06:07 Page:92
         9 000120   000515 710000 9                  TRA     s:9128
         9 000121   000251 710000 9                  TRA     s:9044
         9 000122   000413 710000 9                  TRA     s:9093
         9 000123   000405 710000 9                  TRA     s:9090
         9 000124   000265 710000 9                  TRA     s:9050
         9 000125   000515 710000 9                  TRA     s:9128
         9 000126   000301 710000 9                  TRA     s:9056
         9 000127   000307 710000 9                  TRA     s:9059
         9 000130   000315 710000 9                  TRA     s:9062
         9 000131   000323 710000 9                  TRA     s:9065
         9 000132   000377 710000 9                  TRA     s:9087
         9 000133   000363 710000 9                  TRA     s:9081
         9 000134   000371 710000 9                  TRA     s:9084
         9 000135   000273 710000 9                  TRA     s:9053
         9 000136   000421 710000 9                  TRA     s:9096
         9 000137   000163 710000 9                  TRA     s:9017
         9 000140   000173 710000 9                  TRA     s:9021
         9 000141   000203 710000 9                  TRA     s:9025
         9 000142   000213 710000 9                  TRA     s:9029
         9 000143   000223 710000 9                  TRA     s:9033
         9 000144   000233 710000 9                  TRA     s:9037
         9 000145   000243 710000 9                  TRA     s:9041
         9 000146   000515 710000 9                  TRA     s:9128
         9 000147   000430 710000 9                  TRA     s:9100
         9 000150   000437 710000 9                  TRA     s:9104
         9 000151   000446 710000 9                  TRA     s:9108
         9 000152   000456 710000 9                  TRA     s:9112
         9 000153   000466 710000 9                  TRA     s:9116
         9 000154   000476 710000 9                  TRA     s:9120
         9 000155   000506 710000 9                  TRA     s:9124
         9 000156   000257 710000 9                  TRA     s:9047
         9 000157   000331 710000 9                  TRA     s:9068
         9 000160   000345 710000 9                  TRA     s:9074
         9 000161   000337 710000 9                  TRA     s:9071
         9 000162   000353 710000 9                  TRA     s:9077

      547     9016    5                       CASE(%MTU);
PL6.E3A0      #003=THC$REPORT File=THC$COMMANDS.:E05TSI                          WED 07/30/97 06:07 Page:93

      548     9017    5                          TEXT = 'MTU';

   9017  9 000163   040100 100400                    MLR     fill='040'O
         9 000164   001042 000003 8                  ADSC9   SORT_SUPPRESS+5          cn=0,n=3
         9 000165   200356 000010                    ADSC9   TEXT,,AUTO               cn=0,n=8

      549     9018    5                          COMP_CODE = %PERIPH;

   9018  9 000166   000004 235007                    LDA     4,DL
         9 000167   200361 755100                    STA     COMP_CODE,,AUTO

      550     9019    5                          LEN = 3;

   9019  9 000170   000003 235007                    LDA     3,DL
         9 000171   200362 755100                    STA     LEN,,AUTO
         9 000172   000515 710000 9                  TRA     s:9128

      551     9020    5                       CASE(%MSU);

      552     9021    5                          TEXT = 'MSU';

   9021  9 000173   040100 100400                    MLR     fill='040'O
         9 000174   001043 000003 8                  ADSC9   SORT_SUPPRESS+6          cn=0,n=3
         9 000175   200356 000010                    ADSC9   TEXT,,AUTO               cn=0,n=8

      553     9022    5                          COMP_CODE = %PERIPH;

   9022  9 000176   000004 235007                    LDA     4,DL
         9 000177   200361 755100                    STA     COMP_CODE,,AUTO

      554     9023    5                          LEN = 3;

   9023  9 000200   000003 235007                    LDA     3,DL
         9 000201   200362 755100                    STA     LEN,,AUTO
         9 000202   000515 710000 9                  TRA     s:9128

PL6.E3A0      #003=THC$REPORT File=THC$COMMANDS.:E05TSI                          WED 07/30/97 06:07 Page:94
      555     9024    5                       CASE(%CRU);

      556     9025    5                          TEXT = 'CRU';

   9025  9 000203   040100 100400                    MLR     fill='040'O
         9 000204   001044 000003 8                  ADSC9   SORT_SUPPRESS+7          cn=0,n=3
         9 000205   200356 000010                    ADSC9   TEXT,,AUTO               cn=0,n=8

      557     9026    5                          COMP_CODE = %PERIPH;

   9026  9 000206   000004 235007                    LDA     4,DL
         9 000207   200361 755100                    STA     COMP_CODE,,AUTO

      558     9027    5                          LEN = 3;

   9027  9 000210   000003 235007                    LDA     3,DL
         9 000211   200362 755100                    STA     LEN,,AUTO
         9 000212   000515 710000 9                  TRA     s:9128

      559     9028    5                       CASE(%PCU);

      560     9029    5                          TEXT = 'PCU';

   9029  9 000213   040100 100400                    MLR     fill='040'O
         9 000214   001045 000003 8                  ADSC9   SORT_SUPPRESS+8          cn=0,n=3
         9 000215   200356 000010                    ADSC9   TEXT,,AUTO               cn=0,n=8

      561     9030    5                          COMP_CODE = %PERIPH;

   9030  9 000216   000004 235007                    LDA     4,DL
         9 000217   200361 755100                    STA     COMP_CODE,,AUTO

      562     9031    5                          LEN = 3;

   9031  9 000220   000003 235007                    LDA     3,DL
         9 000221   200362 755100                    STA     LEN,,AUTO
         9 000222   000515 710000 9                  TRA     s:9128
PL6.E3A0      #003=THC$REPORT File=THC$COMMANDS.:E05TSI                          WED 07/30/97 06:07 Page:95

      563     9032    5                       CASE(%PRU);

      564     9033    5                          TEXT = 'PRU';

   9033  9 000223   040100 100400                    MLR     fill='040'O
         9 000224   001046 000003 8                  ADSC9   SORT_SUPPRESS+9          cn=0,n=3
         9 000225   200356 000010                    ADSC9   TEXT,,AUTO               cn=0,n=8

      565     9034    5                          COMP_CODE = %PERIPH;

   9034  9 000226   000004 235007                    LDA     4,DL
         9 000227   200361 755100                    STA     COMP_CODE,,AUTO

      566     9035    5                          LEN = 3;

   9035  9 000230   000003 235007                    LDA     3,DL
         9 000231   200362 755100                    STA     LEN,,AUTO
         9 000232   000515 710000 9                  TRA     s:9128

      567     9036    5                       CASE(%MPC1);

      568     9037    5                          TEXT = 'MPC';

   9037  9 000233   040100 100400                    MLR     fill='040'O
         9 000234   001047 000003 8                  ADSC9   SORT_SUPPRESS+10         cn=0,n=3
         9 000235   200356 000010                    ADSC9   TEXT,,AUTO               cn=0,n=8

      569     9038    5                          COMP_CODE = %MPC;

   9038  9 000236   000005 235007                    LDA     5,DL
         9 000237   200361 755100                    STA     COMP_CODE,,AUTO

      570     9039    5                          LEN = 3;

   9039  9 000240   000003 235007                    LDA     3,DL
         9 000241   200362 755100                    STA     LEN,,AUTO
PL6.E3A0      #003=THC$REPORT File=THC$COMMANDS.:E05TSI                          WED 07/30/97 06:07 Page:96
         9 000242   000515 710000 9                  TRA     s:9128

      571     9040    5                       CASE(%CONSOLE);

      572     9041    5                          TEXT = 'CONSOLE';

   9041  9 000243   040100 100400                    MLR     fill='040'O
         9 000244   001050 000007 8                  ADSC9   SORT_SUPPRESS+11         cn=0,n=7
         9 000245   200356 000010                    ADSC9   TEXT,,AUTO               cn=0,n=8

      573     9042    5                          LEN = 7;

   9042  9 000246   000007 235007                    LDA     7,DL
         9 000247   200362 755100                    STA     LEN,,AUTO
         9 000250   000515 710000 9                  TRA     s:9128

      574     9043    5                       CASE(%MEM);

      575     9044    5                          TEXT = 'MEM';

   9044  9 000251   040100 100400                    MLR     fill='040'O
         9 000252   001052 000003 8                  ADSC9   SORT_SUPPRESS+13         cn=0,n=3
         9 000253   200356 000010                    ADSC9   TEXT,,AUTO               cn=0,n=8

      576     9045    5                          LEN = 3;

   9045  9 000254   000003 235007                    LDA     3,DL
         9 000255   200362 755100                    STA     LEN,,AUTO
         9 000256   000515 710000 9                  TRA     s:9128

      577     9046    5                       CASE(%MC);

      578     9047    5                          TEXT = 'MC';

   9047  9 000257   040100 100400                    MLR     fill='040'O
         9 000260   001053 000002 8                  ADSC9   SORT_SUPPRESS+14         cn=0,n=2
         9 000261   200356 000010                    ADSC9   TEXT,,AUTO               cn=0,n=8
PL6.E3A0      #003=THC$REPORT File=THC$COMMANDS.:E05TSI                          WED 07/30/97 06:07 Page:97

      579     9048    5                          COMP_CODE = %PERIPH;

   9048  9 000262   000004 235007                    LDA     4,DL
         9 000263   200361 755100                    STA     COMP_CODE,,AUTO
         9 000264   000515 710000 9                  TRA     s:9128

      580     9049    5                       CASE(%MT);

      581     9050    5                          TEXT = 'MT';

   9050  9 000265   040100 100400                    MLR     fill='040'O
         9 000266   001042 000002 8                  ADSC9   SORT_SUPPRESS+5          cn=0,n=2
         9 000267   200356 000010                    ADSC9   TEXT,,AUTO               cn=0,n=8

      582     9051    5                          COMP_CODE = %PERIPH;

   9051  9 000270   000004 235007                    LDA     4,DL
         9 000271   200361 755100                    STA     COMP_CODE,,AUTO
         9 000272   000515 710000 9                  TRA     s:9128

      583     9052    5                       CASE(%SC);

      584     9053    5                          TEXT = 'SC';

   9053  9 000273   040100 100400                    MLR     fill='040'O
         9 000274   001054 000002 8                  ADSC9   SORT_SUPPRESS+15         cn=0,n=2
         9 000275   200356 000010                    ADSC9   TEXT,,AUTO               cn=0,n=8

      585     9054    5                          COMP_CODE = %PERIPH;

   9054  9 000276   000004 235007                    LDA     4,DL
         9 000277   200361 755100                    STA     COMP_CODE,,AUTO
         9 000300   000515 710000 9                  TRA     s:9128

      586     9055    5                       CASE(%DP);

PL6.E3A0      #003=THC$REPORT File=THC$COMMANDS.:E05TSI                          WED 07/30/97 06:07 Page:98
      587     9056    5                          TEXT = 'DP';

   9056  9 000301   040100 100400                    MLR     fill='040'O
         9 000302   001055 000002 8                  ADSC9   SORT_SUPPRESS+16         cn=0,n=2
         9 000303   200356 000010                    ADSC9   TEXT,,AUTO               cn=0,n=8

      588     9057    5                          COMP_CODE = %PERIPH;

   9057  9 000304   000004 235007                    LDA     4,DL
         9 000305   200361 755100                    STA     COMP_CODE,,AUTO
         9 000306   000515 710000 9                  TRA     s:9128

      589     9058    5                       CASE(%CR);

      590     9059    5                          TEXT = 'CR';

   9059  9 000307   040100 100400                    MLR     fill='040'O
         9 000310   001044 000002 8                  ADSC9   SORT_SUPPRESS+7          cn=0,n=2
         9 000311   200356 000010                    ADSC9   TEXT,,AUTO               cn=0,n=8

      591     9060    5                          COMP_CODE = %PERIPH;

   9060  9 000312   000004 235007                    LDA     4,DL
         9 000313   200361 755100                    STA     COMP_CODE,,AUTO
         9 000314   000515 710000 9                  TRA     s:9128

      592     9061    5                       CASE(%CP);

      593     9062    5                          TEXT = 'CP';

   9062  9 000315   040100 100400                    MLR     fill='040'O
         9 000316   001056 000002 8                  ADSC9   SORT_SUPPRESS+17         cn=0,n=2
         9 000317   200356 000010                    ADSC9   TEXT,,AUTO               cn=0,n=8

      594     9063    5                          COMP_CODE = %PERIPH;

   9063  9 000320   000004 235007                    LDA     4,DL
PL6.E3A0      #003=THC$REPORT File=THC$COMMANDS.:E05TSI                          WED 07/30/97 06:07 Page:99
         9 000321   200361 755100                    STA     COMP_CODE,,AUTO
         9 000322   000515 710000 9                  TRA     s:9128

      595     9064    5                       CASE(%LP);

      596     9065    5                          TEXT = 'LP';

   9065  9 000323   040100 100400                    MLR     fill='040'O
         9 000324   001057 000002 8                  ADSC9   SORT_SUPPRESS+18         cn=0,n=2
         9 000325   200356 000010                    ADSC9   TEXT,,AUTO               cn=0,n=8

      597     9066    5                          COMP_CODE = %PERIPH;

   9066  9 000326   000004 235007                    LDA     4,DL
         9 000327   200361 755100                    STA     COMP_CODE,,AUTO
         9 000330   000515 710000 9                  TRA     s:9128

      598     9067    5                       CASE(%AP);

      599     9068    5                          TEXT = 'AP';

   9068  9 000331   040100 100400                    MLR     fill='040'O
         9 000332   001060 000002 8                  ADSC9   SORT_SUPPRESS+19         cn=0,n=2
         9 000333   200356 000010                    ADSC9   TEXT,,AUTO               cn=0,n=8

      600     9069    5                          COMP_CODE = %PERIPH;

   9069  9 000334   000004 235007                    LDA     4,DL
         9 000335   200361 755100                    STA     COMP_CODE,,AUTO
         9 000336   000515 710000 9                  TRA     s:9128

      601     9070    5                       CASE(%OD);

      602     9071    5                          TEXT = 'OD';

   9071  9 000337   040100 100400                    MLR     fill='040'O
         9 000340   001061 000002 8                  ADSC9   SORT_SUPPRESS+20         cn=0,n=2
PL6.E3A0      #003=THC$REPORT File=THC$COMMANDS.:E05TSI                          WED 07/30/97 06:07 Page:100
         9 000341   200356 000010                    ADSC9   TEXT,,AUTO               cn=0,n=8

      603     9072    5                          COMP_CODE = %PERIPH;

   9072  9 000342   000004 235007                    LDA     4,DL
         9 000343   200361 755100                    STA     COMP_CODE,,AUTO
         9 000344   000515 710000 9                  TRA     s:9128

      604     9073    5                       CASE(%AC);

      605     9074    5                          TEXT = 'AC';

   9074  9 000345   040100 100400                    MLR     fill='040'O
         9 000346   001062 000002 8                  ADSC9   SORT_SUPPRESS+21         cn=0,n=2
         9 000347   200356 000010                    ADSC9   TEXT,,AUTO               cn=0,n=8

      606     9075    5                          COMP_CODE = %MPC;

   9075  9 000350   000005 235007                    LDA     5,DL
         9 000351   200361 755100                    STA     COMP_CODE,,AUTO
         9 000352   000515 710000 9                  TRA     s:9128

      607     9076    5                       CASE(%OPC);

      608     9077    5                          TEXT = 'OPTC';

   9077  9 000353   001063 235000 8                  LDA     SORT_SUPPRESS+22
         9 000354   000035 236000 xsym               LDQ     B_VECTNIL+29
         9 000355   200356 757100                    STAQ    TEXT,,AUTO

      609     9078    5                          COMP_CODE = %MPC;

   9078  9 000356   000005 235007                    LDA     5,DL
         9 000357   200361 755100                    STA     COMP_CODE,,AUTO

      610     9079    5                          LEN = 4;

PL6.E3A0      #003=THC$REPORT File=THC$COMMANDS.:E05TSI                          WED 07/30/97 06:07 Page:101
   9079  9 000360   000004 235007                    LDA     4,DL
         9 000361   200362 755100                    STA     LEN,,AUTO
         9 000362   000515 710000 9                  TRA     s:9128

      611     9080    5                       CASE(%UC);

      612     9081    5                          TEXT = 'UC';

   9081  9 000363   040100 100400                    MLR     fill='040'O
         9 000364   001064 000002 8                  ADSC9   SORT_SUPPRESS+23         cn=0,n=2
         9 000365   200356 000010                    ADSC9   TEXT,,AUTO               cn=0,n=8

      613     9082    5                          COMP_CODE = %MPC;

   9082  9 000366   000005 235007                    LDA     5,DL
         9 000367   200361 755100                    STA     COMP_CODE,,AUTO
         9 000370   000515 710000 9                  TRA     s:9128

      614     9083    5                       CASE(%DC);

      615     9084    5                          TEXT = 'DC';

   9084  9 000371   040100 100400                    MLR     fill='040'O
         9 000372   001065 000002 8                  ADSC9   SORT_SUPPRESS+24         cn=0,n=2
         9 000373   200356 000010                    ADSC9   TEXT,,AUTO               cn=0,n=8

      616     9085    5                          COMP_CODE = %MPC;

   9085  9 000374   000005 235007                    LDA     5,DL
         9 000375   200361 755100                    STA     COMP_CODE,,AUTO
         9 000376   000515 710000 9                  TRA     s:9128

      617     9086    5                       CASE(%TC);

      618     9087    5                          TEXT = 'TC';

   9087  9 000377   040100 100400                    MLR     fill='040'O
PL6.E3A0      #003=THC$REPORT File=THC$COMMANDS.:E05TSI                          WED 07/30/97 06:07 Page:102
         9 000400   001066 000002 8                  ADSC9   SORT_SUPPRESS+25         cn=0,n=2
         9 000401   200356 000010                    ADSC9   TEXT,,AUTO               cn=0,n=8

      619     9088    5                          COMP_CODE = %MPC;

   9088  9 000402   000005 235007                    LDA     5,DL
         9 000403   200361 755100                    STA     COMP_CODE,,AUTO
         9 000404   000515 710000 9                  TRA     s:9128

      620     9089    5                       CASE(%FEP);

      621     9090    5                          TEXT = 'FEP';

   9090  9 000405   040100 100400                    MLR     fill='040'O
         9 000406   001067 000003 8                  ADSC9   SORT_SUPPRESS+26         cn=0,n=3
         9 000407   200356 000010                    ADSC9   TEXT,,AUTO               cn=0,n=8

      622     9091    5                          LEN = 3;

   9091  9 000410   000003 235007                    LDA     3,DL
         9 000411   200362 755100                    STA     LEN,,AUTO
         9 000412   000515 710000 9                  TRA     s:9128

      623     9092    5                       CASE(%IOM);

      624     9093    5                          TEXT = 'IOM';

   9093  9 000413   040100 100400                    MLR     fill='040'O
         9 000414   001070 000003 8                  ADSC9   SORT_SUPPRESS+27         cn=0,n=3
         9 000415   200356 000010                    ADSC9   TEXT,,AUTO               cn=0,n=8

      625     9094    5                          LEN = 3;

   9094  9 000416   000003 235007                    LDA     3,DL
         9 000417   200362 755100                    STA     LEN,,AUTO
         9 000420   000515 710000 9                  TRA     s:9128

PL6.E3A0      #003=THC$REPORT File=THC$COMMANDS.:E05TSI                          WED 07/30/97 06:07 Page:103
      626     9095    5                       CASE(%ALL);

      627     9096    5                          COMP_CODE = 0;

   9096  9 000421   200361 450100                    STZ     COMP_CODE,,AUTO

      628     9097    5                          TEXT = 'ALL';

   9097  9 000422   040100 100400                    MLR     fill='040'O
         9 000423   001037 000003 8                  ADSC9   SORT_SUPPRESS+2          cn=0,n=3
         9 000424   200356 000010                    ADSC9   TEXT,,AUTO               cn=0,n=8

      629     9098    5                          LEN = 3;

   9098  9 000425   000003 235007                    LDA     3,DL
         9 000426   200362 755100                    STA     LEN,,AUTO
         9 000427   000515 710000 9                  TRA     s:9128

      630     9099    5                       CASE(%FNP);

      631     9100    5                          TEXT='FEP';

   9100  9 000430   040100 100400                    MLR     fill='040'O
         9 000431   001067 000003 8                  ADSC9   SORT_SUPPRESS+26         cn=0,n=3
         9 000432   200356 000010                    ADSC9   TEXT,,AUTO               cn=0,n=8

      632     9101    5                          LEN=3;

   9101  9 000433   000003 235007                    LDA     3,DL
         9 000434   200362 755100                    STA     LEN,,AUTO

      633     9102    5                          CODE=%FEP;

   9102  9 000435   200360 755100                    STA     CODE,,AUTO
         9 000436   000515 710000 9                  TRA     s:9128

      634     9103    5                       CASE(%TAPE);
PL6.E3A0      #003=THC$REPORT File=THC$COMMANDS.:E05TSI                          WED 07/30/97 06:07 Page:104

      635     9104    5                          TEXT='MT';

   9104  9 000437   040100 100400                    MLR     fill='040'O
         9 000440   001042 000002 8                  ADSC9   SORT_SUPPRESS+5          cn=0,n=2
         9 000441   200356 000010                    ADSC9   TEXT,,AUTO               cn=0,n=8

      636     9105    5                          CODE=%MT;

   9105  9 000442   000004 235007                    LDA     4,DL
         9 000443   200360 755100                    STA     CODE,,AUTO

      637     9106    5                          COMP_CODE=%PERIPH;

   9106  9 000444   200361 755100                    STA     COMP_CODE,,AUTO
         9 000445   000515 710000 9                  TRA     s:9128

      638     9107    5                       CASE(%DISK);

      639     9108    5                          TEXT='DP';

   9108  9 000446   040100 100400                    MLR     fill='040'O
         9 000447   001055 000002 8                  ADSC9   SORT_SUPPRESS+16         cn=0,n=2
         9 000450   200356 000010                    ADSC9   TEXT,,AUTO               cn=0,n=8

      640     9109    5                          COMP_CODE=%PERIPH;

   9109  9 000451   000004 235007                    LDA     4,DL
         9 000452   200361 755100                    STA     COMP_CODE,,AUTO

      641     9110    5                          CODE=%DP;

   9110  9 000453   000006 235007                    LDA     6,DL
         9 000454   200360 755100                    STA     CODE,,AUTO
         9 000455   000515 710000 9                  TRA     s:9128

      642     9111    5                       CASE(%READER);
PL6.E3A0      #003=THC$REPORT File=THC$COMMANDS.:E05TSI                          WED 07/30/97 06:07 Page:105

      643     9112    5                          TEXT='CR';

   9112  9 000456   040100 100400                    MLR     fill='040'O
         9 000457   001044 000002 8                  ADSC9   SORT_SUPPRESS+7          cn=0,n=2
         9 000460   200356 000010                    ADSC9   TEXT,,AUTO               cn=0,n=8

      644     9113    5                          COMP_CODE=%PERIPH;

   9113  9 000461   000004 235007                    LDA     4,DL
         9 000462   200361 755100                    STA     COMP_CODE,,AUTO

      645     9114    5                          CODE=%CR;

   9114  9 000463   000007 235007                    LDA     7,DL
         9 000464   200360 755100                    STA     CODE,,AUTO
         9 000465   000515 710000 9                  TRA     s:9128

      646     9115    5                       CASE(%PUNCH);

      647     9116    5                          TEXT='CP';

   9116  9 000466   040100 100400                    MLR     fill='040'O
         9 000467   001056 000002 8                  ADSC9   SORT_SUPPRESS+17         cn=0,n=2
         9 000470   200356 000010                    ADSC9   TEXT,,AUTO               cn=0,n=8

      648     9117    5                          COMP_CODE=%PERIPH;

   9117  9 000471   000004 235007                    LDA     4,DL
         9 000472   200361 755100                    STA     COMP_CODE,,AUTO

      649     9118    5                          CODE=%CP;

   9118  9 000473   000010 235007                    LDA     8,DL
         9 000474   200360 755100                    STA     CODE,,AUTO
         9 000475   000515 710000 9                  TRA     s:9128

PL6.E3A0      #003=THC$REPORT File=THC$COMMANDS.:E05TSI                          WED 07/30/97 06:07 Page:106
      650     9119    5                       CASE(%PRINTER);

      651     9120    5                          TEXT='LP';

   9120  9 000476   040100 100400                    MLR     fill='040'O
         9 000477   001057 000002 8                  ADSC9   SORT_SUPPRESS+18         cn=0,n=2
         9 000500   200356 000010                    ADSC9   TEXT,,AUTO               cn=0,n=8

      652     9121    5                          COMP_CODE=%PERIPH;

   9121  9 000501   000004 235007                    LDA     4,DL
         9 000502   200361 755100                    STA     COMP_CODE,,AUTO

      653     9122    5                          CODE=%LP;

   9122  9 000503   000011 235007                    LDA     9,DL
         9 000504   200360 755100                    STA     CODE,,AUTO
         9 000505   000515 710000 9                  TRA     s:9128

      654     9123    5                       CASE(%URC);

      655     9124    5                          TEXT='UC';

   9124  9 000506   040100 100400                    MLR     fill='040'O
         9 000507   001064 000002 8                  ADSC9   SORT_SUPPRESS+23         cn=0,n=2
         9 000510   200356 000010                    ADSC9   TEXT,,AUTO               cn=0,n=8

      656     9125    5                          COMP_CODE=%MPC;

   9125  9 000511   000005 235007                    LDA     5,DL
         9 000512   200361 755100                    STA     COMP_CODE,,AUTO

      657     9126    5                          CODE=%UC;

   9126  9 000513   000013 235007                    LDA     11,DL
         9 000514   200360 755100                    STA     CODE,,AUTO

PL6.E3A0      #003=THC$REPORT File=THC$COMMANDS.:E05TSI                          WED 07/30/97 06:07 Page:107
      658     9127    5                    END;                      /* DO CASE CODE                       */

      659     9128    4                    IF OUT$BLK.SUBLK$(I)->OUT$BLK.SUBLK$(J)->OUT$BLK.NSUBLKS = 2

   9128  9 000515   000000 471500                    LDP1    0,,PR0
         9 000516   100003 473510                    LDP3    3,X0,PR1
         9 000517   300003 474511                    LDP4    3,X1,PR3
         9 000520   400001 222100                    LDX2    1,,PR4
         9 000521   000002 102003                    CMPX2   2,DU
         9 000522   000544 601000 9                  TNZ     s:9138

      660     9129    4                       THEN
      661     9130    5                       DO;

      662     9131    5                         SYM$ = OUT$BLK.SUBLK$(I)->OUT$BLK.SUBLK$(J)->OUT$BLK.SUBLK$(1
              9131                                   );

   9131  9 000523   400004 236100                    LDQ     4,,PR4
         9 000524   200355 756100                    STQ     SYM$,,AUTO

      663     9132    5                          CALL INSERT(TEXT,LEN,OUT$SYM.COUNT,OUT$SYM.TEXT);

   9132  9 000525   200355 475500                    LDP5    SYM$,,AUTO
         9 000526   500004 236100                    LDQ     4,,PR5
         9 000527   000033 772000                    QRL     27
         9 000530   000000 623006                    EAX3    0,QL
         9 000531   000000 624006                    EAX4    0,QL
         9 000532   200362 235100                    LDA     LEN,,AUTO
         9 000533   040145 100540                    MLR     fill='040'O
         9 000534   500004 200013                    ADSC9   4,,PR5                   cn=1,n=*X3
         9 000535   200356 000014                    ADSC9   TEXT,A,AUTO              cn=0,n=*X4

      664     9133    5                          LEN = LEN + OUT$SYM.COUNT;

   9133  9 000536   500004 236100                    LDQ     4,,PR5
         9 000537   000033 772000                    QRL     27
         9 000540   200362 036100                    ADLQ    LEN,,AUTO
PL6.E3A0      #003=THC$REPORT File=THC$COMMANDS.:E05TSI                          WED 07/30/97 06:07 Page:108
         9 000541   200362 756100                    STQ     LEN,,AUTO

      665     9134    5                          TEXT_LEN = LEN;

   9134  9 000542   000414 756000 7                  STQ     TEXT_LEN

      666     9135    5                       END;

   9135  9 000543   000547 710000 9                  TRA     s:9141

      667     9136    4                       ELSE
      668     9137    5                       DO;

      669     9138    5                          TEXT_LEN = LEN;

   9138  9 000544   200362 235100                    LDA     LEN,,AUTO
         9 000545   000414 755000 7                  STA     TEXT_LEN

      670     9139    5                          LEN = 0;

   9139  9 000546   200362 450100                    STZ     LEN,,AUTO

      671     9140    5                       END;

      672     9141    4                    CALL THS$SET_DEVS(CODE,TEXT,LEN) ALTRET(NO_REPORT);

   9141  9 000547   200362 631500                    EPPR1   LEN,,AUTO
         9 000550   203012 451500                    STP1    EOF_FLAG+5,,AUTO
         9 000551   200356 633500                    EPPR3   TEXT,,AUTO
         9 000552   203011 453500                    STP3    EOF_FLAG+4,,AUTO
         9 000553   200360 634500                    EPPR4   CODE,,AUTO
         9 000554   203010 454500                    STP4    EOF_FLAG+3,,AUTO
         9 000555   203010 630500                    EPPR0   EOF_FLAG+3,,AUTO
         9 000556   000021 631400 xsym               EPPR1   B_VECTNIL+17
         9 000557   000000 701000 xent               TSX1    THS$SET_DEVS
         9 000560   003175 702000 9                  TSX2    NO_REPORT

PL6.E3A0      #003=THC$REPORT File=THC$COMMANDS.:E05TSI                          WED 07/30/97 06:07 Page:109
      673     9142    5                    IF BUF_INDX > 0 THEN DO;

   9142  9 000561   000415 235000 7                  LDA     BUF_INDX
         9 000562   000571 600000 9                  TZE     s:9146

      674     9143    5                       CALL INSERT(TEMP_BUF,BUF_INDX,1,',');

   9143  9 000563   040005 100400                    MLR     fill='040'O
         9 000564   000001 000001 10                 ADSC9   1                        cn=0,n=1
         9 000565   000343 000001 7                  ADSC9   TEMP_BUF,A               cn=0,n=1

      675     9144    5                       BUF_INDX = BUF_INDX + 1;

   9144  9 000566   000415 235000 7                  LDA     BUF_INDX
         9 000567   000001 035007                    ADLA    1,DL
         9 000570   000415 755000 7                  STA     BUF_INDX

      676     9145    5                       END;  /* IF BUF_INDX > 0 */

      677     9146    4                    CALL INSERT(TEMP_BUF,BUF_INDX,TEXT_LEN,TEXT);

   9146  9 000571   000414 720000 7                  LXL0    TEXT_LEN
         9 000572   040045 100500                    MLR     fill='040'O
         9 000573   200356 000010                    ADSC9   TEXT,,AUTO               cn=0,n=8
         9 000574   000343 000010 7                  ADSC9   TEMP_BUF,A               cn=0,n=*X0

      678     9147    4                    BUF_INDX = BUF_INDX + TEXT_LEN;

   9147  9 000575   000415 236000 7                  LDQ     BUF_INDX
         9 000576   000414 036000 7                  ADLQ    TEXT_LEN
         9 000577   000415 756000 7                  STQ     BUF_INDX

      679     9148    4                    END;  /* DO J */

   9148  9 000600   200364 235100                    LDA     J,,AUTO
         9 000601   000001 035007                    ADLA    1,DL
         9 000602   200364 755100                    STA     J,,AUTO
PL6.E3A0      #003=THC$REPORT File=THC$COMMANDS.:E05TSI                          WED 07/30/97 06:07 Page:110
         9 000603   200003 470500                    LDP0    @TOP$,,AUTO
         9 000604   000000 471500                    LDP1    0,,PR0
         9 000605   200363 720100                    LXL0    I,,AUTO
         9 000606   100003 473510                    LDP3    3,X0,PR1
         9 000607   300001 236100                    LDQ     1,,PR3
         9 000610   000022 772000                    QRL     18
         9 000611   200364 116100                    CMPQ    J,,AUTO
         9 000612   000614 600000 9                  TZE     s:9149
         9 000613   000076 603000 9                  TRC     s:9011

      680     9149    3                 FOR_CLAUSE_FLG = %TRUE;

   9149  9 000614   400000 236003                    LDQ     -131072,DU
         9 000615   200367 756100                    STQ     FOR_CLAUSE_FLG,,AUTO
         9 000616   000655 710000 9                  TRA     s:9159

      681     9150    3              CASE(%ON_CLAUSE);

      682     9151    3                 SYM$ = OUT$BLK.SUBLK$(I)->OUT$BLK.SUBLK$(1);

   9151  9 000617   300004 236100                    LDQ     4,,PR3
         9 000620   200355 756100                    STQ     SYM$,,AUTO

      683     9152    3                 FPT_FID.TEXTFID_ = VECTOR(OUT$SYM.TEXT);

   9152  9 000621   200355 474500                    LDP4    SYM$,,AUTO
         9 000622   400004 236100                    LDQ     4,,PR4
         9 000623   000033 772000                    QRL     27
         9 000624   000064 737000                    LLS     52
         9 000625   000140 135007                    SBLA    96,DL
         9 000626   200355 236100                    LDQ     SYM$,,AUTO
         9 000627   000002 036000 10                 ADLQ    2
         9 000630   001134 757000 7                  STAQ    FPT_FID+2

      684     9153    3                 CALL M$FID(FPT_FID) ALTRET(FID_ERR);

   9153  9 000631   001132 630400 7                  EPPR0   FPT_FID
PL6.E3A0      #003=THC$REPORT File=THC$COMMANDS.:E05TSI                          WED 07/30/97 06:07 Page:111
         9 000632   420001 713400                    CLIMB   alt,+8193
         9 000633   404400 401760                    pmme    nvectors=10
         9 000634   003176 702000 9                  TSX2    FID_ERR

      685     9154
      686     9155    3                 SET_ONFILE.V.EXIST# = OUT$BLK.SUBLK$(I)->OUT$BLK.SUBLK$(0)->OUT$BLK.
              9155                          CODE;

   9155  9 000635   200003 470500                    LDP0    @TOP$,,AUTO
         9 000636   000000 471500                    LDP1    0,,PR0
         9 000637   200363 720100                    LXL0    I,,AUTO
         9 000640   100003 473510                    LDP3    3,X0,PR1
         9 000641   300003 474500                    LDP4    3,,PR3
         9 000642   400000 236100                    LDQ     0,,PR4
         9 000643   000007 736000                    QLS     7
         9 000644   001104 676000 7                  ERQ     SET_ONFILE+36
         9 000645   000600 376007                    ANQ     384,DL
         9 000646   001104 656000 7                  ERSQ    SET_ONFILE+36

      687     9156    3                 ONFILE_SPECIFIED = %TRUE;

   9156  9 000647   400000 236003                    LDQ     -131072,DU
         9 000650   000000 756000 7                  STQ     ONFILE_SPECIFIED

      688     9157    3                 CALL M$OPEN( SET_ONFILE) ALTRET(OPN_ERR);

   9157  9 000651   001040 630400 7                  EPPR0   SET_ONFILE
         9 000652   450000 713400                    CLIMB   alt,open
         9 000653   410400 401760                    pmme    nvectors=18
         9 000654   003166 702000 9                  TSX2    OPN_ERR

      689     9158    3           END;                            /* CASE                               */

      690     9159    2        END;                               /* DO I                               */

   9159  9 000655   200363 235100                    LDA     I,,AUTO
         9 000656   000001 035007                    ADLA    1,DL
PL6.E3A0      #003=THC$REPORT File=THC$COMMANDS.:E05TSI                          WED 07/30/97 06:07 Page:112
         9 000657   200363 755100                    STA     I,,AUTO
         9 000660   200003 470500                    LDP0    @TOP$,,AUTO
         9 000661   000000 471500                    LDP1    0,,PR0
         9 000662   100001 236100                    LDQ     1,,PR1
         9 000663   000022 772000                    QRL     18
         9 000664   200363 116100                    CMPQ    I,,AUTO
         9 000665   000667 600000 9                  TZE     s:9160
         9 000666   000055 603000 9                  TRC     s:9006

      691     9160    1     IF FOR_CLAUSE_FLG

   9160  9 000667   200367 234100                    SZN     FOR_CLAUSE_FLG,,AUTO
         9 000670   000706 604000 9                  TMI     s:9166

      692     9161    1        THEN ;
      693     9162    2        ELSE DO;

      694     9163    2           TEXT = 'ALL';

   9163  9 000671   040100 100400                    MLR     fill='040'O
         9 000672   001037 000003 8                  ADSC9   SORT_SUPPRESS+2          cn=0,n=3
         9 000673   200356 000010                    ADSC9   TEXT,,AUTO               cn=0,n=8

      695     9164    2           CALL THS$SET_DEVS(CODE,TEXT,LEN) ALTRET(NO_REPORT);

   9164  9 000674   200362 631500                    EPPR1   LEN,,AUTO
         9 000675   203012 451500                    STP1    EOF_FLAG+5,,AUTO
         9 000676   200356 633500                    EPPR3   TEXT,,AUTO
         9 000677   203011 453500                    STP3    EOF_FLAG+4,,AUTO
         9 000700   200360 634500                    EPPR4   CODE,,AUTO
         9 000701   203010 454500                    STP4    EOF_FLAG+3,,AUTO
         9 000702   203010 630500                    EPPR0   EOF_FLAG+3,,AUTO
         9 000703   000021 631400 xsym               EPPR1   B_VECTNIL+17
         9 000704   000000 701000 xent               TSX1    THS$SET_DEVS
         9 000705   003175 702000 9                  TSX2    NO_REPORT

      696     9165    2           END;
PL6.E3A0      #003=THC$REPORT File=THC$COMMANDS.:E05TSI                          WED 07/30/97 06:07 Page:113

      697     9166    1        TEXT$ = ADDR(TEXTBUF);

   9166  9 000706   000003 236000 10                 LDQ     3
         9 000707   200006 756100                    STQ     TEXT$,,AUTO

      698     9167    1        CALL THF$ADD_TEXTC(TEXT$,TEMP_BUF,BUF_INDX);

   9167  9 000710   000004 236000 10                 LDQ     4
         9 000711   203012 756100                    STQ     EOF_FLAG+5,,AUTO
         9 000712   000005 236000 10                 LDQ     5
         9 000713   203011 756100                    STQ     EOF_FLAG+4,,AUTO
         9 000714   200006 630500                    EPPR0   TEXT$,,AUTO
         9 000715   203010 450500                    STP0    EOF_FLAG+3,,AUTO
         9 000716   203010 630500                    EPPR0   EOF_FLAG+3,,AUTO
         9 000717   000021 631400 xsym               EPPR1   B_VECTNIL+17
         9 000720   000000 701000 xent               TSX1    THF$ADD_TEXTC
         9 000721   000000 011000                    NOP     0

      699     9168    1        TVEC = VECTOR(TEXTBUF);

   9168  9 000722   000006 237000 10                 LDAQ    6
         9 000723   200010 757100                    STAQ    TVEC,,AUTO

      700     9169    1        TVEC.BOUND = BUF_INDX;

   9169  9 000724   000415 236000 7                  LDQ     BUF_INDX
         9 000725   000020 736000                    QLS     16
         9 000726   200010 676100                    ERQ     TVEC,,AUTO
         9 000727   000034 376000 xsym               ANQ     B_VECTNIL+28
         9 000730   200010 656100                    ERSQ    TVEC,,AUTO

      701     9170    1        CALL THW$WRITE(HDR_TBL(REPORT_CODE),

   9170  9 000731   200010 630500                    EPPR0   TVEC,,AUTO
         9 000732   203015 450500                    STP0    EOF_FLAG+8,,AUTO
         9 000733   000020 236000 10                 LDQ     16
PL6.E3A0      #003=THC$REPORT File=THC$COMMANDS.:E05TSI                          WED 07/30/97 06:07 Page:114
         9 000734   203014 756100                    STQ     EOF_FLAG+7,,AUTO
         9 000735   000022 237000 10                 LDAQ    18
         9 000736   203012 757100                    STAQ    EOF_FLAG+5,,AUTO
         9 000737   000024 236000 10                 LDQ     20
         9 000740   203011 756100                    STQ     EOF_FLAG+4,,AUTO
         9 000741   203004 236100                    LDQ     REPORT_CODE,,AUTO
         9 000742   000023 736000                    QLS     19
         9 000743   000025 036000 10                 ADLQ    21
         9 000744   203010 756100                    STQ     EOF_FLAG+3,,AUTO
         9 000745   203010 630500                    EPPR0   EOF_FLAG+3,,AUTO
         9 000746   000024 631400 xsym               EPPR1   B_VECTNIL+20
         9 000747   000000 701000 xent               TSX1    THW$WRITE
         9 000750   000000 011000                    NOP     0

      702     9171    1                       VECTOR(TH_SITE_ID),
      703     9172    1                       VECTOR(TH_SITE_NAME),
      704     9173    1                       VECTOR(TH_CONSTRAINTS.START),
      705     9174    1                       VECTOR(TH_CONSTRAINTS.STOP),
      706     9175    1                       TVEC);
      707     9176    1     IF ONFILE_SPECIFIED

   9176  9 000751   000000 234000 7                  SZN     ONFILE_SPECIFIED
         9 000752   001002 605000 9                  TPL     s:9186

      708     9177    1      THEN
      709     9178    2       DO;

      710     9179    2         TH_OUTBUF=SUBSTR(TH_OUTBUF,1);

   9179  9 000753   040000 100400                    MLR     fill='040'O
         9 000754   000000 200143 xsym               ADSC9   TH_OUTBUF                cn=1,n=99
         9 000755   000000 000144 xsym               ADSC9   TH_OUTBUF                cn=0,n=100

      711     9180    2         CALL INSERT(LO_HEADER.TITL.TITLE#,0,100,TH_OUTBUF);

   9180  9 000756   040000 100400                    MLR     fill='040'O
         9 000757   000000 000144 xsym               ADSC9   TH_OUTBUF                cn=0,n=100
PL6.E3A0      #003=THC$REPORT File=THC$COMMANDS.:E05TSI                          WED 07/30/97 06:07 Page:115
         9 000760   001613 200144 7                  ADSC9   LO_HEADER+1              cn=1,n=100

      712     9181    2         CALL INSERT(LO_HEADER.TITL.TITLE#,101, ,'PAGE');

   9181  9 000761   040000 100400                    MLR     fill='040'O
         9 000762   001071 000004 8                  ADSC9   SORT_SUPPRESS+28         cn=0,n=4
         9 000763   001644 400005 7                  ADSC9   LO_HEADER+26             cn=2,n=5

      713     9182    2         LO_HEADER.TITL.L# = LENGTHC(LO_HEADER.TITL.TITLE#);

   9182  9 000764   152000 236003                    LDQ     54272,DU
         9 000765   001613 552040 7                  STBQ    LO_HEADER+1,'40'O

      714     9183    2         IF DCBADDR(DCBNUM(M$LO))->F$DCB.FCD THEN CALL M$CLOSE(CLOSE_LO);

   9183  9 000766   000000 236007 xsym               LDQ     M$LO,DL
         9 000767   000000 470400 10                 LDP0    0
         9 000770   000000 471500                    LDP1    0,,PR0
         9 000771   100000 473506                    LDP3    0,QL,PR1
         9 000772   300031 236100                    LDQ     25,,PR3
         9 000773   020000 316007                    CANQ    8192,DL
         9 000774   001000 600000 9                  TZE     s:9184

   9183  9 000775   000756 630400 8                  EPPR0   CLOSE_LO
         9 000776   050001 713400                    CLIMB   close
         9 000777   406000 401760                    pmme    nvectors=13

      715     9184    2         OUTPUT_DCB# = DCBNUM(M$ONFILE);

   9184  9 001000   000000 236007 xsym               LDQ     M$ONFILE,DL
         9 001001   000001 756000 7                  STQ     OUTPUT_DCB#

      716     9185    2       END;

      717     9186    1        TH_SAVE = TH_CONSTRAINTS;

   9186  9 001002   000000 100400                    MLR     fill='000'O
PL6.E3A0      #003=THC$REPORT File=THC$COMMANDS.:E05TSI                          WED 07/30/97 06:07 Page:116
         9 001003   000000 000333 xsym               ADSC9   TH_CONSTRAINTS           cn=0,n=219
         9 001004   000000 000333 xsym               ADSC9   TH_SAVE                  cn=0,n=219

      718     9187    2        DO CASE(REPORT_CODE);

   9187  9 001005   203004 235100                    LDA     REPORT_CODE,,AUTO
         9 001006   000022 115007                    CMPA    18,DL
         9 001007   001011 602005 9                  TNC     s:9187+4,AL
         9 001010   003127 710000 9                  TRA     s:9546
         9 001011   003127 710000 9                  TRA     s:9546
         9 001012   001033 710000 9                  TRA     s:9189
         9 001013   001040 710000 9                  TRA     s:9192
         9 001014   003127 710000 9                  TRA     s:9546
         9 001015   001050 710000 9                  TRA     s:9197
         9 001016   003127 710000 9                  TRA     s:9546
         9 001017   003127 710000 9                  TRA     s:9546
         9 001020   003127 710000 9                  TRA     s:9546
         9 001021   003127 710000 9                  TRA     s:9546
         9 001022   003127 710000 9                  TRA     s:9546
         9 001023   001107 710000 9                  TRA     s:9218
         9 001024   003127 710000 9                  TRA     s:9546
         9 001025   003127 710000 9                  TRA     s:9546
         9 001026   003116 710000 9                  TRA     s:9540
         9 001027   003123 710000 9                  TRA     s:9543
         9 001030   002106 710000 9                  TRA     s:9398
         9 001031   001107 710000 9                  TRA     s:9218
         9 001032   001107 710000 9                  TRA     s:9218

      719     9188    2           CASE(%AMS);

      720     9189    2            TH_BRKMSG = '0'B;

   9189  9 001033   000000 450000 xsym               STZ     TH_BRKMSG

      721     9190    2              CALL THF$AMS;

   9190  9 001034   000002 631400 xsym               EPPR1   B_VECTNIL+2
PL6.E3A0      #003=THC$REPORT File=THC$COMMANDS.:E05TSI                          WED 07/30/97 06:07 Page:117
         9 001035   000000 701000 xent               TSX1    THF$AMS
         9 001036   000000 011000                    NOP     0
         9 001037   003127 710000 9                  TRA     s:9546

      722     9191    2           CASE(%CONFIG);

      723     9192    2            TH_BRKMSG = '0'B;

   9192  9 001040   000000 450000 xsym               STZ     TH_BRKMSG

      724     9193    2              CALL THF$CONFIG(CODE);

   9193  9 001041   200360 630500                    EPPR0   CODE,,AUTO
         9 001042   203010 450500                    STP0    EOF_FLAG+3,,AUTO
         9 001043   203010 630500                    EPPR0   EOF_FLAG+3,,AUTO
         9 001044   000017 631400 xsym               EPPR1   B_VECTNIL+15
         9 001045   000000 701000 xent               TSX1    THF$CONFIG
         9 001046   000000 011000                    NOP     0
         9 001047   003127 710000 9                  TRA     s:9546

      725     9194    2           CASE(%HWA);

      726     9195                                                /* HWA PROCEDURE                      */
      727     9196    2           CASE(%HWE);

      728     9197    2          TH_BRKMSG = '1'B;

   9197  9 001050   400000 236003                    LDQ     -131072,DU
         9 001051   000000 756000 xsym               STQ     TH_BRKMSG

      729     9198    2              IF COMP_CODE = %FEP

   9198  9 001052   200361 235100                    LDA     COMP_CODE,,AUTO
         9 001053   000003 115007                    CMPA    3,DL
         9 001054   001062 601000 9                  TNZ     s:9201

      730     9199    2                 THEN CALL THW$WRITE(VECTOR(FEPNOTIMP));
PL6.E3A0      #003=THC$REPORT File=THC$COMMANDS.:E05TSI                          WED 07/30/97 06:07 Page:118

   9199  9 001055   000030 630400 10                 EPPR0   24
         9 001056   000017 631400 xsym               EPPR1   B_VECTNIL+15
         9 001057   000000 701000 xent               TSX1    THW$WRITE
         9 001060   000000 011000                    NOP     0
         9 001061   003127 710000 9                  TRA     s:9546

      731     9200    2                 ELSE
      732     9201    2              IF COMP_CODE = %MPC

   9201  9 001062   000005 115007                    CMPA    5,DL
         9 001063   001071 601000 9                  TNZ     s:9204

      733     9202    2                 THEN CALL THW$WRITE(VECTOR(MPCNOTIMP));

   9202  9 001064   000034 630400 10                 EPPR0   28
         9 001065   000017 631400 xsym               EPPR1   B_VECTNIL+15
         9 001066   000000 701000 xent               TSX1    THW$WRITE
         9 001067   000000 011000                    NOP     0
         9 001070   003127 710000 9                  TRA     s:9546

      734     9203    2                 ELSE
      735     9204    2              IF COMP_CODE = %IOM

   9204  9 001071   000002 115007                    CMPA    2,DL
         9 001072   001100 601000 9                  TNZ     s:9206

      736     9205    2                 THEN CALL THW$WRITE(VECTOR(IOMNOTIMP));

   9205  9 001073   000040 630400 10                 EPPR0   32
         9 001074   000017 631400 xsym               EPPR1   B_VECTNIL+15
         9 001075   000000 701000 xent               TSX1    THW$WRITE
         9 001076   000000 011000                    NOP     0
         9 001077   003127 710000 9                  TRA     s:9546

      737     9206    2                 ELSE CALL THF$HWE(COMP_CODE);

PL6.E3A0      #003=THC$REPORT File=THC$COMMANDS.:E05TSI                          WED 07/30/97 06:07 Page:119
   9206  9 001100   200361 630500                    EPPR0   COMP_CODE,,AUTO
         9 001101   203010 450500                    STP0    EOF_FLAG+3,,AUTO
         9 001102   203010 630500                    EPPR0   EOF_FLAG+3,,AUTO
         9 001103   000017 631400 xsym               EPPR1   B_VECTNIL+15
         9 001104   000000 701000 xent               TSX1    THF$HWE
         9 001105   000000 011000                    NOP     0
         9 001106   003127 710000 9                  TRA     s:9546

      738     9207    2           CASE(%IMS);

      739     9208                                                /* IMS CODE                           */
      740     9209    2           CASE(%KEYIN);

      741     9210                                                /* KEYIN CODE                         */
      742     9211    2           CASE(%MPR);

      743     9212                                                /* MPR CODE                           */
      744     9213    2           CASE(%PPR);

      745     9214                                                /* PPR CODE                           */
      746     9215    2           CASE(%RAS);

      747     9216                                                /* RAS CODE                           */
      748     9217    2           CASE(%RAW,%DETAIL,%EXTENDED);

      749     9218    2            TH_IOERR_FLG = %FALSE;

   9218  9 001107   000000 450000 xsym               STZ     TH_IOERR_FLG

      750     9219    2            TH_FEPERR_FLG = %FALSE;

   9219  9 001110   000000 450000 xsym               STZ     TH_FEPERR_FLG

      751     9220    2            TH_RAW_FLG = %FALSE;

   9220  9 001111   000000 450000 xsym               STZ     TH_RAW_FLG

PL6.E3A0      #003=THC$REPORT File=THC$COMMANDS.:E05TSI                          WED 07/30/97 06:07 Page:120
      752     9221    2          TH_BRKMSG = '1'B;

   9221  9 001112   400000 236003                    LDQ     -131072,DU
         9 001113   000000 756000 xsym               STQ     TH_BRKMSG

      753     9222    3              IF TH_CONSTRAINTS.NTYPES > 0 THEN DO;

   9222  9 001114   000000 235000 xsym               LDA     TH_CONSTRAINTS
         9 001115   001223 604400 9                  TMOZ    s:9241

      754     9223    3                 TEXT$ = ADDR(TEXTBUF);

   9223  9 001116   000003 236000 10                 LDQ     3
         9 001117   200006 756100                    STQ     TEXT$,,AUTO

      755     9224    3                 BUF_COUNT = 0;

   9224  9 001120   200353 450100                    STZ     BUF_COUNT,,AUTO

      756     9225    4                 DO I = 0 TO TH_CONSTRAINTS.NTYPES - 1;

   9225  9 001121   200363 450100                    STZ     I,,AUTO
         9 001122   001163 710000 9                  TRA     s:9233+3

      757     9226    5                    IF I > 0 THEN DO;

   9226  9 001123   200363 235100                    LDA     I,,AUTO
         9 001124   001134 600000 9                  TZE     s:9230

      758     9227    5                       CALL INSERT(TEMP_BUF2,BUF_COUNT,2,', ');

   9227  9 001125   200353 236100                    LDQ     BUF_COUNT,,AUTO
         9 001126   040106 100400                    MLR     fill='040'O
         9 001127   001072 000002 8                  ADSC9   SORT_SUPPRESS+29         cn=0,n=2
         9 001130   200012 000002                    ADSC9   TEMP_BUF2,Q,AUTO         cn=0,n=2

      759     9228    5                       BUF_COUNT = BUF_COUNT + 2;
PL6.E3A0      #003=THC$REPORT File=THC$COMMANDS.:E05TSI                          WED 07/30/97 06:07 Page:121

   9228  9 001131   200353 236100                    LDQ     BUF_COUNT,,AUTO
         9 001132   000002 036007                    ADLQ    2,DL
         9 001133   200353 756100                    STQ     BUF_COUNT,,AUTO

      760     9229    5                       END;  /* IF I > 0 */

      761     9230    4                    CALL THC$TYPENAME(TH_CONSTRAINTS.TYPES(I),TEMP_BUF,COUNT);

   9230  9 001134   203003 630500                    EPPR0   COUNT,,AUTO
         9 001135   203012 450500                    STP0    EOF_FLAG+5,,AUTO
         9 001136   000005 236000 10                 LDQ     5
         9 001137   203011 756100                    STQ     EOF_FLAG+4,,AUTO
         9 001140   200363 236100                    LDQ     I,,AUTO
         9 001141   000020 736000                    QLS     16
         9 001142   000041 036000 10                 ADLQ    33
         9 001143   203010 756100                    STQ     EOF_FLAG+3,,AUTO
         9 001144   203010 630500                    EPPR0   EOF_FLAG+3,,AUTO
         9 001145   000021 631400 xsym               EPPR1   B_VECTNIL+17
         9 001146   000000 701000 xent               TSX1    THC$TYPENAME
         9 001147   000000 011000                    NOP     0

      762     9231    4                    CALL INSERT(TEMP_BUF2,BUF_COUNT,COUNT,SUBSTR(TEMP_BUF,0,COUNT));

   9231  9 001150   203003 720100                    LXL0    COUNT,,AUTO
         9 001151   200353 235100                    LDA     BUF_COUNT,,AUTO
         9 001152   040145 100440                    MLR     fill='040'O
         9 001153   000343 000010 7                  ADSC9   TEMP_BUF                 cn=0,n=*X0
         9 001154   200012 000010                    ADSC9   TEMP_BUF2,A,AUTO         cn=0,n=*X0

      763     9232    4                    BUF_COUNT = BUF_COUNT + COUNT;

   9232  9 001155   200353 236100                    LDQ     BUF_COUNT,,AUTO
         9 001156   203003 036100                    ADLQ    COUNT,,AUTO
         9 001157   200353 756100                    STQ     BUF_COUNT,,AUTO

      764     9233    4                    END;  /* DO I */
PL6.E3A0      #003=THC$REPORT File=THC$COMMANDS.:E05TSI                          WED 07/30/97 06:07 Page:122

   9233  9 001160   200363 235100                    LDA     I,,AUTO
         9 001161   000001 035007                    ADLA    1,DL
         9 001162   200363 755100                    STA     I,,AUTO
         9 001163   200363 236100                    LDQ     I,,AUTO
         9 001164   001167 604000 9                  TMI     s:9234
         9 001165   000000 116000 xsym               CMPQ    TH_CONSTRAINTS
         9 001166   001123 604000 9                  TMI     s:9226

      765     9234    3                 CALL THF$ADD_TEXTC(TEXT$,TEMP_BUF2,BUF_COUNT);

   9234  9 001167   200353 630500                    EPPR0   BUF_COUNT,,AUTO
         9 001170   203012 450500                    STP0    EOF_FLAG+5,,AUTO
         9 001171   200012 631500                    EPPR1   TEMP_BUF2,,AUTO
         9 001172   203011 451500                    STP1    EOF_FLAG+4,,AUTO
         9 001173   200006 633500                    EPPR3   TEXT$,,AUTO
         9 001174   203010 453500                    STP3    EOF_FLAG+3,,AUTO
         9 001175   203010 630500                    EPPR0   EOF_FLAG+3,,AUTO
         9 001176   000021 631400 xsym               EPPR1   B_VECTNIL+17
         9 001177   000000 701000 xent               TSX1    THF$ADD_TEXTC
         9 001200   000000 011000                    NOP     0

      766     9235    3                 TVEC = VECTOR(TEXTBUF);

   9235  9 001201   000006 237000 10                 LDAQ    6
         9 001202   200010 757100                    STAQ    TVEC,,AUTO

      767     9236    3                 TVEC.BOUND = BUF_COUNT;

   9236  9 001203   200353 236100                    LDQ     BUF_COUNT,,AUTO
         9 001204   000020 736000                    QLS     16
         9 001205   200010 676100                    ERQ     TVEC,,AUTO
         9 001206   000034 376000 xsym               ANQ     B_VECTNIL+28
         9 001207   200010 656100                    ERSQ    TVEC,,AUTO

      768     9237    3                 IF REPORT_CODE ~= %DETAIL

PL6.E3A0      #003=THC$REPORT File=THC$COMMANDS.:E05TSI                          WED 07/30/97 06:07 Page:123
   9237  9 001210   203004 236100                    LDQ     REPORT_CODE,,AUTO
         9 001211   000021 116007                    CMPQ    17,DL
         9 001212   001223 600000 9                  TZE     s:9241

      769     9238    3                 THEN
      770     9239    3                 CALL THW$WRITE(VECTOR(TYPE_FMT),TVEC);

   9239  9 001213   200010 630500                    EPPR0   TVEC,,AUTO
         9 001214   203011 450500                    STP0    EOF_FLAG+4,,AUTO
         9 001215   000044 236000 10                 LDQ     36
         9 001216   203010 756100                    STQ     EOF_FLAG+3,,AUTO
         9 001217   203010 630500                    EPPR0   EOF_FLAG+3,,AUTO
         9 001220   000020 631400 xsym               EPPR1   B_VECTNIL+16
         9 001221   000000 701000 xent               TSX1    THW$WRITE
         9 001222   000000 011000                    NOP     0

      771     9240    3                 END;  /* IF NTYPES > 0 */

      772     9241    2              TH_LAST_REQID = 0;

   9241  9 001223   000000 450000 xsym               STZ     TH_LAST_REQID

      773     9242    2       IF TH_CONSTRAINTS.M_MAJ_S OR TH_CONSTRAINTS.M_SUB_S OR

   9242  9 001224   000014 236000 xsym               LDQ     TH_CONSTRAINTS+12
         9 001225   004000 316003                    CANQ    2048,DU
         9 001226   001244 601000 9                  TNZ     s:9246
         9 001227   000020 316003                    CANQ    16,DU
         9 001230   001244 601000 9                  TNZ     s:9246
         9 001231   000016 234000 xsym               SZN     TH_CONSTRAINTS+14
         9 001232   001244 604000 9                  TMI     s:9246
         9 001233   000000 066400                    CMPB    filb='0'B
         9 001234   000026 010440 xsym               BDSC    TH_CONSTRAINTS+22        by=0,bit=1,n=288
         9 001235   000002 000022 xsym               BDSC    B_VECTNIL+2              by=0,bit=0,n=18
         9 001236   001244 601000 9                  TNZ     s:9246
         9 001237   000061 234000 xsym               SZN     TH_CONSTRAINTS+49
         9 001240   001244 604000 9                  TMI     s:9246
PL6.E3A0      #003=THC$REPORT File=THC$COMMANDS.:E05TSI                          WED 07/30/97 06:07 Page:124
         9 001241   000062 236000 xsym               LDQ     TH_CONSTRAINTS+50
         9 001242   400000 316007                    CANQ    -131072,DL
         9 001243   001250 600000 9                  TZE     s:9248

      774     9243    2          TH_CONSTRAINTS.M_MED_S OR TH_CONSTRAINTS.M_BY_B_SET ~='0'B
      775     9244    2          OR TH_CONSTRAINTS.M_FEP_SET OR TH_CONSTRAINTS.M_CHAN_SET
      776     9245    3            THEN DO;

      777     9246    3            CALL THW$WRITE(VECTOR(MATCH_FMT),VECTOR(TH_LAST_MATCH));

   9246  9 001244   000052 630400 10                 EPPR0   42
         9 001245   000020 631400 xsym               EPPR1   B_VECTNIL+16
         9 001246   000000 701000 xent               TSX1    THW$WRITE
         9 001247   000000 011000                    NOP     0

      778     9247    3            END;

      779     9248    2       IF TH_CONSTRAINTS.E_MAJ_S OR TH_CONSTRAINTS.E_SUB_S OR

   9248  9 001250   000036 236000 xsym               LDQ     TH_CONSTRAINTS+30
         9 001251   002000 316003                    CANQ    1024,DU
         9 001252   001270 601000 9                  TNZ     s:9252
         9 001253   000010 316003                    CANQ    8,DU
         9 001254   001270 601000 9                  TNZ     s:9252
         9 001255   000040 234000 xsym               SZN     TH_CONSTRAINTS+32
         9 001256   001270 604000 9                  TMI     s:9252
         9 001257   000000 066400                    CMPB    filb='0'B
         9 001260   000050 010440 xsym               BDSC    TH_CONSTRAINTS+40        by=0,bit=1,n=288
         9 001261   000002 000022 xsym               BDSC    B_VECTNIL+2              by=0,bit=0,n=18
         9 001262   001270 601000 9                  TNZ     s:9252
         9 001263   000063 236000 xsym               LDQ     TH_CONSTRAINTS+51
         9 001264   400000 316007                    CANQ    -131072,DL
         9 001265   001270 601000 9                  TNZ     s:9252
         9 001266   000065 234000 xsym               SZN     TH_CONSTRAINTS+53
         9 001267   001274 605000 9                  TPL     s:9254

      780     9249    2          TH_CONSTRAINTS.E_MED_S OR TH_CONSTRAINTS.E_BY_B_SET ~='0'B
PL6.E3A0      #003=THC$REPORT File=THC$COMMANDS.:E05TSI                          WED 07/30/97 06:07 Page:125
      781     9250    2          OR TH_CONSTRAINTS.E_FEP_SET OR TH_CONSTRAINTS.E_CHAN_SET
      782     9251    3            THEN DO;

      783     9252    3            CALL THW$WRITE(VECTOR(EXCLUDE_FMT),VECTOR(TH_LAST_EXCLUDE));

   9252  9 001270   000060 630400 10                 EPPR0   48
         9 001271   000020 631400 xsym               EPPR1   B_VECTNIL+16
         9 001272   000000 701000 xent               TSX1    THW$WRITE
         9 001273   000000 011000                    NOP     0

      784     9253    3            END;

      785     9254    3            IF REPORT_CODE = %DETAIL THEN DO;/* if detail report is requested*/

   9254  9 001274   203004 235100                    LDA     REPORT_CODE,,AUTO
         9 001275   000021 115007                    CMPA    17,DL
         9 001276   001615 601000 9                  TNZ     s:9339

      786     9255    3            OPEN_ERRLOG2.V.FUN# = %CREATE#;   /* set FPTs to create files */

   9255  9 001277   003000 236007                    LDQ     1536,DL
         9 001300   000517 552010 7                  STBQ    OPEN_ERRLOG2+37,'10'O

      787     9256    3            OPEN_ERRLOG4.V.FUN# = %CREATE#;

   9256  9 001301   001227 552010 7                  STBQ    OPEN_ERRLOG4+37,'10'O

      788     9257    3            OPEN_ERRLOG3.V.FUN# = %CREATE#;

   9257  9 001302   000663 552010 7                  STBQ    OPEN_ERRLOG3+37,'10'O

      789     9258    3            OPEN_ERRLOG5.V.FUN# = %CREATE#;

   9258  9 001303   001373 552010 7                  STBQ    OPEN_ERRLOG5+37,'10'O

      790     9259    3            CLOSE_ERRLOG2.V.DISP# = %SAVE#;

PL6.E3A0      #003=THC$REPORT File=THC$COMMANDS.:E05TSI                          WED 07/30/97 06:07 Page:126
   9259  9 001304   000002 236007                    LDQ     2,DL
         9 001305   000576 552004 7                  STBQ    CLOSE_ERRLOG2+26,'04'O

      791     9260    3            CLOSE_ERRLOG4.V.DISP# = %SAVE#;

   9260  9 001306   001306 552004 7                  STBQ    CLOSE_ERRLOG4+26,'04'O

      792     9261    3            IF DCBADDR(DCBNUM(M$ERRLOG3))->F$DCB.FCD   /* if dcb is open */

   9261  9 001307   000000 236007 xsym               LDQ     M$ERRLOG3,DL
         9 001310   000000 470400 10                 LDP0    0
         9 001311   000000 471500                    LDP1    0,,PR0
         9 001312   100000 473506                    LDP3    0,QL,PR1
         9 001313   300031 236100                    LDQ     25,,PR3
         9 001314   020000 316007                    CANQ    8192,DL
         9 001315   001325 600000 9                  TZE     s:9267

      793     9262    4            THEN DO;

      794     9263    4                CLOSE_ERRLOG3.V.DISP# = %RELEASE#;     /* set it to release */

   9263  9 001316   000001 236007                    LDQ     1,DL
         9 001317   000742 552004 7                  STBQ    CLOSE_ERRLOG3+26,'04'O

      795     9264    4                CALL M$CLOSE(CLOSE_ERRLOG3); /* close it */

   9264  9 001320   000710 630400 7                  EPPR0   CLOSE_ERRLOG3
         9 001321   050001 713400                    CLIMB   close
         9 001322   406000 401760                    pmme    nvectors=13

      796     9265    4                CLOSE_ERRLOG3.V.DISP# = %SAVE#;        /* reset file to save */

   9265  9 001323   000002 236007                    LDQ     2,DL
         9 001324   000742 552004 7                  STBQ    CLOSE_ERRLOG3+26,'04'O

      797     9266    4            END;

PL6.E3A0      #003=THC$REPORT File=THC$COMMANDS.:E05TSI                          WED 07/30/97 06:07 Page:127
      798     9267    4            IF DCBADDR(DCBNUM(M$ERRLOG5))->F$DCB.FCD THEN DO;

   9267  9 001325   000000 236007 xsym               LDQ     M$ERRLOG5,DL
         9 001326   000000 470400 10                 LDP0    0
         9 001327   000000 471500                    LDP1    0,,PR0
         9 001330   100000 473506                    LDP3    0,QL,PR1
         9 001331   300031 236100                    LDQ     25,,PR3
         9 001332   020000 316007                    CANQ    8192,DL
         9 001333   001343 600000 9                  TZE     s:9272

      799     9268    4                CLOSE_ERRLOG5.V.DISP# = %RELEASE#;

   9268  9 001334   000001 236007                    LDQ     1,DL
         9 001335   001452 552004 7                  STBQ    CLOSE_ERRLOG5+26,'04'O

      800     9269    4                CALL M$CLOSE(CLOSE_ERRLOG5);

   9269  9 001336   001420 630400 7                  EPPR0   CLOSE_ERRLOG5
         9 001337   050001 713400                    CLIMB   close
         9 001340   406000 401760                    pmme    nvectors=13

      801     9270    4                CLOSE_ERRLOG3.V.DISP# = %SAVE#;

   9270  9 001341   000002 236007                    LDQ     2,DL
         9 001342   000742 552004 7                  STBQ    CLOSE_ERRLOG3+26,'04'O

      802     9271    4            END;

      803     9272    3            CALL THC$DETAIL; /* call procedure to handle detail report */

   9272  9 001343   003202 701000 9                  TSX1    THC$DETAIL
         9 001344   000000 011000                    NOP     0

      804     9273    4            IF MEMORY_ERRORS THEN DO;/* if MEM errors were read in */

   9273  9 001345   200370 234100                    SZN     MEMORY_ERRORS,,AUTO
         9 001346   001357 605000 9                  TPL     s:9277
PL6.E3A0      #003=THC$REPORT File=THC$COMMANDS.:E05TSI                          WED 07/30/97 06:07 Page:128

      805     9274    4                COMP_CODE = %MEM;/* set code to MEM */

   9274  9 001347   000001 235007                    LDA     1,DL
         9 001350   200361 755100                    STA     COMP_CODE,,AUTO

      806     9275    4                CALL THF$HWE(COMP_CODE);/* then call procedure to handle MEM errs*/

   9275  9 001351   200361 630500                    EPPR0   COMP_CODE,,AUTO
         9 001352   203010 450500                    STP0    EOF_FLAG+3,,AUTO
         9 001353   203010 630500                    EPPR0   EOF_FLAG+3,,AUTO
         9 001354   000017 631400 xsym               EPPR1   B_VECTNIL+15
         9 001355   000000 701000 xent               TSX1    THF$HWE
         9 001356   000000 011000                    NOP     0

      807     9276    4            END;  /* if memory_errors */

      808     9277    4            IF NUM_FEPERR > 0 THEN DO;  /* if feperr was read */

   9277  9 001357   200372 235100                    LDA     NUM_FEPERR,,AUTO
         9 001360   001475 604400 9                  TMOZ    s:9306

      809     9278    4              CALL THW$WRITE(VECTOR(FEPERR_HDR));

   9278  9 001361   000064 630400 10                 EPPR0   52
         9 001362   000017 631400 xsym               EPPR1   B_VECTNIL+15
         9 001363   000000 701000 xent               TSX1    THW$WRITE
         9 001364   000000 011000                    NOP     0

      810     9279    4              TH_FEPERR_FLG = %TRUE;

   9279  9 001365   400000 236003                    LDQ     -131072,DU
         9 001366   000000 756000 xsym               STQ     TH_FEPERR_FLG

      811     9280    4              CALL THW$WRITE(TIME_FMT,VECTOR(OLD_FEPERR_TIME),VECTOR(OLD_FEPERR_DATE),
              9280                       VECTOR(NEW_FEPERR_DATE),VECTOR(NEW_FEPERR_TIME));

PL6.E3A0      #003=THC$REPORT File=THC$COMMANDS.:E05TSI                          WED 07/30/97 06:07 Page:129
   9280  9 001367   000076 630400 10                 EPPR0   62
         9 001370   000023 631400 xsym               EPPR1   B_VECTNIL+19
         9 001371   000000 701000 xent               TSX1    THW$WRITE
         9 001372   000000 011000                    NOP     0

      812     9281    5              IF NOT DCBADDR(DCBNUM(M$ERRLOG5))->F$DCB.FCD THEN DO;
              9281                       /*if dcb's not open*/

   9281  9 001373   000000 236007 xsym               LDQ     M$ERRLOG5,DL
         9 001374   000000 470400 10                 LDP0    0
         9 001375   000000 471500                    LDP1    0,,PR0
         9 001376   100000 473506                    LDP3    0,QL,PR1
         9 001377   300031 236100                    LDQ     25,,PR3
         9 001400   020000 316007                    CANQ    8192,DL
         9 001401   001407 601000 9                  TNZ     s:9285

      813     9282    5                 OPEN_ERRLOG5.V.FUN# = %UPDATE#;/* set it to update */

   9282  9 001402   001000 236007                    LDQ     512,DL
         9 001403   001373 552010 7                  STBQ    OPEN_ERRLOG5+37,'10'O

      814     9283    5                 CALL M$OPEN(OPEN_ERRLOG5);/* open dcb */

   9283  9 001404   001326 630400 7                  EPPR0   OPEN_ERRLOG5
         9 001405   050000 713400                    CLIMB   open
         9 001406   410400 401760                    pmme    nvectors=18

      815     9284    5              END;

      816     9285    4              EOF_FLAG = %FALSE;/* set appropriate flags */

   9285  9 001407   203005 450100                    STZ     EOF_FLAG,,AUTO

      817     9286    4              TH_FIRST_TIME = %TRUE;

   9286  9 001410   400000 236003                    LDQ     -131072,DU
         9 001411   000000 756000 xsym               STQ     TH_FIRST_TIME
PL6.E3A0      #003=THC$REPORT File=THC$COMMANDS.:E05TSI                          WED 07/30/97 06:07 Page:130

      818     9287    4              TH_ITYPE = %TH_FEPERR;

   9287  9 001412   000024 235007                    LDA     20,DL
         9 001413   000000 755000 xsym               STA     TH_ITYPE

      819     9288    4              CALL M$GDS(GET_XSA_BUF) ALTRET(PMME_ERR);/* get memory */

   9288  9 001414   000764 630400 7                  EPPR0   GET_XSA_BUF
         9 001415   430001 713400                    CLIMB   alt,gds
         9 001416   400400 401760                    pmme    nvectors=2
         9 001417   003172 702000 9                  TSX2    PMME_ERR

      820     9289    4              READ_ERRLOG5.BUF_ = TH_XSA_BUF_VECTOR;/* assign read vector */

   9289  9 001420   000000 100400                    MLR     fill='000'O
         9 001421   000000 000010 xsym               ADSC9   TH_XSA_BUF_VECTOR        cn=0,n=8
         9 001422   001462 000010 7                  ADSC9   READ_ERRLOG5+4           cn=0,n=8

      821     9290    5                DO WHILE(NOT EOF_FLAG);

   9290  9 001423   001451 710000 9                  TRA     s:9298

      822     9291    5                  CALL M$READ(READ_ERRLOG5) ALTRET(ERRLOG5_EOF);

   9291  9 001424   001456 630400 7                  EPPR0   READ_ERRLOG5
         9 001425   440000 713400                    CLIMB   alt,read
         9 001426   401400 401760                    pmme    nvectors=4
         9 001427   001435 702000 9                  TSX2    ERRLOG5_EOF

      823     9292    5                  CALL THF$RAW(TH_DETAIL_FMT);
              9292                           /* call procedure to format/process feperr records */

   9292  9 001430   000103 630400 10                 EPPR0   67
         9 001431   000017 631400 xsym               EPPR1   B_VECTNIL+15
         9 001432   000000 701000 xent               TSX1    THF$RAW
         9 001433   000000 011000                    NOP     0
PL6.E3A0      #003=THC$REPORT File=THC$COMMANDS.:E05TSI                          WED 07/30/97 06:07 Page:131

      824     9293    6   DO NEVER;

   9293  9 001434   001451 710000 9                  TRA     s:9298

      825     9294    6   ERRLOG5_EOF:     IF B$TCB$->B$TCB.ALT$->B$ALT.ERR.CODE = %E$EOF

   9294  9 001435   000000 470400 xsym  ERRLOG5_EOF  LDP0    B$TCB$
         9 001436   000000 471500                    LDP1    0,,PR0
         9 001437   100102 236100                    LDQ     66,,PR1
         9 001440   377770 376007                    ANQ     131064,DL
         9 001441   000060 116007                    CMPQ    48,DL
         9 001442   001446 601000 9                  TNZ     s:9296

      826     9295    6                    THEN EOF_FLAG = %TRUE;

   9295  9 001443   400000 236003                    LDQ     -131072,DU
         9 001444   203005 756100                    STQ     EOF_FLAG,,AUTO
         9 001445   001451 710000 9                  TRA     s:9298

      827     9296    6                    ELSE CALL THM$ERRMSG;

   9296  9 001446   000002 631400 xsym               EPPR1   B_VECTNIL+2
         9 001447   000000 701000 xent               TSX1    THM$ERRMSG
         9 001450   000000 011000                    NOP     0

      828     9297    6                  END;  /* do never */

      829     9298    5                END;/* do while not eof */

   9298  9 001451   203005 234100                    SZN     EOF_FLAG,,AUTO
         9 001452   001424 605000 9                  TPL     s:9291

      830     9299    4              CALL M$CLOSE(CLOSE_ERRLOG5);/* close dcb */

   9299  9 001453   001420 630400 7                  EPPR0   CLOSE_ERRLOG5
         9 001454   050001 713400                    CLIMB   close
PL6.E3A0      #003=THC$REPORT File=THC$COMMANDS.:E05TSI                          WED 07/30/97 06:07 Page:132
         9 001455   406000 401760                    pmme    nvectors=13

      831     9300    4              IF EOF_FLAG /* if its eof */

   9300  9 001456   203005 234100                    SZN     EOF_FLAG,,AUTO
         9 001457   001462 605000 9                  TPL     s:9302

      832     9301    4                THEN TH_EOF_FLG = %TRUE;

   9301  9 001460   400000 236003                    LDQ     -131072,DU
         9 001461   000000 756000 xsym               STQ     TH_EOF_FLG

      833     9302    4                CALL THF$RAW(TH_DETAIL_FMT);
              9302                         /* call procedure to process last record(s)*/

   9302  9 001462   000103 630400 10                 EPPR0   67
         9 001463   000017 631400 xsym               EPPR1   B_VECTNIL+15
         9 001464   000000 701000 xent               TSX1    THF$RAW
         9 001465   000000 011000                    NOP     0

      834     9303    4              IF TH_XSA_BUF.P$ ~= ADDR(NIL)/* if memory was used */

   9303  9 001466   000001 236000 xsym               LDQ     TH_XSA_BUF_VECTOR+1
         9 001467   000001 116000 xsym               CMPQ    B_VECTNIL+1
         9 001470   001475 600000 9                  TZE     s:9306

      835     9304    4              THEN CALL M$FDS(GET_XSA_BUF) ALTRET(PMME_ERR);/* release it*/

   9304  9 001471   000764 630400 7                  EPPR0   GET_XSA_BUF
         9 001472   430002 713400                    CLIMB   alt,fds
         9 001473   400400 401760                    pmme    nvectors=2
         9 001474   003172 702000 9                  TSX2    PMME_ERR

      836     9305    4            END;  /* if num_feperr > 0 */

      837     9306    4            IF NUM_IOERR_REC > 0 THEN DO; /* if ioerr was read in */

PL6.E3A0      #003=THC$REPORT File=THC$COMMANDS.:E05TSI                          WED 07/30/97 06:07 Page:133
   9306  9 001475   200371 235100                    LDA     NUM_IOERR_REC,,AUTO
         9 001476   003127 604400 9                  TMOZ    s:9546

      838     9307    4            CALL THW$WRITE(VECTOR(IOERR_HDR));

   9307  9 001477   000106 630400 10                 EPPR0   70
         9 001500   000017 631400 xsym               EPPR1   B_VECTNIL+15
         9 001501   000000 701000 xent               TSX1    THW$WRITE
         9 001502   000000 011000                    NOP     0

      839     9308    4        CALL THW$WRITE(TIME_FMT,VECTOR(OLD_IOERR_TIME),VECTOR(OLD_IOERR_DATE),VECTOR(
              9308                 NEW_IOERR_DATE),VECTOR(NEW_IOERR_TIME));

   9308  9 001503   000120 630400 10                 EPPR0   80
         9 001504   000023 631400 xsym               EPPR1   B_VECTNIL+19
         9 001505   000000 701000 xent               TSX1    THW$WRITE
         9 001506   000000 011000                    NOP     0

      840     9309    4            IF NOT DCBADDR(DCBNUM(M$ERRLOG3))->F$DCB.FCD  /*if errlog3 isn't open */

   9309  9 001507   000000 236007 xsym               LDQ     M$ERRLOG3,DL
         9 001510   000000 470400 10                 LDP0    0
         9 001511   000000 471500                    LDP1    0,,PR0
         9 001512   100000 473506                    LDP3    0,QL,PR1
         9 001513   300031 236100                    LDQ     25,,PR3
         9 001514   020000 316007                    CANQ    8192,DL
         9 001515   001523 601000 9                  TNZ     s:9314

      841     9310    5            THEN DO;

      842     9311    5                OPEN_ERRLOG3.V.FUN#=%UPDATE#;   /* set FPT to update file */

   9311  9 001516   001000 236007                    LDQ     512,DL
         9 001517   000663 552010 7                  STBQ    OPEN_ERRLOG3+37,'10'O

      843     9312    5                CALL M$OPEN(OPEN_ERRLOG3);

PL6.E3A0      #003=THC$REPORT File=THC$COMMANDS.:E05TSI                          WED 07/30/97 06:07 Page:134
   9312  9 001520   000616 630400 7                  EPPR0   OPEN_ERRLOG3
         9 001521   050000 713400                    CLIMB   open
         9 001522   410400 401760                    pmme    nvectors=18

      844     9313    5            END;

      845     9314    4            EOF_FLAG = %FALSE;/* set appropriate flags */

   9314  9 001523   203005 450100                    STZ     EOF_FLAG,,AUTO

      846     9315    4            TH_EOF_FLG = %FALSE;

   9315  9 001524   000000 450000 xsym               STZ     TH_EOF_FLG

      847     9316    4            TH_IOERR_FLG = %TRUE;  /* set ioerr flg */

   9316  9 001525   400000 236003                    LDQ     -131072,DU
         9 001526   000000 756000 xsym               STQ     TH_IOERR_FLG

      848     9317    4            TH_FEPERR_FLG = %FALSE;

   9317  9 001527   000000 450000 xsym               STZ     TH_FEPERR_FLG

      849     9318    4            TH_FIRST_TIME = %TRUE;

   9318  9 001530   000000 756000 xsym               STQ     TH_FIRST_TIME

      850     9319    4            TH_ITYPE = %TH_IOERR;

   9319  9 001531   000022 235007                    LDA     18,DL
         9 001532   000000 755000 xsym               STA     TH_ITYPE

      851     9320    4            CALL M$GDS(GET_XSA_BUF) ALTRET(PMME_ERR);  /* get memory to use */

   9320  9 001533   000764 630400 7                  EPPR0   GET_XSA_BUF
         9 001534   430001 713400                    CLIMB   alt,gds
         9 001535   400400 401760                    pmme    nvectors=2
PL6.E3A0      #003=THC$REPORT File=THC$COMMANDS.:E05TSI                          WED 07/30/97 06:07 Page:135
         9 001536   003172 702000 9                  TSX2    PMME_ERR

      852     9321    4            READ_ERRLOG3.BUF_=TH_XSA_BUF_VECTOR;  /* assign FPT's vector */

   9321  9 001537   000000 100400                    MLR     fill='000'O
         9 001540   000000 000010 xsym               ADSC9   TH_XSA_BUF_VECTOR        cn=0,n=8
         9 001541   000752 000010 7                  ADSC9   READ_ERRLOG3+4           cn=0,n=8

      853     9322    5              DO WHILE(NOT EOF_FLAG);

   9322  9 001542   001570 710000 9                  TRA     s:9330

      854     9323    5                CALL M$READ(READ_ERRLOG3) ALTRET(ERRLOG3_EOF);

   9323  9 001543   000746 630400 7                  EPPR0   READ_ERRLOG3
         9 001544   440000 713400                    CLIMB   alt,read
         9 001545   401400 401760                    pmme    nvectors=4
         9 001546   001554 702000 9                  TSX2    ERRLOG3_EOF

      855     9324    5                CALL THF$RAW(TH_DETAIL_FMT);
              9324                         /* call procedure to process/format ioerr */

   9324  9 001547   000103 630400 10                 EPPR0   67
         9 001550   000017 631400 xsym               EPPR1   B_VECTNIL+15
         9 001551   000000 701000 xent               TSX1    THF$RAW
         9 001552   000000 011000                    NOP     0

      856     9325    6   DO NEVER;

   9325  9 001553   001570 710000 9                  TRA     s:9330

      857     9326    6   ERRLOG3_EOF:   IF B$TCB$->B$TCB.ALT$->B$ALT.ERR.CODE = %E$EOF

   9326  9 001554   000000 470400 xsym  ERRLOG3_EOF  LDP0    B$TCB$
         9 001555   000000 471500                    LDP1    0,,PR0
         9 001556   100102 236100                    LDQ     66,,PR1
         9 001557   377770 376007                    ANQ     131064,DL
PL6.E3A0      #003=THC$REPORT File=THC$COMMANDS.:E05TSI                          WED 07/30/97 06:07 Page:136
         9 001560   000060 116007                    CMPQ    48,DL
         9 001561   001565 601000 9                  TNZ     s:9328

      858     9327    6                  THEN EOF_FLAG =%TRUE;

   9327  9 001562   400000 236003                    LDQ     -131072,DU
         9 001563   203005 756100                    STQ     EOF_FLAG,,AUTO
         9 001564   001570 710000 9                  TRA     s:9330

      859     9328    6                  ELSE CALL THM$ERRMSG;

   9328  9 001565   000002 631400 xsym               EPPR1   B_VECTNIL+2
         9 001566   000000 701000 xent               TSX1    THM$ERRMSG
         9 001567   000000 011000                    NOP     0

      860     9329    6                END;   /* DO NEVER  */

      861     9330    5              END;     /* DO WHILE  */

   9330  9 001570   203005 234100                    SZN     EOF_FLAG,,AUTO
         9 001571   001543 605000 9                  TPL     s:9323

      862     9331    4              CALL M$CLOSE(CLOSE_ERRLOG3);/* close dcb */

   9331  9 001572   000710 630400 7                  EPPR0   CLOSE_ERRLOG3
         9 001573   050001 713400                    CLIMB   close
         9 001574   406000 401760                    pmme    nvectors=13

      863     9332    4            IF EOF_FLAG THEN TH_EOF_FLG = %TRUE;/* if its eof */

   9332  9 001575   203005 234100                    SZN     EOF_FLAG,,AUTO
         9 001576   001601 605000 9                  TPL     s:9333

   9332  9 001577   400000 236003                    LDQ     -131072,DU
         9 001600   000000 756000 xsym               STQ     TH_EOF_FLG

      864     9333    4             CALL THF$RAW(TH_DETAIL_FMT);/* call procedure to process last record(s)*/
PL6.E3A0      #003=THC$REPORT File=THC$COMMANDS.:E05TSI                          WED 07/30/97 06:07 Page:137

   9333  9 001601   000103 630400 10                 EPPR0   67
         9 001602   000017 631400 xsym               EPPR1   B_VECTNIL+15
         9 001603   000000 701000 xent               TSX1    THF$RAW
         9 001604   000000 011000                    NOP     0

      865     9334    4              IF TH_XSA_BUF.P$ ~= ADDR(NIL)    /* if memory was used */

   9334  9 001605   000001 236000 xsym               LDQ     TH_XSA_BUF_VECTOR+1
         9 001606   000001 116000 xsym               CMPQ    B_VECTNIL+1
         9 001607   003127 600000 9                  TZE     s:9546

      866     9335    4              THEN CALL M$FDS(GET_XSA_BUF) ALTRET(PMME_ERR); /* then release it */

   9335  9 001610   000764 630400 7                  EPPR0   GET_XSA_BUF
         9 001611   430002 713400                    CLIMB   alt,fds
         9 001612   400400 401760                    pmme    nvectors=2
         9 001613   003172 702000 9                  TSX2    PMME_ERR

      867     9336    4            END;    /* if num_ioerr_rec > 0 */

      868     9337    3            END;    /* if report_code = %detail */

   9337  9 001614   003127 710000 9                  TRA     s:9546

      869     9338    3            ELSE DO;

      870     9339    3            CALL XUD$UTS_DIFF_SEC (START_TIME, TH_CONSTRAINTS.START, 0);

   9339  9 001615   000125 236000 10                 LDQ     85
         9 001616   203012 756100                    STQ     EOF_FLAG+5,,AUTO
         9 001617   000015 236000 10                 LDQ     13
         9 001620   203011 756100                    STQ     EOF_FLAG+4,,AUTO
         9 001621   200004 630500                    EPPR0   START_TIME,,AUTO
         9 001622   203010 450500                    STP0    EOF_FLAG+3,,AUTO
         9 001623   203010 630500                    EPPR0   EOF_FLAG+3,,AUTO
         9 001624   000021 631400 xsym               EPPR1   B_VECTNIL+17
PL6.E3A0      #003=THC$REPORT File=THC$COMMANDS.:E05TSI                          WED 07/30/97 06:07 Page:138
         9 001625   000000 701000 xent               TSX1    XUD$UTS_DIFF_SEC
         9 001626   000000 011000                    NOP     0

      871     9340    3            START_TIME = START_TIME / 86400;

   9340  9 001627   200004 236100                    LDQ     START_TIME,,AUTO
         9 001630   000001 772000                    QRL     1
         9 001631   124300 506007                    DIV     43200,DL
         9 001632   200004 756100                    STQ     START_TIME,,AUTO

      872     9341    3            CALL XUD$UTS_ADJ_25TH (START_TIME, 0, START_TIME*%UTS_25TH_DAY#);

   9341  9 001633   000126 402000 10                 MPY     86
         9 001634   203010 756100                    STQ     EOF_FLAG+3,,AUTO
         9 001635   203010 630500                    EPPR0   EOF_FLAG+3,,AUTO
         9 001636   203013 450500                    STP0    EOF_FLAG+6,,AUTO
         9 001637   000125 236000 10                 LDQ     85
         9 001640   203012 756100                    STQ     EOF_FLAG+5,,AUTO
         9 001641   200004 631500                    EPPR1   START_TIME,,AUTO
         9 001642   203011 451500                    STP1    EOF_FLAG+4,,AUTO
         9 001643   203011 630500                    EPPR0   EOF_FLAG+4,,AUTO
         9 001644   000021 631400 xsym               EPPR1   B_VECTNIL+17
         9 001645   000000 701000 xent               TSX1    XUD$UTS_ADJ_25TH
         9 001646   000000 011000                    NOP     0

      873     9342    3            CALL XUD$UTS_DIFF_SEC (STOP_TIME, TH_CONSTRAINTS.STOP, 0);

   9342  9 001647   000125 236000 10                 LDQ     85
         9 001650   203012 756100                    STQ     EOF_FLAG+5,,AUTO
         9 001651   000017 236000 10                 LDQ     15
         9 001652   203011 756100                    STQ     EOF_FLAG+4,,AUTO
         9 001653   200005 630500                    EPPR0   STOP_TIME,,AUTO
         9 001654   203010 450500                    STP0    EOF_FLAG+3,,AUTO
         9 001655   203010 630500                    EPPR0   EOF_FLAG+3,,AUTO
         9 001656   000021 631400 xsym               EPPR1   B_VECTNIL+17
         9 001657   000000 701000 xent               TSX1    XUD$UTS_DIFF_SEC
         9 001660   000000 011000                    NOP     0
PL6.E3A0      #003=THC$REPORT File=THC$COMMANDS.:E05TSI                          WED 07/30/97 06:07 Page:139

      874     9343    3            STOP_TIME = STOP_TIME / 86400;

   9343  9 001661   200005 236100                    LDQ     STOP_TIME,,AUTO
         9 001662   000001 772000                    QRL     1
         9 001663   124300 506007                    DIV     43200,DL
         9 001664   200005 756100                    STQ     STOP_TIME,,AUTO

      875     9344    3            CALL XUD$UTS_ADJ_25TH (STOP_TIME, 0, STOP_TIME*%UTS_25TH_DAY#);

   9344  9 001665   000126 402000 10                 MPY     86
         9 001666   203010 756100                    STQ     EOF_FLAG+3,,AUTO
         9 001667   203010 630500                    EPPR0   EOF_FLAG+3,,AUTO
         9 001670   203013 450500                    STP0    EOF_FLAG+6,,AUTO
         9 001671   000125 236000 10                 LDQ     85
         9 001672   203012 756100                    STQ     EOF_FLAG+5,,AUTO
         9 001673   200005 631500                    EPPR1   STOP_TIME,,AUTO
         9 001674   203011 451500                    STP1    EOF_FLAG+4,,AUTO
         9 001675   203011 630500                    EPPR0   EOF_FLAG+4,,AUTO
         9 001676   000021 631400 xsym               EPPR1   B_VECTNIL+17
         9 001677   000000 701000 xent               TSX1    XUD$UTS_ADJ_25TH
         9 001700   000000 011000                    NOP     0

      876     9345    3          ERRLOG_DATE = START_TIME;

   9345  9 001701   200004 235100                    LDA     START_TIME,,AUTO
         9 001702   000436 755000 7                  STA     ERRLOG_DATE

      877     9346    4          DO WHILE (ERRLOG_DATE <= STOP_TIME);

   9346  9 001703   200005 236100                    LDQ     STOP_TIME,,AUTO
         9 001704   000436 116000 7                  CMPQ    ERRLOG_DATE
         9 001705   002100 602000 9                  TNC     s:9394

      878     9347    4                 NUM_RECS = 0;

   9347  9 001706   200373 450100                    STZ     NUM_RECS,,AUTO
PL6.E3A0      #003=THC$REPORT File=THC$COMMANDS.:E05TSI                          WED 07/30/97 06:07 Page:140

      879     9348    4                 CALL THG$OPENXSA(ERRLOG_DATE) ALTRET(NO_FILE);

   9348  9 001707   000127 630400 10                 EPPR0   87
         9 001710   000017 631400 xsym               EPPR1   B_VECTNIL+15
         9 001711   000000 701000 xent               TSX1    THG$OPENXSA
         9 001712   002071 702000 9                  TSX2    NO_FILE

      880     9349    4                 CALL M$TIME(EXT_DATE);

   9349  9 001713   000670 630400 8                  EPPR0   EXT_DATE
         9 001714   020004 713400                    CLIMB   8196
         9 001715   402000 401760                    pmme    nvectors=5

      881     9350    4                 IF CODE = %ALL

   9350  9 001716   200360 235100                    LDA     CODE,,AUTO
         9 001717   000016 115007                    CMPA    14,DL
         9 001720   001727 601000 9                  TNZ     s:9356

      882     9351    4                    THEN
      883     9352    5                    DO;

      884     9353    5                       TH_NUM_REP_DEVS = 1;

   9353  9 001721   000001 236007                    LDQ     1,DL
         9 001722   000000 756000 xsym               STQ     TH_NUM_REP_DEVS

      885     9354    5                       TH_REP_DEVS(0) = ' ';

   9354  9 001723   000035 235000 xsym               LDA     B_VECTNIL+29
         9 001724   000035 236000 xsym               LDQ     B_VECTNIL+29
         9 001725   000000 755000 xsym               STA     TH_REP_DEVS
         9 001726   000001 756000 xsym               STQ     TH_REP_DEVS+1

      886     9355    5                    END;

PL6.E3A0      #003=THC$REPORT File=THC$COMMANDS.:E05TSI                          WED 07/30/97 06:07 Page:141
      887     9356    5                 DO I = 0 TO TH_NUM_REP_DEVS - 1;

   9356  9 001727   200363 450100                    STZ     I,,AUTO
         9 001730   002066 710000 9                  TRA     s:9390+3

      888     9357    5                    TH_CONSTRAINTS.DEVNM = TH_REP_DEVS(I);

   9357  9 001731   200363 235100                    LDA     I,,AUTO
         9 001732   000003 735000                    ALS     3
         9 001733   040000 100405                    MLR     fill='040'O
         9 001734   000000 000010 xsym               ADSC9   TH_REP_DEVS,A            cn=0,n=8
         9 001735   000010 000010 xsym               ADSC9   TH_CONSTRAINTS+8         cn=0,n=8

      889     9358    5                    IF TH_CONSTRAINTS.DEVNM ~= ' '

   9358  9 001736   000010 237000 xsym               LDAQ    TH_CONSTRAINTS+8
         9 001737   000130 117000 10                 CMPAQ   88
         9 001740   001744 600000 9                  TZE     s:9360

      890     9359    5                    THEN TH_CHECK_DEVNM = '1'B;

   9359  9 001741   400000 236003                    LDQ     -131072,DU
         9 001742   000000 756000 xsym               STQ     TH_CHECK_DEVNM
         9 001743   001745 710000 9                  TRA     s:9361

      891     9360    5                    ELSE TH_CHECK_DEVNM = '0'B;

   9360  9 001744   000000 450000 xsym               STZ     TH_CHECK_DEVNM

      892     9361    5                    EOF_FLAG = %FALSE;

   9361  9 001745   203005 450100                    STZ     EOF_FLAG,,AUTO

      893     9362    5            CALL THG$PRECORDXSA(TH_CONSTRAINTS.START);

   9362  9 001746   000015 630400 10                 EPPR0   13
         9 001747   000017 631400 xsym               EPPR1   B_VECTNIL+15
PL6.E3A0      #003=THC$REPORT File=THC$COMMANDS.:E05TSI                          WED 07/30/97 06:07 Page:142
         9 001750   000000 701000 xent               TSX1    THG$PRECORDXSA
         9 001751   000000 011000                    NOP     0

      894     9363    6                    DO WHILE(NOT EOF_FLAG);

   9363  9 001752   002061 710000 9                  TRA     s:9389

      895     9364    6                       CALL THG$GETREC(%ERRLOG) ALTRET(EOF_LBL);

   9364  9 001753   000132 630400 10                 EPPR0   90
         9 001754   000017 631400 xsym               EPPR1   B_VECTNIL+15
         9 001755   000000 701000 xent               TSX1    THG$GETREC
         9 001756   002057 702000 9                  TSX2    EOF_LBL

      896     9365    6                       IF (NUM_RECS = 0) AND (REPORT_CODE ~= %DETAIL)
              9365                                /*if first rec & not detail report*/

   9365  9 001757   200373 235100                    LDA     NUM_RECS,,AUTO
         9 001760   001770 601000 9                  TNZ     s:9367
         9 001761   203004 236100                    LDQ     REPORT_CODE,,AUTO
         9 001762   000021 116007                    CMPQ    17,DL
         9 001763   001770 600000 9                  TZE     s:9367

      897     9366    6                         THEN CALL THW$WRITE(DATE_FMT,VECTOR(DAY_BUF),VECTOR(DATE_BUF)
              9366                                   );

   9366  9 001764   000140 630400 10                 EPPR0   96
         9 001765   000021 631400 xsym               EPPR1   B_VECTNIL+17
         9 001766   000000 701000 xent               TSX1    THW$WRITE
         9 001767   000000 011000                    NOP     0

      898     9367    6                       NUM_RECS = NUM_RECS + 1;

   9367  9 001770   200373 054100                    AOS     NUM_RECS,,AUTO

      899     9368    7                       IF TH_CONSTRAINTS.OCTAL THEN DO;

PL6.E3A0      #003=THC$REPORT File=THC$COMMANDS.:E05TSI                          WED 07/30/97 06:07 Page:143
   9368  9 001771   000066 236000 xsym               LDQ     TH_CONSTRAINTS+54
         9 001772   002000 316007                    CANQ    1024,DL
         9 001773   002034 600000 9                  TZE     s:9376

      900     9369    7                          LOC_UTS = RECORD.UTS;

   9369  9 001774   000001 470400 xsym               LDP0    TH_RECORD+1
         9 001775   000000 235100                    LDA     0,,PR0
         9 001776   000001 236100                    LDQ     1,,PR0
         9 001777   000011 773000                    LRL     9
         9 002000   000411 756000 7                  STQ     LOC_UTS

      901     9370    7                          CALL M$TIME(LOC_DATE);

   9370  9 002001   000704 630400 8                  EPPR0   LOC_DATE
         9 002002   020004 713400                    CLIMB   8196
         9 002003   402000 401760                    pmme    nvectors=5

      902     9371    7                          TYPE = RECORD.TYPE;

   9371  9 002004   000001 470400 xsym               LDP0    TH_RECORD+1
         9 002005   000000 236100                    LDQ     0,,PR0
         9 002006   000033 772000                    QRL     27
         9 002007   200354 756100                    STQ     TYPE,,AUTO

      903     9372    7                         CALL THW$WRITE(DUMP_FMT,VECTOR(TYPE),VECTOR(DBUF),VECTOR(TBUF
              9372                                   ));

   9372  9 002010   777640 235007                    LDA     -96,DL
         9 002011   203010 452500                    STP2    EOF_FLAG+3,,AUTO
         9 002012   203010 236100                    LDQ     EOF_FLAG+3,,AUTO
         9 002013   000354 036003                    ADLQ    236,DU
         9 002014   203012 757100                    STAQ    EOF_FLAG+5,,AUTO
         9 002015   000150 237000 10                 LDAQ    104
         9 002016   203016 757100                    STAQ    EOF_FLAG+9,,AUTO
         9 002017   203012 631500                    EPPR1   EOF_FLAG+5,,AUTO
         9 002020   203015 451500                    STP1    EOF_FLAG+8,,AUTO
PL6.E3A0      #003=THC$REPORT File=THC$COMMANDS.:E05TSI                          WED 07/30/97 06:07 Page:144
         9 002021   000152 236000 10                 LDQ     106
         9 002022   203014 756100                    STQ     EOF_FLAG+7,,AUTO
         9 002023   203014 630500                    EPPR0   EOF_FLAG+7,,AUTO
         9 002024   000022 631400 xsym               EPPR1   B_VECTNIL+18
         9 002025   000000 701000 xent               TSX1    THW$WRITE
         9 002026   000000 011000                    NOP     0

      904     9373    7                          CALL THF$DUMP(TH_RECORD.PTR$);

   9373  9 002027   000153 630400 10                 EPPR0   107
         9 002030   000017 631400 xsym               EPPR1   B_VECTNIL+15
         9 002031   000000 701000 xent               TSX1    THF$DUMP
         9 002032   000000 011000                    NOP     0

      905     9374    7                          END;  /* IF OCTAL */

   9374  9 002033   002056 710000 9                  TRA     s:9386

      906     9375    7                       ELSE DO;

      907     9376    7                          CALL M$TIME(RECORD_DATE);

   9376  9 002034   000654 630400 8                  EPPR0   RECORD_DATE
         9 002035   020004 713400                    CLIMB   8196
         9 002036   402000 401760                    pmme    nvectors=5

      908     9377    7                          TH_DETAIL_FLG = %FALSE;

   9377  9 002037   000000 450000 xsym               STZ     TH_DETAIL_FLG

      909     9378    7                          IF REPORT_CODE = %RAW

   9378  9 002040   203004 235100                    LDA     REPORT_CODE,,AUTO
         9 002041   000012 115007                    CMPA    10,DL
         9 002042   002052 601000 9                  TNZ     s:9384

      910     9379    8                          THEN DO;  /* call formattor routine with raw formats*/
PL6.E3A0      #003=THC$REPORT File=THC$COMMANDS.:E05TSI                          WED 07/30/97 06:07 Page:145

      911     9380    8                               TH_RAW_FLG = %TRUE;

   9380  9 002043   400000 236003                    LDQ     -131072,DU
         9 002044   000000 756000 xsym               STQ     TH_RAW_FLG

      912     9381    8                               CALL THF$RAW(TH_RAW_FMT);/* process raw report*/

   9381  9 002045   000154 630400 10                 EPPR0   108
         9 002046   000017 631400 xsym               EPPR1   B_VECTNIL+15
         9 002047   000000 701000 xent               TSX1    THF$RAW
         9 002050   000000 011000                    NOP     0

      913     9382    8                          END;

   9382  9 002051   002056 710000 9                  TRA     s:9386

      914     9383    7                          ELSE /* call formatter routine w/extended formats */
      915     9384    7                               CALL THF$RAW(TH_EXTENDED_FMT);
              9384                                        /* process extended report*/

   9384  9 002052   000155 630400 10                 EPPR0   109
         9 002053   000017 631400 xsym               EPPR1   B_VECTNIL+15
         9 002054   000000 701000 xent               TSX1    THF$RAW
         9 002055   000000 011000                    NOP     0

      916     9385    7                          END;

      917     9386    7                       DO NEVER;

   9386  9 002056   002061 710000 9                  TRA     s:9389

      918     9387    7              EOF_LBL:    EOF_FLAG = %TRUE;

   9387  9 002057   400000 236003       EOF_LBL      LDQ     -131072,DU
         9 002060   203005 756100                    STQ     EOF_FLAG,,AUTO

PL6.E3A0      #003=THC$REPORT File=THC$COMMANDS.:E05TSI                          WED 07/30/97 06:07 Page:146
      919     9388    7                       END;                /* DO NEVER                           */

      920     9389    6                    END;                   /* DO WHILE NOT EOF_FLG               */

   9389  9 002061   203005 234100                    SZN     EOF_FLAG,,AUTO
         9 002062   001753 605000 9                  TPL     s:9364

      921     9390    5                 END;                      /* DO I = 0 TO TH_NUM_REP_DEVS - 1    */

   9390  9 002063   200363 235100                    LDA     I,,AUTO
         9 002064   000001 035007                    ADLA    1,DL
         9 002065   200363 755100                    STA     I,,AUTO
         9 002066   200363 236100                    LDQ     I,,AUTO
         9 002067   000000 116000 xsym               CMPQ    TH_NUM_REP_DEVS
         9 002070   001731 602000 9                  TNC     s:9357

      922     9391    4     NO_FILE:
      923     9392    4                 CALL XUD$UTS_ADJ_25TH (ERRLOG_DATE, ERRLOG_DATE, %UTS_25TH_DAY#);

   9392  9 002071   000156 630400 10    NO_FILE      EPPR0   110
         9 002072   000021 631400 xsym               EPPR1   B_VECTNIL+17
         9 002073   000000 701000 xent               TSX1    XUD$UTS_ADJ_25TH
         9 002074   000000 011000                    NOP     0

      924     9393    4              END;                   /* DO WHILE (ERRLOG_DATE <= STOP) */

   9393  9 002075   200005 236100                    LDQ     STOP_TIME,,AUTO
         9 002076   000436 116000 7                  CMPQ    ERRLOG_DATE
         9 002077   001706 603000 9                  TRC     s:9347

      925     9394    3              CALL THG$CLOSEXSA;

   9394  9 002100   000002 631400 xsym               EPPR1   B_VECTNIL+2
         9 002101   000000 701000 xent               TSX1    THG$CLOSEXSA
         9 002102   000000 011000                    NOP     0

      926     9395    3              TH_LASTTYPE = -1;
PL6.E3A0      #003=THC$REPORT File=THC$COMMANDS.:E05TSI                          WED 07/30/97 06:07 Page:147

   9395  9 002103   000001 335007                    LCA     1,DL
         9 002104   000000 755000 xsym               STA     TH_LASTTYPE

      927     9396    3             END;

   9396  9 002105   003127 710000 9                  TRA     s:9546

      928     9397    2           CASE(%SUM);

      929     9398    2            TH_BRKMSG = '0'B;

   9398  9 002106   000000 450000 xsym               STZ     TH_BRKMSG

      930     9399    3              IF TH_CONSTRAINTS.NTYPES > 0 THEN DO;

   9399  9 002107   000000 236000 xsym               LDQ     TH_CONSTRAINTS
         9 002110   002213 604400 9                  TMOZ    s:9416

      931     9400    3                 TEXT$ = ADDR(TEXTBUF);

   9400  9 002111   000003 236000 10                 LDQ     3
         9 002112   200006 756100                    STQ     TEXT$,,AUTO

      932     9401    3                 BUF_COUNT = 0;

   9401  9 002113   200353 450100                    STZ     BUF_COUNT,,AUTO

      933     9402    4                 DO I = 0 TO TH_CONSTRAINTS.NTYPES - 1;

   9402  9 002114   200363 450100                    STZ     I,,AUTO
         9 002115   002156 710000 9                  TRA     s:9410+3

      934     9403    5                    IF I > 0 THEN DO;

   9403  9 002116   200363 235100                    LDA     I,,AUTO
         9 002117   002127 600000 9                  TZE     s:9407
PL6.E3A0      #003=THC$REPORT File=THC$COMMANDS.:E05TSI                          WED 07/30/97 06:07 Page:148

      935     9404    5                       CALL INSERT(TEMP_BUF2,BUF_COUNT,2,', ');

   9404  9 002120   200353 236100                    LDQ     BUF_COUNT,,AUTO
         9 002121   040106 100400                    MLR     fill='040'O
         9 002122   001072 000002 8                  ADSC9   SORT_SUPPRESS+29         cn=0,n=2
         9 002123   200012 000002                    ADSC9   TEMP_BUF2,Q,AUTO         cn=0,n=2

      936     9405    5                       BUF_COUNT = BUF_COUNT + 2;

   9405  9 002124   200353 236100                    LDQ     BUF_COUNT,,AUTO
         9 002125   000002 036007                    ADLQ    2,DL
         9 002126   200353 756100                    STQ     BUF_COUNT,,AUTO

      937     9406    5                       END;  /* IF I > 0 */

      938     9407    4                    CALL THC$TYPENAME(TH_CONSTRAINTS.TYPES(I),TEMP_BUF,COUNT);

   9407  9 002127   203003 630500                    EPPR0   COUNT,,AUTO
         9 002130   203012 450500                    STP0    EOF_FLAG+5,,AUTO
         9 002131   000005 236000 10                 LDQ     5
         9 002132   203011 756100                    STQ     EOF_FLAG+4,,AUTO
         9 002133   200363 236100                    LDQ     I,,AUTO
         9 002134   000020 736000                    QLS     16
         9 002135   000041 036000 10                 ADLQ    33
         9 002136   203010 756100                    STQ     EOF_FLAG+3,,AUTO
         9 002137   203010 630500                    EPPR0   EOF_FLAG+3,,AUTO
         9 002140   000021 631400 xsym               EPPR1   B_VECTNIL+17
         9 002141   000000 701000 xent               TSX1    THC$TYPENAME
         9 002142   000000 011000                    NOP     0

      939     9408    4                    CALL INSERT(TEMP_BUF2,BUF_COUNT,COUNT,SUBSTR(TEMP_BUF,0,COUNT));

   9408  9 002143   203003 720100                    LXL0    COUNT,,AUTO
         9 002144   200353 235100                    LDA     BUF_COUNT,,AUTO
         9 002145   040145 100440                    MLR     fill='040'O
         9 002146   000343 000010 7                  ADSC9   TEMP_BUF                 cn=0,n=*X0
PL6.E3A0      #003=THC$REPORT File=THC$COMMANDS.:E05TSI                          WED 07/30/97 06:07 Page:149
         9 002147   200012 000010                    ADSC9   TEMP_BUF2,A,AUTO         cn=0,n=*X0

      940     9409    4                    BUF_COUNT = BUF_COUNT + COUNT;

   9409  9 002150   200353 236100                    LDQ     BUF_COUNT,,AUTO
         9 002151   203003 036100                    ADLQ    COUNT,,AUTO
         9 002152   200353 756100                    STQ     BUF_COUNT,,AUTO

      941     9410    4                    END;  /* DO I */

   9410  9 002153   200363 235100                    LDA     I,,AUTO
         9 002154   000001 035007                    ADLA    1,DL
         9 002155   200363 755100                    STA     I,,AUTO
         9 002156   200363 236100                    LDQ     I,,AUTO
         9 002157   002162 604000 9                  TMI     s:9411
         9 002160   000000 116000 xsym               CMPQ    TH_CONSTRAINTS
         9 002161   002116 604000 9                  TMI     s:9403

      942     9411    3                 CALL THF$ADD_TEXTC(TEXT$,TEMP_BUF2,BUF_COUNT);

   9411  9 002162   200353 630500                    EPPR0   BUF_COUNT,,AUTO
         9 002163   203012 450500                    STP0    EOF_FLAG+5,,AUTO
         9 002164   200012 631500                    EPPR1   TEMP_BUF2,,AUTO
         9 002165   203011 451500                    STP1    EOF_FLAG+4,,AUTO
         9 002166   200006 633500                    EPPR3   TEXT$,,AUTO
         9 002167   203010 453500                    STP3    EOF_FLAG+3,,AUTO
         9 002170   203010 630500                    EPPR0   EOF_FLAG+3,,AUTO
         9 002171   000021 631400 xsym               EPPR1   B_VECTNIL+17
         9 002172   000000 701000 xent               TSX1    THF$ADD_TEXTC
         9 002173   000000 011000                    NOP     0

      943     9412    3                 TVEC = VECTOR(TEXTBUF);

   9412  9 002174   000006 237000 10                 LDAQ    6
         9 002175   200010 757100                    STAQ    TVEC,,AUTO

      944     9413    3                 TVEC.BOUND = BUF_COUNT;
PL6.E3A0      #003=THC$REPORT File=THC$COMMANDS.:E05TSI                          WED 07/30/97 06:07 Page:150

   9413  9 002176   200353 236100                    LDQ     BUF_COUNT,,AUTO
         9 002177   000020 736000                    QLS     16
         9 002200   200010 676100                    ERQ     TVEC,,AUTO
         9 002201   000034 376000 xsym               ANQ     B_VECTNIL+28
         9 002202   200010 656100                    ERSQ    TVEC,,AUTO

      945     9414    3                 CALL THW$WRITE(VECTOR(TYPE_FMT),TVEC);

   9414  9 002203   200010 630500                    EPPR0   TVEC,,AUTO
         9 002204   203011 450500                    STP0    EOF_FLAG+4,,AUTO
         9 002205   000044 236000 10                 LDQ     36
         9 002206   203010 756100                    STQ     EOF_FLAG+3,,AUTO
         9 002207   203010 630500                    EPPR0   EOF_FLAG+3,,AUTO
         9 002210   000020 631400 xsym               EPPR1   B_VECTNIL+16
         9 002211   000000 701000 xent               TSX1    THW$WRITE
         9 002212   000000 011000                    NOP     0

      946     9415    3                 END;  /* IF NTYPES > 0 */

      947     9416    2       IF TH_CONSTRAINTS.M_MAJ_S OR TH_CONSTRAINTS.M_SUB_S OR

   9416  9 002213   000014 236000 xsym               LDQ     TH_CONSTRAINTS+12
         9 002214   004000 316003                    CANQ    2048,DU
         9 002215   002233 601000 9                  TNZ     s:9420
         9 002216   000020 316003                    CANQ    16,DU
         9 002217   002233 601000 9                  TNZ     s:9420
         9 002220   000016 234000 xsym               SZN     TH_CONSTRAINTS+14
         9 002221   002233 604000 9                  TMI     s:9420
         9 002222   000000 066400                    CMPB    filb='0'B
         9 002223   000026 010440 xsym               BDSC    TH_CONSTRAINTS+22        by=0,bit=1,n=288
         9 002224   000002 000022 xsym               BDSC    B_VECTNIL+2              by=0,bit=0,n=18
         9 002225   002233 601000 9                  TNZ     s:9420
         9 002226   000061 234000 xsym               SZN     TH_CONSTRAINTS+49
         9 002227   002233 604000 9                  TMI     s:9420
         9 002230   000062 236000 xsym               LDQ     TH_CONSTRAINTS+50
         9 002231   400000 316007                    CANQ    -131072,DL
PL6.E3A0      #003=THC$REPORT File=THC$COMMANDS.:E05TSI                          WED 07/30/97 06:07 Page:151
         9 002232   002237 600000 9                  TZE     s:9422

      948     9417    2          TH_CONSTRAINTS.M_MED_S OR TH_CONSTRAINTS.M_BY_B_SET ~='0'B
      949     9418    2          OR TH_CONSTRAINTS.M_FEP_SET OR TH_CONSTRAINTS.M_CHAN_SET
      950     9419    3            THEN DO;

      951     9420    3            CALL THW$WRITE(VECTOR(MATCH_FMT),VECTOR(TH_LAST_MATCH));

   9420  9 002233   000052 630400 10                 EPPR0   42
         9 002234   000020 631400 xsym               EPPR1   B_VECTNIL+16
         9 002235   000000 701000 xent               TSX1    THW$WRITE
         9 002236   000000 011000                    NOP     0

      952     9421    3            END;

      953     9422    2       IF TH_CONSTRAINTS.E_MAJ_S OR TH_CONSTRAINTS.E_SUB_S OR

   9422  9 002237   000036 236000 xsym               LDQ     TH_CONSTRAINTS+30
         9 002240   002000 316003                    CANQ    1024,DU
         9 002241   002260 601000 9                  TNZ     s:9426
         9 002242   000010 316003                    CANQ    8,DU
         9 002243   002260 601000 9                  TNZ     s:9426
         9 002244   000040 234000 xsym               SZN     TH_CONSTRAINTS+32
         9 002245   002260 604000 9                  TMI     s:9426
         9 002246   000000 066400                    CMPB    filb='0'B
         9 002247   000050 010440 xsym               BDSC    TH_CONSTRAINTS+40        by=0,bit=1,n=288
         9 002250   000002 000022 xsym               BDSC    B_VECTNIL+2              by=0,bit=0,n=18
         9 002251   002260 601000 9                  TNZ     s:9426
         9 002252   000063 236000 xsym               LDQ     TH_CONSTRAINTS+51
         9 002253   400000 316007                    CANQ    -131072,DL
         9 002254   002260 601000 9                  TNZ     s:9426
         9 002255   000062 236000 xsym               LDQ     TH_CONSTRAINTS+50
         9 002256   400000 316007                    CANQ    -131072,DL
         9 002257   002264 600000 9                  TZE     s:9428

      954     9423    2          TH_CONSTRAINTS.E_MED_S OR TH_CONSTRAINTS.E_BY_B_SET ~='0'B
      955     9424    2          OR TH_CONSTRAINTS.E_FEP_SET OR TH_CONSTRAINTS.M_CHAN_SET
PL6.E3A0      #003=THC$REPORT File=THC$COMMANDS.:E05TSI                          WED 07/30/97 06:07 Page:152
      956     9425    3            THEN DO;

      957     9426    3            CALL THW$WRITE(VECTOR(EXCLUDE_FMT),VECTOR(TH_LAST_EXCLUDE));

   9426  9 002260   000060 630400 10                 EPPR0   48
         9 002261   000020 631400 xsym               EPPR1   B_VECTNIL+16
         9 002262   000000 701000 xent               TSX1    THW$WRITE
         9 002263   000000 011000                    NOP     0

      958     9427    3            END;

      959     9428    2              NUM_TYPES = 0;

   9428  9 002264   200374 450100                    STZ     NUM_TYPES,,AUTO

      960     9429    2              NUM_DEV = 0;

   9429  9 002265   200375 450100                    STZ     NUM_DEV,,AUTO

      961     9430    2              NUM_RECS = 0;

   9430  9 002266   200373 450100                    STZ     NUM_RECS,,AUTO

      962     9431    3              DO J = 0 TO 200;

   9431  9 002267   200364 450100                    STZ     J,,AUTO

      963     9432    3                 DEV_CNT(J) = 0;

   9432  9 002270   200364 720100                    LXL0    J,,AUTO
         9 002271   201336 450110                    STZ     DEV_CNT,X0,AUTO

      964     9433    3                 CONNECTS(J) = 0;

   9433  9 002272   202160 450110                    STZ     CONNECTS,X0,AUTO

      965     9434    3                 ERRORS(J) = 0;
PL6.E3A0      #003=THC$REPORT File=THC$COMMANDS.:E05TSI                          WED 07/30/97 06:07 Page:153

   9434  9 002273   202471 450110                    STZ     ERRORS,X0,AUTO

      966     9435    3                 DEV_MOUNT(J) = 0;

   9435  9 002274   201647 450110                    STZ     DEV_MOUNT,X0,AUTO

      967     9436    3              END;  /* do j */

   9436  9 002275   200364 235100                    LDA     J,,AUTO
         9 002276   000001 035007                    ADLA    1,DL
         9 002277   200364 755100                    STA     J,,AUTO
         9 002300   000311 115007                    CMPA    201,DL
         9 002301   002270 602000 9                  TNC     s:9432

      968     9437    2          CALL XUD$UTS_DIFF_SEC (START_TIME, TH_CONSTRAINTS.START, 0);

   9437  9 002302   000125 236000 10                 LDQ     85
         9 002303   203012 756100                    STQ     EOF_FLAG+5,,AUTO
         9 002304   000015 236000 10                 LDQ     13
         9 002305   203011 756100                    STQ     EOF_FLAG+4,,AUTO
         9 002306   200004 630500                    EPPR0   START_TIME,,AUTO
         9 002307   203010 450500                    STP0    EOF_FLAG+3,,AUTO
         9 002310   203010 630500                    EPPR0   EOF_FLAG+3,,AUTO
         9 002311   000021 631400 xsym               EPPR1   B_VECTNIL+17
         9 002312   000000 701000 xent               TSX1    XUD$UTS_DIFF_SEC
         9 002313   000000 011000                    NOP     0

      969     9438    2          START_TIME = START_TIME / 86400;

   9438  9 002314   200004 236100                    LDQ     START_TIME,,AUTO
         9 002315   000001 772000                    QRL     1
         9 002316   124300 506007                    DIV     43200,DL
         9 002317   200004 756100                    STQ     START_TIME,,AUTO

      970     9439    2          CALL XUD$UTS_ADJ_25TH (START_TIME, 0, START_TIME*%UTS_25TH_DAY#);

PL6.E3A0      #003=THC$REPORT File=THC$COMMANDS.:E05TSI                          WED 07/30/97 06:07 Page:154
   9439  9 002320   000126 402000 10                 MPY     86
         9 002321   203010 756100                    STQ     EOF_FLAG+3,,AUTO
         9 002322   203010 630500                    EPPR0   EOF_FLAG+3,,AUTO
         9 002323   203013 450500                    STP0    EOF_FLAG+6,,AUTO
         9 002324   000125 236000 10                 LDQ     85
         9 002325   203012 756100                    STQ     EOF_FLAG+5,,AUTO
         9 002326   200004 631500                    EPPR1   START_TIME,,AUTO
         9 002327   203011 451500                    STP1    EOF_FLAG+4,,AUTO
         9 002330   203011 630500                    EPPR0   EOF_FLAG+4,,AUTO
         9 002331   000021 631400 xsym               EPPR1   B_VECTNIL+17
         9 002332   000000 701000 xent               TSX1    XUD$UTS_ADJ_25TH
         9 002333   000000 011000                    NOP     0

      971     9440    2          CALL XUD$UTS_DIFF_SEC (STOP_TIME, TH_CONSTRAINTS.STOP, 0);

   9440  9 002334   000125 236000 10                 LDQ     85
         9 002335   203012 756100                    STQ     EOF_FLAG+5,,AUTO
         9 002336   000017 236000 10                 LDQ     15
         9 002337   203011 756100                    STQ     EOF_FLAG+4,,AUTO
         9 002340   200005 630500                    EPPR0   STOP_TIME,,AUTO
         9 002341   203010 450500                    STP0    EOF_FLAG+3,,AUTO
         9 002342   203010 630500                    EPPR0   EOF_FLAG+3,,AUTO
         9 002343   000021 631400 xsym               EPPR1   B_VECTNIL+17
         9 002344   000000 701000 xent               TSX1    XUD$UTS_DIFF_SEC
         9 002345   000000 011000                    NOP     0

      972     9441    2          STOP_TIME = STOP_TIME / 86400;

   9441  9 002346   200005 236100                    LDQ     STOP_TIME,,AUTO
         9 002347   000001 772000                    QRL     1
         9 002350   124300 506007                    DIV     43200,DL
         9 002351   200005 756100                    STQ     STOP_TIME,,AUTO

      973     9442    2          CALL XUD$UTS_ADJ_25TH (STOP_TIME, 0, STOP_TIME*%UTS_25TH_DAY#);

   9442  9 002352   000126 402000 10                 MPY     86
         9 002353   203010 756100                    STQ     EOF_FLAG+3,,AUTO
PL6.E3A0      #003=THC$REPORT File=THC$COMMANDS.:E05TSI                          WED 07/30/97 06:07 Page:155
         9 002354   203010 630500                    EPPR0   EOF_FLAG+3,,AUTO
         9 002355   203013 450500                    STP0    EOF_FLAG+6,,AUTO
         9 002356   000125 236000 10                 LDQ     85
         9 002357   203012 756100                    STQ     EOF_FLAG+5,,AUTO
         9 002360   200005 631500                    EPPR1   STOP_TIME,,AUTO
         9 002361   203011 451500                    STP1    EOF_FLAG+4,,AUTO
         9 002362   203011 630500                    EPPR0   EOF_FLAG+4,,AUTO
         9 002363   000021 631400 xsym               EPPR1   B_VECTNIL+17
         9 002364   000000 701000 xent               TSX1    XUD$UTS_ADJ_25TH
         9 002365   000000 011000                    NOP     0

      974     9443    2          ERRLOG_DATE = START_TIME;

   9443  9 002366   200004 235100                    LDA     START_TIME,,AUTO
         9 002367   000436 755000 7                  STA     ERRLOG_DATE

      975     9444    3          DO WHILE (ERRLOG_DATE <= STOP_TIME);

   9444  9 002370   200005 236100                    LDQ     STOP_TIME,,AUTO
         9 002371   000436 116000 7                  CMPQ    ERRLOG_DATE
         9 002372   002643 602000 9                  TNC     s:9509

      976     9445    3                 CALL THG$OPENXSA(ERRLOG_DATE) ALTRET(NO_FILE2);

   9445  9 002373   000127 630400 10                 EPPR0   87
         9 002374   000017 631400 xsym               EPPR1   B_VECTNIL+15
         9 002375   000000 701000 xent               TSX1    THG$OPENXSA
         9 002376   002634 702000 9                  TSX2    NO_FILE2

      977     9446    4                 IF CODE = %ALL THEN DO;

   9446  9 002377   200360 235100                    LDA     CODE,,AUTO
         9 002400   000016 115007                    CMPA    14,DL
         9 002401   002410 601000 9                  TNZ     s:9450

      978     9447    4                    TH_NUM_REP_DEVS = 1;

PL6.E3A0      #003=THC$REPORT File=THC$COMMANDS.:E05TSI                          WED 07/30/97 06:07 Page:156
   9447  9 002402   000001 236007                    LDQ     1,DL
         9 002403   000000 756000 xsym               STQ     TH_NUM_REP_DEVS

      979     9448    4                    TH_REP_DEVS(0) = ' ';

   9448  9 002404   000035 235000 xsym               LDA     B_VECTNIL+29
         9 002405   000035 236000 xsym               LDQ     B_VECTNIL+29
         9 002406   000000 755000 xsym               STA     TH_REP_DEVS
         9 002407   000001 756000 xsym               STQ     TH_REP_DEVS+1

      980     9449    4                    END;  /* IF CODE = %ALL */

      981     9450    4                 DO J = 0 TO TH_NUM_REP_DEVS - 1;

   9450  9 002410   200364 450100                    STZ     J,,AUTO
         9 002411   002631 710000 9                  TRA     s:9505+3

      982     9451    4                    TH_CONSTRAINTS.DEVNM = TH_REP_DEVS(J);

   9451  9 002412   200364 235100                    LDA     J,,AUTO
         9 002413   000003 735000                    ALS     3
         9 002414   040000 100405                    MLR     fill='040'O
         9 002415   000000 000010 xsym               ADSC9   TH_REP_DEVS,A            cn=0,n=8
         9 002416   000010 000010 xsym               ADSC9   TH_CONSTRAINTS+8         cn=0,n=8

      983     9452    4                    IF TH_CONSTRAINTS.DEVNM ~= ' '

   9452  9 002417   000010 237000 xsym               LDAQ    TH_CONSTRAINTS+8
         9 002420   000130 117000 10                 CMPAQ   88
         9 002421   002425 600000 9                  TZE     s:9454

      984     9453    4                    THEN TH_CHECK_DEVNM = '1'B;

   9453  9 002422   400000 236003                    LDQ     -131072,DU
         9 002423   000000 756000 xsym               STQ     TH_CHECK_DEVNM
         9 002424   002426 710000 9                  TRA     s:9455

PL6.E3A0      #003=THC$REPORT File=THC$COMMANDS.:E05TSI                          WED 07/30/97 06:07 Page:157
      985     9454    4                    ELSE TH_CHECK_DEVNM = '0'B;

   9454  9 002425   000000 450000 xsym               STZ     TH_CHECK_DEVNM

      986     9455    4                    EOF_FLAG = %FALSE;

   9455  9 002426   203005 450100                    STZ     EOF_FLAG,,AUTO

      987     9456    4            CALL THG$PRECORDXSA(TH_CONSTRAINTS.START);

   9456  9 002427   000015 630400 10                 EPPR0   13
         9 002430   000017 631400 xsym               EPPR1   B_VECTNIL+15
         9 002431   000000 701000 xent               TSX1    THG$PRECORDXSA
         9 002432   000000 011000                    NOP     0

      988     9457    5                    DO WHILE(NOT EOF_FLAG);

   9457  9 002433   002624 710000 9                  TRA     s:9504

      989     9458    5                       CALL THG$GETREC(%ERRLOG) ALTRET(EOF);

   9458  9 002434   000132 630400 10                 EPPR0   90
         9 002435   000017 631400 xsym               EPPR1   B_VECTNIL+15
         9 002436   000000 701000 xent               TSX1    THG$GETREC
         9 002437   002622 702000 9                  TSX2    EOF

      990     9459    5                       NUM_RECS = NUM_RECS + 1;

   9459  9 002440   200373 054100                    AOS     NUM_RECS,,AUTO

      991     9460    5                       INFO$ = ADDR(RECORD.INFO);

   9460  9 002441   000001 236000 xsym               LDQ     TH_RECORD+1
         9 002442   000005 036003                    ADLQ    5,DU
         9 002443   203002 756100                    STQ     INFO$,,AUTO

      992     9461    5                       RECORD_TYPE = RECORD.TYPE;
PL6.E3A0      #003=THC$REPORT File=THC$COMMANDS.:E05TSI                          WED 07/30/97 06:07 Page:158

   9461  9 002444   000001 470400 xsym               LDP0    TH_RECORD+1
         9 002445   000000 236100                    LDQ     0,,PR0
         9 002446   000033 772000                    QRL     27
         9 002447   200444 756100                    STQ     RECORD_TYPE,,AUTO

      993     9462    6                       DO K = 1 TO NUM_TYPES;

   9462  9 002450   000001 235007                    LDA     1,DL
         9 002451   200365 755100                    STA     K,,AUTO
         9 002452   002464 710000 9                  TRA     s:9467+1

      994     9463    7                          IF TYPES(K) = RECORD_TYPE THEN DO;

   9463  9 002453   200365 720100                    LXL0    K,,AUTO
         9 002454   200376 236110                    LDQ     TYPES,X0,AUTO
         9 002455   200444 116100                    CMPQ    RECORD_TYPE,,AUTO
         9 002456   002463 601000 9                  TNZ     s:9467

      995     9464    7                             TYPE_CNT(K) = TYPE_CNT(K) + 1;

   9464  9 002457   200446 235110                    LDA     TYPE_CNT,X0,AUTO
         9 002460   000001 035007                    ADLA    1,DL
         9 002461   200446 755110                    STA     TYPE_CNT,X0,AUTO

      996     9465    7                             GOTO FOUND_TYPE;

   9465  9 002462   002475 710000 9                  TRA     FOUND_TYPE

      997     9466    7                             END;  /* IF */
      998     9467    6                          END;  /* DO K */

   9467  9 002463   200365 054100                    AOS     K,,AUTO
         9 002464   200365 236100                    LDQ     K,,AUTO
         9 002465   200374 116100                    CMPQ    NUM_TYPES,,AUTO
         9 002466   002453 604400 9                  TMOZ    s:9463

PL6.E3A0      #003=THC$REPORT File=THC$COMMANDS.:E05TSI                          WED 07/30/97 06:07 Page:159
      999     9468    5                          NUM_TYPES = NUM_TYPES + 1;

   9468  9 002467   200374 054100                    AOS     NUM_TYPES,,AUTO

     1000     9469    5                          TYPES(NUM_TYPES) = RECORD_TYPE;

   9469  9 002470   200374 720100                    LXL0    NUM_TYPES,,AUTO
         9 002471   200444 235100                    LDA     RECORD_TYPE,,AUTO
         9 002472   200376 755110                    STA     TYPES,X0,AUTO

     1001     9470    5                          TYPE_CNT(NUM_TYPES) = 1;

   9470  9 002473   000001 235007                    LDA     1,DL
         9 002474   200446 755110                    STA     TYPE_CNT,X0,AUTO

   9470  9 002475                       FOUND_TYPE   null
     1002     9471    5   FOUND_TYPE: ;
     1003     9472    6                        IF RECORD.TYPE = EL_MOUNT THEN DO;
              9472                                 /* if record's mount errors */

   9472  9 002475   000001 470400 xsym               LDP0    TH_RECORD+1
         9 002476   000000 236100                    LDQ     0,,PR0
         9 002477   777000 376003                    ANQ     -512,DU
         9 002500   146000 116003                    CMPQ    52224,DU
         9 002501   002536 601000 9                  TNZ     FOUND_MOUNT

     1004     9473    7                             DO K = 1 TO NUM_DEV;/* go through device tbl*/

   9473  9 002502   000001 235007                    LDA     1,DL
         9 002503   200365 755100                    STA     K,,AUTO
         9 002504   002520 710000 9                  TRA     s:9479+1

     1005     9474                                    /* if current device is found */
     1006     9475    8                               IF DEVNM(K) = EL$MTDMT.DEVNAME THEN DO;

   9475  9 002505   200365 235100                    LDA     K,,AUTO
         9 002506   000003 735000                    ALS     3
PL6.E3A0      #003=THC$REPORT File=THC$COMMANDS.:E05TSI                          WED 07/30/97 06:07 Page:160
         9 002507   203002 470500                    LDP0    INFO$,,AUTO
         9 002510   040100 106505                    CMPC    fill='040'O
         9 002511   200514 000010                    ADSC9   DEVNM,A,AUTO             cn=0,n=8
         9 002512   000004 000010                    ADSC9   4,,PR0                   cn=0,n=8
         9 002513   002517 601000 9                  TNZ     s:9479

     1007     9476    8                                  DEV_MOUNT(K) = DEV_MOUNT(K) + 1;
              9476                                           /* increment counter*/

   9476  9 002514   200365 720100                    LXL0    K,,AUTO
         9 002515   201647 054110                    AOS     DEV_MOUNT,X0,AUTO

     1008     9477    8                                  GOTO FOUND_MOUNT;

   9477  9 002516   002536 710000 9                  TRA     FOUND_MOUNT

     1009     9478    8                               END; /* if devnm(k) = mount_devnm */
     1010     9479    7                             END;  /* do k */

   9479  9 002517   200365 054100                    AOS     K,,AUTO
         9 002520   200365 236100                    LDQ     K,,AUTO
         9 002521   200375 116100                    CMPQ    NUM_DEV,,AUTO
         9 002522   002505 604400 9                  TMOZ    s:9475

     1011     9480    6                          NUM_DEV = NUM_DEV + 1;

   9480  9 002523   200375 054100                    AOS     NUM_DEV,,AUTO

     1012     9481    6                          DEVNM(NUM_DEV) = EL$MTDMT.DEVNAME;

   9481  9 002524   200375 235100                    LDA     NUM_DEV,,AUTO
         9 002525   000001 735000                    ALS     1
         9 002526   000002 735000                    ALS     2
         9 002527   203002 470500                    LDP0    INFO$,,AUTO
         9 002530   040105 100500                    MLR     fill='040'O
         9 002531   000004 000010                    ADSC9   4,,PR0                   cn=0,n=8
         9 002532   200514 000010                    ADSC9   DEVNM,A,AUTO             cn=0,n=8
PL6.E3A0      #003=THC$REPORT File=THC$COMMANDS.:E05TSI                          WED 07/30/97 06:07 Page:161

     1013     9482    6                          DEV_MOUNT(NUM_DEV) = 1;

   9482  9 002533   000001 235007                    LDA     1,DL
         9 002534   200375 720100                    LXL0    NUM_DEV,,AUTO
         9 002535   201647 755110                    STA     DEV_MOUNT,X0,AUTO

   9482  9 002536                       FOUND_MOUNT  null
     1014     9483    6   FOUND_MOUNT: ;
     1015     9484    6                        END; /* if record.type = el_mount */

     1016     9485    6                       IF RECORD.TYPE = EL_IOERR THEN DO;

   9485  9 002536   000001 470400 xsym               LDP0    TH_RECORD+1
         9 002537   000000 236100                    LDQ     0,,PR0
         9 002540   777000 376003                    ANQ     -512,DU
         9 002541   311000 116003                    CMPQ    102912,DU
         9 002542   002621 601000 9                  TNZ     FOUND_DEVNM

     1017     9486    7                          DO K = 1 TO NUM_DEV;

   9486  9 002543   000001 235007                    LDA     1,DL
         9 002544   200365 755100                    STA     K,,AUTO
         9 002545   002575 710000 9                  TRA     s:9493+1

     1018     9487    8                             IF DEVNM(K) = EL$IOERR.DEVNM THEN DO;

   9487  9 002546   200365 235100                    LDA     K,,AUTO
         9 002547   000003 735000                    ALS     3
         9 002550   203002 470500                    LDP0    INFO$,,AUTO
         9 002551   040100 106505                    CMPC    fill='040'O
         9 002552   200514 000010                    ADSC9   DEVNM,A,AUTO             cn=0,n=8
         9 002553   000024 000010                    ADSC9   20,,PR0                  cn=0,n=8
         9 002554   002574 601000 9                  TNZ     s:9493

     1019     9488    8                                DEV_CNT(K) = DEV_CNT(K) + EL$IOERR.COUNT;

PL6.E3A0      #003=THC$REPORT File=THC$COMMANDS.:E05TSI                          WED 07/30/97 06:07 Page:162
   9488  9 002555   200365 720100                    LXL0    K,,AUTO
         9 002556   000005 236100                    LDQ     5,,PR0
         9 002557   000777 376007                    ANQ     511,DL
         9 002560   201336 036110                    ADLQ    DEV_CNT,X0,AUTO
         9 002561   201336 756110                    STQ     DEV_CNT,X0,AUTO

     1020     9489    8                                CONNECTS(K) = CONNECTS(K) + EL$IOERR.CONNECTS.DEVICE;
              9489                                         /*add connects*/

   9489  9 002562   000007 236100                    LDQ     7,,PR0
         9 002563   777777 376007                    ANQ     -1,DL
         9 002564   202160 036110                    ADLQ    CONNECTS,X0,AUTO
         9 002565   202160 756110                    STQ     CONNECTS,X0,AUTO

     1021     9490    8                                ERRORS(K) = ERRORS(K) + EL$IOERR.ERRCT;

   9490  9 002566   000005 236100                    LDQ     5,,PR0
         9 002567   000011 772000                    QRL     9
         9 002570   000777 376007                    ANQ     511,DL
         9 002571   202471 036110                    ADLQ    ERRORS,X0,AUTO
         9 002572   202471 756110                    STQ     ERRORS,X0,AUTO

     1022     9491    8                                GOTO FOUND_DEVNM;

   9491  9 002573   002621 710000 9                  TRA     FOUND_DEVNM

     1023     9492    8                                END;  /* IF */
     1024     9493    7                             END;  /* DO K */

   9493  9 002574   200365 054100                    AOS     K,,AUTO
         9 002575   200365 236100                    LDQ     K,,AUTO
         9 002576   200375 116100                    CMPQ    NUM_DEV,,AUTO
         9 002577   002546 604400 9                  TMOZ    s:9487

     1025     9494    6                             NUM_DEV = NUM_DEV + 1;

   9494  9 002600   200375 054100                    AOS     NUM_DEV,,AUTO
PL6.E3A0      #003=THC$REPORT File=THC$COMMANDS.:E05TSI                          WED 07/30/97 06:07 Page:163

     1026     9495    6                             DEVNM(NUM_DEV) = EL$IOERR.DEVNM;

   9495  9 002601   200375 235100                    LDA     NUM_DEV,,AUTO
         9 002602   000001 735000                    ALS     1
         9 002603   000002 735000                    ALS     2
         9 002604   203002 470500                    LDP0    INFO$,,AUTO
         9 002605   040105 100500                    MLR     fill='040'O
         9 002606   000024 000010                    ADSC9   20,,PR0                  cn=0,n=8
         9 002607   200514 000010                    ADSC9   DEVNM,A,AUTO             cn=0,n=8

     1027     9496    6                             DEV_CNT(NUM_DEV) = 1;/* set device counter*/

   9496  9 002610   000001 235007                    LDA     1,DL
         9 002611   200375 720100                    LXL0    NUM_DEV,,AUTO
         9 002612   201336 755110                    STA     DEV_CNT,X0,AUTO

     1028     9497    6                             CONNECTS(NUM_DEV) = EL$IOERR.CONNECTS.DEVICE;

   9497  9 002613   000007 236100                    LDQ     7,,PR0
         9 002614   777777 376007                    ANQ     -1,DL
         9 002615   202160 756110                    STQ     CONNECTS,X0,AUTO

     1029     9498    6                             ERRORS(NUM_DEV) = EL$IOERR.COUNT;

   9498  9 002616   000005 236100                    LDQ     5,,PR0
         9 002617   000777 376007                    ANQ     511,DL
         9 002620   202471 756110                    STQ     ERRORS,X0,AUTO

   9498  9 002621                       FOUND_DEVNM  null
     1030     9499    6   FOUND_DEVNM: ;
     1031     9500    6                          END;  /* IF RECORD.TYPE = EL_IOERR */

     1032     9501    6                       DO NEVER;

   9501  9 002621   002624 710000 9                  TRA     s:9504

PL6.E3A0      #003=THC$REPORT File=THC$COMMANDS.:E05TSI                          WED 07/30/97 06:07 Page:164
     1033     9502    6                 EOF:     EOF_FLAG = %TRUE;

   9502  9 002622   400000 236003       EOF          LDQ     -131072,DU
         9 002623   203005 756100                    STQ     EOF_FLAG,,AUTO

     1034     9503    6                          END;  /* DO NEVER */

     1035     9504    5                       END;  /* DO WHILE NOT EOF_FLAG */

   9504  9 002624   203005 234100                    SZN     EOF_FLAG,,AUTO
         9 002625   002434 605000 9                  TPL     s:9458

     1036     9505    4                    END;  /* DO J = 0 TO TH_NUM_REP_DEVS - 1 */

   9505  9 002626   200364 235100                    LDA     J,,AUTO
         9 002627   000001 035007                    ADLA    1,DL
         9 002630   200364 755100                    STA     J,,AUTO
         9 002631   200364 236100                    LDQ     J,,AUTO
         9 002632   000000 116000 xsym               CMPQ    TH_NUM_REP_DEVS
         9 002633   002412 602000 9                  TNC     s:9451

     1037     9506    3   NO_FILE2:
     1038     9507    3                 CALL XUD$UTS_ADJ_25TH(ERRLOG_DATE, ERRLOG_DATE, %UTS_25TH_DAY#);

   9507  9 002634   000156 630400 10    NO_FILE2     EPPR0   110
         9 002635   000021 631400 xsym               EPPR1   B_VECTNIL+17
         9 002636   000000 701000 xent               TSX1    XUD$UTS_ADJ_25TH
         9 002637   000000 011000                    NOP     0

     1039     9508    3                 END;  /* DO WHILE (ERRLOG_DATE <= STOP)  */

   9508  9 002640   200005 236100                    LDQ     STOP_TIME,,AUTO
         9 002641   000436 116000 7                  CMPQ    ERRLOG_DATE
         9 002642   002373 603000 9                  TRC     s:9445

     1040     9509    2              CALL THG$CLOSEXSA;

PL6.E3A0      #003=THC$REPORT File=THC$COMMANDS.:E05TSI                          WED 07/30/97 06:07 Page:165
   9509  9 002643   000002 631400 xsym               EPPR1   B_VECTNIL+2
         9 002644   000000 701000 xent               TSX1    THG$CLOSEXSA
         9 002645   000000 011000                    NOP     0

     1041     9510    3              IF NUM_TYPES > 0 THEN DO;

   9510  9 002646   200374 235100                    LDA     NUM_TYPES,,AUTO
         9 002647   002750 604400 9                  TMOZ    s:9524

     1042     9511    3                 CALL THW$WRITE(VECTOR(SUM_FMT));

   9511  9 002650   000164 630400 10                 EPPR0   116
         9 002651   000017 631400 xsym               EPPR1   B_VECTNIL+15
         9 002652   000000 701000 xent               TSX1    THW$WRITE
         9 002653   000000 011000                    NOP     0

     1043     9512    4                 DO I = 1 TO NUM_TYPES;

   9512  9 002654   000001 235007                    LDA     1,DL
         9 002655   200363 755100                    STA     I,,AUTO
         9 002656   002744 710000 9                  TRA     s:9522+3

     1044     9513    4                    TEXT$ = ADDR(TEXTBUF);

   9513  9 002657   000003 236000 10                 LDQ     3
         9 002660   200006 756100                    STQ     TEXT$,,AUTO

     1045     9514    4                    TYPEB = TYPES(I);

   9514  9 002661   200363 720100                    LXL0    I,,AUTO
         9 002662   200376 235110                    LDA     TYPES,X0,AUTO
         9 002663   000033 735000                    ALS     27
         9 002664   200445 755100                    STA     TYPEB,,AUTO

     1046     9515    4                    CALL THC$TYPENAME(TYPEB,TEMP_BUF,COUNT);

   9515  9 002665   203003 630500                    EPPR0   COUNT,,AUTO
PL6.E3A0      #003=THC$REPORT File=THC$COMMANDS.:E05TSI                          WED 07/30/97 06:07 Page:166
         9 002666   203012 450500                    STP0    EOF_FLAG+5,,AUTO
         9 002667   000005 236000 10                 LDQ     5
         9 002670   203011 756100                    STQ     EOF_FLAG+4,,AUTO
         9 002671   200445 631500                    EPPR1   TYPEB,,AUTO
         9 002672   203010 451500                    STP1    EOF_FLAG+3,,AUTO
         9 002673   203010 630500                    EPPR0   EOF_FLAG+3,,AUTO
         9 002674   000021 631400 xsym               EPPR1   B_VECTNIL+17
         9 002675   000000 701000 xent               TSX1    THC$TYPENAME
         9 002676   000000 011000                    NOP     0

     1047     9516    4                    CALL THF$ADD_TEXTC(TEXT$,TEMP_BUF,COUNT);

   9516  9 002677   203003 630500                    EPPR0   COUNT,,AUTO
         9 002700   203012 450500                    STP0    EOF_FLAG+5,,AUTO
         9 002701   000005 236000 10                 LDQ     5
         9 002702   203011 756100                    STQ     EOF_FLAG+4,,AUTO
         9 002703   200006 631500                    EPPR1   TEXT$,,AUTO
         9 002704   203010 451500                    STP1    EOF_FLAG+3,,AUTO
         9 002705   203010 630500                    EPPR0   EOF_FLAG+3,,AUTO
         9 002706   000021 631400 xsym               EPPR1   B_VECTNIL+17
         9 002707   000000 701000 xent               TSX1    THF$ADD_TEXTC
         9 002710   000000 011000                    NOP     0

     1048     9517    4                    TVEC = VECTOR(TEXTBUF);

   9517  9 002711   000006 237000 10                 LDAQ    6
         9 002712   200010 757100                    STAQ    TVEC,,AUTO

     1049     9518    4                    TVEC.BOUND = COUNT;

   9518  9 002713   203003 236100                    LDQ     COUNT,,AUTO
         9 002714   000020 736000                    QLS     16
         9 002715   200010 676100                    ERQ     TVEC,,AUTO
         9 002716   000034 376000 xsym               ANQ     B_VECTNIL+28
         9 002717   200010 656100                    ERSQ    TVEC,,AUTO

     1050     9519    4                    CALL THW$WRITE(VECTOR(SUM_ENTRY),
PL6.E3A0      #003=THC$REPORT File=THC$COMMANDS.:E05TSI                          WED 07/30/97 06:07 Page:167

   9519  9 002720   777640 235007                    LDA     -96,DL
         9 002721   203010 452500                    STP2    EOF_FLAG+3,,AUTO
         9 002722   200363 236100                    LDQ     I,,AUTO
         9 002723   000022 736000                    QLS     18
         9 002724   000446 036003                    ADLQ    294,DU
         9 002725   203010 036100                    ADLQ    EOF_FLAG+3,,AUTO
         9 002726   203012 757100                    STAQ    EOF_FLAG+5,,AUTO
         9 002727   203012 630500                    EPPR0   EOF_FLAG+5,,AUTO
         9 002730   203016 450500                    STP0    EOF_FLAG+9,,AUTO
         9 002731   200010 631500                    EPPR1   TVEC,,AUTO
         9 002732   203015 451500                    STP1    EOF_FLAG+8,,AUTO
         9 002733   000170 236000 10                 LDQ     120
         9 002734   203014 756100                    STQ     EOF_FLAG+7,,AUTO
         9 002735   203014 630500                    EPPR0   EOF_FLAG+7,,AUTO
         9 002736   000021 631400 xsym               EPPR1   B_VECTNIL+17
         9 002737   000000 701000 xent               TSX1    THW$WRITE
         9 002740   000000 011000                    NOP     0

     1051     9520    4                                   TVEC,
     1052     9521    4                                   VECTOR(TYPE_CNT(I)));
     1053     9522    4                    END;  /* DO I */

   9522  9 002741   200363 235100                    LDA     I,,AUTO
         9 002742   000001 035007                    ADLA    1,DL
         9 002743   200363 755100                    STA     I,,AUTO
         9 002744   200363 236100                    LDQ     I,,AUTO
         9 002745   002750 604000 9                  TMI     s:9524
         9 002746   200374 116100                    CMPQ    NUM_TYPES,,AUTO
         9 002747   002657 604400 9                  TMOZ    s:9513

     1054     9523    3                 END;  /* IF NUM_TYPES > 0 */

     1055     9524    3              IF NUM_DEV > 0 THEN DO;

   9524  9 002750   200375 235100                    LDA     NUM_DEV,,AUTO
         9 002751   003100 604400 9                  TMOZ    s:9534
PL6.E3A0      #003=THC$REPORT File=THC$COMMANDS.:E05TSI                          WED 07/30/97 06:07 Page:168

     1056     9525    3                 CALL THW$WRITE(DEV_HDR);

   9525  9 002752   000171 630400 10                 EPPR0   121
         9 002753   000017 631400 xsym               EPPR1   B_VECTNIL+15
         9 002754   000000 701000 xent               TSX1    THW$WRITE
         9 002755   000000 011000                    NOP     0

     1057     9526    4                 DO I = 1 TO NUM_DEV;

   9526  9 002756   000001 235007                    LDA     1,DL
         9 002757   200363 755100                    STA     I,,AUTO
         9 002760   003074 710000 9                  TRA     s:9532+3

     1058     9527    4                   IF ((TH_CONSTRAINTS.NTYPES = 0)AND((DEV_CNT(I) > 0)OR(CONNECTS(I) >
              9527                            0)OR(ERRORS(I) > 0)))

   9527  9 002761   000000 235000 xsym               LDA     TH_CONSTRAINTS
         9 002762   002772 601000 9                  TNZ     s:9527+9
         9 002763   200363 720100                    LXL0    I,,AUTO
         9 002764   201336 235110                    LDA     DEV_CNT,X0,AUTO
         9 002765   002774 605400 9                  TPNZ    s:9529
         9 002766   202160 235110                    LDA     CONNECTS,X0,AUTO
         9 002767   002774 605400 9                  TPNZ    s:9529
         9 002770   202471 235110                    LDA     ERRORS,X0,AUTO
         9 002771   002774 605400 9                  TPNZ    s:9529
         9 002772   000000 235000 xsym               LDA     TH_CONSTRAINTS
         9 002773   003071 604400 9                  TMOZ    s:9532

     1059     9528    4                     OR (TH_CONSTRAINTS.NTYPES > 0)THEN
     1060     9529    4                    CALL THW$WRITE(VECTOR(DEV_ENTRY),VECTOR(DEVNM(I)),

   9529  9 002774   000010 235000 10                 LDA     8
         9 002775   203010 452500                    STP2    EOF_FLAG+3,,AUTO
         9 002776   200363 236100                    LDQ     I,,AUTO
         9 002777   000023 736000                    QLS     19
         9 003000   000514 036003                    ADLQ    332,DU
PL6.E3A0      #003=THC$REPORT File=THC$COMMANDS.:E05TSI                          WED 07/30/97 06:07 Page:169
         9 003001   203010 036100                    ADLQ    EOF_FLAG+3,,AUTO
         9 003002   203012 757100                    STAQ    EOF_FLAG+5,,AUTO
         9 003003   777640 235007                    LDA     -96,DL
         9 003004   203014 452500                    STP2    EOF_FLAG+7,,AUTO
         9 003005   200363 236100                    LDQ     I,,AUTO
         9 003006   000022 736000                    QLS     18
         9 003007   001336 036003                    ADLQ    734,DU
         9 003010   203014 036100                    ADLQ    EOF_FLAG+7,,AUTO
         9 003011   203016 757100                    STAQ    EOF_FLAG+9,,AUTO
         9 003012   777640 235007                    LDA     -96,DL
         9 003013   203020 452500                    STP2    EOF_FLAG+11,,AUTO
         9 003014   200363 236100                    LDQ     I,,AUTO
         9 003015   000022 736000                    QLS     18
         9 003016   002160 036003                    ADLQ    1136,DU
         9 003017   203020 036100                    ADLQ    EOF_FLAG+11,,AUTO
         9 003020   203022 757100                    STAQ    EOF_FLAG+13,,AUTO
         9 003021   777640 235007                    LDA     -96,DL
         9 003022   203024 452500                    STP2    EOF_FLAG+15,,AUTO
         9 003023   200363 236100                    LDQ     I,,AUTO
         9 003024   000022 736000                    QLS     18
         9 003025   002471 036003                    ADLQ    1337,DU
         9 003026   203024 036100                    ADLQ    EOF_FLAG+15,,AUTO
         9 003027   203026 757100                    STAQ    EOF_FLAG+17,,AUTO
         9 003030   777640 235007                    LDA     -96,DL
         9 003031   203030 452500                    STP2    EOF_FLAG+19,,AUTO
         9 003032   200363 236100                    LDQ     I,,AUTO
         9 003033   000022 736000                    QLS     18
         9 003034   001647 036003                    ADLQ    935,DU
         9 003035   203030 036100                    ADLQ    EOF_FLAG+19,,AUTO
         9 003036   203034 757100                    STAQ    EOF_FLAG+23,,AUTO
         9 003037   203012 237100                    LDAQ    EOF_FLAG+5,,AUTO
         9 003040   203032 757100                    STAQ    EOF_FLAG+21,,AUTO
         9 003041   203016 237100                    LDAQ    EOF_FLAG+9,,AUTO
         9 003042   203036 757100                    STAQ    EOF_FLAG+25,,AUTO
         9 003043   203022 237100                    LDAQ    EOF_FLAG+13,,AUTO
         9 003044   203040 757100                    STAQ    EOF_FLAG+27,,AUTO
         9 003045   203026 237100                    LDAQ    EOF_FLAG+17,,AUTO
PL6.E3A0      #003=THC$REPORT File=THC$COMMANDS.:E05TSI                          WED 07/30/97 06:07 Page:170
         9 003046   203042 757100                    STAQ    EOF_FLAG+29,,AUTO
         9 003047   203034 237100                    LDAQ    EOF_FLAG+23,,AUTO
         9 003050   203044 757100                    STAQ    EOF_FLAG+31,,AUTO
         9 003051   203044 630500                    EPPR0   EOF_FLAG+31,,AUTO
         9 003052   203053 450500                    STP0    EOF_FLAG+38,,AUTO
         9 003053   203042 631500                    EPPR1   EOF_FLAG+29,,AUTO
         9 003054   203052 451500                    STP1    EOF_FLAG+37,,AUTO
         9 003055   203040 633500                    EPPR3   EOF_FLAG+27,,AUTO
         9 003056   203051 453500                    STP3    EOF_FLAG+36,,AUTO
         9 003057   203036 634500                    EPPR4   EOF_FLAG+25,,AUTO
         9 003060   203050 454500                    STP4    EOF_FLAG+35,,AUTO
         9 003061   203032 635500                    EPPR5   EOF_FLAG+21,,AUTO
         9 003062   203047 455500                    STP5    EOF_FLAG+34,,AUTO
         9 003063   000174 236000 10                 LDQ     124
         9 003064   203046 756100                    STQ     EOF_FLAG+33,,AUTO
         9 003065   203046 630500                    EPPR0   EOF_FLAG+33,,AUTO
         9 003066   000024 631400 xsym               EPPR1   B_VECTNIL+20
         9 003067   000000 701000 xent               TSX1    THW$WRITE
         9 003070   000000 011000                    NOP     0

     1061     9530    4                                   VECTOR(DEV_CNT(I)),VECTOR(CONNECTS(I)),
     1062     9531    4                                   VECTOR(ERRORS(I)),VECTOR(DEV_MOUNT(I)));
     1063     9532    4                    END;  /* DO I */

   9532  9 003071   200363 235100                    LDA     I,,AUTO
         9 003072   000001 035007                    ADLA    1,DL
         9 003073   200363 755100                    STA     I,,AUTO
         9 003074   200363 236100                    LDQ     I,,AUTO
         9 003075   003100 604000 9                  TMI     s:9534
         9 003076   200375 116100                    CMPQ    NUM_DEV,,AUTO
         9 003077   002761 604400 9                  TMOZ    s:9527

     1064     9533    3                 END;  /* IF NUM_DEV > 0 */

     1065     9534    2              CALL THW$WRITE(VECTOR(SUM_TOT),VECTOR(NUM_RECS));

   9534  9 003100   777640 235007                    LDA     -96,DL
PL6.E3A0      #003=THC$REPORT File=THC$COMMANDS.:E05TSI                          WED 07/30/97 06:07 Page:171
         9 003101   203010 452500                    STP2    EOF_FLAG+3,,AUTO
         9 003102   203010 236100                    LDQ     EOF_FLAG+3,,AUTO
         9 003103   000373 036003                    ADLQ    251,DU
         9 003104   203012 757100                    STAQ    EOF_FLAG+5,,AUTO
         9 003105   203012 630500                    EPPR0   EOF_FLAG+5,,AUTO
         9 003106   203015 450500                    STP0    EOF_FLAG+8,,AUTO
         9 003107   000200 236000 10                 LDQ     128
         9 003110   203014 756100                    STQ     EOF_FLAG+7,,AUTO
         9 003111   203014 630500                    EPPR0   EOF_FLAG+7,,AUTO
         9 003112   000020 631400 xsym               EPPR1   B_VECTNIL+16
         9 003113   000000 701000 xent               TSX1    THW$WRITE
         9 003114   000000 011000                    NOP     0
         9 003115   003127 710000 9                  TRA     s:9546

     1066     9535    2           CASE(%SEC);

     1067     9536                                                /* SEC CODE                           */
     1068     9537    2           CASE(%SWE);

     1069     9538                                                /* SWE CODE                           */
     1070     9539    2           CASE(%SYS);

     1071     9540    2            TH_BRKMSG = '0'B;

   9540  9 003116   000000 450000 xsym               STZ     TH_BRKMSG

     1072     9541    2              CALL THF$SYS;

   9541  9 003117   000002 631400 xsym               EPPR1   B_VECTNIL+2
         9 003120   000000 701000 xent               TSX1    THF$SYS
         9 003121   000000 011000                    NOP     0
         9 003122   003127 710000 9                  TRA     s:9546

     1073     9542    2           CASE(%UPR);

     1074     9543    2            TH_BRKMSG = '0'B;

PL6.E3A0      #003=THC$REPORT File=THC$COMMANDS.:E05TSI                          WED 07/30/97 06:07 Page:172
   9543  9 003123   000000 450000 xsym               STZ     TH_BRKMSG

     1075     9544    2              CALL THF$UPR;

   9544  9 003124   000002 631400 xsym               EPPR1   B_VECTNIL+2
         9 003125   000000 701000 xent               TSX1    THF$UPR
         9 003126   000000 011000                    NOP     0

     1076     9545    2        END;                               /* case report code                   */

     1077     9546    1        TH_EOF_FLG = %FALSE;

   9546  9 003127   000000 450000 xsym               STZ     TH_EOF_FLG

     1078     9547    1        TH_FIRST_TIME = %TRUE;

   9547  9 003130   400000 236003                    LDQ     -131072,DU
         9 003131   000000 756000 xsym               STQ     TH_FIRST_TIME

     1079     9548    1        TH_IOERR_FLG = %FALSE;

   9548  9 003132   000000 450000 xsym               STZ     TH_IOERR_FLG

     1080     9549    1        TH_FEPERR_FLG = %FALSE;

   9549  9 003133   000000 450000 xsym               STZ     TH_FEPERR_FLG

     1081     9550    1        TH_DETAIL_FLG = %TRUE;

   9550  9 003134   000000 756000 xsym               STQ     TH_DETAIL_FLG

     1082     9551    1        TH_NUM_REP_DEVS = 0;

   9551  9 003135   000000 450000 xsym               STZ     TH_NUM_REP_DEVS

     1083     9552    1        TH_CONSTRAINTS = TH_SAVE;

PL6.E3A0      #003=THC$REPORT File=THC$COMMANDS.:E05TSI                          WED 07/30/97 06:07 Page:173
   9552  9 003136   000000 100400                    MLR     fill='000'O
         9 003137   000000 000333 xsym               ADSC9   TH_SAVE                  cn=0,n=219
         9 003140   000000 000333 xsym               ADSC9   TH_CONSTRAINTS           cn=0,n=219

     1084     9553    1        IF DCBADDR(DCBNUM(M$LO))->F$DCB.FCD THEN CALL M$CLOSE(CLOSE_LO);

   9553  9 003141   000000 236007 xsym               LDQ     M$LO,DL
         9 003142   000000 470400 10                 LDP0    0
         9 003143   000000 471500                    LDP1    0,,PR0
         9 003144   100000 473506                    LDP3    0,QL,PR1
         9 003145   300031 236100                    LDQ     25,,PR3
         9 003146   020000 316007                    CANQ    8192,DL
         9 003147   003153 600000 9                  TZE     s:9554

   9553  9 003150   000756 630400 8                  EPPR0   CLOSE_LO
         9 003151   050001 713400                    CLIMB   close
         9 003152   406000 401760                    pmme    nvectors=13

     1085     9554    1        IF DCBADDR(DCBNUM(M$ONFILE))->F$DCB.FCD THEN CALL M$CLOSE(CLOSE_ONFILE);

   9554  9 003153   000000 236007 xsym               LDQ     M$ONFILE,DL
         9 003154   000000 470400 10                 LDP0    0
         9 003155   000000 471500                    LDP1    0,,PR0
         9 003156   100000 473506                    LDP3    0,QL,PR1
         9 003157   300031 236100                    LDQ     25,,PR3
         9 003160   020000 316007                    CANQ    8192,DL
         9 003161   003165 600000 9                  TZE     s:9555

   9554  9 003162   000720 630400 8                  EPPR0   CLOSE_ONFILE
         9 003163   050001 713400                    CLIMB   close
         9 003164   406000 401760                    pmme    nvectors=13

     1086     9555    2        DO NEVER;

   9555  9 003165   003171 710000 9                  TRA     s:9559

     1087     9556    2   OPN_ERR:
PL6.E3A0      #003=THC$REPORT File=THC$COMMANDS.:E05TSI                          WED 07/30/97 06:07 Page:174
     1088     9557    2           CALL THM$ERRMSG;

   9557  9 003166   000002 631400 xsym  OPN_ERR      EPPR1   B_VECTNIL+2
         9 003167   000000 701000 xent               TSX1    THM$ERRMSG
         9 003170   000000 011000                    NOP     0

     1089     9558    2        END;                               /* do never                           */

     1090     9559    2   DO NEVER;

   9559  9 003171   003175 710000 9                  TRA     NO_REPORT

     1091     9560    2   PMME_ERR: CALL THM$ERRMSG;

   9560  9 003172   000002 631400 xsym  PMME_ERR     EPPR1   B_VECTNIL+2
         9 003173   000000 701000 xent               TSX1    THM$ERRMSG
         9 003174   000000 011000                    NOP     0

     1092     9561    2   END;

     1093     9562    1   NO_REPORT:
     1094     9563    1        RETURN;

   9563  9 003175   000000 702200 xent  NO_REPORT    TSX2  ! X66_ARET

     1095     9564    1   FID_ERR:
     1096     9565    1        CALL THM$ERRMSG;

   9565  9 003176   000002 631400 xsym  FID_ERR      EPPR1   B_VECTNIL+2
         9 003177   000000 701000 xent               TSX1    THM$ERRMSG
         9 003200   000000 011000                    NOP     0

     1097     9566    1        RETURN;

   9566  9 003201   000000 702200 xent               TSX2  ! X66_ARET

     1098     9567        %EJECT;
PL6.E3A0      #003=THC$REPORT File=THC$COMMANDS.:E05TSI                          WED 07/30/97 06:07 Page:175
     1099     9568        /* INTERNAL PROC TO PROCESS ERRLOG FILE FOR DETAIL REPORT */
     1100     9569    1   THC$DETAIL: PROC;

   9569  9 003202   203006 741300       THC$DETAIL   STX1  ! EOF_FLAG+1,,AUTO

     1101     9570        /**/
     1102     9571    2      TH_EOF_FLG = %FALSE;

   9571  9 003203   000000 450000 xsym               STZ     TH_EOF_FLG

     1103     9572    2      TH_FIRST_TIME = %TRUE;

   9572  9 003204   400000 236003                    LDQ     -131072,DU
         9 003205   000000 756000 xsym               STQ     TH_FIRST_TIME

     1104     9573    2      TH_IOERR_FLG = %FALSE;

   9573  9 003206   000000 450000 xsym               STZ     TH_IOERR_FLG

     1105     9574    2      TH_FEPERR_FLG = %FALSE;

   9574  9 003207   000000 450000 xsym               STZ     TH_FEPERR_FLG

     1106     9575    2      TH_DETAIL_FLG = %TRUE;

   9575  9 003210   000000 756000 xsym               STQ     TH_DETAIL_FLG

     1107     9576    2      OLD_FEPERR_TIME = ' ';

   9576  9 003211   040000 100400                    MLR     fill='040'O
         9 003212   000035 000001 xsym               ADSC9   B_VECTNIL+29             cn=0,n=1
         9 003213   000422 000013 7                  ADSC9   OLD_FEPERR_TIME          cn=0,n=11

     1108     9577    2      NEW_FEPERR_TIME= ' ';

   9577  9 003214   040000 100400                    MLR     fill='040'O
         9 003215   000035 000001 xsym               ADSC9   B_VECTNIL+29             cn=0,n=1
PL6.E3A0      #003=THC$REPORT File=THC$COMMANDS.:E05TSI                          WED 07/30/97 06:07 Page:176
         9 003216   000430 000013 7                  ADSC9   NEW_FEPERR_TIME          cn=0,n=11

     1109     9578    2      OLD_IOERR_TIME = ' ';

   9578  9 003217   040000 100400                    MLR     fill='040'O
         9 003220   000035 000001 xsym               ADSC9   B_VECTNIL+29             cn=0,n=1
         9 003221   000425 000013 7                  ADSC9   OLD_IOERR_TIME           cn=0,n=11

     1110     9579    2      NEW_IOERR_TIME = ' ';

   9579  9 003222   040000 100400                    MLR     fill='040'O
         9 003223   000035 000001 xsym               ADSC9   B_VECTNIL+29             cn=0,n=1
         9 003224   000433 000013 7                  ADSC9   NEW_IOERR_TIME           cn=0,n=11

     1111     9580    2      NUM_IOERR_REC = 0;

   9580  9 003225   200371 450100                    STZ     NUM_IOERR_REC,,AUTO

     1112     9581    2      NUM_FEPERR = 0;

   9581  9 003226   200372 450100                    STZ     NUM_FEPERR,,AUTO

     1113     9582    2      MEMORY_ERRORS = %FALSE;

   9582  9 003227   200370 450100                    STZ     MEMORY_ERRORS,,AUTO

     1114     9583    2   CALL XUD$UTS_DIFF_SEC (START_TIME, TH_CONSTRAINTS.START, 0);

   9583  9 003230   000125 236000 10                 LDQ     85
         9 003231   203012 756100                    STQ     EOF_FLAG+5,,AUTO
         9 003232   000015 236000 10                 LDQ     13
         9 003233   203011 756100                    STQ     EOF_FLAG+4,,AUTO
         9 003234   200004 630500                    EPPR0   START_TIME,,AUTO
         9 003235   203010 450500                    STP0    EOF_FLAG+3,,AUTO
         9 003236   203010 630500                    EPPR0   EOF_FLAG+3,,AUTO
         9 003237   000021 631400 xsym               EPPR1   B_VECTNIL+17
         9 003240   000000 701000 xent               TSX1    XUD$UTS_DIFF_SEC
PL6.E3A0      #003=THC$REPORT File=THC$COMMANDS.:E05TSI                          WED 07/30/97 06:07 Page:177
         9 003241   000000 011000                    NOP     0

     1115     9584    2   START_TIME = START_TIME / 86400;

   9584  9 003242   200004 236100                    LDQ     START_TIME,,AUTO
         9 003243   000001 772000                    QRL     1
         9 003244   124300 506007                    DIV     43200,DL
         9 003245   200004 756100                    STQ     START_TIME,,AUTO

     1116     9585    2   CALL XUD$UTS_ADJ_25TH (START_TIME, 0, START_TIME*%UTS_25TH_DAY#);

   9585  9 003246   000126 402000 10                 MPY     86
         9 003247   203010 756100                    STQ     EOF_FLAG+3,,AUTO
         9 003250   203010 630500                    EPPR0   EOF_FLAG+3,,AUTO
         9 003251   203013 450500                    STP0    EOF_FLAG+6,,AUTO
         9 003252   000125 236000 10                 LDQ     85
         9 003253   203012 756100                    STQ     EOF_FLAG+5,,AUTO
         9 003254   200004 631500                    EPPR1   START_TIME,,AUTO
         9 003255   203011 451500                    STP1    EOF_FLAG+4,,AUTO
         9 003256   203011 630500                    EPPR0   EOF_FLAG+4,,AUTO
         9 003257   000021 631400 xsym               EPPR1   B_VECTNIL+17
         9 003260   000000 701000 xent               TSX1    XUD$UTS_ADJ_25TH
         9 003261   000000 011000                    NOP     0

     1117     9586    2   CALL XUD$UTS_DIFF_SEC (STOP_TIME, TH_CONSTRAINTS.STOP, 0);

   9586  9 003262   000125 236000 10                 LDQ     85
         9 003263   203012 756100                    STQ     EOF_FLAG+5,,AUTO
         9 003264   000017 236000 10                 LDQ     15
         9 003265   203011 756100                    STQ     EOF_FLAG+4,,AUTO
         9 003266   200005 630500                    EPPR0   STOP_TIME,,AUTO
         9 003267   203010 450500                    STP0    EOF_FLAG+3,,AUTO
         9 003270   203010 630500                    EPPR0   EOF_FLAG+3,,AUTO
         9 003271   000021 631400 xsym               EPPR1   B_VECTNIL+17
         9 003272   000000 701000 xent               TSX1    XUD$UTS_DIFF_SEC
         9 003273   000000 011000                    NOP     0

PL6.E3A0      #003=THC$REPORT File=THC$COMMANDS.:E05TSI                          WED 07/30/97 06:07 Page:178
     1118     9587    2   STOP_TIME = STOP_TIME / 86400;

   9587  9 003274   200005 236100                    LDQ     STOP_TIME,,AUTO
         9 003275   000001 772000                    QRL     1
         9 003276   124300 506007                    DIV     43200,DL
         9 003277   200005 756100                    STQ     STOP_TIME,,AUTO

     1119     9588    2   CALL XUD$UTS_ADJ_25TH (STOP_TIME, 0, STOP_TIME*%UTS_25TH_DAY#);

   9588  9 003300   000126 402000 10                 MPY     86
         9 003301   203010 756100                    STQ     EOF_FLAG+3,,AUTO
         9 003302   203010 630500                    EPPR0   EOF_FLAG+3,,AUTO
         9 003303   203013 450500                    STP0    EOF_FLAG+6,,AUTO
         9 003304   000125 236000 10                 LDQ     85
         9 003305   203012 756100                    STQ     EOF_FLAG+5,,AUTO
         9 003306   200005 631500                    EPPR1   STOP_TIME,,AUTO
         9 003307   203011 451500                    STP1    EOF_FLAG+4,,AUTO
         9 003310   203011 630500                    EPPR0   EOF_FLAG+4,,AUTO
         9 003311   000021 631400 xsym               EPPR1   B_VECTNIL+17
         9 003312   000000 701000 xent               TSX1    XUD$UTS_ADJ_25TH
         9 003313   000000 011000                    NOP     0

     1120     9589    2   ERRLOG_DATE = START_TIME;

   9589  9 003314   200004 235100                    LDA     START_TIME,,AUTO
         9 003315   000436 755000 7                  STA     ERRLOG_DATE

     1121     9590    3   DO WHILE (ERRLOG_DATE <= STOP_TIME);

   9590  9 003316   200005 236100                    LDQ     STOP_TIME,,AUTO
         9 003317   000436 116000 7                  CMPQ    ERRLOG_DATE
         9 003320   003660 602000 9                  TNC     s:9677

     1122     9591    3             NUM_RECS = 0;

   9591  9 003321   200373 450100                    STZ     NUM_RECS,,AUTO

PL6.E3A0      #003=THC$REPORT File=THC$COMMANDS.:E05TSI                          WED 07/30/97 06:07 Page:179
     1123     9592    3     CALL THG$OPENXSA(ERRLOG_DATE) ALTRET(FILE_NO);

   9592  9 003322   000127 630400 10                 EPPR0   87
         9 003323   000017 631400 xsym               EPPR1   B_VECTNIL+15
         9 003324   000000 701000 xent               TSX1    THG$OPENXSA
         9 003325   003655 702000 9                  TSX2    FILE_NO

     1124     9593    3     CALL M$TIME(EXT_DATE);

   9593  9 003326   000670 630400 8                  EPPR0   EXT_DATE
         9 003327   020004 713400                    CLIMB   8196
         9 003330   402000 401760                    pmme    nvectors=5

     1125     9594    4     IF CODE = %ALL THEN DO;

   9594  9 003331   200360 235100                    LDA     CODE,,AUTO
         9 003332   000016 115007                    CMPA    14,DL
         9 003333   003342 601000 9                  TNZ     s:9599

     1126     9595    4        TH_NUM_REP_DEVS = 1;

   9595  9 003334   000001 236007                    LDQ     1,DL
         9 003335   000000 756000 xsym               STQ     TH_NUM_REP_DEVS

     1127     9596    4        TH_REP_DEVS(0) = ' ';

   9596  9 003336   000035 235000 xsym               LDA     B_VECTNIL+29
         9 003337   000035 236000 xsym               LDQ     B_VECTNIL+29
         9 003340   000000 755000 xsym               STA     TH_REP_DEVS
         9 003341   000001 756000 xsym               STQ     TH_REP_DEVS+1

     1128     9597    4     END;

     1129     9598
     1130     9599    4        DO I = 0 TO TH_NUM_REP_DEVS - 1;

   9599  9 003342   200363 450100                    STZ     I,,AUTO
PL6.E3A0      #003=THC$REPORT File=THC$COMMANDS.:E05TSI                          WED 07/30/97 06:07 Page:180
         9 003343   003646 710000 9                  TRA     s:9674+3

     1131     9600    4          TH_CONSTRAINTS.DEVNM = TH_REP_DEVS(I);

   9600  9 003344   200363 235100                    LDA     I,,AUTO
         9 003345   000003 735000                    ALS     3
         9 003346   040000 100405                    MLR     fill='040'O
         9 003347   000000 000010 xsym               ADSC9   TH_REP_DEVS,A            cn=0,n=8
         9 003350   000010 000010 xsym               ADSC9   TH_CONSTRAINTS+8         cn=0,n=8

     1132     9601    4          IF TH_CONSTRAINTS.DEVNM ~= ' '

   9601  9 003351   000010 237000 xsym               LDAQ    TH_CONSTRAINTS+8
         9 003352   000130 117000 10                 CMPAQ   88
         9 003353   003357 600000 9                  TZE     s:9603

     1133     9602    4          THEN TH_CHECK_DEVNM = '1'B;

   9602  9 003354   400000 236003                    LDQ     -131072,DU
         9 003355   000000 756000 xsym               STQ     TH_CHECK_DEVNM
         9 003356   003360 710000 9                  TRA     s:9604

     1134     9603    4          ELSE TH_CHECK_DEVNM = '0'B;

   9603  9 003357   000000 450000 xsym               STZ     TH_CHECK_DEVNM

     1135     9604    4          EOF_FLAG = %FALSE;

   9604  9 003360   203005 450100                    STZ     EOF_FLAG,,AUTO

     1136     9605    4          CALL THG$PRECORDXSA(TH_CONSTRAINTS.START);

   9605  9 003361   000015 630400 10                 EPPR0   13
         9 003362   000017 631400 xsym               EPPR1   B_VECTNIL+15
         9 003363   000000 701000 xent               TSX1    THG$PRECORDXSA
         9 003364   000000 011000                    NOP     0

PL6.E3A0      #003=THC$REPORT File=THC$COMMANDS.:E05TSI                          WED 07/30/97 06:07 Page:181
     1137     9606    4          CALL M$OPEN(OPEN_ERRLOG2);

   9606  9 003365   000452 630400 7                  EPPR0   OPEN_ERRLOG2
         9 003366   050000 713400                    CLIMB   open
         9 003367   410400 401760                    pmme    nvectors=18

     1138     9607    4          CALL M$OPEN(OPEN_ERRLOG4);

   9607  9 003370   001162 630400 7                  EPPR0   OPEN_ERRLOG4
         9 003371   050000 713400                    CLIMB   open
         9 003372   410400 401760                    pmme    nvectors=18

     1139     9608    5        DO WHILE(NOT EOF_FLAG);

   9608  9 003373   003641 710000 9                  TRA     s:9673

     1140     9609    5          CALL THG$GETREC(%ERRLOG) ALTRET(LBL_EOF);
              9609                   /* get one record from errlog file */

   9609  9 003374   000132 630400 10                 EPPR0   90
         9 003375   000017 631400 xsym               EPPR1   B_VECTNIL+15
         9 003376   000000 701000 xent               TSX1    THG$GETREC
         9 003377   003637 702000 9                  TSX2    LBL_EOF

     1141     9610    5          CALL M$TIME(RECORD_DATE);/* get time of error occurrence */

   9610  9 003400   000654 630400 8                  EPPR0   RECORD_DATE
         9 003401   020004 713400                    CLIMB   8196
         9 003402   402000 401760                    pmme    nvectors=5

     1142     9611    5            INFO$ = ADDR(RECORD.INFO);  /* assign EL$IOERR frame to input buffer */

   9611  9 003403   000001 236000 xsym               LDQ     TH_RECORD+1
         9 003404   000005 036003                    ADLQ    5,DU
         9 003405   203002 756100                    STQ     INFO$,,AUTO

     1143     9612    5            WRITE_ERRLOG4.BUF_.BOUND = TH_RECORD.BOUND;
PL6.E3A0      #003=THC$REPORT File=THC$COMMANDS.:E05TSI                          WED 07/30/97 06:07 Page:182

   9612  9 003406   000000 236000 xsym               LDQ     TH_RECORD
         9 003407   001316 676000 7                  ERQ     WRITE_ERRLOG4+4
         9 003410   000034 376000 xsym               ANQ     B_VECTNIL+28
         9 003411   001316 656000 7                  ERSQ    WRITE_ERRLOG4+4

     1144     9613    5            WRITE_ERRLOG4.BUF_.BUF$ = INFO$;

   9613  9 003412   203002 236100                    LDQ     INFO$,,AUTO
         9 003413   001317 756000 7                  STQ     WRITE_ERRLOG4+5

     1145     9614    5            WRITE_ERRLOG2.BUF_.BOUND = TH_RECORD.BOUND; /* assign vectors  bound */

   9614  9 003414   000000 236000 xsym               LDQ     TH_RECORD
         9 003415   000606 676000 7                  ERQ     WRITE_ERRLOG2+4
         9 003416   000034 376000 xsym               ANQ     B_VECTNIL+28
         9 003417   000606 656000 7                  ERSQ    WRITE_ERRLOG2+4

     1146     9615    5            WRITE_ERRLOG2.BUF_.BUF$ = INFO$; /* assign vector's pointer */

   9615  9 003420   203002 236100                    LDQ     INFO$,,AUTO
         9 003421   000607 756000 7                  STQ     WRITE_ERRLOG2+5

     1147     9616    5              IF TH_FIRST_TIME AND (TH_ITYPE = %TH_IOERR OR TH_ITYPE = %TH_FEPERR)
              9616                       /*if first rec is ioerr or feperr */

   9616  9 003422   000000 234000 xsym               SZN     TH_FIRST_TIME
         9 003423   003465 605000 9                  TPL     s:9632
         9 003424   000000 235000 xsym               LDA     TH_ITYPE
         9 003425   000022 115007                    CMPA    18,DL
         9 003426   003431 600000 9                  TZE     s:9618
         9 003427   000024 115007                    CMPA    20,DL
         9 003430   003465 601000 9                  TNZ     s:9632

     1148     9617    6              THEN DO;

     1149     9618    7                DO CASE(TH_ITYPE);
PL6.E3A0      #003=THC$REPORT File=THC$COMMANDS.:E05TSI                          WED 07/30/97 06:07 Page:183

   9618  9 003431   000022 135007                    SBLA    18,DL
         9 003432   000003 115007                    CMPA    3,DL
         9 003433   003435 602005 9                  TNC     s:9618+4,AL
         9 003434   003463 710000 9                  TRA     s:9630
         9 003435   003440 710000 9                  TRA     s:9620
         9 003436   003463 710000 9                  TRA     s:9630
         9 003437   003452 710000 9                  TRA     s:9625

     1150     9619    7                   CASE(%TH_IOERR);/* if ioerr record was fetched */

     1151     9620    7                       NUM_IOERR_REC = NUM_IOERR_REC + 1;/*increment counter*/

   9620  9 003440   200371 054100                    AOS     NUM_IOERR_REC,,AUTO

     1152     9621    7                       CALL M$WRITE(WRITE_ERRLOG2);/* write record to file*/

   9621  9 003441   000602 630400 7                  EPPR0   WRITE_ERRLOG2
         9 003442   040001 713400                    CLIMB   write
         9 003443   401400 401760                    pmme    nvectors=4

     1153     9622    7                       OLD_IOERR_DATE = ERRLOG_DATE;

   9622  9 003444   000436 235000 7                  LDA     ERRLOG_DATE
         9 003445   000417 755000 7                  STA     OLD_IOERR_DATE

     1154     9623    7                       OLD_IOERR_TIME = TH_TIME;

   9623  9 003446   040000 100400                    MLR     fill='040'O
         9 003447   000000 000013 xsym               ADSC9   TH_TIME                  cn=0,n=11
         9 003450   000425 000013 7                  ADSC9   OLD_IOERR_TIME           cn=0,n=11
         9 003451   003463 710000 9                  TRA     s:9630

     1155     9624    7                   CASE(%TH_FEPERR);/* if feperr record was fetched*/

     1156     9625    7                       NUM_FEPERR = NUM_FEPERR + 1;/*increment counter*/

PL6.E3A0      #003=THC$REPORT File=THC$COMMANDS.:E05TSI                          WED 07/30/97 06:07 Page:184
   9625  9 003452   200372 054100                    AOS     NUM_FEPERR,,AUTO

     1157     9626    7                       CALL M$WRITE(WRITE_ERRLOG4);/* write to file*/

   9626  9 003453   001312 630400 7                  EPPR0   WRITE_ERRLOG4
         9 003454   040001 713400                    CLIMB   write
         9 003455   401400 401760                    pmme    nvectors=4

     1158     9627    7                       OLD_FEPERR_DATE = ERRLOG_DATE;

   9627  9 003456   000436 235000 7                  LDA     ERRLOG_DATE
         9 003457   000416 755000 7                  STA     OLD_FEPERR_DATE

     1159     9628    7                       OLD_FEPERR_TIME = TH_TIME;

   9628  9 003460   040000 100400                    MLR     fill='040'O
         9 003461   000000 000013 xsym               ADSC9   TH_TIME                  cn=0,n=11
         9 003462   000422 000013 7                  ADSC9   OLD_FEPERR_TIME          cn=0,n=11

     1160     9629    7                END; /* do case */

     1161     9630    6                       TH_FIRST_TIME = %FALSE;

   9630  9 003463   000000 450000 xsym               STZ     TH_FIRST_TIME

     1162     9631    6              END;   /* if th_first_time & th_itype = th_ioerr or th_feperr */

   9631  9 003464   003636 710000 9                  TRA     s:9670

     1163     9632    6              ELSE IF TH_ITYPE = %TH_IOERR OR TH_ITYPE = %TH_FEPERR THEN DO;
              9632                       /*if it's ioerr record read */

   9632  9 003465   000000 235000 xsym               LDA     TH_ITYPE
         9 003466   000022 115007                    CMPA    18,DL
         9 003467   003472 600000 9                  TZE     s:9633
         9 003470   000024 115007                    CMPA    20,DL
         9 003471   003547 601000 9                  TNZ     s:9655
PL6.E3A0      #003=THC$REPORT File=THC$COMMANDS.:E05TSI                          WED 07/30/97 06:07 Page:185

     1164     9633    7                DO CASE(TH_ITYPE);

   9633  9 003472   000022 135007                    SBLA    18,DL
         9 003473   000003 115007                    CMPA    3,DL
         9 003474   003476 602005 9                  TNC     s:9633+4,AL
         9 003475   003636 710000 9                  TRA     s:9670
         9 003476   003501 710000 9                  TRA     s:9635
         9 003477   003546 710000 9                  TRA     s:9653
         9 003500   003524 710000 9                  TRA     s:9644

     1165     9634    7                   CASE(%TH_IOERR);

     1166     9635    7                       NUM_IOERR_REC = NUM_IOERR_REC + 1;

   9635  9 003501   200371 054100                    AOS     NUM_IOERR_REC,,AUTO

     1167     9636    7                       CALL M$WRITE(WRITE_ERRLOG2);

   9636  9 003502   000602 630400 7                  EPPR0   WRITE_ERRLOG2
         9 003503   040001 713400                    CLIMB   write
         9 003504   401400 401760                    pmme    nvectors=4

     1168     9637    8                         IF OLD_IOERR_TIME = ' ' THEN DO;

   9637  9 003505   040000 106400                    CMPC    fill='040'O
         9 003506   000425 000013 7                  ADSC9   OLD_IOERR_TIME           cn=0,n=11
         9 003507   000035 000001 xsym               ADSC9   B_VECTNIL+29             cn=0,n=1
         9 003510   003516 601000 9                  TNZ     s:9641

     1169     9638    8                           OLD_IOERR_TIME = TH_TIME;

   9638  9 003511   040000 100400                    MLR     fill='040'O
         9 003512   000000 000013 xsym               ADSC9   TH_TIME                  cn=0,n=11
         9 003513   000425 000013 7                  ADSC9   OLD_IOERR_TIME           cn=0,n=11

     1170     9639    8                           OLD_IOERR_DATE = ERRLOG_DATE;
PL6.E3A0      #003=THC$REPORT File=THC$COMMANDS.:E05TSI                          WED 07/30/97 06:07 Page:186

   9639  9 003514   000436 235000 7                  LDA     ERRLOG_DATE
         9 003515   000417 755000 7                  STA     OLD_IOERR_DATE

     1171     9640    8                         END;  /* if old_ioerr_time = ' '*/

     1172     9641    7                       NEW_IOERR_DATE = ERRLOG_DATE;

   9641  9 003516   000436 235000 7                  LDA     ERRLOG_DATE
         9 003517   000421 755000 7                  STA     NEW_IOERR_DATE

     1173     9642    7                       NEW_IOERR_TIME = TH_TIME;

   9642  9 003520   040000 100400                    MLR     fill='040'O
         9 003521   000000 000013 xsym               ADSC9   TH_TIME                  cn=0,n=11
         9 003522   000433 000013 7                  ADSC9   NEW_IOERR_TIME           cn=0,n=11
         9 003523   003636 710000 9                  TRA     s:9670

     1174     9643    7                   CASE(%TH_FEPERR);

     1175     9644    7                       NUM_FEPERR = NUM_FEPERR + 1;

   9644  9 003524   200372 054100                    AOS     NUM_FEPERR,,AUTO

     1176     9645    7                       CALL M$WRITE(WRITE_ERRLOG4);

   9645  9 003525   001312 630400 7                  EPPR0   WRITE_ERRLOG4
         9 003526   040001 713400                    CLIMB   write
         9 003527   401400 401760                    pmme    nvectors=4

     1177     9646    8                         IF OLD_FEPERR_TIME = ' ' THEN DO;

   9646  9 003530   040000 106400                    CMPC    fill='040'O
         9 003531   000422 000013 7                  ADSC9   OLD_FEPERR_TIME          cn=0,n=11
         9 003532   000035 000001 xsym               ADSC9   B_VECTNIL+29             cn=0,n=1
         9 003533   003541 601000 9                  TNZ     s:9650

PL6.E3A0      #003=THC$REPORT File=THC$COMMANDS.:E05TSI                          WED 07/30/97 06:07 Page:187
     1178     9647    8                           OLD_FEPERR_TIME = TH_TIME;

   9647  9 003534   040000 100400                    MLR     fill='040'O
         9 003535   000000 000013 xsym               ADSC9   TH_TIME                  cn=0,n=11
         9 003536   000422 000013 7                  ADSC9   OLD_FEPERR_TIME          cn=0,n=11

     1179     9648    8                           OLD_FEPERR_DATE = ERRLOG_DATE;

   9648  9 003537   000436 235000 7                  LDA     ERRLOG_DATE
         9 003540   000416 755000 7                  STA     OLD_FEPERR_DATE

     1180     9649    8                         END;  /* if old_feperr_time = ' '*/

     1181     9650    7                       NEW_FEPERR_DATE = ERRLOG_DATE;

   9650  9 003541   000436 235000 7                  LDA     ERRLOG_DATE
         9 003542   000420 755000 7                  STA     NEW_FEPERR_DATE

     1182     9651    7                       NEW_FEPERR_TIME = TH_TIME;

   9651  9 003543   040000 100400                    MLR     fill='040'O
         9 003544   000000 000013 xsym               ADSC9   TH_TIME                  cn=0,n=11
         9 003545   000430 000013 7                  ADSC9   NEW_FEPERR_TIME          cn=0,n=11

     1183     9652    7                END; /* do case*/

     1184     9653    6              END;/* if th_itype = th_ioerr or th_feperr */

   9653  9 003546   003636 710000 9                  TRA     s:9670

     1185     9654    6              ELSE DO;/* if ioerr/feperr records were not fetched */

     1186     9655    6                    IF (NUM_RECS = 0) AND (TH_ITYPE ~= %TH_EDAC) THEN

   9655  9 003547   200373 235100                    LDA     NUM_RECS,,AUTO
         9 003550   003560 601000 9                  TNZ     s:9657
         9 003551   000000 235000 xsym               LDA     TH_ITYPE
PL6.E3A0      #003=THC$REPORT File=THC$COMMANDS.:E05TSI                          WED 07/30/97 06:07 Page:188
         9 003552   000023 115007                    CMPA    19,DL
         9 003553   003560 600000 9                  TZE     s:9657

     1187     9656    6                     CALL THW$WRITE(DATE_FMT,VECTOR(DAY_BUF),VECTOR(DATE_BUF));

   9656  9 003554   000140 630400 10                 EPPR0   96
         9 003555   000021 631400 xsym               EPPR1   B_VECTNIL+17
         9 003556   000000 701000 xent               TSX1    THW$WRITE
         9 003557   000000 011000                    NOP     0

     1188     9657    6                    NUM_RECS = NUM_RECS + 1;

   9657  9 003560   200373 054100                    AOS     NUM_RECS,,AUTO

     1189     9658    7                    IF TH_CONSTRAINTS.OCTAL THEN DO;/* if octal flag's set*/

   9658  9 003561   000066 236000 xsym               LDQ     TH_CONSTRAINTS+54
         9 003562   002000 316007                    CANQ    1024,DL
         9 003563   003624 600000 9                  TZE     s:9665

     1190     9659    7                       LOC_UTS = RECORD.UTS;

   9659  9 003564   000001 470400 xsym               LDP0    TH_RECORD+1
         9 003565   000000 235100                    LDA     0,,PR0
         9 003566   000001 236100                    LDQ     1,,PR0
         9 003567   000011 773000                    LRL     9
         9 003570   000411 756000 7                  STQ     LOC_UTS

     1191     9660    7                       CALL M$TIME(LOC_DATE);

   9660  9 003571   000704 630400 8                  EPPR0   LOC_DATE
         9 003572   020004 713400                    CLIMB   8196
         9 003573   402000 401760                    pmme    nvectors=5

     1192     9661    7                       TYPE = RECORD.TYPE;

   9661  9 003574   000001 470400 xsym               LDP0    TH_RECORD+1
PL6.E3A0      #003=THC$REPORT File=THC$COMMANDS.:E05TSI                          WED 07/30/97 06:07 Page:189
         9 003575   000000 236100                    LDQ     0,,PR0
         9 003576   000033 772000                    QRL     27
         9 003577   200354 756100                    STQ     TYPE,,AUTO

     1193     9662    7                      CALL THW$WRITE(DUMP_FMT,VECTOR(TYPE),VECTOR(DBUF),VECTOR(TBUF));

   9662  9 003600   777640 235007                    LDA     -96,DL
         9 003601   203010 452500                    STP2    EOF_FLAG+3,,AUTO
         9 003602   203010 236100                    LDQ     EOF_FLAG+3,,AUTO
         9 003603   000354 036003                    ADLQ    236,DU
         9 003604   203012 757100                    STAQ    EOF_FLAG+5,,AUTO
         9 003605   000150 237000 10                 LDAQ    104
         9 003606   203016 757100                    STAQ    EOF_FLAG+9,,AUTO
         9 003607   203012 631500                    EPPR1   EOF_FLAG+5,,AUTO
         9 003610   203015 451500                    STP1    EOF_FLAG+8,,AUTO
         9 003611   000152 236000 10                 LDQ     106
         9 003612   203014 756100                    STQ     EOF_FLAG+7,,AUTO
         9 003613   203014 630500                    EPPR0   EOF_FLAG+7,,AUTO
         9 003614   000022 631400 xsym               EPPR1   B_VECTNIL+18
         9 003615   000000 701000 xent               TSX1    THW$WRITE
         9 003616   000000 011000                    NOP     0

     1194     9663    7                       CALL THF$DUMP(TH_RECORD.PTR$);

   9663  9 003617   000153 630400 10                 EPPR0   107
         9 003620   000017 631400 xsym               EPPR1   B_VECTNIL+15
         9 003621   000000 701000 xent               TSX1    THF$DUMP
         9 003622   000000 011000                    NOP     0

     1195     9664    7                    END;

   9664  9 003623   003636 710000 9                  TRA     s:9670

     1196     9665    6                   ELSE IF TH_ITYPE = %TH_EDAC THEN/*if MEM error record was fetched*/

   9665  9 003624   000000 235000 xsym               LDA     TH_ITYPE
         9 003625   000023 115007                    CMPA    19,DL
PL6.E3A0      #003=THC$REPORT File=THC$COMMANDS.:E05TSI                          WED 07/30/97 06:07 Page:190
         9 003626   003632 601000 9                  TNZ     s:9668

     1197     9666    6                         MEMORY_ERRORS = %TRUE;/*set memory error flag*/

   9666  9 003627   400000 236003                    LDQ     -131072,DU
         9 003630   200370 756100                    STQ     MEMORY_ERRORS,,AUTO
         9 003631   003636 710000 9                  TRA     s:9670

     1198     9667    6                    ELSE
     1199     9668    6                       CALL THF$RAW(TH_DETAIL_FMT);/* process record */

   9668  9 003632   000103 630400 10                 EPPR0   67
         9 003633   000017 631400 xsym               EPPR1   B_VECTNIL+15
         9 003634   000000 701000 xent               TSX1    THF$RAW
         9 003635   000000 011000                    NOP     0

     1200     9669    6              END;/* else do */

     1201     9670    6          DO NEVER;

   9670  9 003636   003641 710000 9                  TRA     s:9673

     1202     9671    6   LBL_EOF:      EOF_FLAG = %TRUE;

   9671  9 003637   400000 236003       LBL_EOF      LDQ     -131072,DU
         9 003640   203005 756100                    STQ     EOF_FLAG,,AUTO

     1203     9672    6          END;   /* do never */

     1204     9673    5        END;     /* do while */

   9673  9 003641   203005 234100                    SZN     EOF_FLAG,,AUTO
         9 003642   003374 605000 9                  TPL     s:9609

     1205     9674    4        END;     /* do i = 0 to th_num_rep_devs */

   9674  9 003643   200363 235100                    LDA     I,,AUTO
PL6.E3A0      #003=THC$REPORT File=THC$COMMANDS.:E05TSI                          WED 07/30/97 06:07 Page:191
         9 003644   000001 035007                    ADLA    1,DL
         9 003645   200363 755100                    STA     I,,AUTO
         9 003646   200363 236100                    LDQ     I,,AUTO
         9 003647   000000 116000 xsym               CMPQ    TH_NUM_REP_DEVS
         9 003650   003344 602000 9                  TNC     s:9600

     1206     9675    3             CALL XUD$UTS_ADJ_25TH(ERRLOG_DATE, ERRLOG_DATE, %UTS_25TH_DAY#);

   9675  9 003651   000156 630400 10                 EPPR0   110
         9 003652   000021 631400 xsym               EPPR1   B_VECTNIL+17
         9 003653   000000 701000 xent               TSX1    XUD$UTS_ADJ_25TH
         9 003654   000000 011000                    NOP     0

     1207     9676    3   FILE_NO: END; /* DO WHILE (ERRLOG_DATE <= STOP) */

   9676  9 003655   200005 236100       FILE_NO      LDQ     STOP_TIME,,AUTO
         9 003656   000436 116000 7                  CMPQ    ERRLOG_DATE
         9 003657   003321 603000 9                  TRC     s:9591

     1208     9677    2        CALL M$CLOSE(CLOSE_ERRLOG2);/* close dcbs*/

   9677  9 003660   000544 630400 7                  EPPR0   CLOSE_ERRLOG2
         9 003661   050001 713400                    CLIMB   close
         9 003662   406000 401760                    pmme    nvectors=13

     1209     9678    2        CALL M$CLOSE(CLOSE_ERRLOG4);

   9678  9 003663   001254 630400 7                  EPPR0   CLOSE_ERRLOG4
         9 003664   050001 713400                    CLIMB   close
         9 003665   406000 401760                    pmme    nvectors=13

     1210     9679    2        OPEN_ERRLOG2.V.FUN# = %UPDATE#;/*set create fpt to update*/

   9679  9 003666   001000 236007                    LDQ     512,DL
         9 003667   000517 552010 7                  STBQ    OPEN_ERRLOG2+37,'10'O

     1211     9680    2        OPEN_ERRLOG4.V.FUN# = %UPDATE#;/* set create fpt to update */
PL6.E3A0      #003=THC$REPORT File=THC$COMMANDS.:E05TSI                          WED 07/30/97 06:07 Page:192

   9680  9 003670   001227 552010 7                  STBQ    OPEN_ERRLOG4+37,'10'O

     1212     9681    3          IF NUM_IOERR_REC > 0 THEN DO; /*if ioerr records are read from errlog file*/

   9681  9 003671   200371 235100                    LDA     NUM_IOERR_REC,,AUTO
         9 003672   003705 604400 9                  TMOZ    s:9687

     1213     9682    3            SORT_ERRLOG2.NREC# = NUM_IOERR_REC;/* sort fpt gets no. of records */

   9682  9 003673   001011 755000 7                  STA     SORT_ERRLOG2+13

     1214     9683    3            CALL M$CMDVAR(SILENCE_SORT) ALTRET(SORT_ERR);

   9683  9 003674   001014 630400 8                  EPPR0   SILENCE_SORT
         9 003675   420025 713400                    CLIMB   alt,+8213
         9 003676   402400 401760                    pmme    nvectors=6
         9 003677   003770 702000 9                  TSX2    SORT_ERR

     1215     9684    3            CALL X$SORT(SORT_ERRLOG2) ALTRET(SORT_ERR); /*call sort */

   9684  9 003700   000201 630400 10                 EPPR0   129
         9 003701   000017 631400 xsym               EPPR1   B_VECTNIL+15
         9 003702   000000 701000 xent               TSX1    X$SORT
         9 003703   003770 702000 9                  TSX2    SORT_ERR

     1216     9685    3          END;

   9685  9 003704   003730 710000 9                  TRA     CHK_FEP

     1217     9686    3          ELSE DO;/* if no ioerr records were read */

     1218     9687    3            CLOSE_ERRLOG2.V.DISP# = %RELEASE#; /* otherwise release file */

   9687  9 003705   000001 236007                    LDQ     1,DL
         9 003706   000576 552004 7                  STBQ    CLOSE_ERRLOG2+26,'04'O

PL6.E3A0      #003=THC$REPORT File=THC$COMMANDS.:E05TSI                          WED 07/30/97 06:07 Page:193
     1219     9688    3            CALL M$OPEN(OPEN_ERRLOG2)   /* open file*/

   9688  9 003707   000452 630400 7                  EPPR0   OPEN_ERRLOG2
         9 003710   450000 713400                    CLIMB   alt,open
         9 003711   410400 401760                    pmme    nvectors=18
         9 003712   003714 702000 9                  TSX2    s:9690
         9 003713   003725 710000 9                  TRA     s:9695

     1220     9689    4                WHENALTRETURN DO;

     1221     9690    4                   IF B$TCB$->B$TCB.ALT$->B$ALT.ERR.CODE = %E$NOFILE

   9690  9 003714   000000 470400 xsym               LDP0    B$TCB$
         9 003715   000000 471500                    LDP1    0,,PR0
         9 003716   100102 236100                    LDQ     66,,PR1
         9 003717   377770 376007                    ANQ     131064,DL
         9 003720   001610 116007                    CMPQ    904,DL
         9 003721   003724 600000 9                  TZE     s:9693

     1222     9691    4                   THEN;
     1223     9692    4                   ELSE    CALL M$MERC;

   9692  9 003722   010007 713400                    CLIMB   4103
         9 003723   000000 401760                    pmme    nvectors=0

     1224     9693    4                    GOTO CHK_FEP;

   9693  9 003724   003730 710000 9                  TRA     CHK_FEP

     1225     9694    4                END;  /* whenaltreturn do */
     1226     9695    3            CALL M$CLOSE(CLOSE_ERRLOG2);/* and close file to release it*/

   9695  9 003725   000544 630400 7                  EPPR0   CLOSE_ERRLOG2
         9 003726   050001 713400                    CLIMB   close
         9 003727   406000 401760                    pmme    nvectors=13

     1227     9696    3          END;
PL6.E3A0      #003=THC$REPORT File=THC$COMMANDS.:E05TSI                          WED 07/30/97 06:07 Page:194

     1228     9697    3   CHK_FEP: IF NUM_FEPERR > 0 THEN DO; /* if feperr records were read */

   9697  9 003730   200372 235100       CHK_FEP      LDA     NUM_FEPERR,,AUTO
         9 003731   003744 604400 9                  TMOZ    s:9703

     1229     9698    3            SORT_ERRLOG4.NREC# = NUM_FEPERR;/*sort fpt gets no. of feperr records*/

   9698  9 003732   001513 755000 7                  STA     SORT_ERRLOG4+13

     1230     9699    3            CALL M$CMDVAR(SILENCE_SORT) ALTRET(SORT_ERR);

   9699  9 003733   001014 630400 8                  EPPR0   SILENCE_SORT
         9 003734   420025 713400                    CLIMB   alt,+8213
         9 003735   402400 401760                    pmme    nvectors=6
         9 003736   003770 702000 9                  TSX2    SORT_ERR

     1231     9700    3            CALL X$SORT(SORT_ERRLOG4) ALTRET(SORT_ERR);/* sort feperr recs*/

   9700  9 003737   000202 630400 10                 EPPR0   130
         9 003740   000017 631400 xsym               EPPR1   B_VECTNIL+15
         9 003741   000000 701000 xent               TSX1    X$SORT
         9 003742   003770 702000 9                  TSX2    SORT_ERR

     1232     9701    3          END;/* if num_feperr > 0 */

   9701  9 003743   003767 710000 9                  TRA     s:9713

     1233     9702    3          ELSE DO;/* if no feperr records were read*/

     1234     9703    3            CLOSE_ERRLOG4.V.DISP# = %RELEASE#;/* set fpt to release*/

   9703  9 003744   000001 236007                    LDQ     1,DL
         9 003745   001306 552004 7                  STBQ    CLOSE_ERRLOG4+26,'04'O

     1235     9704    3            CALL M$OPEN(OPEN_ERRLOG4)

PL6.E3A0      #003=THC$REPORT File=THC$COMMANDS.:E05TSI                          WED 07/30/97 06:07 Page:195
   9704  9 003746   001162 630400 7                  EPPR0   OPEN_ERRLOG4
         9 003747   450000 713400                    CLIMB   alt,open
         9 003750   410400 401760                    pmme    nvectors=18
         9 003751   003753 702000 9                  TSX2    s:9706
         9 003752   003764 710000 9                  TRA     s:9711

     1236     9705    4             WHENALTRETURN DO;

     1237     9706    4               IF B$TCB$->B$TCB.ALT$->B$ALT.ERR.CODE = %E$NOFILE

   9706  9 003753   000000 470400 xsym               LDP0    B$TCB$
         9 003754   000000 471500                    LDP1    0,,PR0
         9 003755   100102 236100                    LDQ     66,,PR1
         9 003756   377770 376007                    ANQ     131064,DL
         9 003757   001610 116007                    CMPQ    904,DL
         9 003760   003763 600000 9                  TZE     s:9709

     1238     9707    4               THEN;
     1239     9708    4               ELSE   CALL M$MERC;

   9708  9 003761   010007 713400                    CLIMB   4103
         9 003762   000000 401760                    pmme    nvectors=0

     1240     9709    4                 GOTO DONE;

   9709  9 003763   003773 710000 9                  TRA     DONE

     1241     9710    4             END;  /* whenaltreturn do */
     1242     9711    3            CALL M$CLOSE(CLOSE_ERRLOG4);/* close dcb to release file*/

   9711  9 003764   001254 630400 7                  EPPR0   CLOSE_ERRLOG4
         9 003765   050001 713400                    CLIMB   close
         9 003766   406000 401760                    pmme    nvectors=13

     1243     9712    3          END;  /* else do */

     1244     9713    3   DO NEVER;
PL6.E3A0      #003=THC$REPORT File=THC$COMMANDS.:E05TSI                          WED 07/30/97 06:07 Page:196

   9713  9 003767   003773 710000 9                  TRA     DONE

     1245     9714    3        SORT_ERR: CALL THM$ERRMSG;

   9714  9 003770   000002 631400 xsym  SORT_ERR     EPPR1   B_VECTNIL+2
         9 003771   000000 701000 xent               TSX1    THM$ERRMSG
         9 003772   000000 011000                    NOP     0

     1246     9715    3      END;

     1247     9716    2   DONE:CALL THG$CLOSEXSA;

   9716  9 003773   000002 631400 xsym  DONE         EPPR1   B_VECTNIL+2
         9 003774   000000 701000 xent               TSX1    THG$CLOSEXSA
         9 003775   000000 011000                    NOP     0

     1248     9717    2       TH_LASTTYPE = -1;

   9717  9 003776   000001 335007                    LCA     1,DL
         9 003777   000000 755000 xsym               STA     TH_LASTTYPE

     1249     9718    2       RETURN;

   9718  9 004000   203006 221300                    LDX1  ! EOF_FLAG+1,,AUTO
         9 004001   000001 702211                    TSX2  ! 1,X1
     1250     9719    2   END THC$DETAIL;
     1251     9720    1   END THC$REPORT;
     1252     9721        %EOD;

PL6.E3A0      #003=THC$REPORT File=THC$COMMANDS.:E05TSI                          WED 07/30/97 06:07 Page:197
--  Include file information  --

   XUD_UTS_M.:E05TOU  is referenced.
   B_ERRORS_C.:E05TOU  is referenced.
   ZL_MACRO_C.:TOOLE04  is referenced.
   EL_SUBS_C.:E05TOU  is referenced.
   TH_DATA_R.:E05TOU  cannot be made into a system file and is referenced.
   B_STRINGS_C.:E05TOU  is referenced.
   TH_SUBS_C.:E05TOU  is referenced.
   NI$TABLES.:E05TOU  is referenced.
   EL$TABLES.:E05TOU  is referenced.
   F$DCB.:E05TOU  cannot be made into a system file and is referenced.
   XU_MACRO_C.:E05TOU  is referenced.
   CP_6_SUBS.:E05TOU  is referenced.
   CP_6.:E05TOU  cannot be made into a system file and is referenced.
   B$JIT_C.:E05TOU  was found in the system file and is never referenced.
   CP_6_C.:E05TOU  was found in the system file and is referenced.
      No diagnostics issued in procedure THC$REPORT.
PL6.E3A0      #003=THC$REPORT File=THC$COMMANDS.:E05TSI                          WED 07/30/97 06:07 Page:198

 **** Variables and constants ****

  ****  Section 007  Data  THC$REPORT

  ****  Scalars and arrays  ****
OctLoc.c.b A Datatyp(siz) R M Lvl/name                 OctLoc.c.b A Datatyp(siz) R M Lvl/name

   415-0-0/w UBIN        r     1 BUF_INDX                 544-0-0/d STRC(1080)  r     1 CLOSE_ERRLOG2
   710-0-0/d STRC(1080)  r     1 CLOSE_ERRLOG3           1254-0-0/d STRC(1080)  r     1 CLOSE_ERRLOG4
  1420-0-0/d STRC(1080)  r     1 CLOSE_ERRLOG5            440-0-0/c CHAR(10)    r     1 DATE_BUF
   446-0-0/d BIT (72)    r     1 DATE_FMT                 437-0-0/c CHAR(3)     r     1 DAY_BUF
   404-0-0/c CHAR(8)     r     1 DBUF                     444-0-0/d BIT (72)    r     1 DEV_HDR
   412-0-0/d BIT (72)    r     1 DUMP_FMT                1542-0-0/c STRC(81)    r     1 ERRLOG2
  1545-0-0/c STRC(81)    r     1 ERRLOG3                 1550-0-0/c STRC(81)    r     1 ERRLOG4
  1553-0-0/c STRC(81)    r     1 ERRLOG5                  436-0-0/w UBIN        r     1 ERRLOG_DATE
  1132-0-0/d STRC(864)   r     1 FPT_FID                  764-0-0/d STRC(216)   r     1 GET_XSA_BUF
   772-0-0/w STRC(72)    r     1 INPUT_TABLE             1474-0-0/w STRC(72)    r     1 INPUT_TBL
   411-0-0/w UBIN        r     1 LOC_UTS                 1612-0-0/w STRC(999)   r     1 LO_HEADER
   420-0-0/w UBIN        r     1 NEW_FEPERR_DATE          430-0-0/c CHAR(11)    r     1 NEW_FEPERR_TIME
   421-0-0/w UBIN        r     1 NEW_IOERR_DATE           433-0-0/c CHAR(11)    r     1 NEW_IOERR_TIME
   416-0-0/w UBIN        r     1 OLD_FEPERR_DATE          422-0-0/c CHAR(11)    r     1 OLD_FEPERR_TIME
   417-0-0/w UBIN        r     1 OLD_IOERR_DATE           425-0-0/c CHAR(11)    r     1 OLD_IOERR_TIME
  1566-0-0/c STRC(72)    r     1 ONFILE_ACCT             1556-0-0/c STRC(288)   r     1 ONFILE_NAME
  1570-0-0/c STRC(72)    r     1 ONFILE_PASS             1600-0-0/d STRC(324)   r     1 ONFILE_RESULTS
  1574-0-0/d STRC(90)    r     1 ONFILE_SN                  0-0-0/b BIT         r     1 ONFILE_SPECIFIED
  1572-0-0/c STRC(72)    r     1 ONFILE_WSN               452-0-0/d STRC(2088)  r     1 OPEN_ERRLOG2
   616-0-0/d STRC(2088)  r     1 OPEN_ERRLOG3            1162-0-0/d STRC(2088)  r     1 OPEN_ERRLOG4
  1326-0-0/d STRC(2088)  r     1 OPEN_ERRLOG5               1-0-0/w UBIN        r     1 OUTPUT_DCB#
   746-0-0/d STRC(504)   r     1 READ_ERRLOG3            1456-0-0/d STRC(504)   r     1 READ_ERRLOG5
  1040-0-0/d STRC(2088)  r     1 SET_ONFILE               774-0-0/w STRC(1296)  r     1 SORT_ERRLOG2
  1476-0-0/w STRC(1296)  r     1 SORT_ERRLOG4             406-0-0/c CHAR(11)    r     1 TBUF
   343-0-0/c CHAR(132)   r     1 TEMP_BUF                   2-0-0/c CHAR(900)   r     1 TEXTBUF
   414-0-0/w UBIN        r     1 TEXT_LEN                 450-0-0/d BIT (72)    r     1 TIME_FMT
   602-0-0/d STRC(432)   r     1 WRITE_ERRLOG2           1312-0-0/d STRC(432)   r     1 WRITE_ERRLOG4

  ****  Section 008 RoData THC$REPORT

PL6.E3A0      #003=THC$REPORT File=THC$COMMANDS.:E05TSI                          WED 07/30/97 06:07 Page:199
  ****  Scalars and arrays  ****
OctLoc.c.b A Datatyp(siz) R M Lvl/name                 OctLoc.c.b A Datatyp(siz) R M Lvl/name

   176-0-0/c CHAR(58)    r     1 AMS_HDR                  756-0-0/d STRC(1080)  r     1 CLOSE_LO
   720-0-0/d STRC(1080)  r     1 CLOSE_ONFILE             215-0-0/c CHAR(54)    r     1 CONFIG_HDR
   620-0-0/c CHAR(31)    r     1 DATE_HDR                 464-0-0/c CHAR(85)    r     1 DETAIL_HDR
   154-0-0/c CHAR(47)    r     1 DEV_ENTRY                120-0-0/c CHAR(110)   r     1 DEV_FMT
     0-0-0/c CHAR(34)    r     1 DUMP_HDR                 546-0-0/c CHAR(22)    r     1 EXCLUDE_FMT
   670-0-0/d STRC(432)   r     1 EXT_DATE                 530-0-0/c CHAR(34)    r     1 FEPERR_HDR
    17-0-0/c CHAR(42)    r     1 FEPNOTIMP                554-0-0/d BIT (72)    r     1 HDR_TBL(0:17)
   261-0-0/c CHAR(77)    r     1 HWE_HDR                  512-0-0/c CHAR(53)    r     1 IOERR_HDR
    32-0-0/c CHAR(42)    r     1 IOMNOTIMP                704-0-0/d STRC(432)   r     1 LOC_DATE
   541-0-0/c CHAR(20)    r     1 MATCH_FMT                 45-0-0/c CHAR(42)    r     1 MPCNOTIMP
    11-0-0/c CHAR(24)    r     1 NOTIMP                   357-0-0/c CHAR(73)    r     1 RAW_HDR
   654-0-0/d STRC(432)   r     1 RECORD_DATE             1014-0-0/d STRC(504)   r     1 SILENCE_SORT
  1035-0-0/c STRC(63)    r     1 SORT_SUPPRESS            114-0-0/c CHAR(16)    r     1 SUM_ENTRY
    65-0-0/c CHAR(92)    r     1 SUM_FMT                  443-0-0/c CHAR(65)    r     1 SUM_HDR
   170-0-0/c CHAR(23)    r     1 SUM_TOT                  404-0-0/c CHAR(62)    r     1 SYS_HDR
   630-0-0/c CHAR(73)    r     1 TIME_HDR                  60-0-0/c CHAR(19)    r     1 TYPE_FMT
   424-0-0/c CHAR(58)    r     1 UPR_HDR                 1032-0-0/c STRC(90)    r     1 VLP_NAME

  ****  Auto variables  ****

  ****  Scalars and arrays  ****
OctLoc.c.b A Datatyp(siz) R M Lvl/name                 OctLoc.c.b A Datatyp(siz) R M Lvl/name

     3-0-0/w PTR         r     1 @TOP$                    353-0-0/w UBIN        r     1 BUF_COUNT
   360-0-0/w UBIN        r     1 CODE                     361-0-0/w UBIN        r     1 COMP_CODE
  2160-0-0/w SBIN        r     1 CONNECTS(0:200)         3003-0-0/w UBIN        r     1 COUNT
   514-0-0/c CHAR(8)     r     1 DEVNM(0:200)            1336-0-0/w SBIN        r     1 DEV_CNT(0:200)
  1647-0-0/w SBIN        r     1 DEV_MOUNT(0:200)
  3005-0-0/b BIT         r     1 EOF_FLAG                2471-0-0/w SBIN        r     1 ERRORS(0:200)
   367-0-0/b BIT         r     1 FOR_CLAUSE_FLG           363-0-0/w UBIN        r     1 I
  3002-0-0/w PTR         r     1 INFO$                    364-0-0/w UBIN        r     1 J
   365-0-0/w SBIN        r     1 K                        362-0-0/w UBIN        r     1 LEN
   370-0-0/b BIT         r     1 MEMORY_ERRORS            375-0-0/w SBIN        r     1 NUM_DEV
   372-0-0/w SBIN        r     1 NUM_FEPERR               371-0-0/w SBIN        r     1 NUM_IOERR_REC
PL6.E3A0      #003=THC$REPORT File=THC$COMMANDS.:E05TSI                          WED 07/30/97 06:07 Page:200
   373-0-0/w SBIN        r     1 NUM_RECS                 374-0-0/w SBIN        r     1 NUM_TYPES
   444-0-0/w UBIN        r     1 RECORD_TYPE             3004-0-0/w UBIN        r     1 REPORT_CODE
     4-0-0/w UBIN        r     1 START_TIME                 5-0-0/w UBIN        r     1 STOP_TIME
   355-0-0/w PTR         r     1 SYM$                      12-0-0/c CHAR(900)   r     1 TEMP_BUF2
   356-0-0/c CHAR(8)     r     1 TEXT                       6-0-0/w PTR         r     1 TEXT$
    *0-0-0/w PTR         r     1 TOP$                      10-0-0/d STRC(72)    r     1 TVEC
   354-0-0/w UBIN        r     1 TYPE                     445-0-0/w UBIN(9)     r     1 TYPEB
   376-0-0/w UBIN        r     1 TYPES(0:37)
   446-0-0/w UBIN        r     1 TYPE_CNT(0:37)

  ****  SYMREF variables  ****

  ****  Scalars and arrays  ****
OctLoc.c.b A Datatyp(siz) R M Lvl/name                 OctLoc.c.b A Datatyp(siz) R M Lvl/name

     0-0-0/w PTR         r     1 B$TCB$                     0-0-0/b BIT         r     1 TH_BRKMSG
     0-0-0/b BIT         r     1 TH_CHECK_DEVNM             0-0-0/d STRC(1971)  r     1 TH_CONSTRAINTS
     0-0-0/c CHAR(10)    r     1 TH_DATE                    0-0-0/c CHAR(3)     r     1 TH_DAY
     0-0-0/b BIT         r     1 TH_DETAIL_FLG
     0-0-0/w PTR         r     1 TH_DETAIL_FMT(0:0)
     0-0-0/b BIT         r     1 TH_EOF_FLG
     0-0-0/w PTR         r     1 TH_EXTENDED_FMT(0:0)
     0-0-0/b BIT         r     1 TH_FEPERR_FLG              0-0-0/b BIT         r     1 TH_FIRST_TIME
     0-0-0/b BIT         r     1 TH_IOERR_FLG               0-0-0/w UBIN        r     1 TH_ITYPE
     0-0-0/w SBIN        r     1 TH_LASTTYPE                0-0-0/w UBIN        r     1 TH_LASTUTS
     0-0-0/w STRC(1080)  r     1 TH_LAST_EXCLUDE            0-0-0/w STRC(1080)  r     1 TH_LAST_MATCH
     0-0-0/w UBIN        r     1 TH_LAST_REQID              0-0-0/w UBIN        r     1 TH_NUM_REP_DEVS
     0-0-0/c CHAR(100)   r     1 TH_OUTBUF                  0-0-0/b BIT         r     1 TH_RAW_FLG
     0-0-0/w PTR         r     1 TH_RAW_FMT(0:0)
     0-0-0/d STRC(72)    r     1 TH_RECORD
     0-0-0/w CHAR(8)     r     1 TH_REP_DEVS(0:511)
     0-0-0/d STRC(1971)  r     1 TH_SAVE                    0-0-0/w CHAR(6)     r     1 TH_SITE_ID
     0-0-0/w STRC(1080)  r     1 TH_SITE_NAME               0-0-0/c CHAR(11)    r     1 TH_TIME
     0-0-0/w STRC(72)    r     1 TH_XSA_BUF                 0-0-0/w BIT (72)    r     1 TH_XSA_BUF_VECTOR

  ****  BASED and DCB variables  ****

PL6.E3A0      #003=THC$REPORT File=THC$COMMANDS.:E05TSI                          WED 07/30/97 06:07 Page:201
  ****  Scalars and arrays  ****
OctLoc.c.b A Datatyp(siz) R M Lvl/name                 OctLoc.c.b A Datatyp(siz) R M Lvl/name

     0-0-0/w STRC(2448)  r     1 B$ALT                      0-0-0/w STRC(144)   r     1 B$TCB
     0-0-0/w STRC(1080)  r     1 EL$IOERR                   0-0-0/w STRC(252)   r     1 EL$MTDMT
     0-0-0/d ASTR(3528)  r     1 F$DCB                      0-0-0N  NULL        r     1 M$ERRLOG2
     0-0-0N  NULL        r     1 M$ERRLOG3                  0-0-0N  NULL        r     1 M$ERRLOG4
     0-0-0N  NULL        r     1 M$ERRLOG5                  0-0-0N  NULL        r     1 M$LO
     0-0-0N  NULL        r     1 M$ONFILE                   0-0-0/w STRC(144)   r     1 OUT$BLK
     0-0-0/w ASTR(153)   r     1 OUT$SYM                    0-0-0/w STRC(216)   r     1 RECORD


   Procedure THC$REPORT requires 2050 words for executable code.
   Procedure THC$REPORT requires 1580 words of local(AUTO) storage.
PL6.E3A0      #003=THC$REPORT File=THC$COMMANDS.:E05TSI                          WED 07/30/97 06:07 Page:202
          *** CROSS REFERENCE LISTING ***
**     DENOTES     IDENTIFIER DEFINITION
<<                 IDENTIFIER'S VALUE SET
>>                 IDENTIFIER'S VALUE USED
<>                 IDENTIFIER SET AND/OR USED
--                 IDENTIFIER REFERENCED
PL6.E3A0      #003=THC$REPORT File=THC$COMMANDS.:E05TSI                          WED 07/30/97 06:07 Page:203
          MINI XREF LISTING

AMS_HDR
      6941**DCL      6983--DCLINIT
B$ALT.CODE
      7104**DCL      7104--REDEF    7105--REDEF    7105--REDEF
B$ALT.ERR.CODE
      7106**DCL      9294>>IF       9326>>IF       9690>>IF       9706>>IF
B$ALT.ERR.ERR#
      7106**DCL      7106--REDEF
B$ALT.EVID
      7105**DCL      7105--REDEF    7105--REDEF
B$TCB.ALT$
      7100**DCL      9294>>IF       9326>>IF       9690>>IF       9706>>IF
B$TCB$
      7006**DCL      9294>>IF       9326>>IF       9690>>IF       9706>>IF
BUF_COUNT
      6776**DCL      9224<<ASSIGN   9227>>CALLBLT  9228<<ASSIGN   9228>>ASSIGN   9231>>CALLBLT  9232<<ASSIGN
      9232>>ASSIGN   9234<>CALL     9236>>ASSIGN   9401<<ASSIGN   9404>>CALLBLT  9405<<ASSIGN   9405>>ASSIGN
      9408>>CALLBLT  9409<<ASSIGN   9409>>ASSIGN   9411<>CALL     9413>>ASSIGN
BUF_INDX
      6792**DCL      9001<<ASSIGN   9008<<ASSIGN   9142>>IF       9143>>CALLBLT  9144<<ASSIGN   9144>>ASSIGN
      9146>>CALLBLT  9147<<ASSIGN   9147>>ASSIGN   9167<>CALL     9169>>ASSIGN
CHK_FEP IN PROCEDURE THC$DETAIL
      9697**LABEL    9693--GOTO
CLOSE_ERRLOG2
      7297**DCL      9677<>CALL     9695<>CALL
CLOSE_ERRLOG2.SN_
      7297**DCL      7297--REDEF
CLOSE_ERRLOG2.UTL_
      7298**DCL      7298--REDEF
CLOSE_ERRLOG2.V
      7302**DCL      7297--DCLINIT
CLOSE_ERRLOG2.V.DISP#
PL6.E3A0      #003=THC$REPORT File=THC$COMMANDS.:E05TSI                          WED 07/30/97 06:07 Page:204
      7306**DCL      9259<<ASSIGN   9687<<ASSIGN
CLOSE_ERRLOG2.V.EXPIRE#
      7312**DCL      7312--REDEF
CLOSE_ERRLOG2.V.TYPE#
      7310**DCL      7310--REDEF
CLOSE_ERRLOG2.V.XTNSIZE#
      7307**DCL      7307--REDEF    7309--REDEF
CLOSE_ERRLOG3
      7491**DCL      9264<>CALL     9331<>CALL
CLOSE_ERRLOG3.SN_
      7491**DCL      7491--REDEF
CLOSE_ERRLOG3.UTL_
      7492**DCL      7492--REDEF
CLOSE_ERRLOG3.V
      7496**DCL      7491--DCLINIT
CLOSE_ERRLOG3.V.DISP#
      7500**DCL      9263<<ASSIGN   9265<<ASSIGN   9270<<ASSIGN
CLOSE_ERRLOG3.V.EXPIRE#
      7506**DCL      7506--REDEF
CLOSE_ERRLOG3.V.TYPE#
      7504**DCL      7504--REDEF
CLOSE_ERRLOG3.V.XTNSIZE#
      7501**DCL      7501--REDEF    7503--REDEF
CLOSE_ERRLOG4
      8312**DCL      9678<>CALL     9711<>CALL
CLOSE_ERRLOG4.SN_
      8312**DCL      8312--REDEF
CLOSE_ERRLOG4.UTL_
      8313**DCL      8313--REDEF
CLOSE_ERRLOG4.V
      8317**DCL      8312--DCLINIT
CLOSE_ERRLOG4.V.DISP#
      8321**DCL      9260<<ASSIGN   9703<<ASSIGN
CLOSE_ERRLOG4.V.EXPIRE#
      8327**DCL      8327--REDEF
CLOSE_ERRLOG4.V.TYPE#
PL6.E3A0      #003=THC$REPORT File=THC$COMMANDS.:E05TSI                          WED 07/30/97 06:07 Page:205
      8325**DCL      8325--REDEF
CLOSE_ERRLOG4.V.XTNSIZE#
      8322**DCL      8322--REDEF    8324--REDEF
CLOSE_ERRLOG5
      8495**DCL      9269<>CALL     9299<>CALL
CLOSE_ERRLOG5.SN_
      8495**DCL      8495--REDEF
CLOSE_ERRLOG5.UTL_
      8496**DCL      8496--REDEF
CLOSE_ERRLOG5.V
      8500**DCL      8495--DCLINIT
CLOSE_ERRLOG5.V.DISP#
      8504**DCL      9268<<ASSIGN
CLOSE_ERRLOG5.V.EXPIRE#
      8510**DCL      8510--REDEF
CLOSE_ERRLOG5.V.TYPE#
      8508**DCL      8508--REDEF
CLOSE_ERRLOG5.V.XTNSIZE#
      8505**DCL      8505--REDEF    8507--REDEF
CLOSE_LO
      8109**DCL      8995<>CALL     9183<>CALL     9553<>CALL
CLOSE_LO.SN_
      8109**DCL      8109--REDEF
CLOSE_LO.UTL_
      8110**DCL      8110--REDEF
CLOSE_LO.V
      8114**DCL      8109--DCLINIT
CLOSE_LO.V.EXPIRE#
      8124**DCL      8124--REDEF
CLOSE_LO.V.TYPE#
      8122**DCL      8122--REDEF
CLOSE_LO.V.XTNSIZE#
      8119**DCL      8119--REDEF    8121--REDEF
CLOSE_ONFILE
      8064**DCL      8996<>CALL     9554<>CALL
CLOSE_ONFILE.SN_
PL6.E3A0      #003=THC$REPORT File=THC$COMMANDS.:E05TSI                          WED 07/30/97 06:07 Page:206
      8064**DCL      8064--REDEF
CLOSE_ONFILE.UTL_
      8065**DCL      8065--REDEF
CLOSE_ONFILE.V
      8069**DCL      8064--DCLINIT
CLOSE_ONFILE.V.EXPIRE#
      8079**DCL      8079--REDEF
CLOSE_ONFILE.V.TYPE#
      8077**DCL      8077--REDEF
CLOSE_ONFILE.V.XTNSIZE#
      8074**DCL      8074--REDEF    8076--REDEF
CODE
      6788**DCL      8998<<ASSIGN   9012<<ASSIGN   9014>>ASSIGN   9015>>DOCASE   9102<<ASSIGN   9105<<ASSIGN
      9110<<ASSIGN   9114<<ASSIGN   9118<<ASSIGN   9122<<ASSIGN   9126<<ASSIGN   9141<>CALL     9164<>CALL
      9193<>CALL     9350>>IF       9446>>IF       9594>>IF
COMP_CODE
      6789**DCL      8997<<ASSIGN   9014<<ASSIGN   9018<<ASSIGN   9022<<ASSIGN   9026<<ASSIGN   9030<<ASSIGN
      9034<<ASSIGN   9038<<ASSIGN   9048<<ASSIGN   9051<<ASSIGN   9054<<ASSIGN   9057<<ASSIGN   9060<<ASSIGN
      9063<<ASSIGN   9066<<ASSIGN   9069<<ASSIGN   9072<<ASSIGN   9075<<ASSIGN   9078<<ASSIGN   9082<<ASSIGN
      9085<<ASSIGN   9088<<ASSIGN   9096<<ASSIGN   9106<<ASSIGN   9109<<ASSIGN   9113<<ASSIGN   9117<<ASSIGN
      9121<<ASSIGN   9125<<ASSIGN   9198>>IF       9201>>IF       9204>>IF       9206<>CALL     9274<<ASSIGN
      9275<>CALL
CONFIG_HDR
      6943**DCL      6984--DCLINIT
CONNECTS
      6811**DCL      9433<<ASSIGN   9489<<ASSIGN   9489>>ASSIGN   9497<<ASSIGN   9527>>IF       9529--CALL
COUNT
      6918**DCL      9230<>CALL     9231>>CALLBLT  9231>>CALLBLT  9232>>ASSIGN   9407<>CALL     9408>>CALLBLT
      9408>>CALLBLT  9409>>ASSIGN   9515<>CALL     9516<>CALL     9518>>ASSIGN
DATE_BUF
      6923**DCL      7776--DCLINIT  7777--DCLINIT  9366--CALL     9656--CALL
DATE_FMT
      7002**DCL      9366<>CALL     9656<>CALL
DATE_HDR
      7001**DCL      7002--DCLINIT
DAY_BUF
PL6.E3A0      #003=THC$REPORT File=THC$COMMANDS.:E05TSI                          WED 07/30/97 06:07 Page:207
      6921**DCL      7779--DCLINIT  9366--CALL     9656--CALL
DBUF
      6781**DCL      7801--DCLINIT  7802--DCLINIT  9372--CALL     9662--CALL
DETAIL_HDR
      6971**DCL      6999--DCLINIT
DEVNM
      6808**DCL      9475>>IF       9481<<ASSIGN   9487>>IF       9495<<ASSIGN   9529--CALL
DEV_CNT
      6809**DCL      9432<<ASSIGN   9488<<ASSIGN   9488>>ASSIGN   9496<<ASSIGN   9527>>IF       9529--CALL
DEV_ENTRY
      6937**DCL      9529--CALL
DEV_FMT
      6934**DCL      6936--DCLINIT
DEV_HDR
      6936**DCL      9525<>CALL
DEV_MOUNT
      6810**DCL      9435<<ASSIGN   9476<<ASSIGN   9476>>ASSIGN   9482<<ASSIGN   9529--CALL
DONE IN PROCEDURE THC$DETAIL
      9716**LABEL    9709--GOTO
DUMP_FMT
      6785**DCL      9372<>CALL     9662<>CALL
DUMP_HDR
      6784**DCL      6785--DCLINIT
DVT.MPC
      7012**DCL      7013--REDEF
EL$FEPERR.STATDATA.TERMID.TERM
      6894**DCL      6903--REDEF
EL$IOERR.CONNECTS.DEVICE
      6822**DCL      9489>>ASSIGN   9497>>ASSIGN
EL$IOERR.COUNT
      6822**DCL      9488>>ASSIGN   9498>>ASSIGN
EL$IOERR.DEVNM
      6824**DCL      9487>>IF       9495>>ASSIGN
EL$IOERR.ERRCT
      6821**DCL      9490>>ASSIGN
EL$IOERR.SEEK
PL6.E3A0      #003=THC$REPORT File=THC$COMMANDS.:E05TSI                          WED 07/30/97 06:07 Page:208
      6823**DCL      6824--REDEF
EL$IOERR.STATUS
      6819**DCL      6820--REDEF
EL$MTDMT.DEVNAME
      6908**DCL      9475>>IF       9481>>ASSIGN
EOF
      9502**LABEL    9458--CALLALT
EOF_FLAG
      6922**DCL      9285<<ASSIGN   9290>>DOWHILE  9295<<ASSIGN   9300>>IF       9314<<ASSIGN   9322>>DOWHILE
      9327<<ASSIGN   9332>>IF       9361<<ASSIGN   9363>>DOWHILE  9387<<ASSIGN   9455<<ASSIGN   9457>>DOWHILE
      9502<<ASSIGN   9604<<ASSIGN   9608>>DOWHILE  9671<<ASSIGN
EOF_LBL
      9387**LABEL    9364--CALLALT
ERRLOG2
      8789**DCL      7228--DCLINIT
ERRLOG3
      8816**DCL      7422--DCLINIT
ERRLOG3_EOF
      9326**LABEL    9323--CALLALT
ERRLOG4
      8843**DCL      8246--DCLINIT
ERRLOG5
      8870**DCL      8429--DCLINIT
ERRLOG5_EOF
      9294**LABEL    9291--CALLALT
ERRLOG_DATE
      6920**DCL      7780--DCLINIT  9345<<ASSIGN   9346>>DOWHILE  9348<>CALL     9392<>CALL     9392<>CALL
      9443<<ASSIGN   9444>>DOWHILE  9445<>CALL     9507<>CALL     9507<>CALL     9589<<ASSIGN   9590>>DOWHILE
      9592<>CALL     9622>>ASSIGN   9627>>ASSIGN   9639>>ASSIGN   9641>>ASSIGN   9648>>ASSIGN   9650>>ASSIGN
      9675<>CALL     9675<>CALL
ERRORS
      6812**DCL      9434<<ASSIGN   9490<<ASSIGN   9490>>ASSIGN   9498<<ASSIGN   9527>>IF       9529--CALL
EXCLUDE_FMT
      6980**DCL      9252--CALL     9426--CALL
EXT_DATE
      7776**DCL      9349<>CALL     9593<>CALL
PL6.E3A0      #003=THC$REPORT File=THC$COMMANDS.:E05TSI                          WED 07/30/97 06:07 Page:209
EXT_DATE.V
      7780**DCL      7776--DCLINIT
F$DCB.ACTPOS
      3763**DCL      3763--REDEF
F$DCB.ARS
      3738**DCL      3738--REDEF
F$DCB.ATTR
      3756**DCL      3757--REDEF
F$DCB.BORROW
      3771**DCL      3771--REDEF    3771--REDEF    3771--REDEF
F$DCB.DCBNAME.L
      3785**DCL      3785--IMP-SIZ
F$DCB.EOMCHAR
      3742**DCL      3742--REDEF
F$DCB.FCD
      3751**DCL      8995>>IF       8996>>IF       9183>>IF       9261>>IF       9267>>IF       9281>>IF
      9309>>IF       9553>>IF       9554>>IF
F$DCB.FLDID
      3766**DCL      3766--REDEF
F$DCB.FORM$
      3760**DCL      3760--REDEF
F$DCB.FSECT
      3776**DCL      3776--REDEF
F$DCB.FSN
      3753**DCL      3753--REDEF    3753--REDEF    3754--REDEF
F$DCB.HEADER$
      3759**DCL      3759--REDEF
F$DCB.IXTNSIZE
      3757**DCL      3757--REDEF
F$DCB.LASTSTA$
      3747**DCL      3747--REDEF
F$DCB.LVL
      3772**DCL      3772--REDEF
F$DCB.NAME.C
      3747**DCL      3747--REDEF
F$DCB.NOEOF
PL6.E3A0      #003=THC$REPORT File=THC$COMMANDS.:E05TSI                          WED 07/30/97 06:07 Page:210
      3768**DCL      3768--REDEF
F$DCB.NRECS
      3758**DCL      3758--REDEF
F$DCB.NRECX
      3777**DCL      3777--REDEF
F$DCB.OHDR
      3769**DCL      3769--REDEF
F$DCB.ORG
      3752**DCL      3752--REDEF
F$DCB.PRECNO
      3775**DCL      3775--REDEF
F$DCB.RCSZ
      3780**DCL      3780--REDEF
F$DCB.RES
      3748**DCL      3748--REDEF
F$DCB.SETX
      3760**DCL      3760--REDEF
F$DCB.TAB$
      3759**DCL      3760--REDEF
F$DCB.TDA
      3774**DCL      3774--REDEF
F$DCB.WSN
      3749**DCL      3749--REDEF
FEPERR$COMPARE
      6732**DCL-ENT  8698--DCLINIT
FEPERR_HDR
      6976**DCL      9278--CALL
FEPNOTIMP
      6925**DCL      9199--CALL
FID_ERR
      9565**LABEL    9153--CALLALT
FILE_NO IN PROCEDURE THC$DETAIL
      9676**LABEL    9592--CALLALT
FOR_CLAUSE_FLG
      6797**DCL      9002<<ASSIGN   9149<<ASSIGN   9160>>IF
FOUND_DEVNM
PL6.E3A0      #003=THC$REPORT File=THC$COMMANDS.:E05TSI                          WED 07/30/97 06:07 Page:211
      9498**LABEL    9491--GOTO
FOUND_MOUNT
      9482**LABEL    9477--GOTO
FOUND_TYPE
      9470**LABEL    9465--GOTO
FPT_FID
      8146**DCL      9153<>CALL
FPT_FID.TEXTFID_
      8146**DCL      9152<<ASSIGN
FPT_FID.V
      8150**DCL      8146--DCLINIT
GET_XSA_BUF
      7566**DCL      9288<>CALL     9304<>CALL     9320<>CALL     9335<>CALL
GET_XSA_BUF.V
      7566**DCL      7566--DCLINIT
HDR_TBL
      6982**DCL      9170<>CALL
HWE_HDR
      6947**DCL      6986--DCLINIT
I
      6793**DCL      9005<<DOINDEX  9006>>DOCASE   9010>>DOINDEX  9012>>ASSIGN   9128>>IF       9131>>ASSIGN
      9151>>ASSIGN   9155>>ASSIGN   9225<<DOINDEX  9226>>IF       9230>>CALL     9356<<DOINDEX  9357>>ASSIGN
      9402<<DOINDEX  9403>>IF       9407>>CALL     9512<<DOINDEX  9514>>ASSIGN   9519>>CALL     9526<<DOINDEX
      9527>>IF       9527>>IF       9527>>IF       9529>>CALL     9529>>CALL     9529>>CALL     9529>>CALL
      9529>>CALL     9599<<DOINDEX  9600>>ASSIGN
INFO$
      6813**DCL      6819--IMP-PTR  6829--IMP-PTR  6908--IMP-PTR  9460<<ASSIGN   9475>>IF       9481>>ASSIGN
      9487>>IF       9488>>ASSIGN   9489>>ASSIGN   9490>>ASSIGN   9495>>ASSIGN   9497>>ASSIGN   9498>>ASSIGN
      9611<<ASSIGN   9613>>ASSIGN   9615>>ASSIGN
INPUT_TABLE
      7584**DCL      7672--DCLINIT
INPUT_TBL
      8566**DCL      8649--DCLINIT
IOERR$COMPARE
      6731**DCL-ENT  7721--DCLINIT
IOERR_HDR
PL6.E3A0      #003=THC$REPORT File=THC$COMMANDS.:E05TSI                          WED 07/30/97 06:07 Page:212
      6974**DCL      9307--CALL
IOMNOTIMP
      6926**DCL      9205--CALL
J
      6794**DCL      9010<<DOINDEX  9012>>ASSIGN   9128>>IF       9131>>ASSIGN   9431<<DOINDEX  9432>>ASSIGN
      9433>>ASSIGN   9434>>ASSIGN   9435>>ASSIGN   9450<<DOINDEX  9451>>ASSIGN
K
      6795**DCL      9462<<DOINDEX  9463>>IF       9464>>ASSIGN   9464>>ASSIGN   9473<<DOINDEX  9475>>IF
      9476>>ASSIGN   9476>>ASSIGN   9486<<DOINDEX  9487>>IF       9488>>ASSIGN   9488>>ASSIGN   9489>>ASSIGN
      9489>>ASSIGN   9490>>ASSIGN   9490>>ASSIGN
LBL_EOF IN PROCEDURE THC$DETAIL
      9671**LABEL    9609--CALLALT
LEN
      6790**DCL      9000<<ASSIGN   9013<<ASSIGN   9019<<ASSIGN   9023<<ASSIGN   9027<<ASSIGN   9031<<ASSIGN
      9035<<ASSIGN   9039<<ASSIGN   9042<<ASSIGN   9045<<ASSIGN   9079<<ASSIGN   9091<<ASSIGN   9094<<ASSIGN
      9098<<ASSIGN   9101<<ASSIGN   9132>>CALLBLT  9133<<ASSIGN   9133>>ASSIGN   9134>>ASSIGN   9138>>ASSIGN
      9139<<ASSIGN   9141<>CALL     9164<>CALL
LOC_DATE
      7801**DCL      9370<>CALL     9660<>CALL
LOC_DATE.V
      7805**DCL      7801--DCLINIT
LOC_UTS
      6783**DCL      7805--DCLINIT  9369<<ASSIGN   9659<<ASSIGN
LO_HEADER
      8987**DCL      8001--DCLINIT
LO_HEADER.TITL.L#
      8989**DCL      9182<<ASSIGN
LO_HEADER.TITL.TITLE#
      8990**DCL      9180<<CALLBLT  9181<<CALLBLT  9182--ASSIGN
M$CLOSE
        19**DCL-ENT  8995--CALL     8996--CALL     9183--CALL     9264--CALL     9269--CALL     9299--CALL
      9331--CALL     9553--CALL     9554--CALL     9677--CALL     9678--CALL     9695--CALL     9711--CALL
M$CMDVAR
        88**DCL-ENT  9683--CALL     9699--CALL
M$ERRLOG3
      6754**DCL      9261--IF       9309--IF
PL6.E3A0      #003=THC$REPORT File=THC$COMMANDS.:E05TSI                          WED 07/30/97 06:07 Page:213
M$ERRLOG5
      6756**DCL      9267--IF       9281--IF
M$FDS
        54**DCL-ENT  9304--CALL     9335--CALL
M$FID
        82**DCL-ENT  9153--CALL
M$GDS
        54**DCL-ENT  9288--CALL     9320--CALL
M$LO
      6751**DCL      8994>>ASSIGN   8995--IF       9183--IF       9553--IF
M$MERC
        75**DCL-ENT  9692--CALL     9708--CALL
M$ONFILE
      6752**DCL      8996--IF       9184>>ASSIGN   9554--IF
M$OPEN
        19**DCL-ENT  9157--CALL     9283--CALL     9312--CALL     9606--CALL     9607--CALL     9688--CALL
      9704--CALL
M$READ
        20**DCL-ENT  9291--CALL     9323--CALL
M$TIME
        86**DCL-ENT  9349--CALL     9370--CALL     9376--CALL     9593--CALL     9610--CALL     9660--CALL
M$WRITE
        20**DCL-ENT  9621--CALL     9626--CALL     9636--CALL     9645--CALL
MATCH_FMT
      6978**DCL      9246--CALL     9420--CALL
MEMORY_ERRORS
      6798**DCL      9273>>IF       9582<<ASSIGN   9666<<ASSIGN
MPCNOTIMP
      6927**DCL      9202--CALL
NEW_FEPERR_DATE
      6912**DCL      9280--CALL     9650<<ASSIGN
NEW_FEPERR_TIME
      6916**DCL      9280--CALL     9577<<ASSIGN   9651<<ASSIGN
NEW_IOERR_DATE
      6913**DCL      9308--CALL     9641<<ASSIGN
NEW_IOERR_TIME
PL6.E3A0      #003=THC$REPORT File=THC$COMMANDS.:E05TSI                          WED 07/30/97 06:07 Page:214
      6917**DCL      9308--CALL     9579<<ASSIGN   9642<<ASSIGN
NOTIMP
      6924**DCL      6985--DCLINIT  6987--DCLINIT  6988--DCLINIT  6989--DCLINIT  6990--DCLINIT  6991--DCLINIT
      6993--DCLINIT  6994--DCLINIT
NO_FILE
      9392**LABEL    9348--CALLALT
NO_FILE2
      9507**LABEL    9445--CALLALT
NO_REPORT
      9563**LABEL    9141--CALLALT  9164--CALLALT
NUM_DEV
      6803**DCL      9429<<ASSIGN   9473>>DOINDEX  9480<<ASSIGN   9480>>ASSIGN   9481>>ASSIGN   9482>>ASSIGN
      9486>>DOINDEX  9494<<ASSIGN   9494>>ASSIGN   9495>>ASSIGN   9496>>ASSIGN   9497>>ASSIGN   9498>>ASSIGN
      9524>>IF       9526>>DOINDEX
NUM_FEPERR
      6800**DCL      9277>>IF       9581<<ASSIGN   9625<<ASSIGN   9625>>ASSIGN   9644<<ASSIGN   9644>>ASSIGN
      9697>>IF       9698>>ASSIGN
NUM_IOERR_REC
      6799**DCL      9306>>IF       9580<<ASSIGN   9620<<ASSIGN   9620>>ASSIGN   9635<<ASSIGN   9635>>ASSIGN
      9681>>IF       9682>>ASSIGN
NUM_RECS
      6801**DCL      9347<<ASSIGN   9365>>IF       9367<<ASSIGN   9367>>ASSIGN   9430<<ASSIGN   9459<<ASSIGN
      9459>>ASSIGN   9534--CALL     9591<<ASSIGN   9655>>IF       9657<<ASSIGN   9657>>ASSIGN
NUM_TYPES
      6802**DCL      9428<<ASSIGN   9462>>DOINDEX  9468<<ASSIGN   9468>>ASSIGN   9469>>ASSIGN   9470>>ASSIGN
      9510>>IF       9512>>DOINDEX
OLD_FEPERR_DATE
      6910**DCL      9280--CALL     9627<<ASSIGN   9648<<ASSIGN
OLD_FEPERR_TIME
      6914**DCL      9280--CALL     9576<<ASSIGN   9628<<ASSIGN   9646>>IF       9647<<ASSIGN
OLD_IOERR_DATE
      6911**DCL      9308--CALL     9622<<ASSIGN   9639<<ASSIGN
OLD_IOERR_TIME
      6915**DCL      9308--CALL     9578<<ASSIGN   9623<<ASSIGN   9637>>IF       9638<<ASSIGN
ONFILE_ACCT
      8910**DCL      7999--DCLINIT  8147--DCLINIT
PL6.E3A0      #003=THC$REPORT File=THC$COMMANDS.:E05TSI                          WED 07/30/97 06:07 Page:215
ONFILE_NAME
      8897**DCL      7995--DCLINIT  8147--DCLINIT
ONFILE_PASS
      8923**DCL      7996--DCLINIT  8148--DCLINIT
ONFILE_RESULTS
      8962**DCL      8150--DCLINIT
ONFILE_SN
      8949**DCL      7994--DCLINIT  8148--DCLINIT
ONFILE_SPECIFIED
      6766**DCL      8993<<ASSIGN   9156<<ASSIGN   9176>>IF
ONFILE_WSN
      8936**DCL      8000--DCLINIT  8148--DCLINIT
OPEN_ERRLOG2
      7227**DCL      7612--DCLINIT  9606<>CALL     9688<>CALL
OPEN_ERRLOG2.ACSVEH_
      7229**DCL      7230--REDEF
OPEN_ERRLOG2.ALTKEYS_
      7235**DCL      7236--REDEF    7236--REDEF
OPEN_ERRLOG2.HDR_
      7234**DCL      7235--REDEF
OPEN_ERRLOG2.TAB_
      7233**DCL      7234--REDEF
OPEN_ERRLOG2.UHL_
      7227**DCL      7228--REDEF    7228--REDEF
OPEN_ERRLOG2.V
      7236**DCL      7227--DCLINIT
OPEN_ERRLOG2.V.FSN#
      7267**DCL      7267--REDEF    7267--REDEF
OPEN_ERRLOG2.V.FUN#
      7246**DCL      9255<<ASSIGN   9679<<ASSIGN
OPEN_ERRLOG2.WSN_
      7233**DCL      7233--REDEF
OPEN_ERRLOG3
      7421**DCL      7677--DCLINIT  9312<>CALL
OPEN_ERRLOG3.ACSVEH_
      7423**DCL      7424--REDEF
PL6.E3A0      #003=THC$REPORT File=THC$COMMANDS.:E05TSI                          WED 07/30/97 06:07 Page:216
OPEN_ERRLOG3.ALTKEYS_
      7429**DCL      7430--REDEF    7430--REDEF
OPEN_ERRLOG3.HDR_
      7428**DCL      7429--REDEF
OPEN_ERRLOG3.TAB_
      7427**DCL      7428--REDEF
OPEN_ERRLOG3.UHL_
      7421**DCL      7422--REDEF    7422--REDEF
OPEN_ERRLOG3.V
      7430**DCL      7421--DCLINIT
OPEN_ERRLOG3.V.FSN#
      7461**DCL      7461--REDEF    7461--REDEF
OPEN_ERRLOG3.V.FUN#
      7440**DCL      9257<<ASSIGN   9311<<ASSIGN
OPEN_ERRLOG3.WSN_
      7427**DCL      7427--REDEF
OPEN_ERRLOG4
      8245**DCL      8594--DCLINIT  9607<>CALL     9704<>CALL
OPEN_ERRLOG4.ACSVEH_
      8247**DCL      8248--REDEF
OPEN_ERRLOG4.ALTKEYS_
      8253**DCL      8254--REDEF    8254--REDEF
OPEN_ERRLOG4.HDR_
      8252**DCL      8253--REDEF
OPEN_ERRLOG4.TAB_
      8251**DCL      8252--REDEF
OPEN_ERRLOG4.UHL_
      8245**DCL      8246--REDEF    8246--REDEF
OPEN_ERRLOG4.V
      8254**DCL      8245--DCLINIT
OPEN_ERRLOG4.V.FSN#
      8285**DCL      8285--REDEF    8285--REDEF
OPEN_ERRLOG4.V.FUN#
      8264**DCL      9256<<ASSIGN   9680<<ASSIGN
OPEN_ERRLOG4.WSN_
      8251**DCL      8251--REDEF
PL6.E3A0      #003=THC$REPORT File=THC$COMMANDS.:E05TSI                          WED 07/30/97 06:07 Page:217
OPEN_ERRLOG5
      8428**DCL      8654--DCLINIT  9283<>CALL
OPEN_ERRLOG5.ACSVEH_
      8430**DCL      8431--REDEF
OPEN_ERRLOG5.ALTKEYS_
      8436**DCL      8437--REDEF    8437--REDEF
OPEN_ERRLOG5.HDR_
      8435**DCL      8436--REDEF
OPEN_ERRLOG5.TAB_
      8434**DCL      8435--REDEF
OPEN_ERRLOG5.UHL_
      8428**DCL      8429--REDEF    8429--REDEF
OPEN_ERRLOG5.V
      8437**DCL      8428--DCLINIT
OPEN_ERRLOG5.V.FSN#
      8468**DCL      8468--REDEF    8468--REDEF
OPEN_ERRLOG5.V.FUN#
      8447**DCL      9258<<ASSIGN   9282<<ASSIGN
OPEN_ERRLOG5.WSN_
      8434**DCL      8434--REDEF
OPEN_LO.ACSVEH_
      7877**DCL      7878--REDEF
OPEN_LO.ALTKEYS_
      7883**DCL      7884--REDEF    7884--REDEF
OPEN_LO.HDR_
      7882**DCL      7883--REDEF
OPEN_LO.TAB_
      7881**DCL      7882--REDEF
OPEN_LO.UHL_
      7875**DCL      7876--REDEF    7876--REDEF
OPEN_LO.V.FSN#
      7915**DCL      7915--REDEF    7915--REDEF
OPEN_LO.WSN_
      7881**DCL      7881--REDEF
OPN_ERR
      9557**LABEL    9157--CALLALT
PL6.E3A0      #003=THC$REPORT File=THC$COMMANDS.:E05TSI                          WED 07/30/97 06:07 Page:218
OUT$BLK.CODE
      7030**DCL      9003>>ASSIGN   9006>>DOCASE   9012>>ASSIGN   9155>>ASSIGN
OUT$BLK.NSUBLKS
      7034**DCL      9005>>DOINDEX  9010>>DOINDEX  9128>>IF
OUT$BLK.SUBLK$
      7055**DCL      9003>>ASSIGN   9006>>DOCASE   9010>>DOINDEX  9012>>ASSIGN   9012>>ASSIGN   9012>>ASSIGN
      9128>>IF       9128>>IF       9131>>ASSIGN   9131>>ASSIGN   9131>>ASSIGN   9151>>ASSIGN   9151>>ASSIGN
      9155>>ASSIGN   9155>>ASSIGN
OUT$SYM.COUNT
      7091**DCL      7094--IMP-SIZ  9132>>CALLBLT  9132>>CALLBLT  9133>>ASSIGN   9152>>ASSIGN
OUT$SYM.TEXT
      7094**DCL      9132>>CALLBLT  9152--ASSIGN
OUTPUT_DCB#
      6767**DCL      8994<<ASSIGN   9184<<ASSIGN
PMME_ERR
      9560**LABEL    9288--CALLALT  9304--CALLALT  9320--CALLALT  9335--CALLALT
RAW_HDR
      6959**DCL      6992--DCLINIT  6998--DCLINIT
READ_ERRLOG3
      7529**DCL      9323<>CALL
READ_ERRLOG3.BUF_
      7531**DCL      9321<<ASSIGN
READ_ERRLOG3.STATION_
      7532**DCL      7533--REDEF
READ_ERRLOG3.V
      7533**DCL      7529--DCLINIT
READ_ERRLOG3.V.DVBYTE.REREAD#
      7544**DCL      7544--REDEF
READ_ERRLOG3.V.INDX#
      7542**DCL      7542--REDEF
READ_ERRLOG5
      8531**DCL      9291<>CALL
READ_ERRLOG5.BUF_
      8533**DCL      9289<<ASSIGN
READ_ERRLOG5.STATION_
      8534**DCL      8535--REDEF
PL6.E3A0      #003=THC$REPORT File=THC$COMMANDS.:E05TSI                          WED 07/30/97 06:07 Page:219
READ_ERRLOG5.V
      8535**DCL      8531--DCLINIT
READ_ERRLOG5.V.DVBYTE.REREAD#
      8546**DCL      8546--REDEF
READ_ERRLOG5.V.INDX#
      8544**DCL      8544--REDEF
RECORD.INFO
      6816**DCL      9460--ASSIGN   9611--ASSIGN
RECORD.TYPE
      6815**DCL      6815--REDEF    9371>>ASSIGN   9461>>ASSIGN   9472>>IF       9485>>IF       9661>>ASSIGN
RECORD.UTS
      6815**DCL      9369>>ASSIGN   9659>>ASSIGN
RECORD_DATE
      7751**DCL      9376<>CALL     9610<>CALL
RECORD_DATE.V
      7755**DCL      7751--DCLINIT
RECORD_TYPE
      6805**DCL      9461<<ASSIGN   9463>>IF       9469>>ASSIGN
REPORT_CODE
      6919**DCL      9003<<ASSIGN   9170>>CALL     9187>>DOCASE   9237>>IF       9254>>IF       9365>>IF
      9378>>IF
SET_ONFILE
      7994**DCL      9157<>CALL
SET_ONFILE.ACSVEH_
      7996**DCL      7997--REDEF
SET_ONFILE.ALTKEYS_
      8002**DCL      8003--REDEF    8003--REDEF
SET_ONFILE.HDR_
      8001**DCL      8002--REDEF
SET_ONFILE.TAB_
      8000**DCL      8001--REDEF
SET_ONFILE.UHL_
      7994**DCL      7995--REDEF    7995--REDEF
SET_ONFILE.V
      8003**DCL      7994--DCLINIT
SET_ONFILE.V.ASN#
PL6.E3A0      #003=THC$REPORT File=THC$COMMANDS.:E05TSI                          WED 07/30/97 06:07 Page:220
      8013**DCL      8149--DCLINIT
SET_ONFILE.V.EXIST#
      8007**DCL      9155<<ASSIGN
SET_ONFILE.V.FSN#
      8034**DCL      8034--REDEF    8034--REDEF
SET_ONFILE.V.RES#
      8018**DCL      8149--DCLINIT
SET_ONFILE.WSN_
      8000**DCL      8000--REDEF
SILENCE_SORT
      8173**DCL      9683<>CALL     9699<>CALL
SILENCE_SORT.V
      8175**DCL      8173--DCLINIT
SORT_ERR IN PROCEDURE THC$DETAIL
      9714**LABEL    9683--CALLALT  9684--CALLALT  9699--CALLALT  9700--CALLALT
SORT_ERRLOG2
      7635**DCL      9684<>CALL
SORT_ERRLOG2.NREC#
      7692**DCL      9682<<ASSIGN
SORT_ERRLOG4
      8612**DCL      9700<>CALL
SORT_ERRLOG4.NREC#
      8669**DCL      9698<<ASSIGN
SORT_SUPPRESS
      8762**DCL      8174--DCLINIT
START_TIME
      6764**DCL      9339<>CALL     9340<<ASSIGN   9340>>ASSIGN   9341<>CALL     9341>>CALL     9345>>ASSIGN
      9437<>CALL     9438<<ASSIGN   9438>>ASSIGN   9439<>CALL     9439>>CALL     9443>>ASSIGN   9583<>CALL
      9584<<ASSIGN   9584>>ASSIGN   9585<>CALL     9585>>CALL     9589>>ASSIGN
STOP_TIME
      6765**DCL      9342<>CALL     9343<<ASSIGN   9343>>ASSIGN   9344<>CALL     9344>>CALL     9346>>DOWHILE
      9440<>CALL     9441<<ASSIGN   9441>>ASSIGN   9442<>CALL     9442>>CALL     9444>>DOWHILE  9586<>CALL
      9587<<ASSIGN   9587>>ASSIGN   9588<>CALL     9588>>CALL     9590>>DOWHILE
SUM_ENTRY
      6932**DCL      9519--CALL
SUM_FMT
PL6.E3A0      #003=THC$REPORT File=THC$COMMANDS.:E05TSI                          WED 07/30/97 06:07 Page:221
      6930**DCL      9511--CALL
SUM_HDR
      6969**DCL      6997--DCLINIT
SUM_TOT
      6939**DCL      9534--CALL
SYM$
      6786**DCL      7068--IMP-PTR  9131<<ASSIGN   9132>>CALLBLT  9132>>CALLBLT  9132>>CALLBLT  9133>>ASSIGN
      9151<<ASSIGN   9152>>ASSIGN   9152>>ASSIGN
SYS_HDR
      6965**DCL      6995--DCLINIT
TBUF
      6782**DCL      7803--DCLINIT  7804--DCLINIT  9372--CALL     9662--CALL
TEMP_BUF
      6774**DCL      8999<<ASSIGN   9009<<ASSIGN   9143<<CALLBLT  9146<<CALLBLT  9167<>CALL     9230<>CALL
      9231>>CALLBLT  9407<>CALL     9408>>CALLBLT  9515<>CALL     9516<>CALL
TEMP_BUF2
      6775**DCL      9227<<CALLBLT  9231<<CALLBLT  9234<>CALL     9404<<CALLBLT  9408<<CALLBLT  9411<>CALL
TEXT
      6787**DCL      9011<<ASSIGN   9017<<ASSIGN   9021<<ASSIGN   9025<<ASSIGN   9029<<ASSIGN   9033<<ASSIGN
      9037<<ASSIGN   9041<<ASSIGN   9044<<ASSIGN   9047<<ASSIGN   9050<<ASSIGN   9053<<ASSIGN   9056<<ASSIGN
      9059<<ASSIGN   9062<<ASSIGN   9065<<ASSIGN   9068<<ASSIGN   9071<<ASSIGN   9074<<ASSIGN   9077<<ASSIGN
      9081<<ASSIGN   9084<<ASSIGN   9087<<ASSIGN   9090<<ASSIGN   9093<<ASSIGN   9097<<ASSIGN   9100<<ASSIGN
      9104<<ASSIGN   9108<<ASSIGN   9112<<ASSIGN   9116<<ASSIGN   9120<<ASSIGN   9124<<ASSIGN   9132<<CALLBLT
      9141<>CALL     9146>>CALLBLT  9163<<ASSIGN   9164<>CALL
TEXT$
      6768**DCL      9166<<ASSIGN   9167<>CALL     9223<<ASSIGN   9234<>CALL     9400<<ASSIGN   9411<>CALL
      9513<<ASSIGN   9516<>CALL
TEXTBUF
      6769**DCL      9166--ASSIGN   9168--ASSIGN   9223--ASSIGN   9235--ASSIGN   9400--ASSIGN   9412--ASSIGN
      9513--ASSIGN   9517--ASSIGN
TEXT_LEN
      6791**DCL      9134<<ASSIGN   9138<<ASSIGN   9146>>CALLBLT  9147>>ASSIGN
THC$DETAIL
      9569**PROC     9272--CALL
THC$TYPENAME
      6744**DCL-ENT  9230--CALL     9407--CALL     9515--CALL
PL6.E3A0      #003=THC$REPORT File=THC$COMMANDS.:E05TSI                          WED 07/30/97 06:07 Page:222
THF$ADD_TEXTC
      6745**DCL-ENT  9167--CALL     9234--CALL     9411--CALL     9516--CALL
THF$AMS
      6746**DCL-ENT  9190--CALL
THF$CONFIG
      6743**DCL-ENT  9193--CALL
THF$DUMP
      6735**DCL-ENT  9373--CALL     9663--CALL
THF$HWE
      6742**DCL-ENT  9206--CALL     9275--CALL
THF$RAW
      6736**DCL-ENT  9292--CALL     9302--CALL     9324--CALL     9333--CALL     9381--CALL     9384--CALL
      9668--CALL
THF$SYS
      6748**DCL-ENT  9541--CALL
THF$UPR
      6747**DCL-ENT  9544--CALL
THG$CLOSEXSA
      6740**DCL-ENT  9394--CALL     9509--CALL     9716--CALL
THG$GETREC
      6737**DCL-ENT  9364--CALL     9458--CALL     9609--CALL
THG$OPENXSA
      6738**DCL-ENT  9348--CALL     9445--CALL     9592--CALL
THG$PRECORDXSA
      6739**DCL-ENT  9362--CALL     9456--CALL     9605--CALL
THM$ERRMSG
      6733**DCL-ENT  9296--CALL     9328--CALL     9557--CALL     9560--CALL     9565--CALL     9714--CALL
THS$SET_DEVS
      6734**DCL-ENT  9141--CALL     9164--CALL
THW$WRITE
      6741**DCL-ENT  9170--CALL     9199--CALL     9202--CALL     9205--CALL     9239--CALL     9246--CALL
      9252--CALL     9278--CALL     9280--CALL     9307--CALL     9308--CALL     9366--CALL     9372--CALL
      9414--CALL     9420--CALL     9426--CALL     9511--CALL     9519--CALL     9525--CALL     9529--CALL
      9534--CALL     9656--CALL     9662--CALL
TH_BRKMSG
      4739**DCL      9189<<ASSIGN   9192<<ASSIGN   9197<<ASSIGN   9221<<ASSIGN   9398<<ASSIGN   9540<<ASSIGN
PL6.E3A0      #003=THC$REPORT File=THC$COMMANDS.:E05TSI                          WED 07/30/97 06:07 Page:223
      9543<<ASSIGN
TH_CHECK_DEVNM
      4753**DCL      9359<<ASSIGN   9360<<ASSIGN   9453<<ASSIGN   9454<<ASSIGN   9602<<ASSIGN   9603<<ASSIGN
TH_CONSTRAINTS
      4715**DCL      9186>>ASSIGN   9552<<ASSIGN
TH_CONSTRAINTS.DEVNM
      4715**DCL      9357<<ASSIGN   9358>>IF       9451<<ASSIGN   9452>>IF       9600<<ASSIGN   9601>>IF
TH_CONSTRAINTS.E_BY_B
      4718**DCL      4718--REDEF
TH_CONSTRAINTS.E_BY_B_SET
      4719**DCL      9248>>IF       9422>>IF
TH_CONSTRAINTS.E_CHAN_SET
      4720**DCL      9248>>IF
TH_CONSTRAINTS.E_FEP_SET
      4720**DCL      9248>>IF       9422>>IF
TH_CONSTRAINTS.E_MAJ_S
      4718**DCL      9248>>IF       9422>>IF
TH_CONSTRAINTS.E_MED_S
      4718**DCL      9248>>IF       9422>>IF
TH_CONSTRAINTS.E_SUB_S
      4718**DCL      9248>>IF       9422>>IF
TH_CONSTRAINTS.M_BY_B
      4717**DCL      4717--REDEF
TH_CONSTRAINTS.M_BY_B_SET
      4717**DCL      9242>>IF       9416>>IF
TH_CONSTRAINTS.M_CHAN_SET
      4719**DCL      9242>>IF       9416>>IF       9422>>IF
TH_CONSTRAINTS.M_FEP_SET
      4719**DCL      9242>>IF       9416>>IF
TH_CONSTRAINTS.M_MAJ_S
      4716**DCL      9242>>IF       9416>>IF
TH_CONSTRAINTS.M_MED_S
      4717**DCL      9242>>IF       9416>>IF
TH_CONSTRAINTS.M_SUB_S
      4716**DCL      9242>>IF       9416>>IF
TH_CONSTRAINTS.NTYPES
PL6.E3A0      #003=THC$REPORT File=THC$COMMANDS.:E05TSI                          WED 07/30/97 06:07 Page:224
      4715**DCL      9222>>IF       9225>>DOINDEX  9399>>IF       9402>>DOINDEX  9527>>IF       9527>>IF
TH_CONSTRAINTS.OCTAL
      4722**DCL      9368>>IF       9658>>IF
TH_CONSTRAINTS.START
      4716**DCL      9170--CALL     9339<>CALL     9362<>CALL     9437<>CALL     9456<>CALL     9583<>CALL
      9605<>CALL
TH_CONSTRAINTS.STOP
      4716**DCL      9170--CALL     9342<>CALL     9440<>CALL     9586<>CALL
TH_CONSTRAINTS.TYPES
      4715**DCL      4715--REDEF    9230<>CALL     9407<>CALL
TH_DATE
      4746**DCL      7751--DCLINIT  7752--DCLINIT
TH_DAY
      4746**DCL      7754--DCLINIT
TH_DEFAULT.E_BY_B
      4726**DCL      4726--REDEF
TH_DEFAULT.M_BY_B
      4725**DCL      4725--REDEF
TH_DEFAULT.TYPES
      4723**DCL      4723--REDEF
TH_DETAIL_FLG
      4754**DCL      9377<<ASSIGN   9550<<ASSIGN   9575<<ASSIGN
TH_DETAIL_FMT
      6778**DCL      9292<>CALL     9302<>CALL     9324<>CALL     9333<>CALL     9668<>CALL
TH_EOF_FLG
      4755**DCL      9301<<ASSIGN   9315<<ASSIGN   9332<<ASSIGN   9546<<ASSIGN   9571<<ASSIGN
TH_EXTENDED_FMT
      6779**DCL      9384<>CALL
TH_FEPERR_FLG
      4754**DCL      9219<<ASSIGN   9279<<ASSIGN   9317<<ASSIGN   9549<<ASSIGN   9574<<ASSIGN
TH_FIRST_TIME
      4754**DCL      9286<<ASSIGN   9318<<ASSIGN   9547<<ASSIGN   9572<<ASSIGN   9616>>IF       9630<<ASSIGN
TH_IOERR_FLG
      4754**DCL      9218<<ASSIGN   9316<<ASSIGN   9548<<ASSIGN   9573<<ASSIGN
TH_ITYPE
      4745**DCL      9287<<ASSIGN   9319<<ASSIGN   9616>>IF       9616>>IF       9618>>DOCASE   9632>>IF
PL6.E3A0      #003=THC$REPORT File=THC$COMMANDS.:E05TSI                          WED 07/30/97 06:07 Page:225
      9632>>IF       9633>>DOCASE   9655>>IF       9665>>IF
TH_LASTTYPE
      4745**DCL      9395<<ASSIGN   9717<<ASSIGN
TH_LASTUTS
      4745**DCL      7755--DCLINIT
TH_LAST_EXCLUDE
      4748**DCL      9252--CALL     9426--CALL
TH_LAST_MATCH
      4747**DCL      9246--CALL     9420--CALL
TH_LAST_REQID
      4749**DCL      9241<<ASSIGN
TH_NUM_REP_DEVS
      4740**DCL      9004<<ASSIGN   9353<<ASSIGN   9356>>DOINDEX  9447<<ASSIGN   9450>>DOINDEX  9551<<ASSIGN
      9595<<ASSIGN   9599>>DOINDEX
TH_OUTBUF
      7000**DCL      9179<<ASSIGN   9179>>ASSIGN   9180>>CALLBLT
TH_RAW_FLG
      4754**DCL      9220<<ASSIGN   9380<<ASSIGN
TH_RAW_FMT
      6777**DCL      9381<>CALL
TH_RECORD.BOUND
      4743**DCL      9612>>ASSIGN   9614>>ASSIGN
TH_RECORD.PTR$
      4743**DCL      6815--IMP-PTR  9369>>ASSIGN   9371>>ASSIGN   9373<>CALL     9460>>ASSIGN   9461>>ASSIGN
      9472>>IF       9485>>IF       9611>>ASSIGN   9659>>ASSIGN   9661>>ASSIGN   9663<>CALL
TH_REP_DEVS
      4741**DCL      9354<<ASSIGN   9357>>ASSIGN   9448<<ASSIGN   9451>>ASSIGN   9596<<ASSIGN   9600>>ASSIGN
TH_SAVE
      4730**DCL      9186<<ASSIGN   9552>>ASSIGN
TH_SAVE.E_BY_B
      4734**DCL      4734--REDEF
TH_SAVE.M_BY_B
      4732**DCL      4732--REDEF
TH_SAVE.TYPES
      4730**DCL      4731--REDEF
TH_SITE_ID
PL6.E3A0      #003=THC$REPORT File=THC$COMMANDS.:E05TSI                          WED 07/30/97 06:07 Page:226
      4746**DCL      9170--CALL
TH_SITE_NAME
      4747**DCL      9170--CALL
TH_TIME
      4746**DCL      7753--DCLINIT  7754--DCLINIT  9623>>ASSIGN   9628>>ASSIGN   9638>>ASSIGN   9642>>ASSIGN
      9647>>ASSIGN   9651>>ASSIGN
TH_XSA_BUF.P$
      4751**DCL      9303>>IF       9334>>IF
TH_XSA_BUF_VECTOR
      4750**DCL      4750--REDEF    7566--DCLINIT  9289>>ASSIGN   9321>>ASSIGN
TIME_FMT
      7005**DCL      9280<>CALL     9308<>CALL
TIME_HDR
      7003**DCL      7005--DCLINIT
TOP$
         7**DCL         6--PROC     7022--IMP-PTR  9003>>ASSIGN   9005>>DOINDEX  9006>>DOCASE   9010>>DOINDEX
      9012>>ASSIGN   9128>>IF       9131>>ASSIGN   9151>>ASSIGN   9155>>ASSIGN
TVEC
      6770**DCL      9168<<ASSIGN   9170<>CALL     9235<<ASSIGN   9239<>CALL     9412<<ASSIGN   9414<>CALL
      9517<<ASSIGN   9519<>CALL
TVEC.BOUND
      6771**DCL      9169<<ASSIGN   9236<<ASSIGN   9413<<ASSIGN   9518<<ASSIGN
TYPE
      6780**DCL      9371<<ASSIGN   9372--CALL     9661<<ASSIGN   9662--CALL
TYPEB
      6806**DCL      9514<<ASSIGN   9515<>CALL
TYPES
      6804**DCL      9463>>IF       9469<<ASSIGN   9514>>ASSIGN
TYPE_CNT
      6807**DCL      9464<<ASSIGN   9464>>ASSIGN   9470<<ASSIGN   9519--CALL
TYPE_FMT
      6928**DCL      9239--CALL     9414--CALL
UPR_HDR
      6967**DCL      6996--DCLINIT
VLP_NAME
      8735**DCL      8173--DCLINIT
PL6.E3A0      #003=THC$REPORT File=THC$COMMANDS.:E05TSI                          WED 07/30/97 06:07 Page:227
WRITE_ERRLOG2
      7335**DCL      9621<>CALL     9636<>CALL
WRITE_ERRLOG2.BUF_.BOUND
      7335**DCL      9614<<ASSIGN
WRITE_ERRLOG2.BUF_.BUF$
      7337**DCL      9615<<ASSIGN
WRITE_ERRLOG2.STATION_
      7337**DCL      7337--REDEF
WRITE_ERRLOG2.V
      7338**DCL      7335--DCLINIT
WRITE_ERRLOG2.V.DVBYTE.VFC#
      7344**DCL      7344--REDEF
WRITE_ERRLOG4
      8348**DCL      9626<>CALL     9645<>CALL
WRITE_ERRLOG4.BUF_.BOUND
      8348**DCL      9612<<ASSIGN
WRITE_ERRLOG4.BUF_.BUF$
      8350**DCL      9613<<ASSIGN
WRITE_ERRLOG4.STATION_
      8350**DCL      8350--REDEF
WRITE_ERRLOG4.V
      8351**DCL      8348--DCLINIT
WRITE_ERRLOG4.V.DVBYTE.VFC#
      8357**DCL      8357--REDEF
X$SORT
      6730**DCL-ENT  9684--CALL     9700--CALL
XUD$UTS_ADJ_25TH
      7135**DCL-ENT  9341--CALL     9344--CALL     9392--CALL     9439--CALL     9442--CALL     9507--CALL
      9585--CALL     9588--CALL     9675--CALL
XUD$UTS_DIFF_SEC
      7117**DCL-ENT  9339--CALL     9342--CALL     9437--CALL     9440--CALL     9583--CALL     9586--CALL

