VERSION E05

PL6.E3A0      #001=THC$COMMANDS File=THC$COMMANDS.:E05TSI                        WED 07/30/97 06:06 Page:1
        1        1        /*T***********************************************************/
        2        2        /*T*                                                         */
        3        3        /*T* Copyright (c) Bull HN Information Systems Inc., 1997    */
        4        4        /*T*                                                         */
        5        5        /*T***********************************************************/
        6        6
        7        7        /*M* THC$COMMANDS - COMMAND DRIVER FOR ELAN */
        8        8        THC$COMMANDS: PROC(TOP$);
        9        9    1   DCL TOP$ PTR;
       10       10        /**/
       11       11        /* INCLUDE FILES */
       12       12        %INCLUDE CP_6;
       13       93        %INCLUDE XU_MACRO_C;
       14     3199        %INCLUDE B_ERRORS_C;
       15     4326        %INCLUDE F$DCB;
       16     4375        %INCLUDE B$JIT;
       17     4665        %INCLUDE TH_DATA_R;
       18     4743        %INCLUDE TH_SUBS_C;
       19     5125        %INCLUDE TH_PERR_C;
       20     5166        /**/
       21     5167        /* ENTRY DEFS */
       22     5168    1   DCL THM$ERRMSG ENTRY(1);
       23     5169    1   DCL THC$SPAN ENTRY(1) ALTRET;
       24     5170    1   DCL THC$SELECT ENTRY(1) ALTRET;
       25     5171    1   DCL THC$HELP ENTRY(1);
       26     5172    1   DCL THC$REPORT ENTRY(1);
       27     5173    1   DCL THC$THRESH ENTRY(1);
       28     5174    1   DCL THC$STATUS ENTRY;
       29     5175        /**/
       30     5176        /* VARIABLES */
       31     5177    1   DCL I UBIN;
       32     5178    1   DCL B$JIT$ PTR SYMREF;
       33     5179        /**/
       34     5180        /* MACRO INVOCATIONS */
       35     5181        %VLP_NAME (FPTN=TH_VLP_ERRLOGX, LEN=31, STCLASS="STATIC SYMDEF");
       36     5208        %VLP_ACCT (FPTN=TH_VLP_ACCT, STCLASS="STATIC SYMDEF");
       37     5221        %FPT_FID (FPTN=FPT_FID, ACCT=TH_VLP_ACCT, NAME=TH_VLP_ERRLOGX,
PL6.E3A0      #001=THC$COMMANDS File=THC$COMMANDS.:E05TSI                        WED 07/30/97 06:06 Page:2
       38     5222                  ASN=TH_OPEN_ERRLOG.V.ASN#);
       39     5245        %FPT_OPEN (FPTN=TH_OPEN_ERRLOG,
       40     5246                   STCLASS=SYMREF);
       41     5355        %PARSE$OUT (NAME=OUT$BLK,STCLASS="BASED(TOP$)");
       42     5400        %PARSE$SYM(NAME=OUT$SYM,STCLASS="BASED(TOP$)");
       43     5438        /**/
       44     5439        %EJECT;
PL6.E3A0      #001=THC$COMMANDS File=THC$COMMANDS.:E05TSI                        WED 07/30/97 06:06 Page:3
       45     5440    2        DO CASE(OUT$BLK.CODE);
       46     5441    2           CASE(1);                        /* MULTIPLE COMMANDS                  */
       47     5442    3              DO I = 0 TO OUT$BLK.NSUBLKS - 1;
       48     5443    3                 CALL THC$COMMANDS(OUT$BLK.SUBLK$(I));
       49     5444    3              END;                         /* DO I                               */
       50     5445    2           CASE(%END_CMD);
       51     5446    2              TH_ENDFLAG = %TRUE;
       52     5447    2           CASE(%HELP_CMD);
       53     5448    2              CALL THC$HELP(OUT$BLK.SUBLK$(0));
       54     5449    2           CASE(%REPORT_CMD);
       55     5450    2              CALL THC$REPORT(TOP$);
       56     5451    2           CASE(%SELECT_CMD);
       57     5452    2              CALL THC$SELECT(OUT$BLK.SUBLK$(0)) ALTRET(RET_LBL);
       58     5453    2           CASE(%SPAN_CMD);
       59     5454    2              CALL THC$SPAN(TOP$) ALTRET(RET_LBL);
       60     5455    2           CASE(%THRESH_CMD);
       61     5456    2              CALL THC$THRESH(TOP$);
       62     5457    2           CASE(%STATUS_CMD);
       63     5458    2              CALL THC$STATUS;
       64     5459    2           CASE(%NULL_CMD);
       65     5460    2            CASE(%USE_CMD);
       66     5461    2             IF OUT$BLK.NSUBLKS <= 0
       67     5462    3              THEN DO;
       68     5463    3                 VLP_SYSTAC.ACCT# = B$JIT.FACCN;
       69     5464    3                 TH_CHANGE_ACCOUNT = '1'B;
       70     5465    3                 END;
       71     5466    3              ELSE DO;
       72     5467    3                 IF OUT$BLK.SUBLK$(0)->OUT$SYM.COUNT > 8
       73     5468    4                  THEN DO;
       74     5469    4                       CALL THM$ERRMSG(%E$TH_BAD_ACCOUNT_NAME);
       75     5470                            /*E* ERROR : THE-E$TH_BAD_ACCOUNT_NAME-O
       76     5471                                 MESSAGE: Bad account specification
       77     5472                            */
       78     5473    4                       TH_CHANGE_ACCOUNT = '0'B;
       79     5474    4                      END;
       80     5475    4                  ELSE DO;
       81     5476    4                      VLP_SYSTAC.ACCT# = OUT$BLK.SUBLK$(0)->OUT$SYM.TEXT;
PL6.E3A0      #001=THC$COMMANDS File=THC$COMMANDS.:E05TSI                        WED 07/30/97 06:06 Page:4
       82     5477    4                      TH_CHANGE_ACCOUNT = '1'B;
       83     5478    4                      END;
       84     5479    3                 END;
       85     5480                                                /* DO NOTHING                         */
       86     5481    2            CASE(%FILE_CMD);
       87     5482    2                IF (OUT$BLK.NSUBLKS <= 0)
       88     5483    3                   THEN DO;
       89     5484    3                     CALL THM$ERRMSG(%E$TH_BAD_FILE_NAME);
       90     5485                          /*E*  ERROR: THE-E$TH_BAD_FILE_NAME-0
       91     5486                                MESSAGE:  Bad file name               */
       92     5487    3                     TH_CHANGE_FILE = '0'B;
       93     5488    3                   END;
       94     5489    3                   ELSE DO;
       95     5490    3                     FPT_FID.TEXTFID_ = VECTOR( OUT$BLK.SUBLK$(0) -> OUT$SYM.TEXT);
       96     5491    3                     CALL M$FID(FPT_FID);
       97     5492    3                     TH_CHANGE_FILE = '1'B;
       98     5493    3                   END;
       99     5494    2            CASE(%PROMPT_CMD);
      100     5495    2                IF OUT$BLK.SUBLK$(0)->OUT$SYM.COUNT = 0
      101     5496    3                  THEN DO;
      102     5497    3                          TH_PRMT.VFC = BITASC('036'O);
      103     5498    3                          TH_PRMT.TEXT = ' ';
      104     5499    3                          TH_PRMT_SIZE = 1;
      105     5500    3                       END;
      106     5501    3                  ELSE DO;
      107     5502    3                         TH_PRMT.TEXT= OUT$BLK.SUBLK$(0)->OUT$SYM.TEXT;
      108     5503    3                         TH_PRMT.VFC = BITASC('036'O);
      109     5504    3                          TH_PRMT_SIZE = OUT$BLK.SUBLK$(0)->OUT$SYM.COUNT+ 1;
      110     5505    3                       END;
      111     5506    2                   TH_PRMT_FLAG = '1'B;
      112     5507    2        END;                               /* DO CASE                            */
      113     5508    1   RET_LBL:
      114     5509    1        RETURN;
      115     5510    1   END THC$COMMANDS;
      116     5511        %EOD;

PL6.E3A0      #001=THC$COMMANDS File=THC$COMMANDS.:E05TSI                        WED 07/30/97 06:06 Page:5
--  Include file information  --

   TH_PERR_C.:E05TOU  is referenced.
   B_STRINGS_C.:E05TOU  is referenced.
   TH_SUBS_C.:E05TOU  is referenced.
   TH_DATA_R.:E05TOU  cannot be made into a system file and is referenced.
   B$JIT.:E05TOU  cannot be made into a system file and is referenced.
   F$DCB.:E05TOU  cannot be made into a system file and is referenced.
   B_ERRORS_C.:E05TOU  is referenced.
   XU_MACRO_C.:E05TOU  is referenced.
   CP_6.:E05TOU  cannot be made into a system file and is referenced.
   B$JIT_C.:E05TOU  was found in the system file and is referenced.
   CP_6_C.:E05TOU  was found in the system file and is referenced.
      No diagnostics issued in procedure THC$COMMANDS.

   Procedure THC$COMMANDS requires 160 words for executable code.
   Procedure THC$COMMANDS requires 8 words of local(AUTO) storage.

PL6.E3A0      #001=THC$COMMANDS File=THC$COMMANDS.:E05TSI                        WED 07/30/97 06:06 Page:6

 Object Unit name= THC$COMMANDS                               File name= THC$COMMANDS.:E05TOU
 UTS= JUL 30 '97 06:06:33.80 WED                              Compiler= PL-6/E31         Sev=      00
 SharedLib= :SHARED_SYSTEM                                    Alt SharedLib=


    ****  Control sections  ****

 Sect   Type Bound  Init  Size OctSiz  Section name(segment info)
    0   DCB   even  none     0      0  M$UC
    1   Data  even  none    34     42  THC$COMMANDS
    2   Proc  even  none   160    240  THC$COMMANDS
    3  RoData even  none     5      5  THC$COMMANDS

    ****  Entry defs  ****

                              Check   Calling
                             calling  sequence
  Sect OctLoc Primary Altret sequence   type   Parms  Name
     2      0   yes            yes      Std        1  THC$COMMANDS

  ****  Data defs  ****

 Sect OctLoc  Name                           Sect OctLoc  Name
    1      0  TH_VLP_ERRLOGX                     1     10  TH_VLP_ACCT
PL6.E3A0      #001=THC$COMMANDS File=THC$COMMANDS.:E05TSI                        WED 07/30/97 06:06 Page:7

  ****  Entry refs  ****

         Check        Calling
        calling       sequence
Altret sequence SRef   type   Args  Name
         yes           Std       1 THC$THRESH
         yes           Std       1 THC$HELP
         yes           Std       1 THC$REPORT
 yes     yes           Std       1 THC$SELECT
         yes           Std       0 THC$STATUS
         yes           Std       1 THM$ERRMSG
 yes     yes           Std       1 THC$SPAN
                       nStd      0 X66_AUTO_1
                       Std       0 B_CONSPOOL_D
                       nStd      0 X66_ARET

  ****  Data refs  ****

  Flags:  r = read only, s = secondary
Flgs Name                             Flgs Name                             Flgs Name
     M$UC                                  TH_ENDFLAG                            TH_XSA_BUF_VECTOR
     VLP_SYSTAC                            TH_CHANGE_ACCOUNT                     TH_CHANGE_FILE
     TH_PRMT_FLAG                          TH_PRMT                               TH_PRMT_SIZE
     B$JIT$                                TH_OPEN_ERRLOG                        B_VECTNIL

  ****  Segment refs  ****

  Flags:  r = read only, s = secondary
Flgs Name                             Flgs Name                             Flgs Name
     ISSID                                 NULLSID
PL6.E3A0      #001=THC$COMMANDS File=THC$COMMANDS.:E05TSI                        WED 07/30/97 06:06 Page:8


        1        1        /*T***********************************************************/
        2        2        /*T*                                                         */
        3        3        /*T* Copyright (c) Bull HN Information Systems Inc., 1997    */
        4        4        /*T*                                                         */
        5        5        /*T***********************************************************/
        6        6
        7        7        /*M* THC$COMMANDS - COMMAND DRIVER FOR ELAN */
        8        8        THC$COMMANDS: PROC(TOP$);

      8  2 000000   000000 700200 xent  THC$COMMANDS TSX0  ! X66_AUTO_1
         2 000001   000010 000001                    ZERO    8,1

        9        9    1   DCL TOP$ PTR;
       10       10        /**/
       11       11        /* INCLUDE FILES */
       12       12        %INCLUDE CP_6;
       13       93        %INCLUDE XU_MACRO_C;
       14     3199        %INCLUDE B_ERRORS_C;
       15     4326        %INCLUDE F$DCB;
       16     4375        %INCLUDE B$JIT;
       17     4665        %INCLUDE TH_DATA_R;
       18     4743        %INCLUDE TH_SUBS_C;
       19     5125        %INCLUDE TH_PERR_C;
       20     5166        /**/
       21     5167        /* ENTRY DEFS */
       22     5168    1   DCL THM$ERRMSG ENTRY(1);
       23     5169    1   DCL THC$SPAN ENTRY(1) ALTRET;
       24     5170    1   DCL THC$SELECT ENTRY(1) ALTRET;
       25     5171    1   DCL THC$HELP ENTRY(1);
       26     5172    1   DCL THC$REPORT ENTRY(1);
       27     5173    1   DCL THC$THRESH ENTRY(1);
       28     5174    1   DCL THC$STATUS ENTRY;
       29     5175        /**/
       30     5176        /* VARIABLES */
       31     5177    1   DCL I UBIN;
       32     5178    1   DCL B$JIT$ PTR SYMREF;
PL6.E3A0      #001=THC$COMMANDS File=THC$COMMANDS.:E05TSI                        WED 07/30/97 06:06 Page:9
       33     5179        /**/
       34     5180        /* MACRO INVOCATIONS */
       35     5181        %VLP_NAME (FPTN=TH_VLP_ERRLOGX, LEN=31, STCLASS="STATIC SYMDEF");
       36     5208        %VLP_ACCT (FPTN=TH_VLP_ACCT, STCLASS="STATIC SYMDEF");
       37     5221        %FPT_FID (FPTN=FPT_FID, ACCT=TH_VLP_ACCT, NAME=TH_VLP_ERRLOGX,
       38     5222                  ASN=TH_OPEN_ERRLOG.V.ASN#);
       39     5245        %FPT_OPEN (FPTN=TH_OPEN_ERRLOG,
       40     5246                   STCLASS=SYMREF);
       41     5355        %PARSE$OUT (NAME=OUT$BLK,STCLASS="BASED(TOP$)");
       42     5400        %PARSE$SYM(NAME=OUT$SYM,STCLASS="BASED(TOP$)");
       43     5438        /**/
       44     5439        %EJECT;
PL6.E3A0      #001=THC$COMMANDS File=THC$COMMANDS.:E05TSI                        WED 07/30/97 06:06 Page:10
       45     5440    2        DO CASE(OUT$BLK.CODE);

   5440  2 000002   200003 470500                    LDP0    @TOP$,,AUTO
         2 000003   000000 471500                    LDP1    0,,PR0
         2 000004   100000 720100                    LXL0    0,,PR1
         2 000005   000015 100003                    CMPX0   13,DU
         2 000006   000010 602010 2                  TNC     s:5440+6,X0
         2 000007   000237 710000 2                  TRA     RET_LBL
         2 000010   000237 710000 2                  TRA     RET_LBL
         2 000011   000025 710000 2                  TRA     s:5442
         2 000012   000056 710000 2                  TRA     s:5448
         2 000013   000065 710000 2                  TRA     s:5450
         2 000014   000072 710000 2                  TRA     s:5452
         2 000015   000101 710000 2                  TRA     s:5454
         2 000016   000237 710000 2                  TRA     RET_LBL
         2 000017   000106 710000 2                  TRA     s:5456
         2 000020   000113 710000 2                  TRA     s:5458
         2 000021   000117 710000 2                  TRA     s:5461
         2 000022   000203 710000 2                  TRA     s:5495
         2 000023   000053 710000 2                  TRA     s:5446
         2 000024   000154 710000 2                  TRA     s:5482

       46     5441    2           CASE(1);                        /* MULTIPLE COMMANDS                  */

       47     5442    3              DO I = 0 TO OUT$BLK.NSUBLKS - 1;

   5442  2 000025   200004 450100                    STZ     I,,AUTO
         2 000026   000043 710000 2                  TRA     s:5444+3

       48     5443    3                 CALL THC$COMMANDS(OUT$BLK.SUBLK$(I));

   5443  2 000027   200003 470500                    LDP0    @TOP$,,AUTO
         2 000030   000000 471500                    LDP1    0,,PR0
         2 000031   200004 720100                    LXL0    I,,AUTO
         2 000032   100003 633510                    EPPR3   3,X0,PR1
         2 000033   200006 453500                    STP3    I+2,,AUTO
         2 000034   200006 630500                    EPPR0   I+2,,AUTO
PL6.E3A0      #001=THC$COMMANDS File=THC$COMMANDS.:E05TSI                        WED 07/30/97 06:06 Page:11
         2 000035   000017 631400 xsym               EPPR1   B_VECTNIL+15
         2 000036   000000 701000 2                  TSX1    s:8
         2 000037   000000 011000                    NOP     0

       49     5444    3              END;                         /* DO I                               */

   5444  2 000040   200004 235100                    LDA     I,,AUTO
         2 000041   000001 035007                    ADLA    1,DL
         2 000042   200004 755100                    STA     I,,AUTO
         2 000043   200003 470500                    LDP0    @TOP$,,AUTO
         2 000044   000000 471500                    LDP1    0,,PR0
         2 000045   100001 236100                    LDQ     1,,PR1
         2 000046   000022 772000                    QRL     18
         2 000047   200004 116100                    CMPQ    I,,AUTO
         2 000050   000052 600000 2                  TZE     s:5444+10
         2 000051   000027 603000 2                  TRC     s:5443
         2 000052   000237 710000 2                  TRA     RET_LBL

       50     5445    2           CASE(%END_CMD);

       51     5446    2              TH_ENDFLAG = %TRUE;

   5446  2 000053   400000 236003                    LDQ     -131072,DU
         2 000054   000000 756000 xsym               STQ     TH_ENDFLAG
         2 000055   000237 710000 2                  TRA     RET_LBL

       52     5447    2           CASE(%HELP_CMD);

       53     5448    2              CALL THC$HELP(OUT$BLK.SUBLK$(0));

   5448  2 000056   100003 633500                    EPPR3   3,,PR1
         2 000057   200006 453500                    STP3    I+2,,AUTO
         2 000060   200006 630500                    EPPR0   I+2,,AUTO
         2 000061   000017 631400 xsym               EPPR1   B_VECTNIL+15
         2 000062   000000 701000 xent               TSX1    THC$HELP
         2 000063   000000 011000                    NOP     0
         2 000064   000237 710000 2                  TRA     RET_LBL
PL6.E3A0      #001=THC$COMMANDS File=THC$COMMANDS.:E05TSI                        WED 07/30/97 06:06 Page:12

       54     5449    2           CASE(%REPORT_CMD);

       55     5450    2              CALL THC$REPORT(TOP$);

   5450  2 000065   200003 630500                    EPPR0   @TOP$,,AUTO
         2 000066   000017 631400 xsym               EPPR1   B_VECTNIL+15
         2 000067   000000 701000 xent               TSX1    THC$REPORT
         2 000070   000000 011000                    NOP     0
         2 000071   000237 710000 2                  TRA     RET_LBL

       56     5451    2           CASE(%SELECT_CMD);

       57     5452    2              CALL THC$SELECT(OUT$BLK.SUBLK$(0)) ALTRET(RET_LBL);

   5452  2 000072   100003 633500                    EPPR3   3,,PR1
         2 000073   200006 453500                    STP3    I+2,,AUTO
         2 000074   200006 630500                    EPPR0   I+2,,AUTO
         2 000075   000017 631400 xsym               EPPR1   B_VECTNIL+15
         2 000076   000000 701000 xent               TSX1    THC$SELECT
         2 000077   000237 702000 2                  TSX2    RET_LBL
         2 000100   000237 710000 2                  TRA     RET_LBL

       58     5453    2           CASE(%SPAN_CMD);

       59     5454    2              CALL THC$SPAN(TOP$) ALTRET(RET_LBL);

   5454  2 000101   200003 630500                    EPPR0   @TOP$,,AUTO
         2 000102   000017 631400 xsym               EPPR1   B_VECTNIL+15
         2 000103   000000 701000 xent               TSX1    THC$SPAN
         2 000104   000237 702000 2                  TSX2    RET_LBL
         2 000105   000237 710000 2                  TRA     RET_LBL

       60     5455    2           CASE(%THRESH_CMD);

       61     5456    2              CALL THC$THRESH(TOP$);

PL6.E3A0      #001=THC$COMMANDS File=THC$COMMANDS.:E05TSI                        WED 07/30/97 06:06 Page:13
   5456  2 000106   200003 630500                    EPPR0   @TOP$,,AUTO
         2 000107   000017 631400 xsym               EPPR1   B_VECTNIL+15
         2 000110   000000 701000 xent               TSX1    THC$THRESH
         2 000111   000000 011000                    NOP     0
         2 000112   000237 710000 2                  TRA     RET_LBL

       62     5457    2           CASE(%STATUS_CMD);

       63     5458    2              CALL THC$STATUS;

   5458  2 000113   000002 631400 xsym               EPPR1   B_VECTNIL+2
         2 000114   000000 701000 xent               TSX1    THC$STATUS
         2 000115   000000 011000                    NOP     0
         2 000116   000237 710000 2                  TRA     RET_LBL

       64     5459    2           CASE(%NULL_CMD);

       65     5460    2            CASE(%USE_CMD);

       66     5461    2             IF OUT$BLK.NSUBLKS <= 0

   5461  2 000117   100001 221100                    LDX1    1,,PR1
         2 000120   000130 601000 2                  TNZ     s:5467

       67     5462    3              THEN DO;

       68     5463    3                 VLP_SYSTAC.ACCT# = B$JIT.FACCN;

   5463  2 000121   000000 473400 xsym               LDP3    B$JIT$
         2 000122   300006 237100                    LDAQ    6,,PR3
         2 000123   000000 755000 xsym               STA     VLP_SYSTAC
         2 000124   000001 756000 xsym               STQ     VLP_SYSTAC+1

       69     5464    3                 TH_CHANGE_ACCOUNT = '1'B;

   5464  2 000125   400000 236003                    LDQ     -131072,DU
         2 000126   000000 756000 xsym               STQ     TH_CHANGE_ACCOUNT
PL6.E3A0      #001=THC$COMMANDS File=THC$COMMANDS.:E05TSI                        WED 07/30/97 06:06 Page:14

       70     5465    3                 END;

   5465  2 000127   000237 710000 2                  TRA     RET_LBL

       71     5466    3              ELSE DO;

       72     5467    3                 IF OUT$BLK.SUBLK$(0)->OUT$SYM.COUNT > 8

   5467  2 000130   100003 473500                    LDP3    3,,PR1
         2 000131   300004 236100                    LDQ     4,,PR3
         2 000132   777000 376003                    ANQ     -512,DU
         2 000133   011000 116003                    CMPQ    4608,DU
         2 000134   000143 602000 2                  TNC     s:5476

       73     5468    4                  THEN DO;

       74     5469    4                       CALL THM$ERRMSG(%E$TH_BAD_ACCOUNT_NAME);

   5469  2 000135   000001 630400 3                  EPPR0   1
         2 000136   000017 631400 xsym               EPPR1   B_VECTNIL+15
         2 000137   000000 701000 xent               TSX1    THM$ERRMSG
         2 000140   000000 011000                    NOP     0

       75     5470                            /*E* ERROR : THE-E$TH_BAD_ACCOUNT_NAME-O
       76     5471                                 MESSAGE: Bad account specification
       77     5472                            */
       78     5473    4                       TH_CHANGE_ACCOUNT = '0'B;

   5473  2 000141   000000 450000 xsym               STZ     TH_CHANGE_ACCOUNT

       79     5474    4                      END;

   5474  2 000142   000237 710000 2                  TRA     RET_LBL

       80     5475    4                  ELSE DO;

PL6.E3A0      #001=THC$COMMANDS File=THC$COMMANDS.:E05TSI                        WED 07/30/97 06:06 Page:15
       81     5476    4                      VLP_SYSTAC.ACCT# = OUT$BLK.SUBLK$(0)->OUT$SYM.TEXT;

   5476  2 000143   300004 236100                    LDQ     4,,PR3
         2 000144   000033 772000                    QRL     27
         2 000145   000000 622006                    EAX2    0,QL
         2 000146   040000 100540                    MLR     fill='040'O
         2 000147   300004 200012                    ADSC9   4,,PR3                   cn=1,n=*X2
         2 000150   000000 000010 xsym               ADSC9   VLP_SYSTAC               cn=0,n=8

       82     5477    4                      TH_CHANGE_ACCOUNT = '1'B;

   5477  2 000151   400000 236003                    LDQ     -131072,DU
         2 000152   000000 756000 xsym               STQ     TH_CHANGE_ACCOUNT

       83     5478    4                      END;

       84     5479    3                 END;

   5479  2 000153   000237 710000 2                  TRA     RET_LBL

       85     5480                                                /* DO NOTHING                         */
       86     5481    2            CASE(%FILE_CMD);

       87     5482    2                IF (OUT$BLK.NSUBLKS <= 0)

   5482  2 000154   100001 221100                    LDX1    1,,PR1
         2 000155   000164 601000 2                  TNZ     s:5490

       88     5483    3                   THEN DO;

       89     5484    3                     CALL THM$ERRMSG(%E$TH_BAD_FILE_NAME);

   5484  2 000156   000003 630400 3                  EPPR0   3
         2 000157   000017 631400 xsym               EPPR1   B_VECTNIL+15
         2 000160   000000 701000 xent               TSX1    THM$ERRMSG
         2 000161   000000 011000                    NOP     0

PL6.E3A0      #001=THC$COMMANDS File=THC$COMMANDS.:E05TSI                        WED 07/30/97 06:06 Page:16
       90     5485                          /*E*  ERROR: THE-E$TH_BAD_FILE_NAME-0
       91     5486                                MESSAGE:  Bad file name               */
       92     5487    3                     TH_CHANGE_FILE = '0'B;

   5487  2 000162   000000 450000 xsym               STZ     TH_CHANGE_FILE

       93     5488    3                   END;

   5488  2 000163   000237 710000 2                  TRA     RET_LBL

       94     5489    3                   ELSE DO;

       95     5490    3                     FPT_FID.TEXTFID_ = VECTOR( OUT$BLK.SUBLK$(0) -> OUT$SYM.TEXT);

   5490  2 000164   100003 473500                    LDP3    3,,PR1
         2 000165   300004 236100                    LDQ     4,,PR3
         2 000166   000033 772000                    QRL     27
         2 000167   000064 737000                    LLS     52
         2 000170   000140 135007                    SBLA    96,DL
         2 000171   200006 453500                    STP3    I+2,,AUTO
         2 000172   200006 236100                    LDQ     I+2,,AUTO
         2 000173   000004 036000 3                  ADLQ    4
         2 000174   000014 757000 1                  STAQ    FPT_FID+2

       96     5491    3                     CALL M$FID(FPT_FID);

   5491  2 000175   000012 630400 1                  EPPR0   FPT_FID
         2 000176   020001 713400                    CLIMB   8193
         2 000177   404400 401760                    pmme    nvectors=10

       97     5492    3                     TH_CHANGE_FILE = '1'B;

   5492  2 000200   400000 236003                    LDQ     -131072,DU
         2 000201   000000 756000 xsym               STQ     TH_CHANGE_FILE

       98     5493    3                   END;

PL6.E3A0      #001=THC$COMMANDS File=THC$COMMANDS.:E05TSI                        WED 07/30/97 06:06 Page:17
   5493  2 000202   000237 710000 2                  TRA     RET_LBL

       99     5494    2            CASE(%PROMPT_CMD);

      100     5495    2                IF OUT$BLK.SUBLK$(0)->OUT$SYM.COUNT = 0

   5495  2 000203   100003 473500                    LDP3    3,,PR1
         2 000204   300004 236100                    LDQ     4,,PR3
         2 000205   777000 316003                    CANQ    -512,DU
         2 000206   000217 601000 2                  TNZ     s:5502

      101     5496    3                  THEN DO;

      102     5497    3                          TH_PRMT.VFC = BITASC('036'O);

   5497  2 000207   036000 236003                    LDQ     15360,DU
         2 000210   000000 552040 xsym               STBQ    TH_PRMT,'40'O

      103     5498    3                          TH_PRMT.TEXT = ' ';

   5498  2 000211   040000 100400                    MLR     fill='040'O
         2 000212   000035 000001 xsym               ADSC9   B_VECTNIL+29             cn=0,n=1
         2 000213   000000 200036 xsym               ADSC9   TH_PRMT                  cn=1,n=30

      104     5499    3                          TH_PRMT_SIZE = 1;

   5499  2 000214   000001 235007                    LDA     1,DL
         2 000215   000000 755000 xsym               STA     TH_PRMT_SIZE

      105     5500    3                       END;

   5500  2 000216   000235 710000 2                  TRA     s:5506

      106     5501    3                  ELSE DO;

      107     5502    3                         TH_PRMT.TEXT= OUT$BLK.SUBLK$(0)->OUT$SYM.TEXT;

PL6.E3A0      #001=THC$COMMANDS File=THC$COMMANDS.:E05TSI                        WED 07/30/97 06:06 Page:18
   5502  2 000217   300004 236100                    LDQ     4,,PR3
         2 000220   000033 772000                    QRL     27
         2 000221   000000 621006                    EAX1    0,QL
         2 000222   040000 100540                    MLR     fill='040'O
         2 000223   300004 200011                    ADSC9   4,,PR3                   cn=1,n=*X1
         2 000224   000000 200036 xsym               ADSC9   TH_PRMT                  cn=1,n=30

      108     5503    3                         TH_PRMT.VFC = BITASC('036'O);

   5503  2 000225   036000 236003                    LDQ     15360,DU
         2 000226   000000 552040 xsym               STBQ    TH_PRMT,'40'O

      109     5504    3                          TH_PRMT_SIZE = OUT$BLK.SUBLK$(0)->OUT$SYM.COUNT+ 1;

   5504  2 000227   000000 471500                    LDP1    0,,PR0
         2 000230   100003 473500                    LDP3    3,,PR1
         2 000231   300004 236100                    LDQ     4,,PR3
         2 000232   000033 772000                    QRL     27
         2 000233   000001 036007                    ADLQ    1,DL
         2 000234   000000 756000 xsym               STQ     TH_PRMT_SIZE

      110     5505    3                       END;

      111     5506    2                   TH_PRMT_FLAG = '1'B;

   5506  2 000235   400000 236003                    LDQ     -131072,DU
         2 000236   000000 756000 xsym               STQ     TH_PRMT_FLAG

      112     5507    2        END;                               /* DO CASE                            */

      113     5508    1   RET_LBL:
      114     5509    1        RETURN;

   5509  2 000237   000000 702200 xent  RET_LBL      TSX2  ! X66_ARET
      115     5510    1   END THC$COMMANDS;
      116     5511        %EOD;

PL6.E3A0      #001=THC$COMMANDS File=THC$COMMANDS.:E05TSI                        WED 07/30/97 06:06 Page:19
--  Include file information  --

   TH_PERR_C.:E05TOU  is referenced.
   B_STRINGS_C.:E05TOU  is referenced.
   TH_SUBS_C.:E05TOU  is referenced.
   TH_DATA_R.:E05TOU  cannot be made into a system file and is referenced.
   B$JIT.:E05TOU  cannot be made into a system file and is referenced.
   F$DCB.:E05TOU  cannot be made into a system file and is referenced.
   B_ERRORS_C.:E05TOU  is referenced.
   XU_MACRO_C.:E05TOU  is referenced.
   CP_6.:E05TOU  cannot be made into a system file and is referenced.
   B$JIT_C.:E05TOU  was found in the system file and is referenced.
   CP_6_C.:E05TOU  was found in the system file and is referenced.
      No diagnostics issued in procedure THC$COMMANDS.
PL6.E3A0      #001=THC$COMMANDS File=THC$COMMANDS.:E05TSI                        WED 07/30/97 06:06 Page:20

 **** Variables and constants ****

  ****  Section 001  Data  THC$COMMANDS

  ****  Scalars and arrays  ****
OctLoc.c.b A Datatyp(siz) R M Lvl/name                 OctLoc.c.b A Datatyp(siz) R M Lvl/name

    12-0-0/d STRC(864)   r     1 FPT_FID                   10-0-0/c STRC(72)    r     1 TH_VLP_ACCT
     0-0-0/c STRC(288)   r     1 TH_VLP_ERRLOGX

  ****  Auto variables  ****

  ****  Scalars and arrays  ****
OctLoc.c.b A Datatyp(siz) R M Lvl/name                 OctLoc.c.b A Datatyp(siz) R M Lvl/name

     3-0-0/w PTR         r     1 @TOP$                      4-0-0/w UBIN        r     1 I
    *0-0-0/w PTR         r     1 TOP$

  ****  SYMREF variables  ****

  ****  Scalars and arrays  ****
OctLoc.c.b A Datatyp(siz) R M Lvl/name                 OctLoc.c.b A Datatyp(siz) R M Lvl/name

     0-0-0/w PTR         r     1 B$JIT$                     0-0-0/b BIT         r     1 TH_CHANGE_ACCOUNT
     0-0-0/b BIT         r     1 TH_CHANGE_FILE             0-0-0/b BIT         r     1 TH_ENDFLAG
     0-0-0/d STRC(2088)  r     1 TH_OPEN_ERRLOG             0-0-0/c STRC(279)   r     1 TH_PRMT
     0-0-0/b BIT         r     1 TH_PRMT_FLAG               0-0-0/w UBIN        r     1 TH_PRMT_SIZE
     0-0-0/c STRC(72)    r     1 VLP_SYSTAC

  ****  BASED and DCB variables  ****

  ****  Scalars and arrays  ****
OctLoc.c.b A Datatyp(siz) R M Lvl/name                 OctLoc.c.b A Datatyp(siz) R M Lvl/name

     0-0-0/d STRC(8856)  r     1 B$JIT                      0-0-0/d ASTR(3528)  r     1 F$DCB
     0-0-0/w STRC(144)   r     1 OUT$BLK                    0-0-0/w ASTR(153)   r     1 OUT$SYM

PL6.E3A0      #001=THC$COMMANDS File=THC$COMMANDS.:E05TSI                        WED 07/30/97 06:06 Page:21

   Procedure THC$COMMANDS requires 160 words for executable code.
   Procedure THC$COMMANDS requires 8 words of local(AUTO) storage.
PL6.E3A0      #001=THC$COMMANDS File=THC$COMMANDS.:E05TSI                        WED 07/30/97 06:06 Page:22
          *** CROSS REFERENCE LISTING ***
**     DENOTES     IDENTIFIER DEFINITION
<<                 IDENTIFIER'S VALUE SET
>>                 IDENTIFIER'S VALUE USED
<>                 IDENTIFIER SET AND/OR USED
--                 IDENTIFIER REFERENCED
PL6.E3A0      #001=THC$COMMANDS File=THC$COMMANDS.:E05TSI                        WED 07/30/97 06:06 Page:23
          MINI XREF LISTING

B$JIT.CPFLAGS1.SLEAZE
      4483**DCL      4483--REDEF
B$JIT.ERR.MID
      4390**DCL      4390--REDEF
B$JIT.FACCN
      4389**DCL      5463>>ASSIGN
B$JIT.JRESPEAK
      4551**DCL      4552--REDEF
B$JIT.ORIGINATOR_PORT.FROM_CR
      4660**DCL      4660--REDEF    4661--REDEF
B$JIT.PNR
      4564**DCL      4564--REDEF
B$JIT.TSLINE
      4658**DCL      4659--REDEF
B$JIT$
      5178**DCL      4384--IMP-PTR  5463>>ASSIGN
F$DCB.ACTPOS
      4352**DCL      4352--REDEF
F$DCB.ARS
      4327**DCL      4327--REDEF
F$DCB.ATTR
      4345**DCL      4346--REDEF
F$DCB.BORROW
      4360**DCL      4360--REDEF    4360--REDEF    4360--REDEF
F$DCB.DCBNAME.L
      4374**DCL      4374--IMP-SIZ
F$DCB.EOMCHAR
      4331**DCL      4331--REDEF
F$DCB.FLDID
      4355**DCL      4355--REDEF
F$DCB.FORM$
      4349**DCL      4349--REDEF
PL6.E3A0      #001=THC$COMMANDS File=THC$COMMANDS.:E05TSI                        WED 07/30/97 06:06 Page:24
F$DCB.FSECT
      4365**DCL      4365--REDEF
F$DCB.FSN
      4342**DCL      4342--REDEF    4342--REDEF    4343--REDEF
F$DCB.HEADER$
      4348**DCL      4348--REDEF
F$DCB.IXTNSIZE
      4346**DCL      4346--REDEF
F$DCB.LASTSTA$
      4336**DCL      4336--REDEF
F$DCB.LVL
      4361**DCL      4361--REDEF
F$DCB.NAME.C
      4336**DCL      4336--REDEF
F$DCB.NOEOF
      4357**DCL      4357--REDEF
F$DCB.NRECS
      4347**DCL      4347--REDEF
F$DCB.NRECX
      4366**DCL      4366--REDEF
F$DCB.OHDR
      4358**DCL      4358--REDEF
F$DCB.ORG
      4341**DCL      4341--REDEF
F$DCB.PRECNO
      4364**DCL      4364--REDEF
F$DCB.RCSZ
      4369**DCL      4369--REDEF
F$DCB.RES
      4337**DCL      4337--REDEF
F$DCB.SETX
      4349**DCL      4349--REDEF
F$DCB.TAB$
      4348**DCL      4349--REDEF
F$DCB.TDA
      4363**DCL      4363--REDEF
PL6.E3A0      #001=THC$COMMANDS File=THC$COMMANDS.:E05TSI                        WED 07/30/97 06:06 Page:25
F$DCB.WSN
      4338**DCL      4338--REDEF
FPT_FID
      5233**DCL      5491<>CALL
FPT_FID.TEXTFID_
      5233**DCL      5490<<ASSIGN
FPT_FID.V
      5237**DCL      5233--DCLINIT
I
      5177**DCL      5442<<DOINDEX  5443>>CALL
M$FID
        84**DCL-ENT  5491--CALL
OUT$BLK.CODE
      5369**DCL      5440>>DOCASE
OUT$BLK.NSUBLKS
      5373**DCL      5442>>DOINDEX  5461>>IF       5482>>IF
OUT$BLK.SUBLK$
      5394**DCL      5443<>CALL     5448<>CALL     5452<>CALL     5467>>IF       5476>>ASSIGN   5476>>ASSIGN
      5490>>ASSIGN   5490>>ASSIGN   5495>>IF       5502>>ASSIGN   5502>>ASSIGN   5504>>ASSIGN
OUT$SYM.COUNT
      5430**DCL      5433--IMP-SIZ  5467>>IF       5476>>ASSIGN   5490>>ASSIGN   5495>>IF       5502>>ASSIGN
      5504>>ASSIGN
OUT$SYM.TEXT
      5433**DCL      5476>>ASSIGN   5490--ASSIGN   5502>>ASSIGN
RET_LBL
      5509**LABEL    5452--CALLALT  5454--CALLALT
THC$COMMANDS
         8**PROC     5443--CALL
THC$HELP
      5171**DCL-ENT  5448--CALL
THC$REPORT
      5172**DCL-ENT  5450--CALL
THC$SELECT
      5170**DCL-ENT  5452--CALL
THC$SPAN
      5169**DCL-ENT  5454--CALL
PL6.E3A0      #001=THC$COMMANDS File=THC$COMMANDS.:E05TSI                        WED 07/30/97 06:06 Page:26
THC$STATUS
      5174**DCL-ENT  5458--CALL
THC$THRESH
      5173**DCL-ENT  5456--CALL
THM$ERRMSG
      5168**DCL-ENT  5469--CALL     5484--CALL
TH_CHANGE_ACCOUNT
      4740**DCL      5464<<ASSIGN   5473<<ASSIGN   5477<<ASSIGN
TH_CHANGE_FILE
      4740**DCL      5487<<ASSIGN   5492<<ASSIGN
TH_CONSTRAINTS.E_BY_B
      4676**DCL      4676--REDEF
TH_CONSTRAINTS.M_BY_B
      4675**DCL      4675--REDEF
TH_CONSTRAINTS.TYPES
      4673**DCL      4673--REDEF
TH_DEFAULT.E_BY_B
      4684**DCL      4684--REDEF
TH_DEFAULT.M_BY_B
      4683**DCL      4683--REDEF
TH_DEFAULT.TYPES
      4681**DCL      4681--REDEF
TH_ENDFLAG
      4697**DCL      5446<<ASSIGN
TH_OPEN_ERRLOG.ACSVEH_
      5313**DCL      5314--REDEF
TH_OPEN_ERRLOG.ALTKEYS_
      5319**DCL      5320--REDEF    5320--REDEF
TH_OPEN_ERRLOG.HDR_
      5318**DCL      5319--REDEF
TH_OPEN_ERRLOG.TAB_
      5317**DCL      5318--REDEF
TH_OPEN_ERRLOG.UHL_
      5311**DCL      5312--REDEF    5312--REDEF
TH_OPEN_ERRLOG.V.ASN#
      5330**DCL      5236--DCLINIT
PL6.E3A0      #001=THC$COMMANDS File=THC$COMMANDS.:E05TSI                        WED 07/30/97 06:06 Page:27
TH_OPEN_ERRLOG.V.FSN#
      5351**DCL      5351--REDEF    5351--REDEF
TH_OPEN_ERRLOG.WSN_
      5317**DCL      5317--REDEF
TH_PRMT.TEXT
      4741**DCL      5498<<ASSIGN   5502<<ASSIGN
TH_PRMT.VFC
      4740**DCL      5497<<ASSIGN   5503<<ASSIGN
TH_PRMT_FLAG
      4740**DCL      5506<<ASSIGN
TH_PRMT_SIZE
      4741**DCL      5499<<ASSIGN   5504<<ASSIGN
TH_SAVE.E_BY_B
      4692**DCL      4692--REDEF
TH_SAVE.M_BY_B
      4690**DCL      4690--REDEF
TH_SAVE.TYPES
      4688**DCL      4689--REDEF
TH_VLP_ACCT
      5219**DCL      5234--DCLINIT
TH_VLP_ERRLOGX
      5206**DCL      5234--DCLINIT
TH_XSA_BUF_VECTOR
      4708**DCL      4708--REDEF
TOP$
         9**DCL         8--PROC     5361--IMP-PTR  5407--IMP-PTR  5440>>DOCASE   5442>>DOINDEX  5443>>CALL
      5448>>CALL     5450<>CALL     5452>>CALL     5454<>CALL     5456<>CALL     5461>>IF       5467>>IF
      5476>>ASSIGN   5476>>ASSIGN   5482>>IF       5490>>ASSIGN   5490>>ASSIGN   5495>>IF       5502>>ASSIGN
      5502>>ASSIGN   5504>>ASSIGN
VLP_SYSTAC.ACCT#
      4725**DCL      5463<<ASSIGN   5476<<ASSIGN

PL6.E3A0      #002=THC$HELP File=THC$COMMANDS.:E05TSI                            WED 07/30/97 06:07 Page:28
      117        1        /*T***********************************************************/
      118        2        /*T*                                                         */
      119        3        /*T* Copyright (c) Bull HN Information Systems Inc., 1997    */
      120        4        /*T*                                                         */
      121        5        /*T***********************************************************/
      122        6        THC$HELP: PROC(TOP$);
      123        7        /**/
      124        8        /* PARAMS */
      125        9    1   DCL TOP$ PTR;
      126       10        /**/
      127       11        /* INCLUDE FILES */
      128       12        %INCLUDE CP_6;
      129       93        %INCLUDE TH_DATA_R;
      130      171        %INCLUDE TH_SUBS_C;
      131      553        %INCLUDE TH_PERR_C;
      132      594        %INCLUDE XU_MACRO_C;
      133     3700        %INCLUDE XUH_MACRO_C;
      134     3784        /**/
      135     3785        /* ENTRY DEFS */
      136     3786    1   DCL THM$ERRMSG ENTRY(1);
      137     3787    1   DCL XUR$HELP ENTRY(1) ALTRET;
      138     3788    1   DCL XUR$MOREMSG ENTRY(1) ALTRET;
      139     3789    1   DCL XUR$ALLMSG ENTRY(1) ALTRET;
      140     3790        /**/
      141     3791        /* VARS */
      142     3792    1   DCL ERR# UBIN;
      143     3793        /**/
      144     3794        /* MACROS */
      145     3795        %PARSE$OUT (NAME=OUT$BLK,STCLASS="BASED(TOP$)");
      146     3840        %PARSE$SYM (NAME=OUT$SYM,STCLASS=BASED);
      147     3878        %XUH_PARAM (PROCNAME=ELANNAME,OUTDCB1=M$DO,OUTDCB2=M$LO);
      148     3939        %VLP_NAME (FPTN=ELANNAME,NAME='ELAN');
      149     3966        /**/
      150     3967        /* DCBS */
      151     3968    1   DCL M$LO DCB;
      152     3969    1   DCL M$DO DCB;
      153     3970        /**/
PL6.E3A0      #002=THC$HELP File=THC$COMMANDS.:E05TSI                            WED 07/30/97 06:07 Page:29
      154     3971        %EJECT;
PL6.E3A0      #002=THC$HELP File=THC$COMMANDS.:E05TSI                            WED 07/30/97 06:07 Page:30
      155     3972    2        DO CASE(OUT$BLK.CODE);
      156     3973    2           CASE(%HELP);
      157     3974    2              XUH_PARAM.HELP$ = OUT$BLK.SUBLK$(0)->OUT$SYM.TEXTC$;
      158     3975    2              CALL XUR$HELP(XUH_PARAM);
      159     3976    2           CASE(%SINGL_Q);
      160     3977    2              CALL XUR$MOREMSG(XUH_PARAM) ALTRET(NO_MORE);
      161     3978    2           CASE(%DOUBL_Q);
      162     3979    2              CALL XUR$ALLMSG(XUH_PARAM) ALTRET(NO_MORE);
      163     3980    2           END;  /* DO CASE */
      164     3981    1   RET: RETURN;
      165     3982    1   NO_MORE:
      166     3983    1        CALL THM$ERRMSG(%E$TH_NO_MORE);
      167     3984        /*E* ERROR: THE-E$TH_NO_MORE-0
      168     3985             MESSAGE: No more help available.
      169     3986             DESCRIPTION: See message.        */
      170     3987    1        RETURN;
      171     3988    1   END THC$HELP;
      172     3989        %EOD;

PL6.E3A0      #002=THC$HELP File=THC$COMMANDS.:E05TSI                            WED 07/30/97 06:07 Page:31
--  Include file information  --

   XUH_MACRO_C.:E05TOU  is referenced.
   XU_MACRO_C.:E05TOU  is referenced.
   TH_PERR_C.:E05TOU  is referenced.
   B_STRINGS_C.:E05TOU  is referenced.
   TH_SUBS_C.:E05TOU  is referenced.
   TH_DATA_R.:E05TOU  cannot be made into a system file and is referenced.
   CP_6.:E05TOU  cannot be made into a system file and is referenced.
   B$JIT_C.:E05TOU  was found in the system file and is never referenced.
   CP_6_C.:E05TOU  was found in the system file and is referenced.
      No diagnostics issued in procedure THC$HELP.

   Procedure THC$HELP requires 35 words for executable code.
   Procedure THC$HELP requires 6 words of local(AUTO) storage.

PL6.E3A0      #002=THC$HELP File=THC$COMMANDS.:E05TSI                            WED 07/30/97 06:07 Page:32

 Object Unit name= THC$HELP                                   File name= THC$COMMANDS.:E05TOU
 UTS= JUL 30 '97 06:07:14.84 WED                              Compiler= PL-6/E31         Sev=      00
 SharedLib= :SHARED_SYSTEM                                    Alt SharedLib=


    ****  Control sections  ****

 Sect   Type Bound  Init  Size OctSiz  Section name(segment info)
    0   DCB   even  none     0      0  M$UC
    1   Data  even  none    60     74  THC$HELP
    2   DCB   even  none     0      0  M$LO
    3   DCB   even  none     0      0  M$DO
    4   Proc  even  none    35     43  THC$HELP
    5  RoData even  none     3      3  THC$HELP

    ****  Entry defs  ****

                              Check   Calling
                             calling  sequence
  Sect OctLoc Primary Altret sequence   type   Parms  Name
     4      0   yes            yes      Std        1  THC$HELP

  ****  Entry refs  ****

         Check        Calling
        calling       sequence
Altret sequence SRef   type   Args  Name
 yes     yes           Std       1 XUR$HELP
 yes     yes           Std       1 XUR$MOREMSG
         yes           Std       1 THM$ERRMSG
 yes     yes           Std       1 XUR$ALLMSG
                       nStd      0 X66_AUTO_1
                       Std       0 B_CONSPOOL_D
                       nStd      0 X66_ARET
PL6.E3A0      #002=THC$HELP File=THC$COMMANDS.:E05TSI                            WED 07/30/97 06:07 Page:33

  ****  Data refs  ****

  Flags:  r = read only, s = secondary
Flgs Name                             Flgs Name                             Flgs Name
     M$UC                                  TH_XSA_BUF_VECTOR                     M$LO
     M$DO                                  B_VECTNIL

  ****  Segment refs  ****

  Flags:  r = read only, s = secondary
Flgs Name                             Flgs Name                             Flgs Name
     ISSID                                 NULLSID
PL6.E3A0      #002=THC$HELP File=THC$COMMANDS.:E05TSI                            WED 07/30/97 06:07 Page:34


      117        1        /*T***********************************************************/
      118        2        /*T*                                                         */
      119        3        /*T* Copyright (c) Bull HN Information Systems Inc., 1997    */
      120        4        /*T*                                                         */
      121        5        /*T***********************************************************/
      122        6        THC$HELP: PROC(TOP$);

      6  4 000000   000000 700200 xent  THC$HELP     TSX0  ! X66_AUTO_1
         4 000001   000006 000001                    ZERO    6,1

      123        7        /**/
      124        8        /* PARAMS */
      125        9    1   DCL TOP$ PTR;
      126       10        /**/
      127       11        /* INCLUDE FILES */
      128       12        %INCLUDE CP_6;
      129       93        %INCLUDE TH_DATA_R;
      130      171        %INCLUDE TH_SUBS_C;
      131      553        %INCLUDE TH_PERR_C;
      132      594        %INCLUDE XU_MACRO_C;
      133     3700        %INCLUDE XUH_MACRO_C;
      134     3784        /**/
      135     3785        /* ENTRY DEFS */
      136     3786    1   DCL THM$ERRMSG ENTRY(1);
      137     3787    1   DCL XUR$HELP ENTRY(1) ALTRET;
      138     3788    1   DCL XUR$MOREMSG ENTRY(1) ALTRET;
      139     3789    1   DCL XUR$ALLMSG ENTRY(1) ALTRET;
      140     3790        /**/
      141     3791        /* VARS */
      142     3792    1   DCL ERR# UBIN;
      143     3793        /**/
      144     3794        /* MACROS */
      145     3795        %PARSE$OUT (NAME=OUT$BLK,STCLASS="BASED(TOP$)");
      146     3840        %PARSE$SYM (NAME=OUT$SYM,STCLASS=BASED);
      147     3878        %XUH_PARAM (PROCNAME=ELANNAME,OUTDCB1=M$DO,OUTDCB2=M$LO);
      148     3939        %VLP_NAME (FPTN=ELANNAME,NAME='ELAN');
PL6.E3A0      #002=THC$HELP File=THC$COMMANDS.:E05TSI                            WED 07/30/97 06:07 Page:35
      149     3966        /**/
      150     3967        /* DCBS */
      151     3968    1   DCL M$LO DCB;
      152     3969    1   DCL M$DO DCB;
      153     3970        /**/
      154     3971        %EJECT;
PL6.E3A0      #002=THC$HELP File=THC$COMMANDS.:E05TSI                            WED 07/30/97 06:07 Page:36
      155     3972    2        DO CASE(OUT$BLK.CODE);

   3972  4 000002   200003 470500                    LDP0    @TOP$,,AUTO
         4 000003   000000 471500                    LDP1    0,,PR0
         4 000004   100000 720100                    LXL0    0,,PR1
         4 000005   000004 100003                    CMPX0   4,DU
         4 000006   000010 602010 4                  TNC     s:3972+6,X0
         4 000007   000035 710000 4                  TRA     RET
         4 000010   000035 710000 4                  TRA     RET
         4 000011   000014 710000 4                  TRA     s:3974
         4 000012   000024 710000 4                  TRA     s:3977
         4 000013   000031 710000 4                  TRA     s:3979

      156     3973    2           CASE(%HELP);

      157     3974    2              XUH_PARAM.HELP$ = OUT$BLK.SUBLK$(0)->OUT$SYM.TEXTC$;

   3974  4 000014   100003 473500                    LDP3    3,,PR1
         4 000015   300003 236100                    LDQ     3,,PR3
         4 000016   000011 756000 1                  STQ     XUH_PARAM+9

      158     3975    2              CALL XUR$HELP(XUH_PARAM);

   3975  4 000017   000000 630400 5                  EPPR0   0
         4 000020   000017 631400 xsym               EPPR1   B_VECTNIL+15
         4 000021   000000 701000 xent               TSX1    XUR$HELP
         4 000022   000000 011000                    NOP     0
         4 000023   000035 710000 4                  TRA     RET

      159     3976    2           CASE(%SINGL_Q);

      160     3977    2              CALL XUR$MOREMSG(XUH_PARAM) ALTRET(NO_MORE);

   3977  4 000024   000000 630400 5                  EPPR0   0
         4 000025   000017 631400 xsym               EPPR1   B_VECTNIL+15
         4 000026   000000 701000 xent               TSX1    XUR$MOREMSG
         4 000027   000036 702000 4                  TSX2    NO_MORE
PL6.E3A0      #002=THC$HELP File=THC$COMMANDS.:E05TSI                            WED 07/30/97 06:07 Page:37
         4 000030   000035 710000 4                  TRA     RET

      161     3978    2           CASE(%DOUBL_Q);

      162     3979    2              CALL XUR$ALLMSG(XUH_PARAM) ALTRET(NO_MORE);

   3979  4 000031   000000 630400 5                  EPPR0   0
         4 000032   000017 631400 xsym               EPPR1   B_VECTNIL+15
         4 000033   000000 701000 xent               TSX1    XUR$ALLMSG
         4 000034   000036 702000 4                  TSX2    NO_MORE

      163     3980    2           END;  /* DO CASE */

      164     3981    1   RET: RETURN;

   3981  4 000035   000000 702200 xent  RET          TSX2  ! X66_ARET

      165     3982    1   NO_MORE:
      166     3983    1        CALL THM$ERRMSG(%E$TH_NO_MORE);

   3983  4 000036   000002 630400 5     NO_MORE      EPPR0   2
         4 000037   000017 631400 xsym               EPPR1   B_VECTNIL+15
         4 000040   000000 701000 xent               TSX1    THM$ERRMSG
         4 000041   000000 011000                    NOP     0

      167     3984        /*E* ERROR: THE-E$TH_NO_MORE-0
      168     3985             MESSAGE: No more help available.
      169     3986             DESCRIPTION: See message.        */
      170     3987    1        RETURN;

   3987  4 000042   000000 702200 xent               TSX2  ! X66_ARET
      171     3988    1   END THC$HELP;
      172     3989        %EOD;

PL6.E3A0      #002=THC$HELP File=THC$COMMANDS.:E05TSI                            WED 07/30/97 06:07 Page:38
--  Include file information  --

   XUH_MACRO_C.:E05TOU  is referenced.
   XU_MACRO_C.:E05TOU  is referenced.
   TH_PERR_C.:E05TOU  is referenced.
   B_STRINGS_C.:E05TOU  is referenced.
   TH_SUBS_C.:E05TOU  is referenced.
   TH_DATA_R.:E05TOU  cannot be made into a system file and is referenced.
   CP_6.:E05TOU  cannot be made into a system file and is referenced.
   B$JIT_C.:E05TOU  was found in the system file and is never referenced.
   CP_6_C.:E05TOU  was found in the system file and is referenced.
      No diagnostics issued in procedure THC$HELP.
PL6.E3A0      #002=THC$HELP File=THC$COMMANDS.:E05TSI                            WED 07/30/97 06:07 Page:39

 **** Variables and constants ****

  ****  Section 001  Data  THC$HELP

  ****  Scalars and arrays  ****
OctLoc.c.b A Datatyp(siz) R M Lvl/name                 OctLoc.c.b A Datatyp(siz) R M Lvl/name

    72-0-0/c STRC(45)    r     1 ELANNAME                   0-0-0/d STRC(2052)  r     1 XUH_PARAM

  ****  Auto variables  ****

  ****  Scalars and arrays  ****
OctLoc.c.b A Datatyp(siz) R M Lvl/name                 OctLoc.c.b A Datatyp(siz) R M Lvl/name

     3-0-0/w PTR         r     1 @TOP$                     *0-0-0/w PTR         r     1 TOP$

  ****  BASED and DCB variables  ****

  ****  Scalars and arrays  ****
OctLoc.c.b A Datatyp(siz) R M Lvl/name                 OctLoc.c.b A Datatyp(siz) R M Lvl/name

     0-0-0N  NULL        r     1 M$DO                       0-0-0N  NULL        r     1 M$LO
     0-0-0/w STRC(144)   r     1 OUT$BLK                    0-0-0/w ASTR(153)   r     1 OUT$SYM


   Procedure THC$HELP requires 35 words for executable code.
   Procedure THC$HELP requires 6 words of local(AUTO) storage.
PL6.E3A0      #002=THC$HELP File=THC$COMMANDS.:E05TSI                            WED 07/30/97 06:07 Page:40
          *** CROSS REFERENCE LISTING ***
**     DENOTES     IDENTIFIER DEFINITION
<<                 IDENTIFIER'S VALUE SET
>>                 IDENTIFIER'S VALUE USED
<>                 IDENTIFIER SET AND/OR USED
--                 IDENTIFIER REFERENCED
PL6.E3A0      #002=THC$HELP File=THC$COMMANDS.:E05TSI                            WED 07/30/97 06:07 Page:41
          MINI XREF LISTING

ELANNAME
      3964**DCL      3902--DCLINIT
NO_MORE
      3983**LABEL    3977--CALLALT  3979--CALLALT
OUT$BLK.CODE
      3809**DCL      3972>>DOCASE
OUT$BLK.SUBLK$
      3834**DCL      3974>>ASSIGN
OUT$SYM.COUNT
      3870**DCL      3873--IMP-SIZ
OUT$SYM.TEXTC$
      3865**DCL      3974>>ASSIGN
THM$ERRMSG
      3786**DCL-ENT  3983--CALL
TH_CONSTRAINTS.E_BY_B
       104**DCL       104--REDEF
TH_CONSTRAINTS.M_BY_B
       103**DCL       103--REDEF
TH_CONSTRAINTS.TYPES
       101**DCL       101--REDEF
TH_DEFAULT.E_BY_B
       112**DCL       112--REDEF
TH_DEFAULT.M_BY_B
       111**DCL       111--REDEF
TH_DEFAULT.TYPES
       109**DCL       109--REDEF
TH_SAVE.E_BY_B
       120**DCL       120--REDEF
TH_SAVE.M_BY_B
       118**DCL       118--REDEF
TH_SAVE.TYPES
       116**DCL       117--REDEF
PL6.E3A0      #002=THC$HELP File=THC$COMMANDS.:E05TSI                            WED 07/30/97 06:07 Page:42
TH_XSA_BUF_VECTOR
       136**DCL       136--REDEF
TOP$
         9**DCL         6--PROC     3801--IMP-PTR  3972>>DOCASE   3974>>ASSIGN
XUH_PARAM
      3898**DCL      3975<>CALL     3977<>CALL     3979<>CALL
XUH_PARAM.HELP$
      3908**DCL      3974<<ASSIGN
XUR$ALLMSG
      3789**DCL-ENT  3979--CALL
XUR$HELP
      3787**DCL-ENT  3975--CALL
XUR$MOREMSG
      3788**DCL-ENT  3977--CALL

