PL6.E3A0      #008=THC$SPAN File=THC$COMMANDS.:E05TSI                            WED 07/30/97 06:12 Page:437
     2424        1        /*T***********************************************************/
     2425        2        /*T*                                                         */
     2426        3        /*T* Copyright (c) Bull HN Information Systems Inc., 1997    */
     2427        4        /*T*                                                         */
     2428        5        /*T***********************************************************/
     2429        6        THC$SPAN: PROC(TOP$) ALTRET;
     2430        7        /**/
     2431        8        /* PARAMS */
     2432        9    1   DCL TOP$ PTR;
     2433       10        /**/
     2434       11        /* INCLUDE FILES */
     2435       12        %INCLUDE CP_6;
     2436       93        %INCLUDE XU_MACRO_C;
     2437     3199        %INCLUDE TH_SUBS_C;
     2438     3581        %INCLUDE TH_DATA_R;
     2439     3659        %INCLUDE TH_PERR_C;
     2440     3700        %INCLUDE XUD_UTS_M;
     2441     3782        /**/
     2442     3783        /* VARS */
     2443     3784    1   DCL I UBIN;
     2444     3785    1   DCL VALUE UBIN;
     2445     3786    1   DCL STOP UBIN WORD ;
     2446     3787    1   DCL TEMP UBIN WORD STATIC;
     2447     3788    1   DCL START UBIN WORD;
     2448     3789    1   DCL TBUF CHAR(5) STATIC;
     2449     3790    1   DCL DBUF CHAR(8) STATIC;
     2450     3791        /**/
     2451     3792        /* ENTRY DEFS */
     2452     3793    1   DCL THC$CVTUTS ENTRY(3) ALTRET;
     2453     3794    1   DCL THM$ERRMSG ENTRY(1);
     2454     3795        /**/
     2455     3796        /* FPT DEFS */
     2456     3797        %FPT_TIME (FPTN=CUR_TIME,
     2457     3798                   SOURCE=CLOCK,
     2458     3799                   DEST=UTS,
     2459     3800                   TSTAMP=TEMP);
     2460     3819        /**/
PL6.E3A0      #008=THC$SPAN File=THC$COMMANDS.:E05TSI                            WED 07/30/97 06:12 Page:438
     2461     3820        /* MACRO INVOCATIONS */
     2462     3821        %PARSE$OUT (NAME=OUT$BLK,STCLASS="BASED(TOP$)");
     2463     3866        %PARSE$SYM (NAME=OUT$SYM,STCLASS="BASED");
     2464     3904        %XUD$UTS_ENTRIES;
     2465     3936        %XUD_UTS_EQU;
     2466     3947        %EJECT;
PL6.E3A0      #008=THC$SPAN File=THC$COMMANDS.:E05TSI                            WED 07/30/97 06:12 Page:439
     2467     3948    1           START = TH_CONSTRAINTS.START;
     2468     3949    1           STOP = TH_CONSTRAINTS.STOP;
     2469     3950    2            DO CASE(OUT$BLK.SUBLK$(0)->OUT$BLK.CODE);
     2470     3951    2              CASE (%TIME_X);
     2471     3952    2                 CALL M$TIME (CUR_TIME);
     2472     3953    2                 CALL CHARBIN(I,OUT$BLK.SUBLK$(0)->OUT$BLK.SUBLK$(0)->
     2473     3954    2                                OUT$SYM.TEXT);
     2474     3955    3                 DO CASE (OUT$BLK.SUBLK$(0)->OUT$BLK.SUBLK$(1)->OUT$BLK.CODE);
     2475     3956    3                    CASE (%DAYS);
     2476     3957    3                      CALL XUD$UTS_ADJ_25TH (START, TH_DEFAULT.START, -(I*%
              3957                               UTS_25TH_DAY#));
     2477     3958    3                       STOP = TH_DEFAULT.STOP;
     2478     3959    3                    CASE (%WEEKS);
     2479     3960    3                      CALL XUD$UTS_ADJ_25TH (START, TH_DEFAULT.START, -(I*7*%
              3960                               UTS_25TH_DAY#));
     2480     3961    3                       STOP = TH_DEFAULT.STOP;
     2481     3962    3                    CASE (%MONTHS);
     2482     3963    3                      CALL XUD$UTS_ADJ_25TH (START, TH_DEFAULT.START, -(I*30*%
              3963                               UTS_25TH_DAY#));
     2483     3964    3                       STOP = TH_DEFAULT.STOP;
     2484     3965    3                    CASE (%YEAR);
     2485     3966    3                      CALL XUD$UTS_ADJ_25TH (START, TH_DEFAULT.START, -(I*365*%
              3966                               UTS_25TH_DAY#));
     2486     3967    3                       STOP = TH_DEFAULT.STOP;
     2487     3968    3                   CASE (%MINUTES);
     2488     3969    3                      CALL XUD$UTS_ADJ_25TH (START, TEMP, -(I*%UTS_25TH_MIN#));
     2489     3970    3                       STOP = TEMP;
     2490     3971    3                   CASE (%HOURS);
     2491     3972    3                      CALL XUD$UTS_ADJ_25TH (START, TEMP, -(I*%UTS_25TH_HOUR#));
     2492     3973    3                       STOP = TEMP;
     2493     3974    3                 END;                     /* OF DO CASE TIME_X */
     2494     3975    2              CASE (%TIME_N);
     2495     3976    3                 DO I = 0 TO OUT$BLK.SUBLK$(0)->OUT$BLK.NSUBLKS - 1;
     2496     3977    4                   DO CASE (OUT$BLK.SUBLK$(0)->OUT$BLK.SUBLK$(I)->
     2497     3978    4                            OUT$BLK.CODE);
     2498     3979    4                      CASE(%START);
     2499     3980    4                           CALL THC$CVTUTS(OUT$BLK.SUBLK$(0)->
PL6.E3A0      #008=THC$SPAN File=THC$COMMANDS.:E05TSI                            WED 07/30/97 06:12 Page:440
     2500     3981    4                             OUT$BLK.SUBLK$(I),-1,VALUE) ALTRET(ERR_LBL);
     2501     3982    4                           START = VALUE;
     2502     3983    4                      CASE(%STOP);
     2503     3984    4                           CALL THC$CVTUTS(OUT$BLK.SUBLK$(0)->
     2504     3985    4                             OUT$BLK.SUBLK$(I),1,VALUE) ALTRET(ERR_LBL);
     2505     3986    4                           STOP = VALUE;
     2506     3987    4                   END;              /* CASE CODE */
     2507     3988    3                 END;                /* DO I                  */
     2508     3989    2             CASE (%TODAY);
     2509     3990    3                DO;
     2510     3991    3                  START = TH_DEFAULT.START;
     2511     3992    3                  STOP  = TH_DEFAULT.STOP;
     2512     3993    3                END;
     2513     3994    2         END;                        /* OF DO CASE TIME_X OR TIME_N */
     2514     3995    1           IF STOP < START
     2515     3996    1              THEN                         /* BAD TIME CONSTRAINTS               */
     2516     3997    2              DO;
     2517     3998    2                 CALL THM$ERRMSG(%E$TH_BAD_TIME_RANGE);
     2518     3999    2                 ALTRETURN;
     2519     4000    2              END;                         /* IF BAD TIME RANGE                  */
     2520     4001    1           TH_CONSTRAINTS.START = START;
     2521     4002    1           TH_CONSTRAINTS.STOP = STOP;
     2522     4003    1           RETURN;
     2523     4004                /*E* ERROR: THE-E$TH_BAD_TIME_RANGE-0
     2524     4005                     MESSAGE:  Bad time span : START > STOP
     2525     4006                */
     2526     4007    1     ERR_LBL:
     2527     4008    1        CALL THM$ERRMSG(%E$TH_BADTIME);
     2528     4009    1        ALTRETURN;
     2529     4010             /*E* ERROR: THE-E$TH_BADTIME-0
     2530     4011                  MESSAGE: Illegal format for time or date
     2531     4012             */
     2532     4013    1   END THC$SPAN;
     2533     4014        %EOD;

PL6.E3A0      #008=THC$SPAN File=THC$COMMANDS.:E05TSI                            WED 07/30/97 06:12 Page:441
--  Include file information  --

   XUD_UTS_M.:E05TOU  is referenced.
   TH_PERR_C.:E05TOU  is referenced.
   TH_DATA_R.:E05TOU  cannot be made into a system file and is referenced.
   B_STRINGS_C.:E05TOU  is referenced.
   TH_SUBS_C.:E05TOU  is referenced.
   XU_MACRO_C.:E05TOU  is referenced.
   CP_6.:E05TOU  cannot be made into a system file and is referenced.
   B$JIT_C.:E05TOU  was found in the system file and is never referenced.
   CP_6_C.:E05TOU  was found in the system file and is referenced.
      No diagnostics issued in procedure THC$SPAN.

   Procedure THC$SPAN requires 220 words for executable code.
   Procedure THC$SPAN requires 12 words of local(AUTO) storage.

PL6.E3A0      #008=THC$SPAN File=THC$COMMANDS.:E05TSI                            WED 07/30/97 06:12 Page:442

 Object Unit name= THC$SPAN                                   File name= THC$COMMANDS.:E05TOU
 UTS= JUL 30 '97 06:12:58.08 WED                              Compiler= PL-6/E31         Sev=      00
 SharedLib= :SHARED_SYSTEM                                    Alt SharedLib=


    ****  Control sections  ****

 Sect   Type Bound  Init  Size OctSiz  Section name(segment info)
    0   DCB   even  none     0      0  M$UC
    1   Data  even  none    18     22  THC$SPAN
    2   Proc  even  none   220    334  THC$SPAN
    3  RoData even  none    12     14  THC$SPAN

    ****  Entry defs  ****

                              Check   Calling
                             calling  sequence
  Sect OctLoc Primary Altret sequence   type   Parms  Name
     2      0   yes    yes     yes      Std        1  THC$SPAN

  ****  Entry refs  ****

         Check        Calling
        calling       sequence
Altret sequence SRef   type   Args  Name
 yes     yes           Std       3 XUD$UTS_ADJ_25TH
 yes     yes           Std       3 THC$CVTUTS
         yes           Std       1 THM$ERRMSG
                       nStd      0 X66_AUTO_1
                       Std       0 B_CONSPOOL_D
                       nStd      0 X66_AALT
                       nStd      0 X66_ARET
PL6.E3A0      #008=THC$SPAN File=THC$COMMANDS.:E05TSI                            WED 07/30/97 06:12 Page:443

  ****  Data refs  ****

  Flags:  r = read only, s = secondary
Flgs Name                             Flgs Name                             Flgs Name
     M$UC                                  TH_CONSTRAINTS                        TH_DEFAULT
     TH_XSA_BUF_VECTOR                     B_VECTNIL

  ****  Segment refs  ****

  Flags:  r = read only, s = secondary
Flgs Name                             Flgs Name                             Flgs Name
     ISSID                                 NULLSID
PL6.E3A0      #008=THC$SPAN File=THC$COMMANDS.:E05TSI                            WED 07/30/97 06:12 Page:444


     2424        1        /*T***********************************************************/
     2425        2        /*T*                                                         */
     2426        3        /*T* Copyright (c) Bull HN Information Systems Inc., 1997    */
     2427        4        /*T*                                                         */
     2428        5        /*T***********************************************************/
     2429        6        THC$SPAN: PROC(TOP$) ALTRET;

      6  2 000000   000000 700200 xent  THC$SPAN     TSX0  ! X66_AUTO_1
         2 000001   000014 000001                    ZERO    12,1

     2430        7        /**/
     2431        8        /* PARAMS */
     2432        9    1   DCL TOP$ PTR;
     2433       10        /**/
     2434       11        /* INCLUDE FILES */
     2435       12        %INCLUDE CP_6;
     2436       93        %INCLUDE XU_MACRO_C;
     2437     3199        %INCLUDE TH_SUBS_C;
     2438     3581        %INCLUDE TH_DATA_R;
     2439     3659        %INCLUDE TH_PERR_C;
     2440     3700        %INCLUDE XUD_UTS_M;
     2441     3782        /**/
     2442     3783        /* VARS */
     2443     3784    1   DCL I UBIN;
     2444     3785    1   DCL VALUE UBIN;
     2445     3786    1   DCL STOP UBIN WORD ;
     2446     3787    1   DCL TEMP UBIN WORD STATIC;
     2447     3788    1   DCL START UBIN WORD;
     2448     3789    1   DCL TBUF CHAR(5) STATIC;
     2449     3790    1   DCL DBUF CHAR(8) STATIC;
     2450     3791        /**/
     2451     3792        /* ENTRY DEFS */
     2452     3793    1   DCL THC$CVTUTS ENTRY(3) ALTRET;
     2453     3794    1   DCL THM$ERRMSG ENTRY(1);
     2454     3795        /**/
     2455     3796        /* FPT DEFS */
PL6.E3A0      #008=THC$SPAN File=THC$COMMANDS.:E05TSI                            WED 07/30/97 06:12 Page:445
     2456     3797        %FPT_TIME (FPTN=CUR_TIME,
     2457     3798                   SOURCE=CLOCK,
     2458     3799                   DEST=UTS,
     2459     3800                   TSTAMP=TEMP);
     2460     3819        /**/
     2461     3820        /* MACRO INVOCATIONS */
     2462     3821        %PARSE$OUT (NAME=OUT$BLK,STCLASS="BASED(TOP$)");
     2463     3866        %PARSE$SYM (NAME=OUT$SYM,STCLASS="BASED");
     2464     3904        %XUD$UTS_ENTRIES;
     2465     3936        %XUD_UTS_EQU;
     2466     3947        %EJECT;
PL6.E3A0      #008=THC$SPAN File=THC$COMMANDS.:E05TSI                            WED 07/30/97 06:12 Page:446
     2467     3948    1           START = TH_CONSTRAINTS.START;

   3948  2 000002   000012 235000 xsym               LDA     TH_CONSTRAINTS+10
         2 000003   200007 755100                    STA     START,,AUTO

     2468     3949    1           STOP = TH_CONSTRAINTS.STOP;

   3949  2 000004   000013 236000 xsym               LDQ     TH_CONSTRAINTS+11
         2 000005   200006 756100                    STQ     STOP,,AUTO

     2469     3950    2            DO CASE(OUT$BLK.SUBLK$(0)->OUT$BLK.CODE);

   3950  2 000006   200003 470500                    LDP0    @TOP$,,AUTO
         2 000007   000000 471500                    LDP1    0,,PR0
         2 000010   100003 473500                    LDP3    3,,PR1
         2 000011   300000 720100                    LXL0    0,,PR3
         2 000012   000004 100003                    CMPX0   4,DU
         2 000013   000015 602010 2                  TNC     s:3950+7,X0
         2 000014   000313 710000 2                  TRA     s:3995
         2 000015   000313 710000 2                  TRA     s:3995
         2 000016   000224 710000 2                  TRA     s:3976
         2 000017   000021 710000 2                  TRA     s:3952
         2 000020   000307 710000 2                  TRA     s:3991

     2470     3951    2              CASE (%TIME_X);

     2471     3952    2                 CALL M$TIME (CUR_TIME);

   3952  2 000021   000006 630400 1                  EPPR0   CUR_TIME
         2 000022   020004 713400                    CLIMB   8196
         2 000023   402000 401760                    pmme    nvectors=5

     2472     3953    2                 CALL CHARBIN(I,OUT$BLK.SUBLK$(0)->OUT$BLK.SUBLK$(0)->

   3953  2 000024   200003 470500                    LDP0    @TOP$,,AUTO
         2 000025   000000 471500                    LDP1    0,,PR0
         2 000026   100003 473500                    LDP3    3,,PR1
PL6.E3A0      #008=THC$SPAN File=THC$COMMANDS.:E05TSI                            WED 07/30/97 06:12 Page:447
         2 000027   300003 474500                    LDP4    3,,PR3
         2 000030   400004 236100                    LDQ     4,,PR4
         2 000031   000033 772000                    QRL     27
         2 000032   000000 620006                    EAX0    0,QL
         2 000033   000100 305540                    DTB
         2 000034   400004 230010                    NDSC9   4,,PR4                   cn=1,s=nosgn,sf=0,n=*X0
         2 000035   200010 000010                    NDSC9   START+1,,AUTO            cn=0,s=lsgnf,sf=0,n=8
         2 000036   200011 235100                    LDA     START+2,,AUTO
         2 000037   200004 755100                    STA     I,,AUTO

     2473     3954    2                                OUT$SYM.TEXT);
     2474     3955    3                 DO CASE (OUT$BLK.SUBLK$(0)->OUT$BLK.SUBLK$(1)->OUT$BLK.CODE);

   3955  2 000040   000000 471500                    LDP1    0,,PR0
         2 000041   100003 473500                    LDP3    3,,PR1
         2 000042   300004 474500                    LDP4    4,,PR3
         2 000043   400000 720100                    LXL0    0,,PR4
         2 000044   000007 100003                    CMPX0   7,DU
         2 000045   000047 602010 2                  TNC     s:3955+7,X0
         2 000046   000313 710000 2                  TRA     s:3995
         2 000047   000223 710000 2                  TRA     s:3974
         2 000050   000056 710000 2                  TRA     s:3957
         2 000051   000077 710000 2                  TRA     s:3960
         2 000052   000120 710000 2                  TRA     s:3963
         2 000053   000141 710000 2                  TRA     s:3966
         2 000054   000162 710000 2                  TRA     s:3969
         2 000055   000203 710000 2                  TRA     s:3972

     2475     3956    3                    CASE (%DAYS);

     2476     3957    3                      CALL XUD$UTS_ADJ_25TH (START, TH_DEFAULT.START, -(I*%
              3957                               UTS_25TH_DAY#));

   3957  2 000056   000000 236003                    LDQ     0,DU
         2 000057   200004 136100                    SBLQ    I,,AUTO
         2 000060   000000 402000 3                  MPY     0
         2 000061   200010 756100                    STQ     START+1,,AUTO
PL6.E3A0      #008=THC$SPAN File=THC$COMMANDS.:E05TSI                            WED 07/30/97 06:12 Page:448
         2 000062   200010 631500                    EPPR1   START+1,,AUTO
         2 000063   200013 451500                    STP1    START+4,,AUTO
         2 000064   000001 236000 3                  LDQ     1
         2 000065   200012 756100                    STQ     START+3,,AUTO
         2 000066   200007 633500                    EPPR3   START,,AUTO
         2 000067   200011 453500                    STP3    START+2,,AUTO
         2 000070   200011 630500                    EPPR0   START+2,,AUTO
         2 000071   000021 631400 xsym               EPPR1   B_VECTNIL+17
         2 000072   000000 701000 xent               TSX1    XUD$UTS_ADJ_25TH
         2 000073   000000 011000                    NOP     0

     2477     3958    3                       STOP = TH_DEFAULT.STOP;

   3958  2 000074   000013 235000 xsym               LDA     TH_DEFAULT+11
         2 000075   200006 755100                    STA     STOP,,AUTO
         2 000076   000313 710000 2                  TRA     s:3995

     2478     3959    3                    CASE (%WEEKS);

     2479     3960    3                      CALL XUD$UTS_ADJ_25TH (START, TH_DEFAULT.START, -(I*7*%
              3960                               UTS_25TH_DAY#));

   3960  2 000077   000000 236003                    LDQ     0,DU
         2 000100   200004 136100                    SBLQ    I,,AUTO
         2 000101   000002 402000 3                  MPY     2
         2 000102   200010 756100                    STQ     START+1,,AUTO
         2 000103   200010 631500                    EPPR1   START+1,,AUTO
         2 000104   200013 451500                    STP1    START+4,,AUTO
         2 000105   000001 236000 3                  LDQ     1
         2 000106   200012 756100                    STQ     START+3,,AUTO
         2 000107   200007 633500                    EPPR3   START,,AUTO
         2 000110   200011 453500                    STP3    START+2,,AUTO
         2 000111   200011 630500                    EPPR0   START+2,,AUTO
         2 000112   000021 631400 xsym               EPPR1   B_VECTNIL+17
         2 000113   000000 701000 xent               TSX1    XUD$UTS_ADJ_25TH
         2 000114   000000 011000                    NOP     0

PL6.E3A0      #008=THC$SPAN File=THC$COMMANDS.:E05TSI                            WED 07/30/97 06:12 Page:449
     2480     3961    3                       STOP = TH_DEFAULT.STOP;

   3961  2 000115   000013 235000 xsym               LDA     TH_DEFAULT+11
         2 000116   200006 755100                    STA     STOP,,AUTO
         2 000117   000313 710000 2                  TRA     s:3995

     2481     3962    3                    CASE (%MONTHS);

     2482     3963    3                      CALL XUD$UTS_ADJ_25TH (START, TH_DEFAULT.START, -(I*30*%
              3963                               UTS_25TH_DAY#));

   3963  2 000120   000000 236003                    LDQ     0,DU
         2 000121   200004 136100                    SBLQ    I,,AUTO
         2 000122   000003 402000 3                  MPY     3
         2 000123   200010 756100                    STQ     START+1,,AUTO
         2 000124   200010 631500                    EPPR1   START+1,,AUTO
         2 000125   200013 451500                    STP1    START+4,,AUTO
         2 000126   000001 236000 3                  LDQ     1
         2 000127   200012 756100                    STQ     START+3,,AUTO
         2 000130   200007 633500                    EPPR3   START,,AUTO
         2 000131   200011 453500                    STP3    START+2,,AUTO
         2 000132   200011 630500                    EPPR0   START+2,,AUTO
         2 000133   000021 631400 xsym               EPPR1   B_VECTNIL+17
         2 000134   000000 701000 xent               TSX1    XUD$UTS_ADJ_25TH
         2 000135   000000 011000                    NOP     0

     2483     3964    3                       STOP = TH_DEFAULT.STOP;

   3964  2 000136   000013 235000 xsym               LDA     TH_DEFAULT+11
         2 000137   200006 755100                    STA     STOP,,AUTO
         2 000140   000313 710000 2                  TRA     s:3995

     2484     3965    3                    CASE (%YEAR);

     2485     3966    3                      CALL XUD$UTS_ADJ_25TH (START, TH_DEFAULT.START, -(I*365*%
              3966                               UTS_25TH_DAY#));

PL6.E3A0      #008=THC$SPAN File=THC$COMMANDS.:E05TSI                            WED 07/30/97 06:12 Page:450
   3966  2 000141   000000 236003                    LDQ     0,DU
         2 000142   200004 136100                    SBLQ    I,,AUTO
         2 000143   000004 402000 3                  MPY     4
         2 000144   200010 756100                    STQ     START+1,,AUTO
         2 000145   200010 631500                    EPPR1   START+1,,AUTO
         2 000146   200013 451500                    STP1    START+4,,AUTO
         2 000147   000001 236000 3                  LDQ     1
         2 000150   200012 756100                    STQ     START+3,,AUTO
         2 000151   200007 633500                    EPPR3   START,,AUTO
         2 000152   200011 453500                    STP3    START+2,,AUTO
         2 000153   200011 630500                    EPPR0   START+2,,AUTO
         2 000154   000021 631400 xsym               EPPR1   B_VECTNIL+17
         2 000155   000000 701000 xent               TSX1    XUD$UTS_ADJ_25TH
         2 000156   000000 011000                    NOP     0

     2486     3967    3                       STOP = TH_DEFAULT.STOP;

   3967  2 000157   000013 235000 xsym               LDA     TH_DEFAULT+11
         2 000160   200006 755100                    STA     STOP,,AUTO
         2 000161   000313 710000 2                  TRA     s:3995

     2487     3968    3                   CASE (%MINUTES);

     2488     3969    3                      CALL XUD$UTS_ADJ_25TH (START, TEMP, -(I*%UTS_25TH_MIN#));

   3969  2 000162   000000 236003                    LDQ     0,DU
         2 000163   200004 136100                    SBLQ    I,,AUTO
         2 000164   002734 402007                    MPY     1500,DL
         2 000165   200010 756100                    STQ     START+1,,AUTO
         2 000166   200010 631500                    EPPR1   START+1,,AUTO
         2 000167   200013 451500                    STP1    START+4,,AUTO
         2 000170   000005 236000 3                  LDQ     5
         2 000171   200012 756100                    STQ     START+3,,AUTO
         2 000172   200007 633500                    EPPR3   START,,AUTO
         2 000173   200011 453500                    STP3    START+2,,AUTO
         2 000174   200011 630500                    EPPR0   START+2,,AUTO
         2 000175   000021 631400 xsym               EPPR1   B_VECTNIL+17
PL6.E3A0      #008=THC$SPAN File=THC$COMMANDS.:E05TSI                            WED 07/30/97 06:12 Page:451
         2 000176   000000 701000 xent               TSX1    XUD$UTS_ADJ_25TH
         2 000177   000000 011000                    NOP     0

     2489     3970    3                       STOP = TEMP;

   3970  2 000200   000000 235000 1                  LDA     TEMP
         2 000201   200006 755100                    STA     STOP,,AUTO
         2 000202   000313 710000 2                  TRA     s:3995

     2490     3971    3                   CASE (%HOURS);

     2491     3972    3                      CALL XUD$UTS_ADJ_25TH (START, TEMP, -(I*%UTS_25TH_HOUR#));

   3972  2 000203   000000 236003                    LDQ     0,DU
         2 000204   200004 136100                    SBLQ    I,,AUTO
         2 000205   257620 402007                    MPY     90000,DL
         2 000206   200010 756100                    STQ     START+1,,AUTO
         2 000207   200010 631500                    EPPR1   START+1,,AUTO
         2 000210   200013 451500                    STP1    START+4,,AUTO
         2 000211   000005 236000 3                  LDQ     5
         2 000212   200012 756100                    STQ     START+3,,AUTO
         2 000213   200007 633500                    EPPR3   START,,AUTO
         2 000214   200011 453500                    STP3    START+2,,AUTO
         2 000215   200011 630500                    EPPR0   START+2,,AUTO
         2 000216   000021 631400 xsym               EPPR1   B_VECTNIL+17
         2 000217   000000 701000 xent               TSX1    XUD$UTS_ADJ_25TH
         2 000220   000000 011000                    NOP     0

     2492     3973    3                       STOP = TEMP;

   3973  2 000221   000000 235000 1                  LDA     TEMP
         2 000222   200006 755100                    STA     STOP,,AUTO

     2493     3974    3                 END;                     /* OF DO CASE TIME_X */

   3974  2 000223   000313 710000 2                  TRA     s:3995

PL6.E3A0      #008=THC$SPAN File=THC$COMMANDS.:E05TSI                            WED 07/30/97 06:12 Page:452
     2494     3975    2              CASE (%TIME_N);

     2495     3976    3                 DO I = 0 TO OUT$BLK.SUBLK$(0)->OUT$BLK.NSUBLKS - 1;

   3976  2 000224   200004 450100                    STZ     I,,AUTO
         2 000225   000276 710000 2                  TRA     s:3988+3

     2496     3977    4                   DO CASE (OUT$BLK.SUBLK$(0)->OUT$BLK.SUBLK$(I)->

   3977  2 000226   200003 470500                    LDP0    @TOP$,,AUTO
         2 000227   000000 471500                    LDP1    0,,PR0
         2 000230   100003 473500                    LDP3    3,,PR1
         2 000231   200004 720100                    LXL0    I,,AUTO
         2 000232   300003 474510                    LDP4    3,X0,PR3
         2 000233   400000 721100                    LXL1    0,,PR4
         2 000234   000003 101003                    CMPX1   3,DU
         2 000235   000237 602011 2                  TNC     s:3977+9,X1
         2 000236   000273 710000 2                  TRA     s:3988
         2 000237   000273 710000 2                  TRA     s:3988
         2 000240   000242 710000 2                  TRA     s:3980
         2 000241   000257 710000 2                  TRA     s:3984

     2497     3978    4                            OUT$BLK.CODE);
     2498     3979    4                      CASE(%START);

     2499     3980    4                           CALL THC$CVTUTS(OUT$BLK.SUBLK$(0)->

   3980  2 000242   200005 635500                    EPPR5   VALUE,,AUTO
         2 000243   200012 455500                    STP5    START+3,,AUTO
         2 000244   000006 236000 3                  LDQ     6
         2 000245   200011 756100                    STQ     START+2,,AUTO
         2 000246   300003 631510                    EPPR1   3,X0,PR3
         2 000247   200010 451500                    STP1    START+1,,AUTO
         2 000250   200010 630500                    EPPR0   START+1,,AUTO
         2 000251   000021 631400 xsym               EPPR1   B_VECTNIL+17
         2 000252   000000 701000 xent               TSX1    THC$CVTUTS
         2 000253   000327 702000 2                  TSX2    ERR_LBL
PL6.E3A0      #008=THC$SPAN File=THC$COMMANDS.:E05TSI                            WED 07/30/97 06:12 Page:453

     2500     3981    4                             OUT$BLK.SUBLK$(I),-1,VALUE) ALTRET(ERR_LBL);
     2501     3982    4                           START = VALUE;

   3982  2 000254   200005 235100                    LDA     VALUE,,AUTO
         2 000255   200007 755100                    STA     START,,AUTO
         2 000256   000273 710000 2                  TRA     s:3988

     2502     3983    4                      CASE(%STOP);

     2503     3984    4                           CALL THC$CVTUTS(OUT$BLK.SUBLK$(0)->

   3984  2 000257   200005 635500                    EPPR5   VALUE,,AUTO
         2 000260   200012 455500                    STP5    START+3,,AUTO
         2 000261   000007 236000 3                  LDQ     7
         2 000262   200011 756100                    STQ     START+2,,AUTO
         2 000263   300003 631510                    EPPR1   3,X0,PR3
         2 000264   200010 451500                    STP1    START+1,,AUTO
         2 000265   200010 630500                    EPPR0   START+1,,AUTO
         2 000266   000021 631400 xsym               EPPR1   B_VECTNIL+17
         2 000267   000000 701000 xent               TSX1    THC$CVTUTS
         2 000270   000327 702000 2                  TSX2    ERR_LBL

     2504     3985    4                             OUT$BLK.SUBLK$(I),1,VALUE) ALTRET(ERR_LBL);
     2505     3986    4                           STOP = VALUE;

   3986  2 000271   200005 235100                    LDA     VALUE,,AUTO
         2 000272   200006 755100                    STA     STOP,,AUTO

     2506     3987    4                   END;              /* CASE CODE */

     2507     3988    3                 END;                /* DO I                  */

   3988  2 000273   200004 235100                    LDA     I,,AUTO
         2 000274   000001 035007                    ADLA    1,DL
         2 000275   200004 755100                    STA     I,,AUTO
         2 000276   200003 470500                    LDP0    @TOP$,,AUTO
PL6.E3A0      #008=THC$SPAN File=THC$COMMANDS.:E05TSI                            WED 07/30/97 06:12 Page:454
         2 000277   000000 471500                    LDP1    0,,PR0
         2 000300   100003 473500                    LDP3    3,,PR1
         2 000301   300001 236100                    LDQ     1,,PR3
         2 000302   000022 772000                    QRL     18
         2 000303   200004 116100                    CMPQ    I,,AUTO
         2 000304   000306 600000 2                  TZE     s:3988+11
         2 000305   000226 603000 2                  TRC     s:3977
         2 000306   000313 710000 2                  TRA     s:3995

     2508     3989    2             CASE (%TODAY);

     2509     3990    3                DO;

     2510     3991    3                  START = TH_DEFAULT.START;

   3991  2 000307   000012 235000 xsym               LDA     TH_DEFAULT+10
         2 000310   200007 755100                    STA     START,,AUTO

     2511     3992    3                  STOP  = TH_DEFAULT.STOP;

   3992  2 000311   000013 235000 xsym               LDA     TH_DEFAULT+11
         2 000312   200006 755100                    STA     STOP,,AUTO

     2512     3993    3                END;

     2513     3994    2         END;                        /* OF DO CASE TIME_X OR TIME_N */

     2514     3995    1           IF STOP < START

   3995  2 000313   200006 236100                    LDQ     STOP,,AUTO
         2 000314   200007 116100                    CMPQ    START,,AUTO
         2 000315   000323 603000 2                  TRC     s:4001

     2515     3996    1              THEN                         /* BAD TIME CONSTRAINTS               */
     2516     3997    2              DO;

     2517     3998    2                 CALL THM$ERRMSG(%E$TH_BAD_TIME_RANGE);
PL6.E3A0      #008=THC$SPAN File=THC$COMMANDS.:E05TSI                            WED 07/30/97 06:12 Page:455

   3998  2 000316   000011 630400 3                  EPPR0   9
         2 000317   000017 631400 xsym               EPPR1   B_VECTNIL+15
         2 000320   000000 701000 xent               TSX1    THM$ERRMSG
         2 000321   000000 011000                    NOP     0

     2518     3999    2                 ALTRETURN;

   3999  2 000322   000000 702200 xent               TSX2  ! X66_AALT

     2519     4000    2              END;                         /* IF BAD TIME RANGE                  */
     2520     4001    1           TH_CONSTRAINTS.START = START;

   4001  2 000323   200007 235100                    LDA     START,,AUTO
         2 000324   000012 755000 xsym               STA     TH_CONSTRAINTS+10

     2521     4002    1           TH_CONSTRAINTS.STOP = STOP;

   4002  2 000325   000013 756000 xsym               STQ     TH_CONSTRAINTS+11

     2522     4003    1           RETURN;

   4003  2 000326   000000 702200 xent               TSX2  ! X66_ARET

     2523     4004                /*E* ERROR: THE-E$TH_BAD_TIME_RANGE-0
     2524     4005                     MESSAGE:  Bad time span : START > STOP
     2525     4006                */
     2526     4007    1     ERR_LBL:
     2527     4008    1        CALL THM$ERRMSG(%E$TH_BADTIME);

   4008  2 000327   000013 630400 3     ERR_LBL      EPPR0   11
         2 000330   000017 631400 xsym               EPPR1   B_VECTNIL+15
         2 000331   000000 701000 xent               TSX1    THM$ERRMSG
         2 000332   000000 011000                    NOP     0

     2528     4009    1        ALTRETURN;

PL6.E3A0      #008=THC$SPAN File=THC$COMMANDS.:E05TSI                            WED 07/30/97 06:12 Page:456
   4009  2 000333   000000 702200 xent               TSX2  ! X66_AALT
     2529     4010             /*E* ERROR: THE-E$TH_BADTIME-0
     2530     4011                  MESSAGE: Illegal format for time or date
     2531     4012             */
     2532     4013    1   END THC$SPAN;
     2533     4014        %EOD;

PL6.E3A0      #008=THC$SPAN File=THC$COMMANDS.:E05TSI                            WED 07/30/97 06:12 Page:457
--  Include file information  --

   XUD_UTS_M.:E05TOU  is referenced.
   TH_PERR_C.:E05TOU  is referenced.
   TH_DATA_R.:E05TOU  cannot be made into a system file and is referenced.
   B_STRINGS_C.:E05TOU  is referenced.
   TH_SUBS_C.:E05TOU  is referenced.
   XU_MACRO_C.:E05TOU  is referenced.
   CP_6.:E05TOU  cannot be made into a system file and is referenced.
   B$JIT_C.:E05TOU  was found in the system file and is never referenced.
   CP_6_C.:E05TOU  was found in the system file and is referenced.
      No diagnostics issued in procedure THC$SPAN.
PL6.E3A0      #008=THC$SPAN File=THC$COMMANDS.:E05TSI                            WED 07/30/97 06:12 Page:458

 **** Variables and constants ****

  ****  Section 001  Data  THC$SPAN

  ****  Scalars and arrays  ****
OctLoc.c.b A Datatyp(siz) R M Lvl/name                 OctLoc.c.b A Datatyp(siz) R M Lvl/name

     6-0-0/d STRC(432)   r     1 CUR_TIME                   0-0-0/w UBIN        r     1 TEMP

  ****  Auto variables  ****

  ****  Scalars and arrays  ****
OctLoc.c.b A Datatyp(siz) R M Lvl/name                 OctLoc.c.b A Datatyp(siz) R M Lvl/name

     3-0-0/w PTR         r     1 @TOP$                      4-0-0/w UBIN        r     1 I
     7-0-0/w UBIN        r     1 START                      6-0-0/w UBIN        r     1 STOP
    *0-0-0/w PTR         r     1 TOP$                       5-0-0/w UBIN        r     1 VALUE

  ****  SYMREF variables  ****

  ****  Scalars and arrays  ****
OctLoc.c.b A Datatyp(siz) R M Lvl/name                 OctLoc.c.b A Datatyp(siz) R M Lvl/name

     0-0-0/d STRC(1971)  r     1 TH_CONSTRAINTS             0-0-0/d STRC(1971)  r     1 TH_DEFAULT

  ****  BASED and DCB variables  ****

  ****  Scalars and arrays  ****
OctLoc.c.b A Datatyp(siz) R M Lvl/name                 OctLoc.c.b A Datatyp(siz) R M Lvl/name

     0-0-0/w STRC(144)   r     1 OUT$BLK                    0-0-0/w ASTR(153)   r     1 OUT$SYM


   Procedure THC$SPAN requires 220 words for executable code.
   Procedure THC$SPAN requires 12 words of local(AUTO) storage.
PL6.E3A0      #008=THC$SPAN File=THC$COMMANDS.:E05TSI                            WED 07/30/97 06:12 Page:459
          *** CROSS REFERENCE LISTING ***
**     DENOTES     IDENTIFIER DEFINITION
<<                 IDENTIFIER'S VALUE SET
>>                 IDENTIFIER'S VALUE USED
<>                 IDENTIFIER SET AND/OR USED
--                 IDENTIFIER REFERENCED
PL6.E3A0      #008=THC$SPAN File=THC$COMMANDS.:E05TSI                            WED 07/30/97 06:12 Page:460
          MINI XREF LISTING

CUR_TIME
      3811**DCL      3952<>CALL
CUR_TIME.V
      3815**DCL      3811--DCLINIT
ERR_LBL
      4008**LABEL    3980--CALLALT  3984--CALLALT
I
      3784**DCL      3953<<CALLBLT  3957>>CALL     3960>>CALL     3963>>CALL     3966>>CALL     3969>>CALL
      3972>>CALL     3976<<DOINDEX  3977>>DOCASE   3980>>CALL     3984>>CALL
M$TIME
        88**DCL-ENT  3952--CALL
OUT$BLK.CODE
      3835**DCL      3950>>DOCASE   3955>>DOCASE   3977>>DOCASE
OUT$BLK.NSUBLKS
      3839**DCL      3976>>DOINDEX
OUT$BLK.SUBLK$
      3860**DCL      3950>>DOCASE   3953>>CALLBLT  3953>>CALLBLT  3953>>CALLBLT  3953>>CALLBLT  3955>>DOCASE
      3955>>DOCASE   3976>>DOINDEX  3977>>DOCASE   3977>>DOCASE   3980>>CALL     3980<>CALL     3984>>CALL
      3984<>CALL
OUT$SYM.COUNT
      3896**DCL      3899--IMP-SIZ  3953>>CALLBLT
OUT$SYM.TEXT
      3899**DCL      3953>>CALLBLT
START
      3788**DCL      3948<<ASSIGN   3957<>CALL     3960<>CALL     3963<>CALL     3966<>CALL     3969<>CALL
      3972<>CALL     3982<<ASSIGN   3991<<ASSIGN   3995>>IF       4001>>ASSIGN
STOP
      3786**DCL      3949<<ASSIGN   3958<<ASSIGN   3961<<ASSIGN   3964<<ASSIGN   3967<<ASSIGN   3970<<ASSIGN
      3973<<ASSIGN   3986<<ASSIGN   3992<<ASSIGN   3995>>IF       4002>>ASSIGN
TEMP
      3787**DCL      3815--DCLINIT  3969<>CALL     3970>>ASSIGN   3972<>CALL     3973>>ASSIGN
THC$CVTUTS
PL6.E3A0      #008=THC$SPAN File=THC$COMMANDS.:E05TSI                            WED 07/30/97 06:12 Page:461
      3793**DCL-ENT  3980--CALL     3984--CALL
THM$ERRMSG
      3794**DCL-ENT  3998--CALL     4008--CALL
TH_CONSTRAINTS.E_BY_B
      3592**DCL      3592--REDEF
TH_CONSTRAINTS.M_BY_B
      3591**DCL      3591--REDEF
TH_CONSTRAINTS.START
      3590**DCL      3948>>ASSIGN   4001<<ASSIGN
TH_CONSTRAINTS.STOP
      3590**DCL      3949>>ASSIGN   4002<<ASSIGN
TH_CONSTRAINTS.TYPES
      3589**DCL      3589--REDEF
TH_DEFAULT.E_BY_B
      3600**DCL      3600--REDEF
TH_DEFAULT.M_BY_B
      3599**DCL      3599--REDEF
TH_DEFAULT.START
      3597**DCL      3957<>CALL     3960<>CALL     3963<>CALL     3966<>CALL     3991>>ASSIGN
TH_DEFAULT.STOP
      3598**DCL      3958>>ASSIGN   3961>>ASSIGN   3964>>ASSIGN   3967>>ASSIGN   3992>>ASSIGN
TH_DEFAULT.TYPES
      3597**DCL      3597--REDEF
TH_SAVE.E_BY_B
      3608**DCL      3608--REDEF
TH_SAVE.M_BY_B
      3606**DCL      3606--REDEF
TH_SAVE.TYPES
      3604**DCL      3605--REDEF
TH_XSA_BUF_VECTOR
      3624**DCL      3624--REDEF
TOP$
         9**DCL         6--PROC     3827--IMP-PTR  3950>>DOCASE   3953>>CALLBLT  3953>>CALLBLT  3955>>DOCASE
      3976>>DOINDEX  3977>>DOCASE   3980>>CALL     3984>>CALL
VALUE
      3785**DCL      3980<>CALL     3982>>ASSIGN   3984<>CALL     3986>>ASSIGN
PL6.E3A0      #008=THC$SPAN File=THC$COMMANDS.:E05TSI                            WED 07/30/97 06:12 Page:462
XUD$UTS_ADJ_25TH
      3929**DCL-ENT  3957--CALL     3960--CALL     3963--CALL     3966--CALL     3969--CALL     3972--CALL

PL6.E3A0      #009=THC$CVTUTS File=THC$COMMANDS.:E05TSI                          WED 07/30/97 06:13 Page:463
     2534        1        /*M* THC$CVTUTS - CONVERTS TEXT INPUT TO TIME CONSTRAINT FOR ELAN */
     2535        2        /*T***********************************************************/
     2536        3        /*T*                                                         */
     2537        4        /*T* Copyright (c) Bull HN Information Systems Inc., 1997    */
     2538        5        /*T*                                                         */
     2539        6        /*T***********************************************************/
     2540        7        THC$CVTUTS: PROC(TOP$,DAYFLG,UTS) ALTRET;
     2541        8        /**/
     2542        9        /* PARAMS */
     2543       10    1   DCL TOP$ PTR;
     2544       11    1   DCL DAYFLG SBIN;
     2545       12    1   DCL UTS UBIN;
     2546       13        /**/
     2547       14        /* INCLUDE FILES */
     2548       15        %INCLUDE CP_6;
     2549       96        %INCLUDE XU_MACRO_C;
     2550     3202        %INCLUDE TH_PERR_C;
     2551     3243        %INCLUDE TH_DATA_R;
     2552     3321        %INCLUDE TH_SUBS_C;
     2553     3703        /**/
     2554     3704        /* VARS */
     2555     3705    1   DCL I UBIN;
     2556     3706    1   DCL 1 TBUF STATIC,
     2557     3707    1         2 HH CHAR(2),
     2558     3708    1         2 * CHAR(1),
     2559     3709    1         2 MM CHAR(2),
     2560     3710    1         2 * CHAR(1),
     2561     3711    1         2 SS CHAR(2),
     2562     3712    1         2 * CHAR(1),
     2563     3713    1         2 SM CHAR(2);
     2564     3714    1   DCL 1 DBUF STATIC,
     2565     3715    1         2 MM CHAR(2),
     2566     3716    1         2 * CHAR(1),
     2567     3717    1         2 DD CHAR(2),
     2568     3718    1         2 * CHAR(1),
     2569     3719    1         2 YY CHAR(2);
     2570     3720    1   DCL TIMECHARS CHAR(4);
PL6.E3A0      #009=THC$CVTUTS File=THC$COMMANDS.:E05TSI                          WED 07/30/97 06:13 Page:464
     2571     3721    1   DCL 1 TIMECHAR REDEF TIMECHARS,
     2572     3722    1         2 HH CHAR(2),
     2573     3723    1         2 MM CHAR(2);
     2574     3724    1   DCL SYM$ PTR;
     2575     3725        /**/
     2576     3726        /* FPT DEFINITIONS */
     2577     3727        %FPT_TIME (FPTN=FPT_GETTIME,
     2578     3728                   DATE=DBUF,
     2579     3729                   TIME=TBUF,
     2580     3730                   SOURCE=CLOCK,
     2581     3731                   DEST=LOCAL);
     2582     3750        %FPT_TIME (FPTN=FPT_GETUTS,
     2583     3751                   DATE=DBUF,
     2584     3752                   TIME=TBUF,
     2585     3753                   SOURCE=LOCAL,
     2586     3754                   DEST=UTS);
     2587     3773        /**/
     2588     3774        /* MACRO INVOCATIONS */
     2589     3775        %PARSE$OUT (NAME=OUT$BLK,STCLASS="BASED(TOP$)");
     2590     3820        %PARSE$SYM (NAME=OUT$SYM,STCLASS="BASED(SYM$)");
     2591     3858        /**/
     2592     3859        %EJECT;
PL6.E3A0      #009=THC$CVTUTS File=THC$COMMANDS.:E05TSI                          WED 07/30/97 06:13 Page:465
     2593     3860    1           CALL M$TIME(FPT_GETTIME);
     2594     3861    1           IF DAYFLG > 0
     2595     3862    1              THEN                         /* DEFAULT TIME = 23:59               */
     2596     3863    2              DO;
     2597     3864    2                 TBUF.HH = '23';
     2598     3865    2                 TBUF.MM = '59';
     2599     3866    2                 TBUF.SS = '59';
     2600     3867    2                 TBUF.SM = '99';
     2601     3868    2              END;
     2602     3869    1              ELSE                         /* DEFAULT TIME = 00:00               */
     2603     3870    2              DO;
     2604     3871    2                 TBUF.HH = '00';
     2605     3872    2                 TBUF.MM = '00';
     2606     3873    2                 TBUF.SS = '00';
     2607     3874    2                 TBUF.SM = '00';
     2608     3875    2              END;
     2609     3876    2           DO I = 0 TO OUT$BLK.NSUBLKS - 1;
     2610     3877    3              DO CASE(OUT$BLK.SUBLK$(I)->OUT$BLK.CODE);
     2611     3878    3                 CASE(%DATE$);
     2612     3879    3                    CALL FILL_FIELD(OUT$BLK.SUBLK$(I)->OUT$BLK.SUBLK$(0),DBUF.MM)
              3879                             ALTRET(BAD_TIME);
     2613     3880    3                    CALL FILL_FIELD(OUT$BLK.SUBLK$(I)->OUT$BLK.SUBLK$(1),DBUF.DD)
              3880                             ALTRET(BAD_TIME);
     2614     3881    3                    IF OUT$BLK.SUBLK$(I)->OUT$BLK.NSUBLKS = 3 THEN
     2615     3882    3                    CALL FILL_FIELD(OUT$BLK.SUBLK$(I)->OUT$BLK.SUBLK$(2),DBUF.YY)
              3882                             ALTRET(BAD_TIME);
     2616     3883    3                 CASE(%TIME$);
     2617     3884    3             IF OUT$BLK.SUBLK$(I)->OUT$BLK.NSUBLKS = 1
     2618     3885    3               THEN
     2619     3886    4                 DO;
     2620     3887    4                    SYM$=OUT$BLK.SUBLK$(I)->OUT$BLK.SUBLK$(0);
     2621     3888    4                   IF OUT$SYM.COUNT ~= 4
     2622     3889    4                      THEN
     2623     3890    4                         ALTRETURN;
     2624     3891    4                    TIMECHARS = OUT$SYM.TEXT;
     2625     3892    4                    TBUF.HH = TIMECHAR.HH;
     2626     3893    4                    TBUF.MM = TIMECHAR.MM;
PL6.E3A0      #009=THC$CVTUTS File=THC$COMMANDS.:E05TSI                          WED 07/30/97 06:13 Page:466
     2627     3894    4                 END;
     2628     3895    3                ELSE
     2629     3896    4                  DO;
     2630     3897    4                    CALL FILL_FIELD(OUT$BLK.SUBLK$(I)->OUT$BLK.SUBLK$(0),TBUF.HH)
              3897                             ALTRET(BAD_TIME);
     2631     3898    4                    CALL FILL_FIELD(OUT$BLK.SUBLK$(I)->OUT$BLK.SUBLK$(1),TBUF.MM)
              3898                             ALTRET(BAD_TIME);
     2632     3899    4                  END;
     2633     3900    3              END;                         /* CASE CODE                          */
     2634     3901    2           END;                            /* DO I                               */
     2635     3902    1           FPT_GETUTS.TSTAMP_ = VECTOR(UTS);
     2636     3903    1           CALL M$TIME(FPT_GETUTS) ALTRET(BAD_TIME);
     2637     3904    1           RETURN;
     2638     3905    1   BAD_TIME:
     2639     3906    1           ALTRETURN;
     2640     3907        %EJECT;
PL6.E3A0      #009=THC$CVTUTS File=THC$COMMANDS.:E05TSI                          WED 07/30/97 06:13 Page:467
     2641     3908    1   FILL_FIELD: PROC(SYM$,FIELD) ALTRET;
     2642     3909        /**/
     2643     3910        /* PARAMS */
     2644     3911    2   DCL SYM$ PTR;
     2645     3912    2   DCL FIELD CHAR(2);
     2646     3913    2   DCL RFIELD(0:1) REDEF FIELD CHAR(1);
     2647     3914        /**/
     2648     3915        %PARSE$SYM (NAME=OUT$SYM,STCLASS="BASED(SYM$)");
     2649     3953        /**/
     2650     3954    2        IF OUT$SYM.COUNT = 2
     2651     3955    2           THEN FIELD = OUT$SYM.TEXT;
     2652     3956    2           ELSE
     2653     3957    2        IF OUT$SYM.COUNT = 1
     2654     3958    2           THEN
     2655     3959    3           DO;
     2656     3960    3              RFIELD(0) = '0';
     2657     3961    3              RFIELD(1) = OUT$SYM.TEXT;
     2658     3962    3           END;
     2659     3963    2           ELSE                            /* ERROR                              */
     2660     3964    3           DO;
     2661     3965    3              ALTRETURN;
     2662     3966    3           END;                            /* IF                                 */
     2663     3967    2        RETURN;
     2664     3968    2   END FILL_FIELD;
     2665     3969    1   END THC$CVTUTS;
     2666     3970        %EOD;

PL6.E3A0      #009=THC$CVTUTS File=THC$COMMANDS.:E05TSI                          WED 07/30/97 06:13 Page:468
--  Include file information  --

   B_STRINGS_C.:E05TOU  is referenced.
   TH_SUBS_C.:E05TOU  is referenced.
   TH_DATA_R.:E05TOU  cannot be made into a system file and is referenced.
   TH_PERR_C.:E05TOU  is referenced.
   XU_MACRO_C.:E05TOU  is referenced.
   CP_6.:E05TOU  cannot be made into a system file and is referenced.
   B$JIT_C.:E05TOU  was found in the system file and is never referenced.
   CP_6_C.:E05TOU  was found in the system file and is referenced.
      No diagnostics issued in procedure THC$CVTUTS.

   Procedure THC$CVTUTS requires 161 words for executable code.
   Procedure THC$CVTUTS requires 14 words of local(AUTO) storage.

PL6.E3A0      #009=THC$CVTUTS File=THC$COMMANDS.:E05TSI                          WED 07/30/97 06:13 Page:469

 Object Unit name= THC$CVTUTS                                 File name= THC$COMMANDS.:E05TOU
 UTS= JUL 30 '97 06:13:26.80 WED                              Compiler= PL-6/E31         Sev=      00
 SharedLib= :SHARED_SYSTEM                                    Alt SharedLib=


    ****  Control sections  ****

 Sect   Type Bound  Init  Size OctSiz  Section name(segment info)
    0   DCB   even  none     0      0  M$UC
    1   Data  even  none    30     36  THC$CVTUTS
    2  RoData even  UTS      4      4  THC$CVTUTS
    3   Proc  even  none   161    241  THC$CVTUTS
    4  RoData even  none     6      6  THC$CVTUTS

    ****  Entry defs  ****

                              Check   Calling
                             calling  sequence
  Sect OctLoc Primary Altret sequence   type   Parms  Name
     3      0   yes    yes     yes      Std        3  THC$CVTUTS

  ****  Entry refs  ****

         Check        Calling
        calling       sequence
Altret sequence SRef   type   Args  Name
                       nStd      0 X66_AUTO_3
                       nStd      0 X66_AALT
                       nStd      0 X66_ARET

  ****  Data refs  ****

  Flags:  r = read only, s = secondary
Flgs Name                             Flgs Name                             Flgs Name
     M$UC                                  TH_XSA_BUF_VECTOR
PL6.E3A0      #009=THC$CVTUTS File=THC$COMMANDS.:E05TSI                          WED 07/30/97 06:13 Page:470

  ****  Segment refs  ****

  Flags:  r = read only, s = secondary
Flgs Name                             Flgs Name                             Flgs Name
     ISSID                                 NULLSID
PL6.E3A0      #009=THC$CVTUTS File=THC$COMMANDS.:E05TSI                          WED 07/30/97 06:13 Page:471


     2534        1        /*M* THC$CVTUTS - CONVERTS TEXT INPUT TO TIME CONSTRAINT FOR ELAN */
     2535        2        /*T***********************************************************/
     2536        3        /*T*                                                         */
     2537        4        /*T* Copyright (c) Bull HN Information Systems Inc., 1997    */
     2538        5        /*T*                                                         */
     2539        6        /*T***********************************************************/
     2540        7        THC$CVTUTS: PROC(TOP$,DAYFLG,UTS) ALTRET;

      7  3 000000   000000 700200 xent  THC$CVTUTS   TSX0  ! X66_AUTO_3
         3 000001   000016 000003                    ZERO    14,3

     2541        8        /**/
     2542        9        /* PARAMS */
     2543       10    1   DCL TOP$ PTR;
     2544       11    1   DCL DAYFLG SBIN;
     2545       12    1   DCL UTS UBIN;
     2546       13        /**/
     2547       14        /* INCLUDE FILES */
     2548       15        %INCLUDE CP_6;
     2549       96        %INCLUDE XU_MACRO_C;
     2550     3202        %INCLUDE TH_PERR_C;
     2551     3243        %INCLUDE TH_DATA_R;
     2552     3321        %INCLUDE TH_SUBS_C;
     2553     3703        /**/
     2554     3704        /* VARS */
     2555     3705    1   DCL I UBIN;
     2556     3706    1   DCL 1 TBUF STATIC,
     2557     3707    1         2 HH CHAR(2),
     2558     3708    1         2 * CHAR(1),
     2559     3709    1         2 MM CHAR(2),
     2560     3710    1         2 * CHAR(1),
     2561     3711    1         2 SS CHAR(2),
     2562     3712    1         2 * CHAR(1),
     2563     3713    1         2 SM CHAR(2);
     2564     3714    1   DCL 1 DBUF STATIC,
     2565     3715    1         2 MM CHAR(2),
PL6.E3A0      #009=THC$CVTUTS File=THC$COMMANDS.:E05TSI                          WED 07/30/97 06:13 Page:472
     2566     3716    1         2 * CHAR(1),
     2567     3717    1         2 DD CHAR(2),
     2568     3718    1         2 * CHAR(1),
     2569     3719    1         2 YY CHAR(2);
     2570     3720    1   DCL TIMECHARS CHAR(4);
     2571     3721    1   DCL 1 TIMECHAR REDEF TIMECHARS,
     2572     3722    1         2 HH CHAR(2),
     2573     3723    1         2 MM CHAR(2);
     2574     3724    1   DCL SYM$ PTR;
     2575     3725        /**/
     2576     3726        /* FPT DEFINITIONS */
     2577     3727        %FPT_TIME (FPTN=FPT_GETTIME,
     2578     3728                   DATE=DBUF,
     2579     3729                   TIME=TBUF,
     2580     3730                   SOURCE=CLOCK,
     2581     3731                   DEST=LOCAL);
     2582     3750        %FPT_TIME (FPTN=FPT_GETUTS,
     2583     3751                   DATE=DBUF,
     2584     3752                   TIME=TBUF,
     2585     3753                   SOURCE=LOCAL,
     2586     3754                   DEST=UTS);
     2587     3773        /**/
     2588     3774        /* MACRO INVOCATIONS */
     2589     3775        %PARSE$OUT (NAME=OUT$BLK,STCLASS="BASED(TOP$)");
     2590     3820        %PARSE$SYM (NAME=OUT$SYM,STCLASS="BASED(SYM$)");
     2591     3858        /**/
     2592     3859        %EJECT;
PL6.E3A0      #009=THC$CVTUTS File=THC$COMMANDS.:E05TSI                          WED 07/30/97 06:13 Page:473
     2593     3860    1           CALL M$TIME(FPT_GETTIME);

   3860  3 000002   000006 630400 1                  EPPR0   FPT_GETTIME
         3 000003   020004 713400                    CLIMB   8196
         3 000004   402000 401760                    pmme    nvectors=5

     2594     3861    1           IF DAYFLG > 0

   3861  3 000005   200004 470500                    LDP0    @DAYFLG,,AUTO
         3 000006   000000 235100                    LDA     0,,PR0
         3 000007   000023 604400 3                  TMOZ    s:3871

     2595     3862    1              THEN                         /* DEFAULT TIME = 23:59               */
     2596     3863    2              DO;

     2597     3864    2                 TBUF.HH = '23';

   3864  3 000010   000000 220000 2                  LDX0    0
         3 000011   000000 740000 1                  STX0    TBUF

     2598     3865    2                 TBUF.MM = '59';

   3865  3 000012   040000 100400                    MLR     fill='040'O
         3 000013   000001 000002 2                  ADSC9   1                        cn=0,n=2
         3 000014   000000 600002 1                  ADSC9   TBUF                     cn=3,n=2

     2599     3866    2                 TBUF.SS = '59';

   3866  3 000015   000001 221000 2                  LDX1    1
         3 000016   000001 441000 1                  SXL1    TBUF+1

     2600     3867    2                 TBUF.SM = '99';

   3867  3 000017   000002 236000 2                  LDQ     2
         3 000020   000011 772000                    QRL     9
         3 000021   000002 552030 1                  STBQ    TBUF+2,'30'O

PL6.E3A0      #009=THC$CVTUTS File=THC$COMMANDS.:E05TSI                          WED 07/30/97 06:13 Page:474
     2601     3868    2              END;

   3868  3 000022   000034 710000 3                  TRA     s:3876

     2602     3869    1              ELSE                         /* DEFAULT TIME = 00:00               */
     2603     3870    2              DO;

     2604     3871    2                 TBUF.HH = '00';

   3871  3 000023   000003 220000 2                  LDX0    3
         3 000024   000000 740000 1                  STX0    TBUF

     2605     3872    2                 TBUF.MM = '00';

   3872  3 000025   040000 100400                    MLR     fill='040'O
         3 000026   000003 000002 2                  ADSC9   3                        cn=0,n=2
         3 000027   000000 600002 1                  ADSC9   TBUF                     cn=3,n=2

     2606     3873    2                 TBUF.SS = '00';

   3873  3 000030   000001 440000 1                  SXL0    TBUF+1

     2607     3874    2                 TBUF.SM = '00';

   3874  3 000031   000003 236000 2                  LDQ     3
         3 000032   000011 772000                    QRL     9
         3 000033   000002 552030 1                  STBQ    TBUF+2,'30'O

     2608     3875    2              END;

     2609     3876    2           DO I = 0 TO OUT$BLK.NSUBLKS - 1;

   3876  3 000034   200006 450100                    STZ     I,,AUTO
         3 000035   000161 710000 3                  TRA     s:3901+3

     2610     3877    3              DO CASE(OUT$BLK.SUBLK$(I)->OUT$BLK.CODE);

PL6.E3A0      #009=THC$CVTUTS File=THC$COMMANDS.:E05TSI                          WED 07/30/97 06:13 Page:475
   3877  3 000036   200003 470500                    LDP0    @TOP$,,AUTO
         3 000037   000000 471500                    LDP1    0,,PR0
         3 000040   200006 720100                    LXL0    I,,AUTO
         3 000041   100003 473510                    LDP3    3,X0,PR1
         3 000042   300000 721100                    LXL1    0,,PR3
         3 000043   000003 101003                    CMPX1   3,DU
         3 000044   000046 602011 3                  TNC     s:3877+8,X1
         3 000045   000156 710000 3                  TRA     s:3901
         3 000046   000156 710000 3                  TRA     s:3901
         3 000047   000051 710000 3                  TRA     s:3879
         3 000050   000107 710000 3                  TRA     s:3884

     2611     3878    3                 CASE(%DATE$);

     2612     3879    3                    CALL FILL_FIELD(OUT$BLK.SUBLK$(I)->OUT$BLK.SUBLK$(0),DBUF.MM)
              3879                             ALTRET(BAD_TIME);

   3879  3 000051   000000 236000 4                  LDQ     0
         3 000052   200014 756100                    STQ     @SYM$+1,,AUTO
         3 000053   300003 631500                    EPPR1   3,,PR3
         3 000054   200013 451500                    STP1    SYM$+3,,AUTO
         3 000055   000201 701000 3                  TSX1    FILL_FIELD
         3 000056   000200 702000 3                  TSX2    BAD_TIME

     2613     3880    3                    CALL FILL_FIELD(OUT$BLK.SUBLK$(I)->OUT$BLK.SUBLK$(1),DBUF.DD)
              3880                             ALTRET(BAD_TIME);

   3880  3 000057   200003 470500                    LDP0    @TOP$,,AUTO
         3 000060   000000 471500                    LDP1    0,,PR0
         3 000061   200006 720100                    LXL0    I,,AUTO
         3 000062   100003 473510                    LDP3    3,X0,PR1
         3 000063   000001 236000 4                  LDQ     1
         3 000064   200014 756100                    STQ     @SYM$+1,,AUTO
         3 000065   300004 631500                    EPPR1   4,,PR3
         3 000066   200013 451500                    STP1    SYM$+3,,AUTO
         3 000067   000201 701000 3                  TSX1    FILL_FIELD
         3 000070   000200 702000 3                  TSX2    BAD_TIME
PL6.E3A0      #009=THC$CVTUTS File=THC$COMMANDS.:E05TSI                          WED 07/30/97 06:13 Page:476

     2614     3881    3                    IF OUT$BLK.SUBLK$(I)->OUT$BLK.NSUBLKS = 3 THEN

   3881  3 000071   200003 470500                    LDP0    @TOP$,,AUTO
         3 000072   000000 471500                    LDP1    0,,PR0
         3 000073   200006 720100                    LXL0    I,,AUTO
         3 000074   100003 473510                    LDP3    3,X0,PR1
         3 000075   300001 221100                    LDX1    1,,PR3
         3 000076   000003 101003                    CMPX1   3,DU
         3 000077   000156 601000 3                  TNZ     s:3901

     2615     3882    3                    CALL FILL_FIELD(OUT$BLK.SUBLK$(I)->OUT$BLK.SUBLK$(2),DBUF.YY)
              3882                             ALTRET(BAD_TIME);

   3882  3 000100   000002 236000 4                  LDQ     2
         3 000101   200014 756100                    STQ     @SYM$+1,,AUTO
         3 000102   300005 631500                    EPPR1   5,,PR3
         3 000103   200013 451500                    STP1    SYM$+3,,AUTO
         3 000104   000201 701000 3                  TSX1    FILL_FIELD
         3 000105   000200 702000 3                  TSX2    BAD_TIME
         3 000106   000156 710000 3                  TRA     s:3901

     2616     3883    3                 CASE(%TIME$);

     2617     3884    3             IF OUT$BLK.SUBLK$(I)->OUT$BLK.NSUBLKS = 1

   3884  3 000107   300001 222100                    LDX2    1,,PR3
         3 000110   000001 102003                    CMPX2   1,DU
         3 000111   000136 601000 3                  TNZ     s:3897

     2618     3885    3               THEN
     2619     3886    4                 DO;

     2620     3887    4                    SYM$=OUT$BLK.SUBLK$(I)->OUT$BLK.SUBLK$(0);

   3887  3 000112   300003 236100                    LDQ     3,,PR3
         3 000113   200010 756100                    STQ     SYM$,,AUTO
PL6.E3A0      #009=THC$CVTUTS File=THC$COMMANDS.:E05TSI                          WED 07/30/97 06:13 Page:477

     2621     3888    4                   IF OUT$SYM.COUNT ~= 4

   3888  3 000114   200010 474500                    LDP4    SYM$,,AUTO
         3 000115   400004 236100                    LDQ     4,,PR4
         3 000116   777000 376003                    ANQ     -512,DU
         3 000117   004000 116003                    CMPQ    2048,DU
         3 000120   000122 600000 3                  TZE     s:3891

     2622     3889    4                      THEN
     2623     3890    4                         ALTRETURN;

   3890  3 000121   000000 702200 xent               TSX2  ! X66_AALT

     2624     3891    4                    TIMECHARS = OUT$SYM.TEXT;

   3891  3 000122   400004 236100                    LDQ     4,,PR4
         3 000123   000033 772000                    QRL     27
         3 000124   000000 623006                    EAX3    0,QL
         3 000125   040100 100540                    MLR     fill='040'O
         3 000126   400004 200013                    ADSC9   4,,PR4                   cn=1,n=*X3
         3 000127   200007 000004                    ADSC9   TIMECHARS,,AUTO          cn=0,n=4

     2625     3892    4                    TBUF.HH = TIMECHAR.HH;

   3892  3 000130   200007 224100                    LDX4    TIMECHARS,,AUTO
         3 000131   000000 744000 1                  STX4    TBUF

     2626     3893    4                    TBUF.MM = TIMECHAR.MM;

   3893  3 000132   040000 100500                    MLR     fill='040'O
         3 000133   200007 400002                    ADSC9   TIMECHARS,,AUTO          cn=2,n=2
         3 000134   000000 600002 1                  ADSC9   TBUF                     cn=3,n=2

     2627     3894    4                 END;

   3894  3 000135   000156 710000 3                  TRA     s:3901
PL6.E3A0      #009=THC$CVTUTS File=THC$COMMANDS.:E05TSI                          WED 07/30/97 06:13 Page:478

     2628     3895    3                ELSE
     2629     3896    4                  DO;

     2630     3897    4                    CALL FILL_FIELD(OUT$BLK.SUBLK$(I)->OUT$BLK.SUBLK$(0),TBUF.HH)
              3897                             ALTRET(BAD_TIME);

   3897  3 000136   000003 236000 4                  LDQ     3
         3 000137   200014 756100                    STQ     @SYM$+1,,AUTO
         3 000140   300003 631500                    EPPR1   3,,PR3
         3 000141   200013 451500                    STP1    SYM$+3,,AUTO
         3 000142   000201 701000 3                  TSX1    FILL_FIELD
         3 000143   000200 702000 3                  TSX2    BAD_TIME

     2631     3898    4                    CALL FILL_FIELD(OUT$BLK.SUBLK$(I)->OUT$BLK.SUBLK$(1),TBUF.MM)
              3898                             ALTRET(BAD_TIME);

   3898  3 000144   200003 470500                    LDP0    @TOP$,,AUTO
         3 000145   000000 471500                    LDP1    0,,PR0
         3 000146   200006 720100                    LXL0    I,,AUTO
         3 000147   100003 473510                    LDP3    3,X0,PR1
         3 000150   000004 236000 4                  LDQ     4
         3 000151   200014 756100                    STQ     @SYM$+1,,AUTO
         3 000152   300004 631500                    EPPR1   4,,PR3
         3 000153   200013 451500                    STP1    SYM$+3,,AUTO
         3 000154   000201 701000 3                  TSX1    FILL_FIELD
         3 000155   000200 702000 3                  TSX2    BAD_TIME

     2632     3899    4                  END;

     2633     3900    3              END;                         /* CASE CODE                          */

     2634     3901    2           END;                            /* DO I                               */

   3901  3 000156   200006 235100                    LDA     I,,AUTO
         3 000157   000001 035007                    ADLA    1,DL
         3 000160   200006 755100                    STA     I,,AUTO
PL6.E3A0      #009=THC$CVTUTS File=THC$COMMANDS.:E05TSI                          WED 07/30/97 06:13 Page:479
         3 000161   200003 470500                    LDP0    @TOP$,,AUTO
         3 000162   000000 471500                    LDP1    0,,PR0
         3 000163   100001 236100                    LDQ     1,,PR1
         3 000164   000022 772000                    QRL     18
         3 000165   200006 116100                    CMPQ    I,,AUTO
         3 000166   000170 600000 3                  TZE     s:3902
         3 000167   000036 603000 3                  TRC     s:3877

     2635     3902    1           FPT_GETUTS.TSTAMP_ = VECTOR(UTS);

   3902  3 000170   777640 235007                    LDA     -96,DL
         3 000171   200005 236100                    LDQ     @UTS,,AUTO
         3 000172   000032 757000 1                  STAQ    FPT_GETUTS+8

     2636     3903    1           CALL M$TIME(FPT_GETUTS) ALTRET(BAD_TIME);

   3903  3 000173   000022 630400 1                  EPPR0   FPT_GETUTS
         3 000174   420004 713400                    CLIMB   alt,+8196
         3 000175   402000 401760                    pmme    nvectors=5
         3 000176   000200 702000 3                  TSX2    BAD_TIME

     2637     3904    1           RETURN;

   3904  3 000177   000000 702200 xent               TSX2  ! X66_ARET

     2638     3905    1   BAD_TIME:
     2639     3906    1           ALTRETURN;

   3906  3 000200   000000 702200 xent  BAD_TIME     TSX2  ! X66_AALT

     2640     3907        %EJECT;
PL6.E3A0      #009=THC$CVTUTS File=THC$COMMANDS.:E05TSI                          WED 07/30/97 06:13 Page:480
     2641     3908    1   FILL_FIELD: PROC(SYM$,FIELD) ALTRET;

   3908  3 000201   200012 741300       FILL_FIELD   STX1  ! SYM$+2,,AUTO

     2642     3909        /**/
     2643     3910        /* PARAMS */
     2644     3911    2   DCL SYM$ PTR;
     2645     3912    2   DCL FIELD CHAR(2);
     2646     3913    2   DCL RFIELD(0:1) REDEF FIELD CHAR(1);
     2647     3914        /**/
     2648     3915        %PARSE$SYM (NAME=OUT$SYM,STCLASS="BASED(SYM$)");
     2649     3953        /**/
     2650     3954    2        IF OUT$SYM.COUNT = 2

   3954  3 000202   200013 470500                    LDP0    @SYM$,,AUTO
         3 000203   000000 471500                    LDP1    0,,PR0
         3 000204   100004 236100                    LDQ     4,,PR1
         3 000205   777000 376003                    ANQ     -512,DU
         3 000206   002000 116003                    CMPQ    1024,DU
         3 000207   000220 601000 3                  TNZ     s:3957

     2651     3955    2           THEN FIELD = OUT$SYM.TEXT;

   3955  3 000210   100004 236100                    LDQ     4,,PR1
         3 000211   000033 772000                    QRL     27
         3 000212   000000 620006                    EAX0    0,QL
         3 000213   200014 473500                    LDP3    @FIELD,,AUTO
         3 000214   040100 100540                    MLR     fill='040'O
         3 000215   100004 200010                    ADSC9   4,,PR1                   cn=1,n=*X0
         3 000216   300000 000002                    ADSC9   0,,PR3                   cn=0,n=2
         3 000217   000237 710000 3                  TRA     s:3967

     2652     3956    2           ELSE
     2653     3957    2        IF OUT$SYM.COUNT = 1

   3957  3 000220   001000 116003                    CMPQ    512,DU
         3 000221   000236 601000 3                  TNZ     s:3965
PL6.E3A0      #009=THC$CVTUTS File=THC$COMMANDS.:E05TSI                          WED 07/30/97 06:13 Page:481

     2654     3958    2           THEN
     2655     3959    3           DO;

     2656     3960    3              RFIELD(0) = '0';

   3960  3 000222   200014 473500                    LDP3    @FIELD,,AUTO
         3 000223   040100 100400                    MLR     fill='040'O
         3 000224   000005 000001 4                  ADSC9   5                        cn=0,n=1
         3 000225   300000 000001                    ADSC9   0,,PR3                   cn=0,n=1

     2657     3961    3              RFIELD(1) = OUT$SYM.TEXT;

   3961  3 000226   000000 471500                    LDP1    0,,PR0
         3 000227   100004 236100                    LDQ     4,,PR1
         3 000230   000033 772000                    QRL     27
         3 000231   000000 620006                    EAX0    0,QL
         3 000232   040100 100540                    MLR     fill='040'O
         3 000233   100004 200010                    ADSC9   4,,PR1                   cn=1,n=*X0
         3 000234   300000 200001                    ADSC9   0,,PR3                   cn=1,n=1

     2658     3962    3           END;

   3962  3 000235   000237 710000 3                  TRA     s:3967

     2659     3963    2           ELSE                            /* ERROR                              */
     2660     3964    3           DO;

     2661     3965    3              ALTRETURN;

   3965  3 000236   000000 702211                    TSX2  ! 0,X1

     2662     3966    3           END;                            /* IF                                 */
     2663     3967    2        RETURN;

   3967  3 000237   200012 221300                    LDX1  ! SYM$+2,,AUTO
         3 000240   000001 702211                    TSX2  ! 1,X1
PL6.E3A0      #009=THC$CVTUTS File=THC$COMMANDS.:E05TSI                          WED 07/30/97 06:13 Page:482
     2664     3968    2   END FILL_FIELD;
     2665     3969    1   END THC$CVTUTS;
     2666     3970        %EOD;

PL6.E3A0      #009=THC$CVTUTS File=THC$COMMANDS.:E05TSI                          WED 07/30/97 06:13 Page:483
--  Include file information  --

   B_STRINGS_C.:E05TOU  is referenced.
   TH_SUBS_C.:E05TOU  is referenced.
   TH_DATA_R.:E05TOU  cannot be made into a system file and is referenced.
   TH_PERR_C.:E05TOU  is referenced.
   XU_MACRO_C.:E05TOU  is referenced.
   CP_6.:E05TOU  cannot be made into a system file and is referenced.
   B$JIT_C.:E05TOU  was found in the system file and is never referenced.
   CP_6_C.:E05TOU  was found in the system file and is referenced.
      No diagnostics issued in procedure THC$CVTUTS.
PL6.E3A0      #009=THC$CVTUTS File=THC$COMMANDS.:E05TSI                          WED 07/30/97 06:13 Page:484

 **** Variables and constants ****

  ****  Section 001  Data  THC$CVTUTS

  ****  Scalars and arrays  ****
OctLoc.c.b A Datatyp(siz) R M Lvl/name                 OctLoc.c.b A Datatyp(siz) R M Lvl/name

     3-0-0/c STRC(72)    r     1 DBUF                       6-0-0/d STRC(432)   r     1 FPT_GETTIME
    22-0-0/d STRC(432)   r     1 FPT_GETUTS                 0-0-0/c STRC(99)    r     1 TBUF

  ****  Auto variables  ****

  ****  Scalars and arrays  ****
OctLoc.c.b A Datatyp(siz) R M Lvl/name                 OctLoc.c.b A Datatyp(siz) R M Lvl/name

     4-0-0/w PTR         r     1 @DAYFLG                   14-0-0/w PTR         r     1 @FIELD
    13-0-0/w PTR         r     1 @SYM$                      3-0-0/w PTR         r     1 @TOP$
     5-0-0/w PTR         r     1 @UTS                      *0-0-0/w SBIN        r     1 DAYFLG
    *0-0-0/c CHAR(2)     r     1 FIELD                      6-0-0/w UBIN        r     1 I
    *0-0-0/c CHAR        r     1 RFIELD(0:1)               10-0-0/w PTR         r     1 SYM$
    *0-0-0/w PTR         r     1 SYM$                       7-0-0/c STRC        r     1 TIMECHAR
     7-0-0/c CHAR(4)     r     1 TIMECHARS                 *0-0-0/w PTR         r     1 TOP$
    *0-0-0/w UBIN        r     1 UTS

  ****  BASED and DCB variables  ****

  ****  Scalars and arrays  ****
OctLoc.c.b A Datatyp(siz) R M Lvl/name                 OctLoc.c.b A Datatyp(siz) R M Lvl/name

     0-0-0/w STRC(144)   r     1 OUT$BLK                    0-0-0/w ASTR(153)   r     1 OUT$SYM
     0-0-0/w ASTR(153)   r     1 OUT$SYM


   Procedure THC$CVTUTS requires 161 words for executable code.
   Procedure THC$CVTUTS requires 14 words of local(AUTO) storage.
PL6.E3A0      #009=THC$CVTUTS File=THC$COMMANDS.:E05TSI                          WED 07/30/97 06:13 Page:485
          *** CROSS REFERENCE LISTING ***
**     DENOTES     IDENTIFIER DEFINITION
<<                 IDENTIFIER'S VALUE SET
>>                 IDENTIFIER'S VALUE USED
<>                 IDENTIFIER SET AND/OR USED
--                 IDENTIFIER REFERENCED
PL6.E3A0      #009=THC$CVTUTS File=THC$COMMANDS.:E05TSI                          WED 07/30/97 06:13 Page:486
          MINI XREF LISTING

BAD_TIME
      3906**LABEL    3879--CALLALT  3880--CALLALT  3882--CALLALT  3897--CALLALT  3898--CALLALT  3903--CALLALT
DAYFLG
        11**DCL         7--PROC     3861>>IF
DBUF
      3714**DCL      3742--DCLINIT  3743--DCLINIT  3765--DCLINIT  3766--DCLINIT
DBUF.DD
      3717**DCL      3880<>CALL
DBUF.MM
      3715**DCL      3879<>CALL
DBUF.YY
      3719**DCL      3882<>CALL
FIELD IN PROCEDURE FILL_FIELD
      3912**DCL      3908--PROC     3913--REDEF    3955<<ASSIGN
FILL_FIELD
      3908**PROC     3879--CALL     3880--CALL     3882--CALL     3897--CALL     3898--CALL
FPT_GETTIME
      3742**DCL      3860<>CALL
FPT_GETTIME.V
      3746**DCL      3742--DCLINIT
FPT_GETUTS
      3765**DCL      3903<>CALL
FPT_GETUTS.TSTAMP_
      3768**DCL      3902<<ASSIGN
FPT_GETUTS.V
      3769**DCL      3765--DCLINIT
I
      3705**DCL      3876<<DOINDEX  3877>>DOCASE   3879>>CALL     3880>>CALL     3881>>IF       3882>>CALL
      3884>>IF       3887>>ASSIGN   3897>>CALL     3898>>CALL
M$TIME
        91**DCL-ENT  3860--CALL     3903--CALL
OUT$BLK.CODE
PL6.E3A0      #009=THC$CVTUTS File=THC$COMMANDS.:E05TSI                          WED 07/30/97 06:13 Page:487
      3789**DCL      3877>>DOCASE
OUT$BLK.NSUBLKS
      3793**DCL      3876>>DOINDEX  3881>>IF       3884>>IF
OUT$BLK.SUBLK$
      3814**DCL      3877>>DOCASE   3879>>CALL     3879<>CALL     3880>>CALL     3880<>CALL     3881>>IF
      3882>>CALL     3882<>CALL     3884>>IF       3887>>ASSIGN   3887>>ASSIGN   3897>>CALL     3897<>CALL
      3898>>CALL     3898<>CALL
OUT$SYM.COUNT
      3850**DCL      3853--IMP-SIZ  3888>>IF       3891>>ASSIGN
OUT$SYM.TEXT
      3853**DCL      3891>>ASSIGN
OUT$SYM.COUNT IN PROCEDURE FILL_FIELD
      3945**DCL      3948--IMP-SIZ  3954>>IF       3955>>ASSIGN   3957>>IF       3961>>ASSIGN
OUT$SYM.TEXT IN PROCEDURE FILL_FIELD
      3948**DCL      3955>>ASSIGN   3961>>ASSIGN
RFIELD IN PROCEDURE FILL_FIELD
      3913**DCL      3960<<ASSIGN   3961<<ASSIGN
SYM$
      3724**DCL      3827--IMP-PTR  3887<<ASSIGN   3888>>IF       3891>>ASSIGN   3891>>ASSIGN
SYM$ IN PROCEDURE FILL_FIELD
      3911**DCL      3908--PROC     3922--IMP-PTR  3954>>IF       3955>>ASSIGN   3955>>ASSIGN   3957>>IF
      3961>>ASSIGN   3961>>ASSIGN
TBUF
      3706**DCL      3744--DCLINIT  3745--DCLINIT  3767--DCLINIT  3768--DCLINIT
TBUF.HH
      3707**DCL      3864<<ASSIGN   3871<<ASSIGN   3892<<ASSIGN   3897<>CALL
TBUF.MM
      3709**DCL      3865<<ASSIGN   3872<<ASSIGN   3893<<ASSIGN   3898<>CALL
TBUF.SM
      3713**DCL      3867<<ASSIGN   3874<<ASSIGN
TBUF.SS
      3711**DCL      3866<<ASSIGN   3873<<ASSIGN
TH_CONSTRAINTS.E_BY_B
      3254**DCL      3254--REDEF
TH_CONSTRAINTS.M_BY_B
      3253**DCL      3253--REDEF
PL6.E3A0      #009=THC$CVTUTS File=THC$COMMANDS.:E05TSI                          WED 07/30/97 06:13 Page:488
TH_CONSTRAINTS.TYPES
      3251**DCL      3251--REDEF
TH_DEFAULT.E_BY_B
      3262**DCL      3262--REDEF
TH_DEFAULT.M_BY_B
      3261**DCL      3261--REDEF
TH_DEFAULT.TYPES
      3259**DCL      3259--REDEF
TH_SAVE.E_BY_B
      3270**DCL      3270--REDEF
TH_SAVE.M_BY_B
      3268**DCL      3268--REDEF
TH_SAVE.TYPES
      3266**DCL      3267--REDEF
TH_XSA_BUF_VECTOR
      3286**DCL      3286--REDEF
TIMECHAR.HH
      3722**DCL      3892>>ASSIGN
TIMECHAR.MM
      3723**DCL      3893>>ASSIGN
TIMECHARS
      3720**DCL      3721--REDEF    3891<<ASSIGN
TOP$
        10**DCL         7--PROC     3781--IMP-PTR  3876>>DOINDEX  3877>>DOCASE   3879>>CALL     3880>>CALL
      3881>>IF       3882>>CALL     3884>>IF       3887>>ASSIGN   3897>>CALL     3898>>CALL
UTS
        12**DCL         7--PROC     3902--ASSIGN

PL6.E3A0      #010=THC$THRESH File=THC$COMMANDS.:E05TSI                          WED 07/30/97 06:13 Page:489
     2667        1        /*M* PROCEDURE TO HANDLE THRESH COMMANDS FOR ELAN */
     2668        2        /*T***********************************************************/
     2669        3        /*T*                                                         */
     2670        4        /*T* Copyright (c) Bull HN Information Systems Inc., 1997    */
     2671        5        /*T*                                                         */
     2672        6        /*T***********************************************************/
     2673        7        THC$THRESH: PROC(TOP$);
     2674        8        /**/
     2675        9        /* PARAMS */
     2676       10    1   DCL TOP$ PTR;
     2677       11        /**/
     2678       12        /* INCLUDE FILES */
     2679       13        %INCLUDE CP_6;
     2680       94        %INCLUDE B$JIT;
     2681      384        %INCLUDE F$DCB;
     2682      433        %INCLUDE XU_MACRO_C;
     2683     3539        %INCLUDE TH$HIST;
     2684     3634        %INCLUDE TH_DATA_R;
     2685     3712        %INCLUDE TH_SUBS_C;
     2686     4094        %INCLUDE TH_PERR_C;
     2687     4135        /**/
     2688     4136    1   DCL B$JIT$ PTR SYMREF;
     2689     4137        /* ENTRY DEFS */
     2690     4138    1   DCL THG$GETREC ENTRY(4) ALTRET;
     2691     4139    1   DCL THS$SET_DEVS ENTRY(3) ALTRET;
     2692     4140    1   DCL THM$ERRMSG ENTRY(1);
     2693     4141    1   DCL THW$WRITE ENTRY(11);
     2694     4142        /**/
     2695     4143        /* DCBS */
     2696     4144    1   DCL M$DEVHIST DCB;
     2697     4145        /**/
     2698     4146        /* VARS */
     2699     4147    1   DCL M$DEVHIST$ PTR;
     2700     4148    1   DCL ONE CHAR(8) STATIC INIT('1       '); /* USED FOR GETREC CALLS             */
     2701     4149    1   DCL THRESH_KEY BIT(18) STATIC INIT('001001'O);
     2702     4150    1   DCL SYM$ PTR;
     2703     4151    1   DCL I UBIN;
PL6.E3A0      #010=THC$THRESH File=THC$COMMANDS.:E05TSI                          WED 07/30/97 06:13 Page:490
     2704     4152    1   DCL J UBIN;
     2705     4153    1   DCL ATTEN_FLG BIT(1) STATIC INIT('0'B);
     2706     4154    1   DCL ALERT_FLG BIT(1) STATIC INIT('0'B);
     2707     4155    1   DCL CODE UBIN;
     2708     4156    1   DCL TEXT CHAR(8);
     2709     4157    1   DCL LEN UBIN WORD;
     2710     4158    1   DCL ATTEN UBIN;
     2711     4159    1   DCL ALERT UBIN;
     2712     4160    1   DCL TEMP SBIN WORD;
     2713     4161    1   DCL TH$THRESH$ PTR;
     2714     4162    1   DCL DISPTHRESH CHAR(0) CONSTANT INIT(
     2715     4163    1   'Thresh for %4A: Atten = %2P%5A, Alert = %3P%5A%10P');
     2716     4164    1   DCL ATTEN_BUF CHAR(5);
     2717     4165    1   DCL ALERT_BUF CHAR(5);
     2718     4166    1   DCL BUF1 CHAR(2);
     2719     4167    1   DCL BUF2 CHAR(2);
     2720     4168        /**/
     2721     4169        /* MACRO INVOCATIONS */
     2722     4170        %PARSE$OUT (NAME=OUT$BLK,STCLASS="BASED(TOP$)");
     2723     4215        %PARSE$SYM (NAME=OUT$SYM,STCLASS="BASED(SYM$)");
     2724     4253        %TH$THRESH (NAME=TH$THRESH,NUMDEV#=511);
     2725     4259        %TH$THRESH (NAME=TH_THRESH,STCLASS=AUTO,NUMDEV#=511);
     2726     4265        /**/
     2727     4266        /* FPT DEFINITIONS */
     2728     4267        %FPT_OPEN (FPTN=OPEN_DEVHIST,
     2729     4268                   STCLASS=CONSTANT,
     2730     4269                   DCB=M$DEVHIST,
     2731     4270                   NAME=DEVHIST,
     2732     4271                   ACCT=DEVHIST_ACCT,
     2733     4272                   ASN=FILE,
     2734     4273                   ACS=DIRECT,
     2735     4274                   ORG=KEYED,
     2736     4275                   FUN=UPDATE);
     2737     4384        %FPT_WRITE (FPTN=WRITE_DEVHIST,
     2738     4385                    DCB=M$DEVHIST,
     2739     4386                    KEY=THRESH_KEY);
     2740     4417        %FPT_CLOSE (FPTN=CLOSE_DEVHIST,
PL6.E3A0      #010=THC$THRESH File=THC$COMMANDS.:E05TSI                          WED 07/30/97 06:13 Page:491
     2741     4418                    STCLASS=CONSTANT,
     2742     4419                    DCB=M$DEVHIST,
     2743     4420                    DISP=SAVE);
     2744     4462        %VLP_NAME (FPTN=DEVHIST,
     2745     4463                   STCLASS=CONSTANT,
     2746     4464                   NAME=':DEVHIST');
     2747     4491        %VLP_ACCT (FPTN=SYSTAC,
     2748     4492                   STCLASS=CONSTANT,
     2749     4493                   ACCT=':SYSTAC');
     2750     4506        /**/
     2751     4507        %EJECT;
PL6.E3A0      #010=THC$THRESH File=THC$COMMANDS.:E05TSI                          WED 07/30/97 06:13 Page:492
     2752     4508    1        ATTEN_FLG = %FALSE;
     2753     4509    1        ALERT_FLG = %FALSE;
     2754     4510    1        CODE = %ALL;
     2755     4511    1        TH_NUM_REP_DEVS = 0;
     2756     4512    2        DO I = 0 TO OUT$BLK.NSUBLKS - 1;
     2757     4513    3           DO CASE(OUT$BLK.SUBLK$(I)->OUT$BLK.CODE);
     2758     4514    3              CASE(%FOR_CLAUSE);
     2759     4515    4                 DO J = 0 TO OUT$BLK.SUBLK$(I)->OUT$BLK.NSUBLKS - 1;
     2760     4516    4                    TEXT = '00000000';
     2761     4517    4                    CODE = OUT$BLK.SUBLK$(I)->OUT$BLK.SUBLK$(J)->OUT$BLK.SUBLK$(0)->
              4517                             OUT$BLK.CODE;
     2762     4518    4                    LEN = 2;
     2763     4519    5                    DO CASE(CODE);
     2764     4520    5                       CASE(%MTU);
     2765     4521    5                          TEXT = 'MTU';
     2766     4522    5                          LEN = 3;
     2767     4523    5                       CASE(%MSU);
     2768     4524    5                          TEXT = 'MSU';
     2769     4525    5                          LEN = 3;
     2770     4526    5                       CASE(%CRU);
     2771     4527    5                          TEXT = 'CRU';
     2772     4528    5                          LEN = 3;
     2773     4529    5                       CASE(%PCU);
     2774     4530    5                          TEXT = 'PCU';
     2775     4531    5                          LEN = 3;
     2776     4532    5                       CASE(%PRU);
     2777     4533    5                          TEXT = 'PRU';
     2778     4534    5                          LEN = 3;
     2779     4535    5                       CASE(%MPC1);
     2780     4536    5                          TEXT = 'MPC';
     2781     4537    5                          LEN = 3;
     2782     4538    5                       CASE(%CONSOLE);
     2783     4539    5                          TEXT = 'CONSOLE';
     2784     4540    5                          LEN = 7;
     2785     4541    5                       CASE(%MEM);
     2786     4542    5                          TEXT = 'MEM';
     2787     4543    5                          LEN = 3;
PL6.E3A0      #010=THC$THRESH File=THC$COMMANDS.:E05TSI                          WED 07/30/97 06:13 Page:493
     2788     4544    5                       CASE(%MC);
     2789     4545    5                          TEXT = 'MC';
     2790     4546    5                       CASE(%MT);
     2791     4547    5                          TEXT = 'MT';
     2792     4548    5                       CASE(%SC);
     2793     4549    5                          TEXT = 'SC';
     2794     4550    5                       CASE(%DP);
     2795     4551    5                          TEXT = 'DP';
     2796     4552    5                       CASE(%CR);
     2797     4553    5                          TEXT = 'CR';
     2798     4554    5                       CASE(%CP);
     2799     4555    5                          TEXT = 'CP';
     2800     4556    5                       CASE(%LP);
     2801     4557    5                          TEXT = 'LP';
     2802     4558    5                       CASE(%UC);
     2803     4559    5                          TEXT = 'UC';
     2804     4560    5                       CASE(%DC);
     2805     4561    5                          TEXT = 'DC';
     2806     4562    5                       CASE(%TC);
     2807     4563    5                          TEXT = 'TC';
     2808     4564    5                       CASE(%FEP);
     2809     4565    5                          TEXT = 'FEP';
     2810     4566    5                          LEN = 3;
     2811     4567    5                       CASE(%IOM);
     2812     4568    5                          TEXT = 'IOM';
     2813     4569    5                          LEN = 3;
     2814     4570    5                       CASE(%ALL);
     2815     4571    5                          TEXT = 'ALL';
     2816     4572    5                          LEN = 3;
     2817     4573    5                    END;                      /* DO CASE CODE                       */
     2818     4574    4                    IF OUT$BLK.SUBLK$(I)->OUT$BLK.SUBLK$(J)->OUT$BLK.NSUBLKS = 2
     2819     4575    4                       THEN
     2820     4576    5                       DO;
     2821     4577    5                          SYM$ = OUT$BLK.SUBLK$(I)->OUT$BLK.SUBLK$(J)->OUT$BLK.SUBLK$(1
              4577                                   );
     2822     4578    5                          CALL INSERT(TEXT,LEN,OUT$SYM.COUNT,OUT$SYM.TEXT);
     2823     4579    5                          LEN = LEN + OUT$SYM.COUNT;
PL6.E3A0      #010=THC$THRESH File=THC$COMMANDS.:E05TSI                          WED 07/30/97 06:13 Page:494
     2824     4580    5                       END;
     2825     4581    4                       ELSE
     2826     4582    5                       DO;
     2827     4583    5                          LEN = 0;
     2828     4584    5                       END;
     2829     4585    4                    CALL THS$SET_DEVS(CODE,TEXT,LEN) ALTRET(RET);
     2830     4586    4                    END;  /* DO J */
     2831     4587    3              CASE(%ATTEN);
     2832     4588    3                 ATTEN_FLG = %TRUE;
     2833     4589    3                 ATTEN = 0;
     2834     4590    3                 SYM$ = OUT$BLK.SUBLK$(I)->OUT$BLK.SUBLK$(0);
     2835     4591    3                 CALL CHARBIN(TEMP,OUT$SYM.TEXT);
     2836     4592    3                 ATTEN = TEMP * 100;
     2837     4593    3                 IF OUT$BLK.SUBLK$(I)->OUT$BLK.NSUBLKS = 2
     2838     4594    3                    THEN                   /* FRACTIONAL PART IS THERE           */
     2839     4595    4                    DO;
     2840     4596    4                       SYM$ = OUT$BLK.SUBLK$(I)->OUT$BLK.SUBLK$(1);
     2841     4597    5                       IF OUT$SYM.COUNT = 1 THEN DO;
     2842     4598    5                          OUT$SYM.COUNT = 2;
     2843     4599    5                          CALL INSERT(OUT$SYM.TEXT,1,1,'0');
     2844     4600    5                          END;  /* IF COUNT = 1 */
     2845     4601    4                       CALL CHARBIN(TEMP,OUT$SYM.TEXT);
     2846     4602    4                       ATTEN = ATTEN + TEMP;
     2847     4603    4                    END;                   /* IF NSUBLKS = 2                     */
     2848     4604    3              CASE(%ALERT);
     2849     4605    3                 ALERT_FLG = %TRUE;
     2850     4606    3                 ALERT = 0;
     2851     4607    3                 SYM$ = OUT$BLK.SUBLK$(I)->OUT$BLK.SUBLK$(0);
     2852     4608    3                 CALL CHARBIN(TEMP,OUT$SYM.TEXT);
     2853     4609    3                 ALERT = TEMP * 100;
     2854     4610    3                 IF OUT$BLK.SUBLK$(I)->OUT$BLK.NSUBLKS = 2
     2855     4611    3                    THEN                   /* FRACTIONAL PART IS THERE           */
     2856     4612    4                    DO;
     2857     4613    4                       SYM$ = OUT$BLK.SUBLK$(I)->OUT$BLK.SUBLK$(1);
     2858     4614    5                       IF OUT$SYM.COUNT = 1 THEN DO;
     2859     4615    5                          OUT$SYM.COUNT = 2;
     2860     4616    5                          CALL INSERT(OUT$SYM.TEXT,1,1,'0');
PL6.E3A0      #010=THC$THRESH File=THC$COMMANDS.:E05TSI                          WED 07/30/97 06:13 Page:495
     2861     4617    5                          END;  /* IF COUNT = 1 */
     2862     4618    4                       CALL CHARBIN(TEMP,OUT$SYM.TEXT);
     2863     4619    4                       ALERT = ALERT + TEMP;
     2864     4620    4                    END;                   /* IF NSUBLKS = 2                     */
     2865     4621    3           END;                            /* DO CASE(CODE)                      */
     2866     4622    2        END;                               /* DO I                               */
     2867     4623
     2868     4624    1        CALL THG$GETREC(%DEVHIST,ONE);
     2869     4625    1        TH_THRESH = TH_RECORD.PTR$->TH$THRESH;
     2870     4626
     2871     4627    2        DO I = 0 TO TH_NUM_REP_DEVS - 1;
     2872     4628    3           DO J = 0 TO TH_NUM_DEVS - 1;
     2873     4629    3              IF TH_REP_DEVS(I) = TH_THRESH.DEVNAME(J)
     2874     4630    3                 THEN
     2875     4631    4                 DO;
     2876     4632    5                    IF NOT(ATTEN_FLG OR ALERT_FLG) THEN DO;  /* DISPLAY */
     2877     4633    5                       TEMP = TH_THRESH.ATTEN(J)/100;
     2878     4634    5                       CALL BINCHAR(BUF1,TEMP);
     2879     4635    5                       TEMP = MOD(TH_THRESH.ATTEN(J),100);
     2880     4636    5                       CALL BINCHAR(BUF2,TEMP);
     2881     4637    5                       CALL INSERT(ATTEN_BUF,0,5,BUF1,'.',BUF2);
     2882     4638    5                       TEMP = TH_THRESH.ALERT(J)/100;
     2883     4639    5                       CALL BINCHAR(BUF1,TEMP);
     2884     4640    5                       TEMP = MOD(TH_THRESH.ALERT(J),100);
     2885     4641    5                       CALL BINCHAR(BUF2,TEMP);
     2886     4642    5                       CALL INSERT(ALERT_BUF,0,5,BUF1,'.',BUF2);
     2887     4643    5                       CALL THW$WRITE(VECTOR(DISPTHRESH),
     2888     4644    5                                      VECTOR(TH_THRESH.DEVNAME(J)),
     2889     4645    5                                      VECTOR(ATTEN_BUF),
     2890     4646    5                                      VECTOR(ALERT_BUF));
     2891     4647    5                       END;  /* IF DISPLAY */
     2892     4648    5                    ELSE DO;
     2893     4649    5                       IF ATTEN_FLG
     2894     4650    5                          THEN TH_THRESH.ATTEN(J) = ATTEN;
     2895     4651    5                       IF ALERT_FLG
     2896     4652    5                          THEN TH_THRESH.ALERT(J) = ALERT;
     2897     4653    5                       END;  /* ELSE */
PL6.E3A0      #010=THC$THRESH File=THC$COMMANDS.:E05TSI                          WED 07/30/97 06:13 Page:496
     2898     4654    4                 END;                      /* IF                                 */
     2899     4655    3           END;                            /* DO J                               */
     2900     4656    2        END;  /* DO I */
     2901     4657    1        IF NOT(ATTEN_FLG OR ALERT_FLG) THEN RETURN;
     2902     4658    1        M$DEVHIST$ = DCBADDR(DCBNUM(M$DEVHIST));
     2903     4659    1        WRITE_DEVHIST.KEY_ = VECTOR(THRESH_KEY);
     2904     4660    1        WRITE_DEVHIST.BUF_ = VECTOR(TH_THRESH);
     2905     4661    1        WRITE_DEVHIST.BUF_.BOUND = M$DEVHIST$->F$DCB.ARS - 1;
     2906     4662
     2907     4663                                                /* WRITE RECORD BACK OUT              */
     2908     4664    1        IF DCBADDR(DCBNUM(M$DEVHIST))->F$DCB.FCD
     2909     4665    1           THEN CALL M$CLOSE(CLOSE_DEVHIST);
     2910     4666    1        CALL M$OPEN(OPEN_DEVHIST) ALTRET(BAG_IT);
     2911     4667    1        CALL M$WRITE(WRITE_DEVHIST) ALTRET(BAG_IT);
     2912     4668    1        CALL M$CLOSE(CLOSE_DEVHIST) ALTRET(BAG_IT);
     2913     4669    1   RET: RETURN;
     2914     4670    1   BAG_IT:
     2915     4671    1        CALL THM$ERRMSG(%E$TH_CANTSETTHRESH);
     2916     4672        /*E* ERROR: THE-E$TH_CANTSETTHRESH-0
     2917     4673             MESSAGE: You are not allowed to change thresholds.
     2918     4674             MESSAGE1: You do not have the priviliges needed to write to *DEVHIST.  */
     2919     4675    1        RETURN;
     2920     4676    1   END THC$THRESH;
     2921     4677        %EOD;

PL6.E3A0      #010=THC$THRESH File=THC$COMMANDS.:E05TSI                          WED 07/30/97 06:13 Page:497
--  Include file information  --

   TH_PERR_C.:E05TOU  is referenced.
   B_STRINGS_C.:E05TOU  is referenced.
   TH_SUBS_C.:E05TOU  is referenced.
   TH_DATA_R.:E05TOU  cannot be made into a system file and is referenced.
   TH$HIST.:E05TOU  is referenced.
   XU_MACRO_C.:E05TOU  is referenced.
   F$DCB.:E05TOU  cannot be made into a system file and is referenced.
   B$JIT.:E05TOU  cannot be made into a system file and is referenced.
   CP_6.:E05TOU  cannot be made into a system file and is referenced.
   B$JIT_C.:E05TOU  was found in the system file and is referenced.
   CP_6_C.:E05TOU  was found in the system file and is referenced.
      No diagnostics issued in procedure THC$THRESH.

   Procedure THC$THRESH requires 494 words for executable code.
   Procedure THC$THRESH requires 2092 words of local(AUTO) storage.

PL6.E3A0      #010=THC$THRESH File=THC$COMMANDS.:E05TSI                          WED 07/30/97 06:13 Page:498

 Object Unit name= THC$THRESH                                 File name= THC$COMMANDS.:E05TOU
 UTS= JUL 30 '97 06:13:59.84 WED                              Compiler= PL-6/E31         Sev=      00
 SharedLib= :SHARED_SYSTEM                                    Alt SharedLib=


    ****  Control sections  ****

 Sect   Type Bound  Init  Size OctSiz  Section name(segment info)
    0   DCB   even  none     0      0  M$UC
    1   DCB   even  none     0      0  M$DEVHIST
    2   Data  even  none    18     22  THC$THRESH
    3  RoData even  UTS    129    201  THC$THRESH
    4   Proc  even  none   494    756  THC$THRESH
    5  RoData even  none    13     15  THC$THRESH

    ****  Entry defs  ****

                              Check   Calling
                             calling  sequence
  Sect OctLoc Primary Altret sequence   type   Parms  Name
     4      0   yes            yes      Std        1  THC$THRESH

  ****  Entry refs  ****

         Check        Calling
        calling       sequence
Altret sequence SRef   type   Args  Name
 yes     yes           Std       3 THS$SET_DEVS
         yes           Std      11 THW$WRITE
         yes           Std       1 THM$ERRMSG
 yes     yes           Std       4 THG$GETREC
                       nStd      0 X66_AUTO_1
                       Std       0 B_CONSPOOL_D
                       nStd      0 X66_ARET
PL6.E3A0      #010=THC$THRESH File=THC$COMMANDS.:E05TSI                          WED 07/30/97 06:13 Page:499

  ****  Data refs  ****

  Flags:  r = read only, s = secondary
Flgs Name                             Flgs Name                             Flgs Name
     M$UC                                  TH_NUM_REP_DEVS                       TH_REP_DEVS
     TH_NUM_DEVS                           TH_RECORD                             TH_XSA_BUF_VECTOR
     DEVHIST_ACCT                          B$JIT$                                M$DEVHIST
     B_VECTNIL

  ****  Segment refs  ****

  Flags:  r = read only, s = secondary
Flgs Name                             Flgs Name                             Flgs Name
     ISSID                                 NULLSID                               ROSID
PL6.E3A0      #010=THC$THRESH File=THC$COMMANDS.:E05TSI                          WED 07/30/97 06:13 Page:500


     2667        1        /*M* PROCEDURE TO HANDLE THRESH COMMANDS FOR ELAN */
     2668        2        /*T***********************************************************/
     2669        3        /*T*                                                         */
     2670        4        /*T* Copyright (c) Bull HN Information Systems Inc., 1997    */
     2671        5        /*T*                                                         */
     2672        6        /*T***********************************************************/
     2673        7        THC$THRESH: PROC(TOP$);

      7  4 000000   000000 700200 xent  THC$THRESH   TSX0  ! X66_AUTO_1
         4 000001   004054 000001                    ZERO    2092,1

     2674        8        /**/
     2675        9        /* PARAMS */
     2676       10    1   DCL TOP$ PTR;
     2677       11        /**/
     2678       12        /* INCLUDE FILES */
     2679       13        %INCLUDE CP_6;
     2680       94        %INCLUDE B$JIT;
     2681      384        %INCLUDE F$DCB;
     2682      433        %INCLUDE XU_MACRO_C;
     2683     3539        %INCLUDE TH$HIST;
     2684     3634        %INCLUDE TH_DATA_R;
     2685     3712        %INCLUDE TH_SUBS_C;
     2686     4094        %INCLUDE TH_PERR_C;
     2687     4135        /**/
     2688     4136    1   DCL B$JIT$ PTR SYMREF;
     2689     4137        /* ENTRY DEFS */
     2690     4138    1   DCL THG$GETREC ENTRY(4) ALTRET;
     2691     4139    1   DCL THS$SET_DEVS ENTRY(3) ALTRET;
     2692     4140    1   DCL THM$ERRMSG ENTRY(1);
     2693     4141    1   DCL THW$WRITE ENTRY(11);
     2694     4142        /**/
     2695     4143        /* DCBS */
     2696     4144    1   DCL M$DEVHIST DCB;
     2697     4145        /**/
     2698     4146        /* VARS */
PL6.E3A0      #010=THC$THRESH File=THC$COMMANDS.:E05TSI                          WED 07/30/97 06:13 Page:501
     2699     4147    1   DCL M$DEVHIST$ PTR;
     2700     4148    1   DCL ONE CHAR(8) STATIC INIT('1       '); /* USED FOR GETREC CALLS             */
     2701     4149    1   DCL THRESH_KEY BIT(18) STATIC INIT('001001'O);
     2702     4150    1   DCL SYM$ PTR;
     2703     4151    1   DCL I UBIN;
     2704     4152    1   DCL J UBIN;
     2705     4153    1   DCL ATTEN_FLG BIT(1) STATIC INIT('0'B);
     2706     4154    1   DCL ALERT_FLG BIT(1) STATIC INIT('0'B);
     2707     4155    1   DCL CODE UBIN;
     2708     4156    1   DCL TEXT CHAR(8);
     2709     4157    1   DCL LEN UBIN WORD;
     2710     4158    1   DCL ATTEN UBIN;
     2711     4159    1   DCL ALERT UBIN;
     2712     4160    1   DCL TEMP SBIN WORD;
     2713     4161    1   DCL TH$THRESH$ PTR;
     2714     4162    1   DCL DISPTHRESH CHAR(0) CONSTANT INIT(
     2715     4163    1   'Thresh for %4A: Atten = %2P%5A, Alert = %3P%5A%10P');
     2716     4164    1   DCL ATTEN_BUF CHAR(5);
     2717     4165    1   DCL ALERT_BUF CHAR(5);
     2718     4166    1   DCL BUF1 CHAR(2);
     2719     4167    1   DCL BUF2 CHAR(2);
     2720     4168        /**/
     2721     4169        /* MACRO INVOCATIONS */
     2722     4170        %PARSE$OUT (NAME=OUT$BLK,STCLASS="BASED(TOP$)");
     2723     4215        %PARSE$SYM (NAME=OUT$SYM,STCLASS="BASED(SYM$)");
     2724     4253        %TH$THRESH (NAME=TH$THRESH,NUMDEV#=511);
     2725     4259        %TH$THRESH (NAME=TH_THRESH,STCLASS=AUTO,NUMDEV#=511);
     2726     4265        /**/
     2727     4266        /* FPT DEFINITIONS */
     2728     4267        %FPT_OPEN (FPTN=OPEN_DEVHIST,
     2729     4268                   STCLASS=CONSTANT,
     2730     4269                   DCB=M$DEVHIST,
     2731     4270                   NAME=DEVHIST,
     2732     4271                   ACCT=DEVHIST_ACCT,
     2733     4272                   ASN=FILE,
     2734     4273                   ACS=DIRECT,
     2735     4274                   ORG=KEYED,
PL6.E3A0      #010=THC$THRESH File=THC$COMMANDS.:E05TSI                          WED 07/30/97 06:13 Page:502
     2736     4275                   FUN=UPDATE);
     2737     4384        %FPT_WRITE (FPTN=WRITE_DEVHIST,
     2738     4385                    DCB=M$DEVHIST,
     2739     4386                    KEY=THRESH_KEY);
     2740     4417        %FPT_CLOSE (FPTN=CLOSE_DEVHIST,
     2741     4418                    STCLASS=CONSTANT,
     2742     4419                    DCB=M$DEVHIST,
     2743     4420                    DISP=SAVE);
     2744     4462        %VLP_NAME (FPTN=DEVHIST,
     2745     4463                   STCLASS=CONSTANT,
     2746     4464                   NAME=':DEVHIST');
     2747     4491        %VLP_ACCT (FPTN=SYSTAC,
     2748     4492                   STCLASS=CONSTANT,
     2749     4493                   ACCT=':SYSTAC');
     2750     4506        /**/
     2751     4507        %EJECT;
PL6.E3A0      #010=THC$THRESH File=THC$COMMANDS.:E05TSI                          WED 07/30/97 06:13 Page:503
     2752     4508    1        ATTEN_FLG = %FALSE;

   4508  4 000002   000003 450000 2                  STZ     ATTEN_FLG

     2753     4509    1        ALERT_FLG = %FALSE;

   4509  4 000003   000004 450000 2                  STZ     ALERT_FLG

     2754     4510    1        CODE = %ALL;

   4510  4 000004   000016 235007                    LDA     14,DL
         4 000005   200010 755100                    STA     CODE,,AUTO

     2755     4511    1        TH_NUM_REP_DEVS = 0;

   4511  4 000006   000000 450000 xsym               STZ     TH_NUM_REP_DEVS

     2756     4512    2        DO I = 0 TO OUT$BLK.NSUBLKS - 1;

   4512  4 000007   200006 450100                    STZ     I,,AUTO
         4 000010   000462 710000 4                  TRA     s:4622+3

     2757     4513    3           DO CASE(OUT$BLK.SUBLK$(I)->OUT$BLK.CODE);

   4513  4 000011   200003 470500                    LDP0    @TOP$,,AUTO
         4 000012   000000 471500                    LDP1    0,,PR0
         4 000013   200006 720100                    LXL0    I,,AUTO
         4 000014   100003 473510                    LDP3    3,X0,PR1
         4 000015   300000 721100                    LXL1    0,,PR3
         4 000016   000004 101003                    CMPX1   4,DU
         4 000017   000021 602011 4                  TNC     s:4513+8,X1
         4 000020   000457 710000 4                  TRA     s:4622
         4 000021   000457 710000 4                  TRA     s:4622
         4 000022   000025 710000 4                  TRA     s:4515
         4 000023   000336 710000 4                  TRA     s:4588
         4 000024   000407 710000 4                  TRA     s:4605

PL6.E3A0      #010=THC$THRESH File=THC$COMMANDS.:E05TSI                          WED 07/30/97 06:13 Page:504
     2758     4514    3              CASE(%FOR_CLAUSE);

     2759     4515    4                 DO J = 0 TO OUT$BLK.SUBLK$(I)->OUT$BLK.NSUBLKS - 1;

   4515  4 000025   200007 450100                    STZ     J,,AUTO
         4 000026   000324 710000 4                  TRA     s:4586+3

     2760     4516    4                    TEXT = '00000000';

   4516  4 000027   040100 100400                    MLR     fill='040'O
         4 000030   000153 000010 3                  ADSC9   DEVHIST+5                cn=0,n=8
         4 000031   200011 000010                    ADSC9   TEXT,,AUTO               cn=0,n=8

     2761     4517    4                    CODE = OUT$BLK.SUBLK$(I)->OUT$BLK.SUBLK$(J)->OUT$BLK.SUBLK$(0)->
              4517                             OUT$BLK.CODE;

   4517  4 000032   200003 470500                    LDP0    @TOP$,,AUTO
         4 000033   000000 471500                    LDP1    0,,PR0
         4 000034   200006 720100                    LXL0    I,,AUTO
         4 000035   100003 473510                    LDP3    3,X0,PR1
         4 000036   200007 721100                    LXL1    J,,AUTO
         4 000037   300003 474511                    LDP4    3,X1,PR3
         4 000040   400003 475500                    LDP5    3,,PR4
         4 000041   500000 236100                    LDQ     0,,PR5
         4 000042   777777 376007                    ANQ     -1,DL
         4 000043   200010 756100                    STQ     CODE,,AUTO

     2762     4518    4                    LEN = 2;

   4518  4 000044   000002 235007                    LDA     2,DL
         4 000045   200013 755100                    STA     LEN,,AUTO

     2763     4519    5                    DO CASE(CODE);

   4519  4 000046   000037 116007                    CMPQ    31,DL
         4 000047   000051 602006 4                  TNC     s:4519+3,QL
         4 000050   000261 710000 4                  TRA     s:4574
PL6.E3A0      #010=THC$THRESH File=THC$COMMANDS.:E05TSI                          WED 07/30/97 06:13 Page:505
         4 000051   000261 710000 4                  TRA     s:4574
         4 000052   000162 710000 4                  TRA     s:4542
         4 000053   000246 710000 4                  TRA     s:4568
         4 000054   000240 710000 4                  TRA     s:4565
         4 000055   000174 710000 4                  TRA     s:4547
         4 000056   000261 710000 4                  TRA     s:4574
         4 000057   000204 710000 4                  TRA     s:4551
         4 000060   000210 710000 4                  TRA     s:4553
         4 000061   000214 710000 4                  TRA     s:4555
         4 000062   000220 710000 4                  TRA     s:4557
         4 000063   000234 710000 4                  TRA     s:4563
         4 000064   000224 710000 4                  TRA     s:4559
         4 000065   000230 710000 4                  TRA     s:4561
         4 000066   000200 710000 4                  TRA     s:4549
         4 000067   000254 710000 4                  TRA     s:4571
         4 000070   000110 710000 4                  TRA     s:4521
         4 000071   000116 710000 4                  TRA     s:4524
         4 000072   000124 710000 4                  TRA     s:4527
         4 000073   000132 710000 4                  TRA     s:4530
         4 000074   000140 710000 4                  TRA     s:4533
         4 000075   000146 710000 4                  TRA     s:4536
         4 000076   000154 710000 4                  TRA     s:4539
         4 000077   000261 710000 4                  TRA     s:4574
         4 000100   000261 710000 4                  TRA     s:4574
         4 000101   000261 710000 4                  TRA     s:4574
         4 000102   000261 710000 4                  TRA     s:4574
         4 000103   000261 710000 4                  TRA     s:4574
         4 000104   000261 710000 4                  TRA     s:4574
         4 000105   000261 710000 4                  TRA     s:4574
         4 000106   000261 710000 4                  TRA     s:4574
         4 000107   000170 710000 4                  TRA     s:4545

     2764     4520    5                       CASE(%MTU);

     2765     4521    5                          TEXT = 'MTU';

   4521  4 000110   040100 100400                    MLR     fill='040'O
PL6.E3A0      #010=THC$THRESH File=THC$COMMANDS.:E05TSI                          WED 07/30/97 06:13 Page:506
         4 000111   000155 000003 3                  ADSC9   DEVHIST+7                cn=0,n=3
         4 000112   200011 000010                    ADSC9   TEXT,,AUTO               cn=0,n=8

     2766     4522    5                          LEN = 3;

   4522  4 000113   000003 235007                    LDA     3,DL
         4 000114   200013 755100                    STA     LEN,,AUTO
         4 000115   000261 710000 4                  TRA     s:4574

     2767     4523    5                       CASE(%MSU);

     2768     4524    5                          TEXT = 'MSU';

   4524  4 000116   040100 100400                    MLR     fill='040'O
         4 000117   000156 000003 3                  ADSC9   DEVHIST+8                cn=0,n=3
         4 000120   200011 000010                    ADSC9   TEXT,,AUTO               cn=0,n=8

     2769     4525    5                          LEN = 3;

   4525  4 000121   000003 235007                    LDA     3,DL
         4 000122   200013 755100                    STA     LEN,,AUTO
         4 000123   000261 710000 4                  TRA     s:4574

     2770     4526    5                       CASE(%CRU);

     2771     4527    5                          TEXT = 'CRU';

   4527  4 000124   040100 100400                    MLR     fill='040'O
         4 000125   000157 000003 3                  ADSC9   DEVHIST+9                cn=0,n=3
         4 000126   200011 000010                    ADSC9   TEXT,,AUTO               cn=0,n=8

     2772     4528    5                          LEN = 3;

   4528  4 000127   000003 235007                    LDA     3,DL
         4 000130   200013 755100                    STA     LEN,,AUTO
         4 000131   000261 710000 4                  TRA     s:4574

PL6.E3A0      #010=THC$THRESH File=THC$COMMANDS.:E05TSI                          WED 07/30/97 06:13 Page:507
     2773     4529    5                       CASE(%PCU);

     2774     4530    5                          TEXT = 'PCU';

   4530  4 000132   040100 100400                    MLR     fill='040'O
         4 000133   000160 000003 3                  ADSC9   DEVHIST+10               cn=0,n=3
         4 000134   200011 000010                    ADSC9   TEXT,,AUTO               cn=0,n=8

     2775     4531    5                          LEN = 3;

   4531  4 000135   000003 235007                    LDA     3,DL
         4 000136   200013 755100                    STA     LEN,,AUTO
         4 000137   000261 710000 4                  TRA     s:4574

     2776     4532    5                       CASE(%PRU);

     2777     4533    5                          TEXT = 'PRU';

   4533  4 000140   040100 100400                    MLR     fill='040'O
         4 000141   000161 000003 3                  ADSC9   DEVHIST+11               cn=0,n=3
         4 000142   200011 000010                    ADSC9   TEXT,,AUTO               cn=0,n=8

     2778     4534    5                          LEN = 3;

   4534  4 000143   000003 235007                    LDA     3,DL
         4 000144   200013 755100                    STA     LEN,,AUTO
         4 000145   000261 710000 4                  TRA     s:4574

     2779     4535    5                       CASE(%MPC1);

     2780     4536    5                          TEXT = 'MPC';

   4536  4 000146   040100 100400                    MLR     fill='040'O
         4 000147   000162 000003 3                  ADSC9   DEVHIST+12               cn=0,n=3
         4 000150   200011 000010                    ADSC9   TEXT,,AUTO               cn=0,n=8

     2781     4537    5                          LEN = 3;
PL6.E3A0      #010=THC$THRESH File=THC$COMMANDS.:E05TSI                          WED 07/30/97 06:13 Page:508

   4537  4 000151   000003 235007                    LDA     3,DL
         4 000152   200013 755100                    STA     LEN,,AUTO
         4 000153   000261 710000 4                  TRA     s:4574

     2782     4538    5                       CASE(%CONSOLE);

     2783     4539    5                          TEXT = 'CONSOLE';

   4539  4 000154   040100 100400                    MLR     fill='040'O
         4 000155   000163 000007 3                  ADSC9   DEVHIST+13               cn=0,n=7
         4 000156   200011 000010                    ADSC9   TEXT,,AUTO               cn=0,n=8

     2784     4540    5                          LEN = 7;

   4540  4 000157   000007 235007                    LDA     7,DL
         4 000160   200013 755100                    STA     LEN,,AUTO
         4 000161   000261 710000 4                  TRA     s:4574

     2785     4541    5                       CASE(%MEM);

     2786     4542    5                          TEXT = 'MEM';

   4542  4 000162   040100 100400                    MLR     fill='040'O
         4 000163   000165 000003 3                  ADSC9   DEVHIST+15               cn=0,n=3
         4 000164   200011 000010                    ADSC9   TEXT,,AUTO               cn=0,n=8

     2787     4543    5                          LEN = 3;

   4543  4 000165   000003 235007                    LDA     3,DL
         4 000166   200013 755100                    STA     LEN,,AUTO
         4 000167   000261 710000 4                  TRA     s:4574

     2788     4544    5                       CASE(%MC);

     2789     4545    5                          TEXT = 'MC';

PL6.E3A0      #010=THC$THRESH File=THC$COMMANDS.:E05TSI                          WED 07/30/97 06:13 Page:509
   4545  4 000170   040100 100400                    MLR     fill='040'O
         4 000171   000166 000002 3                  ADSC9   DEVHIST+16               cn=0,n=2
         4 000172   200011 000010                    ADSC9   TEXT,,AUTO               cn=0,n=8
         4 000173   000261 710000 4                  TRA     s:4574

     2790     4546    5                       CASE(%MT);

     2791     4547    5                          TEXT = 'MT';

   4547  4 000174   040100 100400                    MLR     fill='040'O
         4 000175   000155 000002 3                  ADSC9   DEVHIST+7                cn=0,n=2
         4 000176   200011 000010                    ADSC9   TEXT,,AUTO               cn=0,n=8
         4 000177   000261 710000 4                  TRA     s:4574

     2792     4548    5                       CASE(%SC);

     2793     4549    5                          TEXT = 'SC';

   4549  4 000200   040100 100400                    MLR     fill='040'O
         4 000201   000167 000002 3                  ADSC9   DEVHIST+17               cn=0,n=2
         4 000202   200011 000010                    ADSC9   TEXT,,AUTO               cn=0,n=8
         4 000203   000261 710000 4                  TRA     s:4574

     2794     4550    5                       CASE(%DP);

     2795     4551    5                          TEXT = 'DP';

   4551  4 000204   040100 100400                    MLR     fill='040'O
         4 000205   000170 000002 3                  ADSC9   DEVHIST+18               cn=0,n=2
         4 000206   200011 000010                    ADSC9   TEXT,,AUTO               cn=0,n=8
         4 000207   000261 710000 4                  TRA     s:4574

     2796     4552    5                       CASE(%CR);

     2797     4553    5                          TEXT = 'CR';

   4553  4 000210   040100 100400                    MLR     fill='040'O
PL6.E3A0      #010=THC$THRESH File=THC$COMMANDS.:E05TSI                          WED 07/30/97 06:13 Page:510
         4 000211   000157 000002 3                  ADSC9   DEVHIST+9                cn=0,n=2
         4 000212   200011 000010                    ADSC9   TEXT,,AUTO               cn=0,n=8
         4 000213   000261 710000 4                  TRA     s:4574

     2798     4554    5                       CASE(%CP);

     2799     4555    5                          TEXT = 'CP';

   4555  4 000214   040100 100400                    MLR     fill='040'O
         4 000215   000171 000002 3                  ADSC9   DEVHIST+19               cn=0,n=2
         4 000216   200011 000010                    ADSC9   TEXT,,AUTO               cn=0,n=8
         4 000217   000261 710000 4                  TRA     s:4574

     2800     4556    5                       CASE(%LP);

     2801     4557    5                          TEXT = 'LP';

   4557  4 000220   040100 100400                    MLR     fill='040'O
         4 000221   000172 000002 3                  ADSC9   DEVHIST+20               cn=0,n=2
         4 000222   200011 000010                    ADSC9   TEXT,,AUTO               cn=0,n=8
         4 000223   000261 710000 4                  TRA     s:4574

     2802     4558    5                       CASE(%UC);

     2803     4559    5                          TEXT = 'UC';

   4559  4 000224   040100 100400                    MLR     fill='040'O
         4 000225   000173 000002 3                  ADSC9   DEVHIST+21               cn=0,n=2
         4 000226   200011 000010                    ADSC9   TEXT,,AUTO               cn=0,n=8
         4 000227   000261 710000 4                  TRA     s:4574

     2804     4560    5                       CASE(%DC);

     2805     4561    5                          TEXT = 'DC';

   4561  4 000230   040100 100400                    MLR     fill='040'O
         4 000231   000174 000002 3                  ADSC9   DEVHIST+22               cn=0,n=2
PL6.E3A0      #010=THC$THRESH File=THC$COMMANDS.:E05TSI                          WED 07/30/97 06:13 Page:511
         4 000232   200011 000010                    ADSC9   TEXT,,AUTO               cn=0,n=8
         4 000233   000261 710000 4                  TRA     s:4574

     2806     4562    5                       CASE(%TC);

     2807     4563    5                          TEXT = 'TC';

   4563  4 000234   040100 100400                    MLR     fill='040'O
         4 000235   000175 000002 3                  ADSC9   DEVHIST+23               cn=0,n=2
         4 000236   200011 000010                    ADSC9   TEXT,,AUTO               cn=0,n=8
         4 000237   000261 710000 4                  TRA     s:4574

     2808     4564    5                       CASE(%FEP);

     2809     4565    5                          TEXT = 'FEP';

   4565  4 000240   040100 100400                    MLR     fill='040'O
         4 000241   000176 000003 3                  ADSC9   DEVHIST+24               cn=0,n=3
         4 000242   200011 000010                    ADSC9   TEXT,,AUTO               cn=0,n=8

     2810     4566    5                          LEN = 3;

   4566  4 000243   000003 235007                    LDA     3,DL
         4 000244   200013 755100                    STA     LEN,,AUTO
         4 000245   000261 710000 4                  TRA     s:4574

     2811     4567    5                       CASE(%IOM);

     2812     4568    5                          TEXT = 'IOM';

   4568  4 000246   040100 100400                    MLR     fill='040'O
         4 000247   000177 000003 3                  ADSC9   DEVHIST+25               cn=0,n=3
         4 000250   200011 000010                    ADSC9   TEXT,,AUTO               cn=0,n=8

     2813     4569    5                          LEN = 3;

   4569  4 000251   000003 235007                    LDA     3,DL
PL6.E3A0      #010=THC$THRESH File=THC$COMMANDS.:E05TSI                          WED 07/30/97 06:13 Page:512
         4 000252   200013 755100                    STA     LEN,,AUTO
         4 000253   000261 710000 4                  TRA     s:4574

     2814     4570    5                       CASE(%ALL);

     2815     4571    5                          TEXT = 'ALL';

   4571  4 000254   040100 100400                    MLR     fill='040'O
         4 000255   000200 000003 3                  ADSC9   DEVHIST+26               cn=0,n=3
         4 000256   200011 000010                    ADSC9   TEXT,,AUTO               cn=0,n=8

     2816     4572    5                          LEN = 3;

   4572  4 000257   000003 235007                    LDA     3,DL
         4 000260   200013 755100                    STA     LEN,,AUTO

     2817     4573    5                    END;                      /* DO CASE CODE                       */

     2818     4574    4                    IF OUT$BLK.SUBLK$(I)->OUT$BLK.SUBLK$(J)->OUT$BLK.NSUBLKS = 2

   4574  4 000261   000000 471500                    LDP1    0,,PR0
         4 000262   100003 473510                    LDP3    3,X0,PR1
         4 000263   300003 474511                    LDP4    3,X1,PR3
         4 000264   400001 222100                    LDX2    1,,PR4
         4 000265   000002 102003                    CMPX2   2,DU
         4 000266   000306 601000 4                  TNZ     s:4583

     2819     4575    4                       THEN
     2820     4576    5                       DO;

     2821     4577    5                         SYM$ = OUT$BLK.SUBLK$(I)->OUT$BLK.SUBLK$(J)->OUT$BLK.SUBLK$(1
              4577                                   );

   4577  4 000267   400004 236100                    LDQ     4,,PR4
         4 000270   200005 756100                    STQ     SYM$,,AUTO

     2822     4578    5                          CALL INSERT(TEXT,LEN,OUT$SYM.COUNT,OUT$SYM.TEXT);
PL6.E3A0      #010=THC$THRESH File=THC$COMMANDS.:E05TSI                          WED 07/30/97 06:13 Page:513

   4578  4 000271   200005 475500                    LDP5    SYM$,,AUTO
         4 000272   500004 236100                    LDQ     4,,PR5
         4 000273   000033 772000                    QRL     27
         4 000274   000000 623006                    EAX3    0,QL
         4 000275   000000 624006                    EAX4    0,QL
         4 000276   040145 100540                    MLR     fill='040'O
         4 000277   500004 200013                    ADSC9   4,,PR5                   cn=1,n=*X3
         4 000300   200011 000014                    ADSC9   TEXT,A,AUTO              cn=0,n=*X4

     2823     4579    5                          LEN = LEN + OUT$SYM.COUNT;

   4579  4 000301   500004 236100                    LDQ     4,,PR5
         4 000302   000033 772000                    QRL     27
         4 000303   200013 036100                    ADLQ    LEN,,AUTO
         4 000304   200013 756100                    STQ     LEN,,AUTO

     2824     4580    5                       END;

   4580  4 000305   000307 710000 4                  TRA     s:4585

     2825     4581    4                       ELSE
     2826     4582    5                       DO;

     2827     4583    5                          LEN = 0;

   4583  4 000306   200013 450100                    STZ     LEN,,AUTO

     2828     4584    5                       END;

     2829     4585    4                    CALL THS$SET_DEVS(CODE,TEXT,LEN) ALTRET(RET);

   4585  4 000307   200013 631500                    EPPR1   LEN,,AUTO
         4 000310   204030 451500                    STP1    TH_THRESH+2050,,AUTO
         4 000311   200011 633500                    EPPR3   TEXT,,AUTO
         4 000312   204027 453500                    STP3    TH_THRESH+2049,,AUTO
         4 000313   200010 634500                    EPPR4   CODE,,AUTO
PL6.E3A0      #010=THC$THRESH File=THC$COMMANDS.:E05TSI                          WED 07/30/97 06:13 Page:514
         4 000314   204026 454500                    STP4    TH_THRESH+2048,,AUTO
         4 000315   204026 630500                    EPPR0   TH_THRESH+2048,,AUTO
         4 000316   000021 631400 xsym               EPPR1   B_VECTNIL+17
         4 000317   000000 701000 xent               TSX1    THS$SET_DEVS
         4 000320   000750 702000 4                  TSX2    RET

     2830     4586    4                    END;  /* DO J */

   4586  4 000321   200007 235100                    LDA     J,,AUTO
         4 000322   000001 035007                    ADLA    1,DL
         4 000323   200007 755100                    STA     J,,AUTO
         4 000324   200003 470500                    LDP0    @TOP$,,AUTO
         4 000325   000000 471500                    LDP1    0,,PR0
         4 000326   200006 720100                    LXL0    I,,AUTO
         4 000327   100003 473510                    LDP3    3,X0,PR1
         4 000330   300001 236100                    LDQ     1,,PR3
         4 000331   000022 772000                    QRL     18
         4 000332   200007 116100                    CMPQ    J,,AUTO
         4 000333   000335 600000 4                  TZE     s:4586+12
         4 000334   000027 603000 4                  TRC     s:4516
         4 000335   000457 710000 4                  TRA     s:4622

     2831     4587    3              CASE(%ATTEN);

     2832     4588    3                 ATTEN_FLG = %TRUE;

   4588  4 000336   400000 236003                    LDQ     -131072,DU
         4 000337   000003 756000 2                  STQ     ATTEN_FLG

     2833     4589    3                 ATTEN = 0;

   4589  4 000340   200014 450100                    STZ     ATTEN,,AUTO

     2834     4590    3                 SYM$ = OUT$BLK.SUBLK$(I)->OUT$BLK.SUBLK$(0);

   4590  4 000341   300003 236100                    LDQ     3,,PR3
         4 000342   200005 756100                    STQ     SYM$,,AUTO
PL6.E3A0      #010=THC$THRESH File=THC$COMMANDS.:E05TSI                          WED 07/30/97 06:13 Page:515

     2835     4591    3                 CALL CHARBIN(TEMP,OUT$SYM.TEXT);

   4591  4 000343   200005 474500                    LDP4    SYM$,,AUTO
         4 000344   400004 236100                    LDQ     4,,PR4
         4 000345   000033 772000                    QRL     27
         4 000346   000000 622006                    EAX2    0,QL
         4 000347   000100 305540                    DTB
         4 000350   400004 230012                    NDSC9   4,,PR4                   cn=1,s=nosgn,sf=0,n=*X2
         4 000351   200016 000004                    NDSC9   TEMP,,AUTO               cn=0,s=lsgnf,sf=0,n=4

     2836     4592    3                 ATTEN = TEMP * 100;

   4592  4 000352   200016 236100                    LDQ     TEMP,,AUTO
         4 000353   000144 402007                    MPY     100,DL
         4 000354   200014 756100                    STQ     ATTEN,,AUTO

     2837     4593    3                 IF OUT$BLK.SUBLK$(I)->OUT$BLK.NSUBLKS = 2

   4593  4 000355   300001 223100                    LDX3    1,,PR3
         4 000356   000002 103003                    CMPX3   2,DU
         4 000357   000457 601000 4                  TNZ     s:4622

     2838     4594    3                    THEN                   /* FRACTIONAL PART IS THERE           */
     2839     4595    4                    DO;

     2840     4596    4                       SYM$ = OUT$BLK.SUBLK$(I)->OUT$BLK.SUBLK$(1);

   4596  4 000360   300004 236100                    LDQ     4,,PR3
         4 000361   200005 756100                    STQ     SYM$,,AUTO

     2841     4597    5                       IF OUT$SYM.COUNT = 1 THEN DO;

   4597  4 000362   200005 474500                    LDP4    SYM$,,AUTO
         4 000363   400004 236100                    LDQ     4,,PR4
         4 000364   777000 376003                    ANQ     -512,DU
         4 000365   001000 116003                    CMPQ    512,DU
PL6.E3A0      #010=THC$THRESH File=THC$COMMANDS.:E05TSI                          WED 07/30/97 06:13 Page:516
         4 000366   000375 601000 4                  TNZ     s:4601

     2842     4598    5                          OUT$SYM.COUNT = 2;

   4598  4 000367   002000 236003                    LDQ     1024,DU
         4 000370   400004 552140                    STBQ    4,'40'O,PR4

     2843     4599    5                          CALL INSERT(OUT$SYM.TEXT,1,1,'0');

   4599  4 000371   400004 236100                    LDQ     4,,PR4
         4 000372   000033 772000                    QRL     27
         4 000373   060000 236007                    LDQ     24576,DL
         4 000374   400004 552110                    STBQ    4,'10'O,PR4

     2844     4600    5                          END;  /* IF COUNT = 1 */

     2845     4601    4                       CALL CHARBIN(TEMP,OUT$SYM.TEXT);

   4601  4 000375   400004 236100                    LDQ     4,,PR4
         4 000376   000033 772000                    QRL     27
         4 000377   000000 621006                    EAX1    0,QL
         4 000400   000100 305540                    DTB
         4 000401   400004 230011                    NDSC9   4,,PR4                   cn=1,s=nosgn,sf=0,n=*X1
         4 000402   200016 000004                    NDSC9   TEMP,,AUTO               cn=0,s=lsgnf,sf=0,n=4

     2846     4602    4                       ATTEN = ATTEN + TEMP;

   4602  4 000403   200014 236100                    LDQ     ATTEN,,AUTO
         4 000404   200016 036100                    ADLQ    TEMP,,AUTO
         4 000405   200014 756100                    STQ     ATTEN,,AUTO

     2847     4603    4                    END;                   /* IF NSUBLKS = 2                     */

   4603  4 000406   000457 710000 4                  TRA     s:4622

     2848     4604    3              CASE(%ALERT);

PL6.E3A0      #010=THC$THRESH File=THC$COMMANDS.:E05TSI                          WED 07/30/97 06:13 Page:517
     2849     4605    3                 ALERT_FLG = %TRUE;

   4605  4 000407   400000 236003                    LDQ     -131072,DU
         4 000410   000004 756000 2                  STQ     ALERT_FLG

     2850     4606    3                 ALERT = 0;

   4606  4 000411   200015 450100                    STZ     ALERT,,AUTO

     2851     4607    3                 SYM$ = OUT$BLK.SUBLK$(I)->OUT$BLK.SUBLK$(0);

   4607  4 000412   300003 236100                    LDQ     3,,PR3
         4 000413   200005 756100                    STQ     SYM$,,AUTO

     2852     4608    3                 CALL CHARBIN(TEMP,OUT$SYM.TEXT);

   4608  4 000414   200005 474500                    LDP4    SYM$,,AUTO
         4 000415   400004 236100                    LDQ     4,,PR4
         4 000416   000033 772000                    QRL     27
         4 000417   000000 622006                    EAX2    0,QL
         4 000420   000100 305540                    DTB
         4 000421   400004 230012                    NDSC9   4,,PR4                   cn=1,s=nosgn,sf=0,n=*X2
         4 000422   200016 000004                    NDSC9   TEMP,,AUTO               cn=0,s=lsgnf,sf=0,n=4

     2853     4609    3                 ALERT = TEMP * 100;

   4609  4 000423   200016 236100                    LDQ     TEMP,,AUTO
         4 000424   000144 402007                    MPY     100,DL
         4 000425   200015 756100                    STQ     ALERT,,AUTO

     2854     4610    3                 IF OUT$BLK.SUBLK$(I)->OUT$BLK.NSUBLKS = 2

   4610  4 000426   300001 223100                    LDX3    1,,PR3
         4 000427   000002 103003                    CMPX3   2,DU
         4 000430   000457 601000 4                  TNZ     s:4622

     2855     4611    3                    THEN                   /* FRACTIONAL PART IS THERE           */
PL6.E3A0      #010=THC$THRESH File=THC$COMMANDS.:E05TSI                          WED 07/30/97 06:13 Page:518
     2856     4612    4                    DO;

     2857     4613    4                       SYM$ = OUT$BLK.SUBLK$(I)->OUT$BLK.SUBLK$(1);

   4613  4 000431   300004 236100                    LDQ     4,,PR3
         4 000432   200005 756100                    STQ     SYM$,,AUTO

     2858     4614    5                       IF OUT$SYM.COUNT = 1 THEN DO;

   4614  4 000433   200005 474500                    LDP4    SYM$,,AUTO
         4 000434   400004 236100                    LDQ     4,,PR4
         4 000435   777000 376003                    ANQ     -512,DU
         4 000436   001000 116003                    CMPQ    512,DU
         4 000437   000446 601000 4                  TNZ     s:4618

     2859     4615    5                          OUT$SYM.COUNT = 2;

   4615  4 000440   002000 236003                    LDQ     1024,DU
         4 000441   400004 552140                    STBQ    4,'40'O,PR4

     2860     4616    5                          CALL INSERT(OUT$SYM.TEXT,1,1,'0');

   4616  4 000442   400004 236100                    LDQ     4,,PR4
         4 000443   000033 772000                    QRL     27
         4 000444   060000 236007                    LDQ     24576,DL
         4 000445   400004 552110                    STBQ    4,'10'O,PR4

     2861     4617    5                          END;  /* IF COUNT = 1 */

     2862     4618    4                       CALL CHARBIN(TEMP,OUT$SYM.TEXT);

   4618  4 000446   400004 236100                    LDQ     4,,PR4
         4 000447   000033 772000                    QRL     27
         4 000450   000000 621006                    EAX1    0,QL
         4 000451   000100 305540                    DTB
         4 000452   400004 230011                    NDSC9   4,,PR4                   cn=1,s=nosgn,sf=0,n=*X1
         4 000453   200016 000004                    NDSC9   TEMP,,AUTO               cn=0,s=lsgnf,sf=0,n=4
PL6.E3A0      #010=THC$THRESH File=THC$COMMANDS.:E05TSI                          WED 07/30/97 06:13 Page:519

     2863     4619    4                       ALERT = ALERT + TEMP;

   4619  4 000454   200015 236100                    LDQ     ALERT,,AUTO
         4 000455   200016 036100                    ADLQ    TEMP,,AUTO
         4 000456   200015 756100                    STQ     ALERT,,AUTO

     2864     4620    4                    END;                   /* IF NSUBLKS = 2                     */

     2865     4621    3           END;                            /* DO CASE(CODE)                      */

     2866     4622    2        END;                               /* DO I                               */

   4622  4 000457   200006 235100                    LDA     I,,AUTO
         4 000460   000001 035007                    ADLA    1,DL
         4 000461   200006 755100                    STA     I,,AUTO
         4 000462   200003 470500                    LDP0    @TOP$,,AUTO
         4 000463   000000 471500                    LDP1    0,,PR0
         4 000464   100001 236100                    LDQ     1,,PR1
         4 000465   000022 772000                    QRL     18
         4 000466   200006 116100                    CMPQ    I,,AUTO
         4 000467   000471 600000 4                  TZE     s:4624
         4 000470   000011 603000 4                  TRC     s:4513

     2867     4623
     2868     4624    1        CALL THG$GETREC(%DEVHIST,ONE);

   4624  4 000471   000000 630400 5                  EPPR0   0
         4 000472   000020 631400 xsym               EPPR1   B_VECTNIL+16
         4 000473   000000 701000 xent               TSX1    THG$GETREC
         4 000474   000000 011000                    NOP     0

     2869     4625    1        TH_THRESH = TH_RECORD.PTR$->TH$THRESH;

   4625  4 000475   000001 470400 xsym               LDP0    TH_RECORD+1
         4 000476   020000 220003                    LDX0    8192,DU
         4 000477   000140 100540                    MLR     fill='000'O
PL6.E3A0      #010=THC$THRESH File=THC$COMMANDS.:E05TSI                          WED 07/30/97 06:13 Page:520
         4 000500   000000 000010                    ADSC9   0,,PR0                   cn=0,n=*X0
         4 000501   200026 000010                    ADSC9   TH_THRESH,,AUTO          cn=0,n=*X0

     2870     4626
     2871     4627    2        DO I = 0 TO TH_NUM_REP_DEVS - 1;

   4627  4 000502   200006 450100                    STZ     I,,AUTO
         4 000503   000671 710000 4                  TRA     s:4656+3

     2872     4628    3           DO J = 0 TO TH_NUM_DEVS - 1;

   4628  4 000504   200007 450100                    STZ     J,,AUTO
         4 000505   000663 710000 4                  TRA     s:4655+3

     2873     4629    3              IF TH_REP_DEVS(I) = TH_THRESH.DEVNAME(J)

   4629  4 000506   200006 235100                    LDA     I,,AUTO
         4 000507   000003 735000                    ALS     3
         4 000510   200007 236100                    LDQ     J,,AUTO
         4 000511   000004 736000                    QLS     4
         4 000512   040106 106405                    CMPC    fill='040'O
         4 000513   000000 000010 xsym               ADSC9   TH_REP_DEVS,A            cn=0,n=8
         4 000514   200026 000010                    ADSC9   TH_THRESH,Q,AUTO         cn=0,n=8
         4 000515   000660 601000 4                  TNZ     s:4655

     2874     4630    3                 THEN
     2875     4631    4                 DO;

     2876     4632    5                    IF NOT(ATTEN_FLG OR ALERT_FLG) THEN DO;  /* DISPLAY */

   4632  4 000516   000003 234000 2                  SZN     ATTEN_FLG
         4 000517   000644 604000 4                  TMI     s:4649
         4 000520   000004 234000 2                  SZN     ALERT_FLG
         4 000521   000644 604000 4                  TMI     s:4649

     2877     4633    5                       TEMP = TH_THRESH.ATTEN(J)/100;

PL6.E3A0      #010=THC$THRESH File=THC$COMMANDS.:E05TSI                          WED 07/30/97 06:13 Page:521
   4633  4 000522   200007 235100                    LDA     J,,AUTO
         4 000523   000002 735000                    ALS     2
         4 000524   200030 236105                    LDQ     TH_THRESH+2,AL,AUTO
         4 000525   000144 506007                    DIV     100,DL
         4 000526   200016 756100                    STQ     TEMP,,AUTO

     2878     4634    5                       CALL BINCHAR(BUF1,TEMP);

   4634  4 000527   000100 301500                    BTD
         4 000530   200016 000004                    NDSC9   TEMP,,AUTO               cn=0,s=lsgnf,sf=0,n=4
         4 000531   200024 030002                    NDSC9   BUF1,,AUTO               cn=0,s=nosgn,sf=0,n=2

     2879     4635    5                       TEMP = MOD(TH_THRESH.ATTEN(J),100);

   4635  4 000532   200007 235100                    LDA     J,,AUTO
         4 000533   000002 735000                    ALS     2
         4 000534   200030 236105                    LDQ     TH_THRESH+2,AL,AUTO
         4 000535   000144 506007                    DIV     100,DL
         4 000536   200016 755100                    STA     TEMP,,AUTO

     2880     4636    5                       CALL BINCHAR(BUF2,TEMP);

   4636  4 000537   000100 301500                    BTD
         4 000540   200016 000004                    NDSC9   TEMP,,AUTO               cn=0,s=lsgnf,sf=0,n=4
         4 000541   200025 030002                    NDSC9   BUF2,,AUTO               cn=0,s=nosgn,sf=0,n=2

     2881     4637    5                       CALL INSERT(ATTEN_BUF,0,5,BUF1,'.',BUF2);

   4637  4 000542   200024 220100                    LDX0    BUF1,,AUTO
         4 000543   200020 740100                    STX0    ATTEN_BUF,,AUTO
         4 000544   056000 236007                    LDQ     23552,DL
         4 000545   200020 552110                    STBQ    ATTEN_BUF,'10'O,AUTO
         4 000546   040100 100500                    MLR     fill='040'O
         4 000547   200025 000002                    ADSC9   BUF2,,AUTO               cn=0,n=2
         4 000550   200020 600002                    ADSC9   ATTEN_BUF,,AUTO          cn=3,n=2

     2882     4638    5                       TEMP = TH_THRESH.ALERT(J)/100;
PL6.E3A0      #010=THC$THRESH File=THC$COMMANDS.:E05TSI                          WED 07/30/97 06:13 Page:522

   4638  4 000551   200007 235100                    LDA     J,,AUTO
         4 000552   000002 735000                    ALS     2
         4 000553   200031 236105                    LDQ     TH_THRESH+3,AL,AUTO
         4 000554   000144 506007                    DIV     100,DL
         4 000555   200016 756100                    STQ     TEMP,,AUTO

     2883     4639    5                       CALL BINCHAR(BUF1,TEMP);

   4639  4 000556   000100 301500                    BTD
         4 000557   200016 000004                    NDSC9   TEMP,,AUTO               cn=0,s=lsgnf,sf=0,n=4
         4 000560   200024 030002                    NDSC9   BUF1,,AUTO               cn=0,s=nosgn,sf=0,n=2

     2884     4640    5                       TEMP = MOD(TH_THRESH.ALERT(J),100);

   4640  4 000561   200007 235100                    LDA     J,,AUTO
         4 000562   000002 735000                    ALS     2
         4 000563   200031 236105                    LDQ     TH_THRESH+3,AL,AUTO
         4 000564   000144 506007                    DIV     100,DL
         4 000565   200016 755100                    STA     TEMP,,AUTO

     2885     4641    5                       CALL BINCHAR(BUF2,TEMP);

   4641  4 000566   000100 301500                    BTD
         4 000567   200016 000004                    NDSC9   TEMP,,AUTO               cn=0,s=lsgnf,sf=0,n=4
         4 000570   200025 030002                    NDSC9   BUF2,,AUTO               cn=0,s=nosgn,sf=0,n=2

     2886     4642    5                       CALL INSERT(ALERT_BUF,0,5,BUF1,'.',BUF2);

   4642  4 000571   200024 220100                    LDX0    BUF1,,AUTO
         4 000572   200022 740100                    STX0    ALERT_BUF,,AUTO
         4 000573   056000 236007                    LDQ     23552,DL
         4 000574   200022 552110                    STBQ    ALERT_BUF,'10'O,AUTO
         4 000575   040100 100500                    MLR     fill='040'O
         4 000576   200025 000002                    ADSC9   BUF2,,AUTO               cn=0,n=2
         4 000577   200022 600002                    ADSC9   ALERT_BUF,,AUTO          cn=3,n=2

PL6.E3A0      #010=THC$THRESH File=THC$COMMANDS.:E05TSI                          WED 07/30/97 06:13 Page:523
     2887     4643    5                       CALL THW$WRITE(VECTOR(DISPTHRESH),

   4643  4 000600   000004 235000 5                  LDA     4
         4 000601   204026 452500                    STP2    TH_THRESH+2048,,AUTO
         4 000602   200007 236100                    LDQ     J,,AUTO
         4 000603   000024 736000                    QLS     20
         4 000604   000026 036003                    ADLQ    22,DU
         4 000605   204026 036100                    ADLQ    TH_THRESH+2048,,AUTO
         4 000606   204030 757100                    STAQ    TH_THRESH+2050,,AUTO
         4 000607   000005 235000 5                  LDA     5
         4 000610   204032 452500                    STP2    TH_THRESH+2052,,AUTO
         4 000611   204032 236100                    LDQ     TH_THRESH+2052,,AUTO
         4 000612   000020 036003                    ADLQ    16,DU
         4 000613   204034 757100                    STAQ    TH_THRESH+2054,,AUTO
         4 000614   000005 235000 5                  LDA     5
         4 000615   204036 452500                    STP2    TH_THRESH+2056,,AUTO
         4 000616   204036 236100                    LDQ     TH_THRESH+2056,,AUTO
         4 000617   000022 036003                    ADLQ    18,DU
         4 000620   204042 757100                    STAQ    TH_THRESH+2060,,AUTO
         4 000621   204030 237100                    LDAQ    TH_THRESH+2050,,AUTO
         4 000622   204040 757100                    STAQ    TH_THRESH+2058,,AUTO
         4 000623   204034 237100                    LDAQ    TH_THRESH+2054,,AUTO
         4 000624   204044 757100                    STAQ    TH_THRESH+2062,,AUTO
         4 000625   204042 237100                    LDAQ    TH_THRESH+2060,,AUTO
         4 000626   204046 757100                    STAQ    TH_THRESH+2064,,AUTO
         4 000627   204046 630500                    EPPR0   TH_THRESH+2064,,AUTO
         4 000630   204053 450500                    STP0    TH_THRESH+2069,,AUTO
         4 000631   204044 631500                    EPPR1   TH_THRESH+2062,,AUTO
         4 000632   204052 451500                    STP1    TH_THRESH+2068,,AUTO
         4 000633   204040 633500                    EPPR3   TH_THRESH+2058,,AUTO
         4 000634   204051 453500                    STP3    TH_THRESH+2067,,AUTO
         4 000635   000006 236000 5                  LDQ     6
         4 000636   204050 756100                    STQ     TH_THRESH+2066,,AUTO
         4 000637   204050 630500                    EPPR0   TH_THRESH+2066,,AUTO
         4 000640   000022 631400 xsym               EPPR1   B_VECTNIL+18
         4 000641   000000 701000 xent               TSX1    THW$WRITE
         4 000642   000000 011000                    NOP     0
PL6.E3A0      #010=THC$THRESH File=THC$COMMANDS.:E05TSI                          WED 07/30/97 06:13 Page:524

     2888     4644    5                                      VECTOR(TH_THRESH.DEVNAME(J)),
     2889     4645    5                                      VECTOR(ATTEN_BUF),
     2890     4646    5                                      VECTOR(ALERT_BUF));
     2891     4647    5                       END;  /* IF DISPLAY */

   4647  4 000643   000660 710000 4                  TRA     s:4655

     2892     4648    5                    ELSE DO;

     2893     4649    5                       IF ATTEN_FLG

   4649  4 000644   000003 234000 2                  SZN     ATTEN_FLG
         4 000645   000652 605000 4                  TPL     s:4651

     2894     4650    5                          THEN TH_THRESH.ATTEN(J) = ATTEN;

   4650  4 000646   200007 235100                    LDA     J,,AUTO
         4 000647   000002 735000                    ALS     2
         4 000650   200014 236100                    LDQ     ATTEN,,AUTO
         4 000651   200030 756105                    STQ     TH_THRESH+2,AL,AUTO

     2895     4651    5                       IF ALERT_FLG

   4651  4 000652   000004 234000 2                  SZN     ALERT_FLG
         4 000653   000660 605000 4                  TPL     s:4655

     2896     4652    5                          THEN TH_THRESH.ALERT(J) = ALERT;

   4652  4 000654   200007 235100                    LDA     J,,AUTO
         4 000655   000002 735000                    ALS     2
         4 000656   200015 236100                    LDQ     ALERT,,AUTO
         4 000657   200031 756105                    STQ     TH_THRESH+3,AL,AUTO

     2897     4653    5                       END;  /* ELSE */

     2898     4654    4                 END;                      /* IF                                 */
PL6.E3A0      #010=THC$THRESH File=THC$COMMANDS.:E05TSI                          WED 07/30/97 06:13 Page:525

     2899     4655    3           END;                            /* DO J                               */

   4655  4 000660   200007 235100                    LDA     J,,AUTO
         4 000661   000001 035007                    ADLA    1,DL
         4 000662   200007 755100                    STA     J,,AUTO
         4 000663   200007 236100                    LDQ     J,,AUTO
         4 000664   000000 116000 xsym               CMPQ    TH_NUM_DEVS
         4 000665   000506 602000 4                  TNC     s:4629

     2900     4656    2        END;  /* DO I */

   4656  4 000666   200006 235100                    LDA     I,,AUTO
         4 000667   000001 035007                    ADLA    1,DL
         4 000670   200006 755100                    STA     I,,AUTO
         4 000671   200006 236100                    LDQ     I,,AUTO
         4 000672   000000 116000 xsym               CMPQ    TH_NUM_REP_DEVS
         4 000673   000504 602000 4                  TNC     s:4628

     2901     4657    1        IF NOT(ATTEN_FLG OR ALERT_FLG) THEN RETURN;

   4657  4 000674   000003 234000 2                  SZN     ATTEN_FLG
         4 000675   000701 604000 4                  TMI     s:4658
         4 000676   000004 234000 2                  SZN     ALERT_FLG
         4 000677   000701 604000 4                  TMI     s:4658

   4657  4 000700   000000 702200 xent               TSX2  ! X66_ARET

     2902     4658    1        M$DEVHIST$ = DCBADDR(DCBNUM(M$DEVHIST));

   4658  4 000701   000000 236007 xsym               LDQ     M$DEVHIST,DL
         4 000702   000007 470400 5                  LDP0    7
         4 000703   000000 471500                    LDP1    0,,PR0
         4 000704   100000 236106                    LDQ     0,QL,PR1
         4 000705   200004 756100                    STQ     M$DEVHIST$,,AUTO

     2903     4659    1        WRITE_DEVHIST.KEY_ = VECTOR(THRESH_KEY);
PL6.E3A0      #010=THC$THRESH File=THC$COMMANDS.:E05TSI                          WED 07/30/97 06:13 Page:526

   4659  4 000706   000010 237000 5                  LDAQ    8
         4 000707   000010 757000 2                  STAQ    WRITE_DEVHIST+2

     2904     4660    1        WRITE_DEVHIST.BUF_ = VECTOR(TH_THRESH);

   4660  4 000710   000012 235000 5                  LDA     10
         4 000711   204026 452500                    STP2    TH_THRESH+2048,,AUTO
         4 000712   204026 236100                    LDQ     TH_THRESH+2048,,AUTO
         4 000713   000026 036003                    ADLQ    22,DU
         4 000714   000012 757000 2                  STAQ    WRITE_DEVHIST+4

     2905     4661    1        WRITE_DEVHIST.BUF_.BOUND = M$DEVHIST$->F$DCB.ARS - 1;

   4661  4 000715   200004 473500                    LDP3    M$DEVHIST$,,AUTO
         4 000716   300000 236100                    LDQ     0,,PR3
         4 000717   000001 136007                    SBLQ    1,DL
         4 000720   000020 736000                    QLS     16
         4 000721   000012 676000 2                  ERQ     WRITE_DEVHIST+4
         4 000722   000034 376000 xsym               ANQ     B_VECTNIL+28
         4 000723   000012 656000 2                  ERSQ    WRITE_DEVHIST+4

     2906     4662
     2907     4663                                                /* WRITE RECORD BACK OUT              */
     2908     4664    1        IF DCBADDR(DCBNUM(M$DEVHIST))->F$DCB.FCD

   4664  4 000724   000000 236007 xsym               LDQ     M$DEVHIST,DL
         4 000725   100000 474506                    LDP4    0,QL,PR1
         4 000726   400031 236100                    LDQ     25,,PR4
         4 000727   020000 316007                    CANQ    8192,DL
         4 000730   000734 600000 4                  TZE     s:4666

     2909     4665    1           THEN CALL M$CLOSE(CLOSE_DEVHIST);

   4665  4 000731   000110 630400 3                  EPPR0   CLOSE_DEVHIST
         4 000732   050001 713400                    CLIMB   close
         4 000733   406000 401760                    pmme    nvectors=13
PL6.E3A0      #010=THC$THRESH File=THC$COMMANDS.:E05TSI                          WED 07/30/97 06:13 Page:527

     2910     4666    1        CALL M$OPEN(OPEN_DEVHIST) ALTRET(BAG_IT);

   4666  4 000734   000016 630400 3                  EPPR0   OPEN_DEVHIST
         4 000735   450000 713400                    CLIMB   alt,open
         4 000736   410400 401760                    pmme    nvectors=18
         4 000737   000751 702000 4                  TSX2    BAG_IT

     2911     4667    1        CALL M$WRITE(WRITE_DEVHIST) ALTRET(BAG_IT);

   4667  4 000740   000006 630400 2                  EPPR0   WRITE_DEVHIST
         4 000741   440001 713400                    CLIMB   alt,write
         4 000742   401400 401760                    pmme    nvectors=4
         4 000743   000751 702000 4                  TSX2    BAG_IT

     2912     4668    1        CALL M$CLOSE(CLOSE_DEVHIST) ALTRET(BAG_IT);

   4668  4 000744   000110 630400 3                  EPPR0   CLOSE_DEVHIST
         4 000745   450001 713400                    CLIMB   alt,close
         4 000746   406000 401760                    pmme    nvectors=13
         4 000747   000751 702000 4                  TSX2    BAG_IT

     2913     4669    1   RET: RETURN;

   4669  4 000750   000000 702200 xent  RET          TSX2  ! X66_ARET

     2914     4670    1   BAG_IT:
     2915     4671    1        CALL THM$ERRMSG(%E$TH_CANTSETTHRESH);

   4671  4 000751   000014 630400 5     BAG_IT       EPPR0   12
         4 000752   000017 631400 xsym               EPPR1   B_VECTNIL+15
         4 000753   000000 701000 xent               TSX1    THM$ERRMSG
         4 000754   000000 011000                    NOP     0

     2916     4672        /*E* ERROR: THE-E$TH_CANTSETTHRESH-0
     2917     4673             MESSAGE: You are not allowed to change thresholds.
     2918     4674             MESSAGE1: You do not have the priviliges needed to write to *DEVHIST.  */
PL6.E3A0      #010=THC$THRESH File=THC$COMMANDS.:E05TSI                          WED 07/30/97 06:13 Page:528
     2919     4675    1        RETURN;

   4675  4 000755   000000 702200 xent               TSX2  ! X66_ARET
     2920     4676    1   END THC$THRESH;
     2921     4677        %EOD;

PL6.E3A0      #010=THC$THRESH File=THC$COMMANDS.:E05TSI                          WED 07/30/97 06:13 Page:529
--  Include file information  --

   TH_PERR_C.:E05TOU  is referenced.
   B_STRINGS_C.:E05TOU  is referenced.
   TH_SUBS_C.:E05TOU  is referenced.
   TH_DATA_R.:E05TOU  cannot be made into a system file and is referenced.
   TH$HIST.:E05TOU  is referenced.
   XU_MACRO_C.:E05TOU  is referenced.
   F$DCB.:E05TOU  cannot be made into a system file and is referenced.
   B$JIT.:E05TOU  cannot be made into a system file and is referenced.
   CP_6.:E05TOU  cannot be made into a system file and is referenced.
   B$JIT_C.:E05TOU  was found in the system file and is referenced.
   CP_6_C.:E05TOU  was found in the system file and is referenced.
      No diagnostics issued in procedure THC$THRESH.
PL6.E3A0      #010=THC$THRESH File=THC$COMMANDS.:E05TSI                          WED 07/30/97 06:13 Page:530

 **** Variables and constants ****

  ****  Section 002  Data  THC$THRESH

  ****  Scalars and arrays  ****
OctLoc.c.b A Datatyp(siz) R M Lvl/name                 OctLoc.c.b A Datatyp(siz) R M Lvl/name

     4-0-0/b BIT         r     1 ALERT_FLG                  3-0-0/b BIT         r     1 ATTEN_FLG
     0-0-0/c CHAR(8)     r     1 ONE                        2-0-0/b BIT (18)    r     1 THRESH_KEY
     6-0-0/d STRC(432)   r     1 WRITE_DEVHIST

  ****  Section 003 RoData THC$THRESH

  ****  Scalars and arrays  ****
OctLoc.c.b A Datatyp(siz) R M Lvl/name                 OctLoc.c.b A Datatyp(siz) R M Lvl/name

   110-0-0/d STRC(1080)  r     1 CLOSE_DEVHIST            146-0-0/c STRC(81)    r     1 DEVHIST
     0-0-0/c CHAR(50)    r     1 DISPTHRESH                16-0-0/d STRC(2088)  r     1 OPEN_DEVHIST

  ****  Auto variables  ****

  ****  Scalars and arrays  ****
OctLoc.c.b A Datatyp(siz) R M Lvl/name                 OctLoc.c.b A Datatyp(siz) R M Lvl/name

     3-0-0/w PTR         r     1 @TOP$                     15-0-0/w UBIN        r     1 ALERT
    22-0-0/c CHAR(5)     r     1 ALERT_BUF                 14-0-0/w UBIN        r     1 ATTEN
    20-0-0/c CHAR(5)     r     1 ATTEN_BUF                 24-0-0/c CHAR(2)     r     1 BUF1
    25-0-0/c CHAR(2)     r     1 BUF2                      10-0-0/w UBIN        r     1 CODE
     6-0-0/w UBIN        r     1 I                          7-0-0/w UBIN        r     1 J
    13-0-0/w UBIN        r     1 LEN                        4-0-0/w PTR         r     1 M$DEVHIST$
     5-0-0/w PTR         r     1 SYM$                      16-0-0/w SBIN        r     1 TEMP
    11-0-0/c CHAR(8)     r     1 TEXT
    26-0-0/w STRC(144)   r     1 TH_THRESH(0:511)
    *0-0-0/w PTR         r     1 TOP$

  ****  SYMREF variables  ****

PL6.E3A0      #010=THC$THRESH File=THC$COMMANDS.:E05TSI                          WED 07/30/97 06:13 Page:531
  ****  Scalars and arrays  ****
OctLoc.c.b A Datatyp(siz) R M Lvl/name                 OctLoc.c.b A Datatyp(siz) R M Lvl/name

     0-0-0/w PTR         r     1 B$JIT$                     0-0-0/c STRC(72)    r     1 DEVHIST_ACCT
     0-0-0/w UBIN        r     1 TH_NUM_DEVS                0-0-0/w UBIN        r     1 TH_NUM_REP_DEVS
     0-0-0/d STRC(72)    r     1 TH_RECORD
     0-0-0/w CHAR(8)     r     1 TH_REP_DEVS(0:511)

  ****  BASED and DCB variables  ****

  ****  Scalars and arrays  ****
OctLoc.c.b A Datatyp(siz) R M Lvl/name                 OctLoc.c.b A Datatyp(siz) R M Lvl/name

     0-0-0/d ASTR(3528)  r     1 F$DCB                      0-0-0N  NULL        r     1 M$DEVHIST
     0-0-0/w STRC(144)   r     1 OUT$BLK                    0-0-0/w ASTR(153)   r     1 OUT$SYM
     0-0-0/w STRC(144)   r     1 TH$THRESH(0:511)


   Procedure THC$THRESH requires 494 words for executable code.
   Procedure THC$THRESH requires 2092 words of local(AUTO) storage.
PL6.E3A0      #010=THC$THRESH File=THC$COMMANDS.:E05TSI                          WED 07/30/97 06:13 Page:532
          *** CROSS REFERENCE LISTING ***
**     DENOTES     IDENTIFIER DEFINITION
<<                 IDENTIFIER'S VALUE SET
>>                 IDENTIFIER'S VALUE USED
<>                 IDENTIFIER SET AND/OR USED
--                 IDENTIFIER REFERENCED
PL6.E3A0      #010=THC$THRESH File=THC$COMMANDS.:E05TSI                          WED 07/30/97 06:13 Page:533
          MINI XREF LISTING

ALERT
      4159**DCL      4606<<ASSIGN   4609<<ASSIGN   4619<<ASSIGN   4619>>ASSIGN   4652>>ASSIGN
ALERT_BUF
      4165**DCL      4642<<CALLBLT  4643--CALL
ALERT_FLG
      4154**DCL      4509<<ASSIGN   4605<<ASSIGN   4632>>IF       4651>>IF       4657>>IF
ATTEN
      4158**DCL      4589<<ASSIGN   4592<<ASSIGN   4602<<ASSIGN   4602>>ASSIGN   4650>>ASSIGN
ATTEN_BUF
      4164**DCL      4637<<CALLBLT  4643--CALL
ATTEN_FLG
      4153**DCL      4508<<ASSIGN   4588<<ASSIGN   4632>>IF       4649>>IF       4657>>IF
B$JIT.CPFLAGS1.SLEAZE
       202**DCL       202--REDEF
B$JIT.ERR.MID
       109**DCL       109--REDEF
B$JIT.JRESPEAK
       270**DCL       271--REDEF
B$JIT.ORIGINATOR_PORT.FROM_CR
       379**DCL       379--REDEF     380--REDEF
B$JIT.PNR
       283**DCL       283--REDEF
B$JIT.TSLINE
       377**DCL       378--REDEF
B$JIT$
      4136**DCL       103--IMP-PTR
BAG_IT
      4671**LABEL    4666--CALLALT  4667--CALLALT  4668--CALLALT
BUF1
      4166**DCL      4634<<CALLBLT  4637>>CALLBLT  4639<<CALLBLT  4642>>CALLBLT
BUF2
      4167**DCL      4636<<CALLBLT  4637>>CALLBLT  4641<<CALLBLT  4642>>CALLBLT
PL6.E3A0      #010=THC$THRESH File=THC$COMMANDS.:E05TSI                          WED 07/30/97 06:13 Page:534
CLOSE_DEVHIST
      4443**DCL      4665<>CALL     4668<>CALL
CLOSE_DEVHIST.SN_
      4443**DCL      4443--REDEF
CLOSE_DEVHIST.UTL_
      4444**DCL      4444--REDEF
CLOSE_DEVHIST.V
      4448**DCL      4443--DCLINIT
CLOSE_DEVHIST.V.EXPIRE#
      4458**DCL      4458--REDEF
CLOSE_DEVHIST.V.TYPE#
      4456**DCL      4456--REDEF
CLOSE_DEVHIST.V.XTNSIZE#
      4453**DCL      4453--REDEF    4455--REDEF
CODE
      4155**DCL      4510<<ASSIGN   4517<<ASSIGN   4519>>DOCASE   4585<>CALL
DEVHIST
      4489**DCL      4341--DCLINIT
DEVHIST_ACCT
      3707**DCL      4345--DCLINIT
DISPTHRESH
      4162**DCL      4643--CALL
F$DCB.ACTPOS
       410**DCL       410--REDEF
F$DCB.ARS
       385**DCL       385--REDEF    4661>>ASSIGN
F$DCB.ATTR
       403**DCL       404--REDEF
F$DCB.BORROW
       418**DCL       418--REDEF     418--REDEF     418--REDEF
F$DCB.DCBNAME.L
       432**DCL       432--IMP-SIZ
F$DCB.EOMCHAR
       389**DCL       389--REDEF
F$DCB.FCD
       398**DCL      4664>>IF
PL6.E3A0      #010=THC$THRESH File=THC$COMMANDS.:E05TSI                          WED 07/30/97 06:13 Page:535
F$DCB.FLDID
       413**DCL       413--REDEF
F$DCB.FORM$
       407**DCL       407--REDEF
F$DCB.FSECT
       423**DCL       423--REDEF
F$DCB.FSN
       400**DCL       400--REDEF     400--REDEF     401--REDEF
F$DCB.HEADER$
       406**DCL       406--REDEF
F$DCB.IXTNSIZE
       404**DCL       404--REDEF
F$DCB.LASTSTA$
       394**DCL       394--REDEF
F$DCB.LVL
       419**DCL       419--REDEF
F$DCB.NAME.C
       394**DCL       394--REDEF
F$DCB.NOEOF
       415**DCL       415--REDEF
F$DCB.NRECS
       405**DCL       405--REDEF
F$DCB.NRECX
       424**DCL       424--REDEF
F$DCB.OHDR
       416**DCL       416--REDEF
F$DCB.ORG
       399**DCL       399--REDEF
F$DCB.PRECNO
       422**DCL       422--REDEF
F$DCB.RCSZ
       427**DCL       427--REDEF
F$DCB.RES
       395**DCL       395--REDEF
F$DCB.SETX
       407**DCL       407--REDEF
PL6.E3A0      #010=THC$THRESH File=THC$COMMANDS.:E05TSI                          WED 07/30/97 06:13 Page:536
F$DCB.TAB$
       406**DCL       407--REDEF
F$DCB.TDA
       421**DCL       421--REDEF
F$DCB.WSN
       396**DCL       396--REDEF
I
      4151**DCL      4512<<DOINDEX  4513>>DOCASE   4515>>DOINDEX  4517>>ASSIGN   4574>>IF       4577>>ASSIGN
      4590>>ASSIGN   4593>>IF       4596>>ASSIGN   4607>>ASSIGN   4610>>IF       4613>>ASSIGN   4627<<DOINDEX
      4629>>IF
J
      4152**DCL      4515<<DOINDEX  4517>>ASSIGN   4574>>IF       4577>>ASSIGN   4628<<DOINDEX  4629>>IF
      4633>>ASSIGN   4635>>ASSIGN   4638>>ASSIGN   4640>>ASSIGN   4643>>CALL     4650>>ASSIGN   4652>>ASSIGN
LEN
      4157**DCL      4518<<ASSIGN   4522<<ASSIGN   4525<<ASSIGN   4528<<ASSIGN   4531<<ASSIGN   4534<<ASSIGN
      4537<<ASSIGN   4540<<ASSIGN   4543<<ASSIGN   4566<<ASSIGN   4569<<ASSIGN   4572<<ASSIGN   4578>>CALLBLT
      4579<<ASSIGN   4579>>ASSIGN   4583<<ASSIGN   4585<>CALL
M$CLOSE
        22**DCL-ENT  4665--CALL     4668--CALL
M$DEVHIST
      4144**DCL      4658--ASSIGN   4664--IF
M$DEVHIST$
      4147**DCL      4658<<ASSIGN   4661>>ASSIGN
M$OPEN
        22**DCL-ENT  4666--CALL
M$WRITE
        23**DCL-ENT  4667--CALL
ONE
      4148**DCL      4624<>CALL
OPEN_DEVHIST
      4340**DCL      4666<>CALL
OPEN_DEVHIST.ACSVEH_
      4342**DCL      4343--REDEF
OPEN_DEVHIST.ALTKEYS_
      4348**DCL      4349--REDEF    4349--REDEF
OPEN_DEVHIST.HDR_
PL6.E3A0      #010=THC$THRESH File=THC$COMMANDS.:E05TSI                          WED 07/30/97 06:13 Page:537
      4347**DCL      4348--REDEF
OPEN_DEVHIST.TAB_
      4346**DCL      4347--REDEF
OPEN_DEVHIST.UHL_
      4340**DCL      4341--REDEF    4341--REDEF
OPEN_DEVHIST.V
      4349**DCL      4340--DCLINIT
OPEN_DEVHIST.V.FSN#
      4380**DCL      4380--REDEF    4380--REDEF
OPEN_DEVHIST.WSN_
      4346**DCL      4346--REDEF
OUT$BLK.CODE
      4184**DCL      4513>>DOCASE   4517>>ASSIGN
OUT$BLK.NSUBLKS
      4188**DCL      4512>>DOINDEX  4515>>DOINDEX  4574>>IF       4593>>IF       4610>>IF
OUT$BLK.SUBLK$
      4209**DCL      4513>>DOCASE   4515>>DOINDEX  4517>>ASSIGN   4517>>ASSIGN   4517>>ASSIGN   4574>>IF
      4574>>IF       4577>>ASSIGN   4577>>ASSIGN   4577>>ASSIGN   4590>>ASSIGN   4590>>ASSIGN   4593>>IF
      4596>>ASSIGN   4596>>ASSIGN   4607>>ASSIGN   4607>>ASSIGN   4610>>IF       4613>>ASSIGN   4613>>ASSIGN
OUT$SYM.COUNT
      4245**DCL      4248--IMP-SIZ  4578>>CALLBLT  4578>>CALLBLT  4579>>ASSIGN   4591>>CALLBLT  4597>>IF
      4598<<ASSIGN   4599>>CALLBLT  4601>>CALLBLT  4608>>CALLBLT  4614>>IF       4615<<ASSIGN   4616>>CALLBLT
      4618>>CALLBLT
OUT$SYM.TEXT
      4248**DCL      4578>>CALLBLT  4591>>CALLBLT  4599<<CALLBLT  4601>>CALLBLT  4608>>CALLBLT  4616<<CALLBLT
      4618>>CALLBLT
RET
      4669**LABEL    4585--CALLALT
SYM$
      4150**DCL      4222--IMP-PTR  4577<<ASSIGN   4578>>CALLBLT  4578>>CALLBLT  4578>>CALLBLT  4579>>ASSIGN
      4590<<ASSIGN   4591>>CALLBLT  4591>>CALLBLT  4596<<ASSIGN   4597>>IF       4598>>ASSIGN   4599>>CALLBLT
      4599>>CALLBLT  4601>>CALLBLT  4601>>CALLBLT  4607<<ASSIGN   4608>>CALLBLT  4608>>CALLBLT  4613<<ASSIGN
      4614>>IF       4615>>ASSIGN   4616>>CALLBLT  4616>>CALLBLT  4618>>CALLBLT  4618>>CALLBLT
TEMP
      4160**DCL      4591<<CALLBLT  4592>>ASSIGN   4601<<CALLBLT  4602>>ASSIGN   4608<<CALLBLT  4609>>ASSIGN
      4618<<CALLBLT  4619>>ASSIGN   4633<<ASSIGN   4634>>CALLBLT  4635<<ASSIGN   4636>>CALLBLT  4638<<ASSIGN
PL6.E3A0      #010=THC$THRESH File=THC$COMMANDS.:E05TSI                          WED 07/30/97 06:13 Page:538
      4639>>CALLBLT  4640<<ASSIGN   4641>>CALLBLT
TEXT
      4156**DCL      4516<<ASSIGN   4521<<ASSIGN   4524<<ASSIGN   4527<<ASSIGN   4530<<ASSIGN   4533<<ASSIGN
      4536<<ASSIGN   4539<<ASSIGN   4542<<ASSIGN   4545<<ASSIGN   4547<<ASSIGN   4549<<ASSIGN   4551<<ASSIGN
      4553<<ASSIGN   4555<<ASSIGN   4557<<ASSIGN   4559<<ASSIGN   4561<<ASSIGN   4563<<ASSIGN   4565<<ASSIGN
      4568<<ASSIGN   4571<<ASSIGN   4578<<CALLBLT  4585<>CALL
TH$THRESH
      4254**DCL      4625>>ASSIGN
THG$GETREC
      4138**DCL-ENT  4624--CALL
THM$ERRMSG
      4140**DCL-ENT  4671--CALL
THRESH_KEY
      4149**DCL      4403--DCLINIT  4659--ASSIGN
THS$SET_DEVS
      4139**DCL-ENT  4585--CALL
THW$WRITE
      4141**DCL-ENT  4643--CALL
TH_CONSTRAINTS.E_BY_B
      3645**DCL      3645--REDEF
TH_CONSTRAINTS.M_BY_B
      3644**DCL      3644--REDEF
TH_CONSTRAINTS.TYPES
      3642**DCL      3642--REDEF
TH_DEFAULT.E_BY_B
      3653**DCL      3653--REDEF
TH_DEFAULT.M_BY_B
      3652**DCL      3652--REDEF
TH_DEFAULT.TYPES
      3650**DCL      3650--REDEF
TH_NUM_DEVS
      3669**DCL      4628>>DOINDEX
TH_NUM_REP_DEVS
      3667**DCL      4511<<ASSIGN   4627>>DOINDEX
TH_RECORD.PTR$
      3670**DCL      4625>>ASSIGN
PL6.E3A0      #010=THC$THRESH File=THC$COMMANDS.:E05TSI                          WED 07/30/97 06:13 Page:539
TH_REP_DEVS
      3668**DCL      4629>>IF
TH_SAVE.E_BY_B
      3661**DCL      3661--REDEF
TH_SAVE.M_BY_B
      3659**DCL      3659--REDEF
TH_SAVE.TYPES
      3657**DCL      3658--REDEF
TH_THRESH
      4260**DCL      4625<<ASSIGN   4660--ASSIGN
TH_THRESH.ALERT
      4263**DCL      4638>>ASSIGN   4640>>ASSIGN   4652<<ASSIGN
TH_THRESH.ATTEN
      4262**DCL      4633>>ASSIGN   4635>>ASSIGN   4650<<ASSIGN
TH_THRESH.DEVNAME
      4261**DCL      4629>>IF       4643--CALL
TH_XSA_BUF_VECTOR
      3677**DCL      3677--REDEF
TOP$
        10**DCL         7--PROC     4176--IMP-PTR  4512>>DOINDEX  4513>>DOCASE   4515>>DOINDEX  4517>>ASSIGN
      4574>>IF       4577>>ASSIGN   4590>>ASSIGN   4593>>IF       4596>>ASSIGN   4607>>ASSIGN   4610>>IF
      4613>>ASSIGN
WRITE_DEVHIST
      4403**DCL      4667<>CALL
WRITE_DEVHIST.BUF_
      4403**DCL      4660<<ASSIGN
WRITE_DEVHIST.BUF_.BOUND
      4403**DCL      4661<<ASSIGN
WRITE_DEVHIST.KEY_
      4403**DCL      4659<<ASSIGN
WRITE_DEVHIST.STATION_
      4405**DCL      4405--REDEF
WRITE_DEVHIST.V
      4406**DCL      4403--DCLINIT
WRITE_DEVHIST.V.DVBYTE.VFC#
      4412**DCL      4412--REDEF

PL6.E3A0      #011=THC$STATUS File=THC$COMMANDS.:E05TSI                          WED 07/30/97 06:15 Page:540
     2922        1        /*M* THC$STATUS - HANDLES STATUS COMMANDS FOR ELAN */
     2923        2        /*T***********************************************************/
     2924        3        /*T*                                                         */
     2925        4        /*T* Copyright (c) Bull HN Information Systems Inc., 1997    */
     2926        5        /*T*                                                         */
     2927        6        /*T***********************************************************/
     2928        7        THC$STATUS: PROC;
     2929        8        /**/
     2930        9        %INCLUDE CP_6;
     2931       90        %INCLUDE TH_DATA_R;
     2932      168        /**/
     2933      169        /* ENTRY DCLS */
     2934      170    1   DCL THW$WRITE ENTRY(11);
     2935      171    1   DCL THF$ADD_TEXTC ENTRY(3);
     2936      172    1   DCL THC$TYPENAME ENTRY(3);
     2937      173        /**/
     2938      174        /* VARS */
     2939      175    1   DCL TEXTBUF CHAR(900) STATIC INIT(' ');
     2940      176    1   DCL TEMP_BUF2 CHAR(900);
     2941      177    1   DCL BUF_COUNT UBIN;
     2942      178    1   DCL TEMP_BUF CHAR(63);
     2943      179    1   DCL TEXT$ PTR;
     2944      180    1   DCL 1 TVEC DALIGNED,
     2945      181    1         2 BOUND UBIN(20) UNAL,
     2946      182    1         2 * BIT(16) UNAL,
     2947      183    1         2 PTR$ PTR;
     2948      184    1   DCL I UBIN;
     2949      185    1   DCL COUNT UBIN;
     2950      186    1   DCL TEMPTYPE UBIN BYTE;
     2951      187    1   DCL TYPE_FMT CHAR(0) CONSTANT INIT(
     2952      188    1   'ERROR TYPES: %T%10P');
     2953      189    1   DCL TIME_FMT CHAR(0) CONSTANT INIT(
     2954      190    1   'SPAN: %14.36.2U TO %2P%14.36.2U%10P');
     2955      191    1   DCL MATCH_FMT CHAR(0) CONSTANT INIT(
     2956      192    1   'STATUS MATCH: %T%10P');
     2957      193    1   DCL EXCLUDE_FMT CHAR(0) CONSTANT INIT(
     2958      194    1   'STATUS EXCLUDE: %T%10P');
PL6.E3A0      #011=THC$STATUS File=THC$COMMANDS.:E05TSI                          WED 07/30/97 06:15 Page:541
     2959      195    1   DCL OCTAL_FMT CHAR(0) CONSTANT INIT(
     2960      196    1   'OCTAL DISPLAY%10P');
     2961      197    1   DCL CROSS_FMT CHAR(0) CONSTANT INIT(
     2962      198    1   'CROSSBAR DISPLAY%10P');
     2963      199        /**/
     2964      200        %EJECT;
PL6.E3A0      #011=THC$STATUS File=THC$COMMANDS.:E05TSI                          WED 07/30/97 06:15 Page:542
     2965      201    1        CALL THW$WRITE(VECTOR(TIME_FMT),
     2966      202    1                       VECTOR(TH_CONSTRAINTS.START),
     2967      203    1                       VECTOR(TH_CONSTRAINTS.STOP));
     2968      204    2              IF TH_CONSTRAINTS.NTYPES > 0 THEN DO;
     2969      205    2                 TEXT$ = ADDR(TEXTBUF);
     2970      206    2                 BUF_COUNT = 0;
     2971      207    3                 DO I = 0 TO TH_CONSTRAINTS.NTYPES - 1;
     2972      208    4                    IF I > 0 THEN DO;
     2973      209    4                       CALL INSERT(TEMP_BUF2,BUF_COUNT,2,', ');
     2974      210    4                       BUF_COUNT = BUF_COUNT + 2;
     2975      211    4                       END;  /* IF I > 0 */
     2976      212    3                    TEMPTYPE = TH_CONSTRAINTS.TYPES(I);
     2977      213    3                    CALL THC$TYPENAME(TEMPTYPE,TEMP_BUF,COUNT);
     2978      214    3                    CALL INSERT(TEMP_BUF2,BUF_COUNT,COUNT,SUBSTR(TEMP_BUF,0,COUNT));
     2979      215    3                    BUF_COUNT = BUF_COUNT + COUNT;
     2980      216    3                    END;  /* DO I */
     2981      217    2                 CALL THF$ADD_TEXTC(TEXT$,TEMP_BUF2,BUF_COUNT);
     2982      218    2                 TVEC = VECTOR(TEXTBUF);
     2983      219    2                 TVEC.BOUND = BUF_COUNT;
     2984      220    2                 CALL THW$WRITE(VECTOR(TYPE_FMT),TVEC);
     2985      221    2                 END;  /* IF NTYPES > 0 */
     2986      222    1       IF TH_CONSTRAINTS.M_MAJ_S OR TH_CONSTRAINTS.M_SUB_S OR
     2987      223    1          TH_CONSTRAINTS.M_MED_S OR TH_CONSTRAINTS.M_BY_B_SET ~='0'B
     2988      224    1          OR TH_CONSTRAINTS.M_FEP_SET OR TH_CONSTRAINTS.M_CHAN_SET
     2989      225    2            THEN DO;
     2990      226    2            CALL THW$WRITE(VECTOR(MATCH_FMT),VECTOR(TH_LAST_MATCH));
     2991      227    2            END;
     2992      228    1       IF TH_CONSTRAINTS.E_MAJ_S OR TH_CONSTRAINTS.E_SUB_S OR
     2993      229    1          TH_CONSTRAINTS.E_MED_S OR TH_CONSTRAINTS.E_BY_B_SET ~='0'B
     2994      230    1          OR TH_CONSTRAINTS.E_FEP_SET OR TH_CONSTRAINTS.E_CHAN_SET
     2995      231    2            THEN DO;
     2996      232    2            CALL THW$WRITE(VECTOR(EXCLUDE_FMT),VECTOR(TH_LAST_EXCLUDE));
     2997      233    2            END;
     2998      234    2        IF TH_CONSTRAINTS.OCTAL THEN DO;
     2999      235    2           CALL THW$WRITE(VECTOR(OCTAL_FMT));
     3000      236    2           END;
     3001      237    2        IF TH_CONSTRAINTS.CROSS THEN DO;
PL6.E3A0      #011=THC$STATUS File=THC$COMMANDS.:E05TSI                          WED 07/30/97 06:15 Page:543
     3002      238    2           CALL THW$WRITE(VECTOR(CROSS_FMT));
     3003      239    2           END;
     3004      240    1   END THC$STATUS;

PL6.E3A0      #011=THC$STATUS File=THC$COMMANDS.:E05TSI                          WED 07/30/97 06:15 Page:544
--  Include file information  --

   TH_DATA_R.:E05TOU  cannot be made into a system file and is referenced.
   CP_6.:E05TOU  cannot be made into a system file and is referenced.
   B$JIT_C.:E05TOU  was found in the system file and is never referenced.
   CP_6_C.:E05TOU  was found in the system file and is referenced.
      No diagnostics issued in procedure THC$STATUS.

   Procedure THC$STATUS requires 130 words for executable code.
   Procedure THC$STATUS requires 256 words of local(AUTO) storage.

    No errors detected in file THC$COMMANDS.:E05TSI    .

PL6.E3A0      #011=THC$STATUS File=THC$COMMANDS.:E05TSI                          WED 07/30/97 06:15 Page:545

 Object Unit name= THC$STATUS                                 File name= THC$COMMANDS.:E05TOU
 UTS= JUL 30 '97 06:15:03.40 WED                              Compiler= PL-6/E31         Sev=      00
 SharedLib= :SHARED_SYSTEM                                    Alt SharedLib=


    ****  Control sections  ****

 Sect   Type Bound  Init  Size OctSiz  Section name(segment info)
    0   DCB   even  none     0      0  M$UC
    1   Data  even  none   225    341  THC$STATUS
    2  RoData even  UTS     36     44  THC$STATUS
    3   Proc  even  none   130    202  THC$STATUS
    4  RoData even  none    35     43  THC$STATUS

    ****  Entry defs  ****

                              Check   Calling
                             calling  sequence
  Sect OctLoc Primary Altret sequence   type   Parms  Name
     3      0   yes            yes      Std        0  THC$STATUS

  ****  Entry refs  ****

         Check        Calling
        calling       sequence
Altret sequence SRef   type   Args  Name
         yes           Std      11 THW$WRITE
         yes           Std       3 THC$TYPENAME
         yes           Std       3 THF$ADD_TEXTC
                       nStd      0 X66_AUTO_0
                       Std       0 B_CONSPOOL_D
                       nStd      0 X66_ARET
PL6.E3A0      #011=THC$STATUS File=THC$COMMANDS.:E05TSI                          WED 07/30/97 06:15 Page:546

  ****  Data refs  ****

  Flags:  r = read only, s = secondary
Flgs Name                             Flgs Name                             Flgs Name
     M$UC                                  TH_CONSTRAINTS                        TH_LAST_MATCH
     TH_LAST_EXCLUDE                       TH_XSA_BUF_VECTOR                     B_VECTNIL

  ****  Segment refs  ****

  Flags:  r = read only, s = secondary
Flgs Name                             Flgs Name                             Flgs Name
     ISSID
PL6.E3A0      #011=THC$STATUS File=THC$COMMANDS.:E05TSI                          WED 07/30/97 06:15 Page:547


     2922        1        /*M* THC$STATUS - HANDLES STATUS COMMANDS FOR ELAN */
     2923        2        /*T***********************************************************/
     2924        3        /*T*                                                         */
     2925        4        /*T* Copyright (c) Bull HN Information Systems Inc., 1997    */
     2926        5        /*T*                                                         */
     2927        6        /*T***********************************************************/
     2928        7        THC$STATUS: PROC;

      7  3 000000   000000 700200 xent  THC$STATUS   TSX0  ! X66_AUTO_0
         3 000001   000400 000000                    ZERO    256,0

     2929        8        /**/
     2930        9        %INCLUDE CP_6;
     2931       90        %INCLUDE TH_DATA_R;
     2932      168        /**/
     2933      169        /* ENTRY DCLS */
     2934      170    1   DCL THW$WRITE ENTRY(11);
     2935      171    1   DCL THF$ADD_TEXTC ENTRY(3);
     2936      172    1   DCL THC$TYPENAME ENTRY(3);
     2937      173        /**/
     2938      174        /* VARS */
     2939      175    1   DCL TEXTBUF CHAR(900) STATIC INIT(' ');
     2940      176    1   DCL TEMP_BUF2 CHAR(900);
     2941      177    1   DCL BUF_COUNT UBIN;
     2942      178    1   DCL TEMP_BUF CHAR(63);
     2943      179    1   DCL TEXT$ PTR;
     2944      180    1   DCL 1 TVEC DALIGNED,
     2945      181    1         2 BOUND UBIN(20) UNAL,
     2946      182    1         2 * BIT(16) UNAL,
     2947      183    1         2 PTR$ PTR;
     2948      184    1   DCL I UBIN;
     2949      185    1   DCL COUNT UBIN;
     2950      186    1   DCL TEMPTYPE UBIN BYTE;
     2951      187    1   DCL TYPE_FMT CHAR(0) CONSTANT INIT(
     2952      188    1   'ERROR TYPES: %T%10P');
     2953      189    1   DCL TIME_FMT CHAR(0) CONSTANT INIT(
PL6.E3A0      #011=THC$STATUS File=THC$COMMANDS.:E05TSI                          WED 07/30/97 06:15 Page:548
     2954      190    1   'SPAN: %14.36.2U TO %2P%14.36.2U%10P');
     2955      191    1   DCL MATCH_FMT CHAR(0) CONSTANT INIT(
     2956      192    1   'STATUS MATCH: %T%10P');
     2957      193    1   DCL EXCLUDE_FMT CHAR(0) CONSTANT INIT(
     2958      194    1   'STATUS EXCLUDE: %T%10P');
     2959      195    1   DCL OCTAL_FMT CHAR(0) CONSTANT INIT(
     2960      196    1   'OCTAL DISPLAY%10P');
     2961      197    1   DCL CROSS_FMT CHAR(0) CONSTANT INIT(
     2962      198    1   'CROSSBAR DISPLAY%10P');
     2963      199        /**/
     2964      200        %EJECT;
PL6.E3A0      #011=THC$STATUS File=THC$COMMANDS.:E05TSI                          WED 07/30/97 06:15 Page:549
     2965      201    1        CALL THW$WRITE(VECTOR(TIME_FMT),

    201  3 000002   000006 630400 4                  EPPR0   6
         3 000003   000021 631400 xsym               EPPR1   B_VECTNIL+17
         3 000004   000000 701000 xent               TSX1    THW$WRITE
         3 000005   000000 011000                    NOP     0

     2966      202    1                       VECTOR(TH_CONSTRAINTS.START),
     2967      203    1                       VECTOR(TH_CONSTRAINTS.STOP));
     2968      204    2              IF TH_CONSTRAINTS.NTYPES > 0 THEN DO;

    204  3 000006   000000 235000 xsym               LDA     TH_CONSTRAINTS
         3 000007   000113 604400 3                  TMOZ    s:222

     2969      205    2                 TEXT$ = ADDR(TEXTBUF);

    205  3 000010   000011 236000 4                  LDQ     9
         3 000011   200365 756100                    STQ     TEXT$,,AUTO

     2970      206    2                 BUF_COUNT = 0;

    206  3 000012   200344 450100                    STZ     BUF_COUNT,,AUTO

     2971      207    3                 DO I = 0 TO TH_CONSTRAINTS.NTYPES - 1;

    207  3 000013   200370 450100                    STZ     I,,AUTO
         3 000014   000056 710000 3                  TRA     s:216+3

     2972      208    4                    IF I > 0 THEN DO;

    208  3 000015   200370 235100                    LDA     I,,AUTO
         3 000016   000026 600000 3                  TZE     s:212

     2973      209    4                       CALL INSERT(TEMP_BUF2,BUF_COUNT,2,', ');

    209  3 000017   200344 236100                    LDQ     BUF_COUNT,,AUTO
         3 000020   040106 100400                    MLR     fill='040'O
PL6.E3A0      #011=THC$STATUS File=THC$COMMANDS.:E05TSI                          WED 07/30/97 06:15 Page:550
         3 000021   000043 000002 2                  ADSC9   CROSS_FMT+5              cn=0,n=2
         3 000022   200003 000002                    ADSC9   TEMP_BUF2,Q,AUTO         cn=0,n=2

     2974      210    4                       BUF_COUNT = BUF_COUNT + 2;

    210  3 000023   200344 236100                    LDQ     BUF_COUNT,,AUTO
         3 000024   000002 036007                    ADLQ    2,DL
         3 000025   200344 756100                    STQ     BUF_COUNT,,AUTO

     2975      211    4                       END;  /* IF I > 0 */

     2976      212    3                    TEMPTYPE = TH_CONSTRAINTS.TYPES(I);

    212  3 000026   000100 100405                    MLR     fill='000'O
         3 000027   000001 000001 xsym               ADSC9   TH_CONSTRAINTS+1,A       cn=0,n=1
         3 000030   200372 000001                    ADSC9   TEMPTYPE,,AUTO           cn=0,n=1

     2977      213    3                    CALL THC$TYPENAME(TEMPTYPE,TEMP_BUF,COUNT);

    213  3 000031   200371 630500                    EPPR0   COUNT,,AUTO
         3 000032   200376 450500                    STP0    TEMPTYPE+4,,AUTO
         3 000033   200345 631500                    EPPR1   TEMP_BUF,,AUTO
         3 000034   200375 451500                    STP1    TEMPTYPE+3,,AUTO
         3 000035   200372 633500                    EPPR3   TEMPTYPE,,AUTO
         3 000036   200374 453500                    STP3    TEMPTYPE+2,,AUTO
         3 000037   200374 630500                    EPPR0   TEMPTYPE+2,,AUTO
         3 000040   000021 631400 xsym               EPPR1   B_VECTNIL+17
         3 000041   000000 701000 xent               TSX1    THC$TYPENAME
         3 000042   000000 011000                    NOP     0

     2978      214    3                    CALL INSERT(TEMP_BUF2,BUF_COUNT,COUNT,SUBSTR(TEMP_BUF,0,COUNT));

    214  3 000043   200371 720100                    LXL0    COUNT,,AUTO
         3 000044   200344 235100                    LDA     BUF_COUNT,,AUTO
         3 000045   040145 100540                    MLR     fill='040'O
         3 000046   200345 000010                    ADSC9   TEMP_BUF,,AUTO           cn=0,n=*X0
         3 000047   200003 000010                    ADSC9   TEMP_BUF2,A,AUTO         cn=0,n=*X0
PL6.E3A0      #011=THC$STATUS File=THC$COMMANDS.:E05TSI                          WED 07/30/97 06:15 Page:551

     2979      215    3                    BUF_COUNT = BUF_COUNT + COUNT;

    215  3 000050   200344 236100                    LDQ     BUF_COUNT,,AUTO
         3 000051   200371 036100                    ADLQ    COUNT,,AUTO
         3 000052   200344 756100                    STQ     BUF_COUNT,,AUTO

     2980      216    3                    END;  /* DO I */

    216  3 000053   200370 235100                    LDA     I,,AUTO
         3 000054   000001 035007                    ADLA    1,DL
         3 000055   200370 755100                    STA     I,,AUTO
         3 000056   200370 236100                    LDQ     I,,AUTO
         3 000057   000062 604000 3                  TMI     s:217
         3 000060   000000 116000 xsym               CMPQ    TH_CONSTRAINTS
         3 000061   000015 604000 3                  TMI     s:208

     2981      217    2                 CALL THF$ADD_TEXTC(TEXT$,TEMP_BUF2,BUF_COUNT);

    217  3 000062   200344 630500                    EPPR0   BUF_COUNT,,AUTO
         3 000063   200376 450500                    STP0    TEMPTYPE+4,,AUTO
         3 000064   200003 631500                    EPPR1   TEMP_BUF2,,AUTO
         3 000065   200375 451500                    STP1    TEMPTYPE+3,,AUTO
         3 000066   200365 633500                    EPPR3   TEXT$,,AUTO
         3 000067   200374 453500                    STP3    TEMPTYPE+2,,AUTO
         3 000070   200374 630500                    EPPR0   TEMPTYPE+2,,AUTO
         3 000071   000021 631400 xsym               EPPR1   B_VECTNIL+17
         3 000072   000000 701000 xent               TSX1    THF$ADD_TEXTC
         3 000073   000000 011000                    NOP     0

     2982      218    2                 TVEC = VECTOR(TEXTBUF);

    218  3 000074   000012 237000 4                  LDAQ    10
         3 000075   200366 757100                    STAQ    TVEC,,AUTO

     2983      219    2                 TVEC.BOUND = BUF_COUNT;

PL6.E3A0      #011=THC$STATUS File=THC$COMMANDS.:E05TSI                          WED 07/30/97 06:15 Page:552
    219  3 000076   200344 236100                    LDQ     BUF_COUNT,,AUTO
         3 000077   000020 736000                    QLS     16
         3 000100   200366 676100                    ERQ     TVEC,,AUTO
         3 000101   000034 376000 xsym               ANQ     B_VECTNIL+28
         3 000102   200366 656100                    ERSQ    TVEC,,AUTO

     2984      220    2                 CALL THW$WRITE(VECTOR(TYPE_FMT),TVEC);

    220  3 000103   200366 630500                    EPPR0   TVEC,,AUTO
         3 000104   200375 450500                    STP0    TEMPTYPE+3,,AUTO
         3 000105   000016 236000 4                  LDQ     14
         3 000106   200374 756100                    STQ     TEMPTYPE+2,,AUTO
         3 000107   200374 630500                    EPPR0   TEMPTYPE+2,,AUTO
         3 000110   000020 631400 xsym               EPPR1   B_VECTNIL+16
         3 000111   000000 701000 xent               TSX1    THW$WRITE
         3 000112   000000 011000                    NOP     0

     2985      221    2                 END;  /* IF NTYPES > 0 */

     2986      222    1       IF TH_CONSTRAINTS.M_MAJ_S OR TH_CONSTRAINTS.M_SUB_S OR

    222  3 000113   000014 236000 xsym               LDQ     TH_CONSTRAINTS+12
         3 000114   004000 316003                    CANQ    2048,DU
         3 000115   000133 601000 3                  TNZ     s:226
         3 000116   000020 316003                    CANQ    16,DU
         3 000117   000133 601000 3                  TNZ     s:226
         3 000120   000016 234000 xsym               SZN     TH_CONSTRAINTS+14
         3 000121   000133 604000 3                  TMI     s:226
         3 000122   000000 066400                    CMPB    filb='0'B
         3 000123   000026 010440 xsym               BDSC    TH_CONSTRAINTS+22        by=0,bit=1,n=288
         3 000124   000002 000022 xsym               BDSC    B_VECTNIL+2              by=0,bit=0,n=18
         3 000125   000133 601000 3                  TNZ     s:226
         3 000126   000061 234000 xsym               SZN     TH_CONSTRAINTS+49
         3 000127   000133 604000 3                  TMI     s:226
         3 000130   000062 236000 xsym               LDQ     TH_CONSTRAINTS+50
         3 000131   400000 316007                    CANQ    -131072,DL
         3 000132   000137 600000 3                  TZE     s:228
PL6.E3A0      #011=THC$STATUS File=THC$COMMANDS.:E05TSI                          WED 07/30/97 06:15 Page:553

     2987      223    1          TH_CONSTRAINTS.M_MED_S OR TH_CONSTRAINTS.M_BY_B_SET ~='0'B
     2988      224    1          OR TH_CONSTRAINTS.M_FEP_SET OR TH_CONSTRAINTS.M_CHAN_SET
     2989      225    2            THEN DO;

     2990      226    2            CALL THW$WRITE(VECTOR(MATCH_FMT),VECTOR(TH_LAST_MATCH));

    226  3 000133   000024 630400 4                  EPPR0   20
         3 000134   000020 631400 xsym               EPPR1   B_VECTNIL+16
         3 000135   000000 701000 xent               TSX1    THW$WRITE
         3 000136   000000 011000                    NOP     0

     2991      227    2            END;

     2992      228    1       IF TH_CONSTRAINTS.E_MAJ_S OR TH_CONSTRAINTS.E_SUB_S OR

    228  3 000137   000036 236000 xsym               LDQ     TH_CONSTRAINTS+30
         3 000140   002000 316003                    CANQ    1024,DU
         3 000141   000157 601000 3                  TNZ     s:232
         3 000142   000010 316003                    CANQ    8,DU
         3 000143   000157 601000 3                  TNZ     s:232
         3 000144   000040 234000 xsym               SZN     TH_CONSTRAINTS+32
         3 000145   000157 604000 3                  TMI     s:232
         3 000146   000000 066400                    CMPB    filb='0'B
         3 000147   000050 010440 xsym               BDSC    TH_CONSTRAINTS+40        by=0,bit=1,n=288
         3 000150   000002 000022 xsym               BDSC    B_VECTNIL+2              by=0,bit=0,n=18
         3 000151   000157 601000 3                  TNZ     s:232
         3 000152   000063 236000 xsym               LDQ     TH_CONSTRAINTS+51
         3 000153   400000 316007                    CANQ    -131072,DL
         3 000154   000157 601000 3                  TNZ     s:232
         3 000155   000065 234000 xsym               SZN     TH_CONSTRAINTS+53
         3 000156   000163 605000 3                  TPL     s:234

     2993      229    1          TH_CONSTRAINTS.E_MED_S OR TH_CONSTRAINTS.E_BY_B_SET ~='0'B
     2994      230    1          OR TH_CONSTRAINTS.E_FEP_SET OR TH_CONSTRAINTS.E_CHAN_SET
     2995      231    2            THEN DO;

PL6.E3A0      #011=THC$STATUS File=THC$COMMANDS.:E05TSI                          WED 07/30/97 06:15 Page:554
     2996      232    2            CALL THW$WRITE(VECTOR(EXCLUDE_FMT),VECTOR(TH_LAST_EXCLUDE));

    232  3 000157   000032 630400 4                  EPPR0   26
         3 000160   000020 631400 xsym               EPPR1   B_VECTNIL+16
         3 000161   000000 701000 xent               TSX1    THW$WRITE
         3 000162   000000 011000                    NOP     0

     2997      233    2            END;

     2998      234    2        IF TH_CONSTRAINTS.OCTAL THEN DO;

    234  3 000163   000066 236000 xsym               LDQ     TH_CONSTRAINTS+54
         3 000164   002000 316007                    CANQ    1024,DL
         3 000165   000172 600000 3                  TZE     s:237

     2999      235    2           CALL THW$WRITE(VECTOR(OCTAL_FMT));

    235  3 000166   000036 630400 4                  EPPR0   30
         3 000167   000017 631400 xsym               EPPR1   B_VECTNIL+15
         3 000170   000000 701000 xent               TSX1    THW$WRITE
         3 000171   000000 011000                    NOP     0

     3000      236    2           END;

     3001      237    2        IF TH_CONSTRAINTS.CROSS THEN DO;

    237  3 000172   000066 236000 xsym               LDQ     TH_CONSTRAINTS+54
         3 000173   001000 316007                    CANQ    512,DL
         3 000174   000201 600000 3                  TZE     s:240

     3002      238    2           CALL THW$WRITE(VECTOR(CROSS_FMT));

    238  3 000175   000042 630400 4                  EPPR0   34
         3 000176   000017 631400 xsym               EPPR1   B_VECTNIL+15
         3 000177   000000 701000 xent               TSX1    THW$WRITE
         3 000200   000000 011000                    NOP     0

PL6.E3A0      #011=THC$STATUS File=THC$COMMANDS.:E05TSI                          WED 07/30/97 06:15 Page:555
     3003      239    2           END;

     3004      240    1   END THC$STATUS;

    240  3 000201   000000 702200 xent               TSX2  ! X66_ARET

PL6.E3A0      #011=THC$STATUS File=THC$COMMANDS.:E05TSI                          WED 07/30/97 06:15 Page:556
--  Include file information  --

   TH_DATA_R.:E05TOU  cannot be made into a system file and is referenced.
   CP_6.:E05TOU  cannot be made into a system file and is referenced.
   B$JIT_C.:E05TOU  was found in the system file and is never referenced.
   CP_6_C.:E05TOU  was found in the system file and is referenced.
      No diagnostics issued in procedure THC$STATUS.
PL6.E3A0      #011=THC$STATUS File=THC$COMMANDS.:E05TSI                          WED 07/30/97 06:15 Page:557

 **** Variables and constants ****

  ****  Section 001  Data  THC$STATUS

  ****  Scalars and arrays  ****
OctLoc.c.b A Datatyp(siz) R M Lvl/name                 OctLoc.c.b A Datatyp(siz) R M Lvl/name

     0-0-0/c CHAR(900)   r     1 TEXTBUF

  ****  Section 002 RoData THC$STATUS

  ****  Scalars and arrays  ****
OctLoc.c.b A Datatyp(siz) R M Lvl/name                 OctLoc.c.b A Datatyp(siz) R M Lvl/name

    36-0-0/c CHAR(20)    r     1 CROSS_FMT                 23-0-0/c CHAR(22)    r     1 EXCLUDE_FMT
    16-0-0/c CHAR(20)    r     1 MATCH_FMT                 31-0-0/c CHAR(17)    r     1 OCTAL_FMT
     5-0-0/c CHAR(35)    r     1 TIME_FMT                   0-0-0/c CHAR(19)    r     1 TYPE_FMT

  ****  Auto variables  ****

  ****  Scalars and arrays  ****
OctLoc.c.b A Datatyp(siz) R M Lvl/name                 OctLoc.c.b A Datatyp(siz) R M Lvl/name

   344-0-0/w UBIN        r     1 BUF_COUNT                371-0-0/w UBIN        r     1 COUNT
   370-0-0/w UBIN        r     1 I                        372-0-0/w UBIN(9)     r     1 TEMPTYPE
   345-0-0/c CHAR(63)    r     1 TEMP_BUF                   3-0-0/c CHAR(900)   r     1 TEMP_BUF2
   365-0-0/w PTR         r     1 TEXT$                    366-0-0/d STRC(72)    r     1 TVEC

  ****  SYMREF variables  ****

  ****  Scalars and arrays  ****
OctLoc.c.b A Datatyp(siz) R M Lvl/name                 OctLoc.c.b A Datatyp(siz) R M Lvl/name

     0-0-0/d STRC(1971)  r     1 TH_CONSTRAINTS             0-0-0/w STRC(1080)  r     1 TH_LAST_EXCLUDE
     0-0-0/w STRC(1080)  r     1 TH_LAST_MATCH

PL6.E3A0      #011=THC$STATUS File=THC$COMMANDS.:E05TSI                          WED 07/30/97 06:15 Page:558

   Procedure THC$STATUS requires 130 words for executable code.
   Procedure THC$STATUS requires 256 words of local(AUTO) storage.

    No errors detected in file THC$COMMANDS.:E05TSI    .
PL6.E3A0      #011=THC$STATUS File=THC$COMMANDS.:E05TSI                          WED 07/30/97 06:15 Page:559
          *** CROSS REFERENCE LISTING ***
**     DENOTES     IDENTIFIER DEFINITION
<<                 IDENTIFIER'S VALUE SET
>>                 IDENTIFIER'S VALUE USED
<>                 IDENTIFIER SET AND/OR USED
--                 IDENTIFIER REFERENCED
PL6.E3A0      #011=THC$STATUS File=THC$COMMANDS.:E05TSI                          WED 07/30/97 06:15 Page:560
          MINI XREF LISTING

BUF_COUNT
       177**DCL       206<<ASSIGN    209>>CALLBLT   210<<ASSIGN    210>>ASSIGN    214>>CALLBLT   215<<ASSIGN
       215>>ASSIGN    217<>CALL      219>>ASSIGN
COUNT
       185**DCL       213<>CALL      214>>CALLBLT   214>>CALLBLT   215>>ASSIGN
CROSS_FMT
       197**DCL       238--CALL
EXCLUDE_FMT
       193**DCL       232--CALL
I
       184**DCL       207<<DOINDEX   208>>IF        212>>ASSIGN
MATCH_FMT
       191**DCL       226--CALL
OCTAL_FMT
       195**DCL       235--CALL
TEMPTYPE
       186**DCL       212<<ASSIGN    213<>CALL
TEMP_BUF
       178**DCL       213<>CALL      214>>CALLBLT
TEMP_BUF2
       176**DCL       209<<CALLBLT   214<<CALLBLT   217<>CALL
TEXT$
       179**DCL       205<<ASSIGN    217<>CALL
TEXTBUF
       175**DCL       205--ASSIGN    218--ASSIGN
THC$TYPENAME
       172**DCL-ENT   213--CALL
THF$ADD_TEXTC
       171**DCL-ENT   217--CALL
THW$WRITE
       170**DCL-ENT   201--CALL      220--CALL      226--CALL      232--CALL      235--CALL      238--CALL
TH_CONSTRAINTS.CROSS
PL6.E3A0      #011=THC$STATUS File=THC$COMMANDS.:E05TSI                          WED 07/30/97 06:15 Page:561
       105**DCL       237>>IF
TH_CONSTRAINTS.E_BY_B
       101**DCL       101--REDEF
TH_CONSTRAINTS.E_BY_B_SET
       102**DCL       228>>IF
TH_CONSTRAINTS.E_CHAN_SET
       103**DCL       228>>IF
TH_CONSTRAINTS.E_FEP_SET
       103**DCL       228>>IF
TH_CONSTRAINTS.E_MAJ_S
       101**DCL       228>>IF
TH_CONSTRAINTS.E_MED_S
       101**DCL       228>>IF
TH_CONSTRAINTS.E_SUB_S
       101**DCL       228>>IF
TH_CONSTRAINTS.M_BY_B
       100**DCL       100--REDEF
TH_CONSTRAINTS.M_BY_B_SET
       100**DCL       222>>IF
TH_CONSTRAINTS.M_CHAN_SET
       102**DCL       222>>IF
TH_CONSTRAINTS.M_FEP_SET
       102**DCL       222>>IF
TH_CONSTRAINTS.M_MAJ_S
        99**DCL       222>>IF
TH_CONSTRAINTS.M_MED_S
       100**DCL       222>>IF
TH_CONSTRAINTS.M_SUB_S
        99**DCL       222>>IF
TH_CONSTRAINTS.NTYPES
        98**DCL       204>>IF        207>>DOINDEX
TH_CONSTRAINTS.OCTAL
       105**DCL       234>>IF
TH_CONSTRAINTS.START
        99**DCL       201--CALL
TH_CONSTRAINTS.STOP
PL6.E3A0      #011=THC$STATUS File=THC$COMMANDS.:E05TSI                          WED 07/30/97 06:15 Page:562
        99**DCL       201--CALL
TH_CONSTRAINTS.TYPES
        98**DCL        98--REDEF     212>>ASSIGN
TH_DEFAULT.E_BY_B
       109**DCL       109--REDEF
TH_DEFAULT.M_BY_B
       108**DCL       108--REDEF
TH_DEFAULT.TYPES
       106**DCL       106--REDEF
TH_LAST_EXCLUDE
       131**DCL       232--CALL
TH_LAST_MATCH
       130**DCL       226--CALL
TH_SAVE.E_BY_B
       117**DCL       117--REDEF
TH_SAVE.M_BY_B
       115**DCL       115--REDEF
TH_SAVE.TYPES
       113**DCL       114--REDEF
TH_XSA_BUF_VECTOR
       133**DCL       133--REDEF
TIME_FMT
       189**DCL       201--CALL
TVEC
       180**DCL       218<<ASSIGN    220<>CALL
TVEC.BOUND
       181**DCL       219<<ASSIGN
TYPE_FMT
       187**DCL       220--CALL
