PL6.E3A0      #007=THC$SELECT File=THC$COMMANDS.:E05TSI                          WED 07/30/97 06:11 Page:274
     1483        1        /*T***********************************************************/
     1484        2        /*T*                                                         */
     1485        3        /*T* Copyright (c) Bull HN Information Systems Inc., 1997    */
     1486        4        /*T*                                                         */
     1487        5        /*T***********************************************************/
     1488        6        THC$SELECT: PROC(TOP$) ALTRET;
     1489        7        /**/
     1490        8        /* PARAMS */
     1491        9    1   DCL TOP$ PTR;
     1492       10        /**/
     1493       11        /* INCLUDE FILES */
     1494       12        %INCLUDE CP_6;
     1495       93        %INCLUDE XU_MACRO_C;
     1496     3199        %INCLUDE TH_SUBS_C;
     1497     3581        %INCLUDE TH_DATA_R;
     1498     3659        %INCLUDE TH_PERR_C;
     1499     3700        %INCLUDE EL_SUBS_C;
     1500     3784        /**/
     1501     3785        /* ENTRY DEFS */
     1502     3786    1   DCL THM$ERRMSG ENTRY(1);
     1503     3787        /**/
     1504     3788        /* VARIABLES */
     1505     3789    1   DCL I SBIN;
     1506     3790    1   DCL J SBIN;
     1507     3791    1   DCL K SBIN;
     1508     3792    1   DCL SAVE_INDEX SBIN;
     1509     3793    1   DCL TEMP1 UBIN;
     1510     3794    1   DCL TEMP2 UBIN;
     1511     3795    1   DCL RECOV_TYPES (0:3) UBIN STATIC INIT(EL_SCREECH,EL_SUA,EL_SNAP,0);
     1512     3796    1   DCL TEXTBASE CHAR(P_PCB.NCHARS) BASED(P_PCB.TEXT$);
     1513     3797    1   DCL FOUND BIT(1);
     1514     3798    1   DCL BIT_SPEC BIT(1);
     1515     3799    1   DCL BYTE_SPEC UBIN;
     1516     3800    1   DCL FIRST_BIT UBIN;
     1517     3801    1   DCL LAST_BIT UBIN;
     1518     3802    1   DCL INDX UBIN;
     1519     3803    1   DCL VALUE UBIN;
PL6.E3A0      #007=THC$SELECT File=THC$COMMANDS.:E05TSI                          WED 07/30/97 06:11 Page:275
     1520     3804    1   DCL TEMP$ PTR;
     1521     3805    1   DCL MATCH_DEL BIT(1);
     1522     3806    1   DCL EXCLUDE_DEL BIT(1);
     1523     3807    1   DCL MAJOR UBIN(6) UNAL;
     1524     3808    1   DCL SUB CHAR(3);
     1525     3809    1   DCL SUBB(0:2) REDEF SUB CHAR(1);
     1526     3810    1   DCL SUB_BIN UBIN;
     1527     3811    1   DCL 1 SUB_BIT,
     1528     3812    1         2 ONE BIT(3),
     1529     3813    1         2 TWO BIT(3);
     1530     3814    1   DCL SUBB_BIT REDEF SUB_BIT BIT(6);
     1531     3815    1   DCL FI_ERR UBIN(9) UNAL;
     1532     3816    1   DCL MEDIA CHAR(6);
     1533     3817    1   DCL TEMP CHAR(8);
     1534     3818    1   DCL TEMPP(0:7) REDEF TEMP CHAR(1);
     1535     3819    1   DCL FEP_CODE CHAR(3);
     1536     3820    1   DCL FEP_CHAN CHAR(4);
     1537     3821    1   DCL FEP_CHAN_N CHAR(4);
     1538     3822    1   DCL MATCH_ADD BIT(1);
     1539     3823    1   DCL EXCLUDE_ADD BIT(1);
     1540     3824    1   DCL DEL_TEST CHAR(3);
     1541     3825    1   DCL JJ UBIN;
     1542     3826    1   DCL JCNT UBIN;
     1543     3827    1   DCL C_TEST CHAR(119) ;
     1544     3828        /**/
     1545     3829        /* MACRO INVOCATIONS */
     1546     3830        %PARSE$OUT (NAME=OUT$BLK,STCLASS="BASED(TOP$)");
     1547     3875        %PARSE$SYM (NAME=OUT$SYM,STCLASS="BASED");
     1548     3913        %P$PCB (NAME=P_PCB,STCLASS=SYMREF);
     1549     4114        %FPT_OPEN (FPTN=TH_OPEN_ERRLOG,
     1550     4115                   STCLASS=SYMREF);
     1551     4224        %VLP_NAME (FPTN=TH_VLP_ERRLOG,
     1552     4225                   STCLASS=SYMREF,
     1553     4226                   LEN=15);
     1554     4253        /**/
     1555     4254        %EJECT;
PL6.E3A0      #007=THC$SELECT File=THC$COMMANDS.:E05TSI                          WED 07/30/97 06:11 Page:276
     1556     4255    2        DO CASE(OUT$BLK.CODE);
     1557     4256    2           CASE(%ERROR,%SELECT);
     1558     4257    2              I = 0;
     1559     4258    3              IF OUT$BLK.SUBLK$(0)->OUT$BLK.CODE ~= %PLUS THEN DO;
     1560     4259    3                 TH_CONSTRAINTS.NTYPES = 0;
     1561     4260    3                 TH_RECOV = %FALSE;
     1562     4261    3                 END;  /* IF */
     1563     4262    2                 ELSE I = 1;
     1564     4263    3              DO I = I TO OUT$BLK.NSUBLKS - 1;
     1565     4264    3                 IF OUT$BLK.SUBLK$(I)->OUT$BLK.CODE=0
     1566     4265    3                    THEN CALL CHARBIN(VALUE,OUT$BLK.SUBLK$(I)->OUT$SYM.TEXT);
     1567     4266    3                    ELSE VALUE = OUT$BLK.SUBLK$(I)->OUT$BLK.CODE;
     1568     4267    3                 RECOV_TYPES(3) = VALUE;
     1569     4268    3                 TEMP1 = 3;
     1570     4269    3                 TEMP2 = 3;
     1571     4270    4                 IF VALUE = %TH_RECOV THEN DO;
     1572     4271    4                    TH_RECOV = %TRUE;
     1573     4272    4                    TEMP1 = 0;
     1574     4273    4                    TEMP2 = 2;
     1575     4274    4                    END;
     1576     4275    3          FOUND = '0'B;
     1577     4276    4                 DO K = TEMP1 TO TEMP2;
     1578     4277    4                    VALUE = RECOV_TYPES(K);
     1579     4278    5                    DO J = 0 TO TH_CONSTRAINTS.NTYPES - 1;
     1580     4279    5                       IF TH_CONSTRAINTS.TYPES(J) = VALUE
     1581     4280    5                          THEN FOUND = '1'B;
     1582     4281    5                    END;                      /* DO J = 1 TO NTYPES                 */
     1583     4282    4                    IF NOT FOUND
     1584     4283    5                       THEN DO;
     1585     4284    5                         TH_CONSTRAINTS.TYPES(TH_CONSTRAINTS.NTYPES) = VALUE;
     1586     4285    5                         TH_CONSTRAINTS.NTYPES = TH_CONSTRAINTS.NTYPES + 1;
     1587     4286    5                       END;                   /* IF NOT FOUND                       */
     1588     4287    4                    END;  /* DO K */
     1589     4288    3              END;                         /* DO I = 0 TO OUT$BLK.NSUBLKS-1      */
     1590     4289    2            CASE (%MATCH);
     1591     4290                                               /* PROCESS MATCH COMMAND           */
     1592     4291    2              MATCH_DEL = %NO;
PL6.E3A0      #007=THC$SELECT File=THC$COMMANDS.:E05TSI                          WED 07/30/97 06:11 Page:277
     1593     4292    2            MATCH_ADD = %NO;
     1594     4293    2              IF OUT$BLK.SUBLK$(0)->OUT$BLK.CODE = %DELETEE
     1595     4294    3                 THEN DO;
     1596     4295    3                      MATCH_DEL = %YES;
     1597     4296    3                      J = 1;
     1598     4297    3                      END;
     1599     4298    2                 ELSE
     1600     4299    2                      IF OUT$BLK.SUBLK$(0)->OUT$BLK.CODE = %ADDD
     1601     4300    3                           THEN DO;
     1602     4301    3                                J = 1;
     1603     4302    3                                MATCH_ADD = %YES;
     1604     4303    3                                END;
     1605     4304    3                           ELSE DO;
     1606     4305    3                                J = 0;
     1607     4306    3                                TH_CONSTRAINTS.M_BY_B_SET = %NO;
     1608     4307    3                                TH_CONSTRAINTS.M_MAJ_S = %NO;
     1609     4308    3                                TH_CONSTRAINTS.M_SUB_S = %NO;
     1610     4309    3                                TH_CONSTRAINTS.M_MED_S = %NO;
     1611     4310    3                                TH_CONSTRAINTS.M_FEP_SET = %NO;
     1612     4311    3                                TH_CONSTRAINTS.M_CHAN_SET = %NO;
     1613     4312    3                                TH_CONSTRAINTS.M_COD_SET = %NO;
     1614     4313    3                                TH_CONSTRAINTS.M_REA_SET = %NO;
     1615     4314    3                                TH_CONSTRAINTS.M_ACT_SET = %NO;
     1616     4315    3                                END;
     1617     4316    3              DO I = J TO OUT$BLK.NSUBLKS - 1;
     1618     4317    3                 TEMP$ = OUT$BLK.SUBLK$(I)->OUT$BLK.SUBLK$(0);
     1619     4318    4                 DO CASE(TEMP$->OUT$BLK.CODE);
     1620     4319    4                    CASE(%MAJ);
     1621     4320    4                      IF TEMP$->OUT$BLK.SUBLK$(0)->OUT$SYM.COUNT = 2
     1622     4321    5                        THEN DO;
     1623     4322    5                           SUB = TEMP$->OUT$BLK.SUBLK$(0)->OUT$SYM.TEXT;
     1624     4323    5                           CALL CHARBIN(SUB_BIN,SUBB(0));
     1625     4324    5                           VALUE = SUB_BIN * 8;
     1626     4325    5                           CALL CHARBIN(SUB_BIN,SUBB(1));
     1627     4326    5                           VALUE = VALUE + SUB_BIN;
     1628     4327    5                           MAJOR = VALUE;
     1629     4328    5                           END;
PL6.E3A0      #007=THC$SELECT File=THC$COMMANDS.:E05TSI                          WED 07/30/97 06:11 Page:278
     1630     4329    5                        ELSE DO;
     1631     4330    5                           CALL CHARBIN(VALUE,TEMP$->OUT$BLK.SUBLK$(0)
     1632     4331    5                                        ->OUT$SYM.TEXT);
     1633     4332    5                           MAJOR = VALUE;
     1634     4333    5                           END;
     1635     4334    4                      IF MATCH_DEL
     1636     4335    4                        THEN
     1637     4336    4                           IF ((TH_CONSTRAINTS.M_MAJ_S) & (MAJOR=TH_CONSTRAINTS.M_MAJ))
     1638     4337    4                             THEN TH_CONSTRAINTS.M_MAJ_S = %NO;
     1639     4338    5                             ELSE DO;
     1640     4339    5                                  CALL THM$ERRMSG(%E$TH_BAD_MAJ);
     1641     4340    5                                  ALTRETURN;
     1642     4341    5                                  END;
     1643     4342    5                        ELSE DO;
     1644     4343    5                             TH_CONSTRAINTS.M_MAJ_S = %YES;
     1645     4344    5                             TH_CONSTRAINTS.M_MAJ = MAJOR;
     1646     4345    5                             END;
     1647     4346    4                      DEL_TEST = 'MAJ';
     1648     4347    4                    CASE(%SUB);
     1649     4348    4                     IF TEMP$->OUT$BLK.SUBLK$(0)->OUT$SYM.COUNT = 2
     1650     4349    5                      THEN DO;
     1651     4350    5                      SUB = TEMP$->OUT$BLK.SUBLK$(0)->OUT$SYM.TEXT;
     1652     4351    5                      CALL CHARBIN(SUB_BIN,SUBB(0));
     1653     4352    5                      SUB_BIT.ONE = BINBIT(SUB_BIN,3);
     1654     4353    5                      CALL CHARBIN(SUB_BIN,SUBB(1));
     1655     4354    5                      SUB_BIT.TWO = BINBIT(SUB_BIN,3);
     1656     4355    5                      END;
     1657     4356    5                      ELSE DO;
     1658     4357    5                           SUB_BIN = 0;
     1659     4358    5                           SUB_BIT.ONE = BINBIT(SUB_BIN,3);
     1660     4359    5                           CALL CHARBIN(SUB_BIN,TEMP$->OUT$BLK.SUBLK$(0)
     1661     4360    5                                        ->OUT$SYM.TEXT);
     1662     4361    5                           SUB_BIT.TWO = BINBIT(SUB_BIN,3);
     1663     4362    5                           END;
     1664     4363    4                      IF MATCH_DEL
     1665     4364    4                        THEN
     1666     4365    4                           IF ((TH_CONSTRAINTS.M_SUB_S)&(SUBB_BIT=TH_CONSTRAINTS.M_SUB)
PL6.E3A0      #007=THC$SELECT File=THC$COMMANDS.:E05TSI                          WED 07/30/97 06:11 Page:279
              4365                                    )
     1667     4366    4                             THEN TH_CONSTRAINTS.M_SUB_S = %NO;
     1668     4367    5                             ELSE DO;
     1669     4368    5                                  CALL THM$ERRMSG(%E$TH_BAD_SUB);
     1670     4369    5                                  ALTRETURN;
     1671     4370    5                                  END;
     1672     4371    5                        ELSE DO;
     1673     4372    5                           TH_CONSTRAINTS.M_SUB_S = %YES;
     1674     4373    5                           TH_CONSTRAINTS.M_SUB = SUBB_BIT;
     1675     4374    5                           END;
     1676     4375    4                      DEL_TEST = 'SUB';
     1677     4376    4                    CASE(%COD);
     1678     4377    4                      VALUE = 0;
     1679     4378    4                      SUB = TEMP$->OUT$BLK.SUBLK$(0)->OUT$SYM.TEXT;
     1680     4379    5                      DO K = 0 TO TEMP$->OUT$BLK.SUBLK$(0)->OUT$SYM.COUNT - 1;
     1681     4380    5                         VALUE = VALUE * 10;
     1682     4381    5                         CALL CHARBIN(SUB_BIN,SUBB(K));
     1683     4382    5                         VALUE = VALUE + SUB_BIN;
     1684     4383    5                      END;
     1685     4384    4                      FI_ERR = VALUE;
     1686     4385    4                      IF MATCH_DEL
     1687     4386    4                         THEN
     1688     4387    4                           IF ((TH_CONSTRAINTS.M_COD_SET) &
     1689     4388    4                               (FI_ERR = TH_CONSTRAINTS.M_COD))
     1690     4389    4                               THEN TH_CONSTRAINTS.M_COD_SET = %NO;
     1691     4390    5                               ELSE DO;
     1692     4391    5                                 CALL THM$ERRMSG(%E$TH_BAD_COD);
     1693     4392    5                                 ALTRETURN;
     1694     4393    5                               END;
     1695     4394    5                         ELSE DO;
     1696     4395    5                           TH_CONSTRAINTS.M_COD_SET = %YES;
     1697     4396    5                           TH_CONSTRAINTS.M_COD = FI_ERR;
     1698     4397    5                         END;
     1699     4398    4                         DEL_TEST = 'COD';
     1700     4399    4                    CASE(%REA);
     1701     4400    4                      VALUE = 0;
     1702     4401    4                      SUB = TEMP$->OUT$BLK.SUBLK$(0)->OUT$SYM.TEXT;
PL6.E3A0      #007=THC$SELECT File=THC$COMMANDS.:E05TSI                          WED 07/30/97 06:11 Page:280
     1703     4402    5                      DO K = 0 TO TEMP$->OUT$BLK.SUBLK$(0)->OUT$SYM.COUNT - 1;
     1704     4403    5                         VALUE = VALUE * 10;
     1705     4404    5                         CALL CHARBIN(SUB_BIN,SUBB(K));
     1706     4405    5                         VALUE = VALUE + SUB_BIN;
     1707     4406    5                      END;
     1708     4407    4                      FI_ERR = VALUE;
     1709     4408    4                      IF MATCH_DEL
     1710     4409    4                         THEN
     1711     4410    4                           IF ((TH_CONSTRAINTS.M_REA_SET) &
     1712     4411    4                               (FI_ERR = TH_CONSTRAINTS.M_REA))
     1713     4412    4                               THEN TH_CONSTRAINTS.M_REA_SET = %NO;
     1714     4413    5                               ELSE DO;
     1715     4414    5                                 CALL THM$ERRMSG(%E$TH_BAD_REA);
     1716     4415    5                                 ALTRETURN;
     1717     4416    5                               END;
     1718     4417    5                         ELSE DO;
     1719     4418    5                           TH_CONSTRAINTS.M_REA_SET = %YES;
     1720     4419    5                           TH_CONSTRAINTS.M_REA = FI_ERR;
     1721     4420    5                         END;
     1722     4421    4                         DEL_TEST = 'REA';
     1723     4422    4                    CASE(%ACT);
     1724     4423    4                      CALL CHARBIN(VALUE,TEMP$->OUT$BLK.SUBLK$(0)->OUT$SYM.TEXT);
     1725     4424    4                      FI_ERR = VALUE;
     1726     4425    4                      IF MATCH_DEL
     1727     4426    4                         THEN
     1728     4427    4                           IF ((TH_CONSTRAINTS.M_ACT_SET) &
     1729     4428    4                               (FI_ERR = TH_CONSTRAINTS.M_ACT))
     1730     4429    4                               THEN TH_CONSTRAINTS.M_ACT_SET = %NO;
     1731     4430    5                               ELSE DO;
     1732     4431    5                                 CALL THM$ERRMSG(%E$TH_BAD_ACT);
     1733     4432    5                                 ALTRETURN;
     1734     4433    5                               END;
     1735     4434    5                         ELSE DO;
     1736     4435    5                           TH_CONSTRAINTS.M_ACT_SET = %YES;
     1737     4436    5                           TH_CONSTRAINTS.M_ACT = FI_ERR;
     1738     4437    5                         END;
     1739     4438    4                         DEL_TEST = 'ACT';
PL6.E3A0      #007=THC$SELECT File=THC$COMMANDS.:E05TSI                          WED 07/30/97 06:11 Page:281
     1740     4439    4                    CASE(%MED);
     1741     4440    4                      MEDIA = TEMP$->OUT$BLK.SUBLK$(0)->OUT$SYM.TEXT;
     1742     4441    4                      IF (MATCH_DEL)
     1743     4442    4                        THEN
     1744     4443    4                           IF ((TH_CONSTRAINTS.M_MED_S)&(MEDIA=TH_CONSTRAINTS.M_MED))
     1745     4444    4                             THEN TH_CONSTRAINTS.M_MED_S = %NO;
     1746     4445    5                             ELSE DO;
     1747     4446    5                                CALL THM$ERRMSG(%E$TH_BAD_MED);
     1748     4447    5                                ALTRETURN;
     1749     4448    5                                END;
     1750     4449    5                        ELSE DO;
     1751     4450    5                           TH_CONSTRAINTS.M_MED_S = %YES;
     1752     4451    5                           TH_CONSTRAINTS.M_MED = MEDIA;
     1753     4452    5                           END;
     1754     4453    4                      DEL_TEST = 'MED';
     1755     4454    4                    CASE(%BY_B);
     1756     4455    4                      CALL CHARBIN(VALUE,TEMP$->OUT$BLK.SUBLK$(0)->OUT$SYM.TEXT);
     1757     4456    4                      IF VALUE > 25
     1758     4457    5                        THEN DO;
     1759     4458    5                           CALL THM$ERRMSG(%E$TH_BAD_BYTE);
     1760     4459    5                           ALTRETURN;
     1761     4460    5                           END;
     1762     4461    4                      BYTE_SPEC = VALUE;
     1763     4462    5                      DO CASE(TEMP$->OUT$BLK.SUBLK$(1)->OUT$BLK.CODE);
     1764     4463    5                         CASE(%BIT);
     1765     4464    5                           CALL CHARBIN(VALUE,TEMP$->OUT$BLK.SUBLK$(1)
     1766     4465    5                                        ->OUT$BLK.SUBLK$(0)->OUT$SYM.TEXT);
     1767     4466    5                           IF VALUE > 7
     1768     4467    6                             THEN DO;
     1769     4468    6                                CALL THM$ERRMSG(%E$TH_BAD_BIT);
     1770     4469    6                                ALTRETURN;
     1771     4470    6                                END;
     1772     4471    5                           FIRST_BIT = VALUE;
     1773     4472    5                           CALL CHARBIN(VALUE,TEMP$->OUT$BLK.SUBLK$(1)
     1774     4473    5                                        ->OUT$BLK.SUBLK$(1)->OUT$SYM.TEXT);
     1775     4474    5                           IF (VALUE = 0 OR VALUE = 1)
     1776     4475    5                             THEN ;
PL6.E3A0      #007=THC$SELECT File=THC$COMMANDS.:E05TSI                          WED 07/30/97 06:11 Page:282
     1777     4476    6                             ELSE DO;
     1778     4477    6                                CALL THM$ERRMSG(%E$TH_BAD_BIT);
     1779     4478    6                                ALTRETURN;
     1780     4479    6                                END;
     1781     4480    5                           BIT_SPEC = BINBIT(VALUE,1);
     1782     4481    5                           INDX = (BYTE_SPEC) * 8 + FIRST_BIT;
     1783     4482    5                           IF MATCH_DEL
     1784     4483    5                              THEN
     1785     4484    5                                IF ((TH_CONSTRAINTS.M_BY_B_SET(INDX)) &
     1786     4485    5                                    (TH_CONSTRAINTS.M_BY_B_VEC(INDX)=BIT_SPEC))
     1787     4486    5                                   THEN
     1788     4487    5                                     TH_CONSTRAINTS.M_BY_B_SET(INDX)=%NO;
     1789     4488    6                                   ELSE DO;
     1790     4489    6                                     CALL THM$ERRMSG(%E$TH_BAD_BIT);
     1791     4490    6                                     ALTRETURN;
     1792     4491    6                                     END;
     1793     4492    6                              ELSE DO;
     1794     4493    6                                TH_CONSTRAINTS.M_BY_B_SET(INDX) = %YES;
     1795     4494    6                                TH_CONSTRAINTS.M_BY_B_VEC(INDX) = BIT_SPEC;
     1796     4495    6                                END;
     1797     4496    5                         CASE(%BIT_STR);
     1798     4497    5                           TEMP = TEMP$->OUT$BLK.SUBLK$(1)->
     1799     4498    5                                  OUT$BLK.SUBLK$(0)->OUT$SYM.TEXT;
     1800     4499    6                        DO K = 0 TO 7;
     1801     4500    6                        CALL CHARBIN(VALUE,TEMPP(K));
     1802     4501    6                             IF (VALUE = 0 OR VALUE = 1)
     1803     4502    6                                THEN;
     1804     4503    7                                ELSE DO;
     1805     4504    7                                     CALL THM$ERRMSG(%E$TH_BAD_BIT);
     1806     4505    7                                     ALTRETURN;
     1807     4506    7                                     END;
     1808     4507    6                             BIT_SPEC = BINBIT(VALUE,1);
     1809     4508    6                        INDX = (BYTE_SPEC) * 8 + K;
     1810     4509    6                             IF MATCH_DEL
     1811     4510    6                                THEN
     1812     4511    6                                  IF ((TH_CONSTRAINTS.M_BY_B_SET(INDX)) &
     1813     4512    6                                     (TH_CONSTRAINTS.M_BY_B_VEC(INDX)=BIT_SPEC))
PL6.E3A0      #007=THC$SELECT File=THC$COMMANDS.:E05TSI                          WED 07/30/97 06:11 Page:283
     1814     4513    6                                     THEN
     1815     4514    6                                       TH_CONSTRAINTS.M_BY_B_SET(INDX)=%NO;
     1816     4515    7                                     ELSE DO;
     1817     4516    7                                       CALL THM$ERRMSG(%E$TH_BAD_BIT);
     1818     4517    7                                       ALTRETURN;
     1819     4518    7                                       END;
     1820     4519    7                                ELSE DO;
     1821     4520    7                                     TH_CONSTRAINTS.M_BY_B_SET(INDX)=%YES;
     1822     4521    7                                     TH_CONSTRAINTS.M_BY_B_VEC(INDX)=BIT_SPEC;
     1823     4522    7                                     END;
     1824     4523    6                           END;
     1825     4524    5                      END;                /* DO CASE */
     1826     4525    4                      DEL_TEST = 'BYT';
     1827     4526    4                    CASE(%FEP_CODE);
     1828     4527    4                      FEP_CODE = TEMP$->OUT$BLK.SUBLK$(0)->OUT$SYM.TEXT;
     1829     4528    4                      IF MATCH_DEL
     1830     4529    4                        THEN
     1831     4530    4                           IF ((TH_CONSTRAINTS.M_FEP_SET) &
     1832     4531    4                               (TH_CONSTRAINTS.M_FEP = FEP_CODE))
     1833     4532    4                             THEN TH_CONSTRAINTS.M_FEP_SET = %NO;
     1834     4533    5                             ELSE DO;
     1835     4534    5                                CALL THM$ERRMSG(%E$TH_BAD_FEP);
     1836     4535    5                                ALTRETURN;
     1837     4536    5                             END;
     1838     4537    5                        ELSE DO;
     1839     4538    5                           TH_CONSTRAINTS.M_FEP_SET = %YES;
     1840     4539    5                           TH_CONSTRAINTS.M_FEP = FEP_CODE;
     1841     4540    5                           TH_CONSTRAINTS.M_FEP_N = TEMP$->OUT$BLK.SUBLK$(0)
     1842     4541    5                                                    ->OUT$SYM.COUNT;
     1843     4542    5                           END;
     1844     4543    4                        DEL_TEST = 'FCG';
     1845     4544    4                    CASE(%FEP_CHAN);
     1846     4545    4                      FEP_CHAN = TEMP$->OUT$BLK.SUBLK$(0)->OUT$SYM.TEXT;
     1847     4546    4                      J = TEMP$->OUT$BLK.SUBLK$(0)->OUT$SYM.COUNT;
     1848     4547    5                      DO CASE (J);
     1849     4548    5                        CASE(1);
     1850     4549    5                           CALL CONCAT(FEP_CHAN_N,'000',SUBSTR(FEP_CHAN,0,1));
PL6.E3A0      #007=THC$SELECT File=THC$COMMANDS.:E05TSI                          WED 07/30/97 06:11 Page:284
     1851     4550    5                        CASE(2);
     1852     4551    5                           CALL CONCAT(FEP_CHAN_N,'00',SUBSTR(FEP_CHAN,0,2));
     1853     4552    5                        CASE(3);
     1854     4553    5                           CALL CONCAT(FEP_CHAN_N,'0',SUBSTR(FEP_CHAN,0,3));
     1855     4554    5                        CASE(4);
     1856     4555    5                           FEP_CHAN_N = FEP_CHAN;
     1857     4556    5                        CASE (ELSE);
     1858     4557    5                           CALL THM$ERRMSG(%E$TH_BAD_CHAN);
     1859     4558    5                           ALTRETURN;
     1860     4559    5                      END;
     1861     4560    4          IF MATCH_DEL THEN
     1862     4561    5            DO;
     1863     4562    5                IF TH_CONSTRAINTS.M_CHAN_SET
     1864     4563    5                  THEN
     1865     4564    6                  DO;
     1866     4565    6                    FOUND='0'B;
     1867     4566    7                    DO K = 0 TO TH_M_CHAN_TOTAL-1;
     1868     4567    7                      IF FEP_CHAN_N = TH_M_CHAN.TEXT(K)
     1869     4568    7                        THEN
     1870     4569    8                          DO;
     1871     4570    8                            FOUND='1'B;
     1872     4571    8                            TH_M_CHAN.FLAG(K) = '0'B;
     1873     4572    8                            GOTO FOUND_CHANNEL;
     1874     4573    8                          END;
     1875     4574    7                    END;
     1876     4575    6   FOUND_CHANNEL:   IF FOUND
     1877     4576    6                      THEN
     1878     4577    7                        DO;
     1879     4578    7                          JJ = 0;
     1880     4579    8                          DO K = 0 TO TH_M_CHAN_TOTAL-1;
     1881     4580    8                            IF TH_M_CHAN.FLAG(K) = '1'B
     1882     4581    8                                THEN  JJ = JJ + 1;
     1883     4582    8                          END;
     1884     4583    7                          IF JJ = 0
     1885     4584    7                            THEN
     1886     4585    7                                TH_CONSTRAINTS.M_CHAN_SET = '0'B;
     1887     4586    7                        END;
PL6.E3A0      #007=THC$SELECT File=THC$COMMANDS.:E05TSI                          WED 07/30/97 06:11 Page:285
     1888     4587    6                        ELSE
     1889     4588    6                            GOTO WRONG;
     1890     4589    6                  END;
     1891     4590    5                  ELSE
     1892     4591    6                    DO;
     1893     4592    6   WRONG:             CALL THM$ERRMSG(%E$TH_BAD_CHAN);
     1894     4593    6                      ALTRETURN;
     1895     4594    6                    END;
     1896     4595    5            END; /* IF MATCH_DEL */
     1897     4596    4            ELSE
     1898     4597    4                IF MATCH_ADD
     1899     4598    4                  THEN
     1900     4599    5                    DO;
     1901     4600    5                      TH_CONSTRAINTS.M_CHAN_SET = '1'B;
     1902     4601    5                      TH_M_CHAN.TEXT(TH_M_CHAN_TOTAL) = FEP_CHAN_N;
     1903     4602    5                      TH_M_CHAN.FLAG(TH_M_CHAN_TOTAL) = '1'B;
     1904     4603    5                      TH_M_CHAN_TOTAL = TH_M_CHAN_TOTAL + 1;
     1905     4604    5                    END;
     1906     4605    4                    ELSE
     1907     4606    5                      DO;
     1908     4607    5                        TH_CONSTRAINTS.M_CHAN_SET = '1'B;
     1909     4608    5                        TH_M_CHAN.TEXT(0) = FEP_CHAN_N;
     1910     4609    5                        TH_M_CHAN.FLAG(0) = '1'B;
     1911     4610    5                        TH_M_CHAN_TOTAL = 1;
     1912     4611    5                      END;
     1913     4612    4                        DEL_TEST = 'CHA';
     1914     4613    4                 END;                     /* OF CASE   */
     1915     4614    3             IF MATCH_DEL
     1916     4615    4               THEN DO;
     1917     4616    4                 CALL INDEX(JJ,DEL_TEST,TH_LAST_MATCH.TEXT);
     1918     4617    4                 JCNT = JJ;
     1919     4618    4       NEXT_COMMA:  FOUND = '0'B;
     1920     4619    4                 SAVE_INDEX = 0;
     1921     4620    5                 DO WHILE NOT FOUND;
     1922     4621    6                   DO WHILE(SUBSTR(TH_LAST_MATCH.TEXT,JCNT,1) ~= ',');
     1923     4622    6                      IF JCNT > TH_LAST_MATCH.COUNT
     1924     4623    6                        THEN GOTO DEL_END_M;
PL6.E3A0      #007=THC$SELECT File=THC$COMMANDS.:E05TSI                          WED 07/30/97 06:11 Page:286
     1925     4624    6                        IF(SUBSTR(TH_LAST_MATCH.TEXT,JCNT,1) = '=')
     1926     4625    7                        THEN DO;
     1927     4626    7                          SAVE_INDEX = JCNT - 5;
     1928     4627    7                          IF(SUBSTR(TH_LAST_MATCH.TEXT,JCNT+1,4) = FEP_CHAN)
     1929     4628    8                          THEN DO;JCNT = JCNT + 5;
     1930     4629    8                                  FOUND = '1'B;
     1931     4630    8                          END;
     1932     4631    7                          ELSE
     1933     4632    7                            JCNT = JCNT + 1;
     1934     4633    7                        END;
     1935     4634    6                      ELSE
     1936     4635    6                      JCNT = JCNT + 1;
     1937     4636    6                   END; /* do while ~= ','*/
     1938     4637    5                   IF NOT FOUND THEN
     1939     4638    5                     JCNT = JCNT + 1;
     1940     4639    5                 END;
     1941     4640    4                 IF DEL_TEST = 'BYT' AND TEMP$->OUT$BLK.SUBLK$(1)
     1942     4641    4                      ->OUT$BLK.CODE = %BIT
     1943     4642    5                      THEN DO;
     1944     4643    5                           JCNT = JCNT + 1;
     1945     4644    5                           GOTO NEXT_COMMA;
     1946     4645    5                      END;
     1947     4646    4       DEL_END_M:
     1948     4647    4                 C_TEST = ' ';
     1949     4648    4                 IF SAVE_INDEX = 0 THEN
     1950     4649    4                 CALL CONCAT(C_TEST,SUBSTR(TH_LAST_MATCH.TEXT,JCNT+1));
     1951     4650    4                 ELSE CALL CONCAT(C_TEST,SUBSTR(TH_LAST_MATCH.TEXT,0,SAVE_INDEX),
     1952     4651    4                                  SUBSTR(TH_LAST_MATCH.TEXT,JCNT+1));
     1953     4652    4                 TH_LAST_MATCH.TEXT = C_TEST;
     1954     4653    4                 IF JCNT > TH_LAST_MATCH.COUNT
     1955     4654    4                    THEN
     1956     4655    4                      TH_LAST_MATCH.COUNT=TH_LAST_MATCH.COUNT-(JCNT-JJ);
     1957     4656    4                    ELSE
     1958     4657    4                     TH_LAST_MATCH.COUNT = TH_LAST_MATCH.COUNT - (JCNT+1) + SAVE_INDEX;
     1959     4658    4                 END;
     1960     4659    3            END;                          /* DO I = J   */
     1961     4660    2             IF MATCH_DEL
PL6.E3A0      #007=THC$SELECT File=THC$COMMANDS.:E05TSI                          WED 07/30/97 06:11 Page:287
     1962     4661    2                 THEN ;
     1963     4662    3                 ELSE DO;
     1964     4663    3            CALL INDEX(INDX,' ',TEXTBASE);
     1965     4664    4            DO WHILE(SUBSTR(TEXTBASE,INDX,1) = ' ');
     1966     4665    4                 INDX = INDX + 1;
     1967     4666    4            END;    /* OF WHILE */
     1968     4667    3             IF MATCH_ADD
     1969     4668    4               THEN DO;
     1970     4669    4                 CALL INDEX(JJ,' ',SUBSTR(TEXTBASE,INDX,P_PCB.NCHARS-INDX));
     1971     4670    5                 DO WHILE (SUBSTR(TEXTBASE,JJ,1) = ' ');
     1972     4671    5                   JJ = JJ + 1;
     1973     4672    5                 END;
     1974     4673    4                 JJ = JJ + INDX;
     1975     4674    4                 JJ = P_PCB.NCHARS - JJ;
     1976     4675    4                 TH_LAST_MATCH.COUNT = TH_LAST_MATCH.COUNT + JJ + 1;
     1977     4676    4                 CALL INSERT(TH_LAST_MATCH.TEXT,,,SUBSTR(TH_LAST_MATCH.TEXT,
     1978     4677    4                             0,TH_LAST_MATCH.COUNT-JJ-1),',',SUBSTR(TEXTBASE,
     1979     4678    4                             P_PCB.NCHARS-JJ,JJ));
     1980     4679    4               END;
     1981     4680    4               ELSE DO;
     1982     4681    4            TH_LAST_MATCH.COUNT = P_PCB.NCHARS-INDX;
     1983     4682    4            TH_LAST_MATCH.TEXT = SUBSTR(TEXTBASE,INDX,P_PCB.NCHARS-INDX);
     1984     4683    4            END;
     1985     4684    3       END;
     1986     4685    2            CASE (%EXCLUDE);
     1987     4686                                               /* PROCESS EXCLUDE COMMAND         */
     1988     4687    2              EXCLUDE_DEL = %NO;
     1989     4688    2            EXCLUDE_ADD = %NO;
     1990     4689    2              IF OUT$BLK.SUBLK$(0)->OUT$BLK.CODE = %DELETEE
     1991     4690    3                 THEN DO;
     1992     4691    3                      EXCLUDE_DEL = %YES;
     1993     4692    3                      J = 1;
     1994     4693    3                      END;
     1995     4694    2                 ELSE
     1996     4695    2                      IF OUT$BLK.SUBLK$(0)->OUT$BLK.CODE = %ADDD
     1997     4696    3                           THEN DO;
     1998     4697    3                                J = 1;
PL6.E3A0      #007=THC$SELECT File=THC$COMMANDS.:E05TSI                          WED 07/30/97 06:11 Page:288
     1999     4698    3                                EXCLUDE_ADD = %YES;
     2000     4699    3                                END;
     2001     4700    3                           ELSE DO;
     2002     4701    3                                J = 0;
     2003     4702    3                                TH_CONSTRAINTS.E_BY_B_SET = %NO;
     2004     4703    3                                TH_CONSTRAINTS.E_MAJ_S = %NO;
     2005     4704    3                                TH_CONSTRAINTS.E_SUB_S = %NO;
     2006     4705    3                                TH_CONSTRAINTS.E_MED_S = %NO;
     2007     4706    3                                TH_CONSTRAINTS.E_FEP_SET = %NO;
     2008     4707    3                                TH_CONSTRAINTS.E_CHAN_SET = %NO;
     2009     4708    3                                TH_CONSTRAINTS.E_COD_SET = %NO;
     2010     4709    3                                TH_CONSTRAINTS.E_REA_SET = %NO;
     2011     4710    3                                TH_CONSTRAINTS.E_ACT_SET = %NO;
     2012     4711    3                                END;
     2013     4712    3              DO I = J TO OUT$BLK.NSUBLKS - 1;
     2014     4713    3                 TEMP$ = OUT$BLK.SUBLK$(I)->OUT$BLK.SUBLK$(0);
     2015     4714    4                 DO CASE(TEMP$->OUT$BLK.CODE);
     2016     4715    4                    CASE(%MAJ);
     2017     4716    4                      IF TEMP$->OUT$BLK.SUBLK$(0)->OUT$SYM.COUNT = 2
     2018     4717    5                        THEN DO;
     2019     4718    5                           SUB = TEMP$->OUT$BLK.SUBLK$(0)->OUT$SYM.TEXT;
     2020     4719    5                           CALL CHARBIN(SUB_BIN,SUBB(0));
     2021     4720    5                           VALUE = SUB_BIN * 8;
     2022     4721    5                           CALL CHARBIN(SUB_BIN,SUBB(1));
     2023     4722    5                           VALUE = VALUE + SUB_BIN;
     2024     4723    5                           MAJOR = VALUE;
     2025     4724    5                           END;
     2026     4725    5                        ELSE DO;
     2027     4726    5                           CALL CHARBIN(VALUE,TEMP$->OUT$BLK.SUBLK$(0)
     2028     4727    5                                        ->OUT$SYM.TEXT);
     2029     4728    5                           MAJOR = VALUE;
     2030     4729    5                           END;
     2031     4730    4                      IF EXCLUDE_DEL
     2032     4731    4                        THEN
     2033     4732    4                           IF ((TH_CONSTRAINTS.E_MAJ_S) & (MAJOR=TH_CONSTRAINTS.E_MAJ))
     2034     4733    4                             THEN TH_CONSTRAINTS.E_MAJ_S = %NO;
     2035     4734    5                             ELSE DO;
PL6.E3A0      #007=THC$SELECT File=THC$COMMANDS.:E05TSI                          WED 07/30/97 06:11 Page:289
     2036     4735    5                                  CALL THM$ERRMSG(%E$TH_BAD_MAJ);
     2037     4736    5                                  ALTRETURN;
     2038     4737    5                                  END;
     2039     4738    5                        ELSE DO;
     2040     4739    5                             TH_CONSTRAINTS.E_MAJ_S = %YES;
     2041     4740    5                             TH_CONSTRAINTS.E_MAJ = MAJOR;
     2042     4741    5                             END;
     2043     4742    4                      DEL_TEST = 'MAJ';
     2044     4743    4                    CASE(%SUB);
     2045     4744    4                     IF TEMP$->OUT$BLK.SUBLK$(0)->OUT$SYM.COUNT = 2
     2046     4745    5                      THEN DO;
     2047     4746    5                      SUB = TEMP$->OUT$BLK.SUBLK$(0)->OUT$SYM.TEXT;
     2048     4747    5                      CALL CHARBIN(SUB_BIN,SUBB(0));
     2049     4748    5                      SUB_BIT.ONE = BINBIT(SUB_BIN,3);
     2050     4749    5                      CALL CHARBIN(SUB_BIN,SUBB(1));
     2051     4750    5                      SUB_BIT.TWO = BINBIT(SUB_BIN,3);
     2052     4751    5                      END;
     2053     4752    5                      ELSE DO;
     2054     4753    5                           SUB_BIN = 0;
     2055     4754    5                           SUB_BIT.ONE = BINBIT(SUB_BIN,3);
     2056     4755    5                           CALL CHARBIN(SUB_BIN,TEMP$->OUT$BLK.SUBLK$(0)
     2057     4756    5                                        ->OUT$SYM.TEXT);
     2058     4757    5                           SUB_BIT.TWO = BINBIT(SUB_BIN,3);
     2059     4758    5                           END;
     2060     4759    4                      IF EXCLUDE_DEL
     2061     4760    4                        THEN
     2062     4761    4                           IF ((TH_CONSTRAINTS.E_SUB_S)&(SUBB_BIT=TH_CONSTRAINTS.E_SUB)
              4761                                    )
     2063     4762    4                             THEN TH_CONSTRAINTS.E_SUB_S = %NO;
     2064     4763    5                             ELSE DO;
     2065     4764    5                                  CALL THM$ERRMSG(%E$TH_BAD_SUB);
     2066     4765    5                                  ALTRETURN;
     2067     4766    5                                  END;
     2068     4767    5                        ELSE DO;
     2069     4768    5                           TH_CONSTRAINTS.E_SUB_S = %YES;
     2070     4769    5                           TH_CONSTRAINTS.E_SUB = SUBB_BIT;
     2071     4770    5                           END;
PL6.E3A0      #007=THC$SELECT File=THC$COMMANDS.:E05TSI                          WED 07/30/97 06:11 Page:290
     2072     4771    4                      DEL_TEST = 'SUB';
     2073     4772    4                    CASE(%COD);
     2074     4773    4                      VALUE = 0;
     2075     4774    4                      SUB = TEMP$->OUT$BLK.SUBLK$(0)->OUT$SYM.TEXT;
     2076     4775    5                      DO K = 0 TO TEMP$->OUT$BLK.SUBLK$(0)->OUT$SYM.COUNT - 1;
     2077     4776    5                         VALUE = VALUE * 10;
     2078     4777    5                         CALL CHARBIN(SUB_BIN,SUBB(K));
     2079     4778    5                         VALUE = VALUE + SUB_BIN;
     2080     4779    5                      END;
     2081     4780    4                      FI_ERR = VALUE;
     2082     4781    4                      IF EXCLUDE_DEL
     2083     4782    4                         THEN
     2084     4783    4                           IF ((TH_CONSTRAINTS.E_COD_SET) &
     2085     4784    4                               (FI_ERR = TH_CONSTRAINTS.E_COD))
     2086     4785    4                               THEN TH_CONSTRAINTS.E_COD_SET = %NO;
     2087     4786    5                               ELSE DO;
     2088     4787    5                                 CALL THM$ERRMSG(%E$TH_BAD_COD);
     2089     4788    5                                 ALTRETURN;
     2090     4789    5                               END;
     2091     4790    5                         ELSE DO;
     2092     4791    5                           TH_CONSTRAINTS.E_COD_SET = %YES;
     2093     4792    5                           TH_CONSTRAINTS.E_COD = FI_ERR;
     2094     4793    5                         END;
     2095     4794    4                         DEL_TEST = 'COD';
     2096     4795    4                    CASE(%REA);
     2097     4796    4                      VALUE = 0;
     2098     4797    4                      SUB = TEMP$->OUT$BLK.SUBLK$(0)->OUT$SYM.TEXT;
     2099     4798    5                      DO K = 0 TO TEMP$->OUT$BLK.SUBLK$(0)->OUT$SYM.COUNT - 1;
     2100     4799    5                         VALUE = VALUE * 10;
     2101     4800    5                         CALL CHARBIN(SUB_BIN,SUBB(K));
     2102     4801    5                         VALUE = VALUE + SUB_BIN;
     2103     4802    5                      END;
     2104     4803    4                      FI_ERR = VALUE;
     2105     4804    4                      IF EXCLUDE_DEL
     2106     4805    4                         THEN
     2107     4806    4                           IF ((TH_CONSTRAINTS.E_REA_SET) &
     2108     4807    4                               (FI_ERR = TH_CONSTRAINTS.E_REA))
PL6.E3A0      #007=THC$SELECT File=THC$COMMANDS.:E05TSI                          WED 07/30/97 06:11 Page:291
     2109     4808    4                               THEN TH_CONSTRAINTS.E_REA_SET = %NO;
     2110     4809    5                               ELSE DO;
     2111     4810    5                                 CALL THM$ERRMSG(%E$TH_BAD_REA);
     2112     4811    5                                 ALTRETURN;
     2113     4812    5                               END;
     2114     4813    5                         ELSE DO;
     2115     4814    5                           TH_CONSTRAINTS.E_REA_SET = %YES;
     2116     4815    5                           TH_CONSTRAINTS.E_REA = FI_ERR;
     2117     4816    5                         END;
     2118     4817    4                         DEL_TEST = 'REA';
     2119     4818    4                    CASE(%ACT);
     2120     4819    4                      CALL CHARBIN(VALUE,TEMP$->OUT$BLK.SUBLK$(0)->OUT$SYM.TEXT);
     2121     4820    4                      FI_ERR = VALUE;
     2122     4821    4                      IF EXCLUDE_DEL
     2123     4822    4                         THEN
     2124     4823    4                           IF ((TH_CONSTRAINTS.E_ACT_SET) &
     2125     4824    4                               (FI_ERR = TH_CONSTRAINTS.E_ACT))
     2126     4825    4                               THEN TH_CONSTRAINTS.E_ACT_SET = %NO;
     2127     4826    5                               ELSE DO;
     2128     4827    5                                 CALL THM$ERRMSG(%E$TH_BAD_ACT);
     2129     4828    5                                 ALTRETURN;
     2130     4829    5                               END;
     2131     4830    5                         ELSE DO;
     2132     4831    5                           TH_CONSTRAINTS.E_ACT_SET = %YES;
     2133     4832    5                           TH_CONSTRAINTS.E_ACT = FI_ERR;
     2134     4833    5                         END;
     2135     4834    4                         DEL_TEST = 'ACT';
     2136     4835    4                    CASE(%MED);
     2137     4836    4                      MEDIA = TEMP$->OUT$BLK.SUBLK$(0)->OUT$SYM.TEXT;
     2138     4837    4                      IF (EXCLUDE_DEL)
     2139     4838    4                        THEN
     2140     4839    4                           IF ((TH_CONSTRAINTS.E_MED_S)&(MEDIA=TH_CONSTRAINTS.E_MED))
     2141     4840    4                             THEN TH_CONSTRAINTS.E_MED_S = %NO;
     2142     4841    5                             ELSE DO;
     2143     4842    5                                CALL THM$ERRMSG(%E$TH_BAD_MED);
     2144     4843    5                                ALTRETURN;
     2145     4844    5                                END;
PL6.E3A0      #007=THC$SELECT File=THC$COMMANDS.:E05TSI                          WED 07/30/97 06:11 Page:292
     2146     4845    5                        ELSE DO;
     2147     4846    5                           TH_CONSTRAINTS.E_MED_S = %YES;
     2148     4847    5                           TH_CONSTRAINTS.E_MED = MEDIA;
     2149     4848    5                           END;
     2150     4849    4                      DEL_TEST = 'MED';
     2151     4850    4                    CASE(%BY_B);
     2152     4851    4                      CALL CHARBIN(VALUE,TEMP$->OUT$BLK.SUBLK$(0)->OUT$SYM.TEXT);
     2153     4852    4                      IF VALUE > 25
     2154     4853    5                        THEN DO;
     2155     4854    5                           CALL THM$ERRMSG(%E$TH_BAD_BYTE);
     2156     4855    5                           ALTRETURN;
     2157     4856    5                           END;
     2158     4857    4                      BYTE_SPEC = VALUE;
     2159     4858    5                      DO CASE(TEMP$->OUT$BLK.SUBLK$(1)->OUT$BLK.CODE);
     2160     4859    5                         CASE(%BIT);
     2161     4860    5                           CALL CHARBIN(VALUE,TEMP$->OUT$BLK.SUBLK$(1)
     2162     4861    5                                        ->OUT$BLK.SUBLK$(0)->OUT$SYM.TEXT);
     2163     4862    5                           IF VALUE > 7
     2164     4863    6                             THEN DO;
     2165     4864    6                                CALL THM$ERRMSG(%E$TH_BAD_BIT);
     2166     4865    6                                ALTRETURN;
     2167     4866    6                                END;
     2168     4867    5                           FIRST_BIT = VALUE;
     2169     4868    5                           CALL CHARBIN(VALUE,TEMP$->OUT$BLK.SUBLK$(1)
     2170     4869    5                                        ->OUT$BLK.SUBLK$(1)->OUT$SYM.TEXT);
     2171     4870    5                           IF (VALUE = 0 OR VALUE = 1)
     2172     4871    5                             THEN;
     2173     4872    6                             ELSE DO;
     2174     4873    6                                CALL THM$ERRMSG(%E$TH_BAD_BIT);
     2175     4874    6                                ALTRETURN;
     2176     4875    6                                END;
     2177     4876    5                           BIT_SPEC = BINBIT(VALUE,1);
     2178     4877    5                           INDX = (BYTE_SPEC) * 8 + FIRST_BIT;
     2179     4878    5                           IF EXCLUDE_DEL
     2180     4879    5                              THEN
     2181     4880    5                                IF ((TH_CONSTRAINTS.E_BY_B_SET(INDX)) &
     2182     4881    5                                    (TH_CONSTRAINTS.E_BY_B_VEC(INDX)=BIT_SPEC))
PL6.E3A0      #007=THC$SELECT File=THC$COMMANDS.:E05TSI                          WED 07/30/97 06:11 Page:293
     2183     4882    5                                   THEN
     2184     4883    5                                     TH_CONSTRAINTS.E_BY_B_SET(INDX)=%NO;
     2185     4884    6                                   ELSE DO;
     2186     4885    6                                     CALL THM$ERRMSG(%E$TH_BAD_BIT);
     2187     4886    6                                     ALTRETURN;
     2188     4887    6                                     END;
     2189     4888    6                              ELSE DO;
     2190     4889    6                                TH_CONSTRAINTS.E_BY_B_SET(INDX) = %YES;
     2191     4890    6                                TH_CONSTRAINTS.E_BY_B_VEC(INDX) = BIT_SPEC;
     2192     4891    6                                END;
     2193     4892    5                         CASE(%BIT_STR);
     2194     4893    5                           TEMP = TEMP$->OUT$BLK.SUBLK$(1)->
     2195     4894    5                                  OUT$BLK.SUBLK$(0)->OUT$SYM.TEXT;
     2196     4895    6                        DO K = 0 TO 7;
     2197     4896    6                        CALL CHARBIN(VALUE,TEMPP(K));
     2198     4897    6                             IF (VALUE = 0 OR VALUE = 1)
     2199     4898    6                                THEN;
     2200     4899    7                                ELSE DO;
     2201     4900    7                                     CALL THM$ERRMSG(%E$TH_BAD_BIT);
     2202     4901    7                                     ALTRETURN;
     2203     4902    7                                     END;
     2204     4903    6                             BIT_SPEC = BINBIT(VALUE,1);
     2205     4904    6                        INDX = (BYTE_SPEC) * 8 + K;
     2206     4905    6                             IF EXCLUDE_DEL
     2207     4906    6                                THEN
     2208     4907    6                                  IF ((TH_CONSTRAINTS.E_BY_B_SET(INDX)) &
     2209     4908    6                                     (TH_CONSTRAINTS.E_BY_B_VEC(INDX)=BIT_SPEC))
     2210     4909    6                                     THEN
     2211     4910    6                                       TH_CONSTRAINTS.E_BY_B_SET(INDX)=%NO;
     2212     4911    7                                     ELSE DO;
     2213     4912    7                                       CALL THM$ERRMSG(%E$TH_BAD_BIT);
     2214     4913    7                                       ALTRETURN;
     2215     4914    7                                       END;
     2216     4915    7                                ELSE DO;
     2217     4916    7                                     TH_CONSTRAINTS.E_BY_B_SET(INDX)=%YES;
     2218     4917    7                                     TH_CONSTRAINTS.E_BY_B_VEC(INDX)=BIT_SPEC;
     2219     4918    7                                     END;
PL6.E3A0      #007=THC$SELECT File=THC$COMMANDS.:E05TSI                          WED 07/30/97 06:11 Page:294
     2220     4919    6                           END;
     2221     4920    5                      END;                /* DO CASE */
     2222     4921    4                      DEL_TEST = 'BYT';
     2223     4922    4                    CASE(%FEP_CODE);
     2224     4923    4                      FEP_CODE = TEMP$->OUT$BLK.SUBLK$(0)->OUT$SYM.TEXT;
     2225     4924    4                      IF EXCLUDE_DEL
     2226     4925    4                        THEN
     2227     4926    4                           IF ((TH_CONSTRAINTS.E_FEP_SET) &
     2228     4927    4                               (TH_CONSTRAINTS.E_FEP = FEP_CODE))
     2229     4928    4                             THEN TH_CONSTRAINTS.E_FEP_SET = %NO;
     2230     4929    5                             ELSE DO;
     2231     4930    5                                CALL THM$ERRMSG(%E$TH_BAD_FEP);
     2232     4931    5                                ALTRETURN;
     2233     4932    5                             END;
     2234     4933    5                        ELSE DO;
     2235     4934    5                           TH_CONSTRAINTS.E_FEP_SET = %YES;
     2236     4935    5                           TH_CONSTRAINTS.E_FEP = FEP_CODE;
     2237     4936    5                           TH_CONSTRAINTS.E_FEP_N = TEMP$->OUT$BLK.SUBLK$(0)
     2238     4937    5                                                    ->OUT$SYM.COUNT;
     2239     4938    5                           END;
     2240     4939    4                      DEL_TEST = 'FCG';
     2241     4940    4                    CASE(%FEP_CHAN);
     2242     4941    4                      FEP_CHAN = TEMP$->OUT$BLK.SUBLK$(0)->OUT$SYM.TEXT;
     2243     4942    4                      J = TEMP$->OUT$BLK.SUBLK$(0)->OUT$SYM.COUNT;
     2244     4943    5                      DO CASE (J);
     2245     4944    5                        CASE(1);
     2246     4945    5                           CALL CONCAT(FEP_CHAN_N,'000',SUBSTR(FEP_CHAN,0,1));
     2247     4946    5                        CASE(2);
     2248     4947    5                           CALL CONCAT(FEP_CHAN_N,'00',SUBSTR(FEP_CHAN,0,2));
     2249     4948    5                        CASE(3);
     2250     4949    5                           CALL CONCAT(FEP_CHAN_N,'0',SUBSTR(FEP_CHAN,0,3));
     2251     4950    5                        CASE(4);
     2252     4951    5                           FEP_CHAN_N = FEP_CHAN;
     2253     4952    5                        CASE (ELSE);
     2254     4953    5                           CALL THM$ERRMSG(%E$TH_BAD_CHAN);
     2255     4954    5                           ALTRETURN;
     2256     4955    5                      END;
PL6.E3A0      #007=THC$SELECT File=THC$COMMANDS.:E05TSI                          WED 07/30/97 06:11 Page:295
     2257     4956    4                      IF EXCLUDE_DEL
     2258     4957    4                        THEN
     2259     4958    4                           IF ((TH_CONSTRAINTS.E_CHAN_SET) &
     2260     4959    4                               (TH_CONSTRAINTS.E_CHAN = FEP_CHAN_N))
     2261     4960    4                             THEN TH_CONSTRAINTS.E_CHAN_SET= %NO;
     2262     4961    5                             ELSE DO;
     2263     4962    5                                CALL THM$ERRMSG(%E$TH_BAD_CHAN);
     2264     4963    5                                ALTRETURN;
     2265     4964    5                             END;
     2266     4965    5                        ELSE DO;
     2267     4966    5                           TH_CONSTRAINTS.E_CHAN_SET= %YES;
     2268     4967    5                           TH_CONSTRAINTS.E_CHAN = FEP_CHAN_N;
     2269     4968    5                              END;
     2270     4969    4                      DEL_TEST = 'CHA';
     2271     4970    4                 END;                     /* OF CASE   */
     2272     4971    3             IF EXCLUDE_DEL
     2273     4972    4               THEN DO;
     2274     4973    4                 CALL INDEX(JJ,DEL_TEST,TH_LAST_EXCLUDE.TEXT);
     2275     4974    4                 JCNT = JJ;
     2276     4975    4       NEXT_COMMA_E:
     2277     4976    5                 DO WHILE (SUBSTR(TH_LAST_EXCLUDE.TEXT,JCNT,1) ~= ',');
     2278     4977    5                      IF JCNT > TH_LAST_EXCLUDE.COUNT
     2279     4978    5                        THEN GOTO DEL_END_E;
     2280     4979    5                      JCNT = JCNT + 1;
     2281     4980    5                 END;
     2282     4981    4                 IF DEL_TEST = 'BYT' AND TEMP$->OUT$BLK.SUBLK$(1)
     2283     4982    4                      ->OUT$BLK.CODE = %BIT
     2284     4983    5                      THEN DO;
     2285     4984    5                           JCNT = JCNT + 1;
     2286     4985    5                           GOTO NEXT_COMMA_E;
     2287     4986    5                      END;
     2288     4987    4       DEL_END_E:
     2289     4988    4                 C_TEST = ' ';
     2290     4989    4                 CALL CONCAT(C_TEST,SUBSTR(TH_LAST_EXCLUDE.TEXT,
     2291     4990    4                             0,JJ),SUBSTR(TH_LAST_EXCLUDE.TEXT,JCNT+1));
     2292     4991    4                 TH_LAST_EXCLUDE.TEXT = C_TEST;
     2293     4992    4                 IF JCNT > TH_LAST_EXCLUDE.COUNT
PL6.E3A0      #007=THC$SELECT File=THC$COMMANDS.:E05TSI                          WED 07/30/97 06:11 Page:296
     2294     4993    4                    THEN
     2295     4994    4                      TH_LAST_EXCLUDE.COUNT=TH_LAST_EXCLUDE.COUNT-(JCNT-JJ);
     2296     4995    4                    ELSE
     2297     4996    4                      TH_LAST_EXCLUDE.COUNT = TH_LAST_EXCLUDE.COUNT - (JCNT-JJ+1);
     2298     4997    4                 END;
     2299     4998    3            END;                          /* DO I = J   */
     2300     4999    2             IF EXCLUDE_DEL
     2301     5000    2                 THEN ;
     2302     5001    3                 ELSE DO;
     2303     5002    3            CALL INDEX(INDX,' ',TEXTBASE);
     2304     5003    4            DO WHILE(SUBSTR(TEXTBASE,INDX,1) = ' ');
     2305     5004    4                 INDX = INDX + 1;
     2306     5005    4            END;    /* OF WHILE */
     2307     5006    3             IF EXCLUDE_ADD
     2308     5007    4               THEN DO;
     2309     5008    4                 CALL INDEX(JJ,' ',SUBSTR(TEXTBASE,INDX,P_PCB.NCHARS-INDX));
     2310     5009    5                 DO WHILE (SUBSTR(TEXTBASE,JJ,1) = ' ');
     2311     5010    5                   JJ = JJ + 1;
     2312     5011    5                 END;
     2313     5012    4                 JJ = JJ + INDX;
     2314     5013    4                 JJ = P_PCB.NCHARS - JJ;
     2315     5014    4                 TH_LAST_EXCLUDE.COUNT = TH_LAST_EXCLUDE.COUNT + JJ + 1;
     2316     5015    4                 CALL INSERT(TH_LAST_EXCLUDE.TEXT,,,SUBSTR(TH_LAST_EXCLUDE.TEXT,
     2317     5016    4                             0,TH_LAST_EXCLUDE.COUNT-JJ-1),',',SUBSTR(TEXTBASE,
     2318     5017    4                             P_PCB.NCHARS-JJ,JJ));
     2319     5018    4               END;
     2320     5019    4               ELSE DO;
     2321     5020    4            TH_LAST_EXCLUDE.COUNT = P_PCB.NCHARS-INDX;
     2322     5021    4            TH_LAST_EXCLUDE.TEXT = SUBSTR(TEXTBASE,INDX,P_PCB.NCHARS-INDX);
     2323     5022    4            END;
     2324     5023    3            END;
     2325     5024                 /*E* ERROR:  THE-E$TH_BAD_MAJ-0
     2326     5025                      MESSAGE: Bad major specification
     2327     5026                 */
     2328     5027                 /*E* ERROR:  THE-E$TH_BAD_SUB-0
     2329     5028                      MESSAGE:  Bad minor(sub) specification
     2330     5029                 */
PL6.E3A0      #007=THC$SELECT File=THC$COMMANDS.:E05TSI                          WED 07/30/97 06:11 Page:297
     2331     5030                 /*E* ERROR:  THE-E$TH_BAD_MED-0
     2332     5031                      MESSAGE:  Bad media-id specification
     2333     5032                 */
     2334     5033
     2335     5034                      /*E* ERROR: THE-E$TH_BAD_FEP-0
     2336     5035                           MESSAGE: Bad FEP error code specification
     2337     5036                      */
     2338     5037                   /*E* ERROR: THE-E$TH_BAD_BYTE-0
     2339     5038                        MESSAGE: Bad byte specification
     2340     5039                        MESSAGE1: Byte spec must be in the range 0-25
     2341     5040                   */
     2342     5041                   /*E* ERROR: THE-E$TH_BAD_BIT-0
     2343     5042                        MESSAGE: Bad bit specification
     2344     5043                        MESSAGE1: Bit spec must be in the range 0-7
     2345     5044                   */
     2346     5045                   /*E* ERROR: THE-E$TH_BAD_RANGE-0
     2347     5046                        MESSAGE: Bad range spec : HI < LO
     2348     5047                   */
     2349     5048                   /*E* ERROR: THE-E$TH_BAD_CHAN-0
     2350     5049                        MESSAGE: Bad FEP channel specification
     2351     5050                   */
     2352     5051                   /*E* ERROR: THE-E$TH_BAD_COD-0
     2353     5052                        MESSAGE: Bad I/O error code specification
     2354     5053                   */
     2355     5054                   /*E* ERROR: THE-E$TH_BAD_REA-0
     2356     5055                        MESSAGE: Bad Reason specification
     2357     5056                   */
     2358     5057                   /*E* ERROR: THE-E$TH_BAD_ACT-0
     2359     5058                        MESSAGE: Bad Action specification
     2360     5059                   */
     2361     5060    2           CASE(%OCTAL);
     2362     5061    2              TH_CONSTRAINTS.OCTAL = %YES;
     2363     5062    2           CASE(%CROSS);
     2364     5063    2              TH_CONSTRAINTS.CROSS = %YES;
     2365     5064    2           CASE(%RESET);
     2366     5065    3              IF OUT$BLK.NSUBLKS = 0 THEN DO;
     2367     5066    3                 TH_CONSTRAINTS = TH_DEFAULT; /* ALL RESET                  */
PL6.E3A0      #007=THC$SELECT File=THC$COMMANDS.:E05TSI                          WED 07/30/97 06:11 Page:298
     2368     5067    3                 TH_RECOV = %FALSE;
     2369     5068    3                 VLP_SYSTAC.ACCT# = ':SYSTAC';
     2370     5069    3                 TH_OPEN_ERRLOG.ACCT_ = VECTOR(VLP_SYSTAC);
     2371     5070    3                 TH_OPEN_ERRLOG.NAME_ = VECTOR(TH_VLP_ERRLOG);
     2372     5071    3                 TH_CHANGE_ACCOUNT = '1'B;
     2373     5072    3                TH_LAST_MATCH.TEXT = ' ';
     2374     5073    3                TH_LAST_EXCLUDE.TEXT = ' ';
     2375     5074    3                TH_LAST_EXCLUDE.COUNT = 0;
     2376     5075    3                TH_LAST_MATCH.COUNT = 0;
     2377     5076    3                 END;  /* IF */
     2378     5077    2                 ELSE
     2379     5078    3                 DO I = 0 TO OUT$BLK.NSUBLKS - 1;
     2380     5079    4                    DO CASE(OUT$BLK.SUBLK$(I)->OUT$BLK.CODE);
     2381     5080    4                       CASE(%ERROR,%SELECT);
     2382     5081    4                          TH_CONSTRAINTS.NTYPES = 0;
     2383     5082    4                          TH_RECOV = %FALSE;
     2384     5083    4                      CASE(%MATCH);
     2385     5084    4                           TH_CONSTRAINTS.M_BY_B_SET = %NO;
     2386     5085    4                         TH_CONSTRAINTS.M_MAJ_S = %NO;
     2387     5086    4                         TH_CONSTRAINTS.M_SUB_S = %NO;
     2388     5087    4                         TH_CONSTRAINTS.M_MED_S = %NO;
     2389     5088    4                         TH_CONSTRAINTS.M_FEP_SET = %NO;
     2390     5089    4                         TH_CONSTRAINTS.M_CHAN_SET = %NO;
     2391     5090    4                TH_M_CHAN_TOTAL = 0;
     2392     5091    4                TH_LAST_MATCH.TEXT = ' ';
     2393     5092    4                TH_LAST_MATCH.COUNT = 0;
     2394     5093    4                      CASE(%EXCLUDE);
     2395     5094    4                           TH_CONSTRAINTS.E_BY_B_SET = %NO;
     2396     5095    4                         TH_CONSTRAINTS.E_MAJ_S = %NO;
     2397     5096    4                         TH_CONSTRAINTS.E_SUB_S = %NO;
     2398     5097    4                         TH_CONSTRAINTS.E_MED_S = %NO;
     2399     5098    4                         TH_CONSTRAINTS.E_FEP_SET = %NO;
     2400     5099    4                         TH_CONSTRAINTS.E_CHAN_SET = %NO;
     2401     5100    4                TH_LAST_EXCLUDE.TEXT = ' ';
     2402     5101    4                TH_LAST_EXCLUDE.COUNT = 0;
     2403     5102    4                       CASE(%OCTAL);
     2404     5103    4                          TH_CONSTRAINTS.OCTAL = %NO;
PL6.E3A0      #007=THC$SELECT File=THC$COMMANDS.:E05TSI                          WED 07/30/97 06:11 Page:299
     2405     5104    4                       CASE(%CROSS);
     2406     5105    4                          TH_CONSTRAINTS.CROSS = %NO;
     2407     5106    4                       CASE(%SPAN);
     2408     5107    4                          TH_CONSTRAINTS.START = TH_DEFAULT.START;
     2409     5108    4                          TH_CONSTRAINTS.STOP = TH_DEFAULT.STOP;
     2410     5109    4          CASE(%USE);
     2411     5110    4            VLP_SYSTAC.ACCT# = ':SYSTAC';
     2412     5111    4            TH_CHANGE_ACCOUNT = '1'B;
     2413     5112    4          CASE(%FILE);
     2414     5113    4            TH_OPEN_ERRLOG.ACCT_ = VECTOR(VLP_SYSTAC);
     2415     5114    4            TH_OPEN_ERRLOG.NAME_ = VECTOR(TH_VLP_ERRLOG);
     2416     5115    4            TH_CHANGE_ACCOUNT = '1'B;
     2417     5116    4            TH_CONSTRAINTS.START = TH_DEFAULT.START;
     2418     5117    4            TH_CONSTRAINTS.STOP = TH_DEFAULT.STOP;
     2419     5118    4                    END;                   /* CASE OUT$BLK.CODE                  */
     2420     5119    3                 END;                      /* DO I = 0 TO OUT$BLK.NSUBLKS - 1    */
     2421     5120    2        END;                               /* CASE OUT$BLK.CODE                  */
     2422     5121    1   END THC$SELECT;
     2423     5122        %EOD;

PL6.E3A0      #007=THC$SELECT File=THC$COMMANDS.:E05TSI                          WED 07/30/97 06:11 Page:300
--  Include file information  --

   EL_SUBS_C.:E05TOU  is referenced.
   TH_PERR_C.:E05TOU  is referenced.
   TH_DATA_R.:E05TOU  cannot be made into a system file and is referenced.
   B_STRINGS_C.:E05TOU  is referenced.
   TH_SUBS_C.:E05TOU  is referenced.
   XU_MACRO_C.:E05TOU  is referenced.
   CP_6.:E05TOU  cannot be made into a system file and is referenced.
   B$JIT_C.:E05TOU  was found in the system file and is never referenced.
   CP_6_C.:E05TOU  was found in the system file and is referenced.
      No diagnostics issued in procedure THC$SELECT.

   Procedure THC$SELECT requires 2132 words for executable code.
   Procedure THC$SELECT requires 70 words of local(AUTO) storage.

PL6.E3A0      #007=THC$SELECT File=THC$COMMANDS.:E05TSI                          WED 07/30/97 06:11 Page:301

 Object Unit name= THC$SELECT                                 File name= THC$COMMANDS.:E05TOU
 UTS= JUL 30 '97 06:11:04.84 WED                              Compiler= PL-6/E31         Sev=      00
 SharedLib= :SHARED_SYSTEM                                    Alt SharedLib=


    ****  Control sections  ****

 Sect   Type Bound  Init  Size OctSiz  Section name(segment info)
    0   DCB   even  none     0      0  M$UC
    1   Data  even  none     4      4  THC$SELECT
    2  RoData even  UTS     12     14  THC$SELECT
    3   Proc  even  none  2132   4124  THC$SELECT
    4  RoData even  none    41     51  THC$SELECT

    ****  Entry defs  ****

                              Check   Calling
                             calling  sequence
  Sect OctLoc Primary Altret sequence   type   Parms  Name
     3      0   yes    yes     yes      Std        1  THC$SELECT

  ****  Entry refs  ****

         Check        Calling
        calling       sequence
Altret sequence SRef   type   Args  Name
         yes           Std       1 THM$ERRMSG
                       nStd      0 X66_AUTO_1
                       Std       0 B_CONSPOOL_D
                       nStd      0 X66_AALT
                       nStd      0 X66_INDEX
                       nStd      0 X66_ARET
PL6.E3A0      #007=THC$SELECT File=THC$COMMANDS.:E05TSI                          WED 07/30/97 06:11 Page:302

  ****  Data refs  ****

  Flags:  r = read only, s = secondary
Flgs Name                             Flgs Name                             Flgs Name
     M$UC                                  TH_CONSTRAINTS                        TH_DEFAULT
     TH_LAST_MATCH                         TH_LAST_EXCLUDE                       TH_RECOV
     TH_XSA_BUF_VECTOR                     VLP_SYSTAC                            TH_CHANGE_ACCOUNT
     TH_M_CHAN                             TH_M_CHAN_TOTAL                       P_PCB
     TH_OPEN_ERRLOG                        TH_VLP_ERRLOG                         B_VECTNIL

  ****  Segment refs  ****

  Flags:  r = read only, s = secondary
Flgs Name                             Flgs Name                             Flgs Name
     ISSID
PL6.E3A0      #007=THC$SELECT File=THC$COMMANDS.:E05TSI                          WED 07/30/97 06:11 Page:303


     1483        1        /*T***********************************************************/
     1484        2        /*T*                                                         */
     1485        3        /*T* Copyright (c) Bull HN Information Systems Inc., 1997    */
     1486        4        /*T*                                                         */
     1487        5        /*T***********************************************************/
     1488        6        THC$SELECT: PROC(TOP$) ALTRET;

      6  3 000000   000000 700200 xent  THC$SELECT   TSX0  ! X66_AUTO_1
         3 000001   000106 000001                    ZERO    70,1

     1489        7        /**/
     1490        8        /* PARAMS */
     1491        9    1   DCL TOP$ PTR;
     1492       10        /**/
     1493       11        /* INCLUDE FILES */
     1494       12        %INCLUDE CP_6;
     1495       93        %INCLUDE XU_MACRO_C;
     1496     3199        %INCLUDE TH_SUBS_C;
     1497     3581        %INCLUDE TH_DATA_R;
     1498     3659        %INCLUDE TH_PERR_C;
     1499     3700        %INCLUDE EL_SUBS_C;
     1500     3784        /**/
     1501     3785        /* ENTRY DEFS */
     1502     3786    1   DCL THM$ERRMSG ENTRY(1);
     1503     3787        /**/
     1504     3788        /* VARIABLES */
     1505     3789    1   DCL I SBIN;
     1506     3790    1   DCL J SBIN;
     1507     3791    1   DCL K SBIN;
     1508     3792    1   DCL SAVE_INDEX SBIN;
     1509     3793    1   DCL TEMP1 UBIN;
     1510     3794    1   DCL TEMP2 UBIN;
     1511     3795    1   DCL RECOV_TYPES (0:3) UBIN STATIC INIT(EL_SCREECH,EL_SUA,EL_SNAP,0);
     1512     3796    1   DCL TEXTBASE CHAR(P_PCB.NCHARS) BASED(P_PCB.TEXT$);
     1513     3797    1   DCL FOUND BIT(1);
     1514     3798    1   DCL BIT_SPEC BIT(1);
PL6.E3A0      #007=THC$SELECT File=THC$COMMANDS.:E05TSI                          WED 07/30/97 06:11 Page:304
     1515     3799    1   DCL BYTE_SPEC UBIN;
     1516     3800    1   DCL FIRST_BIT UBIN;
     1517     3801    1   DCL LAST_BIT UBIN;
     1518     3802    1   DCL INDX UBIN;
     1519     3803    1   DCL VALUE UBIN;
     1520     3804    1   DCL TEMP$ PTR;
     1521     3805    1   DCL MATCH_DEL BIT(1);
     1522     3806    1   DCL EXCLUDE_DEL BIT(1);
     1523     3807    1   DCL MAJOR UBIN(6) UNAL;
     1524     3808    1   DCL SUB CHAR(3);
     1525     3809    1   DCL SUBB(0:2) REDEF SUB CHAR(1);
     1526     3810    1   DCL SUB_BIN UBIN;
     1527     3811    1   DCL 1 SUB_BIT,
     1528     3812    1         2 ONE BIT(3),
     1529     3813    1         2 TWO BIT(3);
     1530     3814    1   DCL SUBB_BIT REDEF SUB_BIT BIT(6);
     1531     3815    1   DCL FI_ERR UBIN(9) UNAL;
     1532     3816    1   DCL MEDIA CHAR(6);
     1533     3817    1   DCL TEMP CHAR(8);
     1534     3818    1   DCL TEMPP(0:7) REDEF TEMP CHAR(1);
     1535     3819    1   DCL FEP_CODE CHAR(3);
     1536     3820    1   DCL FEP_CHAN CHAR(4);
     1537     3821    1   DCL FEP_CHAN_N CHAR(4);
     1538     3822    1   DCL MATCH_ADD BIT(1);
     1539     3823    1   DCL EXCLUDE_ADD BIT(1);
     1540     3824    1   DCL DEL_TEST CHAR(3);
     1541     3825    1   DCL JJ UBIN;
     1542     3826    1   DCL JCNT UBIN;
     1543     3827    1   DCL C_TEST CHAR(119) ;
     1544     3828        /**/
     1545     3829        /* MACRO INVOCATIONS */
     1546     3830        %PARSE$OUT (NAME=OUT$BLK,STCLASS="BASED(TOP$)");
     1547     3875        %PARSE$SYM (NAME=OUT$SYM,STCLASS="BASED");
     1548     3913        %P$PCB (NAME=P_PCB,STCLASS=SYMREF);
     1549     4114        %FPT_OPEN (FPTN=TH_OPEN_ERRLOG,
     1550     4115                   STCLASS=SYMREF);
     1551     4224        %VLP_NAME (FPTN=TH_VLP_ERRLOG,
PL6.E3A0      #007=THC$SELECT File=THC$COMMANDS.:E05TSI                          WED 07/30/97 06:11 Page:305
     1552     4225                   STCLASS=SYMREF,
     1553     4226                   LEN=15);
     1554     4253        /**/
     1555     4254        %EJECT;
PL6.E3A0      #007=THC$SELECT File=THC$COMMANDS.:E05TSI                          WED 07/30/97 06:11 Page:306
     1556     4255    2        DO CASE(OUT$BLK.CODE);

   4255  3 000002   200003 470500                    LDP0    @TOP$,,AUTO
         3 000003   000000 471500                    LDP1    0,,PR0
         3 000004   100000 720100                    LXL0    0,,PR1
         3 000005   000011 100003                    CMPX0   9,DU
         3 000006   000010 602010 3                  TNC     s:4255+6,X0
         3 000007   004123 710000 3                  TRA     s:5121
         3 000010   004123 710000 3                  TRA     s:5121
         3 000011   000021 710000 3                  TRA     s:4257
         3 000012   000144 710000 3                  TRA     s:4291
         3 000013   002114 710000 3                  TRA     s:4687
         3 000014   003726 710000 3                  TRA     s:5061
         3 000015   003731 710000 3                  TRA     s:5063
         3 000016   003734 710000 3                  TRA     s:5065
         3 000017   004123 710000 3                  TRA     s:5121
         3 000020   000021 710000 3                  TRA     s:4257

     1557     4256    2           CASE(%ERROR,%SELECT);

     1558     4257    2              I = 0;

   4257  3 000021   200004 450100                    STZ     I,,AUTO

     1559     4258    3              IF OUT$BLK.SUBLK$(0)->OUT$BLK.CODE ~= %PLUS THEN DO;

   4258  3 000022   100003 473500                    LDP3    3,,PR1
         3 000023   300000 721100                    LXL1    0,,PR3
         3 000024   000142 101003                    CMPX1   98,DU
         3 000025   000031 600000 3                  TZE     s:4262

     1560     4259    3                 TH_CONSTRAINTS.NTYPES = 0;

   4259  3 000026   000000 450000 xsym               STZ     TH_CONSTRAINTS

     1561     4260    3                 TH_RECOV = %FALSE;

PL6.E3A0      #007=THC$SELECT File=THC$COMMANDS.:E05TSI                          WED 07/30/97 06:11 Page:307
   4260  3 000027   000000 450000 xsym               STZ     TH_RECOV

     1562     4261    3                 END;  /* IF */

   4261  3 000030   000033 710000 3                  TRA     s:4263

     1563     4262    2                 ELSE I = 1;

   4262  3 000031   000001 235007                    LDA     1,DL
         3 000032   200004 755100                    STA     I,,AUTO

     1564     4263    3              DO I = I TO OUT$BLK.NSUBLKS - 1;

   4263  3 000033   000135 710000 3                  TRA     s:4288+1

     1565     4264    3                 IF OUT$BLK.SUBLK$(I)->OUT$BLK.CODE=0

   4264  3 000034   200003 470500                    LDP0    @TOP$,,AUTO
         3 000035   000000 471500                    LDP1    0,,PR0
         3 000036   200004 720100                    LXL0    I,,AUTO
         3 000037   100003 473510                    LDP3    3,X0,PR1
         3 000040   300000 721100                    LXL1    0,,PR3
         3 000041   000053 601000 3                  TNZ     s:4266

     1566     4265    3                    THEN CALL CHARBIN(VALUE,OUT$BLK.SUBLK$(I)->OUT$SYM.TEXT);

   4265  3 000042   300004 236100                    LDQ     4,,PR3
         3 000043   000033 772000                    QRL     27
         3 000044   000000 622006                    EAX2    0,QL
         3 000045   000100 305540                    DTB
         3 000046   300004 230012                    NDSC9   4,,PR3                   cn=1,s=nosgn,sf=0,n=*X2
         3 000047   200104 000010                    NDSC9   C_TEST+31,,AUTO          cn=0,s=lsgnf,sf=0,n=8
         3 000050   200105 235100                    LDA     C_TEST+32,,AUTO
         3 000051   200020 755100                    STA     VALUE,,AUTO
         3 000052   000056 710000 3                  TRA     s:4267

     1567     4266    3                    ELSE VALUE = OUT$BLK.SUBLK$(I)->OUT$BLK.CODE;
PL6.E3A0      #007=THC$SELECT File=THC$COMMANDS.:E05TSI                          WED 07/30/97 06:11 Page:308

   4266  3 000053   300000 236100                    LDQ     0,,PR3
         3 000054   777777 376007                    ANQ     -1,DL
         3 000055   200020 756100                    STQ     VALUE,,AUTO

     1568     4267    3                 RECOV_TYPES(3) = VALUE;

   4267  3 000056   200020 235100                    LDA     VALUE,,AUTO
         3 000057   000003 755000 1                  STA     RECOV_TYPES+3

     1569     4268    3                 TEMP1 = 3;

   4268  3 000060   000003 236007                    LDQ     3,DL
         3 000061   200010 756100                    STQ     TEMP1,,AUTO

     1570     4269    3                 TEMP2 = 3;

   4269  3 000062   200011 756100                    STQ     TEMP2,,AUTO

     1571     4270    4                 IF VALUE = %TH_RECOV THEN DO;

   4270  3 000063   000143 115007                    CMPA    99,DL
         3 000064   000072 601000 3                  TNZ     s:4275

     1572     4271    4                    TH_RECOV = %TRUE;

   4271  3 000065   400000 236003                    LDQ     -131072,DU
         3 000066   000000 756000 xsym               STQ     TH_RECOV

     1573     4272    4                    TEMP1 = 0;

   4272  3 000067   200010 450100                    STZ     TEMP1,,AUTO

     1574     4273    4                    TEMP2 = 2;

   4273  3 000070   000002 235007                    LDA     2,DL
         3 000071   200011 755100                    STA     TEMP2,,AUTO
PL6.E3A0      #007=THC$SELECT File=THC$COMMANDS.:E05TSI                          WED 07/30/97 06:11 Page:309

     1575     4274    4                    END;

     1576     4275    3          FOUND = '0'B;

   4275  3 000072   200012 450100                    STZ     FOUND,,AUTO

     1577     4276    4                 DO K = TEMP1 TO TEMP2;

   4276  3 000073   200010 235100                    LDA     TEMP1,,AUTO
         3 000074   200006 755100                    STA     K,,AUTO
         3 000075   000130 710000 3                  TRA     s:4287+1

     1578     4277    4                    VALUE = RECOV_TYPES(K);

   4277  3 000076   200006 720100                    LXL0    K,,AUTO
         3 000077   000000 235010 1                  LDA     RECOV_TYPES,X0
         3 000100   200020 755100                    STA     VALUE,,AUTO

     1579     4278    5                    DO J = 0 TO TH_CONSTRAINTS.NTYPES - 1;

   4278  3 000101   200005 450100                    STZ     J,,AUTO
         3 000102   000115 710000 3                  TRA     s:4281+1

     1580     4279    5                       IF TH_CONSTRAINTS.TYPES(J) = VALUE

   4279  3 000103   200005 235100                    LDA     J,,AUTO
         3 000104   000100 101405                    MRL     fill='000'O
         3 000105   000001 000001 xsym               ADSC9   TH_CONSTRAINTS+1,A       cn=0,n=1
         3 000106   200104 000004                    ADSC9   C_TEST+31,,AUTO          cn=0,n=4
         3 000107   200104 236100                    LDQ     C_TEST+31,,AUTO
         3 000110   200020 116100                    CMPQ    VALUE,,AUTO
         3 000111   000114 601000 3                  TNZ     s:4281

     1581     4280    5                          THEN FOUND = '1'B;

   4280  3 000112   400000 236003                    LDQ     -131072,DU
PL6.E3A0      #007=THC$SELECT File=THC$COMMANDS.:E05TSI                          WED 07/30/97 06:11 Page:310
         3 000113   200012 756100                    STQ     FOUND,,AUTO

     1582     4281    5                    END;                      /* DO J = 1 TO NTYPES                 */

   4281  3 000114   200005 054100                    AOS     J,,AUTO
         3 000115   200005 236100                    LDQ     J,,AUTO
         3 000116   000000 116000 xsym               CMPQ    TH_CONSTRAINTS
         3 000117   000103 604000 3                  TMI     s:4279

     1583     4282    4                    IF NOT FOUND

   4282  3 000120   200012 234100                    SZN     FOUND,,AUTO
         3 000121   000127 604000 3                  TMI     s:4287

     1584     4283    5                       THEN DO;

     1585     4284    5                         TH_CONSTRAINTS.TYPES(TH_CONSTRAINTS.NTYPES) = VALUE;

   4284  3 000122   000000 235000 xsym               LDA     TH_CONSTRAINTS
         3 000123   000005 101500                    MRL     fill='000'O
         3 000124   200020 000004                    ADSC9   VALUE,,AUTO              cn=0,n=4
         3 000125   000001 000001 xsym               ADSC9   TH_CONSTRAINTS+1,A       cn=0,n=1

     1586     4285    5                         TH_CONSTRAINTS.NTYPES = TH_CONSTRAINTS.NTYPES + 1;

   4285  3 000126   000000 054000 xsym               AOS     TH_CONSTRAINTS

     1587     4286    5                       END;                   /* IF NOT FOUND                       */

     1588     4287    4                    END;  /* DO K */

   4287  3 000127   200006 054100                    AOS     K,,AUTO
         3 000130   200011 236100                    LDQ     TEMP2,,AUTO
         3 000131   000076 604000 3                  TMI     s:4277
         3 000132   200006 116100                    CMPQ    K,,AUTO
         3 000133   000076 605000 3                  TPL     s:4277

PL6.E3A0      #007=THC$SELECT File=THC$COMMANDS.:E05TSI                          WED 07/30/97 06:11 Page:311
     1589     4288    3              END;                         /* DO I = 0 TO OUT$BLK.NSUBLKS-1      */

   4288  3 000134   200004 054100                    AOS     I,,AUTO
         3 000135   200003 470500                    LDP0    @TOP$,,AUTO
         3 000136   000000 471500                    LDP1    0,,PR0
         3 000137   100001 236100                    LDQ     1,,PR1
         3 000140   000022 772000                    QRL     18
         3 000141   200004 116100                    CMPQ    I,,AUTO
         3 000142   000034 605400 3                  TPNZ    s:4264
         3 000143   004123 710000 3                  TRA     s:5121

     1590     4289    2            CASE (%MATCH);

     1591     4290                                               /* PROCESS MATCH COMMAND           */
     1592     4291    2              MATCH_DEL = %NO;

   4291  3 000144   200022 450100                    STZ     MATCH_DEL,,AUTO

     1593     4292    2            MATCH_ADD = %NO;

   4292  3 000145   200040 450100                    STZ     MATCH_ADD,,AUTO

     1594     4293    2              IF OUT$BLK.SUBLK$(0)->OUT$BLK.CODE = %DELETEE

   4293  3 000146   100003 473500                    LDP3    3,,PR1
         3 000147   300000 721100                    LXL1    0,,PR3
         3 000150   000026 101003                    CMPX1   22,DU
         3 000151   000157 601000 3                  TNZ     s:4299

     1595     4294    3                 THEN DO;

     1596     4295    3                      MATCH_DEL = %YES;

   4295  3 000152   400000 236003                    LDQ     -131072,DU
         3 000153   200022 756100                    STQ     MATCH_DEL,,AUTO

     1597     4296    3                      J = 1;
PL6.E3A0      #007=THC$SELECT File=THC$COMMANDS.:E05TSI                          WED 07/30/97 06:11 Page:312

   4296  3 000154   000001 235007                    LDA     1,DL
         3 000155   200005 755100                    STA     J,,AUTO

     1598     4297    3                      END;

   4297  3 000156   000211 710000 3                  TRA     s:4316

     1599     4298    2                 ELSE
     1600     4299    2                      IF OUT$BLK.SUBLK$(0)->OUT$BLK.CODE = %ADDD

   4299  3 000157   000013 101003                    CMPX1   11,DU
         3 000160   000166 601000 3                  TNZ     s:4305

     1601     4300    3                           THEN DO;

     1602     4301    3                                J = 1;

   4301  3 000161   000001 235007                    LDA     1,DL
         3 000162   200005 755100                    STA     J,,AUTO

     1603     4302    3                                MATCH_ADD = %YES;

   4302  3 000163   400000 236003                    LDQ     -131072,DU
         3 000164   200040 756100                    STQ     MATCH_ADD,,AUTO

     1604     4303    3                                END;

   4303  3 000165   000211 710000 3                  TRA     s:4316

     1605     4304    3                           ELSE DO;

     1606     4305    3                                J = 0;

   4305  3 000166   200005 450100                    STZ     J,,AUTO

     1607     4306    3                                TH_CONSTRAINTS.M_BY_B_SET = %NO;
PL6.E3A0      #007=THC$SELECT File=THC$COMMANDS.:E05TSI                          WED 07/30/97 06:11 Page:313

   4306  3 000167   003000 060400                    CSL     bolr='003'O
         3 000170   000002 000011 xsym               BDSC    B_VECTNIL+2              by=0,bit=0,n=9
         3 000171   000026 010440 xsym               BDSC    TH_CONSTRAINTS+22        by=0,bit=1,n=288

     1608     4307    3                                TH_CONSTRAINTS.M_MAJ_S = %NO;

   4307  3 000172   000000 236000 4                  LDQ     0
         3 000173   000014 356000 xsym               ANSQ    TH_CONSTRAINTS+12

     1609     4308    3                                TH_CONSTRAINTS.M_SUB_S = %NO;

   4308  3 000174   000001 236000 4                  LDQ     1
         3 000175   000014 356000 xsym               ANSQ    TH_CONSTRAINTS+12

     1610     4309    3                                TH_CONSTRAINTS.M_MED_S = %NO;

   4309  3 000176   000031 236000 xsym               LDQ     B_VECTNIL+25
         3 000177   000016 356000 xsym               ANSQ    TH_CONSTRAINTS+14

     1611     4310    3                                TH_CONSTRAINTS.M_FEP_SET = %NO;

   4310  3 000200   000061 356000 xsym               ANSQ    TH_CONSTRAINTS+49

     1612     4311    3                                TH_CONSTRAINTS.M_CHAN_SET = %NO;

   4311  3 000201   000002 236000 4                  LDQ     2
         3 000202   000062 356000 xsym               ANSQ    TH_CONSTRAINTS+50

     1613     4312    3                                TH_CONSTRAINTS.M_COD_SET = %NO;

   4312  3 000203   000003 236000 4                  LDQ     3
         3 000204   000065 356000 xsym               ANSQ    TH_CONSTRAINTS+53

     1614     4313    3                                TH_CONSTRAINTS.M_REA_SET = %NO;

   4313  3 000205   000004 236000 4                  LDQ     4
PL6.E3A0      #007=THC$SELECT File=THC$COMMANDS.:E05TSI                          WED 07/30/97 06:11 Page:314
         3 000206   000065 356000 xsym               ANSQ    TH_CONSTRAINTS+53

     1615     4314    3                                TH_CONSTRAINTS.M_ACT_SET = %NO;

   4314  3 000207   000005 236000 4                  LDQ     5
         3 000210   000065 356000 xsym               ANSQ    TH_CONSTRAINTS+53

     1616     4315    3                                END;

     1617     4316    3              DO I = J TO OUT$BLK.NSUBLKS - 1;

   4316  3 000211   200005 235100                    LDA     J,,AUTO
         3 000212   200004 755100                    STA     I,,AUTO
         3 000213   001754 710000 3                  TRA     s:4659+1

     1618     4317    3                 TEMP$ = OUT$BLK.SUBLK$(I)->OUT$BLK.SUBLK$(0);

   4317  3 000214   200003 470500                    LDP0    @TOP$,,AUTO
         3 000215   000000 471500                    LDP1    0,,PR0
         3 000216   200004 720100                    LXL0    I,,AUTO
         3 000217   100003 473510                    LDP3    3,X0,PR1
         3 000220   300003 236100                    LDQ     3,,PR3
         3 000221   200021 756100                    STQ     TEMP$,,AUTO

     1619     4318    4                 DO CASE(TEMP$->OUT$BLK.CODE);

   4318  3 000222   200021 474500                    LDP4    TEMP$,,AUTO
         3 000223   400000 721100                    LXL1    0,,PR4
         3 000224   000012 101003                    CMPX1   10,DU
         3 000225   000227 602011 3                  TNC     s:4318+5,X1
         3 000226   001565 710000 3                  TRA     s:4614
         3 000227   001565 710000 3                  TRA     s:4614
         3 000230   000241 710000 3                  TRA     s:4320
         3 000231   000345 710000 3                  TRA     s:4348
         3 000232   000763 710000 3                  TRA     s:4440
         3 000233   001032 710000 3                  TRA     s:4455
         3 000234   001275 710000 3                  TRA     s:4527
PL6.E3A0      #007=THC$SELECT File=THC$COMMANDS.:E05TSI                          WED 07/30/97 06:11 Page:315
         3 000235   001352 710000 3                  TRA     s:4545
         3 000236   000471 710000 3                  TRA     s:4377
         3 000237   000575 710000 3                  TRA     s:4400
         3 000240   000701 710000 3                  TRA     s:4423

     1620     4319    4                    CASE(%MAJ);

     1621     4320    4                      IF TEMP$->OUT$BLK.SUBLK$(0)->OUT$SYM.COUNT = 2

   4320  3 000241   400003 475500                    LDP5    3,,PR4
         3 000242   500004 236100                    LDQ     4,,PR5
         3 000243   777000 376003                    ANQ     -512,DU
         3 000244   002000 116003                    CMPQ    1024,DU
         3 000245   000273 601000 3                  TNZ     s:4330

     1622     4321    5                        THEN DO;

     1623     4322    5                           SUB = TEMP$->OUT$BLK.SUBLK$(0)->OUT$SYM.TEXT;

   4322  3 000246   500004 236100                    LDQ     4,,PR5
         3 000247   000033 772000                    QRL     27
         3 000250   000000 622006                    EAX2    0,QL
         3 000251   040100 100540                    MLR     fill='040'O
         3 000252   500004 200012                    ADSC9   4,,PR5                   cn=1,n=*X2
         3 000253   200025 000003                    ADSC9   SUB,,AUTO                cn=0,n=3

     1624     4323    5                           CALL CHARBIN(SUB_BIN,SUBB(0));

   4323  3 000254   000100 305500                    DTB
         3 000255   200025 030001                    NDSC9   SUB,,AUTO                cn=0,s=nosgn,sf=0,n=1
         3 000256   200026 000004                    NDSC9   SUB_BIN,,AUTO            cn=0,s=lsgnf,sf=0,n=4

     1625     4324    5                           VALUE = SUB_BIN * 8;

   4324  3 000257   200026 235100                    LDA     SUB_BIN,,AUTO
         3 000260   000003 735000                    ALS     3
         3 000261   200020 755100                    STA     VALUE,,AUTO
PL6.E3A0      #007=THC$SELECT File=THC$COMMANDS.:E05TSI                          WED 07/30/97 06:11 Page:316

     1626     4325    5                           CALL CHARBIN(SUB_BIN,SUBB(1));

   4325  3 000262   000100 305500                    DTB
         3 000263   200025 230001                    NDSC9   SUB,,AUTO                cn=1,s=nosgn,sf=0,n=1
         3 000264   200026 000004                    NDSC9   SUB_BIN,,AUTO            cn=0,s=lsgnf,sf=0,n=4

     1627     4326    5                           VALUE = VALUE + SUB_BIN;

   4326  3 000265   200020 236100                    LDQ     VALUE,,AUTO
         3 000266   200026 036100                    ADLQ    SUB_BIN,,AUTO
         3 000267   200020 756100                    STQ     VALUE,,AUTO

     1628     4327    5                           MAJOR = VALUE;

   4327  3 000270   000036 736000                    QLS     30
         3 000271   200024 756100                    STQ     MAJOR,,AUTO

     1629     4328    5                           END;

   4328  3 000272   000305 710000 3                  TRA     s:4334

     1630     4329    5                        ELSE DO;

     1631     4330    5                           CALL CHARBIN(VALUE,TEMP$->OUT$BLK.SUBLK$(0)

   4330  3 000273   500004 236100                    LDQ     4,,PR5
         3 000274   000033 772000                    QRL     27
         3 000275   000000 622006                    EAX2    0,QL
         3 000276   000100 305540                    DTB
         3 000277   500004 230012                    NDSC9   4,,PR5                   cn=1,s=nosgn,sf=0,n=*X2
         3 000300   200104 000010                    NDSC9   C_TEST+31,,AUTO          cn=0,s=lsgnf,sf=0,n=8
         3 000301   200105 235100                    LDA     C_TEST+32,,AUTO
         3 000302   200020 755100                    STA     VALUE,,AUTO

     1632     4331    5                                        ->OUT$SYM.TEXT);
     1633     4332    5                           MAJOR = VALUE;
PL6.E3A0      #007=THC$SELECT File=THC$COMMANDS.:E05TSI                          WED 07/30/97 06:11 Page:317

   4332  3 000303   000036 735000                    ALS     30
         3 000304   200024 755100                    STA     MAJOR,,AUTO

     1634     4333    5                           END;

     1635     4334    4                      IF MATCH_DEL

   4334  3 000305   200022 234100                    SZN     MATCH_DEL,,AUTO
         3 000306   000334 605000 3                  TPL     s:4343

     1636     4335    4                        THEN
     1637     4336    4                          IF ((TH_CONSTRAINTS.M_MAJ_S) & (MAJOR=TH_CONSTRAINTS.M_MAJ))

   4336  3 000307   400000 221003                    LDX1    -131072,DU
         3 000310   200024 236100                    LDQ     MAJOR,,AUTO
         3 000311   000014 676000 xsym               ERQ     TH_CONSTRAINTS+12
         3 000312   770000 376003                    ANQ     -4096,DU
         3 000313   000315 600000 3                  TZE     s:4336+6
         3 000314   000000 221003                    LDX1    0,DU
         3 000315   000014 236000 xsym               LDQ     TH_CONSTRAINTS+12
         3 000316   000006 736000                    QLS     6
         3 000317   400000 376003                    ANQ     -131072,DU
         3 000320   200104 756100                    STQ     C_TEST+31,,AUTO
         3 000321   000000 636011                    EAQ     0,X1
         3 000322   200104 376100                    ANQ     C_TEST+31,,AUTO
         3 000323   000327 600000 3                  TZE     s:4339

     1638     4337    4                             THEN TH_CONSTRAINTS.M_MAJ_S = %NO;

   4337  3 000324   000000 236000 4                  LDQ     0
         3 000325   000014 356000 xsym               ANSQ    TH_CONSTRAINTS+12
         3 000326   000340 710000 3                  TRA     s:4346

     1639     4338    5                             ELSE DO;

     1640     4339    5                                  CALL THM$ERRMSG(%E$TH_BAD_MAJ);
PL6.E3A0      #007=THC$SELECT File=THC$COMMANDS.:E05TSI                          WED 07/30/97 06:11 Page:318

   4339  3 000327   000007 630400 4                  EPPR0   7
         3 000330   000017 631400 xsym               EPPR1   B_VECTNIL+15
         3 000331   000000 701000 xent               TSX1    THM$ERRMSG
         3 000332   000000 011000                    NOP     0

     1641     4340    5                                  ALTRETURN;

   4340  3 000333   000000 702200 xent               TSX2  ! X66_AALT

     1642     4341    5                                  END;
     1643     4342    5                        ELSE DO;

     1644     4343    5                             TH_CONSTRAINTS.M_MAJ_S = %YES;

   4343  3 000334   004000 236003                    LDQ     2048,DU
         3 000335   000014 256000 xsym               ORSQ    TH_CONSTRAINTS+12

     1645     4344    5                             TH_CONSTRAINTS.M_MAJ = MAJOR;

   4344  3 000336   200024 236100                    LDQ     MAJOR,,AUTO
         3 000337   000014 752040 xsym               STCQ    TH_CONSTRAINTS+12,'40'O

     1646     4345    5                             END;

     1647     4346    4                      DEL_TEST = 'MAJ';

   4346  3 000340   000000 236000 2                  LDQ     0
         3 000341   000010 376000 4                  ANQ     8
         3 000342   000040 276007                    ORQ     32,DL
         3 000343   200042 756100                    STQ     DEL_TEST,,AUTO
         3 000344   001565 710000 3                  TRA     s:4614

     1648     4347    4                    CASE(%SUB);

     1649     4348    4                     IF TEMP$->OUT$BLK.SUBLK$(0)->OUT$SYM.COUNT = 2

PL6.E3A0      #007=THC$SELECT File=THC$COMMANDS.:E05TSI                          WED 07/30/97 06:11 Page:319
   4348  3 000345   400003 475500                    LDP5    3,,PR4
         3 000346   500004 236100                    LDQ     4,,PR5
         3 000347   777000 376003                    ANQ     -512,DU
         3 000350   002000 116003                    CMPQ    1024,DU
         3 000351   000402 601000 3                  TNZ     s:4357

     1650     4349    5                      THEN DO;

     1651     4350    5                      SUB = TEMP$->OUT$BLK.SUBLK$(0)->OUT$SYM.TEXT;

   4350  3 000352   500004 236100                    LDQ     4,,PR5
         3 000353   000033 772000                    QRL     27
         3 000354   000000 622006                    EAX2    0,QL
         3 000355   040100 100540                    MLR     fill='040'O
         3 000356   500004 200012                    ADSC9   4,,PR5                   cn=1,n=*X2
         3 000357   200025 000003                    ADSC9   SUB,,AUTO                cn=0,n=3

     1652     4351    5                      CALL CHARBIN(SUB_BIN,SUBB(0));

   4351  3 000360   000100 305500                    DTB
         3 000361   200025 030001                    NDSC9   SUB,,AUTO                cn=0,s=nosgn,sf=0,n=1
         3 000362   200026 000004                    NDSC9   SUB_BIN,,AUTO            cn=0,s=lsgnf,sf=0,n=4

     1653     4352    5                      SUB_BIT.ONE = BINBIT(SUB_BIN,3);

   4352  3 000363   200026 236100                    LDQ     SUB_BIN,,AUTO
         3 000364   000041 736000                    QLS     33
         3 000365   200027 676100                    ERQ     SUB_BIT,,AUTO
         3 000366   700000 376003                    ANQ     -32768,DU
         3 000367   200027 656100                    ERSQ    SUB_BIT,,AUTO

     1654     4353    5                      CALL CHARBIN(SUB_BIN,SUBB(1));

   4353  3 000370   000100 305500                    DTB
         3 000371   200025 230001                    NDSC9   SUB,,AUTO                cn=1,s=nosgn,sf=0,n=1
         3 000372   200026 000004                    NDSC9   SUB_BIN,,AUTO            cn=0,s=lsgnf,sf=0,n=4

PL6.E3A0      #007=THC$SELECT File=THC$COMMANDS.:E05TSI                          WED 07/30/97 06:11 Page:320
     1655     4354    5                      SUB_BIT.TWO = BINBIT(SUB_BIN,3);

   4354  3 000373   200026 236100                    LDQ     SUB_BIN,,AUTO
         3 000374   000041 736000                    QLS     33
         3 000375   000003 772000                    QRL     3
         3 000376   200027 676100                    ERQ     SUB_BIT,,AUTO
         3 000377   070000 376003                    ANQ     28672,DU
         3 000400   200027 656100                    ERSQ    SUB_BIT,,AUTO

     1656     4355    5                      END;

   4355  3 000401   000426 710000 3                  TRA     s:4363

     1657     4356    5                      ELSE DO;

     1658     4357    5                           SUB_BIN = 0;

   4357  3 000402   200026 450100                    STZ     SUB_BIN,,AUTO

     1659     4358    5                           SUB_BIT.ONE = BINBIT(SUB_BIN,3);

   4358  3 000403   200026 236100                    LDQ     SUB_BIN,,AUTO
         3 000404   000041 736000                    QLS     33
         3 000405   200027 676100                    ERQ     SUB_BIT,,AUTO
         3 000406   700000 376003                    ANQ     -32768,DU
         3 000407   200027 656100                    ERSQ    SUB_BIT,,AUTO

     1660     4359    5                           CALL CHARBIN(SUB_BIN,TEMP$->OUT$BLK.SUBLK$(0)

   4359  3 000410   500004 236100                    LDQ     4,,PR5
         3 000411   000033 772000                    QRL     27
         3 000412   000000 622006                    EAX2    0,QL
         3 000413   000100 305540                    DTB
         3 000414   500004 230012                    NDSC9   4,,PR5                   cn=1,s=nosgn,sf=0,n=*X2
         3 000415   200104 000010                    NDSC9   C_TEST+31,,AUTO          cn=0,s=lsgnf,sf=0,n=8
         3 000416   200105 235100                    LDA     C_TEST+32,,AUTO
         3 000417   200026 755100                    STA     SUB_BIN,,AUTO
PL6.E3A0      #007=THC$SELECT File=THC$COMMANDS.:E05TSI                          WED 07/30/97 06:11 Page:321

     1661     4360    5                                        ->OUT$SYM.TEXT);
     1662     4361    5                           SUB_BIT.TWO = BINBIT(SUB_BIN,3);

   4361  3 000420   200026 236100                    LDQ     SUB_BIN,,AUTO
         3 000421   000041 736000                    QLS     33
         3 000422   000003 772000                    QRL     3
         3 000423   200027 676100                    ERQ     SUB_BIT,,AUTO
         3 000424   070000 376003                    ANQ     28672,DU
         3 000425   200027 656100                    ERSQ    SUB_BIT,,AUTO

     1663     4362    5                           END;

     1664     4363    4                      IF MATCH_DEL

   4363  3 000426   200022 234100                    SZN     MATCH_DEL,,AUTO
         3 000427   000455 605000 3                  TPL     s:4372

     1665     4364    4                        THEN
     1666     4365    4                          IF ((TH_CONSTRAINTS.M_SUB_S)&(SUBB_BIT=TH_CONSTRAINTS.M_SUB)
              4365                                    )

   4365  3 000430   400000 221003                    LDX1    -131072,DU
         3 000431   000000 066500                    CMPB    filb='0'B
         3 000432   200027 000006                    BDSC    SUB_BIT,,AUTO            by=0,bit=0,n=6
         3 000433   000014 070006 xsym               BDSC    TH_CONSTRAINTS+12        by=0,bit=7,n=6
         3 000434   000436 600000 3                  TZE     s:4365+6
         3 000435   000000 221003                    LDX1    0,DU
         3 000436   000014 236000 xsym               LDQ     TH_CONSTRAINTS+12
         3 000437   000015 736000                    QLS     13
         3 000440   400000 376003                    ANQ     -131072,DU
         3 000441   200104 756100                    STQ     C_TEST+31,,AUTO
         3 000442   000000 636011                    EAQ     0,X1
         3 000443   200104 376100                    ANQ     C_TEST+31,,AUTO
         3 000444   000450 600000 3                  TZE     s:4368

     1667     4366    4                             THEN TH_CONSTRAINTS.M_SUB_S = %NO;
PL6.E3A0      #007=THC$SELECT File=THC$COMMANDS.:E05TSI                          WED 07/30/97 06:11 Page:322

   4366  3 000445   000001 236000 4                  LDQ     1
         3 000446   000014 356000 xsym               ANSQ    TH_CONSTRAINTS+12
         3 000447   000464 710000 3                  TRA     s:4375

     1668     4367    5                             ELSE DO;

     1669     4368    5                                  CALL THM$ERRMSG(%E$TH_BAD_SUB);

   4368  3 000450   000012 630400 4                  EPPR0   10
         3 000451   000017 631400 xsym               EPPR1   B_VECTNIL+15
         3 000452   000000 701000 xent               TSX1    THM$ERRMSG
         3 000453   000000 011000                    NOP     0

     1670     4369    5                                  ALTRETURN;

   4369  3 000454   000000 702200 xent               TSX2  ! X66_AALT

     1671     4370    5                                  END;
     1672     4371    5                        ELSE DO;

     1673     4372    5                           TH_CONSTRAINTS.M_SUB_S = %YES;

   4372  3 000455   000020 236003                    LDQ     16,DU
         3 000456   000014 256000 xsym               ORSQ    TH_CONSTRAINTS+12

     1674     4373    5                           TH_CONSTRAINTS.M_SUB = SUBB_BIT;

   4373  3 000457   200027 236100                    LDQ     SUB_BIT,,AUTO
         3 000460   000007 772000                    QRL     7
         3 000461   000014 676000 xsym               ERQ     TH_CONSTRAINTS+12
         3 000462   003740 376003                    ANQ     2016,DU
         3 000463   000014 656000 xsym               ERSQ    TH_CONSTRAINTS+12

     1675     4374    5                           END;

     1676     4375    4                      DEL_TEST = 'SUB';
PL6.E3A0      #007=THC$SELECT File=THC$COMMANDS.:E05TSI                          WED 07/30/97 06:11 Page:323

   4375  3 000464   000001 236000 2                  LDQ     1
         3 000465   000010 376000 4                  ANQ     8
         3 000466   000040 276007                    ORQ     32,DL
         3 000467   200042 756100                    STQ     DEL_TEST,,AUTO
         3 000470   001565 710000 3                  TRA     s:4614

     1677     4376    4                    CASE(%COD);

     1678     4377    4                      VALUE = 0;

   4377  3 000471   200020 450100                    STZ     VALUE,,AUTO

     1679     4378    4                      SUB = TEMP$->OUT$BLK.SUBLK$(0)->OUT$SYM.TEXT;

   4378  3 000472   400003 475500                    LDP5    3,,PR4
         3 000473   500004 236100                    LDQ     4,,PR5
         3 000474   000033 772000                    QRL     27
         3 000475   000000 622006                    EAX2    0,QL
         3 000476   040100 100540                    MLR     fill='040'O
         3 000477   500004 200012                    ADSC9   4,,PR5                   cn=1,n=*X2
         3 000500   200025 000003                    ADSC9   SUB,,AUTO                cn=0,n=3

     1680     4379    5                      DO K = 0 TO TEMP$->OUT$BLK.SUBLK$(0)->OUT$SYM.COUNT - 1;

   4379  3 000501   200006 450100                    STZ     K,,AUTO
         3 000502   000515 710000 3                  TRA     s:4383+1

     1681     4380    5                         VALUE = VALUE * 10;

   4380  3 000503   200020 236100                    LDQ     VALUE,,AUTO
         3 000504   000012 402007                    MPY     10,DL
         3 000505   200020 756100                    STQ     VALUE,,AUTO

     1682     4381    5                         CALL CHARBIN(SUB_BIN,SUBB(K));

   4381  3 000506   200006 235100                    LDA     K,,AUTO
PL6.E3A0      #007=THC$SELECT File=THC$COMMANDS.:E05TSI                          WED 07/30/97 06:11 Page:324
         3 000507   000100 305505                    DTB
         3 000510   200025 030001                    NDSC9   SUB,A,AUTO               cn=0,s=nosgn,sf=0,n=1
         3 000511   200026 000004                    NDSC9   SUB_BIN,,AUTO            cn=0,s=lsgnf,sf=0,n=4

     1683     4382    5                         VALUE = VALUE + SUB_BIN;

   4382  3 000512   200026 036100                    ADLQ    SUB_BIN,,AUTO
         3 000513   200020 756100                    STQ     VALUE,,AUTO

     1684     4383    5                      END;

   4383  3 000514   200006 054100                    AOS     K,,AUTO
         3 000515   200021 470500                    LDP0    TEMP$,,AUTO
         3 000516   000003 471500                    LDP1    3,,PR0
         3 000517   100004 236100                    LDQ     4,,PR1
         3 000520   000033 772000                    QRL     27
         3 000521   200006 116100                    CMPQ    K,,AUTO
         3 000522   000503 605400 3                  TPNZ    s:4380

     1685     4384    4                      FI_ERR = VALUE;

   4384  3 000523   200020 235100                    LDA     VALUE,,AUTO
         3 000524   000033 735000                    ALS     27
         3 000525   200030 755100                    STA     FI_ERR,,AUTO

     1686     4385    4                      IF MATCH_DEL

   4385  3 000526   200022 234100                    SZN     MATCH_DEL,,AUTO
         3 000527   000561 605000 3                  TPL     s:4395

     1687     4386    4                         THEN
     1688     4387    4                           IF ((TH_CONSTRAINTS.M_COD_SET) &

   4387  3 000530   400000 220003                    LDX0    -131072,DU
         3 000531   000065 236000 xsym               LDQ     TH_CONSTRAINTS+53
         3 000532   000032 772000                    QRL     26
         3 000533   000777 376007                    ANQ     511,DL
PL6.E3A0      #007=THC$SELECT File=THC$COMMANDS.:E05TSI                          WED 07/30/97 06:11 Page:325
         3 000534   200104 756100                    STQ     C_TEST+31,,AUTO
         3 000535   200030 236100                    LDQ     FI_ERR,,AUTO
         3 000536   000033 772000                    QRL     27
         3 000537   200104 116100                    CMPQ    C_TEST+31,,AUTO
         3 000540   000542 600000 3                  TZE     s:4387+10
         3 000541   000000 220003                    LDX0    0,DU
         3 000542   000065 236000 xsym               LDQ     TH_CONSTRAINTS+53
         3 000543   000012 736000                    QLS     10
         3 000544   400000 376003                    ANQ     -131072,DU
         3 000545   200105 756100                    STQ     C_TEST+32,,AUTO
         3 000546   000000 636010                    EAQ     0,X0
         3 000547   200105 376100                    ANQ     C_TEST+32,,AUTO
         3 000550   000554 600000 3                  TZE     s:4391

     1689     4388    4                               (FI_ERR = TH_CONSTRAINTS.M_COD))
     1690     4389    4                               THEN TH_CONSTRAINTS.M_COD_SET = %NO;

   4389  3 000551   000003 236000 4                  LDQ     3
         3 000552   000065 356000 xsym               ANSQ    TH_CONSTRAINTS+53
         3 000553   000570 710000 3                  TRA     s:4398

     1691     4390    5                               ELSE DO;

     1692     4391    5                                 CALL THM$ERRMSG(%E$TH_BAD_COD);

   4391  3 000554   000014 630400 4                  EPPR0   12
         3 000555   000017 631400 xsym               EPPR1   B_VECTNIL+15
         3 000556   000000 701000 xent               TSX1    THM$ERRMSG
         3 000557   000000 011000                    NOP     0

     1693     4392    5                                 ALTRETURN;

   4392  3 000560   000000 702200 xent               TSX2  ! X66_AALT

     1694     4393    5                               END;
     1695     4394    5                         ELSE DO;

PL6.E3A0      #007=THC$SELECT File=THC$COMMANDS.:E05TSI                          WED 07/30/97 06:11 Page:326
     1696     4395    5                           TH_CONSTRAINTS.M_COD_SET = %YES;

   4395  3 000561   000200 236003                    LDQ     128,DU
         3 000562   000065 256000 xsym               ORSQ    TH_CONSTRAINTS+53

     1697     4396    5                           TH_CONSTRAINTS.M_COD = FI_ERR;

   4396  3 000563   200030 236100                    LDQ     FI_ERR,,AUTO
         3 000564   000001 772000                    QRL     1
         3 000565   000065 676000 xsym               ERQ     TH_CONSTRAINTS+53
         3 000566   377400 376003                    ANQ     130816,DU
         3 000567   000065 656000 xsym               ERSQ    TH_CONSTRAINTS+53

     1698     4397    5                         END;

     1699     4398    4                         DEL_TEST = 'COD';

   4398  3 000570   000002 236000 2                  LDQ     2
         3 000571   000010 376000 4                  ANQ     8
         3 000572   000040 276007                    ORQ     32,DL
         3 000573   200042 756100                    STQ     DEL_TEST,,AUTO
         3 000574   001565 710000 3                  TRA     s:4614

     1700     4399    4                    CASE(%REA);

     1701     4400    4                      VALUE = 0;

   4400  3 000575   200020 450100                    STZ     VALUE,,AUTO

     1702     4401    4                      SUB = TEMP$->OUT$BLK.SUBLK$(0)->OUT$SYM.TEXT;

   4401  3 000576   400003 475500                    LDP5    3,,PR4
         3 000577   500004 236100                    LDQ     4,,PR5
         3 000600   000033 772000                    QRL     27
         3 000601   000000 622006                    EAX2    0,QL
         3 000602   040100 100540                    MLR     fill='040'O
         3 000603   500004 200012                    ADSC9   4,,PR5                   cn=1,n=*X2
PL6.E3A0      #007=THC$SELECT File=THC$COMMANDS.:E05TSI                          WED 07/30/97 06:11 Page:327
         3 000604   200025 000003                    ADSC9   SUB,,AUTO                cn=0,n=3

     1703     4402    5                      DO K = 0 TO TEMP$->OUT$BLK.SUBLK$(0)->OUT$SYM.COUNT - 1;

   4402  3 000605   200006 450100                    STZ     K,,AUTO
         3 000606   000621 710000 3                  TRA     s:4406+1

     1704     4403    5                         VALUE = VALUE * 10;

   4403  3 000607   200020 236100                    LDQ     VALUE,,AUTO
         3 000610   000012 402007                    MPY     10,DL
         3 000611   200020 756100                    STQ     VALUE,,AUTO

     1705     4404    5                         CALL CHARBIN(SUB_BIN,SUBB(K));

   4404  3 000612   200006 235100                    LDA     K,,AUTO
         3 000613   000100 305505                    DTB
         3 000614   200025 030001                    NDSC9   SUB,A,AUTO               cn=0,s=nosgn,sf=0,n=1
         3 000615   200026 000004                    NDSC9   SUB_BIN,,AUTO            cn=0,s=lsgnf,sf=0,n=4

     1706     4405    5                         VALUE = VALUE + SUB_BIN;

   4405  3 000616   200026 036100                    ADLQ    SUB_BIN,,AUTO
         3 000617   200020 756100                    STQ     VALUE,,AUTO

     1707     4406    5                      END;

   4406  3 000620   200006 054100                    AOS     K,,AUTO
         3 000621   200021 470500                    LDP0    TEMP$,,AUTO
         3 000622   000003 471500                    LDP1    3,,PR0
         3 000623   100004 236100                    LDQ     4,,PR1
         3 000624   000033 772000                    QRL     27
         3 000625   200006 116100                    CMPQ    K,,AUTO
         3 000626   000607 605400 3                  TPNZ    s:4403

     1708     4407    4                      FI_ERR = VALUE;

PL6.E3A0      #007=THC$SELECT File=THC$COMMANDS.:E05TSI                          WED 07/30/97 06:11 Page:328
   4407  3 000627   200020 235100                    LDA     VALUE,,AUTO
         3 000630   000033 735000                    ALS     27
         3 000631   200030 755100                    STA     FI_ERR,,AUTO

     1709     4408    4                      IF MATCH_DEL

   4408  3 000632   200022 234100                    SZN     MATCH_DEL,,AUTO
         3 000633   000665 605000 3                  TPL     s:4418

     1710     4409    4                         THEN
     1711     4410    4                           IF ((TH_CONSTRAINTS.M_REA_SET) &

   4410  3 000634   400000 220003                    LDX0    -131072,DU
         3 000635   000065 236000 xsym               LDQ     TH_CONSTRAINTS+53
         3 000636   000020 772000                    QRL     16
         3 000637   000777 376007                    ANQ     511,DL
         3 000640   200104 756100                    STQ     C_TEST+31,,AUTO
         3 000641   200030 236100                    LDQ     FI_ERR,,AUTO
         3 000642   000033 772000                    QRL     27
         3 000643   200104 116100                    CMPQ    C_TEST+31,,AUTO
         3 000644   000646 600000 3                  TZE     s:4410+10
         3 000645   000000 220003                    LDX0    0,DU
         3 000646   000065 236000 xsym               LDQ     TH_CONSTRAINTS+53
         3 000647   000024 736000                    QLS     20
         3 000650   400000 376003                    ANQ     -131072,DU
         3 000651   200105 756100                    STQ     C_TEST+32,,AUTO
         3 000652   000000 636010                    EAQ     0,X0
         3 000653   200105 376100                    ANQ     C_TEST+32,,AUTO
         3 000654   000660 600000 3                  TZE     s:4414

     1712     4411    4                               (FI_ERR = TH_CONSTRAINTS.M_REA))
     1713     4412    4                               THEN TH_CONSTRAINTS.M_REA_SET = %NO;

   4412  3 000655   000004 236000 4                  LDQ     4
         3 000656   000065 356000 xsym               ANSQ    TH_CONSTRAINTS+53
         3 000657   000674 710000 3                  TRA     s:4421

PL6.E3A0      #007=THC$SELECT File=THC$COMMANDS.:E05TSI                          WED 07/30/97 06:11 Page:329
     1714     4413    5                               ELSE DO;

     1715     4414    5                                 CALL THM$ERRMSG(%E$TH_BAD_REA);

   4414  3 000660   000016 630400 4                  EPPR0   14
         3 000661   000017 631400 xsym               EPPR1   B_VECTNIL+15
         3 000662   000000 701000 xent               TSX1    THM$ERRMSG
         3 000663   000000 011000                    NOP     0

     1716     4415    5                                 ALTRETURN;

   4415  3 000664   000000 702200 xent               TSX2  ! X66_AALT

     1717     4416    5                               END;
     1718     4417    5                         ELSE DO;

     1719     4418    5                           TH_CONSTRAINTS.M_REA_SET = %YES;

   4418  3 000665   100000 236007                    LDQ     32768,DL
         3 000666   000065 256000 xsym               ORSQ    TH_CONSTRAINTS+53

     1720     4419    5                           TH_CONSTRAINTS.M_REA = FI_ERR;

   4419  3 000667   200030 236100                    LDQ     FI_ERR,,AUTO
         3 000670   000013 772000                    QRL     11
         3 000671   000065 676000 xsym               ERQ     TH_CONSTRAINTS+53
         3 000672   000017 376000 4                  ANQ     15
         3 000673   000065 656000 xsym               ERSQ    TH_CONSTRAINTS+53

     1721     4420    5                         END;

     1722     4421    4                         DEL_TEST = 'REA';

   4421  3 000674   000003 236000 2                  LDQ     3
         3 000675   000010 376000 4                  ANQ     8
         3 000676   000040 276007                    ORQ     32,DL
         3 000677   200042 756100                    STQ     DEL_TEST,,AUTO
PL6.E3A0      #007=THC$SELECT File=THC$COMMANDS.:E05TSI                          WED 07/30/97 06:11 Page:330
         3 000700   001565 710000 3                  TRA     s:4614

     1723     4422    4                    CASE(%ACT);

     1724     4423    4                      CALL CHARBIN(VALUE,TEMP$->OUT$BLK.SUBLK$(0)->OUT$SYM.TEXT);

   4423  3 000701   400003 475500                    LDP5    3,,PR4
         3 000702   500004 236100                    LDQ     4,,PR5
         3 000703   000033 772000                    QRL     27
         3 000704   000000 622006                    EAX2    0,QL
         3 000705   000100 305540                    DTB
         3 000706   500004 230012                    NDSC9   4,,PR5                   cn=1,s=nosgn,sf=0,n=*X2
         3 000707   200104 000010                    NDSC9   C_TEST+31,,AUTO          cn=0,s=lsgnf,sf=0,n=8
         3 000710   200105 235100                    LDA     C_TEST+32,,AUTO
         3 000711   200020 755100                    STA     VALUE,,AUTO

     1725     4424    4                      FI_ERR = VALUE;

   4424  3 000712   000033 735000                    ALS     27
         3 000713   200030 755100                    STA     FI_ERR,,AUTO

     1726     4425    4                      IF MATCH_DEL

   4425  3 000714   200022 234100                    SZN     MATCH_DEL,,AUTO
         3 000715   000747 605000 3                  TPL     s:4435

     1727     4426    4                         THEN
     1728     4427    4                           IF ((TH_CONSTRAINTS.M_ACT_SET) &

   4427  3 000716   400000 221003                    LDX1    -131072,DU
         3 000717   000065 236000 xsym               LDQ     TH_CONSTRAINTS+53
         3 000720   000006 772000                    QRL     6
         3 000721   000777 376007                    ANQ     511,DL
         3 000722   200104 756100                    STQ     C_TEST+31,,AUTO
         3 000723   200030 236100                    LDQ     FI_ERR,,AUTO
         3 000724   000033 772000                    QRL     27
         3 000725   200104 116100                    CMPQ    C_TEST+31,,AUTO
PL6.E3A0      #007=THC$SELECT File=THC$COMMANDS.:E05TSI                          WED 07/30/97 06:11 Page:331
         3 000726   000730 600000 3                  TZE     s:4427+10
         3 000727   000000 221003                    LDX1    0,DU
         3 000730   000065 236000 xsym               LDQ     TH_CONSTRAINTS+53
         3 000731   000036 736000                    QLS     30
         3 000732   400000 376003                    ANQ     -131072,DU
         3 000733   200105 756100                    STQ     C_TEST+32,,AUTO
         3 000734   000000 636011                    EAQ     0,X1
         3 000735   200105 376100                    ANQ     C_TEST+32,,AUTO
         3 000736   000742 600000 3                  TZE     s:4431

     1729     4428    4                               (FI_ERR = TH_CONSTRAINTS.M_ACT))
     1730     4429    4                               THEN TH_CONSTRAINTS.M_ACT_SET = %NO;

   4429  3 000737   000005 236000 4                  LDQ     5
         3 000740   000065 356000 xsym               ANSQ    TH_CONSTRAINTS+53
         3 000741   000756 710000 3                  TRA     s:4438

     1731     4430    5                               ELSE DO;

     1732     4431    5                                 CALL THM$ERRMSG(%E$TH_BAD_ACT);

   4431  3 000742   000021 630400 4                  EPPR0   17
         3 000743   000017 631400 xsym               EPPR1   B_VECTNIL+15
         3 000744   000000 701000 xent               TSX1    THM$ERRMSG
         3 000745   000000 011000                    NOP     0

     1733     4432    5                                 ALTRETURN;

   4432  3 000746   000000 702200 xent               TSX2  ! X66_AALT

     1734     4433    5                               END;
     1735     4434    5                         ELSE DO;

     1736     4435    5                           TH_CONSTRAINTS.M_ACT_SET = %YES;

   4435  3 000747   000040 236007                    LDQ     32,DL
         3 000750   000065 256000 xsym               ORSQ    TH_CONSTRAINTS+53
PL6.E3A0      #007=THC$SELECT File=THC$COMMANDS.:E05TSI                          WED 07/30/97 06:11 Page:332

     1737     4436    5                           TH_CONSTRAINTS.M_ACT = FI_ERR;

   4436  3 000751   200030 236100                    LDQ     FI_ERR,,AUTO
         3 000752   000025 772000                    QRL     21
         3 000753   000065 676000 xsym               ERQ     TH_CONSTRAINTS+53
         3 000754   077700 376007                    ANQ     32704,DL
         3 000755   000065 656000 xsym               ERSQ    TH_CONSTRAINTS+53

     1738     4437    5                         END;

     1739     4438    4                         DEL_TEST = 'ACT';

   4438  3 000756   000004 236000 2                  LDQ     4
         3 000757   000010 376000 4                  ANQ     8
         3 000760   000040 276007                    ORQ     32,DL
         3 000761   200042 756100                    STQ     DEL_TEST,,AUTO
         3 000762   001565 710000 3                  TRA     s:4614

     1740     4439    4                    CASE(%MED);

     1741     4440    4                      MEDIA = TEMP$->OUT$BLK.SUBLK$(0)->OUT$SYM.TEXT;

   4440  3 000763   400003 475500                    LDP5    3,,PR4
         3 000764   500004 236100                    LDQ     4,,PR5
         3 000765   000033 772000                    QRL     27
         3 000766   000000 622006                    EAX2    0,QL
         3 000767   040100 100540                    MLR     fill='040'O
         3 000770   500004 200012                    ADSC9   4,,PR5                   cn=1,n=*X2
         3 000771   200031 000006                    ADSC9   MEDIA,,AUTO              cn=0,n=6

     1742     4441    4                      IF (MATCH_DEL)

   4441  3 000772   200022 234100                    SZN     MATCH_DEL,,AUTO
         3 000773   001020 605000 3                  TPL     s:4450

     1743     4442    4                        THEN
PL6.E3A0      #007=THC$SELECT File=THC$COMMANDS.:E05TSI                          WED 07/30/97 06:11 Page:333
     1744     4443    4                           IF ((TH_CONSTRAINTS.M_MED_S)&(MEDIA=TH_CONSTRAINTS.M_MED))

   4443  3 000774   400000 223003                    LDX3    -131072,DU
         3 000775   040000 106500                    CMPC    fill='040'O
         3 000776   200031 000006                    ADSC9   MEDIA,,AUTO              cn=0,n=6
         3 000777   000014 400006 xsym               ADSC9   TH_CONSTRAINTS+12        cn=2,n=6
         3 001000   001002 600000 3                  TZE     s:4443+6
         3 001001   000000 223003                    LDX3    0,DU
         3 001002   000016 236000 xsym               LDQ     TH_CONSTRAINTS+14
         3 001003   400000 376003                    ANQ     -131072,DU
         3 001004   200104 756100                    STQ     C_TEST+31,,AUTO
         3 001005   000000 636013                    EAQ     0,X3
         3 001006   200104 376100                    ANQ     C_TEST+31,,AUTO
         3 001007   001013 600000 3                  TZE     s:4446

     1745     4444    4                             THEN TH_CONSTRAINTS.M_MED_S = %NO;

   4444  3 001010   000031 236000 xsym               LDQ     B_VECTNIL+25
         3 001011   000016 356000 xsym               ANSQ    TH_CONSTRAINTS+14
         3 001012   001025 710000 3                  TRA     s:4453

     1746     4445    5                             ELSE DO;

     1747     4446    5                                CALL THM$ERRMSG(%E$TH_BAD_MED);

   4446  3 001013   000023 630400 4                  EPPR0   19
         3 001014   000017 631400 xsym               EPPR1   B_VECTNIL+15
         3 001015   000000 701000 xent               TSX1    THM$ERRMSG
         3 001016   000000 011000                    NOP     0

     1748     4447    5                                ALTRETURN;

   4447  3 001017   000000 702200 xent               TSX2  ! X66_AALT

     1749     4448    5                                END;
     1750     4449    5                        ELSE DO;

PL6.E3A0      #007=THC$SELECT File=THC$COMMANDS.:E05TSI                          WED 07/30/97 06:11 Page:334
     1751     4450    5                           TH_CONSTRAINTS.M_MED_S = %YES;

   4450  3 001020   400000 236003                    LDQ     -131072,DU
         3 001021   000016 256000 xsym               ORSQ    TH_CONSTRAINTS+14

     1752     4451    5                           TH_CONSTRAINTS.M_MED = MEDIA;

   4451  3 001022   040000 100500                    MLR     fill='040'O
         3 001023   200031 000006                    ADSC9   MEDIA,,AUTO              cn=0,n=6
         3 001024   000014 400006 xsym               ADSC9   TH_CONSTRAINTS+12        cn=2,n=6

     1753     4452    5                           END;

     1754     4453    4                      DEL_TEST = 'MED';

   4453  3 001025   000005 236000 2                  LDQ     5
         3 001026   000010 376000 4                  ANQ     8
         3 001027   000040 276007                    ORQ     32,DL
         3 001030   200042 756100                    STQ     DEL_TEST,,AUTO
         3 001031   001565 710000 3                  TRA     s:4614

     1755     4454    4                    CASE(%BY_B);

     1756     4455    4                      CALL CHARBIN(VALUE,TEMP$->OUT$BLK.SUBLK$(0)->OUT$SYM.TEXT);

   4455  3 001032   400003 475500                    LDP5    3,,PR4
         3 001033   500004 236100                    LDQ     4,,PR5
         3 001034   000033 772000                    QRL     27
         3 001035   000000 622006                    EAX2    0,QL
         3 001036   000100 305540                    DTB
         3 001037   500004 230012                    NDSC9   4,,PR5                   cn=1,s=nosgn,sf=0,n=*X2
         3 001040   200104 000010                    NDSC9   C_TEST+31,,AUTO          cn=0,s=lsgnf,sf=0,n=8
         3 001041   200105 235100                    LDA     C_TEST+32,,AUTO
         3 001042   200020 755100                    STA     VALUE,,AUTO

     1757     4456    4                      IF VALUE > 25

PL6.E3A0      #007=THC$SELECT File=THC$COMMANDS.:E05TSI                          WED 07/30/97 06:11 Page:335
   4456  3 001043   000032 115007                    CMPA    26,DL
         3 001044   001052 602000 3                  TNC     s:4461

     1758     4457    5                        THEN DO;

     1759     4458    5                           CALL THM$ERRMSG(%E$TH_BAD_BYTE);

   4458  3 001045   000025 630400 4                  EPPR0   21
         3 001046   000017 631400 xsym               EPPR1   B_VECTNIL+15
         3 001047   000000 701000 xent               TSX1    THM$ERRMSG
         3 001050   000000 011000                    NOP     0

     1760     4459    5                           ALTRETURN;

   4459  3 001051   000000 702200 xent               TSX2  ! X66_AALT

     1761     4460    5                           END;
     1762     4461    4                      BYTE_SPEC = VALUE;

   4461  3 001052   200014 755100                    STA     BYTE_SPEC,,AUTO

     1763     4462    5                      DO CASE(TEMP$->OUT$BLK.SUBLK$(1)->OUT$BLK.CODE);

   4462  3 001053   400004 471500                    LDP1    4,,PR4
         3 001054   100000 721100                    LXL1    0,,PR1
         3 001055   000003 101003                    CMPX1   3,DU
         3 001056   001060 602011 3                  TNC     s:4462+5,X1
         3 001057   001270 710000 3                  TRA     s:4525
         3 001060   001270 710000 3                  TRA     s:4525
         3 001061   001063 710000 3                  TRA     s:4464
         3 001062   001173 710000 3                  TRA     s:4497

     1764     4463    5                         CASE(%BIT);

     1765     4464    5                           CALL CHARBIN(VALUE,TEMP$->OUT$BLK.SUBLK$(1)

   4464  3 001063   100003 473500                    LDP3    3,,PR1
PL6.E3A0      #007=THC$SELECT File=THC$COMMANDS.:E05TSI                          WED 07/30/97 06:11 Page:336
         3 001064   300004 236100                    LDQ     4,,PR3
         3 001065   000033 772000                    QRL     27
         3 001066   000000 622006                    EAX2    0,QL
         3 001067   000100 305540                    DTB
         3 001070   300004 230012                    NDSC9   4,,PR3                   cn=1,s=nosgn,sf=0,n=*X2
         3 001071   200104 000010                    NDSC9   C_TEST+31,,AUTO          cn=0,s=lsgnf,sf=0,n=8
         3 001072   200105 236100                    LDQ     C_TEST+32,,AUTO
         3 001073   200020 756100                    STQ     VALUE,,AUTO

     1766     4465    5                                        ->OUT$BLK.SUBLK$(0)->OUT$SYM.TEXT);
     1767     4466    5                           IF VALUE > 7

   4466  3 001074   000010 116007                    CMPQ    8,DL
         3 001075   001103 602000 3                  TNC     s:4471

     1768     4467    6                             THEN DO;

     1769     4468    6                                CALL THM$ERRMSG(%E$TH_BAD_BIT);

   4468  3 001076   000027 630400 4                  EPPR0   23
         3 001077   000017 631400 xsym               EPPR1   B_VECTNIL+15
         3 001100   000000 701000 xent               TSX1    THM$ERRMSG
         3 001101   000000 011000                    NOP     0

     1770     4469    6                                ALTRETURN;

   4469  3 001102   000000 702200 xent               TSX2  ! X66_AALT

     1771     4470    6                                END;
     1772     4471    5                           FIRST_BIT = VALUE;

   4471  3 001103   200015 756100                    STQ     FIRST_BIT,,AUTO

     1773     4472    5                           CALL CHARBIN(VALUE,TEMP$->OUT$BLK.SUBLK$(1)

   4472  3 001104   400004 471500                    LDP1    4,,PR4
         3 001105   100004 473500                    LDP3    4,,PR1
PL6.E3A0      #007=THC$SELECT File=THC$COMMANDS.:E05TSI                          WED 07/30/97 06:11 Page:337
         3 001106   300004 236100                    LDQ     4,,PR3
         3 001107   000033 772000                    QRL     27
         3 001110   000000 621006                    EAX1    0,QL
         3 001111   000100 305540                    DTB
         3 001112   300004 230011                    NDSC9   4,,PR3                   cn=1,s=nosgn,sf=0,n=*X1
         3 001113   200104 000010                    NDSC9   C_TEST+31,,AUTO          cn=0,s=lsgnf,sf=0,n=8
         3 001114   200105 236100                    LDQ     C_TEST+32,,AUTO
         3 001115   200020 756100                    STQ     VALUE,,AUTO

     1774     4473    5                                        ->OUT$BLK.SUBLK$(1)->OUT$SYM.TEXT);
     1775     4474    5                           IF (VALUE = 0 OR VALUE = 1)

   4474  3 001116   001126 600000 3                  TZE     s:4480
         3 001117   000001 116007                    CMPQ    1,DL
         3 001120   001126 600000 3                  TZE     s:4480

     1776     4475    5                             THEN ;
     1777     4476    6                             ELSE DO;

     1778     4477    6                                CALL THM$ERRMSG(%E$TH_BAD_BIT);

   4477  3 001121   000027 630400 4                  EPPR0   23
         3 001122   000017 631400 xsym               EPPR1   B_VECTNIL+15
         3 001123   000000 701000 xent               TSX1    THM$ERRMSG
         3 001124   000000 011000                    NOP     0

     1779     4478    6                                ALTRETURN;

   4478  3 001125   000000 702200 xent               TSX2  ! X66_AALT

     1780     4479    6                                END;
     1781     4480    5                           BIT_SPEC = BINBIT(VALUE,1);

   4480  3 001126   000043 736000                    QLS     35
         3 001127   200013 756100                    STQ     BIT_SPEC,,AUTO

     1782     4481    5                           INDX = (BYTE_SPEC) * 8 + FIRST_BIT;
PL6.E3A0      #007=THC$SELECT File=THC$COMMANDS.:E05TSI                          WED 07/30/97 06:11 Page:338

   4481  3 001130   200014 236100                    LDQ     BYTE_SPEC,,AUTO
         3 001131   000003 736000                    QLS     3
         3 001132   200015 036100                    ADLQ    FIRST_BIT,,AUTO
         3 001133   200017 756100                    STQ     INDX,,AUTO

     1783     4482    5                           IF MATCH_DEL

   4482  3 001134   200022 234100                    SZN     MATCH_DEL,,AUTO
         3 001135   001164 605000 3                  TPL     s:4493

     1784     4483    5                              THEN
     1785     4484    5                                IF ((TH_CONSTRAINTS.M_BY_B_SET(INDX)) &

   4484  3 001136   400000 221003                    LDX1    -131072,DU
         3 001137   000100 066406                    CMPB    filb='0'B
         3 001140   000016 010001 xsym               BDSC    TH_CONSTRAINTS+14,Q      by=0,bit=1,n=1
         3 001141   200013 000001                    BDSC    BIT_SPEC,,AUTO           by=0,bit=0,n=1
         3 001142   001144 600000 3                  TZE     s:4484+6
         3 001143   000000 221003                    LDX1    0,DU
         3 001144   003100 060406                    CSL     bolr='003'O
         3 001145   000026 010001 xsym               BDSC    TH_CONSTRAINTS+22,Q      by=0,bit=1,n=1
         3 001146   200104 000044                    BDSC    C_TEST+31,,AUTO          by=0,bit=0,n=36
         3 001147   000000 636011                    EAQ     0,X1
         3 001150   200104 376100                    ANQ     C_TEST+31,,AUTO
         3 001151   001157 600000 3                  TZE     s:4489

     1786     4485    5                                    (TH_CONSTRAINTS.M_BY_B_VEC(INDX)=BIT_SPEC))
     1787     4486    5                                   THEN
     1788     4487    5                                     TH_CONSTRAINTS.M_BY_B_SET(INDX)=%NO;

   4487  3 001152   200017 236100                    LDQ     INDX,,AUTO
         3 001153   003006 060400                    CSL     bolr='003'O
         3 001154   000002 000001 xsym               BDSC    B_VECTNIL+2              by=0,bit=0,n=1
         3 001155   000026 010001 xsym               BDSC    TH_CONSTRAINTS+22,Q      by=0,bit=1,n=1
         3 001156   001270 710000 3                  TRA     s:4525

PL6.E3A0      #007=THC$SELECT File=THC$COMMANDS.:E05TSI                          WED 07/30/97 06:11 Page:339
     1789     4488    6                                   ELSE DO;

     1790     4489    6                                     CALL THM$ERRMSG(%E$TH_BAD_BIT);

   4489  3 001157   000027 630400 4                  EPPR0   23
         3 001160   000017 631400 xsym               EPPR1   B_VECTNIL+15
         3 001161   000000 701000 xent               TSX1    THM$ERRMSG
         3 001162   000000 011000                    NOP     0

     1791     4490    6                                     ALTRETURN;

   4490  3 001163   000000 702200 xent               TSX2  ! X66_AALT

     1792     4491    6                                     END;
     1793     4492    6                              ELSE DO;

     1794     4493    6                                TH_CONSTRAINTS.M_BY_B_SET(INDX) = %YES;

   4493  3 001164   003006 060400                    CSL     bolr='003'O
         3 001165   000030 000001 xsym               BDSC    B_VECTNIL+24             by=0,bit=0,n=1
         3 001166   000026 010001 xsym               BDSC    TH_CONSTRAINTS+22,Q      by=0,bit=1,n=1

     1795     4494    6                                TH_CONSTRAINTS.M_BY_B_VEC(INDX) = BIT_SPEC;

   4494  3 001167   003006 060500                    CSL     bolr='003'O
         3 001170   200013 000001                    BDSC    BIT_SPEC,,AUTO           by=0,bit=0,n=1
         3 001171   000016 010001 xsym               BDSC    TH_CONSTRAINTS+14,Q      by=0,bit=1,n=1

     1796     4495    6                                END;

   4495  3 001172   001270 710000 3                  TRA     s:4525

     1797     4496    5                         CASE(%BIT_STR);

     1798     4497    5                           TEMP = TEMP$->OUT$BLK.SUBLK$(1)->

   4497  3 001173   100003 473500                    LDP3    3,,PR1
PL6.E3A0      #007=THC$SELECT File=THC$COMMANDS.:E05TSI                          WED 07/30/97 06:11 Page:340
         3 001174   300004 236100                    LDQ     4,,PR3
         3 001175   000033 772000                    QRL     27
         3 001176   000000 622006                    EAX2    0,QL
         3 001177   040100 100540                    MLR     fill='040'O
         3 001200   300004 200012                    ADSC9   4,,PR3                   cn=1,n=*X2
         3 001201   200033 000010                    ADSC9   TEMP,,AUTO               cn=0,n=8

     1799     4498    5                                  OUT$BLK.SUBLK$(0)->OUT$SYM.TEXT;
     1800     4499    6                        DO K = 0 TO 7;

   4499  3 001202   200006 450100                    STZ     K,,AUTO

     1801     4500    6                        CALL CHARBIN(VALUE,TEMPP(K));

   4500  3 001203   200006 235100                    LDA     K,,AUTO
         3 001204   000100 305505                    DTB
         3 001205   200033 030001                    NDSC9   TEMP,A,AUTO              cn=0,s=nosgn,sf=0,n=1
         3 001206   200020 000004                    NDSC9   VALUE,,AUTO              cn=0,s=lsgnf,sf=0,n=4

     1802     4501    6                             IF (VALUE = 0 OR VALUE = 1)

   4501  3 001207   200020 236100                    LDQ     VALUE,,AUTO
         3 001210   001220 600000 3                  TZE     s:4507
         3 001211   000001 116007                    CMPQ    1,DL
         3 001212   001220 600000 3                  TZE     s:4507

     1803     4502    6                                THEN;
     1804     4503    7                                ELSE DO;

     1805     4504    7                                     CALL THM$ERRMSG(%E$TH_BAD_BIT);

   4504  3 001213   000027 630400 4                  EPPR0   23
         3 001214   000017 631400 xsym               EPPR1   B_VECTNIL+15
         3 001215   000000 701000 xent               TSX1    THM$ERRMSG
         3 001216   000000 011000                    NOP     0

     1806     4505    7                                     ALTRETURN;
PL6.E3A0      #007=THC$SELECT File=THC$COMMANDS.:E05TSI                          WED 07/30/97 06:11 Page:341

   4505  3 001217   000000 702200 xent               TSX2  ! X66_AALT

     1807     4506    7                                     END;
     1808     4507    6                             BIT_SPEC = BINBIT(VALUE,1);

   4507  3 001220   000043 736000                    QLS     35
         3 001221   200013 756100                    STQ     BIT_SPEC,,AUTO

     1809     4508    6                        INDX = (BYTE_SPEC) * 8 + K;

   4508  3 001222   200014 236100                    LDQ     BYTE_SPEC,,AUTO
         3 001223   000003 736000                    QLS     3
         3 001224   200006 036100                    ADLQ    K,,AUTO
         3 001225   200017 756100                    STQ     INDX,,AUTO

     1810     4509    6                             IF MATCH_DEL

   4509  3 001226   200022 234100                    SZN     MATCH_DEL,,AUTO
         3 001227   001256 605000 3                  TPL     s:4520

     1811     4510    6                                THEN
     1812     4511    6                                  IF ((TH_CONSTRAINTS.M_BY_B_SET(INDX)) &

   4511  3 001230   400000 220003                    LDX0    -131072,DU
         3 001231   000100 066406                    CMPB    filb='0'B
         3 001232   000016 010001 xsym               BDSC    TH_CONSTRAINTS+14,Q      by=0,bit=1,n=1
         3 001233   200013 000001                    BDSC    BIT_SPEC,,AUTO           by=0,bit=0,n=1
         3 001234   001236 600000 3                  TZE     s:4511+6
         3 001235   000000 220003                    LDX0    0,DU
         3 001236   003100 060406                    CSL     bolr='003'O
         3 001237   000026 010001 xsym               BDSC    TH_CONSTRAINTS+22,Q      by=0,bit=1,n=1
         3 001240   200104 000044                    BDSC    C_TEST+31,,AUTO          by=0,bit=0,n=36
         3 001241   000000 636010                    EAQ     0,X0
         3 001242   200104 376100                    ANQ     C_TEST+31,,AUTO
         3 001243   001251 600000 3                  TZE     s:4516

PL6.E3A0      #007=THC$SELECT File=THC$COMMANDS.:E05TSI                          WED 07/30/97 06:11 Page:342
     1813     4512    6                                     (TH_CONSTRAINTS.M_BY_B_VEC(INDX)=BIT_SPEC))
     1814     4513    6                                     THEN
     1815     4514    6                                       TH_CONSTRAINTS.M_BY_B_SET(INDX)=%NO;

   4514  3 001244   200017 236100                    LDQ     INDX,,AUTO
         3 001245   003006 060400                    CSL     bolr='003'O
         3 001246   000002 000001 xsym               BDSC    B_VECTNIL+2              by=0,bit=0,n=1
         3 001247   000026 010001 xsym               BDSC    TH_CONSTRAINTS+22,Q      by=0,bit=1,n=1
         3 001250   001264 710000 3                  TRA     s:4523

     1816     4515    7                                     ELSE DO;

     1817     4516    7                                       CALL THM$ERRMSG(%E$TH_BAD_BIT);

   4516  3 001251   000027 630400 4                  EPPR0   23
         3 001252   000017 631400 xsym               EPPR1   B_VECTNIL+15
         3 001253   000000 701000 xent               TSX1    THM$ERRMSG
         3 001254   000000 011000                    NOP     0

     1818     4517    7                                       ALTRETURN;

   4517  3 001255   000000 702200 xent               TSX2  ! X66_AALT

     1819     4518    7                                       END;
     1820     4519    7                                ELSE DO;

     1821     4520    7                                     TH_CONSTRAINTS.M_BY_B_SET(INDX)=%YES;

   4520  3 001256   003006 060400                    CSL     bolr='003'O
         3 001257   000030 000001 xsym               BDSC    B_VECTNIL+24             by=0,bit=0,n=1
         3 001260   000026 010001 xsym               BDSC    TH_CONSTRAINTS+22,Q      by=0,bit=1,n=1

     1822     4521    7                                     TH_CONSTRAINTS.M_BY_B_VEC(INDX)=BIT_SPEC;

   4521  3 001261   003006 060500                    CSL     bolr='003'O
         3 001262   200013 000001                    BDSC    BIT_SPEC,,AUTO           by=0,bit=0,n=1
         3 001263   000016 010001 xsym               BDSC    TH_CONSTRAINTS+14,Q      by=0,bit=1,n=1
PL6.E3A0      #007=THC$SELECT File=THC$COMMANDS.:E05TSI                          WED 07/30/97 06:11 Page:343

     1823     4522    7                                     END;

     1824     4523    6                           END;

   4523  3 001264   200006 054100                    AOS     K,,AUTO
         3 001265   200006 235100                    LDA     K,,AUTO
         3 001266   000007 115007                    CMPA    7,DL
         3 001267   001203 604400 3                  TMOZ    s:4500

     1825     4524    5                      END;                /* DO CASE */

     1826     4525    4                      DEL_TEST = 'BYT';

   4525  3 001270   000006 236000 2                  LDQ     6
         3 001271   000010 376000 4                  ANQ     8
         3 001272   000040 276007                    ORQ     32,DL
         3 001273   200042 756100                    STQ     DEL_TEST,,AUTO
         3 001274   001565 710000 3                  TRA     s:4614

     1827     4526    4                    CASE(%FEP_CODE);

     1828     4527    4                      FEP_CODE = TEMP$->OUT$BLK.SUBLK$(0)->OUT$SYM.TEXT;

   4527  3 001275   400003 475500                    LDP5    3,,PR4
         3 001276   500004 236100                    LDQ     4,,PR5
         3 001277   000033 772000                    QRL     27
         3 001300   000000 622006                    EAX2    0,QL
         3 001301   040100 100540                    MLR     fill='040'O
         3 001302   500004 200012                    ADSC9   4,,PR5                   cn=1,n=*X2
         3 001303   200035 000003                    ADSC9   FEP_CODE,,AUTO           cn=0,n=3

     1829     4528    4                      IF MATCH_DEL

   4528  3 001304   200022 234100                    SZN     MATCH_DEL,,AUTO
         3 001305   001332 605000 3                  TPL     s:4538

PL6.E3A0      #007=THC$SELECT File=THC$COMMANDS.:E05TSI                          WED 07/30/97 06:11 Page:344
     1830     4529    4                        THEN
     1831     4530    4                           IF ((TH_CONSTRAINTS.M_FEP_SET) &

   4530  3 001306   400000 223003                    LDX3    -131072,DU
         3 001307   040100 106400                    CMPC    fill='040'O
         3 001310   000060 200003 xsym               ADSC9   TH_CONSTRAINTS+48        cn=1,n=3
         3 001311   200035 000003                    ADSC9   FEP_CODE,,AUTO           cn=0,n=3
         3 001312   001314 600000 3                  TZE     s:4530+6
         3 001313   000000 223003                    LDX3    0,DU
         3 001314   000061 236000 xsym               LDQ     TH_CONSTRAINTS+49
         3 001315   400000 376003                    ANQ     -131072,DU
         3 001316   200104 756100                    STQ     C_TEST+31,,AUTO
         3 001317   000000 636013                    EAQ     0,X3
         3 001320   200104 376100                    ANQ     C_TEST+31,,AUTO
         3 001321   001325 600000 3                  TZE     s:4534

     1832     4531    4                               (TH_CONSTRAINTS.M_FEP = FEP_CODE))
     1833     4532    4                             THEN TH_CONSTRAINTS.M_FEP_SET = %NO;

   4532  3 001322   000031 236000 xsym               LDQ     B_VECTNIL+25
         3 001323   000061 356000 xsym               ANSQ    TH_CONSTRAINTS+49
         3 001324   001345 710000 3                  TRA     s:4543

     1834     4533    5                             ELSE DO;

     1835     4534    5                                CALL THM$ERRMSG(%E$TH_BAD_FEP);

   4534  3 001325   000031 630400 4                  EPPR0   25
         3 001326   000017 631400 xsym               EPPR1   B_VECTNIL+15
         3 001327   000000 701000 xent               TSX1    THM$ERRMSG
         3 001330   000000 011000                    NOP     0

     1836     4535    5                                ALTRETURN;

   4535  3 001331   000000 702200 xent               TSX2  ! X66_AALT

     1837     4536    5                             END;
PL6.E3A0      #007=THC$SELECT File=THC$COMMANDS.:E05TSI                          WED 07/30/97 06:11 Page:345
     1838     4537    5                        ELSE DO;

     1839     4538    5                           TH_CONSTRAINTS.M_FEP_SET = %YES;

   4538  3 001332   400000 236003                    LDQ     -131072,DU
         3 001333   000061 256000 xsym               ORSQ    TH_CONSTRAINTS+49

     1840     4539    5                           TH_CONSTRAINTS.M_FEP = FEP_CODE;

   4539  3 001334   200035 236100                    LDQ     FEP_CODE,,AUTO
         3 001335   000011 772000                    QRL     9
         3 001336   000060 552034 xsym               STBQ    TH_CONSTRAINTS+48,'34'O

     1841     4540    5                           TH_CONSTRAINTS.M_FEP_N = TEMP$->OUT$BLK.SUBLK$(0)

   4540  3 001337   400003 471500                    LDP1    3,,PR4
         3 001340   100004 236100                    LDQ     4,,PR1
         3 001341   000001 772000                    QRL     1
         3 001342   000061 676000 xsym               ERQ     TH_CONSTRAINTS+49
         3 001343   377400 376003                    ANQ     130816,DU
         3 001344   000061 656000 xsym               ERSQ    TH_CONSTRAINTS+49

     1842     4541    5                                                    ->OUT$SYM.COUNT;
     1843     4542    5                           END;

     1844     4543    4                        DEL_TEST = 'FCG';

   4543  3 001345   000007 236000 2                  LDQ     7
         3 001346   000010 376000 4                  ANQ     8
         3 001347   000040 276007                    ORQ     32,DL
         3 001350   200042 756100                    STQ     DEL_TEST,,AUTO
         3 001351   001565 710000 3                  TRA     s:4614

     1845     4544    4                    CASE(%FEP_CHAN);

     1846     4545    4                      FEP_CHAN = TEMP$->OUT$BLK.SUBLK$(0)->OUT$SYM.TEXT;

PL6.E3A0      #007=THC$SELECT File=THC$COMMANDS.:E05TSI                          WED 07/30/97 06:11 Page:346
   4545  3 001352   400003 475500                    LDP5    3,,PR4
         3 001353   500004 236100                    LDQ     4,,PR5
         3 001354   000033 772000                    QRL     27
         3 001355   000000 622006                    EAX2    0,QL
         3 001356   040100 100540                    MLR     fill='040'O
         3 001357   500004 200012                    ADSC9   4,,PR5                   cn=1,n=*X2
         3 001360   200036 000004                    ADSC9   FEP_CHAN,,AUTO           cn=0,n=4

     1847     4546    4                      J = TEMP$->OUT$BLK.SUBLK$(0)->OUT$SYM.COUNT;

   4546  3 001361   200005 756100                    STQ     J,,AUTO

     1848     4547    5                      DO CASE (J);

   4547  3 001362   000005 116007                    CMPQ    5,DL
         3 001363   001365 602006 3                  TNC     s:4547+3,QL
         3 001364   001420 710000 3                  TRA     s:4557
         3 001365   001420 710000 3                  TRA     s:4557
         3 001366   001372 710000 3                  TRA     s:4549
         3 001367   001402 710000 3                  TRA     s:4551
         3 001370   001407 710000 3                  TRA     s:4553
         3 001371   001415 710000 3                  TRA     s:4555

     1849     4548    5                        CASE(1);

     1850     4549    5                           CALL CONCAT(FEP_CHAN_N,'000',SUBSTR(FEP_CHAN,0,1));

   4549  3 001372   000010 236000 2                  LDQ     8
         3 001373   000010 376000 4                  ANQ     8
         3 001374   000040 276007                    ORQ     32,DL
         3 001375   200037 756100                    STQ     FEP_CHAN_N,,AUTO
         3 001376   200036 236100                    LDQ     FEP_CHAN,,AUTO
         3 001377   000033 772000                    QRL     27
         3 001400   200037 552104                    STBQ    FEP_CHAN_N,'04'O,AUTO
         3 001401   001425 710000 3                  TRA     s:4560

     1851     4550    5                        CASE(2);
PL6.E3A0      #007=THC$SELECT File=THC$COMMANDS.:E05TSI                          WED 07/30/97 06:11 Page:347

     1852     4551    5                           CALL CONCAT(FEP_CHAN_N,'00',SUBSTR(FEP_CHAN,0,2));

   4551  3 001402   000010 223000 2                  LDX3    8
         3 001403   200037 743100                    STX3    FEP_CHAN_N,,AUTO
         3 001404   200036 224100                    LDX4    FEP_CHAN,,AUTO
         3 001405   200037 444100                    SXL4    FEP_CHAN_N,,AUTO
         3 001406   001425 710000 3                  TRA     s:4560

     1853     4552    5                        CASE(3);

     1854     4553    5                           CALL CONCAT(FEP_CHAN_N,'0',SUBSTR(FEP_CHAN,0,3));

   4553  3 001407   060000 236003                    LDQ     24576,DU
         3 001410   200037 756100                    STQ     FEP_CHAN_N,,AUTO
         3 001411   200036 236100                    LDQ     FEP_CHAN,,AUTO
         3 001412   000011 772000                    QRL     9
         3 001413   200037 552134                    STBQ    FEP_CHAN_N,'34'O,AUTO
         3 001414   001425 710000 3                  TRA     s:4560

     1855     4554    5                        CASE(4);

     1856     4555    5                           FEP_CHAN_N = FEP_CHAN;

   4555  3 001415   200036 236100                    LDQ     FEP_CHAN,,AUTO
         3 001416   200037 756100                    STQ     FEP_CHAN_N,,AUTO
         3 001417   001425 710000 3                  TRA     s:4560

     1857     4556    5                        CASE (ELSE);

     1858     4557    5                           CALL THM$ERRMSG(%E$TH_BAD_CHAN);

   4557  3 001420   000033 630400 4                  EPPR0   27
         3 001421   000017 631400 xsym               EPPR1   B_VECTNIL+15
         3 001422   000000 701000 xent               TSX1    THM$ERRMSG
         3 001423   000000 011000                    NOP     0

PL6.E3A0      #007=THC$SELECT File=THC$COMMANDS.:E05TSI                          WED 07/30/97 06:11 Page:348
     1859     4558    5                           ALTRETURN;

   4558  3 001424   000000 702200 xent               TSX2  ! X66_AALT

     1860     4559    5                      END;

     1861     4560    4          IF MATCH_DEL THEN

   4560  3 001425   200022 234100                    SZN     MATCH_DEL,,AUTO
         3 001426   001523 605000 3                  TPL     s:4597

     1862     4561    5            DO;

     1863     4562    5                IF TH_CONSTRAINTS.M_CHAN_SET

   4562  3 001427   000062 236000 xsym               LDQ     TH_CONSTRAINTS+50
         3 001430   400000 316007                    CANQ    -131072,DL
         3 001431   001516 600000 3                  TZE     WRONG

     1864     4563    5                  THEN
     1865     4564    6                  DO;

     1866     4565    6                    FOUND='0'B;

   4565  3 001432   200012 450100                    STZ     FOUND,,AUTO

     1867     4566    7                    DO K = 0 TO TH_M_CHAN_TOTAL-1;

   4566  3 001433   200006 450100                    STZ     K,,AUTO
         3 001434   001457 710000 3                  TRA     s:4574+1

     1868     4567    7                      IF FEP_CHAN_N = TH_M_CHAN.TEXT(K)

   4567  3 001435   200006 236100                    LDQ     K,,AUTO
         3 001436   000005 402007                    MPY     5,DL
         3 001437   040006 106500                    CMPC    fill='040'O
         3 001440   200037 000004                    ADSC9   FEP_CHAN_N,,AUTO         cn=0,n=4
PL6.E3A0      #007=THC$SELECT File=THC$COMMANDS.:E05TSI                          WED 07/30/97 06:11 Page:349
         3 001441   000000 000004 xsym               ADSC9   TH_M_CHAN,Q              cn=0,n=4
         3 001442   001456 601000 3                  TNZ     s:4574

     1869     4568    7                        THEN
     1870     4569    8                          DO;

     1871     4570    8                            FOUND='1'B;

   4570  3 001443   400000 236003                    LDQ     -131072,DU
         3 001444   200012 756100                    STQ     FOUND,,AUTO

     1872     4571    8                            TH_M_CHAN.FLAG(K) = '0'B;

   4571  3 001445   200006 236100                    LDQ     K,,AUTO
         3 001446   000055 402007                    MPY     45,DL
         3 001447   000000 116003                    CMPQ    0,DU
         3 001450   001452 605000 3                  TPL     s:4571+5
         3 001451   000044 036003                    ADLQ    36,DU
         3 001452   003006 060400                    CSL     bolr='003'O
         3 001453   000002 000001 xsym               BDSC    B_VECTNIL+2              by=0,bit=0,n=1
         3 001454   000001 000001 xsym               BDSC    TH_M_CHAN+1,Q            by=0,bit=0,n=1

     1873     4572    8                            GOTO FOUND_CHANNEL;

   4572  3 001455   001463 710000 3                  TRA     FOUND_CHANNEL

     1874     4573    8                          END;
     1875     4574    7                    END;

   4574  3 001456   200006 054100                    AOS     K,,AUTO
         3 001457   000000 236000 xsym               LDQ     TH_M_CHAN_TOTAL
         3 001460   000037 772000                    QRL     31
         3 001461   200006 116100                    CMPQ    K,,AUTO
         3 001462   001435 605400 3                  TPNZ    s:4567

     1876     4575    6   FOUND_CHANNEL:   IF FOUND

PL6.E3A0      #007=THC$SELECT File=THC$COMMANDS.:E05TSI                          WED 07/30/97 06:11 Page:350
   4575  3 001463   200012 234100       FOUND_CHANN* SZN     FOUND,,AUTO
         3 001464   001516 605000 3                  TPL     WRONG

     1877     4576    6                      THEN
     1878     4577    7                        DO;

     1879     4578    7                          JJ = 0;

   4578  3 001465   200043 450100                    STZ     JJ,,AUTO

     1880     4579    8                          DO K = 0 TO TH_M_CHAN_TOTAL-1;

   4579  3 001466   200006 450100                    STZ     K,,AUTO
         3 001467   001505 710000 3                  TRA     s:4582+1

     1881     4580    8                            IF TH_M_CHAN.FLAG(K) = '1'B

   4580  3 001470   200006 236100                    LDQ     K,,AUTO
         3 001471   000055 402007                    MPY     45,DL
         3 001472   000000 116003                    CMPQ    0,DU
         3 001473   001475 605000 3                  TPL     s:4580+5
         3 001474   000044 036003                    ADLQ    36,DU
         3 001475   000000 066406                    CMPB    filb='0'B
         3 001476   000001 000001 xsym               BDSC    TH_M_CHAN+1,Q            by=0,bit=0,n=1
         3 001477   000002 000022 xsym               BDSC    B_VECTNIL+2              by=0,bit=0,n=18
         3 001500   001504 600000 3                  TZE     s:4582

     1882     4581    8                                THEN  JJ = JJ + 1;

   4581  3 001501   200043 235100                    LDA     JJ,,AUTO
         3 001502   000001 035007                    ADLA    1,DL
         3 001503   200043 755100                    STA     JJ,,AUTO

     1883     4582    8                          END;

   4582  3 001504   200006 054100                    AOS     K,,AUTO
         3 001505   000000 236000 xsym               LDQ     TH_M_CHAN_TOTAL
PL6.E3A0      #007=THC$SELECT File=THC$COMMANDS.:E05TSI                          WED 07/30/97 06:11 Page:351
         3 001506   000037 772000                    QRL     31
         3 001507   200006 116100                    CMPQ    K,,AUTO
         3 001510   001470 605400 3                  TPNZ    s:4580

     1884     4583    7                          IF JJ = 0

   4583  3 001511   200043 235100                    LDA     JJ,,AUTO
         3 001512   001561 601000 3                  TNZ     s:4612

     1885     4584    7                            THEN
     1886     4585    7                                TH_CONSTRAINTS.M_CHAN_SET = '0'B;

   4585  3 001513   000002 236000 4                  LDQ     2
         3 001514   000062 356000 xsym               ANSQ    TH_CONSTRAINTS+50

     1887     4586    7                        END;

   4586  3 001515   001561 710000 3                  TRA     s:4612

     1888     4587    6                        ELSE
     1889     4588    6                            GOTO WRONG;
     1890     4589    6                  END;
     1891     4590    5                  ELSE
     1892     4591    6                    DO;

     1893     4592    6   WRONG:             CALL THM$ERRMSG(%E$TH_BAD_CHAN);

   4592  3 001516   000033 630400 4     WRONG        EPPR0   27
         3 001517   000017 631400 xsym               EPPR1   B_VECTNIL+15
         3 001520   000000 701000 xent               TSX1    THM$ERRMSG
         3 001521   000000 011000                    NOP     0

     1894     4593    6                      ALTRETURN;

   4593  3 001522   000000 702200 xent               TSX2  ! X66_AALT

     1895     4594    6                    END;
PL6.E3A0      #007=THC$SELECT File=THC$COMMANDS.:E05TSI                          WED 07/30/97 06:11 Page:352
     1896     4595    5            END; /* IF MATCH_DEL */
     1897     4596    4            ELSE
     1898     4597    4                IF MATCH_ADD

   4597  3 001523   200040 234100                    SZN     MATCH_ADD,,AUTO
         3 001524   001551 605000 3                  TPL     s:4607

     1899     4598    4                  THEN
     1900     4599    5                    DO;

     1901     4600    5                      TH_CONSTRAINTS.M_CHAN_SET = '1'B;

   4600  3 001525   400000 236007                    LDQ     -131072,DL
         3 001526   000062 256000 xsym               ORSQ    TH_CONSTRAINTS+50

     1902     4601    5                      TH_M_CHAN.TEXT(TH_M_CHAN_TOTAL) = FEP_CHAN_N;

   4601  3 001527   000000 236000 xsym               LDQ     TH_M_CHAN_TOTAL
         3 001530   000037 772000                    QRL     31
         3 001531   000005 402007                    MPY     5,DL
         3 001532   040006 100500                    MLR     fill='040'O
         3 001533   200037 000004                    ADSC9   FEP_CHAN_N,,AUTO         cn=0,n=4
         3 001534   000000 000004 xsym               ADSC9   TH_M_CHAN,Q              cn=0,n=4

     1903     4602    5                      TH_M_CHAN.FLAG(TH_M_CHAN_TOTAL) = '1'B;

   4602  3 001535   000000 236000 xsym               LDQ     TH_M_CHAN_TOTAL
         3 001536   000037 772000                    QRL     31
         3 001537   000055 402007                    MPY     45,DL
         3 001540   003006 060400                    CSL     bolr='003'O
         3 001541   000030 000001 xsym               BDSC    B_VECTNIL+24             by=0,bit=0,n=1
         3 001542   000001 000001 xsym               BDSC    TH_M_CHAN+1,Q            by=0,bit=0,n=1

     1904     4603    5                      TH_M_CHAN_TOTAL = TH_M_CHAN_TOTAL + 1;

   4603  3 001543   000000 236000 xsym               LDQ     TH_M_CHAN_TOTAL
         3 001544   000037 772000                    QRL     31
PL6.E3A0      #007=THC$SELECT File=THC$COMMANDS.:E05TSI                          WED 07/30/97 06:11 Page:353
         3 001545   000001 036007                    ADLQ    1,DL
         3 001546   000037 736000                    QLS     31
         3 001547   000000 756000 xsym               STQ     TH_M_CHAN_TOTAL

     1905     4604    5                    END;

   4604  3 001550   001561 710000 3                  TRA     s:4612

     1906     4605    4                    ELSE
     1907     4606    5                      DO;

     1908     4607    5                        TH_CONSTRAINTS.M_CHAN_SET = '1'B;

   4607  3 001551   400000 236007                    LDQ     -131072,DL
         3 001552   000062 256000 xsym               ORSQ    TH_CONSTRAINTS+50

     1909     4608    5                        TH_M_CHAN.TEXT(0) = FEP_CHAN_N;

   4608  3 001553   200037 236100                    LDQ     FEP_CHAN_N,,AUTO
         3 001554   000000 756000 xsym               STQ     TH_M_CHAN

     1910     4609    5                        TH_M_CHAN.FLAG(0) = '1'B;

   4609  3 001555   400000 236003                    LDQ     -131072,DU
         3 001556   000001 256000 xsym               ORSQ    TH_M_CHAN+1

     1911     4610    5                        TH_M_CHAN_TOTAL = 1;

   4610  3 001557   020000 236003                    LDQ     8192,DU
         3 001560   000000 756000 xsym               STQ     TH_M_CHAN_TOTAL

     1912     4611    5                      END;

     1913     4612    4                        DEL_TEST = 'CHA';

   4612  3 001561   000011 236000 2                  LDQ     9
         3 001562   000010 376000 4                  ANQ     8
PL6.E3A0      #007=THC$SELECT File=THC$COMMANDS.:E05TSI                          WED 07/30/97 06:11 Page:354
         3 001563   000040 276007                    ORQ     32,DL
         3 001564   200042 756100                    STQ     DEL_TEST,,AUTO

     1914     4613    4                 END;                     /* OF CASE   */

     1915     4614    3             IF MATCH_DEL

   4614  3 001565   200022 234100                    SZN     MATCH_DEL,,AUTO
         3 001566   001753 605000 3                  TPL     s:4659

     1916     4615    4               THEN DO;

     1917     4616    4                 CALL INDEX(JJ,DEL_TEST,TH_LAST_MATCH.TEXT);

   4616  3 001567   200043 631500                    EPPR1   JJ,,AUTO
         3 001570   200042 633500                    EPPR3   DEL_TEST,,AUTO
         3 001571   000003 223003                    LDX3    3,DU
         3 001572   000000 630400 xsym               EPPR0   TH_LAST_MATCH
         3 001573   000001 220003                    LDX0    1,DU
         3 001574   000000 500510                    A9BD    0,X0,PR0
         3 001575   000167 220003                    LDX0    119,DU
         3 001576   000000 236003                    LDQ     0,DU
         3 001577   000000 701000 xent               TSX1    X66_INDEX
         3 001600   000000 011000                    NOP     0

     1918     4617    4                 JCNT = JJ;

   4617  3 001601   200043 235100                    LDA     JJ,,AUTO
         3 001602   200044 755100                    STA     JCNT,,AUTO

     1919     4618    4       NEXT_COMMA:  FOUND = '0'B;

   4618  3 001603   200012 450100       NEXT_COMMA   STZ     FOUND,,AUTO

     1920     4619    4                 SAVE_INDEX = 0;

   4619  3 001604   200007 450100                    STZ     SAVE_INDEX,,AUTO
PL6.E3A0      #007=THC$SELECT File=THC$COMMANDS.:E05TSI                          WED 07/30/97 06:11 Page:355

     1921     4620    5                 DO WHILE NOT FOUND;

   4620  3 001605   001652 710000 3                  TRA     s:4639

     1922     4621    6                   DO WHILE(SUBSTR(TH_LAST_MATCH.TEXT,JCNT,1) ~= ',');

   4621  3 001606   001641 710000 3                  TRA     s:4636

     1923     4622    6                      IF JCNT > TH_LAST_MATCH.COUNT

   4622  3 001607   000000 236000 xsym               LDQ     TH_LAST_MATCH
         3 001610   000033 772000                    QRL     27
         3 001611   200044 116100                    CMPQ    JCNT,,AUTO
         3 001612   001671 602000 3                  TNC     DEL_END_M

     1924     4623    6                        THEN GOTO DEL_END_M;
     1925     4624    6                        IF(SUBSTR(TH_LAST_MATCH.TEXT,JCNT,1) = '=')

   4624  3 001613   200044 235100                    LDA     JCNT,,AUTO
         3 001614   040000 106405                    CMPC    fill='040'O
         3 001615   000000 200001 xsym               ADSC9   TH_LAST_MATCH,A          cn=1,n=1
         3 001616   000034 000001 4                  ADSC9   28                       cn=0,n=1
         3 001617   001637 601000 3                  TNZ     s:4635

     1926     4625    7                        THEN DO;

     1927     4626    7                          SAVE_INDEX = JCNT - 5;

   4626  3 001620   000005 135007                    SBLA    5,DL
         3 001621   200007 755100                    STA     SAVE_INDEX,,AUTO

     1928     4627    7                          IF(SUBSTR(TH_LAST_MATCH.TEXT,JCNT+1,4) = FEP_CHAN)

   4627  3 001622   200044 235100                    LDA     JCNT,,AUTO
         3 001623   040100 106405                    CMPC    fill='040'O
         3 001624   000000 400004 xsym               ADSC9   TH_LAST_MATCH,A          cn=2,n=4
PL6.E3A0      #007=THC$SELECT File=THC$COMMANDS.:E05TSI                          WED 07/30/97 06:11 Page:356
         3 001625   200036 000004                    ADSC9   FEP_CHAN,,AUTO           cn=0,n=4
         3 001626   001634 601000 3                  TNZ     s:4632

     1929     4628    8                          THEN DO;JCNT = JCNT + 5;

   4628  3 001627   000005 035007                    ADLA    5,DL
         3 001630   200044 755100                    STA     JCNT,,AUTO

     1930     4629    8                                  FOUND = '1'B;

   4629  3 001631   400000 236003                    LDQ     -131072,DU
         3 001632   200012 756100                    STQ     FOUND,,AUTO

     1931     4630    8                          END;

   4630  3 001633   001641 710000 3                  TRA     s:4636

     1932     4631    7                          ELSE
     1933     4632    7                            JCNT = JCNT + 1;

   4632  3 001634   000001 035007                    ADLA    1,DL
         3 001635   200044 755100                    STA     JCNT,,AUTO

     1934     4633    7                        END;

   4633  3 001636   001641 710000 3                  TRA     s:4636

     1935     4634    6                      ELSE
     1936     4635    6                      JCNT = JCNT + 1;

   4635  3 001637   000001 035007                    ADLA    1,DL
         3 001640   200044 755100                    STA     JCNT,,AUTO

     1937     4636    6                   END; /* do while ~= ','*/

   4636  3 001641   200044 235100                    LDA     JCNT,,AUTO
         3 001642   040000 106405                    CMPC    fill='040'O
PL6.E3A0      #007=THC$SELECT File=THC$COMMANDS.:E05TSI                          WED 07/30/97 06:11 Page:357
         3 001643   000000 200001 xsym               ADSC9   TH_LAST_MATCH,A          cn=1,n=1
         3 001644   000035 000001 4                  ADSC9   29                       cn=0,n=1
         3 001645   001607 601000 3                  TNZ     s:4622

     1938     4637    5                   IF NOT FOUND THEN

   4637  3 001646   200012 234100                    SZN     FOUND,,AUTO
         3 001647   001652 604000 3                  TMI     s:4639

     1939     4638    5                     JCNT = JCNT + 1;

   4638  3 001650   000001 035007                    ADLA    1,DL
         3 001651   200044 755100                    STA     JCNT,,AUTO

     1940     4639    5                 END;

   4639  3 001652   200012 234100                    SZN     FOUND,,AUTO
         3 001653   001606 605000 3                  TPL     s:4621

     1941     4640    4                 IF DEL_TEST = 'BYT' AND TEMP$->OUT$BLK.SUBLK$(1)

   4640  3 001654   200042 236100                    LDQ     DEL_TEST,,AUTO
         3 001655   000006 676000 2                  ERQ     6
         3 001656   000010 376000 4                  ANQ     8
         3 001657   001671 601000 3                  TNZ     DEL_END_M
         3 001660   200021 470500                    LDP0    TEMP$,,AUTO
         3 001661   000004 471500                    LDP1    4,,PR0
         3 001662   100000 720100                    LXL0    0,,PR1
         3 001663   000001 100003                    CMPX0   1,DU
         3 001664   001671 601000 3                  TNZ     DEL_END_M

     1942     4641    4                      ->OUT$BLK.CODE = %BIT
     1943     4642    5                      THEN DO;

     1944     4643    5                           JCNT = JCNT + 1;

   4643  3 001665   200044 235100                    LDA     JCNT,,AUTO
PL6.E3A0      #007=THC$SELECT File=THC$COMMANDS.:E05TSI                          WED 07/30/97 06:11 Page:358
         3 001666   000001 035007                    ADLA    1,DL
         3 001667   200044 755100                    STA     JCNT,,AUTO

     1945     4644    5                           GOTO NEXT_COMMA;

   4644  3 001670   001603 710000 3                  TRA     NEXT_COMMA

     1946     4645    5                      END;
     1947     4646    4       DEL_END_M:
     1948     4647    4                 C_TEST = ' ';

   4647  3 001671   040100 100400       DEL_END_M    MLR     fill='040'O
         3 001672   000035 000001 xsym               ADSC9   B_VECTNIL+29             cn=0,n=1
         3 001673   200045 000167                    ADSC9   C_TEST,,AUTO             cn=0,n=119

     1949     4648    4                 IF SAVE_INDEX = 0 THEN

   4648  3 001674   200007 235100                    LDA     SAVE_INDEX,,AUTO
         3 001675   001706 601000 3                  TNZ     s:4650

     1950     4649    4                 CALL CONCAT(C_TEST,SUBSTR(TH_LAST_MATCH.TEXT,JCNT+1));

   4649  3 001676   200044 720100                    LXL0    JCNT,,AUTO
         3 001677   777611 620010                    EAX0    -119,X0
         3 001700   777777 660003                    ERX0    -1,DU
         3 001701   200044 236100                    LDQ     JCNT,,AUTO
         3 001702   040100 100446                    MLR     fill='040'O
         3 001703   000000 400010 xsym               ADSC9   TH_LAST_MATCH,Q          cn=2,n=*X0
         3 001704   200045 000167                    ADSC9   C_TEST,,AUTO             cn=0,n=119
         3 001705   001726 710000 3                  TRA     s:4652

     1951     4650    4                 ELSE CALL CONCAT(C_TEST,SUBSTR(TH_LAST_MATCH.TEXT,0,SAVE_INDEX),

   4650  3 001706   000000 620005                    EAX0    0,AL
         3 001707   040100 100440                    MLR     fill='040'O
         3 001710   000000 200010 xsym               ADSC9   TH_LAST_MATCH            cn=1,n=*X0
         3 001711   200045 000167                    ADSC9   C_TEST,,AUTO             cn=0,n=119
PL6.E3A0      #007=THC$SELECT File=THC$COMMANDS.:E05TSI                          WED 07/30/97 06:11 Page:359
         3 001712   200007 236100                    LDQ     SAVE_INDEX,,AUTO
         3 001713   000167 116007                    CMPQ    119,DL
         3 001714   001726 605000 3                  TPL     s:4652
         3 001715   200044 720100                    LXL0    JCNT,,AUTO
         3 001716   777611 620010                    EAX0    -119,X0
         3 001717   777777 660003                    ERX0    -1,DU
         3 001720   777610 621006                    EAX1    -120,QL
         3 001721   777777 661003                    ERX1    -1,DU
         3 001722   200044 235100                    LDA     JCNT,,AUTO
         3 001723   040146 100445                    MLR     fill='040'O
         3 001724   000000 400010 xsym               ADSC9   TH_LAST_MATCH,A          cn=2,n=*X0
         3 001725   200045 000011                    ADSC9   C_TEST,Q,AUTO            cn=0,n=*X1

     1952     4651    4                                  SUBSTR(TH_LAST_MATCH.TEXT,JCNT+1));
     1953     4652    4                 TH_LAST_MATCH.TEXT = C_TEST;

   4652  3 001726   040000 100500                    MLR     fill='040'O
         3 001727   200045 000167                    ADSC9   C_TEST,,AUTO             cn=0,n=119
         3 001730   000000 200167 xsym               ADSC9   TH_LAST_MATCH            cn=1,n=119

     1954     4653    4                 IF JCNT > TH_LAST_MATCH.COUNT

   4653  3 001731   000000 236000 xsym               LDQ     TH_LAST_MATCH
         3 001732   000033 772000                    QRL     27
         3 001733   200044 116100                    CMPQ    JCNT,,AUTO
         3 001734   001746 603000 3                  TRC     s:4657

     1955     4654    4                    THEN
     1956     4655    4                      TH_LAST_MATCH.COUNT=TH_LAST_MATCH.COUNT-(JCNT-JJ);

   4655  3 001735   200044 236100                    LDQ     JCNT,,AUTO
         3 001736   200043 136100                    SBLQ    JJ,,AUTO
         3 001737   200104 756100                    STQ     C_TEST+31,,AUTO
         3 001740   000000 236000 xsym               LDQ     TH_LAST_MATCH
         3 001741   000033 772000                    QRL     27
         3 001742   200104 136100                    SBLQ    C_TEST+31,,AUTO
         3 001743   000033 736000                    QLS     27
PL6.E3A0      #007=THC$SELECT File=THC$COMMANDS.:E05TSI                          WED 07/30/97 06:11 Page:360
         3 001744   000000 552040 xsym               STBQ    TH_LAST_MATCH,'40'O
         3 001745   001753 710000 3                  TRA     s:4659

     1957     4656    4                    ELSE
     1958     4657    4                    TH_LAST_MATCH.COUNT = TH_LAST_MATCH.COUNT - (JCNT+1) + SAVE_INDEX;

   4657  3 001746   200044 136100                    SBLQ    JCNT,,AUTO
         3 001747   200007 036100                    ADLQ    SAVE_INDEX,,AUTO
         3 001750   000001 136007                    SBLQ    1,DL
         3 001751   000033 736000                    QLS     27
         3 001752   000000 552040 xsym               STBQ    TH_LAST_MATCH,'40'O

     1959     4658    4                 END;

     1960     4659    3            END;                          /* DO I = J   */

   4659  3 001753   200004 054100                    AOS     I,,AUTO
         3 001754   200003 470500                    LDP0    @TOP$,,AUTO
         3 001755   000000 471500                    LDP1    0,,PR0
         3 001756   100001 236100                    LDQ     1,,PR1
         3 001757   000022 772000                    QRL     18
         3 001760   200004 116100                    CMPQ    I,,AUTO
         3 001761   000214 605400 3                  TPNZ    s:4317

     1961     4660    2             IF MATCH_DEL

   4660  3 001762   200022 234100                    SZN     MATCH_DEL,,AUTO
         3 001763   004123 604000 3                  TMI     s:5121

     1962     4661    2                 THEN ;
     1963     4662    3                 ELSE DO;

     1964     4663    3            CALL INDEX(INDX,' ',TEXTBASE);

   4663  3 001764   000000 473400 xsym               LDP3    P_PCB
         3 001765   000011 720000 xsym               LXL0    P_PCB+9
         3 001766   000000 124540                    SCM     mask='000'O
PL6.E3A0      #007=THC$SELECT File=THC$COMMANDS.:E05TSI                          WED 07/30/97 06:11 Page:361
         3 001767   300000 000010                    ADSC9   0,,PR3                   cn=0,n=*X0
         3 001770   000035 000001 xsym               ADSC9   B_VECTNIL+29             cn=0,n=1
         3 001771   200017 000100                    ARG     INDX,,AUTO

     1965     4664    4            DO WHILE(SUBSTR(TEXTBASE,INDX,1) = ' ');

   4664  3 001772   001776 710000 3                  TRA     s:4666

     1966     4665    4                 INDX = INDX + 1;

   4665  3 001773   200017 235100                    LDA     INDX,,AUTO
         3 001774   000001 035007                    ADLA    1,DL
         3 001775   200017 755100                    STA     INDX,,AUTO

     1967     4666    4            END;    /* OF WHILE */

   4666  3 001776   000000 470400 xsym               LDP0    P_PCB
         3 001777   200017 235100                    LDA     INDX,,AUTO
         3 002000   040000 106505                    CMPC    fill='040'O
         3 002001   000000 000001                    ADSC9   0,A,PR0                  cn=0,n=1
         3 002002   000035 000001 xsym               ADSC9   B_VECTNIL+29             cn=0,n=1
         3 002003   001773 600000 3                  TZE     s:4665

     1968     4667    3             IF MATCH_ADD

   4667  3 002004   200040 234100                    SZN     MATCH_ADD,,AUTO
         3 002005   002101 605000 3                  TPL     s:4681

     1969     4668    4               THEN DO;

     1970     4669    4                 CALL INDEX(JJ,' ',SUBSTR(TEXTBASE,INDX,P_PCB.NCHARS-INDX));

   4669  3 002006   000011 236000 xsym               LDQ     P_PCB+9
         3 002007   200017 136100                    SBLQ    INDX,,AUTO
         3 002010   000000 620006                    EAX0    0,QL
         3 002011   000000 124545                    SCM     mask='000'O
         3 002012   000000 000010                    ADSC9   0,A,PR0                  cn=0,n=*X0
PL6.E3A0      #007=THC$SELECT File=THC$COMMANDS.:E05TSI                          WED 07/30/97 06:11 Page:362
         3 002013   000035 000001 xsym               ADSC9   B_VECTNIL+29             cn=0,n=1
         3 002014   200043 000100                    ARG     JJ,,AUTO

     1971     4670    5                 DO WHILE (SUBSTR(TEXTBASE,JJ,1) = ' ');

   4670  3 002015   002021 710000 3                  TRA     s:4672

     1972     4671    5                   JJ = JJ + 1;

   4671  3 002016   200043 235100                    LDA     JJ,,AUTO
         3 002017   000001 035007                    ADLA    1,DL
         3 002020   200043 755100                    STA     JJ,,AUTO

     1973     4672    5                 END;

   4672  3 002021   000000 470400 xsym               LDP0    P_PCB
         3 002022   200043 235100                    LDA     JJ,,AUTO
         3 002023   040000 106505                    CMPC    fill='040'O
         3 002024   000000 000001                    ADSC9   0,A,PR0                  cn=0,n=1
         3 002025   000035 000001 xsym               ADSC9   B_VECTNIL+29             cn=0,n=1
         3 002026   002016 600000 3                  TZE     s:4671

     1974     4673    4                 JJ = JJ + INDX;

   4673  3 002027   200043 236100                    LDQ     JJ,,AUTO
         3 002030   200017 036100                    ADLQ    INDX,,AUTO
         3 002031   200043 756100                    STQ     JJ,,AUTO

     1975     4674    4                 JJ = P_PCB.NCHARS - JJ;

   4674  3 002032   000011 236000 xsym               LDQ     P_PCB+9
         3 002033   200043 136100                    SBLQ    JJ,,AUTO
         3 002034   200043 756100                    STQ     JJ,,AUTO

     1976     4675    4                 TH_LAST_MATCH.COUNT = TH_LAST_MATCH.COUNT + JJ + 1;

   4675  3 002035   000000 236000 xsym               LDQ     TH_LAST_MATCH
PL6.E3A0      #007=THC$SELECT File=THC$COMMANDS.:E05TSI                          WED 07/30/97 06:11 Page:363
         3 002036   000033 772000                    QRL     27
         3 002037   200043 036100                    ADLQ    JJ,,AUTO
         3 002040   000001 036007                    ADLQ    1,DL
         3 002041   000033 736000                    QLS     27
         3 002042   000000 552040 xsym               STBQ    TH_LAST_MATCH,'40'O

     1977     4676    4                 CALL INSERT(TH_LAST_MATCH.TEXT,,,SUBSTR(TH_LAST_MATCH.TEXT,

   4676  3 002043   000000 236000 xsym               LDQ     TH_LAST_MATCH
         3 002044   000033 772000                    QRL     27
         3 002045   200043 136100                    SBLQ    JJ,,AUTO
         3 002046   200104 756100                    STQ     C_TEST+31,,AUTO
         3 002047   000011 236000 xsym               LDQ     P_PCB+9
         3 002050   200043 136100                    SBLQ    JJ,,AUTO
         3 002051   200104 720100                    LXL0    C_TEST+31,,AUTO
         3 002052   777777 621010                    EAX1    -1,X0
         3 002053   040000 100440                    MLR     fill='040'O
         3 002054   000000 200011 xsym               ADSC9   TH_LAST_MATCH            cn=1,n=*X1
         3 002055   000000 200167 xsym               ADSC9   TH_LAST_MATCH            cn=1,n=119
         3 002056   200105 756100                    STQ     C_TEST+32,,AUTO
         3 002057   200104 236100                    LDQ     C_TEST+31,,AUTO
         3 002060   000170 116007                    CMPQ    120,DL
         3 002061   002100 605000 3                  TPL     s:4679
         3 002062   777607 622006                    EAX2    -121,QL
         3 002063   777777 662003                    ERX2    -1,DU
         3 002064   040046 100400                    MLR     fill='040'O
         3 002065   000035 000001 4                  ADSC9   29                       cn=0,n=1
         3 002066   000000 000012 xsym               ADSC9   TH_LAST_MATCH,Q          cn=0,n=*X2
         3 002067   000167 116007                    CMPQ    119,DL
         3 002070   002100 605000 3                  TPL     s:4679
         3 002071   777610 623006                    EAX3    -120,QL
         3 002072   777777 663003                    ERX3    -1,DU
         3 002073   200043 724100                    LXL4    JJ,,AUTO
         3 002074   200105 235100                    LDA     C_TEST+32,,AUTO
         3 002075   040046 100545                    MLR     fill='040'O
         3 002076   000000 000014                    ADSC9   0,A,PR0                  cn=0,n=*X4
         3 002077   000000 200013 xsym               ADSC9   TH_LAST_MATCH,Q          cn=1,n=*X3
PL6.E3A0      #007=THC$SELECT File=THC$COMMANDS.:E05TSI                          WED 07/30/97 06:11 Page:364

     1978     4677    4                             0,TH_LAST_MATCH.COUNT-JJ-1),',',SUBSTR(TEXTBASE,
     1979     4678    4                             P_PCB.NCHARS-JJ,JJ));
     1980     4679    4               END;

   4679  3 002100   004123 710000 3                  TRA     s:5121

     1981     4680    4               ELSE DO;

     1982     4681    4            TH_LAST_MATCH.COUNT = P_PCB.NCHARS-INDX;

   4681  3 002101   000011 236000 xsym               LDQ     P_PCB+9
         3 002102   200017 136100                    SBLQ    INDX,,AUTO
         3 002103   000033 736000                    QLS     27
         3 002104   000000 552040 xsym               STBQ    TH_LAST_MATCH,'40'O

     1983     4682    4            TH_LAST_MATCH.TEXT = SUBSTR(TEXTBASE,INDX,P_PCB.NCHARS-INDX);

   4682  3 002105   000011 236000 xsym               LDQ     P_PCB+9
         3 002106   200017 136100                    SBLQ    INDX,,AUTO
         3 002107   000000 620006                    EAX0    0,QL
         3 002110   040000 100545                    MLR     fill='040'O
         3 002111   000000 000010                    ADSC9   0,A,PR0                  cn=0,n=*X0
         3 002112   000000 200167 xsym               ADSC9   TH_LAST_MATCH            cn=1,n=119

     1984     4683    4            END;

     1985     4684    3       END;

   4684  3 002113   004123 710000 3                  TRA     s:5121

     1986     4685    2            CASE (%EXCLUDE);

     1987     4686                                               /* PROCESS EXCLUDE COMMAND         */
     1988     4687    2              EXCLUDE_DEL = %NO;

   4687  3 002114   200023 450100                    STZ     EXCLUDE_DEL,,AUTO
PL6.E3A0      #007=THC$SELECT File=THC$COMMANDS.:E05TSI                          WED 07/30/97 06:11 Page:365

     1989     4688    2            EXCLUDE_ADD = %NO;

   4688  3 002115   200041 450100                    STZ     EXCLUDE_ADD,,AUTO

     1990     4689    2              IF OUT$BLK.SUBLK$(0)->OUT$BLK.CODE = %DELETEE

   4689  3 002116   100003 473500                    LDP3    3,,PR1
         3 002117   300000 721100                    LXL1    0,,PR3
         3 002120   000026 101003                    CMPX1   22,DU
         3 002121   002127 601000 3                  TNZ     s:4695

     1991     4690    3                 THEN DO;

     1992     4691    3                      EXCLUDE_DEL = %YES;

   4691  3 002122   400000 236003                    LDQ     -131072,DU
         3 002123   200023 756100                    STQ     EXCLUDE_DEL,,AUTO

     1993     4692    3                      J = 1;

   4692  3 002124   000001 235007                    LDA     1,DL
         3 002125   200005 755100                    STA     J,,AUTO

     1994     4693    3                      END;

   4693  3 002126   002162 710000 3                  TRA     s:4712

     1995     4694    2                 ELSE
     1996     4695    2                      IF OUT$BLK.SUBLK$(0)->OUT$BLK.CODE = %ADDD

   4695  3 002127   000013 101003                    CMPX1   11,DU
         3 002130   002136 601000 3                  TNZ     s:4701

     1997     4696    3                           THEN DO;

     1998     4697    3                                J = 1;
PL6.E3A0      #007=THC$SELECT File=THC$COMMANDS.:E05TSI                          WED 07/30/97 06:11 Page:366

   4697  3 002131   000001 235007                    LDA     1,DL
         3 002132   200005 755100                    STA     J,,AUTO

     1999     4698    3                                EXCLUDE_ADD = %YES;

   4698  3 002133   400000 236003                    LDQ     -131072,DU
         3 002134   200041 756100                    STQ     EXCLUDE_ADD,,AUTO

     2000     4699    3                                END;

   4699  3 002135   002162 710000 3                  TRA     s:4712

     2001     4700    3                           ELSE DO;

     2002     4701    3                                J = 0;

   4701  3 002136   200005 450100                    STZ     J,,AUTO

     2003     4702    3                                TH_CONSTRAINTS.E_BY_B_SET = %NO;

   4702  3 002137   003000 060400                    CSL     bolr='003'O
         3 002140   000002 000011 xsym               BDSC    B_VECTNIL+2              by=0,bit=0,n=9
         3 002141   000050 010440 xsym               BDSC    TH_CONSTRAINTS+40        by=0,bit=1,n=288

     2004     4703    3                                TH_CONSTRAINTS.E_MAJ_S = %NO;

   4703  3 002142   000036 236000 4                  LDQ     30
         3 002143   000036 356000 xsym               ANSQ    TH_CONSTRAINTS+30

     2005     4704    3                                TH_CONSTRAINTS.E_SUB_S = %NO;

   4704  3 002144   000037 236000 4                  LDQ     31
         3 002145   000036 356000 xsym               ANSQ    TH_CONSTRAINTS+30

     2006     4705    3                                TH_CONSTRAINTS.E_MED_S = %NO;

PL6.E3A0      #007=THC$SELECT File=THC$COMMANDS.:E05TSI                          WED 07/30/97 06:11 Page:367
   4705  3 002146   000031 236000 xsym               LDQ     B_VECTNIL+25
         3 002147   000040 356000 xsym               ANSQ    TH_CONSTRAINTS+32

     2007     4706    3                                TH_CONSTRAINTS.E_FEP_SET = %NO;

   4706  3 002150   000002 236000 4                  LDQ     2
         3 002151   000063 356000 xsym               ANSQ    TH_CONSTRAINTS+51

     2008     4707    3                                TH_CONSTRAINTS.E_CHAN_SET = %NO;

   4707  3 002152   000031 236000 xsym               LDQ     B_VECTNIL+25
         3 002153   000065 356000 xsym               ANSQ    TH_CONSTRAINTS+53

     2009     4708    3                                TH_CONSTRAINTS.E_COD_SET = %NO;

   4708  3 002154   000040 236000 4                  LDQ     32
         3 002155   000066 356000 xsym               ANSQ    TH_CONSTRAINTS+54

     2010     4709    3                                TH_CONSTRAINTS.E_REA_SET = %NO;

   4709  3 002156   000037 236000 4                  LDQ     31
         3 002157   000066 356000 xsym               ANSQ    TH_CONSTRAINTS+54

     2011     4710    3                                TH_CONSTRAINTS.E_ACT_SET = %NO;

   4710  3 002160   000041 236000 4                  LDQ     33
         3 002161   000066 356000 xsym               ANSQ    TH_CONSTRAINTS+54

     2012     4711    3                                END;

     2013     4712    3              DO I = J TO OUT$BLK.NSUBLKS - 1;

   4712  3 002162   200005 235100                    LDA     J,,AUTO
         3 002163   200004 755100                    STA     I,,AUTO
         3 002164   003566 710000 3                  TRA     s:4998+1

     2014     4713    3                 TEMP$ = OUT$BLK.SUBLK$(I)->OUT$BLK.SUBLK$(0);
PL6.E3A0      #007=THC$SELECT File=THC$COMMANDS.:E05TSI                          WED 07/30/97 06:11 Page:368

   4713  3 002165   200003 470500                    LDP0    @TOP$,,AUTO
         3 002166   000000 471500                    LDP1    0,,PR0
         3 002167   200004 720100                    LXL0    I,,AUTO
         3 002170   100003 473510                    LDP3    3,X0,PR1
         3 002171   300003 236100                    LDQ     3,,PR3
         3 002172   200021 756100                    STQ     TEMP$,,AUTO

     2015     4714    4                 DO CASE(TEMP$->OUT$BLK.CODE);

   4714  3 002173   200021 474500                    LDP4    TEMP$,,AUTO
         3 002174   400000 721100                    LXL1    0,,PR4
         3 002175   000012 101003                    CMPX1   10,DU
         3 002176   002200 602011 3                  TNC     s:4714+5,X1
         3 002177   003442 710000 3                  TRA     s:4971
         3 002200   003442 710000 3                  TRA     s:4971
         3 002201   002212 710000 3                  TRA     s:4716
         3 002202   002325 710000 3                  TRA     s:4744
         3 002203   002742 710000 3                  TRA     s:4836
         3 002204   003011 710000 3                  TRA     s:4851
         3 002205   003254 710000 3                  TRA     s:4923
         3 002206   003332 710000 3                  TRA     s:4941
         3 002207   002451 710000 3                  TRA     s:4773
         3 002210   002554 710000 3                  TRA     s:4796
         3 002211   002660 710000 3                  TRA     s:4819

     2016     4715    4                    CASE(%MAJ);

     2017     4716    4                      IF TEMP$->OUT$BLK.SUBLK$(0)->OUT$SYM.COUNT = 2

   4716  3 002212   400003 475500                    LDP5    3,,PR4
         3 002213   500004 236100                    LDQ     4,,PR5
         3 002214   777000 376003                    ANQ     -512,DU
         3 002215   002000 116003                    CMPQ    1024,DU
         3 002216   002244 601000 3                  TNZ     s:4726

     2018     4717    5                        THEN DO;
PL6.E3A0      #007=THC$SELECT File=THC$COMMANDS.:E05TSI                          WED 07/30/97 06:11 Page:369

     2019     4718    5                           SUB = TEMP$->OUT$BLK.SUBLK$(0)->OUT$SYM.TEXT;

   4718  3 002217   500004 236100                    LDQ     4,,PR5
         3 002220   000033 772000                    QRL     27
         3 002221   000000 622006                    EAX2    0,QL
         3 002222   040100 100540                    MLR     fill='040'O
         3 002223   500004 200012                    ADSC9   4,,PR5                   cn=1,n=*X2
         3 002224   200025 000003                    ADSC9   SUB,,AUTO                cn=0,n=3

     2020     4719    5                           CALL CHARBIN(SUB_BIN,SUBB(0));

   4719  3 002225   000100 305500                    DTB
         3 002226   200025 030001                    NDSC9   SUB,,AUTO                cn=0,s=nosgn,sf=0,n=1
         3 002227   200026 000004                    NDSC9   SUB_BIN,,AUTO            cn=0,s=lsgnf,sf=0,n=4

     2021     4720    5                           VALUE = SUB_BIN * 8;

   4720  3 002230   200026 235100                    LDA     SUB_BIN,,AUTO
         3 002231   000003 735000                    ALS     3
         3 002232   200020 755100                    STA     VALUE,,AUTO

     2022     4721    5                           CALL CHARBIN(SUB_BIN,SUBB(1));

   4721  3 002233   000100 305500                    DTB
         3 002234   200025 230001                    NDSC9   SUB,,AUTO                cn=1,s=nosgn,sf=0,n=1
         3 002235   200026 000004                    NDSC9   SUB_BIN,,AUTO            cn=0,s=lsgnf,sf=0,n=4

     2023     4722    5                           VALUE = VALUE + SUB_BIN;

   4722  3 002236   200020 236100                    LDQ     VALUE,,AUTO
         3 002237   200026 036100                    ADLQ    SUB_BIN,,AUTO
         3 002240   200020 756100                    STQ     VALUE,,AUTO

     2024     4723    5                           MAJOR = VALUE;

   4723  3 002241   000036 736000                    QLS     30
PL6.E3A0      #007=THC$SELECT File=THC$COMMANDS.:E05TSI                          WED 07/30/97 06:11 Page:370
         3 002242   200024 756100                    STQ     MAJOR,,AUTO

     2025     4724    5                           END;

   4724  3 002243   002256 710000 3                  TRA     s:4730

     2026     4725    5                        ELSE DO;

     2027     4726    5                           CALL CHARBIN(VALUE,TEMP$->OUT$BLK.SUBLK$(0)

   4726  3 002244   500004 236100                    LDQ     4,,PR5
         3 002245   000033 772000                    QRL     27
         3 002246   000000 622006                    EAX2    0,QL
         3 002247   000100 305540                    DTB
         3 002250   500004 230012                    NDSC9   4,,PR5                   cn=1,s=nosgn,sf=0,n=*X2
         3 002251   200104 000010                    NDSC9   C_TEST+31,,AUTO          cn=0,s=lsgnf,sf=0,n=8
         3 002252   200105 235100                    LDA     C_TEST+32,,AUTO
         3 002253   200020 755100                    STA     VALUE,,AUTO

     2028     4727    5                                        ->OUT$SYM.TEXT);
     2029     4728    5                           MAJOR = VALUE;

   4728  3 002254   000036 735000                    ALS     30
         3 002255   200024 755100                    STA     MAJOR,,AUTO

     2030     4729    5                           END;

     2031     4730    4                      IF EXCLUDE_DEL

   4730  3 002256   200023 234100                    SZN     EXCLUDE_DEL,,AUTO
         3 002257   002311 605000 3                  TPL     s:4739

     2032     4731    4                        THEN
     2033     4732    4                          IF ((TH_CONSTRAINTS.E_MAJ_S) & (MAJOR=TH_CONSTRAINTS.E_MAJ))

   4732  3 002260   400000 221003                    LDX1    -131072,DU
         3 002261   000036 236000 xsym               LDQ     TH_CONSTRAINTS+30
PL6.E3A0      #007=THC$SELECT File=THC$COMMANDS.:E05TSI                          WED 07/30/97 06:11 Page:371
         3 002262   000035 772000                    QRL     29
         3 002263   000077 376007                    ANQ     63,DL
         3 002264   200104 756100                    STQ     C_TEST+31,,AUTO
         3 002265   200024 236100                    LDQ     MAJOR,,AUTO
         3 002266   000036 772000                    QRL     30
         3 002267   200104 116100                    CMPQ    C_TEST+31,,AUTO
         3 002270   002272 600000 3                  TZE     s:4732+10
         3 002271   000000 221003                    LDX1    0,DU
         3 002272   000036 236000 xsym               LDQ     TH_CONSTRAINTS+30
         3 002273   000007 736000                    QLS     7
         3 002274   400000 376003                    ANQ     -131072,DU
         3 002275   200105 756100                    STQ     C_TEST+32,,AUTO
         3 002276   000000 636011                    EAQ     0,X1
         3 002277   200105 376100                    ANQ     C_TEST+32,,AUTO
         3 002300   002304 600000 3                  TZE     s:4735

     2034     4733    4                             THEN TH_CONSTRAINTS.E_MAJ_S = %NO;

   4733  3 002301   000036 236000 4                  LDQ     30
         3 002302   000036 356000 xsym               ANSQ    TH_CONSTRAINTS+30
         3 002303   002320 710000 3                  TRA     s:4742

     2035     4734    5                             ELSE DO;

     2036     4735    5                                  CALL THM$ERRMSG(%E$TH_BAD_MAJ);

   4735  3 002304   000007 630400 4                  EPPR0   7
         3 002305   000017 631400 xsym               EPPR1   B_VECTNIL+15
         3 002306   000000 701000 xent               TSX1    THM$ERRMSG
         3 002307   000000 011000                    NOP     0

     2037     4736    5                                  ALTRETURN;

   4736  3 002310   000000 702200 xent               TSX2  ! X66_AALT

     2038     4737    5                                  END;
     2039     4738    5                        ELSE DO;
PL6.E3A0      #007=THC$SELECT File=THC$COMMANDS.:E05TSI                          WED 07/30/97 06:11 Page:372

     2040     4739    5                             TH_CONSTRAINTS.E_MAJ_S = %YES;

   4739  3 002311   002000 236003                    LDQ     1024,DU
         3 002312   000036 256000 xsym               ORSQ    TH_CONSTRAINTS+30

     2041     4740    5                             TH_CONSTRAINTS.E_MAJ = MAJOR;

   4740  3 002313   200024 236100                    LDQ     MAJOR,,AUTO
         3 002314   000001 772000                    QRL     1
         3 002315   000036 676000 xsym               ERQ     TH_CONSTRAINTS+30
         3 002316   374000 376003                    ANQ     129024,DU
         3 002317   000036 656000 xsym               ERSQ    TH_CONSTRAINTS+30

     2042     4741    5                             END;

     2043     4742    4                      DEL_TEST = 'MAJ';

   4742  3 002320   000000 236000 2                  LDQ     0
         3 002321   000010 376000 4                  ANQ     8
         3 002322   000040 276007                    ORQ     32,DL
         3 002323   200042 756100                    STQ     DEL_TEST,,AUTO
         3 002324   003442 710000 3                  TRA     s:4971

     2044     4743    4                    CASE(%SUB);

     2045     4744    4                     IF TEMP$->OUT$BLK.SUBLK$(0)->OUT$SYM.COUNT = 2

   4744  3 002325   400003 475500                    LDP5    3,,PR4
         3 002326   500004 236100                    LDQ     4,,PR5
         3 002327   777000 376003                    ANQ     -512,DU
         3 002330   002000 116003                    CMPQ    1024,DU
         3 002331   002362 601000 3                  TNZ     s:4753

     2046     4745    5                      THEN DO;

     2047     4746    5                      SUB = TEMP$->OUT$BLK.SUBLK$(0)->OUT$SYM.TEXT;
PL6.E3A0      #007=THC$SELECT File=THC$COMMANDS.:E05TSI                          WED 07/30/97 06:11 Page:373

   4746  3 002332   500004 236100                    LDQ     4,,PR5
         3 002333   000033 772000                    QRL     27
         3 002334   000000 622006                    EAX2    0,QL
         3 002335   040100 100540                    MLR     fill='040'O
         3 002336   500004 200012                    ADSC9   4,,PR5                   cn=1,n=*X2
         3 002337   200025 000003                    ADSC9   SUB,,AUTO                cn=0,n=3

     2048     4747    5                      CALL CHARBIN(SUB_BIN,SUBB(0));

   4747  3 002340   000100 305500                    DTB
         3 002341   200025 030001                    NDSC9   SUB,,AUTO                cn=0,s=nosgn,sf=0,n=1
         3 002342   200026 000004                    NDSC9   SUB_BIN,,AUTO            cn=0,s=lsgnf,sf=0,n=4

     2049     4748    5                      SUB_BIT.ONE = BINBIT(SUB_BIN,3);

   4748  3 002343   200026 236100                    LDQ     SUB_BIN,,AUTO
         3 002344   000041 736000                    QLS     33
         3 002345   200027 676100                    ERQ     SUB_BIT,,AUTO
         3 002346   700000 376003                    ANQ     -32768,DU
         3 002347   200027 656100                    ERSQ    SUB_BIT,,AUTO

     2050     4749    5                      CALL CHARBIN(SUB_BIN,SUBB(1));

   4749  3 002350   000100 305500                    DTB
         3 002351   200025 230001                    NDSC9   SUB,,AUTO                cn=1,s=nosgn,sf=0,n=1
         3 002352   200026 000004                    NDSC9   SUB_BIN,,AUTO            cn=0,s=lsgnf,sf=0,n=4

     2051     4750    5                      SUB_BIT.TWO = BINBIT(SUB_BIN,3);

   4750  3 002353   200026 236100                    LDQ     SUB_BIN,,AUTO
         3 002354   000041 736000                    QLS     33
         3 002355   000003 772000                    QRL     3
         3 002356   200027 676100                    ERQ     SUB_BIT,,AUTO
         3 002357   070000 376003                    ANQ     28672,DU
         3 002360   200027 656100                    ERSQ    SUB_BIT,,AUTO

PL6.E3A0      #007=THC$SELECT File=THC$COMMANDS.:E05TSI                          WED 07/30/97 06:11 Page:374
     2052     4751    5                      END;

   4751  3 002361   002406 710000 3                  TRA     s:4759

     2053     4752    5                      ELSE DO;

     2054     4753    5                           SUB_BIN = 0;

   4753  3 002362   200026 450100                    STZ     SUB_BIN,,AUTO

     2055     4754    5                           SUB_BIT.ONE = BINBIT(SUB_BIN,3);

   4754  3 002363   200026 236100                    LDQ     SUB_BIN,,AUTO
         3 002364   000041 736000                    QLS     33
         3 002365   200027 676100                    ERQ     SUB_BIT,,AUTO
         3 002366   700000 376003                    ANQ     -32768,DU
         3 002367   200027 656100                    ERSQ    SUB_BIT,,AUTO

     2056     4755    5                           CALL CHARBIN(SUB_BIN,TEMP$->OUT$BLK.SUBLK$(0)

   4755  3 002370   500004 236100                    LDQ     4,,PR5
         3 002371   000033 772000                    QRL     27
         3 002372   000000 622006                    EAX2    0,QL
         3 002373   000100 305540                    DTB
         3 002374   500004 230012                    NDSC9   4,,PR5                   cn=1,s=nosgn,sf=0,n=*X2
         3 002375   200104 000010                    NDSC9   C_TEST+31,,AUTO          cn=0,s=lsgnf,sf=0,n=8
         3 002376   200105 235100                    LDA     C_TEST+32,,AUTO
         3 002377   200026 755100                    STA     SUB_BIN,,AUTO

     2057     4756    5                                        ->OUT$SYM.TEXT);
     2058     4757    5                           SUB_BIT.TWO = BINBIT(SUB_BIN,3);

   4757  3 002400   200026 236100                    LDQ     SUB_BIN,,AUTO
         3 002401   000041 736000                    QLS     33
         3 002402   000003 772000                    QRL     3
         3 002403   200027 676100                    ERQ     SUB_BIT,,AUTO
         3 002404   070000 376003                    ANQ     28672,DU
PL6.E3A0      #007=THC$SELECT File=THC$COMMANDS.:E05TSI                          WED 07/30/97 06:11 Page:375
         3 002405   200027 656100                    ERSQ    SUB_BIT,,AUTO

     2059     4758    5                           END;

     2060     4759    4                      IF EXCLUDE_DEL

   4759  3 002406   200023 234100                    SZN     EXCLUDE_DEL,,AUTO
         3 002407   002435 605000 3                  TPL     s:4768

     2061     4760    4                        THEN
     2062     4761    4                          IF ((TH_CONSTRAINTS.E_SUB_S)&(SUBB_BIT=TH_CONSTRAINTS.E_SUB)
              4761                                    )

   4761  3 002410   400000 221003                    LDX1    -131072,DU
         3 002411   000000 066500                    CMPB    filb='0'B
         3 002412   200027 000006                    BDSC    SUB_BIT,,AUTO            by=0,bit=0,n=6
         3 002413   000036 100006 xsym               BDSC    TH_CONSTRAINTS+30        by=0,bit=8,n=6
         3 002414   002416 600000 3                  TZE     s:4761+6
         3 002415   000000 221003                    LDX1    0,DU
         3 002416   000036 236000 xsym               LDQ     TH_CONSTRAINTS+30
         3 002417   000016 736000                    QLS     14
         3 002420   400000 376003                    ANQ     -131072,DU
         3 002421   200104 756100                    STQ     C_TEST+31,,AUTO
         3 002422   000000 636011                    EAQ     0,X1
         3 002423   200104 376100                    ANQ     C_TEST+31,,AUTO
         3 002424   002430 600000 3                  TZE     s:4764

     2063     4762    4                             THEN TH_CONSTRAINTS.E_SUB_S = %NO;

   4762  3 002425   000037 236000 4                  LDQ     31
         3 002426   000036 356000 xsym               ANSQ    TH_CONSTRAINTS+30
         3 002427   002444 710000 3                  TRA     s:4771

     2064     4763    5                             ELSE DO;

     2065     4764    5                                  CALL THM$ERRMSG(%E$TH_BAD_SUB);

PL6.E3A0      #007=THC$SELECT File=THC$COMMANDS.:E05TSI                          WED 07/30/97 06:11 Page:376
   4764  3 002430   000012 630400 4                  EPPR0   10
         3 002431   000017 631400 xsym               EPPR1   B_VECTNIL+15
         3 002432   000000 701000 xent               TSX1    THM$ERRMSG
         3 002433   000000 011000                    NOP     0

     2066     4765    5                                  ALTRETURN;

   4765  3 002434   000000 702200 xent               TSX2  ! X66_AALT

     2067     4766    5                                  END;
     2068     4767    5                        ELSE DO;

     2069     4768    5                           TH_CONSTRAINTS.E_SUB_S = %YES;

   4768  3 002435   000010 236003                    LDQ     8,DU
         3 002436   000036 256000 xsym               ORSQ    TH_CONSTRAINTS+30

     2070     4769    5                           TH_CONSTRAINTS.E_SUB = SUBB_BIT;

   4769  3 002437   200027 236100                    LDQ     SUB_BIT,,AUTO
         3 002440   000010 772000                    QRL     8
         3 002441   000036 676000 xsym               ERQ     TH_CONSTRAINTS+30
         3 002442   001760 376003                    ANQ     1008,DU
         3 002443   000036 656000 xsym               ERSQ    TH_CONSTRAINTS+30

     2071     4770    5                           END;

     2072     4771    4                      DEL_TEST = 'SUB';

   4771  3 002444   000001 236000 2                  LDQ     1
         3 002445   000010 376000 4                  ANQ     8
         3 002446   000040 276007                    ORQ     32,DL
         3 002447   200042 756100                    STQ     DEL_TEST,,AUTO
         3 002450   003442 710000 3                  TRA     s:4971

     2073     4772    4                    CASE(%COD);

PL6.E3A0      #007=THC$SELECT File=THC$COMMANDS.:E05TSI                          WED 07/30/97 06:11 Page:377
     2074     4773    4                      VALUE = 0;

   4773  3 002451   200020 450100                    STZ     VALUE,,AUTO

     2075     4774    4                      SUB = TEMP$->OUT$BLK.SUBLK$(0)->OUT$SYM.TEXT;

   4774  3 002452   400003 475500                    LDP5    3,,PR4
         3 002453   500004 236100                    LDQ     4,,PR5
         3 002454   000033 772000                    QRL     27
         3 002455   000000 622006                    EAX2    0,QL
         3 002456   040100 100540                    MLR     fill='040'O
         3 002457   500004 200012                    ADSC9   4,,PR5                   cn=1,n=*X2
         3 002460   200025 000003                    ADSC9   SUB,,AUTO                cn=0,n=3

     2076     4775    5                      DO K = 0 TO TEMP$->OUT$BLK.SUBLK$(0)->OUT$SYM.COUNT - 1;

   4775  3 002461   200006 450100                    STZ     K,,AUTO
         3 002462   002475 710000 3                  TRA     s:4779+1

     2077     4776    5                         VALUE = VALUE * 10;

   4776  3 002463   200020 236100                    LDQ     VALUE,,AUTO
         3 002464   000012 402007                    MPY     10,DL
         3 002465   200020 756100                    STQ     VALUE,,AUTO

     2078     4777    5                         CALL CHARBIN(SUB_BIN,SUBB(K));

   4777  3 002466   200006 235100                    LDA     K,,AUTO
         3 002467   000100 305505                    DTB
         3 002470   200025 030001                    NDSC9   SUB,A,AUTO               cn=0,s=nosgn,sf=0,n=1
         3 002471   200026 000004                    NDSC9   SUB_BIN,,AUTO            cn=0,s=lsgnf,sf=0,n=4

     2079     4778    5                         VALUE = VALUE + SUB_BIN;

   4778  3 002472   200026 036100                    ADLQ    SUB_BIN,,AUTO
         3 002473   200020 756100                    STQ     VALUE,,AUTO

PL6.E3A0      #007=THC$SELECT File=THC$COMMANDS.:E05TSI                          WED 07/30/97 06:11 Page:378
     2080     4779    5                      END;

   4779  3 002474   200006 054100                    AOS     K,,AUTO
         3 002475   200021 470500                    LDP0    TEMP$,,AUTO
         3 002476   000003 471500                    LDP1    3,,PR0
         3 002477   100004 236100                    LDQ     4,,PR1
         3 002500   000033 772000                    QRL     27
         3 002501   200006 116100                    CMPQ    K,,AUTO
         3 002502   002463 605400 3                  TPNZ    s:4776

     2081     4780    4                      FI_ERR = VALUE;

   4780  3 002503   200020 235100                    LDA     VALUE,,AUTO
         3 002504   000033 735000                    ALS     27
         3 002505   200030 755100                    STA     FI_ERR,,AUTO

     2082     4781    4                      IF EXCLUDE_DEL

   4781  3 002506   200023 234100                    SZN     EXCLUDE_DEL,,AUTO
         3 002507   002542 605000 3                  TPL     s:4791

     2083     4782    4                         THEN
     2084     4783    4                           IF ((TH_CONSTRAINTS.E_COD_SET) &

   4783  3 002510   400000 220003                    LDX0    -131072,DU
         3 002511   000065 235000 xsym               LDA     TH_CONSTRAINTS+53
         3 002512   000066 236000 xsym               LDQ     TH_CONSTRAINTS+54
         3 002513   000040 773000                    LRL     32
         3 002514   000777 376007                    ANQ     511,DL
         3 002515   200104 756100                    STQ     C_TEST+31,,AUTO
         3 002516   200030 236100                    LDQ     FI_ERR,,AUTO
         3 002517   000033 772000                    QRL     27
         3 002520   200104 116100                    CMPQ    C_TEST+31,,AUTO
         3 002521   002523 600000 3                  TZE     s:4783+11
         3 002522   000000 220003                    LDX0    0,DU
         3 002523   000066 236000 xsym               LDQ     TH_CONSTRAINTS+54
         3 002524   000004 736000                    QLS     4
PL6.E3A0      #007=THC$SELECT File=THC$COMMANDS.:E05TSI                          WED 07/30/97 06:11 Page:379
         3 002525   400000 376003                    ANQ     -131072,DU
         3 002526   200105 756100                    STQ     C_TEST+32,,AUTO
         3 002527   000000 636010                    EAQ     0,X0
         3 002530   200105 376100                    ANQ     C_TEST+32,,AUTO
         3 002531   002535 600000 3                  TZE     s:4787

     2085     4784    4                               (FI_ERR = TH_CONSTRAINTS.E_COD))
     2086     4785    4                               THEN TH_CONSTRAINTS.E_COD_SET = %NO;

   4785  3 002532   000040 236000 4                  LDQ     32
         3 002533   000066 356000 xsym               ANSQ    TH_CONSTRAINTS+54
         3 002534   002547 710000 3                  TRA     s:4794

     2087     4786    5                               ELSE DO;

     2088     4787    5                                 CALL THM$ERRMSG(%E$TH_BAD_COD);

   4787  3 002535   000014 630400 4                  EPPR0   12
         3 002536   000017 631400 xsym               EPPR1   B_VECTNIL+15
         3 002537   000000 701000 xent               TSX1    THM$ERRMSG
         3 002540   000000 011000                    NOP     0

     2089     4788    5                                 ALTRETURN;

   4788  3 002541   000000 702200 xent               TSX2  ! X66_AALT

     2090     4789    5                               END;
     2091     4790    5                         ELSE DO;

     2092     4791    5                           TH_CONSTRAINTS.E_COD_SET = %YES;

   4791  3 002542   020000 236003                    LDQ     8192,DU
         3 002543   000066 256000 xsym               ORSQ    TH_CONSTRAINTS+54

     2093     4792    5                           TH_CONSTRAINTS.E_COD = FI_ERR;

   4792  3 002544   003000 060500                    CSL     bolr='003'O
PL6.E3A0      #007=THC$SELECT File=THC$COMMANDS.:E05TSI                          WED 07/30/97 06:11 Page:380
         3 002545   200030 000011                    BDSC    FI_ERR,,AUTO             by=0,bit=0,n=9
         3 002546   000065 640011 xsym               BDSC    TH_CONSTRAINTS+53        by=3,bit=4,n=9

     2094     4793    5                         END;

     2095     4794    4                         DEL_TEST = 'COD';

   4794  3 002547   000002 236000 2                  LDQ     2
         3 002550   000010 376000 4                  ANQ     8
         3 002551   000040 276007                    ORQ     32,DL
         3 002552   200042 756100                    STQ     DEL_TEST,,AUTO
         3 002553   003442 710000 3                  TRA     s:4971

     2096     4795    4                    CASE(%REA);

     2097     4796    4                      VALUE = 0;

   4796  3 002554   200020 450100                    STZ     VALUE,,AUTO

     2098     4797    4                      SUB = TEMP$->OUT$BLK.SUBLK$(0)->OUT$SYM.TEXT;

   4797  3 002555   400003 475500                    LDP5    3,,PR4
         3 002556   500004 236100                    LDQ     4,,PR5
         3 002557   000033 772000                    QRL     27
         3 002560   000000 622006                    EAX2    0,QL
         3 002561   040100 100540                    MLR     fill='040'O
         3 002562   500004 200012                    ADSC9   4,,PR5                   cn=1,n=*X2
         3 002563   200025 000003                    ADSC9   SUB,,AUTO                cn=0,n=3

     2099     4798    5                      DO K = 0 TO TEMP$->OUT$BLK.SUBLK$(0)->OUT$SYM.COUNT - 1;

   4798  3 002564   200006 450100                    STZ     K,,AUTO
         3 002565   002600 710000 3                  TRA     s:4802+1

     2100     4799    5                         VALUE = VALUE * 10;

   4799  3 002566   200020 236100                    LDQ     VALUE,,AUTO
PL6.E3A0      #007=THC$SELECT File=THC$COMMANDS.:E05TSI                          WED 07/30/97 06:11 Page:381
         3 002567   000012 402007                    MPY     10,DL
         3 002570   200020 756100                    STQ     VALUE,,AUTO

     2101     4800    5                         CALL CHARBIN(SUB_BIN,SUBB(K));

   4800  3 002571   200006 235100                    LDA     K,,AUTO
         3 002572   000100 305505                    DTB
         3 002573   200025 030001                    NDSC9   SUB,A,AUTO               cn=0,s=nosgn,sf=0,n=1
         3 002574   200026 000004                    NDSC9   SUB_BIN,,AUTO            cn=0,s=lsgnf,sf=0,n=4

     2102     4801    5                         VALUE = VALUE + SUB_BIN;

   4801  3 002575   200026 036100                    ADLQ    SUB_BIN,,AUTO
         3 002576   200020 756100                    STQ     VALUE,,AUTO

     2103     4802    5                      END;

   4802  3 002577   200006 054100                    AOS     K,,AUTO
         3 002600   200021 470500                    LDP0    TEMP$,,AUTO
         3 002601   000003 471500                    LDP1    3,,PR0
         3 002602   100004 236100                    LDQ     4,,PR1
         3 002603   000033 772000                    QRL     27
         3 002604   200006 116100                    CMPQ    K,,AUTO
         3 002605   002566 605400 3                  TPNZ    s:4799

     2104     4803    4                      FI_ERR = VALUE;

   4803  3 002606   200020 235100                    LDA     VALUE,,AUTO
         3 002607   000033 735000                    ALS     27
         3 002610   200030 755100                    STA     FI_ERR,,AUTO

     2105     4804    4                      IF EXCLUDE_DEL

   4804  3 002611   200023 234100                    SZN     EXCLUDE_DEL,,AUTO
         3 002612   002644 605000 3                  TPL     s:4814

     2106     4805    4                         THEN
PL6.E3A0      #007=THC$SELECT File=THC$COMMANDS.:E05TSI                          WED 07/30/97 06:11 Page:382
     2107     4806    4                           IF ((TH_CONSTRAINTS.E_REA_SET) &

   4806  3 002613   400000 220003                    LDX0    -131072,DU
         3 002614   000066 236000 xsym               LDQ     TH_CONSTRAINTS+54
         3 002615   000026 772000                    QRL     22
         3 002616   000777 376007                    ANQ     511,DL
         3 002617   200104 756100                    STQ     C_TEST+31,,AUTO
         3 002620   200030 236100                    LDQ     FI_ERR,,AUTO
         3 002621   000033 772000                    QRL     27
         3 002622   200104 116100                    CMPQ    C_TEST+31,,AUTO
         3 002623   002625 600000 3                  TZE     s:4806+10
         3 002624   000000 220003                    LDX0    0,DU
         3 002625   000066 236000 xsym               LDQ     TH_CONSTRAINTS+54
         3 002626   000016 736000                    QLS     14
         3 002627   400000 376003                    ANQ     -131072,DU
         3 002630   200105 756100                    STQ     C_TEST+32,,AUTO
         3 002631   000000 636010                    EAQ     0,X0
         3 002632   200105 376100                    ANQ     C_TEST+32,,AUTO
         3 002633   002637 600000 3                  TZE     s:4810

     2108     4807    4                               (FI_ERR = TH_CONSTRAINTS.E_REA))
     2109     4808    4                               THEN TH_CONSTRAINTS.E_REA_SET = %NO;

   4808  3 002634   000037 236000 4                  LDQ     31
         3 002635   000066 356000 xsym               ANSQ    TH_CONSTRAINTS+54
         3 002636   002653 710000 3                  TRA     s:4817

     2110     4809    5                               ELSE DO;

     2111     4810    5                                 CALL THM$ERRMSG(%E$TH_BAD_REA);

   4810  3 002637   000016 630400 4                  EPPR0   14
         3 002640   000017 631400 xsym               EPPR1   B_VECTNIL+15
         3 002641   000000 701000 xent               TSX1    THM$ERRMSG
         3 002642   000000 011000                    NOP     0

     2112     4811    5                                 ALTRETURN;
PL6.E3A0      #007=THC$SELECT File=THC$COMMANDS.:E05TSI                          WED 07/30/97 06:11 Page:383

   4811  3 002643   000000 702200 xent               TSX2  ! X66_AALT

     2113     4812    5                               END;
     2114     4813    5                         ELSE DO;

     2115     4814    5                           TH_CONSTRAINTS.E_REA_SET = %YES;

   4814  3 002644   000010 236003                    LDQ     8,DU
         3 002645   000066 256000 xsym               ORSQ    TH_CONSTRAINTS+54

     2116     4815    5                           TH_CONSTRAINTS.E_REA = FI_ERR;

   4815  3 002646   200030 236100                    LDQ     FI_ERR,,AUTO
         3 002647   000005 772000                    QRL     5
         3 002650   000066 676000 xsym               ERQ     TH_CONSTRAINTS+54
         3 002651   017760 376003                    ANQ     8176,DU
         3 002652   000066 656000 xsym               ERSQ    TH_CONSTRAINTS+54

     2117     4816    5                         END;

     2118     4817    4                         DEL_TEST = 'REA';

   4817  3 002653   000003 236000 2                  LDQ     3
         3 002654   000010 376000 4                  ANQ     8
         3 002655   000040 276007                    ORQ     32,DL
         3 002656   200042 756100                    STQ     DEL_TEST,,AUTO
         3 002657   003442 710000 3                  TRA     s:4971

     2119     4818    4                    CASE(%ACT);

     2120     4819    4                      CALL CHARBIN(VALUE,TEMP$->OUT$BLK.SUBLK$(0)->OUT$SYM.TEXT);

   4819  3 002660   400003 475500                    LDP5    3,,PR4
         3 002661   500004 236100                    LDQ     4,,PR5
         3 002662   000033 772000                    QRL     27
         3 002663   000000 622006                    EAX2    0,QL
PL6.E3A0      #007=THC$SELECT File=THC$COMMANDS.:E05TSI                          WED 07/30/97 06:11 Page:384
         3 002664   000100 305540                    DTB
         3 002665   500004 230012                    NDSC9   4,,PR5                   cn=1,s=nosgn,sf=0,n=*X2
         3 002666   200104 000010                    NDSC9   C_TEST+31,,AUTO          cn=0,s=lsgnf,sf=0,n=8
         3 002667   200105 235100                    LDA     C_TEST+32,,AUTO
         3 002670   200020 755100                    STA     VALUE,,AUTO

     2121     4820    4                      FI_ERR = VALUE;

   4820  3 002671   000033 735000                    ALS     27
         3 002672   200030 755100                    STA     FI_ERR,,AUTO

     2122     4821    4                      IF EXCLUDE_DEL

   4821  3 002673   200023 234100                    SZN     EXCLUDE_DEL,,AUTO
         3 002674   002726 605000 3                  TPL     s:4831

     2123     4822    4                         THEN
     2124     4823    4                           IF ((TH_CONSTRAINTS.E_ACT_SET) &

   4823  3 002675   400000 221003                    LDX1    -131072,DU
         3 002676   000066 236000 xsym               LDQ     TH_CONSTRAINTS+54
         3 002677   000014 772000                    QRL     12
         3 002700   000777 376007                    ANQ     511,DL
         3 002701   200104 756100                    STQ     C_TEST+31,,AUTO
         3 002702   200030 236100                    LDQ     FI_ERR,,AUTO
         3 002703   000033 772000                    QRL     27
         3 002704   200104 116100                    CMPQ    C_TEST+31,,AUTO
         3 002705   002707 600000 3                  TZE     s:4823+10
         3 002706   000000 221003                    LDX1    0,DU
         3 002707   000066 236000 xsym               LDQ     TH_CONSTRAINTS+54
         3 002710   000030 736000                    QLS     24
         3 002711   400000 376003                    ANQ     -131072,DU
         3 002712   200105 756100                    STQ     C_TEST+32,,AUTO
         3 002713   000000 636011                    EAQ     0,X1
         3 002714   200105 376100                    ANQ     C_TEST+32,,AUTO
         3 002715   002721 600000 3                  TZE     s:4827

PL6.E3A0      #007=THC$SELECT File=THC$COMMANDS.:E05TSI                          WED 07/30/97 06:11 Page:385
     2125     4824    4                               (FI_ERR = TH_CONSTRAINTS.E_ACT))
     2126     4825    4                               THEN TH_CONSTRAINTS.E_ACT_SET = %NO;

   4825  3 002716   000041 236000 4                  LDQ     33
         3 002717   000066 356000 xsym               ANSQ    TH_CONSTRAINTS+54
         3 002720   002735 710000 3                  TRA     s:4834

     2127     4826    5                               ELSE DO;

     2128     4827    5                                 CALL THM$ERRMSG(%E$TH_BAD_ACT);

   4827  3 002721   000021 630400 4                  EPPR0   17
         3 002722   000017 631400 xsym               EPPR1   B_VECTNIL+15
         3 002723   000000 701000 xent               TSX1    THM$ERRMSG
         3 002724   000000 011000                    NOP     0

     2129     4828    5                                 ALTRETURN;

   4828  3 002725   000000 702200 xent               TSX2  ! X66_AALT

     2130     4829    5                               END;
     2131     4830    5                         ELSE DO;

     2132     4831    5                           TH_CONSTRAINTS.E_ACT_SET = %YES;

   4831  3 002726   004000 236007                    LDQ     2048,DL
         3 002727   000066 256000 xsym               ORSQ    TH_CONSTRAINTS+54

     2133     4832    5                           TH_CONSTRAINTS.E_ACT = FI_ERR;

   4832  3 002730   200030 236100                    LDQ     FI_ERR,,AUTO
         3 002731   000017 772000                    QRL     15
         3 002732   000066 676000 xsym               ERQ     TH_CONSTRAINTS+54
         3 002733   000042 376000 4                  ANQ     34
         3 002734   000066 656000 xsym               ERSQ    TH_CONSTRAINTS+54

     2134     4833    5                         END;
PL6.E3A0      #007=THC$SELECT File=THC$COMMANDS.:E05TSI                          WED 07/30/97 06:11 Page:386

     2135     4834    4                         DEL_TEST = 'ACT';

   4834  3 002735   000004 236000 2                  LDQ     4
         3 002736   000010 376000 4                  ANQ     8
         3 002737   000040 276007                    ORQ     32,DL
         3 002740   200042 756100                    STQ     DEL_TEST,,AUTO
         3 002741   003442 710000 3                  TRA     s:4971

     2136     4835    4                    CASE(%MED);

     2137     4836    4                      MEDIA = TEMP$->OUT$BLK.SUBLK$(0)->OUT$SYM.TEXT;

   4836  3 002742   400003 475500                    LDP5    3,,PR4
         3 002743   500004 236100                    LDQ     4,,PR5
         3 002744   000033 772000                    QRL     27
         3 002745   000000 622006                    EAX2    0,QL
         3 002746   040100 100540                    MLR     fill='040'O
         3 002747   500004 200012                    ADSC9   4,,PR5                   cn=1,n=*X2
         3 002750   200031 000006                    ADSC9   MEDIA,,AUTO              cn=0,n=6

     2138     4837    4                      IF (EXCLUDE_DEL)

   4837  3 002751   200023 234100                    SZN     EXCLUDE_DEL,,AUTO
         3 002752   002777 605000 3                  TPL     s:4846

     2139     4838    4                        THEN
     2140     4839    4                           IF ((TH_CONSTRAINTS.E_MED_S)&(MEDIA=TH_CONSTRAINTS.E_MED))

   4839  3 002753   400000 223003                    LDX3    -131072,DU
         3 002754   040000 106500                    CMPC    fill='040'O
         3 002755   200031 000006                    ADSC9   MEDIA,,AUTO              cn=0,n=6
         3 002756   000036 400006 xsym               ADSC9   TH_CONSTRAINTS+30        cn=2,n=6
         3 002757   002761 600000 3                  TZE     s:4839+6
         3 002760   000000 223003                    LDX3    0,DU
         3 002761   000040 236000 xsym               LDQ     TH_CONSTRAINTS+32
         3 002762   400000 376003                    ANQ     -131072,DU
PL6.E3A0      #007=THC$SELECT File=THC$COMMANDS.:E05TSI                          WED 07/30/97 06:11 Page:387
         3 002763   200104 756100                    STQ     C_TEST+31,,AUTO
         3 002764   000000 636013                    EAQ     0,X3
         3 002765   200104 376100                    ANQ     C_TEST+31,,AUTO
         3 002766   002772 600000 3                  TZE     s:4842

     2141     4840    4                             THEN TH_CONSTRAINTS.E_MED_S = %NO;

   4840  3 002767   000031 236000 xsym               LDQ     B_VECTNIL+25
         3 002770   000040 356000 xsym               ANSQ    TH_CONSTRAINTS+32
         3 002771   003004 710000 3                  TRA     s:4849

     2142     4841    5                             ELSE DO;

     2143     4842    5                                CALL THM$ERRMSG(%E$TH_BAD_MED);

   4842  3 002772   000023 630400 4                  EPPR0   19
         3 002773   000017 631400 xsym               EPPR1   B_VECTNIL+15
         3 002774   000000 701000 xent               TSX1    THM$ERRMSG
         3 002775   000000 011000                    NOP     0

     2144     4843    5                                ALTRETURN;

   4843  3 002776   000000 702200 xent               TSX2  ! X66_AALT

     2145     4844    5                                END;
     2146     4845    5                        ELSE DO;

     2147     4846    5                           TH_CONSTRAINTS.E_MED_S = %YES;

   4846  3 002777   400000 236003                    LDQ     -131072,DU
         3 003000   000040 256000 xsym               ORSQ    TH_CONSTRAINTS+32

     2148     4847    5                           TH_CONSTRAINTS.E_MED = MEDIA;

   4847  3 003001   040000 100500                    MLR     fill='040'O
         3 003002   200031 000006                    ADSC9   MEDIA,,AUTO              cn=0,n=6
         3 003003   000036 400006 xsym               ADSC9   TH_CONSTRAINTS+30        cn=2,n=6
PL6.E3A0      #007=THC$SELECT File=THC$COMMANDS.:E05TSI                          WED 07/30/97 06:11 Page:388

     2149     4848    5                           END;

     2150     4849    4                      DEL_TEST = 'MED';

   4849  3 003004   000005 236000 2                  LDQ     5
         3 003005   000010 376000 4                  ANQ     8
         3 003006   000040 276007                    ORQ     32,DL
         3 003007   200042 756100                    STQ     DEL_TEST,,AUTO
         3 003010   003442 710000 3                  TRA     s:4971

     2151     4850    4                    CASE(%BY_B);

     2152     4851    4                      CALL CHARBIN(VALUE,TEMP$->OUT$BLK.SUBLK$(0)->OUT$SYM.TEXT);

   4851  3 003011   400003 475500                    LDP5    3,,PR4
         3 003012   500004 236100                    LDQ     4,,PR5
         3 003013   000033 772000                    QRL     27
         3 003014   000000 622006                    EAX2    0,QL
         3 003015   000100 305540                    DTB
         3 003016   500004 230012                    NDSC9   4,,PR5                   cn=1,s=nosgn,sf=0,n=*X2
         3 003017   200104 000010                    NDSC9   C_TEST+31,,AUTO          cn=0,s=lsgnf,sf=0,n=8
         3 003020   200105 235100                    LDA     C_TEST+32,,AUTO
         3 003021   200020 755100                    STA     VALUE,,AUTO

     2153     4852    4                      IF VALUE > 25

   4852  3 003022   000032 115007                    CMPA    26,DL
         3 003023   003031 602000 3                  TNC     s:4857

     2154     4853    5                        THEN DO;

     2155     4854    5                           CALL THM$ERRMSG(%E$TH_BAD_BYTE);

   4854  3 003024   000025 630400 4                  EPPR0   21
         3 003025   000017 631400 xsym               EPPR1   B_VECTNIL+15
         3 003026   000000 701000 xent               TSX1    THM$ERRMSG
PL6.E3A0      #007=THC$SELECT File=THC$COMMANDS.:E05TSI                          WED 07/30/97 06:11 Page:389
         3 003027   000000 011000                    NOP     0

     2156     4855    5                           ALTRETURN;

   4855  3 003030   000000 702200 xent               TSX2  ! X66_AALT

     2157     4856    5                           END;
     2158     4857    4                      BYTE_SPEC = VALUE;

   4857  3 003031   200014 755100                    STA     BYTE_SPEC,,AUTO

     2159     4858    5                      DO CASE(TEMP$->OUT$BLK.SUBLK$(1)->OUT$BLK.CODE);

   4858  3 003032   400004 471500                    LDP1    4,,PR4
         3 003033   100000 721100                    LXL1    0,,PR1
         3 003034   000003 101003                    CMPX1   3,DU
         3 003035   003037 602011 3                  TNC     s:4858+5,X1
         3 003036   003247 710000 3                  TRA     s:4921
         3 003037   003247 710000 3                  TRA     s:4921
         3 003040   003042 710000 3                  TRA     s:4860
         3 003041   003152 710000 3                  TRA     s:4893

     2160     4859    5                         CASE(%BIT);

     2161     4860    5                           CALL CHARBIN(VALUE,TEMP$->OUT$BLK.SUBLK$(1)

   4860  3 003042   100003 473500                    LDP3    3,,PR1
         3 003043   300004 236100                    LDQ     4,,PR3
         3 003044   000033 772000                    QRL     27
         3 003045   000000 622006                    EAX2    0,QL
         3 003046   000100 305540                    DTB
         3 003047   300004 230012                    NDSC9   4,,PR3                   cn=1,s=nosgn,sf=0,n=*X2
         3 003050   200104 000010                    NDSC9   C_TEST+31,,AUTO          cn=0,s=lsgnf,sf=0,n=8
         3 003051   200105 236100                    LDQ     C_TEST+32,,AUTO
         3 003052   200020 756100                    STQ     VALUE,,AUTO

     2162     4861    5                                        ->OUT$BLK.SUBLK$(0)->OUT$SYM.TEXT);
PL6.E3A0      #007=THC$SELECT File=THC$COMMANDS.:E05TSI                          WED 07/30/97 06:11 Page:390
     2163     4862    5                           IF VALUE > 7

   4862  3 003053   000010 116007                    CMPQ    8,DL
         3 003054   003062 602000 3                  TNC     s:4867

     2164     4863    6                             THEN DO;

     2165     4864    6                                CALL THM$ERRMSG(%E$TH_BAD_BIT);

   4864  3 003055   000027 630400 4                  EPPR0   23
         3 003056   000017 631400 xsym               EPPR1   B_VECTNIL+15
         3 003057   000000 701000 xent               TSX1    THM$ERRMSG
         3 003060   000000 011000                    NOP     0

     2166     4865    6                                ALTRETURN;

   4865  3 003061   000000 702200 xent               TSX2  ! X66_AALT

     2167     4866    6                                END;
     2168     4867    5                           FIRST_BIT = VALUE;

   4867  3 003062   200015 756100                    STQ     FIRST_BIT,,AUTO

     2169     4868    5                           CALL CHARBIN(VALUE,TEMP$->OUT$BLK.SUBLK$(1)

   4868  3 003063   400004 471500                    LDP1    4,,PR4
         3 003064   100004 473500                    LDP3    4,,PR1
         3 003065   300004 236100                    LDQ     4,,PR3
         3 003066   000033 772000                    QRL     27
         3 003067   000000 621006                    EAX1    0,QL
         3 003070   000100 305540                    DTB
         3 003071   300004 230011                    NDSC9   4,,PR3                   cn=1,s=nosgn,sf=0,n=*X1
         3 003072   200104 000010                    NDSC9   C_TEST+31,,AUTO          cn=0,s=lsgnf,sf=0,n=8
         3 003073   200105 236100                    LDQ     C_TEST+32,,AUTO
         3 003074   200020 756100                    STQ     VALUE,,AUTO

     2170     4869    5                                        ->OUT$BLK.SUBLK$(1)->OUT$SYM.TEXT);
PL6.E3A0      #007=THC$SELECT File=THC$COMMANDS.:E05TSI                          WED 07/30/97 06:11 Page:391
     2171     4870    5                           IF (VALUE = 0 OR VALUE = 1)

   4870  3 003075   003105 600000 3                  TZE     s:4876
         3 003076   000001 116007                    CMPQ    1,DL
         3 003077   003105 600000 3                  TZE     s:4876

     2172     4871    5                             THEN;
     2173     4872    6                             ELSE DO;

     2174     4873    6                                CALL THM$ERRMSG(%E$TH_BAD_BIT);

   4873  3 003100   000027 630400 4                  EPPR0   23
         3 003101   000017 631400 xsym               EPPR1   B_VECTNIL+15
         3 003102   000000 701000 xent               TSX1    THM$ERRMSG
         3 003103   000000 011000                    NOP     0

     2175     4874    6                                ALTRETURN;

   4874  3 003104   000000 702200 xent               TSX2  ! X66_AALT

     2176     4875    6                                END;
     2177     4876    5                           BIT_SPEC = BINBIT(VALUE,1);

   4876  3 003105   000043 736000                    QLS     35
         3 003106   200013 756100                    STQ     BIT_SPEC,,AUTO

     2178     4877    5                           INDX = (BYTE_SPEC) * 8 + FIRST_BIT;

   4877  3 003107   200014 236100                    LDQ     BYTE_SPEC,,AUTO
         3 003110   000003 736000                    QLS     3
         3 003111   200015 036100                    ADLQ    FIRST_BIT,,AUTO
         3 003112   200017 756100                    STQ     INDX,,AUTO

     2179     4878    5                           IF EXCLUDE_DEL

   4878  3 003113   200023 234100                    SZN     EXCLUDE_DEL,,AUTO
         3 003114   003143 605000 3                  TPL     s:4889
PL6.E3A0      #007=THC$SELECT File=THC$COMMANDS.:E05TSI                          WED 07/30/97 06:11 Page:392

     2180     4879    5                              THEN
     2181     4880    5                                IF ((TH_CONSTRAINTS.E_BY_B_SET(INDX)) &

   4880  3 003115   400000 221003                    LDX1    -131072,DU
         3 003116   000100 066406                    CMPB    filb='0'B
         3 003117   000040 010001 xsym               BDSC    TH_CONSTRAINTS+32,Q      by=0,bit=1,n=1
         3 003120   200013 000001                    BDSC    BIT_SPEC,,AUTO           by=0,bit=0,n=1
         3 003121   003123 600000 3                  TZE     s:4880+6
         3 003122   000000 221003                    LDX1    0,DU
         3 003123   003100 060406                    CSL     bolr='003'O
         3 003124   000050 010001 xsym               BDSC    TH_CONSTRAINTS+40,Q      by=0,bit=1,n=1
         3 003125   200104 000044                    BDSC    C_TEST+31,,AUTO          by=0,bit=0,n=36
         3 003126   000000 636011                    EAQ     0,X1
         3 003127   200104 376100                    ANQ     C_TEST+31,,AUTO
         3 003130   003136 600000 3                  TZE     s:4885

     2182     4881    5                                    (TH_CONSTRAINTS.E_BY_B_VEC(INDX)=BIT_SPEC))
     2183     4882    5                                   THEN
     2184     4883    5                                     TH_CONSTRAINTS.E_BY_B_SET(INDX)=%NO;

   4883  3 003131   200017 236100                    LDQ     INDX,,AUTO
         3 003132   003006 060400                    CSL     bolr='003'O
         3 003133   000002 000001 xsym               BDSC    B_VECTNIL+2              by=0,bit=0,n=1
         3 003134   000050 010001 xsym               BDSC    TH_CONSTRAINTS+40,Q      by=0,bit=1,n=1
         3 003135   003247 710000 3                  TRA     s:4921

     2185     4884    6                                   ELSE DO;

     2186     4885    6                                     CALL THM$ERRMSG(%E$TH_BAD_BIT);

   4885  3 003136   000027 630400 4                  EPPR0   23
         3 003137   000017 631400 xsym               EPPR1   B_VECTNIL+15
         3 003140   000000 701000 xent               TSX1    THM$ERRMSG
         3 003141   000000 011000                    NOP     0

     2187     4886    6                                     ALTRETURN;
PL6.E3A0      #007=THC$SELECT File=THC$COMMANDS.:E05TSI                          WED 07/30/97 06:11 Page:393

   4886  3 003142   000000 702200 xent               TSX2  ! X66_AALT

     2188     4887    6                                     END;
     2189     4888    6                              ELSE DO;

     2190     4889    6                                TH_CONSTRAINTS.E_BY_B_SET(INDX) = %YES;

   4889  3 003143   003006 060400                    CSL     bolr='003'O
         3 003144   000030 000001 xsym               BDSC    B_VECTNIL+24             by=0,bit=0,n=1
         3 003145   000050 010001 xsym               BDSC    TH_CONSTRAINTS+40,Q      by=0,bit=1,n=1

     2191     4890    6                                TH_CONSTRAINTS.E_BY_B_VEC(INDX) = BIT_SPEC;

   4890  3 003146   003006 060500                    CSL     bolr='003'O
         3 003147   200013 000001                    BDSC    BIT_SPEC,,AUTO           by=0,bit=0,n=1
         3 003150   000040 010001 xsym               BDSC    TH_CONSTRAINTS+32,Q      by=0,bit=1,n=1

     2192     4891    6                                END;

   4891  3 003151   003247 710000 3                  TRA     s:4921

     2193     4892    5                         CASE(%BIT_STR);

     2194     4893    5                           TEMP = TEMP$->OUT$BLK.SUBLK$(1)->

   4893  3 003152   100003 473500                    LDP3    3,,PR1
         3 003153   300004 236100                    LDQ     4,,PR3
         3 003154   000033 772000                    QRL     27
         3 003155   000000 622006                    EAX2    0,QL
         3 003156   040100 100540                    MLR     fill='040'O
         3 003157   300004 200012                    ADSC9   4,,PR3                   cn=1,n=*X2
         3 003160   200033 000010                    ADSC9   TEMP,,AUTO               cn=0,n=8

     2195     4894    5                                  OUT$BLK.SUBLK$(0)->OUT$SYM.TEXT;
     2196     4895    6                        DO K = 0 TO 7;

PL6.E3A0      #007=THC$SELECT File=THC$COMMANDS.:E05TSI                          WED 07/30/97 06:11 Page:394
   4895  3 003161   200006 450100                    STZ     K,,AUTO

     2197     4896    6                        CALL CHARBIN(VALUE,TEMPP(K));

   4896  3 003162   200006 235100                    LDA     K,,AUTO
         3 003163   000100 305505                    DTB
         3 003164   200033 030001                    NDSC9   TEMP,A,AUTO              cn=0,s=nosgn,sf=0,n=1
         3 003165   200020 000004                    NDSC9   VALUE,,AUTO              cn=0,s=lsgnf,sf=0,n=4

     2198     4897    6                             IF (VALUE = 0 OR VALUE = 1)

   4897  3 003166   200020 236100                    LDQ     VALUE,,AUTO
         3 003167   003177 600000 3                  TZE     s:4903
         3 003170   000001 116007                    CMPQ    1,DL
         3 003171   003177 600000 3                  TZE     s:4903

     2199     4898    6                                THEN;
     2200     4899    7                                ELSE DO;

     2201     4900    7                                     CALL THM$ERRMSG(%E$TH_BAD_BIT);

   4900  3 003172   000027 630400 4                  EPPR0   23
         3 003173   000017 631400 xsym               EPPR1   B_VECTNIL+15
         3 003174   000000 701000 xent               TSX1    THM$ERRMSG
         3 003175   000000 011000                    NOP     0

     2202     4901    7                                     ALTRETURN;

   4901  3 003176   000000 702200 xent               TSX2  ! X66_AALT

     2203     4902    7                                     END;
     2204     4903    6                             BIT_SPEC = BINBIT(VALUE,1);

   4903  3 003177   000043 736000                    QLS     35
         3 003200   200013 756100                    STQ     BIT_SPEC,,AUTO

     2205     4904    6                        INDX = (BYTE_SPEC) * 8 + K;
PL6.E3A0      #007=THC$SELECT File=THC$COMMANDS.:E05TSI                          WED 07/30/97 06:11 Page:395

   4904  3 003201   200014 236100                    LDQ     BYTE_SPEC,,AUTO
         3 003202   000003 736000                    QLS     3
         3 003203   200006 036100                    ADLQ    K,,AUTO
         3 003204   200017 756100                    STQ     INDX,,AUTO

     2206     4905    6                             IF EXCLUDE_DEL

   4905  3 003205   200023 234100                    SZN     EXCLUDE_DEL,,AUTO
         3 003206   003235 605000 3                  TPL     s:4916

     2207     4906    6                                THEN
     2208     4907    6                                  IF ((TH_CONSTRAINTS.E_BY_B_SET(INDX)) &

   4907  3 003207   400000 220003                    LDX0    -131072,DU
         3 003210   000100 066406                    CMPB    filb='0'B
         3 003211   000040 010001 xsym               BDSC    TH_CONSTRAINTS+32,Q      by=0,bit=1,n=1
         3 003212   200013 000001                    BDSC    BIT_SPEC,,AUTO           by=0,bit=0,n=1
         3 003213   003215 600000 3                  TZE     s:4907+6
         3 003214   000000 220003                    LDX0    0,DU
         3 003215   003100 060406                    CSL     bolr='003'O
         3 003216   000050 010001 xsym               BDSC    TH_CONSTRAINTS+40,Q      by=0,bit=1,n=1
         3 003217   200104 000044                    BDSC    C_TEST+31,,AUTO          by=0,bit=0,n=36
         3 003220   000000 636010                    EAQ     0,X0
         3 003221   200104 376100                    ANQ     C_TEST+31,,AUTO
         3 003222   003230 600000 3                  TZE     s:4912

     2209     4908    6                                     (TH_CONSTRAINTS.E_BY_B_VEC(INDX)=BIT_SPEC))
     2210     4909    6                                     THEN
     2211     4910    6                                       TH_CONSTRAINTS.E_BY_B_SET(INDX)=%NO;

   4910  3 003223   200017 236100                    LDQ     INDX,,AUTO
         3 003224   003006 060400                    CSL     bolr='003'O
         3 003225   000002 000001 xsym               BDSC    B_VECTNIL+2              by=0,bit=0,n=1
         3 003226   000050 010001 xsym               BDSC    TH_CONSTRAINTS+40,Q      by=0,bit=1,n=1
         3 003227   003243 710000 3                  TRA     s:4919

PL6.E3A0      #007=THC$SELECT File=THC$COMMANDS.:E05TSI                          WED 07/30/97 06:11 Page:396
     2212     4911    7                                     ELSE DO;

     2213     4912    7                                       CALL THM$ERRMSG(%E$TH_BAD_BIT);

   4912  3 003230   000027 630400 4                  EPPR0   23
         3 003231   000017 631400 xsym               EPPR1   B_VECTNIL+15
         3 003232   000000 701000 xent               TSX1    THM$ERRMSG
         3 003233   000000 011000                    NOP     0

     2214     4913    7                                       ALTRETURN;

   4913  3 003234   000000 702200 xent               TSX2  ! X66_AALT

     2215     4914    7                                       END;
     2216     4915    7                                ELSE DO;

     2217     4916    7                                     TH_CONSTRAINTS.E_BY_B_SET(INDX)=%YES;

   4916  3 003235   003006 060400                    CSL     bolr='003'O
         3 003236   000030 000001 xsym               BDSC    B_VECTNIL+24             by=0,bit=0,n=1
         3 003237   000050 010001 xsym               BDSC    TH_CONSTRAINTS+40,Q      by=0,bit=1,n=1

     2218     4917    7                                     TH_CONSTRAINTS.E_BY_B_VEC(INDX)=BIT_SPEC;

   4917  3 003240   003006 060500                    CSL     bolr='003'O
         3 003241   200013 000001                    BDSC    BIT_SPEC,,AUTO           by=0,bit=0,n=1
         3 003242   000040 010001 xsym               BDSC    TH_CONSTRAINTS+32,Q      by=0,bit=1,n=1

     2219     4918    7                                     END;

     2220     4919    6                           END;

   4919  3 003243   200006 054100                    AOS     K,,AUTO
         3 003244   200006 235100                    LDA     K,,AUTO
         3 003245   000007 115007                    CMPA    7,DL
         3 003246   003162 604400 3                  TMOZ    s:4896

PL6.E3A0      #007=THC$SELECT File=THC$COMMANDS.:E05TSI                          WED 07/30/97 06:11 Page:397
     2221     4920    5                      END;                /* DO CASE */

     2222     4921    4                      DEL_TEST = 'BYT';

   4921  3 003247   000006 236000 2                  LDQ     6
         3 003250   000010 376000 4                  ANQ     8
         3 003251   000040 276007                    ORQ     32,DL
         3 003252   200042 756100                    STQ     DEL_TEST,,AUTO
         3 003253   003442 710000 3                  TRA     s:4971

     2223     4922    4                    CASE(%FEP_CODE);

     2224     4923    4                      FEP_CODE = TEMP$->OUT$BLK.SUBLK$(0)->OUT$SYM.TEXT;

   4923  3 003254   400003 475500                    LDP5    3,,PR4
         3 003255   500004 236100                    LDQ     4,,PR5
         3 003256   000033 772000                    QRL     27
         3 003257   000000 622006                    EAX2    0,QL
         3 003260   040100 100540                    MLR     fill='040'O
         3 003261   500004 200012                    ADSC9   4,,PR5                   cn=1,n=*X2
         3 003262   200035 000003                    ADSC9   FEP_CODE,,AUTO           cn=0,n=3

     2225     4924    4                      IF EXCLUDE_DEL

   4924  3 003263   200023 234100                    SZN     EXCLUDE_DEL,,AUTO
         3 003264   003312 605000 3                  TPL     s:4934

     2226     4925    4                        THEN
     2227     4926    4                           IF ((TH_CONSTRAINTS.E_FEP_SET) &

   4926  3 003265   400000 223003                    LDX3    -131072,DU
         3 003266   040100 106400                    CMPC    fill='040'O
         3 003267   000062 600003 xsym               ADSC9   TH_CONSTRAINTS+50        cn=3,n=3
         3 003270   200035 000003                    ADSC9   FEP_CODE,,AUTO           cn=0,n=3
         3 003271   003273 600000 3                  TZE     s:4926+6
         3 003272   000000 223003                    LDX3    0,DU
         3 003273   000063 236000 xsym               LDQ     TH_CONSTRAINTS+51
PL6.E3A0      #007=THC$SELECT File=THC$COMMANDS.:E05TSI                          WED 07/30/97 06:11 Page:398
         3 003274   000022 736000                    QLS     18
         3 003275   400000 376003                    ANQ     -131072,DU
         3 003276   200104 756100                    STQ     C_TEST+31,,AUTO
         3 003277   000000 636013                    EAQ     0,X3
         3 003300   200104 376100                    ANQ     C_TEST+31,,AUTO
         3 003301   003305 600000 3                  TZE     s:4930

     2228     4927    4                               (TH_CONSTRAINTS.E_FEP = FEP_CODE))
     2229     4928    4                             THEN TH_CONSTRAINTS.E_FEP_SET = %NO;

   4928  3 003302   000002 236000 4                  LDQ     2
         3 003303   000063 356000 xsym               ANSQ    TH_CONSTRAINTS+51
         3 003304   003325 710000 3                  TRA     s:4939

     2230     4929    5                             ELSE DO;

     2231     4930    5                                CALL THM$ERRMSG(%E$TH_BAD_FEP);

   4930  3 003305   000031 630400 4                  EPPR0   25
         3 003306   000017 631400 xsym               EPPR1   B_VECTNIL+15
         3 003307   000000 701000 xent               TSX1    THM$ERRMSG
         3 003310   000000 011000                    NOP     0

     2232     4931    5                                ALTRETURN;

   4931  3 003311   000000 702200 xent               TSX2  ! X66_AALT

     2233     4932    5                             END;
     2234     4933    5                        ELSE DO;

     2235     4934    5                           TH_CONSTRAINTS.E_FEP_SET = %YES;

   4934  3 003312   400000 236007                    LDQ     -131072,DL
         3 003313   000063 256000 xsym               ORSQ    TH_CONSTRAINTS+51

     2236     4935    5                           TH_CONSTRAINTS.E_FEP = FEP_CODE;

PL6.E3A0      #007=THC$SELECT File=THC$COMMANDS.:E05TSI                          WED 07/30/97 06:11 Page:399
   4935  3 003314   040000 100500                    MLR     fill='040'O
         3 003315   200035 000003                    ADSC9   FEP_CODE,,AUTO           cn=0,n=3
         3 003316   000062 600003 xsym               ADSC9   TH_CONSTRAINTS+50        cn=3,n=3

     2237     4936    5                           TH_CONSTRAINTS.E_FEP_N = TEMP$->OUT$BLK.SUBLK$(0)

   4936  3 003317   400003 471500                    LDP1    3,,PR4
         3 003320   100004 236100                    LDQ     4,,PR1
         3 003321   000023 772000                    QRL     19
         3 003322   000063 676000 xsym               ERQ     TH_CONSTRAINTS+51
         3 003323   377400 376007                    ANQ     130816,DL
         3 003324   000063 656000 xsym               ERSQ    TH_CONSTRAINTS+51

     2238     4937    5                                                    ->OUT$SYM.COUNT;
     2239     4938    5                           END;

     2240     4939    4                      DEL_TEST = 'FCG';

   4939  3 003325   000007 236000 2                  LDQ     7
         3 003326   000010 376000 4                  ANQ     8
         3 003327   000040 276007                    ORQ     32,DL
         3 003330   200042 756100                    STQ     DEL_TEST,,AUTO
         3 003331   003442 710000 3                  TRA     s:4971

     2241     4940    4                    CASE(%FEP_CHAN);

     2242     4941    4                      FEP_CHAN = TEMP$->OUT$BLK.SUBLK$(0)->OUT$SYM.TEXT;

   4941  3 003332   400003 475500                    LDP5    3,,PR4
         3 003333   500004 236100                    LDQ     4,,PR5
         3 003334   000033 772000                    QRL     27
         3 003335   000000 622006                    EAX2    0,QL
         3 003336   040100 100540                    MLR     fill='040'O
         3 003337   500004 200012                    ADSC9   4,,PR5                   cn=1,n=*X2
         3 003340   200036 000004                    ADSC9   FEP_CHAN,,AUTO           cn=0,n=4

     2243     4942    4                      J = TEMP$->OUT$BLK.SUBLK$(0)->OUT$SYM.COUNT;
PL6.E3A0      #007=THC$SELECT File=THC$COMMANDS.:E05TSI                          WED 07/30/97 06:11 Page:400

   4942  3 003341   200005 756100                    STQ     J,,AUTO

     2244     4943    5                      DO CASE (J);

   4943  3 003342   000005 116007                    CMPQ    5,DL
         3 003343   003345 602006 3                  TNC     s:4943+3,QL
         3 003344   003400 710000 3                  TRA     s:4953
         3 003345   003400 710000 3                  TRA     s:4953
         3 003346   003352 710000 3                  TRA     s:4945
         3 003347   003362 710000 3                  TRA     s:4947
         3 003350   003367 710000 3                  TRA     s:4949
         3 003351   003375 710000 3                  TRA     s:4951

     2245     4944    5                        CASE(1);

     2246     4945    5                           CALL CONCAT(FEP_CHAN_N,'000',SUBSTR(FEP_CHAN,0,1));

   4945  3 003352   000010 236000 2                  LDQ     8
         3 003353   000010 376000 4                  ANQ     8
         3 003354   000040 276007                    ORQ     32,DL
         3 003355   200037 756100                    STQ     FEP_CHAN_N,,AUTO
         3 003356   200036 236100                    LDQ     FEP_CHAN,,AUTO
         3 003357   000033 772000                    QRL     27
         3 003360   200037 552104                    STBQ    FEP_CHAN_N,'04'O,AUTO
         3 003361   003405 710000 3                  TRA     s:4956

     2247     4946    5                        CASE(2);

     2248     4947    5                           CALL CONCAT(FEP_CHAN_N,'00',SUBSTR(FEP_CHAN,0,2));

   4947  3 003362   000010 223000 2                  LDX3    8
         3 003363   200037 743100                    STX3    FEP_CHAN_N,,AUTO
         3 003364   200036 224100                    LDX4    FEP_CHAN,,AUTO
         3 003365   200037 444100                    SXL4    FEP_CHAN_N,,AUTO
         3 003366   003405 710000 3                  TRA     s:4956

PL6.E3A0      #007=THC$SELECT File=THC$COMMANDS.:E05TSI                          WED 07/30/97 06:11 Page:401
     2249     4948    5                        CASE(3);

     2250     4949    5                           CALL CONCAT(FEP_CHAN_N,'0',SUBSTR(FEP_CHAN,0,3));

   4949  3 003367   060000 236003                    LDQ     24576,DU
         3 003370   200037 756100                    STQ     FEP_CHAN_N,,AUTO
         3 003371   200036 236100                    LDQ     FEP_CHAN,,AUTO
         3 003372   000011 772000                    QRL     9
         3 003373   200037 552134                    STBQ    FEP_CHAN_N,'34'O,AUTO
         3 003374   003405 710000 3                  TRA     s:4956

     2251     4950    5                        CASE(4);

     2252     4951    5                           FEP_CHAN_N = FEP_CHAN;

   4951  3 003375   200036 236100                    LDQ     FEP_CHAN,,AUTO
         3 003376   200037 756100                    STQ     FEP_CHAN_N,,AUTO
         3 003377   003405 710000 3                  TRA     s:4956

     2253     4952    5                        CASE (ELSE);

     2254     4953    5                           CALL THM$ERRMSG(%E$TH_BAD_CHAN);

   4953  3 003400   000033 630400 4                  EPPR0   27
         3 003401   000017 631400 xsym               EPPR1   B_VECTNIL+15
         3 003402   000000 701000 xent               TSX1    THM$ERRMSG
         3 003403   000000 011000                    NOP     0

     2255     4954    5                           ALTRETURN;

   4954  3 003404   000000 702200 xent               TSX2  ! X66_AALT

     2256     4955    5                      END;

     2257     4956    4                      IF EXCLUDE_DEL

   4956  3 003405   200023 234100                    SZN     EXCLUDE_DEL,,AUTO
PL6.E3A0      #007=THC$SELECT File=THC$COMMANDS.:E05TSI                          WED 07/30/97 06:11 Page:402
         3 003406   003432 605000 3                  TPL     s:4966

     2258     4957    4                        THEN
     2259     4958    4                           IF ((TH_CONSTRAINTS.E_CHAN_SET) &

   4958  3 003407   400000 220003                    LDX0    -131072,DU
         3 003410   000064 236000 xsym               LDQ     TH_CONSTRAINTS+52
         3 003411   200037 116100                    CMPQ    FEP_CHAN_N,,AUTO
         3 003412   003414 600000 3                  TZE     s:4958+5
         3 003413   000000 220003                    LDX0    0,DU
         3 003414   000065 236000 xsym               LDQ     TH_CONSTRAINTS+53
         3 003415   400000 376003                    ANQ     -131072,DU
         3 003416   200104 756100                    STQ     C_TEST+31,,AUTO
         3 003417   000000 636010                    EAQ     0,X0
         3 003420   200104 376100                    ANQ     C_TEST+31,,AUTO
         3 003421   003425 600000 3                  TZE     s:4962

     2260     4959    4                               (TH_CONSTRAINTS.E_CHAN = FEP_CHAN_N))
     2261     4960    4                             THEN TH_CONSTRAINTS.E_CHAN_SET= %NO;

   4960  3 003422   000031 236000 xsym               LDQ     B_VECTNIL+25
         3 003423   000065 356000 xsym               ANSQ    TH_CONSTRAINTS+53
         3 003424   003436 710000 3                  TRA     s:4969

     2262     4961    5                             ELSE DO;

     2263     4962    5                                CALL THM$ERRMSG(%E$TH_BAD_CHAN);

   4962  3 003425   000033 630400 4                  EPPR0   27
         3 003426   000017 631400 xsym               EPPR1   B_VECTNIL+15
         3 003427   000000 701000 xent               TSX1    THM$ERRMSG
         3 003430   000000 011000                    NOP     0

     2264     4963    5                                ALTRETURN;

   4963  3 003431   000000 702200 xent               TSX2  ! X66_AALT

PL6.E3A0      #007=THC$SELECT File=THC$COMMANDS.:E05TSI                          WED 07/30/97 06:11 Page:403
     2265     4964    5                             END;
     2266     4965    5                        ELSE DO;

     2267     4966    5                           TH_CONSTRAINTS.E_CHAN_SET= %YES;

   4966  3 003432   400000 236003                    LDQ     -131072,DU
         3 003433   000065 256000 xsym               ORSQ    TH_CONSTRAINTS+53

     2268     4967    5                           TH_CONSTRAINTS.E_CHAN = FEP_CHAN_N;

   4967  3 003434   200037 236100                    LDQ     FEP_CHAN_N,,AUTO
         3 003435   000064 756000 xsym               STQ     TH_CONSTRAINTS+52

     2269     4968    5                              END;

     2270     4969    4                      DEL_TEST = 'CHA';

   4969  3 003436   000011 236000 2                  LDQ     9
         3 003437   000010 376000 4                  ANQ     8
         3 003440   000040 276007                    ORQ     32,DL
         3 003441   200042 756100                    STQ     DEL_TEST,,AUTO

     2271     4970    4                 END;                     /* OF CASE   */

     2272     4971    3             IF EXCLUDE_DEL

   4971  3 003442   200023 234100                    SZN     EXCLUDE_DEL,,AUTO
         3 003443   003565 605000 3                  TPL     s:4998

     2273     4972    4               THEN DO;

     2274     4973    4                 CALL INDEX(JJ,DEL_TEST,TH_LAST_EXCLUDE.TEXT);

   4973  3 003444   200043 631500                    EPPR1   JJ,,AUTO
         3 003445   200042 633500                    EPPR3   DEL_TEST,,AUTO
         3 003446   000003 223003                    LDX3    3,DU
         3 003447   000000 630400 xsym               EPPR0   TH_LAST_EXCLUDE
PL6.E3A0      #007=THC$SELECT File=THC$COMMANDS.:E05TSI                          WED 07/30/97 06:11 Page:404
         3 003450   000001 220003                    LDX0    1,DU
         3 003451   000000 500510                    A9BD    0,X0,PR0
         3 003452   000167 220003                    LDX0    119,DU
         3 003453   000000 236003                    LDQ     0,DU
         3 003454   000000 701000 xent               TSX1    X66_INDEX
         3 003455   000000 011000                    NOP     0

     2275     4974    4                 JCNT = JJ;

   4974  3 003456   200043 235100                    LDA     JJ,,AUTO
         3 003457   200044 755100                    STA     JCNT,,AUTO

     2276     4975    4       NEXT_COMMA_E:
     2277     4976    5                 DO WHILE (SUBSTR(TH_LAST_EXCLUDE.TEXT,JCNT,1) ~= ',');

   4976  3 003460   003470 710000 3     NEXT_COMMA_E TRA     s:4980

     2278     4977    5                      IF JCNT > TH_LAST_EXCLUDE.COUNT

   4977  3 003461   000000 236000 xsym               LDQ     TH_LAST_EXCLUDE
         3 003462   000033 772000                    QRL     27
         3 003463   200044 116100                    CMPQ    JCNT,,AUTO
         3 003464   003511 602000 3                  TNC     DEL_END_E

     2279     4978    5                        THEN GOTO DEL_END_E;
     2280     4979    5                      JCNT = JCNT + 1;

   4979  3 003465   200044 235100                    LDA     JCNT,,AUTO
         3 003466   000001 035007                    ADLA    1,DL
         3 003467   200044 755100                    STA     JCNT,,AUTO

     2281     4980    5                 END;

   4980  3 003470   200044 235100                    LDA     JCNT,,AUTO
         3 003471   040000 106405                    CMPC    fill='040'O
         3 003472   000000 200001 xsym               ADSC9   TH_LAST_EXCLUDE,A        cn=1,n=1
         3 003473   000035 000001 4                  ADSC9   29                       cn=0,n=1
PL6.E3A0      #007=THC$SELECT File=THC$COMMANDS.:E05TSI                          WED 07/30/97 06:11 Page:405
         3 003474   003461 601000 3                  TNZ     s:4977

     2282     4981    4                 IF DEL_TEST = 'BYT' AND TEMP$->OUT$BLK.SUBLK$(1)

   4981  3 003475   200042 236100                    LDQ     DEL_TEST,,AUTO
         3 003476   000006 676000 2                  ERQ     6
         3 003477   000010 376000 4                  ANQ     8
         3 003500   003511 601000 3                  TNZ     DEL_END_E
         3 003501   200021 470500                    LDP0    TEMP$,,AUTO
         3 003502   000004 471500                    LDP1    4,,PR0
         3 003503   100000 720100                    LXL0    0,,PR1
         3 003504   000001 100003                    CMPX0   1,DU
         3 003505   003511 601000 3                  TNZ     DEL_END_E

     2283     4982    4                      ->OUT$BLK.CODE = %BIT
     2284     4983    5                      THEN DO;

     2285     4984    5                           JCNT = JCNT + 1;

   4984  3 003506   000001 035007                    ADLA    1,DL
         3 003507   200044 755100                    STA     JCNT,,AUTO

     2286     4985    5                           GOTO NEXT_COMMA_E;

   4985  3 003510   003460 710000 3                  TRA     NEXT_COMMA_E

     2287     4986    5                      END;
     2288     4987    4       DEL_END_E:
     2289     4988    4                 C_TEST = ' ';

   4988  3 003511   040100 100400       DEL_END_E    MLR     fill='040'O
         3 003512   000035 000001 xsym               ADSC9   B_VECTNIL+29             cn=0,n=1
         3 003513   200045 000167                    ADSC9   C_TEST,,AUTO             cn=0,n=119

     2290     4989    4                 CALL CONCAT(C_TEST,SUBSTR(TH_LAST_EXCLUDE.TEXT,

   4989  3 003514   200043 720100                    LXL0    JJ,,AUTO
PL6.E3A0      #007=THC$SELECT File=THC$COMMANDS.:E05TSI                          WED 07/30/97 06:11 Page:406
         3 003515   040100 100440                    MLR     fill='040'O
         3 003516   000000 200010 xsym               ADSC9   TH_LAST_EXCLUDE          cn=1,n=*X0
         3 003517   200045 000167                    ADSC9   C_TEST,,AUTO             cn=0,n=119
         3 003520   200043 236100                    LDQ     JJ,,AUTO
         3 003521   000167 116007                    CMPQ    119,DL
         3 003522   003534 603000 3                  TRC     s:4991
         3 003523   200044 721100                    LXL1    JCNT,,AUTO
         3 003524   777611 621011                    EAX1    -119,X1
         3 003525   777777 661003                    ERX1    -1,DU
         3 003526   777610 622006                    EAX2    -120,QL
         3 003527   777777 662003                    ERX2    -1,DU
         3 003530   200044 235100                    LDA     JCNT,,AUTO
         3 003531   040146 100445                    MLR     fill='040'O
         3 003532   000000 400011 xsym               ADSC9   TH_LAST_EXCLUDE,A        cn=2,n=*X1
         3 003533   200045 000012                    ADSC9   C_TEST,Q,AUTO            cn=0,n=*X2

     2291     4990    4                             0,JJ),SUBSTR(TH_LAST_EXCLUDE.TEXT,JCNT+1));
     2292     4991    4                 TH_LAST_EXCLUDE.TEXT = C_TEST;

   4991  3 003534   040000 100500                    MLR     fill='040'O
         3 003535   200045 000167                    ADSC9   C_TEST,,AUTO             cn=0,n=119
         3 003536   000000 200167 xsym               ADSC9   TH_LAST_EXCLUDE          cn=1,n=119

     2293     4992    4                 IF JCNT > TH_LAST_EXCLUDE.COUNT

   4992  3 003537   000000 236000 xsym               LDQ     TH_LAST_EXCLUDE
         3 003540   000033 772000                    QRL     27
         3 003541   200044 116100                    CMPQ    JCNT,,AUTO
         3 003542   003554 603000 3                  TRC     s:4996

     2294     4993    4                    THEN
     2295     4994    4                      TH_LAST_EXCLUDE.COUNT=TH_LAST_EXCLUDE.COUNT-(JCNT-JJ);

   4994  3 003543   200044 236100                    LDQ     JCNT,,AUTO
         3 003544   200043 136100                    SBLQ    JJ,,AUTO
         3 003545   200104 756100                    STQ     C_TEST+31,,AUTO
         3 003546   000000 236000 xsym               LDQ     TH_LAST_EXCLUDE
PL6.E3A0      #007=THC$SELECT File=THC$COMMANDS.:E05TSI                          WED 07/30/97 06:11 Page:407
         3 003547   000033 772000                    QRL     27
         3 003550   200104 136100                    SBLQ    C_TEST+31,,AUTO
         3 003551   000033 736000                    QLS     27
         3 003552   000000 552040 xsym               STBQ    TH_LAST_EXCLUDE,'40'O
         3 003553   003565 710000 3                  TRA     s:4998

     2296     4995    4                    ELSE
     2297     4996    4                      TH_LAST_EXCLUDE.COUNT = TH_LAST_EXCLUDE.COUNT - (JCNT-JJ+1);

   4996  3 003554   200044 236100                    LDQ     JCNT,,AUTO
         3 003555   200043 136100                    SBLQ    JJ,,AUTO
         3 003556   200104 756100                    STQ     C_TEST+31,,AUTO
         3 003557   000000 236000 xsym               LDQ     TH_LAST_EXCLUDE
         3 003560   000033 772000                    QRL     27
         3 003561   200104 136100                    SBLQ    C_TEST+31,,AUTO
         3 003562   000001 136007                    SBLQ    1,DL
         3 003563   000033 736000                    QLS     27
         3 003564   000000 552040 xsym               STBQ    TH_LAST_EXCLUDE,'40'O

     2298     4997    4                 END;

     2299     4998    3            END;                          /* DO I = J   */

   4998  3 003565   200004 054100                    AOS     I,,AUTO
         3 003566   200003 470500                    LDP0    @TOP$,,AUTO
         3 003567   000000 471500                    LDP1    0,,PR0
         3 003570   100001 236100                    LDQ     1,,PR1
         3 003571   000022 772000                    QRL     18
         3 003572   200004 116100                    CMPQ    I,,AUTO
         3 003573   002165 605400 3                  TPNZ    s:4713

     2300     4999    2             IF EXCLUDE_DEL

   4999  3 003574   200023 234100                    SZN     EXCLUDE_DEL,,AUTO
         3 003575   004123 604000 3                  TMI     s:5121

     2301     5000    2                 THEN ;
PL6.E3A0      #007=THC$SELECT File=THC$COMMANDS.:E05TSI                          WED 07/30/97 06:11 Page:408
     2302     5001    3                 ELSE DO;

     2303     5002    3            CALL INDEX(INDX,' ',TEXTBASE);

   5002  3 003576   000000 473400 xsym               LDP3    P_PCB
         3 003577   000011 720000 xsym               LXL0    P_PCB+9
         3 003600   000000 124540                    SCM     mask='000'O
         3 003601   300000 000010                    ADSC9   0,,PR3                   cn=0,n=*X0
         3 003602   000035 000001 xsym               ADSC9   B_VECTNIL+29             cn=0,n=1
         3 003603   200017 000100                    ARG     INDX,,AUTO

     2304     5003    4            DO WHILE(SUBSTR(TEXTBASE,INDX,1) = ' ');

   5003  3 003604   003610 710000 3                  TRA     s:5005

     2305     5004    4                 INDX = INDX + 1;

   5004  3 003605   200017 235100                    LDA     INDX,,AUTO
         3 003606   000001 035007                    ADLA    1,DL
         3 003607   200017 755100                    STA     INDX,,AUTO

     2306     5005    4            END;    /* OF WHILE */

   5005  3 003610   000000 470400 xsym               LDP0    P_PCB
         3 003611   200017 235100                    LDA     INDX,,AUTO
         3 003612   040000 106505                    CMPC    fill='040'O
         3 003613   000000 000001                    ADSC9   0,A,PR0                  cn=0,n=1
         3 003614   000035 000001 xsym               ADSC9   B_VECTNIL+29             cn=0,n=1
         3 003615   003605 600000 3                  TZE     s:5004

     2307     5006    3             IF EXCLUDE_ADD

   5006  3 003616   200041 234100                    SZN     EXCLUDE_ADD,,AUTO
         3 003617   003713 605000 3                  TPL     s:5020

     2308     5007    4               THEN DO;

PL6.E3A0      #007=THC$SELECT File=THC$COMMANDS.:E05TSI                          WED 07/30/97 06:11 Page:409
     2309     5008    4                 CALL INDEX(JJ,' ',SUBSTR(TEXTBASE,INDX,P_PCB.NCHARS-INDX));

   5008  3 003620   000011 236000 xsym               LDQ     P_PCB+9
         3 003621   200017 136100                    SBLQ    INDX,,AUTO
         3 003622   000000 620006                    EAX0    0,QL
         3 003623   000000 124545                    SCM     mask='000'O
         3 003624   000000 000010                    ADSC9   0,A,PR0                  cn=0,n=*X0
         3 003625   000035 000001 xsym               ADSC9   B_VECTNIL+29             cn=0,n=1
         3 003626   200043 000100                    ARG     JJ,,AUTO

     2310     5009    5                 DO WHILE (SUBSTR(TEXTBASE,JJ,1) = ' ');

   5009  3 003627   003633 710000 3                  TRA     s:5011

     2311     5010    5                   JJ = JJ + 1;

   5010  3 003630   200043 235100                    LDA     JJ,,AUTO
         3 003631   000001 035007                    ADLA    1,DL
         3 003632   200043 755100                    STA     JJ,,AUTO

     2312     5011    5                 END;

   5011  3 003633   000000 470400 xsym               LDP0    P_PCB
         3 003634   200043 235100                    LDA     JJ,,AUTO
         3 003635   040000 106505                    CMPC    fill='040'O
         3 003636   000000 000001                    ADSC9   0,A,PR0                  cn=0,n=1
         3 003637   000035 000001 xsym               ADSC9   B_VECTNIL+29             cn=0,n=1
         3 003640   003630 600000 3                  TZE     s:5010

     2313     5012    4                 JJ = JJ + INDX;

   5012  3 003641   200043 236100                    LDQ     JJ,,AUTO
         3 003642   200017 036100                    ADLQ    INDX,,AUTO
         3 003643   200043 756100                    STQ     JJ,,AUTO

     2314     5013    4                 JJ = P_PCB.NCHARS - JJ;

PL6.E3A0      #007=THC$SELECT File=THC$COMMANDS.:E05TSI                          WED 07/30/97 06:11 Page:410
   5013  3 003644   000011 236000 xsym               LDQ     P_PCB+9
         3 003645   200043 136100                    SBLQ    JJ,,AUTO
         3 003646   200043 756100                    STQ     JJ,,AUTO

     2315     5014    4                 TH_LAST_EXCLUDE.COUNT = TH_LAST_EXCLUDE.COUNT + JJ + 1;

   5014  3 003647   000000 236000 xsym               LDQ     TH_LAST_EXCLUDE
         3 003650   000033 772000                    QRL     27
         3 003651   200043 036100                    ADLQ    JJ,,AUTO
         3 003652   000001 036007                    ADLQ    1,DL
         3 003653   000033 736000                    QLS     27
         3 003654   000000 552040 xsym               STBQ    TH_LAST_EXCLUDE,'40'O

     2316     5015    4                 CALL INSERT(TH_LAST_EXCLUDE.TEXT,,,SUBSTR(TH_LAST_EXCLUDE.TEXT,

   5015  3 003655   000000 236000 xsym               LDQ     TH_LAST_EXCLUDE
         3 003656   000033 772000                    QRL     27
         3 003657   200043 136100                    SBLQ    JJ,,AUTO
         3 003660   200104 756100                    STQ     C_TEST+31,,AUTO
         3 003661   000011 236000 xsym               LDQ     P_PCB+9
         3 003662   200043 136100                    SBLQ    JJ,,AUTO
         3 003663   200104 720100                    LXL0    C_TEST+31,,AUTO
         3 003664   777777 621010                    EAX1    -1,X0
         3 003665   040000 100440                    MLR     fill='040'O
         3 003666   000000 200011 xsym               ADSC9   TH_LAST_EXCLUDE          cn=1,n=*X1
         3 003667   000000 200167 xsym               ADSC9   TH_LAST_EXCLUDE          cn=1,n=119
         3 003670   200105 756100                    STQ     C_TEST+32,,AUTO
         3 003671   200104 236100                    LDQ     C_TEST+31,,AUTO
         3 003672   000170 116007                    CMPQ    120,DL
         3 003673   003712 605000 3                  TPL     s:5018
         3 003674   777607 622006                    EAX2    -121,QL
         3 003675   777777 662003                    ERX2    -1,DU
         3 003676   040046 100400                    MLR     fill='040'O
         3 003677   000035 000001 4                  ADSC9   29                       cn=0,n=1
         3 003700   000000 000012 xsym               ADSC9   TH_LAST_EXCLUDE,Q        cn=0,n=*X2
         3 003701   000167 116007                    CMPQ    119,DL
         3 003702   003712 605000 3                  TPL     s:5018
PL6.E3A0      #007=THC$SELECT File=THC$COMMANDS.:E05TSI                          WED 07/30/97 06:11 Page:411
         3 003703   777610 623006                    EAX3    -120,QL
         3 003704   777777 663003                    ERX3    -1,DU
         3 003705   200043 724100                    LXL4    JJ,,AUTO
         3 003706   200105 235100                    LDA     C_TEST+32,,AUTO
         3 003707   040046 100545                    MLR     fill='040'O
         3 003710   000000 000014                    ADSC9   0,A,PR0                  cn=0,n=*X4
         3 003711   000000 200013 xsym               ADSC9   TH_LAST_EXCLUDE,Q        cn=1,n=*X3

     2317     5016    4                             0,TH_LAST_EXCLUDE.COUNT-JJ-1),',',SUBSTR(TEXTBASE,
     2318     5017    4                             P_PCB.NCHARS-JJ,JJ));
     2319     5018    4               END;

   5018  3 003712   004123 710000 3                  TRA     s:5121

     2320     5019    4               ELSE DO;

     2321     5020    4            TH_LAST_EXCLUDE.COUNT = P_PCB.NCHARS-INDX;

   5020  3 003713   000011 236000 xsym               LDQ     P_PCB+9
         3 003714   200017 136100                    SBLQ    INDX,,AUTO
         3 003715   000033 736000                    QLS     27
         3 003716   000000 552040 xsym               STBQ    TH_LAST_EXCLUDE,'40'O

     2322     5021    4            TH_LAST_EXCLUDE.TEXT = SUBSTR(TEXTBASE,INDX,P_PCB.NCHARS-INDX);

   5021  3 003717   000011 236000 xsym               LDQ     P_PCB+9
         3 003720   200017 136100                    SBLQ    INDX,,AUTO
         3 003721   000000 620006                    EAX0    0,QL
         3 003722   040000 100545                    MLR     fill='040'O
         3 003723   000000 000010                    ADSC9   0,A,PR0                  cn=0,n=*X0
         3 003724   000000 200167 xsym               ADSC9   TH_LAST_EXCLUDE          cn=1,n=119

     2323     5022    4            END;

     2324     5023    3            END;

   5023  3 003725   004123 710000 3                  TRA     s:5121
PL6.E3A0      #007=THC$SELECT File=THC$COMMANDS.:E05TSI                          WED 07/30/97 06:11 Page:412

     2325     5024                 /*E* ERROR:  THE-E$TH_BAD_MAJ-0
     2326     5025                      MESSAGE: Bad major specification
     2327     5026                 */
     2328     5027                 /*E* ERROR:  THE-E$TH_BAD_SUB-0
     2329     5028                      MESSAGE:  Bad minor(sub) specification
     2330     5029                 */
     2331     5030                 /*E* ERROR:  THE-E$TH_BAD_MED-0
     2332     5031                      MESSAGE:  Bad media-id specification
     2333     5032                 */
     2334     5033
     2335     5034                      /*E* ERROR: THE-E$TH_BAD_FEP-0
     2336     5035                           MESSAGE: Bad FEP error code specification
     2337     5036                      */
     2338     5037                   /*E* ERROR: THE-E$TH_BAD_BYTE-0
     2339     5038                        MESSAGE: Bad byte specification
     2340     5039                        MESSAGE1: Byte spec must be in the range 0-25
     2341     5040                   */
     2342     5041                   /*E* ERROR: THE-E$TH_BAD_BIT-0
     2343     5042                        MESSAGE: Bad bit specification
     2344     5043                        MESSAGE1: Bit spec must be in the range 0-7
     2345     5044                   */
     2346     5045                   /*E* ERROR: THE-E$TH_BAD_RANGE-0
     2347     5046                        MESSAGE: Bad range spec : HI < LO
     2348     5047                   */
     2349     5048                   /*E* ERROR: THE-E$TH_BAD_CHAN-0
     2350     5049                        MESSAGE: Bad FEP channel specification
     2351     5050                   */
     2352     5051                   /*E* ERROR: THE-E$TH_BAD_COD-0
     2353     5052                        MESSAGE: Bad I/O error code specification
     2354     5053                   */
     2355     5054                   /*E* ERROR: THE-E$TH_BAD_REA-0
     2356     5055                        MESSAGE: Bad Reason specification
     2357     5056                   */
     2358     5057                   /*E* ERROR: THE-E$TH_BAD_ACT-0
     2359     5058                        MESSAGE: Bad Action specification
     2360     5059                   */
PL6.E3A0      #007=THC$SELECT File=THC$COMMANDS.:E05TSI                          WED 07/30/97 06:11 Page:413
     2361     5060    2           CASE(%OCTAL);

     2362     5061    2              TH_CONSTRAINTS.OCTAL = %YES;

   5061  3 003726   002000 236007                    LDQ     1024,DL
         3 003727   000066 256000 xsym               ORSQ    TH_CONSTRAINTS+54
         3 003730   004123 710000 3                  TRA     s:5121

     2363     5062    2           CASE(%CROSS);

     2364     5063    2              TH_CONSTRAINTS.CROSS = %YES;

   5063  3 003731   001000 236007                    LDQ     512,DL
         3 003732   000066 256000 xsym               ORSQ    TH_CONSTRAINTS+54
         3 003733   004123 710000 3                  TRA     s:5121

     2365     5064    2           CASE(%RESET);

     2366     5065    3              IF OUT$BLK.NSUBLKS = 0 THEN DO;

   5065  3 003734   100001 221100                    LDX1    1,,PR1
         3 003735   003765 601000 3                  TNZ     s:5078

     2367     5066    3                 TH_CONSTRAINTS = TH_DEFAULT; /* ALL RESET                  */

   5066  3 003736   000000 100400                    MLR     fill='000'O
         3 003737   000000 000333 xsym               ADSC9   TH_DEFAULT               cn=0,n=219
         3 003740   000000 000333 xsym               ADSC9   TH_CONSTRAINTS           cn=0,n=219

     2368     5067    3                 TH_RECOV = %FALSE;

   5067  3 003741   000000 450000 xsym               STZ     TH_RECOV

     2369     5068    3                 VLP_SYSTAC.ACCT# = ':SYSTAC';

   5068  3 003742   040000 100400                    MLR     fill='040'O
         3 003743   000012 000007 2                  ADSC9   10                       cn=0,n=7
PL6.E3A0      #007=THC$SELECT File=THC$COMMANDS.:E05TSI                          WED 07/30/97 06:11 Page:414
         3 003744   000000 000010 xsym               ADSC9   VLP_SYSTAC               cn=0,n=8

     2370     5069    3                 TH_OPEN_ERRLOG.ACCT_ = VECTOR(VLP_SYSTAC);

   5069  3 003745   000044 237000 4                  LDAQ    36
         3 003746   000024 757000 xsym               STAQ    TH_OPEN_ERRLOG+20

     2371     5070    3                 TH_OPEN_ERRLOG.NAME_ = VECTOR(TH_VLP_ERRLOG);

   5070  3 003747   000046 237000 4                  LDAQ    38
         3 003750   000006 757000 xsym               STAQ    TH_OPEN_ERRLOG+6

     2372     5071    3                 TH_CHANGE_ACCOUNT = '1'B;

   5071  3 003751   400000 236003                    LDQ     -131072,DU
         3 003752   000000 756000 xsym               STQ     TH_CHANGE_ACCOUNT

     2373     5072    3                TH_LAST_MATCH.TEXT = ' ';

   5072  3 003753   040000 100400                    MLR     fill='040'O
         3 003754   000035 000001 xsym               ADSC9   B_VECTNIL+29             cn=0,n=1
         3 003755   000000 200167 xsym               ADSC9   TH_LAST_MATCH            cn=1,n=119

     2374     5073    3                TH_LAST_EXCLUDE.TEXT = ' ';

   5073  3 003756   040000 100400                    MLR     fill='040'O
         3 003757   000035 000001 xsym               ADSC9   B_VECTNIL+29             cn=0,n=1
         3 003760   000000 200167 xsym               ADSC9   TH_LAST_EXCLUDE          cn=1,n=119

     2375     5074    3                TH_LAST_EXCLUDE.COUNT = 0;

   5074  3 003761   000000 236003                    LDQ     0,DU
         3 003762   000000 552040 xsym               STBQ    TH_LAST_EXCLUDE,'40'O

     2376     5075    3                TH_LAST_MATCH.COUNT = 0;

   5075  3 003763   000000 552040 xsym               STBQ    TH_LAST_MATCH,'40'O
PL6.E3A0      #007=THC$SELECT File=THC$COMMANDS.:E05TSI                          WED 07/30/97 06:11 Page:415

     2377     5076    3                 END;  /* IF */

   5076  3 003764   004123 710000 3                  TRA     s:5121

     2378     5077    2                 ELSE
     2379     5078    3                 DO I = 0 TO OUT$BLK.NSUBLKS - 1;

   5078  3 003765   200004 450100                    STZ     I,,AUTO
         3 003766   004116 710000 3                  TRA     s:5119+1

     2380     5079    4                    DO CASE(OUT$BLK.SUBLK$(I)->OUT$BLK.CODE);

   5079  3 003767   200003 470500                    LDP0    @TOP$,,AUTO
         3 003770   000000 471500                    LDP1    0,,PR0
         3 003771   200004 720100                    LXL0    I,,AUTO
         3 003772   100003 473510                    LDP3    3,X0,PR1
         3 003773   300000 721100                    LXL1    0,,PR3
         3 003774   000012 101003                    CMPX1   10,DU
         3 003775   003777 602011 3                  TNC     s:5079+8,X1
         3 003776   004115 710000 3                  TRA     s:5119
         3 003777   004115 710000 3                  TRA     s:5119
         3 004000   004011 710000 3                  TRA     s:5081
         3 004001   004014 710000 3                  TRA     s:5084
         3 004002   004037 710000 3                  TRA     s:5094
         3 004003   004062 710000 3                  TRA     s:5103
         3 004004   004065 710000 3                  TRA     s:5105
         3 004005   004070 710000 3                  TRA     s:5107
         3 004006   004075 710000 3                  TRA     s:5110
         3 004007   004011 710000 3                  TRA     s:5081
         3 004010   004103 710000 3                  TRA     s:5113

     2381     5080    4                       CASE(%ERROR,%SELECT);

     2382     5081    4                          TH_CONSTRAINTS.NTYPES = 0;

   5081  3 004011   000000 450000 xsym               STZ     TH_CONSTRAINTS
PL6.E3A0      #007=THC$SELECT File=THC$COMMANDS.:E05TSI                          WED 07/30/97 06:11 Page:416

     2383     5082    4                          TH_RECOV = %FALSE;

   5082  3 004012   000000 450000 xsym               STZ     TH_RECOV
         3 004013   004115 710000 3                  TRA     s:5119

     2384     5083    4                      CASE(%MATCH);

     2385     5084    4                           TH_CONSTRAINTS.M_BY_B_SET = %NO;

   5084  3 004014   003000 060400                    CSL     bolr='003'O
         3 004015   000002 000011 xsym               BDSC    B_VECTNIL+2              by=0,bit=0,n=9
         3 004016   000026 010440 xsym               BDSC    TH_CONSTRAINTS+22        by=0,bit=1,n=288

     2386     5085    4                         TH_CONSTRAINTS.M_MAJ_S = %NO;

   5085  3 004017   000000 236000 4                  LDQ     0
         3 004020   000014 356000 xsym               ANSQ    TH_CONSTRAINTS+12

     2387     5086    4                         TH_CONSTRAINTS.M_SUB_S = %NO;

   5086  3 004021   000001 236000 4                  LDQ     1
         3 004022   000014 356000 xsym               ANSQ    TH_CONSTRAINTS+12

     2388     5087    4                         TH_CONSTRAINTS.M_MED_S = %NO;

   5087  3 004023   000031 236000 xsym               LDQ     B_VECTNIL+25
         3 004024   000016 356000 xsym               ANSQ    TH_CONSTRAINTS+14

     2389     5088    4                         TH_CONSTRAINTS.M_FEP_SET = %NO;

   5088  3 004025   000061 356000 xsym               ANSQ    TH_CONSTRAINTS+49

     2390     5089    4                         TH_CONSTRAINTS.M_CHAN_SET = %NO;

   5089  3 004026   000002 236000 4                  LDQ     2
         3 004027   000062 356000 xsym               ANSQ    TH_CONSTRAINTS+50
PL6.E3A0      #007=THC$SELECT File=THC$COMMANDS.:E05TSI                          WED 07/30/97 06:11 Page:417

     2391     5090    4                TH_M_CHAN_TOTAL = 0;

   5090  3 004030   000000 450000 xsym               STZ     TH_M_CHAN_TOTAL

     2392     5091    4                TH_LAST_MATCH.TEXT = ' ';

   5091  3 004031   040000 100400                    MLR     fill='040'O
         3 004032   000035 000001 xsym               ADSC9   B_VECTNIL+29             cn=0,n=1
         3 004033   000000 200167 xsym               ADSC9   TH_LAST_MATCH            cn=1,n=119

     2393     5092    4                TH_LAST_MATCH.COUNT = 0;

   5092  3 004034   000000 236003                    LDQ     0,DU
         3 004035   000000 552040 xsym               STBQ    TH_LAST_MATCH,'40'O
         3 004036   004115 710000 3                  TRA     s:5119

     2394     5093    4                      CASE(%EXCLUDE);

     2395     5094    4                           TH_CONSTRAINTS.E_BY_B_SET = %NO;

   5094  3 004037   003000 060400                    CSL     bolr='003'O
         3 004040   000002 000011 xsym               BDSC    B_VECTNIL+2              by=0,bit=0,n=9
         3 004041   000050 010440 xsym               BDSC    TH_CONSTRAINTS+40        by=0,bit=1,n=288

     2396     5095    4                         TH_CONSTRAINTS.E_MAJ_S = %NO;

   5095  3 004042   000036 236000 4                  LDQ     30
         3 004043   000036 356000 xsym               ANSQ    TH_CONSTRAINTS+30

     2397     5096    4                         TH_CONSTRAINTS.E_SUB_S = %NO;

   5096  3 004044   000037 236000 4                  LDQ     31
         3 004045   000036 356000 xsym               ANSQ    TH_CONSTRAINTS+30

     2398     5097    4                         TH_CONSTRAINTS.E_MED_S = %NO;

PL6.E3A0      #007=THC$SELECT File=THC$COMMANDS.:E05TSI                          WED 07/30/97 06:11 Page:418
   5097  3 004046   000031 236000 xsym               LDQ     B_VECTNIL+25
         3 004047   000040 356000 xsym               ANSQ    TH_CONSTRAINTS+32

     2399     5098    4                         TH_CONSTRAINTS.E_FEP_SET = %NO;

   5098  3 004050   000002 236000 4                  LDQ     2
         3 004051   000063 356000 xsym               ANSQ    TH_CONSTRAINTS+51

     2400     5099    4                         TH_CONSTRAINTS.E_CHAN_SET = %NO;

   5099  3 004052   000031 236000 xsym               LDQ     B_VECTNIL+25
         3 004053   000065 356000 xsym               ANSQ    TH_CONSTRAINTS+53

     2401     5100    4                TH_LAST_EXCLUDE.TEXT = ' ';

   5100  3 004054   040000 100400                    MLR     fill='040'O
         3 004055   000035 000001 xsym               ADSC9   B_VECTNIL+29             cn=0,n=1
         3 004056   000000 200167 xsym               ADSC9   TH_LAST_EXCLUDE          cn=1,n=119

     2402     5101    4                TH_LAST_EXCLUDE.COUNT = 0;

   5101  3 004057   000000 236003                    LDQ     0,DU
         3 004060   000000 552040 xsym               STBQ    TH_LAST_EXCLUDE,'40'O
         3 004061   004115 710000 3                  TRA     s:5119

     2403     5102    4                       CASE(%OCTAL);

     2404     5103    4                          TH_CONSTRAINTS.OCTAL = %NO;

   5103  3 004062   000043 236000 4                  LDQ     35
         3 004063   000066 356000 xsym               ANSQ    TH_CONSTRAINTS+54
         3 004064   004115 710000 3                  TRA     s:5119

     2405     5104    4                       CASE(%CROSS);

     2406     5105    4                          TH_CONSTRAINTS.CROSS = %NO;

PL6.E3A0      #007=THC$SELECT File=THC$COMMANDS.:E05TSI                          WED 07/30/97 06:11 Page:419
   5105  3 004065   000050 236000 4                  LDQ     40
         3 004066   000066 356000 xsym               ANSQ    TH_CONSTRAINTS+54
         3 004067   004115 710000 3                  TRA     s:5119

     2407     5106    4                       CASE(%SPAN);

     2408     5107    4                          TH_CONSTRAINTS.START = TH_DEFAULT.START;

   5107  3 004070   000012 235000 xsym               LDA     TH_DEFAULT+10
         3 004071   000012 755000 xsym               STA     TH_CONSTRAINTS+10

     2409     5108    4                          TH_CONSTRAINTS.STOP = TH_DEFAULT.STOP;

   5108  3 004072   000013 236000 xsym               LDQ     TH_DEFAULT+11
         3 004073   000013 756000 xsym               STQ     TH_CONSTRAINTS+11
         3 004074   004115 710000 3                  TRA     s:5119

     2410     5109    4          CASE(%USE);

     2411     5110    4            VLP_SYSTAC.ACCT# = ':SYSTAC';

   5110  3 004075   040000 100400                    MLR     fill='040'O
         3 004076   000012 000007 2                  ADSC9   10                       cn=0,n=7
         3 004077   000000 000010 xsym               ADSC9   VLP_SYSTAC               cn=0,n=8

     2412     5111    4            TH_CHANGE_ACCOUNT = '1'B;

   5111  3 004100   400000 236003                    LDQ     -131072,DU
         3 004101   000000 756000 xsym               STQ     TH_CHANGE_ACCOUNT
         3 004102   004115 710000 3                  TRA     s:5119

     2413     5112    4          CASE(%FILE);

     2414     5113    4            TH_OPEN_ERRLOG.ACCT_ = VECTOR(VLP_SYSTAC);

   5113  3 004103   000044 237000 4                  LDAQ    36
         3 004104   000024 757000 xsym               STAQ    TH_OPEN_ERRLOG+20
PL6.E3A0      #007=THC$SELECT File=THC$COMMANDS.:E05TSI                          WED 07/30/97 06:11 Page:420

     2415     5114    4            TH_OPEN_ERRLOG.NAME_ = VECTOR(TH_VLP_ERRLOG);

   5114  3 004105   000046 237000 4                  LDAQ    38
         3 004106   000006 757000 xsym               STAQ    TH_OPEN_ERRLOG+6

     2416     5115    4            TH_CHANGE_ACCOUNT = '1'B;

   5115  3 004107   400000 236003                    LDQ     -131072,DU
         3 004110   000000 756000 xsym               STQ     TH_CHANGE_ACCOUNT

     2417     5116    4            TH_CONSTRAINTS.START = TH_DEFAULT.START;

   5116  3 004111   000012 235000 xsym               LDA     TH_DEFAULT+10
         3 004112   000012 755000 xsym               STA     TH_CONSTRAINTS+10

     2418     5117    4            TH_CONSTRAINTS.STOP = TH_DEFAULT.STOP;

   5117  3 004113   000013 235000 xsym               LDA     TH_DEFAULT+11
         3 004114   000013 755000 xsym               STA     TH_CONSTRAINTS+11

     2419     5118    4                    END;                   /* CASE OUT$BLK.CODE                  */

     2420     5119    3                 END;                      /* DO I = 0 TO OUT$BLK.NSUBLKS - 1    */

   5119  3 004115   200004 054100                    AOS     I,,AUTO
         3 004116   000000 471500                    LDP1    0,,PR0
         3 004117   100001 236100                    LDQ     1,,PR1
         3 004120   000022 772000                    QRL     18
         3 004121   200004 116100                    CMPQ    I,,AUTO
         3 004122   003767 605400 3                  TPNZ    s:5079

     2421     5120    2        END;                               /* CASE OUT$BLK.CODE                  */

     2422     5121    1   END THC$SELECT;

   5121  3 004123   000000 702200 xent               TSX2  ! X66_ARET
PL6.E3A0      #007=THC$SELECT File=THC$COMMANDS.:E05TSI                          WED 07/30/97 06:11 Page:421
     2423     5122        %EOD;

PL6.E3A0      #007=THC$SELECT File=THC$COMMANDS.:E05TSI                          WED 07/30/97 06:11 Page:422
--  Include file information  --

   EL_SUBS_C.:E05TOU  is referenced.
   TH_PERR_C.:E05TOU  is referenced.
   TH_DATA_R.:E05TOU  cannot be made into a system file and is referenced.
   B_STRINGS_C.:E05TOU  is referenced.
   TH_SUBS_C.:E05TOU  is referenced.
   XU_MACRO_C.:E05TOU  is referenced.
   CP_6.:E05TOU  cannot be made into a system file and is referenced.
   B$JIT_C.:E05TOU  was found in the system file and is never referenced.
   CP_6_C.:E05TOU  was found in the system file and is referenced.
      No diagnostics issued in procedure THC$SELECT.
PL6.E3A0      #007=THC$SELECT File=THC$COMMANDS.:E05TSI                          WED 07/30/97 06:11 Page:423

 **** Variables and constants ****

  ****  Section 001  Data  THC$SELECT

  ****  Scalars and arrays  ****
OctLoc.c.b A Datatyp(siz) R M Lvl/name                 OctLoc.c.b A Datatyp(siz) R M Lvl/name

     0-0-0/w UBIN        r     1 RECOV_TYPES(0:3)

  ****  Auto variables  ****

  ****  Scalars and arrays  ****
OctLoc.c.b A Datatyp(siz) R M Lvl/name                 OctLoc.c.b A Datatyp(siz) R M Lvl/name

     3-0-0/w PTR         r     1 @TOP$                     13-0-0/b BIT         r     1 BIT_SPEC
    14-0-0/w UBIN        r     1 BYTE_SPEC                 45-0-0/c CHAR(119)   r     1 C_TEST
    42-0-0/c CHAR(3)     r     1 DEL_TEST                  41-0-0/b BIT         r     1 EXCLUDE_ADD
    23-0-0/b BIT         r     1 EXCLUDE_DEL               36-0-0/c CHAR(4)     r     1 FEP_CHAN
    37-0-0/c CHAR(4)     r     1 FEP_CHAN_N                35-0-0/c CHAR(3)     r     1 FEP_CODE
    15-0-0/w UBIN        r     1 FIRST_BIT                 30-0-0/b UBIN(9)     r     1 FI_ERR
    12-0-0/b BIT         r     1 FOUND                      4-0-0/w SBIN        r     1 I
    17-0-0/w UBIN        r     1 INDX                       5-0-0/w SBIN        r     1 J
    44-0-0/w UBIN        r     1 JCNT                      43-0-0/w UBIN        r     1 JJ
     6-0-0/w SBIN        r     1 K                         24-0-0/b UBIN(6)     r     1 MAJOR
    40-0-0/b BIT         r     1 MATCH_ADD                 22-0-0/b BIT         r     1 MATCH_DEL
    31-0-0/c CHAR(6)     r     1 MEDIA                      7-0-0/w SBIN        r     1 SAVE_INDEX
    25-0-0/c CHAR(3)     r     1 SUB                       25-0-0/c CHAR        r     1 SUBB(0:2)
    27-0-0/b BIT (6)     r     1 SUBB_BIT                  26-0-0/w UBIN        r     1 SUB_BIN
    27-0-0/b STRC(6)     r     1 SUB_BIT                   33-0-0/c CHAR(8)     r     1 TEMP
    21-0-0/w PTR         r     1 TEMP$                     10-0-0/w UBIN        r     1 TEMP1
    11-0-0/w UBIN        r     1 TEMP2                     33-0-0/c CHAR        r     1 TEMPP(0:7)
    *0-0-0/w PTR         r     1 TOP$                      20-0-0/w UBIN        r     1 VALUE

  ****  SYMREF variables  ****

  ****  Scalars and arrays  ****
OctLoc.c.b A Datatyp(siz) R M Lvl/name                 OctLoc.c.b A Datatyp(siz) R M Lvl/name
PL6.E3A0      #007=THC$SELECT File=THC$COMMANDS.:E05TSI                          WED 07/30/97 06:11 Page:424

     0-0-0/w STRC(504)   r     1 P_PCB                      0-0-0/b BIT         r     1 TH_CHANGE_ACCOUNT
     0-0-0/d STRC(1971)  r     1 TH_CONSTRAINTS             0-0-0/d STRC(1971)  r     1 TH_DEFAULT
     0-0-0/w STRC(1080)  r     1 TH_LAST_EXCLUDE            0-0-0/w STRC(1080)  r     1 TH_LAST_MATCH
     0-0-0/c STRC(37)    r     1 TH_M_CHAN(0:9)
     0-0-0/w UBIN(5)     r     1 TH_M_CHAN_TOTAL            0-0-0/d STRC(2088)  r     1 TH_OPEN_ERRLOG
     0-0-0/b BIT         r     1 TH_RECOV                   0-0-0/c STRC(144)   r     1 TH_VLP_ERRLOG
     0-0-0/c STRC(72)    r     1 VLP_SYSTAC

  ****  BASED and DCB variables  ****

  ****  Scalars and arrays  ****
OctLoc.c.b A Datatyp(siz) R M Lvl/name                 OctLoc.c.b A Datatyp(siz) R M Lvl/name

     0-0-0/w STRC(144)   r     1 OUT$BLK                    0-0-0/w ASTR(153)   r     1 OUT$SYM
     0-0-0/c ACHR        r     1 TEXTBASE


   Procedure THC$SELECT requires 2132 words for executable code.
   Procedure THC$SELECT requires 70 words of local(AUTO) storage.
PL6.E3A0      #007=THC$SELECT File=THC$COMMANDS.:E05TSI                          WED 07/30/97 06:11 Page:425
          *** CROSS REFERENCE LISTING ***
**     DENOTES     IDENTIFIER DEFINITION
<<                 IDENTIFIER'S VALUE SET
>>                 IDENTIFIER'S VALUE USED
<>                 IDENTIFIER SET AND/OR USED
--                 IDENTIFIER REFERENCED
PL6.E3A0      #007=THC$SELECT File=THC$COMMANDS.:E05TSI                          WED 07/30/97 06:11 Page:426
          MINI XREF LISTING

BIT_SPEC
      3798**DCL      4480<<ASSIGN   4484>>IF       4494>>ASSIGN   4507<<ASSIGN   4511>>IF       4521>>ASSIGN
      4876<<ASSIGN   4880>>IF       4890>>ASSIGN   4903<<ASSIGN   4907>>IF       4917>>ASSIGN
BYTE_SPEC
      3799**DCL      4461<<ASSIGN   4481>>ASSIGN   4508>>ASSIGN   4857<<ASSIGN   4877>>ASSIGN   4904>>ASSIGN
C_TEST
      3827**DCL      4647<<ASSIGN   4649<<CALLBLT  4650<<CALLBLT  4652>>ASSIGN   4988<<ASSIGN   4989<<CALLBLT
      4991>>ASSIGN
DEL_END_E
      4988**LABEL    4978--GOTO
DEL_END_M
      4647**LABEL    4623--GOTO
DEL_TEST
      3824**DCL      4346<<ASSIGN   4375<<ASSIGN   4398<<ASSIGN   4421<<ASSIGN   4438<<ASSIGN   4453<<ASSIGN
      4525<<ASSIGN   4543<<ASSIGN   4612<<ASSIGN   4616>>CALLBLT  4640>>IF       4742<<ASSIGN   4771<<ASSIGN
      4794<<ASSIGN   4817<<ASSIGN   4834<<ASSIGN   4849<<ASSIGN   4921<<ASSIGN   4939<<ASSIGN   4969<<ASSIGN
      4973>>CALLBLT  4981>>IF
EXCLUDE_ADD
      3823**DCL      4688<<ASSIGN   4698<<ASSIGN   5006>>IF
EXCLUDE_DEL
      3806**DCL      4687<<ASSIGN   4691<<ASSIGN   4730>>IF       4759>>IF       4781>>IF       4804>>IF
      4821>>IF       4837>>IF       4878>>IF       4905>>IF       4924>>IF       4956>>IF       4971>>IF
      4999>>IF
FEP_CHAN
      3820**DCL      4545<<ASSIGN   4549>>CALLBLT  4551>>CALLBLT  4553>>CALLBLT  4555>>ASSIGN   4627>>IF
      4941<<ASSIGN   4945>>CALLBLT  4947>>CALLBLT  4949>>CALLBLT  4951>>ASSIGN
FEP_CHAN_N
      3821**DCL      4549<<CALLBLT  4551<<CALLBLT  4553<<CALLBLT  4555<<ASSIGN   4567>>IF       4601>>ASSIGN
      4608>>ASSIGN   4945<<CALLBLT  4947<<CALLBLT  4949<<CALLBLT  4951<<ASSIGN   4958>>IF       4967>>ASSIGN
FEP_CODE
      3819**DCL      4527<<ASSIGN   4530>>IF       4539>>ASSIGN   4923<<ASSIGN   4926>>IF       4935>>ASSIGN
FIRST_BIT
PL6.E3A0      #007=THC$SELECT File=THC$COMMANDS.:E05TSI                          WED 07/30/97 06:11 Page:427
      3800**DCL      4471<<ASSIGN   4481>>ASSIGN   4867<<ASSIGN   4877>>ASSIGN
FI_ERR
      3815**DCL      4384<<ASSIGN   4387>>IF       4396>>ASSIGN   4407<<ASSIGN   4410>>IF       4419>>ASSIGN
      4424<<ASSIGN   4427>>IF       4436>>ASSIGN   4780<<ASSIGN   4783>>IF       4792>>ASSIGN   4803<<ASSIGN
      4806>>IF       4815>>ASSIGN   4820<<ASSIGN   4823>>IF       4832>>ASSIGN
FOUND
      3797**DCL      4275<<ASSIGN   4280<<ASSIGN   4282>>IF       4565<<ASSIGN   4570<<ASSIGN   4575>>IF
      4618<<ASSIGN   4620>>DOWHILE  4629<<ASSIGN   4637>>IF
FOUND_CHANNEL
      4575**LABEL    4572--GOTO
I
      3789**DCL      4257<<ASSIGN   4262<<ASSIGN   4263<<DOINDEX  4263>>DOINDEX  4264>>IF       4265>>CALLBLT
      4265>>CALLBLT  4266>>ASSIGN   4316<<DOINDEX  4317>>ASSIGN   4712<<DOINDEX  4713>>ASSIGN   5078<<DOINDEX
      5079>>DOCASE
INDX
      3802**DCL      4481<<ASSIGN   4484>>IF       4484>>IF       4487>>ASSIGN   4493>>ASSIGN   4494>>ASSIGN
      4508<<ASSIGN   4511>>IF       4511>>IF       4514>>ASSIGN   4520>>ASSIGN   4521>>ASSIGN   4663<<CALLBLT
      4664>>DOWHILE  4665<<ASSIGN   4665>>ASSIGN   4669>>CALLBLT  4669>>CALLBLT  4673>>ASSIGN   4681>>ASSIGN
      4682>>ASSIGN   4682>>ASSIGN   4877<<ASSIGN   4880>>IF       4880>>IF       4883>>ASSIGN   4889>>ASSIGN
      4890>>ASSIGN   4904<<ASSIGN   4907>>IF       4907>>IF       4910>>ASSIGN   4916>>ASSIGN   4917>>ASSIGN
      5002<<CALLBLT  5003>>DOWHILE  5004<<ASSIGN   5004>>ASSIGN   5008>>CALLBLT  5008>>CALLBLT  5012>>ASSIGN
      5020>>ASSIGN   5021>>ASSIGN   5021>>ASSIGN
J
      3790**DCL      4278<<DOINDEX  4279>>IF       4296<<ASSIGN   4301<<ASSIGN   4305<<ASSIGN   4316>>DOINDEX
      4546<<ASSIGN   4547>>DOCASE   4692<<ASSIGN   4697<<ASSIGN   4701<<ASSIGN   4712>>DOINDEX  4942<<ASSIGN
      4943>>DOCASE
JCNT
      3826**DCL      4617<<ASSIGN   4621>>DOWHILE  4622>>IF       4624>>IF       4626>>ASSIGN   4627>>IF
      4628<<ASSIGN   4628>>ASSIGN   4632<<ASSIGN   4632>>ASSIGN   4635<<ASSIGN   4635>>ASSIGN   4638<<ASSIGN
      4638>>ASSIGN   4643<<ASSIGN   4643>>ASSIGN   4649>>CALLBLT  4650>>CALLBLT  4653>>IF       4655>>ASSIGN
      4657>>ASSIGN   4974<<ASSIGN   4976>>DOWHILE  4977>>IF       4979<<ASSIGN   4979>>ASSIGN   4984<<ASSIGN
      4984>>ASSIGN   4989>>CALLBLT  4992>>IF       4994>>ASSIGN   4996>>ASSIGN
JJ
      3825**DCL      4578<<ASSIGN   4581<<ASSIGN   4581>>ASSIGN   4583>>IF       4616<<CALLBLT  4617>>ASSIGN
      4655>>ASSIGN   4669<<CALLBLT  4670>>DOWHILE  4671<<ASSIGN   4671>>ASSIGN   4673<<ASSIGN   4673>>ASSIGN
      4674<<ASSIGN   4674>>ASSIGN   4675>>ASSIGN   4676>>CALLBLT  4676>>CALLBLT  4676>>CALLBLT  4973<<CALLBLT
PL6.E3A0      #007=THC$SELECT File=THC$COMMANDS.:E05TSI                          WED 07/30/97 06:11 Page:428
      4974>>ASSIGN   4989>>CALLBLT  4994>>ASSIGN   4996>>ASSIGN   5008<<CALLBLT  5009>>DOWHILE  5010<<ASSIGN
      5010>>ASSIGN   5012<<ASSIGN   5012>>ASSIGN   5013<<ASSIGN   5013>>ASSIGN   5014>>ASSIGN   5015>>CALLBLT
      5015>>CALLBLT  5015>>CALLBLT
K
      3791**DCL      4276<<DOINDEX  4277>>ASSIGN   4379<<DOINDEX  4381>>CALLBLT  4402<<DOINDEX  4404>>CALLBLT
      4499<<DOINDEX  4500>>CALLBLT  4508>>ASSIGN   4566<<DOINDEX  4567>>IF       4571>>ASSIGN   4579<<DOINDEX
      4580>>IF       4775<<DOINDEX  4777>>CALLBLT  4798<<DOINDEX  4800>>CALLBLT  4895<<DOINDEX  4896>>CALLBLT
      4904>>ASSIGN
MAJOR
      3807**DCL      4327<<ASSIGN   4332<<ASSIGN   4336>>IF       4344>>ASSIGN   4723<<ASSIGN   4728<<ASSIGN
      4732>>IF       4740>>ASSIGN
MATCH_ADD
      3822**DCL      4292<<ASSIGN   4302<<ASSIGN   4597>>IF       4667>>IF
MATCH_DEL
      3805**DCL      4291<<ASSIGN   4295<<ASSIGN   4334>>IF       4363>>IF       4385>>IF       4408>>IF
      4425>>IF       4441>>IF       4482>>IF       4509>>IF       4528>>IF       4560>>IF       4614>>IF
      4660>>IF
MEDIA
      3816**DCL      4440<<ASSIGN   4443>>IF       4451>>ASSIGN   4836<<ASSIGN   4839>>IF       4847>>ASSIGN
NEXT_COMMA
      4618**LABEL    4644--GOTO
NEXT_COMMA_E
      4976**LABEL    4985--GOTO
OUT$BLK.CODE
      3844**DCL      4255>>DOCASE   4258>>IF       4264>>IF       4266>>ASSIGN   4293>>IF       4299>>IF
      4318>>DOCASE   4462>>DOCASE   4640>>IF       4689>>IF       4695>>IF       4714>>DOCASE   4858>>DOCASE
      4981>>IF       5079>>DOCASE
OUT$BLK.NSUBLKS
      3848**DCL      4263>>DOINDEX  4316>>DOINDEX  4712>>DOINDEX  5065>>IF       5078>>DOINDEX
OUT$BLK.SUBLK$
      3869**DCL      4258>>IF       4264>>IF       4265>>CALLBLT  4265>>CALLBLT  4266>>ASSIGN   4293>>IF
      4299>>IF       4317>>ASSIGN   4317>>ASSIGN   4320>>IF       4322>>ASSIGN   4322>>ASSIGN   4330>>CALLBLT
      4330>>CALLBLT  4348>>IF       4350>>ASSIGN   4350>>ASSIGN   4359>>CALLBLT  4359>>CALLBLT  4378>>ASSIGN
      4378>>ASSIGN   4379>>DOINDEX  4401>>ASSIGN   4401>>ASSIGN   4402>>DOINDEX  4423>>CALLBLT  4423>>CALLBLT
      4440>>ASSIGN   4440>>ASSIGN   4455>>CALLBLT  4455>>CALLBLT  4462>>DOCASE   4464>>CALLBLT  4464>>CALLBLT
      4464>>CALLBLT  4464>>CALLBLT  4472>>CALLBLT  4472>>CALLBLT  4472>>CALLBLT  4472>>CALLBLT  4497>>ASSIGN
PL6.E3A0      #007=THC$SELECT File=THC$COMMANDS.:E05TSI                          WED 07/30/97 06:11 Page:429
      4497>>ASSIGN   4497>>ASSIGN   4497>>ASSIGN   4527>>ASSIGN   4527>>ASSIGN   4540>>ASSIGN   4545>>ASSIGN
      4545>>ASSIGN   4546>>ASSIGN   4640>>IF       4689>>IF       4695>>IF       4713>>ASSIGN   4713>>ASSIGN
      4716>>IF       4718>>ASSIGN   4718>>ASSIGN   4726>>CALLBLT  4726>>CALLBLT  4744>>IF       4746>>ASSIGN
      4746>>ASSIGN   4755>>CALLBLT  4755>>CALLBLT  4774>>ASSIGN   4774>>ASSIGN   4775>>DOINDEX  4797>>ASSIGN
      4797>>ASSIGN   4798>>DOINDEX  4819>>CALLBLT  4819>>CALLBLT  4836>>ASSIGN   4836>>ASSIGN   4851>>CALLBLT
      4851>>CALLBLT  4858>>DOCASE   4860>>CALLBLT  4860>>CALLBLT  4860>>CALLBLT  4860>>CALLBLT  4868>>CALLBLT
      4868>>CALLBLT  4868>>CALLBLT  4868>>CALLBLT  4893>>ASSIGN   4893>>ASSIGN   4893>>ASSIGN   4893>>ASSIGN
      4923>>ASSIGN   4923>>ASSIGN   4936>>ASSIGN   4941>>ASSIGN   4941>>ASSIGN   4942>>ASSIGN   4981>>IF
      5079>>DOCASE
OUT$SYM.COUNT
      3905**DCL      3908--IMP-SIZ  4265>>CALLBLT  4320>>IF       4322>>ASSIGN   4330>>CALLBLT  4348>>IF
      4350>>ASSIGN   4359>>CALLBLT  4378>>ASSIGN   4379>>DOINDEX  4401>>ASSIGN   4402>>DOINDEX  4423>>CALLBLT
      4440>>ASSIGN   4455>>CALLBLT  4464>>CALLBLT  4472>>CALLBLT  4497>>ASSIGN   4527>>ASSIGN   4540>>ASSIGN
      4545>>ASSIGN   4546>>ASSIGN   4716>>IF       4718>>ASSIGN   4726>>CALLBLT  4744>>IF       4746>>ASSIGN
      4755>>CALLBLT  4774>>ASSIGN   4775>>DOINDEX  4797>>ASSIGN   4798>>DOINDEX  4819>>CALLBLT  4836>>ASSIGN
      4851>>CALLBLT  4860>>CALLBLT  4868>>CALLBLT  4893>>ASSIGN   4923>>ASSIGN   4936>>ASSIGN   4941>>ASSIGN
      4942>>ASSIGN
OUT$SYM.TEXT
      3908**DCL      4265>>CALLBLT  4322>>ASSIGN   4330>>CALLBLT  4350>>ASSIGN   4359>>CALLBLT  4378>>ASSIGN
      4401>>ASSIGN   4423>>CALLBLT  4440>>ASSIGN   4455>>CALLBLT  4464>>CALLBLT  4472>>CALLBLT  4497>>ASSIGN
      4527>>ASSIGN   4545>>ASSIGN   4718>>ASSIGN   4726>>CALLBLT  4746>>ASSIGN   4755>>CALLBLT  4774>>ASSIGN
      4797>>ASSIGN   4819>>CALLBLT  4836>>ASSIGN   4851>>CALLBLT  4860>>CALLBLT  4868>>CALLBLT  4893>>ASSIGN
      4923>>ASSIGN   4941>>ASSIGN
P_PCB.NCHARS
      4079**DCL      3796--IMP-SIZ  4663>>CALLBLT  4664>>DOWHILE  4669>>CALLBLT  4669>>CALLBLT  4670>>DOWHILE
      4674>>ASSIGN   4676>>CALLBLT  4676>>CALLBLT  4681>>ASSIGN   4682>>ASSIGN   4682>>ASSIGN   5002>>CALLBLT
      5003>>DOWHILE  5008>>CALLBLT  5008>>CALLBLT  5009>>DOWHILE  5013>>ASSIGN   5015>>CALLBLT  5015>>CALLBLT
      5020>>ASSIGN   5021>>ASSIGN   5021>>ASSIGN
P_PCB.TEXT$
      3933**DCL      3796--IMP-PTR  4663>>CALLBLT  4664>>DOWHILE  4669>>CALLBLT  4670>>DOWHILE  4676>>CALLBLT
      4682>>ASSIGN   5002>>CALLBLT  5003>>DOWHILE  5008>>CALLBLT  5009>>DOWHILE  5015>>CALLBLT  5021>>ASSIGN
RECOV_TYPES
      3795**DCL      4267<<ASSIGN   4277>>ASSIGN
SAVE_INDEX
      3792**DCL      4619<<ASSIGN   4626<<ASSIGN   4648>>IF       4650>>CALLBLT  4657>>ASSIGN
SUB
PL6.E3A0      #007=THC$SELECT File=THC$COMMANDS.:E05TSI                          WED 07/30/97 06:11 Page:430
      3808**DCL      3809--REDEF    4322<<ASSIGN   4350<<ASSIGN   4378<<ASSIGN   4401<<ASSIGN   4718<<ASSIGN
      4746<<ASSIGN   4774<<ASSIGN   4797<<ASSIGN
SUBB
      3809**DCL      4323>>CALLBLT  4325>>CALLBLT  4351>>CALLBLT  4353>>CALLBLT  4381>>CALLBLT  4404>>CALLBLT
      4719>>CALLBLT  4721>>CALLBLT  4747>>CALLBLT  4749>>CALLBLT  4777>>CALLBLT  4800>>CALLBLT
SUBB_BIT
      3814**DCL      4365>>IF       4373>>ASSIGN   4761>>IF       4769>>ASSIGN
SUB_BIN
      3810**DCL      4323<<CALLBLT  4324>>ASSIGN   4325<<CALLBLT  4326>>ASSIGN   4351<<CALLBLT  4352>>ASSIGN
      4353<<CALLBLT  4354>>ASSIGN   4357<<ASSIGN   4358>>ASSIGN   4359<<CALLBLT  4361>>ASSIGN   4381<<CALLBLT
      4382>>ASSIGN   4404<<CALLBLT  4405>>ASSIGN   4719<<CALLBLT  4720>>ASSIGN   4721<<CALLBLT  4722>>ASSIGN
      4747<<CALLBLT  4748>>ASSIGN   4749<<CALLBLT  4750>>ASSIGN   4753<<ASSIGN   4754>>ASSIGN   4755<<CALLBLT
      4757>>ASSIGN   4777<<CALLBLT  4778>>ASSIGN   4800<<CALLBLT  4801>>ASSIGN
SUB_BIT
      3811**DCL      3814--REDEF
SUB_BIT.ONE
      3812**DCL      4352<<ASSIGN   4358<<ASSIGN   4748<<ASSIGN   4754<<ASSIGN
SUB_BIT.TWO
      3813**DCL      4354<<ASSIGN   4361<<ASSIGN   4750<<ASSIGN   4757<<ASSIGN
TEMP
      3817**DCL      3818--REDEF    4497<<ASSIGN   4893<<ASSIGN
TEMP$
      3804**DCL      4317<<ASSIGN   4318>>DOCASE   4320>>IF       4322>>ASSIGN   4322>>ASSIGN   4330>>CALLBLT
      4330>>CALLBLT  4348>>IF       4350>>ASSIGN   4350>>ASSIGN   4359>>CALLBLT  4359>>CALLBLT  4378>>ASSIGN
      4378>>ASSIGN   4379>>DOINDEX  4401>>ASSIGN   4401>>ASSIGN   4402>>DOINDEX  4423>>CALLBLT  4423>>CALLBLT
      4440>>ASSIGN   4440>>ASSIGN   4455>>CALLBLT  4455>>CALLBLT  4462>>DOCASE   4464>>CALLBLT  4464>>CALLBLT
      4472>>CALLBLT  4472>>CALLBLT  4497>>ASSIGN   4497>>ASSIGN   4527>>ASSIGN   4527>>ASSIGN   4540>>ASSIGN
      4545>>ASSIGN   4545>>ASSIGN   4546>>ASSIGN   4640>>IF       4713<<ASSIGN   4714>>DOCASE   4716>>IF
      4718>>ASSIGN   4718>>ASSIGN   4726>>CALLBLT  4726>>CALLBLT  4744>>IF       4746>>ASSIGN   4746>>ASSIGN
      4755>>CALLBLT  4755>>CALLBLT  4774>>ASSIGN   4774>>ASSIGN   4775>>DOINDEX  4797>>ASSIGN   4797>>ASSIGN
      4798>>DOINDEX  4819>>CALLBLT  4819>>CALLBLT  4836>>ASSIGN   4836>>ASSIGN   4851>>CALLBLT  4851>>CALLBLT
      4858>>DOCASE   4860>>CALLBLT  4860>>CALLBLT  4868>>CALLBLT  4868>>CALLBLT  4893>>ASSIGN   4893>>ASSIGN
      4923>>ASSIGN   4923>>ASSIGN   4936>>ASSIGN   4941>>ASSIGN   4941>>ASSIGN   4942>>ASSIGN   4981>>IF
TEMP1
      3793**DCL      4268<<ASSIGN   4272<<ASSIGN   4276>>DOINDEX
TEMP2
PL6.E3A0      #007=THC$SELECT File=THC$COMMANDS.:E05TSI                          WED 07/30/97 06:11 Page:431
      3794**DCL      4269<<ASSIGN   4273<<ASSIGN   4276>>DOINDEX
TEMPP
      3818**DCL      4500>>CALLBLT  4896>>CALLBLT
TEXTBASE
      3796**DCL      4663>>CALLBLT  4664>>DOWHILE  4669>>CALLBLT  4670>>DOWHILE  4676>>CALLBLT  4682>>ASSIGN
      5002>>CALLBLT  5003>>DOWHILE  5008>>CALLBLT  5009>>DOWHILE  5015>>CALLBLT  5021>>ASSIGN
THM$ERRMSG
      3786**DCL-ENT  4339--CALL     4368--CALL     4391--CALL     4414--CALL     4431--CALL     4446--CALL
      4458--CALL     4468--CALL     4477--CALL     4489--CALL     4504--CALL     4516--CALL     4534--CALL
      4557--CALL     4592--CALL     4735--CALL     4764--CALL     4787--CALL     4810--CALL     4827--CALL
      4842--CALL     4854--CALL     4864--CALL     4873--CALL     4885--CALL     4900--CALL     4912--CALL
      4930--CALL     4953--CALL     4962--CALL
TH_CHANGE_ACCOUNT
      3656**DCL      5071<<ASSIGN   5111<<ASSIGN   5115<<ASSIGN
TH_CONSTRAINTS
      3589**DCL      5066<<ASSIGN
TH_CONSTRAINTS.CROSS
      3596**DCL      5063<<ASSIGN   5105<<ASSIGN
TH_CONSTRAINTS.E_ACT
      3596**DCL      4823>>IF       4832<<ASSIGN
TH_CONSTRAINTS.E_ACT_SET
      3596**DCL      4710<<ASSIGN   4823>>IF       4825<<ASSIGN   4831<<ASSIGN
TH_CONSTRAINTS.E_BY_B
      3592**DCL      3592--REDEF
TH_CONSTRAINTS.E_BY_B_SET
      3593**DCL      4702<<ASSIGN   4880>>IF       4883<<ASSIGN   4889<<ASSIGN   4907>>IF       4910<<ASSIGN
      4916<<ASSIGN   5094<<ASSIGN
TH_CONSTRAINTS.E_BY_B_VEC
      3592**DCL      4880>>IF       4890<<ASSIGN   4907>>IF       4917<<ASSIGN
TH_CONSTRAINTS.E_CHAN
      3594**DCL      4958>>IF       4967<<ASSIGN
TH_CONSTRAINTS.E_CHAN_SET
      3594**DCL      4707<<ASSIGN   4958>>IF       4960<<ASSIGN   4966<<ASSIGN   5099<<ASSIGN
TH_CONSTRAINTS.E_COD
      3595**DCL      4783>>IF       4792<<ASSIGN
TH_CONSTRAINTS.E_COD_SET
PL6.E3A0      #007=THC$SELECT File=THC$COMMANDS.:E05TSI                          WED 07/30/97 06:11 Page:432
      3595**DCL      4708<<ASSIGN   4783>>IF       4785<<ASSIGN   4791<<ASSIGN
TH_CONSTRAINTS.E_FEP
      3594**DCL      4926>>IF       4935<<ASSIGN
TH_CONSTRAINTS.E_FEP_N
      3594**DCL      4936<<ASSIGN
TH_CONSTRAINTS.E_FEP_SET
      3594**DCL      4706<<ASSIGN   4926>>IF       4928<<ASSIGN   4934<<ASSIGN   5098<<ASSIGN
TH_CONSTRAINTS.E_MAJ
      3591**DCL      4732>>IF       4740<<ASSIGN
TH_CONSTRAINTS.E_MAJ_S
      3592**DCL      4703<<ASSIGN   4732>>IF       4733<<ASSIGN   4739<<ASSIGN   5095<<ASSIGN
TH_CONSTRAINTS.E_MED
      3592**DCL      4839>>IF       4847<<ASSIGN
TH_CONSTRAINTS.E_MED_S
      3592**DCL      4705<<ASSIGN   4839>>IF       4840<<ASSIGN   4846<<ASSIGN   5097<<ASSIGN
TH_CONSTRAINTS.E_REA
      3595**DCL      4806>>IF       4815<<ASSIGN
TH_CONSTRAINTS.E_REA_SET
      3596**DCL      4709<<ASSIGN   4806>>IF       4808<<ASSIGN   4814<<ASSIGN
TH_CONSTRAINTS.E_SUB
      3592**DCL      4761>>IF       4769<<ASSIGN
TH_CONSTRAINTS.E_SUB_S
      3592**DCL      4704<<ASSIGN   4761>>IF       4762<<ASSIGN   4768<<ASSIGN   5096<<ASSIGN
TH_CONSTRAINTS.M_ACT
      3595**DCL      4427>>IF       4436<<ASSIGN
TH_CONSTRAINTS.M_ACT_SET
      3595**DCL      4314<<ASSIGN   4427>>IF       4429<<ASSIGN   4435<<ASSIGN
TH_CONSTRAINTS.M_BY_B
      3591**DCL      3591--REDEF
TH_CONSTRAINTS.M_BY_B_SET
      3591**DCL      4306<<ASSIGN   4484>>IF       4487<<ASSIGN   4493<<ASSIGN   4511>>IF       4514<<ASSIGN
      4520<<ASSIGN   5084<<ASSIGN
TH_CONSTRAINTS.M_BY_B_VEC
      3591**DCL      4484>>IF       4494<<ASSIGN   4511>>IF       4521<<ASSIGN
TH_CONSTRAINTS.M_CHAN_SET
      3593**DCL      4311<<ASSIGN   4562>>IF       4585<<ASSIGN   4600<<ASSIGN   4607<<ASSIGN   5089<<ASSIGN
PL6.E3A0      #007=THC$SELECT File=THC$COMMANDS.:E05TSI                          WED 07/30/97 06:11 Page:433
TH_CONSTRAINTS.M_COD
      3594**DCL      4387>>IF       4396<<ASSIGN
TH_CONSTRAINTS.M_COD_SET
      3594**DCL      4312<<ASSIGN   4387>>IF       4389<<ASSIGN   4395<<ASSIGN
TH_CONSTRAINTS.M_FEP
      3593**DCL      4530>>IF       4539<<ASSIGN
TH_CONSTRAINTS.M_FEP_N
      3593**DCL      4540<<ASSIGN
TH_CONSTRAINTS.M_FEP_SET
      3593**DCL      4310<<ASSIGN   4530>>IF       4532<<ASSIGN   4538<<ASSIGN   5088<<ASSIGN
TH_CONSTRAINTS.M_MAJ
      3590**DCL      4336>>IF       4344<<ASSIGN
TH_CONSTRAINTS.M_MAJ_S
      3590**DCL      4307<<ASSIGN   4336>>IF       4337<<ASSIGN   4343<<ASSIGN   5085<<ASSIGN
TH_CONSTRAINTS.M_MED
      3590**DCL      4443>>IF       4451<<ASSIGN
TH_CONSTRAINTS.M_MED_S
      3591**DCL      4309<<ASSIGN   4443>>IF       4444<<ASSIGN   4450<<ASSIGN   5087<<ASSIGN
TH_CONSTRAINTS.M_REA
      3595**DCL      4410>>IF       4419<<ASSIGN
TH_CONSTRAINTS.M_REA_SET
      3595**DCL      4313<<ASSIGN   4410>>IF       4412<<ASSIGN   4418<<ASSIGN
TH_CONSTRAINTS.M_SUB
      3590**DCL      4365>>IF       4373<<ASSIGN
TH_CONSTRAINTS.M_SUB_S
      3590**DCL      4308<<ASSIGN   4365>>IF       4366<<ASSIGN   4372<<ASSIGN   5086<<ASSIGN
TH_CONSTRAINTS.NTYPES
      3589**DCL      4259<<ASSIGN   4278>>DOINDEX  4284>>ASSIGN   4285<<ASSIGN   4285>>ASSIGN   5081<<ASSIGN
TH_CONSTRAINTS.OCTAL
      3596**DCL      5061<<ASSIGN   5103<<ASSIGN
TH_CONSTRAINTS.START
      3590**DCL      5107<<ASSIGN   5116<<ASSIGN
TH_CONSTRAINTS.STOP
      3590**DCL      5108<<ASSIGN   5117<<ASSIGN
TH_CONSTRAINTS.TYPES
      3589**DCL      3589--REDEF    4279>>IF       4284<<ASSIGN
PL6.E3A0      #007=THC$SELECT File=THC$COMMANDS.:E05TSI                          WED 07/30/97 06:11 Page:434
TH_DEFAULT
      3596**DCL      5066>>ASSIGN
TH_DEFAULT.E_BY_B
      3600**DCL      3600--REDEF
TH_DEFAULT.M_BY_B
      3599**DCL      3599--REDEF
TH_DEFAULT.START
      3597**DCL      5107>>ASSIGN   5116>>ASSIGN
TH_DEFAULT.STOP
      3598**DCL      5108>>ASSIGN   5117>>ASSIGN
TH_DEFAULT.TYPES
      3597**DCL      3597--REDEF
TH_LAST_EXCLUDE.COUNT
      3622**DCL      4977>>IF       4992>>IF       4994<<ASSIGN   4994>>ASSIGN   4996<<ASSIGN   4996>>ASSIGN
      5014<<ASSIGN   5014>>ASSIGN   5015>>CALLBLT  5020<<ASSIGN   5074<<ASSIGN   5101<<ASSIGN
TH_LAST_EXCLUDE.TEXT
      3622**DCL      4973>>CALLBLT  4976>>DOWHILE  4989>>CALLBLT  4989>>CALLBLT  4991<<ASSIGN   5015<<CALLBLT
      5015>>CALLBLT  5021<<ASSIGN   5073<<ASSIGN   5100<<ASSIGN
TH_LAST_MATCH.COUNT
      3622**DCL      4622>>IF       4653>>IF       4655<<ASSIGN   4655>>ASSIGN   4657<<ASSIGN   4657>>ASSIGN
      4675<<ASSIGN   4675>>ASSIGN   4676>>CALLBLT  4681<<ASSIGN   5075<<ASSIGN   5092<<ASSIGN
TH_LAST_MATCH.TEXT
      3622**DCL      4616>>CALLBLT  4621>>DOWHILE  4624>>IF       4627>>IF       4649>>CALLBLT  4650>>CALLBLT
      4650>>CALLBLT  4652<<ASSIGN   4676<<CALLBLT  4676>>CALLBLT  4682<<ASSIGN   5072<<ASSIGN   5091<<ASSIGN
TH_M_CHAN.FLAG
      3657**DCL      4571<<ASSIGN   4580>>IF       4602<<ASSIGN   4609<<ASSIGN
TH_M_CHAN.TEXT
      3657**DCL      4567>>IF       4601<<ASSIGN   4608<<ASSIGN
TH_M_CHAN_TOTAL
      3657**DCL      4566>>DOINDEX  4579>>DOINDEX  4601>>ASSIGN   4602>>ASSIGN   4603<<ASSIGN   4603>>ASSIGN
      4610<<ASSIGN   5090<<ASSIGN
TH_OPEN_ERRLOG.ACCT_
      4184**DCL      5069<<ASSIGN   5113<<ASSIGN
TH_OPEN_ERRLOG.ACSVEH_
      4182**DCL      4183--REDEF
TH_OPEN_ERRLOG.ALTKEYS_
PL6.E3A0      #007=THC$SELECT File=THC$COMMANDS.:E05TSI                          WED 07/30/97 06:11 Page:435
      4188**DCL      4189--REDEF    4189--REDEF
TH_OPEN_ERRLOG.HDR_
      4187**DCL      4188--REDEF
TH_OPEN_ERRLOG.NAME_
      4181**DCL      5070<<ASSIGN   5114<<ASSIGN
TH_OPEN_ERRLOG.TAB_
      4186**DCL      4187--REDEF
TH_OPEN_ERRLOG.UHL_
      4180**DCL      4181--REDEF    4181--REDEF
TH_OPEN_ERRLOG.V.FSN#
      4220**DCL      4220--REDEF    4220--REDEF
TH_OPEN_ERRLOG.WSN_
      4186**DCL      4186--REDEF
TH_RECOV
      3623**DCL      4260<<ASSIGN   4271<<ASSIGN   5067<<ASSIGN   5082<<ASSIGN
TH_SAVE.E_BY_B
      3608**DCL      3608--REDEF
TH_SAVE.M_BY_B
      3606**DCL      3606--REDEF
TH_SAVE.TYPES
      3604**DCL      3605--REDEF
TH_VLP_ERRLOG
      4251**DCL      5070--ASSIGN   5114--ASSIGN
TH_XSA_BUF_VECTOR
      3624**DCL      3624--REDEF
TOP$
         9**DCL         6--PROC     3836--IMP-PTR  4255>>DOCASE   4258>>IF       4263>>DOINDEX  4264>>IF
      4265>>CALLBLT  4265>>CALLBLT  4266>>ASSIGN   4293>>IF       4299>>IF       4316>>DOINDEX  4317>>ASSIGN
      4689>>IF       4695>>IF       4712>>DOINDEX  4713>>ASSIGN   5065>>IF       5078>>DOINDEX  5079>>DOCASE
VALUE
      3803**DCL      4265<<CALLBLT  4266<<ASSIGN   4267>>ASSIGN   4270>>IF       4277<<ASSIGN   4279>>IF
      4284>>ASSIGN   4324<<ASSIGN   4326<<ASSIGN   4326>>ASSIGN   4327>>ASSIGN   4330<<CALLBLT  4332>>ASSIGN
      4377<<ASSIGN   4380<<ASSIGN   4380>>ASSIGN   4382<<ASSIGN   4382>>ASSIGN   4384>>ASSIGN   4400<<ASSIGN
      4403<<ASSIGN   4403>>ASSIGN   4405<<ASSIGN   4405>>ASSIGN   4407>>ASSIGN   4423<<CALLBLT  4424>>ASSIGN
      4455<<CALLBLT  4456>>IF       4461>>ASSIGN   4464<<CALLBLT  4466>>IF       4471>>ASSIGN   4472<<CALLBLT
      4474>>IF       4474>>IF       4480>>ASSIGN   4500<<CALLBLT  4501>>IF       4501>>IF       4507>>ASSIGN
PL6.E3A0      #007=THC$SELECT File=THC$COMMANDS.:E05TSI                          WED 07/30/97 06:11 Page:436
      4720<<ASSIGN   4722<<ASSIGN   4722>>ASSIGN   4723>>ASSIGN   4726<<CALLBLT  4728>>ASSIGN   4773<<ASSIGN
      4776<<ASSIGN   4776>>ASSIGN   4778<<ASSIGN   4778>>ASSIGN   4780>>ASSIGN   4796<<ASSIGN   4799<<ASSIGN
      4799>>ASSIGN   4801<<ASSIGN   4801>>ASSIGN   4803>>ASSIGN   4819<<CALLBLT  4820>>ASSIGN   4851<<CALLBLT
      4852>>IF       4857>>ASSIGN   4860<<CALLBLT  4862>>IF       4867>>ASSIGN   4868<<CALLBLT  4870>>IF
      4870>>IF       4876>>ASSIGN   4896<<CALLBLT  4897>>IF       4897>>IF       4903>>ASSIGN
VLP_SYSTAC
      3641**DCL      5069--ASSIGN   5113--ASSIGN
VLP_SYSTAC.ACCT#
      3641**DCL      5068<<ASSIGN   5110<<ASSIGN
WRONG
      4592**LABEL    4588--GOTO

