PL6.E3A0      #004=IOERR$COMPARE File=THC$COMMANDS.:E05TSI                       WED 07/30/97 06:10 Page:228
     1253        1        /*T***********************************************************/
     1254        2        /*T*                                                         */
     1255        3        /*T* Copyright (c) Bull HN Information Systems Inc., 1997    */
     1256        4        /*T*                                                         */
     1257        5        /*T***********************************************************/
     1258        6        /* IOERR$COMPARE IS A USER_CODE ROUTINE TO COMPARE KEYS FOR IOERR   */
     1259        7        IOERR$COMPARE: PROC(RECORD1,RECORD2,RESULT);
     1260        8        %INCLUDE EL$TABLES;
     1261      331        %INCLUDE CP_6;
     1262      412    1   DCL RESULT SBIN;
     1263      413        %EL$IOERR(NAME=RECORD1,STCLASS=" ");
     1264      423        %EL$IOERR(NAME=RECORD2,STCLASS=" ");
     1265      433    1   DCL 1 REC1 AUTO,
     1266      434    1         2 DENSE1 UBIN(4) UNAL,
     1267      435    1         2 DENSE2 UBIN(4) UNAL;
     1268      436    1   DCL 1 REC1_RDF REDEF REC1 UBIN(8) UNAL;
     1269      437    1   DCL 1 REC2 AUTO,
     1270      438    1         2 DENSE1 UBIN(4) UNAL,
     1271      439    1         2 DENSE2 UBIN(4) UNAL;
     1272      440    1   DCL 1 REC2_RDF REDEF REC2 UBIN(8) UNAL;
     1273      441        /**/
     1274      442    1   REC1_RDF = RECORD1.EXTST(2);
     1275      443    1   REC2_RDF = RECORD2.EXTST(2);
     1276      444    1   RESULT = 0;
     1277      445
     1278      446    1   IF RECORD1.DEVNM < RECORD2.DEVNM THEN RESULT = 1;
     1279      447    1   ELSE IF RECORD1.DEVNM > RECORD2.DEVNM THEN RESULT = 2;
     1280      448    1   ELSE
     1281      449    1      IF RECORD1.IOCHAN < RECORD2.IOCHAN THEN RESULT = 1;
     1282      450    1      ELSE IF RECORD1.IOCHAN > RECORD2.IOCHAN THEN RESULT = 2;
     1283      451    1      ELSE
     1284      452    1         IF RECORD1.XSTATUS.MAJOR < RECORD2.XSTATUS.MAJOR THEN RESULT = 1;
     1285      453    1         ELSE IF RECORD1.XSTATUS.MAJOR > RECORD2.XSTATUS.MAJOR THEN RESULT = 2;
     1286      454    1         ELSE
     1287      455    1            IF BITBIN(RECORD1.XSTATUS.MINOR) < BITBIN(RECORD2.XSTATUS.MINOR)
     1288      456    1            THEN RESULT = 1;
     1289      457    1            ELSE IF BITBIN(RECORD1.XSTATUS.MINOR) > BITBIN(RECORD2.XSTATUS.MINOR)
PL6.E3A0      #004=IOERR$COMPARE File=THC$COMMANDS.:E05TSI                       WED 07/30/97 06:10 Page:229
     1290      458    1            THEN RESULT = 2;
     1291      459    1            ELSE
     1292      460    1               IF RECORD1.MODEL < RECORD2.MODEL THEN RESULT = 1;
     1293      461    1               ELSE IF RECORD1.MODEL > RECORD2.MODEL THEN RESULT = 2;
     1294      462    1               ELSE
     1295      463    1                  IF REC1.DENSE1 < REC2.DENSE1 THEN RESULT = 1;
     1296      464    1                  ELSE IF REC1.DENSE1 > REC2.DENSE1 THEN RESULT = 2;
     1297      465    1                  ELSE
     1298      466    1                     IF RECORD1.IDCW < RECORD2.IDCW THEN RESULT = 1;
     1299      467    1                     ELSE IF RECORD1.IDCW > RECORD2.IDCW THEN RESULT = 2;
     1300      468    1   END IOERR$COMPARE;
     1301      469        %EOD;

PL6.E3A0      #004=IOERR$COMPARE File=THC$COMMANDS.:E05TSI                       WED 07/30/97 06:10 Page:230
--  Include file information  --

   CP_6.:E05TOU  cannot be made into a system file and is referenced.
   EL$TABLES.:E05TOU  is referenced.
   B$JIT_C.:E05TOU  was found in the system file and is never referenced.
   CP_6_C.:E05TOU  was found in the system file and is referenced.
      No diagnostics issued in procedure IOERR$COMPARE.

   Procedure IOERR$COMPARE requires 124 words for executable code.
   Procedure IOERR$COMPARE requires 10 words of local(AUTO) storage.

PL6.E3A0      #004=IOERR$COMPARE File=THC$COMMANDS.:E05TSI                       WED 07/30/97 06:10 Page:231

 Object Unit name= IOERR$COMPARE                              File name= THC$COMMANDS.:E05TOU
 UTS= JUL 30 '97 06:10:20.76 WED                              Compiler= PL-6/E31         Sev=      00
 SharedLib= :SHARED_SYSTEM                                    Alt SharedLib=


    ****  Control sections  ****

 Sect   Type Bound  Init  Size OctSiz  Section name(segment info)
    0   DCB   even  none     0      0  M$UC
    1   Proc  even  none   124    174  IOERR$COMPARE

    ****  Entry defs  ****

                              Check   Calling
                             calling  sequence
  Sect OctLoc Primary Altret sequence   type   Parms  Name
     1      0   yes            yes      Std        3  IOERR$COMPARE

  ****  Entry refs  ****

         Check        Calling
        calling       sequence
Altret sequence SRef   type   Args  Name
                       nStd      0 X66_AUTO_3
                       nStd      0 X66_ARET

  ****  Data refs  ****

  Flags:  r = read only, s = secondary
Flgs Name                             Flgs Name                             Flgs Name
     M$UC
PL6.E3A0      #004=IOERR$COMPARE File=THC$COMMANDS.:E05TSI                       WED 07/30/97 06:10 Page:232


     1253        1        /*T***********************************************************/
     1254        2        /*T*                                                         */
     1255        3        /*T* Copyright (c) Bull HN Information Systems Inc., 1997    */
     1256        4        /*T*                                                         */
     1257        5        /*T***********************************************************/
     1258        6        /* IOERR$COMPARE IS A USER_CODE ROUTINE TO COMPARE KEYS FOR IOERR   */
     1259        7        IOERR$COMPARE: PROC(RECORD1,RECORD2,RESULT);

      7  1 000000   000000 700200 xent  IOERR$COMPA* TSX0  ! X66_AUTO_3
         1 000001   000012 000003                    ZERO    10,3

     1260        8        %INCLUDE EL$TABLES;
     1261      331        %INCLUDE CP_6;
     1262      412    1   DCL RESULT SBIN;
     1263      413        %EL$IOERR(NAME=RECORD1,STCLASS=" ");
     1264      423        %EL$IOERR(NAME=RECORD2,STCLASS=" ");
     1265      433    1   DCL 1 REC1 AUTO,
     1266      434    1         2 DENSE1 UBIN(4) UNAL,
     1267      435    1         2 DENSE2 UBIN(4) UNAL;
     1268      436    1   DCL 1 REC1_RDF REDEF REC1 UBIN(8) UNAL;
     1269      437    1   DCL 1 REC2 AUTO,
     1270      438    1         2 DENSE1 UBIN(4) UNAL,
     1271      439    1         2 DENSE2 UBIN(4) UNAL;
     1272      440    1   DCL 1 REC2_RDF REDEF REC2 UBIN(8) UNAL;
     1273      441        /**/
     1274      442    1   REC1_RDF = RECORD1.EXTST(2);

    442  1 000002   200003 470500                    LDP0    @RECORD1,,AUTO
         1 000003   000013 236100                    LDQ     11,,PR0
         1 000004   000020 736000                    QLS     16
         1 000005   200006 676100                    ERQ     REC1,,AUTO
         1 000006   776000 376003                    ANQ     -1024,DU
         1 000007   200006 656100                    ERSQ    REC1,,AUTO

     1275      443    1   REC2_RDF = RECORD2.EXTST(2);

PL6.E3A0      #004=IOERR$COMPARE File=THC$COMMANDS.:E05TSI                       WED 07/30/97 06:10 Page:233
    443  1 000010   200004 471500                    LDP1    @RECORD2,,AUTO
         1 000011   100013 236100                    LDQ     11,,PR1
         1 000012   000020 736000                    QLS     16
         1 000013   200007 676100                    ERQ     REC2,,AUTO
         1 000014   776000 376003                    ANQ     -1024,DU
         1 000015   200007 656100                    ERSQ    REC2,,AUTO

     1276      444    1   RESULT = 0;

    444  1 000016   200005 473500                    LDP3    @RESULT,,AUTO
         1 000017   300000 450100                    STZ     0,,PR3

     1277      445
     1278      446    1   IF RECORD1.DEVNM < RECORD2.DEVNM THEN RESULT = 1;

    446  1 000020   040100 106500                    CMPC    fill='040'O
         1 000021   000024 000010                    ADSC9   20,,PR0                  cn=0,n=8
         1 000022   100024 000010                    ADSC9   20,,PR1                  cn=0,n=8
         1 000023   000027 603000 1                  TRC     s:447

    446  1 000024   000001 235007                    LDA     1,DL
         1 000025   300000 755100                    STA     0,,PR3
         1 000026   000173 710000 1                  TRA     s:468

     1279      447    1   ELSE IF RECORD1.DEVNM > RECORD2.DEVNM THEN RESULT = 2;

    447  1 000027   000034 602000 1                  TNC     s:449
         1 000030   000034 600000 1                  TZE     s:449

    447  1 000031   000002 235007                    LDA     2,DL
         1 000032   300000 755100                    STA     0,,PR3
         1 000033   000173 710000 1                  TRA     s:468

     1280      448    1   ELSE
     1281      449    1      IF RECORD1.IOCHAN < RECORD2.IOCHAN THEN RESULT = 1;

    449  1 000034   000005 220100                    LDX0    5,,PR0
PL6.E3A0      #004=IOERR$COMPARE File=THC$COMMANDS.:E05TSI                       WED 07/30/97 06:10 Page:234
         1 000035   100005 100100                    CMPX0   5,,PR1
         1 000036   000042 603000 1                  TRC     s:450

    449  1 000037   000001 235007                    LDA     1,DL
         1 000040   300000 755100                    STA     0,,PR3
         1 000041   000173 710000 1                  TRA     s:468

     1282      450    1      ELSE IF RECORD1.IOCHAN > RECORD2.IOCHAN THEN RESULT = 2;

    450  1 000042   100005 221100                    LDX1    5,,PR1
         1 000043   000005 101100                    CMPX1   5,,PR0
         1 000044   000050 603000 1                  TRC     s:452

    450  1 000045   000002 235007                    LDA     2,DL
         1 000046   300000 755100                    STA     0,,PR3
         1 000047   000173 710000 1                  TRA     s:468

     1283      451    1      ELSE
     1284      452    1         IF RECORD1.XSTATUS.MAJOR < RECORD2.XSTATUS.MAJOR THEN RESULT = 1;

    452  1 000050   100001 236100                    LDQ     1,,PR1
         1 000051   000036 772000                    QRL     30
         1 000052   200010 756100                    STQ     REC2+1,,AUTO
         1 000053   000001 236100                    LDQ     1,,PR0
         1 000054   000036 772000                    QRL     30
         1 000055   200010 116100                    CMPQ    REC2+1,,AUTO
         1 000056   000062 605000 1                  TPL     s:453

    452  1 000057   000001 235007                    LDA     1,DL
         1 000060   300000 755100                    STA     0,,PR3
         1 000061   000173 710000 1                  TRA     s:468

     1285      453    1         ELSE IF RECORD1.XSTATUS.MAJOR > RECORD2.XSTATUS.MAJOR THEN RESULT = 2;

    453  1 000062   200010 756100                    STQ     REC2+1,,AUTO
         1 000063   100001 236100                    LDQ     1,,PR1
         1 000064   000036 772000                    QRL     30
PL6.E3A0      #004=IOERR$COMPARE File=THC$COMMANDS.:E05TSI                       WED 07/30/97 06:10 Page:235
         1 000065   200010 116100                    CMPQ    REC2+1,,AUTO
         1 000066   000072 605000 1                  TPL     s:455

    453  1 000067   000002 235007                    LDA     2,DL
         1 000070   300000 755100                    STA     0,,PR3
         1 000071   000173 710000 1                  TRA     s:468

     1286      454    1         ELSE
     1287      455    1            IF BITBIN(RECORD1.XSTATUS.MINOR) < BITBIN(RECORD2.XSTATUS.MINOR)

    455  1 000072   000001 236100                    LDQ     1,,PR0
         1 000073   000030 772000                    QRL     24
         1 000074   000077 376007                    ANQ     63,DL
         1 000075   200010 756100                    STQ     REC2+1,,AUTO
         1 000076   100001 236100                    LDQ     1,,PR1
         1 000077   000030 772000                    QRL     24
         1 000100   000077 376007                    ANQ     63,DL
         1 000101   200010 116100                    CMPQ    REC2+1,,AUTO
         1 000102   000107 602000 1                  TNC     s:457
         1 000103   000107 600000 1                  TZE     s:457

     1288      456    1            THEN RESULT = 1;

    456  1 000104   000001 235007                    LDA     1,DL
         1 000105   300000 755100                    STA     0,,PR3
         1 000106   000173 710000 1                  TRA     s:468

     1289      457    1            ELSE IF BITBIN(RECORD1.XSTATUS.MINOR) > BITBIN(RECORD2.XSTATUS.MINOR)

    457  1 000107   000001 236100                    LDQ     1,,PR0
         1 000110   000030 772000                    QRL     24
         1 000111   000077 376007                    ANQ     63,DL
         1 000112   200010 756100                    STQ     REC2+1,,AUTO
         1 000113   100001 236100                    LDQ     1,,PR1
         1 000114   000030 772000                    QRL     24
         1 000115   000077 376007                    ANQ     63,DL
         1 000116   200010 116100                    CMPQ    REC2+1,,AUTO
PL6.E3A0      #004=IOERR$COMPARE File=THC$COMMANDS.:E05TSI                       WED 07/30/97 06:10 Page:236
         1 000117   000123 603000 1                  TRC     s:460

     1290      458    1            THEN RESULT = 2;

    458  1 000120   000002 235007                    LDA     2,DL
         1 000121   300000 755100                    STA     0,,PR3
         1 000122   000173 710000 1                  TRA     s:468

     1291      459    1            ELSE
     1292      460    1               IF RECORD1.MODEL < RECORD2.MODEL THEN RESULT = 1;

    460  1 000123   040100 106500                    CMPC    fill='040'O
         1 000124   000030 000010                    ADSC9   24,,PR0                  cn=0,n=8
         1 000125   100030 000010                    ADSC9   24,,PR1                  cn=0,n=8
         1 000126   000132 603000 1                  TRC     s:461

    460  1 000127   000001 235007                    LDA     1,DL
         1 000130   300000 755100                    STA     0,,PR3
         1 000131   000173 710000 1                  TRA     s:468

     1293      461    1               ELSE IF RECORD1.MODEL > RECORD2.MODEL THEN RESULT = 2;

    461  1 000132   000137 602000 1                  TNC     s:463
         1 000133   000137 600000 1                  TZE     s:463

    461  1 000134   000002 235007                    LDA     2,DL
         1 000135   300000 755100                    STA     0,,PR3
         1 000136   000173 710000 1                  TRA     s:468

     1294      462    1               ELSE
     1295      463    1                  IF REC1.DENSE1 < REC2.DENSE1 THEN RESULT = 1;

    463  1 000137   200007 236100                    LDQ     REC2,,AUTO
         1 000140   000040 772000                    QRL     32
         1 000141   200010 756100                    STQ     REC2+1,,AUTO
         1 000142   200006 236100                    LDQ     REC1,,AUTO
         1 000143   000040 772000                    QRL     32
PL6.E3A0      #004=IOERR$COMPARE File=THC$COMMANDS.:E05TSI                       WED 07/30/97 06:10 Page:237
         1 000144   200010 116100                    CMPQ    REC2+1,,AUTO
         1 000145   000151 605000 1                  TPL     s:464

    463  1 000146   000001 235007                    LDA     1,DL
         1 000147   300000 755100                    STA     0,,PR3
         1 000150   000173 710000 1                  TRA     s:468

     1296      464    1                  ELSE IF REC1.DENSE1 > REC2.DENSE1 THEN RESULT = 2;

    464  1 000151   200010 756100                    STQ     REC2+1,,AUTO
         1 000152   200007 236100                    LDQ     REC2,,AUTO
         1 000153   000040 772000                    QRL     32
         1 000154   200010 116100                    CMPQ    REC2+1,,AUTO
         1 000155   000161 605000 1                  TPL     s:466

    464  1 000156   000002 235007                    LDA     2,DL
         1 000157   300000 755100                    STA     0,,PR3
         1 000160   000173 710000 1                  TRA     s:468

     1297      465    1                  ELSE
     1298      466    1                     IF RECORD1.IDCW < RECORD2.IDCW THEN RESULT = 1;

    466  1 000161   000010 236100                    LDQ     8,,PR0
         1 000162   100010 116100                    CMPQ    8,,PR1
         1 000163   000167 603000 1                  TRC     s:467

    466  1 000164   000001 235007                    LDA     1,DL
         1 000165   300000 755100                    STA     0,,PR3
         1 000166   000173 710000 1                  TRA     s:468

     1299      467    1                     ELSE IF RECORD1.IDCW > RECORD2.IDCW THEN RESULT = 2;

    467  1 000167   000173 602000 1                  TNC     s:468
         1 000170   000173 600000 1                  TZE     s:468

    467  1 000171   000002 235007                    LDA     2,DL
         1 000172   300000 755100                    STA     0,,PR3
PL6.E3A0      #004=IOERR$COMPARE File=THC$COMMANDS.:E05TSI                       WED 07/30/97 06:10 Page:238

     1300      468    1   END IOERR$COMPARE;

    468  1 000173   000000 702200 xent               TSX2  ! X66_ARET
     1301      469        %EOD;

PL6.E3A0      #004=IOERR$COMPARE File=THC$COMMANDS.:E05TSI                       WED 07/30/97 06:10 Page:239
--  Include file information  --

   CP_6.:E05TOU  cannot be made into a system file and is referenced.
   EL$TABLES.:E05TOU  is referenced.
   B$JIT_C.:E05TOU  was found in the system file and is never referenced.
   CP_6_C.:E05TOU  was found in the system file and is referenced.
      No diagnostics issued in procedure IOERR$COMPARE.
PL6.E3A0      #004=IOERR$COMPARE File=THC$COMMANDS.:E05TSI                       WED 07/30/97 06:10 Page:240

 **** Variables and constants ****

  ****  Auto variables  ****

  ****  Scalars and arrays  ****
OctLoc.c.b A Datatyp(siz) R M Lvl/name                 OctLoc.c.b A Datatyp(siz) R M Lvl/name

     3-0-0/w PTR         r     1 @RECORD1                   4-0-0/w PTR         r     1 @RECORD2
     5-0-0/w PTR         r     1 @RESULT                    6-0-0/b STRC(8)     r     1 REC1
     6-0-0/b UBIN(8)     r     1 REC1_RDF                   7-0-0/b STRC(8)     r     1 REC2
     7-0-0/b UBIN(8)     r     1 REC2_RDF                  *0-0-0/w STRC(1080)  r     1 RECORD1
    *0-0-0/w STRC(1080)  r     1 RECORD2                   *0-0-0/w SBIN        r     1 RESULT


   Procedure IOERR$COMPARE requires 124 words for executable code.
   Procedure IOERR$COMPARE requires 10 words of local(AUTO) storage.
PL6.E3A0      #004=IOERR$COMPARE File=THC$COMMANDS.:E05TSI                       WED 07/30/97 06:10 Page:241
          *** CROSS REFERENCE LISTING ***
**     DENOTES     IDENTIFIER DEFINITION
<<                 IDENTIFIER'S VALUE SET
>>                 IDENTIFIER'S VALUE USED
<>                 IDENTIFIER SET AND/OR USED
--                 IDENTIFIER REFERENCED
PL6.E3A0      #004=IOERR$COMPARE File=THC$COMMANDS.:E05TSI                       WED 07/30/97 06:10 Page:242
          MINI XREF LISTING

REC1
       433**DCL       436--REDEF
REC1.DENSE1
       434**DCL       463>>IF        464>>IF
REC1_RDF
       436**DCL       442<<ASSIGN
REC2
       437**DCL       440--REDEF
REC2.DENSE1
       438**DCL       463>>IF        464>>IF
REC2_RDF
       440**DCL       443<<ASSIGN
RECORD1
       414**DCL         7--PROC
RECORD1.DEVNM
       419**DCL       446>>IF        447>>IF
RECORD1.EXTST
       418**DCL       442>>ASSIGN
RECORD1.IDCW
       418**DCL       466>>IF        467>>IF
RECORD1.IOCHAN
       416**DCL       449>>IF        450>>IF
RECORD1.MODEL
       420**DCL       460>>IF        461>>IF
RECORD1.SEEK
       418**DCL       419--REDEF
RECORD1.STATUS
       414**DCL       415--REDEF
RECORD1.XSTATUS.MAJOR
       415**DCL       452>>IF        453>>IF
RECORD1.XSTATUS.MINOR
       415**DCL       455>>IF        457>>IF
PL6.E3A0      #004=IOERR$COMPARE File=THC$COMMANDS.:E05TSI                       WED 07/30/97 06:10 Page:243
RECORD2
       424**DCL         7--PROC
RECORD2.DEVNM
       429**DCL       446>>IF        447>>IF
RECORD2.EXTST
       428**DCL       443>>ASSIGN
RECORD2.IDCW
       428**DCL       466>>IF        467>>IF
RECORD2.IOCHAN
       426**DCL       449>>IF        450>>IF
RECORD2.MODEL
       430**DCL       460>>IF        461>>IF
RECORD2.SEEK
       428**DCL       429--REDEF
RECORD2.STATUS
       424**DCL       425--REDEF
RECORD2.XSTATUS.MAJOR
       425**DCL       452>>IF        453>>IF
RECORD2.XSTATUS.MINOR
       425**DCL       455>>IF        457>>IF
RESULT
       412**DCL         7--PROC      444<<ASSIGN    446<<ASSIGN    447<<ASSIGN    449<<ASSIGN    450<<ASSIGN
       452<<ASSIGN    453<<ASSIGN    456<<ASSIGN    458<<ASSIGN    460<<ASSIGN    461<<ASSIGN    463<<ASSIGN
       464<<ASSIGN    466<<ASSIGN    467<<ASSIGN

PL6.E3A0      #005=FEPERR$COMPARE File=THC$COMMANDS.:E05TSI                      WED 07/30/97 06:10 Page:244
     1302        1        /*T***********************************************************/
     1303        2        /*T*                                                         */
     1304        3        /*T* Copyright (c) Bull HN Information Systems Inc., 1997    */
     1305        4        /*T*                                                         */
     1306        5        /*T***********************************************************/
     1307        6        /* FEPERR$COMPARE IS A USR_CODE ROUTINE TO COMPARE KEYS FOR FEPERR */
     1308        7        FEPERR$COMPARE: PROC(RECD1,RECD2,RES);
     1309        8        %INCLUDE EL$TABLES;
     1310      331        %INCLUDE CP_6;
     1311      412    1   DCL RES SBIN;
     1312      413        %EL$FEPERR(NAME=RECD1,STCLASS=" ");
     1313      492        %EL$FEPERR(NAME=RECD2,STCLASS=" ");
     1314      571        /**/
     1315      572    1   RES = 0;
     1316      573
     1317      574    1   IF RECD1.STATDATA.NODE < RECD2.STATDATA.NODE THEN RES = 1;
     1318      575    1   ELSE IF RECD1.STATDATA.NODE > RECD2.STATDATA.NODE THEN RES = 2;
     1319      576    1   ELSE
     1320      577    1      IF RECD1.STATDATA.TERMID.TERM.CHANNEL < RECD2.STATDATA.TERMID.TERM.CHANNEL
     1321      578    1      THEN RES = 1;
     1322      579    1      ELSE IF RECD1.STATDATA.TERMID.TERM.CHANNEL > RECD2.STATDATA.TERMID.TERM.CHANNEL
     1323      580    1      THEN RES = 2;
     1324      581    1      ELSE
     1325      582    1            IF RECD1.STATDATA.ERRCODE.FCG < RECD2.STATDATA.ERRCODE.FCG THEN RES = 1;
     1326      583    1            ELSE IF RECD1.STATDATA.ERRCODE.FCG > RECD2.STATDATA.ERRCODE.FCG THEN RES =
               583                     2;
     1327      584    1            ELSE
     1328      585    1               IF RECD1.STATDATA.ERRCODE.ERR# < RECD2.STATDATA.ERRCODE.ERR#
     1329      586    1               THEN RES = 1;
     1330      587    1               ELSE IF RECD1.STATDATA.ERRCODE.ERR# > RECD2.STATDATA.ERRCODE.ERR#
     1331      588    1               THEN RES = 2;
     1332      589    1               ELSE
     1333      590    1                  IF RECD1.STATDATA.ERRCODE.SEV < RECD2.STATDATA.ERRCODE.SEV
     1334      591    1                  THEN RES = 1;
     1335      592    1                  ELSE IF RECD1.STATDATA.ERRCODE.SEV > RECD2.STATDATA.ERRCODE.SEV
     1336      593    1                  THEN RES = 2;
     1337      594    1   END FEPERR$COMPARE;
PL6.E3A0      #005=FEPERR$COMPARE File=THC$COMMANDS.:E05TSI                      WED 07/30/97 06:10 Page:245
     1338      595        %EOD;

PL6.E3A0      #005=FEPERR$COMPARE File=THC$COMMANDS.:E05TSI                      WED 07/30/97 06:10 Page:246
--  Include file information  --

   CP_6.:E05TOU  cannot be made into a system file and is referenced.
   EL$TABLES.:E05TOU  is referenced.
   B$JIT_C.:E05TOU  was found in the system file and is never referenced.
   CP_6_C.:E05TOU  was found in the system file and is referenced.
      No diagnostics issued in procedure FEPERR$COMPARE.

   Procedure FEPERR$COMPARE requires 87 words for executable code.
   Procedure FEPERR$COMPARE requires 8 words of local(AUTO) storage.

PL6.E3A0      #005=FEPERR$COMPARE File=THC$COMMANDS.:E05TSI                      WED 07/30/97 06:10 Page:247

 Object Unit name= FEPERR$COMPARE                             File name= THC$COMMANDS.:E05TOU
 UTS= JUL 30 '97 06:10:36.76 WED                              Compiler= PL-6/E31         Sev=      00
 SharedLib= :SHARED_SYSTEM                                    Alt SharedLib=


    ****  Control sections  ****

 Sect   Type Bound  Init  Size OctSiz  Section name(segment info)
    0   DCB   even  none     0      0  M$UC
    1   Proc  even  none    87    127  FEPERR$COMPARE

    ****  Entry defs  ****

                              Check   Calling
                             calling  sequence
  Sect OctLoc Primary Altret sequence   type   Parms  Name
     1      0   yes            yes      Std        3  FEPERR$COMPARE

  ****  Entry refs  ****

         Check        Calling
        calling       sequence
Altret sequence SRef   type   Args  Name
                       nStd      0 X66_AUTO_3
                       nStd      0 X66_ARET

  ****  Data refs  ****

  Flags:  r = read only, s = secondary
Flgs Name                             Flgs Name                             Flgs Name
     M$UC
PL6.E3A0      #005=FEPERR$COMPARE File=THC$COMMANDS.:E05TSI                      WED 07/30/97 06:10 Page:248


     1302        1        /*T***********************************************************/
     1303        2        /*T*                                                         */
     1304        3        /*T* Copyright (c) Bull HN Information Systems Inc., 1997    */
     1305        4        /*T*                                                         */
     1306        5        /*T***********************************************************/
     1307        6        /* FEPERR$COMPARE IS A USR_CODE ROUTINE TO COMPARE KEYS FOR FEPERR */
     1308        7        FEPERR$COMPARE: PROC(RECD1,RECD2,RES);

      7  1 000000   000000 700200 xent  FEPERR$COMP* TSX0  ! X66_AUTO_3
         1 000001   000010 000003                    ZERO    8,3

     1309        8        %INCLUDE EL$TABLES;
     1310      331        %INCLUDE CP_6;
     1311      412    1   DCL RES SBIN;
     1312      413        %EL$FEPERR(NAME=RECD1,STCLASS=" ");
     1313      492        %EL$FEPERR(NAME=RECD2,STCLASS=" ");
     1314      571        /**/
     1315      572    1   RES = 0;

    572  1 000002   200005 470500                    LDP0    @RES,,AUTO
         1 000003   000000 450100                    STZ     0,,PR0

     1316      573
     1317      574    1   IF RECD1.STATDATA.NODE < RECD2.STATDATA.NODE THEN RES = 1;

    574  1 000004   200004 471500                    LDP1    @RECD2,,AUTO
         1 000005   100000 236100                    LDQ     0,,PR1
         1 000006   000024 772000                    QRL     20
         1 000007   200006 756100                    STQ     @RES+1,,AUTO
         1 000010   200003 473500                    LDP3    @RECD1,,AUTO
         1 000011   300000 236100                    LDQ     0,,PR3
         1 000012   000024 772000                    QRL     20
         1 000013   200006 116100                    CMPQ    @RES+1,,AUTO
         1 000014   000020 605000 1                  TPL     s:575

    574  1 000015   000001 235007                    LDA     1,DL
PL6.E3A0      #005=FEPERR$COMPARE File=THC$COMMANDS.:E05TSI                      WED 07/30/97 06:10 Page:249
         1 000016   000000 755100                    STA     0,,PR0
         1 000017   000126 710000 1                  TRA     s:594

     1318      575    1   ELSE IF RECD1.STATDATA.NODE > RECD2.STATDATA.NODE THEN RES = 2;

    575  1 000020   200006 756100                    STQ     @RES+1,,AUTO
         1 000021   100000 236100                    LDQ     0,,PR1
         1 000022   000024 772000                    QRL     20
         1 000023   200006 116100                    CMPQ    @RES+1,,AUTO
         1 000024   000030 605000 1                  TPL     s:577

    575  1 000025   000002 235007                    LDA     2,DL
         1 000026   000000 755100                    STA     0,,PR0
         1 000027   000126 710000 1                  TRA     s:594

     1319      576    1   ELSE
     1320      577    1      IF RECD1.STATDATA.TERMID.TERM.CHANNEL < RECD2.STATDATA.TERMID.TERM.CHANNEL

    577  1 000030   000100 106500                    CMPC    fill='000'O
         1 000031   300005 400002                    ADSC9   5,,PR3                   cn=2,n=2
         1 000032   100005 400002                    ADSC9   5,,PR1                   cn=2,n=2
         1 000033   000037 603000 1                  TRC     s:579

     1321      578    1      THEN RES = 1;

    578  1 000034   000001 235007                    LDA     1,DL
         1 000035   000000 755100                    STA     0,,PR0
         1 000036   000126 710000 1                  TRA     s:594

     1322      579    1      ELSE IF RECD1.STATDATA.TERMID.TERM.CHANNEL > RECD2.STATDATA.TERMID.TERM.CHANNEL

    579  1 000037   000044 602000 1                  TNC     s:582
         1 000040   000044 600000 1                  TZE     s:582

     1323      580    1      THEN RES = 2;

    580  1 000041   000002 235007                    LDA     2,DL
PL6.E3A0      #005=FEPERR$COMPARE File=THC$COMMANDS.:E05TSI                      WED 07/30/97 06:10 Page:250
         1 000042   000000 755100                    STA     0,,PR0
         1 000043   000126 710000 1                  TRA     s:594

     1324      581    1      ELSE
     1325      582    1            IF RECD1.STATDATA.ERRCODE.FCG < RECD2.STATDATA.ERRCODE.FCG THEN RES = 1;

    582  1 000044   000100 106500                    CMPC    fill='000'O
         1 000045   300001 020002                    ADSC6   1,,PR3                   cn=0,n=2
         1 000046   100001 020002                    ADSC6   1,,PR1                   cn=0,n=2
         1 000047   000053 603000 1                  TRC     s:583

    582  1 000050   000001 235007                    LDA     1,DL
         1 000051   000000 755100                    STA     0,,PR0
         1 000052   000126 710000 1                  TRA     s:594

     1326      583    1            ELSE IF RECD1.STATDATA.ERRCODE.FCG > RECD2.STATDATA.ERRCODE.FCG THEN RES =
               583                     2;

    583  1 000053   000060 602000 1                  TNC     s:585
         1 000054   000060 600000 1                  TZE     s:585

    583  1 000055   000002 235007                    LDA     2,DL
         1 000056   000000 755100                    STA     0,,PR0
         1 000057   000126 710000 1                  TRA     s:594

     1327      584    1            ELSE
     1328      585    1               IF RECD1.STATDATA.ERRCODE.ERR# < RECD2.STATDATA.ERRCODE.ERR#

    585  1 000060   100001 236100                    LDQ     1,,PR1
         1 000061   000003 772000                    QRL     3
         1 000062   037777 376007                    ANQ     16383,DL
         1 000063   200006 756100                    STQ     @RES+1,,AUTO
         1 000064   300001 236100                    LDQ     1,,PR3
         1 000065   000003 772000                    QRL     3
         1 000066   037777 376007                    ANQ     16383,DL
         1 000067   200006 116100                    CMPQ    @RES+1,,AUTO
         1 000070   000074 605000 1                  TPL     s:587
PL6.E3A0      #005=FEPERR$COMPARE File=THC$COMMANDS.:E05TSI                      WED 07/30/97 06:10 Page:251

     1329      586    1               THEN RES = 1;

    586  1 000071   000001 235007                    LDA     1,DL
         1 000072   000000 755100                    STA     0,,PR0
         1 000073   000126 710000 1                  TRA     s:594

     1330      587    1               ELSE IF RECD1.STATDATA.ERRCODE.ERR# > RECD2.STATDATA.ERRCODE.ERR#

    587  1 000074   200006 756100                    STQ     @RES+1,,AUTO
         1 000075   100001 236100                    LDQ     1,,PR1
         1 000076   000003 772000                    QRL     3
         1 000077   037777 376007                    ANQ     16383,DL
         1 000100   200006 116100                    CMPQ    @RES+1,,AUTO
         1 000101   000105 605000 1                  TPL     s:590

     1331      588    1               THEN RES = 2;

    588  1 000102   000002 235007                    LDA     2,DL
         1 000103   000000 755100                    STA     0,,PR0
         1 000104   000126 710000 1                  TRA     s:594

     1332      589    1               ELSE
     1333      590    1                  IF RECD1.STATDATA.ERRCODE.SEV < RECD2.STATDATA.ERRCODE.SEV

    590  1 000105   100001 236100                    LDQ     1,,PR1
         1 000106   000007 376007                    ANQ     7,DL
         1 000107   200006 756100                    STQ     @RES+1,,AUTO
         1 000110   300001 236100                    LDQ     1,,PR3
         1 000111   000007 376007                    ANQ     7,DL
         1 000112   200006 116100                    CMPQ    @RES+1,,AUTO
         1 000113   000117 605000 1                  TPL     s:592

     1334      591    1                  THEN RES = 1;

    591  1 000114   000001 235007                    LDA     1,DL
         1 000115   000000 755100                    STA     0,,PR0
PL6.E3A0      #005=FEPERR$COMPARE File=THC$COMMANDS.:E05TSI                      WED 07/30/97 06:10 Page:252
         1 000116   000126 710000 1                  TRA     s:594

     1335      592    1                  ELSE IF RECD1.STATDATA.ERRCODE.SEV > RECD2.STATDATA.ERRCODE.SEV

    592  1 000117   200006 756100                    STQ     @RES+1,,AUTO
         1 000120   100001 236100                    LDQ     1,,PR1
         1 000121   000007 376007                    ANQ     7,DL
         1 000122   200006 116100                    CMPQ    @RES+1,,AUTO
         1 000123   000126 605000 1                  TPL     s:594

     1336      593    1                  THEN RES = 2;

    593  1 000124   000002 235007                    LDA     2,DL
         1 000125   000000 755100                    STA     0,,PR0

     1337      594    1   END FEPERR$COMPARE;

    594  1 000126   000000 702200 xent               TSX2  ! X66_ARET
     1338      595        %EOD;

PL6.E3A0      #005=FEPERR$COMPARE File=THC$COMMANDS.:E05TSI                      WED 07/30/97 06:10 Page:253
--  Include file information  --

   CP_6.:E05TOU  cannot be made into a system file and is referenced.
   EL$TABLES.:E05TOU  is referenced.
   B$JIT_C.:E05TOU  was found in the system file and is never referenced.
   CP_6_C.:E05TOU  was found in the system file and is referenced.
      No diagnostics issued in procedure FEPERR$COMPARE.
PL6.E3A0      #005=FEPERR$COMPARE File=THC$COMMANDS.:E05TSI                      WED 07/30/97 06:10 Page:254

 **** Variables and constants ****

  ****  Auto variables  ****

  ****  Scalars and arrays  ****
OctLoc.c.b A Datatyp(siz) R M Lvl/name                 OctLoc.c.b A Datatyp(siz) R M Lvl/name

     3-0-0/w PTR         r     1 @RECD1                     4-0-0/w PTR         r     1 @RECD2
     5-0-0/w PTR         r     1 @RES                      *0-0-0/w STRC(1224)  r     1 RECD1
    *0-0-0/w STRC(1224)  r     1 RECD2                     *0-0-0/w SBIN        r     1 RES


   Procedure FEPERR$COMPARE requires 87 words for executable code.
   Procedure FEPERR$COMPARE requires 8 words of local(AUTO) storage.
PL6.E3A0      #005=FEPERR$COMPARE File=THC$COMMANDS.:E05TSI                      WED 07/30/97 06:10 Page:255
          *** CROSS REFERENCE LISTING ***
**     DENOTES     IDENTIFIER DEFINITION
<<                 IDENTIFIER'S VALUE SET
>>                 IDENTIFIER'S VALUE USED
<>                 IDENTIFIER SET AND/OR USED
--                 IDENTIFIER REFERENCED
PL6.E3A0      #005=FEPERR$COMPARE File=THC$COMMANDS.:E05TSI                      WED 07/30/97 06:10 Page:256
          MINI XREF LISTING

RECD1
       414**DCL         7--PROC
RECD1.STATDATA.ERRCODE.ERR#
       457**DCL       585>>IF        587>>IF
RECD1.STATDATA.ERRCODE.FCG
       443**DCL       582>>IF        583>>IF
RECD1.STATDATA.ERRCODE.SEV
       457**DCL       590>>IF        592>>IF
RECD1.STATDATA.NODE
       414**DCL       574>>IF        575>>IF
RECD1.STATDATA.TERMID.TERM
       479**DCL       488--REDEF
RECD1.STATDATA.TERMID.TERM.CHANNEL
       481**DCL       577>>IF        579>>IF
RECD2
       493**DCL         7--PROC
RECD2.STATDATA.ERRCODE.ERR#
       536**DCL       585>>IF        587>>IF
RECD2.STATDATA.ERRCODE.FCG
       522**DCL       582>>IF        583>>IF
RECD2.STATDATA.ERRCODE.SEV
       536**DCL       590>>IF        592>>IF
RECD2.STATDATA.NODE
       493**DCL       574>>IF        575>>IF
RECD2.STATDATA.TERMID.TERM
       558**DCL       567--REDEF
RECD2.STATDATA.TERMID.TERM.CHANNEL
       560**DCL       577>>IF        579>>IF
RES
       412**DCL         7--PROC      572<<ASSIGN    574<<ASSIGN    575<<ASSIGN    578<<ASSIGN    580<<ASSIGN
       582<<ASSIGN    583<<ASSIGN    586<<ASSIGN    588<<ASSIGN    591<<ASSIGN    593<<ASSIGN

PL6.E3A0      #006=THC$TYPENAME File=THC$COMMANDS.:E05TSI                        WED 07/30/97 06:10 Page:257
     1339        1        /*T***********************************************************/
     1340        2        /*T*                                                         */
     1341        3        /*T* Copyright (c) Bull HN Information Systems Inc., 1997    */
     1342        4        /*T*                                                         */
     1343        5        /*T***********************************************************/
     1344        6        THC$TYPENAME: PROC(TYPE,TEXT,COUNT);
     1345        7        /**/
     1346        8        %INCLUDE TH_SUBS_C;
     1347      390        %INCLUDE CP_6;
     1348      471        %INCLUDE EL_SUBS_C;
     1349      555        /**/
     1350      556    1   DCL TYPE CHAR(1);
     1351      557    1   DCL TEXT CHAR(63);
     1352      558    1   DCL COUNT UBIN WORD;
     1353      559        %EQU CMPSTRT =       'COMPONENT STARTUP  (CMPSTRT)';
     1354      560        %EQU MOUNT =         'VOLUME MOUNT  (MOUNT)';
     1355      561        %EQU DSMT =          'VOLUME DISMOUNT  (DSMT)';
     1356      562        %EQU TIMESTAMP =     'TIMESTAMP  (TIMESTAMP)';
     1357      563        %EQU OPER =          'OPERATER INPUT  (OPER)';
     1358      564        %EQU REX =           'RESOURCE EXHAUSTED   (REX)';
     1359      565        %EQU FWLOAD =        'FIRMWARE LOAD  (FWLOAD)';
     1360      566        %EQU DIAG =          'DIAGNOSTIC OPEN  (DIAG)';
     1361      567        %EQU SYSCON =        'SYSCON ACTIVITY  (SYSCON)';
     1362      568        %EQU SYSID =         'SITEINFO  (SYSID)';
     1363      569        %EQU MPCSTAT =       'MPC STATISTICS  (MPCSTAT)';
     1364      570        %EQU ANLZ =          'ANLZ TEXT  (ANLZ)';
     1365      571        %EQU ZAP =           'OPERATOR INITIATED ZAP  (ZAP)';
     1366      572        %EQU DEVSTAT =       'MPC DEVICE STATISTICS  (DEVSTAT)';
     1367      573        %EQU CHANTRAN =      'CHANNEL TRANSITION (CHANTRAN)';
     1368      574        %EQU MSOSSAYS =      'MSOS REQUEST TO CP6 (MSOSSAYS)';
     1369      575        %EQU CP6SAYS =       'CP6 RESPONSE TO MSOS (CP6SAYS)';
     1370      576        %EQU IOERR =         'I/O ERROR  (IOERR)';
     1371      577        %EQU EDAC =          'MOS MEMORY ERRORS  (EDAC)';
     1372      578        %EQU FEPERR =        'FEP ERRORS  (FEPERR)';
     1373      579        %EQU PROCERR =       'PROCESSOR ERRORS  (PROCERR)';
     1374      580        %EQU SPURINT =       'SPURIOUS INTERRUPT  (SPURINT)';
     1375      581        %EQU FEPFLT =        'FEP FAULT  (FEPFLT)';
PL6.E3A0      #006=THC$TYPENAME File=THC$COMMANDS.:E05TSI                        WED 07/30/97 06:10 Page:258
     1376      582        %EQU SCREECH =       'SYSTEM RECOVERY  (SCREECH)';
     1377      583        %EQU FI =            'FILE INCONSISTENCY  (FI)';
     1378      584        %EQU OSFI =          'SYMB FILE INCONSISTENCY  (OSFI)';
     1379      585        %EQU FEPEVENT =      'FEP EVENT  (FEPEVENT)';
     1380      586        %EQU GABRT =         'GHOST ABORT  (GABRT)';
     1381      587        %EQU SUA =           'SINGLE USER ABORT  (SUA)';
     1382      588        %EQU SNAP =          'SNAP  (SNAP)';
     1383      589        %EQU CGERR =         'COMGROUP ERROR  (CGERR)';
     1384      590        %EQU FEPDUMP =      'FEP DUMP   (FEPDUMP)';
     1385      591        %EQU LOST =          'LOST ERRORS  (LOST)';
     1386      592        %EQU CHNGAARD =      'BOOTINFO CHANGE (CHNGAARD)';
     1387      593        %EQU MIRROR =        'MIRRORED DISC STATE CHANGE (MIRROR)';
     1388      594    1   DCL TYPEVEC(0:%NTYPES) UBIN BYTE UNAL CONSTANT INIT(0,%EL_CMPSTRT,%EL_MOUNT,%EL_DSMT
               594            ,%EL_TIMESTAMP,%EL_OPER,
     1389      595    1                          %EL_REX,%EL_FWLOAD,%EL_DIAG,%EL_SYSCON,%EL_SYSID,%EL_MPCSTAT,
               595                                   %EL_ANLZ,%EL_ZAP,
     1390      596    1                          %EL_DEVSTAT,%EL_CHANTRAN,%EL_MSOSSAYS,%EL_CP6SAYS,%EL_IOERR,%
               596                                   EL_EDAC,%EL_FEPERR,
     1391      597    1                          %EL_PROCERR,%EL_SPURINT,%EL_FEPFLT,%EL_SCREECH,%EL_FI,%
               597                                   EL_OSFI,%EL_FEPCRASH,
     1392      598    1                          %EL_GABRT,%EL_SUA,%EL_SNAP,%EL_CGERR,%EL_FEPDUMP,%EL_LOST,%
               598                                   EL_CHNGAARD,
     1393      599    1                          %EL_DEVSTAT, %EL_DEVSTAT, %EL_MIRROR);
     1394      600    1   DCL CHARVEC REDEF TYPEVEC CHAR(%(NTYPES+1));
     1395      601    1   DCL 1 TBL(0:%NTYPES) CONSTANT ALIGNED,
     1396      602    1         2 TEXT CHAR(40) INIT(' ',%CMPSTRT,
     1397      603    1                                %MOUNT,
     1398      604    1                                %DSMT,
     1399      605    1                                %TIMESTAMP,
     1400      606    1                                %OPER,
     1401      607    1                                %REX,
     1402      608    1                                %FWLOAD,
     1403      609    1                                %DIAG,
     1404      610    1                                %SYSCON,
     1405      611    1                                %SYSID,
     1406      612    1                                %MPCSTAT,
     1407      613    1                                %ANLZ,
PL6.E3A0      #006=THC$TYPENAME File=THC$COMMANDS.:E05TSI                        WED 07/30/97 06:10 Page:259
     1408      614    1                                %ZAP,
     1409      615    1                                %DEVSTAT,
     1410      616    1                                %CHANTRAN,
     1411      617    1                                %MSOSSAYS,
     1412      618    1                                %CP6SAYS,
     1413      619    1                                %IOERR,
     1414      620    1                                %EDAC,
     1415      621    1                                %FEPERR,
     1416      622    1                                %PROCERR,
     1417      623    1                                %SPURINT,
     1418      624    1                                %FEPFLT,
     1419      625    1                                %SCREECH,
     1420      626    1                                %FI,
     1421      627    1                                %OSFI,
     1422      628    1                                %FEPEVENT,
     1423      629    1                                %GABRT,
     1424      630    1                                %SUA,
     1425      631    1                                %SNAP,
     1426      632    1                                %CGERR,
     1427      633    1                                %FEPDUMP,
     1428      634    1                                %LOST,
     1429      635    1                                %CHNGAARD,
     1430      636    1                                %DEVSTAT,
     1431      637    1                                %DEVSTAT,
     1432      638    1                                %MIRROR),
     1433      639    1         2 COUNT UBIN INIT(0,SIZEC(%CMPSTRT),
     1434      640    1                                SIZEC(%MOUNT),
     1435      641    1                                SIZEC(%DSMT),
     1436      642    1                                SIZEC(%TIMESTAMP),
     1437      643    1                                SIZEC(%OPER),
     1438      644    1                                SIZEC(%REX),
     1439      645    1                                SIZEC(%FWLOAD),
     1440      646    1                                SIZEC(%DIAG),
     1441      647    1                                SIZEC(%SYSCON),
     1442      648    1                                SIZEC(%SYSID),
     1443      649    1                                SIZEC(%MPCSTAT),
     1444      650    1                                SIZEC(%ANLZ),
PL6.E3A0      #006=THC$TYPENAME File=THC$COMMANDS.:E05TSI                        WED 07/30/97 06:10 Page:260
     1445      651    1                                SIZEC(%ZAP),
     1446      652    1                                SIZEC(%DEVSTAT),
     1447      653    1                                SIZEC(%CHANTRAN),
     1448      654    1                                SIZEC(%MSOSSAYS),
     1449      655    1                                SIZEC(%CP6SAYS),
     1450      656    1                                SIZEC(%IOERR),
     1451      657    1                                SIZEC(%EDAC),
     1452      658    1                                SIZEC(%FEPERR),
     1453      659    1                                SIZEC(%PROCERR),
     1454      660    1                                SIZEC(%SPURINT),
     1455      661    1                                SIZEC(%FEPFLT),
     1456      662    1                                SIZEC(%SCREECH),
     1457      663    1                                SIZEC(%FI),
     1458      664    1                                SIZEC(%OSFI),
     1459      665    1                                SIZEC(%FEPEVENT),
     1460      666    1                                SIZEC(%GABRT),
     1461      667    1                                SIZEC(%SUA),
     1462      668    1                                SIZEC(%SNAP),
     1463      669    1                                SIZEC(%CGERR),
     1464      670    1                                SIZEC(%FEPDUMP),
     1465      671    1                                SIZEC(%LOST),
     1466      672    1                                SIZEC(%CHNGAARD),
     1467      673    1                                SIZEC(%DEVSTAT),
     1468      674    1                                SIZEC(%DEVSTAT),
     1469      675    1                                SIZEC(%MIRROR));
     1470      676    1   DCL INDX SBIN;
     1471      677        /**/
     1472      678    1         CALL INDEX(INDX,TYPE,CHARVEC);
     1473      679    2        IF INDX <= %TH_LASTITYPE THEN DO;
     1474      680    2           TEXT = TBL.TEXT(INDX);
     1475      681    2           COUNT = TBL.COUNT(INDX);
     1476      682    2           RETURN;
     1477      683    2           END;  /* IF */
     1478      684    1        CALL BINCHAR(SUBSTR(TEXT,0,3),ASCBIN(TYPE));
     1479      685    1        COUNT = 3;
     1480      686    1        RETURN;
     1481      687    1   END THC$TYPENAME;
PL6.E3A0      #006=THC$TYPENAME File=THC$COMMANDS.:E05TSI                        WED 07/30/97 06:10 Page:261
     1482      688        %EOD;

PL6.E3A0      #006=THC$TYPENAME File=THC$COMMANDS.:E05TSI                        WED 07/30/97 06:10 Page:262
--  Include file information  --

   EL_SUBS_C.:E05TOU  is referenced.
   CP_6.:E05TOU  cannot be made into a system file and is referenced.
   B_STRINGS_C.:E05TOU  is referenced.
   TH_SUBS_C.:E05TOU  is referenced.
   B$JIT_C.:E05TOU  was found in the system file and is never referenced.
   CP_6_C.:E05TOU  was found in the system file and is referenced.
      No diagnostics issued in procedure THC$TYPENAME.

   Procedure THC$TYPENAME requires 36 words for executable code.
   Procedure THC$TYPENAME requires 12 words of local(AUTO) storage.

PL6.E3A0      #006=THC$TYPENAME File=THC$COMMANDS.:E05TSI                        WED 07/30/97 06:10 Page:263

 Object Unit name= THC$TYPENAME                               File name= THC$COMMANDS.:E05TOU
 UTS= JUL 30 '97 06:10:50.60 WED                              Compiler= PL-6/E31         Sev=      00
 SharedLib= :SHARED_SYSTEM                                    Alt SharedLib=


    ****  Control sections  ****

 Sect   Type Bound  Init  Size OctSiz  Section name(segment info)
    0   DCB   even  none     0      0  M$UC
    1  RoData even  UTS    428    654  THC$TYPENAME
    2   Proc  even  none    36     44  THC$TYPENAME

    ****  Entry defs  ****

                              Check   Calling
                             calling  sequence
  Sect OctLoc Primary Altret sequence   type   Parms  Name
     2      0   yes            yes      Std        3  THC$TYPENAME

  ****  Entry refs  ****

         Check        Calling
        calling       sequence
Altret sequence SRef   type   Args  Name
                       nStd      0 X66_AUTO_3
                       nStd      0 X66_ARET

  ****  Data refs  ****

  Flags:  r = read only, s = secondary
Flgs Name                             Flgs Name                             Flgs Name
     M$UC
PL6.E3A0      #006=THC$TYPENAME File=THC$COMMANDS.:E05TSI                        WED 07/30/97 06:10 Page:264


     1339        1        /*T***********************************************************/
     1340        2        /*T*                                                         */
     1341        3        /*T* Copyright (c) Bull HN Information Systems Inc., 1997    */
     1342        4        /*T*                                                         */
     1343        5        /*T***********************************************************/
     1344        6        THC$TYPENAME: PROC(TYPE,TEXT,COUNT);

      6  2 000000   000000 700200 xent  THC$TYPENAME TSX0  ! X66_AUTO_3
         2 000001   000014 000003                    ZERO    12,3

     1345        7        /**/
     1346        8        %INCLUDE TH_SUBS_C;
     1347      390        %INCLUDE CP_6;
     1348      471        %INCLUDE EL_SUBS_C;
     1349      555        /**/
     1350      556    1   DCL TYPE CHAR(1);
     1351      557    1   DCL TEXT CHAR(63);
     1352      558    1   DCL COUNT UBIN WORD;
     1353      559        %EQU CMPSTRT =       'COMPONENT STARTUP  (CMPSTRT)';
     1354      560        %EQU MOUNT =         'VOLUME MOUNT  (MOUNT)';
     1355      561        %EQU DSMT =          'VOLUME DISMOUNT  (DSMT)';
     1356      562        %EQU TIMESTAMP =     'TIMESTAMP  (TIMESTAMP)';
     1357      563        %EQU OPER =          'OPERATER INPUT  (OPER)';
     1358      564        %EQU REX =           'RESOURCE EXHAUSTED   (REX)';
     1359      565        %EQU FWLOAD =        'FIRMWARE LOAD  (FWLOAD)';
     1360      566        %EQU DIAG =          'DIAGNOSTIC OPEN  (DIAG)';
     1361      567        %EQU SYSCON =        'SYSCON ACTIVITY  (SYSCON)';
     1362      568        %EQU SYSID =         'SITEINFO  (SYSID)';
     1363      569        %EQU MPCSTAT =       'MPC STATISTICS  (MPCSTAT)';
     1364      570        %EQU ANLZ =          'ANLZ TEXT  (ANLZ)';
     1365      571        %EQU ZAP =           'OPERATOR INITIATED ZAP  (ZAP)';
     1366      572        %EQU DEVSTAT =       'MPC DEVICE STATISTICS  (DEVSTAT)';
     1367      573        %EQU CHANTRAN =      'CHANNEL TRANSITION (CHANTRAN)';
     1368      574        %EQU MSOSSAYS =      'MSOS REQUEST TO CP6 (MSOSSAYS)';
     1369      575        %EQU CP6SAYS =       'CP6 RESPONSE TO MSOS (CP6SAYS)';
     1370      576        %EQU IOERR =         'I/O ERROR  (IOERR)';
PL6.E3A0      #006=THC$TYPENAME File=THC$COMMANDS.:E05TSI                        WED 07/30/97 06:10 Page:265
     1371      577        %EQU EDAC =          'MOS MEMORY ERRORS  (EDAC)';
     1372      578        %EQU FEPERR =        'FEP ERRORS  (FEPERR)';
     1373      579        %EQU PROCERR =       'PROCESSOR ERRORS  (PROCERR)';
     1374      580        %EQU SPURINT =       'SPURIOUS INTERRUPT  (SPURINT)';
     1375      581        %EQU FEPFLT =        'FEP FAULT  (FEPFLT)';
     1376      582        %EQU SCREECH =       'SYSTEM RECOVERY  (SCREECH)';
     1377      583        %EQU FI =            'FILE INCONSISTENCY  (FI)';
     1378      584        %EQU OSFI =          'SYMB FILE INCONSISTENCY  (OSFI)';
     1379      585        %EQU FEPEVENT =      'FEP EVENT  (FEPEVENT)';
     1380      586        %EQU GABRT =         'GHOST ABORT  (GABRT)';
     1381      587        %EQU SUA =           'SINGLE USER ABORT  (SUA)';
     1382      588        %EQU SNAP =          'SNAP  (SNAP)';
     1383      589        %EQU CGERR =         'COMGROUP ERROR  (CGERR)';
     1384      590        %EQU FEPDUMP =      'FEP DUMP   (FEPDUMP)';
     1385      591        %EQU LOST =          'LOST ERRORS  (LOST)';
     1386      592        %EQU CHNGAARD =      'BOOTINFO CHANGE (CHNGAARD)';
     1387      593        %EQU MIRROR =        'MIRRORED DISC STATE CHANGE (MIRROR)';
     1388      594    1  DCL TYPEVEC(0:%NTYPES) UBIN BYTE UNAL CONSTANT INIT(0,%EL_CMPSTRT,%EL_MOUNT,%EL_DSMT
               594            ,%EL_TIMESTAMP,%EL_OPER,
     1389      595    1                         %EL_REX,%EL_FWLOAD,%EL_DIAG,%EL_SYSCON,%EL_SYSID,%EL_MPCSTAT,
               595                                   %EL_ANLZ,%EL_ZAP,
     1390      596    1                         %EL_DEVSTAT,%EL_CHANTRAN,%EL_MSOSSAYS,%EL_CP6SAYS,%EL_IOERR,%
               596                                   EL_EDAC,%EL_FEPERR,
     1391      597    1                          %EL_PROCERR,%EL_SPURINT,%EL_FEPFLT,%EL_SCREECH,%EL_FI,%
               597                                   EL_OSFI,%EL_FEPCRASH,
     1392      598    1                          %EL_GABRT,%EL_SUA,%EL_SNAP,%EL_CGERR,%EL_FEPDUMP,%EL_LOST,%
               598                                   EL_CHNGAARD,
     1393      599    1                          %EL_DEVSTAT, %EL_DEVSTAT, %EL_MIRROR);
     1394      600    1   DCL CHARVEC REDEF TYPEVEC CHAR(%(NTYPES+1));
     1395      601    1   DCL 1 TBL(0:%NTYPES) CONSTANT ALIGNED,
     1396      602    1         2 TEXT CHAR(40) INIT(' ',%CMPSTRT,
     1397      603    1                                %MOUNT,
     1398      604    1                                %DSMT,
     1399      605    1                                %TIMESTAMP,
     1400      606    1                                %OPER,
     1401      607    1                                %REX,
     1402      608    1                                %FWLOAD,
PL6.E3A0      #006=THC$TYPENAME File=THC$COMMANDS.:E05TSI                        WED 07/30/97 06:10 Page:266
     1403      609    1                                %DIAG,
     1404      610    1                                %SYSCON,
     1405      611    1                                %SYSID,
     1406      612    1                                %MPCSTAT,
     1407      613    1                                %ANLZ,
     1408      614    1                                %ZAP,
     1409      615    1                                %DEVSTAT,
     1410      616    1                                %CHANTRAN,
     1411      617    1                                %MSOSSAYS,
     1412      618    1                                %CP6SAYS,
     1413      619    1                                %IOERR,
     1414      620    1                                %EDAC,
     1415      621    1                                %FEPERR,
     1416      622    1                                %PROCERR,
     1417      623    1                                %SPURINT,
     1418      624    1                                %FEPFLT,
     1419      625    1                                %SCREECH,
     1420      626    1                                %FI,
     1421      627    1                                %OSFI,
     1422      628    1                                %FEPEVENT,
     1423      629    1                                %GABRT,
     1424      630    1                                %SUA,
     1425      631    1                                %SNAP,
     1426      632    1                                %CGERR,
     1427      633    1                                %FEPDUMP,
     1428      634    1                                %LOST,
     1429      635    1                                %CHNGAARD,
     1430      636    1                                %DEVSTAT,
     1431      637    1                                %DEVSTAT,
     1432      638    1                                %MIRROR),
     1433      639    1         2 COUNT UBIN INIT(0,SIZEC(%CMPSTRT),
     1434      640    1                                SIZEC(%MOUNT),
     1435      641    1                                SIZEC(%DSMT),
     1436      642    1                                SIZEC(%TIMESTAMP),
     1437      643    1                                SIZEC(%OPER),
     1438      644    1                                SIZEC(%REX),
     1439      645    1                                SIZEC(%FWLOAD),
PL6.E3A0      #006=THC$TYPENAME File=THC$COMMANDS.:E05TSI                        WED 07/30/97 06:10 Page:267
     1440      646    1                                SIZEC(%DIAG),
     1441      647    1                                SIZEC(%SYSCON),
     1442      648    1                                SIZEC(%SYSID),
     1443      649    1                                SIZEC(%MPCSTAT),
     1444      650    1                                SIZEC(%ANLZ),
     1445      651    1                                SIZEC(%ZAP),
     1446      652    1                                SIZEC(%DEVSTAT),
     1447      653    1                                SIZEC(%CHANTRAN),
     1448      654    1                                SIZEC(%MSOSSAYS),
     1449      655    1                                SIZEC(%CP6SAYS),
     1450      656    1                                SIZEC(%IOERR),
     1451      657    1                                SIZEC(%EDAC),
     1452      658    1                                SIZEC(%FEPERR),
     1453      659    1                                SIZEC(%PROCERR),
     1454      660    1                                SIZEC(%SPURINT),
     1455      661    1                                SIZEC(%FEPFLT),
     1456      662    1                                SIZEC(%SCREECH),
     1457      663    1                                SIZEC(%FI),
     1458      664    1                                SIZEC(%OSFI),
     1459      665    1                                SIZEC(%FEPEVENT),
     1460      666    1                                SIZEC(%GABRT),
     1461      667    1                                SIZEC(%SUA),
     1462      668    1                                SIZEC(%SNAP),
     1463      669    1                                SIZEC(%CGERR),
     1464      670    1                                SIZEC(%FEPDUMP),
     1465      671    1                                SIZEC(%LOST),
     1466      672    1                                SIZEC(%CHNGAARD),
     1467      673    1                                SIZEC(%DEVSTAT),
     1468      674    1                                SIZEC(%DEVSTAT),
     1469      675    1                                SIZEC(%MIRROR));
     1470      676    1   DCL INDX SBIN;
     1471      677        /**/
     1472      678    1         CALL INDEX(INDX,TYPE,CHARVEC);

    678  2 000002   200003 470500                    LDP0    @TYPE,,AUTO
         2 000003   000100 124400                    SCM     mask='000'O
         2 000004   000000 000046 1                  ADSC9   TYPEVEC                  cn=0,n=38
PL6.E3A0      #006=THC$TYPENAME File=THC$COMMANDS.:E05TSI                        WED 07/30/97 06:10 Page:268
         2 000005   000000 000001                    ADSC9   0,,PR0                   cn=0,n=1
         2 000006   200006 000100                    ARG     INDX,,AUTO

     1473      679    2        IF INDX <= %TH_LASTITYPE THEN DO;

    679  2 000007   200006 235100                    LDA     INDX,,AUTO
         2 000010   000045 115007                    CMPA    37,DL
         2 000011   000026 605400 2                  TPNZ    s:684

     1474      680    2           TEXT = TBL.TEXT(INDX);

    680  2 000012   200006 236100                    LDQ     INDX,,AUTO
         2 000013   000054 402007                    MPY     44,DL
         2 000014   200004 471500                    LDP1    @TEXT,,AUTO
         2 000015   040100 100406                    MLR     fill='040'O
         2 000016   000012 000050 1                  ADSC9   TBL,Q                    cn=0,n=40
         2 000017   100000 000077                    ADSC9   0,,PR1                   cn=0,n=63

     1475      681    2           COUNT = TBL.COUNT(INDX);

    681  2 000020   200006 236100                    LDQ     INDX,,AUTO
         2 000021   000013 402007                    MPY     11,DL
         2 000022   200005 473500                    LDP3    @COUNT,,AUTO
         2 000023   000024 235006 1                  LDA     TBL+10,QL
         2 000024   300000 755100                    STA     0,,PR3

     1476      682    2           RETURN;

    682  2 000025   000000 702200 xent               TSX2  ! X66_ARET

     1477      683    2           END;  /* IF */
     1478      684    1        CALL BINCHAR(SUBSTR(TEXT,0,3),ASCBIN(TYPE));

    684  2 000026   000100 101500                    MRL     fill='000'O
         2 000027   000000 000001                    ADSC9   0,,PR0                   cn=0,n=1
         2 000030   200010 000004                    ADSC9   INDX+2,,AUTO             cn=0,n=4
         2 000031   200010 236100                    LDQ     INDX+2,,AUTO
PL6.E3A0      #006=THC$TYPENAME File=THC$COMMANDS.:E05TSI                        WED 07/30/97 06:10 Page:269
         2 000032   000000 235003                    LDA     0,DU
         2 000033   200012 757100                    STAQ    INDX+4,,AUTO
         2 000034   200004 471500                    LDP1    @TEXT,,AUTO
         2 000035   000100 301500                    BTD
         2 000036   200012 000010                    NDSC9   INDX+4,,AUTO             cn=0,s=lsgnf,sf=0,n=8
         2 000037   100000 030003                    NDSC9   0,,PR1                   cn=0,s=nosgn,sf=0,n=3

     1479      685    1        COUNT = 3;

    685  2 000040   000003 236007                    LDQ     3,DL
         2 000041   200005 473500                    LDP3    @COUNT,,AUTO
         2 000042   300000 756100                    STQ     0,,PR3

     1480      686    1        RETURN;

    686  2 000043   000000 702200 xent               TSX2  ! X66_ARET
     1481      687    1   END THC$TYPENAME;
     1482      688        %EOD;

PL6.E3A0      #006=THC$TYPENAME File=THC$COMMANDS.:E05TSI                        WED 07/30/97 06:10 Page:270
--  Include file information  --

   EL_SUBS_C.:E05TOU  is referenced.
   CP_6.:E05TOU  cannot be made into a system file and is referenced.
   B_STRINGS_C.:E05TOU  is referenced.
   TH_SUBS_C.:E05TOU  is referenced.
   B$JIT_C.:E05TOU  was found in the system file and is never referenced.
   CP_6_C.:E05TOU  was found in the system file and is referenced.
      No diagnostics issued in procedure THC$TYPENAME.
PL6.E3A0      #006=THC$TYPENAME File=THC$COMMANDS.:E05TSI                        WED 07/30/97 06:10 Page:271

 **** Variables and constants ****

  ****  Section 001 RoData THC$TYPENAME

  ****  Scalars and arrays  ****
OctLoc.c.b A Datatyp(siz) R M Lvl/name                 OctLoc.c.b A Datatyp(siz) R M Lvl/name

     0-0-0/c CHAR(38)    r     1 CHARVEC                   12-0-0/w STRC(396)   r     1 TBL(0:37)
     0-0-0/b UBIN(9)     r     1 TYPEVEC(0:37)

  ****  Auto variables  ****

  ****  Scalars and arrays  ****
OctLoc.c.b A Datatyp(siz) R M Lvl/name                 OctLoc.c.b A Datatyp(siz) R M Lvl/name

     5-0-0/w PTR         r     1 @COUNT                     4-0-0/w PTR         r     1 @TEXT
     3-0-0/w PTR         r     1 @TYPE                     *0-0-0/w UBIN        r     1 COUNT
     6-0-0/w SBIN        r     1 INDX                      *0-0-0/c CHAR(63)    r     1 TEXT
    *0-0-0/c CHAR        r     1 TYPE


   Procedure THC$TYPENAME requires 36 words for executable code.
   Procedure THC$TYPENAME requires 12 words of local(AUTO) storage.
PL6.E3A0      #006=THC$TYPENAME File=THC$COMMANDS.:E05TSI                        WED 07/30/97 06:10 Page:272
          *** CROSS REFERENCE LISTING ***
**     DENOTES     IDENTIFIER DEFINITION
<<                 IDENTIFIER'S VALUE SET
>>                 IDENTIFIER'S VALUE USED
<>                 IDENTIFIER SET AND/OR USED
--                 IDENTIFIER REFERENCED
PL6.E3A0      #006=THC$TYPENAME File=THC$COMMANDS.:E05TSI                        WED 07/30/97 06:10 Page:273
          MINI XREF LISTING

CHARVEC
       600**DCL       678>>CALLBLT
COUNT
       558**DCL         6--PROC      681<<ASSIGN    685<<ASSIGN
INDX
       676**DCL       678<<CALLBLT   679>>IF        680>>ASSIGN    681>>ASSIGN
TBL.COUNT
       639**DCL       681>>ASSIGN
TBL.TEXT
       602**DCL       680>>ASSIGN
TEXT
       557**DCL         6--PROC      680<<ASSIGN    684<<CALLBLT
TYPE
       556**DCL         6--PROC      678>>CALLBLT   684>>CALLBLT
TYPEVEC
       594**DCL       600--REDEF

