VERSION E05

PL6.E3A0      #001=THD$DEVHIST File=THD$DEVHIST.:E05TSI                          WED 07/30/97 06:06 Page:1
        1        1        /*M* THD$DEVHIST - BUILDS VIRGIN HEAD, MAINT, THRESH, AND UTS RECORDS FOR :DEVHIST
                 1        */
        2        2        /*T***********************************************************/
        3        3        /*T*                                                         */
        4        4        /*T* Copyright (c) Bull HN Information Systems Inc., 1997    */
        5        5        /*T*                                                         */
        6        6        /*T***********************************************************/
        7        7        THD$DEVHIST: PROC;
        8        8        /**/
        9        9        /* INCLUDE FILES */
       10       10        %INCLUDE CP_6;
       11       91        %INCLUDE B$JIT;
       12      381        %INCLUDE TH$HIST;
       13      476        %INCLUDE TD$STRUCT;
       14      577        %INCLUDE TH_SUBS_C;
       15      959        %INCLUDE TH_DATA_R;
       16     1037        /**/
       17     1038    1   DCL B$JIT$ PTR SYMREF;
       18     1039        /**/
       19     1040        /* ENTRY DEFS */
       20     1041    1   DCL THG$GETREC ENTRY(4) ALTRET;
       21     1042    1   DCL THM$ERRMSG ENTRY(1);
       22     1043        /**/
       23     1044        /* DCBS */
       24     1045    1   DCL M$DEVHIST DCB;
       25     1046        /**/
       26     1047        /* VARS */
       27     1048    1   DCL I UBIN;
       28     1049    1   DCL NUMDEVS UBIN;
       29     1050    1   DCL CURUTS UBIN WORD STATIC INIT(0);
       30     1051    1   DCL ZERO CHAR(8) CONSTANT INIT('0       '); /* USED FOR GETREC CALLS            */
       31     1052    1   DCL HEAD_KEY BIT(18) CONSTANT INIT('001000'O);
       32     1053    1   DCL MAINT_KEY BIT(18) CONSTANT INIT('001002'O);
       33     1054    1   DCL THRESH_KEY BIT(18) CONSTANT INIT('001001'O);
       34     1055    1   DCL UTS_KEY BIT(18) CONSTANT INIT('001003'O);
       35     1056        /**/
       36     1057        /* MACRO INVOCATIONS */
PL6.E3A0      #001=THD$DEVHIST File=THD$DEVHIST.:E05TSI                          WED 07/30/97 06:06 Page:2
       37     1058        %TD$HEAD (NAME=TH_HEAD,STCLASS=AUTO,NUMDEV#=200);
       38     1094        %TD$HEAD (NAME=TH$HEAD,NUMDEV#=200);
       39     1130        %TD$HEAD (NAME=TD$HEAD);
       40     1166        %TH$MAINT (NAME=TH_MAINT,STCLASS=AUTO,NUMDEV#=200);
       41     1171        %TH$THRESH (NAME=TH_THRESH,STCLASS=AUTO,NUMDEV#=200);
       42     1177        %TH$UTS (NAME=TH_UTS,STCLASS=AUTO);
       43     1182        /**/
       44     1183        /* FPT DEFINITIONS */
       45     1184        %FPT_OPEN (FPTN=OPEN_DEVHIST,
       46     1185                   STCLASS=CONSTANT,
       47     1186                   DCB=M$DEVHIST,
       48     1187                   NAME=DEVHIST,
       49     1188                   ACCT=DEVHIST_ACCT,
       50     1189                   FUN=CREATE,
       51     1190                   ORG=KEYED,
       52     1191                   EXIST=NEWFILE,
       53     1192                   ACS=DIRECT,
       54     1193                   ACCESS=ACSLIST,
       55     1194                   ACSVEH=VEHLIST,
       56     1195                   ASN=FILE);
       57     1304        %FPT_WRITE (FPTN=WRITE_DEVHIST,
       58     1305                    DCB=M$DEVHIST);
       59     1336        %VLP_NAME (FPTN=DEVHIST,
       60     1337                   STCLASS=CONSTANT,
       61     1338                   NAME=':DEVHIST');
       62     1365        %VLP_ACCT (FPTN=SYSTAC,
       63     1366                   STCLASS=CONSTANT,
       64     1367                   ACCT=':SYSTAC');
       65     1380        %FPT_CLOSE (FPTN=CLOSE_DEVHIST,
       66     1381                    STCLASS=CONSTANT,
       67     1382                    DCB=M$DEVHIST,
       68     1383                    DISP=SAVE);
       69     1425        %FPT_TIME  (FPTN=CUR_UTS,
       70     1426                    STCLASS=CONSTANT,
       71     1427                    SOURCE=CLOCK,
       72     1428                    DEST=UTS,
       73     1429                    TSTAMP=CURUTS);
PL6.E3A0      #001=THD$DEVHIST File=THD$DEVHIST.:E05TSI                          WED 07/30/97 06:06 Page:3
       74     1448        %VLP_ATTR (FPTN=ACSLIST);
       75     1462        %VLP_ACCESS (READ=YES,EXEC=YES,ACCT='?',LAST=";");
       76     1479        %VLP_ATTR (FPTN=VEHLIST);
       77     1493        %VLP_ACSVEH (READ=YES,UPD=YES,WNEW=YES,VEHICLE='SYSCON');
       78     1510        %VLP_ACSVEH (READ=YES,UPD=YES,WNEW=YES,VEHICLE='ELAN',LAST=";");
       79     1527        /**/
       80     1528        %EJECT;
PL6.E3A0      #001=THD$DEVHIST File=THD$DEVHIST.:E05TSI                          WED 07/30/97 06:06 Page:4
       81     1529    1        TH_RECORD = VECTOR(TH_HEAD);
       82     1530    1        CALL THG$GETREC(%CONFIG,ZERO) ALTRET(NO_CONFIG);
       83     1531    1        CALL M$OPEN(OPEN_DEVHIST) ALTRET(ERR);
       84     1532    1        TH_HEAD = TH_RECORD.PTR$->TH$HEAD;
       85     1533    1        NUMDEVS = TH_HEAD.NUMUNITMPCS + TH_HEAD.NUMTAPEMPCS + TH_HEAD.NUMDISKMPCS +
       86     1534    1                  TH_HEAD.NUMAPMPCS + TH_HEAD.NUMOPCS +
       87     1535    1                  TH_HEAD.NUMFEPS + TH_HEAD.NUMLPS + TH_HEAD.NUMCRS +
       88     1536    1                  TH_HEAD.NUMCPS + TH_HEAD.NUMCONSOLES + TH_HEAD.NUMIOMS +
       89     1537    1                  TH_HEAD.NUMDPS + TH_HEAD.NUMMTS + TH_HEAD.NUMXXS +
       90     1538    1                  TH_HEAD.NUMAPS + TH_HEAD.NUMODS;
       91     1539    1        WRITE_DEVHIST.KEY_ = VECTOR(HEAD_KEY);
       92     1540    1        WRITE_DEVHIST.BUF_ = VECTOR(TH_HEAD);
       93     1541    1        WRITE_DEVHIST.BUF_.BOUND = SIZEV(TD$HEAD) + (8 * (NUMDEVS - 1));
       94     1542    1        CALL M$WRITE(WRITE_DEVHIST) ALTRET(ERR);
       95     1543
       96     1544    2        DO I = 0 TO NUMDEVS - 1;
       97     1545    2           TH_THRESH.DEVNAME(I) = TH_HEAD.DEVNAME(I);
       98     1546    2           TH_THRESH.ATTEN(I) = 9900;
       99     1547    2           TH_THRESH.ALERT(I) = 9500;
      100     1548    2           TH_MAINT.DEVNAME(I) = TH_HEAD.DEVNAME(I);
      101     1549    2           TH_MAINT.UTS(I) = 0;
      102     1550    2        END;                               /* DO I                               */
      103     1551    1        WRITE_DEVHIST.KEY_ = VECTOR(THRESH_KEY);
      104     1552    1        WRITE_DEVHIST.BUF_ = VECTOR(TH_THRESH);
      105     1553    1        WRITE_DEVHIST.BUF_.BOUND = SIZEV(TH_THRESH) - ((201 - NUMDEVS) * 16);
      106     1554    1        CALL M$WRITE(WRITE_DEVHIST) ALTRET(ERR);
      107     1555
      108     1556    1        WRITE_DEVHIST.KEY_ = VECTOR(MAINT_KEY);
      109     1557    1        WRITE_DEVHIST.BUF_ = VECTOR(TH_MAINT);
      110     1558    1        WRITE_DEVHIST.BUF_.BOUND = SIZEV(TH_MAINT) - ((201 - NUMDEVS) * 12);
      111     1559    1        CALL M$WRITE(WRITE_DEVHIST) ALTRET(ERR);
      112     1560
      113     1561    1        TH_UTS.ERRLOG_UTS = 0;
      114     1562    1        CALL M$TIME(CUR_UTS);
      115     1563    1        TH_UTS.OLDEST_UTS = CURUTS;
      116     1564    1        WRITE_DEVHIST.KEY_ = VECTOR(UTS_KEY);
      117     1565    1        WRITE_DEVHIST.BUF_ = VECTOR(TH_UTS);
PL6.E3A0      #001=THD$DEVHIST File=THD$DEVHIST.:E05TSI                          WED 07/30/97 06:06 Page:5
      118     1566    1        CALL M$WRITE(WRITE_DEVHIST) ALTRET(ERR);
      119     1567    1        CALL M$CLOSE(CLOSE_DEVHIST) ALTRET(ERR);
      120     1568    1   NO_CONFIG:
      121     1569    1        RETURN;
      122     1570    1   ERR: CALL THM$ERRMSG;
      123     1571    1        RETURN;
      124     1572    1   END THD$DEVHIST;

PL6.E3A0      #001=THD$DEVHIST File=THD$DEVHIST.:E05TSI                          WED 07/30/97 06:06 Page:6
--  Include file information  --

   TH_DATA_R.:E05TOU  cannot be made into a system file and is referenced.
   B_STRINGS_C.:E05TOU  is referenced.
   TH_SUBS_C.:E05TOU  is referenced.
   TD$STRUCT.:E05TOU  is referenced.
   TH$HIST.:E05TOU  is referenced.
   B$JIT.:E05TOU  cannot be made into a system file and is referenced.
   CP_6.:E05TOU  cannot be made into a system file and is referenced.
   B$JIT_C.:E05TOU  was found in the system file and is referenced.
   CP_6_C.:E05TOU  was found in the system file and is referenced.
      No diagnostics issued in procedure THD$DEVHIST.

   Procedure THD$DEVHIST requires 223 words for executable code.
   Procedure THD$DEVHIST requires 1862 words of local(AUTO) storage.

    No errors detected in file THD$DEVHIST.:E05TSI    .

PL6.E3A0      #001=THD$DEVHIST File=THD$DEVHIST.:E05TSI                          WED 07/30/97 06:06 Page:7

 Object Unit name= THD$DEVHIST                                File name= THD$DEVHIST.:E05TOU
 UTS= JUL 30 '97 06:06:25.96 WED                              Compiler= PL-6/E31         Sev=      00
 SharedLib= :SHARED_SYSTEM                                    Alt SharedLib=


    ****  Control sections  ****

 Sect   Type Bound  Init  Size OctSiz  Section name(segment info)
    0   DCB   even  none     0      0  M$UC
    1   DCB   even  none     0      0  M$DEVHIST
    2   Data  even  none    23     27  THD$DEVHIST
    3  RoData even  UTS    112    160  THD$DEVHIST
    4   Proc  even  none   223    337  THD$DEVHIST
    5  RoData even  none    15     17  THD$DEVHIST

    ****  Entry defs  ****

                              Check   Calling
                             calling  sequence
  Sect OctLoc Primary Altret sequence   type   Parms  Name
     4      0   yes            yes      Std        0  THD$DEVHIST

  ****  Entry refs  ****

         Check        Calling
        calling       sequence
Altret sequence SRef   type   Args  Name
 yes     yes           Std       4 THG$GETREC
         yes           Std       1 THM$ERRMSG
                       nStd      0 X66_AUTO_0
                       Std       0 B_CONSPOOL_D
                       nStd      0 X66_ARET
PL6.E3A0      #001=THD$DEVHIST File=THD$DEVHIST.:E05TSI                          WED 07/30/97 06:06 Page:8

  ****  Data refs  ****

  Flags:  r = read only, s = secondary
Flgs Name                             Flgs Name                             Flgs Name
     M$UC                                  TH_RECORD                             TH_XSA_BUF_VECTOR
     DEVHIST_ACCT                          B$JIT$                                M$DEVHIST
     B_VECTNIL

  ****  Segment refs  ****

  Flags:  r = read only, s = secondary
Flgs Name                             Flgs Name                             Flgs Name
     ISSID                                 NULLSID
PL6.E3A0      #001=THD$DEVHIST File=THD$DEVHIST.:E05TSI                          WED 07/30/97 06:06 Page:9


        1        1        /*M* THD$DEVHIST - BUILDS VIRGIN HEAD, MAINT, THRESH, AND UTS RECORDS FOR :DEVHIST
                 1        */
        2        2        /*T***********************************************************/
        3        3        /*T*                                                         */
        4        4        /*T* Copyright (c) Bull HN Information Systems Inc., 1997    */
        5        5        /*T*                                                         */
        6        6        /*T***********************************************************/
        7        7        THD$DEVHIST: PROC;

      7  4 000000   000000 700200 xent  THD$DEVHIST  TSX0  ! X66_AUTO_0
         4 000001   003506 000000                    ZERO    1862,0

        8        8        /**/
        9        9        /* INCLUDE FILES */
       10       10        %INCLUDE CP_6;
       11       91        %INCLUDE B$JIT;
       12      381        %INCLUDE TH$HIST;
       13      476        %INCLUDE TD$STRUCT;
       14      577        %INCLUDE TH_SUBS_C;
       15      959        %INCLUDE TH_DATA_R;
       16     1037        /**/
       17     1038    1   DCL B$JIT$ PTR SYMREF;
       18     1039        /**/
       19     1040        /* ENTRY DEFS */
       20     1041    1   DCL THG$GETREC ENTRY(4) ALTRET;
       21     1042    1   DCL THM$ERRMSG ENTRY(1);
       22     1043        /**/
       23     1044        /* DCBS */
       24     1045    1   DCL M$DEVHIST DCB;
       25     1046        /**/
       26     1047        /* VARS */
       27     1048    1   DCL I UBIN;
       28     1049    1   DCL NUMDEVS UBIN;
       29     1050    1   DCL CURUTS UBIN WORD STATIC INIT(0);
       30     1051    1   DCL ZERO CHAR(8) CONSTANT INIT('0       '); /* USED FOR GETREC CALLS            */
       31     1052    1   DCL HEAD_KEY BIT(18) CONSTANT INIT('001000'O);
PL6.E3A0      #001=THD$DEVHIST File=THD$DEVHIST.:E05TSI                          WED 07/30/97 06:06 Page:10
       32     1053    1   DCL MAINT_KEY BIT(18) CONSTANT INIT('001002'O);
       33     1054    1   DCL THRESH_KEY BIT(18) CONSTANT INIT('001001'O);
       34     1055    1   DCL UTS_KEY BIT(18) CONSTANT INIT('001003'O);
       35     1056        /**/
       36     1057        /* MACRO INVOCATIONS */
       37     1058        %TD$HEAD (NAME=TH_HEAD,STCLASS=AUTO,NUMDEV#=200);
       38     1094        %TD$HEAD (NAME=TH$HEAD,NUMDEV#=200);
       39     1130        %TD$HEAD (NAME=TD$HEAD);
       40     1166        %TH$MAINT (NAME=TH_MAINT,STCLASS=AUTO,NUMDEV#=200);
       41     1171        %TH$THRESH (NAME=TH_THRESH,STCLASS=AUTO,NUMDEV#=200);
       42     1177        %TH$UTS (NAME=TH_UTS,STCLASS=AUTO);
       43     1182        /**/
       44     1183        /* FPT DEFINITIONS */
       45     1184        %FPT_OPEN (FPTN=OPEN_DEVHIST,
       46     1185                   STCLASS=CONSTANT,
       47     1186                   DCB=M$DEVHIST,
       48     1187                   NAME=DEVHIST,
       49     1188                   ACCT=DEVHIST_ACCT,
       50     1189                   FUN=CREATE,
       51     1190                   ORG=KEYED,
       52     1191                   EXIST=NEWFILE,
       53     1192                   ACS=DIRECT,
       54     1193                   ACCESS=ACSLIST,
       55     1194                   ACSVEH=VEHLIST,
       56     1195                   ASN=FILE);
       57     1304        %FPT_WRITE (FPTN=WRITE_DEVHIST,
       58     1305                    DCB=M$DEVHIST);
       59     1336        %VLP_NAME (FPTN=DEVHIST,
       60     1337                   STCLASS=CONSTANT,
       61     1338                   NAME=':DEVHIST');
       62     1365        %VLP_ACCT (FPTN=SYSTAC,
       63     1366                   STCLASS=CONSTANT,
       64     1367                   ACCT=':SYSTAC');
       65     1380        %FPT_CLOSE (FPTN=CLOSE_DEVHIST,
       66     1381                    STCLASS=CONSTANT,
       67     1382                    DCB=M$DEVHIST,
       68     1383                    DISP=SAVE);
PL6.E3A0      #001=THD$DEVHIST File=THD$DEVHIST.:E05TSI                          WED 07/30/97 06:06 Page:11
       69     1425        %FPT_TIME  (FPTN=CUR_UTS,
       70     1426                    STCLASS=CONSTANT,
       71     1427                    SOURCE=CLOCK,
       72     1428                    DEST=UTS,
       73     1429                    TSTAMP=CURUTS);
       74     1448        %VLP_ATTR (FPTN=ACSLIST);
       75     1462        %VLP_ACCESS (READ=YES,EXEC=YES,ACCT='?',LAST=";");
       76     1479        %VLP_ATTR (FPTN=VEHLIST);
       77     1493        %VLP_ACSVEH (READ=YES,UPD=YES,WNEW=YES,VEHICLE='SYSCON');
       78     1510        %VLP_ACSVEH (READ=YES,UPD=YES,WNEW=YES,VEHICLE='ELAN',LAST=";");
       79     1527        /**/
       80     1528        %EJECT;
PL6.E3A0      #001=THD$DEVHIST File=THD$DEVHIST.:E05TSI                          WED 07/30/97 06:06 Page:12
       81     1529    1        TH_RECORD = VECTOR(TH_HEAD);

   1529  4 000002   000000 235000 5                  LDA     0
         4 000003   203450 452500                    STP2    TH_UTS+2,,AUTO
         4 000004   203450 236100                    LDQ     TH_UTS+2,,AUTO
         4 000005   000005 036003                    ADLQ    5,DU
         4 000006   000000 757000 xsym               STAQ    TH_RECORD

       82     1530    1        CALL THG$GETREC(%CONFIG,ZERO) ALTRET(NO_CONFIG);

   1530  4 000007   000001 630400 5                  EPPR0   1
         4 000010   000020 631400 xsym               EPPR1   B_VECTNIL+16
         4 000011   000000 701000 xent               TSX1    THG$GETREC
         4 000012   000332 702000 4                  TSX2    NO_CONFIG

       83     1531    1        CALL M$OPEN(OPEN_DEVHIST) ALTRET(ERR);

   1531  4 000013   000006 630400 3                  EPPR0   OPEN_DEVHIST
         4 000014   450000 713400                    CLIMB   alt,open
         4 000015   410400 401760                    pmme    nvectors=18
         4 000016   000333 702000 4                  TSX2    ERR

       84     1532    1        TH_HEAD = TH_RECORD.PTR$->TH$HEAD;

   1532  4 000017   000001 470400 xsym               LDP0    TH_RECORD+1
         4 000020   000100 100500                    MLR     fill='000'O
         4 000021   000000 003210                    ADSC9   0,,PR0                   cn=0,n=1672
         4 000022   200005 003210                    ADSC9   TH_HEAD,,AUTO            cn=0,n=1672

       85     1533    1        NUMDEVS = TH_HEAD.NUMUNITMPCS + TH_HEAD.NUMTAPEMPCS + TH_HEAD.NUMDISKMPCS +

   1533  4 000023   200007 236100                    LDQ     TH_HEAD+2,,AUTO
         4 000024   777777 376007                    ANQ     -1,DL
         4 000025   203450 756100                    STQ     TH_UTS+2,,AUTO
         4 000026   200006 236100                    LDQ     TH_HEAD+1,,AUTO
         4 000027   777777 376007                    ANQ     -1,DL
         4 000030   203450 036100                    ADLQ    TH_UTS+2,,AUTO
PL6.E3A0      #001=THD$DEVHIST File=THD$DEVHIST.:E05TSI                          WED 07/30/97 06:06 Page:13
         4 000031   203451 756100                    STQ     TH_UTS+3,,AUTO
         4 000032   200010 236100                    LDQ     TH_HEAD+3,,AUTO
         4 000033   777777 376007                    ANQ     -1,DL
         4 000034   203452 756100                    STQ     TH_UTS+4,,AUTO
         4 000035   203451 236100                    LDQ     TH_UTS+3,,AUTO
         4 000036   203452 036100                    ADLQ    TH_UTS+4,,AUTO
         4 000037   203453 756100                    STQ     TH_UTS+5,,AUTO
         4 000040   200011 236100                    LDQ     TH_HEAD+4,,AUTO
         4 000041   777777 376007                    ANQ     -1,DL
         4 000042   203454 756100                    STQ     TH_UTS+6,,AUTO
         4 000043   203453 236100                    LDQ     TH_UTS+5,,AUTO
         4 000044   203454 036100                    ADLQ    TH_UTS+6,,AUTO
         4 000045   203455 756100                    STQ     TH_UTS+7,,AUTO
         4 000046   200012 236100                    LDQ     TH_HEAD+5,,AUTO
         4 000047   777777 376007                    ANQ     -1,DL
         4 000050   203456 756100                    STQ     TH_UTS+8,,AUTO
         4 000051   203455 236100                    LDQ     TH_UTS+7,,AUTO
         4 000052   203456 036100                    ADLQ    TH_UTS+8,,AUTO
         4 000053   203457 756100                    STQ     TH_UTS+9,,AUTO
         4 000054   200013 236100                    LDQ     TH_HEAD+6,,AUTO
         4 000055   777777 376007                    ANQ     -1,DL
         4 000056   203460 756100                    STQ     TH_UTS+10,,AUTO
         4 000057   203457 236100                    LDQ     TH_UTS+9,,AUTO
         4 000060   203460 036100                    ADLQ    TH_UTS+10,,AUTO
         4 000061   203461 756100                    STQ     TH_UTS+11,,AUTO
         4 000062   200015 236100                    LDQ     TH_HEAD+8,,AUTO
         4 000063   777777 376007                    ANQ     -1,DL
         4 000064   203462 756100                    STQ     TH_UTS+12,,AUTO
         4 000065   203461 236100                    LDQ     TH_UTS+11,,AUTO
         4 000066   203462 036100                    ADLQ    TH_UTS+12,,AUTO
         4 000067   203463 756100                    STQ     TH_UTS+13,,AUTO
         4 000070   200016 236100                    LDQ     TH_HEAD+9,,AUTO
         4 000071   777777 376007                    ANQ     -1,DL
         4 000072   203464 756100                    STQ     TH_UTS+14,,AUTO
         4 000073   203463 236100                    LDQ     TH_UTS+13,,AUTO
         4 000074   203464 036100                    ADLQ    TH_UTS+14,,AUTO
         4 000075   203465 756100                    STQ     TH_UTS+15,,AUTO
PL6.E3A0      #001=THD$DEVHIST File=THD$DEVHIST.:E05TSI                          WED 07/30/97 06:06 Page:14
         4 000076   200017 236100                    LDQ     TH_HEAD+10,,AUTO
         4 000077   777777 376007                    ANQ     -1,DL
         4 000100   203466 756100                    STQ     TH_UTS+16,,AUTO
         4 000101   203465 236100                    LDQ     TH_UTS+15,,AUTO
         4 000102   203466 036100                    ADLQ    TH_UTS+16,,AUTO
         4 000103   203467 756100                    STQ     TH_UTS+17,,AUTO
         4 000104   200014 236100                    LDQ     TH_HEAD+7,,AUTO
         4 000105   777777 376007                    ANQ     -1,DL
         4 000106   203470 756100                    STQ     TH_UTS+18,,AUTO
         4 000107   203467 236100                    LDQ     TH_UTS+17,,AUTO
         4 000110   203470 036100                    ADLQ    TH_UTS+18,,AUTO
         4 000111   203471 756100                    STQ     TH_UTS+19,,AUTO
         4 000112   200005 236100                    LDQ     TH_HEAD,,AUTO
         4 000113   777777 376007                    ANQ     -1,DL
         4 000114   203472 756100                    STQ     TH_UTS+20,,AUTO
         4 000115   203471 236100                    LDQ     TH_UTS+19,,AUTO
         4 000116   203472 036100                    ADLQ    TH_UTS+20,,AUTO
         4 000117   203473 756100                    STQ     TH_UTS+21,,AUTO
         4 000120   200020 236100                    LDQ     TH_HEAD+11,,AUTO
         4 000121   777777 376007                    ANQ     -1,DL
         4 000122   203474 756100                    STQ     TH_UTS+22,,AUTO
         4 000123   203473 236100                    LDQ     TH_UTS+21,,AUTO
         4 000124   203474 036100                    ADLQ    TH_UTS+22,,AUTO
         4 000125   203475 756100                    STQ     TH_UTS+23,,AUTO
         4 000126   200021 236100                    LDQ     TH_HEAD+12,,AUTO
         4 000127   777777 376007                    ANQ     -1,DL
         4 000130   203476 756100                    STQ     TH_UTS+24,,AUTO
         4 000131   203475 236100                    LDQ     TH_UTS+23,,AUTO
         4 000132   203476 036100                    ADLQ    TH_UTS+24,,AUTO
         4 000133   203477 756100                    STQ     TH_UTS+25,,AUTO
         4 000134   200022 236100                    LDQ     TH_HEAD+13,,AUTO
         4 000135   777777 376007                    ANQ     -1,DL
         4 000136   203500 756100                    STQ     TH_UTS+26,,AUTO
         4 000137   203477 236100                    LDQ     TH_UTS+25,,AUTO
         4 000140   203500 036100                    ADLQ    TH_UTS+26,,AUTO
         4 000141   203501 756100                    STQ     TH_UTS+27,,AUTO
         4 000142   200023 236100                    LDQ     TH_HEAD+14,,AUTO
PL6.E3A0      #001=THD$DEVHIST File=THD$DEVHIST.:E05TSI                          WED 07/30/97 06:06 Page:15
         4 000143   777777 376007                    ANQ     -1,DL
         4 000144   203502 756100                    STQ     TH_UTS+28,,AUTO
         4 000145   203501 236100                    LDQ     TH_UTS+27,,AUTO
         4 000146   203502 036100                    ADLQ    TH_UTS+28,,AUTO
         4 000147   203503 756100                    STQ     TH_UTS+29,,AUTO
         4 000150   200024 236100                    LDQ     TH_HEAD+15,,AUTO
         4 000151   777777 376007                    ANQ     -1,DL
         4 000152   203504 756100                    STQ     TH_UTS+30,,AUTO
         4 000153   203503 236100                    LDQ     TH_UTS+29,,AUTO
         4 000154   203504 036100                    ADLQ    TH_UTS+30,,AUTO
         4 000155   200004 756100                    STQ     NUMDEVS,,AUTO

       86     1534    1                  TH_HEAD.NUMAPMPCS + TH_HEAD.NUMOPCS +
       87     1535    1                  TH_HEAD.NUMFEPS + TH_HEAD.NUMLPS + TH_HEAD.NUMCRS +
       88     1536    1                  TH_HEAD.NUMCPS + TH_HEAD.NUMCONSOLES + TH_HEAD.NUMIOMS +
       89     1537    1                  TH_HEAD.NUMDPS + TH_HEAD.NUMMTS + TH_HEAD.NUMXXS +
       90     1538    1                  TH_HEAD.NUMAPS + TH_HEAD.NUMODS;
       91     1539    1        WRITE_DEVHIST.KEY_ = VECTOR(HEAD_KEY);

   1539  4 000156   000004 237000 5                  LDAQ    4
         4 000157   000004 757000 2                  STAQ    WRITE_DEVHIST+2

       92     1540    1        WRITE_DEVHIST.BUF_ = VECTOR(TH_HEAD);

   1540  4 000160   000000 235000 5                  LDA     0
         4 000161   203450 452500                    STP2    TH_UTS+2,,AUTO
         4 000162   203450 236100                    LDQ     TH_UTS+2,,AUTO
         4 000163   000005 036003                    ADLQ    5,DU
         4 000164   000006 757000 2                  STAQ    WRITE_DEVHIST+4

       93     1541    1        WRITE_DEVHIST.BUF_.BOUND = SIZEV(TD$HEAD) + (8 * (NUMDEVS - 1));

   1541  4 000165   200004 236100                    LDQ     NUMDEVS,,AUTO
         4 000166   000003 736000                    QLS     3
         4 000167   000077 036007                    ADLQ    63,DL
         4 000170   000020 736000                    QLS     16
         4 000171   000006 676000 2                  ERQ     WRITE_DEVHIST+4
PL6.E3A0      #001=THD$DEVHIST File=THD$DEVHIST.:E05TSI                          WED 07/30/97 06:06 Page:16
         4 000172   000034 376000 xsym               ANQ     B_VECTNIL+28
         4 000173   000006 656000 2                  ERSQ    WRITE_DEVHIST+4

       94     1542    1        CALL M$WRITE(WRITE_DEVHIST) ALTRET(ERR);

   1542  4 000174   000002 630400 2                  EPPR0   WRITE_DEVHIST
         4 000175   440001 713400                    CLIMB   alt,write
         4 000176   401400 401760                    pmme    nvectors=4
         4 000177   000333 702000 4                  TSX2    ERR

       95     1543
       96     1544    2        DO I = 0 TO NUMDEVS - 1;

   1544  4 000200   200003 450100                    STZ     I,,AUTO
         4 000201   000236 710000 4                  TRA     s:1550+3

       97     1545    2           TH_THRESH.DEVNAME(I) = TH_HEAD.DEVNAME(I);

   1545  4 000202   200003 235100                    LDA     I,,AUTO
         4 000203   000002 735000                    ALS     2
         4 000204   200003 236100                    LDQ     I,,AUTO
         4 000205   000003 736000                    QLS     3
         4 000206   000002 735000                    ALS     2
         4 000207   040105 100506                    MLR     fill='040'O
         4 000210   200025 000010                    ADSC9   TH_HEAD+16,Q,AUTO        cn=0,n=8
         4 000211   202002 000010                    ADSC9   TH_THRESH,A,AUTO         cn=0,n=8

       98     1546    2           TH_THRESH.ATTEN(I) = 9900;

   1546  4 000212   200003 235100                    LDA     I,,AUTO
         4 000213   000002 735000                    ALS     2
         4 000214   023254 236007                    LDQ     9900,DL
         4 000215   202004 756105                    STQ     TH_THRESH+2,AL,AUTO

       99     1547    2           TH_THRESH.ALERT(I) = 9500;

   1547  4 000216   022434 236007                    LDQ     9500,DL
PL6.E3A0      #001=THD$DEVHIST File=THD$DEVHIST.:E05TSI                          WED 07/30/97 06:06 Page:17
         4 000217   202005 756105                    STQ     TH_THRESH+3,AL,AUTO

      100     1548    2           TH_MAINT.DEVNAME(I) = TH_HEAD.DEVNAME(I);

   1548  4 000220   200003 236100                    LDQ     I,,AUTO
         4 000221   000003 402007                    MPY     3,DL
         4 000222   200003 235100                    LDA     I,,AUTO
         4 000223   000003 735000                    ALS     3
         4 000224   000002 736000                    QLS     2
         4 000225   040106 100505                    MLR     fill='040'O
         4 000226   200025 000010                    ADSC9   TH_HEAD+16,A,AUTO        cn=0,n=8
         4 000227   200647 000010                    ADSC9   TH_MAINT,Q,AUTO          cn=0,n=8

      101     1549    2           TH_MAINT.UTS(I) = 0;

   1549  4 000230   200003 236100                    LDQ     I,,AUTO
         4 000231   000003 402007                    MPY     3,DL
         4 000232   200651 450106                    STZ     TH_MAINT+2,QL,AUTO

      102     1550    2        END;                               /* DO I                               */

   1550  4 000233   200003 235100                    LDA     I,,AUTO
         4 000234   000001 035007                    ADLA    1,DL
         4 000235   200003 755100                    STA     I,,AUTO
         4 000236   200003 236100                    LDQ     I,,AUTO
         4 000237   200004 116100                    CMPQ    NUMDEVS,,AUTO
         4 000240   000202 602000 4                  TNC     s:1545

      103     1551    1        WRITE_DEVHIST.KEY_ = VECTOR(THRESH_KEY);

   1551  4 000241   000006 237000 5                  LDAQ    6
         4 000242   000004 757000 2                  STAQ    WRITE_DEVHIST+2

      104     1552    1        WRITE_DEVHIST.BUF_ = VECTOR(TH_THRESH);

   1552  4 000243   000010 235000 5                  LDA     8
         4 000244   203450 452500                    STP2    TH_UTS+2,,AUTO
PL6.E3A0      #001=THD$DEVHIST File=THD$DEVHIST.:E05TSI                          WED 07/30/97 06:06 Page:18
         4 000245   203450 236100                    LDQ     TH_UTS+2,,AUTO
         4 000246   002002 036003                    ADLQ    1026,DU
         4 000247   000006 757000 2                  STAQ    WRITE_DEVHIST+4

      105     1553    1        WRITE_DEVHIST.BUF_.BOUND = SIZEV(TH_THRESH) - ((201 - NUMDEVS) * 16);

   1553  4 000250   200004 236100                    LDQ     NUMDEVS,,AUTO
         4 000251   000004 736000                    QLS     4
         4 000252   000001 136007                    SBLQ    1,DL
         4 000253   000020 736000                    QLS     16
         4 000254   000006 676000 2                  ERQ     WRITE_DEVHIST+4
         4 000255   000034 376000 xsym               ANQ     B_VECTNIL+28
         4 000256   000006 656000 2                  ERSQ    WRITE_DEVHIST+4

      106     1554    1        CALL M$WRITE(WRITE_DEVHIST) ALTRET(ERR);

   1554  4 000257   000002 630400 2                  EPPR0   WRITE_DEVHIST
         4 000260   440001 713400                    CLIMB   alt,write
         4 000261   401400 401760                    pmme    nvectors=4
         4 000262   000333 702000 4                  TSX2    ERR

      107     1555
      108     1556    1        WRITE_DEVHIST.KEY_ = VECTOR(MAINT_KEY);

   1556  4 000263   000012 237000 5                  LDAQ    10
         4 000264   000004 757000 2                  STAQ    WRITE_DEVHIST+2

      109     1557    1        WRITE_DEVHIST.BUF_ = VECTOR(TH_MAINT);

   1557  4 000265   000011 235000 5                  LDA     9
         4 000266   203450 452500                    STP2    TH_UTS+2,,AUTO
         4 000267   203450 236100                    LDQ     TH_UTS+2,,AUTO
         4 000270   000647 036003                    ADLQ    423,DU
         4 000271   000006 757000 2                  STAQ    WRITE_DEVHIST+4

      110     1558    1        WRITE_DEVHIST.BUF_.BOUND = SIZEV(TH_MAINT) - ((201 - NUMDEVS) * 12);

PL6.E3A0      #001=THD$DEVHIST File=THD$DEVHIST.:E05TSI                          WED 07/30/97 06:06 Page:19
   1558  4 000272   200004 236100                    LDQ     NUMDEVS,,AUTO
         4 000273   000014 402007                    MPY     12,DL
         4 000274   000001 136007                    SBLQ    1,DL
         4 000275   000020 736000                    QLS     16
         4 000276   000006 676000 2                  ERQ     WRITE_DEVHIST+4
         4 000277   000034 376000 xsym               ANQ     B_VECTNIL+28
         4 000300   000006 656000 2                  ERSQ    WRITE_DEVHIST+4

      111     1559    1        CALL M$WRITE(WRITE_DEVHIST) ALTRET(ERR);

   1559  4 000301   000002 630400 2                  EPPR0   WRITE_DEVHIST
         4 000302   440001 713400                    CLIMB   alt,write
         4 000303   401400 401760                    pmme    nvectors=4
         4 000304   000333 702000 4                  TSX2    ERR

      112     1560
      113     1561    1        TH_UTS.ERRLOG_UTS = 0;

   1561  4 000305   203447 450100                    STZ     TH_UTS+1,,AUTO

      114     1562    1        CALL M$TIME(CUR_UTS);

   1562  4 000306   000144 630400 3                  EPPR0   CUR_UTS
         4 000307   020004 713400                    CLIMB   8196
         4 000310   402000 401760                    pmme    nvectors=5

      115     1563    1        TH_UTS.OLDEST_UTS = CURUTS;

   1563  4 000311   000000 235000 2                  LDA     CURUTS
         4 000312   203446 755100                    STA     TH_UTS,,AUTO

      116     1564    1        WRITE_DEVHIST.KEY_ = VECTOR(UTS_KEY);

   1564  4 000313   000014 237000 5                  LDAQ    12
         4 000314   000004 757000 2                  STAQ    WRITE_DEVHIST+2

      117     1565    1        WRITE_DEVHIST.BUF_ = VECTOR(TH_UTS);
PL6.E3A0      #001=THD$DEVHIST File=THD$DEVHIST.:E05TSI                          WED 07/30/97 06:06 Page:20

   1565  4 000315   000016 235000 5                  LDA     14
         4 000316   203450 452500                    STP2    TH_UTS+2,,AUTO
         4 000317   203450 236100                    LDQ     TH_UTS+2,,AUTO
         4 000320   003446 036003                    ADLQ    1830,DU
         4 000321   000006 757000 2                  STAQ    WRITE_DEVHIST+4

      118     1566    1        CALL M$WRITE(WRITE_DEVHIST) ALTRET(ERR);

   1566  4 000322   000002 630400 2                  EPPR0   WRITE_DEVHIST
         4 000323   440001 713400                    CLIMB   alt,write
         4 000324   401400 401760                    pmme    nvectors=4
         4 000325   000333 702000 4                  TSX2    ERR

      119     1567    1        CALL M$CLOSE(CLOSE_DEVHIST) ALTRET(ERR);

   1567  4 000326   000106 630400 3                  EPPR0   CLOSE_DEVHIST
         4 000327   450001 713400                    CLIMB   alt,close
         4 000330   406000 401760                    pmme    nvectors=13
         4 000331   000333 702000 4                  TSX2    ERR

      120     1568    1   NO_CONFIG:
      121     1569    1        RETURN;

   1569  4 000332   000000 702200 xent  NO_CONFIG    TSX2  ! X66_ARET

      122     1570    1   ERR: CALL THM$ERRMSG;

   1570  4 000333   000002 631400 xsym  ERR          EPPR1   B_VECTNIL+2
         4 000334   000000 701000 xent               TSX1    THM$ERRMSG
         4 000335   000000 011000                    NOP     0

      123     1571    1        RETURN;

   1571  4 000336   000000 702200 xent               TSX2  ! X66_ARET
      124     1572    1   END THD$DEVHIST;

PL6.E3A0      #001=THD$DEVHIST File=THD$DEVHIST.:E05TSI                          WED 07/30/97 06:06 Page:21
--  Include file information  --

   TH_DATA_R.:E05TOU  cannot be made into a system file and is referenced.
   B_STRINGS_C.:E05TOU  is referenced.
   TH_SUBS_C.:E05TOU  is referenced.
   TD$STRUCT.:E05TOU  is referenced.
   TH$HIST.:E05TOU  is referenced.
   B$JIT.:E05TOU  cannot be made into a system file and is referenced.
   CP_6.:E05TOU  cannot be made into a system file and is referenced.
   B$JIT_C.:E05TOU  was found in the system file and is referenced.
   CP_6_C.:E05TOU  was found in the system file and is referenced.
      No diagnostics issued in procedure THD$DEVHIST.
PL6.E3A0      #001=THD$DEVHIST File=THD$DEVHIST.:E05TSI                          WED 07/30/97 06:06 Page:22

 **** Variables and constants ****

  ****  Section 002  Data  THD$DEVHIST

  ****  Scalars and arrays  ****
OctLoc.c.b A Datatyp(siz) R M Lvl/name                 OctLoc.c.b A Datatyp(siz) R M Lvl/name

    16-0-0/w STRC(126)   r     1 ACSLIST                    0-0-0/w UBIN        r     1 CURUTS
    22-0-0/w STRC(180)   r     1 VEHLIST                    2-0-0/d STRC(432)   r     1 WRITE_DEVHIST

  ****  Section 003 RoData THD$DEVHIST

  ****  Scalars and arrays  ****
OctLoc.c.b A Datatyp(siz) R M Lvl/name                 OctLoc.c.b A Datatyp(siz) R M Lvl/name

   106-0-0/d STRC(1080)  r     1 CLOSE_DEVHIST            144-0-0/d STRC(432)   r     1 CUR_UTS
   100-0-0/c STRC(81)    r     1 DEVHIST                    2-0-0/b BIT (18)    r     1 HEAD_KEY
     3-0-0/b BIT (18)    r     1 MAINT_KEY                  6-0-0/d STRC(2088)  r     1 OPEN_DEVHIST
     4-0-0/b BIT (18)    r     1 THRESH_KEY                 5-0-0/b BIT (18)    r     1 UTS_KEY
     0-0-0/c CHAR(8)     r     1 ZERO

  ****  Auto variables  ****

  ****  Scalars and arrays  ****
OctLoc.c.b A Datatyp(siz) R M Lvl/name                 OctLoc.c.b A Datatyp(siz) R M Lvl/name

     3-0-0/w UBIN        r     1 I                          4-0-0/w UBIN        r     1 NUMDEVS
     5-0-0/w STRC(15048) r     1 TH_HEAD                  647-0-0/w STRC(108)   r     1 TH_MAINT(0:200)
  2002-0-0/w STRC(144)   r     1 TH_THRESH(0:200)
  3446-0-0/w STRC(72)    r     1 TH_UTS

  ****  SYMREF variables  ****

  ****  Scalars and arrays  ****
OctLoc.c.b A Datatyp(siz) R M Lvl/name                 OctLoc.c.b A Datatyp(siz) R M Lvl/name

     0-0-0/w PTR         r     1 B$JIT$                     0-0-0/c STRC(72)    r     1 DEVHIST_ACCT
PL6.E3A0      #001=THD$DEVHIST File=THD$DEVHIST.:E05TSI                          WED 07/30/97 06:06 Page:23
     0-0-0/d STRC(72)    r     1 TH_RECORD

  ****  BASED and DCB variables  ****

  ****  Scalars and arrays  ****
OctLoc.c.b A Datatyp(siz) R M Lvl/name                 OctLoc.c.b A Datatyp(siz) R M Lvl/name

     0-0-0N  NULL        r     1 M$DEVHIST                  0-0-0/w STRC(648)   r     1 TD$HEAD
     0-0-0/w STRC(15048) r     1 TH$HEAD


   Procedure THD$DEVHIST requires 223 words for executable code.
   Procedure THD$DEVHIST requires 1862 words of local(AUTO) storage.

    No errors detected in file THD$DEVHIST.:E05TSI    .
PL6.E3A0      #001=THD$DEVHIST File=THD$DEVHIST.:E05TSI                          WED 07/30/97 06:06 Page:24
          *** CROSS REFERENCE LISTING ***
**     DENOTES     IDENTIFIER DEFINITION
<<                 IDENTIFIER'S VALUE SET
>>                 IDENTIFIER'S VALUE USED
<>                 IDENTIFIER SET AND/OR USED
--                 IDENTIFIER REFERENCED
PL6.E3A0      #001=THD$DEVHIST File=THD$DEVHIST.:E05TSI                          WED 07/30/97 06:06 Page:25
          MINI XREF LISTING

ACSLIST
      1459**DCL      1262--DCLINIT
ACSLIST.Q
      1460**DCL      1459--DCLINIT
B$JIT.CPFLAGS1.SLEAZE
       199**DCL       199--REDEF
B$JIT.ERR.MID
       106**DCL       106--REDEF
B$JIT.JRESPEAK
       267**DCL       268--REDEF
B$JIT.ORIGINATOR_PORT.FROM_CR
       376**DCL       376--REDEF     377--REDEF
B$JIT.PNR
       280**DCL       280--REDEF
B$JIT.TSLINE
       374**DCL       375--REDEF
B$JIT$
      1038**DCL       100--IMP-PTR
CLOSE_DEVHIST
      1406**DCL      1567<>CALL
CLOSE_DEVHIST.SN_
      1406**DCL      1406--REDEF
CLOSE_DEVHIST.UTL_
      1407**DCL      1407--REDEF
CLOSE_DEVHIST.V
      1411**DCL      1406--DCLINIT
CLOSE_DEVHIST.V.EXPIRE#
      1421**DCL      1421--REDEF
CLOSE_DEVHIST.V.TYPE#
      1419**DCL      1419--REDEF
CLOSE_DEVHIST.V.XTNSIZE#
      1416**DCL      1416--REDEF    1418--REDEF
PL6.E3A0      #001=THD$DEVHIST File=THD$DEVHIST.:E05TSI                          WED 07/30/97 06:06 Page:26
CURUTS
      1050**DCL      1444--DCLINIT  1563>>ASSIGN
CUR_UTS
      1440**DCL      1562<>CALL
CUR_UTS.V
      1444**DCL      1440--DCLINIT
DEVHIST
      1363**DCL      1261--DCLINIT
DEVHIST_ACCT
      1032**DCL      1265--DCLINIT
ERR
      1570**LABEL    1531--CALLALT  1542--CALLALT  1554--CALLALT  1559--CALLALT  1566--CALLALT  1567--CALLALT
HEAD_KEY
      1052**DCL      1539--ASSIGN
I
      1048**DCL      1544<<DOINDEX  1545>>ASSIGN   1545>>ASSIGN   1546>>ASSIGN   1547>>ASSIGN   1548>>ASSIGN
      1548>>ASSIGN   1549>>ASSIGN
M$CLOSE
        19**DCL-ENT  1567--CALL
M$OPEN
        19**DCL-ENT  1531--CALL
M$TIME
        86**DCL-ENT  1562--CALL
M$WRITE
        20**DCL-ENT  1542--CALL     1554--CALL     1559--CALL     1566--CALL
MAINT_KEY
      1053**DCL      1556--ASSIGN
NO_CONFIG
      1569**LABEL    1530--CALLALT
NUMDEVS
      1049**DCL      1533<<ASSIGN   1541>>ASSIGN   1544>>DOINDEX  1553>>ASSIGN   1558>>ASSIGN
OPEN_DEVHIST
      1260**DCL      1531<>CALL
OPEN_DEVHIST.ACSVEH_
      1262**DCL      1263--REDEF
OPEN_DEVHIST.ALTKEYS_
PL6.E3A0      #001=THD$DEVHIST File=THD$DEVHIST.:E05TSI                          WED 07/30/97 06:06 Page:27
      1268**DCL      1269--REDEF    1269--REDEF
OPEN_DEVHIST.HDR_
      1267**DCL      1268--REDEF
OPEN_DEVHIST.TAB_
      1266**DCL      1267--REDEF
OPEN_DEVHIST.UHL_
      1260**DCL      1261--REDEF    1261--REDEF
OPEN_DEVHIST.V
      1269**DCL      1260--DCLINIT
OPEN_DEVHIST.V.FSN#
      1300**DCL      1300--REDEF    1300--REDEF
OPEN_DEVHIST.WSN_
      1266**DCL      1266--REDEF
TD$HEAD
      1131**DCL      1541--ASSIGN
TH$HEAD
      1095**DCL      1532>>ASSIGN
THG$GETREC
      1041**DCL-ENT  1530--CALL
THM$ERRMSG
      1042**DCL-ENT  1570--CALL
THRESH_KEY
      1054**DCL      1551--ASSIGN
TH_CONSTRAINTS.E_BY_B
       970**DCL       970--REDEF
TH_CONSTRAINTS.M_BY_B
       969**DCL       969--REDEF
TH_CONSTRAINTS.TYPES
       967**DCL       967--REDEF
TH_DEFAULT.E_BY_B
       978**DCL       978--REDEF
TH_DEFAULT.M_BY_B
       977**DCL       977--REDEF
TH_DEFAULT.TYPES
       975**DCL       975--REDEF
TH_HEAD
PL6.E3A0      #001=THD$DEVHIST File=THD$DEVHIST.:E05TSI                          WED 07/30/97 06:06 Page:28
      1059**DCL      1529--ASSIGN   1532<<ASSIGN   1540--ASSIGN
TH_HEAD.DEVNAME
      1092**DCL      1545>>ASSIGN   1548>>ASSIGN
TH_HEAD.NUMAPMPCS
      1069**DCL      1533>>ASSIGN
TH_HEAD.NUMAPS
      1089**DCL      1533>>ASSIGN
TH_HEAD.NUMCONSOLES
      1075**DCL      1533>>ASSIGN
TH_HEAD.NUMCPS
      1081**DCL      1533>>ASSIGN
TH_HEAD.NUMCRS
      1079**DCL      1533>>ASSIGN
TH_HEAD.NUMDISKMPCS
      1067**DCL      1533>>ASSIGN
TH_HEAD.NUMDPS
      1083**DCL      1533>>ASSIGN
TH_HEAD.NUMFEPS
      1073**DCL      1533>>ASSIGN
TH_HEAD.NUMIOMS
      1061**DCL      1533>>ASSIGN
TH_HEAD.NUMLPS
      1077**DCL      1533>>ASSIGN
TH_HEAD.NUMMTS
      1085**DCL      1533>>ASSIGN
TH_HEAD.NUMODS
      1091**DCL      1533>>ASSIGN
TH_HEAD.NUMOPCS
      1071**DCL      1533>>ASSIGN
TH_HEAD.NUMTAPEMPCS
      1065**DCL      1533>>ASSIGN
TH_HEAD.NUMUNITMPCS
      1063**DCL      1533>>ASSIGN
TH_HEAD.NUMXXS
      1087**DCL      1533>>ASSIGN
TH_MAINT
PL6.E3A0      #001=THD$DEVHIST File=THD$DEVHIST.:E05TSI                          WED 07/30/97 06:06 Page:29
      1167**DCL      1557--ASSIGN   1558--ASSIGN
TH_MAINT.DEVNAME
      1168**DCL      1548<<ASSIGN
TH_MAINT.UTS
      1169**DCL      1549<<ASSIGN
TH_RECORD
       995**DCL      1529<<ASSIGN
TH_RECORD.PTR$
       995**DCL      1532>>ASSIGN
TH_SAVE.E_BY_B
       986**DCL       986--REDEF
TH_SAVE.M_BY_B
       984**DCL       984--REDEF
TH_SAVE.TYPES
       982**DCL       983--REDEF
TH_THRESH
      1172**DCL      1552--ASSIGN   1553--ASSIGN
TH_THRESH.ALERT
      1175**DCL      1547<<ASSIGN
TH_THRESH.ATTEN
      1174**DCL      1546<<ASSIGN
TH_THRESH.DEVNAME
      1173**DCL      1545<<ASSIGN
TH_UTS
      1178**DCL      1565--ASSIGN
TH_UTS.ERRLOG_UTS
      1180**DCL      1561<<ASSIGN
TH_UTS.OLDEST_UTS
      1179**DCL      1563<<ASSIGN
TH_XSA_BUF_VECTOR
      1002**DCL      1002--REDEF
UTS_KEY
      1055**DCL      1564--ASSIGN
VEHLIST
      1490**DCL      1263--DCLINIT
VEHLIST.Q
PL6.E3A0      #001=THD$DEVHIST File=THD$DEVHIST.:E05TSI                          WED 07/30/97 06:06 Page:30
      1491**DCL      1490--DCLINIT
WRITE_DEVHIST
      1322**DCL      1542<>CALL     1554<>CALL     1559<>CALL     1566<>CALL
WRITE_DEVHIST.BUF_
      1322**DCL      1540<<ASSIGN   1552<<ASSIGN   1557<<ASSIGN   1565<<ASSIGN
WRITE_DEVHIST.BUF_.BOUND
      1322**DCL      1541<<ASSIGN   1553<<ASSIGN   1558<<ASSIGN
WRITE_DEVHIST.KEY_
      1322**DCL      1539<<ASSIGN   1551<<ASSIGN   1556<<ASSIGN   1564<<ASSIGN
WRITE_DEVHIST.STATION_
      1324**DCL      1324--REDEF
WRITE_DEVHIST.V
      1325**DCL      1322--DCLINIT
WRITE_DEVHIST.V.DVBYTE.VFC#
      1331**DCL      1331--REDEF
ZERO
      1051**DCL      1530<>CALL
