VERSION E05

PL6.E3A0      #001=THE$ELAN File=THE$ELAN.:E05TSI                                WED 07/30/97 06:07 Page:1
        1        1        /*M* THE$ELAN - ERROR LISTER AND ANALYZER FOR CP-6 */
        2        2        /*T***********************************************************/
        3        3        /*T*                                                         */
        4        4        /*T* Copyright (c) Bull HN Information Systems Inc., 1997    */
        5        5        /*T*                                                         */
        6        6        /*T***********************************************************/
        7        7        THE$ELAN: PROC MAIN;
        8        8        /**/
        9        9        /* INCLUDE FILES */
       10       10        %INCLUDE CP_6;
       11       91        %INCLUDE B$JIT;
       12      381        %INCLUDE B_SEGIDS_C;
       13      920        %INCLUDE TH_SUBS_C;
       14     1302        %INCLUDE TH_DATA_R;
       15     1380        %INCLUDE TH_PERR_C;
       16     1421        %INCLUDE XU_MACRO_C;
       17     4527        /**/
       18     4528        /* ENTRY DEFS */
       19     4529    1   DCL THE$BRKMSG ENTRY;
       20     4530    1   DCL THE$BREAK ENTRY;
       21     4531    1   DCL THE$REPORT ENTRY ALTRET;
       22     4532    1   DCL THE$PROCESS ENTRY ALTRET;
       23     4533    1   DCL THM$ERRMSG ENTRY(1);
       24     4534    1   DCL XUR$INIT ENTRY(3) ALTRET;
       25     4535        /**/
       26     4536        /* SYMREFS */
       27     4537    1   DCL B$JIT$ PTR SYMREF;
       28     4538        /**/
       29     4539    1   DCL RE_OPT SBIN;
       30     4540        /**/
       31     4541        %FPT_MONINFO (MONPTRS=VLR_MONPTRS,
       32     4542                      STCLASS=CONSTANT);
       33     4557        %VLR_MONPTRS;
       34     4572        %FPT_SAD (FPTN=SEE_TIGR,
       35     4573                  STCLASS=CONSTANT,
       36     4574                  USERSID=%SPCL1SID,
       37     4575                  MONSID=%TIGRSID);
PL6.E3A0      #001=THE$ELAN File=THE$ELAN.:E05TSI                                WED 07/30/97 06:07 Page:2
       38     4590        /**/
       39     4591    1   DCL PTR$(0:0) PTR BASED;
       40     4592    1   DCL N$DCT$$ PTR STATIC INIT(ADDR(NIL));
       41     4593    1   DCL 1 N$DCT$PTR REDEF N$DCT$$,
       42     4594    1         2 OFFSET UBIN(18) UNAL,
       43     4595    1         2 * BIT(6) UNAL,
       44     4596    1         2 SEGID BIT(12) UNAL;
       45     4597    1   DCL TEMP$ PTR STATIC INIT(ADDR(NIL));
       46     4598    1   DCL 1 TEMPPTR REDEF TEMP$,
       47     4599    1         2 OFFSET UBIN(18) UNAL,
       48     4600    1         2 * BIT(6) UNAL,
       49     4601    1         2 SEGID BIT(12) UNAL;
       50     4602    1   DCL P_PCB$ PTR STATIC SYMDEF INIT(ADDR(P_PCB));
       51     4603        /**/
       52     4604        /* MACRO INVOCATIONS */
       53     4605        %P_PCB;
       54     4804        %XUR_INIT (ABORT=THE$BREAK,BRKMSG=THE$BRKMSG,PCB=P_PCB);
       55     4903        %EJECT;
PL6.E3A0      #001=THE$ELAN File=THE$ELAN.:E05TSI                                WED 07/30/97 06:07 Page:3
       56     4904    1        TH_REBUILD = '0'B;          /* RESET FLAG TO REBUILD :DEVHIST */
       57     4905    1        TH_DEVHIST_MODE = 0;
       58     4906    1        CALL XUR$INIT(XUR_INIT,P_PCB$);
       59     4907    1        CALL M$SAD(SEE_TIGR) ALTRET(ABORT_ELAN);
       60     4908    1        CALL M$MONINFO(FPT_MONINFO) ALTRET(ABORT_ELAN);
       61     4909    1        N$DCT$$ = VLR_MONPTRS.N$DCT$$;
       62     4910    1        N$DCT$PTR.SEGID = %SPCL1SID;
       63     4911    1        TH_MAXDCTX = 1;
       64     4912    1        TEMP$ = N$DCT$$->PTR$(TH_MAXDCTX);
       65     4913    2        DO WHILE(TEMPPTR.SEGID = %TIGRSID);
       66     4914    2           TH_DCT$(TH_MAXDCTX) = N$DCT$$->PTR$(TH_MAXDCTX);
       67     4915    2           TH_MAXDCTX = TH_MAXDCTX + 1;
       68     4916    2           TEMP$ = N$DCT$$->PTR$(TH_MAXDCTX);
       69     4917    2           END;  /* DO WHILE */
       70     4918    1        TH_MAXDCTX = TH_MAXDCTX - 1;
       71     4919    1        IF (B$JIT.CCARS > B$JIT.CCDISP)   /* check if REBUILD option was given */
       72     4920    2        THEN DO;
       73     4921    2             CALL INDEX(RE_OPT,'REBUILD',B$JIT.CCBUF);  /* locate option*/
       74     4922    2             IF RE_OPT = B$JIT.CCARS
       75     4923    3             THEN DO;
       76     4924    3                 CALL THM$ERRMSG(%E$TH_BAD_OPTION);
       77     4925                      /*E*  ERROR: THE-E$TH_BAD_OPTION-0
       78     4926                            MESSAGE: Bad CALLing option.
       79     4927                            DESCRIPTION: Input option for ELAN to rebuild
       80     4928                                         the :DEVHIST file is REBUILD.   */
       81     4929    3                 CALL M$EXIT;
       82     4930    3             END;  /* if option is bad */
       83     4931    3             ELSE DO;  /* option is present */
       84     4932    3                 TH_REBUILD = '1'B;
       85     4933    3                 IF (B$JIT.MODE = %M_GHOST#
       86     4934    3                     AND B$JIT.ACCN = ':SYS'
       87     4935    3                     AND B$JIT.UNAME = 'ELAN')
       88     4936    3                     THEN TH_DEVHIST_MODE = %MIDNITE_GHOST;
       89     4937    3                     ELSE TH_DEVHIST_MODE = %REBUILD;
       90     4938    3                 CALL THE$PROCESS ALTRET(ABORT_ELAN); /* rebuild :DEVHIST*/
       91     4939    3                 CALL M$EXIT;
       92     4940    3             END;  /* option present */
PL6.E3A0      #001=THE$ELAN File=THE$ELAN.:E05TSI                                WED 07/30/97 06:07 Page:4
       93     4941    2        END; /* if option given */
       94     4942        /*
       95     4943             Check to see if we're being started as the result of a tape
       96     4944             boot; we're a GHOST running as :SYS,ELAN and all our CCBUF
       97     4945             says is ELAN
       98     4946
       99     4947             JLJ fix 07/09/84                                             */
      100     4948    1        IF TH_PHONY_GHOST
      101     4949    1        THEN GOTO DO_GHOST1;
      102     4950    1        IF (B$JIT.MODE = %M_GHOST#
      103     4951    1             AND
      104     4952    1             B$JIT.ACCN = ':SYS'
      105     4953    1             AND
      106     4954    1             B$JIT.UNAME = 'ELAN'
      107     4955    1             AND
      108     4956    1             B$JIT.CCBUF = 'ELAN')
      109     4957    2           THEN DO;
      110     4958    2   DO_GHOST1:;
      111     4959    2                TH_DEVHIST_MODE = %TB_GHOST;
      112     4960    2                TH_REBUILD = '1'B;     /* SET FLAG TO REBUILD :DEVHIST */
      113     4961    2                CALL THE$PROCESS ALTRET(ABORT_ELAN);
      114     4962    2                CALL M$EXIT;
      115     4963    2           END; /* if ghost job */
      116     4964    2           ELSE DO;
      117     4965    2             CALL THE$PROCESS ALTRET(ABORT_ELAN);  /* REBUILD :DEVHIST, IF NECESSARY */
      118     4966    2             CALL THE$REPORT ALTRET(ABORT_ELAN);
      119     4967    2           END;
      120     4968    1        CALL M$EXIT;
      121     4969    1   ABORT_ELAN:
      122     4970    1        CALL THM$ERRMSG;
      123     4971    1        CALL M$ERR;
      124     4972    1   END THE$ELAN;
      125     4973        %EOD;

PL6.E3A0      #001=THE$ELAN File=THE$ELAN.:E05TSI                                WED 07/30/97 06:07 Page:5
--  Include file information  --

   XU_MACRO_C.:E05TOU  is referenced.
   TH_PERR_C.:E05TOU  is referenced.
   TH_DATA_R.:E05TOU  cannot be made into a system file and is referenced.
   B_STRINGS_C.:E05TOU  is referenced.
   TH_SUBS_C.:E05TOU  is referenced.
   B_SEGIDS_C.:E05TOU  is referenced.
   B$JIT.:E05TOU  cannot be made into a system file and is referenced.
   CP_6.:E05TOU  cannot be made into a system file and is referenced.
   B$JIT_C.:E05TOU  was found in the system file and is referenced.
   CP_6_C.:E05TOU  was found in the system file and is referenced.
      No diagnostics issued in procedure THE$ELAN.

   Procedure THE$ELAN requires 137 words for executable code.
   Procedure THE$ELAN requires 4 words of local(AUTO) storage.

PL6.E3A0      #001=THE$ELAN File=THE$ELAN.:E05TSI                                WED 07/30/97 06:07 Page:6

 Object Unit name= THE$ELAN                                   File name= THE$ELAN.:E05TOU
 UTS= JUL 30 '97 06:07:26.04 WED                              Compiler= PL-6/E31         Sev=      00
 SharedLib= :SHARED_SYSTEM                                    Alt SharedLib=


    ****  Control sections  ****

 Sect   Type Bound  Init  Size OctSiz  Section name(segment info)
    0   DCB   even  none     0      0  M$UC
    1  RoData even  UTS     20     24  THE$ELAN
    2   Data  even  none    72    110  THE$ELAN
    3   Proc  even  none   137    211  THE$ELAN
    4  RoData even  none     4      4  THE$ELAN

    ****  Entry defs  ****

                              Check   Calling
                             calling  sequence
  Sect OctLoc Primary Altret sequence   type   Parms  Name
     3      0   yes            yes      Main       0  THE$ELAN

  ****  Data defs  ****

 Sect OctLoc  Name                           Sect OctLoc  Name
    2     20  P_PCB$                             2     21  P_PCB
PL6.E3A0      #001=THE$ELAN File=THE$ELAN.:E05TSI                                WED 07/30/97 06:07 Page:7

  ****  Entry refs  ****

         Check        Calling
        calling       sequence
Altret sequence SRef   type   Args  Name
         yes           Std       0 THE$BREAK
         yes           Std       0 THE$BRKMSG
 yes     yes           Std       2 XTX$ADAPT
         yes           Std       1 THM$ERRMSG
 yes     yes           Std       0 THE$PROCESS
 yes     yes           Std       3 XUR$INIT
 yes     yes           Std       0 THE$REPORT
                       nStd      0 X66_MAUTO
                       Std       0 B_CONSPOOL_D
                       nStd      0 X66_INDEX
                       nStd      0 X66_MARET

  ****  Data refs  ****

  Flags:  r = read only, s = secondary
Flgs Name                             Flgs Name                             Flgs Name
     M$UC                                  TH_PHONY_GHOST                        TH_REBUILD
     TH_DEVHIST_MODE                       TH_MAXDCTX                            TH_DCT$
     TH_XSA_BUF_VECTOR                     B$JIT$                                B_VECTNIL

  ****  Segment refs  ****

  Flags:  r = read only, s = secondary
Flgs Name                             Flgs Name                             Flgs Name
     NULLSID                               ISSID
PL6.E3A0      #001=THE$ELAN File=THE$ELAN.:E05TSI                                WED 07/30/97 06:07 Page:8


        1        1        /*M* THE$ELAN - ERROR LISTER AND ANALYZER FOR CP-6 */
        2        2        /*T***********************************************************/
        3        3        /*T*                                                         */
        4        4        /*T* Copyright (c) Bull HN Information Systems Inc., 1997    */
        5        5        /*T*                                                         */
        6        6        /*T***********************************************************/
        7        7        THE$ELAN: PROC MAIN;

      7  3 000000   000000 700200 xent  THE$ELAN     TSX0  ! X66_MAUTO
         3 000001   000004 000000                    ZERO    4,0

        8        8        /**/
        9        9        /* INCLUDE FILES */
       10       10        %INCLUDE CP_6;
       11       91        %INCLUDE B$JIT;
       12      381        %INCLUDE B_SEGIDS_C;
       13      920        %INCLUDE TH_SUBS_C;
       14     1302        %INCLUDE TH_DATA_R;
       15     1380        %INCLUDE TH_PERR_C;
       16     1421        %INCLUDE XU_MACRO_C;
       17     4527        /**/
       18     4528        /* ENTRY DEFS */
       19     4529    1   DCL THE$BRKMSG ENTRY;
       20     4530    1   DCL THE$BREAK ENTRY;
       21     4531    1   DCL THE$REPORT ENTRY ALTRET;
       22     4532    1   DCL THE$PROCESS ENTRY ALTRET;
       23     4533    1   DCL THM$ERRMSG ENTRY(1);
       24     4534    1   DCL XUR$INIT ENTRY(3) ALTRET;
       25     4535        /**/
       26     4536        /* SYMREFS */
       27     4537    1   DCL B$JIT$ PTR SYMREF;
       28     4538        /**/
       29     4539    1   DCL RE_OPT SBIN;
       30     4540        /**/
       31     4541        %FPT_MONINFO (MONPTRS=VLR_MONPTRS,
       32     4542                      STCLASS=CONSTANT);
PL6.E3A0      #001=THE$ELAN File=THE$ELAN.:E05TSI                                WED 07/30/97 06:07 Page:9
       33     4557        %VLR_MONPTRS;
       34     4572        %FPT_SAD (FPTN=SEE_TIGR,
       35     4573                  STCLASS=CONSTANT,
       36     4574                  USERSID=%SPCL1SID,
       37     4575                  MONSID=%TIGRSID);
       38     4590        /**/
       39     4591    1   DCL PTR$(0:0) PTR BASED;
       40     4592    1   DCL N$DCT$$ PTR STATIC INIT(ADDR(NIL));
       41     4593    1   DCL 1 N$DCT$PTR REDEF N$DCT$$,
       42     4594    1         2 OFFSET UBIN(18) UNAL,
       43     4595    1         2 * BIT(6) UNAL,
       44     4596    1         2 SEGID BIT(12) UNAL;
       45     4597    1   DCL TEMP$ PTR STATIC INIT(ADDR(NIL));
       46     4598    1   DCL 1 TEMPPTR REDEF TEMP$,
       47     4599    1         2 OFFSET UBIN(18) UNAL,
       48     4600    1         2 * BIT(6) UNAL,
       49     4601    1         2 SEGID BIT(12) UNAL;
       50     4602    1   DCL P_PCB$ PTR STATIC SYMDEF INIT(ADDR(P_PCB));
       51     4603        /**/
       52     4604        /* MACRO INVOCATIONS */
       53     4605        %P_PCB;
       54     4804        %XUR_INIT (ABORT=THE$BREAK,BRKMSG=THE$BRKMSG,PCB=P_PCB);
       55     4903        %EJECT;
PL6.E3A0      #001=THE$ELAN File=THE$ELAN.:E05TSI                                WED 07/30/97 06:07 Page:10
       56     4904    1        TH_REBUILD = '0'B;          /* RESET FLAG TO REBUILD :DEVHIST */

   4904  3 000002   000000 450000 xsym               STZ     TH_REBUILD

       57     4905    1        TH_DEVHIST_MODE = 0;

   4905  3 000003   000000 450000 xsym               STZ     TH_DEVHIST_MODE

       58     4906    1        CALL XUR$INIT(XUR_INIT,P_PCB$);

   4906  3 000004   000000 630400 4                  EPPR0   0
         3 000005   000020 631400 xsym               EPPR1   B_VECTNIL+16
         3 000006   000000 701000 xent               TSX1    XUR$INIT
         3 000007   000000 011000                    NOP     0

       59     4907    1        CALL M$SAD(SEE_TIGR) ALTRET(ABORT_ELAN);

   4907  3 000010   000014 630400 1                  EPPR0   SEE_TIGR
         3 000011   430015 713400                    CLIMB   alt,+12301
         3 000012   400000 401760                    pmme    nvectors=1
         3 000013   000203 702000 3                  TSX2    ABORT_ELAN

       60     4908    1        CALL M$MONINFO(FPT_MONINFO) ALTRET(ABORT_ELAN);

   4908  3 000014   000000 630400 1                  EPPR0   FPT_MONINFO
         3 000015   420023 713400                    CLIMB   alt,+8211
         3 000016   402400 401760                    pmme    nvectors=6
         3 000017   000203 702000 3                  TSX2    ABORT_ELAN

       61     4909    1        N$DCT$$ = VLR_MONPTRS.N$DCT$$;

   4909  3 000020   000000 236000 2                  LDQ     VLR_MONPTRS
         3 000021   000016 756000 2                  STQ     N$DCT$$

       62     4910    1        N$DCT$PTR.SEGID = %SPCL1SID;

   4910  3 000022   006021 236007                    LDQ     3089,DL
PL6.E3A0      #001=THE$ELAN File=THE$ELAN.:E05TSI                                WED 07/30/97 06:07 Page:11
         3 000023   000016 752003 2                  STCQ    N$DCT$$,'03'O

       63     4911    1        TH_MAXDCTX = 1;

   4911  3 000024   000001 235007                    LDA     1,DL
         3 000025   000000 755000 xsym               STA     TH_MAXDCTX

       64     4912    1        TEMP$ = N$DCT$$->PTR$(TH_MAXDCTX);

   4912  3 000026   000016 470400 2                  LDP0    N$DCT$$
         3 000027   000000 236105                    LDQ     0,AL,PR0
         3 000030   000017 756000 2                  STQ     TEMP$

       65     4913    2        DO WHILE(TEMPPTR.SEGID = %TIGRSID);

   4913  3 000031   000017 236000 2                  LDQ     TEMP$
         3 000032   007777 376007                    ANQ     4095,DL
         3 000033   006123 116007                    CMPQ    3155,DL
         3 000034   000052 601000 3                  TNZ     s:4918

       66     4914    2           TH_DCT$(TH_MAXDCTX) = N$DCT$$->PTR$(TH_MAXDCTX);

   4914  3 000035   000016 470400 2                  LDP0    N$DCT$$
         3 000036   000000 720000 xsym               LXL0    TH_MAXDCTX
         3 000037   000000 236110                    LDQ     0,X0,PR0
         3 000040   000000 756010 xsym               STQ     TH_DCT$,X0

       67     4915    2           TH_MAXDCTX = TH_MAXDCTX + 1;

   4915  3 000041   000000 235000 xsym               LDA     TH_MAXDCTX
         3 000042   000001 035007                    ADLA    1,DL
         3 000043   000000 755000 xsym               STA     TH_MAXDCTX

       68     4916    2           TEMP$ = N$DCT$$->PTR$(TH_MAXDCTX);

   4916  3 000044   000000 236105                    LDQ     0,AL,PR0
         3 000045   000017 756000 2                  STQ     TEMP$
PL6.E3A0      #001=THE$ELAN File=THE$ELAN.:E05TSI                                WED 07/30/97 06:07 Page:12

       69     4917    2           END;  /* DO WHILE */

   4917  3 000046   000017 236000 2                  LDQ     TEMP$
         3 000047   007777 376007                    ANQ     4095,DL
         3 000050   006123 116007                    CMPQ    3155,DL
         3 000051   000035 600000 3                  TZE     s:4914

       70     4918    1        TH_MAXDCTX = TH_MAXDCTX - 1;

   4918  3 000052   000000 235000 xsym               LDA     TH_MAXDCTX
         3 000053   000001 135007                    SBLA    1,DL
         3 000054   000000 755000 xsym               STA     TH_MAXDCTX

       71     4919    1        IF (B$JIT.CCARS > B$JIT.CCDISP)   /* check if REBUILD option was given */

   4919  3 000055   000000 471400 xsym               LDP1    B$JIT$
         3 000056   100032 720100                    LXL0    26,,PR1
         3 000057   100032 100100                    CMPX0   26,,PR1
         3 000060   000136 605000 3                  TPL     s:4948

       72     4920    2        THEN DO;

       73     4921    2             CALL INDEX(RE_OPT,'REBUILD',B$JIT.CCBUF);  /* locate option*/

   4921  3 000061   200003 631500                    EPPR1   RE_OPT,,AUTO
         3 000062   000020 633400 1                  EPPR3   SEE_TIGR+4
         3 000063   000007 223003                    LDX3    7,DU
         3 000064   000000 470400 xsym               LDP0    B$JIT$
         3 000065   000033 630500                    EPPR0   27,,PR0
         3 000066   000400 220003                    LDX0    256,DU
         3 000067   000000 236003                    LDQ     0,DU
         3 000070   000000 701000 xent               TSX1    X66_INDEX
         3 000071   000000 011000                    NOP     0

       74     4922    2             IF RE_OPT = B$JIT.CCARS

PL6.E3A0      #001=THE$ELAN File=THE$ELAN.:E05TSI                                WED 07/30/97 06:07 Page:13
   4922  3 000072   000000 470400 xsym               LDP0    B$JIT$
         3 000073   000032 236100                    LDQ     26,,PR0
         3 000074   000022 732000                    QRS     18
         3 000075   200003 116100                    CMPQ    RE_OPT,,AUTO
         3 000076   000106 601000 3                  TNZ     s:4932

       75     4923    3             THEN DO;

       76     4924    3                 CALL THM$ERRMSG(%E$TH_BAD_OPTION);

   4924  3 000077   000003 630400 4                  EPPR0   3
         3 000100   000017 631400 xsym               EPPR1   B_VECTNIL+15
         3 000101   000000 701000 xent               TSX1    THM$ERRMSG
         3 000102   000000 011000                    NOP     0

       77     4925                      /*E*  ERROR: THE-E$TH_BAD_OPTION-0
       78     4926                            MESSAGE: Bad CALLing option.
       79     4927                            DESCRIPTION: Input option for ELAN to rebuild
       80     4928                                         the :DEVHIST file is REBUILD.   */
       81     4929    3                 CALL M$EXIT;

   4929  3 000103   000001 713400                    CLIMB   exit
         3 000104   000000 401760                    pmme    nvectors=0

       82     4930    3             END;  /* if option is bad */

   4930  3 000105   000136 710000 3                  TRA     s:4948

       83     4931    3             ELSE DO;  /* option is present */

       84     4932    3                 TH_REBUILD = '1'B;

   4932  3 000106   400000 236003                    LDQ     -131072,DU
         3 000107   000000 756000 xsym               STQ     TH_REBUILD

       85     4933    3                 IF (B$JIT.MODE = %M_GHOST#

PL6.E3A0      #001=THE$ELAN File=THE$ELAN.:E05TSI                                WED 07/30/97 06:07 Page:14
   4933  3 000110   000000 236100                    LDQ     0,,PR0
         3 000111   740000 376003                    ANQ     -16384,DU
         3 000112   100000 116003                    CMPQ    32768,DU
         3 000113   000127 601000 3                  TNZ     s:4937
         3 000114   040000 106500                    CMPC    fill='040'O
         3 000115   000001 000010                    ADSC9   1,,PR0                   cn=0,n=8
         3 000116   000022 000004 1                  ADSC9   SEE_TIGR+6               cn=0,n=4
         3 000117   000127 601000 3                  TNZ     s:4937
         3 000120   040000 106500                    CMPC    fill='040'O
         3 000121   000003 000014                    ADSC9   3,,PR0                   cn=0,n=12
         3 000122   000023 000004 1                  ADSC9   SEE_TIGR+7               cn=0,n=4
         3 000123   000127 601000 3                  TNZ     s:4937

       86     4934    3                     AND B$JIT.ACCN = ':SYS'
       87     4935    3                     AND B$JIT.UNAME = 'ELAN')
       88     4936    3                     THEN TH_DEVHIST_MODE = %MIDNITE_GHOST;

   4936  3 000124   000003 235007                    LDA     3,DL
         3 000125   000000 755000 xsym               STA     TH_DEVHIST_MODE
         3 000126   000131 710000 3                  TRA     s:4938

       89     4937    3                     ELSE TH_DEVHIST_MODE = %REBUILD;

   4937  3 000127   000001 235007                    LDA     1,DL
         3 000130   000000 755000 xsym               STA     TH_DEVHIST_MODE

       90     4938    3                 CALL THE$PROCESS ALTRET(ABORT_ELAN); /* rebuild :DEVHIST*/

   4938  3 000131   000002 631400 xsym               EPPR1   B_VECTNIL+2
         3 000132   000000 701000 xent               TSX1    THE$PROCESS
         3 000133   000203 702000 3                  TSX2    ABORT_ELAN

       91     4939    3                 CALL M$EXIT;

   4939  3 000134   000001 713400                    CLIMB   exit
         3 000135   000000 401760                    pmme    nvectors=0

PL6.E3A0      #001=THE$ELAN File=THE$ELAN.:E05TSI                                WED 07/30/97 06:07 Page:15
       92     4940    3             END;  /* option present */

       93     4941    2        END; /* if option given */

       94     4942        /*
       95     4943             Check to see if we're being started as the result of a tape
       96     4944             boot; we're a GHOST running as :SYS,ELAN and all our CCBUF
       97     4945             says is ELAN
       98     4946
       99     4947             JLJ fix 07/09/84                                             */
      100     4948    1        IF TH_PHONY_GHOST

   4948  3 000136   000000 234000 xsym               SZN     TH_PHONY_GHOST
         3 000137   000161 604000 3                  TMI     DO_GHOST1

      101     4949    1        THEN GOTO DO_GHOST1;
      102     4950    1        IF (B$JIT.MODE = %M_GHOST#

   4950  3 000140   000000 470400 xsym               LDP0    B$JIT$
         3 000141   000000 236100                    LDQ     0,,PR0
         3 000142   740000 376003                    ANQ     -16384,DU
         3 000143   100000 116003                    CMPQ    32768,DU
         3 000144   000173 601000 3                  TNZ     s:4965
         3 000145   040000 106500                    CMPC    fill='040'O
         3 000146   000001 000010                    ADSC9   1,,PR0                   cn=0,n=8
         3 000147   000022 000004 1                  ADSC9   SEE_TIGR+6               cn=0,n=4
         3 000150   000173 601000 3                  TNZ     s:4965
         3 000151   040000 106500                    CMPC    fill='040'O
         3 000152   000003 000014                    ADSC9   3,,PR0                   cn=0,n=12
         3 000153   000023 000004 1                  ADSC9   SEE_TIGR+7               cn=0,n=4
         3 000154   000173 601000 3                  TNZ     s:4965
         3 000155   040000 106500                    CMPC    fill='040'O
         3 000156   000033 000400                    ADSC9   27,,PR0                  cn=0,n=256
         3 000157   000023 000004 1                  ADSC9   SEE_TIGR+7               cn=0,n=4
         3 000160   000173 601000 3                  TNZ     s:4965

      103     4951    1             AND
PL6.E3A0      #001=THE$ELAN File=THE$ELAN.:E05TSI                                WED 07/30/97 06:07 Page:16
      104     4952    1             B$JIT.ACCN = ':SYS'
      105     4953    1             AND
      106     4954    1             B$JIT.UNAME = 'ELAN'
      107     4955    1             AND
      108     4956    1             B$JIT.CCBUF = 'ELAN')
      109     4957    2           THEN DO;

   4954  3 000161                       DO_GHOST1    null
      110     4958    2   DO_GHOST1:;
      111     4959    2                TH_DEVHIST_MODE = %TB_GHOST;

   4959  3 000161   000002 235007                    LDA     2,DL
         3 000162   000000 755000 xsym               STA     TH_DEVHIST_MODE

      112     4960    2                TH_REBUILD = '1'B;     /* SET FLAG TO REBUILD :DEVHIST */

   4960  3 000163   400000 236003                    LDQ     -131072,DU
         3 000164   000000 756000 xsym               STQ     TH_REBUILD

      113     4961    2                CALL THE$PROCESS ALTRET(ABORT_ELAN);

   4961  3 000165   000002 631400 xsym               EPPR1   B_VECTNIL+2
         3 000166   000000 701000 xent               TSX1    THE$PROCESS
         3 000167   000203 702000 3                  TSX2    ABORT_ELAN

      114     4962    2                CALL M$EXIT;

   4962  3 000170   000001 713400                    CLIMB   exit
         3 000171   000000 401760                    pmme    nvectors=0

      115     4963    2           END; /* if ghost job */

   4963  3 000172   000201 710000 3                  TRA     s:4968

      116     4964    2           ELSE DO;

      117     4965    2             CALL THE$PROCESS ALTRET(ABORT_ELAN); /* REBUILD :DEVHIST, IF NECESSARY */
PL6.E3A0      #001=THE$ELAN File=THE$ELAN.:E05TSI                                WED 07/30/97 06:07 Page:17

   4965  3 000173   000002 631400 xsym               EPPR1   B_VECTNIL+2
         3 000174   000000 701000 xent               TSX1    THE$PROCESS
         3 000175   000203 702000 3                  TSX2    ABORT_ELAN

      118     4966    2             CALL THE$REPORT ALTRET(ABORT_ELAN);

   4966  3 000176   000002 631400 xsym               EPPR1   B_VECTNIL+2
         3 000177   000000 701000 xent               TSX1    THE$REPORT
         3 000200   000203 702000 3                  TSX2    ABORT_ELAN

      119     4967    2           END;

      120     4968    1        CALL M$EXIT;

   4968  3 000201   000001 713400                    CLIMB   exit
         3 000202   000000 401760                    pmme    nvectors=0

      121     4969    1   ABORT_ELAN:
      122     4970    1        CALL THM$ERRMSG;

   4970  3 000203   000002 631400 xsym  ABORT_ELAN   EPPR1   B_VECTNIL+2
         3 000204   000000 701000 xent               TSX1    THM$ERRMSG
         3 000205   000000 011000                    NOP     0

      123     4971    1        CALL M$ERR;

   4971  3 000206   000002 713400                    CLIMB   err
         3 000207   000000 401760                    pmme    nvectors=0

      124     4972    1   END THE$ELAN;

   4972  3 000210   000000 702200 xent               TSX2  ! X66_MARET
      125     4973        %EOD;

PL6.E3A0      #001=THE$ELAN File=THE$ELAN.:E05TSI                                WED 07/30/97 06:07 Page:18
--  Include file information  --

   XU_MACRO_C.:E05TOU  is referenced.
   TH_PERR_C.:E05TOU  is referenced.
   TH_DATA_R.:E05TOU  cannot be made into a system file and is referenced.
   B_STRINGS_C.:E05TOU  is referenced.
   TH_SUBS_C.:E05TOU  is referenced.
   B_SEGIDS_C.:E05TOU  is referenced.
   B$JIT.:E05TOU  cannot be made into a system file and is referenced.
   CP_6.:E05TOU  cannot be made into a system file and is referenced.
   B$JIT_C.:E05TOU  was found in the system file and is referenced.
   CP_6_C.:E05TOU  was found in the system file and is referenced.
      No diagnostics issued in procedure THE$ELAN.
PL6.E3A0      #001=THE$ELAN File=THE$ELAN.:E05TSI                                WED 07/30/97 06:07 Page:19

 **** Variables and constants ****

  ****  Section 001 RoData THE$ELAN

  ****  Scalars and arrays  ****
OctLoc.c.b A Datatyp(siz) R M Lvl/name                 OctLoc.c.b A Datatyp(siz) R M Lvl/name

     0-0-0/d STRC(432)   r     1 FPT_MONINFO               14-0-0/d STRC(144)   r     1 SEE_TIGR

  ****  Section 002  Data  THE$ELAN

  ****  Scalars and arrays  ****
OctLoc.c.b A Datatyp(siz) R M Lvl/name                 OctLoc.c.b A Datatyp(siz) R M Lvl/name

    16-0-0/w PTR         r     1 N$DCT$$                   16-0-0/w STRC        r     1 N$DCT$PTR
    21-0-0/w STRC(504)   r     1 P_PCB                     20-0-0/w PTR         r     1 P_PCB$
    17-0-0/w PTR         r     1 TEMP$                     17-0-0/w STRC        r     1 TEMPPTR
     0-0-0/d STRC(468)   r     1 VLR_MONPTRS               40-0-0/d STRC(1404)  r     1 XUR_INIT

  ****  Auto variables  ****

  ****  Scalars and arrays  ****
OctLoc.c.b A Datatyp(siz) R M Lvl/name                 OctLoc.c.b A Datatyp(siz) R M Lvl/name

     3-0-0/w SBIN        r     1 RE_OPT

  ****  SYMREF variables  ****

  ****  Scalars and arrays  ****
OctLoc.c.b A Datatyp(siz) R M Lvl/name                 OctLoc.c.b A Datatyp(siz) R M Lvl/name

     0-0-0/w PTR         r     1 B$JIT$                     0-0-0/w PTR         r     1 TH_DCT$(0:511)
     0-0-0/w UBIN        r     1 TH_DEVHIST_MODE            0-0-0/w UBIN        r     1 TH_MAXDCTX
     0-0-0/b BIT         r     1 TH_PHONY_GHOST             0-0-0/b BIT         r     1 TH_REBUILD

  ****  BASED and DCB variables  ****

PL6.E3A0      #001=THE$ELAN File=THE$ELAN.:E05TSI                                WED 07/30/97 06:07 Page:20
  ****  Scalars and arrays  ****
OctLoc.c.b A Datatyp(siz) R M Lvl/name                 OctLoc.c.b A Datatyp(siz) R M Lvl/name

     0-0-0/d STRC(8856)  r     1 B$JIT                      0-0-0/w PTR         r     1 PTR$(0:0)


   Procedure THE$ELAN requires 137 words for executable code.
   Procedure THE$ELAN requires 4 words of local(AUTO) storage.
PL6.E3A0      #001=THE$ELAN File=THE$ELAN.:E05TSI                                WED 07/30/97 06:07 Page:21
          *** CROSS REFERENCE LISTING ***
**     DENOTES     IDENTIFIER DEFINITION
<<                 IDENTIFIER'S VALUE SET
>>                 IDENTIFIER'S VALUE USED
<>                 IDENTIFIER SET AND/OR USED
--                 IDENTIFIER REFERENCED
PL6.E3A0      #001=THE$ELAN File=THE$ELAN.:E05TSI                                WED 07/30/97 06:07 Page:22
          MINI XREF LISTING

ABORT_ELAN
      4970**LABEL    4907--CALLALT  4908--CALLALT  4938--CALLALT  4961--CALLALT  4965--CALLALT  4966--CALLALT
B$JIT.ACCN
       105**DCL      4933>>IF       4950>>IF
B$JIT.CCARS
       193**DCL      4919>>IF       4922>>IF
B$JIT.CCBUF
       193**DCL      4921>>CALLBLT  4950>>IF
B$JIT.CCDISP
       193**DCL      4919>>IF
B$JIT.CPFLAGS1.SLEAZE
       199**DCL       199--REDEF
B$JIT.ERR.MID
       106**DCL       106--REDEF
B$JIT.JRESPEAK
       267**DCL       268--REDEF
B$JIT.MODE
       100**DCL      4933>>IF       4950>>IF
B$JIT.ORIGINATOR_PORT.FROM_CR
       376**DCL       376--REDEF     377--REDEF
B$JIT.PNR
       280**DCL       280--REDEF
B$JIT.TSLINE
       374**DCL       375--REDEF
B$JIT.UNAME
       105**DCL      4933>>IF       4950>>IF
B$JIT$
      4537**DCL       100--IMP-PTR  4919>>IF       4919>>IF       4921>>CALLBLT  4922>>IF       4933>>IF
      4933>>IF       4933>>IF       4950>>IF       4950>>IF       4950>>IF       4950>>IF
DO_GHOST1
      4954**LABEL    4949--GOTO
FPT_MONINFO
PL6.E3A0      #001=THE$ELAN File=THE$ELAN.:E05TSI                                WED 07/30/97 06:07 Page:23
      4553**DCL      4908<>CALL
M$ERR
        31**DCL-ENT  4971--CALL
M$EXIT
        31**DCL-ENT  4929--CALL     4939--CALL     4962--CALL     4968--CALL
M$MONINFO
        87**DCL-ENT  4908--CALL
M$SAD
        58**DCL-ENT  4907--CALL
N$DCT$$
      4592**DCL      4593--REDEF    4909<<ASSIGN   4912>>ASSIGN   4914>>ASSIGN   4916>>ASSIGN
N$DCT$PTR.SEGID
      4596**DCL      4910<<ASSIGN
PTR$
      4591**DCL      4912>>ASSIGN   4914>>ASSIGN   4916>>ASSIGN
P_PCB
      4623**DCL      4602--DCLINIT  4839--DCLINIT
P_PCB$
      4602**DCL      4906<>CALL
RE_OPT
      4539**DCL      4921<<CALLBLT  4922>>IF
SEE_TIGR
      4586**DCL      4907<>CALL
SEE_TIGR.V
      4586**DCL      4586--DCLINIT
TEMP$
      4597**DCL      4598--REDEF    4912<<ASSIGN   4916<<ASSIGN
TEMPPTR.SEGID
      4601**DCL      4913>>DOWHILE
THE$BREAK
      4530**DCL-ENT  4836--DCLINIT
THE$BRKMSG
      4529**DCL-ENT  4838--DCLINIT
THE$PROCESS
      4532**DCL-ENT  4938--CALL     4961--CALL     4965--CALL
THE$REPORT
PL6.E3A0      #001=THE$ELAN File=THE$ELAN.:E05TSI                                WED 07/30/97 06:07 Page:24
      4531**DCL-ENT  4966--CALL
THM$ERRMSG
      4533**DCL-ENT  4924--CALL     4970--CALL
TH_CONSTRAINTS.E_BY_B
      1313**DCL      1313--REDEF
TH_CONSTRAINTS.M_BY_B
      1312**DCL      1312--REDEF
TH_CONSTRAINTS.TYPES
      1310**DCL      1310--REDEF
TH_DCT$
      1345**DCL      4914<<ASSIGN
TH_DEFAULT.E_BY_B
      1321**DCL      1321--REDEF
TH_DEFAULT.M_BY_B
      1320**DCL      1320--REDEF
TH_DEFAULT.TYPES
      1318**DCL      1318--REDEF
TH_DEVHIST_MODE
      1335**DCL      4905<<ASSIGN   4936<<ASSIGN   4937<<ASSIGN   4959<<ASSIGN
TH_MAXDCTX
      1344**DCL      4911<<ASSIGN   4912>>ASSIGN   4914>>ASSIGN   4914>>ASSIGN   4915<<ASSIGN   4915>>ASSIGN
      4916>>ASSIGN   4918<<ASSIGN   4918>>ASSIGN
TH_PHONY_GHOST
      1334**DCL      4948>>IF
TH_REBUILD
      1335**DCL      4904<<ASSIGN   4932<<ASSIGN   4960<<ASSIGN
TH_SAVE.E_BY_B
      1329**DCL      1329--REDEF
TH_SAVE.M_BY_B
      1327**DCL      1327--REDEF
TH_SAVE.TYPES
      1325**DCL      1326--REDEF
TH_XSA_BUF_VECTOR
      1345**DCL      1345--REDEF
VLR_MONPTRS
      4568**DCL      4554--DCLINIT
PL6.E3A0      #001=THE$ELAN File=THE$ELAN.:E05TSI                                WED 07/30/97 06:07 Page:25
VLR_MONPTRS.N$DCT$$
      4568**DCL      4909>>ASSIGN
XTX$ADAPT
      4821**DCL-ENT  4900--DCLINIT
XUR$INIT
      4534**DCL-ENT  4906--CALL
XUR_INIT
      4826**DCL      4906<>CALL
XUR_INIT.WORKR_
      4840**DCL      4841--REDEF

PL6.E3A0      #002=THE$REPORT File=THE$ELAN.:E05TSI                              WED 07/30/97 06:07 Page:26
      126        1        /*M* REPORT GENERATOR EXEC FOR ELAN */
      127        2        /*T***********************************************************/
      128        3        /*T*                                                         */
      129        4        /*T* Copyright (c) Bull HN Information Systems Inc., 1997    */
      130        5        /*T*                                                         */
      131        6        /*T***********************************************************/
      132        7        THE$REPORT : PROC ALTRET;
      133        8        /**/
      134        9        /* INCLUDES FILES */
      135       10        %INCLUDE CP_6;
      136       91        %INCLUDE B$JIT;
      137      381        %INCLUDE XU_MACRO_C;
      138     3487        %INCLUDE F$DCB;
      139     3536        %INCLUDE B_ERRORS_C;
      140     4663        %INCLUDE CP_6_SUBS;
      141     5203        %INCLUDE TH_DATA_R;
      142     5281        %INCLUDE TH_SUBS_C;
      143     5663        %INCLUDE TH_PERR_C;
      144     5704        %INCLUDE XUD_UTS_M;
      145     5786        /**/
      146     5787        /* SYMREFS */
      147     5788    1   DCL B$JIT$ PTR SYMREF;
      148     5789        /**/
      149     5790        /* ENTRY DEFINITIONS */
      150     5791    1   DCL XUR$GETCMD ENTRY(6) ALTRET;
      151     5792    1   DCL XUR$ERRMSG ENTRY(7) ALTRET;
      152     5793    1   DCL XUR$ERRPTR ENTRY(2) ALTRET;
      153     5794    1   DCL XUR$ENABLE ENTRY;
      154     5795    1   DCL XUR$DISABLE ENTRY;
      155     5796    1   DCL THC$COMMANDS ENTRY(1);
      156     5797    1   DCL THG$GETREC ENTRY(4) ALTRET;
      157     5798    1   DCL THG$CLOSEXSA ENTRY ALTRET;
      158     5799    1   DCL THI$INIT ENTRY;
      159     5800    1   DCL XUR$BREAK ENTRY ASYNC;
      160     5801    1   DCL THW$WRITE ENTRY(11);
      161     5802    1   DCL THM$ERRMSG ENTRY(1);
      162     5803        /**/
PL6.E3A0      #002=THE$REPORT File=THE$ELAN.:E05TSI                              WED 07/30/97 06:07 Page:27
      163     5804        /* DCBS */
      164     5805    1   DCL M$SI DCB;
      165     5806    1   DCL M$LO DCB;
      166     5807    1   DCL M$DO DCB;
      167     5808    1   DCL M$ERRLOG DCB;
      168     5809        /**/
      169     5810        /* FPT DEFINITIONS */
      170     5811        %FPT_PRIV (FPTN=SET_PRIV,
      171     5812                   PRIV="%(%PR_SPCLMM#)",
      172     5813                   STCLASS=CONSTANT);
      173     5828        %FPT_PRIV (FPTN=TEST_PRIV,
      174     5829                   PRIV="%(%PR_SPCLMM#)",
      175     5830                   AUTH=YES,
      176     5831                   STCLASS=CONSTANT);
      177     5846        %FPT_PRIV (PPRIV=YES,
      178     5847                   STCLASS=CONSTANT,
      179     5848                   PRIV=%PPR_EL#);
      180     5863        %FPT_TIME (FPTN=LOCAL,
      181     5864                   STCLASS=CONSTANT,
      182     5865                   SOURCE=UTS,
      183     5866                   DEST=LOCAL,
      184     5867                   DATE=DBUF,
      185     5868                   TIME=TBUF);
      186     5887        %FPT_TIME (FPTN=CUR_DATE,
      187     5888                   STCLASS=CONSTANT,
      188     5889                   SOURCE=CLOCK,
      189     5890                   DEST=UTS,
      190     5891                   TSTAMP=CURDATE);
      191     5910        %FPT_TIME (FPTN=CUR_TIME,
      192     5911                   SOURCE=UTS,
      193     5912                   DEST=EXT,
      194     5913                   TSTAMP=CURDATE,
      195     5914                   TIME=TH_TIME,
      196     5915                   DATE=TH_DATE);
      197     5934        %FPT_TIME (FPTN=ANS_DATE,
      198     5935                   STCLASS=CONSTANT,
      199     5936                   DEST=ANS,
PL6.E3A0      #002=THE$REPORT File=THE$ELAN.:E05TSI                              WED 07/30/97 06:07 Page:28
      200     5937                   SOURCE=UTS,
      201     5938                   TSTAMP=CURDATE,
      202     5939                   DATE=ANSDATE);
      203     5958        %FPT_TIME (FPTN=FIRST_ERRLG,
      204     5959                   DEST=UTS,
      205     5960                   TIME=TIME_BUF,
      206     5961                   TSTAMP=TH_FIRST_ERRLG,
      207     5962                   SOURCE=ANS);
      208     5981        %FPT_OPEN (FPTN=OPEN_LO,
      209     5982                   DCB=M$LO,
      210     5983                   SCRUB=YES,
      211     5984                   REASSIGN=YES,
      212     5985                   STCLASS="STATIC SYMDEF");
      213     6094        %FPT_OPEN (FPTN=TH_OPEN_ERRLOG,
      214     6095                   STCLASS=SYMREF);
      215     6204        %FPT_OPEN (FPTN=FIND_FIRST,
      216     6205                   STCLASS=CONSTANT,
      217     6206                   TEST=YES,
      218     6207                   DCB=M$ERRLOG,
      219     6208                   NAME=ERRLOG,
      220     6209                   ACCT=VLP_SYSTAC,
      221     6210                   NXTF=YES,
      222     6211                   THISF=NO,
      223     6212                   ASN=FILE,
      224     6213                   FUN=IN,
      225     6214                   SHARE=ALL);
      226     6323        %FPT_READ (FPTN=READ_CMD,
      227     6324                   STCLASS=CONSTANT,
      228     6325                   BUF=CMD_BUF,
      229     6326                   DCB=M$SI);
      230     6365        %FPT_WRITE (FPTN=ECHO_FPT,
      231     6366                    STCLASS=CONSTANT,
      232     6367                    BUF=CMD_BUF,
      233     6368                    DCB=M$LO);
      234     6399        %FPT_CLOSE (FPTN=CLOSE_LO,
      235     6400                    STCLASS=CONSTANT,
      236     6401                    DCB=M$LO);
PL6.E3A0      #002=THE$REPORT File=THE$ELAN.:E05TSI                              WED 07/30/97 06:07 Page:29
      237     6443        %FPT_CLOSE (FPTN=TH_CLOSE_ERRLOG,
      238     6444                    STCLASS=SYMREF);
      239     6486        %VLP_NAME (FPTN=TH_VLP_ERRLOGX,
      240     6487                   STCLASS=SYMREF);
      241     6514        %VLP_ACCT (FPTN=TH_VLP_ACCT,
      242     6515                   STCLASS=SYMREF);
      243     6528        %VLP_NAME (FPTN=TH_VLP_ERRLOG,
      244     6529                   STCLASS=SYMREF,
      245     6530                   LEN=15);
      246     6557        %VLP_NAME (FPTN=ERRLOG,
      247     6558                   STCLASS=CONSTANT,
      248     6559                   NAME=':ERRLOG19780100');
      249     6586        %FPT_INT (UENTRY=XUR$BREAK,
      250     6587                  STCLASS=CONSTANT);
      251     6601        %FPT_MONINFO (SITEINFO=VLR_SITEINFO,
      252     6602                      STCLASS=CONSTANT);
      253     6617        %VLR_SITEINFO;
      254     6636        /**/
      255     6637        /* VARIABLE DECLARES */
      256     6638    1   DCL B$TCB$ PTR SYMREF;
      257     6639    1   DCL ANSDATE CHAR(6) STATIC;
      258     6640    1   DCL TEMP_DATE CHAR(8);    /* 'yyyymmdd' */
      259     6641    1   DCL CURDATE UBIN WORD STATIC;
      260     6642    1   DCL NDAYS UBIN WORD;
      261     6643    1   DCL NAMEBUF CHAR(15);
      262     6644    1   DCL FIRST_DATE CHAR(6) STATIC;
      263     6645    1   DCL TIME_BUF CHAR(8) STATIC INIT('00000000');
      264     6646    1   DCL TBUF CHAR(5) STATIC;
      265     6647    1   DCL DBUF CHAR(8) STATIC;
      266     6648    1   DCL ERRCODE UBIN(14);
      267     6649    1   DCL TH_CMD SBIN SYMREF;
      268     6650    1   DCL TOP$ PTR;
      269     6651    1   DCL PARSE_CODE REDEF TOP$ BIT(36);
      270     6652    1   DCL CMD_BUF CHAR(256) STATIC;
      271     6653    1   DCL PRMT CHAR(0) CONSTANT INIT('elan:');
      272     6654        %FPT_PROMPT(FPTN=USER_PRMT,
      273     6655                    VFC=YES);
PL6.E3A0      #002=THE$REPORT File=THE$ELAN.:E05TSI                              WED 07/30/97 06:07 Page:30
      274     6683    1   DCL NEW_PRMT$ PTR;
      275     6684    1   DCL 1 PRMT_NEW$ BASED UNAL,
      276     6685    1          2 * CHAR(TH_PRMT_SIZE);
      277     6686    1   DCL HI_FMT CHAR(0) STATIC INIT(
      278     6687    1       'ELAN %A here...%A is first available errorlog %10P');
      279     6688    1   DCL HI_VEC BIT(72) DALIGNED STATIC INIT(VECTOR(HI_FMT));
      280     6689    1   DCL B_VERSION CHAR(1) SYMREF;
      281     6690    1   DCL 1 B$VERSIONB BASED,
      282     6691    1         2 C_ UBIN BYTE CALIGNED,
      283     6692    1         2 T_ CHAR(B$VERSIONB.C_) CALIGNED;
      284     6693        /**/
      285     6694        /* MACRO INVOCATIONS */
      286     6695        %P_PCB (STCLASS=SYMREF);
      287     6894        %B$TCB;
      288     6897        %B$ALT;
      289     6905        %XUD$UTS_ENTRIES;
      290     6937        %XUD_UTS_EQU;
      291     6948        /**/
      292     6949        %EJECT;
PL6.E3A0      #002=THE$REPORT File=THE$ELAN.:E05TSI                              WED 07/30/97 06:07 Page:31
      293     6950    1           CALL M$SPRIV (FPT_PRIV)
      294     6951    2           WHENALTRETURN DO;
      295     6952    2              CALL M$SPRIV (TEST_PRIV)
      296     6953    3              WHENALTRETURN DO;
      297     6954    3   BADPRIV:      ;
      298     6955    3                 CALL THM$ERRMSG(%E$TH_NO_ELAN_PRIV);
      299     6956                      /*E*  ERROR: THE-E$TH_NO_ELAN_PRIV-0
      300     6957                            MESSAGE: You're not allowed to run ELAN.
      301     6958                            DESCRIPTION: Insufficient privilege or PPRIVs to
      302     6959                                         run the ELAN processor.         */
      303     6960    3                 CALL M$XXX;
      304     6961    3                 END;                      /* DO IF SPCLMM NOT AUTHORIZED        */
      305     6962    2              END;                         /* DO IF EL PPRIV NOT SET             */
      306     6963    1           CALL M$SPRIV (SET_PRIV)         /* ASSUME SPCLMM FROM LINK OK         */
      307     6964    2           WHENALTRETURN DO;
      308     6965    2              GOTO BADPRIV;
      309     6966    2              END;
      310     6967    1           CALL M$TIME(CUR_DATE);
      311     6968    1            CALL M$TIME(CUR_TIME);
      312     6969    1           TH_CURDATE = CURDATE;
      313     6970    1           CALL XUD$UTS_DIFF_SEC (NDAYS, CURDATE, 0);
      314     6971    1           NDAYS = NDAYS/86400;
      315     6972    1           CALL XUD$UTS_ADJ_25TH (TH_DEFAULT.START, 0, NDAYS*%UTS_25TH_DAY#);
      316     6973    1           CALL XUD$UTS_ADJ_25TH (TH_DEFAULT.STOP, TH_DEFAULT.START, %UTS_25TH_DAY# -1)
              6973                    ;
      317     6974    1           TH_CONSTRAINTS = TH_DEFAULT;
      318     6975    1           TH_PROC_FLAG = %TRUE;
      319     6976    1           CALL M$MONINFO(FPT_MONINFO);
      320     6977    1           TH_SITE_ID = VLR_SITEINFO.SITE_ID#;
      321     6978    1           TH_SITE_NAME = VLR_SITEINFO.SITE_NAME#;
      322     6979
      323     6980    1           TH_ENDFLAG = %FALSE;
      324     6981    1           REMEMBER ERR_RETURN IN TH_ERR_RETURN;
      325     6982    1             CALL XUR$DISABLE;
      326     6983
      327     6984    1           CALL THI$INIT;
      328     6985
PL6.E3A0      #002=THE$REPORT File=THE$ELAN.:E05TSI                              WED 07/30/97 06:07 Page:32
      329     6986    1             CALL XUR$ENABLE;
      330     6987
      331     6988    1             CALL M$INT (FPT_INT);
      332     6989                                                /* CALL COMMAND DRIVER                */
      333     6990    2           DO WHILE(NOT TH_ENDFLAG);
      334     6991    2          IF TH_CHANGE_FILE
      335     6992    3             THEN DO;
      336     6993    3               TH_OPEN_ERRLOG.V.SHARE# = %IN#;
      337     6994    3               TH_OPEN_ERRLOG.NAME_ = VECTOR(TH_VLP_ERRLOGX);
      338     6995    3               TH_OPEN_ERRLOG.ACCT_ = VECTOR(TH_VLP_ACCT);
      339     6996    3               TH_M$ERRLOG$ = DCBADDR(DCBNUM(M$ERRLOG));
      340     6997    3               CALL M$OPEN(TH_OPEN_ERRLOG) ALTRET(OPEN_ERR2);
      341     6998    3               CALL THG$GETREC(%ERRLOG) ALTRET(ERRLOG_FILE_ERR);
      342     6999    3               CALL M$CLOSE(TH_CLOSE_ERRLOG);
      343     7000    3               TH_CHANGE_FILE = '0'B;
      344     7001    4               DO NEVER;
      345     7002    4   OPEN_ERR2:
      346     7003    4                 CALL THM$ERRMSG;
      347     7004    4                 TH_OPEN_ERRLOG.ACCT_ = VECTOR(VLP_SYSTAC);
      348     7005    4                 TH_OPEN_ERRLOG.NAME_ = VECTOR(TH_VLP_ERRLOG);
      349     7006    4                 TH_CHANGE_ACCOUNT = '1'B;
      350     7007    4                 TH_CHANGE_FILE = '0'B;
      351     7008    4               END;
      352     7009    4               DO NEVER;
      353     7010    4   ERRLOG_FILE_ERR:
      354     7011    4                 CALL THM$ERRMSG(%E$TH_BAD_ERRLOG_FILE);
      355     7012                      /*E*  ERROR:  THE-E$TH_BAD_ERRLOG_FILE-0
      356     7013                            MESSAGE:  Bad errlog file. Unable to process. */
      357     7014    4                 TH_OPEN_ERRLOG.ACCT_ = VECTOR(VLP_SYSTAC);
      358     7015    4                 TH_CHANGE_ACCOUNT = '1'B;
      359     7016    4                 TH_CHANGE_FILE = '0'B;
      360     7017    4               END;
      361     7018    3             END;
      362     7019    2           IF TH_CHANGE_ACCOUNT
      363     7020    3            THEN DO;
      364     7021    3           CALL M$TIME(ANS_DATE);
      365     7022    3           IF ASCBIN(SUBSTR(ANSDATE,0,1)) < 55 THEN /* less than 7 ? */
PL6.E3A0      #002=THE$REPORT File=THE$ELAN.:E05TSI                              WED 07/30/97 06:07 Page:33
      366     7023    3            CALL CONCAT(TEMP_DATE,'20',ANSDATE);
      367     7024    3           ELSE
      368     7025    3            CALL CONCAT(TEMP_DATE,'19',ANSDATE);
      369     7026    3           CALL CONCAT(NAMEBUF,':ERRLOG',TEMP_DATE);
      370     7027    3           TH_OPEN_ERRLOG.V.SHARE# = %ALL#;
      371     7028    3           TH_VLP_ERRLOG.NAME# = NAMEBUF;
      372     7029    3           TH_M$ERRLOG$ = DCBADDR(DCBNUM(M$ERRLOG));
      373     7030    3           CALL M$OPEN(TH_OPEN_ERRLOG) ALTRET(OPEN_ERR);
      374     7031    4           DO NEVER;                       /* OPEN ERROR HANDLING                */
      375     7032    4   OPEN_ERR:  CALL THM$ERRMSG;
      376     7033                   /*E* ERROR: THE-E$TH_ERRLOG_NOT_EXIST-0
      377     7034                        MESSAGE: The errlog doesn't exist.
      378     7035                   */
      379     7036    4           END;                            /* DO NEVER                           */
      380     7037    3           CALL M$CLOSE(TH_CLOSE_ERRLOG);
      381     7038
      382     7039                                                /* LOOK FOR FIRST AVAIL. :ERRLOG FILE */
      383     7040    3           CALL M$OPEN(FIND_FIRST) ALTRET(NO_ERRLOG_FILES);
      384     7041    3           IF TH_M$ERRLOG$->F$DCB.NAME.L ~= LENGTHC( ':ERRLOGyyyymmdd' )
      385     7042    3            THEN GOTO NO_ERRLOG_FILES;
      386     7043    3           NAMEBUF = TH_M$ERRLOG$->F$DCB.NAME.C;
      387     7044    3           IF SUBSTR(NAMEBUF,0,7) ~= ':ERRLOG' THEN GOTO NO_ERRLOG_FILES;
      388     7045    3           FIRST_DATE = SUBSTR(NAMEBUF,9,6);
      389     7046    3           FIRST_ERRLG.DATE_ = VECTOR(FIRST_DATE);
      390     7047    3           CALL M$TIME(FIRST_ERRLG) ALTRET(NO_ERRLOG_FILES);
      391     7048    3           CALL THW$WRITE(HI_VEC,VECTOR(ADDR(B_VERSION)->B$VERSIONB.T_),VECTOR(NAMEBUF)
              7048                    );
      392     7049    3               TH_CHANGE_ACCOUNT = '0'B;
      393     7050
      394     7051    4            DO NEVER;
      395     7052    4   NO_ERRLOG_FILES: ;
      396     7053    4               CALL THM$ERRMSG( %E$TH_NO_ERRLOG_FILES );
      397     7054                    /*E* ERROR: THE-E$TH_NO_ERRLOG_FILES-0
      398     7055                         MESSAGE: The USE account contains no :ERRLOG files
      399     7056                    */
      400     7057    4               END;
      401     7058    3           END;
PL6.E3A0      #002=THE$REPORT File=THE$ELAN.:E05TSI                              WED 07/30/97 06:07 Page:34
      402     7059    2          IF TH_PRMT_FLAG
      403     7060    3            THEN DO;
      404     7061    3                NEW_PRMT$ = ADDR(TH_PRMT);
      405     7062    3                USER_PRMT.PROMPT_ = VECTOR(NEW_PRMT$->PRMT_NEW$);
      406     7063    3                CALL M$PROMPT(USER_PRMT) ALTRET(PARSE_ERR);
      407     7064    3                CALL XUR$GETCMD(TH_CMD,TOP$) ALTRET(PARSE_ERR);
      408     7065    3                 END;
      409     7066    2            ELSE
      410     7067    2                CALL XUR$GETCMD(TH_CMD,TOP$,VECTOR(PRMT)) ALTRET(PARSE_ERR);
      411     7068    2              CALL THC$COMMANDS(TOP$);
      412     7069    2              CALL THG$CLOSEXSA;
      413     7070    3              DO NEVER;                    /* PARSE ERROR HANDLING               */
      414     7071    3   PARSE_ERR:    TH_ERRCODE = PARSE_CODE;
      415     7072    3                 IF NOT TH_ERRCODE.MON
      416     7073    3                    THEN TH_CPOS = P_PCB.HI_CHAR;
      417     7074    3                    ELSE TH_ENDFLAG = %TRUE;
      418     7075    3                 IF TH_ERRCODE.FCG = '302522'O  /* 'XUR' */ AND TH_ERRCODE.CODE = 1
      419     7076    3                    THEN
      420     7077    4                    DO;
      421     7078    4                       TH_ERRCODE = '241005000000'O;
      422     7079    4                       IF TH_CPOS = 0
      423     7080    4                          THEN
      424     7081    5                          DO;
      425     7082    5                             TH_ERRCODE.CODE = %E$TH_CMDERR;
      426     7083    5                             TH_CPOS = -1;
      427     7084    5                          END;
      428     7085    4                          ELSE
      429     7086    5                          DO;
      430     7087    5                             TH_ERRCODE.CODE = %E$TH_SYNTAX;
      431     7088    5                          END;
      432     7089    4                    END;                   /* IF FCG = 'XUP' AND CODE = 1        */
      433     7090    3                 IF TH_CPOS >= 0 THEN CALL XUR$ERRPTR(TH_CPOS,DCBNUM(M$DO));
      434     7091    3                 TH_CPOS = -1;
      435     7092    3                 CALL XUR$ERRMSG(TH_ERRCODE,DCBNUM(M$SI),DCBNUM(M$DO));
      436     7093    3   ERR_RETURN:
      437     7094    3              END;                         /* DO NEVER                           */
      438     7095    2           END;                            /* DO WHILE NOT TH_ENDFLAG            */
PL6.E3A0      #002=THE$REPORT File=THE$ELAN.:E05TSI                              WED 07/30/97 06:07 Page:35
      439     7096    1        RETURN;
      440     7097             /*E* ERROR: THE-E$TH_NO_WORK_SPACE-0
      441     7098                  MESSAGE: Unable to get necessary memory - ELAN aborts
      442     7099             */
      443     7100        /*E* ERROR: THE-E$TH_SYNTAX-0
      444     7101             MESSAGE: Syntax error      */
      445     7102        /*E* ERROR: THE-E$TH_CMDERR-0
      446     7103             MESSAGE: Eh?
      447     7104             MESSAGE1: Unknown command.
      448     7105        */
      449     7106        %EJECT;
PL6.E3A0      #002=THE$REPORT File=THE$ELAN.:E05TSI                              WED 07/30/97 06:07 Page:36
      450     7107    1   END THE$REPORT;
      451     7108        %EOD;

PL6.E3A0      #002=THE$REPORT File=THE$ELAN.:E05TSI                              WED 07/30/97 06:07 Page:37
--  Include file information  --

   XUD_UTS_M.:E05TOU  is referenced.
   TH_PERR_C.:E05TOU  is referenced.
   B_STRINGS_C.:E05TOU  is referenced.
   TH_SUBS_C.:E05TOU  is referenced.
   TH_DATA_R.:E05TOU  cannot be made into a system file and is referenced.
   CP_6_SUBS.:E05TOU  is referenced.
   B_ERRORS_C.:E05TOU  is referenced.
   F$DCB.:E05TOU  cannot be made into a system file and is referenced.
   XU_MACRO_C.:E05TOU  is referenced.
   B$JIT.:E05TOU  cannot be made into a system file and is referenced.
   CP_6.:E05TOU  cannot be made into a system file and is referenced.
   B$JIT_C.:E05TOU  was found in the system file and is referenced.
   CP_6_C.:E05TOU  was found in the system file and is referenced.
      No diagnostics issued in procedure THE$REPORT.

   Procedure THE$REPORT requires 355 words for executable code.
   Procedure THE$REPORT requires 28 words of local(AUTO) storage.

PL6.E3A0      #002=THE$REPORT File=THE$ELAN.:E05TSI                              WED 07/30/97 06:07 Page:38

 Object Unit name= THE$REPORT                                 File name= THE$ELAN.:E05TOU
 UTS= JUL 30 '97 06:07:55.92 WED                              Compiler= PL-6/E31         Sev=      00
 SharedLib= :SHARED_SYSTEM                                    Alt SharedLib=


    ****  Control sections  ****

 Sect   Type Bound  Init  Size OctSiz  Section name(segment info)
    0   DCB   even  none     0      0  M$UC
    1   DCB   even  none     0      0  M$SI
    2   DCB   even  none     0      0  M$LO
    3   DCB   even  none     0      0  M$DO
    4   DCB   even  none     0      0  M$ERRLOG
    5  RoData even  UTS    193    301  THE$REPORT
    6   Data  even  none   246    366  THE$REPORT
    7   Proc  even  none   355    543  THE$REPORT
    8  RoData even  none    38     46  THE$REPORT

    ****  Entry defs  ****

                              Check   Calling
                             calling  sequence
  Sect OctLoc Primary Altret sequence   type   Parms  Name
     7      0   yes    yes     yes      Std        0  THE$REPORT

  ****  Data defs  ****

 Sect OctLoc  Name                           Sect OctLoc  Name
    6     30  OPEN_LO
PL6.E3A0      #002=THE$REPORT File=THE$ELAN.:E05TSI                              WED 07/30/97 06:07 Page:39

  ****  Entry refs  ****

         Check        Calling
        calling       sequence
Altret sequence SRef   type   Args  Name
         yes          Async      0 XUR$BREAK
         yes           Std       1 THM$ERRMSG
 yes     yes           Std       3 XUD$UTS_DIFF_SEC
         yes           Std       0 XUR$DISABLE
 yes     yes           Std       6 XUR$GETCMD
         yes           Std       1 THC$COMMANDS
 yes     yes           Std       3 XUD$UTS_ADJ_25TH
         yes           Std      11 THW$WRITE
 yes     yes           Std       0 THG$CLOSEXSA
         yes           Std       0 THI$INIT
         yes           Std       0 XUR$ENABLE
 yes     yes           Std       4 THG$GETREC
 yes     yes           Std       2 XUR$ERRPTR
 yes     yes           Std       7 XUR$ERRMSG
                       nStd      0 X66_AUTO_0
                       Std       0 B_CONSPOOL_D
                       nStd      0 X66_ARET
PL6.E3A0      #002=THE$REPORT File=THE$ELAN.:E05TSI                              WED 07/30/97 06:07 Page:40

  ****  Data refs  ****

  Flags:  r = read only, s = secondary
Flgs Name                             Flgs Name                             Flgs Name
     M$UC                                  TH_CONSTRAINTS                        TH_DEFAULT
     TH_ERR_RETURN                         TH_ERRCODE                            TH_CPOS
     TH_ENDFLAG                            TH_CURDATE                            TH_FIRST_ERRLG
     TH_DATE                               TH_TIME                               TH_SITE_ID
     TH_SITE_NAME                          TH_PROC_FLAG                          TH_XSA_BUF_VECTOR
     TH_M$ERRLOG$                          VLP_SYSTAC                            TH_CHANGE_ACCOUNT
     TH_CHANGE_FILE                        TH_PRMT_FLAG                          TH_PRMT
     TH_PRMT_SIZE                          B$JIT$                                M$SI
     M$LO                                  M$DO                                  M$ERRLOG
     TH_OPEN_ERRLOG                        TH_CLOSE_ERRLOG                       TH_VLP_ERRLOGX
     TH_VLP_ACCT                           TH_VLP_ERRLOG                         TH_CMD
     B_VERSION                             P_PCB                                 B_VECTNIL

  ****  Segment refs  ****

  Flags:  r = read only, s = secondary
Flgs Name                             Flgs Name                             Flgs Name
     ISSID                                 NULLSID                               ROSID
PL6.E3A0      #002=THE$REPORT File=THE$ELAN.:E05TSI                              WED 07/30/97 06:07 Page:41


      126        1        /*M* REPORT GENERATOR EXEC FOR ELAN */
      127        2        /*T***********************************************************/
      128        3        /*T*                                                         */
      129        4        /*T* Copyright (c) Bull HN Information Systems Inc., 1997    */
      130        5        /*T*                                                         */
      131        6        /*T***********************************************************/
      132        7        THE$REPORT : PROC ALTRET;

      7  7 000000   000000 700200 xent  THE$REPORT   TSX0  ! X66_AUTO_0
         7 000001   000034 000000                    ZERO    28,0

      133        8        /**/
      134        9        /* INCLUDES FILES */
      135       10        %INCLUDE CP_6;
      136       91        %INCLUDE B$JIT;
      137      381        %INCLUDE XU_MACRO_C;
      138     3487        %INCLUDE F$DCB;
      139     3536        %INCLUDE B_ERRORS_C;
      140     4663        %INCLUDE CP_6_SUBS;
      141     5203        %INCLUDE TH_DATA_R;
      142     5281        %INCLUDE TH_SUBS_C;
      143     5663        %INCLUDE TH_PERR_C;
      144     5704        %INCLUDE XUD_UTS_M;
      145     5786        /**/
      146     5787        /* SYMREFS */
      147     5788    1   DCL B$JIT$ PTR SYMREF;
      148     5789        /**/
      149     5790        /* ENTRY DEFINITIONS */
      150     5791    1   DCL XUR$GETCMD ENTRY(6) ALTRET;
      151     5792    1   DCL XUR$ERRMSG ENTRY(7) ALTRET;
      152     5793    1   DCL XUR$ERRPTR ENTRY(2) ALTRET;
      153     5794    1   DCL XUR$ENABLE ENTRY;
      154     5795    1   DCL XUR$DISABLE ENTRY;
      155     5796    1   DCL THC$COMMANDS ENTRY(1);
      156     5797    1   DCL THG$GETREC ENTRY(4) ALTRET;
      157     5798    1   DCL THG$CLOSEXSA ENTRY ALTRET;
PL6.E3A0      #002=THE$REPORT File=THE$ELAN.:E05TSI                              WED 07/30/97 06:07 Page:42
      158     5799    1   DCL THI$INIT ENTRY;
      159     5800    1   DCL XUR$BREAK ENTRY ASYNC;
      160     5801    1   DCL THW$WRITE ENTRY(11);
      161     5802    1   DCL THM$ERRMSG ENTRY(1);
      162     5803        /**/
      163     5804        /* DCBS */
      164     5805    1   DCL M$SI DCB;
      165     5806    1   DCL M$LO DCB;
      166     5807    1   DCL M$DO DCB;
      167     5808    1   DCL M$ERRLOG DCB;
      168     5809        /**/
      169     5810        /* FPT DEFINITIONS */
      170     5811        %FPT_PRIV (FPTN=SET_PRIV,
      171     5812                   PRIV="%(%PR_SPCLMM#)",
      172     5813                   STCLASS=CONSTANT);
      173     5828        %FPT_PRIV (FPTN=TEST_PRIV,
      174     5829                   PRIV="%(%PR_SPCLMM#)",
      175     5830                   AUTH=YES,
      176     5831                   STCLASS=CONSTANT);
      177     5846        %FPT_PRIV (PPRIV=YES,
      178     5847                   STCLASS=CONSTANT,
      179     5848                   PRIV=%PPR_EL#);
      180     5863        %FPT_TIME (FPTN=LOCAL,
      181     5864                   STCLASS=CONSTANT,
      182     5865                   SOURCE=UTS,
      183     5866                   DEST=LOCAL,
      184     5867                   DATE=DBUF,
      185     5868                   TIME=TBUF);
      186     5887        %FPT_TIME (FPTN=CUR_DATE,
      187     5888                   STCLASS=CONSTANT,
      188     5889                   SOURCE=CLOCK,
      189     5890                   DEST=UTS,
      190     5891                   TSTAMP=CURDATE);
      191     5910        %FPT_TIME (FPTN=CUR_TIME,
      192     5911                   SOURCE=UTS,
      193     5912                   DEST=EXT,
      194     5913                   TSTAMP=CURDATE,
PL6.E3A0      #002=THE$REPORT File=THE$ELAN.:E05TSI                              WED 07/30/97 06:07 Page:43
      195     5914                   TIME=TH_TIME,
      196     5915                   DATE=TH_DATE);
      197     5934        %FPT_TIME (FPTN=ANS_DATE,
      198     5935                   STCLASS=CONSTANT,
      199     5936                   DEST=ANS,
      200     5937                   SOURCE=UTS,
      201     5938                   TSTAMP=CURDATE,
      202     5939                   DATE=ANSDATE);
      203     5958        %FPT_TIME (FPTN=FIRST_ERRLG,
      204     5959                   DEST=UTS,
      205     5960                   TIME=TIME_BUF,
      206     5961                   TSTAMP=TH_FIRST_ERRLG,
      207     5962                   SOURCE=ANS);
      208     5981        %FPT_OPEN (FPTN=OPEN_LO,
      209     5982                   DCB=M$LO,
      210     5983                   SCRUB=YES,
      211     5984                   REASSIGN=YES,
      212     5985                   STCLASS="STATIC SYMDEF");
      213     6094        %FPT_OPEN (FPTN=TH_OPEN_ERRLOG,
      214     6095                   STCLASS=SYMREF);
      215     6204        %FPT_OPEN (FPTN=FIND_FIRST,
      216     6205                   STCLASS=CONSTANT,
      217     6206                   TEST=YES,
      218     6207                   DCB=M$ERRLOG,
      219     6208                   NAME=ERRLOG,
      220     6209                   ACCT=VLP_SYSTAC,
      221     6210                   NXTF=YES,
      222     6211                   THISF=NO,
      223     6212                   ASN=FILE,
      224     6213                   FUN=IN,
      225     6214                   SHARE=ALL);
      226     6323        %FPT_READ (FPTN=READ_CMD,
      227     6324                   STCLASS=CONSTANT,
      228     6325                   BUF=CMD_BUF,
      229     6326                   DCB=M$SI);
      230     6365        %FPT_WRITE (FPTN=ECHO_FPT,
      231     6366                    STCLASS=CONSTANT,
PL6.E3A0      #002=THE$REPORT File=THE$ELAN.:E05TSI                              WED 07/30/97 06:07 Page:44
      232     6367                    BUF=CMD_BUF,
      233     6368                    DCB=M$LO);
      234     6399        %FPT_CLOSE (FPTN=CLOSE_LO,
      235     6400                    STCLASS=CONSTANT,
      236     6401                    DCB=M$LO);
      237     6443        %FPT_CLOSE (FPTN=TH_CLOSE_ERRLOG,
      238     6444                    STCLASS=SYMREF);
      239     6486        %VLP_NAME (FPTN=TH_VLP_ERRLOGX,
      240     6487                   STCLASS=SYMREF);
      241     6514        %VLP_ACCT (FPTN=TH_VLP_ACCT,
      242     6515                   STCLASS=SYMREF);
      243     6528        %VLP_NAME (FPTN=TH_VLP_ERRLOG,
      244     6529                   STCLASS=SYMREF,
      245     6530                   LEN=15);
      246     6557        %VLP_NAME (FPTN=ERRLOG,
      247     6558                   STCLASS=CONSTANT,
      248     6559                   NAME=':ERRLOG19780100');
      249     6586        %FPT_INT (UENTRY=XUR$BREAK,
      250     6587                  STCLASS=CONSTANT);
      251     6601        %FPT_MONINFO (SITEINFO=VLR_SITEINFO,
      252     6602                      STCLASS=CONSTANT);
      253     6617        %VLR_SITEINFO;
      254     6636        /**/
      255     6637        /* VARIABLE DECLARES */
      256     6638    1   DCL B$TCB$ PTR SYMREF;
      257     6639    1   DCL ANSDATE CHAR(6) STATIC;
      258     6640    1   DCL TEMP_DATE CHAR(8);    /* 'yyyymmdd' */
      259     6641    1   DCL CURDATE UBIN WORD STATIC;
      260     6642    1   DCL NDAYS UBIN WORD;
      261     6643    1   DCL NAMEBUF CHAR(15);
      262     6644    1   DCL FIRST_DATE CHAR(6) STATIC;
      263     6645    1   DCL TIME_BUF CHAR(8) STATIC INIT('00000000');
      264     6646    1   DCL TBUF CHAR(5) STATIC;
      265     6647    1   DCL DBUF CHAR(8) STATIC;
      266     6648    1   DCL ERRCODE UBIN(14);
      267     6649    1   DCL TH_CMD SBIN SYMREF;
      268     6650    1   DCL TOP$ PTR;
PL6.E3A0      #002=THE$REPORT File=THE$ELAN.:E05TSI                              WED 07/30/97 06:07 Page:45
      269     6651    1   DCL PARSE_CODE REDEF TOP$ BIT(36);
      270     6652    1   DCL CMD_BUF CHAR(256) STATIC;
      271     6653    1   DCL PRMT CHAR(0) CONSTANT INIT('elan:');
      272     6654        %FPT_PROMPT(FPTN=USER_PRMT,
      273     6655                    VFC=YES);
      274     6683    1   DCL NEW_PRMT$ PTR;
      275     6684    1   DCL 1 PRMT_NEW$ BASED UNAL,
      276     6685    1          2 * CHAR(TH_PRMT_SIZE);
      277     6686    1   DCL HI_FMT CHAR(0) STATIC INIT(
      278     6687    1       'ELAN %A here...%A is first available errorlog %10P');
      279     6688    1   DCL HI_VEC BIT(72) DALIGNED STATIC INIT(VECTOR(HI_FMT));
      280     6689    1   DCL B_VERSION CHAR(1) SYMREF;
      281     6690    1   DCL 1 B$VERSIONB BASED,
      282     6691    1         2 C_ UBIN BYTE CALIGNED,
      283     6692    1         2 T_ CHAR(B$VERSIONB.C_) CALIGNED;
      284     6693        /**/
      285     6694        /* MACRO INVOCATIONS */
      286     6695        %P_PCB (STCLASS=SYMREF);
      287     6894        %B$TCB;
      288     6897        %B$ALT;
      289     6905        %XUD$UTS_ENTRIES;
      290     6937        %XUD_UTS_EQU;
      291     6948        /**/
      292     6949        %EJECT;
PL6.E3A0      #002=THE$REPORT File=THE$ELAN.:E05TSI                              WED 07/30/97 06:07 Page:46
      293     6950    1           CALL M$SPRIV (FPT_PRIV)

   6950  7 000002   000010 630400 5                  EPPR0   FPT_PRIV
         7 000003   420012 713400                    CLIMB   alt,+8202
         7 000004   400000 401760                    pmme    nvectors=1
         7 000005   000007 702000 7                  TSX2    s:6952
         7 000006   000022 710000 7                  TRA     s:6963

      294     6951    2           WHENALTRETURN DO;

      295     6952    2              CALL M$SPRIV (TEST_PRIV)

   6952  7 000007   000004 630400 5                  EPPR0   TEST_PRIV
         7 000010   420012 713400                    CLIMB   alt,+8202
         7 000011   400000 401760                    pmme    nvectors=1
         7 000012   000014 702000 7                  TSX2    BADPRIV
         7 000013   000022 710000 7                  TRA     s:6963

      296     6953    3              WHENALTRETURN DO;

   6953  7 000014                       BADPRIV      null
      297     6954    3   BADPRIV:      ;
      298     6955    3                 CALL THM$ERRMSG(%E$TH_NO_ELAN_PRIV);

   6955  7 000014   000001 630400 8                  EPPR0   1
         7 000015   000017 631400 xsym               EPPR1   B_VECTNIL+15
         7 000016   000000 701000 xent               TSX1    THM$ERRMSG
         7 000017   000000 011000                    NOP     0

      299     6956                      /*E*  ERROR: THE-E$TH_NO_ELAN_PRIV-0
      300     6957                            MESSAGE: You're not allowed to run ELAN.
      301     6958                            DESCRIPTION: Insufficient privilege or PPRIVs to
      302     6959                                         run the ELAN processor.         */
      303     6960    3                 CALL M$XXX;

   6960  7 000020   000003 713400                    CLIMB   3
         7 000021   000000 401760                    pmme    nvectors=0
PL6.E3A0      #002=THE$REPORT File=THE$ELAN.:E05TSI                              WED 07/30/97 06:07 Page:47

      304     6961    3                 END;                      /* DO IF SPCLMM NOT AUTHORIZED        */

      305     6962    2              END;                         /* DO IF EL PPRIV NOT SET             */

      306     6963    1           CALL M$SPRIV (SET_PRIV)         /* ASSUME SPCLMM FROM LINK OK         */

   6963  7 000022   000000 630400 5                  EPPR0   SET_PRIV
         7 000023   420012 713400                    CLIMB   alt,+8202
         7 000024   400000 401760                    pmme    nvectors=1
         7 000025   000027 702000 7                  TSX2    s:6965
         7 000026   000030 710000 7                  TRA     s:6967

      307     6964    2           WHENALTRETURN DO;

      308     6965    2              GOTO BADPRIV;

   6965  7 000027   000014 710000 7                  TRA     BADPRIV

      309     6966    2              END;
      310     6967    1           CALL M$TIME(CUR_DATE);

   6967  7 000030   000030 630400 5                  EPPR0   CUR_DATE
         7 000031   020004 713400                    CLIMB   8196
         7 000032   402000 401760                    pmme    nvectors=5

      311     6968    1            CALL M$TIME(CUR_TIME);

   6968  7 000033   000000 630400 6                  EPPR0   CUR_TIME
         7 000034   020004 713400                    CLIMB   8196
         7 000035   402000 401760                    pmme    nvectors=5

      312     6969    1           TH_CURDATE = CURDATE;

   6969  7 000036   000222 235000 6                  LDA     CURDATE
         7 000037   000000 755000 xsym               STA     TH_CURDATE

PL6.E3A0      #002=THE$REPORT File=THE$ELAN.:E05TSI                              WED 07/30/97 06:07 Page:48
      313     6970    1           CALL XUD$UTS_DIFF_SEC (NDAYS, CURDATE, 0);

   6970  7 000040   000002 236000 8                  LDQ     2
         7 000041   200020 756100                    STQ     NEW_PRMT$+4,,AUTO
         7 000042   000003 236000 8                  LDQ     3
         7 000043   200017 756100                    STQ     NEW_PRMT$+3,,AUTO
         7 000044   200005 630500                    EPPR0   NDAYS,,AUTO
         7 000045   200016 450500                    STP0    NEW_PRMT$+2,,AUTO
         7 000046   200016 630500                    EPPR0   NEW_PRMT$+2,,AUTO
         7 000047   000021 631400 xsym               EPPR1   B_VECTNIL+17
         7 000050   000000 701000 xent               TSX1    XUD$UTS_DIFF_SEC
         7 000051   000000 011000                    NOP     0

      314     6971    1           NDAYS = NDAYS/86400;

   6971  7 000052   200005 236100                    LDQ     NDAYS,,AUTO
         7 000053   000001 772000                    QRL     1
         7 000054   124300 506007                    DIV     43200,DL
         7 000055   200005 756100                    STQ     NDAYS,,AUTO

      315     6972    1           CALL XUD$UTS_ADJ_25TH (TH_DEFAULT.START, 0, NDAYS*%UTS_25TH_DAY#);

   6972  7 000056   000004 402000 8                  MPY     4
         7 000057   200016 756100                    STQ     NEW_PRMT$+2,,AUTO
         7 000060   200016 630500                    EPPR0   NEW_PRMT$+2,,AUTO
         7 000061   200021 450500                    STP0    NEW_PRMT$+5,,AUTO
         7 000062   000002 236000 8                  LDQ     2
         7 000063   200020 756100                    STQ     NEW_PRMT$+4,,AUTO
         7 000064   000005 236000 8                  LDQ     5
         7 000065   200017 756100                    STQ     NEW_PRMT$+3,,AUTO
         7 000066   200017 630500                    EPPR0   NEW_PRMT$+3,,AUTO
         7 000067   000021 631400 xsym               EPPR1   B_VECTNIL+17
         7 000070   000000 701000 xent               TSX1    XUD$UTS_ADJ_25TH
         7 000071   000000 011000                    NOP     0

      316     6973    1          CALL XUD$UTS_ADJ_25TH (TH_DEFAULT.STOP, TH_DEFAULT.START, %UTS_25TH_DAY# -1)
              6973                    ;
PL6.E3A0      #002=THE$REPORT File=THE$ELAN.:E05TSI                              WED 07/30/97 06:07 Page:49

   6973  7 000072   000007 630400 8                  EPPR0   7
         7 000073   000021 631400 xsym               EPPR1   B_VECTNIL+17
         7 000074   000000 701000 xent               TSX1    XUD$UTS_ADJ_25TH
         7 000075   000000 011000                    NOP     0

      317     6974    1           TH_CONSTRAINTS = TH_DEFAULT;

   6974  7 000076   000000 100400                    MLR     fill='000'O
         7 000077   000000 000333 xsym               ADSC9   TH_DEFAULT               cn=0,n=219
         7 000100   000000 000333 xsym               ADSC9   TH_CONSTRAINTS           cn=0,n=219

      318     6975    1           TH_PROC_FLAG = %TRUE;

   6975  7 000101   400000 236003                    LDQ     -131072,DU
         7 000102   000000 756000 xsym               STQ     TH_PROC_FLAG

      319     6976    1           CALL M$MONINFO(FPT_MONINFO);

   6976  7 000103   000252 630400 5                  EPPR0   FPT_MONINFO
         7 000104   020023 713400                    CLIMB   8211
         7 000105   402400 401760                    pmme    nvectors=6

      320     6977    1           TH_SITE_ID = VLR_SITEINFO.SITE_ID#;

   6977  7 000106   040000 100400                    MLR     fill='040'O
         7 000107   000210 000006 6                  ADSC9   VLR_SITEINFO+54          cn=0,n=6
         7 000110   000000 000006 xsym               ADSC9   TH_SITE_ID               cn=0,n=6

      321     6978    1           TH_SITE_NAME = VLR_SITEINFO.SITE_NAME#;

   6978  7 000111   000000 100400                    MLR     fill='000'O
         7 000112   000123 000170 6                  ADSC9   VLR_SITEINFO+1           cn=0,n=120
         7 000113   000000 000170 xsym               ADSC9   TH_SITE_NAME             cn=0,n=120

      322     6979
      323     6980    1           TH_ENDFLAG = %FALSE;
PL6.E3A0      #002=THE$REPORT File=THE$ELAN.:E05TSI                              WED 07/30/97 06:07 Page:50

   6980  7 000114   000000 450000 xsym               STZ     TH_ENDFLAG

      324     6981    1           REMEMBER ERR_RETURN IN TH_ERR_RETURN;

   6981  7 000115   000540 635000 7                  EAA     ERR_RETURN
         7 000116   000000 452400 xsym               STP2    TH_ERR_RETURN
         7 000117   000001 755000 xsym               STA     TH_ERR_RETURN+1

      325     6982    1             CALL XUR$DISABLE;

   6982  7 000120   000002 631400 xsym               EPPR1   B_VECTNIL+2
         7 000121   000000 701000 xent               TSX1    XUR$DISABLE
         7 000122   000000 011000                    NOP     0

      326     6983
      327     6984    1           CALL THI$INIT;

   6984  7 000123   000002 631400 xsym               EPPR1   B_VECTNIL+2
         7 000124   000000 701000 xent               TSX1    THI$INIT
         7 000125   000000 011000                    NOP     0

      328     6985
      329     6986    1             CALL XUR$ENABLE;

   6986  7 000126   000002 631400 xsym               EPPR1   B_VECTNIL+2
         7 000127   000000 701000 xent               TSX1    XUR$ENABLE
         7 000130   000000 011000                    NOP     0

      330     6987
      331     6988    1             CALL M$INT (FPT_INT);

   6988  7 000131   000246 630400 5                  EPPR0   FPT_INT
         7 000132   010002 713400                    CLIMB   4098
         7 000133   400000 401760                    pmme    nvectors=1

      332     6989                                                /* CALL COMMAND DRIVER                */
PL6.E3A0      #002=THE$REPORT File=THE$ELAN.:E05TSI                              WED 07/30/97 06:07 Page:51
      333     6990    2           DO WHILE(NOT TH_ENDFLAG);

   6990  7 000134   000540 710000 7                  TRA     ERR_RETURN

      334     6991    2          IF TH_CHANGE_FILE

   6991  7 000135   000000 234000 xsym               SZN     TH_CHANGE_FILE
         7 000136   000223 605000 7                  TPL     s:7019

      335     6992    3             THEN DO;

      336     6993    3               TH_OPEN_ERRLOG.V.SHARE# = %IN#;

   6993  7 000137   000044 236000 xsym               LDQ     TH_OPEN_ERRLOG+36
         7 000140   000012 376000 8                  ANQ     10
         7 000141   000020 276007                    ORQ     16,DL
         7 000142   000044 756000 xsym               STQ     TH_OPEN_ERRLOG+36

      337     6994    3               TH_OPEN_ERRLOG.NAME_ = VECTOR(TH_VLP_ERRLOGX);

   6994  7 000143   000000 236000 xsym               LDQ     TH_VLP_ERRLOGX
         7 000144   000033 772000                    QRL     27
         7 000145   000001 620006                    EAX0    1,QL
         7 000146   000000 635010                    EAA     0,X0
         7 000147   000002 771000                    ARL     2
         7 000150   000140 135007                    SBLA    96,DL
         7 000151   000013 236000 8                  LDQ     11
         7 000152   000006 757000 xsym               STAQ    TH_OPEN_ERRLOG+6

      338     6995    3               TH_OPEN_ERRLOG.ACCT_ = VECTOR(TH_VLP_ACCT);

   6995  7 000153   000014 237000 8                  LDAQ    12
         7 000154   000024 757000 xsym               STAQ    TH_OPEN_ERRLOG+20

      339     6996    3               TH_M$ERRLOG$ = DCBADDR(DCBNUM(M$ERRLOG));

   6996  7 000155   000000 236007 xsym               LDQ     M$ERRLOG,DL
PL6.E3A0      #002=THE$REPORT File=THE$ELAN.:E05TSI                              WED 07/30/97 06:07 Page:52
         7 000156   000016 470400 8                  LDP0    14
         7 000157   000000 471500                    LDP1    0,,PR0
         7 000160   100000 236106                    LDQ     0,QL,PR1
         7 000161   000000 756000 xsym               STQ     TH_M$ERRLOG$

      340     6997    3               CALL M$OPEN(TH_OPEN_ERRLOG) ALTRET(OPEN_ERR2);

   6997  7 000162   000000 630400 xsym               EPPR0   TH_OPEN_ERRLOG
         7 000163   450000 713400                    CLIMB   alt,open
         7 000164   410400 401760                    pmme    nvectors=18
         7 000165   000177 702000 7                  TSX2    OPEN_ERR2

      341     6998    3               CALL THG$GETREC(%ERRLOG) ALTRET(ERRLOG_FILE_ERR);

   6998  7 000166   000017 630400 8                  EPPR0   15
         7 000167   000017 631400 xsym               EPPR1   B_VECTNIL+15
         7 000170   000000 701000 xent               TSX1    THG$GETREC
         7 000171   000212 702000 7                  TSX2    ERRLOG_FILE_ERR

      342     6999    3               CALL M$CLOSE(TH_CLOSE_ERRLOG);

   6999  7 000172   000000 630400 xsym               EPPR0   TH_CLOSE_ERRLOG
         7 000173   050001 713400                    CLIMB   close
         7 000174   406000 401760                    pmme    nvectors=13

      343     7000    3               TH_CHANGE_FILE = '0'B;

   7000  7 000175   000000 450000 xsym               STZ     TH_CHANGE_FILE

      344     7001    4               DO NEVER;

   7001  7 000176   000211 710000 7                  TRA     s:7009

      345     7002    4   OPEN_ERR2:
      346     7003    4                 CALL THM$ERRMSG;

   7003  7 000177   000002 631400 xsym  OPEN_ERR2    EPPR1   B_VECTNIL+2
PL6.E3A0      #002=THE$REPORT File=THE$ELAN.:E05TSI                              WED 07/30/97 06:07 Page:53
         7 000200   000000 701000 xent               TSX1    THM$ERRMSG
         7 000201   000000 011000                    NOP     0

      347     7004    4                 TH_OPEN_ERRLOG.ACCT_ = VECTOR(VLP_SYSTAC);

   7004  7 000202   000020 237000 8                  LDAQ    16
         7 000203   000024 757000 xsym               STAQ    TH_OPEN_ERRLOG+20

      348     7005    4                 TH_OPEN_ERRLOG.NAME_ = VECTOR(TH_VLP_ERRLOG);

   7005  7 000204   000022 237000 8                  LDAQ    18
         7 000205   000006 757000 xsym               STAQ    TH_OPEN_ERRLOG+6

      349     7006    4                 TH_CHANGE_ACCOUNT = '1'B;

   7006  7 000206   400000 236003                    LDQ     -131072,DU
         7 000207   000000 756000 xsym               STQ     TH_CHANGE_ACCOUNT

      350     7007    4                 TH_CHANGE_FILE = '0'B;

   7007  7 000210   000000 450000 xsym               STZ     TH_CHANGE_FILE

      351     7008    4               END;

      352     7009    4               DO NEVER;

   7009  7 000211   000223 710000 7                  TRA     s:7019

      353     7010    4   ERRLOG_FILE_ERR:
      354     7011    4                 CALL THM$ERRMSG(%E$TH_BAD_ERRLOG_FILE);

   7011  7 000212   000025 630400 8     ERRLOG_FILE* EPPR0   21
         7 000213   000017 631400 xsym               EPPR1   B_VECTNIL+15
         7 000214   000000 701000 xent               TSX1    THM$ERRMSG
         7 000215   000000 011000                    NOP     0

      355     7012                      /*E*  ERROR:  THE-E$TH_BAD_ERRLOG_FILE-0
PL6.E3A0      #002=THE$REPORT File=THE$ELAN.:E05TSI                              WED 07/30/97 06:07 Page:54
      356     7013                            MESSAGE:  Bad errlog file. Unable to process. */
      357     7014    4                 TH_OPEN_ERRLOG.ACCT_ = VECTOR(VLP_SYSTAC);

   7014  7 000216   000020 237000 8                  LDAQ    16
         7 000217   000024 757000 xsym               STAQ    TH_OPEN_ERRLOG+20

      358     7015    4                 TH_CHANGE_ACCOUNT = '1'B;

   7015  7 000220   400000 236003                    LDQ     -131072,DU
         7 000221   000000 756000 xsym               STQ     TH_CHANGE_ACCOUNT

      359     7016    4                 TH_CHANGE_FILE = '0'B;

   7016  7 000222   000000 450000 xsym               STZ     TH_CHANGE_FILE

      360     7017    4               END;

      361     7018    3             END;

      362     7019    2           IF TH_CHANGE_ACCOUNT

   7019  7 000223   000000 234000 xsym               SZN     TH_CHANGE_ACCOUNT
         7 000224   000374 605000 7                  TPL     s:7059

      363     7020    3            THEN DO;

      364     7021    3           CALL M$TIME(ANS_DATE);

   7021  7 000225   000044 630400 5                  EPPR0   ANS_DATE
         7 000226   020004 713400                    CLIMB   8196
         7 000227   402000 401760                    pmme    nvectors=5

      365     7022    3           IF ASCBIN(SUBSTR(ANSDATE,0,1)) < 55 THEN /* less than 7 ? */

   7022  7 000230   000220 236000 6                  LDQ     ANSDATE
         7 000231   000033 772000                    QRL     27
         7 000232   000067 116007                    CMPQ    55,DL
PL6.E3A0      #002=THE$REPORT File=THE$ELAN.:E05TSI                              WED 07/30/97 06:07 Page:55
         7 000233   000242 603000 7                  TRC     s:7025

      366     7023    3            CALL CONCAT(TEMP_DATE,'20',ANSDATE);

   7023  7 000234   000270 220000 5                  LDX0    PRMT+2
         7 000235   200003 740100                    STX0    TEMP_DATE,,AUTO
         7 000236   040100 100400                    MLR     fill='040'O
         7 000237   000220 000006 6                  ADSC9   ANSDATE                  cn=0,n=6
         7 000240   200003 400006                    ADSC9   TEMP_DATE,,AUTO          cn=2,n=6
         7 000241   000247 710000 7                  TRA     s:7026

      367     7024    3           ELSE
      368     7025    3            CALL CONCAT(TEMP_DATE,'19',ANSDATE);

   7025  7 000242   000271 220000 5                  LDX0    PRMT+3
         7 000243   200003 740100                    STX0    TEMP_DATE,,AUTO
         7 000244   040100 100400                    MLR     fill='040'O
         7 000245   000220 000006 6                  ADSC9   ANSDATE                  cn=0,n=6
         7 000246   200003 400006                    ADSC9   TEMP_DATE,,AUTO          cn=2,n=6

      369     7026    3           CALL CONCAT(NAMEBUF,':ERRLOG',TEMP_DATE);

   7026  7 000247   040100 100400                    MLR     fill='040'O
         7 000250   000272 000007 5                  ADSC9   PRMT+4                   cn=0,n=7
         7 000251   200006 000007                    ADSC9   NAMEBUF,,AUTO            cn=0,n=7
         7 000252   040100 100500                    MLR     fill='040'O
         7 000253   200003 000010                    ADSC9   TEMP_DATE,,AUTO          cn=0,n=8
         7 000254   200007 600010                    ADSC9   NAMEBUF+1,,AUTO          cn=3,n=8

      370     7027    3           TH_OPEN_ERRLOG.V.SHARE# = %ALL#;

   7027  7 000255   000044 236000 xsym               LDQ     TH_OPEN_ERRLOG+36
         7 000256   000012 376000 8                  ANQ     10
         7 000257   000010 276007                    ORQ     8,DL
         7 000260   000044 756000 xsym               STQ     TH_OPEN_ERRLOG+36

      371     7028    3           TH_VLP_ERRLOG.NAME# = NAMEBUF;
PL6.E3A0      #002=THE$REPORT File=THE$ELAN.:E05TSI                              WED 07/30/97 06:07 Page:56

   7028  7 000261   040000 100500                    MLR     fill='040'O
         7 000262   200006 000017                    ADSC9   NAMEBUF,,AUTO            cn=0,n=15
         7 000263   000000 200017 xsym               ADSC9   TH_VLP_ERRLOG            cn=1,n=15

      372     7029    3           TH_M$ERRLOG$ = DCBADDR(DCBNUM(M$ERRLOG));

   7029  7 000264   000000 236007 xsym               LDQ     M$ERRLOG,DL
         7 000265   000016 470400 8                  LDP0    14
         7 000266   000000 471500                    LDP1    0,,PR0
         7 000267   100000 236106                    LDQ     0,QL,PR1
         7 000270   000000 756000 xsym               STQ     TH_M$ERRLOG$

      373     7030    3           CALL M$OPEN(TH_OPEN_ERRLOG) ALTRET(OPEN_ERR);

   7030  7 000271   000000 630400 xsym               EPPR0   TH_OPEN_ERRLOG
         7 000272   450000 713400                    CLIMB   alt,open
         7 000273   410400 401760                    pmme    nvectors=18
         7 000274   000276 702000 7                  TSX2    OPEN_ERR

      374     7031    4           DO NEVER;                       /* OPEN ERROR HANDLING                */

   7031  7 000275   000301 710000 7                  TRA     s:7037

      375     7032    4   OPEN_ERR:  CALL THM$ERRMSG;

   7032  7 000276   000002 631400 xsym  OPEN_ERR     EPPR1   B_VECTNIL+2
         7 000277   000000 701000 xent               TSX1    THM$ERRMSG
         7 000300   000000 011000                    NOP     0

      376     7033                   /*E* ERROR: THE-E$TH_ERRLOG_NOT_EXIST-0
      377     7034                        MESSAGE: The errlog doesn't exist.
      378     7035                   */
      379     7036    4           END;                            /* DO NEVER                           */

      380     7037    3           CALL M$CLOSE(TH_CLOSE_ERRLOG);

PL6.E3A0      #002=THE$REPORT File=THE$ELAN.:E05TSI                              WED 07/30/97 06:07 Page:57
   7037  7 000301   000000 630400 xsym               EPPR0   TH_CLOSE_ERRLOG
         7 000302   050001 713400                    CLIMB   close
         7 000303   406000 401760                    pmme    nvectors=13

      381     7038
      382     7039                                                /* LOOK FOR FIRST AVAIL. :ERRLOG FILE */
      383     7040    3           CALL M$OPEN(FIND_FIRST) ALTRET(NO_ERRLOG_FILES);

   7040  7 000304   000060 630400 5                  EPPR0   FIND_FIRST
         7 000305   450000 713400                    CLIMB   alt,open
         7 000306   410400 401760                    pmme    nvectors=18
         7 000307   000370 702000 7                  TSX2    NO_ERRLOG_FILES

      384     7041    3           IF TH_M$ERRLOG$->F$DCB.NAME.L ~= LENGTHC( ':ERRLOGyyyymmdd' )

   7041  7 000310   000000 470400 xsym               LDP0    TH_M$ERRLOG$
         7 000311   000010 236100                    LDQ     8,,PR0
         7 000312   777000 376003                    ANQ     -512,DU
         7 000313   017000 116003                    CMPQ    7680,DU
         7 000314   000370 601000 7                  TNZ     NO_ERRLOG_FILES

      385     7042    3            THEN GOTO NO_ERRLOG_FILES;
      386     7043    3           NAMEBUF = TH_M$ERRLOG$->F$DCB.NAME.C;

   7043  7 000315   040100 100500                    MLR     fill='040'O
         7 000316   000010 200017                    ADSC9   8,,PR0                   cn=1,n=15
         7 000317   200006 000017                    ADSC9   NAMEBUF,,AUTO            cn=0,n=15

      387     7044    3           IF SUBSTR(NAMEBUF,0,7) ~= ':ERRLOG' THEN GOTO NO_ERRLOG_FILES;

   7044  7 000320   040000 106500                    CMPC    fill='040'O
         7 000321   200006 000007                    ADSC9   NAMEBUF,,AUTO            cn=0,n=7
         7 000322   000272 000007 5                  ADSC9   PRMT+4                   cn=0,n=7
         7 000323   000370 601000 7                  TNZ     NO_ERRLOG_FILES

      388     7045    3           FIRST_DATE = SUBSTR(NAMEBUF,9,6);

PL6.E3A0      #002=THE$REPORT File=THE$ELAN.:E05TSI                              WED 07/30/97 06:07 Page:58
   7045  7 000324   040000 100500                    MLR     fill='040'O
         7 000325   200010 200006                    ADSC9   NAMEBUF+2,,AUTO          cn=1,n=6
         7 000326   000223 000006 6                  ADSC9   FIRST_DATE               cn=0,n=6

      389     7046    3           FIRST_ERRLG.DATE_ = VECTOR(FIRST_DATE);

   7046  7 000327   000026 237000 8                  LDAQ    22
         7 000330   000016 757000 6                  STAQ    FIRST_ERRLG+2

      390     7047    3           CALL M$TIME(FIRST_ERRLG) ALTRET(NO_ERRLOG_FILES);

   7047  7 000331   000014 630400 6                  EPPR0   FIRST_ERRLG
         7 000332   420004 713400                    CLIMB   alt,+8196
         7 000333   402000 401760                    pmme    nvectors=5
         7 000334   000370 702000 7                  TSX2    NO_ERRLOG_FILES

      391     7048    3          CALL THW$WRITE(HI_VEC,VECTOR(ADDR(B_VERSION)->B$VERSIONB.T_),VECTOR(NAMEBUF)
              7048                    );

   7048  7 000335   000000 236000 xsym               LDQ     B_VERSION
         7 000336   000033 772000                    QRL     27
         7 000337   000064 737000                    LLS     52
         7 000340   000140 135007                    SBLA    96,DL
         7 000341   000030 236000 8                  LDQ     24
         7 000342   200016 757100                    STAQ    NEW_PRMT$+2,,AUTO
         7 000343   000031 235000 8                  LDA     25
         7 000344   200020 452500                    STP2    NEW_PRMT$+4,,AUTO
         7 000345   200020 236100                    LDQ     NEW_PRMT$+4,,AUTO
         7 000346   000006 036003                    ADLQ    6,DU
         7 000347   200024 757100                    STAQ    NEW_PRMT$+8,,AUTO
         7 000350   200016 237100                    LDAQ    NEW_PRMT$+2,,AUTO
         7 000351   200022 757100                    STAQ    NEW_PRMT$+6,,AUTO
         7 000352   200024 237100                    LDAQ    NEW_PRMT$+8,,AUTO
         7 000353   200026 757100                    STAQ    NEW_PRMT$+10,,AUTO
         7 000354   200026 630500                    EPPR0   NEW_PRMT$+10,,AUTO
         7 000355   200032 450500                    STP0    NEW_PRMT$+14,,AUTO
         7 000356   200022 631500                    EPPR1   NEW_PRMT$+6,,AUTO
PL6.E3A0      #002=THE$REPORT File=THE$ELAN.:E05TSI                              WED 07/30/97 06:07 Page:59
         7 000357   200031 451500                    STP1    NEW_PRMT$+13,,AUTO
         7 000360   000032 236000 8                  LDQ     26
         7 000361   200030 756100                    STQ     NEW_PRMT$+12,,AUTO
         7 000362   200030 630500                    EPPR0   NEW_PRMT$+12,,AUTO
         7 000363   000021 631400 xsym               EPPR1   B_VECTNIL+17
         7 000364   000000 701000 xent               TSX1    THW$WRITE
         7 000365   000000 011000                    NOP     0

      392     7049    3               TH_CHANGE_ACCOUNT = '0'B;

   7049  7 000366   000000 450000 xsym               STZ     TH_CHANGE_ACCOUNT

      393     7050
      394     7051    4            DO NEVER;

   7051  7 000367   000374 710000 7                  TRA     s:7059

   7048  7 000370                       NO_ERRLOG_F* null
      395     7052    4   NO_ERRLOG_FILES: ;
      396     7053    4               CALL THM$ERRMSG( %E$TH_NO_ERRLOG_FILES );

   7053  7 000370   000034 630400 8                  EPPR0   28
         7 000371   000017 631400 xsym               EPPR1   B_VECTNIL+15
         7 000372   000000 701000 xent               TSX1    THM$ERRMSG
         7 000373   000000 011000                    NOP     0

      397     7054                    /*E* ERROR: THE-E$TH_NO_ERRLOG_FILES-0
      398     7055                         MESSAGE: The USE account contains no :ERRLOG files
      399     7056                    */
      400     7057    4               END;

      401     7058    3           END;

      402     7059    2          IF TH_PRMT_FLAG

   7059  7 000374   000000 234000 xsym               SZN     TH_PRMT_FLAG
         7 000375   000421 605000 7                  TPL     s:7067
PL6.E3A0      #002=THE$REPORT File=THE$ELAN.:E05TSI                              WED 07/30/97 06:07 Page:60

      403     7060    3            THEN DO;

      404     7061    3                NEW_PRMT$ = ADDR(TH_PRMT);

   7061  7 000376   000035 236000 8                  LDQ     29
         7 000377   200014 756100                    STQ     NEW_PRMT$,,AUTO

      405     7062    3                USER_PRMT.PROMPT_ = VECTOR(NEW_PRMT$->PRMT_NEW$);

   7062  7 000400   000000 235000 xsym               LDA     TH_PRMT_SIZE
         7 000401   000020 735000                    ALS     16
         7 000402   000140 135007                    SBLA    96,DL
         7 000403   000340 757000 6                  STAQ    USER_PRMT+4

      406     7063    3                CALL M$PROMPT(USER_PRMT) ALTRET(PARSE_ERR);

   7063  7 000404   000334 630400 6                  EPPR0   USER_PRMT
         7 000405   560002 713400                    CLIMB   alt,+57346
         7 000406   401000 401760                    pmme    nvectors=3
         7 000407   000445 702000 7                  TSX2    PARSE_ERR

      407     7064    3                CALL XUR$GETCMD(TH_CMD,TOP$) ALTRET(PARSE_ERR);

   7064  7 000410   200013 630500                    EPPR0   TOP$,,AUTO
         7 000411   200017 450500                    STP0    NEW_PRMT$+3,,AUTO
         7 000412   000036 236000 8                  LDQ     30
         7 000413   200016 756100                    STQ     NEW_PRMT$+2,,AUTO
         7 000414   200016 630500                    EPPR0   NEW_PRMT$+2,,AUTO
         7 000415   000020 631400 xsym               EPPR1   B_VECTNIL+16
         7 000416   000000 701000 xent               TSX1    XUR$GETCMD
         7 000417   000445 702000 7                  TSX2    PARSE_ERR

      408     7065    3                 END;

   7065  7 000420   000433 710000 7                  TRA     s:7068

PL6.E3A0      #002=THE$REPORT File=THE$ELAN.:E05TSI                              WED 07/30/97 06:07 Page:61
      409     7066    2            ELSE
      410     7067    2                CALL XUR$GETCMD(TH_CMD,TOP$,VECTOR(PRMT)) ALTRET(PARSE_ERR);

   7067  7 000421   000042 236000 8                  LDQ     34
         7 000422   200020 756100                    STQ     NEW_PRMT$+4,,AUTO
         7 000423   200013 630500                    EPPR0   TOP$,,AUTO
         7 000424   200017 450500                    STP0    NEW_PRMT$+3,,AUTO
         7 000425   000036 236000 8                  LDQ     30
         7 000426   200016 756100                    STQ     NEW_PRMT$+2,,AUTO
         7 000427   200016 630500                    EPPR0   NEW_PRMT$+2,,AUTO
         7 000430   000021 631400 xsym               EPPR1   B_VECTNIL+17
         7 000431   000000 701000 xent               TSX1    XUR$GETCMD
         7 000432   000445 702000 7                  TSX2    PARSE_ERR

      411     7068    2              CALL THC$COMMANDS(TOP$);

   7068  7 000433   200013 630500                    EPPR0   TOP$,,AUTO
         7 000434   200016 450500                    STP0    NEW_PRMT$+2,,AUTO
         7 000435   200016 630500                    EPPR0   NEW_PRMT$+2,,AUTO
         7 000436   000017 631400 xsym               EPPR1   B_VECTNIL+15
         7 000437   000000 701000 xent               TSX1    THC$COMMANDS
         7 000440   000000 011000                    NOP     0

      412     7069    2              CALL THG$CLOSEXSA;

   7069  7 000441   000002 631400 xsym               EPPR1   B_VECTNIL+2
         7 000442   000000 701000 xent               TSX1    THG$CLOSEXSA
         7 000443   000000 011000                    NOP     0

      413     7070    3              DO NEVER;                    /* PARSE ERROR HANDLING               */

   7070  7 000444   000540 710000 7                  TRA     ERR_RETURN

      414     7071    3   PARSE_ERR:    TH_ERRCODE = PARSE_CODE;

   7071  7 000445   200013 236100       PARSE_ERR    LDQ     TOP$,,AUTO
         7 000446   000000 756000 xsym               STQ     TH_ERRCODE
PL6.E3A0      #002=THE$REPORT File=THE$ELAN.:E05TSI                              WED 07/30/97 06:07 Page:62

      415     7072    3                 IF NOT TH_ERRCODE.MON

   7072  7 000447   400000 316007                    CANQ    -131072,DL
         7 000450   000454 601000 7                  TNZ     s:7074

      416     7073    3                    THEN TH_CPOS = P_PCB.HI_CHAR;

   7073  7 000451   000012 235000 xsym               LDA     P_PCB+10
         7 000452   000000 755000 xsym               STA     TH_CPOS
         7 000453   000456 710000 7                  TRA     s:7075

      417     7074    3                    ELSE TH_ENDFLAG = %TRUE;

   7074  7 000454   400000 236003                    LDQ     -131072,DU
         7 000455   000000 756000 xsym               STQ     TH_ENDFLAG

      418     7075    3                 IF TH_ERRCODE.FCG = '302522'O  /* 'XUR' */ AND TH_ERRCODE.CODE = 1

   7075  7 000456   000000 220000 xsym               LDX0    TH_ERRCODE
         7 000457   302522 100003                    CMPX0   99666,DU
         7 000460   000502 601000 7                  TNZ     s:7090
         7 000461   000000 236000 xsym               LDQ     TH_ERRCODE
         7 000462   377770 376007                    ANQ     131064,DL
         7 000463   000010 116007                    CMPQ    8,DL
         7 000464   000502 601000 7                  TNZ     s:7090

      419     7076    3                    THEN
      420     7077    4                    DO;

      421     7078    4                       TH_ERRCODE = '241005000000'O;

   7078  7 000465   000300 236000 5                  LDQ     PRMT+10
         7 000466   000000 756000 xsym               STQ     TH_ERRCODE

      422     7079    4                       IF TH_CPOS = 0

PL6.E3A0      #002=THE$REPORT File=THE$ELAN.:E05TSI                              WED 07/30/97 06:07 Page:63
   7079  7 000467   000000 235000 xsym               LDA     TH_CPOS
         7 000470   000477 601000 7                  TNZ     s:7087

      423     7080    4                          THEN
      424     7081    5                          DO;

      425     7082    5                             TH_ERRCODE.CODE = %E$TH_CMDERR;

   7082  7 000471   000043 376000 8                  ANQ     35
         7 000472   017520 276007                    ORQ     8016,DL
         7 000473   000000 756000 xsym               STQ     TH_ERRCODE

      426     7083    5                             TH_CPOS = -1;

   7083  7 000474   000001 335007                    LCA     1,DL
         7 000475   000000 755000 xsym               STA     TH_CPOS

      427     7084    5                          END;

   7084  7 000476   000502 710000 7                  TRA     s:7090

      428     7085    4                          ELSE
      429     7086    5                          DO;

      430     7087    5                             TH_ERRCODE.CODE = %E$TH_SYNTAX;

   7087  7 000477   000043 376000 8                  ANQ     35
         7 000500   017530 276007                    ORQ     8024,DL
         7 000501   000000 756000 xsym               STQ     TH_ERRCODE

      431     7088    5                          END;

      432     7089    4                    END;                   /* IF FCG = 'XUP' AND CODE = 1        */

      433     7090    3                 IF TH_CPOS >= 0 THEN CALL XUR$ERRPTR(TH_CPOS,DCBNUM(M$DO));

   7090  7 000502   000000 235000 xsym               LDA     TH_CPOS
PL6.E3A0      #002=THE$REPORT File=THE$ELAN.:E05TSI                              WED 07/30/97 06:07 Page:64
         7 000503   000516 604000 7                  TMI     s:7091

   7090  7 000504   000000 236007 xsym               LDQ     M$DO,DL
         7 000505   200016 756100                    STQ     NEW_PRMT$+2,,AUTO
         7 000506   200016 630500                    EPPR0   NEW_PRMT$+2,,AUTO
         7 000507   200021 450500                    STP0    NEW_PRMT$+5,,AUTO
         7 000510   000044 236000 8                  LDQ     36
         7 000511   200020 756100                    STQ     NEW_PRMT$+4,,AUTO
         7 000512   200020 630500                    EPPR0   NEW_PRMT$+4,,AUTO
         7 000513   000020 631400 xsym               EPPR1   B_VECTNIL+16
         7 000514   000000 701000 xent               TSX1    XUR$ERRPTR
         7 000515   000000 011000                    NOP     0

      434     7091    3                 TH_CPOS = -1;

   7091  7 000516   000001 335007                    LCA     1,DL
         7 000517   000000 755000 xsym               STA     TH_CPOS

      435     7092    3                 CALL XUR$ERRMSG(TH_ERRCODE,DCBNUM(M$SI),DCBNUM(M$DO));

   7092  7 000520   000000 236007 xsym               LDQ     M$SI,DL
         7 000521   200016 756100                    STQ     NEW_PRMT$+2,,AUTO
         7 000522   000000 236007 xsym               LDQ     M$DO,DL
         7 000523   200016 235100                    LDA     NEW_PRMT$+2,,AUTO
         7 000524   200017 755100                    STA     NEW_PRMT$+3,,AUTO
         7 000525   200020 756100                    STQ     NEW_PRMT$+4,,AUTO
         7 000526   200020 630500                    EPPR0   NEW_PRMT$+4,,AUTO
         7 000527   200023 450500                    STP0    NEW_PRMT$+7,,AUTO
         7 000530   200017 631500                    EPPR1   NEW_PRMT$+3,,AUTO
         7 000531   200022 451500                    STP1    NEW_PRMT$+6,,AUTO
         7 000532   000045 236000 8                  LDQ     37
         7 000533   200021 756100                    STQ     NEW_PRMT$+5,,AUTO
         7 000534   200021 630500                    EPPR0   NEW_PRMT$+5,,AUTO
         7 000535   000021 631400 xsym               EPPR1   B_VECTNIL+17
         7 000536   000000 701000 xent               TSX1    XUR$ERRMSG
         7 000537   000000 011000                    NOP     0

PL6.E3A0      #002=THE$REPORT File=THE$ELAN.:E05TSI                              WED 07/30/97 06:07 Page:65
      436     7093    3   ERR_RETURN:
      437     7094    3              END;                         /* DO NEVER                           */

   7094  7 000540                       ERR_RETURN   null
      438     7095    2           END;                            /* DO WHILE NOT TH_ENDFLAG            */

   7095  7 000540   000000 234000 xsym               SZN     TH_ENDFLAG
         7 000541   000135 605000 7                  TPL     s:6991

      439     7096    1        RETURN;

   7096  7 000542   000000 702200 xent               TSX2  ! X66_ARET
      440     7097             /*E* ERROR: THE-E$TH_NO_WORK_SPACE-0
      441     7098                  MESSAGE: Unable to get necessary memory - ELAN aborts
      442     7099             */
      443     7100        /*E* ERROR: THE-E$TH_SYNTAX-0
      444     7101             MESSAGE: Syntax error      */
      445     7102        /*E* ERROR: THE-E$TH_CMDERR-0
      446     7103             MESSAGE: Eh?
      447     7104             MESSAGE1: Unknown command.
      448     7105        */
      449     7106        %EJECT;
PL6.E3A0      #002=THE$REPORT File=THE$ELAN.:E05TSI                              WED 07/30/97 06:07 Page:66
      450     7107    1   END THE$REPORT;
      451     7108        %EOD;

PL6.E3A0      #002=THE$REPORT File=THE$ELAN.:E05TSI                              WED 07/30/97 06:07 Page:67
--  Include file information  --

   XUD_UTS_M.:E05TOU  is referenced.
   TH_PERR_C.:E05TOU  is referenced.
   B_STRINGS_C.:E05TOU  is referenced.
   TH_SUBS_C.:E05TOU  is referenced.
   TH_DATA_R.:E05TOU  cannot be made into a system file and is referenced.
   CP_6_SUBS.:E05TOU  is referenced.
   B_ERRORS_C.:E05TOU  is referenced.
   F$DCB.:E05TOU  cannot be made into a system file and is referenced.
   XU_MACRO_C.:E05TOU  is referenced.
   B$JIT.:E05TOU  cannot be made into a system file and is referenced.
   CP_6.:E05TOU  cannot be made into a system file and is referenced.
   B$JIT_C.:E05TOU  was found in the system file and is referenced.
   CP_6_C.:E05TOU  was found in the system file and is referenced.
      No diagnostics issued in procedure THE$REPORT.
PL6.E3A0      #002=THE$REPORT File=THE$ELAN.:E05TSI                              WED 07/30/97 06:07 Page:68

 **** Variables and constants ****

  ****  Section 005 RoData THE$REPORT

  ****  Scalars and arrays  ****
OctLoc.c.b A Datatyp(siz) R M Lvl/name                 OctLoc.c.b A Datatyp(siz) R M Lvl/name

    44-0-0/d STRC(432)   r     1 ANS_DATE                 204-0-0/d STRC(1080)  r     1 CLOSE_LO
    30-0-0/d STRC(432)   r     1 CUR_DATE                 170-0-0/d STRC(432)   r     1 ECHO_FPT
   242-0-0/c STRC(144)   r     1 ERRLOG                    60-0-0/d STRC(2088)  r     1 FIND_FIRST
   246-0-0/d STRC(144)   r     1 FPT_INT                  252-0-0/d STRC(432)   r     1 FPT_MONINFO
    10-0-0/d STRC(144)   r     1 FPT_PRIV                  14-0-0/d STRC(432)   r     1 LOCAL
   266-0-0/c CHAR(5)     r     1 PRMT                     152-0-0/d STRC(504)   r     1 READ_CMD
     0-0-0/d STRC(144)   r     1 SET_PRIV                   4-0-0/d STRC(144)   r     1 TEST_PRIV

  ****  Section 006  Data  THE$REPORT

  ****  Scalars and arrays  ****
OctLoc.c.b A Datatyp(siz) R M Lvl/name                 OctLoc.c.b A Datatyp(siz) R M Lvl/name

   220-0-0/c CHAR(6)     r     1 ANSDATE                  233-0-0/c CHAR(256)   r     1 CMD_BUF
   222-0-0/w UBIN        r     1 CURDATE                    0-0-0/d STRC(432)   r     1 CUR_TIME
   231-0-0/c CHAR(8)     r     1 DBUF                     223-0-0/c CHAR(6)     r     1 FIRST_DATE
    14-0-0/d STRC(432)   r     1 FIRST_ERRLG              346-0-0/c CHAR(50)    r     1 HI_FMT
   364-0-0/d BIT (72)    r     1 HI_VEC                    30-0-0/d STRC(2088)  r     1 OPEN_LO
   227-0-0/c CHAR(5)     r     1 TBUF                     225-0-0/c CHAR(8)     r     1 TIME_BUF
   334-0-0/d STRC(360)   r     1 USER_PRMT                122-0-0/d STRC(2232)  r     1 VLR_SITEINFO

  ****  Auto variables  ****

  ****  Scalars and arrays  ****
OctLoc.c.b A Datatyp(siz) R M Lvl/name                 OctLoc.c.b A Datatyp(siz) R M Lvl/name

     6-0-0/c CHAR(15)    r     1 NAMEBUF                    5-0-0/w UBIN        r     1 NDAYS
    14-0-0/w PTR         r     1 NEW_PRMT$                 13-0-0/w BIT         r     1 PARSE_CODE
     3-0-0/c CHAR(8)     r     1 TEMP_DATE                 13-0-0/w PTR         r     1 TOP$

PL6.E3A0      #002=THE$REPORT File=THE$ELAN.:E05TSI                              WED 07/30/97 06:07 Page:69
  ****  SYMREF variables  ****

  ****  Scalars and arrays  ****
OctLoc.c.b A Datatyp(siz) R M Lvl/name                 OctLoc.c.b A Datatyp(siz) R M Lvl/name

     0-0-0/w PTR         r     1 B$JIT$                     0-0-0/c CHAR        r     1 B_VERSION
     0-0-0/w STRC(504)   r     1 P_PCB                      0-0-0/b BIT         r     1 TH_CHANGE_ACCOUNT
     0-0-0/b BIT         r     1 TH_CHANGE_FILE             0-0-0/d STRC(1080)  r     1 TH_CLOSE_ERRLOG
     0-0-0/w SBIN        r     1 TH_CMD                     0-0-0/d STRC(1971)  r     1 TH_CONSTRAINTS
     0-0-0/w SBIN        r     1 TH_CPOS                    0-0-0/w UBIN        r     1 TH_CURDATE
     0-0-0/c CHAR(10)    r     1 TH_DATE                    0-0-0/d STRC(1971)  r     1 TH_DEFAULT
     0-0-0/b BIT         r     1 TH_ENDFLAG                 0-0-0/w STRC        r     1 TH_ERRCODE
     0-0-0/d REMB        r     1 TH_ERR_RETURN              0-0-0/w UBIN        r     1 TH_FIRST_ERRLG
     0-0-0/w PTR         r     1 TH_M$ERRLOG$               0-0-0/d STRC(2088)  r     1 TH_OPEN_ERRLOG
     0-0-0/c STRC(279)   r     1 TH_PRMT                    0-0-0/b BIT         r     1 TH_PRMT_FLAG
     0-0-0/w UBIN        r     1 TH_PRMT_SIZE               0-0-0/b BIT         r     1 TH_PROC_FLAG
     0-0-0/w CHAR(6)     r     1 TH_SITE_ID                 0-0-0/w STRC(1080)  r     1 TH_SITE_NAME
     0-0-0/c CHAR(11)    r     1 TH_TIME                    0-0-0/c STRC(72)    r     1 TH_VLP_ACCT
     0-0-0/c STRC(144)   r     1 TH_VLP_ERRLOG              0-0-0/c ASTR(9)     r     1 TH_VLP_ERRLOGX
     0-0-0/c STRC(72)    r     1 VLP_SYSTAC

  ****  BASED and DCB variables  ****

  ****  Scalars and arrays  ****
OctLoc.c.b A Datatyp(siz) R M Lvl/name                 OctLoc.c.b A Datatyp(siz) R M Lvl/name

     0-0-0/c ASTR(9)     r     1 B$VERSIONB                 0-0-0/d ASTR(3528)  r     1 F$DCB
     0-0-0N  NULL        r     1 M$DO                       0-0-0N  NULL        r     1 M$ERRLOG
     0-0-0N  NULL        r     1 M$LO                       0-0-0N  NULL        r     1 M$SI
     0-0-0N  NULL        r     1 M$UC                       0-0-0/c ASTR(0)     r     1 PRMT_NEW$


   Procedure THE$REPORT requires 355 words for executable code.
   Procedure THE$REPORT requires 28 words of local(AUTO) storage.
PL6.E3A0      #002=THE$REPORT File=THE$ELAN.:E05TSI                              WED 07/30/97 06:07 Page:70
          *** CROSS REFERENCE LISTING ***
**     DENOTES     IDENTIFIER DEFINITION
<<                 IDENTIFIER'S VALUE SET
>>                 IDENTIFIER'S VALUE USED
<>                 IDENTIFIER SET AND/OR USED
--                 IDENTIFIER REFERENCED
PL6.E3A0      #002=THE$REPORT File=THE$ELAN.:E05TSI                              WED 07/30/97 06:07 Page:71
          MINI XREF LISTING

ANSDATE
      6639**DCL      5950--DCLINIT  5951--DCLINIT  7022>>IF       7023>>CALLBLT  7025>>CALLBLT
ANS_DATE
      5950**DCL      7021<>CALL
ANS_DATE.V
      5954**DCL      5950--DCLINIT
B$ALT.CODE
      6899**DCL      6899--REDEF    6900--REDEF    6900--REDEF
B$ALT.ERR.ERR#
      6901**DCL      6901--REDEF
B$ALT.EVID
      6900**DCL      6900--REDEF    6900--REDEF
B$JIT.CPFLAGS1.SLEAZE
       199**DCL       199--REDEF
B$JIT.ERR.MID
       106**DCL       106--REDEF
B$JIT.JRESPEAK
       267**DCL       268--REDEF
B$JIT.ORIGINATOR_PORT.FROM_CR
       376**DCL       376--REDEF     377--REDEF
B$JIT.PNR
       280**DCL       280--REDEF
B$JIT.TSLINE
       374**DCL       375--REDEF
B$JIT$
      5788**DCL       100--IMP-PTR
B$VERSIONB.C_
      6691**DCL      6692--IMP-SIZ  7048>>CALL
B$VERSIONB.T_
      6692**DCL      7048--CALL
BADPRIV
      6953**LABEL    6965--GOTO
PL6.E3A0      #002=THE$REPORT File=THE$ELAN.:E05TSI                              WED 07/30/97 06:07 Page:72
B_VERSION
      6689**DCL      7048--CALL     7048--CALL
CLOSE_LO.SN_
      6424**DCL      6424--REDEF
CLOSE_LO.UTL_
      6425**DCL      6425--REDEF
CLOSE_LO.V
      6429**DCL      6424--DCLINIT
CLOSE_LO.V.EXPIRE#
      6439**DCL      6439--REDEF
CLOSE_LO.V.TYPE#
      6437**DCL      6437--REDEF
CLOSE_LO.V.XTNSIZE#
      6434**DCL      6434--REDEF    6436--REDEF
CMD_BUF
      6652**DCL      6345--DCLINIT  6346--DCLINIT  6386--DCLINIT  6387--DCLINIT
CURDATE
      6641**DCL      5906--DCLINIT  5930--DCLINIT  5954--DCLINIT  6969>>ASSIGN   6970<>CALL
CUR_DATE
      5902**DCL      6967<>CALL
CUR_DATE.V
      5906**DCL      5902--DCLINIT
CUR_TIME
      5926**DCL      6968<>CALL
CUR_TIME.V
      5930**DCL      5926--DCLINIT
DBUF
      6647**DCL      5879--DCLINIT  5880--DCLINIT
ECHO_FPT.STATION_
      6387**DCL      6387--REDEF
ECHO_FPT.V
      6388**DCL      6385--DCLINIT
ECHO_FPT.V.DVBYTE.VFC#
      6394**DCL      6394--REDEF
ERRLOG
      6584**DCL      6280--DCLINIT
PL6.E3A0      #002=THE$REPORT File=THE$ELAN.:E05TSI                              WED 07/30/97 06:07 Page:73
ERRLOG_FILE_ERR
      7011**LABEL    6998--CALLALT
ERR_RETURN
      7094**LABEL    6981--REMEMBR
F$DCB.ACTPOS
      3513**DCL      3513--REDEF
F$DCB.ARS
      3488**DCL      3488--REDEF
F$DCB.ATTR
      3506**DCL      3507--REDEF
F$DCB.BORROW
      3521**DCL      3521--REDEF    3521--REDEF    3521--REDEF
F$DCB.DCBNAME.L
      3535**DCL      3535--IMP-SIZ
F$DCB.EOMCHAR
      3492**DCL      3492--REDEF
F$DCB.FLDID
      3516**DCL      3516--REDEF
F$DCB.FORM$
      3510**DCL      3510--REDEF
F$DCB.FSECT
      3526**DCL      3526--REDEF
F$DCB.FSN
      3503**DCL      3503--REDEF    3503--REDEF    3504--REDEF
F$DCB.HEADER$
      3509**DCL      3509--REDEF
F$DCB.IXTNSIZE
      3507**DCL      3507--REDEF
F$DCB.LASTSTA$
      3497**DCL      3497--REDEF
F$DCB.LVL
      3522**DCL      3522--REDEF
F$DCB.NAME.C
      3497**DCL      3497--REDEF    7043>>ASSIGN
F$DCB.NAME.L
      3497**DCL      7041>>IF
PL6.E3A0      #002=THE$REPORT File=THE$ELAN.:E05TSI                              WED 07/30/97 06:07 Page:74
F$DCB.NOEOF
      3518**DCL      3518--REDEF
F$DCB.NRECS
      3508**DCL      3508--REDEF
F$DCB.NRECX
      3527**DCL      3527--REDEF
F$DCB.OHDR
      3519**DCL      3519--REDEF
F$DCB.ORG
      3502**DCL      3502--REDEF
F$DCB.PRECNO
      3525**DCL      3525--REDEF
F$DCB.RCSZ
      3530**DCL      3530--REDEF
F$DCB.RES
      3498**DCL      3498--REDEF
F$DCB.SETX
      3510**DCL      3510--REDEF
F$DCB.TAB$
      3509**DCL      3510--REDEF
F$DCB.TDA
      3524**DCL      3524--REDEF
F$DCB.WSN
      3499**DCL      3499--REDEF
FIND_FIRST
      6279**DCL      7040<>CALL
FIND_FIRST.ACSVEH_
      6281**DCL      6282--REDEF
FIND_FIRST.ALTKEYS_
      6287**DCL      6288--REDEF    6288--REDEF
FIND_FIRST.HDR_
      6286**DCL      6287--REDEF
FIND_FIRST.TAB_
      6285**DCL      6286--REDEF
FIND_FIRST.UHL_
      6279**DCL      6280--REDEF    6280--REDEF
PL6.E3A0      #002=THE$REPORT File=THE$ELAN.:E05TSI                              WED 07/30/97 06:07 Page:75
FIND_FIRST.V
      6288**DCL      6279--DCLINIT
FIND_FIRST.V.FSN#
      6319**DCL      6319--REDEF    6319--REDEF
FIND_FIRST.WSN_
      6285**DCL      6285--REDEF
FIRST_DATE
      6644**DCL      7045<<ASSIGN   7046--ASSIGN
FIRST_ERRLG
      5973**DCL      7047<>CALL
FIRST_ERRLG.DATE_
      5973**DCL      7046<<ASSIGN
FIRST_ERRLG.V
      5977**DCL      5973--DCLINIT
FPT_INT
      6598**DCL      6988<>CALL
FPT_INT.V
      6598**DCL      6598--DCLINIT
FPT_MONINFO
      6613**DCL      6976<>CALL
FPT_PRIV
      5859**DCL      6950<>CALL
FPT_PRIV.V
      5859**DCL      5859--DCLINIT
HI_FMT
      6686**DCL      6688--DCLINIT
HI_VEC
      6688**DCL      7048<>CALL
LOCAL.V
      5883**DCL      5879--DCLINIT
M$CLOSE
        19**DCL-ENT  6999--CALL     7037--CALL
M$DO
      5807**DCL      7090<>CALL     7092<>CALL
M$ERRLOG
      5808**DCL      6996--ASSIGN   7029--ASSIGN
PL6.E3A0      #002=THE$REPORT File=THE$ELAN.:E05TSI                              WED 07/30/97 06:07 Page:76
M$INT
        74**DCL-ENT  6988--CALL
M$MONINFO
        87**DCL-ENT  6976--CALL
M$OPEN
        19**DCL-ENT  6997--CALL     7030--CALL     7040--CALL
M$PROMPT
        43**DCL-ENT  7063--CALL
M$SI
      5805**DCL      7092<>CALL
M$SPRIV
        78**DCL-ENT  6950--CALL     6952--CALL     6963--CALL
M$TIME
        86**DCL-ENT  6967--CALL     6968--CALL     7021--CALL     7047--CALL
M$XXX
        31**DCL-ENT  6960--CALL
NAMEBUF
      6643**DCL      7026<<CALLBLT  7028>>ASSIGN   7043<<ASSIGN   7044>>IF       7045>>ASSIGN   7048--CALL
NDAYS
      6642**DCL      6970<>CALL     6971<<ASSIGN   6971>>ASSIGN   6972>>CALL
NEW_PRMT$
      6683**DCL      7061<<ASSIGN   7062>>ASSIGN
NO_ERRLOG_FILES
      7048**LABEL    7040--CALLALT  7042--GOTO     7044--GOTO     7047--CALLALT
OPEN_ERR
      7032**LABEL    7030--CALLALT
OPEN_ERR2
      7003**LABEL    6997--CALLALT
OPEN_LO.ACSVEH_
      6052**DCL      6053--REDEF
OPEN_LO.ALTKEYS_
      6058**DCL      6059--REDEF    6059--REDEF
OPEN_LO.HDR_
      6057**DCL      6058--REDEF
OPEN_LO.TAB_
      6056**DCL      6057--REDEF
PL6.E3A0      #002=THE$REPORT File=THE$ELAN.:E05TSI                              WED 07/30/97 06:07 Page:77
OPEN_LO.UHL_
      6050**DCL      6051--REDEF    6051--REDEF
OPEN_LO.V
      6059**DCL      6050--DCLINIT
OPEN_LO.V.FSN#
      6090**DCL      6090--REDEF    6090--REDEF
OPEN_LO.WSN_
      6056**DCL      6056--REDEF
PARSE_CODE
      6651**DCL      7071>>ASSIGN
PARSE_ERR
      7071**LABEL    7063--CALLALT  7064--CALLALT  7067--CALLALT
PRMT
      6653**DCL      7067--CALL
PRMT_NEW$
      6684**DCL      7062--ASSIGN
P_PCB.HI_CHAR
      6864**DCL      7073>>ASSIGN
READ_CMD.STATION_
      6346**DCL      6347--REDEF
READ_CMD.V
      6347**DCL      6343--DCLINIT
READ_CMD.V.DVBYTE.REREAD#
      6358**DCL      6358--REDEF
READ_CMD.V.INDX#
      6356**DCL      6356--REDEF
SET_PRIV
      5824**DCL      6963<>CALL
SET_PRIV.V
      5824**DCL      5824--DCLINIT
TBUF
      6646**DCL      5881--DCLINIT  5882--DCLINIT
TEMP_DATE
      6640**DCL      7023<<CALLBLT  7025<<CALLBLT  7026>>CALLBLT
TEST_PRIV
      5842**DCL      6952<>CALL
PL6.E3A0      #002=THE$REPORT File=THE$ELAN.:E05TSI                              WED 07/30/97 06:07 Page:78
TEST_PRIV.V
      5842**DCL      5842--DCLINIT
THC$COMMANDS
      5796**DCL-ENT  7068--CALL
THG$CLOSEXSA
      5798**DCL-ENT  7069--CALL
THG$GETREC
      5797**DCL-ENT  6998--CALL
THI$INIT
      5799**DCL-ENT  6984--CALL
THM$ERRMSG
      5802**DCL-ENT  6955--CALL     7003--CALL     7011--CALL     7032--CALL     7053--CALL
THW$WRITE
      5801**DCL-ENT  7048--CALL
TH_CHANGE_ACCOUNT
      5278**DCL      7006<<ASSIGN   7015<<ASSIGN   7019>>IF       7049<<ASSIGN
TH_CHANGE_FILE
      5278**DCL      6991>>IF       7000<<ASSIGN   7007<<ASSIGN   7016<<ASSIGN
TH_CLOSE_ERRLOG
      6467**DCL      6999<>CALL     7037<>CALL
TH_CLOSE_ERRLOG.SN_
      6467**DCL      6467--REDEF
TH_CLOSE_ERRLOG.UTL_
      6468**DCL      6468--REDEF
TH_CLOSE_ERRLOG.V.EXPIRE#
      6482**DCL      6482--REDEF
TH_CLOSE_ERRLOG.V.TYPE#
      6480**DCL      6480--REDEF
TH_CLOSE_ERRLOG.V.XTNSIZE#
      6477**DCL      6477--REDEF    6479--REDEF
TH_CMD
      6649**DCL      7064<>CALL     7067<>CALL
TH_CONSTRAINTS
      5211**DCL      6974<<ASSIGN
TH_CONSTRAINTS.E_BY_B
      5214**DCL      5214--REDEF
PL6.E3A0      #002=THE$REPORT File=THE$ELAN.:E05TSI                              WED 07/30/97 06:07 Page:79
TH_CONSTRAINTS.M_BY_B
      5213**DCL      5213--REDEF
TH_CONSTRAINTS.TYPES
      5211**DCL      5211--REDEF
TH_CPOS
      5235**DCL      7073<<ASSIGN   7079>>IF       7083<<ASSIGN   7090>>IF       7090<>CALL     7091<<ASSIGN
TH_CURDATE
      5238**DCL      6969<<ASSIGN
TH_DATE
      5242**DCL      5926--DCLINIT  5927--DCLINIT
TH_DEFAULT
      5218**DCL      6974>>ASSIGN
TH_DEFAULT.E_BY_B
      5222**DCL      5222--REDEF
TH_DEFAULT.M_BY_B
      5221**DCL      5221--REDEF
TH_DEFAULT.START
      5219**DCL      6972<>CALL     6973<>CALL
TH_DEFAULT.STOP
      5220**DCL      6973<>CALL
TH_DEFAULT.TYPES
      5219**DCL      5219--REDEF
TH_ENDFLAG
      5235**DCL      6980<<ASSIGN   6990>>DOWHILE  7074<<ASSIGN
TH_ERRCODE
      5234**DCL      7071<<ASSIGN   7078<<ASSIGN   7092<>CALL
TH_ERRCODE.CODE
      5235**DCL      7075>>IF       7082<<ASSIGN   7087<<ASSIGN
TH_ERRCODE.FCG
      5234**DCL      7075>>IF
TH_ERRCODE.MON
      5234**DCL      7072>>IF
TH_ERR_RETURN
      5234**DCL      6981<<REMEMBR
TH_FIRST_ERRLG
      5238**DCL      5977--DCLINIT
PL6.E3A0      #002=THE$REPORT File=THE$ELAN.:E05TSI                              WED 07/30/97 06:07 Page:80
TH_M$ERRLOG$
      5249**DCL      6996<<ASSIGN   7029<<ASSIGN   7041>>IF       7043>>ASSIGN
TH_OPEN_ERRLOG
      6160**DCL      6997<>CALL     7030<>CALL
TH_OPEN_ERRLOG.ACCT_
      6164**DCL      6995<<ASSIGN   7004<<ASSIGN   7014<<ASSIGN
TH_OPEN_ERRLOG.ACSVEH_
      6162**DCL      6163--REDEF
TH_OPEN_ERRLOG.ALTKEYS_
      6168**DCL      6169--REDEF    6169--REDEF
TH_OPEN_ERRLOG.HDR_
      6167**DCL      6168--REDEF
TH_OPEN_ERRLOG.NAME_
      6161**DCL      6994<<ASSIGN   7005<<ASSIGN
TH_OPEN_ERRLOG.TAB_
      6166**DCL      6167--REDEF
TH_OPEN_ERRLOG.UHL_
      6160**DCL      6161--REDEF    6161--REDEF
TH_OPEN_ERRLOG.V.FSN#
      6200**DCL      6200--REDEF    6200--REDEF
TH_OPEN_ERRLOG.V.SHARE#
      6174**DCL      6993<<ASSIGN   7027<<ASSIGN
TH_OPEN_ERRLOG.WSN_
      6166**DCL      6166--REDEF
TH_PRMT
      5278**DCL      7061--ASSIGN
TH_PRMT_FLAG
      5278**DCL      7059>>IF
TH_PRMT_SIZE
      5279**DCL      6685--IMP-SIZ  7062>>ASSIGN
TH_PROC_FLAG
      5245**DCL      6975<<ASSIGN
TH_SAVE.E_BY_B
      5230**DCL      5230--REDEF
TH_SAVE.M_BY_B
      5228**DCL      5228--REDEF
PL6.E3A0      #002=THE$REPORT File=THE$ELAN.:E05TSI                              WED 07/30/97 06:07 Page:81
TH_SAVE.TYPES
      5226**DCL      5227--REDEF
TH_SITE_ID
      5242**DCL      6977<<ASSIGN
TH_SITE_NAME
      5243**DCL      6978<<ASSIGN
TH_TIME
      5242**DCL      5928--DCLINIT  5929--DCLINIT
TH_VLP_ACCT
      6526**DCL      6995--ASSIGN
TH_VLP_ERRLOG
      6555**DCL      7005--ASSIGN
TH_VLP_ERRLOG.NAME#
      6555**DCL      7028<<ASSIGN
TH_VLP_ERRLOGX
      6512**DCL      6994--ASSIGN
TH_VLP_ERRLOGX.L#
      6512**DCL      6512--IMP-SIZ  6994>>ASSIGN
TH_XSA_BUF_VECTOR
      5246**DCL      5246--REDEF
TIME_BUF
      6645**DCL      5975--DCLINIT  5976--DCLINIT
TOP$
      6650**DCL      6651--REDEF    7064<>CALL     7067<>CALL     7068<>CALL
USER_PRMT
      6671**DCL      7063<>CALL
USER_PRMT.PROMPT_
      6677**DCL      7062<<ASSIGN
USER_PRMT.V
      6679**DCL      6673--DCLINIT
VLP_SYSTAC
      5263**DCL      6284--DCLINIT  7004--ASSIGN   7014--ASSIGN
VLR_SITEINFO
      6628**DCL      6613--DCLINIT
VLR_SITEINFO.SITE_ID#
      6632**DCL      6977>>ASSIGN
PL6.E3A0      #002=THE$REPORT File=THE$ELAN.:E05TSI                              WED 07/30/97 06:07 Page:82
VLR_SITEINFO.SITE_NAME#
      6628**DCL      6978>>ASSIGN
XUD$UTS_ADJ_25TH
      6930**DCL-ENT  6972--CALL     6973--CALL
XUD$UTS_DIFF_SEC
      6912**DCL-ENT  6970--CALL
XUR$BREAK
      5800**DCL-ENT  6598--DCLINIT
XUR$DISABLE
      5795**DCL-ENT  6982--CALL
XUR$ENABLE
      5794**DCL-ENT  6986--CALL
XUR$ERRMSG
      5792**DCL-ENT  7092--CALL
XUR$ERRPTR
      5793**DCL-ENT  7090--CALL
XUR$GETCMD
      5791**DCL-ENT  7064--CALL     7067--CALL

