PL6.E3A0      #004=THE$INIT File=THE$ELAN.:E05TSI                                WED 07/30/97 06:11 Page:271
     1445        1        /*M* THE$INIT - ROUTINE TO BUILD AND INITIALIZE TABLES FOR ELAN ERRLOG PROCESSOR */
     1446        2        /*T***********************************************************/
     1447        3        /*T*                                                         */
     1448        4        /*T* Copyright (c) Bull HN Information Systems Inc., 1997    */
     1449        5        /*T*                                                         */
     1450        6        /*T***********************************************************/
     1451        7        THE$INIT: PROC(TD_HEAD) ALTRET;
     1452        8        /**/
     1453        9        /* INCLUDE FILES */
     1454       10        %INCLUDE CP_6;
     1455       91        %INCLUDE TD$STRUCT;
     1456      192        %INCLUDE TH$HIST;
     1457      287        %INCLUDE TH_DATA_R;
     1458      365        %INCLUDE TH_SUBS_C;
     1459      747        %INCLUDE IT_SUBS_C;
     1460     1014        %INCLUDE NI$TABLES ;
     1461     1230        /**/
     1462     1231        /* PARAMETERS */
     1463     1232        %TD$HEAD (NAME=TD_HEAD,STCLASS="");
     1464     1268        /**/
     1465     1269        /* ENTRY DEFS */
     1466     1270    1   DCL THG$GETREC ENTRY(4) ALTRET;
     1467     1271        /**/
     1468     1272        /* DCBS */
     1469     1273        /**/
     1470     1274        /* VARS */
     1471     1275    1   DCL IOM_TBL$ PTR STATIC SYMDEF;
     1472     1276    1   DCL MPC_TBL$ PTR STATIC SYMDEF;
     1473     1277    1   DCL FEP_TBL$ PTR STATIC SYMDEF;
     1474     1278    1   DCL DEV_TBL$ PTR STATIC SYMDEF;
     1475     1279        /**/
     1476     1280    1   DCL NUM_IOMS UBIN WORD SYMREF;
     1477     1281    1   DCL NUM_MPCS UBIN WORD SYMREF;
     1478     1282    1   DCL NUM_FEPS UBIN WORD SYMREF;
     1479     1283    1   DCL NUM_DEVS UBIN WORD SYMREF;
     1480     1284        /**/
     1481     1285    1   DCL 1 TABLESEG STATIC DALIGNED,
PL6.E3A0      #004=THE$INIT File=THE$ELAN.:E05TSI                                WED 07/30/97 06:11 Page:272
     1482     1286    1         2 BOUND UBIN(20) UNAL,
     1483     1287    1         2 * BIT(16),
     1484     1288    1         2 PTR$ PTR INIT(ADDR(NIL));
     1485     1289    1   DCL 1 TBL STATIC ALIGNED,
     1486     1290    1         2 DEVNAME CHAR(8),
     1487     1291    1         2 PTR$ PTR;
     1488     1292        /**/
     1489     1293    1   DCL I UBIN WORD;
     1490     1294    1   DCL J UBIN WORD;
     1491     1295    1   DCL K UBIN WORD;
     1492     1296    1   DCL L UBIN WORD;
     1493     1297    1   DCL IOM# CHAR(1);
     1494     1298    1   DCL IOM_NAME CHAR(8);
     1495     1299    1   DCL TABLE$ PTR;
     1496     1300    1   DCL UTS UBIN WORD SYMREF;
     1497     1301    1   DCL FEP# CHAR(3) UNAL;
     1498     1302    1   DCL FEP#1(0:2) REDEF FEP# CHAR(1);
     1499     1303    1   DCL FEP_NAME CHAR(6);
     1500     1304        /**/
     1501     1305        /* MACRO DEFINITIONS */
     1502     1306        %MACRO TBL (NAME=JUNK,STCLASS=BASED);
     1503     1307        DCL 1 NAME(0:0) STCLASS ALIGNED,
     1504     1308              2 DEVNAME CHAR(8),
     1505     1309              2 PTR$ PTR;
     1506     1310        %MEND;
     1507     1311        /**/
     1508     1312        /* MACRO INVOCATIONS */
     1509     1313        %TH$IOM (NAME=IOM);
     1510     1324        %TH$MPC (NAME=MPC,NUMDEV#=32);
     1511     1345        %TH$FEP (NAME=FEP);
     1512     1352        %TH$DEV (NAME=DEV);
     1513     1373        %TH$CHAN (NAME=CHAN);
     1514     1380        /**/
     1515     1381        %TH$MPC (NAME=TH$MPC,STCLASS="BASED(TH_RECORD.PTR$)",NUMDEV#=32);
     1516     1402        %TH$DEV (NAME=TH$DEV,STCLASS="BASED(TH_RECORD.PTR$)");
     1517     1423        %TH$IOM (NAME=TH$IOM,STCLASS="BASED(TH_RECORD.PTR$)");
     1518     1434        %TH$FEP (NAME=TH$FEP,STCLASS="BASED(TH_RECORD.PTR$)");
PL6.E3A0      #004=THE$INIT File=THE$ELAN.:E05TSI                                WED 07/30/97 06:11 Page:273
     1519     1441        %TBL (NAME=IOM_TBL,STCLASS="BASED(IOM_TBL$)");
     1520     1446        %TBL (NAME=MPC_TBL,STCLASS="BASED(MPC_TBL$)");
     1521     1451        %TBL (NAME=FEP_TBL,STCLASS="BASED(FEP_TBL$)");
     1522     1456        %TBL (NAME=DEV_TBL,STCLASS="BASED(DEV_TBL$)");
     1523     1461        /**/
     1524     1462        %TD$MPC (NAME=TD$MPC,STCLASS="BASED(TH_RECORD.PTR$)",NUMDEV#=32);
     1525     1484        %TD$IOM (NAME=TD$IOM,STCLASS="BASED(TH_RECORD.PTR$)");
     1526     1492        %TD$DEV (NAME=TD$DEV,STCLASS="BASED(TH_RECORD.PTR$)");
     1527     1511        /**/
     1528     1512        /* FPT DEFINITIONS */
     1529     1513        %FPT_GDS (FPTN=FPT_GDS,
     1530     1514                  STCLASS=CONSTANT,
     1531     1515                  RESULTS=TABLESEG,
     1532     1516                  SEGSIZE=1024);
     1533     1532        /**/
     1534     1533        %EJECT;
PL6.E3A0      #004=THE$INIT File=THE$ELAN.:E05TSI                                WED 07/30/97 06:11 Page:274
     1535     1534                                                /* GET FIRST DATA SEGMENT             */
     1536     1535    1           IF TABLESEG.PTR$ = ADDR(NIL)
     1537     1536    1           THEN CALL M$GDS(FPT_GDS) ALTRET(NO_MEM);
     1538     1537    1           TABLE$ = TABLESEG.PTR$;
     1539     1538
     1540     1539                                                /* BUILD IOM TABLE                    */
     1541     1540    1           CALL GETBLK(IOM_TBL$,SIZEW(TBL)*NUM_IOMS) ALTRET(NO_MEM);
     1542     1541    2           DO I = 0 TO NUM_IOMS - 1;
     1543     1542    2              CALL BINCHAR(IOM#,I);
     1544     1543    2              CALL CONCAT(IOM_NAME,'IOM',IOM#,'    ');
     1545     1544    2              IOM_TBL.DEVNAME(I) = IOM_NAME;
     1546     1545    2              CALL GETBLK(IOM_TBL.PTR$(I),SIZEW(IOM)) ALTRET(NO_MEM);
     1547     1546    2              IOM_TBL.PTR$(I)->IOM = '0'B;
     1548     1547    2              CALL THG$GETREC(%DEVHIST,IOM_NAME,UTS) ALTRET(L1);
     1549     1548    2              IOM_TBL.PTR$(I)->IOM = TH$IOM;
     1550     1549    3              DO NEVER;
     1551     1550    3        L1:      CALL THG$GETREC(%CONFIG,IOM_NAME);
     1552     1551    3                 IOM_TBL.PTR$(I)->IOM = TD$IOM;
     1553     1552    3              END;                         /* DO NEVER                           */
     1554     1553    2              CALL GETBLK(IOM_TBL.PTR$(I)->IOM.CHAN$,SIZEW(CHAN)) ALTRET(NO_MEM);
     1555     1554    2              IOM_TBL.PTR$(I)->IOM.CHAN$->CHAN = '0'B;
     1556     1555    2              IOM_TBL.PTR$(I)->IOM.CHAN$->CHAN.IOM_NAME = IOM_NAME;
     1557     1556    2           END;                            /* DO I                               */
     1558     1557
     1559     1558                                                /* BUILD MPC TABLE                    */
     1560     1559    1           CALL GETBLK(MPC_TBL$,SIZEW(TBL)*NUM_MPCS) ALTRET(NO_MEM);
     1561     1560    1           J = 0;
     1562     1561    2           DO I = TD_HEAD.UNITMPC_INDX TO TD_HEAD.UNITMPC_INDX + NUM_MPCS - 1;
     1563     1562    2              MPC_TBL.DEVNAME(J) = TD_HEAD.DEVNAME(I);
     1564     1563    2              CALL THG$GETREC(%DEVHIST,TD_HEAD.DEVNAME(I),UTS) ALTRET(L2);
     1565     1564    2              CALL GETBLK(MPC_TBL.PTR$(J),SIZEW(MPC)+(2*TH$MPC.NUMDEVS-1)) ALTRET(
              1564                       NO_MEM);
     1566     1565    2              MPC_TBL.PTR$(J)->MPC = TH$MPC;
     1567     1566    3              DO NEVER;
     1568     1567    3         L2:     CALL THG$GETREC(%CONFIG,TD_HEAD.DEVNAME(I));
     1569     1568    3                 CALL GETBLK(MPC_TBL.PTR$(J),SIZEW(MPC)+(2*TD$MPC.NUMDEVS-1)) ALTRET(
              1568                          NO_MEM);
PL6.E3A0      #004=THE$INIT File=THE$ELAN.:E05TSI                                WED 07/30/97 06:11 Page:275
     1570     1569    3                 MPC_TBL.PTR$(J)->MPC = '0'B;
     1571     1570    3                 MPC_TBL.PTR$(J)->MPC.MODEL = TD$MPC.MODEL;
     1572     1571    3                 MPC_TBL.PTR$(J)->MPC.IOCHAN = TD$MPC.IOCHAN;
     1573     1572    3                 MPC_TBL.PTR$(J)->MPC.NUMDEVS = TD$MPC.NUMDEVS;
     1574     1573    3                 MPC_TBL.PTR$(J)->MPC.FLAGS = TD$MPC.FLAGS;
     1575     1574    3                 MPC_TBL.PTR$(J)->MPC.FWNAME = TD$MPC.FWNAME;
     1576     1575    3                 MPC_TBL.PTR$(J)->MPC.LPFWNAME = TD$MPC.LPFWNAME;
     1577     1576    3                 MPC_TBL.PTR$(J)->MPC.CRPFWNAME = TD$MPC.CRPFWNAME;
     1578     1577    4                 DO K = 0 TO TD$MPC.NUMDEVS - 1;
     1579     1578    4                    MPC_TBL.PTR$(J)->MPC.DEVNAME(K) = TD$MPC.DEVNAME(K);
     1580     1579    4                 END;                      /* DO K                               */
     1581     1580    3                 MPC_TBL.PTR$(J)->MPC.COUNT = 0;
     1582     1581    3                 MPC_TBL.PTR$(J)->MPC.CONNECTS = 0;
     1583     1582    3              END;                         /* DO NEVER                           */
     1584     1583    2              J = J + 1;
     1585     1584    2           END;                            /* DO I                               */
     1586     1585
     1587     1586                                                /* BUILD FEP TABLE                    */
     1588     1587    1           CALL GETBLK(FEP_TBL$,SIZEW(TBL)* %FEP_MAX) ALTRET(NO_MEM);
     1589     1588    1           J = 0;
     1590     1589    2           DO I = 1 TO %FEP_MAX;
     1591     1590    2              FEP# = ' ';
     1592     1591    2              CALL BINCHAR (FEP#,I);
     1593     1592    2              IF(FEP#1(0) = '0' AND FEP#1(1) = '0')
     1594     1593    2                 THEN CALL CONCAT(FEP_NAME,'FEP',FEP#1(2));
     1595     1594    2                 ELSE IF FEP#1(0) = '0'
     1596     1595    2                 THEN CALL CONCAT(FEP_NAME,'FEP',FEP#1(1),FEP#1(2));
     1597     1596    2                 ELSE CALL CONCAT(FEP_NAME,'FEP',FEP#);
     1598     1597    2              FEP_TBL.DEVNAME(J) = FEP_NAME;
     1599     1598    2              CALL GETBLK(FEP_TBL.PTR$(J),SIZEW(FEP)) ALTRET(NO_MEM);
     1600     1599    2              FEP_TBL.PTR$(J)->FEP = '0'B;
     1601     1600    2              CALL THG$GETREC(%DEVHIST,FEP_NAME,UTS) ALTRET(L3);
     1602     1601    2              FEP_TBL.PTR$(J)->FEP = TH$FEP;
     1603     1602    3              DO NEVER;
     1604     1603
     1605     1604    3      L3:         /* FIND CHANNEL THAT THIS FEP IS ON AND STUFF INTO FEP RECORD  */
     1606     1605    4                 DO K = 0 TO NUM_IOMS - 1;
PL6.E3A0      #004=THE$INIT File=THE$ELAN.:E05TSI                                WED 07/30/97 06:11 Page:276
     1607     1606    5                    DO L = 0 TO %N_MAXCHANS-1;
     1608     1607    6                       IF IOM_TBL.PTR$(K)->IOM.DEVNAME(L) = FEP_TBL.DEVNAME(J) THEN DO;
     1609     1608    6                          FEP_TBL.PTR$(J)->FEP.CHANNEL = L;
     1610     1609    6                          FEP_TBL.PTR$(J)->FEP.IOM = K;
     1611     1610    6                          END;  /* IF */
     1612     1611    5                    END;                   /* DO L                               */
     1613     1612    4                 END;                      /* DO K                               */
     1614     1613    3              END;                         /* DO NEVER                           */
     1615     1614    2              J = J + 1;
     1616     1615    2           END;                            /* DO I                               */
     1617     1616
     1618     1617                                                /* BUILD DEVICE TABLE                 */
     1619     1618    1           CALL GETBLK(DEV_TBL$,SIZEW(TBL)*NUM_DEVS) ALTRET(NO_MEM);
     1620     1619    1           J = 0;
     1621     1620    2           DO I = TD_HEAD.LP_INDX TO TD_HEAD.LP_INDX + NUM_DEVS - 1;
     1622     1621    2              DEV_TBL.DEVNAME(J) = TD_HEAD.DEVNAME(I);
     1623     1622    2              CALL GETBLK(DEV_TBL.PTR$(J),SIZEW(DEV)) ALTRET(NO_MEM);
     1624     1623    2              DEV_TBL.PTR$(J)->DEV = '0'B;
     1625     1624    2              CALL THG$GETREC(%DEVHIST,TD_HEAD.DEVNAME(I),UTS) ALTRET(L4);
     1626     1625    2              DEV_TBL.PTR$(J)->DEV = TH$DEV;
     1627     1626    3              DO NEVER;
     1628     1627    3        L4:      CALL THG$GETREC(%CONFIG,TD_HEAD.DEVNAME(I));
     1629     1628    3                 DEV_TBL.PTR$(J)->DEV = TD$DEV;
     1630     1629    3              END;                         /* DO NEVER                           */
     1631     1630    2              J = J + 1;
     1632     1631    2           END;                            /* DO I                               */
     1633     1632    1           RETURN;
     1634     1633    1   NO_MEM: ;
     1635     1634    1           ALTRETURN;
     1636     1635        %EJECT;
PL6.E3A0      #004=THE$INIT File=THE$ELAN.:E05TSI                                WED 07/30/97 06:11 Page:277
     1637     1636    1   GETBLK: PROC(PTR$,SIZE) ALTRET;
     1638     1637        /**/
     1639     1638    2   DCL PTR$ PTR;
     1640     1639    2   DCL SIZE SBIN;
     1641     1640        /**/
     1642     1641    3        DO WHILE(SIZE > ((TABLESEG.BOUND+1)/4) - POFFW(TABLE$,TABLESEG.PTR$));
     1643     1642    3           CALL M$GDS(FPT_GDS) ALTRET(GDS_ERR);
     1644     1643    3        END;                               /* DO WHILE                           */
     1645     1644    2        PTR$ = TABLE$;
     1646     1645    2        TABLE$ = PINCRW(TABLE$,SIZE);
     1647     1646    2        RETURN;
     1648     1647    2   GDS_ERR: ;
     1649     1648    2        ALTRETURN;
     1650     1649    2   END GETBLK;
     1651     1650    1   END THE$INIT;
     1652     1651        %EOD;

PL6.E3A0      #004=THE$INIT File=THE$ELAN.:E05TSI                                WED 07/30/97 06:11 Page:278
--  Include file information  --

   NI$TABLES.:E05TOU  is referenced.
   IT_SUBS_C.:E05TOU  is referenced.
   B_STRINGS_C.:E05TOU  is referenced.
   TH_SUBS_C.:E05TOU  is referenced.
   TH_DATA_R.:E05TOU  cannot be made into a system file and is referenced.
   TH$HIST.:E05TOU  is referenced.
   TD$STRUCT.:E05TOU  is referenced.
   CP_6.:E05TOU  cannot be made into a system file and is referenced.
   B$JIT_C.:E05TOU  was found in the system file and is never referenced.
   CP_6_C.:E05TOU  was found in the system file and is referenced.
      No diagnostics issued in procedure THE$INIT.

   Procedure THE$INIT requires 566 words for executable code.
   Procedure THE$INIT requires 28 words of local(AUTO) storage.

PL6.E3A0      #004=THE$INIT File=THE$ELAN.:E05TSI                                WED 07/30/97 06:11 Page:279

 Object Unit name= THE$INIT                                   File name= THE$ELAN.:E05TOU
 UTS= JUL 30 '97 06:11:54.44 WED                              Compiler= PL-6/E31         Sev=      00
 SharedLib= :SHARED_SYSTEM                                    Alt SharedLib=


    ****  Control sections  ****

 Sect   Type Bound  Init  Size OctSiz  Section name(segment info)
    0   DCB   even  none     0      0  M$UC
    1   Data  even  none     9     11  THE$INIT
    2  RoData even  UTS      9     11  THE$INIT
    3   Proc  even  none   566   1066  THE$INIT
    4  RoData even  none    19     23  THE$INIT

    ****  Entry defs  ****

                              Check   Calling
                             calling  sequence
  Sect OctLoc Primary Altret sequence   type   Parms  Name
     3      0   yes    yes     yes      Std        1  THE$INIT

  ****  Data defs  ****

 Sect OctLoc  Name                           Sect OctLoc  Name
    1      0  IOM_TBL$                           1      1  MPC_TBL$
    1      2  FEP_TBL$                           1      3  DEV_TBL$

  ****  Entry refs  ****

         Check        Calling
        calling       sequence
Altret sequence SRef   type   Args  Name
 yes     yes           Std       4 THG$GETREC
                       nStd      0 X66_AUTO_1
                       Std       0 B_CONSPOOL_D
                       nStd      0 X66_ARET
                       nStd      0 X66_AALT
PL6.E3A0      #004=THE$INIT File=THE$ELAN.:E05TSI                                WED 07/30/97 06:11 Page:280

  ****  Data refs  ****

  Flags:  r = read only, s = secondary
Flgs Name                             Flgs Name                             Flgs Name
     M$UC                                  TH_RECORD                             TH_XSA_BUF_VECTOR
     NUM_IOMS                              NUM_MPCS                              NUM_DEVS
     UTS                                   B_VECTNIL

  ****  Segment refs  ****

  Flags:  r = read only, s = secondary
Flgs Name                             Flgs Name                             Flgs Name
     NULLSID                               ISSID
PL6.E3A0      #004=THE$INIT File=THE$ELAN.:E05TSI                                WED 07/30/97 06:11 Page:281


     1445        1        /*M* THE$INIT - ROUTINE TO BUILD AND INITIALIZE TABLES FOR ELAN ERRLOG PROCESSOR */
     1446        2        /*T***********************************************************/
     1447        3        /*T*                                                         */
     1448        4        /*T* Copyright (c) Bull HN Information Systems Inc., 1997    */
     1449        5        /*T*                                                         */
     1450        6        /*T***********************************************************/
     1451        7        THE$INIT: PROC(TD_HEAD) ALTRET;

      7  3 000000   000000 700200 xent  THE$INIT     TSX0  ! X66_AUTO_1
         3 000001   000034 000001                    ZERO    28,1

     1452        8        /**/
     1453        9        /* INCLUDE FILES */
     1454       10        %INCLUDE CP_6;
     1455       91        %INCLUDE TD$STRUCT;
     1456      192        %INCLUDE TH$HIST;
     1457      287        %INCLUDE TH_DATA_R;
     1458      365        %INCLUDE TH_SUBS_C;
     1459      747        %INCLUDE IT_SUBS_C;
     1460     1014        %INCLUDE NI$TABLES ;
     1461     1230        /**/
     1462     1231        /* PARAMETERS */
     1463     1232        %TD$HEAD (NAME=TD_HEAD,STCLASS="");
     1464     1268        /**/
     1465     1269        /* ENTRY DEFS */
     1466     1270    1   DCL THG$GETREC ENTRY(4) ALTRET;
     1467     1271        /**/
     1468     1272        /* DCBS */
     1469     1273        /**/
     1470     1274        /* VARS */
     1471     1275    1   DCL IOM_TBL$ PTR STATIC SYMDEF;
     1472     1276    1   DCL MPC_TBL$ PTR STATIC SYMDEF;
     1473     1277    1   DCL FEP_TBL$ PTR STATIC SYMDEF;
     1474     1278    1   DCL DEV_TBL$ PTR STATIC SYMDEF;
     1475     1279        /**/
     1476     1280    1   DCL NUM_IOMS UBIN WORD SYMREF;
PL6.E3A0      #004=THE$INIT File=THE$ELAN.:E05TSI                                WED 07/30/97 06:11 Page:282
     1477     1281    1   DCL NUM_MPCS UBIN WORD SYMREF;
     1478     1282    1   DCL NUM_FEPS UBIN WORD SYMREF;
     1479     1283    1   DCL NUM_DEVS UBIN WORD SYMREF;
     1480     1284        /**/
     1481     1285    1   DCL 1 TABLESEG STATIC DALIGNED,
     1482     1286    1         2 BOUND UBIN(20) UNAL,
     1483     1287    1         2 * BIT(16),
     1484     1288    1         2 PTR$ PTR INIT(ADDR(NIL));
     1485     1289    1   DCL 1 TBL STATIC ALIGNED,
     1486     1290    1         2 DEVNAME CHAR(8),
     1487     1291    1         2 PTR$ PTR;
     1488     1292        /**/
     1489     1293    1   DCL I UBIN WORD;
     1490     1294    1   DCL J UBIN WORD;
     1491     1295    1   DCL K UBIN WORD;
     1492     1296    1   DCL L UBIN WORD;
     1493     1297    1   DCL IOM# CHAR(1);
     1494     1298    1   DCL IOM_NAME CHAR(8);
     1495     1299    1   DCL TABLE$ PTR;
     1496     1300    1   DCL UTS UBIN WORD SYMREF;
     1497     1301    1   DCL FEP# CHAR(3) UNAL;
     1498     1302    1   DCL FEP#1(0:2) REDEF FEP# CHAR(1);
     1499     1303    1   DCL FEP_NAME CHAR(6);
     1500     1304        /**/
     1501     1305        /* MACRO DEFINITIONS */
     1502     1306        %MACRO TBL (NAME=JUNK,STCLASS=BASED);
     1503     1307        DCL 1 NAME(0:0) STCLASS ALIGNED,
     1504     1308              2 DEVNAME CHAR(8),
     1505     1309              2 PTR$ PTR;
     1506     1310        %MEND;
     1507     1311        /**/
     1508     1312        /* MACRO INVOCATIONS */
     1509     1313        %TH$IOM (NAME=IOM);
     1510     1324        %TH$MPC (NAME=MPC,NUMDEV#=32);
     1511     1345        %TH$FEP (NAME=FEP);
     1512     1352        %TH$DEV (NAME=DEV);
     1513     1373        %TH$CHAN (NAME=CHAN);
PL6.E3A0      #004=THE$INIT File=THE$ELAN.:E05TSI                                WED 07/30/97 06:11 Page:283
     1514     1380        /**/
     1515     1381        %TH$MPC (NAME=TH$MPC,STCLASS="BASED(TH_RECORD.PTR$)",NUMDEV#=32);
     1516     1402        %TH$DEV (NAME=TH$DEV,STCLASS="BASED(TH_RECORD.PTR$)");
     1517     1423        %TH$IOM (NAME=TH$IOM,STCLASS="BASED(TH_RECORD.PTR$)");
     1518     1434        %TH$FEP (NAME=TH$FEP,STCLASS="BASED(TH_RECORD.PTR$)");
     1519     1441        %TBL (NAME=IOM_TBL,STCLASS="BASED(IOM_TBL$)");
     1520     1446        %TBL (NAME=MPC_TBL,STCLASS="BASED(MPC_TBL$)");
     1521     1451        %TBL (NAME=FEP_TBL,STCLASS="BASED(FEP_TBL$)");
     1522     1456        %TBL (NAME=DEV_TBL,STCLASS="BASED(DEV_TBL$)");
     1523     1461        /**/
     1524     1462        %TD$MPC (NAME=TD$MPC,STCLASS="BASED(TH_RECORD.PTR$)",NUMDEV#=32);
     1525     1484        %TD$IOM (NAME=TD$IOM,STCLASS="BASED(TH_RECORD.PTR$)");
     1526     1492        %TD$DEV (NAME=TD$DEV,STCLASS="BASED(TH_RECORD.PTR$)");
     1527     1511        /**/
     1528     1512        /* FPT DEFINITIONS */
     1529     1513        %FPT_GDS (FPTN=FPT_GDS,
     1530     1514                  STCLASS=CONSTANT,
     1531     1515                  RESULTS=TABLESEG,
     1532     1516                  SEGSIZE=1024);
     1533     1532        /**/
     1534     1533        %EJECT;
PL6.E3A0      #004=THE$INIT File=THE$ELAN.:E05TSI                                WED 07/30/97 06:11 Page:284
     1535     1534                                                /* GET FIRST DATA SEGMENT             */
     1536     1535    1           IF TABLESEG.PTR$ = ADDR(NIL)

   1535  3 000002   000005 236000 1                  LDQ     TABLESEG+1
         3 000003   000001 116000 xsym               CMPQ    B_VECTNIL+1
         3 000004   000011 601000 3                  TNZ     s:1537

     1537     1536    1           THEN CALL M$GDS(FPT_GDS) ALTRET(NO_MEM);

   1536  3 000005   000000 630400 2                  EPPR0   FPT_GDS
         3 000006   430001 713400                    CLIMB   alt,gds
         3 000007   400400 401760                    pmme    nvectors=2
         3 000010   001023 702000 3                  TSX2    NO_MEM

     1538     1537    1           TABLE$ = TABLESEG.PTR$;

   1537  3 000011   000005 236000 1                  LDQ     TABLESEG+1
         3 000012   200013 756100                    STQ     TABLE$,,AUTO

     1539     1538
     1540     1539                                                /* BUILD IOM TABLE                    */
     1541     1540    1           CALL GETBLK(IOM_TBL$,SIZEW(TBL)*NUM_IOMS) ALTRET(NO_MEM);

   1540  3 000013   000000 236000 xsym               LDQ     NUM_IOMS
         3 000014   000003 402007                    MPY     3,DL
         3 000015   200027 756100                    STQ     @SIZE+5,,AUTO
         3 000016   200027 630500                    EPPR0   @SIZE+5,,AUTO
         3 000017   200022 450500                    STP0    @PTR$+1,,AUTO
         3 000020   000000 236000 4                  LDQ     0
         3 000021   200021 756100                    STQ     FEP_NAME+4,,AUTO
         3 000022   001024 701000 3                  TSX1    GETBLK
         3 000023   001023 702000 3                  TSX2    NO_MEM

     1542     1541    2           DO I = 0 TO NUM_IOMS - 1;

   1541  3 000024   200004 450100                    STZ     I,,AUTO
         3 000025   000167 710000 3                  TRA     s:1556+3
PL6.E3A0      #004=THE$INIT File=THE$ELAN.:E05TSI                                WED 07/30/97 06:11 Page:285

     1543     1542    2              CALL BINCHAR(IOM#,I);

   1542  3 000026   200004 235100                    LDA     I,,AUTO
         3 000027   000044 773000                    LRL     36
         3 000030   200024 757100                    STAQ    @SIZE+2,,AUTO
         3 000031   000100 301500                    BTD
         3 000032   200024 000010                    NDSC9   @SIZE+2,,AUTO            cn=0,s=lsgnf,sf=0,n=8
         3 000033   200010 030001                    NDSC9   IOM#,,AUTO               cn=0,s=nosgn,sf=0,n=1

     1544     1543    2              CALL CONCAT(IOM_NAME,'IOM',IOM#,'    ');

   1543  3 000034   000006 236000 2                  LDQ     FPT_GDS+6
         3 000035   000001 376000 4                  ANQ     1
         3 000036   000040 276007                    ORQ     32,DL
         3 000037   200011 756100                    STQ     IOM_NAME,,AUTO
         3 000040   200010 236100                    LDQ     IOM#,,AUTO
         3 000041   000033 772000                    QRL     27
         3 000042   200011 552104                    STBQ    IOM_NAME,'04'O,AUTO
         3 000043   000007 236000 2                  LDQ     FPT_GDS+7
         3 000044   200012 756100                    STQ     IOM_NAME+1,,AUTO

     1545     1544    2              IOM_TBL.DEVNAME(I) = IOM_NAME;

   1544  3 000045   200004 236100                    LDQ     I,,AUTO
         3 000046   000003 402007                    MPY     3,DL
         3 000047   000002 736000                    QLS     2
         3 000050   000000 470400 1                  LDP0    IOM_TBL$
         3 000051   040106 100500                    MLR     fill='040'O
         3 000052   200011 000010                    ADSC9   IOM_NAME,,AUTO           cn=0,n=8
         3 000053   000000 000010                    ADSC9   0,Q,PR0                  cn=0,n=8

     1546     1545    2              CALL GETBLK(IOM_TBL.PTR$(I),SIZEW(IOM)) ALTRET(NO_MEM);

   1545  3 000054   000003 236000 4                  LDQ     3
         3 000055   200022 756100                    STQ     @PTR$+1,,AUTO
         3 000056   200004 236100                    LDQ     I,,AUTO
PL6.E3A0      #004=THE$INIT File=THE$ELAN.:E05TSI                                WED 07/30/97 06:11 Page:286
         3 000057   000003 402003                    MPY     3,DU
         3 000060   000002 036003                    ADLQ    2,DU
         3 000061   000000 036000 1                  ADLQ    IOM_TBL$
         3 000062   200021 756100                    STQ     FEP_NAME+4,,AUTO
         3 000063   001024 701000 3                  TSX1    GETBLK
         3 000064   001023 702000 3                  TSX2    NO_MEM

     1547     1546    2              IOM_TBL.PTR$(I)->IOM = '0'B;

   1546  3 000065   200004 236100                    LDQ     I,,AUTO
         3 000066   000003 402007                    MPY     3,DL
         3 000067   000000 470400 1                  LDP0    IOM_TBL$
         3 000070   000002 471506                    LDP1    2,QL,PR0
         3 000071   000100 100400                    MLR     fill='000'O
         3 000072   000002 000001 xsym               ADSC9   B_VECTNIL+2              cn=0,n=1
         3 000073   100000 002060                    ADSC9   0,,PR1                   cn=0,n=1072

     1548     1547    2              CALL THG$GETREC(%DEVHIST,IOM_NAME,UTS) ALTRET(L1);

   1547  3 000074   000004 236000 4                  LDQ     4
         3 000075   200026 756100                    STQ     @SIZE+4,,AUTO
         3 000076   200011 630500                    EPPR0   IOM_NAME,,AUTO
         3 000077   200025 450500                    STP0    @SIZE+3,,AUTO
         3 000100   000005 236000 4                  LDQ     5
         3 000101   200024 756100                    STQ     @SIZE+2,,AUTO
         3 000102   200024 630500                    EPPR0   @SIZE+2,,AUTO
         3 000103   000021 631400 xsym               EPPR1   B_VECTNIL+17
         3 000104   000000 701000 xent               TSX1    THG$GETREC
         3 000105   000117 702000 3                  TSX2    L1

     1549     1548    2              IOM_TBL.PTR$(I)->IOM = TH$IOM;

   1548  3 000106   200004 236100                    LDQ     I,,AUTO
         3 000107   000003 402007                    MPY     3,DL
         3 000110   000000 470400 1                  LDP0    IOM_TBL$
         3 000111   000002 471506                    LDP1    2,QL,PR0
         3 000112   000001 473400 xsym               LDP3    TH_RECORD+1
PL6.E3A0      #004=THE$INIT File=THE$ELAN.:E05TSI                                WED 07/30/97 06:11 Page:287
         3 000113   000100 100500                    MLR     fill='000'O
         3 000114   300000 002060                    ADSC9   0,,PR3                   cn=0,n=1072
         3 000115   100000 002060                    ADSC9   0,,PR1                   cn=0,n=1072

     1550     1549    3              DO NEVER;

   1549  3 000116   000137 710000 3                  TRA     s:1553

     1551     1550    3        L1:      CALL THG$GETREC(%CONFIG,IOM_NAME);

   1550  3 000117   200011 630500       L1           EPPR0   IOM_NAME,,AUTO
         3 000120   200025 450500                    STP0    @SIZE+3,,AUTO
         3 000121   000006 236000 4                  LDQ     6
         3 000122   200024 756100                    STQ     @SIZE+2,,AUTO
         3 000123   200024 630500                    EPPR0   @SIZE+2,,AUTO
         3 000124   000020 631400 xsym               EPPR1   B_VECTNIL+16
         3 000125   000000 701000 xent               TSX1    THG$GETREC
         3 000126   000000 011000                    NOP     0

     1552     1551    3                 IOM_TBL.PTR$(I)->IOM = TD$IOM;

   1551  3 000127   200004 236100                    LDQ     I,,AUTO
         3 000130   000003 402007                    MPY     3,DL
         3 000131   000000 470400 1                  LDP0    IOM_TBL$
         3 000132   000002 471506                    LDP1    2,QL,PR0
         3 000133   000001 473400 xsym               LDP3    TH_RECORD+1
         3 000134   000100 100500                    MLR     fill='000'O
         3 000135   300000 002044                    ADSC9   0,,PR3                   cn=0,n=1060
         3 000136   100000 002060                    ADSC9   0,,PR1                   cn=0,n=1072

     1553     1552    3              END;                         /* DO NEVER                           */

     1554     1553    2              CALL GETBLK(IOM_TBL.PTR$(I)->IOM.CHAN$,SIZEW(CHAN)) ALTRET(NO_MEM);

   1553  3 000137   000000 470400 1                  LDP0    IOM_TBL$
         3 000140   000002 471506                    LDP1    2,QL,PR0
         3 000141   000010 236000 4                  LDQ     8
PL6.E3A0      #004=THE$INIT File=THE$ELAN.:E05TSI                                WED 07/30/97 06:11 Page:288
         3 000142   200022 756100                    STQ     @PTR$+1,,AUTO
         3 000143   100411 633500                    EPPR3   265,,PR1
         3 000144   200021 453500                    STP3    FEP_NAME+4,,AUTO
         3 000145   001024 701000 3                  TSX1    GETBLK
         3 000146   001023 702000 3                  TSX2    NO_MEM

     1555     1554    2              IOM_TBL.PTR$(I)->IOM.CHAN$->CHAN = '0'B;

   1554  3 000147   200004 236100                    LDQ     I,,AUTO
         3 000150   000003 402007                    MPY     3,DL
         3 000151   000000 470400 1                  LDP0    IOM_TBL$
         3 000152   000002 471506                    LDP1    2,QL,PR0
         3 000153   100411 473500                    LDP3    265,,PR1
         3 000154   000100 100400                    MLR     fill='000'O
         3 000155   000002 000001 xsym               ADSC9   B_VECTNIL+2              cn=0,n=1
         3 000156   300000 001004                    ADSC9   0,,PR3                   cn=0,n=516

     1556     1555    2              IOM_TBL.PTR$(I)->IOM.CHAN$->CHAN.IOM_NAME = IOM_NAME;

   1555  3 000157   000000 470400 1                  LDP0    IOM_TBL$
         3 000160   000002 471506                    LDP1    2,QL,PR0
         3 000161   100411 473500                    LDP3    265,,PR1
         3 000162   200011 236100                    LDQ     IOM_NAME,,AUTO
         3 000163   300000 756100                    STQ     0,,PR3

     1557     1556    2           END;                            /* DO I                               */

   1556  3 000164   200004 235100                    LDA     I,,AUTO
         3 000165   000001 035007                    ADLA    1,DL
         3 000166   200004 755100                    STA     I,,AUTO
         3 000167   200004 236100                    LDQ     I,,AUTO
         3 000170   000000 116000 xsym               CMPQ    NUM_IOMS
         3 000171   000026 602000 3                  TNC     s:1542

     1558     1557
     1559     1558                                                /* BUILD MPC TABLE                    */
     1560     1559    1           CALL GETBLK(MPC_TBL$,SIZEW(TBL)*NUM_MPCS) ALTRET(NO_MEM);
PL6.E3A0      #004=THE$INIT File=THE$ELAN.:E05TSI                                WED 07/30/97 06:11 Page:289

   1559  3 000172   000000 236000 xsym               LDQ     NUM_MPCS
         3 000173   000003 402007                    MPY     3,DL
         3 000174   200030 756100                    STQ     @SIZE+6,,AUTO
         3 000175   200030 630500                    EPPR0   @SIZE+6,,AUTO
         3 000176   200022 450500                    STP0    @PTR$+1,,AUTO
         3 000177   000011 236000 4                  LDQ     9
         3 000200   200021 756100                    STQ     FEP_NAME+4,,AUTO
         3 000201   001024 701000 3                  TSX1    GETBLK
         3 000202   001023 702000 3                  TSX2    NO_MEM

     1561     1560    1           J = 0;

   1560  3 000203   200005 450100                    STZ     J,,AUTO

     1562     1561    2           DO I = TD_HEAD.UNITMPC_INDX TO TD_HEAD.UNITMPC_INDX + NUM_MPCS - 1;

   1561  3 000204   200003 470500                    LDP0    @TD_HEAD,,AUTO
         3 000205   000001 236100                    LDQ     1,,PR0
         3 000206   000022 772000                    QRL     18
         3 000207   200004 756100                    STQ     I,,AUTO
         3 000210   000432 710000 3                  TRA     s:1584+3

     1563     1562    2              MPC_TBL.DEVNAME(J) = TD_HEAD.DEVNAME(I);

   1562  3 000211   200005 236100                    LDQ     J,,AUTO
         3 000212   000003 402007                    MPY     3,DL
         3 000213   200004 235100                    LDA     I,,AUTO
         3 000214   000003 735000                    ALS     3
         3 000215   000002 736000                    QLS     2
         3 000216   200003 470500                    LDP0    @TD_HEAD,,AUTO
         3 000217   000001 471400 1                  LDP1    MPC_TBL$
         3 000220   040106 100505                    MLR     fill='040'O
         3 000221   000020 000010                    ADSC9   16,A,PR0                 cn=0,n=8
         3 000222   100000 000010                    ADSC9   0,Q,PR1                  cn=0,n=8

     1564     1563    2              CALL THG$GETREC(%DEVHIST,TD_HEAD.DEVNAME(I),UTS) ALTRET(L2);
PL6.E3A0      #004=THE$INIT File=THE$ELAN.:E05TSI                                WED 07/30/97 06:11 Page:290

   1563  3 000223   000004 236000 4                  LDQ     4
         3 000224   200026 756100                    STQ     @SIZE+4,,AUTO
         3 000225   200004 236100                    LDQ     I,,AUTO
         3 000226   000023 736000                    QLS     19
         3 000227   000020 036003                    ADLQ    16,DU
         3 000230   200003 036100                    ADLQ    @TD_HEAD,,AUTO
         3 000231   000005 235000 4                  LDA     5
         3 000232   200024 757100                    STAQ    @SIZE+2,,AUTO
         3 000233   200024 630500                    EPPR0   @SIZE+2,,AUTO
         3 000234   000021 631400 xsym               EPPR1   B_VECTNIL+17
         3 000235   000000 701000 xent               TSX1    THG$GETREC
         3 000236   000267 702000 3                  TSX2    L2

     1565     1564    2              CALL GETBLK(MPC_TBL.PTR$(J),SIZEW(MPC)+(2*TH$MPC.NUMDEVS-1)) ALTRET(
              1564                       NO_MEM);

   1564  3 000237   000001 470400 xsym               LDP0    TH_RECORD+1
         3 000240   000014 236100                    LDQ     12,,PR0
         3 000241   000021 772000                    QRL     17
         3 000242   000012 376000 4                  ANQ     10
         3 000243   000121 036007                    ADLQ    81,DL
         3 000244   200031 756100                    STQ     @SIZE+7,,AUTO
         3 000245   200031 631500                    EPPR1   @SIZE+7,,AUTO
         3 000246   200022 451500                    STP1    @PTR$+1,,AUTO
         3 000247   200005 236100                    LDQ     J,,AUTO
         3 000250   000003 402003                    MPY     3,DU
         3 000251   000002 036003                    ADLQ    2,DU
         3 000252   000001 036000 1                  ADLQ    MPC_TBL$
         3 000253   200021 756100                    STQ     FEP_NAME+4,,AUTO
         3 000254   001024 701000 3                  TSX1    GETBLK
         3 000255   001023 702000 3                  TSX2    NO_MEM

     1566     1565    2              MPC_TBL.PTR$(J)->MPC = TH$MPC;

   1565  3 000256   200005 236100                    LDQ     J,,AUTO
         3 000257   000003 402007                    MPY     3,DL
PL6.E3A0      #004=THE$INIT File=THE$ELAN.:E05TSI                                WED 07/30/97 06:11 Page:291
         3 000260   000001 470400 1                  LDP0    MPC_TBL$
         3 000261   000002 471506                    LDP1    2,QL,PR0
         3 000262   000001 473400 xsym               LDP3    TH_RECORD+1
         3 000263   000100 100500                    MLR     fill='000'O
         3 000264   300000 000510                    ADSC9   0,,PR3                   cn=0,n=328
         3 000265   100000 000510                    ADSC9   0,,PR1                   cn=0,n=328

     1567     1566    3              DO NEVER;

   1566  3 000266   000424 710000 3                  TRA     s:1583

     1568     1567    3         L2:     CALL THG$GETREC(%CONFIG,TD_HEAD.DEVNAME(I));

   1567  3 000267   200004 236100       L2           LDQ     I,,AUTO
         3 000270   000023 736000                    QLS     19
         3 000271   000020 036003                    ADLQ    16,DU
         3 000272   200003 036100                    ADLQ    @TD_HEAD,,AUTO
         3 000273   000006 235000 4                  LDA     6
         3 000274   200024 757100                    STAQ    @SIZE+2,,AUTO
         3 000275   200024 630500                    EPPR0   @SIZE+2,,AUTO
         3 000276   000020 631400 xsym               EPPR1   B_VECTNIL+16
         3 000277   000000 701000 xent               TSX1    THG$GETREC
         3 000300   000000 011000                    NOP     0

     1569     1568    3                 CALL GETBLK(MPC_TBL.PTR$(J),SIZEW(MPC)+(2*TD$MPC.NUMDEVS-1)) ALTRET(
              1568                          NO_MEM);

   1568  3 000301   000001 470400 xsym               LDP0    TH_RECORD+1
         3 000302   000012 236100                    LDQ     10,,PR0
         3 000303   000021 772000                    QRL     17
         3 000304   000012 376000 4                  ANQ     10
         3 000305   000121 036007                    ADLQ    81,DL
         3 000306   200032 756100                    STQ     @SIZE+8,,AUTO
         3 000307   200032 631500                    EPPR1   @SIZE+8,,AUTO
         3 000310   200022 451500                    STP1    @PTR$+1,,AUTO
         3 000311   200005 236100                    LDQ     J,,AUTO
         3 000312   000003 402003                    MPY     3,DU
PL6.E3A0      #004=THE$INIT File=THE$ELAN.:E05TSI                                WED 07/30/97 06:11 Page:292
         3 000313   000002 036003                    ADLQ    2,DU
         3 000314   000001 036000 1                  ADLQ    MPC_TBL$
         3 000315   200021 756100                    STQ     FEP_NAME+4,,AUTO
         3 000316   001024 701000 3                  TSX1    GETBLK
         3 000317   001023 702000 3                  TSX2    NO_MEM

     1570     1569    3                 MPC_TBL.PTR$(J)->MPC = '0'B;

   1569  3 000320   200005 236100                    LDQ     J,,AUTO
         3 000321   000003 402007                    MPY     3,DL
         3 000322   000001 470400 1                  LDP0    MPC_TBL$
         3 000323   000002 471506                    LDP1    2,QL,PR0
         3 000324   000100 100400                    MLR     fill='000'O
         3 000325   000002 000001 xsym               ADSC9   B_VECTNIL+2              cn=0,n=1
         3 000326   100000 000510                    ADSC9   0,,PR1                   cn=0,n=328

     1571     1570    3                 MPC_TBL.PTR$(J)->MPC.MODEL = TD$MPC.MODEL;

   1570  3 000327   000001 470400 1                  LDP0    MPC_TBL$
         3 000330   000002 471506                    LDP1    2,QL,PR0
         3 000331   000001 473400 xsym               LDP3    TH_RECORD+1
         3 000332   040100 100500                    MLR     fill='040'O
         3 000333   300000 000010                    ADSC9   0,,PR3                   cn=0,n=8
         3 000334   100002 000010                    ADSC9   2,,PR1                   cn=0,n=8

     1572     1571    3                 MPC_TBL.PTR$(J)->MPC.IOCHAN = TD$MPC.IOCHAN;

   1571  3 000335   000002 471506                    LDP1    2,QL,PR0
         3 000336   000100 100500                    MLR     fill='000'O
         3 000337   300002 000040                    ADSC9   2,,PR3                   cn=0,n=32
         3 000340   100004 000040                    ADSC9   4,,PR1                   cn=0,n=32

     1573     1572    3                 MPC_TBL.PTR$(J)->MPC.NUMDEVS = TD$MPC.NUMDEVS;

   1572  3 000341   000002 471506                    LDP1    2,QL,PR0
         3 000342   300012 220100                    LDX0    10,,PR3
         3 000343   100014 740100                    STX0    12,,PR1
PL6.E3A0      #004=THE$INIT File=THE$ELAN.:E05TSI                                WED 07/30/97 06:11 Page:293

     1574     1573    3                 MPC_TBL.PTR$(J)->MPC.FLAGS = TD$MPC.FLAGS;

   1573  3 000344   000002 471506                    LDP1    2,QL,PR0
         3 000345   300012 720100                    LXL0    10,,PR3
         3 000346   100014 440100                    SXL0    12,,PR1

     1575     1574    3                 MPC_TBL.PTR$(J)->MPC.FWNAME = TD$MPC.FWNAME;

   1574  3 000347   000002 471506                    LDP1    2,QL,PR0
         3 000350   300013 236100                    LDQ     11,,PR3
         3 000351   100015 756100                    STQ     13,,PR1

     1576     1575    3                 MPC_TBL.PTR$(J)->MPC.LPFWNAME = TD$MPC.LPFWNAME;

   1575  3 000352   200005 236100                    LDQ     J,,AUTO
         3 000353   000003 402007                    MPY     3,DL
         3 000354   000002 471506                    LDP1    2,QL,PR0
         3 000355   300014 236100                    LDQ     12,,PR3
         3 000356   100016 756100                    STQ     14,,PR1

     1577     1576    3                 MPC_TBL.PTR$(J)->MPC.CRPFWNAME = TD$MPC.CRPFWNAME;

   1576  3 000357   200005 236100                    LDQ     J,,AUTO
         3 000360   000003 402007                    MPY     3,DL
         3 000361   000002 471506                    LDP1    2,QL,PR0
         3 000362   300015 236100                    LDQ     13,,PR3
         3 000363   100017 756100                    STQ     15,,PR1

     1578     1577    4                 DO K = 0 TO TD$MPC.NUMDEVS - 1;

   1577  3 000364   200006 450100                    STZ     K,,AUTO
         3 000365   000406 710000 3                  TRA     s:1579+3

     1579     1578    4                    MPC_TBL.PTR$(J)->MPC.DEVNAME(K) = TD$MPC.DEVNAME(K);

   1578  3 000366   200005 236100                    LDQ     J,,AUTO
PL6.E3A0      #004=THE$INIT File=THE$ELAN.:E05TSI                                WED 07/30/97 06:11 Page:294
         3 000367   000003 402007                    MPY     3,DL
         3 000370   000001 470400 1                  LDP0    MPC_TBL$
         3 000371   000002 471506                    LDP1    2,QL,PR0
         3 000372   200006 235100                    LDA     K,,AUTO
         3 000373   000001 735000                    ALS     1
         3 000374   200006 236100                    LDQ     K,,AUTO
         3 000375   000003 736000                    QLS     3
         3 000376   000002 735000                    ALS     2
         3 000377   000001 473400 xsym               LDP3    TH_RECORD+1
         3 000400   040105 100506                    MLR     fill='040'O
         3 000401   300017 000010                    ADSC9   15,Q,PR3                 cn=0,n=8
         3 000402   100020 000010                    ADSC9   16,A,PR1                 cn=0,n=8

     1580     1579    4                 END;                      /* DO K                               */

   1579  3 000403   200006 235100                    LDA     K,,AUTO
         3 000404   000001 035007                    ADLA    1,DL
         3 000405   200006 755100                    STA     K,,AUTO
         3 000406   000001 470400 xsym               LDP0    TH_RECORD+1
         3 000407   000012 236100                    LDQ     10,,PR0
         3 000410   000022 772000                    QRL     18
         3 000411   200006 116100                    CMPQ    K,,AUTO
         3 000412   000414 600000 3                  TZE     s:1580
         3 000413   000366 603000 3                  TRC     s:1578

     1581     1580    3                 MPC_TBL.PTR$(J)->MPC.COUNT = 0;

   1580  3 000414   200005 236100                    LDQ     J,,AUTO
         3 000415   000003 402007                    MPY     3,DL
         3 000416   000001 471400 1                  LDP1    MPC_TBL$
         3 000417   100002 473506                    LDP3    2,QL,PR1
         3 000420   300000 450100                    STZ     0,,PR3

     1582     1581    3                 MPC_TBL.PTR$(J)->MPC.CONNECTS = 0;

   1581  3 000421   000001 470400 1                  LDP0    MPC_TBL$
         3 000422   000002 471506                    LDP1    2,QL,PR0
PL6.E3A0      #004=THE$INIT File=THE$ELAN.:E05TSI                                WED 07/30/97 06:11 Page:295
         3 000423   100001 450100                    STZ     1,,PR1

     1583     1582    3              END;                         /* DO NEVER                           */

     1584     1583    2              J = J + 1;

   1583  3 000424   200005 235100                    LDA     J,,AUTO
         3 000425   000001 035007                    ADLA    1,DL
         3 000426   200005 755100                    STA     J,,AUTO

     1585     1584    2           END;                            /* DO I                               */

   1584  3 000427   200004 236100                    LDQ     I,,AUTO
         3 000430   000001 036007                    ADLQ    1,DL
         3 000431   200004 756100                    STQ     I,,AUTO
         3 000432   200003 470500                    LDP0    @TD_HEAD,,AUTO
         3 000433   000001 236100                    LDQ     1,,PR0
         3 000434   000022 772000                    QRL     18
         3 000435   000000 036000 xsym               ADLQ    NUM_MPCS
         3 000436   200004 116100                    CMPQ    I,,AUTO
         3 000437   000441 600000 3                  TZE     s:1587
         3 000440   000211 603000 3                  TRC     s:1562

     1586     1585
     1587     1586                                                /* BUILD FEP TABLE                    */
     1588     1587    1           CALL GETBLK(FEP_TBL$,SIZEW(TBL)* %FEP_MAX) ALTRET(NO_MEM);

   1587  3 000441   000014 236000 4                  LDQ     12
         3 000442   200022 756100                    STQ     @PTR$+1,,AUTO
         3 000443   000015 236000 4                  LDQ     13
         3 000444   200021 756100                    STQ     FEP_NAME+4,,AUTO
         3 000445   001024 701000 3                  TSX1    GETBLK
         3 000446   001023 702000 3                  TSX2    NO_MEM

     1589     1588    1           J = 0;

   1588  3 000447   200005 450100                    STZ     J,,AUTO
PL6.E3A0      #004=THE$INIT File=THE$ELAN.:E05TSI                                WED 07/30/97 06:11 Page:296

     1590     1589    2           DO I = 1 TO %FEP_MAX;

   1589  3 000450   000001 235007                    LDA     1,DL
         3 000451   200004 755100                    STA     I,,AUTO

     1591     1590    2              FEP# = ' ';

   1590  3 000452   000016 236000 4                  LDQ     14
         3 000453   200014 552170                    STBQ    FEP#,'70'O,AUTO

     1592     1591    2              CALL BINCHAR (FEP#,I);

   1591  3 000454   200004 235100                    LDA     I,,AUTO
         3 000455   000044 773000                    LRL     36
         3 000456   200024 757100                    STAQ    @SIZE+2,,AUTO
         3 000457   000100 301500                    BTD
         3 000460   200024 000010                    NDSC9   @SIZE+2,,AUTO            cn=0,s=lsgnf,sf=0,n=8
         3 000461   200014 030003                    NDSC9   FEP#,,AUTO               cn=0,s=nosgn,sf=0,n=3

     1593     1592    2              IF(FEP#1(0) = '0' AND FEP#1(1) = '0')

   1592  3 000462   200014 236100                    LDQ     FEP#,,AUTO
         3 000463   777000 376003                    ANQ     -512,DU
         3 000464   060000 116003                    CMPQ    24576,DU
         3 000465   000502 601000 3                  TNZ     s:1594
         3 000466   200014 236100                    LDQ     FEP#,,AUTO
         3 000467   000777 376003                    ANQ     511,DU
         3 000470   000060 116003                    CMPQ    48,DU
         3 000471   000502 601000 3                  TNZ     s:1594

     1594     1593    2                 THEN CALL CONCAT(FEP_NAME,'FEP',FEP#1(2));

   1593  3 000472   000010 236000 2                  LDQ     FPT_GDS+8
         3 000473   000001 376000 4                  ANQ     1
         3 000474   000040 276007                    ORQ     32,DL
         3 000475   200015 756100                    STQ     FEP_NAME,,AUTO
PL6.E3A0      #004=THE$INIT File=THE$ELAN.:E05TSI                                WED 07/30/97 06:11 Page:297
         3 000476   040100 100500                    MLR     fill='040'O
         3 000477   200014 400001                    ADSC9   FEP#,,AUTO               cn=2,n=1
         3 000500   200015 600003                    ADSC9   FEP_NAME,,AUTO           cn=3,n=3
         3 000501   000532 710000 3                  TRA     s:1597

     1595     1594    2                 ELSE IF FEP#1(0) = '0'

   1594  3 000502   200014 236100                    LDQ     FEP#,,AUTO
         3 000503   777000 376003                    ANQ     -512,DU
         3 000504   060000 116003                    CMPQ    24576,DU
         3 000505   000523 601000 3                  TNZ     s:1596

     1596     1595    2                 THEN CALL CONCAT(FEP_NAME,'FEP',FEP#1(1),FEP#1(2));

   1595  3 000506   000010 236000 2                  LDQ     FPT_GDS+8
         3 000507   000001 376000 4                  ANQ     1
         3 000510   000040 276007                    ORQ     32,DL
         3 000511   200015 756100                    STQ     FEP_NAME,,AUTO
         3 000512   200014 236100                    LDQ     FEP#,,AUTO
         3 000513   000022 772000                    QRL     18
         3 000514   200015 552104                    STBQ    FEP_NAME,'04'O,AUTO
         3 000515   040100 100500                    MLR     fill='040'O
         3 000516   200014 400001                    ADSC9   FEP#,,AUTO               cn=2,n=1
         3 000517   200024 000004                    ADSC9   @SIZE+2,,AUTO            cn=0,n=4
         3 000520   200024 220100                    LDX0    @SIZE+2,,AUTO
         3 000521   200016 740100                    STX0    FEP_NAME+1,,AUTO
         3 000522   000532 710000 3                  TRA     s:1597

     1597     1596    2                 ELSE CALL CONCAT(FEP_NAME,'FEP',FEP#);

   1596  3 000523   000010 236000 2                  LDQ     FPT_GDS+8
         3 000524   000001 376000 4                  ANQ     1
         3 000525   000040 276007                    ORQ     32,DL
         3 000526   200015 756100                    STQ     FEP_NAME,,AUTO
         3 000527   040100 100500                    MLR     fill='040'O
         3 000530   200014 000003                    ADSC9   FEP#,,AUTO               cn=0,n=3
         3 000531   200015 600003                    ADSC9   FEP_NAME,,AUTO           cn=3,n=3
PL6.E3A0      #004=THE$INIT File=THE$ELAN.:E05TSI                                WED 07/30/97 06:11 Page:298

     1598     1597    2              FEP_TBL.DEVNAME(J) = FEP_NAME;

   1597  3 000532   200005 236100                    LDQ     J,,AUTO
         3 000533   000003 402007                    MPY     3,DL
         3 000534   000002 736000                    QLS     2
         3 000535   000002 470400 1                  LDP0    FEP_TBL$
         3 000536   040106 100500                    MLR     fill='040'O
         3 000537   200015 000006                    ADSC9   FEP_NAME,,AUTO           cn=0,n=6
         3 000540   000000 000010                    ADSC9   0,Q,PR0                  cn=0,n=8

     1599     1598    2              CALL GETBLK(FEP_TBL.PTR$(J),SIZEW(FEP)) ALTRET(NO_MEM);

   1598  3 000541   000017 236000 4                  LDQ     15
         3 000542   200022 756100                    STQ     @PTR$+1,,AUTO
         3 000543   200005 236100                    LDQ     J,,AUTO
         3 000544   000003 402003                    MPY     3,DU
         3 000545   000002 036003                    ADLQ    2,DU
         3 000546   000002 036000 1                  ADLQ    FEP_TBL$
         3 000547   200021 756100                    STQ     FEP_NAME+4,,AUTO
         3 000550   001024 701000 3                  TSX1    GETBLK
         3 000551   001023 702000 3                  TSX2    NO_MEM

     1600     1599    2              FEP_TBL.PTR$(J)->FEP = '0'B;

   1599  3 000552   200005 236100                    LDQ     J,,AUTO
         3 000553   000003 402007                    MPY     3,DL
         3 000554   000002 470400 1                  LDP0    FEP_TBL$
         3 000555   000002 471506                    LDP1    2,QL,PR0
         3 000556   100000 450100                    STZ     0,,PR1

     1601     1600    2              CALL THG$GETREC(%DEVHIST,FEP_NAME,UTS) ALTRET(L3);

   1600  3 000557   000004 236000 4                  LDQ     4
         3 000560   200026 756100                    STQ     @SIZE+4,,AUTO
         3 000561   200015 630500                    EPPR0   FEP_NAME,,AUTO
         3 000562   200025 450500                    STP0    @SIZE+3,,AUTO
PL6.E3A0      #004=THE$INIT File=THE$ELAN.:E05TSI                                WED 07/30/97 06:11 Page:299
         3 000563   000005 236000 4                  LDQ     5
         3 000564   200024 756100                    STQ     @SIZE+2,,AUTO
         3 000565   200024 630500                    EPPR0   @SIZE+2,,AUTO
         3 000566   000021 631400 xsym               EPPR1   B_VECTNIL+17
         3 000567   000000 701000 xent               TSX1    THG$GETREC
         3 000570   000601 702000 3                  TSX2    L3

     1602     1601    2              FEP_TBL.PTR$(J)->FEP = TH$FEP;

   1601  3 000571   200005 236100                    LDQ     J,,AUTO
         3 000572   000003 402007                    MPY     3,DL
         3 000573   000002 470400 1                  LDP0    FEP_TBL$
         3 000574   000002 471506                    LDP1    2,QL,PR0
         3 000575   000001 473400 xsym               LDP3    TH_RECORD+1
         3 000576   300000 236100                    LDQ     0,,PR3
         3 000577   100000 756100                    STQ     0,,PR1

     1603     1602    3              DO NEVER;

   1602  3 000600   000655 710000 3                  TRA     s:1614

     1604     1603
     1605     1604    3      L3:         /* FIND CHANNEL THAT THIS FEP IS ON AND STUFF INTO FEP RECORD  */
     1606     1605    4                 DO K = 0 TO NUM_IOMS - 1;

   1605  3 000601   200006 450100       L3           STZ     K,,AUTO
         3 000602   000652 710000 3                  TRA     s:1612+3

     1607     1606    5                    DO L = 0 TO %N_MAXCHANS-1;

   1606  3 000603   200007 450100                    STZ     L,,AUTO
         3 000604   000644 710000 3                  TRA     s:1611+3

     1608     1607    6                      IF IOM_TBL.PTR$(K)->IOM.DEVNAME(L) = FEP_TBL.DEVNAME(J) THEN DO;

   1607  3 000605   200006 236100                    LDQ     K,,AUTO
         3 000606   000003 402007                    MPY     3,DL
PL6.E3A0      #004=THE$INIT File=THE$ELAN.:E05TSI                                WED 07/30/97 06:11 Page:300
         3 000607   000000 470400 1                  LDP0    IOM_TBL$
         3 000610   000002 471506                    LDP1    2,QL,PR0
         3 000611   200007 235100                    LDA     L,,AUTO
         3 000612   000003 735000                    ALS     3
         3 000613   200005 236100                    LDQ     J,,AUTO
         3 000614   200024 755100                    STA     @SIZE+2,,AUTO
         3 000615   000014 402007                    MPY     12,DL
         3 000616   200024 235100                    LDA     @SIZE+2,,AUTO
         3 000617   000002 473400 1                  LDP3    FEP_TBL$
         3 000620   040106 106505                    CMPC    fill='040'O
         3 000621   100000 000010                    ADSC9   0,A,PR1                  cn=0,n=8
         3 000622   300000 000010                    ADSC9   0,Q,PR3                  cn=0,n=8
         3 000623   000641 601000 3                  TNZ     s:1611

     1609     1608    6                          FEP_TBL.PTR$(J)->FEP.CHANNEL = L;

   1608  3 000624   200005 236100                    LDQ     J,,AUTO
         3 000625   000003 402007                    MPY     3,DL
         3 000626   300002 471506                    LDP1    2,QL,PR3
         3 000627   200007 236100                    LDQ     L,,AUTO
         3 000630   000022 736000                    QLS     18
         3 000631   100000 552120                    STBQ    0,'20'O,PR1

     1610     1609    6                          FEP_TBL.PTR$(J)->FEP.IOM = K;

   1609  3 000632   200005 236100                    LDQ     J,,AUTO
         3 000633   000003 402007                    MPY     3,DL
         3 000634   000002 470400 1                  LDP0    FEP_TBL$
         3 000635   000002 471506                    LDP1    2,QL,PR0
         3 000636   200006 236100                    LDQ     K,,AUTO
         3 000637   000033 736000                    QLS     27
         3 000640   100000 552140                    STBQ    0,'40'O,PR1

     1611     1610    6                          END;  /* IF */

     1612     1611    5                    END;                   /* DO L                               */

PL6.E3A0      #004=THE$INIT File=THE$ELAN.:E05TSI                                WED 07/30/97 06:11 Page:301
   1611  3 000641   200007 235100                    LDA     L,,AUTO
         3 000642   000001 035007                    ADLA    1,DL
         3 000643   200007 755100                    STA     L,,AUTO
         3 000644   200007 235100                    LDA     L,,AUTO
         3 000645   000200 115007                    CMPA    128,DL
         3 000646   000605 602000 3                  TNC     s:1607

     1613     1612    4                 END;                      /* DO K                               */

   1612  3 000647   200006 236100                    LDQ     K,,AUTO
         3 000650   000001 036007                    ADLQ    1,DL
         3 000651   200006 756100                    STQ     K,,AUTO
         3 000652   200006 236100                    LDQ     K,,AUTO
         3 000653   000000 116000 xsym               CMPQ    NUM_IOMS
         3 000654   000603 602000 3                  TNC     s:1606

     1614     1613    3              END;                         /* DO NEVER                           */

     1615     1614    2              J = J + 1;

   1614  3 000655   200005 235100                    LDA     J,,AUTO
         3 000656   000001 035007                    ADLA    1,DL
         3 000657   200005 755100                    STA     J,,AUTO

     1616     1615    2           END;                            /* DO I                               */

   1615  3 000660   200004 236100                    LDQ     I,,AUTO
         3 000661   000001 036007                    ADLQ    1,DL
         3 000662   200004 756100                    STQ     I,,AUTO
         3 000663   000401 116007                    CMPQ    257,DL
         3 000664   000452 602000 3                  TNC     s:1590

     1617     1616
     1618     1617                                                /* BUILD DEVICE TABLE                 */
     1619     1618    1           CALL GETBLK(DEV_TBL$,SIZEW(TBL)*NUM_DEVS) ALTRET(NO_MEM);

   1618  3 000665   000000 236000 xsym               LDQ     NUM_DEVS
PL6.E3A0      #004=THE$INIT File=THE$ELAN.:E05TSI                                WED 07/30/97 06:11 Page:302
         3 000666   000003 402007                    MPY     3,DL
         3 000667   200033 756100                    STQ     @SIZE+9,,AUTO
         3 000670   200033 630500                    EPPR0   @SIZE+9,,AUTO
         3 000671   200022 450500                    STP0    @PTR$+1,,AUTO
         3 000672   000020 236000 4                  LDQ     16
         3 000673   200021 756100                    STQ     FEP_NAME+4,,AUTO
         3 000674   001024 701000 3                  TSX1    GETBLK
         3 000675   001023 702000 3                  TSX2    NO_MEM

     1620     1619    1           J = 0;

   1619  3 000676   200005 450100                    STZ     J,,AUTO

     1621     1620    2           DO I = TD_HEAD.LP_INDX TO TD_HEAD.LP_INDX + NUM_DEVS - 1;

   1620  3 000677   200003 470500                    LDP0    @TD_HEAD,,AUTO
         3 000700   000010 236100                    LDQ     8,,PR0
         3 000701   000022 772000                    QRL     18
         3 000702   200004 756100                    STQ     I,,AUTO
         3 000703   001013 710000 3                  TRA     s:1631+3

     1622     1621    2              DEV_TBL.DEVNAME(J) = TD_HEAD.DEVNAME(I);

   1621  3 000704   200005 236100                    LDQ     J,,AUTO
         3 000705   000003 402007                    MPY     3,DL
         3 000706   200004 235100                    LDA     I,,AUTO
         3 000707   000003 735000                    ALS     3
         3 000710   000002 736000                    QLS     2
         3 000711   200003 470500                    LDP0    @TD_HEAD,,AUTO
         3 000712   000003 471400 1                  LDP1    DEV_TBL$
         3 000713   040106 100505                    MLR     fill='040'O
         3 000714   000020 000010                    ADSC9   16,A,PR0                 cn=0,n=8
         3 000715   100000 000010                    ADSC9   0,Q,PR1                  cn=0,n=8

     1623     1622    2              CALL GETBLK(DEV_TBL.PTR$(J),SIZEW(DEV)) ALTRET(NO_MEM);

   1622  3 000716   000022 236000 4                  LDQ     18
PL6.E3A0      #004=THE$INIT File=THE$ELAN.:E05TSI                                WED 07/30/97 06:11 Page:303
         3 000717   200022 756100                    STQ     @PTR$+1,,AUTO
         3 000720   200005 236100                    LDQ     J,,AUTO
         3 000721   000003 402003                    MPY     3,DU
         3 000722   000002 036003                    ADLQ    2,DU
         3 000723   000003 036000 1                  ADLQ    DEV_TBL$
         3 000724   200021 756100                    STQ     FEP_NAME+4,,AUTO
         3 000725   001024 701000 3                  TSX1    GETBLK
         3 000726   001023 702000 3                  TSX2    NO_MEM

     1624     1623    2              DEV_TBL.PTR$(J)->DEV = '0'B;

   1623  3 000727   200005 236100                    LDQ     J,,AUTO
         3 000730   000003 402007                    MPY     3,DL
         3 000731   000003 470400 1                  LDP0    DEV_TBL$
         3 000732   000002 471506                    LDP1    2,QL,PR0
         3 000733   000100 100400                    MLR     fill='000'O
         3 000734   000002 000001 xsym               ADSC9   B_VECTNIL+2              cn=0,n=1
         3 000735   100000 000134                    ADSC9   0,,PR1                   cn=0,n=92

     1625     1624    2              CALL THG$GETREC(%DEVHIST,TD_HEAD.DEVNAME(I),UTS) ALTRET(L4);

   1624  3 000736   000004 236000 4                  LDQ     4
         3 000737   200026 756100                    STQ     @SIZE+4,,AUTO
         3 000740   200004 236100                    LDQ     I,,AUTO
         3 000741   000023 736000                    QLS     19
         3 000742   000020 036003                    ADLQ    16,DU
         3 000743   200003 036100                    ADLQ    @TD_HEAD,,AUTO
         3 000744   000005 235000 4                  LDA     5
         3 000745   200024 757100                    STAQ    @SIZE+2,,AUTO
         3 000746   200024 630500                    EPPR0   @SIZE+2,,AUTO
         3 000747   000021 631400 xsym               EPPR1   B_VECTNIL+17
         3 000750   000000 701000 xent               TSX1    THG$GETREC
         3 000751   000763 702000 3                  TSX2    L4

     1626     1625    2              DEV_TBL.PTR$(J)->DEV = TH$DEV;

   1625  3 000752   200005 236100                    LDQ     J,,AUTO
PL6.E3A0      #004=THE$INIT File=THE$ELAN.:E05TSI                                WED 07/30/97 06:11 Page:304
         3 000753   000003 402007                    MPY     3,DL
         3 000754   000003 470400 1                  LDP0    DEV_TBL$
         3 000755   000002 471506                    LDP1    2,QL,PR0
         3 000756   000001 473400 xsym               LDP3    TH_RECORD+1
         3 000757   000100 100500                    MLR     fill='000'O
         3 000760   300000 000134                    ADSC9   0,,PR3                   cn=0,n=92
         3 000761   100000 000134                    ADSC9   0,,PR1                   cn=0,n=92

     1627     1626    3              DO NEVER;

   1626  3 000762   001005 710000 3                  TRA     s:1630

     1628     1627    3        L4:      CALL THG$GETREC(%CONFIG,TD_HEAD.DEVNAME(I));

   1627  3 000763   200004 236100       L4           LDQ     I,,AUTO
         3 000764   000023 736000                    QLS     19
         3 000765   000020 036003                    ADLQ    16,DU
         3 000766   200003 036100                    ADLQ    @TD_HEAD,,AUTO
         3 000767   000006 235000 4                  LDA     6
         3 000770   200024 757100                    STAQ    @SIZE+2,,AUTO
         3 000771   200024 630500                    EPPR0   @SIZE+2,,AUTO
         3 000772   000020 631400 xsym               EPPR1   B_VECTNIL+16
         3 000773   000000 701000 xent               TSX1    THG$GETREC
         3 000774   000000 011000                    NOP     0

     1629     1628    3                 DEV_TBL.PTR$(J)->DEV = TD$DEV;

   1628  3 000775   200005 236100                    LDQ     J,,AUTO
         3 000776   000003 402007                    MPY     3,DL
         3 000777   000003 470400 1                  LDP0    DEV_TBL$
         3 001000   000002 471506                    LDP1    2,QL,PR0
         3 001001   000001 473400 xsym               LDP3    TH_RECORD+1
         3 001002   000100 100500                    MLR     fill='000'O
         3 001003   300000 000054                    ADSC9   0,,PR3                   cn=0,n=44
         3 001004   100000 000134                    ADSC9   0,,PR1                   cn=0,n=92

     1630     1629    3              END;                         /* DO NEVER                           */
PL6.E3A0      #004=THE$INIT File=THE$ELAN.:E05TSI                                WED 07/30/97 06:11 Page:305

     1631     1630    2              J = J + 1;

   1630  3 001005   200005 235100                    LDA     J,,AUTO
         3 001006   000001 035007                    ADLA    1,DL
         3 001007   200005 755100                    STA     J,,AUTO

     1632     1631    2           END;                            /* DO I                               */

   1631  3 001010   200004 236100                    LDQ     I,,AUTO
         3 001011   000001 036007                    ADLQ    1,DL
         3 001012   200004 756100                    STQ     I,,AUTO
         3 001013   200003 470500                    LDP0    @TD_HEAD,,AUTO
         3 001014   000010 236100                    LDQ     8,,PR0
         3 001015   000022 772000                    QRL     18
         3 001016   000000 036000 xsym               ADLQ    NUM_DEVS
         3 001017   200004 116100                    CMPQ    I,,AUTO
         3 001020   001022 600000 3                  TZE     s:1632
         3 001021   000704 603000 3                  TRC     s:1621

     1633     1632    1           RETURN;

   1632  3 001022   000000 702200 xent               TSX2  ! X66_ARET

   1628  3 001023                       NO_MEM       null
     1634     1633    1   NO_MEM: ;
     1635     1634    1           ALTRETURN;

   1634  3 001023   000000 702200 xent               TSX2  ! X66_AALT

     1636     1635        %EJECT;
PL6.E3A0      #004=THE$INIT File=THE$ELAN.:E05TSI                                WED 07/30/97 06:11 Page:306
     1637     1636    1   GETBLK: PROC(PTR$,SIZE) ALTRET;

   1636  3 001024   200020 741300       GETBLK       STX1  ! FEP_NAME+3,,AUTO

     1638     1637        /**/
     1639     1638    2   DCL PTR$ PTR;
     1640     1639    2   DCL SIZE SBIN;
     1641     1640        /**/
     1642     1641    3        DO WHILE(SIZE > ((TABLESEG.BOUND+1)/4) - POFFW(TABLE$,TABLESEG.PTR$));

   1641  3 001025   001032 710000 3                  TRA     s:1643

     1643     1642    3           CALL M$GDS(FPT_GDS) ALTRET(GDS_ERR);

   1642  3 001026   000000 630400 2                  EPPR0   FPT_GDS
         3 001027   430001 713400                    CLIMB   alt,gds
         3 001030   400400 401760                    pmme    nvectors=2
         3 001031   001064 702000 3                  TSX2    GDS_ERR

     1644     1643    3        END;                               /* DO WHILE                           */

   1643  3 001032   000004 236000 1                  LDQ     TABLESEG
         3 001033   000020 772000                    QRL     16
         3 001034   000001 036007                    ADLQ    1,DL
         3 001035   000002 772000                    QRL     2
         3 001036   000005 235000 1                  LDA     TABLESEG+1
         3 001037   000022 771000                    ARL     18
         3 001040   200024 755100                    STA     @SIZE+2,,AUTO
         3 001041   200025 756100                    STQ     @SIZE+3,,AUTO
         3 001042   200013 236100                    LDQ     TABLE$,,AUTO
         3 001043   000022 772000                    QRL     18
         3 001044   200024 136100                    SBLQ    @SIZE+2,,AUTO
         3 001045   200026 756100                    STQ     @SIZE+4,,AUTO
         3 001046   200025 236100                    LDQ     @SIZE+3,,AUTO
         3 001047   200026 136100                    SBLQ    @SIZE+4,,AUTO
         3 001050   200022 470500                    LDP0    @SIZE,,AUTO
         3 001051   000000 116100                    CMPQ    0,,PR0
PL6.E3A0      #004=THE$INIT File=THE$ELAN.:E05TSI                                WED 07/30/97 06:11 Page:307
         3 001052   001026 604000 3                  TMI     s:1642

     1645     1644    2        PTR$ = TABLE$;

   1644  3 001053   200013 236100                    LDQ     TABLE$,,AUTO
         3 001054   200021 471500                    LDP1    @PTR$,,AUTO
         3 001055   100000 756100                    STQ     0,,PR1

     1646     1645    2        TABLE$ = PINCRW(TABLE$,SIZE);

   1645  3 001056   000000 236100                    LDQ     0,,PR0
         3 001057   000022 736000                    QLS     18
         3 001060   200013 036100                    ADLQ    TABLE$,,AUTO
         3 001061   200013 756100                    STQ     TABLE$,,AUTO

     1647     1646    2        RETURN;

   1646  3 001062   200020 221300                    LDX1  ! FEP_NAME+3,,AUTO
         3 001063   000001 702211                    TSX2  ! 1,X1

   1645  3 001064                       GDS_ERR      null
     1648     1647    2   GDS_ERR: ;
     1649     1648    2        ALTRETURN;

   1648  3 001064   200020 221300                    LDX1  ! FEP_NAME+3,,AUTO
         3 001065   000000 702211                    TSX2  ! 0,X1
     1650     1649    2   END GETBLK;
     1651     1650    1   END THE$INIT;
     1652     1651        %EOD;

PL6.E3A0      #004=THE$INIT File=THE$ELAN.:E05TSI                                WED 07/30/97 06:11 Page:308
--  Include file information  --

   NI$TABLES.:E05TOU  is referenced.
   IT_SUBS_C.:E05TOU  is referenced.
   B_STRINGS_C.:E05TOU  is referenced.
   TH_SUBS_C.:E05TOU  is referenced.
   TH_DATA_R.:E05TOU  cannot be made into a system file and is referenced.
   TH$HIST.:E05TOU  is referenced.
   TD$STRUCT.:E05TOU  is referenced.
   CP_6.:E05TOU  cannot be made into a system file and is referenced.
   B$JIT_C.:E05TOU  was found in the system file and is never referenced.
   CP_6_C.:E05TOU  was found in the system file and is referenced.
      No diagnostics issued in procedure THE$INIT.
PL6.E3A0      #004=THE$INIT File=THE$ELAN.:E05TSI                                WED 07/30/97 06:11 Page:309

 **** Variables and constants ****

  ****  Section 001  Data  THE$INIT

  ****  Scalars and arrays  ****
OctLoc.c.b A Datatyp(siz) R M Lvl/name                 OctLoc.c.b A Datatyp(siz) R M Lvl/name

     3-0-0/w PTR         r     1 DEV_TBL$                   2-0-0/w PTR         r     1 FEP_TBL$
     0-0-0/w PTR         r     1 IOM_TBL$                   1-0-0/w PTR         r     1 MPC_TBL$
     4-0-0/d STRC(72)    r     1 TABLESEG                   6-0-0/w STRC(108)   r     1 TBL

  ****  Section 002 RoData THE$INIT

  ****  Scalars and arrays  ****
OctLoc.c.b A Datatyp(siz) R M Lvl/name                 OctLoc.c.b A Datatyp(siz) R M Lvl/name

     0-0-0/d STRC(216)   r     1 FPT_GDS

  ****  Auto variables  ****

  ****  Scalars and arrays  ****
OctLoc.c.b A Datatyp(siz) R M Lvl/name                 OctLoc.c.b A Datatyp(siz) R M Lvl/name

    21-0-0/w PTR         r     1 @PTR$                     22-0-0/w PTR         r     1 @SIZE
     3-0-0/w PTR         r     1 @TD_HEAD                  14-0-0/c CHAR(3)     r     1 FEP#
    14-0-0/c CHAR        r     1 FEP#1(0:2)                15-0-0/c CHAR(6)     r     1 FEP_NAME
     4-0-0/w UBIN        r     1 I                         10-0-0/c CHAR        r     1 IOM#
    11-0-0/c CHAR(8)     r     1 IOM_NAME                   5-0-0/w UBIN        r     1 J
     6-0-0/w UBIN        r     1 K                          7-0-0/w UBIN        r     1 L
    *0-0-0/w PTR         r     1 PTR$                      *0-0-0/w SBIN        r     1 SIZE
    13-0-0/w PTR         r     1 TABLE$                    *0-0-0/w STRC(648)   r     1 TD_HEAD

  ****  SYMREF variables  ****

  ****  Scalars and arrays  ****
OctLoc.c.b A Datatyp(siz) R M Lvl/name                 OctLoc.c.b A Datatyp(siz) R M Lvl/name

PL6.E3A0      #004=THE$INIT File=THE$ELAN.:E05TSI                                WED 07/30/97 06:11 Page:310
     0-0-0/w UBIN        r     1 NUM_DEVS                   0-0-0/w UBIN        r     1 NUM_IOMS
     0-0-0/w UBIN        r     1 NUM_MPCS                   0-0-0/d STRC(72)    r     1 TH_RECORD
     0-0-0/w UBIN        r     1 UTS

  ****  BASED and DCB variables  ****

  ****  Scalars and arrays  ****
OctLoc.c.b A Datatyp(siz) R M Lvl/name                 OctLoc.c.b A Datatyp(siz) R M Lvl/name

     0-0-0/w STRC(4644)  r     1 CHAN                       0-0-0/w STRC(828)   r     1 DEV
     0-0-0/w STRC(108)   r     1 DEV_TBL(0:0)
     0-0-0/w STRC        r     1 FEP
     0-0-0/w STRC(108)   r     1 FEP_TBL(0:0)
     0-0-0/w STRC(9648)  r     1 IOM
     0-0-0/w STRC(108)   r     1 IOM_TBL(0:0)
     0-0-0/w STRC(2952)  r     1 MPC
     0-0-0/w STRC(108)   r     1 MPC_TBL(0:0)
     0-0-0/w STRC(396)   r     1 TD$DEV                     0-0-0/w STRC(9540)  r     1 TD$IOM
     0-0-0/w STRC(2916)  r     1 TD$MPC                     0-0-0/w STRC(828)   r     1 TH$DEV
     0-0-0/w STRC        r     1 TH$FEP                     0-0-0/w STRC(9648)  r     1 TH$IOM
     0-0-0/w STRC(2952)  r     1 TH$MPC


   Procedure THE$INIT requires 566 words for executable code.
   Procedure THE$INIT requires 28 words of local(AUTO) storage.
PL6.E3A0      #004=THE$INIT File=THE$ELAN.:E05TSI                                WED 07/30/97 06:11 Page:311
          *** CROSS REFERENCE LISTING ***
**     DENOTES     IDENTIFIER DEFINITION
<<                 IDENTIFIER'S VALUE SET
>>                 IDENTIFIER'S VALUE USED
<>                 IDENTIFIER SET AND/OR USED
--                 IDENTIFIER REFERENCED
PL6.E3A0      #004=THE$INIT File=THE$ELAN.:E05TSI                                WED 07/30/97 06:11 Page:312
          MINI XREF LISTING

CHAN
      1374**DCL      1553--CALL     1554<<ASSIGN
CHAN.IOM_NAME
      1375**DCL      1555<<ASSIGN
DEV
      1353**DCL      1622--CALL     1623<<ASSIGN   1625<<ASSIGN   1628<<ASSIGN
DEV_TBL.DEVNAME
      1458**DCL      1621<<ASSIGN
DEV_TBL.PTR$
      1459**DCL      1622<>CALL     1623>>ASSIGN   1625>>ASSIGN   1628>>ASSIGN
DEV_TBL$
      1278**DCL      1457--IMP-PTR  1618<>CALL     1621>>ASSIGN   1622>>CALL     1623>>ASSIGN   1625>>ASSIGN
      1628>>ASSIGN
FEP
      1346**DCL      1598--CALL     1599<<ASSIGN   1601<<ASSIGN
FEP.CHANNEL
      1348**DCL      1608<<ASSIGN
FEP.IOM
      1347**DCL      1609<<ASSIGN
FEP#
      1301**DCL      1302--REDEF    1590<<ASSIGN   1591<<CALLBLT  1596>>CALLBLT
FEP#1
      1302**DCL      1592>>IF       1592>>IF       1593>>CALLBLT  1594>>IF       1595>>CALLBLT  1595>>CALLBLT
FEP_NAME
      1303**DCL      1593<<CALLBLT  1595<<CALLBLT  1596<<CALLBLT  1597>>ASSIGN   1600<>CALL
FEP_TBL.DEVNAME
      1453**DCL      1597<<ASSIGN   1607>>IF
FEP_TBL.PTR$
      1454**DCL      1598<>CALL     1599>>ASSIGN   1601>>ASSIGN   1608>>ASSIGN   1609>>ASSIGN
FEP_TBL$
      1277**DCL      1452--IMP-PTR  1587<>CALL     1597>>ASSIGN   1598>>CALL     1599>>ASSIGN   1601>>ASSIGN
      1607>>IF       1608>>ASSIGN   1609>>ASSIGN
PL6.E3A0      #004=THE$INIT File=THE$ELAN.:E05TSI                                WED 07/30/97 06:11 Page:313
FPT_GDS
      1527**DCL      1536<>CALL     1642<>CALL
FPT_GDS.V
      1527**DCL      1527--DCLINIT
GDS_ERR IN PROCEDURE GETBLK
      1645**LABEL    1642--CALLALT
GETBLK
      1636**PROC     1540--CALL     1545--CALL     1553--CALL     1559--CALL     1564--CALL     1568--CALL
      1587--CALL     1598--CALL     1618--CALL     1622--CALL
I
      1293**DCL      1541<<DOINDEX  1542>>CALLBLT  1544>>ASSIGN   1545>>CALL     1546>>ASSIGN   1548>>ASSIGN
      1551>>ASSIGN   1553>>CALL     1554>>ASSIGN   1555>>ASSIGN   1561<<DOINDEX  1562>>ASSIGN   1563>>CALL
      1567>>CALL     1589<<DOINDEX  1591>>CALLBLT  1620<<DOINDEX  1621>>ASSIGN   1624>>CALL     1627>>CALL
IOM
      1314**DCL      1545--CALL     1546<<ASSIGN   1548<<ASSIGN   1551<<ASSIGN
IOM.CHAN$
      1320**DCL      1553<>CALL     1554>>ASSIGN   1555>>ASSIGN
IOM.DEVNAME
      1315**DCL      1607>>IF
IOM#
      1297**DCL      1542<<CALLBLT  1543>>CALLBLT
IOM_NAME
      1298**DCL      1543<<CALLBLT  1544>>ASSIGN   1547<>CALL     1550<>CALL     1555>>ASSIGN
IOM_TBL.DEVNAME
      1443**DCL      1544<<ASSIGN
IOM_TBL.PTR$
      1444**DCL      1545<>CALL     1546>>ASSIGN   1548>>ASSIGN   1551>>ASSIGN   1553>>CALL     1554>>ASSIGN
      1555>>ASSIGN   1607>>IF
IOM_TBL$
      1275**DCL      1442--IMP-PTR  1540<>CALL     1544>>ASSIGN   1545>>CALL     1546>>ASSIGN   1548>>ASSIGN
      1551>>ASSIGN   1553>>CALL     1554>>ASSIGN   1555>>ASSIGN   1607>>IF
J
      1294**DCL      1560<<ASSIGN   1562>>ASSIGN   1564>>CALL     1565>>ASSIGN   1568>>CALL     1569>>ASSIGN
      1570>>ASSIGN   1571>>ASSIGN   1572>>ASSIGN   1573>>ASSIGN   1574>>ASSIGN   1575>>ASSIGN   1576>>ASSIGN
      1578>>ASSIGN   1580>>ASSIGN   1581>>ASSIGN   1583<<ASSIGN   1583>>ASSIGN   1588<<ASSIGN   1597>>ASSIGN
      1598>>CALL     1599>>ASSIGN   1601>>ASSIGN   1607>>IF       1608>>ASSIGN   1609>>ASSIGN   1614<<ASSIGN
PL6.E3A0      #004=THE$INIT File=THE$ELAN.:E05TSI                                WED 07/30/97 06:11 Page:314
      1614>>ASSIGN   1619<<ASSIGN   1621>>ASSIGN   1622>>CALL     1623>>ASSIGN   1625>>ASSIGN   1628>>ASSIGN
      1630<<ASSIGN   1630>>ASSIGN
K
      1295**DCL      1577<<DOINDEX  1578>>ASSIGN   1578>>ASSIGN   1605<<DOINDEX  1607>>IF       1609>>ASSIGN
L
      1296**DCL      1606<<DOINDEX  1607>>IF       1608>>ASSIGN
L1
      1550**LABEL    1547--CALLALT
L2
      1567**LABEL    1563--CALLALT
L3
      1605**LABEL    1600--CALLALT
L4
      1627**LABEL    1624--CALLALT
M$GDS
        54**DCL-ENT  1536--CALL     1642--CALL
MPC
      1325**DCL      1564--CALL     1565<<ASSIGN   1568--CALL     1569<<ASSIGN
MPC.CONNECTS
      1327**DCL      1581<<ASSIGN
MPC.COUNT
      1326**DCL      1580<<ASSIGN
MPC.CRPFWNAME
      1342**DCL      1576<<ASSIGN
MPC.DEVNAME
      1343**DCL      1578<<ASSIGN
MPC.FLAGS
      1336**DCL      1573<<ASSIGN
MPC.FWNAME
      1340**DCL      1574<<ASSIGN
MPC.IOCHAN
      1329**DCL      1571<<ASSIGN
MPC.LPFWNAME
      1341**DCL      1575<<ASSIGN
MPC.MODEL
      1328**DCL      1570<<ASSIGN
PL6.E3A0      #004=THE$INIT File=THE$ELAN.:E05TSI                                WED 07/30/97 06:11 Page:315
MPC.NUMDEVS
      1335**DCL      1572<<ASSIGN
MPC_TBL.DEVNAME
      1448**DCL      1562<<ASSIGN
MPC_TBL.PTR$
      1449**DCL      1564<>CALL     1565>>ASSIGN   1568<>CALL     1569>>ASSIGN   1570>>ASSIGN   1571>>ASSIGN
      1572>>ASSIGN   1573>>ASSIGN   1574>>ASSIGN   1575>>ASSIGN   1576>>ASSIGN   1578>>ASSIGN   1580>>ASSIGN
      1581>>ASSIGN
MPC_TBL$
      1276**DCL      1447--IMP-PTR  1559<>CALL     1562>>ASSIGN   1564>>CALL     1565>>ASSIGN   1568>>CALL
      1569>>ASSIGN   1570>>ASSIGN   1571>>ASSIGN   1572>>ASSIGN   1573>>ASSIGN   1574>>ASSIGN   1575>>ASSIGN
      1576>>ASSIGN   1578>>ASSIGN   1580>>ASSIGN   1581>>ASSIGN
NO_MEM
      1628**LABEL    1536--CALLALT  1540--CALLALT  1545--CALLALT  1553--CALLALT  1559--CALLALT  1564--CALLALT
      1568--CALLALT  1587--CALLALT  1598--CALLALT  1618--CALLALT  1622--CALLALT
NUM_DEVS
      1283**DCL      1618>>CALL     1620>>DOINDEX
NUM_IOMS
      1280**DCL      1540>>CALL     1541>>DOINDEX  1605>>DOINDEX
NUM_MPCS
      1281**DCL      1559>>CALL     1561>>DOINDEX
PTR$ IN PROCEDURE GETBLK
      1638**DCL      1636--PROC     1644<<ASSIGN
SIZE IN PROCEDURE GETBLK
      1639**DCL      1636--PROC     1641>>DOWHILE  1645>>ASSIGN
TABLE$
      1299**DCL      1537<<ASSIGN   1641>>DOWHILE  1644>>ASSIGN   1645<<ASSIGN   1645>>ASSIGN
TABLESEG
      1285**DCL      1527--DCLINIT
TABLESEG.BOUND
      1286**DCL      1641>>DOWHILE
TABLESEG.PTR$
      1288**DCL      1535>>IF       1537>>ASSIGN   1641>>DOWHILE
TBL
      1289**DCL      1540--CALL     1559--CALL     1587--CALL     1618--CALL
TD$DEV
PL6.E3A0      #004=THE$INIT File=THE$ELAN.:E05TSI                                WED 07/30/97 06:11 Page:316
      1493**DCL      1628>>ASSIGN
TD$IOM
      1485**DCL      1551>>ASSIGN
TD$MPC.CRPFWNAME
      1478**DCL      1576>>ASSIGN
TD$MPC.DEVNAME
      1482**DCL      1578>>ASSIGN
TD$MPC.FLAGS
      1472**DCL      1573>>ASSIGN
TD$MPC.FWNAME
      1476**DCL      1574>>ASSIGN
TD$MPC.IOCHAN
      1465**DCL      1571>>ASSIGN
TD$MPC.LPFWNAME
      1477**DCL      1575>>ASSIGN
TD$MPC.MODEL
      1464**DCL      1570>>ASSIGN
TD$MPC.NUMDEVS
      1471**DCL      1568>>CALL     1572>>ASSIGN   1577>>DOINDEX
TD_HEAD
      1233**DCL         7--PROC
TD_HEAD.DEVNAME
      1266**DCL      1562>>ASSIGN   1563<>CALL     1567<>CALL     1621>>ASSIGN   1624<>CALL     1627<>CALL
TD_HEAD.LP_INDX
      1250**DCL      1620>>DOINDEX  1620>>DOINDEX
TD_HEAD.UNITMPC_INDX
      1236**DCL      1561>>DOINDEX  1561>>DOINDEX
TH$DEV
      1403**DCL      1625>>ASSIGN
TH$FEP
      1435**DCL      1601>>ASSIGN
TH$IOM
      1424**DCL      1548>>ASSIGN
TH$MPC
      1382**DCL      1565>>ASSIGN
TH$MPC.NUMDEVS
PL6.E3A0      #004=THE$INIT File=THE$ELAN.:E05TSI                                WED 07/30/97 06:11 Page:317
      1392**DCL      1564>>CALL
THG$GETREC
      1270**DCL-ENT  1547--CALL     1550--CALL     1563--CALL     1567--CALL     1600--CALL     1624--CALL
      1627--CALL
TH_CONSTRAINTS.E_BY_B
       298**DCL       298--REDEF
TH_CONSTRAINTS.M_BY_B
       297**DCL       297--REDEF
TH_CONSTRAINTS.TYPES
       295**DCL       295--REDEF
TH_DEFAULT.E_BY_B
       306**DCL       306--REDEF
TH_DEFAULT.M_BY_B
       305**DCL       305--REDEF
TH_DEFAULT.TYPES
       303**DCL       303--REDEF
TH_RECORD.PTR$
       323**DCL      1382--IMP-PTR  1403--IMP-PTR  1424--IMP-PTR  1435--IMP-PTR  1463--IMP-PTR  1485--IMP-PTR
      1493--IMP-PTR  1548>>ASSIGN   1551>>ASSIGN   1564>>CALL     1565>>ASSIGN   1568>>CALL     1570>>ASSIGN
      1571>>ASSIGN   1572>>ASSIGN   1573>>ASSIGN   1574>>ASSIGN   1575>>ASSIGN   1576>>ASSIGN   1577>>DOINDEX
      1578>>ASSIGN   1601>>ASSIGN   1625>>ASSIGN   1628>>ASSIGN
TH_SAVE.E_BY_B
       314**DCL       314--REDEF
TH_SAVE.M_BY_B
       312**DCL       312--REDEF
TH_SAVE.TYPES
       310**DCL       311--REDEF
TH_XSA_BUF_VECTOR
       330**DCL       330--REDEF
UTS
      1300**DCL      1547<>CALL     1563<>CALL     1600<>CALL     1624<>CALL

PL6.E3A0      #005=THE$BREAK File=THE$ELAN.:E05TSI                               WED 07/30/97 06:12 Page:318
     1653        1        /*M* THE$BREAK - BREAK CONTROL FOR ELAN */
     1654        2        /*T***********************************************************/
     1655        3        /*T*                                                         */
     1656        4        /*T* Copyright (c) Bull HN Information Systems Inc., 1997    */
     1657        5        /*T*                                                         */
     1658        6        /*T***********************************************************/
     1659        7        THE$BREAK: PROC;
     1660        8        /**/
     1661        9        /* INCLUDE FILES */
     1662       10        %INCLUDE CP_6;
     1663       91        %INCLUDE TH_DATA_R;
     1664      169        /**/
     1665      170        /**/
     1666      171        /* ENTRY DEFS */
     1667      172    1   DCL THG$CLOSEXSA ENTRY ALTRET;
     1668      173        %EJECT;
PL6.E3A0      #005=THE$BREAK File=THE$ELAN.:E05TSI                               WED 07/30/97 06:12 Page:319
     1669      174    1        TH_CONSTRAINTS = TH_SAVE;
     1670      175    1        TH_NUM_REP_DEVS = 0;
     1671      176    1        TH_REP_DEVS = '0'B;
     1672      177    1        TH_LASTTYPE = -1;
     1673      178    1        TH_LAST_DEVTYPE = ' ';
     1674      179    1        CALL THG$CLOSEXSA;
     1675      180    1        UNWIND TO TH_ERR_RETURN;
     1676      181    1   END THE$BREAK;
     1677      182        %EOD;

PL6.E3A0      #005=THE$BREAK File=THE$ELAN.:E05TSI                               WED 07/30/97 06:12 Page:320
--  Include file information  --

   TH_DATA_R.:E05TOU  cannot be made into a system file and is referenced.
   CP_6.:E05TOU  cannot be made into a system file and is referenced.
   B$JIT_C.:E05TOU  was found in the system file and is never referenced.
   CP_6_C.:E05TOU  was found in the system file and is referenced.
      No diagnostics issued in procedure THE$BREAK.

   Procedure THE$BREAK requires 20 words for executable code.
   Procedure THE$BREAK requires 4 words of local(AUTO) storage.

PL6.E3A0      #005=THE$BREAK File=THE$ELAN.:E05TSI                               WED 07/30/97 06:12 Page:321

 Object Unit name= THE$BREAK                                  File name= THE$ELAN.:E05TOU
 UTS= JUL 30 '97 06:12:29.76 WED                              Compiler= PL-6/E31         Sev=      00
 SharedLib= :SHARED_SYSTEM                                    Alt SharedLib=


    ****  Control sections  ****

 Sect   Type Bound  Init  Size OctSiz  Section name(segment info)
    0   DCB   even  none     0      0  M$UC
    1   Proc  even  none    20     24  THE$BREAK

    ****  Entry defs  ****

                              Check   Calling
                             calling  sequence
  Sect OctLoc Primary Altret sequence   type   Parms  Name
     1      0   yes            yes      Std        0  THE$BREAK

  ****  Entry refs  ****

         Check        Calling
        calling       sequence
Altret sequence SRef   type   Args  Name
 yes     yes           Std       0 THG$CLOSEXSA
                       nStd      0 X66_AUTO_0
                       Std       0 B_CONSPOOL_D
                       nStd      0 X66_AUNWIND

  ****  Data refs  ****

  Flags:  r = read only, s = secondary
Flgs Name                             Flgs Name                             Flgs Name
     M$UC                                  TH_CONSTRAINTS                        TH_SAVE
     TH_ERR_RETURN                         TH_NUM_REP_DEVS                       TH_REP_DEVS
     TH_LASTTYPE                           TH_LAST_DEVTYPE                       TH_XSA_BUF_VECTOR
     B_VECTNIL
PL6.E3A0      #005=THE$BREAK File=THE$ELAN.:E05TSI                               WED 07/30/97 06:12 Page:322


     1653        1        /*M* THE$BREAK - BREAK CONTROL FOR ELAN */
     1654        2        /*T***********************************************************/
     1655        3        /*T*                                                         */
     1656        4        /*T* Copyright (c) Bull HN Information Systems Inc., 1997    */
     1657        5        /*T*                                                         */
     1658        6        /*T***********************************************************/
     1659        7        THE$BREAK: PROC;

      7  1 000000   000000 700200 xent  THE$BREAK    TSX0  ! X66_AUTO_0
         1 000001   000004 000000                    ZERO    4,0

     1660        8        /**/
     1661        9        /* INCLUDE FILES */
     1662       10        %INCLUDE CP_6;
     1663       91        %INCLUDE TH_DATA_R;
     1664      169        /**/
     1665      170        /**/
     1666      171        /* ENTRY DEFS */
     1667      172    1   DCL THG$CLOSEXSA ENTRY ALTRET;
     1668      173        %EJECT;
PL6.E3A0      #005=THE$BREAK File=THE$ELAN.:E05TSI                               WED 07/30/97 06:12 Page:323
     1669      174    1        TH_CONSTRAINTS = TH_SAVE;

    174  1 000002   000000 100400                    MLR     fill='000'O
         1 000003   000000 000333 xsym               ADSC9   TH_SAVE                  cn=0,n=219
         1 000004   000000 000333 xsym               ADSC9   TH_CONSTRAINTS           cn=0,n=219

     1670      175    1        TH_NUM_REP_DEVS = 0;

    175  1 000005   000000 450000 xsym               STZ     TH_NUM_REP_DEVS

     1671      176    1        TH_REP_DEVS = '0'B;

    176  1 000006   010000 220003                    LDX0    4096,DU
         1 000007   000040 100400                    MLR     fill='000'O
         1 000010   000002 000001 xsym               ADSC9   B_VECTNIL+2              cn=0,n=1
         1 000011   000000 000010 xsym               ADSC9   TH_REP_DEVS              cn=0,n=*X0

     1672      177    1        TH_LASTTYPE = -1;

    177  1 000012   000001 335007                    LCA     1,DL
         1 000013   000000 755000 xsym               STA     TH_LASTTYPE

     1673      178    1        TH_LAST_DEVTYPE = ' ';

    178  1 000014   040040 221003                    LDX1    16416,DU
         1 000015   000000 741000 xsym               STX1    TH_LAST_DEVTYPE

     1674      179    1        CALL THG$CLOSEXSA;

    179  1 000016   000002 631400 xsym               EPPR1   B_VECTNIL+2
         1 000017   000000 701000 xent               TSX1    THG$CLOSEXSA
         1 000020   000000 011000                    NOP     0

     1675      180    1        UNWIND TO TH_ERR_RETURN;

    180  1 000021   000000 237200 xsym               LDAQ  ! TH_ERR_RETURN
         1 000022   000000 700200 xent               TSX0  ! X66_AUNWIND
PL6.E3A0      #005=THE$BREAK File=THE$ELAN.:E05TSI                               WED 07/30/97 06:12 Page:324
         1 000023   000000 000200                    ZERO    0,128
     1676      181    1   END THE$BREAK;
     1677      182        %EOD;

PL6.E3A0      #005=THE$BREAK File=THE$ELAN.:E05TSI                               WED 07/30/97 06:12 Page:325
--  Include file information  --

   TH_DATA_R.:E05TOU  cannot be made into a system file and is referenced.
   CP_6.:E05TOU  cannot be made into a system file and is referenced.
   B$JIT_C.:E05TOU  was found in the system file and is never referenced.
   CP_6_C.:E05TOU  was found in the system file and is referenced.
      No diagnostics issued in procedure THE$BREAK.
PL6.E3A0      #005=THE$BREAK File=THE$ELAN.:E05TSI                               WED 07/30/97 06:12 Page:326

 **** Variables and constants ****

  ****  SYMREF variables  ****

  ****  Scalars and arrays  ****
OctLoc.c.b A Datatyp(siz) R M Lvl/name                 OctLoc.c.b A Datatyp(siz) R M Lvl/name

     0-0-0/d STRC(1971)  r     1 TH_CONSTRAINTS             0-0-0/d REMB        r     1 TH_ERR_RETURN
     0-0-0/w SBIN        r     1 TH_LASTTYPE                0-0-0/w CHAR(2)     r     1 TH_LAST_DEVTYPE
     0-0-0/w UBIN        r     1 TH_NUM_REP_DEVS
     0-0-0/w CHAR(8)     r     1 TH_REP_DEVS(0:511)
     0-0-0/d STRC(1971)  r     1 TH_SAVE


   Procedure THE$BREAK requires 20 words for executable code.
   Procedure THE$BREAK requires 4 words of local(AUTO) storage.
PL6.E3A0      #005=THE$BREAK File=THE$ELAN.:E05TSI                               WED 07/30/97 06:12 Page:327
          *** CROSS REFERENCE LISTING ***
**     DENOTES     IDENTIFIER DEFINITION
<<                 IDENTIFIER'S VALUE SET
>>                 IDENTIFIER'S VALUE USED
<>                 IDENTIFIER SET AND/OR USED
--                 IDENTIFIER REFERENCED
PL6.E3A0      #005=THE$BREAK File=THE$ELAN.:E05TSI                               WED 07/30/97 06:12 Page:328
          MINI XREF LISTING

THG$CLOSEXSA
       172**DCL-ENT   179--CALL
TH_CONSTRAINTS
        99**DCL       174<<ASSIGN
TH_CONSTRAINTS.E_BY_B
       102**DCL       102--REDEF
TH_CONSTRAINTS.M_BY_B
       101**DCL       101--REDEF
TH_CONSTRAINTS.TYPES
        99**DCL        99--REDEF
TH_DEFAULT.E_BY_B
       110**DCL       110--REDEF
TH_DEFAULT.M_BY_B
       109**DCL       109--REDEF
TH_DEFAULT.TYPES
       107**DCL       107--REDEF
TH_ERR_RETURN
       122**DCL       180>>UNWIND
TH_LASTTYPE
       129**DCL       177<<ASSIGN
TH_LAST_DEVTYPE
       131**DCL       178<<ASSIGN
TH_NUM_REP_DEVS
       124**DCL       175<<ASSIGN
TH_REP_DEVS
       125**DCL       176<<ASSIGN
TH_SAVE
       114**DCL       174>>ASSIGN
TH_SAVE.E_BY_B
       118**DCL       118--REDEF
TH_SAVE.M_BY_B
       116**DCL       116--REDEF
PL6.E3A0      #005=THE$BREAK File=THE$ELAN.:E05TSI                               WED 07/30/97 06:12 Page:329
TH_SAVE.TYPES
       114**DCL       115--REDEF
TH_XSA_BUF_VECTOR
       134**DCL       134--REDEF

PL6.E3A0      #006=THE$BRKMSG File=THE$ELAN.:E05TSI                              WED 07/30/97 06:12 Page:330
     1678        1        /*T***********************************************************/
     1679        2        /*T*                                                         */
     1680        3        /*T* Copyright (c) Bull HN Information Systems Inc., 1997    */
     1681        4        /*T*                                                         */
     1682        5        /*T***********************************************************/
     1683        6        THE$BRKMSG:PROC;
     1684        7        %INCLUDE CP_6;
     1685       88        %INCLUDE TH_DATA_R;
     1686      166    1   DCL M$LO DCB;
     1687      167    1   DCL MSGBUF CHAR(80) STATIC INIT(' ');
     1688      168        %FPT_TIME
     1689      169               (FPTN=CUR_TIME,
     1690      170                SOURCE=CLOCK,
     1691      171                DEST=EXT,
     1692      172                DATE=TH_DATE,
     1693      173                TIME=TH_TIME);
     1694      192        %FPT_WRITE
     1695      193               (FPTN=RECORD_DATE,
     1696      194               DCB=M$LO,
     1697      195               BUF=MSGBUF,
     1698      196               WAIT=YES);
     1699      227        %EJECT;
PL6.E3A0      #006=THE$BRKMSG File=THE$ELAN.:E05TSI                              WED 07/30/97 06:12 Page:331
     1700      228    1   IF NOT TH_BRKMSG
     1701      229    1      THEN
     1702      230    1         CALL M$TIME(CUR_TIME);
     1703      231    1   CALL CONCAT(MSGBUF,'Break at ',TH_TIME,' ',TH_DATE,'! C to continue.');
     1704      232    1   CALL M$WRITE(RECORD_DATE) ALTRET(DO_NOTHING);
     1705      233    1   DO_NOTHING:
     1706      234    1   END THE$BRKMSG;

PL6.E3A0      #006=THE$BRKMSG File=THE$ELAN.:E05TSI                              WED 07/30/97 06:12 Page:332
--  Include file information  --

   TH_DATA_R.:E05TOU  cannot be made into a system file and is referenced.
   CP_6.:E05TOU  cannot be made into a system file and is referenced.
   B$JIT_C.:E05TOU  was found in the system file and is never referenced.
   CP_6_C.:E05TOU  was found in the system file and is referenced.
      No diagnostics issued in procedure THE$BRKMSG.

   Procedure THE$BRKMSG requires 26 words for executable code.
   Procedure THE$BRKMSG requires 4 words of local(AUTO) storage.

    No errors detected in file THE$ELAN.:E05TSI    .

PL6.E3A0      #006=THE$BRKMSG File=THE$ELAN.:E05TSI                              WED 07/30/97 06:12 Page:333

 Object Unit name= THE$BRKMSG                                 File name= THE$ELAN.:E05TOU
 UTS= JUL 30 '97 06:12:39.08 WED                              Compiler= PL-6/E31         Sev=      00
 SharedLib= :SHARED_SYSTEM                                    Alt SharedLib=


    ****  Control sections  ****

 Sect   Type Bound  Init  Size OctSiz  Section name(segment info)
    0   DCB   even  none     0      0  M$UC
    1   DCB   even  none     0      0  M$LO
    2   Data  even  none    44     54  THE$BRKMSG
    3  RoData even  UTS      7      7  THE$BRKMSG
    4   Proc  even  none    26     32  THE$BRKMSG

    ****  Entry defs  ****

                              Check   Calling
                             calling  sequence
  Sect OctLoc Primary Altret sequence   type   Parms  Name
     4      0   yes            yes      Std        0  THE$BRKMSG

  ****  Entry refs  ****

         Check        Calling
        calling       sequence
Altret sequence SRef   type   Args  Name
                       nStd      0 X66_AUTO_0
                       nStd      0 X66_ARET

  ****  Data refs  ****

  Flags:  r = read only, s = secondary
Flgs Name                             Flgs Name                             Flgs Name
     M$UC                                  TH_BRKMSG                             TH_DATE
     TH_TIME                               TH_XSA_BUF_VECTOR                     M$LO
PL6.E3A0      #006=THE$BRKMSG File=THE$ELAN.:E05TSI                              WED 07/30/97 06:12 Page:334

  ****  Segment refs  ****

  Flags:  r = read only, s = secondary
Flgs Name                             Flgs Name                             Flgs Name
     ISSID                                 NULLSID
PL6.E3A0      #006=THE$BRKMSG File=THE$ELAN.:E05TSI                              WED 07/30/97 06:12 Page:335


     1678        1        /*T***********************************************************/
     1679        2        /*T*                                                         */
     1680        3        /*T* Copyright (c) Bull HN Information Systems Inc., 1997    */
     1681        4        /*T*                                                         */
     1682        5        /*T***********************************************************/
     1683        6        THE$BRKMSG:PROC;

      6  4 000000   000000 700200 xent  THE$BRKMSG   TSX0  ! X66_AUTO_0
         4 000001   000004 000000                    ZERO    4,0

     1684        7        %INCLUDE CP_6;
     1685       88        %INCLUDE TH_DATA_R;
     1686      166    1   DCL M$LO DCB;
     1687      167    1   DCL MSGBUF CHAR(80) STATIC INIT(' ');
     1688      168        %FPT_TIME
     1689      169               (FPTN=CUR_TIME,
     1690      170                SOURCE=CLOCK,
     1691      171                DEST=EXT,
     1692      172                DATE=TH_DATE,
     1693      173                TIME=TH_TIME);
     1694      192        %FPT_WRITE
     1695      193               (FPTN=RECORD_DATE,
     1696      194               DCB=M$LO,
     1697      195               BUF=MSGBUF,
     1698      196               WAIT=YES);
     1699      227        %EJECT;
PL6.E3A0      #006=THE$BRKMSG File=THE$ELAN.:E05TSI                              WED 07/30/97 06:12 Page:336
     1700      228    1   IF NOT TH_BRKMSG

    228  4 000002   000000 234000 xsym               SZN     TH_BRKMSG
         4 000003   000007 604000 4                  TMI     s:231

     1701      229    1      THEN
     1702      230    1         CALL M$TIME(CUR_TIME);

    230  4 000004   000024 630400 2                  EPPR0   CUR_TIME
         4 000005   020004 713400                    CLIMB   8196
         4 000006   402000 401760                    pmme    nvectors=5

     1703      231    1   CALL CONCAT(MSGBUF,'Break at ',TH_TIME,' ',TH_DATE,'! C to continue.');

    231  4 000007   040000 100400                    MLR     fill='040'O
         4 000010   000000 000011 3                  ADSC9   0                        cn=0,n=9
         4 000011   000000 000011 2                  ADSC9   MSGBUF                   cn=0,n=9
         4 000012   040000 100400                    MLR     fill='040'O
         4 000013   000000 000013 xsym               ADSC9   TH_TIME                  cn=0,n=11
         4 000014   000002 200013 2                  ADSC9   MSGBUF+2                 cn=1,n=11
         4 000015   040000 236003                    LDQ     16384,DU
         4 000016   000005 756000 2                  STQ     MSGBUF+5
         4 000017   040000 100400                    MLR     fill='040'O
         4 000020   000000 000012 xsym               ADSC9   TH_DATE                  cn=0,n=10
         4 000021   000005 200012 2                  ADSC9   MSGBUF+5                 cn=1,n=10
         4 000022   040000 100400                    MLR     fill='040'O
         4 000023   000003 000020 3                  ADSC9   3                        cn=0,n=16
         4 000024   000007 600061 2                  ADSC9   MSGBUF+7                 cn=3,n=49

     1704      232    1   CALL M$WRITE(RECORD_DATE) ALTRET(DO_NOTHING);

    232  4 000025   000040 630400 2                  EPPR0   RECORD_DATE
         4 000026   440001 713400                    CLIMB   alt,write
         4 000027   401400 401760                    pmme    nvectors=4
         4 000030   000031 702000 4                  TSX2    DO_NOTHING

     1705      233    1   DO_NOTHING:
PL6.E3A0      #006=THE$BRKMSG File=THE$ELAN.:E05TSI                              WED 07/30/97 06:12 Page:337
     1706      234    1   END THE$BRKMSG;

    234  4 000031                       DO_NOTHING   null
    234  4 000031   000000 702200 xent               TSX2  ! X66_ARET

PL6.E3A0      #006=THE$BRKMSG File=THE$ELAN.:E05TSI                              WED 07/30/97 06:12 Page:338
--  Include file information  --

   TH_DATA_R.:E05TOU  cannot be made into a system file and is referenced.
   CP_6.:E05TOU  cannot be made into a system file and is referenced.
   B$JIT_C.:E05TOU  was found in the system file and is never referenced.
   CP_6_C.:E05TOU  was found in the system file and is referenced.
      No diagnostics issued in procedure THE$BRKMSG.
PL6.E3A0      #006=THE$BRKMSG File=THE$ELAN.:E05TSI                              WED 07/30/97 06:12 Page:339

 **** Variables and constants ****

  ****  Section 002  Data  THE$BRKMSG

  ****  Scalars and arrays  ****
OctLoc.c.b A Datatyp(siz) R M Lvl/name                 OctLoc.c.b A Datatyp(siz) R M Lvl/name

    24-0-0/d STRC(432)   r     1 CUR_TIME                   0-0-0/c CHAR(80)    r     1 MSGBUF
    40-0-0/d STRC(432)   r     1 RECORD_DATE

  ****  SYMREF variables  ****

  ****  Scalars and arrays  ****
OctLoc.c.b A Datatyp(siz) R M Lvl/name                 OctLoc.c.b A Datatyp(siz) R M Lvl/name

     0-0-0/b BIT         r     1 TH_BRKMSG                  0-0-0/c CHAR(10)    r     1 TH_DATE
     0-0-0/c CHAR(11)    r     1 TH_TIME

  ****  BASED and DCB variables  ****

  ****  Scalars and arrays  ****
OctLoc.c.b A Datatyp(siz) R M Lvl/name                 OctLoc.c.b A Datatyp(siz) R M Lvl/name

     0-0-0N  NULL        r     1 M$LO


   Procedure THE$BRKMSG requires 26 words for executable code.
   Procedure THE$BRKMSG requires 4 words of local(AUTO) storage.

    No errors detected in file THE$ELAN.:E05TSI    .
PL6.E3A0      #006=THE$BRKMSG File=THE$ELAN.:E05TSI                              WED 07/30/97 06:12 Page:340
          *** CROSS REFERENCE LISTING ***
**     DENOTES     IDENTIFIER DEFINITION
<<                 IDENTIFIER'S VALUE SET
>>                 IDENTIFIER'S VALUE USED
<>                 IDENTIFIER SET AND/OR USED
--                 IDENTIFIER REFERENCED
PL6.E3A0      #006=THE$BRKMSG File=THE$ELAN.:E05TSI                              WED 07/30/97 06:12 Page:341
          MINI XREF LISTING

CUR_TIME
       184**DCL       230<>CALL
CUR_TIME.V
       188**DCL       184--DCLINIT
DO_NOTHING
       234**LABEL     232--CALLALT
M$TIME
        83**DCL-ENT   230--CALL
M$WRITE
        17**DCL-ENT   232--CALL
MSGBUF
       167**DCL       214--DCLINIT   215--DCLINIT   231<<CALLBLT
RECORD_DATE
       213**DCL       232<>CALL
RECORD_DATE.STATION_
       215**DCL       215--REDEF
RECORD_DATE.V
       216**DCL       213--DCLINIT
RECORD_DATE.V.DVBYTE.VFC#
       222**DCL       222--REDEF
TH_BRKMSG
       120**DCL       228>>IF
TH_CONSTRAINTS.E_BY_B
        99**DCL        99--REDEF
TH_CONSTRAINTS.M_BY_B
        98**DCL        98--REDEF
TH_CONSTRAINTS.TYPES
        96**DCL        96--REDEF
TH_DATE
       127**DCL       184--DCLINIT   185--DCLINIT   231>>CALLBLT
TH_DEFAULT.E_BY_B
       107**DCL       107--REDEF
PL6.E3A0      #006=THE$BRKMSG File=THE$ELAN.:E05TSI                              WED 07/30/97 06:12 Page:342
TH_DEFAULT.M_BY_B
       106**DCL       106--REDEF
TH_DEFAULT.TYPES
       104**DCL       104--REDEF
TH_SAVE.E_BY_B
       115**DCL       115--REDEF
TH_SAVE.M_BY_B
       113**DCL       113--REDEF
TH_SAVE.TYPES
       111**DCL       112--REDEF
TH_TIME
       127**DCL       186--DCLINIT   187--DCLINIT   231>>CALLBLT
TH_XSA_BUF_VECTOR
       131**DCL       131--REDEF
