PL6.E3A0      #003=THE$PROCESS File=THE$ELAN.:E05TSI                             WED 07/30/97 06:09 Page:83
      452        1        /*M* THE$PROCESS - PROCESS DAILY ERRLOG AND GENERATE DEVHIST */
      453        2        /*T***********************************************************/
      454        3        /*T*                                                         */
      455        4        /*T* Copyright (c) Bull HN Information Systems Inc., 1997    */
      456        5        /*T*                                                         */
      457        6        /*T***********************************************************/
      458        7        THE$PROCESS: PROC ALTRET;
      459        8        /**/
      460        9        /* INCLUDE FILES */
      461       10        %INCLUDE CP_6;
      462       91        %INCLUDE B$JIT;
      463      381        %INCLUDE B_SEGIDS_C;
      464      920        %INCLUDE NI$TABLES;
      465     1136        %INCLUDE B_ERRORS_C;
      466     2263        %INCLUDE F$DCB;
      467     2312        %INCLUDE EL$TABLES;
      468     2635        %INCLUDE TD$STRUCT;
      469     2736        %INCLUDE TH$HIST;
      470     2831        %INCLUDE TH_DATA_R;
      471     2909        %INCLUDE TH_SUBS_C;
      472     3291        %INCLUDE TH_PERR_C;
      473     3332        %INCLUDE XUD_UTS_M;
      474     3414        /**/
      475     3415        /* ENTRY DEFS */
      476     3416    1   DCL THG$GETREC ENTRY(4) ALTRET;
      477     3417    1   DCL THG$OPENXSA ENTRY(1) ALTRET;
      478     3418    1   DCL THG$CLOSEXSA ENTRY ALTRET;
      479     3419    1   DCL THE$INIT ENTRY(1) ALTRET;
      480     3420    1   DCL THM$ERRMSG ENTRY(1);
      481     3421    1   DCL THD$DEVHIST ENTRY;
      482     3422        /**/
      483     3423        /* DCBS */
      484     3424    1   DCL M$ERRLOG DCB;
      485     3425    1   DCL M$DEVHIST DCB;
      486     3426    1   DCL M$NEWDEV DCB;
      487     3427        /**/
      488     3428        /* VARS */
PL6.E3A0      #003=THE$PROCESS File=THE$ELAN.:E05TSI                             WED 07/30/97 06:09 Page:84
      489     3429    1   DCL EOF_FLG BIT(1);
      490     3430    1   DCL FOUND BIT(1);
      491     3431    1   DCL LAST_INDX UBIN;
      492     3432    1   DCL OLD_INDX UBIN WORD;
      493     3433    1   DCL LAST_REQID UBIN STATIC INIT(0);
      494     3434    1   DCL IOM$ PTR;
      495     3435    1   DCL MPC$ PTR;
      496     3436    1   DCL DEV$ PTR;
      497     3437    1   DCL FEP$ PTR;
      498     3438    1   DCL CHAN$ PTR;
      499     3439    1   DCL IOM# UBIN(3);
      500     3440    1   DCL CHAN# UBIN(9);
      501     3441    1   DCL ZERO CHAR(8) CONSTANT INIT('0       '); /* USED FOR GETREC CALLS          */
      502     3442    1   DCL ONE CHAR(8) CONSTANT INIT('1       ');
      503     3443    1   DCL TWO CHAR(8) CONSTANT INIT('2       ');
      504     3444    1   DCL THREE CHAR(8) CONSTANT INIT('3       '); /* USED FOR GETREC CALLS           */
      505     3445    1   DCL WORDBASE UBIN WORD BASED;
      506     3446    1   DCL NUM_IOMS UBIN WORD STATIC SYMDEF;
      507     3447    1   DCL NUM_MPCS UBIN WORD STATIC SYMDEF;
      508     3448    1   DCL NUM_DEVS UBIN WORD STATIC SYMDEF;
      509     3449    1   DCL NUM_FEPS UBIN WORD STATIC SYMDEF;
      510     3450    1   DCL I SBIN WORD;
      511     3451    1   DCL J SBIN;
      512     3452    1   DCL K SBIN;
      513     3453    1   DCL INDX UBIN;
      514     3454    1   DCL DCTX UBIN WORD;
      515     3455    1   DCL DCT$ PTR;
      516     3456    1   DCL 1 DCTPTR REDEF DCT$,
      517     3457    1         2 OFFSET UBIN(18) UNAL,
      518     3458    1         2 * BIT(6) UNAL,
      519     3459    1         2 SEGID BIT(12) UNAL;
      520     3460        %NI$DCT (NAME=NI$DCT,STCLASS="BASED(DCT$)");
      521     3508    1   DCL NUM_NEW_COMPS UBIN WORD STATIC INIT(0);
      522     3509    1   DCL MPC_NAME CHAR(8);
      523     3510    1   DCL IOM_TBL$ PTR SYMREF;
      524     3511    1   DCL MPC_TBL$ PTR SYMREF;
      525     3512    1   DCL FEP_TBL$ PTR SYMREF;
PL6.E3A0      #003=THE$PROCESS File=THE$ELAN.:E05TSI                             WED 07/30/97 06:09 Page:85
      526     3513    1   DCL DEV_TBL$ PTR SYMREF;
      527     3514    1   DCL CHN# CHAR(2);
      528     3515    1   DCL UTS UBIN WORD STATIC SYMDEF;
      529     3516    1   DCL CURUTS UBIN WORD STATIC;
      530     3517    1   DCL FIRST_UTS UBIN WORD STATIC INIT(0);
      531     3518    1   DCL LAST_UTS UBIN WORD STATIC INIT(0);
      532     3519    1   DCL DEVHIST_UTS UBIN WORD STATIC INIT(0);
      533     3520    1   DCL OLDEST_UTS UBIN WORD STATIC INIT(0);  /* UTS OF OLDEST RECORD */
      534     3521    1   DCL B$TCB$ PTR SYMREF;
      535     3522    1   DCL B$JIT$ PTR SYMREF;
      536     3523    1   DCL HEAD_KEY BIT(18) CONSTANT INIT('001000'O);
      537     3524    1   DCL THRESH_KEY BIT(18) CONSTANT INIT('001001'O);
      538     3525    1   DCL MAINT_KEY BIT(18) CONSTANT INIT('001002'O);
      539     3526    1   DCL UTS_KEY BIT(18) CONSTANT INIT('001003'O);
      540     3527        /**/
      541     3528    1   DCL HD_KEY BIT(18) STATIC;
      542     3529    1   DCL 1 RD_KEY STATIC,
      543     3530    1         2 COUNT UBIN BYTE UNAL INIT(12),
      544     3531    1         2 TXT CHAR(8) UNAL INIT(' '),
      545     3532    1         2 UTS UBIN WORD UNAL INIT(0);
      546     3533    1   DCL 1 KEY8 STATIC,
      547     3534    1         2 COUNT UBIN BYTE UNAL INIT(12),
      548     3535    1         2 TXT CHAR(8) UNAL INIT(' '),
      549     3536    1         2 UTS UBIN WORD UNAL INIT(0);
      550     3537        /**/
      551     3538    1   DCL 1 INFO STATIC ALIGNED,
      552     3539    1         2 BOUND UBIN(20) UNAL,
      553     3540    1         2 * BIT(16),
      554     3541    1         2 PTR$ PTR;
      555     3542    1   DCL 1 HDR STATIC ALIGNED,
      556     3543    1         2 BOUND UBIN(20) UNAL,
      557     3544    1         2 * BIT(16),
      558     3545    1         2 PTR$ PTR;
      559     3546    1   DCL TEMP_UTS UBIN;
      560     3547        /**/
      561     3548        /* MACRO DEFINITIONS */
      562     3549        %MACRO TBL (NAME=JUNK,STCLASS=BASED);
PL6.E3A0      #003=THE$PROCESS File=THE$ELAN.:E05TSI                             WED 07/30/97 06:09 Page:86
      563     3550        DCL 1 NAME(0:0) STCLASS ALIGNED,
      564     3551              2 DEVNAME CHAR(8),
      565     3552              2 PTR$ PTR;
      566     3553        %MEND;
      567     3554        /**/
      568     3555        /* MACRO INVOCATIONS */
      569     3556        %TD$HEAD (NAME=TD$HEAD,NUMDEV#=200);
      570     3592        %TD$HEAD (NAME=TH$HEAD,NUMDEV#=200);
      571     3628        %TD$HEAD (NAME=TD_HEAD,STCLASS=AUTO,NUMDEV#=200);
      572     3664        %TD$HEAD (NAME=TH_HEAD,STCLASS=AUTO,NUMDEV#=200);
      573     3700        %TH$DEV (NAME=DEV,STCLASS="BASED(DEV$)");
      574     3721        %TH$IOM (NAME=IOM,STCLASS="BASED(IOM$)");
      575     3732        %TH$MPC (NAME=MPC,STCLASS="BASED(MPC$)",NUMDEV#=32);
      576     3753        %TH$FEP (NAME=FEP,STCLASS="BASED(FEP$)");
      577     3760        %TH$CHAN (NAME=CHAN,STCLASS="BASED(CHAN$)");
      578     3767        %TH$UTS (NAME=TH$UTS);
      579     3772        /**/
      580     3773        %TH$THRESH (NAME=TH$THRESH,NUMDEV#=200);
      581     3779        %TH$THRESH (NAME=TH_THRESH,STCLASS=AUTO,NUMDEV#=200);
      582     3785        %TH$THRESH (NAME=TEMP_THRESH,STCLASS=AUTO,NUMDEV#=200);
      583     3791        %TH$MAINT (NAME=TH$MAINT,NUMDEV#=200);
      584     3796        %TH$MAINT (NAME=TH_MAINT,STCLASS=AUTO,NUMDEV#=200);
      585     3801        %TH$MAINT (NAME=TEMP_MAINT,STCLASS=AUTO,NUMDEV#=200);
      586     3806        /**/
      587     3807        %TH$MPC (NAME=TH_MPC,STCLASS=AUTO,NUMDEV#=32);
      588     3828        %TH$IOM (NAME=TH_IOM,STCLASS=AUTO);
      589     3839        %TH$FEP (NAME=TH_FEP,STCLASS=AUTO);
      590     3846        %TH$DEV (NAME=TH_DEV,STCLASS=AUTO);
      591     3867        %TH$CHAN (NAME=TH_CHAN,STCLASS=AUTO);
      592     3874        %TH$UTS (NAME=TH_UTS,STCLASS=AUTO);
      593     3879        /**/
      594     3880        %EL$ENTRY (NAME=REC_BUF,
      595     3881                   INFOSZ=4096,
      596     3882                   STCLASS=STATIC);
      597     3886        %EL$IOERR (STCLASS="BASED(TH_INFO.PTR$)");
      598     3896        %EL$EDAC (STCLASS="BASED(TH_INFO.PTR$)");
      599     3905        %EL$FEPERR (STCLASS="BASED(TH_INFO.PTR$)");
PL6.E3A0      #003=THE$PROCESS File=THE$ELAN.:E05TSI                             WED 07/30/97 06:09 Page:87
      600     3984        %EL$PROCERR (STCLASS="BASED(TH_INFO.PTR$)");
      601     3994        %EL$SPURINT (STCLASS="BASED(TH_INFO.PTR$)");
      602     3998        %EL$FEPFLT (STCLASS="BASED(TH_INFO.PTR$)");
      603     4001        /**/
      604     4002        %TBL (NAME=IOM_TBL,STCLASS="BASED(IOM_TBL$)");
      605     4007        %TBL (NAME=MPC_TBL,STCLASS="BASED(MPC_TBL$)");
      606     4012        %TBL (NAME=FEP_TBL,STCLASS="BASED(FEP_TBL$)");
      607     4017        %TBL (NAME=DEV_TBL,STCLASS="BASED(DEV_TBL$)");
      608     4022        /**/
      609     4023        %B$TCB;
      610     4026        %B$ALT;
      611     4034        /**/
      612     4035        %XUD$UTS_ENTRIES;
      613     4067        %XUD_UTS_EQU;
      614     4078        /**/
      615     4079        /* FPT DEFINITIONS */
      616     4080        %VLP_ACCT (FPTN=SYSTAC,
      617     4081                   STCLASS=CONSTANT,
      618     4082                   ACCT=':SYSTAC');
      619     4095        %FPT_OPEN (FPTN=OPEN_DEVHIST,
      620     4096                   STCLASS=CONSTANT,
      621     4097                   DCB=M$DEVHIST,
      622     4098                   NAME=DEVHIST,
      623     4099                   ACCT=DEVHIST_ACCT,
      624     4100                   FUN=UPDATE,
      625     4101                   EXIST=OLDFILE,
      626     4102                   ASN=FILE,
      627     4103                   ACS=DIRECT,
      628     4104                   ORG=KEYED);
      629     4213        %FPT_WRITE (FPTN=WRITE_DEVHIST,
      630     4214                    DCB=M$DEVHIST);
      631     4245        %FPT_CLOSE (FPTN=CLOSE_DEVHIST,
      632     4246                    STCLASS=CONSTANT,
      633     4247                    DCB=M$DEVHIST,
      634     4248                    DISP=SAVE);
      635     4290        %FPT_OPEN (FPTN=OPEN_NEWDEV,
      636     4291                   STCLASS=CONSTANT,
PL6.E3A0      #003=THE$PROCESS File=THE$ELAN.:E05TSI                             WED 07/30/97 06:09 Page:88
      637     4292                   DCB=M$NEWDEV,
      638     4293                   NAME=DEVHIST,
      639     4294                   ACCT=DEVHIST_ACCT,
      640     4295                   FUN=CREATE,
      641     4296                   EXIST=NEWFILE,
      642     4297                   ASN=FILE,
      643     4298                   SHARE=NONE,
      644     4299                   ACS=DIRECT,
      645     4300                   ACCESS=ACSLIST,
      646     4301                   ACSVEH=VEHLIST,
      647     4302                   ORG=KEYED);
      648     4411        %FPT_CLOSE (FPTN=CLOSE_NEWDEV,
      649     4412                    STCLASS=CONSTANT,
      650     4413                    DCB=M$NEWDEV,
      651     4414                    DISP=SAVE);
      652     4456        %FPT_WRITE (FPTN=WRITE_NEWDEV,
      653     4457                    DCB=M$NEWDEV,
      654     4458                    BUF=REC_BUF);
      655     4489        %FPT_OPEN (FPTN=OPEN_DEV,
      656     4490                   STCLASS=CONSTANT,
      657     4491                   DCB=M$DEVHIST,
      658     4492                   NAME=DEVHIST,
      659     4493                   ACCT=DEVHIST_ACCT,
      660     4494                   FUN=IN,
      661     4495                   EXIST=OLDFILE,
      662     4496                   ASN=FILE,
      663     4497                   ACS=DIRECT,
      664     4498                   SHARE=IN,
      665     4499                   ORG=KEYED);
      666     4608        %FPT_CLOSE (FPTN=CLOSE_DEV,
      667     4609                    STCLASS=CONSTANT,
      668     4610                    DCB=M$DEVHIST,
      669     4611                    DISP=SAVE);
      670     4653        %VLP_NAME (FPTN=DEVHIST,
      671     4654                   STCLASS=CONSTANT,
      672     4655                   NAME=':DEVHIST');
      673     4682        %FPT_TIME (FPTN=CUR_UTS,
PL6.E3A0      #003=THE$PROCESS File=THE$ELAN.:E05TSI                             WED 07/30/97 06:09 Page:89
      674     4683                   STCLASS=CONSTANT,
      675     4684                   SOURCE=CLOCK,
      676     4685                   DEST=UTS,
      677     4686                   TSTAMP=CURUTS);
      678     4705        %FPT_PFIL (FPTN=PFIL_DEVHIST,DCB=M$DEVHIST,BOF=YES);
      679     4720        %FPT_READ (FPTN=READ_DEVHIST,
      680     4721                   DCB = M$DEVHIST,
      681     4722                   BUF=REC_BUF,
      682     4723                   KEY=RD_KEY,
      683     4724                   KEYR=YES);
      684     4763        %FPT_READ (FPTN=RD_DEVHIST,
      685     4764                   DCB=M$DEVHIST,
      686     4765                   KEY=HD_KEY,
      687     4766                   BUF=REC_BUF,
      688     4767                   KEYR=YES);
      689     4806        %VLP_ATTR(FPTN=ACSLIST);
      690     4820        %VLP_ACCESS (READ=YES,EXEC=YES,ACCT='?',LAST=";");
      691     4837        %VLP_ATTR(FPTN=VEHLIST);
      692     4851        %VLP_ACSVEH(READ=YES,UPD=YES,WNEW=YES,VEHICLE='SYSCON');
      693     4868        %VLP_ACSVEH(READ=YES,UPD=YES,WNEW=YES,VEHICLE='ELAN',LAST=";");
      694     4885        /**/
      695     4886        %EJECT;
PL6.E3A0      #003=THE$PROCESS File=THE$ELAN.:E05TSI                             WED 07/30/97 06:09 Page:90
      696     4887    1        NUM_NEW_COMPS = 0;
      697     4888    1        TH_M$ERRLOG$ = DCBADDR(DCBNUM(M$ERRLOG));
      698     4889                            /* READ DEVHIST HEAD - IF NOT THERE BUILD A BLANK ONE     */
      699     4890    1        CALL THG$GETREC(%DEVHIST,ZERO) ALTRET(NO_HEAD);
      700     4891    1        IF B$JIT.MODE = %M_INT# AND TH_DEVHIST_MODE = 0
      701     4892    1           THEN RETURN;    /* :DEVHIST FILE EXISTS - NO ACTION REQUIRED */
      702     4893    2        DO NEVER;
      703     4894    2   NO_HEAD:
      704     4895    2           IF B$TCB$->B$TCB.ALT$->B$ALT.ERR.CODE = %E$NOFILE
      705     4896    3              THEN DO;
      706     4897    3                CALL THD$DEVHIST;
      707     4898    3                TH_REBUILD = '0'B;  /* TURN OFF REBUILD FLAG-  SINCE */
      708     4899                                         /* THIS IS A NEW FILE, NO NEED TO */
      709     4900                                         /* SIZE IT DOWN                   */
      710     4901    3              END;
      711     4902    2              ELSE
      712     4903    3              DO;
      713     4904    3                 CALL THM$ERRMSG;
      714     4905    3                 ALTRETURN;
      715     4906    3              END;                         /* IF                                 */
      716     4907    2        END;                               /* DO NEVER                           */
      717     4908    1        TH_HEAD = TH_RECORD.PTR$->TH$HEAD;
      718     4909    1        CALL THG$GETREC(%DEVHIST, THREE);  /* READ UTS RECORD */
      719     4910    1        TH_UTS = TH_RECORD.PTR$ -> TH$UTS;
      720     4911    1        IF DCBADDR(DCBNUM(M$DEVHIST)) -> F$DCB.ARS < 8
      721     4912    2           THEN DO;    /* UTS RECORD IS PRE-E02 */
      722     4913    2             CALL M$CLOSE(CLOSE_DEV);
      723     4914    2             CALL THD$DEVHIST;               /* REBUILD :DEVHIST FILE */
      724     4915    2             TH_HEAD = TH_RECORD.PTR$ -> TH$HEAD;
      725     4916    2             TH_REBUILD = '0'B;
      726     4917    2             GOTO READ_CONFIG_HEAD;
      727     4918    2           END;
      728     4919    1        IF TH_DEVHIST_MODE = %MIDNITE_GHOST
      729     4920    2           THEN DO;
      730     4921    2             CALL M$TIME(CUR_UTS);
      731     4922                         /* IS OLDEST RECORD > 30 DAYS OLD? */
      732     4923    2             CALL XUD$UTS_ADJ_25TH(TEMP_UTS, TH_UTS.OLDEST_UTS, (30*%UTS_25TH_DAY#));
PL6.E3A0      #003=THE$PROCESS File=THE$ELAN.:E05TSI                             WED 07/30/97 06:09 Page:91
      733     4924    2             IF TEMP_UTS > CURUTS
      734     4925    3                THEN DO;      /* NO- RETURN */
      735     4926    3                  CALL M$CLOSE(CLOSE_DEV) ALTRET(ALT);
      736     4927    3                  TH_REBUILD = '0'B;
      737     4928    3                  TH_DEVHIST_MODE = 0;
      738     4929    3                  RETURN;
      739     4930    3                END;
      740     4931    2                ELSE TH_REBUILD = '1'B;   /* YES- SET REBUILD FLAG */
      741     4932    2           END;
      742     4933
      743     4934                                 /* READ HEADER FROM CONFIG FILE AND SET UP VALUES    */
      744     4935    1   READ_CONFIG_HEAD:
      745     4936    1        CALL THG$GETREC(%CONFIG,ZERO) ALTRET(OPEN_ERR);
      746     4937    1        TD_HEAD = TH_RECORD.PTR$->TD$HEAD;
      747     4938    1        NUM_IOMS = TD_HEAD.NUMIOMS;
      748     4939    1        NUM_MPCS = TD_HEAD.NUMUNITMPCS + TD_HEAD.NUMTAPEMPCS + TD_HEAD.NUMDISKMPCS +
      749     4940    1                   TD_HEAD.NUMAPMPCS + TD_HEAD.NUMOPCS;
      750     4941    1        NUM_DEVS = TD_HEAD.NUMLPS + TD_HEAD.NUMCRS + TD_HEAD.NUMCPS + TD_HEAD.NUMDPS +
      751     4942    1             TD_HEAD.NUMMTS + TD_HEAD.NUMXXS + TD_HEAD.NUMAPS + TD_HEAD.NUMODS;
      752     4943    1        NUM_FEPS = TD_HEAD.NUMFEPS;
      753     4944
      754     4945         /* CHECK FOR NEW COMPONENTS IN THIS :CONFIG FILE - IF SO THEN ADD THIS INFO TO :DEV
              4945        HIST HEAD RECORD */
      755     4946
      756     4947    1        LAST_INDX = TH_HEAD.OD_INDX + TH_HEAD.NUMODS - 1;
      757     4948    1        OLD_INDX = LAST_INDX;
      758     4949    1        IF TH_PHONY_GHOST
      759     4950    1        THEN GOTO DO_GHOST2;
      760     4951    1        IF TH_DEVHIST_MODE ~= %TB_GHOST THEN GOTO BYPASS_CHECK;
      761     4952                                        /* CHECK FOR IOMS */
      762     4953    1   DO_GHOST2:;
      763     4954    2        DO I = TD_HEAD.IOM_INDX TO TD_HEAD.IOM_INDX + TD_HEAD.NUMIOMS - 1;
      764     4955    2           FOUND = %FALSE;
      765     4956    3           DO J = TH_HEAD.IOM_INDX TO TH_HEAD.IOM_INDX + TH_HEAD.NUMIOMS - 1;
      766     4957    3              IF TD_HEAD.DEVNAME(I) = TH_HEAD.DEVNAME(J)
      767     4958    3                 THEN FOUND = %TRUE;
      768     4959    3           END;  /* DO J */
PL6.E3A0      #003=THE$PROCESS File=THE$ELAN.:E05TSI                             WED 07/30/97 06:09 Page:92
      769     4960    2           IF NOT FOUND
      770     4961    2              THEN  /* STUFF INTO TH_HEAD.DEVNAME */
      771     4962    3              DO;
      772     4963    4                 DO K = TH_HEAD.FEP_INDX TO LAST_INDX;
      773     4964    4                    INDX = LAST_INDX - K + TH_HEAD.FEP_INDX;
      774     4965    4                    TH_HEAD.DEVNAME(INDX + 1) = TH_HEAD.DEVNAME(INDX);
      775     4966    4                 END;  /* DO K */
      776     4967    3                 TH_HEAD.NUMIOMS = TH_HEAD.NUMIOMS + 1;
      777     4968    3                 TH_HEAD.DEVNAME(TH_HEAD.IOM_INDX + TH_HEAD.NUMIOMS - 1) = TD_HEAD.
              4968                          DEVNAME(I);
      778     4969    3                 LAST_INDX = LAST_INDX + 1;
      779     4970    3                 TH_HEAD.FEP_INDX = TH_HEAD.FEP_INDX + 1;
      780     4971    3                 TH_HEAD.UNITMPC_INDX = TH_HEAD.UNITMPC_INDX + 1;
      781     4972    3                 TH_HEAD.TAPEMPC_INDX = TH_HEAD.TAPEMPC_INDX + 1;
      782     4973    3                 TH_HEAD.DISKMPC_INDX = TH_HEAD.DISKMPC_INDX + 1;
      783     4974    3                 TH_HEAD.APMPC_INDX = TH_HEAD.APMPC_INDX + 1;
      784     4975    3                 TH_HEAD.OPC_INDX = TH_HEAD.OPC_INDX + 1;
      785     4976    3                 TH_HEAD.CONSOLE_INDX = TH_HEAD.CONSOLE_INDX + 1;
      786     4977    3                 TH_HEAD.LP_INDX = TH_HEAD.LP_INDX + 1;
      787     4978    3                 TH_HEAD.CR_INDX = TH_HEAD.CR_INDX + 1;
      788     4979    3                 TH_HEAD.CP_INDX = TH_HEAD.CP_INDX + 1;
      789     4980    3                 TH_HEAD.DP_INDX = TH_HEAD.DP_INDX + 1;
      790     4981    3                 TH_HEAD.MT_INDX = TH_HEAD.MT_INDX + 1;
      791     4982    3                 TH_HEAD.XX_INDX = TH_HEAD.XX_INDX + 1;
      792     4983    3                 TH_HEAD.AP_INDX = TH_HEAD.AP_INDX + 1;
      793     4984    3                 TH_HEAD.OD_INDX = TH_HEAD.OD_INDX + 1;
      794     4985    3                 NUM_NEW_COMPS = NUM_NEW_COMPS + 1;
      795     4986    3              END;  /* IF NOT FOUND */
      796     4987    2        END;  /* DO I */
      797     4988
      798     4989    2        DO I = TD_HEAD.FEP_INDX TO TD_HEAD.FEP_INDX + TD_HEAD.NUMFEPS - 1;
      799     4990    2           FOUND = %FALSE;
      800     4991    3           DO J = TH_HEAD.FEP_INDX TO TH_HEAD.FEP_INDX + TH_HEAD.NUMFEPS - 1;
      801     4992    3              IF TD_HEAD.DEVNAME(I) = TH_HEAD.DEVNAME(J)
      802     4993    3                 THEN FOUND = %TRUE;
      803     4994    3              END;  /* DO J */
      804     4995    3           IF NOT FOUND THEN DO;
PL6.E3A0      #003=THE$PROCESS File=THE$ELAN.:E05TSI                             WED 07/30/97 06:09 Page:93
      805     4996    4              DO K = LAST_INDX DOWNTO TH_HEAD.UNITMPC_INDX;
      806     4997    4                 TH_HEAD.DEVNAME(K+1) = TH_HEAD.DEVNAME(K);
      807     4998    4                 END;  /* DO K */
      808     4999    3              TH_HEAD.DEVNAME(TH_HEAD.FEP_INDX + TH_HEAD.NUMFEPS) = TD_HEAD.DEVNAME(I);
      809     5000    3              TH_HEAD.NUMFEPS = TH_HEAD.NUMFEPS + 1;
      810     5001    3              LAST_INDX = LAST_INDX + 1;
      811     5002    3              TH_HEAD.UNITMPC_INDX = TH_HEAD.UNITMPC_INDX + 1;
      812     5003    3              TH_HEAD.TAPEMPC_INDX = TH_HEAD.TAPEMPC_INDX + 1;
      813     5004    3              TH_HEAD.DISKMPC_INDX = TH_HEAD.DISKMPC_INDX + 1;
      814     5005    3              TH_HEAD.APMPC_INDX = TH_HEAD.APMPC_INDX + 1;
      815     5006    3              TH_HEAD.OPC_INDX = TH_HEAD.OPC_INDX + 1;
      816     5007    3              TH_HEAD.CONSOLE_INDX = TH_HEAD.CONSOLE_INDX + 1;
      817     5008    3              TH_HEAD.LP_INDX = TH_HEAD.LP_INDX + 1;
      818     5009    3              TH_HEAD.CR_INDX = TH_HEAD.CR_INDX + 1;
      819     5010    3              TH_HEAD.CP_INDX = TH_HEAD.CP_INDX + 1;
      820     5011    3              TH_HEAD.DP_INDX = TH_HEAD.DP_INDX + 1;
      821     5012    3              TH_HEAD.MT_INDX = TH_HEAD.MT_INDX + 1;
      822     5013    3                 TH_HEAD.XX_INDX = TH_HEAD.XX_INDX + 1;
      823     5014    3              TH_HEAD.AP_INDX = TH_HEAD.AP_INDX + 1;
      824     5015    3              TH_HEAD.OD_INDX = TH_HEAD.OD_INDX + 1;
      825     5016    3              NUM_NEW_COMPS = NUM_NEW_COMPS + 1;
      826     5017    3              END;  /* IF NOT FOUND */
      827     5018    2           END;  /* DO I */
      828     5019
      829     5020                                        /* CHECK FOR UCS */
      830     5021    2        DO I = TD_HEAD.UNITMPC_INDX TO TD_HEAD.UNITMPC_INDX + TD_HEAD.NUMUNITMPCS - 1;
      831     5022    2           FOUND = %FALSE;
      832     5023    3           DO J = TH_HEAD.UNITMPC_INDX TO TH_HEAD.UNITMPC_INDX + TH_HEAD.NUMUNITMPCS -
              5023                    1;
      833     5024    3              IF TD_HEAD.DEVNAME(I) = TH_HEAD.DEVNAME(J)
      834     5025    3                 THEN FOUND = %TRUE;
      835     5026    3           END;                            /* DO J                               */
      836     5027    2           IF NOT FOUND
      837     5028    2              THEN                         /* STUFF INTO TH_HEAD.DEVNAME         */
      838     5029    3              DO;
      839     5030    4                 DO K = TH_HEAD.TAPEMPC_INDX TO LAST_INDX;
      840     5031    4                    INDX = LAST_INDX - K + TH_HEAD.TAPEMPC_INDX;
PL6.E3A0      #003=THE$PROCESS File=THE$ELAN.:E05TSI                             WED 07/30/97 06:09 Page:94
      841     5032    4                    TH_HEAD.DEVNAME(INDX + 1) = TH_HEAD.DEVNAME(INDX);
      842     5033    4                 END;                      /* DO K                               */
      843     5034    3                 TH_HEAD.NUMUNITMPCS = TH_HEAD.NUMUNITMPCS + 1;
      844     5035    3                 TH_HEAD.DEVNAME(TH_HEAD.UNITMPC_INDX + TH_HEAD.NUMUNITMPCS - 1) =
              5035                          TD_HEAD.DEVNAME(I);
      845     5036    3                 LAST_INDX = LAST_INDX + 1;
      846     5037    3                 TH_HEAD.TAPEMPC_INDX = TH_HEAD.TAPEMPC_INDX + 1;
      847     5038    3                 TH_HEAD.DISKMPC_INDX = TH_HEAD.DISKMPC_INDX + 1;
      848     5039    3                 TH_HEAD.APMPC_INDX = TH_HEAD.APMPC_INDX + 1;
      849     5040    3                 TH_HEAD.OPC_INDX = TH_HEAD.OPC_INDX + 1;
      850     5041    3                 TH_HEAD.CONSOLE_INDX = TH_HEAD.CONSOLE_INDX + 1;
      851     5042    3                 TH_HEAD.LP_INDX = TH_HEAD.LP_INDX + 1;
      852     5043    3                 TH_HEAD.CR_INDX = TH_HEAD.CR_INDX + 1;
      853     5044    3                 TH_HEAD.CP_INDX = TH_HEAD.CP_INDX + 1;
      854     5045    3                 TH_HEAD.DP_INDX = TH_HEAD.DP_INDX + 1;
      855     5046    3                 TH_HEAD.MT_INDX = TH_HEAD.MT_INDX + 1;
      856     5047    3                 TH_HEAD.XX_INDX = TH_HEAD.XX_INDX + 1;
      857     5048    3                 TH_HEAD.AP_INDX = TH_HEAD.AP_INDX + 1;
      858     5049    3                 TH_HEAD.OD_INDX = TH_HEAD.OD_INDX + 1;
      859     5050    3                 NUM_NEW_COMPS = NUM_NEW_COMPS + 1;
      860     5051    3              END;                         /* IF NOT FOUND                       */
      861     5052    2        END;                               /* DO I                               */
      862     5053
      863     5054                                                /* CHECK FOR TCS                      */
      864     5055    2        DO I = TD_HEAD.TAPEMPC_INDX TO TD_HEAD.TAPEMPC_INDX + TD_HEAD.NUMTAPEMPCS - 1;
      865     5056    2           FOUND = %FALSE;
      866     5057    3           DO J = TH_HEAD.TAPEMPC_INDX TO TH_HEAD.TAPEMPC_INDX + TH_HEAD.NUMTAPEMPCS -
              5057                    1;
      867     5058    3              IF TD_HEAD.DEVNAME(I) = TH_HEAD.DEVNAME(J)
      868     5059    3                 THEN FOUND = %TRUE;
      869     5060    3           END;                            /* DO J                               */
      870     5061    2           IF NOT FOUND
      871     5062    2              THEN                         /* STUFF INTO TH_HEAD.DEVNAME         */
      872     5063    3              DO;
      873     5064    4                 DO K = TH_HEAD.DISKMPC_INDX TO LAST_INDX;
      874     5065    4                    INDX = LAST_INDX - K + TH_HEAD.DISKMPC_INDX;
      875     5066    4                    TH_HEAD.DEVNAME(INDX + 1) = TH_HEAD.DEVNAME(INDX);
PL6.E3A0      #003=THE$PROCESS File=THE$ELAN.:E05TSI                             WED 07/30/97 06:09 Page:95
      876     5067    4                 END;                      /* DO K                               */
      877     5068    3                 TH_HEAD.NUMTAPEMPCS = TH_HEAD.NUMTAPEMPCS + 1;
      878     5069    3                 TH_HEAD.DEVNAME(TH_HEAD.TAPEMPC_INDX + TH_HEAD.NUMTAPEMPCS - 1) =
              5069                          TD_HEAD.DEVNAME(I);
      879     5070    3                 LAST_INDX = LAST_INDX + 1;
      880     5071    3                 TH_HEAD.DISKMPC_INDX = TH_HEAD.DISKMPC_INDX + 1;
      881     5072    3                 TH_HEAD.APMPC_INDX = TH_HEAD.APMPC_INDX + 1;
      882     5073    3                 TH_HEAD.OPC_INDX = TH_HEAD.OPC_INDX + 1;
      883     5074    3                 TH_HEAD.CONSOLE_INDX = TH_HEAD.CONSOLE_INDX + 1;
      884     5075    3                 TH_HEAD.LP_INDX = TH_HEAD.LP_INDX + 1;
      885     5076    3                 TH_HEAD.CR_INDX = TH_HEAD.CR_INDX + 1;
      886     5077    3                 TH_HEAD.CP_INDX = TH_HEAD.CP_INDX + 1;
      887     5078    3                 TH_HEAD.DP_INDX = TH_HEAD.DP_INDX + 1;
      888     5079    3                 TH_HEAD.MT_INDX = TH_HEAD.MT_INDX + 1;
      889     5080    3                 TH_HEAD.XX_INDX = TH_HEAD.XX_INDX + 1;
      890     5081    3                 TH_HEAD.AP_INDX = TH_HEAD.AP_INDX + 1;
      891     5082    3                 TH_HEAD.OD_INDX = TH_HEAD.OD_INDX + 1;
      892     5083    3                 NUM_NEW_COMPS = NUM_NEW_COMPS + 1;
      893     5084    3              END;                         /* IF NOT FOUND                       */
      894     5085    2        END;                               /* DO I                               */
      895     5086
      896     5087                                                /* CHECK FOR DCS                      */
      897     5088    2        DO I = TD_HEAD.DISKMPC_INDX TO TD_HEAD.DISKMPC_INDX + TD_HEAD.NUMDISKMPCS - 1;
      898     5089    2           FOUND = %FALSE;
      899     5090    3           DO J = TH_HEAD.DISKMPC_INDX TO TH_HEAD.DISKMPC_INDX + TH_HEAD.NUMDISKMPCS -
              5090                    1;
      900     5091    3              IF TD_HEAD.DEVNAME(I) = TH_HEAD.DEVNAME(J)
      901     5092    3                 THEN FOUND = %TRUE;
      902     5093    3           END;                            /* DO J                               */
      903     5094    2           IF NOT FOUND
      904     5095    2              THEN                         /* STUFF INTO TH_HEAD.DEVNAME         */
      905     5096    3              DO;
      906     5097    4                 DO K = TH_HEAD.APMPC_INDX TO LAST_INDX;
      907     5098    4                    INDX = LAST_INDX - K + TH_HEAD.APMPC_INDX;
      908     5099    4                    TH_HEAD.DEVNAME(INDX + 1) = TH_HEAD.DEVNAME(INDX);
      909     5100    4                 END;                      /* DO K                               */
      910     5101    3                 TH_HEAD.NUMDISKMPCS = TH_HEAD.NUMDISKMPCS + 1;
PL6.E3A0      #003=THE$PROCESS File=THE$ELAN.:E05TSI                             WED 07/30/97 06:09 Page:96
      911     5102    3                 TH_HEAD.DEVNAME(TH_HEAD.DISKMPC_INDX + TH_HEAD.NUMDISKMPCS - 1) =
              5102                          TD_HEAD.DEVNAME(I);
      912     5103    3                 LAST_INDX = LAST_INDX + 1;
      913     5104    3                 TH_HEAD.APMPC_INDX = TH_HEAD.APMPC_INDX + 1;
      914     5105    3                 TH_HEAD.OPC_INDX = TH_HEAD.OPC_INDX + 1;
      915     5106    3                 TH_HEAD.CONSOLE_INDX = TH_HEAD.CONSOLE_INDX + 1;
      916     5107    3                 TH_HEAD.LP_INDX = TH_HEAD.LP_INDX + 1;
      917     5108    3                 TH_HEAD.CR_INDX = TH_HEAD.CR_INDX + 1;
      918     5109    3                 TH_HEAD.CP_INDX = TH_HEAD.CP_INDX + 1;
      919     5110    3                 TH_HEAD.DP_INDX = TH_HEAD.DP_INDX + 1;
      920     5111    3                 TH_HEAD.MT_INDX = TH_HEAD.MT_INDX + 1;
      921     5112    3                 TH_HEAD.XX_INDX = TH_HEAD.XX_INDX + 1;
      922     5113    3                 TH_HEAD.AP_INDX = TH_HEAD.AP_INDX + 1;
      923     5114    3                 TH_HEAD.OD_INDX = TH_HEAD.OD_INDX + 1;
      924     5115    3                 NUM_NEW_COMPS = NUM_NEW_COMPS + 1;
      925     5116    3              END;                         /* IF NOT FOUND                       */
      926     5117    2        END;                               /* DO I                               */
      927     5118
      928     5119                                                /* CHECK FOR  ACS                     */
      929     5120    2        DO I = TD_HEAD.APMPC_INDX TO TD_HEAD.APMPC_INDX + TD_HEAD.NUMAPMPCS - 1;
      930     5121    2           FOUND = %FALSE;
      931     5122    3           DO J = TH_HEAD.APMPC_INDX TO TH_HEAD.APMPC_INDX + TH_HEAD.NUMAPMPCS - 1;
      932     5123    3              IF TD_HEAD.DEVNAME(I) = TH_HEAD.DEVNAME(J)
      933     5124    3                 THEN FOUND = %TRUE;
      934     5125    3           END;                            /* DO J                               */
      935     5126    2           IF NOT FOUND
      936     5127    2              THEN                         /* STUFF INTO TH_HEAD.DEVNAME         */
      937     5128    3              DO;
      938     5129    4                 DO K = TH_HEAD.OPC_INDX TO LAST_INDX;
      939     5130    4                    INDX = LAST_INDX - K + TH_HEAD.OPC_INDX;
      940     5131    4                    TH_HEAD.DEVNAME(INDX + 1) = TH_HEAD.DEVNAME(INDX);
      941     5132    4                 END;                      /* DO K                               */
      942     5133    3                 TH_HEAD.NUMAPMPCS = TH_HEAD.NUMAPMPCS + 1;
      943     5134    3                 TH_HEAD.DEVNAME(TH_HEAD.APMPC_INDX + TH_HEAD.NUMAPMPCS - 1) = TD_HEAD.
              5134                          DEVNAME(I);
      944     5135    3                 LAST_INDX = LAST_INDX + 1;
      945     5136    3                 TH_HEAD.OPC_INDX = TH_HEAD.OPC_INDX + 1;
PL6.E3A0      #003=THE$PROCESS File=THE$ELAN.:E05TSI                             WED 07/30/97 06:09 Page:97
      946     5137    3                 TH_HEAD.CONSOLE_INDX = TH_HEAD.CONSOLE_INDX + 1;
      947     5138    3                 TH_HEAD.LP_INDX = TH_HEAD.LP_INDX + 1;
      948     5139    3                 TH_HEAD.CR_INDX = TH_HEAD.CR_INDX + 1;
      949     5140    3                 TH_HEAD.CP_INDX = TH_HEAD.CP_INDX + 1;
      950     5141    3                 TH_HEAD.DP_INDX = TH_HEAD.DP_INDX + 1;
      951     5142    3                 TH_HEAD.MT_INDX = TH_HEAD.MT_INDX + 1;
      952     5143    3                 TH_HEAD.XX_INDX = TH_HEAD.XX_INDX + 1;
      953     5144    3                 TH_HEAD.AP_INDX = TH_HEAD.AP_INDX + 1;
      954     5145    3                 TH_HEAD.OD_INDX = TH_HEAD.OD_INDX + 1;
      955     5146    3                 NUM_NEW_COMPS = NUM_NEW_COMPS + 1;
      956     5147    3              END;                         /* IF NOT FOUND                       */
      957     5148    2        END;                               /* DO I                               */
      958     5149
      959     5150
      960     5151                                                /* CHECK FOR  OPCS                    */
      961     5152    2        DO I = TD_HEAD.OPC_INDX TO TD_HEAD.OPC_INDX + TD_HEAD.NUMOPCS - 1;
      962     5153    2           FOUND = %FALSE;
      963     5154    3           DO J = TH_HEAD.OPC_INDX TO TH_HEAD.OPC_INDX + TH_HEAD.NUMOPCS - 1;
      964     5155    3              IF TD_HEAD.DEVNAME(I) = TH_HEAD.DEVNAME(J)
      965     5156    3                 THEN FOUND = %TRUE;
      966     5157    3           END;                            /* DO J                               */
      967     5158    2           IF NOT FOUND
      968     5159    2              THEN                         /* STUFF INTO TH_HEAD.DEVNAME         */
      969     5160    3              DO;
      970     5161    4                 DO K = TH_HEAD.CONSOLE_INDX TO LAST_INDX;
      971     5162    4                    INDX = LAST_INDX - K + TH_HEAD.CONSOLE_INDX;
      972     5163    4                    TH_HEAD.DEVNAME(INDX + 1) = TH_HEAD.DEVNAME(INDX);
      973     5164    4                 END;                      /* DO K                               */
      974     5165    3                 TH_HEAD.NUMOPCS = TH_HEAD.NUMOPCS + 1;
      975     5166    3                 TH_HEAD.DEVNAME(TH_HEAD.OPC_INDX + TH_HEAD.NUMOPCS - 1) = TD_HEAD.
              5166                          DEVNAME(I);
      976     5167    3                 LAST_INDX = LAST_INDX + 1;
      977     5168    3                 TH_HEAD.CONSOLE_INDX = TH_HEAD.CONSOLE_INDX + 1;
      978     5169    3                 TH_HEAD.LP_INDX = TH_HEAD.LP_INDX + 1;
      979     5170    3                 TH_HEAD.CR_INDX = TH_HEAD.CR_INDX + 1;
      980     5171    3                 TH_HEAD.CP_INDX = TH_HEAD.CP_INDX + 1;
      981     5172    3                 TH_HEAD.DP_INDX = TH_HEAD.DP_INDX + 1;
PL6.E3A0      #003=THE$PROCESS File=THE$ELAN.:E05TSI                             WED 07/30/97 06:09 Page:98
      982     5173    3                 TH_HEAD.MT_INDX = TH_HEAD.MT_INDX + 1;
      983     5174    3                 TH_HEAD.XX_INDX = TH_HEAD.XX_INDX + 1;
      984     5175    3                 TH_HEAD.AP_INDX = TH_HEAD.AP_INDX + 1;
      985     5176    3                 TH_HEAD.OD_INDX = TH_HEAD.OD_INDX + 1;
      986     5177    3                 NUM_NEW_COMPS = NUM_NEW_COMPS + 1;
      987     5178    3              END;                         /* IF NOT FOUND                       */
      988     5179    2        END;                               /* DO I                               */
      989     5180
      990     5181                                                /* CHECK FOR LPS                      */
      991     5182    2        DO I = TD_HEAD.LP_INDX TO TD_HEAD.LP_INDX + TD_HEAD.NUMLPS - 1;
      992     5183    2           FOUND = %FALSE;
      993     5184    3           DO J = TH_HEAD.LP_INDX TO TH_HEAD.LP_INDX + TH_HEAD.NUMLPS - 1;
      994     5185    3              IF TD_HEAD.DEVNAME(I) = TH_HEAD.DEVNAME(J)
      995     5186    3                 THEN FOUND = %TRUE;
      996     5187    3           END;                            /* DO J                               */
      997     5188    2           IF NOT FOUND
      998     5189    2              THEN                         /* STUFF INTO TH_HEAD.DEVNAME         */
      999     5190    3              DO;
     1000     5191    4                 DO K = TH_HEAD.CR_INDX TO LAST_INDX;
     1001     5192    4                    INDX = LAST_INDX - K + TH_HEAD.CR_INDX;
     1002     5193    4                    TH_HEAD.DEVNAME(INDX + 1) = TH_HEAD.DEVNAME(INDX);
     1003     5194    4                 END;                      /* DO K                               */
     1004     5195    3                 TH_HEAD.NUMLPS = TH_HEAD.NUMLPS + 1;
     1005     5196    3                 TH_HEAD.DEVNAME(TH_HEAD.LP_INDX + TH_HEAD.NUMLPS - 1) = TD_HEAD.
              5196                          DEVNAME(I);
     1006     5197    3                 LAST_INDX = LAST_INDX + 1;
     1007     5198    3                 TH_HEAD.CR_INDX = TH_HEAD.CR_INDX + 1;
     1008     5199    3                 TH_HEAD.CP_INDX = TH_HEAD.CP_INDX + 1;
     1009     5200    3                 TH_HEAD.DP_INDX = TH_HEAD.DP_INDX + 1;
     1010     5201    3                 TH_HEAD.MT_INDX = TH_HEAD.MT_INDX + 1;
     1011     5202    3                 TH_HEAD.XX_INDX = TH_HEAD.XX_INDX + 1;
     1012     5203    3                 TH_HEAD.AP_INDX = TH_HEAD.AP_INDX + 1;
     1013     5204    3                 TH_HEAD.OD_INDX = TH_HEAD.OD_INDX + 1;
     1014     5205    3                 NUM_NEW_COMPS = NUM_NEW_COMPS + 1;
     1015     5206    3              END;                         /* IF NOT FOUND                       */
     1016     5207    2        END;                               /* DO I                               */
     1017     5208
PL6.E3A0      #003=THE$PROCESS File=THE$ELAN.:E05TSI                             WED 07/30/97 06:09 Page:99
     1018     5209                                                /* CHECK FOR CRS                      */
     1019     5210    2        DO I = TD_HEAD.CR_INDX TO TD_HEAD.CR_INDX + TD_HEAD.NUMCRS - 1;
     1020     5211    2           FOUND = %FALSE;
     1021     5212    3           DO J = TH_HEAD.CR_INDX TO TH_HEAD.CR_INDX + TH_HEAD.NUMCRS - 1;
     1022     5213    3              IF TD_HEAD.DEVNAME(I) = TH_HEAD.DEVNAME(J)
     1023     5214    3                 THEN FOUND = %TRUE;
     1024     5215    3           END;                            /* DO J                               */
     1025     5216    2           IF NOT FOUND
     1026     5217    2              THEN                         /* STUFF INTO TH_HEAD.DEVNAME         */
     1027     5218    3              DO;
     1028     5219    4                 DO K = TH_HEAD.CP_INDX TO LAST_INDX;
     1029     5220    4                    INDX = LAST_INDX - K + TH_HEAD.CP_INDX;
     1030     5221    4                    TH_HEAD.DEVNAME(INDX + 1) = TH_HEAD.DEVNAME(INDX);
     1031     5222    4                 END;                      /* DO K                               */
     1032     5223    3                 TH_HEAD.NUMCRS = TH_HEAD.NUMCRS + 1;
     1033     5224    3                 TH_HEAD.DEVNAME(TH_HEAD.CR_INDX + TH_HEAD.NUMCRS - 1) = TD_HEAD.
              5224                          DEVNAME(I);
     1034     5225    3                 LAST_INDX = LAST_INDX + 1;
     1035     5226    3                 TH_HEAD.CP_INDX = TH_HEAD.CP_INDX + 1;
     1036     5227    3                 TH_HEAD.DP_INDX = TH_HEAD.DP_INDX + 1;
     1037     5228    3                 TH_HEAD.MT_INDX = TH_HEAD.MT_INDX + 1;
     1038     5229    3                 TH_HEAD.XX_INDX = TH_HEAD.XX_INDX + 1;
     1039     5230    3                 TH_HEAD.AP_INDX = TH_HEAD.AP_INDX + 1;
     1040     5231    3                 TH_HEAD.OD_INDX = TH_HEAD.OD_INDX + 1;
     1041     5232    3                 NUM_NEW_COMPS = NUM_NEW_COMPS + 1;
     1042     5233    3              END;                         /* IF NOT FOUND                       */
     1043     5234    2        END;                               /* DO I                               */
     1044     5235
     1045     5236                                                /* CHECK FOR CPS                      */
     1046     5237    2        DO I = TD_HEAD.CP_INDX TO TD_HEAD.CP_INDX + TD_HEAD.NUMCPS - 1;
     1047     5238    2           FOUND = %FALSE;
     1048     5239    3           DO J = TH_HEAD.CP_INDX TO TH_HEAD.CP_INDX + TH_HEAD.NUMCPS - 1;
     1049     5240    3              IF TD_HEAD.DEVNAME(I) = TH_HEAD.DEVNAME(J)
     1050     5241    3                 THEN FOUND = %TRUE;
     1051     5242    3           END;                            /* DO J                               */
     1052     5243    2           IF NOT FOUND
     1053     5244    2              THEN                         /* STUFF INTO TH_HEAD.DEVNAME         */
PL6.E3A0      #003=THE$PROCESS File=THE$ELAN.:E05TSI                             WED 07/30/97 06:09 Page:100
     1054     5245    3              DO;
     1055     5246    4                 DO K = TH_HEAD.DP_INDX TO LAST_INDX;
     1056     5247    4                    INDX = LAST_INDX - K + TH_HEAD.DP_INDX;
     1057     5248    4                    TH_HEAD.DEVNAME(INDX + 1) = TH_HEAD.DEVNAME(INDX);
     1058     5249    4                 END;                      /* DO K                               */
     1059     5250    3                 TH_HEAD.NUMCPS = TH_HEAD.NUMCPS + 1;
     1060     5251    3                 TH_HEAD.DEVNAME(TH_HEAD.CP_INDX + TH_HEAD.NUMCPS - 1) = TD_HEAD.
              5251                          DEVNAME(I);
     1061     5252    3                 LAST_INDX = LAST_INDX + 1;
     1062     5253    3                 TH_HEAD.DP_INDX = TH_HEAD.DP_INDX + 1;
     1063     5254    3                 TH_HEAD.MT_INDX = TH_HEAD.MT_INDX + 1;
     1064     5255    3                 TH_HEAD.XX_INDX = TH_HEAD.XX_INDX + 1;
     1065     5256    3                 TH_HEAD.AP_INDX = TH_HEAD.AP_INDX + 1;
     1066     5257    3                 TH_HEAD.OD_INDX = TH_HEAD.OD_INDX + 1;
     1067     5258    3                 NUM_NEW_COMPS = NUM_NEW_COMPS + 1;
     1068     5259    3              END;                         /* IF NOT FOUND                       */
     1069     5260    2        END;                               /* DO I                               */
     1070     5261
     1071     5262                                                /* CHECK FOR DPS                      */
     1072     5263    2        DO I = TD_HEAD.DP_INDX TO TD_HEAD.DP_INDX + TD_HEAD.NUMDPS - 1;
     1073     5264    2           FOUND = %FALSE;
     1074     5265    3           DO J = TH_HEAD.DP_INDX TO TH_HEAD.DP_INDX + TH_HEAD.NUMDPS - 1;
     1075     5266    3              IF TD_HEAD.DEVNAME(I) = TH_HEAD.DEVNAME(J)
     1076     5267    3                 THEN FOUND = %TRUE;
     1077     5268    3           END;                            /* DO J                               */
     1078     5269    2           IF NOT FOUND
     1079     5270    2              THEN                         /* STUFF INTO TH_HEAD.DEVNAME         */
     1080     5271    3              DO;
     1081     5272    4                 DO K = TH_HEAD.MT_INDX TO LAST_INDX;
     1082     5273    4                    INDX = LAST_INDX - K + TH_HEAD.MT_INDX;
     1083     5274    4                    TH_HEAD.DEVNAME(INDX + 1) = TH_HEAD.DEVNAME(INDX);
     1084     5275    4                 END;                      /* DO K                               */
     1085     5276    3                 TH_HEAD.NUMDPS = TH_HEAD.NUMDPS + 1;
     1086     5277    3                 TH_HEAD.DEVNAME(TH_HEAD.DP_INDX + TH_HEAD.NUMDPS - 1) = TD_HEAD.
              5277                          DEVNAME(I);
     1087     5278    3                 LAST_INDX = LAST_INDX + 1;
     1088     5279    3                 TH_HEAD.MT_INDX = TH_HEAD.MT_INDX + 1;
PL6.E3A0      #003=THE$PROCESS File=THE$ELAN.:E05TSI                             WED 07/30/97 06:09 Page:101
     1089     5280    3                 TH_HEAD.XX_INDX = TH_HEAD.XX_INDX + 1;
     1090     5281    3                 TH_HEAD.AP_INDX = TH_HEAD.AP_INDX + 1;
     1091     5282    3                 TH_HEAD.OD_INDX = TH_HEAD.OD_INDX + 1;
     1092     5283    3                 NUM_NEW_COMPS = NUM_NEW_COMPS + 1;
     1093     5284    3              END;                         /* IF NOT FOUND                       */
     1094     5285    2        END;                               /* DO I                               */
     1095     5286
     1096     5287                                                /* CHECK FOR MTS                      */
     1097     5288    2        DO I = TD_HEAD.MT_INDX TO TD_HEAD.MT_INDX + TD_HEAD.NUMMTS - 1;
     1098     5289    2           FOUND = %FALSE;
     1099     5290    3           DO J = TH_HEAD.MT_INDX TO TH_HEAD.MT_INDX + TH_HEAD.NUMMTS - 1;
     1100     5291    3              IF TD_HEAD.DEVNAME(I) = TH_HEAD.DEVNAME(J)
     1101     5292    3                 THEN FOUND = %TRUE;
     1102     5293    3           END;                            /* DO J                               */
     1103     5294    2           IF NOT FOUND
     1104     5295    2              THEN                         /* STUFF INTO TH_HEAD.DEVNAME         */
     1105     5296    3              DO;
     1106     5297    4                 DO K = TH_HEAD.XX_INDX TO LAST_INDX;
     1107     5298    4                    INDX = LAST_INDX - K + TH_HEAD.XX_INDX;
     1108     5299    4                    TH_HEAD.DEVNAME(INDX + 1) = TH_HEAD.DEVNAME(INDX);
     1109     5300    4                 END;                      /* DO K                               */
     1110     5301    3                 TH_HEAD.NUMMTS = TH_HEAD.NUMMTS + 1;
     1111     5302    3                 TH_HEAD.DEVNAME(TH_HEAD.MT_INDX + TH_HEAD.NUMMTS - 1) = TD_HEAD.
              5302                          DEVNAME(I);
     1112     5303    3                 LAST_INDX = LAST_INDX + 1;
     1113     5304    3                 TH_HEAD.XX_INDX = TH_HEAD.XX_INDX + 1;
     1114     5305    3                 TH_HEAD.AP_INDX = TH_HEAD.AP_INDX + 1;
     1115     5306    3                 TH_HEAD.OD_INDX = TH_HEAD.OD_INDX + 1;
     1116     5307    3                 NUM_NEW_COMPS = NUM_NEW_COMPS + 1;
     1117     5308    3              END;                         /* IF NOT FOUND                       */
     1118     5309    2        END;                               /* DO I                               */
     1119     5310
     1120     5311                                                /* CHECK FOR XXS (dummy for old 7T's) */
     1121     5312    2           DO I = TD_HEAD.XX_INDX TO TD_HEAD.XX_INDX + TD_HEAD.NUMXXS - 1;
     1122     5313    2           FOUND = %FALSE;
     1123     5314    3              DO J = TH_HEAD.XX_INDX TO TH_HEAD.XX_INDX + TH_HEAD.NUMXXS - 1;
     1124     5315    3              IF TD_HEAD.DEVNAME(I) = TH_HEAD.DEVNAME(J)
PL6.E3A0      #003=THE$PROCESS File=THE$ELAN.:E05TSI                             WED 07/30/97 06:09 Page:102
     1125     5316    3                 THEN FOUND = %TRUE;
     1126     5317    3           END;                            /* DO J                               */
     1127     5318    2           IF NOT FOUND
     1128     5319    2              THEN                         /* STUFF INTO TH_HEAD.DEVNAME         */
     1129     5320    3              DO;
     1130     5321    4                 DO K = TH_HEAD.AP_INDX TO LAST_INDX;
     1131     5322    4                    INDX = LAST_INDX - K + TH_HEAD.AP_INDX;
     1132     5323    4                    TH_HEAD.DEVNAME(INDX + 1) = TH_HEAD.DEVNAME(INDX);
     1133     5324    4                 END;                      /* DO K                               */
     1134     5325    3                 TH_HEAD.NUMXXS = TH_HEAD.NUMXXS + 1;
     1135     5326    3                 TH_HEAD.DEVNAME(TH_HEAD.XX_INDX + TH_HEAD.NUMXXS - 1) = TD_HEAD.
              5326                          DEVNAME(I);
     1136     5327    3                 LAST_INDX = LAST_INDX + 1;
     1137     5328    3                 TH_HEAD.AP_INDX = TH_HEAD.AP_INDX + 1;
     1138     5329    3                 TH_HEAD.OD_INDX = TH_HEAD.OD_INDX + 1;
     1139     5330    3                 NUM_NEW_COMPS = NUM_NEW_COMPS + 1;
     1140     5331    3              END;                         /* IF NOT FOUND                       */
     1141     5332    2        END;                               /* DO I                               */
     1142     5333
     1143     5334                                                /* CHECK FOR  APS                     */
     1144     5335    2        DO I = TD_HEAD.AP_INDX TO TD_HEAD.AP_INDX + TD_HEAD.NUMAPS - 1;
     1145     5336    2           FOUND = %FALSE;
     1146     5337    3           DO J = TH_HEAD.AP_INDX TO TH_HEAD.AP_INDX + TH_HEAD.NUMAPS - 1;
     1147     5338    3              IF TD_HEAD.DEVNAME(I) = TH_HEAD.DEVNAME(J)
     1148     5339    3                 THEN FOUND = %TRUE;
     1149     5340    3           END;                            /* DO J                               */
     1150     5341    2           IF NOT FOUND
     1151     5342    2              THEN                         /* STUFF INTO TH_HEAD.DEVNAME         */
     1152     5343    3              DO;
     1153     5344    4                 DO K = TH_HEAD.OD_INDX TO LAST_INDX;
     1154     5345    4                    INDX = LAST_INDX - K + TH_HEAD.OD_INDX;
     1155     5346    4                    TH_HEAD.DEVNAME(INDX + 1) = TH_HEAD.DEVNAME(INDX);
     1156     5347    4                 END;                      /* DO K                               */
     1157     5348    3                 TH_HEAD.NUMAPS = TH_HEAD.NUMAPS + 1;
     1158     5349    3                 TH_HEAD.DEVNAME(TH_HEAD.AP_INDX + TH_HEAD.NUMAPS - 1) = TD_HEAD.
              5349                          DEVNAME(I);
     1159     5350    3                 LAST_INDX = LAST_INDX + 1;
PL6.E3A0      #003=THE$PROCESS File=THE$ELAN.:E05TSI                             WED 07/30/97 06:09 Page:103
     1160     5351    3                 TH_HEAD.OD_INDX = TH_HEAD.OD_INDX + 1;
     1161     5352    3                 NUM_NEW_COMPS = NUM_NEW_COMPS + 1;
     1162     5353    3              END;                         /* IF NOT FOUND                       */
     1163     5354    2        END;                               /* DO I                               */
     1164     5355
     1165     5356
     1166     5357                                                /* CHECK FOR  ODS                     */
     1167     5358    2        DO I = TD_HEAD.OD_INDX TO TD_HEAD.OD_INDX + TD_HEAD.NUMODS - 1;
     1168     5359    2           FOUND = %FALSE;
     1169     5360    3           DO J = TH_HEAD.OD_INDX TO TH_HEAD.OD_INDX + TH_HEAD.NUMODS - 1;
     1170     5361    3              IF TD_HEAD.DEVNAME(I) = TH_HEAD.DEVNAME(J)
     1171     5362    3                 THEN FOUND = %TRUE;
     1172     5363    3           END;                            /* DO J                               */
     1173     5364    2           IF NOT FOUND
     1174     5365    2              THEN                         /* STUFF INTO TH_HEAD.DEVNAME         */
     1175     5366    3              DO;
     1176     5367    3                 TH_HEAD.NUMODS = TH_HEAD.NUMODS + 1;
     1177     5368    3                 TH_HEAD.DEVNAME(TH_HEAD.OD_INDX + TH_HEAD.NUMODS - 1) = TD_HEAD.
              5368                          DEVNAME(I);
     1178     5369    3                 LAST_INDX = LAST_INDX + 1;
     1179     5370    3                 NUM_NEW_COMPS = NUM_NEW_COMPS + 1;
     1180     5371    3              END;                         /* IF NOT FOUND                       */
     1181     5372    2        END;                               /* DO I                               */
     1182     5373
     1183     5374    1        IF NUM_NEW_COMPS > 0
     1184     5375    1           THEN                            /* UPDATE THRESH AND MAINT RECORDS    */
     1185     5376    2           DO;
     1186     5377    2              CALL THG$GETREC(%DEVHIST,ONE); /* THRESH RECORD                    */
     1187     5378    2              TH_THRESH = TH_RECORD.PTR$->TH$THRESH;
     1188     5379    2              CALL THG$GETREC(%DEVHIST,TWO); /* MAINT RECORD                     */
     1189     5380    2              TH_MAINT = TH_RECORD.PTR$->TH$MAINT;
     1190     5381    2              J = 0;
     1191     5382    3              DO I = 0 TO LAST_INDX;
     1192     5383    3                 IF (J <= OLD_INDX) AND (TH_MAINT.DEVNAME(J) = TH_HEAD.DEVNAME(I))
     1193     5384    3                    THEN                   /* OLD COMPONENT                      */
     1194     5385    4                    DO;
     1195     5386    4                       TEMP_MAINT(I) = TH_MAINT(J);
PL6.E3A0      #003=THE$PROCESS File=THE$ELAN.:E05TSI                             WED 07/30/97 06:09 Page:104
     1196     5387    4                       TEMP_THRESH(I) = TH_THRESH(J);
     1197     5388    4                       J = J + 1;
     1198     5389    4                    END;
     1199     5390    3                    ELSE                   /* NEW COMPONENT                      */
     1200     5391    4                    DO;
     1201     5392    4                       TEMP_MAINT.DEVNAME(I) = TH_HEAD.DEVNAME(I);
     1202     5393    4                       TEMP_MAINT.UTS(I) = 0;
     1203     5394    4                       TEMP_THRESH.DEVNAME(I) = TH_HEAD.DEVNAME(I);
     1204     5395    4                       TEMP_THRESH.ATTEN(I) = 9900;
     1205     5396    4                       TEMP_THRESH.ALERT(I) = 9500;
     1206     5397    4                    END;                   /* IF                                 */
     1207     5398    3              END;                         /* DO I = 0 TO LAST_INDX              */
     1208     5399    2              IF DCBADDR(DCBNUM(M$DEVHIST))->F$DCB.FCD
     1209     5400    2                 THEN CALL M$CLOSE(CLOSE_DEVHIST);
     1210     5401    2              CALL M$OPEN(OPEN_DEVHIST);
     1211     5402    2              WRITE_DEVHIST.BUF_ = VECTOR(TEMP_MAINT);
     1212     5403    2              WRITE_DEVHIST.KEY_ = VECTOR(MAINT_KEY);
     1213     5404    2              WRITE_DEVHIST.BUF_.BOUND = SIZEV(TH_MAINT) - ((200 - LAST_INDX) * 12);
     1214     5405    2              CALL M$WRITE(WRITE_DEVHIST);
     1215     5406
     1216     5407    2              WRITE_DEVHIST.KEY_ = VECTOR(THRESH_KEY);
     1217     5408    2              WRITE_DEVHIST.BUF_ = VECTOR(TEMP_THRESH);
     1218     5409    2              WRITE_DEVHIST.BUF_.BOUND = SIZEV(TH_THRESH) - ((200 - LAST_INDX) * 12);
     1219     5410    2              CALL M$WRITE(WRITE_DEVHIST);
     1220     5411    2        END;                               /* IF NUM_NEW_COMPS > 0               */
     1221     5412
     1222     5413    1   BYPASS_CHECK:
     1223     5414                            /* READ ERRLOG RECORDS AND STUFF ERROR INFO INTO RECORDS  */
     1224     5415    1        TH_CONSTRAINTS = TH_DEFAULT;
     1225     5416
     1226     5417                                                /* SET TIME CONSTRAINTS               */
     1227     5418    1        CALL THG$GETREC(%DEVHIST,THREE);   /* UTS RECORD                         */
     1228     5419    1        TH_UTS = TH_RECORD.PTR$ -> TH$UTS;
     1229     5420    1        DEVHIST_UTS = TH_UTS.ERRLOG_UTS;   /* UTS WHEN ERRLOG WAS LAST */
     1230     5421                                              /* PROCESSED AGAINST :DEVHIST */
     1231     5422    1        CALL M$TIME(CUR_UTS);
     1232     5423    1        CALL XUD$UTS_DIFF_SEC (LAST_UTS, CURUTS, 0);
PL6.E3A0      #003=THE$PROCESS File=THE$ELAN.:E05TSI                             WED 07/30/97 06:09 Page:105
     1233     5424    1        LAST_UTS = LAST_UTS / 86400;
     1234     5425    1        CALL XUD$UTS_ADJ_25TH (LAST_UTS, 0, LAST_UTS*%UTS_25TH_DAY#);
     1235     5426    2        IF DEVHIST_UTS = 0 THEN DO;
     1236     5427    2        CALL XUD$UTS_DIFF_SEC (FIRST_UTS, CURUTS, 0);
     1237     5428    2        FIRST_UTS = FIRST_UTS / 86400;
     1238     5429    2        CALL XUD$UTS_ADJ_25TH (FIRST_UTS, 0, FIRST_UTS*%UTS_25TH_DAY#);
     1239     5430    2           DEVHIST_UTS = FIRST_UTS;
     1240     5431    2           END;  /* IF DEVHIST_UTS = 0 */
     1241     5432    2        ELSE DO;
     1242     5433    2        CALL XUD$UTS_DIFF_SEC (FIRST_UTS, DEVHIST_UTS, 0);
     1243     5434    2        FIRST_UTS = FIRST_UTS / 86400;
     1244     5435    2        CALL XUD$UTS_ADJ_25TH (FIRST_UTS, 0, FIRST_UTS*%UTS_25TH_DAY#);
     1245     5436    2           CALL XUD$UTS_ADJ_25TH(OLDEST_UTS, LAST_UTS, -(30*%UTS_25TH_DAY#));
     1246     5437    2           IF OLDEST_UTS > FIRST_UTS
     1247     5438    3              THEN DO;       /* ONLY MERGE 30 DAYS WORTH OF ERROR LOG */
     1248     5439    3                FIRST_UTS = OLDEST_UTS;         /* INFO INTO :DEVHIST*/
     1249     5440    3                DEVHIST_UTS = OLDEST_UTS;
     1250     5441    3              END;
     1251     5442    2           END;  /* ELSE */
     1252     5443    1        IF DCBADDR(DCBNUM(M$DEVHIST))->F$DCB.FCD
     1253     5444    1           THEN CALL M$CLOSE(CLOSE_DEVHIST);
     1254     5445    1        CALL M$OPEN(OPEN_DEVHIST) ALTRET(ALT);
     1255     5446
     1256     5447    1        UTS = FIRST_UTS;
     1257     5448    2        DO WHILE (UTS <= LAST_UTS);
     1258     5449    2           IF UTS = FIRST_UTS
     1259     5450    2              THEN TH_CONSTRAINTS.START = DEVHIST_UTS;
     1260     5451    2              ELSE TH_CONSTRAINTS.START = UTS;
     1261     5452    2           IF UTS = LAST_UTS
     1262     5453    2              THEN TH_CONSTRAINTS.STOP = CURUTS;
     1263     5454    2              ELSE CALL XUD$UTS_ADJ_25TH (TH_CONSTRAINTS.STOP, UTS, %UTS_25TH_DAY# -1);
     1264     5455
     1265     5456                                 /* INITIALIZE MPC, FEP, IOM, DEV, AND CHAN TABLES    */
     1266     5457    2           CALL THE$INIT(TD_HEAD) ALTRET(NO_MEM);
     1267     5458    2           CALL THG$OPENXSA(TH_CONSTRAINTS.START) ALTRET(KEEP_GOING);
     1268     5459    2           EOF_FLG = %FALSE;
     1269     5460    3           DO WHILE(NOT EOF_FLG);
PL6.E3A0      #003=THE$PROCESS File=THE$ELAN.:E05TSI                             WED 07/30/97 06:09 Page:106
     1270     5461    3     LOOP:
     1271     5462    3              CALL THG$GETREC(%ERRLOG) ALTRET(EOF_LBL);
     1272     5463    4              DO CASE(TH_ITYPE);
     1273     5464    4                 CASE(%TH_IOERR);
     1274     5465    4                    IF LAST_REQID = EL$IOERR.REQID THEN GOTO LOOP;
     1275     5466    4                    IOM# = EL$IOERR.IOCHAN.IOM;
     1276     5467    4                    IF IOM# + 1 > NUM_IOMS THEN GOTO LOOP;
     1277     5468    4                    CHAN# = EL$IOERR.IOCHAN.CHAN;
     1278     5469    4                    IF EL$IOERR.THRESH.IOM
     1279     5470    4                       THEN
     1280     5471    5                       DO;
     1281     5472    5                          IOM$ = IOM_TBL.PTR$(IOM#);
     1282     5473    5                          IOM.COUNT = IOM.COUNT + 1;
     1283     5474    5                          IOM.CONNECTS = IOM.CONNECTS + EL$IOERR.CONNECTS.IOM;
     1284     5475    5                       END;
     1285     5476    4                    IF EL$IOERR.THRESH.MPC
     1286     5477    4                       THEN
     1287     5478    5                       DO;
     1288     5479    5                          MPC_NAME = IOM_TBL.PTR$(IOM#)->IOM.DEVNAME(CHAN#);
     1289     5480    6                          DO I = 0 TO NUM_MPCS - 1;
     1290     5481    6                             IF MPC_TBL.DEVNAME(I) = MPC_NAME
     1291     5482    6                                THEN
     1292     5483    7                                DO;
     1293     5484    7                                   MPC$ = MPC_TBL.PTR$(I);
     1294     5485    8                                   DO DCTX = 1 TO TH_MAXDCTX;
     1295     5486    8                                      DCT$ = TH_DCT$(DCTX);
     1296     5487    8                                      DCTPTR.SEGID = %SPCL1SID;
     1297     5488    9                                      IF NI$DCT.DEVNM = MPC_NAME THEN DO;
     1298     5489    9                                         MPC.COUNT = MPC.COUNT + 1;
     1299     5490    9                                         MPC.CONNECTS = NI$DCT.PM.CONNCT;
     1300     5491    9                                         END;  /* IF */
     1301     5492    8                                      END;  /* DO DCTX */
     1302     5493    7                                END;       /* IF                                 */
     1303     5494    6                          END;             /* DO I                               */
     1304     5495    5                       END;                /* IF THRESH.MPC                      */
     1305     5496    4                    IF EL$IOERR.THRESH.CHANNEL
     1306     5497    4                       THEN
PL6.E3A0      #003=THE$PROCESS File=THE$ELAN.:E05TSI                             WED 07/30/97 06:09 Page:107
     1307     5498    5                       DO;
     1308     5499    5                          CHAN$ = IOM_TBL.PTR$(IOM#)->IOM.CHAN$;
     1309     5500    5                          CHAN.CHANS.COUNT(CHAN#) = CHAN.CHANS.COUNT(CHAN#) + 1;
     1310     5501    5                          CHAN.CHANS.CONNECTS(CHAN#) = CHAN.CHANS.CONNECTS(CHAN#) +
     1311     5502    5                                EL$IOERR.CONNECTS.CHANNEL;
     1312     5503    5                       END;                /* IF THRESH.CHANNEL                  */
     1313     5504    4                    IF EL$IOERR.THRESH.DEVICE
     1314     5505    4                       THEN
     1315     5506    5                       DO I = 0 TO NUM_DEVS - 1;
     1316     5507    5                          IF DEV_TBL.DEVNAME(I) = EL$IOERR.DEVNM
     1317     5508    5                             THEN
     1318     5509    6                             DO;
     1319     5510    6                                DEV$ = DEV_TBL.PTR$(I);
     1320     5511    6                                DEV.COUNT(%TH_IOERR) = DEV.COUNT(%TH_IOERR) + 1;
     1321     5512    6                                DEV.CONNECTS = DEV.CONNECTS + EL$IOERR.CONNECTS.DEVICE;
     1322     5513    6                             END;          /* IF                                 */
     1323     5514    5                       END;                /* DO I                               */
     1324     5515    4                   LAST_REQID = EL$IOERR.REQID;
     1325     5516    4                 CASE(ELSE);
     1326     5517                                                /* UNIMPLIMENTED AS YET               */
     1327     5518    4              END;                         /* DO CASE TH_ITYPE                   */
     1328     5519    4              DO NEVER;
     1329     5520    4      EOF_LBL:   EOF_FLG = %TRUE;
     1330     5521    4              END;                         /* DO NEVER                           */
     1331     5522    3           END;                            /* DO WHILE NOT EOF_FLG               */
     1332     5523    2   KEEP_GOING:
     1333     5524
     1334     5525                                           /* BUILD KEYS AND WRITE RECORDS TO DEVHIST */
     1335     5526    2           IF NOT DCBADDR(DCBNUM(M$DEVHIST))->F$DCB.FCD
     1336     5527    2              THEN CALL M$OPEN(OPEN_DEVHIST) ALTRET(ALT);
     1337     5528
     1338     5529                                                /* WRITE HEAD RECORD BACK             */
     1339     5530    2           WRITE_DEVHIST.KEY_ = VECTOR(HEAD_KEY);
     1340     5531    2           WRITE_DEVHIST.BUF_ = VECTOR(TH_HEAD);
     1341     5532    2           WRITE_DEVHIST.BUF_.BOUND = SIZEV(TH_HEAD) - ((200 - LAST_INDX) * 8);
     1342     5533    2           CALL M$WRITE(WRITE_DEVHIST);
     1343     5534
PL6.E3A0      #003=THE$PROCESS File=THE$ELAN.:E05TSI                             WED 07/30/97 06:09 Page:108
     1344     5535    2           KEY8.UTS = UTS;
     1345     5536    2           WRITE_DEVHIST.KEY_ = VECTOR(KEY8);
     1346     5537
     1347     5538                                                /* WRITE IOM AND CHANNEL RECORDS      */
     1348     5539    3           DO I = 0 TO NUM_IOMS - 1;
     1349     5540    3              TH_IOM = IOM_TBL.PTR$(I)->IOM;
     1350     5541    3              KEY8.TXT = IOM_TBL.DEVNAME(I);
     1351     5542    3              WRITE_DEVHIST.BUF_ = VECTOR(TH_IOM);
     1352     5543    3              CALL M$WRITE(WRITE_DEVHIST);
     1353     5544    3              TH_CHAN = IOM_TBL.PTR$(I)->IOM.CHAN$->CHAN;
     1354     5545    3              CALL BINCHAR(CHN#,I);
     1355     5546    3              CALL INSERT(KEY8.TXT,0,4,'CH',CHN#);
     1356     5547    3              WRITE_DEVHIST.BUF_ = VECTOR(TH_CHAN);
     1357     5548    3              CALL M$WRITE(WRITE_DEVHIST);
     1358     5549    3           END;                            /* DO I                               */
     1359     5550
     1360     5551                                                /* WRITE FEP RECORDS                  */
     1361     5552    3           DO I = 0 TO NUM_FEPS - 1;
     1362     5553    3              KEY8.TXT = FEP_TBL.DEVNAME(I);
     1363     5554    3              TH_FEP = FEP_TBL.PTR$(I)->FEP;
     1364     5555    3              WRITE_DEVHIST.BUF_ = VECTOR(TH_FEP);
     1365     5556    3              CALL M$WRITE(WRITE_DEVHIST);
     1366     5557    3           END;                            /* DO I                               */
     1367     5558
     1368     5559                                                /* WRITE MPC RECORDS                  */
     1369     5560    3           DO I = 0 TO NUM_MPCS - 1;
     1370     5561    3              TH_MPC = MPC_TBL.PTR$(I)->MPC;
     1371     5562    3              KEY8.TXT = MPC_TBL.DEVNAME(I);
     1372     5563    3              WRITE_DEVHIST.BUF_ = VECTOR(TH_MPC);
     1373     5564    3              WRITE_DEVHIST.BUF_.BOUND = SIZEV(MPC) - (8 * (33 - TH_MPC.NUMDEVS));
     1374     5565    3              CALL M$WRITE(WRITE_DEVHIST);
     1375     5566    3           END;                            /* DO I                               */
     1376     5567
     1377     5568                                                /* WRITE DEVICE RECORDS               */
     1378     5569    3           DO I = 0 TO NUM_DEVS - 1;
     1379     5570    3              KEY8.TXT = DEV_TBL.DEVNAME(I);
     1380     5571    3              TH_DEV = DEV_TBL.PTR$(I)->DEV;
PL6.E3A0      #003=THE$PROCESS File=THE$ELAN.:E05TSI                             WED 07/30/97 06:09 Page:109
     1381     5572    3              WRITE_DEVHIST.BUF_ = VECTOR(TH_DEV);
     1382     5573    3              CALL M$WRITE(WRITE_DEVHIST);
     1383     5574    3           END;                            /* DO I                               */
     1384     5575    2           CALL XUD$UTS_ADJ_25TH(UTS, UTS, %UTS_25TH_DAY#);
     1385     5576    2        END;                           /* DO WHILE (UTS <= LAST_UTS) */
     1386     5577             /* Update UTS record */
     1387     5578    1        WRITE_DEVHIST.KEY_ = VECTOR(UTS_KEY);
     1388     5579    1        TH_UTS.ERRLOG_UTS = CURUTS;
     1389     5580    1        WRITE_DEVHIST.BUF_ = VECTOR(TH_UTS);
     1390     5581    1        CALL M$WRITE(WRITE_DEVHIST) ALTRET(ALT);
     1391     5582    1        CALL THG$CLOSEXSA;
     1392     5583    1        CALL M$CLOSE (CLOSE_DEV) ALTRET(ALT);
     1393     5584             /* Delete records in :DEVHIST that are more than 30 days old  */
     1394     5585    1        IF TH_REBUILD
     1395     5586    2           THEN DO;
     1396     5587    2                 CALL M$OPEN (OPEN_DEV) ALTRET(ALT);
     1397     5588    2                 CALL M$OPEN (OPEN_NEWDEV) ALTRET(ALT);
     1398     5589    2                 CALL M$TIME (CUR_UTS) ALTRET(ALT);
     1399     5590    2                 CALL XUD$UTS_ADJ_25TH(OLDEST_UTS, CURUTS, -(30*%UTS_25TH_DAY#));
     1400     5591    2                 CALL M$PFIL (PFIL_DEVHIST) ALTRET(ALT);
     1401     5592    3                 DO I = 1 TO 3;
     1402     5593    3                    CALL M$READ (RD_DEVHIST) ALTRET(END_OF_DEV);
     1403     5594    3                    WRITE_NEWDEV.KEY_ = VECTOR(HD_KEY);
     1404     5595    3                    WRITE_NEWDEV.BUF_.BOUND = DCBADDR(DCBNUM(M$DEVHIST))->F$DCB.ARS - 1
              5595                             ;
     1405     5596    3                    CALL M$WRITE (WRITE_NEWDEV);
     1406     5597    3                 END;
     1407     5598    2                 CALL M$READ(RD_DEVHIST) ALTRET(END_OF_DEV);
     1408     5599    2                 WRITE_NEWDEV.KEY_ = VECTOR(HD_KEY);
     1409     5600    2                 WRITE_NEWDEV.BUF_.BOUND =
     1410     5601    2                   DCBADDR(DCBNUM(M$DEVHIST)) -> F$DCB.ARS - 1;
     1411     5602    2                 ADDR(REC_BUF) -> TH$UTS.OLDEST_UTS = OLDEST_UTS;
     1412     5603    2                 CALL M$WRITE(WRITE_NEWDEV);  /* WRITE UTS RECORD */
     1413     5604    2        READ_DEVHIST:
     1414     5605    2                 CALL M$READ (READ_DEVHIST) ALTRET(END_OF_DEV);
     1415     5606    2                 IF OLDEST_UTS > RD_KEY.UTS
     1416     5607    2                    THEN;
PL6.E3A0      #003=THE$PROCESS File=THE$ELAN.:E05TSI                             WED 07/30/97 06:09 Page:110
     1417     5608    3                    ELSE DO;
     1418     5609    3                       WRITE_NEWDEV.KEY_ = VECTOR(RD_KEY);
     1419     5610    3                       WRITE_NEWDEV.BUF_.BOUND = DCBADDR(DCBNUM(M$DEVHIST))->F$DCB.ARS
              5610                                - 1;
     1420     5611    3                       CALL M$WRITE(WRITE_NEWDEV);
     1421     5612    3                    END;
     1422     5613    2                 GOTO READ_DEVHIST;
     1423     5614    2        END_OF_DEV:
     1424     5615    2                 CALL M$CLOSE(CLOSE_DEVHIST) ALTRET(ALT);
     1425     5616    2                 CALL M$CLOSE(CLOSE_NEWDEV) ALTRET(ALT);
     1426     5617    2                 TH_REBUILD = '0'B;
     1427     5618    2           END;
     1428     5619    1        RETURN;
     1429     5620    1   NO_MEM:
     1430     5621    1        CALL THM$ERRMSG(%E$TH_NO_MEM);
     1431     5622    1        ALTRETURN;
     1432     5623             /*E* ERROR: THE-E$TH_NO_MEM-0
     1433     5624                  MESSAGE: NO MEMORY FOR ELAN TO BUILD INTERNAL TABLES -
     1434     5625                           UNABLE TO BUILD HISTORY FILE - ELAN ABORTING */
     1435     5626    1   OPEN_ERR:
     1436     5627    1        CALL THM$ERRMSG(%E$TH_BAD_CONFIG);
     1437     5628    1        ALTRETURN;
     1438     5629             /*E* ERROR: THE-E$TH_BAD_CONFIG-0
     1439     5630                  MESSAGE: UNABLE TO ACCESS :CONFIG FILE - ELAN ABORTING */
     1440     5631    1   ALT:
     1441     5632    1        CALL THM$ERRMSG;
     1442     5633    1        ALTRETURN;
     1443     5634    1   END THE$PROCESS;
     1444     5635        %EOD;

PL6.E3A0      #003=THE$PROCESS File=THE$ELAN.:E05TSI                             WED 07/30/97 06:09 Page:111
--  Include file information  --

   XUD_UTS_M.:E05TOU  is referenced.
   TH_PERR_C.:E05TOU  is referenced.
   B_STRINGS_C.:E05TOU  is referenced.
   TH_SUBS_C.:E05TOU  is referenced.
   TH_DATA_R.:E05TOU  cannot be made into a system file and is referenced.
   TH$HIST.:E05TOU  is referenced.
   TD$STRUCT.:E05TOU  is referenced.
   EL$TABLES.:E05TOU  is referenced.
   F$DCB.:E05TOU  cannot be made into a system file and is referenced.
   B_ERRORS_C.:E05TOU  is referenced.
   NI$TABLES.:E05TOU  is referenced.
   B_SEGIDS_C.:E05TOU  is referenced.
   B$JIT.:E05TOU  cannot be made into a system file and is referenced.
   CP_6.:E05TOU  cannot be made into a system file and is referenced.
   B$JIT_C.:E05TOU  was found in the system file and is referenced.
   CP_6_C.:E05TOU  was found in the system file and is referenced.
      No diagnostics issued in procedure THE$PROCESS.

   Procedure THE$PROCESS requires 2493 words for executable code.
   Procedure THE$PROCESS requires 4194 words of local(AUTO) storage.

PL6.E3A0      #003=THE$PROCESS File=THE$ELAN.:E05TSI                             WED 07/30/97 06:09 Page:112

 Object Unit name= THE$PROCESS                                File name= THE$ELAN.:E05TOU
 UTS= JUL 30 '97 06:09:10.48 WED                              Compiler= PL-6/E31         Sev=      00
 SharedLib= :SHARED_SYSTEM                                    Alt SharedLib=


    ****  Control sections  ****

 Sect   Type Bound  Init  Size OctSiz  Section name(segment info)
    0   DCB   even  none     0      0  M$UC
    1   DCB   even  none     0      0  M$ERRLOG
    2   DCB   even  none     0      0  M$DEVHIST
    3   DCB   even  none     0      0  M$NEWDEV
    4   Data  even  none  1119   2137  THE$PROCESS
    5  RoData even  UTS    295    447  THE$PROCESS
    6   Proc  even  none  2493   4675  THE$PROCESS
    7  RoData even  none    66    102  THE$PROCESS

    ****  Entry defs  ****

                              Check   Calling
                             calling  sequence
  Sect OctLoc Primary Altret sequence   type   Parms  Name
     6      0   yes    yes     yes      Std        0  THE$PROCESS

  ****  Data defs  ****

 Sect OctLoc  Name                           Sect OctLoc  Name
    4      1  NUM_IOMS                           4      2  NUM_MPCS
    4      3  NUM_DEVS                           4      4  NUM_FEPS
    4      6  UTS
PL6.E3A0      #003=THE$PROCESS File=THE$ELAN.:E05TSI                             WED 07/30/97 06:09 Page:113

  ****  Entry refs  ****

         Check        Calling
        calling       sequence
Altret sequence SRef   type   Args  Name
 yes     yes           Std       4 THG$GETREC
         yes           Std       0 THD$DEVHIST
         yes           Std       1 THM$ERRMSG
 yes     yes           Std       3 XUD$UTS_DIFF_SEC
 yes     yes           Std       1 THE$INIT
 yes     yes           Std       3 XUD$UTS_ADJ_25TH
 yes     yes           Std       0 THG$CLOSEXSA
 yes     yes           Std       1 THG$OPENXSA
                       nStd      0 X66_AUTO_0
                       Std       0 B_CONSPOOL_D
                       nStd      0 X66_ARET
                       nStd      0 X66_AALT

  ****  Data refs  ****

  Flags:  r = read only, s = secondary
Flgs Name                             Flgs Name                             Flgs Name
     M$UC                                  TH_CONSTRAINTS                        TH_DEFAULT
     TH_PHONY_GHOST                        TH_REBUILD                            TH_DEVHIST_MODE
     TH_RECORD                             TH_INFO                               TH_ITYPE
     TH_MAXDCTX                            TH_DCT$                               TH_XSA_BUF_VECTOR
     TH_M$ERRLOG$                          DEVHIST_ACCT                          M$ERRLOG
     M$DEVHIST                             M$NEWDEV                              IOM_TBL$
     MPC_TBL$                              FEP_TBL$                              DEV_TBL$
     B$TCB$                                B$JIT$                                B_VECTNIL

  ****  Segment refs  ****

  Flags:  r = read only, s = secondary
Flgs Name                             Flgs Name                             Flgs Name
     ISSID                                 NULLSID                               ROSID
PL6.E3A0      #003=THE$PROCESS File=THE$ELAN.:E05TSI                             WED 07/30/97 06:09 Page:114


      452        1        /*M* THE$PROCESS - PROCESS DAILY ERRLOG AND GENERATE DEVHIST */
      453        2        /*T***********************************************************/
      454        3        /*T*                                                         */
      455        4        /*T* Copyright (c) Bull HN Information Systems Inc., 1997    */
      456        5        /*T*                                                         */
      457        6        /*T***********************************************************/
      458        7        THE$PROCESS: PROC ALTRET;

      7  6 000000   000000 700200 xent  THE$PROCESS  TSX0  ! X66_AUTO_0
         6 000001   010142 000000                    ZERO    4194,0

      459        8        /**/
      460        9        /* INCLUDE FILES */
      461       10        %INCLUDE CP_6;
      462       91        %INCLUDE B$JIT;
      463      381        %INCLUDE B_SEGIDS_C;
      464      920        %INCLUDE NI$TABLES;
      465     1136        %INCLUDE B_ERRORS_C;
      466     2263        %INCLUDE F$DCB;
      467     2312        %INCLUDE EL$TABLES;
      468     2635        %INCLUDE TD$STRUCT;
      469     2736        %INCLUDE TH$HIST;
      470     2831        %INCLUDE TH_DATA_R;
      471     2909        %INCLUDE TH_SUBS_C;
      472     3291        %INCLUDE TH_PERR_C;
      473     3332        %INCLUDE XUD_UTS_M;
      474     3414        /**/
      475     3415        /* ENTRY DEFS */
      476     3416    1   DCL THG$GETREC ENTRY(4) ALTRET;
      477     3417    1   DCL THG$OPENXSA ENTRY(1) ALTRET;
      478     3418    1   DCL THG$CLOSEXSA ENTRY ALTRET;
      479     3419    1   DCL THE$INIT ENTRY(1) ALTRET;
      480     3420    1   DCL THM$ERRMSG ENTRY(1);
      481     3421    1   DCL THD$DEVHIST ENTRY;
      482     3422        /**/
      483     3423        /* DCBS */
PL6.E3A0      #003=THE$PROCESS File=THE$ELAN.:E05TSI                             WED 07/30/97 06:09 Page:115
      484     3424    1   DCL M$ERRLOG DCB;
      485     3425    1   DCL M$DEVHIST DCB;
      486     3426    1   DCL M$NEWDEV DCB;
      487     3427        /**/
      488     3428        /* VARS */
      489     3429    1   DCL EOF_FLG BIT(1);
      490     3430    1   DCL FOUND BIT(1);
      491     3431    1   DCL LAST_INDX UBIN;
      492     3432    1   DCL OLD_INDX UBIN WORD;
      493     3433    1   DCL LAST_REQID UBIN STATIC INIT(0);
      494     3434    1   DCL IOM$ PTR;
      495     3435    1   DCL MPC$ PTR;
      496     3436    1   DCL DEV$ PTR;
      497     3437    1   DCL FEP$ PTR;
      498     3438    1   DCL CHAN$ PTR;
      499     3439    1   DCL IOM# UBIN(3);
      500     3440    1   DCL CHAN# UBIN(9);
      501     3441    1   DCL ZERO CHAR(8) CONSTANT INIT('0       '); /* USED FOR GETREC CALLS          */
      502     3442    1   DCL ONE CHAR(8) CONSTANT INIT('1       ');
      503     3443    1   DCL TWO CHAR(8) CONSTANT INIT('2       ');
      504     3444    1   DCL THREE CHAR(8) CONSTANT INIT('3       '); /* USED FOR GETREC CALLS           */
      505     3445    1   DCL WORDBASE UBIN WORD BASED;
      506     3446    1   DCL NUM_IOMS UBIN WORD STATIC SYMDEF;
      507     3447    1   DCL NUM_MPCS UBIN WORD STATIC SYMDEF;
      508     3448    1   DCL NUM_DEVS UBIN WORD STATIC SYMDEF;
      509     3449    1   DCL NUM_FEPS UBIN WORD STATIC SYMDEF;
      510     3450    1   DCL I SBIN WORD;
      511     3451    1   DCL J SBIN;
      512     3452    1   DCL K SBIN;
      513     3453    1   DCL INDX UBIN;
      514     3454    1   DCL DCTX UBIN WORD;
      515     3455    1   DCL DCT$ PTR;
      516     3456    1   DCL 1 DCTPTR REDEF DCT$,
      517     3457    1         2 OFFSET UBIN(18) UNAL,
      518     3458    1         2 * BIT(6) UNAL,
      519     3459    1         2 SEGID BIT(12) UNAL;
      520     3460        %NI$DCT (NAME=NI$DCT,STCLASS="BASED(DCT$)");
PL6.E3A0      #003=THE$PROCESS File=THE$ELAN.:E05TSI                             WED 07/30/97 06:09 Page:116
      521     3508    1   DCL NUM_NEW_COMPS UBIN WORD STATIC INIT(0);
      522     3509    1   DCL MPC_NAME CHAR(8);
      523     3510    1   DCL IOM_TBL$ PTR SYMREF;
      524     3511    1   DCL MPC_TBL$ PTR SYMREF;
      525     3512    1   DCL FEP_TBL$ PTR SYMREF;
      526     3513    1   DCL DEV_TBL$ PTR SYMREF;
      527     3514    1   DCL CHN# CHAR(2);
      528     3515    1   DCL UTS UBIN WORD STATIC SYMDEF;
      529     3516    1   DCL CURUTS UBIN WORD STATIC;
      530     3517    1   DCL FIRST_UTS UBIN WORD STATIC INIT(0);
      531     3518    1   DCL LAST_UTS UBIN WORD STATIC INIT(0);
      532     3519    1   DCL DEVHIST_UTS UBIN WORD STATIC INIT(0);
      533     3520    1   DCL OLDEST_UTS UBIN WORD STATIC INIT(0);  /* UTS OF OLDEST RECORD */
      534     3521    1   DCL B$TCB$ PTR SYMREF;
      535     3522    1   DCL B$JIT$ PTR SYMREF;
      536     3523    1   DCL HEAD_KEY BIT(18) CONSTANT INIT('001000'O);
      537     3524    1   DCL THRESH_KEY BIT(18) CONSTANT INIT('001001'O);
      538     3525    1   DCL MAINT_KEY BIT(18) CONSTANT INIT('001002'O);
      539     3526    1   DCL UTS_KEY BIT(18) CONSTANT INIT('001003'O);
      540     3527        /**/
      541     3528    1   DCL HD_KEY BIT(18) STATIC;
      542     3529    1   DCL 1 RD_KEY STATIC,
      543     3530    1         2 COUNT UBIN BYTE UNAL INIT(12),
      544     3531    1         2 TXT CHAR(8) UNAL INIT(' '),
      545     3532    1         2 UTS UBIN WORD UNAL INIT(0);
      546     3533    1   DCL 1 KEY8 STATIC,
      547     3534    1         2 COUNT UBIN BYTE UNAL INIT(12),
      548     3535    1         2 TXT CHAR(8) UNAL INIT(' '),
      549     3536    1         2 UTS UBIN WORD UNAL INIT(0);
      550     3537        /**/
      551     3538    1   DCL 1 INFO STATIC ALIGNED,
      552     3539    1         2 BOUND UBIN(20) UNAL,
      553     3540    1         2 * BIT(16),
      554     3541    1         2 PTR$ PTR;
      555     3542    1   DCL 1 HDR STATIC ALIGNED,
      556     3543    1         2 BOUND UBIN(20) UNAL,
      557     3544    1         2 * BIT(16),
PL6.E3A0      #003=THE$PROCESS File=THE$ELAN.:E05TSI                             WED 07/30/97 06:09 Page:117
      558     3545    1         2 PTR$ PTR;
      559     3546    1   DCL TEMP_UTS UBIN;
      560     3547        /**/
      561     3548        /* MACRO DEFINITIONS */
      562     3549        %MACRO TBL (NAME=JUNK,STCLASS=BASED);
      563     3550        DCL 1 NAME(0:0) STCLASS ALIGNED,
      564     3551              2 DEVNAME CHAR(8),
      565     3552              2 PTR$ PTR;
      566     3553        %MEND;
      567     3554        /**/
      568     3555        /* MACRO INVOCATIONS */
      569     3556        %TD$HEAD (NAME=TD$HEAD,NUMDEV#=200);
      570     3592        %TD$HEAD (NAME=TH$HEAD,NUMDEV#=200);
      571     3628        %TD$HEAD (NAME=TD_HEAD,STCLASS=AUTO,NUMDEV#=200);
      572     3664        %TD$HEAD (NAME=TH_HEAD,STCLASS=AUTO,NUMDEV#=200);
      573     3700        %TH$DEV (NAME=DEV,STCLASS="BASED(DEV$)");
      574     3721        %TH$IOM (NAME=IOM,STCLASS="BASED(IOM$)");
      575     3732        %TH$MPC (NAME=MPC,STCLASS="BASED(MPC$)",NUMDEV#=32);
      576     3753        %TH$FEP (NAME=FEP,STCLASS="BASED(FEP$)");
      577     3760        %TH$CHAN (NAME=CHAN,STCLASS="BASED(CHAN$)");
      578     3767        %TH$UTS (NAME=TH$UTS);
      579     3772        /**/
      580     3773        %TH$THRESH (NAME=TH$THRESH,NUMDEV#=200);
      581     3779        %TH$THRESH (NAME=TH_THRESH,STCLASS=AUTO,NUMDEV#=200);
      582     3785        %TH$THRESH (NAME=TEMP_THRESH,STCLASS=AUTO,NUMDEV#=200);
      583     3791        %TH$MAINT (NAME=TH$MAINT,NUMDEV#=200);
      584     3796        %TH$MAINT (NAME=TH_MAINT,STCLASS=AUTO,NUMDEV#=200);
      585     3801        %TH$MAINT (NAME=TEMP_MAINT,STCLASS=AUTO,NUMDEV#=200);
      586     3806        /**/
      587     3807        %TH$MPC (NAME=TH_MPC,STCLASS=AUTO,NUMDEV#=32);
      588     3828        %TH$IOM (NAME=TH_IOM,STCLASS=AUTO);
      589     3839        %TH$FEP (NAME=TH_FEP,STCLASS=AUTO);
      590     3846        %TH$DEV (NAME=TH_DEV,STCLASS=AUTO);
      591     3867        %TH$CHAN (NAME=TH_CHAN,STCLASS=AUTO);
      592     3874        %TH$UTS (NAME=TH_UTS,STCLASS=AUTO);
      593     3879        /**/
      594     3880        %EL$ENTRY (NAME=REC_BUF,
PL6.E3A0      #003=THE$PROCESS File=THE$ELAN.:E05TSI                             WED 07/30/97 06:09 Page:118
      595     3881                   INFOSZ=4096,
      596     3882                   STCLASS=STATIC);
      597     3886        %EL$IOERR (STCLASS="BASED(TH_INFO.PTR$)");
      598     3896        %EL$EDAC (STCLASS="BASED(TH_INFO.PTR$)");
      599     3905        %EL$FEPERR (STCLASS="BASED(TH_INFO.PTR$)");
      600     3984        %EL$PROCERR (STCLASS="BASED(TH_INFO.PTR$)");
      601     3994        %EL$SPURINT (STCLASS="BASED(TH_INFO.PTR$)");
      602     3998        %EL$FEPFLT (STCLASS="BASED(TH_INFO.PTR$)");
      603     4001        /**/
      604     4002        %TBL (NAME=IOM_TBL,STCLASS="BASED(IOM_TBL$)");
      605     4007        %TBL (NAME=MPC_TBL,STCLASS="BASED(MPC_TBL$)");
      606     4012        %TBL (NAME=FEP_TBL,STCLASS="BASED(FEP_TBL$)");
      607     4017        %TBL (NAME=DEV_TBL,STCLASS="BASED(DEV_TBL$)");
      608     4022        /**/
      609     4023        %B$TCB;
      610     4026        %B$ALT;
      611     4034        /**/
      612     4035        %XUD$UTS_ENTRIES;
      613     4067        %XUD_UTS_EQU;
      614     4078        /**/
      615     4079        /* FPT DEFINITIONS */
      616     4080        %VLP_ACCT (FPTN=SYSTAC,
      617     4081                   STCLASS=CONSTANT,
      618     4082                   ACCT=':SYSTAC');
      619     4095        %FPT_OPEN (FPTN=OPEN_DEVHIST,
      620     4096                   STCLASS=CONSTANT,
      621     4097                   DCB=M$DEVHIST,
      622     4098                   NAME=DEVHIST,
      623     4099                   ACCT=DEVHIST_ACCT,
      624     4100                   FUN=UPDATE,
      625     4101                   EXIST=OLDFILE,
      626     4102                   ASN=FILE,
      627     4103                   ACS=DIRECT,
      628     4104                   ORG=KEYED);
      629     4213        %FPT_WRITE (FPTN=WRITE_DEVHIST,
      630     4214                    DCB=M$DEVHIST);
      631     4245        %FPT_CLOSE (FPTN=CLOSE_DEVHIST,
PL6.E3A0      #003=THE$PROCESS File=THE$ELAN.:E05TSI                             WED 07/30/97 06:09 Page:119
      632     4246                    STCLASS=CONSTANT,
      633     4247                    DCB=M$DEVHIST,
      634     4248                    DISP=SAVE);
      635     4290        %FPT_OPEN (FPTN=OPEN_NEWDEV,
      636     4291                   STCLASS=CONSTANT,
      637     4292                   DCB=M$NEWDEV,
      638     4293                   NAME=DEVHIST,
      639     4294                   ACCT=DEVHIST_ACCT,
      640     4295                   FUN=CREATE,
      641     4296                   EXIST=NEWFILE,
      642     4297                   ASN=FILE,
      643     4298                   SHARE=NONE,
      644     4299                   ACS=DIRECT,
      645     4300                   ACCESS=ACSLIST,
      646     4301                   ACSVEH=VEHLIST,
      647     4302                   ORG=KEYED);
      648     4411        %FPT_CLOSE (FPTN=CLOSE_NEWDEV,
      649     4412                    STCLASS=CONSTANT,
      650     4413                    DCB=M$NEWDEV,
      651     4414                    DISP=SAVE);
      652     4456        %FPT_WRITE (FPTN=WRITE_NEWDEV,
      653     4457                    DCB=M$NEWDEV,
      654     4458                    BUF=REC_BUF);
      655     4489        %FPT_OPEN (FPTN=OPEN_DEV,
      656     4490                   STCLASS=CONSTANT,
      657     4491                   DCB=M$DEVHIST,
      658     4492                   NAME=DEVHIST,
      659     4493                   ACCT=DEVHIST_ACCT,
      660     4494                   FUN=IN,
      661     4495                   EXIST=OLDFILE,
      662     4496                   ASN=FILE,
      663     4497                   ACS=DIRECT,
      664     4498                   SHARE=IN,
      665     4499                   ORG=KEYED);
      666     4608        %FPT_CLOSE (FPTN=CLOSE_DEV,
      667     4609                    STCLASS=CONSTANT,
      668     4610                    DCB=M$DEVHIST,
PL6.E3A0      #003=THE$PROCESS File=THE$ELAN.:E05TSI                             WED 07/30/97 06:09 Page:120
      669     4611                    DISP=SAVE);
      670     4653        %VLP_NAME (FPTN=DEVHIST,
      671     4654                   STCLASS=CONSTANT,
      672     4655                   NAME=':DEVHIST');
      673     4682        %FPT_TIME (FPTN=CUR_UTS,
      674     4683                   STCLASS=CONSTANT,
      675     4684                   SOURCE=CLOCK,
      676     4685                   DEST=UTS,
      677     4686                   TSTAMP=CURUTS);
      678     4705        %FPT_PFIL (FPTN=PFIL_DEVHIST,DCB=M$DEVHIST,BOF=YES);
      679     4720        %FPT_READ (FPTN=READ_DEVHIST,
      680     4721                   DCB = M$DEVHIST,
      681     4722                   BUF=REC_BUF,
      682     4723                   KEY=RD_KEY,
      683     4724                   KEYR=YES);
      684     4763        %FPT_READ (FPTN=RD_DEVHIST,
      685     4764                   DCB=M$DEVHIST,
      686     4765                   KEY=HD_KEY,
      687     4766                   BUF=REC_BUF,
      688     4767                   KEYR=YES);
      689     4806        %VLP_ATTR(FPTN=ACSLIST);
      690     4820        %VLP_ACCESS (READ=YES,EXEC=YES,ACCT='?',LAST=";");
      691     4837        %VLP_ATTR(FPTN=VEHLIST);
      692     4851        %VLP_ACSVEH(READ=YES,UPD=YES,WNEW=YES,VEHICLE='SYSCON');
      693     4868        %VLP_ACSVEH(READ=YES,UPD=YES,WNEW=YES,VEHICLE='ELAN',LAST=";");
      694     4885        /**/
      695     4886        %EJECT;
PL6.E3A0      #003=THE$PROCESS File=THE$ELAN.:E05TSI                             WED 07/30/97 06:09 Page:121
      696     4887    1        NUM_NEW_COMPS = 0;

   4887  6 000002   000005 450000 4                  STZ     NUM_NEW_COMPS

      697     4888    1        TH_M$ERRLOG$ = DCBADDR(DCBNUM(M$ERRLOG));

   4888  6 000003   000000 236007 xsym               LDQ     M$ERRLOG,DL
         6 000004   000000 470400 7                  LDP0    0
         6 000005   000000 471500                    LDP1    0,,PR0
         6 000006   100000 236106                    LDQ     0,QL,PR1
         6 000007   000000 756000 xsym               STQ     TH_M$ERRLOG$

      698     4889                            /* READ DEVHIST HEAD - IF NOT THERE BUILD A BLANK ONE     */
      699     4890    1        CALL THG$GETREC(%DEVHIST,ZERO) ALTRET(NO_HEAD);

   4890  6 000010   000001 630400 7                  EPPR0   1
         6 000011   000020 631400 xsym               EPPR1   B_VECTNIL+16
         6 000012   000000 701000 xent               TSX1    THG$GETREC
         6 000013   000025 702000 6                  TSX2    NO_HEAD

      700     4891    1        IF B$JIT.MODE = %M_INT# AND TH_DEVHIST_MODE = 0

   4891  6 000014   000000 470400 xsym               LDP0    B$JIT$
         6 000015   000000 236100                    LDQ     0,,PR0
         6 000016   740000 376003                    ANQ     -16384,DU
         6 000017   140000 116003                    CMPQ    49152,DU
         6 000020   000024 601000 6                  TNZ     s:4893
         6 000021   000000 235000 xsym               LDA     TH_DEVHIST_MODE
         6 000022   000024 601000 6                  TNZ     s:4893

      701     4892    1           THEN RETURN;    /* :DEVHIST FILE EXISTS - NO ACTION REQUIRED */

   4892  6 000023   000000 702200 xent               TSX2  ! X66_ARET

      702     4893    2        DO NEVER;

   4893  6 000024   000044 710000 6                  TRA     s:4908
PL6.E3A0      #003=THE$PROCESS File=THE$ELAN.:E05TSI                             WED 07/30/97 06:09 Page:122

      703     4894    2   NO_HEAD:
      704     4895    2           IF B$TCB$->B$TCB.ALT$->B$ALT.ERR.CODE = %E$NOFILE

   4895  6 000025   000000 470400 xsym  NO_HEAD      LDP0    B$TCB$
         6 000026   000000 471500                    LDP1    0,,PR0
         6 000027   100102 236100                    LDQ     66,,PR1
         6 000030   377770 376007                    ANQ     131064,DL
         6 000031   001610 116007                    CMPQ    904,DL
         6 000032   000040 601000 6                  TNZ     s:4904

      705     4896    3              THEN DO;

      706     4897    3                CALL THD$DEVHIST;

   4897  6 000033   000002 631400 xsym               EPPR1   B_VECTNIL+2
         6 000034   000000 701000 xent               TSX1    THD$DEVHIST
         6 000035   000000 011000                    NOP     0

      707     4898    3                TH_REBUILD = '0'B;  /* TURN OFF REBUILD FLAG-  SINCE */

   4898  6 000036   000000 450000 xsym               STZ     TH_REBUILD

      708     4899                                         /* THIS IS A NEW FILE, NO NEED TO */
      709     4900                                         /* SIZE IT DOWN                   */
      710     4901    3              END;

   4901  6 000037   000044 710000 6                  TRA     s:4908

      711     4902    2              ELSE
      712     4903    3              DO;

      713     4904    3                 CALL THM$ERRMSG;

   4904  6 000040   000002 631400 xsym               EPPR1   B_VECTNIL+2
         6 000041   000000 701000 xent               TSX1    THM$ERRMSG
         6 000042   000000 011000                    NOP     0
PL6.E3A0      #003=THE$PROCESS File=THE$ELAN.:E05TSI                             WED 07/30/97 06:09 Page:123

      714     4905    3                 ALTRETURN;

   4905  6 000043   000000 702200 xent               TSX2  ! X66_AALT

      715     4906    3              END;                         /* IF                                 */
      716     4907    2        END;                               /* DO NEVER                           */

      717     4908    1        TH_HEAD = TH_RECORD.PTR$->TH$HEAD;

   4908  6 000044   000001 470400 xsym               LDP0    TH_RECORD+1
         6 000045   000100 100500                    MLR     fill='000'O
         6 000046   000000 003210                    ADSC9   0,,PR0                   cn=0,n=1672
         6 000047   200672 003210                    ADSC9   TH_HEAD,,AUTO            cn=0,n=1672

      718     4909    1        CALL THG$GETREC(%DEVHIST, THREE);  /* READ UTS RECORD */

   4909  6 000050   000003 630400 7                  EPPR0   3
         6 000051   000020 631400 xsym               EPPR1   B_VECTNIL+16
         6 000052   000000 701000 xent               TSX1    THG$GETREC
         6 000053   000000 011000                    NOP     0

      719     4910    1        TH_UTS = TH_RECORD.PTR$ -> TH$UTS;

   4910  6 000054   000001 470400 xsym               LDP0    TH_RECORD+1
         6 000055   000100 100500                    MLR     fill='000'O
         6 000056   000000 000010                    ADSC9   0,,PR0                   cn=0,n=8
         6 000057   210121 000010                    ADSC9   TH_UTS,,AUTO             cn=0,n=8

      720     4911    1        IF DCBADDR(DCBNUM(M$DEVHIST)) -> F$DCB.ARS < 8

   4911  6 000060   000000 236007 xsym               LDQ     M$DEVHIST,DL
         6 000061   000000 471400 7                  LDP1    0
         6 000062   100000 473500                    LDP3    0,,PR1
         6 000063   300000 474506                    LDP4    0,QL,PR3
         6 000064   400000 235100                    LDA     0,,PR4
         6 000065   000010 115007                    CMPA    8,DL
PL6.E3A0      #003=THE$PROCESS File=THE$ELAN.:E05TSI                             WED 07/30/97 06:09 Page:124
         6 000066   000103 605000 6                  TPL     s:4919

      721     4912    2           THEN DO;    /* UTS RECORD IS PRE-E02 */

      722     4913    2             CALL M$CLOSE(CLOSE_DEV);

   4913  6 000067   000370 630400 5                  EPPR0   CLOSE_DEV
         6 000070   050001 713400                    CLIMB   close
         6 000071   406000 401760                    pmme    nvectors=13

      723     4914    2             CALL THD$DEVHIST;               /* REBUILD :DEVHIST FILE */

   4914  6 000072   000002 631400 xsym               EPPR1   B_VECTNIL+2
         6 000073   000000 701000 xent               TSX1    THD$DEVHIST
         6 000074   000000 011000                    NOP     0

      724     4915    2             TH_HEAD = TH_RECORD.PTR$ -> TH$HEAD;

   4915  6 000075   000001 470400 xsym               LDP0    TH_RECORD+1
         6 000076   000100 100500                    MLR     fill='000'O
         6 000077   000000 003210                    ADSC9   0,,PR0                   cn=0,n=1672
         6 000100   200672 003210                    ADSC9   TH_HEAD,,AUTO            cn=0,n=1672

      725     4916    2             TH_REBUILD = '0'B;

   4916  6 000101   000000 450000 xsym               STZ     TH_REBUILD

      726     4917    2             GOTO READ_CONFIG_HEAD;

   4917  6 000102   000137 710000 6                  TRA     READ_CONFIG_HEAD

      727     4918    2           END;
      728     4919    1        IF TH_DEVHIST_MODE = %MIDNITE_GHOST

   4919  6 000103   000000 235000 xsym               LDA     TH_DEVHIST_MODE
         6 000104   000003 115007                    CMPA    3,DL
         6 000105   000137 601000 6                  TNZ     READ_CONFIG_HEAD
PL6.E3A0      #003=THE$PROCESS File=THE$ELAN.:E05TSI                             WED 07/30/97 06:09 Page:125

      729     4920    2           THEN DO;

      730     4921    2             CALL M$TIME(CUR_UTS);

   4921  6 000106   000432 630400 5                  EPPR0   CUR_UTS
         6 000107   020004 713400                    CLIMB   8196
         6 000110   402000 401760                    pmme    nvectors=5

      731     4922                         /* IS OLDEST RECORD > 30 DAYS OLD? */
      732     4923    2             CALL XUD$UTS_ADJ_25TH(TEMP_UTS, TH_UTS.OLDEST_UTS, (30*%UTS_25TH_DAY#));

   4923  6 000111   000006 236000 7                  LDQ     6
         6 000112   210126 756100                    STQ     TH_UTS+5,,AUTO
         6 000113   210121 630500                    EPPR0   TH_UTS,,AUTO
         6 000114   210125 450500                    STP0    TH_UTS+4,,AUTO
         6 000115   200027 631500                    EPPR1   TEMP_UTS,,AUTO
         6 000116   210124 451500                    STP1    TH_UTS+3,,AUTO
         6 000117   210124 630500                    EPPR0   TH_UTS+3,,AUTO
         6 000120   000021 631400 xsym               EPPR1   B_VECTNIL+17
         6 000121   000000 701000 xent               TSX1    XUD$UTS_ADJ_25TH
         6 000122   000000 011000                    NOP     0

      733     4924    2             IF TEMP_UTS > CURUTS

   4924  6 000123   000007 236000 4                  LDQ     CURUTS
         6 000124   200027 116100                    CMPQ    TEMP_UTS,,AUTO
         6 000125   000135 603000 6                  TRC     s:4931

      734     4925    3                THEN DO;      /* NO- RETURN */

      735     4926    3                  CALL M$CLOSE(CLOSE_DEV) ALTRET(ALT);

   4926  6 000126   000370 630400 5                  EPPR0   CLOSE_DEV
         6 000127   450001 713400                    CLIMB   alt,close
         6 000130   406000 401760                    pmme    nvectors=13
         6 000131   004671 702000 6                  TSX2    ALT
PL6.E3A0      #003=THE$PROCESS File=THE$ELAN.:E05TSI                             WED 07/30/97 06:09 Page:126

      736     4927    3                  TH_REBUILD = '0'B;

   4927  6 000132   000000 450000 xsym               STZ     TH_REBUILD

      737     4928    3                  TH_DEVHIST_MODE = 0;

   4928  6 000133   000000 450000 xsym               STZ     TH_DEVHIST_MODE

      738     4929    3                  RETURN;

   4929  6 000134   000000 702200 xent               TSX2  ! X66_ARET

      739     4930    3                END;
      740     4931    2                ELSE TH_REBUILD = '1'B;   /* YES- SET REBUILD FLAG */

   4931  6 000135   400000 236003                    LDQ     -131072,DU
         6 000136   000000 756000 xsym               STQ     TH_REBUILD

      741     4932    2           END;

      742     4933
      743     4934                                 /* READ HEADER FROM CONFIG FILE AND SET UP VALUES    */
      744     4935    1   READ_CONFIG_HEAD:
      745     4936    1        CALL THG$GETREC(%CONFIG,ZERO) ALTRET(OPEN_ERR);

   4936  6 000137   000007 630400 7     READ_CONFIG* EPPR0   7
         6 000140   000020 631400 xsym               EPPR1   B_VECTNIL+16
         6 000141   000000 701000 xent               TSX1    THG$GETREC
         6 000142   004664 702000 6                  TSX2    OPEN_ERR

      746     4937    1        TD_HEAD = TH_RECORD.PTR$->TD$HEAD;

   4937  6 000143   000001 470400 xsym               LDP0    TH_RECORD+1
         6 000144   000100 100500                    MLR     fill='000'O
         6 000145   000000 003210                    ADSC9   0,,PR0                   cn=0,n=1672
         6 000146   200030 003210                    ADSC9   TD_HEAD,,AUTO            cn=0,n=1672
PL6.E3A0      #003=THE$PROCESS File=THE$ELAN.:E05TSI                             WED 07/30/97 06:09 Page:127

      747     4938    1        NUM_IOMS = TD_HEAD.NUMIOMS;

   4938  6 000147   200030 236100                    LDQ     TD_HEAD,,AUTO
         6 000150   777777 376007                    ANQ     -1,DL
         6 000151   000001 756000 4                  STQ     NUM_IOMS

      748     4939    1        NUM_MPCS = TD_HEAD.NUMUNITMPCS + TD_HEAD.NUMTAPEMPCS + TD_HEAD.NUMDISKMPCS +

   4939  6 000152   200032 236100                    LDQ     TD_HEAD+2,,AUTO
         6 000153   777777 376007                    ANQ     -1,DL
         6 000154   210124 756100                    STQ     TH_UTS+3,,AUTO
         6 000155   200031 236100                    LDQ     TD_HEAD+1,,AUTO
         6 000156   777777 376007                    ANQ     -1,DL
         6 000157   210124 036100                    ADLQ    TH_UTS+3,,AUTO
         6 000160   210125 756100                    STQ     TH_UTS+4,,AUTO
         6 000161   200033 236100                    LDQ     TD_HEAD+3,,AUTO
         6 000162   777777 376007                    ANQ     -1,DL
         6 000163   210126 756100                    STQ     TH_UTS+5,,AUTO
         6 000164   210125 236100                    LDQ     TH_UTS+4,,AUTO
         6 000165   210126 036100                    ADLQ    TH_UTS+5,,AUTO
         6 000166   210127 756100                    STQ     TH_UTS+6,,AUTO
         6 000167   200034 236100                    LDQ     TD_HEAD+4,,AUTO
         6 000170   777777 376007                    ANQ     -1,DL
         6 000171   210130 756100                    STQ     TH_UTS+7,,AUTO
         6 000172   210127 236100                    LDQ     TH_UTS+6,,AUTO
         6 000173   210130 036100                    ADLQ    TH_UTS+7,,AUTO
         6 000174   210131 756100                    STQ     TH_UTS+8,,AUTO
         6 000175   200035 236100                    LDQ     TD_HEAD+5,,AUTO
         6 000176   777777 376007                    ANQ     -1,DL
         6 000177   210132 756100                    STQ     TH_UTS+9,,AUTO
         6 000200   210131 236100                    LDQ     TH_UTS+8,,AUTO
         6 000201   210132 036100                    ADLQ    TH_UTS+9,,AUTO
         6 000202   000002 756000 4                  STQ     NUM_MPCS

      749     4940    1                   TD_HEAD.NUMAPMPCS + TD_HEAD.NUMOPCS;
      750     4941    1        NUM_DEVS = TD_HEAD.NUMLPS + TD_HEAD.NUMCRS + TD_HEAD.NUMCPS + TD_HEAD.NUMDPS +
PL6.E3A0      #003=THE$PROCESS File=THE$ELAN.:E05TSI                             WED 07/30/97 06:09 Page:128

   4941  6 000203   200041 236100                    LDQ     TD_HEAD+9,,AUTO
         6 000204   777777 376007                    ANQ     -1,DL
         6 000205   210124 756100                    STQ     TH_UTS+3,,AUTO
         6 000206   200040 236100                    LDQ     TD_HEAD+8,,AUTO
         6 000207   777777 376007                    ANQ     -1,DL
         6 000210   210124 036100                    ADLQ    TH_UTS+3,,AUTO
         6 000211   210125 756100                    STQ     TH_UTS+4,,AUTO
         6 000212   200042 236100                    LDQ     TD_HEAD+10,,AUTO
         6 000213   777777 376007                    ANQ     -1,DL
         6 000214   210126 756100                    STQ     TH_UTS+5,,AUTO
         6 000215   210125 236100                    LDQ     TH_UTS+4,,AUTO
         6 000216   210126 036100                    ADLQ    TH_UTS+5,,AUTO
         6 000217   210127 756100                    STQ     TH_UTS+6,,AUTO
         6 000220   200043 236100                    LDQ     TD_HEAD+11,,AUTO
         6 000221   777777 376007                    ANQ     -1,DL
         6 000222   210130 756100                    STQ     TH_UTS+7,,AUTO
         6 000223   210127 236100                    LDQ     TH_UTS+6,,AUTO
         6 000224   210130 036100                    ADLQ    TH_UTS+7,,AUTO
         6 000225   210131 756100                    STQ     TH_UTS+8,,AUTO
         6 000226   200044 236100                    LDQ     TD_HEAD+12,,AUTO
         6 000227   777777 376007                    ANQ     -1,DL
         6 000230   210132 756100                    STQ     TH_UTS+9,,AUTO
         6 000231   210131 236100                    LDQ     TH_UTS+8,,AUTO
         6 000232   210132 036100                    ADLQ    TH_UTS+9,,AUTO
         6 000233   210133 756100                    STQ     TH_UTS+10,,AUTO
         6 000234   200045 236100                    LDQ     TD_HEAD+13,,AUTO
         6 000235   777777 376007                    ANQ     -1,DL
         6 000236   210134 756100                    STQ     TH_UTS+11,,AUTO
         6 000237   210133 236100                    LDQ     TH_UTS+10,,AUTO
         6 000240   210134 036100                    ADLQ    TH_UTS+11,,AUTO
         6 000241   210135 756100                    STQ     TH_UTS+12,,AUTO
         6 000242   200046 236100                    LDQ     TD_HEAD+14,,AUTO
         6 000243   777777 376007                    ANQ     -1,DL
         6 000244   210136 756100                    STQ     TH_UTS+13,,AUTO
         6 000245   210135 236100                    LDQ     TH_UTS+12,,AUTO
         6 000246   210136 036100                    ADLQ    TH_UTS+13,,AUTO
PL6.E3A0      #003=THE$PROCESS File=THE$ELAN.:E05TSI                             WED 07/30/97 06:09 Page:129
         6 000247   210137 756100                    STQ     TH_UTS+14,,AUTO
         6 000250   200047 236100                    LDQ     TD_HEAD+15,,AUTO
         6 000251   777777 376007                    ANQ     -1,DL
         6 000252   210140 756100                    STQ     TH_UTS+15,,AUTO
         6 000253   210137 236100                    LDQ     TH_UTS+14,,AUTO
         6 000254   210140 036100                    ADLQ    TH_UTS+15,,AUTO
         6 000255   000003 756000 4                  STQ     NUM_DEVS

      751     4942    1             TD_HEAD.NUMMTS + TD_HEAD.NUMXXS + TD_HEAD.NUMAPS + TD_HEAD.NUMODS;
      752     4943    1        NUM_FEPS = TD_HEAD.NUMFEPS;

   4943  6 000256   200036 236100                    LDQ     TD_HEAD+6,,AUTO
         6 000257   777777 376007                    ANQ     -1,DL
         6 000260   000004 756000 4                  STQ     NUM_FEPS

      753     4944
      754     4945        /* CHECK FOR NEW COMPONENTS IN THIS :CONFIG FILE - IF SO THEN ADD THIS INFO TO :DEV
              4945        HIST HEAD RECORD */
      755     4946
      756     4947    1        LAST_INDX = TH_HEAD.OD_INDX + TH_HEAD.NUMODS - 1;

   4947  6 000261   200711 236100                    LDQ     TH_HEAD+15,,AUTO
         6 000262   777777 376007                    ANQ     -1,DL
         6 000263   210124 756100                    STQ     TH_UTS+3,,AUTO
         6 000264   200711 236100                    LDQ     TH_HEAD+15,,AUTO
         6 000265   000022 772000                    QRL     18
         6 000266   210124 036100                    ADLQ    TH_UTS+3,,AUTO
         6 000267   000001 136007                    SBLQ    1,DL
         6 000270   200005 756100                    STQ     LAST_INDX,,AUTO

      757     4948    1        OLD_INDX = LAST_INDX;

   4948  6 000271   200006 756100                    STQ     OLD_INDX,,AUTO

      758     4949    1        IF TH_PHONY_GHOST

   4949  6 000272   000000 234000 xsym               SZN     TH_PHONY_GHOST
PL6.E3A0      #003=THE$PROCESS File=THE$ELAN.:E05TSI                             WED 07/30/97 06:09 Page:130
         6 000273   000277 604000 6                  TMI     DO_GHOST2

      759     4950    1        THEN GOTO DO_GHOST2;
      760     4951    1        IF TH_DEVHIST_MODE ~= %TB_GHOST THEN GOTO BYPASS_CHECK;

   4951  6 000274   000000 235000 xsym               LDA     TH_DEVHIST_MODE
         6 000275   000002 115007                    CMPA    2,DL
         6 000276   003514 601000 6                  TNZ     BYPASS_CHECK

   4951  6 000277                       DO_GHOST2    null
      761     4952                                        /* CHECK FOR IOMS */
      762     4953    1   DO_GHOST2:;
      763     4954    2        DO I = TD_HEAD.IOM_INDX TO TD_HEAD.IOM_INDX + TD_HEAD.NUMIOMS - 1;

   4954  6 000277   200030 235100                    LDA     TD_HEAD,,AUTO
         6 000300   000022 771000                    ARL     18
         6 000301   200016 755100                    STA     I,,AUTO
         6 000302   000466 710000 6                  TRA     s:4987+1

      764     4955    2           FOUND = %FALSE;

   4955  6 000303   200004 450100                    STZ     FOUND,,AUTO

      765     4956    3           DO J = TH_HEAD.IOM_INDX TO TH_HEAD.IOM_INDX + TH_HEAD.NUMIOMS - 1;

   4956  6 000304   200672 235100                    LDA     TH_HEAD,,AUTO
         6 000305   000022 771000                    ARL     18
         6 000306   200017 755100                    STA     J,,AUTO
         6 000307   000323 710000 6                  TRA     s:4959+1

      766     4957    3              IF TD_HEAD.DEVNAME(I) = TH_HEAD.DEVNAME(J)

   4957  6 000310   200017 235100                    LDA     J,,AUTO
         6 000311   000001 735000                    ALS     1
         6 000312   000000 620005                    EAX0    0,AL
         6 000313   200016 236100                    LDQ     I,,AUTO
         6 000314   000001 736000                    QLS     1
PL6.E3A0      #003=THE$PROCESS File=THE$ELAN.:E05TSI                             WED 07/30/97 06:09 Page:131
         6 000315   200050 237106                    LDAQ    TD_HEAD+16,QL,AUTO
         6 000316   200712 117110                    CMPAQ   TH_HEAD+16,X0,AUTO
         6 000317   000322 601000 6                  TNZ     s:4959

      767     4958    3                 THEN FOUND = %TRUE;

   4958  6 000320   400000 236003                    LDQ     -131072,DU
         6 000321   200004 756100                    STQ     FOUND,,AUTO

      768     4959    3           END;  /* DO J */

   4959  6 000322   200017 054100                    AOS     J,,AUTO
         6 000323   200672 236100                    LDQ     TH_HEAD,,AUTO
         6 000324   777777 376007                    ANQ     -1,DL
         6 000325   210124 756100                    STQ     TH_UTS+3,,AUTO
         6 000326   200672 236100                    LDQ     TH_HEAD,,AUTO
         6 000327   000022 772000                    QRL     18
         6 000330   210124 036100                    ADLQ    TH_UTS+3,,AUTO
         6 000331   000310 604000 6                  TMI     s:4957
         6 000332   200017 116100                    CMPQ    J,,AUTO
         6 000333   000310 605400 6                  TPNZ    s:4957

      769     4960    2           IF NOT FOUND

   4960  6 000334   200004 234100                    SZN     FOUND,,AUTO
         6 000335   000465 604000 6                  TMI     s:4987

      770     4961    2              THEN  /* STUFF INTO TH_HEAD.DEVNAME */
      771     4962    3              DO;

      772     4963    4                 DO K = TH_HEAD.FEP_INDX TO LAST_INDX;

   4963  6 000336   200700 235100                    LDA     TH_HEAD+6,,AUTO
         6 000337   000022 771000                    ARL     18
         6 000340   200020 755100                    STA     K,,AUTO
         6 000341   000357 710000 6                  TRA     s:4966+1

PL6.E3A0      #003=THE$PROCESS File=THE$ELAN.:E05TSI                             WED 07/30/97 06:09 Page:132
      773     4964    4                    INDX = LAST_INDX - K + TH_HEAD.FEP_INDX;

   4964  6 000342   200005 236100                    LDQ     LAST_INDX,,AUTO
         6 000343   200020 136100                    SBLQ    K,,AUTO
         6 000344   200700 235100                    LDA     TH_HEAD+6,,AUTO
         6 000345   000022 771000                    ARL     18
         6 000346   210124 755100                    STA     TH_UTS+3,,AUTO
         6 000347   210124 036100                    ADLQ    TH_UTS+3,,AUTO
         6 000350   200021 756100                    STQ     INDX,,AUTO

      774     4965    4                    TH_HEAD.DEVNAME(INDX + 1) = TH_HEAD.DEVNAME(INDX);

   4965  6 000351   200021 235100                    LDA     INDX,,AUTO
         6 000352   000001 735000                    ALS     1
         6 000353   000000 620005                    EAX0    0,AL
         6 000354   200712 237105                    LDAQ    TH_HEAD+16,AL,AUTO
         6 000355   200714 757110                    STAQ    TH_HEAD+18,X0,AUTO

      775     4966    4                 END;  /* DO K */

   4966  6 000356   200020 054100                    AOS     K,,AUTO
         6 000357   200005 236100                    LDQ     LAST_INDX,,AUTO
         6 000360   000342 604000 6                  TMI     s:4964
         6 000361   200020 116100                    CMPQ    K,,AUTO
         6 000362   000342 605000 6                  TPL     s:4964

      776     4967    3                 TH_HEAD.NUMIOMS = TH_HEAD.NUMIOMS + 1;

   4967  6 000363   200672 720100                    LXL0    TH_HEAD,,AUTO
         6 000364   000001 621010                    EAX1    1,X0
         6 000365   200672 441100                    SXL1    TH_HEAD,,AUTO

      777     4968    3                 TH_HEAD.DEVNAME(TH_HEAD.IOM_INDX + TH_HEAD.NUMIOMS - 1) = TD_HEAD.
              4968                          DEVNAME(I);

   4968  6 000366   200672 236100                    LDQ     TH_HEAD,,AUTO
         6 000367   777777 376007                    ANQ     -1,DL
PL6.E3A0      #003=THE$PROCESS File=THE$ELAN.:E05TSI                             WED 07/30/97 06:09 Page:133
         6 000370   210124 756100                    STQ     TH_UTS+3,,AUTO
         6 000371   200672 236100                    LDQ     TH_HEAD,,AUTO
         6 000372   000022 772000                    QRL     18
         6 000373   210124 036100                    ADLQ    TH_UTS+3,,AUTO
         6 000374   000001 736000                    QLS     1
         6 000375   200016 235100                    LDA     I,,AUTO
         6 000376   000001 735000                    ALS     1
         6 000377   000000 620006                    EAX0    0,QL
         6 000400   200050 237105                    LDAQ    TD_HEAD+16,AL,AUTO
         6 000401   200710 757110                    STAQ    TH_HEAD+14,X0,AUTO

      778     4969    3                 LAST_INDX = LAST_INDX + 1;

   4969  6 000402   200005 235100                    LDA     LAST_INDX,,AUTO
         6 000403   000001 035007                    ADLA    1,DL
         6 000404   200005 755100                    STA     LAST_INDX,,AUTO

      779     4970    3                 TH_HEAD.FEP_INDX = TH_HEAD.FEP_INDX + 1;

   4970  6 000405   200700 220100                    LDX0    TH_HEAD+6,,AUTO
         6 000406   000001 621010                    EAX1    1,X0
         6 000407   200700 741100                    STX1    TH_HEAD+6,,AUTO

      780     4971    3                 TH_HEAD.UNITMPC_INDX = TH_HEAD.UNITMPC_INDX + 1;

   4971  6 000410   200673 220100                    LDX0    TH_HEAD+1,,AUTO
         6 000411   000001 622010                    EAX2    1,X0
         6 000412   200673 742100                    STX2    TH_HEAD+1,,AUTO

      781     4972    3                 TH_HEAD.TAPEMPC_INDX = TH_HEAD.TAPEMPC_INDX + 1;

   4972  6 000413   200674 220100                    LDX0    TH_HEAD+2,,AUTO
         6 000414   000001 623010                    EAX3    1,X0
         6 000415   200674 743100                    STX3    TH_HEAD+2,,AUTO

      782     4973    3                 TH_HEAD.DISKMPC_INDX = TH_HEAD.DISKMPC_INDX + 1;

PL6.E3A0      #003=THE$PROCESS File=THE$ELAN.:E05TSI                             WED 07/30/97 06:09 Page:134
   4973  6 000416   200675 220100                    LDX0    TH_HEAD+3,,AUTO
         6 000417   000001 624010                    EAX4    1,X0
         6 000420   200675 744100                    STX4    TH_HEAD+3,,AUTO

      783     4974    3                 TH_HEAD.APMPC_INDX = TH_HEAD.APMPC_INDX + 1;

   4974  6 000421   200676 220100                    LDX0    TH_HEAD+4,,AUTO
         6 000422   000001 625010                    EAX5    1,X0
         6 000423   200676 745100                    STX5    TH_HEAD+4,,AUTO

      784     4975    3                 TH_HEAD.OPC_INDX = TH_HEAD.OPC_INDX + 1;

   4975  6 000424   200677 220100                    LDX0    TH_HEAD+5,,AUTO
         6 000425   000001 626010                    EAX6    1,X0
         6 000426   200677 746100                    STX6    TH_HEAD+5,,AUTO

      785     4976    3                 TH_HEAD.CONSOLE_INDX = TH_HEAD.CONSOLE_INDX + 1;

   4976  6 000427   200701 220100                    LDX0    TH_HEAD+7,,AUTO
         6 000430   000001 627010                    EAX7    1,X0
         6 000431   200701 747100                    STX7    TH_HEAD+7,,AUTO

      786     4977    3                 TH_HEAD.LP_INDX = TH_HEAD.LP_INDX + 1;

   4977  6 000432   200702 220100                    LDX0    TH_HEAD+8,,AUTO
         6 000433   000001 621010                    EAX1    1,X0
         6 000434   200702 741100                    STX1    TH_HEAD+8,,AUTO

      787     4978    3                 TH_HEAD.CR_INDX = TH_HEAD.CR_INDX + 1;

   4978  6 000435   200703 220100                    LDX0    TH_HEAD+9,,AUTO
         6 000436   000001 621010                    EAX1    1,X0
         6 000437   200703 741100                    STX1    TH_HEAD+9,,AUTO

      788     4979    3                 TH_HEAD.CP_INDX = TH_HEAD.CP_INDX + 1;

   4979  6 000440   200704 220100                    LDX0    TH_HEAD+10,,AUTO
PL6.E3A0      #003=THE$PROCESS File=THE$ELAN.:E05TSI                             WED 07/30/97 06:09 Page:135
         6 000441   000001 621010                    EAX1    1,X0
         6 000442   200704 741100                    STX1    TH_HEAD+10,,AUTO

      789     4980    3                 TH_HEAD.DP_INDX = TH_HEAD.DP_INDX + 1;

   4980  6 000443   200705 220100                    LDX0    TH_HEAD+11,,AUTO
         6 000444   000001 621010                    EAX1    1,X0
         6 000445   200705 741100                    STX1    TH_HEAD+11,,AUTO

      790     4981    3                 TH_HEAD.MT_INDX = TH_HEAD.MT_INDX + 1;

   4981  6 000446   200706 220100                    LDX0    TH_HEAD+12,,AUTO
         6 000447   000001 621010                    EAX1    1,X0
         6 000450   200706 741100                    STX1    TH_HEAD+12,,AUTO

      791     4982    3                 TH_HEAD.XX_INDX = TH_HEAD.XX_INDX + 1;

   4982  6 000451   200707 220100                    LDX0    TH_HEAD+13,,AUTO
         6 000452   000001 621010                    EAX1    1,X0
         6 000453   200707 741100                    STX1    TH_HEAD+13,,AUTO

      792     4983    3                 TH_HEAD.AP_INDX = TH_HEAD.AP_INDX + 1;

   4983  6 000454   200710 220100                    LDX0    TH_HEAD+14,,AUTO
         6 000455   000001 621010                    EAX1    1,X0
         6 000456   200710 741100                    STX1    TH_HEAD+14,,AUTO

      793     4984    3                 TH_HEAD.OD_INDX = TH_HEAD.OD_INDX + 1;

   4984  6 000457   200711 220100                    LDX0    TH_HEAD+15,,AUTO
         6 000460   000001 621010                    EAX1    1,X0
         6 000461   200711 741100                    STX1    TH_HEAD+15,,AUTO

      794     4985    3                 NUM_NEW_COMPS = NUM_NEW_COMPS + 1;

   4985  6 000462   000005 236000 4                  LDQ     NUM_NEW_COMPS
         6 000463   000001 036007                    ADLQ    1,DL
PL6.E3A0      #003=THE$PROCESS File=THE$ELAN.:E05TSI                             WED 07/30/97 06:09 Page:136
         6 000464   000005 756000 4                  STQ     NUM_NEW_COMPS

      795     4986    3              END;  /* IF NOT FOUND */

      796     4987    2        END;  /* DO I */

   4987  6 000465   200016 054100                    AOS     I,,AUTO
         6 000466   200030 236100                    LDQ     TD_HEAD,,AUTO
         6 000467   777777 376007                    ANQ     -1,DL
         6 000470   210124 756100                    STQ     TH_UTS+3,,AUTO
         6 000471   200030 236100                    LDQ     TD_HEAD,,AUTO
         6 000472   000022 772000                    QRL     18
         6 000473   210124 036100                    ADLQ    TH_UTS+3,,AUTO
         6 000474   000303 604000 6                  TMI     s:4955
         6 000475   200016 116100                    CMPQ    I,,AUTO
         6 000476   000303 605400 6                  TPNZ    s:4955

      797     4988
      798     4989    2        DO I = TD_HEAD.FEP_INDX TO TD_HEAD.FEP_INDX + TD_HEAD.NUMFEPS - 1;

   4989  6 000477   200036 235100                    LDA     TD_HEAD+6,,AUTO
         6 000500   000022 771000                    ARL     18
         6 000501   200016 755100                    STA     I,,AUTO
         6 000502   000654 710000 6                  TRA     s:5018+1

      799     4990    2           FOUND = %FALSE;

   4990  6 000503   200004 450100                    STZ     FOUND,,AUTO

      800     4991    3           DO J = TH_HEAD.FEP_INDX TO TH_HEAD.FEP_INDX + TH_HEAD.NUMFEPS - 1;

   4991  6 000504   200700 235100                    LDA     TH_HEAD+6,,AUTO
         6 000505   000022 771000                    ARL     18
         6 000506   200017 755100                    STA     J,,AUTO
         6 000507   000523 710000 6                  TRA     s:4994+1

      801     4992    3              IF TD_HEAD.DEVNAME(I) = TH_HEAD.DEVNAME(J)
PL6.E3A0      #003=THE$PROCESS File=THE$ELAN.:E05TSI                             WED 07/30/97 06:09 Page:137

   4992  6 000510   200017 235100                    LDA     J,,AUTO
         6 000511   000001 735000                    ALS     1
         6 000512   000000 620005                    EAX0    0,AL
         6 000513   200016 236100                    LDQ     I,,AUTO
         6 000514   000001 736000                    QLS     1
         6 000515   200050 237106                    LDAQ    TD_HEAD+16,QL,AUTO
         6 000516   200712 117110                    CMPAQ   TH_HEAD+16,X0,AUTO
         6 000517   000522 601000 6                  TNZ     s:4994

      802     4993    3                 THEN FOUND = %TRUE;

   4993  6 000520   400000 236003                    LDQ     -131072,DU
         6 000521   200004 756100                    STQ     FOUND,,AUTO

      803     4994    3              END;  /* DO J */

   4994  6 000522   200017 054100                    AOS     J,,AUTO
         6 000523   200700 236100                    LDQ     TH_HEAD+6,,AUTO
         6 000524   777777 376007                    ANQ     -1,DL
         6 000525   210124 756100                    STQ     TH_UTS+3,,AUTO
         6 000526   200700 236100                    LDQ     TH_HEAD+6,,AUTO
         6 000527   000022 772000                    QRL     18
         6 000530   210124 036100                    ADLQ    TH_UTS+3,,AUTO
         6 000531   000510 604000 6                  TMI     s:4992
         6 000532   200017 116100                    CMPQ    J,,AUTO
         6 000533   000510 605400 6                  TPNZ    s:4992

      804     4995    3           IF NOT FOUND THEN DO;

   4995  6 000534   200004 234100                    SZN     FOUND,,AUTO
         6 000535   000653 604000 6                  TMI     s:5018

      805     4996    4              DO K = LAST_INDX DOWNTO TH_HEAD.UNITMPC_INDX;

   4996  6 000536   200005 235100                    LDA     LAST_INDX,,AUTO
         6 000537   200020 755100                    STA     K,,AUTO
PL6.E3A0      #003=THE$PROCESS File=THE$ELAN.:E05TSI                             WED 07/30/97 06:09 Page:138
         6 000540   000550 710000 6                  TRA     s:4998+2

      806     4997    4                 TH_HEAD.DEVNAME(K+1) = TH_HEAD.DEVNAME(K);

   4997  6 000541   200020 235100                    LDA     K,,AUTO
         6 000542   000001 735000                    ALS     1
         6 000543   000000 620005                    EAX0    0,AL
         6 000544   200712 237105                    LDAQ    TH_HEAD+16,AL,AUTO
         6 000545   200714 757110                    STAQ    TH_HEAD+18,X0,AUTO

      807     4998    4                 END;  /* DO K */

   4998  6 000546   000001 336007                    LCQ     1,DL
         6 000547   200020 056100                    ASQ     K,,AUTO
         6 000550   200673 236100                    LDQ     TH_HEAD+1,,AUTO
         6 000551   000022 772000                    QRL     18
         6 000552   200020 116100                    CMPQ    K,,AUTO
         6 000553   000541 604400 6                  TMOZ    s:4997

      808     4999    3             TH_HEAD.DEVNAME(TH_HEAD.FEP_INDX + TH_HEAD.NUMFEPS) = TD_HEAD.DEVNAME(I);

   4999  6 000554   200700 236100                    LDQ     TH_HEAD+6,,AUTO
         6 000555   777777 376007                    ANQ     -1,DL
         6 000556   210124 756100                    STQ     TH_UTS+3,,AUTO
         6 000557   200700 236100                    LDQ     TH_HEAD+6,,AUTO
         6 000560   000022 772000                    QRL     18
         6 000561   210124 036100                    ADLQ    TH_UTS+3,,AUTO
         6 000562   000001 736000                    QLS     1
         6 000563   200016 235100                    LDA     I,,AUTO
         6 000564   000001 735000                    ALS     1
         6 000565   000000 620006                    EAX0    0,QL
         6 000566   200050 237105                    LDAQ    TD_HEAD+16,AL,AUTO
         6 000567   200712 757110                    STAQ    TH_HEAD+16,X0,AUTO

      809     5000    3              TH_HEAD.NUMFEPS = TH_HEAD.NUMFEPS + 1;

   5000  6 000570   200700 720100                    LXL0    TH_HEAD+6,,AUTO
PL6.E3A0      #003=THE$PROCESS File=THE$ELAN.:E05TSI                             WED 07/30/97 06:09 Page:139
         6 000571   000001 621010                    EAX1    1,X0
         6 000572   200700 441100                    SXL1    TH_HEAD+6,,AUTO

      810     5001    3              LAST_INDX = LAST_INDX + 1;

   5001  6 000573   200005 235100                    LDA     LAST_INDX,,AUTO
         6 000574   000001 035007                    ADLA    1,DL
         6 000575   200005 755100                    STA     LAST_INDX,,AUTO

      811     5002    3              TH_HEAD.UNITMPC_INDX = TH_HEAD.UNITMPC_INDX + 1;

   5002  6 000576   200673 220100                    LDX0    TH_HEAD+1,,AUTO
         6 000577   000001 622010                    EAX2    1,X0
         6 000600   200673 742100                    STX2    TH_HEAD+1,,AUTO

      812     5003    3              TH_HEAD.TAPEMPC_INDX = TH_HEAD.TAPEMPC_INDX + 1;

   5003  6 000601   200674 220100                    LDX0    TH_HEAD+2,,AUTO
         6 000602   000001 623010                    EAX3    1,X0
         6 000603   200674 743100                    STX3    TH_HEAD+2,,AUTO

      813     5004    3              TH_HEAD.DISKMPC_INDX = TH_HEAD.DISKMPC_INDX + 1;

   5004  6 000604   200675 220100                    LDX0    TH_HEAD+3,,AUTO
         6 000605   000001 624010                    EAX4    1,X0
         6 000606   200675 744100                    STX4    TH_HEAD+3,,AUTO

      814     5005    3              TH_HEAD.APMPC_INDX = TH_HEAD.APMPC_INDX + 1;

   5005  6 000607   200676 220100                    LDX0    TH_HEAD+4,,AUTO
         6 000610   000001 625010                    EAX5    1,X0
         6 000611   200676 745100                    STX5    TH_HEAD+4,,AUTO

      815     5006    3              TH_HEAD.OPC_INDX = TH_HEAD.OPC_INDX + 1;

   5006  6 000612   200677 220100                    LDX0    TH_HEAD+5,,AUTO
         6 000613   000001 626010                    EAX6    1,X0
PL6.E3A0      #003=THE$PROCESS File=THE$ELAN.:E05TSI                             WED 07/30/97 06:09 Page:140
         6 000614   200677 746100                    STX6    TH_HEAD+5,,AUTO

      816     5007    3              TH_HEAD.CONSOLE_INDX = TH_HEAD.CONSOLE_INDX + 1;

   5007  6 000615   200701 220100                    LDX0    TH_HEAD+7,,AUTO
         6 000616   000001 627010                    EAX7    1,X0
         6 000617   200701 747100                    STX7    TH_HEAD+7,,AUTO

      817     5008    3              TH_HEAD.LP_INDX = TH_HEAD.LP_INDX + 1;

   5008  6 000620   200702 220100                    LDX0    TH_HEAD+8,,AUTO
         6 000621   000001 621010                    EAX1    1,X0
         6 000622   200702 741100                    STX1    TH_HEAD+8,,AUTO

      818     5009    3              TH_HEAD.CR_INDX = TH_HEAD.CR_INDX + 1;

   5009  6 000623   200703 220100                    LDX0    TH_HEAD+9,,AUTO
         6 000624   000001 621010                    EAX1    1,X0
         6 000625   200703 741100                    STX1    TH_HEAD+9,,AUTO

      819     5010    3              TH_HEAD.CP_INDX = TH_HEAD.CP_INDX + 1;

   5010  6 000626   200704 220100                    LDX0    TH_HEAD+10,,AUTO
         6 000627   000001 621010                    EAX1    1,X0
         6 000630   200704 741100                    STX1    TH_HEAD+10,,AUTO

      820     5011    3              TH_HEAD.DP_INDX = TH_HEAD.DP_INDX + 1;

   5011  6 000631   200705 220100                    LDX0    TH_HEAD+11,,AUTO
         6 000632   000001 621010                    EAX1    1,X0
         6 000633   200705 741100                    STX1    TH_HEAD+11,,AUTO

      821     5012    3              TH_HEAD.MT_INDX = TH_HEAD.MT_INDX + 1;

   5012  6 000634   200706 220100                    LDX0    TH_HEAD+12,,AUTO
         6 000635   000001 621010                    EAX1    1,X0
         6 000636   200706 741100                    STX1    TH_HEAD+12,,AUTO
PL6.E3A0      #003=THE$PROCESS File=THE$ELAN.:E05TSI                             WED 07/30/97 06:09 Page:141

      822     5013    3                 TH_HEAD.XX_INDX = TH_HEAD.XX_INDX + 1;

   5013  6 000637   200707 220100                    LDX0    TH_HEAD+13,,AUTO
         6 000640   000001 621010                    EAX1    1,X0
         6 000641   200707 741100                    STX1    TH_HEAD+13,,AUTO

      823     5014    3              TH_HEAD.AP_INDX = TH_HEAD.AP_INDX + 1;

   5014  6 000642   200710 220100                    LDX0    TH_HEAD+14,,AUTO
         6 000643   000001 621010                    EAX1    1,X0
         6 000644   200710 741100                    STX1    TH_HEAD+14,,AUTO

      824     5015    3              TH_HEAD.OD_INDX = TH_HEAD.OD_INDX + 1;

   5015  6 000645   200711 220100                    LDX0    TH_HEAD+15,,AUTO
         6 000646   000001 621010                    EAX1    1,X0
         6 000647   200711 741100                    STX1    TH_HEAD+15,,AUTO

      825     5016    3              NUM_NEW_COMPS = NUM_NEW_COMPS + 1;

   5016  6 000650   000005 236000 4                  LDQ     NUM_NEW_COMPS
         6 000651   000001 036007                    ADLQ    1,DL
         6 000652   000005 756000 4                  STQ     NUM_NEW_COMPS

      826     5017    3              END;  /* IF NOT FOUND */

      827     5018    2           END;  /* DO I */

   5018  6 000653   200016 054100                    AOS     I,,AUTO
         6 000654   200036 236100                    LDQ     TD_HEAD+6,,AUTO
         6 000655   777777 376007                    ANQ     -1,DL
         6 000656   210124 756100                    STQ     TH_UTS+3,,AUTO
         6 000657   200036 236100                    LDQ     TD_HEAD+6,,AUTO
         6 000660   000022 772000                    QRL     18
         6 000661   210124 036100                    ADLQ    TH_UTS+3,,AUTO
         6 000662   000503 604000 6                  TMI     s:4990
PL6.E3A0      #003=THE$PROCESS File=THE$ELAN.:E05TSI                             WED 07/30/97 06:09 Page:142
         6 000663   200016 116100                    CMPQ    I,,AUTO
         6 000664   000503 605400 6                  TPNZ    s:4990

      828     5019
      829     5020                                        /* CHECK FOR UCS */
      830     5021    2        DO I = TD_HEAD.UNITMPC_INDX TO TD_HEAD.UNITMPC_INDX + TD_HEAD.NUMUNITMPCS - 1;

   5021  6 000665   200031 235100                    LDA     TD_HEAD+1,,AUTO
         6 000666   000022 771000                    ARL     18
         6 000667   200016 755100                    STA     I,,AUTO
         6 000670   001046 710000 6                  TRA     s:5052+1

      831     5022    2           FOUND = %FALSE;

   5022  6 000671   200004 450100                    STZ     FOUND,,AUTO

      832     5023    3           DO J = TH_HEAD.UNITMPC_INDX TO TH_HEAD.UNITMPC_INDX + TH_HEAD.NUMUNITMPCS -
              5023                    1;

   5023  6 000672   200673 235100                    LDA     TH_HEAD+1,,AUTO
         6 000673   000022 771000                    ARL     18
         6 000674   200017 755100                    STA     J,,AUTO
         6 000675   000711 710000 6                  TRA     s:5026+1

      833     5024    3              IF TD_HEAD.DEVNAME(I) = TH_HEAD.DEVNAME(J)

   5024  6 000676   200017 235100                    LDA     J,,AUTO
         6 000677   000001 735000                    ALS     1
         6 000700   000000 620005                    EAX0    0,AL
         6 000701   200016 236100                    LDQ     I,,AUTO
         6 000702   000001 736000                    QLS     1
         6 000703   200050 237106                    LDAQ    TD_HEAD+16,QL,AUTO
         6 000704   200712 117110                    CMPAQ   TH_HEAD+16,X0,AUTO
         6 000705   000710 601000 6                  TNZ     s:5026

      834     5025    3                 THEN FOUND = %TRUE;

PL6.E3A0      #003=THE$PROCESS File=THE$ELAN.:E05TSI                             WED 07/30/97 06:09 Page:143
   5025  6 000706   400000 236003                    LDQ     -131072,DU
         6 000707   200004 756100                    STQ     FOUND,,AUTO

      835     5026    3           END;                            /* DO J                               */

   5026  6 000710   200017 054100                    AOS     J,,AUTO
         6 000711   200673 236100                    LDQ     TH_HEAD+1,,AUTO
         6 000712   777777 376007                    ANQ     -1,DL
         6 000713   210124 756100                    STQ     TH_UTS+3,,AUTO
         6 000714   200673 236100                    LDQ     TH_HEAD+1,,AUTO
         6 000715   000022 772000                    QRL     18
         6 000716   210124 036100                    ADLQ    TH_UTS+3,,AUTO
         6 000717   000676 604000 6                  TMI     s:5024
         6 000720   200017 116100                    CMPQ    J,,AUTO
         6 000721   000676 605400 6                  TPNZ    s:5024

      836     5027    2           IF NOT FOUND

   5027  6 000722   200004 234100                    SZN     FOUND,,AUTO
         6 000723   001045 604000 6                  TMI     s:5052

      837     5028    2              THEN                         /* STUFF INTO TH_HEAD.DEVNAME         */
      838     5029    3              DO;

      839     5030    4                 DO K = TH_HEAD.TAPEMPC_INDX TO LAST_INDX;

   5030  6 000724   200674 235100                    LDA     TH_HEAD+2,,AUTO
         6 000725   000022 771000                    ARL     18
         6 000726   200020 755100                    STA     K,,AUTO
         6 000727   000745 710000 6                  TRA     s:5033+1

      840     5031    4                    INDX = LAST_INDX - K + TH_HEAD.TAPEMPC_INDX;

   5031  6 000730   200005 236100                    LDQ     LAST_INDX,,AUTO
         6 000731   200020 136100                    SBLQ    K,,AUTO
         6 000732   200674 235100                    LDA     TH_HEAD+2,,AUTO
         6 000733   000022 771000                    ARL     18
PL6.E3A0      #003=THE$PROCESS File=THE$ELAN.:E05TSI                             WED 07/30/97 06:09 Page:144
         6 000734   210124 755100                    STA     TH_UTS+3,,AUTO
         6 000735   210124 036100                    ADLQ    TH_UTS+3,,AUTO
         6 000736   200021 756100                    STQ     INDX,,AUTO

      841     5032    4                    TH_HEAD.DEVNAME(INDX + 1) = TH_HEAD.DEVNAME(INDX);

   5032  6 000737   200021 235100                    LDA     INDX,,AUTO
         6 000740   000001 735000                    ALS     1
         6 000741   000000 620005                    EAX0    0,AL
         6 000742   200712 237105                    LDAQ    TH_HEAD+16,AL,AUTO
         6 000743   200714 757110                    STAQ    TH_HEAD+18,X0,AUTO

      842     5033    4                 END;                      /* DO K                               */

   5033  6 000744   200020 054100                    AOS     K,,AUTO
         6 000745   200005 236100                    LDQ     LAST_INDX,,AUTO
         6 000746   000730 604000 6                  TMI     s:5031
         6 000747   200020 116100                    CMPQ    K,,AUTO
         6 000750   000730 605000 6                  TPL     s:5031

      843     5034    3                 TH_HEAD.NUMUNITMPCS = TH_HEAD.NUMUNITMPCS + 1;

   5034  6 000751   200673 720100                    LXL0    TH_HEAD+1,,AUTO
         6 000752   000001 621010                    EAX1    1,X0
         6 000753   200673 441100                    SXL1    TH_HEAD+1,,AUTO

      844     5035    3                 TH_HEAD.DEVNAME(TH_HEAD.UNITMPC_INDX + TH_HEAD.NUMUNITMPCS - 1) =
              5035                          TD_HEAD.DEVNAME(I);

   5035  6 000754   200673 236100                    LDQ     TH_HEAD+1,,AUTO
         6 000755   777777 376007                    ANQ     -1,DL
         6 000756   210124 756100                    STQ     TH_UTS+3,,AUTO
         6 000757   200673 236100                    LDQ     TH_HEAD+1,,AUTO
         6 000760   000022 772000                    QRL     18
         6 000761   210124 036100                    ADLQ    TH_UTS+3,,AUTO
         6 000762   000001 736000                    QLS     1
         6 000763   200016 235100                    LDA     I,,AUTO
PL6.E3A0      #003=THE$PROCESS File=THE$ELAN.:E05TSI                             WED 07/30/97 06:09 Page:145
         6 000764   000001 735000                    ALS     1
         6 000765   000000 620006                    EAX0    0,QL
         6 000766   200050 237105                    LDAQ    TD_HEAD+16,AL,AUTO
         6 000767   200710 757110                    STAQ    TH_HEAD+14,X0,AUTO

      845     5036    3                 LAST_INDX = LAST_INDX + 1;

   5036  6 000770   200005 235100                    LDA     LAST_INDX,,AUTO
         6 000771   000001 035007                    ADLA    1,DL
         6 000772   200005 755100                    STA     LAST_INDX,,AUTO

      846     5037    3                 TH_HEAD.TAPEMPC_INDX = TH_HEAD.TAPEMPC_INDX + 1;

   5037  6 000773   200674 220100                    LDX0    TH_HEAD+2,,AUTO
         6 000774   000001 621010                    EAX1    1,X0
         6 000775   200674 741100                    STX1    TH_HEAD+2,,AUTO

      847     5038    3                 TH_HEAD.DISKMPC_INDX = TH_HEAD.DISKMPC_INDX + 1;

   5038  6 000776   200675 220100                    LDX0    TH_HEAD+3,,AUTO
         6 000777   000001 622010                    EAX2    1,X0
         6 001000   200675 742100                    STX2    TH_HEAD+3,,AUTO

      848     5039    3                 TH_HEAD.APMPC_INDX = TH_HEAD.APMPC_INDX + 1;

   5039  6 001001   200676 220100                    LDX0    TH_HEAD+4,,AUTO
         6 001002   000001 623010                    EAX3    1,X0
         6 001003   200676 743100                    STX3    TH_HEAD+4,,AUTO

      849     5040    3                 TH_HEAD.OPC_INDX = TH_HEAD.OPC_INDX + 1;

   5040  6 001004   200677 220100                    LDX0    TH_HEAD+5,,AUTO
         6 001005   000001 624010                    EAX4    1,X0
         6 001006   200677 744100                    STX4    TH_HEAD+5,,AUTO

      850     5041    3                 TH_HEAD.CONSOLE_INDX = TH_HEAD.CONSOLE_INDX + 1;

PL6.E3A0      #003=THE$PROCESS File=THE$ELAN.:E05TSI                             WED 07/30/97 06:09 Page:146
   5041  6 001007   200701 220100                    LDX0    TH_HEAD+7,,AUTO
         6 001010   000001 625010                    EAX5    1,X0
         6 001011   200701 745100                    STX5    TH_HEAD+7,,AUTO

      851     5042    3                 TH_HEAD.LP_INDX = TH_HEAD.LP_INDX + 1;

   5042  6 001012   200702 220100                    LDX0    TH_HEAD+8,,AUTO
         6 001013   000001 626010                    EAX6    1,X0
         6 001014   200702 746100                    STX6    TH_HEAD+8,,AUTO

      852     5043    3                 TH_HEAD.CR_INDX = TH_HEAD.CR_INDX + 1;

   5043  6 001015   200703 220100                    LDX0    TH_HEAD+9,,AUTO
         6 001016   000001 627010                    EAX7    1,X0
         6 001017   200703 747100                    STX7    TH_HEAD+9,,AUTO

      853     5044    3                 TH_HEAD.CP_INDX = TH_HEAD.CP_INDX + 1;

   5044  6 001020   200704 220100                    LDX0    TH_HEAD+10,,AUTO
         6 001021   000001 621010                    EAX1    1,X0
         6 001022   200704 741100                    STX1    TH_HEAD+10,,AUTO

      854     5045    3                 TH_HEAD.DP_INDX = TH_HEAD.DP_INDX + 1;

   5045  6 001023   200705 220100                    LDX0    TH_HEAD+11,,AUTO
         6 001024   000001 621010                    EAX1    1,X0
         6 001025   200705 741100                    STX1    TH_HEAD+11,,AUTO

      855     5046    3                 TH_HEAD.MT_INDX = TH_HEAD.MT_INDX + 1;

   5046  6 001026   200706 220100                    LDX0    TH_HEAD+12,,AUTO
         6 001027   000001 621010                    EAX1    1,X0
         6 001030   200706 741100                    STX1    TH_HEAD+12,,AUTO

      856     5047    3                 TH_HEAD.XX_INDX = TH_HEAD.XX_INDX + 1;

   5047  6 001031   200707 220100                    LDX0    TH_HEAD+13,,AUTO
PL6.E3A0      #003=THE$PROCESS File=THE$ELAN.:E05TSI                             WED 07/30/97 06:09 Page:147
         6 001032   000001 621010                    EAX1    1,X0
         6 001033   200707 741100                    STX1    TH_HEAD+13,,AUTO

      857     5048    3                 TH_HEAD.AP_INDX = TH_HEAD.AP_INDX + 1;

   5048  6 001034   200710 220100                    LDX0    TH_HEAD+14,,AUTO
         6 001035   000001 621010                    EAX1    1,X0
         6 001036   200710 741100                    STX1    TH_HEAD+14,,AUTO

      858     5049    3                 TH_HEAD.OD_INDX = TH_HEAD.OD_INDX + 1;

   5049  6 001037   200711 220100                    LDX0    TH_HEAD+15,,AUTO
         6 001040   000001 621010                    EAX1    1,X0
         6 001041   200711 741100                    STX1    TH_HEAD+15,,AUTO

      859     5050    3                 NUM_NEW_COMPS = NUM_NEW_COMPS + 1;

   5050  6 001042   000005 236000 4                  LDQ     NUM_NEW_COMPS
         6 001043   000001 036007                    ADLQ    1,DL
         6 001044   000005 756000 4                  STQ     NUM_NEW_COMPS

      860     5051    3              END;                         /* IF NOT FOUND                       */

      861     5052    2        END;                               /* DO I                               */

   5052  6 001045   200016 054100                    AOS     I,,AUTO
         6 001046   200031 236100                    LDQ     TD_HEAD+1,,AUTO
         6 001047   777777 376007                    ANQ     -1,DL
         6 001050   210124 756100                    STQ     TH_UTS+3,,AUTO
         6 001051   200031 236100                    LDQ     TD_HEAD+1,,AUTO
         6 001052   000022 772000                    QRL     18
         6 001053   210124 036100                    ADLQ    TH_UTS+3,,AUTO
         6 001054   000671 604000 6                  TMI     s:5022
         6 001055   200016 116100                    CMPQ    I,,AUTO
         6 001056   000671 605400 6                  TPNZ    s:5022

      862     5053
PL6.E3A0      #003=THE$PROCESS File=THE$ELAN.:E05TSI                             WED 07/30/97 06:09 Page:148
      863     5054                                                /* CHECK FOR TCS                      */
      864     5055    2        DO I = TD_HEAD.TAPEMPC_INDX TO TD_HEAD.TAPEMPC_INDX + TD_HEAD.NUMTAPEMPCS - 1;

   5055  6 001057   200032 235100                    LDA     TD_HEAD+2,,AUTO
         6 001060   000022 771000                    ARL     18
         6 001061   200016 755100                    STA     I,,AUTO
         6 001062   001235 710000 6                  TRA     s:5085+1

      865     5056    2           FOUND = %FALSE;

   5056  6 001063   200004 450100                    STZ     FOUND,,AUTO

      866     5057    3           DO J = TH_HEAD.TAPEMPC_INDX TO TH_HEAD.TAPEMPC_INDX + TH_HEAD.NUMTAPEMPCS -
              5057                    1;

   5057  6 001064   200674 235100                    LDA     TH_HEAD+2,,AUTO
         6 001065   000022 771000                    ARL     18
         6 001066   200017 755100                    STA     J,,AUTO
         6 001067   001103 710000 6                  TRA     s:5060+1

      867     5058    3              IF TD_HEAD.DEVNAME(I) = TH_HEAD.DEVNAME(J)

   5058  6 001070   200017 235100                    LDA     J,,AUTO
         6 001071   000001 735000                    ALS     1
         6 001072   000000 620005                    EAX0    0,AL
         6 001073   200016 236100                    LDQ     I,,AUTO
         6 001074   000001 736000                    QLS     1
         6 001075   200050 237106                    LDAQ    TD_HEAD+16,QL,AUTO
         6 001076   200712 117110                    CMPAQ   TH_HEAD+16,X0,AUTO
         6 001077   001102 601000 6                  TNZ     s:5060

      868     5059    3                 THEN FOUND = %TRUE;

   5059  6 001100   400000 236003                    LDQ     -131072,DU
         6 001101   200004 756100                    STQ     FOUND,,AUTO

      869     5060    3           END;                            /* DO J                               */
PL6.E3A0      #003=THE$PROCESS File=THE$ELAN.:E05TSI                             WED 07/30/97 06:09 Page:149

   5060  6 001102   200017 054100                    AOS     J,,AUTO
         6 001103   200674 236100                    LDQ     TH_HEAD+2,,AUTO
         6 001104   777777 376007                    ANQ     -1,DL
         6 001105   210124 756100                    STQ     TH_UTS+3,,AUTO
         6 001106   200674 236100                    LDQ     TH_HEAD+2,,AUTO
         6 001107   000022 772000                    QRL     18
         6 001110   210124 036100                    ADLQ    TH_UTS+3,,AUTO
         6 001111   001070 604000 6                  TMI     s:5058
         6 001112   200017 116100                    CMPQ    J,,AUTO
         6 001113   001070 605400 6                  TPNZ    s:5058

      870     5061    2           IF NOT FOUND

   5061  6 001114   200004 234100                    SZN     FOUND,,AUTO
         6 001115   001234 604000 6                  TMI     s:5085

      871     5062    2              THEN                         /* STUFF INTO TH_HEAD.DEVNAME         */
      872     5063    3              DO;

      873     5064    4                 DO K = TH_HEAD.DISKMPC_INDX TO LAST_INDX;

   5064  6 001116   200675 235100                    LDA     TH_HEAD+3,,AUTO
         6 001117   000022 771000                    ARL     18
         6 001120   200020 755100                    STA     K,,AUTO
         6 001121   001137 710000 6                  TRA     s:5067+1

      874     5065    4                    INDX = LAST_INDX - K + TH_HEAD.DISKMPC_INDX;

   5065  6 001122   200005 236100                    LDQ     LAST_INDX,,AUTO
         6 001123   200020 136100                    SBLQ    K,,AUTO
         6 001124   200675 235100                    LDA     TH_HEAD+3,,AUTO
         6 001125   000022 771000                    ARL     18
         6 001126   210124 755100                    STA     TH_UTS+3,,AUTO
         6 001127   210124 036100                    ADLQ    TH_UTS+3,,AUTO
         6 001130   200021 756100                    STQ     INDX,,AUTO

PL6.E3A0      #003=THE$PROCESS File=THE$ELAN.:E05TSI                             WED 07/30/97 06:09 Page:150
      875     5066    4                    TH_HEAD.DEVNAME(INDX + 1) = TH_HEAD.DEVNAME(INDX);

   5066  6 001131   200021 235100                    LDA     INDX,,AUTO
         6 001132   000001 735000                    ALS     1
         6 001133   000000 620005                    EAX0    0,AL
         6 001134   200712 237105                    LDAQ    TH_HEAD+16,AL,AUTO
         6 001135   200714 757110                    STAQ    TH_HEAD+18,X0,AUTO

      876     5067    4                 END;                      /* DO K                               */

   5067  6 001136   200020 054100                    AOS     K,,AUTO
         6 001137   200005 236100                    LDQ     LAST_INDX,,AUTO
         6 001140   001122 604000 6                  TMI     s:5065
         6 001141   200020 116100                    CMPQ    K,,AUTO
         6 001142   001122 605000 6                  TPL     s:5065

      877     5068    3                 TH_HEAD.NUMTAPEMPCS = TH_HEAD.NUMTAPEMPCS + 1;

   5068  6 001143   200674 720100                    LXL0    TH_HEAD+2,,AUTO
         6 001144   000001 621010                    EAX1    1,X0
         6 001145   200674 441100                    SXL1    TH_HEAD+2,,AUTO

      878     5069    3                 TH_HEAD.DEVNAME(TH_HEAD.TAPEMPC_INDX + TH_HEAD.NUMTAPEMPCS - 1) =
              5069                          TD_HEAD.DEVNAME(I);

   5069  6 001146   200674 236100                    LDQ     TH_HEAD+2,,AUTO
         6 001147   777777 376007                    ANQ     -1,DL
         6 001150   210124 756100                    STQ     TH_UTS+3,,AUTO
         6 001151   200674 236100                    LDQ     TH_HEAD+2,,AUTO
         6 001152   000022 772000                    QRL     18
         6 001153   210124 036100                    ADLQ    TH_UTS+3,,AUTO
         6 001154   000001 736000                    QLS     1
         6 001155   200016 235100                    LDA     I,,AUTO
         6 001156   000001 735000                    ALS     1
         6 001157   000000 620006                    EAX0    0,QL
         6 001160   200050 237105                    LDAQ    TD_HEAD+16,AL,AUTO
         6 001161   200710 757110                    STAQ    TH_HEAD+14,X0,AUTO
PL6.E3A0      #003=THE$PROCESS File=THE$ELAN.:E05TSI                             WED 07/30/97 06:09 Page:151

      879     5070    3                 LAST_INDX = LAST_INDX + 1;

   5070  6 001162   200005 235100                    LDA     LAST_INDX,,AUTO
         6 001163   000001 035007                    ADLA    1,DL
         6 001164   200005 755100                    STA     LAST_INDX,,AUTO

      880     5071    3                 TH_HEAD.DISKMPC_INDX = TH_HEAD.DISKMPC_INDX + 1;

   5071  6 001165   200675 220100                    LDX0    TH_HEAD+3,,AUTO
         6 001166   000001 621010                    EAX1    1,X0
         6 001167   200675 741100                    STX1    TH_HEAD+3,,AUTO

      881     5072    3                 TH_HEAD.APMPC_INDX = TH_HEAD.APMPC_INDX + 1;

   5072  6 001170   200676 220100                    LDX0    TH_HEAD+4,,AUTO
         6 001171   000001 622010                    EAX2    1,X0
         6 001172   200676 742100                    STX2    TH_HEAD+4,,AUTO

      882     5073    3                 TH_HEAD.OPC_INDX = TH_HEAD.OPC_INDX + 1;

   5073  6 001173   200677 220100                    LDX0    TH_HEAD+5,,AUTO
         6 001174   000001 623010                    EAX3    1,X0
         6 001175   200677 743100                    STX3    TH_HEAD+5,,AUTO

      883     5074    3                 TH_HEAD.CONSOLE_INDX = TH_HEAD.CONSOLE_INDX + 1;

   5074  6 001176   200701 220100                    LDX0    TH_HEAD+7,,AUTO
         6 001177   000001 624010                    EAX4    1,X0
         6 001200   200701 744100                    STX4    TH_HEAD+7,,AUTO

      884     5075    3                 TH_HEAD.LP_INDX = TH_HEAD.LP_INDX + 1;

   5075  6 001201   200702 220100                    LDX0    TH_HEAD+8,,AUTO
         6 001202   000001 625010                    EAX5    1,X0
         6 001203   200702 745100                    STX5    TH_HEAD+8,,AUTO

PL6.E3A0      #003=THE$PROCESS File=THE$ELAN.:E05TSI                             WED 07/30/97 06:09 Page:152
      885     5076    3                 TH_HEAD.CR_INDX = TH_HEAD.CR_INDX + 1;

   5076  6 001204   200703 220100                    LDX0    TH_HEAD+9,,AUTO
         6 001205   000001 626010                    EAX6    1,X0
         6 001206   200703 746100                    STX6    TH_HEAD+9,,AUTO

      886     5077    3                 TH_HEAD.CP_INDX = TH_HEAD.CP_INDX + 1;

   5077  6 001207   200704 220100                    LDX0    TH_HEAD+10,,AUTO
         6 001210   000001 627010                    EAX7    1,X0
         6 001211   200704 747100                    STX7    TH_HEAD+10,,AUTO

      887     5078    3                 TH_HEAD.DP_INDX = TH_HEAD.DP_INDX + 1;

   5078  6 001212   200705 220100                    LDX0    TH_HEAD+11,,AUTO
         6 001213   000001 621010                    EAX1    1,X0
         6 001214   200705 741100                    STX1    TH_HEAD+11,,AUTO

      888     5079    3                 TH_HEAD.MT_INDX = TH_HEAD.MT_INDX + 1;

   5079  6 001215   200706 220100                    LDX0    TH_HEAD+12,,AUTO
         6 001216   000001 621010                    EAX1    1,X0
         6 001217   200706 741100                    STX1    TH_HEAD+12,,AUTO

      889     5080    3                 TH_HEAD.XX_INDX = TH_HEAD.XX_INDX + 1;

   5080  6 001220   200707 220100                    LDX0    TH_HEAD+13,,AUTO
         6 001221   000001 621010                    EAX1    1,X0
         6 001222   200707 741100                    STX1    TH_HEAD+13,,AUTO

      890     5081    3                 TH_HEAD.AP_INDX = TH_HEAD.AP_INDX + 1;

   5081  6 001223   200710 220100                    LDX0    TH_HEAD+14,,AUTO
         6 001224   000001 621010                    EAX1    1,X0
         6 001225   200710 741100                    STX1    TH_HEAD+14,,AUTO

      891     5082    3                 TH_HEAD.OD_INDX = TH_HEAD.OD_INDX + 1;
PL6.E3A0      #003=THE$PROCESS File=THE$ELAN.:E05TSI                             WED 07/30/97 06:09 Page:153

   5082  6 001226   200711 220100                    LDX0    TH_HEAD+15,,AUTO
         6 001227   000001 621010                    EAX1    1,X0
         6 001230   200711 741100                    STX1    TH_HEAD+15,,AUTO

      892     5083    3                 NUM_NEW_COMPS = NUM_NEW_COMPS + 1;

   5083  6 001231   000005 236000 4                  LDQ     NUM_NEW_COMPS
         6 001232   000001 036007                    ADLQ    1,DL
         6 001233   000005 756000 4                  STQ     NUM_NEW_COMPS

      893     5084    3              END;                         /* IF NOT FOUND                       */

      894     5085    2        END;                               /* DO I                               */

   5085  6 001234   200016 054100                    AOS     I,,AUTO
         6 001235   200032 236100                    LDQ     TD_HEAD+2,,AUTO
         6 001236   777777 376007                    ANQ     -1,DL
         6 001237   210124 756100                    STQ     TH_UTS+3,,AUTO
         6 001240   200032 236100                    LDQ     TD_HEAD+2,,AUTO
         6 001241   000022 772000                    QRL     18
         6 001242   210124 036100                    ADLQ    TH_UTS+3,,AUTO
         6 001243   001063 604000 6                  TMI     s:5056
         6 001244   200016 116100                    CMPQ    I,,AUTO
         6 001245   001063 605400 6                  TPNZ    s:5056

      895     5086
      896     5087                                                /* CHECK FOR DCS                      */
      897     5088    2        DO I = TD_HEAD.DISKMPC_INDX TO TD_HEAD.DISKMPC_INDX + TD_HEAD.NUMDISKMPCS - 1;

   5088  6 001246   200033 235100                    LDA     TD_HEAD+3,,AUTO
         6 001247   000022 771000                    ARL     18
         6 001250   200016 755100                    STA     I,,AUTO
         6 001251   001421 710000 6                  TRA     s:5117+1

      898     5089    2           FOUND = %FALSE;

PL6.E3A0      #003=THE$PROCESS File=THE$ELAN.:E05TSI                             WED 07/30/97 06:09 Page:154
   5089  6 001252   200004 450100                    STZ     FOUND,,AUTO

      899     5090    3           DO J = TH_HEAD.DISKMPC_INDX TO TH_HEAD.DISKMPC_INDX + TH_HEAD.NUMDISKMPCS -
              5090                    1;

   5090  6 001253   200675 235100                    LDA     TH_HEAD+3,,AUTO
         6 001254   000022 771000                    ARL     18
         6 001255   200017 755100                    STA     J,,AUTO
         6 001256   001272 710000 6                  TRA     s:5093+1

      900     5091    3              IF TD_HEAD.DEVNAME(I) = TH_HEAD.DEVNAME(J)

   5091  6 001257   200017 235100                    LDA     J,,AUTO
         6 001260   000001 735000                    ALS     1
         6 001261   000000 620005                    EAX0    0,AL
         6 001262   200016 236100                    LDQ     I,,AUTO
         6 001263   000001 736000                    QLS     1
         6 001264   200050 237106                    LDAQ    TD_HEAD+16,QL,AUTO
         6 001265   200712 117110                    CMPAQ   TH_HEAD+16,X0,AUTO
         6 001266   001271 601000 6                  TNZ     s:5093

      901     5092    3                 THEN FOUND = %TRUE;

   5092  6 001267   400000 236003                    LDQ     -131072,DU
         6 001270   200004 756100                    STQ     FOUND,,AUTO

      902     5093    3           END;                            /* DO J                               */

   5093  6 001271   200017 054100                    AOS     J,,AUTO
         6 001272   200675 236100                    LDQ     TH_HEAD+3,,AUTO
         6 001273   777777 376007                    ANQ     -1,DL
         6 001274   210124 756100                    STQ     TH_UTS+3,,AUTO
         6 001275   200675 236100                    LDQ     TH_HEAD+3,,AUTO
         6 001276   000022 772000                    QRL     18
         6 001277   210124 036100                    ADLQ    TH_UTS+3,,AUTO
         6 001300   001257 604000 6                  TMI     s:5091
         6 001301   200017 116100                    CMPQ    J,,AUTO
PL6.E3A0      #003=THE$PROCESS File=THE$ELAN.:E05TSI                             WED 07/30/97 06:09 Page:155
         6 001302   001257 605400 6                  TPNZ    s:5091

      903     5094    2           IF NOT FOUND

   5094  6 001303   200004 234100                    SZN     FOUND,,AUTO
         6 001304   001420 604000 6                  TMI     s:5117

      904     5095    2              THEN                         /* STUFF INTO TH_HEAD.DEVNAME         */
      905     5096    3              DO;

      906     5097    4                 DO K = TH_HEAD.APMPC_INDX TO LAST_INDX;

   5097  6 001305   200676 235100                    LDA     TH_HEAD+4,,AUTO
         6 001306   000022 771000                    ARL     18
         6 001307   200020 755100                    STA     K,,AUTO
         6 001310   001326 710000 6                  TRA     s:5100+1

      907     5098    4                    INDX = LAST_INDX - K + TH_HEAD.APMPC_INDX;

   5098  6 001311   200005 236100                    LDQ     LAST_INDX,,AUTO
         6 001312   200020 136100                    SBLQ    K,,AUTO
         6 001313   200676 235100                    LDA     TH_HEAD+4,,AUTO
         6 001314   000022 771000                    ARL     18
         6 001315   210124 755100                    STA     TH_UTS+3,,AUTO
         6 001316   210124 036100                    ADLQ    TH_UTS+3,,AUTO
         6 001317   200021 756100                    STQ     INDX,,AUTO

      908     5099    4                    TH_HEAD.DEVNAME(INDX + 1) = TH_HEAD.DEVNAME(INDX);

   5099  6 001320   200021 235100                    LDA     INDX,,AUTO
         6 001321   000001 735000                    ALS     1
         6 001322   000000 620005                    EAX0    0,AL
         6 001323   200712 237105                    LDAQ    TH_HEAD+16,AL,AUTO
         6 001324   200714 757110                    STAQ    TH_HEAD+18,X0,AUTO

      909     5100    4                 END;                      /* DO K                               */

PL6.E3A0      #003=THE$PROCESS File=THE$ELAN.:E05TSI                             WED 07/30/97 06:09 Page:156
   5100  6 001325   200020 054100                    AOS     K,,AUTO
         6 001326   200005 236100                    LDQ     LAST_INDX,,AUTO
         6 001327   001311 604000 6                  TMI     s:5098
         6 001330   200020 116100                    CMPQ    K,,AUTO
         6 001331   001311 605000 6                  TPL     s:5098

      910     5101    3                 TH_HEAD.NUMDISKMPCS = TH_HEAD.NUMDISKMPCS + 1;

   5101  6 001332   200675 720100                    LXL0    TH_HEAD+3,,AUTO
         6 001333   000001 621010                    EAX1    1,X0
         6 001334   200675 441100                    SXL1    TH_HEAD+3,,AUTO

      911     5102    3                 TH_HEAD.DEVNAME(TH_HEAD.DISKMPC_INDX + TH_HEAD.NUMDISKMPCS - 1) =
              5102                          TD_HEAD.DEVNAME(I);

   5102  6 001335   200675 236100                    LDQ     TH_HEAD+3,,AUTO
         6 001336   777777 376007                    ANQ     -1,DL
         6 001337   210124 756100                    STQ     TH_UTS+3,,AUTO
         6 001340   200675 236100                    LDQ     TH_HEAD+3,,AUTO
         6 001341   000022 772000                    QRL     18
         6 001342   210124 036100                    ADLQ    TH_UTS+3,,AUTO
         6 001343   000001 736000                    QLS     1
         6 001344   200016 235100                    LDA     I,,AUTO
         6 001345   000001 735000                    ALS     1
         6 001346   000000 620006                    EAX0    0,QL
         6 001347   200050 237105                    LDAQ    TD_HEAD+16,AL,AUTO
         6 001350   200710 757110                    STAQ    TH_HEAD+14,X0,AUTO

      912     5103    3                 LAST_INDX = LAST_INDX + 1;

   5103  6 001351   200005 235100                    LDA     LAST_INDX,,AUTO
         6 001352   000001 035007                    ADLA    1,DL
         6 001353   200005 755100                    STA     LAST_INDX,,AUTO

      913     5104    3                 TH_HEAD.APMPC_INDX = TH_HEAD.APMPC_INDX + 1;

   5104  6 001354   200676 220100                    LDX0    TH_HEAD+4,,AUTO
PL6.E3A0      #003=THE$PROCESS File=THE$ELAN.:E05TSI                             WED 07/30/97 06:09 Page:157
         6 001355   000001 621010                    EAX1    1,X0
         6 001356   200676 741100                    STX1    TH_HEAD+4,,AUTO

      914     5105    3                 TH_HEAD.OPC_INDX = TH_HEAD.OPC_INDX + 1;

   5105  6 001357   200677 220100                    LDX0    TH_HEAD+5,,AUTO
         6 001360   000001 622010                    EAX2    1,X0
         6 001361   200677 742100                    STX2    TH_HEAD+5,,AUTO

      915     5106    3                 TH_HEAD.CONSOLE_INDX = TH_HEAD.CONSOLE_INDX + 1;

   5106  6 001362   200701 220100                    LDX0    TH_HEAD+7,,AUTO
         6 001363   000001 623010                    EAX3    1,X0
         6 001364   200701 743100                    STX3    TH_HEAD+7,,AUTO

      916     5107    3                 TH_HEAD.LP_INDX = TH_HEAD.LP_INDX + 1;

   5107  6 001365   200702 220100                    LDX0    TH_HEAD+8,,AUTO
         6 001366   000001 624010                    EAX4    1,X0
         6 001367   200702 744100                    STX4    TH_HEAD+8,,AUTO

      917     5108    3                 TH_HEAD.CR_INDX = TH_HEAD.CR_INDX + 1;

   5108  6 001370   200703 220100                    LDX0    TH_HEAD+9,,AUTO
         6 001371   000001 625010                    EAX5    1,X0
         6 001372   200703 745100                    STX5    TH_HEAD+9,,AUTO

      918     5109    3                 TH_HEAD.CP_INDX = TH_HEAD.CP_INDX + 1;

   5109  6 001373   200704 220100                    LDX0    TH_HEAD+10,,AUTO
         6 001374   000001 626010                    EAX6    1,X0
         6 001375   200704 746100                    STX6    TH_HEAD+10,,AUTO

      919     5110    3                 TH_HEAD.DP_INDX = TH_HEAD.DP_INDX + 1;

   5110  6 001376   200705 220100                    LDX0    TH_HEAD+11,,AUTO
         6 001377   000001 627010                    EAX7    1,X0
PL6.E3A0      #003=THE$PROCESS File=THE$ELAN.:E05TSI                             WED 07/30/97 06:09 Page:158
         6 001400   200705 747100                    STX7    TH_HEAD+11,,AUTO

      920     5111    3                 TH_HEAD.MT_INDX = TH_HEAD.MT_INDX + 1;

   5111  6 001401   200706 220100                    LDX0    TH_HEAD+12,,AUTO
         6 001402   000001 621010                    EAX1    1,X0
         6 001403   200706 741100                    STX1    TH_HEAD+12,,AUTO

      921     5112    3                 TH_HEAD.XX_INDX = TH_HEAD.XX_INDX + 1;

   5112  6 001404   200707 220100                    LDX0    TH_HEAD+13,,AUTO
         6 001405   000001 621010                    EAX1    1,X0
         6 001406   200707 741100                    STX1    TH_HEAD+13,,AUTO

      922     5113    3                 TH_HEAD.AP_INDX = TH_HEAD.AP_INDX + 1;

   5113  6 001407   200710 220100                    LDX0    TH_HEAD+14,,AUTO
         6 001410   000001 621010                    EAX1    1,X0
         6 001411   200710 741100                    STX1    TH_HEAD+14,,AUTO

      923     5114    3                 TH_HEAD.OD_INDX = TH_HEAD.OD_INDX + 1;

   5114  6 001412   200711 220100                    LDX0    TH_HEAD+15,,AUTO
         6 001413   000001 621010                    EAX1    1,X0
         6 001414   200711 741100                    STX1    TH_HEAD+15,,AUTO

      924     5115    3                 NUM_NEW_COMPS = NUM_NEW_COMPS + 1;

   5115  6 001415   000005 236000 4                  LDQ     NUM_NEW_COMPS
         6 001416   000001 036007                    ADLQ    1,DL
         6 001417   000005 756000 4                  STQ     NUM_NEW_COMPS

      925     5116    3              END;                         /* IF NOT FOUND                       */

      926     5117    2        END;                               /* DO I                               */

   5117  6 001420   200016 054100                    AOS     I,,AUTO
PL6.E3A0      #003=THE$PROCESS File=THE$ELAN.:E05TSI                             WED 07/30/97 06:09 Page:159
         6 001421   200033 236100                    LDQ     TD_HEAD+3,,AUTO
         6 001422   777777 376007                    ANQ     -1,DL
         6 001423   210124 756100                    STQ     TH_UTS+3,,AUTO
         6 001424   200033 236100                    LDQ     TD_HEAD+3,,AUTO
         6 001425   000022 772000                    QRL     18
         6 001426   210124 036100                    ADLQ    TH_UTS+3,,AUTO
         6 001427   001252 604000 6                  TMI     s:5089
         6 001430   200016 116100                    CMPQ    I,,AUTO
         6 001431   001252 605400 6                  TPNZ    s:5089

      927     5118
      928     5119                                                /* CHECK FOR  ACS                     */
      929     5120    2        DO I = TD_HEAD.APMPC_INDX TO TD_HEAD.APMPC_INDX + TD_HEAD.NUMAPMPCS - 1;

   5120  6 001432   200034 235100                    LDA     TD_HEAD+4,,AUTO
         6 001433   000022 771000                    ARL     18
         6 001434   200016 755100                    STA     I,,AUTO
         6 001435   001602 710000 6                  TRA     s:5148+1

      930     5121    2           FOUND = %FALSE;

   5121  6 001436   200004 450100                    STZ     FOUND,,AUTO

      931     5122    3           DO J = TH_HEAD.APMPC_INDX TO TH_HEAD.APMPC_INDX + TH_HEAD.NUMAPMPCS - 1;

   5122  6 001437   200676 235100                    LDA     TH_HEAD+4,,AUTO
         6 001440   000022 771000                    ARL     18
         6 001441   200017 755100                    STA     J,,AUTO
         6 001442   001456 710000 6                  TRA     s:5125+1

      932     5123    3              IF TD_HEAD.DEVNAME(I) = TH_HEAD.DEVNAME(J)

   5123  6 001443   200017 235100                    LDA     J,,AUTO
         6 001444   000001 735000                    ALS     1
         6 001445   000000 620005                    EAX0    0,AL
         6 001446   200016 236100                    LDQ     I,,AUTO
         6 001447   000001 736000                    QLS     1
PL6.E3A0      #003=THE$PROCESS File=THE$ELAN.:E05TSI                             WED 07/30/97 06:09 Page:160
         6 001450   200050 237106                    LDAQ    TD_HEAD+16,QL,AUTO
         6 001451   200712 117110                    CMPAQ   TH_HEAD+16,X0,AUTO
         6 001452   001455 601000 6                  TNZ     s:5125

      933     5124    3                 THEN FOUND = %TRUE;

   5124  6 001453   400000 236003                    LDQ     -131072,DU
         6 001454   200004 756100                    STQ     FOUND,,AUTO

      934     5125    3           END;                            /* DO J                               */

   5125  6 001455   200017 054100                    AOS     J,,AUTO
         6 001456   200676 236100                    LDQ     TH_HEAD+4,,AUTO
         6 001457   777777 376007                    ANQ     -1,DL
         6 001460   210124 756100                    STQ     TH_UTS+3,,AUTO
         6 001461   200676 236100                    LDQ     TH_HEAD+4,,AUTO
         6 001462   000022 772000                    QRL     18
         6 001463   210124 036100                    ADLQ    TH_UTS+3,,AUTO
         6 001464   001443 604000 6                  TMI     s:5123
         6 001465   200017 116100                    CMPQ    J,,AUTO
         6 001466   001443 605400 6                  TPNZ    s:5123

      935     5126    2           IF NOT FOUND

   5126  6 001467   200004 234100                    SZN     FOUND,,AUTO
         6 001470   001601 604000 6                  TMI     s:5148

      936     5127    2              THEN                         /* STUFF INTO TH_HEAD.DEVNAME         */
      937     5128    3              DO;

      938     5129    4                 DO K = TH_HEAD.OPC_INDX TO LAST_INDX;

   5129  6 001471   200677 235100                    LDA     TH_HEAD+5,,AUTO
         6 001472   000022 771000                    ARL     18
         6 001473   200020 755100                    STA     K,,AUTO
         6 001474   001512 710000 6                  TRA     s:5132+1

PL6.E3A0      #003=THE$PROCESS File=THE$ELAN.:E05TSI                             WED 07/30/97 06:09 Page:161
      939     5130    4                    INDX = LAST_INDX - K + TH_HEAD.OPC_INDX;

   5130  6 001475   200005 236100                    LDQ     LAST_INDX,,AUTO
         6 001476   200020 136100                    SBLQ    K,,AUTO
         6 001477   200677 235100                    LDA     TH_HEAD+5,,AUTO
         6 001500   000022 771000                    ARL     18
         6 001501   210124 755100                    STA     TH_UTS+3,,AUTO
         6 001502   210124 036100                    ADLQ    TH_UTS+3,,AUTO
         6 001503   200021 756100                    STQ     INDX,,AUTO

      940     5131    4                    TH_HEAD.DEVNAME(INDX + 1) = TH_HEAD.DEVNAME(INDX);

   5131  6 001504   200021 235100                    LDA     INDX,,AUTO
         6 001505   000001 735000                    ALS     1
         6 001506   000000 620005                    EAX0    0,AL
         6 001507   200712 237105                    LDAQ    TH_HEAD+16,AL,AUTO
         6 001510   200714 757110                    STAQ    TH_HEAD+18,X0,AUTO

      941     5132    4                 END;                      /* DO K                               */

   5132  6 001511   200020 054100                    AOS     K,,AUTO
         6 001512   200005 236100                    LDQ     LAST_INDX,,AUTO
         6 001513   001475 604000 6                  TMI     s:5130
         6 001514   200020 116100                    CMPQ    K,,AUTO
         6 001515   001475 605000 6                  TPL     s:5130

      942     5133    3                 TH_HEAD.NUMAPMPCS = TH_HEAD.NUMAPMPCS + 1;

   5133  6 001516   200676 720100                    LXL0    TH_HEAD+4,,AUTO
         6 001517   000001 621010                    EAX1    1,X0
         6 001520   200676 441100                    SXL1    TH_HEAD+4,,AUTO

      943     5134    3                TH_HEAD.DEVNAME(TH_HEAD.APMPC_INDX + TH_HEAD.NUMAPMPCS - 1) = TD_HEAD.
              5134                          DEVNAME(I);

   5134  6 001521   200676 236100                    LDQ     TH_HEAD+4,,AUTO
         6 001522   777777 376007                    ANQ     -1,DL
PL6.E3A0      #003=THE$PROCESS File=THE$ELAN.:E05TSI                             WED 07/30/97 06:09 Page:162
         6 001523   210124 756100                    STQ     TH_UTS+3,,AUTO
         6 001524   200676 236100                    LDQ     TH_HEAD+4,,AUTO
         6 001525   000022 772000                    QRL     18
         6 001526   210124 036100                    ADLQ    TH_UTS+3,,AUTO
         6 001527   000001 736000                    QLS     1
         6 001530   200016 235100                    LDA     I,,AUTO
         6 001531   000001 735000                    ALS     1
         6 001532   000000 620006                    EAX0    0,QL
         6 001533   200050 237105                    LDAQ    TD_HEAD+16,AL,AUTO
         6 001534   200710 757110                    STAQ    TH_HEAD+14,X0,AUTO

      944     5135    3                 LAST_INDX = LAST_INDX + 1;

   5135  6 001535   200005 235100                    LDA     LAST_INDX,,AUTO
         6 001536   000001 035007                    ADLA    1,DL
         6 001537   200005 755100                    STA     LAST_INDX,,AUTO

      945     5136    3                 TH_HEAD.OPC_INDX = TH_HEAD.OPC_INDX + 1;

   5136  6 001540   200677 220100                    LDX0    TH_HEAD+5,,AUTO
         6 001541   000001 621010                    EAX1    1,X0
         6 001542   200677 741100                    STX1    TH_HEAD+5,,AUTO

      946     5137    3                 TH_HEAD.CONSOLE_INDX = TH_HEAD.CONSOLE_INDX + 1;

   5137  6 001543   200701 220100                    LDX0    TH_HEAD+7,,AUTO
         6 001544   000001 622010                    EAX2    1,X0
         6 001545   200701 742100                    STX2    TH_HEAD+7,,AUTO

      947     5138    3                 TH_HEAD.LP_INDX = TH_HEAD.LP_INDX + 1;

   5138  6 001546   200702 220100                    LDX0    TH_HEAD+8,,AUTO
         6 001547   000001 623010                    EAX3    1,X0
         6 001550   200702 743100                    STX3    TH_HEAD+8,,AUTO

      948     5139    3                 TH_HEAD.CR_INDX = TH_HEAD.CR_INDX + 1;

PL6.E3A0      #003=THE$PROCESS File=THE$ELAN.:E05TSI                             WED 07/30/97 06:09 Page:163
   5139  6 001551   200703 220100                    LDX0    TH_HEAD+9,,AUTO
         6 001552   000001 624010                    EAX4    1,X0
         6 001553   200703 744100                    STX4    TH_HEAD+9,,AUTO

      949     5140    3                 TH_HEAD.CP_INDX = TH_HEAD.CP_INDX + 1;

   5140  6 001554   200704 220100                    LDX0    TH_HEAD+10,,AUTO
         6 001555   000001 625010                    EAX5    1,X0
         6 001556   200704 745100                    STX5    TH_HEAD+10,,AUTO

      950     5141    3                 TH_HEAD.DP_INDX = TH_HEAD.DP_INDX + 1;

   5141  6 001557   200705 220100                    LDX0    TH_HEAD+11,,AUTO
         6 001560   000001 626010                    EAX6    1,X0
         6 001561   200705 746100                    STX6    TH_HEAD+11,,AUTO

      951     5142    3                 TH_HEAD.MT_INDX = TH_HEAD.MT_INDX + 1;

   5142  6 001562   200706 220100                    LDX0    TH_HEAD+12,,AUTO
         6 001563   000001 627010                    EAX7    1,X0
         6 001564   200706 747100                    STX7    TH_HEAD+12,,AUTO

      952     5143    3                 TH_HEAD.XX_INDX = TH_HEAD.XX_INDX + 1;

   5143  6 001565   200707 220100                    LDX0    TH_HEAD+13,,AUTO
         6 001566   000001 621010                    EAX1    1,X0
         6 001567   200707 741100                    STX1    TH_HEAD+13,,AUTO

      953     5144    3                 TH_HEAD.AP_INDX = TH_HEAD.AP_INDX + 1;

   5144  6 001570   200710 220100                    LDX0    TH_HEAD+14,,AUTO
         6 001571   000001 621010                    EAX1    1,X0
         6 001572   200710 741100                    STX1    TH_HEAD+14,,AUTO

      954     5145    3                 TH_HEAD.OD_INDX = TH_HEAD.OD_INDX + 1;

   5145  6 001573   200711 220100                    LDX0    TH_HEAD+15,,AUTO
PL6.E3A0      #003=THE$PROCESS File=THE$ELAN.:E05TSI                             WED 07/30/97 06:09 Page:164
         6 001574   000001 621010                    EAX1    1,X0
         6 001575   200711 741100                    STX1    TH_HEAD+15,,AUTO

      955     5146    3                 NUM_NEW_COMPS = NUM_NEW_COMPS + 1;

   5146  6 001576   000005 236000 4                  LDQ     NUM_NEW_COMPS
         6 001577   000001 036007                    ADLQ    1,DL
         6 001600   000005 756000 4                  STQ     NUM_NEW_COMPS

      956     5147    3              END;                         /* IF NOT FOUND                       */

      957     5148    2        END;                               /* DO I                               */

   5148  6 001601   200016 054100                    AOS     I,,AUTO
         6 001602   200034 236100                    LDQ     TD_HEAD+4,,AUTO
         6 001603   777777 376007                    ANQ     -1,DL
         6 001604   210124 756100                    STQ     TH_UTS+3,,AUTO
         6 001605   200034 236100                    LDQ     TD_HEAD+4,,AUTO
         6 001606   000022 772000                    QRL     18
         6 001607   210124 036100                    ADLQ    TH_UTS+3,,AUTO
         6 001610   001436 604000 6                  TMI     s:5121
         6 001611   200016 116100                    CMPQ    I,,AUTO
         6 001612   001436 605400 6                  TPNZ    s:5121

      958     5149
      959     5150
      960     5151                                                /* CHECK FOR  OPCS                    */
      961     5152    2        DO I = TD_HEAD.OPC_INDX TO TD_HEAD.OPC_INDX + TD_HEAD.NUMOPCS - 1;

   5152  6 001613   200035 235100                    LDA     TD_HEAD+5,,AUTO
         6 001614   000022 771000                    ARL     18
         6 001615   200016 755100                    STA     I,,AUTO
         6 001616   001760 710000 6                  TRA     s:5179+1

      962     5153    2           FOUND = %FALSE;

   5153  6 001617   200004 450100                    STZ     FOUND,,AUTO
PL6.E3A0      #003=THE$PROCESS File=THE$ELAN.:E05TSI                             WED 07/30/97 06:09 Page:165

      963     5154    3           DO J = TH_HEAD.OPC_INDX TO TH_HEAD.OPC_INDX + TH_HEAD.NUMOPCS - 1;

   5154  6 001620   200677 235100                    LDA     TH_HEAD+5,,AUTO
         6 001621   000022 771000                    ARL     18
         6 001622   200017 755100                    STA     J,,AUTO
         6 001623   001637 710000 6                  TRA     s:5157+1

      964     5155    3              IF TD_HEAD.DEVNAME(I) = TH_HEAD.DEVNAME(J)

   5155  6 001624   200017 235100                    LDA     J,,AUTO
         6 001625   000001 735000                    ALS     1
         6 001626   000000 620005                    EAX0    0,AL
         6 001627   200016 236100                    LDQ     I,,AUTO
         6 001630   000001 736000                    QLS     1
         6 001631   200050 237106                    LDAQ    TD_HEAD+16,QL,AUTO
         6 001632   200712 117110                    CMPAQ   TH_HEAD+16,X0,AUTO
         6 001633   001636 601000 6                  TNZ     s:5157

      965     5156    3                 THEN FOUND = %TRUE;

   5156  6 001634   400000 236003                    LDQ     -131072,DU
         6 001635   200004 756100                    STQ     FOUND,,AUTO

      966     5157    3           END;                            /* DO J                               */

   5157  6 001636   200017 054100                    AOS     J,,AUTO
         6 001637   200677 236100                    LDQ     TH_HEAD+5,,AUTO
         6 001640   777777 376007                    ANQ     -1,DL
         6 001641   210124 756100                    STQ     TH_UTS+3,,AUTO
         6 001642   200677 236100                    LDQ     TH_HEAD+5,,AUTO
         6 001643   000022 772000                    QRL     18
         6 001644   210124 036100                    ADLQ    TH_UTS+3,,AUTO
         6 001645   001624 604000 6                  TMI     s:5155
         6 001646   200017 116100                    CMPQ    J,,AUTO
         6 001647   001624 605400 6                  TPNZ    s:5155

PL6.E3A0      #003=THE$PROCESS File=THE$ELAN.:E05TSI                             WED 07/30/97 06:09 Page:166
      967     5158    2           IF NOT FOUND

   5158  6 001650   200004 234100                    SZN     FOUND,,AUTO
         6 001651   001757 604000 6                  TMI     s:5179

      968     5159    2              THEN                         /* STUFF INTO TH_HEAD.DEVNAME         */
      969     5160    3              DO;

      970     5161    4                 DO K = TH_HEAD.CONSOLE_INDX TO LAST_INDX;

   5161  6 001652   200701 235100                    LDA     TH_HEAD+7,,AUTO
         6 001653   000022 771000                    ARL     18
         6 001654   200020 755100                    STA     K,,AUTO
         6 001655   001673 710000 6                  TRA     s:5164+1

      971     5162    4                    INDX = LAST_INDX - K + TH_HEAD.CONSOLE_INDX;

   5162  6 001656   200005 236100                    LDQ     LAST_INDX,,AUTO
         6 001657   200020 136100                    SBLQ    K,,AUTO
         6 001660   200701 235100                    LDA     TH_HEAD+7,,AUTO
         6 001661   000022 771000                    ARL     18
         6 001662   210124 755100                    STA     TH_UTS+3,,AUTO
         6 001663   210124 036100                    ADLQ    TH_UTS+3,,AUTO
         6 001664   200021 756100                    STQ     INDX,,AUTO

      972     5163    4                    TH_HEAD.DEVNAME(INDX + 1) = TH_HEAD.DEVNAME(INDX);

   5163  6 001665   200021 235100                    LDA     INDX,,AUTO
         6 001666   000001 735000                    ALS     1
         6 001667   000000 620005                    EAX0    0,AL
         6 001670   200712 237105                    LDAQ    TH_HEAD+16,AL,AUTO
         6 001671   200714 757110                    STAQ    TH_HEAD+18,X0,AUTO

      973     5164    4                 END;                      /* DO K                               */

   5164  6 001672   200020 054100                    AOS     K,,AUTO
         6 001673   200005 236100                    LDQ     LAST_INDX,,AUTO
PL6.E3A0      #003=THE$PROCESS File=THE$ELAN.:E05TSI                             WED 07/30/97 06:09 Page:167
         6 001674   001656 604000 6                  TMI     s:5162
         6 001675   200020 116100                    CMPQ    K,,AUTO
         6 001676   001656 605000 6                  TPL     s:5162

      974     5165    3                 TH_HEAD.NUMOPCS = TH_HEAD.NUMOPCS + 1;

   5165  6 001677   200677 720100                    LXL0    TH_HEAD+5,,AUTO
         6 001700   000001 621010                    EAX1    1,X0
         6 001701   200677 441100                    SXL1    TH_HEAD+5,,AUTO

      975     5166    3                 TH_HEAD.DEVNAME(TH_HEAD.OPC_INDX + TH_HEAD.NUMOPCS - 1) = TD_HEAD.
              5166                          DEVNAME(I);

   5166  6 001702   200677 236100                    LDQ     TH_HEAD+5,,AUTO
         6 001703   777777 376007                    ANQ     -1,DL
         6 001704   210124 756100                    STQ     TH_UTS+3,,AUTO
         6 001705   200677 236100                    LDQ     TH_HEAD+5,,AUTO
         6 001706   000022 772000                    QRL     18
         6 001707   210124 036100                    ADLQ    TH_UTS+3,,AUTO
         6 001710   000001 736000                    QLS     1
         6 001711   200016 235100                    LDA     I,,AUTO
         6 001712   000001 735000                    ALS     1
         6 001713   000000 620006                    EAX0    0,QL
         6 001714   200050 237105                    LDAQ    TD_HEAD+16,AL,AUTO
         6 001715   200710 757110                    STAQ    TH_HEAD+14,X0,AUTO

      976     5167    3                 LAST_INDX = LAST_INDX + 1;

   5167  6 001716   200005 235100                    LDA     LAST_INDX,,AUTO
         6 001717   000001 035007                    ADLA    1,DL
         6 001720   200005 755100                    STA     LAST_INDX,,AUTO

      977     5168    3                 TH_HEAD.CONSOLE_INDX = TH_HEAD.CONSOLE_INDX + 1;

   5168  6 001721   200701 220100                    LDX0    TH_HEAD+7,,AUTO
         6 001722   000001 621010                    EAX1    1,X0
         6 001723   200701 741100                    STX1    TH_HEAD+7,,AUTO
PL6.E3A0      #003=THE$PROCESS File=THE$ELAN.:E05TSI                             WED 07/30/97 06:09 Page:168

      978     5169    3                 TH_HEAD.LP_INDX = TH_HEAD.LP_INDX + 1;

   5169  6 001724   200702 220100                    LDX0    TH_HEAD+8,,AUTO
         6 001725   000001 622010                    EAX2    1,X0
         6 001726   200702 742100                    STX2    TH_HEAD+8,,AUTO

      979     5170    3                 TH_HEAD.CR_INDX = TH_HEAD.CR_INDX + 1;

   5170  6 001727   200703 220100                    LDX0    TH_HEAD+9,,AUTO
         6 001730   000001 623010                    EAX3    1,X0
         6 001731   200703 743100                    STX3    TH_HEAD+9,,AUTO

      980     5171    3                 TH_HEAD.CP_INDX = TH_HEAD.CP_INDX + 1;

   5171  6 001732   200704 220100                    LDX0    TH_HEAD+10,,AUTO
         6 001733   000001 624010                    EAX4    1,X0
         6 001734   200704 744100                    STX4    TH_HEAD+10,,AUTO

      981     5172    3                 TH_HEAD.DP_INDX = TH_HEAD.DP_INDX + 1;

   5172  6 001735   200705 220100                    LDX0    TH_HEAD+11,,AUTO
         6 001736   000001 625010                    EAX5    1,X0
         6 001737   200705 745100                    STX5    TH_HEAD+11,,AUTO

      982     5173    3                 TH_HEAD.MT_INDX = TH_HEAD.MT_INDX + 1;

   5173  6 001740   200706 220100                    LDX0    TH_HEAD+12,,AUTO
         6 001741   000001 626010                    EAX6    1,X0
         6 001742   200706 746100                    STX6    TH_HEAD+12,,AUTO

      983     5174    3                 TH_HEAD.XX_INDX = TH_HEAD.XX_INDX + 1;

   5174  6 001743   200707 220100                    LDX0    TH_HEAD+13,,AUTO
         6 001744   000001 627010                    EAX7    1,X0
         6 001745   200707 747100                    STX7    TH_HEAD+13,,AUTO

PL6.E3A0      #003=THE$PROCESS File=THE$ELAN.:E05TSI                             WED 07/30/97 06:09 Page:169
      984     5175    3                 TH_HEAD.AP_INDX = TH_HEAD.AP_INDX + 1;

   5175  6 001746   200710 220100                    LDX0    TH_HEAD+14,,AUTO
         6 001747   000001 621010                    EAX1    1,X0
         6 001750   200710 741100                    STX1    TH_HEAD+14,,AUTO

      985     5176    3                 TH_HEAD.OD_INDX = TH_HEAD.OD_INDX + 1;

   5176  6 001751   200711 220100                    LDX0    TH_HEAD+15,,AUTO
         6 001752   000001 621010                    EAX1    1,X0
         6 001753   200711 741100                    STX1    TH_HEAD+15,,AUTO

      986     5177    3                 NUM_NEW_COMPS = NUM_NEW_COMPS + 1;

   5177  6 001754   000005 236000 4                  LDQ     NUM_NEW_COMPS
         6 001755   000001 036007                    ADLQ    1,DL
         6 001756   000005 756000 4                  STQ     NUM_NEW_COMPS

      987     5178    3              END;                         /* IF NOT FOUND                       */

      988     5179    2        END;                               /* DO I                               */

   5179  6 001757   200016 054100                    AOS     I,,AUTO
         6 001760   200035 236100                    LDQ     TD_HEAD+5,,AUTO
         6 001761   777777 376007                    ANQ     -1,DL
         6 001762   210124 756100                    STQ     TH_UTS+3,,AUTO
         6 001763   200035 236100                    LDQ     TD_HEAD+5,,AUTO
         6 001764   000022 772000                    QRL     18
         6 001765   210124 036100                    ADLQ    TH_UTS+3,,AUTO
         6 001766   001617 604000 6                  TMI     s:5153
         6 001767   200016 116100                    CMPQ    I,,AUTO
         6 001770   001617 605400 6                  TPNZ    s:5153

      989     5180
      990     5181                                                /* CHECK FOR LPS                      */
      991     5182    2        DO I = TD_HEAD.LP_INDX TO TD_HEAD.LP_INDX + TD_HEAD.NUMLPS - 1;

PL6.E3A0      #003=THE$PROCESS File=THE$ELAN.:E05TSI                             WED 07/30/97 06:09 Page:170
   5182  6 001771   200040 235100                    LDA     TD_HEAD+8,,AUTO
         6 001772   000022 771000                    ARL     18
         6 001773   200016 755100                    STA     I,,AUTO
         6 001774   002130 710000 6                  TRA     s:5207+1

      992     5183    2           FOUND = %FALSE;

   5183  6 001775   200004 450100                    STZ     FOUND,,AUTO

      993     5184    3           DO J = TH_HEAD.LP_INDX TO TH_HEAD.LP_INDX + TH_HEAD.NUMLPS - 1;

   5184  6 001776   200702 235100                    LDA     TH_HEAD+8,,AUTO
         6 001777   000022 771000                    ARL     18
         6 002000   200017 755100                    STA     J,,AUTO
         6 002001   002015 710000 6                  TRA     s:5187+1

      994     5185    3              IF TD_HEAD.DEVNAME(I) = TH_HEAD.DEVNAME(J)

   5185  6 002002   200017 235100                    LDA     J,,AUTO
         6 002003   000001 735000                    ALS     1
         6 002004   000000 620005                    EAX0    0,AL
         6 002005   200016 236100                    LDQ     I,,AUTO
         6 002006   000001 736000                    QLS     1
         6 002007   200050 237106                    LDAQ    TD_HEAD+16,QL,AUTO
         6 002010   200712 117110                    CMPAQ   TH_HEAD+16,X0,AUTO
         6 002011   002014 601000 6                  TNZ     s:5187

      995     5186    3                 THEN FOUND = %TRUE;

   5186  6 002012   400000 236003                    LDQ     -131072,DU
         6 002013   200004 756100                    STQ     FOUND,,AUTO

      996     5187    3           END;                            /* DO J                               */

   5187  6 002014   200017 054100                    AOS     J,,AUTO
         6 002015   200702 236100                    LDQ     TH_HEAD+8,,AUTO
         6 002016   777777 376007                    ANQ     -1,DL
PL6.E3A0      #003=THE$PROCESS File=THE$ELAN.:E05TSI                             WED 07/30/97 06:09 Page:171
         6 002017   210124 756100                    STQ     TH_UTS+3,,AUTO
         6 002020   200702 236100                    LDQ     TH_HEAD+8,,AUTO
         6 002021   000022 772000                    QRL     18
         6 002022   210124 036100                    ADLQ    TH_UTS+3,,AUTO
         6 002023   002002 604000 6                  TMI     s:5185
         6 002024   200017 116100                    CMPQ    J,,AUTO
         6 002025   002002 605400 6                  TPNZ    s:5185

      997     5188    2           IF NOT FOUND

   5188  6 002026   200004 234100                    SZN     FOUND,,AUTO
         6 002027   002127 604000 6                  TMI     s:5207

      998     5189    2              THEN                         /* STUFF INTO TH_HEAD.DEVNAME         */
      999     5190    3              DO;

     1000     5191    4                 DO K = TH_HEAD.CR_INDX TO LAST_INDX;

   5191  6 002030   200703 235100                    LDA     TH_HEAD+9,,AUTO
         6 002031   000022 771000                    ARL     18
         6 002032   200020 755100                    STA     K,,AUTO
         6 002033   002051 710000 6                  TRA     s:5194+1

     1001     5192    4                    INDX = LAST_INDX - K + TH_HEAD.CR_INDX;

   5192  6 002034   200005 236100                    LDQ     LAST_INDX,,AUTO
         6 002035   200020 136100                    SBLQ    K,,AUTO
         6 002036   200703 235100                    LDA     TH_HEAD+9,,AUTO
         6 002037   000022 771000                    ARL     18
         6 002040   210124 755100                    STA     TH_UTS+3,,AUTO
         6 002041   210124 036100                    ADLQ    TH_UTS+3,,AUTO
         6 002042   200021 756100                    STQ     INDX,,AUTO

     1002     5193    4                    TH_HEAD.DEVNAME(INDX + 1) = TH_HEAD.DEVNAME(INDX);

   5193  6 002043   200021 235100                    LDA     INDX,,AUTO
         6 002044   000001 735000                    ALS     1
PL6.E3A0      #003=THE$PROCESS File=THE$ELAN.:E05TSI                             WED 07/30/97 06:09 Page:172
         6 002045   000000 620005                    EAX0    0,AL
         6 002046   200712 237105                    LDAQ    TH_HEAD+16,AL,AUTO
         6 002047   200714 757110                    STAQ    TH_HEAD+18,X0,AUTO

     1003     5194    4                 END;                      /* DO K                               */

   5194  6 002050   200020 054100                    AOS     K,,AUTO
         6 002051   200005 236100                    LDQ     LAST_INDX,,AUTO
         6 002052   002034 604000 6                  TMI     s:5192
         6 002053   200020 116100                    CMPQ    K,,AUTO
         6 002054   002034 605000 6                  TPL     s:5192

     1004     5195    3                 TH_HEAD.NUMLPS = TH_HEAD.NUMLPS + 1;

   5195  6 002055   200702 720100                    LXL0    TH_HEAD+8,,AUTO
         6 002056   000001 621010                    EAX1    1,X0
         6 002057   200702 441100                    SXL1    TH_HEAD+8,,AUTO

     1005     5196    3                 TH_HEAD.DEVNAME(TH_HEAD.LP_INDX + TH_HEAD.NUMLPS - 1) = TD_HEAD.
              5196                          DEVNAME(I);

   5196  6 002060   200702 236100                    LDQ     TH_HEAD+8,,AUTO
         6 002061   777777 376007                    ANQ     -1,DL
         6 002062   210124 756100                    STQ     TH_UTS+3,,AUTO
         6 002063   200702 236100                    LDQ     TH_HEAD+8,,AUTO
         6 002064   000022 772000                    QRL     18
         6 002065   210124 036100                    ADLQ    TH_UTS+3,,AUTO
         6 002066   000001 736000                    QLS     1
         6 002067   200016 235100                    LDA     I,,AUTO
         6 002070   000001 735000                    ALS     1
         6 002071   000000 620006                    EAX0    0,QL
         6 002072   200050 237105                    LDAQ    TD_HEAD+16,AL,AUTO
         6 002073   200710 757110                    STAQ    TH_HEAD+14,X0,AUTO

     1006     5197    3                 LAST_INDX = LAST_INDX + 1;

   5197  6 002074   200005 235100                    LDA     LAST_INDX,,AUTO
PL6.E3A0      #003=THE$PROCESS File=THE$ELAN.:E05TSI                             WED 07/30/97 06:09 Page:173
         6 002075   000001 035007                    ADLA    1,DL
         6 002076   200005 755100                    STA     LAST_INDX,,AUTO

     1007     5198    3                 TH_HEAD.CR_INDX = TH_HEAD.CR_INDX + 1;

   5198  6 002077   200703 220100                    LDX0    TH_HEAD+9,,AUTO
         6 002100   000001 621010                    EAX1    1,X0
         6 002101   200703 741100                    STX1    TH_HEAD+9,,AUTO

     1008     5199    3                 TH_HEAD.CP_INDX = TH_HEAD.CP_INDX + 1;

   5199  6 002102   200704 220100                    LDX0    TH_HEAD+10,,AUTO
         6 002103   000001 622010                    EAX2    1,X0
         6 002104   200704 742100                    STX2    TH_HEAD+10,,AUTO

     1009     5200    3                 TH_HEAD.DP_INDX = TH_HEAD.DP_INDX + 1;

   5200  6 002105   200705 220100                    LDX0    TH_HEAD+11,,AUTO
         6 002106   000001 623010                    EAX3    1,X0
         6 002107   200705 743100                    STX3    TH_HEAD+11,,AUTO

     1010     5201    3                 TH_HEAD.MT_INDX = TH_HEAD.MT_INDX + 1;

   5201  6 002110   200706 220100                    LDX0    TH_HEAD+12,,AUTO
         6 002111   000001 624010                    EAX4    1,X0
         6 002112   200706 744100                    STX4    TH_HEAD+12,,AUTO

     1011     5202    3                 TH_HEAD.XX_INDX = TH_HEAD.XX_INDX + 1;

   5202  6 002113   200707 220100                    LDX0    TH_HEAD+13,,AUTO
         6 002114   000001 625010                    EAX5    1,X0
         6 002115   200707 745100                    STX5    TH_HEAD+13,,AUTO

     1012     5203    3                 TH_HEAD.AP_INDX = TH_HEAD.AP_INDX + 1;

   5203  6 002116   200710 220100                    LDX0    TH_HEAD+14,,AUTO
         6 002117   000001 626010                    EAX6    1,X0
PL6.E3A0      #003=THE$PROCESS File=THE$ELAN.:E05TSI                             WED 07/30/97 06:09 Page:174
         6 002120   200710 746100                    STX6    TH_HEAD+14,,AUTO

     1013     5204    3                 TH_HEAD.OD_INDX = TH_HEAD.OD_INDX + 1;

   5204  6 002121   200711 220100                    LDX0    TH_HEAD+15,,AUTO
         6 002122   000001 627010                    EAX7    1,X0
         6 002123   200711 747100                    STX7    TH_HEAD+15,,AUTO

     1014     5205    3                 NUM_NEW_COMPS = NUM_NEW_COMPS + 1;

   5205  6 002124   000005 236000 4                  LDQ     NUM_NEW_COMPS
         6 002125   000001 036007                    ADLQ    1,DL
         6 002126   000005 756000 4                  STQ     NUM_NEW_COMPS

     1015     5206    3              END;                         /* IF NOT FOUND                       */

     1016     5207    2        END;                               /* DO I                               */

   5207  6 002127   200016 054100                    AOS     I,,AUTO
         6 002130   200040 236100                    LDQ     TD_HEAD+8,,AUTO
         6 002131   777777 376007                    ANQ     -1,DL
         6 002132   210124 756100                    STQ     TH_UTS+3,,AUTO
         6 002133   200040 236100                    LDQ     TD_HEAD+8,,AUTO
         6 002134   000022 772000                    QRL     18
         6 002135   210124 036100                    ADLQ    TH_UTS+3,,AUTO
         6 002136   001775 604000 6                  TMI     s:5183
         6 002137   200016 116100                    CMPQ    I,,AUTO
         6 002140   001775 605400 6                  TPNZ    s:5183

     1017     5208
     1018     5209                                                /* CHECK FOR CRS                      */
     1019     5210    2        DO I = TD_HEAD.CR_INDX TO TD_HEAD.CR_INDX + TD_HEAD.NUMCRS - 1;

   5210  6 002141   200041 235100                    LDA     TD_HEAD+9,,AUTO
         6 002142   000022 771000                    ARL     18
         6 002143   200016 755100                    STA     I,,AUTO
         6 002144   002275 710000 6                  TRA     s:5234+1
PL6.E3A0      #003=THE$PROCESS File=THE$ELAN.:E05TSI                             WED 07/30/97 06:09 Page:175

     1020     5211    2           FOUND = %FALSE;

   5211  6 002145   200004 450100                    STZ     FOUND,,AUTO

     1021     5212    3           DO J = TH_HEAD.CR_INDX TO TH_HEAD.CR_INDX + TH_HEAD.NUMCRS - 1;

   5212  6 002146   200703 235100                    LDA     TH_HEAD+9,,AUTO
         6 002147   000022 771000                    ARL     18
         6 002150   200017 755100                    STA     J,,AUTO
         6 002151   002165 710000 6                  TRA     s:5215+1

     1022     5213    3              IF TD_HEAD.DEVNAME(I) = TH_HEAD.DEVNAME(J)

   5213  6 002152   200017 235100                    LDA     J,,AUTO
         6 002153   000001 735000                    ALS     1
         6 002154   000000 620005                    EAX0    0,AL
         6 002155   200016 236100                    LDQ     I,,AUTO
         6 002156   000001 736000                    QLS     1
         6 002157   200050 237106                    LDAQ    TD_HEAD+16,QL,AUTO
         6 002160   200712 117110                    CMPAQ   TH_HEAD+16,X0,AUTO
         6 002161   002164 601000 6                  TNZ     s:5215

     1023     5214    3                 THEN FOUND = %TRUE;

   5214  6 002162   400000 236003                    LDQ     -131072,DU
         6 002163   200004 756100                    STQ     FOUND,,AUTO

     1024     5215    3           END;                            /* DO J                               */

   5215  6 002164   200017 054100                    AOS     J,,AUTO
         6 002165   200703 236100                    LDQ     TH_HEAD+9,,AUTO
         6 002166   777777 376007                    ANQ     -1,DL
         6 002167   210124 756100                    STQ     TH_UTS+3,,AUTO
         6 002170   200703 236100                    LDQ     TH_HEAD+9,,AUTO
         6 002171   000022 772000                    QRL     18
         6 002172   210124 036100                    ADLQ    TH_UTS+3,,AUTO
PL6.E3A0      #003=THE$PROCESS File=THE$ELAN.:E05TSI                             WED 07/30/97 06:09 Page:176
         6 002173   002152 604000 6                  TMI     s:5213
         6 002174   200017 116100                    CMPQ    J,,AUTO
         6 002175   002152 605400 6                  TPNZ    s:5213

     1025     5216    2           IF NOT FOUND

   5216  6 002176   200004 234100                    SZN     FOUND,,AUTO
         6 002177   002274 604000 6                  TMI     s:5234

     1026     5217    2              THEN                         /* STUFF INTO TH_HEAD.DEVNAME         */
     1027     5218    3              DO;

     1028     5219    4                 DO K = TH_HEAD.CP_INDX TO LAST_INDX;

   5219  6 002200   200704 235100                    LDA     TH_HEAD+10,,AUTO
         6 002201   000022 771000                    ARL     18
         6 002202   200020 755100                    STA     K,,AUTO
         6 002203   002221 710000 6                  TRA     s:5222+1

     1029     5220    4                    INDX = LAST_INDX - K + TH_HEAD.CP_INDX;

   5220  6 002204   200005 236100                    LDQ     LAST_INDX,,AUTO
         6 002205   200020 136100                    SBLQ    K,,AUTO
         6 002206   200704 235100                    LDA     TH_HEAD+10,,AUTO
         6 002207   000022 771000                    ARL     18
         6 002210   210124 755100                    STA     TH_UTS+3,,AUTO
         6 002211   210124 036100                    ADLQ    TH_UTS+3,,AUTO
         6 002212   200021 756100                    STQ     INDX,,AUTO

     1030     5221    4                    TH_HEAD.DEVNAME(INDX + 1) = TH_HEAD.DEVNAME(INDX);

   5221  6 002213   200021 235100                    LDA     INDX,,AUTO
         6 002214   000001 735000                    ALS     1
         6 002215   000000 620005                    EAX0    0,AL
         6 002216   200712 237105                    LDAQ    TH_HEAD+16,AL,AUTO
         6 002217   200714 757110                    STAQ    TH_HEAD+18,X0,AUTO

PL6.E3A0      #003=THE$PROCESS File=THE$ELAN.:E05TSI                             WED 07/30/97 06:09 Page:177
     1031     5222    4                 END;                      /* DO K                               */

   5222  6 002220   200020 054100                    AOS     K,,AUTO
         6 002221   200005 236100                    LDQ     LAST_INDX,,AUTO
         6 002222   002204 604000 6                  TMI     s:5220
         6 002223   200020 116100                    CMPQ    K,,AUTO
         6 002224   002204 605000 6                  TPL     s:5220

     1032     5223    3                 TH_HEAD.NUMCRS = TH_HEAD.NUMCRS + 1;

   5223  6 002225   200703 720100                    LXL0    TH_HEAD+9,,AUTO
         6 002226   000001 621010                    EAX1    1,X0
         6 002227   200703 441100                    SXL1    TH_HEAD+9,,AUTO

     1033     5224    3                 TH_HEAD.DEVNAME(TH_HEAD.CR_INDX + TH_HEAD.NUMCRS - 1) = TD_HEAD.
              5224                          DEVNAME(I);

   5224  6 002230   200703 236100                    LDQ     TH_HEAD+9,,AUTO
         6 002231   777777 376007                    ANQ     -1,DL
         6 002232   210124 756100                    STQ     TH_UTS+3,,AUTO
         6 002233   200703 236100                    LDQ     TH_HEAD+9,,AUTO
         6 002234   000022 772000                    QRL     18
         6 002235   210124 036100                    ADLQ    TH_UTS+3,,AUTO
         6 002236   000001 736000                    QLS     1
         6 002237   200016 235100                    LDA     I,,AUTO
         6 002240   000001 735000                    ALS     1
         6 002241   000000 620006                    EAX0    0,QL
         6 002242   200050 237105                    LDAQ    TD_HEAD+16,AL,AUTO
         6 002243   200710 757110                    STAQ    TH_HEAD+14,X0,AUTO

     1034     5225    3                 LAST_INDX = LAST_INDX + 1;

   5225  6 002244   200005 235100                    LDA     LAST_INDX,,AUTO
         6 002245   000001 035007                    ADLA    1,DL
         6 002246   200005 755100                    STA     LAST_INDX,,AUTO

     1035     5226    3                 TH_HEAD.CP_INDX = TH_HEAD.CP_INDX + 1;
PL6.E3A0      #003=THE$PROCESS File=THE$ELAN.:E05TSI                             WED 07/30/97 06:09 Page:178

   5226  6 002247   200704 220100                    LDX0    TH_HEAD+10,,AUTO
         6 002250   000001 621010                    EAX1    1,X0
         6 002251   200704 741100                    STX1    TH_HEAD+10,,AUTO

     1036     5227    3                 TH_HEAD.DP_INDX = TH_HEAD.DP_INDX + 1;

   5227  6 002252   200705 220100                    LDX0    TH_HEAD+11,,AUTO
         6 002253   000001 622010                    EAX2    1,X0
         6 002254   200705 742100                    STX2    TH_HEAD+11,,AUTO

     1037     5228    3                 TH_HEAD.MT_INDX = TH_HEAD.MT_INDX + 1;

   5228  6 002255   200706 220100                    LDX0    TH_HEAD+12,,AUTO
         6 002256   000001 623010                    EAX3    1,X0
         6 002257   200706 743100                    STX3    TH_HEAD+12,,AUTO

     1038     5229    3                 TH_HEAD.XX_INDX = TH_HEAD.XX_INDX + 1;

   5229  6 002260   200707 220100                    LDX0    TH_HEAD+13,,AUTO
         6 002261   000001 624010                    EAX4    1,X0
         6 002262   200707 744100                    STX4    TH_HEAD+13,,AUTO

     1039     5230    3                 TH_HEAD.AP_INDX = TH_HEAD.AP_INDX + 1;

   5230  6 002263   200710 220100                    LDX0    TH_HEAD+14,,AUTO
         6 002264   000001 625010                    EAX5    1,X0
         6 002265   200710 745100                    STX5    TH_HEAD+14,,AUTO

     1040     5231    3                 TH_HEAD.OD_INDX = TH_HEAD.OD_INDX + 1;

   5231  6 002266   200711 220100                    LDX0    TH_HEAD+15,,AUTO
         6 002267   000001 626010                    EAX6    1,X0
         6 002270   200711 746100                    STX6    TH_HEAD+15,,AUTO

     1041     5232    3                 NUM_NEW_COMPS = NUM_NEW_COMPS + 1;

PL6.E3A0      #003=THE$PROCESS File=THE$ELAN.:E05TSI                             WED 07/30/97 06:09 Page:179
   5232  6 002271   000005 236000 4                  LDQ     NUM_NEW_COMPS
         6 002272   000001 036007                    ADLQ    1,DL
         6 002273   000005 756000 4                  STQ     NUM_NEW_COMPS

     1042     5233    3              END;                         /* IF NOT FOUND                       */

     1043     5234    2        END;                               /* DO I                               */

   5234  6 002274   200016 054100                    AOS     I,,AUTO
         6 002275   200041 236100                    LDQ     TD_HEAD+9,,AUTO
         6 002276   777777 376007                    ANQ     -1,DL
         6 002277   210124 756100                    STQ     TH_UTS+3,,AUTO
         6 002300   200041 236100                    LDQ     TD_HEAD+9,,AUTO
         6 002301   000022 772000                    QRL     18
         6 002302   210124 036100                    ADLQ    TH_UTS+3,,AUTO
         6 002303   002145 604000 6                  TMI     s:5211
         6 002304   200016 116100                    CMPQ    I,,AUTO
         6 002305   002145 605400 6                  TPNZ    s:5211

     1044     5235
     1045     5236                                                /* CHECK FOR CPS                      */
     1046     5237    2        DO I = TD_HEAD.CP_INDX TO TD_HEAD.CP_INDX + TD_HEAD.NUMCPS - 1;

   5237  6 002306   200042 235100                    LDA     TD_HEAD+10,,AUTO
         6 002307   000022 771000                    ARL     18
         6 002310   200016 755100                    STA     I,,AUTO
         6 002311   002437 710000 6                  TRA     s:5260+1

     1047     5238    2           FOUND = %FALSE;

   5238  6 002312   200004 450100                    STZ     FOUND,,AUTO

     1048     5239    3           DO J = TH_HEAD.CP_INDX TO TH_HEAD.CP_INDX + TH_HEAD.NUMCPS - 1;

   5239  6 002313   200704 235100                    LDA     TH_HEAD+10,,AUTO
         6 002314   000022 771000                    ARL     18
         6 002315   200017 755100                    STA     J,,AUTO
PL6.E3A0      #003=THE$PROCESS File=THE$ELAN.:E05TSI                             WED 07/30/97 06:09 Page:180
         6 002316   002332 710000 6                  TRA     s:5242+1

     1049     5240    3              IF TD_HEAD.DEVNAME(I) = TH_HEAD.DEVNAME(J)

   5240  6 002317   200017 235100                    LDA     J,,AUTO
         6 002320   000001 735000                    ALS     1
         6 002321   000000 620005                    EAX0    0,AL
         6 002322   200016 236100                    LDQ     I,,AUTO
         6 002323   000001 736000                    QLS     1
         6 002324   200050 237106                    LDAQ    TD_HEAD+16,QL,AUTO
         6 002325   200712 117110                    CMPAQ   TH_HEAD+16,X0,AUTO
         6 002326   002331 601000 6                  TNZ     s:5242

     1050     5241    3                 THEN FOUND = %TRUE;

   5241  6 002327   400000 236003                    LDQ     -131072,DU
         6 002330   200004 756100                    STQ     FOUND,,AUTO

     1051     5242    3           END;                            /* DO J                               */

   5242  6 002331   200017 054100                    AOS     J,,AUTO
         6 002332   200704 236100                    LDQ     TH_HEAD+10,,AUTO
         6 002333   777777 376007                    ANQ     -1,DL
         6 002334   210124 756100                    STQ     TH_UTS+3,,AUTO
         6 002335   200704 236100                    LDQ     TH_HEAD+10,,AUTO
         6 002336   000022 772000                    QRL     18
         6 002337   210124 036100                    ADLQ    TH_UTS+3,,AUTO
         6 002340   002317 604000 6                  TMI     s:5240
         6 002341   200017 116100                    CMPQ    J,,AUTO
         6 002342   002317 605400 6                  TPNZ    s:5240

     1052     5243    2           IF NOT FOUND

   5243  6 002343   200004 234100                    SZN     FOUND,,AUTO
         6 002344   002436 604000 6                  TMI     s:5260

     1053     5244    2              THEN                         /* STUFF INTO TH_HEAD.DEVNAME         */
PL6.E3A0      #003=THE$PROCESS File=THE$ELAN.:E05TSI                             WED 07/30/97 06:09 Page:181
     1054     5245    3              DO;

     1055     5246    4                 DO K = TH_HEAD.DP_INDX TO LAST_INDX;

   5246  6 002345   200705 235100                    LDA     TH_HEAD+11,,AUTO
         6 002346   000022 771000                    ARL     18
         6 002347   200020 755100                    STA     K,,AUTO
         6 002350   002366 710000 6                  TRA     s:5249+1

     1056     5247    4                    INDX = LAST_INDX - K + TH_HEAD.DP_INDX;

   5247  6 002351   200005 236100                    LDQ     LAST_INDX,,AUTO
         6 002352   200020 136100                    SBLQ    K,,AUTO
         6 002353   200705 235100                    LDA     TH_HEAD+11,,AUTO
         6 002354   000022 771000                    ARL     18
         6 002355   210124 755100                    STA     TH_UTS+3,,AUTO
         6 002356   210124 036100                    ADLQ    TH_UTS+3,,AUTO
         6 002357   200021 756100                    STQ     INDX,,AUTO

     1057     5248    4                    TH_HEAD.DEVNAME(INDX + 1) = TH_HEAD.DEVNAME(INDX);

   5248  6 002360   200021 235100                    LDA     INDX,,AUTO
         6 002361   000001 735000                    ALS     1
         6 002362   000000 620005                    EAX0    0,AL
         6 002363   200712 237105                    LDAQ    TH_HEAD+16,AL,AUTO
         6 002364   200714 757110                    STAQ    TH_HEAD+18,X0,AUTO

     1058     5249    4                 END;                      /* DO K                               */

   5249  6 002365   200020 054100                    AOS     K,,AUTO
         6 002366   200005 236100                    LDQ     LAST_INDX,,AUTO
         6 002367   002351 604000 6                  TMI     s:5247
         6 002370   200020 116100                    CMPQ    K,,AUTO
         6 002371   002351 605000 6                  TPL     s:5247

     1059     5250    3                 TH_HEAD.NUMCPS = TH_HEAD.NUMCPS + 1;

PL6.E3A0      #003=THE$PROCESS File=THE$ELAN.:E05TSI                             WED 07/30/97 06:09 Page:182
   5250  6 002372   200704 720100                    LXL0    TH_HEAD+10,,AUTO
         6 002373   000001 621010                    EAX1    1,X0
         6 002374   200704 441100                    SXL1    TH_HEAD+10,,AUTO

     1060     5251    3                 TH_HEAD.DEVNAME(TH_HEAD.CP_INDX + TH_HEAD.NUMCPS - 1) = TD_HEAD.
              5251                          DEVNAME(I);

   5251  6 002375   200704 236100                    LDQ     TH_HEAD+10,,AUTO
         6 002376   777777 376007                    ANQ     -1,DL
         6 002377   210124 756100                    STQ     TH_UTS+3,,AUTO
         6 002400   200704 236100                    LDQ     TH_HEAD+10,,AUTO
         6 002401   000022 772000                    QRL     18
         6 002402   210124 036100                    ADLQ    TH_UTS+3,,AUTO
         6 002403   000001 736000                    QLS     1
         6 002404   200016 235100                    LDA     I,,AUTO
         6 002405   000001 735000                    ALS     1
         6 002406   000000 620006                    EAX0    0,QL
         6 002407   200050 237105                    LDAQ    TD_HEAD+16,AL,AUTO
         6 002410   200710 757110                    STAQ    TH_HEAD+14,X0,AUTO

     1061     5252    3                 LAST_INDX = LAST_INDX + 1;

   5252  6 002411   200005 235100                    LDA     LAST_INDX,,AUTO
         6 002412   000001 035007                    ADLA    1,DL
         6 002413   200005 755100                    STA     LAST_INDX,,AUTO

     1062     5253    3                 TH_HEAD.DP_INDX = TH_HEAD.DP_INDX + 1;

   5253  6 002414   200705 220100                    LDX0    TH_HEAD+11,,AUTO
         6 002415   000001 621010                    EAX1    1,X0
         6 002416   200705 741100                    STX1    TH_HEAD+11,,AUTO

     1063     5254    3                 TH_HEAD.MT_INDX = TH_HEAD.MT_INDX + 1;

   5254  6 002417   200706 220100                    LDX0    TH_HEAD+12,,AUTO
         6 002420   000001 622010                    EAX2    1,X0
         6 002421   200706 742100                    STX2    TH_HEAD+12,,AUTO
PL6.E3A0      #003=THE$PROCESS File=THE$ELAN.:E05TSI                             WED 07/30/97 06:09 Page:183

     1064     5255    3                 TH_HEAD.XX_INDX = TH_HEAD.XX_INDX + 1;

   5255  6 002422   200707 220100                    LDX0    TH_HEAD+13,,AUTO
         6 002423   000001 623010                    EAX3    1,X0
         6 002424   200707 743100                    STX3    TH_HEAD+13,,AUTO

     1065     5256    3                 TH_HEAD.AP_INDX = TH_HEAD.AP_INDX + 1;

   5256  6 002425   200710 220100                    LDX0    TH_HEAD+14,,AUTO
         6 002426   000001 624010                    EAX4    1,X0
         6 002427   200710 744100                    STX4    TH_HEAD+14,,AUTO

     1066     5257    3                 TH_HEAD.OD_INDX = TH_HEAD.OD_INDX + 1;

   5257  6 002430   200711 220100                    LDX0    TH_HEAD+15,,AUTO
         6 002431   000001 625010                    EAX5    1,X0
         6 002432   200711 745100                    STX5    TH_HEAD+15,,AUTO

     1067     5258    3                 NUM_NEW_COMPS = NUM_NEW_COMPS + 1;

   5258  6 002433   000005 236000 4                  LDQ     NUM_NEW_COMPS
         6 002434   000001 036007                    ADLQ    1,DL
         6 002435   000005 756000 4                  STQ     NUM_NEW_COMPS

     1068     5259    3              END;                         /* IF NOT FOUND                       */

     1069     5260    2        END;                               /* DO I                               */

   5260  6 002436   200016 054100                    AOS     I,,AUTO
         6 002437   200042 236100                    LDQ     TD_HEAD+10,,AUTO
         6 002440   777777 376007                    ANQ     -1,DL
         6 002441   210124 756100                    STQ     TH_UTS+3,,AUTO
         6 002442   200042 236100                    LDQ     TD_HEAD+10,,AUTO
         6 002443   000022 772000                    QRL     18
         6 002444   210124 036100                    ADLQ    TH_UTS+3,,AUTO
         6 002445   002312 604000 6                  TMI     s:5238
PL6.E3A0      #003=THE$PROCESS File=THE$ELAN.:E05TSI                             WED 07/30/97 06:09 Page:184
         6 002446   200016 116100                    CMPQ    I,,AUTO
         6 002447   002312 605400 6                  TPNZ    s:5238

     1070     5261
     1071     5262                                                /* CHECK FOR DPS                      */
     1072     5263    2        DO I = TD_HEAD.DP_INDX TO TD_HEAD.DP_INDX + TD_HEAD.NUMDPS - 1;

   5263  6 002450   200043 235100                    LDA     TD_HEAD+11,,AUTO
         6 002451   000022 771000                    ARL     18
         6 002452   200016 755100                    STA     I,,AUTO
         6 002453   002576 710000 6                  TRA     s:5285+1

     1073     5264    2           FOUND = %FALSE;

   5264  6 002454   200004 450100                    STZ     FOUND,,AUTO

     1074     5265    3           DO J = TH_HEAD.DP_INDX TO TH_HEAD.DP_INDX + TH_HEAD.NUMDPS - 1;

   5265  6 002455   200705 235100                    LDA     TH_HEAD+11,,AUTO
         6 002456   000022 771000                    ARL     18
         6 002457   200017 755100                    STA     J,,AUTO
         6 002460   002474 710000 6                  TRA     s:5268+1

     1075     5266    3              IF TD_HEAD.DEVNAME(I) = TH_HEAD.DEVNAME(J)

   5266  6 002461   200017 235100                    LDA     J,,AUTO
         6 002462   000001 735000                    ALS     1
         6 002463   000000 620005                    EAX0    0,AL
         6 002464   200016 236100                    LDQ     I,,AUTO
         6 002465   000001 736000                    QLS     1
         6 002466   200050 237106                    LDAQ    TD_HEAD+16,QL,AUTO
         6 002467   200712 117110                    CMPAQ   TH_HEAD+16,X0,AUTO
         6 002470   002473 601000 6                  TNZ     s:5268

     1076     5267    3                 THEN FOUND = %TRUE;

   5267  6 002471   400000 236003                    LDQ     -131072,DU
PL6.E3A0      #003=THE$PROCESS File=THE$ELAN.:E05TSI                             WED 07/30/97 06:09 Page:185
         6 002472   200004 756100                    STQ     FOUND,,AUTO

     1077     5268    3           END;                            /* DO J                               */

   5268  6 002473   200017 054100                    AOS     J,,AUTO
         6 002474   200705 236100                    LDQ     TH_HEAD+11,,AUTO
         6 002475   777777 376007                    ANQ     -1,DL
         6 002476   210124 756100                    STQ     TH_UTS+3,,AUTO
         6 002477   200705 236100                    LDQ     TH_HEAD+11,,AUTO
         6 002500   000022 772000                    QRL     18
         6 002501   210124 036100                    ADLQ    TH_UTS+3,,AUTO
         6 002502   002461 604000 6                  TMI     s:5266
         6 002503   200017 116100                    CMPQ    J,,AUTO
         6 002504   002461 605400 6                  TPNZ    s:5266

     1078     5269    2           IF NOT FOUND

   5269  6 002505   200004 234100                    SZN     FOUND,,AUTO
         6 002506   002575 604000 6                  TMI     s:5285

     1079     5270    2              THEN                         /* STUFF INTO TH_HEAD.DEVNAME         */
     1080     5271    3              DO;

     1081     5272    4                 DO K = TH_HEAD.MT_INDX TO LAST_INDX;

   5272  6 002507   200706 235100                    LDA     TH_HEAD+12,,AUTO
         6 002510   000022 771000                    ARL     18
         6 002511   200020 755100                    STA     K,,AUTO
         6 002512   002530 710000 6                  TRA     s:5275+1

     1082     5273    4                    INDX = LAST_INDX - K + TH_HEAD.MT_INDX;

   5273  6 002513   200005 236100                    LDQ     LAST_INDX,,AUTO
         6 002514   200020 136100                    SBLQ    K,,AUTO
         6 002515   200706 235100                    LDA     TH_HEAD+12,,AUTO
         6 002516   000022 771000                    ARL     18
         6 002517   210124 755100                    STA     TH_UTS+3,,AUTO
PL6.E3A0      #003=THE$PROCESS File=THE$ELAN.:E05TSI                             WED 07/30/97 06:09 Page:186
         6 002520   210124 036100                    ADLQ    TH_UTS+3,,AUTO
         6 002521   200021 756100                    STQ     INDX,,AUTO

     1083     5274    4                    TH_HEAD.DEVNAME(INDX + 1) = TH_HEAD.DEVNAME(INDX);

   5274  6 002522   200021 235100                    LDA     INDX,,AUTO
         6 002523   000001 735000                    ALS     1
         6 002524   000000 620005                    EAX0    0,AL
         6 002525   200712 237105                    LDAQ    TH_HEAD+16,AL,AUTO
         6 002526   200714 757110                    STAQ    TH_HEAD+18,X0,AUTO

     1084     5275    4                 END;                      /* DO K                               */

   5275  6 002527   200020 054100                    AOS     K,,AUTO
         6 002530   200005 236100                    LDQ     LAST_INDX,,AUTO
         6 002531   002513 604000 6                  TMI     s:5273
         6 002532   200020 116100                    CMPQ    K,,AUTO
         6 002533   002513 605000 6                  TPL     s:5273

     1085     5276    3                 TH_HEAD.NUMDPS = TH_HEAD.NUMDPS + 1;

   5276  6 002534   200705 720100                    LXL0    TH_HEAD+11,,AUTO
         6 002535   000001 621010                    EAX1    1,X0
         6 002536   200705 441100                    SXL1    TH_HEAD+11,,AUTO

     1086     5277    3                 TH_HEAD.DEVNAME(TH_HEAD.DP_INDX + TH_HEAD.NUMDPS - 1) = TD_HEAD.
              5277                          DEVNAME(I);

   5277  6 002537   200705 236100                    LDQ     TH_HEAD+11,,AUTO
         6 002540   777777 376007                    ANQ     -1,DL
         6 002541   210124 756100                    STQ     TH_UTS+3,,AUTO
         6 002542   200705 236100                    LDQ     TH_HEAD+11,,AUTO
         6 002543   000022 772000                    QRL     18
         6 002544   210124 036100                    ADLQ    TH_UTS+3,,AUTO
         6 002545   000001 736000                    QLS     1
         6 002546   200016 235100                    LDA     I,,AUTO
         6 002547   000001 735000                    ALS     1
PL6.E3A0      #003=THE$PROCESS File=THE$ELAN.:E05TSI                             WED 07/30/97 06:09 Page:187
         6 002550   000000 620006                    EAX0    0,QL
         6 002551   200050 237105                    LDAQ    TD_HEAD+16,AL,AUTO
         6 002552   200710 757110                    STAQ    TH_HEAD+14,X0,AUTO

     1087     5278    3                 LAST_INDX = LAST_INDX + 1;

   5278  6 002553   200005 235100                    LDA     LAST_INDX,,AUTO
         6 002554   000001 035007                    ADLA    1,DL
         6 002555   200005 755100                    STA     LAST_INDX,,AUTO

     1088     5279    3                 TH_HEAD.MT_INDX = TH_HEAD.MT_INDX + 1;

   5279  6 002556   200706 220100                    LDX0    TH_HEAD+12,,AUTO
         6 002557   000001 621010                    EAX1    1,X0
         6 002560   200706 741100                    STX1    TH_HEAD+12,,AUTO

     1089     5280    3                 TH_HEAD.XX_INDX = TH_HEAD.XX_INDX + 1;

   5280  6 002561   200707 220100                    LDX0    TH_HEAD+13,,AUTO
         6 002562   000001 622010                    EAX2    1,X0
         6 002563   200707 742100                    STX2    TH_HEAD+13,,AUTO

     1090     5281    3                 TH_HEAD.AP_INDX = TH_HEAD.AP_INDX + 1;

   5281  6 002564   200710 220100                    LDX0    TH_HEAD+14,,AUTO
         6 002565   000001 623010                    EAX3    1,X0
         6 002566   200710 743100                    STX3    TH_HEAD+14,,AUTO

     1091     5282    3                 TH_HEAD.OD_INDX = TH_HEAD.OD_INDX + 1;

   5282  6 002567   200711 220100                    LDX0    TH_HEAD+15,,AUTO
         6 002570   000001 624010                    EAX4    1,X0
         6 002571   200711 744100                    STX4    TH_HEAD+15,,AUTO

     1092     5283    3                 NUM_NEW_COMPS = NUM_NEW_COMPS + 1;

   5283  6 002572   000005 236000 4                  LDQ     NUM_NEW_COMPS
PL6.E3A0      #003=THE$PROCESS File=THE$ELAN.:E05TSI                             WED 07/30/97 06:09 Page:188
         6 002573   000001 036007                    ADLQ    1,DL
         6 002574   000005 756000 4                  STQ     NUM_NEW_COMPS

     1093     5284    3              END;                         /* IF NOT FOUND                       */

     1094     5285    2        END;                               /* DO I                               */

   5285  6 002575   200016 054100                    AOS     I,,AUTO
         6 002576   200043 236100                    LDQ     TD_HEAD+11,,AUTO
         6 002577   777777 376007                    ANQ     -1,DL
         6 002600   210124 756100                    STQ     TH_UTS+3,,AUTO
         6 002601   200043 236100                    LDQ     TD_HEAD+11,,AUTO
         6 002602   000022 772000                    QRL     18
         6 002603   210124 036100                    ADLQ    TH_UTS+3,,AUTO
         6 002604   002454 604000 6                  TMI     s:5264
         6 002605   200016 116100                    CMPQ    I,,AUTO
         6 002606   002454 605400 6                  TPNZ    s:5264

     1095     5286
     1096     5287                                                /* CHECK FOR MTS                      */
     1097     5288    2        DO I = TD_HEAD.MT_INDX TO TD_HEAD.MT_INDX + TD_HEAD.NUMMTS - 1;

   5288  6 002607   200044 235100                    LDA     TD_HEAD+12,,AUTO
         6 002610   000022 771000                    ARL     18
         6 002611   200016 755100                    STA     I,,AUTO
         6 002612   002732 710000 6                  TRA     s:5309+1

     1098     5289    2           FOUND = %FALSE;

   5289  6 002613   200004 450100                    STZ     FOUND,,AUTO

     1099     5290    3           DO J = TH_HEAD.MT_INDX TO TH_HEAD.MT_INDX + TH_HEAD.NUMMTS - 1;

   5290  6 002614   200706 235100                    LDA     TH_HEAD+12,,AUTO
         6 002615   000022 771000                    ARL     18
         6 002616   200017 755100                    STA     J,,AUTO
         6 002617   002633 710000 6                  TRA     s:5293+1
PL6.E3A0      #003=THE$PROCESS File=THE$ELAN.:E05TSI                             WED 07/30/97 06:09 Page:189

     1100     5291    3              IF TD_HEAD.DEVNAME(I) = TH_HEAD.DEVNAME(J)

   5291  6 002620   200017 235100                    LDA     J,,AUTO
         6 002621   000001 735000                    ALS     1
         6 002622   000000 620005                    EAX0    0,AL
         6 002623   200016 236100                    LDQ     I,,AUTO
         6 002624   000001 736000                    QLS     1
         6 002625   200050 237106                    LDAQ    TD_HEAD+16,QL,AUTO
         6 002626   200712 117110                    CMPAQ   TH_HEAD+16,X0,AUTO
         6 002627   002632 601000 6                  TNZ     s:5293

     1101     5292    3                 THEN FOUND = %TRUE;

   5292  6 002630   400000 236003                    LDQ     -131072,DU
         6 002631   200004 756100                    STQ     FOUND,,AUTO

     1102     5293    3           END;                            /* DO J                               */

   5293  6 002632   200017 054100                    AOS     J,,AUTO
         6 002633   200706 236100                    LDQ     TH_HEAD+12,,AUTO
         6 002634   777777 376007                    ANQ     -1,DL
         6 002635   210124 756100                    STQ     TH_UTS+3,,AUTO
         6 002636   200706 236100                    LDQ     TH_HEAD+12,,AUTO
         6 002637   000022 772000                    QRL     18
         6 002640   210124 036100                    ADLQ    TH_UTS+3,,AUTO
         6 002641   002620 604000 6                  TMI     s:5291
         6 002642   200017 116100                    CMPQ    J,,AUTO
         6 002643   002620 605400 6                  TPNZ    s:5291

     1103     5294    2           IF NOT FOUND

   5294  6 002644   200004 234100                    SZN     FOUND,,AUTO
         6 002645   002731 604000 6                  TMI     s:5309

     1104     5295    2              THEN                         /* STUFF INTO TH_HEAD.DEVNAME         */
     1105     5296    3              DO;
PL6.E3A0      #003=THE$PROCESS File=THE$ELAN.:E05TSI                             WED 07/30/97 06:09 Page:190

     1106     5297    4                 DO K = TH_HEAD.XX_INDX TO LAST_INDX;

   5297  6 002646   200707 235100                    LDA     TH_HEAD+13,,AUTO
         6 002647   000022 771000                    ARL     18
         6 002650   200020 755100                    STA     K,,AUTO
         6 002651   002667 710000 6                  TRA     s:5300+1

     1107     5298    4                    INDX = LAST_INDX - K + TH_HEAD.XX_INDX;

   5298  6 002652   200005 236100                    LDQ     LAST_INDX,,AUTO
         6 002653   200020 136100                    SBLQ    K,,AUTO
         6 002654   200707 235100                    LDA     TH_HEAD+13,,AUTO
         6 002655   000022 771000                    ARL     18
         6 002656   210124 755100                    STA     TH_UTS+3,,AUTO
         6 002657   210124 036100                    ADLQ    TH_UTS+3,,AUTO
         6 002660   200021 756100                    STQ     INDX,,AUTO

     1108     5299    4                    TH_HEAD.DEVNAME(INDX + 1) = TH_HEAD.DEVNAME(INDX);

   5299  6 002661   200021 235100                    LDA     INDX,,AUTO
         6 002662   000001 735000                    ALS     1
         6 002663   000000 620005                    EAX0    0,AL
         6 002664   200712 237105                    LDAQ    TH_HEAD+16,AL,AUTO
         6 002665   200714 757110                    STAQ    TH_HEAD+18,X0,AUTO

     1109     5300    4                 END;                      /* DO K                               */

   5300  6 002666   200020 054100                    AOS     K,,AUTO
         6 002667   200005 236100                    LDQ     LAST_INDX,,AUTO
         6 002670   002652 604000 6                  TMI     s:5298
         6 002671   200020 116100                    CMPQ    K,,AUTO
         6 002672   002652 605000 6                  TPL     s:5298

     1110     5301    3                 TH_HEAD.NUMMTS = TH_HEAD.NUMMTS + 1;

   5301  6 002673   200706 720100                    LXL0    TH_HEAD+12,,AUTO
PL6.E3A0      #003=THE$PROCESS File=THE$ELAN.:E05TSI                             WED 07/30/97 06:09 Page:191
         6 002674   000001 621010                    EAX1    1,X0
         6 002675   200706 441100                    SXL1    TH_HEAD+12,,AUTO

     1111     5302    3                 TH_HEAD.DEVNAME(TH_HEAD.MT_INDX + TH_HEAD.NUMMTS - 1) = TD_HEAD.
              5302                          DEVNAME(I);

   5302  6 002676   200706 236100                    LDQ     TH_HEAD+12,,AUTO
         6 002677   777777 376007                    ANQ     -1,DL
         6 002700   210124 756100                    STQ     TH_UTS+3,,AUTO
         6 002701   200706 236100                    LDQ     TH_HEAD+12,,AUTO
         6 002702   000022 772000                    QRL     18
         6 002703   210124 036100                    ADLQ    TH_UTS+3,,AUTO
         6 002704   000001 736000                    QLS     1
         6 002705   200016 235100                    LDA     I,,AUTO
         6 002706   000001 735000                    ALS     1
         6 002707   000000 620006                    EAX0    0,QL
         6 002710   200050 237105                    LDAQ    TD_HEAD+16,AL,AUTO
         6 002711   200710 757110                    STAQ    TH_HEAD+14,X0,AUTO

     1112     5303    3                 LAST_INDX = LAST_INDX + 1;

   5303  6 002712   200005 235100                    LDA     LAST_INDX,,AUTO
         6 002713   000001 035007                    ADLA    1,DL
         6 002714   200005 755100                    STA     LAST_INDX,,AUTO

     1113     5304    3                 TH_HEAD.XX_INDX = TH_HEAD.XX_INDX + 1;

   5304  6 002715   200707 220100                    LDX0    TH_HEAD+13,,AUTO
         6 002716   000001 621010                    EAX1    1,X0
         6 002717   200707 741100                    STX1    TH_HEAD+13,,AUTO

     1114     5305    3                 TH_HEAD.AP_INDX = TH_HEAD.AP_INDX + 1;

   5305  6 002720   200710 220100                    LDX0    TH_HEAD+14,,AUTO
         6 002721   000001 622010                    EAX2    1,X0
         6 002722   200710 742100                    STX2    TH_HEAD+14,,AUTO

PL6.E3A0      #003=THE$PROCESS File=THE$ELAN.:E05TSI                             WED 07/30/97 06:09 Page:192
     1115     5306    3                 TH_HEAD.OD_INDX = TH_HEAD.OD_INDX + 1;

   5306  6 002723   200711 220100                    LDX0    TH_HEAD+15,,AUTO
         6 002724   000001 623010                    EAX3    1,X0
         6 002725   200711 743100                    STX3    TH_HEAD+15,,AUTO

     1116     5307    3                 NUM_NEW_COMPS = NUM_NEW_COMPS + 1;

   5307  6 002726   000005 236000 4                  LDQ     NUM_NEW_COMPS
         6 002727   000001 036007                    ADLQ    1,DL
         6 002730   000005 756000 4                  STQ     NUM_NEW_COMPS

     1117     5308    3              END;                         /* IF NOT FOUND                       */

     1118     5309    2        END;                               /* DO I                               */

   5309  6 002731   200016 054100                    AOS     I,,AUTO
         6 002732   200044 236100                    LDQ     TD_HEAD+12,,AUTO
         6 002733   777777 376007                    ANQ     -1,DL
         6 002734   210124 756100                    STQ     TH_UTS+3,,AUTO
         6 002735   200044 236100                    LDQ     TD_HEAD+12,,AUTO
         6 002736   000022 772000                    QRL     18
         6 002737   210124 036100                    ADLQ    TH_UTS+3,,AUTO
         6 002740   002613 604000 6                  TMI     s:5289
         6 002741   200016 116100                    CMPQ    I,,AUTO
         6 002742   002613 605400 6                  TPNZ    s:5289

     1119     5310
     1120     5311                                                /* CHECK FOR XXS (dummy for old 7T's) */
     1121     5312    2           DO I = TD_HEAD.XX_INDX TO TD_HEAD.XX_INDX + TD_HEAD.NUMXXS - 1;

   5312  6 002743   200045 235100                    LDA     TD_HEAD+13,,AUTO
         6 002744   000022 771000                    ARL     18
         6 002745   200016 755100                    STA     I,,AUTO
         6 002746   003063 710000 6                  TRA     s:5332+1

     1122     5313    2           FOUND = %FALSE;
PL6.E3A0      #003=THE$PROCESS File=THE$ELAN.:E05TSI                             WED 07/30/97 06:09 Page:193

   5313  6 002747   200004 450100                    STZ     FOUND,,AUTO

     1123     5314    3              DO J = TH_HEAD.XX_INDX TO TH_HEAD.XX_INDX + TH_HEAD.NUMXXS - 1;

   5314  6 002750   200707 235100                    LDA     TH_HEAD+13,,AUTO
         6 002751   000022 771000                    ARL     18
         6 002752   200017 755100                    STA     J,,AUTO
         6 002753   002767 710000 6                  TRA     s:5317+1

     1124     5315    3              IF TD_HEAD.DEVNAME(I) = TH_HEAD.DEVNAME(J)

   5315  6 002754   200017 235100                    LDA     J,,AUTO
         6 002755   000001 735000                    ALS     1
         6 002756   000000 620005                    EAX0    0,AL
         6 002757   200016 236100                    LDQ     I,,AUTO
         6 002760   000001 736000                    QLS     1
         6 002761   200050 237106                    LDAQ    TD_HEAD+16,QL,AUTO
         6 002762   200712 117110                    CMPAQ   TH_HEAD+16,X0,AUTO
         6 002763   002766 601000 6                  TNZ     s:5317

     1125     5316    3                 THEN FOUND = %TRUE;

   5316  6 002764   400000 236003                    LDQ     -131072,DU
         6 002765   200004 756100                    STQ     FOUND,,AUTO

     1126     5317    3           END;                            /* DO J                               */

   5317  6 002766   200017 054100                    AOS     J,,AUTO
         6 002767   200707 236100                    LDQ     TH_HEAD+13,,AUTO
         6 002770   777777 376007                    ANQ     -1,DL
         6 002771   210124 756100                    STQ     TH_UTS+3,,AUTO
         6 002772   200707 236100                    LDQ     TH_HEAD+13,,AUTO
         6 002773   000022 772000                    QRL     18
         6 002774   210124 036100                    ADLQ    TH_UTS+3,,AUTO
         6 002775   002754 604000 6                  TMI     s:5315
         6 002776   200017 116100                    CMPQ    J,,AUTO
PL6.E3A0      #003=THE$PROCESS File=THE$ELAN.:E05TSI                             WED 07/30/97 06:09 Page:194
         6 002777   002754 605400 6                  TPNZ    s:5315

     1127     5318    2           IF NOT FOUND

   5318  6 003000   200004 234100                    SZN     FOUND,,AUTO
         6 003001   003062 604000 6                  TMI     s:5332

     1128     5319    2              THEN                         /* STUFF INTO TH_HEAD.DEVNAME         */
     1129     5320    3              DO;

     1130     5321    4                 DO K = TH_HEAD.AP_INDX TO LAST_INDX;

   5321  6 003002   200710 235100                    LDA     TH_HEAD+14,,AUTO
         6 003003   000022 771000                    ARL     18
         6 003004   200020 755100                    STA     K,,AUTO
         6 003005   003023 710000 6                  TRA     s:5324+1

     1131     5322    4                    INDX = LAST_INDX - K + TH_HEAD.AP_INDX;

   5322  6 003006   200005 236100                    LDQ     LAST_INDX,,AUTO
         6 003007   200020 136100                    SBLQ    K,,AUTO
         6 003010   200710 235100                    LDA     TH_HEAD+14,,AUTO
         6 003011   000022 771000                    ARL     18
         6 003012   210124 755100                    STA     TH_UTS+3,,AUTO
         6 003013   210124 036100                    ADLQ    TH_UTS+3,,AUTO
         6 003014   200021 756100                    STQ     INDX,,AUTO

     1132     5323    4                    TH_HEAD.DEVNAME(INDX + 1) = TH_HEAD.DEVNAME(INDX);

   5323  6 003015   200021 235100                    LDA     INDX,,AUTO
         6 003016   000001 735000                    ALS     1
         6 003017   000000 620005                    EAX0    0,AL
         6 003020   200712 237105                    LDAQ    TH_HEAD+16,AL,AUTO
         6 003021   200714 757110                    STAQ    TH_HEAD+18,X0,AUTO

     1133     5324    4                 END;                      /* DO K                               */

PL6.E3A0      #003=THE$PROCESS File=THE$ELAN.:E05TSI                             WED 07/30/97 06:09 Page:195
   5324  6 003022   200020 054100                    AOS     K,,AUTO
         6 003023   200005 236100                    LDQ     LAST_INDX,,AUTO
         6 003024   003006 604000 6                  TMI     s:5322
         6 003025   200020 116100                    CMPQ    K,,AUTO
         6 003026   003006 605000 6                  TPL     s:5322

     1134     5325    3                 TH_HEAD.NUMXXS = TH_HEAD.NUMXXS + 1;

   5325  6 003027   200707 720100                    LXL0    TH_HEAD+13,,AUTO
         6 003030   000001 621010                    EAX1    1,X0
         6 003031   200707 441100                    SXL1    TH_HEAD+13,,AUTO

     1135     5326    3                 TH_HEAD.DEVNAME(TH_HEAD.XX_INDX + TH_HEAD.NUMXXS - 1) = TD_HEAD.
              5326                          DEVNAME(I);

   5326  6 003032   200707 236100                    LDQ     TH_HEAD+13,,AUTO
         6 003033   777777 376007                    ANQ     -1,DL
         6 003034   210124 756100                    STQ     TH_UTS+3,,AUTO
         6 003035   200707 236100                    LDQ     TH_HEAD+13,,AUTO
         6 003036   000022 772000                    QRL     18
         6 003037   210124 036100                    ADLQ    TH_UTS+3,,AUTO
         6 003040   000001 736000                    QLS     1
         6 003041   200016 235100                    LDA     I,,AUTO
         6 003042   000001 735000                    ALS     1
         6 003043   000000 620006                    EAX0    0,QL
         6 003044   200050 237105                    LDAQ    TD_HEAD+16,AL,AUTO
         6 003045   200710 757110                    STAQ    TH_HEAD+14,X0,AUTO

     1136     5327    3                 LAST_INDX = LAST_INDX + 1;

   5327  6 003046   200005 235100                    LDA     LAST_INDX,,AUTO
         6 003047   000001 035007                    ADLA    1,DL
         6 003050   200005 755100                    STA     LAST_INDX,,AUTO

     1137     5328    3                 TH_HEAD.AP_INDX = TH_HEAD.AP_INDX + 1;

   5328  6 003051   200710 220100                    LDX0    TH_HEAD+14,,AUTO
PL6.E3A0      #003=THE$PROCESS File=THE$ELAN.:E05TSI                             WED 07/30/97 06:09 Page:196
         6 003052   000001 621010                    EAX1    1,X0
         6 003053   200710 741100                    STX1    TH_HEAD+14,,AUTO

     1138     5329    3                 TH_HEAD.OD_INDX = TH_HEAD.OD_INDX + 1;

   5329  6 003054   200711 220100                    LDX0    TH_HEAD+15,,AUTO
         6 003055   000001 622010                    EAX2    1,X0
         6 003056   200711 742100                    STX2    TH_HEAD+15,,AUTO

     1139     5330    3                 NUM_NEW_COMPS = NUM_NEW_COMPS + 1;

   5330  6 003057   000005 236000 4                  LDQ     NUM_NEW_COMPS
         6 003060   000001 036007                    ADLQ    1,DL
         6 003061   000005 756000 4                  STQ     NUM_NEW_COMPS

     1140     5331    3              END;                         /* IF NOT FOUND                       */

     1141     5332    2        END;                               /* DO I                               */

   5332  6 003062   200016 054100                    AOS     I,,AUTO
         6 003063   200045 236100                    LDQ     TD_HEAD+13,,AUTO
         6 003064   777777 376007                    ANQ     -1,DL
         6 003065   210124 756100                    STQ     TH_UTS+3,,AUTO
         6 003066   200045 236100                    LDQ     TD_HEAD+13,,AUTO
         6 003067   000022 772000                    QRL     18
         6 003070   210124 036100                    ADLQ    TH_UTS+3,,AUTO
         6 003071   002747 604000 6                  TMI     s:5313
         6 003072   200016 116100                    CMPQ    I,,AUTO
         6 003073   002747 605400 6                  TPNZ    s:5313

     1142     5333
     1143     5334                                                /* CHECK FOR  APS                     */
     1144     5335    2        DO I = TD_HEAD.AP_INDX TO TD_HEAD.AP_INDX + TD_HEAD.NUMAPS - 1;

   5335  6 003074   200046 235100                    LDA     TD_HEAD+14,,AUTO
         6 003075   000022 771000                    ARL     18
         6 003076   200016 755100                    STA     I,,AUTO
PL6.E3A0      #003=THE$PROCESS File=THE$ELAN.:E05TSI                             WED 07/30/97 06:09 Page:197
         6 003077   003211 710000 6                  TRA     s:5354+1

     1145     5336    2           FOUND = %FALSE;

   5336  6 003100   200004 450100                    STZ     FOUND,,AUTO

     1146     5337    3           DO J = TH_HEAD.AP_INDX TO TH_HEAD.AP_INDX + TH_HEAD.NUMAPS - 1;

   5337  6 003101   200710 235100                    LDA     TH_HEAD+14,,AUTO
         6 003102   000022 771000                    ARL     18
         6 003103   200017 755100                    STA     J,,AUTO
         6 003104   003120 710000 6                  TRA     s:5340+1

     1147     5338    3              IF TD_HEAD.DEVNAME(I) = TH_HEAD.DEVNAME(J)

   5338  6 003105   200017 235100                    LDA     J,,AUTO
         6 003106   000001 735000                    ALS     1
         6 003107   000000 620005                    EAX0    0,AL
         6 003110   200016 236100                    LDQ     I,,AUTO
         6 003111   000001 736000                    QLS     1
         6 003112   200050 237106                    LDAQ    TD_HEAD+16,QL,AUTO
         6 003113   200712 117110                    CMPAQ   TH_HEAD+16,X0,AUTO
         6 003114   003117 601000 6                  TNZ     s:5340

     1148     5339    3                 THEN FOUND = %TRUE;

   5339  6 003115   400000 236003                    LDQ     -131072,DU
         6 003116   200004 756100                    STQ     FOUND,,AUTO

     1149     5340    3           END;                            /* DO J                               */

   5340  6 003117   200017 054100                    AOS     J,,AUTO
         6 003120   200710 236100                    LDQ     TH_HEAD+14,,AUTO
         6 003121   777777 376007                    ANQ     -1,DL
         6 003122   210124 756100                    STQ     TH_UTS+3,,AUTO
         6 003123   200710 236100                    LDQ     TH_HEAD+14,,AUTO
         6 003124   000022 772000                    QRL     18
PL6.E3A0      #003=THE$PROCESS File=THE$ELAN.:E05TSI                             WED 07/30/97 06:09 Page:198
         6 003125   210124 036100                    ADLQ    TH_UTS+3,,AUTO
         6 003126   003105 604000 6                  TMI     s:5338
         6 003127   200017 116100                    CMPQ    J,,AUTO
         6 003130   003105 605400 6                  TPNZ    s:5338

     1150     5341    2           IF NOT FOUND

   5341  6 003131   200004 234100                    SZN     FOUND,,AUTO
         6 003132   003210 604000 6                  TMI     s:5354

     1151     5342    2              THEN                         /* STUFF INTO TH_HEAD.DEVNAME         */
     1152     5343    3              DO;

     1153     5344    4                 DO K = TH_HEAD.OD_INDX TO LAST_INDX;

   5344  6 003133   200711 235100                    LDA     TH_HEAD+15,,AUTO
         6 003134   000022 771000                    ARL     18
         6 003135   200020 755100                    STA     K,,AUTO
         6 003136   003154 710000 6                  TRA     s:5347+1

     1154     5345    4                    INDX = LAST_INDX - K + TH_HEAD.OD_INDX;

   5345  6 003137   200005 236100                    LDQ     LAST_INDX,,AUTO
         6 003140   200020 136100                    SBLQ    K,,AUTO
         6 003141   200711 235100                    LDA     TH_HEAD+15,,AUTO
         6 003142   000022 771000                    ARL     18
         6 003143   210124 755100                    STA     TH_UTS+3,,AUTO
         6 003144   210124 036100                    ADLQ    TH_UTS+3,,AUTO
         6 003145   200021 756100                    STQ     INDX,,AUTO

     1155     5346    4                    TH_HEAD.DEVNAME(INDX + 1) = TH_HEAD.DEVNAME(INDX);

   5346  6 003146   200021 235100                    LDA     INDX,,AUTO
         6 003147   000001 735000                    ALS     1
         6 003150   000000 620005                    EAX0    0,AL
         6 003151   200712 237105                    LDAQ    TH_HEAD+16,AL,AUTO
         6 003152   200714 757110                    STAQ    TH_HEAD+18,X0,AUTO
PL6.E3A0      #003=THE$PROCESS File=THE$ELAN.:E05TSI                             WED 07/30/97 06:09 Page:199

     1156     5347    4                 END;                      /* DO K                               */

   5347  6 003153   200020 054100                    AOS     K,,AUTO
         6 003154   200005 236100                    LDQ     LAST_INDX,,AUTO
         6 003155   003137 604000 6                  TMI     s:5345
         6 003156   200020 116100                    CMPQ    K,,AUTO
         6 003157   003137 605000 6                  TPL     s:5345

     1157     5348    3                 TH_HEAD.NUMAPS = TH_HEAD.NUMAPS + 1;

   5348  6 003160   200710 720100                    LXL0    TH_HEAD+14,,AUTO
         6 003161   000001 621010                    EAX1    1,X0
         6 003162   200710 441100                    SXL1    TH_HEAD+14,,AUTO

     1158     5349    3                 TH_HEAD.DEVNAME(TH_HEAD.AP_INDX + TH_HEAD.NUMAPS - 1) = TD_HEAD.
              5349                          DEVNAME(I);

   5349  6 003163   200710 236100                    LDQ     TH_HEAD+14,,AUTO
         6 003164   777777 376007                    ANQ     -1,DL
         6 003165   210124 756100                    STQ     TH_UTS+3,,AUTO
         6 003166   200710 236100                    LDQ     TH_HEAD+14,,AUTO
         6 003167   000022 772000                    QRL     18
         6 003170   210124 036100                    ADLQ    TH_UTS+3,,AUTO
         6 003171   000001 736000                    QLS     1
         6 003172   200016 235100                    LDA     I,,AUTO
         6 003173   000001 735000                    ALS     1
         6 003174   000000 620006                    EAX0    0,QL
         6 003175   200050 237105                    LDAQ    TD_HEAD+16,AL,AUTO
         6 003176   200710 757110                    STAQ    TH_HEAD+14,X0,AUTO

     1159     5350    3                 LAST_INDX = LAST_INDX + 1;

   5350  6 003177   200005 235100                    LDA     LAST_INDX,,AUTO
         6 003200   000001 035007                    ADLA    1,DL
         6 003201   200005 755100                    STA     LAST_INDX,,AUTO

PL6.E3A0      #003=THE$PROCESS File=THE$ELAN.:E05TSI                             WED 07/30/97 06:09 Page:200
     1160     5351    3                 TH_HEAD.OD_INDX = TH_HEAD.OD_INDX + 1;

   5351  6 003202   200711 220100                    LDX0    TH_HEAD+15,,AUTO
         6 003203   000001 621010                    EAX1    1,X0
         6 003204   200711 741100                    STX1    TH_HEAD+15,,AUTO

     1161     5352    3                 NUM_NEW_COMPS = NUM_NEW_COMPS + 1;

   5352  6 003205   000005 236000 4                  LDQ     NUM_NEW_COMPS
         6 003206   000001 036007                    ADLQ    1,DL
         6 003207   000005 756000 4                  STQ     NUM_NEW_COMPS

     1162     5353    3              END;                         /* IF NOT FOUND                       */

     1163     5354    2        END;                               /* DO I                               */

   5354  6 003210   200016 054100                    AOS     I,,AUTO
         6 003211   200046 236100                    LDQ     TD_HEAD+14,,AUTO
         6 003212   777777 376007                    ANQ     -1,DL
         6 003213   210124 756100                    STQ     TH_UTS+3,,AUTO
         6 003214   200046 236100                    LDQ     TD_HEAD+14,,AUTO
         6 003215   000022 772000                    QRL     18
         6 003216   210124 036100                    ADLQ    TH_UTS+3,,AUTO
         6 003217   003100 604000 6                  TMI     s:5336
         6 003220   200016 116100                    CMPQ    I,,AUTO
         6 003221   003100 605400 6                  TPNZ    s:5336

     1164     5355
     1165     5356
     1166     5357                                                /* CHECK FOR  ODS                     */
     1167     5358    2        DO I = TD_HEAD.OD_INDX TO TD_HEAD.OD_INDX + TD_HEAD.NUMODS - 1;

   5358  6 003222   200047 235100                    LDA     TD_HEAD+15,,AUTO
         6 003223   000022 771000                    ARL     18
         6 003224   200016 755100                    STA     I,,AUTO
         6 003225   003307 710000 6                  TRA     s:5372+1

PL6.E3A0      #003=THE$PROCESS File=THE$ELAN.:E05TSI                             WED 07/30/97 06:09 Page:201
     1168     5359    2           FOUND = %FALSE;

   5359  6 003226   200004 450100                    STZ     FOUND,,AUTO

     1169     5360    3           DO J = TH_HEAD.OD_INDX TO TH_HEAD.OD_INDX + TH_HEAD.NUMODS - 1;

   5360  6 003227   200711 235100                    LDA     TH_HEAD+15,,AUTO
         6 003230   000022 771000                    ARL     18
         6 003231   200017 755100                    STA     J,,AUTO
         6 003232   003246 710000 6                  TRA     s:5363+1

     1170     5361    3              IF TD_HEAD.DEVNAME(I) = TH_HEAD.DEVNAME(J)

   5361  6 003233   200017 235100                    LDA     J,,AUTO
         6 003234   000001 735000                    ALS     1
         6 003235   000000 620005                    EAX0    0,AL
         6 003236   200016 236100                    LDQ     I,,AUTO
         6 003237   000001 736000                    QLS     1
         6 003240   200050 237106                    LDAQ    TD_HEAD+16,QL,AUTO
         6 003241   200712 117110                    CMPAQ   TH_HEAD+16,X0,AUTO
         6 003242   003245 601000 6                  TNZ     s:5363

     1171     5362    3                 THEN FOUND = %TRUE;

   5362  6 003243   400000 236003                    LDQ     -131072,DU
         6 003244   200004 756100                    STQ     FOUND,,AUTO

     1172     5363    3           END;                            /* DO J                               */

   5363  6 003245   200017 054100                    AOS     J,,AUTO
         6 003246   200711 236100                    LDQ     TH_HEAD+15,,AUTO
         6 003247   777777 376007                    ANQ     -1,DL
         6 003250   210124 756100                    STQ     TH_UTS+3,,AUTO
         6 003251   200711 236100                    LDQ     TH_HEAD+15,,AUTO
         6 003252   000022 772000                    QRL     18
         6 003253   210124 036100                    ADLQ    TH_UTS+3,,AUTO
         6 003254   003233 604000 6                  TMI     s:5361
PL6.E3A0      #003=THE$PROCESS File=THE$ELAN.:E05TSI                             WED 07/30/97 06:09 Page:202
         6 003255   200017 116100                    CMPQ    J,,AUTO
         6 003256   003233 605400 6                  TPNZ    s:5361

     1173     5364    2           IF NOT FOUND

   5364  6 003257   200004 234100                    SZN     FOUND,,AUTO
         6 003260   003306 604000 6                  TMI     s:5372

     1174     5365    2              THEN                         /* STUFF INTO TH_HEAD.DEVNAME         */
     1175     5366    3              DO;

     1176     5367    3                 TH_HEAD.NUMODS = TH_HEAD.NUMODS + 1;

   5367  6 003261   200711 720100                    LXL0    TH_HEAD+15,,AUTO
         6 003262   000001 621010                    EAX1    1,X0
         6 003263   200711 441100                    SXL1    TH_HEAD+15,,AUTO

     1177     5368    3                 TH_HEAD.DEVNAME(TH_HEAD.OD_INDX + TH_HEAD.NUMODS - 1) = TD_HEAD.
              5368                          DEVNAME(I);

   5368  6 003264   200711 236100                    LDQ     TH_HEAD+15,,AUTO
         6 003265   777777 376007                    ANQ     -1,DL
         6 003266   210124 756100                    STQ     TH_UTS+3,,AUTO
         6 003267   200711 236100                    LDQ     TH_HEAD+15,,AUTO
         6 003270   000022 772000                    QRL     18
         6 003271   210124 036100                    ADLQ    TH_UTS+3,,AUTO
         6 003272   000001 736000                    QLS     1
         6 003273   200016 235100                    LDA     I,,AUTO
         6 003274   000001 735000                    ALS     1
         6 003275   000000 620006                    EAX0    0,QL
         6 003276   200050 237105                    LDAQ    TD_HEAD+16,AL,AUTO
         6 003277   200710 757110                    STAQ    TH_HEAD+14,X0,AUTO

     1178     5369    3                 LAST_INDX = LAST_INDX + 1;

   5369  6 003300   200005 235100                    LDA     LAST_INDX,,AUTO
         6 003301   000001 035007                    ADLA    1,DL
PL6.E3A0      #003=THE$PROCESS File=THE$ELAN.:E05TSI                             WED 07/30/97 06:09 Page:203
         6 003302   200005 755100                    STA     LAST_INDX,,AUTO

     1179     5370    3                 NUM_NEW_COMPS = NUM_NEW_COMPS + 1;

   5370  6 003303   000005 236000 4                  LDQ     NUM_NEW_COMPS
         6 003304   000001 036007                    ADLQ    1,DL
         6 003305   000005 756000 4                  STQ     NUM_NEW_COMPS

     1180     5371    3              END;                         /* IF NOT FOUND                       */

     1181     5372    2        END;                               /* DO I                               */

   5372  6 003306   200016 054100                    AOS     I,,AUTO
         6 003307   200047 236100                    LDQ     TD_HEAD+15,,AUTO
         6 003310   777777 376007                    ANQ     -1,DL
         6 003311   210124 756100                    STQ     TH_UTS+3,,AUTO
         6 003312   200047 236100                    LDQ     TD_HEAD+15,,AUTO
         6 003313   000022 772000                    QRL     18
         6 003314   210124 036100                    ADLQ    TH_UTS+3,,AUTO
         6 003315   003226 604000 6                  TMI     s:5359
         6 003316   200016 116100                    CMPQ    I,,AUTO
         6 003317   003226 605400 6                  TPNZ    s:5359

     1182     5373
     1183     5374    1        IF NUM_NEW_COMPS > 0

   5374  6 003320   000005 235000 4                  LDA     NUM_NEW_COMPS
         6 003321   003514 600000 6                  TZE     BYPASS_CHECK

     1184     5375    1           THEN                            /* UPDATE THRESH AND MAINT RECORDS    */
     1185     5376    2           DO;

     1186     5377    2              CALL THG$GETREC(%DEVHIST,ONE); /* THRESH RECORD                    */

   5377  6 003322   000011 630400 7                  EPPR0   9
         6 003323   000020 631400 xsym               EPPR1   B_VECTNIL+16
         6 003324   000000 701000 xent               TSX1    THG$GETREC
PL6.E3A0      #003=THE$PROCESS File=THE$ELAN.:E05TSI                             WED 07/30/97 06:09 Page:204
         6 003325   000000 011000                    NOP     0

     1187     5378    2              TH_THRESH = TH_RECORD.PTR$->TH$THRESH;

   5378  6 003326   000001 470400 xsym               LDP0    TH_RECORD+1
         6 003327   000100 100500                    MLR     fill='000'O
         6 003330   000000 006220                    ADSC9   0,,PR0                   cn=0,n=3216
         6 003331   201534 006220                    ADSC9   TH_THRESH,,AUTO          cn=0,n=3216

     1188     5379    2              CALL THG$GETREC(%DEVHIST,TWO); /* MAINT RECORD                     */

   5379  6 003332   000013 630400 7                  EPPR0   11
         6 003333   000020 631400 xsym               EPPR1   B_VECTNIL+16
         6 003334   000000 701000 xent               TSX1    THG$GETREC
         6 003335   000000 011000                    NOP     0

     1189     5380    2              TH_MAINT = TH_RECORD.PTR$->TH$MAINT;

   5380  6 003336   000001 470400 xsym               LDP0    TH_RECORD+1
         6 003337   000100 100500                    MLR     fill='000'O
         6 003340   000000 004554                    ADSC9   0,,PR0                   cn=0,n=2412
         6 003341   204644 004554                    ADSC9   TH_MAINT,,AUTO           cn=0,n=2412

     1190     5381    2              J = 0;

   5381  6 003342   200017 450100                    STZ     J,,AUTO

     1191     5382    3              DO I = 0 TO LAST_INDX;

   5382  6 003343   200016 450100                    STZ     I,,AUTO
         6 003344   003431 710000 6                  TRA     s:5398+1

     1192     5383    3                 IF (J <= OLD_INDX) AND (TH_MAINT.DEVNAME(J) = TH_HEAD.DEVNAME(I))

   5383  6 003345   200006 236100                    LDQ     OLD_INDX,,AUTO
         6 003346   003351 604000 6                  TMI     s:5383+4
         6 003347   200017 116100                    CMPQ    J,,AUTO
PL6.E3A0      #003=THE$PROCESS File=THE$ELAN.:E05TSI                             WED 07/30/97 06:09 Page:205
         6 003350   003401 604000 6                  TMI     s:5392
         6 003351   200017 236100                    LDQ     J,,AUTO
         6 003352   000014 402007                    MPY     12,DL
         6 003353   200016 235100                    LDA     I,,AUTO
         6 003354   000003 735000                    ALS     3
         6 003355   040105 106506                    CMPC    fill='040'O
         6 003356   204644 000010                    ADSC9   TH_MAINT,Q,AUTO          cn=0,n=8
         6 003357   200712 000010                    ADSC9   TH_HEAD+16,A,AUTO        cn=0,n=8
         6 003360   003401 601000 6                  TNZ     s:5392

     1193     5384    3                    THEN                   /* OLD COMPONENT                      */
     1194     5385    4                    DO;

     1195     5386    4                       TEMP_MAINT(I) = TH_MAINT(J);

   5386  6 003361   210124 756100                    STQ     TH_UTS+3,,AUTO
         6 003362   200016 236100                    LDQ     I,,AUTO
         6 003363   000014 402007                    MPY     12,DL
         6 003364   210124 235100                    LDA     TH_UTS+3,,AUTO
         6 003365   000106 100505                    MLR     fill='000'O
         6 003366   204644 000014                    ADSC9   TH_MAINT,A,AUTO          cn=0,n=12
         6 003367   205777 000014                    ADSC9   TEMP_MAINT,Q,AUTO        cn=0,n=12

     1196     5387    4                       TEMP_THRESH(I) = TH_THRESH(J);

   5387  6 003370   200017 235100                    LDA     J,,AUTO
         6 003371   000004 735000                    ALS     4
         6 003372   200016 236100                    LDQ     I,,AUTO
         6 003373   000004 736000                    QLS     4
         6 003374   000106 100505                    MLR     fill='000'O
         6 003375   201534 000020                    ADSC9   TH_THRESH,A,AUTO         cn=0,n=16
         6 003376   203200 000020                    ADSC9   TEMP_THRESH,Q,AUTO       cn=0,n=16

     1197     5388    4                       J = J + 1;

   5388  6 003377   200017 054100                    AOS     J,,AUTO

PL6.E3A0      #003=THE$PROCESS File=THE$ELAN.:E05TSI                             WED 07/30/97 06:09 Page:206
     1198     5389    4                    END;

   5389  6 003400   003430 710000 6                  TRA     s:5398

     1199     5390    3                    ELSE                   /* NEW COMPONENT                      */
     1200     5391    4                    DO;

     1201     5392    4                       TEMP_MAINT.DEVNAME(I) = TH_HEAD.DEVNAME(I);

   5392  6 003401   200016 236100                    LDQ     I,,AUTO
         6 003402   000003 402007                    MPY     3,DL
         6 003403   000000 620006                    EAX0    0,QL
         6 003404   000000 621006                    EAX1    0,QL
         6 003405   200016 235100                    LDA     I,,AUTO
         6 003406   000001 735000                    ALS     1
         6 003407   200712 237105                    LDAQ    TH_HEAD+16,AL,AUTO
         6 003410   205777 755110                    STA     TEMP_MAINT,X0,AUTO
         6 003411   206000 756111                    STQ     TEMP_MAINT+1,X1,AUTO

     1202     5393    4                       TEMP_MAINT.UTS(I) = 0;

   5393  6 003412   206001 450110                    STZ     TEMP_MAINT+2,X0,AUTO

     1203     5394    4                       TEMP_THRESH.DEVNAME(I) = TH_HEAD.DEVNAME(I);

   5394  6 003413   200016 235100                    LDA     I,,AUTO
         6 003414   000002 735000                    ALS     2
         6 003415   200016 236100                    LDQ     I,,AUTO
         6 003416   000001 736000                    QLS     1
         6 003417   000000 622005                    EAX2    0,AL
         6 003420   200712 237106                    LDAQ    TH_HEAD+16,QL,AUTO
         6 003421   203200 757112                    STAQ    TEMP_THRESH,X2,AUTO

     1204     5395    4                       TEMP_THRESH.ATTEN(I) = 9900;

   5395  6 003422   200016 235100                    LDA     I,,AUTO
         6 003423   000002 735000                    ALS     2
PL6.E3A0      #003=THE$PROCESS File=THE$ELAN.:E05TSI                             WED 07/30/97 06:09 Page:207
         6 003424   023254 236007                    LDQ     9900,DL
         6 003425   203202 756105                    STQ     TEMP_THRESH+2,AL,AUTO

     1205     5396    4                       TEMP_THRESH.ALERT(I) = 9500;

   5396  6 003426   022434 236007                    LDQ     9500,DL
         6 003427   203203 756105                    STQ     TEMP_THRESH+3,AL,AUTO

     1206     5397    4                    END;                   /* IF                                 */

     1207     5398    3              END;                         /* DO I = 0 TO LAST_INDX              */

   5398  6 003430   200016 054100                    AOS     I,,AUTO
         6 003431   200005 236100                    LDQ     LAST_INDX,,AUTO
         6 003432   003345 604000 6                  TMI     s:5383
         6 003433   200016 116100                    CMPQ    I,,AUTO
         6 003434   003345 605000 6                  TPL     s:5383

     1208     5399    2              IF DCBADDR(DCBNUM(M$DEVHIST))->F$DCB.FCD

   5399  6 003435   000000 236007 xsym               LDQ     M$DEVHIST,DL
         6 003436   000000 470400 7                  LDP0    0
         6 003437   000000 471500                    LDP1    0,,PR0
         6 003440   100000 473506                    LDP3    0,QL,PR1
         6 003441   300031 236100                    LDQ     25,,PR3
         6 003442   020000 316007                    CANQ    8192,DL
         6 003443   003447 600000 6                  TZE     s:5401

     1209     5400    2                 THEN CALL M$CLOSE(CLOSE_DEVHIST);

   5400  6 003444   000110 630400 5                  EPPR0   CLOSE_DEVHIST
         6 003445   050001 713400                    CLIMB   close
         6 003446   406000 401760                    pmme    nvectors=13

     1210     5401    2              CALL M$OPEN(OPEN_DEVHIST);

   5401  6 003447   000016 630400 5                  EPPR0   OPEN_DEVHIST
PL6.E3A0      #003=THE$PROCESS File=THE$ELAN.:E05TSI                             WED 07/30/97 06:09 Page:208
         6 003450   050000 713400                    CLIMB   open
         6 003451   410400 401760                    pmme    nvectors=18

     1211     5402    2              WRITE_DEVHIST.BUF_ = VECTOR(TEMP_MAINT);

   5402  6 003452   000015 235000 7                  LDA     13
         6 003453   210124 452500                    STP2    TH_UTS+3,,AUTO
         6 003454   210124 236100                    LDQ     TH_UTS+3,,AUTO
         6 003455   005777 036003                    ADLQ    3071,DU
         6 003456   002042 757000 4                  STAQ    WRITE_DEVHIST+4

     1212     5403    2              WRITE_DEVHIST.KEY_ = VECTOR(MAINT_KEY);

   5403  6 003457   000016 237000 7                  LDAQ    14
         6 003460   002040 757000 4                  STAQ    WRITE_DEVHIST+2

     1213     5404    2              WRITE_DEVHIST.BUF_.BOUND = SIZEV(TH_MAINT) - ((200 - LAST_INDX) * 12);

   5404  6 003461   200005 236100                    LDQ     LAST_INDX,,AUTO
         6 003462   000014 402007                    MPY     12,DL
         6 003463   000013 036007                    ADLQ    11,DL
         6 003464   000020 736000                    QLS     16
         6 003465   002042 676000 4                  ERQ     WRITE_DEVHIST+4
         6 003466   000034 376000 xsym               ANQ     B_VECTNIL+28
         6 003467   002042 656000 4                  ERSQ    WRITE_DEVHIST+4

     1214     5405    2              CALL M$WRITE(WRITE_DEVHIST);

   5405  6 003470   002036 630400 4                  EPPR0   WRITE_DEVHIST
         6 003471   040001 713400                    CLIMB   write
         6 003472   401400 401760                    pmme    nvectors=4

     1215     5406
     1216     5407    2              WRITE_DEVHIST.KEY_ = VECTOR(THRESH_KEY);

   5407  6 003473   000020 237000 7                  LDAQ    16
         6 003474   002040 757000 4                  STAQ    WRITE_DEVHIST+2
PL6.E3A0      #003=THE$PROCESS File=THE$ELAN.:E05TSI                             WED 07/30/97 06:09 Page:209

     1217     5408    2              WRITE_DEVHIST.BUF_ = VECTOR(TEMP_THRESH);

   5408  6 003475   000022 235000 7                  LDA     18
         6 003476   210124 452500                    STP2    TH_UTS+3,,AUTO
         6 003477   210124 236100                    LDQ     TH_UTS+3,,AUTO
         6 003500   003200 036003                    ADLQ    1664,DU
         6 003501   002042 757000 4                  STAQ    WRITE_DEVHIST+4

     1218     5409    2              WRITE_DEVHIST.BUF_.BOUND = SIZEV(TH_THRESH) - ((200 - LAST_INDX) * 12);

   5409  6 003502   200005 236100                    LDQ     LAST_INDX,,AUTO
         6 003503   000014 402007                    MPY     12,DL
         6 003504   001457 036007                    ADLQ    815,DL
         6 003505   000020 736000                    QLS     16
         6 003506   002042 676000 4                  ERQ     WRITE_DEVHIST+4
         6 003507   000034 376000 xsym               ANQ     B_VECTNIL+28
         6 003510   002042 656000 4                  ERSQ    WRITE_DEVHIST+4

     1219     5410    2              CALL M$WRITE(WRITE_DEVHIST);

   5410  6 003511   002036 630400 4                  EPPR0   WRITE_DEVHIST
         6 003512   040001 713400                    CLIMB   write
         6 003513   401400 401760                    pmme    nvectors=4

     1220     5411    2        END;                               /* IF NUM_NEW_COMPS > 0               */

     1221     5412
     1222     5413    1   BYPASS_CHECK:
     1223     5414                            /* READ ERRLOG RECORDS AND STUFF ERROR INFO INTO RECORDS  */
     1224     5415    1        TH_CONSTRAINTS = TH_DEFAULT;

   5415  6 003514   000000 100400       BYPASS_CHECK MLR     fill='000'O
         6 003515   000000 000333 xsym               ADSC9   TH_DEFAULT               cn=0,n=219
         6 003516   000000 000333 xsym               ADSC9   TH_CONSTRAINTS           cn=0,n=219

     1225     5416
PL6.E3A0      #003=THE$PROCESS File=THE$ELAN.:E05TSI                             WED 07/30/97 06:09 Page:210
     1226     5417                                                /* SET TIME CONSTRAINTS               */
     1227     5418    1        CALL THG$GETREC(%DEVHIST,THREE);   /* UTS RECORD                         */

   5418  6 003517   000003 630400 7                  EPPR0   3
         6 003520   000020 631400 xsym               EPPR1   B_VECTNIL+16
         6 003521   000000 701000 xent               TSX1    THG$GETREC
         6 003522   000000 011000                    NOP     0

     1228     5419    1        TH_UTS = TH_RECORD.PTR$ -> TH$UTS;

   5419  6 003523   000001 470400 xsym               LDP0    TH_RECORD+1
         6 003524   000100 100500                    MLR     fill='000'O
         6 003525   000000 000010                    ADSC9   0,,PR0                   cn=0,n=8
         6 003526   210121 000010                    ADSC9   TH_UTS,,AUTO             cn=0,n=8

     1229     5420    1        DEVHIST_UTS = TH_UTS.ERRLOG_UTS;   /* UTS WHEN ERRLOG WAS LAST */

   5420  6 003527   210122 235100                    LDA     TH_UTS+1,,AUTO
         6 003530   000012 755000 4                  STA     DEVHIST_UTS

     1230     5421                                              /* PROCESSED AGAINST :DEVHIST */
     1231     5422    1        CALL M$TIME(CUR_UTS);

   5422  6 003531   000432 630400 5                  EPPR0   CUR_UTS
         6 003532   020004 713400                    CLIMB   8196
         6 003533   402000 401760                    pmme    nvectors=5

     1232     5423    1        CALL XUD$UTS_DIFF_SEC (LAST_UTS, CURUTS, 0);

   5423  6 003534   000023 630400 7                  EPPR0   19
         6 003535   000021 631400 xsym               EPPR1   B_VECTNIL+17
         6 003536   000000 701000 xent               TSX1    XUD$UTS_DIFF_SEC
         6 003537   000000 011000                    NOP     0

     1233     5424    1        LAST_UTS = LAST_UTS / 86400;

   5424  6 003540   000011 236000 4                  LDQ     LAST_UTS
PL6.E3A0      #003=THE$PROCESS File=THE$ELAN.:E05TSI                             WED 07/30/97 06:09 Page:211
         6 003541   000001 772000                    QRL     1
         6 003542   124300 506007                    DIV     43200,DL
         6 003543   000011 756000 4                  STQ     LAST_UTS

     1234     5425    1        CALL XUD$UTS_ADJ_25TH (LAST_UTS, 0, LAST_UTS*%UTS_25TH_DAY#);

   5425  6 003544   000026 402000 7                  MPY     22
         6 003545   210124 756100                    STQ     TH_UTS+3,,AUTO
         6 003546   210124 630500                    EPPR0   TH_UTS+3,,AUTO
         6 003547   210127 450500                    STP0    TH_UTS+6,,AUTO
         6 003550   000025 236000 7                  LDQ     21
         6 003551   210126 756100                    STQ     TH_UTS+5,,AUTO
         6 003552   000023 236000 7                  LDQ     19
         6 003553   210125 756100                    STQ     TH_UTS+4,,AUTO
         6 003554   210125 630500                    EPPR0   TH_UTS+4,,AUTO
         6 003555   000021 631400 xsym               EPPR1   B_VECTNIL+17
         6 003556   000000 701000 xent               TSX1    XUD$UTS_ADJ_25TH
         6 003557   000000 011000                    NOP     0

     1235     5426    2        IF DEVHIST_UTS = 0 THEN DO;

   5426  6 003560   000012 235000 4                  LDA     DEVHIST_UTS
         6 003561   003611 601000 6                  TNZ     s:5433

     1236     5427    2        CALL XUD$UTS_DIFF_SEC (FIRST_UTS, CURUTS, 0);

   5427  6 003562   000027 630400 7                  EPPR0   23
         6 003563   000021 631400 xsym               EPPR1   B_VECTNIL+17
         6 003564   000000 701000 xent               TSX1    XUD$UTS_DIFF_SEC
         6 003565   000000 011000                    NOP     0

     1237     5428    2        FIRST_UTS = FIRST_UTS / 86400;

   5428  6 003566   000010 236000 4                  LDQ     FIRST_UTS
         6 003567   000001 772000                    QRL     1
         6 003570   124300 506007                    DIV     43200,DL
         6 003571   000010 756000 4                  STQ     FIRST_UTS
PL6.E3A0      #003=THE$PROCESS File=THE$ELAN.:E05TSI                             WED 07/30/97 06:09 Page:212

     1238     5429    2        CALL XUD$UTS_ADJ_25TH (FIRST_UTS, 0, FIRST_UTS*%UTS_25TH_DAY#);

   5429  6 003572   000026 402000 7                  MPY     22
         6 003573   210124 756100                    STQ     TH_UTS+3,,AUTO
         6 003574   210124 630500                    EPPR0   TH_UTS+3,,AUTO
         6 003575   210127 450500                    STP0    TH_UTS+6,,AUTO
         6 003576   000025 236000 7                  LDQ     21
         6 003577   210126 756100                    STQ     TH_UTS+5,,AUTO
         6 003600   000027 236000 7                  LDQ     23
         6 003601   210125 756100                    STQ     TH_UTS+4,,AUTO
         6 003602   210125 630500                    EPPR0   TH_UTS+4,,AUTO
         6 003603   000021 631400 xsym               EPPR1   B_VECTNIL+17
         6 003604   000000 701000 xent               TSX1    XUD$UTS_ADJ_25TH
         6 003605   000000 011000                    NOP     0

     1239     5430    2           DEVHIST_UTS = FIRST_UTS;

   5430  6 003606   000010 235000 4                  LDA     FIRST_UTS
         6 003607   000012 755000 4                  STA     DEVHIST_UTS

     1240     5431    2           END;  /* IF DEVHIST_UTS = 0 */

   5431  6 003610   003647 710000 6                  TRA     s:5443

     1241     5432    2        ELSE DO;

     1242     5433    2        CALL XUD$UTS_DIFF_SEC (FIRST_UTS, DEVHIST_UTS, 0);

   5433  6 003611   000032 630400 7                  EPPR0   26
         6 003612   000021 631400 xsym               EPPR1   B_VECTNIL+17
         6 003613   000000 701000 xent               TSX1    XUD$UTS_DIFF_SEC
         6 003614   000000 011000                    NOP     0

     1243     5434    2        FIRST_UTS = FIRST_UTS / 86400;

   5434  6 003615   000010 236000 4                  LDQ     FIRST_UTS
PL6.E3A0      #003=THE$PROCESS File=THE$ELAN.:E05TSI                             WED 07/30/97 06:09 Page:213
         6 003616   000001 772000                    QRL     1
         6 003617   124300 506007                    DIV     43200,DL
         6 003620   000010 756000 4                  STQ     FIRST_UTS

     1244     5435    2        CALL XUD$UTS_ADJ_25TH (FIRST_UTS, 0, FIRST_UTS*%UTS_25TH_DAY#);

   5435  6 003621   000026 402000 7                  MPY     22
         6 003622   210124 756100                    STQ     TH_UTS+3,,AUTO
         6 003623   210124 630500                    EPPR0   TH_UTS+3,,AUTO
         6 003624   210127 450500                    STP0    TH_UTS+6,,AUTO
         6 003625   000025 236000 7                  LDQ     21
         6 003626   210126 756100                    STQ     TH_UTS+5,,AUTO
         6 003627   000027 236000 7                  LDQ     23
         6 003630   210125 756100                    STQ     TH_UTS+4,,AUTO
         6 003631   210125 630500                    EPPR0   TH_UTS+4,,AUTO
         6 003632   000021 631400 xsym               EPPR1   B_VECTNIL+17
         6 003633   000000 701000 xent               TSX1    XUD$UTS_ADJ_25TH
         6 003634   000000 011000                    NOP     0

     1245     5436    2           CALL XUD$UTS_ADJ_25TH(OLDEST_UTS, LAST_UTS, -(30*%UTS_25TH_DAY#));

   5436  6 003635   000036 630400 7                  EPPR0   30
         6 003636   000021 631400 xsym               EPPR1   B_VECTNIL+17
         6 003637   000000 701000 xent               TSX1    XUD$UTS_ADJ_25TH
         6 003640   000000 011000                    NOP     0

     1246     5437    2           IF OLDEST_UTS > FIRST_UTS

   5437  6 003641   000010 236000 4                  LDQ     FIRST_UTS
         6 003642   000013 116000 4                  CMPQ    OLDEST_UTS
         6 003643   003647 603000 6                  TRC     s:5443

     1247     5438    3              THEN DO;       /* ONLY MERGE 30 DAYS WORTH OF ERROR LOG */

     1248     5439    3                FIRST_UTS = OLDEST_UTS;         /* INFO INTO :DEVHIST*/

   5439  6 003644   000013 235000 4                  LDA     OLDEST_UTS
PL6.E3A0      #003=THE$PROCESS File=THE$ELAN.:E05TSI                             WED 07/30/97 06:09 Page:214
         6 003645   000010 755000 4                  STA     FIRST_UTS

     1249     5440    3                DEVHIST_UTS = OLDEST_UTS;

   5440  6 003646   000012 755000 4                  STA     DEVHIST_UTS

     1250     5441    3              END;

     1251     5442    2           END;  /* ELSE */

     1252     5443    1        IF DCBADDR(DCBNUM(M$DEVHIST))->F$DCB.FCD

   5443  6 003647   000000 236007 xsym               LDQ     M$DEVHIST,DL
         6 003650   000000 470400 7                  LDP0    0
         6 003651   000000 471500                    LDP1    0,,PR0
         6 003652   100000 473506                    LDP3    0,QL,PR1
         6 003653   300031 236100                    LDQ     25,,PR3
         6 003654   020000 316007                    CANQ    8192,DL
         6 003655   003661 600000 6                  TZE     s:5445

     1253     5444    1           THEN CALL M$CLOSE(CLOSE_DEVHIST);

   5444  6 003656   000110 630400 5                  EPPR0   CLOSE_DEVHIST
         6 003657   050001 713400                    CLIMB   close
         6 003660   406000 401760                    pmme    nvectors=13

     1254     5445    1        CALL M$OPEN(OPEN_DEVHIST) ALTRET(ALT);

   5445  6 003661   000016 630400 5                  EPPR0   OPEN_DEVHIST
         6 003662   450000 713400                    CLIMB   alt,open
         6 003663   410400 401760                    pmme    nvectors=18
         6 003664   004671 702000 6                  TSX2    ALT

     1255     5446
     1256     5447    1        UTS = FIRST_UTS;

   5447  6 003665   000010 235000 4                  LDA     FIRST_UTS
PL6.E3A0      #003=THE$PROCESS File=THE$ELAN.:E05TSI                             WED 07/30/97 06:09 Page:215
         6 003666   000006 755000 4                  STA     UTS

     1257     5448    2        DO WHILE (UTS <= LAST_UTS);

   5448  6 003667   000011 236000 4                  LDQ     LAST_UTS
         6 003670   000006 116000 4                  CMPQ    UTS
         6 003671   004464 602000 6                  TNC     s:5578

     1258     5449    2           IF UTS = FIRST_UTS

   5449  6 003672   000006 236000 4                  LDQ     UTS
         6 003673   000010 116000 4                  CMPQ    FIRST_UTS
         6 003674   003700 601000 6                  TNZ     s:5451

     1259     5450    2              THEN TH_CONSTRAINTS.START = DEVHIST_UTS;

   5450  6 003675   000012 235000 4                  LDA     DEVHIST_UTS
         6 003676   000012 755000 xsym               STA     TH_CONSTRAINTS+10
         6 003677   003701 710000 6                  TRA     s:5452

     1260     5451    2              ELSE TH_CONSTRAINTS.START = UTS;

   5451  6 003700   000012 756000 xsym               STQ     TH_CONSTRAINTS+10

     1261     5452    2           IF UTS = LAST_UTS

   5452  6 003701   000011 116000 4                  CMPQ    LAST_UTS
         6 003702   003706 601000 6                  TNZ     s:5454

     1262     5453    2              THEN TH_CONSTRAINTS.STOP = CURUTS;

   5453  6 003703   000007 235000 4                  LDA     CURUTS
         6 003704   000013 755000 xsym               STA     TH_CONSTRAINTS+11
         6 003705   003712 710000 6                  TRA     s:5457

     1263     5454    2             ELSE CALL XUD$UTS_ADJ_25TH (TH_CONSTRAINTS.STOP, UTS, %UTS_25TH_DAY# -1);

PL6.E3A0      #003=THE$PROCESS File=THE$ELAN.:E05TSI                             WED 07/30/97 06:09 Page:216
   5454  6 003706   000042 630400 7                  EPPR0   34
         6 003707   000021 631400 xsym               EPPR1   B_VECTNIL+17
         6 003710   000000 701000 xent               TSX1    XUD$UTS_ADJ_25TH
         6 003711   000000 011000                    NOP     0

     1264     5455
     1265     5456                                 /* INITIALIZE MPC, FEP, IOM, DEV, AND CHAN TABLES    */
     1266     5457    2           CALL THE$INIT(TD_HEAD) ALTRET(NO_MEM);

   5457  6 003712   200030 630500                    EPPR0   TD_HEAD,,AUTO
         6 003713   210124 450500                    STP0    TH_UTS+3,,AUTO
         6 003714   210124 630500                    EPPR0   TH_UTS+3,,AUTO
         6 003715   000017 631400 xsym               EPPR1   B_VECTNIL+15
         6 003716   000000 701000 xent               TSX1    THE$INIT
         6 003717   004657 702000 6                  TSX2    NO_MEM

     1267     5458    2           CALL THG$OPENXSA(TH_CONSTRAINTS.START) ALTRET(KEEP_GOING);

   5458  6 003720   000045 630400 7                  EPPR0   37
         6 003721   000017 631400 xsym               EPPR1   B_VECTNIL+15
         6 003722   000000 701000 xent               TSX1    THG$OPENXSA
         6 003723   004200 702000 6                  TSX2    KEEP_GOING

     1268     5459    2           EOF_FLG = %FALSE;

   5459  6 003724   200003 450100                    STZ     EOF_FLG,,AUTO

     1269     5460    3           DO WHILE(NOT EOF_FLG);

   5460  6 003725   004176 710000 6                  TRA     s:5522

     1270     5461    3     LOOP:
     1271     5462    3              CALL THG$GETREC(%ERRLOG) ALTRET(EOF_LBL);

   5462  6 003726   000046 630400 7     LOOP         EPPR0   38
         6 003727   000017 631400 xsym               EPPR1   B_VECTNIL+15
         6 003730   000000 701000 xent               TSX1    THG$GETREC
PL6.E3A0      #003=THE$PROCESS File=THE$ELAN.:E05TSI                             WED 07/30/97 06:09 Page:217
         6 003731   004174 702000 6                  TSX2    EOF_LBL

     1272     5463    4              DO CASE(TH_ITYPE);

   5463  6 003732   000000 235000 xsym               LDA     TH_ITYPE
         6 003733   000022 135007                    SBLA    18,DL
         6 003734   000001 115007                    CMPA    1,DL
         6 003735   003737 602005 6                  TNC     s:5463+5,AL
         6 003736   004173 710000 6                  TRA     s:5519
         6 003737   003740 710000 6                  TRA     s:5465

     1273     5464    4                 CASE(%TH_IOERR);

     1274     5465    4                    IF LAST_REQID = EL$IOERR.REQID THEN GOTO LOOP;

   5465  6 003740   000001 470400 xsym               LDP0    TH_INFO+1
         6 003741   000000 236000 4                  LDQ     LAST_REQID
         6 003742   000000 116100                    CMPQ    0,,PR0
         6 003743   003726 600000 6                  TZE     LOOP

     1275     5466    4                    IOM# = EL$IOERR.IOCHAN.IOM;

   5466  6 003744   000005 236100                    LDQ     5,,PR0
         6 003745   000033 772000                    QRL     27
         6 003746   000007 376007                    ANQ     7,DL
         6 003747   000041 736000                    QLS     33
         6 003750   200014 756100                    STQ     IOM#,,AUTO

     1276     5467    4                    IF IOM# + 1 > NUM_IOMS THEN GOTO LOOP;

   5467  6 003751   200014 236100                    LDQ     IOM#,,AUTO
         6 003752   000041 772000                    QRL     33
         6 003753   000001 116000 4                  CMPQ    NUM_IOMS
         6 003754   003726 603000 6                  TRC     LOOP

     1277     5468    4                    CHAN# = EL$IOERR.IOCHAN.CHAN;

PL6.E3A0      #003=THE$PROCESS File=THE$ELAN.:E05TSI                             WED 07/30/97 06:09 Page:218
   5468  6 003755   000005 236100                    LDQ     5,,PR0
         6 003756   000022 772000                    QRL     18
         6 003757   000777 376007                    ANQ     511,DL
         6 003760   000033 736000                    QLS     27
         6 003761   200015 756100                    STQ     CHAN#,,AUTO

     1278     5469    4                    IF EL$IOERR.THRESH.IOM

   5469  6 003762   000027 236100                    LDQ     23,,PR0
         6 003763   400000 316007                    CANQ    -131072,DL
         6 003764   004003 600000 6                  TZE     s:5476

     1279     5470    4                       THEN
     1280     5471    5                       DO;

     1281     5472    5                          IOM$ = IOM_TBL.PTR$(IOM#);

   5472  6 003765   200014 236100                    LDQ     IOM#,,AUTO
         6 003766   000041 772000                    QRL     33
         6 003767   000003 402007                    MPY     3,DL
         6 003770   000000 471400 xsym               LDP1    IOM_TBL$
         6 003771   100002 236106                    LDQ     2,QL,PR1
         6 003772   200007 756100                    STQ     IOM$,,AUTO

     1282     5473    5                          IOM.COUNT = IOM.COUNT + 1;

   5473  6 003773   200007 473500                    LDP3    IOM$,,AUTO
         6 003774   300413 235100                    LDA     267,,PR3
         6 003775   000001 035007                    ADLA    1,DL
         6 003776   300413 755100                    STA     267,,PR3

     1283     5474    5                          IOM.CONNECTS = IOM.CONNECTS + EL$IOERR.CONNECTS.IOM;

   5474  6 003777   000006 236100                    LDQ     6,,PR0
         6 004000   000022 772000                    QRL     18
         6 004001   300412 036100                    ADLQ    266,,PR3
         6 004002   300412 756100                    STQ     266,,PR3
PL6.E3A0      #003=THE$PROCESS File=THE$ELAN.:E05TSI                             WED 07/30/97 06:09 Page:219

     1284     5475    5                       END;

     1285     5476    4                    IF EL$IOERR.THRESH.MPC

   5476  6 004003   000027 236100                    LDQ     23,,PR0
         6 004004   100000 316007                    CANQ    32768,DL
         6 004005   004075 600000 6                  TZE     s:5496

     1286     5477    4                       THEN
     1287     5478    5                       DO;

     1288     5479    5                          MPC_NAME = IOM_TBL.PTR$(IOM#)->IOM.DEVNAME(CHAN#);

   5479  6 004006   200014 236100                    LDQ     IOM#,,AUTO
         6 004007   000041 772000                    QRL     33
         6 004010   000003 402007                    MPY     3,DL
         6 004011   000000 471400 xsym               LDP1    IOM_TBL$
         6 004012   100002 473506                    LDP3    2,QL,PR1
         6 004013   200015 236100                    LDQ     CHAN#,,AUTO
         6 004014   000032 772000                    QRL     26
         6 004015   001776 376007                    ANQ     1022,DL
         6 004016   000002 736000                    QLS     2
         6 004017   040100 100506                    MLR     fill='040'O
         6 004020   300000 000010                    ADSC9   0,Q,PR3                  cn=0,n=8
         6 004021   200024 000010                    ADSC9   MPC_NAME,,AUTO           cn=0,n=8

     1289     5480    6                          DO I = 0 TO NUM_MPCS - 1;

   5480  6 004022   200016 450100                    STZ     I,,AUTO
         6 004023   004071 710000 6                  TRA     s:5494+1

     1290     5481    6                             IF MPC_TBL.DEVNAME(I) = MPC_NAME

   5481  6 004024   200016 236100                    LDQ     I,,AUTO
         6 004025   000014 402007                    MPY     12,DL
         6 004026   000000 470400 xsym               LDP0    MPC_TBL$
PL6.E3A0      #003=THE$PROCESS File=THE$ELAN.:E05TSI                             WED 07/30/97 06:09 Page:220
         6 004027   040100 106506                    CMPC    fill='040'O
         6 004030   000000 000010                    ADSC9   0,Q,PR0                  cn=0,n=8
         6 004031   200024 000010                    ADSC9   MPC_NAME,,AUTO           cn=0,n=8
         6 004032   004070 601000 6                  TNZ     s:5494

     1291     5482    6                                THEN
     1292     5483    7                                DO;

     1293     5484    7                                   MPC$ = MPC_TBL.PTR$(I);

   5484  6 004033   200016 236100                    LDQ     I,,AUTO
         6 004034   000003 402007                    MPY     3,DL
         6 004035   000002 236106                    LDQ     2,QL,PR0
         6 004036   200010 756100                    STQ     MPC$,,AUTO

     1294     5485    8                                   DO DCTX = 1 TO TH_MAXDCTX;

   5485  6 004037   000001 235007                    LDA     1,DL
         6 004040   200022 755100                    STA     DCTX,,AUTO
         6 004041   004065 710000 6                  TRA     s:5492+3

     1295     5486    8                                      DCT$ = TH_DCT$(DCTX);

   5486  6 004042   200022 720100                    LXL0    DCTX,,AUTO
         6 004043   000000 236010 xsym               LDQ     TH_DCT$,X0
         6 004044   200023 756100                    STQ     DCT$,,AUTO

     1296     5487    8                                      DCTPTR.SEGID = %SPCL1SID;

   5487  6 004045   006021 236007                    LDQ     3089,DL
         6 004046   200023 752103                    STCQ    DCT$,'03'O,AUTO

     1297     5488    9                                      IF NI$DCT.DEVNM = MPC_NAME THEN DO;

   5488  6 004047   200023 470500                    LDP0    DCT$,,AUTO
         6 004050   040100 106500                    CMPC    fill='040'O
         6 004051   000002 000010                    ADSC9   2,,PR0                   cn=0,n=8
PL6.E3A0      #003=THE$PROCESS File=THE$ELAN.:E05TSI                             WED 07/30/97 06:09 Page:221
         6 004052   200024 000010                    ADSC9   MPC_NAME,,AUTO           cn=0,n=8
         6 004053   004062 601000 6                  TNZ     s:5492

     1298     5489    9                                         MPC.COUNT = MPC.COUNT + 1;

   5489  6 004054   200010 471500                    LDP1    MPC$,,AUTO
         6 004055   100000 235100                    LDA     0,,PR1
         6 004056   000001 035007                    ADLA    1,DL
         6 004057   100000 755100                    STA     0,,PR1

     1299     5490    9                                         MPC.CONNECTS = NI$DCT.PM.CONNCT;

   5490  6 004060   000011 235100                    LDA     9,,PR0
         6 004061   100001 755100                    STA     1,,PR1

     1300     5491    9                                         END;  /* IF */

     1301     5492    8                                      END;  /* DO DCTX */

   5492  6 004062   200022 235100                    LDA     DCTX,,AUTO
         6 004063   000001 035007                    ADLA    1,DL
         6 004064   200022 755100                    STA     DCTX,,AUTO
         6 004065   000000 236000 xsym               LDQ     TH_MAXDCTX
         6 004066   200022 116100                    CMPQ    DCTX,,AUTO
         6 004067   004042 603000 6                  TRC     s:5486

     1302     5493    7                                END;       /* IF                                 */

     1303     5494    6                          END;             /* DO I                               */

   5494  6 004070   200016 054100                    AOS     I,,AUTO
         6 004071   200016 236100                    LDQ     I,,AUTO
         6 004072   004024 604000 6                  TMI     s:5481
         6 004073   000002 116000 4                  CMPQ    NUM_MPCS
         6 004074   004024 602000 6                  TNC     s:5481

     1304     5495    5                       END;                /* IF THRESH.MPC                      */
PL6.E3A0      #003=THE$PROCESS File=THE$ELAN.:E05TSI                             WED 07/30/97 06:09 Page:222

     1305     5496    4                    IF EL$IOERR.THRESH.CHANNEL

   5496  6 004075   000001 470400 xsym               LDP0    TH_INFO+1
         6 004076   000027 236100                    LDQ     23,,PR0
         6 004077   200000 316007                    CANQ    65536,DL
         6 004100   004130 600000 6                  TZE     s:5504

     1306     5497    4                       THEN
     1307     5498    5                       DO;

     1308     5499    5                          CHAN$ = IOM_TBL.PTR$(IOM#)->IOM.CHAN$;

   5499  6 004101   200014 236100                    LDQ     IOM#,,AUTO
         6 004102   000041 772000                    QRL     33
         6 004103   000003 402007                    MPY     3,DL
         6 004104   000000 471400 xsym               LDP1    IOM_TBL$
         6 004105   100002 473506                    LDP3    2,QL,PR1
         6 004106   300411 236100                    LDQ     265,,PR3
         6 004107   200013 756100                    STQ     CHAN$,,AUTO

     1309     5500    5                          CHAN.CHANS.COUNT(CHAN#) = CHAN.CHANS.COUNT(CHAN#) + 1;

   5500  6 004110   200015 236100                    LDQ     CHAN#,,AUTO
         6 004111   000033 772000                    QRL     27
         6 004112   200013 473500                    LDP3    CHAN$,,AUTO
         6 004113   300001 220106                    LDX0    1,QL,PR3
         6 004114   000001 621010                    EAX1    1,X0
         6 004115   300001 741106                    STX1    1,QL,PR3

     1310     5501    5                          CHAN.CHANS.CONNECTS(CHAN#) = CHAN.CHANS.CONNECTS(CHAN#) +

   5501  6 004116   000001 470400 xsym               LDP0    TH_INFO+1
         6 004117   000000 620006                    EAX0    0,QL
         6 004120   000006 236100                    LDQ     6,,PR0
         6 004121   777777 376007                    ANQ     -1,DL
         6 004122   210124 756100                    STQ     TH_UTS+3,,AUTO
PL6.E3A0      #003=THE$PROCESS File=THE$ELAN.:E05TSI                             WED 07/30/97 06:09 Page:223
         6 004123   300001 236110                    LDQ     1,X0,PR3
         6 004124   777777 376007                    ANQ     -1,DL
         6 004125   210124 036100                    ADLQ    TH_UTS+3,,AUTO
         6 004126   000000 621006                    EAX1    0,QL
         6 004127   300001 441110                    SXL1    1,X0,PR3

     1311     5502    5                                EL$IOERR.CONNECTS.CHANNEL;
     1312     5503    5                       END;                /* IF THRESH.CHANNEL                  */

     1313     5504    4                    IF EL$IOERR.THRESH.DEVICE

   5504  6 004130   000001 470400 xsym               LDP0    TH_INFO+1
         6 004131   000027 236100                    LDQ     23,,PR0
         6 004132   040000 316007                    CANQ    16384,DL
         6 004133   004167 600000 6                  TZE     s:5515

     1314     5505    4                       THEN
     1315     5506    5                       DO I = 0 TO NUM_DEVS - 1;

   5506  6 004134   200016 450100                    STZ     I,,AUTO
         6 004135   004163 710000 6                  TRA     s:5514+1

     1316     5507    5                          IF DEV_TBL.DEVNAME(I) = EL$IOERR.DEVNM

   5507  6 004136   200016 236100                    LDQ     I,,AUTO
         6 004137   000014 402007                    MPY     12,DL
         6 004140   000000 470400 xsym               LDP0    DEV_TBL$
         6 004141   000001 471400 xsym               LDP1    TH_INFO+1
         6 004142   040100 106506                    CMPC    fill='040'O
         6 004143   000000 000010                    ADSC9   0,Q,PR0                  cn=0,n=8
         6 004144   100024 000010                    ADSC9   20,,PR1                  cn=0,n=8
         6 004145   004162 601000 6                  TNZ     s:5514

     1317     5508    5                             THEN
     1318     5509    6                             DO;

     1319     5510    6                                DEV$ = DEV_TBL.PTR$(I);
PL6.E3A0      #003=THE$PROCESS File=THE$ELAN.:E05TSI                             WED 07/30/97 06:09 Page:224

   5510  6 004146   200016 236100                    LDQ     I,,AUTO
         6 004147   000003 402007                    MPY     3,DL
         6 004150   000002 236106                    LDQ     2,QL,PR0
         6 004151   200011 756100                    STQ     DEV$,,AUTO

     1320     5511    6                                DEV.COUNT(%TH_IOERR) = DEV.COUNT(%TH_IOERR) + 1;

   5511  6 004152   200011 473500                    LDP3    DEV$,,AUTO
         6 004153   300022 220100                    LDX0    18,,PR3
         6 004154   000001 621010                    EAX1    1,X0
         6 004155   300022 741100                    STX1    18,,PR3

     1321     5512    6                               DEV.CONNECTS = DEV.CONNECTS + EL$IOERR.CONNECTS.DEVICE;

   5512  6 004156   100007 236100                    LDQ     7,,PR1
         6 004157   777777 376007                    ANQ     -1,DL
         6 004160   300026 036100                    ADLQ    22,,PR3
         6 004161   300026 756100                    STQ     22,,PR3

     1322     5513    6                             END;          /* IF                                 */

     1323     5514    5                       END;                /* DO I                               */

   5514  6 004162   200016 054100                    AOS     I,,AUTO
         6 004163   200016 236100                    LDQ     I,,AUTO
         6 004164   004136 604000 6                  TMI     s:5507
         6 004165   000003 116000 4                  CMPQ    NUM_DEVS
         6 004166   004136 602000 6                  TNC     s:5507

     1324     5515    4                   LAST_REQID = EL$IOERR.REQID;

   5515  6 004167   000001 470400 xsym               LDP0    TH_INFO+1
         6 004170   000000 235100                    LDA     0,,PR0
         6 004171   000000 755000 4                  STA     LAST_REQID
         6 004172   004173 710000 6                  TRA     s:5519

PL6.E3A0      #003=THE$PROCESS File=THE$ELAN.:E05TSI                             WED 07/30/97 06:09 Page:225
     1325     5516    4                 CASE(ELSE);

     1326     5517                                                /* UNIMPLIMENTED AS YET               */
     1327     5518    4              END;                         /* DO CASE TH_ITYPE                   */

     1328     5519    4              DO NEVER;

   5519  6 004173   004176 710000 6                  TRA     s:5522

     1329     5520    4      EOF_LBL:   EOF_FLG = %TRUE;

   5520  6 004174   400000 236003       EOF_LBL      LDQ     -131072,DU
         6 004175   200003 756100                    STQ     EOF_FLG,,AUTO

     1330     5521    4              END;                         /* DO NEVER                           */

     1331     5522    3           END;                            /* DO WHILE NOT EOF_FLG               */

   5522  6 004176   200003 234100                    SZN     EOF_FLG,,AUTO
         6 004177   003726 605000 6                  TPL     LOOP

     1332     5523    2   KEEP_GOING:
     1333     5524
     1334     5525                                           /* BUILD KEYS AND WRITE RECORDS TO DEVHIST */
     1335     5526    2           IF NOT DCBADDR(DCBNUM(M$DEVHIST))->F$DCB.FCD

   5526  6 004200   000000 236007 xsym  KEEP_GOING   LDQ     M$DEVHIST,DL
         6 004201   000000 470400 7                  LDP0    0
         6 004202   000000 471500                    LDP1    0,,PR0
         6 004203   100000 473506                    LDP3    0,QL,PR1
         6 004204   300031 236100                    LDQ     25,,PR3
         6 004205   020000 316007                    CANQ    8192,DL
         6 004206   004213 601000 6                  TNZ     s:5530

     1336     5527    2              THEN CALL M$OPEN(OPEN_DEVHIST) ALTRET(ALT);

   5527  6 004207   000016 630400 5                  EPPR0   OPEN_DEVHIST
PL6.E3A0      #003=THE$PROCESS File=THE$ELAN.:E05TSI                             WED 07/30/97 06:09 Page:226
         6 004210   450000 713400                    CLIMB   alt,open
         6 004211   410400 401760                    pmme    nvectors=18
         6 004212   004671 702000 6                  TSX2    ALT

     1337     5528
     1338     5529                                                /* WRITE HEAD RECORD BACK             */
     1339     5530    2           WRITE_DEVHIST.KEY_ = VECTOR(HEAD_KEY);

   5530  6 004213   000050 237000 7                  LDAQ    40
         6 004214   002040 757000 4                  STAQ    WRITE_DEVHIST+2

     1340     5531    2           WRITE_DEVHIST.BUF_ = VECTOR(TH_HEAD);

   5531  6 004215   000052 235000 7                  LDA     42
         6 004216   210124 452500                    STP2    TH_UTS+3,,AUTO
         6 004217   210124 236100                    LDQ     TH_UTS+3,,AUTO
         6 004220   000672 036003                    ADLQ    442,DU
         6 004221   002042 757000 4                  STAQ    WRITE_DEVHIST+4

     1341     5532    2           WRITE_DEVHIST.BUF_.BOUND = SIZEV(TH_HEAD) - ((200 - LAST_INDX) * 8);

   5532  6 004222   200005 236100                    LDQ     LAST_INDX,,AUTO
         6 004223   000003 736000                    QLS     3
         6 004224   000107 036007                    ADLQ    71,DL
         6 004225   000020 736000                    QLS     16
         6 004226   002042 676000 4                  ERQ     WRITE_DEVHIST+4
         6 004227   000034 376000 xsym               ANQ     B_VECTNIL+28
         6 004230   002042 656000 4                  ERSQ    WRITE_DEVHIST+4

     1342     5533    2           CALL M$WRITE(WRITE_DEVHIST);

   5533  6 004231   002036 630400 4                  EPPR0   WRITE_DEVHIST
         6 004232   040001 713400                    CLIMB   write
         6 004233   401400 401760                    pmme    nvectors=4

     1343     5534
     1344     5535    2           KEY8.UTS = UTS;
PL6.E3A0      #003=THE$PROCESS File=THE$ELAN.:E05TSI                             WED 07/30/97 06:09 Page:227

   5535  6 004234   000000 100400                    MLR     fill='000'O
         6 004235   000006 000004 4                  ADSC9   UTS                      cn=0,n=4
         6 004236   000023 200004 4                  ADSC9   KEY8+2                   cn=1,n=4

     1345     5536    2           WRITE_DEVHIST.KEY_ = VECTOR(KEY8);

   5536  6 004237   000054 237000 7                  LDAQ    44
         6 004240   002040 757000 4                  STAQ    WRITE_DEVHIST+2

     1346     5537
     1347     5538                                                /* WRITE IOM AND CHANNEL RECORDS      */
     1348     5539    3           DO I = 0 TO NUM_IOMS - 1;

   5539  6 004241   200016 450100                    STZ     I,,AUTO
         6 004242   004321 710000 6                  TRA     s:5549+1

     1349     5540    3              TH_IOM = IOM_TBL.PTR$(I)->IOM;

   5540  6 004243   200016 236100                    LDQ     I,,AUTO
         6 004244   000003 402007                    MPY     3,DL
         6 004245   000000 470400 xsym               LDP0    IOM_TBL$
         6 004246   000002 471506                    LDP1    2,QL,PR0
         6 004247   000100 100500                    MLR     fill='000'O
         6 004250   100000 002060                    ADSC9   0,,PR1                   cn=0,n=1072
         6 004251   207254 002060                    ADSC9   TH_IOM,,AUTO             cn=0,n=1072

     1350     5541    3              KEY8.TXT = IOM_TBL.DEVNAME(I);

   5541  6 004252   200016 236100                    LDQ     I,,AUTO
         6 004253   000014 402007                    MPY     12,DL
         6 004254   040000 100506                    MLR     fill='040'O
         6 004255   000000 000010                    ADSC9   0,Q,PR0                  cn=0,n=8
         6 004256   000021 200010 4                  ADSC9   KEY8                     cn=1,n=8

     1351     5542    3              WRITE_DEVHIST.BUF_ = VECTOR(TH_IOM);

PL6.E3A0      #003=THE$PROCESS File=THE$ELAN.:E05TSI                             WED 07/30/97 06:09 Page:228
   5542  6 004257   000053 235000 7                  LDA     43
         6 004260   210124 452500                    STP2    TH_UTS+3,,AUTO
         6 004261   210124 236100                    LDQ     TH_UTS+3,,AUTO
         6 004262   007254 036003                    ADLQ    3756,DU
         6 004263   002042 757000 4                  STAQ    WRITE_DEVHIST+4

     1352     5543    3              CALL M$WRITE(WRITE_DEVHIST);

   5543  6 004264   002036 630400 4                  EPPR0   WRITE_DEVHIST
         6 004265   040001 713400                    CLIMB   write
         6 004266   401400 401760                    pmme    nvectors=4

     1353     5544    3              TH_CHAN = IOM_TBL.PTR$(I)->IOM.CHAN$->CHAN;

   5544  6 004267   200016 236100                    LDQ     I,,AUTO
         6 004270   000003 402007                    MPY     3,DL
         6 004271   000000 470400 xsym               LDP0    IOM_TBL$
         6 004272   000002 471506                    LDP1    2,QL,PR0
         6 004273   100411 473500                    LDP3    265,,PR1
         6 004274   000100 100500                    MLR     fill='000'O
         6 004275   300000 001004                    ADSC9   0,,PR3                   cn=0,n=516
         6 004276   207720 001004                    ADSC9   TH_CHAN,,AUTO            cn=0,n=516

     1354     5545    3              CALL BINCHAR(CHN#,I);

   5545  6 004277   000100 301500                    BTD
         6 004300   200016 000004                    NDSC9   I,,AUTO                  cn=0,s=lsgnf,sf=0,n=4
         6 004301   200026 030002                    NDSC9   CHN#,,AUTO               cn=0,s=nosgn,sf=0,n=2

     1355     5546    3              CALL INSERT(KEY8.TXT,0,4,'CH',CHN#);

   5546  6 004302   000446 236000 5                  LDQ     CUR_UTS+12
         6 004303   000011 772000                    QRL     9
         6 004304   000021 552030 4                  STBQ    KEY8,'30'O
         6 004305   040000 100500                    MLR     fill='040'O
         6 004306   200026 000002                    ADSC9   CHN#,,AUTO               cn=0,n=2
         6 004307   000021 600002 4                  ADSC9   KEY8                     cn=3,n=2
PL6.E3A0      #003=THE$PROCESS File=THE$ELAN.:E05TSI                             WED 07/30/97 06:09 Page:229

     1356     5547    3              WRITE_DEVHIST.BUF_ = VECTOR(TH_CHAN);

   5547  6 004310   000056 235000 7                  LDA     46
         6 004311   210124 452500                    STP2    TH_UTS+3,,AUTO
         6 004312   210124 236100                    LDQ     TH_UTS+3,,AUTO
         6 004313   007720 036003                    ADLQ    4048,DU
         6 004314   002042 757000 4                  STAQ    WRITE_DEVHIST+4

     1357     5548    3              CALL M$WRITE(WRITE_DEVHIST);

   5548  6 004315   002036 630400 4                  EPPR0   WRITE_DEVHIST
         6 004316   040001 713400                    CLIMB   write
         6 004317   401400 401760                    pmme    nvectors=4

     1358     5549    3           END;                            /* DO I                               */

   5549  6 004320   200016 054100                    AOS     I,,AUTO
         6 004321   200016 236100                    LDQ     I,,AUTO
         6 004322   004243 604000 6                  TMI     s:5540
         6 004323   000001 116000 4                  CMPQ    NUM_IOMS
         6 004324   004243 602000 6                  TNC     s:5540

     1359     5550
     1360     5551                                                /* WRITE FEP RECORDS                  */
     1361     5552    3           DO I = 0 TO NUM_FEPS - 1;

   5552  6 004325   200016 450100                    STZ     I,,AUTO
         6 004326   004353 710000 6                  TRA     s:5557+1

     1362     5553    3              KEY8.TXT = FEP_TBL.DEVNAME(I);

   5553  6 004327   200016 236100                    LDQ     I,,AUTO
         6 004330   000014 402007                    MPY     12,DL
         6 004331   000000 470400 xsym               LDP0    FEP_TBL$
         6 004332   040000 100506                    MLR     fill='040'O
         6 004333   000000 000010                    ADSC9   0,Q,PR0                  cn=0,n=8
PL6.E3A0      #003=THE$PROCESS File=THE$ELAN.:E05TSI                             WED 07/30/97 06:09 Page:230
         6 004334   000021 200010 4                  ADSC9   KEY8                     cn=1,n=8

     1363     5554    3              TH_FEP = FEP_TBL.PTR$(I)->FEP;

   5554  6 004335   200016 236100                    LDQ     I,,AUTO
         6 004336   000003 402007                    MPY     3,DL
         6 004337   000002 471506                    LDP1    2,QL,PR0
         6 004340   100000 236100                    LDQ     0,,PR1
         6 004341   207670 756100                    STQ     TH_FEP,,AUTO

     1364     5555    3              WRITE_DEVHIST.BUF_ = VECTOR(TH_FEP);

   5555  6 004342   777640 235007                    LDA     -96,DL
         6 004343   210124 452500                    STP2    TH_UTS+3,,AUTO
         6 004344   210124 236100                    LDQ     TH_UTS+3,,AUTO
         6 004345   007670 036003                    ADLQ    4024,DU
         6 004346   002042 757000 4                  STAQ    WRITE_DEVHIST+4

     1365     5556    3              CALL M$WRITE(WRITE_DEVHIST);

   5556  6 004347   002036 630400 4                  EPPR0   WRITE_DEVHIST
         6 004350   040001 713400                    CLIMB   write
         6 004351   401400 401760                    pmme    nvectors=4

     1366     5557    3           END;                            /* DO I                               */

   5557  6 004352   200016 054100                    AOS     I,,AUTO
         6 004353   200016 236100                    LDQ     I,,AUTO
         6 004354   004327 604000 6                  TMI     s:5553
         6 004355   000004 116000 4                  CMPQ    NUM_FEPS
         6 004356   004327 602000 6                  TNC     s:5553

     1367     5558
     1368     5559                                                /* WRITE MPC RECORDS                  */
     1369     5560    3           DO I = 0 TO NUM_MPCS - 1;

   5560  6 004357   200016 450100                    STZ     I,,AUTO
PL6.E3A0      #003=THE$PROCESS File=THE$ELAN.:E05TSI                             WED 07/30/97 06:09 Page:231
         6 004360   004416 710000 6                  TRA     s:5566+1

     1370     5561    3              TH_MPC = MPC_TBL.PTR$(I)->MPC;

   5561  6 004361   200016 236100                    LDQ     I,,AUTO
         6 004362   000003 402007                    MPY     3,DL
         6 004363   000000 470400 xsym               LDP0    MPC_TBL$
         6 004364   000002 471506                    LDP1    2,QL,PR0
         6 004365   000100 100500                    MLR     fill='000'O
         6 004366   100000 000510                    ADSC9   0,,PR1                   cn=0,n=328
         6 004367   207132 000510                    ADSC9   TH_MPC,,AUTO             cn=0,n=328

     1371     5562    3              KEY8.TXT = MPC_TBL.DEVNAME(I);

   5562  6 004370   200016 236100                    LDQ     I,,AUTO
         6 004371   000014 402007                    MPY     12,DL
         6 004372   040000 100506                    MLR     fill='040'O
         6 004373   000000 000010                    ADSC9   0,Q,PR0                  cn=0,n=8
         6 004374   000021 200010 4                  ADSC9   KEY8                     cn=1,n=8

     1372     5563    3              WRITE_DEVHIST.BUF_ = VECTOR(TH_MPC);

   5563  6 004375   000057 235000 7                  LDA     47
         6 004376   210124 452500                    STP2    TH_UTS+3,,AUTO
         6 004377   210124 236100                    LDQ     TH_UTS+3,,AUTO
         6 004400   007132 036003                    ADLQ    3674,DU
         6 004401   002042 757000 4                  STAQ    WRITE_DEVHIST+4

     1373     5564    3              WRITE_DEVHIST.BUF_.BOUND = SIZEV(MPC) - (8 * (33 - TH_MPC.NUMDEVS));

   5564  6 004402   207146 236100                    LDQ     TH_MPC+12,,AUTO
         6 004403   777777 376003                    ANQ     -1,DU
         6 004404   000017 772000                    QRL     15
         6 004405   000077 036007                    ADLQ    63,DL
         6 004406   000020 736000                    QLS     16
         6 004407   002042 676000 4                  ERQ     WRITE_DEVHIST+4
         6 004410   000034 376000 xsym               ANQ     B_VECTNIL+28
PL6.E3A0      #003=THE$PROCESS File=THE$ELAN.:E05TSI                             WED 07/30/97 06:09 Page:232
         6 004411   002042 656000 4                  ERSQ    WRITE_DEVHIST+4

     1374     5565    3              CALL M$WRITE(WRITE_DEVHIST);

   5565  6 004412   002036 630400 4                  EPPR0   WRITE_DEVHIST
         6 004413   040001 713400                    CLIMB   write
         6 004414   401400 401760                    pmme    nvectors=4

     1375     5566    3           END;                            /* DO I                               */

   5566  6 004415   200016 054100                    AOS     I,,AUTO
         6 004416   200016 236100                    LDQ     I,,AUTO
         6 004417   004361 604000 6                  TMI     s:5561
         6 004420   000002 116000 4                  CMPQ    NUM_MPCS
         6 004421   004361 602000 6                  TNC     s:5561

     1376     5567
     1377     5568                                                /* WRITE DEVICE RECORDS               */
     1378     5569    3           DO I = 0 TO NUM_DEVS - 1;

   5569  6 004422   200016 450100                    STZ     I,,AUTO
         6 004423   004451 710000 6                  TRA     s:5574+1

     1379     5570    3              KEY8.TXT = DEV_TBL.DEVNAME(I);

   5570  6 004424   200016 236100                    LDQ     I,,AUTO
         6 004425   000014 402007                    MPY     12,DL
         6 004426   000000 470400 xsym               LDP0    DEV_TBL$
         6 004427   040000 100506                    MLR     fill='040'O
         6 004430   000000 000010                    ADSC9   0,Q,PR0                  cn=0,n=8
         6 004431   000021 200010 4                  ADSC9   KEY8                     cn=1,n=8

     1380     5571    3              TH_DEV = DEV_TBL.PTR$(I)->DEV;

   5571  6 004432   200016 236100                    LDQ     I,,AUTO
         6 004433   000003 402007                    MPY     3,DL
         6 004434   000002 471506                    LDP1    2,QL,PR0
PL6.E3A0      #003=THE$PROCESS File=THE$ELAN.:E05TSI                             WED 07/30/97 06:09 Page:233
         6 004435   000100 100500                    MLR     fill='000'O
         6 004436   100000 000134                    ADSC9   0,,PR1                   cn=0,n=92
         6 004437   207671 000134                    ADSC9   TH_DEV,,AUTO             cn=0,n=92

     1381     5572    3              WRITE_DEVHIST.BUF_ = VECTOR(TH_DEV);

   5572  6 004440   000060 235000 7                  LDA     48
         6 004441   210124 452500                    STP2    TH_UTS+3,,AUTO
         6 004442   210124 236100                    LDQ     TH_UTS+3,,AUTO
         6 004443   007671 036003                    ADLQ    4025,DU
         6 004444   002042 757000 4                  STAQ    WRITE_DEVHIST+4

     1382     5573    3              CALL M$WRITE(WRITE_DEVHIST);

   5573  6 004445   002036 630400 4                  EPPR0   WRITE_DEVHIST
         6 004446   040001 713400                    CLIMB   write
         6 004447   401400 401760                    pmme    nvectors=4

     1383     5574    3           END;                            /* DO I                               */

   5574  6 004450   200016 054100                    AOS     I,,AUTO
         6 004451   200016 236100                    LDQ     I,,AUTO
         6 004452   004424 604000 6                  TMI     s:5570
         6 004453   000003 116000 4                  CMPQ    NUM_DEVS
         6 004454   004424 602000 6                  TNC     s:5570

     1384     5575    2           CALL XUD$UTS_ADJ_25TH(UTS, UTS, %UTS_25TH_DAY#);

   5575  6 004455   000061 630400 7                  EPPR0   49
         6 004456   000021 631400 xsym               EPPR1   B_VECTNIL+17
         6 004457   000000 701000 xent               TSX1    XUD$UTS_ADJ_25TH
         6 004460   000000 011000                    NOP     0

     1385     5576    2        END;                           /* DO WHILE (UTS <= LAST_UTS) */

   5576  6 004461   000011 236000 4                  LDQ     LAST_UTS
         6 004462   000006 116000 4                  CMPQ    UTS
PL6.E3A0      #003=THE$PROCESS File=THE$ELAN.:E05TSI                             WED 07/30/97 06:09 Page:234
         6 004463   003672 603000 6                  TRC     s:5449

     1386     5577             /* Update UTS record */
     1387     5578    1        WRITE_DEVHIST.KEY_ = VECTOR(UTS_KEY);

   5578  6 004464   000064 237000 7                  LDAQ    52
         6 004465   002040 757000 4                  STAQ    WRITE_DEVHIST+2

     1388     5579    1        TH_UTS.ERRLOG_UTS = CURUTS;

   5579  6 004466   000007 235000 4                  LDA     CURUTS
         6 004467   210122 755100                    STA     TH_UTS+1,,AUTO

     1389     5580    1        WRITE_DEVHIST.BUF_ = VECTOR(TH_UTS);

   5580  6 004470   000066 235000 7                  LDA     54
         6 004471   210124 452500                    STP2    TH_UTS+3,,AUTO
         6 004472   210124 236100                    LDQ     TH_UTS+3,,AUTO
         6 004473   010121 036003                    ADLQ    4177,DU
         6 004474   002042 757000 4                  STAQ    WRITE_DEVHIST+4

     1390     5581    1        CALL M$WRITE(WRITE_DEVHIST) ALTRET(ALT);

   5581  6 004475   002036 630400 4                  EPPR0   WRITE_DEVHIST
         6 004476   440001 713400                    CLIMB   alt,write
         6 004477   401400 401760                    pmme    nvectors=4
         6 004500   004671 702000 6                  TSX2    ALT

     1391     5582    1        CALL THG$CLOSEXSA;

   5582  6 004501   000002 631400 xsym               EPPR1   B_VECTNIL+2
         6 004502   000000 701000 xent               TSX1    THG$CLOSEXSA
         6 004503   000000 011000                    NOP     0

     1392     5583    1        CALL M$CLOSE (CLOSE_DEV) ALTRET(ALT);

   5583  6 004504   000370 630400 5                  EPPR0   CLOSE_DEV
PL6.E3A0      #003=THE$PROCESS File=THE$ELAN.:E05TSI                             WED 07/30/97 06:09 Page:235
         6 004505   450001 713400                    CLIMB   alt,close
         6 004506   406000 401760                    pmme    nvectors=13
         6 004507   004671 702000 6                  TSX2    ALT

     1393     5584             /* Delete records in :DEVHIST that are more than 30 days old  */
     1394     5585    1        IF TH_REBUILD

   5585  6 004510   000000 234000 xsym               SZN     TH_REBUILD
         6 004511   004656 605000 6                  TPL     s:5619

     1395     5586    2           THEN DO;

     1396     5587    2                 CALL M$OPEN (OPEN_DEV) ALTRET(ALT);

   5587  6 004512   000276 630400 5                  EPPR0   OPEN_DEV
         6 004513   450000 713400                    CLIMB   alt,open
         6 004514   410400 401760                    pmme    nvectors=18
         6 004515   004671 702000 6                  TSX2    ALT

     1397     5588    2                 CALL M$OPEN (OPEN_NEWDEV) ALTRET(ALT);

   5588  6 004516   000146 630400 5                  EPPR0   OPEN_NEWDEV
         6 004517   450000 713400                    CLIMB   alt,open
         6 004520   410400 401760                    pmme    nvectors=18
         6 004521   004671 702000 6                  TSX2    ALT

     1398     5589    2                 CALL M$TIME (CUR_UTS) ALTRET(ALT);

   5589  6 004522   000432 630400 5                  EPPR0   CUR_UTS
         6 004523   420004 713400                    CLIMB   alt,+8196
         6 004524   402000 401760                    pmme    nvectors=5
         6 004525   004671 702000 6                  TSX2    ALT

     1399     5590    2                 CALL XUD$UTS_ADJ_25TH(OLDEST_UTS, CURUTS, -(30*%UTS_25TH_DAY#));

   5590  6 004526   000067 630400 7                  EPPR0   55
         6 004527   000021 631400 xsym               EPPR1   B_VECTNIL+17
PL6.E3A0      #003=THE$PROCESS File=THE$ELAN.:E05TSI                             WED 07/30/97 06:09 Page:236
         6 004530   000000 701000 xent               TSX1    XUD$UTS_ADJ_25TH
         6 004531   000000 011000                    NOP     0

     1400     5591    2                 CALL M$PFIL (PFIL_DEVHIST) ALTRET(ALT);

   5591  6 004532   002066 630400 4                  EPPR0   PFIL_DEVHIST
         6 004533   440004 713400                    CLIMB   alt,+16388
         6 004534   400000 401760                    pmme    nvectors=1
         6 004535   004671 702000 6                  TSX2    ALT

     1401     5592    3                 DO I = 1 TO 3;

   5592  6 004536   000001 235007                    LDA     1,DL
         6 004537   200016 755100                    STA     I,,AUTO

     1402     5593    3                    CALL M$READ (RD_DEVHIST) ALTRET(END_OF_DEV);

   5593  6 004540   002110 630400 4                  EPPR0   RD_DEVHIST
         6 004541   440000 713400                    CLIMB   alt,read
         6 004542   401400 401760                    pmme    nvectors=4
         6 004543   004645 702000 6                  TSX2    END_OF_DEV

     1403     5594    3                    WRITE_NEWDEV.KEY_ = VECTOR(HD_KEY);

   5594  6 004544   000072 237000 7                  LDAQ    58
         6 004545   002054 757000 4                  STAQ    WRITE_NEWDEV+2

     1404     5595    3                   WRITE_NEWDEV.BUF_.BOUND = DCBADDR(DCBNUM(M$DEVHIST))->F$DCB.ARS - 1
              5595                             ;

   5595  6 004546   000000 236007 xsym               LDQ     M$DEVHIST,DL
         6 004547   000000 470400 7                  LDP0    0
         6 004550   000000 471500                    LDP1    0,,PR0
         6 004551   100000 473506                    LDP3    0,QL,PR1
         6 004552   300000 236100                    LDQ     0,,PR3
         6 004553   000001 136007                    SBLQ    1,DL
         6 004554   000020 736000                    QLS     16
PL6.E3A0      #003=THE$PROCESS File=THE$ELAN.:E05TSI                             WED 07/30/97 06:09 Page:237
         6 004555   002056 676000 4                  ERQ     WRITE_NEWDEV+4
         6 004556   000034 376000 xsym               ANQ     B_VECTNIL+28
         6 004557   002056 656000 4                  ERSQ    WRITE_NEWDEV+4

     1405     5596    3                    CALL M$WRITE (WRITE_NEWDEV);

   5596  6 004560   002052 630400 4                  EPPR0   WRITE_NEWDEV
         6 004561   040001 713400                    CLIMB   write
         6 004562   401400 401760                    pmme    nvectors=4

     1406     5597    3                 END;

   5597  6 004563   200016 054100                    AOS     I,,AUTO
         6 004564   200016 235100                    LDA     I,,AUTO
         6 004565   000003 115007                    CMPA    3,DL
         6 004566   004540 604400 6                  TMOZ    s:5593

     1407     5598    2                 CALL M$READ(RD_DEVHIST) ALTRET(END_OF_DEV);

   5598  6 004567   002110 630400 4                  EPPR0   RD_DEVHIST
         6 004570   440000 713400                    CLIMB   alt,read
         6 004571   401400 401760                    pmme    nvectors=4
         6 004572   004645 702000 6                  TSX2    END_OF_DEV

     1408     5599    2                 WRITE_NEWDEV.KEY_ = VECTOR(HD_KEY);

   5599  6 004573   000072 237000 7                  LDAQ    58
         6 004574   002054 757000 4                  STAQ    WRITE_NEWDEV+2

     1409     5600    2                 WRITE_NEWDEV.BUF_.BOUND =

   5600  6 004575   000000 236007 xsym               LDQ     M$DEVHIST,DL
         6 004576   000000 470400 7                  LDP0    0
         6 004577   000000 471500                    LDP1    0,,PR0
         6 004600   100000 473506                    LDP3    0,QL,PR1
         6 004601   300000 236100                    LDQ     0,,PR3
         6 004602   000001 136007                    SBLQ    1,DL
PL6.E3A0      #003=THE$PROCESS File=THE$ELAN.:E05TSI                             WED 07/30/97 06:09 Page:238
         6 004603   000020 736000                    QLS     16
         6 004604   002056 676000 4                  ERQ     WRITE_NEWDEV+4
         6 004605   000034 376000 xsym               ANQ     B_VECTNIL+28
         6 004606   002056 656000 4                  ERSQ    WRITE_NEWDEV+4

     1410     5601    2                   DCBADDR(DCBNUM(M$DEVHIST)) -> F$DCB.ARS - 1;
     1411     5602    2                 ADDR(REC_BUF) -> TH$UTS.OLDEST_UTS = OLDEST_UTS;

   5602  6 004607   000013 236000 4                  LDQ     OLDEST_UTS
         6 004610   000031 756000 4                  STQ     REC_BUF

     1412     5603    2                 CALL M$WRITE(WRITE_NEWDEV);  /* WRITE UTS RECORD */

   5603  6 004611   002052 630400 4                  EPPR0   WRITE_NEWDEV
         6 004612   040001 713400                    CLIMB   write
         6 004613   401400 401760                    pmme    nvectors=4

     1413     5604    2        READ_DEVHIST:
     1414     5605    2                 CALL M$READ (READ_DEVHIST) ALTRET(END_OF_DEV);

   5605  6 004614   002072 630400 4     READ_DEVHIST EPPR0   READ_DEVHIST
         6 004615   440000 713400                    CLIMB   alt,read
         6 004616   401400 401760                    pmme    nvectors=4
         6 004617   004645 702000 6                  TSX2    END_OF_DEV

     1415     5606    2                 IF OLDEST_UTS > RD_KEY.UTS

   5606  6 004620   000017 235000 4                  LDA     RD_KEY+2
         6 004621   000020 236000 4                  LDQ     RD_KEY+3
         6 004622   000033 773000                    LRL     27
         6 004623   000013 116000 4                  CMPQ    OLDEST_UTS
         6 004624   004644 602000 6                  TNC     s:5613

     1416     5607    2                    THEN;
     1417     5608    3                    ELSE DO;

     1418     5609    3                       WRITE_NEWDEV.KEY_ = VECTOR(RD_KEY);
PL6.E3A0      #003=THE$PROCESS File=THE$ELAN.:E05TSI                             WED 07/30/97 06:09 Page:239

   5609  6 004625   000074 237000 7                  LDAQ    60
         6 004626   002054 757000 4                  STAQ    WRITE_NEWDEV+2

     1419     5610    3                       WRITE_NEWDEV.BUF_.BOUND = DCBADDR(DCBNUM(M$DEVHIST))->F$DCB.ARS
              5610                                - 1;

   5610  6 004627   000000 236007 xsym               LDQ     M$DEVHIST,DL
         6 004630   000000 470400 7                  LDP0    0
         6 004631   000000 471500                    LDP1    0,,PR0
         6 004632   100000 473506                    LDP3    0,QL,PR1
         6 004633   300000 236100                    LDQ     0,,PR3
         6 004634   000001 136007                    SBLQ    1,DL
         6 004635   000020 736000                    QLS     16
         6 004636   002056 676000 4                  ERQ     WRITE_NEWDEV+4
         6 004637   000034 376000 xsym               ANQ     B_VECTNIL+28
         6 004640   002056 656000 4                  ERSQ    WRITE_NEWDEV+4

     1420     5611    3                       CALL M$WRITE(WRITE_NEWDEV);

   5611  6 004641   002052 630400 4                  EPPR0   WRITE_NEWDEV
         6 004642   040001 713400                    CLIMB   write
         6 004643   401400 401760                    pmme    nvectors=4

     1421     5612    3                    END;

     1422     5613    2                 GOTO READ_DEVHIST;

   5613  6 004644   004614 710000 6                  TRA     READ_DEVHIST

     1423     5614    2        END_OF_DEV:
     1424     5615    2                 CALL M$CLOSE(CLOSE_DEVHIST) ALTRET(ALT);

   5615  6 004645   000110 630400 5     END_OF_DEV   EPPR0   CLOSE_DEVHIST
         6 004646   450001 713400                    CLIMB   alt,close
         6 004647   406000 401760                    pmme    nvectors=13
         6 004650   004671 702000 6                  TSX2    ALT
PL6.E3A0      #003=THE$PROCESS File=THE$ELAN.:E05TSI                             WED 07/30/97 06:09 Page:240

     1425     5616    2                 CALL M$CLOSE(CLOSE_NEWDEV) ALTRET(ALT);

   5616  6 004651   000240 630400 5                  EPPR0   CLOSE_NEWDEV
         6 004652   450001 713400                    CLIMB   alt,close
         6 004653   406000 401760                    pmme    nvectors=13
         6 004654   004671 702000 6                  TSX2    ALT

     1426     5617    2                 TH_REBUILD = '0'B;

   5617  6 004655   000000 450000 xsym               STZ     TH_REBUILD

     1427     5618    2           END;

     1428     5619    1        RETURN;

   5619  6 004656   000000 702200 xent               TSX2  ! X66_ARET

     1429     5620    1   NO_MEM:
     1430     5621    1        CALL THM$ERRMSG(%E$TH_NO_MEM);

   5621  6 004657   000077 630400 7     NO_MEM       EPPR0   63
         6 004660   000017 631400 xsym               EPPR1   B_VECTNIL+15
         6 004661   000000 701000 xent               TSX1    THM$ERRMSG
         6 004662   000000 011000                    NOP     0

     1431     5622    1        ALTRETURN;

   5622  6 004663   000000 702200 xent               TSX2  ! X66_AALT

     1432     5623             /*E* ERROR: THE-E$TH_NO_MEM-0
     1433     5624                  MESSAGE: NO MEMORY FOR ELAN TO BUILD INTERNAL TABLES -
     1434     5625                           UNABLE TO BUILD HISTORY FILE - ELAN ABORTING */
     1435     5626    1   OPEN_ERR:
     1436     5627    1        CALL THM$ERRMSG(%E$TH_BAD_CONFIG);

   5627  6 004664   000101 630400 7     OPEN_ERR     EPPR0   65
PL6.E3A0      #003=THE$PROCESS File=THE$ELAN.:E05TSI                             WED 07/30/97 06:09 Page:241
         6 004665   000017 631400 xsym               EPPR1   B_VECTNIL+15
         6 004666   000000 701000 xent               TSX1    THM$ERRMSG
         6 004667   000000 011000                    NOP     0

     1437     5628    1        ALTRETURN;

   5628  6 004670   000000 702200 xent               TSX2  ! X66_AALT

     1438     5629             /*E* ERROR: THE-E$TH_BAD_CONFIG-0
     1439     5630                  MESSAGE: UNABLE TO ACCESS :CONFIG FILE - ELAN ABORTING */
     1440     5631    1   ALT:
     1441     5632    1        CALL THM$ERRMSG;

   5632  6 004671   000002 631400 xsym  ALT          EPPR1   B_VECTNIL+2
         6 004672   000000 701000 xent               TSX1    THM$ERRMSG
         6 004673   000000 011000                    NOP     0

     1442     5633    1        ALTRETURN;

   5633  6 004674   000000 702200 xent               TSX2  ! X66_AALT
     1443     5634    1   END THE$PROCESS;
     1444     5635        %EOD;

PL6.E3A0      #003=THE$PROCESS File=THE$ELAN.:E05TSI                             WED 07/30/97 06:09 Page:242
--  Include file information  --

   XUD_UTS_M.:E05TOU  is referenced.
   TH_PERR_C.:E05TOU  is referenced.
   B_STRINGS_C.:E05TOU  is referenced.
   TH_SUBS_C.:E05TOU  is referenced.
   TH_DATA_R.:E05TOU  cannot be made into a system file and is referenced.
   TH$HIST.:E05TOU  is referenced.
   TD$STRUCT.:E05TOU  is referenced.
   EL$TABLES.:E05TOU  is referenced.
   F$DCB.:E05TOU  cannot be made into a system file and is referenced.
   B_ERRORS_C.:E05TOU  is referenced.
   NI$TABLES.:E05TOU  is referenced.
   B_SEGIDS_C.:E05TOU  is referenced.
   B$JIT.:E05TOU  cannot be made into a system file and is referenced.
   CP_6.:E05TOU  cannot be made into a system file and is referenced.
   B$JIT_C.:E05TOU  was found in the system file and is referenced.
   CP_6_C.:E05TOU  was found in the system file and is referenced.
      No diagnostics issued in procedure THE$PROCESS.
PL6.E3A0      #003=THE$PROCESS File=THE$ELAN.:E05TSI                             WED 07/30/97 06:09 Page:243

 **** Variables and constants ****

  ****  Section 004  Data  THE$PROCESS

  ****  Scalars and arrays  ****
OctLoc.c.b A Datatyp(siz) R M Lvl/name                 OctLoc.c.b A Datatyp(siz) R M Lvl/name

  2126-0-0/w STRC(126)   r     1 ACSLIST                    7-0-0/w UBIN        r     1 CURUTS
    12-0-0/w UBIN        r     1 DEVHIST_UTS               10-0-0/w UBIN        r     1 FIRST_UTS
    14-0-0/b BIT (18)    r     1 HD_KEY                    21-0-0/c STRC(117)   r     1 KEY8
     0-0-0/w UBIN        r     1 LAST_REQID                11-0-0/w UBIN        r     1 LAST_UTS
     3-0-0/w UBIN        r     1 NUM_DEVS                   4-0-0/w UBIN        r     1 NUM_FEPS
     1-0-0/w UBIN        r     1 NUM_IOMS                   2-0-0/w UBIN        r     1 NUM_MPCS
     5-0-0/w UBIN        r     1 NUM_NEW_COMPS             13-0-0/w UBIN        r     1 OLDEST_UTS
  2066-0-0/d STRC(144)   r     1 PFIL_DEVHIST            2110-0-0/d STRC(504)   r     1 RD_DEVHIST
    15-0-0/c STRC(117)   r     1 RD_KEY                  2072-0-0/d STRC(504)   r     1 READ_DEVHIST
    31-0-0/w STRC(37044) r     1 REC_BUF                    6-0-0/w UBIN        r     1 UTS
  2132-0-0/w STRC(180)   r     1 VEHLIST                 2036-0-0/d STRC(432)   r     1 WRITE_DEVHIST
  2052-0-0/d STRC(432)   r     1 WRITE_NEWDEV

  ****  Section 005 RoData THE$PROCESS

  ****  Scalars and arrays  ****
OctLoc.c.b A Datatyp(siz) R M Lvl/name                 OctLoc.c.b A Datatyp(siz) R M Lvl/name

   370-0-0/d STRC(1080)  r     1 CLOSE_DEV                110-0-0/d STRC(1080)  r     1 CLOSE_DEVHIST
   240-0-0/d STRC(1080)  r     1 CLOSE_NEWDEV             432-0-0/d STRC(432)   r     1 CUR_UTS
   426-0-0/c STRC(81)    r     1 DEVHIST                   10-0-0/b BIT (18)    r     1 HEAD_KEY
    12-0-0/b BIT (18)    r     1 MAINT_KEY                  2-0-0/c CHAR(8)     r     1 ONE
   276-0-0/d STRC(2088)  r     1 OPEN_DEV                  16-0-0/d STRC(2088)  r     1 OPEN_DEVHIST
   146-0-0/d STRC(2088)  r     1 OPEN_NEWDEV                6-0-0/c CHAR(8)     r     1 THREE
    11-0-0/b BIT (18)    r     1 THRESH_KEY                 4-0-0/c CHAR(8)     r     1 TWO
    13-0-0/b BIT (18)    r     1 UTS_KEY                    0-0-0/c CHAR(8)     r     1 ZERO

  ****  Auto variables  ****

  ****  Scalars and arrays  ****
PL6.E3A0      #003=THE$PROCESS File=THE$ELAN.:E05TSI                             WED 07/30/97 06:09 Page:244
OctLoc.c.b A Datatyp(siz) R M Lvl/name                 OctLoc.c.b A Datatyp(siz) R M Lvl/name

    15-0-0/w UBIN(9)     r     1 CHAN#                     13-0-0/w PTR         r     1 CHAN$
    26-0-0/c CHAR(2)     r     1 CHN#                      23-0-0/w PTR         r     1 DCT$
    23-0-0/w STRC        r     1 DCTPTR                    22-0-0/w UBIN        r     1 DCTX
    11-0-0/w PTR         r     1 DEV$                       3-0-0/b BIT         r     1 EOF_FLG
    12-0-0/w PTR         r     1 FEP$                       4-0-0/b BIT         r     1 FOUND
    16-0-0/w SBIN        r     1 I                         21-0-0/w UBIN        r     1 INDX
    14-0-0/w UBIN(3)     r     1 IOM#                       7-0-0/w PTR         r     1 IOM$
    17-0-0/w SBIN        r     1 J                         20-0-0/w SBIN        r     1 K
     5-0-0/w UBIN        r     1 LAST_INDX                 10-0-0/w PTR         r     1 MPC$
    24-0-0/c CHAR(8)     r     1 MPC_NAME                   6-0-0/w UBIN        r     1 OLD_INDX
    30-0-0/w STRC(15048) r     1 TD_HEAD
  5777-0-0/w STRC(108)   r     1 TEMP_MAINT(0:200)
  3200-0-0/w STRC(144)   r     1 TEMP_THRESH(0:200)
    27-0-0/w UBIN        r     1 TEMP_UTS                7720-0-0/w STRC(4644)  r     1 TH_CHAN
  7671-0-0/w STRC(828)   r     1 TH_DEV                  7670-0-0/w STRC        r     1 TH_FEP
   672-0-0/w STRC(15048) r     1 TH_HEAD                 7254-0-0/w STRC(9648)  r     1 TH_IOM
  4644-0-0/w STRC(108)   r     1 TH_MAINT(0:200)         7132-0-0/w STRC(2952)  r     1 TH_MPC
  1534-0-0/w STRC(144)   r     1 TH_THRESH(0:200)
 10121-0-0/w STRC(72)    r     1 TH_UTS

  ****  SYMREF variables  ****

  ****  Scalars and arrays  ****
OctLoc.c.b A Datatyp(siz) R M Lvl/name                 OctLoc.c.b A Datatyp(siz) R M Lvl/name

     0-0-0/w PTR         r     1 B$JIT$                     0-0-0/w PTR         r     1 B$TCB$
     0-0-0/c STRC(72)    r     1 DEVHIST_ACCT               0-0-0/w PTR         r     1 DEV_TBL$
     0-0-0/w PTR         r     1 FEP_TBL$                   0-0-0/w PTR         r     1 IOM_TBL$
     0-0-0/w PTR         r     1 MPC_TBL$                   0-0-0/d STRC(1971)  r     1 TH_CONSTRAINTS
     0-0-0/w PTR         r     1 TH_DCT$(0:511)             0-0-0/d STRC(1971)  r     1 TH_DEFAULT
     0-0-0/w UBIN        r     1 TH_DEVHIST_MODE            0-0-0/d STRC(72)    r     1 TH_INFO
     0-0-0/w UBIN        r     1 TH_ITYPE                   0-0-0/w PTR         r     1 TH_M$ERRLOG$
     0-0-0/w UBIN        r     1 TH_MAXDCTX                 0-0-0/b BIT         r     1 TH_PHONY_GHOST
     0-0-0/b BIT         r     1 TH_REBUILD                 0-0-0/d STRC(72)    r     1 TH_RECORD

PL6.E3A0      #003=THE$PROCESS File=THE$ELAN.:E05TSI                             WED 07/30/97 06:09 Page:245
  ****  BASED and DCB variables  ****

  ****  Scalars and arrays  ****
OctLoc.c.b A Datatyp(siz) R M Lvl/name                 OctLoc.c.b A Datatyp(siz) R M Lvl/name

     0-0-0/w STRC(2448)  r     1 B$ALT                      0-0-0/d STRC(8856)  r     1 B$JIT
     0-0-0/w STRC(144)   r     1 B$TCB                      0-0-0/w STRC(4644)  r     1 CHAN
     0-0-0/w STRC(828)   r     1 DEV
     0-0-0/w STRC(108)   r     1 DEV_TBL(0:0)
     0-0-0/w STRC(1080)  r     1 EL$IOERR                   0-0-0/d ASTR(3528)  r     1 F$DCB
     0-0-0/w STRC        r     1 FEP
     0-0-0/w STRC(108)   r     1 FEP_TBL(0:0)
     0-0-0/w STRC(9648)  r     1 IOM
     0-0-0/w STRC(108)   r     1 IOM_TBL(0:0)
     0-0-0N  NULL        r     1 M$DEVHIST                  0-0-0N  NULL        r     1 M$ERRLOG
     0-0-0N  NULL        r     1 M$NEWDEV                   0-0-0/w STRC(2952)  r     1 MPC
     0-0-0/w STRC(108)   r     1 MPC_TBL(0:0)
     0-0-0/w STRC(1332)  r     1 NI$DCT                     0-0-0/w STRC(15048) r     1 TD$HEAD
     0-0-0/w STRC(15048) r     1 TH$HEAD                    0-0-0/w STRC(108)   r     1 TH$MAINT(0:200)
     0-0-0/w STRC(144)   r     1 TH$THRESH(0:200)
     0-0-0/w STRC(72)    r     1 TH$UTS


   Procedure THE$PROCESS requires 2493 words for executable code.
   Procedure THE$PROCESS requires 4194 words of local(AUTO) storage.
PL6.E3A0      #003=THE$PROCESS File=THE$ELAN.:E05TSI                             WED 07/30/97 06:09 Page:246
          *** CROSS REFERENCE LISTING ***
**     DENOTES     IDENTIFIER DEFINITION
<<                 IDENTIFIER'S VALUE SET
>>                 IDENTIFIER'S VALUE USED
<>                 IDENTIFIER SET AND/OR USED
--                 IDENTIFIER REFERENCED
PL6.E3A0      #003=THE$PROCESS File=THE$ELAN.:E05TSI                             WED 07/30/97 06:09 Page:247
          MINI XREF LISTING

ACSLIST
      4817**DCL      4369--DCLINIT
ACSLIST.Q
      4818**DCL      4817--DCLINIT
ALT
      5632**LABEL    4926--CALLALT  5445--CALLALT  5527--CALLALT  5581--CALLALT  5583--CALLALT  5587--CALLALT
      5588--CALLALT  5589--CALLALT  5591--CALLALT  5615--CALLALT  5616--CALLALT
B$ALT.CODE
      4028**DCL      4028--REDEF    4029--REDEF    4029--REDEF
B$ALT.ERR.CODE
      4030**DCL      4895>>IF
B$ALT.ERR.ERR#
      4030**DCL      4030--REDEF
B$ALT.EVID
      4029**DCL      4029--REDEF    4029--REDEF
B$JIT.CPFLAGS1.SLEAZE
       199**DCL       199--REDEF
B$JIT.ERR.MID
       106**DCL       106--REDEF
B$JIT.JRESPEAK
       267**DCL       268--REDEF
B$JIT.MODE
       100**DCL      4891>>IF
B$JIT.ORIGINATOR_PORT.FROM_CR
       376**DCL       376--REDEF     377--REDEF
B$JIT.PNR
       280**DCL       280--REDEF
B$JIT.TSLINE
       374**DCL       375--REDEF
B$JIT$
      3522**DCL       100--IMP-PTR  4891>>IF
B$TCB.ALT$
PL6.E3A0      #003=THE$PROCESS File=THE$ELAN.:E05TSI                             WED 07/30/97 06:09 Page:248
      4024**DCL      4895>>IF
B$TCB$
      3521**DCL      4895>>IF
BYPASS_CHECK
      5415**LABEL    4951--GOTO
CHAN
      3761**DCL      5544>>ASSIGN
CHAN.CHANS.CONNECTS
      3765**DCL      5501<<ASSIGN   5501>>ASSIGN
CHAN.CHANS.COUNT
      3764**DCL      5500<<ASSIGN   5500>>ASSIGN
CHAN#
      3440**DCL      5468<<ASSIGN   5479>>ASSIGN   5500>>ASSIGN   5500>>ASSIGN   5501>>ASSIGN   5501>>ASSIGN
CHAN$
      3438**DCL      3761--IMP-PTR  5499<<ASSIGN   5500>>ASSIGN   5500>>ASSIGN   5501>>ASSIGN   5501>>ASSIGN
CHN#
      3514**DCL      5545<<CALLBLT  5546>>CALLBLT
CLOSE_DEV
      4634**DCL      4913<>CALL     4926<>CALL     5583<>CALL
CLOSE_DEV.SN_
      4634**DCL      4634--REDEF
CLOSE_DEV.UTL_
      4635**DCL      4635--REDEF
CLOSE_DEV.V
      4639**DCL      4634--DCLINIT
CLOSE_DEV.V.EXPIRE#
      4649**DCL      4649--REDEF
CLOSE_DEV.V.TYPE#
      4647**DCL      4647--REDEF
CLOSE_DEV.V.XTNSIZE#
      4644**DCL      4644--REDEF    4646--REDEF
CLOSE_DEVHIST
      4271**DCL      5400<>CALL     5444<>CALL     5615<>CALL
CLOSE_DEVHIST.SN_
      4271**DCL      4271--REDEF
CLOSE_DEVHIST.UTL_
PL6.E3A0      #003=THE$PROCESS File=THE$ELAN.:E05TSI                             WED 07/30/97 06:09 Page:249
      4272**DCL      4272--REDEF
CLOSE_DEVHIST.V
      4276**DCL      4271--DCLINIT
CLOSE_DEVHIST.V.EXPIRE#
      4286**DCL      4286--REDEF
CLOSE_DEVHIST.V.TYPE#
      4284**DCL      4284--REDEF
CLOSE_DEVHIST.V.XTNSIZE#
      4281**DCL      4281--REDEF    4283--REDEF
CLOSE_NEWDEV
      4437**DCL      5616<>CALL
CLOSE_NEWDEV.SN_
      4437**DCL      4437--REDEF
CLOSE_NEWDEV.UTL_
      4438**DCL      4438--REDEF
CLOSE_NEWDEV.V
      4442**DCL      4437--DCLINIT
CLOSE_NEWDEV.V.EXPIRE#
      4452**DCL      4452--REDEF
CLOSE_NEWDEV.V.TYPE#
      4450**DCL      4450--REDEF
CLOSE_NEWDEV.V.XTNSIZE#
      4447**DCL      4447--REDEF    4449--REDEF
CURUTS
      3516**DCL      4701--DCLINIT  4924>>IF       5423<>CALL     5427<>CALL     5453>>ASSIGN   5579>>ASSIGN
      5590<>CALL
CUR_UTS
      4697**DCL      4921<>CALL     5422<>CALL     5589<>CALL
CUR_UTS.V
      4701**DCL      4697--DCLINIT
DCT$
      3455**DCL      3456--REDEF    3469--IMP-PTR  5486<<ASSIGN   5488>>IF       5490>>ASSIGN
DCTPTR.SEGID
      3459**DCL      5487<<ASSIGN
DCTX
      3454**DCL      5485<<DOINDEX  5486>>ASSIGN
PL6.E3A0      #003=THE$PROCESS File=THE$ELAN.:E05TSI                             WED 07/30/97 06:09 Page:250
DEV
      3701**DCL      5571>>ASSIGN
DEV.CONNECTS
      3719**DCL      5512<<ASSIGN   5512>>ASSIGN
DEV.COUNT
      3718**DCL      5511<<ASSIGN   5511>>ASSIGN
DEV$
      3436**DCL      3701--IMP-PTR  5510<<ASSIGN   5511>>ASSIGN   5511>>ASSIGN   5512>>ASSIGN   5512>>ASSIGN
DEVHIST
      4680**DCL      4170--DCLINIT  4368--DCLINIT  4565--DCLINIT
DEVHIST_ACCT
      2904**DCL      4174--DCLINIT  4372--DCLINIT  4569--DCLINIT
DEVHIST_UTS
      3519**DCL      5420<<ASSIGN   5426>>IF       5430<<ASSIGN   5433<>CALL     5440<<ASSIGN   5450>>ASSIGN
DEV_TBL.DEVNAME
      4019**DCL      5507>>IF       5570>>ASSIGN
DEV_TBL.PTR$
      4020**DCL      5510>>ASSIGN   5571>>ASSIGN
DEV_TBL$
      3513**DCL      4018--IMP-PTR  5507>>IF       5510>>ASSIGN   5570>>ASSIGN   5571>>ASSIGN
DO_GHOST2
      4951**LABEL    4950--GOTO
EL$FEPERR.STATDATA.TERMID.TERM
      3971**DCL      3980--REDEF
EL$IOERR.CONNECTS.CHANNEL
      3890**DCL      5501>>ASSIGN
EL$IOERR.CONNECTS.DEVICE
      3890**DCL      5512>>ASSIGN
EL$IOERR.CONNECTS.IOM
      3890**DCL      5474>>ASSIGN
EL$IOERR.DEVNM
      3892**DCL      5507>>IF
EL$IOERR.IOCHAN.CHAN
      3889**DCL      5468>>ASSIGN
EL$IOERR.IOCHAN.IOM
      3889**DCL      5466>>ASSIGN
PL6.E3A0      #003=THE$PROCESS File=THE$ELAN.:E05TSI                             WED 07/30/97 06:09 Page:251
EL$IOERR.REQID
      3887**DCL      5465>>IF       5515>>ASSIGN
EL$IOERR.SEEK
      3891**DCL      3892--REDEF
EL$IOERR.STATUS
      3887**DCL      3888--REDEF
EL$IOERR.THRESH.CHANNEL
      3893**DCL      5496>>IF
EL$IOERR.THRESH.DEVICE
      3893**DCL      5504>>IF
EL$IOERR.THRESH.IOM
      3892**DCL      5469>>IF
EL$IOERR.THRESH.MPC
      3893**DCL      5476>>IF
END_OF_DEV
      5615**LABEL    5593--CALLALT  5598--CALLALT  5605--CALLALT
EOF_FLG
      3429**DCL      5459<<ASSIGN   5460>>DOWHILE  5520<<ASSIGN
EOF_LBL
      5520**LABEL    5462--CALLALT
F$DCB.ACTPOS
      2289**DCL      2289--REDEF
F$DCB.ARS
      2264**DCL      2264--REDEF    4911>>IF       5595>>ASSIGN   5600>>ASSIGN   5610>>ASSIGN
F$DCB.ATTR
      2282**DCL      2283--REDEF
F$DCB.BORROW
      2297**DCL      2297--REDEF    2297--REDEF    2297--REDEF
F$DCB.DCBNAME.L
      2311**DCL      2311--IMP-SIZ
F$DCB.EOMCHAR
      2268**DCL      2268--REDEF
F$DCB.FCD
      2277**DCL      5399>>IF       5443>>IF       5526>>IF
F$DCB.FLDID
      2292**DCL      2292--REDEF
PL6.E3A0      #003=THE$PROCESS File=THE$ELAN.:E05TSI                             WED 07/30/97 06:09 Page:252
F$DCB.FORM$
      2286**DCL      2286--REDEF
F$DCB.FSECT
      2302**DCL      2302--REDEF
F$DCB.FSN
      2279**DCL      2279--REDEF    2279--REDEF    2280--REDEF
F$DCB.HEADER$
      2285**DCL      2285--REDEF
F$DCB.IXTNSIZE
      2283**DCL      2283--REDEF
F$DCB.LASTSTA$
      2273**DCL      2273--REDEF
F$DCB.LVL
      2298**DCL      2298--REDEF
F$DCB.NAME.C
      2273**DCL      2273--REDEF
F$DCB.NOEOF
      2294**DCL      2294--REDEF
F$DCB.NRECS
      2284**DCL      2284--REDEF
F$DCB.NRECX
      2303**DCL      2303--REDEF
F$DCB.OHDR
      2295**DCL      2295--REDEF
F$DCB.ORG
      2278**DCL      2278--REDEF
F$DCB.PRECNO
      2301**DCL      2301--REDEF
F$DCB.RCSZ
      2306**DCL      2306--REDEF
F$DCB.RES
      2274**DCL      2274--REDEF
F$DCB.SETX
      2286**DCL      2286--REDEF
F$DCB.TAB$
      2285**DCL      2286--REDEF
PL6.E3A0      #003=THE$PROCESS File=THE$ELAN.:E05TSI                             WED 07/30/97 06:09 Page:253
F$DCB.TDA
      2300**DCL      2300--REDEF
F$DCB.WSN
      2275**DCL      2275--REDEF
FEP
      3754**DCL      5554>>ASSIGN
FEP$
      3437**DCL      3754--IMP-PTR
FEP_TBL.DEVNAME
      4014**DCL      5553>>ASSIGN
FEP_TBL.PTR$
      4015**DCL      5554>>ASSIGN
FEP_TBL$
      3512**DCL      4013--IMP-PTR  5553>>ASSIGN   5554>>ASSIGN
FIRST_UTS
      3517**DCL      5427<>CALL     5428<<ASSIGN   5428>>ASSIGN   5429<>CALL     5429>>CALL     5430>>ASSIGN
      5433<>CALL     5434<<ASSIGN   5434>>ASSIGN   5435<>CALL     5435>>CALL     5437>>IF       5439<<ASSIGN
      5447>>ASSIGN   5449>>IF
FOUND
      3430**DCL      4955<<ASSIGN   4958<<ASSIGN   4960>>IF       4990<<ASSIGN   4993<<ASSIGN   4995>>IF
      5022<<ASSIGN   5025<<ASSIGN   5027>>IF       5056<<ASSIGN   5059<<ASSIGN   5061>>IF       5089<<ASSIGN
      5092<<ASSIGN   5094>>IF       5121<<ASSIGN   5124<<ASSIGN   5126>>IF       5153<<ASSIGN   5156<<ASSIGN
      5158>>IF       5183<<ASSIGN   5186<<ASSIGN   5188>>IF       5211<<ASSIGN   5214<<ASSIGN   5216>>IF
      5238<<ASSIGN   5241<<ASSIGN   5243>>IF       5264<<ASSIGN   5267<<ASSIGN   5269>>IF       5289<<ASSIGN
      5292<<ASSIGN   5294>>IF       5313<<ASSIGN   5316<<ASSIGN   5318>>IF       5336<<ASSIGN   5339<<ASSIGN
      5341>>IF       5359<<ASSIGN   5362<<ASSIGN   5364>>IF
HD_KEY
      3528**DCL      4784--DCLINIT  4785--DCLINIT  5594--ASSIGN   5599--ASSIGN
HEAD_KEY
      3523**DCL      5530--ASSIGN
I
      3450**DCL      4954<<DOINDEX  4957>>IF       4968>>ASSIGN   4989<<DOINDEX  4992>>IF       4999>>ASSIGN
      5021<<DOINDEX  5024>>IF       5035>>ASSIGN   5055<<DOINDEX  5058>>IF       5069>>ASSIGN   5088<<DOINDEX
      5091>>IF       5102>>ASSIGN   5120<<DOINDEX  5123>>IF       5134>>ASSIGN   5152<<DOINDEX  5155>>IF
      5166>>ASSIGN   5182<<DOINDEX  5185>>IF       5196>>ASSIGN   5210<<DOINDEX  5213>>IF       5224>>ASSIGN
      5237<<DOINDEX  5240>>IF       5251>>ASSIGN   5263<<DOINDEX  5266>>IF       5277>>ASSIGN   5288<<DOINDEX
PL6.E3A0      #003=THE$PROCESS File=THE$ELAN.:E05TSI                             WED 07/30/97 06:09 Page:254
      5291>>IF       5302>>ASSIGN   5312<<DOINDEX  5315>>IF       5326>>ASSIGN   5335<<DOINDEX  5338>>IF
      5349>>ASSIGN   5358<<DOINDEX  5361>>IF       5368>>ASSIGN   5382<<DOINDEX  5383>>IF       5386>>ASSIGN
      5387>>ASSIGN   5392>>ASSIGN   5392>>ASSIGN   5393>>ASSIGN   5394>>ASSIGN   5394>>ASSIGN   5395>>ASSIGN
      5396>>ASSIGN   5480<<DOINDEX  5481>>IF       5484>>ASSIGN   5506<<DOINDEX  5507>>IF       5510>>ASSIGN
      5539<<DOINDEX  5540>>ASSIGN   5541>>ASSIGN   5544>>ASSIGN   5545>>CALLBLT  5552<<DOINDEX  5553>>ASSIGN
      5554>>ASSIGN   5560<<DOINDEX  5561>>ASSIGN   5562>>ASSIGN   5569<<DOINDEX  5570>>ASSIGN   5571>>ASSIGN
      5592<<DOINDEX
INDX
      3453**DCL      4964<<ASSIGN   4965>>ASSIGN   4965>>ASSIGN   5031<<ASSIGN   5032>>ASSIGN   5032>>ASSIGN
      5065<<ASSIGN   5066>>ASSIGN   5066>>ASSIGN   5098<<ASSIGN   5099>>ASSIGN   5099>>ASSIGN   5130<<ASSIGN
      5131>>ASSIGN   5131>>ASSIGN   5162<<ASSIGN   5163>>ASSIGN   5163>>ASSIGN   5192<<ASSIGN   5193>>ASSIGN
      5193>>ASSIGN   5220<<ASSIGN   5221>>ASSIGN   5221>>ASSIGN   5247<<ASSIGN   5248>>ASSIGN   5248>>ASSIGN
      5273<<ASSIGN   5274>>ASSIGN   5274>>ASSIGN   5298<<ASSIGN   5299>>ASSIGN   5299>>ASSIGN   5322<<ASSIGN
      5323>>ASSIGN   5323>>ASSIGN   5345<<ASSIGN   5346>>ASSIGN   5346>>ASSIGN
IOM
      3722**DCL      5540>>ASSIGN
IOM.CHAN$
      3728**DCL      5499>>ASSIGN   5544>>ASSIGN
IOM.CONNECTS
      3729**DCL      5474<<ASSIGN   5474>>ASSIGN
IOM.COUNT
      3730**DCL      5473<<ASSIGN   5473>>ASSIGN
IOM.DEVNAME
      3723**DCL      5479>>ASSIGN
IOM#
      3439**DCL      5466<<ASSIGN   5467>>IF       5472>>ASSIGN   5479>>ASSIGN   5499>>ASSIGN
IOM$
      3434**DCL      3722--IMP-PTR  5472<<ASSIGN   5473>>ASSIGN   5473>>ASSIGN   5474>>ASSIGN   5474>>ASSIGN
IOM_TBL.DEVNAME
      4004**DCL      5541>>ASSIGN
IOM_TBL.PTR$
      4005**DCL      5472>>ASSIGN   5479>>ASSIGN   5499>>ASSIGN   5540>>ASSIGN   5544>>ASSIGN
IOM_TBL$
      3510**DCL      4003--IMP-PTR  5472>>ASSIGN   5479>>ASSIGN   5499>>ASSIGN   5540>>ASSIGN   5541>>ASSIGN
      5544>>ASSIGN
J
PL6.E3A0      #003=THE$PROCESS File=THE$ELAN.:E05TSI                             WED 07/30/97 06:09 Page:255
      3451**DCL      4956<<DOINDEX  4957>>IF       4991<<DOINDEX  4992>>IF       5023<<DOINDEX  5024>>IF
      5057<<DOINDEX  5058>>IF       5090<<DOINDEX  5091>>IF       5122<<DOINDEX  5123>>IF       5154<<DOINDEX
      5155>>IF       5184<<DOINDEX  5185>>IF       5212<<DOINDEX  5213>>IF       5239<<DOINDEX  5240>>IF
      5265<<DOINDEX  5266>>IF       5290<<DOINDEX  5291>>IF       5314<<DOINDEX  5315>>IF       5337<<DOINDEX
      5338>>IF       5360<<DOINDEX  5361>>IF       5381<<ASSIGN   5383>>IF       5383>>IF       5386>>ASSIGN
      5387>>ASSIGN   5388<<ASSIGN   5388>>ASSIGN
K
      3452**DCL      4963<<DOINDEX  4964>>ASSIGN   4996<<DOINDEX  4997>>ASSIGN   4997>>ASSIGN   5030<<DOINDEX
      5031>>ASSIGN   5064<<DOINDEX  5065>>ASSIGN   5097<<DOINDEX  5098>>ASSIGN   5129<<DOINDEX  5130>>ASSIGN
      5161<<DOINDEX  5162>>ASSIGN   5191<<DOINDEX  5192>>ASSIGN   5219<<DOINDEX  5220>>ASSIGN   5246<<DOINDEX
      5247>>ASSIGN   5272<<DOINDEX  5273>>ASSIGN   5297<<DOINDEX  5298>>ASSIGN   5321<<DOINDEX  5322>>ASSIGN
      5344<<DOINDEX  5345>>ASSIGN
KEEP_GOING
      5526**LABEL    5458--CALLALT
KEY8
      3533**DCL      5536--ASSIGN
KEY8.TXT
      3535**DCL      5541<<ASSIGN   5546<<CALLBLT  5553<<ASSIGN   5562<<ASSIGN   5570<<ASSIGN
KEY8.UTS
      3536**DCL      5535<<ASSIGN
LAST_INDX
      3431**DCL      4947<<ASSIGN   4948>>ASSIGN   4963>>DOINDEX  4964>>ASSIGN   4969<<ASSIGN   4969>>ASSIGN
      4996>>DOINDEX  5001<<ASSIGN   5001>>ASSIGN   5030>>DOINDEX  5031>>ASSIGN   5036<<ASSIGN   5036>>ASSIGN
      5064>>DOINDEX  5065>>ASSIGN   5070<<ASSIGN   5070>>ASSIGN   5097>>DOINDEX  5098>>ASSIGN   5103<<ASSIGN
      5103>>ASSIGN   5129>>DOINDEX  5130>>ASSIGN   5135<<ASSIGN   5135>>ASSIGN   5161>>DOINDEX  5162>>ASSIGN
      5167<<ASSIGN   5167>>ASSIGN   5191>>DOINDEX  5192>>ASSIGN   5197<<ASSIGN   5197>>ASSIGN   5219>>DOINDEX
      5220>>ASSIGN   5225<<ASSIGN   5225>>ASSIGN   5246>>DOINDEX  5247>>ASSIGN   5252<<ASSIGN   5252>>ASSIGN
      5272>>DOINDEX  5273>>ASSIGN   5278<<ASSIGN   5278>>ASSIGN   5297>>DOINDEX  5298>>ASSIGN   5303<<ASSIGN
      5303>>ASSIGN   5321>>DOINDEX  5322>>ASSIGN   5327<<ASSIGN   5327>>ASSIGN   5344>>DOINDEX  5345>>ASSIGN
      5350<<ASSIGN   5350>>ASSIGN   5369<<ASSIGN   5369>>ASSIGN   5382>>DOINDEX  5404>>ASSIGN   5409>>ASSIGN
      5532>>ASSIGN
LAST_REQID
      3433**DCL      5465>>IF       5515<<ASSIGN
LAST_UTS
      3518**DCL      5423<>CALL     5424<<ASSIGN   5424>>ASSIGN   5425<>CALL     5425>>CALL     5436<>CALL
      5448>>DOWHILE  5452>>IF
PL6.E3A0      #003=THE$PROCESS File=THE$ELAN.:E05TSI                             WED 07/30/97 06:09 Page:256
LOOP
      5462**LABEL    5465--GOTO     5467--GOTO
M$CLOSE
        19**DCL-ENT  4913--CALL     4926--CALL     5400--CALL     5444--CALL     5583--CALL     5615--CALL
      5616--CALL
M$DEVHIST
      3425**DCL      4911--IF       5399--IF       5443--IF       5526--IF       5595--ASSIGN   5600--ASSIGN
      5610--ASSIGN
M$ERRLOG
      3424**DCL      4888--ASSIGN
M$OPEN
        19**DCL-ENT  5401--CALL     5445--CALL     5527--CALL     5587--CALL     5588--CALL
M$PFIL
        21**DCL-ENT  5591--CALL
M$READ
        20**DCL-ENT  5593--CALL     5598--CALL     5605--CALL
M$TIME
        86**DCL-ENT  4921--CALL     5422--CALL     5589--CALL
M$WRITE
        20**DCL-ENT  5405--CALL     5410--CALL     5533--CALL     5543--CALL     5548--CALL     5556--CALL
      5565--CALL     5573--CALL     5581--CALL     5596--CALL     5603--CALL     5611--CALL
MAINT_KEY
      3525**DCL      5403--ASSIGN
MPC
      3733**DCL      5561>>ASSIGN   5564--ASSIGN
MPC.CONNECTS
      3735**DCL      5490<<ASSIGN
MPC.COUNT
      3734**DCL      5489<<ASSIGN   5489>>ASSIGN
MPC$
      3435**DCL      3733--IMP-PTR  5484<<ASSIGN   5489>>ASSIGN   5489>>ASSIGN   5490>>ASSIGN
MPC_NAME
      3509**DCL      5479<<ASSIGN   5481>>IF       5488>>IF
MPC_TBL.DEVNAME
      4009**DCL      5481>>IF       5562>>ASSIGN
MPC_TBL.PTR$
PL6.E3A0      #003=THE$PROCESS File=THE$ELAN.:E05TSI                             WED 07/30/97 06:09 Page:257
      4010**DCL      5484>>ASSIGN   5561>>ASSIGN
MPC_TBL$
      3511**DCL      4008--IMP-PTR  5481>>IF       5484>>ASSIGN   5561>>ASSIGN   5562>>ASSIGN
NI$DCT.DEVNM
      3469**DCL      5488>>IF
NI$DCT.DP
      3489**DCL      3496--REDEF    3499--REDEF    3500--REDEF    3502--REDEF    3502--REDEF    3503--REDEF
      3504--REDEF    3504--REDEF
NI$DCT.MPC.IOCHANX
      3497**DCL      3497--REDEF
NI$DCT.PM.CONNCT
      3480**DCL      5490>>ASSIGN
NO_HEAD
      4895**LABEL    4890--CALLALT
NO_MEM
      5621**LABEL    5457--CALLALT
NUM_DEVS
      3448**DCL      4941<<ASSIGN   5506>>DOINDEX  5569>>DOINDEX
NUM_FEPS
      3449**DCL      4943<<ASSIGN   5552>>DOINDEX
NUM_IOMS
      3446**DCL      4938<<ASSIGN   5467>>IF       5539>>DOINDEX
NUM_MPCS
      3447**DCL      4939<<ASSIGN   5480>>DOINDEX  5560>>DOINDEX
NUM_NEW_COMPS
      3508**DCL      4887<<ASSIGN   4985<<ASSIGN   4985>>ASSIGN   5016<<ASSIGN   5016>>ASSIGN   5050<<ASSIGN
      5050>>ASSIGN   5083<<ASSIGN   5083>>ASSIGN   5115<<ASSIGN   5115>>ASSIGN   5146<<ASSIGN   5146>>ASSIGN
      5177<<ASSIGN   5177>>ASSIGN   5205<<ASSIGN   5205>>ASSIGN   5232<<ASSIGN   5232>>ASSIGN   5258<<ASSIGN
      5258>>ASSIGN   5283<<ASSIGN   5283>>ASSIGN   5307<<ASSIGN   5307>>ASSIGN   5330<<ASSIGN   5330>>ASSIGN
      5352<<ASSIGN   5352>>ASSIGN   5370<<ASSIGN   5370>>ASSIGN   5374>>IF
OLDEST_UTS
      3520**DCL      5436<>CALL     5437>>IF       5439>>ASSIGN   5440>>ASSIGN   5590<>CALL     5602>>ASSIGN
      5606>>IF
OLD_INDX
      3432**DCL      4948<<ASSIGN   5383>>IF
ONE
PL6.E3A0      #003=THE$PROCESS File=THE$ELAN.:E05TSI                             WED 07/30/97 06:09 Page:258
      3442**DCL      5377<>CALL
OPEN_DEV
      4564**DCL      5587<>CALL
OPEN_DEV.ACSVEH_
      4566**DCL      4567--REDEF
OPEN_DEV.ALTKEYS_
      4572**DCL      4573--REDEF    4573--REDEF
OPEN_DEV.HDR_
      4571**DCL      4572--REDEF
OPEN_DEV.TAB_
      4570**DCL      4571--REDEF
OPEN_DEV.UHL_
      4564**DCL      4565--REDEF    4565--REDEF
OPEN_DEV.V
      4573**DCL      4564--DCLINIT
OPEN_DEV.V.FSN#
      4604**DCL      4604--REDEF    4604--REDEF
OPEN_DEV.WSN_
      4570**DCL      4570--REDEF
OPEN_DEVHIST
      4169**DCL      5401<>CALL     5445<>CALL     5527<>CALL
OPEN_DEVHIST.ACSVEH_
      4171**DCL      4172--REDEF
OPEN_DEVHIST.ALTKEYS_
      4177**DCL      4178--REDEF    4178--REDEF
OPEN_DEVHIST.HDR_
      4176**DCL      4177--REDEF
OPEN_DEVHIST.TAB_
      4175**DCL      4176--REDEF
OPEN_DEVHIST.UHL_
      4169**DCL      4170--REDEF    4170--REDEF
OPEN_DEVHIST.V
      4178**DCL      4169--DCLINIT
OPEN_DEVHIST.V.FSN#
      4209**DCL      4209--REDEF    4209--REDEF
OPEN_DEVHIST.WSN_
PL6.E3A0      #003=THE$PROCESS File=THE$ELAN.:E05TSI                             WED 07/30/97 06:09 Page:259
      4175**DCL      4175--REDEF
OPEN_ERR
      5627**LABEL    4936--CALLALT
OPEN_NEWDEV
      4367**DCL      5588<>CALL
OPEN_NEWDEV.ACSVEH_
      4369**DCL      4370--REDEF
OPEN_NEWDEV.ALTKEYS_
      4375**DCL      4376--REDEF    4376--REDEF
OPEN_NEWDEV.HDR_
      4374**DCL      4375--REDEF
OPEN_NEWDEV.TAB_
      4373**DCL      4374--REDEF
OPEN_NEWDEV.UHL_
      4367**DCL      4368--REDEF    4368--REDEF
OPEN_NEWDEV.V
      4376**DCL      4367--DCLINIT
OPEN_NEWDEV.V.FSN#
      4407**DCL      4407--REDEF    4407--REDEF
OPEN_NEWDEV.WSN_
      4373**DCL      4373--REDEF
PFIL_DEVHIST
      4716**DCL      5591<>CALL
PFIL_DEVHIST.V
      4716**DCL      4716--DCLINIT
RD_DEVHIST
      4784**DCL      5593<>CALL     5598<>CALL
RD_DEVHIST.STATION_
      4787**DCL      4788--REDEF
RD_DEVHIST.V
      4788**DCL      4784--DCLINIT
RD_DEVHIST.V.DVBYTE.REREAD#
      4799**DCL      4799--REDEF
RD_DEVHIST.V.INDX#
      4797**DCL      4797--REDEF
RD_KEY
PL6.E3A0      #003=THE$PROCESS File=THE$ELAN.:E05TSI                             WED 07/30/97 06:09 Page:260
      3529**DCL      4741--DCLINIT  4742--DCLINIT  5609--ASSIGN
RD_KEY.UTS
      3532**DCL      5606>>IF
READ_CONFIG_HEAD
      4936**LABEL    4917--GOTO
READ_DEVHIST
      5605**LABEL    5605<>CALL     5613--GOTO
READ_DEVHIST.STATION_
      4744**DCL      4745--REDEF
READ_DEVHIST.V
      4745**DCL      4741--DCLINIT
READ_DEVHIST.V.DVBYTE.REREAD#
      4756**DCL      4756--REDEF
READ_DEVHIST.V.INDX#
      4754**DCL      4754--REDEF
REC_BUF
      3883**DCL      4476--DCLINIT  4477--DCLINIT  4743--DCLINIT  4744--DCLINIT  4786--DCLINIT  4787--DCLINIT
      5602--ASSIGN
REC_BUF.TYPE
      3883**DCL      3883--REDEF
TD$HEAD
      3557**DCL      4937>>ASSIGN
TD_HEAD
      3629**DCL      4937<<ASSIGN   5457<>CALL
TD_HEAD.APMPC_INDX
      3638**DCL      5120>>DOINDEX  5120>>DOINDEX
TD_HEAD.AP_INDX
      3658**DCL      5335>>DOINDEX  5335>>DOINDEX
TD_HEAD.CP_INDX
      3650**DCL      5237>>DOINDEX  5237>>DOINDEX
TD_HEAD.CR_INDX
      3648**DCL      5210>>DOINDEX  5210>>DOINDEX
TD_HEAD.DEVNAME
      3662**DCL      4957>>IF       4968>>ASSIGN   4992>>IF       4999>>ASSIGN   5024>>IF       5035>>ASSIGN
      5058>>IF       5069>>ASSIGN   5091>>IF       5102>>ASSIGN   5123>>IF       5134>>ASSIGN   5155>>IF
      5166>>ASSIGN   5185>>IF       5196>>ASSIGN   5213>>IF       5224>>ASSIGN   5240>>IF       5251>>ASSIGN
PL6.E3A0      #003=THE$PROCESS File=THE$ELAN.:E05TSI                             WED 07/30/97 06:09 Page:261
      5266>>IF       5277>>ASSIGN   5291>>IF       5302>>ASSIGN   5315>>IF       5326>>ASSIGN   5338>>IF
      5349>>ASSIGN   5361>>IF       5368>>ASSIGN
TD_HEAD.DISKMPC_INDX
      3636**DCL      5088>>DOINDEX  5088>>DOINDEX
TD_HEAD.DP_INDX
      3652**DCL      5263>>DOINDEX  5263>>DOINDEX
TD_HEAD.FEP_INDX
      3642**DCL      4989>>DOINDEX  4989>>DOINDEX
TD_HEAD.IOM_INDX
      3630**DCL      4954>>DOINDEX  4954>>DOINDEX
TD_HEAD.LP_INDX
      3646**DCL      5182>>DOINDEX  5182>>DOINDEX
TD_HEAD.MT_INDX
      3654**DCL      5288>>DOINDEX  5288>>DOINDEX
TD_HEAD.NUMAPMPCS
      3639**DCL      4939>>ASSIGN   5120>>DOINDEX
TD_HEAD.NUMAPS
      3659**DCL      4941>>ASSIGN   5335>>DOINDEX
TD_HEAD.NUMCPS
      3651**DCL      4941>>ASSIGN   5237>>DOINDEX
TD_HEAD.NUMCRS
      3649**DCL      4941>>ASSIGN   5210>>DOINDEX
TD_HEAD.NUMDISKMPCS
      3637**DCL      4939>>ASSIGN   5088>>DOINDEX
TD_HEAD.NUMDPS
      3653**DCL      4941>>ASSIGN   5263>>DOINDEX
TD_HEAD.NUMFEPS
      3643**DCL      4943>>ASSIGN   4989>>DOINDEX
TD_HEAD.NUMIOMS
      3631**DCL      4938>>ASSIGN   4954>>DOINDEX
TD_HEAD.NUMLPS
      3647**DCL      4941>>ASSIGN   5182>>DOINDEX
TD_HEAD.NUMMTS
      3655**DCL      4941>>ASSIGN   5288>>DOINDEX
TD_HEAD.NUMODS
      3661**DCL      4941>>ASSIGN   5358>>DOINDEX
PL6.E3A0      #003=THE$PROCESS File=THE$ELAN.:E05TSI                             WED 07/30/97 06:09 Page:262
TD_HEAD.NUMOPCS
      3641**DCL      4939>>ASSIGN   5152>>DOINDEX
TD_HEAD.NUMTAPEMPCS
      3635**DCL      4939>>ASSIGN   5055>>DOINDEX
TD_HEAD.NUMUNITMPCS
      3633**DCL      4939>>ASSIGN   5021>>DOINDEX
TD_HEAD.NUMXXS
      3657**DCL      4941>>ASSIGN   5312>>DOINDEX
TD_HEAD.OD_INDX
      3660**DCL      5358>>DOINDEX  5358>>DOINDEX
TD_HEAD.OPC_INDX
      3640**DCL      5152>>DOINDEX  5152>>DOINDEX
TD_HEAD.TAPEMPC_INDX
      3634**DCL      5055>>DOINDEX  5055>>DOINDEX
TD_HEAD.UNITMPC_INDX
      3632**DCL      5021>>DOINDEX  5021>>DOINDEX
TD_HEAD.XX_INDX
      3656**DCL      5312>>DOINDEX  5312>>DOINDEX
TEMP_MAINT
      3802**DCL      5386<<ASSIGN   5402--ASSIGN
TEMP_MAINT.DEVNAME
      3803**DCL      5392<<ASSIGN
TEMP_MAINT.UTS
      3804**DCL      5393<<ASSIGN
TEMP_THRESH
      3786**DCL      5387<<ASSIGN   5408--ASSIGN
TEMP_THRESH.ALERT
      3789**DCL      5396<<ASSIGN
TEMP_THRESH.ATTEN
      3788**DCL      5395<<ASSIGN
TEMP_THRESH.DEVNAME
      3787**DCL      5394<<ASSIGN
TEMP_UTS
      3546**DCL      4923<>CALL     4924>>IF
TH$HEAD
      3593**DCL      4908>>ASSIGN   4915>>ASSIGN
PL6.E3A0      #003=THE$PROCESS File=THE$ELAN.:E05TSI                             WED 07/30/97 06:09 Page:263
TH$MAINT
      3792**DCL      5380>>ASSIGN
TH$THRESH
      3774**DCL      5378>>ASSIGN
TH$UTS
      3768**DCL      4910>>ASSIGN   5419>>ASSIGN
TH$UTS.OLDEST_UTS
      3769**DCL      5602<<ASSIGN
THD$DEVHIST
      3421**DCL-ENT  4897--CALL     4914--CALL
THE$INIT
      3419**DCL-ENT  5457--CALL
THG$CLOSEXSA
      3418**DCL-ENT  5582--CALL
THG$GETREC
      3416**DCL-ENT  4890--CALL     4909--CALL     4936--CALL     5377--CALL     5379--CALL     5418--CALL
      5462--CALL
THG$OPENXSA
      3417**DCL-ENT  5458--CALL
THM$ERRMSG
      3420**DCL-ENT  4904--CALL     5621--CALL     5627--CALL     5632--CALL
THREE
      3444**DCL      4909<>CALL     5418<>CALL
THRESH_KEY
      3524**DCL      5407--ASSIGN
TH_CHAN
      3868**DCL      5544<<ASSIGN   5547--ASSIGN
TH_CONSTRAINTS
      2839**DCL      5415<<ASSIGN
TH_CONSTRAINTS.E_BY_B
      2842**DCL      2842--REDEF
TH_CONSTRAINTS.M_BY_B
      2841**DCL      2841--REDEF
TH_CONSTRAINTS.START
      2840**DCL      5450<<ASSIGN   5451<<ASSIGN   5458<>CALL
TH_CONSTRAINTS.STOP
PL6.E3A0      #003=THE$PROCESS File=THE$ELAN.:E05TSI                             WED 07/30/97 06:09 Page:264
      2840**DCL      5453<<ASSIGN   5454<>CALL
TH_CONSTRAINTS.TYPES
      2839**DCL      2839--REDEF
TH_DCT$
      2874**DCL      5486>>ASSIGN
TH_DEFAULT
      2846**DCL      5415>>ASSIGN
TH_DEFAULT.E_BY_B
      2850**DCL      2850--REDEF
TH_DEFAULT.M_BY_B
      2849**DCL      2849--REDEF
TH_DEFAULT.TYPES
      2847**DCL      2847--REDEF
TH_DEV
      3847**DCL      5571<<ASSIGN   5572--ASSIGN
TH_DEVHIST_MODE
      2864**DCL      4891>>IF       4919>>IF       4928<<ASSIGN   4951>>IF
TH_FEP
      3840**DCL      5554<<ASSIGN   5555--ASSIGN
TH_HEAD
      3665**DCL      4908<<ASSIGN   4915<<ASSIGN   5531--ASSIGN   5532--ASSIGN
TH_HEAD.APMPC_INDX
      3674**DCL      4974<<ASSIGN   4974>>ASSIGN   5005<<ASSIGN   5005>>ASSIGN   5039<<ASSIGN   5039>>ASSIGN
      5072<<ASSIGN   5072>>ASSIGN   5097>>DOINDEX  5098>>ASSIGN   5104<<ASSIGN   5104>>ASSIGN   5122>>DOINDEX
      5122>>DOINDEX  5134>>ASSIGN
TH_HEAD.AP_INDX
      3694**DCL      4983<<ASSIGN   4983>>ASSIGN   5014<<ASSIGN   5014>>ASSIGN   5048<<ASSIGN   5048>>ASSIGN
      5081<<ASSIGN   5081>>ASSIGN   5113<<ASSIGN   5113>>ASSIGN   5144<<ASSIGN   5144>>ASSIGN   5175<<ASSIGN
      5175>>ASSIGN   5203<<ASSIGN   5203>>ASSIGN   5230<<ASSIGN   5230>>ASSIGN   5256<<ASSIGN   5256>>ASSIGN
      5281<<ASSIGN   5281>>ASSIGN   5305<<ASSIGN   5305>>ASSIGN   5321>>DOINDEX  5322>>ASSIGN   5328<<ASSIGN
      5328>>ASSIGN   5337>>DOINDEX  5337>>DOINDEX  5349>>ASSIGN
TH_HEAD.CONSOLE_INDX
      3680**DCL      4976<<ASSIGN   4976>>ASSIGN   5007<<ASSIGN   5007>>ASSIGN   5041<<ASSIGN   5041>>ASSIGN
      5074<<ASSIGN   5074>>ASSIGN   5106<<ASSIGN   5106>>ASSIGN   5137<<ASSIGN   5137>>ASSIGN   5161>>DOINDEX
      5162>>ASSIGN   5168<<ASSIGN   5168>>ASSIGN
TH_HEAD.CP_INDX
PL6.E3A0      #003=THE$PROCESS File=THE$ELAN.:E05TSI                             WED 07/30/97 06:09 Page:265
      3686**DCL      4979<<ASSIGN   4979>>ASSIGN   5010<<ASSIGN   5010>>ASSIGN   5044<<ASSIGN   5044>>ASSIGN
      5077<<ASSIGN   5077>>ASSIGN   5109<<ASSIGN   5109>>ASSIGN   5140<<ASSIGN   5140>>ASSIGN   5171<<ASSIGN
      5171>>ASSIGN   5199<<ASSIGN   5199>>ASSIGN   5219>>DOINDEX  5220>>ASSIGN   5226<<ASSIGN   5226>>ASSIGN
      5239>>DOINDEX  5239>>DOINDEX  5251>>ASSIGN
TH_HEAD.CR_INDX
      3684**DCL      4978<<ASSIGN   4978>>ASSIGN   5009<<ASSIGN   5009>>ASSIGN   5043<<ASSIGN   5043>>ASSIGN
      5076<<ASSIGN   5076>>ASSIGN   5108<<ASSIGN   5108>>ASSIGN   5139<<ASSIGN   5139>>ASSIGN   5170<<ASSIGN
      5170>>ASSIGN   5191>>DOINDEX  5192>>ASSIGN   5198<<ASSIGN   5198>>ASSIGN   5212>>DOINDEX  5212>>DOINDEX
      5224>>ASSIGN
TH_HEAD.DEVNAME
      3698**DCL      4957>>IF       4965<<ASSIGN   4965>>ASSIGN   4968<<ASSIGN   4992>>IF       4997<<ASSIGN
      4997>>ASSIGN   4999<<ASSIGN   5024>>IF       5032<<ASSIGN   5032>>ASSIGN   5035<<ASSIGN   5058>>IF
      5066<<ASSIGN   5066>>ASSIGN   5069<<ASSIGN   5091>>IF       5099<<ASSIGN   5099>>ASSIGN   5102<<ASSIGN
      5123>>IF       5131<<ASSIGN   5131>>ASSIGN   5134<<ASSIGN   5155>>IF       5163<<ASSIGN   5163>>ASSIGN
      5166<<ASSIGN   5185>>IF       5193<<ASSIGN   5193>>ASSIGN   5196<<ASSIGN   5213>>IF       5221<<ASSIGN
      5221>>ASSIGN   5224<<ASSIGN   5240>>IF       5248<<ASSIGN   5248>>ASSIGN   5251<<ASSIGN   5266>>IF
      5274<<ASSIGN   5274>>ASSIGN   5277<<ASSIGN   5291>>IF       5299<<ASSIGN   5299>>ASSIGN   5302<<ASSIGN
      5315>>IF       5323<<ASSIGN   5323>>ASSIGN   5326<<ASSIGN   5338>>IF       5346<<ASSIGN   5346>>ASSIGN
      5349<<ASSIGN   5361>>IF       5368<<ASSIGN   5383>>IF       5392>>ASSIGN   5394>>ASSIGN
TH_HEAD.DISKMPC_INDX
      3672**DCL      4973<<ASSIGN   4973>>ASSIGN   5004<<ASSIGN   5004>>ASSIGN   5038<<ASSIGN   5038>>ASSIGN
      5064>>DOINDEX  5065>>ASSIGN   5071<<ASSIGN   5071>>ASSIGN   5090>>DOINDEX  5090>>DOINDEX  5102>>ASSIGN
TH_HEAD.DP_INDX
      3688**DCL      4980<<ASSIGN   4980>>ASSIGN   5011<<ASSIGN   5011>>ASSIGN   5045<<ASSIGN   5045>>ASSIGN
      5078<<ASSIGN   5078>>ASSIGN   5110<<ASSIGN   5110>>ASSIGN   5141<<ASSIGN   5141>>ASSIGN   5172<<ASSIGN
      5172>>ASSIGN   5200<<ASSIGN   5200>>ASSIGN   5227<<ASSIGN   5227>>ASSIGN   5246>>DOINDEX  5247>>ASSIGN
      5253<<ASSIGN   5253>>ASSIGN   5265>>DOINDEX  5265>>DOINDEX  5277>>ASSIGN
TH_HEAD.FEP_INDX
      3678**DCL      4963>>DOINDEX  4964>>ASSIGN   4970<<ASSIGN   4970>>ASSIGN   4991>>DOINDEX  4991>>DOINDEX
      4999>>ASSIGN
TH_HEAD.IOM_INDX
      3666**DCL      4956>>DOINDEX  4956>>DOINDEX  4968>>ASSIGN
TH_HEAD.LP_INDX
      3682**DCL      4977<<ASSIGN   4977>>ASSIGN   5008<<ASSIGN   5008>>ASSIGN   5042<<ASSIGN   5042>>ASSIGN
      5075<<ASSIGN   5075>>ASSIGN   5107<<ASSIGN   5107>>ASSIGN   5138<<ASSIGN   5138>>ASSIGN   5169<<ASSIGN
      5169>>ASSIGN   5184>>DOINDEX  5184>>DOINDEX  5196>>ASSIGN
PL6.E3A0      #003=THE$PROCESS File=THE$ELAN.:E05TSI                             WED 07/30/97 06:09 Page:266
TH_HEAD.MT_INDX
      3690**DCL      4981<<ASSIGN   4981>>ASSIGN   5012<<ASSIGN   5012>>ASSIGN   5046<<ASSIGN   5046>>ASSIGN
      5079<<ASSIGN   5079>>ASSIGN   5111<<ASSIGN   5111>>ASSIGN   5142<<ASSIGN   5142>>ASSIGN   5173<<ASSIGN
      5173>>ASSIGN   5201<<ASSIGN   5201>>ASSIGN   5228<<ASSIGN   5228>>ASSIGN   5254<<ASSIGN   5254>>ASSIGN
      5272>>DOINDEX  5273>>ASSIGN   5279<<ASSIGN   5279>>ASSIGN   5290>>DOINDEX  5290>>DOINDEX  5302>>ASSIGN
TH_HEAD.NUMAPMPCS
      3675**DCL      5122>>DOINDEX  5133<<ASSIGN   5133>>ASSIGN   5134>>ASSIGN
TH_HEAD.NUMAPS
      3695**DCL      5337>>DOINDEX  5348<<ASSIGN   5348>>ASSIGN   5349>>ASSIGN
TH_HEAD.NUMCPS
      3687**DCL      5239>>DOINDEX  5250<<ASSIGN   5250>>ASSIGN   5251>>ASSIGN
TH_HEAD.NUMCRS
      3685**DCL      5212>>DOINDEX  5223<<ASSIGN   5223>>ASSIGN   5224>>ASSIGN
TH_HEAD.NUMDISKMPCS
      3673**DCL      5090>>DOINDEX  5101<<ASSIGN   5101>>ASSIGN   5102>>ASSIGN
TH_HEAD.NUMDPS
      3689**DCL      5265>>DOINDEX  5276<<ASSIGN   5276>>ASSIGN   5277>>ASSIGN
TH_HEAD.NUMFEPS
      3679**DCL      4991>>DOINDEX  4999>>ASSIGN   5000<<ASSIGN   5000>>ASSIGN
TH_HEAD.NUMIOMS
      3667**DCL      4956>>DOINDEX  4967<<ASSIGN   4967>>ASSIGN   4968>>ASSIGN
TH_HEAD.NUMLPS
      3683**DCL      5184>>DOINDEX  5195<<ASSIGN   5195>>ASSIGN   5196>>ASSIGN
TH_HEAD.NUMMTS
      3691**DCL      5290>>DOINDEX  5301<<ASSIGN   5301>>ASSIGN   5302>>ASSIGN
TH_HEAD.NUMODS
      3697**DCL      4947>>ASSIGN   5360>>DOINDEX  5367<<ASSIGN   5367>>ASSIGN   5368>>ASSIGN
TH_HEAD.NUMOPCS
      3677**DCL      5154>>DOINDEX  5165<<ASSIGN   5165>>ASSIGN   5166>>ASSIGN
TH_HEAD.NUMTAPEMPCS
      3671**DCL      5057>>DOINDEX  5068<<ASSIGN   5068>>ASSIGN   5069>>ASSIGN
TH_HEAD.NUMUNITMPCS
      3669**DCL      5023>>DOINDEX  5034<<ASSIGN   5034>>ASSIGN   5035>>ASSIGN
TH_HEAD.NUMXXS
      3693**DCL      5314>>DOINDEX  5325<<ASSIGN   5325>>ASSIGN   5326>>ASSIGN
TH_HEAD.OD_INDX
PL6.E3A0      #003=THE$PROCESS File=THE$ELAN.:E05TSI                             WED 07/30/97 06:09 Page:267
      3696**DCL      4947>>ASSIGN   4984<<ASSIGN   4984>>ASSIGN   5015<<ASSIGN   5015>>ASSIGN   5049<<ASSIGN
      5049>>ASSIGN   5082<<ASSIGN   5082>>ASSIGN   5114<<ASSIGN   5114>>ASSIGN   5145<<ASSIGN   5145>>ASSIGN
      5176<<ASSIGN   5176>>ASSIGN   5204<<ASSIGN   5204>>ASSIGN   5231<<ASSIGN   5231>>ASSIGN   5257<<ASSIGN
      5257>>ASSIGN   5282<<ASSIGN   5282>>ASSIGN   5306<<ASSIGN   5306>>ASSIGN   5329<<ASSIGN   5329>>ASSIGN
      5344>>DOINDEX  5345>>ASSIGN   5351<<ASSIGN   5351>>ASSIGN   5360>>DOINDEX  5360>>DOINDEX  5368>>ASSIGN
TH_HEAD.OPC_INDX
      3676**DCL      4975<<ASSIGN   4975>>ASSIGN   5006<<ASSIGN   5006>>ASSIGN   5040<<ASSIGN   5040>>ASSIGN
      5073<<ASSIGN   5073>>ASSIGN   5105<<ASSIGN   5105>>ASSIGN   5129>>DOINDEX  5130>>ASSIGN   5136<<ASSIGN
      5136>>ASSIGN   5154>>DOINDEX  5154>>DOINDEX  5166>>ASSIGN
TH_HEAD.TAPEMPC_INDX
      3670**DCL      4972<<ASSIGN   4972>>ASSIGN   5003<<ASSIGN   5003>>ASSIGN   5030>>DOINDEX  5031>>ASSIGN
      5037<<ASSIGN   5037>>ASSIGN   5057>>DOINDEX  5057>>DOINDEX  5069>>ASSIGN
TH_HEAD.UNITMPC_INDX
      3668**DCL      4971<<ASSIGN   4971>>ASSIGN   4996>>DOINDEX  5002<<ASSIGN   5002>>ASSIGN   5023>>DOINDEX
      5023>>DOINDEX  5035>>ASSIGN
TH_HEAD.XX_INDX
      3692**DCL      4982<<ASSIGN   4982>>ASSIGN   5013<<ASSIGN   5013>>ASSIGN   5047<<ASSIGN   5047>>ASSIGN
      5080<<ASSIGN   5080>>ASSIGN   5112<<ASSIGN   5112>>ASSIGN   5143<<ASSIGN   5143>>ASSIGN   5174<<ASSIGN
      5174>>ASSIGN   5202<<ASSIGN   5202>>ASSIGN   5229<<ASSIGN   5229>>ASSIGN   5255<<ASSIGN   5255>>ASSIGN
      5280<<ASSIGN   5280>>ASSIGN   5297>>DOINDEX  5298>>ASSIGN   5304<<ASSIGN   5304>>ASSIGN   5314>>DOINDEX
      5314>>DOINDEX  5326>>ASSIGN
TH_INFO.PTR$
      2868**DCL      3887--IMP-PTR  3897--IMP-PTR  3906--IMP-PTR  3985--IMP-PTR  3995--IMP-PTR  3999--IMP-PTR
      5465>>IF       5466>>ASSIGN   5468>>ASSIGN   5469>>IF       5474>>ASSIGN   5476>>IF       5496>>IF
      5501>>ASSIGN   5504>>IF       5507>>IF       5512>>ASSIGN   5515>>ASSIGN
TH_IOM
      3829**DCL      5540<<ASSIGN   5542--ASSIGN
TH_ITYPE
      2869**DCL      5463>>DOCASE
TH_M$ERRLOG$
      2877**DCL      4888<<ASSIGN
TH_MAINT
      3797**DCL      5380<<ASSIGN   5386>>ASSIGN   5404--ASSIGN
TH_MAINT.DEVNAME
      3798**DCL      5383>>IF
TH_MAXDCTX
PL6.E3A0      #003=THE$PROCESS File=THE$ELAN.:E05TSI                             WED 07/30/97 06:09 Page:268
      2873**DCL      5485>>DOINDEX
TH_MPC
      3808**DCL      5561<<ASSIGN   5563--ASSIGN
TH_MPC.NUMDEVS
      3818**DCL      5564>>ASSIGN
TH_PHONY_GHOST
      2863**DCL      4949>>IF
TH_REBUILD
      2864**DCL      4898<<ASSIGN   4916<<ASSIGN   4927<<ASSIGN   4931<<ASSIGN   5585>>IF       5617<<ASSIGN
TH_RECORD.PTR$
      2867**DCL      4908>>ASSIGN   4910>>ASSIGN   4915>>ASSIGN   4937>>ASSIGN   5378>>ASSIGN   5380>>ASSIGN
      5419>>ASSIGN
TH_SAVE.E_BY_B
      2858**DCL      2858--REDEF
TH_SAVE.M_BY_B
      2856**DCL      2856--REDEF
TH_SAVE.TYPES
      2854**DCL      2855--REDEF
TH_THRESH
      3780**DCL      5378<<ASSIGN   5387>>ASSIGN   5409--ASSIGN
TH_UTS
      3875**DCL      4910<<ASSIGN   5419<<ASSIGN   5580--ASSIGN
TH_UTS.ERRLOG_UTS
      3877**DCL      5420>>ASSIGN   5579<<ASSIGN
TH_UTS.OLDEST_UTS
      3876**DCL      4923<>CALL
TH_XSA_BUF_VECTOR
      2874**DCL      2874--REDEF
TWO
      3443**DCL      5379<>CALL
UTS
      3515**DCL      5447<<ASSIGN   5448>>DOWHILE  5449>>IF       5451>>ASSIGN   5452>>IF       5454<>CALL
      5535>>ASSIGN   5575<>CALL     5575<>CALL
UTS_KEY
      3526**DCL      5578--ASSIGN
VEHLIST
PL6.E3A0      #003=THE$PROCESS File=THE$ELAN.:E05TSI                             WED 07/30/97 06:09 Page:269
      4848**DCL      4370--DCLINIT
VEHLIST.Q
      4849**DCL      4848--DCLINIT
WRITE_DEVHIST
      4231**DCL      5405<>CALL     5410<>CALL     5533<>CALL     5543<>CALL     5548<>CALL     5556<>CALL
      5565<>CALL     5573<>CALL     5581<>CALL
WRITE_DEVHIST.BUF_
      4231**DCL      5402<<ASSIGN   5408<<ASSIGN   5531<<ASSIGN   5542<<ASSIGN   5547<<ASSIGN   5555<<ASSIGN
      5563<<ASSIGN   5572<<ASSIGN   5580<<ASSIGN
WRITE_DEVHIST.BUF_.BOUND
      4231**DCL      5404<<ASSIGN   5409<<ASSIGN   5532<<ASSIGN   5564<<ASSIGN
WRITE_DEVHIST.KEY_
      4231**DCL      5403<<ASSIGN   5407<<ASSIGN   5530<<ASSIGN   5536<<ASSIGN   5578<<ASSIGN
WRITE_DEVHIST.STATION_
      4233**DCL      4233--REDEF
WRITE_DEVHIST.V
      4234**DCL      4231--DCLINIT
WRITE_DEVHIST.V.DVBYTE.VFC#
      4240**DCL      4240--REDEF
WRITE_NEWDEV
      4475**DCL      5596<>CALL     5603<>CALL     5611<>CALL
WRITE_NEWDEV.BUF_.BOUND
      4475**DCL      5595<<ASSIGN   5600<<ASSIGN   5610<<ASSIGN
WRITE_NEWDEV.KEY_
      4475**DCL      5594<<ASSIGN   5599<<ASSIGN   5609<<ASSIGN
WRITE_NEWDEV.STATION_
      4477**DCL      4477--REDEF
WRITE_NEWDEV.V
      4478**DCL      4475--DCLINIT
WRITE_NEWDEV.V.DVBYTE.VFC#
      4484**DCL      4484--REDEF
XUD$UTS_ADJ_25TH
      4060**DCL-ENT  4923--CALL     5425--CALL     5429--CALL     5435--CALL     5436--CALL     5454--CALL
      5575--CALL     5590--CALL
XUD$UTS_DIFF_SEC
      4042**DCL-ENT  5423--CALL     5427--CALL     5433--CALL
PL6.E3A0      #003=THE$PROCESS File=THE$ELAN.:E05TSI                             WED 07/30/97 06:09 Page:270
ZERO
      3441**DCL      4890<>CALL     4936<>CALL

