PL6.E3A0      #010=THF$STATUS File=THF$FORMAT.:E05TSI                            WED 07/30/97 06:19 Page:1161
     6019        1        /*M* THF$STATUS - RETURN TEXT TRANSLATION OF MAJOR AND MINOR STATUS CODES */
     6020        2        /*T***********************************************************/
     6021        3        /*T*                                                         */
     6022        4        /*T* Copyright (c) Bull HN Information Systems Inc., 1997    */
     6023        5        /*T*                                                         */
     6024        6        /*T***********************************************************/
     6025        7        THF$STATUS: PROC(IOERR,MAJBUF,MAJCOUNT,MINBUF,MINCOUNT) ALTRET;
     6026        8        %INCLUDE EL$TABLES;
     6027      331        /**/
     6028      332        /* PARAMS */
     6029      333        %EL$IOERR (NAME=IOERR,STCLASS="");
     6030      343    1   DCL MAJBUF CHAR(32);
     6031      344    1   DCL MAJCOUNT UBIN WORD;
     6032      345    1   DCL MINBUF CHAR(32);
     6033      346    1   DCL MINCOUNT UBIN WORD;
     6034      347        /**/
     6035      348        /* INCLUDE FILES */
     6036      349        %INCLUDE NI_DATA_C;
     6037      462        /**/
     6038      463        /* VARS */
     6039      464        %SUB NUMSTATUS = 10;
     6040      465        %SUB NUMMINORS = 19;
     6041      466    1   DCL TYPE$(0:4) PTR STATIC INIT(ADDR(DP_TBL),ADDR(MT_TBL),ADDR(LP_TBL),ADDR(CRP_TBL),
               466            ADDR(MCA_TBL));
     6042      467    1   DCL 1 MAJ_STATUS_TBL(0:NUMSTATUS) CONSTANT ALIGNED,
     6043      468    1         2 MAJOR UBIN(4) UNAL INIT(%READY,
     6044      469    1                                   %DEVICE_BUSY,
     6045      470    1                                   %ATTENTION,
     6046      471    1                                   %DATA_ALERT,
     6047      472    1                                   %END_OF_FILE,
     6048      473    1                                   %COMMAND_REJECT,
     6049      474    1                                   %LOST_INTERRUPT,
     6050      475    1                                   %MPC_ATTENTION,
     6051      476    1                                   %MPC_DATA_ALERT,
     6052      477    1                                   %MPC_COMMAND_REJECT,
     6053      478    1                                   %SYSTEM_FAULT),
     6054      479    1         2 COUNT UBIN BYTE UNAL INIT(5,11,9,10,6,14,9,13,14,14,12),
PL6.E3A0      #010=THF$STATUS File=THF$FORMAT.:E05TSI                            WED 07/30/97 06:19 Page:1162
     6055      480    1         2 TEXT CHAR(20) UNAL INIT('READY',
     6056      481    1                                   'DEVICE BUSY',
     6057      482    1                                   'ATTENTION',
     6058      483    1                                   'DATA ALERT',
     6059      484    1                                   'E.O.F.',
     6060      485    1                                   'COMMAND REJECT',
     6061      486    1                                   'LOST INT.',
     6062      487    1                                   'MPC ATTENTION',
     6063      488    1                                   'MPC DATA ALERT',
     6064      489    1                                   'MPC CMD REJECT',
     6065      490    1                                   'SYSTEM FAULT');
     6066      491    1   DCL 1 DP_TBL(0:NUMSTATUS) CONSTANT ALIGNED,
     6067      492    1         2 MAJOR UBIN(4) UNAL INIT(%READY,
     6068      493    1                                   %DEVICE_BUSY,
     6069      494    1                                   %ATTENTION,
     6070      495    1                                   %DATA_ALERT,
     6071      496    1                                   %END_OF_FILE,
     6072      497    1                                   %COMMAND_REJECT,
     6073      498    1                                   %LOST_INTERRUPT,
     6074      499    1                                   %MPC_ATTENTION,
     6075      500    1                                   %MPC_DATA_ALERT,
     6076      501    1                                   %MPC_COMMAND_REJECT,
     6077      502    1                                   %SYSTEM_FAULT),
     6078      503    1         2 SUB$ PTR INIT(ADDR(DP_READY),
     6079      504    1                         ADDR(DP_DEVICE_BUSY),
     6080      505    1                         ADDR(DP_ATTENTION),
     6081      506    1                         ADDR(DP_DATA_ALERT),
     6082      507    1                         ADDR(DP_END_OF_FILE),
     6083      508    1                         ADDR(DP_COMMAND_REJECT),
     6084      509    1                         ADDR(NIL),
     6085      510    1                         ADDR(DP_MPC_ATTENTION),
     6086      511    1                         ADDR(DP_MPC_DATA_ALERT),
     6087      512    1                         ADDR(DP_MPC_COMMAND_REJECT),
     6088      513    1                         ADDR(NIL));
     6089      514    1   DCL 1 MT_TBL(0:NUMSTATUS) CONSTANT ALIGNED,
     6090      515    1         2 MAJOR UBIN(4) UNAL INIT(%READY,
     6091      516    1                                   %DEVICE_BUSY,
PL6.E3A0      #010=THF$STATUS File=THF$FORMAT.:E05TSI                            WED 07/30/97 06:19 Page:1163
     6092      517    1                                   %ATTENTION,
     6093      518    1                                   %DATA_ALERT,
     6094      519    1                                   %END_OF_FILE,
     6095      520    1                                   %COMMAND_REJECT,
     6096      521    1                                   %LOST_INTERRUPT,
     6097      522    1                                   %MPC_ATTENTION,
     6098      523    1                                   %MPC_DATA_ALERT,
     6099      524    1                                   %MPC_COMMAND_REJECT,
     6100      525    1                                   %SYSTEM_FAULT),
     6101      526    1         2 SUB$ PTR INIT(ADDR(MT_READY),
     6102      527    1                         ADDR(MT_DEVICE_BUSY),
     6103      528    1                         ADDR(MT_ATTENTION),
     6104      529    1                         ADDR(MT_DATA_ALERT),
     6105      530    1                         ADDR(MT_END_OF_FILE),
     6106      531    1                         ADDR(MT_COMMAND_REJECT),
     6107      532    1                         ADDR(NIL),
     6108      533    1                         ADDR(MT_MPC_ATTENTION),
     6109      534    1                         ADDR(MT_MPC_DATA_ALERT),
     6110      535    1                         ADDR(MT_MPC_COMMAND_REJECT),
     6111      536    1                         ADDR(NIL));
     6112      537    1   DCL 1 LP_TBL(0:NUMSTATUS) CONSTANT ALIGNED,
     6113      538    1         2 MAJOR UBIN(4) UNAL INIT(%READY,
     6114      539    1                                   %DEVICE_BUSY,
     6115      540    1                                   %ATTENTION,
     6116      541    1                                   %DATA_ALERT,
     6117      542    1                                   %END_OF_FILE,
     6118      543    1                                   %COMMAND_REJECT,
     6119      544    1                                   %LOST_INTERRUPT,
     6120      545    1                                   %MPC_ATTENTION,
     6121      546    1                                   %MPC_DATA_ALERT,
     6122      547    1                                   %MPC_COMMAND_REJECT,
     6123      548    1                                   %SYSTEM_FAULT),
     6124      549    1         2 SUB$ PTR INIT(ADDR(LP_READY),
     6125      550    1                         ADDR(NIL),
     6126      551    1                         ADDR(LP_ATTENTION),
     6127      552    1                         ADDR(LP_DATA_ALERT),
     6128      553    1                         ADDR(NIL),
PL6.E3A0      #010=THF$STATUS File=THF$FORMAT.:E05TSI                            WED 07/30/97 06:19 Page:1164
     6129      554    1                         ADDR(LP_COMMAND_REJECT),
     6130      555    1                         ADDR(NIL),
     6131      556    1                         ADDR(LP_MPC_ATTENTION),
     6132      557    1                         ADDR(LP_MPC_DATA_ALERT),
     6133      558    1                         ADDR(LP_MPC_COMMAND_REJECT),
     6134      559    1                         ADDR(NIL));
     6135      560    1   DCL 1 CRP_TBL(0:NUMSTATUS) CONSTANT ALIGNED,
     6136      561    1         2 MAJOR UBIN(4) UNAL INIT(%READY,
     6137      562    1                                   %DEVICE_BUSY,
     6138      563    1                                   %ATTENTION,
     6139      564    1                                   %DATA_ALERT,
     6140      565    1                                   %END_OF_FILE,
     6141      566    1                                   %COMMAND_REJECT,
     6142      567    1                                   %LOST_INTERRUPT,
     6143      568    1                                   %MPC_ATTENTION,
     6144      569    1                                   %MPC_DATA_ALERT,
     6145      570    1                                   %MPC_COMMAND_REJECT,
     6146      571    1                                   %SYSTEM_FAULT),
     6147      572    1         2 SUB$ PTR INIT(ADDR(CRP_READY),
     6148      573    1                         ADDR(NIL),
     6149      574    1                         ADDR(CRP_ATTENTION),
     6150      575    1                         ADDR(CRP_DATA_ALERT),
     6151      576    1                         ADDR(NIL),
     6152      577    1                         ADDR(CRP_COMMAND_REJECT),
     6153      578    1                         ADDR(NIL),
     6154      579    1                         ADDR(CRP_MPC_ATTENTION),
     6155      580    1                         ADDR(CRP_MPC_DATA_ALERT),
     6156      581    1                         ADDR(CRP_MPC_COMMAND_REJECT),
     6157      582    1                         ADDR(NIL));
     6158      583    1   DCL 1 MCA_TBL(0:NUMSTATUS) CONSTANT ALIGNED,
     6159      584    1         2 MAJOR UBIN(4) UNAL INIT(%READY,
     6160      585    1                                   %DEVICE_BUSY,
     6161      586    1                                   %ATTENTION,
     6162      587    1                                   %DATA_ALERT,
     6163      588    1                                   %END_OF_FILE,
     6164      589    1                                   %COMMAND_REJECT,
     6165      590    1                                   %LOST_INTERRUPT,
PL6.E3A0      #010=THF$STATUS File=THF$FORMAT.:E05TSI                            WED 07/30/97 06:19 Page:1165
     6166      591    1                                   %MPC_ATTENTION,
     6167      592    1                                   %MPC_DATA_ALERT,
     6168      593    1                                   %MPC_COMMAND_REJECT,
     6169      594    1                                   %SYSTEM_FAULT),
     6170      595    1         2 SUB$ PTR INIT(ADDR(MCA_READY),
     6171      596    1                         ADDR(NIL),
     6172      597    1                         ADDR(MCA_ATTENTION),
     6173      598    1                         ADDR(MCA_DATA_ALERT),
     6174      599    1                         ADDR(NIL),
     6175      600    1                         ADDR(MCA_COMMAND_REJECT),
     6176      601    1                         ADDR(NIL),
     6177      602    1                         ADDR(MCA_MPC_ATTENTION),
     6178      603    1                         ADDR(MCA_MPC_DATA_ALERT),
     6179      604    1                         ADDR(MCA_MPC_COMMAND_REJECT),
     6180      605    1                         ADDR(NIL));
     6181      606    1   DCL 1 DP_READY(0:NUMMINORS) CONSTANT ALIGNED,
     6182      607    1         2 MASK BIT(1) UNAL INIT('0'B*0),
     6183      608    1         2 CODE BIT(6) UNAL INIT('00'O,'01'O,'02'O,'03'O,'20'O,'00'O*0),
     6184      609    1         2 COUNT UBIN BYTE UNAL INIT(5,7,9,9,15,0*0),
     6185      610    1         2 TEXT CHAR(20) UNAL INIT('READY',
     6186      611    1                                   '1 RETRY',
     6187      612    1                                   '2 RETRIES',
     6188      613    1                                   '3 RETRIES',
     6189      614    1                                   'EDAC CORRECTION',' '*0);
     6190      615    1   DCL 1 DP_DEVICE_BUSY (0:NUMMINORS) CONSTANT ALIGNED,
     6191      616    1         2 MASK BIT(1) UNAL INIT('0'B*0),
     6192      617    1         2 CODE BIT(6) UNAL INIT('00'O,'20'O,'01'O,'40'O,'00'O*0),
     6193      618    1         2 COUNT UBIN BYTE UNAL INIT(15,17,19,11,0*0),
     6194      619    1         2 TEXT CHAR(20) UNAL INIT('DEV POSITIONING',
     6195      620    1                                   'CONTROL UNIT BUSY',
     6196      621    1                                   'IPI/DEV RESP ~AVAIL',
     6197      622    1                                   'ALT CHANNEL',' '*0);
     6198      623    1   DCL 1 DP_ATTENTION (0:NUMMINORS) CONSTANT ALIGNED,
     6199      624    1         2 MASK BIT(1) UNAL INIT('0'B*0),
     6200      625    1         2 CODE BIT(6) UNAL INIT('10'O,'14'O,'40'O,'15'O,'02'O,'16'O,'01'O,'20'O,'00'O*
               625                  0),
     6201      626    1         2 COUNT UBIN BYTE UNAL INIT(8,9,11,10,15,8,13,14,0*0),
PL6.E3A0      #010=THF$STATUS File=THF$FORMAT.:E05TSI                            WED 07/30/97 06:19 Page:1166
     6202      627    1         2 TEXT CHAR(20) UNAL INIT('DEV INOP',
     6203      628    1                                   'EN1 ALERT',
     6204      629    1                                   'DEV OFFLINE',
     6205      630    1                                   'CA EN1 ALERT',
     6206      631    1                                   'SEEK INCOMPLETE',
     6207      632    1                                   'CA ALERT',
     6208      633    1                                   'WRITE INHIBIT',
     6209      634    1                                   'DEV IN STANDBY',' '*0);
     6210      635    1   DCL 1 DP_DATA_ALERT(0:NUMMINORS) CONSTANT ALIGNED,
     6211      636    1         2 MASK BIT(1) UNAL INIT('0'B*3,'1'B*3,'0'B*0),
     6212      637    1         2 CODE BIT(6) UNAL INIT('02'O,'01'O,'04'O,'10'O,'20'O,'40'O,'00'O*0),
     6213      638    1         2 COUNT UBIN BYTE UNAL INIT(12,3,17,13,12,13,0*0),
     6214      639    1         2 TEXT CHAR(20) UNAL INIT('TRANS PARITY',
     6215      640    1                                   'TTE',
     6216      641    1                                   'INVALID SEEK ADDR',
     6217      642    1                                   'HDR VER ERROR',
     6218      643    1                                   'CYCLIC CHECK',
     6219      644    1                                   'COMPARE ALERT',' '*0);
     6220      645    1   DCL 1 DP_END_OF_FILE (0:NUMMINORS) CONSTANT ALIGNED,
     6221      646    1         2 MASK BIT(1) UNAL INIT('1'B*2,'0'B*0),
     6222      647    1         2 CODE BIT(6) UNAL INIT('01'O,'02'O,'04'O,'10'O,'20'O,'00'O*0),
     6223      648    1         2 COUNT UBIN BYTE UNAL INIT(15,16,13,14,16,17,0*0),
     6224      649    1         2 TEXT CHAR(20) UNAL INIT('LAST CONSEC BLK',
     6225      650    1                                   'SECTOR CNT LIMIT',
     6226      651    1                                   'DEF TRK (ATA)',
     6227      652    1                                   'DEF TRK (ATNA)',
     6228      653    1                                   'ALT TRK DETECTED',
     6229      654    1                                   'GOOD TRK DETECTED',' '*0);
     6230      655    1   DCL 1 DP_COMMAND_REJECT(0:NUMMINORS) CONSTANT ALIGNED,
     6231      656    1         2 MASK BIT(1) UNAL INIT('0'B*0),
     6232      657    1         2 CODE BIT(6) UNAL INIT('04'O,'01'O,'02'O,'10'O,'00'O*0),
     6233      658    1         2 COUNT UBIN BYTE UNAL INIT(17,15,16,16,0*0),
     6234      659    1         2 TEXT CHAR(20) UNAL INIT('IDCW PARITY ALERT',
     6235      660    1                                   'INVALID OP CODE',
     6236      661    1                                   'INVALID DEV CODE',
     6237      662    1                                   'INVALID INST SEQ',' '*0);
     6238      663    1   DCL 1 DP_MPC_ATTENTION (0:NUMMINORS) CONSTANT ALIGNED,
PL6.E3A0      #010=THF$STATUS File=THF$FORMAT.:E05TSI                            WED 07/30/97 06:19 Page:1167
     6239      664    1         2 MASK BIT(1) UNAL INIT('0'B*0),
     6240      665    1         2 CODE BIT(6) UNAL INIT('01'O,'03'O,'02'O,'13'O,'14'O,'15'O,
     6241      666    1                                 '16'O,'17'O,'22'O,'23'O,'00'O*0),
     6242      667    1         2 COUNT UBIN BYTE UNAL INIT(12,13,16,17,18,18,19,18,12,12,0*0),
     6243      668    1         2 TEXT CHAR(20) UNAL INIT('CONFIG ERROR',
     6244      669    1                                   'DEVICE# ERROR',
     6245      670    1                                   'MULTIPLE DEVICES',
     6246      671    1                                   'CA UNEXPECTED INT',
     6247      672    1                                   'CA/IPC MALFUNCTION',
     6248      673    1                                   'SD DISC / CA ERROR',
     6249      674    1                                   'SD OFFLINE/CA ALERT',
     6250      675    1                                   'WRITE ERR IN FAULT',
     6251      676    1                                   'EXEC FAULT A',
     6252      677    1                                   'EXEC FAULT B',' '*0);
     6253      678    1   DCL 1 DP_MPC_DATA_ALERT(0:NUMMINORS) CONSTANT ALIGNED,
     6254      679    1         2 MASK BIT(1) UNAL INIT('0'B*0),
     6255      680    1         2 CODE BIT(6) UNAL INIT('01'O,'16'O,'02'O,'23'O,'03'O,'04'O,'24'O,'11'O,'26'O,
     6256      681    1                       '12'O,'27'O,'21'O,'31'O,'22'O,'32'O,'25'O,'41'O,'42'O,'00'O*0),
     6257      682    1         2 COUNT UBIN BYTE UNAL INIT(16,11,16,12,14,15,11,12,16,17,16,17,16,17,17,
     6258      683    1                                     19,20,18,0*0),
     6259      684    1         2 TEXT CHAR(20) UNAL INIT('TRANS PARITY ERR',
     6260      685    1                                   'EDAC PARITY',
     6261      686    1                                   'INCONSISTENT CMD',
     6262      687    1                                   'SEARCH ALERT',
     6263      688    1                                   'SUMCHECK ERROR',
     6264      689    1                                   'BYTE LOCKED OUT',
     6265      690    1                                   'CYCLIC CODE',
     6266      691    1                                   'ERR CORR REQ',
     6267      692    1                                   'SYNC BYTE~=''19''X',
     6268      693    1                                   'EDAC ERROR UNCORR',
     6269      694    1                                   'ERROR ON ALT TRK',
     6270      695    1                                   'SECTOR SIZE ERROR',
     6271      696    1                                   'EDAC CORR (LAST)',
     6272      697    1                                   'NONSTD SECTOR SIZ',
     6273      698    1                                   'EDAC CORR (NLAST)',
     6274      699    1                                   'SEARCH ERR (NFIRST)',
     6275      700    1                                   'WRITE BUF PARITY ERR',
PL6.E3A0      #010=THF$STATUS File=THF$FORMAT.:E05TSI                            WED 07/30/97 06:19 Page:1168
     6276      701    1                                   'UNCORRECTABLE READ',' '*0);
     6277      702    1   DCL 1 DP_MPC_COMMAND_REJECT(0:NUMMINORS) CONSTANT ALIGNED,
     6278      703    1         2 MASK BIT(1) UNAL INIT('0'B*0),
     6279      704    1         2 CODE BIT(6) UNAL INIT('01'O,'02'O,'03'O,'04'O,'00'O*0),
     6280      705    1         2 COUNT UBIN BYTE UNAL INIT(13,13,17,16,0*0),
     6281      706    1         2 TEXT CHAR(20) UNAL INIT('ILL PROCEDURE',
     6282      707    1                                   'ILL LOG CHAN#',
     6283      708    1                                   'ILL CHAN# TO SUSP',
     6284      709    1                                   'CONT BIT NOT SET',' '*0);
     6285      710    1   DCL 1 MT_READY (0:NUMMINORS) CONSTANT ALIGNED,
     6286      711    1         2 MASK BIT(1) UNAL INIT('0'B,'1'B*6,'0'B*0),
     6287      712    1         2 CODE BIT(6) UNAL INIT('00'O,'01'O,'20'O,'40'O,'50'O,'02'O,'04'O,'14'O,'00'O*
               712                  0),
     6288      713    1         2 COUNT UBIN BYTE UNAL INIT(5,15,12,13,12,13,12,17,0*0),
     6289      714    1         2 TEXT CHAR(20) UNAL INIT('READY',
     6290      715    1                                   'WRITE PROTECTED',
     6291      716    1                                   'TWO BIT FULL',
     6292      717    1                                   'FOUR BIT FULL',
     6293      718    1                                   'SIX BIT FULL',
     6294      719    1                                   'POS AT B.O.T.',
     6295      720    1                                   '9 TRK MTH',
     6296      721    1                                   'ASCII/EBCDIC CODE',' '*0);
     6297      722    1   DCL 1 MT_DEVICE_BUSY(0:NUMMINORS) CONSTANT ALIGNED,
     6298      723    1         2 MASK BIT(1) UNAL INIT('0'B*0),
     6299      724    1         2 CODE BIT(6) UNAL INIT('40'O,'01'O,'02'O,'04'O,'00'O*0),
     6300      725    1         2 COUNT UBIN BYTE UNAL INIT(15,9,11,7,0*0),
     6301      726    1         2 TEXT CHAR(20) UNAL INIT('DEVICE RESERVED',
     6302      727    1                                   'REWINDING',
     6303      728    1                                   'ALT CHANNEL',
     6304      729    1                                   'LOADING',' '*0);
     6305      730    1   DCL 1 MT_ATTENTION(0:NUMMINORS) CONSTANT ALIGNED,
     6306      731    1         2 MASK BIT(1) UNAL INIT('0'B,'1'B*4,'0'B*0),
     6307      732    1         2 CODE BIT(6) UNAL INIT('02'O,'04'O,'10'O,'01'O,'20'O,'00'O*0),
     6308      733    1         2 COUNT UBIN BYTE UNAL INIT(11,14,12,13,19,0*0),
     6309      734    1         2 TEXT CHAR(20) UNAL INIT('NO SUCH MTH',
     6310      735    1                                   'MTH IN STANDBY',
     6311      736    1                                   'DEVICE FAULT',
PL6.E3A0      #010=THF$STATUS File=THF$FORMAT.:E05TSI                            WED 07/30/97 06:19 Page:1169
     6312      737    1                                   'WRITE PROTECT',
     6313      738    1                                   'BLANK TAPE ON WRITE',' '*0);
     6314      739    1   DCL 1 MT_DATA_ALERT(0:NUMMINORS) CONSTANT ALIGNED,
     6315      740    1         2 MASK BIT(1) UNAL INIT('0'B*2,'1'B*5,'0'B*0),
     6316      741    1         2 CODE BIT(6) UNAL INIT('02'O,'01'O,'03'O,'04'O,'10'O,'20'O,'40'O,'10'O,'00'O*
               741                  0),
     6317      742    1         2 COUNT UBIN BYTE UNAL INIT(16,3,12,15,11,12,6,10,17,0*0),
     6318      743    1         2 TEXT CHAR(20) UNAL INIT('BLANK TAPE ON READ',
     6319      744    1                                   'TTE',
     6320      745    1                                   'BIT ON ERASE',
     6321      746    1                                   'TRANS PAR ALERT',
     6322      747    1                                   'LAT PAR ERR',
     6323      748    1                                   'LONG PAR ERR',
     6324      749    1                                   'E.O.T.',
     6325      750    1                                   'FRAME DROP',
     6326      751    1                                   'ASCII/EBCDIC CODE',' '*0);
     6327      752    1   DCL 1 MT_END_OF_FILE (0:NUMMINORS) CONSTANT ALIGNED,
     6328      753    1         2 MASK BIT(1) UNAL INIT('0'B*3,'1'B,'0'B*0),
     6329      754    1         2 CODE BIT(6) UNAL INIT('17'O,'23'O,'77'O,'00'O*0),
     6330      755    1         2 COUNT UBIN BYTE UNAL INIT(14,14,10,15,0*0),
     6331      756    1         2 TEXT CHAR(20) UNAL INIT('E.O.F. (7 TRK)',
     6332      757    1                                   'E.O.F. (9 TRK)',
     6333      758    1                                   'DATA ALERT',
     6334      759    1                                   'SINGLE CHAR REC',' '*0);
     6335      760    1   DCL 1 MT_COMMAND_REJECT(0:NUMMINORS) CONSTANT ALIGNED,
     6336      761    1         2 MASK BIT(1) UNAL INIT('1'B*3,'0'B*0),
     6337      762    1         2 CODE BIT(6) UNAL INIT('01'O,'02'O,'04'O,'10'O,'20'O,'40'O,'00'O*0),
     6338      763    1         2 COUNT UBIN BYTE UNAL INIT(11,15,17,6,16,12,15,0*0),
     6339      764    1         2 TEXT CHAR(20) UNAL INIT('INV OP CODE',
     6340      765    1                                   'INV DEVICE CODE',
     6341      766    1                                   'IDCW PARITY ALERT',
     6342      767    1                                   'B.O.T.',
     6343      768    1                                   'FWD RD AFTER WRT',
     6344      769    1                                   'NINE TRK MTH',
     6345      770    1                                   'INVALID DENSITY',' '*0);
     6346      771    1   DCL 1 MT_MPC_ATTENTION(0:NUMMINORS) CONSTANT ALIGNED,
     6347      772    1         2 MASK BIT(1) UNAL INIT('0'B*2,'1'B,'0'B*0),
PL6.E3A0      #010=THF$STATUS File=THF$FORMAT.:E05TSI                            WED 07/30/97 06:19 Page:1170
     6348      773    1         2 CODE BIT(6) UNAL INIT('03'O,'02'O,'14'O,'20'O,'10'O,'21'O,'01'O,'00'O*0),
     6349      774    1         2 COUNT UBIN BYTE UNAL INIT(13,16,15,15,14,15,12,0*0),
     6350      775    1         2 TEXT CHAR(20) UNAL INIT('DEVICE# ERROR',
     6351      776    1                                   'MULTIPLE DEVICES',
     6352      777    1                                   'TCA MALFUNCTION',
     6353      778    1                                   'DEV MALFUNCTION',
     6354      779    1                                   'INCORRECT MODE',
     6355      780    1                                   'MULTIPLE B.O.T.',
     6356      781    1                                   'CONFIG ERROR',' '*0);
     6357      782    1   DCL 1 MT_MPC_DATA_ALERT (0:NUMMINORS) CONSTANT ALIGNED,
     6358      783    1         2 MASK BIT(1) UNAL INIT('0'B*0),
     6359      784    1         2 CODE BIT(6) UNAL INIT('10'O,'11'O,'20'O,'21'O,'22'O,'23'O,'24'O,'02'O,'03'O,
               784                  '04'O,'01'O,'40'O,'00'O*0),
     6360      785    1         2 COUNT UBIN BYTE UNAL INIT(14,14,15,10,15,14,10,16,14,15,16,13,0*0),
     6361      786    1         2 TEXT CHAR(20) UNAL INIT('PE BURST ERROR',
     6362      787    1                                   'PREAMBLE ERROR',
     6363      788    1                                   'MULTI-TRK ERROR',
     6364      789    1                                   'SKEW ERROR',
     6365      790    1                                   'POSTAMBLE ERROR',
     6366      791    1                                   'NRZI CCC ERROR',
     6367      792    1                                   'CODE ALERT',
     6368      793    1                                   'INCONSISTENT CMD',
     6369      794    1                                   'SUMCHECK ERROR',
     6370      795    1                                   'BYTE LOCKED OUT',
     6371      796    1                                   'TRANS PARITY ERR',
     6372      797    1                                   'MARGINAL COND',' '*0);
     6373      798    1   DCL 1 MT_MPC_COMMAND_REJECT (0:NUMMINORS) CONSTANT ALIGNED,
     6374      799    1         2 MASK BIT(1) UNAL INIT('0'B*0),
     6375      800    1         2 CODE BIT(6) UNAL INIT('01'O,'02'O,'03'O,'04'O,'00'O*0),
     6376      801    1         2 COUNT UBIN BYTE UNAL INIT(13,13,17,17,0*0),
     6377      802    1         2 TEXT CHAR(20) UNAL INIT('ILL PROCEDURE',
     6378      803    1                                   'ILL LOG CHAN#',
     6379      804    1                                   'ILL CHAN# TO SUSP',
     6380      805    1                                   'CONT BIT NOT SETP',' '*0);
     6381      806    1   DCL 1 LP_READY(0:NUMMINORS) CONSTANT ALIGNED,
     6382      807    1         2 MASK BIT(1) UNAL INIT('0'B*0),
     6383      808    1         2 CODE BIT(6) UNAL INIT('00'O,'01'O,'02'O,'03'O,'04'O,'05'O,'06'O,'07'O,'00'O*
PL6.E3A0      #010=THF$STATUS File=THF$FORMAT.:E05TSI                            WED 07/30/97 06:19 Page:1171
               808                  0),
     6384      809    1         2 COUNT UBIN BYTE UNAL INIT(5,14,9,13,12,7,9,16,0*0),
     6385      810    1         2 TEXT CHAR(20) UNAL INIT('READY',
     6386      811    1                                   'PRINT ONE LINE',
     6387      812    1                                   'FWD SPACE',
     6388      813    1                                   'FWD TO T.O.P.',
     6389      814    1                                   'INVALID LINE',
     6390      815    1                                   'REV RWD',
     6391      816    1                                   'BACKSPACE',
     6392      817    1                                   'BACKSPACE TO TOP',' '*0);
     6393      818    1   DCL 1 LP_COMMAND_REJECT(0:NUMMINORS) CONSTANT ALIGNED,
     6394      819    1         2 MASK BIT(1) UNAL INIT('0'B*0),
     6395      820    1         2 CODE BIT(6) UNAL INIT('01'O,'02'O,'04'O,'20'O,'40'O,'00'O*0),
     6396      821    1         2 COUNT UBIN BYTE UNAL INIT(12,15,17,10,6,0*0),
     6397      822    1         2 TEXT CHAR(20) UNAL INIT('INV OP CODE',
     6398      823    1                                   'INV DEVICE CODE',
     6399      824    1                                   'IDCW PARITY ALERT',
     6400      825    1                                   'SLEW ERROR',
     6401      826    1                                   'T.O.P.',' '*0);
     6402      827    1   DCL 1 LP_MPC_ATTENTION(0:NUMMINORS) CONSTANT ALIGNED,
     6403      828    1         2 MASK BIT(1) UNAL INIT('0'B*0),
     6404      829    1         2 CODE BIT(6) UNAL INIT('01'O,'02'O,'00'O*0),
     6405      830    1         2 COUNT UBIN BYTE UNAL INIT(9,9,0*0),
     6406      831    1         2 TEXT CHAR(20) UNAL INIT('IAI ERROR',
     6407      832    1                                   'DAI ERROR',' '*0);
     6408      833    1   DCL 1 LP_MPC_DATA_ALERT(0:NUMMINORS) CONSTANT ALIGNED,
     6409      834    1         2 MASK BIT(1) UNAL INIT('0'B*0),
     6410      835    1         2 CODE BIT(6) UNAL INIT('01'O,'03'O,'05'O,'06'O,'00'O*0),
     6411      836    1         2 COUNT UBIN BYTE UNAL INIT(16,14,9,12,0*0),
     6412      837    1         2 TEXT CHAR(20) UNAL INIT('PSI PARITY ERROR',
     6413      838    1                                   'SUMCHECK ERROR',
     6414      839    1                                   'DAI ERROR',
     6415      840    1                                   'PSI OVERFLOW',' '*0);
     6416      841    1   DCL 1 LP_MPC_COMMAND_REJECT(0:NUMMINORS) CONSTANT ALIGNED,
     6417      842    1         2 MASK BIT(1) UNAL INIT('0'B*0),
     6418      843    1         2 CODE BIT(6) UNAL INIT('01'O,'02'O,'10'O,'00'O*0),
     6419      844    1         2 COUNT UBIN BYTE UNAL INIT(13,13,15,0*0),
PL6.E3A0      #010=THF$STATUS File=THF$FORMAT.:E05TSI                            WED 07/30/97 06:19 Page:1172
     6420      845    1         2 TEXT CHAR(20) UNAL INIT('ILL PROCEDURE',
     6421      846    1                                   'ILL LOG CHAN#',
     6422      847    1                                   'DEVICE RESERVED',' '*0);
     6423      848    1   DCL 1 LP_ATTENTION(0:NUMMINORS) CONSTANT ALIGNED,
     6424      849    1         2 MASK BIT(1) UNAL INIT('0'B*0),
     6425      850    1         2 CODE BIT(6) UNAL INIT('00'O,'01'O,'02'O,'04'O,'10'O,'00'O*0),
     6426      851    1         2 COUNT UBIN BYTE UNAL INIT(11,12,7,13,11,0*0),
     6427      852    1         2 TEXT CHAR(20) UNAL INIT('POWER FAULT',
     6428      853    1                                   'OUT OF PAPER',
     6429      854    1                                   'STOPPED',
     6430      855    1                                   'VFU/VFC ALERT',
     6431      856    1                                   'CHECK ALERT',' '*0);
     6432      857    1   DCL 1 LP_DATA_ALERT(0:NUMMINORS) CONSTANT ALIGNED,
     6433      858    1         2 MASK BIT(1) UNAL INIT('0'B*0),
     6434      859    1         2 CODE BIT(6) UNAL INIT('00'O,'01'O,'02'O,'04'O,'10'O,'20'O,'40'O,'00'O*0),
     6435      860    1         2 COUNT UBIN BYTE UNAL INIT(15,3,13,13,7,12,11,0*0),
     6436      861    1         2 TEXT CHAR(20) UNAL INIT('IMAGE BFR ALERT',
     6437      862    1                                   'TTE',
     6438      863    1                                   'ALERT BEF PRT',
     6439      864    1                                   'ALERT AFT PRT',
     6440      865    1                                   'WARNING',
     6441      866    1                                   'PAPER MOTION',
     6442      867    1                                   'T.O.P. ECHO',' '*0);
     6443      868    1   DCL 1 CRP_READY(0:NUMMINORS) CONSTANT ALIGNED,
     6444      869    1         2 MASK BIT(1) UNAL INIT('0'B*0),
     6445      870    1         2 CODE BIT(6) UNAL INIT('00'O,'01'O,'02'O,'03'O,'04'O,'05'O,'06'O,'07'O,'00'O*
               870                  0),
     6446      871    1         2 COUNT UBIN BYTE UNAL INIT(5,15,9,13,12,7,9,16,0*0),
     6447      872    1         2 TEXT CHAR(20) UNAL INIT('READY',
     6448      873    1                                   '51 COLUMN CARDS',
     6449      874    1                                   'FWD SPACE',
     6450      875    1                                   'FWD TO T.O.P.',
     6451      876    1                                   'INVALID LINE',
     6452      877    1                                   'REV RWD',
     6453      878    1                                   'BACKSPACE',
     6454      879    1                                   'BACKSPACE TO TOP',' '*0);
     6455      880    1   DCL 1 CRP_COMMAND_REJECT(0:NUMMINORS) CONSTANT ALIGNED,
PL6.E3A0      #010=THF$STATUS File=THF$FORMAT.:E05TSI                            WED 07/30/97 06:19 Page:1173
     6456      881    1         2 MASK BIT(1) UNAL INIT('0'B*0),
     6457      882    1         2 CODE BIT(6) UNAL INIT('01'O,'02'O,'04'O,'20'O,'40'O,'00'O*0),
     6458      883    1         2 COUNT UBIN BYTE UNAL INIT(12,15,17,10,6,0*0),
     6459      884    1         2 TEXT CHAR(20) UNAL INIT('INV OP CODE',
     6460      885    1                                   'INV DEVICE CODE',
     6461      886    1                                   'IDCW PARITY ALERT',
     6462      887    1                                   'SLEW ERROR',
     6463      888    1                                   'T.O.P.',' '*0);
     6464      889    1   DCL 1 CRP_MPC_ATTENTION(0:NUMMINORS) CONSTANT ALIGNED,
     6465      890    1         2 MASK BIT(1) UNAL INIT('0'B*0),
     6466      891    1         2 CODE BIT(6) UNAL INIT('01'O,'02'O,'00'O*0),
     6467      892    1         2 COUNT UBIN BYTE UNAL INIT(9,9,0*0),
     6468      893    1         2 TEXT CHAR(20) UNAL INIT('IAI ERROR',
     6469      894    1                                   'DAI ERROR',' '*0);
     6470      895    1   DCL 1 CRP_MPC_DATA_ALERT(0:NUMMINORS) CONSTANT ALIGNED,
     6471      896    1         2 MASK BIT(1) UNAL INIT('0'B*0),
     6472      897    1         2 CODE BIT(6) UNAL INIT('01'O,'03'O,'05'O,'06'O,'00'O*0),
     6473      898    1         2 COUNT UBIN BYTE UNAL INIT(16,14,9,12,0*0),
     6474      899    1         2 TEXT CHAR(20) UNAL INIT('PSI PARITY ERROR',
     6475      900    1                                   'SUMCHECK ERROR',
     6476      901    1                                   'DAI ERROR',
     6477      902    1                                   'PSI OVERFLOW',' '*0);
     6478      903    1   DCL 1 CRP_MPC_COMMAND_REJECT(0:NUMMINORS) CONSTANT ALIGNED,
     6479      904    1         2 MASK BIT(1) UNAL INIT('0'B*0),
     6480      905    1         2 CODE BIT(6) UNAL INIT('01'O,'02'O,'10'O,'00'O*0),
     6481      906    1         2 COUNT UBIN BYTE UNAL INIT(13,13,15,0*0),
     6482      907    1         2 TEXT CHAR(20) UNAL INIT('ILL PROCEDURE',
     6483      908    1                                   'ILL LOG CHAN#',
     6484      909    1                                   'DEVICE RESERVED',' '*0);
     6485      910    1   DCL 1 CRP_ATTENTION(0:NUMMINORS) CONSTANT ALIGNED,
     6486      911    1         2 MASK BIT(1) UNAL INIT('0'B*0),
     6487      912    1         2 CODE BIT(6) UNAL INIT('00'O,'01'O,'04'O,'10'O,'20'O,'40'O,'02'O,'00'O*0),
     6488      913    1         2 COUNT UBIN BYTE UNAL INIT(8,14,13,10,3,10,11,0*0),
     6489      914    1         2 TEXT CHAR(20) UNAL INIT('OFF-LINE',
     6490      915    1                                   'HOPPER/STACKER',
     6491      916    1                                   'CHAD BOX FULL',
     6492      917    1                                   'FEED ALERT',
PL6.E3A0      #010=THF$STATUS File=THF$FORMAT.:E05TSI                            WED 07/30/97 06:19 Page:1174
     6493      918    1                                   'JAM',
     6494      919    1                                   'READ ALERT',
     6495      920    1                                   'MANUAL HALT',' '*0);
     6496      921    1   DCL 1 CRP_DATA_ALERT(0:NUMMINORS) CONSTANT ALIGNED,
     6497      922    1         2 MASK BIT(1) UNAL INIT('0'B*0),
     6498      923    1         2 CODE BIT(6) UNAL INIT('02'O,'04'O,'00'O*0),
     6499      924    1         2 COUNT UBIN BYTE UNAL INIT(14,13,0*0),
     6500      925    1         2 TEXT CHAR(20) UNAL INIT('VALIDITY ERROR',
     6501      926    1                                   'DUAL RD ERROR',' '*0);
     6502      927    1   DCL 1 MCA_READY(0:NUMMINORS) CONSTANT ALIGNED,
     6503      928    1         2 MASK BIT(1) UNAL INIT('0'B*0),
     6504      929    1         2 CODE BIT(6) UNAL INIT('02'O,'03'O,'40'O,'42'O,'00'O*0),
     6505      930    1         2 COUNT UBIN BYTE UNAL INIT(14,15,17,14,0*0),
     6506      931    1         2 TEXT CHAR(20) UNAL INIT('END OF SESSION',
     6507      932    1                                   'SESSION ABORTED',
     6508      933    1                                   'INTERIM TERMINATE',
     6509      934    1                                   'END OF SESSION',' '*0);
     6510      935    1   DCL 1 MCA_ATTENTION(0:NUMMINORS) CONSTANT ALIGNED,
     6511      936    1         2 MASK BIT(1) UNAL INIT('0'B*0),
     6512      937    1         2 CODE BIT(6) UNAL INIT('41'O,'42'O,'44'O,'50'O,'60'O,'00'O*0),
     6513      938    1         2 COUNT UBIN BYTE UNAL INIT(13,10,9,12,9,0*0),
     6514      939    1         2 TEXT CHAR(20) UNAL INIT('WRITE INHIBIT',
     6515      940    1                                   'SEEK ERROR',
     6516      941    1                                   'NO DEVICE',
     6517      942    1                                   'DEVICE ERROR',
     6518      943    1                                   'DOOR OPEN',' '*0);
     6519      944    1   DCL 1 MCA_DATA_ALERT(0:NUMMINORS) CONSTANT ALIGNED,
     6520      945    1         2 MASK BIT(1) UNAL INIT('0'B*0),
     6521      946    1         2 CODE BIT(6) UNAL INIT('42'O,'60'O,'00'O*0),
     6522      947    1         2 COUNT UBIN BYTE UNAL INIT(12,9,0*0),
     6523      948    1         2 TEXT CHAR(20) UNAL INIT('PARITY ERROR',
     6524      949    1                                   'CRC ERROR',' '*0);
     6525      950    1   DCL 1 MCA_COMMAND_REJECT(0:NUMMINORS) CONSTANT ALIGNED,
     6526      951    1         2 MASK BIT(1) UNAL INIT('0'B*0),
     6527      952    1         2 CODE BIT(6) UNAL INIT('01'O, '00'O*0),
     6528      953    1         2 COUNT UBIN BYTE UNAL INIT(19,0*0),
     6529      954    1         2 TEXT CHAR(20) UNAL INIT('INV OP CODE IN IDCW',' '*0);
PL6.E3A0      #010=THF$STATUS File=THF$FORMAT.:E05TSI                            WED 07/30/97 06:19 Page:1175
     6530      955    1   DCL 1 MCA_MPC_ATTENTION(0:NUMMINORS) CONSTANT ALIGNED,
     6531      956    1         2 MASK BIT(1) UNAL INIT('0'B*0),
     6532      957    1         2 CODE BIT(6) UNAL INIT('20'O,'41'O,'42'O,'43'O,'00'O*0),
     6533      958    1         2 COUNT UBIN BYTE UNAL INIT(15,9,13,11,0*0),
     6534      959    1         2 TEXT CHAR(20) UNAL INIT('CONNECT TIMEOUT',
     6535      960    1                                   'REX ERROR',
     6536      961    1                                   'OVERLAY ERROR',
     6537      962    1                                   'MDI TIMEOUT',' '*0);
     6538      963    1   DCL 1 MCA_MPC_DATA_ALERT(0:NUMMINORS) CONSTANT ALIGNED,
     6539      964    1         2 MASK BIT(1) UNAL INIT('0'B*0),
     6540      965    1         2 CODE BIT(6) UNAL INIT('06'O,'07'O,'00'O*0),
     6541      966    1         2 COUNT UBIN BYTE UNAL INIT(13,14,0*0),
     6542      967    1         2 TEXT CHAR(20) UNAL INIT('DATA OVERFLOW',
     6543      968    1                                   'DATA UNDERFLOW',' '*0);
     6544      969    1   DCL 1 MCA_MPC_COMMAND_REJECT(0:NUMMINORS) CONSTANT ALIGNED,
     6545      970    1         2 MASK BIT(1) UNAL INIT('0'B*0),
     6546      971    1         2 CODE BIT(6) UNAL INIT('01'O,'04'O,'05'O,'42'O,'43'O,'50'O,'00'O*0),
     6547      972    1         2 COUNT UBIN BYTE UNAL INIT(20,18,10,20,18,18,0*0),
     6548      973    1         2 TEXT CHAR(20) UNAL INIT('ILL COMMAND SEQUENCE',
     6549      974    1                                   'CONTINUE BIT ERROR',
     6550      975    1                                   'BAD HEADER',
     6551      976    1                                   'INV PATHNAME/COMMAND',
     6552      977    1                                   'INV REQUEST FORMAT',
     6553      978    1                                   'SP REJ W/ASCII MSG',' '*0);
     6554      979    1   DCL 1 SYS_FAULT_CTRLR_CODE(0:12) CONSTANT ALIGNED,
     6555      980    1         2 CODE UBIN BYTE UNAL INIT(2,3,5,6,7,8,9,10,11,12,13,14,15),
     6556      981    1         2 COUNT UBIN BYTE UNAL INIT(14,10,7,7,7,13,13,15,9,13,13,15,15),
     6557      982    1         2 TEXT CHAR(20) UNAL INIT('NON_EXIST ADDR',
     6558      983    1                                   'FAULT COND',
     6559      984    1                                   'DAT PAR',
     6560      985    1                                   'DAT PAR',
     6561      986    1                                   'DAT PAR',
     6562      987    1                                   'NOT CTRL PORT',
     6563      988    1                                   'PORT NOT ENAB',
     6564      989    1                                   'ILL INSTRUCTION',
     6565      990    1                                   'NOT READY',
     6566      991    1                                   'ZAC MOD TO SC',
PL6.E3A0      #010=THF$STATUS File=THF$FORMAT.:E05TSI                            WED 07/30/97 06:19 Page:1176
     6567      992    1                                   'DAT MOD TO SC',
     6568      993    1                                   'ZAC SC TO STORE',
     6569      994    1                                   'DAT SC TO STORE');
     6570      995    1   DCL 1 SYS_FAULT_IOM_DET(0:14) CONSTANT ALIGNED,
     6571      996    1         2 CODE UBIN BYTE UNAL INIT(0,1,2,3,4,5,6,7,8,9,10,11,13,14,15),
     6572      997    1         2 COUNT UBIN BYTE UNAL INIT(8,8,12,7,16,11,13,12,11,7,7,14,14,14,11),
     6573      998    1         2 TEXT CHAR(20) UNAL INIT('NO FAULT',
     6574      999    1                                   'ILL CHAN',
     6575     1000    1                                   'ILL SERV REQ',
     6576     1001    1                                   'PAR ERR',
     6577     1002    1                                   'CTRL=0, TALLY~=0',
     6578     1003    1                                   'LPW TALLY=0',
     6579     1004    1                                   'DCW CONN~=111',
     6580     1005    1                                   'TDCW/DCW=111',
     6581     1006    1                                   'DCW BAD DAT',
     6582     1007    1                                   'NO RESP',
     6583     1008    1                                   'PAR ERR',
     6584     1009    1                                   'ILL TALLY CTRL',
     6585     1010    1                                   'PTW FLAG FAULT',
     6586     1011    1                                   'ILL LPW IN STD',
     6587     1012    1                                   'NO PORT SEL');
     6588     1013    1   DCL 1 TBL(0:NUMSTATUS) BASED ALIGNED,
     6589     1014    1         2 MAJOR UBIN(4) UNAL,
     6590     1015    1         2 SUB$ PTR;
     6591     1016    1   DCL 1 SUBTBL(0:NUMMINORS) BASED(SUBTBL$) ALIGNED,
     6592     1017    1         2 MASK BIT(1) UNAL,
     6593     1018    1         2 CODE BIT(6) UNAL,
     6594     1019    1         2 COUNT UBIN BYTE UNAL,
     6595     1020    1         2 TEXT CHAR(20) UNAL;
     6596     1021    1   DCL SUBTBL$ PTR;
     6597     1022    1   DCL TYPE_INDX UBIN WORD;
     6598     1023    1   DCL I UBIN WORD;
     6599     1024    1   DCL J UBIN WORD;
     6600     1025        %EJECT;
PL6.E3A0      #010=THF$STATUS File=THF$FORMAT.:E05TSI                            WED 07/30/97 06:19 Page:1177
     6601     1026    1        MAJBUF = ' ';
     6602     1027    1        MINBUF = ' ';
     6603     1028    1        MAJCOUNT = 0;
     6604     1029    1        MINCOUNT = 0;
     6605     1030    1        IF SUBSTR(IOERR.DEVNM,0,2) = 'DP'
     6606     1031    1           THEN TYPE_INDX = 0;
     6607     1032    1           ELSE
     6608     1033    1        IF SUBSTR(IOERR.DEVNM,0,2) = 'MT'
     6609     1034    1           THEN TYPE_INDX = 1;
     6610     1035    1           ELSE
     6611     1036    1        IF SUBSTR(IOERR.DEVNM,0,2) = 'LP'
     6612     1037    1           THEN TYPE_INDX = 2;
     6613     1038    1           ELSE
     6614     1039    1        IF SUBSTR(IOERR.DEVNM,0,2) = 'CR' OR SUBSTR(IOERR.DEVNM,0,2) = 'CP'
     6615     1040    1           THEN TYPE_INDX = 3;
     6616     1041    1           ELSE
     6617     1042    1        IF SUBSTR(IOERR.DEVNM,0,2) = 'MC'
     6618     1043    1           THEN TYPE_INDX = 4;
     6619     1044    1           ELSE
     6620     1045    1        IF SUBSTR(IOERR.DEVNM,0,2) = 'DC'  /* if DC type, wait & check */
     6621     1046    1           THEN;                           /* for power off */
     6622     1047    1           ELSE ALTRETURN;
     6623     1048    1        IF IOERR.STATUS.POWER_OFF
     6624     1049    2        THEN DO;
     6625     1050    2              MAJBUF = 'POWER OFF';
     6626     1051    2              MAJCOUNT = 9;
     6627     1052    2              GOTO FOUND_MINOR;
     6628     1053    2        END;
     6629     1054    1        IF SUBSTR(IOERR.DEVNM,0,2) = 'DC' /* if we got here & its DC type*/
     6630     1055    1        THEN ALTRETURN;                   /* oops! */
     6631     1056    2        DO I = 0 TO NUMSTATUS;
     6632     1057    3           IF IOERR.STATUS.MAJOR = MAJ_STATUS_TBL.MAJOR(I) THEN DO;
     6633     1058    3              MAJBUF = MAJ_STATUS_TBL.TEXT(I);
     6634     1059    3              MAJCOUNT = MAJ_STATUS_TBL.COUNT(I);
     6635     1060    3              IF IOERR.STATUS.MAJOR = %SYSTEM_FAULT
     6636     1061    4              THEN DO;
     6637     1062    5                   DO J = 0 TO 12;
PL6.E3A0      #010=THF$STATUS File=THF$FORMAT.:E05TSI                            WED 07/30/97 06:19 Page:1178
     6638     1063    5                      IF IOERR.XSTATUS.SYS_CTRL_MINOR = SYS_FAULT_CTRLR_CODE.CODE(J)
     6639     1064    6                      THEN DO;
     6640     1065    6                           MINBUF = SYS_FAULT_CTRLR_CODE.TEXT(J);
     6641     1066    6                           MINCOUNT = SYS_FAULT_CTRLR_CODE.COUNT(J);
     6642     1067    6                           GOTO FOUND_MINOR;
     6643     1068    6                      END;
     6644     1069    5                   END;
     6645     1070    5                   DO J = 0 TO 14;
     6646     1071    5                      IF IOERR.XSTATUS.SYS_IOM_MINOR = SYS_FAULT_IOM_DET.CODE(J)
     6647     1072    6                      THEN DO;
     6648     1073    6                           MINBUF = SYS_FAULT_IOM_DET.TEXT(J);
     6649     1074    6                           MINCOUNT = SYS_FAULT_IOM_DET.COUNT(J);
     6650     1075    6                           GOTO FOUND_MINOR;
     6651     1076    6                      END;
     6652     1077    5                   END;
     6653     1078    4              END;
     6654     1079    3              SUBTBL$ = TYPE$(TYPE_INDX)->TBL.SUB$(I);
     6655     1080    3              GOTO FOUND_MAJOR;
     6656     1081    3              END;  /* IF FOUND */
     6657     1082    2           END;  /* DO I */
     6658     1083    1   FOUND_MAJOR:
     6659     1084    1        IF SUBTBL$ = ADDR(NIL) THEN RETURN;
     6660     1085    2        DO I = 0 TO NUMMINORS;
     6661     1086    2           IF (SUBTBL.MASK(I) AND (SUBTBL.CODE(I) & IOERR.STATUS.MINOR)) OR
     6662     1087    3              (~SUBTBL.MASK(I) AND (SUBTBL.CODE(I) = IOERR.STATUS.MINOR)) THEN DO;
     6663     1088    3              MINBUF = SUBTBL.TEXT(I);
     6664     1089    3              MINCOUNT = SUBTBL.COUNT(I);
     6665     1090    3              GOTO FOUND_MINOR;
     6666     1091    3              END;  /* IF */
     6667     1092    2           END;  /* DO I*/
     6668     1093    1   FOUND_MINOR:
     6669     1094    1        RETURN;
     6670     1095    1   END THF$STATUS;
     6671     1096        %EOD;

PL6.E3A0      #010=THF$STATUS File=THF$FORMAT.:E05TSI                            WED 07/30/97 06:19 Page:1179
--  Include file information  --

   NI_DATA_C.:E05TOU  is referenced.
   EL$TABLES.:E05TOU  is referenced.
   B$JIT_C.:E05TOU  was found in the system file and is never referenced.
   CP_6_C.:E05TOU  was found in the system file and is never referenced.
      No diagnostics issued in procedure THF$STATUS.

   Procedure THF$STATUS requires 214 words for executable code.
   Procedure THF$STATUS requires 14 words of local(AUTO) storage.

PL6.E3A0      #010=THF$STATUS File=THF$FORMAT.:E05TSI                            WED 07/30/97 06:19 Page:1180

 Object Unit name= THF$STATUS                                 File name= THF$FORMAT.:E05TOU
 UTS= JUL 30 '97 06:19:19.84 WED                              Compiler= PL-6/E31         Sev=      00
 SharedLib= :SHARED_SYSTEM                                    Alt SharedLib=


    ****  Control sections  ****

 Sect   Type Bound  Init  Size OctSiz  Section name(segment info)
    0   Data  even  none     5      5  THF$STATUS
    1  RoData even  UTS   5034  11652  THF$STATUS
    2   Proc  even  none   214    326  THF$STATUS

    ****  Entry defs  ****

                              Check   Calling
                             calling  sequence
  Sect OctLoc Primary Altret sequence   type   Parms  Name
     2      0   yes    yes     yes      Std        5  THF$STATUS

  ****  Entry refs  ****

         Check        Calling
        calling       sequence
Altret sequence SRef   type   Args  Name
                       nStd      0 X66_AUTO_5
                       Std       0 B_CONSPOOL_D
                       nStd      0 X66_AALT
                       nStd      0 X66_ARET

  ****  Data refs  ****

  Flags:  r = read only, s = secondary
Flgs Name                             Flgs Name                             Flgs Name
     B_VECTNIL
PL6.E3A0      #010=THF$STATUS File=THF$FORMAT.:E05TSI                            WED 07/30/97 06:19 Page:1181

  ****  Segment refs  ****

  Flags:  r = read only, s = secondary
Flgs Name                             Flgs Name                             Flgs Name
     ISSID                                 NULLSID
PL6.E3A0      #010=THF$STATUS File=THF$FORMAT.:E05TSI                            WED 07/30/97 06:19 Page:1182


     6019        1        /*M* THF$STATUS - RETURN TEXT TRANSLATION OF MAJOR AND MINOR STATUS CODES */
     6020        2        /*T***********************************************************/
     6021        3        /*T*                                                         */
     6022        4        /*T* Copyright (c) Bull HN Information Systems Inc., 1997    */
     6023        5        /*T*                                                         */
     6024        6        /*T***********************************************************/
     6025        7        THF$STATUS: PROC(IOERR,MAJBUF,MAJCOUNT,MINBUF,MINCOUNT) ALTRET;

      7  2 000000   000000 700200 xent  THF$STATUS   TSX0  ! X66_AUTO_5
         2 000001   000016 000005                    ZERO    14,5

     6026        8        %INCLUDE EL$TABLES;
     6027      331        /**/
     6028      332        /* PARAMS */
     6029      333        %EL$IOERR (NAME=IOERR,STCLASS="");
     6030      343    1   DCL MAJBUF CHAR(32);
     6031      344    1   DCL MAJCOUNT UBIN WORD;
     6032      345    1   DCL MINBUF CHAR(32);
     6033      346    1   DCL MINCOUNT UBIN WORD;
     6034      347        /**/
     6035      348        /* INCLUDE FILES */
     6036      349        %INCLUDE NI_DATA_C;
     6037      462        /**/
     6038      463        /* VARS */
     6039      464        %SUB NUMSTATUS = 10;
     6040      465        %SUB NUMMINORS = 19;
     6041      466    1  DCL TYPE$(0:4) PTR STATIC INIT(ADDR(DP_TBL),ADDR(MT_TBL),ADDR(LP_TBL),ADDR(CRP_TBL),
               466            ADDR(MCA_TBL));
     6042      467    1   DCL 1 MAJ_STATUS_TBL(0:NUMSTATUS) CONSTANT ALIGNED,
     6043      468    1         2 MAJOR UBIN(4) UNAL INIT(%READY,
     6044      469    1                                   %DEVICE_BUSY,
     6045      470    1                                   %ATTENTION,
     6046      471    1                                   %DATA_ALERT,
     6047      472    1                                   %END_OF_FILE,
     6048      473    1                                   %COMMAND_REJECT,
     6049      474    1                                   %LOST_INTERRUPT,
PL6.E3A0      #010=THF$STATUS File=THF$FORMAT.:E05TSI                            WED 07/30/97 06:19 Page:1183
     6050      475    1                                   %MPC_ATTENTION,
     6051      476    1                                   %MPC_DATA_ALERT,
     6052      477    1                                   %MPC_COMMAND_REJECT,
     6053      478    1                                   %SYSTEM_FAULT),
     6054      479    1         2 COUNT UBIN BYTE UNAL INIT(5,11,9,10,6,14,9,13,14,14,12),
     6055      480    1         2 TEXT CHAR(20) UNAL INIT('READY',
     6056      481    1                                   'DEVICE BUSY',
     6057      482    1                                   'ATTENTION',
     6058      483    1                                   'DATA ALERT',
     6059      484    1                                   'E.O.F.',
     6060      485    1                                   'COMMAND REJECT',
     6061      486    1                                   'LOST INT.',
     6062      487    1                                   'MPC ATTENTION',
     6063      488    1                                   'MPC DATA ALERT',
     6064      489    1                                   'MPC CMD REJECT',
     6065      490    1                                   'SYSTEM FAULT');
     6066      491    1   DCL 1 DP_TBL(0:NUMSTATUS) CONSTANT ALIGNED,
     6067      492    1         2 MAJOR UBIN(4) UNAL INIT(%READY,
     6068      493    1                                   %DEVICE_BUSY,
     6069      494    1                                   %ATTENTION,
     6070      495    1                                   %DATA_ALERT,
     6071      496    1                                   %END_OF_FILE,
     6072      497    1                                   %COMMAND_REJECT,
     6073      498    1                                   %LOST_INTERRUPT,
     6074      499    1                                   %MPC_ATTENTION,
     6075      500    1                                   %MPC_DATA_ALERT,
     6076      501    1                                   %MPC_COMMAND_REJECT,
     6077      502    1                                   %SYSTEM_FAULT),
     6078      503    1         2 SUB$ PTR INIT(ADDR(DP_READY),
     6079      504    1                         ADDR(DP_DEVICE_BUSY),
     6080      505    1                         ADDR(DP_ATTENTION),
     6081      506    1                         ADDR(DP_DATA_ALERT),
     6082      507    1                         ADDR(DP_END_OF_FILE),
     6083      508    1                         ADDR(DP_COMMAND_REJECT),
     6084      509    1                         ADDR(NIL),
     6085      510    1                         ADDR(DP_MPC_ATTENTION),
     6086      511    1                         ADDR(DP_MPC_DATA_ALERT),
PL6.E3A0      #010=THF$STATUS File=THF$FORMAT.:E05TSI                            WED 07/30/97 06:19 Page:1184
     6087      512    1                         ADDR(DP_MPC_COMMAND_REJECT),
     6088      513    1                         ADDR(NIL));
     6089      514    1   DCL 1 MT_TBL(0:NUMSTATUS) CONSTANT ALIGNED,
     6090      515    1         2 MAJOR UBIN(4) UNAL INIT(%READY,
     6091      516    1                                   %DEVICE_BUSY,
     6092      517    1                                   %ATTENTION,
     6093      518    1                                   %DATA_ALERT,
     6094      519    1                                   %END_OF_FILE,
     6095      520    1                                   %COMMAND_REJECT,
     6096      521    1                                   %LOST_INTERRUPT,
     6097      522    1                                   %MPC_ATTENTION,
     6098      523    1                                   %MPC_DATA_ALERT,
     6099      524    1                                   %MPC_COMMAND_REJECT,
     6100      525    1                                   %SYSTEM_FAULT),
     6101      526    1         2 SUB$ PTR INIT(ADDR(MT_READY),
     6102      527    1                         ADDR(MT_DEVICE_BUSY),
     6103      528    1                         ADDR(MT_ATTENTION),
     6104      529    1                         ADDR(MT_DATA_ALERT),
     6105      530    1                         ADDR(MT_END_OF_FILE),
     6106      531    1                         ADDR(MT_COMMAND_REJECT),
     6107      532    1                         ADDR(NIL),
     6108      533    1                         ADDR(MT_MPC_ATTENTION),
     6109      534    1                         ADDR(MT_MPC_DATA_ALERT),
     6110      535    1                         ADDR(MT_MPC_COMMAND_REJECT),
     6111      536    1                         ADDR(NIL));
     6112      537    1   DCL 1 LP_TBL(0:NUMSTATUS) CONSTANT ALIGNED,
     6113      538    1         2 MAJOR UBIN(4) UNAL INIT(%READY,
     6114      539    1                                   %DEVICE_BUSY,
     6115      540    1                                   %ATTENTION,
     6116      541    1                                   %DATA_ALERT,
     6117      542    1                                   %END_OF_FILE,
     6118      543    1                                   %COMMAND_REJECT,
     6119      544    1                                   %LOST_INTERRUPT,
     6120      545    1                                   %MPC_ATTENTION,
     6121      546    1                                   %MPC_DATA_ALERT,
     6122      547    1                                   %MPC_COMMAND_REJECT,
     6123      548    1                                   %SYSTEM_FAULT),
PL6.E3A0      #010=THF$STATUS File=THF$FORMAT.:E05TSI                            WED 07/30/97 06:19 Page:1185
     6124      549    1         2 SUB$ PTR INIT(ADDR(LP_READY),
     6125      550    1                         ADDR(NIL),
     6126      551    1                         ADDR(LP_ATTENTION),
     6127      552    1                         ADDR(LP_DATA_ALERT),
     6128      553    1                         ADDR(NIL),
     6129      554    1                         ADDR(LP_COMMAND_REJECT),
     6130      555    1                         ADDR(NIL),
     6131      556    1                         ADDR(LP_MPC_ATTENTION),
     6132      557    1                         ADDR(LP_MPC_DATA_ALERT),
     6133      558    1                         ADDR(LP_MPC_COMMAND_REJECT),
     6134      559    1                         ADDR(NIL));
     6135      560    1   DCL 1 CRP_TBL(0:NUMSTATUS) CONSTANT ALIGNED,
     6136      561    1         2 MAJOR UBIN(4) UNAL INIT(%READY,
     6137      562    1                                   %DEVICE_BUSY,
     6138      563    1                                   %ATTENTION,
     6139      564    1                                   %DATA_ALERT,
     6140      565    1                                   %END_OF_FILE,
     6141      566    1                                   %COMMAND_REJECT,
     6142      567    1                                   %LOST_INTERRUPT,
     6143      568    1                                   %MPC_ATTENTION,
     6144      569    1                                   %MPC_DATA_ALERT,
     6145      570    1                                   %MPC_COMMAND_REJECT,
     6146      571    1                                   %SYSTEM_FAULT),
     6147      572    1         2 SUB$ PTR INIT(ADDR(CRP_READY),
     6148      573    1                         ADDR(NIL),
     6149      574    1                         ADDR(CRP_ATTENTION),
     6150      575    1                         ADDR(CRP_DATA_ALERT),
     6151      576    1                         ADDR(NIL),
     6152      577    1                         ADDR(CRP_COMMAND_REJECT),
     6153      578    1                         ADDR(NIL),
     6154      579    1                         ADDR(CRP_MPC_ATTENTION),
     6155      580    1                         ADDR(CRP_MPC_DATA_ALERT),
     6156      581    1                         ADDR(CRP_MPC_COMMAND_REJECT),
     6157      582    1                         ADDR(NIL));
     6158      583    1   DCL 1 MCA_TBL(0:NUMSTATUS) CONSTANT ALIGNED,
     6159      584    1         2 MAJOR UBIN(4) UNAL INIT(%READY,
     6160      585    1                                   %DEVICE_BUSY,
PL6.E3A0      #010=THF$STATUS File=THF$FORMAT.:E05TSI                            WED 07/30/97 06:19 Page:1186
     6161      586    1                                   %ATTENTION,
     6162      587    1                                   %DATA_ALERT,
     6163      588    1                                   %END_OF_FILE,
     6164      589    1                                   %COMMAND_REJECT,
     6165      590    1                                   %LOST_INTERRUPT,
     6166      591    1                                   %MPC_ATTENTION,
     6167      592    1                                   %MPC_DATA_ALERT,
     6168      593    1                                   %MPC_COMMAND_REJECT,
     6169      594    1                                   %SYSTEM_FAULT),
     6170      595    1         2 SUB$ PTR INIT(ADDR(MCA_READY),
     6171      596    1                         ADDR(NIL),
     6172      597    1                         ADDR(MCA_ATTENTION),
     6173      598    1                         ADDR(MCA_DATA_ALERT),
     6174      599    1                         ADDR(NIL),
     6175      600    1                         ADDR(MCA_COMMAND_REJECT),
     6176      601    1                         ADDR(NIL),
     6177      602    1                         ADDR(MCA_MPC_ATTENTION),
     6178      603    1                         ADDR(MCA_MPC_DATA_ALERT),
     6179      604    1                         ADDR(MCA_MPC_COMMAND_REJECT),
     6180      605    1                         ADDR(NIL));
     6181      606    1   DCL 1 DP_READY(0:NUMMINORS) CONSTANT ALIGNED,
     6182      607    1         2 MASK BIT(1) UNAL INIT('0'B*0),
     6183      608    1         2 CODE BIT(6) UNAL INIT('00'O,'01'O,'02'O,'03'O,'20'O,'00'O*0),
     6184      609    1         2 COUNT UBIN BYTE UNAL INIT(5,7,9,9,15,0*0),
     6185      610    1         2 TEXT CHAR(20) UNAL INIT('READY',
     6186      611    1                                   '1 RETRY',
     6187      612    1                                   '2 RETRIES',
     6188      613    1                                   '3 RETRIES',
     6189      614    1                                   'EDAC CORRECTION',' '*0);
     6190      615    1   DCL 1 DP_DEVICE_BUSY (0:NUMMINORS) CONSTANT ALIGNED,
     6191      616    1         2 MASK BIT(1) UNAL INIT('0'B*0),
     6192      617    1         2 CODE BIT(6) UNAL INIT('00'O,'20'O,'01'O,'40'O,'00'O*0),
     6193      618    1         2 COUNT UBIN BYTE UNAL INIT(15,17,19,11,0*0),
     6194      619    1         2 TEXT CHAR(20) UNAL INIT('DEV POSITIONING',
     6195      620    1                                   'CONTROL UNIT BUSY',
     6196      621    1                                   'IPI/DEV RESP ~AVAIL',
     6197      622    1                                   'ALT CHANNEL',' '*0);
PL6.E3A0      #010=THF$STATUS File=THF$FORMAT.:E05TSI                            WED 07/30/97 06:19 Page:1187
     6198      623    1   DCL 1 DP_ATTENTION (0:NUMMINORS) CONSTANT ALIGNED,
     6199      624    1         2 MASK BIT(1) UNAL INIT('0'B*0),
     6200      625    1        2 CODE BIT(6) UNAL INIT('10'O,'14'O,'40'O,'15'O,'02'O,'16'O,'01'O,'20'O,'00'O*
               625                  0),
     6201      626    1         2 COUNT UBIN BYTE UNAL INIT(8,9,11,10,15,8,13,14,0*0),
     6202      627    1         2 TEXT CHAR(20) UNAL INIT('DEV INOP',
     6203      628    1                                   'EN1 ALERT',
     6204      629    1                                   'DEV OFFLINE',
     6205      630    1                                   'CA EN1 ALERT',
     6206      631    1                                   'SEEK INCOMPLETE',
     6207      632    1                                   'CA ALERT',
     6208      633    1                                   'WRITE INHIBIT',
     6209      634    1                                   'DEV IN STANDBY',' '*0);
     6210      635    1   DCL 1 DP_DATA_ALERT(0:NUMMINORS) CONSTANT ALIGNED,
     6211      636    1         2 MASK BIT(1) UNAL INIT('0'B*3,'1'B*3,'0'B*0),
     6212      637    1         2 CODE BIT(6) UNAL INIT('02'O,'01'O,'04'O,'10'O,'20'O,'40'O,'00'O*0),
     6213      638    1         2 COUNT UBIN BYTE UNAL INIT(12,3,17,13,12,13,0*0),
     6214      639    1         2 TEXT CHAR(20) UNAL INIT('TRANS PARITY',
     6215      640    1                                   'TTE',
     6216      641    1                                   'INVALID SEEK ADDR',
     6217      642    1                                   'HDR VER ERROR',
     6218      643    1                                   'CYCLIC CHECK',
     6219      644    1                                   'COMPARE ALERT',' '*0);
     6220      645    1   DCL 1 DP_END_OF_FILE (0:NUMMINORS) CONSTANT ALIGNED,
     6221      646    1         2 MASK BIT(1) UNAL INIT('1'B*2,'0'B*0),
     6222      647    1         2 CODE BIT(6) UNAL INIT('01'O,'02'O,'04'O,'10'O,'20'O,'00'O*0),
     6223      648    1         2 COUNT UBIN BYTE UNAL INIT(15,16,13,14,16,17,0*0),
     6224      649    1         2 TEXT CHAR(20) UNAL INIT('LAST CONSEC BLK',
     6225      650    1                                   'SECTOR CNT LIMIT',
     6226      651    1                                   'DEF TRK (ATA)',
     6227      652    1                                   'DEF TRK (ATNA)',
     6228      653    1                                   'ALT TRK DETECTED',
     6229      654    1                                   'GOOD TRK DETECTED',' '*0);
     6230      655    1   DCL 1 DP_COMMAND_REJECT(0:NUMMINORS) CONSTANT ALIGNED,
     6231      656    1         2 MASK BIT(1) UNAL INIT('0'B*0),
     6232      657    1         2 CODE BIT(6) UNAL INIT('04'O,'01'O,'02'O,'10'O,'00'O*0),
     6233      658    1         2 COUNT UBIN BYTE UNAL INIT(17,15,16,16,0*0),
PL6.E3A0      #010=THF$STATUS File=THF$FORMAT.:E05TSI                            WED 07/30/97 06:19 Page:1188
     6234      659    1         2 TEXT CHAR(20) UNAL INIT('IDCW PARITY ALERT',
     6235      660    1                                   'INVALID OP CODE',
     6236      661    1                                   'INVALID DEV CODE',
     6237      662    1                                   'INVALID INST SEQ',' '*0);
     6238      663    1   DCL 1 DP_MPC_ATTENTION (0:NUMMINORS) CONSTANT ALIGNED,
     6239      664    1         2 MASK BIT(1) UNAL INIT('0'B*0),
     6240      665    1         2 CODE BIT(6) UNAL INIT('01'O,'03'O,'02'O,'13'O,'14'O,'15'O,
     6241      666    1                                 '16'O,'17'O,'22'O,'23'O,'00'O*0),
     6242      667    1         2 COUNT UBIN BYTE UNAL INIT(12,13,16,17,18,18,19,18,12,12,0*0),
     6243      668    1         2 TEXT CHAR(20) UNAL INIT('CONFIG ERROR',
     6244      669    1                                   'DEVICE# ERROR',
     6245      670    1                                   'MULTIPLE DEVICES',
     6246      671    1                                   'CA UNEXPECTED INT',
     6247      672    1                                   'CA/IPC MALFUNCTION',
     6248      673    1                                   'SD DISC / CA ERROR',
     6249      674    1                                   'SD OFFLINE/CA ALERT',
     6250      675    1                                   'WRITE ERR IN FAULT',
     6251      676    1                                   'EXEC FAULT A',
     6252      677    1                                   'EXEC FAULT B',' '*0);
     6253      678    1   DCL 1 DP_MPC_DATA_ALERT(0:NUMMINORS) CONSTANT ALIGNED,
     6254      679    1         2 MASK BIT(1) UNAL INIT('0'B*0),
     6255      680    1        2 CODE BIT(6) UNAL INIT('01'O,'16'O,'02'O,'23'O,'03'O,'04'O,'24'O,'11'O,'26'O,
     6256      681    1                       '12'O,'27'O,'21'O,'31'O,'22'O,'32'O,'25'O,'41'O,'42'O,'00'O*0),
     6257      682    1         2 COUNT UBIN BYTE UNAL INIT(16,11,16,12,14,15,11,12,16,17,16,17,16,17,17,
     6258      683    1                                     19,20,18,0*0),
     6259      684    1         2 TEXT CHAR(20) UNAL INIT('TRANS PARITY ERR',
     6260      685    1                                   'EDAC PARITY',
     6261      686    1                                   'INCONSISTENT CMD',
     6262      687    1                                   'SEARCH ALERT',
     6263      688    1                                   'SUMCHECK ERROR',
     6264      689    1                                   'BYTE LOCKED OUT',
     6265      690    1                                   'CYCLIC CODE',
     6266      691    1                                   'ERR CORR REQ',
     6267      692    1                                   'SYNC BYTE~=''19''X',
     6268      693    1                                   'EDAC ERROR UNCORR',
     6269      694    1                                   'ERROR ON ALT TRK',
     6270      695    1                                   'SECTOR SIZE ERROR',
PL6.E3A0      #010=THF$STATUS File=THF$FORMAT.:E05TSI                            WED 07/30/97 06:19 Page:1189
     6271      696    1                                   'EDAC CORR (LAST)',
     6272      697    1                                   'NONSTD SECTOR SIZ',
     6273      698    1                                   'EDAC CORR (NLAST)',
     6274      699    1                                   'SEARCH ERR (NFIRST)',
     6275      700    1                                   'WRITE BUF PARITY ERR',
     6276      701    1                                   'UNCORRECTABLE READ',' '*0);
     6277      702    1   DCL 1 DP_MPC_COMMAND_REJECT(0:NUMMINORS) CONSTANT ALIGNED,
     6278      703    1         2 MASK BIT(1) UNAL INIT('0'B*0),
     6279      704    1         2 CODE BIT(6) UNAL INIT('01'O,'02'O,'03'O,'04'O,'00'O*0),
     6280      705    1         2 COUNT UBIN BYTE UNAL INIT(13,13,17,16,0*0),
     6281      706    1         2 TEXT CHAR(20) UNAL INIT('ILL PROCEDURE',
     6282      707    1                                   'ILL LOG CHAN#',
     6283      708    1                                   'ILL CHAN# TO SUSP',
     6284      709    1                                   'CONT BIT NOT SET',' '*0);
     6285      710    1   DCL 1 MT_READY (0:NUMMINORS) CONSTANT ALIGNED,
     6286      711    1         2 MASK BIT(1) UNAL INIT('0'B,'1'B*6,'0'B*0),
     6287      712    1        2 CODE BIT(6) UNAL INIT('00'O,'01'O,'20'O,'40'O,'50'O,'02'O,'04'O,'14'O,'00'O*
               712                  0),
     6288      713    1         2 COUNT UBIN BYTE UNAL INIT(5,15,12,13,12,13,12,17,0*0),
     6289      714    1         2 TEXT CHAR(20) UNAL INIT('READY',
     6290      715    1                                   'WRITE PROTECTED',
     6291      716    1                                   'TWO BIT FULL',
     6292      717    1                                   'FOUR BIT FULL',
     6293      718    1                                   'SIX BIT FULL',
     6294      719    1                                   'POS AT B.O.T.',
     6295      720    1                                   '9 TRK MTH',
     6296      721    1                                   'ASCII/EBCDIC CODE',' '*0);
     6297      722    1   DCL 1 MT_DEVICE_BUSY(0:NUMMINORS) CONSTANT ALIGNED,
     6298      723    1         2 MASK BIT(1) UNAL INIT('0'B*0),
     6299      724    1         2 CODE BIT(6) UNAL INIT('40'O,'01'O,'02'O,'04'O,'00'O*0),
     6300      725    1         2 COUNT UBIN BYTE UNAL INIT(15,9,11,7,0*0),
     6301      726    1         2 TEXT CHAR(20) UNAL INIT('DEVICE RESERVED',
     6302      727    1                                   'REWINDING',
     6303      728    1                                   'ALT CHANNEL',
     6304      729    1                                   'LOADING',' '*0);
     6305      730    1   DCL 1 MT_ATTENTION(0:NUMMINORS) CONSTANT ALIGNED,
     6306      731    1         2 MASK BIT(1) UNAL INIT('0'B,'1'B*4,'0'B*0),
PL6.E3A0      #010=THF$STATUS File=THF$FORMAT.:E05TSI                            WED 07/30/97 06:19 Page:1190
     6307      732    1         2 CODE BIT(6) UNAL INIT('02'O,'04'O,'10'O,'01'O,'20'O,'00'O*0),
     6308      733    1         2 COUNT UBIN BYTE UNAL INIT(11,14,12,13,19,0*0),
     6309      734    1         2 TEXT CHAR(20) UNAL INIT('NO SUCH MTH',
     6310      735    1                                   'MTH IN STANDBY',
     6311      736    1                                   'DEVICE FAULT',
     6312      737    1                                   'WRITE PROTECT',
     6313      738    1                                   'BLANK TAPE ON WRITE',' '*0);
     6314      739    1   DCL 1 MT_DATA_ALERT(0:NUMMINORS) CONSTANT ALIGNED,
     6315      740    1         2 MASK BIT(1) UNAL INIT('0'B*2,'1'B*5,'0'B*0),
     6316      741    1        2 CODE BIT(6) UNAL INIT('02'O,'01'O,'03'O,'04'O,'10'O,'20'O,'40'O,'10'O,'00'O*
               741                  0),
     6317      742    1         2 COUNT UBIN BYTE UNAL INIT(16,3,12,15,11,12,6,10,17,0*0),
     6318      743    1         2 TEXT CHAR(20) UNAL INIT('BLANK TAPE ON READ',
     6319      744    1                                   'TTE',
     6320      745    1                                   'BIT ON ERASE',
     6321      746    1                                   'TRANS PAR ALERT',
     6322      747    1                                   'LAT PAR ERR',
     6323      748    1                                   'LONG PAR ERR',
     6324      749    1                                   'E.O.T.',
     6325      750    1                                   'FRAME DROP',
     6326      751    1                                   'ASCII/EBCDIC CODE',' '*0);
     6327      752    1   DCL 1 MT_END_OF_FILE (0:NUMMINORS) CONSTANT ALIGNED,
     6328      753    1         2 MASK BIT(1) UNAL INIT('0'B*3,'1'B,'0'B*0),
     6329      754    1         2 CODE BIT(6) UNAL INIT('17'O,'23'O,'77'O,'00'O*0),
     6330      755    1         2 COUNT UBIN BYTE UNAL INIT(14,14,10,15,0*0),
     6331      756    1         2 TEXT CHAR(20) UNAL INIT('E.O.F. (7 TRK)',
     6332      757    1                                   'E.O.F. (9 TRK)',
     6333      758    1                                   'DATA ALERT',
     6334      759    1                                   'SINGLE CHAR REC',' '*0);
     6335      760    1   DCL 1 MT_COMMAND_REJECT(0:NUMMINORS) CONSTANT ALIGNED,
     6336      761    1         2 MASK BIT(1) UNAL INIT('1'B*3,'0'B*0),
     6337      762    1         2 CODE BIT(6) UNAL INIT('01'O,'02'O,'04'O,'10'O,'20'O,'40'O,'00'O*0),
     6338      763    1         2 COUNT UBIN BYTE UNAL INIT(11,15,17,6,16,12,15,0*0),
     6339      764    1         2 TEXT CHAR(20) UNAL INIT('INV OP CODE',
     6340      765    1                                   'INV DEVICE CODE',
     6341      766    1                                   'IDCW PARITY ALERT',
     6342      767    1                                   'B.O.T.',
PL6.E3A0      #010=THF$STATUS File=THF$FORMAT.:E05TSI                            WED 07/30/97 06:19 Page:1191
     6343      768    1                                   'FWD RD AFTER WRT',
     6344      769    1                                   'NINE TRK MTH',
     6345      770    1                                   'INVALID DENSITY',' '*0);
     6346      771    1   DCL 1 MT_MPC_ATTENTION(0:NUMMINORS) CONSTANT ALIGNED,
     6347      772    1         2 MASK BIT(1) UNAL INIT('0'B*2,'1'B,'0'B*0),
     6348      773    1         2 CODE BIT(6) UNAL INIT('03'O,'02'O,'14'O,'20'O,'10'O,'21'O,'01'O,'00'O*0),
     6349      774    1         2 COUNT UBIN BYTE UNAL INIT(13,16,15,15,14,15,12,0*0),
     6350      775    1         2 TEXT CHAR(20) UNAL INIT('DEVICE# ERROR',
     6351      776    1                                   'MULTIPLE DEVICES',
     6352      777    1                                   'TCA MALFUNCTION',
     6353      778    1                                   'DEV MALFUNCTION',
     6354      779    1                                   'INCORRECT MODE',
     6355      780    1                                   'MULTIPLE B.O.T.',
     6356      781    1                                   'CONFIG ERROR',' '*0);
     6357      782    1   DCL 1 MT_MPC_DATA_ALERT (0:NUMMINORS) CONSTANT ALIGNED,
     6358      783    1         2 MASK BIT(1) UNAL INIT('0'B*0),
     6359      784    1        2 CODE BIT(6) UNAL INIT('10'O,'11'O,'20'O,'21'O,'22'O,'23'O,'24'O,'02'O,'03'O,
               784                  '04'O,'01'O,'40'O,'00'O*0),
     6360      785    1         2 COUNT UBIN BYTE UNAL INIT(14,14,15,10,15,14,10,16,14,15,16,13,0*0),
     6361      786    1         2 TEXT CHAR(20) UNAL INIT('PE BURST ERROR',
     6362      787    1                                   'PREAMBLE ERROR',
     6363      788    1                                   'MULTI-TRK ERROR',
     6364      789    1                                   'SKEW ERROR',
     6365      790    1                                   'POSTAMBLE ERROR',
     6366      791    1                                   'NRZI CCC ERROR',
     6367      792    1                                   'CODE ALERT',
     6368      793    1                                   'INCONSISTENT CMD',
     6369      794    1                                   'SUMCHECK ERROR',
     6370      795    1                                   'BYTE LOCKED OUT',
     6371      796    1                                   'TRANS PARITY ERR',
     6372      797    1                                   'MARGINAL COND',' '*0);
     6373      798    1   DCL 1 MT_MPC_COMMAND_REJECT (0:NUMMINORS) CONSTANT ALIGNED,
     6374      799    1         2 MASK BIT(1) UNAL INIT('0'B*0),
     6375      800    1         2 CODE BIT(6) UNAL INIT('01'O,'02'O,'03'O,'04'O,'00'O*0),
     6376      801    1         2 COUNT UBIN BYTE UNAL INIT(13,13,17,17,0*0),
     6377      802    1         2 TEXT CHAR(20) UNAL INIT('ILL PROCEDURE',
     6378      803    1                                   'ILL LOG CHAN#',
PL6.E3A0      #010=THF$STATUS File=THF$FORMAT.:E05TSI                            WED 07/30/97 06:19 Page:1192
     6379      804    1                                   'ILL CHAN# TO SUSP',
     6380      805    1                                   'CONT BIT NOT SETP',' '*0);
     6381      806    1   DCL 1 LP_READY(0:NUMMINORS) CONSTANT ALIGNED,
     6382      807    1         2 MASK BIT(1) UNAL INIT('0'B*0),
     6383      808    1        2 CODE BIT(6) UNAL INIT('00'O,'01'O,'02'O,'03'O,'04'O,'05'O,'06'O,'07'O,'00'O*
               808                  0),
     6384      809    1         2 COUNT UBIN BYTE UNAL INIT(5,14,9,13,12,7,9,16,0*0),
     6385      810    1         2 TEXT CHAR(20) UNAL INIT('READY',
     6386      811    1                                   'PRINT ONE LINE',
     6387      812    1                                   'FWD SPACE',
     6388      813    1                                   'FWD TO T.O.P.',
     6389      814    1                                   'INVALID LINE',
     6390      815    1                                   'REV RWD',
     6391      816    1                                   'BACKSPACE',
     6392      817    1                                   'BACKSPACE TO TOP',' '*0);
     6393      818    1   DCL 1 LP_COMMAND_REJECT(0:NUMMINORS) CONSTANT ALIGNED,
     6394      819    1         2 MASK BIT(1) UNAL INIT('0'B*0),
     6395      820    1         2 CODE BIT(6) UNAL INIT('01'O,'02'O,'04'O,'20'O,'40'O,'00'O*0),
     6396      821    1         2 COUNT UBIN BYTE UNAL INIT(12,15,17,10,6,0*0),
     6397      822    1         2 TEXT CHAR(20) UNAL INIT('INV OP CODE',
     6398      823    1                                   'INV DEVICE CODE',
     6399      824    1                                   'IDCW PARITY ALERT',
     6400      825    1                                   'SLEW ERROR',
     6401      826    1                                   'T.O.P.',' '*0);
     6402      827    1   DCL 1 LP_MPC_ATTENTION(0:NUMMINORS) CONSTANT ALIGNED,
     6403      828    1         2 MASK BIT(1) UNAL INIT('0'B*0),
     6404      829    1         2 CODE BIT(6) UNAL INIT('01'O,'02'O,'00'O*0),
     6405      830    1         2 COUNT UBIN BYTE UNAL INIT(9,9,0*0),
     6406      831    1         2 TEXT CHAR(20) UNAL INIT('IAI ERROR',
     6407      832    1                                   'DAI ERROR',' '*0);
     6408      833    1   DCL 1 LP_MPC_DATA_ALERT(0:NUMMINORS) CONSTANT ALIGNED,
     6409      834    1         2 MASK BIT(1) UNAL INIT('0'B*0),
     6410      835    1         2 CODE BIT(6) UNAL INIT('01'O,'03'O,'05'O,'06'O,'00'O*0),
     6411      836    1         2 COUNT UBIN BYTE UNAL INIT(16,14,9,12,0*0),
     6412      837    1         2 TEXT CHAR(20) UNAL INIT('PSI PARITY ERROR',
     6413      838    1                                   'SUMCHECK ERROR',
     6414      839    1                                   'DAI ERROR',
PL6.E3A0      #010=THF$STATUS File=THF$FORMAT.:E05TSI                            WED 07/30/97 06:19 Page:1193
     6415      840    1                                   'PSI OVERFLOW',' '*0);
     6416      841    1   DCL 1 LP_MPC_COMMAND_REJECT(0:NUMMINORS) CONSTANT ALIGNED,
     6417      842    1         2 MASK BIT(1) UNAL INIT('0'B*0),
     6418      843    1         2 CODE BIT(6) UNAL INIT('01'O,'02'O,'10'O,'00'O*0),
     6419      844    1         2 COUNT UBIN BYTE UNAL INIT(13,13,15,0*0),
     6420      845    1         2 TEXT CHAR(20) UNAL INIT('ILL PROCEDURE',
     6421      846    1                                   'ILL LOG CHAN#',
     6422      847    1                                   'DEVICE RESERVED',' '*0);
     6423      848    1   DCL 1 LP_ATTENTION(0:NUMMINORS) CONSTANT ALIGNED,
     6424      849    1         2 MASK BIT(1) UNAL INIT('0'B*0),
     6425      850    1         2 CODE BIT(6) UNAL INIT('00'O,'01'O,'02'O,'04'O,'10'O,'00'O*0),
     6426      851    1         2 COUNT UBIN BYTE UNAL INIT(11,12,7,13,11,0*0),
     6427      852    1         2 TEXT CHAR(20) UNAL INIT('POWER FAULT',
     6428      853    1                                   'OUT OF PAPER',
     6429      854    1                                   'STOPPED',
     6430      855    1                                   'VFU/VFC ALERT',
     6431      856    1                                   'CHECK ALERT',' '*0);
     6432      857    1   DCL 1 LP_DATA_ALERT(0:NUMMINORS) CONSTANT ALIGNED,
     6433      858    1         2 MASK BIT(1) UNAL INIT('0'B*0),
     6434      859    1         2 CODE BIT(6) UNAL INIT('00'O,'01'O,'02'O,'04'O,'10'O,'20'O,'40'O,'00'O*0),
     6435      860    1         2 COUNT UBIN BYTE UNAL INIT(15,3,13,13,7,12,11,0*0),
     6436      861    1         2 TEXT CHAR(20) UNAL INIT('IMAGE BFR ALERT',
     6437      862    1                                   'TTE',
     6438      863    1                                   'ALERT BEF PRT',
     6439      864    1                                   'ALERT AFT PRT',
     6440      865    1                                   'WARNING',
     6441      866    1                                   'PAPER MOTION',
     6442      867    1                                   'T.O.P. ECHO',' '*0);
     6443      868    1   DCL 1 CRP_READY(0:NUMMINORS) CONSTANT ALIGNED,
     6444      869    1         2 MASK BIT(1) UNAL INIT('0'B*0),
     6445      870    1        2 CODE BIT(6) UNAL INIT('00'O,'01'O,'02'O,'03'O,'04'O,'05'O,'06'O,'07'O,'00'O*
               870                  0),
     6446      871    1         2 COUNT UBIN BYTE UNAL INIT(5,15,9,13,12,7,9,16,0*0),
     6447      872    1         2 TEXT CHAR(20) UNAL INIT('READY',
     6448      873    1                                   '51 COLUMN CARDS',
     6449      874    1                                   'FWD SPACE',
     6450      875    1                                   'FWD TO T.O.P.',
PL6.E3A0      #010=THF$STATUS File=THF$FORMAT.:E05TSI                            WED 07/30/97 06:19 Page:1194
     6451      876    1                                   'INVALID LINE',
     6452      877    1                                   'REV RWD',
     6453      878    1                                   'BACKSPACE',
     6454      879    1                                   'BACKSPACE TO TOP',' '*0);
     6455      880    1   DCL 1 CRP_COMMAND_REJECT(0:NUMMINORS) CONSTANT ALIGNED,
     6456      881    1         2 MASK BIT(1) UNAL INIT('0'B*0),
     6457      882    1         2 CODE BIT(6) UNAL INIT('01'O,'02'O,'04'O,'20'O,'40'O,'00'O*0),
     6458      883    1         2 COUNT UBIN BYTE UNAL INIT(12,15,17,10,6,0*0),
     6459      884    1         2 TEXT CHAR(20) UNAL INIT('INV OP CODE',
     6460      885    1                                   'INV DEVICE CODE',
     6461      886    1                                   'IDCW PARITY ALERT',
     6462      887    1                                   'SLEW ERROR',
     6463      888    1                                   'T.O.P.',' '*0);
     6464      889    1   DCL 1 CRP_MPC_ATTENTION(0:NUMMINORS) CONSTANT ALIGNED,
     6465      890    1         2 MASK BIT(1) UNAL INIT('0'B*0),
     6466      891    1         2 CODE BIT(6) UNAL INIT('01'O,'02'O,'00'O*0),
     6467      892    1         2 COUNT UBIN BYTE UNAL INIT(9,9,0*0),
     6468      893    1         2 TEXT CHAR(20) UNAL INIT('IAI ERROR',
     6469      894    1                                   'DAI ERROR',' '*0);
     6470      895    1   DCL 1 CRP_MPC_DATA_ALERT(0:NUMMINORS) CONSTANT ALIGNED,
     6471      896    1         2 MASK BIT(1) UNAL INIT('0'B*0),
     6472      897    1         2 CODE BIT(6) UNAL INIT('01'O,'03'O,'05'O,'06'O,'00'O*0),
     6473      898    1         2 COUNT UBIN BYTE UNAL INIT(16,14,9,12,0*0),
     6474      899    1         2 TEXT CHAR(20) UNAL INIT('PSI PARITY ERROR',
     6475      900    1                                   'SUMCHECK ERROR',
     6476      901    1                                   'DAI ERROR',
     6477      902    1                                   'PSI OVERFLOW',' '*0);
     6478      903    1   DCL 1 CRP_MPC_COMMAND_REJECT(0:NUMMINORS) CONSTANT ALIGNED,
     6479      904    1         2 MASK BIT(1) UNAL INIT('0'B*0),
     6480      905    1         2 CODE BIT(6) UNAL INIT('01'O,'02'O,'10'O,'00'O*0),
     6481      906    1         2 COUNT UBIN BYTE UNAL INIT(13,13,15,0*0),
     6482      907    1         2 TEXT CHAR(20) UNAL INIT('ILL PROCEDURE',
     6483      908    1                                   'ILL LOG CHAN#',
     6484      909    1                                   'DEVICE RESERVED',' '*0);
     6485      910    1   DCL 1 CRP_ATTENTION(0:NUMMINORS) CONSTANT ALIGNED,
     6486      911    1         2 MASK BIT(1) UNAL INIT('0'B*0),
     6487      912    1         2 CODE BIT(6) UNAL INIT('00'O,'01'O,'04'O,'10'O,'20'O,'40'O,'02'O,'00'O*0),
PL6.E3A0      #010=THF$STATUS File=THF$FORMAT.:E05TSI                            WED 07/30/97 06:19 Page:1195
     6488      913    1         2 COUNT UBIN BYTE UNAL INIT(8,14,13,10,3,10,11,0*0),
     6489      914    1         2 TEXT CHAR(20) UNAL INIT('OFF-LINE',
     6490      915    1                                   'HOPPER/STACKER',
     6491      916    1                                   'CHAD BOX FULL',
     6492      917    1                                   'FEED ALERT',
     6493      918    1                                   'JAM',
     6494      919    1                                   'READ ALERT',
     6495      920    1                                   'MANUAL HALT',' '*0);
     6496      921    1   DCL 1 CRP_DATA_ALERT(0:NUMMINORS) CONSTANT ALIGNED,
     6497      922    1         2 MASK BIT(1) UNAL INIT('0'B*0),
     6498      923    1         2 CODE BIT(6) UNAL INIT('02'O,'04'O,'00'O*0),
     6499      924    1         2 COUNT UBIN BYTE UNAL INIT(14,13,0*0),
     6500      925    1         2 TEXT CHAR(20) UNAL INIT('VALIDITY ERROR',
     6501      926    1                                   'DUAL RD ERROR',' '*0);
     6502      927    1   DCL 1 MCA_READY(0:NUMMINORS) CONSTANT ALIGNED,
     6503      928    1         2 MASK BIT(1) UNAL INIT('0'B*0),
     6504      929    1         2 CODE BIT(6) UNAL INIT('02'O,'03'O,'40'O,'42'O,'00'O*0),
     6505      930    1         2 COUNT UBIN BYTE UNAL INIT(14,15,17,14,0*0),
     6506      931    1         2 TEXT CHAR(20) UNAL INIT('END OF SESSION',
     6507      932    1                                   'SESSION ABORTED',
     6508      933    1                                   'INTERIM TERMINATE',
     6509      934    1                                   'END OF SESSION',' '*0);
     6510      935    1   DCL 1 MCA_ATTENTION(0:NUMMINORS) CONSTANT ALIGNED,
     6511      936    1         2 MASK BIT(1) UNAL INIT('0'B*0),
     6512      937    1         2 CODE BIT(6) UNAL INIT('41'O,'42'O,'44'O,'50'O,'60'O,'00'O*0),
     6513      938    1         2 COUNT UBIN BYTE UNAL INIT(13,10,9,12,9,0*0),
     6514      939    1         2 TEXT CHAR(20) UNAL INIT('WRITE INHIBIT',
     6515      940    1                                   'SEEK ERROR',
     6516      941    1                                   'NO DEVICE',
     6517      942    1                                   'DEVICE ERROR',
     6518      943    1                                   'DOOR OPEN',' '*0);
     6519      944    1   DCL 1 MCA_DATA_ALERT(0:NUMMINORS) CONSTANT ALIGNED,
     6520      945    1         2 MASK BIT(1) UNAL INIT('0'B*0),
     6521      946    1         2 CODE BIT(6) UNAL INIT('42'O,'60'O,'00'O*0),
     6522      947    1         2 COUNT UBIN BYTE UNAL INIT(12,9,0*0),
     6523      948    1         2 TEXT CHAR(20) UNAL INIT('PARITY ERROR',
     6524      949    1                                   'CRC ERROR',' '*0);
PL6.E3A0      #010=THF$STATUS File=THF$FORMAT.:E05TSI                            WED 07/30/97 06:19 Page:1196
     6525      950    1   DCL 1 MCA_COMMAND_REJECT(0:NUMMINORS) CONSTANT ALIGNED,
     6526      951    1         2 MASK BIT(1) UNAL INIT('0'B*0),
     6527      952    1         2 CODE BIT(6) UNAL INIT('01'O, '00'O*0),
     6528      953    1         2 COUNT UBIN BYTE UNAL INIT(19,0*0),
     6529      954    1         2 TEXT CHAR(20) UNAL INIT('INV OP CODE IN IDCW',' '*0);
     6530      955    1   DCL 1 MCA_MPC_ATTENTION(0:NUMMINORS) CONSTANT ALIGNED,
     6531      956    1         2 MASK BIT(1) UNAL INIT('0'B*0),
     6532      957    1         2 CODE BIT(6) UNAL INIT('20'O,'41'O,'42'O,'43'O,'00'O*0),
     6533      958    1         2 COUNT UBIN BYTE UNAL INIT(15,9,13,11,0*0),
     6534      959    1         2 TEXT CHAR(20) UNAL INIT('CONNECT TIMEOUT',
     6535      960    1                                   'REX ERROR',
     6536      961    1                                   'OVERLAY ERROR',
     6537      962    1                                   'MDI TIMEOUT',' '*0);
     6538      963    1   DCL 1 MCA_MPC_DATA_ALERT(0:NUMMINORS) CONSTANT ALIGNED,
     6539      964    1         2 MASK BIT(1) UNAL INIT('0'B*0),
     6540      965    1         2 CODE BIT(6) UNAL INIT('06'O,'07'O,'00'O*0),
     6541      966    1         2 COUNT UBIN BYTE UNAL INIT(13,14,0*0),
     6542      967    1         2 TEXT CHAR(20) UNAL INIT('DATA OVERFLOW',
     6543      968    1                                   'DATA UNDERFLOW',' '*0);
     6544      969    1   DCL 1 MCA_MPC_COMMAND_REJECT(0:NUMMINORS) CONSTANT ALIGNED,
     6545      970    1         2 MASK BIT(1) UNAL INIT('0'B*0),
     6546      971    1         2 CODE BIT(6) UNAL INIT('01'O,'04'O,'05'O,'42'O,'43'O,'50'O,'00'O*0),
     6547      972    1         2 COUNT UBIN BYTE UNAL INIT(20,18,10,20,18,18,0*0),
     6548      973    1         2 TEXT CHAR(20) UNAL INIT('ILL COMMAND SEQUENCE',
     6549      974    1                                   'CONTINUE BIT ERROR',
     6550      975    1                                   'BAD HEADER',
     6551      976    1                                   'INV PATHNAME/COMMAND',
     6552      977    1                                   'INV REQUEST FORMAT',
     6553      978    1                                   'SP REJ W/ASCII MSG',' '*0);
     6554      979    1   DCL 1 SYS_FAULT_CTRLR_CODE(0:12) CONSTANT ALIGNED,
     6555      980    1         2 CODE UBIN BYTE UNAL INIT(2,3,5,6,7,8,9,10,11,12,13,14,15),
     6556      981    1         2 COUNT UBIN BYTE UNAL INIT(14,10,7,7,7,13,13,15,9,13,13,15,15),
     6557      982    1         2 TEXT CHAR(20) UNAL INIT('NON_EXIST ADDR',
     6558      983    1                                   'FAULT COND',
     6559      984    1                                   'DAT PAR',
     6560      985    1                                   'DAT PAR',
     6561      986    1                                   'DAT PAR',
PL6.E3A0      #010=THF$STATUS File=THF$FORMAT.:E05TSI                            WED 07/30/97 06:19 Page:1197
     6562      987    1                                   'NOT CTRL PORT',
     6563      988    1                                   'PORT NOT ENAB',
     6564      989    1                                   'ILL INSTRUCTION',
     6565      990    1                                   'NOT READY',
     6566      991    1                                   'ZAC MOD TO SC',
     6567      992    1                                   'DAT MOD TO SC',
     6568      993    1                                   'ZAC SC TO STORE',
     6569      994    1                                   'DAT SC TO STORE');
     6570      995    1   DCL 1 SYS_FAULT_IOM_DET(0:14) CONSTANT ALIGNED,
     6571      996    1         2 CODE UBIN BYTE UNAL INIT(0,1,2,3,4,5,6,7,8,9,10,11,13,14,15),
     6572      997    1         2 COUNT UBIN BYTE UNAL INIT(8,8,12,7,16,11,13,12,11,7,7,14,14,14,11),
     6573      998    1         2 TEXT CHAR(20) UNAL INIT('NO FAULT',
     6574      999    1                                   'ILL CHAN',
     6575     1000    1                                   'ILL SERV REQ',
     6576     1001    1                                   'PAR ERR',
     6577     1002    1                                   'CTRL=0, TALLY~=0',
     6578     1003    1                                   'LPW TALLY=0',
     6579     1004    1                                   'DCW CONN~=111',
     6580     1005    1                                   'TDCW/DCW=111',
     6581     1006    1                                   'DCW BAD DAT',
     6582     1007    1                                   'NO RESP',
     6583     1008    1                                   'PAR ERR',
     6584     1009    1                                   'ILL TALLY CTRL',
     6585     1010    1                                   'PTW FLAG FAULT',
     6586     1011    1                                   'ILL LPW IN STD',
     6587     1012    1                                   'NO PORT SEL');
     6588     1013    1   DCL 1 TBL(0:NUMSTATUS) BASED ALIGNED,
     6589     1014    1         2 MAJOR UBIN(4) UNAL,
     6590     1015    1         2 SUB$ PTR;
     6591     1016    1   DCL 1 SUBTBL(0:NUMMINORS) BASED(SUBTBL$) ALIGNED,
     6592     1017    1         2 MASK BIT(1) UNAL,
     6593     1018    1         2 CODE BIT(6) UNAL,
     6594     1019    1         2 COUNT UBIN BYTE UNAL,
     6595     1020    1         2 TEXT CHAR(20) UNAL;
     6596     1021    1   DCL SUBTBL$ PTR;
     6597     1022    1   DCL TYPE_INDX UBIN WORD;
     6598     1023    1   DCL I UBIN WORD;
PL6.E3A0      #010=THF$STATUS File=THF$FORMAT.:E05TSI                            WED 07/30/97 06:19 Page:1198
     6599     1024    1   DCL J UBIN WORD;
     6600     1025        %EJECT;
PL6.E3A0      #010=THF$STATUS File=THF$FORMAT.:E05TSI                            WED 07/30/97 06:19 Page:1199
     6601     1026    1        MAJBUF = ' ';

   1026  2 000002   200004 470500                    LDP0    @MAJBUF,,AUTO
         2 000003   040100 100400                    MLR     fill='040'O
         2 000004   000035 000001 xsym               ADSC9   B_VECTNIL+29             cn=0,n=1
         2 000005   000000 000040                    ADSC9   0,,PR0                   cn=0,n=32

     6602     1027    1        MINBUF = ' ';

   1027  2 000006   200006 471500                    LDP1    @MINBUF,,AUTO
         2 000007   040100 100400                    MLR     fill='040'O
         2 000010   000035 000001 xsym               ADSC9   B_VECTNIL+29             cn=0,n=1
         2 000011   100000 000040                    ADSC9   0,,PR1                   cn=0,n=32

     6603     1028    1        MAJCOUNT = 0;

   1028  2 000012   200005 473500                    LDP3    @MAJCOUNT,,AUTO
         2 000013   300000 450100                    STZ     0,,PR3

     6604     1029    1        MINCOUNT = 0;

   1029  2 000014   200007 474500                    LDP4    @MINCOUNT,,AUTO
         2 000015   400000 450100                    STZ     0,,PR4

     6605     1030    1        IF SUBSTR(IOERR.DEVNM,0,2) = 'DP'

   1030  2 000016   200003 475500                    LDP5    @IOERR,,AUTO
         2 000017   500024 220100                    LDX0    20,,PR5
         2 000020   011640 100000 1                  CMPX0   SYS_FAULT_IOM_DET+90
         2 000021   000024 601000 2                  TNZ     s:1033

     6606     1031    1           THEN TYPE_INDX = 0;

   1031  2 000022   200011 450100                    STZ     TYPE_INDX,,AUTO
         2 000023   000055 710000 2                  TRA     s:1048

     6607     1032    1           ELSE
PL6.E3A0      #010=THF$STATUS File=THF$FORMAT.:E05TSI                            WED 07/30/97 06:19 Page:1200
     6608     1033    1        IF SUBSTR(IOERR.DEVNM,0,2) = 'MT'

   1033  2 000024   011641 100000 1                  CMPX0   SYS_FAULT_IOM_DET+91
         2 000025   000031 601000 2                  TNZ     s:1036

     6609     1034    1           THEN TYPE_INDX = 1;

   1034  2 000026   000001 235007                    LDA     1,DL
         2 000027   200011 755100                    STA     TYPE_INDX,,AUTO
         2 000030   000055 710000 2                  TRA     s:1048

     6610     1035    1           ELSE
     6611     1036    1        IF SUBSTR(IOERR.DEVNM,0,2) = 'LP'

   1036  2 000031   011642 100000 1                  CMPX0   SYS_FAULT_IOM_DET+92
         2 000032   000036 601000 2                  TNZ     s:1039

     6612     1037    1           THEN TYPE_INDX = 2;

   1037  2 000033   000002 235007                    LDA     2,DL
         2 000034   200011 755100                    STA     TYPE_INDX,,AUTO
         2 000035   000055 710000 2                  TRA     s:1048

     6613     1038    1           ELSE
     6614     1039    1        IF SUBSTR(IOERR.DEVNM,0,2) = 'CR' OR SUBSTR(IOERR.DEVNM,0,2) = 'CP'

   1039  2 000036   011643 100000 1                  CMPX0   SYS_FAULT_IOM_DET+93
         2 000037   000042 600000 2                  TZE     s:1040
         2 000040   011644 100000 1                  CMPX0   SYS_FAULT_IOM_DET+94
         2 000041   000045 601000 2                  TNZ     s:1042

     6615     1040    1           THEN TYPE_INDX = 3;

   1040  2 000042   000003 235007                    LDA     3,DL
         2 000043   200011 755100                    STA     TYPE_INDX,,AUTO
         2 000044   000055 710000 2                  TRA     s:1048

PL6.E3A0      #010=THF$STATUS File=THF$FORMAT.:E05TSI                            WED 07/30/97 06:19 Page:1201
     6616     1041    1           ELSE
     6617     1042    1        IF SUBSTR(IOERR.DEVNM,0,2) = 'MC'

   1042  2 000045   011645 100000 1                  CMPX0   SYS_FAULT_IOM_DET+95
         2 000046   000052 601000 2                  TNZ     s:1045

     6618     1043    1           THEN TYPE_INDX = 4;

   1043  2 000047   000004 235007                    LDA     4,DL
         2 000050   200011 755100                    STA     TYPE_INDX,,AUTO
         2 000051   000055 710000 2                  TRA     s:1048

     6619     1044    1           ELSE
     6620     1045    1        IF SUBSTR(IOERR.DEVNM,0,2) = 'DC'  /* if DC type, wait & check */

   1045  2 000052   011646 100000 1                  CMPX0   SYS_FAULT_IOM_DET+96
         2 000053   000055 600000 2                  TZE     s:1048

     6621     1046    1           THEN;                           /* for power off */
     6622     1047    1           ELSE ALTRETURN;

   1047  2 000054   000000 702200 xent               TSX2  ! X66_AALT

     6623     1048    1        IF IOERR.STATUS.POWER_OFF

   1048  2 000055   500001 236100                    LDQ     1,,PR5
         2 000056   200000 316003                    CANQ    65536,DU
         2 000057   000066 600000 2                  TZE     s:1054

     6624     1049    2        THEN DO;

     6625     1050    2              MAJBUF = 'POWER OFF';

   1050  2 000060   040100 100400                    MLR     fill='040'O
         2 000061   011647 000011 1                  ADSC9   SYS_FAULT_IOM_DET+97     cn=0,n=9
         2 000062   000000 000040                    ADSC9   0,,PR0                   cn=0,n=32

PL6.E3A0      #010=THF$STATUS File=THF$FORMAT.:E05TSI                            WED 07/30/97 06:19 Page:1202
     6626     1051    2              MAJCOUNT = 9;

   1051  2 000063   000011 235007                    LDA     9,DL
         2 000064   300000 755100                    STA     0,,PR3

     6627     1052    2              GOTO FOUND_MINOR;

   1052  2 000065   000325 710000 2                  TRA     FOUND_MINOR

     6628     1053    2        END;
     6629     1054    1        IF SUBSTR(IOERR.DEVNM,0,2) = 'DC' /* if we got here & its DC type*/

   1054  2 000066   011646 100000 1                  CMPX0   SYS_FAULT_IOM_DET+96
         2 000067   000071 601000 2                  TNZ     s:1056

     6630     1055    1        THEN ALTRETURN;                   /* oops! */

   1055  2 000070   000000 702200 xent               TSX2  ! X66_AALT

     6631     1056    2        DO I = 0 TO NUMSTATUS;

   1056  2 000071   200012 450100                    STZ     I,,AUTO

     6632     1057    3           IF IOERR.STATUS.MAJOR = MAJ_STATUS_TBL.MAJOR(I) THEN DO;

   1057  2 000072   200012 236100                    LDQ     I,,AUTO
         2 000073   000006 402007                    MPY     6,DL
         2 000074   000000 236006 1                  LDQ     MAJ_STATUS_TBL,QL
         2 000075   000040 772000                    QRL     32
         2 000076   200014 756100                    STQ     J+1,,AUTO
         2 000077   200003 470500                    LDP0    @IOERR,,AUTO
         2 000100   000001 236100                    LDQ     1,,PR0
         2 000101   000036 772000                    QRL     30
         2 000102   000017 376007                    ANQ     15,DL
         2 000103   200014 116100                    CMPQ    J+1,,AUTO
         2 000104   000232 601000 2                  TNZ     s:1082

PL6.E3A0      #010=THF$STATUS File=THF$FORMAT.:E05TSI                            WED 07/30/97 06:19 Page:1203
     6633     1058    3              MAJBUF = MAJ_STATUS_TBL.TEXT(I);

   1058  2 000105   200012 236100                    LDQ     I,,AUTO
         2 000106   000030 402007                    MPY     24,DL
         2 000107   200004 471500                    LDP1    @MAJBUF,,AUTO
         2 000110   040100 100406                    MLR     fill='040'O
         2 000111   000000 400024 1                  ADSC9   MAJ_STATUS_TBL,Q         cn=2,n=20
         2 000112   100000 000040                    ADSC9   0,,PR1                   cn=0,n=32

     6634     1059    3              MAJCOUNT = MAJ_STATUS_TBL.COUNT(I);

   1059  2 000113   200012 236100                    LDQ     I,,AUTO
         2 000114   000006 402007                    MPY     6,DL
         2 000115   200005 473500                    LDP3    @MAJCOUNT,,AUTO
         2 000116   000000 236006 1                  LDQ     MAJ_STATUS_TBL,QL
         2 000117   000027 772000                    QRL     23
         2 000120   000777 376007                    ANQ     511,DL
         2 000121   300000 756100                    STQ     0,,PR3

     6635     1060    3              IF IOERR.STATUS.MAJOR = %SYSTEM_FAULT

   1060  2 000122   000001 236100                    LDQ     1,,PR0
         2 000123   170000 376003                    ANQ     61440,DU
         2 000124   170000 116003                    CMPQ    61440,DU
         2 000125   000223 601000 2                  TNZ     s:1079

     6636     1061    4              THEN DO;

     6637     1062    5                   DO J = 0 TO 12;

   1062  2 000126   200013 450100                    STZ     J,,AUTO

     6638     1063    5                      IF IOERR.XSTATUS.SYS_CTRL_MINOR = SYS_FAULT_CTRLR_CODE.CODE(J)

   1063  2 000127   200013 236100                    LDQ     J,,AUTO
         2 000130   000006 402007                    MPY     6,DL
         2 000131   011370 236006 1                  LDQ     SYS_FAULT_CTRLR_CODE,QL
PL6.E3A0      #010=THF$STATUS File=THF$FORMAT.:E05TSI                            WED 07/30/97 06:19 Page:1204
         2 000132   000033 772000                    QRL     27
         2 000133   200014 756100                    STQ     J+1,,AUTO
         2 000134   200003 470500                    LDP0    @IOERR,,AUTO
         2 000135   000001 236100                    LDQ     1,,PR0
         2 000136   000006 772000                    QRL     6
         2 000137   000017 376007                    ANQ     15,DL
         2 000140   200014 116100                    CMPQ    J+1,,AUTO
         2 000141   000160 601000 2                  TNZ     s:1069

     6639     1064    6                      THEN DO;

     6640     1065    6                           MINBUF = SYS_FAULT_CTRLR_CODE.TEXT(J);

   1065  2 000142   200013 236100                    LDQ     J,,AUTO
         2 000143   000030 402007                    MPY     24,DL
         2 000144   200006 471500                    LDP1    @MINBUF,,AUTO
         2 000145   040100 100406                    MLR     fill='040'O
         2 000146   011370 400024 1                  ADSC9   SYS_FAULT_CTRLR_CODE,Q   cn=2,n=20
         2 000147   100000 000040                    ADSC9   0,,PR1                   cn=0,n=32

     6641     1066    6                           MINCOUNT = SYS_FAULT_CTRLR_CODE.COUNT(J);

   1066  2 000150   200013 236100                    LDQ     J,,AUTO
         2 000151   000006 402007                    MPY     6,DL
         2 000152   200007 473500                    LDP3    @MINCOUNT,,AUTO
         2 000153   011370 236006 1                  LDQ     SYS_FAULT_CTRLR_CODE,QL
         2 000154   000022 772000                    QRL     18
         2 000155   000777 376007                    ANQ     511,DL
         2 000156   300000 756100                    STQ     0,,PR3

     6642     1067    6                           GOTO FOUND_MINOR;

   1067  2 000157   000325 710000 2                  TRA     FOUND_MINOR

     6643     1068    6                      END;
     6644     1069    5                   END;

PL6.E3A0      #010=THF$STATUS File=THF$FORMAT.:E05TSI                            WED 07/30/97 06:19 Page:1205
   1069  2 000160   200013 235100                    LDA     J,,AUTO
         2 000161   000001 035007                    ADLA    1,DL
         2 000162   200013 755100                    STA     J,,AUTO
         2 000163   000015 115007                    CMPA    13,DL
         2 000164   000127 602000 2                  TNC     s:1063

     6645     1070    5                   DO J = 0 TO 14;

   1070  2 000165   200013 450100                    STZ     J,,AUTO

     6646     1071    5                      IF IOERR.XSTATUS.SYS_IOM_MINOR = SYS_FAULT_IOM_DET.CODE(J)

   1071  2 000166   200013 236100                    LDQ     J,,AUTO
         2 000167   000006 402007                    MPY     6,DL
         2 000170   011506 236006 1                  LDQ     SYS_FAULT_IOM_DET,QL
         2 000171   000033 772000                    QRL     27
         2 000172   200014 756100                    STQ     J+1,,AUTO
         2 000173   200003 470500                    LDP0    @IOERR,,AUTO
         2 000174   000001 236100                    LDQ     1,,PR0
         2 000175   000077 376007                    ANQ     63,DL
         2 000176   200014 116100                    CMPQ    J+1,,AUTO
         2 000177   000216 601000 2                  TNZ     s:1077

     6647     1072    6                      THEN DO;

     6648     1073    6                           MINBUF = SYS_FAULT_IOM_DET.TEXT(J);

   1073  2 000200   200013 236100                    LDQ     J,,AUTO
         2 000201   000030 402007                    MPY     24,DL
         2 000202   200006 471500                    LDP1    @MINBUF,,AUTO
         2 000203   040100 100406                    MLR     fill='040'O
         2 000204   011506 400024 1                  ADSC9   SYS_FAULT_IOM_DET,Q      cn=2,n=20
         2 000205   100000 000040                    ADSC9   0,,PR1                   cn=0,n=32

     6649     1074    6                           MINCOUNT = SYS_FAULT_IOM_DET.COUNT(J);

   1074  2 000206   200013 236100                    LDQ     J,,AUTO
PL6.E3A0      #010=THF$STATUS File=THF$FORMAT.:E05TSI                            WED 07/30/97 06:19 Page:1206
         2 000207   000006 402007                    MPY     6,DL
         2 000210   200007 473500                    LDP3    @MINCOUNT,,AUTO
         2 000211   011506 236006 1                  LDQ     SYS_FAULT_IOM_DET,QL
         2 000212   000022 772000                    QRL     18
         2 000213   000777 376007                    ANQ     511,DL
         2 000214   300000 756100                    STQ     0,,PR3

     6650     1075    6                           GOTO FOUND_MINOR;

   1075  2 000215   000325 710000 2                  TRA     FOUND_MINOR

     6651     1076    6                      END;
     6652     1077    5                   END;

   1077  2 000216   200013 235100                    LDA     J,,AUTO
         2 000217   000001 035007                    ADLA    1,DL
         2 000220   200013 755100                    STA     J,,AUTO
         2 000221   000017 115007                    CMPA    15,DL
         2 000222   000166 602000 2                  TNC     s:1071

     6653     1078    4              END;

     6654     1079    3              SUBTBL$ = TYPE$(TYPE_INDX)->TBL.SUB$(I);

   1079  2 000223   200011 720100                    LXL0    TYPE_INDX,,AUTO
         2 000224   000000 471410 0                  LDP1    TYPE$,X0
         2 000225   200012 235100                    LDA     I,,AUTO
         2 000226   000001 735000                    ALS     1
         2 000227   100001 236105                    LDQ     1,AL,PR1
         2 000230   200010 756100                    STQ     SUBTBL$,,AUTO

     6655     1080    3              GOTO FOUND_MAJOR;

   1080  2 000231   000237 710000 2                  TRA     FOUND_MAJOR

     6656     1081    3              END;  /* IF FOUND */
     6657     1082    2           END;  /* DO I */
PL6.E3A0      #010=THF$STATUS File=THF$FORMAT.:E05TSI                            WED 07/30/97 06:19 Page:1207

   1082  2 000232   200012 235100                    LDA     I,,AUTO
         2 000233   000001 035007                    ADLA    1,DL
         2 000234   200012 755100                    STA     I,,AUTO
         2 000235   000013 115007                    CMPA    11,DL
         2 000236   000072 602000 2                  TNC     s:1057

     6658     1083    1   FOUND_MAJOR:
     6659     1084    1        IF SUBTBL$ = ADDR(NIL) THEN RETURN;

   1084  2 000237   200010 236100       FOUND_MAJOR  LDQ     SUBTBL$,,AUTO
         2 000240   000001 116000 xsym               CMPQ    B_VECTNIL+1
         2 000241   000243 601000 2                  TNZ     s:1085

   1084  2 000242   000000 702200 xent               TSX2  ! X66_ARET

     6660     1085    2        DO I = 0 TO NUMMINORS;

   1085  2 000243   200012 450100                    STZ     I,,AUTO

     6661     1086    2           IF (SUBTBL.MASK(I) AND (SUBTBL.CODE(I) & IOERR.STATUS.MINOR)) OR

   1086  2 000244   200012 236100                    LDQ     I,,AUTO
         2 000245   000006 402007                    MPY     6,DL
         2 000246   200010 470500                    LDP0    SUBTBL$,,AUTO
         2 000247   000000 234106                    SZN     0,QL,PR0
         2 000250   000265 605000 2                  TPL     s:1086+17
         2 000251   200003 471500                    LDP1    @IOERR,,AUTO
         2 000252   100001 236100                    LDQ     1,,PR1
         2 000253   000006 736000                    QLS     6
         2 000254   770000 376003                    ANQ     -4096,DU
         2 000255   200014 756100                    STQ     J+1,,AUTO
         2 000256   200012 236100                    LDQ     I,,AUTO
         2 000257   000006 402007                    MPY     6,DL
         2 000260   000000 236106                    LDQ     0,QL,PR0
         2 000261   000001 736000                    QLS     1
         2 000262   770000 376003                    ANQ     -4096,DU
PL6.E3A0      #010=THF$STATUS File=THF$FORMAT.:E05TSI                            WED 07/30/97 06:19 Page:1208
         2 000263   200014 376100                    ANQ     J+1,,AUTO
         2 000264   000302 601000 2                  TNZ     s:1088
         2 000265   200012 236100                    LDQ     I,,AUTO
         2 000266   000006 402007                    MPY     6,DL
         2 000267   000000 236106                    LDQ     0,QL,PR0
         2 000270   400000 376003                    ANQ     -131072,DU
         2 000271   400000 676003                    ERQ     -131072,DU
         2 000272   000320 600000 2                  TZE     s:1092
         2 000273   200012 236100                    LDQ     I,,AUTO
         2 000274   000330 402007                    MPY     216,DL
         2 000275   200003 471500                    LDP1    @IOERR,,AUTO
         2 000276   000100 066506                    CMPB    filb='0'B
         2 000277   000000 010006                    BDSC    0,Q,PR0                  by=0,bit=1,n=6
         2 000300   100001 060006                    BDSC    1,,PR1                   by=0,bit=6,n=6
         2 000301   000320 601000 2                  TNZ     s:1092

     6662     1087    3              (~SUBTBL.MASK(I) AND (SUBTBL.CODE(I) = IOERR.STATUS.MINOR)) THEN DO;

     6663     1088    3              MINBUF = SUBTBL.TEXT(I);

   1088  2 000302   200012 236100                    LDQ     I,,AUTO
         2 000303   000030 402007                    MPY     24,DL
         2 000304   200006 473500                    LDP3    @MINBUF,,AUTO
         2 000305   040100 100506                    MLR     fill='040'O
         2 000306   000000 400024                    ADSC9   0,Q,PR0                  cn=2,n=20
         2 000307   300000 000040                    ADSC9   0,,PR3                   cn=0,n=32

     6664     1089    3              MINCOUNT = SUBTBL.COUNT(I);

   1089  2 000310   200012 236100                    LDQ     I,,AUTO
         2 000311   000006 402007                    MPY     6,DL
         2 000312   200007 474500                    LDP4    @MINCOUNT,,AUTO
         2 000313   000000 236106                    LDQ     0,QL,PR0
         2 000314   000024 772000                    QRL     20
         2 000315   000777 376007                    ANQ     511,DL
         2 000316   400000 756100                    STQ     0,,PR4

PL6.E3A0      #010=THF$STATUS File=THF$FORMAT.:E05TSI                            WED 07/30/97 06:19 Page:1209
     6665     1090    3              GOTO FOUND_MINOR;

   1090  2 000317   000325 710000 2                  TRA     FOUND_MINOR

     6666     1091    3              END;  /* IF */
     6667     1092    2           END;  /* DO I*/

   1092  2 000320   200012 235100                    LDA     I,,AUTO
         2 000321   000001 035007                    ADLA    1,DL
         2 000322   200012 755100                    STA     I,,AUTO
         2 000323   000024 115007                    CMPA    20,DL
         2 000324   000244 602000 2                  TNC     s:1086

     6668     1093    1   FOUND_MINOR:
     6669     1094    1        RETURN;

   1094  2 000325   000000 702200 xent  FOUND_MINOR  TSX2  ! X66_ARET
     6670     1095    1   END THF$STATUS;
     6671     1096        %EOD;

PL6.E3A0      #010=THF$STATUS File=THF$FORMAT.:E05TSI                            WED 07/30/97 06:19 Page:1210
--  Include file information  --

   NI_DATA_C.:E05TOU  is referenced.
   EL$TABLES.:E05TOU  is referenced.
   B$JIT_C.:E05TOU  was found in the system file and is never referenced.
   CP_6_C.:E05TOU  was found in the system file and is never referenced.
      No diagnostics issued in procedure THF$STATUS.
PL6.E3A0      #010=THF$STATUS File=THF$FORMAT.:E05TSI                            WED 07/30/97 06:19 Page:1211

 **** Variables and constants ****

  ****  Section 000  Data  THF$STATUS

  ****  Scalars and arrays  ****
OctLoc.c.b A Datatyp(siz) R M Lvl/name                 OctLoc.c.b A Datatyp(siz) R M Lvl/name

     0-0-0/w PTR         r     1 TYPE$(0:4)

  ****  Section 001 RoData THF$STATUS

  ****  Scalars and arrays  ****
OctLoc.c.b A Datatyp(siz) R M Lvl/name                 OctLoc.c.b A Datatyp(siz) R M Lvl/name

  7300-0-0/w STRC(198)   r     1 CRP_ATTENTION(0:19)
  6340-0-0/w STRC(198)   r     1 CRP_COMMAND_REJECT(0:19)
  7470-0-0/w STRC(198)   r     1 CRP_DATA_ALERT(0:19)
  6530-0-0/w STRC(198)   r     1 CRP_MPC_ATTENTION(0:19)
  7110-0-0/w STRC(198)   r     1 CRP_MPC_COMMAND_REJECT(0:19)
  6720-0-0/w STRC(198)   r     1 CRP_MPC_DATA_ALERT(0:19)
  6150-0-0/w STRC(198)   r     1 CRP_READY(0:19)
   204-0-0/w STRC(72)    r     1 CRP_TBL(0:10)
   640-0-0/w STRC(198)   r     1 DP_ATTENTION(0:19)
  1410-0-0/w STRC(198)   r     1 DP_COMMAND_REJECT(0:19)
  1030-0-0/w STRC(198)   r     1 DP_DATA_ALERT(0:19)
   450-0-0/w STRC(198)   r     1 DP_DEVICE_BUSY(0:19)
  1220-0-0/w STRC(198)   r     1 DP_END_OF_FILE(0:19)
  1600-0-0/w STRC(198)   r     1 DP_MPC_ATTENTION(0:19)
  2160-0-0/w STRC(198)   r     1 DP_MPC_COMMAND_REJECT(0:19)
  1770-0-0/w STRC(198)   r     1 DP_MPC_DATA_ALERT(0:19)
   260-0-0/w STRC(198)   r     1 DP_READY(0:19)
   102-0-0/w STRC(72)    r     1 DP_TBL(0:10)
  5570-0-0/w STRC(198)   r     1 LP_ATTENTION(0:19)
  4630-0-0/w STRC(198)   r     1 LP_COMMAND_REJECT(0:19)
  5760-0-0/w STRC(198)   r     1 LP_DATA_ALERT(0:19)
  5020-0-0/w STRC(198)   r     1 LP_MPC_ATTENTION(0:19)
  5400-0-0/w STRC(198)   r     1 LP_MPC_COMMAND_REJECT(0:19)
PL6.E3A0      #010=THF$STATUS File=THF$FORMAT.:E05TSI                            WED 07/30/97 06:19 Page:1212
  5210-0-0/w STRC(198)   r     1 LP_MPC_DATA_ALERT(0:19)
  4440-0-0/w STRC(198)   r     1 LP_READY(0:19)
   156-0-0/w STRC(72)    r     1 LP_TBL(0:10)
     0-0-0/w STRC(198)   r     1 MAJ_STATUS_TBL(0:10)
 10050-0-0/w STRC(198)   r     1 MCA_ATTENTION(0:19)
 10430-0-0/w STRC(198)   r     1 MCA_COMMAND_REJECT(0:19)
 10240-0-0/w STRC(198)   r     1 MCA_DATA_ALERT(0:19)
 10620-0-0/w STRC(198)   r     1 MCA_MPC_ATTENTION(0:19)
 11200-0-0/w STRC(198)   r     1 MCA_MPC_COMMAND_REJECT(0:19)
 11010-0-0/w STRC(198)   r     1 MCA_MPC_DATA_ALERT(0:19)
  7660-0-0/w STRC(198)   r     1 MCA_READY(0:19)
   232-0-0/w STRC(72)    r     1 MCA_TBL(0:10)
  2730-0-0/w STRC(198)   r     1 MT_ATTENTION(0:19)
  3500-0-0/w STRC(198)   r     1 MT_COMMAND_REJECT(0:19)
  3120-0-0/w STRC(198)   r     1 MT_DATA_ALERT(0:19)
  2540-0-0/w STRC(198)   r     1 MT_DEVICE_BUSY(0:19)
  3310-0-0/w STRC(198)   r     1 MT_END_OF_FILE(0:19)
  3670-0-0/w STRC(198)   r     1 MT_MPC_ATTENTION(0:19)
  4250-0-0/w STRC(198)   r     1 MT_MPC_COMMAND_REJECT(0:19)
  4060-0-0/w STRC(198)   r     1 MT_MPC_DATA_ALERT(0:19)
  2350-0-0/w STRC(198)   r     1 MT_READY(0:19)
   130-0-0/w STRC(72)    r     1 MT_TBL(0:10)
 11370-0-0/w STRC(198)   r     1 SYS_FAULT_CTRLR_CODE(0:12)
 11506-0-0/w STRC(198)   r     1 SYS_FAULT_IOM_DET(0:14)

  ****  Auto variables  ****

  ****  Scalars and arrays  ****
OctLoc.c.b A Datatyp(siz) R M Lvl/name                 OctLoc.c.b A Datatyp(siz) R M Lvl/name

     3-0-0/w PTR         r     1 @IOERR                     4-0-0/w PTR         r     1 @MAJBUF
     5-0-0/w PTR         r     1 @MAJCOUNT                  6-0-0/w PTR         r     1 @MINBUF
     7-0-0/w PTR         r     1 @MINCOUNT                 12-0-0/w UBIN        r     1 I
    *0-0-0/w STRC(1080)  r     1 IOERR                     13-0-0/w UBIN        r     1 J
    *0-0-0/c CHAR(32)    r     1 MAJBUF                    *0-0-0/w UBIN        r     1 MAJCOUNT
    *0-0-0/c CHAR(32)    r     1 MINBUF                    *0-0-0/w UBIN        r     1 MINCOUNT
    10-0-0/w PTR         r     1 SUBTBL$                   11-0-0/w UBIN        r     1 TYPE_INDX
PL6.E3A0      #010=THF$STATUS File=THF$FORMAT.:E05TSI                            WED 07/30/97 06:19 Page:1213

  ****  BASED and DCB variables  ****

  ****  Scalars and arrays  ****
OctLoc.c.b A Datatyp(siz) R M Lvl/name                 OctLoc.c.b A Datatyp(siz) R M Lvl/name

     0-0-0/w STRC(198)   r     1 SUBTBL(0:19)               0-0-0/w STRC(72)    r     1 TBL(0:10)


   Procedure THF$STATUS requires 214 words for executable code.
   Procedure THF$STATUS requires 14 words of local(AUTO) storage.
PL6.E3A0      #010=THF$STATUS File=THF$FORMAT.:E05TSI                            WED 07/30/97 06:19 Page:1214
          *** CROSS REFERENCE LISTING ***
**     DENOTES     IDENTIFIER DEFINITION
<<                 IDENTIFIER'S VALUE SET
>>                 IDENTIFIER'S VALUE USED
<>                 IDENTIFIER SET AND/OR USED
--                 IDENTIFIER REFERENCED
PL6.E3A0      #010=THF$STATUS File=THF$FORMAT.:E05TSI                            WED 07/30/97 06:19 Page:1215
          MINI XREF LISTING

CRP_ATTENTION
       910**DCL       574--DCLINIT
CRP_COMMAND_REJECT
       880**DCL       577--DCLINIT
CRP_DATA_ALERT
       921**DCL       575--DCLINIT
CRP_MPC_ATTENTION
       889**DCL       579--DCLINIT
CRP_MPC_COMMAND_REJECT
       903**DCL       581--DCLINIT
CRP_MPC_DATA_ALERT
       895**DCL       580--DCLINIT
CRP_READY
       868**DCL       572--DCLINIT
CRP_TBL
       560**DCL       466--DCLINIT
DP_ATTENTION
       623**DCL       505--DCLINIT
DP_COMMAND_REJECT
       655**DCL       508--DCLINIT
DP_DATA_ALERT
       635**DCL       506--DCLINIT
DP_DEVICE_BUSY
       615**DCL       504--DCLINIT
DP_END_OF_FILE
       645**DCL       507--DCLINIT
DP_MPC_ATTENTION
       663**DCL       510--DCLINIT
DP_MPC_COMMAND_REJECT
       702**DCL       512--DCLINIT
DP_MPC_DATA_ALERT
       678**DCL       511--DCLINIT
PL6.E3A0      #010=THF$STATUS File=THF$FORMAT.:E05TSI                            WED 07/30/97 06:19 Page:1216
DP_READY
       606**DCL       503--DCLINIT
DP_TBL
       491**DCL       466--DCLINIT
FOUND_MAJOR
      1084**LABEL    1080--GOTO
FOUND_MINOR
      1094**LABEL    1052--GOTO     1067--GOTO     1075--GOTO     1090--GOTO
I
      1023**DCL      1056<<DOINDEX  1057>>IF       1058>>ASSIGN   1059>>ASSIGN   1079>>ASSIGN   1085<<DOINDEX
      1086>>IF       1086>>IF       1086>>IF       1086>>IF       1088>>ASSIGN   1089>>ASSIGN
IOERR
       334**DCL         7--PROC
IOERR.DEVNM
       339**DCL      1030>>IF       1033>>IF       1036>>IF       1039>>IF       1039>>IF       1042>>IF
      1045>>IF       1054>>IF
IOERR.SEEK
       338**DCL       339--REDEF
IOERR.STATUS
       334**DCL       335--REDEF
IOERR.STATUS.MAJOR
       334**DCL      1057>>IF       1060>>IF
IOERR.STATUS.MINOR
       334**DCL      1086>>IF       1086>>IF
IOERR.STATUS.POWER_OFF
       334**DCL      1048>>IF
IOERR.XSTATUS.SYS_CTRL_MINOR
       335**DCL      1063>>IF
IOERR.XSTATUS.SYS_IOM_MINOR
       335**DCL      1071>>IF
J
      1024**DCL      1062<<DOINDEX  1063>>IF       1065>>ASSIGN   1066>>ASSIGN   1070<<DOINDEX  1071>>IF
      1073>>ASSIGN   1074>>ASSIGN
LP_ATTENTION
       848**DCL       551--DCLINIT
LP_COMMAND_REJECT
PL6.E3A0      #010=THF$STATUS File=THF$FORMAT.:E05TSI                            WED 07/30/97 06:19 Page:1217
       818**DCL       554--DCLINIT
LP_DATA_ALERT
       857**DCL       552--DCLINIT
LP_MPC_ATTENTION
       827**DCL       556--DCLINIT
LP_MPC_COMMAND_REJECT
       841**DCL       558--DCLINIT
LP_MPC_DATA_ALERT
       833**DCL       557--DCLINIT
LP_READY
       806**DCL       549--DCLINIT
LP_TBL
       537**DCL       466--DCLINIT
MAJBUF
       343**DCL         7--PROC     1026<<ASSIGN   1050<<ASSIGN   1058<<ASSIGN
MAJCOUNT
       344**DCL         7--PROC     1028<<ASSIGN   1051<<ASSIGN   1059<<ASSIGN
MAJ_STATUS_TBL.COUNT
       479**DCL      1059>>ASSIGN
MAJ_STATUS_TBL.MAJOR
       468**DCL      1057>>IF
MAJ_STATUS_TBL.TEXT
       480**DCL      1058>>ASSIGN
MCA_ATTENTION
       935**DCL       597--DCLINIT
MCA_COMMAND_REJECT
       950**DCL       600--DCLINIT
MCA_DATA_ALERT
       944**DCL       598--DCLINIT
MCA_MPC_ATTENTION
       955**DCL       602--DCLINIT
MCA_MPC_COMMAND_REJECT
       969**DCL       604--DCLINIT
MCA_MPC_DATA_ALERT
       963**DCL       603--DCLINIT
MCA_READY
PL6.E3A0      #010=THF$STATUS File=THF$FORMAT.:E05TSI                            WED 07/30/97 06:19 Page:1218
       927**DCL       595--DCLINIT
MCA_TBL
       583**DCL       466--DCLINIT
MINBUF
       345**DCL         7--PROC     1027<<ASSIGN   1065<<ASSIGN   1073<<ASSIGN   1088<<ASSIGN
MINCOUNT
       346**DCL         7--PROC     1029<<ASSIGN   1066<<ASSIGN   1074<<ASSIGN   1089<<ASSIGN
MT_ATTENTION
       730**DCL       528--DCLINIT
MT_COMMAND_REJECT
       760**DCL       531--DCLINIT
MT_DATA_ALERT
       739**DCL       529--DCLINIT
MT_DEVICE_BUSY
       722**DCL       527--DCLINIT
MT_END_OF_FILE
       752**DCL       530--DCLINIT
MT_MPC_ATTENTION
       771**DCL       533--DCLINIT
MT_MPC_COMMAND_REJECT
       798**DCL       535--DCLINIT
MT_MPC_DATA_ALERT
       782**DCL       534--DCLINIT
MT_READY
       710**DCL       526--DCLINIT
MT_TBL
       514**DCL       466--DCLINIT
SUBTBL.CODE
      1018**DCL      1086>>IF       1086>>IF
SUBTBL.COUNT
      1019**DCL      1089>>ASSIGN
SUBTBL.MASK
      1017**DCL      1086>>IF       1086>>IF
SUBTBL.TEXT
      1020**DCL      1088>>ASSIGN
SUBTBL$
PL6.E3A0      #010=THF$STATUS File=THF$FORMAT.:E05TSI                            WED 07/30/97 06:19 Page:1219
      1021**DCL      1016--IMP-PTR  1079<<ASSIGN   1084>>IF       1086>>IF       1086>>IF       1086>>IF
      1086>>IF       1088>>ASSIGN   1089>>ASSIGN
SYS_FAULT_CTRLR_CODE.CODE
       980**DCL      1063>>IF
SYS_FAULT_CTRLR_CODE.COUNT
       981**DCL      1066>>ASSIGN
SYS_FAULT_CTRLR_CODE.TEXT
       982**DCL      1065>>ASSIGN
SYS_FAULT_IOM_DET.CODE
       996**DCL      1071>>IF
SYS_FAULT_IOM_DET.COUNT
       997**DCL      1074>>ASSIGN
SYS_FAULT_IOM_DET.TEXT
       998**DCL      1073>>ASSIGN
TBL.SUB$
      1015**DCL      1079>>ASSIGN
TYPE$
       466**DCL      1079>>ASSIGN
TYPE_INDX
      1022**DCL      1031<<ASSIGN   1034<<ASSIGN   1037<<ASSIGN   1040<<ASSIGN   1043<<ASSIGN   1079>>ASSIGN

PL6.E3A0      #011=THF$CSHERR File=THF$FORMAT.:E05TSI                            WED 07/30/97 06:19 Page:1220
     6672        1        /*M* THF$CSHERR - ROUTINE TO PROCESS CPU CACHE PARITY ERROR */
     6673        2        /*T***********************************************************/
     6674        3        /*T*                                                         */
     6675        4        /*T* Copyright (c) Bull HN Information Systems Inc., 1997    */
     6676        5        /*T*                                                         */
     6677        6        /*T***********************************************************/
     6678        7        /**/
     6679        8        THF$CSHERR: PROC;
     6680        9        /**/
     6681       10        /* INCLUDE FILES */
     6682       11        %INCLUDE CP_6;
     6683       92        %INCLUDE EL$TABLES;
     6684      415        %INCLUDE TH_DATA_R;
     6685      493        /**/
     6686      494        /* AUTO PARAMETERS */
     6687      495    1   DCL 1 INFO,
     6688      496    1         2 BOUND UBIN(20) UNAL,
     6689      497    1         2 * BIT(16),
     6690      498    1         2 PTR$ PTR;
     6691      499    1   DCL LEVEL# UBIN;
     6692      500    1   DCL TEXT CHAR(18);
     6693      501    1   DCL 1 TXT REDEF TEXT,
     6694      502    1         2 BOARD CHAR(5),
     6695      503    1         2 * CHAR(2),
     6696      504    1         2 CHIP CHAR(3),
     6697      505    1         2 * CHAR(1),
     6698      506    1         2 SLOT CHAR(7);
     6699      507    1   DCL LOW_PROFILE_SLOT CHAR(7);
     6700      508    1   DCL BIT# SBIN;
     6701      509    1   DCL SLOT# UBIN;
     6702      510    1   DCL CHIP# UBIN;
     6703      511    1   DCL DWORD1_BIT BIT(72) DALIGNED;
     6704      512    1   DCL DWORD1 (0:71) REDEF DWORD1_BIT BIT(1) UNAL;
     6705      513    1   DCL DWORD2_BIT BIT(72) DALIGNED;
     6706      514    1   DCL DWORD2 (0:71) REDEF DWORD2_BIT BIT(1) UNAL;
     6707      515    1   DCL I UBIN;
     6708      516    1   DCL RSW2_BIT BIT(36);
PL6.E3A0      #011=THF$CSHERR File=THF$FORMAT.:E05TSI                            WED 07/30/97 06:19 Page:1221
     6709      517    1   DCL 1 RSW2 REDEF RSW2_BIT,
     6710      518    1         2 * BIT(4),
     6711      519    1         2 CPU_TYPE UBIN(2) UNAL,
     6712      520    1         2 * BIT(14),
     6713      521    1         2 CSH_8K UBIN(1) UNAL,
     6714      522    1         2 * BIT(15);
     6715      523    1   DCL 1 CSH_ADDR,
     6716      524    1         2 * BIT(23),
     6717      525    1         2 LVL_8K UBIN(2) UNAL,
     6718      526    1         2 LVL_2K UBIN(2) UNAL,
     6719      527    1         2 * BIT(9);
     6720      528    1   DCL CSH_ADDR_UBIN REDEF CSH_ADDR UBIN;
     6721      529        /**/
     6722      530        /* CONSTANTS */
     6723      531    1   DCL NO_CSH_ERR CHAR(0) CONSTANT INIT(
     6724      532    1      '%/   Not a cache error or no cache error found%10P');
     6725      533    1   DCL 1 CSH_ERR_FMT CONSTANT,
     6726      534    1         2 * CHAR(0) INIT('%/%8-CACHE DATA%34-MEMORY DATA%53-LEVEL#'),
     6727      535    1         2 * CHAR(0) INIT('  BOARD CHIP SLOT%/'),
     6728      536    1         2 * CHAR(0) INIT('%2(%25(-%) %)%6(-%)  -----%2( ----%)%/'),
     6729      537    1         2 * CHAR(0) INIT('%2(%12ZO %12ZO %)   %1ZO    %A%/'),
     6730      538    1         2 * CHAR(0) INIT('%72-%A%10P');
     6731      539    1   DCL NSACD_SLOT (0:6) CHAR(7) CONSTANT CALIGNED INIT(
     6732      540    1        'AB13','AB14','AB15','AB16','AB17','AB18','AB13/14');
     6733      541    1   DCL HCCCD_SLOT (0:6) CHAR(7) CONSTANT CALIGNED INIT(
     6734      542    1        'AB13','AB14','AB15','AB16','AB17','AB18','AB13/14');
     6735      543    1   DCL ETCCD_SLOT (0:6) CHAR(7) CONSTANT CALIGNED INIT(
     6736      544    1        'AB1N','AB1P','AB1Q','AB1R','AB1S','AB1T','AB1N/1P');
     6737      545    1   DCL ETCCD_SLOT_LOW (0:6) CHAR(7) CONSTANT CALIGNED INIT(
     6738      546    1        'AA2M','AA2N','AA2P','AA2Q','AA2R','AA2S','AA2M/2N');
     6739      547    1   DCL A6SCD_SLOT (0:6) CHAR(7) CONSTANT CALIGNED INIT(
     6740      548    1        'AB1J'*3,'AB1K'*3,'AB1J/1K');
     6741      549    1   DCL NSACD_CHIP (0:12) CHAR(2) CONSTANT CALIGNED INIT(
     6742      550    1        '3F','3E','3D','3C','3B','3A',
     6743      551    1        '3P','3Q','3R','3S','3T','3U','0J');
     6744      552    1   DCL HCCCD_CHIP (0:51) CHAR(2) CONSTANT CALIGNED INIT(
     6745      553    1        '1B','2B','3B','4B','1C','2C','3C','4C',
PL6.E3A0      #011=THF$CSHERR File=THF$FORMAT.:E05TSI                            WED 07/30/97 06:19 Page:1222
     6746      554    1        '1D','2D','3D','4D','1E','2E','3E','4E',
     6747      555    1        '1F','2F','3F','4F','1G','2G','3G','4G',
     6748      556    1        '1J','2J','3J','4J','1K','2K','3K','4K',
     6749      557    1        '1L','2L','3L','4L','1M','2M','3M','4M',
     6750      558    1        '1N','2N','3N','4N','1P','2P','3P','4P','1Q','2Q','3Q','4Q');
     6751      559    1   DCL ETCCD_CHIP (0:51) CHAR(3) CONSTANT CALIGNED INIT(
     6752      560    1        '36X','45X','55X','65X','33W','42W','51W','60W',
     6753      561    1        '36V','45V','55V','65V','31U','40U','49U','58U',
     6754      562    1        '36T','45T','55T','65T','36S','45S','55S','65S',
     6755      563    1        '32F','41F','50F','59F','32E','41E','50E','59E',
     6756      564    1        '32D','41D','50D','59D','32C','41C','50C','59C',
     6757      565    1        '32B','41B','50B','59B','32A','41A','50A','59A',
     6758      566    1        '37R','46R','55R','65R');
     6759      567        /**/
     6760      568        /* BASED DATA */
     6761      569        %EL$PROCERR (STCLASS="BASED(INFO.PTR$)");
     6762      579        /**/
     6763      580        /* ENTRY DEFS */
     6764      581    1   DCL THW$WRITE ENTRY(11);
     6765      582        /**/
     6766      583        /* PROCEDURE */
     6767      584    1      INFO = TH_INFO;
     6768      585    1      IF EL$PROCERR.SAFESTORE.CSHERR = '0'B
     6769      586    2      THEN DO;
     6770      587    2         CALL THW$WRITE(VECTOR(NO_CSH_ERR));
     6771      588    2         RETURN;
     6772      589    2         END;
     6773      590    1      RSW2_BIT = EL$PROCERR.RSW2;
     6774      591    1      CSH_ADDR_UBIN = EL$PROCERR.SAFESTORE.CSHERR.CSH_ADDR;
     6775      592    1      IF BINBIT(RSW2.CSH_8K,1)
     6776      593    1      THEN LEVEL# = CSH_ADDR.LVL_8K;
     6777      594    1      ELSE LEVEL# = CSH_ADDR.LVL_2K;
     6778      595    1      TEXT = ' ';
     6779      596    1      LOW_PROFILE_SLOT = ' ';
     6780      597    1      DWORD1_BIT = EL$PROCERR.SAFESTORE.CSHERR.CSH_DATA;
     6781      598    1      DWORD2_BIT = EL$PROCERR.SAFESTORE.CSHERR.MEM_DATA;
     6782      599    1      BIT# = -1;
PL6.E3A0      #011=THF$CSHERR File=THF$FORMAT.:E05TSI                            WED 07/30/97 06:19 Page:1223
     6783      600    2      DO I = 0 TO 71;
     6784      601    2         IF DWORD1(I) ~= DWORD2(I)
     6785      602    3         THEN DO;
     6786      603    3            IF BIT# >= 0
     6787      604    4            THEN DO;
     6788      605    4               TEXT = 'MULTIPLE ERRORS';
     6789      606    4               GOTO MULTIPLE_BITS;
     6790      607    4               END;
     6791      608    3            ELSE BIT# = I;
     6792      609    3            END;
     6793      610    2         END;
     6794      611    1      IF BIT# >= 0
     6795      612    2      THEN DO;
     6796      613    2         SLOT# = MOD(BIT#,36)/6;
     6797      614    2         CHIP# = MOD(BIT#,6) + 6 * (BIT# / 36);
     6798      615    2         END;
     6799      616    2      ELSE DO;
     6800      617    2         SLOT# = 6;
     6801      618    2         CHIP# = 12;
     6802      619    2         END;
     6803      620    1      I = 2 * RSW2.CPU_TYPE + RSW2.CSH_8K;
     6804      621    2      DO CASE(I);
     6805      622    2         CASE(0);                                                /* L66 2K CACHE */
     6806      623    2            TXT.BOARD = 'NSACD';
     6807      624    2            TXT.SLOT = NSACD_SLOT(SLOT#);
     6808      625    2            TXT.CHIP = NSACD_CHIP(CHIP#);
     6809      626    2         CASE(1);                                                /* L66 8K CACHE */
     6810      627    2            TXT.BOARD = 'HCCCD';
     6811      628    2            TXT.SLOT = HCCCD_SLOT(SLOT#);
     6812      629    2            TXT.CHIP = HCCCD_CHIP(4 * CHIP# + LEVEL#);
     6813      630    2         CASE(3);                                               /* DPSE 8K CACHE */
     6814      631    2            TXT.BOARD = 'ETCCD';
     6815      632    2            TXT.SLOT = ETCCD_SLOT(SLOT#);
     6816      633    2            TXT.CHIP = ETCCD_CHIP(4 * CHIP# + LEVEL#);
     6817      634    2            LOW_PROFILE_SLOT = ETCCD_SLOT_LOW(SLOT#);
     6818      635    2         CASE(4);                                                /* ELS 2K CACHE */
     6819      636    2            TXT.BOARD = 'A6SCD';
PL6.E3A0      #011=THF$CSHERR File=THF$FORMAT.:E05TSI                            WED 07/30/97 06:19 Page:1224
     6820      637    2            TXT.SLOT = A6SCD_SLOT(SLOT#);
     6821      638    2         CASE(5);                                                /* ELS 8K CACHE */
     6822      639    2         END;
     6823      640    1   MULTIPLE_BITS:
     6824      641    1      CALL THW$WRITE(VECTOR(CSH_ERR_FMT),
     6825      642    1                     VECTOR(EL$PROCERR.SAFESTORE.CSHERR.CSH_DATA),
     6826      643    1                     VECTOR(EL$PROCERR.SAFESTORE.CSHERR.MEM_DATA),
     6827      644    1                     VECTOR(LEVEL#),
     6828      645    1                     VECTOR(TEXT),
     6829      646    1                     VECTOR(LOW_PROFILE_SLOT));
     6830      647    1      END THF$CSHERR;

PL6.E3A0      #011=THF$CSHERR File=THF$FORMAT.:E05TSI                            WED 07/30/97 06:19 Page:1225
--  Include file information  --

   TH_DATA_R.:E05TOU  cannot be made into a system file and is referenced.
   EL$TABLES.:E05TOU  is referenced.
   CP_6.:E05TOU  cannot be made into a system file and is referenced.
   B$JIT_C.:E05TOU  was found in the system file and is never referenced.
   CP_6_C.:E05TOU  was found in the system file and is referenced.
      No diagnostics issued in procedure THF$CSHERR.

   Procedure THF$CSHERR requires 211 words for executable code.
   Procedure THF$CSHERR requires 56 words of local(AUTO) storage.

    No errors detected in file THF$FORMAT.:E05TSI    .

PL6.E3A0      #011=THF$CSHERR File=THF$FORMAT.:E05TSI                            WED 07/30/97 06:19 Page:1226

 Object Unit name= THF$CSHERR                                 File name= THF$FORMAT.:E05TOU
 UTS= JUL 30 '97 06:19:57.60 WED                              Compiler= PL-6/E31         Sev=      00
 SharedLib= :SHARED_SYSTEM                                    Alt SharedLib=


    ****  Control sections  ****

 Sect   Type Bound  Init  Size OctSiz  Section name(segment info)
    0   DCB   even  none     0      0  M$UC
    1  RoData even  UTS    197    305  THF$CSHERR
    2   Proc  even  none   211    323  THF$CSHERR
    3  RoData even  none    10     12  THF$CSHERR

    ****  Entry defs  ****

                              Check   Calling
                             calling  sequence
  Sect OctLoc Primary Altret sequence   type   Parms  Name
     2      0   yes            yes      Std        0  THF$CSHERR

  ****  Entry refs  ****

         Check        Calling
        calling       sequence
Altret sequence SRef   type   Args  Name
         yes           Std      11 THW$WRITE
                       nStd      0 X66_AUTO_0
                       Std       0 B_CONSPOOL_D
                       nStd      0 X66_ARET

  ****  Data refs  ****

  Flags:  r = read only, s = secondary
Flgs Name                             Flgs Name                             Flgs Name
     M$UC                                  TH_INFO                               TH_XSA_BUF_VECTOR
     B_VECTNIL
PL6.E3A0      #011=THF$CSHERR File=THF$FORMAT.:E05TSI                            WED 07/30/97 06:19 Page:1227

  ****  Segment refs  ****

  Flags:  r = read only, s = secondary
Flgs Name                             Flgs Name                             Flgs Name
     ISSID
PL6.E3A0      #011=THF$CSHERR File=THF$FORMAT.:E05TSI                            WED 07/30/97 06:19 Page:1228


     6672        1        /*M* THF$CSHERR - ROUTINE TO PROCESS CPU CACHE PARITY ERROR */
     6673        2        /*T***********************************************************/
     6674        3        /*T*                                                         */
     6675        4        /*T* Copyright (c) Bull HN Information Systems Inc., 1997    */
     6676        5        /*T*                                                         */
     6677        6        /*T***********************************************************/
     6678        7        /**/
     6679        8        THF$CSHERR: PROC;

      8  2 000000   000000 700200 xent  THF$CSHERR   TSX0  ! X66_AUTO_0
         2 000001   000070 000000                    ZERO    56,0

     6680        9        /**/
     6681       10        /* INCLUDE FILES */
     6682       11        %INCLUDE CP_6;
     6683       92        %INCLUDE EL$TABLES;
     6684      415        %INCLUDE TH_DATA_R;
     6685      493        /**/
     6686      494        /* AUTO PARAMETERS */
     6687      495    1   DCL 1 INFO,
     6688      496    1         2 BOUND UBIN(20) UNAL,
     6689      497    1         2 * BIT(16),
     6690      498    1         2 PTR$ PTR;
     6691      499    1   DCL LEVEL# UBIN;
     6692      500    1   DCL TEXT CHAR(18);
     6693      501    1   DCL 1 TXT REDEF TEXT,
     6694      502    1         2 BOARD CHAR(5),
     6695      503    1         2 * CHAR(2),
     6696      504    1         2 CHIP CHAR(3),
     6697      505    1         2 * CHAR(1),
     6698      506    1         2 SLOT CHAR(7);
     6699      507    1   DCL LOW_PROFILE_SLOT CHAR(7);
     6700      508    1   DCL BIT# SBIN;
     6701      509    1   DCL SLOT# UBIN;
     6702      510    1   DCL CHIP# UBIN;
     6703      511    1   DCL DWORD1_BIT BIT(72) DALIGNED;
PL6.E3A0      #011=THF$CSHERR File=THF$FORMAT.:E05TSI                            WED 07/30/97 06:19 Page:1229
     6704      512    1   DCL DWORD1 (0:71) REDEF DWORD1_BIT BIT(1) UNAL;
     6705      513    1   DCL DWORD2_BIT BIT(72) DALIGNED;
     6706      514    1   DCL DWORD2 (0:71) REDEF DWORD2_BIT BIT(1) UNAL;
     6707      515    1   DCL I UBIN;
     6708      516    1   DCL RSW2_BIT BIT(36);
     6709      517    1   DCL 1 RSW2 REDEF RSW2_BIT,
     6710      518    1         2 * BIT(4),
     6711      519    1         2 CPU_TYPE UBIN(2) UNAL,
     6712      520    1         2 * BIT(14),
     6713      521    1         2 CSH_8K UBIN(1) UNAL,
     6714      522    1         2 * BIT(15);
     6715      523    1   DCL 1 CSH_ADDR,
     6716      524    1         2 * BIT(23),
     6717      525    1         2 LVL_8K UBIN(2) UNAL,
     6718      526    1         2 LVL_2K UBIN(2) UNAL,
     6719      527    1         2 * BIT(9);
     6720      528    1   DCL CSH_ADDR_UBIN REDEF CSH_ADDR UBIN;
     6721      529        /**/
     6722      530        /* CONSTANTS */
     6723      531    1   DCL NO_CSH_ERR CHAR(0) CONSTANT INIT(
     6724      532    1      '%/   Not a cache error or no cache error found%10P');
     6725      533    1   DCL 1 CSH_ERR_FMT CONSTANT,
     6726      534    1         2 * CHAR(0) INIT('%/%8-CACHE DATA%34-MEMORY DATA%53-LEVEL#'),
     6727      535    1         2 * CHAR(0) INIT('  BOARD CHIP SLOT%/'),
     6728      536    1         2 * CHAR(0) INIT('%2(%25(-%) %)%6(-%)  -----%2( ----%)%/'),
     6729      537    1         2 * CHAR(0) INIT('%2(%12ZO %12ZO %)   %1ZO    %A%/'),
     6730      538    1         2 * CHAR(0) INIT('%72-%A%10P');
     6731      539    1   DCL NSACD_SLOT (0:6) CHAR(7) CONSTANT CALIGNED INIT(
     6732      540    1        'AB13','AB14','AB15','AB16','AB17','AB18','AB13/14');
     6733      541    1   DCL HCCCD_SLOT (0:6) CHAR(7) CONSTANT CALIGNED INIT(
     6734      542    1        'AB13','AB14','AB15','AB16','AB17','AB18','AB13/14');
     6735      543    1   DCL ETCCD_SLOT (0:6) CHAR(7) CONSTANT CALIGNED INIT(
     6736      544    1        'AB1N','AB1P','AB1Q','AB1R','AB1S','AB1T','AB1N/1P');
     6737      545    1   DCL ETCCD_SLOT_LOW (0:6) CHAR(7) CONSTANT CALIGNED INIT(
     6738      546    1        'AA2M','AA2N','AA2P','AA2Q','AA2R','AA2S','AA2M/2N');
     6739      547    1   DCL A6SCD_SLOT (0:6) CHAR(7) CONSTANT CALIGNED INIT(
     6740      548    1        'AB1J'*3,'AB1K'*3,'AB1J/1K');
PL6.E3A0      #011=THF$CSHERR File=THF$FORMAT.:E05TSI                            WED 07/30/97 06:19 Page:1230
     6741      549    1   DCL NSACD_CHIP (0:12) CHAR(2) CONSTANT CALIGNED INIT(
     6742      550    1        '3F','3E','3D','3C','3B','3A',
     6743      551    1        '3P','3Q','3R','3S','3T','3U','0J');
     6744      552    1   DCL HCCCD_CHIP (0:51) CHAR(2) CONSTANT CALIGNED INIT(
     6745      553    1        '1B','2B','3B','4B','1C','2C','3C','4C',
     6746      554    1        '1D','2D','3D','4D','1E','2E','3E','4E',
     6747      555    1        '1F','2F','3F','4F','1G','2G','3G','4G',
     6748      556    1        '1J','2J','3J','4J','1K','2K','3K','4K',
     6749      557    1        '1L','2L','3L','4L','1M','2M','3M','4M',
     6750      558    1        '1N','2N','3N','4N','1P','2P','3P','4P','1Q','2Q','3Q','4Q');
     6751      559    1   DCL ETCCD_CHIP (0:51) CHAR(3) CONSTANT CALIGNED INIT(
     6752      560    1        '36X','45X','55X','65X','33W','42W','51W','60W',
     6753      561    1        '36V','45V','55V','65V','31U','40U','49U','58U',
     6754      562    1        '36T','45T','55T','65T','36S','45S','55S','65S',
     6755      563    1        '32F','41F','50F','59F','32E','41E','50E','59E',
     6756      564    1        '32D','41D','50D','59D','32C','41C','50C','59C',
     6757      565    1        '32B','41B','50B','59B','32A','41A','50A','59A',
     6758      566    1        '37R','46R','55R','65R');
     6759      567        /**/
     6760      568        /* BASED DATA */
     6761      569        %EL$PROCERR (STCLASS="BASED(INFO.PTR$)");
     6762      579        /**/
     6763      580        /* ENTRY DEFS */
     6764      581    1   DCL THW$WRITE ENTRY(11);
     6765      582        /**/
     6766      583        /* PROCEDURE */
     6767      584    1      INFO = TH_INFO;

    584  2 000002   000000 237000 xsym               LDAQ    TH_INFO
         2 000003   200003 755100                    STA     INFO,,AUTO
         2 000004   200004 756100                    STQ     INFO+1,,AUTO

     6768      585    1      IF EL$PROCERR.SAFESTORE.CSHERR = '0'B

    585  2 000005   200004 470500                    LDP0    INFO+1,,AUTO
         2 000006   000000 106500                    CMPC    fill='000'O
         2 000007   000102 000030                    ADSC9   66,,PR0                  cn=0,n=24
PL6.E3A0      #011=THF$CSHERR File=THF$FORMAT.:E05TSI                            WED 07/30/97 06:19 Page:1231
         2 000010   000002 000002 xsym               ADSC9   B_VECTNIL+2              cn=0,n=2
         2 000011   000017 601000 2                  TNZ     s:590

     6769      586    2      THEN DO;

     6770      587    2         CALL THW$WRITE(VECTOR(NO_CSH_ERR));

    587  2 000012   000002 630400 3                  EPPR0   2
         2 000013   000017 631400 xsym               EPPR1   B_VECTNIL+15
         2 000014   000000 701000 xent               TSX1    THW$WRITE
         2 000015   000000 011000                    NOP     0

     6771      588    2         RETURN;

    588  2 000016   000000 702200 xent               TSX2  ! X66_ARET

     6772      589    2         END;
     6773      590    1      RSW2_BIT = EL$PROCERR.RSW2;

    590  2 000017   000007 236100                    LDQ     7,,PR0
         2 000020   200025 756100                    STQ     RSW2_BIT,,AUTO

     6774      591    1      CSH_ADDR_UBIN = EL$PROCERR.SAFESTORE.CSHERR.CSH_ADDR;

    591  2 000021   000102 236100                    LDQ     66,,PR0
         2 000022   777777 376007                    ANQ     -1,DL
         2 000023   200026 756100                    STQ     CSH_ADDR,,AUTO

     6775      592    1      IF BINBIT(RSW2.CSH_8K,1)

    592  2 000024   200025 236100                    LDQ     RSW2_BIT,,AUTO
         2 000025   000017 772000                    QRL     15
         2 000026   000001 376007                    ANQ     1,DL
         2 000027   000043 736000                    QLS     35
         2 000030   000036 600000 2                  TZE     s:594

     6776      593    1      THEN LEVEL# = CSH_ADDR.LVL_8K;
PL6.E3A0      #011=THF$CSHERR File=THF$FORMAT.:E05TSI                            WED 07/30/97 06:19 Page:1232

    593  2 000031   200026 236100                    LDQ     CSH_ADDR,,AUTO
         2 000032   000013 772000                    QRL     11
         2 000033   000003 376007                    ANQ     3,DL
         2 000034   200005 756100                    STQ     LEVEL#,,AUTO
         2 000035   000042 710000 2                  TRA     s:595

     6777      594    1      ELSE LEVEL# = CSH_ADDR.LVL_2K;

    594  2 000036   200026 236100                    LDQ     CSH_ADDR,,AUTO
         2 000037   000011 772000                    QRL     9
         2 000040   000003 376007                    ANQ     3,DL
         2 000041   200005 756100                    STQ     LEVEL#,,AUTO

     6778      595    1      TEXT = ' ';

    595  2 000042   040100 100400                    MLR     fill='040'O
         2 000043   000035 000001 xsym               ADSC9   B_VECTNIL+29             cn=0,n=1
         2 000044   200006 000022                    ADSC9   TEXT,,AUTO               cn=0,n=18

     6779      596    1      LOW_PROFILE_SLOT = ' ';

    596  2 000045   040100 100400                    MLR     fill='040'O
         2 000046   000035 000001 xsym               ADSC9   B_VECTNIL+29             cn=0,n=1
         2 000047   200013 000007                    ADSC9   LOW_PROFILE_SLOT,,AUTO   cn=0,n=7

     6780      597    1      DWORD1_BIT = EL$PROCERR.SAFESTORE.CSHERR.CSH_DATA;

    597  2 000050   000100 100500                    MLR     fill='000'O
         2 000051   000104 000010                    ADSC9   68,,PR0                  cn=0,n=8
         2 000052   200020 000010                    ADSC9   DWORD1_BIT,,AUTO         cn=0,n=8

     6781      598    1      DWORD2_BIT = EL$PROCERR.SAFESTORE.CSHERR.MEM_DATA;

    598  2 000053   000100 100500                    MLR     fill='000'O
         2 000054   000106 000010                    ADSC9   70,,PR0                  cn=0,n=8
         2 000055   200022 000010                    ADSC9   DWORD2_BIT,,AUTO         cn=0,n=8
PL6.E3A0      #011=THF$CSHERR File=THF$FORMAT.:E05TSI                            WED 07/30/97 06:19 Page:1233

     6782      599    1      BIT# = -1;

    599  2 000056   000001 335007                    LCA     1,DL
         2 000057   200015 755100                    STA     BIT#,,AUTO

     6783      600    2      DO I = 0 TO 71;

    600  2 000060   200024 450100                    STZ     I,,AUTO

     6784      601    2         IF DWORD1(I) ~= DWORD2(I)

    601  2 000061   200024 235100                    LDA     I,,AUTO
         2 000062   000105 066505                    CMPB    filb='0'B
         2 000063   200020 000001                    BDSC    DWORD1_BIT,A,AUTO        by=0,bit=0,n=1
         2 000064   200022 000001                    BDSC    DWORD2_BIT,A,AUTO        by=0,bit=0,n=1
         2 000065   000075 600000 2                  TZE     s:610

     6785      602    3         THEN DO;

     6786      603    3            IF BIT# >= 0

    603  2 000066   200015 236100                    LDQ     BIT#,,AUTO
         2 000067   000074 604000 2                  TMI     s:608

     6787      604    4            THEN DO;

     6788      605    4               TEXT = 'MULTIPLE ERRORS';

    605  2 000070   040100 100400                    MLR     fill='040'O
         2 000071   000271 000017 1                  ADSC9   ETCCD_CHIP+39            cn=0,n=15
         2 000072   200006 000022                    ADSC9   TEXT,,AUTO               cn=0,n=18

     6789      606    4               GOTO MULTIPLE_BITS;

    606  2 000073   000241 710000 2                  TRA     MULTIPLE_BITS

PL6.E3A0      #011=THF$CSHERR File=THF$FORMAT.:E05TSI                            WED 07/30/97 06:19 Page:1234
     6790      607    4               END;
     6791      608    3            ELSE BIT# = I;

    608  2 000074   200015 755100                    STA     BIT#,,AUTO

     6792      609    3            END;

     6793      610    2         END;

    610  2 000075   000001 035007                    ADLA    1,DL
         2 000076   200024 755100                    STA     I,,AUTO
         2 000077   000110 115007                    CMPA    72,DL
         2 000100   000061 602000 2                  TNC     s:601

     6794      611    1      IF BIT# >= 0

    611  2 000101   200015 236100                    LDQ     BIT#,,AUTO
         2 000102   000120 604000 2                  TMI     s:617

     6795      612    2      THEN DO;

     6796      613    2         SLOT# = MOD(BIT#,36)/6;

    613  2 000103   000044 506007                    DIV     36,DL
         2 000104   000044 733000                    LRS     36
         2 000105   000006 506007                    DIV     6,DL
         2 000106   200016 756100                    STQ     SLOT#,,AUTO

     6797      614    2         CHIP# = MOD(BIT#,6) + 6 * (BIT# / 36);

    614  2 000107   200015 236100                    LDQ     BIT#,,AUTO
         2 000110   000006 506007                    DIV     6,DL
         2 000111   200015 236100                    LDQ     BIT#,,AUTO
         2 000112   200030 755100                    STA     CSH_ADDR+2,,AUTO
         2 000113   000044 506007                    DIV     36,DL
         2 000114   000006 402007                    MPY     6,DL
         2 000115   200030 036100                    ADLQ    CSH_ADDR+2,,AUTO
PL6.E3A0      #011=THF$CSHERR File=THF$FORMAT.:E05TSI                            WED 07/30/97 06:19 Page:1235
         2 000116   200017 756100                    STQ     CHIP#,,AUTO

     6798      615    2         END;

    615  2 000117   000124 710000 2                  TRA     s:620

     6799      616    2      ELSE DO;

     6800      617    2         SLOT# = 6;

    617  2 000120   000006 235007                    LDA     6,DL
         2 000121   200016 755100                    STA     SLOT#,,AUTO

     6801      618    2         CHIP# = 12;

    618  2 000122   000014 235007                    LDA     12,DL
         2 000123   200017 755100                    STA     CHIP#,,AUTO

     6802      619    2         END;

     6803      620    1      I = 2 * RSW2.CPU_TYPE + RSW2.CSH_8K;

    620  2 000124   200025 236100                    LDQ     RSW2_BIT,,AUTO
         2 000125   000017 772000                    QRL     15
         2 000126   000001 376007                    ANQ     1,DL
         2 000127   200030 756100                    STQ     CSH_ADDR+2,,AUTO
         2 000130   200025 236100                    LDQ     RSW2_BIT,,AUTO
         2 000131   000035 772000                    QRL     29
         2 000132   000006 376007                    ANQ     6,DL
         2 000133   200030 036100                    ADLQ    CSH_ADDR+2,,AUTO
         2 000134   200024 756100                    STQ     I,,AUTO

     6804      621    2      DO CASE(I);

    621  2 000135   000005 116007                    CMPQ    5,DL
         2 000136   000140 602006 2                  TNC     s:621+3,QL
         2 000137   000241 710000 2                  TRA     MULTIPLE_BITS
PL6.E3A0      #011=THF$CSHERR File=THF$FORMAT.:E05TSI                            WED 07/30/97 06:19 Page:1236
         2 000140   000145 710000 2                  TRA     s:623
         2 000141   000163 710000 2                  TRA     s:627
         2 000142   000241 710000 2                  TRA     MULTIPLE_BITS
         2 000143   000203 710000 2                  TRA     s:631
         2 000144   000230 710000 2                  TRA     s:636

     6805      622    2         CASE(0);                                                /* L66 2K CACHE */

     6806      623    2            TXT.BOARD = 'NSACD';

    623  2 000145   040100 100400                    MLR     fill='040'O
         2 000146   000275 000005 1                  ADSC9   ETCCD_CHIP+43            cn=0,n=5
         2 000147   200006 000005                    ADSC9   TEXT,,AUTO               cn=0,n=5

     6807      624    2            TXT.SLOT = NSACD_SLOT(SLOT#);

    624  2 000150   200016 236100                    LDQ     SLOT#,,AUTO
         2 000151   000007 402007                    MPY     7,DL
         2 000152   040100 100406                    MLR     fill='040'O
         2 000153   000060 000007 1                  ADSC9   NSACD_SLOT,Q             cn=0,n=7
         2 000154   200010 600007                    ADSC9   TEXT+2,,AUTO             cn=3,n=7

     6808      625    2            TXT.CHIP = NSACD_CHIP(CHIP#);

    625  2 000155   200017 235100                    LDA     CHIP#,,AUTO
         2 000156   000001 735000                    ALS     1
         2 000157   040100 100405                    MLR     fill='040'O
         2 000160   000161 000002 1                  ADSC9   NSACD_CHIP,A             cn=0,n=2
         2 000161   200007 600003                    ADSC9   TEXT+1,,AUTO             cn=3,n=3
         2 000162   000241 710000 2                  TRA     MULTIPLE_BITS

     6809      626    2         CASE(1);                                                /* L66 8K CACHE */

     6810      627    2            TXT.BOARD = 'HCCCD';

    627  2 000163   040100 100400                    MLR     fill='040'O
         2 000164   000277 000005 1                  ADSC9   ETCCD_CHIP+45            cn=0,n=5
PL6.E3A0      #011=THF$CSHERR File=THF$FORMAT.:E05TSI                            WED 07/30/97 06:19 Page:1237
         2 000165   200006 000005                    ADSC9   TEXT,,AUTO               cn=0,n=5

     6811      628    2            TXT.SLOT = HCCCD_SLOT(SLOT#);

    628  2 000166   200016 236100                    LDQ     SLOT#,,AUTO
         2 000167   000007 402007                    MPY     7,DL
         2 000170   040100 100406                    MLR     fill='040'O
         2 000171   000075 000007 1                  ADSC9   HCCCD_SLOT,Q             cn=0,n=7
         2 000172   200010 600007                    ADSC9   TEXT+2,,AUTO             cn=3,n=7

     6812      629    2            TXT.CHIP = HCCCD_CHIP(4 * CHIP# + LEVEL#);

    629  2 000173   200017 236100                    LDQ     CHIP#,,AUTO
         2 000174   000002 736000                    QLS     2
         2 000175   200005 036100                    ADLQ    LEVEL#,,AUTO
         2 000176   000001 736000                    QLS     1
         2 000177   040100 100406                    MLR     fill='040'O
         2 000200   000170 000002 1                  ADSC9   HCCCD_CHIP,Q             cn=0,n=2
         2 000201   200007 600003                    ADSC9   TEXT+1,,AUTO             cn=3,n=3
         2 000202   000241 710000 2                  TRA     MULTIPLE_BITS

     6813      630    2         CASE(3);                                               /* DPSE 8K CACHE */

     6814      631    2            TXT.BOARD = 'ETCCD';

    631  2 000203   040100 100400                    MLR     fill='040'O
         2 000204   000301 000005 1                  ADSC9   ETCCD_CHIP+47            cn=0,n=5
         2 000205   200006 000005                    ADSC9   TEXT,,AUTO               cn=0,n=5

     6815      632    2            TXT.SLOT = ETCCD_SLOT(SLOT#);

    632  2 000206   200016 236100                    LDQ     SLOT#,,AUTO
         2 000207   000007 402007                    MPY     7,DL
         2 000210   040100 100406                    MLR     fill='040'O
         2 000211   000112 000007 1                  ADSC9   ETCCD_SLOT,Q             cn=0,n=7
         2 000212   200010 600007                    ADSC9   TEXT+2,,AUTO             cn=3,n=7

PL6.E3A0      #011=THF$CSHERR File=THF$FORMAT.:E05TSI                            WED 07/30/97 06:19 Page:1238
     6816      633    2            TXT.CHIP = ETCCD_CHIP(4 * CHIP# + LEVEL#);

    633  2 000213   200017 236100                    LDQ     CHIP#,,AUTO
         2 000214   000002 736000                    QLS     2
         2 000215   200005 036100                    ADLQ    LEVEL#,,AUTO
         2 000216   000003 402007                    MPY     3,DL
         2 000217   040100 100406                    MLR     fill='040'O
         2 000220   000222 000003 1                  ADSC9   ETCCD_CHIP,Q             cn=0,n=3
         2 000221   200007 600003                    ADSC9   TEXT+1,,AUTO             cn=3,n=3

     6817      634    2            LOW_PROFILE_SLOT = ETCCD_SLOT_LOW(SLOT#);

    634  2 000222   200016 236100                    LDQ     SLOT#,,AUTO
         2 000223   000007 402007                    MPY     7,DL
         2 000224   040100 100406                    MLR     fill='040'O
         2 000225   000127 000007 1                  ADSC9   ETCCD_SLOT_LOW,Q         cn=0,n=7
         2 000226   200013 000007                    ADSC9   LOW_PROFILE_SLOT,,AUTO   cn=0,n=7
         2 000227   000241 710000 2                  TRA     MULTIPLE_BITS

     6818      635    2         CASE(4);                                                /* ELS 2K CACHE */

     6819      636    2            TXT.BOARD = 'A6SCD';

    636  2 000230   040100 100400                    MLR     fill='040'O
         2 000231   000303 000005 1                  ADSC9   ETCCD_CHIP+49            cn=0,n=5
         2 000232   200006 000005                    ADSC9   TEXT,,AUTO               cn=0,n=5

     6820      637    2            TXT.SLOT = A6SCD_SLOT(SLOT#);

    637  2 000233   200016 236100                    LDQ     SLOT#,,AUTO
         2 000234   000007 402007                    MPY     7,DL
         2 000235   040100 100406                    MLR     fill='040'O
         2 000236   000144 000007 1                  ADSC9   A6SCD_SLOT,Q             cn=0,n=7
         2 000237   200010 600007                    ADSC9   TEXT+2,,AUTO             cn=3,n=7
         2 000240   000241 710000 2                  TRA     MULTIPLE_BITS

     6821      638    2         CASE(5);                                                /* ELS 8K CACHE */
PL6.E3A0      #011=THF$CSHERR File=THF$FORMAT.:E05TSI                            WED 07/30/97 06:19 Page:1239

     6822      639    2         END;

     6823      640    1   MULTIPLE_BITS:
     6824      641    1      CALL THW$WRITE(VECTOR(CSH_ERR_FMT),

    641  2 000241   000006 235000 3     MULTIPLE_BI* LDA     6
         2 000242   200004 236100                    LDQ     INFO+1,,AUTO
         2 000243   000104 036003                    ADLQ    68,DU
         2 000244   200030 757100                    STAQ    CSH_ADDR+2,,AUTO
         2 000245   000006 235000 3                  LDA     6
         2 000246   200004 236100                    LDQ     INFO+1,,AUTO
         2 000247   000106 036003                    ADLQ    70,DU
         2 000250   200032 757100                    STAQ    CSH_ADDR+4,,AUTO
         2 000251   777640 235007                    LDA     -96,DL
         2 000252   200034 452500                    STP2    CSH_ADDR+6,,AUTO
         2 000253   200034 236100                    LDQ     CSH_ADDR+6,,AUTO
         2 000254   000005 036003                    ADLQ    5,DU
         2 000255   200036 757100                    STAQ    CSH_ADDR+8,,AUTO
         2 000256   000007 235000 3                  LDA     7
         2 000257   200040 452500                    STP2    CSH_ADDR+10,,AUTO
         2 000260   200040 236100                    LDQ     CSH_ADDR+10,,AUTO
         2 000261   000006 036003                    ADLQ    6,DU
         2 000262   200042 757100                    STAQ    CSH_ADDR+12,,AUTO
         2 000263   000010 235000 3                  LDA     8
         2 000264   200044 452500                    STP2    CSH_ADDR+14,,AUTO
         2 000265   200044 236100                    LDQ     CSH_ADDR+14,,AUTO
         2 000266   000013 036003                    ADLQ    11,DU
         2 000267   200050 757100                    STAQ    CSH_ADDR+18,,AUTO
         2 000270   200030 237100                    LDAQ    CSH_ADDR+2,,AUTO
         2 000271   200046 757100                    STAQ    CSH_ADDR+16,,AUTO
         2 000272   200032 237100                    LDAQ    CSH_ADDR+4,,AUTO
         2 000273   200052 757100                    STAQ    CSH_ADDR+20,,AUTO
         2 000274   200036 237100                    LDAQ    CSH_ADDR+8,,AUTO
         2 000275   200054 757100                    STAQ    CSH_ADDR+22,,AUTO
         2 000276   200042 237100                    LDAQ    CSH_ADDR+12,,AUTO
         2 000277   200056 757100                    STAQ    CSH_ADDR+24,,AUTO
PL6.E3A0      #011=THF$CSHERR File=THF$FORMAT.:E05TSI                            WED 07/30/97 06:19 Page:1240
         2 000300   200050 237100                    LDAQ    CSH_ADDR+18,,AUTO
         2 000301   200060 757100                    STAQ    CSH_ADDR+26,,AUTO
         2 000302   200060 630500                    EPPR0   CSH_ADDR+26,,AUTO
         2 000303   200067 450500                    STP0    CSH_ADDR+33,,AUTO
         2 000304   200056 631500                    EPPR1   CSH_ADDR+24,,AUTO
         2 000305   200066 451500                    STP1    CSH_ADDR+32,,AUTO
         2 000306   200054 633500                    EPPR3   CSH_ADDR+22,,AUTO
         2 000307   200065 453500                    STP3    CSH_ADDR+31,,AUTO
         2 000310   200052 634500                    EPPR4   CSH_ADDR+20,,AUTO
         2 000311   200064 454500                    STP4    CSH_ADDR+30,,AUTO
         2 000312   200046 635500                    EPPR5   CSH_ADDR+16,,AUTO
         2 000313   200063 455500                    STP5    CSH_ADDR+29,,AUTO
         2 000314   000011 236000 3                  LDQ     9
         2 000315   200062 756100                    STQ     CSH_ADDR+28,,AUTO
         2 000316   200062 630500                    EPPR0   CSH_ADDR+28,,AUTO
         2 000317   000024 631400 xsym               EPPR1   B_VECTNIL+20
         2 000320   000000 701000 xent               TSX1    THW$WRITE
         2 000321   000000 011000                    NOP     0

     6825      642    1                     VECTOR(EL$PROCERR.SAFESTORE.CSHERR.CSH_DATA),
     6826      643    1                     VECTOR(EL$PROCERR.SAFESTORE.CSHERR.MEM_DATA),
     6827      644    1                     VECTOR(LEVEL#),
     6828      645    1                     VECTOR(TEXT),
     6829      646    1                     VECTOR(LOW_PROFILE_SLOT));
     6830      647    1      END THF$CSHERR;

    647  2 000322   000000 702200 xent               TSX2  ! X66_ARET

PL6.E3A0      #011=THF$CSHERR File=THF$FORMAT.:E05TSI                            WED 07/30/97 06:19 Page:1241
--  Include file information  --

   TH_DATA_R.:E05TOU  cannot be made into a system file and is referenced.
   EL$TABLES.:E05TOU  is referenced.
   CP_6.:E05TOU  cannot be made into a system file and is referenced.
   B$JIT_C.:E05TOU  was found in the system file and is never referenced.
   CP_6_C.:E05TOU  was found in the system file and is referenced.
      No diagnostics issued in procedure THF$CSHERR.
PL6.E3A0      #011=THF$CSHERR File=THF$FORMAT.:E05TSI                            WED 07/30/97 06:19 Page:1242

 **** Variables and constants ****

  ****  Section 001 RoData THF$CSHERR

  ****  Scalars and arrays  ****
OctLoc.c.b A Datatyp(siz) R M Lvl/name                 OctLoc.c.b A Datatyp(siz) R M Lvl/name

   144-0-0/c CHAR(7)     r     1 A6SCD_SLOT(0:6)
    15-0-0/c STRC(1251)  r     1 CSH_ERR_FMT
   222-0-0/c CHAR(3)     r     1 ETCCD_CHIP(0:51)
   112-0-0/c CHAR(7)     r     1 ETCCD_SLOT(0:6)
   127-0-0/c CHAR(7)     r     1 ETCCD_SLOT_LOW(0:6)
   170-0-0/c CHAR(2)     r     1 HCCCD_CHIP(0:51)
    75-0-0/c CHAR(7)     r     1 HCCCD_SLOT(0:6)
     0-0-0/c CHAR(50)    r     1 NO_CSH_ERR
   161-0-0/c CHAR(2)     r     1 NSACD_CHIP(0:12)
    60-0-0/c CHAR(7)     r     1 NSACD_SLOT(0:6)

  ****  Auto variables  ****

  ****  Scalars and arrays  ****
OctLoc.c.b A Datatyp(siz) R M Lvl/name                 OctLoc.c.b A Datatyp(siz) R M Lvl/name

    15-0-0/w SBIN        r     1 BIT#                      17-0-0/w UBIN        r     1 CHIP#
    26-0-0/b STRC        r     1 CSH_ADDR                  26-0-0/w UBIN        r     1 CSH_ADDR_UBIN
    20-0-0/d BIT         r     1 DWORD1(0:71)              20-0-0/d BIT (72)    r     1 DWORD1_BIT
    22-0-0/d BIT         r     1 DWORD2(0:71)              22-0-0/d BIT (72)    r     1 DWORD2_BIT
    24-0-0/w UBIN        r     1 I                          3-0-0/w STRC(72)    r     1 INFO
     5-0-0/w UBIN        r     1 LEVEL#                    13-0-0/c CHAR(7)     r     1 LOW_PROFILE_SLOT
    25-0-0/b STRC        r     1 RSW2                      25-0-0/b BIT         r     1 RSW2_BIT
    16-0-0/w UBIN        r     1 SLOT#                      6-0-0/c CHAR(18)    r     1 TEXT
     6-0-0/c STRC(162)   r     1 TXT

  ****  SYMREF variables  ****

  ****  Scalars and arrays  ****
OctLoc.c.b A Datatyp(siz) R M Lvl/name                 OctLoc.c.b A Datatyp(siz) R M Lvl/name
PL6.E3A0      #011=THF$CSHERR File=THF$FORMAT.:E05TSI                            WED 07/30/97 06:19 Page:1243

     0-0-0/d STRC(72)    r     1 TH_INFO

  ****  BASED and DCB variables  ****

  ****  Scalars and arrays  ****
OctLoc.c.b A Datatyp(siz) R M Lvl/name                 OctLoc.c.b A Datatyp(siz) R M Lvl/name

     0-0-0/w STRC(2700)  r     1 EL$PROCERR


   Procedure THF$CSHERR requires 211 words for executable code.
   Procedure THF$CSHERR requires 56 words of local(AUTO) storage.

    No errors detected in file THF$FORMAT.:E05TSI    .
PL6.E3A0      #011=THF$CSHERR File=THF$FORMAT.:E05TSI                            WED 07/30/97 06:19 Page:1244
          *** CROSS REFERENCE LISTING ***
**     DENOTES     IDENTIFIER DEFINITION
<<                 IDENTIFIER'S VALUE SET
>>                 IDENTIFIER'S VALUE USED
<>                 IDENTIFIER SET AND/OR USED
--                 IDENTIFIER REFERENCED
PL6.E3A0      #011=THF$CSHERR File=THF$FORMAT.:E05TSI                            WED 07/30/97 06:19 Page:1245
          MINI XREF LISTING

A6SCD_SLOT
       547**DCL       637>>ASSIGN
BIT#
       508**DCL       599<<ASSIGN    603>>IF        608<<ASSIGN    611>>IF        613>>ASSIGN    614>>ASSIGN
       614>>ASSIGN
CHIP#
       510**DCL       614<<ASSIGN    618<<ASSIGN    625>>ASSIGN    629>>ASSIGN    633>>ASSIGN
CSH_ADDR
       523**DCL       528--REDEF
CSH_ADDR.LVL_2K
       526**DCL       594>>ASSIGN
CSH_ADDR.LVL_8K
       525**DCL       593>>ASSIGN
CSH_ADDR_UBIN
       528**DCL       591<<ASSIGN
CSH_ERR_FMT
       533**DCL       641--CALL
DWORD1
       512**DCL       601>>IF
DWORD1_BIT
       511**DCL       512--REDEF     597<<ASSIGN
DWORD2
       514**DCL       601>>IF
DWORD2_BIT
       513**DCL       514--REDEF     598<<ASSIGN
EL$PROCERR.RSW2
       571**DCL       590>>ASSIGN
EL$PROCERR.SAFESTORE.CSHERR
       573**DCL       585>>IF
EL$PROCERR.SAFESTORE.CSHERR.CSH_ADDR
       573**DCL       591>>ASSIGN
EL$PROCERR.SAFESTORE.CSHERR.CSH_DATA
PL6.E3A0      #011=THF$CSHERR File=THF$FORMAT.:E05TSI                            WED 07/30/97 06:19 Page:1246
       573**DCL       597>>ASSIGN    641--CALL
EL$PROCERR.SAFESTORE.CSHERR.MEM_DATA
       574**DCL       598>>ASSIGN    641--CALL
ETCCD_CHIP
       559**DCL       633>>ASSIGN
ETCCD_SLOT
       543**DCL       632>>ASSIGN
ETCCD_SLOT_LOW
       545**DCL       634>>ASSIGN
HCCCD_CHIP
       552**DCL       629>>ASSIGN
HCCCD_SLOT
       541**DCL       628>>ASSIGN
I
       515**DCL       600<<DOINDEX   601>>IF        601>>IF        608>>ASSIGN    620<<ASSIGN    621>>DOCASE
INFO
       495**DCL       584<<ASSIGN
INFO.PTR$
       498**DCL       570--IMP-PTR   585>>IF        590>>ASSIGN    591>>ASSIGN    597>>ASSIGN    598>>ASSIGN
       641>>CALL      641>>CALL
LEVEL#
       499**DCL       593<<ASSIGN    594<<ASSIGN    629>>ASSIGN    633>>ASSIGN    641--CALL
LOW_PROFILE_SLOT
       507**DCL       596<<ASSIGN    634<<ASSIGN    641--CALL
MULTIPLE_BITS
       641**LABEL     606--GOTO
NO_CSH_ERR
       531**DCL       587--CALL
NSACD_CHIP
       549**DCL       625>>ASSIGN
NSACD_SLOT
       539**DCL       624>>ASSIGN
RSW2.CPU_TYPE
       519**DCL       620>>ASSIGN
RSW2.CSH_8K
       521**DCL       592>>IF        620>>ASSIGN
PL6.E3A0      #011=THF$CSHERR File=THF$FORMAT.:E05TSI                            WED 07/30/97 06:19 Page:1247
RSW2_BIT
       516**DCL       517--REDEF     590<<ASSIGN
SLOT#
       509**DCL       613<<ASSIGN    617<<ASSIGN    624>>ASSIGN    628>>ASSIGN    632>>ASSIGN    634>>ASSIGN
       637>>ASSIGN
TEXT
       500**DCL       501--REDEF     595<<ASSIGN    605<<ASSIGN    641--CALL
THW$WRITE
       581**DCL-ENT   587--CALL      641--CALL
TH_CONSTRAINTS.E_BY_B
       426**DCL       426--REDEF
TH_CONSTRAINTS.M_BY_B
       425**DCL       425--REDEF
TH_CONSTRAINTS.TYPES
       423**DCL       423--REDEF
TH_DEFAULT.E_BY_B
       434**DCL       434--REDEF
TH_DEFAULT.M_BY_B
       433**DCL       433--REDEF
TH_DEFAULT.TYPES
       431**DCL       431--REDEF
TH_INFO
       452**DCL       584>>ASSIGN
TH_SAVE.E_BY_B
       442**DCL       442--REDEF
TH_SAVE.M_BY_B
       440**DCL       440--REDEF
TH_SAVE.TYPES
       438**DCL       439--REDEF
TH_XSA_BUF_VECTOR
       458**DCL       458--REDEF
TXT.BOARD
       502**DCL       623<<ASSIGN    627<<ASSIGN    631<<ASSIGN    636<<ASSIGN
TXT.CHIP
       504**DCL       625<<ASSIGN    629<<ASSIGN    633<<ASSIGN
TXT.SLOT
PL6.E3A0      #011=THF$CSHERR File=THF$FORMAT.:E05TSI                            WED 07/30/97 06:19 Page:1248
       506**DCL       624<<ASSIGN    628<<ASSIGN    632<<ASSIGN    637<<ASSIGN
