PL6.E3A0      #002=THF$DUMP File=THF$FORMAT.:E05TSI                              WED 07/30/97 06:15 Page:729
     3615        1        /*M* THF$DUMP - ROUTINE TO DUMP ERROR LOG RECORDS IN OCTAL */
     3616        2        /*T***********************************************************/
     3617        3        /*T*                                                         */
     3618        4        /*T* Copyright (c) Bull HN Information Systems Inc., 1997    */
     3619        5        /*T*                                                         */
     3620        6        /*T***********************************************************/
     3621        7        THF$DUMP: PROC(INFO$,LEN,NOTEXT);
     3622        8        /*      In this procedure:
     3623        9
     3624       10             NWDS = The number of words to print per line.
     3625       11             RX = The index of the first word to be printed on the current line.
     3626       12             RSIZE = The total number of words to be output.
     3627       13             BUFSZ = The size of the output buffer.
     3628       14             BUFFER = The output buffer.
     3629       15             TX = The character index into BUFFER where the first translated
     3630       16                  character is to be placed.
     3631       17             RCSZ = How many characters to translate.
     3632       18                                                                */
     3633       19        /**/
     3634       20        /* PARAMS */
     3635       21    1   DCL INFO$ PTR;
     3636       22    1   DCL LEN UBIN;
     3637       23    1   DCL NOTEXT BIT(1) ALIGNED;    /* SET IF NO ASCII INTERPRETATION DESIRED     */
     3638       24        /**/
     3639       25        /* INCLUDE FILES */
     3640       26        %INCLUDE CP_6;
     3641      107        %INCLUDE EL$TABLES;
     3642      430        %INCLUDE F$DCB;
     3643      479        %INCLUDE TH_DATA_R;
     3644      557        %INCLUDE B$TABLES_C;
     3645      665             %B$XL_ASC_DUMP;
     3646      669        /**/
     3647      670        /* DCBS */
     3648      671    1   DCL M$LO DCB;
     3649      672        /**/
     3650      673        /* VARS */
     3651      674    1   DCL RSIZE UBIN;
PL6.E3A0      #002=THF$DUMP File=THF$FORMAT.:E05TSI                              WED 07/30/97 06:15 Page:730
     3652      675    1   DCL BUFSZ SBIN;
     3653      676    1   DCL BUFFER CHAR(256);
     3654      677    1   DCL OCTNUM CHAR(12);
     3655      678    1   DCL OCTA(0:11) REDEF OCTNUM UBIN BYTE UNAL;
     3656      679    1   DCL NWDS UBIN;
     3657      680    1   DCL TEMPWDS UBIN WORD;
     3658      681    1   DCL TEMPLEN UBIN WORD;
     3659      682    1   DCL TEMPFMT CHAR(220) STATIC INIT(' ');
     3660      683    1   DCL FMT$ PTR STATIC INIT(ADDR(TEMPFMT));
     3661      684    1   DCL FMTBUF CHAR(FMTLEN) BASED(FMT$);
     3662      685    1   DCL FMTLEN UBIN;
     3663      686    1   DCL 1 HEX_FMT CONSTANT,
     3664      687    1         2 * CHAR(0) INIT(
     3665      688    1   '%4.32ZY %2P%8.36ZY %8.36ZY %8.36ZY %8.36ZY %8.36ZY %8.36ZY %8.36ZY %8.36ZY '),
     3666      689    1         2 * CHAR(0) INIT(
     3667      690    1   '%8.36ZY %8.36ZY %8.36ZY %8.36ZY %8.36ZY %8.36ZY %8.36ZY %8.36ZY %8.36ZY '),
     3668      691    1         2 * CHAR(0) INIT(
     3669      692    1   '%8.36ZY %8.36ZY %8.36ZY %8.36ZY %8.36ZY %8.36ZY %8.36ZY %8.36ZY %8.36ZY');
     3670      693    1   DCL HEXFMT REDEF HEX_FMT CHAR(218);
     3671      694    1   DCL END_FMT CHAR(0) CONSTANT INIT('%10P');
     3672      695    1   DCL I UBIN;
     3673      696    1   DCL RCSZ UBIN;
     3674      697    1   DCL R$ PTR;
     3675      698    1   DCL RBASE(0:0) UBIN BASED(R$);
     3676      699    1   DCL RCHAR CHAR(RCSZ) BASED(R$);
     3677      700    1   DCL RX UBIN;
     3678      701    1   DCL TX UBIN;
     3679      702    1   DCL WRITE_HDR CHAR(0) CONSTANT INIT('%A %10P');
     3680      703    1   DCL WRITE_FMT BIT(72) DALIGNED STATIC INIT(VECTOR(WRITE_HDR));
     3681      704        /**/
     3682      705        /* ENTRY DEFS */
     3683      706    1   DCL THW$WRITE ENTRY(11);
     3684      707    1        IF ADDR(LEN) = ADDR(NIL)
     3685      708    1           THEN RSIZE = (TH_RECORD.BOUND + 1)/4;
     3686      709    1           ELSE RSIZE = LEN;
     3687      710    1        BUFSZ = DCBADDR(DCBNUM(M$LO))->F$DCB.WIDTH - 1;
     3688      711    1        IF BUFSZ <= 0 THEN BUFSZ = 79;
PL6.E3A0      #002=THF$DUMP File=THF$FORMAT.:E05TSI                              WED 07/30/97 06:15 Page:731
     3689      712    1        IF BUFSZ > 255 THEN BUFSZ = 255;
     3690      713    1        IF ADDR(NOTEXT) ~= ADDR(NIL) AND NOTEXT = '1'B
     3691      714    2        THEN DO;
     3692      715    2           NWDS = (BUFSZ-6)/13;
     3693      716    2           IF NWDS >= 8
     3694      717    2           THEN NWDS = 8;
     3695      718    2           ELSE IF NWDS >= 4
     3696      719    2                THEN NWDS = 4;
     3697      720    2           TX = 0;
     3698      721    2           END;
     3699      722    2        ELSE DO;
     3700      723    2           NWDS = (BUFSZ - 8)/17;
     3701      724    2           NWDS = NWDS - MOD(NWDS,2);
     3702      725    2           TX = 8 + 13 * NWDS;
     3703      726    2           END;
     3704      727    1        RX = 0;
     3705      728    2        DO WHILE (RSIZE > RX);
     3706      729    2           R$ = PINCRW(INFO$,RX);
     3707      730    2           CALL CVTOCT(RX);
     3708      731    2           SUBSTR(BUFFER,0,BUFSZ) = SUBSTR(OCTNUM,8);
     3709      732    3           DO I = 0 TO NWDS - 1;
     3710      733    3              IF (I + RX < RSIZE)
     3711      734    3                 THEN
     3712      735    4                 DO;
     3713      736    4                    CALL CVTOCT(RBASE(I));
     3714      737    4                    CALL INSERT(BUFFER,6+I*13,12,OCTNUM);
     3715      738    4                 END;                      /* IF I                               */
     3716      739    3           END;                            /* DO I                               */
     3717      740    2           IF RSIZE  > NWDS + RX
     3718      741    2              THEN RCSZ = NWDS * 4;
     3719      742    2              ELSE RCSZ = (RSIZE - RX) * 4;
     3720      743    2              IF TX > 0
     3721      744    2                 THEN CALL XLATE(SUBSTR(BUFFER,TX),B$XL_ASC_DUMP,RCHAR);
     3722      745    2              CALL THW$WRITE(WRITE_FMT,VECTOR(SUBSTR(BUFFER,0,BUFSZ)));
     3723      746    2              RX = RX + NWDS;
     3724      747    2        END;                               /* DO WHILE                           */
     3725      748    1        RETURN;
PL6.E3A0      #002=THF$DUMP File=THF$FORMAT.:E05TSI                              WED 07/30/97 06:15 Page:732
     3726      749        %EJECT;
PL6.E3A0      #002=THF$DUMP File=THF$FORMAT.:E05TSI                              WED 07/30/97 06:15 Page:733
     3727      750    1   THF$HEXDUMP:ENTRY(INFO$,LEN,NOTEXT);
     3728      751        /**/
     3729      752    1        RSIZE = LEN;
     3730      753    1        BUFSZ = DCBADDR(DCBNUM(M$LO))->F$DCB.WIDTH - 1;
     3731      754    1        IF BUFSZ <= 0 THEN BUFSZ = 80;
     3732      755    1        IF BUFSZ > 255 THEN BUFSZ = 255;
     3733      756    1        NWDS = (BUFSZ-6)/9;
     3734      757    1        NWDS = NWDS - MOD(NWDS,2);
     3735      758    1        RX = 0;
     3736      759    2        DO WHILE(RSIZE > RX);
     3737      760    2           R$ = PINCRW(INFO$,RX);
     3738      761    2           IF RSIZE > NWDS + RX
     3739      762    2              THEN TEMPWDS = NWDS;
     3740      763    2              ELSE TEMPWDS = RSIZE - RX;
     3741      764    2           RCSZ = TEMPWDS * 4;
     3742      765    2           TEMPLEN = 18 + 8 * (TEMPWDS - 1);
     3743      766    2           FMTLEN = TEMPLEN + SIZEC(END_FMT);
     3744      767    2           CALL INSERT(FMTBUF,0,FMTLEN,SUBSTR(HEXFMT,0,TEMPLEN),END_FMT);
     3745      768    2           CALL THW$WRITE(VECTOR(FMTBUF),VECTOR(RX),VECTOR(RCHAR));
     3746      769    2           RX = RX + NWDS;
     3747      770    2           END;  /* DO WHILE */
     3748      771    1        RETURN;
     3749      772        %EJECT;
PL6.E3A0      #002=THF$DUMP File=THF$FORMAT.:E05TSI                              WED 07/30/97 06:15 Page:734
     3750      773    1   CVTOCT: PROC(X);
     3751      774    2   DCL X(0:11) UBIN(3) UNAL;
     3752      775    2   DCL I SBIN;
     3753      776    3           DO I = 0 TO 11;
     3754      777    3              OCTA(I) = X(I) + 48;
     3755      778    3           END;                            /* DO                                 */
     3756      779    2           RETURN;
     3757      780    2   END CVTOCT;
     3758      781    1   END THF$DUMP;
     3759      782        %EOD;

PL6.E3A0      #002=THF$DUMP File=THF$FORMAT.:E05TSI                              WED 07/30/97 06:15 Page:735
--  Include file information  --

   B$TABLES_C.:E05TOU  cannot be made into a system file and is referenced.
   TH_DATA_R.:E05TOU  cannot be made into a system file and is referenced.
   F$DCB.:E05TOU  cannot be made into a system file and is referenced.
   EL$TABLES.:E05TOU  is referenced.
   CP_6.:E05TOU  cannot be made into a system file and is referenced.
   B$JIT_C.:E05TOU  was found in the system file and is never referenced.
   CP_6_C.:E05TOU  was found in the system file and is referenced.
      No diagnostics issued in procedure THF$DUMP.

   Procedure THF$DUMP requires 280 words for executable code.
   Procedure THF$DUMP requires 106 words of local(AUTO) storage.

PL6.E3A0      #002=THF$DUMP File=THF$FORMAT.:E05TSI                              WED 07/30/97 06:15 Page:736

 Object Unit name= THF$DUMP                                   File name= THF$FORMAT.:E05TOU
 UTS= JUL 30 '97 06:15:23.64 WED                              Compiler= PL-6/E31         Sev=      00
 SharedLib= :SHARED_SYSTEM                                    Alt SharedLib=


    ****  Control sections  ****

 Sect   Type Bound  Init  Size OctSiz  Section name(segment info)
    0   DCB   even  none     0      0  M$UC
    1   DCB   even  none     0      0  M$LO
    2   Data  even  none    58     72  THF$DUMP
    3  RoData even  UTS     58     72  THF$DUMP
    4   Proc  even  none   280    430  THF$DUMP
    5  RoData even  none     2      2  THF$DUMP

    ****  Entry defs  ****

                              Check   Calling
                             calling  sequence
  Sect OctLoc Primary Altret sequence   type   Parms  Name
     4      0   yes            yes      Std        3  THF$DUMP
     4    223                  yes      Std        3  THF$HEXDUMP

  ****  Entry refs  ****

         Check        Calling
        calling       sequence
Altret sequence SRef   type   Args  Name
         yes          ~proc      0 B_POINTER
         yes           Std      11 THW$WRITE
                       nStd      0 X66_AUTO_3
                       Std       0 B_CONSPOOL_D
                       nStd      0 X66_ARET
PL6.E3A0      #002=THF$DUMP File=THF$FORMAT.:E05TSI                              WED 07/30/97 06:15 Page:737

  ****  Data refs  ****

  Flags:  r = read only, s = secondary
Flgs Name                             Flgs Name                             Flgs Name
     M$UC                                  TH_RECORD                             TH_XSA_BUF_VECTOR
r    B$XL_ASC_DUMP$                        M$LO                                  B_VECTNIL

  ****  Segment refs  ****

  Flags:  r = read only, s = secondary
Flgs Name                             Flgs Name                             Flgs Name
     ISSID                                 ROSID
PL6.E3A0      #002=THF$DUMP File=THF$FORMAT.:E05TSI                              WED 07/30/97 06:15 Page:738


     3615        1        /*M* THF$DUMP - ROUTINE TO DUMP ERROR LOG RECORDS IN OCTAL */
     3616        2        /*T***********************************************************/
     3617        3        /*T*                                                         */
     3618        4        /*T* Copyright (c) Bull HN Information Systems Inc., 1997    */
     3619        5        /*T*                                                         */
     3620        6        /*T***********************************************************/
     3621        7        THF$DUMP: PROC(INFO$,LEN,NOTEXT);

      7  4 000000   000000 700200 xent  THF$DUMP     TSX0  ! X66_AUTO_3
         4 000001   000152 000003                    ZERO    106,3

     3622        8        /*      In this procedure:
     3623        9
     3624       10             NWDS = The number of words to print per line.
     3625       11             RX = The index of the first word to be printed on the current line.
     3626       12             RSIZE = The total number of words to be output.
     3627       13             BUFSZ = The size of the output buffer.
     3628       14             BUFFER = The output buffer.
     3629       15             TX = The character index into BUFFER where the first translated
     3630       16                  character is to be placed.
     3631       17             RCSZ = How many characters to translate.
     3632       18                                                                */
     3633       19        /**/
     3634       20        /* PARAMS */
     3635       21    1   DCL INFO$ PTR;
     3636       22    1   DCL LEN UBIN;
     3637       23    1   DCL NOTEXT BIT(1) ALIGNED;    /* SET IF NO ASCII INTERPRETATION DESIRED     */
     3638       24        /**/
     3639       25        /* INCLUDE FILES */
     3640       26        %INCLUDE CP_6;
     3641      107        %INCLUDE EL$TABLES;
     3642      430        %INCLUDE F$DCB;
     3643      479        %INCLUDE TH_DATA_R;
     3644      557        %INCLUDE B$TABLES_C;
     3645      665             %B$XL_ASC_DUMP;
     3646      669        /**/
PL6.E3A0      #002=THF$DUMP File=THF$FORMAT.:E05TSI                              WED 07/30/97 06:15 Page:739
     3647      670        /* DCBS */
     3648      671    1   DCL M$LO DCB;
     3649      672        /**/
     3650      673        /* VARS */
     3651      674    1   DCL RSIZE UBIN;
     3652      675    1   DCL BUFSZ SBIN;
     3653      676    1   DCL BUFFER CHAR(256);
     3654      677    1   DCL OCTNUM CHAR(12);
     3655      678    1   DCL OCTA(0:11) REDEF OCTNUM UBIN BYTE UNAL;
     3656      679    1   DCL NWDS UBIN;
     3657      680    1   DCL TEMPWDS UBIN WORD;
     3658      681    1   DCL TEMPLEN UBIN WORD;
     3659      682    1   DCL TEMPFMT CHAR(220) STATIC INIT(' ');
     3660      683    1   DCL FMT$ PTR STATIC INIT(ADDR(TEMPFMT));
     3661      684    1   DCL FMTBUF CHAR(FMTLEN) BASED(FMT$);
     3662      685    1   DCL FMTLEN UBIN;
     3663      686    1   DCL 1 HEX_FMT CONSTANT,
     3664      687    1         2 * CHAR(0) INIT(
     3665      688    1   '%4.32ZY %2P%8.36ZY %8.36ZY %8.36ZY %8.36ZY %8.36ZY %8.36ZY %8.36ZY %8.36ZY '),
     3666      689    1         2 * CHAR(0) INIT(
     3667      690    1   '%8.36ZY %8.36ZY %8.36ZY %8.36ZY %8.36ZY %8.36ZY %8.36ZY %8.36ZY %8.36ZY '),
     3668      691    1         2 * CHAR(0) INIT(
     3669      692    1   '%8.36ZY %8.36ZY %8.36ZY %8.36ZY %8.36ZY %8.36ZY %8.36ZY %8.36ZY %8.36ZY');
     3670      693    1   DCL HEXFMT REDEF HEX_FMT CHAR(218);
     3671      694    1   DCL END_FMT CHAR(0) CONSTANT INIT('%10P');
     3672      695    1   DCL I UBIN;
     3673      696    1   DCL RCSZ UBIN;
     3674      697    1   DCL R$ PTR;
     3675      698    1   DCL RBASE(0:0) UBIN BASED(R$);
     3676      699    1   DCL RCHAR CHAR(RCSZ) BASED(R$);
     3677      700    1   DCL RX UBIN;
     3678      701    1   DCL TX UBIN;
     3679      702    1   DCL WRITE_HDR CHAR(0) CONSTANT INIT('%A %10P');
     3680      703    1   DCL WRITE_FMT BIT(72) DALIGNED STATIC INIT(VECTOR(WRITE_HDR));
     3681      704        /**/
     3682      705        /* ENTRY DEFS */
     3683      706    1   DCL THW$WRITE ENTRY(11);
PL6.E3A0      #002=THF$DUMP File=THF$FORMAT.:E05TSI                              WED 07/30/97 06:15 Page:740
     3684      707    1        IF ADDR(LEN) = ADDR(NIL)

    707  4 000002   200004 236100                    LDQ     @LEN,,AUTO
         4 000003   000001 116000 xsym               CMPQ    B_VECTNIL+1
         4 000004   000013 601000 4                  TNZ     s:709

     3685      708    1           THEN RSIZE = (TH_RECORD.BOUND + 1)/4;

    708  4 000005   000000 236000 xsym               LDQ     TH_RECORD
         4 000006   000020 772000                    QRL     16
         4 000007   000001 036007                    ADLQ    1,DL
         4 000010   000002 772000                    QRL     2
         4 000011   200006 756100                    STQ     RSIZE,,AUTO
         4 000012   000016 710000 4                  TRA     s:710

     3686      709    1           ELSE RSIZE = LEN;

    709  4 000013   200004 470500                    LDP0    @LEN,,AUTO
         4 000014   000000 235100                    LDA     0,,PR0
         4 000015   200006 755100                    STA     RSIZE,,AUTO

     3687      710    1        BUFSZ = DCBADDR(DCBNUM(M$LO))->F$DCB.WIDTH - 1;

    710  4 000016   000000 236007 xsym               LDQ     M$LO,DL
         4 000017   000000 470400 5                  LDP0    0
         4 000020   000000 471500                    LDP1    0,,PR0
         4 000021   100000 473506                    LDP3    0,QL,PR1
         4 000022   300004 236100                    LDQ     4,,PR3
         4 000023   000777 376007                    ANQ     511,DL
         4 000024   000001 136007                    SBLQ    1,DL
         4 000025   200007 756100                    STQ     BUFSZ,,AUTO

     3688      711    1        IF BUFSZ <= 0 THEN BUFSZ = 79;

    711  4 000026   000031 605400 4                  TPNZ    s:712

    711  4 000027   000117 235007                    LDA     79,DL
PL6.E3A0      #002=THF$DUMP File=THF$FORMAT.:E05TSI                              WED 07/30/97 06:15 Page:741
         4 000030   200007 755100                    STA     BUFSZ,,AUTO

     3689      712    1        IF BUFSZ > 255 THEN BUFSZ = 255;

    712  4 000031   200007 235100                    LDA     BUFSZ,,AUTO
         4 000032   000377 115007                    CMPA    255,DL
         4 000033   000036 604400 4                  TMOZ    s:713

    712  4 000034   000377 236007                    LDQ     255,DL
         4 000035   200007 756100                    STQ     BUFSZ,,AUTO

     3690      713    1        IF ADDR(NOTEXT) ~= ADDR(NIL) AND NOTEXT = '1'B

    713  4 000036   200005 236100                    LDQ     @NOTEXT,,AUTO
         4 000037   000001 116000 xsym               CMPQ    B_VECTNIL+1
         4 000040   000063 600000 4                  TZE     s:723
         4 000041   200005 473500                    LDP3    @NOTEXT,,AUTO
         4 000042   300000 234100                    SZN     0,,PR3
         4 000043   000063 605000 4                  TPL     s:723

     3691      714    2        THEN DO;

     3692      715    2           NWDS = (BUFSZ-6)/13;

    715  4 000044   200007 236100                    LDQ     BUFSZ,,AUTO
         4 000045   000006 136007                    SBLQ    6,DL
         4 000046   000015 506007                    DIV     13,DL
         4 000047   200113 756100                    STQ     NWDS,,AUTO

     3693      716    2           IF NWDS >= 8

    716  4 000050   000010 116007                    CMPQ    8,DL
         4 000051   000055 602000 4                  TNC     s:718

     3694      717    2           THEN NWDS = 8;

    717  4 000052   000010 235007                    LDA     8,DL
PL6.E3A0      #002=THF$DUMP File=THF$FORMAT.:E05TSI                              WED 07/30/97 06:15 Page:742
         4 000053   200113 755100                    STA     NWDS,,AUTO
         4 000054   000061 710000 4                  TRA     s:720

     3695      718    2           ELSE IF NWDS >= 4

    718  4 000055   000004 116007                    CMPQ    4,DL
         4 000056   000061 602000 4                  TNC     s:720

     3696      719    2                THEN NWDS = 4;

    719  4 000057   000004 235007                    LDA     4,DL
         4 000060   200113 755100                    STA     NWDS,,AUTO

     3697      720    2           TX = 0;

    720  4 000061   200123 450100                    STZ     TX,,AUTO

     3698      721    2           END;

    721  4 000062   000077 710000 4                  TRA     s:727

     3699      722    2        ELSE DO;

     3700      723    2           NWDS = (BUFSZ - 8)/17;

    723  4 000063   200007 236100                    LDQ     BUFSZ,,AUTO
         4 000064   000010 136007                    SBLQ    8,DL
         4 000065   000021 506007                    DIV     17,DL
         4 000066   200113 756100                    STQ     NWDS,,AUTO

     3701      724    2           NWDS = NWDS - MOD(NWDS,2);

    724  4 000067   000001 376007                    ANQ     1,DL
         4 000070   200130 756100                    STQ     I+2,,AUTO
         4 000071   200113 236100                    LDQ     NWDS,,AUTO
         4 000072   200130 136100                    SBLQ    I+2,,AUTO
         4 000073   200113 756100                    STQ     NWDS,,AUTO
PL6.E3A0      #002=THF$DUMP File=THF$FORMAT.:E05TSI                              WED 07/30/97 06:15 Page:743

     3702      725    2           TX = 8 + 13 * NWDS;

    725  4 000074   000015 402007                    MPY     13,DL
         4 000075   000010 036007                    ADLQ    8,DL
         4 000076   200123 756100                    STQ     TX,,AUTO

     3703      726    2           END;

     3704      727    1        RX = 0;

    727  4 000077   200122 450100                    STZ     RX,,AUTO

     3705      728    2        DO WHILE (RSIZE > RX);

    728  4 000100   200122 236100                    LDQ     RX,,AUTO
         4 000101   200006 116100                    CMPQ    RSIZE,,AUTO
         4 000102   000222 603000 4                  TRC     s:748

     3706      729    2           R$ = PINCRW(INFO$,RX);

    729  4 000103   200003 470500                    LDP0    @INFO$,,AUTO
         4 000104   000000 471500                    LDP1    0,,PR0
         4 000105   200122 720100                    LXL0    RX,,AUTO
         4 000106   100000 633510                    EPPR3   0,X0,PR1
         4 000107   200121 453500                    STP3    R$,,AUTO

     3707      730    2           CALL CVTOCT(RX);

    730  4 000110   200122 634500                    EPPR4   RX,,AUTO
         4 000111   200125 454500                    STP4    TX+2,,AUTO
         4 000112   000400 701000 4                  TSX1    CVTOCT
         4 000113   000000 011000                    NOP     0

     3708      731    2           SUBSTR(BUFFER,0,BUFSZ) = SUBSTR(OCTNUM,8);

    731  4 000114   200007 720100                    LXL0    BUFSZ,,AUTO
PL6.E3A0      #002=THF$DUMP File=THF$FORMAT.:E05TSI                              WED 07/30/97 06:15 Page:744
         4 000115   040140 100500                    MLR     fill='040'O
         4 000116   200112 000004                    ADSC9   OCTNUM+2,,AUTO           cn=0,n=4
         4 000117   200010 000010                    ADSC9   BUFFER,,AUTO             cn=0,n=*X0

     3709      732    3           DO I = 0 TO NWDS - 1;

    732  4 000120   200117 450100                    STZ     I,,AUTO
         4 000121   000144 710000 4                  TRA     s:739+3

     3710      733    3              IF (I + RX < RSIZE)

    733  4 000122   200117 236100                    LDQ     I,,AUTO
         4 000123   200122 036100                    ADLQ    RX,,AUTO
         4 000124   200006 116100                    CMPQ    RSIZE,,AUTO
         4 000125   000141 603000 4                  TRC     s:739

     3711      734    3                 THEN
     3712      735    4                 DO;

     3713      736    4                    CALL CVTOCT(RBASE(I));

    736  4 000126   200117 236100                    LDQ     I,,AUTO
         4 000127   000022 736000                    QLS     18
         4 000130   200121 036100                    ADLQ    R$,,AUTO
         4 000131   200125 756100                    STQ     TX+2,,AUTO
         4 000132   000400 701000 4                  TSX1    CVTOCT
         4 000133   000000 011000                    NOP     0

     3714      737    4                    CALL INSERT(BUFFER,6+I*13,12,OCTNUM);

    737  4 000134   200117 236100                    LDQ     I,,AUTO
         4 000135   000015 402007                    MPY     13,DL
         4 000136   040106 100500                    MLR     fill='040'O
         4 000137   200110 000014                    ADSC9   OCTNUM,,AUTO             cn=0,n=12
         4 000140   200011 400014                    ADSC9   BUFFER+1,Q,AUTO          cn=2,n=12

     3715      738    4                 END;                      /* IF I                               */
PL6.E3A0      #002=THF$DUMP File=THF$FORMAT.:E05TSI                              WED 07/30/97 06:15 Page:745

     3716      739    3           END;                            /* DO I                               */

    739  4 000141   200117 235100                    LDA     I,,AUTO
         4 000142   000001 035007                    ADLA    1,DL
         4 000143   200117 755100                    STA     I,,AUTO
         4 000144   200117 236100                    LDQ     I,,AUTO
         4 000145   200113 116100                    CMPQ    NWDS,,AUTO
         4 000146   000122 602000 4                  TNC     s:733

     3717      740    2           IF RSIZE  > NWDS + RX

    740  4 000147   200113 236100                    LDQ     NWDS,,AUTO
         4 000150   200122 036100                    ADLQ    RX,,AUTO
         4 000151   200006 116100                    CMPQ    RSIZE,,AUTO
         4 000152   000157 603000 4                  TRC     s:742

     3718      741    2              THEN RCSZ = NWDS * 4;

    741  4 000153   200113 235100                    LDA     NWDS,,AUTO
         4 000154   000002 735000                    ALS     2
         4 000155   200120 755100                    STA     RCSZ,,AUTO
         4 000156   000163 710000 4                  TRA     s:743

     3719      742    2              ELSE RCSZ = (RSIZE - RX) * 4;

    742  4 000157   200006 236100                    LDQ     RSIZE,,AUTO
         4 000160   200122 136100                    SBLQ    RX,,AUTO
         4 000161   000002 736000                    QLS     2
         4 000162   200120 756100                    STQ     RCSZ,,AUTO

     3720      743    2              IF TX > 0

    743  4 000163   200123 235100                    LDA     TX,,AUTO
         4 000164   000176 600000 4                  TZE     s:745

     3721      744    2                 THEN CALL XLATE(SUBSTR(BUFFER,TX),B$XL_ASC_DUMP,RCHAR);
PL6.E3A0      #002=THF$DUMP File=THF$FORMAT.:E05TSI                              WED 07/30/97 06:15 Page:746

    744  4 000165   777377 620005                    EAX0    -257,AL
         4 000166   777777 660003                    ERX0    -1,DU
         4 000167   200121 470500                    LDP0    R$,,AUTO
         4 000170   200120 721100                    LXL1    RCSZ,,AUTO
         4 000171   000000 471400 xsym               LDP1    B$XL_ASC_DUMP$
         4 000172   040145 160540                    MVT     fill='040'O
         4 000173   000000 000011                    ADSC9   0,,PR0                   cn=0,n=*X1
         4 000174   200010 000010                    ADSC9   BUFFER,A,AUTO            cn=0,n=*X0
         4 000175   100000 000100                    ARG     0,,PR1

     3722      745    2              CALL THW$WRITE(WRITE_FMT,VECTOR(SUBSTR(BUFFER,0,BUFSZ)));

    745  4 000176   200007 236100                    LDQ     BUFSZ,,AUTO
         4 000177   000064 737000                    LLS     52
         4 000200   000140 135007                    SBLA    96,DL
         4 000201   200130 452500                    STP2    I+2,,AUTO
         4 000202   200130 236100                    LDQ     I+2,,AUTO
         4 000203   000010 036003                    ADLQ    8,DU
         4 000204   200132 757100                    STAQ    I+4,,AUTO
         4 000205   200132 630500                    EPPR0   I+4,,AUTO
         4 000206   200135 450500                    STP0    I+7,,AUTO
         4 000207   000001 236000 5                  LDQ     1
         4 000210   200134 756100                    STQ     I+6,,AUTO
         4 000211   200134 630500                    EPPR0   I+6,,AUTO
         4 000212   000020 631400 xsym               EPPR1   B_VECTNIL+16
         4 000213   000000 701000 xent               TSX1    THW$WRITE
         4 000214   000000 011000                    NOP     0

     3723      746    2              RX = RX + NWDS;

    746  4 000215   200122 236100                    LDQ     RX,,AUTO
         4 000216   200113 036100                    ADLQ    NWDS,,AUTO
         4 000217   200122 756100                    STQ     RX,,AUTO

     3724      747    2        END;                               /* DO WHILE                           */

PL6.E3A0      #002=THF$DUMP File=THF$FORMAT.:E05TSI                              WED 07/30/97 06:15 Page:747
    747  4 000220   200006 116100                    CMPQ    RSIZE,,AUTO
         4 000221   000103 602000 4                  TNC     s:729

     3725      748    1        RETURN;

    748  4 000222   000000 702200 xent               TSX2  ! X66_ARET

     3726      749        %EJECT;
PL6.E3A0      #002=THF$DUMP File=THF$FORMAT.:E05TSI                              WED 07/30/97 06:15 Page:748
     3727      750    1   THF$HEXDUMP:ENTRY(INFO$,LEN,NOTEXT);

    750  4 000223   000000 700200 xent  THF$HEXDUMP  TSX0  ! X66_AUTO_3
         4 000224   000152 000003                    ZERO    106,3

     3728      751        /**/
     3729      752    1        RSIZE = LEN;

    752  4 000225   200004 470500                    LDP0    @LEN,,AUTO
         4 000226   000000 235100                    LDA     0,,PR0
         4 000227   200006 755100                    STA     RSIZE,,AUTO

     3730      753    1        BUFSZ = DCBADDR(DCBNUM(M$LO))->F$DCB.WIDTH - 1;

    753  4 000230   000000 236007 xsym               LDQ     M$LO,DL
         4 000231   000000 471400 5                  LDP1    0
         4 000232   100000 473500                    LDP3    0,,PR1
         4 000233   300000 474506                    LDP4    0,QL,PR3
         4 000234   400004 236100                    LDQ     4,,PR4
         4 000235   000777 376007                    ANQ     511,DL
         4 000236   000001 136007                    SBLQ    1,DL
         4 000237   200007 756100                    STQ     BUFSZ,,AUTO

     3731      754    1        IF BUFSZ <= 0 THEN BUFSZ = 80;

    754  4 000240   000243 605400 4                  TPNZ    s:755

    754  4 000241   000120 235007                    LDA     80,DL
         4 000242   200007 755100                    STA     BUFSZ,,AUTO

     3732      755    1        IF BUFSZ > 255 THEN BUFSZ = 255;

    755  4 000243   200007 235100                    LDA     BUFSZ,,AUTO
         4 000244   000377 115007                    CMPA    255,DL
         4 000245   000250 604400 4                  TMOZ    s:756

    755  4 000246   000377 236007                    LDQ     255,DL
PL6.E3A0      #002=THF$DUMP File=THF$FORMAT.:E05TSI                              WED 07/30/97 06:15 Page:749
         4 000247   200007 756100                    STQ     BUFSZ,,AUTO

     3733      756    1        NWDS = (BUFSZ-6)/9;

    756  4 000250   200007 236100                    LDQ     BUFSZ,,AUTO
         4 000251   000006 136007                    SBLQ    6,DL
         4 000252   000011 506007                    DIV     9,DL
         4 000253   200113 756100                    STQ     NWDS,,AUTO

     3734      757    1        NWDS = NWDS - MOD(NWDS,2);

    757  4 000254   000001 376007                    ANQ     1,DL
         4 000255   200130 756100                    STQ     I+2,,AUTO
         4 000256   200113 236100                    LDQ     NWDS,,AUTO
         4 000257   200130 136100                    SBLQ    I+2,,AUTO
         4 000260   200113 756100                    STQ     NWDS,,AUTO

     3735      758    1        RX = 0;

    758  4 000261   200122 450100                    STZ     RX,,AUTO

     3736      759    2        DO WHILE(RSIZE > RX);

    759  4 000262   200122 236100                    LDQ     RX,,AUTO
         4 000263   200006 116100                    CMPQ    RSIZE,,AUTO
         4 000264   000377 603000 4                  TRC     s:771

     3737      760    2           R$ = PINCRW(INFO$,RX);

    760  4 000265   200003 470500                    LDP0    @INFO$,,AUTO
         4 000266   000000 471500                    LDP1    0,,PR0
         4 000267   200122 720100                    LXL0    RX,,AUTO
         4 000270   100000 633510                    EPPR3   0,X0,PR1
         4 000271   200121 453500                    STP3    R$,,AUTO

     3738      761    2           IF RSIZE > NWDS + RX

PL6.E3A0      #002=THF$DUMP File=THF$FORMAT.:E05TSI                              WED 07/30/97 06:15 Page:750
    761  4 000272   200113 236100                    LDQ     NWDS,,AUTO
         4 000273   200122 036100                    ADLQ    RX,,AUTO
         4 000274   200006 116100                    CMPQ    RSIZE,,AUTO
         4 000275   000301 603000 4                  TRC     s:763

     3739      762    2              THEN TEMPWDS = NWDS;

    762  4 000276   200113 235100                    LDA     NWDS,,AUTO
         4 000277   200114 755100                    STA     TEMPWDS,,AUTO
         4 000300   000304 710000 4                  TRA     s:764

     3740      763    2              ELSE TEMPWDS = RSIZE - RX;

    763  4 000301   200006 236100                    LDQ     RSIZE,,AUTO
         4 000302   200122 136100                    SBLQ    RX,,AUTO
         4 000303   200114 756100                    STQ     TEMPWDS,,AUTO

     3741      764    2           RCSZ = TEMPWDS * 4;

    764  4 000304   200114 235100                    LDA     TEMPWDS,,AUTO
         4 000305   000002 735000                    ALS     2
         4 000306   200120 755100                    STA     RCSZ,,AUTO

     3742      765    2           TEMPLEN = 18 + 8 * (TEMPWDS - 1);

    765  4 000307   200114 236100                    LDQ     TEMPWDS,,AUTO
         4 000310   000003 736000                    QLS     3
         4 000311   000012 036007                    ADLQ    10,DL
         4 000312   200115 756100                    STQ     TEMPLEN,,AUTO

     3743      766    2           FMTLEN = TEMPLEN + SIZEC(END_FMT);

    766  4 000313   000004 036007                    ADLQ    4,DL
         4 000314   200116 756100                    STQ     FMTLEN,,AUTO

     3744      767    2           CALL INSERT(FMTBUF,0,FMTLEN,SUBSTR(HEXFMT,0,TEMPLEN),END_FMT);

PL6.E3A0      #002=THF$DUMP File=THF$FORMAT.:E05TSI                              WED 07/30/97 06:15 Page:751
    767  4 000315   200115 721100                    LXL1    TEMPLEN,,AUTO
         4 000316   000067 474400 2                  LDP4    FMT$
         4 000317   000000 622006                    EAX2    0,QL
         4 000320   040140 100440                    MLR     fill='040'O
         4 000321   000000 000011 3                  ADSC9   HEX_FMT                  cn=0,n=*X1
         4 000322   400000 000012                    ADSC9   0,,PR4                   cn=0,n=*X2
         4 000323   200116 236100                    LDQ     FMTLEN,,AUTO
         4 000324   200115 136100                    SBLQ    TEMPLEN,,AUTO
         4 000325   000333 604400 4                  TMOZ    s:768
         4 000326   000000 620006                    EAX0    0,QL
         4 000327   200115 236100                    LDQ     TEMPLEN,,AUTO
         4 000330   040146 100400                    MLR     fill='040'O
         4 000331   000067 000004 3                  ADSC9   END_FMT                  cn=0,n=4
         4 000332   400000 000010                    ADSC9   0,Q,PR4                  cn=0,n=*X0

     3745      768    2           CALL THW$WRITE(VECTOR(FMTBUF),VECTOR(RX),VECTOR(RCHAR));

    768  4 000333   200116 236100                    LDQ     FMTLEN,,AUTO
         4 000334   000064 737000                    LLS     52
         4 000335   000140 135007                    SBLA    96,DL
         4 000336   000067 236000 2                  LDQ     FMT$
         4 000337   200130 757100                    STAQ    I+2,,AUTO
         4 000340   777640 235007                    LDA     -96,DL
         4 000341   200132 452500                    STP2    I+4,,AUTO
         4 000342   200132 236100                    LDQ     I+4,,AUTO
         4 000343   000122 036003                    ADLQ    82,DU
         4 000344   200134 757100                    STAQ    I+6,,AUTO
         4 000345   200120 235100                    LDA     RCSZ,,AUTO
         4 000346   000020 735000                    ALS     16
         4 000347   000140 135007                    SBLA    96,DL
         4 000350   200121 236100                    LDQ     R$,,AUTO
         4 000351   200140 757100                    STAQ    I+10,,AUTO
         4 000352   200130 237100                    LDAQ    I+2,,AUTO
         4 000353   200136 757100                    STAQ    I+8,,AUTO
         4 000354   200134 237100                    LDAQ    I+6,,AUTO
         4 000355   200142 757100                    STAQ    I+12,,AUTO
         4 000356   200140 237100                    LDAQ    I+10,,AUTO
PL6.E3A0      #002=THF$DUMP File=THF$FORMAT.:E05TSI                              WED 07/30/97 06:15 Page:752
         4 000357   200144 757100                    STAQ    I+14,,AUTO
         4 000360   200144 631500                    EPPR1   I+14,,AUTO
         4 000361   200150 451500                    STP1    I+18,,AUTO
         4 000362   200142 635500                    EPPR5   I+12,,AUTO
         4 000363   200147 455500                    STP5    I+17,,AUTO
         4 000364   200136 636500                    EPPR6   I+8,,AUTO
         4 000365   200146 456500                    STP6    I+16,,AUTO
         4 000366   200146 630500                    EPPR0   I+16,,AUTO
         4 000367   000021 631400 xsym               EPPR1   B_VECTNIL+17
         4 000370   000000 701000 xent               TSX1    THW$WRITE
         4 000371   000000 011000                    NOP     0

     3746      769    2           RX = RX + NWDS;

    769  4 000372   200122 236100                    LDQ     RX,,AUTO
         4 000373   200113 036100                    ADLQ    NWDS,,AUTO
         4 000374   200122 756100                    STQ     RX,,AUTO

     3747      770    2           END;  /* DO WHILE */

    770  4 000375   200006 116100                    CMPQ    RSIZE,,AUTO
         4 000376   000265 602000 4                  TNC     s:760

     3748      771    1        RETURN;

    771  4 000377   000000 702200 xent               TSX2  ! X66_ARET

     3749      772        %EJECT;
PL6.E3A0      #002=THF$DUMP File=THF$FORMAT.:E05TSI                              WED 07/30/97 06:15 Page:753
     3750      773    1   CVTOCT: PROC(X);

    773  4 000400   200124 741300       CVTOCT       STX1  ! TX+1,,AUTO

     3751      774    2   DCL X(0:11) UBIN(3) UNAL;
     3752      775    2   DCL I SBIN;
     3753      776    3           DO I = 0 TO 11;

    776  4 000401   200126 450100                    STZ     I,,AUTO

     3754      777    3              OCTA(I) = X(I) + 48;

    777  4 000402   200126 236100                    LDQ     I,,AUTO
         4 000403   000003 402007                    MPY     3,DL
         4 000404   000000 116003                    CMPQ    0,DU
         4 000405   000407 605000 4                  TPL     s:777+5
         4 000406   000044 036003                    ADLQ    36,DU
         4 000407   200125 470500                    LDP0    @X,,AUTO
         4 000410   003100 061506                    CSR     bolr='003'O
         4 000411   000000 000003                    BDSC    0,Q,PR0                  by=0,bit=0,n=3
         4 000412   200131 000044                    BDSC    I+3,,AUTO                by=0,bit=0,n=36
         4 000413   200131 236100                    LDQ     I+3,,AUTO
         4 000414   000060 036007                    ADLQ    48,DL
         4 000415   200130 756100                    STQ     I+2,,AUTO
         4 000416   200126 235100                    LDA     I,,AUTO
         4 000417   000105 101500                    MRL     fill='000'O
         4 000420   200130 000004                    ADSC9   I+2,,AUTO                cn=0,n=4
         4 000421   200110 000001                    ADSC9   OCTNUM,A,AUTO            cn=0,n=1

     3755      778    3           END;                            /* DO                                 */

    778  4 000422   200126 054100                    AOS     I,,AUTO
         4 000423   200126 235100                    LDA     I,,AUTO
         4 000424   000013 115007                    CMPA    11,DL
         4 000425   000402 604400 4                  TMOZ    s:777

     3756      779    2           RETURN;
PL6.E3A0      #002=THF$DUMP File=THF$FORMAT.:E05TSI                              WED 07/30/97 06:15 Page:754

    779  4 000426   200124 221300                    LDX1  ! TX+1,,AUTO
         4 000427   000001 702211                    TSX2  ! 1,X1
     3757      780    2   END CVTOCT;
     3758      781    1   END THF$DUMP;
     3759      782        %EOD;

PL6.E3A0      #002=THF$DUMP File=THF$FORMAT.:E05TSI                              WED 07/30/97 06:15 Page:755
--  Include file information  --

   B$TABLES_C.:E05TOU  cannot be made into a system file and is referenced.
   TH_DATA_R.:E05TOU  cannot be made into a system file and is referenced.
   F$DCB.:E05TOU  cannot be made into a system file and is referenced.
   EL$TABLES.:E05TOU  is referenced.
   CP_6.:E05TOU  cannot be made into a system file and is referenced.
   B$JIT_C.:E05TOU  was found in the system file and is never referenced.
   CP_6_C.:E05TOU  was found in the system file and is referenced.
      No diagnostics issued in procedure THF$DUMP.
PL6.E3A0      #002=THF$DUMP File=THF$FORMAT.:E05TSI                              WED 07/30/97 06:15 Page:756

 **** Variables and constants ****

  ****  Section 002  Data  THF$DUMP

  ****  Scalars and arrays  ****
OctLoc.c.b A Datatyp(siz) R M Lvl/name                 OctLoc.c.b A Datatyp(siz) R M Lvl/name

    67-0-0/w PTR         r     1 FMT$                       0-0-0/c CHAR(220)   r     1 TEMPFMT
    70-0-0/d BIT (72)    r     1 WRITE_FMT

  ****  Section 003 RoData THF$DUMP

  ****  Scalars and arrays  ****
OctLoc.c.b A Datatyp(siz) R M Lvl/name                 OctLoc.c.b A Datatyp(siz) R M Lvl/name

    67-0-0/c CHAR(4)     r     1 END_FMT                    0-0-0/c CHAR(218)   r     1 HEXFMT
     0-0-0/c STRC(1962)  r     1 HEX_FMT                   70-0-0/c CHAR(7)     r     1 WRITE_HDR

  ****  Auto variables  ****

  ****  Scalars and arrays  ****
OctLoc.c.b A Datatyp(siz) R M Lvl/name                 OctLoc.c.b A Datatyp(siz) R M Lvl/name

     3-0-0/w PTR         r     1 @INFO$                     4-0-0/w PTR         r     1 @LEN
     5-0-0/w PTR         r     1 @NOTEXT                  125-0-0/w PTR         r     1 @X
    10-0-0/c CHAR(256)   r     1 BUFFER                     7-0-0/w SBIN        r     1 BUFSZ
   116-0-0/w UBIN        r     1 FMTLEN                   117-0-0/w UBIN        r     1 I
   126-0-0/w SBIN        r     1 I                         *0-0-0/w PTR         r     1 INFO$
    *0-0-0/w UBIN        r     1 LEN                       *0-0-0/w BIT         r     1 NOTEXT
   113-0-0/w UBIN        r     1 NWDS                     110-0-0/c UBIN(9)     r     1 OCTA(0:11)
   110-0-0/c CHAR(12)    r     1 OCTNUM                   121-0-0/w PTR         r     1 R$
   120-0-0/w UBIN        r     1 RCSZ                       6-0-0/w UBIN        r     1 RSIZE
   122-0-0/w UBIN        r     1 RX                       115-0-0/w UBIN        r     1 TEMPLEN
   114-0-0/w UBIN        r     1 TEMPWDS                  123-0-0/w UBIN        r     1 TX
    *0-0-0/b UBIN(3)     r     1 X(0:11)

  ****  SYMREF variables  ****
PL6.E3A0      #002=THF$DUMP File=THF$FORMAT.:E05TSI                              WED 07/30/97 06:15 Page:757

  ****  Scalars and arrays  ****
OctLoc.c.b A Datatyp(siz) R M Lvl/name                 OctLoc.c.b A Datatyp(siz) R M Lvl/name

     0-0-0/w PTR         r     1 B$XL_ASC_DUMP$             0-0-0/d STRC(72)    r     1 TH_RECORD

  ****  BASED and DCB variables  ****

  ****  Scalars and arrays  ****
OctLoc.c.b A Datatyp(siz) R M Lvl/name                 OctLoc.c.b A Datatyp(siz) R M Lvl/name

     0-0-0/d STRC(4608)  r     1 B$XL_ASC_DUMP              0-0-0/d ASTR(3528)  r     1 F$DCB
     0-0-0/c ACHR        r     1 FMTBUF                     0-0-0N  NULL        r     1 M$LO
     0-0-0/w UBIN        r     1 RBASE(0:0)                 0-0-0/c ACHR        r     1 RCHAR


   Procedure THF$DUMP requires 280 words for executable code.
   Procedure THF$DUMP requires 106 words of local(AUTO) storage.
PL6.E3A0      #002=THF$DUMP File=THF$FORMAT.:E05TSI                              WED 07/30/97 06:15 Page:758
          *** CROSS REFERENCE LISTING ***
**     DENOTES     IDENTIFIER DEFINITION
<<                 IDENTIFIER'S VALUE SET
>>                 IDENTIFIER'S VALUE USED
<>                 IDENTIFIER SET AND/OR USED
--                 IDENTIFIER REFERENCED
PL6.E3A0      #002=THF$DUMP File=THF$FORMAT.:E05TSI                              WED 07/30/97 06:15 Page:759
          MINI XREF LISTING

B$XL_ASC_DUMP
       667**DCL       744>>CALLBLT
B$XL_ASC_DUMP$
       666**DCL       667--IMP-PTR   744>>CALLBLT
BUFFER
       676**DCL       731<<ASSIGN    737<<CALLBLT   744<<CALLBLT   745--CALL
BUFSZ
       675**DCL       710<<ASSIGN    711>>IF        711<<ASSIGN    712>>IF        712<<ASSIGN    715>>ASSIGN
       723>>ASSIGN    731>>ASSIGN    745>>CALL      753<<ASSIGN    754>>IF        754<<ASSIGN    755>>IF
       755<<ASSIGN    756>>ASSIGN
CVTOCT
       773**PROC      730--CALL      736--CALL
END_FMT
       694**DCL       766--ASSIGN    767>>CALLBLT
F$DCB.ACTPOS
       456**DCL       456--REDEF
F$DCB.ARS
       431**DCL       431--REDEF
F$DCB.ATTR
       449**DCL       450--REDEF
F$DCB.BORROW
       464**DCL       464--REDEF     464--REDEF     464--REDEF
F$DCB.DCBNAME.L
       478**DCL       478--IMP-SIZ
F$DCB.EOMCHAR
       435**DCL       435--REDEF
F$DCB.FLDID
       459**DCL       459--REDEF
F$DCB.FORM$
       453**DCL       453--REDEF
F$DCB.FSECT
       469**DCL       469--REDEF
PL6.E3A0      #002=THF$DUMP File=THF$FORMAT.:E05TSI                              WED 07/30/97 06:15 Page:760
F$DCB.FSN
       446**DCL       446--REDEF     446--REDEF     447--REDEF
F$DCB.HEADER$
       452**DCL       452--REDEF
F$DCB.IXTNSIZE
       450**DCL       450--REDEF
F$DCB.LASTSTA$
       440**DCL       440--REDEF
F$DCB.LVL
       465**DCL       465--REDEF
F$DCB.NAME.C
       440**DCL       440--REDEF
F$DCB.NOEOF
       461**DCL       461--REDEF
F$DCB.NRECS
       451**DCL       451--REDEF
F$DCB.NRECX
       470**DCL       470--REDEF
F$DCB.OHDR
       462**DCL       462--REDEF
F$DCB.ORG
       445**DCL       445--REDEF
F$DCB.PRECNO
       468**DCL       468--REDEF
F$DCB.RCSZ
       473**DCL       473--REDEF
F$DCB.RES
       441**DCL       441--REDEF
F$DCB.SETX
       453**DCL       453--REDEF
F$DCB.TAB$
       452**DCL       453--REDEF
F$DCB.TDA
       467**DCL       467--REDEF
F$DCB.WIDTH
       438**DCL       710>>ASSIGN    753>>ASSIGN
PL6.E3A0      #002=THF$DUMP File=THF$FORMAT.:E05TSI                              WED 07/30/97 06:15 Page:761
F$DCB.WSN
       442**DCL       442--REDEF
FMT$
       683**DCL       684--IMP-PTR   767>>CALLBLT   768>>CALL
FMTBUF
       684**DCL       767<<CALLBLT   768--CALL
FMTLEN
       685**DCL       684--IMP-SIZ   766<<ASSIGN    767>>CALLBLT   767>>CALLBLT   768>>CALL
HEXFMT
       693**DCL       767>>CALLBLT
HEX_FMT
       686**DCL       693--REDEF
I
       695**DCL       732<<DOINDEX   733>>IF        736>>CALL      737>>CALLBLT
I IN PROCEDURE CVTOCT
       775**DCL       776<<DOINDEX   777>>ASSIGN    777>>ASSIGN
INFO$
        21**DCL         7--PROC      729>>ASSIGN    750--ENTRY     760>>ASSIGN
LEN
        22**DCL         7--PROC      707--IF        709>>ASSIGN    750--ENTRY     752>>ASSIGN
M$LO
       671**DCL       710--ASSIGN    753--ASSIGN
NOTEXT
        23**DCL         7--PROC      713--IF        713>>IF        750--ENTRY
NWDS
       679**DCL       715<<ASSIGN    716>>IF        717<<ASSIGN    718>>IF        719<<ASSIGN    723<<ASSIGN
       724<<ASSIGN    724>>ASSIGN    724>>ASSIGN    725>>ASSIGN    732>>DOINDEX   740>>IF        741>>ASSIGN
       746>>ASSIGN    756<<ASSIGN    757<<ASSIGN    757>>ASSIGN    757>>ASSIGN    761>>IF        762>>ASSIGN
       769>>ASSIGN
OCTA
       678**DCL       777<<ASSIGN
OCTNUM
       677**DCL       678--REDEF     731>>ASSIGN    737>>CALLBLT
R$
       697**DCL       698--IMP-PTR   699--IMP-PTR   729<<ASSIGN    736>>CALL      744>>CALLBLT   760<<ASSIGN
       768>>CALL
PL6.E3A0      #002=THF$DUMP File=THF$FORMAT.:E05TSI                              WED 07/30/97 06:15 Page:762
RBASE
       698**DCL       736<>CALL
RCHAR
       699**DCL       744>>CALLBLT   768--CALL
RCSZ
       696**DCL       699--IMP-SIZ   741<<ASSIGN    742<<ASSIGN    744>>CALLBLT   764<<ASSIGN    768>>CALL
RSIZE
       674**DCL       708<<ASSIGN    709<<ASSIGN    728>>DOWHILE   733>>IF        740>>IF        742>>ASSIGN
       752<<ASSIGN    759>>DOWHILE   761>>IF        763>>ASSIGN
RX
       700**DCL       727<<ASSIGN    728>>DOWHILE   729>>ASSIGN    730<>CALL      733>>IF        740>>IF
       742>>ASSIGN    746<<ASSIGN    746>>ASSIGN    758<<ASSIGN    759>>DOWHILE   760>>ASSIGN    761>>IF
       763>>ASSIGN    768--CALL      769<<ASSIGN    769>>ASSIGN
TEMPFMT
       682**DCL       683--DCLINIT
TEMPLEN
       681**DCL       765<<ASSIGN    766>>ASSIGN    767>>CALLBLT
TEMPWDS
       680**DCL       762<<ASSIGN    763<<ASSIGN    764>>ASSIGN    765>>ASSIGN
THW$WRITE
       706**DCL-ENT   745--CALL      768--CALL
TH_CONSTRAINTS.E_BY_B
       490**DCL       490--REDEF
TH_CONSTRAINTS.M_BY_B
       489**DCL       489--REDEF
TH_CONSTRAINTS.TYPES
       487**DCL       487--REDEF
TH_DEFAULT.E_BY_B
       498**DCL       498--REDEF
TH_DEFAULT.M_BY_B
       497**DCL       497--REDEF
TH_DEFAULT.TYPES
       495**DCL       495--REDEF
TH_RECORD.BOUND
       515**DCL       708>>ASSIGN
TH_SAVE.E_BY_B
PL6.E3A0      #002=THF$DUMP File=THF$FORMAT.:E05TSI                              WED 07/30/97 06:15 Page:763
       506**DCL       506--REDEF
TH_SAVE.M_BY_B
       504**DCL       504--REDEF
TH_SAVE.TYPES
       502**DCL       503--REDEF
TH_XSA_BUF_VECTOR
       522**DCL       522--REDEF
TX
       701**DCL       720<<ASSIGN    725<<ASSIGN    743>>IF        744>>CALLBLT
WRITE_FMT
       703**DCL       745<>CALL
WRITE_HDR
       702**DCL       703--DCLINIT
X IN PROCEDURE CVTOCT
       774**DCL       773--PROC      777>>ASSIGN

PL6.E3A0      #003=THF$HISTORY File=THF$FORMAT.:E05TSI                           WED 07/30/97 06:15 Page:764
     3760        1        /*M* THF$HISTORY - FORMAT HISTORY REGS FOR ELAN PROCERR ENTRIES */
     3761        2        /*T***********************************************************/
     3762        3        /*T*                                                         */
     3763        4        /*T* Copyright (c) Bull HN Information Systems Inc., 1997    */
     3764        5        /*T*                                                         */
     3765        6        /*T***********************************************************/
     3766        7        THF$HISTORY: PROC(HR$,PROCTYPE);
     3767        8        /**/
     3768        9        /* PARAMS */
     3769       10    1   DCL HR$ PTR;
     3770       11    1   DCL PROCTYPE UBIN;
     3771       12        /**/
     3772       13        /* INCLUDE FILES */
     3773       14        %INCLUDE TH_SUBS_C;
     3774      396        /**/
     3775      397        /* ENTRY DEFS */
     3776      398    1   DCL THW$WRITE ENTRY(11);
     3777      399        /**/
     3778      400        /* AUTO */
     3779      401    1   DCL I SBIN WORD AUTO;
     3780      402    1   DCL LCNT SBIN WORD AUTO;
     3781      403    1   DCL OPCODE UBIN;
     3782      404    1   DCL DPSEVU1HR BIT(72) DALIGNED AUTO;
     3783      405    1   DCL VEC_LCNT BIT(72) DALIGNED;
     3784      406    1   DCL VEC_OPCODE BIT(72) DALIGNED;
     3785      407        /**/
     3786      408        /* CONSTANTS */
     3787      409        /*       HISTORY REGISTER TITLES */
     3788      410    1   DCL 1 VU_TITLE CONSTANT,
     3789      411    1         2 * CHAR(0) UNAL INIT('%/  --VIRTUAL UNIT HISTORY--%/'),
     3790      412    1         2 T1,
     3791      413    1           3 * CHAR(4) UNAL INIT('    '),
     3792      414    1           3 * CHAR(15) UNAL INIT('        F   FFW'),
     3793      415    1           3 * CHAR(15) UNAL INIT('               '),
     3794      416    1           3 * CHAR(5) UNAL INIT('F  SM'),
     3795      417    1           3 * CHAR(13) UNAL INIT(' STORE-FAULT '),
     3796      418    1           3 * CHAR(4) UNAL INIT(' P F'),
PL6.E3A0      #003=THF$HISTORY File=THF$FORMAT.:E05TSI                           WED 07/30/97 06:15 Page:765
     3797      419    1           3 * CHAR(17) UNAL INIT('      DAMSEL1+3%/'),
     3798      420    1         2 T2,
     3799      421    1           3 * CHAR(4) UNAL INIT('    '),
     3800      422    1           3 * CHAR(15) UNAL INIT('      F AFF PPR'),
     3801      423    1           3 * CHAR(7) UNAL INIT('     FF'),
     3802      424    1           3 * CHAR(4) UNAL INIT('  FF'),
     3803      425    1           3 * CHAR(9) UNAL INIT('  FFV FLA'),
     3804      426    1           3 * CHAR(13) UNAL INIT(' |CMD-FAULT  '),
     3805      427    1           3 * CHAR(22) UNAL INIT(' ITE VVVV |DAMSEL2+3%/'),
     3806      428    1         2 T3,
     3807      429    1           3 * CHAR(4) UNAL INIT('    '),
     3808      430    1           3 * CHAR(11) UNAL INIT('     DA MPK'),
     3809      431    1           3 * CHAR(24) UNAL INIT(' TTP FFF CSF FXF ISU SAS'),
     3810      432    1           3 * CHAR(13) UNAL INIT(' ||VU-IPRFLT '),
     3811      433    1           3 * CHAR(21) UNAL INIT(' ARA AAAA ||VUFAULT%/'),
     3812      434    1         2 T4,
     3813      435    1           3 * CHAR(4) UNAL INIT('    '),
     3814      436    1           3 * CHAR(20) UNAL INIT('  OP FB CTT WWT VVC '),
     3815      437    1           3 * CHAR(15) UNAL INIT('LAX XID DSO SVT'),
     3816      438    1           3 * CHAR(14) UNAL INIT(' |||     REAL '),
     3817      439    1           3 * CHAR(23) UNAL INIT('VGV 2222 |||EXSEG-FLG%/'),
     3818      440    1         2 T5,
     3819      441    1           3 * CHAR(4) UNAL INIT('    '),
     3820      442    1           3 * CHAR(20) UNAL INIT('CODE AS HDW KDW 12D '),
     3821      443    1           3 * CHAR(15) UNAL INIT('RSD DDT TWP RER'),
     3822      444    1           3 * CHAR(14) UNAL INIT(' |||  ADDRESS '),
     3823      445    1           3 * CHAR(0) UNAL INIT('UOU 0123 ||||HLD-STRT%/%10P');
     3824      446
     3825      447
     3826      448    1   DCL 1 CU_TITLE CONSTANT,
     3827      449    1         2 * CHAR(0) UNAL INIT('%/  --CONTROL UNIT HISTORY--%/'),
     3828      450    1         2 T1,
     3829      451    1           3 * CHAR(22) UNAL INIT('                      '),
     3830      452    1           3 * CHAR(1) UNAL INIT('A'),
     3831      453    1           3 * CHAR(33) UNAL INIT('                                 '),
     3832      454    1           3 * CHAR(1) UNAL INIT('I'),
     3833      455    1           3 * CHAR(7) UNAL INIT('       '),
PL6.E3A0      #003=THF$HISTORY File=THF$FORMAT.:E05TSI                           WED 07/30/97 06:15 Page:766
     3834      456    1           3 * CHAR(4) UNAL INIT('D_%/'),
     3835      457    1         2 T2,
     3836      458    1           3 * CHAR(4) UNAL INIT('    '),
     3837      459    1           3 * CHAR(18) UNAL INIT('                  '),
     3838      460    1           3 * CHAR(1) UNAL INIT('R'),
     3839      461    1           3 * CHAR(4) UNAL INIT('   _'),
     3840      462    1           3 * CHAR(29) UNAL INIT('                             '),
     3841      463    1           3 * CHAR(12) UNAL INIT('NFC OCO IP%/'),
     3842      464    1         2 T3,
     3843      465    1           3 * CHAR(4) UNAL INIT('    '),
     3844      466    1           3 * CHAR(10) UNAL INIT('          '),
     3845      467    1           3 * CHAR(1) UNAL INIT('T'),
     3846      468    1           3 * CHAR(5) UNAL INIT('     '),
     3847      469    1           3 * CHAR(7) UNAL INIT('R | __B'),
     3848      470    1           3 * CHAR(29) UNAL INIT('                             '),
     3849      471    1           3 * CHAR(13) UNAL INIT('TEU UUU RCB%/'),
     3850      472    1         2 T4,
     3851      473    1           3 * CHAR(4) UNAL INIT('    '),
     3852      474    1           3 * CHAR(23) UNAL INIT('PPR SPP RSR XX  P F XFA'),
     3853      475    1           3 * CHAR(29) UNAL INIT('                             '),
     3854      476    1           3 * CHAR(13) UNAL INIT('XTS SLL EBU%/'),
     3855      477    1         2 T5,
     3856      478    1           3 * CHAR(4) UNAL INIT('    '),
     3857      479    1           3 * CHAR(27) UNAL INIT('IOI IOO AAG DDI TW/ ILS  OP'),
     3858      480    1           3 * CHAR(15) UNAL INIT('               '),
     3859      481    1           3 * CHAR(23) UNAL INIT('CMD  PORT ECT TOO CSS%/'),
     3860      482    1         2 T6,
     3861      483    1           3 * CHAR(4) UNAL INIT('    '),
     3862      484    1           3 * CHAR(33) UNAL INIT('AAW WTN WWO EOC SIE PTE CODE TAG '),
     3863      485    1           3 * CHAR(0) UNAL INIT('ADDREG  ABCDE ABCD CHR RDD TYY%/%10P');
     3864      486
     3865      487    1   DCL 1 OU_TITLE CONSTANT,
     3866      488    1         2 * CHAR(0) UNAL INIT('%/  --OPERATIONS UNIT HISTORY--%/'),
     3867      489    1         2 T1,
     3868      490    1           3 * CHAR(4) UNAL INIT('    '),
     3869      491    1           3 * CHAR(11) UNAL INIT('           '),
     3870      492    1           3 * CHAR(9) UNAL INIT('CD -LREG/'),
PL6.E3A0      #003=THF$HISTORY File=THF$FORMAT.:E05TSI                           WED 07/30/97 06:15 Page:767
     3871      493    1           3 * CHAR(6) UNAL INIT('   RRR'),
     3872      494    1           3 * CHAR(13) UNAL INIT('             '),
     3873      495    1           3 * CHAR(6) UNAL INIT('S _   '),
     3874      496    1           3 * CHAR(10) UNAL INIT('REGISTER%/'),
     3875      497    1         2 T2,
     3876      498    1           3 * CHAR(4) UNAL INIT('    '),
     3877      499    1           3 * CHAR(11) UNAL INIT('     9     '),
     3878      500    1           3 * CHAR(8) UNAL INIT('RR -SREG'),
     3879      501    1           3 * CHAR(7) UNAL INIT('    BPS'),
     3880      502    1           3 * CHAR(16) UNAL INIT(' FFF FFG FFF T D'),
     3881      503    1           3 * CHAR(13) UNAL INIT('      USAGE%/'),
     3882      504    1         2 T3,
     3883      505    1           3 * CHAR(4) UNAL INIT('    '),
     3884      506    1           3 * CHAR(11) UNAL INIT('     B     '),
     3885      507    1           3 * CHAR(12) UNAL INIT('FF |----    '),
     3886      508    1           3 * CHAR(19) UNAL INIT('FFF GGG GGF GGG R A'),
     3887      509    1           3 * CHAR(13) UNAL INIT('   ________%/'),
     3888      510    1         2 T4,
     3889      511    1           3 * CHAR(4) UNAL INIT('    '),
     3890      512    1           3 * CHAR(15) UNAL INIT('  RP I TAG LL |'),
     3891      513    1           3 * CHAR(8) UNAL INIT('     RS '),
     3892      514    1           3 * CHAR(19) UNAL INIT('UUU IOD DOO OOO A T'),
     3893      515    1           3 * CHAR(19) UNAL INIT(' __XXXXXXXX  ICT%/'),
     3894      516    1         2 T5,
     3895      517    1           3 * CHAR(3) UNAL INIT('   '),
     3896      518    1           3 * CHAR(23) UNAL INIT('CODE T 345 GG CTR CODE '),
     3897      519    1           3 * CHAR(30) UNAL INIT('LLL NS1 2EA MNF V A AQ01234567'),
     3898      520    1           3 * CHAR(0) UNAL INIT('  TRACK%/%10P');
     3899      521
     3900      522    1   DCL 1 DU_TITLE CONSTANT,
     3901      523    1         2 * CHAR(0) UNAL INIT('%/  --DECIMAL UNIT HISTORY--%/'),
     3902      524    1         2 T1,
     3903      525    1           3 * CHAR(4) UNAL INIT('    '),
     3904      526    1           3 * CHAR(20) UNAL INIT('  NS     DD    DDRPP'),
     3905      527    1           3 * CHAR(16) UNAL INIT('     N  F   FAII'),
     3906      528    1           3 * CHAR(14) UNAL INIT('     N  N   LL'),
     3907      529    1           3 * CHAR(24) UNAL INIT(' DWG  E L A B DDDFFA D%/'),
PL6.E3A0      #003=THF$HISTORY File=THF$FORMAT.:E05TSI                           WED 07/30/97 06:15 Page:768
     3908      530    1         2 T2,
     3909      531    1           3 * CHAR(4) UNAL INIT('    '),
     3910      532    1           3 * CHAR(20) UNAL INIT('  EE D  DDDD  EEEDTT'),
     3911      533    1           3 * CHAR(16) UNAL INIT(' FFFWIS OB SRDNN'),
     3912      534    1           3 * CHAR(21) UNAL INIT(' DGGGLG LGAADD ARSASN'),
     3913      535    1           3 * CHAR(17) UNAL INIT(' EGNEL GGGLRD M%/'),
     3914      536    1         2 T3,
     3915      537    1           3 * CHAR(4) UNAL INIT('    '),
     3916      538    1           3 * CHAR(20) UNAL INIT('FFELDF FLUURD XNN+RR'),
     3917      539    1           3 * CHAR(23) UNAL INIT(' AAARNI UI ASJTS UDDDDL'),
     3918      540    1           3 * CHAR(32) UNAL INIT(' DLNNWW TTTNTD NCPXN BDSTND PD%/'),
     3919      541    1         2 T4,
     3920      542    1           3 * CHAR(4) UNAL INIT('    '),
     3921      543    1           3 * CHAR(20) UNAL INIT('PPDALR EALSEL HDDWAA'),
     3922      544    1           3 * CHAR(23) UNAL INIT(' ///DEX RT MTLRT DLLLPD'),
     3923      545    1           3 * CHAR(32) UNAL INIT(' 2DLLRR AIRSRS 1HKMK DBPGDG +X%/'),
     3924      546    1         2 T5,
     3925      547    1           3 * CHAR(4) UNAL INIT('    '),
     3926      548    1           3 * CHAR(20) UNAL INIT('OODDES XSDTDV BSIR00'),
     3927      549    1           3 * CHAR(23) UNAL INIT(' IIIBBB BB PCEPC DDDDDP'),
     3928      550    1           3 * CHAR(32) UNAL INIT(' DPDDTT ADDTOE 2DDOD DPDDDA DP%/'),
     3929      551    1         2 T6,
     3930      552    1           3 * CHAR(4) UNAL INIT('    '),
     3931      553    1           3 * CHAR(20) UNAL INIT('LPRRNT RTEROL GQST01'),
     3932      554    1           3 * CHAR(23) UNAL INIT(' 123DDD DD LTNT1 GABCP1'),
     3933      555    1           3 * CHAR(0) UNAL INIT(' P21212 VPPRPG 8PPPP CCCCGT VN%/%10P');
     3934      556
     3935      557    1   DCL 1 ELS_TITLE CONSTANT,
     3936      558    1         2 * CHAR(0) INIT('%/  --HISTORY REGISTERS--%/'),
     3937      559    1         2 T1,
     3938      560    1           3 * CHAR(31) UNAL INIT(' '),
     3939      561    1           3 * CHAR(0) UNAL INIT('FIRST C-CYCLE'),
     3940      562    1           3 * CHAR(0) UNAL INIT(' PAGING%/'),
     3941      563    1         2 T2,
     3942      564    1           3 * CHAR(33) UNAL INIT(' '),
     3943      565    1           3 * CHAR(0) UNAL INIT('IC BIT 17 |'),
     3944      566    1           3 * CHAR(0) UNAL INIT(' | PTW RE-WRITE%/'),
PL6.E3A0      #003=THF$HISTORY File=THF$FORMAT.:E05TSI                           WED 07/30/97 06:15 Page:769
     3945      567    1         2 T3,
     3946      568    1           3 * CHAR(0) UNAL INIT('    FORCE ECS OUTPUT NOP'),
     3947      569    1           3 * CHAR(6) UNAL INIT(' '),
     3948      570    1           3 * CHAR(0) UNAL INIT('INST FETCH | |'),
     3949      571    1           3 * CHAR(0) UNAL INIT(' | | PRE-PAGE SEQUENCE%/'),
     3950      572    1         2 T4,
     3951      573    1           3 * CHAR(0) UNAL INIT('    | MICRO STEP END'),
     3952      574    1           3 * CHAR(7) UNAL INIT(' '),
     3953      575    1           3 * CHAR(0) UNAL INIT('DIRECT OPER | | |'),
     3954      576    1           3 * CHAR(0) UNAL INIT(' | | | RETRY%/'),
     3955      577    1         2 T5,
     3956      578    1           3 * CHAR(0) UNAL INIT('    | |'),
     3957      579    1           3 * CHAR(16) UNAL INIT(' '),
     3958      580    1           3 * CHAR(0) UNAL INIT('DW MEM ACCESS | | | |'),
     3959      581    1           3 * CHAR(0) UNAL INIT(' | | | | PORT BUSY%/'),
     3960      582    1         2 T6 CHAR(0) INIT('%4X| |%14XSTORE COMMAND %10(| %)CACHE BLOCK LOAD REQ%/'),
     3961      583    1         2 T7,
     3962      584    1           3 * CHAR(0) UNAL INIT('    | |'),
     3963      585    1           3 * CHAR(7) UNAL INIT(' '),
     3964      586    1           3 * CHAR(0) UNAL INIT('HEALS RETRY FLAG   | | | | | |'),
     3965      587    1           3 * CHAR(0) UNAL INIT(' | | | | | | BYPASS READ%/'),
     3966      588    1         2 T8,
     3967      589    1           3 * CHAR(0) UNAL INIT('    | |'),
     3968      590    1           3 * CHAR(7) UNAL INIT(' '),
     3969      591    1           3 * CHAR(0) UNAL INIT('| PREP OPER ADDR   | | | | | |'),
     3970      592    1           3 * CHAR(0) UNAL INIT(' | | | | | | |%/'),
     3971      593    1         2 T9,
     3972      594    1           3 * CHAR(0) UNAL INIT('    | |'),
     3973      595    1           3 * CHAR(7) UNAL INIT(' '),
     3974      596    1           3 * CHAR(0) UNAL INIT('| | PREP INST ADDR | | | | F |'),
     3975      597    1           3 * CHAR(0) UNAL INIT(' | | | | | F F%/'),
     3976      598    1         2 T10,
     3977      599    1           3 * CHAR(0) UNAL INIT('    | |'),
     3978      600    1           3 * CHAR(7) UNAL INIT(' '),
     3979      601    1           3 * CHAR(0) UNAL INIT('H | |'),
     3980      602    1           3 * CHAR(14) UNAL INIT(' '),
     3981      603    1           3 * CHAR(0) UNAL INIT('F F F D I S'),
PL6.E3A0      #003=THF$HISTORY File=THF$FORMAT.:E05TSI                           WED 07/30/97 06:15 Page:770
     3982      604    1           3 * CHAR(0) UNAL INIT(' | F | F | B B%/'),
     3983      605    1         2 T11,
     3984      606    1           3 * CHAR(0) UNAL INIT('    D c'),
     3985      607    1           3 * CHAR(7) UNAL INIT(' '),
     3986      608    1           3 * CHAR(0) UNAL INIT('E D F'),
     3987      609    1           3 * CHAR(14) UNAL INIT(' '),
     3988      610    1           3 * CHAR(0) UNAL INIT('S D D P C P'),
     3989      611    1           3 * CHAR(0) UNAL INIT(' D W D R D L Y%/'),
     3990      612    1         2 T12,
     3991      613    1           3 * CHAR(0) UNAL INIT('    I E'),
     3992      614    1           3 * CHAR(7) UNAL INIT(' '),
     3993      615    1           3 * CHAR(0) UNAL INIT('A P P      I       '),
     3994      616    1           3 * CHAR(0) UNAL INIT('T B I I 1 O'),
     3995      617    1           3 * CHAR(0) UNAL INIT(' P P P T B K P%/'),
     3996      618    1         2 T13,
     3997      619    1           3 * CHAR(0) UNAL INIT('    D N   ECS '),
     3998      620    1           3 * CHAR(0) UNAL INIT('L O I  OP  N A     '),
     3999      621    1           3 * CHAR(0) UNAL INIT('R L R A 7 A'),
     4000      622    1           3 * CHAR(0) UNAL INIT(' G T P R S L R    REAL%/'),
     4001      623    1         2 T14,
     4002      624    1           3 * CHAR(0) UNAL INIT('    L D  ADDR '),
     4003      625    1           3 * CHAR(0) UNAL INIT('S A A CODE H R TAG '),
     4004      626    1           3 * CHAR(0) UNAL INIT('C C C C C C'),
     4005      627    1           3 * CHAR(0) UNAL INIT(' F W G Y Y D D  ADDRESS%/%10P');
     4006      628
     4007      629    1   DCL 1 DPSE_VU_TITLE CONSTANT,
     4008      630    1         2 * CHAR(0) INIT('%/  --VIRTUAL UNIT HISTORY REGISTERS--%/%10P');
     4009      631    1   DCL 1 DPSE_CUOUDU_TITLE CONSTANT,
     4010      632    1         2 * CHAR(0) INIT(
               632                  '%/  --CONTROL, OPERATIONS, AND DECIMAL UNIT HISTORY REGISTERS--%/%10P');
     4011      633
     4012      634
     4013      635                                                /*  OUTPUT LINE FORMATS               */
     4014      636
     4015      637    1   DCL 1 L66_VU_FMT CONSTANT,
     4016      638    1         2 * CHAR(0) INIT('%2ZD: '),
     4017      639    1         2 * CHAR(0) INIT('%3P%4ZO %2...10P%2.2ZB %8(%3.3ZB %)'),
PL6.E3A0      #003=THF$HISTORY File=THF$FORMAT.:E05TSI                           WED 07/30/97 06:15 Page:771
     4018      640    1         2 * CHAR(0) INIT('%8.24ZO %3.3ZB %4.4ZB %5.5ZB%10P');
     4019      641
     4020      642    1   DCL 1 L66_CU_FMT CONSTANT,
     4021      643    1         2 * CHAR(0) INIT('%2ZD: '),
     4022      644    1         2 * CHAR(0) INIT('%6(%3.3ZB %)%4.12ZO %2.6ZO  '),
     4023      645    1         2 * CHAR(0) INIT('%6.18ZO  %5.5ZB %4.4ZB %3(%3.3ZB %)%10P');
     4024      646
     4025      647    1   DCL 1 L66_OU_FMT CONSTANT,
     4026      648    1         2 * CHAR(0) INIT('%2ZD:  '),
     4027      649    1         2 * CHAR(0) INIT('%3.9ZO %1.1B %3.3ZB %1.1B%1.1B  %2.2ZB  '),
     4028      650    1         2 * CHAR(0) INIT('%2...18P%3.9ZO %4(%3.3ZB %)'),
     4029      651    1         2 * CHAR(0) INIT('%2(%1.1B %)%10.10ZB  %2.1..18P%6.18ZO%10P');
     4030      652
     4031      653    1   DCL 1 L66_DU_FMT CONSTANT,
     4032      654    1         2 * CHAR(0) INIT('%2ZD: '),
     4033      655    1         2 * CHAR(0) INIT('%4(%6.6ZB %)%2.2ZB %2...30P%5.5ZB '),
     4034      656    1         2 * CHAR(0) INIT('%2.1P%3(%6.6ZB %)%5.5ZB %2.1..24P%6.6ZB %2.2ZB%10P');
     4035      657
     4036      658    1   DCL 1 ELS_FMT CONSTANT,
     4037      659    1         2 * CHAR(0) INIT('%2.ZD: '),
     4038      660    1         2 * CHAR(0) INIT('%2(%1.1B %)%5.13ZO %3(%1.1B %)%3P%4ZO '),
     4039      661    1         2 * CHAR(0) INIT('%2...28P%2(%1.1B %)%2.6ZO  '),
     4040      662    1         2 * CHAR(0) INIT('%2.1..18P%13(%1.1B %)%2.5ZO%2.1P%6.18ZO%10P');
     4041      663
     4042      664    1   DCL 1 DPSE_VU_FMT CONSTANT,
     4043      665    1         2 * CHAR(0) INIT('%2ZD: '),
     4044      666    1         2 * CHAR(0) INIT('%1.3O %2(%2.6ZO %)%1.3O %2.6ZO %4.12ZO   '),
     4045      667    1         2 * CHAR(0) INIT('%0.1.0.2P%12.34ZO-%2.1P%1.2O   '),
     4046      668    1         2 * CHAR(0) INIT('%3P%10.30ZO %1.1B %1.2O %1.3O   '),
     4047      669    1         2 * CHAR(0) INIT('%4P%4ZO   '),
     4048      670    1         2 * CHAR(0) INIT('%3.1.0.10P%4.10ZO %1.2O %5.14ZO%10P');
     4049      671
     4050      672    1   DCL 1 DPSE_CUOUDU_FMT CONSTANT,
     4051      673    1         2 * CHAR(0) INIT('%2ZD: '),
     4052      674    1         2 * CHAR(0) INIT('%12ZO %8.24ZO %4.12ZO   '),
     4053      675    1         2 * CHAR(0) INIT('%12ZO %6.18ZO %6.18ZO%10P');
     4054      676        /**/
PL6.E3A0      #003=THF$HISTORY File=THF$FORMAT.:E05TSI                           WED 07/30/97 06:15 Page:772
     4055      677        /* BASED DATA */
     4056      678    1   DCL 1 L66HR_BASED ALIGNED BASED(HR$),
     4057      679    1         2 CU (0:15) BIT(72),
     4058      680    1         2 OU (0:15) BIT(72),
     4059      681    1         2 VU (0:15),
     4060      682    1           3 OPCODE UBIN(10) UNAL,
     4061      683    1           3 * BIT(62) UNAL,
     4062      684    1         2 DU (0:15) BIT(72);
     4063      685
     4064      686    1   DCL 1 ELSHR_BASED (0:15) ALIGNED BASED(HR$),
     4065      687    1         2 * BIT(18) UNAL,
     4066      688    1         2 OPCODE UBIN(10) UNAL,
     4067      689    1         2 * BIT(44) UNAL;
     4068      690
     4069      691    1   DCL 1 DPSEHR_BASED ALIGNED BASED(HR$),
     4070      692    1          2 CU (0:63) BIT(72),
     4071      693    1          2 OUDU (0:63) BIT(72),
     4072      694    1          2 VU1 (0:63) BIT(72),
     4073      695    1          2 VU2 (0:63),
     4074      696    1            3 * BIT(36) UNAL,
     4075      697    1            3 OPCODE UBIN(10) UNAL,
     4076      698    1            3 * BIT(26) UNAL;
     4077      699        %EJECT;
PL6.E3A0      #003=THF$HISTORY File=THF$FORMAT.:E05TSI                           WED 07/30/97 06:15 Page:773
     4078      700    1           VEC_LCNT = VECTOR(LCNT);
     4079      701    1           VEC_OPCODE = VECTOR(OPCODE);
     4080      702    2           DO CASE(PROCTYPE);
     4081      703    2              CASE(%L66);
     4082      704    2                 CALL L66HIST;
     4083      705    2              CASE(%DPSE);
     4084      706    2                 CALL DPSEHIST;
     4085      707    2              CASE(%ELS1);
     4086      708    2                 CALL ELSHIST;
     4087      709    2              END;
     4088      710    1           RETURN;
     4089      711        %EJECT;
PL6.E3A0      #003=THF$HISTORY File=THF$FORMAT.:E05TSI                           WED 07/30/97 06:15 Page:774
     4090      712    1   L66HIST: PROC;
     4091      713    2           CALL THW$WRITE(VECTOR(VU_TITLE));
     4092      714    3           DO LCNT=0 TO 15;
     4093      715    3              OPCODE = 4 * L66HR_BASED.VU.OPCODE(LCNT);
     4094      716    3              CALL THW$WRITE(VECTOR(L66_VU_FMT),
     4095      717    3                             VEC_LCNT,
     4096      718    3                             VECTOR(L66HR_BASED.VU(LCNT)),
     4097      719    3                             VEC_OPCODE);
     4098      720    3              END;
     4099      721        /**/
     4100      722    2           CALL THW$WRITE(VECTOR(CU_TITLE));
     4101      723    3           DO LCNT=0 TO 15;
     4102      724    3              CALL THW$WRITE(VECTOR(L66_CU_FMT),
     4103      725    3                             VEC_LCNT,
     4104      726    3                             VECTOR(L66HR_BASED.CU(LCNT)));
     4105      727    3              END;
     4106      728        /**/
     4107      729    2           CALL THW$WRITE(VECTOR(OU_TITLE));
     4108      730    3           DO LCNT=0 TO 15;
     4109      731    3              CALL THW$WRITE(VECTOR(L66_OU_FMT),
     4110      732    3                             VEC_LCNT,
     4111      733    3                             VECTOR(L66HR_BASED.OU(LCNT)));
     4112      734    3              END;
     4113      735        /**/
     4114      736    2           CALL THW$WRITE(VECTOR(DU_TITLE));
     4115      737    3           DO LCNT=0 TO 15;
     4116      738    3              CALL THW$WRITE(VECTOR(L66_DU_FMT),
     4117      739    3                             VEC_LCNT,
     4118      740    3                             VECTOR(L66HR_BASED.DU(LCNT)));
     4119      741    3              END;
     4120      742    2           RETURN;
     4121      743    2   END L66HIST;
     4122      744        %EJECT;
PL6.E3A0      #003=THF$HISTORY File=THF$FORMAT.:E05TSI                           WED 07/30/97 06:15 Page:775
     4123      745    1   ELSHIST: PROC;
     4124      746    2           CALL THW$WRITE(VECTOR(ELS_TITLE));
     4125      747    3           DO LCNT=0 TO 15;
     4126      748    3              OPCODE = 4 * ELSHR_BASED.OPCODE(LCNT);
     4127      749    3              CALL THW$WRITE(VECTOR(ELS_FMT),
     4128      750    3                             VEC_LCNT,
     4129      751    3                             VECTOR(ELSHR_BASED(LCNT)),
     4130      752    3                             VEC_OPCODE);
     4131      753    3              END;
     4132      754    2           RETURN;
     4133      755    2   END ELSHIST;
     4134      756        %EJECT;
PL6.E3A0      #003=THF$HISTORY File=THF$FORMAT.:E05TSI                           WED 07/30/97 06:15 Page:776
     4135      757    1   DPSEHIST: PROC;
     4136      758    2           CALL THW$WRITE(VECTOR(DPSE_VU_TITLE));
     4137      759    3           DO I = 63 DOWNTO 0;
     4138      760    3              DPSEVU1HR = DPSEHR_BASED.VU1(I) \ '000770007303600000777777'O;
     4139      761    3              OPCODE = 4 * DPSEHR_BASED.VU2.OPCODE(I);
     4140      762    3              IF I = 63
     4141      763    3              THEN LCNT = 0;
     4142      764    3              ELSE LCNT = I+1;
     4143      765    3              CALL THW$WRITE(VECTOR(DPSE_VU_FMT),
     4144      766    3                             VEC_LCNT,
     4145      767    3                             VECTOR(DPSEVU1HR),
     4146      768    3                             VECTOR(DPSEHR_BASED.VU2(I)),
     4147      769    3                             VEC_OPCODE);
     4148      770    3              END;
     4149      771        /**/
     4150      772    2   NEXT_DPSE_HR:
     4151      773    2           CALL THW$WRITE(VECTOR(DPSE_CUOUDU_TITLE));
     4152      774    3           DO I = 63 DOWNTO 0;
     4153      775    3              IF I = 63
     4154      776    3              THEN LCNT = 0;
     4155      777    3              ELSE LCNT = I+1;
     4156      778    3              CALL THW$WRITE(VECTOR(DPSE_CUOUDU_FMT),
     4157      779    3                             VEC_LCNT,
     4158      780    3                             VECTOR(DPSEHR_BASED.CU(I)),
     4159      781    3                             VECTOR(DPSEHR_BASED.OUDU(I)));
     4160      782    3              END;
     4161      783    2           RETURN;
     4162      784    2   END DPSEHIST;
     4163      785    1   END THF$HISTORY;
     4164      786        %EOD;

PL6.E3A0      #003=THF$HISTORY File=THF$FORMAT.:E05TSI                           WED 07/30/97 06:15 Page:777
--  Include file information  --

   B_STRINGS_C.:E05TOU  is referenced.
   TH_SUBS_C.:E05TOU  is referenced.
   B$JIT_C.:E05TOU  was found in the system file and is never referenced.
   CP_6_C.:E05TOU  was found in the system file and is never referenced.
      No diagnostics issued in procedure THF$HISTORY.

   Procedure THF$HISTORY requires 309 words for executable code.
   Procedure THF$HISTORY requires 34 words of local(AUTO) storage.

PL6.E3A0      #003=THF$HISTORY File=THF$FORMAT.:E05TSI                           WED 07/30/97 06:15 Page:778

 Object Unit name= THF$HISTORY                                File name= THF$FORMAT.:E05TOU
 UTS= JUL 30 '97 06:15:45.60 WED                              Compiler= PL-6/E31         Sev=      00
 SharedLib= :SHARED_SYSTEM                                    Alt SharedLib=


    ****  Control sections  ****

 Sect   Type Bound  Init  Size OctSiz  Section name(segment info)
    0  RoData even  UTS    854   1526  THF$HISTORY
    1   Proc  even  none   309    465  THF$HISTORY
    2  RoData even  none    55     67  THF$HISTORY

    ****  Entry defs  ****

                              Check   Calling
                             calling  sequence
  Sect OctLoc Primary Altret sequence   type   Parms  Name
     1      0   yes            yes      Std        2  THF$HISTORY

  ****  Entry refs  ****

         Check        Calling
        calling       sequence
Altret sequence SRef   type   Args  Name
         yes           Std      11 THW$WRITE
                       nStd      0 X66_AUTO_2
                       nStd      0 X66_ARET
                       Std       0 B_CONSPOOL_D

  ****  Data refs  ****

  Flags:  r = read only, s = secondary
Flgs Name                             Flgs Name                             Flgs Name
     B_VECTNIL
PL6.E3A0      #003=THF$HISTORY File=THF$FORMAT.:E05TSI                           WED 07/30/97 06:15 Page:779

  ****  Segment refs  ****

  Flags:  r = read only, s = secondary
Flgs Name                             Flgs Name                             Flgs Name
     ISSID
PL6.E3A0      #003=THF$HISTORY File=THF$FORMAT.:E05TSI                           WED 07/30/97 06:15 Page:780


     3760        1        /*M* THF$HISTORY - FORMAT HISTORY REGS FOR ELAN PROCERR ENTRIES */
     3761        2        /*T***********************************************************/
     3762        3        /*T*                                                         */
     3763        4        /*T* Copyright (c) Bull HN Information Systems Inc., 1997    */
     3764        5        /*T*                                                         */
     3765        6        /*T***********************************************************/
     3766        7        THF$HISTORY: PROC(HR$,PROCTYPE);

      7  1 000000   000000 700200 xent  THF$HISTORY  TSX0  ! X66_AUTO_2
         1 000001   000042 000002                    ZERO    34,2

     3767        8        /**/
     3768        9        /* PARAMS */
     3769       10    1   DCL HR$ PTR;
     3770       11    1   DCL PROCTYPE UBIN;
     3771       12        /**/
     3772       13        /* INCLUDE FILES */
     3773       14        %INCLUDE TH_SUBS_C;
     3774      396        /**/
     3775      397        /* ENTRY DEFS */
     3776      398    1   DCL THW$WRITE ENTRY(11);
     3777      399        /**/
     3778      400        /* AUTO */
     3779      401    1   DCL I SBIN WORD AUTO;
     3780      402    1   DCL LCNT SBIN WORD AUTO;
     3781      403    1   DCL OPCODE UBIN;
     3782      404    1   DCL DPSEVU1HR BIT(72) DALIGNED AUTO;
     3783      405    1   DCL VEC_LCNT BIT(72) DALIGNED;
     3784      406    1   DCL VEC_OPCODE BIT(72) DALIGNED;
     3785      407        /**/
     3786      408        /* CONSTANTS */
     3787      409        /*       HISTORY REGISTER TITLES */
     3788      410    1   DCL 1 VU_TITLE CONSTANT,
     3789      411    1         2 * CHAR(0) UNAL INIT('%/  --VIRTUAL UNIT HISTORY--%/'),
     3790      412    1         2 T1,
     3791      413    1           3 * CHAR(4) UNAL INIT('    '),
PL6.E3A0      #003=THF$HISTORY File=THF$FORMAT.:E05TSI                           WED 07/30/97 06:15 Page:781
     3792      414    1           3 * CHAR(15) UNAL INIT('        F   FFW'),
     3793      415    1           3 * CHAR(15) UNAL INIT('               '),
     3794      416    1           3 * CHAR(5) UNAL INIT('F  SM'),
     3795      417    1           3 * CHAR(13) UNAL INIT(' STORE-FAULT '),
     3796      418    1           3 * CHAR(4) UNAL INIT(' P F'),
     3797      419    1           3 * CHAR(17) UNAL INIT('      DAMSEL1+3%/'),
     3798      420    1         2 T2,
     3799      421    1           3 * CHAR(4) UNAL INIT('    '),
     3800      422    1           3 * CHAR(15) UNAL INIT('      F AFF PPR'),
     3801      423    1           3 * CHAR(7) UNAL INIT('     FF'),
     3802      424    1           3 * CHAR(4) UNAL INIT('  FF'),
     3803      425    1           3 * CHAR(9) UNAL INIT('  FFV FLA'),
     3804      426    1           3 * CHAR(13) UNAL INIT(' |CMD-FAULT  '),
     3805      427    1           3 * CHAR(22) UNAL INIT(' ITE VVVV |DAMSEL2+3%/'),
     3806      428    1         2 T3,
     3807      429    1           3 * CHAR(4) UNAL INIT('    '),
     3808      430    1           3 * CHAR(11) UNAL INIT('     DA MPK'),
     3809      431    1           3 * CHAR(24) UNAL INIT(' TTP FFF CSF FXF ISU SAS'),
     3810      432    1           3 * CHAR(13) UNAL INIT(' ||VU-IPRFLT '),
     3811      433    1           3 * CHAR(21) UNAL INIT(' ARA AAAA ||VUFAULT%/'),
     3812      434    1         2 T4,
     3813      435    1           3 * CHAR(4) UNAL INIT('    '),
     3814      436    1           3 * CHAR(20) UNAL INIT('  OP FB CTT WWT VVC '),
     3815      437    1           3 * CHAR(15) UNAL INIT('LAX XID DSO SVT'),
     3816      438    1           3 * CHAR(14) UNAL INIT(' |||     REAL '),
     3817      439    1           3 * CHAR(23) UNAL INIT('VGV 2222 |||EXSEG-FLG%/'),
     3818      440    1         2 T5,
     3819      441    1           3 * CHAR(4) UNAL INIT('    '),
     3820      442    1           3 * CHAR(20) UNAL INIT('CODE AS HDW KDW 12D '),
     3821      443    1           3 * CHAR(15) UNAL INIT('RSD DDT TWP RER'),
     3822      444    1           3 * CHAR(14) UNAL INIT(' |||  ADDRESS '),
     3823      445    1           3 * CHAR(0) UNAL INIT('UOU 0123 ||||HLD-STRT%/%10P');
     3824      446
     3825      447
     3826      448    1   DCL 1 CU_TITLE CONSTANT,
     3827      449    1         2 * CHAR(0) UNAL INIT('%/  --CONTROL UNIT HISTORY--%/'),
     3828      450    1         2 T1,
PL6.E3A0      #003=THF$HISTORY File=THF$FORMAT.:E05TSI                           WED 07/30/97 06:15 Page:782
     3829      451    1           3 * CHAR(22) UNAL INIT('                      '),
     3830      452    1           3 * CHAR(1) UNAL INIT('A'),
     3831      453    1           3 * CHAR(33) UNAL INIT('                                 '),
     3832      454    1           3 * CHAR(1) UNAL INIT('I'),
     3833      455    1           3 * CHAR(7) UNAL INIT('       '),
     3834      456    1           3 * CHAR(4) UNAL INIT('D_%/'),
     3835      457    1         2 T2,
     3836      458    1           3 * CHAR(4) UNAL INIT('    '),
     3837      459    1           3 * CHAR(18) UNAL INIT('                  '),
     3838      460    1           3 * CHAR(1) UNAL INIT('R'),
     3839      461    1           3 * CHAR(4) UNAL INIT('   _'),
     3840      462    1           3 * CHAR(29) UNAL INIT('                             '),
     3841      463    1           3 * CHAR(12) UNAL INIT('NFC OCO IP%/'),
     3842      464    1         2 T3,
     3843      465    1           3 * CHAR(4) UNAL INIT('    '),
     3844      466    1           3 * CHAR(10) UNAL INIT('          '),
     3845      467    1           3 * CHAR(1) UNAL INIT('T'),
     3846      468    1           3 * CHAR(5) UNAL INIT('     '),
     3847      469    1           3 * CHAR(7) UNAL INIT('R | __B'),
     3848      470    1           3 * CHAR(29) UNAL INIT('                             '),
     3849      471    1           3 * CHAR(13) UNAL INIT('TEU UUU RCB%/'),
     3850      472    1         2 T4,
     3851      473    1           3 * CHAR(4) UNAL INIT('    '),
     3852      474    1           3 * CHAR(23) UNAL INIT('PPR SPP RSR XX  P F XFA'),
     3853      475    1           3 * CHAR(29) UNAL INIT('                             '),
     3854      476    1           3 * CHAR(13) UNAL INIT('XTS SLL EBU%/'),
     3855      477    1         2 T5,
     3856      478    1           3 * CHAR(4) UNAL INIT('    '),
     3857      479    1           3 * CHAR(27) UNAL INIT('IOI IOO AAG DDI TW/ ILS  OP'),
     3858      480    1           3 * CHAR(15) UNAL INIT('               '),
     3859      481    1           3 * CHAR(23) UNAL INIT('CMD  PORT ECT TOO CSS%/'),
     3860      482    1         2 T6,
     3861      483    1           3 * CHAR(4) UNAL INIT('    '),
     3862      484    1           3 * CHAR(33) UNAL INIT('AAW WTN WWO EOC SIE PTE CODE TAG '),
     3863      485    1           3 * CHAR(0) UNAL INIT('ADDREG  ABCDE ABCD CHR RDD TYY%/%10P');
     3864      486
     3865      487    1   DCL 1 OU_TITLE CONSTANT,
PL6.E3A0      #003=THF$HISTORY File=THF$FORMAT.:E05TSI                           WED 07/30/97 06:15 Page:783
     3866      488    1         2 * CHAR(0) UNAL INIT('%/  --OPERATIONS UNIT HISTORY--%/'),
     3867      489    1         2 T1,
     3868      490    1           3 * CHAR(4) UNAL INIT('    '),
     3869      491    1           3 * CHAR(11) UNAL INIT('           '),
     3870      492    1           3 * CHAR(9) UNAL INIT('CD -LREG/'),
     3871      493    1           3 * CHAR(6) UNAL INIT('   RRR'),
     3872      494    1           3 * CHAR(13) UNAL INIT('             '),
     3873      495    1           3 * CHAR(6) UNAL INIT('S _   '),
     3874      496    1           3 * CHAR(10) UNAL INIT('REGISTER%/'),
     3875      497    1         2 T2,
     3876      498    1           3 * CHAR(4) UNAL INIT('    '),
     3877      499    1           3 * CHAR(11) UNAL INIT('     9     '),
     3878      500    1           3 * CHAR(8) UNAL INIT('RR -SREG'),
     3879      501    1           3 * CHAR(7) UNAL INIT('    BPS'),
     3880      502    1           3 * CHAR(16) UNAL INIT(' FFF FFG FFF T D'),
     3881      503    1           3 * CHAR(13) UNAL INIT('      USAGE%/'),
     3882      504    1         2 T3,
     3883      505    1           3 * CHAR(4) UNAL INIT('    '),
     3884      506    1           3 * CHAR(11) UNAL INIT('     B     '),
     3885      507    1           3 * CHAR(12) UNAL INIT('FF |----    '),
     3886      508    1           3 * CHAR(19) UNAL INIT('FFF GGG GGF GGG R A'),
     3887      509    1           3 * CHAR(13) UNAL INIT('   ________%/'),
     3888      510    1         2 T4,
     3889      511    1           3 * CHAR(4) UNAL INIT('    '),
     3890      512    1           3 * CHAR(15) UNAL INIT('  RP I TAG LL |'),
     3891      513    1           3 * CHAR(8) UNAL INIT('     RS '),
     3892      514    1           3 * CHAR(19) UNAL INIT('UUU IOD DOO OOO A T'),
     3893      515    1           3 * CHAR(19) UNAL INIT(' __XXXXXXXX  ICT%/'),
     3894      516    1         2 T5,
     3895      517    1           3 * CHAR(3) UNAL INIT('   '),
     3896      518    1           3 * CHAR(23) UNAL INIT('CODE T 345 GG CTR CODE '),
     3897      519    1           3 * CHAR(30) UNAL INIT('LLL NS1 2EA MNF V A AQ01234567'),
     3898      520    1           3 * CHAR(0) UNAL INIT('  TRACK%/%10P');
     3899      521
     3900      522    1   DCL 1 DU_TITLE CONSTANT,
     3901      523    1         2 * CHAR(0) UNAL INIT('%/  --DECIMAL UNIT HISTORY--%/'),
     3902      524    1         2 T1,
PL6.E3A0      #003=THF$HISTORY File=THF$FORMAT.:E05TSI                           WED 07/30/97 06:15 Page:784
     3903      525    1           3 * CHAR(4) UNAL INIT('    '),
     3904      526    1           3 * CHAR(20) UNAL INIT('  NS     DD    DDRPP'),
     3905      527    1           3 * CHAR(16) UNAL INIT('     N  F   FAII'),
     3906      528    1           3 * CHAR(14) UNAL INIT('     N  N   LL'),
     3907      529    1           3 * CHAR(24) UNAL INIT(' DWG  E L A B DDDFFA D%/'),
     3908      530    1         2 T2,
     3909      531    1           3 * CHAR(4) UNAL INIT('    '),
     3910      532    1           3 * CHAR(20) UNAL INIT('  EE D  DDDD  EEEDTT'),
     3911      533    1           3 * CHAR(16) UNAL INIT(' FFFWIS OB SRDNN'),
     3912      534    1           3 * CHAR(21) UNAL INIT(' DGGGLG LGAADD ARSASN'),
     3913      535    1           3 * CHAR(17) UNAL INIT(' EGNEL GGGLRD M%/'),
     3914      536    1         2 T3,
     3915      537    1           3 * CHAR(4) UNAL INIT('    '),
     3916      538    1           3 * CHAR(20) UNAL INIT('FFELDF FLUURD XNN+RR'),
     3917      539    1           3 * CHAR(23) UNAL INIT(' AAARNI UI ASJTS UDDDDL'),
     3918      540    1           3 * CHAR(32) UNAL INIT(' DLNNWW TTTNTD NCPXN BDSTND PD%/'),
     3919      541    1         2 T4,
     3920      542    1           3 * CHAR(4) UNAL INIT('    '),
     3921      543    1           3 * CHAR(20) UNAL INIT('PPDALR EALSEL HDDWAA'),
     3922      544    1           3 * CHAR(23) UNAL INIT(' ///DEX RT MTLRT DLLLPD'),
     3923      545    1           3 * CHAR(32) UNAL INIT(' 2DLLRR AIRSRS 1HKMK DBPGDG +X%/'),
     3924      546    1         2 T5,
     3925      547    1           3 * CHAR(4) UNAL INIT('    '),
     3926      548    1           3 * CHAR(20) UNAL INIT('OODDES XSDTDV BSIR00'),
     3927      549    1           3 * CHAR(23) UNAL INIT(' IIIBBB BB PCEPC DDDDDP'),
     3928      550    1           3 * CHAR(32) UNAL INIT(' DPDDTT ADDTOE 2DDOD DPDDDA DP%/'),
     3929      551    1         2 T6,
     3930      552    1           3 * CHAR(4) UNAL INIT('    '),
     3931      553    1           3 * CHAR(20) UNAL INIT('LPRRNT RTEROL GQST01'),
     3932      554    1           3 * CHAR(23) UNAL INIT(' 123DDD DD LTNT1 GABCP1'),
     3933      555    1           3 * CHAR(0) UNAL INIT(' P21212 VPPRPG 8PPPP CCCCGT VN%/%10P');
     3934      556
     3935      557    1   DCL 1 ELS_TITLE CONSTANT,
     3936      558    1         2 * CHAR(0) INIT('%/  --HISTORY REGISTERS--%/'),
     3937      559    1         2 T1,
     3938      560    1           3 * CHAR(31) UNAL INIT(' '),
     3939      561    1           3 * CHAR(0) UNAL INIT('FIRST C-CYCLE'),
PL6.E3A0      #003=THF$HISTORY File=THF$FORMAT.:E05TSI                           WED 07/30/97 06:15 Page:785
     3940      562    1           3 * CHAR(0) UNAL INIT(' PAGING%/'),
     3941      563    1         2 T2,
     3942      564    1           3 * CHAR(33) UNAL INIT(' '),
     3943      565    1           3 * CHAR(0) UNAL INIT('IC BIT 17 |'),
     3944      566    1           3 * CHAR(0) UNAL INIT(' | PTW RE-WRITE%/'),
     3945      567    1         2 T3,
     3946      568    1           3 * CHAR(0) UNAL INIT('    FORCE ECS OUTPUT NOP'),
     3947      569    1           3 * CHAR(6) UNAL INIT(' '),
     3948      570    1           3 * CHAR(0) UNAL INIT('INST FETCH | |'),
     3949      571    1           3 * CHAR(0) UNAL INIT(' | | PRE-PAGE SEQUENCE%/'),
     3950      572    1         2 T4,
     3951      573    1           3 * CHAR(0) UNAL INIT('    | MICRO STEP END'),
     3952      574    1           3 * CHAR(7) UNAL INIT(' '),
     3953      575    1           3 * CHAR(0) UNAL INIT('DIRECT OPER | | |'),
     3954      576    1           3 * CHAR(0) UNAL INIT(' | | | RETRY%/'),
     3955      577    1         2 T5,
     3956      578    1           3 * CHAR(0) UNAL INIT('    | |'),
     3957      579    1           3 * CHAR(16) UNAL INIT(' '),
     3958      580    1           3 * CHAR(0) UNAL INIT('DW MEM ACCESS | | | |'),
     3959      581    1           3 * CHAR(0) UNAL INIT(' | | | | PORT BUSY%/'),
     3960      582    1         2 T6 CHAR(0) INIT('%4X| |%14XSTORE COMMAND %10(| %)CACHE BLOCK LOAD REQ%/'),
     3961      583    1         2 T7,
     3962      584    1           3 * CHAR(0) UNAL INIT('    | |'),
     3963      585    1           3 * CHAR(7) UNAL INIT(' '),
     3964      586    1           3 * CHAR(0) UNAL INIT('HEALS RETRY FLAG   | | | | | |'),
     3965      587    1           3 * CHAR(0) UNAL INIT(' | | | | | | BYPASS READ%/'),
     3966      588    1         2 T8,
     3967      589    1           3 * CHAR(0) UNAL INIT('    | |'),
     3968      590    1           3 * CHAR(7) UNAL INIT(' '),
     3969      591    1           3 * CHAR(0) UNAL INIT('| PREP OPER ADDR   | | | | | |'),
     3970      592    1           3 * CHAR(0) UNAL INIT(' | | | | | | |%/'),
     3971      593    1         2 T9,
     3972      594    1           3 * CHAR(0) UNAL INIT('    | |'),
     3973      595    1           3 * CHAR(7) UNAL INIT(' '),
     3974      596    1           3 * CHAR(0) UNAL INIT('| | PREP INST ADDR | | | | F |'),
     3975      597    1           3 * CHAR(0) UNAL INIT(' | | | | | F F%/'),
     3976      598    1         2 T10,
PL6.E3A0      #003=THF$HISTORY File=THF$FORMAT.:E05TSI                           WED 07/30/97 06:15 Page:786
     3977      599    1           3 * CHAR(0) UNAL INIT('    | |'),
     3978      600    1           3 * CHAR(7) UNAL INIT(' '),
     3979      601    1           3 * CHAR(0) UNAL INIT('H | |'),
     3980      602    1           3 * CHAR(14) UNAL INIT(' '),
     3981      603    1           3 * CHAR(0) UNAL INIT('F F F D I S'),
     3982      604    1           3 * CHAR(0) UNAL INIT(' | F | F | B B%/'),
     3983      605    1         2 T11,
     3984      606    1           3 * CHAR(0) UNAL INIT('    D c'),
     3985      607    1           3 * CHAR(7) UNAL INIT(' '),
     3986      608    1           3 * CHAR(0) UNAL INIT('E D F'),
     3987      609    1           3 * CHAR(14) UNAL INIT(' '),
     3988      610    1           3 * CHAR(0) UNAL INIT('S D D P C P'),
     3989      611    1           3 * CHAR(0) UNAL INIT(' D W D R D L Y%/'),
     3990      612    1         2 T12,
     3991      613    1           3 * CHAR(0) UNAL INIT('    I E'),
     3992      614    1           3 * CHAR(7) UNAL INIT(' '),
     3993      615    1           3 * CHAR(0) UNAL INIT('A P P      I       '),
     3994      616    1           3 * CHAR(0) UNAL INIT('T B I I 1 O'),
     3995      617    1           3 * CHAR(0) UNAL INIT(' P P P T B K P%/'),
     3996      618    1         2 T13,
     3997      619    1           3 * CHAR(0) UNAL INIT('    D N   ECS '),
     3998      620    1           3 * CHAR(0) UNAL INIT('L O I  OP  N A     '),
     3999      621    1           3 * CHAR(0) UNAL INIT('R L R A 7 A'),
     4000      622    1           3 * CHAR(0) UNAL INIT(' G T P R S L R    REAL%/'),
     4001      623    1         2 T14,
     4002      624    1           3 * CHAR(0) UNAL INIT('    L D  ADDR '),
     4003      625    1           3 * CHAR(0) UNAL INIT('S A A CODE H R TAG '),
     4004      626    1           3 * CHAR(0) UNAL INIT('C C C C C C'),
     4005      627    1           3 * CHAR(0) UNAL INIT(' F W G Y Y D D  ADDRESS%/%10P');
     4006      628
     4007      629    1   DCL 1 DPSE_VU_TITLE CONSTANT,
     4008      630    1         2 * CHAR(0) INIT('%/  --VIRTUAL UNIT HISTORY REGISTERS--%/%10P');
     4009      631    1   DCL 1 DPSE_CUOUDU_TITLE CONSTANT,
     4010      632    1         2 * CHAR(0) INIT(
               632                  '%/  --CONTROL, OPERATIONS, AND DECIMAL UNIT HISTORY REGISTERS--%/%10P');
     4011      633
     4012      634
PL6.E3A0      #003=THF$HISTORY File=THF$FORMAT.:E05TSI                           WED 07/30/97 06:15 Page:787
     4013      635                                                /*  OUTPUT LINE FORMATS               */
     4014      636
     4015      637    1   DCL 1 L66_VU_FMT CONSTANT,
     4016      638    1         2 * CHAR(0) INIT('%2ZD: '),
     4017      639    1         2 * CHAR(0) INIT('%3P%4ZO %2...10P%2.2ZB %8(%3.3ZB %)'),
     4018      640    1         2 * CHAR(0) INIT('%8.24ZO %3.3ZB %4.4ZB %5.5ZB%10P');
     4019      641
     4020      642    1   DCL 1 L66_CU_FMT CONSTANT,
     4021      643    1         2 * CHAR(0) INIT('%2ZD: '),
     4022      644    1         2 * CHAR(0) INIT('%6(%3.3ZB %)%4.12ZO %2.6ZO  '),
     4023      645    1         2 * CHAR(0) INIT('%6.18ZO  %5.5ZB %4.4ZB %3(%3.3ZB %)%10P');
     4024      646
     4025      647    1   DCL 1 L66_OU_FMT CONSTANT,
     4026      648    1         2 * CHAR(0) INIT('%2ZD:  '),
     4027      649    1         2 * CHAR(0) INIT('%3.9ZO %1.1B %3.3ZB %1.1B%1.1B  %2.2ZB  '),
     4028      650    1         2 * CHAR(0) INIT('%2...18P%3.9ZO %4(%3.3ZB %)'),
     4029      651    1         2 * CHAR(0) INIT('%2(%1.1B %)%10.10ZB  %2.1..18P%6.18ZO%10P');
     4030      652
     4031      653    1   DCL 1 L66_DU_FMT CONSTANT,
     4032      654    1         2 * CHAR(0) INIT('%2ZD: '),
     4033      655    1         2 * CHAR(0) INIT('%4(%6.6ZB %)%2.2ZB %2...30P%5.5ZB '),
     4034      656    1         2 * CHAR(0) INIT('%2.1P%3(%6.6ZB %)%5.5ZB %2.1..24P%6.6ZB %2.2ZB%10P');
     4035      657
     4036      658    1   DCL 1 ELS_FMT CONSTANT,
     4037      659    1         2 * CHAR(0) INIT('%2.ZD: '),
     4038      660    1         2 * CHAR(0) INIT('%2(%1.1B %)%5.13ZO %3(%1.1B %)%3P%4ZO '),
     4039      661    1         2 * CHAR(0) INIT('%2...28P%2(%1.1B %)%2.6ZO  '),
     4040      662    1         2 * CHAR(0) INIT('%2.1..18P%13(%1.1B %)%2.5ZO%2.1P%6.18ZO%10P');
     4041      663
     4042      664    1   DCL 1 DPSE_VU_FMT CONSTANT,
     4043      665    1         2 * CHAR(0) INIT('%2ZD: '),
     4044      666    1         2 * CHAR(0) INIT('%1.3O %2(%2.6ZO %)%1.3O %2.6ZO %4.12ZO   '),
     4045      667    1         2 * CHAR(0) INIT('%0.1.0.2P%12.34ZO-%2.1P%1.2O   '),
     4046      668    1         2 * CHAR(0) INIT('%3P%10.30ZO %1.1B %1.2O %1.3O   '),
     4047      669    1         2 * CHAR(0) INIT('%4P%4ZO   '),
     4048      670    1         2 * CHAR(0) INIT('%3.1.0.10P%4.10ZO %1.2O %5.14ZO%10P');
     4049      671
PL6.E3A0      #003=THF$HISTORY File=THF$FORMAT.:E05TSI                           WED 07/30/97 06:15 Page:788
     4050      672    1   DCL 1 DPSE_CUOUDU_FMT CONSTANT,
     4051      673    1         2 * CHAR(0) INIT('%2ZD: '),
     4052      674    1         2 * CHAR(0) INIT('%12ZO %8.24ZO %4.12ZO   '),
     4053      675    1         2 * CHAR(0) INIT('%12ZO %6.18ZO %6.18ZO%10P');
     4054      676        /**/
     4055      677        /* BASED DATA */
     4056      678    1   DCL 1 L66HR_BASED ALIGNED BASED(HR$),
     4057      679    1         2 CU (0:15) BIT(72),
     4058      680    1         2 OU (0:15) BIT(72),
     4059      681    1         2 VU (0:15),
     4060      682    1           3 OPCODE UBIN(10) UNAL,
     4061      683    1           3 * BIT(62) UNAL,
     4062      684    1         2 DU (0:15) BIT(72);
     4063      685
     4064      686    1   DCL 1 ELSHR_BASED (0:15) ALIGNED BASED(HR$),
     4065      687    1         2 * BIT(18) UNAL,
     4066      688    1         2 OPCODE UBIN(10) UNAL,
     4067      689    1         2 * BIT(44) UNAL;
     4068      690
     4069      691    1   DCL 1 DPSEHR_BASED ALIGNED BASED(HR$),
     4070      692    1          2 CU (0:63) BIT(72),
     4071      693    1          2 OUDU (0:63) BIT(72),
     4072      694    1          2 VU1 (0:63) BIT(72),
     4073      695    1          2 VU2 (0:63),
     4074      696    1            3 * BIT(36) UNAL,
     4075      697    1            3 OPCODE UBIN(10) UNAL,
     4076      698    1            3 * BIT(26) UNAL;
     4077      699        %EJECT;
PL6.E3A0      #003=THF$HISTORY File=THF$FORMAT.:E05TSI                           WED 07/30/97 06:15 Page:789
     4078      700    1           VEC_LCNT = VECTOR(LCNT);

    700  1 000002   777640 235007                    LDA     -96,DL
         1 000003   200020 452500                    STP2    VEC_OPCODE+4,,AUTO
         1 000004   200020 236100                    LDQ     VEC_OPCODE+4,,AUTO
         1 000005   000006 036003                    ADLQ    6,DU
         1 000006   200012 757100                    STAQ    VEC_LCNT,,AUTO

     4079      701    1           VEC_OPCODE = VECTOR(OPCODE);

    701  1 000007   777640 235007                    LDA     -96,DL
         1 000010   200020 452500                    STP2    VEC_OPCODE+4,,AUTO
         1 000011   200020 236100                    LDQ     VEC_OPCODE+4,,AUTO
         1 000012   000007 036003                    ADLQ    7,DU
         1 000013   200014 757100                    STAQ    VEC_OPCODE,,AUTO

     4080      702    2           DO CASE(PROCTYPE);

    702  1 000014   200004 470500                    LDP0    @PROCTYPE,,AUTO
         1 000015   000000 235100                    LDA     0,,PR0
         1 000016   000003 115007                    CMPA    3,DL
         1 000017   000021 602005 1                  TNC     s:702+5,AL
         1 000020   000034 710000 1                  TRA     s:710
         1 000021   000024 710000 1                  TRA     s:704
         1 000022   000027 710000 1                  TRA     s:706
         1 000023   000032 710000 1                  TRA     s:708

     4081      703    2              CASE(%L66);

     4082      704    2                 CALL L66HIST;

    704  1 000024   000035 701000 1                  TSX1    L66HIST
         1 000025   000000 011000                    NOP     0
         1 000026   000034 710000 1                  TRA     s:710

     4083      705    2              CASE(%DPSE);

PL6.E3A0      #003=THF$HISTORY File=THF$FORMAT.:E05TSI                           WED 07/30/97 06:15 Page:790
     4084      706    2                 CALL DPSEHIST;

    706  1 000027   000301 701000 1                  TSX1    DPSEHIST
         1 000030   000000 011000                    NOP     0
         1 000031   000034 710000 1                  TRA     s:710

     4085      707    2              CASE(%ELS1);

     4086      708    2                 CALL ELSHIST;

    708  1 000032   000231 701000 1                  TSX1    ELSHIST
         1 000033   000000 011000                    NOP     0

     4087      709    2              END;

     4088      710    1           RETURN;

    710  1 000034   000000 702200 xent               TSX2  ! X66_ARET

     4089      711        %EJECT;
PL6.E3A0      #003=THF$HISTORY File=THF$FORMAT.:E05TSI                           WED 07/30/97 06:15 Page:791
     4090      712    1   L66HIST: PROC;

    712  1 000035   200016 741300       L66HIST      STX1  ! VEC_OPCODE+2,,AUTO

     4091      713    2           CALL THW$WRITE(VECTOR(VU_TITLE));

    713  1 000036   000002 630400 2                  EPPR0   2
         1 000037   000017 631400 xsym               EPPR1   B_VECTNIL+15
         1 000040   000000 701000 xent               TSX1    THW$WRITE
         1 000041   000000 011000                    NOP     0

     4092      714    3           DO LCNT=0 TO 15;

    714  1 000042   200006 450100                    STZ     LCNT,,AUTO

     4093      715    3              OPCODE = 4 * L66HR_BASED.VU.OPCODE(LCNT);

    715  1 000043   200003 470500                    LDP0    @HR$,,AUTO
         1 000044   000000 471500                    LDP1    0,,PR0
         1 000045   200006 235100                    LDA     LCNT,,AUTO
         1 000046   000001 735000                    ALS     1
         1 000047   100100 236105                    LDQ     64,AL,PR1
         1 000050   000030 772000                    QRL     24
         1 000051   007774 376007                    ANQ     4092,DL
         1 000052   200007 756100                    STQ     OPCODE,,AUTO

     4094      716    3              CALL THW$WRITE(VECTOR(L66_VU_FMT),

    716  1 000053   000000 471500                    LDP1    0,,PR0
         1 000054   000006 235000 2                  LDA     6
         1 000055   200006 236100                    LDQ     LCNT,,AUTO
         1 000056   000001 736000                    QLS     1
         1 000057   100100 633506                    EPPR3   64,QL,PR1
         1 000060   200020 453500                    STP3    VEC_OPCODE+4,,AUTO
         1 000061   200020 236100                    LDQ     VEC_OPCODE+4,,AUTO
         1 000062   200022 757100                    STAQ    VEC_OPCODE+6,,AUTO
         1 000063   200014 631500                    EPPR1   VEC_OPCODE,,AUTO
PL6.E3A0      #003=THF$HISTORY File=THF$FORMAT.:E05TSI                           WED 07/30/97 06:15 Page:792
         1 000064   200027 451500                    STP1    VEC_OPCODE+11,,AUTO
         1 000065   200022 634500                    EPPR4   VEC_OPCODE+6,,AUTO
         1 000066   200026 454500                    STP4    VEC_OPCODE+10,,AUTO
         1 000067   200012 635500                    EPPR5   VEC_LCNT,,AUTO
         1 000070   200025 455500                    STP5    VEC_OPCODE+9,,AUTO
         1 000071   000007 236000 2                  LDQ     7
         1 000072   200024 756100                    STQ     VEC_OPCODE+8,,AUTO
         1 000073   200024 630500                    EPPR0   VEC_OPCODE+8,,AUTO
         1 000074   000022 631400 xsym               EPPR1   B_VECTNIL+18
         1 000075   000000 701000 xent               TSX1    THW$WRITE
         1 000076   000000 011000                    NOP     0

     4095      717    3                             VEC_LCNT,
     4096      718    3                             VECTOR(L66HR_BASED.VU(LCNT)),
     4097      719    3                             VEC_OPCODE);
     4098      720    3              END;

    720  1 000077   200006 054100                    AOS     LCNT,,AUTO
         1 000100   200006 235100                    LDA     LCNT,,AUTO
         1 000101   000017 115007                    CMPA    15,DL
         1 000102   000043 604400 1                  TMOZ    s:715

     4099      721        /**/
     4100      722    2           CALL THW$WRITE(VECTOR(CU_TITLE));

    722  1 000103   000012 630400 2                  EPPR0   10
         1 000104   000017 631400 xsym               EPPR1   B_VECTNIL+15
         1 000105   000000 701000 xent               TSX1    THW$WRITE
         1 000106   000000 011000                    NOP     0

     4101      723    3           DO LCNT=0 TO 15;

    723  1 000107   200006 450100                    STZ     LCNT,,AUTO

     4102      724    3              CALL THW$WRITE(VECTOR(L66_CU_FMT),

    724  1 000110   200003 470500                    LDP0    @HR$,,AUTO
PL6.E3A0      #003=THF$HISTORY File=THF$FORMAT.:E05TSI                           WED 07/30/97 06:15 Page:793
         1 000111   000000 471500                    LDP1    0,,PR0
         1 000112   000006 235000 2                  LDA     6
         1 000113   200006 236100                    LDQ     LCNT,,AUTO
         1 000114   000001 736000                    QLS     1
         1 000115   100000 633506                    EPPR3   0,QL,PR1
         1 000116   200020 453500                    STP3    VEC_OPCODE+4,,AUTO
         1 000117   200020 236100                    LDQ     VEC_OPCODE+4,,AUTO
         1 000120   200022 757100                    STAQ    VEC_OPCODE+6,,AUTO
         1 000121   200022 631500                    EPPR1   VEC_OPCODE+6,,AUTO
         1 000122   200026 451500                    STP1    VEC_OPCODE+10,,AUTO
         1 000123   200012 634500                    EPPR4   VEC_LCNT,,AUTO
         1 000124   200025 454500                    STP4    VEC_OPCODE+9,,AUTO
         1 000125   000016 236000 2                  LDQ     14
         1 000126   200024 756100                    STQ     VEC_OPCODE+8,,AUTO
         1 000127   200024 630500                    EPPR0   VEC_OPCODE+8,,AUTO
         1 000130   000021 631400 xsym               EPPR1   B_VECTNIL+17
         1 000131   000000 701000 xent               TSX1    THW$WRITE
         1 000132   000000 011000                    NOP     0

     4103      725    3                             VEC_LCNT,
     4104      726    3                             VECTOR(L66HR_BASED.CU(LCNT)));
     4105      727    3              END;

    727  1 000133   200006 054100                    AOS     LCNT,,AUTO
         1 000134   200006 235100                    LDA     LCNT,,AUTO
         1 000135   000017 115007                    CMPA    15,DL
         1 000136   000110 604400 1                  TMOZ    s:724

     4106      728        /**/
     4107      729    2           CALL THW$WRITE(VECTOR(OU_TITLE));

    729  1 000137   000022 630400 2                  EPPR0   18
         1 000140   000017 631400 xsym               EPPR1   B_VECTNIL+15
         1 000141   000000 701000 xent               TSX1    THW$WRITE
         1 000142   000000 011000                    NOP     0

     4108      730    3           DO LCNT=0 TO 15;
PL6.E3A0      #003=THF$HISTORY File=THF$FORMAT.:E05TSI                           WED 07/30/97 06:15 Page:794

    730  1 000143   200006 450100                    STZ     LCNT,,AUTO

     4109      731    3              CALL THW$WRITE(VECTOR(L66_OU_FMT),

    731  1 000144   200003 470500                    LDP0    @HR$,,AUTO
         1 000145   000000 471500                    LDP1    0,,PR0
         1 000146   000006 235000 2                  LDA     6
         1 000147   200006 236100                    LDQ     LCNT,,AUTO
         1 000150   000001 736000                    QLS     1
         1 000151   100040 633506                    EPPR3   32,QL,PR1
         1 000152   200020 453500                    STP3    VEC_OPCODE+4,,AUTO
         1 000153   200020 236100                    LDQ     VEC_OPCODE+4,,AUTO
         1 000154   200022 757100                    STAQ    VEC_OPCODE+6,,AUTO
         1 000155   200022 631500                    EPPR1   VEC_OPCODE+6,,AUTO
         1 000156   200026 451500                    STP1    VEC_OPCODE+10,,AUTO
         1 000157   200012 634500                    EPPR4   VEC_LCNT,,AUTO
         1 000160   200025 454500                    STP4    VEC_OPCODE+9,,AUTO
         1 000161   000026 236000 2                  LDQ     22
         1 000162   200024 756100                    STQ     VEC_OPCODE+8,,AUTO
         1 000163   200024 630500                    EPPR0   VEC_OPCODE+8,,AUTO
         1 000164   000021 631400 xsym               EPPR1   B_VECTNIL+17
         1 000165   000000 701000 xent               TSX1    THW$WRITE
         1 000166   000000 011000                    NOP     0

     4110      732    3                             VEC_LCNT,
     4111      733    3                             VECTOR(L66HR_BASED.OU(LCNT)));
     4112      734    3              END;

    734  1 000167   200006 054100                    AOS     LCNT,,AUTO
         1 000170   200006 235100                    LDA     LCNT,,AUTO
         1 000171   000017 115007                    CMPA    15,DL
         1 000172   000144 604400 1                  TMOZ    s:731

     4113      735        /**/
     4114      736    2           CALL THW$WRITE(VECTOR(DU_TITLE));

PL6.E3A0      #003=THF$HISTORY File=THF$FORMAT.:E05TSI                           WED 07/30/97 06:15 Page:795
    736  1 000173   000032 630400 2                  EPPR0   26
         1 000174   000017 631400 xsym               EPPR1   B_VECTNIL+15
         1 000175   000000 701000 xent               TSX1    THW$WRITE
         1 000176   000000 011000                    NOP     0

     4115      737    3           DO LCNT=0 TO 15;

    737  1 000177   200006 450100                    STZ     LCNT,,AUTO

     4116      738    3              CALL THW$WRITE(VECTOR(L66_DU_FMT),

    738  1 000200   200003 470500                    LDP0    @HR$,,AUTO
         1 000201   000000 471500                    LDP1    0,,PR0
         1 000202   000006 235000 2                  LDA     6
         1 000203   200006 236100                    LDQ     LCNT,,AUTO
         1 000204   000001 736000                    QLS     1
         1 000205   100140 633506                    EPPR3   96,QL,PR1
         1 000206   200020 453500                    STP3    VEC_OPCODE+4,,AUTO
         1 000207   200020 236100                    LDQ     VEC_OPCODE+4,,AUTO
         1 000210   200022 757100                    STAQ    VEC_OPCODE+6,,AUTO
         1 000211   200022 631500                    EPPR1   VEC_OPCODE+6,,AUTO
         1 000212   200026 451500                    STP1    VEC_OPCODE+10,,AUTO
         1 000213   200012 634500                    EPPR4   VEC_LCNT,,AUTO
         1 000214   200025 454500                    STP4    VEC_OPCODE+9,,AUTO
         1 000215   000036 236000 2                  LDQ     30
         1 000216   200024 756100                    STQ     VEC_OPCODE+8,,AUTO
         1 000217   200024 630500                    EPPR0   VEC_OPCODE+8,,AUTO
         1 000220   000021 631400 xsym               EPPR1   B_VECTNIL+17
         1 000221   000000 701000 xent               TSX1    THW$WRITE
         1 000222   000000 011000                    NOP     0

     4117      739    3                             VEC_LCNT,
     4118      740    3                             VECTOR(L66HR_BASED.DU(LCNT)));
     4119      741    3              END;

    741  1 000223   200006 054100                    AOS     LCNT,,AUTO
         1 000224   200006 235100                    LDA     LCNT,,AUTO
PL6.E3A0      #003=THF$HISTORY File=THF$FORMAT.:E05TSI                           WED 07/30/97 06:15 Page:796
         1 000225   000017 115007                    CMPA    15,DL
         1 000226   000200 604400 1                  TMOZ    s:738

     4120      742    2           RETURN;

    742  1 000227   200016 221300                    LDX1  ! VEC_OPCODE+2,,AUTO
         1 000230   000001 702211                    TSX2  ! 1,X1

     4121      743    2   END L66HIST;
     4122      744        %EJECT;
PL6.E3A0      #003=THF$HISTORY File=THF$FORMAT.:E05TSI                           WED 07/30/97 06:15 Page:797
     4123      745    1   ELSHIST: PROC;

    745  1 000231   200016 741300       ELSHIST      STX1  ! VEC_OPCODE+2,,AUTO

     4124      746    2           CALL THW$WRITE(VECTOR(ELS_TITLE));

    746  1 000232   000042 630400 2                  EPPR0   34
         1 000233   000017 631400 xsym               EPPR1   B_VECTNIL+15
         1 000234   000000 701000 xent               TSX1    THW$WRITE
         1 000235   000000 011000                    NOP     0

     4125      747    3           DO LCNT=0 TO 15;

    747  1 000236   200006 450100                    STZ     LCNT,,AUTO

     4126      748    3              OPCODE = 4 * ELSHR_BASED.OPCODE(LCNT);

    748  1 000237   200003 470500                    LDP0    @HR$,,AUTO
         1 000240   000000 471500                    LDP1    0,,PR0
         1 000241   200006 235100                    LDA     LCNT,,AUTO
         1 000242   000001 735000                    ALS     1
         1 000243   100000 236105                    LDQ     0,AL,PR1
         1 000244   000006 772000                    QRL     6
         1 000245   007774 376007                    ANQ     4092,DL
         1 000246   200007 756100                    STQ     OPCODE,,AUTO

     4127      749    3              CALL THW$WRITE(VECTOR(ELS_FMT),

    749  1 000247   000000 471500                    LDP1    0,,PR0
         1 000250   000006 235000 2                  LDA     6
         1 000251   200006 236100                    LDQ     LCNT,,AUTO
         1 000252   000001 736000                    QLS     1
         1 000253   100000 633506                    EPPR3   0,QL,PR1
         1 000254   200020 453500                    STP3    VEC_OPCODE+4,,AUTO
         1 000255   200020 236100                    LDQ     VEC_OPCODE+4,,AUTO
         1 000256   200022 757100                    STAQ    VEC_OPCODE+6,,AUTO
         1 000257   200014 631500                    EPPR1   VEC_OPCODE,,AUTO
PL6.E3A0      #003=THF$HISTORY File=THF$FORMAT.:E05TSI                           WED 07/30/97 06:15 Page:798
         1 000260   200027 451500                    STP1    VEC_OPCODE+11,,AUTO
         1 000261   200022 634500                    EPPR4   VEC_OPCODE+6,,AUTO
         1 000262   200026 454500                    STP4    VEC_OPCODE+10,,AUTO
         1 000263   200012 635500                    EPPR5   VEC_LCNT,,AUTO
         1 000264   200025 455500                    STP5    VEC_OPCODE+9,,AUTO
         1 000265   000046 236000 2                  LDQ     38
         1 000266   200024 756100                    STQ     VEC_OPCODE+8,,AUTO
         1 000267   200024 630500                    EPPR0   VEC_OPCODE+8,,AUTO
         1 000270   000022 631400 xsym               EPPR1   B_VECTNIL+18
         1 000271   000000 701000 xent               TSX1    THW$WRITE
         1 000272   000000 011000                    NOP     0

     4128      750    3                             VEC_LCNT,
     4129      751    3                             VECTOR(ELSHR_BASED(LCNT)),
     4130      752    3                             VEC_OPCODE);
     4131      753    3              END;

    753  1 000273   200006 054100                    AOS     LCNT,,AUTO
         1 000274   200006 235100                    LDA     LCNT,,AUTO
         1 000275   000017 115007                    CMPA    15,DL
         1 000276   000237 604400 1                  TMOZ    s:748

     4132      754    2           RETURN;

    754  1 000277   200016 221300                    LDX1  ! VEC_OPCODE+2,,AUTO
         1 000300   000001 702211                    TSX2  ! 1,X1

     4133      755    2   END ELSHIST;
     4134      756        %EJECT;
PL6.E3A0      #003=THF$HISTORY File=THF$FORMAT.:E05TSI                           WED 07/30/97 06:15 Page:799
     4135      757    1   DPSEHIST: PROC;

    757  1 000301   200016 741300       DPSEHIST     STX1  ! VEC_OPCODE+2,,AUTO

     4136      758    2           CALL THW$WRITE(VECTOR(DPSE_VU_TITLE));

    758  1 000302   000052 630400 2                  EPPR0   42
         1 000303   000017 631400 xsym               EPPR1   B_VECTNIL+15
         1 000304   000000 701000 xent               TSX1    THW$WRITE
         1 000305   000000 011000                    NOP     0

     4137      759    3           DO I = 63 DOWNTO 0;

    759  1 000306   000077 235007                    LDA     63,DL
         1 000307   200005 755100                    STA     I,,AUTO

     4138      760    3              DPSEVU1HR = DPSEHR_BASED.VU1(I) \ '000770007303600000777777'O;

    760  1 000310   200003 470500                    LDP0    @HR$,,AUTO
         1 000311   000000 471500                    LDP1    0,,PR0
         1 000312   200005 235100                    LDA     I,,AUTO
         1 000313   000003 735000                    ALS     3
         1 000314   000100 100505                    MLR     fill='000'O
         1 000315   100400 000010                    ADSC9   256,A,PR1                cn=0,n=8
         1 000316   200020 000010                    ADSC9   VEC_OPCODE+4,,AUTO       cn=0,n=8
         1 000317   200020 237100                    LDAQ    VEC_OPCODE+4,,AUTO
         1 000320   001524 677000 0                  ERAQ    DPSE_CUOUDU_FMT+14
         1 000321   200010 757100                    STAQ    DPSEVU1HR,,AUTO

     4139      761    3              OPCODE = 4 * DPSEHR_BASED.VU2.OPCODE(I);

    761  1 000322   000000 471500                    LDP1    0,,PR0
         1 000323   200005 235100                    LDA     I,,AUTO
         1 000324   000001 735000                    ALS     1
         1 000325   100601 236105                    LDQ     385,AL,PR1
         1 000326   000030 772000                    QRL     24
         1 000327   007774 376007                    ANQ     4092,DL
PL6.E3A0      #003=THF$HISTORY File=THF$FORMAT.:E05TSI                           WED 07/30/97 06:15 Page:800
         1 000330   200007 756100                    STQ     OPCODE,,AUTO

     4140      762    3              IF I = 63

    762  1 000331   200005 235100                    LDA     I,,AUTO
         1 000332   000077 115007                    CMPA    63,DL
         1 000333   000336 601000 1                  TNZ     s:764

     4141      763    3              THEN LCNT = 0;

    763  1 000334   200006 450100                    STZ     LCNT,,AUTO
         1 000335   000340 710000 1                  TRA     s:765

     4142      764    3              ELSE LCNT = I+1;

    764  1 000336   000001 035007                    ADLA    1,DL
         1 000337   200006 755100                    STA     LCNT,,AUTO

     4143      765    3              CALL THW$WRITE(VECTOR(DPSE_VU_FMT),

    765  1 000340   000006 235000 2                  LDA     6
         1 000341   200020 452500                    STP2    VEC_OPCODE+4,,AUTO
         1 000342   200020 236100                    LDQ     VEC_OPCODE+4,,AUTO
         1 000343   000010 036003                    ADLQ    8,DU
         1 000344   000000 471500                    LDP1    0,,PR0
         1 000345   200022 757100                    STAQ    VEC_OPCODE+6,,AUTO
         1 000346   000006 235000 2                  LDA     6
         1 000347   200005 236100                    LDQ     I,,AUTO
         1 000350   000001 736000                    QLS     1
         1 000351   100600 633506                    EPPR3   384,QL,PR1
         1 000352   200024 453500                    STP3    VEC_OPCODE+8,,AUTO
         1 000353   200024 236100                    LDQ     VEC_OPCODE+8,,AUTO
         1 000354   200030 757100                    STAQ    VEC_OPCODE+12,,AUTO
         1 000355   200022 237100                    LDAQ    VEC_OPCODE+6,,AUTO
         1 000356   200026 757100                    STAQ    VEC_OPCODE+10,,AUTO
         1 000357   200030 237100                    LDAQ    VEC_OPCODE+12,,AUTO
         1 000360   200032 757100                    STAQ    VEC_OPCODE+14,,AUTO
PL6.E3A0      #003=THF$HISTORY File=THF$FORMAT.:E05TSI                           WED 07/30/97 06:15 Page:801
         1 000361   200014 631500                    EPPR1   VEC_OPCODE,,AUTO
         1 000362   200040 451500                    STP1    VEC_OPCODE+20,,AUTO
         1 000363   200032 634500                    EPPR4   VEC_OPCODE+14,,AUTO
         1 000364   200037 454500                    STP4    VEC_OPCODE+19,,AUTO
         1 000365   200026 635500                    EPPR5   VEC_OPCODE+10,,AUTO
         1 000366   200036 455500                    STP5    VEC_OPCODE+18,,AUTO
         1 000367   200012 636500                    EPPR6   VEC_LCNT,,AUTO
         1 000370   200035 456500                    STP6    VEC_OPCODE+17,,AUTO
         1 000371   000056 236000 2                  LDQ     46
         1 000372   200034 756100                    STQ     VEC_OPCODE+16,,AUTO
         1 000373   200034 630500                    EPPR0   VEC_OPCODE+16,,AUTO
         1 000374   000023 631400 xsym               EPPR1   B_VECTNIL+19
         1 000375   000000 701000 xent               TSX1    THW$WRITE
         1 000376   000000 011000                    NOP     0

     4144      766    3                             VEC_LCNT,
     4145      767    3                             VECTOR(DPSEVU1HR),
     4146      768    3                             VECTOR(DPSEHR_BASED.VU2(I)),
     4147      769    3                             VEC_OPCODE);
     4148      770    3              END;

    770  1 000377   000001 336007                    LCQ     1,DL
         1 000400   200005 056100                    ASQ     I,,AUTO
         1 000401   000310 605000 1                  TPL     s:760

     4149      771        /**/
     4150      772    2   NEXT_DPSE_HR:
     4151      773    2           CALL THW$WRITE(VECTOR(DPSE_CUOUDU_TITLE));

    773  1 000402   000062 630400 2     NEXT_DPSE_HR EPPR0   50
         1 000403   000017 631400 xsym               EPPR1   B_VECTNIL+15
         1 000404   000000 701000 xent               TSX1    THW$WRITE
         1 000405   000000 011000                    NOP     0

     4152      774    3           DO I = 63 DOWNTO 0;

    774  1 000406   000077 235007                    LDA     63,DL
PL6.E3A0      #003=THF$HISTORY File=THF$FORMAT.:E05TSI                           WED 07/30/97 06:15 Page:802
         1 000407   200005 755100                    STA     I,,AUTO

     4153      775    3              IF I = 63

    775  1 000410   200005 235100                    LDA     I,,AUTO
         1 000411   000077 115007                    CMPA    63,DL
         1 000412   000415 601000 1                  TNZ     s:777

     4154      776    3              THEN LCNT = 0;

    776  1 000413   200006 450100                    STZ     LCNT,,AUTO
         1 000414   000417 710000 1                  TRA     s:778

     4155      777    3              ELSE LCNT = I+1;

    777  1 000415   000001 035007                    ADLA    1,DL
         1 000416   200006 755100                    STA     LCNT,,AUTO

     4156      778    3              CALL THW$WRITE(VECTOR(DPSE_CUOUDU_FMT),

    778  1 000417   200003 470500                    LDP0    @HR$,,AUTO
         1 000420   000000 471500                    LDP1    0,,PR0
         1 000421   000006 235000 2                  LDA     6
         1 000422   200005 236100                    LDQ     I,,AUTO
         1 000423   000001 736000                    QLS     1
         1 000424   100000 633506                    EPPR3   0,QL,PR1
         1 000425   200020 453500                    STP3    VEC_OPCODE+4,,AUTO
         1 000426   200020 236100                    LDQ     VEC_OPCODE+4,,AUTO
         1 000427   000000 471500                    LDP1    0,,PR0
         1 000430   200022 757100                    STAQ    VEC_OPCODE+6,,AUTO
         1 000431   000006 235000 2                  LDA     6
         1 000432   200005 236100                    LDQ     I,,AUTO
         1 000433   000001 736000                    QLS     1
         1 000434   100200 634506                    EPPR4   128,QL,PR1
         1 000435   200024 454500                    STP4    VEC_OPCODE+8,,AUTO
         1 000436   200024 236100                    LDQ     VEC_OPCODE+8,,AUTO
         1 000437   200030 757100                    STAQ    VEC_OPCODE+12,,AUTO
PL6.E3A0      #003=THF$HISTORY File=THF$FORMAT.:E05TSI                           WED 07/30/97 06:15 Page:803
         1 000440   200022 237100                    LDAQ    VEC_OPCODE+6,,AUTO
         1 000441   200026 757100                    STAQ    VEC_OPCODE+10,,AUTO
         1 000442   200030 237100                    LDAQ    VEC_OPCODE+12,,AUTO
         1 000443   200032 757100                    STAQ    VEC_OPCODE+14,,AUTO
         1 000444   200032 631500                    EPPR1   VEC_OPCODE+14,,AUTO
         1 000445   200037 451500                    STP1    VEC_OPCODE+19,,AUTO
         1 000446   200026 635500                    EPPR5   VEC_OPCODE+10,,AUTO
         1 000447   200036 455500                    STP5    VEC_OPCODE+18,,AUTO
         1 000450   200012 636500                    EPPR6   VEC_LCNT,,AUTO
         1 000451   200035 456500                    STP6    VEC_OPCODE+17,,AUTO
         1 000452   000066 236000 2                  LDQ     54
         1 000453   200034 756100                    STQ     VEC_OPCODE+16,,AUTO
         1 000454   200034 630500                    EPPR0   VEC_OPCODE+16,,AUTO
         1 000455   000022 631400 xsym               EPPR1   B_VECTNIL+18
         1 000456   000000 701000 xent               TSX1    THW$WRITE
         1 000457   000000 011000                    NOP     0

     4157      779    3                             VEC_LCNT,
     4158      780    3                             VECTOR(DPSEHR_BASED.CU(I)),
     4159      781    3                             VECTOR(DPSEHR_BASED.OUDU(I)));
     4160      782    3              END;

    782  1 000460   000001 336007                    LCQ     1,DL
         1 000461   200005 056100                    ASQ     I,,AUTO
         1 000462   000410 605000 1                  TPL     s:775

     4161      783    2           RETURN;

    783  1 000463   200016 221300                    LDX1  ! VEC_OPCODE+2,,AUTO
         1 000464   000001 702211                    TSX2  ! 1,X1
     4162      784    2   END DPSEHIST;
     4163      785    1   END THF$HISTORY;
     4164      786        %EOD;

PL6.E3A0      #003=THF$HISTORY File=THF$FORMAT.:E05TSI                           WED 07/30/97 06:15 Page:804
--  Include file information  --

   B_STRINGS_C.:E05TOU  is referenced.
   TH_SUBS_C.:E05TOU  is referenced.
   B$JIT_C.:E05TOU  was found in the system file and is never referenced.
   CP_6_C.:E05TOU  was found in the system file and is never referenced.
      No diagnostics issued in procedure THF$HISTORY.
PL6.E3A0      #003=THF$HISTORY File=THF$FORMAT.:E05TSI                           WED 07/30/97 06:15 Page:805

 **** Variables and constants ****

  ****  Section 000 RoData THF$HISTORY

  ****  Scalars and arrays  ****
OctLoc.c.b A Datatyp(siz) R M Lvl/name                 OctLoc.c.b A Datatyp(siz) R M Lvl/name

   146-0-0/c STRC(4014)  r     1 CU_TITLE                1506-0-0/c STRC(495)   r     1 DPSE_CUOUDU_FMT
  1226-0-0/c STRC(621)   r     1 DPSE_CUOUDU_TITLE       1437-0-0/c STRC(1395)  r     1 DPSE_VU_FMT
  1213-0-0/c STRC(396)   r     1 DPSE_VU_TITLE            454-0-0/c STRC(4554)  r     1 DU_TITLE
  1402-0-0/c STRC(1035)  r     1 ELS_FMT                  653-0-0/c STRC(8064)  r     1 ELS_TITLE
  1273-0-0/c STRC(657)   r     1 L66_CU_FMT              1353-0-0/c STRC(810)   r     1 L66_DU_FMT
  1316-0-0/c STRC(1035)  r     1 L66_OU_FMT              1250-0-0/c STRC(657)   r     1 L66_VU_FMT
   326-0-0/c STRC(3096)  r     1 OU_TITLE                   0-0-0/c STRC(3654)  r     1 VU_TITLE

  ****  Auto variables  ****

  ****  Scalars and arrays  ****
OctLoc.c.b A Datatyp(siz) R M Lvl/name                 OctLoc.c.b A Datatyp(siz) R M Lvl/name

     3-0-0/w PTR         r     1 @HR$                       4-0-0/w PTR         r     1 @PROCTYPE
    10-0-0/d BIT (72)    r     1 DPSEVU1HR                 *0-0-0/w PTR         r     1 HR$
     5-0-0/w SBIN        r     1 I                          6-0-0/w SBIN        r     1 LCNT
     7-0-0/w UBIN        r     1 OPCODE                    *0-0-0/w UBIN        r     1 PROCTYPE
    12-0-0/d BIT (72)    r     1 VEC_LCNT                  14-0-0/d BIT (72)    r     1 VEC_OPCODE

  ****  BASED and DCB variables  ****

  ****  Scalars and arrays  ****
OctLoc.c.b A Datatyp(siz) R M Lvl/name                 OctLoc.c.b A Datatyp(siz) R M Lvl/name

     0-0-0/w STRC(18432) r     1 DPSEHR_BASED
     0-0-0/w STRC(72)    r     1 ELSHR_BASED(0:15)
     0-0-0/w STRC(4608)  r     1 L66HR_BASED

PL6.E3A0      #003=THF$HISTORY File=THF$FORMAT.:E05TSI                           WED 07/30/97 06:15 Page:806

   Procedure THF$HISTORY requires 309 words for executable code.
   Procedure THF$HISTORY requires 34 words of local(AUTO) storage.
PL6.E3A0      #003=THF$HISTORY File=THF$FORMAT.:E05TSI                           WED 07/30/97 06:15 Page:807
          *** CROSS REFERENCE LISTING ***
**     DENOTES     IDENTIFIER DEFINITION
<<                 IDENTIFIER'S VALUE SET
>>                 IDENTIFIER'S VALUE USED
<>                 IDENTIFIER SET AND/OR USED
--                 IDENTIFIER REFERENCED
PL6.E3A0      #003=THF$HISTORY File=THF$FORMAT.:E05TSI                           WED 07/30/97 06:15 Page:808
          MINI XREF LISTING

CU_TITLE
       448**DCL       722--CALL
DPSEHIST
       757**PROC      706--CALL
DPSEHR_BASED.CU
       692**DCL       778--CALL
DPSEHR_BASED.OUDU
       693**DCL       778--CALL
DPSEHR_BASED.VU1
       694**DCL       760>>ASSIGN
DPSEHR_BASED.VU2
       695**DCL       765--CALL
DPSEHR_BASED.VU2.OPCODE
       697**DCL       761>>ASSIGN
DPSEVU1HR
       404**DCL       760<<ASSIGN    765--CALL
DPSE_CUOUDU_FMT
       672**DCL       778--CALL
DPSE_CUOUDU_TITLE
       631**DCL       773--CALL
DPSE_VU_FMT
       664**DCL       765--CALL
DPSE_VU_TITLE
       629**DCL       758--CALL
DU_TITLE
       522**DCL       736--CALL
ELSHIST
       745**PROC      708--CALL
ELSHR_BASED
       686**DCL       749--CALL
ELSHR_BASED.OPCODE
       688**DCL       748>>ASSIGN
PL6.E3A0      #003=THF$HISTORY File=THF$FORMAT.:E05TSI                           WED 07/30/97 06:15 Page:809
ELS_FMT
       658**DCL       749--CALL
ELS_TITLE
       557**DCL       746--CALL
HR$
        10**DCL         7--PROC      678--IMP-PTR   686--IMP-PTR   691--IMP-PTR   715>>ASSIGN    716>>CALL
       724>>CALL      731>>CALL      738>>CALL      748>>ASSIGN    749>>CALL      760>>ASSIGN    761>>ASSIGN
       765>>CALL      778>>CALL      778>>CALL
I
       401**DCL       759<<DOINDEX   760>>ASSIGN    761>>ASSIGN    762>>IF        764>>ASSIGN    765>>CALL
       774<<DOINDEX   775>>IF        777>>ASSIGN    778>>CALL      778>>CALL
L66HIST
       712**PROC      704--CALL
L66HR_BASED.CU
       679**DCL       724--CALL
L66HR_BASED.DU
       684**DCL       738--CALL
L66HR_BASED.OU
       680**DCL       731--CALL
L66HR_BASED.VU
       681**DCL       716--CALL
L66HR_BASED.VU.OPCODE
       682**DCL       715>>ASSIGN
L66_CU_FMT
       642**DCL       724--CALL
L66_DU_FMT
       653**DCL       738--CALL
L66_OU_FMT
       647**DCL       731--CALL
L66_VU_FMT
       637**DCL       716--CALL
LCNT
       402**DCL       700--ASSIGN    714<<DOINDEX   715>>ASSIGN    716>>CALL      723<<DOINDEX   724>>CALL
       730<<DOINDEX   731>>CALL      737<<DOINDEX   738>>CALL      747<<DOINDEX   748>>ASSIGN    749>>CALL
       763<<ASSIGN    764<<ASSIGN    776<<ASSIGN    777<<ASSIGN
OPCODE
PL6.E3A0      #003=THF$HISTORY File=THF$FORMAT.:E05TSI                           WED 07/30/97 06:15 Page:810
       403**DCL       701--ASSIGN    715<<ASSIGN    748<<ASSIGN    761<<ASSIGN
OU_TITLE
       487**DCL       729--CALL
PROCTYPE
        11**DCL         7--PROC      702>>DOCASE
THW$WRITE
       398**DCL-ENT   713--CALL      716--CALL      722--CALL      724--CALL      729--CALL      731--CALL
       736--CALL      738--CALL      746--CALL      749--CALL      758--CALL      765--CALL      773--CALL
       778--CALL
VEC_LCNT
       405**DCL       700<<ASSIGN    716<>CALL      724<>CALL      731<>CALL      738<>CALL      749<>CALL
       765<>CALL      778<>CALL
VEC_OPCODE
       406**DCL       701<<ASSIGN    716<>CALL      749<>CALL      765<>CALL
VU_TITLE
       410**DCL       713--CALL

PL6.E3A0      #004=THF$HWE File=THF$FORMAT.:E05TSI                               WED 07/30/97 06:16 Page:811
     4165        1        /*M* THF$HWE - ROUTINE TO BUILD HWE REPORTS FOR ELAN */
     4166        2        /*T***********************************************************/
     4167        3        /*T*                                                         */
     4168        4        /*T* Copyright (c) Bull HN Information Systems Inc., 1997    */
     4169        5        /*T*                                                         */
     4170        6        /*T***********************************************************/
     4171        7        THF$HWE: PROC(CODE);
     4172        8        /**/
     4173        9        /* PARAMS */
     4174       10    1   DCL CODE UBIN WORD;
     4175       11        /**/
     4176       12        /* INCLUDE FILES */
     4177       13        %INCLUDE CP_6;
     4178       94        %INCLUDE EL$TABLES;
     4179      417        %INCLUDE TH_DATA_R;
     4180      495        %INCLUDE TH_SUBS_C;
     4181      877        %INCLUDE TH_DATA_C;
     4182      893        %INCLUDE EL_SUBS_C;
     4183      977        %INCLUDE XUD_UTS_M;
     4184     1059        /**/
     4185     1060        /* ENTRY DEFS */
     4186     1061    1   DCL THG$GETREC ENTRY(4) ALTRET;
     4187     1062    1   DCL THW$WRITE ENTRY(11);
     4188     1063    1   DCL THF$ADD_TEXTC ENTRY(3);
     4189     1064    1   DCL THF$STATUS ENTRY(5) ALTRET;
     4190     1065    1   DCL THG$OPENXSA ENTRY(1) ALTRET;
     4191     1066    1   DCL THG$PRECORDXSA ENTRY(1) ALTRET;
     4192     1067    1   DCL THG$CLOSEXSA ENTRY ALTRET;
     4193     1068        /**/
     4194     1069        /* VARS */
     4195     1070    1   DCL START_TIME UBIN WORD;
     4196     1071    1   DCL STOP_TIME UBIN WORD;
     4197     1072    1   DCL I SBIN;
     4198     1073    1   DCL J SBIN;
     4199     1074    1   DCL NUM_EDACS SBIN WORD;
     4200     1075    1   DCL REP_CODE UBIN WORD;
     4201     1076    1   DCL FIRST_REP UBIN WORD;
PL6.E3A0      #004=THF$HWE File=THF$FORMAT.:E05TSI                               WED 07/30/97 06:16 Page:812
     4202     1077    1   DCL LAST_REP UBIN WORD;
     4203     1078    1   DCL MAJBUF CHAR(32);
     4204     1079    1   DCL MINBUF CHAR(32);
     4205     1080    1   DCL MAJCOUNT SBIN WORD;
     4206     1081    1   DCL MINCOUNT SBIN WORD;
     4207     1082    1   DCL ERRLOG_DATE UBIN WORD STATIC;
     4208     1083    1   DCL BLANK_LINE CHAR(0) CONSTANT INIT('%10P');
     4209     1084    1   DCL EOF_FLAG BIT(1);
     4210     1085    1   DCL PRINT_HDR BIT(1);
     4211     1086    1   DCL NUM_LINES UBIN WORD;
     4212     1087    1   DCL PRINT_BLANK BIT(1);
     4213     1088    1   DCL LAST_DATE UBIN WORD;
     4214     1089    1   DCL FIRST_EDAC BIT(1);
     4215     1090    1   DCL PRINT_DATE CHAR(0) CONSTANT INIT(
     4216     1091    1   '(%8.36.1U)%10P');
     4217     1092    1   DCL CTL$ PTR;
     4218     1093    1   DCL TEXTBUF CHAR(256);
     4219     1094    1   DCL TEXT$ PTR;
     4220     1095    1   DCL 1 TVEC,
     4221     1096    1         2 BOUND UBIN(20) UNAL,
     4222     1097    1         2 * BIT(16),
     4223     1098    1         2 PTR$ PTR;
     4224     1099    1   DCL BOARD CHAR(1);
     4225     1100    1   DCL CHIP CHAR(3);
     4226     1101    1   DCL PERIPH_TITLE CHAR(0) CONSTANT INIT(
     4227     1102    1   '%2/Hardware Error Report (PERIPH) for %2P%T from %3P%14.36.2U to %4P%14.36.2U%2/%10
              1102        P');
     4228     1103    1   DCL FEP_TITLE CHAR(0) CONSTANT INIT(
     4229     1104    1   '%2/Hardware Error Report (FEP) for %2P%T from %3P%14.36.2U to %4P%14.36.2U%2/%10P')
              1104            ;
     4230     1105    1   DCL IOM_TITLE CHAR(0) CONSTANT INIT(
     4231     1106    1   '%2/Hardware Error Report (IOM) for %2P%T from %3P%14.36.2U to %4P%14.36.2U%2/%10P')
              1106            ;
     4232     1107    1   DCL MPC_TITLE CHAR(0) CONSTANT INIT(
     4233     1108    1   '%2/Hardware Error Report (MPC) for %2P%T from %3P%14.36.2U to %4P%14.36.2U%2/%10P')
              1108            ;
     4234     1109    1   DCL MEM_TITLE CHAR(0) CONSTANT INIT(
PL6.E3A0      #004=THF$HWE File=THF$FORMAT.:E05TSI                               WED 07/30/97 06:16 Page:813
     4235     1110    1   '%2/Hardware Error Report (MEM) for %2P%T from %3P%14.36.2U to %4P%14.36.2U%2/%10P')
              1110            ;
     4236     1111    1   DCL TITLE_VEC(0:5) BIT(72) CONSTANT INIT(VECTOR(NIL),
     4237     1112    1                                            VECTOR(MEM_TITLE),
     4238     1113    1                                            VECTOR(IOM_TITLE),
     4239     1114    1                                            VECTOR(FEP_TITLE),
     4240     1115    1                                            VECTOR(PERIPH_TITLE),
     4241     1116    1                                            VECTOR(MPC_TITLE));
     4242     1117        /**/
     4243     1118    1   DCL 1 EDAC_TABLE (0:255),
     4244     1119    1         2 * BIT(32) UNAL,
     4245     1120    1         2 MOSID BIT(4) UNAL,
     4246     1121    1         2 SYNDROME,
     4247     1122    1           3 A45 UBIN(2) UNAL,
     4248     1123    1           3 A678 UBIN(3) UNAL,
     4249     1124    1           3 * BIT(1) UNAL,
     4250     1125    1           3 NUMB UBIN(7) UNAL,
     4251     1126    1           3 ODDEVN BIT(1) UNAL,
     4252     1127    1           3 PORT# UBIN(2) UNAL,
     4253     1128    1           3 STORE# UBIN(2) UNAL,
     4254     1129    1         2 SYNDROME1 REDEF SYNDROME UBIN(18) UNAL,
     4255     1130    1         2 COUNT UBIN(18) UNAL,
     4256     1131    1         2 UTS UBIN WORD;
     4257     1132    1   DCL 1 STORE_MODE,
     4258     1133    1         2 * BIT(36) UNAL,
     4259     1134    1         2 SYNDROME,
     4260     1135    1           3 * BIT(14) UNAL,
     4261     1136    1           3 PORT# UBIN(2) UNAL,
     4262     1137    1           3 STORE# UBIN(2) UNAL,
     4263     1138    1         2 SYNDROME1 REDEF SYNDROME UBIN(18) UNAL,
     4264     1139    1         2 * BIT(18) UNAL;
     4265     1140    1   DCL TEMP(0:1) BIT(72) DALIGNED;
     4266     1141        /**/
     4267     1142    1   DCL NEXT_ENTRY UBIN WORD STATIC INIT(0);
     4268     1143    1   DCL TH_HWE_FMT(0:0) PTR SYMREF;
     4269     1144        /**/
     4270     1145    1   DCL TEMP_UTS UBIN;
PL6.E3A0      #004=THF$HWE File=THF$FORMAT.:E05TSI                               WED 07/30/97 06:16 Page:814
     4271     1146        /**/
     4272     1147        /* MACRO INVOCATIONS */
     4273     1148        %CTL (STCLASS="BASED(CTL$)");
     4274     1158        %EL$HDR (NAME=HDR,STCLASS="BASED(TH_HDR.PTR$)");
     4275     1214        %EL$EDAC (STCLASS="BASED(TH_INFO.PTR$)");
     4276     1223        %EL$IOERR (STCLASS="BASED(TH_INFO.PTR$)");
     4277     1233        %XUD$UTS_ENTRIES;
     4278     1265        %XUD_UTS_EQU;
     4279     1276        /**/
     4280     1277        /* FPTS */
     4281     1278        %FPT_TIME (SOURCE=UTS,
     4282     1279                        DEST=EXT,
     4283     1280                        DATE=TH_DATE,
     4284     1281                   TIME=TH_TIME);
     4285     1300        %FPT_TIME (FPTN=RECORD_DATE,
     4286     1301                   SOURCE=UTS,
     4287     1302                   DEST=EXT,
     4288     1303                   DATE=TH_DATE,
     4289     1304                   TIME=TH_TIME,
     4290     1305                   DAY=TH_DAY,
     4291     1306                   TSTAMP=TH_LASTUTS,
     4292     1307                   STCLASS=CONSTANT);
     4293     1326        /**/
     4294     1327        %EJECT;
PL6.E3A0      #004=THF$HWE File=THF$FORMAT.:E05TSI                               WED 07/30/97 06:16 Page:815
     4295     1328    1        IF CODE = 0
     4296     1329    1           THEN                            /* ALL REPORTS                        */
     4297     1330    2           DO;
     4298     1331    2              FIRST_REP = %MEM;
     4299     1332    2              LAST_REP = %MPC;
     4300     1333    2           END;
     4301     1334    1           ELSE
     4302     1335    2           DO;
     4303     1336    2              FIRST_REP = CODE;
     4304     1337    2              LAST_REP = CODE;
     4305     1338    2           END;
     4306     1339    1        FIRST_EDAC = %TRUE;
     4307     1340    2        DO REP_CODE = FIRST_REP TO LAST_REP;
     4308     1341    2           IF REP_CODE = %FEP OR REP_CODE = %IOM OR REP_CODE = %MPC
     4309     1342    2              THEN GOTO ENDLOOP;  /* REPORTS UNIMPLIMENTED */
     4310     1343    2           IF CODE = 0 /* ALL */
     4311     1344    2              THEN CALL THW$WRITE(TITLE_VEC(REP_CODE),
     4312     1345    2                                  VECTOR(TH_SITE_ID),
     4313     1346    2                                  VECTOR(TH_SITE_NAME),
     4314     1347    2                                  VECTOR(TH_CONSTRAINTS.START),
     4315     1348    2                                  VECTOR(TH_CONSTRAINTS.STOP));
     4316     1349    2           LAST_DATE = 1;
     4317     1350    2           CTL$ = TH_HWE_FMT(REP_CODE);
     4318     1351    2           PRINT_HDR = %TRUE;
     4319     1352    2          CALL XUD$UTS_DIFF_SEC (START_TIME, TH_CONSTRAINTS.START, 0);
     4320     1353    2          START_TIME = START_TIME / 86400;
     4321     1354    2          CALL XUD$UTS_ADJ_25TH (START_TIME, 0, START_TIME*%UTS_25TH_DAY#);
     4322     1355    2          CALL XUD$UTS_DIFF_SEC (STOP_TIME, TH_CONSTRAINTS.STOP, 0);
     4323     1356    2          STOP_TIME = STOP_TIME / 86400;
     4324     1357    2          CALL XUD$UTS_ADJ_25TH (STOP_TIME, 0, STOP_TIME*%UTS_25TH_DAY#);
     4325     1358    2          ERRLOG_DATE = START_TIME;
     4326     1359    3          DO WHILE (ERRLOG_DATE <= STOP_TIME);
     4327     1360    3              CALL THG$OPENXSA(ERRLOG_DATE) ALTRET(NOT_THERE);
     4328     1361    4              DO CASE(REP_CODE);
     4329     1362    4                 CASE(%PERIPH);
     4330     1363    4                    PRINT_BLANK = %FALSE;
     4331     1364    4                    TH_CONSTRAINTS.NTYPES = 1;
PL6.E3A0      #004=THF$HWE File=THF$FORMAT.:E05TSI                               WED 07/30/97 06:16 Page:816
     4332     1365    4                    TH_CONSTRAINTS.TYPES(0) = EL_IOERR;
     4333     1366    5                    DO I = 0 TO TH_NUM_REP_DEVS - 1;
     4334     1367    5                       TH_BOF = %YES;
     4335     1368    5                       EOF_FLAG = %FALSE;
     4336     1369    5                       NUM_LINES = 0;
     4337     1370    5                       TH_CONSTRAINTS.DEVNM = TH_REP_DEVS(I);
     4338     1371    5                       IF TH_CONSTRAINTS.DEVNM ~= ' '
     4339     1372    5                       THEN TH_CHECK_DEVNM = '1'B;
     4340     1373    5                       ELSE TH_CHECK_DEVNM = '0'B;
     4341     1374    6                       DO WHILE(NOT EOF_FLAG);
     4342     1375    6                          CALL THG$GETREC(%ERRLOG) ALTRET(PERIPH_EOF);
     4343     1376    7                          IF PRINT_HDR THEN DO;
     4344     1377    7                             PRINT_HDR = %FALSE;
     4345     1378    8                             DO J = 1 TO CTL.NHDR;
     4346     1379    8                                CALL THW$WRITE(CTL.FMT(J));
     4347     1380    8                                END;  /* DO J */
     4348     1381    7                             END;  /* IF PRINT_HDR */
     4349     1382    6                          CALL XUD$UTS_DIFF_SEC (TEMP_UTS, HDR.UTS, 0);
     4350     1383    6                          TEMP_UTS = TEMP_UTS / 86400;
     4351     1384    7                          IF TEMP_UTS ~= LAST_DATE THEN DO;
     4352     1385    7                             CALL THW$WRITE(VECTOR(PRINT_DATE),
     4353     1386    7                                            VECTOR(HDR.UTS));
     4354     1387    7                             CALL XUD$UTS_DIFF_SEC (LAST_DATE, HDR.UTS, 0);
     4355     1388    7                             LAST_DATE = LAST_DATE / 86400;
     4356     1389    7                             END;  /* IF UTS ~= LAST_DATE */
     4357     1390    6                          IF PRINT_BLANK
     4358     1391    6                             THEN
     4359     1392    7                             DO;
     4360     1393    7                                CALL THW$WRITE(VECTOR(BLANK_LINE));
     4361     1394    7                                PRINT_BLANK = %FALSE;
     4362     1395    7                             END;  /* IF PRINT_BLANK */
     4363     1396    6                          NUM_LINES = NUM_LINES + 1;
     4364     1397
     4365     1398    6                          TVEC = VECTOR(NIL);
     4366     1399    6                          TEXT$ = ADDR(TEXTBUF);
     4367     1400    6                          CALL THF$STATUS(EL$IOERR,MAJBUF,MAJCOUNT,MINBUF,MINCOUNT)
              1400                                   ALTRET(NO_STATUS);
PL6.E3A0      #004=THF$HWE File=THF$FORMAT.:E05TSI                               WED 07/30/97 06:16 Page:817
     4368     1401    6                          CALL THF$ADD_TEXTC(TEXT$,MAJBUF,MAJCOUNT);
     4369     1402    6                          CALL THF$ADD_TEXTC(TEXT$,MINBUF,MINCOUNT);
     4370     1403    6                          TVEC = VECTOR(TEXTBUF);
     4371     1404    6                          TVEC.BOUND = POFFC(TEXT$,ADDR(TEXTBUF)) - 1;
     4372     1405    6              NO_STATUS: ;
     4373     1406    6                          CALL M$TIME(RECORD_DATE);
     4374     1407    7                          DO J = CTL.NHDR + 1 TO CTL.NHDR + CTL.NFMT;
     4375     1408    7                             CALL THW$WRITE(CTL.FMT(J),VECTOR(TH_TIME),TH_INFO,TVEC);
     4376     1409    7                          END;             /* DO J                               */
     4377     1410    7                          DO NEVER;
     4378     1411    7                PERIPH_EOF:  EOF_FLAG = %TRUE;
     4379     1412    7                          END;             /* DO NEVER                           */
     4380     1413    6                       END;                /* DO WHILE NOT EOF_FLAG              */
     4381     1414    5                       IF NUM_LINES > 0
     4382     1415    5                          THEN PRINT_BLANK = %TRUE;
     4383     1416    5                    END;                   /* DO I                               */
     4384     1417    4                 CASE(%FEP);
     4385     1418                                     /* FEP REPORT - UNIMPLIMENTED IN B00 */
     4386     1419    4                 CASE(%IOM);
     4387     1420                                                /* CODE FOR THIS GUY                  */
     4388     1421    4                 CASE(%MPC);
     4389     1422                          /* CODE FOR MPC REPORT */
     4390     1423    4                 CASE(%MEM);               /* EDAC REPORT                        */
     4391     1424    5                    IF FIRST_EDAC THEN DO;
     4392     1425    5                       FIRST_EDAC = %FALSE;
     4393     1426    5                       EDAC_TABLE = '0'B;
     4394     1427    5                       TH_CONSTRAINTS.NTYPES = 1;
     4395     1428    5                       TH_CONSTRAINTS.TYPES(0) = EL_EDAC;
     4396     1429    5                       TH_CONSTRAINTS.DEVNM = ' ';
     4397     1430    5                       TH_CHECK_DEVNM = '0'B;
     4398     1431    5                       NUM_EDACS = 0;
     4399     1432    5                       NEXT_ENTRY = 0;
     4400     1433    5                       END;  /* IF */
     4401     1434    4                    TH_BOF = %YES;
     4402     1435    4                    EOF_FLAG = %FALSE;
     4403     1436    5                    DO WHILE(NOT EOF_FLAG);
     4404     1437    5                       CALL THG$GETREC(%ERRLOG) ALTRET(EOF);
PL6.E3A0      #004=THF$HWE File=THF$FORMAT.:E05TSI                               WED 07/30/97 06:16 Page:818
     4405     1438    5                       STORE_MODE = EL$EDAC.STORE_MODE;
     4406     1439    5                       STORE_MODE.SYNDROME.PORT# = EL$EDAC.PORT#;
     4407     1440    5                       STORE_MODE.SYNDROME.STORE# = EL$EDAC.STORE_UNIT;
     4408     1441    6                       DO J = 0 TO 255;
     4409     1442    7                          IF EDAC_TABLE.SYNDROME1(J) = STORE_MODE.SYNDROME1 THEN DO;
     4410     1443    7                             EDAC_TABLE.COUNT(J) = EDAC_TABLE.COUNT(J) + 1;
     4411     1444    7                             EDAC_TABLE.UTS(J) = HDR.UTS;
     4412     1445    7                             GOTO FOUND_IT;
     4413     1446    7                             END;  /* IF */
     4414     1447    6                          ELSE
     4415     1448    6                             IF (EDAC_TABLE.COUNT(J) < EDAC_TABLE.COUNT(NEXT_ENTRY)) OR
     4416     1449    6                                (EDAC_TABLE.COUNT(J) = EDAC_TABLE.COUNT(NEXT_ENTRY) AND
     4417     1450    6                                EDAC_TABLE.UTS(J) < EDAC_TABLE.UTS(NEXT_ENTRY))
     4418     1451    6                             THEN NEXT_ENTRY = J;
     4419     1452    6                          END;  /* DO J */
     4420     1453    5                       EDAC_TABLE.SYNDROME1(NEXT_ENTRY) = STORE_MODE.SYNDROME1;
     4421     1454    5                       EDAC_TABLE.COUNT(NEXT_ENTRY) = 1;
     4422     1455    5                       EDAC_TABLE.UTS(NEXT_ENTRY) = HDR.UTS;
     4423     1456    5                       EDAC_TABLE.MOSID(NEXT_ENTRY) = EL$EDAC.STORE_MODE.MOSID;
     4424     1457    5                       NUM_EDACS = NUM_EDACS + 1;
     4425     1458    5           FOUND_IT:
     4426     1459    6                       DO NEVER;
     4427     1460    6                   EOF:   EOF_FLAG = %TRUE;
     4428     1461    6                       END;                /* DO NEVER                           */
     4429     1462    5                    END;                   /* DO WHILE NOT EOF_FLAG              */
     4430     1463
     4431     1464    4                    IF NUM_EDACS > 256
     4432     1465    4                       THEN NUM_EDACS = 256;
     4433     1466    4              END;                         /* DO CASE(REP_CODE)                  */
     4434     1467    4              DO NEVER;
     4435     1468    4     NOT_THERE:NUM_EDACS = 0;
     4436     1469    4              END;
     4437     1470    3              CALL XUD$UTS_ADJ_25TH(ERRLOG_DATE,ERRLOG_DATE,%UTS_25TH_DAY#);
     4438     1471    3           END;                            /* DO ERRLOG_DATE <= STOP */
     4439     1472    3           DO CASE(REP_CODE);
     4440     1473    3              CASE(%MEM);  /* NOW OUTPUT THE EDAC RECORDS */
     4441     1474                      /* SORT EDAC TABLE BY UTS */
PL6.E3A0      #004=THF$HWE File=THF$FORMAT.:E05TSI                               WED 07/30/97 06:16 Page:819
     4442     1475    4                 DO I = 1 TO NUM_EDACS - 1;
     4443     1476    5                    DO J = 1 TO NUM_EDACS - I;
     4444     1477    5                       IF EDAC_TABLE.UTS(J-1) > EDAC_TABLE.UTS(J)
     4445     1478    5                          THEN          /* SWITCH EM                          */
     4446     1479    6                          DO;
     4447     1480    6                             TEMP = EDAC_TABLE(J-1);
     4448     1481    6                             EDAC_TABLE(J-1) = EDAC_TABLE(J);
     4449     1482    6                             EDAC_TABLE(J) = TEMP;
     4450     1483    6                          END;          /* IF                                 */
     4451     1484    5                    END;                /* DO J                               */
     4452     1485    4                 END;                   /* DO I                               */
     4453     1486
     4454     1487                                             /* FORMAT RECORDS AND OUTPUT          */
     4455     1488    3                 LAST_DATE = 1;
     4456     1489    4                 IF NUM_EDACS > 0 THEN DO I = 1 TO CTL.NHDR;
     4457     1490    4                    CALL THW$WRITE(CTL.FMT(I));
     4458     1491    4                    END;  /* DO I */
     4459     1492    4                 DO I = 0 TO NUM_EDACS - 1;
     4460     1493    4                    CALL XUD$UTS_DIFF_SEC (TEMP_UTS, EDAC_TABLE.UTS(I), 0);
     4461     1494    4                    TEMP_UTS = TEMP_UTS / 86400;
     4462     1495    5                    IF TEMP_UTS ~= LAST_DATE THEN DO;
     4463     1496    5                       CALL THW$WRITE(VECTOR(PRINT_DATE),
     4464     1497    5                                      VECTOR(EDAC_TABLE.UTS(I)));
     4465     1498    5                       CALL XUD$UTS_DIFF_SEC (LAST_DATE, EDAC_TABLE.UTS(I), 0);
     4466     1499    5                       LAST_DATE = LAST_DATE / 86400;
     4467     1500    5                       END;  /* IF UTS ~= LAST_DATE */
     4468     1501    4                    TEXT$ = ADDR(TEXTBUF);
     4469     1502    4                    CALL EDAC(EDAC_TABLE(I));
     4470     1503    5                    DO CASE(EDAC_TABLE.SYNDROME.PORT#(I));
     4471     1504    5                       CASE(0);         /* PORT A                             */
     4472     1505    5                          CALL THF$ADD_TEXTC(TEXT$,'A',1);
     4473     1506    5                       CASE(1);         /* PORT B                             */
     4474     1507    5                          CALL THF$ADD_TEXTC(TEXT$,'B',1);
     4475     1508    5                       CASE(2);         /* PORT C                             */
     4476     1509    5                          CALL THF$ADD_TEXTC(TEXT$,'C',1);
     4477     1510    5                       CASE(3);         /*  PORT D                            */
     4478     1511    5                          CALL THF$ADD_TEXTC(TEXT$,'D',1);
PL6.E3A0      #004=THF$HWE File=THF$FORMAT.:E05TSI                               WED 07/30/97 06:16 Page:820
     4479     1512    5                    END;                /* DO CASE PORT#                      */
     4480     1513    5                    DO CASE(EDAC_TABLE.SYNDROME.STORE#(I));
     4481     1514    5                       CASE(0);         /* A                                  */
     4482     1515    5                          CALL THF$ADD_TEXTC(TEXT$,'A ',2);
     4483     1516    5                       CASE(1);         /* A1                                 */
     4484     1517    5                          CALL THF$ADD_TEXTC(TEXT$,'A1',2);
     4485     1518    5                       CASE(2);         /* B                                  */
     4486     1519    5                          CALL THF$ADD_TEXTC(TEXT$,'B ',2);
     4487     1520    5                       CASE(3);         /* B1                                 */
     4488     1521    5                          CALL THF$ADD_TEXTC(TEXT$,'B1',2);
     4489     1522    5                    END;                /* DO CASE STORE#                     */
     4490     1523    4                    CALL THF$ADD_TEXTC(TEXT$,BOARD,1);
     4491     1524    4                    CALL THF$ADD_TEXTC(TEXT$,CHIP,3);
     4492     1525    4                    FPT_TIME.TSTAMP_ = VECTOR(EDAC_TABLE.UTS(I));
     4493     1526    4                    CALL M$TIME(FPT_TIME);
     4494     1527    4                    TVEC = VECTOR(TEXTBUF);
     4495     1528    4                    TVEC.BOUND = POFFC(TEXT$,ADDR(TEXTBUF)) - 1;
     4496     1529    5                    DO J = CTL.NHDR + 1 TO CTL.NFMT + CTL.NHDR;
     4497     1530    5                       CALL THW$WRITE(CTL.FMT(J),VECTOR(TH_TIME),VECTOR(EDAC_TABLE(I)),
              1530                                TVEC);
     4498     1531    5                    END;                /* DO J                               */
     4499     1532    4                 END;                   /* DO I                               */
     4500     1533    3              END;  /* CASE REP_CODE */
     4501     1534    2   ENDLOOP:
     4502     1535    2        END;                               /* DO REP_CODE = FIRST TO LAST        */
     4503     1536    1        CALL THG$CLOSEXSA;
     4504     1537    1        RETURN;
     4505     1538        %EJECT;
PL6.E3A0      #004=THF$HWE File=THF$FORMAT.:E05TSI                               WED 07/30/97 06:16 Page:821
     4506     1539    1   EDAC: PROC(TBL);
     4507     1540        /**/
     4508     1541        /* PARAMS */
     4509     1542    2   DCL 1 TBL,
     4510     1543    2         2 * BIT(32) UNAL,
     4511     1544    2         2 MOSID BIT(4) UNAL,
     4512     1545    2         2 SYNDROME,
     4513     1546    2           3 A45 UBIN(2) UNAL,
     4514     1547    2           3 A678 UBIN(3) UNAL,
     4515     1548    2           3 * BIT(1),
     4516     1549    2           3 NUMB UBIN(7) UNAL,
     4517     1550    2           3 ODDEVN BIT(1),
     4518     1551    2           3 PORT# UBIN(2) UNAL,
     4519     1552    2           3 STORE# UBIN(2) UNAL,
     4520     1553    2         2 COUNT UBIN(18) UNAL,
     4521     1554    2         2 UTS UBIN WORD;
     4522     1555        /**/
     4523     1556        /* VARS */
     4524     1557    2   DCL BIT_4K(0:127) SBIN BYTE CALIGNED SYMREF;
     4525     1558    2   DCL QUAD_4K(0:127) SBIN BYTE CALIGNED SYMREF;
     4526     1559    2   DCL BOARD_4K(0:3) CHAR(4) STATIC INIT(
     4527     1560    2           'ABCD','FGHJ','KLMN','QRST');
     4528     1561    2   DCL CHIP_LTTR(0:9) STATIC CHAR(1) INIT('A','B','C','D','E','G',
     4529     1562    2       'H','J','K','L');
     4530     1563    2   DCL BIT_64K (0:127) SBIN BYTE CALIGNED SYMREF;
     4531     1564    2   DCL CHIP_64K_CHAR (0:7) CHAR(2) CALIGNED SYMREF;
     4532     1565    2   DCL CHIP_64K_LET (0:19) CHAR(1) CALIGNED SYMREF;
     4533     1566    2   DCL BOARD_64K (0:15) CHAR(1) CALIGNED SYMREF;
     4534     1567        /**/
     4535     1568    2   DCL BIT# SBIN;
     4536     1569    2   DCL QUAD# SBIN;
     4537     1570    2   DCL CHIP# CHAR(2);
     4538     1571        /**/
     4539     1572    2   DCL 1 TBUF BASED(TEXT$),
     4540     1573    2         2 N UBIN BYTE UNAL,
     4541     1574    2         2 C CHAR(TBUF.N);
     4542     1575        /**/
PL6.E3A0      #004=THF$HWE File=THF$FORMAT.:E05TSI                               WED 07/30/97 06:16 Page:822
     4543     1576        /* FPTS */
     4544     1577        %FPT_TIME (FPTN=LOCAL,
     4545     1578                   SOURCE=UTS,
     4546     1579                   DEST=LOCAL,
     4547     1580                   TIME=TH_TIME);
     4548     1599        /**/
     4549     1600        %EJECT;
PL6.E3A0      #004=THF$HWE File=THF$FORMAT.:E05TSI                               WED 07/30/97 06:16 Page:823
     4550     1601    2           IF TBL.MOSID = '1010'B
     4551     1602    2           THEN GOTO EDAC_64K;
     4552     1603    2           BIT#=BIT_4K(TBL.SYNDROME.NUMB);
     4553     1604    2           QUAD#=QUAD_4K(TBL.SYNDROME.NUMB);
     4554     1605    2           IF BIT#=-1 OR QUAD#=0 THEN
     4555     1606    3              DO;
     4556     1607    3                 BOARD=' ';
     4557     1608    3                 CHIP=' ';
     4558     1609    3                 RETURN;
     4559     1610    3              END;
     4560     1611    2           BOARD=SUBSTR(BOARD_4K(QUAD#-1),TBL.SYNDROME.A45,1);
     4561     1612    2           IF MOD(BIT#,2) = 1 THEN
     4562     1613    3              DO;
     4563     1614    3                 CALL BINCHAR(CHIP#,7-TBL.SYNDROME.A678);
     4564     1615    3                 CALL CONCAT(CHIP,SUBSTR(CHIP#,1,1),CHIP_LTTR(BIT#/2));
     4565     1616    3              END;
     4566     1617    2           ELSE
     4567     1618    3              DO;
     4568     1619    3                 CALL BINCHAR(CHIP#,18-TBL.SYNDROME.A678);
     4569     1620    3                 CALL CONCAT(CHIP,CHIP#,CHIP_LTTR(BIT#/2));
     4570     1621    3              END;
     4571     1622    2           RETURN;
     4572     1623    2   EDAC_64K:
     4573     1624    2           BIT# = BIT_64K(TBL.SYNDROME.NUMB);
     4574     1625    2           IF BIT# < 0
     4575     1626    3           THEN DO;
     4576     1627    3              BOARD = ' ';
     4577     1628    3              CHIP = ' ';
     4578     1629    3              RETURN;
     4579     1630    3              END;
     4580     1631    2           BOARD = BOARD_64K(TBL.SYNDROME.A45 * 4
     4581     1632    2                           + TBL.SYNDROME.A678 / 2);
     4582     1633    2           QUAD# = BIT# * 2 + MOD(TBL.SYNDROME.A678,2);
     4583     1634    2           CALL CONCAT (CHIP,
     4584     1635    2                        CHIP_64K_CHAR(MOD(QUAD#,8)),
     4585     1636    2                        CHIP_64K_LET(QUAD#/8));
     4586     1637    2           RETURN;
PL6.E3A0      #004=THF$HWE File=THF$FORMAT.:E05TSI                               WED 07/30/97 06:16 Page:824
     4587     1638    2   END EDAC;
     4588     1639    1   END THF$HWE;
     4589     1640        %EOD;

PL6.E3A0      #004=THF$HWE File=THF$FORMAT.:E05TSI                               WED 07/30/97 06:16 Page:825
--  Include file information  --

   XUD_UTS_M.:E05TOU  is referenced.
   EL_SUBS_C.:E05TOU  is referenced.
   TH_DATA_C.:E05TOU  is referenced.
   B_STRINGS_C.:E05TOU  is referenced.
   TH_SUBS_C.:E05TOU  is referenced.
   TH_DATA_R.:E05TOU  cannot be made into a system file and is referenced.
   EL$TABLES.:E05TOU  is referenced.
   CP_6.:E05TOU  cannot be made into a system file and is referenced.
   B$JIT_C.:E05TOU  was found in the system file and is never referenced.
   CP_6_C.:E05TOU  was found in the system file and is referenced.
      No diagnostics issued in procedure THF$HWE.

   Procedure THF$HWE requires 925 words for executable code.
   Procedure THF$HWE requires 896 words of local(AUTO) storage.

PL6.E3A0      #004=THF$HWE File=THF$FORMAT.:E05TSI                               WED 07/30/97 06:16 Page:826

 Object Unit name= THF$HWE                                    File name= THF$FORMAT.:E05TOU
 UTS= JUL 30 '97 06:16:08.52 WED                              Compiler= PL-6/E31         Sev=      00
 SharedLib= :SHARED_SYSTEM                                    Alt SharedLib=


    ****  Control sections  ****

 Sect   Type Bound  Init  Size OctSiz  Section name(segment info)
    0   DCB   even  none     0      0  M$UC
    1   Data  even  none    34     42  THF$HWE
    2  RoData even  UTS    138    212  THF$HWE
    3   Proc  even  none   925   1635  THF$HWE
    4  RoData even  none    57     71  THF$HWE

    ****  Entry defs  ****

                              Check   Calling
                             calling  sequence
  Sect OctLoc Primary Altret sequence   type   Parms  Name
     3      0   yes            yes      Std        1  THF$HWE

  ****  Entry refs  ****

         Check        Calling
        calling       sequence
Altret sequence SRef   type   Args  Name
         yes           Std      11 THW$WRITE
 yes     yes           Std       3 XUD$UTS_DIFF_SEC
 yes     yes           Std       3 XUD$UTS_ADJ_25TH
 yes     yes           Std       5 THF$STATUS
 yes     yes           Std       0 THG$CLOSEXSA
 yes     yes           Std       1 THG$OPENXSA
 yes     yes           Std       4 THG$GETREC
         yes           Std       3 THF$ADD_TEXTC
                       nStd      0 X66_AUTO_1
                       Std       0 B_CONSPOOL_D
                       nStd      0 X66_ARET
PL6.E3A0      #004=THF$HWE File=THF$FORMAT.:E05TSI                               WED 07/30/97 06:16 Page:827

  ****  Data refs  ****

  Flags:  r = read only, s = secondary
Flgs Name                             Flgs Name                             Flgs Name
     M$UC                                  TH_CONSTRAINTS                        TH_NUM_REP_DEVS
     TH_REP_DEVS                           TH_BOF                                TH_INFO
     TH_HDR                                TH_LASTUTS                            TH_DAY
     TH_DATE                               TH_TIME                               TH_SITE_ID
     TH_SITE_NAME                          TH_XSA_BUF_VECTOR                     TH_CHECK_DEVNM
     TH_HWE_FMT                            BIT_4K                                QUAD_4K
     BIT_64K                               CHIP_64K_CHAR                         CHIP_64K_LET
     BOARD_64K                             B_VECTNIL

  ****  Segment refs  ****

  Flags:  r = read only, s = secondary
Flgs Name                             Flgs Name                             Flgs Name
     NULLSID                               ISSID
PL6.E3A0      #004=THF$HWE File=THF$FORMAT.:E05TSI                               WED 07/30/97 06:16 Page:828


     4165        1        /*M* THF$HWE - ROUTINE TO BUILD HWE REPORTS FOR ELAN */
     4166        2        /*T***********************************************************/
     4167        3        /*T*                                                         */
     4168        4        /*T* Copyright (c) Bull HN Information Systems Inc., 1997    */
     4169        5        /*T*                                                         */
     4170        6        /*T***********************************************************/
     4171        7        THF$HWE: PROC(CODE);

      7  3 000000   000000 700200 xent  THF$HWE      TSX0  ! X66_AUTO_1
         3 000001   001600 000001                    ZERO    896,1

     4172        8        /**/
     4173        9        /* PARAMS */
     4174       10    1   DCL CODE UBIN WORD;
     4175       11        /**/
     4176       12        /* INCLUDE FILES */
     4177       13        %INCLUDE CP_6;
     4178       94        %INCLUDE EL$TABLES;
     4179      417        %INCLUDE TH_DATA_R;
     4180      495        %INCLUDE TH_SUBS_C;
     4181      877        %INCLUDE TH_DATA_C;
     4182      893        %INCLUDE EL_SUBS_C;
     4183      977        %INCLUDE XUD_UTS_M;
     4184     1059        /**/
     4185     1060        /* ENTRY DEFS */
     4186     1061    1   DCL THG$GETREC ENTRY(4) ALTRET;
     4187     1062    1   DCL THW$WRITE ENTRY(11);
     4188     1063    1   DCL THF$ADD_TEXTC ENTRY(3);
     4189     1064    1   DCL THF$STATUS ENTRY(5) ALTRET;
     4190     1065    1   DCL THG$OPENXSA ENTRY(1) ALTRET;
     4191     1066    1   DCL THG$PRECORDXSA ENTRY(1) ALTRET;
     4192     1067    1   DCL THG$CLOSEXSA ENTRY ALTRET;
     4193     1068        /**/
     4194     1069        /* VARS */
     4195     1070    1   DCL START_TIME UBIN WORD;
     4196     1071    1   DCL STOP_TIME UBIN WORD;
PL6.E3A0      #004=THF$HWE File=THF$FORMAT.:E05TSI                               WED 07/30/97 06:16 Page:829
     4197     1072    1   DCL I SBIN;
     4198     1073    1   DCL J SBIN;
     4199     1074    1   DCL NUM_EDACS SBIN WORD;
     4200     1075    1   DCL REP_CODE UBIN WORD;
     4201     1076    1   DCL FIRST_REP UBIN WORD;
     4202     1077    1   DCL LAST_REP UBIN WORD;
     4203     1078    1   DCL MAJBUF CHAR(32);
     4204     1079    1   DCL MINBUF CHAR(32);
     4205     1080    1   DCL MAJCOUNT SBIN WORD;
     4206     1081    1   DCL MINCOUNT SBIN WORD;
     4207     1082    1   DCL ERRLOG_DATE UBIN WORD STATIC;
     4208     1083    1   DCL BLANK_LINE CHAR(0) CONSTANT INIT('%10P');
     4209     1084    1   DCL EOF_FLAG BIT(1);
     4210     1085    1   DCL PRINT_HDR BIT(1);
     4211     1086    1   DCL NUM_LINES UBIN WORD;
     4212     1087    1   DCL PRINT_BLANK BIT(1);
     4213     1088    1   DCL LAST_DATE UBIN WORD;
     4214     1089    1   DCL FIRST_EDAC BIT(1);
     4215     1090    1   DCL PRINT_DATE CHAR(0) CONSTANT INIT(
     4216     1091    1   '(%8.36.1U)%10P');
     4217     1092    1   DCL CTL$ PTR;
     4218     1093    1   DCL TEXTBUF CHAR(256);
     4219     1094    1   DCL TEXT$ PTR;
     4220     1095    1   DCL 1 TVEC,
     4221     1096    1         2 BOUND UBIN(20) UNAL,
     4222     1097    1         2 * BIT(16),
     4223     1098    1         2 PTR$ PTR;
     4224     1099    1   DCL BOARD CHAR(1);
     4225     1100    1   DCL CHIP CHAR(3);
     4226     1101    1   DCL PERIPH_TITLE CHAR(0) CONSTANT INIT(
     4227     1102    1  '%2/Hardware Error Report (PERIPH) for %2P%T from %3P%14.36.2U to %4P%14.36.2U%2/%10
              1102        P');
     4228     1103    1   DCL FEP_TITLE CHAR(0) CONSTANT INIT(
     4229     1104    1  '%2/Hardware Error Report (FEP) for %2P%T from %3P%14.36.2U to %4P%14.36.2U%2/%10P')
              1104            ;
     4230     1105    1   DCL IOM_TITLE CHAR(0) CONSTANT INIT(
     4231     1106    1  '%2/Hardware Error Report (IOM) for %2P%T from %3P%14.36.2U to %4P%14.36.2U%2/%10P')
PL6.E3A0      #004=THF$HWE File=THF$FORMAT.:E05TSI                               WED 07/30/97 06:16 Page:830
              1106            ;
     4232     1107    1   DCL MPC_TITLE CHAR(0) CONSTANT INIT(
     4233     1108    1  '%2/Hardware Error Report (MPC) for %2P%T from %3P%14.36.2U to %4P%14.36.2U%2/%10P')
              1108            ;
     4234     1109    1   DCL MEM_TITLE CHAR(0) CONSTANT INIT(
     4235     1110    1  '%2/Hardware Error Report (MEM) for %2P%T from %3P%14.36.2U to %4P%14.36.2U%2/%10P')
              1110            ;
     4236     1111    1   DCL TITLE_VEC(0:5) BIT(72) CONSTANT INIT(VECTOR(NIL),
     4237     1112    1                                            VECTOR(MEM_TITLE),
     4238     1113    1                                            VECTOR(IOM_TITLE),
     4239     1114    1                                            VECTOR(FEP_TITLE),
     4240     1115    1                                            VECTOR(PERIPH_TITLE),
     4241     1116    1                                            VECTOR(MPC_TITLE));
     4242     1117        /**/
     4243     1118    1   DCL 1 EDAC_TABLE (0:255),
     4244     1119    1         2 * BIT(32) UNAL,
     4245     1120    1         2 MOSID BIT(4) UNAL,
     4246     1121    1         2 SYNDROME,
     4247     1122    1           3 A45 UBIN(2) UNAL,
     4248     1123    1           3 A678 UBIN(3) UNAL,
     4249     1124    1           3 * BIT(1) UNAL,
     4250     1125    1           3 NUMB UBIN(7) UNAL,
     4251     1126    1           3 ODDEVN BIT(1) UNAL,
     4252     1127    1           3 PORT# UBIN(2) UNAL,
     4253     1128    1           3 STORE# UBIN(2) UNAL,
     4254     1129    1         2 SYNDROME1 REDEF SYNDROME UBIN(18) UNAL,
     4255     1130    1         2 COUNT UBIN(18) UNAL,
     4256     1131    1         2 UTS UBIN WORD;
     4257     1132    1   DCL 1 STORE_MODE,
     4258     1133    1         2 * BIT(36) UNAL,
     4259     1134    1         2 SYNDROME,
     4260     1135    1           3 * BIT(14) UNAL,
     4261     1136    1           3 PORT# UBIN(2) UNAL,
     4262     1137    1           3 STORE# UBIN(2) UNAL,
     4263     1138    1         2 SYNDROME1 REDEF SYNDROME UBIN(18) UNAL,
     4264     1139    1         2 * BIT(18) UNAL;
     4265     1140    1   DCL TEMP(0:1) BIT(72) DALIGNED;
PL6.E3A0      #004=THF$HWE File=THF$FORMAT.:E05TSI                               WED 07/30/97 06:16 Page:831
     4266     1141        /**/
     4267     1142    1   DCL NEXT_ENTRY UBIN WORD STATIC INIT(0);
     4268     1143    1   DCL TH_HWE_FMT(0:0) PTR SYMREF;
     4269     1144        /**/
     4270     1145    1   DCL TEMP_UTS UBIN;
     4271     1146        /**/
     4272     1147        /* MACRO INVOCATIONS */
     4273     1148        %CTL (STCLASS="BASED(CTL$)");
     4274     1158        %EL$HDR (NAME=HDR,STCLASS="BASED(TH_HDR.PTR$)");
     4275     1214        %EL$EDAC (STCLASS="BASED(TH_INFO.PTR$)");
     4276     1223        %EL$IOERR (STCLASS="BASED(TH_INFO.PTR$)");
     4277     1233        %XUD$UTS_ENTRIES;
     4278     1265        %XUD_UTS_EQU;
     4279     1276        /**/
     4280     1277        /* FPTS */
     4281     1278        %FPT_TIME (SOURCE=UTS,
     4282     1279                        DEST=EXT,
     4283     1280                        DATE=TH_DATE,
     4284     1281                   TIME=TH_TIME);
     4285     1300        %FPT_TIME (FPTN=RECORD_DATE,
     4286     1301                   SOURCE=UTS,
     4287     1302                   DEST=EXT,
     4288     1303                   DATE=TH_DATE,
     4289     1304                   TIME=TH_TIME,
     4290     1305                   DAY=TH_DAY,
     4291     1306                   TSTAMP=TH_LASTUTS,
     4292     1307                   STCLASS=CONSTANT);
     4293     1326        /**/
     4294     1327        %EJECT;
PL6.E3A0      #004=THF$HWE File=THF$FORMAT.:E05TSI                               WED 07/30/97 06:16 Page:832
     4295     1328    1        IF CODE = 0

   1328  3 000002   200003 470500                    LDP0    @CODE,,AUTO
         3 000003   000000 235100                    LDA     0,,PR0
         3 000004   000012 601000 3                  TNZ     s:1336

     4296     1329    1           THEN                            /* ALL REPORTS                        */
     4297     1330    2           DO;

     4298     1331    2              FIRST_REP = %MEM;

   1331  3 000005   000001 236007                    LDQ     1,DL
         3 000006   200012 756100                    STQ     FIRST_REP,,AUTO

     4299     1332    2              LAST_REP = %MPC;

   1332  3 000007   000005 235007                    LDA     5,DL
         3 000010   200013 755100                    STA     LAST_REP,,AUTO

     4300     1333    2           END;

   1333  3 000011   000014 710000 3                  TRA     s:1339

     4301     1334    1           ELSE
     4302     1335    2           DO;

     4303     1336    2              FIRST_REP = CODE;

   1336  3 000012   200012 755100                    STA     FIRST_REP,,AUTO

     4304     1337    2              LAST_REP = CODE;

   1337  3 000013   200013 755100                    STA     LAST_REP,,AUTO

     4305     1338    2           END;

     4306     1339    1        FIRST_EDAC = %TRUE;
PL6.E3A0      #004=THF$HWE File=THF$FORMAT.:E05TSI                               WED 07/30/97 06:16 Page:833

   1339  3 000014   400000 236003                    LDQ     -131072,DU
         3 000015   200043 756100                    STQ     FIRST_EDAC,,AUTO

     4307     1340    2        DO REP_CODE = FIRST_REP TO LAST_REP;

   1340  3 000016   200012 235100                    LDA     FIRST_REP,,AUTO
         3 000017   200011 755100                    STA     REP_CODE,,AUTO
         3 000020   001414 710000 3                  TRA     ENDLOOP+3

     4308     1341    2           IF REP_CODE = %FEP OR REP_CODE = %IOM OR REP_CODE = %MPC

   1341  3 000021   200011 235100                    LDA     REP_CODE,,AUTO
         3 000022   000003 115007                    CMPA    3,DL
         3 000023   001411 600000 3                  TZE     ENDLOOP
         3 000024   000002 115007                    CMPA    2,DL
         3 000025   001411 600000 3                  TZE     ENDLOOP
         3 000026   000005 115007                    CMPA    5,DL
         3 000027   001411 600000 3                  TZE     ENDLOOP

     4309     1342    2              THEN GOTO ENDLOOP;  /* REPORTS UNIMPLIMENTED */
     4310     1343    2           IF CODE = 0 /* ALL */

   1343  3 000030   200003 470500                    LDP0    @CODE,,AUTO
         3 000031   000000 235100                    LDA     0,,PR0
         3 000032   000051 601000 3                  TNZ     s:1349

     4311     1344    2              THEN CALL THW$WRITE(TITLE_VEC(REP_CODE),

   1344  3 000033   000010 236000 4                  LDQ     8
         3 000034   201574 756100                    STQ     CHIP#+6,,AUTO
         3 000035   000012 237000 4                  LDAQ    10
         3 000036   201572 757100                    STAQ    CHIP#+4,,AUTO
         3 000037   000014 236000 4                  LDQ     12
         3 000040   201571 756100                    STQ     CHIP#+3,,AUTO
         3 000041   200011 236100                    LDQ     REP_CODE,,AUTO
         3 000042   000023 736000                    QLS     19
PL6.E3A0      #004=THF$HWE File=THF$FORMAT.:E05TSI                               WED 07/30/97 06:16 Page:834
         3 000043   000015 036000 4                  ADLQ    13
         3 000044   201570 756100                    STQ     CHIP#+2,,AUTO
         3 000045   201570 630500                    EPPR0   CHIP#+2,,AUTO
         3 000046   000023 631400 xsym               EPPR1   B_VECTNIL+19
         3 000047   000000 701000 xent               TSX1    THW$WRITE
         3 000050   000000 011000                    NOP     0

     4312     1345    2                                  VECTOR(TH_SITE_ID),
     4313     1346    2                                  VECTOR(TH_SITE_NAME),
     4314     1347    2                                  VECTOR(TH_CONSTRAINTS.START),
     4315     1348    2                                  VECTOR(TH_CONSTRAINTS.STOP));
     4316     1349    2           LAST_DATE = 1;

   1349  3 000051   000001 235007                    LDA     1,DL
         3 000052   200042 755100                    STA     LAST_DATE,,AUTO

     4317     1350    2           CTL$ = TH_HWE_FMT(REP_CODE);

   1350  3 000053   200011 720100                    LXL0    REP_CODE,,AUTO
         3 000054   000000 236010 xsym               LDQ     TH_HWE_FMT,X0
         3 000055   200044 756100                    STQ     CTL$,,AUTO

     4318     1351    2           PRINT_HDR = %TRUE;

   1351  3 000056   400000 236003                    LDQ     -131072,DU
         3 000057   200037 756100                    STQ     PRINT_HDR,,AUTO

     4319     1352    2          CALL XUD$UTS_DIFF_SEC (START_TIME, TH_CONSTRAINTS.START, 0);

   1352  3 000060   000016 236000 4                  LDQ     14
         3 000061   201572 756100                    STQ     CHIP#+4,,AUTO
         3 000062   000005 236000 4                  LDQ     5
         3 000063   201571 756100                    STQ     CHIP#+3,,AUTO
         3 000064   200004 630500                    EPPR0   START_TIME,,AUTO
         3 000065   201570 450500                    STP0    CHIP#+2,,AUTO
         3 000066   201570 630500                    EPPR0   CHIP#+2,,AUTO
         3 000067   000021 631400 xsym               EPPR1   B_VECTNIL+17
PL6.E3A0      #004=THF$HWE File=THF$FORMAT.:E05TSI                               WED 07/30/97 06:16 Page:835
         3 000070   000000 701000 xent               TSX1    XUD$UTS_DIFF_SEC
         3 000071   000000 011000                    NOP     0

     4320     1353    2          START_TIME = START_TIME / 86400;

   1353  3 000072   200004 236100                    LDQ     START_TIME,,AUTO
         3 000073   000001 772000                    QRL     1
         3 000074   124300 506007                    DIV     43200,DL
         3 000075   200004 756100                    STQ     START_TIME,,AUTO

     4321     1354    2          CALL XUD$UTS_ADJ_25TH (START_TIME, 0, START_TIME*%UTS_25TH_DAY#);

   1354  3 000076   000017 402000 4                  MPY     15
         3 000077   201570 756100                    STQ     CHIP#+2,,AUTO
         3 000100   201570 630500                    EPPR0   CHIP#+2,,AUTO
         3 000101   201573 450500                    STP0    CHIP#+5,,AUTO
         3 000102   000016 236000 4                  LDQ     14
         3 000103   201572 756100                    STQ     CHIP#+4,,AUTO
         3 000104   200004 631500                    EPPR1   START_TIME,,AUTO
         3 000105   201571 451500                    STP1    CHIP#+3,,AUTO
         3 000106   201571 630500                    EPPR0   CHIP#+3,,AUTO
         3 000107   000021 631400 xsym               EPPR1   B_VECTNIL+17
         3 000110   000000 701000 xent               TSX1    XUD$UTS_ADJ_25TH
         3 000111   000000 011000                    NOP     0

     4322     1355    2          CALL XUD$UTS_DIFF_SEC (STOP_TIME, TH_CONSTRAINTS.STOP, 0);

   1355  3 000112   000016 236000 4                  LDQ     14
         3 000113   201572 756100                    STQ     CHIP#+4,,AUTO
         3 000114   000007 236000 4                  LDQ     7
         3 000115   201571 756100                    STQ     CHIP#+3,,AUTO
         3 000116   200005 630500                    EPPR0   STOP_TIME,,AUTO
         3 000117   201570 450500                    STP0    CHIP#+2,,AUTO
         3 000120   201570 630500                    EPPR0   CHIP#+2,,AUTO
         3 000121   000021 631400 xsym               EPPR1   B_VECTNIL+17
         3 000122   000000 701000 xent               TSX1    XUD$UTS_DIFF_SEC
         3 000123   000000 011000                    NOP     0
PL6.E3A0      #004=THF$HWE File=THF$FORMAT.:E05TSI                               WED 07/30/97 06:16 Page:836

     4323     1356    2          STOP_TIME = STOP_TIME / 86400;

   1356  3 000124   200005 236100                    LDQ     STOP_TIME,,AUTO
         3 000125   000001 772000                    QRL     1
         3 000126   124300 506007                    DIV     43200,DL
         3 000127   200005 756100                    STQ     STOP_TIME,,AUTO

     4324     1357    2          CALL XUD$UTS_ADJ_25TH (STOP_TIME, 0, STOP_TIME*%UTS_25TH_DAY#);

   1357  3 000130   000017 402000 4                  MPY     15
         3 000131   201570 756100                    STQ     CHIP#+2,,AUTO
         3 000132   201570 630500                    EPPR0   CHIP#+2,,AUTO
         3 000133   201573 450500                    STP0    CHIP#+5,,AUTO
         3 000134   000016 236000 4                  LDQ     14
         3 000135   201572 756100                    STQ     CHIP#+4,,AUTO
         3 000136   200005 631500                    EPPR1   STOP_TIME,,AUTO
         3 000137   201571 451500                    STP1    CHIP#+3,,AUTO
         3 000140   201571 630500                    EPPR0   CHIP#+3,,AUTO
         3 000141   000021 631400 xsym               EPPR1   B_VECTNIL+17
         3 000142   000000 701000 xent               TSX1    XUD$UTS_ADJ_25TH
         3 000143   000000 011000                    NOP     0

     4325     1358    2          ERRLOG_DATE = START_TIME;

   1358  3 000144   200004 235100                    LDA     START_TIME,,AUTO
         3 000145   000000 755000 1                  STA     ERRLOG_DATE

     4326     1359    3          DO WHILE (ERRLOG_DATE <= STOP_TIME);

   1359  3 000146   200005 236100                    LDQ     STOP_TIME,,AUTO
         3 000147   000000 116000 1                  CMPQ    ERRLOG_DATE
         3 000150   000703 602000 3                  TNC     s:1472

     4327     1360    3              CALL THG$OPENXSA(ERRLOG_DATE) ALTRET(NOT_THERE);

   1360  3 000151   000020 630400 4                  EPPR0   16
PL6.E3A0      #004=THF$HWE File=THF$FORMAT.:E05TSI                               WED 07/30/97 06:16 Page:837
         3 000152   000017 631400 xsym               EPPR1   B_VECTNIL+15
         3 000153   000000 701000 xent               TSX1    THG$OPENXSA
         3 000154   000673 702000 3                  TSX2    NOT_THERE

     4328     1361    4              DO CASE(REP_CODE);

   1361  3 000155   200011 235100                    LDA     REP_CODE,,AUTO
         3 000156   000005 115007                    CMPA    5,DL
         3 000157   000161 602005 3                  TNC     s:1361+4,AL
         3 000160   000672 710000 3                  TRA     s:1467
         3 000161   000672 710000 3                  TRA     s:1467
         3 000162   000510 710000 3                  TRA     s:1424
         3 000163   000672 710000 3                  TRA     s:1467
         3 000164   000672 710000 3                  TRA     s:1467
         3 000165   000166 710000 3                  TRA     s:1363

     4329     1362    4                 CASE(%PERIPH);

     4330     1363    4                    PRINT_BLANK = %FALSE;

   1363  3 000166   200041 450100                    STZ     PRINT_BLANK,,AUTO

     4331     1364    4                    TH_CONSTRAINTS.NTYPES = 1;

   1364  3 000167   000001 236007                    LDQ     1,DL
         3 000170   000000 756000 xsym               STQ     TH_CONSTRAINTS

     4332     1365    4                    TH_CONSTRAINTS.TYPES(0) = EL_IOERR;

   1365  3 000171   311000 236003                    LDQ     102912,DU
         3 000172   000001 552040 xsym               STBQ    TH_CONSTRAINTS+1,'40'O

     4333     1366    5                    DO I = 0 TO TH_NUM_REP_DEVS - 1;

   1366  3 000173   200006 450100                    STZ     I,,AUTO
         3 000174   000503 710000 3                  TRA     s:1416+1

PL6.E3A0      #004=THF$HWE File=THF$FORMAT.:E05TSI                               WED 07/30/97 06:16 Page:838
     4334     1367    5                       TH_BOF = %YES;

   1367  3 000175   400000 236003                    LDQ     -131072,DU
         3 000176   000000 756000 xsym               STQ     TH_BOF

     4335     1368    5                       EOF_FLAG = %FALSE;

   1368  3 000177   200036 450100                    STZ     EOF_FLAG,,AUTO

     4336     1369    5                       NUM_LINES = 0;

   1369  3 000200   200040 450100                    STZ     NUM_LINES,,AUTO

     4337     1370    5                       TH_CONSTRAINTS.DEVNM = TH_REP_DEVS(I);

   1370  3 000201   200006 235100                    LDA     I,,AUTO
         3 000202   000003 735000                    ALS     3
         3 000203   040000 100405                    MLR     fill='040'O
         3 000204   000000 000010 xsym               ADSC9   TH_REP_DEVS,A            cn=0,n=8
         3 000205   000010 000010 xsym               ADSC9   TH_CONSTRAINTS+8         cn=0,n=8

     4338     1371    5                       IF TH_CONSTRAINTS.DEVNM ~= ' '

   1371  3 000206   000010 237000 xsym               LDAQ    TH_CONSTRAINTS+8
         3 000207   000022 117000 4                  CMPAQ   18
         3 000210   000214 600000 3                  TZE     s:1373

     4339     1372    5                       THEN TH_CHECK_DEVNM = '1'B;

   1372  3 000211   400000 236003                    LDQ     -131072,DU
         3 000212   000000 756000 xsym               STQ     TH_CHECK_DEVNM
         3 000213   000215 710000 3                  TRA     s:1374

     4340     1373    5                       ELSE TH_CHECK_DEVNM = '0'B;

   1373  3 000214   000000 450000 xsym               STZ     TH_CHECK_DEVNM

PL6.E3A0      #004=THF$HWE File=THF$FORMAT.:E05TSI                               WED 07/30/97 06:16 Page:839
     4341     1374    6                       DO WHILE(NOT EOF_FLAG);

   1374  3 000215   000474 710000 3                  TRA     s:1413

     4342     1375    6                          CALL THG$GETREC(%ERRLOG) ALTRET(PERIPH_EOF);

   1375  3 000216   000024 630400 4                  EPPR0   20
         3 000217   000017 631400 xsym               EPPR1   B_VECTNIL+15
         3 000220   000000 701000 xent               TSX1    THG$GETREC
         3 000221   000472 702000 3                  TSX2    PERIPH_EOF

     4343     1376    7                          IF PRINT_HDR THEN DO;

   1376  3 000222   200037 234100                    SZN     PRINT_HDR,,AUTO
         3 000223   000247 605000 3                  TPL     s:1382

     4344     1377    7                             PRINT_HDR = %FALSE;

   1377  3 000224   200037 450100                    STZ     PRINT_HDR,,AUTO

     4345     1378    8                             DO J = 1 TO CTL.NHDR;

   1378  3 000225   000001 235007                    LDA     1,DL
         3 000226   200007 755100                    STA     J,,AUTO
         3 000227   000242 710000 3                  TRA     s:1380+1

     4346     1379    8                                CALL THW$WRITE(CTL.FMT(J));

   1379  3 000230   200007 236100                    LDQ     J,,AUTO
         3 000231   000023 736000                    QLS     19
         3 000232   000002 036003                    ADLQ    2,DU
         3 000233   200044 036100                    ADLQ    CTL$,,AUTO
         3 000234   201570 756100                    STQ     CHIP#+2,,AUTO
         3 000235   201570 630500                    EPPR0   CHIP#+2,,AUTO
         3 000236   000017 631400 xsym               EPPR1   B_VECTNIL+15
         3 000237   000000 701000 xent               TSX1    THW$WRITE
         3 000240   000000 011000                    NOP     0
PL6.E3A0      #004=THF$HWE File=THF$FORMAT.:E05TSI                               WED 07/30/97 06:16 Page:840

     4347     1380    8                                END;  /* DO J */

   1380  3 000241   200007 054100                    AOS     J,,AUTO
         3 000242   200044 470500                    LDP0    CTL$,,AUTO
         3 000243   000000 236100                    LDQ     0,,PR0
         3 000244   000033 772000                    QRL     27
         3 000245   200007 116100                    CMPQ    J,,AUTO
         3 000246   000230 605000 3                  TPL     s:1379

     4348     1381    7                             END;  /* IF PRINT_HDR */

     4349     1382    6                          CALL XUD$UTS_DIFF_SEC (TEMP_UTS, HDR.UTS, 0);

   1382  3 000247   000016 236000 4                  LDQ     14
         3 000250   201572 756100                    STQ     CHIP#+4,,AUTO
         3 000251   000001 236000 xsym               LDQ     TH_HDR+1
         3 000252   600000 036007                    ADLQ    -65536,DL
         3 000253   201571 756100                    STQ     CHIP#+3,,AUTO
         3 000254   201560 630500                    EPPR0   TEMP_UTS,,AUTO
         3 000255   201570 450500                    STP0    CHIP#+2,,AUTO
         3 000256   201570 630500                    EPPR0   CHIP#+2,,AUTO
         3 000257   000021 631400 xsym               EPPR1   B_VECTNIL+17
         3 000260   000000 701000 xent               TSX1    XUD$UTS_DIFF_SEC
         3 000261   000000 011000                    NOP     0

     4350     1383    6                          TEMP_UTS = TEMP_UTS / 86400;

   1383  3 000262   201560 236100                    LDQ     TEMP_UTS,,AUTO
         3 000263   000001 772000                    QRL     1
         3 000264   124300 506007                    DIV     43200,DL
         3 000265   201560 756100                    STQ     TEMP_UTS,,AUTO

     4351     1384    7                          IF TEMP_UTS ~= LAST_DATE THEN DO;

   1384  3 000266   200042 116100                    CMPQ    LAST_DATE,,AUTO
         3 000267   000323 600000 3                  TZE     s:1390
PL6.E3A0      #004=THF$HWE File=THF$FORMAT.:E05TSI                               WED 07/30/97 06:16 Page:841

     4352     1385    7                             CALL THW$WRITE(VECTOR(PRINT_DATE),

   1385  3 000270   777640 235007                    LDA     -96,DL
         3 000271   000001 236000 xsym               LDQ     TH_HDR+1
         3 000272   600000 036007                    ADLQ    -65536,DL
         3 000273   201570 757100                    STAQ    CHIP#+2,,AUTO
         3 000274   201570 630500                    EPPR0   CHIP#+2,,AUTO
         3 000275   201573 450500                    STP0    CHIP#+5,,AUTO
         3 000276   000030 236000 4                  LDQ     24
         3 000277   201572 756100                    STQ     CHIP#+4,,AUTO
         3 000300   201572 630500                    EPPR0   CHIP#+4,,AUTO
         3 000301   000020 631400 xsym               EPPR1   B_VECTNIL+16
         3 000302   000000 701000 xent               TSX1    THW$WRITE
         3 000303   000000 011000                    NOP     0

     4353     1386    7                                            VECTOR(HDR.UTS));
     4354     1387    7                             CALL XUD$UTS_DIFF_SEC (LAST_DATE, HDR.UTS, 0);

   1387  3 000304   000016 236000 4                  LDQ     14
         3 000305   201572 756100                    STQ     CHIP#+4,,AUTO
         3 000306   000001 236000 xsym               LDQ     TH_HDR+1
         3 000307   600000 036007                    ADLQ    -65536,DL
         3 000310   201571 756100                    STQ     CHIP#+3,,AUTO
         3 000311   200042 630500                    EPPR0   LAST_DATE,,AUTO
         3 000312   201570 450500                    STP0    CHIP#+2,,AUTO
         3 000313   201570 630500                    EPPR0   CHIP#+2,,AUTO
         3 000314   000021 631400 xsym               EPPR1   B_VECTNIL+17
         3 000315   000000 701000 xent               TSX1    XUD$UTS_DIFF_SEC
         3 000316   000000 011000                    NOP     0

     4355     1388    7                             LAST_DATE = LAST_DATE / 86400;

   1388  3 000317   200042 236100                    LDQ     LAST_DATE,,AUTO
         3 000320   000001 772000                    QRL     1
         3 000321   124300 506007                    DIV     43200,DL
         3 000322   200042 756100                    STQ     LAST_DATE,,AUTO
PL6.E3A0      #004=THF$HWE File=THF$FORMAT.:E05TSI                               WED 07/30/97 06:16 Page:842

     4356     1389    7                             END;  /* IF UTS ~= LAST_DATE */

     4357     1390    6                          IF PRINT_BLANK

   1390  3 000323   200041 234100                    SZN     PRINT_BLANK,,AUTO
         3 000324   000332 605000 3                  TPL     s:1396

     4358     1391    6                             THEN
     4359     1392    7                             DO;

     4360     1393    7                                CALL THW$WRITE(VECTOR(BLANK_LINE));

   1393  3 000325   000034 630400 4                  EPPR0   28
         3 000326   000017 631400 xsym               EPPR1   B_VECTNIL+15
         3 000327   000000 701000 xent               TSX1    THW$WRITE
         3 000330   000000 011000                    NOP     0

     4361     1394    7                                PRINT_BLANK = %FALSE;

   1394  3 000331   200041 450100                    STZ     PRINT_BLANK,,AUTO

     4362     1395    7                             END;  /* IF PRINT_BLANK */

     4363     1396    6                          NUM_LINES = NUM_LINES + 1;

   1396  3 000332   200040 235100                    LDA     NUM_LINES,,AUTO
         3 000333   000001 035007                    ADLA    1,DL
         3 000334   200040 755100                    STA     NUM_LINES,,AUTO

     4364     1397
     4365     1398    6                          TVEC = VECTOR(NIL);

   1398  3 000335   000036 237000 4                  LDAQ    30
         3 000336   200146 757100                    STAQ    TVEC,,AUTO

     4366     1399    6                          TEXT$ = ADDR(TEXTBUF);
PL6.E3A0      #004=THF$HWE File=THF$FORMAT.:E05TSI                               WED 07/30/97 06:16 Page:843

   1399  3 000337   200045 630500                    EPPR0   TEXTBUF,,AUTO
         3 000340   200145 450500                    STP0    TEXT$,,AUTO

     4367     1400    6                          CALL THF$STATUS(EL$IOERR,MAJBUF,MAJCOUNT,MINBUF,MINCOUNT)
              1400                                   ALTRET(NO_STATUS);

   1400  3 000341   200035 631500                    EPPR1   MINCOUNT,,AUTO
         3 000342   201574 451500                    STP1    CHIP#+6,,AUTO
         3 000343   200024 633500                    EPPR3   MINBUF,,AUTO
         3 000344   201573 453500                    STP3    CHIP#+5,,AUTO
         3 000345   200034 634500                    EPPR4   MAJCOUNT,,AUTO
         3 000346   201572 454500                    STP4    CHIP#+4,,AUTO
         3 000347   200014 635500                    EPPR5   MAJBUF,,AUTO
         3 000350   201571 455500                    STP5    CHIP#+3,,AUTO
         3 000351   000001 236000 xsym               LDQ     TH_INFO+1
         3 000352   201570 756100                    STQ     CHIP#+2,,AUTO
         3 000353   201570 630500                    EPPR0   CHIP#+2,,AUTO
         3 000354   000023 631400 xsym               EPPR1   B_VECTNIL+19
         3 000355   000000 701000 xent               TSX1    THF$STATUS
         3 000356   000425 702000 3                  TSX2    NO_STATUS

     4368     1401    6                          CALL THF$ADD_TEXTC(TEXT$,MAJBUF,MAJCOUNT);

   1401  3 000357   200034 630500                    EPPR0   MAJCOUNT,,AUTO
         3 000360   201572 450500                    STP0    CHIP#+4,,AUTO
         3 000361   200014 631500                    EPPR1   MAJBUF,,AUTO
         3 000362   201571 451500                    STP1    CHIP#+3,,AUTO
         3 000363   200145 633500                    EPPR3   TEXT$,,AUTO
         3 000364   201570 453500                    STP3    CHIP#+2,,AUTO
         3 000365   201570 630500                    EPPR0   CHIP#+2,,AUTO
         3 000366   000021 631400 xsym               EPPR1   B_VECTNIL+17
         3 000367   000000 701000 xent               TSX1    THF$ADD_TEXTC
         3 000370   000000 011000                    NOP     0

     4369     1402    6                          CALL THF$ADD_TEXTC(TEXT$,MINBUF,MINCOUNT);

PL6.E3A0      #004=THF$HWE File=THF$FORMAT.:E05TSI                               WED 07/30/97 06:16 Page:844
   1402  3 000371   200035 630500                    EPPR0   MINCOUNT,,AUTO
         3 000372   201572 450500                    STP0    CHIP#+4,,AUTO
         3 000373   200024 631500                    EPPR1   MINBUF,,AUTO
         3 000374   201571 451500                    STP1    CHIP#+3,,AUTO
         3 000375   200145 633500                    EPPR3   TEXT$,,AUTO
         3 000376   201570 453500                    STP3    CHIP#+2,,AUTO
         3 000377   201570 630500                    EPPR0   CHIP#+2,,AUTO
         3 000400   000021 631400 xsym               EPPR1   B_VECTNIL+17
         3 000401   000000 701000 xent               TSX1    THF$ADD_TEXTC
         3 000402   000000 011000                    NOP     0

     4370     1403    6                          TVEC = VECTOR(TEXTBUF);

   1403  3 000403   000040 235000 4                  LDA     32
         3 000404   201570 452500                    STP2    CHIP#+2,,AUTO
         3 000405   201570 236100                    LDQ     CHIP#+2,,AUTO
         3 000406   000045 036003                    ADLQ    37,DU
         3 000407   200146 757100                    STAQ    TVEC,,AUTO

     4371     1404    6                          TVEC.BOUND = POFFC(TEXT$,ADDR(TEXTBUF)) - 1;

   1404  3 000410   201570 452500                    STP2    CHIP#+2,,AUTO
         3 000411   201570 236100                    LDQ     CHIP#+2,,AUTO
         3 000412   000045 036003                    ADLQ    37,DU
         3 000413   000020 772000                    QRL     16
         3 000414   201571 756100                    STQ     CHIP#+3,,AUTO
         3 000415   200145 236100                    LDQ     TEXT$,,AUTO
         3 000416   000020 772000                    QRL     16
         3 000417   201571 136100                    SBLQ    CHIP#+3,,AUTO
         3 000420   000001 136007                    SBLQ    1,DL
         3 000421   000020 736000                    QLS     16
         3 000422   200146 676100                    ERQ     TVEC,,AUTO
         3 000423   000034 376000 xsym               ANQ     B_VECTNIL+28
         3 000424   200146 656100                    ERSQ    TVEC,,AUTO

   1404  3 000425                       NO_STATUS    null
     4372     1405    6              NO_STATUS: ;
PL6.E3A0      #004=THF$HWE File=THF$FORMAT.:E05TSI                               WED 07/30/97 06:16 Page:845
     4373     1406    6                          CALL M$TIME(RECORD_DATE);

   1406  3 000425   000172 630400 2                  EPPR0   RECORD_DATE
         3 000426   020004 713400                    CLIMB   8196
         3 000427   402000 401760                    pmme    nvectors=5

     4374     1407    7                          DO J = CTL.NHDR + 1 TO CTL.NHDR + CTL.NFMT;

   1407  3 000430   200044 470500                    LDP0    CTL$,,AUTO
         3 000431   000000 236100                    LDQ     0,,PR0
         3 000432   000033 772000                    QRL     27
         3 000433   000001 036007                    ADLQ    1,DL
         3 000434   200007 756100                    STQ     J,,AUTO
         3 000435   000456 710000 3                  TRA     s:1409+1

     4375     1408    7                             CALL THW$WRITE(CTL.FMT(J),VECTOR(TH_TIME),TH_INFO,TVEC);

   1408  3 000436   200146 630500                    EPPR0   TVEC,,AUTO
         3 000437   201573 450500                    STP0    CHIP#+5,,AUTO
         3 000440   000041 236000 4                  LDQ     33
         3 000441   201572 756100                    STQ     CHIP#+4,,AUTO
         3 000442   000044 236000 4                  LDQ     36
         3 000443   201571 756100                    STQ     CHIP#+3,,AUTO
         3 000444   200007 236100                    LDQ     J,,AUTO
         3 000445   000023 736000                    QLS     19
         3 000446   000002 036003                    ADLQ    2,DU
         3 000447   200044 036100                    ADLQ    CTL$,,AUTO
         3 000450   201570 756100                    STQ     CHIP#+2,,AUTO
         3 000451   201570 630500                    EPPR0   CHIP#+2,,AUTO
         3 000452   000022 631400 xsym               EPPR1   B_VECTNIL+18
         3 000453   000000 701000 xent               TSX1    THW$WRITE
         3 000454   000000 011000                    NOP     0

     4376     1409    7                          END;             /* DO J                               */

   1409  3 000455   200007 054100                    AOS     J,,AUTO
         3 000456   200044 470500                    LDP0    CTL$,,AUTO
PL6.E3A0      #004=THF$HWE File=THF$FORMAT.:E05TSI                               WED 07/30/97 06:16 Page:846
         3 000457   000000 236100                    LDQ     0,,PR0
         3 000460   000022 772000                    QRL     18
         3 000461   000777 376007                    ANQ     511,DL
         3 000462   201570 756100                    STQ     CHIP#+2,,AUTO
         3 000463   000000 236100                    LDQ     0,,PR0
         3 000464   000033 772000                    QRL     27
         3 000465   201570 036100                    ADLQ    CHIP#+2,,AUTO
         3 000466   000436 604000 3                  TMI     s:1408
         3 000467   200007 116100                    CMPQ    J,,AUTO
         3 000470   000436 605000 3                  TPL     s:1408

     4377     1410    7                          DO NEVER;

   1410  3 000471   000474 710000 3                  TRA     s:1413

     4378     1411    7                PERIPH_EOF:  EOF_FLAG = %TRUE;

   1411  3 000472   400000 236003       PERIPH_EOF   LDQ     -131072,DU
         3 000473   200036 756100                    STQ     EOF_FLAG,,AUTO

     4379     1412    7                          END;             /* DO NEVER                           */

     4380     1413    6                       END;                /* DO WHILE NOT EOF_FLAG              */

   1413  3 000474   200036 234100                    SZN     EOF_FLAG,,AUTO
         3 000475   000216 605000 3                  TPL     s:1375

     4381     1414    5                       IF NUM_LINES > 0

   1414  3 000476   200040 235100                    LDA     NUM_LINES,,AUTO
         3 000477   000502 600000 3                  TZE     s:1416

     4382     1415    5                          THEN PRINT_BLANK = %TRUE;

   1415  3 000500   400000 236003                    LDQ     -131072,DU
         3 000501   200041 756100                    STQ     PRINT_BLANK,,AUTO

PL6.E3A0      #004=THF$HWE File=THF$FORMAT.:E05TSI                               WED 07/30/97 06:16 Page:847
     4383     1416    5                    END;                   /* DO I                               */

   1416  3 000502   200006 054100                    AOS     I,,AUTO
         3 000503   200006 236100                    LDQ     I,,AUTO
         3 000504   000175 604000 3                  TMI     s:1367
         3 000505   000000 116000 xsym               CMPQ    TH_NUM_REP_DEVS
         3 000506   000175 602000 3                  TNC     s:1367
         3 000507   000672 710000 3                  TRA     s:1467

     4384     1417    4                 CASE(%FEP);

     4385     1418                                     /* FEP REPORT - UNIMPLIMENTED IN B00 */
     4386     1419    4                 CASE(%IOM);

     4387     1420                                                /* CODE FOR THIS GUY                  */
     4388     1421    4                 CASE(%MPC);

     4389     1422                          /* CODE FOR MPC REPORT */
     4390     1423    4                 CASE(%MEM);               /* EDAC REPORT                        */

     4391     1424    5                    IF FIRST_EDAC THEN DO;

   1424  3 000510   200043 234100                    SZN     FIRST_EDAC,,AUTO
         3 000511   000530 605000 3                  TPL     s:1434

     4392     1425    5                       FIRST_EDAC = %FALSE;

   1425  3 000512   200043 450100                    STZ     FIRST_EDAC,,AUTO

     4393     1426    5                       EDAC_TABLE = '0'B;

   1426  3 000513   000100 100400                    MLR     fill='000'O
         3 000514   000002 000001 xsym               ADSC9   B_VECTNIL+2              cn=0,n=1
         3 000515   200152 006000                    ADSC9   EDAC_TABLE,,AUTO         cn=0,n=3072

     4394     1427    5                       TH_CONSTRAINTS.NTYPES = 1;

PL6.E3A0      #004=THF$HWE File=THF$FORMAT.:E05TSI                               WED 07/30/97 06:16 Page:848
   1427  3 000516   000001 236007                    LDQ     1,DL
         3 000517   000000 756000 xsym               STQ     TH_CONSTRAINTS

     4395     1428    5                       TH_CONSTRAINTS.TYPES(0) = EL_EDAC;

   1428  3 000520   312000 236003                    LDQ     103424,DU
         3 000521   000001 552040 xsym               STBQ    TH_CONSTRAINTS+1,'40'O

     4396     1429    5                       TH_CONSTRAINTS.DEVNM = ' ';

   1429  3 000522   000035 235000 xsym               LDA     B_VECTNIL+29
         3 000523   000035 236000 xsym               LDQ     B_VECTNIL+29
         3 000524   000010 757000 xsym               STAQ    TH_CONSTRAINTS+8

     4397     1430    5                       TH_CHECK_DEVNM = '0'B;

   1430  3 000525   000000 450000 xsym               STZ     TH_CHECK_DEVNM

     4398     1431    5                       NUM_EDACS = 0;

   1431  3 000526   200010 450100                    STZ     NUM_EDACS,,AUTO

     4399     1432    5                       NEXT_ENTRY = 0;

   1432  3 000527   000001 450000 1                  STZ     NEXT_ENTRY

     4400     1433    5                       END;  /* IF */

     4401     1434    4                    TH_BOF = %YES;

   1434  3 000530   400000 236003                    LDQ     -131072,DU
         3 000531   000000 756000 xsym               STQ     TH_BOF

     4402     1435    4                    EOF_FLAG = %FALSE;

   1435  3 000532   200036 450100                    STZ     EOF_FLAG,,AUTO

PL6.E3A0      #004=THF$HWE File=THF$FORMAT.:E05TSI                               WED 07/30/97 06:16 Page:849
     4403     1436    5                    DO WHILE(NOT EOF_FLAG);

   1436  3 000533   000663 710000 3                  TRA     s:1462

     4404     1437    5                       CALL THG$GETREC(%ERRLOG) ALTRET(EOF);

   1437  3 000534   000024 630400 4                  EPPR0   20
         3 000535   000017 631400 xsym               EPPR1   B_VECTNIL+15
         3 000536   000000 701000 xent               TSX1    THG$GETREC
         3 000537   000661 702000 3                  TSX2    EOF

     4405     1438    5                       STORE_MODE = EL$EDAC.STORE_MODE;

   1438  3 000540   000001 470400 xsym               LDP0    TH_INFO+1
         3 000541   000100 100500                    MLR     fill='000'O
         3 000542   000003 000010                    ADSC9   3,,PR0                   cn=0,n=8
         3 000543   201552 000010                    ADSC9   STORE_MODE,,AUTO         cn=0,n=8

     4406     1439    5                       STORE_MODE.SYNDROME.PORT# = EL$EDAC.PORT#;

   1439  3 000544   000010 236100                    LDQ     8,,PR0
         3 000545   000015 772000                    QRL     13
         3 000546   201553 676100                    ERQ     STORE_MODE+1,,AUTO
         3 000547   000014 376003                    ANQ     12,DU
         3 000550   201553 656100                    ERSQ    STORE_MODE+1,,AUTO

     4407     1440    5                       STORE_MODE.SYNDROME.STORE# = EL$EDAC.STORE_UNIT;

   1440  3 000551   000010 236100                    LDQ     8,,PR0
         3 000552   000014 772000                    QRL     12
         3 000553   201553 676100                    ERQ     STORE_MODE+1,,AUTO
         3 000554   000003 376003                    ANQ     3,DU
         3 000555   201553 656100                    ERSQ    STORE_MODE+1,,AUTO

     4408     1441    6                       DO J = 0 TO 255;

   1441  3 000556   200007 450100                    STZ     J,,AUTO
PL6.E3A0      #004=THF$HWE File=THF$FORMAT.:E05TSI                               WED 07/30/97 06:16 Page:850

     4409     1442    7                          IF EDAC_TABLE.SYNDROME1(J) = STORE_MODE.SYNDROME1 THEN DO;

   1442  3 000557   200007 236100                    LDQ     J,,AUTO
         3 000560   000003 402007                    MPY     3,DL
         3 000561   200153 220106                    LDX0    EDAC_TABLE+1,QL,AUTO
         3 000562   201553 100100                    CMPX0   STORE_MODE+1,,AUTO
         3 000563   000576 601000 3                  TNZ     s:1448

     4410     1443    7                             EDAC_TABLE.COUNT(J) = EDAC_TABLE.COUNT(J) + 1;

   1443  3 000564   200153 721106                    LXL1    EDAC_TABLE+1,QL,AUTO
         3 000565   000001 622011                    EAX2    1,X1
         3 000566   200153 442106                    SXL2    EDAC_TABLE+1,QL,AUTO

     4411     1444    7                             EDAC_TABLE.UTS(J) = HDR.UTS;

   1444  3 000567   000001 470400 xsym               LDP0    TH_HDR+1
         3 000570   000000 235100                    LDA     0,,PR0
         3 000571   000000 620006                    EAX0    0,QL
         3 000572   000001 236100                    LDQ     1,,PR0
         3 000573   000011 773000                    LRL     9
         3 000574   200154 756110                    STQ     EDAC_TABLE+2,X0,AUTO

     4412     1445    7                             GOTO FOUND_IT;

   1445  3 000575   000660 710000 3                  TRA     FOUND_IT

     4413     1446    7                             END;  /* IF */
     4414     1447    6                          ELSE
     4415     1448    6                            IF (EDAC_TABLE.COUNT(J) < EDAC_TABLE.COUNT(NEXT_ENTRY)) OR

   1448  3 000576   000001 236000 1                  LDQ     NEXT_ENTRY
         3 000577   000003 402007                    MPY     3,DL
         3 000600   200153 236106                    LDQ     EDAC_TABLE+1,QL,AUTO
         3 000601   777777 376007                    ANQ     -1,DL
         3 000602   201570 756100                    STQ     CHIP#+2,,AUTO
PL6.E3A0      #004=THF$HWE File=THF$FORMAT.:E05TSI                               WED 07/30/97 06:16 Page:851
         3 000603   200007 236100                    LDQ     J,,AUTO
         3 000604   000003 402007                    MPY     3,DL
         3 000605   200153 236106                    LDQ     EDAC_TABLE+1,QL,AUTO
         3 000606   777777 376007                    ANQ     -1,DL
         3 000607   201570 116100                    CMPQ    CHIP#+2,,AUTO
         3 000610   000627 604000 3                  TMI     s:1451
         3 000611   000001 236000 1                  LDQ     NEXT_ENTRY
         3 000612   000003 402007                    MPY     3,DL
         3 000613   000000 620006                    EAX0    0,QL
         3 000614   200007 236100                    LDQ     J,,AUTO
         3 000615   000003 402007                    MPY     3,DL
         3 000616   200153 236106                    LDQ     EDAC_TABLE+1,QL,AUTO
         3 000617   200153 676110                    ERQ     EDAC_TABLE+1,X0,AUTO
         3 000620   777777 376007                    ANQ     -1,DL
         3 000621   000631 601000 3                  TNZ     s:1452
         3 000622   200007 236100                    LDQ     J,,AUTO
         3 000623   000003 402007                    MPY     3,DL
         3 000624   200154 236106                    LDQ     EDAC_TABLE+2,QL,AUTO
         3 000625   200154 116110                    CMPQ    EDAC_TABLE+2,X0,AUTO
         3 000626   000631 603000 3                  TRC     s:1452

     4416     1449    6                               (EDAC_TABLE.COUNT(J) = EDAC_TABLE.COUNT(NEXT_ENTRY) AND
     4417     1450    6                                EDAC_TABLE.UTS(J) < EDAC_TABLE.UTS(NEXT_ENTRY))
     4418     1451    6                             THEN NEXT_ENTRY = J;

   1451  3 000627   200007 235100                    LDA     J,,AUTO
         3 000630   000001 755000 1                  STA     NEXT_ENTRY

     4419     1452    6                          END;  /* DO J */

   1452  3 000631   200007 054100                    AOS     J,,AUTO
         3 000632   200007 235100                    LDA     J,,AUTO
         3 000633   000377 115007                    CMPA    255,DL
         3 000634   000557 604400 3                  TMOZ    s:1442

     4420     1453    5                       EDAC_TABLE.SYNDROME1(NEXT_ENTRY) = STORE_MODE.SYNDROME1;

PL6.E3A0      #004=THF$HWE File=THF$FORMAT.:E05TSI                               WED 07/30/97 06:16 Page:852
   1453  3 000635   000001 236000 1                  LDQ     NEXT_ENTRY
         3 000636   000003 402007                    MPY     3,DL
         3 000637   201553 220100                    LDX0    STORE_MODE+1,,AUTO
         3 000640   200153 740106                    STX0    EDAC_TABLE+1,QL,AUTO

     4421     1454    5                       EDAC_TABLE.COUNT(NEXT_ENTRY) = 1;

   1454  3 000641   000001 221003                    LDX1    1,DU
         3 000642   200153 441106                    SXL1    EDAC_TABLE+1,QL,AUTO

     4422     1455    5                       EDAC_TABLE.UTS(NEXT_ENTRY) = HDR.UTS;

   1455  3 000643   000001 470400 xsym               LDP0    TH_HDR+1
         3 000644   000000 235100                    LDA     0,,PR0
         3 000645   000000 622006                    EAX2    0,QL
         3 000646   000001 236100                    LDQ     1,,PR0
         3 000647   000011 773000                    LRL     9
         3 000650   200154 756112                    STQ     EDAC_TABLE+2,X2,AUTO

     4423     1456    5                       EDAC_TABLE.MOSID(NEXT_ENTRY) = EL$EDAC.STORE_MODE.MOSID;

   1456  3 000651   000001 471400 xsym               LDP1    TH_INFO+1
         3 000652   100004 236100                    LDQ     4,,PR1
         3 000653   000022 772000                    QRL     18
         3 000654   200152 676112                    ERQ     EDAC_TABLE,X2,AUTO
         3 000655   000017 376007                    ANQ     15,DL
         3 000656   200152 656112                    ERSQ    EDAC_TABLE,X2,AUTO

     4424     1457    5                       NUM_EDACS = NUM_EDACS + 1;

   1457  3 000657   200010 054100                    AOS     NUM_EDACS,,AUTO

     4425     1458    5           FOUND_IT:
     4426     1459    6                       DO NEVER;

   1459  3 000660   000663 710000 3     FOUND_IT     TRA     s:1462

PL6.E3A0      #004=THF$HWE File=THF$FORMAT.:E05TSI                               WED 07/30/97 06:16 Page:853
     4427     1460    6                   EOF:   EOF_FLAG = %TRUE;

   1460  3 000661   400000 236003       EOF          LDQ     -131072,DU
         3 000662   200036 756100                    STQ     EOF_FLAG,,AUTO

     4428     1461    6                       END;                /* DO NEVER                           */

     4429     1462    5                    END;                   /* DO WHILE NOT EOF_FLAG              */

   1462  3 000663   200036 234100                    SZN     EOF_FLAG,,AUTO
         3 000664   000534 605000 3                  TPL     s:1437

     4430     1463
     4431     1464    4                    IF NUM_EDACS > 256

   1464  3 000665   200010 235100                    LDA     NUM_EDACS,,AUTO
         3 000666   000400 115007                    CMPA    256,DL
         3 000667   000672 604400 3                  TMOZ    s:1467

     4432     1465    4                       THEN NUM_EDACS = 256;

   1465  3 000670   000400 236007                    LDQ     256,DL
         3 000671   200010 756100                    STQ     NUM_EDACS,,AUTO

     4433     1466    4              END;                         /* DO CASE(REP_CODE)                  */

     4434     1467    4              DO NEVER;

   1467  3 000672   000674 710000 3                  TRA     s:1470

     4435     1468    4     NOT_THERE:NUM_EDACS = 0;

   1468  3 000673   200010 450100       NOT_THERE    STZ     NUM_EDACS,,AUTO

     4436     1469    4              END;

     4437     1470    3              CALL XUD$UTS_ADJ_25TH(ERRLOG_DATE,ERRLOG_DATE,%UTS_25TH_DAY#);
PL6.E3A0      #004=THF$HWE File=THF$FORMAT.:E05TSI                               WED 07/30/97 06:16 Page:854

   1470  3 000674   000045 630400 4                  EPPR0   37
         3 000675   000021 631400 xsym               EPPR1   B_VECTNIL+17
         3 000676   000000 701000 xent               TSX1    XUD$UTS_ADJ_25TH
         3 000677   000000 011000                    NOP     0

     4438     1471    3           END;                            /* DO ERRLOG_DATE <= STOP */

   1471  3 000700   200005 236100                    LDQ     STOP_TIME,,AUTO
         3 000701   000000 116000 1                  CMPQ    ERRLOG_DATE
         3 000702   000151 603000 3                  TRC     s:1360

     4439     1472    3           DO CASE(REP_CODE);

   1472  3 000703   200011 235100                    LDA     REP_CODE,,AUTO
         3 000704   000002 115007                    CMPA    2,DL
         3 000705   000707 602005 3                  TNC     s:1472+4,AL
         3 000706   001411 710000 3                  TRA     ENDLOOP
         3 000707   001411 710000 3                  TRA     ENDLOOP
         3 000710   000711 710000 3                  TRA     s:1475

     4440     1473    3              CASE(%MEM);  /* NOW OUTPUT THE EDAC RECORDS */

     4441     1474                      /* SORT EDAC TABLE BY UTS */
     4442     1475    4                 DO I = 1 TO NUM_EDACS - 1;

   1475  3 000711   000001 235007                    LDA     1,DL
         3 000712   200006 755100                    STA     I,,AUTO
         3 000713   000746 710000 3                  TRA     s:1485+1

     4443     1476    5                    DO J = 1 TO NUM_EDACS - I;

   1476  3 000714   000001 235007                    LDA     1,DL
         3 000715   200007 755100                    STA     J,,AUTO
         3 000716   000741 710000 3                  TRA     s:1484+1

     4444     1477    5                       IF EDAC_TABLE.UTS(J-1) > EDAC_TABLE.UTS(J)
PL6.E3A0      #004=THF$HWE File=THF$FORMAT.:E05TSI                               WED 07/30/97 06:16 Page:855

   1477  3 000717   200007 236100                    LDQ     J,,AUTO
         3 000720   000003 402007                    MPY     3,DL
         3 000721   000000 620006                    EAX0    0,QL
         3 000722   200154 236110                    LDQ     EDAC_TABLE+2,X0,AUTO
         3 000723   200151 116110                    CMPQ    CHIP,X0,AUTO
         3 000724   000740 603000 3                  TRC     s:1484

     4445     1478    5                          THEN          /* SWITCH EM                          */
     4446     1479    6                          DO;

     4447     1480    6                             TEMP = EDAC_TABLE(J-1);

   1480  3 000725   200007 236100                    LDQ     J,,AUTO
         3 000726   000014 402007                    MPY     12,DL
         3 000727   000100 100506                    MLR     fill='000'O
         3 000730   200147 000014                    ADSC9   TVEC+1,Q,AUTO            cn=0,n=12
         3 000731   201554 000020                    ADSC9   TEMP,,AUTO               cn=0,n=16

     4448     1481    6                             EDAC_TABLE(J-1) = EDAC_TABLE(J);

   1481  3 000732   000106 100506                    MLR     fill='000'O
         3 000733   200152 000014                    ADSC9   EDAC_TABLE,Q,AUTO        cn=0,n=12
         3 000734   200147 000014                    ADSC9   TVEC+1,Q,AUTO            cn=0,n=12

     4449     1482    6                             EDAC_TABLE(J) = TEMP;

   1482  3 000735   000106 100500                    MLR     fill='000'O
         3 000736   201554 000014                    ADSC9   TEMP,,AUTO               cn=0,n=12
         3 000737   200152 000014                    ADSC9   EDAC_TABLE,Q,AUTO        cn=0,n=12

     4450     1483    6                          END;          /* IF                                 */

     4451     1484    5                    END;                /* DO J                               */

   1484  3 000740   200007 054100                    AOS     J,,AUTO
         3 000741   200010 236100                    LDQ     NUM_EDACS,,AUTO
PL6.E3A0      #004=THF$HWE File=THF$FORMAT.:E05TSI                               WED 07/30/97 06:16 Page:856
         3 000742   200006 136100                    SBLQ    I,,AUTO
         3 000743   200007 116100                    CMPQ    J,,AUTO
         3 000744   000717 605000 3                  TPL     s:1477

     4452     1485    4                 END;                   /* DO I                               */

   1485  3 000745   200006 054100                    AOS     I,,AUTO
         3 000746   200006 236100                    LDQ     I,,AUTO
         3 000747   200010 116100                    CMPQ    NUM_EDACS,,AUTO
         3 000750   000714 604000 3                  TMI     s:1476

     4453     1486
     4454     1487                                             /* FORMAT RECORDS AND OUTPUT          */
     4455     1488    3                 LAST_DATE = 1;

   1488  3 000751   000001 235007                    LDA     1,DL
         3 000752   200042 755100                    STA     LAST_DATE,,AUTO

     4456     1489    4                 IF NUM_EDACS > 0 THEN DO I = 1 TO CTL.NHDR;

   1489  3 000753   200010 235100                    LDA     NUM_EDACS,,AUTO
         3 000754   000777 604400 3                  TMOZ    s:1492

   1489  3 000755   000001 235007                    LDA     1,DL
         3 000756   200006 755100                    STA     I,,AUTO
         3 000757   000772 710000 3                  TRA     s:1491+1

     4457     1490    4                    CALL THW$WRITE(CTL.FMT(I));

   1490  3 000760   200006 236100                    LDQ     I,,AUTO
         3 000761   000023 736000                    QLS     19
         3 000762   000002 036003                    ADLQ    2,DU
         3 000763   200044 036100                    ADLQ    CTL$,,AUTO
         3 000764   201570 756100                    STQ     CHIP#+2,,AUTO
         3 000765   201570 630500                    EPPR0   CHIP#+2,,AUTO
         3 000766   000017 631400 xsym               EPPR1   B_VECTNIL+15
         3 000767   000000 701000 xent               TSX1    THW$WRITE
PL6.E3A0      #004=THF$HWE File=THF$FORMAT.:E05TSI                               WED 07/30/97 06:16 Page:857
         3 000770   000000 011000                    NOP     0

     4458     1491    4                    END;  /* DO I */

   1491  3 000771   200006 054100                    AOS     I,,AUTO
         3 000772   200044 470500                    LDP0    CTL$,,AUTO
         3 000773   000000 236100                    LDQ     0,,PR0
         3 000774   000033 772000                    QRL     27
         3 000775   200006 116100                    CMPQ    I,,AUTO
         3 000776   000760 605000 3                  TPL     s:1490

     4459     1492    4                 DO I = 0 TO NUM_EDACS - 1;

   1492  3 000777   200006 450100                    STZ     I,,AUTO
         3 001000   001406 710000 3                  TRA     s:1532+1

     4460     1493    4                    CALL XUD$UTS_DIFF_SEC (TEMP_UTS, EDAC_TABLE.UTS(I), 0);

   1493  3 001001   000016 236000 4                  LDQ     14
         3 001002   201572 756100                    STQ     CHIP#+4,,AUTO
         3 001003   200006 236100                    LDQ     I,,AUTO
         3 001004   000003 402007                    MPY     3,DL
         3 001005   200154 630506                    EPPR0   EDAC_TABLE+2,QL,AUTO
         3 001006   201571 450500                    STP0    CHIP#+3,,AUTO
         3 001007   201560 631500                    EPPR1   TEMP_UTS,,AUTO
         3 001010   201570 451500                    STP1    CHIP#+2,,AUTO
         3 001011   201570 630500                    EPPR0   CHIP#+2,,AUTO
         3 001012   000021 631400 xsym               EPPR1   B_VECTNIL+17
         3 001013   000000 701000 xent               TSX1    XUD$UTS_DIFF_SEC
         3 001014   000000 011000                    NOP     0

     4461     1494    4                    TEMP_UTS = TEMP_UTS / 86400;

   1494  3 001015   201560 236100                    LDQ     TEMP_UTS,,AUTO
         3 001016   000001 772000                    QRL     1
         3 001017   124300 506007                    DIV     43200,DL
         3 001020   201560 756100                    STQ     TEMP_UTS,,AUTO
PL6.E3A0      #004=THF$HWE File=THF$FORMAT.:E05TSI                               WED 07/30/97 06:16 Page:858

     4462     1495    5                    IF TEMP_UTS ~= LAST_DATE THEN DO;

   1495  3 001021   200042 116100                    CMPQ    LAST_DATE,,AUTO
         3 001022   001064 600000 3                  TZE     s:1501

     4463     1496    5                       CALL THW$WRITE(VECTOR(PRINT_DATE),

   1496  3 001023   777640 235007                    LDA     -96,DL
         3 001024   201570 452500                    STP2    CHIP#+2,,AUTO
         3 001025   200006 236100                    LDQ     I,,AUTO
         3 001026   201571 755100                    STA     CHIP#+3,,AUTO
         3 001027   000003 402003                    MPY     3,DU
         3 001030   000154 036003                    ADLQ    108,DU
         3 001031   201570 036100                    ADLQ    CHIP#+2,,AUTO
         3 001032   201571 235100                    LDA     CHIP#+3,,AUTO
         3 001033   201572 757100                    STAQ    CHIP#+4,,AUTO
         3 001034   201572 630500                    EPPR0   CHIP#+4,,AUTO
         3 001035   201575 450500                    STP0    CHIP#+7,,AUTO
         3 001036   000030 236000 4                  LDQ     24
         3 001037   201574 756100                    STQ     CHIP#+6,,AUTO
         3 001040   201574 630500                    EPPR0   CHIP#+6,,AUTO
         3 001041   000020 631400 xsym               EPPR1   B_VECTNIL+16
         3 001042   000000 701000 xent               TSX1    THW$WRITE
         3 001043   000000 011000                    NOP     0

     4464     1497    5                                      VECTOR(EDAC_TABLE.UTS(I)));
     4465     1498    5                       CALL XUD$UTS_DIFF_SEC (LAST_DATE, EDAC_TABLE.UTS(I), 0);

   1498  3 001044   000016 236000 4                  LDQ     14
         3 001045   201572 756100                    STQ     CHIP#+4,,AUTO
         3 001046   200006 236100                    LDQ     I,,AUTO
         3 001047   000003 402007                    MPY     3,DL
         3 001050   200154 630506                    EPPR0   EDAC_TABLE+2,QL,AUTO
         3 001051   201571 450500                    STP0    CHIP#+3,,AUTO
         3 001052   200042 631500                    EPPR1   LAST_DATE,,AUTO
         3 001053   201570 451500                    STP1    CHIP#+2,,AUTO
PL6.E3A0      #004=THF$HWE File=THF$FORMAT.:E05TSI                               WED 07/30/97 06:16 Page:859
         3 001054   201570 630500                    EPPR0   CHIP#+2,,AUTO
         3 001055   000021 631400 xsym               EPPR1   B_VECTNIL+17
         3 001056   000000 701000 xent               TSX1    XUD$UTS_DIFF_SEC
         3 001057   000000 011000                    NOP     0

     4466     1499    5                       LAST_DATE = LAST_DATE / 86400;

   1499  3 001060   200042 236100                    LDQ     LAST_DATE,,AUTO
         3 001061   000001 772000                    QRL     1
         3 001062   124300 506007                    DIV     43200,DL
         3 001063   200042 756100                    STQ     LAST_DATE,,AUTO

     4467     1500    5                       END;  /* IF UTS ~= LAST_DATE */

     4468     1501    4                    TEXT$ = ADDR(TEXTBUF);

   1501  3 001064   200045 630500                    EPPR0   TEXTBUF,,AUTO
         3 001065   200145 450500                    STP0    TEXT$,,AUTO

     4469     1502    4                    CALL EDAC(EDAC_TABLE(I));

   1502  3 001066   200006 236100                    LDQ     I,,AUTO
         3 001067   000003 402007                    MPY     3,DL
         3 001070   200152 631506                    EPPR1   EDAC_TABLE,QL,AUTO
         3 001071   201563 451500                    STP1    TEMP_UTS+3,,AUTO
         3 001072   001423 701000 3                  TSX1    EDAC
         3 001073   000000 011000                    NOP     0

     4470     1503    5                    DO CASE(EDAC_TABLE.SYNDROME.PORT#(I));

   1503  3 001074   200006 236100                    LDQ     I,,AUTO
         3 001075   000003 402007                    MPY     3,DL
         3 001076   200153 236106                    LDQ     EDAC_TABLE+1,QL,AUTO
         3 001077   000024 772000                    QRL     20
         3 001100   000003 376007                    ANQ     3,DL
         3 001101   000004 116007                    CMPQ    4,DL
         3 001102   001104 602006 3                  TNC     s:1503+8,QL
PL6.E3A0      #004=THF$HWE File=THF$FORMAT.:E05TSI                               WED 07/30/97 06:16 Page:860
         3 001103   001163 710000 3                  TRA     s:1513
         3 001104   001110 710000 3                  TRA     s:1505
         3 001105   001123 710000 3                  TRA     s:1507
         3 001106   001136 710000 3                  TRA     s:1509
         3 001107   001151 710000 3                  TRA     s:1511

     4471     1504    5                       CASE(0);         /* PORT A                             */

     4472     1505    5                          CALL THF$ADD_TEXTC(TEXT$,'A',1);

   1505  3 001110   000051 236000 4                  LDQ     41
         3 001111   201572 756100                    STQ     CHIP#+4,,AUTO
         3 001112   000052 236000 4                  LDQ     42
         3 001113   201571 756100                    STQ     CHIP#+3,,AUTO
         3 001114   200145 630500                    EPPR0   TEXT$,,AUTO
         3 001115   201570 450500                    STP0    CHIP#+2,,AUTO
         3 001116   201570 630500                    EPPR0   CHIP#+2,,AUTO
         3 001117   000021 631400 xsym               EPPR1   B_VECTNIL+17
         3 001120   000000 701000 xent               TSX1    THF$ADD_TEXTC
         3 001121   000000 011000                    NOP     0
         3 001122   001163 710000 3                  TRA     s:1513

     4473     1506    5                       CASE(1);         /* PORT B                             */

     4474     1507    5                          CALL THF$ADD_TEXTC(TEXT$,'B',1);

   1507  3 001123   000051 236000 4                  LDQ     41
         3 001124   201572 756100                    STQ     CHIP#+4,,AUTO
         3 001125   000054 236000 4                  LDQ     44
         3 001126   201571 756100                    STQ     CHIP#+3,,AUTO
         3 001127   200145 630500                    EPPR0   TEXT$,,AUTO
         3 001130   201570 450500                    STP0    CHIP#+2,,AUTO
         3 001131   201570 630500                    EPPR0   CHIP#+2,,AUTO
         3 001132   000021 631400 xsym               EPPR1   B_VECTNIL+17
         3 001133   000000 701000 xent               TSX1    THF$ADD_TEXTC
         3 001134   000000 011000                    NOP     0
         3 001135   001163 710000 3                  TRA     s:1513
PL6.E3A0      #004=THF$HWE File=THF$FORMAT.:E05TSI                               WED 07/30/97 06:16 Page:861

     4475     1508    5                       CASE(2);         /* PORT C                             */

     4476     1509    5                          CALL THF$ADD_TEXTC(TEXT$,'C',1);

   1509  3 001136   000051 236000 4                  LDQ     41
         3 001137   201572 756100                    STQ     CHIP#+4,,AUTO
         3 001140   000056 236000 4                  LDQ     46
         3 001141   201571 756100                    STQ     CHIP#+3,,AUTO
         3 001142   200145 630500                    EPPR0   TEXT$,,AUTO
         3 001143   201570 450500                    STP0    CHIP#+2,,AUTO
         3 001144   201570 630500                    EPPR0   CHIP#+2,,AUTO
         3 001145   000021 631400 xsym               EPPR1   B_VECTNIL+17
         3 001146   000000 701000 xent               TSX1    THF$ADD_TEXTC
         3 001147   000000 011000                    NOP     0
         3 001150   001163 710000 3                  TRA     s:1513

     4477     1510    5                       CASE(3);         /*  PORT D                            */

     4478     1511    5                          CALL THF$ADD_TEXTC(TEXT$,'D',1);

   1511  3 001151   000051 236000 4                  LDQ     41
         3 001152   201572 756100                    STQ     CHIP#+4,,AUTO
         3 001153   000060 236000 4                  LDQ     48
         3 001154   201571 756100                    STQ     CHIP#+3,,AUTO
         3 001155   200145 630500                    EPPR0   TEXT$,,AUTO
         3 001156   201570 450500                    STP0    CHIP#+2,,AUTO
         3 001157   201570 630500                    EPPR0   CHIP#+2,,AUTO
         3 001160   000021 631400 xsym               EPPR1   B_VECTNIL+17
         3 001161   000000 701000 xent               TSX1    THF$ADD_TEXTC
         3 001162   000000 011000                    NOP     0

     4479     1512    5                    END;                /* DO CASE PORT#                      */

     4480     1513    5                    DO CASE(EDAC_TABLE.SYNDROME.STORE#(I));

   1513  3 001163   200006 236100                    LDQ     I,,AUTO
PL6.E3A0      #004=THF$HWE File=THF$FORMAT.:E05TSI                               WED 07/30/97 06:16 Page:862
         3 001164   000003 402007                    MPY     3,DL
         3 001165   200153 220106                    LDX0    EDAC_TABLE+1,QL,AUTO
         3 001166   000003 360003                    ANX0    3,DU
         3 001167   000004 100003                    CMPX0   4,DU
         3 001170   001172 602010 3                  TNC     s:1513+7,X0
         3 001171   001251 710000 3                  TRA     s:1523
         3 001172   001176 710000 3                  TRA     s:1515
         3 001173   001211 710000 3                  TRA     s:1517
         3 001174   001224 710000 3                  TRA     s:1519
         3 001175   001237 710000 3                  TRA     s:1521

     4481     1514    5                       CASE(0);         /* A                                  */

     4482     1515    5                          CALL THF$ADD_TEXTC(TEXT$,'A ',2);

   1515  3 001176   000061 236000 4                  LDQ     49
         3 001177   201572 756100                    STQ     CHIP#+4,,AUTO
         3 001200   000062 236000 4                  LDQ     50
         3 001201   201571 756100                    STQ     CHIP#+3,,AUTO
         3 001202   200145 630500                    EPPR0   TEXT$,,AUTO
         3 001203   201570 450500                    STP0    CHIP#+2,,AUTO
         3 001204   201570 630500                    EPPR0   CHIP#+2,,AUTO
         3 001205   000021 631400 xsym               EPPR1   B_VECTNIL+17
         3 001206   000000 701000 xent               TSX1    THF$ADD_TEXTC
         3 001207   000000 011000                    NOP     0
         3 001210   001251 710000 3                  TRA     s:1523

     4483     1516    5                       CASE(1);         /* A1                                 */

     4484     1517    5                          CALL THF$ADD_TEXTC(TEXT$,'A1',2);

   1517  3 001211   000061 236000 4                  LDQ     49
         3 001212   201572 756100                    STQ     CHIP#+4,,AUTO
         3 001213   000063 236000 4                  LDQ     51
         3 001214   201571 756100                    STQ     CHIP#+3,,AUTO
         3 001215   200145 630500                    EPPR0   TEXT$,,AUTO
         3 001216   201570 450500                    STP0    CHIP#+2,,AUTO
PL6.E3A0      #004=THF$HWE File=THF$FORMAT.:E05TSI                               WED 07/30/97 06:16 Page:863
         3 001217   201570 630500                    EPPR0   CHIP#+2,,AUTO
         3 001220   000021 631400 xsym               EPPR1   B_VECTNIL+17
         3 001221   000000 701000 xent               TSX1    THF$ADD_TEXTC
         3 001222   000000 011000                    NOP     0
         3 001223   001251 710000 3                  TRA     s:1523

     4485     1518    5                       CASE(2);         /* B                                  */

     4486     1519    5                          CALL THF$ADD_TEXTC(TEXT$,'B ',2);

   1519  3 001224   000061 236000 4                  LDQ     49
         3 001225   201572 756100                    STQ     CHIP#+4,,AUTO
         3 001226   000064 236000 4                  LDQ     52
         3 001227   201571 756100                    STQ     CHIP#+3,,AUTO
         3 001230   200145 630500                    EPPR0   TEXT$,,AUTO
         3 001231   201570 450500                    STP0    CHIP#+2,,AUTO
         3 001232   201570 630500                    EPPR0   CHIP#+2,,AUTO
         3 001233   000021 631400 xsym               EPPR1   B_VECTNIL+17
         3 001234   000000 701000 xent               TSX1    THF$ADD_TEXTC
         3 001235   000000 011000                    NOP     0
         3 001236   001251 710000 3                  TRA     s:1523

     4487     1520    5                       CASE(3);         /* B1                                 */

     4488     1521    5                          CALL THF$ADD_TEXTC(TEXT$,'B1',2);

   1521  3 001237   000061 236000 4                  LDQ     49
         3 001240   201572 756100                    STQ     CHIP#+4,,AUTO
         3 001241   000065 236000 4                  LDQ     53
         3 001242   201571 756100                    STQ     CHIP#+3,,AUTO
         3 001243   200145 630500                    EPPR0   TEXT$,,AUTO
         3 001244   201570 450500                    STP0    CHIP#+2,,AUTO
         3 001245   201570 630500                    EPPR0   CHIP#+2,,AUTO
         3 001246   000021 631400 xsym               EPPR1   B_VECTNIL+17
         3 001247   000000 701000 xent               TSX1    THF$ADD_TEXTC
         3 001250   000000 011000                    NOP     0

PL6.E3A0      #004=THF$HWE File=THF$FORMAT.:E05TSI                               WED 07/30/97 06:16 Page:864
     4489     1522    5                    END;                /* DO CASE STORE#                     */

     4490     1523    4                    CALL THF$ADD_TEXTC(TEXT$,BOARD,1);

   1523  3 001251   000051 236000 4                  LDQ     41
         3 001252   201572 756100                    STQ     CHIP#+4,,AUTO
         3 001253   200150 630500                    EPPR0   BOARD,,AUTO
         3 001254   201571 450500                    STP0    CHIP#+3,,AUTO
         3 001255   200145 631500                    EPPR1   TEXT$,,AUTO
         3 001256   201570 451500                    STP1    CHIP#+2,,AUTO
         3 001257   201570 630500                    EPPR0   CHIP#+2,,AUTO
         3 001260   000021 631400 xsym               EPPR1   B_VECTNIL+17
         3 001261   000000 701000 xent               TSX1    THF$ADD_TEXTC
         3 001262   000000 011000                    NOP     0

     4491     1524    4                    CALL THF$ADD_TEXTC(TEXT$,CHIP,3);

   1524  3 001263   000024 236000 4                  LDQ     20
         3 001264   201572 756100                    STQ     CHIP#+4,,AUTO
         3 001265   200151 630500                    EPPR0   CHIP,,AUTO
         3 001266   201571 450500                    STP0    CHIP#+3,,AUTO
         3 001267   200145 631500                    EPPR1   TEXT$,,AUTO
         3 001270   201570 451500                    STP1    CHIP#+2,,AUTO
         3 001271   201570 630500                    EPPR0   CHIP#+2,,AUTO
         3 001272   000021 631400 xsym               EPPR1   B_VECTNIL+17
         3 001273   000000 701000 xent               TSX1    THF$ADD_TEXTC
         3 001274   000000 011000                    NOP     0

     4492     1525    4                    FPT_TIME.TSTAMP_ = VECTOR(EDAC_TABLE.UTS(I));

   1525  3 001275   777640 235007                    LDA     -96,DL
         3 001276   201570 452500                    STP2    CHIP#+2,,AUTO
         3 001277   200006 236100                    LDQ     I,,AUTO
         3 001300   201571 755100                    STA     CHIP#+3,,AUTO
         3 001301   000003 402003                    MPY     3,DU
         3 001302   000154 036003                    ADLQ    108,DU
         3 001303   201570 036100                    ADLQ    CHIP#+2,,AUTO
PL6.E3A0      #004=THF$HWE File=THF$FORMAT.:E05TSI                               WED 07/30/97 06:16 Page:865
         3 001304   201571 235100                    LDA     CHIP#+3,,AUTO
         3 001305   000012 757000 1                  STAQ    FPT_TIME+8

     4493     1526    4                    CALL M$TIME(FPT_TIME);

   1526  3 001306   000002 630400 1                  EPPR0   FPT_TIME
         3 001307   020004 713400                    CLIMB   8196
         3 001310   402000 401760                    pmme    nvectors=5

     4494     1527    4                    TVEC = VECTOR(TEXTBUF);

   1527  3 001311   000040 235000 4                  LDA     32
         3 001312   201570 452500                    STP2    CHIP#+2,,AUTO
         3 001313   201570 236100                    LDQ     CHIP#+2,,AUTO
         3 001314   000045 036003                    ADLQ    37,DU
         3 001315   200146 757100                    STAQ    TVEC,,AUTO

     4495     1528    4                    TVEC.BOUND = POFFC(TEXT$,ADDR(TEXTBUF)) - 1;

   1528  3 001316   201570 452500                    STP2    CHIP#+2,,AUTO
         3 001317   201570 236100                    LDQ     CHIP#+2,,AUTO
         3 001320   000045 036003                    ADLQ    37,DU
         3 001321   000020 772000                    QRL     16
         3 001322   201571 756100                    STQ     CHIP#+3,,AUTO
         3 001323   200145 236100                    LDQ     TEXT$,,AUTO
         3 001324   000020 772000                    QRL     16
         3 001325   201571 136100                    SBLQ    CHIP#+3,,AUTO
         3 001326   000001 136007                    SBLQ    1,DL
         3 001327   000020 736000                    QLS     16
         3 001330   200146 676100                    ERQ     TVEC,,AUTO
         3 001331   000034 376000 xsym               ANQ     B_VECTNIL+28
         3 001332   200146 656100                    ERSQ    TVEC,,AUTO

     4496     1529    5                    DO J = CTL.NHDR + 1 TO CTL.NFMT + CTL.NHDR;

   1529  3 001333   200044 470500                    LDP0    CTL$,,AUTO
         3 001334   000000 236100                    LDQ     0,,PR0
PL6.E3A0      #004=THF$HWE File=THF$FORMAT.:E05TSI                               WED 07/30/97 06:16 Page:866
         3 001335   000033 772000                    QRL     27
         3 001336   000001 036007                    ADLQ    1,DL
         3 001337   200007 756100                    STQ     J,,AUTO
         3 001340   001372 710000 3                  TRA     s:1531+1

     4497     1530    5                      CALL THW$WRITE(CTL.FMT(J),VECTOR(TH_TIME),VECTOR(EDAC_TABLE(I)),
              1530                                TVEC);

   1530  3 001341   000066 235000 4                  LDA     54
         3 001342   201570 452500                    STP2    CHIP#+2,,AUTO
         3 001343   200006 236100                    LDQ     I,,AUTO
         3 001344   201571 755100                    STA     CHIP#+3,,AUTO
         3 001345   000003 402003                    MPY     3,DU
         3 001346   000152 036003                    ADLQ    106,DU
         3 001347   201570 036100                    ADLQ    CHIP#+2,,AUTO
         3 001350   201571 235100                    LDA     CHIP#+3,,AUTO
         3 001351   201572 757100                    STAQ    CHIP#+4,,AUTO
         3 001352   200146 630500                    EPPR0   TVEC,,AUTO
         3 001353   201577 450500                    STP0    CHIP#+9,,AUTO
         3 001354   201572 631500                    EPPR1   CHIP#+4,,AUTO
         3 001355   201576 451500                    STP1    CHIP#+8,,AUTO
         3 001356   000044 236000 4                  LDQ     36
         3 001357   201575 756100                    STQ     CHIP#+7,,AUTO
         3 001360   200007 236100                    LDQ     J,,AUTO
         3 001361   000023 736000                    QLS     19
         3 001362   000002 036003                    ADLQ    2,DU
         3 001363   200044 036100                    ADLQ    CTL$,,AUTO
         3 001364   201574 756100                    STQ     CHIP#+6,,AUTO
         3 001365   201574 630500                    EPPR0   CHIP#+6,,AUTO
         3 001366   000022 631400 xsym               EPPR1   B_VECTNIL+18
         3 001367   000000 701000 xent               TSX1    THW$WRITE
         3 001370   000000 011000                    NOP     0

     4498     1531    5                    END;                /* DO J                               */

   1531  3 001371   200007 054100                    AOS     J,,AUTO
         3 001372   200044 470500                    LDP0    CTL$,,AUTO
PL6.E3A0      #004=THF$HWE File=THF$FORMAT.:E05TSI                               WED 07/30/97 06:16 Page:867
         3 001373   000000 236100                    LDQ     0,,PR0
         3 001374   000033 772000                    QRL     27
         3 001375   201570 756100                    STQ     CHIP#+2,,AUTO
         3 001376   000000 236100                    LDQ     0,,PR0
         3 001377   000022 772000                    QRL     18
         3 001400   000777 376007                    ANQ     511,DL
         3 001401   201570 036100                    ADLQ    CHIP#+2,,AUTO
         3 001402   001341 604000 3                  TMI     s:1530
         3 001403   200007 116100                    CMPQ    J,,AUTO
         3 001404   001341 605000 3                  TPL     s:1530

     4499     1532    4                 END;                   /* DO I                               */

   1532  3 001405   200006 054100                    AOS     I,,AUTO
         3 001406   200006 236100                    LDQ     I,,AUTO
         3 001407   200010 116100                    CMPQ    NUM_EDACS,,AUTO
         3 001410   001001 604000 3                  TMI     s:1493

     4500     1533    3              END;  /* CASE REP_CODE */

     4501     1534    2   ENDLOOP:
     4502     1535    2        END;                               /* DO REP_CODE = FIRST TO LAST        */

   1535  3 001411   200011 235100       ENDLOOP      LDA     REP_CODE,,AUTO
         3 001412   000001 035007                    ADLA    1,DL
         3 001413   200011 755100                    STA     REP_CODE,,AUTO
         3 001414   200013 236100                    LDQ     LAST_REP,,AUTO
         3 001415   200011 116100                    CMPQ    REP_CODE,,AUTO
         3 001416   000021 603000 3                  TRC     s:1341

     4503     1536    1        CALL THG$CLOSEXSA;

   1536  3 001417   000002 631400 xsym               EPPR1   B_VECTNIL+2
         3 001420   000000 701000 xent               TSX1    THG$CLOSEXSA
         3 001421   000000 011000                    NOP     0

     4504     1537    1        RETURN;
PL6.E3A0      #004=THF$HWE File=THF$FORMAT.:E05TSI                               WED 07/30/97 06:16 Page:868

   1537  3 001422   000000 702200 xent               TSX2  ! X66_ARET

     4505     1538        %EJECT;
PL6.E3A0      #004=THF$HWE File=THF$FORMAT.:E05TSI                               WED 07/30/97 06:16 Page:869
     4506     1539    1   EDAC: PROC(TBL);

   1539  3 001423   201562 741300       EDAC         STX1  ! TEMP_UTS+2,,AUTO

     4507     1540        /**/
     4508     1541        /* PARAMS */
     4509     1542    2   DCL 1 TBL,
     4510     1543    2         2 * BIT(32) UNAL,
     4511     1544    2         2 MOSID BIT(4) UNAL,
     4512     1545    2         2 SYNDROME,
     4513     1546    2           3 A45 UBIN(2) UNAL,
     4514     1547    2           3 A678 UBIN(3) UNAL,
     4515     1548    2           3 * BIT(1),
     4516     1549    2           3 NUMB UBIN(7) UNAL,
     4517     1550    2           3 ODDEVN BIT(1),
     4518     1551    2           3 PORT# UBIN(2) UNAL,
     4519     1552    2           3 STORE# UBIN(2) UNAL,
     4520     1553    2         2 COUNT UBIN(18) UNAL,
     4521     1554    2         2 UTS UBIN WORD;
     4522     1555        /**/
     4523     1556        /* VARS */
     4524     1557    2   DCL BIT_4K(0:127) SBIN BYTE CALIGNED SYMREF;
     4525     1558    2   DCL QUAD_4K(0:127) SBIN BYTE CALIGNED SYMREF;
     4526     1559    2   DCL BOARD_4K(0:3) CHAR(4) STATIC INIT(
     4527     1560    2           'ABCD','FGHJ','KLMN','QRST');
     4528     1561    2   DCL CHIP_LTTR(0:9) STATIC CHAR(1) INIT('A','B','C','D','E','G',
     4529     1562    2       'H','J','K','L');
     4530     1563    2   DCL BIT_64K (0:127) SBIN BYTE CALIGNED SYMREF;
     4531     1564    2   DCL CHIP_64K_CHAR (0:7) CHAR(2) CALIGNED SYMREF;
     4532     1565    2   DCL CHIP_64K_LET (0:19) CHAR(1) CALIGNED SYMREF;
     4533     1566    2   DCL BOARD_64K (0:15) CHAR(1) CALIGNED SYMREF;
     4534     1567        /**/
     4535     1568    2   DCL BIT# SBIN;
     4536     1569    2   DCL QUAD# SBIN;
     4537     1570    2   DCL CHIP# CHAR(2);
     4538     1571        /**/
     4539     1572    2   DCL 1 TBUF BASED(TEXT$),
PL6.E3A0      #004=THF$HWE File=THF$FORMAT.:E05TSI                               WED 07/30/97 06:16 Page:870
     4540     1573    2         2 N UBIN BYTE UNAL,
     4541     1574    2         2 C CHAR(TBUF.N);
     4542     1575        /**/
     4543     1576        /* FPTS */
     4544     1577        %FPT_TIME (FPTN=LOCAL,
     4545     1578                   SOURCE=UTS,
     4546     1579                   DEST=LOCAL,
     4547     1580                   TIME=TH_TIME);
     4548     1599        /**/
     4549     1600        %EJECT;
PL6.E3A0      #004=THF$HWE File=THF$FORMAT.:E05TSI                               WED 07/30/97 06:16 Page:871
     4550     1601    2           IF TBL.MOSID = '1010'B

   1601  3 001424   201563 470500                    LDP0    @TBL,,AUTO
         3 001425   000000 236100                    LDQ     0,,PR0
         3 001426   000017 376007                    ANQ     15,DL
         3 001427   000012 116007                    CMPQ    10,DL
         3 001430   001553 600000 3                  TZE     EDAC_64K

     4551     1602    2           THEN GOTO EDAC_64K;
     4552     1603    2           BIT#=BIT_4K(TBL.SYNDROME.NUMB);

   1603  3 001431   000001 236100                    LDQ     1,,PR0
         3 001432   000027 772000                    QRL     23
         3 001433   000177 376007                    ANQ     127,DL
         3 001434   000100 100406                    MLR     fill='000'O
         3 001435   000000 000001 xsym               ADSC9   BIT_4K,Q                 cn=0,n=1
         3 001436   201570 000004                    ADSC9   CHIP#+2,,AUTO            cn=0,n=4
         3 001437   201570 236100                    LDQ     CHIP#+2,,AUTO
         3 001440   000033 732000                    QRS     27
         3 001441   201564 756100                    STQ     BIT#,,AUTO

     4553     1604    2           QUAD#=QUAD_4K(TBL.SYNDROME.NUMB);

   1604  3 001442   000001 236100                    LDQ     1,,PR0
         3 001443   000027 772000                    QRL     23
         3 001444   000177 376007                    ANQ     127,DL
         3 001445   000100 100406                    MLR     fill='000'O
         3 001446   000000 000001 xsym               ADSC9   QUAD_4K,Q                cn=0,n=1
         3 001447   201570 000004                    ADSC9   CHIP#+2,,AUTO            cn=0,n=4
         3 001450   201570 236100                    LDQ     CHIP#+2,,AUTO
         3 001451   000033 732000                    QRS     27
         3 001452   201565 756100                    STQ     QUAD#,,AUTO

     4554     1605    2           IF BIT#=-1 OR QUAD#=0 THEN

   1605  3 001453   201564 235100                    LDA     BIT#,,AUTO
         3 001454   000027 115000 xsym               CMPA    B_VECTNIL+23
PL6.E3A0      #004=THF$HWE File=THF$FORMAT.:E05TSI                               WED 07/30/97 06:16 Page:872
         3 001455   001460 600000 3                  TZE     s:1607
         3 001456   000000 116003                    CMPQ    0,DU
         3 001457   001465 601000 3                  TNZ     s:1611

     4555     1606    3              DO;

     4556     1607    3                 BOARD=' ';

   1607  3 001460   040000 236003                    LDQ     16384,DU
         3 001461   200150 756100                    STQ     BOARD,,AUTO

     4557     1608    3                 CHIP=' ';

   1608  3 001462   000067 236000 4                  LDQ     55
         3 001463   200151 756100                    STQ     CHIP,,AUTO

     4558     1609    3                 RETURN;

   1609  3 001464   000001 702211                    TSX2  ! 1,X1

     4559     1610    3              END;
     4560     1611    2           BOARD=SUBSTR(BOARD_4K(QUAD#-1),TBL.SYNDROME.A45,1);

   1611  3 001465   000001 236100                    LDQ     1,,PR0
         3 001466   000042 772000                    QRL     34
         3 001467   201570 756100                    STQ     CHIP#+2,,AUTO
         3 001470   201565 236100                    LDQ     QUAD#,,AUTO
         3 001471   000002 736000                    QLS     2
         3 001472   201570 036100                    ADLQ    CHIP#+2,,AUTO
         3 001473   040100 100406                    MLR     fill='040'O
         3 001474   000015 000001 1                  ADSC9   FPT_TIME+11,Q            cn=0,n=1
         3 001475   200150 000001                    ADSC9   BOARD,,AUTO              cn=0,n=1

     4561     1612    2           IF MOD(BIT#,2) = 1 THEN

   1612  3 001476   201564 236100                    LDQ     BIT#,,AUTO
         3 001477   000002 506007                    DIV     2,DL
PL6.E3A0      #004=THF$HWE File=THF$FORMAT.:E05TSI                               WED 07/30/97 06:16 Page:873
         3 001500   000044 733000                    LRS     36
         3 001501   000001 116007                    CMPQ    1,DL
         3 001502   001531 601000 3                  TNZ     s:1619

     4562     1613    3              DO;

     4563     1614    3                 CALL BINCHAR(CHIP#,7-TBL.SYNDROME.A678);

   1614  3 001503   000001 236100                    LDQ     1,,PR0
         3 001504   000037 772000                    QRL     31
         3 001505   000007 376007                    ANQ     7,DL
         3 001506   000027 676000 xsym               ERQ     B_VECTNIL+23
         3 001507   000010 036007                    ADLQ    8,DL
         3 001510   201570 756100                    STQ     CHIP#+2,,AUTO
         3 001511   000100 301500                    BTD
         3 001512   201570 000004                    NDSC9   CHIP#+2,,AUTO            cn=0,s=lsgnf,sf=0,n=4
         3 001513   201566 030002                    NDSC9   CHIP#,,AUTO              cn=0,s=nosgn,sf=0,n=2

     4564     1615    3                 CALL CONCAT(CHIP,SUBSTR(CHIP#,1,1),CHIP_LTTR(BIT#/2));

   1615  3 001514   201564 236100                    LDQ     BIT#,,AUTO
         3 001515   000002 506007                    DIV     2,DL
         3 001516   201570 756100                    STQ     CHIP#+2,,AUTO
         3 001517   201566 236100                    LDQ     CHIP#,,AUTO
         3 001520   000011 736000                    QLS     9
         3 001521   777000 376003                    ANQ     -512,DU
         3 001522   000070 276000 4                  ORQ     56
         3 001523   200151 756100                    STQ     CHIP,,AUTO
         3 001524   201570 235100                    LDA     CHIP#+2,,AUTO
         3 001525   040100 100405                    MLR     fill='040'O
         3 001526   000022 000001 1                  ADSC9   CHIP_LTTR,A              cn=0,n=1
         3 001527   200151 200002                    ADSC9   CHIP,,AUTO               cn=1,n=2

     4565     1616    3              END;

   1616  3 001530   001551 710000 3                  TRA     s:1622

PL6.E3A0      #004=THF$HWE File=THF$FORMAT.:E05TSI                               WED 07/30/97 06:16 Page:874
     4566     1617    2           ELSE
     4567     1618    3              DO;

     4568     1619    3                 CALL BINCHAR(CHIP#,18-TBL.SYNDROME.A678);

   1619  3 001531   000001 236100                    LDQ     1,,PR0
         3 001532   000037 772000                    QRL     31
         3 001533   000007 376007                    ANQ     7,DL
         3 001534   000027 676000 xsym               ERQ     B_VECTNIL+23
         3 001535   000023 036007                    ADLQ    19,DL
         3 001536   201570 756100                    STQ     CHIP#+2,,AUTO
         3 001537   000100 301500                    BTD
         3 001540   201570 000004                    NDSC9   CHIP#+2,,AUTO            cn=0,s=lsgnf,sf=0,n=4
         3 001541   201566 030002                    NDSC9   CHIP#,,AUTO              cn=0,s=nosgn,sf=0,n=2

     4569     1620    3                 CALL CONCAT(CHIP,CHIP#,CHIP_LTTR(BIT#/2));

   1620  3 001542   201564 236100                    LDQ     BIT#,,AUTO
         3 001543   000002 506007                    DIV     2,DL
         3 001544   201566 220100                    LDX0    CHIP#,,AUTO
         3 001545   200151 740100                    STX0    CHIP,,AUTO
         3 001546   040100 100406                    MLR     fill='040'O
         3 001547   000022 000001 1                  ADSC9   CHIP_LTTR,Q              cn=0,n=1
         3 001550   200151 400001                    ADSC9   CHIP,,AUTO               cn=2,n=1

     4570     1621    3              END;

     4571     1622    2           RETURN;

   1622  3 001551   201562 221300                    LDX1  ! TEMP_UTS+2,,AUTO
         3 001552   000001 702211                    TSX2  ! 1,X1

     4572     1623    2   EDAC_64K:
     4573     1624    2           BIT# = BIT_64K(TBL.SYNDROME.NUMB);

   1624  3 001553   000001 236100       EDAC_64K     LDQ     1,,PR0
         3 001554   000027 772000                    QRL     23
PL6.E3A0      #004=THF$HWE File=THF$FORMAT.:E05TSI                               WED 07/30/97 06:16 Page:875
         3 001555   000177 376007                    ANQ     127,DL
         3 001556   000100 100406                    MLR     fill='000'O
         3 001557   000000 000001 xsym               ADSC9   BIT_64K,Q                cn=0,n=1
         3 001560   201570 000004                    ADSC9   CHIP#+2,,AUTO            cn=0,n=4
         3 001561   201570 236100                    LDQ     CHIP#+2,,AUTO
         3 001562   000033 732000                    QRS     27
         3 001563   201564 756100                    STQ     BIT#,,AUTO

     4574     1625    2           IF BIT# < 0

   1625  3 001564   001572 605000 3                  TPL     s:1631

     4575     1626    3           THEN DO;

     4576     1627    3              BOARD = ' ';

   1627  3 001565   040000 236003                    LDQ     16384,DU
         3 001566   200150 756100                    STQ     BOARD,,AUTO

     4577     1628    3              CHIP = ' ';

   1628  3 001567   000067 236000 4                  LDQ     55
         3 001570   200151 756100                    STQ     CHIP,,AUTO

     4578     1629    3              RETURN;

   1629  3 001571   000001 702211                    TSX2  ! 1,X1

     4579     1630    3              END;
     4580     1631    2           BOARD = BOARD_64K(TBL.SYNDROME.A45 * 4

   1631  3 001572   000001 236100                    LDQ     1,,PR0
         3 001573   000037 772000                    QRL     31
         3 001574   000007 376007                    ANQ     7,DL
         3 001575   000001 772000                    QRL     1
         3 001576   201570 756100                    STQ     CHIP#+2,,AUTO
         3 001577   000001 236100                    LDQ     1,,PR0
PL6.E3A0      #004=THF$HWE File=THF$FORMAT.:E05TSI                               WED 07/30/97 06:16 Page:876
         3 001600   000040 772000                    QRL     32
         3 001601   000014 376007                    ANQ     12,DL
         3 001602   201570 036100                    ADLQ    CHIP#+2,,AUTO
         3 001603   040100 100406                    MLR     fill='040'O
         3 001604   000000 000001 xsym               ADSC9   BOARD_64K,Q              cn=0,n=1
         3 001605   200150 000001                    ADSC9   BOARD,,AUTO              cn=0,n=1

     4581     1632    2                           + TBL.SYNDROME.A678 / 2);
     4582     1633    2           QUAD# = BIT# * 2 + MOD(TBL.SYNDROME.A678,2);

   1633  3 001606   000001 236100                    LDQ     1,,PR0
         3 001607   000037 772000                    QRL     31
         3 001610   000007 376007                    ANQ     7,DL
         3 001611   000001 376007                    ANQ     1,DL
         3 001612   201570 756100                    STQ     CHIP#+2,,AUTO
         3 001613   201564 236100                    LDQ     BIT#,,AUTO
         3 001614   000001 736000                    QLS     1
         3 001615   201570 036100                    ADLQ    CHIP#+2,,AUTO
         3 001616   201565 756100                    STQ     QUAD#,,AUTO

     4583     1634    2           CALL CONCAT (CHIP,

   1634  3 001617   000010 506007                    DIV     8,DL
         3 001620   201565 236100                    LDQ     QUAD#,,AUTO
         3 001621   201570 755100                    STA     CHIP#+2,,AUTO
         3 001622   000010 506007                    DIV     8,DL
         3 001623   201570 235100                    LDA     CHIP#+2,,AUTO
         3 001624   000001 735000                    ALS     1
         3 001625   040100 100405                    MLR     fill='040'O
         3 001626   000000 000002 xsym               ADSC9   CHIP_64K_CHAR,A          cn=0,n=2
         3 001627   200151 000002                    ADSC9   CHIP,,AUTO               cn=0,n=2
         3 001630   040100 100406                    MLR     fill='040'O
         3 001631   000000 000001 xsym               ADSC9   CHIP_64K_LET,Q           cn=0,n=1
         3 001632   200151 400001                    ADSC9   CHIP,,AUTO               cn=2,n=1

     4584     1635    2                        CHIP_64K_CHAR(MOD(QUAD#,8)),
     4585     1636    2                        CHIP_64K_LET(QUAD#/8));
PL6.E3A0      #004=THF$HWE File=THF$FORMAT.:E05TSI                               WED 07/30/97 06:16 Page:877
     4586     1637    2           RETURN;

   1637  3 001633   201562 221300                    LDX1  ! TEMP_UTS+2,,AUTO
         3 001634   000001 702211                    TSX2  ! 1,X1
     4587     1638    2   END EDAC;
     4588     1639    1   END THF$HWE;
     4589     1640        %EOD;

PL6.E3A0      #004=THF$HWE File=THF$FORMAT.:E05TSI                               WED 07/30/97 06:16 Page:878
--  Include file information  --

   XUD_UTS_M.:E05TOU  is referenced.
   EL_SUBS_C.:E05TOU  is referenced.
   TH_DATA_C.:E05TOU  is referenced.
   B_STRINGS_C.:E05TOU  is referenced.
   TH_SUBS_C.:E05TOU  is referenced.
   TH_DATA_R.:E05TOU  cannot be made into a system file and is referenced.
   EL$TABLES.:E05TOU  is referenced.
   CP_6.:E05TOU  cannot be made into a system file and is referenced.
   B$JIT_C.:E05TOU  was found in the system file and is never referenced.
   CP_6_C.:E05TOU  was found in the system file and is referenced.
      No diagnostics issued in procedure THF$HWE.
PL6.E3A0      #004=THF$HWE File=THF$FORMAT.:E05TSI                               WED 07/30/97 06:16 Page:879

 **** Variables and constants ****

  ****  Section 001  Data  THF$HWE

  ****  Scalars and arrays  ****
OctLoc.c.b A Datatyp(siz) R M Lvl/name                 OctLoc.c.b A Datatyp(siz) R M Lvl/name

    16-0-0/c CHAR(4)     r     1 BOARD_4K(0:3)
    22-0-0/c CHAR        r     1 CHIP_LTTR(0:9)
     0-0-0/w UBIN        r     1 ERRLOG_DATE                2-0-0/d STRC(432)   r     1 FPT_TIME
    26-0-0/d STRC(432)   r     1 LOCAL                      1-0-0/w UBIN        r     1 NEXT_ENTRY

  ****  Section 002 RoData THF$HWE

  ****  Scalars and arrays  ****
OctLoc.c.b A Datatyp(siz) R M Lvl/name                 OctLoc.c.b A Datatyp(siz) R M Lvl/name

     0-0-0/c CHAR(4)     r     1 BLANK_LINE                32-0-0/c CHAR(81)    r     1 FEP_TITLE
    57-0-0/c CHAR(81)    r     1 IOM_TITLE                131-0-0/c CHAR(81)    r     1 MEM_TITLE
   104-0-0/c CHAR(81)    r     1 MPC_TITLE                  5-0-0/c CHAR(84)    r     1 PERIPH_TITLE
     1-0-0/c CHAR(14)    r     1 PRINT_DATE               172-0-0/d STRC(432)   r     1 RECORD_DATE
   156-0-0/b BIT (72)    r     1 TITLE_VEC(0:5)

  ****  Auto variables  ****

  ****  Scalars and arrays  ****
OctLoc.c.b A Datatyp(siz) R M Lvl/name                 OctLoc.c.b A Datatyp(siz) R M Lvl/name

     3-0-0/w PTR         r     1 @CODE                   1563-0-0/w PTR         r     1 @TBL
  1564-0-0/w SBIN        r     1 BIT#                     150-0-0/c CHAR        r     1 BOARD
   151-0-0/c CHAR(3)     r     1 CHIP                    1566-0-0/c CHAR(2)     r     1 CHIP#
    *0-0-0/w UBIN        r     1 CODE                      44-0-0/w PTR         r     1 CTL$
   152-0-0/w STRC(108)   r     1 EDAC_TABLE(0:255)
    36-0-0/b BIT         r     1 EOF_FLAG                  43-0-0/b BIT         r     1 FIRST_EDAC
    12-0-0/w UBIN        r     1 FIRST_REP                  6-0-0/w SBIN        r     1 I
     7-0-0/w SBIN        r     1 J                         42-0-0/w UBIN        r     1 LAST_DATE
    13-0-0/w UBIN        r     1 LAST_REP                  14-0-0/c CHAR(32)    r     1 MAJBUF
PL6.E3A0      #004=THF$HWE File=THF$FORMAT.:E05TSI                               WED 07/30/97 06:16 Page:880
    34-0-0/w SBIN        r     1 MAJCOUNT                  24-0-0/c CHAR(32)    r     1 MINBUF
    35-0-0/w SBIN        r     1 MINCOUNT                  10-0-0/w SBIN        r     1 NUM_EDACS
    40-0-0/w UBIN        r     1 NUM_LINES                 41-0-0/b BIT         r     1 PRINT_BLANK
    37-0-0/b BIT         r     1 PRINT_HDR               1565-0-0/w SBIN        r     1 QUAD#
    11-0-0/w UBIN        r     1 REP_CODE                   4-0-0/w UBIN        r     1 START_TIME
     5-0-0/w UBIN        r     1 STOP_TIME               1552-0-0/b STRC(72)    r     1 STORE_MODE
    *0-0-0/w STRC(108)   r     1 TBL                     1554-0-0/d BIT (72)    r     1 TEMP(0:1)
  1560-0-0/w UBIN        r     1 TEMP_UTS                 145-0-0/w PTR         r     1 TEXT$
    45-0-0/c CHAR(256)   r     1 TEXTBUF                  146-0-0/w STRC(72)    r     1 TVEC

  ****  SYMREF variables  ****

  ****  Scalars and arrays  ****
OctLoc.c.b A Datatyp(siz) R M Lvl/name                 OctLoc.c.b A Datatyp(siz) R M Lvl/name

     0-0-0/c SBIN(9)     r     1 BIT_4K(0:127)              0-0-0/c SBIN(9)     r     1 BIT_64K(0:127)
     0-0-0/c CHAR        r     1 BOARD_64K(0:15)
     0-0-0/c CHAR(2)     r     1 CHIP_64K_CHAR(0:7)
     0-0-0/c CHAR        r     1 CHIP_64K_LET(0:19)
     0-0-0/c SBIN(9)     r     1 QUAD_4K(0:127)             0-0-0/b BIT         r     1 TH_BOF
     0-0-0/b BIT         r     1 TH_CHECK_DEVNM             0-0-0/d STRC(1971)  r     1 TH_CONSTRAINTS
     0-0-0/c CHAR(10)    r     1 TH_DATE                    0-0-0/c CHAR(3)     r     1 TH_DAY
     0-0-0/d STRC(72)    r     1 TH_HDR
     0-0-0/w PTR         r     1 TH_HWE_FMT(0:0)
     0-0-0/d STRC(72)    r     1 TH_INFO                    0-0-0/w UBIN        r     1 TH_LASTUTS
     0-0-0/w UBIN        r     1 TH_NUM_REP_DEVS
     0-0-0/w CHAR(8)     r     1 TH_REP_DEVS(0:511)
     0-0-0/w CHAR(6)     r     1 TH_SITE_ID                 0-0-0/w STRC(1080)  r     1 TH_SITE_NAME
     0-0-0/c CHAR(11)    r     1 TH_TIME

  ****  BASED and DCB variables  ****

  ****  Scalars and arrays  ****
OctLoc.c.b A Datatyp(siz) R M Lvl/name                 OctLoc.c.b A Datatyp(siz) R M Lvl/name

     0-0-0/d STRC(144)   r     1 CTL                        0-0-0/w STRC(396)   r     1 EL$EDAC
     0-0-0/w STRC(1080)  r     1 EL$IOERR                   0-0-0/w STRC(216)   r     1 HDR
PL6.E3A0      #004=THF$HWE File=THF$FORMAT.:E05TSI                               WED 07/30/97 06:16 Page:881
     0-0-0/c ASTR(9)     r     1 TBUF


   Procedure THF$HWE requires 925 words for executable code.
   Procedure THF$HWE requires 896 words of local(AUTO) storage.
PL6.E3A0      #004=THF$HWE File=THF$FORMAT.:E05TSI                               WED 07/30/97 06:16 Page:882
          *** CROSS REFERENCE LISTING ***
**     DENOTES     IDENTIFIER DEFINITION
<<                 IDENTIFIER'S VALUE SET
>>                 IDENTIFIER'S VALUE USED
<>                 IDENTIFIER SET AND/OR USED
--                 IDENTIFIER REFERENCED
PL6.E3A0      #004=THF$HWE File=THF$FORMAT.:E05TSI                               WED 07/30/97 06:16 Page:883
          MINI XREF LISTING

BIT# IN PROCEDURE EDAC
      1568**DCL      1603<<ASSIGN   1605>>IF       1612>>IF       1615>>CALLBLT  1620>>CALLBLT  1624<<ASSIGN
      1625>>IF       1633>>ASSIGN
BIT_4K IN PROCEDURE EDAC
      1557**DCL      1603>>ASSIGN
BIT_64K IN PROCEDURE EDAC
      1563**DCL      1624>>ASSIGN
BLANK_LINE
      1083**DCL      1393--CALL
BOARD
      1099**DCL      1523<>CALL     1607<<ASSIGN   1611<<ASSIGN   1627<<ASSIGN   1631<<ASSIGN
BOARD_4K IN PROCEDURE EDAC
      1559**DCL      1611>>ASSIGN
BOARD_64K IN PROCEDURE EDAC
      1566**DCL      1631>>ASSIGN
CHIP
      1100**DCL      1524<>CALL     1608<<ASSIGN   1615<<CALLBLT  1620<<CALLBLT  1628<<ASSIGN   1634<<CALLBLT
CHIP# IN PROCEDURE EDAC
      1570**DCL      1614<<CALLBLT  1615>>CALLBLT  1619<<CALLBLT  1620>>CALLBLT
CHIP_64K_CHAR IN PROCEDURE EDAC
      1564**DCL      1634>>CALLBLT
CHIP_64K_LET IN PROCEDURE EDAC
      1565**DCL      1634>>CALLBLT
CHIP_LTTR IN PROCEDURE EDAC
      1561**DCL      1615>>CALLBLT  1620>>CALLBLT
CODE
        10**DCL         7--PROC     1328>>IF       1336>>ASSIGN   1337>>ASSIGN   1343>>IF
CTL.FMT
      1156**DCL      1379<>CALL     1408<>CALL     1490<>CALL     1530<>CALL
CTL.NFMT
      1151**DCL      1407>>DOINDEX  1529>>DOINDEX
CTL.NHDR
PL6.E3A0      #004=THF$HWE File=THF$FORMAT.:E05TSI                               WED 07/30/97 06:16 Page:884
      1150**DCL      1378>>DOINDEX  1407>>DOINDEX  1407>>DOINDEX  1489>>DOINDEX  1529>>DOINDEX  1529>>DOINDEX
CTL$
      1092**DCL      1149--IMP-PTR  1350<<ASSIGN   1378>>DOINDEX  1379>>CALL     1407>>DOINDEX  1407>>DOINDEX
      1407>>DOINDEX  1408>>CALL     1489>>DOINDEX  1490>>CALL     1529>>DOINDEX  1529>>DOINDEX  1529>>DOINDEX
      1530>>CALL
EDAC
      1539**PROC     1502--CALL
EDAC_64K IN PROCEDURE EDAC
      1624**LABEL    1602--GOTO
EDAC_TABLE
      1118**DCL      1426<<ASSIGN   1480>>ASSIGN   1481<<ASSIGN   1481>>ASSIGN   1482<<ASSIGN   1502<>CALL
      1530--CALL
EDAC_TABLE.COUNT
      1130**DCL      1443<<ASSIGN   1443>>ASSIGN   1448>>IF       1448>>IF       1448>>IF       1448>>IF
      1454<<ASSIGN
EDAC_TABLE.MOSID
      1120**DCL      1456<<ASSIGN
EDAC_TABLE.SYNDROME
      1121**DCL      1129--REDEF
EDAC_TABLE.SYNDROME.PORT#
      1127**DCL      1503>>DOCASE
EDAC_TABLE.SYNDROME.STORE#
      1128**DCL      1513>>DOCASE
EDAC_TABLE.SYNDROME1
      1129**DCL      1442>>IF       1453<<ASSIGN
EDAC_TABLE.UTS
      1131**DCL      1444<<ASSIGN   1448>>IF       1448>>IF       1455<<ASSIGN   1477>>IF       1477>>IF
      1493<>CALL     1496--CALL     1498<>CALL     1525--ASSIGN
EL$EDAC.PORT#
      1219**DCL      1439>>ASSIGN
EL$EDAC.STORE_MODE
      1215**DCL      1438>>ASSIGN
EL$EDAC.STORE_MODE.MOSID
      1216**DCL      1456>>ASSIGN
EL$EDAC.STORE_UNIT
      1220**DCL      1440>>ASSIGN
PL6.E3A0      #004=THF$HWE File=THF$FORMAT.:E05TSI                               WED 07/30/97 06:16 Page:885
EL$IOERR
      1224**DCL      1400<>CALL
EL$IOERR.SEEK
      1228**DCL      1229--REDEF
EL$IOERR.STATUS
      1224**DCL      1225--REDEF
ENDLOOP
      1535**LABEL    1342--GOTO
EOF
      1460**LABEL    1437--CALLALT
EOF_FLAG
      1084**DCL      1368<<ASSIGN   1374>>DOWHILE  1411<<ASSIGN   1435<<ASSIGN   1436>>DOWHILE  1460<<ASSIGN
ERRLOG_DATE
      1082**DCL      1358<<ASSIGN   1359>>DOWHILE  1360<>CALL     1470<>CALL     1470<>CALL
FEP_TITLE
      1103**DCL      1114--DCLINIT
FIRST_EDAC
      1089**DCL      1339<<ASSIGN   1424>>IF       1425<<ASSIGN
FIRST_REP
      1076**DCL      1331<<ASSIGN   1336<<ASSIGN   1340>>DOINDEX
FOUND_IT
      1459**LABEL    1445--GOTO
FPT_TIME
      1292**DCL      1526<>CALL
FPT_TIME.TSTAMP_
      1295**DCL      1525<<ASSIGN
FPT_TIME.V
      1296**DCL      1292--DCLINIT
HDR.UTS
      1183**DCL      1382<>CALL     1385--CALL     1387<>CALL     1444>>ASSIGN   1455>>ASSIGN
I
      1072**DCL      1366<<DOINDEX  1370>>ASSIGN   1475<<DOINDEX  1476>>DOINDEX  1489<<DOINDEX  1490>>CALL
      1492<<DOINDEX  1493>>CALL     1496>>CALL     1498>>CALL     1502>>CALL     1503>>DOCASE   1513>>DOCASE
      1525>>ASSIGN   1530>>CALL
IOM_TITLE
      1105**DCL      1113--DCLINIT
PL6.E3A0      #004=THF$HWE File=THF$FORMAT.:E05TSI                               WED 07/30/97 06:16 Page:886
J
      1073**DCL      1378<<DOINDEX  1379>>CALL     1407<<DOINDEX  1408>>CALL     1441<<DOINDEX  1442>>IF
      1443>>ASSIGN   1443>>ASSIGN   1444>>ASSIGN   1448>>IF       1448>>IF       1448>>IF       1451>>ASSIGN
      1476<<DOINDEX  1477>>IF       1477>>IF       1480>>ASSIGN   1481>>ASSIGN   1481>>ASSIGN   1482>>ASSIGN
      1529<<DOINDEX  1530>>CALL
LAST_DATE
      1088**DCL      1349<<ASSIGN   1384>>IF       1387<>CALL     1388<<ASSIGN   1388>>ASSIGN   1488<<ASSIGN
      1495>>IF       1498<>CALL     1499<<ASSIGN   1499>>ASSIGN
LAST_REP
      1077**DCL      1332<<ASSIGN   1337<<ASSIGN   1340>>DOINDEX
LOCAL.V IN PROCEDURE EDAC
      1595**DCL      1591--DCLINIT
M$TIME
        89**DCL-ENT  1406--CALL     1526--CALL
MAJBUF
      1078**DCL      1400<>CALL     1401<>CALL
MAJCOUNT
      1080**DCL      1400<>CALL     1401<>CALL
MEM_TITLE
      1109**DCL      1112--DCLINIT
MINBUF
      1079**DCL      1400<>CALL     1402<>CALL
MINCOUNT
      1081**DCL      1400<>CALL     1402<>CALL
MPC_TITLE
      1107**DCL      1116--DCLINIT
NEXT_ENTRY
      1142**DCL      1432<<ASSIGN   1448>>IF       1448>>IF       1448>>IF       1451<<ASSIGN   1453>>ASSIGN
      1454>>ASSIGN   1455>>ASSIGN   1456>>ASSIGN
NOT_THERE
      1468**LABEL    1360--CALLALT
NO_STATUS
      1404**LABEL    1400--CALLALT
NUM_EDACS
      1074**DCL      1431<<ASSIGN   1457<<ASSIGN   1457>>ASSIGN   1464>>IF       1465<<ASSIGN   1468<<ASSIGN
      1475>>DOINDEX  1476>>DOINDEX  1489>>IF       1492>>DOINDEX
PL6.E3A0      #004=THF$HWE File=THF$FORMAT.:E05TSI                               WED 07/30/97 06:16 Page:887
NUM_LINES
      1086**DCL      1369<<ASSIGN   1396<<ASSIGN   1396>>ASSIGN   1414>>IF
PERIPH_EOF
      1411**LABEL    1375--CALLALT
PERIPH_TITLE
      1101**DCL      1115--DCLINIT
PRINT_BLANK
      1087**DCL      1363<<ASSIGN   1390>>IF       1394<<ASSIGN   1415<<ASSIGN
PRINT_DATE
      1090**DCL      1385--CALL     1496--CALL
PRINT_HDR
      1085**DCL      1351<<ASSIGN   1376>>IF       1377<<ASSIGN
QUAD# IN PROCEDURE EDAC
      1569**DCL      1604<<ASSIGN   1605>>IF       1611>>ASSIGN   1633<<ASSIGN   1634>>CALLBLT  1634>>CALLBLT
QUAD_4K IN PROCEDURE EDAC
      1558**DCL      1604>>ASSIGN
RECORD_DATE
      1318**DCL      1406<>CALL
RECORD_DATE.V
      1322**DCL      1318--DCLINIT
REP_CODE
      1075**DCL      1340<<DOINDEX  1341>>IF       1341>>IF       1341>>IF       1344>>CALL     1350>>ASSIGN
      1361>>DOCASE   1472>>DOCASE
START_TIME
      1070**DCL      1352<>CALL     1353<<ASSIGN   1353>>ASSIGN   1354<>CALL     1354>>CALL     1358>>ASSIGN
STOP_TIME
      1071**DCL      1355<>CALL     1356<<ASSIGN   1356>>ASSIGN   1357<>CALL     1357>>CALL     1359>>DOWHILE
STORE_MODE
      1132**DCL      1438<<ASSIGN
STORE_MODE.SYNDROME
      1134**DCL      1138--REDEF
STORE_MODE.SYNDROME.PORT#
      1136**DCL      1439<<ASSIGN
STORE_MODE.SYNDROME.STORE#
      1137**DCL      1440<<ASSIGN
STORE_MODE.SYNDROME1
PL6.E3A0      #004=THF$HWE File=THF$FORMAT.:E05TSI                               WED 07/30/97 06:16 Page:888
      1138**DCL      1442>>IF       1453>>ASSIGN
TBL IN PROCEDURE EDAC
      1542**DCL      1539--PROC
TBL.MOSID IN PROCEDURE EDAC
      1544**DCL      1601>>IF
TBL.SYNDROME.A45 IN PROCEDURE EDAC
      1546**DCL      1611>>ASSIGN   1631>>ASSIGN
TBL.SYNDROME.A678 IN PROCEDURE EDAC
      1547**DCL      1614>>CALLBLT  1619>>CALLBLT  1631>>ASSIGN   1633>>ASSIGN
TBL.SYNDROME.NUMB IN PROCEDURE EDAC
      1549**DCL      1603>>ASSIGN   1604>>ASSIGN   1624>>ASSIGN
TBUF.N IN PROCEDURE EDAC
      1573**DCL      1574--IMP-SIZ
TEMP
      1140**DCL      1480<<ASSIGN   1482>>ASSIGN
TEMP_UTS
      1145**DCL      1382<>CALL     1383<<ASSIGN   1383>>ASSIGN   1384>>IF       1493<>CALL     1494<<ASSIGN
      1494>>ASSIGN   1495>>IF
TEXT$
      1094**DCL      1399<<ASSIGN   1401<>CALL     1402<>CALL     1404>>ASSIGN   1501<<ASSIGN   1505<>CALL
      1507<>CALL     1509<>CALL     1511<>CALL     1515<>CALL     1517<>CALL     1519<>CALL     1521<>CALL
      1523<>CALL     1524<>CALL     1528>>ASSIGN   1572--IMP-PTR
TEXTBUF
      1093**DCL      1399--ASSIGN   1403--ASSIGN   1404--ASSIGN   1501--ASSIGN   1527--ASSIGN   1528--ASSIGN
THF$ADD_TEXTC
      1063**DCL-ENT  1401--CALL     1402--CALL     1505--CALL     1507--CALL     1509--CALL     1511--CALL
      1515--CALL     1517--CALL     1519--CALL     1521--CALL     1523--CALL     1524--CALL
THF$STATUS
      1064**DCL-ENT  1400--CALL
THG$CLOSEXSA
      1067**DCL-ENT  1536--CALL
THG$GETREC
      1061**DCL-ENT  1375--CALL     1437--CALL
THG$OPENXSA
      1065**DCL-ENT  1360--CALL
THW$WRITE
PL6.E3A0      #004=THF$HWE File=THF$FORMAT.:E05TSI                               WED 07/30/97 06:16 Page:889
      1062**DCL-ENT  1344--CALL     1379--CALL     1385--CALL     1393--CALL     1408--CALL     1490--CALL
      1496--CALL     1530--CALL
TH_BOF
       453**DCL      1367<<ASSIGN   1434<<ASSIGN
TH_CHECK_DEVNM
       463**DCL      1372<<ASSIGN   1373<<ASSIGN   1430<<ASSIGN
TH_CONSTRAINTS.DEVNM
       425**DCL      1370<<ASSIGN   1371>>IF       1429<<ASSIGN
TH_CONSTRAINTS.E_BY_B
       428**DCL       428--REDEF
TH_CONSTRAINTS.M_BY_B
       427**DCL       427--REDEF
TH_CONSTRAINTS.NTYPES
       425**DCL      1364<<ASSIGN   1427<<ASSIGN
TH_CONSTRAINTS.START
       426**DCL      1344--CALL     1352<>CALL
TH_CONSTRAINTS.STOP
       426**DCL      1344--CALL     1355<>CALL
TH_CONSTRAINTS.TYPES
       425**DCL       425--REDEF    1365<<ASSIGN   1428<<ASSIGN
TH_DATE
       456**DCL      1292--DCLINIT  1293--DCLINIT  1318--DCLINIT  1319--DCLINIT
TH_DAY
       456**DCL      1321--DCLINIT
TH_DEFAULT.E_BY_B
       436**DCL       436--REDEF
TH_DEFAULT.M_BY_B
       435**DCL       435--REDEF
TH_DEFAULT.TYPES
       433**DCL       433--REDEF
TH_HDR.PTR$
       455**DCL      1171--IMP-PTR  1382>>CALL     1385>>CALL     1387>>CALL     1444>>ASSIGN   1455>>ASSIGN
TH_HWE_FMT
      1143**DCL      1350>>ASSIGN
TH_INFO
       454**DCL      1408<>CALL
PL6.E3A0      #004=THF$HWE File=THF$FORMAT.:E05TSI                               WED 07/30/97 06:16 Page:890
TH_INFO.PTR$
       454**DCL      1215--IMP-PTR  1224--IMP-PTR  1400>>CALL     1438>>ASSIGN   1439>>ASSIGN   1440>>ASSIGN
      1456>>ASSIGN
TH_LASTUTS
       455**DCL      1322--DCLINIT
TH_NUM_REP_DEVS
       450**DCL      1366>>DOINDEX
TH_REP_DEVS
       451**DCL      1370>>ASSIGN
TH_SAVE.E_BY_B
       444**DCL       444--REDEF
TH_SAVE.M_BY_B
       442**DCL       442--REDEF
TH_SAVE.TYPES
       440**DCL       441--REDEF
TH_SITE_ID
       456**DCL      1344--CALL
TH_SITE_NAME
       457**DCL      1344--CALL
TH_TIME
       456**DCL      1294--DCLINIT  1295--DCLINIT  1320--DCLINIT  1321--DCLINIT  1408--CALL     1530--CALL
      1593--DCLINIT  1594--DCLINIT
TH_XSA_BUF_VECTOR
       460**DCL       460--REDEF
TITLE_VEC
      1111**DCL      1344<>CALL
TVEC
      1095**DCL      1398<<ASSIGN   1403<<ASSIGN   1408<>CALL     1527<<ASSIGN   1530<>CALL
TVEC.BOUND
      1096**DCL      1404<<ASSIGN   1528<<ASSIGN
XUD$UTS_ADJ_25TH
      1258**DCL-ENT  1354--CALL     1357--CALL     1470--CALL
XUD$UTS_DIFF_SEC
      1240**DCL-ENT  1352--CALL     1355--CALL     1382--CALL     1387--CALL     1493--CALL     1498--CALL

