PL6.E3A0      #006=THF$SYS File=THF$FORMAT.:E05TSI                               WED 07/30/97 06:17 Page:1016
     5295        1        /*M* THF$SYS - PRODUCES SYS REPORT FOR ELAN */
     5296        2        /*T***********************************************************/
     5297        3        /*T*                                                         */
     5298        4        /*T* Copyright (c) Bull HN Information Systems Inc., 1997    */
     5299        5        /*T*                                                         */
     5300        6        /*T***********************************************************/
     5301        7        THF$SYS: PROC;
     5302        8        /**/
     5303        9        /* INCLUDE FILES */
     5304       10        %INCLUDE CP_6;
     5305       91        %INCLUDE TH_DATA_R;
     5306      169        %INCLUDE TH_SUBS_C;
     5307      551        %INCLUDE EL_SUBS_C;
     5308      635        %INCLUDE TD$STRUCT;
     5309      736        %INCLUDE TH$HIST;
     5310      831        %INCLUDE EL$TABLES;
     5311     1154        %INCLUDE NI$TABLES;
     5312     1370        %INCLUDE B_SEGIDS_C;
     5313     1909        %INCLUDE XUD_UTS_M;
     5314     1991        /**/
     5315     1992        /* ENTRY DCLS */
     5316     1993    1   DCL THG$GETREC ENTRY(4) ALTRET;
     5317     1994    1   DCL THG$OPENXSA ENTRY(1) ALTRET;
     5318     1995    1   DCL THG$PRECORDXSA ENTRY(1) ALTRET;
     5319     1996    1   DCL THG$CLOSEXSA ENTRY ALTRET;
     5320     1997    1   DCL THP$STATS ENTRY(3);
     5321     1998    1   DCL THW$WRITE ENTRY(11);
     5322     1999    1   DCL THE$PROCESS ENTRY ALTRET;
     5323     2000        /**/
     5324     2001        /* VARS */
     5325     2002        %EL$FECRASH (STCLASS="BASED(TH_INFO.PTR$)");
     5326     2007        %TD$HEAD (NAME=TH_HEAD,STCLASS=AUTO,NUMDEV#=200);
     5327     2043        %TD$HEAD (NAME=TH$HEAD,NUMDEV#=200);
     5328     2079        %TH$THRESH (NAME=TH_THRESH,STCLASS=AUTO,NUMDEV#=200);
     5329     2085        %TH$THRESH (NAME=TH$THRESH,NUMDEV#=200);
     5330     2091        %TH$IOM (NAME=IOMREC,STCLASS=AUTO);
     5331     2102        %TH$IOM (NAME=TH$IOM);
PL6.E3A0      #006=THF$SYS File=THF$FORMAT.:E05TSI                               WED 07/30/97 06:17 Page:1017
     5332     2113        %TH$MPC (NAME=MPCREC,STCLASS=AUTO,NUMDEV#=32);
     5333     2134        %TH$MPC (NAME=TH$MPC,NUMDEV#=32);
     5334     2155        %TH$DEV (NAME=DEVREC,STCLASS=AUTO);
     5335     2176        %TH$DEV (NAME=TH$DEV);
     5336     2197    1   DCL START_TIME UBIN WORD;
     5337     2198    1   DCL STOP_TIME UBIN WORD;
     5338     2199    1   DCL NUMEDAC UBIN WORD;
     5339     2200    1   DCL NUMPROCERR UBIN WORD;
     5340     2201    1   DCL NUMSUA UBIN WORD;
     5341     2202    1   DCL NUMSNAP UBIN WORD;
     5342     2203    1   DCL NUMSCREECH UBIN WORD;
     5343     2204    1   DCL NUMZAP UBIN WORD;
     5344     2205    1   DCL NUMFEPEVENT(0:256) UBIN WORD;
     5345     2206    1   DCL HEAD_KEY CHAR(8) CONSTANT INIT('0');
     5346     2207    1   DCL THRESH_KEY CHAR(8) CONSTANT INIT('1');
     5347     2208    1   DCL ERRLOG_DATE UBIN WORD STATIC;
     5348     2209    1   DCL UTS UBIN WORD;
     5349     2210    1   DCL PVAL_BUF CHAR(7);
     5350     2211    1   DCL ATTEN_BUF CHAR(7);
     5351     2212    1   DCL ALERT_BUF CHAR(7);
     5352     2213    1   DCL FLAG_BUF CHAR(13);
     5353     2214    1   DCL TEMP CHAR(2);
     5354     2215    1   DCL TEMP1 CHAR(2);
     5355     2216    1   DCL FRACT_PART SBIN;
     5356     2217    1   DCL INT_PART UBIN;
     5357     2218    1   DCL NUMDEVS UBIN WORD;
     5358     2219    1   DCL LAST_CLASS CHAR(2);
     5359     2220    1   DCL I SBIN WORD;
     5360     2221    1   DCL J SBIN WORD;
     5361     2222    1   DCL K SBIN WORD;
     5362     2223    1   DCL N SBIN WORD;
     5363     2224    1   DCL FEPSIZE SBIN WORD;
     5364     2225    1   DCL ENDFEP# SBIN WORD;
     5365     2226    1   DCL DCTX UBIN WORD;
     5366     2227    1   DCL DCT$ PTR;
     5367     2228    1   DCL 1 DCTPTR REDEF DCT$,
     5368     2229    1         2 OFFSET UBIN(18) UNAL,
PL6.E3A0      #006=THF$SYS File=THF$FORMAT.:E05TSI                               WED 07/30/97 06:17 Page:1018
     5369     2230    1         2 * BIT(6) UNAL,
     5370     2231    1         2 SEGID BIT(12) UNAL;
     5371     2232        %NI$DCT (NAME=DCT,STCLASS="BASED(DCT$)");
     5372     2280    1   DCL PVAL SBIN WORD;
     5373     2281    1   DCL COUNT UBIN WORD;
     5374     2282    1   DCL CONNECTS UBIN WORD;
     5375     2283    1   DCL ATTEN_FLAG BIT(1);
     5376     2284    1   DCL ALERT_FLAG BIT(1);
     5377     2285    1   DCL BLANK_LINE CHAR(0) CONSTANT INIT('%10P');
     5378     2286    1   DCL NUM_LINES UBIN WORD;
     5379     2287    1   DCL SYS_TYPE_VEC (0:6) UBIN BYTE UNAL STATIC INIT(EL_EDAC,EL_PROCERR,EL_ZAP,
              2287            EL_SCREECH,EL_SNAP,EL_SUA,EL_FEPCRASH);
     5380     2288    1   DCL EOF_FLAG BIT(1);
     5381     2289    1   DCL EDACLINE CHAR(0) CONSTANT INIT('%/%15-EDAC Errors : %41-%D%10P');
     5382     2290    1   DCL PROCERRLINE CHAR(0) CONSTANT INIT('%/%15-Processor Errors : %41-%D%10P');
     5383     2291    1   DCL ZAPLINE CHAR(0) CONSTANT INIT('%/%15-Operator Initiated Zaps : %41-%D%10P');
     5384     2292    1   DCL SUALINE CHAR(0) CONSTANT INIT('%/%15-Single User Aborts : %41-%D%10P');
     5385     2293    1   DCL SNAPLINE CHAR(0) CONSTANT INIT('%/%15-Snaps : %41-%D%10P');
     5386     2294    1   DCL SCREECHLINE CHAR(0) CONSTANT INIT('%/%15-System Crashes : %41-%D%10P');
     5387     2295    1   DCL FEPEVENT_HDR CHAR(0) CONSTANT INIT('%/%15-Front End Processor Events :%10P');
     5388     2296    1   DCL FEPEVENTLINE CHAR(0) CONSTANT INIT('%20-FEP%D : %41-%2P%D%10P');
     5389     2297    1   DCL 1 PVAL_HDR CONSTANT UNAL,
     5390     2298    1         2 * CHAR(0) INIT('%15-Performance of System Components%/'),
     5391     2299    1         2 * CHAR(0) INIT('%10-Component Performance Atten Val Alert Val%/'),
     5392     2300    1         2 * CHAR(0) INIT('%10---------- ----------- --------- ---------%10P');
     5393     2301    1   DCL PVAL_LINE CHAR(0) CONSTANT INIT(
     5394     2302    1   '%10-%4A%2P%22-%A%33-%3P%A%43-%4P%A%53-%5P%A%10P');
     5395     2303        %XUD$UTS_ENTRIES;
     5396     2335        %XUD_UTS_EQU;
     5397     2346        %EJECT;
PL6.E3A0      #006=THF$SYS File=THF$FORMAT.:E05TSI                               WED 07/30/97 06:17 Page:1019
     5398     2347    1        CALL THG$GETREC(%DEVHIST,HEAD_KEY) ALTRET(ALT);
     5399     2348    1        TH_HEAD = TH_RECORD.PTR$->TH$HEAD;
     5400     2349    1        CALL THG$GETREC(%DEVHIST,THRESH_KEY) ALTRET(ALT);
     5401     2350    1        TH_THRESH = TH_RECORD.PTR$->TH$THRESH;
     5402     2351    1        NUMDEVS = TH_HEAD.XX_INDX + TH_HEAD.NUMXXS;
     5403     2352    1        LAST_CLASS = ' ';
     5404     2353    1        NUM_LINES = 0;
     5405     2354    1        TH_SAVE = TH_CONSTRAINTS;
     5406     2355    2        IF TH_PROC_FLAG THEN DO;
     5407     2356    2           CALL THE$PROCESS;
     5408     2357    2           TH_PROC_FLAG = %FALSE;
     5409     2358    2           END;  /* IF TH_PROC_FLAG */
     5410     2359    1        TH_CONSTRAINTS = TH_SAVE;
     5411     2360    1        CALL THW$WRITE(VECTOR(PVAL_HDR));
     5412     2361    2        DO I = 0 TO NUMDEVS - 1;
     5413     2362    2           ATTEN_FLAG = %FALSE;
     5414     2363    2           ALERT_FLAG = %FALSE;
     5415     2364    2           COUNT = 0;
     5416     2365    2           CONNECTS = 0;
     5417     2366    2           PVAL = 10000;  /* %100 */
     5418     2367    2          CALL XUD$UTS_DIFF_SEC (START_TIME, TH_CONSTRAINTS.START, 0);
     5419     2368    2          START_TIME = START_TIME / 86400;
     5420     2369    2          CALL XUD$UTS_ADJ_25TH (START_TIME, 0, START_TIME*%UTS_25TH_DAY#);
     5421     2370    2          CALL XUD$UTS_DIFF_SEC (STOP_TIME, TH_CONSTRAINTS.STOP, 0);
     5422     2371    2          STOP_TIME = STOP_TIME / 86400;
     5423     2372    2          CALL XUD$UTS_ADJ_25TH (STOP_TIME, 0, STOP_TIME*%UTS_25TH_DAY#);
     5424     2373    2          ERRLOG_DATE = START_TIME;
     5425     2374    3          DO WHILE (ERRLOG_DATE <= STOP_TIME);
     5426     2375    3              CALL XUD$UTS_DIFF_SEC(UTS, ERRLOG_DATE, 0);
     5427     2376    3              UTS = UTS / 86400;
     5428     2377    3              CALL XUD$UTS_ADJ_25TH(UTS, 0, UTS * %UTS_25TH_DAY#);
     5429     2378    3              IF SUBSTR(TH_HEAD.DEVNAME(I),0,3) = 'FEP'
     5430     2379    3                 THEN GOTO ENDLOOP;  /* PVALS UNDEFINED FOR FEPS */
     5431     2380    3              CALL THG$GETREC(%DEVHIST,TH_HEAD.DEVNAME(I),UTS) ALTRET(NOT_THERE);
     5432     2381    3              IF (SUBSTR(TH_HEAD.DEVNAME(I),0,2) = 'UC') OR
     5433     2382    3                 (SUBSTR(TH_HEAD.DEVNAME(I),0,2) = 'DC') OR
     5434     2383    4                 (SUBSTR(TH_HEAD.DEVNAME(I),0,2) = 'TC') THEN DO;
PL6.E3A0      #006=THF$SYS File=THF$FORMAT.:E05TSI                               WED 07/30/97 06:17 Page:1020
     5435     2384    4                 MPCREC = TH_RECORD.PTR$->TH$MPC;
     5436     2385    4                 COUNT = COUNT + MPCREC.COUNT;
     5437     2386    4                 CONNECTS = CONNECTS + MPCREC.CONNECTS;
     5438     2387    4                 END;  /* IF MPC */
     5439     2388    3                 ELSE
     5440     2389    4              IF SUBSTR(TH_HEAD.DEVNAME(I),0,3) = 'IOM' THEN DO;
     5441     2390    4                 IOMREC = TH_RECORD.PTR$->TH$IOM;
     5442     2391    4                 COUNT = COUNT + IOMREC.COUNT;
     5443     2392    4                 CONNECTS = CONNECTS + IOMREC.CONNECTS;
     5444     2393    4                 END;  /* IF IOM */
     5445     2394    4              ELSE DO;
     5446     2395    4                 DEVREC = TH_RECORD.PTR$->TH$DEV;
     5447     2396    5                 DO K = 10 TO 20;
     5448     2397    5                    COUNT = COUNT + DEVREC.COUNT(K);
     5449     2398    5                    END;  /* DO K */
     5450     2399    4                 CONNECTS = CONNECTS + DEVREC.CONNECTS;
     5451     2400    4                 END;  /* ELSE */
     5452     2401    3              CALL THP$STATS(COUNT,CONNECTS,PVAL);
     5453     2402    3     NOT_THERE:
     5454     2403    3              CALL XUD$UTS_ADJ_25TH(ERRLOG_DATE,ERRLOG_DATE,%UTS_25TH_DAY#);
     5455     2404    3              END;  /* DO ERRLOG_DATE */
     5456     2405    2           FLAG_BUF = ' ';
     5457     2406    2           IF PVAL  < TH_THRESH.ALERT(I)
     5458     2407    2              THEN FLAG_BUF = '*** ALERT ***';
     5459     2408    2              ELSE
     5460     2409    2           IF PVAL < TH_THRESH.ATTEN(I)
     5461     2410    2              THEN FLAG_BUF = '* ATTENTION *';
     5462     2411    2           DCTX = 0;
     5463     2412    3           DO UNTIL(DCTX > TH_MAXDCTX OR DCT.DEVNM = TH_HEAD.DEVNAME(I));
     5464     2413    3              DCTX = DCTX + 1;
     5465     2414    3              DCT$ = TH_DCT$(DCTX);
     5466     2415    3              DCTPTR.SEGID = %SPCL1SID;
     5467     2416    3              END;  /* DO UNTIL */
     5468     2417    2           IF DCTX > TH_MAXDCTX THEN GOTO ENDLOOP;
     5469     2418    2           IF PVAL = 10000
     5470     2419    2              THEN PVAL_BUF = '%100.00';
     5471     2420    2          ELSE IF CONNECTS = 0
PL6.E3A0      #006=THF$SYS File=THF$FORMAT.:E05TSI                               WED 07/30/97 06:17 Page:1021
     5472     2421    3                 THEN DO;
     5473     2422    3                   PVAL_BUF = '%100.00';
     5474     2423    3                   FLAG_BUF = ' ';
     5475     2424    3                 END;
     5476     2425    3           ELSE DO;
     5477     2426    3              INT_PART = PVAL/100;
     5478     2427    3              FRACT_PART = MOD(PVAL,100);
     5479     2428    3              CALL BINCHAR(TEMP,INT_PART);
     5480     2429    3              CALL BINCHAR(TEMP1,FRACT_PART);
     5481     2430    3              CALL INSERT(PVAL_BUF,0,7,' %',TEMP,'.',TEMP1);
     5482     2431    3              END;  /* ELSE */
     5483     2432    2           IF TH_THRESH.ATTEN(I) = 10000
     5484     2433    2              THEN ATTEN_BUF = '%100.00';
     5485     2434    3           ELSE DO;
     5486     2435    3              INT_PART = TH_THRESH.ATTEN(I)/100;
     5487     2436    3              FRACT_PART = MOD(TH_THRESH.ATTEN(I),100);
     5488     2437    3              CALL BINCHAR(TEMP,INT_PART);
     5489     2438    3              CALL BINCHAR(TEMP1,FRACT_PART);
     5490     2439    3              CALL INSERT(ATTEN_BUF,0,7,' %',TEMP,'.',TEMP1);
     5491     2440    3              END;  /* ELSE */
     5492     2441    2           IF TH_THRESH.ALERT(I) = 10000
     5493     2442    2              THEN ALERT_BUF = '%100.00';
     5494     2443    3           ELSE DO;
     5495     2444    3              INT_PART = TH_THRESH.ALERT(I)/100;
     5496     2445    3              FRACT_PART = MOD(TH_THRESH.ALERT(I),100);
     5497     2446    3              CALL BINCHAR(TEMP,INT_PART);
     5498     2447    3              CALL BINCHAR(TEMP1,FRACT_PART);
     5499     2448    3              CALL INSERT(ALERT_BUF,0,7,' %',TEMP,'.',TEMP1);
     5500     2449    3              END;  /* ELSE */
     5501     2450    2           IF NUM_LINES > 0 AND LAST_CLASS ~= SUBSTR(TH_HEAD.DEVNAME(I),0,2)
     5502     2451    2              THEN CALL THW$WRITE(VECTOR(BLANK_LINE));
     5503     2452    2           CALL THW$WRITE(VECTOR(PVAL_LINE),
     5504     2453    2                          VECTOR(TH_HEAD.DEVNAME(I)),
     5505     2454    2                          VECTOR(PVAL_BUF),
     5506     2455    2                          VECTOR(ATTEN_BUF),
     5507     2456    2                          VECTOR(ALERT_BUF),
     5508     2457    2                          VECTOR(FLAG_BUF));
PL6.E3A0      #006=THF$SYS File=THF$FORMAT.:E05TSI                               WED 07/30/97 06:17 Page:1022
     5509     2458    2           LAST_CLASS = SUBSTR(TH_HEAD.DEVNAME(I),0,2);
     5510     2459    2           NUM_LINES = NUM_LINES + 1;
     5511     2460    2      ENDLOOP:
     5512     2461    2           END;  /* DO I */
     5513     2462    1        TH_CONSTRAINTS.NTYPES = 7;
     5514     2463    1        TH_CONSTRAINTS.TYPES = SYS_TYPE_VEC;
     5515     2464    1        NUMEDAC = 0;
     5516     2465    1        NUMPROCERR = 0;
     5517     2466    1        NUMZAP = 0;
     5518     2467    1        NUMSUA = 0;
     5519     2468    1        NUMSNAP = 0;
     5520     2469    1        NUMSCREECH = 0;
     5521     2470    1        NUMFEPEVENT = '0'B;
     5522     2471    1          ERRLOG_DATE = START_TIME;
     5523     2472    2          DO WHILE (ERRLOG_DATE <= STOP_TIME);
     5524     2473    2           CALL THG$OPENXSA(ERRLOG_DATE) ALTRET(ALT);
     5525     2474    2           TH_IOERR_M_OR_E_SET = '0'B;
     5526     2475    2           TH_FEPERR_M_OR_E_SET = '0'B;
     5527     2476    2           TH_CHECK_DEVNM = '0'B;
     5528     2477    2           EOF_FLAG = %FALSE;
     5529     2478    2           TH_BOF = %TRUE;
     5530     2479    3           DO WHILE(NOT EOF_FLAG);
     5531     2480    3              CALL THG$GETREC(%ERRLOG) ALTRET(EOF);
     5532     2481    4              DO CASE(TH_ITYPE);
     5533     2482    4                 CASE(%TH_EDAC);
     5534     2483    4                    NUMEDAC = NUMEDAC + 1;
     5535     2484    4                 CASE(%TH_PROCERR);
     5536     2485    4                    NUMPROCERR = NUMPROCERR + 1;
     5537     2486    4                 CASE(%TH_ZAP);
     5538     2487    4                    NUMZAP = NUMZAP + 1;
     5539     2488    4                 CASE(%TH_SUA);
     5540     2489    4                    NUMSUA = NUMSUA + 1;
     5541     2490    4                 CASE(%TH_SNAP);
     5542     2491    4                    NUMSNAP = NUMSNAP + 1;
     5543     2492    4                 CASE(%TH_SCREECH);
     5544     2493    4                    NUMSCREECH = NUMSCREECH + 1;
     5545     2494    4                 CASE(%TH_FEPEVENT);
PL6.E3A0      #006=THF$SYS File=THF$FORMAT.:E05TSI                               WED 07/30/97 06:17 Page:1023
     5546     2495    4                    NUMFEPEVENT(EL$FECRASH.FENM.FEP#) = NUMFEPEVENT(EL$FECRASH.FENM.
              2495                             FEP#) + 1;
     5547     2496    4                 END;  /* DO CASE */
     5548     2497    4              DO NEVER;
     5549     2498    4        EOF:     EOF_FLAG = %TRUE;
     5550     2499    4                 END;  /* DO NEVER */
     5551     2500    3              END;  /* DO WHILE NOT EOF_FLAG */
     5552     2501    2   NO_FILE:
     5553     2502    2           CALL XUD$UTS_ADJ_25TH(ERRLOG_DATE,ERRLOG_DATE,%UTS_25TH_DAY#);
     5554     2503    2           END;  /* DO ERRLOG_DATE */
     5555     2504    1        CALL THW$WRITE(VECTOR(EDACLINE),VECTOR(NUMEDAC));
     5556     2505    1        CALL THW$WRITE(VECTOR(PROCERRLINE),VECTOR(NUMPROCERR));
     5557     2506    1        CALL THW$WRITE(VECTOR(SCREECHLINE),VECTOR(NUMSCREECH));
     5558     2507    1        CALL THW$WRITE(VECTOR(FEPEVENT_HDR));
     5559     2508    2        DO J = 0 TO 256;
     5560     2509    2           IF NUMFEPEVENT(J) ~= 0 THEN
     5561     2510    2              CALL THW$WRITE(VECTOR(FEPEVENTLINE),VECTOR(J),VECTOR(NUMFEPEVENT(J)));
     5562     2511    2        END;  /* DO J */
     5563     2512    1        CALL THW$WRITE(VECTOR(SUALINE),VECTOR(NUMSUA));
     5564     2513    1        CALL THW$WRITE(VECTOR(SNAPLINE),VECTOR(NUMSNAP));
     5565     2514    1        CALL THW$WRITE(VECTOR(ZAPLINE),VECTOR(NUMZAP));
     5566     2515    1   ALT:
     5567     2516    1        CALL THG$CLOSEXSA;
     5568     2517    1        RETURN;
     5569     2518    1   END THF$SYS;
     5570     2519        %EOD;

PL6.E3A0      #006=THF$SYS File=THF$FORMAT.:E05TSI                               WED 07/30/97 06:17 Page:1024
--  Include file information  --

   XUD_UTS_M.:E05TOU  is referenced.
   B_SEGIDS_C.:E05TOU  is referenced.
   NI$TABLES.:E05TOU  is referenced.
   EL$TABLES.:E05TOU  is referenced.
   TH$HIST.:E05TOU  is referenced.
   TD$STRUCT.:E05TOU  is referenced.
   EL_SUBS_C.:E05TOU  is referenced.
   B_STRINGS_C.:E05TOU  is referenced.
   TH_SUBS_C.:E05TOU  is referenced.
   TH_DATA_R.:E05TOU  cannot be made into a system file and is referenced.
   CP_6.:E05TOU  cannot be made into a system file and is referenced.
   B$JIT_C.:E05TOU  was found in the system file and is never referenced.
   CP_6_C.:E05TOU  was found in the system file and is referenced.
      No diagnostics issued in procedure THF$SYS.

   Procedure THF$SYS requires 669 words for executable code.
   Procedure THF$SYS requires 1932 words of local(AUTO) storage.

PL6.E3A0      #006=THF$SYS File=THF$FORMAT.:E05TSI                               WED 07/30/97 06:17 Page:1025

 Object Unit name= THF$SYS                                    File name= THF$FORMAT.:E05TOU
 UTS= JUL 30 '97 06:17:50.52 WED                              Compiler= PL-6/E31         Sev=      00
 SharedLib= :SHARED_SYSTEM                                    Alt SharedLib=


    ****  Control sections  ****

 Sect   Type Bound  Init  Size OctSiz  Section name(segment info)
    0   DCB   even  none     0      0  M$UC
    1  RoData even  UTS    137    211  THF$SYS
    2   Data  even  none     3      3  THF$SYS
    3   Proc  even  none   669   1235  THF$SYS
    4  RoData even  none    59     73  THF$SYS

    ****  Entry defs  ****

                              Check   Calling
                             calling  sequence
  Sect OctLoc Primary Altret sequence   type   Parms  Name
     3      0   yes            yes      Std        0  THF$SYS

  ****  Entry refs  ****

         Check        Calling
        calling       sequence
Altret sequence SRef   type   Args  Name
 yes     yes           Std       4 THG$GETREC
 yes     yes           Std       0 THE$PROCESS
 yes     yes           Std       3 XUD$UTS_DIFF_SEC
         yes           Std       3 THP$STATS
         yes           Std      11 THW$WRITE
 yes     yes           Std       3 XUD$UTS_ADJ_25TH
 yes     yes           Std       0 THG$CLOSEXSA
 yes     yes           Std       1 THG$OPENXSA
                       nStd      0 X66_AUTO_0
                       Std       0 B_CONSPOOL_D
                       nStd      0 X66_ARET
PL6.E3A0      #006=THF$SYS File=THF$FORMAT.:E05TSI                               WED 07/30/97 06:17 Page:1026

  ****  Data refs  ****

  Flags:  r = read only, s = secondary
Flgs Name                             Flgs Name                             Flgs Name
     M$UC                                  TH_CONSTRAINTS                        TH_SAVE
     TH_BOF                                TH_RECORD                             TH_INFO
     TH_ITYPE                              TH_PROC_FLAG                          TH_MAXDCTX
     TH_DCT$                               TH_XSA_BUF_VECTOR                     TH_IOERR_M_OR_E_SET
     TH_FEPERR_M_OR_E_SET                  TH_CHECK_DEVNM                        B_VECTNIL

  ****  Segment refs  ****

  Flags:  r = read only, s = secondary
Flgs Name                             Flgs Name                             Flgs Name
     ISSID
PL6.E3A0      #006=THF$SYS File=THF$FORMAT.:E05TSI                               WED 07/30/97 06:17 Page:1027


     5295        1        /*M* THF$SYS - PRODUCES SYS REPORT FOR ELAN */
     5296        2        /*T***********************************************************/
     5297        3        /*T*                                                         */
     5298        4        /*T* Copyright (c) Bull HN Information Systems Inc., 1997    */
     5299        5        /*T*                                                         */
     5300        6        /*T***********************************************************/
     5301        7        THF$SYS: PROC;

      7  3 000000   000000 700200 xent  THF$SYS      TSX0  ! X66_AUTO_0
         3 000001   003614 000000                    ZERO    1932,0

     5302        8        /**/
     5303        9        /* INCLUDE FILES */
     5304       10        %INCLUDE CP_6;
     5305       91        %INCLUDE TH_DATA_R;
     5306      169        %INCLUDE TH_SUBS_C;
     5307      551        %INCLUDE EL_SUBS_C;
     5308      635        %INCLUDE TD$STRUCT;
     5309      736        %INCLUDE TH$HIST;
     5310      831        %INCLUDE EL$TABLES;
     5311     1154        %INCLUDE NI$TABLES;
     5312     1370        %INCLUDE B_SEGIDS_C;
     5313     1909        %INCLUDE XUD_UTS_M;
     5314     1991        /**/
     5315     1992        /* ENTRY DCLS */
     5316     1993    1   DCL THG$GETREC ENTRY(4) ALTRET;
     5317     1994    1   DCL THG$OPENXSA ENTRY(1) ALTRET;
     5318     1995    1   DCL THG$PRECORDXSA ENTRY(1) ALTRET;
     5319     1996    1   DCL THG$CLOSEXSA ENTRY ALTRET;
     5320     1997    1   DCL THP$STATS ENTRY(3);
     5321     1998    1   DCL THW$WRITE ENTRY(11);
     5322     1999    1   DCL THE$PROCESS ENTRY ALTRET;
     5323     2000        /**/
     5324     2001        /* VARS */
     5325     2002        %EL$FECRASH (STCLASS="BASED(TH_INFO.PTR$)");
     5326     2007        %TD$HEAD (NAME=TH_HEAD,STCLASS=AUTO,NUMDEV#=200);
PL6.E3A0      #006=THF$SYS File=THF$FORMAT.:E05TSI                               WED 07/30/97 06:17 Page:1028
     5327     2043        %TD$HEAD (NAME=TH$HEAD,NUMDEV#=200);
     5328     2079        %TH$THRESH (NAME=TH_THRESH,STCLASS=AUTO,NUMDEV#=200);
     5329     2085        %TH$THRESH (NAME=TH$THRESH,NUMDEV#=200);
     5330     2091        %TH$IOM (NAME=IOMREC,STCLASS=AUTO);
     5331     2102        %TH$IOM (NAME=TH$IOM);
     5332     2113        %TH$MPC (NAME=MPCREC,STCLASS=AUTO,NUMDEV#=32);
     5333     2134        %TH$MPC (NAME=TH$MPC,NUMDEV#=32);
     5334     2155        %TH$DEV (NAME=DEVREC,STCLASS=AUTO);
     5335     2176        %TH$DEV (NAME=TH$DEV);
     5336     2197    1   DCL START_TIME UBIN WORD;
     5337     2198    1   DCL STOP_TIME UBIN WORD;
     5338     2199    1   DCL NUMEDAC UBIN WORD;
     5339     2200    1   DCL NUMPROCERR UBIN WORD;
     5340     2201    1   DCL NUMSUA UBIN WORD;
     5341     2202    1   DCL NUMSNAP UBIN WORD;
     5342     2203    1   DCL NUMSCREECH UBIN WORD;
     5343     2204    1   DCL NUMZAP UBIN WORD;
     5344     2205    1   DCL NUMFEPEVENT(0:256) UBIN WORD;
     5345     2206    1   DCL HEAD_KEY CHAR(8) CONSTANT INIT('0');
     5346     2207    1   DCL THRESH_KEY CHAR(8) CONSTANT INIT('1');
     5347     2208    1   DCL ERRLOG_DATE UBIN WORD STATIC;
     5348     2209    1   DCL UTS UBIN WORD;
     5349     2210    1   DCL PVAL_BUF CHAR(7);
     5350     2211    1   DCL ATTEN_BUF CHAR(7);
     5351     2212    1   DCL ALERT_BUF CHAR(7);
     5352     2213    1   DCL FLAG_BUF CHAR(13);
     5353     2214    1   DCL TEMP CHAR(2);
     5354     2215    1   DCL TEMP1 CHAR(2);
     5355     2216    1   DCL FRACT_PART SBIN;
     5356     2217    1   DCL INT_PART UBIN;
     5357     2218    1   DCL NUMDEVS UBIN WORD;
     5358     2219    1   DCL LAST_CLASS CHAR(2);
     5359     2220    1   DCL I SBIN WORD;
     5360     2221    1   DCL J SBIN WORD;
     5361     2222    1   DCL K SBIN WORD;
     5362     2223    1   DCL N SBIN WORD;
     5363     2224    1   DCL FEPSIZE SBIN WORD;
PL6.E3A0      #006=THF$SYS File=THF$FORMAT.:E05TSI                               WED 07/30/97 06:17 Page:1029
     5364     2225    1   DCL ENDFEP# SBIN WORD;
     5365     2226    1   DCL DCTX UBIN WORD;
     5366     2227    1   DCL DCT$ PTR;
     5367     2228    1   DCL 1 DCTPTR REDEF DCT$,
     5368     2229    1         2 OFFSET UBIN(18) UNAL,
     5369     2230    1         2 * BIT(6) UNAL,
     5370     2231    1         2 SEGID BIT(12) UNAL;
     5371     2232        %NI$DCT (NAME=DCT,STCLASS="BASED(DCT$)");
     5372     2280    1   DCL PVAL SBIN WORD;
     5373     2281    1   DCL COUNT UBIN WORD;
     5374     2282    1   DCL CONNECTS UBIN WORD;
     5375     2283    1   DCL ATTEN_FLAG BIT(1);
     5376     2284    1   DCL ALERT_FLAG BIT(1);
     5377     2285    1   DCL BLANK_LINE CHAR(0) CONSTANT INIT('%10P');
     5378     2286    1   DCL NUM_LINES UBIN WORD;
     5379     2287    1   DCL SYS_TYPE_VEC (0:6) UBIN BYTE UNAL STATIC INIT(EL_EDAC,EL_PROCERR,EL_ZAP,
              2287            EL_SCREECH,EL_SNAP,EL_SUA,EL_FEPCRASH);
     5380     2288    1   DCL EOF_FLAG BIT(1);
     5381     2289    1   DCL EDACLINE CHAR(0) CONSTANT INIT('%/%15-EDAC Errors : %41-%D%10P');
     5382     2290    1   DCL PROCERRLINE CHAR(0) CONSTANT INIT('%/%15-Processor Errors : %41-%D%10P');
     5383     2291    1   DCL ZAPLINE CHAR(0) CONSTANT INIT('%/%15-Operator Initiated Zaps : %41-%D%10P');
     5384     2292    1   DCL SUALINE CHAR(0) CONSTANT INIT('%/%15-Single User Aborts : %41-%D%10P');
     5385     2293    1   DCL SNAPLINE CHAR(0) CONSTANT INIT('%/%15-Snaps : %41-%D%10P');
     5386     2294    1   DCL SCREECHLINE CHAR(0) CONSTANT INIT('%/%15-System Crashes : %41-%D%10P');
     5387     2295    1   DCL FEPEVENT_HDR CHAR(0) CONSTANT INIT('%/%15-Front End Processor Events :%10P');
     5388     2296    1   DCL FEPEVENTLINE CHAR(0) CONSTANT INIT('%20-FEP%D : %41-%2P%D%10P');
     5389     2297    1   DCL 1 PVAL_HDR CONSTANT UNAL,
     5390     2298    1         2 * CHAR(0) INIT('%15-Performance of System Components%/'),
     5391     2299    1         2 * CHAR(0) INIT('%10-Component Performance Atten Val Alert Val%/'),
     5392     2300    1         2 * CHAR(0) INIT('%10---------- ----------- --------- ---------%10P');
     5393     2301    1   DCL PVAL_LINE CHAR(0) CONSTANT INIT(
     5394     2302    1   '%10-%4A%2P%22-%A%33-%3P%A%43-%4P%A%53-%5P%A%10P');
     5395     2303        %XUD$UTS_ENTRIES;
     5396     2335        %XUD_UTS_EQU;
     5397     2346        %EJECT;
PL6.E3A0      #006=THF$SYS File=THF$FORMAT.:E05TSI                               WED 07/30/97 06:17 Page:1030
     5398     2347    1        CALL THG$GETREC(%DEVHIST,HEAD_KEY) ALTRET(ALT);

   2347  3 000002   000000 630400 4                  EPPR0   0
         3 000003   000020 631400 xsym               EPPR1   B_VECTNIL+16
         3 000004   000000 701000 xent               TSX1    THG$GETREC
         3 000005   001231 702000 3                  TSX2    ALT

     5399     2348    1        TH_HEAD = TH_RECORD.PTR$->TH$HEAD;

   2348  3 000006   000001 470400 xsym               LDP0    TH_RECORD+1
         3 000007   000100 100500                    MLR     fill='000'O
         3 000010   000000 003210                    ADSC9   0,,PR0                   cn=0,n=1672
         3 000011   200003 003210                    ADSC9   TH_HEAD,,AUTO            cn=0,n=1672

     5400     2349    1        CALL THG$GETREC(%DEVHIST,THRESH_KEY) ALTRET(ALT);

   2349  3 000012   000002 630400 4                  EPPR0   2
         3 000013   000020 631400 xsym               EPPR1   B_VECTNIL+16
         3 000014   000000 701000 xent               TSX1    THG$GETREC
         3 000015   001231 702000 3                  TSX2    ALT

     5401     2350    1        TH_THRESH = TH_RECORD.PTR$->TH$THRESH;

   2350  3 000016   000001 470400 xsym               LDP0    TH_RECORD+1
         3 000017   000100 100500                    MLR     fill='000'O
         3 000020   000000 006220                    ADSC9   0,,PR0                   cn=0,n=3216
         3 000021   200645 006220                    ADSC9   TH_THRESH,,AUTO          cn=0,n=3216

     5402     2351    1        NUMDEVS = TH_HEAD.XX_INDX + TH_HEAD.NUMXXS;

   2351  3 000022   200020 236100                    LDQ     TH_HEAD+13,,AUTO
         3 000023   777777 376007                    ANQ     -1,DL
         3 000024   203550 756100                    STQ     EOF_FLAG+2,,AUTO
         3 000025   200020 236100                    LDQ     TH_HEAD+13,,AUTO
         3 000026   000022 772000                    QRL     18
         3 000027   203550 036100                    ADLQ    EOF_FLAG+2,,AUTO
         3 000030   203526 756100                    STQ     NUMDEVS,,AUTO
PL6.E3A0      #006=THF$SYS File=THF$FORMAT.:E05TSI                               WED 07/30/97 06:17 Page:1031

     5403     2352    1        LAST_CLASS = ' ';

   2352  3 000031   040040 220003                    LDX0    16416,DU
         3 000032   203527 740100                    STX0    LAST_CLASS,,AUTO

     5404     2353    1        NUM_LINES = 0;

   2353  3 000033   203545 450100                    STZ     NUM_LINES,,AUTO

     5405     2354    1        TH_SAVE = TH_CONSTRAINTS;

   2354  3 000034   000000 100400                    MLR     fill='000'O
         3 000035   000000 000333 xsym               ADSC9   TH_CONSTRAINTS           cn=0,n=219
         3 000036   000000 000333 xsym               ADSC9   TH_SAVE                  cn=0,n=219

     5406     2355    2        IF TH_PROC_FLAG THEN DO;

   2355  3 000037   000000 234000 xsym               SZN     TH_PROC_FLAG
         3 000040   000045 605000 3                  TPL     s:2359

     5407     2356    2           CALL THE$PROCESS;

   2356  3 000041   000002 631400 xsym               EPPR1   B_VECTNIL+2
         3 000042   000000 701000 xent               TSX1    THE$PROCESS
         3 000043   000000 011000                    NOP     0

     5408     2357    2           TH_PROC_FLAG = %FALSE;

   2357  3 000044   000000 450000 xsym               STZ     TH_PROC_FLAG

     5409     2358    2           END;  /* IF TH_PROC_FLAG */

     5410     2359    1        TH_CONSTRAINTS = TH_SAVE;

   2359  3 000045   000000 100400                    MLR     fill='000'O
         3 000046   000000 000333 xsym               ADSC9   TH_SAVE                  cn=0,n=219
PL6.E3A0      #006=THF$SYS File=THF$FORMAT.:E05TSI                               WED 07/30/97 06:17 Page:1032
         3 000047   000000 000333 xsym               ADSC9   TH_CONSTRAINTS           cn=0,n=219

     5411     2360    1        CALL THW$WRITE(VECTOR(PVAL_HDR));

   2360  3 000050   000006 630400 4                  EPPR0   6
         3 000051   000017 631400 xsym               EPPR1   B_VECTNIL+15
         3 000052   000000 701000 xent               TSX1    THW$WRITE
         3 000053   000000 011000                    NOP     0

     5412     2361    2        DO I = 0 TO NUMDEVS - 1;

   2361  3 000054   203530 450100                    STZ     I,,AUTO
         3 000055   000677 710000 3                  TRA     ENDLOOP+1

     5413     2362    2           ATTEN_FLAG = %FALSE;

   2362  3 000056   203543 450100                    STZ     ATTEN_FLAG,,AUTO

     5414     2363    2           ALERT_FLAG = %FALSE;

   2363  3 000057   203544 450100                    STZ     ALERT_FLAG,,AUTO

     5415     2364    2           COUNT = 0;

   2364  3 000060   203541 450100                    STZ     COUNT,,AUTO

     5416     2365    2           CONNECTS = 0;

   2365  3 000061   203542 450100                    STZ     CONNECTS,,AUTO

     5417     2366    2           PVAL = 10000;  /* %100 */

   2366  3 000062   023420 235007                    LDA     10000,DL
         3 000063   203540 755100                    STA     PVAL,,AUTO

     5418     2367    2          CALL XUD$UTS_DIFF_SEC (START_TIME, TH_CONSTRAINTS.START, 0);

PL6.E3A0      #006=THF$SYS File=THF$FORMAT.:E05TSI                               WED 07/30/97 06:17 Page:1033
   2367  3 000064   000007 236000 4                  LDQ     7
         3 000065   203552 756100                    STQ     EOF_FLAG+4,,AUTO
         3 000066   000010 236000 4                  LDQ     8
         3 000067   203551 756100                    STQ     EOF_FLAG+3,,AUTO
         3 000070   203076 630500                    EPPR0   START_TIME,,AUTO
         3 000071   203550 450500                    STP0    EOF_FLAG+2,,AUTO
         3 000072   203550 630500                    EPPR0   EOF_FLAG+2,,AUTO
         3 000073   000021 631400 xsym               EPPR1   B_VECTNIL+17
         3 000074   000000 701000 xent               TSX1    XUD$UTS_DIFF_SEC
         3 000075   000000 011000                    NOP     0

     5419     2368    2          START_TIME = START_TIME / 86400;

   2368  3 000076   203076 236100                    LDQ     START_TIME,,AUTO
         3 000077   000001 772000                    QRL     1
         3 000100   124300 506007                    DIV     43200,DL
         3 000101   203076 756100                    STQ     START_TIME,,AUTO

     5420     2369    2          CALL XUD$UTS_ADJ_25TH (START_TIME, 0, START_TIME*%UTS_25TH_DAY#);

   2369  3 000102   000011 402000 4                  MPY     9
         3 000103   203550 756100                    STQ     EOF_FLAG+2,,AUTO
         3 000104   203550 630500                    EPPR0   EOF_FLAG+2,,AUTO
         3 000105   203553 450500                    STP0    EOF_FLAG+5,,AUTO
         3 000106   000007 236000 4                  LDQ     7
         3 000107   203552 756100                    STQ     EOF_FLAG+4,,AUTO
         3 000110   203076 631500                    EPPR1   START_TIME,,AUTO
         3 000111   203551 451500                    STP1    EOF_FLAG+3,,AUTO
         3 000112   203551 630500                    EPPR0   EOF_FLAG+3,,AUTO
         3 000113   000021 631400 xsym               EPPR1   B_VECTNIL+17
         3 000114   000000 701000 xent               TSX1    XUD$UTS_ADJ_25TH
         3 000115   000000 011000                    NOP     0

     5421     2370    2          CALL XUD$UTS_DIFF_SEC (STOP_TIME, TH_CONSTRAINTS.STOP, 0);

   2370  3 000116   000007 236000 4                  LDQ     7
         3 000117   203552 756100                    STQ     EOF_FLAG+4,,AUTO
PL6.E3A0      #006=THF$SYS File=THF$FORMAT.:E05TSI                               WED 07/30/97 06:17 Page:1034
         3 000120   000012 236000 4                  LDQ     10
         3 000121   203551 756100                    STQ     EOF_FLAG+3,,AUTO
         3 000122   203077 630500                    EPPR0   STOP_TIME,,AUTO
         3 000123   203550 450500                    STP0    EOF_FLAG+2,,AUTO
         3 000124   203550 630500                    EPPR0   EOF_FLAG+2,,AUTO
         3 000125   000021 631400 xsym               EPPR1   B_VECTNIL+17
         3 000126   000000 701000 xent               TSX1    XUD$UTS_DIFF_SEC
         3 000127   000000 011000                    NOP     0

     5422     2371    2          STOP_TIME = STOP_TIME / 86400;

   2371  3 000130   203077 236100                    LDQ     STOP_TIME,,AUTO
         3 000131   000001 772000                    QRL     1
         3 000132   124300 506007                    DIV     43200,DL
         3 000133   203077 756100                    STQ     STOP_TIME,,AUTO

     5423     2372    2          CALL XUD$UTS_ADJ_25TH (STOP_TIME, 0, STOP_TIME*%UTS_25TH_DAY#);

   2372  3 000134   000011 402000 4                  MPY     9
         3 000135   203550 756100                    STQ     EOF_FLAG+2,,AUTO
         3 000136   203550 630500                    EPPR0   EOF_FLAG+2,,AUTO
         3 000137   203553 450500                    STP0    EOF_FLAG+5,,AUTO
         3 000140   000007 236000 4                  LDQ     7
         3 000141   203552 756100                    STQ     EOF_FLAG+4,,AUTO
         3 000142   203077 631500                    EPPR1   STOP_TIME,,AUTO
         3 000143   203551 451500                    STP1    EOF_FLAG+3,,AUTO
         3 000144   203551 630500                    EPPR0   EOF_FLAG+3,,AUTO
         3 000145   000021 631400 xsym               EPPR1   B_VECTNIL+17
         3 000146   000000 701000 xent               TSX1    XUD$UTS_ADJ_25TH
         3 000147   000000 011000                    NOP     0

     5424     2373    2          ERRLOG_DATE = START_TIME;

   2373  3 000150   203076 235100                    LDA     START_TIME,,AUTO
         3 000151   000000 755000 2                  STA     ERRLOG_DATE

     5425     2374    3          DO WHILE (ERRLOG_DATE <= STOP_TIME);
PL6.E3A0      #006=THF$SYS File=THF$FORMAT.:E05TSI                               WED 07/30/97 06:17 Page:1035

   2374  3 000152   203077 236100                    LDQ     STOP_TIME,,AUTO
         3 000153   000000 116000 2                  CMPQ    ERRLOG_DATE
         3 000154   000340 602000 3                  TNC     s:2405

     5426     2375    3              CALL XUD$UTS_DIFF_SEC(UTS, ERRLOG_DATE, 0);

   2375  3 000155   000007 236000 4                  LDQ     7
         3 000156   203552 756100                    STQ     EOF_FLAG+4,,AUTO
         3 000157   000013 236000 4                  LDQ     11
         3 000160   203551 756100                    STQ     EOF_FLAG+3,,AUTO
         3 000161   203507 630500                    EPPR0   UTS,,AUTO
         3 000162   203550 450500                    STP0    EOF_FLAG+2,,AUTO
         3 000163   203550 630500                    EPPR0   EOF_FLAG+2,,AUTO
         3 000164   000021 631400 xsym               EPPR1   B_VECTNIL+17
         3 000165   000000 701000 xent               TSX1    XUD$UTS_DIFF_SEC
         3 000166   000000 011000                    NOP     0

     5427     2376    3              UTS = UTS / 86400;

   2376  3 000167   203507 236100                    LDQ     UTS,,AUTO
         3 000170   000001 772000                    QRL     1
         3 000171   124300 506007                    DIV     43200,DL
         3 000172   203507 756100                    STQ     UTS,,AUTO

     5428     2377    3              CALL XUD$UTS_ADJ_25TH(UTS, 0, UTS * %UTS_25TH_DAY#);

   2377  3 000173   000011 402000 4                  MPY     9
         3 000174   203550 756100                    STQ     EOF_FLAG+2,,AUTO
         3 000175   203550 630500                    EPPR0   EOF_FLAG+2,,AUTO
         3 000176   203553 450500                    STP0    EOF_FLAG+5,,AUTO
         3 000177   000007 236000 4                  LDQ     7
         3 000200   203552 756100                    STQ     EOF_FLAG+4,,AUTO
         3 000201   203507 631500                    EPPR1   UTS,,AUTO
         3 000202   203551 451500                    STP1    EOF_FLAG+3,,AUTO
         3 000203   203551 630500                    EPPR0   EOF_FLAG+3,,AUTO
         3 000204   000021 631400 xsym               EPPR1   B_VECTNIL+17
PL6.E3A0      #006=THF$SYS File=THF$FORMAT.:E05TSI                               WED 07/30/97 06:17 Page:1036
         3 000205   000000 701000 xent               TSX1    XUD$UTS_ADJ_25TH
         3 000206   000000 011000                    NOP     0

     5429     2378    3              IF SUBSTR(TH_HEAD.DEVNAME(I),0,3) = 'FEP'

   2378  3 000207   203530 235100                    LDA     I,,AUTO
         3 000210   000001 735000                    ALS     1
         3 000211   200023 236105                    LDQ     TH_HEAD+16,AL,AUTO
         3 000212   000171 676000 1                  ERQ     PVAL_LINE+12
         3 000213   000014 376000 4                  ANQ     12
         3 000214   000676 600000 3                  TZE     ENDLOOP

     5430     2379    3                 THEN GOTO ENDLOOP;  /* PVALS UNDEFINED FOR FEPS */
     5431     2380    3              CALL THG$GETREC(%DEVHIST,TH_HEAD.DEVNAME(I),UTS) ALTRET(NOT_THERE);

   2380  3 000215   203507 630500                    EPPR0   UTS,,AUTO
         3 000216   203552 450500                    STP0    EOF_FLAG+4,,AUTO
         3 000217   200023 631505                    EPPR1   TH_HEAD+16,AL,AUTO
         3 000220   203551 451500                    STP1    EOF_FLAG+3,,AUTO
         3 000221   000000 236000 4                  LDQ     0
         3 000222   203550 756100                    STQ     EOF_FLAG+2,,AUTO
         3 000223   203550 630500                    EPPR0   EOF_FLAG+2,,AUTO
         3 000224   000021 631400 xsym               EPPR1   B_VECTNIL+17
         3 000225   000000 701000 xent               TSX1    THG$GETREC
         3 000226   000331 702000 3                  TSX2    NOT_THERE

     5432     2381    3              IF (SUBSTR(TH_HEAD.DEVNAME(I),0,2) = 'UC') OR

   2381  3 000227   203530 235100                    LDA     I,,AUTO
         3 000230   000001 735000                    ALS     1
         3 000231   200023 220105                    LDX0    TH_HEAD+16,AL,AUTO
         3 000232   000172 100000 1                  CMPX0   PVAL_LINE+13
         3 000233   000240 600000 3                  TZE     s:2384
         3 000234   000173 100000 1                  CMPX0   PVAL_LINE+14
         3 000235   000240 600000 3                  TZE     s:2384
         3 000236   000174 100000 1                  CMPX0   PVAL_LINE+15
         3 000237   000253 601000 3                  TNZ     s:2389
PL6.E3A0      #006=THF$SYS File=THF$FORMAT.:E05TSI                               WED 07/30/97 06:17 Page:1037

     5433     2382    3                 (SUBSTR(TH_HEAD.DEVNAME(I),0,2) = 'DC') OR
     5434     2383    4                 (SUBSTR(TH_HEAD.DEVNAME(I),0,2) = 'TC') THEN DO;

     5435     2384    4                 MPCREC = TH_RECORD.PTR$->TH$MPC;

   2384  3 000240   000001 470400 xsym               LDP0    TH_RECORD+1
         3 000241   000100 100500                    MLR     fill='000'O
         3 000242   000000 000510                    ADSC9   0,,PR0                   cn=0,n=328
         3 000243   202725 000510                    ADSC9   MPCREC,,AUTO             cn=0,n=328

     5436     2385    4                 COUNT = COUNT + MPCREC.COUNT;

   2385  3 000244   203541 236100                    LDQ     COUNT,,AUTO
         3 000245   202725 036100                    ADLQ    MPCREC,,AUTO
         3 000246   203541 756100                    STQ     COUNT,,AUTO

     5437     2386    4                 CONNECTS = CONNECTS + MPCREC.CONNECTS;

   2386  3 000247   203542 236100                    LDQ     CONNECTS,,AUTO
         3 000250   202726 036100                    ADLQ    MPCREC+1,,AUTO
         3 000251   203542 756100                    STQ     CONNECTS,,AUTO

     5438     2387    4                 END;  /* IF MPC */

   2387  3 000252   000317 710000 3                  TRA     s:2401

     5439     2388    3                 ELSE
     5440     2389    4              IF SUBSTR(TH_HEAD.DEVNAME(I),0,3) = 'IOM' THEN DO;

   2389  3 000253   200023 236105                    LDQ     TH_HEAD+16,AL,AUTO
         3 000254   000175 676000 1                  ERQ     PVAL_LINE+16
         3 000255   000014 376000 4                  ANQ     12
         3 000256   000272 601000 3                  TNZ     s:2395

     5441     2390    4                 IOMREC = TH_RECORD.PTR$->TH$IOM;

PL6.E3A0      #006=THF$SYS File=THF$FORMAT.:E05TSI                               WED 07/30/97 06:17 Page:1038
   2390  3 000257   000001 470400 xsym               LDP0    TH_RECORD+1
         3 000260   000100 100500                    MLR     fill='000'O
         3 000261   000000 002060                    ADSC9   0,,PR0                   cn=0,n=1072
         3 000262   202311 002060                    ADSC9   IOMREC,,AUTO             cn=0,n=1072

     5442     2391    4                 COUNT = COUNT + IOMREC.COUNT;

   2391  3 000263   203541 236100                    LDQ     COUNT,,AUTO
         3 000264   202724 036100                    ADLQ    IOMREC+267,,AUTO
         3 000265   203541 756100                    STQ     COUNT,,AUTO

     5443     2392    4                 CONNECTS = CONNECTS + IOMREC.CONNECTS;

   2392  3 000266   203542 236100                    LDQ     CONNECTS,,AUTO
         3 000267   202723 036100                    ADLQ    IOMREC+266,,AUTO
         3 000270   203542 756100                    STQ     CONNECTS,,AUTO

     5444     2393    4                 END;  /* IF IOM */

   2393  3 000271   000317 710000 3                  TRA     s:2401

     5445     2394    4              ELSE DO;

     5446     2395    4                 DEVREC = TH_RECORD.PTR$->TH$DEV;

   2395  3 000272   000001 470400 xsym               LDP0    TH_RECORD+1
         3 000273   000100 100500                    MLR     fill='000'O
         3 000274   000000 000134                    ADSC9   0,,PR0                   cn=0,n=92
         3 000275   203047 000134                    ADSC9   DEVREC,,AUTO             cn=0,n=92

     5447     2396    5                 DO K = 10 TO 20;

   2396  3 000276   000012 236007                    LDQ     10,DL
         3 000277   203532 756100                    STQ     K,,AUTO

     5448     2397    5                    COUNT = COUNT + DEVREC.COUNT(K);

PL6.E3A0      #006=THF$SYS File=THF$FORMAT.:E05TSI                               WED 07/30/97 06:17 Page:1039
   2397  3 000300   203532 235100                    LDA     K,,AUTO
         3 000301   000001 735000                    ALS     1
         3 000302   000100 101505                    MRL     fill='000'O
         3 000303   203060 000002                    ADSC9   DEVREC+9,A,AUTO          cn=0,n=2
         3 000304   203550 000004                    ADSC9   EOF_FLAG+2,,AUTO         cn=0,n=4
         3 000305   203550 236100                    LDQ     EOF_FLAG+2,,AUTO
         3 000306   203541 036100                    ADLQ    COUNT,,AUTO
         3 000307   203541 756100                    STQ     COUNT,,AUTO

     5449     2398    5                    END;  /* DO K */

   2398  3 000310   203532 054100                    AOS     K,,AUTO
         3 000311   203532 235100                    LDA     K,,AUTO
         3 000312   000024 115007                    CMPA    20,DL
         3 000313   000300 604400 3                  TMOZ    s:2397

     5450     2399    4                 CONNECTS = CONNECTS + DEVREC.CONNECTS;

   2399  3 000314   203542 236100                    LDQ     CONNECTS,,AUTO
         3 000315   203075 036100                    ADLQ    DEVREC+22,,AUTO
         3 000316   203542 756100                    STQ     CONNECTS,,AUTO

     5451     2400    4                 END;  /* ELSE */

     5452     2401    3              CALL THP$STATS(COUNT,CONNECTS,PVAL);

   2401  3 000317   203540 630500                    EPPR0   PVAL,,AUTO
         3 000320   203552 450500                    STP0    EOF_FLAG+4,,AUTO
         3 000321   203542 631500                    EPPR1   CONNECTS,,AUTO
         3 000322   203551 451500                    STP1    EOF_FLAG+3,,AUTO
         3 000323   203541 633500                    EPPR3   COUNT,,AUTO
         3 000324   203550 453500                    STP3    EOF_FLAG+2,,AUTO
         3 000325   203550 630500                    EPPR0   EOF_FLAG+2,,AUTO
         3 000326   000021 631400 xsym               EPPR1   B_VECTNIL+17
         3 000327   000000 701000 xent               TSX1    THP$STATS
         3 000330   000000 011000                    NOP     0

PL6.E3A0      #006=THF$SYS File=THF$FORMAT.:E05TSI                               WED 07/30/97 06:17 Page:1040
     5453     2402    3     NOT_THERE:
     5454     2403    3              CALL XUD$UTS_ADJ_25TH(ERRLOG_DATE,ERRLOG_DATE,%UTS_25TH_DAY#);

   2403  3 000331   000015 630400 4     NOT_THERE    EPPR0   13
         3 000332   000021 631400 xsym               EPPR1   B_VECTNIL+17
         3 000333   000000 701000 xent               TSX1    XUD$UTS_ADJ_25TH
         3 000334   000000 011000                    NOP     0

     5455     2404    3              END;  /* DO ERRLOG_DATE */

   2404  3 000335   203077 236100                    LDQ     STOP_TIME,,AUTO
         3 000336   000000 116000 2                  CMPQ    ERRLOG_DATE
         3 000337   000155 603000 3                  TRC     s:2375

     5456     2405    2           FLAG_BUF = ' ';

   2405  3 000340   040100 100400                    MLR     fill='040'O
         3 000341   000035 000001 xsym               ADSC9   B_VECTNIL+29             cn=0,n=1
         3 000342   203516 000015                    ADSC9   FLAG_BUF,,AUTO           cn=0,n=13

     5457     2406    2           IF PVAL  < TH_THRESH.ALERT(I)

   2406  3 000343   203530 235100                    LDA     I,,AUTO
         3 000344   000002 735000                    ALS     2
         3 000345   203540 236100                    LDQ     PVAL,,AUTO
         3 000346   200650 116105                    CMPQ    TH_THRESH+3,AL,AUTO
         3 000347   000354 605000 3                  TPL     s:2409

     5458     2407    2              THEN FLAG_BUF = '*** ALERT ***';

   2407  3 000350   040100 100400                    MLR     fill='040'O
         3 000351   000176 000015 1                  ADSC9   PVAL_LINE+17             cn=0,n=13
         3 000352   203516 000015                    ADSC9   FLAG_BUF,,AUTO           cn=0,n=13
         3 000353   000361 710000 3                  TRA     s:2411

     5459     2408    2              ELSE
     5460     2409    2           IF PVAL < TH_THRESH.ATTEN(I)
PL6.E3A0      #006=THF$SYS File=THF$FORMAT.:E05TSI                               WED 07/30/97 06:17 Page:1041

   2409  3 000354   200647 116105                    CMPQ    TH_THRESH+2,AL,AUTO
         3 000355   000361 605000 3                  TPL     s:2411

     5461     2410    2              THEN FLAG_BUF = '* ATTENTION *';

   2410  3 000356   040100 100400                    MLR     fill='040'O
         3 000357   000202 000015 1                  ADSC9   PVAL_LINE+21             cn=0,n=13
         3 000360   203516 000015                    ADSC9   FLAG_BUF,,AUTO           cn=0,n=13

     5462     2411    2           DCTX = 0;

   2411  3 000361   203536 450100                    STZ     DCTX,,AUTO

     5463     2412    3           DO UNTIL(DCTX > TH_MAXDCTX OR DCT.DEVNM = TH_HEAD.DEVNAME(I));

     5464     2413    3              DCTX = DCTX + 1;

   2413  3 000362   203536 235100                    LDA     DCTX,,AUTO
         3 000363   000001 035007                    ADLA    1,DL
         3 000364   203536 755100                    STA     DCTX,,AUTO

     5465     2414    3              DCT$ = TH_DCT$(DCTX);

   2414  3 000365   000000 236005 xsym               LDQ     TH_DCT$,AL
         3 000366   203537 756100                    STQ     DCT$,,AUTO

     5466     2415    3              DCTPTR.SEGID = %SPCL1SID;

   2415  3 000367   006021 236007                    LDQ     3089,DL
         3 000370   203537 752103                    STCQ    DCT$,'03'O,AUTO

     5467     2416    3              END;  /* DO UNTIL */

   2416  3 000371   000000 236000 xsym               LDQ     TH_MAXDCTX
         3 000372   203536 116100                    CMPQ    DCTX,,AUTO
         3 000373   000403 602000 3                  TNC     s:2417
PL6.E3A0      #006=THF$SYS File=THF$FORMAT.:E05TSI                               WED 07/30/97 06:17 Page:1042
         3 000374   203530 235100                    LDA     I,,AUTO
         3 000375   000003 735000                    ALS     3
         3 000376   203537 470500                    LDP0    DCT$,,AUTO
         3 000377   040105 106500                    CMPC    fill='040'O
         3 000400   000002 000010                    ADSC9   2,,PR0                   cn=0,n=8
         3 000401   200023 000010                    ADSC9   TH_HEAD+16,A,AUTO        cn=0,n=8
         3 000402   000362 601000 3                  TNZ     s:2413

     5468     2417    2           IF DCTX > TH_MAXDCTX THEN GOTO ENDLOOP;

   2417  3 000403   203536 116100                    CMPQ    DCTX,,AUTO
         3 000404   000676 602000 3                  TNC     ENDLOOP

     5469     2418    2           IF PVAL = 10000

   2418  3 000405   203540 235100                    LDA     PVAL,,AUTO
         3 000406   023420 115007                    CMPA    10000,DL
         3 000407   000414 601000 3                  TNZ     s:2420

     5470     2419    2              THEN PVAL_BUF = '%100.00';

   2419  3 000410   040100 100400                    MLR     fill='040'O
         3 000411   000206 000007 1                  ADSC9   PVAL_LINE+25             cn=0,n=7
         3 000412   203510 000007                    ADSC9   PVAL_BUF,,AUTO           cn=0,n=7
         3 000413   000455 710000 3                  TRA     s:2432

     5471     2420    2          ELSE IF CONNECTS = 0

   2420  3 000414   203542 235100                    LDA     CONNECTS,,AUTO
         3 000415   000425 601000 3                  TNZ     s:2426

     5472     2421    3                 THEN DO;

     5473     2422    3                   PVAL_BUF = '%100.00';

   2422  3 000416   040100 100400                    MLR     fill='040'O
         3 000417   000206 000007 1                  ADSC9   PVAL_LINE+25             cn=0,n=7
PL6.E3A0      #006=THF$SYS File=THF$FORMAT.:E05TSI                               WED 07/30/97 06:17 Page:1043
         3 000420   203510 000007                    ADSC9   PVAL_BUF,,AUTO           cn=0,n=7

     5474     2423    3                   FLAG_BUF = ' ';

   2423  3 000421   040100 100400                    MLR     fill='040'O
         3 000422   000035 000001 xsym               ADSC9   B_VECTNIL+29             cn=0,n=1
         3 000423   203516 000015                    ADSC9   FLAG_BUF,,AUTO           cn=0,n=13

     5475     2424    3                 END;

   2424  3 000424   000455 710000 3                  TRA     s:2432

     5476     2425    3           ELSE DO;

     5477     2426    3              INT_PART = PVAL/100;

   2426  3 000425   203540 236100                    LDQ     PVAL,,AUTO
         3 000426   000144 506007                    DIV     100,DL
         3 000427   203525 756100                    STQ     INT_PART,,AUTO

     5478     2427    3              FRACT_PART = MOD(PVAL,100);

   2427  3 000430   203540 236100                    LDQ     PVAL,,AUTO
         3 000431   000144 506007                    DIV     100,DL
         3 000432   203524 755100                    STA     FRACT_PART,,AUTO

     5479     2428    3              CALL BINCHAR(TEMP,INT_PART);

   2428  3 000433   203525 236100                    LDQ     INT_PART,,AUTO
         3 000434   000000 235003                    LDA     0,DU
         3 000435   203550 757100                    STAQ    EOF_FLAG+2,,AUTO
         3 000436   000100 301500                    BTD
         3 000437   203550 000010                    NDSC9   EOF_FLAG+2,,AUTO         cn=0,s=lsgnf,sf=0,n=8
         3 000440   203522 030002                    NDSC9   TEMP,,AUTO               cn=0,s=nosgn,sf=0,n=2

     5480     2429    3              CALL BINCHAR(TEMP1,FRACT_PART);

PL6.E3A0      #006=THF$SYS File=THF$FORMAT.:E05TSI                               WED 07/30/97 06:17 Page:1044
   2429  3 000441   000100 301500                    BTD
         3 000442   203524 000004                    NDSC9   FRACT_PART,,AUTO         cn=0,s=lsgnf,sf=0,n=4
         3 000443   203523 030002                    NDSC9   TEMP1,,AUTO              cn=0,s=nosgn,sf=0,n=2

     5481     2430    3              CALL INSERT(PVAL_BUF,0,7,' %',TEMP,'.',TEMP1);

   2430  3 000444   000210 220000 1                  LDX0    PVAL_LINE+27
         3 000445   203510 740100                    STX0    PVAL_BUF,,AUTO
         3 000446   203522 221100                    LDX1    TEMP,,AUTO
         3 000447   203510 441100                    SXL1    PVAL_BUF,,AUTO
         3 000450   056000 236003                    LDQ     23552,DU
         3 000451   203511 552140                    STBQ    PVAL_BUF+1,'40'O,AUTO
         3 000452   203523 236100                    LDQ     TEMP1,,AUTO
         3 000453   000011 772000                    QRL     9
         3 000454   203511 552130                    STBQ    PVAL_BUF+1,'30'O,AUTO

     5482     2431    3              END;  /* ELSE */

     5483     2432    2           IF TH_THRESH.ATTEN(I) = 10000

   2432  3 000455   203530 235100                    LDA     I,,AUTO
         3 000456   000002 735000                    ALS     2
         3 000457   200647 235105                    LDA     TH_THRESH+2,AL,AUTO
         3 000460   023420 115007                    CMPA    10000,DL
         3 000461   000466 601000 3                  TNZ     s:2435

     5484     2433    2              THEN ATTEN_BUF = '%100.00';

   2433  3 000462   040100 100400                    MLR     fill='040'O
         3 000463   000206 000007 1                  ADSC9   PVAL_LINE+25             cn=0,n=7
         3 000464   203512 000007                    ADSC9   ATTEN_BUF,,AUTO          cn=0,n=7
         3 000465   000522 710000 3                  TRA     s:2441

     5485     2434    3           ELSE DO;

     5486     2435    3              INT_PART = TH_THRESH.ATTEN(I)/100;

PL6.E3A0      #006=THF$SYS File=THF$FORMAT.:E05TSI                               WED 07/30/97 06:17 Page:1045
   2435  3 000466   203530 235100                    LDA     I,,AUTO
         3 000467   000002 735000                    ALS     2
         3 000470   200647 236105                    LDQ     TH_THRESH+2,AL,AUTO
         3 000471   000144 506007                    DIV     100,DL
         3 000472   203525 756100                    STQ     INT_PART,,AUTO

     5487     2436    3              FRACT_PART = MOD(TH_THRESH.ATTEN(I),100);

   2436  3 000473   203530 235100                    LDA     I,,AUTO
         3 000474   000002 735000                    ALS     2
         3 000475   200647 236105                    LDQ     TH_THRESH+2,AL,AUTO
         3 000476   000144 506007                    DIV     100,DL
         3 000477   203524 755100                    STA     FRACT_PART,,AUTO

     5488     2437    3              CALL BINCHAR(TEMP,INT_PART);

   2437  3 000500   203525 236100                    LDQ     INT_PART,,AUTO
         3 000501   000000 235003                    LDA     0,DU
         3 000502   203550 757100                    STAQ    EOF_FLAG+2,,AUTO
         3 000503   000100 301500                    BTD
         3 000504   203550 000010                    NDSC9   EOF_FLAG+2,,AUTO         cn=0,s=lsgnf,sf=0,n=8
         3 000505   203522 030002                    NDSC9   TEMP,,AUTO               cn=0,s=nosgn,sf=0,n=2

     5489     2438    3              CALL BINCHAR(TEMP1,FRACT_PART);

   2438  3 000506   000100 301500                    BTD
         3 000507   203524 000004                    NDSC9   FRACT_PART,,AUTO         cn=0,s=lsgnf,sf=0,n=4
         3 000510   203523 030002                    NDSC9   TEMP1,,AUTO              cn=0,s=nosgn,sf=0,n=2

     5490     2439    3              CALL INSERT(ATTEN_BUF,0,7,' %',TEMP,'.',TEMP1);

   2439  3 000511   000210 220000 1                  LDX0    PVAL_LINE+27
         3 000512   203512 740100                    STX0    ATTEN_BUF,,AUTO
         3 000513   203522 221100                    LDX1    TEMP,,AUTO
         3 000514   203512 441100                    SXL1    ATTEN_BUF,,AUTO
         3 000515   056000 236003                    LDQ     23552,DU
         3 000516   203513 552140                    STBQ    ATTEN_BUF+1,'40'O,AUTO
PL6.E3A0      #006=THF$SYS File=THF$FORMAT.:E05TSI                               WED 07/30/97 06:17 Page:1046
         3 000517   203523 236100                    LDQ     TEMP1,,AUTO
         3 000520   000011 772000                    QRL     9
         3 000521   203513 552130                    STBQ    ATTEN_BUF+1,'30'O,AUTO

     5491     2440    3              END;  /* ELSE */

     5492     2441    2           IF TH_THRESH.ALERT(I) = 10000

   2441  3 000522   203530 235100                    LDA     I,,AUTO
         3 000523   000002 735000                    ALS     2
         3 000524   200650 235105                    LDA     TH_THRESH+3,AL,AUTO
         3 000525   023420 115007                    CMPA    10000,DL
         3 000526   000533 601000 3                  TNZ     s:2444

     5493     2442    2              THEN ALERT_BUF = '%100.00';

   2442  3 000527   040100 100400                    MLR     fill='040'O
         3 000530   000206 000007 1                  ADSC9   PVAL_LINE+25             cn=0,n=7
         3 000531   203514 000007                    ADSC9   ALERT_BUF,,AUTO          cn=0,n=7
         3 000532   000567 710000 3                  TRA     s:2450

     5494     2443    3           ELSE DO;

     5495     2444    3              INT_PART = TH_THRESH.ALERT(I)/100;

   2444  3 000533   203530 235100                    LDA     I,,AUTO
         3 000534   000002 735000                    ALS     2
         3 000535   200650 236105                    LDQ     TH_THRESH+3,AL,AUTO
         3 000536   000144 506007                    DIV     100,DL
         3 000537   203525 756100                    STQ     INT_PART,,AUTO

     5496     2445    3              FRACT_PART = MOD(TH_THRESH.ALERT(I),100);

   2445  3 000540   203530 235100                    LDA     I,,AUTO
         3 000541   000002 735000                    ALS     2
         3 000542   200650 236105                    LDQ     TH_THRESH+3,AL,AUTO
         3 000543   000144 506007                    DIV     100,DL
PL6.E3A0      #006=THF$SYS File=THF$FORMAT.:E05TSI                               WED 07/30/97 06:17 Page:1047
         3 000544   203524 755100                    STA     FRACT_PART,,AUTO

     5497     2446    3              CALL BINCHAR(TEMP,INT_PART);

   2446  3 000545   203525 236100                    LDQ     INT_PART,,AUTO
         3 000546   000000 235003                    LDA     0,DU
         3 000547   203550 757100                    STAQ    EOF_FLAG+2,,AUTO
         3 000550   000100 301500                    BTD
         3 000551   203550 000010                    NDSC9   EOF_FLAG+2,,AUTO         cn=0,s=lsgnf,sf=0,n=8
         3 000552   203522 030002                    NDSC9   TEMP,,AUTO               cn=0,s=nosgn,sf=0,n=2

     5498     2447    3              CALL BINCHAR(TEMP1,FRACT_PART);

   2447  3 000553   000100 301500                    BTD
         3 000554   203524 000004                    NDSC9   FRACT_PART,,AUTO         cn=0,s=lsgnf,sf=0,n=4
         3 000555   203523 030002                    NDSC9   TEMP1,,AUTO              cn=0,s=nosgn,sf=0,n=2

     5499     2448    3              CALL INSERT(ALERT_BUF,0,7,' %',TEMP,'.',TEMP1);

   2448  3 000556   000210 220000 1                  LDX0    PVAL_LINE+27
         3 000557   203514 740100                    STX0    ALERT_BUF,,AUTO
         3 000560   203522 221100                    LDX1    TEMP,,AUTO
         3 000561   203514 441100                    SXL1    ALERT_BUF,,AUTO
         3 000562   056000 236003                    LDQ     23552,DU
         3 000563   203515 552140                    STBQ    ALERT_BUF+1,'40'O,AUTO
         3 000564   203523 236100                    LDQ     TEMP1,,AUTO
         3 000565   000011 772000                    QRL     9
         3 000566   203515 552130                    STBQ    ALERT_BUF+1,'30'O,AUTO

     5500     2449    3              END;  /* ELSE */

     5501     2450    2           IF NUM_LINES > 0 AND LAST_CLASS ~= SUBSTR(TH_HEAD.DEVNAME(I),0,2)

   2450  3 000567   203545 235100                    LDA     NUM_LINES,,AUTO
         3 000570   000602 600000 3                  TZE     s:2452
         3 000571   203527 220100                    LDX0    LAST_CLASS,,AUTO
         3 000572   203530 236100                    LDQ     I,,AUTO
PL6.E3A0      #006=THF$SYS File=THF$FORMAT.:E05TSI                               WED 07/30/97 06:17 Page:1048
         3 000573   000001 736000                    QLS     1
         3 000574   200023 100106                    CMPX0   TH_HEAD+16,QL,AUTO
         3 000575   000602 600000 3                  TZE     s:2452

     5502     2451    2              THEN CALL THW$WRITE(VECTOR(BLANK_LINE));

   2451  3 000576   000022 630400 4                  EPPR0   18
         3 000577   000017 631400 xsym               EPPR1   B_VECTNIL+15
         3 000600   000000 701000 xent               TSX1    THW$WRITE
         3 000601   000000 011000                    NOP     0

     5503     2452    2           CALL THW$WRITE(VECTOR(PVAL_LINE),

   2452  3 000602   000026 235000 4                  LDA     22
         3 000603   203550 452500                    STP2    EOF_FLAG+2,,AUTO
         3 000604   203530 236100                    LDQ     I,,AUTO
         3 000605   000023 736000                    QLS     19
         3 000606   000023 036003                    ADLQ    19,DU
         3 000607   203550 036100                    ADLQ    EOF_FLAG+2,,AUTO
         3 000610   203552 757100                    STAQ    EOF_FLAG+4,,AUTO
         3 000611   000027 235000 4                  LDA     23
         3 000612   203554 452500                    STP2    EOF_FLAG+6,,AUTO
         3 000613   203554 236100                    LDQ     EOF_FLAG+6,,AUTO
         3 000614   003510 036003                    ADLQ    1864,DU
         3 000615   203556 757100                    STAQ    EOF_FLAG+8,,AUTO
         3 000616   000027 235000 4                  LDA     23
         3 000617   203560 452500                    STP2    EOF_FLAG+10,,AUTO
         3 000620   203560 236100                    LDQ     EOF_FLAG+10,,AUTO
         3 000621   003512 036003                    ADLQ    1866,DU
         3 000622   203562 757100                    STAQ    EOF_FLAG+12,,AUTO
         3 000623   000027 235000 4                  LDA     23
         3 000624   203564 452500                    STP2    EOF_FLAG+14,,AUTO
         3 000625   203564 236100                    LDQ     EOF_FLAG+14,,AUTO
         3 000626   003514 036003                    ADLQ    1868,DU
         3 000627   203566 757100                    STAQ    EOF_FLAG+16,,AUTO
         3 000630   000030 235000 4                  LDA     24
         3 000631   203570 452500                    STP2    EOF_FLAG+18,,AUTO
PL6.E3A0      #006=THF$SYS File=THF$FORMAT.:E05TSI                               WED 07/30/97 06:17 Page:1049
         3 000632   203570 236100                    LDQ     EOF_FLAG+18,,AUTO
         3 000633   003516 036003                    ADLQ    1870,DU
         3 000634   203574 757100                    STAQ    EOF_FLAG+22,,AUTO
         3 000635   203552 237100                    LDAQ    EOF_FLAG+4,,AUTO
         3 000636   203572 757100                    STAQ    EOF_FLAG+20,,AUTO
         3 000637   203556 237100                    LDAQ    EOF_FLAG+8,,AUTO
         3 000640   203576 757100                    STAQ    EOF_FLAG+24,,AUTO
         3 000641   203562 237100                    LDAQ    EOF_FLAG+12,,AUTO
         3 000642   203600 757100                    STAQ    EOF_FLAG+26,,AUTO
         3 000643   203566 237100                    LDAQ    EOF_FLAG+16,,AUTO
         3 000644   203602 757100                    STAQ    EOF_FLAG+28,,AUTO
         3 000645   203574 237100                    LDAQ    EOF_FLAG+22,,AUTO
         3 000646   203604 757100                    STAQ    EOF_FLAG+30,,AUTO
         3 000647   203604 630500                    EPPR0   EOF_FLAG+30,,AUTO
         3 000650   203613 450500                    STP0    EOF_FLAG+37,,AUTO
         3 000651   203602 631500                    EPPR1   EOF_FLAG+28,,AUTO
         3 000652   203612 451500                    STP1    EOF_FLAG+36,,AUTO
         3 000653   203600 633500                    EPPR3   EOF_FLAG+26,,AUTO
         3 000654   203611 453500                    STP3    EOF_FLAG+35,,AUTO
         3 000655   203576 634500                    EPPR4   EOF_FLAG+24,,AUTO
         3 000656   203610 454500                    STP4    EOF_FLAG+34,,AUTO
         3 000657   203572 635500                    EPPR5   EOF_FLAG+20,,AUTO
         3 000660   203607 455500                    STP5    EOF_FLAG+33,,AUTO
         3 000661   000031 236000 4                  LDQ     25
         3 000662   203606 756100                    STQ     EOF_FLAG+32,,AUTO
         3 000663   203606 630500                    EPPR0   EOF_FLAG+32,,AUTO
         3 000664   000024 631400 xsym               EPPR1   B_VECTNIL+20
         3 000665   000000 701000 xent               TSX1    THW$WRITE
         3 000666   000000 011000                    NOP     0

     5504     2453    2                          VECTOR(TH_HEAD.DEVNAME(I)),
     5505     2454    2                          VECTOR(PVAL_BUF),
     5506     2455    2                          VECTOR(ATTEN_BUF),
     5507     2456    2                          VECTOR(ALERT_BUF),
     5508     2457    2                          VECTOR(FLAG_BUF));
     5509     2458    2           LAST_CLASS = SUBSTR(TH_HEAD.DEVNAME(I),0,2);

PL6.E3A0      #006=THF$SYS File=THF$FORMAT.:E05TSI                               WED 07/30/97 06:17 Page:1050
   2458  3 000667   203530 235100                    LDA     I,,AUTO
         3 000670   000001 735000                    ALS     1
         3 000671   200023 220105                    LDX0    TH_HEAD+16,AL,AUTO
         3 000672   203527 740100                    STX0    LAST_CLASS,,AUTO

     5510     2459    2           NUM_LINES = NUM_LINES + 1;

   2459  3 000673   203545 236100                    LDQ     NUM_LINES,,AUTO
         3 000674   000001 036007                    ADLQ    1,DL
         3 000675   203545 756100                    STQ     NUM_LINES,,AUTO

     5511     2460    2      ENDLOOP:
     5512     2461    2           END;  /* DO I */

   2461  3 000676   203530 054100       ENDLOOP      AOS     I,,AUTO
         3 000677   203530 236100                    LDQ     I,,AUTO
         3 000700   000056 604000 3                  TMI     s:2362
         3 000701   203526 116100                    CMPQ    NUMDEVS,,AUTO
         3 000702   000056 602000 3                  TNC     s:2362

     5513     2462    1        TH_CONSTRAINTS.NTYPES = 7;

   2462  3 000703   000007 235007                    LDA     7,DL
         3 000704   000000 755000 xsym               STA     TH_CONSTRAINTS

     5514     2463    1        TH_CONSTRAINTS.TYPES = SYS_TYPE_VEC;

   2463  3 000705   000000 100400                    MLR     fill='000'O
         3 000706   000001 000007 2                  ADSC9   SYS_TYPE_VEC             cn=0,n=7
         3 000707   000001 000032 xsym               ADSC9   TH_CONSTRAINTS+1         cn=0,n=26

     5515     2464    1        NUMEDAC = 0;

   2464  3 000710   203100 450100                    STZ     NUMEDAC,,AUTO

     5516     2465    1        NUMPROCERR = 0;

PL6.E3A0      #006=THF$SYS File=THF$FORMAT.:E05TSI                               WED 07/30/97 06:17 Page:1051
   2465  3 000711   203101 450100                    STZ     NUMPROCERR,,AUTO

     5517     2466    1        NUMZAP = 0;

   2466  3 000712   203105 450100                    STZ     NUMZAP,,AUTO

     5518     2467    1        NUMSUA = 0;

   2467  3 000713   203102 450100                    STZ     NUMSUA,,AUTO

     5519     2468    1        NUMSNAP = 0;

   2468  3 000714   203103 450100                    STZ     NUMSNAP,,AUTO

     5520     2469    1        NUMSCREECH = 0;

   2469  3 000715   203104 450100                    STZ     NUMSCREECH,,AUTO

     5521     2470    1        NUMFEPEVENT = '0'B;

   2470  3 000716   000100 100400                    MLR     fill='000'O
         3 000717   000002 000001 xsym               ADSC9   B_VECTNIL+2              cn=0,n=1
         3 000720   203106 002004                    ADSC9   NUMFEPEVENT,,AUTO        cn=0,n=1028

     5522     2471    1          ERRLOG_DATE = START_TIME;

   2471  3 000721   203076 235100                    LDA     START_TIME,,AUTO
         3 000722   000000 755000 2                  STA     ERRLOG_DATE

     5523     2472    2          DO WHILE (ERRLOG_DATE <= STOP_TIME);

   2472  3 000723   203077 236100                    LDQ     STOP_TIME,,AUTO
         3 000724   000000 116000 2                  CMPQ    ERRLOG_DATE
         3 000725   001045 602000 3                  TNC     s:2504

     5524     2473    2           CALL THG$OPENXSA(ERRLOG_DATE) ALTRET(ALT);

PL6.E3A0      #006=THF$SYS File=THF$FORMAT.:E05TSI                               WED 07/30/97 06:17 Page:1052
   2473  3 000726   000013 630400 4                  EPPR0   11
         3 000727   000017 631400 xsym               EPPR1   B_VECTNIL+15
         3 000730   000000 701000 xent               TSX1    THG$OPENXSA
         3 000731   001231 702000 3                  TSX2    ALT

     5525     2474    2           TH_IOERR_M_OR_E_SET = '0'B;

   2474  3 000732   000000 450000 xsym               STZ     TH_IOERR_M_OR_E_SET

     5526     2475    2           TH_FEPERR_M_OR_E_SET = '0'B;

   2475  3 000733   000000 450000 xsym               STZ     TH_FEPERR_M_OR_E_SET

     5527     2476    2           TH_CHECK_DEVNM = '0'B;

   2476  3 000734   000000 450000 xsym               STZ     TH_CHECK_DEVNM

     5528     2477    2           EOF_FLAG = %FALSE;

   2477  3 000735   203546 450100                    STZ     EOF_FLAG,,AUTO

     5529     2478    2           TH_BOF = %TRUE;

   2478  3 000736   400000 236003                    LDQ     -131072,DU
         3 000737   000000 756000 xsym               STQ     TH_BOF

     5530     2479    3           DO WHILE(NOT EOF_FLAG);

   2479  3 000740   001034 710000 3                  TRA     s:2500

     5531     2480    3              CALL THG$GETREC(%ERRLOG) ALTRET(EOF);

   2480  3 000741   000032 630400 4                  EPPR0   26
         3 000742   000017 631400 xsym               EPPR1   B_VECTNIL+15
         3 000743   000000 701000 xent               TSX1    THG$GETREC
         3 000744   001032 702000 3                  TSX2    EOF

PL6.E3A0      #006=THF$SYS File=THF$FORMAT.:E05TSI                               WED 07/30/97 06:17 Page:1053
     5532     2481    4              DO CASE(TH_ITYPE);

   2481  3 000745   000000 235000 xsym               LDA     TH_ITYPE
         3 000746   000015 135007                    SBLA    13,DL
         3 000747   000022 115007                    CMPA    18,DL
         3 000750   000752 602005 3                  TNC     s:2481+5,AL
         3 000751   001031 710000 3                  TRA     s:2497
         3 000752   001004 710000 3                  TRA     s:2487
         3 000753   001031 710000 3                  TRA     s:2497
         3 000754   001031 710000 3                  TRA     s:2497
         3 000755   001031 710000 3                  TRA     s:2497
         3 000756   001031 710000 3                  TRA     s:2497
         3 000757   001031 710000 3                  TRA     s:2497
         3 000760   000774 710000 3                  TRA     s:2483
         3 000761   001031 710000 3                  TRA     s:2497
         3 000762   001000 710000 3                  TRA     s:2485
         3 000763   001031 710000 3                  TRA     s:2497
         3 000764   001031 710000 3                  TRA     s:2497
         3 000765   001020 710000 3                  TRA     s:2493
         3 000766   001031 710000 3                  TRA     s:2497
         3 000767   001031 710000 3                  TRA     s:2497
         3 000770   001024 710000 3                  TRA     s:2495
         3 000771   001031 710000 3                  TRA     s:2497
         3 000772   001010 710000 3                  TRA     s:2489
         3 000773   001014 710000 3                  TRA     s:2491

     5533     2482    4                 CASE(%TH_EDAC);

     5534     2483    4                    NUMEDAC = NUMEDAC + 1;

   2483  3 000774   203100 236100                    LDQ     NUMEDAC,,AUTO
         3 000775   000001 036007                    ADLQ    1,DL
         3 000776   203100 756100                    STQ     NUMEDAC,,AUTO
         3 000777   001031 710000 3                  TRA     s:2497

     5535     2484    4                 CASE(%TH_PROCERR);

PL6.E3A0      #006=THF$SYS File=THF$FORMAT.:E05TSI                               WED 07/30/97 06:17 Page:1054
     5536     2485    4                    NUMPROCERR = NUMPROCERR + 1;

   2485  3 001000   203101 236100                    LDQ     NUMPROCERR,,AUTO
         3 001001   000001 036007                    ADLQ    1,DL
         3 001002   203101 756100                    STQ     NUMPROCERR,,AUTO
         3 001003   001031 710000 3                  TRA     s:2497

     5537     2486    4                 CASE(%TH_ZAP);

     5538     2487    4                    NUMZAP = NUMZAP + 1;

   2487  3 001004   203105 236100                    LDQ     NUMZAP,,AUTO
         3 001005   000001 036007                    ADLQ    1,DL
         3 001006   203105 756100                    STQ     NUMZAP,,AUTO
         3 001007   001031 710000 3                  TRA     s:2497

     5539     2488    4                 CASE(%TH_SUA);

     5540     2489    4                    NUMSUA = NUMSUA + 1;

   2489  3 001010   203102 236100                    LDQ     NUMSUA,,AUTO
         3 001011   000001 036007                    ADLQ    1,DL
         3 001012   203102 756100                    STQ     NUMSUA,,AUTO
         3 001013   001031 710000 3                  TRA     s:2497

     5541     2490    4                 CASE(%TH_SNAP);

     5542     2491    4                    NUMSNAP = NUMSNAP + 1;

   2491  3 001014   203103 236100                    LDQ     NUMSNAP,,AUTO
         3 001015   000001 036007                    ADLQ    1,DL
         3 001016   203103 756100                    STQ     NUMSNAP,,AUTO
         3 001017   001031 710000 3                  TRA     s:2497

     5543     2492    4                 CASE(%TH_SCREECH);

     5544     2493    4                    NUMSCREECH = NUMSCREECH + 1;
PL6.E3A0      #006=THF$SYS File=THF$FORMAT.:E05TSI                               WED 07/30/97 06:17 Page:1055

   2493  3 001020   203104 236100                    LDQ     NUMSCREECH,,AUTO
         3 001021   000001 036007                    ADLQ    1,DL
         3 001022   203104 756100                    STQ     NUMSCREECH,,AUTO
         3 001023   001031 710000 3                  TRA     s:2497

     5545     2494    4                 CASE(%TH_FEPEVENT);

     5546     2495    4                    NUMFEPEVENT(EL$FECRASH.FENM.FEP#) = NUMFEPEVENT(EL$FECRASH.FENM.
              2495                             FEP#) + 1;

   2495  3 001024   000001 470400 xsym               LDP0    TH_INFO+1
         3 001025   000001 720100                    LXL0    1,,PR0
         3 001026   203106 235110                    LDA     NUMFEPEVENT,X0,AUTO
         3 001027   000001 035007                    ADLA    1,DL
         3 001030   203106 755110                    STA     NUMFEPEVENT,X0,AUTO

     5547     2496    4                 END;  /* DO CASE */

     5548     2497    4              DO NEVER;

   2497  3 001031   001034 710000 3                  TRA     s:2500

     5549     2498    4        EOF:     EOF_FLAG = %TRUE;

   2498  3 001032   400000 236003       EOF          LDQ     -131072,DU
         3 001033   203546 756100                    STQ     EOF_FLAG,,AUTO

     5550     2499    4                 END;  /* DO NEVER */

     5551     2500    3              END;  /* DO WHILE NOT EOF_FLAG */

   2500  3 001034   203546 234100                    SZN     EOF_FLAG,,AUTO
         3 001035   000741 605000 3                  TPL     s:2480

     5552     2501    2   NO_FILE:
     5553     2502    2           CALL XUD$UTS_ADJ_25TH(ERRLOG_DATE,ERRLOG_DATE,%UTS_25TH_DAY#);
PL6.E3A0      #006=THF$SYS File=THF$FORMAT.:E05TSI                               WED 07/30/97 06:17 Page:1056

   2502  3 001036   000015 630400 4     NO_FILE      EPPR0   13
         3 001037   000021 631400 xsym               EPPR1   B_VECTNIL+17
         3 001040   000000 701000 xent               TSX1    XUD$UTS_ADJ_25TH
         3 001041   000000 011000                    NOP     0

     5554     2503    2           END;  /* DO ERRLOG_DATE */

   2503  3 001042   203077 236100                    LDQ     STOP_TIME,,AUTO
         3 001043   000000 116000 2                  CMPQ    ERRLOG_DATE
         3 001044   000726 603000 3                  TRC     s:2473

     5555     2504    1        CALL THW$WRITE(VECTOR(EDACLINE),VECTOR(NUMEDAC));

   2504  3 001045   777640 235007                    LDA     -96,DL
         3 001046   203550 452500                    STP2    EOF_FLAG+2,,AUTO
         3 001047   203550 236100                    LDQ     EOF_FLAG+2,,AUTO
         3 001050   003100 036003                    ADLQ    1600,DU
         3 001051   203552 757100                    STAQ    EOF_FLAG+4,,AUTO
         3 001052   203552 630500                    EPPR0   EOF_FLAG+4,,AUTO
         3 001053   203555 450500                    STP0    EOF_FLAG+7,,AUTO
         3 001054   000036 236000 4                  LDQ     30
         3 001055   203554 756100                    STQ     EOF_FLAG+6,,AUTO
         3 001056   203554 630500                    EPPR0   EOF_FLAG+6,,AUTO
         3 001057   000020 631400 xsym               EPPR1   B_VECTNIL+16
         3 001060   000000 701000 xent               TSX1    THW$WRITE
         3 001061   000000 011000                    NOP     0

     5556     2505    1        CALL THW$WRITE(VECTOR(PROCERRLINE),VECTOR(NUMPROCERR));

   2505  3 001062   777640 235007                    LDA     -96,DL
         3 001063   203550 452500                    STP2    EOF_FLAG+2,,AUTO
         3 001064   203550 236100                    LDQ     EOF_FLAG+2,,AUTO
         3 001065   003101 036003                    ADLQ    1601,DU
         3 001066   203552 757100                    STAQ    EOF_FLAG+4,,AUTO
         3 001067   203552 630500                    EPPR0   EOF_FLAG+4,,AUTO
         3 001070   203555 450500                    STP0    EOF_FLAG+7,,AUTO
PL6.E3A0      #006=THF$SYS File=THF$FORMAT.:E05TSI                               WED 07/30/97 06:17 Page:1057
         3 001071   000042 236000 4                  LDQ     34
         3 001072   203554 756100                    STQ     EOF_FLAG+6,,AUTO
         3 001073   203554 630500                    EPPR0   EOF_FLAG+6,,AUTO
         3 001074   000020 631400 xsym               EPPR1   B_VECTNIL+16
         3 001075   000000 701000 xent               TSX1    THW$WRITE
         3 001076   000000 011000                    NOP     0

     5557     2506    1        CALL THW$WRITE(VECTOR(SCREECHLINE),VECTOR(NUMSCREECH));

   2506  3 001077   777640 235007                    LDA     -96,DL
         3 001100   203550 452500                    STP2    EOF_FLAG+2,,AUTO
         3 001101   203550 236100                    LDQ     EOF_FLAG+2,,AUTO
         3 001102   003104 036003                    ADLQ    1604,DU
         3 001103   203552 757100                    STAQ    EOF_FLAG+4,,AUTO
         3 001104   203552 630500                    EPPR0   EOF_FLAG+4,,AUTO
         3 001105   203555 450500                    STP0    EOF_FLAG+7,,AUTO
         3 001106   000046 236000 4                  LDQ     38
         3 001107   203554 756100                    STQ     EOF_FLAG+6,,AUTO
         3 001110   203554 630500                    EPPR0   EOF_FLAG+6,,AUTO
         3 001111   000020 631400 xsym               EPPR1   B_VECTNIL+16
         3 001112   000000 701000 xent               TSX1    THW$WRITE
         3 001113   000000 011000                    NOP     0

     5558     2507    1        CALL THW$WRITE(VECTOR(FEPEVENT_HDR));

   2507  3 001114   000052 630400 4                  EPPR0   42
         3 001115   000017 631400 xsym               EPPR1   B_VECTNIL+15
         3 001116   000000 701000 xent               TSX1    THW$WRITE
         3 001117   000000 011000                    NOP     0

     5559     2508    2        DO J = 0 TO 256;

   2508  3 001120   203531 450100                    STZ     J,,AUTO

     5560     2509    2           IF NUMFEPEVENT(J) ~= 0 THEN

   2509  3 001121   203531 720100                    LXL0    J,,AUTO
PL6.E3A0      #006=THF$SYS File=THF$FORMAT.:E05TSI                               WED 07/30/97 06:17 Page:1058
         3 001122   203106 235110                    LDA     NUMFEPEVENT,X0,AUTO
         3 001123   001156 600000 3                  TZE     s:2511

     5561     2510    2              CALL THW$WRITE(VECTOR(FEPEVENTLINE),VECTOR(J),VECTOR(NUMFEPEVENT(J)));

   2510  3 001124   777640 235007                    LDA     -96,DL
         3 001125   203550 452500                    STP2    EOF_FLAG+2,,AUTO
         3 001126   203550 236100                    LDQ     EOF_FLAG+2,,AUTO
         3 001127   003531 036003                    ADLQ    1881,DU
         3 001130   203552 757100                    STAQ    EOF_FLAG+4,,AUTO
         3 001131   777640 235007                    LDA     -96,DL
         3 001132   203554 452500                    STP2    EOF_FLAG+6,,AUTO
         3 001133   203531 236100                    LDQ     J,,AUTO
         3 001134   000022 736000                    QLS     18
         3 001135   003106 036003                    ADLQ    1606,DU
         3 001136   203554 036100                    ADLQ    EOF_FLAG+6,,AUTO
         3 001137   203560 757100                    STAQ    EOF_FLAG+10,,AUTO
         3 001140   203552 237100                    LDAQ    EOF_FLAG+4,,AUTO
         3 001141   203556 757100                    STAQ    EOF_FLAG+8,,AUTO
         3 001142   203560 237100                    LDAQ    EOF_FLAG+10,,AUTO
         3 001143   203562 757100                    STAQ    EOF_FLAG+12,,AUTO
         3 001144   203562 630500                    EPPR0   EOF_FLAG+12,,AUTO
         3 001145   203566 450500                    STP0    EOF_FLAG+16,,AUTO
         3 001146   203556 631500                    EPPR1   EOF_FLAG+8,,AUTO
         3 001147   203565 451500                    STP1    EOF_FLAG+15,,AUTO
         3 001150   000056 236000 4                  LDQ     46
         3 001151   203564 756100                    STQ     EOF_FLAG+14,,AUTO
         3 001152   203564 630500                    EPPR0   EOF_FLAG+14,,AUTO
         3 001153   000021 631400 xsym               EPPR1   B_VECTNIL+17
         3 001154   000000 701000 xent               TSX1    THW$WRITE
         3 001155   000000 011000                    NOP     0

     5562     2511    2        END;  /* DO J */

   2511  3 001156   203531 054100                    AOS     J,,AUTO
         3 001157   203531 235100                    LDA     J,,AUTO
         3 001160   000400 115007                    CMPA    256,DL
PL6.E3A0      #006=THF$SYS File=THF$FORMAT.:E05TSI                               WED 07/30/97 06:17 Page:1059
         3 001161   001121 604400 3                  TMOZ    s:2509

     5563     2512    1        CALL THW$WRITE(VECTOR(SUALINE),VECTOR(NUMSUA));

   2512  3 001162   777640 235007                    LDA     -96,DL
         3 001163   203550 452500                    STP2    EOF_FLAG+2,,AUTO
         3 001164   203550 236100                    LDQ     EOF_FLAG+2,,AUTO
         3 001165   003102 036003                    ADLQ    1602,DU
         3 001166   203552 757100                    STAQ    EOF_FLAG+4,,AUTO
         3 001167   203552 630500                    EPPR0   EOF_FLAG+4,,AUTO
         3 001170   203555 450500                    STP0    EOF_FLAG+7,,AUTO
         3 001171   000062 236000 4                  LDQ     50
         3 001172   203554 756100                    STQ     EOF_FLAG+6,,AUTO
         3 001173   203554 630500                    EPPR0   EOF_FLAG+6,,AUTO
         3 001174   000020 631400 xsym               EPPR1   B_VECTNIL+16
         3 001175   000000 701000 xent               TSX1    THW$WRITE
         3 001176   000000 011000                    NOP     0

     5564     2513    1        CALL THW$WRITE(VECTOR(SNAPLINE),VECTOR(NUMSNAP));

   2513  3 001177   777640 235007                    LDA     -96,DL
         3 001200   203550 452500                    STP2    EOF_FLAG+2,,AUTO
         3 001201   203550 236100                    LDQ     EOF_FLAG+2,,AUTO
         3 001202   003103 036003                    ADLQ    1603,DU
         3 001203   203552 757100                    STAQ    EOF_FLAG+4,,AUTO
         3 001204   203552 630500                    EPPR0   EOF_FLAG+4,,AUTO
         3 001205   203555 450500                    STP0    EOF_FLAG+7,,AUTO
         3 001206   000066 236000 4                  LDQ     54
         3 001207   203554 756100                    STQ     EOF_FLAG+6,,AUTO
         3 001210   203554 630500                    EPPR0   EOF_FLAG+6,,AUTO
         3 001211   000020 631400 xsym               EPPR1   B_VECTNIL+16
         3 001212   000000 701000 xent               TSX1    THW$WRITE
         3 001213   000000 011000                    NOP     0

     5565     2514    1        CALL THW$WRITE(VECTOR(ZAPLINE),VECTOR(NUMZAP));

   2514  3 001214   777640 235007                    LDA     -96,DL
PL6.E3A0      #006=THF$SYS File=THF$FORMAT.:E05TSI                               WED 07/30/97 06:17 Page:1060
         3 001215   203550 452500                    STP2    EOF_FLAG+2,,AUTO
         3 001216   203550 236100                    LDQ     EOF_FLAG+2,,AUTO
         3 001217   003105 036003                    ADLQ    1605,DU
         3 001220   203552 757100                    STAQ    EOF_FLAG+4,,AUTO
         3 001221   203552 630500                    EPPR0   EOF_FLAG+4,,AUTO
         3 001222   203555 450500                    STP0    EOF_FLAG+7,,AUTO
         3 001223   000072 236000 4                  LDQ     58
         3 001224   203554 756100                    STQ     EOF_FLAG+6,,AUTO
         3 001225   203554 630500                    EPPR0   EOF_FLAG+6,,AUTO
         3 001226   000020 631400 xsym               EPPR1   B_VECTNIL+16
         3 001227   000000 701000 xent               TSX1    THW$WRITE
         3 001230   000000 011000                    NOP     0

     5566     2515    1   ALT:
     5567     2516    1        CALL THG$CLOSEXSA;

   2516  3 001231   000002 631400 xsym  ALT          EPPR1   B_VECTNIL+2
         3 001232   000000 701000 xent               TSX1    THG$CLOSEXSA
         3 001233   000000 011000                    NOP     0

     5568     2517    1        RETURN;

   2517  3 001234   000000 702200 xent               TSX2  ! X66_ARET
     5569     2518    1   END THF$SYS;
     5570     2519        %EOD;

PL6.E3A0      #006=THF$SYS File=THF$FORMAT.:E05TSI                               WED 07/30/97 06:17 Page:1061
--  Include file information  --

   XUD_UTS_M.:E05TOU  is referenced.
   B_SEGIDS_C.:E05TOU  is referenced.
   NI$TABLES.:E05TOU  is referenced.
   EL$TABLES.:E05TOU  is referenced.
   TH$HIST.:E05TOU  is referenced.
   TD$STRUCT.:E05TOU  is referenced.
   EL_SUBS_C.:E05TOU  is referenced.
   B_STRINGS_C.:E05TOU  is referenced.
   TH_SUBS_C.:E05TOU  is referenced.
   TH_DATA_R.:E05TOU  cannot be made into a system file and is referenced.
   CP_6.:E05TOU  cannot be made into a system file and is referenced.
   B$JIT_C.:E05TOU  was found in the system file and is never referenced.
   CP_6_C.:E05TOU  was found in the system file and is referenced.
      No diagnostics issued in procedure THF$SYS.
PL6.E3A0      #006=THF$SYS File=THF$FORMAT.:E05TSI                               WED 07/30/97 06:17 Page:1062

 **** Variables and constants ****

  ****  Section 001 RoData THF$SYS

  ****  Scalars and arrays  ****
OctLoc.c.b A Datatyp(siz) R M Lvl/name                 OctLoc.c.b A Datatyp(siz) R M Lvl/name

     4-0-0/c CHAR(4)     r     1 BLANK_LINE                 5-0-0/c CHAR(30)    r     1 EDACLINE
   104-0-0/c CHAR(25)    r     1 FEPEVENTLINE              72-0-0/c CHAR(38)    r     1 FEPEVENT_HDR
     0-0-0/c CHAR(8)     r     1 HEAD_KEY                  15-0-0/c CHAR(35)    r     1 PROCERRLINE
   113-0-0/c STRC(1206)  r     1 PVAL_HDR                 155-0-0/c CHAR(47)    r     1 PVAL_LINE
    61-0-0/c CHAR(33)    r     1 SCREECHLINE               53-0-0/c CHAR(24)    r     1 SNAPLINE
    41-0-0/c CHAR(37)    r     1 SUALINE                    2-0-0/c CHAR(8)     r     1 THRESH_KEY
    26-0-0/c CHAR(42)    r     1 ZAPLINE

  ****  Section 002  Data  THF$SYS

  ****  Scalars and arrays  ****
OctLoc.c.b A Datatyp(siz) R M Lvl/name                 OctLoc.c.b A Datatyp(siz) R M Lvl/name

     0-0-0/w UBIN        r     1 ERRLOG_DATE
     1-0-0/b UBIN(9)     r     1 SYS_TYPE_VEC(0:6)

  ****  Auto variables  ****

  ****  Scalars and arrays  ****
OctLoc.c.b A Datatyp(siz) R M Lvl/name                 OctLoc.c.b A Datatyp(siz) R M Lvl/name

  3514-0-0/c CHAR(7)     r     1 ALERT_BUF               3544-0-0/b BIT         r     1 ALERT_FLAG
  3512-0-0/c CHAR(7)     r     1 ATTEN_BUF               3543-0-0/b BIT         r     1 ATTEN_FLAG
  3542-0-0/w UBIN        r     1 CONNECTS                3541-0-0/w UBIN        r     1 COUNT
  3537-0-0/w PTR         r     1 DCT$                    3537-0-0/w STRC        r     1 DCTPTR
  3536-0-0/w UBIN        r     1 DCTX                    3047-0-0/w STRC(828)   r     1 DEVREC
  3546-0-0/b BIT         r     1 EOF_FLAG                3516-0-0/c CHAR(13)    r     1 FLAG_BUF
  3524-0-0/w SBIN        r     1 FRACT_PART              3530-0-0/w SBIN        r     1 I
  3525-0-0/w UBIN        r     1 INT_PART                2311-0-0/w STRC(9648)  r     1 IOMREC
  3531-0-0/w SBIN        r     1 J                       3532-0-0/w SBIN        r     1 K
PL6.E3A0      #006=THF$SYS File=THF$FORMAT.:E05TSI                               WED 07/30/97 06:17 Page:1063
  3527-0-0/c CHAR(2)     r     1 LAST_CLASS              2725-0-0/w STRC(2952)  r     1 MPCREC
  3526-0-0/w UBIN        r     1 NUMDEVS                 3100-0-0/w UBIN        r     1 NUMEDAC
  3106-0-0/w UBIN        r     1 NUMFEPEVENT(0:256)
  3101-0-0/w UBIN        r     1 NUMPROCERR              3104-0-0/w UBIN        r     1 NUMSCREECH
  3103-0-0/w UBIN        r     1 NUMSNAP                 3102-0-0/w UBIN        r     1 NUMSUA
  3105-0-0/w UBIN        r     1 NUMZAP                  3545-0-0/w UBIN        r     1 NUM_LINES
  3540-0-0/w SBIN        r     1 PVAL                    3510-0-0/c CHAR(7)     r     1 PVAL_BUF
  3076-0-0/w UBIN        r     1 START_TIME              3077-0-0/w UBIN        r     1 STOP_TIME
  3522-0-0/c CHAR(2)     r     1 TEMP                    3523-0-0/c CHAR(2)     r     1 TEMP1
     3-0-0/w STRC(15048) r     1 TH_HEAD
   645-0-0/w STRC(144)   r     1 TH_THRESH(0:200)
  3507-0-0/w UBIN        r     1 UTS

  ****  SYMREF variables  ****

  ****  Scalars and arrays  ****
OctLoc.c.b A Datatyp(siz) R M Lvl/name                 OctLoc.c.b A Datatyp(siz) R M Lvl/name

     0-0-0/b BIT         r     1 TH_BOF                     0-0-0/b BIT         r     1 TH_CHECK_DEVNM
     0-0-0/d STRC(1971)  r     1 TH_CONSTRAINTS             0-0-0/w PTR         r     1 TH_DCT$(0:511)
     0-0-0/b BIT         r     1 TH_FEPERR_M_OR_E_SET       0-0-0/d STRC(72)    r     1 TH_INFO
     0-0-0/b BIT         r     1 TH_IOERR_M_OR_E_SET        0-0-0/w UBIN        r     1 TH_ITYPE
     0-0-0/w UBIN        r     1 TH_MAXDCTX                 0-0-0/b BIT         r     1 TH_PROC_FLAG
     0-0-0/d STRC(72)    r     1 TH_RECORD                  0-0-0/d STRC(1971)  r     1 TH_SAVE

  ****  BASED and DCB variables  ****

  ****  Scalars and arrays  ****
OctLoc.c.b A Datatyp(siz) R M Lvl/name                 OctLoc.c.b A Datatyp(siz) R M Lvl/name

     0-0-0/w STRC(1332)  r     1 DCT                        0-0-0/w STRC(180)   r     1 EL$FECRASH
     0-0-0/w STRC(828)   r     1 TH$DEV                     0-0-0/w STRC(15048) r     1 TH$HEAD
     0-0-0/w STRC(9648)  r     1 TH$IOM                     0-0-0/w STRC(2952)  r     1 TH$MPC
     0-0-0/w STRC(144)   r     1 TH$THRESH(0:200)

PL6.E3A0      #006=THF$SYS File=THF$FORMAT.:E05TSI                               WED 07/30/97 06:17 Page:1064

   Procedure THF$SYS requires 669 words for executable code.
   Procedure THF$SYS requires 1932 words of local(AUTO) storage.
PL6.E3A0      #006=THF$SYS File=THF$FORMAT.:E05TSI                               WED 07/30/97 06:17 Page:1065
          *** CROSS REFERENCE LISTING ***
**     DENOTES     IDENTIFIER DEFINITION
<<                 IDENTIFIER'S VALUE SET
>>                 IDENTIFIER'S VALUE USED
<>                 IDENTIFIER SET AND/OR USED
--                 IDENTIFIER REFERENCED
PL6.E3A0      #006=THF$SYS File=THF$FORMAT.:E05TSI                               WED 07/30/97 06:17 Page:1066
          MINI XREF LISTING

ALERT_BUF
      2212**DCL      2442<<ASSIGN   2448<<CALLBLT  2452--CALL
ALERT_FLAG
      2284**DCL      2363<<ASSIGN
ALT
      2516**LABEL    2347--CALLALT  2349--CALLALT  2473--CALLALT
ATTEN_BUF
      2211**DCL      2433<<ASSIGN   2439<<CALLBLT  2452--CALL
ATTEN_FLAG
      2283**DCL      2362<<ASSIGN
BLANK_LINE
      2285**DCL      2451--CALL
CONNECTS
      2282**DCL      2365<<ASSIGN   2386<<ASSIGN   2386>>ASSIGN   2392<<ASSIGN   2392>>ASSIGN   2399<<ASSIGN
      2399>>ASSIGN   2401<>CALL     2420>>IF
COUNT
      2281**DCL      2364<<ASSIGN   2385<<ASSIGN   2385>>ASSIGN   2391<<ASSIGN   2391>>ASSIGN   2397<<ASSIGN
      2397>>ASSIGN   2401<>CALL
DCT.DEVNM
      2241**DCL      2412>>DOUNTIL
DCT.DP
      2261**DCL      2268--REDEF    2271--REDEF    2272--REDEF    2274--REDEF    2274--REDEF    2275--REDEF
      2276--REDEF    2276--REDEF
DCT.MPC.IOCHANX
      2269**DCL      2269--REDEF
DCT$
      2227**DCL      2228--REDEF    2241--IMP-PTR  2412>>DOUNTIL  2414<<ASSIGN
DCTPTR.SEGID
      2231**DCL      2415<<ASSIGN
DCTX
      2226**DCL      2411<<ASSIGN   2412>>DOUNTIL  2413<<ASSIGN   2413>>ASSIGN   2414>>ASSIGN   2417>>IF
DEVREC
PL6.E3A0      #006=THF$SYS File=THF$FORMAT.:E05TSI                               WED 07/30/97 06:17 Page:1067
      2156**DCL      2395<<ASSIGN
DEVREC.CONNECTS
      2174**DCL      2399>>ASSIGN
DEVREC.COUNT
      2173**DCL      2397>>ASSIGN
EDACLINE
      2289**DCL      2504--CALL
EL$FECRASH.FENM.FEP#
      2004**DCL      2495>>ASSIGN   2495>>ASSIGN
ENDLOOP
      2461**LABEL    2379--GOTO     2417--GOTO
EOF
      2498**LABEL    2480--CALLALT
EOF_FLAG
      2288**DCL      2477<<ASSIGN   2479>>DOWHILE  2498<<ASSIGN
ERRLOG_DATE
      2208**DCL      2373<<ASSIGN   2374>>DOWHILE  2375<>CALL     2403<>CALL     2403<>CALL     2471<<ASSIGN
      2472>>DOWHILE  2473<>CALL     2502<>CALL     2502<>CALL
FEPEVENTLINE
      2296**DCL      2510--CALL
FEPEVENT_HDR
      2295**DCL      2507--CALL
FLAG_BUF
      2213**DCL      2405<<ASSIGN   2407<<ASSIGN   2410<<ASSIGN   2423<<ASSIGN   2452--CALL
FRACT_PART
      2216**DCL      2427<<ASSIGN   2429>>CALLBLT  2436<<ASSIGN   2438>>CALLBLT  2445<<ASSIGN   2447>>CALLBLT
HEAD_KEY
      2206**DCL      2347<>CALL
I
      2220**DCL      2361<<DOINDEX  2378>>IF       2380>>CALL     2381>>IF       2381>>IF       2381>>IF
      2389>>IF       2406>>IF       2409>>IF       2412>>DOUNTIL  2432>>IF       2435>>ASSIGN   2436>>ASSIGN
      2441>>IF       2444>>ASSIGN   2445>>ASSIGN   2450>>IF       2452>>CALL     2458>>ASSIGN
INT_PART
      2217**DCL      2426<<ASSIGN   2428>>CALLBLT  2435<<ASSIGN   2437>>CALLBLT  2444<<ASSIGN   2446>>CALLBLT
IOMREC
      2092**DCL      2390<<ASSIGN
PL6.E3A0      #006=THF$SYS File=THF$FORMAT.:E05TSI                               WED 07/30/97 06:17 Page:1068
IOMREC.CONNECTS
      2099**DCL      2392>>ASSIGN
IOMREC.COUNT
      2100**DCL      2391>>ASSIGN
J
      2221**DCL      2508<<DOINDEX  2509>>IF       2510--CALL     2510>>CALL
K
      2222**DCL      2396<<DOINDEX  2397>>ASSIGN
LAST_CLASS
      2219**DCL      2352<<ASSIGN   2450>>IF       2458<<ASSIGN
MPCREC
      2114**DCL      2384<<ASSIGN
MPCREC.CONNECTS
      2116**DCL      2386>>ASSIGN
MPCREC.COUNT
      2115**DCL      2385>>ASSIGN
NOT_THERE
      2403**LABEL    2380--CALLALT
NUMDEVS
      2218**DCL      2351<<ASSIGN   2361>>DOINDEX
NUMEDAC
      2199**DCL      2464<<ASSIGN   2483<<ASSIGN   2483>>ASSIGN   2504--CALL
NUMFEPEVENT
      2205**DCL      2470<<ASSIGN   2495<<ASSIGN   2495>>ASSIGN   2509>>IF       2510--CALL
NUMPROCERR
      2200**DCL      2465<<ASSIGN   2485<<ASSIGN   2485>>ASSIGN   2505--CALL
NUMSCREECH
      2203**DCL      2469<<ASSIGN   2493<<ASSIGN   2493>>ASSIGN   2506--CALL
NUMSNAP
      2202**DCL      2468<<ASSIGN   2491<<ASSIGN   2491>>ASSIGN   2513--CALL
NUMSUA
      2201**DCL      2467<<ASSIGN   2489<<ASSIGN   2489>>ASSIGN   2512--CALL
NUMZAP
      2204**DCL      2466<<ASSIGN   2487<<ASSIGN   2487>>ASSIGN   2514--CALL
NUM_LINES
      2286**DCL      2353<<ASSIGN   2450>>IF       2459<<ASSIGN   2459>>ASSIGN
PL6.E3A0      #006=THF$SYS File=THF$FORMAT.:E05TSI                               WED 07/30/97 06:17 Page:1069
PROCERRLINE
      2290**DCL      2505--CALL
PVAL
      2280**DCL      2366<<ASSIGN   2401<>CALL     2406>>IF       2409>>IF       2418>>IF       2426>>ASSIGN
      2427>>ASSIGN
PVAL_BUF
      2210**DCL      2419<<ASSIGN   2422<<ASSIGN   2430<<CALLBLT  2452--CALL
PVAL_HDR
      2297**DCL      2360--CALL
PVAL_LINE
      2301**DCL      2452--CALL
SCREECHLINE
      2294**DCL      2506--CALL
SNAPLINE
      2293**DCL      2513--CALL
START_TIME
      2197**DCL      2367<>CALL     2368<<ASSIGN   2368>>ASSIGN   2369<>CALL     2369>>CALL     2373>>ASSIGN
      2471>>ASSIGN
STOP_TIME
      2198**DCL      2370<>CALL     2371<<ASSIGN   2371>>ASSIGN   2372<>CALL     2372>>CALL     2374>>DOWHILE
      2472>>DOWHILE
SUALINE
      2292**DCL      2512--CALL
SYS_TYPE_VEC
      2287**DCL      2463>>ASSIGN
TEMP
      2214**DCL      2428<<CALLBLT  2430>>CALLBLT  2437<<CALLBLT  2439>>CALLBLT  2446<<CALLBLT  2448>>CALLBLT
TEMP1
      2215**DCL      2429<<CALLBLT  2430>>CALLBLT  2438<<CALLBLT  2439>>CALLBLT  2447<<CALLBLT  2448>>CALLBLT
TH$DEV
      2177**DCL      2395>>ASSIGN
TH$HEAD
      2044**DCL      2348>>ASSIGN
TH$IOM
      2103**DCL      2390>>ASSIGN
TH$MPC
PL6.E3A0      #006=THF$SYS File=THF$FORMAT.:E05TSI                               WED 07/30/97 06:17 Page:1070
      2135**DCL      2384>>ASSIGN
TH$THRESH
      2086**DCL      2350>>ASSIGN
THE$PROCESS
      1999**DCL-ENT  2356--CALL
THG$CLOSEXSA
      1996**DCL-ENT  2516--CALL
THG$GETREC
      1993**DCL-ENT  2347--CALL     2349--CALL     2380--CALL     2480--CALL
THG$OPENXSA
      1994**DCL-ENT  2473--CALL
THP$STATS
      1997**DCL-ENT  2401--CALL
THRESH_KEY
      2207**DCL      2349<>CALL
THW$WRITE
      1998**DCL-ENT  2360--CALL     2451--CALL     2452--CALL     2504--CALL     2505--CALL     2506--CALL
      2507--CALL     2510--CALL     2512--CALL     2513--CALL     2514--CALL
TH_BOF
       127**DCL      2478<<ASSIGN
TH_CHECK_DEVNM
       137**DCL      2476<<ASSIGN
TH_CONSTRAINTS
        99**DCL      2354>>ASSIGN   2359<<ASSIGN
TH_CONSTRAINTS.E_BY_B
       102**DCL       102--REDEF
TH_CONSTRAINTS.M_BY_B
       101**DCL       101--REDEF
TH_CONSTRAINTS.NTYPES
        99**DCL      2462<<ASSIGN
TH_CONSTRAINTS.START
       100**DCL      2367<>CALL
TH_CONSTRAINTS.STOP
       100**DCL      2370<>CALL
TH_CONSTRAINTS.TYPES
        99**DCL        99--REDEF    2463<<ASSIGN
PL6.E3A0      #006=THF$SYS File=THF$FORMAT.:E05TSI                               WED 07/30/97 06:17 Page:1071
TH_DCT$
       134**DCL      2414>>ASSIGN
TH_DEFAULT.E_BY_B
       110**DCL       110--REDEF
TH_DEFAULT.M_BY_B
       109**DCL       109--REDEF
TH_DEFAULT.TYPES
       107**DCL       107--REDEF
TH_FEPERR_M_OR_E_SET
       136**DCL      2475<<ASSIGN
TH_HEAD
      2008**DCL      2348<<ASSIGN
TH_HEAD.DEVNAME
      2041**DCL      2378>>IF       2380<>CALL     2381>>IF       2381>>IF       2381>>IF       2389>>IF
      2412>>DOUNTIL  2450>>IF       2452--CALL     2458>>ASSIGN
TH_HEAD.NUMXXS
      2036**DCL      2351>>ASSIGN
TH_HEAD.XX_INDX
      2035**DCL      2351>>ASSIGN
TH_INFO.PTR$
       128**DCL      2003--IMP-PTR  2495>>ASSIGN   2495>>ASSIGN
TH_IOERR_M_OR_E_SET
       136**DCL      2474<<ASSIGN
TH_ITYPE
       129**DCL      2481>>DOCASE
TH_MAXDCTX
       133**DCL      2412>>DOUNTIL  2417>>IF
TH_PROC_FLAG
       133**DCL      2355>>IF       2357<<ASSIGN
TH_RECORD.PTR$
       127**DCL      2348>>ASSIGN   2350>>ASSIGN   2384>>ASSIGN   2390>>ASSIGN   2395>>ASSIGN
TH_SAVE
       114**DCL      2354<<ASSIGN   2359>>ASSIGN
TH_SAVE.E_BY_B
       118**DCL       118--REDEF
TH_SAVE.M_BY_B
PL6.E3A0      #006=THF$SYS File=THF$FORMAT.:E05TSI                               WED 07/30/97 06:17 Page:1072
       116**DCL       116--REDEF
TH_SAVE.TYPES
       114**DCL       115--REDEF
TH_THRESH
      2080**DCL      2350<<ASSIGN
TH_THRESH.ALERT
      2083**DCL      2406>>IF       2441>>IF       2444>>ASSIGN   2445>>ASSIGN
TH_THRESH.ATTEN
      2082**DCL      2409>>IF       2432>>IF       2435>>ASSIGN   2436>>ASSIGN
TH_XSA_BUF_VECTOR
       134**DCL       134--REDEF
UTS
      2209**DCL      2375<>CALL     2376<<ASSIGN   2376>>ASSIGN   2377<>CALL     2377>>CALL     2380<>CALL
XUD$UTS_ADJ_25TH
      2328**DCL-ENT  2369--CALL     2372--CALL     2377--CALL     2403--CALL     2502--CALL
XUD$UTS_DIFF_SEC
      2310**DCL-ENT  2367--CALL     2370--CALL     2375--CALL
ZAPLINE
      2291**DCL      2514--CALL

PL6.E3A0      #007=THF$AMS File=THF$FORMAT.:E05TSI                               WED 07/30/97 06:18 Page:1073
     5571        1        /*M* THF$AMS - ROUTINE TO GENERATE AMS REPORTS FOR ELAN */
     5572        2        /*T***********************************************************/
     5573        3        /*T*                                                         */
     5574        4        /*T* Copyright (c) Bull HN Information Systems Inc., 1997    */
     5575        5        /*T*                                                         */
     5576        6        /*T***********************************************************/
     5577        7        THF$AMS: PROC;
     5578        8        /**/
     5579        9        /* INCLUDE FILES */
     5580       10        %INCLUDE CP_6;
     5581       91        %INCLUDE TH_SUBS_C;
     5582      473        %INCLUDE TH_DATA_R;
     5583      551        %INCLUDE TH$HIST;
     5584      646        %INCLUDE TD$STRUCT;
     5585      747        %INCLUDE XUD_UTS_M;
     5586      829        /**/
     5587      830        /* ENTRY DEFS */
     5588      831    1   DCL THG$GETREC ENTRY(4) ALTRET;
     5589      832    1   DCL THP$STATS ENTRY(3);
     5590      833    1   DCL THW$WRITE ENTRY(11);
     5591      834    1   DCL THP$PTOT ENTRY(3);
     5592      835    1   DCL THF$ADD_TEXTC ENTRY(3);
     5593      836    1   DCL THE$PROCESS ENTRY ALTRET;
     5594      837        /**/
     5595      838        /* VARS */
     5596      839    1   DCL TH$THRESH$ PTR;
     5597      840    1   DCL TH$HEAD$ PTR;
     5598      841    1   DCL I UBIN;
     5599      842    1   DCL J UBIN;
     5600      843    1   DCL K UBIN;
     5601      844    1   DCL COUNT UBIN WORD;
     5602      845    1   DCL CONNECTS UBIN WORD;
     5603      846    1   DCL ATTEN_FLAG BIT(1);
     5604      847    1   DCL ALERT_FLAG BIT(1);
     5605      848    1   DCL TEMP CHAR(2);
     5606      849    1   DCL VALUE SBIN WORD;
     5607      850    1   DCL INT_PART UBIN WORD;
PL6.E3A0      #007=THF$AMS File=THF$FORMAT.:E05TSI                               WED 07/30/97 06:18 Page:1074
     5608      851    1   DCL FRACT_PART SBIN WORD;
     5609      852    1   DCL STRT UBIN WORD;
     5610      853    1   DCL BUF CHAR(256);
     5611      854    1   DCL LAST_CLASS CHAR(3);
     5612      855    1   DCL 1 TVEC DALIGNED,
     5613      856    1         2 BOUND UBIN(20) UNAL,
     5614      857    1         2 * BIT(16),
     5615      858    1         2 PTR$ PTR;
     5616      859    1   DCL TEXTBUF CHAR(256);
     5617      860    1   DCL TEXT$ PTR;
     5618      861    1   DCL UTS UBIN WORD;
     5619      862    1   DCL CURUTS UBIN WORD STATIC INIT(0);
     5620      863    1   DCL NUMDEVS UBIN WORD;
     5621      864    1   DCL CURVAL SBIN WORD;
     5622      865    1   DCL CURVALM1 UBIN WORD;
     5623      866    1   DCL BAD_DAYS SBIN WORD;
     5624      867    1   DCL BAD_COMPS UBIN WORD;
     5625      868    1   DCL AMS_FMT CHAR(0) CONSTANT INIT(
     5626      869    1   '%4A performance for last %2P%D days %3P%T is below current %T threshold %T%10P');
     5627      870    1   DCL BLANK_LINE CHAR(0) CONSTANT INIT('%10P');
     5628      871    1   DCL NO_ERRORS CHAR(0) CONSTANT INIT('No components exceeded current thresholds %10P'
               871            );
     5629      872    1   DCL ZERO CHAR(8) STATIC INIT('0       ');
     5630      873    1   DCL ONE CHAR(8) STATIC INIT('1       ');
     5631      874    1   DCL TEMP_UTS UBIN;
     5632      875        /**/
     5633      876        /* MACRO INVOCATIONS */
     5634      877        %TD$HEAD (NAME=TH$HEAD,NUMDEV#=200);
     5635      913        %TD$HEAD (NAME=TH_HEAD,STCLASS=AUTO,NUMDEV#=200);
     5636      949        %TH$THRESH (NAME=TH$THRESH,NUMDEV#=200);
     5637      955        %TH$THRESH (NAME=TH_THRESH,STCLASS=AUTO,NUMDEV#=200);
     5638      961        %TH$DEV (NAME=DEVREC,STCLASS=AUTO);
     5639      982        %TH$DEV (NAME=TH$DEV);
     5640     1003        %TH$IOM (NAME=TH$IOM);
     5641     1014        %TH$IOM (NAME=IOMREC,STCLASS=AUTO);
     5642     1025        %TH$MPC (NAME=TH$MPC,NUMDEV#=32);
     5643     1046        %TH$MPC (NAME=MPCREC,STCLASS=AUTO,NUMDEV#=32);
PL6.E3A0      #007=THF$AMS File=THF$FORMAT.:E05TSI                               WED 07/30/97 06:18 Page:1075
     5644     1067        %XUD$UTS_ENTRIES;
     5645     1099        %XUD_UTS_EQU;
     5646     1110        /**/
     5647     1111        /* FPTS */
     5648     1112        %FPT_TIME (FPTN=CUR_UTS,
     5649     1113                   STCLASS=CONSTANT,
     5650     1114                   SOURCE=CLOCK,
     5651     1115                   DEST=UTS,
     5652     1116                   TSTAMP=CURUTS);
     5653     1135        /**/
     5654     1136        %EJECT;
PL6.E3A0      #007=THF$AMS File=THF$FORMAT.:E05TSI                               WED 07/30/97 06:18 Page:1076
     5655     1137    1        CALL M$TIME(CUR_UTS);
     5656     1138    1        CALL XUD$UTS_DIFF_SEC (CURUTS, CURUTS, 0);
     5657     1139    1        CURUTS = CURUTS / 86400;
     5658     1140    1        CALL XUD$UTS_ADJ_25TH (CURUTS, 0, CURUTS * %UTS_25TH_DAY#);
     5659     1141    1        CALL THG$GETREC(%DEVHIST,ZERO);    /* HEAD RECORD                        */
     5660     1142    1        TH_HEAD = TH_RECORD.PTR$->TH$HEAD;
     5661     1143    1        CALL THG$GETREC(%DEVHIST,ONE);     /* THRESH RECORD                      */
     5662     1144    1        TH_THRESH = TH_RECORD.PTR$->TH$THRESH;
     5663     1145
     5664     1146    1        NUMDEVS = TH_HEAD.XX_INDX + TH_HEAD.NUMXXS;
     5665     1147
     5666     1148    1        BAD_COMPS = 0;
     5667     1149    1        LAST_CLASS = ' ';
     5668     1150    1        TH_SAVE = TH_CONSTRAINTS;
     5669     1151    1        CALL THE$PROCESS;
     5670     1152    1        TH_CONSTRAINTS = TH_SAVE;
     5671     1153    2        DO I = 0 TO NUMDEVS - 1;
     5672     1154    2           ATTEN_FLAG = %FALSE;
     5673     1155    2           ALERT_FLAG = %FALSE;
     5674     1156    2           UTS = CURUTS;
     5675     1157    2           COUNT = 0;
     5676     1158    2           CONNECTS = 0;
     5677     1159    2           CURVAL = 10000;
     5678     1160    2           BAD_DAYS = 0;
     5679     1161    2           CALL XUD$UTS_ADJ_25TH (TEMP_UTS, UTS, 15*%UTS_25TH_DAY#);
     5680     1162    3           DO UNTIL(CURVAL >= TH_THRESH.ATTEN(I) OR TEMP_UTS = CURUTS);
     5681     1163    3              CURVALM1 = CURVAL;
     5682     1164    3              CALL THG$GETREC(%DEVHIST,TH_HEAD.DEVNAME(I),UTS) ALTRET(NOT_THERE);
     5683     1165    3              IF (SUBSTR(TH_HEAD.DEVNAME(I),0,2) = 'UC') OR
     5684     1166    3                 (SUBSTR(TH_HEAD.DEVNAME(I),0,2) = 'TC') OR
     5685     1167    3                 (SUBSTR(TH_HEAD.DEVNAME(I),0,2) = 'DC')
     5686     1168    3                 THEN                      /* MPC RECORD                         */
     5687     1169    4                 DO;
     5688     1170    4                    MPCREC = TH_RECORD.PTR$->TH$MPC;
     5689     1171    4                    COUNT = COUNT + MPCREC.COUNT;
     5690     1172    4                    CONNECTS = CONNECTS + MPCREC.CONNECTS;
     5691     1173    4                 END;
PL6.E3A0      #007=THF$AMS File=THF$FORMAT.:E05TSI                               WED 07/30/97 06:18 Page:1077
     5692     1174    3                 ELSE
     5693     1175    3              IF SUBSTR(TH_HEAD.DEVNAME(I),0,3) = 'IOM'
     5694     1176    3                 THEN                      /* IOM RECORD                         */
     5695     1177    4                 DO;
     5696     1178    4                    IOMREC = TH_RECORD.PTR$->TH$IOM;
     5697     1179    4                    COUNT = COUNT + IOMREC.COUNT;
     5698     1180    4                    CONNECTS = CONNECTS + IOMREC.CONNECTS;
     5699     1181    4                 END;
     5700     1182    3                 ELSE
     5701     1183    3              IF SUBSTR(TH_HEAD.DEVNAME(I),0,3) = 'FEP'
     5702     1184    3                 THEN
     5703     1185    4                 DO;
     5704     1186                         /* UNIMPLIMENTED AS YET */
     5705     1187    4                    GOTO ENDLOOP;
     5706     1188    4                 END;
     5707     1189    3                 ELSE                      /* DEVICE RECORD                      */
     5708     1190    4                 DO;
     5709     1191    4                    DEVREC = TH_RECORD.PTR$->TH$DEV;
     5710     1192    5                    DO K = 10 TO 20;
     5711     1193    5                       COUNT = COUNT + DEVREC.COUNT(K);
     5712     1194    5                    END;                   /* DO K                               */
     5713     1195    4                    CONNECTS = CONNECTS + DEVREC.CONNECTS;
     5714     1196    4                 END;
     5715     1197    3              CALL THP$STATS(COUNT,CONNECTS,CURVAL);
     5716     1198    3              IF CURVAL = 10000 THEN;
     5717     1199    4              ELSE IF CURVAL < TH_THRESH.ATTEN(I) THEN DO;
     5718     1200    4                 BAD_DAYS = BAD_DAYS + 1;
     5719     1201    5                 IF CURVAL < TH_THRESH.ALERT(I) THEN DO;
     5720     1202    5                    IF NOT ATTEN_FLAG THEN ALERT_FLAG = %TRUE;
     5721     1203    5                    END;  /* IF CURVAL < ALERT */
     5722     1204    5                    ELSE DO;
     5723     1205    5                       ATTEN_FLAG = %TRUE;
     5724     1206    5                       ALERT_FLAG = %FALSE;
     5725     1207    5                       END;  /* ELSE */
     5726     1208    4                 END;  /* IF CURVAL < ATTEN */
     5727     1209    3   NOT_THERE:
     5728     1210    3              CALL XUD$UTS_ADJ_25TH (UTS, UTS, -%UTS_25TH_DAY#);
PL6.E3A0      #007=THF$AMS File=THF$FORMAT.:E05TSI                               WED 07/30/97 06:18 Page:1078
     5729     1211    3              CALL XUD$UTS_ADJ_25TH(TEMP_UTS,UTS,15*%UTS_25TH_DAY#);
     5730     1212    3           END;                            /* DO UNTIL                           */
     5731     1213    2           CURVAL = CURVALM1;
     5732     1214    2           IF BAD_DAYS > 0
     5733     1215    2              THEN                         /* OUTPUT ONE-LINER                   */
     5734     1216    3              DO;
     5735     1217    3                 IF SUBSTR(TH_HEAD.DEVNAME(I),0,3) ~= LAST_CLASS AND BAD_COMPS > 0
     5736     1218    3                    THEN
     5737     1219    4                    DO;
     5738     1220    4                       CALL THW$WRITE(VECTOR(BLANK_LINE));
     5739     1221    4                       LAST_CLASS = SUBSTR(TH_HEAD.DEVNAME(I),0,3);
     5740     1222    4                    END;  /* IF */
     5741     1223    3                 TEXT$ = ADDR(TEXTBUF);
     5742     1224    3                 STRT = 0;
     5743     1225    3                 INT_PART = CURVAL/100;
     5744     1226    3                 FRACT_PART = MOD(CURVAL,100);
     5745     1227    3                 CALL BINCHAR(TEMP,INT_PART);
     5746     1228    3                 CALL INSERT(BUF,STRT,5,'(%',TEMP,'.');
     5747     1229    3                 STRT = STRT + 5;
     5748     1230    3                 CALL BINCHAR(TEMP,FRACT_PART);
     5749     1231    3                 CALL INSERT(BUF,STRT,3,TEMP,')');
     5750     1232    3                 STRT = STRT + 3;
     5751     1233    3                 CALL THF$ADD_TEXTC(TEXT$,BUF,STRT);
     5752     1234    3                 STRT = 0;
     5753     1235    4                 IF ATTEN_FLAG THEN DO;
     5754     1236    4                    CALL THF$ADD_TEXTC(TEXT$,'ATTEN',5);
     5755     1237    4                    VALUE = TH_THRESH.ATTEN(I);
     5756     1238    4                    END;  /* IF ATTEN_FLAG */
     5757     1239    3                    ELSE
     5758     1240    4                 IF ALERT_FLAG THEN DO;
     5759     1241    4                    CALL THF$ADD_TEXTC(TEXT$,'ALERT',5);
     5760     1242    4                    VALUE = TH_THRESH.ALERT(I);
     5761     1243    4                    END;  /* IF ALERT_FLAG */
     5762     1244    3                 INT_PART = VALUE/100;
     5763     1245    3                 FRACT_PART = MOD(VALUE,100);
     5764     1246    3                 CALL BINCHAR(TEMP,INT_PART);
     5765     1247    3                 CALL INSERT(BUF,STRT,5,'(%',TEMP,'.');
PL6.E3A0      #007=THF$AMS File=THF$FORMAT.:E05TSI                               WED 07/30/97 06:18 Page:1079
     5766     1248    3                 STRT = STRT + 5;
     5767     1249    3                 CALL BINCHAR(TEMP,FRACT_PART);
     5768     1250    3                 CALL INSERT(BUF,STRT,3,TEMP,')');
     5769     1251    3                 STRT = STRT + 3;
     5770     1252    3                 CALL THF$ADD_TEXTC(TEXT$,BUF,STRT);
     5771     1253    3                 TVEC = VECTOR(TEXTBUF);
     5772     1254    3                 TVEC.BOUND = POFFC(TEXT$,ADDR(TEXTBUF)) - 1;
     5773     1255    3                 BAD_COMPS = BAD_COMPS + 1;
     5774     1256    3                 CALL THW$WRITE(VECTOR(AMS_FMT),
     5775     1257    3                                VECTOR(TH_HEAD.DEVNAME(I)),
     5776     1258    3                                VECTOR(BAD_DAYS),
     5777     1259    3                                TVEC);
     5778     1260    3              END;                         /* IF BAD_DAYS > 0                    */
     5779     1261    2   ENDLOOP:
     5780     1262    2        END;                               /* DO I                               */
     5781     1263    1        IF BAD_COMPS = 0
     5782     1264    1           THEN                            /* NO EXCEEDED THRESHOLDS             */
     5783     1265    2           DO;
     5784     1266    2              CALL THW$WRITE(VECTOR(NO_ERRORS));
     5785     1267    2           END;                            /* IF BAD_COMPS = 0                   */
     5786     1268    1   END THF$AMS;
     5787     1269        %EOD;

PL6.E3A0      #007=THF$AMS File=THF$FORMAT.:E05TSI                               WED 07/30/97 06:18 Page:1080
--  Include file information  --

   XUD_UTS_M.:E05TOU  is referenced.
   TD$STRUCT.:E05TOU  is referenced.
   TH$HIST.:E05TOU  is referenced.
   TH_DATA_R.:E05TOU  cannot be made into a system file and is referenced.
   B_STRINGS_C.:E05TOU  is referenced.
   TH_SUBS_C.:E05TOU  is referenced.
   CP_6.:E05TOU  cannot be made into a system file and is referenced.
   B$JIT_C.:E05TOU  was found in the system file and is never referenced.
   CP_6_C.:E05TOU  was found in the system file and is referenced.
      No diagnostics issued in procedure THF$AMS.

   Procedure THF$AMS requires 436 words for executable code.
   Procedure THF$AMS requires 1768 words of local(AUTO) storage.

PL6.E3A0      #007=THF$AMS File=THF$FORMAT.:E05TSI                               WED 07/30/97 06:18 Page:1081

 Object Unit name= THF$AMS                                    File name= THF$FORMAT.:E05TOU
 UTS= JUL 30 '97 06:18:28.44 WED                              Compiler= PL-6/E31         Sev=      00
 SharedLib= :SHARED_SYSTEM                                    Alt SharedLib=


    ****  Control sections  ****

 Sect   Type Bound  Init  Size OctSiz  Section name(segment info)
    0   DCB   even  none     0      0  M$UC
    1   Data  even  none     5      5  THF$AMS
    2  RoData even  UTS     56     70  THF$AMS
    3   Proc  even  none   436    664  THF$AMS
    4  RoData even  none    31     37  THF$AMS

    ****  Entry defs  ****

                              Check   Calling
                             calling  sequence
  Sect OctLoc Primary Altret sequence   type   Parms  Name
     3      0   yes            yes      Std        0  THF$AMS

  ****  Entry refs  ****

         Check        Calling
        calling       sequence
Altret sequence SRef   type   Args  Name
 yes     yes           Std       3 XUD$UTS_DIFF_SEC
         yes           Std       3 THP$STATS
 yes     yes           Std       3 XUD$UTS_ADJ_25TH
 yes     yes           Std       0 THE$PROCESS
 yes     yes           Std       4 THG$GETREC
         yes           Std      11 THW$WRITE
         yes           Std       3 THF$ADD_TEXTC
                       nStd      0 X66_AUTO_0
                       Std       0 B_CONSPOOL_D
                       nStd      0 X66_ARET
PL6.E3A0      #007=THF$AMS File=THF$FORMAT.:E05TSI                               WED 07/30/97 06:18 Page:1082

  ****  Data refs  ****

  Flags:  r = read only, s = secondary
Flgs Name                             Flgs Name                             Flgs Name
     M$UC                                  TH_CONSTRAINTS                        TH_SAVE
     TH_RECORD                             TH_XSA_BUF_VECTOR                     B_VECTNIL

  ****  Segment refs  ****

  Flags:  r = read only, s = secondary
Flgs Name                             Flgs Name                             Flgs Name
     ISSID                                 NULLSID
PL6.E3A0      #007=THF$AMS File=THF$FORMAT.:E05TSI                               WED 07/30/97 06:18 Page:1083


     5571        1        /*M* THF$AMS - ROUTINE TO GENERATE AMS REPORTS FOR ELAN */
     5572        2        /*T***********************************************************/
     5573        3        /*T*                                                         */
     5574        4        /*T* Copyright (c) Bull HN Information Systems Inc., 1997    */
     5575        5        /*T*                                                         */
     5576        6        /*T***********************************************************/
     5577        7        THF$AMS: PROC;

      7  3 000000   000000 700200 xent  THF$AMS      TSX0  ! X66_AUTO_0
         3 000001   003350 000000                    ZERO    1768,0

     5578        8        /**/
     5579        9        /* INCLUDE FILES */
     5580       10        %INCLUDE CP_6;
     5581       91        %INCLUDE TH_SUBS_C;
     5582      473        %INCLUDE TH_DATA_R;
     5583      551        %INCLUDE TH$HIST;
     5584      646        %INCLUDE TD$STRUCT;
     5585      747        %INCLUDE XUD_UTS_M;
     5586      829        /**/
     5587      830        /* ENTRY DEFS */
     5588      831    1   DCL THG$GETREC ENTRY(4) ALTRET;
     5589      832    1   DCL THP$STATS ENTRY(3);
     5590      833    1   DCL THW$WRITE ENTRY(11);
     5591      834    1   DCL THP$PTOT ENTRY(3);
     5592      835    1   DCL THF$ADD_TEXTC ENTRY(3);
     5593      836    1   DCL THE$PROCESS ENTRY ALTRET;
     5594      837        /**/
     5595      838        /* VARS */
     5596      839    1   DCL TH$THRESH$ PTR;
     5597      840    1   DCL TH$HEAD$ PTR;
     5598      841    1   DCL I UBIN;
     5599      842    1   DCL J UBIN;
     5600      843    1   DCL K UBIN;
     5601      844    1   DCL COUNT UBIN WORD;
     5602      845    1   DCL CONNECTS UBIN WORD;
PL6.E3A0      #007=THF$AMS File=THF$FORMAT.:E05TSI                               WED 07/30/97 06:18 Page:1084
     5603      846    1   DCL ATTEN_FLAG BIT(1);
     5604      847    1   DCL ALERT_FLAG BIT(1);
     5605      848    1   DCL TEMP CHAR(2);
     5606      849    1   DCL VALUE SBIN WORD;
     5607      850    1   DCL INT_PART UBIN WORD;
     5608      851    1   DCL FRACT_PART SBIN WORD;
     5609      852    1   DCL STRT UBIN WORD;
     5610      853    1   DCL BUF CHAR(256);
     5611      854    1   DCL LAST_CLASS CHAR(3);
     5612      855    1   DCL 1 TVEC DALIGNED,
     5613      856    1         2 BOUND UBIN(20) UNAL,
     5614      857    1         2 * BIT(16),
     5615      858    1         2 PTR$ PTR;
     5616      859    1   DCL TEXTBUF CHAR(256);
     5617      860    1   DCL TEXT$ PTR;
     5618      861    1   DCL UTS UBIN WORD;
     5619      862    1   DCL CURUTS UBIN WORD STATIC INIT(0);
     5620      863    1   DCL NUMDEVS UBIN WORD;
     5621      864    1   DCL CURVAL SBIN WORD;
     5622      865    1   DCL CURVALM1 UBIN WORD;
     5623      866    1   DCL BAD_DAYS SBIN WORD;
     5624      867    1   DCL BAD_COMPS UBIN WORD;
     5625      868    1   DCL AMS_FMT CHAR(0) CONSTANT INIT(
     5626      869    1   '%4A performance for last %2P%D days %3P%T is below current %T threshold %T%10P');
     5627      870    1   DCL BLANK_LINE CHAR(0) CONSTANT INIT('%10P');
     5628      871    1  DCL NO_ERRORS CHAR(0) CONSTANT INIT('No components exceeded current thresholds %10P'
               871            );
     5629      872    1   DCL ZERO CHAR(8) STATIC INIT('0       ');
     5630      873    1   DCL ONE CHAR(8) STATIC INIT('1       ');
     5631      874    1   DCL TEMP_UTS UBIN;
     5632      875        /**/
     5633      876        /* MACRO INVOCATIONS */
     5634      877        %TD$HEAD (NAME=TH$HEAD,NUMDEV#=200);
     5635      913        %TD$HEAD (NAME=TH_HEAD,STCLASS=AUTO,NUMDEV#=200);
     5636      949        %TH$THRESH (NAME=TH$THRESH,NUMDEV#=200);
     5637      955        %TH$THRESH (NAME=TH_THRESH,STCLASS=AUTO,NUMDEV#=200);
     5638      961        %TH$DEV (NAME=DEVREC,STCLASS=AUTO);
PL6.E3A0      #007=THF$AMS File=THF$FORMAT.:E05TSI                               WED 07/30/97 06:18 Page:1085
     5639      982        %TH$DEV (NAME=TH$DEV);
     5640     1003        %TH$IOM (NAME=TH$IOM);
     5641     1014        %TH$IOM (NAME=IOMREC,STCLASS=AUTO);
     5642     1025        %TH$MPC (NAME=TH$MPC,NUMDEV#=32);
     5643     1046        %TH$MPC (NAME=MPCREC,STCLASS=AUTO,NUMDEV#=32);
     5644     1067        %XUD$UTS_ENTRIES;
     5645     1099        %XUD_UTS_EQU;
     5646     1110        /**/
     5647     1111        /* FPTS */
     5648     1112        %FPT_TIME (FPTN=CUR_UTS,
     5649     1113                   STCLASS=CONSTANT,
     5650     1114                   SOURCE=CLOCK,
     5651     1115                   DEST=UTS,
     5652     1116                   TSTAMP=CURUTS);
     5653     1135        /**/
     5654     1136        %EJECT;
PL6.E3A0      #007=THF$AMS File=THF$FORMAT.:E05TSI                               WED 07/30/97 06:18 Page:1086
     5655     1137    1        CALL M$TIME(CUR_UTS);

   1137  3 000002   000042 630400 2                  EPPR0   CUR_UTS
         3 000003   020004 713400                    CLIMB   8196
         3 000004   402000 401760                    pmme    nvectors=5

     5656     1138    1        CALL XUD$UTS_DIFF_SEC (CURUTS, CURUTS, 0);

   1138  3 000005   000000 630400 4                  EPPR0   0
         3 000006   000021 631400 xsym               EPPR1   B_VECTNIL+17
         3 000007   000000 701000 xent               TSX1    XUD$UTS_DIFF_SEC
         3 000010   000000 011000                    NOP     0

     5657     1139    1        CURUTS = CURUTS / 86400;

   1139  3 000011   000000 236000 1                  LDQ     CURUTS
         3 000012   000001 772000                    QRL     1
         3 000013   124300 506007                    DIV     43200,DL
         3 000014   000000 756000 1                  STQ     CURUTS

     5658     1140    1        CALL XUD$UTS_ADJ_25TH (CURUTS, 0, CURUTS * %UTS_25TH_DAY#);

   1140  3 000015   000003 402000 4                  MPY     3
         3 000016   203330 756100                    STQ     MPCREC+83,,AUTO
         3 000017   203330 630500                    EPPR0   MPCREC+83,,AUTO
         3 000020   203333 450500                    STP0    MPCREC+86,,AUTO
         3 000021   000002 236000 4                  LDQ     2
         3 000022   203332 756100                    STQ     MPCREC+85,,AUTO
         3 000023   000000 236000 4                  LDQ     0
         3 000024   203331 756100                    STQ     MPCREC+84,,AUTO
         3 000025   203331 630500                    EPPR0   MPCREC+84,,AUTO
         3 000026   000021 631400 xsym               EPPR1   B_VECTNIL+17
         3 000027   000000 701000 xent               TSX1    XUD$UTS_ADJ_25TH
         3 000030   000000 011000                    NOP     0

     5659     1141    1        CALL THG$GETREC(%DEVHIST,ZERO);    /* HEAD RECORD                        */

PL6.E3A0      #007=THF$AMS File=THF$FORMAT.:E05TSI                               WED 07/30/97 06:18 Page:1087
   1141  3 000031   000004 630400 4                  EPPR0   4
         3 000032   000020 631400 xsym               EPPR1   B_VECTNIL+16
         3 000033   000000 701000 xent               TSX1    THG$GETREC
         3 000034   000000 011000                    NOP     0

     5660     1142    1        TH_HEAD = TH_RECORD.PTR$->TH$HEAD;

   1142  3 000035   000001 470400 xsym               LDP0    TH_RECORD+1
         3 000036   000100 100500                    MLR     fill='000'O
         3 000037   000000 003210                    ADSC9   0,,PR0                   cn=0,n=1672
         3 000040   200234 003210                    ADSC9   TH_HEAD,,AUTO            cn=0,n=1672

     5661     1143    1        CALL THG$GETREC(%DEVHIST,ONE);     /* THRESH RECORD                      */

   1143  3 000041   000006 630400 4                  EPPR0   6
         3 000042   000020 631400 xsym               EPPR1   B_VECTNIL+16
         3 000043   000000 701000 xent               TSX1    THG$GETREC
         3 000044   000000 011000                    NOP     0

     5662     1144    1        TH_THRESH = TH_RECORD.PTR$->TH$THRESH;

   1144  3 000045   000001 470400 xsym               LDP0    TH_RECORD+1
         3 000046   000100 100500                    MLR     fill='000'O
         3 000047   000000 006220                    ADSC9   0,,PR0                   cn=0,n=3216
         3 000050   201076 006220                    ADSC9   TH_THRESH,,AUTO          cn=0,n=3216

     5663     1145
     5664     1146    1        NUMDEVS = TH_HEAD.XX_INDX + TH_HEAD.NUMXXS;

   1146  3 000051   200251 236100                    LDQ     TH_HEAD+13,,AUTO
         3 000052   777777 376007                    ANQ     -1,DL
         3 000053   203330 756100                    STQ     MPCREC+83,,AUTO
         3 000054   200251 236100                    LDQ     TH_HEAD+13,,AUTO
         3 000055   000022 772000                    QRL     18
         3 000056   203330 036100                    ADLQ    MPCREC+83,,AUTO
         3 000057   200226 756100                    STQ     NUMDEVS,,AUTO

PL6.E3A0      #007=THF$AMS File=THF$FORMAT.:E05TSI                               WED 07/30/97 06:18 Page:1088
     5665     1147
     5666     1148    1        BAD_COMPS = 0;

   1148  3 000060   200232 450100                    STZ     BAD_COMPS,,AUTO

     5667     1149    1        LAST_CLASS = ' ';

   1149  3 000061   000010 236000 4                  LDQ     8
         3 000062   200121 756100                    STQ     LAST_CLASS,,AUTO

     5668     1150    1        TH_SAVE = TH_CONSTRAINTS;

   1150  3 000063   000000 100400                    MLR     fill='000'O
         3 000064   000000 000333 xsym               ADSC9   TH_CONSTRAINTS           cn=0,n=219
         3 000065   000000 000333 xsym               ADSC9   TH_SAVE                  cn=0,n=219

     5669     1151    1        CALL THE$PROCESS;

   1151  3 000066   000002 631400 xsym               EPPR1   B_VECTNIL+2
         3 000067   000000 701000 xent               TSX1    THE$PROCESS
         3 000070   000000 011000                    NOP     0

     5670     1152    1        TH_CONSTRAINTS = TH_SAVE;

   1152  3 000071   000000 100400                    MLR     fill='000'O
         3 000072   000000 000333 xsym               ADSC9   TH_SAVE                  cn=0,n=219
         3 000073   000000 000333 xsym               ADSC9   TH_CONSTRAINTS           cn=0,n=219

     5671     1153    2        DO I = 0 TO NUMDEVS - 1;

   1153  3 000074   200005 450100                    STZ     I,,AUTO
         3 000075   000652 710000 3                  TRA     ENDLOOP+3

     5672     1154    2           ATTEN_FLAG = %FALSE;

   1154  3 000076   200012 450100                    STZ     ATTEN_FLAG,,AUTO

PL6.E3A0      #007=THF$AMS File=THF$FORMAT.:E05TSI                               WED 07/30/97 06:18 Page:1089
     5673     1155    2           ALERT_FLAG = %FALSE;

   1155  3 000077   200013 450100                    STZ     ALERT_FLAG,,AUTO

     5674     1156    2           UTS = CURUTS;

   1156  3 000100   000000 235000 1                  LDA     CURUTS
         3 000101   200225 755100                    STA     UTS,,AUTO

     5675     1157    2           COUNT = 0;

   1157  3 000102   200010 450100                    STZ     COUNT,,AUTO

     5676     1158    2           CONNECTS = 0;

   1158  3 000103   200011 450100                    STZ     CONNECTS,,AUTO

     5677     1159    2           CURVAL = 10000;

   1159  3 000104   023420 236007                    LDQ     10000,DL
         3 000105   200227 756100                    STQ     CURVAL,,AUTO

     5678     1160    2           BAD_DAYS = 0;

   1160  3 000106   200231 450100                    STZ     BAD_DAYS,,AUTO

     5679     1161    2           CALL XUD$UTS_ADJ_25TH (TEMP_UTS, UTS, 15*%UTS_25TH_DAY#);

   1161  3 000107   000012 236000 4                  LDQ     10
         3 000110   203332 756100                    STQ     MPCREC+85,,AUTO
         3 000111   200225 630500                    EPPR0   UTS,,AUTO
         3 000112   203331 450500                    STP0    MPCREC+84,,AUTO
         3 000113   200233 631500                    EPPR1   TEMP_UTS,,AUTO
         3 000114   203330 451500                    STP1    MPCREC+83,,AUTO
         3 000115   203330 630500                    EPPR0   MPCREC+83,,AUTO
         3 000116   000021 631400 xsym               EPPR1   B_VECTNIL+17
         3 000117   000000 701000 xent               TSX1    XUD$UTS_ADJ_25TH
PL6.E3A0      #007=THF$AMS File=THF$FORMAT.:E05TSI                               WED 07/30/97 06:18 Page:1090
         3 000120   000000 011000                    NOP     0

     5680     1162    3           DO UNTIL(CURVAL >= TH_THRESH.ATTEN(I) OR TEMP_UTS = CURUTS);

     5681     1163    3              CURVALM1 = CURVAL;

   1163  3 000121   200227 235100                    LDA     CURVAL,,AUTO
         3 000122   200230 755100                    STA     CURVALM1,,AUTO

     5682     1164    3              CALL THG$GETREC(%DEVHIST,TH_HEAD.DEVNAME(I),UTS) ALTRET(NOT_THERE);

   1164  3 000123   200225 630500                    EPPR0   UTS,,AUTO
         3 000124   203332 450500                    STP0    MPCREC+85,,AUTO
         3 000125   200005 236100                    LDQ     I,,AUTO
         3 000126   000001 736000                    QLS     1
         3 000127   200254 631506                    EPPR1   TH_HEAD+16,QL,AUTO
         3 000130   203331 451500                    STP1    MPCREC+84,,AUTO
         3 000131   000004 236000 4                  LDQ     4
         3 000132   203330 756100                    STQ     MPCREC+83,,AUTO
         3 000133   203330 630500                    EPPR0   MPCREC+83,,AUTO
         3 000134   000021 631400 xsym               EPPR1   B_VECTNIL+17
         3 000135   000000 701000 xent               TSX1    THG$GETREC
         3 000136   000273 702000 3                  TSX2    NOT_THERE

     5683     1165    3              IF (SUBSTR(TH_HEAD.DEVNAME(I),0,2) = 'UC') OR

   1165  3 000137   200005 235100                    LDA     I,,AUTO
         3 000140   000001 735000                    ALS     1
         3 000141   200254 220105                    LDX0    TH_HEAD+16,AL,AUTO
         3 000142   000056 100000 2                  CMPX0   CUR_UTS+12
         3 000143   000150 600000 3                  TZE     s:1170
         3 000144   000057 100000 2                  CMPX0   CUR_UTS+13
         3 000145   000150 600000 3                  TZE     s:1170
         3 000146   000060 100000 2                  CMPX0   CUR_UTS+14
         3 000147   000163 601000 3                  TNZ     s:1175

     5684     1166    3                 (SUBSTR(TH_HEAD.DEVNAME(I),0,2) = 'TC') OR
PL6.E3A0      #007=THF$AMS File=THF$FORMAT.:E05TSI                               WED 07/30/97 06:18 Page:1091
     5685     1167    3                 (SUBSTR(TH_HEAD.DEVNAME(I),0,2) = 'DC')
     5686     1168    3                 THEN                      /* MPC RECORD                         */
     5687     1169    4                 DO;

     5688     1170    4                    MPCREC = TH_RECORD.PTR$->TH$MPC;

   1170  3 000150   000001 470400 xsym               LDP0    TH_RECORD+1
         3 000151   000100 100500                    MLR     fill='000'O
         3 000152   000000 000510                    ADSC9   0,,PR0                   cn=0,n=328
         3 000153   203205 000510                    ADSC9   MPCREC,,AUTO             cn=0,n=328

     5689     1171    4                    COUNT = COUNT + MPCREC.COUNT;

   1171  3 000154   200010 236100                    LDQ     COUNT,,AUTO
         3 000155   203205 036100                    ADLQ    MPCREC,,AUTO
         3 000156   200010 756100                    STQ     COUNT,,AUTO

     5690     1172    4                    CONNECTS = CONNECTS + MPCREC.CONNECTS;

   1172  3 000157   200011 236100                    LDQ     CONNECTS,,AUTO
         3 000160   203206 036100                    ADLQ    MPCREC+1,,AUTO
         3 000161   200011 756100                    STQ     CONNECTS,,AUTO

     5691     1173    4                 END;

   1173  3 000162   000235 710000 3                  TRA     s:1197

     5692     1174    3                 ELSE
     5693     1175    3              IF SUBSTR(TH_HEAD.DEVNAME(I),0,3) = 'IOM'

   1175  3 000163   200254 236105                    LDQ     TH_HEAD+16,AL,AUTO
         3 000164   000061 676000 2                  ERQ     CUR_UTS+15
         3 000165   000013 376000 4                  ANQ     11
         3 000166   000202 601000 3                  TNZ     s:1183

     5694     1176    3                 THEN                      /* IOM RECORD                         */
     5695     1177    4                 DO;
PL6.E3A0      #007=THF$AMS File=THF$FORMAT.:E05TSI                               WED 07/30/97 06:18 Page:1092

     5696     1178    4                    IOMREC = TH_RECORD.PTR$->TH$IOM;

   1178  3 000167   000001 470400 xsym               LDP0    TH_RECORD+1
         3 000170   000100 100500                    MLR     fill='000'O
         3 000171   000000 002060                    ADSC9   0,,PR0                   cn=0,n=1072
         3 000172   202571 002060                    ADSC9   IOMREC,,AUTO             cn=0,n=1072

     5697     1179    4                    COUNT = COUNT + IOMREC.COUNT;

   1179  3 000173   200010 236100                    LDQ     COUNT,,AUTO
         3 000174   203204 036100                    ADLQ    IOMREC+267,,AUTO
         3 000175   200010 756100                    STQ     COUNT,,AUTO

     5698     1180    4                    CONNECTS = CONNECTS + IOMREC.CONNECTS;

   1180  3 000176   200011 236100                    LDQ     CONNECTS,,AUTO
         3 000177   203203 036100                    ADLQ    IOMREC+266,,AUTO
         3 000200   200011 756100                    STQ     CONNECTS,,AUTO

     5699     1181    4                 END;

   1181  3 000201   000235 710000 3                  TRA     s:1197

     5700     1182    3                 ELSE
     5701     1183    3              IF SUBSTR(TH_HEAD.DEVNAME(I),0,3) = 'FEP'

   1183  3 000202   200254 236105                    LDQ     TH_HEAD+16,AL,AUTO
         3 000203   000062 676000 2                  ERQ     CUR_UTS+16
         3 000204   000013 376000 4                  ANQ     11
         3 000205   000207 601000 3                  TNZ     s:1191

     5702     1184    3                 THEN
     5703     1185    4                 DO;

     5704     1186                         /* UNIMPLIMENTED AS YET */
     5705     1187    4                    GOTO ENDLOOP;
PL6.E3A0      #007=THF$AMS File=THF$FORMAT.:E05TSI                               WED 07/30/97 06:18 Page:1093

   1187  3 000206   000647 710000 3                  TRA     ENDLOOP

     5706     1188    4                 END;
     5707     1189    3                 ELSE                      /* DEVICE RECORD                      */
     5708     1190    4                 DO;

     5709     1191    4                    DEVREC = TH_RECORD.PTR$->TH$DEV;

   1191  3 000207   000001 470400 xsym               LDP0    TH_RECORD+1
         3 000210   000100 100500                    MLR     fill='000'O
         3 000211   000000 000134                    ADSC9   0,,PR0                   cn=0,n=92
         3 000212   202542 000134                    ADSC9   DEVREC,,AUTO             cn=0,n=92

     5710     1192    5                    DO K = 10 TO 20;

   1192  3 000213   000012 236007                    LDQ     10,DL
         3 000214   200007 756100                    STQ     K,,AUTO

     5711     1193    5                       COUNT = COUNT + DEVREC.COUNT(K);

   1193  3 000215   200007 235100                    LDA     K,,AUTO
         3 000216   000001 735000                    ALS     1
         3 000217   000100 101505                    MRL     fill='000'O
         3 000220   202553 000002                    ADSC9   DEVREC+9,A,AUTO          cn=0,n=2
         3 000221   203330 000004                    ADSC9   MPCREC+83,,AUTO          cn=0,n=4
         3 000222   203330 236100                    LDQ     MPCREC+83,,AUTO
         3 000223   200010 036100                    ADLQ    COUNT,,AUTO
         3 000224   200010 756100                    STQ     COUNT,,AUTO

     5712     1194    5                    END;                   /* DO K                               */

   1194  3 000225   200007 235100                    LDA     K,,AUTO
         3 000226   000001 035007                    ADLA    1,DL
         3 000227   200007 755100                    STA     K,,AUTO
         3 000230   000025 115007                    CMPA    21,DL
         3 000231   000215 602000 3                  TNC     s:1193
PL6.E3A0      #007=THF$AMS File=THF$FORMAT.:E05TSI                               WED 07/30/97 06:18 Page:1094

     5713     1195    4                    CONNECTS = CONNECTS + DEVREC.CONNECTS;

   1195  3 000232   200011 236100                    LDQ     CONNECTS,,AUTO
         3 000233   202570 036100                    ADLQ    DEVREC+22,,AUTO
         3 000234   200011 756100                    STQ     CONNECTS,,AUTO

     5714     1196    4                 END;

     5715     1197    3              CALL THP$STATS(COUNT,CONNECTS,CURVAL);

   1197  3 000235   200227 630500                    EPPR0   CURVAL,,AUTO
         3 000236   203332 450500                    STP0    MPCREC+85,,AUTO
         3 000237   200011 631500                    EPPR1   CONNECTS,,AUTO
         3 000240   203331 451500                    STP1    MPCREC+84,,AUTO
         3 000241   200010 633500                    EPPR3   COUNT,,AUTO
         3 000242   203330 453500                    STP3    MPCREC+83,,AUTO
         3 000243   203330 630500                    EPPR0   MPCREC+83,,AUTO
         3 000244   000021 631400 xsym               EPPR1   B_VECTNIL+17
         3 000245   000000 701000 xent               TSX1    THP$STATS
         3 000246   000000 011000                    NOP     0

     5716     1198    3              IF CURVAL = 10000 THEN;

   1198  3 000247   200227 235100                    LDA     CURVAL,,AUTO
         3 000250   023420 115007                    CMPA    10000,DL
         3 000251   000273 600000 3                  TZE     NOT_THERE

     5717     1199    4              ELSE IF CURVAL < TH_THRESH.ATTEN(I) THEN DO;

   1199  3 000252   200005 236100                    LDQ     I,,AUTO
         3 000253   000002 736000                    QLS     2
         3 000254   000000 620006                    EAX0    0,QL
         3 000255   200227 236100                    LDQ     CURVAL,,AUTO
         3 000256   201100 116110                    CMPQ    TH_THRESH+2,X0,AUTO
         3 000257   000273 605000 3                  TPL     NOT_THERE

PL6.E3A0      #007=THF$AMS File=THF$FORMAT.:E05TSI                               WED 07/30/97 06:18 Page:1095
     5718     1200    4                 BAD_DAYS = BAD_DAYS + 1;

   1200  3 000260   200231 054100                    AOS     BAD_DAYS,,AUTO

     5719     1201    5                 IF CURVAL < TH_THRESH.ALERT(I) THEN DO;

   1201  3 000261   201101 116110                    CMPQ    TH_THRESH+3,X0,AUTO
         3 000262   000270 605000 3                  TPL     s:1205

     5720     1202    5                    IF NOT ATTEN_FLAG THEN ALERT_FLAG = %TRUE;

   1202  3 000263   200012 234100                    SZN     ATTEN_FLAG,,AUTO
         3 000264   000273 604000 3                  TMI     NOT_THERE

   1202  3 000265   400000 236003                    LDQ     -131072,DU
         3 000266   200013 756100                    STQ     ALERT_FLAG,,AUTO

     5721     1203    5                    END;  /* IF CURVAL < ALERT */

   1203  3 000267   000273 710000 3                  TRA     NOT_THERE

     5722     1204    5                    ELSE DO;

     5723     1205    5                       ATTEN_FLAG = %TRUE;

   1205  3 000270   400000 236003                    LDQ     -131072,DU
         3 000271   200012 756100                    STQ     ATTEN_FLAG,,AUTO

     5724     1206    5                       ALERT_FLAG = %FALSE;

   1206  3 000272   200013 450100                    STZ     ALERT_FLAG,,AUTO

     5725     1207    5                       END;  /* ELSE */

     5726     1208    4                 END;  /* IF CURVAL < ATTEN */

     5727     1209    3   NOT_THERE:
PL6.E3A0      #007=THF$AMS File=THF$FORMAT.:E05TSI                               WED 07/30/97 06:18 Page:1096
     5728     1210    3              CALL XUD$UTS_ADJ_25TH (UTS, UTS, -%UTS_25TH_DAY#);

   1210  3 000273   000015 236000 4     NOT_THERE    LDQ     13
         3 000274   203332 756100                    STQ     MPCREC+85,,AUTO
         3 000275   200225 630500                    EPPR0   UTS,,AUTO
         3 000276   203331 450500                    STP0    MPCREC+84,,AUTO
         3 000277   200225 631500                    EPPR1   UTS,,AUTO
         3 000300   203330 451500                    STP1    MPCREC+83,,AUTO
         3 000301   203330 630500                    EPPR0   MPCREC+83,,AUTO
         3 000302   000021 631400 xsym               EPPR1   B_VECTNIL+17
         3 000303   000000 701000 xent               TSX1    XUD$UTS_ADJ_25TH
         3 000304   000000 011000                    NOP     0

     5729     1211    3              CALL XUD$UTS_ADJ_25TH(TEMP_UTS,UTS,15*%UTS_25TH_DAY#);

   1211  3 000305   000012 236000 4                  LDQ     10
         3 000306   203332 756100                    STQ     MPCREC+85,,AUTO
         3 000307   200225 630500                    EPPR0   UTS,,AUTO
         3 000310   203331 450500                    STP0    MPCREC+84,,AUTO
         3 000311   200233 631500                    EPPR1   TEMP_UTS,,AUTO
         3 000312   203330 451500                    STP1    MPCREC+83,,AUTO
         3 000313   203330 630500                    EPPR0   MPCREC+83,,AUTO
         3 000314   000021 631400 xsym               EPPR1   B_VECTNIL+17
         3 000315   000000 701000 xent               TSX1    XUD$UTS_ADJ_25TH
         3 000316   000000 011000                    NOP     0

     5730     1212    3           END;                            /* DO UNTIL                           */

   1212  3 000317   200005 235100                    LDA     I,,AUTO
         3 000320   000002 735000                    ALS     2
         3 000321   200227 236100                    LDQ     CURVAL,,AUTO
         3 000322   201100 116105                    CMPQ    TH_THRESH+2,AL,AUTO
         3 000323   000327 605000 3                  TPL     s:1213
         3 000324   200233 236100                    LDQ     TEMP_UTS,,AUTO
         3 000325   000000 116000 1                  CMPQ    CURUTS
         3 000326   000121 601000 3                  TNZ     s:1163

PL6.E3A0      #007=THF$AMS File=THF$FORMAT.:E05TSI                               WED 07/30/97 06:18 Page:1097
     5731     1213    2           CURVAL = CURVALM1;

   1213  3 000327   200230 236100                    LDQ     CURVALM1,,AUTO
         3 000330   200227 756100                    STQ     CURVAL,,AUTO

     5732     1214    2           IF BAD_DAYS > 0

   1214  3 000331   200231 235100                    LDA     BAD_DAYS,,AUTO
         3 000332   000647 604400 3                  TMOZ    ENDLOOP

     5733     1215    2              THEN                         /* OUTPUT ONE-LINER                   */
     5734     1216    3              DO;

     5735     1217    3                 IF SUBSTR(TH_HEAD.DEVNAME(I),0,3) ~= LAST_CLASS AND BAD_COMPS > 0

   1217  3 000333   200005 235100                    LDA     I,,AUTO
         3 000334   000001 735000                    ALS     1
         3 000335   200254 236105                    LDQ     TH_HEAD+16,AL,AUTO
         3 000336   200121 676100                    ERQ     LAST_CLASS,,AUTO
         3 000337   000013 376000 4                  ANQ     11
         3 000340   000355 600000 3                  TZE     s:1223
         3 000341   200232 236100                    LDQ     BAD_COMPS,,AUTO
         3 000342   000355 600000 3                  TZE     s:1223

     5736     1218    3                    THEN
     5737     1219    4                    DO;

     5738     1220    4                       CALL THW$WRITE(VECTOR(BLANK_LINE));

   1220  3 000343   000020 630400 4                  EPPR0   16
         3 000344   000017 631400 xsym               EPPR1   B_VECTNIL+15
         3 000345   000000 701000 xent               TSX1    THW$WRITE
         3 000346   000000 011000                    NOP     0

     5739     1221    4                       LAST_CLASS = SUBSTR(TH_HEAD.DEVNAME(I),0,3);

   1221  3 000347   200005 235100                    LDA     I,,AUTO
PL6.E3A0      #007=THF$AMS File=THF$FORMAT.:E05TSI                               WED 07/30/97 06:18 Page:1098
         3 000350   000001 735000                    ALS     1
         3 000351   200254 236105                    LDQ     TH_HEAD+16,AL,AUTO
         3 000352   000013 376000 4                  ANQ     11
         3 000353   000040 276007                    ORQ     32,DL
         3 000354   200121 756100                    STQ     LAST_CLASS,,AUTO

     5740     1222    4                    END;  /* IF */

     5741     1223    3                 TEXT$ = ADDR(TEXTBUF);

   1223  3 000355   200124 630500                    EPPR0   TEXTBUF,,AUTO
         3 000356   200224 450500                    STP0    TEXT$,,AUTO

     5742     1224    3                 STRT = 0;

   1224  3 000357   200020 450100                    STZ     STRT,,AUTO

     5743     1225    3                 INT_PART = CURVAL/100;

   1225  3 000360   200227 236100                    LDQ     CURVAL,,AUTO
         3 000361   000144 506007                    DIV     100,DL
         3 000362   200016 756100                    STQ     INT_PART,,AUTO

     5744     1226    3                 FRACT_PART = MOD(CURVAL,100);

   1226  3 000363   200227 236100                    LDQ     CURVAL,,AUTO
         3 000364   000144 506007                    DIV     100,DL
         3 000365   200017 755100                    STA     FRACT_PART,,AUTO

     5745     1227    3                 CALL BINCHAR(TEMP,INT_PART);

   1227  3 000366   200016 236100                    LDQ     INT_PART,,AUTO
         3 000367   000000 235003                    LDA     0,DU
         3 000370   203330 757100                    STAQ    MPCREC+83,,AUTO
         3 000371   000100 301500                    BTD
         3 000372   203330 000010                    NDSC9   MPCREC+83,,AUTO          cn=0,s=lsgnf,sf=0,n=8
         3 000373   200014 030002                    NDSC9   TEMP,,AUTO               cn=0,s=nosgn,sf=0,n=2
PL6.E3A0      #007=THF$AMS File=THF$FORMAT.:E05TSI                               WED 07/30/97 06:18 Page:1099

     5746     1228    3                 CALL INSERT(BUF,STRT,5,'(%',TEMP,'.');

   1228  3 000374   200020 236100                    LDQ     STRT,,AUTO
         3 000375   040106 100400                    MLR     fill='040'O
         3 000376   000063 000002 2                  ADSC9   CUR_UTS+17               cn=0,n=2
         3 000377   200021 000002                    ADSC9   BUF,Q,AUTO               cn=0,n=2
         3 000400   200020 236100                    LDQ     STRT,,AUTO
         3 000401   040106 100500                    MLR     fill='040'O
         3 000402   200014 000002                    ADSC9   TEMP,,AUTO               cn=0,n=2
         3 000403   200021 400002                    ADSC9   BUF,Q,AUTO               cn=2,n=2
         3 000404   200020 236100                    LDQ     STRT,,AUTO
         3 000405   040106 100400                    MLR     fill='040'O
         3 000406   000021 000001 4                  ADSC9   17                       cn=0,n=1
         3 000407   200022 000001                    ADSC9   BUF+1,Q,AUTO             cn=0,n=1

     5747     1229    3                 STRT = STRT + 5;

   1229  3 000410   200020 235100                    LDA     STRT,,AUTO
         3 000411   000005 035007                    ADLA    5,DL
         3 000412   200020 755100                    STA     STRT,,AUTO

     5748     1230    3                 CALL BINCHAR(TEMP,FRACT_PART);

   1230  3 000413   000100 301500                    BTD
         3 000414   200017 000004                    NDSC9   FRACT_PART,,AUTO         cn=0,s=lsgnf,sf=0,n=4
         3 000415   200014 030002                    NDSC9   TEMP,,AUTO               cn=0,s=nosgn,sf=0,n=2

     5749     1231    3                 CALL INSERT(BUF,STRT,3,TEMP,')');

   1231  3 000416   040105 100500                    MLR     fill='040'O
         3 000417   200014 000002                    ADSC9   TEMP,,AUTO               cn=0,n=2
         3 000420   200021 000002                    ADSC9   BUF,A,AUTO               cn=0,n=2
         3 000421   200020 235100                    LDA     STRT,,AUTO
         3 000422   040105 100400                    MLR     fill='040'O
         3 000423   000022 000001 4                  ADSC9   18                       cn=0,n=1
         3 000424   200021 400001                    ADSC9   BUF,A,AUTO               cn=2,n=1
PL6.E3A0      #007=THF$AMS File=THF$FORMAT.:E05TSI                               WED 07/30/97 06:18 Page:1100

     5750     1232    3                 STRT = STRT + 3;

   1232  3 000425   200020 235100                    LDA     STRT,,AUTO
         3 000426   000003 035007                    ADLA    3,DL
         3 000427   200020 755100                    STA     STRT,,AUTO

     5751     1233    3                 CALL THF$ADD_TEXTC(TEXT$,BUF,STRT);

   1233  3 000430   200020 630500                    EPPR0   STRT,,AUTO
         3 000431   203332 450500                    STP0    MPCREC+85,,AUTO
         3 000432   200021 631500                    EPPR1   BUF,,AUTO
         3 000433   203331 451500                    STP1    MPCREC+84,,AUTO
         3 000434   200224 633500                    EPPR3   TEXT$,,AUTO
         3 000435   203330 453500                    STP3    MPCREC+83,,AUTO
         3 000436   203330 630500                    EPPR0   MPCREC+83,,AUTO
         3 000437   000021 631400 xsym               EPPR1   B_VECTNIL+17
         3 000440   000000 701000 xent               TSX1    THF$ADD_TEXTC
         3 000441   000000 011000                    NOP     0

     5752     1234    3                 STRT = 0;

   1234  3 000442   200020 450100                    STZ     STRT,,AUTO

     5753     1235    4                 IF ATTEN_FLAG THEN DO;

   1235  3 000443   200012 234100                    SZN     ATTEN_FLAG,,AUTO
         3 000444   000464 605000 3                  TPL     s:1240

     5754     1236    4                    CALL THF$ADD_TEXTC(TEXT$,'ATTEN',5);

   1236  3 000445   000023 236000 4                  LDQ     19
         3 000446   203332 756100                    STQ     MPCREC+85,,AUTO
         3 000447   000024 236000 4                  LDQ     20
         3 000450   203331 756100                    STQ     MPCREC+84,,AUTO
         3 000451   200224 630500                    EPPR0   TEXT$,,AUTO
         3 000452   203330 450500                    STP0    MPCREC+83,,AUTO
PL6.E3A0      #007=THF$AMS File=THF$FORMAT.:E05TSI                               WED 07/30/97 06:18 Page:1101
         3 000453   203330 630500                    EPPR0   MPCREC+83,,AUTO
         3 000454   000021 631400 xsym               EPPR1   B_VECTNIL+17
         3 000455   000000 701000 xent               TSX1    THF$ADD_TEXTC
         3 000456   000000 011000                    NOP     0

     5755     1237    4                    VALUE = TH_THRESH.ATTEN(I);

   1237  3 000457   200005 235100                    LDA     I,,AUTO
         3 000460   000002 735000                    ALS     2
         3 000461   201100 235105                    LDA     TH_THRESH+2,AL,AUTO
         3 000462   200015 755100                    STA     VALUE,,AUTO

     5756     1238    4                    END;  /* IF ATTEN_FLAG */

   1238  3 000463   000504 710000 3                  TRA     s:1244

     5757     1239    3                    ELSE
     5758     1240    4                 IF ALERT_FLAG THEN DO;

   1240  3 000464   200013 234100                    SZN     ALERT_FLAG,,AUTO
         3 000465   000504 605000 3                  TPL     s:1244

     5759     1241    4                    CALL THF$ADD_TEXTC(TEXT$,'ALERT',5);

   1241  3 000466   000023 236000 4                  LDQ     19
         3 000467   203332 756100                    STQ     MPCREC+85,,AUTO
         3 000470   000025 236000 4                  LDQ     21
         3 000471   203331 756100                    STQ     MPCREC+84,,AUTO
         3 000472   200224 630500                    EPPR0   TEXT$,,AUTO
         3 000473   203330 450500                    STP0    MPCREC+83,,AUTO
         3 000474   203330 630500                    EPPR0   MPCREC+83,,AUTO
         3 000475   000021 631400 xsym               EPPR1   B_VECTNIL+17
         3 000476   000000 701000 xent               TSX1    THF$ADD_TEXTC
         3 000477   000000 011000                    NOP     0

     5760     1242    4                    VALUE = TH_THRESH.ALERT(I);

PL6.E3A0      #007=THF$AMS File=THF$FORMAT.:E05TSI                               WED 07/30/97 06:18 Page:1102
   1242  3 000500   200005 235100                    LDA     I,,AUTO
         3 000501   000002 735000                    ALS     2
         3 000502   201101 235105                    LDA     TH_THRESH+3,AL,AUTO
         3 000503   200015 755100                    STA     VALUE,,AUTO

     5761     1243    4                    END;  /* IF ALERT_FLAG */

     5762     1244    3                 INT_PART = VALUE/100;

   1244  3 000504   200015 236100                    LDQ     VALUE,,AUTO
         3 000505   000144 506007                    DIV     100,DL
         3 000506   200016 756100                    STQ     INT_PART,,AUTO

     5763     1245    3                 FRACT_PART = MOD(VALUE,100);

   1245  3 000507   200015 236100                    LDQ     VALUE,,AUTO
         3 000510   000144 506007                    DIV     100,DL
         3 000511   200017 755100                    STA     FRACT_PART,,AUTO

     5764     1246    3                 CALL BINCHAR(TEMP,INT_PART);

   1246  3 000512   200016 236100                    LDQ     INT_PART,,AUTO
         3 000513   000000 235003                    LDA     0,DU
         3 000514   203330 757100                    STAQ    MPCREC+83,,AUTO
         3 000515   000100 301500                    BTD
         3 000516   203330 000010                    NDSC9   MPCREC+83,,AUTO          cn=0,s=lsgnf,sf=0,n=8
         3 000517   200014 030002                    NDSC9   TEMP,,AUTO               cn=0,s=nosgn,sf=0,n=2

     5765     1247    3                 CALL INSERT(BUF,STRT,5,'(%',TEMP,'.');

   1247  3 000520   200020 236100                    LDQ     STRT,,AUTO
         3 000521   040106 100400                    MLR     fill='040'O
         3 000522   000063 000002 2                  ADSC9   CUR_UTS+17               cn=0,n=2
         3 000523   200021 000002                    ADSC9   BUF,Q,AUTO               cn=0,n=2
         3 000524   200020 236100                    LDQ     STRT,,AUTO
         3 000525   040106 100500                    MLR     fill='040'O
         3 000526   200014 000002                    ADSC9   TEMP,,AUTO               cn=0,n=2
PL6.E3A0      #007=THF$AMS File=THF$FORMAT.:E05TSI                               WED 07/30/97 06:18 Page:1103
         3 000527   200021 400002                    ADSC9   BUF,Q,AUTO               cn=2,n=2
         3 000530   200020 236100                    LDQ     STRT,,AUTO
         3 000531   040106 100400                    MLR     fill='040'O
         3 000532   000021 000001 4                  ADSC9   17                       cn=0,n=1
         3 000533   200022 000001                    ADSC9   BUF+1,Q,AUTO             cn=0,n=1

     5766     1248    3                 STRT = STRT + 5;

   1248  3 000534   200020 235100                    LDA     STRT,,AUTO
         3 000535   000005 035007                    ADLA    5,DL
         3 000536   200020 755100                    STA     STRT,,AUTO

     5767     1249    3                 CALL BINCHAR(TEMP,FRACT_PART);

   1249  3 000537   000100 301500                    BTD
         3 000540   200017 000004                    NDSC9   FRACT_PART,,AUTO         cn=0,s=lsgnf,sf=0,n=4
         3 000541   200014 030002                    NDSC9   TEMP,,AUTO               cn=0,s=nosgn,sf=0,n=2

     5768     1250    3                 CALL INSERT(BUF,STRT,3,TEMP,')');

   1250  3 000542   040105 100500                    MLR     fill='040'O
         3 000543   200014 000002                    ADSC9   TEMP,,AUTO               cn=0,n=2
         3 000544   200021 000002                    ADSC9   BUF,A,AUTO               cn=0,n=2
         3 000545   200020 235100                    LDA     STRT,,AUTO
         3 000546   040105 100400                    MLR     fill='040'O
         3 000547   000022 000001 4                  ADSC9   18                       cn=0,n=1
         3 000550   200021 400001                    ADSC9   BUF,A,AUTO               cn=2,n=1

     5769     1251    3                 STRT = STRT + 3;

   1251  3 000551   200020 235100                    LDA     STRT,,AUTO
         3 000552   000003 035007                    ADLA    3,DL
         3 000553   200020 755100                    STA     STRT,,AUTO

     5770     1252    3                 CALL THF$ADD_TEXTC(TEXT$,BUF,STRT);

   1252  3 000554   200020 630500                    EPPR0   STRT,,AUTO
PL6.E3A0      #007=THF$AMS File=THF$FORMAT.:E05TSI                               WED 07/30/97 06:18 Page:1104
         3 000555   203332 450500                    STP0    MPCREC+85,,AUTO
         3 000556   200021 631500                    EPPR1   BUF,,AUTO
         3 000557   203331 451500                    STP1    MPCREC+84,,AUTO
         3 000560   200224 633500                    EPPR3   TEXT$,,AUTO
         3 000561   203330 453500                    STP3    MPCREC+83,,AUTO
         3 000562   203330 630500                    EPPR0   MPCREC+83,,AUTO
         3 000563   000021 631400 xsym               EPPR1   B_VECTNIL+17
         3 000564   000000 701000 xent               TSX1    THF$ADD_TEXTC
         3 000565   000000 011000                    NOP     0

     5771     1253    3                 TVEC = VECTOR(TEXTBUF);

   1253  3 000566   000026 235000 4                  LDA     22
         3 000567   203330 452500                    STP2    MPCREC+83,,AUTO
         3 000570   203330 236100                    LDQ     MPCREC+83,,AUTO
         3 000571   000124 036003                    ADLQ    84,DU
         3 000572   200122 757100                    STAQ    TVEC,,AUTO

     5772     1254    3                 TVEC.BOUND = POFFC(TEXT$,ADDR(TEXTBUF)) - 1;

   1254  3 000573   203330 452500                    STP2    MPCREC+83,,AUTO
         3 000574   203330 236100                    LDQ     MPCREC+83,,AUTO
         3 000575   000124 036003                    ADLQ    84,DU
         3 000576   000020 772000                    QRL     16
         3 000577   203331 756100                    STQ     MPCREC+84,,AUTO
         3 000600   200224 236100                    LDQ     TEXT$,,AUTO
         3 000601   000020 772000                    QRL     16
         3 000602   203331 136100                    SBLQ    MPCREC+84,,AUTO
         3 000603   000001 136007                    SBLQ    1,DL
         3 000604   000020 736000                    QLS     16
         3 000605   200122 676100                    ERQ     TVEC,,AUTO
         3 000606   000034 376000 xsym               ANQ     B_VECTNIL+28
         3 000607   200122 656100                    ERSQ    TVEC,,AUTO

     5773     1255    3                 BAD_COMPS = BAD_COMPS + 1;

   1255  3 000610   200232 235100                    LDA     BAD_COMPS,,AUTO
PL6.E3A0      #007=THF$AMS File=THF$FORMAT.:E05TSI                               WED 07/30/97 06:18 Page:1105
         3 000611   000001 035007                    ADLA    1,DL
         3 000612   200232 755100                    STA     BAD_COMPS,,AUTO

     5774     1256    3                 CALL THW$WRITE(VECTOR(AMS_FMT),

   1256  3 000613   000027 235000 4                  LDA     23
         3 000614   203330 452500                    STP2    MPCREC+83,,AUTO
         3 000615   200005 236100                    LDQ     I,,AUTO
         3 000616   000023 736000                    QLS     19
         3 000617   000254 036003                    ADLQ    172,DU
         3 000620   203330 036100                    ADLQ    MPCREC+83,,AUTO
         3 000621   203332 757100                    STAQ    MPCREC+85,,AUTO
         3 000622   777640 235007                    LDA     -96,DL
         3 000623   203334 452500                    STP2    MPCREC+87,,AUTO
         3 000624   203334 236100                    LDQ     MPCREC+87,,AUTO
         3 000625   000231 036003                    ADLQ    153,DU
         3 000626   203340 757100                    STAQ    MPCREC+91,,AUTO
         3 000627   203332 237100                    LDAQ    MPCREC+85,,AUTO
         3 000630   203336 757100                    STAQ    MPCREC+89,,AUTO
         3 000631   203340 237100                    LDAQ    MPCREC+91,,AUTO
         3 000632   203342 757100                    STAQ    MPCREC+93,,AUTO
         3 000633   200122 630500                    EPPR0   TVEC,,AUTO
         3 000634   203347 450500                    STP0    MPCREC+98,,AUTO
         3 000635   203342 631500                    EPPR1   MPCREC+93,,AUTO
         3 000636   203346 451500                    STP1    MPCREC+97,,AUTO
         3 000637   203336 633500                    EPPR3   MPCREC+89,,AUTO
         3 000640   203345 453500                    STP3    MPCREC+96,,AUTO
         3 000641   000032 236000 4                  LDQ     26
         3 000642   203344 756100                    STQ     MPCREC+95,,AUTO
         3 000643   203344 630500                    EPPR0   MPCREC+95,,AUTO
         3 000644   000022 631400 xsym               EPPR1   B_VECTNIL+18
         3 000645   000000 701000 xent               TSX1    THW$WRITE
         3 000646   000000 011000                    NOP     0

     5775     1257    3                                VECTOR(TH_HEAD.DEVNAME(I)),
     5776     1258    3                                VECTOR(BAD_DAYS),
     5777     1259    3                                TVEC);
PL6.E3A0      #007=THF$AMS File=THF$FORMAT.:E05TSI                               WED 07/30/97 06:18 Page:1106
     5778     1260    3              END;                         /* IF BAD_DAYS > 0                    */

     5779     1261    2   ENDLOOP:
     5780     1262    2        END;                               /* DO I                               */

   1262  3 000647   200005 235100       ENDLOOP      LDA     I,,AUTO
         3 000650   000001 035007                    ADLA    1,DL
         3 000651   200005 755100                    STA     I,,AUTO
         3 000652   200005 236100                    LDQ     I,,AUTO
         3 000653   200226 116100                    CMPQ    NUMDEVS,,AUTO
         3 000654   000076 602000 3                  TNC     s:1154

     5781     1263    1        IF BAD_COMPS = 0

   1263  3 000655   200232 235100                    LDA     BAD_COMPS,,AUTO
         3 000656   000663 601000 3                  TNZ     s:1268

     5782     1264    1           THEN                            /* NO EXCEEDED THRESHOLDS             */
     5783     1265    2           DO;

     5784     1266    2              CALL THW$WRITE(VECTOR(NO_ERRORS));

   1266  3 000657   000036 630400 4                  EPPR0   30
         3 000660   000017 631400 xsym               EPPR1   B_VECTNIL+15
         3 000661   000000 701000 xent               TSX1    THW$WRITE
         3 000662   000000 011000                    NOP     0

     5785     1267    2           END;                            /* IF BAD_COMPS = 0                   */

     5786     1268    1   END THF$AMS;

   1268  3 000663   000000 702200 xent               TSX2  ! X66_ARET
     5787     1269        %EOD;

PL6.E3A0      #007=THF$AMS File=THF$FORMAT.:E05TSI                               WED 07/30/97 06:18 Page:1107
--  Include file information  --

   XUD_UTS_M.:E05TOU  is referenced.
   TD$STRUCT.:E05TOU  is referenced.
   TH$HIST.:E05TOU  is referenced.
   TH_DATA_R.:E05TOU  cannot be made into a system file and is referenced.
   B_STRINGS_C.:E05TOU  is referenced.
   TH_SUBS_C.:E05TOU  is referenced.
   CP_6.:E05TOU  cannot be made into a system file and is referenced.
   B$JIT_C.:E05TOU  was found in the system file and is never referenced.
   CP_6_C.:E05TOU  was found in the system file and is referenced.
      No diagnostics issued in procedure THF$AMS.
PL6.E3A0      #007=THF$AMS File=THF$FORMAT.:E05TSI                               WED 07/30/97 06:18 Page:1108

 **** Variables and constants ****

  ****  Section 001  Data  THF$AMS

  ****  Scalars and arrays  ****
OctLoc.c.b A Datatyp(siz) R M Lvl/name                 OctLoc.c.b A Datatyp(siz) R M Lvl/name

     0-0-0/w UBIN        r     1 CURUTS                     3-0-0/c CHAR(8)     r     1 ONE
     1-0-0/c CHAR(8)     r     1 ZERO

  ****  Section 002 RoData THF$AMS

  ****  Scalars and arrays  ****
OctLoc.c.b A Datatyp(siz) R M Lvl/name                 OctLoc.c.b A Datatyp(siz) R M Lvl/name

     0-0-0/c CHAR(78)    r     1 AMS_FMT                   24-0-0/c CHAR(4)     r     1 BLANK_LINE
    42-0-0/d STRC(432)   r     1 CUR_UTS                   25-0-0/c CHAR(46)    r     1 NO_ERRORS

  ****  Auto variables  ****

  ****  Scalars and arrays  ****
OctLoc.c.b A Datatyp(siz) R M Lvl/name                 OctLoc.c.b A Datatyp(siz) R M Lvl/name

    13-0-0/b BIT         r     1 ALERT_FLAG                12-0-0/b BIT         r     1 ATTEN_FLAG
   232-0-0/w UBIN        r     1 BAD_COMPS                231-0-0/w SBIN        r     1 BAD_DAYS
    21-0-0/c CHAR(256)   r     1 BUF                       11-0-0/w UBIN        r     1 CONNECTS
    10-0-0/w UBIN        r     1 COUNT                    227-0-0/w SBIN        r     1 CURVAL
   230-0-0/w UBIN        r     1 CURVALM1                2542-0-0/w STRC(828)   r     1 DEVREC
    17-0-0/w SBIN        r     1 FRACT_PART                 5-0-0/w UBIN        r     1 I
    16-0-0/w UBIN        r     1 INT_PART                2571-0-0/w STRC(9648)  r     1 IOMREC
     7-0-0/w UBIN        r     1 K                        121-0-0/c CHAR(3)     r     1 LAST_CLASS
  3205-0-0/w STRC(2952)  r     1 MPCREC                   226-0-0/w UBIN        r     1 NUMDEVS
    20-0-0/w UBIN        r     1 STRT                      14-0-0/c CHAR(2)     r     1 TEMP
   233-0-0/w UBIN        r     1 TEMP_UTS                 224-0-0/w PTR         r     1 TEXT$
   124-0-0/c CHAR(256)   r     1 TEXTBUF                  234-0-0/w STRC(15048) r     1 TH_HEAD
  1076-0-0/w STRC(144)   r     1 TH_THRESH(0:200)
   122-0-0/d STRC(72)    r     1 TVEC                     225-0-0/w UBIN        r     1 UTS
PL6.E3A0      #007=THF$AMS File=THF$FORMAT.:E05TSI                               WED 07/30/97 06:18 Page:1109
    15-0-0/w SBIN        r     1 VALUE

  ****  SYMREF variables  ****

  ****  Scalars and arrays  ****
OctLoc.c.b A Datatyp(siz) R M Lvl/name                 OctLoc.c.b A Datatyp(siz) R M Lvl/name

     0-0-0/d STRC(1971)  r     1 TH_CONSTRAINTS             0-0-0/d STRC(72)    r     1 TH_RECORD
     0-0-0/d STRC(1971)  r     1 TH_SAVE

  ****  BASED and DCB variables  ****

  ****  Scalars and arrays  ****
OctLoc.c.b A Datatyp(siz) R M Lvl/name                 OctLoc.c.b A Datatyp(siz) R M Lvl/name

     0-0-0/w STRC(828)   r     1 TH$DEV                     0-0-0/w STRC(15048) r     1 TH$HEAD
     0-0-0/w STRC(9648)  r     1 TH$IOM                     0-0-0/w STRC(2952)  r     1 TH$MPC
     0-0-0/w STRC(144)   r     1 TH$THRESH(0:200)


   Procedure THF$AMS requires 436 words for executable code.
   Procedure THF$AMS requires 1768 words of local(AUTO) storage.
PL6.E3A0      #007=THF$AMS File=THF$FORMAT.:E05TSI                               WED 07/30/97 06:18 Page:1110
          *** CROSS REFERENCE LISTING ***
**     DENOTES     IDENTIFIER DEFINITION
<<                 IDENTIFIER'S VALUE SET
>>                 IDENTIFIER'S VALUE USED
<>                 IDENTIFIER SET AND/OR USED
--                 IDENTIFIER REFERENCED
PL6.E3A0      #007=THF$AMS File=THF$FORMAT.:E05TSI                               WED 07/30/97 06:18 Page:1111
          MINI XREF LISTING

ALERT_FLAG
       847**DCL      1155<<ASSIGN   1202<<ASSIGN   1206<<ASSIGN   1240>>IF
AMS_FMT
       868**DCL      1256--CALL
ATTEN_FLAG
       846**DCL      1154<<ASSIGN   1202>>IF       1205<<ASSIGN   1235>>IF
BAD_COMPS
       867**DCL      1148<<ASSIGN   1217>>IF       1255<<ASSIGN   1255>>ASSIGN   1263>>IF
BAD_DAYS
       866**DCL      1160<<ASSIGN   1200<<ASSIGN   1200>>ASSIGN   1214>>IF       1256--CALL
BLANK_LINE
       870**DCL      1220--CALL
BUF
       853**DCL      1228<<CALLBLT  1231<<CALLBLT  1233<>CALL     1247<<CALLBLT  1250<<CALLBLT  1252<>CALL
CONNECTS
       845**DCL      1158<<ASSIGN   1172<<ASSIGN   1172>>ASSIGN   1180<<ASSIGN   1180>>ASSIGN   1195<<ASSIGN
      1195>>ASSIGN   1197<>CALL
COUNT
       844**DCL      1157<<ASSIGN   1171<<ASSIGN   1171>>ASSIGN   1179<<ASSIGN   1179>>ASSIGN   1193<<ASSIGN
      1193>>ASSIGN   1197<>CALL
CURUTS
       862**DCL      1131--DCLINIT  1138<>CALL     1138<>CALL     1139<<ASSIGN   1139>>ASSIGN   1140<>CALL
      1140>>CALL     1156>>ASSIGN   1162>>DOUNTIL
CURVAL
       864**DCL      1159<<ASSIGN   1162>>DOUNTIL  1163>>ASSIGN   1197<>CALL     1198>>IF       1199>>IF
      1201>>IF       1213<<ASSIGN   1225>>ASSIGN   1226>>ASSIGN
CURVALM1
       865**DCL      1163<<ASSIGN   1213>>ASSIGN
CUR_UTS
      1127**DCL      1137<>CALL
CUR_UTS.V
      1131**DCL      1127--DCLINIT
PL6.E3A0      #007=THF$AMS File=THF$FORMAT.:E05TSI                               WED 07/30/97 06:18 Page:1112
DEVREC
       962**DCL      1191<<ASSIGN
DEVREC.CONNECTS
       980**DCL      1195>>ASSIGN
DEVREC.COUNT
       979**DCL      1193>>ASSIGN
ENDLOOP
      1262**LABEL    1187--GOTO
FRACT_PART
       851**DCL      1226<<ASSIGN   1230>>CALLBLT  1245<<ASSIGN   1249>>CALLBLT
I
       841**DCL      1153<<DOINDEX  1162>>DOUNTIL  1164>>CALL     1165>>IF       1165>>IF       1165>>IF
      1175>>IF       1183>>IF       1199>>IF       1201>>IF       1217>>IF       1221>>ASSIGN   1237>>ASSIGN
      1242>>ASSIGN   1256>>CALL
INT_PART
       850**DCL      1225<<ASSIGN   1227>>CALLBLT  1244<<ASSIGN   1246>>CALLBLT
IOMREC
      1015**DCL      1178<<ASSIGN
IOMREC.CONNECTS
      1022**DCL      1180>>ASSIGN
IOMREC.COUNT
      1023**DCL      1179>>ASSIGN
K
       843**DCL      1192<<DOINDEX  1193>>ASSIGN
LAST_CLASS
       854**DCL      1149<<ASSIGN   1217>>IF       1221<<ASSIGN
M$TIME
        86**DCL-ENT  1137--CALL
MPCREC
      1047**DCL      1170<<ASSIGN
MPCREC.CONNECTS
      1049**DCL      1172>>ASSIGN
MPCREC.COUNT
      1048**DCL      1171>>ASSIGN
NOT_THERE
      1210**LABEL    1164--CALLALT
PL6.E3A0      #007=THF$AMS File=THF$FORMAT.:E05TSI                               WED 07/30/97 06:18 Page:1113
NO_ERRORS
       871**DCL      1266--CALL
NUMDEVS
       863**DCL      1146<<ASSIGN   1153>>DOINDEX
ONE
       873**DCL      1143<>CALL
STRT
       852**DCL      1224<<ASSIGN   1228>>CALLBLT  1229<<ASSIGN   1229>>ASSIGN   1231>>CALLBLT  1232<<ASSIGN
      1232>>ASSIGN   1233<>CALL     1234<<ASSIGN   1247>>CALLBLT  1248<<ASSIGN   1248>>ASSIGN   1250>>CALLBLT
      1251<<ASSIGN   1251>>ASSIGN   1252<>CALL
TEMP
       848**DCL      1227<<CALLBLT  1228>>CALLBLT  1230<<CALLBLT  1231>>CALLBLT  1246<<CALLBLT  1247>>CALLBLT
      1249<<CALLBLT  1250>>CALLBLT
TEMP_UTS
       874**DCL      1161<>CALL     1162>>DOUNTIL  1211<>CALL
TEXT$
       860**DCL      1223<<ASSIGN   1233<>CALL     1236<>CALL     1241<>CALL     1252<>CALL     1254>>ASSIGN
TEXTBUF
       859**DCL      1223--ASSIGN   1253--ASSIGN   1254--ASSIGN
TH$DEV
       983**DCL      1191>>ASSIGN
TH$HEAD
       878**DCL      1142>>ASSIGN
TH$IOM
      1004**DCL      1178>>ASSIGN
TH$MPC
      1026**DCL      1170>>ASSIGN
TH$THRESH
       950**DCL      1144>>ASSIGN
THE$PROCESS
       836**DCL-ENT  1151--CALL
THF$ADD_TEXTC
       835**DCL-ENT  1233--CALL     1236--CALL     1241--CALL     1252--CALL
THG$GETREC
       831**DCL-ENT  1141--CALL     1143--CALL     1164--CALL
THP$STATS
PL6.E3A0      #007=THF$AMS File=THF$FORMAT.:E05TSI                               WED 07/30/97 06:18 Page:1114
       832**DCL-ENT  1197--CALL
THW$WRITE
       833**DCL-ENT  1220--CALL     1256--CALL     1266--CALL
TH_CONSTRAINTS
       481**DCL      1150>>ASSIGN   1152<<ASSIGN
TH_CONSTRAINTS.E_BY_B
       484**DCL       484--REDEF
TH_CONSTRAINTS.M_BY_B
       483**DCL       483--REDEF
TH_CONSTRAINTS.TYPES
       481**DCL       481--REDEF
TH_DEFAULT.E_BY_B
       492**DCL       492--REDEF
TH_DEFAULT.M_BY_B
       491**DCL       491--REDEF
TH_DEFAULT.TYPES
       489**DCL       489--REDEF
TH_HEAD
       914**DCL      1142<<ASSIGN
TH_HEAD.DEVNAME
       947**DCL      1164<>CALL     1165>>IF       1165>>IF       1165>>IF       1175>>IF       1183>>IF
      1217>>IF       1221>>ASSIGN   1256--CALL
TH_HEAD.NUMXXS
       942**DCL      1146>>ASSIGN
TH_HEAD.XX_INDX
       941**DCL      1146>>ASSIGN
TH_RECORD.PTR$
       509**DCL      1142>>ASSIGN   1144>>ASSIGN   1170>>ASSIGN   1178>>ASSIGN   1191>>ASSIGN
TH_SAVE
       496**DCL      1150<<ASSIGN   1152>>ASSIGN
TH_SAVE.E_BY_B
       500**DCL       500--REDEF
TH_SAVE.M_BY_B
       498**DCL       498--REDEF
TH_SAVE.TYPES
       496**DCL       497--REDEF
PL6.E3A0      #007=THF$AMS File=THF$FORMAT.:E05TSI                               WED 07/30/97 06:18 Page:1115
TH_THRESH
       956**DCL      1144<<ASSIGN
TH_THRESH.ALERT
       959**DCL      1201>>IF       1242>>ASSIGN
TH_THRESH.ATTEN
       958**DCL      1162>>DOUNTIL  1199>>IF       1237>>ASSIGN
TH_XSA_BUF_VECTOR
       516**DCL       516--REDEF
TVEC
       855**DCL      1253<<ASSIGN   1256<>CALL
TVEC.BOUND
       856**DCL      1254<<ASSIGN
UTS
       861**DCL      1156<<ASSIGN   1161<>CALL     1164<>CALL     1210<>CALL     1210<>CALL     1211<>CALL
VALUE
       849**DCL      1237<<ASSIGN   1242<<ASSIGN   1244>>ASSIGN   1245>>ASSIGN
XUD$UTS_ADJ_25TH
      1092**DCL-ENT  1140--CALL     1161--CALL     1210--CALL     1211--CALL
XUD$UTS_DIFF_SEC
      1074**DCL-ENT  1138--CALL
ZERO
       872**DCL      1141<>CALL

PL6.E3A0      #008=THF$ADD_TEXTC File=THF$FORMAT.:E05TSI                         WED 07/30/97 06:18 Page:1116
     5788        1        /*M* THF$ADD_TEXTC - ROUTINE TO ADD_TEXTC TO A PASSED BUFFER */
     5789        2        /*T***********************************************************/
     5790        3        /*T*                                                         */
     5791        4        /*T* Copyright (c) Bull HN Information Systems Inc., 1997    */
     5792        5        /*T*                                                         */
     5793        6        /*T***********************************************************/
     5794        7        THF$ADD_TEXTC: PROC(PTR$,TXT,SIZE);
     5795        8        /**/
     5796        9        /* PARAMS */
     5797       10    1   DCL PTR$ PTR;
     5798       11    1   DCL TXT CHAR(SIZE);
     5799       12    1   DCL SIZE SBIN;
     5800       13        /**/
     5801       14        /* VARS */
     5802       15    1   DCL 1 TBUF BASED(PTR$),
     5803       16    1         2 N UBIN BYTE UNAL,
     5804       17    1         2 C CHAR(SIZE);
     5805       18        /**/
     5806       19    1        TBUF.N = SIZE;
     5807       20    1        TBUF.C = TXT;
     5808       21    1        PTR$ = PINCRC(PTR$,SIZE + 1);
     5809       22    1        RETURN;
     5810       23    1   END THF$ADD_TEXTC;
     5811       24        %EOD;

PL6.E3A0      #008=THF$ADD_TEXTC File=THF$FORMAT.:E05TSI                         WED 07/30/97 06:18 Page:1117
--  Include file information  --

   B$JIT_C.:E05TOU  was found in the system file and is never referenced.
   CP_6_C.:E05TOU  was found in the system file and is never referenced.
      No diagnostics issued in procedure THF$ADD_TEXTC.

   Procedure THF$ADD_TEXTC requires 23 words for executable code.
   Procedure THF$ADD_TEXTC requires 6 words of local(AUTO) storage.

PL6.E3A0      #008=THF$ADD_TEXTC File=THF$FORMAT.:E05TSI                         WED 07/30/97 06:18 Page:1118

 Object Unit name= THF$ADD_TEXTC                              File name= THF$FORMAT.:E05TOU
 UTS= JUL 30 '97 06:18:54.20 WED                              Compiler= PL-6/E31         Sev=      00
 SharedLib= :SHARED_SYSTEM                                    Alt SharedLib=


    ****  Control sections  ****

 Sect   Type Bound  Init  Size OctSiz  Section name(segment info)
    0   Proc  even  none    23     27  THF$ADD_TEXTC

    ****  Entry defs  ****

                              Check   Calling
                             calling  sequence
  Sect OctLoc Primary Altret sequence   type   Parms  Name
     0      0   yes            yes      Std        3  THF$ADD_TEXTC

  ****  Entry refs  ****

         Check        Calling
        calling       sequence
Altret sequence SRef   type   Args  Name
                       nStd      0 X66_AUTO_3
                       nStd      0 X66_ARET
PL6.E3A0      #008=THF$ADD_TEXTC File=THF$FORMAT.:E05TSI                         WED 07/30/97 06:18 Page:1119


     5788        1        /*M* THF$ADD_TEXTC - ROUTINE TO ADD_TEXTC TO A PASSED BUFFER */
     5789        2        /*T***********************************************************/
     5790        3        /*T*                                                         */
     5791        4        /*T* Copyright (c) Bull HN Information Systems Inc., 1997    */
     5792        5        /*T*                                                         */
     5793        6        /*T***********************************************************/
     5794        7        THF$ADD_TEXTC: PROC(PTR$,TXT,SIZE);

      7  0 000000   000000 700200 xent  THF$ADD_TEX* TSX0  ! X66_AUTO_3
         0 000001   000006 000003                    ZERO    6,3

     5795        8        /**/
     5796        9        /* PARAMS */
     5797       10    1   DCL PTR$ PTR;
     5798       11    1   DCL TXT CHAR(SIZE);
     5799       12    1   DCL SIZE SBIN;
     5800       13        /**/
     5801       14        /* VARS */
     5802       15    1   DCL 1 TBUF BASED(PTR$),
     5803       16    1         2 N UBIN BYTE UNAL,
     5804       17    1         2 C CHAR(SIZE);
     5805       18        /**/
     5806       19    1        TBUF.N = SIZE;

     19  0 000002   200003 470500                    LDP0    @PTR$,,AUTO
         0 000003   000000 471500                    LDP1    0,,PR0
         0 000004   200005 473500                    LDP3    @SIZE,,AUTO
         0 000005   000100 101500                    MRL     fill='000'O
         0 000006   300000 000004                    ADSC9   0,,PR3                   cn=0,n=4
         0 000007   100000 000001                    ADSC9   0,,PR1                   cn=0,n=1

     5807       20    1        TBUF.C = TXT;

     20  0 000010   000000 471500                    LDP1    0,,PR0
         0 000011   300000 720100                    LXL0    0,,PR3
         0 000012   200004 474500                    LDP4    @TXT,,AUTO
PL6.E3A0      #008=THF$ADD_TEXTC File=THF$FORMAT.:E05TSI                         WED 07/30/97 06:18 Page:1120
         0 000013   040140 100540                    MLR     fill='040'O
         0 000014   400000 000010                    ADSC9   0,,PR4                   cn=0,n=*X0
         0 000015   100000 200010                    ADSC9   0,,PR1                   cn=1,n=*X0

     5808       21    1        PTR$ = PINCRC(PTR$,SIZE + 1);

     21  0 000016   300000 236100                    LDQ     0,,PR3
         0 000017   000000 471500                    LDP1    0,,PR0
         0 000020   000011 402007                    MPY     9,DL
         0 000021   000011 036007                    ADLQ    9,DL
         0 000022   000024 605000 0                  TPL     s:21+6
         0 000023   000044 036003                    ADLQ    36,DU
         0 000024   100000 503506                    ABD     0,QL,PR1
         0 000025   000000 451500                    STP1    0,,PR0

     5809       22    1        RETURN;

     22  0 000026   000000 702200 xent               TSX2  ! X66_ARET
     5810       23    1   END THF$ADD_TEXTC;
     5811       24        %EOD;

PL6.E3A0      #008=THF$ADD_TEXTC File=THF$FORMAT.:E05TSI                         WED 07/30/97 06:18 Page:1121
--  Include file information  --

   B$JIT_C.:E05TOU  was found in the system file and is never referenced.
   CP_6_C.:E05TOU  was found in the system file and is never referenced.
      No diagnostics issued in procedure THF$ADD_TEXTC.
PL6.E3A0      #008=THF$ADD_TEXTC File=THF$FORMAT.:E05TSI                         WED 07/30/97 06:18 Page:1122

 **** Variables and constants ****

  ****  Auto variables  ****

  ****  Scalars and arrays  ****
OctLoc.c.b A Datatyp(siz) R M Lvl/name                 OctLoc.c.b A Datatyp(siz) R M Lvl/name

     3-0-0/w PTR         r     1 @PTR$                      5-0-0/w PTR         r     1 @SIZE
     4-0-0/w PTR         r     1 @TXT                      *0-0-0/w PTR         r     1 PTR$
    *0-0-0/w SBIN        r     1 SIZE                      *0-0-0/c ACHR        r     1 TXT

  ****  BASED and DCB variables  ****

  ****  Scalars and arrays  ****
OctLoc.c.b A Datatyp(siz) R M Lvl/name                 OctLoc.c.b A Datatyp(siz) R M Lvl/name

     0-0-0/c ASTR(9)     r     1 TBUF


   Procedure THF$ADD_TEXTC requires 23 words for executable code.
   Procedure THF$ADD_TEXTC requires 6 words of local(AUTO) storage.
PL6.E3A0      #008=THF$ADD_TEXTC File=THF$FORMAT.:E05TSI                         WED 07/30/97 06:18 Page:1123
          *** CROSS REFERENCE LISTING ***
**     DENOTES     IDENTIFIER DEFINITION
<<                 IDENTIFIER'S VALUE SET
>>                 IDENTIFIER'S VALUE USED
<>                 IDENTIFIER SET AND/OR USED
--                 IDENTIFIER REFERENCED
PL6.E3A0      #008=THF$ADD_TEXTC File=THF$FORMAT.:E05TSI                         WED 07/30/97 06:18 Page:1124
          MINI XREF LISTING

PTR$
        10**DCL         7--PROC       15--IMP-PTR    19>>ASSIGN     20>>ASSIGN     21<<ASSIGN     21>>ASSIGN
SIZE
        12**DCL         7--PROC       11--IMP-SIZ    17--IMP-SIZ    19>>ASSIGN     20>>ASSIGN     20>>ASSIGN
        21>>ASSIGN
TBUF.C
        17**DCL        20<<ASSIGN
TBUF.N
        16**DCL        19<<ASSIGN
TXT
        11**DCL         7--PROC       20>>ASSIGN

PL6.E3A0      #009=THF$UPR File=THF$FORMAT.:E05TSI                               WED 07/30/97 06:18 Page:1125
     5812        1        /*M* THF$UPR - GENERATES UPR REPORT FOR ELAN */
     5813        2        /*T***********************************************************/
     5814        3        /*T*                                                         */
     5815        4        /*T* Copyright (c) Bull HN Information Systems Inc., 1997    */
     5816        5        /*T*                                                         */
     5817        6        /*T***********************************************************/
     5818        7        THF$UPR: PROC;
     5819        8        /**/
     5820        9        /* INCLUDE FILES */
     5821       10        %INCLUDE CP_6;
     5822       91        %INCLUDE TH_SUBS_C;
     5823      473        %INCLUDE TH_DATA_R;
     5824      551        %INCLUDE TH_PERR_C;
     5825      592        %INCLUDE TH$HIST;
     5826      687        %INCLUDE XUD_UTS_M;
     5827      769        /**/
     5828      770        /* ENTRY DCLS */
     5829      771    1   DCL THW$WRITE ENTRY(11);
     5830      772    1   DCL THP$STATS ENTRY(3);
     5831      773    1   DCL THG$GETREC ENTRY(4) ALTRET;
     5832      774    1   DCL THM$ERRMSG ENTRY(1);
     5833      775        /**/
     5834      776        /* VARS */
     5835      777    1   DCL ONE CHAR(8) STATIC INIT('1       ');
     5836      778    1   DCL BLANKS (0:60) CHAR(1) CONSTANT INIT(' '*0);
     5837      779    1   DCL ATTEN_LINE (0:60) CHAR(1) CONSTANT INIT('-'*0);
     5838      780    1   DCL ALERT_LINE (0:60) CHAR(1) CONSTANT INIT('+'*0);
     5839      781    1   DCL DEVNAME CHAR(8);
     5840      782    1   DCL THRESH_INDX UBIN WORD;
     5841      783    1   DCL DEV_INDX UBIN WORD;
     5842      784    1   DCL GRAPH_TEXT CHAR(69) STATIC INIT(' ');
     5843      785    1   DCL 1 GRAPH_STRUCT REDEF GRAPH_TEXT,
     5844      786    1         2 LEFT_SIDE CHAR(7),
     5845      787    1         2 GRAPH(0:60) CHAR(1),
     5846      788    1         2 RIGHT_SIDE CHAR(1);
     5847      789    1   DCL LEFT_SIDE(0:14) CHAR(7) CONSTANT INIT('  100 |',
     5848      790    1                                           '      |',
PL6.E3A0      #009=THF$UPR File=THF$FORMAT.:E05TSI                               WED 07/30/97 06:18 Page:1126
     5849      791    1                                           ' P 99 |',
     5850      792    1                                           ' e    |',
     5851      793    1                                           ' r 98 |',
     5852      794    1                                           ' f    |',
     5853      795    1                                           ' o 97 |',
     5854      796    1                                           ' r    |',
     5855      797    1                                           ' m 96 |',
     5856      798    1                                           ' a    |',
     5857      799    1                                           ' n 95 |',
     5858      800    1                                           ' c    |',
     5859      801    1                                           ' e 94 |',
     5860      802    1                                           '      |',
     5861      803    1                                           '   93 |');
     5862      804    1   DCL Y_AXIS_PVAL (0:14) UBIN WORD CONSTANT INIT(10000,9950,9900,9850,9800,9750,
     5863      805    1                                                9700,9650,9600,9550,9500,9450,
     5864      806    1                                                9400,9350,9300);
     5865      807    1   DCL ATTEN UBIN WORD;
     5866      808    1   DCL ALERT UBIN WORD;
     5867      809    1   DCL ATTEN_FLG BIT(1) STATIC INIT('0'B);
     5868      810    1   DCL ALERT_FLG BIT(1) STATIC INIT('0'B);
     5869      811    1   DCL PVAL(0:30) UBIN WORD;
     5870      812    1   DCL DEV$ PTR;
     5871      813    1   DCL I UBIN;
     5872      814    1   DCL J UBIN;
     5873      815    1   DCL K UBIN;
     5874      816    1   DCL LINES_PER_GRAPH UBIN WORD CONSTANT INIT(15);
     5875      817    1   DCL DAYS_PER_GRAPH UBIN WORD CONSTANT INIT(30);
     5876      818    1   DCL UTS UBIN WORD;
     5877      819    1   DCL OLDEST_UTS UBIN WORD;
     5878      820    1   DCL CURUTS UBIN WORD STATIC INIT(0);
     5879      821    1   DCL COUNT UBIN WORD;
     5880      822    1   DCL CONNECTS UBIN WORD;
     5881      823        /**/
     5882      824    1   DCL UPR_FMT CHAR(0) CONSTANT INIT(
     5883      825        '%/%19-Number of days prior to report date%2/
     5884      826                      3 2 2 2 2 2 2 2 2 2 2 1 1 1 1 1 1 1 1 1 1%/
     5885      827                      0 9 8 7 6 5 4 3 2 1 0 9 8 7 6 5 4 3 2 1 0 9 8 7 6 5 4 3 2 1 0%/
PL6.E3A0      #009=THF$UPR File=THF$FORMAT.:E05TSI                               WED 07/30/97 06:18 Page:1127
     5886      828    1                 -------------------------------------------------------------%10P');
     5887      829    1   DCL UPR_HDR BIT(72) DALIGNED STATIC INIT(VECTOR(UPR_FMT));
     5888      830    1   DCL UPR_LINE CHAR(0) CONSTANT INIT('%A%10P');
     5889      831    1   DCL FOOTER CHAR(0) CONSTANT INIT(
     5890      832    1   '       -------------------------------------------------------------%10P');
     5891      833    1   DCL DEV_FMT CHAR(0) CONSTANT INIT('%/%35-- %4A -%10P');
     5892      834    1   DCL DEV_HDR BIT(72) DALIGNED STATIC INIT(VECTOR(DEV_FMT));
     5893      835        /**/
     5894      836        /* MACRO INVOCATIONS */
     5895      837        %TH$MPC (NAME=TH$MPC,NUMDEV#=32);
     5896      858        %TH$MPC (NAME=MPCREC,STCLASS=AUTO,NUMDEV#=32);
     5897      879        %TH$IOM (NAME=TH$IOM);
     5898      890        %TH$IOM (NAME=IOMREC,STCLASS=AUTO);
     5899      901        %TH$DEV (NAME=TH$DEV);
     5900      922        %TH$DEV (NAME=DEVREC,STCLASS=AUTO);
     5901      943        %TH$THRESH (NAME=TH$THRESH,NUMDEV#=200);
     5902      949        %TH$THRESH (NAME=TH_THRESH,STCLASS=AUTO,NUMDEV#=200);
     5903      955        %XUD$UTS_ENTRIES;
     5904      987        %XUD_UTS_EQU;
     5905      998        /**/
     5906      999        /* FPT DEFINITIONS */
     5907     1000        %FPT_TIME (FPTN=CUR_UTS,
     5908     1001                   SOURCE=CLOCK,
     5909     1002                   TSTAMP=CURUTS,
     5910     1003                   DEST=UTS);
     5911     1022        /**/
     5912     1023        %EJECT;
PL6.E3A0      #009=THF$UPR File=THF$FORMAT.:E05TSI                               WED 07/30/97 06:18 Page:1128
     5913     1024    1        GRAPH_STRUCT.RIGHT_SIDE = '|';
     5914     1025    1        CALL M$TIME(CUR_UTS);
     5915     1026    1        CALL XUD$UTS_DIFF_SEC (CURUTS, CURUTS, 0);
     5916     1027    1        CURUTS = CURUTS / 86400;
     5917     1028    1        CALL XUD$UTS_ADJ_25TH (CURUTS, 0, CURUTS * %UTS_25TH_DAY#);
     5918     1029    2        DO DEV_INDX = 0 TO TH_NUM_REP_DEVS - 1;
     5919     1030    2           DEVNAME = TH_REP_DEVS(DEV_INDX);
     5920     1031    3           IF SUBSTR(DEVNAME,0,3) = 'MEM' THEN DO;
     5921     1032    3              CALL THM$ERRMSG(%E$TH_MEM_IN_UPR);
     5922     1033    3              GOTO ENDLOOP;
     5923     1034    3              END;  /* IF DEVNAME = 'MEM' */
     5924     1035    2              IF SUBSTR(DEVNAME,0,3) = 'FEP'
     5925     1036    2                 THEN                      /* FEP RECORD                         */
     5926     1037    3                 DO;
     5927     1038                                                /* CURRENTLY NOT SUPPORTED FOR UPR    */
     5928     1039    3                    CALL THM$ERRMSG(%E$TH_FEP_IN_UPR);
     5929     1040    3                    GOTO ENDLOOP;
     5930     1041    3                 END;
     5931     1042        /*E* ERROR:THE-E$TH_MEM_IN_UPR-0
     5932     1043             MESSAGE: Unit Performance Reports for Memory are not currently available.
     5933     1044             DESCRIPTION: Not supported as yet.    */
     5934     1045    2           IF SUBSTR(DEVNAME,0,2) = 'MC'
     5935     1046    2           THEN GOTO ENDLOOP;
     5936     1047    2           CALL THW$WRITE(DEV_HDR,VECTOR(DEVNAME));
     5937     1048    2           PVAL = '0'B;
     5938     1049    2           J = 0;
     5939     1050    2           CALL THG$GETREC(%DEVHIST,ONE);  /* THRESH RECORD                      */
     5940     1051    2           TH_THRESH = TH_RECORD.PTR$->TH$THRESH;
     5941     1052    2           THRESH_INDX = 0;
     5942     1053    3           DO WHILE(TH_THRESH.DEVNAME(THRESH_INDX) ~= DEVNAME);
     5943     1054    3              THRESH_INDX = THRESH_INDX + 1;
     5944     1055    3           END;                            /* DO WHILE                           */
     5945     1056    2           ATTEN = TH_THRESH.ATTEN(THRESH_INDX);
     5946     1057    2           ALERT = TH_THRESH.ALERT(THRESH_INDX);
     5947     1058    2           CALL XUD$UTS_ADJ_25TH (OLDEST_UTS, CURUTS, -(30*%UTS_25TH_DAY#));
     5948     1059    2           UTS = OLDEST_UTS;
     5949     1060    3           DO WHILE (UTS <= CURUTS);
PL6.E3A0      #009=THF$UPR File=THF$FORMAT.:E05TSI                               WED 07/30/97 06:18 Page:1129
     5950     1061    3              COUNT = 0;
     5951     1062    3              CONNECTS = 0;
     5952     1063    3              PVAL(J) = 10000;             /* %100                               */
     5953     1064    3              CALL THG$GETREC(%DEVHIST,DEVNAME,UTS) ALTRET(NOT_THERE);
     5954     1065    3              IF (SUBSTR(DEVNAME,0,2) = 'UC') OR
     5955     1066    3                 (SUBSTR(DEVNAME,0,2) = 'TC') OR
     5956     1067    3                 (SUBSTR(DEVNAME,0,2) = 'DC')
     5957     1068    3                 THEN                      /* MPC RECORD                         */
     5958     1069    4                 DO;
     5959     1070    4                    MPCREC = TH_RECORD.PTR$->TH$MPC;
     5960     1071    4                    COUNT = COUNT + MPCREC.COUNT;
     5961     1072    4                    CONNECTS = CONNECTS + MPCREC.CONNECTS;
     5962     1073    4                 END;                      /* IF MPC                             */
     5963     1074    3                 ELSE
     5964     1075    3              IF SUBSTR(DEVNAME,0,3) = 'IOM'
     5965     1076    3                 THEN                      /* IOM RECORD                         */
     5966     1077    4                 DO;
     5967     1078    4                    IOMREC = TH_RECORD.PTR$->TH$IOM;
     5968     1079    4                    COUNT = COUNT + IOMREC.COUNT;
     5969     1080    4                    CONNECTS = CONNECTS + IOMREC.CONNECTS;
     5970     1081    4                 END;
     5971     1082    3                 ELSE
     5972     1083    4                 DO;
     5973     1084    4                    DEVREC = TH_RECORD.PTR$->TH$DEV;
     5974     1085    5                    DO K = 0 TO 25;
     5975     1086    5                       COUNT = COUNT + DEVREC.COUNT(K);
     5976     1087    5                    END;                   /* DO K                               */
     5977     1088    4                    CONNECTS = CONNECTS + DEVREC.CONNECTS;
     5978     1089    4                 END;
     5979     1090        /*E* ERROR:THE-E$TH_FEP_IN_UPR-0
     5980     1091             MESSAGE: Unit performance reports for FEPs are currently not available.
     5981     1092             DESCRIPTION: Not supported as yet.       */
     5982     1093    3              CALL THP$STATS(COUNT,CONNECTS,PVAL(J));
     5983     1094    3      NOT_THERE:
     5984     1095    3              J = J + 1;
     5985     1096    3              CALL XUD$UTS_ADJ_25TH(UTS,UTS,%UTS_25TH_DAY#);
     5986     1097    3           END;                            /* DO UTS                             */
PL6.E3A0      #009=THF$UPR File=THF$FORMAT.:E05TSI                               WED 07/30/97 06:18 Page:1130
     5987     1098
     5988     1099    2           CALL THW$WRITE(UPR_HDR);
     5989     1100    2           ATTEN_FLG = %FALSE;
     5990     1101    2           ALERT_FLG = %FALSE;
     5991     1102    3           DO I = 0 TO LINES_PER_GRAPH - 1;
     5992     1103    3              GRAPH_STRUCT.GRAPH = BLANKS;
     5993     1104    3              GRAPH_STRUCT.LEFT_SIDE = LEFT_SIDE(I);
     5994     1105    3              IF (ATTEN = Y_AXIS_PVAL(I)) OR
     5995     1106    3                 (ATTEN > Y_AXIS_PVAL(I) AND NOT ATTEN_FLG)
     5996     1107    3                 THEN                      /* OUTPUT ATTEN LINE                  */
     5997     1108    4                 DO;
     5998     1109    4                    ATTEN_FLG = %TRUE;
     5999     1110    4                    GRAPH_STRUCT.GRAPH = ATTEN_LINE;
     6000     1111    4                 END;                      /* IF                                 */
     6001     1112    3              IF (ALERT = Y_AXIS_PVAL(I)) OR
     6002     1113    3                 (ALERT > Y_AXIS_PVAL(I) AND NOT ALERT_FLG)
     6003     1114    3                 THEN                      /* OUTPUT ALERT LINE                  */
     6004     1115    4                 DO;
     6005     1116    4                    ALERT_FLG = %TRUE;
     6006     1117    4                    GRAPH_STRUCT.GRAPH = ALERT_LINE;
     6007     1118    4                 END;                      /* IF                                 */
     6008     1119    4              DO J = 0 TO DAYS_PER_GRAPH;
     6009     1120    4                 IF PVAL(J) <= Y_AXIS_PVAL(I)
     6010     1121    4                    THEN GRAPH_STRUCT.GRAPH(2 * J) = '*';
     6011     1122    4              END;                         /* DO J                               */
     6012     1123    3              CALL THW$WRITE(VECTOR(UPR_LINE),VECTOR(GRAPH_TEXT));
     6013     1124    3           END;                            /* DO I                               */
     6014     1125    2           CALL THW$WRITE(VECTOR(FOOTER));
     6015     1126    2   ENDLOOP:
     6016     1127    2        END;                          /* DO DEV_INDX = 0 TO TH_NUM_REP_DEVS - 1  */
     6017     1128    1   END THF$UPR;
     6018     1129        %EOD;

PL6.E3A0      #009=THF$UPR File=THF$FORMAT.:E05TSI                               WED 07/30/97 06:18 Page:1131
--  Include file information  --

   XUD_UTS_M.:E05TOU  is referenced.
   TH$HIST.:E05TOU  is referenced.
   TH_PERR_C.:E05TOU  is referenced.
   TH_DATA_R.:E05TOU  cannot be made into a system file and is referenced.
   B_STRINGS_C.:E05TOU  is referenced.
   TH_SUBS_C.:E05TOU  is referenced.
   CP_6.:E05TOU  cannot be made into a system file and is referenced.
   B$JIT_C.:E05TOU  was found in the system file and is never referenced.
   CP_6_C.:E05TOU  was found in the system file and is referenced.
      No diagnostics issued in procedure THF$UPR.

   Procedure THF$UPR requires 292 words for executable code.
   Procedure THF$UPR requires 1232 words of local(AUTO) storage.

PL6.E3A0      #009=THF$UPR File=THF$FORMAT.:E05TSI                               WED 07/30/97 06:18 Page:1132

 Object Unit name= THF$UPR                                    File name= THF$FORMAT.:E05TOU
 UTS= JUL 30 '97 06:18:57.20 WED                              Compiler= PL-6/E31         Sev=      00
 SharedLib= :SHARED_SYSTEM                                    Alt SharedLib=


    ****  Control sections  ****

 Sect   Type Bound  Init  Size OctSiz  Section name(segment info)
    0   DCB   even  none     0      0  M$UC
    1   Data  even  none    40     50  THF$UPR
    2  RoData even  UTS    183    267  THF$UPR
    3   Proc  even  none   292    444  THF$UPR
    4  RoData even  none    27     33  THF$UPR

    ****  Entry defs  ****

                              Check   Calling
                             calling  sequence
  Sect OctLoc Primary Altret sequence   type   Parms  Name
     3      0   yes            yes      Std        0  THF$UPR

  ****  Entry refs  ****

         Check        Calling
        calling       sequence
Altret sequence SRef   type   Args  Name
 yes     yes           Std       3 XUD$UTS_DIFF_SEC
         yes           Std       3 THP$STATS
 yes     yes           Std       3 XUD$UTS_ADJ_25TH
         yes           Std       1 THM$ERRMSG
         yes           Std      11 THW$WRITE
 yes     yes           Std       4 THG$GETREC
                       nStd      0 X66_AUTO_0
                       Std       0 B_CONSPOOL_D
                       nStd      0 X66_ARET
PL6.E3A0      #009=THF$UPR File=THF$FORMAT.:E05TSI                               WED 07/30/97 06:18 Page:1133

  ****  Data refs  ****

  Flags:  r = read only, s = secondary
Flgs Name                             Flgs Name                             Flgs Name
     M$UC                                  TH_NUM_REP_DEVS                       TH_REP_DEVS
     TH_RECORD                             TH_XSA_BUF_VECTOR                     B_VECTNIL

  ****  Segment refs  ****

  Flags:  r = read only, s = secondary
Flgs Name                             Flgs Name                             Flgs Name
     ISSID                                 NULLSID
PL6.E3A0      #009=THF$UPR File=THF$FORMAT.:E05TSI                               WED 07/30/97 06:18 Page:1134


     5812        1        /*M* THF$UPR - GENERATES UPR REPORT FOR ELAN */
     5813        2        /*T***********************************************************/
     5814        3        /*T*                                                         */
     5815        4        /*T* Copyright (c) Bull HN Information Systems Inc., 1997    */
     5816        5        /*T*                                                         */
     5817        6        /*T***********************************************************/
     5818        7        THF$UPR: PROC;

      7  3 000000   000000 700200 xent  THF$UPR      TSX0  ! X66_AUTO_0
         3 000001   002320 000000                    ZERO    1232,0

     5819        8        /**/
     5820        9        /* INCLUDE FILES */
     5821       10        %INCLUDE CP_6;
     5822       91        %INCLUDE TH_SUBS_C;
     5823      473        %INCLUDE TH_DATA_R;
     5824      551        %INCLUDE TH_PERR_C;
     5825      592        %INCLUDE TH$HIST;
     5826      687        %INCLUDE XUD_UTS_M;
     5827      769        /**/
     5828      770        /* ENTRY DCLS */
     5829      771    1   DCL THW$WRITE ENTRY(11);
     5830      772    1   DCL THP$STATS ENTRY(3);
     5831      773    1   DCL THG$GETREC ENTRY(4) ALTRET;
     5832      774    1   DCL THM$ERRMSG ENTRY(1);
     5833      775        /**/
     5834      776        /* VARS */
     5835      777    1   DCL ONE CHAR(8) STATIC INIT('1       ');
     5836      778    1   DCL BLANKS (0:60) CHAR(1) CONSTANT INIT(' '*0);
     5837      779    1   DCL ATTEN_LINE (0:60) CHAR(1) CONSTANT INIT('-'*0);
     5838      780    1   DCL ALERT_LINE (0:60) CHAR(1) CONSTANT INIT('+'*0);
     5839      781    1   DCL DEVNAME CHAR(8);
     5840      782    1   DCL THRESH_INDX UBIN WORD;
     5841      783    1   DCL DEV_INDX UBIN WORD;
     5842      784    1   DCL GRAPH_TEXT CHAR(69) STATIC INIT(' ');
     5843      785    1   DCL 1 GRAPH_STRUCT REDEF GRAPH_TEXT,
PL6.E3A0      #009=THF$UPR File=THF$FORMAT.:E05TSI                               WED 07/30/97 06:18 Page:1135
     5844      786    1         2 LEFT_SIDE CHAR(7),
     5845      787    1         2 GRAPH(0:60) CHAR(1),
     5846      788    1         2 RIGHT_SIDE CHAR(1);
     5847      789    1   DCL LEFT_SIDE(0:14) CHAR(7) CONSTANT INIT('  100 |',
     5848      790    1                                           '      |',
     5849      791    1                                           ' P 99 |',
     5850      792    1                                           ' e    |',
     5851      793    1                                           ' r 98 |',
     5852      794    1                                           ' f    |',
     5853      795    1                                           ' o 97 |',
     5854      796    1                                           ' r    |',
     5855      797    1                                           ' m 96 |',
     5856      798    1                                           ' a    |',
     5857      799    1                                           ' n 95 |',
     5858      800    1                                           ' c    |',
     5859      801    1                                           ' e 94 |',
     5860      802    1                                           '      |',
     5861      803    1                                           '   93 |');
     5862      804    1   DCL Y_AXIS_PVAL (0:14) UBIN WORD CONSTANT INIT(10000,9950,9900,9850,9800,9750,
     5863      805    1                                                9700,9650,9600,9550,9500,9450,
     5864      806    1                                                9400,9350,9300);
     5865      807    1   DCL ATTEN UBIN WORD;
     5866      808    1   DCL ALERT UBIN WORD;
     5867      809    1   DCL ATTEN_FLG BIT(1) STATIC INIT('0'B);
     5868      810    1   DCL ALERT_FLG BIT(1) STATIC INIT('0'B);
     5869      811    1   DCL PVAL(0:30) UBIN WORD;
     5870      812    1   DCL DEV$ PTR;
     5871      813    1   DCL I UBIN;
     5872      814    1   DCL J UBIN;
     5873      815    1   DCL K UBIN;
     5874      816    1   DCL LINES_PER_GRAPH UBIN WORD CONSTANT INIT(15);
     5875      817    1   DCL DAYS_PER_GRAPH UBIN WORD CONSTANT INIT(30);
     5876      818    1   DCL UTS UBIN WORD;
     5877      819    1   DCL OLDEST_UTS UBIN WORD;
     5878      820    1   DCL CURUTS UBIN WORD STATIC INIT(0);
     5879      821    1   DCL COUNT UBIN WORD;
     5880      822    1   DCL CONNECTS UBIN WORD;
PL6.E3A0      #009=THF$UPR File=THF$FORMAT.:E05TSI                               WED 07/30/97 06:18 Page:1136
     5881      823        /**/
     5882      824    1   DCL UPR_FMT CHAR(0) CONSTANT INIT(
     5883      825        '%/%19-Number of days prior to report date%2/
     5884      826                      3 2 2 2 2 2 2 2 2 2 2 1 1 1 1 1 1 1 1 1 1%/
     5885      827                      0 9 8 7 6 5 4 3 2 1 0 9 8 7 6 5 4 3 2 1 0 9 8 7 6 5 4 3 2 1 0%/
     5886      828    1                 -------------------------------------------------------------%10P');
     5887      829    1   DCL UPR_HDR BIT(72) DALIGNED STATIC INIT(VECTOR(UPR_FMT));
     5888      830    1   DCL UPR_LINE CHAR(0) CONSTANT INIT('%A%10P');
     5889      831    1   DCL FOOTER CHAR(0) CONSTANT INIT(
     5890      832    1   '       -------------------------------------------------------------%10P');
     5891      833    1   DCL DEV_FMT CHAR(0) CONSTANT INIT('%/%35-- %4A -%10P');
     5892      834    1   DCL DEV_HDR BIT(72) DALIGNED STATIC INIT(VECTOR(DEV_FMT));
     5893      835        /**/
     5894      836        /* MACRO INVOCATIONS */
     5895      837        %TH$MPC (NAME=TH$MPC,NUMDEV#=32);
     5896      858        %TH$MPC (NAME=MPCREC,STCLASS=AUTO,NUMDEV#=32);
     5897      879        %TH$IOM (NAME=TH$IOM);
     5898      890        %TH$IOM (NAME=IOMREC,STCLASS=AUTO);
     5899      901        %TH$DEV (NAME=TH$DEV);
     5900      922        %TH$DEV (NAME=DEVREC,STCLASS=AUTO);
     5901      943        %TH$THRESH (NAME=TH$THRESH,NUMDEV#=200);
     5902      949        %TH$THRESH (NAME=TH_THRESH,STCLASS=AUTO,NUMDEV#=200);
     5903      955        %XUD$UTS_ENTRIES;
     5904      987        %XUD_UTS_EQU;
     5905      998        /**/
     5906      999        /* FPT DEFINITIONS */
     5907     1000        %FPT_TIME (FPTN=CUR_UTS,
     5908     1001                   SOURCE=CLOCK,
     5909     1002                   TSTAMP=CURUTS,
     5910     1003                   DEST=UTS);
     5911     1022        /**/
     5912     1023        %EJECT;
PL6.E3A0      #009=THF$UPR File=THF$FORMAT.:E05TSI                               WED 07/30/97 06:18 Page:1137
     5913     1024    1        GRAPH_STRUCT.RIGHT_SIDE = '|';

   1024  3 000002   174000 236003                    LDQ     63488,DU
         3 000003   000023 552040 1                  STBQ    GRAPH_TEXT+17,'40'O

     5914     1025    1        CALL M$TIME(CUR_UTS);

   1025  3 000004   000034 630400 1                  EPPR0   CUR_UTS
         3 000005   020004 713400                    CLIMB   8196
         3 000006   402000 401760                    pmme    nvectors=5

     5915     1026    1        CALL XUD$UTS_DIFF_SEC (CURUTS, CURUTS, 0);

   1026  3 000007   000000 630400 4                  EPPR0   0
         3 000010   000021 631400 xsym               EPPR1   B_VECTNIL+17
         3 000011   000000 701000 xent               TSX1    XUD$UTS_DIFF_SEC
         3 000012   000000 011000                    NOP     0

     5916     1027    1        CURUTS = CURUTS / 86400;

   1027  3 000013   000026 236000 1                  LDQ     CURUTS
         3 000014   000001 772000                    QRL     1
         3 000015   124300 506007                    DIV     43200,DL
         3 000016   000026 756000 1                  STQ     CURUTS

     5917     1028    1        CALL XUD$UTS_ADJ_25TH (CURUTS, 0, CURUTS * %UTS_25TH_DAY#);

   1028  3 000017   000003 402000 4                  MPY     3
         3 000020   202312 756100                    STQ     TH_THRESH+805,,AUTO
         3 000021   202312 630500                    EPPR0   TH_THRESH+805,,AUTO
         3 000022   202315 450500                    STP0    TH_THRESH+808,,AUTO
         3 000023   000002 236000 4                  LDQ     2
         3 000024   202314 756100                    STQ     TH_THRESH+807,,AUTO
         3 000025   000000 236000 4                  LDQ     0
         3 000026   202313 756100                    STQ     TH_THRESH+806,,AUTO
         3 000027   202313 630500                    EPPR0   TH_THRESH+806,,AUTO
         3 000030   000021 631400 xsym               EPPR1   B_VECTNIL+17
PL6.E3A0      #009=THF$UPR File=THF$FORMAT.:E05TSI                               WED 07/30/97 06:18 Page:1138
         3 000031   000000 701000 xent               TSX1    XUD$UTS_ADJ_25TH
         3 000032   000000 011000                    NOP     0

     5918     1029    2        DO DEV_INDX = 0 TO TH_NUM_REP_DEVS - 1;

   1029  3 000033   200006 450100                    STZ     DEV_INDX,,AUTO
         3 000034   000440 710000 3                  TRA     ENDLOOP+3

     5919     1030    2           DEVNAME = TH_REP_DEVS(DEV_INDX);

   1030  3 000035   200006 235100                    LDA     DEV_INDX,,AUTO
         3 000036   000003 735000                    ALS     3
         3 000037   040100 100405                    MLR     fill='040'O
         3 000040   000000 000010 xsym               ADSC9   TH_REP_DEVS,A            cn=0,n=8
         3 000041   200003 000010                    ADSC9   DEVNAME,,AUTO            cn=0,n=8

     5920     1031    3           IF SUBSTR(DEVNAME,0,3) = 'MEM' THEN DO;

   1031  3 000042   200003 236100                    LDQ     DEVNAME,,AUTO
         3 000043   000260 676000 2                  ERQ     DEV_FMT+5
         3 000044   000004 376000 4                  ANQ     4
         3 000045   000053 601000 3                  TNZ     s:1035

     5921     1032    3              CALL THM$ERRMSG(%E$TH_MEM_IN_UPR);

   1032  3 000046   000006 630400 4                  EPPR0   6
         3 000047   000017 631400 xsym               EPPR1   B_VECTNIL+15
         3 000050   000000 701000 xent               TSX1    THM$ERRMSG
         3 000051   000000 011000                    NOP     0

     5922     1033    3              GOTO ENDLOOP;

   1033  3 000052   000435 710000 3                  TRA     ENDLOOP

     5923     1034    3              END;  /* IF DEVNAME = 'MEM' */
     5924     1035    2              IF SUBSTR(DEVNAME,0,3) = 'FEP'

PL6.E3A0      #009=THF$UPR File=THF$FORMAT.:E05TSI                               WED 07/30/97 06:18 Page:1139
   1035  3 000053   200003 236100                    LDQ     DEVNAME,,AUTO
         3 000054   000261 676000 2                  ERQ     DEV_FMT+6
         3 000055   000004 376000 4                  ANQ     4
         3 000056   000064 601000 3                  TNZ     s:1045

     5925     1036    2                 THEN                      /* FEP RECORD                         */
     5926     1037    3                 DO;

     5927     1038                                                /* CURRENTLY NOT SUPPORTED FOR UPR    */
     5928     1039    3                    CALL THM$ERRMSG(%E$TH_FEP_IN_UPR);

   1039  3 000057   000010 630400 4                  EPPR0   8
         3 000060   000017 631400 xsym               EPPR1   B_VECTNIL+15
         3 000061   000000 701000 xent               TSX1    THM$ERRMSG
         3 000062   000000 011000                    NOP     0

     5929     1040    3                    GOTO ENDLOOP;

   1040  3 000063   000435 710000 3                  TRA     ENDLOOP

     5930     1041    3                 END;
     5931     1042        /*E* ERROR:THE-E$TH_MEM_IN_UPR-0
     5932     1043             MESSAGE: Unit Performance Reports for Memory are not currently available.
     5933     1044             DESCRIPTION: Not supported as yet.    */
     5934     1045    2           IF SUBSTR(DEVNAME,0,2) = 'MC'

   1045  3 000064   200003 220100                    LDX0    DEVNAME,,AUTO
         3 000065   000262 100000 2                  CMPX0   DEV_FMT+7
         3 000066   000435 600000 3                  TZE     ENDLOOP

     5935     1046    2           THEN GOTO ENDLOOP;
     5936     1047    2           CALL THW$WRITE(DEV_HDR,VECTOR(DEVNAME));

   1047  3 000067   000011 235000 4                  LDA     9
         3 000070   202312 452500                    STP2    TH_THRESH+805,,AUTO
         3 000071   202312 236100                    LDQ     TH_THRESH+805,,AUTO
         3 000072   000003 036003                    ADLQ    3,DU
PL6.E3A0      #009=THF$UPR File=THF$FORMAT.:E05TSI                               WED 07/30/97 06:18 Page:1140
         3 000073   202314 757100                    STAQ    TH_THRESH+807,,AUTO
         3 000074   202314 630500                    EPPR0   TH_THRESH+807,,AUTO
         3 000075   202317 450500                    STP0    TH_THRESH+810,,AUTO
         3 000076   000012 236000 4                  LDQ     10
         3 000077   202316 756100                    STQ     TH_THRESH+809,,AUTO
         3 000100   202316 630500                    EPPR0   TH_THRESH+809,,AUTO
         3 000101   000020 631400 xsym               EPPR1   B_VECTNIL+16
         3 000102   000000 701000 xent               TSX1    THW$WRITE
         3 000103   000000 011000                    NOP     0

     5937     1048    2           PVAL = '0'B;

   1048  3 000104   000100 100400                    MLR     fill='000'O
         3 000105   000002 000001 xsym               ADSC9   B_VECTNIL+2              cn=0,n=1
         3 000106   200011 000174                    ADSC9   PVAL,,AUTO               cn=0,n=124

     5938     1049    2           J = 0;

   1049  3 000107   200052 450100                    STZ     J,,AUTO

     5939     1050    2           CALL THG$GETREC(%DEVHIST,ONE);  /* THRESH RECORD                      */

   1050  3 000110   000013 630400 4                  EPPR0   11
         3 000111   000020 631400 xsym               EPPR1   B_VECTNIL+16
         3 000112   000000 701000 xent               TSX1    THG$GETREC
         3 000113   000000 011000                    NOP     0

     5940     1051    2           TH_THRESH = TH_RECORD.PTR$->TH$THRESH;

   1051  3 000114   000001 470400 xsym               LDP0    TH_RECORD+1
         3 000115   000100 100500                    MLR     fill='000'O
         3 000116   000000 006220                    ADSC9   0,,PR0                   cn=0,n=3216
         3 000117   200645 006220                    ADSC9   TH_THRESH,,AUTO          cn=0,n=3216

     5941     1052    2           THRESH_INDX = 0;

   1052  3 000120   200005 450100                    STZ     THRESH_INDX,,AUTO
PL6.E3A0      #009=THF$UPR File=THF$FORMAT.:E05TSI                               WED 07/30/97 06:18 Page:1141

     5942     1053    3           DO WHILE(TH_THRESH.DEVNAME(THRESH_INDX) ~= DEVNAME);

   1053  3 000121   200005 235100                    LDA     THRESH_INDX,,AUTO
         3 000122   000004 735000                    ALS     4
         3 000123   040100 106505                    CMPC    fill='040'O
         3 000124   200645 000010                    ADSC9   TH_THRESH,A,AUTO         cn=0,n=8
         3 000125   200003 000010                    ADSC9   DEVNAME,,AUTO            cn=0,n=8
         3 000126   000137 600000 3                  TZE     s:1056

     5943     1054    3              THRESH_INDX = THRESH_INDX + 1;

   1054  3 000127   200005 235100                    LDA     THRESH_INDX,,AUTO
         3 000130   000001 035007                    ADLA    1,DL
         3 000131   200005 755100                    STA     THRESH_INDX,,AUTO

     5944     1055    3           END;                            /* DO WHILE                           */

   1055  3 000132   000004 735000                    ALS     4
         3 000133   040100 106505                    CMPC    fill='040'O
         3 000134   200645 000010                    ADSC9   TH_THRESH,A,AUTO         cn=0,n=8
         3 000135   200003 000010                    ADSC9   DEVNAME,,AUTO            cn=0,n=8
         3 000136   000127 601000 3                  TNZ     s:1054

     5945     1056    2           ATTEN = TH_THRESH.ATTEN(THRESH_INDX);

   1056  3 000137   200005 236100                    LDQ     THRESH_INDX,,AUTO
         3 000140   000002 736000                    QLS     2
         3 000141   200647 235106                    LDA     TH_THRESH+2,QL,AUTO
         3 000142   200007 755100                    STA     ATTEN,,AUTO

     5946     1057    2           ALERT = TH_THRESH.ALERT(THRESH_INDX);

   1057  3 000143   200650 235106                    LDA     TH_THRESH+3,QL,AUTO
         3 000144   200010 755100                    STA     ALERT,,AUTO

     5947     1058    2           CALL XUD$UTS_ADJ_25TH (OLDEST_UTS, CURUTS, -(30*%UTS_25TH_DAY#));
PL6.E3A0      #009=THF$UPR File=THF$FORMAT.:E05TSI                               WED 07/30/97 06:18 Page:1142

   1058  3 000145   000016 236000 4                  LDQ     14
         3 000146   202314 756100                    STQ     TH_THRESH+807,,AUTO
         3 000147   000000 236000 4                  LDQ     0
         3 000150   202313 756100                    STQ     TH_THRESH+806,,AUTO
         3 000151   200055 630500                    EPPR0   OLDEST_UTS,,AUTO
         3 000152   202312 450500                    STP0    TH_THRESH+805,,AUTO
         3 000153   202312 630500                    EPPR0   TH_THRESH+805,,AUTO
         3 000154   000021 631400 xsym               EPPR1   B_VECTNIL+17
         3 000155   000000 701000 xent               TSX1    XUD$UTS_ADJ_25TH
         3 000156   000000 011000                    NOP     0

     5948     1059    2           UTS = OLDEST_UTS;

   1059  3 000157   200055 235100                    LDA     OLDEST_UTS,,AUTO
         3 000160   200054 755100                    STA     UTS,,AUTO

     5949     1060    3           DO WHILE (UTS <= CURUTS);

   1060  3 000161   000026 236000 1                  LDQ     CURUTS
         3 000162   200054 116100                    CMPQ    UTS,,AUTO
         3 000163   000324 602000 3                  TNC     s:1099

     5950     1061    3              COUNT = 0;

   1061  3 000164   200056 450100                    STZ     COUNT,,AUTO

     5951     1062    3              CONNECTS = 0;

   1062  3 000165   200057 450100                    STZ     CONNECTS,,AUTO

     5952     1063    3              PVAL(J) = 10000;             /* %100                               */

   1063  3 000166   023420 235007                    LDA     10000,DL
         3 000167   200052 720100                    LXL0    J,,AUTO
         3 000170   200011 755110                    STA     PVAL,X0,AUTO

PL6.E3A0      #009=THF$UPR File=THF$FORMAT.:E05TSI                               WED 07/30/97 06:18 Page:1143
     5953     1064    3              CALL THG$GETREC(%DEVHIST,DEVNAME,UTS) ALTRET(NOT_THERE);

   1064  3 000171   200054 630500                    EPPR0   UTS,,AUTO
         3 000172   202314 450500                    STP0    TH_THRESH+807,,AUTO
         3 000173   200003 631500                    EPPR1   DEVNAME,,AUTO
         3 000174   202313 451500                    STP1    TH_THRESH+806,,AUTO
         3 000175   000013 236000 4                  LDQ     11
         3 000176   202312 756100                    STQ     TH_THRESH+805,,AUTO
         3 000177   202312 630500                    EPPR0   TH_THRESH+805,,AUTO
         3 000200   000021 631400 xsym               EPPR1   B_VECTNIL+17
         3 000201   000000 701000 xent               TSX1    THG$GETREC
         3 000202   000304 702000 3                  TSX2    NOT_THERE

     5954     1065    3              IF (SUBSTR(DEVNAME,0,2) = 'UC') OR

   1065  3 000203   200003 220100                    LDX0    DEVNAME,,AUTO
         3 000204   000263 100000 2                  CMPX0   DEV_FMT+8
         3 000205   000212 600000 3                  TZE     s:1070
         3 000206   000264 100000 2                  CMPX0   DEV_FMT+9
         3 000207   000212 600000 3                  TZE     s:1070
         3 000210   000265 100000 2                  CMPX0   DEV_FMT+10
         3 000211   000225 601000 3                  TNZ     s:1075

     5955     1066    3                 (SUBSTR(DEVNAME,0,2) = 'TC') OR
     5956     1067    3                 (SUBSTR(DEVNAME,0,2) = 'DC')
     5957     1068    3                 THEN                      /* MPC RECORD                         */
     5958     1069    4                 DO;

     5959     1070    4                    MPCREC = TH_RECORD.PTR$->TH$MPC;

   1070  3 000212   000001 470400 xsym               LDP0    TH_RECORD+1
         3 000213   000100 100500                    MLR     fill='000'O
         3 000214   000000 000510                    ADSC9   0,,PR0                   cn=0,n=328
         3 000215   200060 000510                    ADSC9   MPCREC,,AUTO             cn=0,n=328

     5960     1071    4                    COUNT = COUNT + MPCREC.COUNT;

PL6.E3A0      #009=THF$UPR File=THF$FORMAT.:E05TSI                               WED 07/30/97 06:18 Page:1144
   1071  3 000216   200056 236100                    LDQ     COUNT,,AUTO
         3 000217   200060 036100                    ADLQ    MPCREC,,AUTO
         3 000220   200056 756100                    STQ     COUNT,,AUTO

     5961     1072    4                    CONNECTS = CONNECTS + MPCREC.CONNECTS;

   1072  3 000221   200057 236100                    LDQ     CONNECTS,,AUTO
         3 000222   200061 036100                    ADLQ    MPCREC+1,,AUTO
         3 000223   200057 756100                    STQ     CONNECTS,,AUTO

     5962     1073    4                 END;                      /* IF MPC                             */

   1073  3 000224   000271 710000 3                  TRA     s:1093

     5963     1074    3                 ELSE
     5964     1075    3              IF SUBSTR(DEVNAME,0,3) = 'IOM'

   1075  3 000225   200003 236100                    LDQ     DEVNAME,,AUTO
         3 000226   000266 676000 2                  ERQ     DEV_FMT+11
         3 000227   000004 376000 4                  ANQ     4
         3 000230   000244 601000 3                  TNZ     s:1084

     5965     1076    3                 THEN                      /* IOM RECORD                         */
     5966     1077    4                 DO;

     5967     1078    4                    IOMREC = TH_RECORD.PTR$->TH$IOM;

   1078  3 000231   000001 470400 xsym               LDP0    TH_RECORD+1
         3 000232   000100 100500                    MLR     fill='000'O
         3 000233   000000 002060                    ADSC9   0,,PR0                   cn=0,n=1072
         3 000234   200202 002060                    ADSC9   IOMREC,,AUTO             cn=0,n=1072

     5968     1079    4                    COUNT = COUNT + IOMREC.COUNT;

   1079  3 000235   200056 236100                    LDQ     COUNT,,AUTO
         3 000236   200615 036100                    ADLQ    IOMREC+267,,AUTO
         3 000237   200056 756100                    STQ     COUNT,,AUTO
PL6.E3A0      #009=THF$UPR File=THF$FORMAT.:E05TSI                               WED 07/30/97 06:18 Page:1145

     5969     1080    4                    CONNECTS = CONNECTS + IOMREC.CONNECTS;

   1080  3 000240   200057 236100                    LDQ     CONNECTS,,AUTO
         3 000241   200614 036100                    ADLQ    IOMREC+266,,AUTO
         3 000242   200057 756100                    STQ     CONNECTS,,AUTO

     5970     1081    4                 END;

   1081  3 000243   000271 710000 3                  TRA     s:1093

     5971     1082    3                 ELSE
     5972     1083    4                 DO;

     5973     1084    4                    DEVREC = TH_RECORD.PTR$->TH$DEV;

   1084  3 000244   000001 470400 xsym               LDP0    TH_RECORD+1
         3 000245   000100 100500                    MLR     fill='000'O
         3 000246   000000 000134                    ADSC9   0,,PR0                   cn=0,n=92
         3 000247   200616 000134                    ADSC9   DEVREC,,AUTO             cn=0,n=92

     5974     1085    5                    DO K = 0 TO 25;

   1085  3 000250   200053 450100                    STZ     K,,AUTO

     5975     1086    5                       COUNT = COUNT + DEVREC.COUNT(K);

   1086  3 000251   200053 235100                    LDA     K,,AUTO
         3 000252   000001 735000                    ALS     1
         3 000253   000100 101505                    MRL     fill='000'O
         3 000254   200627 000002                    ADSC9   DEVREC+9,A,AUTO          cn=0,n=2
         3 000255   202312 000004                    ADSC9   TH_THRESH+805,,AUTO      cn=0,n=4
         3 000256   202312 236100                    LDQ     TH_THRESH+805,,AUTO
         3 000257   200056 036100                    ADLQ    COUNT,,AUTO
         3 000260   200056 756100                    STQ     COUNT,,AUTO

     5976     1087    5                    END;                   /* DO K                               */
PL6.E3A0      #009=THF$UPR File=THF$FORMAT.:E05TSI                               WED 07/30/97 06:18 Page:1146

   1087  3 000261   200053 235100                    LDA     K,,AUTO
         3 000262   000001 035007                    ADLA    1,DL
         3 000263   200053 755100                    STA     K,,AUTO
         3 000264   000032 115007                    CMPA    26,DL
         3 000265   000251 602000 3                  TNC     s:1086

     5977     1088    4                    CONNECTS = CONNECTS + DEVREC.CONNECTS;

   1088  3 000266   200057 236100                    LDQ     CONNECTS,,AUTO
         3 000267   200644 036100                    ADLQ    DEVREC+22,,AUTO
         3 000270   200057 756100                    STQ     CONNECTS,,AUTO

     5978     1089    4                 END;

     5979     1090        /*E* ERROR:THE-E$TH_FEP_IN_UPR-0
     5980     1091             MESSAGE: Unit performance reports for FEPs are currently not available.
     5981     1092             DESCRIPTION: Not supported as yet.       */
     5982     1093    3              CALL THP$STATS(COUNT,CONNECTS,PVAL(J));

   1093  3 000271   200052 720100                    LXL0    J,,AUTO
         3 000272   200011 630510                    EPPR0   PVAL,X0,AUTO
         3 000273   202314 450500                    STP0    TH_THRESH+807,,AUTO
         3 000274   200057 631500                    EPPR1   CONNECTS,,AUTO
         3 000275   202313 451500                    STP1    TH_THRESH+806,,AUTO
         3 000276   200056 633500                    EPPR3   COUNT,,AUTO
         3 000277   202312 453500                    STP3    TH_THRESH+805,,AUTO
         3 000300   202312 630500                    EPPR0   TH_THRESH+805,,AUTO
         3 000301   000021 631400 xsym               EPPR1   B_VECTNIL+17
         3 000302   000000 701000 xent               TSX1    THP$STATS
         3 000303   000000 011000                    NOP     0

     5983     1094    3      NOT_THERE:
     5984     1095    3              J = J + 1;

   1095  3 000304   200052 235100       NOT_THERE    LDA     J,,AUTO
         3 000305   000001 035007                    ADLA    1,DL
PL6.E3A0      #009=THF$UPR File=THF$FORMAT.:E05TSI                               WED 07/30/97 06:18 Page:1147
         3 000306   200052 755100                    STA     J,,AUTO

     5985     1096    3              CALL XUD$UTS_ADJ_25TH(UTS,UTS,%UTS_25TH_DAY#);

   1096  3 000307   000017 236000 4                  LDQ     15
         3 000310   202314 756100                    STQ     TH_THRESH+807,,AUTO
         3 000311   200054 630500                    EPPR0   UTS,,AUTO
         3 000312   202313 450500                    STP0    TH_THRESH+806,,AUTO
         3 000313   200054 631500                    EPPR1   UTS,,AUTO
         3 000314   202312 451500                    STP1    TH_THRESH+805,,AUTO
         3 000315   202312 630500                    EPPR0   TH_THRESH+805,,AUTO
         3 000316   000021 631400 xsym               EPPR1   B_VECTNIL+17
         3 000317   000000 701000 xent               TSX1    XUD$UTS_ADJ_25TH
         3 000320   000000 011000                    NOP     0

     5986     1097    3           END;                            /* DO UTS                             */

   1097  3 000321   000026 236000 1                  LDQ     CURUTS
         3 000322   200054 116100                    CMPQ    UTS,,AUTO
         3 000323   000164 603000 3                  TRC     s:1061

     5987     1098
     5988     1099    2           CALL THW$WRITE(UPR_HDR);

   1099  3 000324   000020 630400 4                  EPPR0   16
         3 000325   000017 631400 xsym               EPPR1   B_VECTNIL+15
         3 000326   000000 701000 xent               TSX1    THW$WRITE
         3 000327   000000 011000                    NOP     0

     5989     1100    2           ATTEN_FLG = %FALSE;

   1100  3 000330   000024 450000 1                  STZ     ATTEN_FLG

     5990     1101    2           ALERT_FLG = %FALSE;

   1101  3 000331   000025 450000 1                  STZ     ALERT_FLG

PL6.E3A0      #009=THF$UPR File=THF$FORMAT.:E05TSI                               WED 07/30/97 06:18 Page:1148
     5991     1102    3           DO I = 0 TO LINES_PER_GRAPH - 1;

   1102  3 000332   200051 450100                    STZ     I,,AUTO
         3 000333   000426 710000 3                  TRA     s:1124+3

     5992     1103    3              GRAPH_STRUCT.GRAPH = BLANKS;

   1103  3 000334   000000 100400                    MLR     fill='000'O
         3 000335   000000 000075 2                  ADSC9   BLANKS                   cn=0,n=61
         3 000336   000003 600075 1                  ADSC9   GRAPH_TEXT+1             cn=3,n=61

     5993     1104    3              GRAPH_STRUCT.LEFT_SIDE = LEFT_SIDE(I);

   1104  3 000337   200051 236100                    LDQ     I,,AUTO
         3 000340   000007 402007                    MPY     7,DL
         3 000341   040000 100406                    MLR     fill='040'O
         3 000342   000060 000007 2                  ADSC9   LEFT_SIDE,Q              cn=0,n=7
         3 000343   000002 000007 1                  ADSC9   GRAPH_TEXT               cn=0,n=7

     5994     1105    3              IF (ATTEN = Y_AXIS_PVAL(I)) OR

   1105  3 000344   200051 720100                    LXL0    I,,AUTO
         3 000345   200007 236100                    LDQ     ATTEN,,AUTO
         3 000346   000113 116010 2                  CMPQ    Y_AXIS_PVAL,X0
         3 000347   000354 600000 3                  TZE     s:1109
         3 000350   000361 602000 3                  TNC     s:1112
         3 000351   000361 600000 3                  TZE     s:1112
         3 000352   000024 234000 1                  SZN     ATTEN_FLG
         3 000353   000361 604000 3                  TMI     s:1112

     5995     1106    3                 (ATTEN > Y_AXIS_PVAL(I) AND NOT ATTEN_FLG)
     5996     1107    3                 THEN                      /* OUTPUT ATTEN LINE                  */
     5997     1108    4                 DO;

     5998     1109    4                    ATTEN_FLG = %TRUE;

   1109  3 000354   400000 236003                    LDQ     -131072,DU
PL6.E3A0      #009=THF$UPR File=THF$FORMAT.:E05TSI                               WED 07/30/97 06:18 Page:1149
         3 000355   000024 756000 1                  STQ     ATTEN_FLG

     5999     1110    4                    GRAPH_STRUCT.GRAPH = ATTEN_LINE;

   1110  3 000356   000000 100400                    MLR     fill='000'O
         3 000357   000020 000075 2                  ADSC9   ATTEN_LINE               cn=0,n=61
         3 000360   000003 600075 1                  ADSC9   GRAPH_TEXT+1             cn=3,n=61

     6000     1111    4                 END;                      /* IF                                 */

     6001     1112    3              IF (ALERT = Y_AXIS_PVAL(I)) OR

   1112  3 000361   200010 236100                    LDQ     ALERT,,AUTO
         3 000362   000113 116010 2                  CMPQ    Y_AXIS_PVAL,X0
         3 000363   000370 600000 3                  TZE     s:1116
         3 000364   000375 602000 3                  TNC     s:1119
         3 000365   000375 600000 3                  TZE     s:1119
         3 000366   000025 234000 1                  SZN     ALERT_FLG
         3 000367   000375 604000 3                  TMI     s:1119

     6002     1113    3                 (ALERT > Y_AXIS_PVAL(I) AND NOT ALERT_FLG)
     6003     1114    3                 THEN                      /* OUTPUT ALERT LINE                  */
     6004     1115    4                 DO;

     6005     1116    4                    ALERT_FLG = %TRUE;

   1116  3 000370   400000 236003                    LDQ     -131072,DU
         3 000371   000025 756000 1                  STQ     ALERT_FLG

     6006     1117    4                    GRAPH_STRUCT.GRAPH = ALERT_LINE;

   1117  3 000372   000000 100400                    MLR     fill='000'O
         3 000373   000040 000075 2                  ADSC9   ALERT_LINE               cn=0,n=61
         3 000374   000003 600075 1                  ADSC9   GRAPH_TEXT+1             cn=3,n=61

     6007     1118    4                 END;                      /* IF                                 */

PL6.E3A0      #009=THF$UPR File=THF$FORMAT.:E05TSI                               WED 07/30/97 06:18 Page:1150
     6008     1119    4              DO J = 0 TO DAYS_PER_GRAPH;

   1119  3 000375   200052 450100                    STZ     J,,AUTO
         3 000376   000414 710000 3                  TRA     s:1122+3

     6009     1120    4                 IF PVAL(J) <= Y_AXIS_PVAL(I)

   1120  3 000377   200052 720100                    LXL0    J,,AUTO
         3 000400   200051 721100                    LXL1    I,,AUTO
         3 000401   000113 236011 2                  LDQ     Y_AXIS_PVAL,X1
         3 000402   200011 116110                    CMPQ    PVAL,X0,AUTO
         3 000403   000411 602000 3                  TNC     s:1122

     6010     1121    4                    THEN GRAPH_STRUCT.GRAPH(2 * J) = '*';

   1121  3 000404   200052 235100                    LDA     J,,AUTO
         3 000405   000001 735000                    ALS     1
         3 000406   040005 100400                    MLR     fill='040'O
         3 000407   000021 000001 4                  ADSC9   17                       cn=0,n=1
         3 000410   000003 600001 1                  ADSC9   GRAPH_TEXT+1,A           cn=3,n=1

     6011     1122    4              END;                         /* DO J                               */

   1122  3 000411   200052 235100                    LDA     J,,AUTO
         3 000412   000001 035007                    ADLA    1,DL
         3 000413   200052 755100                    STA     J,,AUTO
         3 000414   000133 236000 2                  LDQ     DAYS_PER_GRAPH
         3 000415   200052 116100                    CMPQ    J,,AUTO
         3 000416   000377 603000 3                  TRC     s:1120

     6012     1123    3              CALL THW$WRITE(VECTOR(UPR_LINE),VECTOR(GRAPH_TEXT));

   1123  3 000417   000026 630400 4                  EPPR0   22
         3 000420   000020 631400 xsym               EPPR1   B_VECTNIL+16
         3 000421   000000 701000 xent               TSX1    THW$WRITE
         3 000422   000000 011000                    NOP     0

PL6.E3A0      #009=THF$UPR File=THF$FORMAT.:E05TSI                               WED 07/30/97 06:18 Page:1151
     6013     1124    3           END;                            /* DO I                               */

   1124  3 000423   200051 235100                    LDA     I,,AUTO
         3 000424   000001 035007                    ADLA    1,DL
         3 000425   200051 755100                    STA     I,,AUTO
         3 000426   200051 236100                    LDQ     I,,AUTO
         3 000427   000132 116000 2                  CMPQ    LINES_PER_GRAPH
         3 000430   000334 602000 3                  TNC     s:1103

     6014     1125    2           CALL THW$WRITE(VECTOR(FOOTER));

   1125  3 000431   000032 630400 4                  EPPR0   26
         3 000432   000017 631400 xsym               EPPR1   B_VECTNIL+15
         3 000433   000000 701000 xent               TSX1    THW$WRITE
         3 000434   000000 011000                    NOP     0

     6015     1126    2   ENDLOOP:
     6016     1127    2        END;                          /* DO DEV_INDX = 0 TO TH_NUM_REP_DEVS - 1  */

   1127  3 000435   200006 235100       ENDLOOP      LDA     DEV_INDX,,AUTO
         3 000436   000001 035007                    ADLA    1,DL
         3 000437   200006 755100                    STA     DEV_INDX,,AUTO
         3 000440   200006 236100                    LDQ     DEV_INDX,,AUTO
         3 000441   000000 116000 xsym               CMPQ    TH_NUM_REP_DEVS
         3 000442   000035 602000 3                  TNC     s:1030

     6017     1128    1   END THF$UPR;

   1128  3 000443   000000 702200 xent               TSX2  ! X66_ARET
     6018     1129        %EOD;

PL6.E3A0      #009=THF$UPR File=THF$FORMAT.:E05TSI                               WED 07/30/97 06:18 Page:1152
--  Include file information  --

   XUD_UTS_M.:E05TOU  is referenced.
   TH$HIST.:E05TOU  is referenced.
   TH_PERR_C.:E05TOU  is referenced.
   TH_DATA_R.:E05TOU  cannot be made into a system file and is referenced.
   B_STRINGS_C.:E05TOU  is referenced.
   TH_SUBS_C.:E05TOU  is referenced.
   CP_6.:E05TOU  cannot be made into a system file and is referenced.
   B$JIT_C.:E05TOU  was found in the system file and is never referenced.
   CP_6_C.:E05TOU  was found in the system file and is referenced.
      No diagnostics issued in procedure THF$UPR.
PL6.E3A0      #009=THF$UPR File=THF$FORMAT.:E05TSI                               WED 07/30/97 06:18 Page:1153

 **** Variables and constants ****

  ****  Section 001  Data  THF$UPR

  ****  Scalars and arrays  ****
OctLoc.c.b A Datatyp(siz) R M Lvl/name                 OctLoc.c.b A Datatyp(siz) R M Lvl/name

    25-0-0/b BIT         r     1 ALERT_FLG                 24-0-0/b BIT         r     1 ATTEN_FLG
    26-0-0/w UBIN        r     1 CURUTS                    34-0-0/d STRC(432)   r     1 CUR_UTS
    32-0-0/d BIT (72)    r     1 DEV_HDR                    2-0-0/c STRC(621)   r     1 GRAPH_STRUCT
     2-0-0/c CHAR(69)    r     1 GRAPH_TEXT                 0-0-0/c CHAR(8)     r     1 ONE
    30-0-0/d BIT (72)    r     1 UPR_HDR

  ****  Section 002 RoData THF$UPR

  ****  Scalars and arrays  ****
OctLoc.c.b A Datatyp(siz) R M Lvl/name                 OctLoc.c.b A Datatyp(siz) R M Lvl/name

    40-0-0/c CHAR        r     1 ALERT_LINE(0:60)
    20-0-0/c CHAR        r     1 ATTEN_LINE(0:60)
     0-0-0/c CHAR        r     1 BLANKS(0:60)             133-0-0/w UBIN        r     1 DAYS_PER_GRAPH
   253-0-0/c CHAR(17)    r     1 DEV_FMT                  231-0-0/c CHAR(72)    r     1 FOOTER
    60-0-0/c CHAR(7)     r     1 LEFT_SIDE(0:14)
   132-0-0/w UBIN        r     1 LINES_PER_GRAPH          134-0-0/c CHAR(236)   r     1 UPR_FMT
   227-0-0/c CHAR(6)     r     1 UPR_LINE
   113-0-0/w UBIN        r     1 Y_AXIS_PVAL(0:14)

  ****  Auto variables  ****

  ****  Scalars and arrays  ****
OctLoc.c.b A Datatyp(siz) R M Lvl/name                 OctLoc.c.b A Datatyp(siz) R M Lvl/name

    10-0-0/w UBIN        r     1 ALERT                      7-0-0/w UBIN        r     1 ATTEN
    57-0-0/w UBIN        r     1 CONNECTS                  56-0-0/w UBIN        r     1 COUNT
     3-0-0/c CHAR(8)     r     1 DEVNAME                  616-0-0/w STRC(828)   r     1 DEVREC
     6-0-0/w UBIN        r     1 DEV_INDX                  51-0-0/w UBIN        r     1 I
   202-0-0/w STRC(9648)  r     1 IOMREC                    52-0-0/w UBIN        r     1 J
PL6.E3A0      #009=THF$UPR File=THF$FORMAT.:E05TSI                               WED 07/30/97 06:18 Page:1154
    53-0-0/w UBIN        r     1 K                         60-0-0/w STRC(2952)  r     1 MPCREC
    55-0-0/w UBIN        r     1 OLDEST_UTS                11-0-0/w UBIN        r     1 PVAL(0:30)
     5-0-0/w UBIN        r     1 THRESH_INDX
   645-0-0/w STRC(144)   r     1 TH_THRESH(0:200)
    54-0-0/w UBIN        r     1 UTS

  ****  SYMREF variables  ****

  ****  Scalars and arrays  ****
OctLoc.c.b A Datatyp(siz) R M Lvl/name                 OctLoc.c.b A Datatyp(siz) R M Lvl/name

     0-0-0/w UBIN        r     1 TH_NUM_REP_DEVS            0-0-0/d STRC(72)    r     1 TH_RECORD
     0-0-0/w CHAR(8)     r     1 TH_REP_DEVS(0:511)

  ****  BASED and DCB variables  ****

  ****  Scalars and arrays  ****
OctLoc.c.b A Datatyp(siz) R M Lvl/name                 OctLoc.c.b A Datatyp(siz) R M Lvl/name

     0-0-0/w STRC(828)   r     1 TH$DEV                     0-0-0/w STRC(9648)  r     1 TH$IOM
     0-0-0/w STRC(2952)  r     1 TH$MPC
     0-0-0/w STRC(144)   r     1 TH$THRESH(0:200)


   Procedure THF$UPR requires 292 words for executable code.
   Procedure THF$UPR requires 1232 words of local(AUTO) storage.
PL6.E3A0      #009=THF$UPR File=THF$FORMAT.:E05TSI                               WED 07/30/97 06:18 Page:1155
          *** CROSS REFERENCE LISTING ***
**     DENOTES     IDENTIFIER DEFINITION
<<                 IDENTIFIER'S VALUE SET
>>                 IDENTIFIER'S VALUE USED
<>                 IDENTIFIER SET AND/OR USED
--                 IDENTIFIER REFERENCED
PL6.E3A0      #009=THF$UPR File=THF$FORMAT.:E05TSI                               WED 07/30/97 06:18 Page:1156
          MINI XREF LISTING

ALERT
       808**DCL      1057<<ASSIGN   1112>>IF       1112>>IF
ALERT_FLG
       810**DCL      1101<<ASSIGN   1112>>IF       1116<<ASSIGN
ALERT_LINE
       780**DCL      1117>>ASSIGN
ATTEN
       807**DCL      1056<<ASSIGN   1105>>IF       1105>>IF
ATTEN_FLG
       809**DCL      1100<<ASSIGN   1105>>IF       1109<<ASSIGN
ATTEN_LINE
       779**DCL      1110>>ASSIGN
BLANKS
       778**DCL      1103>>ASSIGN
CONNECTS
       822**DCL      1062<<ASSIGN   1072<<ASSIGN   1072>>ASSIGN   1080<<ASSIGN   1080>>ASSIGN   1088<<ASSIGN
      1088>>ASSIGN   1093<>CALL
COUNT
       821**DCL      1061<<ASSIGN   1071<<ASSIGN   1071>>ASSIGN   1079<<ASSIGN   1079>>ASSIGN   1086<<ASSIGN
      1086>>ASSIGN   1093<>CALL
CURUTS
       820**DCL      1018--DCLINIT  1026<>CALL     1026<>CALL     1027<<ASSIGN   1027>>ASSIGN   1028<>CALL
      1028>>CALL     1058<>CALL     1060>>DOWHILE
CUR_UTS
      1014**DCL      1025<>CALL
CUR_UTS.V
      1018**DCL      1014--DCLINIT
DAYS_PER_GRAPH
       817**DCL      1119>>DOINDEX
DEVNAME
       781**DCL      1030<<ASSIGN   1031>>IF       1035>>IF       1045>>IF       1047--CALL     1053>>DOWHILE
      1064<>CALL     1065>>IF       1065>>IF       1065>>IF       1075>>IF
PL6.E3A0      #009=THF$UPR File=THF$FORMAT.:E05TSI                               WED 07/30/97 06:18 Page:1157
DEVREC
       923**DCL      1084<<ASSIGN
DEVREC.CONNECTS
       941**DCL      1088>>ASSIGN
DEVREC.COUNT
       940**DCL      1086>>ASSIGN
DEV_FMT
       833**DCL       834--DCLINIT
DEV_HDR
       834**DCL      1047<>CALL
DEV_INDX
       783**DCL      1029<<DOINDEX  1030>>ASSIGN
ENDLOOP
      1127**LABEL    1033--GOTO     1040--GOTO     1046--GOTO
FOOTER
       831**DCL      1125--CALL
GRAPH_STRUCT.GRAPH
       787**DCL      1103<<ASSIGN   1110<<ASSIGN   1117<<ASSIGN   1121<<ASSIGN
GRAPH_STRUCT.LEFT_SIDE
       786**DCL      1104<<ASSIGN
GRAPH_STRUCT.RIGHT_SIDE
       788**DCL      1024<<ASSIGN
GRAPH_TEXT
       784**DCL       785--REDEF    1123--CALL
I
       813**DCL      1102<<DOINDEX  1104>>ASSIGN   1105>>IF       1105>>IF       1112>>IF       1112>>IF
      1120>>IF
IOMREC
       891**DCL      1078<<ASSIGN
IOMREC.CONNECTS
       898**DCL      1080>>ASSIGN
IOMREC.COUNT
       899**DCL      1079>>ASSIGN
J
       814**DCL      1049<<ASSIGN   1063>>ASSIGN   1093>>CALL     1095<<ASSIGN   1095>>ASSIGN   1119<<DOINDEX
      1120>>IF       1121>>ASSIGN
PL6.E3A0      #009=THF$UPR File=THF$FORMAT.:E05TSI                               WED 07/30/97 06:18 Page:1158
K
       815**DCL      1085<<DOINDEX  1086>>ASSIGN
LEFT_SIDE
       789**DCL      1104>>ASSIGN
LINES_PER_GRAPH
       816**DCL      1102>>DOINDEX
M$TIME
        86**DCL-ENT  1025--CALL
MPCREC
       859**DCL      1070<<ASSIGN
MPCREC.CONNECTS
       861**DCL      1072>>ASSIGN
MPCREC.COUNT
       860**DCL      1071>>ASSIGN
NOT_THERE
      1095**LABEL    1064--CALLALT
OLDEST_UTS
       819**DCL      1058<>CALL     1059>>ASSIGN
ONE
       777**DCL      1050<>CALL
PVAL
       811**DCL      1048<<ASSIGN   1063<<ASSIGN   1093<>CALL     1120>>IF
TH$DEV
       902**DCL      1084>>ASSIGN
TH$IOM
       880**DCL      1078>>ASSIGN
TH$MPC
       838**DCL      1070>>ASSIGN
TH$THRESH
       944**DCL      1051>>ASSIGN
THG$GETREC
       773**DCL-ENT  1050--CALL     1064--CALL
THM$ERRMSG
       774**DCL-ENT  1032--CALL     1039--CALL
THP$STATS
       772**DCL-ENT  1093--CALL
PL6.E3A0      #009=THF$UPR File=THF$FORMAT.:E05TSI                               WED 07/30/97 06:18 Page:1159
THRESH_INDX
       782**DCL      1052<<ASSIGN   1053>>DOWHILE  1054<<ASSIGN   1054>>ASSIGN   1056>>ASSIGN   1057>>ASSIGN
THW$WRITE
       771**DCL-ENT  1047--CALL     1099--CALL     1123--CALL     1125--CALL
TH_CONSTRAINTS.E_BY_B
       484**DCL       484--REDEF
TH_CONSTRAINTS.M_BY_B
       483**DCL       483--REDEF
TH_CONSTRAINTS.TYPES
       481**DCL       481--REDEF
TH_DEFAULT.E_BY_B
       492**DCL       492--REDEF
TH_DEFAULT.M_BY_B
       491**DCL       491--REDEF
TH_DEFAULT.TYPES
       489**DCL       489--REDEF
TH_NUM_REP_DEVS
       506**DCL      1029>>DOINDEX
TH_RECORD.PTR$
       509**DCL      1051>>ASSIGN   1070>>ASSIGN   1078>>ASSIGN   1084>>ASSIGN
TH_REP_DEVS
       507**DCL      1030>>ASSIGN
TH_SAVE.E_BY_B
       500**DCL       500--REDEF
TH_SAVE.M_BY_B
       498**DCL       498--REDEF
TH_SAVE.TYPES
       496**DCL       497--REDEF
TH_THRESH
       950**DCL      1051<<ASSIGN
TH_THRESH.ALERT
       953**DCL      1057>>ASSIGN
TH_THRESH.ATTEN
       952**DCL      1056>>ASSIGN
TH_THRESH.DEVNAME
       951**DCL      1053>>DOWHILE
PL6.E3A0      #009=THF$UPR File=THF$FORMAT.:E05TSI                               WED 07/30/97 06:18 Page:1160
TH_XSA_BUF_VECTOR
       516**DCL       516--REDEF
UPR_FMT
       824**DCL       829--DCLINIT
UPR_HDR
       829**DCL      1099<>CALL
UPR_LINE
       830**DCL      1123--CALL
UTS
       818**DCL      1059<<ASSIGN   1060>>DOWHILE  1064<>CALL     1096<>CALL     1096<>CALL
XUD$UTS_ADJ_25TH
       980**DCL-ENT  1028--CALL     1058--CALL     1096--CALL
XUD$UTS_DIFF_SEC
       962**DCL-ENT  1026--CALL
Y_AXIS_PVAL
       804**DCL      1105>>IF       1105>>IF       1112>>IF       1112>>IF       1120>>IF

