PL6.E3A0      #001=THF$RAW File=THF$FORMAT.:E05TSI                               WED 07/30/97 06:08 Page:476
   5832  3 016404   040100 100400                    MLR     fill='040'O
         3 016405   002057 000030 1                  ADSC9   BOARD_64K+624            cn=0,n=24
         3 016406   200315 000120                    ADSC9   MDS_TEXT,,AUTO           cn=0,n=80

     2527     5833    3         GOTO FOUND_OCTET;

   5833  3 016407   017304 710000 3                  TRA     FOUND_OCTET

     2528     5834    3      END;
     2529     5835    3      ELSE IF DEVTBL.CODE(I) = 1 THEN DO;       /* BYTE 1 - REFERENCE # */

   5835  3 016410   200010 236100                    LDQ     I,,AUTO
         3 016411   000012 402007                    MPY     10,DL
         3 016412   000000 236106                    LDQ     0,QL,PR0
         3 016413   777000 376003                    ANQ     -512,DU
         3 016414   001000 116003                    CMPQ    512,DU
         3 016415   016435 601000 3                  TNZ     s:5839

     2530     5836    3        CALL INSERT(MDS_TEXT,19,2,BINHEX(XSTATUS_NIBBLE(2)), BINHEX(XSTATUS_NIBBLE(3))
              5836                  );

   5836  3 016416   200247 236100                    LDQ     XSTATUS_BYTE,,AUTO
         3 016417   000030 772000                    QRL     24
         3 016420   000017 376007                    ANQ     15,DL
         3 016421   200534 756100                    STQ     CHIP#+2,,AUTO
         3 016422   200247 236100                    LDQ     XSTATUS_BYTE,,AUTO
         3 016423   000024 772000                    QRL     20
         3 016424   000017 376007                    ANQ     15,DL
         3 016425   200534 235100                    LDA     CHIP#+2,,AUTO
         3 016426   040100 100405                    MLR     fill='040'O
         3 016427   000122 000001 1                  ADSC9   BINHEX,A                 cn=0,n=1
         3 016430   200321 600001                    ADSC9   MDS_TEXT+4,,AUTO         cn=3,n=1
         3 016431   040100 100406                    MLR     fill='040'O
         3 016432   000122 000001 1                  ADSC9   BINHEX,Q                 cn=0,n=1
         3 016433   200322 000001                    ADSC9   MDS_TEXT+5,,AUTO         cn=0,n=1

     2531     5837    3         GOTO FOUND_OCTET;
PL6.E3A0      #001=THF$RAW File=THF$FORMAT.:E05TSI                               WED 07/30/97 06:08 Page:477

   5837  3 016434   017304 710000 3                  TRA     FOUND_OCTET

     2532     5838    3      END;
     2533     5839    3      ELSE IF DEVTBL.CODE(I) = 2 THEN DO;       /* BYTE 2 - TRANSACTION # */

   5839  3 016435   200010 236100                    LDQ     I,,AUTO
         3 016436   000012 402007                    MPY     10,DL
         3 016437   000000 236106                    LDQ     0,QL,PR0
         3 016440   777000 376003                    ANQ     -512,DU
         3 016441   002000 116003                    CMPQ    1024,DU
         3 016442   016462 601000 3                  TNZ     s:5843

     2534     5840    3        CALL INSERT(MDS_TEXT,25,2,BINHEX(XSTATUS_NIBBLE(4)), BINHEX(XSTATUS_NIBBLE(5))
              5840                  );

   5840  3 016443   200247 236100                    LDQ     XSTATUS_BYTE,,AUTO
         3 016444   000020 772000                    QRL     16
         3 016445   000017 376007                    ANQ     15,DL
         3 016446   200534 756100                    STQ     CHIP#+2,,AUTO
         3 016447   200247 236100                    LDQ     XSTATUS_BYTE,,AUTO
         3 016450   000014 772000                    QRL     12
         3 016451   000017 376007                    ANQ     15,DL
         3 016452   200534 235100                    LDA     CHIP#+2,,AUTO
         3 016453   040100 100405                    MLR     fill='040'O
         3 016454   000122 000001 1                  ADSC9   BINHEX,A                 cn=0,n=1
         3 016455   200323 200001                    ADSC9   MDS_TEXT+6,,AUTO         cn=1,n=1
         3 016456   040100 100406                    MLR     fill='040'O
         3 016457   000122 000001 1                  ADSC9   BINHEX,Q                 cn=0,n=1
         3 016460   200323 400001                    ADSC9   MDS_TEXT+6,,AUTO         cn=2,n=1

     2535     5841    3         GOTO FOUND_OCTET;

   5841  3 016461   017304 710000 3                  TRA     FOUND_OCTET

     2536     5842    3      END;
     2537     5843    3      ELSE IF DEVTBL.CODE(I) = 3 THEN DO;       /* BYTE3 - OP CODE */
PL6.E3A0      #001=THF$RAW File=THF$FORMAT.:E05TSI                               WED 07/30/97 06:08 Page:478

   5843  3 016462   200010 236100                    LDQ     I,,AUTO
         3 016463   000012 402007                    MPY     10,DL
         3 016464   000000 236106                    LDQ     0,QL,PR0
         3 016465   777000 376003                    ANQ     -512,DU
         3 016466   003000 116003                    CMPQ    1536,DU
         3 016467   016551 601000 3                  TNZ     s:5864

     2538     5844    4         DO X = 0 TO 41;

   5844  3 016470   200011 450100                    STZ     X,,AUTO

     2539     5845    4            IF XSTATUS_BYTE(3) = MDS_OP_CODE_TBL.CODE(X)

   5845  3 016471   200011 236100                    LDQ     X,,AUTO
         3 016472   000012 402007                    MPY     10,DL
         3 016473   000000 236006 xsym               LDQ     MDS_OP_CODE_TBL,QL
         3 016474   000033 772000                    QRL     27
         3 016475   200534 756100                    STQ     CHIP#+2,,AUTO
         3 016476   200247 236100                    LDQ     XSTATUS_BYTE,,AUTO
         3 016477   000004 772000                    QRL     4
         3 016500   000377 376007                    ANQ     255,DL
         3 016501   200534 116100                    CMPQ    CHIP#+2,,AUTO
         3 016502   016524 601000 3                  TNZ     s:5852

     2540     5846    5               THEN DO;

     2541     5847    5                  XST_CNT = XST_CNT + MDS_OP_CODE_TBL.COUNT(X);

   5847  3 016503   200011 236100                    LDQ     X,,AUTO
         3 016504   000012 402007                    MPY     10,DL
         3 016505   000000 236006 xsym               LDQ     MDS_OP_CODE_TBL,QL
         3 016506   000022 772000                    QRL     18
         3 016507   000777 376007                    ANQ     511,DL
         3 016510   200342 036100                    ADLQ    XST_CNT,,AUTO
         3 016511   200342 756100                    STQ     XST_CNT,,AUTO

PL6.E3A0      #001=THF$RAW File=THF$FORMAT.:E05TSI                               WED 07/30/97 06:08 Page:479
     2542     5848    5                  CALL INSERT(MDS_TEXT, 17, MDS_OP_CODE_TBL.COUNT(X),

   5848  3 016512   200011 236100                    LDQ     X,,AUTO
         3 016513   000012 402007                    MPY     10,DL
         3 016514   000000 220006 xsym               LDX0    MDS_OP_CODE_TBL,QL
         3 016515   000777 360003                    ANX0    511,DU
         3 016516   200011 236100                    LDQ     X,,AUTO
         3 016517   000050 402007                    MPY     40,DL
         3 016520   040140 100406                    MLR     fill='040'O
         3 016521   000000 400043 xsym               ADSC9   MDS_OP_CODE_TBL,Q        cn=2,n=35
         3 016522   200321 200010                    ADSC9   MDS_TEXT+4,,AUTO         cn=1,n=*X0

     2543     5849    5                              MDS_OP_CODE_TBL.TEXT(X));
     2544     5850    5                  GOTO FOUND_OCTET;

   5850  3 016523   017304 710000 3                  TRA     FOUND_OCTET

     2545     5851    5               END;
     2546     5852    4         END;  /* DO X = 0 TO 41 */

   5852  3 016524   200011 054100                    AOS     X,,AUTO
         3 016525   200011 235100                    LDA     X,,AUTO
         3 016526   000051 115007                    CMPA    41,DL
         3 016527   016471 604400 3                  TMOZ    s:5845

     2547     5853    4         IF XSTATUS_BYTE(3) = %HEX_86 THEN DO;

   5853  3 016530   000004 736000                    QLS     4
         3 016531   004140 116007                    CMPQ    2144,DL
         3 016532   016541 601000 3                  TNZ     s:5859

     2548     5854    4            CALL INSERT(MDS_TEXT, 0, 15, 'ASYNC INTERRUPT');

   5854  3 016533   040100 100400                    MLR     fill='040'O
         3 016534   002065 000017 1                  ADSC9   BOARD_64K+630            cn=0,n=15
         3 016535   200315 000017                    ADSC9   MDS_TEXT,,AUTO           cn=0,n=15

PL6.E3A0      #001=THF$RAW File=THF$FORMAT.:E05TSI                               WED 07/30/97 06:08 Page:480
     2549     5855    4            XST_CNT = 15;

   5855  3 016536   000017 235007                    LDA     15,DL
         3 016537   200342 755100                    STA     XST_CNT,,AUTO

     2550     5856    4            GOTO FOUND_OCTET;

   5856  3 016540   017304 710000 3                  TRA     FOUND_OCTET

     2551     5857    4         END;
     2552     5858    4         ELSE DO;

     2553     5859    4            CALL INSERT(MDS_TEXT, 0, 35, MDS_OP_CODE_TBL.TEXT(42));

   5859  3 016541   040100 100400                    MLR     fill='040'O
         3 016542   000644 400043 xsym               ADSC9   MDS_OP_CODE_TBL+420      cn=2,n=35
         3 016543   200315 000043                    ADSC9   MDS_TEXT,,AUTO           cn=0,n=35

     2554     5860    4            XST_CNT = MDS_OP_CODE_TBL.COUNT(42);

   5860  3 016544   000644 236000 xsym               LDQ     MDS_OP_CODE_TBL+420
         3 016545   000022 772000                    QRL     18
         3 016546   000777 376007                    ANQ     511,DL
         3 016547   200342 756100                    STQ     XST_CNT,,AUTO

     2555     5861    4            GOTO FOUND_OCTET;

   5861  3 016550   017304 710000 3                  TRA     FOUND_OCTET

     2556     5862    4         END;
     2557     5863    3      END;
     2558     5864    3      ELSE IF DEVTBL.CODE(I) = 4 THEN DO;       /* BYTE 4 - CMD MODIFIERS */

   5864  3 016551   200010 236100                    LDQ     I,,AUTO
         3 016552   000012 402007                    MPY     10,DL
         3 016553   000000 236106                    LDQ     0,QL,PR0
         3 016554   777000 376003                    ANQ     -512,DU
PL6.E3A0      #001=THF$RAW File=THF$FORMAT.:E05TSI                               WED 07/30/97 06:08 Page:481
         3 016555   004000 116003                    CMPQ    2048,DU
         3 016556   016572 601000 3                  TNZ     s:5869

     2559     5865    3         CALL INSERT(MDS_TEXT, 16, 1, BINHEX(XSTATUS_NIBBLE(8)));

   5865  3 016557   200247 236100                    LDQ     XSTATUS_BYTE,,AUTO
         3 016560   000017 376007                    ANQ     15,DL
         3 016561   040100 100406                    MLR     fill='040'O
         3 016562   000122 000001 1                  ADSC9   BINHEX,Q                 cn=0,n=1
         3 016563   200321 000001                    ADSC9   MDS_TEXT+4,,AUTO         cn=0,n=1

     2560     5866    3         CALL INSERT(MDS_TEXT, 33, 1, BINHEX(XSTATUS_NIBBLE(9)));

   5866  3 016564   200250 236100                    LDQ     XSTATUS_BYTE+1,,AUTO
         3 016565   000040 772000                    QRL     32
         3 016566   040100 100406                    MLR     fill='040'O
         3 016567   000122 000001 1                  ADSC9   BINHEX,Q                 cn=0,n=1
         3 016570   200325 200001                    ADSC9   MDS_TEXT+8,,AUTO         cn=1,n=1

     2561     5867    3         GOTO FOUND_OCTET;

   5867  3 016571   017304 710000 3                  TRA     FOUND_OCTET

     2562     5868    3      END;
     2563     5869    3      ELSE IF DEVTBL.CODE(I) = 5 THEN DO;       /* BYTE 5 - CM # */

   5869  3 016572   200010 236100                    LDQ     I,,AUTO
         3 016573   000012 402007                    MPY     10,DL
         3 016574   000000 236106                    LDQ     0,QL,PR0
         3 016575   777000 376003                    ANQ     -512,DU
         3 016576   005000 116003                    CMPQ    2560,DU
         3 016577   016617 601000 3                  TNZ     s:5873

     2564     5870    3        CALL INSERT(MDS_TEXT, 12, 2, BINHEX(XSTATUS_NIBBLE(10)), BINHEX(XSTATUS_NIBBLE
              5870                  (11)));

   5870  3 016600   200250 236100                    LDQ     XSTATUS_BYTE+1,,AUTO
PL6.E3A0      #001=THF$RAW File=THF$FORMAT.:E05TSI                               WED 07/30/97 06:08 Page:482
         3 016601   000034 772000                    QRL     28
         3 016602   000017 376007                    ANQ     15,DL
         3 016603   200534 756100                    STQ     CHIP#+2,,AUTO
         3 016604   200250 236100                    LDQ     XSTATUS_BYTE+1,,AUTO
         3 016605   000030 772000                    QRL     24
         3 016606   000017 376007                    ANQ     15,DL
         3 016607   200534 235100                    LDA     CHIP#+2,,AUTO
         3 016610   040100 100405                    MLR     fill='040'O
         3 016611   000122 000001 1                  ADSC9   BINHEX,A                 cn=0,n=1
         3 016612   200320 000001                    ADSC9   MDS_TEXT+3,,AUTO         cn=0,n=1
         3 016613   040100 100406                    MLR     fill='040'O
         3 016614   000122 000001 1                  ADSC9   BINHEX,Q                 cn=0,n=1
         3 016615   200320 200001                    ADSC9   MDS_TEXT+3,,AUTO         cn=1,n=1

     2565     5871    3         GOTO FOUND_OCTET;

   5871  3 016616   017304 710000 3                  TRA     FOUND_OCTET

     2566     5872    3      END;
     2567     5873    3      ELSE IF DEVTBL.CODE(I) = 6 THEN DO;       /* BYTE 6 - DEV # */

   5873  3 016617   200010 236100                    LDQ     I,,AUTO
         3 016620   000012 402007                    MPY     10,DL
         3 016621   000000 236106                    LDQ     0,QL,PR0
         3 016622   777000 376003                    ANQ     -512,DU
         3 016623   006000 116003                    CMPQ    3072,DU
         3 016624   016644 601000 3                  TNZ     s:5877

     2568     5874    3        CALL INSERT(MDS_TEXT, 16, 2, BINHEX(XSTATUS_NIBBLE(12)), BINHEX(XSTATUS_NIBBLE
              5874                  (13)));

   5874  3 016625   200250 236100                    LDQ     XSTATUS_BYTE+1,,AUTO
         3 016626   000024 772000                    QRL     20
         3 016627   000017 376007                    ANQ     15,DL
         3 016630   200534 756100                    STQ     CHIP#+2,,AUTO
         3 016631   200250 236100                    LDQ     XSTATUS_BYTE+1,,AUTO
         3 016632   000020 772000                    QRL     16
PL6.E3A0      #001=THF$RAW File=THF$FORMAT.:E05TSI                               WED 07/30/97 06:08 Page:483
         3 016633   000017 376007                    ANQ     15,DL
         3 016634   200534 235100                    LDA     CHIP#+2,,AUTO
         3 016635   040100 100405                    MLR     fill='040'O
         3 016636   000122 000001 1                  ADSC9   BINHEX,A                 cn=0,n=1
         3 016637   200321 000001                    ADSC9   MDS_TEXT+4,,AUTO         cn=0,n=1
         3 016640   040100 100406                    MLR     fill='040'O
         3 016641   000122 000001 1                  ADSC9   BINHEX,Q                 cn=0,n=1
         3 016642   200321 200001                    ADSC9   MDS_TEXT+4,,AUTO         cn=1,n=1

     2569     5875    3         GOTO FOUND_OCTET;

   5875  3 016643   017304 710000 3                  TRA     FOUND_OCTET

     2570     5876    3      END;
     2571     5877    3      ELSE IF DEVTBL.CODE(I) = 7 THEN DO;       /* BYTE 7 - IPI STATUS */

   5877  3 016644   200010 236100                    LDQ     I,,AUTO
         3 016645   000012 402007                    MPY     10,DL
         3 016646   000000 236106                    LDQ     0,QL,PR0
         3 016647   777000 376003                    ANQ     -512,DU
         3 016650   007000 116003                    CMPQ    3584,DU
         3 016651   016700 601000 3                  TNZ     s:5882

     2572     5878    3        CALL INSERT(MDS_TEXT, 28, 3, BINHEX(XSTATUS_NIBBLE(14)), BINHEX(XSTATUS_NIBBLE
              5878                  (15)),

   5878  3 016652   200250 236100                    LDQ     XSTATUS_BYTE+1,,AUTO
         3 016653   000014 772000                    QRL     12
         3 016654   000017 376007                    ANQ     15,DL
         3 016655   200534 756100                    STQ     CHIP#+2,,AUTO
         3 016656   200250 236100                    LDQ     XSTATUS_BYTE+1,,AUTO
         3 016657   000010 772000                    QRL     8
         3 016660   000017 376007                    ANQ     15,DL
         3 016661   200535 756100                    STQ     CHIP#+3,,AUTO
         3 016662   200250 236100                    LDQ     XSTATUS_BYTE+1,,AUTO
         3 016663   000017 376007                    ANQ     15,DL
         3 016664   200534 235100                    LDA     CHIP#+2,,AUTO
PL6.E3A0      #001=THF$RAW File=THF$FORMAT.:E05TSI                               WED 07/30/97 06:08 Page:484
         3 016665   040100 100405                    MLR     fill='040'O
         3 016666   000122 000001 1                  ADSC9   BINHEX,A                 cn=0,n=1
         3 016667   200324 000001                    ADSC9   MDS_TEXT+7,,AUTO         cn=0,n=1
         3 016670   200535 235100                    LDA     CHIP#+3,,AUTO
         3 016671   040100 100405                    MLR     fill='040'O
         3 016672   000122 000001 1                  ADSC9   BINHEX,A                 cn=0,n=1
         3 016673   200324 200001                    ADSC9   MDS_TEXT+7,,AUTO         cn=1,n=1
         3 016674   040100 100406                    MLR     fill='040'O
         3 016675   000122 000001 1                  ADSC9   BINHEX,Q                 cn=0,n=1
         3 016676   200324 400001                    ADSC9   MDS_TEXT+7,,AUTO         cn=2,n=1

     2573     5879    3                     BINHEX(XSTATUS_NIBBLE(17)));
     2574     5880    3         GOTO FOUND_OCTET;

   5880  3 016677   017304 710000 3                  TRA     FOUND_OCTET

     2575     5881    3      END;
     2576     5882    2      ELSE IF (DEVTBL.CODE(I) >= 56 AND IO_MASK1(DEVTBL.CODE(I))) THEN

   5882  3 016700   200010 236100                    LDQ     I,,AUTO
         3 016701   000012 402007                    MPY     10,DL
         3 016702   000000 236106                    LDQ     0,QL,PR0
         3 016703   777000 376003                    ANQ     -512,DU
         3 016704   070000 116003                    CMPQ    28672,DU
         3 016705   016742 602000 3                  TNC     s:5889
         3 016706   200010 236100                    LDQ     I,,AUTO
         3 016707   000012 402007                    MPY     10,DL
         3 016710   000000 236106                    LDQ     0,QL,PR0
         3 016711   000033 772000                    QRL     27
         3 016712   000000 066506                    CMPB    filb='0'B
         3 016713   200221 000001                    BDSC    IO_MASK,Q,AUTO           by=0,bit=0,n=1
         3 016714   000002 000022 xsym               BDSC    B_VECTNIL+2              by=0,bit=0,n=18
         3 016715   016742 600000 3                  TZE     s:5889

     2577     5883    3         DO;

     2578     5884    3           MDS_TEXT = ' ';
PL6.E3A0      #001=THF$RAW File=THF$FORMAT.:E05TSI                               WED 07/30/97 06:08 Page:485

   5884  3 016716   040100 100400                    MLR     fill='040'O
         3 016717   000035 000001 xsym               ADSC9   B_VECTNIL+29             cn=0,n=1
         3 016720   200315 000120                    ADSC9   MDS_TEXT,,AUTO           cn=0,n=80

     2579     5885    3           CALL INSERT(MDS_TEXT,15,DEVTBL.COUNT(I),DEVTBL.TEXT(I));

   5885  3 016721   200010 236100                    LDQ     I,,AUTO
         3 016722   000012 402007                    MPY     10,DL
         3 016723   000000 220106                    LDX0    0,QL,PR0
         3 016724   000777 360003                    ANX0    511,DU
         3 016725   200010 236100                    LDQ     I,,AUTO
         3 016726   000050 402007                    MPY     40,DL
         3 016727   040140 100506                    MLR     fill='040'O
         3 016730   000000 400043                    ADSC9   0,Q,PR0                  cn=2,n=35
         3 016731   200320 600010                    ADSC9   MDS_TEXT+3,,AUTO         cn=3,n=*X0

     2580     5886    3           XST_CNT = DEVTBL.COUNT(I) + 15;

   5886  3 016732   200010 236100                    LDQ     I,,AUTO
         3 016733   000012 402007                    MPY     10,DL
         3 016734   000000 236106                    LDQ     0,QL,PR0
         3 016735   000022 772000                    QRL     18
         3 016736   000777 376007                    ANQ     511,DL
         3 016737   000017 036007                    ADLQ    15,DL
         3 016740   200342 756100                    STQ     XST_CNT,,AUTO

     2581     5887    3           GOTO FOUND_OCTET;

   5887  3 016741   017304 710000 3                  TRA     FOUND_OCTET

     2582     5888    3         END;
     2583     5889    3      ELSE IF DEVTBL.CODE(I) = 8 THEN DO;       /* BYTE 8 - STATUS TYPE */

   5889  3 016742   200010 236100                    LDQ     I,,AUTO
         3 016743   000012 402007                    MPY     10,DL
         3 016744   000000 236106                    LDQ     0,QL,PR0
PL6.E3A0      #001=THF$RAW File=THF$FORMAT.:E05TSI                               WED 07/30/97 06:08 Page:486
         3 016745   777000 376003                    ANQ     -512,DU
         3 016746   010000 116003                    CMPQ    4096,DU
         3 016747   017025 601000 3                  TNZ     s:5910

     2584     5890    3         CALL INSERT(MDS_TEXT, 29, 1, BINHEX(XSTATUS_NIBBLE(16)));

   5890  3 016750   200250 236100                    LDQ     XSTATUS_BYTE+1,,AUTO
         3 016751   000004 772000                    QRL     4
         3 016752   000017 376007                    ANQ     15,DL
         3 016753   040100 100406                    MLR     fill='040'O
         3 016754   000122 000001 1                  ADSC9   BINHEX,Q                 cn=0,n=1
         3 016755   200324 200001                    ADSC9   MDS_TEXT+7,,AUTO         cn=1,n=1

     2585     5891    4         DO CASE(XSTATUS_NIBBLE(16));                /* STATUS TYPE */

   5891  3 016756   000006 116007                    CMPQ    6,DL
         3 016757   016761 602006 3                  TNC     s:5891+3,QL
         3 016760   017017 710000 3                  TRA     s:5905
         3 016761   017017 710000 3                  TRA     s:5905
         3 016762   016767 710000 3                  TRA     s:5893
         3 016763   017017 710000 3                  TRA     s:5905
         3 016764   016775 710000 3                  TRA     s:5896
         3 016765   017003 710000 3                  TRA     s:5899
         3 016766   017011 710000 3                  TRA     s:5902

     2586     5892    4            CASE(%STD_COMPLETION);

     2587     5893    4               CALL INSERT(MDS_TEXT, 30, 35, ' -- STD COMMAND COMPLETION RESPONSE');

   5893  3 016767   040100 100400                    MLR     fill='040'O
         3 016770   002071 000043 1                  ADSC9   BOARD_64K+634            cn=0,n=35
         3 016771   200324 400043                    ADSC9   MDS_TEXT+7,,AUTO         cn=2,n=35

     2588     5894    4               XST_CNT = XST_CNT +35;

   5894  3 016772   000043 236007                    LDQ     35,DL
         3 016773   200342 056100                    ASQ     XST_CNT,,AUTO
PL6.E3A0      #001=THF$RAW File=THF$FORMAT.:E05TSI                               WED 07/30/97 06:08 Page:487
         3 016774   017024 710000 3                  TRA     s:5908

     2589     5895    4            CASE(%EXT_COMPLETION);

     2590     5896    4               CALL INSERT(MDS_TEXT, 30, 36, ' -- EXTENDED CMD COMPLETION RESPONSE');

   5896  3 016775   040100 100400                    MLR     fill='040'O
         3 016776   002102 000044 1                  ADSC9   BOARD_64K+643            cn=0,n=36
         3 016777   200324 400044                    ADSC9   MDS_TEXT+7,,AUTO         cn=2,n=36

     2591     5897    4               XST_CNT = XST_CNT + 36;

   5897  3 017000   000044 236007                    LDQ     36,DL
         3 017001   200342 056100                    ASQ     XST_CNT,,AUTO
         3 017002   017024 710000 3                  TRA     s:5908

     2592     5898    4            CASE(%ASYNC_COMPLETION);

     2593     5899    4               CALL INSERT(MDS_TEXT, 30, 36, ' -- ASYNCHRONOUS COMPLETION RESPONSE');

   5899  3 017003   040100 100400                    MLR     fill='040'O
         3 017004   002113 000044 1                  ADSC9   BOARD_64K+652            cn=0,n=36
         3 017005   200324 400044                    ADSC9   MDS_TEXT+7,,AUTO         cn=2,n=36

     2594     5900    4               XST_CNT = XST_CNT + 36;

   5900  3 017006   000044 236007                    LDQ     36,DL
         3 017007   200342 056100                    ASQ     XST_CNT,,AUTO
         3 017010   017024 710000 3                  TRA     s:5908

     2595     5901    4            CASE(%TRANSFER_NOTF);

     2596     5902    4               CALL INSERT(MDS_TEXT, 30, 25, ' -- TRANSFER NOTIFICATION');

   5902  3 017011   040100 100400                    MLR     fill='040'O
         3 017012   002124 000031 1                  ADSC9   BOARD_64K+661            cn=0,n=25
         3 017013   200324 400031                    ADSC9   MDS_TEXT+7,,AUTO         cn=2,n=25
PL6.E3A0      #001=THF$RAW File=THF$FORMAT.:E05TSI                               WED 07/30/97 06:08 Page:488

     2597     5903    4               XST_CNT = XST_CNT + 25;

   5903  3 017014   000031 236007                    LDQ     25,DL
         3 017015   200342 056100                    ASQ     XST_CNT,,AUTO
         3 017016   017024 710000 3                  TRA     s:5908

     2598     5904    4            CASE(ELSE);

     2599     5905    4               CALL INSERT(MDS_TEXT, 30, 20, '  ** NO SUCH CODE **');

   5905  3 017017   040100 100400                    MLR     fill='040'O
         3 017020   002133 000024 1                  ADSC9   BOARD_64K+668            cn=0,n=20
         3 017021   200324 400024                    ADSC9   MDS_TEXT+7,,AUTO         cn=2,n=20

     2600     5906    4               XST_CNT = XST_CNT + 20;

   5906  3 017022   000024 236007                    LDQ     20,DL
         3 017023   200342 056100                    ASQ     XST_CNT,,AUTO

     2601     5907    4         END;   /* DO CASE */

     2602     5908    3         GOTO FOUND_OCTET;

   5908  3 017024   017304 710000 3                  TRA     FOUND_OCTET

     2603     5909    3      END;
     2604     5910    3      ELSE IF DEVTBL.CODE(I) = 9 THEN DO;   /* BYTE 9 - PARAM LENGTH */

   5910  3 017025   200010 236100                    LDQ     I,,AUTO
         3 017026   000012 402007                    MPY     10,DL
         3 017027   000000 236106                    LDQ     0,QL,PR0
         3 017030   777000 376003                    ANQ     -512,DU
         3 017031   011000 116003                    CMPQ    4608,DU
         3 017032   017055 601000 3                  TNZ     s:5916

     2605     5911    3         PARAMETER_LENGTH = XSTATUS_BYTE(9);
PL6.E3A0      #001=THF$RAW File=THF$FORMAT.:E05TSI                               WED 07/30/97 06:08 Page:489

   5911  3 017033   200251 236100                    LDQ     XSTATUS_BYTE+2,,AUTO
         3 017034   000034 772000                    QRL     28
         3 017035   000034 736000                    QLS     28
         3 017036   200255 756100                    STQ     PARAMETER_LENGTH,,AUTO

     2606     5912    3         CALL INSERT(MDS_TEXT, 30, 2, BINHEX(XSTATUS_NIBBLE(18)),

   5912  3 017037   200251 236100                    LDQ     XSTATUS_BYTE+2,,AUTO
         3 017040   000040 772000                    QRL     32
         3 017041   200534 756100                    STQ     CHIP#+2,,AUTO
         3 017042   200251 236100                    LDQ     XSTATUS_BYTE+2,,AUTO
         3 017043   000034 772000                    QRL     28
         3 017044   000017 376007                    ANQ     15,DL
         3 017045   200534 235100                    LDA     CHIP#+2,,AUTO
         3 017046   040100 100405                    MLR     fill='040'O
         3 017047   000122 000001 1                  ADSC9   BINHEX,A                 cn=0,n=1
         3 017050   200324 400001                    ADSC9   MDS_TEXT+7,,AUTO         cn=2,n=1
         3 017051   040100 100406                    MLR     fill='040'O
         3 017052   000122 000001 1                  ADSC9   BINHEX,Q                 cn=0,n=1
         3 017053   200324 600001                    ADSC9   MDS_TEXT+7,,AUTO         cn=3,n=1

     2607     5913    3                     BINHEX(XSTATUS_NIBBLE(19)));
     2608     5914    3         GOTO FOUND_OCTET;

   5914  3 017054   017304 710000 3                  TRA     FOUND_OCTET

     2609     5915    3      END;
     2610     5916    3      ELSE IF DEVTBL.CODE(I) = 10 THEN DO;     /* BYTE 10 - PARAMETER ID */

   5916  3 017055   200010 236100                    LDQ     I,,AUTO
         3 017056   000012 402007                    MPY     10,DL
         3 017057   000000 236106                    LDQ     0,QL,PR0
         3 017060   777000 376003                    ANQ     -512,DU
         3 017061   012000 116003                    CMPQ    5120,DU
         3 017062   017167 601000 3                  TNZ     s:5938

PL6.E3A0      #001=THF$RAW File=THF$FORMAT.:E05TSI                               WED 07/30/97 06:08 Page:490
     2611     5917    3         PARAMETER_ID = XSTATUS_BYTE(10);

   5917  3 017063   200251 236100                    LDQ     XSTATUS_BYTE+2,,AUTO
         3 017064   000010 736000                    QLS     8
         3 017065   200254 676100                    ERQ     PARAMETER_ID,,AUTO
         3 017066   776000 376003                    ANQ     -1024,DU
         3 017067   200254 656100                    ERSQ    PARAMETER_ID,,AUTO

     2612     5918    3         CALL INSERT(MDS_TEXT, 30, 2, BINHEX(PARAM_ID.BYT1), BINHEX(PARAM_ID.BYT2));

   5918  3 017070   200254 236100                    LDQ     PARAMETER_ID,,AUTO
         3 017071   000040 772000                    QRL     32
         3 017072   200534 756100                    STQ     CHIP#+2,,AUTO
         3 017073   200254 236100                    LDQ     PARAMETER_ID,,AUTO
         3 017074   000034 772000                    QRL     28
         3 017075   000017 376007                    ANQ     15,DL
         3 017076   200534 235100                    LDA     CHIP#+2,,AUTO
         3 017077   040100 100405                    MLR     fill='040'O
         3 017100   000122 000001 1                  ADSC9   BINHEX,A                 cn=0,n=1
         3 017101   200324 400001                    ADSC9   MDS_TEXT+7,,AUTO         cn=2,n=1
         3 017102   040100 100406                    MLR     fill='040'O
         3 017103   000122 000001 1                  ADSC9   BINHEX,Q                 cn=0,n=1
         3 017104   200324 600001                    ADSC9   MDS_TEXT+7,,AUTO         cn=3,n=1

     2613     5919    3         IF ((PARAM_ID.BYT1 = 1 OR PARAM_ID.BYT1 = 2)

   5919  3 017105   200254 236100                    LDQ     PARAMETER_ID,,AUTO
         3 017106   740000 376003                    ANQ     -16384,DU
         3 017107   040000 116003                    CMPQ    16384,DU
         3 017110   017113 600000 3                  TZE     s:5919+6
         3 017111   100000 116003                    CMPQ    32768,DU
         3 017112   017141 601000 3                  TNZ     s:5926
         3 017113   200254 236100                    LDQ     PARAMETER_ID,,AUTO
         3 017114   036000 376003                    ANQ     15360,DU
         3 017115   026000 116003                    CMPQ    11264,DU
         3 017116   017141 603000 3                  TRC     s:5926

PL6.E3A0      #001=THF$RAW File=THF$FORMAT.:E05TSI                               WED 07/30/97 06:08 Page:491
     2614     5920    4            AND (PARAM_ID.BYT2 <= 10)) THEN DO;

     2615     5921    4            CALL INSERT(MDS_TEXT, 32, MDS_PARAM_ID_TBL.COUNT(PARAM_ID.BYT2),

   5921  3 017117   200254 236100                    LDQ     PARAMETER_ID,,AUTO
         3 017120   000034 772000                    QRL     28
         3 017121   000017 376007                    ANQ     15,DL
         3 017122   000011 402007                    MPY     9,DL
         3 017123   000000 620006                    EAX0    0,QL
         3 017124   000000 236006 xsym               LDQ     MDS_PARAM_ID_TBL,QL
         3 017125   000033 772000                    QRL     27
         3 017126   000000 635010                    EAA     0,X0
         3 017127   000020 771000                    ARL     16
         3 017130   000000 621006                    EAX1    0,QL
         3 017131   040140 100405                    MLR     fill='040'O
         3 017132   000000 200043 xsym               ADSC9   MDS_PARAM_ID_TBL,A       cn=1,n=35
         3 017133   200325 000011                    ADSC9   MDS_TEXT+8,,AUTO         cn=0,n=*X1

     2616     5922    4                        MDS_PARAM_ID_TBL.TEXT(PARAM_ID.BYT2));
     2617     5923    4            XST_CNT = XST_CNT + MDS_PARAM_ID_TBL.COUNT(PARAM_ID.BYT2);

   5923  3 017134   000000 236010 xsym               LDQ     MDS_PARAM_ID_TBL,X0
         3 017135   000033 772000                    QRL     27
         3 017136   200342 036100                    ADLQ    XST_CNT,,AUTO
         3 017137   200342 756100                    STQ     XST_CNT,,AUTO

     2618     5924    4            GOTO FOUND_OCTET;

   5924  3 017140   017304 710000 3                  TRA     FOUND_OCTET

     2619     5925    4         END;
     2620     5926    3         IF (PARAMETER_ID = %HEX_51 AND XSTATUS_NIBBLE(16) = %STD_COMPLETION)

   5926  3 017141   200254 236100                    LDQ     PARAMETER_ID,,AUTO
         3 017142   776000 376003                    ANQ     -1024,DU
         3 017143   242000 116003                    CMPQ    82944,DU
         3 017144   017157 601000 3                  TNZ     s:5932
PL6.E3A0      #001=THF$RAW File=THF$FORMAT.:E05TSI                               WED 07/30/97 06:08 Page:492
         3 017145   200250 236100                    LDQ     XSTATUS_BYTE+1,,AUTO
         3 017146   000360 376007                    ANQ     240,DL
         3 017147   000020 116007                    CMPQ    16,DL
         3 017150   017157 601000 3                  TNZ     s:5932

     2621     5927    4            THEN DO;

     2622     5928    4              CALL INSERT(MDS_TEXT, 32, 26, ' -- REPORT DEVICE''S STATUS');

   5928  3 017151   040100 100400                    MLR     fill='040'O
         3 017152   002140 000032 1                  ADSC9   BOARD_64K+673            cn=0,n=26
         3 017153   200325 000032                    ADSC9   MDS_TEXT+8,,AUTO         cn=0,n=26

     2623     5929    4              XST_CNT = 58;

   5929  3 017154   000072 235007                    LDA     58,DL
         3 017155   200342 755100                    STA     XST_CNT,,AUTO

     2624     5930    4            END;

   5930  3 017156   017166 710000 3                  TRA     s:5936

     2625     5931    4         ELSE DO;

     2626     5932    4            CALL INSERT(MDS_TEXT, 32, 27, ' ** ILLEGAL PARAMETER ID **');

   5932  3 017157   040100 100400                    MLR     fill='040'O
         3 017160   002147 000033 1                  ADSC9   BOARD_64K+680            cn=0,n=27
         3 017161   200325 000033                    ADSC9   MDS_TEXT+8,,AUTO         cn=0,n=27

     2627     5933    4            XST_CNT = XST_CNT + 27;

   5933  3 017162   000033 236007                    LDQ     27,DL
         3 017163   200342 056100                    ASQ     XST_CNT,,AUTO

     2628     5934    4            PARAMETER_ID = 0;

PL6.E3A0      #001=THF$RAW File=THF$FORMAT.:E05TSI                               WED 07/30/97 06:08 Page:493
   5934  3 017164   000452 236000 4                  LDQ     298
         3 017165   200254 356100                    ANSQ    PARAMETER_ID,,AUTO

     2629     5935    4         END;

     2630     5936    3         GOTO FOUND_OCTET;

   5936  3 017166   017304 710000 3                  TRA     FOUND_OCTET

     2631     5937    3      END;
     2632     5938    2      ELSE IF ((DEVTBL.CODE(I) > 10 AND DEVTBL.CODE(I) < 36)  AND PARAMETER_ID ~= 0)

   5938  3 017167   200010 236100                    LDQ     I,,AUTO
         3 017170   000012 402007                    MPY     10,DL
         3 017171   000000 236106                    LDQ     0,QL,PR0
         3 017172   777000 376003                    ANQ     -512,DU
         3 017173   013000 116003                    CMPQ    5632,DU
         3 017174   017303 602000 3                  TNC     s:5967
         3 017175   200010 236100                    LDQ     I,,AUTO
         3 017176   000012 402007                    MPY     10,DL
         3 017177   000000 236106                    LDQ     0,QL,PR0
         3 017200   777000 376003                    ANQ     -512,DU
         3 017201   044000 116003                    CMPQ    18432,DU
         3 017202   017303 603000 3                  TRC     s:5967
         3 017203   200254 236100                    LDQ     PARAMETER_ID,,AUTO
         3 017204   776000 316003                    CANQ    -1024,DU
         3 017205   017303 600000 3                  TZE     s:5967

     2633     5939    3        THEN DO;

     2634     5940    3         OCTET_NUM = DEVTBL.CODE(I) - 10;

   5940  3 017206   200010 236100                    LDQ     I,,AUTO
         3 017207   000012 402007                    MPY     10,DL
         3 017210   000000 236106                    LDQ     0,QL,PR0
         3 017211   000033 772000                    QRL     27
         3 017212   000012 136007                    SBLQ    10,DL
PL6.E3A0      #001=THF$RAW File=THF$FORMAT.:E05TSI                               WED 07/30/97 06:08 Page:494
         3 017213   200262 756100                    STQ     OCTET_NUM,,AUTO

     2635     5941    3         IF PARAMETER_ID = %HEX_51 THEN

   5941  3 017214   200254 236100                    LDQ     PARAMETER_ID,,AUTO
         3 017215   776000 376003                    ANQ     -1024,DU
         3 017216   242000 116003                    CMPQ    82944,DU
         3 017217   017223 601000 3                  TNZ     s:5943

     2636     5942    3            CALL DECODE_PARAM_51;

   5942  3 017220   026333 701000 3                  TSX1    DECODE_PARAM_51
         3 017221   000000 011000                    NOP     0
         3 017222   017301 710000 3                  TRA     s:5965

     2637     5943    4         ELSE DO CASE(PARAM_ID.BYT2);                  /* SUBSTATUS */

   5943  3 017223   200254 236100                    LDQ     PARAMETER_ID,,AUTO
         3 017224   000034 772000                    QRL     28
         3 017225   000017 376007                    ANQ     15,DL
         3 017226   000013 116007                    CMPQ    11,DL
         3 017227   017231 602006 3                  TNC     s:5943+6,QL
         3 017230   017277 710000 3                  TRA     s:5963
         3 017231   017277 710000 3                  TRA     s:5963
         3 017232   017277 710000 3                  TRA     s:5963
         3 017233   017244 710000 3                  TRA     s:5945
         3 017234   017247 710000 3                  TRA     s:5947
         3 017235   017252 710000 3                  TRA     s:5949
         3 017236   017255 710000 3                  TRA     s:5951
         3 017237   017260 710000 3                  TRA     s:5953
         3 017240   017263 710000 3                  TRA     s:5955
         3 017241   017266 710000 3                  TRA     s:5957
         3 017242   017271 710000 3                  TRA     s:5959
         3 017243   017274 710000 3                  TRA     s:5961

     2638     5944    4                 CASE(%DEFECT_MGMT);

PL6.E3A0      #001=THF$RAW File=THF$FORMAT.:E05TSI                               WED 07/30/97 06:08 Page:495
     2639     5945    4                    CALL DECODE_PARAM_X2;

   5945  3 017244   017323 701000 3                  TSX1    DECODE_PARAM_X2
         3 017245   000000 011000                    NOP     0
         3 017246   017301 710000 3                  TRA     s:5965

     2640     5946    4                 CASE(%MICROCODE_EXP);

     2641     5947    4                    CALL DECODE_PARAM_X3;

   5947  3 017247   020046 701000 3                  TSX1    DECODE_PARAM_X3
         3 017250   000000 011000                    NOP     0
         3 017251   017301 710000 3                  TRA     s:5965

     2642     5948    4                 CASE(%INTERVENTION_REQ);

     2643     5949    4                    CALL DECODE_PARAM_X4;

   5949  3 017252   020050 701000 3                  TSX1    DECODE_PARAM_X4
         3 017253   000000 011000                    NOP     0
         3 017254   017301 710000 3                  TRA     s:5965

     2644     5950    4                 CASE(%ALT_PORT_EXP);

     2645     5951    4                    CALL DECODE_PARAM_X5;

   5951  3 017255   020320 701000 3                  TSX1    DECODE_PARAM_X5
         3 017256   000000 011000                    NOP     0
         3 017257   017301 710000 3                  TRA     s:5965

     2646     5952    4                 CASE(%MACHINE_EXP);

     2647     5953    4                    CALL DECODE_PARAM_X6;

   5953  3 017260   020554 701000 3                  TSX1    DECODE_PARAM_X6
         3 017261   000000 011000                    NOP     0
         3 017262   017301 710000 3                  TRA     s:5965
PL6.E3A0      #001=THF$RAW File=THF$FORMAT.:E05TSI                               WED 07/30/97 06:08 Page:496

     2648     5954    4                 CASE(%CMD_EXP);

     2649     5955    4                    CALL DECODE_PARAM_X7;

   5955  3 017263   022002 701000 3                  TSX1    DECODE_PARAM_X7
         3 017264   000000 011000                    NOP     0
         3 017265   017301 710000 3                  TRA     s:5965

     2650     5956    4                 CASE(%CMD_ABORTED);

     2651     5957    4                    CALL DECODE_PARAM_X8;

   5957  3 017266   022465 701000 3                  TSX1    DECODE_PARAM_X8
         3 017267   000000 011000                    NOP     0
         3 017270   017301 710000 3                  TRA     s:5965

     2652     5958    4                 CASE(%COND_SUCCESS);

     2653     5959    4                    CALL DECODE_PARAM_X9;

   5959  3 017271   023047 701000 3                  TSX1    DECODE_PARAM_X9
         3 017272   000000 011000                    NOP     0
         3 017273   017301 710000 3                  TRA     s:5965

     2654     5960    4                 CASE(%INCOMPLETE);

     2655     5961    4                    CALL DECODE_PARAM_XA;

   5961  3 017274   024427 701000 3                  TSX1    DECODE_PARAM_XA
         3 017275   000000 011000                    NOP     0
         3 017276   017301 710000 3                  TRA     s:5965

     2656     5962    4                 CASE(ELSE);

     2657     5963    4                    PARAMETER_ID = 0;

PL6.E3A0      #001=THF$RAW File=THF$FORMAT.:E05TSI                               WED 07/30/97 06:08 Page:497
   5963  3 017277   000452 236000 4                  LDQ     298
         3 017300   200254 356100                    ANSQ    PARAMETER_ID,,AUTO

     2658     5964    4                 END;  /* DO CASE */

     2659     5965    3            RETURN;

   5965  3 017301   200524 221300                    LDX1  ! NINE_TRACK_BLNK+8,,AUTO
         3 017302   000001 702211                    TSX2  ! 1,X1

     2660     5966    3         END;
     2661     5967    2      ELSE RETURN;

   5967  3 017303   000001 702211                    TSX2  ! 1,X1

     2662     5968    2   FOUND_OCTET:
     2663     5969    2      CALL THF$ADD_TEXTC(XST$, MDS_TEXT, XST_CNT);

   5969  3 017304   200342 630500       FOUND_OCTET  EPPR0   XST_CNT,,AUTO
         3 017305   200536 450500                    STP0    CHIP#+4,,AUTO
         3 017306   200315 631500                    EPPR1   MDS_TEXT,,AUTO
         3 017307   200535 451500                    STP1    CHIP#+3,,AUTO
         3 017310   200300 633500                    EPPR3   XST$,,AUTO
         3 017311   200534 453500                    STP3    CHIP#+2,,AUTO
         3 017312   200534 630500                    EPPR0   CHIP#+2,,AUTO
         3 017313   000021 631400 xsym               EPPR1   B_VECTNIL+17
         3 017314   000000 701000 xent               TSX1    THF$ADD_TEXTC
         3 017315   000000 011000                    NOP     0

     2664     5970    2      NXST = NXST + 1;

   5970  3 017316   200343 235100                    LDA     NXST,,AUTO
         3 017317   000001 035007                    ADLA    1,DL
         3 017320   200343 755100                    STA     NXST,,AUTO

     2665     5971    2      RETURN;

PL6.E3A0      #001=THF$RAW File=THF$FORMAT.:E05TSI                               WED 07/30/97 06:08 Page:498
   5971  3 017321   200524 221300                    LDX1  ! NINE_TRACK_BLNK+8,,AUTO
         3 017322   000001 702211                    TSX2  ! 1,X1

     2666     5972    2   END IPC_MDSII;
     2667     5973        %EJECT;
PL6.E3A0      #001=THF$RAW File=THF$FORMAT.:E05TSI                               WED 07/30/97 06:08 Page:499
     2668     5974        /**/
     2669     5975        /* PROCEDURE TO DECODE DEFECT MANAGEMENT STATUS CODE FOR MDS DISCS */
     2670     5976        /**/
     2671     5977    1   DECODE_PARAM_X2: PROC;

   5977  3 017323   200526 741300       DECODE_PARA* STX1  ! @BOARD,,AUTO

     2672     5978        /**/
     2673     5979    2      MDS_TEXT = ' ';

   5979  3 017324   040100 100400                    MLR     fill='040'O
         3 017325   000035 000001 xsym               ADSC9   B_VECTNIL+29             cn=0,n=1
         3 017326   200315 000120                    ADSC9   MDS_TEXT,,AUTO           cn=0,n=80

     2674     5980    2      OCTET$ = MDS_PARAM_X2.SUB$(OCTET_NUM - 1);

   5980  3 017327   200262 720100                    LXL0    OCTET_NUM,,AUTO
         3 017330   777777 236010 xsym               LDQ     MDS_PARAM_X2-1,X0
         3 017331   200216 756100                    STQ     OCTET$,,AUTO

     2675     5981    2      IF (OCTET_NUM > 0 AND OCTET_NUM < 5) THEN

   5981  3 017332   200262 235100                    LDA     OCTET_NUM,,AUTO
         3 017333   017546 604400 3                  TMOZ    s:6006
         3 017334   000005 115007                    CMPA    5,DL
         3 017335   017546 605000 3                  TPL     s:6006

     2676     5982    3         DO;

     2677     5983    3           HEX_NUM = OCTET_NUM;

   5983  3 017336   200262 236100                    LDQ     OCTET_NUM,,AUTO
         3 017337   000034 736000                    QLS     28
         3 017340   200252 676100                    ERQ     HEX_NUM,,AUTO
         3 017341   776000 376003                    ANQ     -1024,DU
         3 017342   200252 656100                    ERSQ    HEX_NUM,,AUTO

PL6.E3A0      #001=THF$RAW File=THF$FORMAT.:E05TSI                               WED 07/30/97 06:08 Page:500
     2678     5984    3           CALL INSERT (MDS_TEXT, 17, 11, 'OCTET ', BINHEX(HEX_NIBBLE(0)),

   5984  3 017343   200252 236100                    LDQ     HEX_NUM,,AUTO
         3 017344   000040 772000                    QRL     32
         3 017345   200534 756100                    STQ     CHIP#+2,,AUTO
         3 017346   200252 236100                    LDQ     HEX_NUM,,AUTO
         3 017347   000034 772000                    QRL     28
         3 017350   000017 376007                    ANQ     15,DL
         3 017351   040100 100400                    MLR     fill='040'O
         3 017352   002156 000006 1                  ADSC9   BOARD_64K+687            cn=0,n=6
         3 017353   200321 200006                    ADSC9   MDS_TEXT+4,,AUTO         cn=1,n=6
         3 017354   200534 235100                    LDA     CHIP#+2,,AUTO
         3 017355   040100 100405                    MLR     fill='040'O
         3 017356   000122 000001 1                  ADSC9   BINHEX,A                 cn=0,n=1
         3 017357   200322 600001                    ADSC9   MDS_TEXT+5,,AUTO         cn=3,n=1
         3 017360   040100 100406                    MLR     fill='040'O
         3 017361   000122 000001 1                  ADSC9   BINHEX,Q                 cn=0,n=1
         3 017362   200323 000001                    ADSC9   MDS_TEXT+6,,AUTO         cn=0,n=1
         3 017363   002160 236000 1                  LDQ     BOARD_64K+689
         3 017364   000011 772000                    QRL     9
         3 017365   200323 552134                    STBQ    MDS_TEXT+6,'34'O,AUTO

     2679     5985    3                        BINHEX(HEX_NIBBLE(1)), ' = ');
     2680     5986    3           CALL INSERT (MDS_TEXT, 28, 2, BINHEX(OCTET_NIBBLE(2 * OCTET_NUM)), BINHEX(
              5986                    OCTET_NIBBLE(2 * OCTET_NUM + 1)));

   5986  3 017366   200262 235100                    LDA     OCTET_NUM,,AUTO
         3 017367   000003 735000                    ALS     3
         3 017370   017372 605000 3                  TPL     s:5986+4
         3 017371   000044 035003                    ADLA    36,DU
         3 017372   003100 061505                    CSR     bolr='003'O
         3 017373   200241 000004                    BDSC    OCTET_BYTE,A,AUTO        by=0,bit=0,n=4
         3 017374   200534 000044                    BDSC    CHIP#+2,,AUTO            by=0,bit=0,n=36
         3 017375   200534 236100                    LDQ     CHIP#+2,,AUTO
         3 017376   200262 235100                    LDA     OCTET_NUM,,AUTO
         3 017377   000003 735000                    ALS     3
         3 017400   017402 605000 3                  TPL     s:5986+12
PL6.E3A0      #001=THF$RAW File=THF$FORMAT.:E05TSI                               WED 07/30/97 06:08 Page:501
         3 017401   000044 035003                    ADLA    36,DU
         3 017402   003100 061505                    CSR     bolr='003'O
         3 017403   200241 040004                    BDSC    OCTET_BYTE,A,AUTO        by=0,bit=4,n=4
         3 017404   200535 000044                    BDSC    CHIP#+3,,AUTO            by=0,bit=0,n=36
         3 017405   200536 756100                    STQ     CHIP#+4,,AUTO
         3 017406   200535 236100                    LDQ     CHIP#+3,,AUTO
         3 017407   200536 235100                    LDA     CHIP#+4,,AUTO
         3 017410   040100 100405                    MLR     fill='040'O
         3 017411   000122 000001 1                  ADSC9   BINHEX,A                 cn=0,n=1
         3 017412   200324 000001                    ADSC9   MDS_TEXT+7,,AUTO         cn=0,n=1
         3 017413   040100 100406                    MLR     fill='040'O
         3 017414   000122 000001 1                  ADSC9   BINHEX,Q                 cn=0,n=1
         3 017415   200324 200001                    ADSC9   MDS_TEXT+7,,AUTO         cn=1,n=1

     2681     5987    3           XST_CNT = 30;

   5987  3 017416   000036 235007                    LDA     30,DL
         3 017417   200342 755100                    STA     XST_CNT,,AUTO

     2682     5988    3           CALL THF$ADD_TEXTC(XST$, MDS_TEXT, XST_CNT);

   5988  3 017420   200342 630500                    EPPR0   XST_CNT,,AUTO
         3 017421   200536 450500                    STP0    CHIP#+4,,AUTO
         3 017422   200315 631500                    EPPR1   MDS_TEXT,,AUTO
         3 017423   200535 451500                    STP1    CHIP#+3,,AUTO
         3 017424   200300 633500                    EPPR3   XST$,,AUTO
         3 017425   200534 453500                    STP3    CHIP#+2,,AUTO
         3 017426   200534 630500                    EPPR0   CHIP#+2,,AUTO
         3 017427   000021 631400 xsym               EPPR1   B_VECTNIL+17
         3 017430   000000 701000 xent               TSX1    THF$ADD_TEXTC
         3 017431   000000 011000                    NOP     0

     2683     5989    3           NXST = NXST + 1;

   5989  3 017432   200343 235100                    LDA     NXST,,AUTO
         3 017433   000001 035007                    ADLA    1,DL
         3 017434   200343 755100                    STA     NXST,,AUTO
PL6.E3A0      #001=THF$RAW File=THF$FORMAT.:E05TSI                               WED 07/30/97 06:08 Page:502

     2684     5990    3           PARAM_INDX = 0;

   5990  3 017435   200253 450100                    STZ     PARAM_INDX,,AUTO

     2685     5991    4           DO X = (8 * DEVTBL.CODE(I)) TO (8 * DEVTBL.CODE(I) +7);

   5991  3 017436   200010 236100                    LDQ     I,,AUTO
         3 017437   000012 402007                    MPY     10,DL
         3 017440   200215 470500                    LDP0    DEV$,,AUTO
         3 017441   000000 236106                    LDQ     0,QL,PR0
         3 017442   000030 772000                    QRL     24
         3 017443   007770 376007                    ANQ     4088,DL
         3 017444   200011 756100                    STQ     X,,AUTO
         3 017445   017526 710000 3                  TRA     s:6001+1

     2686     5992    4              IF (IO_MASK1(X)) AND (PARAM_TBL.COUNT(PARAM_INDX) > 1)

   5992  3 017446   200011 235100                    LDA     X,,AUTO
         3 017447   017451 605000 3                  TPL     s:5992+3
         3 017450   000044 035003                    ADLA    36,DU
         3 017451   000000 066505                    CMPB    filb='0'B
         3 017452   200221 000001                    BDSC    IO_MASK,A,AUTO           by=0,bit=0,n=1
         3 017453   000002 000022 xsym               BDSC    B_VECTNIL+2              by=0,bit=0,n=18
         3 017454   017524 600000 3                  TZE     s:6000
         3 017455   200253 236100                    LDQ     PARAM_INDX,,AUTO
         3 017456   000014 402007                    MPY     12,DL
         3 017457   200216 470500                    LDP0    OCTET$,,AUTO
         3 017460   000000 236106                    LDQ     0,QL,PR0
         3 017461   777000 376003                    ANQ     -512,DU
         3 017462   002000 116003                    CMPQ    1024,DU
         3 017463   017524 602000 3                  TNC     s:6000

     2687     5993    5                 THEN DO;

     2688     5994    5                   MDS_TEXT = ' ';

PL6.E3A0      #001=THF$RAW File=THF$FORMAT.:E05TSI                               WED 07/30/97 06:08 Page:503
   5994  3 017464   040100 100400                    MLR     fill='040'O
         3 017465   000035 000001 xsym               ADSC9   B_VECTNIL+29             cn=0,n=1
         3 017466   200315 000120                    ADSC9   MDS_TEXT,,AUTO           cn=0,n=80

     2689     5995    5                   CALL INSERT(MDS_TEXT, 17, PARAM_TBL.COUNT(PARAM_INDX), PARAM_TBL.
              5995                            TEXT(PARAM_INDX));

   5995  3 017467   200253 236100                    LDQ     PARAM_INDX,,AUTO
         3 017470   000014 402007                    MPY     12,DL
         3 017471   000000 236106                    LDQ     0,QL,PR0
         3 017472   000033 772000                    QRL     27
         3 017473   000000 620006                    EAX0    0,QL
         3 017474   200253 236100                    LDQ     PARAM_INDX,,AUTO
         3 017475   000060 402007                    MPY     48,DL
         3 017476   040140 100506                    MLR     fill='040'O
         3 017477   000000 200054                    ADSC9   0,Q,PR0                  cn=1,n=44
         3 017500   200321 200010                    ADSC9   MDS_TEXT+4,,AUTO         cn=1,n=*X0

     2690     5996    5                   XST_CNT = PARAM_TBL.COUNT(PARAM_INDX) + 17;

   5996  3 017501   200253 236100                    LDQ     PARAM_INDX,,AUTO
         3 017502   000014 402007                    MPY     12,DL
         3 017503   000000 236106                    LDQ     0,QL,PR0
         3 017504   000033 772000                    QRL     27
         3 017505   000021 036007                    ADLQ    17,DL
         3 017506   200342 756100                    STQ     XST_CNT,,AUTO

     2691     5997    5                   CALL THF$ADD_TEXTC(XST$, MDS_TEXT, XST_CNT);

   5997  3 017507   200342 631500                    EPPR1   XST_CNT,,AUTO
         3 017510   200536 451500                    STP1    CHIP#+4,,AUTO
         3 017511   200315 633500                    EPPR3   MDS_TEXT,,AUTO
         3 017512   200535 453500                    STP3    CHIP#+3,,AUTO
         3 017513   200300 634500                    EPPR4   XST$,,AUTO
         3 017514   200534 454500                    STP4    CHIP#+2,,AUTO
         3 017515   200534 630500                    EPPR0   CHIP#+2,,AUTO
         3 017516   000021 631400 xsym               EPPR1   B_VECTNIL+17
PL6.E3A0      #001=THF$RAW File=THF$FORMAT.:E05TSI                               WED 07/30/97 06:08 Page:504
         3 017517   000000 701000 xent               TSX1    THF$ADD_TEXTC
         3 017520   000000 011000                    NOP     0

     2692     5998    5                   NXST = NXST + 1;

   5998  3 017521   200343 235100                    LDA     NXST,,AUTO
         3 017522   000001 035007                    ADLA    1,DL
         3 017523   200343 755100                    STA     NXST,,AUTO

     2693     5999    5                 END;

     2694     6000    4              PARAM_INDX = PARAM_INDX + 1;

   6000  3 017524   200253 054100                    AOS     PARAM_INDX,,AUTO

     2695     6001    4           END;  /* DO X */

   6001  3 017525   200011 054100                    AOS     X,,AUTO
         3 017526   200010 236100                    LDQ     I,,AUTO
         3 017527   000012 402007                    MPY     10,DL
         3 017530   200215 470500                    LDP0    DEV$,,AUTO
         3 017531   000000 236106                    LDQ     0,QL,PR0
         3 017532   000030 772000                    QRL     24
         3 017533   007770 376007                    ANQ     4088,DL
         3 017534   000007 036007                    ADLQ    7,DL
         3 017535   200011 116100                    CMPQ    X,,AUTO
         3 017536   017446 605000 3                  TPL     s:5992

     2696     6002    3           IF OCTET_NUM >= PARAMETER_LENGTH - 1 THEN

   6002  3 017537   200255 236100                    LDQ     PARAMETER_LENGTH,,AUTO
         3 017540   000034 772000                    QRL     28
         3 017541   000001 136007                    SBLQ    1,DL
         3 017542   200262 116100                    CMPQ    OCTET_NUM,,AUTO
         3 017543   020041 604400 3                  TMOZ    PARAM_X2_DONE

     2697     6003    3              GOTO PARAM_X2_DONE;
PL6.E3A0      #001=THF$RAW File=THF$FORMAT.:E05TSI                               WED 07/30/97 06:08 Page:505
     2698     6004    3           ELSE RETURN;

   6004  3 017544   200526 221300                    LDX1  ! @BOARD,,AUTO
         3 017545   000001 702211                    TSX2  ! 1,X1

     2699     6005    3         END;         /* FOR OCTET_NUM < 5 */
     2700     6006    2         ELSE IF OCTET_NUM = 5

   6006  3 017546   000005 115007                    CMPA    5,DL
         3 017547   020045 601000 3                  TNZ     s:6052

     2701     6007    3           THEN DO;

     2702     6008    3             IF IO_MASK(DEVTBL.CODE(I)) = %HEX_80        /* TEST FOR '80'X */

   6008  3 017550   200010 236100                    LDQ     I,,AUTO
         3 017551   000012 402007                    MPY     10,DL
         3 017552   200215 470500                    LDP0    DEV$,,AUTO
         3 017553   000000 236106                    LDQ     0,QL,PR0
         3 017554   000030 772000                    QRL     24
         3 017555   007770 376007                    ANQ     4088,DL
         3 017556   003100 061506                    CSR     bolr='003'O
         3 017557   200221 000010                    BDSC    IO_MASK,Q,AUTO           by=0,bit=0,n=8
         3 017560   200534 000044                    BDSC    CHIP#+2,,AUTO            by=0,bit=0,n=36
         3 017561   200534 236100                    LDQ     CHIP#+2,,AUTO
         3 017562   000200 116007                    CMPQ    128,DL
         3 017563   020041 600000 3                  TZE     PARAM_X2_DONE

     2703     6009    3                THEN GOTO PARAM_X2_DONE;
     2704     6010    3             MDS_TEXT = ' ';

   6010  3 017564   040100 100400                    MLR     fill='040'O
         3 017565   000035 000001 xsym               ADSC9   B_VECTNIL+29             cn=0,n=1
         3 017566   200315 000120                    ADSC9   MDS_TEXT,,AUTO           cn=0,n=80

     2705     6011    3             CALL INSERT(MDS_TEXT, 0, 57,

PL6.E3A0      #001=THF$RAW File=THF$FORMAT.:E05TSI                               WED 07/30/97 06:08 Page:506
   6011  3 017567   040100 100400                    MLR     fill='040'O
         3 017570   002161 000071 1                  ADSC9   BOARD_64K+690            cn=0,n=57
         3 017571   200315 000071                    ADSC9   MDS_TEXT,,AUTO           cn=0,n=57

     2706     6012    3                  'THE FOLLOWING OCTETS CONTAIN THE FAILING PHYSICAL ADDRESS');
     2707     6013    3             XST_CNT = 57;

   6013  3 017572   000071 235007                    LDA     57,DL
         3 017573   200342 755100                    STA     XST_CNT,,AUTO

     2708     6014    3             CALL THF$ADD_TEXTC(XST$, MDS_TEXT, XST_CNT);

   6014  3 017574   200342 631500                    EPPR1   XST_CNT,,AUTO
         3 017575   200536 451500                    STP1    CHIP#+4,,AUTO
         3 017576   200315 633500                    EPPR3   MDS_TEXT,,AUTO
         3 017577   200535 453500                    STP3    CHIP#+3,,AUTO
         3 017600   200300 634500                    EPPR4   XST$,,AUTO
         3 017601   200534 454500                    STP4    CHIP#+2,,AUTO
         3 017602   200534 630500                    EPPR0   CHIP#+2,,AUTO
         3 017603   000021 631400 xsym               EPPR1   B_VECTNIL+17
         3 017604   000000 701000 xent               TSX1    THF$ADD_TEXTC
         3 017605   000000 011000                    NOP     0

     2709     6015    3             NXST = NXST + 1;

   6015  3 017606   200343 235100                    LDA     NXST,,AUTO
         3 017607   000001 035007                    ADLA    1,DL
         3 017610   200343 755100                    STA     NXST,,AUTO

     2710     6016    3             MDS_TEXT = ' ';

   6016  3 017611   040100 100400                    MLR     fill='040'O
         3 017612   000035 000001 xsym               ADSC9   B_VECTNIL+29             cn=0,n=1
         3 017613   200315 000120                    ADSC9   MDS_TEXT,,AUTO           cn=0,n=80

     2711     6017    3             MDS_REG1 = 0;

PL6.E3A0      #001=THF$RAW File=THF$FORMAT.:E05TSI                               WED 07/30/97 06:08 Page:507
   6017  3 017614   200273 450100                    STZ     MDS_REG1,,AUTO

     2712     6018    3             MDS_REG2.OCTET(0) = OCTET_BYTE(5);

   6018  3 017615   200242 236100                    LDQ     OCTET_BYTE+1,,AUTO
         3 017616   000020 772000                    QRL     16
         3 017617   200273 676100                    ERQ     MDS_REG1,,AUTO
         3 017620   177400 376007                    ANQ     65280,DL
         3 017621   200273 656100                    ERSQ    MDS_REG1,,AUTO

     2713     6019    3             MDS_REG2.OCTET(1) = OCTET_BYTE(6);

   6019  3 017622   200242 236100                    LDQ     OCTET_BYTE+1,,AUTO
         3 017623   000020 772000                    QRL     16
         3 017624   200273 676100                    ERQ     MDS_REG1,,AUTO
         3 017625   000377 376007                    ANQ     255,DL
         3 017626   200273 656100                    ERSQ    MDS_REG1,,AUTO

     2714     6020    3             CALL BINCHAR(MDS_CYL, MDS_REG1);

   6020  3 017627   200273 236100                    LDQ     MDS_REG1,,AUTO
         3 017630   000000 235003                    LDA     0,DU
         3 017631   200534 757100                    STAQ    CHIP#+2,,AUTO
         3 017632   000100 301500                    BTD
         3 017633   200534 000010                    NDSC9   CHIP#+2,,AUTO            cn=0,s=lsgnf,sf=0,n=8
         3 017634   200274 030004                    NDSC9   MDS_CYL,,AUTO            cn=0,s=nosgn,sf=0,n=4

     2715     6021    3             CALL INSERT(MDS_TEXT, 17, PARAM_TBL.COUNT(0), PARAM_TBL.TEXT(0));

   6021  3 017635   200216 470500                    LDP0    OCTET$,,AUTO
         3 017636   000000 236100                    LDQ     0,,PR0
         3 017637   000033 772000                    QRL     27
         3 017640   000000 620006                    EAX0    0,QL
         3 017641   040140 100500                    MLR     fill='040'O
         3 017642   000000 200054                    ADSC9   0,,PR0                   cn=1,n=44
         3 017643   200321 200010                    ADSC9   MDS_TEXT+4,,AUTO         cn=1,n=*X0

PL6.E3A0      #001=THF$RAW File=THF$FORMAT.:E05TSI                               WED 07/30/97 06:08 Page:508
     2716     6022    3             CALL INSERT(MDS_TEXT, 34, 4, MDS_CYL);

   6022  3 017644   040100 100500                    MLR     fill='040'O
         3 017645   200274 000004                    ADSC9   MDS_CYL,,AUTO            cn=0,n=4
         3 017646   200325 400004                    ADSC9   MDS_TEXT+8,,AUTO         cn=2,n=4

     2717     6023    3             XST_CNT = PARAM_TBL.COUNT(0) + 17;

   6023  3 017647   000000 236100                    LDQ     0,,PR0
         3 017650   000033 772000                    QRL     27
         3 017651   000021 036007                    ADLQ    17,DL
         3 017652   200342 756100                    STQ     XST_CNT,,AUTO

     2718     6024    3             CALL THF$ADD_TEXTC(XST$, MDS_TEXT, XST_CNT);

   6024  3 017653   200342 631500                    EPPR1   XST_CNT,,AUTO
         3 017654   200536 451500                    STP1    CHIP#+4,,AUTO
         3 017655   200315 633500                    EPPR3   MDS_TEXT,,AUTO
         3 017656   200535 453500                    STP3    CHIP#+3,,AUTO
         3 017657   200300 634500                    EPPR4   XST$,,AUTO
         3 017660   200534 454500                    STP4    CHIP#+2,,AUTO
         3 017661   200534 630500                    EPPR0   CHIP#+2,,AUTO
         3 017662   000021 631400 xsym               EPPR1   B_VECTNIL+17
         3 017663   000000 701000 xent               TSX1    THF$ADD_TEXTC
         3 017664   000000 011000                    NOP     0

     2719     6025    3             NXST = NXST + 1;

   6025  3 017665   200343 235100                    LDA     NXST,,AUTO
         3 017666   000001 035007                    ADLA    1,DL
         3 017667   200343 755100                    STA     NXST,,AUTO

     2720     6026    3             IF IO_MASK(DEVTBL.CODE(I+2)) = %HEX_80      /* TEST FOR '80'X */

   6026  3 017670   200010 236100                    LDQ     I,,AUTO
         3 017671   000012 402007                    MPY     10,DL
         3 017672   200215 470500                    LDP0    DEV$,,AUTO
PL6.E3A0      #001=THF$RAW File=THF$FORMAT.:E05TSI                               WED 07/30/97 06:08 Page:509
         3 017673   000024 236106                    LDQ     20,QL,PR0
         3 017674   000030 772000                    QRL     24
         3 017675   007770 376007                    ANQ     4088,DL
         3 017676   003100 061506                    CSR     bolr='003'O
         3 017677   200221 000010                    BDSC    IO_MASK,Q,AUTO           by=0,bit=0,n=8
         3 017700   200534 000044                    BDSC    CHIP#+2,,AUTO            by=0,bit=0,n=36
         3 017701   200534 236100                    LDQ     CHIP#+2,,AUTO
         3 017702   000200 116007                    CMPQ    128,DL
         3 017703   020041 600000 3                  TZE     PARAM_X2_DONE

     2721     6027    3                THEN GOTO PARAM_X2_DONE;
     2722     6028    3             MDS_TEXT = ' ';

   6028  3 017704   040100 100400                    MLR     fill='040'O
         3 017705   000035 000001 xsym               ADSC9   B_VECTNIL+29             cn=0,n=1
         3 017706   200315 000120                    ADSC9   MDS_TEXT,,AUTO           cn=0,n=80

     2723     6029    3             MDS_REG1 = 0;

   6029  3 017707   200273 450100                    STZ     MDS_REG1,,AUTO

     2724     6030    3             MDS_REG2.OCTET(1) = OCTET_BYTE(7);

   6030  3 017710   200242 236100                    LDQ     OCTET_BYTE+1,,AUTO
         3 017711   000010 772000                    QRL     8
         3 017712   200273 676100                    ERQ     MDS_REG1,,AUTO
         3 017713   000377 376007                    ANQ     255,DL
         3 017714   200273 656100                    ERSQ    MDS_REG1,,AUTO

     2725     6031    3             CALL BINCHAR(MDS_HEAD, MDS_REG1);

   6031  3 017715   200273 235100                    LDA     MDS_REG1,,AUTO
         3 017716   000044 773000                    LRL     36
         3 017717   200534 757100                    STAQ    CHIP#+2,,AUTO
         3 017720   000100 301500                    BTD
         3 017721   200534 000010                    NDSC9   CHIP#+2,,AUTO            cn=0,s=lsgnf,sf=0,n=8
         3 017722   200276 030002                    NDSC9   MDS_HEAD,,AUTO           cn=0,s=nosgn,sf=0,n=2
PL6.E3A0      #001=THF$RAW File=THF$FORMAT.:E05TSI                               WED 07/30/97 06:08 Page:510

     2726     6032    3             CALL INSERT(MDS_TEXT, 17, PARAM_TBL.COUNT(1), PARAM_TBL.TEXT(1));

   6032  3 017723   200216 471500                    LDP1    OCTET$,,AUTO
         3 017724   100014 236100                    LDQ     12,,PR1
         3 017725   000033 772000                    QRL     27
         3 017726   000000 620006                    EAX0    0,QL
         3 017727   040140 100500                    MLR     fill='040'O
         3 017730   100014 200054                    ADSC9   12,,PR1                  cn=1,n=44
         3 017731   200321 200010                    ADSC9   MDS_TEXT+4,,AUTO         cn=1,n=*X0

     2727     6033    3             CALL INSERT(MDS_TEXT, 28, 2, MDS_HEAD);

   6033  3 017732   200276 220100                    LDX0    MDS_HEAD,,AUTO
         3 017733   200324 740100                    STX0    MDS_TEXT+7,,AUTO

     2728     6034    3             XST_CNT = PARAM_TBL.COUNT(1) + 17;

   6034  3 017734   100014 236100                    LDQ     12,,PR1
         3 017735   000033 772000                    QRL     27
         3 017736   000021 036007                    ADLQ    17,DL
         3 017737   200342 756100                    STQ     XST_CNT,,AUTO

     2729     6035    3             CALL THF$ADD_TEXTC(XST$, MDS_TEXT, XST_CNT);

   6035  3 017740   200342 633500                    EPPR3   XST_CNT,,AUTO
         3 017741   200536 453500                    STP3    CHIP#+4,,AUTO
         3 017742   200315 634500                    EPPR4   MDS_TEXT,,AUTO
         3 017743   200535 454500                    STP4    CHIP#+3,,AUTO
         3 017744   200300 635500                    EPPR5   XST$,,AUTO
         3 017745   200534 455500                    STP5    CHIP#+2,,AUTO
         3 017746   200534 630500                    EPPR0   CHIP#+2,,AUTO
         3 017747   000021 631400 xsym               EPPR1   B_VECTNIL+17
         3 017750   000000 701000 xent               TSX1    THF$ADD_TEXTC
         3 017751   000000 011000                    NOP     0

     2730     6036    3             NXST = NXST + 1;
PL6.E3A0      #001=THF$RAW File=THF$FORMAT.:E05TSI                               WED 07/30/97 06:08 Page:511

   6036  3 017752   200343 235100                    LDA     NXST,,AUTO
         3 017753   000001 035007                    ADLA    1,DL
         3 017754   200343 755100                    STA     NXST,,AUTO

     2731     6037    3             IF IO_MASK(DEVTBL.CODE(I+3)) = %HEX_80      /* TEST FOR '80'X */

   6037  3 017755   200010 236100                    LDQ     I,,AUTO
         3 017756   000012 402007                    MPY     10,DL
         3 017757   200215 470500                    LDP0    DEV$,,AUTO
         3 017760   000036 236106                    LDQ     30,QL,PR0
         3 017761   000030 772000                    QRL     24
         3 017762   007770 376007                    ANQ     4088,DL
         3 017763   003100 061506                    CSR     bolr='003'O
         3 017764   200221 000010                    BDSC    IO_MASK,Q,AUTO           by=0,bit=0,n=8
         3 017765   200534 000044                    BDSC    CHIP#+2,,AUTO            by=0,bit=0,n=36
         3 017766   200534 236100                    LDQ     CHIP#+2,,AUTO
         3 017767   000200 116007                    CMPQ    128,DL
         3 017770   020041 600000 3                  TZE     PARAM_X2_DONE

     2732     6038    3                THEN GOTO PARAM_X2_DONE;
     2733     6039    3             MDS_TEXT = ' ';

   6039  3 017771   040100 100400                    MLR     fill='040'O
         3 017772   000035 000001 xsym               ADSC9   B_VECTNIL+29             cn=0,n=1
         3 017773   200315 000120                    ADSC9   MDS_TEXT,,AUTO           cn=0,n=80

     2734     6040    3             MDS_REG1 = 0;

   6040  3 017774   200273 450100                    STZ     MDS_REG1,,AUTO

     2735     6041    3             MDS_REG2.OCTET(1) = OCTET_BYTE(8);

   6041  3 017775   200242 236100                    LDQ     OCTET_BYTE+1,,AUTO
         3 017776   200273 676100                    ERQ     MDS_REG1,,AUTO
         3 017777   000377 376007                    ANQ     255,DL
         3 020000   200273 656100                    ERSQ    MDS_REG1,,AUTO
PL6.E3A0      #001=THF$RAW File=THF$FORMAT.:E05TSI                               WED 07/30/97 06:08 Page:512

     2736     6042    3             CALL BINCHAR(MDS_SECTOR, MDS_REG1);

   6042  3 020001   200273 235100                    LDA     MDS_REG1,,AUTO
         3 020002   000044 773000                    LRL     36
         3 020003   200534 757100                    STAQ    CHIP#+2,,AUTO
         3 020004   000100 301500                    BTD
         3 020005   200534 000010                    NDSC9   CHIP#+2,,AUTO            cn=0,s=lsgnf,sf=0,n=8
         3 020006   200275 030002                    NDSC9   MDS_SECTOR,,AUTO         cn=0,s=nosgn,sf=0,n=2

     2737     6043    3             CALL INSERT(MDS_TEXT, 17, PARAM_TBL.COUNT(2), PARAM_TBL.TEXT(2));

   6043  3 020007   200216 471500                    LDP1    OCTET$,,AUTO
         3 020010   100030 236100                    LDQ     24,,PR1
         3 020011   000033 772000                    QRL     27
         3 020012   000000 620006                    EAX0    0,QL
         3 020013   040140 100500                    MLR     fill='040'O
         3 020014   100030 200054                    ADSC9   24,,PR1                  cn=1,n=44
         3 020015   200321 200010                    ADSC9   MDS_TEXT+4,,AUTO         cn=1,n=*X0

     2738     6044    3             CALL INSERT(MDS_TEXT, 28, 2, MDS_SECTOR);

   6044  3 020016   200275 220100                    LDX0    MDS_SECTOR,,AUTO
         3 020017   200324 740100                    STX0    MDS_TEXT+7,,AUTO

     2739     6045    3             XST_CNT = PARAM_TBL.COUNT(2) + 17;

   6045  3 020020   100030 236100                    LDQ     24,,PR1
         3 020021   000033 772000                    QRL     27
         3 020022   000021 036007                    ADLQ    17,DL
         3 020023   200342 756100                    STQ     XST_CNT,,AUTO

     2740     6046    3             CALL THF$ADD_TEXTC(XST$, MDS_TEXT, XST_CNT);

   6046  3 020024   200342 633500                    EPPR3   XST_CNT,,AUTO
         3 020025   200536 453500                    STP3    CHIP#+4,,AUTO
         3 020026   200315 634500                    EPPR4   MDS_TEXT,,AUTO
PL6.E3A0      #001=THF$RAW File=THF$FORMAT.:E05TSI                               WED 07/30/97 06:08 Page:513
         3 020027   200535 454500                    STP4    CHIP#+3,,AUTO
         3 020030   200300 635500                    EPPR5   XST$,,AUTO
         3 020031   200534 455500                    STP5    CHIP#+2,,AUTO
         3 020032   200534 630500                    EPPR0   CHIP#+2,,AUTO
         3 020033   000021 631400 xsym               EPPR1   B_VECTNIL+17
         3 020034   000000 701000 xent               TSX1    THF$ADD_TEXTC
         3 020035   000000 011000                    NOP     0

     2741     6047    3             NXST = NXST + 1;

   6047  3 020036   200343 235100                    LDA     NXST,,AUTO
         3 020037   000001 035007                    ADLA    1,DL
         3 020040   200343 755100                    STA     NXST,,AUTO

     2742     6048    3   PARAM_X2_DONE:
     2743     6049    3             PARAMETER_ID = 0;

   6049  3 020041   000452 236000 4     PARAM_X2_DO* LDQ     298
         3 020042   200254 356100                    ANSQ    PARAMETER_ID,,AUTO

     2744     6050    3             RETURN;

   6050  3 020043   200526 221300                    LDX1  ! @BOARD,,AUTO
         3 020044   000001 702211                    TSX2  ! 1,X1

     2745     6051    3           END;
     2746     6052    2         ELSE RETURN;

   6052  3 020045   000001 702211                    TSX2  ! 1,X1

     2747     6053    2   END DECODE_PARAM_X2;
     2748     6054        %EJECT;
PL6.E3A0      #001=THF$RAW File=THF$FORMAT.:E05TSI                               WED 07/30/97 06:08 Page:514
     2749     6055        /**/
     2750     6056        /* PROCEDURE TO DECODE MESSAGE/MICROCODE EXCEPTION STATUS CODE FOR  MDS DISCS */
     2751     6057        /**/
     2752     6058    1   DECODE_PARAM_X3: PROC;

   6058  3 020046   200526 741300       DECODE_PARA* STX1  ! @BOARD,,AUTO

     2753     6059        /**/
     2754     6060                            /* NOTE: CODE MAY BE IMPLEMENTED AT A LATER TIME.  */
     2755     6061    2          RETURN;      /* THESE PARAMETERS ARE RETURNED FROM T&D I/O ONLY */

   6061  3 020047   000001 702211                    TSX2  ! 1,X1

     2756     6062    2   END DECODE_PARAM_X3;
     2757     6063        %EJECT;
PL6.E3A0      #001=THF$RAW File=THF$FORMAT.:E05TSI                               WED 07/30/97 06:08 Page:515
     2758     6064        /**/
     2759     6065        /* PROCEDURE TO DECODE INTERVENTION REQUIRED STATUS CODE FOR  MDS DISCS */
     2760     6066        /**/
     2761     6067    1   DECODE_PARAM_X4: PROC;

   6067  3 020050   200526 741300       DECODE_PARA* STX1  ! @BOARD,,AUTO

     2762     6068        /**/
     2763     6069    2      MDS_TEXT = ' ';

   6069  3 020051   040100 100400                    MLR     fill='040'O
         3 020052   000035 000001 xsym               ADSC9   B_VECTNIL+29             cn=0,n=1
         3 020053   200315 000120                    ADSC9   MDS_TEXT,,AUTO           cn=0,n=80

     2764     6070    2      OCTET$ = MDS_PARAM_X4.SUB$(OCTET_NUM - 1);

   6070  3 020054   200262 720100                    LXL0    OCTET_NUM,,AUTO
         3 020055   777777 236010 xsym               LDQ     MDS_PARAM_X4-1,X0
         3 020056   200216 756100                    STQ     OCTET$,,AUTO

     2765     6071    2      IF (OCTET_NUM > 0 AND OCTET_NUM < 7) THEN

   6071  3 020057   200262 235100                    LDA     OCTET_NUM,,AUTO
         3 020060   020162 604400 3                  TMOZ    s:6082
         3 020061   000007 115007                    CMPA    7,DL
         3 020062   020162 605000 3                  TPL     s:6082

     2766     6072    3         DO;

     2767     6073    3           HEX_NUM = OCTET_NUM;

   6073  3 020063   200262 236100                    LDQ     OCTET_NUM,,AUTO
         3 020064   000034 736000                    QLS     28
         3 020065   200252 676100                    ERQ     HEX_NUM,,AUTO
         3 020066   776000 376003                    ANQ     -1024,DU
         3 020067   200252 656100                    ERSQ    HEX_NUM,,AUTO

PL6.E3A0      #001=THF$RAW File=THF$FORMAT.:E05TSI                               WED 07/30/97 06:08 Page:516
     2768     6074    3           CALL INSERT(MDS_TEXT, 17, 11, 'OCTET ', BINHEX(HEX_NIBBLE(0)),

   6074  3 020070   200252 236100                    LDQ     HEX_NUM,,AUTO
         3 020071   000040 772000                    QRL     32
         3 020072   200534 756100                    STQ     CHIP#+2,,AUTO
         3 020073   200252 236100                    LDQ     HEX_NUM,,AUTO
         3 020074   000034 772000                    QRL     28
         3 020075   000017 376007                    ANQ     15,DL
         3 020076   040100 100400                    MLR     fill='040'O
         3 020077   002156 000006 1                  ADSC9   BOARD_64K+687            cn=0,n=6
         3 020100   200321 200006                    ADSC9   MDS_TEXT+4,,AUTO         cn=1,n=6
         3 020101   200534 235100                    LDA     CHIP#+2,,AUTO
         3 020102   040100 100405                    MLR     fill='040'O
         3 020103   000122 000001 1                  ADSC9   BINHEX,A                 cn=0,n=1
         3 020104   200322 600001                    ADSC9   MDS_TEXT+5,,AUTO         cn=3,n=1
         3 020105   040100 100406                    MLR     fill='040'O
         3 020106   000122 000001 1                  ADSC9   BINHEX,Q                 cn=0,n=1
         3 020107   200323 000001                    ADSC9   MDS_TEXT+6,,AUTO         cn=0,n=1
         3 020110   002160 236000 1                  LDQ     BOARD_64K+689
         3 020111   000011 772000                    QRL     9
         3 020112   200323 552134                    STBQ    MDS_TEXT+6,'34'O,AUTO

     2769     6075    3                       BINHEX(HEX_NIBBLE(1)), ' = ');
     2770     6076    3           CALL INSERT(MDS_TEXT, 28, 2, BINHEX(OCTET_NIBBLE(2 * OCTET_NUM)),

   6076  3 020113   200262 235100                    LDA     OCTET_NUM,,AUTO
         3 020114   000003 735000                    ALS     3
         3 020115   020117 605000 3                  TPL     s:6076+4
         3 020116   000044 035003                    ADLA    36,DU
         3 020117   003100 061505                    CSR     bolr='003'O
         3 020120   200241 000004                    BDSC    OCTET_BYTE,A,AUTO        by=0,bit=0,n=4
         3 020121   200534 000044                    BDSC    CHIP#+2,,AUTO            by=0,bit=0,n=36
         3 020122   200534 236100                    LDQ     CHIP#+2,,AUTO
         3 020123   200262 235100                    LDA     OCTET_NUM,,AUTO
         3 020124   000003 735000                    ALS     3
         3 020125   020127 605000 3                  TPL     s:6076+12
         3 020126   000044 035003                    ADLA    36,DU
PL6.E3A0      #001=THF$RAW File=THF$FORMAT.:E05TSI                               WED 07/30/97 06:08 Page:517
         3 020127   003100 061505                    CSR     bolr='003'O
         3 020130   200241 040004                    BDSC    OCTET_BYTE,A,AUTO        by=0,bit=4,n=4
         3 020131   200535 000044                    BDSC    CHIP#+3,,AUTO            by=0,bit=0,n=36
         3 020132   200536 756100                    STQ     CHIP#+4,,AUTO
         3 020133   200535 236100                    LDQ     CHIP#+3,,AUTO
         3 020134   200536 235100                    LDA     CHIP#+4,,AUTO
         3 020135   040100 100405                    MLR     fill='040'O
         3 020136   000122 000001 1                  ADSC9   BINHEX,A                 cn=0,n=1
         3 020137   200324 000001                    ADSC9   MDS_TEXT+7,,AUTO         cn=0,n=1
         3 020140   040100 100406                    MLR     fill='040'O
         3 020141   000122 000001 1                  ADSC9   BINHEX,Q                 cn=0,n=1
         3 020142   200324 200001                    ADSC9   MDS_TEXT+7,,AUTO         cn=1,n=1

     2771     6077    3                       BINHEX(OCTET_NIBBLE(2*OCTET_NUM +1)));
     2772     6078    3           XST_CNT = 30;

   6078  3 020143   000036 235007                    LDA     30,DL
         3 020144   200342 755100                    STA     XST_CNT,,AUTO

     2773     6079    3           CALL THF$ADD_TEXTC(XST$, MDS_TEXT, XST_CNT);

   6079  3 020145   200342 630500                    EPPR0   XST_CNT,,AUTO
         3 020146   200536 450500                    STP0    CHIP#+4,,AUTO
         3 020147   200315 631500                    EPPR1   MDS_TEXT,,AUTO
         3 020150   200535 451500                    STP1    CHIP#+3,,AUTO
         3 020151   200300 633500                    EPPR3   XST$,,AUTO
         3 020152   200534 453500                    STP3    CHIP#+2,,AUTO
         3 020153   200534 630500                    EPPR0   CHIP#+2,,AUTO
         3 020154   000021 631400 xsym               EPPR1   B_VECTNIL+17
         3 020155   000000 701000 xent               TSX1    THF$ADD_TEXTC
         3 020156   000000 011000                    NOP     0

     2774     6080    3           NXST = NXST + 1;

   6080  3 020157   200343 235100                    LDA     NXST,,AUTO
         3 020160   000001 035007                    ADLA    1,DL
         3 020161   200343 755100                    STA     NXST,,AUTO
PL6.E3A0      #001=THF$RAW File=THF$FORMAT.:E05TSI                               WED 07/30/97 06:08 Page:518

     2775     6081    3         END;

     2776     6082    2      IF (OCTET_NUM = 1 OR OCTET_NUM = 5 OR OCTET_NUM = 6) THEN

   6082  3 020162   200262 235100                    LDA     OCTET_NUM,,AUTO
         3 020163   000001 115007                    CMPA    1,DL
         3 020164   020171 600000 3                  TZE     s:6084
         3 020165   000005 115007                    CMPA    5,DL
         3 020166   020171 600000 3                  TZE     s:6084
         3 020167   000006 115007                    CMPA    6,DL
         3 020170   020307 601000 3                  TNZ     s:6101

     2777     6083    3         DO;

     2778     6084    3           PARAM_INDX = 0;

   6084  3 020171   200253 450100                    STZ     PARAM_INDX,,AUTO

     2779     6085    4           DO X = (8 * DEVTBL.CODE(I)) TO (8 * DEVTBL.CODE(I) + 7);

   6085  3 020172   200010 236100                    LDQ     I,,AUTO
         3 020173   000012 402007                    MPY     10,DL
         3 020174   200215 470500                    LDP0    DEV$,,AUTO
         3 020175   000000 236106                    LDQ     0,QL,PR0
         3 020176   000030 772000                    QRL     24
         3 020177   007770 376007                    ANQ     4088,DL
         3 020200   200011 756100                    STQ     X,,AUTO
         3 020201   020262 710000 3                  TRA     s:6095+1

     2780     6086    4              IF (IO_MASK1(X)) AND (PARAM_TBL.COUNT(PARAM_INDX) > 1)

   6086  3 020202   200011 235100                    LDA     X,,AUTO
         3 020203   020205 605000 3                  TPL     s:6086+3
         3 020204   000044 035003                    ADLA    36,DU
         3 020205   000000 066505                    CMPB    filb='0'B
         3 020206   200221 000001                    BDSC    IO_MASK,A,AUTO           by=0,bit=0,n=1
PL6.E3A0      #001=THF$RAW File=THF$FORMAT.:E05TSI                               WED 07/30/97 06:08 Page:519
         3 020207   000002 000022 xsym               BDSC    B_VECTNIL+2              by=0,bit=0,n=18
         3 020210   020260 600000 3                  TZE     s:6094
         3 020211   200253 236100                    LDQ     PARAM_INDX,,AUTO
         3 020212   000014 402007                    MPY     12,DL
         3 020213   200216 470500                    LDP0    OCTET$,,AUTO
         3 020214   000000 236106                    LDQ     0,QL,PR0
         3 020215   777000 376003                    ANQ     -512,DU
         3 020216   002000 116003                    CMPQ    1024,DU
         3 020217   020260 602000 3                  TNC     s:6094

     2781     6087    5                 THEN DO;

     2782     6088    5                    MDS_TEXT = ' ';

   6088  3 020220   040100 100400                    MLR     fill='040'O
         3 020221   000035 000001 xsym               ADSC9   B_VECTNIL+29             cn=0,n=1
         3 020222   200315 000120                    ADSC9   MDS_TEXT,,AUTO           cn=0,n=80

     2783     6089    5                    CALL INSERT(MDS_TEXT, 17, PARAM_TBL.COUNT(PARAM_INDX), PARAM_TBL.
              6089                             TEXT(PARAM_INDX));

   6089  3 020223   200253 236100                    LDQ     PARAM_INDX,,AUTO
         3 020224   000014 402007                    MPY     12,DL
         3 020225   000000 236106                    LDQ     0,QL,PR0
         3 020226   000033 772000                    QRL     27
         3 020227   000000 620006                    EAX0    0,QL
         3 020230   200253 236100                    LDQ     PARAM_INDX,,AUTO
         3 020231   000060 402007                    MPY     48,DL
         3 020232   040140 100506                    MLR     fill='040'O
         3 020233   000000 200054                    ADSC9   0,Q,PR0                  cn=1,n=44
         3 020234   200321 200010                    ADSC9   MDS_TEXT+4,,AUTO         cn=1,n=*X0

     2784     6090    5                    XST_CNT = PARAM_TBL.COUNT(PARAM_INDX) + 17;

   6090  3 020235   200253 236100                    LDQ     PARAM_INDX,,AUTO
         3 020236   000014 402007                    MPY     12,DL
         3 020237   000000 236106                    LDQ     0,QL,PR0
PL6.E3A0      #001=THF$RAW File=THF$FORMAT.:E05TSI                               WED 07/30/97 06:08 Page:520
         3 020240   000033 772000                    QRL     27
         3 020241   000021 036007                    ADLQ    17,DL
         3 020242   200342 756100                    STQ     XST_CNT,,AUTO

     2785     6091    5                    CALL THF$ADD_TEXTC(XST$, MDS_TEXT, XST_CNT);

   6091  3 020243   200342 631500                    EPPR1   XST_CNT,,AUTO
         3 020244   200536 451500                    STP1    CHIP#+4,,AUTO
         3 020245   200315 633500                    EPPR3   MDS_TEXT,,AUTO
         3 020246   200535 453500                    STP3    CHIP#+3,,AUTO
         3 020247   200300 634500                    EPPR4   XST$,,AUTO
         3 020250   200534 454500                    STP4    CHIP#+2,,AUTO
         3 020251   200534 630500                    EPPR0   CHIP#+2,,AUTO
         3 020252   000021 631400 xsym               EPPR1   B_VECTNIL+17
         3 020253   000000 701000 xent               TSX1    THF$ADD_TEXTC
         3 020254   000000 011000                    NOP     0

     2786     6092    5                    NXST = NXST + 1;

   6092  3 020255   200343 235100                    LDA     NXST,,AUTO
         3 020256   000001 035007                    ADLA    1,DL
         3 020257   200343 755100                    STA     NXST,,AUTO

     2787     6093    5                 END;

     2788     6094    4              PARAM_INDX = PARAM_INDX + 1;

   6094  3 020260   200253 054100                    AOS     PARAM_INDX,,AUTO

     2789     6095    4           END;  /* DO X */

   6095  3 020261   200011 054100                    AOS     X,,AUTO
         3 020262   200010 236100                    LDQ     I,,AUTO
         3 020263   000012 402007                    MPY     10,DL
         3 020264   200215 470500                    LDP0    DEV$,,AUTO
         3 020265   000000 236106                    LDQ     0,QL,PR0
         3 020266   000030 772000                    QRL     24
PL6.E3A0      #001=THF$RAW File=THF$FORMAT.:E05TSI                               WED 07/30/97 06:08 Page:521
         3 020267   007770 376007                    ANQ     4088,DL
         3 020270   000007 036007                    ADLQ    7,DL
         3 020271   200011 116100                    CMPQ    X,,AUTO
         3 020272   020202 605000 3                  TPL     s:6086

     2790     6096    3           IF (OCTET_NUM = 6 OR OCTET_NUM >= PARAMETER_LENGTH -1)THEN

   6096  3 020273   200262 235100                    LDA     OCTET_NUM,,AUTO
         3 020274   000006 115007                    CMPA    6,DL
         3 020275   020303 600000 3                  TZE     s:6097
         3 020276   200255 236100                    LDQ     PARAMETER_LENGTH,,AUTO
         3 020277   000034 772000                    QRL     28
         3 020300   000001 136007                    SBLQ    1,DL
         3 020301   200262 116100                    CMPQ    OCTET_NUM,,AUTO
         3 020302   020305 605400 3                  TPNZ    s:6098

     2791     6097    3              PARAMETER_ID = 0;

   6097  3 020303   000452 236000 4                  LDQ     298
         3 020304   200254 356100                    ANSQ    PARAMETER_ID,,AUTO

     2792     6098    3           RETURN;

   6098  3 020305   200526 221300                    LDX1  ! @BOARD,,AUTO
         3 020306   000001 702211                    TSX2  ! 1,X1

     2793     6099    3         END;
     2794     6100    3         ELSE DO;

     2795     6101    3           IF OCTET_NUM >= PARAMETER_LENGTH - 1 THEN

   6101  3 020307   200255 236100                    LDQ     PARAMETER_LENGTH,,AUTO
         3 020310   000034 772000                    QRL     28
         3 020311   000001 136007                    SBLQ    1,DL
         3 020312   200262 116100                    CMPQ    OCTET_NUM,,AUTO
         3 020313   020316 605400 3                  TPNZ    s:6103

PL6.E3A0      #001=THF$RAW File=THF$FORMAT.:E05TSI                               WED 07/30/97 06:08 Page:522
     2796     6102    3              PARAMETER_ID = 0;

   6102  3 020314   000452 236000 4                  LDQ     298
         3 020315   200254 356100                    ANSQ    PARAMETER_ID,,AUTO

     2797     6103    3           RETURN;

   6103  3 020316   200526 221300                    LDX1  ! @BOARD,,AUTO
         3 020317   000001 702211                    TSX2  ! 1,X1

     2798     6104    3         END;
     2799     6105    2   END DECODE_PARAM_X4;
     2800     6106        %EJECT;
PL6.E3A0      #001=THF$RAW File=THF$FORMAT.:E05TSI                               WED 07/30/97 06:08 Page:523
     2801     6107        /**/
     2802     6108        /* PROCEDURE TO DECODE ALT PORT EXCEPTION STATUS CODE FOR  MDS DISCS */
     2803     6109        /**/
     2804     6110    1   DECODE_PARAM_X5: PROC;

   6110  3 020320   200526 741300       DECODE_PARA* STX1  ! @BOARD,,AUTO

     2805     6111        /**/
     2806     6112    2      MDS_TEXT = ' ';

   6112  3 020321   040100 100400                    MLR     fill='040'O
         3 020322   000035 000001 xsym               ADSC9   B_VECTNIL+29             cn=0,n=1
         3 020323   200315 000120                    ADSC9   MDS_TEXT,,AUTO           cn=0,n=80

     2807     6113    2      OCTET$ = MDS_PARAM_X5.SUB$(OCTET_NUM - 1);

   6113  3 020324   200262 720100                    LXL0    OCTET_NUM,,AUTO
         3 020325   777777 236010 xsym               LDQ     MDS_PARAM_X5-1,X0
         3 020326   200216 756100                    STQ     OCTET$,,AUTO

     2808     6114    2      IF (OCTET_NUM > 0 AND OCTET_NUM < 6) THEN

   6114  3 020327   200262 235100                    LDA     OCTET_NUM,,AUTO
         3 020330   020432 604400 3                  TMOZ    s:6125
         3 020331   000006 115007                    CMPA    6,DL
         3 020332   020432 605000 3                  TPL     s:6125

     2809     6115    3         DO;

     2810     6116    3           HEX_NUM = OCTET_NUM;

   6116  3 020333   200262 236100                    LDQ     OCTET_NUM,,AUTO
         3 020334   000034 736000                    QLS     28
         3 020335   200252 676100                    ERQ     HEX_NUM,,AUTO
         3 020336   776000 376003                    ANQ     -1024,DU
         3 020337   200252 656100                    ERSQ    HEX_NUM,,AUTO

PL6.E3A0      #001=THF$RAW File=THF$FORMAT.:E05TSI                               WED 07/30/97 06:08 Page:524
     2811     6117    3           CALL INSERT(MDS_TEXT, 17, 11, 'OCTET ', BINHEX(HEX_NIBBLE(0)),

   6117  3 020340   200252 236100                    LDQ     HEX_NUM,,AUTO
         3 020341   000040 772000                    QRL     32
         3 020342   200534 756100                    STQ     CHIP#+2,,AUTO
         3 020343   200252 236100                    LDQ     HEX_NUM,,AUTO
         3 020344   000034 772000                    QRL     28
         3 020345   000017 376007                    ANQ     15,DL
         3 020346   040100 100400                    MLR     fill='040'O
         3 020347   002156 000006 1                  ADSC9   BOARD_64K+687            cn=0,n=6
         3 020350   200321 200006                    ADSC9   MDS_TEXT+4,,AUTO         cn=1,n=6
         3 020351   200534 235100                    LDA     CHIP#+2,,AUTO
         3 020352   040100 100405                    MLR     fill='040'O
         3 020353   000122 000001 1                  ADSC9   BINHEX,A                 cn=0,n=1
         3 020354   200322 600001                    ADSC9   MDS_TEXT+5,,AUTO         cn=3,n=1
         3 020355   040100 100406                    MLR     fill='040'O
         3 020356   000122 000001 1                  ADSC9   BINHEX,Q                 cn=0,n=1
         3 020357   200323 000001                    ADSC9   MDS_TEXT+6,,AUTO         cn=0,n=1
         3 020360   002160 236000 1                  LDQ     BOARD_64K+689
         3 020361   000011 772000                    QRL     9
         3 020362   200323 552134                    STBQ    MDS_TEXT+6,'34'O,AUTO

     2812     6118    3                       BINHEX(HEX_NIBBLE(1)), ' = ');
     2813     6119    3           CALL INSERT(MDS_TEXT, 28, 2, BINHEX(OCTET_NIBBLE(2 * OCTET_NUM)),

   6119  3 020363   200262 235100                    LDA     OCTET_NUM,,AUTO
         3 020364   000003 735000                    ALS     3
         3 020365   020367 605000 3                  TPL     s:6119+4
         3 020366   000044 035003                    ADLA    36,DU
         3 020367   003100 061505                    CSR     bolr='003'O
         3 020370   200241 000004                    BDSC    OCTET_BYTE,A,AUTO        by=0,bit=0,n=4
         3 020371   200534 000044                    BDSC    CHIP#+2,,AUTO            by=0,bit=0,n=36
         3 020372   200534 236100                    LDQ     CHIP#+2,,AUTO
         3 020373   200262 235100                    LDA     OCTET_NUM,,AUTO
         3 020374   000003 735000                    ALS     3
         3 020375   020377 605000 3                  TPL     s:6119+12
         3 020376   000044 035003                    ADLA    36,DU
PL6.E3A0      #001=THF$RAW File=THF$FORMAT.:E05TSI                               WED 07/30/97 06:08 Page:525
         3 020377   003100 061505                    CSR     bolr='003'O
         3 020400   200241 040004                    BDSC    OCTET_BYTE,A,AUTO        by=0,bit=4,n=4
         3 020401   200535 000044                    BDSC    CHIP#+3,,AUTO            by=0,bit=0,n=36
         3 020402   200536 756100                    STQ     CHIP#+4,,AUTO
         3 020403   200535 236100                    LDQ     CHIP#+3,,AUTO
         3 020404   200536 235100                    LDA     CHIP#+4,,AUTO
         3 020405   040100 100405                    MLR     fill='040'O
         3 020406   000122 000001 1                  ADSC9   BINHEX,A                 cn=0,n=1
         3 020407   200324 000001                    ADSC9   MDS_TEXT+7,,AUTO         cn=0,n=1
         3 020410   040100 100406                    MLR     fill='040'O
         3 020411   000122 000001 1                  ADSC9   BINHEX,Q                 cn=0,n=1
         3 020412   200324 200001                    ADSC9   MDS_TEXT+7,,AUTO         cn=1,n=1

     2814     6120    3                       BINHEX(OCTET_NIBBLE(2*OCTET_NUM +1)));
     2815     6121    3           XST_CNT = 30;

   6121  3 020413   000036 235007                    LDA     30,DL
         3 020414   200342 755100                    STA     XST_CNT,,AUTO

     2816     6122    3           CALL THF$ADD_TEXTC(XST$, MDS_TEXT, XST_CNT);

   6122  3 020415   200342 630500                    EPPR0   XST_CNT,,AUTO
         3 020416   200536 450500                    STP0    CHIP#+4,,AUTO
         3 020417   200315 631500                    EPPR1   MDS_TEXT,,AUTO
         3 020420   200535 451500                    STP1    CHIP#+3,,AUTO
         3 020421   200300 633500                    EPPR3   XST$,,AUTO
         3 020422   200534 453500                    STP3    CHIP#+2,,AUTO
         3 020423   200534 630500                    EPPR0   CHIP#+2,,AUTO
         3 020424   000021 631400 xsym               EPPR1   B_VECTNIL+17
         3 020425   000000 701000 xent               TSX1    THF$ADD_TEXTC
         3 020426   000000 011000                    NOP     0

     2817     6123    3           NXST = NXST + 1;

   6123  3 020427   200343 235100                    LDA     NXST,,AUTO
         3 020430   000001 035007                    ADLA    1,DL
         3 020431   200343 755100                    STA     NXST,,AUTO
PL6.E3A0      #001=THF$RAW File=THF$FORMAT.:E05TSI                               WED 07/30/97 06:08 Page:526

     2818     6124    3         END;

     2819     6125    2      IF (OCTET_NUM = 1 OR OCTET_NUM = 2 OR OCTET_NUM = 5) THEN

   6125  3 020432   200262 235100                    LDA     OCTET_NUM,,AUTO
         3 020433   000001 115007                    CMPA    1,DL
         3 020434   020441 600000 3                  TZE     s:6127
         3 020435   000002 115007                    CMPA    2,DL
         3 020436   020441 600000 3                  TZE     s:6127
         3 020437   000005 115007                    CMPA    5,DL
         3 020440   020552 601000 3                  TNZ     s:6142

     2820     6126    3         DO;

     2821     6127    3           PARAM_INDX = 0;

   6127  3 020441   200253 450100                    STZ     PARAM_INDX,,AUTO

     2822     6128    4           DO X = (8 * DEVTBL.CODE(I)) TO (8 * DEVTBL.CODE(I) + 7);

   6128  3 020442   200010 236100                    LDQ     I,,AUTO
         3 020443   000012 402007                    MPY     10,DL
         3 020444   200215 470500                    LDP0    DEV$,,AUTO
         3 020445   000000 236106                    LDQ     0,QL,PR0
         3 020446   000030 772000                    QRL     24
         3 020447   007770 376007                    ANQ     4088,DL
         3 020450   200011 756100                    STQ     X,,AUTO
         3 020451   020532 710000 3                  TRA     s:6138+1

     2823     6129    4              IF (IO_MASK1(X)) AND (PARAM_TBL.COUNT(PARAM_INDX) > 1)

   6129  3 020452   200011 235100                    LDA     X,,AUTO
         3 020453   020455 605000 3                  TPL     s:6129+3
         3 020454   000044 035003                    ADLA    36,DU
         3 020455   000000 066505                    CMPB    filb='0'B
         3 020456   200221 000001                    BDSC    IO_MASK,A,AUTO           by=0,bit=0,n=1
PL6.E3A0      #001=THF$RAW File=THF$FORMAT.:E05TSI                               WED 07/30/97 06:08 Page:527
         3 020457   000002 000022 xsym               BDSC    B_VECTNIL+2              by=0,bit=0,n=18
         3 020460   020530 600000 3                  TZE     s:6137
         3 020461   200253 236100                    LDQ     PARAM_INDX,,AUTO
         3 020462   000014 402007                    MPY     12,DL
         3 020463   200216 470500                    LDP0    OCTET$,,AUTO
         3 020464   000000 236106                    LDQ     0,QL,PR0
         3 020465   777000 376003                    ANQ     -512,DU
         3 020466   002000 116003                    CMPQ    1024,DU
         3 020467   020530 602000 3                  TNC     s:6137

     2824     6130    5                 THEN DO;

     2825     6131    5                    MDS_TEXT = ' ';

   6131  3 020470   040100 100400                    MLR     fill='040'O
         3 020471   000035 000001 xsym               ADSC9   B_VECTNIL+29             cn=0,n=1
         3 020472   200315 000120                    ADSC9   MDS_TEXT,,AUTO           cn=0,n=80

     2826     6132    5                    CALL INSERT(MDS_TEXT, 17, PARAM_TBL.COUNT(PARAM_INDX), PARAM_TBL.
              6132                             TEXT(PARAM_INDX));

   6132  3 020473   200253 236100                    LDQ     PARAM_INDX,,AUTO
         3 020474   000014 402007                    MPY     12,DL
         3 020475   000000 236106                    LDQ     0,QL,PR0
         3 020476   000033 772000                    QRL     27
         3 020477   000000 620006                    EAX0    0,QL
         3 020500   200253 236100                    LDQ     PARAM_INDX,,AUTO
         3 020501   000060 402007                    MPY     48,DL
         3 020502   040140 100506                    MLR     fill='040'O
         3 020503   000000 200054                    ADSC9   0,Q,PR0                  cn=1,n=44
         3 020504   200321 200010                    ADSC9   MDS_TEXT+4,,AUTO         cn=1,n=*X0

     2827     6133    5                    XST_CNT = PARAM_TBL.COUNT(PARAM_INDX) + 17;

   6133  3 020505   200253 236100                    LDQ     PARAM_INDX,,AUTO
         3 020506   000014 402007                    MPY     12,DL
         3 020507   000000 236106                    LDQ     0,QL,PR0
PL6.E3A0      #001=THF$RAW File=THF$FORMAT.:E05TSI                               WED 07/30/97 06:08 Page:528
         3 020510   000033 772000                    QRL     27
         3 020511   000021 036007                    ADLQ    17,DL
         3 020512   200342 756100                    STQ     XST_CNT,,AUTO

     2828     6134    5                    CALL THF$ADD_TEXTC(XST$, MDS_TEXT, XST_CNT);

   6134  3 020513   200342 631500                    EPPR1   XST_CNT,,AUTO
         3 020514   200536 451500                    STP1    CHIP#+4,,AUTO
         3 020515   200315 633500                    EPPR3   MDS_TEXT,,AUTO
         3 020516   200535 453500                    STP3    CHIP#+3,,AUTO
         3 020517   200300 634500                    EPPR4   XST$,,AUTO
         3 020520   200534 454500                    STP4    CHIP#+2,,AUTO
         3 020521   200534 630500                    EPPR0   CHIP#+2,,AUTO
         3 020522   000021 631400 xsym               EPPR1   B_VECTNIL+17
         3 020523   000000 701000 xent               TSX1    THF$ADD_TEXTC
         3 020524   000000 011000                    NOP     0

     2829     6135    5                    NXST = NXST + 1;

   6135  3 020525   200343 235100                    LDA     NXST,,AUTO
         3 020526   000001 035007                    ADLA    1,DL
         3 020527   200343 755100                    STA     NXST,,AUTO

     2830     6136    5                 END;

     2831     6137    4              PARAM_INDX = PARAM_INDX + 1;

   6137  3 020530   200253 054100                    AOS     PARAM_INDX,,AUTO

     2832     6138    4           END;  /* DO X */

   6138  3 020531   200011 054100                    AOS     X,,AUTO
         3 020532   200010 236100                    LDQ     I,,AUTO
         3 020533   000012 402007                    MPY     10,DL
         3 020534   200215 470500                    LDP0    DEV$,,AUTO
         3 020535   000000 236106                    LDQ     0,QL,PR0
         3 020536   000030 772000                    QRL     24
PL6.E3A0      #001=THF$RAW File=THF$FORMAT.:E05TSI                               WED 07/30/97 06:08 Page:529
         3 020537   007770 376007                    ANQ     4088,DL
         3 020540   000007 036007                    ADLQ    7,DL
         3 020541   200011 116100                    CMPQ    X,,AUTO
         3 020542   020452 605000 3                  TPL     s:6129

     2833     6139    3           IF OCTET_NUM = 5 THEN PARAMETER_ID = 0;

   6139  3 020543   200262 235100                    LDA     OCTET_NUM,,AUTO
         3 020544   000005 115007                    CMPA    5,DL
         3 020545   020550 601000 3                  TNZ     s:6140

   6139  3 020546   000452 236000 4                  LDQ     298
         3 020547   200254 356100                    ANSQ    PARAMETER_ID,,AUTO

     2834     6140    3           RETURN;

   6140  3 020550   200526 221300                    LDX1  ! @BOARD,,AUTO
         3 020551   000001 702211                    TSX2  ! 1,X1

     2835     6141    3         END;
     2836     6142    2         ELSE RETURN;

   6142  3 020552   200526 221300                    LDX1  ! @BOARD,,AUTO
         3 020553   000001 702211                    TSX2  ! 1,X1

     2837     6143    2   END DECODE_PARAM_X5;
     2838     6144        %EJECT;
PL6.E3A0      #001=THF$RAW File=THF$FORMAT.:E05TSI                               WED 07/30/97 06:08 Page:530
     2839     6145        /**/
     2840     6146        /* PROCEDURE TO DECODE MACHINE EXCEPTION STATUS CODE FOR  MDS DISCS */
     2841     6147        /**/
     2842     6148    1   DECODE_PARAM_X6: PROC;

   6148  3 020554   200526 741300       DECODE_PARA* STX1  ! @BOARD,,AUTO

     2843     6149        /**/
     2844     6150    2      MDS_TEXT = ' ';

   6150  3 020555   040100 100400                    MLR     fill='040'O
         3 020556   000035 000001 xsym               ADSC9   B_VECTNIL+29             cn=0,n=1
         3 020557   200315 000120                    ADSC9   MDS_TEXT,,AUTO           cn=0,n=80

     2845     6151    2      IF (OCTET_NUM > 0 AND OCTET_NUM < 7) THEN

   6151  3 020560   200262 235100                    LDA     OCTET_NUM,,AUTO
         3 020561   020770 604400 3                  TMOZ    s:6175
         3 020562   000007 115007                    CMPA    7,DL
         3 020563   020770 605000 3                  TPL     s:6175

     2846     6152    3         DO;

     2847     6153    3           OCTET$ = MDS_PARAM_X6.SUB$(OCTET_NUM - 1);

   6153  3 020564   777777 236005 xsym               LDQ     MDS_PARAM_X6-1,AL
         3 020565   200216 756100                    STQ     OCTET$,,AUTO

     2848     6154    3           HEX_NUM = OCTET_NUM;

   6154  3 020566   200262 236100                    LDQ     OCTET_NUM,,AUTO
         3 020567   000034 736000                    QLS     28
         3 020570   200252 676100                    ERQ     HEX_NUM,,AUTO
         3 020571   776000 376003                    ANQ     -1024,DU
         3 020572   200252 656100                    ERSQ    HEX_NUM,,AUTO

     2849     6155    3           CALL INSERT(MDS_TEXT, 17, 11, 'OCTET ', BINHEX(HEX_NIBBLE(0)),
PL6.E3A0      #001=THF$RAW File=THF$FORMAT.:E05TSI                               WED 07/30/97 06:08 Page:531

   6155  3 020573   200252 236100                    LDQ     HEX_NUM,,AUTO
         3 020574   000040 772000                    QRL     32
         3 020575   200534 756100                    STQ     CHIP#+2,,AUTO
         3 020576   200252 236100                    LDQ     HEX_NUM,,AUTO
         3 020577   000034 772000                    QRL     28
         3 020600   000017 376007                    ANQ     15,DL
         3 020601   040100 100400                    MLR     fill='040'O
         3 020602   002156 000006 1                  ADSC9   BOARD_64K+687            cn=0,n=6
         3 020603   200321 200006                    ADSC9   MDS_TEXT+4,,AUTO         cn=1,n=6
         3 020604   200534 235100                    LDA     CHIP#+2,,AUTO
         3 020605   040100 100405                    MLR     fill='040'O
         3 020606   000122 000001 1                  ADSC9   BINHEX,A                 cn=0,n=1
         3 020607   200322 600001                    ADSC9   MDS_TEXT+5,,AUTO         cn=3,n=1
         3 020610   040100 100406                    MLR     fill='040'O
         3 020611   000122 000001 1                  ADSC9   BINHEX,Q                 cn=0,n=1
         3 020612   200323 000001                    ADSC9   MDS_TEXT+6,,AUTO         cn=0,n=1
         3 020613   002160 236000 1                  LDQ     BOARD_64K+689
         3 020614   000011 772000                    QRL     9
         3 020615   200323 552134                    STBQ    MDS_TEXT+6,'34'O,AUTO

     2850     6156    3                       BINHEX(HEX_NIBBLE(1)), ' = ');
     2851     6157    3           CALL INSERT(MDS_TEXT, 28, 2, BINHEX(OCTET_NIBBLE(2 * OCTET_NUM)),

   6157  3 020616   200262 235100                    LDA     OCTET_NUM,,AUTO
         3 020617   000003 735000                    ALS     3
         3 020620   020622 605000 3                  TPL     s:6157+4
         3 020621   000044 035003                    ADLA    36,DU
         3 020622   003100 061505                    CSR     bolr='003'O
         3 020623   200241 000004                    BDSC    OCTET_BYTE,A,AUTO        by=0,bit=0,n=4
         3 020624   200534 000044                    BDSC    CHIP#+2,,AUTO            by=0,bit=0,n=36
         3 020625   200534 236100                    LDQ     CHIP#+2,,AUTO
         3 020626   200262 235100                    LDA     OCTET_NUM,,AUTO
         3 020627   000003 735000                    ALS     3
         3 020630   020632 605000 3                  TPL     s:6157+12
         3 020631   000044 035003                    ADLA    36,DU
         3 020632   003100 061505                    CSR     bolr='003'O
PL6.E3A0      #001=THF$RAW File=THF$FORMAT.:E05TSI                               WED 07/30/97 06:08 Page:532
         3 020633   200241 040004                    BDSC    OCTET_BYTE,A,AUTO        by=0,bit=4,n=4
         3 020634   200535 000044                    BDSC    CHIP#+3,,AUTO            by=0,bit=0,n=36
         3 020635   200536 756100                    STQ     CHIP#+4,,AUTO
         3 020636   200535 236100                    LDQ     CHIP#+3,,AUTO
         3 020637   200536 235100                    LDA     CHIP#+4,,AUTO
         3 020640   040100 100405                    MLR     fill='040'O
         3 020641   000122 000001 1                  ADSC9   BINHEX,A                 cn=0,n=1
         3 020642   200324 000001                    ADSC9   MDS_TEXT+7,,AUTO         cn=0,n=1
         3 020643   040100 100406                    MLR     fill='040'O
         3 020644   000122 000001 1                  ADSC9   BINHEX,Q                 cn=0,n=1
         3 020645   200324 200001                    ADSC9   MDS_TEXT+7,,AUTO         cn=1,n=1

     2852     6158    3                       BINHEX(OCTET_NIBBLE(2*OCTET_NUM +1)));
     2853     6159    3           XST_CNT = 30;

   6159  3 020646   000036 235007                    LDA     30,DL
         3 020647   200342 755100                    STA     XST_CNT,,AUTO

     2854     6160    3           CALL THF$ADD_TEXTC(XST$, MDS_TEXT, XST_CNT);

   6160  3 020650   200342 630500                    EPPR0   XST_CNT,,AUTO
         3 020651   200536 450500                    STP0    CHIP#+4,,AUTO
         3 020652   200315 631500                    EPPR1   MDS_TEXT,,AUTO
         3 020653   200535 451500                    STP1    CHIP#+3,,AUTO
         3 020654   200300 633500                    EPPR3   XST$,,AUTO
         3 020655   200534 453500                    STP3    CHIP#+2,,AUTO
         3 020656   200534 630500                    EPPR0   CHIP#+2,,AUTO
         3 020657   000021 631400 xsym               EPPR1   B_VECTNIL+17
         3 020660   000000 701000 xent               TSX1    THF$ADD_TEXTC
         3 020661   000000 011000                    NOP     0

     2855     6161    3           NXST = NXST + 1;

   6161  3 020662   200343 235100                    LDA     NXST,,AUTO
         3 020663   000001 035007                    ADLA    1,DL
         3 020664   200343 755100                    STA     NXST,,AUTO

PL6.E3A0      #001=THF$RAW File=THF$FORMAT.:E05TSI                               WED 07/30/97 06:08 Page:533
     2856     6162    3           PARAM_INDX = 0;

   6162  3 020665   200253 450100                    STZ     PARAM_INDX,,AUTO

     2857     6163    4           DO X = (8 * DEVTBL.CODE(I)) TO (8 * DEVTBL.CODE(I) + 7);

   6163  3 020666   200010 236100                    LDQ     I,,AUTO
         3 020667   000012 402007                    MPY     10,DL
         3 020670   200215 470500                    LDP0    DEV$,,AUTO
         3 020671   000000 236106                    LDQ     0,QL,PR0
         3 020672   000030 772000                    QRL     24
         3 020673   007770 376007                    ANQ     4088,DL
         3 020674   200011 756100                    STQ     X,,AUTO
         3 020675   020756 710000 3                  TRA     s:6173+1

     2858     6164    4              IF (IO_MASK1(X)) AND (PARAM_TBL.COUNT(PARAM_INDX) > 1)

   6164  3 020676   200011 235100                    LDA     X,,AUTO
         3 020677   020701 605000 3                  TPL     s:6164+3
         3 020700   000044 035003                    ADLA    36,DU
         3 020701   000000 066505                    CMPB    filb='0'B
         3 020702   200221 000001                    BDSC    IO_MASK,A,AUTO           by=0,bit=0,n=1
         3 020703   000002 000022 xsym               BDSC    B_VECTNIL+2              by=0,bit=0,n=18
         3 020704   020754 600000 3                  TZE     s:6172
         3 020705   200253 236100                    LDQ     PARAM_INDX,,AUTO
         3 020706   000014 402007                    MPY     12,DL
         3 020707   200216 470500                    LDP0    OCTET$,,AUTO
         3 020710   000000 236106                    LDQ     0,QL,PR0
         3 020711   777000 376003                    ANQ     -512,DU
         3 020712   002000 116003                    CMPQ    1024,DU
         3 020713   020754 602000 3                  TNC     s:6172

     2859     6165    5                 THEN DO;

     2860     6166    5                    MDS_TEXT = ' ';

   6166  3 020714   040100 100400                    MLR     fill='040'O
PL6.E3A0      #001=THF$RAW File=THF$FORMAT.:E05TSI                               WED 07/30/97 06:08 Page:534
         3 020715   000035 000001 xsym               ADSC9   B_VECTNIL+29             cn=0,n=1
         3 020716   200315 000120                    ADSC9   MDS_TEXT,,AUTO           cn=0,n=80

     2861     6167    5                    CALL INSERT(MDS_TEXT, 17, PARAM_TBL.COUNT(PARAM_INDX), PARAM_TBL.
              6167                             TEXT(PARAM_INDX));

   6167  3 020717   200253 236100                    LDQ     PARAM_INDX,,AUTO
         3 020720   000014 402007                    MPY     12,DL
         3 020721   000000 236106                    LDQ     0,QL,PR0
         3 020722   000033 772000                    QRL     27
         3 020723   000000 620006                    EAX0    0,QL
         3 020724   200253 236100                    LDQ     PARAM_INDX,,AUTO
         3 020725   000060 402007                    MPY     48,DL
         3 020726   040140 100506                    MLR     fill='040'O
         3 020727   000000 200054                    ADSC9   0,Q,PR0                  cn=1,n=44
         3 020730   200321 200010                    ADSC9   MDS_TEXT+4,,AUTO         cn=1,n=*X0

     2862     6168    5                    XST_CNT = PARAM_TBL.COUNT(PARAM_INDX) + 17;

   6168  3 020731   200253 236100                    LDQ     PARAM_INDX,,AUTO
         3 020732   000014 402007                    MPY     12,DL
         3 020733   000000 236106                    LDQ     0,QL,PR0
         3 020734   000033 772000                    QRL     27
         3 020735   000021 036007                    ADLQ    17,DL
         3 020736   200342 756100                    STQ     XST_CNT,,AUTO

     2863     6169    5                    CALL THF$ADD_TEXTC(XST$, MDS_TEXT, XST_CNT);

   6169  3 020737   200342 631500                    EPPR1   XST_CNT,,AUTO
         3 020740   200536 451500                    STP1    CHIP#+4,,AUTO
         3 020741   200315 633500                    EPPR3   MDS_TEXT,,AUTO
         3 020742   200535 453500                    STP3    CHIP#+3,,AUTO
         3 020743   200300 634500                    EPPR4   XST$,,AUTO
         3 020744   200534 454500                    STP4    CHIP#+2,,AUTO
         3 020745   200534 630500                    EPPR0   CHIP#+2,,AUTO
         3 020746   000021 631400 xsym               EPPR1   B_VECTNIL+17
         3 020747   000000 701000 xent               TSX1    THF$ADD_TEXTC
PL6.E3A0      #001=THF$RAW File=THF$FORMAT.:E05TSI                               WED 07/30/97 06:08 Page:535
         3 020750   000000 011000                    NOP     0

     2864     6170    5                    NXST = NXST + 1;

   6170  3 020751   200343 235100                    LDA     NXST,,AUTO
         3 020752   000001 035007                    ADLA    1,DL
         3 020753   200343 755100                    STA     NXST,,AUTO

     2865     6171    5                 END;

     2866     6172    4              PARAM_INDX = PARAM_INDX + 1;

   6172  3 020754   200253 054100                    AOS     PARAM_INDX,,AUTO

     2867     6173    4           END;  /* DO X */

   6173  3 020755   200011 054100                    AOS     X,,AUTO
         3 020756   200010 236100                    LDQ     I,,AUTO
         3 020757   000012 402007                    MPY     10,DL
         3 020760   200215 470500                    LDP0    DEV$,,AUTO
         3 020761   000000 236106                    LDQ     0,QL,PR0
         3 020762   000030 772000                    QRL     24
         3 020763   007770 376007                    ANQ     4088,DL
         3 020764   000007 036007                    ADLQ    7,DL
         3 020765   200011 116100                    CMPQ    X,,AUTO
         3 020766   020676 605000 3                  TPL     s:6164

     2868     6174    3         END;  /* OCTET_NUM = 1 TO 6 */

   6174  3 020767   021771 710000 3                  TRA     s:6317

     2869     6175    2      ELSE IF OCTET_NUM = 7 THEN

   6175  3 020770   000007 115007                    CMPA    7,DL
         3 020771   021052 601000 3                  TNZ     s:6187

     2870     6176    3         DO;                           /* DRIVE ENDING STATUS */
PL6.E3A0      #001=THF$RAW File=THF$FORMAT.:E05TSI                               WED 07/30/97 06:08 Page:536

     2871     6177    3           CALL INSERT(MDS_TEXT, 17, 44,

   6177  3 020772   040100 100400                    MLR     fill='040'O
         3 020773   002200 000054 1                  ADSC9   BOARD_64K+705            cn=0,n=44
         3 020774   200321 200054                    ADSC9   MDS_TEXT+4,,AUTO         cn=1,n=44

     2872     6178    3                       'OCTET 07 TO 08 = 0000  - DRIVE ENDING STATUS');
     2873     6179    3           CALL INSERT(MDS_TEXT, 34, 4, BINHEX(OCTET_NIBBLE(14)),

   6179  3 020775   200242 236100                    LDQ     OCTET_BYTE+1,,AUTO
         3 020776   000014 772000                    QRL     12
         3 020777   000017 376007                    ANQ     15,DL
         3 021000   200534 756100                    STQ     CHIP#+2,,AUTO
         3 021001   200242 236100                    LDQ     OCTET_BYTE+1,,AUTO
         3 021002   000010 772000                    QRL     8
         3 021003   000017 376007                    ANQ     15,DL
         3 021004   200535 756100                    STQ     CHIP#+3,,AUTO
         3 021005   200242 236100                    LDQ     OCTET_BYTE+1,,AUTO
         3 021006   000004 772000                    QRL     4
         3 021007   000017 376007                    ANQ     15,DL
         3 021010   200536 756100                    STQ     CHIP#+4,,AUTO
         3 021011   200242 236100                    LDQ     OCTET_BYTE+1,,AUTO
         3 021012   000017 376007                    ANQ     15,DL
         3 021013   200534 235100                    LDA     CHIP#+2,,AUTO
         3 021014   040100 100405                    MLR     fill='040'O
         3 021015   000122 000001 1                  ADSC9   BINHEX,A                 cn=0,n=1
         3 021016   200325 400001                    ADSC9   MDS_TEXT+8,,AUTO         cn=2,n=1
         3 021017   200535 235100                    LDA     CHIP#+3,,AUTO
         3 021020   040100 100405                    MLR     fill='040'O
         3 021021   000122 000001 1                  ADSC9   BINHEX,A                 cn=0,n=1
         3 021022   200325 600001                    ADSC9   MDS_TEXT+8,,AUTO         cn=3,n=1
         3 021023   200536 235100                    LDA     CHIP#+4,,AUTO
         3 021024   040100 100405                    MLR     fill='040'O
         3 021025   000122 000001 1                  ADSC9   BINHEX,A                 cn=0,n=1
         3 021026   200326 000001                    ADSC9   MDS_TEXT+9,,AUTO         cn=0,n=1
         3 021027   040100 100406                    MLR     fill='040'O
PL6.E3A0      #001=THF$RAW File=THF$FORMAT.:E05TSI                               WED 07/30/97 06:08 Page:537
         3 021030   000122 000001 1                  ADSC9   BINHEX,Q                 cn=0,n=1
         3 021031   200326 200001                    ADSC9   MDS_TEXT+9,,AUTO         cn=1,n=1

     2874     6180    3                                        BINHEX(OCTET_NIBBLE(15)),
     2875     6181    3                                        BINHEX(OCTET_NIBBLE(16)),
     2876     6182    3                                        BINHEX(OCTET_NIBBLE(17)));
     2877     6183    3           XST_CNT = 61;

   6183  3 021032   000075 235007                    LDA     61,DL
         3 021033   200342 755100                    STA     XST_CNT,,AUTO

     2878     6184    3           CALL THF$ADD_TEXTC(XST$, MDS_TEXT, XST_CNT);

   6184  3 021034   200342 630500                    EPPR0   XST_CNT,,AUTO
         3 021035   200536 450500                    STP0    CHIP#+4,,AUTO
         3 021036   200315 631500                    EPPR1   MDS_TEXT,,AUTO
         3 021037   200535 451500                    STP1    CHIP#+3,,AUTO
         3 021040   200300 633500                    EPPR3   XST$,,AUTO
         3 021041   200534 453500                    STP3    CHIP#+2,,AUTO
         3 021042   200534 630500                    EPPR0   CHIP#+2,,AUTO
         3 021043   000021 631400 xsym               EPPR1   B_VECTNIL+17
         3 021044   000000 701000 xent               TSX1    THF$ADD_TEXTC
         3 021045   000000 011000                    NOP     0

     2879     6185    3           NXST = NXST + 1;

   6185  3 021046   200343 235100                    LDA     NXST,,AUTO
         3 021047   000001 035007                    ADLA    1,DL
         3 021050   200343 755100                    STA     NXST,,AUTO

     2880     6186    3         END;  /* OCTET 7 */

   6186  3 021051   021771 710000 3                  TRA     s:6317

     2881     6187    2      ELSE IF OCTET_NUM = 8 THEN

   6187  3 021052   000010 115007                    CMPA    8,DL
PL6.E3A0      #001=THF$RAW File=THF$FORMAT.:E05TSI                               WED 07/30/97 06:08 Page:538
         3 021053   021064 601000 3                  TNZ     s:6192

     2882     6188    3         DO;

     2883     6189    3           MDS_STATUS_REG1 = OCTET_BYTE(8);

   6189  3 021054   200242 236100                    LDQ     OCTET_BYTE+1,,AUTO
         3 021055   000034 736000                    QLS     28
         3 021056   200256 676100                    ERQ     MDS_STATUS_REG1,,AUTO
         3 021057   776000 376003                    ANQ     -1024,DU
         3 021060   200256 656100                    ERSQ    MDS_STATUS_REG1,,AUTO

     2884     6190    3           CALL DECODE_DRIVE_STAT;

   6190  3 021061   025046 701000 3                  TSX1    DECODE_DRIVE_STAT
         3 021062   000000 011000                    NOP     0

     2885     6191    3         END;  /* OCTET_NUM = 8 */

   6191  3 021063   021771 710000 3                  TRA     s:6317

     2886     6192    2      ELSE IF OCTET_NUM = 9 THEN     /* OCTETS 9 & A - CMD ENDING STATUS */

   6192  3 021064   000011 115007                    CMPA    9,DL
         3 021065   021241 601000 3                  TNZ     s:6217

     2887     6193    3         DO;

     2888     6194    3           CALL INSERT(MDS_TEXT, 17, 47,

   6194  3 021066   040100 100400                    MLR     fill='040'O
         3 021067   002213 000057 1                  ADSC9   BOARD_64K+716            cn=0,n=47
         3 021070   200321 200057                    ADSC9   MDS_TEXT+4,,AUTO         cn=1,n=47

     2889     6195    3                       'OCTETS 09 TO 0A = 0000  - COMMAND ENDING STATUS');
     2890     6196    3           CALL INSERT(MDS_TEXT, 35, 4, BINHEX(OCTET_NIBBLE(18)),

PL6.E3A0      #001=THF$RAW File=THF$FORMAT.:E05TSI                               WED 07/30/97 06:08 Page:539
   6196  3 021071   200243 236100                    LDQ     OCTET_BYTE+2,,AUTO
         3 021072   000040 772000                    QRL     32
         3 021073   200534 756100                    STQ     CHIP#+2,,AUTO
         3 021074   200243 236100                    LDQ     OCTET_BYTE+2,,AUTO
         3 021075   000034 772000                    QRL     28
         3 021076   000017 376007                    ANQ     15,DL
         3 021077   200535 756100                    STQ     CHIP#+3,,AUTO
         3 021100   200243 236100                    LDQ     OCTET_BYTE+2,,AUTO
         3 021101   000030 772000                    QRL     24
         3 021102   000017 376007                    ANQ     15,DL
         3 021103   200536 756100                    STQ     CHIP#+4,,AUTO
         3 021104   200243 236100                    LDQ     OCTET_BYTE+2,,AUTO
         3 021105   000024 772000                    QRL     20
         3 021106   000017 376007                    ANQ     15,DL
         3 021107   200534 235100                    LDA     CHIP#+2,,AUTO
         3 021110   040100 100405                    MLR     fill='040'O
         3 021111   000122 000001 1                  ADSC9   BINHEX,A                 cn=0,n=1
         3 021112   200325 600001                    ADSC9   MDS_TEXT+8,,AUTO         cn=3,n=1
         3 021113   200535 235100                    LDA     CHIP#+3,,AUTO
         3 021114   040100 100405                    MLR     fill='040'O
         3 021115   000122 000001 1                  ADSC9   BINHEX,A                 cn=0,n=1
         3 021116   200326 000001                    ADSC9   MDS_TEXT+9,,AUTO         cn=0,n=1
         3 021117   200536 235100                    LDA     CHIP#+4,,AUTO
         3 021120   040100 100405                    MLR     fill='040'O
         3 021121   000122 000001 1                  ADSC9   BINHEX,A                 cn=0,n=1
         3 021122   200326 200001                    ADSC9   MDS_TEXT+9,,AUTO         cn=1,n=1
         3 021123   040100 100406                    MLR     fill='040'O
         3 021124   000122 000001 1                  ADSC9   BINHEX,Q                 cn=0,n=1
         3 021125   200326 400001                    ADSC9   MDS_TEXT+9,,AUTO         cn=2,n=1

     2891     6197    3                                        BINHEX(OCTET_NIBBLE(19)),
     2892     6198    3                                        BINHEX(OCTET_NIBBLE(20)),
     2893     6199    3                                        BINHEX(OCTET_NIBBLE(21)));
     2894     6200    3           XST_CNT = 64;

   6200  3 021126   000100 235007                    LDA     64,DL
         3 021127   200342 755100                    STA     XST_CNT,,AUTO
PL6.E3A0      #001=THF$RAW File=THF$FORMAT.:E05TSI                               WED 07/30/97 06:08 Page:540

     2895     6201    3           CALL THF$ADD_TEXTC(XST$, MDS_TEXT, XST_CNT);

   6201  3 021130   200342 630500                    EPPR0   XST_CNT,,AUTO
         3 021131   200536 450500                    STP0    CHIP#+4,,AUTO
         3 021132   200315 631500                    EPPR1   MDS_TEXT,,AUTO
         3 021133   200535 451500                    STP1    CHIP#+3,,AUTO
         3 021134   200300 633500                    EPPR3   XST$,,AUTO
         3 021135   200534 453500                    STP3    CHIP#+2,,AUTO
         3 021136   200534 630500                    EPPR0   CHIP#+2,,AUTO
         3 021137   000021 631400 xsym               EPPR1   B_VECTNIL+17
         3 021140   000000 701000 xent               TSX1    THF$ADD_TEXTC
         3 021141   000000 011000                    NOP     0

     2896     6202    3           NXST = NXST + 1;

   6202  3 021142   200343 235100                    LDA     NXST,,AUTO
         3 021143   000001 035007                    ADLA    1,DL
         3 021144   200343 755100                    STA     NXST,,AUTO

     2897     6203    3           MDS_STATUS_REG2(0) = OCTET_BYTE(9);

   6203  3 021145   200243 236100                    LDQ     OCTET_BYTE+2,,AUTO
         3 021146   200257 676100                    ERQ     MDS_STATUS_REG2,,AUTO
         3 021147   776000 376003                    ANQ     -1024,DU
         3 021150   200257 656100                    ERSQ    MDS_STATUS_REG2,,AUTO

     2898     6204    4           DO X = 0 TO 48;              /* DECODE CMD IDENTIFIER */

   6204  3 021151   200011 450100                    STZ     X,,AUTO

     2899     6205    4              IF MDS_CMD_ENDING_STAT.CMD_IDENT = MDS_CMD_IDENT.CODE(X) THEN

   6205  3 021152   200011 236100                    LDQ     X,,AUTO
         3 021153   000014 402007                    MPY     12,DL
         3 021154   000000 236006 xsym               LDQ     MDS_CMD_IDENT,QL
         3 021155   000033 772000                    QRL     27
PL6.E3A0      #001=THF$RAW File=THF$FORMAT.:E05TSI                               WED 07/30/97 06:08 Page:541
         3 021156   200534 756100                    STQ     CHIP#+2,,AUTO
         3 021157   200257 236100                    LDQ     MDS_STATUS_REG2,,AUTO
         3 021160   000034 772000                    QRL     28
         3 021161   200534 116100                    CMPQ    CHIP#+2,,AUTO
         3 021162   021234 601000 3                  TNZ     s:6215

     2900     6206    5                 DO;

     2901     6207    5                   MDS_TEXT = ' ';

   6207  3 021163   040100 100400                    MLR     fill='040'O
         3 021164   000035 000001 xsym               ADSC9   B_VECTNIL+29             cn=0,n=1
         3 021165   200315 000120                    ADSC9   MDS_TEXT,,AUTO           cn=0,n=80

     2902     6208    5                   CALL INSERT(MDS_TEXT,19,MDS_CMD_IDENT.COUNT(X) + 19,

   6208  3 021166   200011 236100                    LDQ     X,,AUTO
         3 021167   000014 402007                    MPY     12,DL
         3 021170   000000 220006 xsym               LDX0    MDS_CMD_IDENT,QL
         3 021171   000777 360003                    ANX0    511,DU
         3 021172   000023 621010                    EAX1    19,X0
         3 021173   040140 100400                    MLR     fill='040'O
         3 021174   002227 000023 1                  ADSC9   BOARD_64K+728            cn=0,n=19
         3 021175   200321 600011                    ADSC9   MDS_TEXT+4,,AUTO         cn=3,n=*X1
         3 021176   000000 636011                    EAQ     0,X1
         3 021177   000022 772000                    QRL     18
         3 021200   000024 116007                    CMPQ    20,DL
         3 021201   021210 602000 3                  TNC     s:6211
         3 021202   200011 236100                    LDQ     X,,AUTO
         3 021203   000060 402007                    MPY     48,DL
         3 021204   777755 620011                    EAX0    -19,X1
         3 021205   040140 100406                    MLR     fill='040'O
         3 021206   000000 400054 xsym               ADSC9   MDS_CMD_IDENT,Q          cn=2,n=44
         3 021207   200326 400010                    ADSC9   MDS_TEXT+9,,AUTO         cn=2,n=*X0

     2903     6209    5                               'COMMAND IDENTIFIER:',
     2904     6210    5                               MDS_CMD_IDENT.TEXT(X));
PL6.E3A0      #001=THF$RAW File=THF$FORMAT.:E05TSI                               WED 07/30/97 06:08 Page:542
     2905     6211    5                   XST_CNT = MDS_CMD_IDENT.COUNT(X) + 38;

   6211  3 021210   200011 236100                    LDQ     X,,AUTO
         3 021211   000014 402007                    MPY     12,DL
         3 021212   000000 236006 xsym               LDQ     MDS_CMD_IDENT,QL
         3 021213   000022 772000                    QRL     18
         3 021214   000777 376007                    ANQ     511,DL
         3 021215   000046 036007                    ADLQ    38,DL
         3 021216   200342 756100                    STQ     XST_CNT,,AUTO

     2906     6212    5                   CALL THF$ADD_TEXTC(XST$, MDS_TEXT, XST_CNT);

   6212  3 021217   200342 630500                    EPPR0   XST_CNT,,AUTO
         3 021220   200536 450500                    STP0    CHIP#+4,,AUTO
         3 021221   200315 631500                    EPPR1   MDS_TEXT,,AUTO
         3 021222   200535 451500                    STP1    CHIP#+3,,AUTO
         3 021223   200300 633500                    EPPR3   XST$,,AUTO
         3 021224   200534 453500                    STP3    CHIP#+2,,AUTO
         3 021225   200534 630500                    EPPR0   CHIP#+2,,AUTO
         3 021226   000021 631400 xsym               EPPR1   B_VECTNIL+17
         3 021227   000000 701000 xent               TSX1    THF$ADD_TEXTC
         3 021230   000000 011000                    NOP     0

     2907     6213    5                   NXST = NXST + 1;

   6213  3 021231   200343 235100                    LDA     NXST,,AUTO
         3 021232   000001 035007                    ADLA    1,DL
         3 021233   200343 755100                    STA     NXST,,AUTO

     2908     6214    5                 END;

     2909     6215    4           END;  /* DO X */

   6215  3 021234   200011 054100                    AOS     X,,AUTO
         3 021235   200011 235100                    LDA     X,,AUTO
         3 021236   000060 115007                    CMPA    48,DL
         3 021237   021152 604400 3                  TMOZ    s:6205
PL6.E3A0      #001=THF$RAW File=THF$FORMAT.:E05TSI                               WED 07/30/97 06:08 Page:543

     2910     6216    3         END;    /* OCTET 9 */

   6216  3 021240   021771 710000 3                  TRA     s:6317

     2911     6217    2      ELSE IF OCTET_NUM = 10 THEN

   6217  3 021241   000012 115007                    CMPA    10,DL
         3 021242   021261 601000 3                  TNZ     s:6227

     2912     6218    3         DO;                          /* DECODE ERROR CODE */

     2913     6219    3           MDS_STATUS_REG2(1) = OCTET_BYTE(10);

   6219  3 021243   200243 236100                    LDQ     OCTET_BYTE+2,,AUTO
         3 021244   200257 676100                    ERQ     MDS_STATUS_REG2,,AUTO
         3 021245   001774 376003                    ANQ     1020,DU
         3 021246   200257 656100                    ERSQ    MDS_STATUS_REG2,,AUTO

     2914     6220    3           CALL DECODE_CMD_STAT;

   6220  3 021247   025266 701000 3                  TSX1    DECODE_CMD_STAT
         3 021250   000000 011000                    NOP     0

     2915     6221    3           IF PARAMETER_LENGTH = %HEX_0B    /* TEST FOR SHORT PARAMETER */

   6221  3 021251   200255 236100                    LDQ     PARAMETER_LENGTH,,AUTO
         3 021252   776000 376003                    ANQ     -1024,DU
         3 021253   026000 116003                    CMPQ    11264,DU
         3 021254   021771 601000 3                  TNZ     s:6317

     2916     6222    4              THEN DO;

     2917     6223    4                 CALL DECODE_PARAM_3X;

   6223  3 021255   025672 701000 3                  TSX1    DECODE_PARAM_3X
         3 021256   000000 011000                    NOP     0
PL6.E3A0      #001=THF$RAW File=THF$FORMAT.:E05TSI                               WED 07/30/97 06:08 Page:544

     2918     6224    4                 RETURN;

   6224  3 021257   200526 221300                    LDX1  ! @BOARD,,AUTO
         3 021260   000001 702211                    TSX2  ! 1,X1

     2919     6225    4              END;
     2920     6226    3         END;    /* OCTET_NUM = 10 */
     2921     6227    2      ELSE IF OCTET_NUM = 11 THEN

   6227  3 021261   000013 115007                    CMPA    11,DL
         3 021262   021417 601000 3                  TNZ     s:6253

     2922     6228    3         DO;

     2923     6229    3           CALL INSERT(MDS_TEXT, 17, 43,

   6229  3 021263   040100 100400                    MLR     fill='040'O
         3 021264   002234 000053 1                  ADSC9   BOARD_64K+733            cn=0,n=43
         3 021265   200321 200053                    ADSC9   MDS_TEXT+4,,AUTO         cn=1,n=43

     2924     6230    3                       'OCTET 0B = 00 -- DRIVE''S STATUS/ERROR CODES');
     2925     6231    3           CALL INSERT(MDS_TEXT, 28, 2, BINHEX(OCTET_NIBBLE(22)),

   6231  3 021266   200243 236100                    LDQ     OCTET_BYTE+2,,AUTO
         3 021267   000020 772000                    QRL     16
         3 021270   000017 376007                    ANQ     15,DL
         3 021271   200534 756100                    STQ     CHIP#+2,,AUTO
         3 021272   200243 236100                    LDQ     OCTET_BYTE+2,,AUTO
         3 021273   000014 772000                    QRL     12
         3 021274   000017 376007                    ANQ     15,DL
         3 021275   200534 235100                    LDA     CHIP#+2,,AUTO
         3 021276   040100 100405                    MLR     fill='040'O
         3 021277   000122 000001 1                  ADSC9   BINHEX,A                 cn=0,n=1
         3 021300   200324 000001                    ADSC9   MDS_TEXT+7,,AUTO         cn=0,n=1
         3 021301   040100 100406                    MLR     fill='040'O
         3 021302   000122 000001 1                  ADSC9   BINHEX,Q                 cn=0,n=1
PL6.E3A0      #001=THF$RAW File=THF$FORMAT.:E05TSI                               WED 07/30/97 06:08 Page:545
         3 021303   200324 200001                    ADSC9   MDS_TEXT+7,,AUTO         cn=1,n=1

     2926     6232    3                                        BINHEX(OCTET_NIBBLE(23)));
     2927     6233    3           XST_CNT = 60;

   6233  3 021304   000074 235007                    LDA     60,DL
         3 021305   200342 755100                    STA     XST_CNT,,AUTO

     2928     6234    3           CALL THF$ADD_TEXTC(XST$, MDS_TEXT, XST_CNT);

   6234  3 021306   200342 630500                    EPPR0   XST_CNT,,AUTO
         3 021307   200536 450500                    STP0    CHIP#+4,,AUTO
         3 021310   200315 631500                    EPPR1   MDS_TEXT,,AUTO
         3 021311   200535 451500                    STP1    CHIP#+3,,AUTO
         3 021312   200300 633500                    EPPR3   XST$,,AUTO
         3 021313   200534 453500                    STP3    CHIP#+2,,AUTO
         3 021314   200534 630500                    EPPR0   CHIP#+2,,AUTO
         3 021315   000021 631400 xsym               EPPR1   B_VECTNIL+17
         3 021316   000000 701000 xent               TSX1    THF$ADD_TEXTC
         3 021317   000000 011000                    NOP     0

     2929     6235    3           NXST = NXST + 1;

   6235  3 021320   200343 235100                    LDA     NXST,,AUTO
         3 021321   000001 035007                    ADLA    1,DL
         3 021322   200343 755100                    STA     NXST,,AUTO

     2930     6236    3           IF EL$IOERR.MODEL = 'MSU8092' THEN

   6236  3 021323   200005 470500                    LDP0    INFO+1,,AUTO
         3 021324   040000 106500                    CMPC    fill='040'O
         3 021325   000030 000010                    ADSC9   24,,PR0                  cn=0,n=8
         3 021326   002247 000007 1                  ADSC9   BOARD_64K+744            cn=0,n=7
         3 021327   021771 601000 3                  TNZ     s:6317

     2931     6237    4              DO;                       /* DECODE STATUS FOR MDS II DISC */

PL6.E3A0      #001=THF$RAW File=THF$FORMAT.:E05TSI                               WED 07/30/97 06:08 Page:546
     2932     6238    4                MDS_TBL$ = ADDR(MDSII_STATUS);

   6238  3 021330   000453 236000 4                  LDQ     299
         3 021331   200217 756100                    STQ     MDS_TBL$,,AUTO

     2933     6239    4                MAX_ENTRY = %MDSII_MAX_STATUS;

   6239  3 021332   000032 235007                    LDA     26,DL
         3 021333   200261 755100                    STA     MAX_ENTRY,,AUTO

     2934     6240    5                DO X = 0 TO MAX_ENTRY;

   6240  3 021334   200011 450100                    STZ     X,,AUTO
         3 021335   021412 710000 3                  TRA     s:6250+1

     2935     6241    5                   IF OCTET_BYTE(11) = MDS_TBL.CODE(X) THEN

   6241  3 021336   200011 236100                    LDQ     X,,AUTO
         3 021337   000014 402007                    MPY     12,DL
         3 021340   200217 470500                    LDP0    MDS_TBL$,,AUTO
         3 021341   000000 236106                    LDQ     0,QL,PR0
         3 021342   000033 772000                    QRL     27
         3 021343   200534 756100                    STQ     CHIP#+2,,AUTO
         3 021344   200243 236100                    LDQ     OCTET_BYTE+2,,AUTO
         3 021345   000014 772000                    QRL     12
         3 021346   000377 376007                    ANQ     255,DL
         3 021347   200534 116100                    CMPQ    CHIP#+2,,AUTO
         3 021350   021411 601000 3                  TNZ     s:6250

     2936     6242    6                      DO;

     2937     6243    6                        MDS_TEXT = ' ';

   6243  3 021351   040100 100400                    MLR     fill='040'O
         3 021352   000035 000001 xsym               ADSC9   B_VECTNIL+29             cn=0,n=1
         3 021353   200315 000120                    ADSC9   MDS_TEXT,,AUTO           cn=0,n=80

PL6.E3A0      #001=THF$RAW File=THF$FORMAT.:E05TSI                               WED 07/30/97 06:08 Page:547
     2938     6244    6                        CALL INSERT(MDS_TEXT, 19, MDS_TBL.COUNT(X),

   6244  3 021354   200011 236100                    LDQ     X,,AUTO
         3 021355   000014 402007                    MPY     12,DL
         3 021356   000000 220106                    LDX0    0,QL,PR0
         3 021357   000777 360003                    ANX0    511,DU
         3 021360   200011 236100                    LDQ     X,,AUTO
         3 021361   000060 402007                    MPY     48,DL
         3 021362   040140 100506                    MLR     fill='040'O
         3 021363   000000 400054                    ADSC9   0,Q,PR0                  cn=2,n=44
         3 021364   200321 600010                    ADSC9   MDS_TEXT+4,,AUTO         cn=3,n=*X0

     2939     6245    6                                    MDS_TBL.TEXT(X));
     2940     6246    6                        XST_CNT = MDS_TBL.COUNT(X) + 19;

   6246  3 021365   200011 236100                    LDQ     X,,AUTO
         3 021366   000014 402007                    MPY     12,DL
         3 021367   000000 236106                    LDQ     0,QL,PR0
         3 021370   000022 772000                    QRL     18
         3 021371   000777 376007                    ANQ     511,DL
         3 021372   000023 036007                    ADLQ    19,DL
         3 021373   200342 756100                    STQ     XST_CNT,,AUTO

     2941     6247    6                        CALL THF$ADD_TEXTC(XST$, MDS_TEXT, XST_CNT);

   6247  3 021374   200342 631500                    EPPR1   XST_CNT,,AUTO
         3 021375   200536 451500                    STP1    CHIP#+4,,AUTO
         3 021376   200315 633500                    EPPR3   MDS_TEXT,,AUTO
         3 021377   200535 453500                    STP3    CHIP#+3,,AUTO
         3 021400   200300 634500                    EPPR4   XST$,,AUTO
         3 021401   200534 454500                    STP4    CHIP#+2,,AUTO
         3 021402   200534 630500                    EPPR0   CHIP#+2,,AUTO
         3 021403   000021 631400 xsym               EPPR1   B_VECTNIL+17
         3 021404   000000 701000 xent               TSX1    THF$ADD_TEXTC
         3 021405   000000 011000                    NOP     0

     2942     6248    6                        NXST = NXST + 1;
PL6.E3A0      #001=THF$RAW File=THF$FORMAT.:E05TSI                               WED 07/30/97 06:08 Page:548

   6248  3 021406   200343 235100                    LDA     NXST,,AUTO
         3 021407   000001 035007                    ADLA    1,DL
         3 021410   200343 755100                    STA     NXST,,AUTO

     2943     6249    6                      END;

     2944     6250    5                END;  /* DO X */

   6250  3 021411   200011 054100                    AOS     X,,AUTO
         3 021412   200261 236100                    LDQ     MAX_ENTRY,,AUTO
         3 021413   021336 604000 3                  TMI     s:6241
         3 021414   200011 116100                    CMPQ    X,,AUTO
         3 021415   021336 605000 3                  TPL     s:6241

     2945     6251    4              END;  /* MODEL = MSU8092 */

     2946     6252    3         END;

   6252  3 021416   021771 710000 3                  TRA     s:6317

     2947     6253    2      ELSE IF OCTET_NUM = 12 THEN

   6253  3 021417   000014 115007                    CMPA    12,DL
         3 021420   021622 601000 3                  TNZ     s:6285

     2948     6254    3         DO;

     2949     6255    4           DO X = 0 TO 3;

   6255  3 021421   200011 450100                    STZ     X,,AUTO

     2950     6256    4              FRU_STRING.OCTET.NIB1(X) = BINHEX(OCTET_NIBBLE(2 * X + 24));

   6256  3 021422   200011 235100                    LDA     X,,AUTO
         3 021423   000003 735000                    ALS     3
         3 021424   021426 605000 3                  TPL     s:6256+4
PL6.E3A0      #001=THF$RAW File=THF$FORMAT.:E05TSI                               WED 07/30/97 06:08 Page:549
         3 021425   000044 035003                    ADLA    36,DU
         3 021426   003100 061505                    CSR     bolr='003'O
         3 021427   200243 460004                    BDSC    OCTET_BYTE+2,A,AUTO      by=2,bit=6,n=4
         3 021430   200534 000044                    BDSC    CHIP#+2,,AUTO            by=0,bit=0,n=36
         3 021431   200534 236100                    LDQ     CHIP#+2,,AUTO
         3 021432   200535 756100                    STQ     CHIP#+3,,AUTO
         3 021433   200011 236100                    LDQ     X,,AUTO
         3 021434   000003 402007                    MPY     3,DL
         3 021435   200535 235100                    LDA     CHIP#+3,,AUTO
         3 021436   040006 100405                    MLR     fill='040'O
         3 021437   000122 000001 1                  ADSC9   BINHEX,A                 cn=0,n=1
         3 021440   000066 000001 2                  ADSC9   FRU_STRING+1,Q           cn=0,n=1

     2951     6257    4              FRU_STRING.OCTET.NIB2(X) = BINHEX(OCTET_NIBBLE(2 * X + 25));

   6257  3 021441   200011 235100                    LDA     X,,AUTO
         3 021442   000003 735000                    ALS     3
         3 021443   021445 605000 3                  TPL     s:6257+4
         3 021444   000044 035003                    ADLA    36,DU
         3 021445   003100 061505                    CSR     bolr='003'O
         3 021446   200243 610004                    BDSC    OCTET_BYTE+2,A,AUTO      by=3,bit=1,n=4
         3 021447   200534 000044                    BDSC    CHIP#+2,,AUTO            by=0,bit=0,n=36
         3 021450   200534 236100                    LDQ     CHIP#+2,,AUTO
         3 021451   200535 756100                    STQ     CHIP#+3,,AUTO
         3 021452   200011 236100                    LDQ     X,,AUTO
         3 021453   000003 402007                    MPY     3,DL
         3 021454   200535 235100                    LDA     CHIP#+3,,AUTO
         3 021455   040006 100405                    MLR     fill='040'O
         3 021456   000122 000001 1                  ADSC9   BINHEX,A                 cn=0,n=1
         3 021457   000066 200001 2                  ADSC9   FRU_STRING+1,Q           cn=1,n=1

     2952     6258    4           END;  /* DO X */

   6258  3 021460   200011 054100                    AOS     X,,AUTO
         3 021461   200011 235100                    LDA     X,,AUTO
         3 021462   000003 115007                    CMPA    3,DL
         3 021463   021422 604400 3                  TMOZ    s:6256
PL6.E3A0      #001=THF$RAW File=THF$FORMAT.:E05TSI                               WED 07/30/97 06:08 Page:550

     2953     6259    3           CALL INSERT(MDS_TEXT, 17, 39, 'OCTETS 1B TO 1E', FRU_STR, '  - FRUS');

   6259  3 021464   040100 100400                    MLR     fill='040'O
         3 021465   002251 000017 1                  ADSC9   BOARD_64K+746            cn=0,n=15
         3 021466   200321 200017                    ADSC9   MDS_TEXT+4,,AUTO         cn=1,n=15
         3 021467   040100 100400                    MLR     fill='040'O
         3 021470   000065 000020 2                  ADSC9   FRU_STRING               cn=0,n=16
         3 021471   200325 000020                    ADSC9   MDS_TEXT+8,,AUTO         cn=0,n=16
         3 021472   040100 100400                    MLR     fill='040'O
         3 021473   002255 000010 1                  ADSC9   BOARD_64K+750            cn=0,n=8
         3 021474   200331 000010                    ADSC9   MDS_TEXT+12,,AUTO        cn=0,n=8

     2954     6260    3           XST_CNT = 56;

   6260  3 021475   000070 235007                    LDA     56,DL
         3 021476   200342 755100                    STA     XST_CNT,,AUTO

     2955     6261    3           CALL THF$ADD_TEXTC(XST$, MDS_TEXT, XST_CNT);

   6261  3 021477   200342 630500                    EPPR0   XST_CNT,,AUTO
         3 021500   200536 450500                    STP0    CHIP#+4,,AUTO
         3 021501   200315 631500                    EPPR1   MDS_TEXT,,AUTO
         3 021502   200535 451500                    STP1    CHIP#+3,,AUTO
         3 021503   200300 633500                    EPPR3   XST$,,AUTO
         3 021504   200534 453500                    STP3    CHIP#+2,,AUTO
         3 021505   200534 630500                    EPPR0   CHIP#+2,,AUTO
         3 021506   000021 631400 xsym               EPPR1   B_VECTNIL+17
         3 021507   000000 701000 xent               TSX1    THF$ADD_TEXTC
         3 021510   000000 011000                    NOP     0

     2956     6262    3           NXST = NXST + 1;

   6262  3 021511   200343 235100                    LDA     NXST,,AUTO
         3 021512   000001 035007                    ADLA    1,DL
         3 021513   200343 755100                    STA     NXST,,AUTO

PL6.E3A0      #001=THF$RAW File=THF$FORMAT.:E05TSI                               WED 07/30/97 06:08 Page:551
     2957     6263    3           IF EL$IOERR.MODEL = 'MSU8092' THEN

   6263  3 021514   200005 470500                    LDP0    INFO+1,,AUTO
         3 021515   040000 106500                    CMPC    fill='040'O
         3 021516   000030 000010                    ADSC9   24,,PR0                  cn=0,n=8
         3 021517   002247 000007 1                  ADSC9   BOARD_64K+744            cn=0,n=7
         3 021520   021526 601000 3                  TNZ     s:6269

     2958     6264    4              DO;

     2959     6265    4                MAX_ENTRY = %MDSII_MAX_FRUS;

   6265  3 021521   000010 236007                    LDQ     8,DL
         3 021522   200261 756100                    STQ     MAX_ENTRY,,AUTO

     2960     6266    4                MDS_TBL$ = ADDR(MDSII_FRUS);

   6266  3 021523   000454 236000 4                  LDQ     300
         3 021524   200217 756100                    STQ     MDS_TBL$,,AUTO

     2961     6267    4              END;

   6267  3 021525   021532 710000 3                  TRA     s:6272

     2962     6268    4              ELSE DO;

     2963     6269    4                MAX_ENTRY = %MDSI_MAX_FRUS;

   6269  3 021526   000017 236007                    LDQ     15,DL
         3 021527   200261 756100                    STQ     MAX_ENTRY,,AUTO

     2964     6270    4                MDS_TBL$ = ADDR(MDSI_FRUS);

   6270  3 021530   000455 236000 4                  LDQ     301
         3 021531   200217 756100                    STQ     MDS_TBL$,,AUTO

     2965     6271    4              END;
PL6.E3A0      #001=THF$RAW File=THF$FORMAT.:E05TSI                               WED 07/30/97 06:08 Page:552

     2966     6272    4           DO X = 12 TO 15;

   6272  3 021532   000014 235007                    LDA     12,DL
         3 021533   200011 755100                    STA     X,,AUTO

     2967     6273    4              F_INDX = OCTET_BYTE(X);

   6273  3 021534   200011 235100                    LDA     X,,AUTO
         3 021535   000003 735000                    ALS     3
         3 021536   021540 605000 3                  TPL     s:6273+4
         3 021537   000044 035003                    ADLA    36,DU
         3 021540   003100 060505                    CSL     bolr='003'O
         3 021541   200241 000010                    BDSC    OCTET_BYTE,A,AUTO        by=0,bit=0,n=8
         3 021542   200260 000010                    BDSC    F_INDX,,AUTO             by=0,bit=0,n=8

     2968     6274    4              IF (FRU_INDX(1) >0 AND FRU_INDX(1) <= MAX_ENTRY) THEN

   6274  3 021543   200260 236100                    LDQ     F_INDX,,AUTO
         3 021544   036000 316003                    CANQ    15360,DU
         3 021545   021615 600000 3                  TZE     s:6283
         3 021546   200260 236100                    LDQ     F_INDX,,AUTO
         3 021547   000034 772000                    QRL     28
         3 021550   000017 376007                    ANQ     15,DL
         3 021551   200261 116100                    CMPQ    MAX_ENTRY,,AUTO
         3 021552   021554 600000 3                  TZE     s:6276
         3 021553   021615 603000 3                  TRC     s:6283

     2969     6275    5                DO;

     2970     6276    5                  MDS_TEXT = ' ';

   6276  3 021554   040100 100400                    MLR     fill='040'O
         3 021555   000035 000001 xsym               ADSC9   B_VECTNIL+29             cn=0,n=1
         3 021556   200315 000120                    ADSC9   MDS_TEXT,,AUTO           cn=0,n=80

     2971     6277    5                  CALL INSERT(MDS_TEXT, 19, MDS_TBL.COUNT(FRU_INDX(1)),
PL6.E3A0      #001=THF$RAW File=THF$FORMAT.:E05TSI                               WED 07/30/97 06:08 Page:553

   6277  3 021557   000014 402007                    MPY     12,DL
         3 021560   200217 470500                    LDP0    MDS_TBL$,,AUTO
         3 021561   000000 220106                    LDX0    0,QL,PR0
         3 021562   000777 360003                    ANX0    511,DU
         3 021563   000002 736000                    QLS     2
         3 021564   040140 100506                    MLR     fill='040'O
         3 021565   000000 400054                    ADSC9   0,Q,PR0                  cn=2,n=44
         3 021566   200321 600010                    ADSC9   MDS_TEXT+4,,AUTO         cn=3,n=*X0

     2972     6278    5                              MDS_TBL.TEXT(FRU_INDX(1)));
     2973     6279    5                  XST_CNT = MDS_TBL.COUNT(FRU_INDX(1)) + 19;

   6279  3 021567   200260 236100                    LDQ     F_INDX,,AUTO
         3 021570   000034 772000                    QRL     28
         3 021571   000017 376007                    ANQ     15,DL
         3 021572   000014 402007                    MPY     12,DL
         3 021573   000000 236106                    LDQ     0,QL,PR0
         3 021574   000022 772000                    QRL     18
         3 021575   000777 376007                    ANQ     511,DL
         3 021576   000023 036007                    ADLQ    19,DL
         3 021577   200342 756100                    STQ     XST_CNT,,AUTO

     2974     6280    5                  CALL THF$ADD_TEXTC(XST$, MDS_TEXT, XST_CNT);

   6280  3 021600   200342 631500                    EPPR1   XST_CNT,,AUTO
         3 021601   200536 451500                    STP1    CHIP#+4,,AUTO
         3 021602   200315 633500                    EPPR3   MDS_TEXT,,AUTO
         3 021603   200535 453500                    STP3    CHIP#+3,,AUTO
         3 021604   200300 634500                    EPPR4   XST$,,AUTO
         3 021605   200534 454500                    STP4    CHIP#+2,,AUTO
         3 021606   200534 630500                    EPPR0   CHIP#+2,,AUTO
         3 021607   000021 631400 xsym               EPPR1   B_VECTNIL+17
         3 021610   000000 701000 xent               TSX1    THF$ADD_TEXTC
         3 021611   000000 011000                    NOP     0

     2975     6281    5                  NXST = NXST + 1;
PL6.E3A0      #001=THF$RAW File=THF$FORMAT.:E05TSI                               WED 07/30/97 06:08 Page:554

   6281  3 021612   200343 235100                    LDA     NXST,,AUTO
         3 021613   000001 035007                    ADLA    1,DL
         3 021614   200343 755100                    STA     NXST,,AUTO

     2976     6282    5                END;

     2977     6283    4           END;  /* DO X */

   6283  3 021615   200011 054100                    AOS     X,,AUTO
         3 021616   200011 235100                    LDA     X,,AUTO
         3 021617   000017 115007                    CMPA    15,DL
         3 021620   021534 604400 3                  TMOZ    s:6273

     2978     6284    3         END;    /* DO OCTET_NUM = 12 */

   6284  3 021621   021771 710000 3                  TRA     s:6317

     2979     6285    2      ELSE IF OCTET_NUM = 16 THEN

   6285  3 021622   000020 115007                    CMPA    16,DL
         3 021623   021770 601000 3                  TNZ     s:6316

     2980     6286    3         DO;

     2981     6287    3           CALL INSERT(MDS_TEXT,17,27,'OCTET 1F = 00 -- FAULT CODE');

   6287  3 021624   040100 100400                    MLR     fill='040'O
         3 021625   002257 000033 1                  ADSC9   BOARD_64K+752            cn=0,n=27
         3 021626   200321 200033                    ADSC9   MDS_TEXT+4,,AUTO         cn=1,n=27

     2982     6288    3           CALL INSERT(MDS_TEXT,28,2,BINHEX(OCTET_NIBBLE(32)),

   6288  3 021627   200244 236100                    LDQ     OCTET_BYTE+3,,AUTO
         3 021630   000014 772000                    QRL     12
         3 021631   000017 376007                    ANQ     15,DL
         3 021632   200534 756100                    STQ     CHIP#+2,,AUTO
PL6.E3A0      #001=THF$RAW File=THF$FORMAT.:E05TSI                               WED 07/30/97 06:08 Page:555
         3 021633   200244 236100                    LDQ     OCTET_BYTE+3,,AUTO
         3 021634   000010 772000                    QRL     8
         3 021635   000017 376007                    ANQ     15,DL
         3 021636   200534 235100                    LDA     CHIP#+2,,AUTO
         3 021637   040100 100405                    MLR     fill='040'O
         3 021640   000122 000001 1                  ADSC9   BINHEX,A                 cn=0,n=1
         3 021641   200324 000001                    ADSC9   MDS_TEXT+7,,AUTO         cn=0,n=1
         3 021642   040100 100406                    MLR     fill='040'O
         3 021643   000122 000001 1                  ADSC9   BINHEX,Q                 cn=0,n=1
         3 021644   200324 200001                    ADSC9   MDS_TEXT+7,,AUTO         cn=1,n=1

     2983     6289    3                                     BINHEX(OCTET_NIBBLE(33)));
     2984     6290    3           XST_CNT = 44;

   6290  3 021645   000054 235007                    LDA     44,DL
         3 021646   200342 755100                    STA     XST_CNT,,AUTO

     2985     6291    3           CALL THF$ADD_TEXTC(XST$, MDS_TEXT, XST_CNT);

   6291  3 021647   200342 630500                    EPPR0   XST_CNT,,AUTO
         3 021650   200536 450500                    STP0    CHIP#+4,,AUTO
         3 021651   200315 631500                    EPPR1   MDS_TEXT,,AUTO
         3 021652   200535 451500                    STP1    CHIP#+3,,AUTO
         3 021653   200300 633500                    EPPR3   XST$,,AUTO
         3 021654   200534 453500                    STP3    CHIP#+2,,AUTO
         3 021655   200534 630500                    EPPR0   CHIP#+2,,AUTO
         3 021656   000021 631400 xsym               EPPR1   B_VECTNIL+17
         3 021657   000000 701000 xent               TSX1    THF$ADD_TEXTC
         3 021660   000000 011000                    NOP     0

     2986     6292    3           NXST = NXST + 1;

   6292  3 021661   200343 235100                    LDA     NXST,,AUTO
         3 021662   000001 035007                    ADLA    1,DL
         3 021663   200343 755100                    STA     NXST,,AUTO

     2987     6293    3           IF EL$IOERR.MODEL = 'MSU8092' THEN
PL6.E3A0      #001=THF$RAW File=THF$FORMAT.:E05TSI                               WED 07/30/97 06:08 Page:556

   6293  3 021664   200005 470500                    LDP0    INFO+1,,AUTO
         3 021665   040000 106500                    CMPC    fill='040'O
         3 021666   000030 000010                    ADSC9   24,,PR0                  cn=0,n=8
         3 021667   002247 000007 1                  ADSC9   BOARD_64K+744            cn=0,n=7
         3 021670   021676 601000 3                  TNZ     s:6299

     2988     6294    4             DO;

     2989     6295    4               MAX_ENTRY = %MDSII_MAX_FC;

   6295  3 021671   000007 236007                    LDQ     7,DL
         3 021672   200261 756100                    STQ     MAX_ENTRY,,AUTO

     2990     6296    4               MDS_TBL$ = ADDR(MDSII_FCODE);

   6296  3 021673   000456 236000 4                  LDQ     302
         3 021674   200217 756100                    STQ     MDS_TBL$,,AUTO

     2991     6297    4             END;

   6297  3 021675   021702 710000 3                  TRA     s:6302

     2992     6298    4             ELSE DO;

     2993     6299    4               MAX_ENTRY = %MDSI_MAX_FC;

   6299  3 021676   000006 236007                    LDQ     6,DL
         3 021677   200261 756100                    STQ     MAX_ENTRY,,AUTO

     2994     6300    4               MDS_TBL$ = ADDR(MDSI_FCODE);

   6300  3 021700   000457 236000 4                  LDQ     303
         3 021701   200217 756100                    STQ     MDS_TBL$,,AUTO

     2995     6301    4             END;

PL6.E3A0      #001=THF$RAW File=THF$FORMAT.:E05TSI                               WED 07/30/97 06:08 Page:557
     2996     6302    4           DO X = 0 TO MAX_ENTRY;

   6302  3 021702   200011 450100                    STZ     X,,AUTO
         3 021703   021760 710000 3                  TRA     s:6312+1

     2997     6303    4             IF OCTET_BYTE(16) = MDS_TBL.CODE(X) THEN

   6303  3 021704   200011 236100                    LDQ     X,,AUTO
         3 021705   000014 402007                    MPY     12,DL
         3 021706   200217 470500                    LDP0    MDS_TBL$,,AUTO
         3 021707   000000 236106                    LDQ     0,QL,PR0
         3 021710   000033 772000                    QRL     27
         3 021711   200534 756100                    STQ     CHIP#+2,,AUTO
         3 021712   200244 236100                    LDQ     OCTET_BYTE+3,,AUTO
         3 021713   000010 772000                    QRL     8
         3 021714   000377 376007                    ANQ     255,DL
         3 021715   200534 116100                    CMPQ    CHIP#+2,,AUTO
         3 021716   021757 601000 3                  TNZ     s:6312

     2998     6304    5                DO;

     2999     6305    5                  MDS_TEXT = ' ';

   6305  3 021717   040100 100400                    MLR     fill='040'O
         3 021720   000035 000001 xsym               ADSC9   B_VECTNIL+29             cn=0,n=1
         3 021721   200315 000120                    ADSC9   MDS_TEXT,,AUTO           cn=0,n=80

     3000     6306    5                  CALL INSERT(MDS_TEXT, 19, MDS_TBL.COUNT(X),

   6306  3 021722   200011 236100                    LDQ     X,,AUTO
         3 021723   000014 402007                    MPY     12,DL
         3 021724   000000 220106                    LDX0    0,QL,PR0
         3 021725   000777 360003                    ANX0    511,DU
         3 021726   200011 236100                    LDQ     X,,AUTO
         3 021727   000060 402007                    MPY     48,DL
         3 021730   040140 100506                    MLR     fill='040'O
         3 021731   000000 400054                    ADSC9   0,Q,PR0                  cn=2,n=44
PL6.E3A0      #001=THF$RAW File=THF$FORMAT.:E05TSI                               WED 07/30/97 06:08 Page:558
         3 021732   200321 600010                    ADSC9   MDS_TEXT+4,,AUTO         cn=3,n=*X0

     3001     6307    5                              MDS_TBL.TEXT(X));
     3002     6308    5                  XST_CNT = MDS_TBL.COUNT(X) + 19;

   6308  3 021733   200011 236100                    LDQ     X,,AUTO
         3 021734   000014 402007                    MPY     12,DL
         3 021735   000000 236106                    LDQ     0,QL,PR0
         3 021736   000022 772000                    QRL     18
         3 021737   000777 376007                    ANQ     511,DL
         3 021740   000023 036007                    ADLQ    19,DL
         3 021741   200342 756100                    STQ     XST_CNT,,AUTO

     3003     6309    5                  CALL THF$ADD_TEXTC(XST$, MDS_TEXT, XST_CNT);

   6309  3 021742   200342 631500                    EPPR1   XST_CNT,,AUTO
         3 021743   200536 451500                    STP1    CHIP#+4,,AUTO
         3 021744   200315 633500                    EPPR3   MDS_TEXT,,AUTO
         3 021745   200535 453500                    STP3    CHIP#+3,,AUTO
         3 021746   200300 634500                    EPPR4   XST$,,AUTO
         3 021747   200534 454500                    STP4    CHIP#+2,,AUTO
         3 021750   200534 630500                    EPPR0   CHIP#+2,,AUTO
         3 021751   000021 631400 xsym               EPPR1   B_VECTNIL+17
         3 021752   000000 701000 xent               TSX1    THF$ADD_TEXTC
         3 021753   000000 011000                    NOP     0

     3004     6310    5                  NXST = NXST + 1;

   6310  3 021754   200343 235100                    LDA     NXST,,AUTO
         3 021755   000001 035007                    ADLA    1,DL
         3 021756   200343 755100                    STA     NXST,,AUTO

     3005     6311    5                END;

     3006     6312    4           END;  /* DO X */

   6312  3 021757   200011 054100                    AOS     X,,AUTO
PL6.E3A0      #001=THF$RAW File=THF$FORMAT.:E05TSI                               WED 07/30/97 06:08 Page:559
         3 021760   200261 236100                    LDQ     MAX_ENTRY,,AUTO
         3 021761   021704 604000 3                  TMI     s:6303
         3 021762   200011 116100                    CMPQ    X,,AUTO
         3 021763   021704 605000 3                  TPL     s:6303

     3007     6313    3           CALL DECODE_PARAM_3X;  /* DECODING FINISHED FOR X6 */

   6313  3 021764   025672 701000 3                  TSX1    DECODE_PARAM_3X
         3 021765   000000 011000                    NOP     0

     3008     6314    3           RETURN;

   6314  3 021766   200526 221300                    LDX1  ! @BOARD,,AUTO
         3 021767   000001 702211                    TSX2  ! 1,X1

     3009     6315    3         END;
     3010     6316    2      ELSE RETURN;

   6316  3 021770   000001 702211                    TSX2  ! 1,X1

     3011     6317    2         IF OCTET_NUM >= PARAMETER_LENGTH - 1 THEN

   6317  3 021771   200255 236100                    LDQ     PARAMETER_LENGTH,,AUTO
         3 021772   000034 772000                    QRL     28
         3 021773   000001 136007                    SBLQ    1,DL
         3 021774   200262 116100                    CMPQ    OCTET_NUM,,AUTO
         3 021775   022000 605400 3                  TPNZ    s:6319

     3012     6318    2            CALL DECODE_PARAM_3X;

   6318  3 021776   025672 701000 3                  TSX1    DECODE_PARAM_3X
         3 021777   000000 011000                    NOP     0

     3013     6319    2         RETURN;

   6319  3 022000   200526 221300                    LDX1  ! @BOARD,,AUTO
         3 022001   000001 702211                    TSX2  ! 1,X1
PL6.E3A0      #001=THF$RAW File=THF$FORMAT.:E05TSI                               WED 07/30/97 06:08 Page:560

     3014     6320    2   END DECODE_PARAM_X6;
     3015     6321        %EJECT;
PL6.E3A0      #001=THF$RAW File=THF$FORMAT.:E05TSI                               WED 07/30/97 06:08 Page:561
     3016     6322        /**/
     3017     6323        /* PROCEDURE TO DECODE COMMAND EXCEPTION STATUS CODE FOR  MDS DISCS */
     3018     6324        /**/
     3019     6325    1   DECODE_PARAM_X7: PROC;

   6325  3 022002   200526 741300       DECODE_PARA* STX1  ! @BOARD,,AUTO

     3020     6326        /**/
     3021     6327    2      MDS_TEXT = ' ';

   6327  3 022003   040100 100400                    MLR     fill='040'O
         3 022004   000035 000001 xsym               ADSC9   B_VECTNIL+29             cn=0,n=1
         3 022005   200315 000120                    ADSC9   MDS_TEXT,,AUTO           cn=0,n=80

     3022     6328    2      OCTET$ = MDS_PARAM_X7.SUB$(OCTET_NUM -1);

   6328  3 022006   200262 720100                    LXL0    OCTET_NUM,,AUTO
         3 022007   777777 236010 xsym               LDQ     MDS_PARAM_X7-1,X0
         3 022010   200216 756100                    STQ     OCTET$,,AUTO

     3023     6329    2      IF (OCTET_NUM > 0 AND OCTET_NUM < 7) THEN

   6329  3 022011   200262 235100                    LDA     OCTET_NUM,,AUTO
         3 022012   022113 604400 3                  TMOZ    s:6340
         3 022013   000007 115007                    CMPA    7,DL
         3 022014   022113 605000 3                  TPL     s:6340

     3024     6330    3         DO;

     3025     6331    3           HEX_NUM = OCTET_NUM;

   6331  3 022015   200262 236100                    LDQ     OCTET_NUM,,AUTO
         3 022016   000034 736000                    QLS     28
         3 022017   200252 676100                    ERQ     HEX_NUM,,AUTO
         3 022020   776000 376003                    ANQ     -1024,DU
         3 022021   200252 656100                    ERSQ    HEX_NUM,,AUTO

PL6.E3A0      #001=THF$RAW File=THF$FORMAT.:E05TSI                               WED 07/30/97 06:08 Page:562
     3026     6332    3           CALL INSERT(MDS_TEXT, 17, 11, ' OCTET ',BINHEX(HEX_NIBBLE(0)),

   6332  3 022022   200252 236100                    LDQ     HEX_NUM,,AUTO
         3 022023   000040 772000                    QRL     32
         3 022024   200534 756100                    STQ     CHIP#+2,,AUTO
         3 022025   200252 236100                    LDQ     HEX_NUM,,AUTO
         3 022026   000034 772000                    QRL     28
         3 022027   000017 376007                    ANQ     15,DL
         3 022030   040100 100400                    MLR     fill='040'O
         3 022031   002266 000007 1                  ADSC9   BOARD_64K+759            cn=0,n=7
         3 022032   200321 200007                    ADSC9   MDS_TEXT+4,,AUTO         cn=1,n=7
         3 022033   200534 235100                    LDA     CHIP#+2,,AUTO
         3 022034   040100 100405                    MLR     fill='040'O
         3 022035   000122 000001 1                  ADSC9   BINHEX,A                 cn=0,n=1
         3 022036   200323 000001                    ADSC9   MDS_TEXT+6,,AUTO         cn=0,n=1
         3 022037   040100 100406                    MLR     fill='040'O
         3 022040   000122 000001 1                  ADSC9   BINHEX,Q                 cn=0,n=1
         3 022041   200323 200001                    ADSC9   MDS_TEXT+6,,AUTO         cn=1,n=1
         3 022042   002160 222000 1                  LDX2    BOARD_64K+689
         3 022043   200323 442100                    SXL2    MDS_TEXT+6,,AUTO

     3027     6333    3                       BINHEX(HEX_NIBBLE(1)), ' = ');
     3028     6334    3           CALL INSERT(MDS_TEXT, 28, 2, BINHEX(OCTET_NIBBLE(2 * OCTET_NUM)),

   6334  3 022044   200262 235100                    LDA     OCTET_NUM,,AUTO
         3 022045   000003 735000                    ALS     3
         3 022046   022050 605000 3                  TPL     s:6334+4
         3 022047   000044 035003                    ADLA    36,DU
         3 022050   003100 061505                    CSR     bolr='003'O
         3 022051   200241 000004                    BDSC    OCTET_BYTE,A,AUTO        by=0,bit=0,n=4
         3 022052   200534 000044                    BDSC    CHIP#+2,,AUTO            by=0,bit=0,n=36
         3 022053   200534 236100                    LDQ     CHIP#+2,,AUTO
         3 022054   200262 235100                    LDA     OCTET_NUM,,AUTO
         3 022055   000003 735000                    ALS     3
         3 022056   022060 605000 3                  TPL     s:6334+12
         3 022057   000044 035003                    ADLA    36,DU
         3 022060   003100 061505                    CSR     bolr='003'O
PL6.E3A0      #001=THF$RAW File=THF$FORMAT.:E05TSI                               WED 07/30/97 06:08 Page:563
         3 022061   200241 040004                    BDSC    OCTET_BYTE,A,AUTO        by=0,bit=4,n=4
         3 022062   200535 000044                    BDSC    CHIP#+3,,AUTO            by=0,bit=0,n=36
         3 022063   200536 756100                    STQ     CHIP#+4,,AUTO
         3 022064   200535 236100                    LDQ     CHIP#+3,,AUTO
         3 022065   200536 235100                    LDA     CHIP#+4,,AUTO
         3 022066   040100 100405                    MLR     fill='040'O
         3 022067   000122 000001 1                  ADSC9   BINHEX,A                 cn=0,n=1
         3 022070   200324 000001                    ADSC9   MDS_TEXT+7,,AUTO         cn=0,n=1
         3 022071   040100 100406                    MLR     fill='040'O
         3 022072   000122 000001 1                  ADSC9   BINHEX,Q                 cn=0,n=1
         3 022073   200324 200001                    ADSC9   MDS_TEXT+7,,AUTO         cn=1,n=1

     3029     6335    3                       BINHEX(OCTET_NIBBLE(2 * OCTET_NUM + 1)));
     3030     6336    3           XST_CNT = 30;

   6336  3 022074   000036 235007                    LDA     30,DL
         3 022075   200342 755100                    STA     XST_CNT,,AUTO

     3031     6337    3           CALL THF$ADD_TEXTC(XST$, MDS_TEXT, XST_CNT);

   6337  3 022076   200342 630500                    EPPR0   XST_CNT,,AUTO
         3 022077   200536 450500                    STP0    CHIP#+4,,AUTO
         3 022100   200315 631500                    EPPR1   MDS_TEXT,,AUTO
         3 022101   200535 451500                    STP1    CHIP#+3,,AUTO
         3 022102   200300 633500                    EPPR3   XST$,,AUTO
         3 022103   200534 453500                    STP3    CHIP#+2,,AUTO
         3 022104   200534 630500                    EPPR0   CHIP#+2,,AUTO
         3 022105   000021 631400 xsym               EPPR1   B_VECTNIL+17
         3 022106   000000 701000 xent               TSX1    THF$ADD_TEXTC
         3 022107   000000 011000                    NOP     0

     3032     6338    3           NXST = NXST + 1;

   6338  3 022110   200343 235100                    LDA     NXST,,AUTO
         3 022111   000001 035007                    ADLA    1,DL
         3 022112   200343 755100                    STA     NXST,,AUTO

PL6.E3A0      #001=THF$RAW File=THF$FORMAT.:E05TSI                               WED 07/30/97 06:08 Page:564
     3033     6339    3         END;

     3034     6340    2      IF (OCTET_NUM = 1 OR OCTET_NUM = 2 OR OCTET_NUM = 5) THEN

   6340  3 022113   200262 235100                    LDA     OCTET_NUM,,AUTO
         3 022114   000001 115007                    CMPA    1,DL
         3 022115   022122 600000 3                  TZE     s:6342
         3 022116   000002 115007                    CMPA    2,DL
         3 022117   022122 600000 3                  TZE     s:6342
         3 022120   000005 115007                    CMPA    5,DL
         3 022121   022235 601000 3                  TNZ     s:6358

     3035     6341    3         DO;

     3036     6342    3           PARAM_INDX = 0;

   6342  3 022122   200253 450100                    STZ     PARAM_INDX,,AUTO

     3037     6343    4           DO X = (8 * DEVTBL.CODE(I)) TO (8 * DEVTBL.CODE(I) +7);

   6343  3 022123   200010 236100                    LDQ     I,,AUTO
         3 022124   000012 402007                    MPY     10,DL
         3 022125   200215 470500                    LDP0    DEV$,,AUTO
         3 022126   000000 236106                    LDQ     0,QL,PR0
         3 022127   000030 772000                    QRL     24
         3 022130   007770 376007                    ANQ     4088,DL
         3 022131   200011 756100                    STQ     X,,AUTO
         3 022132   022213 710000 3                  TRA     s:6353+1

     3038     6344    4              IF (IO_MASK1(X)) AND (PARAM_TBL.COUNT(PARAM_INDX) > 1)

   6344  3 022133   200011 235100                    LDA     X,,AUTO
         3 022134   022136 605000 3                  TPL     s:6344+3
         3 022135   000044 035003                    ADLA    36,DU
         3 022136   000000 066505                    CMPB    filb='0'B
         3 022137   200221 000001                    BDSC    IO_MASK,A,AUTO           by=0,bit=0,n=1
         3 022140   000002 000022 xsym               BDSC    B_VECTNIL+2              by=0,bit=0,n=18
PL6.E3A0      #001=THF$RAW File=THF$FORMAT.:E05TSI                               WED 07/30/97 06:08 Page:565
         3 022141   022211 600000 3                  TZE     s:6352
         3 022142   200253 236100                    LDQ     PARAM_INDX,,AUTO
         3 022143   000014 402007                    MPY     12,DL
         3 022144   200216 470500                    LDP0    OCTET$,,AUTO
         3 022145   000000 236106                    LDQ     0,QL,PR0
         3 022146   777000 376003                    ANQ     -512,DU
         3 022147   002000 116003                    CMPQ    1024,DU
         3 022150   022211 602000 3                  TNC     s:6352

     3039     6345    5                 THEN DO;

     3040     6346    5                   MDS_TEXT = ' ';

   6346  3 022151   040100 100400                    MLR     fill='040'O
         3 022152   000035 000001 xsym               ADSC9   B_VECTNIL+29             cn=0,n=1
         3 022153   200315 000120                    ADSC9   MDS_TEXT,,AUTO           cn=0,n=80

     3041     6347    5                   CALL INSERT(MDS_TEXT, 17, PARAM_TBL.COUNT(PARAM_INDX), PARAM_TBL.
              6347                            TEXT(PARAM_INDX));

   6347  3 022154   200253 236100                    LDQ     PARAM_INDX,,AUTO
         3 022155   000014 402007                    MPY     12,DL
         3 022156   000000 236106                    LDQ     0,QL,PR0
         3 022157   000033 772000                    QRL     27
         3 022160   000000 620006                    EAX0    0,QL
         3 022161   200253 236100                    LDQ     PARAM_INDX,,AUTO
         3 022162   000060 402007                    MPY     48,DL
         3 022163   040140 100506                    MLR     fill='040'O
         3 022164   000000 200054                    ADSC9   0,Q,PR0                  cn=1,n=44
         3 022165   200321 200010                    ADSC9   MDS_TEXT+4,,AUTO         cn=1,n=*X0

     3042     6348    5                   XST_CNT = PARAM_TBL.COUNT(PARAM_INDX) + 17;

   6348  3 022166   200253 236100                    LDQ     PARAM_INDX,,AUTO
         3 022167   000014 402007                    MPY     12,DL
         3 022170   000000 236106                    LDQ     0,QL,PR0
         3 022171   000033 772000                    QRL     27
PL6.E3A0      #001=THF$RAW File=THF$FORMAT.:E05TSI                               WED 07/30/97 06:08 Page:566
         3 022172   000021 036007                    ADLQ    17,DL
         3 022173   200342 756100                    STQ     XST_CNT,,AUTO

     3043     6349    5                   CALL THF$ADD_TEXTC(XST$, MDS_TEXT, XST_CNT);

   6349  3 022174   200342 631500                    EPPR1   XST_CNT,,AUTO
         3 022175   200536 451500                    STP1    CHIP#+4,,AUTO
         3 022176   200315 633500                    EPPR3   MDS_TEXT,,AUTO
         3 022177   200535 453500                    STP3    CHIP#+3,,AUTO
         3 022200   200300 634500                    EPPR4   XST$,,AUTO
         3 022201   200534 454500                    STP4    CHIP#+2,,AUTO
         3 022202   200534 630500                    EPPR0   CHIP#+2,,AUTO
         3 022203   000021 631400 xsym               EPPR1   B_VECTNIL+17
         3 022204   000000 701000 xent               TSX1    THF$ADD_TEXTC
         3 022205   000000 011000                    NOP     0

     3044     6350    5                   NXST = NXST + 1;

   6350  3 022206   200343 235100                    LDA     NXST,,AUTO
         3 022207   000001 035007                    ADLA    1,DL
         3 022210   200343 755100                    STA     NXST,,AUTO

     3045     6351    5                 END;

     3046     6352    4           PARAM_INDX = PARAM_INDX + 1;

   6352  3 022211   200253 054100                    AOS     PARAM_INDX,,AUTO

     3047     6353    4           END;  /* DO X */

   6353  3 022212   200011 054100                    AOS     X,,AUTO
         3 022213   200010 236100                    LDQ     I,,AUTO
         3 022214   000012 402007                    MPY     10,DL
         3 022215   200215 470500                    LDP0    DEV$,,AUTO
         3 022216   000000 236106                    LDQ     0,QL,PR0
         3 022217   000030 772000                    QRL     24
         3 022220   007770 376007                    ANQ     4088,DL
PL6.E3A0      #001=THF$RAW File=THF$FORMAT.:E05TSI                               WED 07/30/97 06:08 Page:567
         3 022221   000007 036007                    ADLQ    7,DL
         3 022222   200011 116100                    CMPQ    X,,AUTO
         3 022223   022133 605000 3                  TPL     s:6344

     3048     6354    3           IF OCTET_NUM >= PARAMETER_LENGTH -1

   6354  3 022224   200255 236100                    LDQ     PARAMETER_LENGTH,,AUTO
         3 022225   000034 772000                    QRL     28
         3 022226   000001 136007                    SBLQ    1,DL
         3 022227   200262 116100                    CMPQ    OCTET_NUM,,AUTO
         3 022230   022233 605400 3                  TPNZ    s:6356

     3049     6355    3              THEN PARAMETER_ID = 0;

   6355  3 022231   000452 236000 4                  LDQ     298
         3 022232   200254 356100                    ANSQ    PARAMETER_ID,,AUTO

     3050     6356    3           RETURN;

   6356  3 022233   200526 221300                    LDX1  ! @BOARD,,AUTO
         3 022234   000001 702211                    TSX2  ! 1,X1

     3051     6357    3         END;
     3052     6358    2      IF OCTET_NUM = 7 THEN

   6358  3 022235   000007 115007                    CMPA    7,DL
         3 022236   022454 601000 3                  TNZ     s:6385

     3053     6359    3         DO;

     3054     6360    3             CALL INSERT(MDS_TEXT, 17, PARAM_TBL.COUNT(0), PARAM_TBL.TEXT(0));

   6360  3 022237   200216 470500                    LDP0    OCTET$,,AUTO
         3 022240   000000 236100                    LDQ     0,,PR0
         3 022241   000033 772000                    QRL     27
         3 022242   000000 620006                    EAX0    0,QL
         3 022243   040140 100500                    MLR     fill='040'O
PL6.E3A0      #001=THF$RAW File=THF$FORMAT.:E05TSI                               WED 07/30/97 06:08 Page:568
         3 022244   000000 200054                    ADSC9   0,,PR0                   cn=1,n=44
         3 022245   200321 200010                    ADSC9   MDS_TEXT+4,,AUTO         cn=1,n=*X0

     3055     6361    3             CALL INSERT(MDS_TEXT, 36, 4, BINHEX(OCTET_NIBBLE(14)),

   6361  3 022246   200242 236100                    LDQ     OCTET_BYTE+1,,AUTO
         3 022247   000014 772000                    QRL     12
         3 022250   000017 376007                    ANQ     15,DL
         3 022251   200534 756100                    STQ     CHIP#+2,,AUTO
         3 022252   200242 236100                    LDQ     OCTET_BYTE+1,,AUTO
         3 022253   000010 772000                    QRL     8
         3 022254   000017 376007                    ANQ     15,DL
         3 022255   200535 756100                    STQ     CHIP#+3,,AUTO
         3 022256   200242 236100                    LDQ     OCTET_BYTE+1,,AUTO
         3 022257   000004 772000                    QRL     4
         3 022260   000017 376007                    ANQ     15,DL
         3 022261   200536 756100                    STQ     CHIP#+4,,AUTO
         3 022262   200242 236100                    LDQ     OCTET_BYTE+1,,AUTO
         3 022263   000017 376007                    ANQ     15,DL
         3 022264   200534 235100                    LDA     CHIP#+2,,AUTO
         3 022265   040100 100405                    MLR     fill='040'O
         3 022266   000122 000001 1                  ADSC9   BINHEX,A                 cn=0,n=1
         3 022267   200326 000001                    ADSC9   MDS_TEXT+9,,AUTO         cn=0,n=1
         3 022270   200535 235100                    LDA     CHIP#+3,,AUTO
         3 022271   040100 100405                    MLR     fill='040'O
         3 022272   000122 000001 1                  ADSC9   BINHEX,A                 cn=0,n=1
         3 022273   200326 200001                    ADSC9   MDS_TEXT+9,,AUTO         cn=1,n=1
         3 022274   200536 235100                    LDA     CHIP#+4,,AUTO
         3 022275   040100 100405                    MLR     fill='040'O
         3 022276   000122 000001 1                  ADSC9   BINHEX,A                 cn=0,n=1
         3 022277   200326 400001                    ADSC9   MDS_TEXT+9,,AUTO         cn=2,n=1
         3 022300   040100 100406                    MLR     fill='040'O
         3 022301   000122 000001 1                  ADSC9   BINHEX,Q                 cn=0,n=1
         3 022302   200326 600001                    ADSC9   MDS_TEXT+9,,AUTO         cn=3,n=1

     3056     6362    3                                          BINHEX(OCTET_NIBBLE(15)),
     3057     6363    3                                          BINHEX(OCTET_NIBBLE(16)),
PL6.E3A0      #001=THF$RAW File=THF$FORMAT.:E05TSI                               WED 07/30/97 06:08 Page:569
     3058     6364    3                                          BINHEX(OCTET_NIBBLE(17)));
     3059     6365    3             XST_CNT = PARAM_TBL.COUNT(0) + 17;

   6365  3 022303   200216 470500                    LDP0    OCTET$,,AUTO
         3 022304   000000 236100                    LDQ     0,,PR0
         3 022305   000033 772000                    QRL     27
         3 022306   000021 036007                    ADLQ    17,DL
         3 022307   200342 756100                    STQ     XST_CNT,,AUTO

     3060     6366    3             CALL THF$ADD_TEXTC(XST$, MDS_TEXT, XST_CNT);

   6366  3 022310   200342 631500                    EPPR1   XST_CNT,,AUTO
         3 022311   200536 451500                    STP1    CHIP#+4,,AUTO
         3 022312   200315 633500                    EPPR3   MDS_TEXT,,AUTO
         3 022313   200535 453500                    STP3    CHIP#+3,,AUTO
         3 022314   200300 634500                    EPPR4   XST$,,AUTO
         3 022315   200534 454500                    STP4    CHIP#+2,,AUTO
         3 022316   200534 630500                    EPPR0   CHIP#+2,,AUTO
         3 022317   000021 631400 xsym               EPPR1   B_VECTNIL+17
         3 022320   000000 701000 xent               TSX1    THF$ADD_TEXTC
         3 022321   000000 011000                    NOP     0

     3061     6367    3             NXST = NXST + 1;

   6367  3 022322   200343 235100                    LDA     NXST,,AUTO
         3 022323   000001 035007                    ADLA    1,DL
         3 022324   200343 755100                    STA     NXST,,AUTO

     3062     6368    3             MDS_TEXT = ' ';

   6368  3 022325   040100 100400                    MLR     fill='040'O
         3 022326   000035 000001 xsym               ADSC9   B_VECTNIL+29             cn=0,n=1
         3 022327   200315 000120                    ADSC9   MDS_TEXT,,AUTO           cn=0,n=80

     3063     6369    3             CALL INSERT(MDS_TEXT, 17, PARAM_TBL.COUNT(1), PARAM_TBL.TEXT(1));

   6369  3 022330   200216 470500                    LDP0    OCTET$,,AUTO
PL6.E3A0      #001=THF$RAW File=THF$FORMAT.:E05TSI                               WED 07/30/97 06:08 Page:570
         3 022331   000014 236100                    LDQ     12,,PR0
         3 022332   000033 772000                    QRL     27
         3 022333   000000 620006                    EAX0    0,QL
         3 022334   040140 100500                    MLR     fill='040'O
         3 022335   000014 200054                    ADSC9   12,,PR0                  cn=1,n=44
         3 022336   200321 200010                    ADSC9   MDS_TEXT+4,,AUTO         cn=1,n=*X0

     3064     6370    3             CALL INSERT(MDS_TEXT, 36, 2, BINHEX(OCTET_NIBBLE(18)),

   6370  3 022337   200243 236100                    LDQ     OCTET_BYTE+2,,AUTO
         3 022340   000040 772000                    QRL     32
         3 022341   200534 756100                    STQ     CHIP#+2,,AUTO
         3 022342   200243 236100                    LDQ     OCTET_BYTE+2,,AUTO
         3 022343   000034 772000                    QRL     28
         3 022344   000017 376007                    ANQ     15,DL
         3 022345   200534 235100                    LDA     CHIP#+2,,AUTO
         3 022346   040100 100405                    MLR     fill='040'O
         3 022347   000122 000001 1                  ADSC9   BINHEX,A                 cn=0,n=1
         3 022350   200326 000001                    ADSC9   MDS_TEXT+9,,AUTO         cn=0,n=1
         3 022351   040100 100406                    MLR     fill='040'O
         3 022352   000122 000001 1                  ADSC9   BINHEX,Q                 cn=0,n=1
         3 022353   200326 200001                    ADSC9   MDS_TEXT+9,,AUTO         cn=1,n=1

     3065     6371    3                                          BINHEX(OCTET_NIBBLE(19)));
     3066     6372    3             XST_CNT = PARAM_TBL.COUNT(1) + 17;

   6372  3 022354   200216 470500                    LDP0    OCTET$,,AUTO
         3 022355   000014 236100                    LDQ     12,,PR0
         3 022356   000033 772000                    QRL     27
         3 022357   000021 036007                    ADLQ    17,DL
         3 022360   200342 756100                    STQ     XST_CNT,,AUTO

     3067     6373    3             CALL THF$ADD_TEXTC(XST$, MDS_TEXT, XST_CNT);

   6373  3 022361   200342 631500                    EPPR1   XST_CNT,,AUTO
         3 022362   200536 451500                    STP1    CHIP#+4,,AUTO
         3 022363   200315 633500                    EPPR3   MDS_TEXT,,AUTO
PL6.E3A0      #001=THF$RAW File=THF$FORMAT.:E05TSI                               WED 07/30/97 06:08 Page:571
         3 022364   200535 453500                    STP3    CHIP#+3,,AUTO
         3 022365   200300 634500                    EPPR4   XST$,,AUTO
         3 022366   200534 454500                    STP4    CHIP#+2,,AUTO
         3 022367   200534 630500                    EPPR0   CHIP#+2,,AUTO
         3 022370   000021 631400 xsym               EPPR1   B_VECTNIL+17
         3 022371   000000 701000 xent               TSX1    THF$ADD_TEXTC
         3 022372   000000 011000                    NOP     0

     3068     6374    3             NXST = NXST + 1;

   6374  3 022373   200343 235100                    LDA     NXST,,AUTO
         3 022374   000001 035007                    ADLA    1,DL
         3 022375   200343 755100                    STA     NXST,,AUTO

     3069     6375    3             MDS_TEXT = ' ';

   6375  3 022376   040100 100400                    MLR     fill='040'O
         3 022377   000035 000001 xsym               ADSC9   B_VECTNIL+29             cn=0,n=1
         3 022400   200315 000120                    ADSC9   MDS_TEXT,,AUTO           cn=0,n=80

     3070     6376    3             CALL INSERT(MDS_TEXT, 17, PARAM_TBL.COUNT(2), PARAM_TBL.TEXT(2));

   6376  3 022401   200216 470500                    LDP0    OCTET$,,AUTO
         3 022402   000030 236100                    LDQ     24,,PR0
         3 022403   000033 772000                    QRL     27
         3 022404   000000 620006                    EAX0    0,QL
         3 022405   040140 100500                    MLR     fill='040'O
         3 022406   000030 200054                    ADSC9   24,,PR0                  cn=1,n=44
         3 022407   200321 200010                    ADSC9   MDS_TEXT+4,,AUTO         cn=1,n=*X0

     3071     6377    3             CALL INSERT(MDS_TEXT, 36, 2, BINHEX(OCTET_NIBBLE(20)),

   6377  3 022410   200243 236100                    LDQ     OCTET_BYTE+2,,AUTO
         3 022411   000030 772000                    QRL     24
         3 022412   000017 376007                    ANQ     15,DL
         3 022413   200534 756100                    STQ     CHIP#+2,,AUTO
         3 022414   200243 236100                    LDQ     OCTET_BYTE+2,,AUTO
PL6.E3A0      #001=THF$RAW File=THF$FORMAT.:E05TSI                               WED 07/30/97 06:08 Page:572
         3 022415   000024 772000                    QRL     20
         3 022416   000017 376007                    ANQ     15,DL
         3 022417   200534 235100                    LDA     CHIP#+2,,AUTO
         3 022420   040100 100405                    MLR     fill='040'O
         3 022421   000122 000001 1                  ADSC9   BINHEX,A                 cn=0,n=1
         3 022422   200326 000001                    ADSC9   MDS_TEXT+9,,AUTO         cn=0,n=1
         3 022423   040100 100406                    MLR     fill='040'O
         3 022424   000122 000001 1                  ADSC9   BINHEX,Q                 cn=0,n=1
         3 022425   200326 200001                    ADSC9   MDS_TEXT+9,,AUTO         cn=1,n=1

     3072     6378    3                                          BINHEX(OCTET_NIBBLE(21)));
     3073     6379    3             XST_CNT = PARAM_TBL.COUNT(2) + 17;

   6379  3 022426   200216 470500                    LDP0    OCTET$,,AUTO
         3 022427   000030 236100                    LDQ     24,,PR0
         3 022430   000033 772000                    QRL     27
         3 022431   000021 036007                    ADLQ    17,DL
         3 022432   200342 756100                    STQ     XST_CNT,,AUTO

     3074     6380    3             CALL THF$ADD_TEXTC(XST$, MDS_TEXT, XST_CNT);

   6380  3 022433   200342 631500                    EPPR1   XST_CNT,,AUTO
         3 022434   200536 451500                    STP1    CHIP#+4,,AUTO
         3 022435   200315 633500                    EPPR3   MDS_TEXT,,AUTO
         3 022436   200535 453500                    STP3    CHIP#+3,,AUTO
         3 022437   200300 634500                    EPPR4   XST$,,AUTO
         3 022440   200534 454500                    STP4    CHIP#+2,,AUTO
         3 022441   200534 630500                    EPPR0   CHIP#+2,,AUTO
         3 022442   000021 631400 xsym               EPPR1   B_VECTNIL+17
         3 022443   000000 701000 xent               TSX1    THF$ADD_TEXTC
         3 022444   000000 011000                    NOP     0

     3075     6381    3             NXST = NXST + 1;

   6381  3 022445   200343 235100                    LDA     NXST,,AUTO
         3 022446   000001 035007                    ADLA    1,DL
         3 022447   200343 755100                    STA     NXST,,AUTO
PL6.E3A0      #001=THF$RAW File=THF$FORMAT.:E05TSI                               WED 07/30/97 06:08 Page:573

     3076     6382    3             PARAMETER_ID = 0;               /* DECODING FINISHED FOR X7 */

   6382  3 022450   000452 236000 4                  LDQ     298
         3 022451   200254 356100                    ANSQ    PARAMETER_ID,,AUTO

     3077     6383    3             RETURN;

   6383  3 022452   200526 221300                    LDX1  ! @BOARD,,AUTO
         3 022453   000001 702211                    TSX2  ! 1,X1

     3078     6384    3         END;
     3079     6385    2      IF OCTET_NUM >= PARAMETER_LENGTH - 1

   6385  3 022454   200255 236100                    LDQ     PARAMETER_LENGTH,,AUTO
         3 022455   000034 772000                    QRL     28
         3 022456   000001 136007                    SBLQ    1,DL
         3 022457   200262 116100                    CMPQ    OCTET_NUM,,AUTO
         3 022460   022463 605400 3                  TPNZ    s:6387

     3080     6386    2         THEN PARAMETER_ID = 0;

   6386  3 022461   000452 236000 4                  LDQ     298
         3 022462   200254 356100                    ANSQ    PARAMETER_ID,,AUTO

     3081     6387    2      RETURN;

   6387  3 022463   200526 221300                    LDX1  ! @BOARD,,AUTO
         3 022464   000001 702211                    TSX2  ! 1,X1

     3082     6388    2   END DECODE_PARAM_X7;
     3083     6389        %EJECT;
PL6.E3A0      #001=THF$RAW File=THF$FORMAT.:E05TSI                               WED 07/30/97 06:08 Page:574
     3084     6390        /**/
     3085     6391        /* PROCEDURE TO DECODE COMMAND ABORTED STATUS CODE FOR  MDS DISCS */
     3086     6392        /**/
     3087     6393    1   DECODE_PARAM_X8: PROC;

   6393  3 022465   200526 741300       DECODE_PARA* STX1  ! @BOARD,,AUTO

     3088     6394        /**/
     3089     6395    2      MDS_TEXT = ' ';

   6395  3 022466   040100 100400                    MLR     fill='040'O
         3 022467   000035 000001 xsym               ADSC9   B_VECTNIL+29             cn=0,n=1
         3 022470   200315 000120                    ADSC9   MDS_TEXT,,AUTO           cn=0,n=80

     3090     6396    2      OCTET$ = MDS_PARAM_X8.SUB$;

   6396  3 022471   000000 236000 xsym               LDQ     MDS_PARAM_X8
         3 022472   200216 756100                    STQ     OCTET$,,AUTO

     3091     6397    2      IF (OCTET_NUM > 0 AND OCTET_NUM<5) THEN

   6397  3 022473   200262 235100                    LDA     OCTET_NUM,,AUTO
         3 022474   022575 604400 3                  TMOZ    s:6408
         3 022475   000005 115007                    CMPA    5,DL
         3 022476   022575 605000 3                  TPL     s:6408

     3092     6398    3         DO;

     3093     6399    3           HEX_NUM = OCTET_NUM;

   6399  3 022477   200262 236100                    LDQ     OCTET_NUM,,AUTO
         3 022500   000034 736000                    QLS     28
         3 022501   200252 676100                    ERQ     HEX_NUM,,AUTO
         3 022502   776000 376003                    ANQ     -1024,DU
         3 022503   200252 656100                    ERSQ    HEX_NUM,,AUTO

     3094     6400    3           CALL INSERT(MDS_TEXT, 17, 11, ' OCTET ',BINHEX(HEX_NIBBLE(0)),
PL6.E3A0      #001=THF$RAW File=THF$FORMAT.:E05TSI                               WED 07/30/97 06:08 Page:575

   6400  3 022504   200252 236100                    LDQ     HEX_NUM,,AUTO
         3 022505   000040 772000                    QRL     32
         3 022506   200534 756100                    STQ     CHIP#+2,,AUTO
         3 022507   200252 236100                    LDQ     HEX_NUM,,AUTO
         3 022510   000034 772000                    QRL     28
         3 022511   000017 376007                    ANQ     15,DL
         3 022512   040100 100400                    MLR     fill='040'O
         3 022513   002266 000007 1                  ADSC9   BOARD_64K+759            cn=0,n=7
         3 022514   200321 200007                    ADSC9   MDS_TEXT+4,,AUTO         cn=1,n=7
         3 022515   200534 235100                    LDA     CHIP#+2,,AUTO
         3 022516   040100 100405                    MLR     fill='040'O
         3 022517   000122 000001 1                  ADSC9   BINHEX,A                 cn=0,n=1
         3 022520   200323 000001                    ADSC9   MDS_TEXT+6,,AUTO         cn=0,n=1
         3 022521   040100 100406                    MLR     fill='040'O
         3 022522   000122 000001 1                  ADSC9   BINHEX,Q                 cn=0,n=1
         3 022523   200323 200001                    ADSC9   MDS_TEXT+6,,AUTO         cn=1,n=1
         3 022524   002160 220000 1                  LDX0    BOARD_64K+689
         3 022525   200323 440100                    SXL0    MDS_TEXT+6,,AUTO

     3095     6401    3                       BINHEX(HEX_NIBBLE(1)), ' = ');
     3096     6402    3           CALL INSERT(MDS_TEXT, 28, 2, BINHEX(OCTET_NIBBLE(2 * OCTET_NUM)),

   6402  3 022526   200262 235100                    LDA     OCTET_NUM,,AUTO
         3 022527   000003 735000                    ALS     3
         3 022530   022532 605000 3                  TPL     s:6402+4
         3 022531   000044 035003                    ADLA    36,DU
         3 022532   003100 061505                    CSR     bolr='003'O
         3 022533   200241 000004                    BDSC    OCTET_BYTE,A,AUTO        by=0,bit=0,n=4
         3 022534   200534 000044                    BDSC    CHIP#+2,,AUTO            by=0,bit=0,n=36
         3 022535   200534 236100                    LDQ     CHIP#+2,,AUTO
         3 022536   200262 235100                    LDA     OCTET_NUM,,AUTO
         3 022537   000003 735000                    ALS     3
         3 022540   022542 605000 3                  TPL     s:6402+12
         3 022541   000044 035003                    ADLA    36,DU
         3 022542   003100 061505                    CSR     bolr='003'O
         3 022543   200241 040004                    BDSC    OCTET_BYTE,A,AUTO        by=0,bit=4,n=4
PL6.E3A0      #001=THF$RAW File=THF$FORMAT.:E05TSI                               WED 07/30/97 06:08 Page:576
         3 022544   200535 000044                    BDSC    CHIP#+3,,AUTO            by=0,bit=0,n=36
         3 022545   200536 756100                    STQ     CHIP#+4,,AUTO
         3 022546   200535 236100                    LDQ     CHIP#+3,,AUTO
         3 022547   200536 235100                    LDA     CHIP#+4,,AUTO
         3 022550   040100 100405                    MLR     fill='040'O
         3 022551   000122 000001 1                  ADSC9   BINHEX,A                 cn=0,n=1
         3 022552   200324 000001                    ADSC9   MDS_TEXT+7,,AUTO         cn=0,n=1
         3 022553   040100 100406                    MLR     fill='040'O
         3 022554   000122 000001 1                  ADSC9   BINHEX,Q                 cn=0,n=1
         3 022555   200324 200001                    ADSC9   MDS_TEXT+7,,AUTO         cn=1,n=1

     3097     6403    3                       BINHEX(OCTET_NIBBLE(2 * OCTET_NUM + 1)));
     3098     6404    3           XST_CNT = 30;

   6404  3 022556   000036 235007                    LDA     30,DL
         3 022557   200342 755100                    STA     XST_CNT,,AUTO

     3099     6405    3           CALL THF$ADD_TEXTC(XST$, MDS_TEXT, XST_CNT);

   6405  3 022560   200342 630500                    EPPR0   XST_CNT,,AUTO
         3 022561   200536 450500                    STP0    CHIP#+4,,AUTO
         3 022562   200315 631500                    EPPR1   MDS_TEXT,,AUTO
         3 022563   200535 451500                    STP1    CHIP#+3,,AUTO
         3 022564   200300 633500                    EPPR3   XST$,,AUTO
         3 022565   200534 453500                    STP3    CHIP#+2,,AUTO
         3 022566   200534 630500                    EPPR0   CHIP#+2,,AUTO
         3 022567   000021 631400 xsym               EPPR1   B_VECTNIL+17
         3 022570   000000 701000 xent               TSX1    THF$ADD_TEXTC
         3 022571   000000 011000                    NOP     0

     3100     6406    3           NXST = NXST + 1;

   6406  3 022572   200343 235100                    LDA     NXST,,AUTO
         3 022573   000001 035007                    ADLA    1,DL
         3 022574   200343 755100                    STA     NXST,,AUTO

     3101     6407    3         END;
PL6.E3A0      #001=THF$RAW File=THF$FORMAT.:E05TSI                               WED 07/30/97 06:08 Page:577

     3102     6408    2      IF OCTET_NUM = 1 THEN

   6408  3 022575   200262 235100                    LDA     OCTET_NUM,,AUTO
         3 022576   000001 115007                    CMPA    1,DL
         3 022577   022704 601000 3                  TNZ     s:6424

     3103     6409    3         DO;

     3104     6410    3           PARAM_INDX = 0;

   6410  3 022600   200253 450100                    STZ     PARAM_INDX,,AUTO

     3105     6411    4           DO X = (8 * DEVTBL.CODE(I)) TO (8 * DEVTBL.CODE(I) +7);

   6411  3 022601   200010 236100                    LDQ     I,,AUTO
         3 022602   000012 402007                    MPY     10,DL
         3 022603   200215 470500                    LDP0    DEV$,,AUTO
         3 022604   000000 236106                    LDQ     0,QL,PR0
         3 022605   000030 772000                    QRL     24
         3 022606   007770 376007                    ANQ     4088,DL
         3 022607   200011 756100                    STQ     X,,AUTO
         3 022610   022671 710000 3                  TRA     s:6421+1

     3106     6412    4              IF (IO_MASK1(X)) AND (PARAM_TBL.COUNT(PARAM_INDX) > 1)

   6412  3 022611   200011 235100                    LDA     X,,AUTO
         3 022612   022614 605000 3                  TPL     s:6412+3
         3 022613   000044 035003                    ADLA    36,DU
         3 022614   000000 066505                    CMPB    filb='0'B
         3 022615   200221 000001                    BDSC    IO_MASK,A,AUTO           by=0,bit=0,n=1
         3 022616   000002 000022 xsym               BDSC    B_VECTNIL+2              by=0,bit=0,n=18
         3 022617   022667 600000 3                  TZE     s:6420
         3 022620   200253 236100                    LDQ     PARAM_INDX,,AUTO
         3 022621   000014 402007                    MPY     12,DL
         3 022622   200216 470500                    LDP0    OCTET$,,AUTO
         3 022623   000000 236106                    LDQ     0,QL,PR0
PL6.E3A0      #001=THF$RAW File=THF$FORMAT.:E05TSI                               WED 07/30/97 06:08 Page:578
         3 022624   777000 376003                    ANQ     -512,DU
         3 022625   002000 116003                    CMPQ    1024,DU
         3 022626   022667 602000 3                  TNC     s:6420

     3107     6413    5                 THEN DO;

     3108     6414    5                   MDS_TEXT = ' ';

   6414  3 022627   040100 100400                    MLR     fill='040'O
         3 022630   000035 000001 xsym               ADSC9   B_VECTNIL+29             cn=0,n=1
         3 022631   200315 000120                    ADSC9   MDS_TEXT,,AUTO           cn=0,n=80

     3109     6415    5                   CALL INSERT(MDS_TEXT, 17, PARAM_TBL.COUNT(PARAM_INDX), PARAM_TBL.
              6415                            TEXT(PARAM_INDX));

   6415  3 022632   200253 236100                    LDQ     PARAM_INDX,,AUTO
         3 022633   000014 402007                    MPY     12,DL
         3 022634   000000 236106                    LDQ     0,QL,PR0
         3 022635   000033 772000                    QRL     27
         3 022636   000000 620006                    EAX0    0,QL
         3 022637   200253 236100                    LDQ     PARAM_INDX,,AUTO
         3 022640   000060 402007                    MPY     48,DL
         3 022641   040140 100506                    MLR     fill='040'O
         3 022642   000000 200054                    ADSC9   0,Q,PR0                  cn=1,n=44
         3 022643   200321 200010                    ADSC9   MDS_TEXT+4,,AUTO         cn=1,n=*X0

     3110     6416    5                   XST_CNT = PARAM_TBL.COUNT(PARAM_INDX) + 17;

   6416  3 022644   200253 236100                    LDQ     PARAM_INDX,,AUTO
         3 022645   000014 402007                    MPY     12,DL
         3 022646   000000 236106                    LDQ     0,QL,PR0
         3 022647   000033 772000                    QRL     27
         3 022650   000021 036007                    ADLQ    17,DL
         3 022651   200342 756100                    STQ     XST_CNT,,AUTO

     3111     6417    5                   CALL THF$ADD_TEXTC(XST$, MDS_TEXT, XST_CNT);

PL6.E3A0      #001=THF$RAW File=THF$FORMAT.:E05TSI                               WED 07/30/97 06:08 Page:579
   6417  3 022652   200342 631500                    EPPR1   XST_CNT,,AUTO
         3 022653   200536 451500                    STP1    CHIP#+4,,AUTO
         3 022654   200315 633500                    EPPR3   MDS_TEXT,,AUTO
         3 022655   200535 453500                    STP3    CHIP#+3,,AUTO
         3 022656   200300 634500                    EPPR4   XST$,,AUTO
         3 022657   200534 454500                    STP4    CHIP#+2,,AUTO
         3 022660   200534 630500                    EPPR0   CHIP#+2,,AUTO
         3 022661   000021 631400 xsym               EPPR1   B_VECTNIL+17
         3 022662   000000 701000 xent               TSX1    THF$ADD_TEXTC
         3 022663   000000 011000                    NOP     0

     3112     6418    5                   NXST = NXST + 1;

   6418  3 022664   200343 235100                    LDA     NXST,,AUTO
         3 022665   000001 035007                    ADLA    1,DL
         3 022666   200343 755100                    STA     NXST,,AUTO

     3113     6419    5                 END;

     3114     6420    4           PARAM_INDX = PARAM_INDX + 1;

   6420  3 022667   200253 054100                    AOS     PARAM_INDX,,AUTO

     3115     6421    4           END;  /* DO X */

   6421  3 022670   200011 054100                    AOS     X,,AUTO
         3 022671   200010 236100                    LDQ     I,,AUTO
         3 022672   000012 402007                    MPY     10,DL
         3 022673   200215 470500                    LDP0    DEV$,,AUTO
         3 022674   000000 236106                    LDQ     0,QL,PR0
         3 022675   000030 772000                    QRL     24
         3 022676   007770 376007                    ANQ     4088,DL
         3 022677   000007 036007                    ADLQ    7,DL
         3 022700   200011 116100                    CMPQ    X,,AUTO
         3 022701   022611 605000 3                  TPL     s:6412

     3116     6422    3           RETURN;
PL6.E3A0      #001=THF$RAW File=THF$FORMAT.:E05TSI                               WED 07/30/97 06:08 Page:580

   6422  3 022702   200526 221300                    LDX1  ! @BOARD,,AUTO
         3 022703   000001 702211                    TSX2  ! 1,X1

     3117     6423    3         END;
     3118     6424    2      IF OCTET_NUM = 5 THEN

   6424  3 022704   000005 115007                    CMPA    5,DL
         3 022705   023036 601000 3                  TNZ     s:6442

     3119     6425    3         DO;

     3120     6426    3           HEX_NUM = PARAMETER_LENGTH - 1;

   6426  3 022706   200255 236100                    LDQ     PARAMETER_LENGTH,,AUTO
         3 022707   000034 772000                    QRL     28
         3 022710   000001 136007                    SBLQ    1,DL
         3 022711   000034 736000                    QLS     28
         3 022712   200252 676100                    ERQ     HEX_NUM,,AUTO
         3 022713   776000 376003                    ANQ     -1024,DU
         3 022714   200252 656100                    ERSQ    HEX_NUM,,AUTO

     3121     6427    3           CALL INSERT(MDS_TEXT, 17, 19, ' OCTETS 05 TO ',BINHEX(HEX_NIBBLE(0)),

   6427  3 022715   200252 236100                    LDQ     HEX_NUM,,AUTO
         3 022716   000040 772000                    QRL     32
         3 022717   200534 756100                    STQ     CHIP#+2,,AUTO
         3 022720   200252 236100                    LDQ     HEX_NUM,,AUTO
         3 022721   000034 772000                    QRL     28
         3 022722   000017 376007                    ANQ     15,DL
         3 022723   040100 100400                    MLR     fill='040'O
         3 022724   002270 000016 1                  ADSC9   BOARD_64K+761            cn=0,n=14
         3 022725   200321 200016                    ADSC9   MDS_TEXT+4,,AUTO         cn=1,n=14
         3 022726   200534 235100                    LDA     CHIP#+2,,AUTO
         3 022727   040100 100405                    MLR     fill='040'O
         3 022730   000122 000001 1                  ADSC9   BINHEX,A                 cn=0,n=1
         3 022731   200324 600001                    ADSC9   MDS_TEXT+7,,AUTO         cn=3,n=1
PL6.E3A0      #001=THF$RAW File=THF$FORMAT.:E05TSI                               WED 07/30/97 06:08 Page:581
         3 022732   040100 100406                    MLR     fill='040'O
         3 022733   000122 000001 1                  ADSC9   BINHEX,Q                 cn=0,n=1
         3 022734   200325 000001                    ADSC9   MDS_TEXT+8,,AUTO         cn=0,n=1
         3 022735   002160 236000 1                  LDQ     BOARD_64K+689
         3 022736   000011 772000                    QRL     9
         3 022737   200325 552134                    STBQ    MDS_TEXT+8,'34'O,AUTO

     3122     6428    3                       BINHEX(HEX_NIBBLE(1)),' = ');
     3123     6429    3           MDS_TEXT_POSITION = 36;

   6429  3 022740   000044 235007                    LDA     36,DL
         3 022741   200341 755100                    STA     MDS_TEXT_POSITION,,AUTO

     3124     6430    4           DO X = 5 TO PARAMETER_LENGTH - 1;

   6430  3 022742   000005 236007                    LDQ     5,DL
         3 022743   200011 756100                    STQ     X,,AUTO
         3 022744   023003 710000 3                  TRA     s:6434+1

     3125     6431    4              CALL INSERT(MDS_TEXT, MDS_TEXT_POSITION, 2, BINHEX(OCTET_NIBBLE(2 * X)),

   6431  3 022745   200011 235100                    LDA     X,,AUTO
         3 022746   000003 735000                    ALS     3
         3 022747   022751 605000 3                  TPL     s:6431+4
         3 022750   000044 035003                    ADLA    36,DU
         3 022751   003100 061505                    CSR     bolr='003'O
         3 022752   200241 000004                    BDSC    OCTET_BYTE,A,AUTO        by=0,bit=0,n=4
         3 022753   200534 000044                    BDSC    CHIP#+2,,AUTO            by=0,bit=0,n=36
         3 022754   200534 236100                    LDQ     CHIP#+2,,AUTO
         3 022755   200011 235100                    LDA     X,,AUTO
         3 022756   000003 735000                    ALS     3
         3 022757   022761 605000 3                  TPL     s:6431+12
         3 022760   000044 035003                    ADLA    36,DU
         3 022761   003100 061505                    CSR     bolr='003'O
         3 022762   200241 040004                    BDSC    OCTET_BYTE,A,AUTO        by=0,bit=4,n=4
         3 022763   200535 000044                    BDSC    CHIP#+3,,AUTO            by=0,bit=0,n=36
         3 022764   200536 756100                    STQ     CHIP#+4,,AUTO
PL6.E3A0      #001=THF$RAW File=THF$FORMAT.:E05TSI                               WED 07/30/97 06:08 Page:582
         3 022765   200535 236100                    LDQ     CHIP#+3,,AUTO
         3 022766   200536 235100                    LDA     CHIP#+4,,AUTO
         3 022767   200537 756100                    STQ     CHIP#+5,,AUTO
         3 022770   200341 236100                    LDQ     MDS_TEXT_POSITION,,AUTO
         3 022771   040106 100405                    MLR     fill='040'O
         3 022772   000122 000001 1                  ADSC9   BINHEX,A                 cn=0,n=1
         3 022773   200315 000001                    ADSC9   MDS_TEXT,Q,AUTO          cn=0,n=1
         3 022774   200537 235100                    LDA     CHIP#+5,,AUTO
         3 022775   040106 100405                    MLR     fill='040'O
         3 022776   000122 000001 1                  ADSC9   BINHEX,A                 cn=0,n=1
         3 022777   200315 200001                    ADSC9   MDS_TEXT,Q,AUTO          cn=1,n=1

     3126     6432    4                          BINHEX(OCTET_NIBBLE(2 * X + 1)));
     3127     6433    4              MDS_TEXT_POSITION = MDS_TEXT_POSITION + 3;

   6433  3 023000   000003 236007                    LDQ     3,DL
         3 023001   200341 056100                    ASQ     MDS_TEXT_POSITION,,AUTO

     3128     6434    4           END;

   6434  3 023002   200011 054100                    AOS     X,,AUTO
         3 023003   200255 236100                    LDQ     PARAMETER_LENGTH,,AUTO
         3 023004   000034 772000                    QRL     28
         3 023005   200011 116100                    CMPQ    X,,AUTO
         3 023006   022745 605400 3                  TPNZ    s:6431

     3129     6435    3           CALL INSERT(MDS_TEXT, MDS_TEXT_POSITION, 21, ' - EXTENDED SUBSTATUS');

   6435  3 023007   200341 235100                    LDA     MDS_TEXT_POSITION,,AUTO
         3 023010   040105 100400                    MLR     fill='040'O
         3 023011   002274 000025 1                  ADSC9   BOARD_64K+765            cn=0,n=21
         3 023012   200315 000025                    ADSC9   MDS_TEXT,A,AUTO          cn=0,n=21

     3130     6436    3           XST_CNT = MDS_TEXT_POSITION + 21;

   6436  3 023013   000025 035007                    ADLA    21,DL
         3 023014   200342 755100                    STA     XST_CNT,,AUTO
PL6.E3A0      #001=THF$RAW File=THF$FORMAT.:E05TSI                               WED 07/30/97 06:08 Page:583

     3131     6437    3           CALL THF$ADD_TEXTC(XST$, MDS_TEXT, XST_CNT);

   6437  3 023015   200342 630500                    EPPR0   XST_CNT,,AUTO
         3 023016   200536 450500                    STP0    CHIP#+4,,AUTO
         3 023017   200315 631500                    EPPR1   MDS_TEXT,,AUTO
         3 023020   200535 451500                    STP1    CHIP#+3,,AUTO
         3 023021   200300 633500                    EPPR3   XST$,,AUTO
         3 023022   200534 453500                    STP3    CHIP#+2,,AUTO
         3 023023   200534 630500                    EPPR0   CHIP#+2,,AUTO
         3 023024   000021 631400 xsym               EPPR1   B_VECTNIL+17
         3 023025   000000 701000 xent               TSX1    THF$ADD_TEXTC
         3 023026   000000 011000                    NOP     0

     3132     6438    3           NXST = NXST + 1;

   6438  3 023027   200343 235100                    LDA     NXST,,AUTO
         3 023030   000001 035007                    ADLA    1,DL
         3 023031   200343 755100                    STA     NXST,,AUTO

     3133     6439    3           PARAMETER_ID = 0;                  /* DECODING DONE FOR X8 */

   6439  3 023032   000452 236000 4                  LDQ     298
         3 023033   200254 356100                    ANSQ    PARAMETER_ID,,AUTO

     3134     6440    3           RETURN;

   6440  3 023034   200526 221300                    LDX1  ! @BOARD,,AUTO
         3 023035   000001 702211                    TSX2  ! 1,X1

     3135     6441    3         END;       /* OCTET_NUM = 5 */
     3136     6442    2      IF OCTET_NUM >= PARAMETER_LENGTH - 1 THEN

   6442  3 023036   200255 236100                    LDQ     PARAMETER_LENGTH,,AUTO
         3 023037   000034 772000                    QRL     28
         3 023040   000001 136007                    SBLQ    1,DL
         3 023041   200262 116100                    CMPQ    OCTET_NUM,,AUTO
PL6.E3A0      #001=THF$RAW File=THF$FORMAT.:E05TSI                               WED 07/30/97 06:08 Page:584
         3 023042   023045 605400 3                  TPNZ    s:6444

     3137     6443    2         PARAMETER_ID = 0;

   6443  3 023043   000452 236000 4                  LDQ     298
         3 023044   200254 356100                    ANSQ    PARAMETER_ID,,AUTO

     3138     6444    2      RETURN;

   6444  3 023045   200526 221300                    LDX1  ! @BOARD,,AUTO
         3 023046   000001 702211                    TSX2  ! 1,X1

     3139     6445    2   END DECODE_PARAM_X8;
     3140     6446        %EJECT;
PL6.E3A0      #001=THF$RAW File=THF$FORMAT.:E05TSI                               WED 07/30/97 06:08 Page:585
     3141     6447        /**/
     3142     6448        /* PROCEDURE TO DECODE CONDITIONAL SUCCESS STATUS CODE FOR  MDS DISCS */
     3143     6449        /**/
     3144     6450    1   DECODE_PARAM_X9: PROC;

   6450  3 023047   200526 741300       DECODE_PARA* STX1  ! @BOARD,,AUTO

     3145     6451        /**/
     3146     6452    2      MDS_TEXT = ' ';

   6452  3 023050   040100 100400                    MLR     fill='040'O
         3 023051   000035 000001 xsym               ADSC9   B_VECTNIL+29             cn=0,n=1
         3 023052   200315 000120                    ADSC9   MDS_TEXT,,AUTO           cn=0,n=80

     3147     6453    2      OCTET$ = MDS_PARAM_X9.SUB$(OCTET_NUM - 1);

   6453  3 023053   200262 720100                    LXL0    OCTET_NUM,,AUTO
         3 023054   777777 236010 xsym               LDQ     MDS_PARAM_X9-1,X0
         3 023055   200216 756100                    STQ     OCTET$,,AUTO

     3148     6454    2      IF (OCTET_NUM > 0 AND OCTET_NUM < 5) THEN

   6454  3 023056   200262 235100                    LDA     OCTET_NUM,,AUTO
         3 023057   023161 604400 3                  TMOZ    s:6465
         3 023060   000005 115007                    CMPA    5,DL
         3 023061   023161 605000 3                  TPL     s:6465

     3149     6455    3         DO;

     3150     6456    3           HEX_NUM = OCTET_NUM;

   6456  3 023062   200262 236100                    LDQ     OCTET_NUM,,AUTO
         3 023063   000034 736000                    QLS     28
         3 023064   200252 676100                    ERQ     HEX_NUM,,AUTO
         3 023065   776000 376003                    ANQ     -1024,DU
         3 023066   200252 656100                    ERSQ    HEX_NUM,,AUTO

PL6.E3A0      #001=THF$RAW File=THF$FORMAT.:E05TSI                               WED 07/30/97 06:08 Page:586
     3151     6457    3           CALL INSERT(MDS_TEXT, 17, 11, 'OCTET ',BINHEX(HEX_NIBBLE(0)),

   6457  3 023067   200252 236100                    LDQ     HEX_NUM,,AUTO
         3 023070   000040 772000                    QRL     32
         3 023071   200534 756100                    STQ     CHIP#+2,,AUTO
         3 023072   200252 236100                    LDQ     HEX_NUM,,AUTO
         3 023073   000034 772000                    QRL     28
         3 023074   000017 376007                    ANQ     15,DL
         3 023075   040100 100400                    MLR     fill='040'O
         3 023076   002156 000006 1                  ADSC9   BOARD_64K+687            cn=0,n=6
         3 023077   200321 200006                    ADSC9   MDS_TEXT+4,,AUTO         cn=1,n=6
         3 023100   200534 235100                    LDA     CHIP#+2,,AUTO
         3 023101   040100 100405                    MLR     fill='040'O
         3 023102   000122 000001 1                  ADSC9   BINHEX,A                 cn=0,n=1
         3 023103   200322 600001                    ADSC9   MDS_TEXT+5,,AUTO         cn=3,n=1
         3 023104   040100 100406                    MLR     fill='040'O
         3 023105   000122 000001 1                  ADSC9   BINHEX,Q                 cn=0,n=1
         3 023106   200323 000001                    ADSC9   MDS_TEXT+6,,AUTO         cn=0,n=1
         3 023107   002160 236000 1                  LDQ     BOARD_64K+689
         3 023110   000011 772000                    QRL     9
         3 023111   200323 552134                    STBQ    MDS_TEXT+6,'34'O,AUTO

     3152     6458    3                       BINHEX(HEX_NIBBLE(1)), ' = ');
     3153     6459    3           CALL INSERT(MDS_TEXT, 28, 2, BINHEX(OCTET_NIBBLE(2 * OCTET_NUM)),

   6459  3 023112   200262 235100                    LDA     OCTET_NUM,,AUTO
         3 023113   000003 735000                    ALS     3
         3 023114   023116 605000 3                  TPL     s:6459+4
         3 023115   000044 035003                    ADLA    36,DU
         3 023116   003100 061505                    CSR     bolr='003'O
         3 023117   200241 000004                    BDSC    OCTET_BYTE,A,AUTO        by=0,bit=0,n=4
         3 023120   200534 000044                    BDSC    CHIP#+2,,AUTO            by=0,bit=0,n=36
         3 023121   200534 236100                    LDQ     CHIP#+2,,AUTO
         3 023122   200262 235100                    LDA     OCTET_NUM,,AUTO
         3 023123   000003 735000                    ALS     3
         3 023124   023126 605000 3                  TPL     s:6459+12
         3 023125   000044 035003                    ADLA    36,DU
PL6.E3A0      #001=THF$RAW File=THF$FORMAT.:E05TSI                               WED 07/30/97 06:08 Page:587
         3 023126   003100 061505                    CSR     bolr='003'O
         3 023127   200241 040004                    BDSC    OCTET_BYTE,A,AUTO        by=0,bit=4,n=4
         3 023130   200535 000044                    BDSC    CHIP#+3,,AUTO            by=0,bit=0,n=36
         3 023131   200536 756100                    STQ     CHIP#+4,,AUTO
         3 023132   200535 236100                    LDQ     CHIP#+3,,AUTO
         3 023133   200536 235100                    LDA     CHIP#+4,,AUTO
         3 023134   040100 100405                    MLR     fill='040'O
         3 023135   000122 000001 1                  ADSC9   BINHEX,A                 cn=0,n=1
         3 023136   200324 000001                    ADSC9   MDS_TEXT+7,,AUTO         cn=0,n=1
         3 023137   040100 100406                    MLR     fill='040'O
         3 023140   000122 000001 1                  ADSC9   BINHEX,Q                 cn=0,n=1
         3 023141   200324 200001                    ADSC9   MDS_TEXT+7,,AUTO         cn=1,n=1

     3154     6460    3                       BINHEX(OCTET_NIBBLE(2 * OCTET_NUM + 1)));
     3155     6461    3           XST_CNT = 30;

   6461  3 023142   000036 235007                    LDA     30,DL
         3 023143   200342 755100                    STA     XST_CNT,,AUTO

     3156     6462    3           CALL THF$ADD_TEXTC(XST$, MDS_TEXT, XST_CNT);

   6462  3 023144   200342 630500                    EPPR0   XST_CNT,,AUTO
         3 023145   200536 450500                    STP0    CHIP#+4,,AUTO
         3 023146   200315 631500                    EPPR1   MDS_TEXT,,AUTO
         3 023147   200535 451500                    STP1    CHIP#+3,,AUTO
         3 023150   200300 633500                    EPPR3   XST$,,AUTO
         3 023151   200534 453500                    STP3    CHIP#+2,,AUTO
         3 023152   200534 630500                    EPPR0   CHIP#+2,,AUTO
         3 023153   000021 631400 xsym               EPPR1   B_VECTNIL+17
         3 023154   000000 701000 xent               TSX1    THF$ADD_TEXTC
         3 023155   000000 011000                    NOP     0

     3157     6463    3           NXST = NXST + 1;

   6463  3 023156   200343 235100                    LDA     NXST,,AUTO
         3 023157   000001 035007                    ADLA    1,DL
         3 023160   200343 755100                    STA     NXST,,AUTO
PL6.E3A0      #001=THF$RAW File=THF$FORMAT.:E05TSI                               WED 07/30/97 06:08 Page:588

     3158     6464    3         END;

     3159     6465    2      IF (OCTET_NUM > 0 AND OCTET_NUM < 4) THEN

   6465  3 023161   200262 235100                    LDA     OCTET_NUM,,AUTO
         3 023162   023300 604400 3                  TMOZ    s:6483
         3 023163   000004 115007                    CMPA    4,DL
         3 023164   023300 605000 3                  TPL     s:6483

     3160     6466    3         DO;

     3161     6467    3           PARAM_INDX = 0;

   6467  3 023165   200253 450100                    STZ     PARAM_INDX,,AUTO

     3162     6468    4           DO X = (8 * DEVTBL.CODE(I)) TO (8 * DEVTBL.CODE(I) +7);

   6468  3 023166   200010 236100                    LDQ     I,,AUTO
         3 023167   000012 402007                    MPY     10,DL
         3 023170   200215 470500                    LDP0    DEV$,,AUTO
         3 023171   000000 236106                    LDQ     0,QL,PR0
         3 023172   000030 772000                    QRL     24
         3 023173   007770 376007                    ANQ     4088,DL
         3 023174   200011 756100                    STQ     X,,AUTO
         3 023175   023256 710000 3                  TRA     s:6478+1

     3163     6469    4              IF (IO_MASK1(X)) AND (PARAM_TBL.COUNT(PARAM_INDX) > 1)

   6469  3 023176   200011 235100                    LDA     X,,AUTO
         3 023177   023201 605000 3                  TPL     s:6469+3
         3 023200   000044 035003                    ADLA    36,DU
         3 023201   000000 066505                    CMPB    filb='0'B
         3 023202   200221 000001                    BDSC    IO_MASK,A,AUTO           by=0,bit=0,n=1
         3 023203   000002 000022 xsym               BDSC    B_VECTNIL+2              by=0,bit=0,n=18
         3 023204   023254 600000 3                  TZE     s:6477
         3 023205   200253 236100                    LDQ     PARAM_INDX,,AUTO
PL6.E3A0      #001=THF$RAW File=THF$FORMAT.:E05TSI                               WED 07/30/97 06:08 Page:589
         3 023206   000014 402007                    MPY     12,DL
         3 023207   200216 470500                    LDP0    OCTET$,,AUTO
         3 023210   000000 236106                    LDQ     0,QL,PR0
         3 023211   777000 376003                    ANQ     -512,DU
         3 023212   002000 116003                    CMPQ    1024,DU
         3 023213   023254 602000 3                  TNC     s:6477

     3164     6470    5                 THEN DO;

     3165     6471    5                   MDS_TEXT = ' ';

   6471  3 023214   040100 100400                    MLR     fill='040'O
         3 023215   000035 000001 xsym               ADSC9   B_VECTNIL+29             cn=0,n=1
         3 023216   200315 000120                    ADSC9   MDS_TEXT,,AUTO           cn=0,n=80

     3166     6472    5                   CALL INSERT(MDS_TEXT, 17, PARAM_TBL.COUNT(PARAM_INDX), PARAM_TBL.
              6472                            TEXT(PARAM_INDX));

   6472  3 023217   200253 236100                    LDQ     PARAM_INDX,,AUTO
         3 023220   000014 402007                    MPY     12,DL
         3 023221   000000 236106                    LDQ     0,QL,PR0
         3 023222   000033 772000                    QRL     27
         3 023223   000000 620006                    EAX0    0,QL
         3 023224   200253 236100                    LDQ     PARAM_INDX,,AUTO
         3 023225   000060 402007                    MPY     48,DL
         3 023226   040140 100506                    MLR     fill='040'O
         3 023227   000000 200054                    ADSC9   0,Q,PR0                  cn=1,n=44
         3 023230   200321 200010                    ADSC9   MDS_TEXT+4,,AUTO         cn=1,n=*X0

     3167     6473    5                   XST_CNT = PARAM_TBL.COUNT(PARAM_INDX) + 17;

   6473  3 023231   200253 236100                    LDQ     PARAM_INDX,,AUTO
         3 023232   000014 402007                    MPY     12,DL
         3 023233   000000 236106                    LDQ     0,QL,PR0
         3 023234   000033 772000                    QRL     27
         3 023235   000021 036007                    ADLQ    17,DL
         3 023236   200342 756100                    STQ     XST_CNT,,AUTO
PL6.E3A0      #001=THF$RAW File=THF$FORMAT.:E05TSI                               WED 07/30/97 06:08 Page:590

     3168     6474    5                   CALL THF$ADD_TEXTC(XST$, MDS_TEXT, XST_CNT);

   6474  3 023237   200342 631500                    EPPR1   XST_CNT,,AUTO
         3 023240   200536 451500                    STP1    CHIP#+4,,AUTO
         3 023241   200315 633500                    EPPR3   MDS_TEXT,,AUTO
         3 023242   200535 453500                    STP3    CHIP#+3,,AUTO
         3 023243   200300 634500                    EPPR4   XST$,,AUTO
         3 023244   200534 454500                    STP4    CHIP#+2,,AUTO
         3 023245   200534 630500                    EPPR0   CHIP#+2,,AUTO
         3 023246   000021 631400 xsym               EPPR1   B_VECTNIL+17
         3 023247   000000 701000 xent               TSX1    THF$ADD_TEXTC
         3 023250   000000 011000                    NOP     0

     3169     6475    5                   NXST = NXST + 1;

   6475  3 023251   200343 235100                    LDA     NXST,,AUTO
         3 023252   000001 035007                    ADLA    1,DL
         3 023253   200343 755100                    STA     NXST,,AUTO

     3170     6476    5                 END;

     3171     6477    4           PARAM_INDX = PARAM_INDX + 1;

   6477  3 023254   200253 054100                    AOS     PARAM_INDX,,AUTO

     3172     6478    4           END;  /* DO X */

   6478  3 023255   200011 054100                    AOS     X,,AUTO
         3 023256   200010 236100                    LDQ     I,,AUTO
         3 023257   000012 402007                    MPY     10,DL
         3 023260   200215 470500                    LDP0    DEV$,,AUTO
         3 023261   000000 236106                    LDQ     0,QL,PR0
         3 023262   000030 772000                    QRL     24
         3 023263   007770 376007                    ANQ     4088,DL
         3 023264   000007 036007                    ADLQ    7,DL
         3 023265   200011 116100                    CMPQ    X,,AUTO
PL6.E3A0      #001=THF$RAW File=THF$FORMAT.:E05TSI                               WED 07/30/97 06:08 Page:591
         3 023266   023176 605000 3                  TPL     s:6469

     3173     6479    3           IF OCTET_NUM >= PARAMETER_LENGTH - 1 THEN

   6479  3 023267   200255 236100                    LDQ     PARAMETER_LENGTH,,AUTO
         3 023270   000034 772000                    QRL     28
         3 023271   000001 136007                    SBLQ    1,DL
         3 023272   200262 116100                    CMPQ    OCTET_NUM,,AUTO
         3 023273   023276 605400 3                  TPNZ    s:6481

     3174     6480    3              CALL DECODE_PARAM_3X;

   6480  3 023274   025672 701000 3                  TSX1    DECODE_PARAM_3X
         3 023275   000000 011000                    NOP     0

     3175     6481    3           RETURN;

   6481  3 023276   200526 221300                    LDX1  ! @BOARD,,AUTO
         3 023277   000001 702211                    TSX2  ! 1,X1

     3176     6482    3         END;
     3177     6483    2      IF OCTET_NUM = 5 THEN

   6483  3 023300   000005 115007                    CMPA    5,DL
         3 023301   023415 601000 3                  TNZ     s:6498

     3178     6484    3         DO;                            /* DECODE DRIVE ENDING STATUS */

     3179     6485    3           HEX_NUM = OCTET_NUM + 4;     /* THIS CORRESPONDS TO OCTET 9 IN SPECS */

   6485  3 023302   200262 236100                    LDQ     OCTET_NUM,,AUTO
         3 023303   000004 036007                    ADLQ    4,DL
         3 023304   000034 736000                    QLS     28
         3 023305   200252 676100                    ERQ     HEX_NUM,,AUTO
         3 023306   776000 376003                    ANQ     -1024,DU
         3 023307   200252 656100                    ERSQ    HEX_NUM,,AUTO

PL6.E3A0      #001=THF$RAW File=THF$FORMAT.:E05TSI                               WED 07/30/97 06:08 Page:592
     3180     6486    3           CALL INSERT(MDS_TEXT, 17, 11, 'OCTET ', BINHEX(HEX_NIBBLE(0)),

   6486  3 023310   200252 236100                    LDQ     HEX_NUM,,AUTO
         3 023311   000040 772000                    QRL     32
         3 023312   200534 756100                    STQ     CHIP#+2,,AUTO
         3 023313   200252 236100                    LDQ     HEX_NUM,,AUTO
         3 023314   000034 772000                    QRL     28
         3 023315   000017 376007                    ANQ     15,DL
         3 023316   040100 100400                    MLR     fill='040'O
         3 023317   002156 000006 1                  ADSC9   BOARD_64K+687            cn=0,n=6
         3 023320   200321 200006                    ADSC9   MDS_TEXT+4,,AUTO         cn=1,n=6
         3 023321   200534 235100                    LDA     CHIP#+2,,AUTO
         3 023322   040100 100405                    MLR     fill='040'O
         3 023323   000122 000001 1                  ADSC9   BINHEX,A                 cn=0,n=1
         3 023324   200322 600001                    ADSC9   MDS_TEXT+5,,AUTO         cn=3,n=1
         3 023325   040100 100406                    MLR     fill='040'O
         3 023326   000122 000001 1                  ADSC9   BINHEX,Q                 cn=0,n=1
         3 023327   200323 000001                    ADSC9   MDS_TEXT+6,,AUTO         cn=0,n=1
         3 023330   002160 236000 1                  LDQ     BOARD_64K+689
         3 023331   000011 772000                    QRL     9
         3 023332   200323 552134                    STBQ    MDS_TEXT+6,'34'O,AUTO

     3181     6487    3                       BINHEX(HEX_NIBBLE(1)), ' = ');
     3182     6488    3           CALL INSERT(MDS_TEXT, 28, 25,

   6488  3 023333   200262 235100                    LDA     OCTET_NUM,,AUTO
         3 023334   000003 735000                    ALS     3
         3 023335   023337 605000 3                  TPL     s:6488+4
         3 023336   000044 035003                    ADLA    36,DU
         3 023337   003100 061505                    CSR     bolr='003'O
         3 023340   200241 000004                    BDSC    OCTET_BYTE,A,AUTO        by=0,bit=0,n=4
         3 023341   200534 000044                    BDSC    CHIP#+2,,AUTO            by=0,bit=0,n=36
         3 023342   200534 236100                    LDQ     CHIP#+2,,AUTO
         3 023343   200262 235100                    LDA     OCTET_NUM,,AUTO
         3 023344   000003 735000                    ALS     3
         3 023345   023347 605000 3                  TPL     s:6488+12
         3 023346   000044 035003                    ADLA    36,DU
PL6.E3A0      #001=THF$RAW File=THF$FORMAT.:E05TSI                               WED 07/30/97 06:08 Page:593
         3 023347   003100 061505                    CSR     bolr='003'O
         3 023350   200241 040004                    BDSC    OCTET_BYTE,A,AUTO        by=0,bit=4,n=4
         3 023351   200535 000044                    BDSC    CHIP#+3,,AUTO            by=0,bit=0,n=36
         3 023352   200536 756100                    STQ     CHIP#+4,,AUTO
         3 023353   200535 236100                    LDQ     CHIP#+3,,AUTO
         3 023354   200536 235100                    LDA     CHIP#+4,,AUTO
         3 023355   040100 100405                    MLR     fill='040'O
         3 023356   000122 000001 1                  ADSC9   BINHEX,A                 cn=0,n=1
         3 023357   200324 000001                    ADSC9   MDS_TEXT+7,,AUTO         cn=0,n=1
         3 023360   040100 100406                    MLR     fill='040'O
         3 023361   000122 000001 1                  ADSC9   BINHEX,Q                 cn=0,n=1
         3 023362   200324 200001                    ADSC9   MDS_TEXT+7,,AUTO         cn=1,n=1
         3 023363   040100 100400                    MLR     fill='040'O
         3 023364   002302 000027 1                  ADSC9   BOARD_64K+771            cn=0,n=23
         3 023365   200324 400027                    ADSC9   MDS_TEXT+7,,AUTO         cn=2,n=23

     3183     6489    3                       BINHEX(OCTET_NIBBLE(2 * OCTET_NUM)),
     3184     6490    3                       BINHEX(OCTET_NIBBLE(2 * OCTET_NUM + 1)),
     3185     6491    3                       ' -- DRIVE ENDING STATUS');
     3186     6492    3           XST_CNT = 53;

   6492  3 023366   000065 235007                    LDA     53,DL
         3 023367   200342 755100                    STA     XST_CNT,,AUTO

     3187     6493    3           CALL THF$ADD_TEXTC(XST$, MDS_TEXT, XST_CNT);

   6493  3 023370   200342 630500                    EPPR0   XST_CNT,,AUTO
         3 023371   200536 450500                    STP0    CHIP#+4,,AUTO
         3 023372   200315 631500                    EPPR1   MDS_TEXT,,AUTO
         3 023373   200535 451500                    STP1    CHIP#+3,,AUTO
         3 023374   200300 633500                    EPPR3   XST$,,AUTO
         3 023375   200534 453500                    STP3    CHIP#+2,,AUTO
         3 023376   200534 630500                    EPPR0   CHIP#+2,,AUTO
         3 023377   000021 631400 xsym               EPPR1   B_VECTNIL+17
         3 023400   000000 701000 xent               TSX1    THF$ADD_TEXTC
         3 023401   000000 011000                    NOP     0

PL6.E3A0      #001=THF$RAW File=THF$FORMAT.:E05TSI                               WED 07/30/97 06:08 Page:594
     3188     6494    3           NXST = NXST + 1;

   6494  3 023402   200343 235100                    LDA     NXST,,AUTO
         3 023403   000001 035007                    ADLA    1,DL
         3 023404   200343 755100                    STA     NXST,,AUTO

     3189     6495    3           MDS_STATUS_REG1 = OCTET_BYTE(5);

   6495  3 023405   200242 236100                    LDQ     OCTET_BYTE+1,,AUTO
         3 023406   000004 736000                    QLS     4
         3 023407   200256 676100                    ERQ     MDS_STATUS_REG1,,AUTO
         3 023410   776000 376003                    ANQ     -1024,DU
         3 023411   200256 656100                    ERSQ    MDS_STATUS_REG1,,AUTO

     3190     6496    3           CALL DECODE_DRIVE_STAT;

   6496  3 023412   025046 701000 3                  TSX1    DECODE_DRIVE_STAT
         3 023413   000000 011000                    NOP     0

     3191     6497    3         END;  /* OCTET_NUM = 5 */

   6497  3 023414   024416 710000 3                  TRA     s:6632

     3192     6498    2         ELSE IF OCTET_NUM = 6 THEN

   6498  3 023415   000006 115007                    CMPA    6,DL
         3 023416   023532 601000 3                  TNZ     s:6513

     3193     6499    3         DO;                            /* DECODE CMD ENDING STATUS */

     3194     6500    3           HEX_NUM = OCTET_NUM + 4;     /* THIS CORRESPONDS TO OCTET A IN SPECS */

   6500  3 023417   200262 236100                    LDQ     OCTET_NUM,,AUTO
         3 023420   000004 036007                    ADLQ    4,DL
         3 023421   000034 736000                    QLS     28
         3 023422   200252 676100                    ERQ     HEX_NUM,,AUTO
         3 023423   776000 376003                    ANQ     -1024,DU
PL6.E3A0      #001=THF$RAW File=THF$FORMAT.:E05TSI                               WED 07/30/97 06:08 Page:595
         3 023424   200252 656100                    ERSQ    HEX_NUM,,AUTO

     3195     6501    3           CALL INSERT(MDS_TEXT, 17, 11, 'OCTET ', BINHEX(HEX_NIBBLE(0)),

   6501  3 023425   200252 236100                    LDQ     HEX_NUM,,AUTO
         3 023426   000040 772000                    QRL     32
         3 023427   200534 756100                    STQ     CHIP#+2,,AUTO
         3 023430   200252 236100                    LDQ     HEX_NUM,,AUTO
         3 023431   000034 772000                    QRL     28
         3 023432   000017 376007                    ANQ     15,DL
         3 023433   040100 100400                    MLR     fill='040'O
         3 023434   002156 000006 1                  ADSC9   BOARD_64K+687            cn=0,n=6
         3 023435   200321 200006                    ADSC9   MDS_TEXT+4,,AUTO         cn=1,n=6
         3 023436   200534 235100                    LDA     CHIP#+2,,AUTO
         3 023437   040100 100405                    MLR     fill='040'O
         3 023440   000122 000001 1                  ADSC9   BINHEX,A                 cn=0,n=1
         3 023441   200322 600001                    ADSC9   MDS_TEXT+5,,AUTO         cn=3,n=1
         3 023442   040100 100406                    MLR     fill='040'O
         3 023443   000122 000001 1                  ADSC9   BINHEX,Q                 cn=0,n=1
         3 023444   200323 000001                    ADSC9   MDS_TEXT+6,,AUTO         cn=0,n=1
         3 023445   002160 236000 1                  LDQ     BOARD_64K+689
         3 023446   000011 772000                    QRL     9
         3 023447   200323 552134                    STBQ    MDS_TEXT+6,'34'O,AUTO

     3196     6502    3                       BINHEX(HEX_NIBBLE(1)), ' = ');
     3197     6503    3           CALL INSERT(MDS_TEXT, 28, 23,

   6503  3 023450   200262 235100                    LDA     OCTET_NUM,,AUTO
         3 023451   000003 735000                    ALS     3
         3 023452   023454 605000 3                  TPL     s:6503+4
         3 023453   000044 035003                    ADLA    36,DU
         3 023454   003100 061505                    CSR     bolr='003'O
         3 023455   200241 000004                    BDSC    OCTET_BYTE,A,AUTO        by=0,bit=0,n=4
         3 023456   200534 000044                    BDSC    CHIP#+2,,AUTO            by=0,bit=0,n=36
         3 023457   200534 236100                    LDQ     CHIP#+2,,AUTO
         3 023460   200262 235100                    LDA     OCTET_NUM,,AUTO
         3 023461   000003 735000                    ALS     3
PL6.E3A0      #001=THF$RAW File=THF$FORMAT.:E05TSI                               WED 07/30/97 06:08 Page:596
         3 023462   023464 605000 3                  TPL     s:6503+12
         3 023463   000044 035003                    ADLA    36,DU
         3 023464   003100 061505                    CSR     bolr='003'O
         3 023465   200241 040004                    BDSC    OCTET_BYTE,A,AUTO        by=0,bit=4,n=4
         3 023466   200535 000044                    BDSC    CHIP#+3,,AUTO            by=0,bit=0,n=36
         3 023467   200536 756100                    STQ     CHIP#+4,,AUTO
         3 023470   200535 236100                    LDQ     CHIP#+3,,AUTO
         3 023471   200536 235100                    LDA     CHIP#+4,,AUTO
         3 023472   040100 100405                    MLR     fill='040'O
         3 023473   000122 000001 1                  ADSC9   BINHEX,A                 cn=0,n=1
         3 023474   200324 000001                    ADSC9   MDS_TEXT+7,,AUTO         cn=0,n=1
         3 023475   040100 100406                    MLR     fill='040'O
         3 023476   000122 000001 1                  ADSC9   BINHEX,Q                 cn=0,n=1
         3 023477   200324 200001                    ADSC9   MDS_TEXT+7,,AUTO         cn=1,n=1
         3 023500   040100 100400                    MLR     fill='040'O
         3 023501   002310 000025 1                  ADSC9   BOARD_64K+777            cn=0,n=21
         3 023502   200324 400025                    ADSC9   MDS_TEXT+7,,AUTO         cn=2,n=21

     3198     6504    3                       BINHEX(OCTET_NIBBLE(2 * OCTET_NUM)),
     3199     6505    3                       BINHEX(OCTET_NIBBLE(2 * OCTET_NUM + 1)),
     3200     6506    3                       ' -- CMD ENDING STATUS');
     3201     6507    3           XST_CNT = 51;

   6507  3 023503   000063 235007                    LDA     51,DL
         3 023504   200342 755100                    STA     XST_CNT,,AUTO

     3202     6508    3           CALL THF$ADD_TEXTC(XST$, MDS_TEXT, XST_CNT);

   6508  3 023505   200342 630500                    EPPR0   XST_CNT,,AUTO
         3 023506   200536 450500                    STP0    CHIP#+4,,AUTO
         3 023507   200315 631500                    EPPR1   MDS_TEXT,,AUTO
         3 023510   200535 451500                    STP1    CHIP#+3,,AUTO
         3 023511   200300 633500                    EPPR3   XST$,,AUTO
         3 023512   200534 453500                    STP3    CHIP#+2,,AUTO
         3 023513   200534 630500                    EPPR0   CHIP#+2,,AUTO
         3 023514   000021 631400 xsym               EPPR1   B_VECTNIL+17
         3 023515   000000 701000 xent               TSX1    THF$ADD_TEXTC
PL6.E3A0      #001=THF$RAW File=THF$FORMAT.:E05TSI                               WED 07/30/97 06:08 Page:597
         3 023516   000000 011000                    NOP     0

     3203     6509    3           NXST = NXST + 1;

   6509  3 023517   200343 235100                    LDA     NXST,,AUTO
         3 023520   000001 035007                    ADLA    1,DL
         3 023521   200343 755100                    STA     NXST,,AUTO

     3204     6510    3           MDS_STATUS_REG2(1) = OCTET_BYTE(6);

   6510  3 023522   200242 236100                    LDQ     OCTET_BYTE+1,,AUTO
         3 023523   000004 736000                    QLS     4
         3 023524   200257 676100                    ERQ     MDS_STATUS_REG2,,AUTO
         3 023525   001774 376003                    ANQ     1020,DU
         3 023526   200257 656100                    ERSQ    MDS_STATUS_REG2,,AUTO

     3205     6511    3           CALL DECODE_CMD_STAT;

   6511  3 023527   025266 701000 3                  TSX1    DECODE_CMD_STAT
         3 023530   000000 011000                    NOP     0

     3206     6512    3         END;  /* OCTET_NUM = 6 */

   6512  3 023531   024416 710000 3                  TRA     s:6632

     3207     6513    2         ELSE IF OCTET_NUM = 7 THEN

   6513  3 023532   000007 115007                    CMPA    7,DL
         3 023533   023614 601000 3                  TNZ     s:6525

     3208     6514    3           DO;

     3209     6515    3             CALL INSERT(MDS_TEXT, 17, 46,

   6515  3 023534   040100 100400                    MLR     fill='040'O
         3 023535   002316 000056 1                  ADSC9   BOARD_64K+783            cn=0,n=46
         3 023536   200321 200056                    ADSC9   MDS_TEXT+4,,AUTO         cn=1,n=46
PL6.E3A0      #001=THF$RAW File=THF$FORMAT.:E05TSI                               WED 07/30/97 06:08 Page:598

     3210     6516    3                         'OCTETS 0B TO 0C = 0000 -- COUNT OF SOFT ERRORS');
     3211     6517    3             CALL INSERT(MDS_TEXT, 35, 4, BINHEX(OCTET_NIBBLE(14)),

   6517  3 023537   200242 236100                    LDQ     OCTET_BYTE+1,,AUTO
         3 023540   000014 772000                    QRL     12
         3 023541   000017 376007                    ANQ     15,DL
         3 023542   200534 756100                    STQ     CHIP#+2,,AUTO
         3 023543   200242 236100                    LDQ     OCTET_BYTE+1,,AUTO
         3 023544   000010 772000                    QRL     8
         3 023545   000017 376007                    ANQ     15,DL
         3 023546   200535 756100                    STQ     CHIP#+3,,AUTO
         3 023547   200242 236100                    LDQ     OCTET_BYTE+1,,AUTO
         3 023550   000004 772000                    QRL     4
         3 023551   000017 376007                    ANQ     15,DL
         3 023552   200536 756100                    STQ     CHIP#+4,,AUTO
         3 023553   200242 236100                    LDQ     OCTET_BYTE+1,,AUTO
         3 023554   000017 376007                    ANQ     15,DL
         3 023555   200534 235100                    LDA     CHIP#+2,,AUTO
         3 023556   040100 100405                    MLR     fill='040'O
         3 023557   000122 000001 1                  ADSC9   BINHEX,A                 cn=0,n=1
         3 023560   200325 600001                    ADSC9   MDS_TEXT+8,,AUTO         cn=3,n=1
         3 023561   200535 235100                    LDA     CHIP#+3,,AUTO
         3 023562   040100 100405                    MLR     fill='040'O
         3 023563   000122 000001 1                  ADSC9   BINHEX,A                 cn=0,n=1
         3 023564   200326 000001                    ADSC9   MDS_TEXT+9,,AUTO         cn=0,n=1
         3 023565   200536 235100                    LDA     CHIP#+4,,AUTO
         3 023566   040100 100405                    MLR     fill='040'O
         3 023567   000122 000001 1                  ADSC9   BINHEX,A                 cn=0,n=1
         3 023570   200326 200001                    ADSC9   MDS_TEXT+9,,AUTO         cn=1,n=1
         3 023571   040100 100406                    MLR     fill='040'O
         3 023572   000122 000001 1                  ADSC9   BINHEX,Q                 cn=0,n=1
         3 023573   200326 400001                    ADSC9   MDS_TEXT+9,,AUTO         cn=2,n=1

     3212     6518    3                                          BINHEX(OCTET_NIBBLE(15)),
     3213     6519    3                                          BINHEX(OCTET_NIBBLE(16)),
     3214     6520    3                                          BINHEX(OCTET_NIBBLE(17)));
PL6.E3A0      #001=THF$RAW File=THF$FORMAT.:E05TSI                               WED 07/30/97 06:08 Page:599
     3215     6521    3             XST_CNT = 63;

   6521  3 023574   000077 235007                    LDA     63,DL
         3 023575   200342 755100                    STA     XST_CNT,,AUTO

     3216     6522    3             CALL THF$ADD_TEXTC(XST$, MDS_TEXT, XST_CNT);

   6522  3 023576   200342 630500                    EPPR0   XST_CNT,,AUTO
         3 023577   200536 450500                    STP0    CHIP#+4,,AUTO
         3 023600   200315 631500                    EPPR1   MDS_TEXT,,AUTO
         3 023601   200535 451500                    STP1    CHIP#+3,,AUTO
         3 023602   200300 633500                    EPPR3   XST$,,AUTO
         3 023603   200534 453500                    STP3    CHIP#+2,,AUTO
         3 023604   200534 630500                    EPPR0   CHIP#+2,,AUTO
         3 023605   000021 631400 xsym               EPPR1   B_VECTNIL+17
         3 023606   000000 701000 xent               TSX1    THF$ADD_TEXTC
         3 023607   000000 011000                    NOP     0

     3217     6523    3             NXST = NXST + 1;

   6523  3 023610   200343 235100                    LDA     NXST,,AUTO
         3 023611   000001 035007                    ADLA    1,DL
         3 023612   200343 755100                    STA     NXST,,AUTO

     3218     6524    3           END;  /* OCTET_NUM = 7 */

   6524  3 023613   024416 710000 3                  TRA     s:6632

     3219     6525    2         ELSE IF OCTET_NUM = 9 THEN

   6525  3 023614   000011 115007                    CMPA    9,DL
         3 023615   023705 601000 3                  TNZ     s:6542

     3220     6526    3           DO;                        /* OCTETS 9 AND 10 - RETRY CNT */

     3221     6527    3             CALL INSERT(MDS_TEXT, 17, 62,

PL6.E3A0      #001=THF$RAW File=THF$FORMAT.:E05TSI                               WED 07/30/97 06:08 Page:600
   6527  3 023616   040100 100400                    MLR     fill='040'O
         3 023617   002332 000076 1                  ADSC9   BOARD_64K+795            cn=0,n=62
         3 023620   200321 200076                    ADSC9   MDS_TEXT+4,,AUTO         cn=1,n=62

     3222     6528    3                      'OCTETS 0D TO 0E = 0000 -- TOTAL # OF RETRIES & ECC CORRECTIONS'
              6528                                  );
     3223     6529    3             CALL INSERT(MDS_TEXT, 35, 4, BINHEX(OCTET_NIBBLE(18)),

   6529  3 023621   200243 236100                    LDQ     OCTET_BYTE+2,,AUTO
         3 023622   000040 772000                    QRL     32
         3 023623   200534 756100                    STQ     CHIP#+2,,AUTO
         3 023624   200243 236100                    LDQ     OCTET_BYTE+2,,AUTO
         3 023625   000034 772000                    QRL     28
         3 023626   000017 376007                    ANQ     15,DL
         3 023627   200535 756100                    STQ     CHIP#+3,,AUTO
         3 023630   200243 236100                    LDQ     OCTET_BYTE+2,,AUTO
         3 023631   000030 772000                    QRL     24
         3 023632   000017 376007                    ANQ     15,DL
         3 023633   200536 756100                    STQ     CHIP#+4,,AUTO
         3 023634   200243 236100                    LDQ     OCTET_BYTE+2,,AUTO
         3 023635   000024 772000                    QRL     20
         3 023636   000017 376007                    ANQ     15,DL
         3 023637   200534 235100                    LDA     CHIP#+2,,AUTO
         3 023640   040100 100405                    MLR     fill='040'O
         3 023641   000122 000001 1                  ADSC9   BINHEX,A                 cn=0,n=1
         3 023642   200325 600001                    ADSC9   MDS_TEXT+8,,AUTO         cn=3,n=1
         3 023643   200535 235100                    LDA     CHIP#+3,,AUTO
         3 023644   040100 100405                    MLR     fill='040'O
         3 023645   000122 000001 1                  ADSC9   BINHEX,A                 cn=0,n=1
         3 023646   200326 000001                    ADSC9   MDS_TEXT+9,,AUTO         cn=0,n=1
         3 023647   200536 235100                    LDA     CHIP#+4,,AUTO
         3 023650   040100 100405                    MLR     fill='040'O
         3 023651   000122 000001 1                  ADSC9   BINHEX,A                 cn=0,n=1
         3 023652   200326 200001                    ADSC9   MDS_TEXT+9,,AUTO         cn=1,n=1
         3 023653   040100 100406                    MLR     fill='040'O
         3 023654   000122 000001 1                  ADSC9   BINHEX,Q                 cn=0,n=1
         3 023655   200326 400001                    ADSC9   MDS_TEXT+9,,AUTO         cn=2,n=1
PL6.E3A0      #001=THF$RAW File=THF$FORMAT.:E05TSI                               WED 07/30/97 06:08 Page:601

     3224     6530    3                                          BINHEX(OCTET_NIBBLE(19)),
     3225     6531    3                                          BINHEX(OCTET_NIBBLE(20)),
     3226     6532    3                                          BINHEX(OCTET_NIBBLE(21)));
     3227     6533    3             XST_CNT = 79;

   6533  3 023656   000117 235007                    LDA     79,DL
         3 023657   200342 755100                    STA     XST_CNT,,AUTO

     3228     6534    3             CALL THF$ADD_TEXTC(XST$, MDS_TEXT, XST_CNT);

   6534  3 023660   200342 630500                    EPPR0   XST_CNT,,AUTO
         3 023661   200536 450500                    STP0    CHIP#+4,,AUTO
         3 023662   200315 631500                    EPPR1   MDS_TEXT,,AUTO
         3 023663   200535 451500                    STP1    CHIP#+3,,AUTO
         3 023664   200300 633500                    EPPR3   XST$,,AUTO
         3 023665   200534 453500                    STP3    CHIP#+2,,AUTO
         3 023666   200534 630500                    EPPR0   CHIP#+2,,AUTO
         3 023667   000021 631400 xsym               EPPR1   B_VECTNIL+17
         3 023670   000000 701000 xent               TSX1    THF$ADD_TEXTC
         3 023671   000000 011000                    NOP     0

     3229     6535    3             NXST = NXST + 1;

   6535  3 023672   200343 235100                    LDA     NXST,,AUTO
         3 023673   000001 035007                    ADLA    1,DL
         3 023674   200343 755100                    STA     NXST,,AUTO

     3230     6536    3             IF PARAMETER_LENGTH = %HEX_0F    /* TEST FOR SHORT PARAMETER */

   6536  3 023675   200255 236100                    LDQ     PARAMETER_LENGTH,,AUTO
         3 023676   776000 376003                    ANQ     -1024,DU
         3 023677   036000 116003                    CMPQ    15360,DU
         3 023700   024416 601000 3                  TNZ     s:6632

     3231     6537    4                THEN DO;

PL6.E3A0      #001=THF$RAW File=THF$FORMAT.:E05TSI                               WED 07/30/97 06:08 Page:602
     3232     6538    4                   CALL DECODE_PARAM_3X;

   6538  3 023701   025672 701000 3                  TSX1    DECODE_PARAM_3X
         3 023702   000000 011000                    NOP     0

     3233     6539    4                   RETURN;

   6539  3 023703   200526 221300                    LDX1  ! @BOARD,,AUTO
         3 023704   000001 702211                    TSX2  ! 1,X1

     3234     6540    4                END;
     3235     6541    3           END;  /* OCTET_NUM = 9 */
     3236     6542    2         ELSE IF OCTET_NUM = 11 THEN

   6542  3 023705   000013 115007                    CMPA    11,DL
         3 023706   024043 601000 3                  TNZ     s:6568

     3237     6543    3            DO;                                /* OCTET 11 - DEVICE STATUS */

     3238     6544    3              CALL INSERT(MDS_TEXT, 17, 43,

   6544  3 023707   040100 100400                    MLR     fill='040'O
         3 023710   002352 000053 1                  ADSC9   BOARD_64K+811            cn=0,n=43
         3 023711   200321 200053                    ADSC9   MDS_TEXT+4,,AUTO         cn=1,n=43

     3239     6545    3                          'OCTET 0F = 00 -- DRIVE''S STATUS/ERROR CODES');
     3240     6546    3              CALL INSERT(MDS_TEXT, 28, 2, BINHEX(OCTET_NIBBLE(22)),

   6546  3 023712   200243 236100                    LDQ     OCTET_BYTE+2,,AUTO
         3 023713   000020 772000                    QRL     16
         3 023714   000017 376007                    ANQ     15,DL
         3 023715   200534 756100                    STQ     CHIP#+2,,AUTO
         3 023716   200243 236100                    LDQ     OCTET_BYTE+2,,AUTO
         3 023717   000014 772000                    QRL     12
         3 023720   000017 376007                    ANQ     15,DL
         3 023721   200534 235100                    LDA     CHIP#+2,,AUTO
         3 023722   040100 100405                    MLR     fill='040'O
PL6.E3A0      #001=THF$RAW File=THF$FORMAT.:E05TSI                               WED 07/30/97 06:08 Page:603
         3 023723   000122 000001 1                  ADSC9   BINHEX,A                 cn=0,n=1
         3 023724   200324 000001                    ADSC9   MDS_TEXT+7,,AUTO         cn=0,n=1
         3 023725   040100 100406                    MLR     fill='040'O
         3 023726   000122 000001 1                  ADSC9   BINHEX,Q                 cn=0,n=1
         3 023727   200324 200001                    ADSC9   MDS_TEXT+7,,AUTO         cn=1,n=1

     3241     6547    3                                           BINHEX(OCTET_NIBBLE(23)));
     3242     6548    3              XST_CNT = 60;

   6548  3 023730   000074 235007                    LDA     60,DL
         3 023731   200342 755100                    STA     XST_CNT,,AUTO

     3243     6549    3              CALL THF$ADD_TEXTC(XST$, MDS_TEXT, XST_CNT);

   6549  3 023732   200342 630500                    EPPR0   XST_CNT,,AUTO
         3 023733   200536 450500                    STP0    CHIP#+4,,AUTO
         3 023734   200315 631500                    EPPR1   MDS_TEXT,,AUTO
         3 023735   200535 451500                    STP1    CHIP#+3,,AUTO
         3 023736   200300 633500                    EPPR3   XST$,,AUTO
         3 023737   200534 453500                    STP3    CHIP#+2,,AUTO
         3 023740   200534 630500                    EPPR0   CHIP#+2,,AUTO
         3 023741   000021 631400 xsym               EPPR1   B_VECTNIL+17
         3 023742   000000 701000 xent               TSX1    THF$ADD_TEXTC
         3 023743   000000 011000                    NOP     0

     3244     6550    3              NXST = NXST + 1;

   6550  3 023744   200343 235100                    LDA     NXST,,AUTO
         3 023745   000001 035007                    ADLA    1,DL
         3 023746   200343 755100                    STA     NXST,,AUTO

     3245     6551    3              IF EL$IOERR.MODEL = 'MSU8092' THEN

   6551  3 023747   200005 470500                    LDP0    INFO+1,,AUTO
         3 023750   040000 106500                    CMPC    fill='040'O
         3 023751   000030 000010                    ADSC9   24,,PR0                  cn=0,n=8
         3 023752   002365 000007 1                  ADSC9   BOARD_64K+822            cn=0,n=7
PL6.E3A0      #001=THF$RAW File=THF$FORMAT.:E05TSI                               WED 07/30/97 06:08 Page:604
         3 023753   024416 601000 3                  TNZ     s:6632

     3246     6552    4                 DO;                       /* DECODE STATUS FOR MDS II DISC */

     3247     6553    4                   MDS_TBL$ = ADDR(MDSII_STATUS);

   6553  3 023754   000453 236000 4                  LDQ     299
         3 023755   200217 756100                    STQ     MDS_TBL$,,AUTO

     3248     6554    4                   MAX_ENTRY = %MDSII_MAX_STATUS;

   6554  3 023756   000032 235007                    LDA     26,DL
         3 023757   200261 755100                    STA     MAX_ENTRY,,AUTO

     3249     6555    5                   DO X = 0 TO MAX_ENTRY;

   6555  3 023760   200011 450100                    STZ     X,,AUTO
         3 023761   024036 710000 3                  TRA     s:6565+1

     3250     6556    5                      IF OCTET_BYTE(11) = MDS_TBL.CODE(X) THEN

   6556  3 023762   200011 236100                    LDQ     X,,AUTO
         3 023763   000014 402007                    MPY     12,DL
         3 023764   200217 470500                    LDP0    MDS_TBL$,,AUTO
         3 023765   000000 236106                    LDQ     0,QL,PR0
         3 023766   000033 772000                    QRL     27
         3 023767   200534 756100                    STQ     CHIP#+2,,AUTO
         3 023770   200243 236100                    LDQ     OCTET_BYTE+2,,AUTO
         3 023771   000014 772000                    QRL     12
         3 023772   000377 376007                    ANQ     255,DL
         3 023773   200534 116100                    CMPQ    CHIP#+2,,AUTO
         3 023774   024035 601000 3                  TNZ     s:6565

     3251     6557    6                         DO;

     3252     6558    6                           MDS_TEXT = ' ';

PL6.E3A0      #001=THF$RAW File=THF$FORMAT.:E05TSI                               WED 07/30/97 06:08 Page:605
   6558  3 023775   040100 100400                    MLR     fill='040'O
         3 023776   000035 000001 xsym               ADSC9   B_VECTNIL+29             cn=0,n=1
         3 023777   200315 000120                    ADSC9   MDS_TEXT,,AUTO           cn=0,n=80

     3253     6559    6                           CALL INSERT(MDS_TEXT, 19, MDS_TBL.COUNT(X),

   6559  3 024000   200011 236100                    LDQ     X,,AUTO
         3 024001   000014 402007                    MPY     12,DL
         3 024002   000000 220106                    LDX0    0,QL,PR0
         3 024003   000777 360003                    ANX0    511,DU
         3 024004   200011 236100                    LDQ     X,,AUTO
         3 024005   000060 402007                    MPY     48,DL
         3 024006   040140 100506                    MLR     fill='040'O
         3 024007   000000 400054                    ADSC9   0,Q,PR0                  cn=2,n=44
         3 024010   200321 600010                    ADSC9   MDS_TEXT+4,,AUTO         cn=3,n=*X0

     3254     6560    6                                       MDS_TBL.TEXT(X));
     3255     6561    6                           XST_CNT = MDS_TBL.COUNT(X) + 19;

   6561  3 024011   200011 236100                    LDQ     X,,AUTO
         3 024012   000014 402007                    MPY     12,DL
         3 024013   000000 236106                    LDQ     0,QL,PR0
         3 024014   000022 772000                    QRL     18
         3 024015   000777 376007                    ANQ     511,DL
         3 024016   000023 036007                    ADLQ    19,DL
         3 024017   200342 756100                    STQ     XST_CNT,,AUTO

     3256     6562    6                           CALL THF$ADD_TEXTC(XST$, MDS_TEXT, XST_CNT);

   6562  3 024020   200342 631500                    EPPR1   XST_CNT,,AUTO
         3 024021   200536 451500                    STP1    CHIP#+4,,AUTO
         3 024022   200315 633500                    EPPR3   MDS_TEXT,,AUTO
         3 024023   200535 453500                    STP3    CHIP#+3,,AUTO
         3 024024   200300 634500                    EPPR4   XST$,,AUTO
         3 024025   200534 454500                    STP4    CHIP#+2,,AUTO
         3 024026   200534 630500                    EPPR0   CHIP#+2,,AUTO
         3 024027   000021 631400 xsym               EPPR1   B_VECTNIL+17
PL6.E3A0      #001=THF$RAW File=THF$FORMAT.:E05TSI                               WED 07/30/97 06:08 Page:606
         3 024030   000000 701000 xent               TSX1    THF$ADD_TEXTC
         3 024031   000000 011000                    NOP     0

     3257     6563    6                           NXST = NXST + 1;

   6563  3 024032   200343 235100                    LDA     NXST,,AUTO
         3 024033   000001 035007                    ADLA    1,DL
         3 024034   200343 755100                    STA     NXST,,AUTO

     3258     6564    6                         END;

     3259     6565    5                   END;  /* DO X */

   6565  3 024035   200011 054100                    AOS     X,,AUTO
         3 024036   200261 236100                    LDQ     MAX_ENTRY,,AUTO
         3 024037   023762 604000 3                  TMI     s:6556
         3 024040   200011 116100                    CMPQ    X,,AUTO
         3 024041   023762 605000 3                  TPL     s:6556

     3260     6566    4                 END;  /* MODEL = MSU8092 */

     3261     6567    3            END;

   6567  3 024042   024416 710000 3                  TRA     s:6632

     3262     6568    2         ELSE IF OCTET_NUM = 12 THEN

   6568  3 024043   000014 115007                    CMPA    12,DL
         3 024044   024246 601000 3                  TNZ     s:6600

     3263     6569    3            DO;

     3264     6570    4              DO X = 0 TO 3;

   6570  3 024045   200011 450100                    STZ     X,,AUTO

     3265     6571    4                 FRU_STRING.OCTET.NIB1(X) = BINHEX(OCTET_NIBBLE(2 * X + 24));
PL6.E3A0      #001=THF$RAW File=THF$FORMAT.:E05TSI                               WED 07/30/97 06:08 Page:607

   6571  3 024046   200011 235100                    LDA     X,,AUTO
         3 024047   000003 735000                    ALS     3
         3 024050   024052 605000 3                  TPL     s:6571+4
         3 024051   000044 035003                    ADLA    36,DU
         3 024052   003100 061505                    CSR     bolr='003'O
         3 024053   200243 460004                    BDSC    OCTET_BYTE+2,A,AUTO      by=2,bit=6,n=4
         3 024054   200534 000044                    BDSC    CHIP#+2,,AUTO            by=0,bit=0,n=36
         3 024055   200534 236100                    LDQ     CHIP#+2,,AUTO
         3 024056   200535 756100                    STQ     CHIP#+3,,AUTO
         3 024057   200011 236100                    LDQ     X,,AUTO
         3 024060   000003 402007                    MPY     3,DL
         3 024061   200535 235100                    LDA     CHIP#+3,,AUTO
         3 024062   040006 100405                    MLR     fill='040'O
         3 024063   000122 000001 1                  ADSC9   BINHEX,A                 cn=0,n=1
         3 024064   000066 000001 2                  ADSC9   FRU_STRING+1,Q           cn=0,n=1

     3266     6572    4                 FRU_STRING.OCTET.NIB2(X) = BINHEX(OCTET_NIBBLE(2 * X + 25));

   6572  3 024065   200011 235100                    LDA     X,,AUTO
         3 024066   000003 735000                    ALS     3
         3 024067   024071 605000 3                  TPL     s:6572+4
         3 024070   000044 035003                    ADLA    36,DU
         3 024071   003100 061505                    CSR     bolr='003'O
         3 024072   200243 610004                    BDSC    OCTET_BYTE+2,A,AUTO      by=3,bit=1,n=4
         3 024073   200534 000044                    BDSC    CHIP#+2,,AUTO            by=0,bit=0,n=36
         3 024074   200534 236100                    LDQ     CHIP#+2,,AUTO
         3 024075   200535 756100                    STQ     CHIP#+3,,AUTO
         3 024076   200011 236100                    LDQ     X,,AUTO
         3 024077   000003 402007                    MPY     3,DL
         3 024100   200535 235100                    LDA     CHIP#+3,,AUTO
         3 024101   040006 100405                    MLR     fill='040'O
         3 024102   000122 000001 1                  ADSC9   BINHEX,A                 cn=0,n=1
         3 024103   000066 200001 2                  ADSC9   FRU_STRING+1,Q           cn=1,n=1

     3267     6573    4              END;  /* DO X */

PL6.E3A0      #001=THF$RAW File=THF$FORMAT.:E05TSI                               WED 07/30/97 06:08 Page:608
   6573  3 024104   200011 054100                    AOS     X,,AUTO
         3 024105   200011 235100                    LDA     X,,AUTO
         3 024106   000003 115007                    CMPA    3,DL
         3 024107   024046 604400 3                  TMOZ    s:6571

     3268     6574    3              CALL INSERT(MDS_TEXT, 17, 39, 'OCTETS 20 TO 23', FRU_STR, '  - FRUS');

   6574  3 024110   040100 100400                    MLR     fill='040'O
         3 024111   002367 000017 1                  ADSC9   BOARD_64K+824            cn=0,n=15
         3 024112   200321 200017                    ADSC9   MDS_TEXT+4,,AUTO         cn=1,n=15
         3 024113   040100 100400                    MLR     fill='040'O
         3 024114   000065 000020 2                  ADSC9   FRU_STRING               cn=0,n=16
         3 024115   200325 000020                    ADSC9   MDS_TEXT+8,,AUTO         cn=0,n=16
         3 024116   040100 100400                    MLR     fill='040'O
         3 024117   002373 000010 1                  ADSC9   BOARD_64K+828            cn=0,n=8
         3 024120   200331 000010                    ADSC9   MDS_TEXT+12,,AUTO        cn=0,n=8

     3269     6575    3              XST_CNT = 56;

   6575  3 024121   000070 235007                    LDA     56,DL
         3 024122   200342 755100                    STA     XST_CNT,,AUTO

     3270     6576    3              CALL THF$ADD_TEXTC(XST$, MDS_TEXT, XST_CNT);

   6576  3 024123   200342 630500                    EPPR0   XST_CNT,,AUTO
         3 024124   200536 450500                    STP0    CHIP#+4,,AUTO
         3 024125   200315 631500                    EPPR1   MDS_TEXT,,AUTO
         3 024126   200535 451500                    STP1    CHIP#+3,,AUTO
         3 024127   200300 633500                    EPPR3   XST$,,AUTO
         3 024130   200534 453500                    STP3    CHIP#+2,,AUTO
         3 024131   200534 630500                    EPPR0   CHIP#+2,,AUTO
         3 024132   000021 631400 xsym               EPPR1   B_VECTNIL+17
         3 024133   000000 701000 xent               TSX1    THF$ADD_TEXTC
         3 024134   000000 011000                    NOP     0

     3271     6577    3              NXST = NXST + 1;

PL6.E3A0      #001=THF$RAW File=THF$FORMAT.:E05TSI                               WED 07/30/97 06:08 Page:609
   6577  3 024135   200343 235100                    LDA     NXST,,AUTO
         3 024136   000001 035007                    ADLA    1,DL
         3 024137   200343 755100                    STA     NXST,,AUTO

     3272     6578    3              IF EL$IOERR.MODEL = 'MSU8092' THEN

   6578  3 024140   200005 470500                    LDP0    INFO+1,,AUTO
         3 024141   040000 106500                    CMPC    fill='040'O
         3 024142   000030 000010                    ADSC9   24,,PR0                  cn=0,n=8
         3 024143   002365 000007 1                  ADSC9   BOARD_64K+822            cn=0,n=7
         3 024144   024152 601000 3                  TNZ     s:6584

     3273     6579    4                 DO;

     3274     6580    4                   MAX_ENTRY = %MDSII_MAX_FRUS;

   6580  3 024145   000010 236007                    LDQ     8,DL
         3 024146   200261 756100                    STQ     MAX_ENTRY,,AUTO

     3275     6581    4                   MDS_TBL$ = ADDR(MDSII_FRUS);

   6581  3 024147   000454 236000 4                  LDQ     300
         3 024150   200217 756100                    STQ     MDS_TBL$,,AUTO

     3276     6582    4                 END;

   6582  3 024151   024156 710000 3                  TRA     s:6587

     3277     6583    4                 ELSE DO;

     3278     6584    4                   MAX_ENTRY = %MDSI_MAX_FRUS;

   6584  3 024152   000017 236007                    LDQ     15,DL
         3 024153   200261 756100                    STQ     MAX_ENTRY,,AUTO

     3279     6585    4                   MDS_TBL$ = ADDR(MDSI_FRUS);

PL6.E3A0      #001=THF$RAW File=THF$FORMAT.:E05TSI                               WED 07/30/97 06:08 Page:610
   6585  3 024154   000455 236000 4                  LDQ     301
         3 024155   200217 756100                    STQ     MDS_TBL$,,AUTO

     3280     6586    4                 END;

     3281     6587    4              DO X = 12 TO 15;

   6587  3 024156   000014 235007                    LDA     12,DL
         3 024157   200011 755100                    STA     X,,AUTO

     3282     6588    4                 F_INDX = OCTET_BYTE(X);

   6588  3 024160   200011 235100                    LDA     X,,AUTO
         3 024161   000003 735000                    ALS     3
         3 024162   024164 605000 3                  TPL     s:6588+4
         3 024163   000044 035003                    ADLA    36,DU
         3 024164   003100 060505                    CSL     bolr='003'O
         3 024165   200241 000010                    BDSC    OCTET_BYTE,A,AUTO        by=0,bit=0,n=8
         3 024166   200260 000010                    BDSC    F_INDX,,AUTO             by=0,bit=0,n=8

     3283     6589    4                 IF (FRU_INDX(1) >0 AND FRU_INDX(1) <= MAX_ENTRY) THEN

   6589  3 024167   200260 236100                    LDQ     F_INDX,,AUTO
         3 024170   036000 316003                    CANQ    15360,DU
         3 024171   024241 600000 3                  TZE     s:6598
         3 024172   200260 236100                    LDQ     F_INDX,,AUTO
         3 024173   000034 772000                    QRL     28
         3 024174   000017 376007                    ANQ     15,DL
         3 024175   200261 116100                    CMPQ    MAX_ENTRY,,AUTO
         3 024176   024200 600000 3                  TZE     s:6591
         3 024177   024241 603000 3                  TRC     s:6598

     3284     6590    5                   DO;

     3285     6591    5                     MDS_TEXT = ' ';

   6591  3 024200   040100 100400                    MLR     fill='040'O
PL6.E3A0      #001=THF$RAW File=THF$FORMAT.:E05TSI                               WED 07/30/97 06:08 Page:611
         3 024201   000035 000001 xsym               ADSC9   B_VECTNIL+29             cn=0,n=1
         3 024202   200315 000120                    ADSC9   MDS_TEXT,,AUTO           cn=0,n=80

     3286     6592    5                     CALL INSERT(MDS_TEXT, 19, MDS_TBL.COUNT(FRU_INDX(1)),

   6592  3 024203   000014 402007                    MPY     12,DL
         3 024204   200217 470500                    LDP0    MDS_TBL$,,AUTO
         3 024205   000000 220106                    LDX0    0,QL,PR0
         3 024206   000777 360003                    ANX0    511,DU
         3 024207   000002 736000                    QLS     2
         3 024210   040140 100506                    MLR     fill='040'O
         3 024211   000000 400054                    ADSC9   0,Q,PR0                  cn=2,n=44
         3 024212   200321 600010                    ADSC9   MDS_TEXT+4,,AUTO         cn=3,n=*X0

     3287     6593    5                                 MDS_TBL.TEXT(FRU_INDX(1)));
     3288     6594    5                     XST_CNT = MDS_TBL.COUNT(FRU_INDX(1)) + 19;

   6594  3 024213   200260 236100                    LDQ     F_INDX,,AUTO
         3 024214   000034 772000                    QRL     28
         3 024215   000017 376007                    ANQ     15,DL
         3 024216   000014 402007                    MPY     12,DL
         3 024217   000000 236106                    LDQ     0,QL,PR0
         3 024220   000022 772000                    QRL     18
         3 024221   000777 376007                    ANQ     511,DL
         3 024222   000023 036007                    ADLQ    19,DL
         3 024223   200342 756100                    STQ     XST_CNT,,AUTO

     3289     6595    5                     CALL THF$ADD_TEXTC(XST$, MDS_TEXT, XST_CNT);

   6595  3 024224   200342 631500                    EPPR1   XST_CNT,,AUTO
         3 024225   200536 451500                    STP1    CHIP#+4,,AUTO
         3 024226   200315 633500                    EPPR3   MDS_TEXT,,AUTO
         3 024227   200535 453500                    STP3    CHIP#+3,,AUTO
         3 024230   200300 634500                    EPPR4   XST$,,AUTO
         3 024231   200534 454500                    STP4    CHIP#+2,,AUTO
         3 024232   200534 630500                    EPPR0   CHIP#+2,,AUTO
         3 024233   000021 631400 xsym               EPPR1   B_VECTNIL+17
PL6.E3A0      #001=THF$RAW File=THF$FORMAT.:E05TSI                               WED 07/30/97 06:08 Page:612
         3 024234   000000 701000 xent               TSX1    THF$ADD_TEXTC
         3 024235   000000 011000                    NOP     0

     3290     6596    5                     NXST = NXST + 1;

   6596  3 024236   200343 235100                    LDA     NXST,,AUTO
         3 024237   000001 035007                    ADLA    1,DL
         3 024240   200343 755100                    STA     NXST,,AUTO

     3291     6597    5                   END;

     3292     6598    4              END;  /* DO X */

   6598  3 024241   200011 054100                    AOS     X,,AUTO
         3 024242   200011 235100                    LDA     X,,AUTO
         3 024243   000017 115007                    CMPA    15,DL
         3 024244   024160 604400 3                  TMOZ    s:6588

     3293     6599    3            END;    /* DO OCTET_NUM = 12 */

   6599  3 024245   024416 710000 3                  TRA     s:6632

     3294     6600    2         ELSE IF OCTET_NUM = 16 THEN

   6600  3 024246   000020 115007                    CMPA    16,DL
         3 024247   024414 601000 3                  TNZ     s:6631

     3295     6601    3            DO;

     3296     6602    3              CALL INSERT(MDS_TEXT,17,27,'OCTET 24 = 00 -- FAULT CODE');

   6602  3 024250   040100 100400                    MLR     fill='040'O
         3 024251   002375 000033 1                  ADSC9   BOARD_64K+830            cn=0,n=27
         3 024252   200321 200033                    ADSC9   MDS_TEXT+4,,AUTO         cn=1,n=27

     3297     6603    3              CALL INSERT(MDS_TEXT,28,2,BINHEX(OCTET_NIBBLE(32)),

PL6.E3A0      #001=THF$RAW File=THF$FORMAT.:E05TSI                               WED 07/30/97 06:08 Page:613
   6603  3 024253   200244 236100                    LDQ     OCTET_BYTE+3,,AUTO
         3 024254   000014 772000                    QRL     12
         3 024255   000017 376007                    ANQ     15,DL
         3 024256   200534 756100                    STQ     CHIP#+2,,AUTO
         3 024257   200244 236100                    LDQ     OCTET_BYTE+3,,AUTO
         3 024260   000010 772000                    QRL     8
         3 024261   000017 376007                    ANQ     15,DL
         3 024262   200534 235100                    LDA     CHIP#+2,,AUTO
         3 024263   040100 100405                    MLR     fill='040'O
         3 024264   000122 000001 1                  ADSC9   BINHEX,A                 cn=0,n=1
         3 024265   200324 000001                    ADSC9   MDS_TEXT+7,,AUTO         cn=0,n=1
         3 024266   040100 100406                    MLR     fill='040'O
         3 024267   000122 000001 1                  ADSC9   BINHEX,Q                 cn=0,n=1
         3 024270   200324 200001                    ADSC9   MDS_TEXT+7,,AUTO         cn=1,n=1

     3298     6604    3                                        BINHEX(OCTET_NIBBLE(33)));
     3299     6605    3              XST_CNT = 44;

   6605  3 024271   000054 235007                    LDA     44,DL
         3 024272   200342 755100                    STA     XST_CNT,,AUTO

     3300     6606    3              CALL THF$ADD_TEXTC(XST$, MDS_TEXT, XST_CNT);

   6606  3 024273   200342 630500                    EPPR0   XST_CNT,,AUTO
         3 024274   200536 450500                    STP0    CHIP#+4,,AUTO
         3 024275   200315 631500                    EPPR1   MDS_TEXT,,AUTO
         3 024276   200535 451500                    STP1    CHIP#+3,,AUTO
         3 024277   200300 633500                    EPPR3   XST$,,AUTO
         3 024300   200534 453500                    STP3    CHIP#+2,,AUTO
         3 024301   200534 630500                    EPPR0   CHIP#+2,,AUTO
         3 024302   000021 631400 xsym               EPPR1   B_VECTNIL+17
         3 024303   000000 701000 xent               TSX1    THF$ADD_TEXTC
         3 024304   000000 011000                    NOP     0

     3301     6607    3              NXST = NXST + 1;

   6607  3 024305   200343 235100                    LDA     NXST,,AUTO
PL6.E3A0      #001=THF$RAW File=THF$FORMAT.:E05TSI                               WED 07/30/97 06:08 Page:614
         3 024306   000001 035007                    ADLA    1,DL
         3 024307   200343 755100                    STA     NXST,,AUTO

     3302     6608    3              IF EL$IOERR.MODEL = 'MSU8092' THEN

   6608  3 024310   200005 470500                    LDP0    INFO+1,,AUTO
         3 024311   040000 106500                    CMPC    fill='040'O
         3 024312   000030 000010                    ADSC9   24,,PR0                  cn=0,n=8
         3 024313   002365 000007 1                  ADSC9   BOARD_64K+822            cn=0,n=7
         3 024314   024322 601000 3                  TNZ     s:6614

     3303     6609    4                DO;

     3304     6610    4                  MAX_ENTRY = %MDSII_MAX_FC;

   6610  3 024315   000007 236007                    LDQ     7,DL
         3 024316   200261 756100                    STQ     MAX_ENTRY,,AUTO

     3305     6611    4                  MDS_TBL$ = ADDR(MDSII_FCODE);

   6611  3 024317   000456 236000 4                  LDQ     302
         3 024320   200217 756100                    STQ     MDS_TBL$,,AUTO

     3306     6612    4                END;

   6612  3 024321   024326 710000 3                  TRA     s:6617

     3307     6613    4                ELSE DO;

     3308     6614    4                  MAX_ENTRY = %MDSI_MAX_FC;

   6614  3 024322   000006 236007                    LDQ     6,DL
         3 024323   200261 756100                    STQ     MAX_ENTRY,,AUTO

     3309     6615    4                  MDS_TBL$ = ADDR(MDSI_FCODE);

   6615  3 024324   000457 236000 4                  LDQ     303
PL6.E3A0      #001=THF$RAW File=THF$FORMAT.:E05TSI                               WED 07/30/97 06:08 Page:615
         3 024325   200217 756100                    STQ     MDS_TBL$,,AUTO

     3310     6616    4                END;

     3311     6617    4              DO X = 0 TO MAX_ENTRY;

   6617  3 024326   200011 450100                    STZ     X,,AUTO
         3 024327   024404 710000 3                  TRA     s:6627+1

     3312     6618    4                IF OCTET_BYTE(16) = MDS_TBL.CODE(X) THEN

   6618  3 024330   200011 236100                    LDQ     X,,AUTO
         3 024331   000014 402007                    MPY     12,DL
         3 024332   200217 470500                    LDP0    MDS_TBL$,,AUTO
         3 024333   000000 236106                    LDQ     0,QL,PR0
         3 024334   000033 772000                    QRL     27
         3 024335   200534 756100                    STQ     CHIP#+2,,AUTO
         3 024336   200244 236100                    LDQ     OCTET_BYTE+3,,AUTO
         3 024337   000010 772000                    QRL     8
         3 024340   000377 376007                    ANQ     255,DL
         3 024341   200534 116100                    CMPQ    CHIP#+2,,AUTO
         3 024342   024403 601000 3                  TNZ     s:6627

     3313     6619    5                   DO;

     3314     6620    5                     MDS_TEXT = ' ';

   6620  3 024343   040100 100400                    MLR     fill='040'O
         3 024344   000035 000001 xsym               ADSC9   B_VECTNIL+29             cn=0,n=1
         3 024345   200315 000120                    ADSC9   MDS_TEXT,,AUTO           cn=0,n=80

     3315     6621    5                     CALL INSERT(MDS_TEXT, 19, MDS_TBL.COUNT(X),

   6621  3 024346   200011 236100                    LDQ     X,,AUTO
         3 024347   000014 402007                    MPY     12,DL
         3 024350   000000 220106                    LDX0    0,QL,PR0
         3 024351   000777 360003                    ANX0    511,DU
PL6.E3A0      #001=THF$RAW File=THF$FORMAT.:E05TSI                               WED 07/30/97 06:08 Page:616
         3 024352   200011 236100                    LDQ     X,,AUTO
         3 024353   000060 402007                    MPY     48,DL
         3 024354   040140 100506                    MLR     fill='040'O
         3 024355   000000 400054                    ADSC9   0,Q,PR0                  cn=2,n=44
         3 024356   200321 600010                    ADSC9   MDS_TEXT+4,,AUTO         cn=3,n=*X0

     3316     6622    5                                 MDS_TBL.TEXT(X));
     3317     6623    5                     XST_CNT = MDS_TBL.COUNT(X) + 19;

   6623  3 024357   200011 236100                    LDQ     X,,AUTO
         3 024360   000014 402007                    MPY     12,DL
         3 024361   000000 236106                    LDQ     0,QL,PR0
         3 024362   000022 772000                    QRL     18
         3 024363   000777 376007                    ANQ     511,DL
         3 024364   000023 036007                    ADLQ    19,DL
         3 024365   200342 756100                    STQ     XST_CNT,,AUTO

     3318     6624    5                     CALL THF$ADD_TEXTC(XST$, MDS_TEXT, XST_CNT);

   6624  3 024366   200342 631500                    EPPR1   XST_CNT,,AUTO
         3 024367   200536 451500                    STP1    CHIP#+4,,AUTO
         3 024370   200315 633500                    EPPR3   MDS_TEXT,,AUTO
         3 024371   200535 453500                    STP3    CHIP#+3,,AUTO
         3 024372   200300 634500                    EPPR4   XST$,,AUTO
         3 024373   200534 454500                    STP4    CHIP#+2,,AUTO
         3 024374   200534 630500                    EPPR0   CHIP#+2,,AUTO
         3 024375   000021 631400 xsym               EPPR1   B_VECTNIL+17
         3 024376   000000 701000 xent               TSX1    THF$ADD_TEXTC
         3 024377   000000 011000                    NOP     0

     3319     6625    5                     NXST = NXST + 1;

   6625  3 024400   200343 235100                    LDA     NXST,,AUTO
         3 024401   000001 035007                    ADLA    1,DL
         3 024402   200343 755100                    STA     NXST,,AUTO

     3320     6626    5                   END;
PL6.E3A0      #001=THF$RAW File=THF$FORMAT.:E05TSI                               WED 07/30/97 06:08 Page:617

     3321     6627    4              END;  /* DO X */

   6627  3 024403   200011 054100                    AOS     X,,AUTO
         3 024404   200261 236100                    LDQ     MAX_ENTRY,,AUTO
         3 024405   024330 604000 3                  TMI     s:6618
         3 024406   200011 116100                    CMPQ    X,,AUTO
         3 024407   024330 605000 3                  TPL     s:6618

     3322     6628    3              CALL DECODE_PARAM_3X;  /* DECODING FINISHED FOR X9 */

   6628  3 024410   025672 701000 3                  TSX1    DECODE_PARAM_3X
         3 024411   000000 011000                    NOP     0

     3323     6629    3              RETURN;

   6629  3 024412   200526 221300                    LDX1  ! @BOARD,,AUTO
         3 024413   000001 702211                    TSX2  ! 1,X1

     3324     6630    3            END;
     3325     6631    2         ELSE RETURN;

   6631  3 024414   200526 221300                    LDX1  ! @BOARD,,AUTO
         3 024415   000001 702211                    TSX2  ! 1,X1

     3326     6632    2      IF OCTET_NUM >= PARAMETER_LENGTH -1 THEN

   6632  3 024416   200255 236100                    LDQ     PARAMETER_LENGTH,,AUTO
         3 024417   000034 772000                    QRL     28
         3 024420   000001 136007                    SBLQ    1,DL
         3 024421   200262 116100                    CMPQ    OCTET_NUM,,AUTO
         3 024422   024425 605400 3                  TPNZ    s:6634

     3327     6633    2         CALL DECODE_PARAM_3X;

   6633  3 024423   025672 701000 3                  TSX1    DECODE_PARAM_3X
         3 024424   000000 011000                    NOP     0
PL6.E3A0      #001=THF$RAW File=THF$FORMAT.:E05TSI                               WED 07/30/97 06:08 Page:618

     3328     6634    2      RETURN;

   6634  3 024425   200526 221300                    LDX1  ! @BOARD,,AUTO
         3 024426   000001 702211                    TSX2  ! 1,X1

     3329     6635    2   END DECODE_PARAM_X9;
     3330     6636        %EJECT;
PL6.E3A0      #001=THF$RAW File=THF$FORMAT.:E05TSI                               WED 07/30/97 06:08 Page:619
     3331     6637        /**/
     3332     6638        /* PROCEDURE TO DECODE INCOMPLETE STATUS CODE FOR  MDS DISCS */
     3333     6639        /**/
     3334     6640    1   DECODE_PARAM_XA: PROC;

   6640  3 024427   200526 741300       DECODE_PARA* STX1  ! @BOARD,,AUTO

     3335     6641        /**/
     3336     6642    2      MDS_TEXT = ' ';

   6642  3 024430   040100 100400                    MLR     fill='040'O
         3 024431   000035 000001 xsym               ADSC9   B_VECTNIL+29             cn=0,n=1
         3 024432   200315 000120                    ADSC9   MDS_TEXT,,AUTO           cn=0,n=80

     3337     6643    2      OCTET$ = MDS_PARAM_XA.SUB$(OCTET_NUM - 1);

   6643  3 024433   200262 720100                    LXL0    OCTET_NUM,,AUTO
         3 024434   777777 236010 xsym               LDQ     MDS_PARAM_XA-1,X0
         3 024435   200216 756100                    STQ     OCTET$,,AUTO

     3338     6644    2      IF (OCTET_NUM > 0 AND OCTET_NUM < 6) THEN

   6644  3 024436   200262 235100                    LDA     OCTET_NUM,,AUTO
         3 024437   024541 604400 3                  TMOZ    s:6655
         3 024440   000006 115007                    CMPA    6,DL
         3 024441   024541 605000 3                  TPL     s:6655

     3339     6645    3         DO;

     3340     6646    3           HEX_NUM = OCTET_NUM;

   6646  3 024442   200262 236100                    LDQ     OCTET_NUM,,AUTO
         3 024443   000034 736000                    QLS     28
         3 024444   200252 676100                    ERQ     HEX_NUM,,AUTO
         3 024445   776000 376003                    ANQ     -1024,DU
         3 024446   200252 656100                    ERSQ    HEX_NUM,,AUTO

PL6.E3A0      #001=THF$RAW File=THF$FORMAT.:E05TSI                               WED 07/30/97 06:08 Page:620
     3341     6647    3           CALL INSERT(MDS_TEXT, 17, 12, ' OCTET ',BINHEX(HEX_NIBBLE(0)),

   6647  3 024447   200252 236100                    LDQ     HEX_NUM,,AUTO
         3 024450   000040 772000                    QRL     32
         3 024451   200534 756100                    STQ     CHIP#+2,,AUTO
         3 024452   200252 236100                    LDQ     HEX_NUM,,AUTO
         3 024453   000034 772000                    QRL     28
         3 024454   000017 376007                    ANQ     15,DL
         3 024455   040100 100400                    MLR     fill='040'O
         3 024456   002404 000007 1                  ADSC9   BOARD_64K+837            cn=0,n=7
         3 024457   200321 200007                    ADSC9   MDS_TEXT+4,,AUTO         cn=1,n=7
         3 024460   200534 235100                    LDA     CHIP#+2,,AUTO
         3 024461   040100 100405                    MLR     fill='040'O
         3 024462   000122 000001 1                  ADSC9   BINHEX,A                 cn=0,n=1
         3 024463   200323 000001                    ADSC9   MDS_TEXT+6,,AUTO         cn=0,n=1
         3 024464   040100 100406                    MLR     fill='040'O
         3 024465   000122 000001 1                  ADSC9   BINHEX,Q                 cn=0,n=1
         3 024466   200323 200001                    ADSC9   MDS_TEXT+6,,AUTO         cn=1,n=1
         3 024467   040100 100400                    MLR     fill='040'O
         3 024470   002354 000003 1                  ADSC9   BOARD_64K+813            cn=0,n=3
         3 024471   200323 400003                    ADSC9   MDS_TEXT+6,,AUTO         cn=2,n=3

     3342     6648    3                       BINHEX(HEX_NIBBLE(1)), ' = ');
     3343     6649    3           CALL INSERT(MDS_TEXT, 28, 2, BINHEX(OCTET_NIBBLE(2 * OCTET_NUM)),

   6649  3 024472   200262 235100                    LDA     OCTET_NUM,,AUTO
         3 024473   000003 735000                    ALS     3
         3 024474   024476 605000 3                  TPL     s:6649+4
         3 024475   000044 035003                    ADLA    36,DU
         3 024476   003100 061505                    CSR     bolr='003'O
         3 024477   200241 000004                    BDSC    OCTET_BYTE,A,AUTO        by=0,bit=0,n=4
         3 024500   200534 000044                    BDSC    CHIP#+2,,AUTO            by=0,bit=0,n=36
         3 024501   200534 236100                    LDQ     CHIP#+2,,AUTO
         3 024502   200262 235100                    LDA     OCTET_NUM,,AUTO
         3 024503   000003 735000                    ALS     3
         3 024504   024506 605000 3                  TPL     s:6649+12
         3 024505   000044 035003                    ADLA    36,DU
PL6.E3A0      #001=THF$RAW File=THF$FORMAT.:E05TSI                               WED 07/30/97 06:08 Page:621
         3 024506   003100 061505                    CSR     bolr='003'O
         3 024507   200241 040004                    BDSC    OCTET_BYTE,A,AUTO        by=0,bit=4,n=4
         3 024510   200535 000044                    BDSC    CHIP#+3,,AUTO            by=0,bit=0,n=36
         3 024511   200536 756100                    STQ     CHIP#+4,,AUTO
         3 024512   200535 236100                    LDQ     CHIP#+3,,AUTO
         3 024513   200536 235100                    LDA     CHIP#+4,,AUTO
         3 024514   040100 100405                    MLR     fill='040'O
         3 024515   000122 000001 1                  ADSC9   BINHEX,A                 cn=0,n=1
         3 024516   200324 000001                    ADSC9   MDS_TEXT+7,,AUTO         cn=0,n=1
         3 024517   040100 100406                    MLR     fill='040'O
         3 024520   000122 000001 1                  ADSC9   BINHEX,Q                 cn=0,n=1
         3 024521   200324 200001                    ADSC9   MDS_TEXT+7,,AUTO         cn=1,n=1

     3344     6650    3                       BINHEX(OCTET_NIBBLE(2 * OCTET_NUM + 1)));
     3345     6651    3           XST_CNT = 30;

   6651  3 024522   000036 235007                    LDA     30,DL
         3 024523   200342 755100                    STA     XST_CNT,,AUTO

     3346     6652    3           CALL THF$ADD_TEXTC(XST$, MDS_TEXT, XST_CNT);

   6652  3 024524   200342 630500                    EPPR0   XST_CNT,,AUTO
         3 024525   200536 450500                    STP0    CHIP#+4,,AUTO
         3 024526   200315 631500                    EPPR1   MDS_TEXT,,AUTO
         3 024527   200535 451500                    STP1    CHIP#+3,,AUTO
         3 024530   200300 633500                    EPPR3   XST$,,AUTO
         3 024531   200534 453500                    STP3    CHIP#+2,,AUTO
         3 024532   200534 630500                    EPPR0   CHIP#+2,,AUTO
         3 024533   000021 631400 xsym               EPPR1   B_VECTNIL+17
         3 024534   000000 701000 xent               TSX1    THF$ADD_TEXTC
         3 024535   000000 011000                    NOP     0

     3347     6653    3           NXST = NXST + 1;

   6653  3 024536   200343 235100                    LDA     NXST,,AUTO
         3 024537   000001 035007                    ADLA    1,DL
         3 024540   200343 755100                    STA     NXST,,AUTO
PL6.E3A0      #001=THF$RAW File=THF$FORMAT.:E05TSI                               WED 07/30/97 06:08 Page:622

     3348     6654    3         END;

     3349     6655    2      IF (OCTET_NUM =1 OR OCTET_NUM = 3 OR OCTET_NUM = 5) THEN

   6655  3 024541   200262 235100                    LDA     OCTET_NUM,,AUTO
         3 024542   000001 115007                    CMPA    1,DL
         3 024543   024550 600000 3                  TZE     s:6657
         3 024544   000003 115007                    CMPA    3,DL
         3 024545   024550 600000 3                  TZE     s:6657
         3 024546   000005 115007                    CMPA    5,DL
         3 024547   024663 601000 3                  TNZ     s:6673

     3350     6656    3         DO;

     3351     6657    3           PARAM_INDX = 0;

   6657  3 024550   200253 450100                    STZ     PARAM_INDX,,AUTO

     3352     6658    4           DO X = (8 * DEVTBL.CODE(I)) TO (8 * DEVTBL.CODE(I) +7);

   6658  3 024551   200010 236100                    LDQ     I,,AUTO
         3 024552   000012 402007                    MPY     10,DL
         3 024553   200215 470500                    LDP0    DEV$,,AUTO
         3 024554   000000 236106                    LDQ     0,QL,PR0
         3 024555   000030 772000                    QRL     24
         3 024556   007770 376007                    ANQ     4088,DL
         3 024557   200011 756100                    STQ     X,,AUTO
         3 024560   024641 710000 3                  TRA     s:6668+1

     3353     6659    4              IF (IO_MASK1(X)) AND (PARAM_TBL.COUNT(PARAM_INDX) > 1)

   6659  3 024561   200011 235100                    LDA     X,,AUTO
         3 024562   024564 605000 3                  TPL     s:6659+3
         3 024563   000044 035003                    ADLA    36,DU
         3 024564   000000 066505                    CMPB    filb='0'B
         3 024565   200221 000001                    BDSC    IO_MASK,A,AUTO           by=0,bit=0,n=1
PL6.E3A0      #001=THF$RAW File=THF$FORMAT.:E05TSI                               WED 07/30/97 06:08 Page:623
         3 024566   000002 000022 xsym               BDSC    B_VECTNIL+2              by=0,bit=0,n=18
         3 024567   024637 600000 3                  TZE     s:6667
         3 024570   200253 236100                    LDQ     PARAM_INDX,,AUTO
         3 024571   000014 402007                    MPY     12,DL
         3 024572   200216 470500                    LDP0    OCTET$,,AUTO
         3 024573   000000 236106                    LDQ     0,QL,PR0
         3 024574   777000 376003                    ANQ     -512,DU
         3 024575   002000 116003                    CMPQ    1024,DU
         3 024576   024637 602000 3                  TNC     s:6667

     3354     6660    5                 THEN DO;

     3355     6661    5                   MDS_TEXT = ' ';

   6661  3 024577   040100 100400                    MLR     fill='040'O
         3 024600   000035 000001 xsym               ADSC9   B_VECTNIL+29             cn=0,n=1
         3 024601   200315 000120                    ADSC9   MDS_TEXT,,AUTO           cn=0,n=80

     3356     6662    5                   CALL INSERT(MDS_TEXT, 17, PARAM_TBL.COUNT(PARAM_INDX), PARAM_TBL.
              6662                            TEXT(PARAM_INDX));

   6662  3 024602   200253 236100                    LDQ     PARAM_INDX,,AUTO
         3 024603   000014 402007                    MPY     12,DL
         3 024604   000000 236106                    LDQ     0,QL,PR0
         3 024605   000033 772000                    QRL     27
         3 024606   000000 620006                    EAX0    0,QL
         3 024607   200253 236100                    LDQ     PARAM_INDX,,AUTO
         3 024610   000060 402007                    MPY     48,DL
         3 024611   040140 100506                    MLR     fill='040'O
         3 024612   000000 200054                    ADSC9   0,Q,PR0                  cn=1,n=44
         3 024613   200321 200010                    ADSC9   MDS_TEXT+4,,AUTO         cn=1,n=*X0

     3357     6663    5                   XST_CNT = PARAM_TBL.COUNT(PARAM_INDX) + 17;

   6663  3 024614   200253 236100                    LDQ     PARAM_INDX,,AUTO
         3 024615   000014 402007                    MPY     12,DL
         3 024616   000000 236106                    LDQ     0,QL,PR0
PL6.E3A0      #001=THF$RAW File=THF$FORMAT.:E05TSI                               WED 07/30/97 06:08 Page:624
         3 024617   000033 772000                    QRL     27
         3 024620   000021 036007                    ADLQ    17,DL
         3 024621   200342 756100                    STQ     XST_CNT,,AUTO

     3358     6664    5                   CALL THF$ADD_TEXTC(XST$, MDS_TEXT, XST_CNT);

   6664  3 024622   200342 631500                    EPPR1   XST_CNT,,AUTO
         3 024623   200536 451500                    STP1    CHIP#+4,,AUTO
         3 024624   200315 633500                    EPPR3   MDS_TEXT,,AUTO
         3 024625   200535 453500                    STP3    CHIP#+3,,AUTO
         3 024626   200300 634500                    EPPR4   XST$,,AUTO
         3 024627   200534 454500                    STP4    CHIP#+2,,AUTO
         3 024630   200534 630500                    EPPR0   CHIP#+2,,AUTO
         3 024631   000021 631400 xsym               EPPR1   B_VECTNIL+17
         3 024632   000000 701000 xent               TSX1    THF$ADD_TEXTC
         3 024633   000000 011000                    NOP     0

     3359     6665    5                   NXST = NXST + 1;

   6665  3 024634   200343 235100                    LDA     NXST,,AUTO
         3 024635   000001 035007                    ADLA    1,DL
         3 024636   200343 755100                    STA     NXST,,AUTO

     3360     6666    5                 END;

     3361     6667    4           PARAM_INDX = PARAM_INDX + 1;

   6667  3 024637   200253 054100                    AOS     PARAM_INDX,,AUTO

     3362     6668    4           END;  /* DO X */

   6668  3 024640   200011 054100                    AOS     X,,AUTO
         3 024641   200010 236100                    LDQ     I,,AUTO
         3 024642   000012 402007                    MPY     10,DL
         3 024643   200215 470500                    LDP0    DEV$,,AUTO
         3 024644   000000 236106                    LDQ     0,QL,PR0
         3 024645   000030 772000                    QRL     24
PL6.E3A0      #001=THF$RAW File=THF$FORMAT.:E05TSI                               WED 07/30/97 06:08 Page:625
         3 024646   007770 376007                    ANQ     4088,DL
         3 024647   000007 036007                    ADLQ    7,DL
         3 024650   200011 116100                    CMPQ    X,,AUTO
         3 024651   024561 605000 3                  TPL     s:6659

     3363     6669    3           IF OCTET_NUM >= PARAMETER_LENGTH -1

   6669  3 024652   200255 236100                    LDQ     PARAMETER_LENGTH,,AUTO
         3 024653   000034 772000                    QRL     28
         3 024654   000001 136007                    SBLQ    1,DL
         3 024655   200262 116100                    CMPQ    OCTET_NUM,,AUTO
         3 024656   024661 605400 3                  TPNZ    s:6671

     3364     6670    3              THEN PARAMETER_ID = 0;

   6670  3 024657   000452 236000 4                  LDQ     298
         3 024660   200254 356100                    ANSQ    PARAMETER_ID,,AUTO

     3365     6671    3           RETURN;

   6671  3 024661   200526 221300                    LDX1  ! @BOARD,,AUTO
         3 024662   000001 702211                    TSX2  ! 1,X1

     3366     6672    3         END;
     3367     6673    2      IF OCTET_NUM = 6 THEN

   6673  3 024663   000006 115007                    CMPA    6,DL
         3 024664   025035 601000 3                  TNZ     s:6695

     3368     6674    3         DO;

     3369     6675    3           HEX_NUM = PARAMETER_LENGTH - 1;

   6675  3 024665   200255 236100                    LDQ     PARAMETER_LENGTH,,AUTO
         3 024666   000034 772000                    QRL     28
         3 024667   000001 136007                    SBLQ    1,DL
         3 024670   000034 736000                    QLS     28
PL6.E3A0      #001=THF$RAW File=THF$FORMAT.:E05TSI                               WED 07/30/97 06:08 Page:626
         3 024671   200252 676100                    ERQ     HEX_NUM,,AUTO
         3 024672   776000 376003                    ANQ     -1024,DU
         3 024673   200252 656100                    ERSQ    HEX_NUM,,AUTO

     3370     6676    3           CALL INSERT(MDS_TEXT, 17, 36, ' OCTET 06 TO ',BINHEX(HEX_NIBBLE(0)),

   6676  3 024674   200252 236100                    LDQ     HEX_NUM,,AUTO
         3 024675   000040 772000                    QRL     32
         3 024676   200534 756100                    STQ     CHIP#+2,,AUTO
         3 024677   200252 236100                    LDQ     HEX_NUM,,AUTO
         3 024700   000034 772000                    QRL     28
         3 024701   000017 376007                    ANQ     15,DL
         3 024702   040100 100400                    MLR     fill='040'O
         3 024703   002406 000015 1                  ADSC9   BOARD_64K+839            cn=0,n=13
         3 024704   200321 200015                    ADSC9   MDS_TEXT+4,,AUTO         cn=1,n=13
         3 024705   200534 235100                    LDA     CHIP#+2,,AUTO
         3 024706   040100 100405                    MLR     fill='040'O
         3 024707   000122 000001 1                  ADSC9   BINHEX,A                 cn=0,n=1
         3 024710   200324 400001                    ADSC9   MDS_TEXT+7,,AUTO         cn=2,n=1
         3 024711   040100 100406                    MLR     fill='040'O
         3 024712   000122 000001 1                  ADSC9   BINHEX,Q                 cn=0,n=1
         3 024713   200324 600001                    ADSC9   MDS_TEXT+7,,AUTO         cn=3,n=1
         3 024714   040100 100400                    MLR     fill='040'O
         3 024715   002412 000025 1                  ADSC9   BOARD_64K+843            cn=0,n=21
         3 024716   200325 000025                    ADSC9   MDS_TEXT+8,,AUTO         cn=0,n=21

     3371     6677    3                       BINHEX(HEX_NIBBLE(1)),' - EXTENDED SUBSTATUS');
     3372     6678    3           XST_CNT = 53;

   6678  3 024717   000065 235007                    LDA     53,DL
         3 024720   200342 755100                    STA     XST_CNT,,AUTO

     3373     6679    3           CALL THF$ADD_TEXTC(XST$, MDS_TEXT, XST_CNT);

   6679  3 024721   200342 630500                    EPPR0   XST_CNT,,AUTO
         3 024722   200536 450500                    STP0    CHIP#+4,,AUTO
         3 024723   200315 631500                    EPPR1   MDS_TEXT,,AUTO
PL6.E3A0      #001=THF$RAW File=THF$FORMAT.:E05TSI                               WED 07/30/97 06:08 Page:627
         3 024724   200535 451500                    STP1    CHIP#+3,,AUTO
         3 024725   200300 633500                    EPPR3   XST$,,AUTO
         3 024726   200534 453500                    STP3    CHIP#+2,,AUTO
         3 024727   200534 630500                    EPPR0   CHIP#+2,,AUTO
         3 024730   000021 631400 xsym               EPPR1   B_VECTNIL+17
         3 024731   000000 701000 xent               TSX1    THF$ADD_TEXTC
         3 024732   000000 011000                    NOP     0

     3374     6680    3           NXST = NXST + 1;

   6680  3 024733   200343 235100                    LDA     NXST,,AUTO
         3 024734   000001 035007                    ADLA    1,DL
         3 024735   200343 755100                    STA     NXST,,AUTO

     3375     6681    3           MDS_TEXT = ' ';

   6681  3 024736   040100 100400                    MLR     fill='040'O
         3 024737   000035 000001 xsym               ADSC9   B_VECTNIL+29             cn=0,n=1
         3 024740   200315 000120                    ADSC9   MDS_TEXT,,AUTO           cn=0,n=80

     3376     6682    3           CALL INSERT(MDS_TEXT,19,1,'=');

   6682  3 024741   000075 236007                    LDQ     61,DL
         3 024742   200321 552104                    STBQ    MDS_TEXT+4,'04'O,AUTO

     3377     6683    3           MDS_TEXT_POSITION = 21;

   6683  3 024743   000025 235007                    LDA     21,DL
         3 024744   200341 755100                    STA     MDS_TEXT_POSITION,,AUTO

     3378     6684    4           DO X = 6 TO PARAMETER_LENGTH - 1;

   6684  3 024745   000006 235007                    LDA     6,DL
         3 024746   200011 755100                    STA     X,,AUTO
         3 024747   025006 710000 3                  TRA     s:6688+1

     3379     6685    4              CALL INSERT(MDS_TEXT, MDS_TEXT_POSITION, 2, BINHEX(OCTET_NIBBLE(2 * X)),
PL6.E3A0      #001=THF$RAW File=THF$FORMAT.:E05TSI                               WED 07/30/97 06:08 Page:628

   6685  3 024750   200011 235100                    LDA     X,,AUTO
         3 024751   000003 735000                    ALS     3
         3 024752   024754 605000 3                  TPL     s:6685+4
         3 024753   000044 035003                    ADLA    36,DU
         3 024754   003100 061505                    CSR     bolr='003'O
         3 024755   200241 000004                    BDSC    OCTET_BYTE,A,AUTO        by=0,bit=0,n=4
         3 024756   200534 000044                    BDSC    CHIP#+2,,AUTO            by=0,bit=0,n=36
         3 024757   200534 236100                    LDQ     CHIP#+2,,AUTO
         3 024760   200011 235100                    LDA     X,,AUTO
         3 024761   000003 735000                    ALS     3
         3 024762   024764 605000 3                  TPL     s:6685+12
         3 024763   000044 035003                    ADLA    36,DU
         3 024764   003100 061505                    CSR     bolr='003'O
         3 024765   200241 040004                    BDSC    OCTET_BYTE,A,AUTO        by=0,bit=4,n=4
         3 024766   200535 000044                    BDSC    CHIP#+3,,AUTO            by=0,bit=0,n=36
         3 024767   200536 756100                    STQ     CHIP#+4,,AUTO
         3 024770   200535 236100                    LDQ     CHIP#+3,,AUTO
         3 024771   200536 235100                    LDA     CHIP#+4,,AUTO
         3 024772   200537 756100                    STQ     CHIP#+5,,AUTO
         3 024773   200341 236100                    LDQ     MDS_TEXT_POSITION,,AUTO
         3 024774   040106 100405                    MLR     fill='040'O
         3 024775   000122 000001 1                  ADSC9   BINHEX,A                 cn=0,n=1
         3 024776   200315 000001                    ADSC9   MDS_TEXT,Q,AUTO          cn=0,n=1
         3 024777   200537 235100                    LDA     CHIP#+5,,AUTO
         3 025000   040106 100405                    MLR     fill='040'O
         3 025001   000122 000001 1                  ADSC9   BINHEX,A                 cn=0,n=1
         3 025002   200315 200001                    ADSC9   MDS_TEXT,Q,AUTO          cn=1,n=1

     3380     6686    4                          BINHEX(OCTET_NIBBLE(2 * X + 1)));
     3381     6687    4              MDS_TEXT_POSITION = MDS_TEXT_POSITION + 3;

   6687  3 025003   000003 236007                    LDQ     3,DL
         3 025004   200341 056100                    ASQ     MDS_TEXT_POSITION,,AUTO

     3382     6688    4           END;

PL6.E3A0      #001=THF$RAW File=THF$FORMAT.:E05TSI                               WED 07/30/97 06:08 Page:629
   6688  3 025005   200011 054100                    AOS     X,,AUTO
         3 025006   200255 236100                    LDQ     PARAMETER_LENGTH,,AUTO
         3 025007   000034 772000                    QRL     28
         3 025010   200011 116100                    CMPQ    X,,AUTO
         3 025011   024750 605400 3                  TPNZ    s:6685

     3383     6689    3           XST_CNT = MDS_TEXT_POSITION;

   6689  3 025012   200341 235100                    LDA     MDS_TEXT_POSITION,,AUTO
         3 025013   200342 755100                    STA     XST_CNT,,AUTO

     3384     6690    3           CALL THF$ADD_TEXTC(XST$, MDS_TEXT, XST_CNT);

   6690  3 025014   200342 630500                    EPPR0   XST_CNT,,AUTO
         3 025015   200536 450500                    STP0    CHIP#+4,,AUTO
         3 025016   200315 631500                    EPPR1   MDS_TEXT,,AUTO
         3 025017   200535 451500                    STP1    CHIP#+3,,AUTO
         3 025020   200300 633500                    EPPR3   XST$,,AUTO
         3 025021   200534 453500                    STP3    CHIP#+2,,AUTO
         3 025022   200534 630500                    EPPR0   CHIP#+2,,AUTO
         3 025023   000021 631400 xsym               EPPR1   B_VECTNIL+17
         3 025024   000000 701000 xent               TSX1    THF$ADD_TEXTC
         3 025025   000000 011000                    NOP     0

     3385     6691    3           NXST = NXST + 1;

   6691  3 025026   200343 235100                    LDA     NXST,,AUTO
         3 025027   000001 035007                    ADLA    1,DL
         3 025030   200343 755100                    STA     NXST,,AUTO

     3386     6692    3           PARAMETER_ID = 0;                  /* DECODING DONE FOR X8 */

   6692  3 025031   000452 236000 4                  LDQ     298
         3 025032   200254 356100                    ANSQ    PARAMETER_ID,,AUTO

     3387     6693    3           RETURN;

PL6.E3A0      #001=THF$RAW File=THF$FORMAT.:E05TSI                               WED 07/30/97 06:08 Page:630
   6693  3 025033   200526 221300                    LDX1  ! @BOARD,,AUTO
         3 025034   000001 702211                    TSX2  ! 1,X1

     3388     6694    3         END;
     3389     6695    2      IF OCTET_NUM >= PARAMETER_LENGTH -1 THEN

   6695  3 025035   200255 236100                    LDQ     PARAMETER_LENGTH,,AUTO
         3 025036   000034 772000                    QRL     28
         3 025037   000001 136007                    SBLQ    1,DL
         3 025040   200262 116100                    CMPQ    OCTET_NUM,,AUTO
         3 025041   025044 605400 3                  TPNZ    s:6697

     3390     6696    2         PARAMETER_ID = 0;

   6696  3 025042   000452 236000 4                  LDQ     298
         3 025043   200254 356100                    ANSQ    PARAMETER_ID,,AUTO

     3391     6697    2      RETURN;

   6697  3 025044   200526 221300                    LDX1  ! @BOARD,,AUTO
         3 025045   000001 702211                    TSX2  ! 1,X1

     3392     6698    2   END DECODE_PARAM_XA;
     3393     6699        %EJECT;
PL6.E3A0      #001=THF$RAW File=THF$FORMAT.:E05TSI                               WED 07/30/97 06:08 Page:631
     3394     6700        /**/
     3395     6701        /* PROCEDURE TO DECODE DRIVE ENDING STATUS CODE FOR  MDS DISCS */
     3396     6702        /**/
     3397     6703    1   DECODE_DRIVE_STAT: PROC;

   6703  3 025046   200530 741300       DECODE_DRIV* STX1  ! BIT#,,AUTO

     3398     6704        /**/
     3399     6705    2           PARAM_INDX = 0;

   6705  3 025047   200253 450100                    STZ     PARAM_INDX,,AUTO

     3400     6706    3           DO X = (8 * DEVTBL.CODE(I)) TO (8 * DEVTBL.CODE(I) + 3);

   6706  3 025050   200010 236100                    LDQ     I,,AUTO
         3 025051   000012 402007                    MPY     10,DL
         3 025052   200215 470500                    LDP0    DEV$,,AUTO
         3 025053   000000 236106                    LDQ     0,QL,PR0
         3 025054   000030 772000                    QRL     24
         3 025055   007770 376007                    ANQ     4088,DL
         3 025056   200011 756100                    STQ     X,,AUTO
         3 025057   025131 710000 3                  TRA     s:6717+1

     3401     6707    3              IF IO_MASK1(X) THEN

   6707  3 025060   200011 235100                    LDA     X,,AUTO
         3 025061   025063 605000 3                  TPL     s:6707+3
         3 025062   000044 035003                    ADLA    36,DU
         3 025063   000000 066505                    CMPB    filb='0'B
         3 025064   200221 000001                    BDSC    IO_MASK,A,AUTO           by=0,bit=0,n=1
         3 025065   000002 000022 xsym               BDSC    B_VECTNIL+2              by=0,bit=0,n=18
         3 025066   025127 600000 3                  TZE     s:6716

     3402     6708    4                 DO;              /* DECODE DRIVE ENDING STATUS */

     3403     6709    4                   MDS_TEXT = ' ';

PL6.E3A0      #001=THF$RAW File=THF$FORMAT.:E05TSI                               WED 07/30/97 06:08 Page:632
   6709  3 025067   040100 100400                    MLR     fill='040'O
         3 025070   000035 000001 xsym               ADSC9   B_VECTNIL+29             cn=0,n=1
         3 025071   200315 000120                    ADSC9   MDS_TEXT,,AUTO           cn=0,n=80

     3404     6710    4                   CALL INSERT(MDS_TEXT,17,MDS_DRIVE_ENDING_STATUS.COUNT(PARAM_INDX),

   6710  3 025072   200253 236100                    LDQ     PARAM_INDX,,AUTO
         3 025073   000014 402007                    MPY     12,DL
         3 025074   000000 236006 xsym               LDQ     MDS_DRIVE_ENDING_STATUS,QL
         3 025075   000033 772000                    QRL     27
         3 025076   000000 620006                    EAX0    0,QL
         3 025077   200253 236100                    LDQ     PARAM_INDX,,AUTO
         3 025100   000060 402007                    MPY     48,DL
         3 025101   040140 100406                    MLR     fill='040'O
         3 025102   000000 200054 xsym               ADSC9   MDS_DRIVE_ENDING_STATUS,Q cn=1,n=44
         3 025103   200321 200010                    ADSC9   MDS_TEXT+4,,AUTO         cn=1,n=*X0

     3405     6711    4                               MDS_DRIVE_ENDING_STATUS.TEXT(PARAM_INDX));
     3406     6712    4                   XST_CNT = MDS_DRIVE_ENDING_STATUS.COUNT(PARAM_INDX) + 17;

   6712  3 025104   200253 236100                    LDQ     PARAM_INDX,,AUTO
         3 025105   000014 402007                    MPY     12,DL
         3 025106   000000 236006 xsym               LDQ     MDS_DRIVE_ENDING_STATUS,QL
         3 025107   000033 772000                    QRL     27
         3 025110   000021 036007                    ADLQ    17,DL
         3 025111   200342 756100                    STQ     XST_CNT,,AUTO

     3407     6713    4                   CALL THF$ADD_TEXTC(XST$, MDS_TEXT, XST_CNT);

   6713  3 025112   200342 630500                    EPPR0   XST_CNT,,AUTO
         3 025113   200536 450500                    STP0    CHIP#+4,,AUTO
         3 025114   200315 631500                    EPPR1   MDS_TEXT,,AUTO
         3 025115   200535 451500                    STP1    CHIP#+3,,AUTO
         3 025116   200300 633500                    EPPR3   XST$,,AUTO
         3 025117   200534 453500                    STP3    CHIP#+2,,AUTO
         3 025120   200534 630500                    EPPR0   CHIP#+2,,AUTO
         3 025121   000021 631400 xsym               EPPR1   B_VECTNIL+17
PL6.E3A0      #001=THF$RAW File=THF$FORMAT.:E05TSI                               WED 07/30/97 06:08 Page:633
         3 025122   000000 701000 xent               TSX1    THF$ADD_TEXTC
         3 025123   000000 011000                    NOP     0

     3408     6714    4                   NXST = NXST + 1;

   6714  3 025124   200343 235100                    LDA     NXST,,AUTO
         3 025125   000001 035007                    ADLA    1,DL
         3 025126   200343 755100                    STA     NXST,,AUTO

     3409     6715    4                 END;

     3410     6716    3              PARAM_INDX = PARAM_INDX + 1;

   6716  3 025127   200253 054100                    AOS     PARAM_INDX,,AUTO

     3411     6717    3           END;  /* DO X */

   6717  3 025130   200011 054100                    AOS     X,,AUTO
         3 025131   200010 236100                    LDQ     I,,AUTO
         3 025132   000012 402007                    MPY     10,DL
         3 025133   200215 470500                    LDP0    DEV$,,AUTO
         3 025134   000000 236106                    LDQ     0,QL,PR0
         3 025135   000030 772000                    QRL     24
         3 025136   007770 376007                    ANQ     4088,DL
         3 025137   000003 036007                    ADLQ    3,DL
         3 025140   200011 116100                    CMPQ    X,,AUTO
         3 025141   025060 605000 3                  TPL     s:6707

     3412     6718    2           MDS_TEXT = ' ';

   6718  3 025142   040100 100400                    MLR     fill='040'O
         3 025143   000035 000001 xsym               ADSC9   B_VECTNIL+29             cn=0,n=1
         3 025144   200315 000120                    ADSC9   MDS_TEXT,,AUTO           cn=0,n=80

     3413     6719    3           DO CASE(MDS_DRIVE_STATUS.OP_END_STATUS);  /* DECODE OP ENDING STATUS */

   6719  3 025145   200256 236100                    LDQ     MDS_STATUS_REG1,,AUTO
PL6.E3A0      #001=THF$RAW File=THF$FORMAT.:E05TSI                               WED 07/30/97 06:08 Page:634
         3 025146   000034 772000                    QRL     28
         3 025147   000017 376007                    ANQ     15,DL
         3 025150   000015 116007                    CMPQ    13,DL
         3 025151   025153 602006 3                  TNC     s:6719+6,QL
         3 025152   025247 710000 3                  TRA     s:6745
         3 025153   025170 710000 3                  TRA     s:6721
         3 025154   025176 710000 3                  TRA     s:6724
         3 025155   025247 710000 3                  TRA     s:6745
         3 025156   025247 710000 3                  TRA     s:6745
         3 025157   025204 710000 3                  TRA     s:6727
         3 025160   025212 710000 3                  TRA     s:6730
         3 025161   025220 710000 3                  TRA     s:6733
         3 025162   025226 710000 3                  TRA     s:6736
         3 025163   025234 710000 3                  TRA     s:6739
         3 025164   025247 710000 3                  TRA     s:6745
         3 025165   025247 710000 3                  TRA     s:6745
         3 025166   025247 710000 3                  TRA     s:6745
         3 025167   025242 710000 3                  TRA     s:6742

     3414     6720    3              CASE(%BUS_CNTL_EXECUTED);

     3415     6721    3                CALL INSERT(MDS_TEXT,17,24,' -- BUS CONTROL EXECUTED');

   6721  3 025170   040100 100400                    MLR     fill='040'O
         3 025171   002420 000030 1                  ADSC9   BOARD_64K+849            cn=0,n=24
         3 025172   200321 200030                    ADSC9   MDS_TEXT+4,,AUTO         cn=1,n=24

     3416     6722    3                XST_CNT = 41;

   6722  3 025173   000051 235007                    LDA     41,DL
         3 025174   200342 755100                    STA     XST_CNT,,AUTO
         3 025175   025247 710000 3                  TRA     s:6745

     3417     6723    3              CASE(%BUS_CNTL_REJECT);

     3418     6724    3                CALL INSERT(MDS_TEXT,17,29,' -- BUSY - BUS CONTROL REJECT');

PL6.E3A0      #001=THF$RAW File=THF$FORMAT.:E05TSI                               WED 07/30/97 06:08 Page:635
   6724  3 025176   040100 100400                    MLR     fill='040'O
         3 025177   002426 000035 1                  ADSC9   BOARD_64K+855            cn=0,n=29
         3 025200   200321 200035                    ADSC9   MDS_TEXT+4,,AUTO         cn=1,n=29

     3419     6725    3                XST_CNT = 46;

   6725  3 025201   000056 235007                    LDA     46,DL
         3 025202   200342 755100                    STA     XST_CNT,,AUTO
         3 025203   025247 710000 3                  TRA     s:6745

     3420     6726    3              CASE(%MISSING_AM);

     3421     6727    3                CALL INSERT(MDS_TEXT,17,24,' -- MISSING ADDRESS MARK');

   6727  3 025204   040100 100400                    MLR     fill='040'O
         3 025205   002436 000030 1                  ADSC9   BOARD_64K+863            cn=0,n=24
         3 025206   200321 200030                    ADSC9   MDS_TEXT+4,,AUTO         cn=1,n=24

     3422     6728    3                XST_CNT = 41;

   6728  3 025207   000051 235007                    LDA     41,DL
         3 025210   200342 755100                    STA     XST_CNT,,AUTO
         3 025211   025247 710000 3                  TRA     s:6745

     3423     6729    3              CASE(%MISSING_SYNC_BYTE);

     3424     6730    3                CALL INSERT(MDS_TEXT,17,21,' -- MISSING SYNC BYTE');

   6730  3 025212   040100 100400                    MLR     fill='040'O
         3 025213   002444 000025 1                  ADSC9   BOARD_64K+869            cn=0,n=21
         3 025214   200321 200025                    ADSC9   MDS_TEXT+4,,AUTO         cn=1,n=21

     3425     6731    3                XST_CNT = 38;

   6731  3 025215   000046 235007                    LDA     38,DL
         3 025216   200342 755100                    STA     XST_CNT,,AUTO
         3 025217   025247 710000 3                  TRA     s:6745
PL6.E3A0      #001=THF$RAW File=THF$FORMAT.:E05TSI                               WED 07/30/97 06:08 Page:636

     3426     6732    3              CASE(%ECC_ERROR);

     3427     6733    3                CALL INSERT(MDS_TEXT,17,13,' -- ECC ERROR');

   6733  3 025220   040100 100400                    MLR     fill='040'O
         3 025221   002452 000015 1                  ADSC9   BOARD_64K+875            cn=0,n=13
         3 025222   200321 200015                    ADSC9   MDS_TEXT+4,,AUTO         cn=1,n=13

     3428     6734    3                XST_CNT = 30;

   6734  3 025223   000036 235007                    LDA     30,DL
         3 025224   200342 755100                    STA     XST_CNT,,AUTO
         3 025225   025247 710000 3                  TRA     s:6745

     3429     6735    3              CASE(%HDR_VERIFY_ERR);

     3430     6736    3                CALL INSERT(MDS_TEXT,17,23,' -- HEADER VERIFY ERROR');

   6736  3 025226   040100 100400                    MLR     fill='040'O
         3 025227   002456 000027 1                  ADSC9   BOARD_64K+879            cn=0,n=23
         3 025230   200321 200027                    ADSC9   MDS_TEXT+4,,AUTO         cn=1,n=23

     3431     6737    3                XST_CNT = 40;

   6737  3 025231   000050 235007                    LDA     40,DL
         3 025232   200342 755100                    STA     XST_CNT,,AUTO
         3 025233   025247 710000 3                  TRA     s:6745

     3432     6738    3              CASE(%OPERATION_EXCEPTION);

     3433     6739    3                CALL INSERT(MDS_TEXT,17,23,' -- OPERATION EXCEPTION');

   6739  3 025234   040100 100400                    MLR     fill='040'O
         3 025235   002464 000027 1                  ADSC9   BOARD_64K+885            cn=0,n=23
         3 025236   200321 200027                    ADSC9   MDS_TEXT+4,,AUTO         cn=1,n=23

PL6.E3A0      #001=THF$RAW File=THF$FORMAT.:E05TSI                               WED 07/30/97 06:08 Page:637
     3434     6740    3                XST_CNT = 40;

   6740  3 025237   000050 235007                    LDA     40,DL
         3 025240   200342 755100                    STA     XST_CNT,,AUTO
         3 025241   025247 710000 3                  TRA     s:6745

     3435     6741    3              CASE(%UNSOLICIT_EXCEPTION);

     3436     6742    3                CALL INSERT(MDS_TEXT,17,25,' -- UNSOLICITED EXCEPTION');

   6742  3 025242   040100 100400                    MLR     fill='040'O
         3 025243   002472 000031 1                  ADSC9   BOARD_64K+891            cn=0,n=25
         3 025244   200321 200031                    ADSC9   MDS_TEXT+4,,AUTO         cn=1,n=25

     3437     6743    3                XST_CNT = 42;

   6743  3 025245   000052 235007                    LDA     42,DL
         3 025246   200342 755100                    STA     XST_CNT,,AUTO

     3438     6744    3           END;  /* DO CASE */

     3439     6745    2           CALL THF$ADD_TEXTC(XST$, MDS_TEXT, XST_CNT);

   6745  3 025247   200342 631500                    EPPR1   XST_CNT,,AUTO
         3 025250   200536 451500                    STP1    CHIP#+4,,AUTO
         3 025251   200315 633500                    EPPR3   MDS_TEXT,,AUTO
         3 025252   200535 453500                    STP3    CHIP#+3,,AUTO
         3 025253   200300 634500                    EPPR4   XST$,,AUTO
         3 025254   200534 454500                    STP4    CHIP#+2,,AUTO
         3 025255   200534 630500                    EPPR0   CHIP#+2,,AUTO
         3 025256   000021 631400 xsym               EPPR1   B_VECTNIL+17
         3 025257   000000 701000 xent               TSX1    THF$ADD_TEXTC
         3 025260   000000 011000                    NOP     0

     3440     6746    2           NXST = NXST + 1;

   6746  3 025261   200343 235100                    LDA     NXST,,AUTO
PL6.E3A0      #001=THF$RAW File=THF$FORMAT.:E05TSI                               WED 07/30/97 06:08 Page:638
         3 025262   000001 035007                    ADLA    1,DL
         3 025263   200343 755100                    STA     NXST,,AUTO

     3441     6747    2           RETURN;

   6747  3 025264   200530 221300                    LDX1  ! BIT#,,AUTO
         3 025265   000001 702211                    TSX2  ! 1,X1

     3442     6748    2   END DECODE_DRIVE_STAT;
     3443     6749        %EJECT;
PL6.E3A0      #001=THF$RAW File=THF$FORMAT.:E05TSI                               WED 07/30/97 06:08 Page:639
     3444     6750        /**/
     3445     6751        /* PROCEDURE TO DECODE COMMAND ENDING STATUS (BYTE 2) FOR PARAM_X6 AND PARAM_X9 */
     3446     6752        /**/
     3447     6753    1   DECODE_CMD_STAT: PROC;

   6753  3 025266   200530 741300       DECODE_CMD_* STX1  ! BIT#,,AUTO

     3448     6754        /**/
     3449     6755    2      MDS_TEXT = ' ';

   6755  3 025267   040100 100400                    MLR     fill='040'O
         3 025270   000035 000001 xsym               ADSC9   B_VECTNIL+29             cn=0,n=1
         3 025271   200315 000120                    ADSC9   MDS_TEXT,,AUTO           cn=0,n=80

     3450     6756    2      CALL INSERT(MDS_TEXT, 19, 51, 'ERROR LOCATION:',

   6756  3 025272   200257 236100                    LDQ     MDS_STATUS_REG2,,AUTO
         3 025273   000032 772000                    QRL     26
         3 025274   000003 376007                    ANQ     3,DL
         3 025275   000011 402007                    MPY     9,DL
         3 025276   040100 100400                    MLR     fill='040'O
         3 025277   002501 000017 1                  ADSC9   BOARD_64K+898            cn=0,n=15
         3 025300   200321 600017                    ADSC9   MDS_TEXT+4,,AUTO         cn=3,n=15
         3 025301   000002 736000                    QLS     2
         3 025302   040100 100406                    MLR     fill='040'O
         3 025303   000000 000044 xsym               ADSC9   MDS_ERROR_LOC,Q          cn=0,n=36
         3 025304   200325 400044                    ADSC9   MDS_TEXT+8,,AUTO         cn=2,n=36

     3451     6757    2                  MDS_ERROR_LOC.TEXT(MDS_CMD_ENDING_STAT.ERROR_LOC));
     3452     6758    2      XST_CNT = 70;

   6758  3 025305   000106 235007                    LDA     70,DL
         3 025306   200342 755100                    STA     XST_CNT,,AUTO

     3453     6759    2      CALL THF$ADD_TEXTC(XST$, MDS_TEXT, XST_CNT);

   6759  3 025307   200342 630500                    EPPR0   XST_CNT,,AUTO
PL6.E3A0      #001=THF$RAW File=THF$FORMAT.:E05TSI                               WED 07/30/97 06:08 Page:640
         3 025310   200536 450500                    STP0    CHIP#+4,,AUTO
         3 025311   200315 631500                    EPPR1   MDS_TEXT,,AUTO
         3 025312   200535 451500                    STP1    CHIP#+3,,AUTO
         3 025313   200300 633500                    EPPR3   XST$,,AUTO
         3 025314   200534 453500                    STP3    CHIP#+2,,AUTO
         3 025315   200534 630500                    EPPR0   CHIP#+2,,AUTO
         3 025316   000021 631400 xsym               EPPR1   B_VECTNIL+17
         3 025317   000000 701000 xent               TSX1    THF$ADD_TEXTC
         3 025320   000000 011000                    NOP     0

     3454     6760    2      NXST = NXST + 1;

   6760  3 025321   200343 235100                    LDA     NXST,,AUTO
         3 025322   000001 035007                    ADLA    1,DL
         3 025323   200343 755100                    STA     NXST,,AUTO

     3455     6761    2      MDS_TEXT = ' ';

   6761  3 025324   040100 100400                    MLR     fill='040'O
         3 025325   000035 000001 xsym               ADSC9   B_VECTNIL+29             cn=0,n=1
         3 025326   200315 000120                    ADSC9   MDS_TEXT,,AUTO           cn=0,n=80

     3456     6762    2      CALL INSERT(MDS_TEXT, 19, 17, 'ERROR CATAGORY:  ');

   6762  3 025327   040100 100400                    MLR     fill='040'O
         3 025330   002505 000021 1                  ADSC9   BOARD_64K+902            cn=0,n=17
         3 025331   200321 600021                    ADSC9   MDS_TEXT+4,,AUTO         cn=3,n=17

     3457     6763    3      DO CASE(MDS_CMD_ENDING_STAT.ERROR_CAT);

   6763  3 025332   200257 236100                    LDQ     MDS_STATUS_REG2,,AUTO
         3 025333   000030 772000                    QRL     24
         3 025334   000003 376007                    ANQ     3,DL
         3 025335   000004 116007                    CMPQ    4,DL
         3 025336   025340 602006 3                  TNC     s:6763+6,QL
         3 025337   025670 710000 3                  TRA     s:6815
         3 025340   025344 710000 3                  TRA     s:6765
PL6.E3A0      #001=THF$RAW File=THF$FORMAT.:E05TSI                               WED 07/30/97 06:08 Page:641
         3 025341   025424 710000 3                  TRA     s:6776
         3 025342   025504 710000 3                  TRA     s:6787
         3 025343   025576 710000 3                  TRA     s:6801

     3458     6764    3         CASE(%TIMEOUT_ERR);

     3459     6765    3              CALL INSERT(MDS_TEXT, 36, 13, 'TIMEOUT ERROR');

   6765  3 025344   040100 100400                    MLR     fill='040'O
         3 025345   002512 000015 1                  ADSC9   BOARD_64K+907            cn=0,n=13
         3 025346   200326 000015                    ADSC9   MDS_TEXT+9,,AUTO         cn=0,n=13

     3460     6766    3              XST_CNT = 47;

   6766  3 025347   000057 235007                    LDA     47,DL
         3 025350   200342 755100                    STA     XST_CNT,,AUTO

     3461     6767    3              CALL THF$ADD_TEXTC(XST$, MDS_TEXT, XST_CNT);

   6767  3 025351   200342 630500                    EPPR0   XST_CNT,,AUTO
         3 025352   200536 450500                    STP0    CHIP#+4,,AUTO
         3 025353   200315 631500                    EPPR1   MDS_TEXT,,AUTO
         3 025354   200535 451500                    STP1    CHIP#+3,,AUTO
         3 025355   200300 633500                    EPPR3   XST$,,AUTO
         3 025356   200534 453500                    STP3    CHIP#+2,,AUTO
         3 025357   200534 630500                    EPPR0   CHIP#+2,,AUTO
         3 025360   000021 631400 xsym               EPPR1   B_VECTNIL+17
         3 025361   000000 701000 xent               TSX1    THF$ADD_TEXTC
         3 025362   000000 011000                    NOP     0

     3462     6768    3              NXST = NXST + 1;

   6768  3 025363   200343 235100                    LDA     NXST,,AUTO
         3 025364   000001 035007                    ADLA    1,DL
         3 025365   200343 755100                    STA     NXST,,AUTO

     3463     6769    3              MDS_TEXT = ' ';
PL6.E3A0      #001=THF$RAW File=THF$FORMAT.:E05TSI                               WED 07/30/97 06:08 Page:642

   6769  3 025366   040100 100400                    MLR     fill='040'O
         3 025367   000035 000001 xsym               ADSC9   B_VECTNIL+29             cn=0,n=1
         3 025370   200315 000120                    ADSC9   MDS_TEXT,,AUTO           cn=0,n=80

     3464     6770    3              CALL INSERT(MDS_TEXT, 19, 35, 'ERROR CODE:',

   6770  3 025371   200257 236100                    LDQ     MDS_STATUS_REG2,,AUTO
         3 025372   000025 772000                    QRL     21
         3 025373   000007 376007                    ANQ     7,DL
         3 025374   000006 402007                    MPY     6,DL
         3 025375   040100 100400                    MLR     fill='040'O
         3 025376   002516 000013 1                  ADSC9   BOARD_64K+911            cn=0,n=11
         3 025377   200321 600013                    ADSC9   MDS_TEXT+4,,AUTO         cn=3,n=11
         3 025400   000002 736000                    QLS     2
         3 025401   040100 100406                    MLR     fill='040'O
         3 025402   000000 000030 xsym               ADSC9   MDS_TIMEOUT_ERRS,Q       cn=0,n=24
         3 025403   200324 400030                    ADSC9   MDS_TEXT+7,,AUTO         cn=2,n=24

     3465     6771    3                          MDS_TIMEOUT_ERRS.TEXT(MDS_CMD_ENDING_STAT.ERROR_CODE));
     3466     6772    3              XST_CNT = 54;

   6772  3 025404   000066 235007                    LDA     54,DL
         3 025405   200342 755100                    STA     XST_CNT,,AUTO

     3467     6773    3              CALL THF$ADD_TEXTC(XST$, MDS_TEXT, XST_CNT);

   6773  3 025406   200342 630500                    EPPR0   XST_CNT,,AUTO
         3 025407   200536 450500                    STP0    CHIP#+4,,AUTO
         3 025410   200315 631500                    EPPR1   MDS_TEXT,,AUTO
         3 025411   200535 451500                    STP1    CHIP#+3,,AUTO
         3 025412   200300 633500                    EPPR3   XST$,,AUTO
         3 025413   200534 453500                    STP3    CHIP#+2,,AUTO
         3 025414   200534 630500                    EPPR0   CHIP#+2,,AUTO
         3 025415   000021 631400 xsym               EPPR1   B_VECTNIL+17
         3 025416   000000 701000 xent               TSX1    THF$ADD_TEXTC
         3 025417   000000 011000                    NOP     0
PL6.E3A0      #001=THF$RAW File=THF$FORMAT.:E05TSI                               WED 07/30/97 06:08 Page:643

     3468     6774    3              NXST = NXST + 1;

   6774  3 025420   200343 235100                    LDA     NXST,,AUTO
         3 025421   000001 035007                    ADLA    1,DL
         3 025422   200343 755100                    STA     NXST,,AUTO
         3 025423   025670 710000 3                  TRA     s:6815

     3469     6775    3         CASE(%RW_ERR);

     3470     6776    3              CALL INSERT(MDS_TEXT, 36, 16, 'READ/WRITE ERROR');

   6776  3 025424   040100 100400                    MLR     fill='040'O
         3 025425   002521 000020 1                  ADSC9   BOARD_64K+914            cn=0,n=16
         3 025426   200326 000020                    ADSC9   MDS_TEXT+9,,AUTO         cn=0,n=16

     3471     6777    3              XST_CNT = 50;

   6777  3 025427   000062 235007                    LDA     50,DL
         3 025430   200342 755100                    STA     XST_CNT,,AUTO

     3472     6778    3              CALL THF$ADD_TEXTC(XST$, MDS_TEXT, XST_CNT);

   6778  3 025431   200342 630500                    EPPR0   XST_CNT,,AUTO
         3 025432   200536 450500                    STP0    CHIP#+4,,AUTO
         3 025433   200315 631500                    EPPR1   MDS_TEXT,,AUTO
         3 025434   200535 451500                    STP1    CHIP#+3,,AUTO
         3 025435   200300 633500                    EPPR3   XST$,,AUTO
         3 025436   200534 453500                    STP3    CHIP#+2,,AUTO
         3 025437   200534 630500                    EPPR0   CHIP#+2,,AUTO
         3 025440   000021 631400 xsym               EPPR1   B_VECTNIL+17
         3 025441   000000 701000 xent               TSX1    THF$ADD_TEXTC
         3 025442   000000 011000                    NOP     0

     3473     6779    3              NXST = NXST + 1;

   6779  3 025443   200343 235100                    LDA     NXST,,AUTO
PL6.E3A0      #001=THF$RAW File=THF$FORMAT.:E05TSI                               WED 07/30/97 06:08 Page:644
         3 025444   000001 035007                    ADLA    1,DL
         3 025445   200343 755100                    STA     NXST,,AUTO

     3474     6780    3              MDS_TEXT = ' ';

   6780  3 025446   040100 100400                    MLR     fill='040'O
         3 025447   000035 000001 xsym               ADSC9   B_VECTNIL+29             cn=0,n=1
         3 025450   200315 000120                    ADSC9   MDS_TEXT,,AUTO           cn=0,n=80

     3475     6781    3              CALL INSERT(MDS_TEXT, 19, 37, 'ERROR CODE:',

   6781  3 025451   200257 236100                    LDQ     MDS_STATUS_REG2,,AUTO
         3 025452   000025 772000                    QRL     21
         3 025453   000007 376007                    ANQ     7,DL
         3 025454   000007 402007                    MPY     7,DL
         3 025455   040100 100400                    MLR     fill='040'O
         3 025456   002516 000013 1                  ADSC9   BOARD_64K+911            cn=0,n=11
         3 025457   200321 600013                    ADSC9   MDS_TEXT+4,,AUTO         cn=3,n=11
         3 025460   000002 736000                    QLS     2
         3 025461   040100 100406                    MLR     fill='040'O
         3 025462   000000 000032 xsym               ADSC9   MDS_RW_ERRS,Q            cn=0,n=26
         3 025463   200324 400032                    ADSC9   MDS_TEXT+7,,AUTO         cn=2,n=26

     3476     6782    3                          MDS_RW_ERRS.TEXT(MDS_CMD_ENDING_STAT.ERROR_CODE));
     3477     6783    3              XST_CNT = 56;

   6783  3 025464   000070 235007                    LDA     56,DL
         3 025465   200342 755100                    STA     XST_CNT,,AUTO

     3478     6784    3              CALL THF$ADD_TEXTC(XST$, MDS_TEXT, XST_CNT);

   6784  3 025466   200342 630500                    EPPR0   XST_CNT,,AUTO
         3 025467   200536 450500                    STP0    CHIP#+4,,AUTO
         3 025470   200315 631500                    EPPR1   MDS_TEXT,,AUTO
         3 025471   200535 451500                    STP1    CHIP#+3,,AUTO
         3 025472   200300 633500                    EPPR3   XST$,,AUTO
         3 025473   200534 453500                    STP3    CHIP#+2,,AUTO
PL6.E3A0      #001=THF$RAW File=THF$FORMAT.:E05TSI                               WED 07/30/97 06:08 Page:645
         3 025474   200534 630500                    EPPR0   CHIP#+2,,AUTO
         3 025475   000021 631400 xsym               EPPR1   B_VECTNIL+17
         3 025476   000000 701000 xent               TSX1    THF$ADD_TEXTC
         3 025477   000000 011000                    NOP     0

     3479     6785    3              NXST = NXST + 1;

   6785  3 025500   200343 235100                    LDA     NXST,,AUTO
         3 025501   000001 035007                    ADLA    1,DL
         3 025502   200343 755100                    STA     NXST,,AUTO
         3 025503   025670 710000 3                  TRA     s:6815

     3480     6786    3         CASE(%MISC_ERR);

     3481     6787    3              CALL INSERT(MDS_TEXT, 36, 10, 'MISC ERROR');

   6787  3 025504   040100 100400                    MLR     fill='040'O
         3 025505   002525 000012 1                  ADSC9   BOARD_64K+918            cn=0,n=10
         3 025506   200326 000012                    ADSC9   MDS_TEXT+9,,AUTO         cn=0,n=10

     3482     6788    3              XST_CNT = 44;

   6788  3 025507   000054 235007                    LDA     44,DL
         3 025510   200342 755100                    STA     XST_CNT,,AUTO

     3483     6789    3              CALL THF$ADD_TEXTC(XST$, MDS_TEXT, XST_CNT);

   6789  3 025511   200342 630500                    EPPR0   XST_CNT,,AUTO
         3 025512   200536 450500                    STP0    CHIP#+4,,AUTO
         3 025513   200315 631500                    EPPR1   MDS_TEXT,,AUTO
         3 025514   200535 451500                    STP1    CHIP#+3,,AUTO
         3 025515   200300 633500                    EPPR3   XST$,,AUTO
         3 025516   200534 453500                    STP3    CHIP#+2,,AUTO
         3 025517   200534 630500                    EPPR0   CHIP#+2,,AUTO
         3 025520   000021 631400 xsym               EPPR1   B_VECTNIL+17
         3 025521   000000 701000 xent               TSX1    THF$ADD_TEXTC
         3 025522   000000 011000                    NOP     0
PL6.E3A0      #001=THF$RAW File=THF$FORMAT.:E05TSI                               WED 07/30/97 06:08 Page:646

     3484     6790    3              NXST = NXST + 1;

   6790  3 025523   200343 235100                    LDA     NXST,,AUTO
         3 025524   000001 035007                    ADLA    1,DL
         3 025525   200343 755100                    STA     NXST,,AUTO

     3485     6791    3              MDS_TEXT = ' ';

   6791  3 025526   040100 100400                    MLR     fill='040'O
         3 025527   000035 000001 xsym               ADSC9   B_VECTNIL+29             cn=0,n=1
         3 025530   200315 000120                    ADSC9   MDS_TEXT,,AUTO           cn=0,n=80

     3486     6792    3              IF (MDS_CMD_ENDING_STAT.ERROR_CODE = 0 OR

   6792  3 025531   200257 236100                    LDQ     MDS_STATUS_REG2,,AUTO
         3 025532   000070 316003                    CANQ    56,DU
         3 025533   025540 600000 3                  TZE     s:6794
         3 025534   200257 236100                    LDQ     MDS_STATUS_REG2,,AUTO
         3 025535   000070 376003                    ANQ     56,DU
         3 025536   000010 116003                    CMPQ    8,DU
         3 025537   025553 601000 3                  TNZ     s:6796

     3487     6793    3                  MDS_CMD_ENDING_STAT.ERROR_CODE = 1)
     3488     6794    3                  THEN CALL INSERT(MDS_TEXT, 19, 25, 'ERROR CODE:',

   6794  3 025540   200257 236100                    LDQ     MDS_STATUS_REG2,,AUTO
         3 025541   000023 772000                    QRL     19
         3 025542   000034 376007                    ANQ     28,DL
         3 025543   040100 100400                    MLR     fill='040'O
         3 025544   002516 000013 1                  ADSC9   BOARD_64K+911            cn=0,n=11
         3 025545   200321 600013                    ADSC9   MDS_TEXT+4,,AUTO         cn=3,n=11
         3 025546   000002 736000                    QLS     2
         3 025547   040100 100406                    MLR     fill='040'O
         3 025550   000000 000016 xsym               ADSC9   MDS_MISC_ERRS,Q          cn=0,n=14
         3 025551   200324 400016                    ADSC9   MDS_TEXT+7,,AUTO         cn=2,n=14
         3 025552   025556 710000 3                  TRA     s:6797
PL6.E3A0      #001=THF$RAW File=THF$FORMAT.:E05TSI                               WED 07/30/97 06:08 Page:647

     3489     6795    3                                  MDS_MISC_ERRS.TEXT(MDS_CMD_ENDING_STAT.ERROR_CODE));
     3490     6796    3                  ELSE CALL INSERT(MDS_TEXT, 19, 25, 'ERROR CODE:  UNKNOWN TYPE');

   6796  3 025553   040100 100400                    MLR     fill='040'O
         3 025554   002530 000031 1                  ADSC9   BOARD_64K+921            cn=0,n=25
         3 025555   200321 600031                    ADSC9   MDS_TEXT+4,,AUTO         cn=3,n=25

     3491     6797    3              XST_CNT = 44;

   6797  3 025556   000054 235007                    LDA     44,DL
         3 025557   200342 755100                    STA     XST_CNT,,AUTO

     3492     6798    3              CALL THF$ADD_TEXTC(XST$, MDS_TEXT, XST_CNT);

   6798  3 025560   200342 630500                    EPPR0   XST_CNT,,AUTO
         3 025561   200536 450500                    STP0    CHIP#+4,,AUTO
         3 025562   200315 631500                    EPPR1   MDS_TEXT,,AUTO
         3 025563   200535 451500                    STP1    CHIP#+3,,AUTO
         3 025564   200300 633500                    EPPR3   XST$,,AUTO
         3 025565   200534 453500                    STP3    CHIP#+2,,AUTO
         3 025566   200534 630500                    EPPR0   CHIP#+2,,AUTO
         3 025567   000021 631400 xsym               EPPR1   B_VECTNIL+17
         3 025570   000000 701000 xent               TSX1    THF$ADD_TEXTC
         3 025571   000000 011000                    NOP     0

     3493     6799    3              NXST = NXST + 1;

   6799  3 025572   200343 235100                    LDA     NXST,,AUTO
         3 025573   000001 035007                    ADLA    1,DL
         3 025574   200343 755100                    STA     NXST,,AUTO
         3 025575   025670 710000 3                  TRA     s:6815

     3494     6800    3         CASE(%INFO_XFR_ERR);

     3495     6801    3              CALL INSERT(MDS_TEXT, 36, 20, 'INFORMATION TRANSFER');

PL6.E3A0      #001=THF$RAW File=THF$FORMAT.:E05TSI                               WED 07/30/97 06:08 Page:648
   6801  3 025576   040100 100400                    MLR     fill='040'O
         3 025577   002537 000024 1                  ADSC9   BOARD_64K+928            cn=0,n=20
         3 025600   200326 000024                    ADSC9   MDS_TEXT+9,,AUTO         cn=0,n=20

     3496     6802    3              XST_CNT = 65;

   6802  3 025601   000101 235007                    LDA     65,DL
         3 025602   200342 755100                    STA     XST_CNT,,AUTO

     3497     6803    3              CALL THF$ADD_TEXTC(XST$, MDS_TEXT, XST_CNT);

   6803  3 025603   200342 630500                    EPPR0   XST_CNT,,AUTO
         3 025604   200536 450500                    STP0    CHIP#+4,,AUTO
         3 025605   200315 631500                    EPPR1   MDS_TEXT,,AUTO
         3 025606   200535 451500                    STP1    CHIP#+3,,AUTO
         3 025607   200300 633500                    EPPR3   XST$,,AUTO
         3 025610   200534 453500                    STP3    CHIP#+2,,AUTO
         3 025611   200534 630500                    EPPR0   CHIP#+2,,AUTO
         3 025612   000021 631400 xsym               EPPR1   B_VECTNIL+17
         3 025613   000000 701000 xent               TSX1    THF$ADD_TEXTC
         3 025614   000000 011000                    NOP     0

     3498     6804    3              NXST = NXST + 1;

   6804  3 025615   200343 235100                    LDA     NXST,,AUTO
         3 025616   000001 035007                    ADLA    1,DL
         3 025617   200343 755100                    STA     NXST,,AUTO

     3499     6805    3              MDS_TEXT = ' ';

   6805  3 025620   040100 100400                    MLR     fill='040'O
         3 025621   000035 000001 xsym               ADSC9   B_VECTNIL+29             cn=0,n=1
         3 025622   200315 000120                    ADSC9   MDS_TEXT,,AUTO           cn=0,n=80

     3500     6806    3              IF (MDS_CMD_ENDING_STAT.ERROR_CODE > 0 OR

   6806  3 025623   200257 236100                    LDQ     MDS_STATUS_REG2,,AUTO
PL6.E3A0      #001=THF$RAW File=THF$FORMAT.:E05TSI                               WED 07/30/97 06:08 Page:649
         3 025624   000070 316003                    CANQ    56,DU
         3 025625   025632 601000 3                  TNZ     s:6808
         3 025626   200257 236100                    LDQ     MDS_STATUS_REG2,,AUTO
         3 025627   000070 376003                    ANQ     56,DU
         3 025630   000060 116003                    CMPQ    48,DU
         3 025631   025646 603000 3                  TRC     s:6810

     3501     6807    3                  MDS_CMD_ENDING_STAT.ERROR_CODE < 6) THEN
     3502     6808    3                  CALL INSERT(MDS_TEXT, 19, 45, 'ERROR CODE:',

   6808  3 025632   200257 236100                    LDQ     MDS_STATUS_REG2,,AUTO
         3 025633   000025 772000                    QRL     21
         3 025634   000007 376007                    ANQ     7,DL
         3 025635   000011 402007                    MPY     9,DL
         3 025636   040100 100400                    MLR     fill='040'O
         3 025637   002516 000013 1                  ADSC9   BOARD_64K+911            cn=0,n=11
         3 025640   200321 600013                    ADSC9   MDS_TEXT+4,,AUTO         cn=3,n=11
         3 025641   000002 736000                    QLS     2
         3 025642   040100 100406                    MLR     fill='040'O
         3 025643   000000 000042 xsym               ADSC9   MDS_INFO_ERRS,Q          cn=0,n=34
         3 025644   200324 400042                    ADSC9   MDS_TEXT+7,,AUTO         cn=2,n=34
         3 025645   025651 710000 3                  TRA     s:6811

     3503     6809    3                       MDS_INFO_ERRS.TEXT(MDS_CMD_ENDING_STAT.ERROR_CODE));
     3504     6810    3                  ELSE CALL INSERT(MDS_TEXT, 19, 25, 'ERROR CODE:  UNKNOWN TYPE');

   6810  3 025646   040100 100400                    MLR     fill='040'O
         3 025647   002530 000031 1                  ADSC9   BOARD_64K+921            cn=0,n=25
         3 025650   200321 600031                    ADSC9   MDS_TEXT+4,,AUTO         cn=3,n=25

     3505     6811    3              XST_CNT = 64;

   6811  3 025651   000100 235007                    LDA     64,DL
         3 025652   200342 755100                    STA     XST_CNT,,AUTO

     3506     6812    3              CALL THF$ADD_TEXTC(XST$, MDS_TEXT, XST_CNT);

PL6.E3A0      #001=THF$RAW File=THF$FORMAT.:E05TSI                               WED 07/30/97 06:08 Page:650
   6812  3 025653   200342 630500                    EPPR0   XST_CNT,,AUTO
         3 025654   200536 450500                    STP0    CHIP#+4,,AUTO
         3 025655   200315 631500                    EPPR1   MDS_TEXT,,AUTO
         3 025656   200535 451500                    STP1    CHIP#+3,,AUTO
         3 025657   200300 633500                    EPPR3   XST$,,AUTO
         3 025660   200534 453500                    STP3    CHIP#+2,,AUTO
         3 025661   200534 630500                    EPPR0   CHIP#+2,,AUTO
         3 025662   000021 631400 xsym               EPPR1   B_VECTNIL+17
         3 025663   000000 701000 xent               TSX1    THF$ADD_TEXTC
         3 025664   000000 011000                    NOP     0

     3507     6813    3              NXST = NXST + 1;

   6813  3 025665   200343 235100                    LDA     NXST,,AUTO
         3 025666   000001 035007                    ADLA    1,DL
         3 025667   200343 755100                    STA     NXST,,AUTO

     3508     6814    3      END;  /* DO CASE */

     3509     6815    2      RETURN;

   6815  3 025670   200530 221300                    LDX1  ! BIT#,,AUTO
         3 025671   000001 702211                    TSX2  ! 1,X1

     3510     6816    2   END DECODE_CMD_STAT;
     3511     6817        %EJECT;
PL6.E3A0      #001=THF$RAW File=THF$FORMAT.:E05TSI                               WED 07/30/97 06:08 Page:651
     3512     6818        /**/
     3513     6819        /* PROCEDURE TO DECODE COMMON PARAMETERS (TYPE 3X) FOR MDS DISCS */
     3514     6820        /**/
     3515     6821    1   DECODE_PARAM_3X: PROC;

   6821  3 025672   200530 741300       DECODE_PARA* STX1  ! BIT#,,AUTO

     3516     6822        /**/
     3517     6823    2      PARAMETER_LENGTH = IO_MASK(27);  /* THIS PARAM ALWAYS STARTS AT OCTET 27 */

   6823  3 025673   200227 236100                    LDQ     IO_MASK+6,,AUTO
         3 025674   000034 772000                    QRL     28
         3 025675   000034 736000                    QLS     28
         3 025676   200255 756100                    STQ     PARAMETER_LENGTH,,AUTO

     3518     6824    2      PARAMETER_ID = IO_MASK(28);

   6824  3 025677   200227 236100                    LDQ     IO_MASK+6,,AUTO
         3 025700   000010 736000                    QLS     8
         3 025701   200254 676100                    ERQ     PARAMETER_ID,,AUTO
         3 025702   776000 376003                    ANQ     -1024,DU
         3 025703   200254 656100                    ERSQ    PARAMETER_ID,,AUTO

     3519     6825    2      IF NOT (PARAMETER_LENGTH = 9 AND PARAMETER_ID = %HEX_32)

   6825  3 025704   200255 236100                    LDQ     PARAMETER_LENGTH,,AUTO
         3 025705   776000 376003                    ANQ     -1024,DU
         3 025706   022000 116003                    CMPQ    9216,DU
         3 025707   026327 601000 3                  TNZ     PARAM_3X_DONE
         3 025710   200254 236100                    LDQ     PARAMETER_ID,,AUTO
         3 025711   776000 376003                    ANQ     -1024,DU
         3 025712   144000 116003                    CMPQ    51200,DU
         3 025713   026327 601000 3                  TNZ     PARAM_3X_DONE

     3520     6826    2         THEN GOTO PARAM_3X_DONE;
     3521     6827    3      DO X = 0 TO 6;

PL6.E3A0      #001=THF$RAW File=THF$FORMAT.:E05TSI                               WED 07/30/97 06:08 Page:652
   6827  3 025714   200011 450100                    STZ     X,,AUTO

     3522     6828    3         OCTET_BYTE(X) = IO_MASK(28 + X);

   6828  3 025715   200011 235100                    LDA     X,,AUTO
         3 025716   000003 735000                    ALS     3
         3 025717   025721 605000 3                  TPL     s:6828+4
         3 025720   000044 035003                    ADLA    36,DU
         3 025721   200011 236100                    LDQ     X,,AUTO
         3 025722   000003 736000                    QLS     3
         3 025723   025725 605000 3                  TPL     s:6828+8
         3 025724   000044 036003                    ADLQ    36,DU
         3 025725   003106 060505                    CSL     bolr='003'O
         3 025726   200227 100010                    BDSC    IO_MASK+6,A,AUTO         by=0,bit=8,n=8
         3 025727   200241 000010                    BDSC    OCTET_BYTE,Q,AUTO        by=0,bit=0,n=8

     3523     6829    3      END;

   6829  3 025730   200011 054100                    AOS     X,,AUTO
         3 025731   200011 235100                    LDA     X,,AUTO
         3 025732   000006 115007                    CMPA    6,DL
         3 025733   025715 604400 3                  TMOZ    s:6828

     3524     6830    2      MDS_TEXT = ' ';

   6830  3 025734   040100 100400                    MLR     fill='040'O
         3 025735   000035 000001 xsym               ADSC9   B_VECTNIL+29             cn=0,n=1
         3 025736   200315 000120                    ADSC9   MDS_TEXT,,AUTO           cn=0,n=80

     3525     6831    2      HEX_NUM = PARAMETER_LENGTH;

   6831  3 025737   200255 236100                    LDQ     PARAMETER_LENGTH,,AUTO
         3 025740   200252 676100                    ERQ     HEX_NUM,,AUTO
         3 025741   776000 376003                    ANQ     -1024,DU
         3 025742   200252 656100                    ERSQ    HEX_NUM,,AUTO

     3526     6832    2      CALL INSERT(MDS_TEXT, 15, 17, 'PARAM LENGTH = ',
PL6.E3A0      #001=THF$RAW File=THF$FORMAT.:E05TSI                               WED 07/30/97 06:08 Page:653

   6832  3 025743   200252 236100                    LDQ     HEX_NUM,,AUTO
         3 025744   000040 772000                    QRL     32
         3 025745   200534 756100                    STQ     CHIP#+2,,AUTO
         3 025746   200252 236100                    LDQ     HEX_NUM,,AUTO
         3 025747   000034 772000                    QRL     28
         3 025750   000017 376007                    ANQ     15,DL
         3 025751   040100 100400                    MLR     fill='040'O
         3 025752   002544 000017 1                  ADSC9   BOARD_64K+933            cn=0,n=15
         3 025753   200320 600017                    ADSC9   MDS_TEXT+3,,AUTO         cn=3,n=15
         3 025754   200534 235100                    LDA     CHIP#+2,,AUTO
         3 025755   040100 100405                    MLR     fill='040'O
         3 025756   000122 000001 1                  ADSC9   BINHEX,A                 cn=0,n=1
         3 025757   200324 400001                    ADSC9   MDS_TEXT+7,,AUTO         cn=2,n=1
         3 025760   040100 100406                    MLR     fill='040'O
         3 025761   000122 000001 1                  ADSC9   BINHEX,Q                 cn=0,n=1
         3 025762   200324 600001                    ADSC9   MDS_TEXT+7,,AUTO         cn=3,n=1

     3527     6833    2                                    BINHEX(HEX_NIBBLE(0)),
     3528     6834    2                                    BINHEX(HEX_NIBBLE(1)));
     3529     6835    2      XST_CNT = 32;

   6835  3 025763   000040 235007                    LDA     32,DL
         3 025764   200342 755100                    STA     XST_CNT,,AUTO

     3530     6836    2      CALL THF$ADD_TEXTC(XST$, MDS_TEXT, XST_CNT);

   6836  3 025765   200342 630500                    EPPR0   XST_CNT,,AUTO
         3 025766   200536 450500                    STP0    CHIP#+4,,AUTO
         3 025767   200315 631500                    EPPR1   MDS_TEXT,,AUTO
         3 025770   200535 451500                    STP1    CHIP#+3,,AUTO
         3 025771   200300 633500                    EPPR3   XST$,,AUTO
         3 025772   200534 453500                    STP3    CHIP#+2,,AUTO
         3 025773   200534 630500                    EPPR0   CHIP#+2,,AUTO
         3 025774   000021 631400 xsym               EPPR1   B_VECTNIL+17
         3 025775   000000 701000 xent               TSX1    THF$ADD_TEXTC
         3 025776   000000 011000                    NOP     0
PL6.E3A0      #001=THF$RAW File=THF$FORMAT.:E05TSI                               WED 07/30/97 06:08 Page:654

     3531     6837    2      NXST = NXST + 1;

   6837  3 025777   200343 235100                    LDA     NXST,,AUTO
         3 026000   000001 035007                    ADLA    1,DL
         3 026001   200343 755100                    STA     NXST,,AUTO

     3532     6838    2      MDS_TEXT = ' ';

   6838  3 026002   040100 100400                    MLR     fill='040'O
         3 026003   000035 000001 xsym               ADSC9   B_VECTNIL+29             cn=0,n=1
         3 026004   200315 000120                    ADSC9   MDS_TEXT,,AUTO           cn=0,n=80

     3533     6839    2      CALL INSERT(MDS_TEXT, 15, 46, 'PARAMETER ID = ',

   6839  3 026005   200254 236100                    LDQ     PARAMETER_ID,,AUTO
         3 026006   000040 772000                    QRL     32
         3 026007   200534 756100                    STQ     CHIP#+2,,AUTO
         3 026010   200254 236100                    LDQ     PARAMETER_ID,,AUTO
         3 026011   000034 772000                    QRL     28
         3 026012   000017 376007                    ANQ     15,DL
         3 026013   040100 100400                    MLR     fill='040'O
         3 026014   002550 000017 1                  ADSC9   BOARD_64K+937            cn=0,n=15
         3 026015   200320 600017                    ADSC9   MDS_TEXT+3,,AUTO         cn=3,n=15
         3 026016   200534 235100                    LDA     CHIP#+2,,AUTO
         3 026017   040100 100405                    MLR     fill='040'O
         3 026020   000122 000001 1                  ADSC9   BINHEX,A                 cn=0,n=1
         3 026021   200324 400001                    ADSC9   MDS_TEXT+7,,AUTO         cn=2,n=1
         3 026022   040100 100406                    MLR     fill='040'O
         3 026023   000122 000001 1                  ADSC9   BINHEX,Q                 cn=0,n=1
         3 026024   200324 600001                    ADSC9   MDS_TEXT+7,,AUTO         cn=3,n=1
         3 026025   040100 100400                    MLR     fill='040'O
         3 026026   002554 000035 1                  ADSC9   BOARD_64K+941            cn=0,n=29
         3 026027   200325 000035                    ADSC9   MDS_TEXT+8,,AUTO         cn=0,n=29

     3534     6840    2                                    BINHEX(PARAM_ID.BYT1),
     3535     6841    2                                    BINHEX(PARAM_ID.BYT2),
PL6.E3A0      #001=THF$RAW File=THF$FORMAT.:E05TSI                               WED 07/30/97 06:08 Page:655
     3536     6842    2                                    ' -- RESPONSE EXTENT PARAMETER');
     3537     6843    2      XST_CNT = 61;

   6843  3 026030   000075 235007                    LDA     61,DL
         3 026031   200342 755100                    STA     XST_CNT,,AUTO

     3538     6844    2      CALL THF$ADD_TEXTC(XST$, MDS_TEXT, XST_CNT);

   6844  3 026032   200342 630500                    EPPR0   XST_CNT,,AUTO
         3 026033   200536 450500                    STP0    CHIP#+4,,AUTO
         3 026034   200315 631500                    EPPR1   MDS_TEXT,,AUTO
         3 026035   200535 451500                    STP1    CHIP#+3,,AUTO
         3 026036   200300 633500                    EPPR3   XST$,,AUTO
         3 026037   200534 453500                    STP3    CHIP#+2,,AUTO
         3 026040   200534 630500                    EPPR0   CHIP#+2,,AUTO
         3 026041   000021 631400 xsym               EPPR1   B_VECTNIL+17
         3 026042   000000 701000 xent               TSX1    THF$ADD_TEXTC
         3 026043   000000 011000                    NOP     0

     3539     6845    2      NXST = NXST + 1;

   6845  3 026044   200343 235100                    LDA     NXST,,AUTO
         3 026045   000001 035007                    ADLA    1,DL
         3 026046   200343 755100                    STA     NXST,,AUTO

     3540     6846    2      MDS_TEXT = ' ';

   6846  3 026047   040100 100400                    MLR     fill='040'O
         3 026050   000035 000001 xsym               ADSC9   B_VECTNIL+29             cn=0,n=1
         3 026051   200315 000120                    ADSC9   MDS_TEXT,,AUTO           cn=0,n=80

     3541     6847    2      CALL INSERT(MDS_TEXT,17,46,'OCTETS 01 TO 04 = ', BINHEX(OCTET_NIBBLE(2)),

   6847  3 026052   200241 236100                    LDQ     OCTET_BYTE,,AUTO
         3 026053   000030 772000                    QRL     24
         3 026054   000017 376007                    ANQ     15,DL
         3 026055   200534 756100                    STQ     CHIP#+2,,AUTO
PL6.E3A0      #001=THF$RAW File=THF$FORMAT.:E05TSI                               WED 07/30/97 06:08 Page:656
         3 026056   200241 236100                    LDQ     OCTET_BYTE,,AUTO
         3 026057   000024 772000                    QRL     20
         3 026060   000017 376007                    ANQ     15,DL
         3 026061   200535 756100                    STQ     CHIP#+3,,AUTO
         3 026062   200241 236100                    LDQ     OCTET_BYTE,,AUTO
         3 026063   000020 772000                    QRL     16
         3 026064   000017 376007                    ANQ     15,DL
         3 026065   200536 756100                    STQ     CHIP#+4,,AUTO
         3 026066   200241 236100                    LDQ     OCTET_BYTE,,AUTO
         3 026067   000014 772000                    QRL     12
         3 026070   000017 376007                    ANQ     15,DL
         3 026071   040100 100400                    MLR     fill='040'O
         3 026072   002564 000022 1                  ADSC9   BOARD_64K+949            cn=0,n=18
         3 026073   200321 200022                    ADSC9   MDS_TEXT+4,,AUTO         cn=1,n=18
         3 026074   200534 235100                    LDA     CHIP#+2,,AUTO
         3 026075   040100 100405                    MLR     fill='040'O
         3 026076   000122 000001 1                  ADSC9   BINHEX,A                 cn=0,n=1
         3 026077   200325 600001                    ADSC9   MDS_TEXT+8,,AUTO         cn=3,n=1
         3 026100   200535 235100                    LDA     CHIP#+3,,AUTO
         3 026101   040100 100405                    MLR     fill='040'O
         3 026102   000122 000001 1                  ADSC9   BINHEX,A                 cn=0,n=1
         3 026103   200326 000001                    ADSC9   MDS_TEXT+9,,AUTO         cn=0,n=1
         3 026104   200536 235100                    LDA     CHIP#+4,,AUTO
         3 026105   040100 100405                    MLR     fill='040'O
         3 026106   000122 000001 1                  ADSC9   BINHEX,A                 cn=0,n=1
         3 026107   200326 200001                    ADSC9   MDS_TEXT+9,,AUTO         cn=1,n=1
         3 026110   040100 100406                    MLR     fill='040'O
         3 026111   000122 000001 1                  ADSC9   BINHEX,Q                 cn=0,n=1
         3 026112   200326 400001                    ADSC9   MDS_TEXT+9,,AUTO         cn=2,n=1
         3 026113   040100 100400                    MLR     fill='040'O
         3 026114   002571 000030 1                  ADSC9   BOARD_64K+954            cn=0,n=24
         3 026115   200326 600030                    ADSC9   MDS_TEXT+9,,AUTO         cn=3,n=24

     3542     6848    2                  BINHEX(OCTET_NIBBLE(3)), BINHEX(OCTET_NIBBLE(4)),
     3543     6849    2                  BINHEX(OCTET_NIBBLE(5)), ' -- RESIDUAL COUNT (HEX)');
     3544     6850    2      XST_CNT = 63;

PL6.E3A0      #001=THF$RAW File=THF$FORMAT.:E05TSI                               WED 07/30/97 06:08 Page:657
   6850  3 026116   000077 235007                    LDA     63,DL
         3 026117   200342 755100                    STA     XST_CNT,,AUTO

     3545     6851    2      CALL THF$ADD_TEXTC(XST$, MDS_TEXT, XST_CNT);

   6851  3 026120   200342 630500                    EPPR0   XST_CNT,,AUTO
         3 026121   200536 450500                    STP0    CHIP#+4,,AUTO
         3 026122   200315 631500                    EPPR1   MDS_TEXT,,AUTO
         3 026123   200535 451500                    STP1    CHIP#+3,,AUTO
         3 026124   200300 633500                    EPPR3   XST$,,AUTO
         3 026125   200534 453500                    STP3    CHIP#+2,,AUTO
         3 026126   200534 630500                    EPPR0   CHIP#+2,,AUTO
         3 026127   000021 631400 xsym               EPPR1   B_VECTNIL+17
         3 026130   000000 701000 xent               TSX1    THF$ADD_TEXTC
         3 026131   000000 011000                    NOP     0

     3546     6852    2      NXST = NXST + 1;

   6852  3 026132   200343 235100                    LDA     NXST,,AUTO
         3 026133   000001 035007                    ADLA    1,DL
         3 026134   200343 755100                    STA     NXST,,AUTO

     3547     6853    2      MDS_TEXT = ' ';

   6853  3 026135   040100 100400                    MLR     fill='040'O
         3 026136   000035 000001 xsym               ADSC9   B_VECTNIL+29             cn=0,n=1
         3 026137   200315 000120                    ADSC9   MDS_TEXT,,AUTO           cn=0,n=80

     3548     6854    2      MDS_REG1 = 0;

   6854  3 026140   200273 450100                    STZ     MDS_REG1,,AUTO

     3549     6855    2      MDS_REG2.OCTET(0) = OCTET_BYTE(3);

   6855  3 026141   200241 236100                    LDQ     OCTET_BYTE,,AUTO
         3 026142   000004 736000                    QLS     4
         3 026143   200273 676100                    ERQ     MDS_REG1,,AUTO
PL6.E3A0      #001=THF$RAW File=THF$FORMAT.:E05TSI                               WED 07/30/97 06:08 Page:658
         3 026144   177400 376007                    ANQ     65280,DL
         3 026145   200273 656100                    ERSQ    MDS_REG1,,AUTO

     3550     6856    2      MDS_REG2.OCTET(1) = OCTET_BYTE(4);

   6856  3 026146   200241 235100                    LDA     OCTET_BYTE,,AUTO
         3 026147   200242 236100                    LDQ     OCTET_BYTE+1,,AUTO
         3 026150   000040 773000                    LRL     32
         3 026151   000377 376007                    ANQ     255,DL
         3 026152   200273 676100                    ERQ     MDS_REG1,,AUTO
         3 026153   000377 376007                    ANQ     255,DL
         3 026154   200273 656100                    ERSQ    MDS_REG1,,AUTO

     3551     6857    2      CALL BINCHAR(MDS_CYL, MDS_REG1);

   6857  3 026155   200273 235100                    LDA     MDS_REG1,,AUTO
         3 026156   000044 773000                    LRL     36
         3 026157   200534 757100                    STAQ    CHIP#+2,,AUTO
         3 026160   000100 301500                    BTD
         3 026161   200534 000010                    NDSC9   CHIP#+2,,AUTO            cn=0,s=lsgnf,sf=0,n=8
         3 026162   200274 030004                    NDSC9   MDS_CYL,,AUTO            cn=0,s=nosgn,sf=0,n=4

     3552     6858    2      CALL INSERT(MDS_TEXT, 17, 34, 'OCTETS 05 TO 06 = ', MDS_CYL,

   6858  3 026163   040100 100400                    MLR     fill='040'O
         3 026164   002577 000022 1                  ADSC9   BOARD_64K+960            cn=0,n=18
         3 026165   200321 200022                    ADSC9   MDS_TEXT+4,,AUTO         cn=1,n=18
         3 026166   040100 100500                    MLR     fill='040'O
         3 026167   200274 000004                    ADSC9   MDS_CYL,,AUTO            cn=0,n=4
         3 026170   200325 600004                    ADSC9   MDS_TEXT+8,,AUTO         cn=3,n=4
         3 026171   040100 100400                    MLR     fill='040'O
         3 026172   002604 000014 1                  ADSC9   BOARD_64K+965            cn=0,n=12
         3 026173   200326 600014                    ADSC9   MDS_TEXT+9,,AUTO         cn=3,n=12

     3553     6859    2                  ' -- CYLINDER');
     3554     6860    2      XST_CNT = 51;

PL6.E3A0      #001=THF$RAW File=THF$FORMAT.:E05TSI                               WED 07/30/97 06:08 Page:659
   6860  3 026174   000063 235007                    LDA     51,DL
         3 026175   200342 755100                    STA     XST_CNT,,AUTO

     3555     6861    2      CALL THF$ADD_TEXTC(XST$, MDS_TEXT, XST_CNT);

   6861  3 026176   200342 630500                    EPPR0   XST_CNT,,AUTO
         3 026177   200536 450500                    STP0    CHIP#+4,,AUTO
         3 026200   200315 631500                    EPPR1   MDS_TEXT,,AUTO
         3 026201   200535 451500                    STP1    CHIP#+3,,AUTO
         3 026202   200300 633500                    EPPR3   XST$,,AUTO
         3 026203   200534 453500                    STP3    CHIP#+2,,AUTO
         3 026204   200534 630500                    EPPR0   CHIP#+2,,AUTO
         3 026205   000021 631400 xsym               EPPR1   B_VECTNIL+17
         3 026206   000000 701000 xent               TSX1    THF$ADD_TEXTC
         3 026207   000000 011000                    NOP     0

     3556     6862    2      NXST = NXST + 1;

   6862  3 026210   200343 235100                    LDA     NXST,,AUTO
         3 026211   000001 035007                    ADLA    1,DL
         3 026212   200343 755100                    STA     NXST,,AUTO

     3557     6863    2      MDS_TEXT = ' ';

   6863  3 026213   040100 100400                    MLR     fill='040'O
         3 026214   000035 000001 xsym               ADSC9   B_VECTNIL+29             cn=0,n=1
         3 026215   200315 000120                    ADSC9   MDS_TEXT,,AUTO           cn=0,n=80

     3558     6864    2      MDS_REG1 = 0;

   6864  3 026216   200273 450100                    STZ     MDS_REG1,,AUTO

     3559     6865    2      MDS_REG2.OCTET(1) = OCTET_BYTE(5);

   6865  3 026217   200242 236100                    LDQ     OCTET_BYTE+1,,AUTO
         3 026220   000030 772000                    QRL     24
         3 026221   200273 676100                    ERQ     MDS_REG1,,AUTO
PL6.E3A0      #001=THF$RAW File=THF$FORMAT.:E05TSI                               WED 07/30/97 06:08 Page:660
         3 026222   000377 376007                    ANQ     255,DL
         3 026223   200273 656100                    ERSQ    MDS_REG1,,AUTO

     3560     6866    2      CALL BINCHAR(MDS_HEAD, MDS_REG1);

   6866  3 026224   200273 236100                    LDQ     MDS_REG1,,AUTO
         3 026225   000000 235003                    LDA     0,DU
         3 026226   200534 757100                    STAQ    CHIP#+2,,AUTO
         3 026227   000100 301500                    BTD
         3 026230   200534 000010                    NDSC9   CHIP#+2,,AUTO            cn=0,s=lsgnf,sf=0,n=8
         3 026231   200276 030002                    NDSC9   MDS_HEAD,,AUTO           cn=0,s=nosgn,sf=0,n=2

     3561     6867    2      CALL INSERT(MDS_TEXT, 17, 21, 'OCTET 07 = ', MDS_HEAD, ' -- HEAD');

   6867  3 026232   040100 100400                    MLR     fill='040'O
         3 026233   002607 000013 1                  ADSC9   BOARD_64K+968            cn=0,n=11
         3 026234   200321 200013                    ADSC9   MDS_TEXT+4,,AUTO         cn=1,n=11
         3 026235   200276 220100                    LDX0    MDS_HEAD,,AUTO
         3 026236   200324 740100                    STX0    MDS_TEXT+7,,AUTO
         3 026237   040100 100400                    MLR     fill='040'O
         3 026240   002456 000010 1                  ADSC9   BOARD_64K+879            cn=0,n=8
         3 026241   200324 400010                    ADSC9   MDS_TEXT+7,,AUTO         cn=2,n=8

     3562     6868    2      XST_CNT = 38;

   6868  3 026242   000046 235007                    LDA     38,DL
         3 026243   200342 755100                    STA     XST_CNT,,AUTO

     3563     6869    2      CALL THF$ADD_TEXTC(XST$, MDS_TEXT, XST_CNT);

   6869  3 026244   200342 630500                    EPPR0   XST_CNT,,AUTO
         3 026245   200536 450500                    STP0    CHIP#+4,,AUTO
         3 026246   200315 631500                    EPPR1   MDS_TEXT,,AUTO
         3 026247   200535 451500                    STP1    CHIP#+3,,AUTO
         3 026250   200300 633500                    EPPR3   XST$,,AUTO
         3 026251   200534 453500                    STP3    CHIP#+2,,AUTO
         3 026252   200534 630500                    EPPR0   CHIP#+2,,AUTO
PL6.E3A0      #001=THF$RAW File=THF$FORMAT.:E05TSI                               WED 07/30/97 06:08 Page:661
         3 026253   000021 631400 xsym               EPPR1   B_VECTNIL+17
         3 026254   000000 701000 xent               TSX1    THF$ADD_TEXTC
         3 026255   000000 011000                    NOP     0

     3564     6870    2      NXST = NXST + 1;

   6870  3 026256   200343 235100                    LDA     NXST,,AUTO
         3 026257   000001 035007                    ADLA    1,DL
         3 026260   200343 755100                    STA     NXST,,AUTO

     3565     6871    2      MDS_TEXT = ' ';

   6871  3 026261   040100 100400                    MLR     fill='040'O
         3 026262   000035 000001 xsym               ADSC9   B_VECTNIL+29             cn=0,n=1
         3 026263   200315 000120                    ADSC9   MDS_TEXT,,AUTO           cn=0,n=80

     3566     6872    2      MDS_REG1 = 0;

   6872  3 026264   200273 450100                    STZ     MDS_REG1,,AUTO

     3567     6873    2      MDS_REG2.OCTET(1) = OCTET_BYTE(6);

   6873  3 026265   200242 236100                    LDQ     OCTET_BYTE+1,,AUTO
         3 026266   000020 772000                    QRL     16
         3 026267   200273 676100                    ERQ     MDS_REG1,,AUTO
         3 026270   000377 376007                    ANQ     255,DL
         3 026271   200273 656100                    ERSQ    MDS_REG1,,AUTO

     3568     6874    2      CALL BINCHAR(MDS_SECTOR, MDS_REG1);

   6874  3 026272   200273 236100                    LDQ     MDS_REG1,,AUTO
         3 026273   000000 235003                    LDA     0,DU
         3 026274   200534 757100                    STAQ    CHIP#+2,,AUTO
         3 026275   000100 301500                    BTD
         3 026276   200534 000010                    NDSC9   CHIP#+2,,AUTO            cn=0,s=lsgnf,sf=0,n=8
         3 026277   200275 030002                    NDSC9   MDS_SECTOR,,AUTO         cn=0,s=nosgn,sf=0,n=2

PL6.E3A0      #001=THF$RAW File=THF$FORMAT.:E05TSI                               WED 07/30/97 06:08 Page:662
     3569     6875    2      CALL INSERT(MDS_TEXT, 17, 23, 'OCTET 08 = ', MDS_SECTOR, ' -- SECTOR');

   6875  3 026300   040100 100400                    MLR     fill='040'O
         3 026301   002612 000013 1                  ADSC9   BOARD_64K+971            cn=0,n=11
         3 026302   200321 200013                    ADSC9   MDS_TEXT+4,,AUTO         cn=1,n=11
         3 026303   200275 220100                    LDX0    MDS_SECTOR,,AUTO
         3 026304   200324 740100                    STX0    MDS_TEXT+7,,AUTO
         3 026305   040100 100400                    MLR     fill='040'O
         3 026306   002615 000012 1                  ADSC9   BOARD_64K+974            cn=0,n=10
         3 026307   200324 400012                    ADSC9   MDS_TEXT+7,,AUTO         cn=2,n=10

     3570     6876    2      XST_CNT = 40;

   6876  3 026310   000050 235007                    LDA     40,DL
         3 026311   200342 755100                    STA     XST_CNT,,AUTO

     3571     6877    2      CALL THF$ADD_TEXTC(XST$, MDS_TEXT, XST_CNT);

   6877  3 026312   200342 630500                    EPPR0   XST_CNT,,AUTO
         3 026313   200536 450500                    STP0    CHIP#+4,,AUTO
         3 026314   200315 631500                    EPPR1   MDS_TEXT,,AUTO
         3 026315   200535 451500                    STP1    CHIP#+3,,AUTO
         3 026316   200300 633500                    EPPR3   XST$,,AUTO
         3 026317   200534 453500                    STP3    CHIP#+2,,AUTO
         3 026320   200534 630500                    EPPR0   CHIP#+2,,AUTO
         3 026321   000021 631400 xsym               EPPR1   B_VECTNIL+17
         3 026322   000000 701000 xent               TSX1    THF$ADD_TEXTC
         3 026323   000000 011000                    NOP     0

     3572     6878    2      NXST = NXST + 1;

   6878  3 026324   200343 235100                    LDA     NXST,,AUTO
         3 026325   000001 035007                    ADLA    1,DL
         3 026326   200343 755100                    STA     NXST,,AUTO

     3573     6879    2   PARAM_3X_DONE:
     3574     6880    2      PARAMETER_ID = 0;                /* DECODING DONE FOR PARAM_3X */
PL6.E3A0      #001=THF$RAW File=THF$FORMAT.:E05TSI                               WED 07/30/97 06:08 Page:663

   6880  3 026327   000452 236000 4     PARAM_3X_DO* LDQ     298
         3 026330   200254 356100                    ANSQ    PARAMETER_ID,,AUTO

     3575     6881    2          RETURN;

   6881  3 026331   200530 221300                    LDX1  ! BIT#,,AUTO
         3 026332   000001 702211                    TSX2  ! 1,X1

     3576     6882    2   END DECODE_PARAM_3X;
     3577     6883        %EJECT;
PL6.E3A0      #001=THF$RAW File=THF$FORMAT.:E05TSI                               WED 07/30/97 06:08 Page:664
     3578     6884        /**/
     3579     6885        /* PROCEDURE TO DECODE DEVICE STATUS PARAMETER (TYPE 51) FOR MDS DISCS */
     3580     6886        /**/
     3581     6887    1   DECODE_PARAM_51:  PROC;

   6887  3 026333   200526 741300       DECODE_PARA* STX1  ! @BOARD,,AUTO

     3582     6888        /**/
     3583     6889    2      MDS_TEXT = ' ';

   6889  3 026334   040100 100400                    MLR     fill='040'O
         3 026335   000035 000001 xsym               ADSC9   B_VECTNIL+29             cn=0,n=1
         3 026336   200315 000120                    ADSC9   MDS_TEXT,,AUTO           cn=0,n=80

     3584     6890    2      OCTET$ = MDS_PARAM_51.SUB$(OCTET_NUM - 1);

   6890  3 026337   200262 720100                    LXL0    OCTET_NUM,,AUTO
         3 026340   777777 236010 xsym               LDQ     MDS_PARAM_51-1,X0
         3 026341   200216 756100                    STQ     OCTET$,,AUTO

     3585     6891    2      IF (OCTET_NUM = 1 OR OCTET_NUM = 2) THEN

   6891  3 026342   200262 235100                    LDA     OCTET_NUM,,AUTO
         3 026343   000001 115007                    CMPA    1,DL
         3 026344   026347 600000 3                  TZE     s:6893
         3 026345   000002 115007                    CMPA    2,DL
         3 026346   026551 601000 3                  TNZ     s:6914

     3586     6892    3         DO;

     3587     6893    3           HEX_NUM = OCTET_NUM;

   6893  3 026347   200262 236100                    LDQ     OCTET_NUM,,AUTO
         3 026350   000034 736000                    QLS     28
         3 026351   200252 676100                    ERQ     HEX_NUM,,AUTO
         3 026352   776000 376003                    ANQ     -1024,DU
         3 026353   200252 656100                    ERSQ    HEX_NUM,,AUTO
PL6.E3A0      #001=THF$RAW File=THF$FORMAT.:E05TSI                               WED 07/30/97 06:08 Page:665

     3588     6894    3           CALL INSERT(MDS_TEXT, 17, 11, 'OCTET ',BINHEX(HEX_NIBBLE(0)),

   6894  3 026354   200252 236100                    LDQ     HEX_NUM,,AUTO
         3 026355   000040 772000                    QRL     32
         3 026356   200534 756100                    STQ     CHIP#+2,,AUTO
         3 026357   200252 236100                    LDQ     HEX_NUM,,AUTO
         3 026360   000034 772000                    QRL     28
         3 026361   000017 376007                    ANQ     15,DL
         3 026362   040100 100400                    MLR     fill='040'O
         3 026363   002352 000006 1                  ADSC9   BOARD_64K+811            cn=0,n=6
         3 026364   200321 200006                    ADSC9   MDS_TEXT+4,,AUTO         cn=1,n=6
         3 026365   200534 235100                    LDA     CHIP#+2,,AUTO
         3 026366   040100 100405                    MLR     fill='040'O
         3 026367   000122 000001 1                  ADSC9   BINHEX,A                 cn=0,n=1
         3 026370   200322 600001                    ADSC9   MDS_TEXT+5,,AUTO         cn=3,n=1
         3 026371   040100 100406                    MLR     fill='040'O
         3 026372   000122 000001 1                  ADSC9   BINHEX,Q                 cn=0,n=1
         3 026373   200323 000001                    ADSC9   MDS_TEXT+6,,AUTO         cn=0,n=1
         3 026374   002354 236000 1                  LDQ     BOARD_64K+813
         3 026375   000011 772000                    QRL     9
         3 026376   200323 552134                    STBQ    MDS_TEXT+6,'34'O,AUTO

     3589     6895    3                       BINHEX(HEX_NIBBLE(1)), ' = ');
     3590     6896    3           CALL INSERT(MDS_TEXT, 28, 2, BINHEX(OCTET_NIBBLE(2 * OCTET_NUM)),

   6896  3 026377   200262 235100                    LDA     OCTET_NUM,,AUTO
         3 026400   000003 735000                    ALS     3
         3 026401   026403 605000 3                  TPL     s:6896+4
         3 026402   000044 035003                    ADLA    36,DU
         3 026403   003100 061505                    CSR     bolr='003'O
         3 026404   200241 000004                    BDSC    OCTET_BYTE,A,AUTO        by=0,bit=0,n=4
         3 026405   200534 000044                    BDSC    CHIP#+2,,AUTO            by=0,bit=0,n=36
         3 026406   200534 236100                    LDQ     CHIP#+2,,AUTO
         3 026407   200262 235100                    LDA     OCTET_NUM,,AUTO
         3 026410   000003 735000                    ALS     3
         3 026411   026413 605000 3                  TPL     s:6896+12
PL6.E3A0      #001=THF$RAW File=THF$FORMAT.:E05TSI                               WED 07/30/97 06:08 Page:666
         3 026412   000044 035003                    ADLA    36,DU
         3 026413   003100 061505                    CSR     bolr='003'O
         3 026414   200241 040004                    BDSC    OCTET_BYTE,A,AUTO        by=0,bit=4,n=4
         3 026415   200535 000044                    BDSC    CHIP#+3,,AUTO            by=0,bit=0,n=36
         3 026416   200536 756100                    STQ     CHIP#+4,,AUTO
         3 026417   200535 236100                    LDQ     CHIP#+3,,AUTO
         3 026420   200536 235100                    LDA     CHIP#+4,,AUTO
         3 026421   040100 100405                    MLR     fill='040'O
         3 026422   000122 000001 1                  ADSC9   BINHEX,A                 cn=0,n=1
         3 026423   200324 000001                    ADSC9   MDS_TEXT+7,,AUTO         cn=0,n=1
         3 026424   040100 100406                    MLR     fill='040'O
         3 026425   000122 000001 1                  ADSC9   BINHEX,Q                 cn=0,n=1
         3 026426   200324 200001                    ADSC9   MDS_TEXT+7,,AUTO         cn=1,n=1

     3591     6897    3                       BINHEX(OCTET_NIBBLE(2 * OCTET_NUM + 1)));
     3592     6898    3           XST_CNT = 30;

   6898  3 026427   000036 235007                    LDA     30,DL
         3 026430   200342 755100                    STA     XST_CNT,,AUTO

     3593     6899    3           CALL THF$ADD_TEXTC(XST$, MDS_TEXT, XST_CNT);

   6899  3 026431   200342 630500                    EPPR0   XST_CNT,,AUTO
         3 026432   200536 450500                    STP0    CHIP#+4,,AUTO
         3 026433   200315 631500                    EPPR1   MDS_TEXT,,AUTO
         3 026434   200535 451500                    STP1    CHIP#+3,,AUTO
         3 026435   200300 633500                    EPPR3   XST$,,AUTO
         3 026436   200534 453500                    STP3    CHIP#+2,,AUTO
         3 026437   200534 630500                    EPPR0   CHIP#+2,,AUTO
         3 026440   000021 631400 xsym               EPPR1   B_VECTNIL+17
         3 026441   000000 701000 xent               TSX1    THF$ADD_TEXTC
         3 026442   000000 011000                    NOP     0

     3594     6900    3           NXST = NXST + 1;

   6900  3 026443   200343 235100                    LDA     NXST,,AUTO
         3 026444   000001 035007                    ADLA    1,DL
PL6.E3A0      #001=THF$RAW File=THF$FORMAT.:E05TSI                               WED 07/30/97 06:08 Page:667
         3 026445   200343 755100                    STA     NXST,,AUTO

     3595     6901    3           PARAM_INDX = 0;

   6901  3 026446   200253 450100                    STZ     PARAM_INDX,,AUTO

     3596     6902    4           DO X = (8 * DEVTBL.CODE(I)) TO (8 * DEVTBL.CODE(I) +7);

   6902  3 026447   200010 236100                    LDQ     I,,AUTO
         3 026450   000012 402007                    MPY     10,DL
         3 026451   200215 470500                    LDP0    DEV$,,AUTO
         3 026452   000000 236106                    LDQ     0,QL,PR0
         3 026453   000030 772000                    QRL     24
         3 026454   007770 376007                    ANQ     4088,DL
         3 026455   200011 756100                    STQ     X,,AUTO
         3 026456   026537 710000 3                  TRA     s:6912+1

     3597     6903    4              IF (IO_MASK1(X)) AND (PARAM_TBL.COUNT(PARAM_INDX) > 1)

   6903  3 026457   200011 235100                    LDA     X,,AUTO
         3 026460   026462 605000 3                  TPL     s:6903+3
         3 026461   000044 035003                    ADLA    36,DU
         3 026462   000000 066505                    CMPB    filb='0'B
         3 026463   200221 000001                    BDSC    IO_MASK,A,AUTO           by=0,bit=0,n=1
         3 026464   000002 000022 xsym               BDSC    B_VECTNIL+2              by=0,bit=0,n=18
         3 026465   026535 600000 3                  TZE     s:6911
         3 026466   200253 236100                    LDQ     PARAM_INDX,,AUTO
         3 026467   000014 402007                    MPY     12,DL
         3 026470   200216 470500                    LDP0    OCTET$,,AUTO
         3 026471   000000 236106                    LDQ     0,QL,PR0
         3 026472   777000 376003                    ANQ     -512,DU
         3 026473   002000 116003                    CMPQ    1024,DU
         3 026474   026535 602000 3                  TNC     s:6911

     3598     6904    5                 THEN DO;

     3599     6905    5                   MDS_TEXT = ' ';
PL6.E3A0      #001=THF$RAW File=THF$FORMAT.:E05TSI                               WED 07/30/97 06:08 Page:668

   6905  3 026475   040100 100400                    MLR     fill='040'O
         3 026476   000035 000001 xsym               ADSC9   B_VECTNIL+29             cn=0,n=1
         3 026477   200315 000120                    ADSC9   MDS_TEXT,,AUTO           cn=0,n=80

     3600     6906    5                   CALL INSERT(MDS_TEXT, 17, PARAM_TBL.COUNT(PARAM_INDX), PARAM_TBL.
              6906                            TEXT(PARAM_INDX));

   6906  3 026500   200253 236100                    LDQ     PARAM_INDX,,AUTO
         3 026501   000014 402007                    MPY     12,DL
         3 026502   000000 236106                    LDQ     0,QL,PR0
         3 026503   000033 772000                    QRL     27
         3 026504   000000 620006                    EAX0    0,QL
         3 026505   200253 236100                    LDQ     PARAM_INDX,,AUTO
         3 026506   000060 402007                    MPY     48,DL
         3 026507   040140 100506                    MLR     fill='040'O
         3 026510   000000 200054                    ADSC9   0,Q,PR0                  cn=1,n=44
         3 026511   200321 200010                    ADSC9   MDS_TEXT+4,,AUTO         cn=1,n=*X0

     3601     6907    5                   XST_CNT = PARAM_TBL.COUNT(PARAM_INDX) + 17;

   6907  3 026512   200253 236100                    LDQ     PARAM_INDX,,AUTO
         3 026513   000014 402007                    MPY     12,DL
         3 026514   000000 236106                    LDQ     0,QL,PR0
         3 026515   000033 772000                    QRL     27
         3 026516   000021 036007                    ADLQ    17,DL
         3 026517   200342 756100                    STQ     XST_CNT,,AUTO

     3602     6908    5                   CALL THF$ADD_TEXTC(XST$, MDS_TEXT, XST_CNT);

   6908  3 026520   200342 631500                    EPPR1   XST_CNT,,AUTO
         3 026521   200536 451500                    STP1    CHIP#+4,,AUTO
         3 026522   200315 633500                    EPPR3   MDS_TEXT,,AUTO
         3 026523   200535 453500                    STP3    CHIP#+3,,AUTO
         3 026524   200300 634500                    EPPR4   XST$,,AUTO
         3 026525   200534 454500                    STP4    CHIP#+2,,AUTO
         3 026526   200534 630500                    EPPR0   CHIP#+2,,AUTO
PL6.E3A0      #001=THF$RAW File=THF$FORMAT.:E05TSI                               WED 07/30/97 06:08 Page:669
         3 026527   000021 631400 xsym               EPPR1   B_VECTNIL+17
         3 026530   000000 701000 xent               TSX1    THF$ADD_TEXTC
         3 026531   000000 011000                    NOP     0

     3603     6909    5                   NXST = NXST + 1;

   6909  3 026532   200343 235100                    LDA     NXST,,AUTO
         3 026533   000001 035007                    ADLA    1,DL
         3 026534   200343 755100                    STA     NXST,,AUTO

     3604     6910    5                 END;

     3605     6911    4           PARAM_INDX = PARAM_INDX + 1;

   6911  3 026535   200253 054100                    AOS     PARAM_INDX,,AUTO

     3606     6912    4           END;  /* DO X */

   6912  3 026536   200011 054100                    AOS     X,,AUTO
         3 026537   200010 236100                    LDQ     I,,AUTO
         3 026540   000012 402007                    MPY     10,DL
         3 026541   200215 470500                    LDP0    DEV$,,AUTO
         3 026542   000000 236106                    LDQ     0,QL,PR0
         3 026543   000030 772000                    QRL     24
         3 026544   007770 376007                    ANQ     4088,DL
         3 026545   000007 036007                    ADLQ    7,DL
         3 026546   200011 116100                    CMPQ    X,,AUTO
         3 026547   026457 605000 3                  TPL     s:6903

     3607     6913    3         END;

   6913  3 026550   026552 710000 3                  TRA     s:6915

     3608     6914    2         ELSE RETURN;

   6914  3 026551   000001 702211                    TSX2  ! 1,X1

PL6.E3A0      #001=THF$RAW File=THF$FORMAT.:E05TSI                               WED 07/30/97 06:08 Page:670
     3609     6915    2      IF OCTET_NUM = 2 THEN

   6915  3 026552   200262 235100                    LDA     OCTET_NUM,,AUTO
         3 026553   000002 115007                    CMPA    2,DL
         3 026554   026557 601000 3                  TNZ     s:6917

     3610     6916    2         PARAMETER_ID = 0;           /* FINISHED DECODING PARAM_51 */

   6916  3 026555   000452 236000 4                  LDQ     298
         3 026556   200254 356100                    ANSQ    PARAMETER_ID,,AUTO

     3611     6917    2      RETURN;

   6917  3 026557   200526 221300                    LDX1  ! @BOARD,,AUTO
         3 026560   000001 702211                    TSX2  ! 1,X1
     3612     6918    2   END DECODE_PARAM_51;
     3613     6919    1   END THF$RAW;
     3614     6920        %EOD;

PL6.E3A0      #001=THF$RAW File=THF$FORMAT.:E05TSI                               WED 07/30/97 06:08 Page:671
--  Include file information  --

   XU_FORMAT_C.:E05TOU  is referenced.
   NI_DATA_C.:E05TOU  is referenced.
   TM_DATA_M.:E05TOU  is referenced.
   B_MICROPS_C.:E05TOU  is referenced.
   CP_6_SUBS.:E05TOU  is referenced.
   TH_XSTATUS_R.:E05TOU  cannot be made into a system file and is referenced.
   EL_SUBS_C.:E05TOU  is referenced.
   KI_SUBS_C.:E05TOU  is referenced.
   TH_DATA_C.:E05TOU  is referenced.
   B_STRINGS_C.:E05TOU  is referenced.
   TH_SUBS_C.:E05TOU  is referenced.
   TH_DATA_R.:E05TOU  cannot be made into a system file and is referenced.
   EL$TABLES.:E05TOU  is referenced.
   B$JIT.:E05TOU  cannot be made into a system file and is referenced.
   CP_6.:E05TOU  cannot be made into a system file and is referenced.
   B$JIT_C.:E05TOU  was found in the system file and is referenced.
   CP_6_C.:E05TOU  was found in the system file and is referenced.
      No diagnostics issued in procedure THF$RAW.
PL6.E3A0      #001=THF$RAW File=THF$FORMAT.:E05TSI                               WED 07/30/97 06:08 Page:672

 **** Variables and constants ****

  ****  Section 001 RoData THF$RAW

  ****  Scalars and arrays  ****
OctLoc.c.b A Datatyp(siz) R M Lvl/name                 OctLoc.c.b A Datatyp(siz) R M Lvl/name

   122-0-0/c CHAR        r     1 BINHEX(0:15)             526-0-0/c SBIN(9)     r     1 BIT_4K(0:127)
   626-0-0/c SBIN(9)     r     1 BIT_64K(0:127)
   677-0-0/c CHAR        r     1 BOARD_64K(0:15)
   666-0-0/c CHAR(2)     r     1 CHIP_64K_CHAR(0:7)
   672-0-0/c CHAR        r     1 CHIP_64K_LET(0:19)
   174-0-0/c CHAR(121)   r     1 COMPONENT_HDR            111-0-0/c CHAR(34)    r     1 DUMP_HDR
     1-0-0/c CHAR(21)    r     1 DYMFMT                   133-0-0/c CHAR(23)    r     1 EVENFMT
   440-0-0/c CHAR(32)    r     1 EXTENDED_HDR             151-0-0/c CHAR(21)    r     1 FCFMT
   451-0-0/c CHAR(130)   r     1 FEP_HDR                  157-0-0/c CHAR(50)    r     1 FRFMT
     7-0-0/c CHAR(13)    r     1 INFOFMT                  512-0-0/d STRC(432)   r     1 LOC_DATE
     0-0-0/b BIT         r     1 MASK                     126-0-0/c CHAR(17)    r     1 MDSFMT
   324-0-0/c CHAR(152)   r     1 NINE_TRK_HDR             304-0-0/c CHAR(63)    r     1 NON_TAPE_HDR
   450-0-0/b BIT (9)     r     1 NO_LEADING_ZEROS(0:2)
   242-0-0/c CHAR(133)   r     1 NO_XSTAT_HDR             141-0-0/c CHAR(31)    r     1 ODDFMT
    71-0-0/c CHAR(29)    r     1 PR71FMT1                 101-0-0/c CHAR(32)    r     1 PR71FMT3
    13-0-0/c CHAR(25)    r     1 PROCERR_SS               566-0-0/c SBIN(9)     r     1 QUAD_4K(0:127)
   372-0-0/c CHAR(152)   r     1 SEVEN_TRK_HDR            233-0-0/c CHAR(28)    r     1 STATUS_DATA

  ****  Section 002  Data  THF$RAW

  ****  Scalars and arrays  ****
OctLoc.c.b A Datatyp(siz) R M Lvl/name                 OctLoc.c.b A Datatyp(siz) R M Lvl/name

  7642-0-0/c CHAR(4)     r     1 BOARD_4K(0:3)
  7646-0-0/c CHAR        r     1 CHIP_LTTR(0:9)
  3314-0-0/d BIT (72)    r     1 COMPONENT_FMT             60-0-0/c CHAR(8)     r     1 DBUF
  3135-0-0/c STRC(90)    r     1 DP_POSITION             3256-0-0/c CHAR(120)   r     1 ERR_MSG
  7424-0-0/d STRC(936)   r     1 ERR_MSGS                7456-0-0/c STRC(72)    r     1 ERR_MSG_ACCT
  7460-0-0/c STRC(90)    r     1 ERR_MSG_NAME            3330-0-0/d BIT (72)    r     1 EXTENDED_FMT
  3140-0-0/c CHAR(300)   r     1 FCBUF                   7570-0-0/w STRC(1080)  r     1 FDS_PR71
PL6.E3A0      #001=THF$RAW File=THF$FORMAT.:E05TSI                               WED 07/30/97 06:08 Page:673
    56-0-0/b STRC        r     1 FEPERR_CODE             7470-0-0/w STRC(1224)  r     1 FEPERR_TBL
  7422-0-0/d BIT (72)    r     1 FEP_FMT                 7626-0-0/d STRC(432)   r     1 FPT_TIME
    65-0-0/c CHAR(16)    r     1 FRU_STR                   65-0-0/c STRC(144)   r     1 FRU_STRING
  7532-0-0/w STRC(1080)  r     1 IOERR_TBL                 57-0-0/w UBIN        r     1 LOC_UTS
  3025-0-0/c CHAR(256)   r     1 MMBUF                   3132-0-0/c STRC(99)    r     1 MT_POSITION
  7416-0-0/c UBIN(9)     r     1 NINE_TRACK_RDF(0:8)
  7416-0-0/c STRC(81)    r     1 NINE_TRACK_TBL          3324-0-0/d BIT (72)    r     1 NINE_TRK_FMT
  3322-0-0/d BIT (72)    r     1 NON_TAPE_FMT            3320-0-0/d BIT (72)    r     1 NO_XSTAT_FMT
  3332-0-0/w STRC(693)   r     1 OTHER_IOERR_TBL           41-0-0/c STRC(324)   r     1 PR71_BUF
    52-0-0/d BIT (72)    r     1 PR71_VECTOR_TBL         3125-0-0/c CHAR(20)    r     1 SECBUF
  3255-0-0/w PTR         r     1 SPBIT$                  3253-0-0/c CHAR        r     1 SP_BIT(0:4)
  3316-0-0/d BIT (72)    r     1 STATUS_FMT                62-0-0/c CHAR(11)    r     1 TBUF
    54-0-0/w BIT (72)    r     1 TEMP_STATUS               54-0-0/w STRC(72)    r     1 TEMP_STATUS1
  7464-0-0/d STRC(144)   r     1 TEMP_VLR
  3356-0-0/w STRC(351)   r     1 XSTAT_TBL(0:207)
    71-0-0/c CHAR(6000)  r     1 XSTBUF

  ****  Auto variables  ****

  ****  Scalars and arrays  ****
OctLoc.c.b A Datatyp(siz) R M Lvl/name                 OctLoc.c.b A Datatyp(siz) R M Lvl/name

   526-0-0/w PTR         r     1 @BOARD                   527-0-0/w PTR         r     1 @CHIP
   527-0-0/w PTR         r     1 @ERR                       3-0-0/w PTR         r     1 @FMTTBL$
   530-0-0/w PTR         r     1 @SIZ                     525-0-0/w PTR         r     1 @STATUS$
   527-0-0/w PTR         r     1 @TXT                     525-0-0/w PTR         r     1 @UTS
   504-0-0/b BIT         r     1 ALL_MATCH
   263-0-0/b STRC(9)     r     1 ASCII_EXTST(0:31)
   530-0-0/w SBIN        r     1 BIT#                     457-0-0/w UBIN        r     1 BIT_CNT
    *0-0-0/c CHAR        r     1 BOARD                      7-0-0/c CHAR        r     1 BORD
    *0-0-0/c CHAR(3)     r     1 CHIP                     532-0-0/c CHAR(2)     r     1 CHIP#
     6-0-0/c CHAR(3)     r     1 CHP                      401-0-0/c CHAR        r     1 CPUN
   405-0-0/c CHAR(8)     r     1 CPU_DEVN                 211-0-0/w PTR         r     1 CTL$
   375-0-0/w SBIN        r     1 CYL                      215-0-0/w PTR         r     1 DEV$
   214-0-0/b BIT         r     1 DEV_FLAG                 505-0-0/w PTR         r     1 DEV_OP$
   465-0-0/w PTR         r     1 DPC$                     463-0-0/b BIT         r     1 DP_BIT(0:3)
   463-0-0/b UBIN(4)     r     1 DP_FORMAT                463-0-0/b UBIN(4)     r     1 DP_FORM_MSG
PL6.E3A0      #001=THF$RAW File=THF$FORMAT.:E05TSI                               WED 07/30/97 06:08 Page:674
    *0-0-0/b STRC        r     1 ERR                      466-0-0/c CHAR(43)    r     1 ERR_MSG_T
   432-0-0/w PTR         r     1 FC$                      456-0-0/w UBIN        r     1 FCFLAG
   451-0-0/w PTR         r     1 FCPTR$                   434-0-0/d STRC(72)    r     1 FCVEC
   450-0-0/w SBIN        r     1 FC_CNT                   436-0-0/c CHAR(37)    r     1 FC_TEXT
   460-0-0/w UBIN        r     1 FEP_COUNT                277-0-0/b BIT         r     1 FIPS_TAPE
   452-0-0/b BIT (72)    r     1 FLT_REG
   452-0-0/b BIT         r     1 FLT_REG_T(0:71)
   452-0-0/b BIT (4)     r     1 FLT_REG_TT(0:17)
    *0-0-0/w PTR         r     1 FMTTBL$(0:0)
   513-0-0/b BIT         r     1 FOUND_ST
   260-0-0/b UBIN(4)     r     1 FRU_INDX(0:1)
   464-0-0/b BIT         r     1 FT_BIT(0:7)              464-0-0/b UBIN(8)     r     1 FT_CODE
   260-0-0/b UBIN(8)     r     1 F_INDX                   376-0-0/w SBIN        r     1 HD
   252-0-0/b UBIN(4)     r     1 HEX_NIBBLE(0:1)
   252-0-0/b UBIN(8)     r     1 HEX_NUM                   10-0-0/w SBIN        r     1 I
   530-0-0/w SBIN        r     1 I                        454-0-0/w UBIN        r     1 II
     4-0-0/d STRC(72)    r     1 INFO                     400-0-0/c CHAR        r     1 IOMN
   403-0-0/c CHAR(8)     r     1 IOM_DEVN                 221-0-0/b UBIN(8)     r     1 IO_MASK(0:35)
   221-0-0/b BIT         r     1 IO_MASK1(0:287)          231-0-0/b BIT         r     1 IO_MASK2(0:287)
   100-0-0/w UBIN        r     1 J                        455-0-0/w UBIN        r     1 JJ
    16-0-0/w SBIN        r     1 JUNK                     102-0-0/w SBIN        r     1 LEN
   461-0-0/w UBIN        r     1 LENN                     346-0-0/c CHAR(32)    r     1 MAJBUF
   366-0-0/w SBIN        r     1 MAJCNT                   261-0-0/w UBIN        r     1 MAX_ENTRY
   257-0-0/b STRC(16)    r     1 MDS_CMD_ENDING_STAT      274-0-0/c CHAR(4)     r     1 MDS_CYL
   256-0-0/b STRC(8)     r     1 MDS_DRIVE_STATUS         276-0-0/c CHAR(2)     r     1 MDS_HEAD
   273-0-0/w UBIN        r     1 MDS_REG1                 273-0-0/w STRC        r     1 MDS_REG2
   275-0-0/c CHAR(2)     r     1 MDS_SECTOR               256-0-0/b UBIN(8)     r     1 MDS_STATUS_REG1
   257-0-0/b UBIN(8)     r     1 MDS_STATUS_REG2(0:1)
   217-0-0/w PTR         r     1 MDS_TBL$                 315-0-0/c CHAR(80)    r     1 MDS_TEXT
   341-0-0/w SBIN        r     1 MDS_TEXT_POSITION        356-0-0/c CHAR(32)    r     1 MINBUF
   367-0-0/w SBIN        r     1 MINCNT                   370-0-0/w PTR         r     1 MM$
   372-0-0/d STRC(72)    r     1 MMVEC                    220-0-0/c CHAR(3)     r     1 MODEL_CHAR
   344-0-0/w UBIN        r     1 N                        507-0-0/b UBIN(8)     r     1 NEW_DENSE
   507-0-0/b STRC(8)     r     1 NEW_DENSE_RDF
   231-0-0/b UBIN(8)     r     1 NEW_IO_MASK(0:35)
   501-0-0/b BIT         r     1 NEW_OP
   501-0-0/b BIT (6)     r     1 NEW_OP_RDF(0:5)
PL6.E3A0      #001=THF$RAW File=THF$FORMAT.:E05TSI                               WED 07/30/97 06:08 Page:675
   514-0-0/c CHAR(3)     r     1 NINE_TRACK_BLNK(0:8)
   514-0-0/c CHAR(27)    r     1 NINE_TRACK_STRING        103-0-0/w UBIN        r     1 NUMBYTES
   104-0-0/w UBIN        r     1 NUMWORDS                 510-0-0/w UBIN        r     1 NUM_XSTATUS
   343-0-0/w UBIN        r     1 NXST                     216-0-0/w PTR         r     1 OCTET$
   241-0-0/b UBIN(8)     r     1 OCTET_BYTE(0:25)
   241-0-0/b UBIN(4)     r     1 OCTET_NIBBLE(0:51)
   262-0-0/w SBIN        r     1 OCTET_NUM                345-0-0/b BIT         r     1 ODDFLAG
   506-0-0/b UBIN(8)     r     1 OLD_DENSE                506-0-0/b STRC(8)     r     1 OLD_DENSE_RDF
   502-0-0/c CHAR(8)     r     1 OPERATION                254-0-0/b UBIN(8)     r     1 PARAMETER_ID
   255-0-0/w UBIN(8)     r     1 PARAMETER_LENGTH         254-0-0/b STRC(8)     r     1 PARAM_ID
   253-0-0/w SBIN        r     1 PARAM_INDX                14-0-0/b STRC(16)    r     1 PR54_BELT
    13-0-0/b BIT (9)     r     1 PR54_BYTE                 14-0-0/b STRC(16)    r     1 PR71_BELT
    15-0-0/w STRC        r     1 PR71_REG1                 12-0-0/b BIT (6)     r     1 PRNTR_REG
    14-0-0/b STRC(16)    r     1 PTR_BELT                 531-0-0/w SBIN        r     1 QUAD#
   402-0-0/c CHAR        r     1 SCUN                     407-0-0/c CHAR(8)     r     1 SCU_DEVN
   377-0-0/w SBIN        r     1 SE                       411-0-0/w PTR         r     1 SEC$
   374-0-0/w SBIN        r     1 SECTOR                   430-0-0/d STRC(72)    r     1 SECVEC
   425-0-0/c CHAR(8)     r     1 SEEK_ADDR                 *0-0-0/w SBIN        r     1 SIZ
   462-0-0/w PTR         r     1 SPC$                     212-0-0/w PTR         r     1 STATS$
    *0-0-0/w PTR         r     1 STATUS$                  101-0-0/w UBIN        r     1 STRT
    17-0-0/c CHAR(63)    r     1 TEMP                      37-0-0/c CHAR(63)    r     1 TEMP1
    57-0-0/c CHAR(63)    r     1 TEMP2
   413-0-0/w UBIN        r     1 TEMPBUF(0:5)
   210-0-0/w PTR         r     1 TEXT$                    106-0-0/c CHAR(256)   r     1 TEXTBUF
   511-0-0/b BIT         r     1 TRACK_NINE               512-0-0/b BIT         r     1 TRACK_SEVEN
   526-0-0/w UBIN        r     1 TSTAMP                   206-0-0/d STRC(72)    r     1 TVEC
    *0-0-0/c ACHR        r     1 TXT                      213-0-0/w UBIN        r     1 TYPE
    *0-0-0/b UBIN        r     1 UTS                       11-0-0/w SBIN        r     1 X
   300-0-0/w PTR         r     1 XST$
   247-0-0/b UBIN(8)     r     1 XSTATUS_BYTE(0:10)
   247-0-0/b UBIN(4)     r     1 XSTATUS_NIBBLE(0:21)
   302-0-0/d STRC(72)    r     1 XSTVEC                   342-0-0/w SBIN        r     1 XST_CNT
   304-0-0/c CHAR(35)    r     1 XST_TEXT

  ****  SYMREF variables  ****

  ****  Scalars and arrays  ****
PL6.E3A0      #001=THF$RAW File=THF$FORMAT.:E05TSI                               WED 07/30/97 06:08 Page:676
OctLoc.c.b A Datatyp(siz) R M Lvl/name                 OctLoc.c.b A Datatyp(siz) R M Lvl/name

     0-0-0/w PTR         r     1 B$JIT$
     0-0-0/w STRC(333)   r     1 CTRL_ERR_TBL(0:65)
     0-0-0/w STRC(117)   r     1 DEVICE_CMND(0:8191)
     0-0-0/w STRC(333)   r     1 FAULT_SYMP_TBL(0:70)
     0-0-0/w STRC(306)   r     1 FC(0:21)
     0-0-0/w STRC(45)    r     1 FLTREG_TYPE(0:2)
     0-0-0/w STRC(333)   r     1 FORM0_NOTB1_B3(0:9)
     0-0-0/w STRC(45)    r     1 FORMAT_TBLS(0:8)
     0-0-0/w STRC(342)   r     1 ILL_CODE(0:15)
     0-0-0/w STRC(333)   r     1 LED_TBL(0:32)
     0-0-0/w STRC(414)   r     1 MDSII_FCODE(0:7)
     0-0-0/w STRC(414)   r     1 MDSII_FRUS(0:8)
     0-0-0/w STRC(414)   r     1 MDSII_STATUS(0:25)
     0-0-0/w STRC(414)   r     1 MDSI_FCODE(0:6)
     0-0-0/w STRC(414)   r     1 MDSI_FRUS(0:15)
     0-0-0/w STRC(414)   r     1 MDS_CMD_IDENT(0:48)
     0-0-0/w STRC(405)   r     1 MDS_DRIVE_ENDING_STATUS(0:3)
     0-0-0/w STRC(324)   r     1 MDS_ERROR_LOC(0:3)
     0-0-0/w STRC(306)   r     1 MDS_INFO_ERRS(0:5)
     0-0-0/w STRC(126)   r     1 MDS_MISC_ERRS(0:1)
     0-0-0/w STRC(333)   r     1 MDS_OP_CODE_TBL(0:42)
     0-0-0/w STRC        r     1 MDS_PARAM_51(0:1)
     0-0-0/w STRC(324)   r     1 MDS_PARAM_ID_TBL(0:10)
     0-0-0/w STRC        r     1 MDS_PARAM_X2(0:4)
     0-0-0/w STRC        r     1 MDS_PARAM_X4(0:5)
     0-0-0/w STRC        r     1 MDS_PARAM_X5(0:4)
     0-0-0/w STRC        r     1 MDS_PARAM_X6(0:5)
     0-0-0/w STRC        r     1 MDS_PARAM_X7(0:6)
     0-0-0/w STRC        r     1 MDS_PARAM_X8
     0-0-0/w STRC        r     1 MDS_PARAM_X9(0:2)
     0-0-0/w STRC        r     1 MDS_PARAM_XA(0:5)
     0-0-0/w STRC(234)   r     1 MDS_RW_ERRS(0:7)
     0-0-0/w STRC(216)   r     1 MDS_TIMEOUT_ERRS(0:7)
     0-0-0/w STRC(333)   r     1 NON_REG_TBL(0:10)
     0-0-0/w STRC(189)   r     1 PR54_BELT_TBL(0:3)
PL6.E3A0      #001=THF$RAW File=THF$FORMAT.:E05TSI                               WED 07/30/97 06:08 Page:677
     0-0-0/w STRC(189)   r     1 PR71_BELT_TBL(0:3)
     0-0-0/w STRC(333)   r     1 REGISTER_TBL(0:16)
     0-0-0/w STRC(81)    r     1 SP_CASES(0:4)
     0-0-0/w STRC(9)     r     1 TBL_EIGHTY_TWO(0:26)
     0-0-0/w STRC(9)     r     1 TBL_SIX(0:9)
     0-0-0/w STRC(9)     r     1 TBL_SIX_TEN(0:9)
     0-0-0/w STRC(9)     r     1 TBL_SIX_THIRTY(0:7)
     0-0-0/d STRC(1971)  r     1 TH_CONSTRAINTS             0-0-0/b BIT         r     1 TH_DETAIL_FLG
     0-0-0/b BIT         r     1 TH_EOF_FLG                 0-0-0/b BIT         r     1 TH_FEPERR_FLG
     0-0-0/b BIT         r     1 TH_FIRST_TIME              0-0-0/d STRC(72)    r     1 TH_INFO
     0-0-0/b BIT         r     1 TH_IOERR_FLG               0-0-0/w UBIN        r     1 TH_ITYPE
     0-0-0/w SBIN        r     1 TH_LASTTYPE                0-0-0/w CHAR(2)     r     1 TH_LAST_DEVTYPE
     0-0-0/w UBIN        r     1 TH_LAST_REQID              0-0-0/w UBIN        r     1 TH_NUM_DEVS
     0-0-0/b BIT         r     1 TH_RAW_FLG                 0-0-0/d STRC(72)    r     1 TH_RECORD
     0-0-0/b BIT         r     1 TH_RECOV
     0-0-0/w STRC(144)   r     1 TH_SYS_DEVS(0:511)
     0-0-0/c CHAR(11)    r     1 TH_TIME                    0-0-0/w BIT (72)    r     1 TH_XSA_BUF_VECTOR
     0-0-0/w STRC(117)   r     1 X_DEV_TYPE(0:8191)

  ****  BASED and DCB variables  ****

  ****  Scalars and arrays  ****
OctLoc.c.b A Datatyp(siz) R M Lvl/name                 OctLoc.c.b A Datatyp(siz) R M Lvl/name

     0-0-0/d STRC(144)   r     1 CTL                        0-0-0/w STRC(333)   r     1 DEVTBL(0:207)
     0-0-0/w STRC(90)    r     1 DEV_OP_TBL(0:30)
     0-0-0/c STRC(99)    r     1 DFNAME                     0-0-0/w STRC(576)   r     1 DISK_STATS
     0-0-0/w STRC(288)   r     1 DP_FORM_TBL(0:15)
     0-0-0/w STRC(1332)  r     1 EL$ANLZ                    0-0-0/w STRC(540)   r     1 EL$CGERR
     0-0-0/w STRC(72)    r     1 EL$CHANTRAN                0-0-0/w STRC(243)   r     1 EL$CHNGAARD
     0-0-0/w STRC(216)   r     1 EL$CMPSTRT                 0-0-0/w STRC(180)   r     1 EL$CP6SAYS
     0-0-0/w STRC(756)   r     1 EL$DEVSTATS                0-0-0/w STRC(324)   r     1 EL$DIAG
     0-0-0/w STRC(396)   r     1 EL$EDAC                    0-0-0/w STRC(396)   r     1 EL$EDAC
     0-0-0/w STRC(180)   r     1 EL$FECRASH                 0-0-0/w STRC(1224)  r     1 EL$FEPERR
     0-0-0/w STRC(1044)  r     1 EL$FILERR                  0-0-0/w STRC(73)    r     1 EL$FWLOAD
     0-0-0/d STRC(2556)  r     1 EL$GABRT                   0-0-0/w STRC(1080)  r     1 EL$IOERR
     0-0-0/w STRC(468)   r     1 EL$MIRROR                  0-0-0/w STRC(1332)  r     1 EL$MPCSTATS
PL6.E3A0      #001=THF$RAW File=THF$FORMAT.:E05TSI                               WED 07/30/97 06:08 Page:678
     0-0-0/w STRC(180)   r     1 EL$MSOSSAYS                0-0-0/w STRC(252)   r     1 EL$MTDMT
     0-0-0/w STRC(2700)  r     1 EL$PROCERR                 0-0-0/d STRC(468)   r     1 EL$SCREECH
     0-0-0/w STRC(108)   r     1 EL$SPURINT                 0-0-0/w STRC(306)   r     1 EL$SYSCON
     0-0-0/d STRC(2232)  r     1 EL$SYSID                   0-0-0/w STRC(1332)  r     1 EL$ZAP
     0-0-0/w STRC(1224)  r     1 EURC_STATS                 0-0-0/w STRC(351)   r     1 FCTBL(0:71)
     0-0-0/w STRC        r     1 FC_TEMP                    0-0-0/w STRC(396)   r     1 MDS_STATS
     0-0-0/w STRC(414)   r     1 MDS_TBL(0:25)
     0-0-0/w STRC(405)   r     1 PARAM_TBL(0:7)
     0-0-0/w STRC(216)   r     1 RECORD                     0-0-0/w STRC(369)   r     1 SPTBL(0:6)
     0-0-0/c ACHR        r     1 SP_CHAR                    0-0-0/c STRC(135)   r     1 TBUF
     0-0-0/c ASTR(9)     r     1 TBUF                       0-0-0/c STRC(117)   r     1 TBUF
     0-0-0/w STRC        r     1 XST_TEMP


   Procedure THF$RAW requires 11633 words for executable code.
   Procedure THF$RAW requires 366 words of local(AUTO) storage.
PL6.E3A0      #001=THF$RAW File=THF$FORMAT.:E05TSI                               WED 07/30/97 06:08 Page:679
          *** CROSS REFERENCE LISTING ***
**     DENOTES     IDENTIFIER DEFINITION
<<                 IDENTIFIER'S VALUE SET
>>                 IDENTIFIER'S VALUE USED
<>                 IDENTIFIER SET AND/OR USED
--                 IDENTIFIER REFERENCED
PL6.E3A0      #001=THF$RAW File=THF$FORMAT.:E05TSI                               WED 07/30/97 06:08 Page:680
          MINI XREF LISTING

ADD_TEXTC
      4873**PROC     3814--CALL     3817--CALL     3818--CALL     3820--CALL     3824--CALL     3825--CALL
      3827--CALL     3828--CALL     3832--CALL     3834--CALL     3836--CALL     3838--CALL     3840--CALL
      3842--CALL     3845--CALL     3847--CALL     3849--CALL     3851--CALL     3853--CALL     3855--CALL
      3857--CALL     3859--CALL     3864--CALL     3875--CALL     3878--CALL     3951--CALL     3953--CALL
      3955--CALL     3957--CALL     3961--CALL     3963--CALL     3965--CALL     3967--CALL     3970--CALL
      3971--CALL     3977--CALL     3981--CALL     3991--CALL     3993--CALL     3997--CALL     3998--CALL
      4001--CALL     4003--CALL     4005--CALL     4007--CALL     4009--CALL     4014--CALL     4016--CALL
      4018--CALL     4020--CALL     4022--CALL     4026--CALL     4056--CALL     4057--CALL     4059--CALL
      4060--CALL     4061--CALL     4063--CALL     4064--CALL     4065--CALL     4067--CALL     4081--CALL
      4082--CALL     4087--CALL     4088--CALL     4089--CALL     4091--CALL     4092--CALL     4096--CALL
      4098--CALL     4099--CALL     4103--CALL     4108--CALL     4114--CALL     4118--CALL     4120--CALL
      4122--CALL     4124--CALL     4126--CALL     4128--CALL     4130--CALL     4132--CALL     4134--CALL
      4136--CALL     4138--CALL     4140--CALL     4142--CALL     4144--CALL     4146--CALL     4148--CALL
      4150--CALL     4152--CALL     4154--CALL     4156--CALL     4158--CALL     4162--CALL     4164--CALL
      4166--CALL     4168--CALL     4170--CALL     4172--CALL     4174--CALL     4176--CALL     4178--CALL
      4180--CALL     4190--CALL     4196--CALL     4198--CALL     4200--CALL     4202--CALL     4204--CALL
      4210--CALL     4212--CALL     4214--CALL     4219--CALL     4221--CALL     4223--CALL     4225--CALL
      4227--CALL     4229--CALL     4231--CALL     4233--CALL     4238--CALL     4240--CALL     4242--CALL
      4244--CALL     4246--CALL     4248--CALL     4250--CALL     4256--CALL     4258--CALL     4260--CALL
      4262--CALL     4264--CALL     4266--CALL     4268--CALL     4270--CALL     4272--CALL     4274--CALL
      4276--CALL     4278--CALL     4280--CALL     4282--CALL     4284--CALL     4286--CALL     4288--CALL
      4293--CALL     4295--CALL     4297--CALL     4340--CALL     4342--CALL     4343--CALL     4609--CALL
      4612--CALL     4619--CALL     4622--CALL     4625--CALL     4627--CALL     5635--CALL     5637--CALL
ALL_MATCH
      3169**DCL      5025<<ASSIGN   5105<<ASSIGN   5114<<ASSIGN   5275>>IF       5319>>IF       5585<<ASSIGN
      5612<<ASSIGN
ASCII_EXTST
      3003**DCL      4307<<ASSIGN   5038<<ASSIGN   5060<<ASSIGN
ASCII_EXTST.BYT
      3005**DCL      4309>>ASSIGN   5040>>ASSIGN   5062>>ASSIGN
B$JIT.CPFLAGS1.SLEAZE
PL6.E3A0      #001=THF$RAW File=THF$FORMAT.:E05TSI                               WED 07/30/97 06:08 Page:681
       204**DCL       204--REDEF
B$JIT.ERR.MID
       111**DCL       111--REDEF
B$JIT.JRESPEAK
       272**DCL       273--REDEF
B$JIT.ORIGINATOR_PORT.FROM_CR
       381**DCL       381--REDEF     382--REDEF
B$JIT.PNR
       285**DCL       285--REDEF
B$JIT.TSLINE
       379**DCL       380--REDEF
B$JIT$
      2809**DCL       105--IMP-PTR
BINHEX
      3001**DCL      5836>>CALLBLT  5836>>CALLBLT  5840>>CALLBLT  5840>>CALLBLT  5865>>CALLBLT  5866>>CALLBLT
      5870>>CALLBLT  5870>>CALLBLT  5874>>CALLBLT  5874>>CALLBLT  5878>>CALLBLT  5878>>CALLBLT  5878>>CALLBLT
      5890>>CALLBLT  5912>>CALLBLT  5912>>CALLBLT  5918>>CALLBLT  5918>>CALLBLT  5984>>CALLBLT  5984>>CALLBLT
      5986>>CALLBLT  5986>>CALLBLT  6074>>CALLBLT  6074>>CALLBLT  6076>>CALLBLT  6076>>CALLBLT  6117>>CALLBLT
      6117>>CALLBLT  6119>>CALLBLT  6119>>CALLBLT  6155>>CALLBLT  6155>>CALLBLT  6157>>CALLBLT  6157>>CALLBLT
      6179>>CALLBLT  6179>>CALLBLT  6179>>CALLBLT  6179>>CALLBLT  6196>>CALLBLT  6196>>CALLBLT  6196>>CALLBLT
      6196>>CALLBLT  6231>>CALLBLT  6231>>CALLBLT  6256>>ASSIGN   6257>>ASSIGN   6288>>CALLBLT  6288>>CALLBLT
      6332>>CALLBLT  6332>>CALLBLT  6334>>CALLBLT  6334>>CALLBLT  6361>>CALLBLT  6361>>CALLBLT  6361>>CALLBLT
      6361>>CALLBLT  6370>>CALLBLT  6370>>CALLBLT  6377>>CALLBLT  6377>>CALLBLT  6400>>CALLBLT  6400>>CALLBLT
      6402>>CALLBLT  6402>>CALLBLT  6427>>CALLBLT  6427>>CALLBLT  6431>>CALLBLT  6431>>CALLBLT  6457>>CALLBLT
      6457>>CALLBLT  6459>>CALLBLT  6459>>CALLBLT  6486>>CALLBLT  6486>>CALLBLT  6488>>CALLBLT  6488>>CALLBLT
      6501>>CALLBLT  6501>>CALLBLT  6503>>CALLBLT  6503>>CALLBLT  6517>>CALLBLT  6517>>CALLBLT  6517>>CALLBLT
      6517>>CALLBLT  6529>>CALLBLT  6529>>CALLBLT  6529>>CALLBLT  6529>>CALLBLT  6546>>CALLBLT  6546>>CALLBLT
      6571>>ASSIGN   6572>>ASSIGN   6603>>CALLBLT  6603>>CALLBLT  6647>>CALLBLT  6647>>CALLBLT  6649>>CALLBLT
      6649>>CALLBLT  6676>>CALLBLT  6676>>CALLBLT  6685>>CALLBLT  6685>>CALLBLT  6832>>CALLBLT  6832>>CALLBLT
      6839>>CALLBLT  6839>>CALLBLT  6847>>CALLBLT  6847>>CALLBLT  6847>>CALLBLT  6847>>CALLBLT  6894>>CALLBLT
      6894>>CALLBLT  6896>>CALLBLT  6896>>CALLBLT
BIT# IN PROCEDURE EDAC
      4945**DCL      4984<<ASSIGN   4986>>IF       4993>>IF       4996>>CALLBLT  5001>>CALLBLT  5005<<ASSIGN
      5006>>IF       5014>>ASSIGN
BIT_4K IN PROCEDURE EDAC
      4923**DCL      4984>>ASSIGN
PL6.E3A0      #001=THF$RAW File=THF$FORMAT.:E05TSI                               WED 07/30/97 06:08 Page:682
BIT_64K IN PROCEDURE EDAC
      4952**DCL      5005>>ASSIGN
BIT_CNT
      3108**DCL      4767<<ASSIGN   4768>>IF       4782>>CALLBLT  4782>>CALLBLT  4785>>ASSIGN
BOARD IN PROCEDURE EDAC
      4948**DCL      4922--PROC     4988<<ASSIGN   4992<<ASSIGN   5008<<ASSIGN   5012<<ASSIGN
BOARD_4K IN PROCEDURE EDAC
      4941**DCL      4992>>ASSIGN
BOARD_64K IN PROCEDURE EDAC
      4966**DCL      5012>>ASSIGN
BORD
      2817**DCL      3969<>CALL     3970<>CALL
BUILDTIME
      4835**PROC     3811--CALL     4106--CALL
CHECK_MODEL_CODES
      5422**PROC     5274--CALL
CHIP IN PROCEDURE EDAC
      4949**DCL      4922--PROC     4989<<ASSIGN   4996<<CALLBLT  5001<<CALLBLT  5009<<ASSIGN   5015<<CALLBLT
CHIP# IN PROCEDURE EDAC
      4947**DCL      4995<<CALLBLT  4996>>CALLBLT  5000<<CALLBLT  5001>>CALLBLT
CHIP_64K_CHAR IN PROCEDURE EDAC
      4961**DCL      5015>>CALLBLT
CHIP_64K_LET IN PROCEDURE EDAC
      4963**DCL      5015>>CALLBLT
CHIP_LTTR IN PROCEDURE EDAC
      4943**DCL      4996>>CALLBLT  5001>>CALLBLT
CHP
      2816**DCL      3969<>CALL     3971<>CALL
COMPONENT_FMT
      3135**DCL      5043<>CALL     5164<>CALL
COMPONENT_HDR
      3131**DCL      3135--DCLINIT
COMP_OP IN PROCEDURE THF$IOERR
      5102**LABEL    5098--GOTO
CONT_NEXT_I IN PROCEDURE THF$IOERR
      5268**LABEL    5244--GOTO     5252--GOTO     5258--GOTO     5262--GOTO
PL6.E3A0      #001=THF$RAW File=THF$FORMAT.:E05TSI                               WED 07/30/97 06:08 Page:683
CPUN
      3056**DCL      4094<<CALLBLT  4095>>CALLBLT
CPU_DEVN
      3059**DCL      4093<<ASSIGN   4095<<CALLBLT  4096<>CALL
CTL.FMT
      3338**DCL      4673<>CALL     4679<>CALL     4694<>CALL     5137<>CALL     5642<>CALL
CTL.HDRFLG
      3334**DCL      4683>>IF
CTL.NFMT
      3333**DCL      4689>>DOINDEX  5135>>DOINDEX  5641>>DOINDEX
CTL.NHDR
      3332**DCL      4672>>DOINDEX  4678>>DOINDEX  4689>>DOINDEX  4689>>DOINDEX  5135>>DOINDEX  5135>>DOINDEX
      5641>>DOINDEX  5641>>DOINDEX
CTL.SPECIAL
      3335**DCL      4696>>IF       5153>>IF
CTL$
      2889**DCL      3331--IMP-PTR  3777<<ASSIGN   3778>>IF       4551<<ASSIGN   4672>>DOINDEX  4673>>CALL
      4678>>DOINDEX  4679>>CALL     4683>>IF       4689>>DOINDEX  4689>>DOINDEX  4689>>DOINDEX  4694>>CALL
      4696>>IF       5135>>DOINDEX  5135>>DOINDEX  5135>>DOINDEX  5137>>CALL     5153>>IF       5641>>DOINDEX
      5641>>DOINDEX  5641>>DOINDEX  5642>>CALL
CTRL_ERR_TBL.CODE
      1680**DCL      5725>>IF
CTRL_ERR_TBL.COUNT
      1680**DCL      5728>>ASSIGN
CTRL_ERR_TBL.TEXT
      1680**DCL      5727>>ASSIGN
CYL
      3052**DCL      3806<<ASSIGN   3907<<ASSIGN   3911<<ASSIGN   3916<<ASSIGN   3920<<ASSIGN   3924<<ASSIGN
      4511<<ASSIGN   4515<<ASSIGN   4520<<ASSIGN   4524<<ASSIGN   4528<<ASSIGN   4660>>CALLBLT
DBUF
      2951**DCL      3256--DCLINIT  3257--DCLINIT  3783--CALL
DECODE_CMD_STAT
      6753**PROC     6220--CALL     6511--CALL
DECODE_DRIVE_STAT
      6703**PROC     6190--CALL     6496--CALL
DECODE_PARAM_3X
PL6.E3A0      #001=THF$RAW File=THF$FORMAT.:E05TSI                               WED 07/30/97 06:08 Page:684
      6821**PROC     6223--CALL     6313--CALL     6318--CALL     6480--CALL     6538--CALL     6628--CALL
      6633--CALL
DECODE_PARAM_51
      6887**PROC     5942--CALL
DECODE_PARAM_X2
      5977**PROC     5945--CALL
DECODE_PARAM_X3
      6058**PROC     5947--CALL
DECODE_PARAM_X4
      6067**PROC     5949--CALL
DECODE_PARAM_X5
      6110**PROC     5951--CALL
DECODE_PARAM_X6
      6148**PROC     5953--CALL
DECODE_PARAM_X7
      6325**PROC     5955--CALL
DECODE_PARAM_X8
      6393**PROC     5957--CALL
DECODE_PARAM_X9
      6450**PROC     5959--CALL
DECODE_PARAM_XA
      6640**PROC     5961--CALL
DEV$
      2955**DCL      2956--IMP-PTR  4382<<ASSIGN   4395>>IF       4395>>IF       4395>>IF       4395>>IF
      4395>>IF       4401>>DOCASE   4414>>IF       4419>>IF       4446>>IF       4446>>IF       4446>>IF
      4449>>DOCASE   4454>>IF       4454>>IF       4464>>IF       4477>>IF       4493>>IF       4495>>ASSIGN
      4496>>ASSIGN   5197<<ASSIGN   5208>>IF       5208>>IF       5208>>IF       5208>>IF       5208>>IF
      5213>>DOCASE   5226>>IF       5231>>IF       5248>>IF       5248>>IF       5248>>IF       5249>>DOCASE
      5254>>IF       5254>>IF       5265>>IF       5266>>ASSIGN   5267>>ASSIGN   5285>>IF       5287>>IF
      5287>>IF       5300>>IF       5302>>IF       5306>>IF       5342>>DOCASE   5374>>DOCASE   5394>>DOCASE
      5427>>IF       5433>>IF       5433>>IF       5433>>IF       5433>>IF       5436>>IF       5436>>IF
      5441>>IF       5449>>IF       5454>>IF       5488>>IF       5516>>IF       5538>>IF       5563>>IF
      5660>>IF       5662>>IF       5675>>IF       5679>>IF       5683>>IF       5687>>IF       5691>>IF
      5695>>IF       5721>>IF       5734>>IF       5748>>ASSIGN   5749>>ASSIGN   5761>>IF       5774>>IF
      5784>>IF       5795>>IF       5797>>ASSIGN   5797>>ASSIGN   5813>>ASSIGN   5814>>ASSIGN   5815>>IF
      5826>>ASSIGN   5835>>IF       5839>>IF       5843>>IF       5864>>IF       5869>>IF       5873>>IF
PL6.E3A0      #001=THF$RAW File=THF$FORMAT.:E05TSI                               WED 07/30/97 06:08 Page:685
      5877>>IF       5882>>IF       5882>>IF       5885>>CALLBLT  5885>>CALLBLT  5886>>ASSIGN   5889>>IF
      5910>>IF       5916>>IF       5938>>IF       5938>>IF       5940>>ASSIGN   5991>>DOINDEX  5991>>DOINDEX
      6008>>IF       6026>>IF       6037>>IF       6085>>DOINDEX  6085>>DOINDEX  6128>>DOINDEX  6128>>DOINDEX
      6163>>DOINDEX  6163>>DOINDEX  6343>>DOINDEX  6343>>DOINDEX  6411>>DOINDEX  6411>>DOINDEX  6468>>DOINDEX
      6468>>DOINDEX  6658>>DOINDEX  6658>>DOINDEX  6706>>DOINDEX  6706>>DOINDEX  6902>>DOINDEX  6902>>DOINDEX
DEVICE_CMND.COUNT
      1691**DCL      5072>>ASSIGN   5323>>ASSIGN
DEVICE_CMND.DEV
      1691**DCL      5070>>IF       5321>>IF
DEVICE_CMND.SUB$
      1691**DCL      5071>>ASSIGN   5322>>ASSIGN
DEVTBL.CODE
      2957**DCL      4395>>IF       4395>>IF       4395>>IF       4395>>IF       4395>>IF       4401>>DOCASE
      4414>>IF       4419>>IF       4446>>IF       4446>>IF       4446>>IF       4449>>DOCASE   4454>>IF
      4454>>IF       4464>>IF       4477>>IF       4493>>IF       5208>>IF       5208>>IF       5208>>IF
      5208>>IF       5208>>IF       5213>>DOCASE   5226>>IF       5231>>IF       5248>>IF       5248>>IF
      5248>>IF       5249>>DOCASE   5254>>IF       5254>>IF       5265>>IF       5285>>IF       5287>>IF
      5287>>IF       5300>>IF       5302>>IF       5306>>IF       5342>>DOCASE   5374>>DOCASE   5394>>DOCASE
      5427>>IF       5433>>IF       5433>>IF       5433>>IF       5433>>IF       5436>>IF       5436>>IF
      5441>>IF       5449>>IF       5454>>IF       5488>>IF       5516>>IF       5538>>IF       5563>>IF
      5660>>IF       5662>>IF       5675>>IF       5679>>IF       5683>>IF       5687>>IF       5691>>IF
      5695>>IF       5721>>IF       5734>>IF       5761>>IF       5774>>IF       5784>>IF       5795>>IF
      5815>>IF       5835>>IF       5839>>IF       5843>>IF       5864>>IF       5869>>IF       5873>>IF
      5877>>IF       5882>>IF       5882>>IF       5889>>IF       5910>>IF       5916>>IF       5938>>IF
      5938>>IF       5940>>ASSIGN   5991>>DOINDEX  5991>>DOINDEX  6008>>IF       6026>>IF       6037>>IF
      6085>>DOINDEX  6085>>DOINDEX  6128>>DOINDEX  6128>>DOINDEX  6163>>DOINDEX  6163>>DOINDEX  6343>>DOINDEX
      6343>>DOINDEX  6411>>DOINDEX  6411>>DOINDEX  6468>>DOINDEX  6468>>DOINDEX  6658>>DOINDEX  6658>>DOINDEX
      6706>>DOINDEX  6706>>DOINDEX  6902>>DOINDEX  6902>>DOINDEX
DEVTBL.COUNT
      2958**DCL      4496>>ASSIGN   5267>>ASSIGN   5749>>ASSIGN   5797>>ASSIGN   5814>>ASSIGN   5885>>CALLBLT
      5886>>ASSIGN
DEVTBL.TEXT
      2959**DCL      4495>>ASSIGN   5266>>ASSIGN   5748>>ASSIGN   5797>>ASSIGN   5813>>ASSIGN   5826>>ASSIGN
      5885>>CALLBLT
DEV_FLAG
      2954**DCL      4367<<ASSIGN   4383<<ASSIGN   4389>>IF       5186<<ASSIGN   5198<<ASSIGN   5204>>IF
PL6.E3A0      #001=THF$RAW File=THF$FORMAT.:E05TSI                               WED 07/30/97 06:08 Page:686
DEV_OP$
      3170**DCL      3171--IMP-PTR  5071<<ASSIGN   5077>>IF       5078>>ASSIGN   5322<<ASSIGN   5327>>IF
      5329>>ASSIGN
DEV_OP_TBL.CODE
      3172**DCL      5077>>IF       5327>>IF
DEV_OP_TBL.TEXT
      3174**DCL      5078>>ASSIGN   5329>>ASSIGN
DFNAME
      2884**DCL      3867--ASSIGN   3871--ASSIGN
DFNAME.DF
      2886**DCL      3868<<ASSIGN
DFNAME.MONID
      2887**DCL      3869<<ASSIGN
DFNAME.N
      2885**DCL      3867<<ASSIGN
DFNAME.SCOUNT
      2888**DCL      3870<<CALLBLT
DISK_STATS.CNT_CHK_ALERTS
      2909**DCL      4540>>ASSIGN
DISK_STATS.DATA_CHK_ALERTS
      2908**DCL      4540>>ASSIGN
DISK_STATS.DLI_PARITY_ERRS
      2910**DCL      4540>>ASSIGN
DISK_STATS.HDR_VER_ERRS
      2906**DCL      4538>>ASSIGN
DISK_STATS.LATENCY_RETRIES
      2914**DCL      4540>>ASSIGN
DISK_STATS.SEARCH_ALERTS
      2916**DCL      4540>>ASSIGN
DISK_STATS.SEEK_INCOMPLETES
      2905**DCL      4538>>ASSIGN
DISK_STATS.TRANS_TIMING_ERRS
      2907**DCL      4540>>ASSIGN
DPC$
      3128**DCL      3124--IMP-PTR  5524<<ASSIGN   5530<<ASSIGN   5543>>IF       5545>>ASSIGN   5546>>ASSIGN
DP_BIT
PL6.E3A0      #001=THF$RAW File=THF$FORMAT.:E05TSI                               WED 07/30/97 06:08 Page:687
      3119**DCL      3120--REDEF    3121--REDEF    5517<<ASSIGN   5518<<ASSIGN   5539<<ASSIGN   5540<<ASSIGN
DP_FORMAT
      3120**DCL      5522>>IF       5528>>IF
DP_FORM_MSG
      3121**DCL      5543>>IF
DP_FORM_TBL.CODE
      3125**DCL      5543>>IF
DP_FORM_TBL.COUNT
      3126**DCL      5546>>ASSIGN
DP_FORM_TBL.TEXT
      3127**DCL      5545>>ASSIGN
DP_POSITION
      3073**DCL      4663<>CALL
DP_POSITION.CYL
      3074**DCL      4660<<CALLBLT
DP_POSITION.HD
      3076**DCL      4661<<CALLBLT
DP_POSITION.SEC
      3078**DCL      4662<<CALLBLT
DUMP_HDR
      2953**DCL      3783--CALL
DYMFMT
      2847**DCL      4721--CALL
EDAC
      4922**PROC     3969--CALL
EDAC_64K IN PROCEDURE EDAC
      5005**LABEL    4983--GOTO
EL$ANLZ.TXT
      3427**DCL      4111>>DOWHILE  4114<>CALL
EL$CGERR.ACCT
      3519**DCL      3938>>CALLBLT  3940>>CALLBLT
EL$CGERR.FNAME.C
      3520**DCL      3935>>CALLBLT
EL$CGERR.FNAME.L
      3520**DCL      3934>>IF       3935>>CALLBLT  3936>>ASSIGN
EL$CGERR.INFO
PL6.E3A0      #001=THF$RAW File=THF$FORMAT.:E05TSI                               WED 07/30/97 06:08 Page:688
      3520**DCL      4729--CALL
EL$CGERR.PSN
      3519**DCL      3931>>CALLBLT  3932>>CALLBLT
EL$CGERR.SIZ
      3520**DCL      4726>>IF       4729<>CALL
EL$CHANTRAN.STATUS.CHAN
      3634**DCL      4192>>IF       4206>>IF
EL$CHANTRAN.STATUS.CHAN_STAT
      3635**DCL      4194>>DOCASE
EL$CHANTRAN.STATUS.MSOS_REQ
      3635**DCL      4208>>DOCASE
EL$CHNGAARD.ERR
      3650**DCL      4624>>IF
EL$CHNGAARD.NEW
      3650**DCL      4614>>IF
EL$CHNGAARD.NEWCHAN
      3651**DCL      4617>>CALLBLT
EL$CHNGAARD.NEWIOM
      3651**DCL      4615>>CALLBLT
EL$CHNGAARD.OLD
      3650**DCL      4604>>IF
EL$CHNGAARD.OLDCHAN
      3650**DCL      4607>>CALLBLT
EL$CHNGAARD.OLDIOM
      3650**DCL      4605>>CALLBLT
EL$CMPSTRT.LAST_STATE_CHANGE
      3396**DCL      3811<>CALL
EL$CMPSTRT.PNO
      3396**DCL      3816>>IF
EL$CMPSTRT.STATE
      3396**DCL      3812>>DOCASE
EL$CP6SAYS.IDCW.CODE
      3646**DCL      4236>>DOSELCT
EL$CP6SAYS.IDCWE.RC
      3646**DCL      4254>>DOSELCT
EL$CP6SAYS.MLW.FINISH
PL6.E3A0      #001=THF$RAW File=THF$FORMAT.:E05TSI                               WED 07/30/97 06:08 Page:689
      3645**DCL      3645--REDEF
EL$CP6SAYS.MLW.START
      3644**DCL      3645--REDEF
EL$CP6SAYS.REASON
      3644**DCL      4252>>IF       4291>>DOSELCT
EL$DEVSTATS.DEVNM
      3434**DCL      4675>>IF       4682>>ASSIGN
EL$DEVSTATS.FW_NAME
      3434**DCL      4534>>DOSELCT
EL$DEVSTATS.STATISTICS
      3434**DCL      4533--ASSIGN
EL$DIAG.TEST
      3523**DCL      4583>>DOCASE
EL$EDAC.PORT#
      3413**DCL      3949>>DOCASE
EL$EDAC.STORE_UNIT
      3414**DCL      3959>>DOCASE
EL$EDAC.STORE_MODE.A45 IN PROCEDURE EDAC
      4972**DCL      4992>>ASSIGN   5012>>ASSIGN
EL$EDAC.STORE_MODE.A678 IN PROCEDURE EDAC
      4972**DCL      4995>>CALLBLT  5000>>CALLBLT  5012>>ASSIGN   5014>>ASSIGN
EL$EDAC.STORE_MODE.MOSID IN PROCEDURE EDAC
      4973**DCL      4982>>IF
EL$EDAC.STORE_MODE.SYNDROME.NUMB IN PROCEDURE EDAC
      4973**DCL      4984>>ASSIGN   4985>>ASSIGN   5005>>ASSIGN
EL$FECRASH.FENM.PROBLEM
      3385**DCL      4116>>DOCASE
EL$FECRASH.FENM.STATE
      3385**DCL      4160>>DOCASE
EL$FEPERR
      3437**DCL      5592>>ASSIGN   5651>>ASSIGN
EL$FEPERR.STATDATA
      3437**DCL      3974--IF       3976--ASSIGN
EL$FEPERR.STATDATA.ERRCODE
      3452**DCL      3973>>ASSIGN
EL$FEPERR.STATDATA.ERRCODE.ERR#
PL6.E3A0      #001=THF$RAW File=THF$FORMAT.:E05TSI                               WED 07/30/97 06:08 Page:690
      3480**DCL      5607>>IF
EL$FEPERR.STATDATA.ERRCODE.FCG
      3466**DCL      5605>>IF
EL$FEPERR.STATDATA.ERRCODE.SEV
      3480**DCL      5609>>IF
EL$FEPERR.STATDATA.NODE
      3437**DCL      5601>>IF       5648>>IF
EL$FEPERR.STATDATA.TERMID.TERM
      3502**DCL      3511--REDEF
EL$FEPERR.STATDATA.TERMID.TERM.CHANNEL
      3504**DCL      5603>>IF       5648>>IF
EL$FEPERR.X
      3513**DCL      4723--CALL
EL$FILERR.ACCT
      3365**DCL      3890>>CALLBLT  3892>>CALLBLT
EL$FILERR.DEVNM
      3364**DCL      3897>>IF       3900>>IF
EL$FILERR.FNAME.C
      3365**DCL      3887>>CALLBLT
EL$FILERR.FNAME.L
      3365**DCL      3886>>IF       3887>>CALLBLT  3888>>ASSIGN
EL$FILERR.SECTOR
      3363**DCL      3904>>ASSIGN
EL$FILERR.SN
      3364**DCL      3883>>CALLBLT  3884>>CALLBLT
EL$FWLOAD.LOADED
      3368**DCL      3827>>IF
EL$GABRT.ERR
      3418**DCL      3946<>CALL
EL$GABRT.USRERR
      3418**DCL      3947<>CALL
EL$IOERR
      3345**DCL      4355<>CALL     5044>>ASSIGN   5165>>ASSIGN   5174<>CALL
EL$IOERR.CONNECTS.CHANNEL
      3348**DCL      4324>>CALLBLT
EL$IOERR.CONNECTS.DEVICE
PL6.E3A0      #001=THF$RAW File=THF$FORMAT.:E05TSI                               WED 07/30/97 06:08 Page:691
      3348**DCL      4318>>CALLBLT
EL$IOERR.CONNECTS.IOM
      3348**DCL      4321>>CALLBLT
EL$IOERR.CONNECTS.MPC
      3348**DCL      4327>>CALLBLT
EL$IOERR.DEVNM
      3350**DCL      5080>>IF       5163>>IF
EL$IOERR.EXTST
      3349**DCL      4307>>ASSIGN   4309<<ASSIGN   4315<<ASSIGN   4371>>ASSIGN   5038>>ASSIGN   5040<<ASSIGN
      5060>>ASSIGN   5062<<ASSIGN   5066>>ASSIGN   5092>>ASSIGN   5189>>ASSIGN   5205>>ASSIGN
EL$IOERR.IDCW
      3349**DCL      5046>>ASSIGN   5065>>ASSIGN
EL$IOERR.MODEL
      3351**DCL      4312>>IF       4312>>IF       4369>>IF       4375>>IF       4379>>IF       4393>>ASSIGN
      4395>>IF       4395>>IF       4436>>IF       4436>>IF       4436>>IF       4436>>IF       4436>>IF
      4436>>IF       4443>>IF       4443>>IF       4446>>IF       4477>>IF       4477>>IF       4477>>IF
      4477>>IF       4477>>IF       4477>>IF       4477>>IF       4477>>IF       4488>>IF       4488>>IF
      4507>>ASSIGN   4509>>DOSELCT  4698>>IF       4698>>IF       5070>>IF       5086>>IF       5090>>IF
      5188>>IF       5192>>IF       5194>>IF       5195>>IF       5206>>ASSIGN   5208>>IF       5318>>ASSIGN
      5321>>IF       5340>>IF       5340>>IF       5373>>IF       5438>>IF       5438>>IF       5447>>IF
      5452>>IF       6236>>IF       6263>>IF       6293>>IF       6551>>IF       6578>>IF       6608>>IF
EL$IOERR.MPC_MODEL
      3351**DCL      4300>>IF       4300>>IF       4300>>IF       4300>>IF       4300>>IF       4300>>IF
      5031>>IF       5031>>IF       5031>>IF       5031>>IF       5031>>IF       5031>>IF       5053>>IF
      5053>>IF       5053>>IF       5053>>IF       5053>>IF       5053>>IF
EL$IOERR.REQID
      3345**DCL      4341>>IF       4344>>ASSIGN
EL$IOERR.SEEK
      3349**DCL      3350--REDEF
EL$IOERR.SEEK.SECTOR
      3349**DCL      4508>>ASSIGN
EL$IOERR.STATUS
      3345**DCL      3346--REDEF    4347>>ASSIGN   4353<<ASSIGN   5168>>ASSIGN   5172<<ASSIGN
EL$IOERR.STATUS.MAJOR
      3345**DCL      5082>>IF
EL$IOERR.STATUS.MINOR
PL6.E3A0      #001=THF$RAW File=THF$FORMAT.:E05TSI                               WED 07/30/97 06:08 Page:692
      3345**DCL      5084>>IF
EL$IOERR.TAPEPOS.CURECNT
      3350**DCL      4654>>CALLBLT
EL$IOERR.TAPEPOS.FILECNT
      3350**DCL      4653>>CALLBLT
EL$IOERR.THRESH.CHANNEL
      3351**DCL      4323>>IF
EL$IOERR.THRESH.DEVICE
      3351**DCL      4317>>IF
EL$IOERR.THRESH.IOM
      3350**DCL      4320>>IF
EL$IOERR.THRESH.MPC
      3351**DCL      4326>>IF
EL$MIRROR.PRI
      3655**DCL      3996>>IF
EL$MIRROR.STATE.NEW
      3655**DCL      3999>>DOCASE
EL$MPCSTATS.STATS
      3431**DCL      4553--ASSIGN
EL$MSOSSAYS.IDCW.CODE
      3640**DCL      4217>>DOSELCT
EL$MSOSSAYS.MLW.FINISH
      3639**DCL      3639--REDEF
EL$MSOSSAYS.MLW.START
      3638**DCL      3638--REDEF
EL$MTDMT.VOLUME
      3382**DCL      4690>>IF
EL$OSFI.EXPSTAMP
      3371**DCL      3372--REDEF
EL$PROCERR.FC
      3400**DCL      4735>>IF       4738>>ASSIGN   4809>>IF
EL$PROCERR.FLTREG
      3399**DCL      4759>>ASSIGN
EL$PROCERR.HISTREGS
      3403**DCL      4825--CALL
EL$PROCERR.HRSIZE
PL6.E3A0      #001=THF$RAW File=THF$FORMAT.:E05TSI                               WED 07/30/97 06:08 Page:693
      3402**DCL      4822>>IF
EL$PROCERR.PROCTYPE
      3399**DCL      4752>>IF       4752>>IF       4752>>IF       4756>>ASSIGN   4763>>IF       4824>>ASSIGN
EL$PROCERR.SAFESTORE
      3402**DCL      4821--CALL
EL$PROCERR.SAFESTORE.CSHERR
      3402**DCL      4813>>IF
EL$PROCERR.SSSIZE
      3400**DCL      4816>>IF       4820>>ASSIGN
EL$SCREECH.DUMP
      3356**DCL      3863>>IF
EL$SCREECH.MONID
      3356**DCL      3869>>ASSIGN
EL$SCREECH.RTRAP
      3356**DCL      3873>>IF
EL$SCREECH.SCODE
      3355**DCL      3862<>CALL
EL$SCREECH.SCOUNT
      3356**DCL      3870>>CALLBLT
EL$SPURINT.STATE
      3378**DCL      3843>>DOCASE
EL$SPURINT.STATUS.DOWN
      3378**DCL      3830>>IF
EL$SPURINT.STATUS.TND
      3379**DCL      3830>>DOCASE
EL$SYSCON.CHAN
      3423**DCL      4042>>CALLBLT  4068>>CALLBLT
EL$SYSCON.COMPONENT
      3423**DCL      4024>>DOCASE
EL$SYSCON.DEVNM
      3423**DCL      4061<>CALL     4065<>CALL
EL$SYSCON.FUNCTION
      3423**DCL      4012>>DOCASE
EL$SYSCON.IOM
      3423**DCL      4028>>CALLBLT  4085>>CALLBLT  4094>>CALLBLT  4101>>CALLBLT
EL$SYSID.MON_UTS#
PL6.E3A0      #001=THF$RAW File=THF$FORMAT.:E05TSI                               WED 07/30/97 06:08 Page:694
      3539**DCL      4106<>CALL
EL$SYSID.SITE_NAME#.C
      3537**DCL      4108<>CALL
EL$SYSID.SITE_NAME#.L
      3537**DCL      4107>>ASSIGN
EL$ZAP.OPER_TEXT
      3516**DCL      4184>>IF       4187>>DOWHILE  4190<>CALL
ERR IN PROCEDURE ERROR_CODE
      4887**DCL      4886--PROC
ERR.CODE IN PROCEDURE ERROR_CODE
      4890**DCL      4912>>CALLBLT
ERR.FCG IN PROCEDURE ERROR_CODE
      4888**DCL      4900>>IF       4902>>IF       4903>>ASSIGN   4904>>ASSIGN
ERR.MON IN PROCEDURE ERROR_CODE
      4889**DCL      4908>>IF
ERR.SEV IN PROCEDURE ERROR_CODE
      4891**DCL      4914>>CALLBLT
ERROR_CODE
      4886**PROC     3862--CALL     3946--CALL     3947--CALL     3983--CALL     5627--CALL
ERR_MSG
      3129**DCL      3224--DCLINIT  3984<<ASSIGN   3987>>DOWHILE  3990>>ASSIGN   5628<<ASSIGN   5631>>DOWHILE
      5634>>ASSIGN
ERR_MSGS
      3223**DCL      3985<>CALL     5629<>CALL
ERR_MSGS.V
      3227**DCL      3223--DCLINIT
ERR_MSG_ACCT
      3276**DCL      3224--DCLINIT
ERR_MSG_NAME
      3304**DCL      3224--DCLINIT
ERR_MSG_T
      3130**DCL      3990<<ASSIGN   3991<>CALL     5634<<ASSIGN   5635<>CALL
EURC_PR54
      5658**PROC     4442--CALL
EURC_RETURN IN PROCEDURE EURC_PR54
      5754**LABEL    5661--GOTO     5673--GOTO     5707--GOTO     5718--GOTO     5732--GOTO     5745--GOTO
PL6.E3A0      #001=THF$RAW File=THF$FORMAT.:E05TSI                               WED 07/30/97 06:08 Page:695
EURC_STATS.CARDS_PUNCHED
      2934**DCL      4558>>ASSIGN   4558>>ASSIGN   4558>>ASSIGN   4558>>ASSIGN
EURC_STATS.CARDS_READ
      2935**DCL      4554>>ASSIGN   4554>>ASSIGN   4554>>ASSIGN   4554>>ASSIGN
EURC_STATS.LINES_PRINTED
      2942**DCL      4562>>ASSIGN   4562>>ASSIGN   4562>>ASSIGN   4562>>ASSIGN
EURC_STATS.PAGES_PRINTED
      2944**DCL      4566>>ASSIGN   4566>>ASSIGN   4566>>ASSIGN   4566>>ASSIGN
EURC_STATS.RECEIVER_ERRS
      2932**DCL      4574>>ASSIGN   4574>>ASSIGN   4574>>ASSIGN   4574>>ASSIGN
EURC_STATS.TRANSMITTER_ERRS
      2933**DCL      4574>>ASSIGN   4574>>ASSIGN   4574>>ASSIGN   4574>>ASSIGN
EURC_STATS.WORD_TRANSFERS
      2941**DCL      4570>>ASSIGN   4570>>ASSIGN   4570>>ASSIGN   4570>>ASSIGN
EVENFMT
      3036**DCL      4717--CALL
EXTENDED_FMT
      3156**DCL      5155<>CALL
EXTENDED_HDR
      3154**DCL      3156--DCLINIT
FAULT_SYMP_TBL.CODE
      1707**DCL      4469>>IF       5568>>IF
FAULT_SYMP_TBL.COUNT
      1707**DCL      4472>>ASSIGN   5571>>ASSIGN
FAULT_SYMP_TBL.TEXT
      1707**DCL      4471>>ASSIGN   5570>>ASSIGN
FC.COUNT
      1683**DCL      4740>>ASSIGN
FC.TEXT
      1683**DCL      4739>>ASSIGN
FC$
      3084**DCL      3103--IMP-PTR  4733<<ASSIGN   4736<>CALL     4741<>CALL     4744>>ASSIGN   4747<<ASSIGN
      4748<>CALL     4786<>CALL     4797<>CALL     4806>>ASSIGN
FCBUF
      3085**DCL      4732<<ASSIGN   4733--ASSIGN   4743--ASSIGN   4744--ASSIGN   4746<<ASSIGN   4747--ASSIGN
      4804--ASSIGN   4805--ASSIGN   4806--ASSIGN
PL6.E3A0      #001=THF$RAW File=THF$FORMAT.:E05TSI                               WED 07/30/97 06:08 Page:696
FCFLAG
      3107**DCL      4751<<ASSIGN   4761>>IF       4790<<ASSIGN
FCFMT
      3100**DCL      4745--CALL
FCPTR$
      3092**DCL      3093--IMP-PTR  4757<<ASSIGN   4761>>IF       4793>>IF       4795>>ASSIGN   4796>>ASSIGN
FCTBL.CODE
      3094**DCL      4761>>IF       4793>>IF
FCTBL.COUNT
      3095**DCL      4796>>ASSIGN
FCTBL.TEXT
      3096**DCL      4795>>ASSIGN
FCVEC
      3086**DCL      4743<<ASSIGN   4745<>CALL     4805<<ASSIGN   4807<>CALL
FCVEC.BOUND
      3087**DCL      4744<<ASSIGN   4806<<ASSIGN
FC_CNT
      3091**DCL      4740<<ASSIGN   4741<>CALL     4781<<ASSIGN   4782>>CALLBLT  4785<<ASSIGN   4785>>ASSIGN
      4786<>CALL     4796<<ASSIGN   4797<>CALL
FC_TEMP.N
      3104**DCL      4804<<ASSIGN
FC_TEXT
      3090**DCL      4739<<ASSIGN   4741<>CALL     4773<<CALLBLT  4775<<CALLBLT  4777<<CALLBLT  4779<<CALLBLT
      4782<<CALLBLT  4786<>CALL     4795<<ASSIGN   4797<>CALL
FDS_PR71
      3672**DCL      5780<>CALL     5790<>CALL
FDS_PR71.BUFSIZE
      3698**DCL      5781>>ASSIGN   5791>>ASSIGN
FDS_PR71.FMT_
      3676**DCL      5779<<ASSIGN   5789<<ASSIGN
FEPERR_CODE
      2878**DCL      3223--DCLINIT  3973<<ASSIGN   3983<>CALL     5626<<ASSIGN   5627<>CALL
FEPERR_TBL
      3545**DCL      5592<<ASSIGN   5651<<ASSIGN
FEPERR_TBL.STATDATA.ERRCODE
      3560**DCL      5626>>ASSIGN
PL6.E3A0      #001=THF$RAW File=THF$FORMAT.:E05TSI                               WED 07/30/97 06:08 Page:697
FEPERR_TBL.STATDATA.ERRCODE.ERR#
      3588**DCL      5607>>IF
FEPERR_TBL.STATDATA.ERRCODE.FCG
      3574**DCL      5605>>IF
FEPERR_TBL.STATDATA.ERRCODE.SEV
      3588**DCL      5609>>IF
FEPERR_TBL.STATDATA.NODE
      3545**DCL      5601>>IF       5648>>IF
FEPERR_TBL.STATDATA.TERMID.TERM
      3610**DCL      3619--REDEF
FEPERR_TBL.STATDATA.TERMID.TERM.CHANNEL
      3612**DCL      5603>>IF       5648>>IF
FEP_COUNT
      3109**DCL      5587<<ASSIGN   5593<<ASSIGN   5593>>ASSIGN   5611<<ASSIGN   5611>>ASSIGN   5642--CALL
      5645<<ASSIGN   5652<<ASSIGN   5652>>ASSIGN
FEP_FMT
      3205**DCL      5591<>CALL     5650<>CALL
FEP_HDR
      3201**DCL      3205--DCLINIT
FIND_DEN_MODE
      5486**PROC     4451--CALL     5251--CALL
FIND_FAULT_CODE
      5560**PROC     5261--CALL
FIND_FORMAT_MSG
      5513**PROC     4487--CALL
FIND_NINE_TRACKS
      5371**PROC     5269--CALL     5272--CALL
FIND_STATUS_ETC IN PROCEDURE THF$IOERR
      5168**LABEL    5047--GOTO     5106--GOTO     5115--GOTO
FIND_TRACKS
      5338**PROC     5271--CALL
FIPS_TAPE
      3020**DCL      5196<<ASSIGN   5208>>IF       5248>>IF       5268>>IF       5287>>IF       5300>>IF
      5302>>IF       5425>>IF       5480<<ASSIGN
FLTREG_TYPE.COUNT
      1684**DCL      4758>>ASSIGN
PL6.E3A0      #001=THF$RAW File=THF$FORMAT.:E05TSI                               WED 07/30/97 06:08 Page:698
FLTREG_TYPE.SUB$
      1683**DCL      4757>>ASSIGN
FLT_REG
      3097**DCL      3098--REDEF    3099--REDEF    4759<<ASSIGN
FLT_REG_T
      3098**DCL      4793>>IF
FLT_REG_TT
      3099**DCL      4767>>ASSIGN
FMTTBL$
        12**DCL         9--PROC     3777>>ASSIGN   4551>>ASSIGN
FND
      4389**LABEL    4385--GOTO
FND_SP
      4427**LABEL    4423--GOTO
FORM0_NOTB1_B3
      1706**DCL      5524--ASSIGN
FORMAT_TBLS.COUNT
      1698**DCL      5531>>ASSIGN
FORMAT_TBLS.SUB$
      1698**DCL      5530>>ASSIGN
FOUND
      3904**LABEL    3901--GOTO
FOUND_CODE IN PROCEDURE CHECK_MODEL_CODES
      5452**LABEL    5430--GOTO     5444--GOTO
FOUND_ENTRY IN PROCEDURE MPC_PR71
      5802**LABEL    5769--GOTO     5782--GOTO     5792--GOTO
FOUND_FAULT_CODE IN PROCEDURE FIND_FAULT_CODE
      5575**LABEL    5572--GOTO
FOUND_FORMAT IN PROCEDURE FIND_FORMAT_MSG
      5537**LABEL    5526--GOTO     5532--GOTO
FOUND_IT IN PROCEDURE EURC_PR54
      5751**LABEL    5670--GOTO     5704--GOTO     5715--GOTO     5729--GOTO     5742--GOTO
FOUND_OCTET IN PROCEDURE IPC_MDSII
      5969**LABEL    5833--GOTO     5837--GOTO     5841--GOTO     5850--GOTO     5856--GOTO     5861--GOTO
      5867--GOTO     5871--GOTO     5875--GOTO     5880--GOTO     5887--GOTO     5908--GOTO     5914--GOTO
      5924--GOTO     5936--GOTO
PL6.E3A0      #001=THF$RAW File=THF$FORMAT.:E05TSI                               WED 07/30/97 06:08 Page:699
FOUND_SP IN PROCEDURE THF$IOERR
      5239**LABEL    5235--GOTO
FOUND_ST
      3186**DCL      5277>>DOWHILE  5280<<ASSIGN   5289>>DOWHILE  5294<<ASSIGN   5308>>IF       5424<<ASSIGN
      5429<<ASSIGN   5443<<ASSIGN   5450<<ASSIGN   5455<<ASSIGN   5458<<ASSIGN
FOUND_XSTATS IN PROCEDURE THF$IOERR
      5204**LABEL    5200--GOTO
FPT_TIME IN PROCEDURE BUILDTIME
      4849**DCL      4868<>CALL
FPT_TIME.DATE_ IN PROCEDURE BUILDTIME
      4849**DCL      4865<<ASSIGN
FPT_TIME.TIME_ IN PROCEDURE BUILDTIME
      4851**DCL      4864<<ASSIGN
FPT_TIME.TSTAMP_ IN PROCEDURE BUILDTIME
      4852**DCL      4866<<ASSIGN
FPT_TIME.V IN PROCEDURE BUILDTIME
      4853**DCL      4849--DCLINIT
FRFMT
      3101**DCL      4807--CALL
FRU_INDX
      2998**DCL      6274>>IF       6274>>IF       6277>>CALLBLT  6277>>CALLBLT  6279>>ASSIGN   6589>>IF
      6589>>IF       6592>>CALLBLT  6592>>CALLBLT  6594>>ASSIGN
FRU_STR
      3012**DCL      6259>>CALLBLT  6574>>CALLBLT
FRU_STRING
      3006**DCL      3012--REDEF
FRU_STRING.OCTET.NIB1
      3009**DCL      6256<<ASSIGN   6571<<ASSIGN
FRU_STRING.OCTET.NIB2
      3010**DCL      6257<<ASSIGN   6572<<ASSIGN
FT_BIT
      3122**DCL      3123--REDEF    4465<<ASSIGN   4466<<ASSIGN   5564<<ASSIGN   5565<<ASSIGN
FT_CODE
      3123**DCL      4469>>IF       5568>>IF
F_INDX
      2997**DCL      2998--REDEF    6273<<ASSIGN   6588<<ASSIGN
PL6.E3A0      #001=THF$RAW File=THF$FORMAT.:E05TSI                               WED 07/30/97 06:08 Page:700
HD
      3053**DCL      3807<<ASSIGN   3908<<ASSIGN   3912<<ASSIGN   3917<<ASSIGN   3921<<ASSIGN   3925<<ASSIGN
      4512<<ASSIGN   4516<<ASSIGN   4521<<ASSIGN   4525<<ASSIGN   4529<<ASSIGN   4661>>CALLBLT
HEX_NIBBLE
      2979**DCL      5984>>CALLBLT  5984>>CALLBLT  6074>>CALLBLT  6074>>CALLBLT  6117>>CALLBLT  6117>>CALLBLT
      6155>>CALLBLT  6155>>CALLBLT  6332>>CALLBLT  6332>>CALLBLT  6400>>CALLBLT  6400>>CALLBLT  6427>>CALLBLT
      6427>>CALLBLT  6457>>CALLBLT  6457>>CALLBLT  6486>>CALLBLT  6486>>CALLBLT  6501>>CALLBLT  6501>>CALLBLT
      6647>>CALLBLT  6647>>CALLBLT  6676>>CALLBLT  6676>>CALLBLT  6832>>CALLBLT  6832>>CALLBLT  6894>>CALLBLT
      6894>>CALLBLT
HEX_NUM
      2978**DCL      2979--REDEF    5983<<ASSIGN   6073<<ASSIGN   6116<<ASSIGN   6154<<ASSIGN   6331<<ASSIGN
      6399<<ASSIGN   6426<<ASSIGN   6456<<ASSIGN   6485<<ASSIGN   6500<<ASSIGN   6646<<ASSIGN   6675<<ASSIGN
      6831<<ASSIGN   6893<<ASSIGN
I
      2821**DCL      3803<<DOINDEX  3804>>ASSIGN   3882<<ASSIGN   3884>>CALLBLT  3885<<ASSIGN   3885>>ASSIGN
      3887>>CALLBLT  3888<<ASSIGN   3888>>ASSIGN   3892>>CALLBLT  3893<<ASSIGN   3893>>ASSIGN   3895>>ASSIGN
      3896>>CALLBLT  3899<<DOINDEX  3900>>IF       3905>>DOSELCT  3930<<ASSIGN   3932>>CALLBLT  3933<<ASSIGN
      3933>>ASSIGN   3935>>CALLBLT  3936<<ASSIGN   3936>>ASSIGN   3940>>CALLBLT  3941<<ASSIGN   3941>>ASSIGN
      3943>>ASSIGN   3944>>CALLBLT  3986<<ASSIGN   3987>>DOWHILE  3988<<ASSIGN   3988>>ASSIGN   3990>>ASSIGN
      4110<<ASSIGN   4111>>DOWHILE  4112<<ASSIGN   4112>>ASSIGN   4114>>CALL     4114>>CALL     4368<<DOINDEX
      4369>>IF       4377<<ASSIGN   4377>>ASSIGN   4381<<ASSIGN   4381>>ASSIGN   4382>>ASSIGN   4384>>ASSIGN
      4394<<DOINDEX  4395>>IF       4395>>IF       4395>>IF       4395>>IF       4395>>IF       4401>>DOCASE
      4414>>IF       4419>>IF       4446>>IF       4446>>IF       4446>>IF       4449>>DOCASE   4454>>IF
      4454>>IF       4464>>IF       4477>>IF       4493>>IF       4495>>ASSIGN   4496>>ASSIGN   4672<<DOINDEX
      4673>>CALL     4678<<DOINDEX  4679>>CALL     4689<<DOINDEX  4694>>CALL     4734<<ASSIGN   4738<<ASSIGN
      4739>>ASSIGN   4740>>ASSIGN   4749<<ASSIGN   4756<<ASSIGN   4757>>ASSIGN   4758>>ASSIGN   4760<<DOINDEX
      4761>>IF       4793>>IF       4795>>ASSIGN   4796>>ASSIGN   4820<<ASSIGN   4821<>CALL     4824<<ASSIGN
      4825<>CALL     5069<<DOINDEX  5070>>IF       5071>>ASSIGN   5072>>ASSIGN   5076<<DOINDEX  5077>>IF
      5078>>ASSIGN   5135<<DOINDEX  5137>>CALL     5156<<DOINDEX  5157>>CALL     5157>>CALL     5187<<DOINDEX
      5188>>IF       5193<<ASSIGN   5193>>ASSIGN   5194<<ASSIGN   5194>>ASSIGN   5197>>ASSIGN   5199>>ASSIGN
      5207<<DOINDEX  5208>>IF       5208>>IF       5208>>IF       5208>>IF       5208>>IF       5213>>DOCASE
      5226>>IF       5231>>IF       5248>>IF       5248>>IF       5248>>IF       5249>>DOCASE   5254>>IF
      5254>>IF       5265>>IF       5266>>ASSIGN   5267>>ASSIGN   5285>>IF       5285>>IF       5287>>IF
      5287>>IF       5300>>IF       5302>>IF       5304>>IF       5306>>IF       5320<<DOINDEX  5321>>IF
      5322>>ASSIGN   5323>>ASSIGN   5326<<DOINDEX  5327>>IF       5329>>ASSIGN   5342>>DOCASE   5374>>DOCASE
      5394>>DOCASE   5427>>IF       5433>>IF       5433>>IF       5433>>IF       5433>>IF       5436>>IF
PL6.E3A0      #001=THF$RAW File=THF$FORMAT.:E05TSI                               WED 07/30/97 06:08 Page:701
      5436>>IF       5441>>IF       5449>>IF       5454>>IF       5474<<DOINDEX  5475>>ASSIGN   5476>>ASSIGN
      5488>>IF       5516>>IF       5538>>IF       5563>>IF       5630<<ASSIGN   5631>>DOWHILE  5632<<ASSIGN
      5632>>ASSIGN   5634>>ASSIGN   5641<<DOINDEX  5642>>CALL     5660>>IF       5662>>IF       5675>>IF
      5679>>IF       5683>>IF       5687>>IF       5691>>IF       5695>>IF       5721>>IF       5734>>IF
      5748>>ASSIGN   5749>>ASSIGN   5761>>IF       5774>>IF       5784>>IF       5795>>IF       5797>>ASSIGN
      5797>>ASSIGN   5813>>ASSIGN   5814>>ASSIGN   5815>>IF       5826>>ASSIGN   5835>>IF       5839>>IF
      5843>>IF       5864>>IF       5869>>IF       5873>>IF       5877>>IF       5882>>IF       5882>>IF
      5885>>CALLBLT  5885>>CALLBLT  5886>>ASSIGN   5889>>IF       5910>>IF       5916>>IF       5938>>IF
      5938>>IF       5940>>ASSIGN   5991>>DOINDEX  5991>>DOINDEX  6008>>IF       6026>>IF       6037>>IF
      6085>>DOINDEX  6085>>DOINDEX  6128>>DOINDEX  6128>>DOINDEX  6163>>DOINDEX  6163>>DOINDEX  6343>>DOINDEX
      6343>>DOINDEX  6411>>DOINDEX  6411>>DOINDEX  6468>>DOINDEX  6468>>DOINDEX  6658>>DOINDEX  6658>>DOINDEX
      6706>>DOINDEX  6706>>DOINDEX  6902>>DOINDEX  6902>>DOINDEX
I IN PROCEDURE ERROR_CODE
      4897**DCL      4899<<DOINDEX  4900>>IF       4901>>ASSIGN   4902>>IF       4903>>ASSIGN   4903>>ASSIGN
      4904>>ASSIGN   4904>>ASSIGN   4907<<ASSIGN   4909>>CALLBLT  4910<<ASSIGN   4912>>CALLBLT  4913>>CALLBLT
      4914>>CALLBLT
II
      3105**DCL      4413<<DOINDEX  4414>>IF       4415>>ASSIGN   4416>>ASSIGN   4418<<DOINDEX  4419>>IF
      4421>>ASSIGN   4422>>ASSIGN   4427<<DOINDEX  4428>>IF       4430>>ASSIGN   4431>>ASSIGN   4463<<DOINDEX
      4464>>IF       4465>>ASSIGN   4466>>ASSIGN   4468<<DOINDEX  4469>>IF       4471>>ASSIGN   4472>>ASSIGN
      4766<<DOINDEX  4767>>ASSIGN   4771>>DOCASE   5225<<DOINDEX  5226>>IF       5227>>ASSIGN   5228>>ASSIGN
      5230<<DOINDEX  5231>>IF       5233>>ASSIGN   5234>>ASSIGN   5239<<DOINDEX  5240>>IF       5242>>ASSIGN
      5243>>ASSIGN   5515<<DOINDEX  5516>>IF       5517>>ASSIGN   5518>>ASSIGN   5520<<DOINDEX  5522>>IF
      5528>>IF       5530>>ASSIGN   5531>>ASSIGN   5537<<DOINDEX  5538>>IF       5539>>ASSIGN   5540>>ASSIGN
      5542<<DOINDEX  5543>>IF       5545>>ASSIGN   5546>>ASSIGN   5562<<DOINDEX  5563>>IF       5564>>ASSIGN
      5565>>ASSIGN   5567<<DOINDEX  5568>>IF       5570>>ASSIGN   5571>>ASSIGN
ILL_CODE.COUNT
      1686**DCL      4782>>CALLBLT  4785>>ASSIGN
ILL_CODE.TEXT
      1686**DCL      4782>>CALLBLT
INFO
      2812**DCL      3796<<ASSIGN   4673<>CALL     4679<>CALL     4694<>CALL     5030<<ASSIGN   5043<>CALL
      5052<<ASSIGN   5164<>CALL     5590<<ASSIGN   5591<>CALL     5600<<ASSIGN   5650<>CALL
INFO.BOUND
      2813**DCL      3974>>IF       3976>>ASSIGN
INFO.PTR$
PL6.E3A0      #001=THF$RAW File=THF$FORMAT.:E05TSI                               WED 07/30/97 06:08 Page:702
      2815**DCL      3345--IMP-PTR  3355--IMP-PTR  3361--IMP-PTR  3368--IMP-PTR  3371--IMP-PTR  3378--IMP-PTR
      3382--IMP-PTR  3385--IMP-PTR  3390--IMP-PTR  3393--IMP-PTR  3396--IMP-PTR  3399--IMP-PTR  3409--IMP-PTR
      3418--IMP-PTR  3423--IMP-PTR  3427--IMP-PTR  3431--IMP-PTR  3434--IMP-PTR  3437--IMP-PTR  3516--IMP-PTR
      3519--IMP-PTR  3523--IMP-PTR  3536--IMP-PTR  3634--IMP-PTR  3638--IMP-PTR  3644--IMP-PTR  3650--IMP-PTR
      3654--IMP-PTR  3811>>CALL     3812>>DOCASE   3816>>IF       3827>>IF       3830>>IF       3830>>DOCASE
      3843>>DOCASE   3862>>CALL     3863>>IF       3869>>ASSIGN   3870>>CALLBLT  3873>>IF       3883>>CALLBLT
      3884>>CALLBLT  3886>>IF       3887>>CALLBLT  3887>>CALLBLT  3888>>ASSIGN   3890>>CALLBLT  3892>>CALLBLT
      3897>>IF       3900>>IF       3904>>ASSIGN   3931>>CALLBLT  3932>>CALLBLT  3934>>IF       3935>>CALLBLT
      3935>>CALLBLT  3936>>ASSIGN   3938>>CALLBLT  3940>>CALLBLT  3946>>CALL     3947>>CALL     3949>>DOCASE
      3959>>DOCASE   3969<>CALL     3973>>ASSIGN   3996>>IF       3999>>DOCASE   4012>>DOCASE   4024>>DOCASE
      4028>>CALLBLT  4042>>CALLBLT  4061>>CALL     4065>>CALL     4068>>CALLBLT  4085>>CALLBLT  4094>>CALLBLT
      4101>>CALLBLT  4106>>CALL     4107>>ASSIGN   4108>>CALL     4111>>DOWHILE  4114>>CALL     4116>>DOCASE
      4160>>DOCASE   4184>>IF       4187>>DOWHILE  4190>>CALL     4192>>IF       4194>>DOCASE   4206>>IF
      4208>>DOCASE   4217>>DOSELCT  4236>>DOSELCT  4252>>IF       4254>>DOSELCT  4291>>DOSELCT  4300>>IF
      4300>>IF       4300>>IF       4300>>IF       4300>>IF       4300>>IF       4307>>ASSIGN   4309>>ASSIGN
      4312>>IF       4312>>IF       4315>>ASSIGN   4317>>IF       4318>>CALLBLT  4320>>IF       4321>>CALLBLT
      4323>>IF       4324>>CALLBLT  4326>>IF       4327>>CALLBLT  4341>>IF       4344>>ASSIGN   4347>>ASSIGN
      4353>>ASSIGN   4355>>CALL     4369>>IF       4371>>ASSIGN   4375>>IF       4379>>IF       4393>>ASSIGN
      4395>>IF       4395>>IF       4436>>IF       4436>>IF       4436>>IF       4436>>IF       4436>>IF
      4436>>IF       4443>>IF       4443>>IF       4446>>IF       4477>>IF       4477>>IF       4477>>IF
      4477>>IF       4477>>IF       4477>>IF       4477>>IF       4477>>IF       4488>>IF       4488>>IF
      4507>>ASSIGN   4508>>ASSIGN   4509>>DOSELCT  4533>>ASSIGN   4534>>DOSELCT  4553>>ASSIGN   4583>>DOCASE
      4604>>IF       4605>>CALLBLT  4607>>CALLBLT  4614>>IF       4615>>CALLBLT  4617>>CALLBLT  4624>>IF
      4653>>CALLBLT  4654>>CALLBLT  4675>>IF       4682>>ASSIGN   4690>>IF       4698>>IF       4698>>IF
      4723>>CALL     4726>>IF       4729>>CALL     4729>>CALL     4735>>IF       4738>>ASSIGN   4752>>IF
      4752>>IF       4752>>IF       4756>>ASSIGN   4759>>ASSIGN   4763>>IF       4809>>IF       4813>>IF
      4816>>IF       4820>>ASSIGN   4821>>CALL     4822>>IF       4824>>ASSIGN   4825>>CALL     5031>>IF
      5031>>IF       5031>>IF       5031>>IF       5031>>IF       5031>>IF       5038>>ASSIGN   5040>>ASSIGN
      5044>>ASSIGN   5046>>ASSIGN   5053>>IF       5053>>IF       5053>>IF       5053>>IF       5053>>IF
      5053>>IF       5060>>ASSIGN   5062>>ASSIGN   5065>>ASSIGN   5066>>ASSIGN   5070>>IF       5080>>IF
      5082>>IF       5084>>IF       5086>>IF       5090>>IF       5092>>ASSIGN   5163>>IF       5165>>ASSIGN
      5168>>ASSIGN   5172>>ASSIGN   5174>>CALL     5188>>IF       5189>>ASSIGN   5192>>IF       5194>>IF
      5195>>IF       5205>>ASSIGN   5206>>ASSIGN   5208>>IF       5318>>ASSIGN   5321>>IF       5340>>IF
      5340>>IF       5373>>IF       5438>>IF       5438>>IF       5447>>IF       5452>>IF       5592>>ASSIGN
      5601>>IF       5603>>IF       5605>>IF       5607>>IF       5609>>IF       5648>>IF       5648>>IF
      5651>>ASSIGN   6236>>IF       6263>>IF       6293>>IF       6551>>IF       6578>>IF       6608>>IF
PL6.E3A0      #001=THF$RAW File=THF$FORMAT.:E05TSI                               WED 07/30/97 06:08 Page:703
INFOFMT
      2848**DCL      4728--CALL
INIT_TABLES
      5465**PROC     5027--CALL     5162--CALL
IOERR_TBL
      3624**DCL      5044<<ASSIGN   5137--CALL     5139--CALL     5140--CALL     5165<<ASSIGN
IOERR_TBL.DEVNM
      3629**DCL      5080>>IF       5163>>IF
IOERR_TBL.EXTST
      3628**DCL      5067>>ASSIGN   5093>>ASSIGN   5129>>ASSIGN
IOERR_TBL.MODEL
      3630**DCL      5086>>IF       5088>>ASSIGN   5130>>ASSIGN   5131>>IF       5131>>IF       5133>>IF
      5133>>IF       5133>>IF
IOERR_TBL.SEEK
      3628**DCL      3629--REDEF
IOERR_TBL.STATUS
      3624**DCL      3625--REDEF
IOERR_TBL.STATUS.MAJOR
      3624**DCL      5082>>IF
IOERR_TBL.STATUS.MINOR
      3624**DCL      5084>>IF
IOMN
      3055**DCL      4085<<CALLBLT  4086>>CALLBLT
IOM_DEVN
      3058**DCL      4084<<ASSIGN   4086<<CALLBLT  4089<>CALL
IO_MASK
      2970**DCL      2971--REDEF    4371<<ASSIGN   5093<<ASSIGN   5129<<ASSIGN   5189<<ASSIGN   5205<<ASSIGN
      5663>>ASSIGN   5664>>ASSIGN   5697>>ASSIGN   5723>>ASSIGN   5736>>ASSIGN   5762>>ASSIGN   5763>>ASSIGN
      5776>>ASSIGN   5777>>ASSIGN   5786>>ASSIGN   5787>>ASSIGN   5820>>ASSIGN   5823>>ASSIGN   6008>>IF
      6026>>IF       6037>>IF       6823>>ASSIGN   6824>>ASSIGN   6828>>ASSIGN
IO_MASK1
      2971**DCL      4372>>IF       4375>>IF       4375>>IF       4379>>IF       4414>>IF       4454>>IF
      4454>>IF       4464>>IF       4493>>IF       5094>>IF       5095>>IF       5096>>IF       5136>>IF
      5141>>IF       5190>>IF       5192>>IF       5192>>IF       5226>>IF       5254>>IF       5254>>IF
      5265>>IF       5271>>IF       5341>>IF       5433>>IF       5488>>IF       5493>>IF       5498>>IF
      5516>>IF       5522>>IF       5538>>IF       5563>>IF       5660>>IF       5675>>IF       5679>>IF
PL6.E3A0      #001=THF$RAW File=THF$FORMAT.:E05TSI                               WED 07/30/97 06:08 Page:704
      5683>>IF       5687>>IF       5691>>IF       5698>>IF       5709>>IF       5795>>IF       5882>>IF
      5992>>IF       6086>>IF       6129>>IF       6164>>IF       6344>>IF       6412>>IF       6469>>IF
      6659>>IF       6707>>IF       6903>>IF
IO_MASK2
      2973**DCL      5094>>IF       5095>>IF       5096>>IF
IPC_MDSII
      5810**PROC     4491--CALL
J
      2843**DCL      4029<<ASSIGN   4030>>DOWHILE  4031<<ASSIGN   4031>>ASSIGN   4033>>ASSIGN   4038<<ASSIGN
      4040>>CALLBLT  4043<<ASSIGN   4044>>DOWHILE  4045<<ASSIGN   4045>>ASSIGN   4047>>ASSIGN   4052<<ASSIGN
      4054>>CALLBLT  4069<<ASSIGN   4070>>DOWHILE  4071<<ASSIGN   4071>>ASSIGN   4073>>ASSIGN   4078<<ASSIGN
      4080>>CALLBLT  4183<<ASSIGN   4185<<ASSIGN   4187>>DOWHILE  4188<<ASSIGN   4188>>ASSIGN   4190>>CALL
      4190>>CALL     4308<<DOINDEX  4309>>ASSIGN   4309>>ASSIGN   4314<<DOINDEX  4315>>ASSIGN   4329<<ASSIGN
      4330>>DOWHILE  4330>>DOWHILE  4331<<ASSIGN   4331>>ASSIGN   4333>>ASSIGN   4338<<ASSIGN   4340>>CALL
      4384<<ASSIGN   4394>>DOINDEX  4758<<ASSIGN   4760>>DOINDEX  5039<<DOINDEX  5040>>ASSIGN   5040>>ASSIGN
      5061<<DOINDEX  5062>>ASSIGN   5062>>ASSIGN   5068<<ASSIGN   5072<<ASSIGN   5075>>IF       5076>>DOINDEX
      5199<<ASSIGN   5207>>DOINDEX  5277>>DOWHILE  5289>>DOWHILE  5323<<ASSIGN   5326>>DOINDEX
JJ
      3106**DCL      4422<<ASSIGN   4427>>DOINDEX  4764<<ASSIGN   4765<<ASSIGN   4766>>DOINDEX  5234<<ASSIGN
      5239>>DOINDEX
JUNK
      2838**DCL      3883<<CALLBLT  3884>>CALLBLT  3885>>ASSIGN   3890<<CALLBLT  3891>>IF       3892>>CALLBLT
      3893>>ASSIGN   3931<<CALLBLT  3932>>CALLBLT  3933>>ASSIGN   3938<<CALLBLT  3939>>IF       3940>>CALLBLT
      3941>>ASSIGN
LED_TBL.CODE
      1681**DCL      5738>>IF
LED_TBL.COUNT
      1681**DCL      5741>>ASSIGN
LED_TBL.TEXT
      1681**DCL      5740>>ASSIGN
LEN
      2845**DCL      4033<<ASSIGN   4034>>IF       4037<<ASSIGN   4040>>CALLBLT  4040>>CALLBLT  4041>>ASSIGN
      4047<<ASSIGN   4048>>IF       4051<<ASSIGN   4054>>CALLBLT  4054>>CALLBLT  4055>>ASSIGN   4073<<ASSIGN
      4074>>IF       4077<<ASSIGN   4080>>CALLBLT  4080>>CALLBLT  4081>>CALL     4107<<ASSIGN   4108>>CALL
      4108<>CALL     4333<<ASSIGN   4334>>IF       4337<<ASSIGN   4340>>CALL     4340<>CALL
LENN
PL6.E3A0      #001=THF$RAW File=THF$FORMAT.:E05TSI                               WED 07/30/97 06:08 Page:705
      3117**DCL      3116--IMP-SIZ  4403<<ASSIGN   4405<<ASSIGN   4407<<ASSIGN   4409<<ASSIGN   4411<<ASSIGN
      4413>>DOINDEX  4428>>IF       5215<<ASSIGN   5217<<ASSIGN   5219<<ASSIGN   5221<<ASSIGN   5223<<ASSIGN
      5225>>DOINDEX  5240>>IF       5525<<ASSIGN   5531<<ASSIGN   5542>>DOINDEX  5550>>IF
LOC_DATE
      3256**DCL      3781<>CALL
LOC_DATE.V
      3260**DCL      3256--DCLINIT
LOC_UTS
      2950**DCL      3260--DCLINIT  3780<<ASSIGN
M$ERRMSG
        87**DCL-ENT  3985--CALL     5629--CALL
M$TIME
        91**DCL-ENT  3781--CALL     4868--CALL
MAJBUF
      3039**DCL      4355<>CALL     4357<>CALL     5174<>CALL     5175<>CALL
MAJCNT
      3041**DCL      4355<>CALL     4357<>CALL     5174<>CALL     5175<>CALL
MASK
      2819**DCL      3873>>IF
MAX_ENTRY
      2999**DCL      6239<<ASSIGN   6240>>DOINDEX  6265<<ASSIGN   6269<<ASSIGN   6274>>IF       6295<<ASSIGN
      6299<<ASSIGN   6302>>DOINDEX  6554<<ASSIGN   6555>>DOINDEX  6580<<ASSIGN   6584<<ASSIGN   6589>>IF
      6610<<ASSIGN   6614<<ASSIGN   6617>>DOINDEX
MDSFMT
      3035**DCL      4704--CALL
MDSII_FCODE
      1572**DCL      6296--ASSIGN   6611--ASSIGN
MDSII_FRUS
      1562**DCL      6266--ASSIGN   6581--ASSIGN
MDSII_STATUS
      1600**DCL      6238--ASSIGN   6553--ASSIGN
MDSI_FCODE
      1572**DCL      6300--ASSIGN   6615--ASSIGN
MDSI_FRUS
      1562**DCL      6270--ASSIGN   6585--ASSIGN
MDS_CMD_ENDING_STAT.CMD_IDENT
PL6.E3A0      #001=THF$RAW File=THF$FORMAT.:E05TSI                               WED 07/30/97 06:08 Page:706
      2992**DCL      6205>>IF
MDS_CMD_ENDING_STAT.ERROR_CAT
      2994**DCL      6763>>DOCASE
MDS_CMD_ENDING_STAT.ERROR_CODE
      2995**DCL      6770>>CALLBLT  6781>>CALLBLT  6792>>IF       6792>>IF       6794>>CALLBLT  6806>>IF
      6806>>IF       6808>>CALLBLT
MDS_CMD_ENDING_STAT.ERROR_LOC
      2993**DCL      6756>>CALLBLT
MDS_CMD_IDENT.CODE
      1650**DCL      6205>>IF
MDS_CMD_IDENT.COUNT
      1650**DCL      6208>>CALLBLT  6211>>ASSIGN
MDS_CMD_IDENT.TEXT
      1650**DCL      6208>>CALLBLT
MDS_CYL
      3017**DCL      6020<<CALLBLT  6022>>CALLBLT  6857<<CALLBLT  6858>>CALLBLT
MDS_DRIVE_ENDING_STATUS.COUNT
      1510**DCL      6710>>CALLBLT  6712>>ASSIGN
MDS_DRIVE_ENDING_STATUS.TEXT
      1510**DCL      6710>>CALLBLT
MDS_DRIVE_STATUS.OP_END_STATUS
      2989**DCL      6719>>DOCASE
MDS_ERROR_LOC.TEXT
      1651**DCL      6756>>CALLBLT
MDS_HEAD
      3019**DCL      6031<<CALLBLT  6033>>CALLBLT  6866<<CALLBLT  6867>>CALLBLT
MDS_INFO_ERRS.TEXT
      1653**DCL      6808>>CALLBLT
MDS_MISC_ERRS.TEXT
      1652**DCL      6794>>CALLBLT
MDS_OP_CODE_TBL.CODE
      1490**DCL      5845>>IF
MDS_OP_CODE_TBL.COUNT
      1490**DCL      5847>>ASSIGN   5848>>CALLBLT  5860>>ASSIGN
MDS_OP_CODE_TBL.TEXT
      1490**DCL      5848>>CALLBLT  5859>>CALLBLT
PL6.E3A0      #001=THF$RAW File=THF$FORMAT.:E05TSI                               WED 07/30/97 06:08 Page:707
MDS_PARAM_51.SUB$
      1653**DCL      6890>>ASSIGN
MDS_PARAM_ID_TBL.COUNT
      1491**DCL      5921>>CALLBLT  5923>>ASSIGN
MDS_PARAM_ID_TBL.TEXT
      1491**DCL      5921>>CALLBLT
MDS_PARAM_X2.SUB$
      1491**DCL      5980>>ASSIGN
MDS_PARAM_X4.SUB$
      1495**DCL      6070>>ASSIGN
MDS_PARAM_X5.SUB$
      1497**DCL      6113>>ASSIGN
MDS_PARAM_X6.SUB$
      1506**DCL      6153>>ASSIGN
MDS_PARAM_X7.SUB$
      1503**DCL      6328>>ASSIGN
MDS_PARAM_X8.SUB$
      1500**DCL      6396>>ASSIGN
MDS_PARAM_X9.SUB$
      1511**DCL      6453>>ASSIGN
MDS_PARAM_XA.SUB$
      1501**DCL      6643>>ASSIGN
MDS_REG1
      3013**DCL      3014--REDEF    6017<<ASSIGN   6020>>CALLBLT  6029<<ASSIGN   6031>>CALLBLT  6040<<ASSIGN
      6042>>CALLBLT  6854<<ASSIGN   6857>>CALLBLT  6864<<ASSIGN   6866>>CALLBLT  6872<<ASSIGN   6874>>CALLBLT
MDS_REG2.OCTET
      3016**DCL      6018<<ASSIGN   6019<<ASSIGN   6030<<ASSIGN   6041<<ASSIGN   6855<<ASSIGN   6856<<ASSIGN
      6865<<ASSIGN   6873<<ASSIGN
MDS_RW_ERRS.TEXT
      1652**DCL      6781>>CALLBLT
MDS_SECTOR
      3018**DCL      6042<<CALLBLT  6044>>CALLBLT  6874<<CALLBLT  6875>>CALLBLT
MDS_STATS.SEEK_READS
      2925**DCL      4548>>ASSIGN
MDS_STATS.SEEK_WRITES
      2927**DCL      4548>>ASSIGN
PL6.E3A0      #001=THF$RAW File=THF$FORMAT.:E05TSI                               WED 07/30/97 06:08 Page:708
MDS_STATUS_REG1
      2986**DCL      2987--REDEF    6189<<ASSIGN   6495<<ASSIGN
MDS_STATUS_REG2
      2990**DCL      2991--REDEF    6203<<ASSIGN   6219<<ASSIGN   6510<<ASSIGN
MDS_TBL.CODE
      2966**DCL      6241>>IF       6303>>IF       6556>>IF       6618>>IF
MDS_TBL.COUNT
      2967**DCL      6244>>CALLBLT  6246>>ASSIGN   6277>>CALLBLT  6279>>ASSIGN   6306>>CALLBLT  6308>>ASSIGN
      6559>>CALLBLT  6561>>ASSIGN   6592>>CALLBLT  6594>>ASSIGN   6621>>CALLBLT  6623>>ASSIGN
MDS_TBL.TEXT
      2968**DCL      6244>>CALLBLT  6277>>CALLBLT  6306>>CALLBLT  6559>>CALLBLT  6592>>CALLBLT  6621>>CALLBLT
MDS_TBL$
      2964**DCL      2965--IMP-PTR  6238<<ASSIGN   6241>>IF       6244>>CALLBLT  6244>>CALLBLT  6246>>ASSIGN
      6266<<ASSIGN   6270<<ASSIGN   6277>>CALLBLT  6277>>CALLBLT  6279>>ASSIGN   6296<<ASSIGN   6300<<ASSIGN
      6303>>IF       6306>>CALLBLT  6306>>CALLBLT  6308>>ASSIGN   6553<<ASSIGN   6556>>IF       6559>>CALLBLT
      6559>>CALLBLT  6561>>ASSIGN   6581<<ASSIGN   6585<<ASSIGN   6592>>CALLBLT  6592>>CALLBLT  6594>>ASSIGN
      6611<<ASSIGN   6615<<ASSIGN   6618>>IF       6621>>CALLBLT  6621>>CALLBLT  6623>>ASSIGN
MDS_TEXT
      3030**DCL      5812<<ASSIGN   5813<<ASSIGN   5826<<ASSIGN   5828<<ASSIGN   5830<<ASSIGN   5832<<ASSIGN
      5836<<CALLBLT  5840<<CALLBLT  5848<<CALLBLT  5854<<CALLBLT  5859<<CALLBLT  5865<<CALLBLT  5866<<CALLBLT
      5870<<CALLBLT  5874<<CALLBLT  5878<<CALLBLT  5884<<ASSIGN   5885<<CALLBLT  5890<<CALLBLT  5893<<CALLBLT
      5896<<CALLBLT  5899<<CALLBLT  5902<<CALLBLT  5905<<CALLBLT  5912<<CALLBLT  5918<<CALLBLT  5921<<CALLBLT
      5928<<CALLBLT  5932<<CALLBLT  5969<>CALL     5979<<ASSIGN   5984<<CALLBLT  5986<<CALLBLT  5988<>CALL
      5994<<ASSIGN   5995<<CALLBLT  5997<>CALL     6010<<ASSIGN   6011<<CALLBLT  6014<>CALL     6016<<ASSIGN
      6021<<CALLBLT  6022<<CALLBLT  6024<>CALL     6028<<ASSIGN   6032<<CALLBLT  6033<<CALLBLT  6035<>CALL
      6039<<ASSIGN   6043<<CALLBLT  6044<<CALLBLT  6046<>CALL     6069<<ASSIGN   6074<<CALLBLT  6076<<CALLBLT
      6079<>CALL     6088<<ASSIGN   6089<<CALLBLT  6091<>CALL     6112<<ASSIGN   6117<<CALLBLT  6119<<CALLBLT
      6122<>CALL     6131<<ASSIGN   6132<<CALLBLT  6134<>CALL     6150<<ASSIGN   6155<<CALLBLT  6157<<CALLBLT
      6160<>CALL     6166<<ASSIGN   6167<<CALLBLT  6169<>CALL     6177<<CALLBLT  6179<<CALLBLT  6184<>CALL
      6194<<CALLBLT  6196<<CALLBLT  6201<>CALL     6207<<ASSIGN   6208<<CALLBLT  6212<>CALL     6229<<CALLBLT
      6231<<CALLBLT  6234<>CALL     6243<<ASSIGN   6244<<CALLBLT  6247<>CALL     6259<<CALLBLT  6261<>CALL
      6276<<ASSIGN   6277<<CALLBLT  6280<>CALL     6287<<CALLBLT  6288<<CALLBLT  6291<>CALL     6305<<ASSIGN
      6306<<CALLBLT  6309<>CALL     6327<<ASSIGN   6332<<CALLBLT  6334<<CALLBLT  6337<>CALL     6346<<ASSIGN
      6347<<CALLBLT  6349<>CALL     6360<<CALLBLT  6361<<CALLBLT  6366<>CALL     6368<<ASSIGN   6369<<CALLBLT
      6370<<CALLBLT  6373<>CALL     6375<<ASSIGN   6376<<CALLBLT  6377<<CALLBLT  6380<>CALL     6395<<ASSIGN
      6400<<CALLBLT  6402<<CALLBLT  6405<>CALL     6414<<ASSIGN   6415<<CALLBLT  6417<>CALL     6427<<CALLBLT
PL6.E3A0      #001=THF$RAW File=THF$FORMAT.:E05TSI                               WED 07/30/97 06:08 Page:709
      6431<<CALLBLT  6435<<CALLBLT  6437<>CALL     6452<<ASSIGN   6457<<CALLBLT  6459<<CALLBLT  6462<>CALL
      6471<<ASSIGN   6472<<CALLBLT  6474<>CALL     6486<<CALLBLT  6488<<CALLBLT  6493<>CALL     6501<<CALLBLT
      6503<<CALLBLT  6508<>CALL     6515<<CALLBLT  6517<<CALLBLT  6522<>CALL     6527<<CALLBLT  6529<<CALLBLT
      6534<>CALL     6544<<CALLBLT  6546<<CALLBLT  6549<>CALL     6558<<ASSIGN   6559<<CALLBLT  6562<>CALL
      6574<<CALLBLT  6576<>CALL     6591<<ASSIGN   6592<<CALLBLT  6595<>CALL     6602<<CALLBLT  6603<<CALLBLT
      6606<>CALL     6620<<ASSIGN   6621<<CALLBLT  6624<>CALL     6642<<ASSIGN   6647<<CALLBLT  6649<<CALLBLT
      6652<>CALL     6661<<ASSIGN   6662<<CALLBLT  6664<>CALL     6676<<CALLBLT  6679<>CALL     6681<<ASSIGN
      6682<<CALLBLT  6685<<CALLBLT  6690<>CALL     6709<<ASSIGN   6710<<CALLBLT  6713<>CALL     6718<<ASSIGN
      6721<<CALLBLT  6724<<CALLBLT  6727<<CALLBLT  6730<<CALLBLT  6733<<CALLBLT  6736<<CALLBLT  6739<<CALLBLT
      6742<<CALLBLT  6745<>CALL     6755<<ASSIGN   6756<<CALLBLT  6759<>CALL     6761<<ASSIGN   6762<<CALLBLT
      6765<<CALLBLT  6767<>CALL     6769<<ASSIGN   6770<<CALLBLT  6773<>CALL     6776<<CALLBLT  6778<>CALL
      6780<<ASSIGN   6781<<CALLBLT  6784<>CALL     6787<<CALLBLT  6789<>CALL     6791<<ASSIGN   6794<<CALLBLT
      6796<<CALLBLT  6798<>CALL     6801<<CALLBLT  6803<>CALL     6805<<ASSIGN   6808<<CALLBLT  6810<<CALLBLT
      6812<>CALL     6830<<ASSIGN   6832<<CALLBLT  6836<>CALL     6838<<ASSIGN   6839<<CALLBLT  6844<>CALL
      6846<<ASSIGN   6847<<CALLBLT  6851<>CALL     6853<<ASSIGN   6858<<CALLBLT  6861<>CALL     6863<<ASSIGN
      6867<<CALLBLT  6869<>CALL     6871<<ASSIGN   6875<<CALLBLT  6877<>CALL     6889<<ASSIGN   6894<<CALLBLT
      6896<<CALLBLT  6899<>CALL     6905<<ASSIGN   6906<<CALLBLT  6908<>CALL
MDS_TEXT_POSITION
      3031**DCL      6429<<ASSIGN   6431>>CALLBLT  6433<<ASSIGN   6433>>ASSIGN   6435>>CALLBLT  6436>>ASSIGN
      6683<<ASSIGN   6685>>CALLBLT  6687<<ASSIGN   6687>>ASSIGN   6689>>ASSIGN
MDS_TIMEOUT_ERRS.TEXT
      1651**DCL      6770>>CALLBLT
MINBUF
      3040**DCL      4355<>CALL     4358<>CALL     5174<>CALL     5176<>CALL
MINCNT
      3042**DCL      4355<>CALL     4358<>CALL     5174<>CALL     5176<>CALL
MM$
      3044**DCL      3045--IMP-PTR  3800<<ASSIGN   4357<>CALL     4358<>CALL     4361<>CALL     4362<>CALL
      4364>>ASSIGN   4642>>IF       4647>>ASSIGN   5029<<ASSIGN   5051<<ASSIGN   5128>>ASSIGN   5175<>CALL
      5176<>CALL     5179<>CALL     5180<>CALL     5182>>ASSIGN
MMBUF
      3043**DCL      3799<<ASSIGN   3800--ASSIGN   4363--ASSIGN   4364--ASSIGN   4642--IF       4646--ASSIGN
      4647--ASSIGN   5028<<ASSIGN   5029--ASSIGN   5051--ASSIGN   5127--ASSIGN   5128--ASSIGN   5181--ASSIGN
      5182--ASSIGN
MMVEC
      3047**DCL      4363<<ASSIGN   4643<<ASSIGN   4646<<ASSIGN   4673<>CALL     4679<>CALL     4694<>CALL
PL6.E3A0      #001=THF$RAW File=THF$FORMAT.:E05TSI                               WED 07/30/97 06:08 Page:710
      5127<<ASSIGN   5137<>CALL     5139<>CALL     5140<>CALL     5181<<ASSIGN
MMVEC.BOUND
      3048**DCL      4364<<ASSIGN   4647<<ASSIGN   5128<<ASSIGN   5182<<ASSIGN
MODEL_CHAR
      2969**DCL      4393<<ASSIGN   4395>>IF       4507<<ASSIGN   4650>>IF       5088<<ASSIGN   5089>>IF
      5130<<ASSIGN   5136>>IF       5138>>IF       5154>>IF       5206<<ASSIGN   5208>>IF       5270>>IF
      5285>>IF       5304>>IF       5306>>IF       5318<<ASSIGN   5319>>IF
MPC_PR71
      5759**PROC     4445--CALL
MPC_RETURN IN PROCEDURE MPC_PR71
      5805**LABEL    5772--GOTO     5799--GOTO
MT_POSITION
      3069**DCL      4655<>CALL
MT_POSITION.FILE
      3070**DCL      4653<<CALLBLT
MT_POSITION.RECCNT
      3072**DCL      4654<<CALLBLT
N
      3034**DCL      4700<<ASSIGN   4701>>ASSIGN   4708<<ASSIGN   4709>>ASSIGN   4750<<ASSIGN   4787<<ASSIGN
      4787>>ASSIGN   4798<<ASSIGN   4798>>ASSIGN   4802>>IF       4804>>ASSIGN
NEW_DENSE
      3179**DCL      3180--REDEF    5066<<ASSIGN
NEW_DENSE_RDF.DENSITY
      3181**DCL      5100>>IF
NEW_IO_MASK
      2972**DCL      2973--REDEF    5092<<ASSIGN
NEW_OP
      3157**DCL      3158--REDEF    5046<<ASSIGN   5065<<ASSIGN
NEW_OP_RDF
      3158**DCL      5077>>IF       5327>>IF
NEXT_BIT IN PROCEDURE FIND_FORMAT_MSG
      5550**LABEL    5535--GOTO     5547--GOTO
NEXT_I
      4498**LABEL    4432--GOTO     4459--GOTO     4473--GOTO
NEXT_RECORD_PLEASE IN PROCEDURE THF$FEPERR
      5652**LABEL    5595--GOTO     5613--GOTO
PL6.E3A0      #001=THF$RAW File=THF$FORMAT.:E05TSI                               WED 07/30/97 06:08 Page:711
NINE_TRACK_BLNK
      3198**DCL      3199--REDEF    5145<<CALLBLT  5146<<CALLBLT  5146>>CALLBLT  5149--CALL
NINE_TRACK_RDF
      3197**DCL      5144>>IF       5145>>CALLBLT  5363>>IF       5415>>IF
NINE_TRACK_STRING
      3199**DCL      5479<<ASSIGN
NINE_TRACK_TBL
      3187**DCL      3197--REDEF    5478<<ASSIGN
NINE_TRACK_TBL.EIGHT
      3194**DCL      5356<<ASSIGN   5356>>ASSIGN   5388<<ASSIGN   5388>>ASSIGN   5408<<ASSIGN   5408>>ASSIGN
NINE_TRACK_TBL.FIVE
      3190**DCL      5348<<ASSIGN   5348>>ASSIGN   5380<<ASSIGN   5380>>ASSIGN   5400<<ASSIGN   5400>>ASSIGN
NINE_TRACK_TBL.FOUR
      3196**DCL      5360<<ASSIGN   5360>>ASSIGN   5392<<ASSIGN   5392>>ASSIGN   5412<<ASSIGN   5412>>ASSIGN
NINE_TRACK_TBL.NINE
      3192**DCL      5352<<ASSIGN   5352>>ASSIGN   5384<<ASSIGN   5384>>ASSIGN   5404<<ASSIGN   5404>>ASSIGN
NINE_TRACK_TBL.ONE
      3193**DCL      5354<<ASSIGN   5354>>ASSIGN   5386<<ASSIGN   5386>>ASSIGN   5406<<ASSIGN   5406>>ASSIGN
NINE_TRACK_TBL.SEVEN
      3188**DCL      5344<<ASSIGN   5344>>ASSIGN   5376<<ASSIGN   5376>>ASSIGN   5396<<ASSIGN   5396>>ASSIGN
NINE_TRACK_TBL.SIX
      3189**DCL      5346<<ASSIGN   5346>>ASSIGN   5378<<ASSIGN   5378>>ASSIGN   5398<<ASSIGN   5398>>ASSIGN
NINE_TRACK_TBL.THREE
      3191**DCL      5350<<ASSIGN   5350>>ASSIGN   5382<<ASSIGN   5382>>ASSIGN   5402<<ASSIGN   5402>>ASSIGN
NINE_TRACK_TBL.TWO
      3195**DCL      5358<<ASSIGN   5358>>ASSIGN   5390<<ASSIGN   5390>>ASSIGN   5410<<ASSIGN   5410>>ASSIGN
NINE_TRK_FMT
      3149**DCL      5149<>CALL
NINE_TRK_HDR
      3146**DCL      3149--DCLINIT
NON_CODE
      4790**LABEL    4769--GOTO
NON_REG_TBL.CODE
      1682**DCL      5711>>IF
NON_REG_TBL.COUNT
      1682**DCL      5714>>ASSIGN
PL6.E3A0      #001=THF$RAW File=THF$FORMAT.:E05TSI                               WED 07/30/97 06:08 Page:712
NON_REG_TBL.TEXT
      1682**DCL      5713>>ASSIGN
NON_TAPE_FMT
      3145**DCL      5140<>CALL
NON_TAPE_HDR
      3143**DCL      3145--DCLINIT
NOT_ALL_MATCH IN PROCEDURE THF$IOERR
      5127**LABEL    5049--GOTO     5097--GOTO     5108--GOTO     5110--GOTO     5118--GOTO     5120--GOTO
      5122--GOTO     5124--GOTO
NOT_MATCH_AT_ALL IN PROCEDURE THF$FEPERR
      5626**LABEL    5597--GOTO     5615--GOTO     5617--GOTO     5619--GOTO     5621--GOTO     5623--GOTO
NO_INT IN PROCEDURE THF$IOERR
      5318**LABEL    5191--GOTO     5203--GOTO
NO_INTERP
      4506**LABEL    4374--GOTO
NO_LEADING_ZEROS
      3200**DCL      5146>>CALLBLT
NO_MESSAGE IN PROCEDURE THF$FEPERR
      5637**LABEL    5629--CALLALT
NO_MSG
      3993**LABEL    3985--CALLALT
NO_STAT
      4361**LABEL    4355--CALLALT
NO_XSTAT_FMT
      3142**DCL      5139<>CALL
NO_XSTAT_HDR
      3139**DCL      3142--DCLINIT
NUMBYTES
      2850**DCL      3976<<ASSIGN   3980<<ASSIGN   4720>>IF       4722>>ASSIGN
NUMWORDS
      2851**DCL      4722<<ASSIGN   4723<>CALL
NUM_XSTATUS
      3183**DCL      5154>>IF       5156>>DOINDEX  5293<<ASSIGN   5293>>ASSIGN   5309>>ASSIGN   5310>>ASSIGN
      5310>>ASSIGN   5311<<ASSIGN   5311>>ASSIGN   5466<<ASSIGN
NXST
      3033**DCL      4366<<ASSIGN   4501<<ASSIGN   4501>>ASSIGN   4698>>IF       4700>>ASSIGN   4706>>IF
PL6.E3A0      #001=THF$RAW File=THF$FORMAT.:E05TSI                               WED 07/30/97 06:08 Page:713
      4708>>ASSIGN   4710>>IF       5185<<ASSIGN   5314<<ASSIGN   5314>>ASSIGN   5505<<ASSIGN   5505>>ASSIGN
      5553<<ASSIGN   5553>>ASSIGN   5578<<ASSIGN   5578>>ASSIGN   5752<<ASSIGN   5752>>ASSIGN   5803<<ASSIGN
      5803>>ASSIGN   5970<<ASSIGN   5970>>ASSIGN   5989<<ASSIGN   5989>>ASSIGN   5998<<ASSIGN   5998>>ASSIGN
      6015<<ASSIGN   6015>>ASSIGN   6025<<ASSIGN   6025>>ASSIGN   6036<<ASSIGN   6036>>ASSIGN   6047<<ASSIGN
      6047>>ASSIGN   6080<<ASSIGN   6080>>ASSIGN   6092<<ASSIGN   6092>>ASSIGN   6123<<ASSIGN   6123>>ASSIGN
      6135<<ASSIGN   6135>>ASSIGN   6161<<ASSIGN   6161>>ASSIGN   6170<<ASSIGN   6170>>ASSIGN   6185<<ASSIGN
      6185>>ASSIGN   6202<<ASSIGN   6202>>ASSIGN   6213<<ASSIGN   6213>>ASSIGN   6235<<ASSIGN   6235>>ASSIGN
      6248<<ASSIGN   6248>>ASSIGN   6262<<ASSIGN   6262>>ASSIGN   6281<<ASSIGN   6281>>ASSIGN   6292<<ASSIGN
      6292>>ASSIGN   6310<<ASSIGN   6310>>ASSIGN   6338<<ASSIGN   6338>>ASSIGN   6350<<ASSIGN   6350>>ASSIGN
      6367<<ASSIGN   6367>>ASSIGN   6374<<ASSIGN   6374>>ASSIGN   6381<<ASSIGN   6381>>ASSIGN   6406<<ASSIGN
      6406>>ASSIGN   6418<<ASSIGN   6418>>ASSIGN   6438<<ASSIGN   6438>>ASSIGN   6463<<ASSIGN   6463>>ASSIGN
      6475<<ASSIGN   6475>>ASSIGN   6494<<ASSIGN   6494>>ASSIGN   6509<<ASSIGN   6509>>ASSIGN   6523<<ASSIGN
      6523>>ASSIGN   6535<<ASSIGN   6535>>ASSIGN   6550<<ASSIGN   6550>>ASSIGN   6563<<ASSIGN   6563>>ASSIGN
      6577<<ASSIGN   6577>>ASSIGN   6596<<ASSIGN   6596>>ASSIGN   6607<<ASSIGN   6607>>ASSIGN   6625<<ASSIGN
      6625>>ASSIGN   6653<<ASSIGN   6653>>ASSIGN   6665<<ASSIGN   6665>>ASSIGN   6680<<ASSIGN   6680>>ASSIGN
      6691<<ASSIGN   6691>>ASSIGN   6714<<ASSIGN   6714>>ASSIGN   6746<<ASSIGN   6746>>ASSIGN   6760<<ASSIGN
      6760>>ASSIGN   6768<<ASSIGN   6768>>ASSIGN   6774<<ASSIGN   6774>>ASSIGN   6779<<ASSIGN   6779>>ASSIGN
      6785<<ASSIGN   6785>>ASSIGN   6790<<ASSIGN   6790>>ASSIGN   6799<<ASSIGN   6799>>ASSIGN   6804<<ASSIGN
      6804>>ASSIGN   6813<<ASSIGN   6813>>ASSIGN   6837<<ASSIGN   6837>>ASSIGN   6845<<ASSIGN   6845>>ASSIGN
      6852<<ASSIGN   6852>>ASSIGN   6862<<ASSIGN   6862>>ASSIGN   6870<<ASSIGN   6870>>ASSIGN   6878<<ASSIGN
      6878>>ASSIGN   6900<<ASSIGN   6900>>ASSIGN   6909<<ASSIGN   6909>>ASSIGN
OCTET$
      2960**DCL      2961--IMP-PTR  5980<<ASSIGN   5992>>IF       5995>>CALLBLT  5995>>CALLBLT  5996>>ASSIGN
      6021>>CALLBLT  6021>>CALLBLT  6023>>ASSIGN   6032>>CALLBLT  6032>>CALLBLT  6034>>ASSIGN   6043>>CALLBLT
      6043>>CALLBLT  6045>>ASSIGN   6070<<ASSIGN   6086>>IF       6089>>CALLBLT  6089>>CALLBLT  6090>>ASSIGN
      6113<<ASSIGN   6129>>IF       6132>>CALLBLT  6132>>CALLBLT  6133>>ASSIGN   6153<<ASSIGN   6164>>IF
      6167>>CALLBLT  6167>>CALLBLT  6168>>ASSIGN   6328<<ASSIGN   6344>>IF       6347>>CALLBLT  6347>>CALLBLT
      6348>>ASSIGN   6360>>CALLBLT  6360>>CALLBLT  6365>>ASSIGN   6369>>CALLBLT  6369>>CALLBLT  6372>>ASSIGN
      6376>>CALLBLT  6376>>CALLBLT  6379>>ASSIGN   6396<<ASSIGN   6412>>IF       6415>>CALLBLT  6415>>CALLBLT
      6416>>ASSIGN   6453<<ASSIGN   6469>>IF       6472>>CALLBLT  6472>>CALLBLT  6473>>ASSIGN   6643<<ASSIGN
      6659>>IF       6662>>CALLBLT  6662>>CALLBLT  6663>>ASSIGN   6890<<ASSIGN   6903>>IF       6906>>CALLBLT
      6906>>CALLBLT  6907>>ASSIGN
OCTET_BYTE
      2974**DCL      2975--REDEF    5823<<ASSIGN   6018>>ASSIGN   6019>>ASSIGN   6030>>ASSIGN   6041>>ASSIGN
      6189>>ASSIGN   6203>>ASSIGN   6219>>ASSIGN   6241>>IF       6273>>ASSIGN   6303>>IF       6495>>ASSIGN
      6510>>ASSIGN   6556>>IF       6588>>ASSIGN   6618>>IF       6828<<ASSIGN   6855>>ASSIGN   6856>>ASSIGN
PL6.E3A0      #001=THF$RAW File=THF$FORMAT.:E05TSI                               WED 07/30/97 06:08 Page:714
      6865>>ASSIGN   6873>>ASSIGN
OCTET_NIBBLE
      2975**DCL      5986>>CALLBLT  5986>>CALLBLT  6076>>CALLBLT  6076>>CALLBLT  6119>>CALLBLT  6119>>CALLBLT
      6157>>CALLBLT  6157>>CALLBLT  6179>>CALLBLT  6179>>CALLBLT  6179>>CALLBLT  6179>>CALLBLT  6196>>CALLBLT
      6196>>CALLBLT  6196>>CALLBLT  6196>>CALLBLT  6231>>CALLBLT  6231>>CALLBLT  6256>>ASSIGN   6257>>ASSIGN
      6288>>CALLBLT  6288>>CALLBLT  6334>>CALLBLT  6334>>CALLBLT  6361>>CALLBLT  6361>>CALLBLT  6361>>CALLBLT
      6361>>CALLBLT  6370>>CALLBLT  6370>>CALLBLT  6377>>CALLBLT  6377>>CALLBLT  6402>>CALLBLT  6402>>CALLBLT
      6431>>CALLBLT  6431>>CALLBLT  6459>>CALLBLT  6459>>CALLBLT  6488>>CALLBLT  6488>>CALLBLT  6503>>CALLBLT
      6503>>CALLBLT  6517>>CALLBLT  6517>>CALLBLT  6517>>CALLBLT  6517>>CALLBLT  6529>>CALLBLT  6529>>CALLBLT
      6529>>CALLBLT  6529>>CALLBLT  6546>>CALLBLT  6546>>CALLBLT  6571>>ASSIGN   6572>>ASSIGN   6603>>CALLBLT
      6603>>CALLBLT  6649>>CALLBLT  6649>>CALLBLT  6685>>CALLBLT  6685>>CALLBLT  6847>>CALLBLT  6847>>CALLBLT
      6847>>CALLBLT  6847>>CALLBLT  6896>>CALLBLT  6896>>CALLBLT
OCTET_NUM
      3000**DCL      5818<<ASSIGN   5940<<ASSIGN   5980>>ASSIGN   5981>>IF       5981>>IF       5983>>ASSIGN
      5986>>CALLBLT  5986>>CALLBLT  6002>>IF       6006>>IF       6070>>ASSIGN   6071>>IF       6071>>IF
      6073>>ASSIGN   6076>>CALLBLT  6076>>CALLBLT  6082>>IF       6082>>IF       6082>>IF       6096>>IF
      6096>>IF       6101>>IF       6113>>ASSIGN   6114>>IF       6114>>IF       6116>>ASSIGN   6119>>CALLBLT
      6119>>CALLBLT  6125>>IF       6125>>IF       6125>>IF       6139>>IF       6151>>IF       6151>>IF
      6153>>ASSIGN   6154>>ASSIGN   6157>>CALLBLT  6157>>CALLBLT  6175>>IF       6187>>IF       6192>>IF
      6217>>IF       6227>>IF       6253>>IF       6285>>IF       6317>>IF       6328>>ASSIGN   6329>>IF
      6329>>IF       6331>>ASSIGN   6334>>CALLBLT  6334>>CALLBLT  6340>>IF       6340>>IF       6340>>IF
      6354>>IF       6358>>IF       6385>>IF       6397>>IF       6397>>IF       6399>>ASSIGN   6402>>CALLBLT
      6402>>CALLBLT  6408>>IF       6424>>IF       6442>>IF       6453>>ASSIGN   6454>>IF       6454>>IF
      6456>>ASSIGN   6459>>CALLBLT  6459>>CALLBLT  6465>>IF       6465>>IF       6479>>IF       6483>>IF
      6485>>ASSIGN   6488>>CALLBLT  6488>>CALLBLT  6498>>IF       6500>>ASSIGN   6503>>CALLBLT  6503>>CALLBLT
      6513>>IF       6525>>IF       6542>>IF       6568>>IF       6600>>IF       6632>>IF       6643>>ASSIGN
      6644>>IF       6644>>IF       6646>>ASSIGN   6649>>CALLBLT  6649>>CALLBLT  6655>>IF       6655>>IF
      6655>>IF       6669>>IF       6673>>IF       6695>>IF       6890>>ASSIGN   6891>>IF       6891>>IF
      6893>>ASSIGN   6896>>CALLBLT  6896>>CALLBLT  6915>>IF
ODDFLAG
      3038**DCL      4711<<ASSIGN   4712<<ASSIGN   4715>>IF
ODDFMT
      3037**DCL      4716--CALL
OLD_DENSE
      3175**DCL      3176--REDEF    5067<<ASSIGN
OLD_DENSE_RDF.DENSITY
PL6.E3A0      #001=THF$RAW File=THF$FORMAT.:E05TSI                               WED 07/30/97 06:08 Page:715
      3177**DCL      5100>>IF
OPERATION
      3159**DCL      5078<<ASSIGN   5102>>IF       5470>>ASSIGN
OTHER_IOERR_TBL
      3160**DCL      5137--CALL     5139--CALL     5140--CALL
OTHER_IOERR_TBL.COUNT
      3161**DCL      5045<<ASSIGN   5045>>ASSIGN   5104<<ASSIGN   5104>>ASSIGN   5113<<ASSIGN   5113>>ASSIGN
      5166<<ASSIGN   5166>>ASSIGN   5469<<ASSIGN
OTHER_IOERR_TBL.DENSITY
      3164**DCL      5301<<ASSIGN   5305<<ASSIGN   5472<<ASSIGN
OTHER_IOERR_TBL.OPERATION
      3162**DCL      5102>>IF       5329<<ASSIGN   5470<<ASSIGN
OTHER_IOERR_TBL.SPEED
      3163**DCL      5303<<ASSIGN   5307<<ASSIGN   5471<<ASSIGN
OTHER_IOERR_TBL.TRACK
      3165**DCL      5132<<ASSIGN   5134<<ASSIGN   5473<<ASSIGN
PARAMETER_ID
      2981**DCL      2982--REDEF    5816<<ASSIGN   5917<<ASSIGN   5926>>IF       5934<<ASSIGN   5938>>IF
      5941>>IF       5963<<ASSIGN   6049<<ASSIGN   6097<<ASSIGN   6102<<ASSIGN   6139<<ASSIGN   6355<<ASSIGN
      6382<<ASSIGN   6386<<ASSIGN   6439<<ASSIGN   6443<<ASSIGN   6670<<ASSIGN   6692<<ASSIGN   6696<<ASSIGN
      6824<<ASSIGN   6825>>IF       6880<<ASSIGN   6916<<ASSIGN
PARAMETER_LENGTH
      2985**DCL      5817<<ASSIGN   5911<<ASSIGN   6002>>IF       6096>>IF       6101>>IF       6221>>IF
      6317>>IF       6354>>IF       6385>>IF       6426>>ASSIGN   6430>>DOINDEX  6442>>IF       6479>>IF
      6536>>IF       6632>>IF       6669>>IF       6675>>ASSIGN   6684>>DOINDEX  6695>>IF       6823<<ASSIGN
      6825>>IF       6831>>ASSIGN
PARAM_3X_DONE IN PROCEDURE DECODE_PARAM_3X
      6880**LABEL    6826--GOTO
PARAM_ID.BYT1
      2983**DCL      5918>>CALLBLT  5919>>IF       5919>>IF       6839>>CALLBLT
PARAM_ID.BYT2
      2984**DCL      5918>>CALLBLT  5919>>IF       5921>>CALLBLT  5921>>CALLBLT  5923>>ASSIGN   5943>>DOCASE
      6839>>CALLBLT
PARAM_INDX
      2980**DCL      5990<<ASSIGN   5992>>IF       5995>>CALLBLT  5995>>CALLBLT  5996>>ASSIGN   6000<<ASSIGN
      6000>>ASSIGN   6084<<ASSIGN   6086>>IF       6089>>CALLBLT  6089>>CALLBLT  6090>>ASSIGN   6094<<ASSIGN
PL6.E3A0      #001=THF$RAW File=THF$FORMAT.:E05TSI                               WED 07/30/97 06:08 Page:716
      6094>>ASSIGN   6127<<ASSIGN   6129>>IF       6132>>CALLBLT  6132>>CALLBLT  6133>>ASSIGN   6137<<ASSIGN
      6137>>ASSIGN   6162<<ASSIGN   6164>>IF       6167>>CALLBLT  6167>>CALLBLT  6168>>ASSIGN   6172<<ASSIGN
      6172>>ASSIGN   6342<<ASSIGN   6344>>IF       6347>>CALLBLT  6347>>CALLBLT  6348>>ASSIGN   6352<<ASSIGN
      6352>>ASSIGN   6410<<ASSIGN   6412>>IF       6415>>CALLBLT  6415>>CALLBLT  6416>>ASSIGN   6420<<ASSIGN
      6420>>ASSIGN   6467<<ASSIGN   6469>>IF       6472>>CALLBLT  6472>>CALLBLT  6473>>ASSIGN   6477<<ASSIGN
      6477>>ASSIGN   6657<<ASSIGN   6659>>IF       6662>>CALLBLT  6662>>CALLBLT  6663>>ASSIGN   6667<<ASSIGN
      6667>>ASSIGN   6705<<ASSIGN   6710>>CALLBLT  6710>>CALLBLT  6712>>ASSIGN   6716<<ASSIGN   6716>>ASSIGN
      6901<<ASSIGN   6903>>IF       6906>>CALLBLT  6906>>CALLBLT  6907>>ASSIGN   6911<<ASSIGN   6911>>ASSIGN
PARAM_TBL.COUNT
      2962**DCL      5992>>IF       5995>>CALLBLT  5996>>ASSIGN   6021>>CALLBLT  6023>>ASSIGN   6032>>CALLBLT
      6034>>ASSIGN   6043>>CALLBLT  6045>>ASSIGN   6086>>IF       6089>>CALLBLT  6090>>ASSIGN   6129>>IF
      6132>>CALLBLT  6133>>ASSIGN   6164>>IF       6167>>CALLBLT  6168>>ASSIGN   6344>>IF       6347>>CALLBLT
      6348>>ASSIGN   6360>>CALLBLT  6365>>ASSIGN   6369>>CALLBLT  6372>>ASSIGN   6376>>CALLBLT  6379>>ASSIGN
      6412>>IF       6415>>CALLBLT  6416>>ASSIGN   6469>>IF       6472>>CALLBLT  6473>>ASSIGN   6659>>IF
      6662>>CALLBLT  6663>>ASSIGN   6903>>IF       6906>>CALLBLT  6907>>ASSIGN
PARAM_TBL.TEXT
      2963**DCL      5995>>CALLBLT  6021>>CALLBLT  6032>>CALLBLT  6043>>CALLBLT  6089>>CALLBLT  6132>>CALLBLT
      6167>>CALLBLT  6347>>CALLBLT  6360>>CALLBLT  6369>>CALLBLT  6376>>CALLBLT  6415>>CALLBLT  6472>>CALLBLT
      6662>>CALLBLT  6906>>CALLBLT
PARAM_X2_DONE IN PROCEDURE DECODE_PARAM_X2
      6049**LABEL    6003--GOTO     6009--GOTO     6027--GOTO     6038--GOTO
PR54_BELT.CODE
      2830**DCL      5666>>IF
PR54_BELT_TBL.CODE
      1678**DCL      5666>>IF
PR54_BELT_TBL.COUNT
      1678**DCL      5669>>ASSIGN
PR54_BELT_TBL.TEXT
      1679**DCL      5668>>ASSIGN
PR54_BYTE
      2824**DCL      5722<<ASSIGN   5723<<ASSIGN   5725>>IF       5735<<ASSIGN   5736<<ASSIGN   5738>>IF
PR71FMT1
      2858**DCL      5779--ASSIGN
PR71FMT3
      2859**DCL      5789--ASSIGN
PR71_BELT.CODE
PL6.E3A0      #001=THF$RAW File=THF$FORMAT.:E05TSI                               WED 07/30/97 06:08 Page:717
      2833**DCL      5765>>IF
PR71_BELT_TBL.CODE
      1679**DCL      5765>>IF
PR71_BELT_TBL.COUNT
      1679**DCL      5768>>ASSIGN
PR71_BELT_TBL.TEXT
      1679**DCL      5767>>ASSIGN
PR71_BUF
      2860**DCL      3690--DCLINIT  3692--DCLINIT
PR71_BUF.STRING
      2862**DCL      5775<<ASSIGN   5781>>ASSIGN   5785<<ASSIGN   5791>>ASSIGN
PR71_REG1
      2834**DCL      5778--ASSIGN   5788--ASSIGN
PR71_REG1.BYT1
      2835**DCL      5776<<ASSIGN   5786<<ASSIGN
PR71_REG1.BYT2
      2836**DCL      5777<<ASSIGN   5787<<ASSIGN
PR71_VECTOR_TBL
      2863**DCL      3702--DCLINIT  5778<<ASSIGN   5788<<ASSIGN
PRNTR_REG
      2823**DCL      5696<<ASSIGN   5697<<ASSIGN   5700>>IF       5711>>IF
PROCERR_DONE
      4823**LABEL    4814--GOTO
PROCERR_SS
      2849**DCL      4819--CALL
PTR_BELT
      2825**DCL      2828--REDEF    2831--REDEF
PTR_BELT.BYT1
      2826**DCL      5663<<ASSIGN   5762<<ASSIGN
PTR_BELT.BYT2
      2827**DCL      5664<<ASSIGN   5763<<ASSIGN
QUAD# IN PROCEDURE EDAC
      4946**DCL      4985<<ASSIGN   4986>>IF       4992>>ASSIGN   5014<<ASSIGN   5015>>CALLBLT  5015>>CALLBLT
QUAD_4K IN PROCEDURE EDAC
      4932**DCL      4985>>ASSIGN
RECORD.TYPE
PL6.E3A0      #001=THF$RAW File=THF$FORMAT.:E05TSI                               WED 07/30/97 06:08 Page:718
      3341**DCL      3341--REDEF    3782>>ASSIGN   4668>>IF       4668>>IF       4668>>IF       4668>>IF
      4675>>IF       4681>>IF       4683>>ASSIGN
RECORD.UTS
      3341**DCL      3780>>ASSIGN
REGISTER_TBL.CODE
      1681**DCL      5700>>IF
REGISTER_TBL.COUNT
      1681**DCL      5703>>ASSIGN
REGISTER_TBL.TEXT
      1682**DCL      5702>>ASSIGN
SCUN
      3057**DCL      4101<<CALLBLT  4102>>CALLBLT
SCU_DEVN
      3060**DCL      4100<<ASSIGN   4102<<CALLBLT  4103<>CALL
SE
      3054**DCL      3808<<ASSIGN   3909<<ASSIGN   3913<<ASSIGN   3918<<ASSIGN   3922<<ASSIGN   3926<<ASSIGN
      4513<<ASSIGN   4517<<ASSIGN   4522<<ASSIGN   4526<<ASSIGN   4530<<ASSIGN   4662>>CALLBLT
SEC$
      3062**DCL      3802<<ASSIGN   4652<>CALL     4655<>CALL     4659<>CALL     4663<>CALL     4667>>ASSIGN
SECBUF
      3061**DCL      3801<<ASSIGN   3802--ASSIGN   4666--ASSIGN   4667--ASSIGN
SECTOR
      3051**DCL      3904<<ASSIGN   3907>>ASSIGN   3908>>ASSIGN   3909>>ASSIGN   3911>>ASSIGN   3912>>ASSIGN
      3913>>ASSIGN   3916>>ASSIGN   3917>>ASSIGN   3918>>ASSIGN   3920>>ASSIGN   3921>>ASSIGN   3922>>ASSIGN
      3924>>ASSIGN   3925>>ASSIGN   3926>>ASSIGN   4508<<ASSIGN   4511>>ASSIGN   4512>>ASSIGN   4513>>ASSIGN
      4515>>ASSIGN   4516>>ASSIGN   4517>>ASSIGN   4520>>ASSIGN   4521>>ASSIGN   4522>>ASSIGN   4524>>ASSIGN
      4525>>ASSIGN   4526>>ASSIGN   4528>>ASSIGN   4529>>ASSIGN   4530>>ASSIGN   4658>>CALLBLT
SECVEC
      3080**DCL      4666<<ASSIGN   4673<>CALL     4679<>CALL     4694<>CALL
SECVEC.BOUND
      3081**DCL      4667<<ASSIGN
SEEK_ADDR
      3079**DCL      4651<<ASSIGN   4652<>CALL     4658<<CALLBLT  4659<>CALL
SEVEN_TRK_HDR
      3150**DCL      3153--DCLINIT
SIZ IN PROCEDURE ADD_TEXTC
PL6.E3A0      #001=THF$RAW File=THF$FORMAT.:E05TSI                               WED 07/30/97 06:08 Page:719
      4875**DCL      4873--PROC     4874--IMP-SIZ  4878--IMP-SIZ  4880>>ASSIGN   4881>>ASSIGN   4881>>ASSIGN
      4882>>ASSIGN
SORRY_NO_STATS IN PROCEDURE THF$IOERR
      5179**LABEL    5174--CALLALT
SPBIT$
      3115**DCL      3116--IMP-PTR  4428>>IF       5240>>IF
SPC$
      3118**DCL      3110--IMP-PTR  4421<<ASSIGN   4428>>IF       4430>>ASSIGN   4431>>ASSIGN   5233<<ASSIGN
      5240>>IF       5242>>ASSIGN   5243>>ASSIGN
SPTBL.CODE
      3111**DCL      4428>>IF       5240>>IF
SPTBL.COUNT
      3112**DCL      4431>>ASSIGN   5243>>ASSIGN
SPTBL.TEXT
      3113**DCL      4430>>ASSIGN   5242>>ASSIGN
SP_BIT
      3114**DCL      3115--DCLINIT  4415<<ASSIGN   4416<<ASSIGN   5227<<ASSIGN   5228<<ASSIGN
SP_CASES.BYTEN
      1686**DCL      4419>>IF       5231>>IF
SP_CASES.COUNT
      1687**DCL      4422>>ASSIGN   5234>>ASSIGN
SP_CASES.SUB$
      1686**DCL      4421>>ASSIGN   5233>>ASSIGN
SP_CHAR
      3116**DCL      4428>>IF       5240>>IF
STATS$
      2890**DCL      2891--IMP-PTR  2900--IMP-PTR  2917--IMP-PTR  2931--IMP-PTR  4533<<ASSIGN   4538>>ASSIGN
      4538>>ASSIGN   4540>>ASSIGN   4540>>ASSIGN   4540>>ASSIGN   4540>>ASSIGN   4540>>ASSIGN   4540>>ASSIGN
      4548>>ASSIGN   4548>>ASSIGN   4553<<ASSIGN   4554>>ASSIGN   4554>>ASSIGN   4554>>ASSIGN   4554>>ASSIGN
      4558>>ASSIGN   4558>>ASSIGN   4558>>ASSIGN   4558>>ASSIGN   4562>>ASSIGN   4562>>ASSIGN   4562>>ASSIGN
      4562>>ASSIGN   4566>>ASSIGN   4566>>ASSIGN   4566>>ASSIGN   4566>>ASSIGN   4570>>ASSIGN   4570>>ASSIGN
      4570>>ASSIGN   4570>>ASSIGN   4574>>ASSIGN   4574>>ASSIGN   4574>>ASSIGN   4574>>ASSIGN   4574>>ASSIGN
      4574>>ASSIGN   4574>>ASSIGN   4574>>ASSIGN
STATUS$ IN PROCEDURE EDAC
      4950**DCL      4922--PROC     4982>>IF       4984>>ASSIGN   4985>>ASSIGN   4992>>ASSIGN   4995>>CALLBLT
      5000>>CALLBLT  5005>>ASSIGN   5012>>ASSIGN   5012>>ASSIGN   5014>>ASSIGN
PL6.E3A0      #001=THF$RAW File=THF$FORMAT.:E05TSI                               WED 07/30/97 06:08 Page:720
STATUS_DATA
      3136**DCL      3138--DCLINIT
STATUS_FMT
      3138**DCL      5157<>CALL
STRT
      2844**DCL      4027<<ASSIGN   4040>>CALLBLT  4041<<ASSIGN   4041>>ASSIGN   4054>>CALLBLT  4055<<ASSIGN
      4055>>ASSIGN   4056<>CALL
TBL_EIGHTY_TWO.CODE
      1696**DCL      5427>>IF
TBL_SIX.CODE
      1696**DCL      5441>>IF
TBL_SIX_TEN.CODE
      1697**DCL      5449>>IF
TBL_SIX_THIRTY.CODE
      1697**DCL      5454>>IF
TBUF
      2952**DCL      3258--DCLINIT  3259--DCLINIT  3783--CALL
TBUF.C IN PROCEDURE ADD_TEXTC
      4878**DCL      4881<<ASSIGN
TBUF.N IN PROCEDURE ADD_TEXTC
      4877**DCL      4880<<ASSIGN
TBUF IN PROCEDURE BUILDTIME
      4857**DCL      4869--ASSIGN
TBUF.DATE IN PROCEDURE BUILDTIME
      4861**DCL      4865--ASSIGN
TBUF.N IN PROCEDURE BUILDTIME
      4858**DCL      4863<<ASSIGN
TBUF.TIME IN PROCEDURE BUILDTIME
      4859**DCL      4864--ASSIGN
TBUF IN PROCEDURE ERROR_CODE
      4892**DCL      4916--ASSIGN
TBUF.C IN PROCEDURE ERROR_CODE
      4894**DCL      4895--REDEF    4896--REDEF    4906<<CALLBLT  4909<<CALLBLT  4912<<CALLBLT  4913<<CALLBLT
      4914<<CALLBLT  4915--ASSIGN
TBUF.C_ARRAY IN PROCEDURE ERROR_CODE
      4895**DCL      4901<<ASSIGN
PL6.E3A0      #001=THF$RAW File=THF$FORMAT.:E05TSI                               WED 07/30/97 06:08 Page:721
TBUF.C_UBIN IN PROCEDURE ERROR_CODE
      4896**DCL      4903<<ASSIGN   4904<<ASSIGN
TBUF.N IN PROCEDURE ERROR_CODE
      4893**DCL      4915<<ASSIGN
TEMP
      2839**DCL      4318<<CALLBLT  4321<<CALLBLT  4324<<CALLBLT  4327<<CALLBLT  4328<<CALLBLT  4330>>DOWHILE
      4340<>CALL
TEMP1
      2840**DCL      4028<<CALLBLT  4030>>DOWHILE  4040>>CALLBLT  4042<<CALLBLT  4044>>DOWHILE  4054>>CALLBLT
      4068<<CALLBLT  4070>>DOWHILE  4080>>CALLBLT  4605<<CALLBLT  4606>>CALLBLT  4606--CALLBLT  4607<<CALLBLT
      4608>>CALLBLT  4608--CALLBLT  4615<<CALLBLT  4616>>CALLBLT  4616--CALLBLT  4617<<CALLBLT  4618>>CALLBLT
      4618--CALLBLT
TEMP2
      2841**DCL      4040<<CALLBLT  4054<<CALLBLT  4056<>CALL     4080<<CALLBLT  4081<>CALL     4606<<CALLBLT
      4608<<CALLBLT  4609<>CALL     4616<<CALLBLT  4618<<CALLBLT  4619<>CALL
TEMPBUF
      3064**DCL      3804<<ASSIGN   4538<<ASSIGN   4540<<ASSIGN   4548<<ASSIGN   4554<<ASSIGN   4558<<ASSIGN
      4562<<ASSIGN   4566<<ASSIGN   4570<<ASSIGN   4574<<ASSIGN   4634--ASSIGN
TEMP_STATUS
      2864**DCL      2865--REDEF    4347<<ASSIGN   4353>>ASSIGN   5168<<ASSIGN   5172>>ASSIGN
TEMP_STATUS1.CHANNEL
      2871**DCL      4352>>ASSIGN   5171>>ASSIGN
TEMP_STATUS1.FAULT_CODE
      2873**DCL      4351>>ASSIGN   5170>>ASSIGN
TEMP_STATUS1.MAJOR_STATUS
      2866**DCL      4348>>IF       5169>>IF
TEMP_STATUS1.XX
      2867**DCL      4351<<ASSIGN   5170<<ASSIGN
TEMP_STATUS1.YY
      2869**DCL      4352<<ASSIGN   5171<<ASSIGN
TEMP_VLR
      3317**DCL      3227--DCLINIT
TEXT$
      2883**DCL      2884--IMP-PTR  3798<<ASSIGN   3867>>ASSIGN   3868>>ASSIGN   3869>>ASSIGN   3870>>CALLBLT
      3871<<ASSIGN   3871>>ASSIGN   3895<<ASSIGN   3895>>ASSIGN   3943<<ASSIGN   3943>>ASSIGN   4585<>CALL
      4587<>CALL     4589<>CALL     4591<>CALL     4593<>CALL     4595<>CALL     4597<>CALL     4599<>CALL
PL6.E3A0      #001=THF$RAW File=THF$FORMAT.:E05TSI                               WED 07/30/97 06:08 Page:722
      4601<>CALL     4635>>IF       4640>>ASSIGN   4857--IMP-PTR  4863>>ASSIGN   4864>>ASSIGN   4865>>ASSIGN
      4869<<ASSIGN   4869>>ASSIGN   4876--IMP-PTR  4880>>ASSIGN   4881>>ASSIGN   4882<<ASSIGN   4882>>ASSIGN
      4892--IMP-PTR  4901>>ASSIGN   4903>>ASSIGN   4904>>ASSIGN   4906>>CALLBLT  4909>>CALLBLT  4912>>CALLBLT
      4913>>CALLBLT  4914>>CALLBLT  4915>>ASSIGN   4916<<ASSIGN   4916>>ASSIGN   5589<<ASSIGN   5599<<ASSIGN
      5640>>ASSIGN   5647<<ASSIGN
TEXTBUF
      2853**DCL      3797<<ASSIGN   3798--ASSIGN   3881<<CALLBLT  3884<<CALLBLT  3887<<CALLBLT  3892<<CALLBLT
      3896<<CALLBLT  3929<<CALLBLT  3932<<CALLBLT  3935<<CALLBLT  3940<<CALLBLT  3944<<CALLBLT  4635--IF
      4639--ASSIGN   4640--ASSIGN   5588<<ASSIGN   5589--ASSIGN   5599--ASSIGN   5639--ASSIGN   5640--ASSIGN
      5646<<ASSIGN   5647--ASSIGN
THF$ADD_TEXTC
      2804**DCL-ENT  4357--CALL     4358--CALL     4361--CALL     4362--CALL     4392--CALL     4498--CALL
      4585--CALL     4587--CALL     4589--CALL     4591--CALL     4593--CALL     4595--CALL     4597--CALL
      4599--CALL     4601--CALL     4652--CALL     4655--CALL     4659--CALL     4663--CALL     4736--CALL
      4741--CALL     4748--CALL     4786--CALL     4797--CALL     5175--CALL     5176--CALL     5179--CALL
      5180--CALL     5504--CALL     5552--CALL     5577--CALL     5751--CALL     5802--CALL     5969--CALL
      5988--CALL     5997--CALL     6014--CALL     6024--CALL     6035--CALL     6046--CALL     6079--CALL
      6091--CALL     6122--CALL     6134--CALL     6160--CALL     6169--CALL     6184--CALL     6201--CALL
      6212--CALL     6234--CALL     6247--CALL     6261--CALL     6280--CALL     6291--CALL     6309--CALL
      6337--CALL     6349--CALL     6366--CALL     6373--CALL     6380--CALL     6405--CALL     6417--CALL
      6437--CALL     6462--CALL     6474--CALL     6493--CALL     6508--CALL     6522--CALL     6534--CALL
      6549--CALL     6562--CALL     6576--CALL     6595--CALL     6606--CALL     6624--CALL     6652--CALL
      6664--CALL     6679--CALL     6690--CALL     6713--CALL     6745--CALL     6759--CALL     6767--CALL
      6773--CALL     6778--CALL     6784--CALL     6789--CALL     6798--CALL     6803--CALL     6812--CALL
      6836--CALL     6844--CALL     6851--CALL     6861--CALL     6869--CALL     6877--CALL     6899--CALL
      6908--CALL
THF$CSHERR
      2800**DCL-ENT  4812--CALL
THF$DUMP
      2801**DCL-ENT  3787--CALL     4729--CALL     4821--CALL
THF$FEPERR
      5583**PROC     3794--CALL
THF$HEXDUMP
      2802**DCL-ENT  4723--CALL
THF$HISTORY
      2803**DCL-ENT  4825--CALL
PL6.E3A0      #001=THF$RAW File=THF$FORMAT.:E05TSI                               WED 07/30/97 06:08 Page:723
THF$IOERR
      5023**PROC     3792--CALL
THF$STATUS
      2805**DCL-ENT  4355--CALL     5174--CALL
THW$WRITE
      2799**DCL-ENT  3783--CALL     4673--CALL     4679--CALL     4694--CALL     4704--CALL     4716--CALL
      4717--CALL     4721--CALL     4728--CALL     4745--CALL     4807--CALL     4819--CALL     5043--CALL
      5137--CALL     5139--CALL     5140--CALL     5149--CALL     5155--CALL     5157--CALL     5164--CALL
      5591--CALL     5642--CALL     5650--CALL
TH_CONSTRAINTS.E_BY_B
       720**DCL       720--REDEF
TH_CONSTRAINTS.M_BY_B
       719**DCL       719--REDEF
TH_CONSTRAINTS.M_MED
       718**DCL      4690>>IF
TH_CONSTRAINTS.M_MED_S
       719**DCL      4690>>IF
TH_CONSTRAINTS.TYPES
       717**DCL       717--REDEF
TH_DEFAULT.E_BY_B
       728**DCL       728--REDEF
TH_DEFAULT.M_BY_B
       727**DCL       727--REDEF
TH_DEFAULT.TYPES
       725**DCL       725--REDEF
TH_DETAIL_FLG
       756**DCL      3791>>IF       3793>>IF       4650>>IF       5503>>IF       5551>>IF       5575>>IF
TH_EOF_FLG
       757**DCL      5049>>IF       5050>>IF       5161>>IF       5597>>IF       5598>>IF       5644>>IF
TH_FEPERR_FLG
       756**DCL      3793>>IF
TH_FIRST_TIME
       756**DCL      5026>>IF       5050>>IF       5332>>IF       5332<<ASSIGN   5586>>IF       5594<<ASSIGN
      5598>>IF
TH_INFO
       746**DCL      3796>>ASSIGN
PL6.E3A0      #001=THF$RAW File=THF$FORMAT.:E05TSI                               WED 07/30/97 06:08 Page:724
TH_IOERR_FLG
       756**DCL      3791>>IF
TH_ITYPE
       747**DCL      3775>>IF       3775>>IF       3776<<ASSIGN   3777>>ASSIGN   3778>>IF       3809>>DOCASE
      3823>>IF       4537<<ASSIGN   4547<<ASSIGN   4551>>ASSIGN   4630>>IF       4630>>IF       4630>>IF
      4630>>IF       4649>>IF       4649>>IF       4690>>IF       4690>>IF       4696>>DOCASE
TH_LASTTYPE
       747**DCL      3788<<ASSIGN   4668>>IF       4668>>IF       4668>>IF       4683<<ASSIGN   4684<<ASSIGN
      4685>>IF       4685>>IF       4686<<ASSIGN   4687>>IF       4688<<ASSIGN   4727<<ASSIGN   4811<<ASSIGN
      4818<<ASSIGN
TH_LAST_DEVTYPE
       749**DCL      4675>>IF       4682<<ASSIGN
TH_LAST_REQID
       751**DCL      4341>>IF       4344<<ASSIGN
TH_NUM_DEVS
       744**DCL      3899>>DOINDEX
TH_RAW_FLG
       756**DCL      4675>>IF
TH_RECORD.PTR$
       745**DCL      3341--IMP-PTR  3780>>ASSIGN   3782>>ASSIGN   3787<>CALL     4668>>IF       4668>>IF
      4668>>IF       4668>>IF       4675>>IF       4681>>IF       4683>>ASSIGN
TH_RECOV
       751**DCL      3775>>IF
TH_SAVE.E_BY_B
       736**DCL       736--REDEF
TH_SAVE.M_BY_B
       734**DCL       734--REDEF
TH_SAVE.TYPES
       732**DCL       733--REDEF
TH_SYS_DEVS.DEVN
       743**DCL      3900>>IF
TH_SYS_DEVS.MODEL
       743**DCL      3905>>DOSELCT
TH_TIME
       748**DCL      4673--CALL     4679--CALL     4694--CALL
TH_XSA_BUF_VECTOR
PL6.E3A0      #001=THF$RAW File=THF$FORMAT.:E05TSI                               WED 07/30/97 06:08 Page:725
       752**DCL       752--REDEF    5030>>ASSIGN   5052>>ASSIGN   5590>>ASSIGN   5600>>ASSIGN
TRACK_NINE
      3184**DCL      5142>>IF       5363<<ASSIGN   5415<<ASSIGN   5433>>IF       5436>>IF       5468<<ASSIGN
TRACK_SEVEN
      3185**DCL      5433>>IF       5467<<ASSIGN
TSTAMP IN PROCEDURE BUILDTIME
      4837**DCL      4866--ASSIGN   4867<<ASSIGN
TVEC
      2874**DCL      4634<<ASSIGN   4636<<ASSIGN   4639<<ASSIGN   4673<>CALL     4679<>CALL     4694<>CALL
      5639<<ASSIGN   5642<>CALL
TVEC.BOUND
      2875**DCL      4640<<ASSIGN   5640<<ASSIGN
TXT IN PROCEDURE ADD_TEXTC
      4874**DCL      4873--PROC     4881>>ASSIGN
TYPE
      2949**DCL      3782<<ASSIGN   3783--CALL
UTS IN PROCEDURE BUILDTIME
      4836**DCL      4835--PROC     4867>>ASSIGN
X
      2822**DCL      5143<<DOINDEX  5144>>IF       5145>>CALLBLT  5145>>CALLBLT  5146>>CALLBLT  5146>>CALLBLT
      5276<<ASSIGN   5277>>DOWHILE  5278>>IF       5279>>ASSIGN   5279>>ASSIGN   5282<<ASSIGN   5282>>ASSIGN
      5284<<ASSIGN   5289>>DOWHILE  5290>>IF       5291>>ASSIGN   5292>>ASSIGN   5292>>ASSIGN   5296<<ASSIGN
      5296>>ASSIGN   5362<<DOINDEX  5363>>IF       5414<<DOINDEX  5415>>IF       5426<<DOINDEX  5427>>IF
      5440<<DOINDEX  5441>>IF       5448<<DOINDEX  5449>>IF       5453<<DOINDEX  5454>>IF       5665<<DOINDEX
      5666>>IF       5668>>ASSIGN   5669>>ASSIGN   5699<<DOINDEX  5700>>IF       5702>>ASSIGN   5703>>ASSIGN
      5710<<DOINDEX  5711>>IF       5713>>ASSIGN   5714>>ASSIGN   5724<<DOINDEX  5725>>IF       5727>>ASSIGN
      5728>>ASSIGN   5737<<DOINDEX  5738>>IF       5740>>ASSIGN   5741>>ASSIGN   5764<<DOINDEX  5765>>IF
      5767>>ASSIGN   5768>>ASSIGN   5819<<DOINDEX  5820>>ASSIGN   5820>>ASSIGN   5822<<DOINDEX  5823>>ASSIGN
      5823>>ASSIGN   5844<<DOINDEX  5845>>IF       5847>>ASSIGN   5848>>CALLBLT  5848>>CALLBLT  5991<<DOINDEX
      5992>>IF       6085<<DOINDEX  6086>>IF       6128<<DOINDEX  6129>>IF       6163<<DOINDEX  6164>>IF
      6204<<DOINDEX  6205>>IF       6208>>CALLBLT  6208>>CALLBLT  6211>>ASSIGN   6240<<DOINDEX  6241>>IF
      6244>>CALLBLT  6244>>CALLBLT  6246>>ASSIGN   6255<<DOINDEX  6256>>ASSIGN   6256>>ASSIGN   6257>>ASSIGN
      6257>>ASSIGN   6272<<DOINDEX  6273>>ASSIGN   6302<<DOINDEX  6303>>IF       6306>>CALLBLT  6306>>CALLBLT
      6308>>ASSIGN   6343<<DOINDEX  6344>>IF       6411<<DOINDEX  6412>>IF       6430<<DOINDEX  6431>>CALLBLT
      6431>>CALLBLT  6468<<DOINDEX  6469>>IF       6555<<DOINDEX  6556>>IF       6559>>CALLBLT  6559>>CALLBLT
      6561>>ASSIGN   6570<<DOINDEX  6571>>ASSIGN   6571>>ASSIGN   6572>>ASSIGN   6572>>ASSIGN   6587<<DOINDEX
PL6.E3A0      #001=THF$RAW File=THF$FORMAT.:E05TSI                               WED 07/30/97 06:08 Page:726
      6588>>ASSIGN   6617<<DOINDEX  6618>>IF       6621>>CALLBLT  6621>>CALLBLT  6623>>ASSIGN   6658<<DOINDEX
      6659>>IF       6684<<DOINDEX  6685>>CALLBLT  6685>>CALLBLT  6706<<DOINDEX  6707>>IF       6827<<DOINDEX
      6828>>ASSIGN   6828>>ASSIGN   6902<<DOINDEX  6903>>IF
X$FORMAT
      2806**DCL-ENT  5780--CALL     5790--CALL
XST$
      3021**DCL      3022--IMP-PTR  4391<<ASSIGN   4392<>CALL     4498<>CALL     4703>>ASSIGN   4714>>ASSIGN
      5504<>CALL     5552<>CALL     5577<>CALL     5751<>CALL     5802<>CALL     5969<>CALL     5988<>CALL
      5997<>CALL     6014<>CALL     6024<>CALL     6035<>CALL     6046<>CALL     6079<>CALL     6091<>CALL
      6122<>CALL     6134<>CALL     6160<>CALL     6169<>CALL     6184<>CALL     6201<>CALL     6212<>CALL
      6234<>CALL     6247<>CALL     6261<>CALL     6280<>CALL     6291<>CALL     6309<>CALL     6337<>CALL
      6349<>CALL     6366<>CALL     6373<>CALL     6380<>CALL     6405<>CALL     6417<>CALL     6437<>CALL
      6462<>CALL     6474<>CALL     6493<>CALL     6508<>CALL     6522<>CALL     6534<>CALL     6549<>CALL
      6562<>CALL     6576<>CALL     6595<>CALL     6606<>CALL     6624<>CALL     6652<>CALL     6664<>CALL
      6679<>CALL     6690<>CALL     6713<>CALL     6745<>CALL     6759<>CALL     6767<>CALL     6773<>CALL
      6778<>CALL     6784<>CALL     6789<>CALL     6798<>CALL     6803<>CALL     6812<>CALL     6836<>CALL
      6844<>CALL     6851<>CALL     6861<>CALL     6869<>CALL     6877<>CALL     6899<>CALL     6908<>CALL
XSTATUS_BYTE
      2976**DCL      2977--REDEF    5820<<ASSIGN   5825>>IF       5827>>IF       5829>>IF       5829>>IF
      5845>>IF       5853>>IF       5911>>ASSIGN   5917>>ASSIGN
XSTATUS_NIBBLE
      2977**DCL      5836>>CALLBLT  5836>>CALLBLT  5840>>CALLBLT  5840>>CALLBLT  5865>>CALLBLT  5866>>CALLBLT
      5870>>CALLBLT  5870>>CALLBLT  5874>>CALLBLT  5874>>CALLBLT  5878>>CALLBLT  5878>>CALLBLT  5878>>CALLBLT
      5890>>CALLBLT  5891>>DOCASE   5912>>CALLBLT  5912>>CALLBLT  5926>>IF
XSTAT_TBL.COUNT
      3167**DCL      5157--CALL     5279<<ASSIGN   5279>>ASSIGN   5292<<ASSIGN   5292>>ASSIGN   5310<<ASSIGN
      5310>>ASSIGN   5476<<ASSIGN
XSTAT_TBL.TEXT
      3168**DCL      5157--CALL     5278>>IF       5290>>IF       5291<<ASSIGN   5309<<ASSIGN   5475<<ASSIGN
XSTBUF
      3024**DCL      4391--ASSIGN   4701--ASSIGN   4702--ASSIGN   4703--ASSIGN   4709--ASSIGN   4713--ASSIGN
      4714--ASSIGN
XSTVEC
      3025**DCL      4702<<ASSIGN   4704<>CALL     4713<<ASSIGN   4716<>CALL     4717<>CALL
XSTVEC.BOUND
      3026**DCL      4703<<ASSIGN   4714<<ASSIGN
PL6.E3A0      #001=THF$RAW File=THF$FORMAT.:E05TSI                               WED 07/30/97 06:08 Page:727
XST_CNT
      3032**DCL      4431<<ASSIGN   4458<<ASSIGN   4472<<ASSIGN   4496<<ASSIGN   4498<>CALL     5243<<ASSIGN
      5267<<ASSIGN   5491<<ASSIGN   5496<<ASSIGN   5501<<ASSIGN   5504<>CALL     5546<<ASSIGN   5552<>CALL
      5571<<ASSIGN   5577<>CALL     5669<<ASSIGN   5677<<ASSIGN   5681<<ASSIGN   5685<<ASSIGN   5689<<ASSIGN
      5693<<ASSIGN   5703<<ASSIGN   5714<<ASSIGN   5728<<ASSIGN   5741<<ASSIGN   5749<<ASSIGN   5751<>CALL
      5768<<ASSIGN   5781<<ASSIGN   5791<<ASSIGN   5797<<ASSIGN   5802<>CALL     5814<<ASSIGN   5847<<ASSIGN
      5847>>ASSIGN   5855<<ASSIGN   5860<<ASSIGN   5886<<ASSIGN   5894<<ASSIGN   5894>>ASSIGN   5897<<ASSIGN
      5897>>ASSIGN   5900<<ASSIGN   5900>>ASSIGN   5903<<ASSIGN   5903>>ASSIGN   5906<<ASSIGN   5906>>ASSIGN
      5923<<ASSIGN   5923>>ASSIGN   5929<<ASSIGN   5933<<ASSIGN   5933>>ASSIGN   5969<>CALL     5987<<ASSIGN
      5988<>CALL     5996<<ASSIGN   5997<>CALL     6013<<ASSIGN   6014<>CALL     6023<<ASSIGN   6024<>CALL
      6034<<ASSIGN   6035<>CALL     6045<<ASSIGN   6046<>CALL     6078<<ASSIGN   6079<>CALL     6090<<ASSIGN
      6091<>CALL     6121<<ASSIGN   6122<>CALL     6133<<ASSIGN   6134<>CALL     6159<<ASSIGN   6160<>CALL
      6168<<ASSIGN   6169<>CALL     6183<<ASSIGN   6184<>CALL     6200<<ASSIGN   6201<>CALL     6211<<ASSIGN
      6212<>CALL     6233<<ASSIGN   6234<>CALL     6246<<ASSIGN   6247<>CALL     6260<<ASSIGN   6261<>CALL
      6279<<ASSIGN   6280<>CALL     6290<<ASSIGN   6291<>CALL     6308<<ASSIGN   6309<>CALL     6336<<ASSIGN
      6337<>CALL     6348<<ASSIGN   6349<>CALL     6365<<ASSIGN   6366<>CALL     6372<<ASSIGN   6373<>CALL
      6379<<ASSIGN   6380<>CALL     6404<<ASSIGN   6405<>CALL     6416<<ASSIGN   6417<>CALL     6436<<ASSIGN
      6437<>CALL     6461<<ASSIGN   6462<>CALL     6473<<ASSIGN   6474<>CALL     6492<<ASSIGN   6493<>CALL
      6507<<ASSIGN   6508<>CALL     6521<<ASSIGN   6522<>CALL     6533<<ASSIGN   6534<>CALL     6548<<ASSIGN
      6549<>CALL     6561<<ASSIGN   6562<>CALL     6575<<ASSIGN   6576<>CALL     6594<<ASSIGN   6595<>CALL
      6605<<ASSIGN   6606<>CALL     6623<<ASSIGN   6624<>CALL     6651<<ASSIGN   6652<>CALL     6663<<ASSIGN
      6664<>CALL     6678<<ASSIGN   6679<>CALL     6689<<ASSIGN   6690<>CALL     6712<<ASSIGN   6713<>CALL
      6722<<ASSIGN   6725<<ASSIGN   6728<<ASSIGN   6731<<ASSIGN   6734<<ASSIGN   6737<<ASSIGN   6740<<ASSIGN
      6743<<ASSIGN   6745<>CALL     6758<<ASSIGN   6759<>CALL     6766<<ASSIGN   6767<>CALL     6772<<ASSIGN
      6773<>CALL     6777<<ASSIGN   6778<>CALL     6783<<ASSIGN   6784<>CALL     6788<<ASSIGN   6789<>CALL
      6797<<ASSIGN   6798<>CALL     6802<<ASSIGN   6803<>CALL     6811<<ASSIGN   6812<>CALL     6835<<ASSIGN
      6836<>CALL     6843<<ASSIGN   6844<>CALL     6850<<ASSIGN   6851<>CALL     6860<<ASSIGN   6861<>CALL
      6868<<ASSIGN   6869<>CALL     6876<<ASSIGN   6877<>CALL     6898<<ASSIGN   6899<>CALL     6907<<ASSIGN
      6908<>CALL
XST_TEMP.N
      3023**DCL      4701<<ASSIGN   4709<<ASSIGN
XST_TEXT
      3029**DCL      4430<<ASSIGN   4457<<ASSIGN   4471<<ASSIGN   4495<<ASSIGN   4498<>CALL     5242<<ASSIGN
      5257<<ASSIGN   5266<<ASSIGN   5278>>IF       5291>>ASSIGN   5301>>ASSIGN   5303>>ASSIGN   5305>>ASSIGN
      5307>>ASSIGN   5309>>ASSIGN   5490<<ASSIGN   5495<<ASSIGN   5500<<ASSIGN   5504<>CALL     5545<<ASSIGN
      5552<>CALL     5570<<ASSIGN   5577<>CALL     5668<<ASSIGN   5677<<ASSIGN   5681<<ASSIGN   5685<<ASSIGN
PL6.E3A0      #001=THF$RAW File=THF$FORMAT.:E05TSI                               WED 07/30/97 06:08 Page:728
      5689<<ASSIGN   5693<<ASSIGN   5702<<ASSIGN   5713<<ASSIGN   5727<<ASSIGN   5740<<ASSIGN   5748<<ASSIGN
      5751<>CALL     5767<<ASSIGN   5781<<ASSIGN   5791<<ASSIGN   5797<<ASSIGN   5802<>CALL
X_DEV_TYPE.COUNT
      1486**DCL      4384>>ASSIGN   5199>>ASSIGN
X_DEV_TYPE.DEV
      1486**DCL      4369>>IF       5188>>IF
X_DEV_TYPE.SUB$
      1486**DCL      4382>>ASSIGN   5197>>ASSIGN

