PL6.E3A0      #005=THF$CONFIG File=THF$FORMAT.:E05TSI                            WED 07/30/97 06:16 Page:891
     4590        1        /*M* THF$CONFIG - ROUTINE TO BUILD CONFIG REPORT FOR ELAN */
     4591        2        /*T***********************************************************/
     4592        3        /*T*                                                         */
     4593        4        /*T* Copyright (c) Bull HN Information Systems Inc., 1997    */
     4594        5        /*T*                                                         */
     4595        6        /*T***********************************************************/
     4596        7        THF$CONFIG: PROC(CODE);
     4597        8        /**/
     4598        9    1   DCL CODE UBIN;
     4599       10        /**/
     4600       11        /* INCLUDE FILES */
     4601       12        %INCLUDE CP_6;
     4602       93        %INCLUDE CP_6_SUBS;
     4603      633        %INCLUDE TD$STRUCT;
     4604      734        %INCLUDE TH_SUBS_C;
     4605     1116        %INCLUDE TH_DATA_R;
     4606     1194        %INCLUDE IT_SUBS_C;
     4607     1461        %INCLUDE NI$TABLES ;
     4608     1677        /**/
     4609     1678        /* ENTRY DEFS */
     4610     1679    1   DCL THG$GETREC ENTRY(4) ALTRET;
     4611     1680    1   DCL THW$WRITE ENTRY(11);
     4612     1681    1   DCL THF$ADD_TEXTC ENTRY(3);
     4613     1682        /**/
     4614     1683        /* MACRO INVOCATIONS */
     4615     1684        %TD$HEAD (NAME=TD$HEAD,NUMDEV#=100);
     4616     1720        %TD$HEAD (NAME=TD_HEAD,STCLASS=AUTO,NUMDEV#=200);
     4617     1756        %TD$IOM (NAME=IOMREC,STCLASS=AUTO);
     4618     1764        %TD$IOM (NAME=TD$IOM);
     4619     1772        %TD$MPC (NAME=MPCREC,STCLASS=AUTO,NUMDEV#=32);
     4620     1794        %TD$MPC (NAME=MPCREC1,STCLASS=AUTO,NUMDEV#=32);
     4621     1816        %TD$MPC (NAME=TD$MPC,NUMDEV#=32);
     4622     1838        %TD$DEV (NAME=DEVREC,STCLASS=AUTO);
     4623     1857        %TD$DEV (NAME=TD$DEV);
     4624     1876        /**/
     4625     1877        /* VARS */
     4626     1878    1   DCL IOMREC$ PTR;
PL6.E3A0      #005=THF$CONFIG File=THF$FORMAT.:E05TSI                            WED 07/30/97 06:16 Page:892
     4627     1879    1   DCL MPCREC$ PTR;
     4628     1880    1   DCL DEVREC$ PTR;
     4629     1881        /**/
     4630     1882    1   DCL IOM_NAME CHAR(4);
     4631     1883    1   DCL ZERO CHAR(8) CONSTANT INIT('0       '); /* USED FOR GETREC CALLS          */
     4632     1884    1   DCL IOM# CHAR(1);
     4633     1885    1   DCL NUM_CHANS UBIN WORD;
     4634     1886    1   DCL CHANS (0:7) UBIN WORD;
     4635     1887    1   DCL I SBIN;
     4636     1888    1   DCL J SBIN;
     4637     1889        /**/
     4638     1890    1   DCL INDX_VEC (0:10) UBIN WORD STATIC;
     4639     1891    1   DCL 1 TVEC DALIGNED,
     4640     1892    1         2 BOUND UBIN(20) UNAL,
     4641     1893    1         2 * BIT(16),
     4642     1894    1         2 PTR$ PTR;
     4643     1895    1   DCL TEXTBUF CHAR(256);
     4644     1896    1   DCL TEXT$ PTR;
     4645     1897        /**/
     4646     1898    1   DCL BLANK_LINE CHAR(0) CONSTANT INIT('%10P');
     4647     1899    1   DCL APC_FMT CHAR(0) CONSTANT INIT(
     4648     1900    1   '  ARRAY PROCESSORS: %40-Channels : 18-19 %10P');
     4649     1901    1   DCL CONFIG_APC BIT(72) DALIGNED STATIC INIT(VECTOR(APC_FMT));
     4650     1902    1   DCL IOM_FMT CHAR(0) CONSTANT INIT(
     4651     1903    1   '%/%A %2.264P PORT#%D%10P');
     4652     1904    1   DCL CONFIG_IOM BIT(72) DALIGNED STATIC INIT(VECTOR(IOM_FMT));
     4653     1905    1   DCL MPC_FMT CHAR(0) CONSTANT INIT(
     4654     1906    1   '  MPC %4A %2PFirmware : %T %T %T %T Channels : %T%10P');
     4655     1907    1   DCL CONFIG_MPC BIT(72) DALIGNED STATIC INIT(VECTOR(MPC_FMT));
     4656     1908    1   DCL OPC_FMT CHAR(0) CONSTANT INIT(
     4657     1909    1   '  OPTC  %7A Channel : %2P%D%10P');
     4658     1910    1   DCL CONFIG_OPC BIT(72) DALIGNED STATIC INIT(VECTOR(OPC_FMT));
     4659     1911    1   DCL DEV_FMT CHAR(0) CONSTANT INIT(
     4660     1912    1   '    %4A Dev#%2.10.2P%2.18D Model# %2P%8A Feature# %8A Attr : %3P%T%10P');
     4661     1913    1   DCL CONFIG_DEV BIT(72) DALIGNED STATIC INIT(VECTOR(DEV_FMT));
     4662     1914    1   DCL FEP_FMT CHAR(0) CONSTANT INIT(
     4663     1915    1   '   %7A Channel : %2P%D%10P');
PL6.E3A0      #005=THF$CONFIG File=THF$FORMAT.:E05TSI                            WED 07/30/97 06:16 Page:893
     4664     1916    1   DCL CONFIG_FEP BIT(72) DALIGNED STATIC INIT(VECTOR(FEP_FMT));
     4665     1917    1   DCL SC_FMT CHAR(0) CONSTANT INIT(
     4666     1918    1   '   %4A Channel : %2P%D%10P');
     4667     1919    1   DCL CONFIG_SC BIT(72) DALIGNED STATIC INIT(VECTOR(SC_FMT));
     4668     1920        /**/
     4669     1921    1   DCL 1 UC_TBL (0:10) CONSTANT ALIGNED,
     4670     1922    1         2 ATTR BIT(18) UNAL INIT(%ATTR_TRUOVRPRT#,
     4671     1923    1                                  %ATTR_APL#,
     4672     1924    1                                  %ATTR_BIN#,
     4673     1925    1                                  %ATTR_LOWERCASE#,
     4674     1926    1                                  '0'B,
     4675     1927    1                                  '0'B,
     4676     1928    1                                  '0'B,
     4677     1929    1                                  '0'B,
     4678     1930    1                                  '0'B,
     4679     1931    1                                  '0'B,
     4680     1932    1                                  '0'B),
     4681     1933    1         2 LEN UBIN BYTE UNAL INIT(9,3,6,9,0*0),
     4682     1934    1         2 TEXT CHAR(32) INIT('Overprint','Apl','Binary','Lowercase',' '*0);
     4683     1935    1   DCL 1 TC_TBL (0:10) CONSTANT ALIGNED,
     4684     1936    1         2 ATTR BIT(18) UNAL INIT(%ATTR_D6250#,
     4685     1937    1                                  %ATTR_D1600#,
     4686     1938    1                                  %ATTR_D800#,
     4687     1939    1                                  '0'B,
     4688     1940    1                                  '0'B,
     4689     1941    1                                  '0'B,
     4690     1942    1                                  '0'B,
     4691     1943    1                                  '0'B,
     4692     1944    1                                  '0'B,
     4693     1945    1                                  '0'B,
     4694     1946    1                                  '0'B),
     4695     1947    1         2 LEN UBIN BYTE UNAL INIT(8,8,9,0*0),
     4696     1948    1         2 TEXT CHAR(32) INIT('6250 BPI','1600 BPI','800 BPI',' '*0);
     4697     1949    1   DCL 1 DC_TBL (0:10) CONSTANT ALIGNED,
     4698     1950    1         2 ATTR BIT(18) UNAL INIT(%ATTR_DD600#,
     4699     1951    1                                  %ATTR_DD200#,
     4700     1952    1                                  %ATTR_DD500#,
PL6.E3A0      #005=THF$CONFIG File=THF$FORMAT.:E05TSI                            WED 07/30/97 06:16 Page:894
     4701     1953    1                                  %ATTR_DD1000#,
     4702     1954    1                                  %ATTR_DD1500#,
     4703     1955    1                                  %ATTR_DD400#,
     4704     1956    1                                  %ATTR_DD1100#,
     4705     1957    1                                  '0'B,
     4706     1958    1                                  '0'B,
     4707     1959    1                                  '0'B,
     4708     1960    1                                  '0'B),
     4709     1961    1         2 LEN UBIN BYTE UNAL INIT(6,6,6,7,7,6,7,0*0),
     4710     1962    1         2 TEXT CHAR(32) INIT('600 MB','200 MB','500 MB','1000 MB','1500 MB',
     4711     1963    1                                                     '400 MB','1100 MB',' '*0);
     4712     1964    1   DCL 1 AP_TBL (0:10) CONSTANT ALIGNED,
     4713     1965    1         2 ATTR BIT(18) UNAL INIT(%ATTR_AP_SJE, '0'B,
     4714     1966    1                                  %ATTR_AP_M16384,
     4715     1967    1                                  %ATTR_AP_M8192,
     4716     1968    1                                  %ATTR_AP_M4096,
     4717     1969    1                                  %ATTR_AP_M2048,
     4718     1970    1                                  %ATTR_AP_M1024,
     4719     1971    1                                  %ATTR_AP_M512,
     4720     1972    1                                  %ATTR_AP_M256,
     4721     1973    1                                  %ATTR_AP_M128, '0'B),
     4722     1974    1         2 LEN UBIN BYTE UNAL INIT(3,4,6,5,5,5,5,4,4,4,0*0),
     4723     1975    1         2 TEXT CHAR(32) INIT('SJE','APEX','16384K','8192K','4096K',
     4724     1976    1                              '2048K','1024K','512K','256K','128K',' '*0);
     4725     1977    1   DCL 1 OD_TBL (0:10) CONSTANT ALIGNED,
     4726     1978    1         2 ATTR BIT(18) UNAL INIT('0'B,
     4727     1979    1                                  '0'B,
     4728     1980    1                                  '0'B,
     4729     1981    1                                  '0'B,
     4730     1982    1                                  '0'B,
     4731     1983    1                                  '0'B,
     4732     1984    1                                  '0'B,
     4733     1985    1                                  '0'B,
     4734     1986    1                                  '0'B,
     4735     1987    1                                  '0'B,
     4736     1988    1                                  '0'B),
     4737     1989    1         2 LEN UBIN BYTE UNAL INIT(0*0),
PL6.E3A0      #005=THF$CONFIG File=THF$FORMAT.:E05TSI                            WED 07/30/97 06:16 Page:895
     4738     1990    1         2 TEXT CHAR(32) INIT(' '*0);
     4739     1991    1   DCL 1 ATTR$TBL (0:10) BASED ALIGNED,
     4740     1992    1         2 ATTR BIT(18) UNAL,
     4741     1993    1         2 LEN UBIN BYTE UNAL,
     4742     1994    1         2 TEXT CHAR(32);
     4743     1995    1   DCL ATTR$TBL$ (0:5) PTR STATIC INIT(ADDR(NIL),
     4744     1996    1                                       ADDR(UC_TBL),
     4745     1997    1                                       ADDR(TC_TBL),
     4746     1998    1                                       ADDR(DC_TBL),
     4747     1999    1                                       ADDR(AP_TBL),
     4748     2000    1                                       ADDR(OD_TBL));
     4749     2001    1   DCL AP_ATTR_TBL$ PTR STATIC INIT(ADDR(AP_TBL)); /* PTR TO AP TBL */
     4750     2002    1   DCL NUM_ATTRS (0:5) UBIN WORD CONSTANT INIT(0,4,3,7,9,0);
     4751     2003    1   DCL FIRST_MPC SBIN;
     4752     2004    1   DCL LAST_MPC SBIN;
     4753     2005    1   DCL FIRST_IOM SBIN;
     4754     2006    1   DCL LAST_IOM SBIN;
     4755     2007    1   DCL FIRST_FEP SBIN;
     4756     2008    1   DCL LAST_FEP SBIN;
     4757     2009    1   DCL FIRST_SC SBIN;
     4758     2010    1   DCL LAST_SC SBIN;
     4759     2011    1   DCL JJ SBIN;
     4760     2012    1   DCL II SBIN;
     4761     2013    1   DCL ST SBIN;
     4762     2014    1   DCL SP SBIN;
     4763     2015    1   DCL DEV_FLG BIT(1) ALIGNED;
     4764     2016    1   DCL TEMP_DEV CHAR(2);
     4765     2017    1   DCL C_CODE UBIN;
     4766     2018        %EJECT;
PL6.E3A0      #005=THF$CONFIG File=THF$FORMAT.:E05TSI                            WED 07/30/97 06:16 Page:896
     4767     2019    1     II = 0;
     4768     2020    1        CALL THG$GETREC(%CONFIG,ZERO);
     4769     2021    1        TD_HEAD = TH_RECORD.PTR$->TD$HEAD;
     4770     2022    2        DO WHILE (II < TH_NUM_REP_DEVS);
     4771     2023    2           JJ = 0;
     4772     2024    2           DEV_FLG = %FALSE;
     4773     2025    2        FIRST_IOM = 0;
     4774     2026    2        LAST_IOM = TD_HEAD.NUMIOMS - 1;
     4775     2027    2        FIRST_MPC = 1;
     4776     2028    2        LAST_MPC = 5;
     4777     2029    2        FIRST_FEP = TD_HEAD.FEP_INDX;
     4778     2030    2        LAST_FEP = TD_HEAD.FEP_INDX + TD_HEAD.NUMFEPS - 1;
     4779     2031    2        FIRST_SC = TD_HEAD.CONSOLE_INDX;
     4780     2032    2        LAST_SC = TD_HEAD.CONSOLE_INDX + TD_HEAD.NUMCONSOLES - 1;
     4781     2033    2        IF CODE = %ALL
     4782     2034    3           THEN DO;
     4783     2035    3              II = 9999;
     4784     2036    3              GOTO FOR_ALL;
     4785     2037    3           END;
     4786     2038    2        ST = II;
     4787     2039    3        DO WHILE (SUBSTR(TH_REP_DEVS(II),0,2) = SUBSTR(TH_REP_DEVS(II+1),0,2)
     4788     2040    3                  AND II < TH_NUM_REP_DEVS-1);
     4789     2041    3           II = II + 1;
     4790     2042    3        END;
     4791     2043    2        SP = II;
     4792     2044    2           TEMP_DEV = SUBSTR(TH_REP_DEVS(II),0,2);
     4793     2045    2           IF TEMP_DEV = 'FE'
     4794     2046    2              THEN C_CODE = %FEP;
     4795     2047    2              ELSE
     4796     2048    2           IF TEMP_DEV = 'IO'
     4797     2049    2              THEN C_CODE = %IOM;
     4798     2050    2              ELSE
     4799     2051    2           IF TEMP_DEV = 'CO' OR TEMP_DEV = 'SC'
     4800     2052    2              THEN C_CODE = %SC;
     4801     2053    2              ELSE
     4802     2054    2           IF TEMP_DEV = 'MP'
     4803     2055    2              THEN C_CODE = %MPC1;
PL6.E3A0      #005=THF$CONFIG File=THF$FORMAT.:E05TSI                            WED 07/30/97 06:16 Page:897
     4804     2056    2              ELSE
     4805     2057    2           IF TEMP_DEV = 'DC'
     4806     2058    2              THEN C_CODE = %DC;
     4807     2059    2              ELSE
     4808     2060    2           IF TEMP_DEV = 'TC'
     4809     2061    2              THEN C_CODE = %TC;
     4810     2062    2              ELSE
     4811     2063    2           IF TEMP_DEV = 'UC'
     4812     2064    2              THEN C_CODE = %UC;
     4813     2065    2              ELSE
     4814     2066    2           IF TEMP_DEV = 'AC'
     4815     2067    2              THEN C_CODE = %AC;
     4816     2068    2              ELSE
     4817     2069    2           IF TEMP_DEV = 'OP'
     4818     2070    2              THEN C_CODE = %OPC;
     4819     2071    2              ELSE
     4820     2072    2           IF TEMP_DEV = 'AP'
     4821     2073    2              THEN C_CODE = %AP;
     4822     2074    2              ELSE
     4823     2075    2           IF TEMP_DEV = 'OD'
     4824     2076    2              THEN C_CODE = %OD;
     4825     2077    2              ELSE
     4826     2078    2           IF TEMP_DEV = 'DP'
     4827     2079    2              THEN C_CODE = %DP;
     4828     2080    2              ELSE
     4829     2081    2           IF TEMP_DEV = 'MT'
     4830     2082    2              THEN C_CODE = %MT;
     4831     2083    2              ELSE
     4832     2084    2           IF TEMP_DEV = 'LP' OR TEMP_DEV = 'CR' OR TEMP_DEV = 'CP'
     4833     2085    2              THEN C_CODE = %LP;
     4834     2086    2        II = II + 1;
     4835     2087    3        DO CASE (C_CODE);
     4836     2088    3           CASE (%FEP);
     4837     2089    3              LAST_MPC = -1;
     4838     2090    3              LAST_SC = -1;
     4839     2091    4              DO J = ST TO SP;
     4840     2092    4                 TD_HEAD.DEVNAME(TD_HEAD.FEP_INDX + JJ) = TH_REP_DEVS(J);
PL6.E3A0      #005=THF$CONFIG File=THF$FORMAT.:E05TSI                            WED 07/30/97 06:16 Page:898
     4841     2093    4                 JJ = JJ + 1;
     4842     2094    4                 END;  /* DO J */
     4843     2095    3              LAST_FEP = FIRST_FEP + (SP - ST);
     4844     2096    3           CASE(%IOM);
     4845     2097    3              CALL CHARBIN(FIRST_IOM,SUBSTR(TH_REP_DEVS(ST),3,1));
     4846     2098    3              CALL CHARBIN(LAST_IOM,SUBSTR(TH_REP_DEVS(SP - ST),3,1));
     4847     2099    3           CASE(%SC);
     4848     2100    3              LAST_FEP = -1;
     4849     2101    3              LAST_MPC = -1;
     4850     2102    4              DO J = ST TO SP;
     4851     2103    4                 TD_HEAD.DEVNAME(TD_HEAD.CONSOLE_INDX + JJ) = TH_REP_DEVS(J);
     4852     2104    4                 JJ = JJ + 1;
     4853     2105    4                 END;  /* DO J */
     4854     2106    3              LAST_SC = FIRST_SC + SP-ST;
     4855     2107    3           CASE(%MPC1);
     4856     2108    3              LAST_SC = -1;
     4857     2109    3              LAST_FEP = -1;
     4858     2110    3           CASE(%OPC);
     4859     2111    3              LAST_SC = -1;
     4860     2112    3              LAST_FEP = -1;
     4861     2113    3              FIRST_MPC = 5;
     4862     2114    3              LAST_MPC = FIRST_MPC;
     4863     2115    4              DO J = ST TO SP;
     4864     2116    4                 TD_HEAD.DEVNAME(TD_HEAD.OPC_INDX+JJ) = TH_REP_DEVS(J);
     4865     2117    4                 JJ = JJ + 1;
     4866     2118    4                 END;  /* DO J */
     4867     2119    3              TD_HEAD.NUMOPCS = SP - ST + 1;
     4868     2120    3           CASE(%AC);
     4869     2121    3              LAST_SC = -1;
     4870     2122    3              LAST_FEP = -1;
     4871     2123    3              FIRST_MPC = 4;
     4872     2124    3              LAST_MPC = FIRST_MPC;
     4873     2125    4              DO J = ST TO SP;
     4874     2126    4                 TD_HEAD.DEVNAME(TD_HEAD.APMPC_INDX+JJ) = TH_REP_DEVS(J);
     4875     2127    4                 JJ = JJ + 1;
     4876     2128    4                 END;  /* DO J */
     4877     2129    3              TD_HEAD.NUMAPMPCS = SP - ST + 1;
PL6.E3A0      #005=THF$CONFIG File=THF$FORMAT.:E05TSI                            WED 07/30/97 06:16 Page:899
     4878     2130    3           CASE(%DC);
     4879     2131    3              LAST_SC = -1;
     4880     2132    3              LAST_FEP = -1;
     4881     2133    3              FIRST_MPC = 3;
     4882     2134    3              LAST_MPC = FIRST_MPC;
     4883     2135    4              DO J = ST TO SP;
     4884     2136    4                 TD_HEAD.DEVNAME(TD_HEAD.DISKMPC_INDX+JJ) = TH_REP_DEVS(J);
     4885     2137    4                 JJ = JJ + 1;
     4886     2138    4                 END;  /* DO J */
     4887     2139    3              TD_HEAD.NUMDISKMPCS = SP - ST + 1;
     4888     2140    3           CASE(%TC);
     4889     2141    3              LAST_SC = -1;
     4890     2142    3              LAST_FEP = -1;
     4891     2143    3              FIRST_MPC = 2;
     4892     2144    3              LAST_MPC = FIRST_MPC;
     4893     2145    4              DO J = ST TO SP;
     4894     2146    4                 TD_HEAD.DEVNAME(TD_HEAD.TAPEMPC_INDX+JJ) = TH_REP_DEVS(J);
     4895     2147    4                 JJ = JJ + 1;
     4896     2148    4                 END;  /* DO J */
     4897     2149    3              TD_HEAD.NUMTAPEMPCS = SP - ST + 1;
     4898     2150    3           CASE(%UC);
     4899     2151    3              LAST_SC = -1;
     4900     2152    3              LAST_FEP = -1;
     4901     2153    3              FIRST_MPC = 1;
     4902     2154    3              LAST_MPC = FIRST_MPC;
     4903     2155    4              DO J = ST TO SP;
     4904     2156    4                 TD_HEAD.DEVNAME(TD_HEAD.UNITMPC_INDX+JJ) = TH_REP_DEVS(J);
     4905     2157    4                 JJ = JJ + 1;
     4906     2158    4                 END;  /* DO J */
     4907     2159    3              TD_HEAD.NUMUNITMPCS = SP-ST+1;
     4908     2160    3           CASE (%DP);
     4909     2161    3              FIRST_MPC = 3;
     4910     2162    3              DEV_FLG = %TRUE;
     4911     2163    3              CALL MPC_DEVICES(' ',FIRST_MPC,ST,SP,DEV_FLG);
     4912     2164    3              GOTO NEXT;
     4913     2165    3           CASE (%MT);
     4914     2166    3              FIRST_MPC = 2;
PL6.E3A0      #005=THF$CONFIG File=THF$FORMAT.:E05TSI                            WED 07/30/97 06:16 Page:900
     4915     2167    3              DEV_FLG = %TRUE;
     4916     2168    3              CALL MPC_DEVICES(' ',FIRST_MPC,ST,SP,DEV_FLG);
     4917     2169    3              GOTO NEXT;
     4918     2170    3           CASE (%LP);
     4919     2171    3              FIRST_MPC = 1;
     4920     2172    3              DEV_FLG = %TRUE;
     4921     2173    3              CALL MPC_DEVICES(' ',FIRST_MPC,ST,SP,DEV_FLG);
     4922     2174    3              GOTO NEXT;
     4923     2175    3           CASE (%AP);
     4924     2176    3              FIRST_MPC = 4;
     4925     2177    3              DEV_FLG = %TRUE;
     4926     2178    3              CALL MPC_DEVICES(' ',FIRST_MPC,ST,SP,DEV_FLG);
     4927     2179    3              GOTO NEXT;
     4928     2180    3           CASE (%OD);
     4929     2181    3              FIRST_MPC = 5;
     4930     2182    3              DEV_FLG = %TRUE;
     4931     2183    3              CALL MPC_DEVICES(' ',FIRST_MPC,ST,SP,DEV_FLG);
     4932     2184    3              GOTO NEXT;
     4933     2185    3           END;  /* DO CASE CODE */
     4934     2186    2     FOR_ALL:
     4935     2187    2        INDX_VEC = TD_HEAD;
     4936     2188    3        DO I = FIRST_IOM TO LAST_IOM;
     4937     2189    3           CALL BINCHAR(IOM#,I);
     4938     2190    3           CALL CONCAT(IOM_NAME,'IOM',IOM#);
     4939     2191    3           CALL THG$GETREC(%CONFIG,IOM_NAME);
     4940     2192    3           IOMREC = TH_RECORD.PTR$->TD$IOM;
     4941     2193    3           CALL THW$WRITE(CONFIG_IOM,VECTOR(IOM_NAME),VECTOR(IOMREC));
     4942     2194    3           CALL THW$WRITE(VECTOR(BLANK_LINE));
     4943     2195
     4944     2196                                                /* OUTPUT MPCS AND THEIR DEVICES      */
     4945     2197    4           DO J = FIRST_MPC TO LAST_MPC;
     4946     2198    4              CALL OUTPUT_MPC(INDX_VEC(J),J);
     4947     2199    4           END;                            /* DO J                               */
     4948     2200
     4949     2201                                                /* OUTPUT FEPS                        */
     4950     2202    4           DO J = FIRST_FEP TO LAST_FEP;
     4951     2203    4              CALL FIND_CHANNEL(TD_HEAD.DEVNAME(J),NUM_CHANS,CHANS);
PL6.E3A0      #005=THF$CONFIG File=THF$FORMAT.:E05TSI                            WED 07/30/97 06:16 Page:901
     4952     2204    4              IF NUM_CHANS > 0
     4953     2205    4              THEN CALL THW$WRITE(CONFIG_FEP,VECTOR(TD_HEAD.DEVNAME(J)),VECTOR(CHANS));
     4954     2206    4           END;                            /* DO J                               */
     4955     2207    3           CALL THW$WRITE(VECTOR(BLANK_LINE));
     4956     2208
     4957     2209                                                /* OUTPUT SCS                         */
     4958     2210    4           DO J = FIRST_SC TO LAST_SC;
     4959     2211    4              CALL FIND_CHANNEL(TD_HEAD.DEVNAME(J),NUM_CHANS,CHANS);
     4960     2212    4              IF NUM_CHANS > 0
     4961     2213    4              THEN CALL THW$WRITE(CONFIG_SC,VECTOR(TD_HEAD.DEVNAME(J)),VECTOR(CHANS));
     4962     2214    4           END;                            /* DO J                               */
     4963     2215    3        END;                               /* DO I                               */
     4964     2216    2     NEXT:
     4965     2217    2        END;                             /* DO WHILE II                           */
     4966     2218    1        RETURN;
     4967     2219        %EJECT;
PL6.E3A0      #005=THF$CONFIG File=THF$FORMAT.:E05TSI                            WED 07/30/97 06:16 Page:902
     4968     2220        /* THIS PROCEDURE RETURNS THE IOM CHANNEL NUMBERS THAT A GIVEN DEVICE IS CONNECTED T
              2220        O */
     4969     2221    1   FIND_CHANNEL: PROC(DEVNAME,NUM,CHANS);
     4970     2222        /**/
     4971     2223        /* PARAMS */
     4972     2224    2   DCL DEVNAME CHAR(8);
     4973     2225    2   DCL NUM UBIN WORD;
     4974     2226    2   DCL CHANS(0:7) UBIN WORD;
     4975     2227        /**/
     4976     2228        /* LOCAL VARS */
     4977     2229    2   DCL I UBIN;
     4978     2230        /**/
     4979     2231    2        NUM = 0;
     4980     2232    2        CHANS = '0'B;
     4981     2233    3        DO I = 0 TO %N_MAXCHANS-1;         /* DO ALL CHANNELS OF CURRENT IOM     */
     4982     2234    3           IF IOMREC.DEVNAME(I) = DEVNAME
     4983     2235    3              THEN                         /* FOUND IT                           */
     4984     2236    4              DO;
     4985     2237    4                 NUM = NUM + 1;
     4986     2238    4                 CHANS(NUM - 1) = I;
     4987     2239    4              END;                         /* IF                                 */
     4988     2240    3        END;                               /* DO I                               */
     4989     2241    2        RETURN;
     4990     2242    2   END FIND_CHANNEL;
     4991     2243        %EJECT;
PL6.E3A0      #005=THF$CONFIG File=THF$FORMAT.:E05TSI                            WED 07/30/97 06:16 Page:903
     4992     2244        /* THIS PROCEDURE OUTPUTS MPC INFO AND DEVICE INFO FOR ALL DEVICES CONNECTED TO THE
              2244        GIVEN MPC */
     4993     2245    1   OUTPUT_MPC: PROC(INDX,MPC_TYPE);
     4994     2246        /**/
     4995     2247        /* PARAMS */
     4996     2248    2   DCL 1 INDX ALIGNED,
     4997     2249    2         2 FIRST UBIN HALF UNAL,
     4998     2250    2         2 NUM UBIN HALF UNAL;
     4999     2251    2   DCL MPC_TYPE UBIN WORD;
     5000     2252        /**/
     5001     2253        /* LOCAL VARS */
     5002     2254    2   DCL FIRST UBIN HALF;
     5003     2255    2   DCL LAST UBIN HALF;
     5004     2256    2   DCL I UBIN;
     5005     2257    2   DCL J UBIN;
     5006     2258    2   DCL NUM_XBARS SBIN;
     5007     2259    2   DCL XBARS(0:10) UBIN WORD;
     5008     2260    2   DCL FOUND BIT(1);
     5009     2261    2   DCL XBAR_INDX UBIN WORD;
     5010     2262    2   DCL XBAR_FMT CHAR(0) CONSTANT INIT('
     5011     2263    2   %25-crossbarred with%10P');
     5012     2264        /**/
     5013     2265        %EJECT;
PL6.E3A0      #005=THF$CONFIG File=THF$FORMAT.:E05TSI                            WED 07/30/97 06:16 Page:904
     5014     2266    2        FIRST = INDX.FIRST;
     5015     2267    2        LAST = INDX.FIRST + INDX.NUM - 1;
     5016     2268    2        NUM_XBARS = 0;
     5017     2269    3        DO I = FIRST TO LAST;
     5018     2270                                 /* CHECK IF THIS MPC HAS ALREADY BEEN DEALT WITH     */
     5019     2271    4           DO J = 0 TO NUM_XBARS - 1;
     5020     2272    4              IF I = XBARS(J)
     5021     2273    4                 THEN GOTO ENDLOOP;
     5022     2274    4           END;                            /* DO J                               */
     5023     2275    3           CALL MPC_HDR(TD_HEAD.DEVNAME(I)) ALTRET(ENDLOOP);
     5024     2276    3           IF MPC_TYPE = 3
     5025     2277    3              THEN                         /* DC                                 */
     5026     2278    4              DO;
     5027     2279    4                 CALL XBAR(I,LAST,XBAR_INDX) ALTRET(NO_XBAR);
     5028     2280    4                 CALL THW$WRITE(VECTOR(XBAR_FMT));
     5029     2281    4                 CALL MPC_HDR(TD_HEAD.DEVNAME(XBAR_INDX));
     5030     2282    4                 XBARS(NUM_XBARS) = XBAR_INDX;
     5031     2283    4                 NUM_XBARS = NUM_XBARS + 1;
     5032     2284    4              END;                         /* IF DC                              */
     5033     2285    3     NO_XBAR:
     5034     2286    3           DEV_FLG = %FALSE;
     5035     2287    3           CALL MPC_DEVICES(TD_HEAD.DEVNAME(I),MPC_TYPE,0,0,DEV_FLG);
     5036     2288    3           CALL THW$WRITE(VECTOR(BLANK_LINE));
     5037     2289    3       ENDLOOP:
     5038     2290    3        END;                               /* DO I                               */
     5039     2291    2        RETURN;
     5040     2292    2   END OUTPUT_MPC;
     5041     2293        %EJECT;
PL6.E3A0      #005=THF$CONFIG File=THF$FORMAT.:E05TSI                            WED 07/30/97 06:16 Page:905
     5042     2294    1   MPC_HDR: PROC(MPC_NAME) ALTRET;
     5043     2295        /**/
     5044     2296        /* PARAMS */
     5045     2297    2   DCL MPC_NAME CHAR(8);
     5046     2298    2   DCL TMP_NAME CHAR(8);
     5047     2299        /**/
     5048     2300        /* LOCAL VARS */
     5049     2301    2   DCL RANGE_FLAG BIT(1);
     5050     2302    2   DCL BUF_CNT UBIN WORD;
     5051     2303    2   DCL LEN UBIN WORD;
     5052     2304    2   DCL CHAN_BUF CHAR(40);
     5053     2305    2   DCL CHAN CHAR(3);
     5054     2306    2   DCL LAST_CHAN UBIN WORD;
     5055     2307    2   DCL J UBIN;
     5056     2308    2   DCL REVBUF CHAR(8);
     5057     2309        /**/
     5058     2310        %EJECT;
PL6.E3A0      #005=THF$CONFIG File=THF$FORMAT.:E05TSI                            WED 07/30/97 06:16 Page:906
     5059     2311    2        CHAN_BUF = ' ';
     5060     2312    2        BUF_CNT = 0;
     5061     2313    2        TEXT$ = ADDR(TEXTBUF);
     5062     2314    2        CALL THG$GETREC(%CONFIG,MPC_NAME);
     5063     2315    2        MPCREC = TH_RECORD.PTR$->TD$MPC;
     5064     2316    2        CALL THF$ADD_TEXTC(TEXT$,MPCREC.FWNAME,4);
     5065     2317    2        CALL THF$ADD_TEXTC(TEXT$,MPCREC.LPFWNAME,4);
     5066     2318    2        CALL THF$ADD_TEXTC(TEXT$,MPCREC.CRPFWNAME,4);
     5067     2319    3        IF MPCREC.FWREV.LETTER ~= ' ' THEN DO;
     5068     2320    3           CALL INSERT(REVBUF,0,,'(rev ',MPCREC.FWREV.LETTER,MPCREC.FWREV.SUBREV,')');
     5069     2321    3           CALL THF$ADD_TEXTC(TEXT$,REVBUF,8);
     5070     2322    3           END;  /* IF */
     5071     2323    3        ELSE DO;
     5072     2324    3           CALL THF$ADD_TEXTC(TEXT$,' ',1);
     5073     2325    3           END;  /* ELSE */
     5074     2326    2        IF SUBSTR(MPC_NAME,0,2) = 'OP'  THEN
     5075     2327    2           CALL CONCAT(TMP_NAME,'FEP',SUBSTR(MPC_NAME,2,2));  /* TMP == OPC here  */
     5076     2328    2        ELSE
     5077     2329    2           TMP_NAME = MPC_NAME;                               /* TMP == MPC here  */
     5078     2330    2        CALL FIND_CHANNEL(TMP_NAME,NUM_CHANS,CHANS);
     5079     2331    2        IF NUM_CHANS = 0 THEN ALTRETURN;
     5080     2332    2        RANGE_FLAG = %FALSE;
     5081     2333    2        CALL MY_BINCHAR(CHANS(0),CHAN,LEN);
     5082     2334    2        CALL INSERT(CHAN_BUF,BUF_CNT,LEN,CHAN);
     5083     2335    2        BUF_CNT = BUF_CNT + LEN;
     5084     2336    2        LAST_CHAN = CHANS(0);
     5085     2337    3        DO J = 1 TO NUM_CHANS - 1;
     5086     2338    3           IF CHANS(J) = LAST_CHAN + 1
     5087     2339    3              THEN RANGE_FLAG = %TRUE;
     5088     2340    3              ELSE
     5089     2341    4              DO;
     5090     2342    4                 IF RANGE_FLAG
     5091     2343    4                    THEN
     5092     2344    5                    DO;
     5093     2345    5                       RANGE_FLAG = %FALSE;
     5094     2346    5                       CALL INSERT(CHAN_BUF,BUF_CNT,1,'-');
     5095     2347    5                       BUF_CNT = BUF_CNT + 1;
PL6.E3A0      #005=THF$CONFIG File=THF$FORMAT.:E05TSI                            WED 07/30/97 06:16 Page:907
     5096     2348    5                       CALL MY_BINCHAR(LAST_CHAN,CHAN,LEN);
     5097     2349    5                       CALL INSERT(CHAN_BUF,BUF_CNT,LEN,CHAN);
     5098     2350    5                       BUF_CNT = BUF_CNT + LEN;
     5099     2351    5                    END;                   /* IF RANGE_FLAG                      */
     5100     2352    4                 CALL INSERT(CHAN_BUF,BUF_CNT,1,',');
     5101     2353    4                 BUF_CNT = BUF_CNT + 1;
     5102     2354    4                 CALL MY_BINCHAR(CHANS(J),CHAN,LEN);
     5103     2355    4                 CALL INSERT(CHAN_BUF,BUF_CNT,LEN,CHAN);
     5104     2356    4                 BUF_CNT = BUF_CNT + LEN;
     5105     2357    4              END;                         /* IF CHANS(J) -1 = LAST_CHAN         */
     5106     2358    3           LAST_CHAN = CHANS(J);
     5107     2359    3        END;                               /* DO J                               */
     5108     2360    2        IF RANGE_FLAG
     5109     2361    2           THEN
     5110     2362    3           DO;
     5111     2363    3              CALL INSERT(CHAN_BUF,BUF_CNT,1,'-');
     5112     2364    3              BUF_CNT = BUF_CNT + 1;
     5113     2365    3              CALL MY_BINCHAR(LAST_CHAN,CHAN,LEN);
     5114     2366    3              CALL INSERT(CHAN_BUF,BUF_CNT,LEN,CHAN);
     5115     2367    3              BUF_CNT = BUF_CNT + LEN;
     5116     2368    3           END;
     5117     2369    2        CALL THF$ADD_TEXTC(TEXT$,CHAN_BUF,BUF_CNT);
     5118     2370    2        TVEC = VECTOR(TEXTBUF);
     5119     2371    2        TVEC.BOUND = POFFC(TEXT$,ADDR(TEXTBUF)) - 1;
     5120     2372    2        IF SUBSTR(MPC_NAME,0,2) = 'OP'  THEN
     5121     2373    2           CALL THW$WRITE(CONFIG_OPC,VECTOR(TMP_NAME),VECTOR(CHANS));
     5122     2374    2        ELSE
     5123     2375    2           CALL THW$WRITE(CONFIG_MPC,VECTOR(MPC_NAME),TVEC);
     5124     2376    2        RETURN;
     5125     2377    2   END MPC_HDR;
     5126     2378        %EJECT;
PL6.E3A0      #005=THF$CONFIG File=THF$FORMAT.:E05TSI                            WED 07/30/97 06:16 Page:908
     5127     2379    1   MPC_DEVICES: PROC(MPC_NAME,MPC_TYPE,ST,SP,DEV_FLG);
     5128     2380        /**/
     5129     2381        /* PARAMS */
     5130     2382    2   DCL MPC_NAME CHAR(8);
     5131     2383    2   DCL MPC_TYPE UBIN WORD;
     5132     2384    2   DCL ST SBIN;
     5133     2385    2   DCL SP SBIN;
     5134     2386    2   DCL DEV_FLG BIT(1) ALIGNED;
     5135     2387        /**/
     5136     2388        /* LOCAL VARS */
     5137     2389    2   DCL ATTR_BUF CHAR(256) STATIC INIT(' ');
     5138     2390    2   DCL TEXT CHAR(32) STATIC INIT(' ');
     5139     2391    2   DCL I UBIN WORD;
     5140     2392    2   DCL J UBIN WORD;
     5141     2393    2   DCL K UBIN WORD;
     5142     2394    2   DCL STRT UBIN WORD;
     5143     2395    2   DCL LEN UBIN WORD;
     5144     2396    2   DCL OUTPUT_ATTRS UBIN WORD;
     5145     2397    2   DCL START SBIN;
     5146     2398    2   DCL STOP SBIN;
     5147     2399    2   DCL TH_AP_ATTR_FLG BIT(1) STATIC SYMDEF INIT('0'B);
     5148     2400        /**/
     5149     2401        %EJECT;
PL6.E3A0      #005=THF$CONFIG File=THF$FORMAT.:E05TSI                            WED 07/30/97 06:16 Page:909
     5150     2402    2        IF DEV_FLG
     5151     2403    3           THEN DO;
     5152     2404    3              START = ST;
     5153     2405    3              STOP = SP;
     5154     2406    3           END;
     5155     2407    3           ELSE DO;
     5156     2408    3              START = 0;
     5157     2409    3              STOP = MPCREC.NUMDEVS - 1;
     5158     2410    3           END;
     5159     2411    3        DO J = START TO STOP;
     5160     2412    3           TEXT$ = ADDR(TEXTBUF);
     5161     2413    3           IF DEV_FLG
     5162     2414    3              THEN
     5163     2415    3                 CALL THG$GETREC(%CONFIG,TH_REP_DEVS(J))  ALTRET(NO_DEVICE);
     5164     2416    3              ELSE
     5165     2417    3                 CALL THG$GETREC(%CONFIG,MPCREC.DEVNAME(J));
     5166     2418    3           DEVREC = TH_RECORD.PTR$->TD$DEV;
     5167     2419
     5168     2420                                                /* STUFF ATTR INFO INTO TEXTBUF       */
     5169     2421    3           STRT = 0;
     5170     2422    3           OUTPUT_ATTRS = 0;
     5171     2423    3           IF(SUBSTR(MPCREC.DEVNAME(J),0,2)='AC')
     5172     2424    4           THEN DO; CALL THW$WRITE(VECTOR(BLANK_LINE));
     5173     2425    4             CALL THW$WRITE(CONFIG_APC);
     5174     2426    4           END; /* if devname = 'AC' */
     5175     2427    4           DO K = 0 TO NUM_ATTRS(MPC_TYPE) - 1;
     5176     2428    4              IF(SUBSTR(MPCREC.DEVNAME(J),0,2)='AP')
     5177     2429    4              AND(NOT TH_AP_ATTR_FLG)
     5178     2430    5              THEN DO;
     5179     2431    5                 OUTPUT_ATTRS = OUTPUT_ATTRS + 1;
     5180     2432    6                 IF(AP_ATTR_TBL$->ATTR$TBL.ATTR(0) & DEVREC.ATTR) THEN DO;
     5181     2433    6                    TEXT = AP_ATTR_TBL$->ATTR$TBL.TEXT(0);
     5182     2434    6                    LEN = AP_ATTR_TBL$->ATTR$TBL.LEN(0);
     5183     2435    6                 END;
     5184     2436    6                 ELSE DO; /* ELSE ATTR$TBL.ATTR(0) ~& DEVREC.ATTR */
     5185     2437    6                    TEXT = AP_ATTR_TBL$->ATTR$TBL.TEXT(1);
     5186     2438    6                    LEN = AP_ATTR_TBL$->ATTR$TBL.LEN(1);
PL6.E3A0      #005=THF$CONFIG File=THF$FORMAT.:E05TSI                            WED 07/30/97 06:16 Page:910
     5187     2439    6                 END;
     5188     2440    5                 CALL INSERT(ATTR_BUF,STRT,LEN,TEXT);
     5189     2441    5                 STRT = STRT + LEN;
     5190     2442    5                 I = 2;
     5191     2443    6                 DO WHILE (I <= 9)AND(NOT TH_AP_ATTR_FLG);
     5192     2444    6                    IF(AP_ATTR_TBL$->ATTR$TBL.ATTR(I) & DEVREC.ATTR)
     5193     2445    7                    THEN DO;
     5194     2446    7                      TH_AP_ATTR_FLG = %TRUE;
     5195     2447    7                      OUTPUT_ATTRS = OUTPUT_ATTRS + 1;
     5196     2448    8                      IF OUTPUT_ATTRS > 1 THEN DO;
     5197     2449    8                         CALL INSERT(ATTR_BUF,STRT,2,', ');
     5198     2450    8                         STRT = STRT + 2;
     5199     2451    8                      END;
     5200     2452    7                      TEXT = AP_ATTR_TBL$->ATTR$TBL.TEXT(I);
     5201     2453    7                      LEN = AP_ATTR_TBL$->ATTR$TBL.LEN(I);
     5202     2454    7                      CALL INSERT(ATTR_BUF,STRT,LEN,TEXT);
     5203     2455    7                      STRT = STRT + LEN;
     5204     2456    7                    END;  /* IF ATTR$TBL.ATTR(I) & DEVREC.ATTR */
     5205     2457    6                 I = I + 1;
     5206     2458    6                 END; /* do while I <= 9 and not th_ap_attr_flg */
     5207     2459    5              END;    /* IF 'AP' AND NOT TH_AP_ATTR_FLG */
     5208     2460    4                 IF(ATTR$TBL$(MPC_TYPE)->ATTR$TBL.ATTR(K) & DEVREC.ATTR)
     5209     2461    5                 AND(NOT TH_AP_ATTR_FLG)THEN DO;
     5210     2462    5                    OUTPUT_ATTRS = OUTPUT_ATTRS + 1;
     5211     2463    5                    IF OUTPUT_ATTRS > 1
     5212     2464    5                       THEN                /* STUFF A COMMA                      */
     5213     2465    6                       DO;
     5214     2466    6                          CALL INSERT(ATTR_BUF,STRT,2,', ');
     5215     2467    6                          STRT = STRT + 2;
     5216     2468    6                       END;                /* IF OUTPUT_ATTRS > 1                */
     5217     2469    5                    TEXT = ATTR$TBL$(MPC_TYPE)->ATTR$TBL.TEXT(K);
     5218     2470    5                    LEN = ATTR$TBL$(MPC_TYPE)->ATTR$TBL.LEN(K);
     5219     2471    5                    CALL INSERT(ATTR_BUF,STRT,LEN,TEXT);
     5220     2472    5                    STRT = STRT + LEN;
     5221     2473    5                 END;                      /* IF                                 */
     5222     2474    4           END;                            /* DO K                               */
     5223     2475    3           TH_AP_ATTR_FLG = %FALSE;  /* reset flag */
PL6.E3A0      #005=THF$CONFIG File=THF$FORMAT.:E05TSI                            WED 07/30/97 06:16 Page:911
     5224     2476    3           CALL THF$ADD_TEXTC(TEXT$,ATTR_BUF,STRT);
     5225     2477    3           TVEC = VECTOR(TEXTBUF);
     5226     2478    3           TVEC.BOUND = POFFC(TEXT$,ADDR(TEXTBUF)) - 1;
     5227     2479    3           IF DEV_FLG
     5228     2480    3              THEN
     5229     2481    3           CALL THW$WRITE(CONFIG_DEV,VECTOR(TH_REP_DEVS(J)),VECTOR(DEVREC),TVEC);
     5230     2482    3              ELSE
     5231     2483    3           CALL THW$WRITE(CONFIG_DEV,VECTOR(MPCREC.DEVNAME(J)),VECTOR(DEVREC),TVEC);
     5232     2484    3   NO_DEVICE:
     5233     2485    3        END;                               /* DO J                               */
     5234     2486    2        RETURN;
     5235     2487    2   END MPC_DEVICES;
     5236     2488        %EJECT;
PL6.E3A0      #005=THF$CONFIG File=THF$FORMAT.:E05TSI                            WED 07/30/97 06:16 Page:912
     5237     2489    1   XBAR: PROC(MPC_INDX,LAST,XBAR_INDX) ALTRET;
     5238     2490        /**/
     5239     2491        /* PARAMS */
     5240     2492    2   DCL MPC_INDX UBIN WORD;
     5241     2493    2   DCL LAST UBIN HALF;
     5242     2494    2   DCL XBAR_INDX UBIN WORD;
     5243     2495        /**/
     5244     2496        /* LOCAL VARS */
     5245     2497    2   DCL J UBIN;
     5246     2498        /**/
     5247     2499    2        CALL THG$GETREC(%CONFIG,TD_HEAD.DEVNAME(MPC_INDX));
     5248     2500    2        MPCREC = TH_RECORD.PTR$->TD$MPC;
     5249     2501    3        DO J = MPC_INDX + 1 TO LAST;
     5250     2502    3           CALL THG$GETREC(%CONFIG,TD_HEAD.DEVNAME(J));
     5251     2503    3           MPCREC1 = TH_RECORD.PTR$->TD$MPC;
     5252     2504    3           IF MPCREC.DEVNAME = MPCREC1.DEVNAME
     5253     2505    3              THEN                         /* XBAR WITH THIS ONE                 */
     5254     2506    4              DO;
     5255     2507    4                 XBAR_INDX = J;
     5256     2508    4                 RETURN;
     5257     2509    4              END;                         /* IF                                 */
     5258     2510    3        END;                               /* DO J                               */
     5259     2511    2        ALTRETURN;
     5260     2512    2   END XBAR;
     5261     2513        %EJECT;
PL6.E3A0      #005=THF$CONFIG File=THF$FORMAT.:E05TSI                            WED 07/30/97 06:16 Page:913
     5262     2514    1   MY_BINCHAR: PROC(NUM,CHAN,LEN);
     5263     2515        /**/
     5264     2516    2   DCL NUM UBIN WORD;
     5265     2517    2   DCL CHAN CHAR(3);
     5266     2518    2   DCL LEN UBIN;
     5267     2519        /**/
     5268     2520        /* LOCAL VARS */
     5269     2521    2   DCL CHAR1 CHAR(1);
     5270     2522    2   DCL CHAR2 CHAR(2);
     5271     2523    2   DCL CHAR3 CHAR(3);
     5272     2524        /**/
     5273     2525    2        IF NUM < 10
     5274     2526    2           THEN
     5275     2527    3           DO;
     5276     2528    3              CALL BINCHAR(CHAR1,NUM);
     5277     2529    3              CHAN = CHAR1;
     5278     2530    3              LEN = 1;
     5279     2531    3           END;
     5280     2532    2           ELSE IF NUM < 100
     5281     2533    3           THEN DO;
     5282     2534    3              CALL BINCHAR(CHAR2,NUM);
     5283     2535    3              CHAN = CHAR2;
     5284     2536    3              LEN = 2;
     5285     2537    3           END;
     5286     2538    3           ELSE DO;
     5287     2539    3              CALL BINCHAR(CHAR3,NUM);
     5288     2540    3              CHAN = CHAR3;
     5289     2541    3              LEN = 3;
     5290     2542    3           END; /* else do */
     5291     2543    2        RETURN;
     5292     2544    2   END MY_BINCHAR;
     5293     2545    1   END THF$CONFIG;
     5294     2546        %EOD;

PL6.E3A0      #005=THF$CONFIG File=THF$FORMAT.:E05TSI                            WED 07/30/97 06:16 Page:914
--  Include file information  --

   NI$TABLES.:E05TOU  is referenced.
   IT_SUBS_C.:E05TOU  is referenced.
   TH_DATA_R.:E05TOU  cannot be made into a system file and is referenced.
   B_STRINGS_C.:E05TOU  is referenced.
   TH_SUBS_C.:E05TOU  is referenced.
   TD$STRUCT.:E05TOU  is referenced.
   CP_6_SUBS.:E05TOU  is referenced.
   CP_6.:E05TOU  cannot be made into a system file and is referenced.
   B$JIT_C.:E05TOU  was found in the system file and is never referenced.
   CP_6_C.:E05TOU  was found in the system file and is referenced.
      No diagnostics issued in procedure THF$CONFIG.

   Procedure THF$CONFIG requires 1472 words for executable code.
   Procedure THF$CONFIG requires 1026 words of local(AUTO) storage.

PL6.E3A0      #005=THF$CONFIG File=THF$FORMAT.:E05TSI                            WED 07/30/97 06:16 Page:915

 Object Unit name= THF$CONFIG                                 File name= THF$FORMAT.:E05TOU
 UTS= JUL 30 '97 06:16:48.44 WED                              Compiler= PL-6/E31         Sev=      00
 SharedLib= :SHARED_SYSTEM                                    Alt SharedLib=


    ****  Control sections  ****

 Sect   Type Bound  Init  Size OctSiz  Section name(segment info)
    0   DCB   even  none     0      0  M$UC
    1  RoData even  UTS    604   1134  THF$CONFIG
    2   Data  even  none   106    152  THF$CONFIG
    3   Proc  even  none  1472   2700  THF$CONFIG
    4  RoData even  none    31     37  THF$CONFIG

    ****  Entry defs  ****

                              Check   Calling
                             calling  sequence
  Sect OctLoc Primary Altret sequence   type   Parms  Name
     3      0   yes            yes      Std        1  THF$CONFIG

  ****  Data defs  ****

 Sect OctLoc  Name                           Sect OctLoc  Name
    2    151  TH_AP_ATTR_FLG

  ****  Entry refs  ****

         Check        Calling
        calling       sequence
Altret sequence SRef   type   Args  Name
 yes     yes           Std       4 THG$GETREC
         yes           Std      11 THW$WRITE
         yes           Std       3 THF$ADD_TEXTC
                       nStd      0 X66_AUTO_1
                       Std       0 B_CONSPOOL_D
                       nStd      0 X66_ARET
PL6.E3A0      #005=THF$CONFIG File=THF$FORMAT.:E05TSI                            WED 07/30/97 06:16 Page:916

  ****  Data refs  ****

  Flags:  r = read only, s = secondary
Flgs Name                             Flgs Name                             Flgs Name
     M$UC                                  TH_NUM_REP_DEVS                       TH_REP_DEVS
     TH_RECORD                             TH_XSA_BUF_VECTOR                     B_VECTNIL

  ****  Segment refs  ****

  Flags:  r = read only, s = secondary
Flgs Name                             Flgs Name                             Flgs Name
     ISSID                                 NULLSID
PL6.E3A0      #005=THF$CONFIG File=THF$FORMAT.:E05TSI                            WED 07/30/97 06:16 Page:917


     4590        1        /*M* THF$CONFIG - ROUTINE TO BUILD CONFIG REPORT FOR ELAN */
     4591        2        /*T***********************************************************/
     4592        3        /*T*                                                         */
     4593        4        /*T* Copyright (c) Bull HN Information Systems Inc., 1997    */
     4594        5        /*T*                                                         */
     4595        6        /*T***********************************************************/
     4596        7        THF$CONFIG: PROC(CODE);

      7  3 000000   000000 700200 xent  THF$CONFIG   TSX0  ! X66_AUTO_1
         3 000001   002002 000001                    ZERO    1026,1

     4597        8        /**/
     4598        9    1   DCL CODE UBIN;
     4599       10        /**/
     4600       11        /* INCLUDE FILES */
     4601       12        %INCLUDE CP_6;
     4602       93        %INCLUDE CP_6_SUBS;
     4603      633        %INCLUDE TD$STRUCT;
     4604      734        %INCLUDE TH_SUBS_C;
     4605     1116        %INCLUDE TH_DATA_R;
     4606     1194        %INCLUDE IT_SUBS_C;
     4607     1461        %INCLUDE NI$TABLES ;
     4608     1677        /**/
     4609     1678        /* ENTRY DEFS */
     4610     1679    1   DCL THG$GETREC ENTRY(4) ALTRET;
     4611     1680    1   DCL THW$WRITE ENTRY(11);
     4612     1681    1   DCL THF$ADD_TEXTC ENTRY(3);
     4613     1682        /**/
     4614     1683        /* MACRO INVOCATIONS */
     4615     1684        %TD$HEAD (NAME=TD$HEAD,NUMDEV#=100);
     4616     1720        %TD$HEAD (NAME=TD_HEAD,STCLASS=AUTO,NUMDEV#=200);
     4617     1756        %TD$IOM (NAME=IOMREC,STCLASS=AUTO);
     4618     1764        %TD$IOM (NAME=TD$IOM);
     4619     1772        %TD$MPC (NAME=MPCREC,STCLASS=AUTO,NUMDEV#=32);
     4620     1794        %TD$MPC (NAME=MPCREC1,STCLASS=AUTO,NUMDEV#=32);
     4621     1816        %TD$MPC (NAME=TD$MPC,NUMDEV#=32);
PL6.E3A0      #005=THF$CONFIG File=THF$FORMAT.:E05TSI                            WED 07/30/97 06:16 Page:918
     4622     1838        %TD$DEV (NAME=DEVREC,STCLASS=AUTO);
     4623     1857        %TD$DEV (NAME=TD$DEV);
     4624     1876        /**/
     4625     1877        /* VARS */
     4626     1878    1   DCL IOMREC$ PTR;
     4627     1879    1   DCL MPCREC$ PTR;
     4628     1880    1   DCL DEVREC$ PTR;
     4629     1881        /**/
     4630     1882    1   DCL IOM_NAME CHAR(4);
     4631     1883    1   DCL ZERO CHAR(8) CONSTANT INIT('0       '); /* USED FOR GETREC CALLS          */
     4632     1884    1   DCL IOM# CHAR(1);
     4633     1885    1   DCL NUM_CHANS UBIN WORD;
     4634     1886    1   DCL CHANS (0:7) UBIN WORD;
     4635     1887    1   DCL I SBIN;
     4636     1888    1   DCL J SBIN;
     4637     1889        /**/
     4638     1890    1   DCL INDX_VEC (0:10) UBIN WORD STATIC;
     4639     1891    1   DCL 1 TVEC DALIGNED,
     4640     1892    1         2 BOUND UBIN(20) UNAL,
     4641     1893    1         2 * BIT(16),
     4642     1894    1         2 PTR$ PTR;
     4643     1895    1   DCL TEXTBUF CHAR(256);
     4644     1896    1   DCL TEXT$ PTR;
     4645     1897        /**/
     4646     1898    1   DCL BLANK_LINE CHAR(0) CONSTANT INIT('%10P');
     4647     1899    1   DCL APC_FMT CHAR(0) CONSTANT INIT(
     4648     1900    1   '  ARRAY PROCESSORS: %40-Channels : 18-19 %10P');
     4649     1901    1   DCL CONFIG_APC BIT(72) DALIGNED STATIC INIT(VECTOR(APC_FMT));
     4650     1902    1   DCL IOM_FMT CHAR(0) CONSTANT INIT(
     4651     1903    1   '%/%A %2.264P PORT#%D%10P');
     4652     1904    1   DCL CONFIG_IOM BIT(72) DALIGNED STATIC INIT(VECTOR(IOM_FMT));
     4653     1905    1   DCL MPC_FMT CHAR(0) CONSTANT INIT(
     4654     1906    1   '  MPC %4A %2PFirmware : %T %T %T %T Channels : %T%10P');
     4655     1907    1   DCL CONFIG_MPC BIT(72) DALIGNED STATIC INIT(VECTOR(MPC_FMT));
     4656     1908    1   DCL OPC_FMT CHAR(0) CONSTANT INIT(
     4657     1909    1   '  OPTC  %7A Channel : %2P%D%10P');
     4658     1910    1   DCL CONFIG_OPC BIT(72) DALIGNED STATIC INIT(VECTOR(OPC_FMT));
PL6.E3A0      #005=THF$CONFIG File=THF$FORMAT.:E05TSI                            WED 07/30/97 06:16 Page:919
     4659     1911    1   DCL DEV_FMT CHAR(0) CONSTANT INIT(
     4660     1912    1   '    %4A Dev#%2.10.2P%2.18D Model# %2P%8A Feature# %8A Attr : %3P%T%10P');
     4661     1913    1   DCL CONFIG_DEV BIT(72) DALIGNED STATIC INIT(VECTOR(DEV_FMT));
     4662     1914    1   DCL FEP_FMT CHAR(0) CONSTANT INIT(
     4663     1915    1   '   %7A Channel : %2P%D%10P');
     4664     1916    1   DCL CONFIG_FEP BIT(72) DALIGNED STATIC INIT(VECTOR(FEP_FMT));
     4665     1917    1   DCL SC_FMT CHAR(0) CONSTANT INIT(
     4666     1918    1   '   %4A Channel : %2P%D%10P');
     4667     1919    1   DCL CONFIG_SC BIT(72) DALIGNED STATIC INIT(VECTOR(SC_FMT));
     4668     1920        /**/
     4669     1921    1   DCL 1 UC_TBL (0:10) CONSTANT ALIGNED,
     4670     1922    1         2 ATTR BIT(18) UNAL INIT(%ATTR_TRUOVRPRT#,
     4671     1923    1                                  %ATTR_APL#,
     4672     1924    1                                  %ATTR_BIN#,
     4673     1925    1                                  %ATTR_LOWERCASE#,
     4674     1926    1                                  '0'B,
     4675     1927    1                                  '0'B,
     4676     1928    1                                  '0'B,
     4677     1929    1                                  '0'B,
     4678     1930    1                                  '0'B,
     4679     1931    1                                  '0'B,
     4680     1932    1                                  '0'B),
     4681     1933    1         2 LEN UBIN BYTE UNAL INIT(9,3,6,9,0*0),
     4682     1934    1         2 TEXT CHAR(32) INIT('Overprint','Apl','Binary','Lowercase',' '*0);
     4683     1935    1   DCL 1 TC_TBL (0:10) CONSTANT ALIGNED,
     4684     1936    1         2 ATTR BIT(18) UNAL INIT(%ATTR_D6250#,
     4685     1937    1                                  %ATTR_D1600#,
     4686     1938    1                                  %ATTR_D800#,
     4687     1939    1                                  '0'B,
     4688     1940    1                                  '0'B,
     4689     1941    1                                  '0'B,
     4690     1942    1                                  '0'B,
     4691     1943    1                                  '0'B,
     4692     1944    1                                  '0'B,
     4693     1945    1                                  '0'B,
     4694     1946    1                                  '0'B),
     4695     1947    1         2 LEN UBIN BYTE UNAL INIT(8,8,9,0*0),
PL6.E3A0      #005=THF$CONFIG File=THF$FORMAT.:E05TSI                            WED 07/30/97 06:16 Page:920
     4696     1948    1         2 TEXT CHAR(32) INIT('6250 BPI','1600 BPI','800 BPI',' '*0);
     4697     1949    1   DCL 1 DC_TBL (0:10) CONSTANT ALIGNED,
     4698     1950    1         2 ATTR BIT(18) UNAL INIT(%ATTR_DD600#,
     4699     1951    1                                  %ATTR_DD200#,
     4700     1952    1                                  %ATTR_DD500#,
     4701     1953    1                                  %ATTR_DD1000#,
     4702     1954    1                                  %ATTR_DD1500#,
     4703     1955    1                                  %ATTR_DD400#,
     4704     1956    1                                  %ATTR_DD1100#,
     4705     1957    1                                  '0'B,
     4706     1958    1                                  '0'B,
     4707     1959    1                                  '0'B,
     4708     1960    1                                  '0'B),
     4709     1961    1         2 LEN UBIN BYTE UNAL INIT(6,6,6,7,7,6,7,0*0),
     4710     1962    1         2 TEXT CHAR(32) INIT('600 MB','200 MB','500 MB','1000 MB','1500 MB',
     4711     1963    1                                                     '400 MB','1100 MB',' '*0);
     4712     1964    1   DCL 1 AP_TBL (0:10) CONSTANT ALIGNED,
     4713     1965    1         2 ATTR BIT(18) UNAL INIT(%ATTR_AP_SJE, '0'B,
     4714     1966    1                                  %ATTR_AP_M16384,
     4715     1967    1                                  %ATTR_AP_M8192,
     4716     1968    1                                  %ATTR_AP_M4096,
     4717     1969    1                                  %ATTR_AP_M2048,
     4718     1970    1                                  %ATTR_AP_M1024,
     4719     1971    1                                  %ATTR_AP_M512,
     4720     1972    1                                  %ATTR_AP_M256,
     4721     1973    1                                  %ATTR_AP_M128, '0'B),
     4722     1974    1         2 LEN UBIN BYTE UNAL INIT(3,4,6,5,5,5,5,4,4,4,0*0),
     4723     1975    1         2 TEXT CHAR(32) INIT('SJE','APEX','16384K','8192K','4096K',
     4724     1976    1                              '2048K','1024K','512K','256K','128K',' '*0);
     4725     1977    1   DCL 1 OD_TBL (0:10) CONSTANT ALIGNED,
     4726     1978    1         2 ATTR BIT(18) UNAL INIT('0'B,
     4727     1979    1                                  '0'B,
     4728     1980    1                                  '0'B,
     4729     1981    1                                  '0'B,
     4730     1982    1                                  '0'B,
     4731     1983    1                                  '0'B,
     4732     1984    1                                  '0'B,
PL6.E3A0      #005=THF$CONFIG File=THF$FORMAT.:E05TSI                            WED 07/30/97 06:16 Page:921
     4733     1985    1                                  '0'B,
     4734     1986    1                                  '0'B,
     4735     1987    1                                  '0'B,
     4736     1988    1                                  '0'B),
     4737     1989    1         2 LEN UBIN BYTE UNAL INIT(0*0),
     4738     1990    1         2 TEXT CHAR(32) INIT(' '*0);
     4739     1991    1   DCL 1 ATTR$TBL (0:10) BASED ALIGNED,
     4740     1992    1         2 ATTR BIT(18) UNAL,
     4741     1993    1         2 LEN UBIN BYTE UNAL,
     4742     1994    1         2 TEXT CHAR(32);
     4743     1995    1   DCL ATTR$TBL$ (0:5) PTR STATIC INIT(ADDR(NIL),
     4744     1996    1                                       ADDR(UC_TBL),
     4745     1997    1                                       ADDR(TC_TBL),
     4746     1998    1                                       ADDR(DC_TBL),
     4747     1999    1                                       ADDR(AP_TBL),
     4748     2000    1                                       ADDR(OD_TBL));
     4749     2001    1   DCL AP_ATTR_TBL$ PTR STATIC INIT(ADDR(AP_TBL)); /* PTR TO AP TBL */
     4750     2002    1   DCL NUM_ATTRS (0:5) UBIN WORD CONSTANT INIT(0,4,3,7,9,0);
     4751     2003    1   DCL FIRST_MPC SBIN;
     4752     2004    1   DCL LAST_MPC SBIN;
     4753     2005    1   DCL FIRST_IOM SBIN;
     4754     2006    1   DCL LAST_IOM SBIN;
     4755     2007    1   DCL FIRST_FEP SBIN;
     4756     2008    1   DCL LAST_FEP SBIN;
     4757     2009    1   DCL FIRST_SC SBIN;
     4758     2010    1   DCL LAST_SC SBIN;
     4759     2011    1   DCL JJ SBIN;
     4760     2012    1   DCL II SBIN;
     4761     2013    1   DCL ST SBIN;
     4762     2014    1   DCL SP SBIN;
     4763     2015    1   DCL DEV_FLG BIT(1) ALIGNED;
     4764     2016    1   DCL TEMP_DEV CHAR(2);
     4765     2017    1   DCL C_CODE UBIN;
     4766     2018        %EJECT;
PL6.E3A0      #005=THF$CONFIG File=THF$FORMAT.:E05TSI                            WED 07/30/97 06:16 Page:922
     4767     2019    1     II = 0;

   2019  3 000002   201670 450100                    STZ     II,,AUTO

     4768     2020    1        CALL THG$GETREC(%CONFIG,ZERO);

   2020  3 000003   000000 630400 4                  EPPR0   0
         3 000004   000020 631400 xsym               EPPR1   B_VECTNIL+16
         3 000005   000000 701000 xent               TSX1    THG$GETREC
         3 000006   000000 011000                    NOP     0

     4769     2021    1        TD_HEAD = TH_RECORD.PTR$->TD$HEAD;

   2021  3 000007   000001 470400 xsym               LDP0    TH_RECORD+1
         3 000010   000100 100500                    MLR     fill='000'O
         3 000011   000000 001550                    ADSC9   0,,PR0                   cn=0,n=872
         3 000012   200004 003210                    ADSC9   TD_HEAD,,AUTO            cn=0,n=1672

     4770     2022    2        DO WHILE (II < TH_NUM_REP_DEVS);

   2022  3 000013   201670 236100                    LDQ     II,,AUTO
         3 000014   000017 604000 3                  TMI     s:2023
         3 000015   000000 116000 xsym               CMPQ    TH_NUM_REP_DEVS
         3 000016   001217 603000 3                  TRC     s:2218

     4771     2023    2           JJ = 0;

   2023  3 000017   201667 450100                    STZ     JJ,,AUTO

     4772     2024    2           DEV_FLG = %FALSE;

   2024  3 000020   201673 450100                    STZ     DEV_FLG,,AUTO

     4773     2025    2        FIRST_IOM = 0;

   2025  3 000021   201661 450100                    STZ     FIRST_IOM,,AUTO

PL6.E3A0      #005=THF$CONFIG File=THF$FORMAT.:E05TSI                            WED 07/30/97 06:16 Page:923
     4774     2026    2        LAST_IOM = TD_HEAD.NUMIOMS - 1;

   2026  3 000022   200004 236100                    LDQ     TD_HEAD,,AUTO
         3 000023   777777 376007                    ANQ     -1,DL
         3 000024   000001 136007                    SBLQ    1,DL
         3 000025   201662 756100                    STQ     LAST_IOM,,AUTO

     4775     2027    2        FIRST_MPC = 1;

   2027  3 000026   000001 235007                    LDA     1,DL
         3 000027   201657 755100                    STA     FIRST_MPC,,AUTO

     4776     2028    2        LAST_MPC = 5;

   2028  3 000030   000005 235007                    LDA     5,DL
         3 000031   201660 755100                    STA     LAST_MPC,,AUTO

     4777     2029    2        FIRST_FEP = TD_HEAD.FEP_INDX;

   2029  3 000032   200012 235100                    LDA     TD_HEAD+6,,AUTO
         3 000033   000022 771000                    ARL     18
         3 000034   201663 755100                    STA     FIRST_FEP,,AUTO

     4778     2030    2        LAST_FEP = TD_HEAD.FEP_INDX + TD_HEAD.NUMFEPS - 1;

   2030  3 000035   200012 236100                    LDQ     TD_HEAD+6,,AUTO
         3 000036   777777 376007                    ANQ     -1,DL
         3 000037   201762 756100                    STQ     CHAR3+2,,AUTO
         3 000040   200012 236100                    LDQ     TD_HEAD+6,,AUTO
         3 000041   000022 772000                    QRL     18
         3 000042   201762 036100                    ADLQ    CHAR3+2,,AUTO
         3 000043   000001 136007                    SBLQ    1,DL
         3 000044   201664 756100                    STQ     LAST_FEP,,AUTO

     4779     2031    2        FIRST_SC = TD_HEAD.CONSOLE_INDX;

   2031  3 000045   200013 235100                    LDA     TD_HEAD+7,,AUTO
PL6.E3A0      #005=THF$CONFIG File=THF$FORMAT.:E05TSI                            WED 07/30/97 06:16 Page:924
         3 000046   000022 771000                    ARL     18
         3 000047   201665 755100                    STA     FIRST_SC,,AUTO

     4780     2032    2        LAST_SC = TD_HEAD.CONSOLE_INDX + TD_HEAD.NUMCONSOLES - 1;

   2032  3 000050   200013 236100                    LDQ     TD_HEAD+7,,AUTO
         3 000051   777777 376007                    ANQ     -1,DL
         3 000052   201762 756100                    STQ     CHAR3+2,,AUTO
         3 000053   200013 236100                    LDQ     TD_HEAD+7,,AUTO
         3 000054   000022 772000                    QRL     18
         3 000055   201762 036100                    ADLQ    CHAR3+2,,AUTO
         3 000056   000001 136007                    SBLQ    1,DL
         3 000057   201666 756100                    STQ     LAST_SC,,AUTO

     4781     2033    2        IF CODE = %ALL

   2033  3 000060   200003 470500                    LDP0    @CODE,,AUTO
         3 000061   000000 235100                    LDA     0,,PR0
         3 000062   000016 115007                    CMPA    14,DL
         3 000063   000067 601000 3                  TNZ     s:2038

     4782     2034    3           THEN DO;

     4783     2035    3              II = 9999;

   2035  3 000064   023417 235007                    LDA     9999,DL
         3 000065   201670 755100                    STA     II,,AUTO

     4784     2036    3              GOTO FOR_ALL;

   2036  3 000066   000743 710000 3                  TRA     FOR_ALL

     4785     2037    3           END;
     4786     2038    2        ST = II;

   2038  3 000067   201670 235100                    LDA     II,,AUTO
         3 000070   201671 755100                    STA     ST,,AUTO
PL6.E3A0      #005=THF$CONFIG File=THF$FORMAT.:E05TSI                            WED 07/30/97 06:16 Page:925

     4787     2039    3        DO WHILE (SUBSTR(TH_REP_DEVS(II),0,2) = SUBSTR(TH_REP_DEVS(II+1),0,2)

   2039  3 000071   000073 710000 3                  TRA     s:2042

     4788     2040    3                  AND II < TH_NUM_REP_DEVS-1);
     4789     2041    3           II = II + 1;

   2041  3 000072   201670 054100                    AOS     II,,AUTO

     4790     2042    3        END;

   2042  3 000073   201670 235100                    LDA     II,,AUTO
         3 000074   000001 735000                    ALS     1
         3 000075   000000 220005 xsym               LDX0    TH_REP_DEVS,AL
         3 000076   000002 100005 xsym               CMPX0   TH_REP_DEVS+2,AL
         3 000077   000104 601000 3                  TNZ     s:2043
         3 000100   000000 236000 xsym               LDQ     TH_NUM_REP_DEVS
         3 000101   000001 136007                    SBLQ    1,DL
         3 000102   201670 116100                    CMPQ    II,,AUTO
         3 000103   000072 605400 3                  TPNZ    s:2041

     4791     2043    2        SP = II;

   2043  3 000104   201670 236100                    LDQ     II,,AUTO
         3 000105   201672 756100                    STQ     SP,,AUTO

     4792     2044    2           TEMP_DEV = SUBSTR(TH_REP_DEVS(II),0,2);

   2044  3 000106   201674 740100                    STX0    TEMP_DEV,,AUTO

     4793     2045    2           IF TEMP_DEV = 'FE'

   2045  3 000107   001106 100000 1                  CMPX0   XBAR_FMT+6
         3 000110   000114 601000 3                  TNZ     s:2048

     4794     2046    2              THEN C_CODE = %FEP;
PL6.E3A0      #005=THF$CONFIG File=THF$FORMAT.:E05TSI                            WED 07/30/97 06:16 Page:926

   2046  3 000111   000003 235007                    LDA     3,DL
         3 000112   201675 755100                    STA     C_CODE,,AUTO
         3 000113   000222 710000 3                  TRA     s:2086

     4795     2047    2              ELSE
     4796     2048    2           IF TEMP_DEV = 'IO'

   2048  3 000114   001107 100000 1                  CMPX0   XBAR_FMT+7
         3 000115   000121 601000 3                  TNZ     s:2051

     4797     2049    2              THEN C_CODE = %IOM;

   2049  3 000116   000002 235007                    LDA     2,DL
         3 000117   201675 755100                    STA     C_CODE,,AUTO
         3 000120   000222 710000 3                  TRA     s:2086

     4798     2050    2              ELSE
     4799     2051    2           IF TEMP_DEV = 'CO' OR TEMP_DEV = 'SC'

   2051  3 000121   001110 100000 1                  CMPX0   XBAR_FMT+8
         3 000122   000125 600000 3                  TZE     s:2052
         3 000123   001111 100000 1                  CMPX0   XBAR_FMT+9
         3 000124   000130 601000 3                  TNZ     s:2054

     4800     2052    2              THEN C_CODE = %SC;

   2052  3 000125   000015 235007                    LDA     13,DL
         3 000126   201675 755100                    STA     C_CODE,,AUTO
         3 000127   000222 710000 3                  TRA     s:2086

     4801     2053    2              ELSE
     4802     2054    2           IF TEMP_DEV = 'MP'

   2054  3 000130   001112 100000 1                  CMPX0   XBAR_FMT+10
         3 000131   000135 601000 3                  TNZ     s:2057

PL6.E3A0      #005=THF$CONFIG File=THF$FORMAT.:E05TSI                            WED 07/30/97 06:16 Page:927
     4803     2055    2              THEN C_CODE = %MPC1;

   2055  3 000132   000024 235007                    LDA     20,DL
         3 000133   201675 755100                    STA     C_CODE,,AUTO
         3 000134   000222 710000 3                  TRA     s:2086

     4804     2056    2              ELSE
     4805     2057    2           IF TEMP_DEV = 'DC'

   2057  3 000135   001113 100000 1                  CMPX0   XBAR_FMT+11
         3 000136   000142 601000 3                  TNZ     s:2060

     4806     2058    2              THEN C_CODE = %DC;

   2058  3 000137   000014 235007                    LDA     12,DL
         3 000140   201675 755100                    STA     C_CODE,,AUTO
         3 000141   000222 710000 3                  TRA     s:2086

     4807     2059    2              ELSE
     4808     2060    2           IF TEMP_DEV = 'TC'

   2060  3 000142   001114 100000 1                  CMPX0   XBAR_FMT+12
         3 000143   000147 601000 3                  TNZ     s:2063

     4809     2061    2              THEN C_CODE = %TC;

   2061  3 000144   000012 235007                    LDA     10,DL
         3 000145   201675 755100                    STA     C_CODE,,AUTO
         3 000146   000222 710000 3                  TRA     s:2086

     4810     2062    2              ELSE
     4811     2063    2           IF TEMP_DEV = 'UC'

   2063  3 000147   001115 100000 1                  CMPX0   XBAR_FMT+13
         3 000150   000154 601000 3                  TNZ     s:2066

     4812     2064    2              THEN C_CODE = %UC;
PL6.E3A0      #005=THF$CONFIG File=THF$FORMAT.:E05TSI                            WED 07/30/97 06:16 Page:928

   2064  3 000151   000013 235007                    LDA     11,DL
         3 000152   201675 755100                    STA     C_CODE,,AUTO
         3 000153   000222 710000 3                  TRA     s:2086

     4813     2065    2              ELSE
     4814     2066    2           IF TEMP_DEV = 'AC'

   2066  3 000154   001116 100000 1                  CMPX0   XBAR_FMT+14
         3 000155   000161 601000 3                  TNZ     s:2069

     4815     2067    2              THEN C_CODE = %AC;

   2067  3 000156   000040 235007                    LDA     32,DL
         3 000157   201675 755100                    STA     C_CODE,,AUTO
         3 000160   000222 710000 3                  TRA     s:2086

     4816     2068    2              ELSE
     4817     2069    2           IF TEMP_DEV = 'OP'

   2069  3 000161   001117 100000 1                  CMPX0   XBAR_FMT+15
         3 000162   000166 601000 3                  TNZ     s:2072

     4818     2070    2              THEN C_CODE = %OPC;

   2070  3 000163   000042 235007                    LDA     34,DL
         3 000164   201675 755100                    STA     C_CODE,,AUTO
         3 000165   000222 710000 3                  TRA     s:2086

     4819     2071    2              ELSE
     4820     2072    2           IF TEMP_DEV = 'AP'

   2072  3 000166   001120 100000 1                  CMPX0   XBAR_FMT+16
         3 000167   000173 601000 3                  TNZ     s:2075

     4821     2073    2              THEN C_CODE = %AP;

PL6.E3A0      #005=THF$CONFIG File=THF$FORMAT.:E05TSI                            WED 07/30/97 06:16 Page:929
   2073  3 000170   000037 235007                    LDA     31,DL
         3 000171   201675 755100                    STA     C_CODE,,AUTO
         3 000172   000222 710000 3                  TRA     s:2086

     4822     2074    2              ELSE
     4823     2075    2           IF TEMP_DEV = 'OD'

   2075  3 000173   001121 100000 1                  CMPX0   XBAR_FMT+17
         3 000174   000200 601000 3                  TNZ     s:2078

     4824     2076    2              THEN C_CODE = %OD;

   2076  3 000175   000041 235007                    LDA     33,DL
         3 000176   201675 755100                    STA     C_CODE,,AUTO
         3 000177   000222 710000 3                  TRA     s:2086

     4825     2077    2              ELSE
     4826     2078    2           IF TEMP_DEV = 'DP'

   2078  3 000200   001122 100000 1                  CMPX0   XBAR_FMT+18
         3 000201   000205 601000 3                  TNZ     s:2081

     4827     2079    2              THEN C_CODE = %DP;

   2079  3 000202   000006 235007                    LDA     6,DL
         3 000203   201675 755100                    STA     C_CODE,,AUTO
         3 000204   000222 710000 3                  TRA     s:2086

     4828     2080    2              ELSE
     4829     2081    2           IF TEMP_DEV = 'MT'

   2081  3 000205   001123 100000 1                  CMPX0   XBAR_FMT+19
         3 000206   000212 601000 3                  TNZ     s:2084

     4830     2082    2              THEN C_CODE = %MT;

   2082  3 000207   000004 235007                    LDA     4,DL
PL6.E3A0      #005=THF$CONFIG File=THF$FORMAT.:E05TSI                            WED 07/30/97 06:16 Page:930
         3 000210   201675 755100                    STA     C_CODE,,AUTO
         3 000211   000222 710000 3                  TRA     s:2086

     4831     2083    2              ELSE
     4832     2084    2           IF TEMP_DEV = 'LP' OR TEMP_DEV = 'CR' OR TEMP_DEV = 'CP'

   2084  3 000212   001124 100000 1                  CMPX0   XBAR_FMT+20
         3 000213   000220 600000 3                  TZE     s:2085
         3 000214   001125 100000 1                  CMPX0   XBAR_FMT+21
         3 000215   000220 600000 3                  TZE     s:2085
         3 000216   001126 100000 1                  CMPX0   XBAR_FMT+22
         3 000217   000222 601000 3                  TNZ     s:2086

     4833     2085    2              THEN C_CODE = %LP;

   2085  3 000220   000011 235007                    LDA     9,DL
         3 000221   201675 755100                    STA     C_CODE,,AUTO

     4834     2086    2        II = II + 1;

   2086  3 000222   201670 054100                    AOS     II,,AUTO

     4835     2087    3        DO CASE (C_CODE);

   2087  3 000223   201675 235100                    LDA     C_CODE,,AUTO
         3 000224   000043 115007                    CMPA    35,DL
         3 000225   000227 602005 3                  TNC     s:2087+4,AL
         3 000226   000743 710000 3                  TRA     FOR_ALL
         3 000227   000743 710000 3                  TRA     FOR_ALL
         3 000230   000743 710000 3                  TRA     FOR_ALL
         3 000231   000324 710000 3                  TRA     s:2097
         3 000232   000272 710000 3                  TRA     s:2089
         3 000233   000637 710000 3                  TRA     s:2166
         3 000234   000743 710000 3                  TRA     FOR_ALL
         3 000235   000616 710000 3                  TRA     s:2161
         3 000236   000743 710000 3                  TRA     FOR_ALL
         3 000237   000743 710000 3                  TRA     FOR_ALL
PL6.E3A0      #005=THF$CONFIG File=THF$FORMAT.:E05TSI                            WED 07/30/97 06:16 Page:931
         3 000240   000660 710000 3                  TRA     s:2171
         3 000241   000524 710000 3                  TRA     s:2141
         3 000242   000561 710000 3                  TRA     s:2151
         3 000243   000467 710000 3                  TRA     s:2131
         3 000244   000337 710000 3                  TRA     s:2100
         3 000245   000743 710000 3                  TRA     FOR_ALL
         3 000246   000743 710000 3                  TRA     FOR_ALL
         3 000247   000743 710000 3                  TRA     FOR_ALL
         3 000250   000743 710000 3                  TRA     FOR_ALL
         3 000251   000743 710000 3                  TRA     FOR_ALL
         3 000252   000743 710000 3                  TRA     FOR_ALL
         3 000253   000371 710000 3                  TRA     s:2108
         3 000254   000743 710000 3                  TRA     FOR_ALL
         3 000255   000743 710000 3                  TRA     FOR_ALL
         3 000256   000743 710000 3                  TRA     FOR_ALL
         3 000257   000743 710000 3                  TRA     FOR_ALL
         3 000260   000743 710000 3                  TRA     FOR_ALL
         3 000261   000743 710000 3                  TRA     FOR_ALL
         3 000262   000743 710000 3                  TRA     FOR_ALL
         3 000263   000743 710000 3                  TRA     FOR_ALL
         3 000264   000743 710000 3                  TRA     FOR_ALL
         3 000265   000743 710000 3                  TRA     FOR_ALL
         3 000266   000701 710000 3                  TRA     s:2176
         3 000267   000432 710000 3                  TRA     s:2121
         3 000270   000722 710000 3                  TRA     s:2181
         3 000271   000375 710000 3                  TRA     s:2111

     4836     2088    3           CASE (%FEP);

     4837     2089    3              LAST_MPC = -1;

   2089  3 000272   000001 335007                    LCA     1,DL
         3 000273   201660 755100                    STA     LAST_MPC,,AUTO

     4838     2090    3              LAST_SC = -1;

   2090  3 000274   201666 755100                    STA     LAST_SC,,AUTO
PL6.E3A0      #005=THF$CONFIG File=THF$FORMAT.:E05TSI                            WED 07/30/97 06:16 Page:932

     4839     2091    4              DO J = ST TO SP;

   2091  3 000275   201671 235100                    LDA     ST,,AUTO
         3 000276   201553 755100                    STA     J,,AUTO
         3 000277   000314 710000 3                  TRA     s:2094+1

     4840     2092    4                 TD_HEAD.DEVNAME(TD_HEAD.FEP_INDX + JJ) = TH_REP_DEVS(J);

   2092  3 000300   200012 236100                    LDQ     TD_HEAD+6,,AUTO
         3 000301   000022 772000                    QRL     18
         3 000302   201667 036100                    ADLQ    JJ,,AUTO
         3 000303   000001 736000                    QLS     1
         3 000304   201553 235100                    LDA     J,,AUTO
         3 000305   000003 735000                    ALS     3
         3 000306   000002 736000                    QLS     2
         3 000307   040106 100405                    MLR     fill='040'O
         3 000310   000000 000010 xsym               ADSC9   TH_REP_DEVS,A            cn=0,n=8
         3 000311   200024 000010                    ADSC9   TD_HEAD+16,Q,AUTO        cn=0,n=8

     4841     2093    4                 JJ = JJ + 1;

   2093  3 000312   201667 054100                    AOS     JJ,,AUTO

     4842     2094    4                 END;  /* DO J */

   2094  3 000313   201553 054100                    AOS     J,,AUTO
         3 000314   201553 236100                    LDQ     J,,AUTO
         3 000315   201672 116100                    CMPQ    SP,,AUTO
         3 000316   000300 604400 3                  TMOZ    s:2092

     4843     2095    3              LAST_FEP = FIRST_FEP + (SP - ST);

   2095  3 000317   201672 236100                    LDQ     SP,,AUTO
         3 000320   201671 136100                    SBLQ    ST,,AUTO
         3 000321   201663 036100                    ADLQ    FIRST_FEP,,AUTO
         3 000322   201664 756100                    STQ     LAST_FEP,,AUTO
PL6.E3A0      #005=THF$CONFIG File=THF$FORMAT.:E05TSI                            WED 07/30/97 06:16 Page:933
         3 000323   000743 710000 3                  TRA     FOR_ALL

     4844     2096    3           CASE(%IOM);

     4845     2097    3              CALL CHARBIN(FIRST_IOM,SUBSTR(TH_REP_DEVS(ST),3,1));

   2097  3 000324   201671 235100                    LDA     ST,,AUTO
         3 000325   000003 735000                    ALS     3
         3 000326   000100 305405                    DTB
         3 000327   000000 630001 xsym               NDSC9   TH_REP_DEVS,A            cn=3,s=nosgn,sf=0,n=1
         3 000330   201661 000004                    NDSC9   FIRST_IOM,,AUTO          cn=0,s=lsgnf,sf=0,n=4

     4846     2098    3              CALL CHARBIN(LAST_IOM,SUBSTR(TH_REP_DEVS(SP - ST),3,1));

   2098  3 000331   201671 136100                    SBLQ    ST,,AUTO
         3 000332   000003 736000                    QLS     3
         3 000333   000100 305406                    DTB
         3 000334   000000 630001 xsym               NDSC9   TH_REP_DEVS,Q            cn=3,s=nosgn,sf=0,n=1
         3 000335   201662 000004                    NDSC9   LAST_IOM,,AUTO           cn=0,s=lsgnf,sf=0,n=4
         3 000336   000743 710000 3                  TRA     FOR_ALL

     4847     2099    3           CASE(%SC);

     4848     2100    3              LAST_FEP = -1;

   2100  3 000337   000001 335007                    LCA     1,DL
         3 000340   201664 755100                    STA     LAST_FEP,,AUTO

     4849     2101    3              LAST_MPC = -1;

   2101  3 000341   201660 755100                    STA     LAST_MPC,,AUTO

     4850     2102    4              DO J = ST TO SP;

   2102  3 000342   201671 235100                    LDA     ST,,AUTO
         3 000343   201553 755100                    STA     J,,AUTO
         3 000344   000361 710000 3                  TRA     s:2105+1
PL6.E3A0      #005=THF$CONFIG File=THF$FORMAT.:E05TSI                            WED 07/30/97 06:16 Page:934

     4851     2103    4                 TD_HEAD.DEVNAME(TD_HEAD.CONSOLE_INDX + JJ) = TH_REP_DEVS(J);

   2103  3 000345   200013 236100                    LDQ     TD_HEAD+7,,AUTO
         3 000346   000022 772000                    QRL     18
         3 000347   201667 036100                    ADLQ    JJ,,AUTO
         3 000350   000001 736000                    QLS     1
         3 000351   201553 235100                    LDA     J,,AUTO
         3 000352   000003 735000                    ALS     3
         3 000353   000002 736000                    QLS     2
         3 000354   040106 100405                    MLR     fill='040'O
         3 000355   000000 000010 xsym               ADSC9   TH_REP_DEVS,A            cn=0,n=8
         3 000356   200024 000010                    ADSC9   TD_HEAD+16,Q,AUTO        cn=0,n=8

     4852     2104    4                 JJ = JJ + 1;

   2104  3 000357   201667 054100                    AOS     JJ,,AUTO

     4853     2105    4                 END;  /* DO J */

   2105  3 000360   201553 054100                    AOS     J,,AUTO
         3 000361   201553 236100                    LDQ     J,,AUTO
         3 000362   201672 116100                    CMPQ    SP,,AUTO
         3 000363   000345 604400 3                  TMOZ    s:2103

     4854     2106    3              LAST_SC = FIRST_SC + SP-ST;

   2106  3 000364   201665 236100                    LDQ     FIRST_SC,,AUTO
         3 000365   201672 036100                    ADLQ    SP,,AUTO
         3 000366   201671 136100                    SBLQ    ST,,AUTO
         3 000367   201666 756100                    STQ     LAST_SC,,AUTO
         3 000370   000743 710000 3                  TRA     FOR_ALL

     4855     2107    3           CASE(%MPC1);

     4856     2108    3              LAST_SC = -1;

PL6.E3A0      #005=THF$CONFIG File=THF$FORMAT.:E05TSI                            WED 07/30/97 06:16 Page:935
   2108  3 000371   000001 335007                    LCA     1,DL
         3 000372   201666 755100                    STA     LAST_SC,,AUTO

     4857     2109    3              LAST_FEP = -1;

   2109  3 000373   201664 755100                    STA     LAST_FEP,,AUTO
         3 000374   000743 710000 3                  TRA     FOR_ALL

     4858     2110    3           CASE(%OPC);

     4859     2111    3              LAST_SC = -1;

   2111  3 000375   000001 335007                    LCA     1,DL
         3 000376   201666 755100                    STA     LAST_SC,,AUTO

     4860     2112    3              LAST_FEP = -1;

   2112  3 000377   201664 755100                    STA     LAST_FEP,,AUTO

     4861     2113    3              FIRST_MPC = 5;

   2113  3 000400   000005 235007                    LDA     5,DL
         3 000401   201657 755100                    STA     FIRST_MPC,,AUTO

     4862     2114    3              LAST_MPC = FIRST_MPC;

   2114  3 000402   201660 755100                    STA     LAST_MPC,,AUTO

     4863     2115    4              DO J = ST TO SP;

   2115  3 000403   201671 235100                    LDA     ST,,AUTO
         3 000404   201553 755100                    STA     J,,AUTO
         3 000405   000422 710000 3                  TRA     s:2118+1

     4864     2116    4                 TD_HEAD.DEVNAME(TD_HEAD.OPC_INDX+JJ) = TH_REP_DEVS(J);

   2116  3 000406   200011 236100                    LDQ     TD_HEAD+5,,AUTO
PL6.E3A0      #005=THF$CONFIG File=THF$FORMAT.:E05TSI                            WED 07/30/97 06:16 Page:936
         3 000407   000022 772000                    QRL     18
         3 000410   201667 036100                    ADLQ    JJ,,AUTO
         3 000411   000001 736000                    QLS     1
         3 000412   201553 235100                    LDA     J,,AUTO
         3 000413   000003 735000                    ALS     3
         3 000414   000002 736000                    QLS     2
         3 000415   040106 100405                    MLR     fill='040'O
         3 000416   000000 000010 xsym               ADSC9   TH_REP_DEVS,A            cn=0,n=8
         3 000417   200024 000010                    ADSC9   TD_HEAD+16,Q,AUTO        cn=0,n=8

     4865     2117    4                 JJ = JJ + 1;

   2117  3 000420   201667 054100                    AOS     JJ,,AUTO

     4866     2118    4                 END;  /* DO J */

   2118  3 000421   201553 054100                    AOS     J,,AUTO
         3 000422   201553 236100                    LDQ     J,,AUTO
         3 000423   201672 116100                    CMPQ    SP,,AUTO
         3 000424   000406 604400 3                  TMOZ    s:2116

     4867     2119    3              TD_HEAD.NUMOPCS = SP - ST + 1;

   2119  3 000425   201672 236100                    LDQ     SP,,AUTO
         3 000426   201671 136100                    SBLQ    ST,,AUTO
         3 000427   000001 620006                    EAX0    1,QL
         3 000430   200011 440100                    SXL0    TD_HEAD+5,,AUTO
         3 000431   000743 710000 3                  TRA     FOR_ALL

     4868     2120    3           CASE(%AC);

     4869     2121    3              LAST_SC = -1;

   2121  3 000432   000001 335007                    LCA     1,DL
         3 000433   201666 755100                    STA     LAST_SC,,AUTO

     4870     2122    3              LAST_FEP = -1;
PL6.E3A0      #005=THF$CONFIG File=THF$FORMAT.:E05TSI                            WED 07/30/97 06:16 Page:937

   2122  3 000434   201664 755100                    STA     LAST_FEP,,AUTO

     4871     2123    3              FIRST_MPC = 4;

   2123  3 000435   000004 235007                    LDA     4,DL
         3 000436   201657 755100                    STA     FIRST_MPC,,AUTO

     4872     2124    3              LAST_MPC = FIRST_MPC;

   2124  3 000437   201660 755100                    STA     LAST_MPC,,AUTO

     4873     2125    4              DO J = ST TO SP;

   2125  3 000440   201671 235100                    LDA     ST,,AUTO
         3 000441   201553 755100                    STA     J,,AUTO
         3 000442   000457 710000 3                  TRA     s:2128+1

     4874     2126    4                 TD_HEAD.DEVNAME(TD_HEAD.APMPC_INDX+JJ) = TH_REP_DEVS(J);

   2126  3 000443   200010 236100                    LDQ     TD_HEAD+4,,AUTO
         3 000444   000022 772000                    QRL     18
         3 000445   201667 036100                    ADLQ    JJ,,AUTO
         3 000446   000001 736000                    QLS     1
         3 000447   201553 235100                    LDA     J,,AUTO
         3 000450   000003 735000                    ALS     3
         3 000451   000002 736000                    QLS     2
         3 000452   040106 100405                    MLR     fill='040'O
         3 000453   000000 000010 xsym               ADSC9   TH_REP_DEVS,A            cn=0,n=8
         3 000454   200024 000010                    ADSC9   TD_HEAD+16,Q,AUTO        cn=0,n=8

     4875     2127    4                 JJ = JJ + 1;

   2127  3 000455   201667 054100                    AOS     JJ,,AUTO

     4876     2128    4                 END;  /* DO J */

PL6.E3A0      #005=THF$CONFIG File=THF$FORMAT.:E05TSI                            WED 07/30/97 06:16 Page:938
   2128  3 000456   201553 054100                    AOS     J,,AUTO
         3 000457   201553 236100                    LDQ     J,,AUTO
         3 000460   201672 116100                    CMPQ    SP,,AUTO
         3 000461   000443 604400 3                  TMOZ    s:2126

     4877     2129    3              TD_HEAD.NUMAPMPCS = SP - ST + 1;

   2129  3 000462   201672 236100                    LDQ     SP,,AUTO
         3 000463   201671 136100                    SBLQ    ST,,AUTO
         3 000464   000001 620006                    EAX0    1,QL
         3 000465   200010 440100                    SXL0    TD_HEAD+4,,AUTO
         3 000466   000743 710000 3                  TRA     FOR_ALL

     4878     2130    3           CASE(%DC);

     4879     2131    3              LAST_SC = -1;

   2131  3 000467   000001 335007                    LCA     1,DL
         3 000470   201666 755100                    STA     LAST_SC,,AUTO

     4880     2132    3              LAST_FEP = -1;

   2132  3 000471   201664 755100                    STA     LAST_FEP,,AUTO

     4881     2133    3              FIRST_MPC = 3;

   2133  3 000472   000003 235007                    LDA     3,DL
         3 000473   201657 755100                    STA     FIRST_MPC,,AUTO

     4882     2134    3              LAST_MPC = FIRST_MPC;

   2134  3 000474   201660 755100                    STA     LAST_MPC,,AUTO

     4883     2135    4              DO J = ST TO SP;

   2135  3 000475   201671 235100                    LDA     ST,,AUTO
         3 000476   201553 755100                    STA     J,,AUTO
PL6.E3A0      #005=THF$CONFIG File=THF$FORMAT.:E05TSI                            WED 07/30/97 06:16 Page:939
         3 000477   000514 710000 3                  TRA     s:2138+1

     4884     2136    4                 TD_HEAD.DEVNAME(TD_HEAD.DISKMPC_INDX+JJ) = TH_REP_DEVS(J);

   2136  3 000500   200007 236100                    LDQ     TD_HEAD+3,,AUTO
         3 000501   000022 772000                    QRL     18
         3 000502   201667 036100                    ADLQ    JJ,,AUTO
         3 000503   000001 736000                    QLS     1
         3 000504   201553 235100                    LDA     J,,AUTO
         3 000505   000003 735000                    ALS     3
         3 000506   000002 736000                    QLS     2
         3 000507   040106 100405                    MLR     fill='040'O
         3 000510   000000 000010 xsym               ADSC9   TH_REP_DEVS,A            cn=0,n=8
         3 000511   200024 000010                    ADSC9   TD_HEAD+16,Q,AUTO        cn=0,n=8

     4885     2137    4                 JJ = JJ + 1;

   2137  3 000512   201667 054100                    AOS     JJ,,AUTO

     4886     2138    4                 END;  /* DO J */

   2138  3 000513   201553 054100                    AOS     J,,AUTO
         3 000514   201553 236100                    LDQ     J,,AUTO
         3 000515   201672 116100                    CMPQ    SP,,AUTO
         3 000516   000500 604400 3                  TMOZ    s:2136

     4887     2139    3              TD_HEAD.NUMDISKMPCS = SP - ST + 1;

   2139  3 000517   201672 236100                    LDQ     SP,,AUTO
         3 000520   201671 136100                    SBLQ    ST,,AUTO
         3 000521   000001 620006                    EAX0    1,QL
         3 000522   200007 440100                    SXL0    TD_HEAD+3,,AUTO
         3 000523   000743 710000 3                  TRA     FOR_ALL

     4888     2140    3           CASE(%TC);

     4889     2141    3              LAST_SC = -1;
PL6.E3A0      #005=THF$CONFIG File=THF$FORMAT.:E05TSI                            WED 07/30/97 06:16 Page:940

   2141  3 000524   000001 335007                    LCA     1,DL
         3 000525   201666 755100                    STA     LAST_SC,,AUTO

     4890     2142    3              LAST_FEP = -1;

   2142  3 000526   201664 755100                    STA     LAST_FEP,,AUTO

     4891     2143    3              FIRST_MPC = 2;

   2143  3 000527   000002 235007                    LDA     2,DL
         3 000530   201657 755100                    STA     FIRST_MPC,,AUTO

     4892     2144    3              LAST_MPC = FIRST_MPC;

   2144  3 000531   201660 755100                    STA     LAST_MPC,,AUTO

     4893     2145    4              DO J = ST TO SP;

   2145  3 000532   201671 235100                    LDA     ST,,AUTO
         3 000533   201553 755100                    STA     J,,AUTO
         3 000534   000551 710000 3                  TRA     s:2148+1

     4894     2146    4                 TD_HEAD.DEVNAME(TD_HEAD.TAPEMPC_INDX+JJ) = TH_REP_DEVS(J);

   2146  3 000535   200006 236100                    LDQ     TD_HEAD+2,,AUTO
         3 000536   000022 772000                    QRL     18
         3 000537   201667 036100                    ADLQ    JJ,,AUTO
         3 000540   000001 736000                    QLS     1
         3 000541   201553 235100                    LDA     J,,AUTO
         3 000542   000003 735000                    ALS     3
         3 000543   000002 736000                    QLS     2
         3 000544   040106 100405                    MLR     fill='040'O
         3 000545   000000 000010 xsym               ADSC9   TH_REP_DEVS,A            cn=0,n=8
         3 000546   200024 000010                    ADSC9   TD_HEAD+16,Q,AUTO        cn=0,n=8

     4895     2147    4                 JJ = JJ + 1;
PL6.E3A0      #005=THF$CONFIG File=THF$FORMAT.:E05TSI                            WED 07/30/97 06:16 Page:941

   2147  3 000547   201667 054100                    AOS     JJ,,AUTO

     4896     2148    4                 END;  /* DO J */

   2148  3 000550   201553 054100                    AOS     J,,AUTO
         3 000551   201553 236100                    LDQ     J,,AUTO
         3 000552   201672 116100                    CMPQ    SP,,AUTO
         3 000553   000535 604400 3                  TMOZ    s:2146

     4897     2149    3              TD_HEAD.NUMTAPEMPCS = SP - ST + 1;

   2149  3 000554   201672 236100                    LDQ     SP,,AUTO
         3 000555   201671 136100                    SBLQ    ST,,AUTO
         3 000556   000001 620006                    EAX0    1,QL
         3 000557   200006 440100                    SXL0    TD_HEAD+2,,AUTO
         3 000560   000743 710000 3                  TRA     FOR_ALL

     4898     2150    3           CASE(%UC);

     4899     2151    3              LAST_SC = -1;

   2151  3 000561   000001 335007                    LCA     1,DL
         3 000562   201666 755100                    STA     LAST_SC,,AUTO

     4900     2152    3              LAST_FEP = -1;

   2152  3 000563   201664 755100                    STA     LAST_FEP,,AUTO

     4901     2153    3              FIRST_MPC = 1;

   2153  3 000564   000001 235007                    LDA     1,DL
         3 000565   201657 755100                    STA     FIRST_MPC,,AUTO

     4902     2154    3              LAST_MPC = FIRST_MPC;

   2154  3 000566   201660 755100                    STA     LAST_MPC,,AUTO
PL6.E3A0      #005=THF$CONFIG File=THF$FORMAT.:E05TSI                            WED 07/30/97 06:16 Page:942

     4903     2155    4              DO J = ST TO SP;

   2155  3 000567   201671 235100                    LDA     ST,,AUTO
         3 000570   201553 755100                    STA     J,,AUTO
         3 000571   000606 710000 3                  TRA     s:2158+1

     4904     2156    4                 TD_HEAD.DEVNAME(TD_HEAD.UNITMPC_INDX+JJ) = TH_REP_DEVS(J);

   2156  3 000572   200005 236100                    LDQ     TD_HEAD+1,,AUTO
         3 000573   000022 772000                    QRL     18
         3 000574   201667 036100                    ADLQ    JJ,,AUTO
         3 000575   000001 736000                    QLS     1
         3 000576   201553 235100                    LDA     J,,AUTO
         3 000577   000003 735000                    ALS     3
         3 000600   000002 736000                    QLS     2
         3 000601   040106 100405                    MLR     fill='040'O
         3 000602   000000 000010 xsym               ADSC9   TH_REP_DEVS,A            cn=0,n=8
         3 000603   200024 000010                    ADSC9   TD_HEAD+16,Q,AUTO        cn=0,n=8

     4905     2157    4                 JJ = JJ + 1;

   2157  3 000604   201667 054100                    AOS     JJ,,AUTO

     4906     2158    4                 END;  /* DO J */

   2158  3 000605   201553 054100                    AOS     J,,AUTO
         3 000606   201553 236100                    LDQ     J,,AUTO
         3 000607   201672 116100                    CMPQ    SP,,AUTO
         3 000610   000572 604400 3                  TMOZ    s:2156

     4907     2159    3              TD_HEAD.NUMUNITMPCS = SP-ST+1;

   2159  3 000611   201672 236100                    LDQ     SP,,AUTO
         3 000612   201671 136100                    SBLQ    ST,,AUTO
         3 000613   000001 620006                    EAX0    1,QL
         3 000614   200005 440100                    SXL0    TD_HEAD+1,,AUTO
PL6.E3A0      #005=THF$CONFIG File=THF$FORMAT.:E05TSI                            WED 07/30/97 06:16 Page:943
         3 000615   000743 710000 3                  TRA     FOR_ALL

     4908     2160    3           CASE (%DP);

     4909     2161    3              FIRST_MPC = 3;

   2161  3 000616   000003 235007                    LDA     3,DL
         3 000617   201657 755100                    STA     FIRST_MPC,,AUTO

     4910     2162    3              DEV_FLG = %TRUE;

   2162  3 000620   400000 236003                    LDQ     -131072,DU
         3 000621   201673 756100                    STQ     DEV_FLG,,AUTO

     4911     2163    3              CALL MPC_DEVICES(' ',FIRST_MPC,ST,SP,DEV_FLG);

   2163  3 000622   201673 630500                    EPPR0   DEV_FLG,,AUTO
         3 000623   201731 450500                    STP0    J+1,,AUTO
         3 000624   201672 631500                    EPPR1   SP,,AUTO
         3 000625   201730 451500                    STP1    @XBAR_INDX+1,,AUTO
         3 000626   201671 633500                    EPPR3   ST,,AUTO
         3 000627   201727 453500                    STP3    @LAST+1,,AUTO
         3 000630   201657 634500                    EPPR4   FIRST_MPC,,AUTO
         3 000631   201726 454500                    STP4    @MPC_INDX+1,,AUTO
         3 000632   000002 236000 4                  LDQ     2
         3 000633   201725 756100                    STQ     XBAR_INDX+3,,AUTO
         3 000634   002063 701000 3                  TSX1    MPC_DEVICES
         3 000635   000000 011000                    NOP     0

     4912     2164    3              GOTO NEXT;

   2164  3 000636   001213 710000 3                  TRA     NEXT

     4913     2165    3           CASE (%MT);

     4914     2166    3              FIRST_MPC = 2;

PL6.E3A0      #005=THF$CONFIG File=THF$FORMAT.:E05TSI                            WED 07/30/97 06:16 Page:944
   2166  3 000637   000002 235007                    LDA     2,DL
         3 000640   201657 755100                    STA     FIRST_MPC,,AUTO

     4915     2167    3              DEV_FLG = %TRUE;

   2167  3 000641   400000 236003                    LDQ     -131072,DU
         3 000642   201673 756100                    STQ     DEV_FLG,,AUTO

     4916     2168    3              CALL MPC_DEVICES(' ',FIRST_MPC,ST,SP,DEV_FLG);

   2168  3 000643   201673 630500                    EPPR0   DEV_FLG,,AUTO
         3 000644   201731 450500                    STP0    J+1,,AUTO
         3 000645   201672 631500                    EPPR1   SP,,AUTO
         3 000646   201730 451500                    STP1    @XBAR_INDX+1,,AUTO
         3 000647   201671 633500                    EPPR3   ST,,AUTO
         3 000650   201727 453500                    STP3    @LAST+1,,AUTO
         3 000651   201657 634500                    EPPR4   FIRST_MPC,,AUTO
         3 000652   201726 454500                    STP4    @MPC_INDX+1,,AUTO
         3 000653   000002 236000 4                  LDQ     2
         3 000654   201725 756100                    STQ     XBAR_INDX+3,,AUTO
         3 000655   002063 701000 3                  TSX1    MPC_DEVICES
         3 000656   000000 011000                    NOP     0

     4917     2169    3              GOTO NEXT;

   2169  3 000657   001213 710000 3                  TRA     NEXT

     4918     2170    3           CASE (%LP);

     4919     2171    3              FIRST_MPC = 1;

   2171  3 000660   000001 235007                    LDA     1,DL
         3 000661   201657 755100                    STA     FIRST_MPC,,AUTO

     4920     2172    3              DEV_FLG = %TRUE;

   2172  3 000662   400000 236003                    LDQ     -131072,DU
PL6.E3A0      #005=THF$CONFIG File=THF$FORMAT.:E05TSI                            WED 07/30/97 06:16 Page:945
         3 000663   201673 756100                    STQ     DEV_FLG,,AUTO

     4921     2173    3              CALL MPC_DEVICES(' ',FIRST_MPC,ST,SP,DEV_FLG);

   2173  3 000664   201673 630500                    EPPR0   DEV_FLG,,AUTO
         3 000665   201731 450500                    STP0    J+1,,AUTO
         3 000666   201672 631500                    EPPR1   SP,,AUTO
         3 000667   201730 451500                    STP1    @XBAR_INDX+1,,AUTO
         3 000670   201671 633500                    EPPR3   ST,,AUTO
         3 000671   201727 453500                    STP3    @LAST+1,,AUTO
         3 000672   201657 634500                    EPPR4   FIRST_MPC,,AUTO
         3 000673   201726 454500                    STP4    @MPC_INDX+1,,AUTO
         3 000674   000002 236000 4                  LDQ     2
         3 000675   201725 756100                    STQ     XBAR_INDX+3,,AUTO
         3 000676   002063 701000 3                  TSX1    MPC_DEVICES
         3 000677   000000 011000                    NOP     0

     4922     2174    3              GOTO NEXT;

   2174  3 000700   001213 710000 3                  TRA     NEXT

     4923     2175    3           CASE (%AP);

     4924     2176    3              FIRST_MPC = 4;

   2176  3 000701   000004 235007                    LDA     4,DL
         3 000702   201657 755100                    STA     FIRST_MPC,,AUTO

     4925     2177    3              DEV_FLG = %TRUE;

   2177  3 000703   400000 236003                    LDQ     -131072,DU
         3 000704   201673 756100                    STQ     DEV_FLG,,AUTO

     4926     2178    3              CALL MPC_DEVICES(' ',FIRST_MPC,ST,SP,DEV_FLG);

   2178  3 000705   201673 630500                    EPPR0   DEV_FLG,,AUTO
         3 000706   201731 450500                    STP0    J+1,,AUTO
PL6.E3A0      #005=THF$CONFIG File=THF$FORMAT.:E05TSI                            WED 07/30/97 06:16 Page:946
         3 000707   201672 631500                    EPPR1   SP,,AUTO
         3 000710   201730 451500                    STP1    @XBAR_INDX+1,,AUTO
         3 000711   201671 633500                    EPPR3   ST,,AUTO
         3 000712   201727 453500                    STP3    @LAST+1,,AUTO
         3 000713   201657 634500                    EPPR4   FIRST_MPC,,AUTO
         3 000714   201726 454500                    STP4    @MPC_INDX+1,,AUTO
         3 000715   000002 236000 4                  LDQ     2
         3 000716   201725 756100                    STQ     XBAR_INDX+3,,AUTO
         3 000717   002063 701000 3                  TSX1    MPC_DEVICES
         3 000720   000000 011000                    NOP     0

     4927     2179    3              GOTO NEXT;

   2179  3 000721   001213 710000 3                  TRA     NEXT

     4928     2180    3           CASE (%OD);

     4929     2181    3              FIRST_MPC = 5;

   2181  3 000722   000005 235007                    LDA     5,DL
         3 000723   201657 755100                    STA     FIRST_MPC,,AUTO

     4930     2182    3              DEV_FLG = %TRUE;

   2182  3 000724   400000 236003                    LDQ     -131072,DU
         3 000725   201673 756100                    STQ     DEV_FLG,,AUTO

     4931     2183    3              CALL MPC_DEVICES(' ',FIRST_MPC,ST,SP,DEV_FLG);

   2183  3 000726   201673 630500                    EPPR0   DEV_FLG,,AUTO
         3 000727   201731 450500                    STP0    J+1,,AUTO
         3 000730   201672 631500                    EPPR1   SP,,AUTO
         3 000731   201730 451500                    STP1    @XBAR_INDX+1,,AUTO
         3 000732   201671 633500                    EPPR3   ST,,AUTO
         3 000733   201727 453500                    STP3    @LAST+1,,AUTO
         3 000734   201657 634500                    EPPR4   FIRST_MPC,,AUTO
         3 000735   201726 454500                    STP4    @MPC_INDX+1,,AUTO
PL6.E3A0      #005=THF$CONFIG File=THF$FORMAT.:E05TSI                            WED 07/30/97 06:16 Page:947
         3 000736   000002 236000 4                  LDQ     2
         3 000737   201725 756100                    STQ     XBAR_INDX+3,,AUTO
         3 000740   002063 701000 3                  TSX1    MPC_DEVICES
         3 000741   000000 011000                    NOP     0

     4932     2184    3              GOTO NEXT;

   2184  3 000742   001213 710000 3                  TRA     NEXT

     4933     2185    3           END;  /* DO CASE CODE */

     4934     2186    2     FOR_ALL:
     4935     2187    2        INDX_VEC = TD_HEAD;

   2187  3 000743   000000 100500       FOR_ALL      MLR     fill='000'O
         3 000744   200004 000054                    ADSC9   TD_HEAD,,AUTO            cn=0,n=44
         3 000745   000000 000054 2                  ADSC9   INDX_VEC                 cn=0,n=44

     4936     2188    3        DO I = FIRST_IOM TO LAST_IOM;

   2188  3 000746   201661 235100                    LDA     FIRST_IOM,,AUTO
         3 000747   201552 755100                    STA     I,,AUTO
         3 000750   001210 710000 3                  TRA     s:2215+1

     4937     2189    3           CALL BINCHAR(IOM#,I);

   2189  3 000751   000100 301500                    BTD
         3 000752   201552 000004                    NDSC9   I,,AUTO                  cn=0,s=lsgnf,sf=0,n=4
         3 000753   201540 030001                    NDSC9   IOM#,,AUTO               cn=0,s=nosgn,sf=0,n=1

     4938     2190    3           CALL CONCAT(IOM_NAME,'IOM',IOM#);

   2190  3 000754   001127 236000 1                  LDQ     XBAR_FMT+23
         3 000755   000003 376000 4                  ANQ     3
         3 000756   000040 276007                    ORQ     32,DL
         3 000757   201537 756100                    STQ     IOM_NAME,,AUTO
         3 000760   201540 236100                    LDQ     IOM#,,AUTO
PL6.E3A0      #005=THF$CONFIG File=THF$FORMAT.:E05TSI                            WED 07/30/97 06:16 Page:948
         3 000761   000033 772000                    QRL     27
         3 000762   201537 552104                    STBQ    IOM_NAME,'04'O,AUTO

     4939     2191    3           CALL THG$GETREC(%CONFIG,IOM_NAME);

   2191  3 000763   201537 630500                    EPPR0   IOM_NAME,,AUTO
         3 000764   201763 450500                    STP0    CHAR3+3,,AUTO
         3 000765   000000 236000 4                  LDQ     0
         3 000766   201762 756100                    STQ     CHAR3+2,,AUTO
         3 000767   201762 630500                    EPPR0   CHAR3+2,,AUTO
         3 000770   000020 631400 xsym               EPPR1   B_VECTNIL+16
         3 000771   000000 701000 xent               TSX1    THG$GETREC
         3 000772   000000 011000                    NOP     0

     4940     2192    3           IOMREC = TH_RECORD.PTR$->TD$IOM;

   2192  3 000773   000001 470400 xsym               LDP0    TH_RECORD+1
         3 000774   000100 100500                    MLR     fill='000'O
         3 000775   000000 002044                    ADSC9   0,,PR0                   cn=0,n=1060
         3 000776   200646 002044                    ADSC9   IOMREC,,AUTO             cn=0,n=1060

     4941     2193    3           CALL THW$WRITE(CONFIG_IOM,VECTOR(IOM_NAME),VECTOR(IOMREC));

   2193  3 000777   777640 235007                    LDA     -96,DL
         3 001000   201762 452500                    STP2    CHAR3+2,,AUTO
         3 001001   201762 236100                    LDQ     CHAR3+2,,AUTO
         3 001002   001537 036003                    ADLQ    863,DU
         3 001003   201764 757100                    STAQ    CHAR3+4,,AUTO
         3 001004   000004 235000 4                  LDA     4
         3 001005   201766 452500                    STP2    CHAR3+6,,AUTO
         3 001006   201766 236100                    LDQ     CHAR3+6,,AUTO
         3 001007   000646 036003                    ADLQ    422,DU
         3 001010   201772 757100                    STAQ    CHAR3+10,,AUTO
         3 001011   201764 237100                    LDAQ    CHAR3+4,,AUTO
         3 001012   201770 757100                    STAQ    CHAR3+8,,AUTO
         3 001013   201772 237100                    LDAQ    CHAR3+10,,AUTO
         3 001014   201774 757100                    STAQ    CHAR3+12,,AUTO
PL6.E3A0      #005=THF$CONFIG File=THF$FORMAT.:E05TSI                            WED 07/30/97 06:16 Page:949
         3 001015   201774 631500                    EPPR1   CHAR3+12,,AUTO
         3 001016   202000 451500                    STP1    CHAR3+16,,AUTO
         3 001017   201770 633500                    EPPR3   CHAR3+8,,AUTO
         3 001020   201777 453500                    STP3    CHAR3+15,,AUTO
         3 001021   000005 236000 4                  LDQ     5
         3 001022   201776 756100                    STQ     CHAR3+14,,AUTO
         3 001023   201776 630500                    EPPR0   CHAR3+14,,AUTO
         3 001024   000021 631400 xsym               EPPR1   B_VECTNIL+17
         3 001025   000000 701000 xent               TSX1    THW$WRITE
         3 001026   000000 011000                    NOP     0

     4942     2194    3           CALL THW$WRITE(VECTOR(BLANK_LINE));

   2194  3 001027   000010 630400 4                  EPPR0   8
         3 001030   000017 631400 xsym               EPPR1   B_VECTNIL+15
         3 001031   000000 701000 xent               TSX1    THW$WRITE
         3 001032   000000 011000                    NOP     0

     4943     2195
     4944     2196                                                /* OUTPUT MPCS AND THEIR DEVICES      */
     4945     2197    4           DO J = FIRST_MPC TO LAST_MPC;

   2197  3 001033   201657 235100                    LDA     FIRST_MPC,,AUTO
         3 001034   201553 755100                    STA     J,,AUTO
         3 001035   001046 710000 3                  TRA     s:2199+1

     4946     2198    4              CALL OUTPUT_MPC(INDX_VEC(J),J);

   2198  3 001036   201553 630500                    EPPR0   J,,AUTO
         3 001037   201700 450500                    STP0    @INDX+1,,AUTO
         3 001040   201553 720100                    LXL0    J,,AUTO
         3 001041   000000 631410 2                  EPPR1   INDX_VEC,X0
         3 001042   201677 451500                    STP1    C_CODE+2,,AUTO
         3 001043   001260 701000 3                  TSX1    OUTPUT_MPC
         3 001044   000000 011000                    NOP     0

     4947     2199    4           END;                            /* DO J                               */
PL6.E3A0      #005=THF$CONFIG File=THF$FORMAT.:E05TSI                            WED 07/30/97 06:16 Page:950

   2199  3 001045   201553 054100                    AOS     J,,AUTO
         3 001046   201553 236100                    LDQ     J,,AUTO
         3 001047   201660 116100                    CMPQ    LAST_MPC,,AUTO
         3 001050   001036 604400 3                  TMOZ    s:2198

     4948     2200
     4949     2201                                                /* OUTPUT FEPS                        */
     4950     2202    4           DO J = FIRST_FEP TO LAST_FEP;

   2202  3 001051   201663 235100                    LDA     FIRST_FEP,,AUTO
         3 001052   201553 755100                    STA     J,,AUTO
         3 001053   001123 710000 3                  TRA     s:2206+1

     4951     2203    4              CALL FIND_CHANNEL(TD_HEAD.DEVNAME(J),NUM_CHANS,CHANS);

   2203  3 001054   201542 630500                    EPPR0   CHANS,,AUTO
         3 001055   201755 450500                    STP0    @CHAN+1,,AUTO
         3 001056   201541 631500                    EPPR1   NUM_CHANS,,AUTO
         3 001057   201754 451500                    STP1    @NUM+1,,AUTO
         3 001060   201553 235100                    LDA     J,,AUTO
         3 001061   000001 735000                    ALS     1
         3 001062   200024 633505                    EPPR3   TD_HEAD+16,AL,AUTO
         3 001063   201753 453500                    STP3    REVBUF+3,,AUTO
         3 001064   001220 701000 3                  TSX1    FIND_CHANNEL
         3 001065   000000 011000                    NOP     0

     4952     2204    4              IF NUM_CHANS > 0

   2204  3 001066   201541 235100                    LDA     NUM_CHANS,,AUTO
         3 001067   001122 600000 3                  TZE     s:2206

     4953     2205    4             THEN CALL THW$WRITE(CONFIG_FEP,VECTOR(TD_HEAD.DEVNAME(J)),VECTOR(CHANS));

   2205  3 001070   000011 235000 4                  LDA     9
         3 001071   201762 452500                    STP2    CHAR3+2,,AUTO
         3 001072   201553 236100                    LDQ     J,,AUTO
PL6.E3A0      #005=THF$CONFIG File=THF$FORMAT.:E05TSI                            WED 07/30/97 06:16 Page:951
         3 001073   000023 736000                    QLS     19
         3 001074   000024 036003                    ADLQ    20,DU
         3 001075   201762 036100                    ADLQ    CHAR3+2,,AUTO
         3 001076   201764 757100                    STAQ    CHAR3+4,,AUTO
         3 001077   000012 235000 4                  LDA     10
         3 001100   201766 452500                    STP2    CHAR3+6,,AUTO
         3 001101   201766 236100                    LDQ     CHAR3+6,,AUTO
         3 001102   001542 036003                    ADLQ    866,DU
         3 001103   201772 757100                    STAQ    CHAR3+10,,AUTO
         3 001104   201764 237100                    LDAQ    CHAR3+4,,AUTO
         3 001105   201770 757100                    STAQ    CHAR3+8,,AUTO
         3 001106   201772 237100                    LDAQ    CHAR3+10,,AUTO
         3 001107   201774 757100                    STAQ    CHAR3+12,,AUTO
         3 001110   201774 630500                    EPPR0   CHAR3+12,,AUTO
         3 001111   202000 450500                    STP0    CHAR3+16,,AUTO
         3 001112   201770 631500                    EPPR1   CHAR3+8,,AUTO
         3 001113   201777 451500                    STP1    CHAR3+15,,AUTO
         3 001114   000013 236000 4                  LDQ     11
         3 001115   201776 756100                    STQ     CHAR3+14,,AUTO
         3 001116   201776 630500                    EPPR0   CHAR3+14,,AUTO
         3 001117   000021 631400 xsym               EPPR1   B_VECTNIL+17
         3 001120   000000 701000 xent               TSX1    THW$WRITE
         3 001121   000000 011000                    NOP     0

     4954     2206    4           END;                            /* DO J                               */

   2206  3 001122   201553 054100                    AOS     J,,AUTO
         3 001123   201553 236100                    LDQ     J,,AUTO
         3 001124   201664 116100                    CMPQ    LAST_FEP,,AUTO
         3 001125   001054 604400 3                  TMOZ    s:2203

     4955     2207    3           CALL THW$WRITE(VECTOR(BLANK_LINE));

   2207  3 001126   000010 630400 4                  EPPR0   8
         3 001127   000017 631400 xsym               EPPR1   B_VECTNIL+15
         3 001130   000000 701000 xent               TSX1    THW$WRITE
         3 001131   000000 011000                    NOP     0
PL6.E3A0      #005=THF$CONFIG File=THF$FORMAT.:E05TSI                            WED 07/30/97 06:16 Page:952

     4956     2208
     4957     2209                                                /* OUTPUT SCS                         */
     4958     2210    4           DO J = FIRST_SC TO LAST_SC;

   2210  3 001132   201665 235100                    LDA     FIRST_SC,,AUTO
         3 001133   201553 755100                    STA     J,,AUTO
         3 001134   001204 710000 3                  TRA     s:2214+1

     4959     2211    4              CALL FIND_CHANNEL(TD_HEAD.DEVNAME(J),NUM_CHANS,CHANS);

   2211  3 001135   201542 630500                    EPPR0   CHANS,,AUTO
         3 001136   201755 450500                    STP0    @CHAN+1,,AUTO
         3 001137   201541 631500                    EPPR1   NUM_CHANS,,AUTO
         3 001140   201754 451500                    STP1    @NUM+1,,AUTO
         3 001141   201553 235100                    LDA     J,,AUTO
         3 001142   000001 735000                    ALS     1
         3 001143   200024 633505                    EPPR3   TD_HEAD+16,AL,AUTO
         3 001144   201753 453500                    STP3    REVBUF+3,,AUTO
         3 001145   001220 701000 3                  TSX1    FIND_CHANNEL
         3 001146   000000 011000                    NOP     0

     4960     2212    4              IF NUM_CHANS > 0

   2212  3 001147   201541 235100                    LDA     NUM_CHANS,,AUTO
         3 001150   001203 600000 3                  TZE     s:2214

     4961     2213    4              THEN CALL THW$WRITE(CONFIG_SC,VECTOR(TD_HEAD.DEVNAME(J)),VECTOR(CHANS));

   2213  3 001151   000011 235000 4                  LDA     9
         3 001152   201762 452500                    STP2    CHAR3+2,,AUTO
         3 001153   201553 236100                    LDQ     J,,AUTO
         3 001154   000023 736000                    QLS     19
         3 001155   000024 036003                    ADLQ    20,DU
         3 001156   201762 036100                    ADLQ    CHAR3+2,,AUTO
         3 001157   201764 757100                    STAQ    CHAR3+4,,AUTO
         3 001160   000012 235000 4                  LDA     10
PL6.E3A0      #005=THF$CONFIG File=THF$FORMAT.:E05TSI                            WED 07/30/97 06:16 Page:953
         3 001161   201766 452500                    STP2    CHAR3+6,,AUTO
         3 001162   201766 236100                    LDQ     CHAR3+6,,AUTO
         3 001163   001542 036003                    ADLQ    866,DU
         3 001164   201772 757100                    STAQ    CHAR3+10,,AUTO
         3 001165   201764 237100                    LDAQ    CHAR3+4,,AUTO
         3 001166   201770 757100                    STAQ    CHAR3+8,,AUTO
         3 001167   201772 237100                    LDAQ    CHAR3+10,,AUTO
         3 001170   201774 757100                    STAQ    CHAR3+12,,AUTO
         3 001171   201774 630500                    EPPR0   CHAR3+12,,AUTO
         3 001172   202000 450500                    STP0    CHAR3+16,,AUTO
         3 001173   201770 631500                    EPPR1   CHAR3+8,,AUTO
         3 001174   201777 451500                    STP1    CHAR3+15,,AUTO
         3 001175   000014 236000 4                  LDQ     12
         3 001176   201776 756100                    STQ     CHAR3+14,,AUTO
         3 001177   201776 630500                    EPPR0   CHAR3+14,,AUTO
         3 001200   000021 631400 xsym               EPPR1   B_VECTNIL+17
         3 001201   000000 701000 xent               TSX1    THW$WRITE
         3 001202   000000 011000                    NOP     0

     4962     2214    4           END;                            /* DO J                               */

   2214  3 001203   201553 054100                    AOS     J,,AUTO
         3 001204   201553 236100                    LDQ     J,,AUTO
         3 001205   201666 116100                    CMPQ    LAST_SC,,AUTO
         3 001206   001135 604400 3                  TMOZ    s:2211

     4963     2215    3        END;                               /* DO I                               */

   2215  3 001207   201552 054100                    AOS     I,,AUTO
         3 001210   201552 236100                    LDQ     I,,AUTO
         3 001211   201662 116100                    CMPQ    LAST_IOM,,AUTO
         3 001212   000751 604400 3                  TMOZ    s:2189

     4964     2216    2     NEXT:
     4965     2217    2        END;                             /* DO WHILE II                           */

   2217  3 001213   201670 236100       NEXT         LDQ     II,,AUTO
PL6.E3A0      #005=THF$CONFIG File=THF$FORMAT.:E05TSI                            WED 07/30/97 06:16 Page:954
         3 001214   000017 604000 3                  TMI     s:2023
         3 001215   000000 116000 xsym               CMPQ    TH_NUM_REP_DEVS
         3 001216   000017 602000 3                  TNC     s:2023

     4966     2218    1        RETURN;

   2218  3 001217   000000 702200 xent               TSX2  ! X66_ARET

     4967     2219        %EJECT;
PL6.E3A0      #005=THF$CONFIG File=THF$FORMAT.:E05TSI                            WED 07/30/97 06:16 Page:955
     4968     2220       /* THIS PROCEDURE RETURNS THE IOM CHANNEL NUMBERS THAT A GIVEN DEVICE IS CONNECTED T
              2220        O */
     4969     2221    1   FIND_CHANNEL: PROC(DEVNAME,NUM,CHANS);

   2221  3 001220   201752 741300       FIND_CHANNEL STX1  ! REVBUF+2,,AUTO

     4970     2222        /**/
     4971     2223        /* PARAMS */
     4972     2224    2   DCL DEVNAME CHAR(8);
     4973     2225    2   DCL NUM UBIN WORD;
     4974     2226    2   DCL CHANS(0:7) UBIN WORD;
     4975     2227        /**/
     4976     2228        /* LOCAL VARS */
     4977     2229    2   DCL I UBIN;
     4978     2230        /**/
     4979     2231    2        NUM = 0;

   2231  3 001221   201754 470500                    LDP0    @NUM,,AUTO
         3 001222   000000 450100                    STZ     0,,PR0

     4980     2232    2        CHANS = '0'B;

   2232  3 001223   201755 471500                    LDP1    @CHANS,,AUTO
         3 001224   000100 100400                    MLR     fill='000'O
         3 001225   000002 000001 xsym               ADSC9   B_VECTNIL+2              cn=0,n=1
         3 001226   100000 000040                    ADSC9   0,,PR1                   cn=0,n=32

     4981     2233    3        DO I = 0 TO %N_MAXCHANS-1;         /* DO ALL CHANNELS OF CURRENT IOM     */

   2233  3 001227   201756 450100                    STZ     I,,AUTO
         3 001230   001253 710000 3                  TRA     s:2240+3

     4982     2234    3           IF IOMREC.DEVNAME(I) = DEVNAME

   2234  3 001231   201756 235100                    LDA     I,,AUTO
         3 001232   000003 735000                    ALS     3
         3 001233   201753 470500                    LDP0    @DEVNAME,,AUTO
PL6.E3A0      #005=THF$CONFIG File=THF$FORMAT.:E05TSI                            WED 07/30/97 06:16 Page:956
         3 001234   040100 106505                    CMPC    fill='040'O
         3 001235   200646 000010                    ADSC9   IOMREC,A,AUTO            cn=0,n=8
         3 001236   000000 000010                    ADSC9   0,,PR0                   cn=0,n=8
         3 001237   001250 601000 3                  TNZ     s:2240

     4983     2235    3              THEN                         /* FOUND IT                           */
     4984     2236    4              DO;

     4985     2237    4                 NUM = NUM + 1;

   2237  3 001240   201754 471500                    LDP1    @NUM,,AUTO
         3 001241   100000 235100                    LDA     0,,PR1
         3 001242   000001 035007                    ADLA    1,DL
         3 001243   100000 755100                    STA     0,,PR1

     4986     2238    4                 CHANS(NUM - 1) = I;

   2238  3 001244   100000 720100                    LXL0    0,,PR1
         3 001245   201755 473500                    LDP3    @CHANS,,AUTO
         3 001246   201756 236100                    LDQ     I,,AUTO
         3 001247   377777 756110                    STQ     -1,X0,PR3

     4987     2239    4              END;                         /* IF                                 */

     4988     2240    3        END;                               /* DO I                               */

   2240  3 001250   201756 235100                    LDA     I,,AUTO
         3 001251   000001 035007                    ADLA    1,DL
         3 001252   201756 755100                    STA     I,,AUTO
         3 001253   201756 235100                    LDA     I,,AUTO
         3 001254   000200 115007                    CMPA    128,DL
         3 001255   001231 602000 3                  TNC     s:2234

     4989     2241    2        RETURN;

   2241  3 001256   201752 221300                    LDX1  ! REVBUF+2,,AUTO
         3 001257   000001 702211                    TSX2  ! 1,X1
PL6.E3A0      #005=THF$CONFIG File=THF$FORMAT.:E05TSI                            WED 07/30/97 06:16 Page:957

     4990     2242    2   END FIND_CHANNEL;
     4991     2243        %EJECT;
PL6.E3A0      #005=THF$CONFIG File=THF$FORMAT.:E05TSI                            WED 07/30/97 06:16 Page:958
     4992     2244        /* THIS PROCEDURE OUTPUTS MPC INFO AND DEVICE INFO FOR ALL DEVICES CONNECTED TO THE
              2244        GIVEN MPC */
     4993     2245    1   OUTPUT_MPC: PROC(INDX,MPC_TYPE);

   2245  3 001260   201676 741300       OUTPUT_MPC   STX1  ! C_CODE+1,,AUTO

     4994     2246        /**/
     4995     2247        /* PARAMS */
     4996     2248    2   DCL 1 INDX ALIGNED,
     4997     2249    2         2 FIRST UBIN HALF UNAL,
     4998     2250    2         2 NUM UBIN HALF UNAL;
     4999     2251    2   DCL MPC_TYPE UBIN WORD;
     5000     2252        /**/
     5001     2253        /* LOCAL VARS */
     5002     2254    2   DCL FIRST UBIN HALF;
     5003     2255    2   DCL LAST UBIN HALF;
     5004     2256    2   DCL I UBIN;
     5005     2257    2   DCL J UBIN;
     5006     2258    2   DCL NUM_XBARS SBIN;
     5007     2259    2   DCL XBARS(0:10) UBIN WORD;
     5008     2260    2   DCL FOUND BIT(1);
     5009     2261    2   DCL XBAR_INDX UBIN WORD;
     5010     2262    2   DCL XBAR_FMT CHAR(0) CONSTANT INIT('
     5011     2263    2   %25-crossbarred with%10P');
     5012     2264        /**/
     5013     2265        %EJECT;
PL6.E3A0      #005=THF$CONFIG File=THF$FORMAT.:E05TSI                            WED 07/30/97 06:16 Page:959
     5014     2266    2        FIRST = INDX.FIRST;

   2266  3 001261   201677 470500                    LDP0    @INDX,,AUTO
         3 001262   000000 220100                    LDX0    0,,PR0
         3 001263   201701 740100                    STX0    FIRST,,AUTO

     5015     2267    2        LAST = INDX.FIRST + INDX.NUM - 1;

   2267  3 001264   000000 236100                    LDQ     0,,PR0
         3 001265   777777 376007                    ANQ     -1,DL
         3 001266   201762 756100                    STQ     CHAR3+2,,AUTO
         3 001267   000000 236100                    LDQ     0,,PR0
         3 001270   000022 772000                    QRL     18
         3 001271   201762 036100                    ADLQ    CHAR3+2,,AUTO
         3 001272   777777 622006                    EAX2    -1,QL
         3 001273   201702 742100                    STX2    LAST,,AUTO

     5016     2268    2        NUM_XBARS = 0;

   2268  3 001274   201705 450100                    STZ     NUM_XBARS,,AUTO

     5017     2269    3        DO I = FIRST TO LAST;

   2269  3 001275   201701 235100                    LDA     FIRST,,AUTO
         3 001276   000022 771000                    ARL     18
         3 001277   201703 755100                    STA     I,,AUTO
         3 001300   001402 710000 3                  TRA     ENDLOOP+3

     5018     2270                                 /* CHECK IF THIS MPC HAS ALREADY BEEN DEALT WITH     */
     5019     2271    4           DO J = 0 TO NUM_XBARS - 1;

   2271  3 001301   201704 450100                    STZ     J,,AUTO
         3 001302   001312 710000 3                  TRA     s:2274+3

     5020     2272    4              IF I = XBARS(J)

   2272  3 001303   201704 720100                    LXL0    J,,AUTO
PL6.E3A0      #005=THF$CONFIG File=THF$FORMAT.:E05TSI                            WED 07/30/97 06:16 Page:960
         3 001304   201703 236100                    LDQ     I,,AUTO
         3 001305   201706 116110                    CMPQ    XBARS,X0,AUTO
         3 001306   001377 600000 3                  TZE     ENDLOOP

     5021     2273    4                 THEN GOTO ENDLOOP;
     5022     2274    4           END;                            /* DO J                               */

   2274  3 001307   201704 235100                    LDA     J,,AUTO
         3 001310   000001 035007                    ADLA    1,DL
         3 001311   201704 755100                    STA     J,,AUTO
         3 001312   201704 236100                    LDQ     J,,AUTO
         3 001313   001316 604000 3                  TMI     s:2275
         3 001314   201705 116100                    CMPQ    NUM_XBARS,,AUTO
         3 001315   001303 604000 3                  TMI     s:2272

     5023     2275    3           CALL MPC_HDR(TD_HEAD.DEVNAME(I)) ALTRET(ENDLOOP);

   2275  3 001316   201703 235100                    LDA     I,,AUTO
         3 001317   000001 735000                    ALS     1
         3 001320   200024 630505                    EPPR0   TD_HEAD+16,AL,AUTO
         3 001321   201725 450500                    STP0    XBAR_INDX+3,,AUTO
         3 001322   001410 701000 3                  TSX1    MPC_HDR
         3 001323   001377 702000 3                  TSX2    ENDLOOP

     5024     2276    3           IF MPC_TYPE = 3

   2276  3 001324   201700 470500                    LDP0    @MPC_TYPE,,AUTO
         3 001325   000000 235100                    LDA     0,,PR0
         3 001326   000003 115007                    CMPA    3,DL
         3 001327   001356 601000 3                  TNZ     NO_XBAR

     5025     2277    3              THEN                         /* DC                                 */
     5026     2278    4              DO;

     5027     2279    4                 CALL XBAR(I,LAST,XBAR_INDX) ALTRET(NO_XBAR);

   2279  3 001330   201722 631500                    EPPR1   XBAR_INDX,,AUTO
PL6.E3A0      #005=THF$CONFIG File=THF$FORMAT.:E05TSI                            WED 07/30/97 06:16 Page:961
         3 001331   201727 451500                    STP1    @LAST+1,,AUTO
         3 001332   201702 633500                    EPPR3   LAST,,AUTO
         3 001333   201726 453500                    STP3    @MPC_INDX+1,,AUTO
         3 001334   201703 634500                    EPPR4   I,,AUTO
         3 001335   201725 454500                    STP4    XBAR_INDX+3,,AUTO
         3 001336   002532 701000 3                  TSX1    XBAR
         3 001337   001356 702000 3                  TSX2    NO_XBAR

     5028     2280    4                 CALL THW$WRITE(VECTOR(XBAR_FMT));

   2280  3 001340   000020 630400 4                  EPPR0   16
         3 001341   000017 631400 xsym               EPPR1   B_VECTNIL+15
         3 001342   000000 701000 xent               TSX1    THW$WRITE
         3 001343   000000 011000                    NOP     0

     5029     2281    4                 CALL MPC_HDR(TD_HEAD.DEVNAME(XBAR_INDX));

   2281  3 001344   201722 235100                    LDA     XBAR_INDX,,AUTO
         3 001345   000001 735000                    ALS     1
         3 001346   200024 630505                    EPPR0   TD_HEAD+16,AL,AUTO
         3 001347   201725 450500                    STP0    XBAR_INDX+3,,AUTO
         3 001350   001410 701000 3                  TSX1    MPC_HDR
         3 001351   000000 011000                    NOP     0

     5030     2282    4                 XBARS(NUM_XBARS) = XBAR_INDX;

   2282  3 001352   201705 720100                    LXL0    NUM_XBARS,,AUTO
         3 001353   201722 235100                    LDA     XBAR_INDX,,AUTO
         3 001354   201706 755110                    STA     XBARS,X0,AUTO

     5031     2283    4                 NUM_XBARS = NUM_XBARS + 1;

   2283  3 001355   201705 054100                    AOS     NUM_XBARS,,AUTO

     5032     2284    4              END;                         /* IF DC                              */

     5033     2285    3     NO_XBAR:
PL6.E3A0      #005=THF$CONFIG File=THF$FORMAT.:E05TSI                            WED 07/30/97 06:16 Page:962
     5034     2286    3           DEV_FLG = %FALSE;

   2286  3 001356   201673 450100       NO_XBAR      STZ     DEV_FLG,,AUTO

     5035     2287    3           CALL MPC_DEVICES(TD_HEAD.DEVNAME(I),MPC_TYPE,0,0,DEV_FLG);

   2287  3 001357   201673 630500                    EPPR0   DEV_FLG,,AUTO
         3 001360   201731 450500                    STP0    J+1,,AUTO
         3 001361   000021 236000 4                  LDQ     17
         3 001362   201730 756100                    STQ     @XBAR_INDX+1,,AUTO
         3 001363   201700 235100                    LDA     @MPC_TYPE,,AUTO
         3 001364   201726 757100                    STAQ    @MPC_INDX+1,,AUTO
         3 001365   201703 235100                    LDA     I,,AUTO
         3 001366   000001 735000                    ALS     1
         3 001367   200024 631505                    EPPR1   TD_HEAD+16,AL,AUTO
         3 001370   201725 451500                    STP1    XBAR_INDX+3,,AUTO
         3 001371   002063 701000 3                  TSX1    MPC_DEVICES
         3 001372   000000 011000                    NOP     0

     5036     2288    3           CALL THW$WRITE(VECTOR(BLANK_LINE));

   2288  3 001373   000010 630400 4                  EPPR0   8
         3 001374   000017 631400 xsym               EPPR1   B_VECTNIL+15
         3 001375   000000 701000 xent               TSX1    THW$WRITE
         3 001376   000000 011000                    NOP     0

     5037     2289    3       ENDLOOP:
     5038     2290    3        END;                               /* DO I                               */

   2290  3 001377   201703 235100       ENDLOOP      LDA     I,,AUTO
         3 001400   000001 035007                    ADLA    1,DL
         3 001401   201703 755100                    STA     I,,AUTO
         3 001402   201702 236100                    LDQ     LAST,,AUTO
         3 001403   000022 772000                    QRL     18
         3 001404   201703 116100                    CMPQ    I,,AUTO
         3 001405   001301 603000 3                  TRC     s:2271

PL6.E3A0      #005=THF$CONFIG File=THF$FORMAT.:E05TSI                            WED 07/30/97 06:16 Page:963
     5039     2291    2        RETURN;

   2291  3 001406   201676 221300                    LDX1  ! C_CODE+1,,AUTO
         3 001407   000001 702211                    TSX2  ! 1,X1

     5040     2292    2   END OUTPUT_MPC;
     5041     2293        %EJECT;
PL6.E3A0      #005=THF$CONFIG File=THF$FORMAT.:E05TSI                            WED 07/30/97 06:16 Page:964
     5042     2294    1   MPC_HDR: PROC(MPC_NAME) ALTRET;

   2294  3 001410   201724 741300       MPC_HDR      STX1  ! XBAR_INDX+2,,AUTO

     5043     2295        /**/
     5044     2296        /* PARAMS */
     5045     2297    2   DCL MPC_NAME CHAR(8);
     5046     2298    2   DCL TMP_NAME CHAR(8);
     5047     2299        /**/
     5048     2300        /* LOCAL VARS */
     5049     2301    2   DCL RANGE_FLAG BIT(1);
     5050     2302    2   DCL BUF_CNT UBIN WORD;
     5051     2303    2   DCL LEN UBIN WORD;
     5052     2304    2   DCL CHAN_BUF CHAR(40);
     5053     2305    2   DCL CHAN CHAR(3);
     5054     2306    2   DCL LAST_CHAN UBIN WORD;
     5055     2307    2   DCL J UBIN;
     5056     2308    2   DCL REVBUF CHAR(8);
     5057     2309        /**/
     5058     2310        %EJECT;
PL6.E3A0      #005=THF$CONFIG File=THF$FORMAT.:E05TSI                            WED 07/30/97 06:16 Page:965
     5059     2311    2        CHAN_BUF = ' ';

   2311  3 001411   040100 100400                    MLR     fill='040'O
         3 001412   000035 000001 xsym               ADSC9   B_VECTNIL+29             cn=0,n=1
         3 001413   201733 000050                    ADSC9   CHAN_BUF,,AUTO           cn=0,n=40

     5060     2312    2        BUF_CNT = 0;

   2312  3 001414   201731 450100                    STZ     BUF_CNT,,AUTO

     5061     2313    2        TEXT$ = ADDR(TEXTBUF);

   2313  3 001415   201556 630500                    EPPR0   TEXTBUF,,AUTO
         3 001416   201656 450500                    STP0    TEXT$,,AUTO

     5062     2314    2        CALL THG$GETREC(%CONFIG,MPC_NAME);

   2314  3 001417   201725 236100                    LDQ     @MPC_NAME,,AUTO
         3 001420   000000 235000 4                  LDA     0
         3 001421   201762 757100                    STAQ    CHAR3+2,,AUTO
         3 001422   201762 630500                    EPPR0   CHAR3+2,,AUTO
         3 001423   000020 631400 xsym               EPPR1   B_VECTNIL+16
         3 001424   000000 701000 xent               TSX1    THG$GETREC
         3 001425   000000 011000                    NOP     0

     5063     2315    2        MPCREC = TH_RECORD.PTR$->TD$MPC;

   2315  3 001426   000001 470400 xsym               LDP0    TH_RECORD+1
         3 001427   000100 100500                    MLR     fill='000'O
         3 001430   000000 000504                    ADSC9   0,,PR0                   cn=0,n=324
         3 001431   201257 000504                    ADSC9   MPCREC,,AUTO             cn=0,n=324

     5064     2316    2        CALL THF$ADD_TEXTC(TEXT$,MPCREC.FWNAME,4);

   2316  3 001432   000022 236000 4                  LDQ     18
         3 001433   201764 756100                    STQ     CHAR3+4,,AUTO
         3 001434   201272 631500                    EPPR1   MPCREC+11,,AUTO
PL6.E3A0      #005=THF$CONFIG File=THF$FORMAT.:E05TSI                            WED 07/30/97 06:16 Page:966
         3 001435   201763 451500                    STP1    CHAR3+3,,AUTO
         3 001436   201656 633500                    EPPR3   TEXT$,,AUTO
         3 001437   201762 453500                    STP3    CHAR3+2,,AUTO
         3 001440   201762 630500                    EPPR0   CHAR3+2,,AUTO
         3 001441   000021 631400 xsym               EPPR1   B_VECTNIL+17
         3 001442   000000 701000 xent               TSX1    THF$ADD_TEXTC
         3 001443   000000 011000                    NOP     0

     5065     2317    2        CALL THF$ADD_TEXTC(TEXT$,MPCREC.LPFWNAME,4);

   2317  3 001444   000022 236000 4                  LDQ     18
         3 001445   201764 756100                    STQ     CHAR3+4,,AUTO
         3 001446   201273 630500                    EPPR0   MPCREC+12,,AUTO
         3 001447   201763 450500                    STP0    CHAR3+3,,AUTO
         3 001450   201656 631500                    EPPR1   TEXT$,,AUTO
         3 001451   201762 451500                    STP1    CHAR3+2,,AUTO
         3 001452   201762 630500                    EPPR0   CHAR3+2,,AUTO
         3 001453   000021 631400 xsym               EPPR1   B_VECTNIL+17
         3 001454   000000 701000 xent               TSX1    THF$ADD_TEXTC
         3 001455   000000 011000                    NOP     0

     5066     2318    2        CALL THF$ADD_TEXTC(TEXT$,MPCREC.CRPFWNAME,4);

   2318  3 001456   000022 236000 4                  LDQ     18
         3 001457   201764 756100                    STQ     CHAR3+4,,AUTO
         3 001460   201274 630500                    EPPR0   MPCREC+13,,AUTO
         3 001461   201763 450500                    STP0    CHAR3+3,,AUTO
         3 001462   201656 631500                    EPPR1   TEXT$,,AUTO
         3 001463   201762 451500                    STP1    CHAR3+2,,AUTO
         3 001464   201762 630500                    EPPR0   CHAR3+2,,AUTO
         3 001465   000021 631400 xsym               EPPR1   B_VECTNIL+17
         3 001466   000000 701000 xent               TSX1    THF$ADD_TEXTC
         3 001467   000000 011000                    NOP     0

     5067     2319    3        IF MPCREC.FWREV.LETTER ~= ' ' THEN DO;

   2319  3 001470   201275 236100                    LDQ     MPCREC+14,,AUTO
PL6.E3A0      #005=THF$CONFIG File=THF$FORMAT.:E05TSI                            WED 07/30/97 06:16 Page:967
         3 001471   777000 376003                    ANQ     -512,DU
         3 001472   040000 116003                    CMPQ    16384,DU
         3 001473   001522 600000 3                  TZE     s:2324

     5068     2320    3           CALL INSERT(REVBUF,0,,'(rev ',MPCREC.FWREV.LETTER,MPCREC.FWREV.SUBREV,')');

   2320  3 001474   040100 100400                    MLR     fill='040'O
         3 001475   001130 000005 1                  ADSC9   XBAR_FMT+24              cn=0,n=5
         3 001476   201750 000005                    ADSC9   REVBUF,,AUTO             cn=0,n=5
         3 001477   201275 236100                    LDQ     MPCREC+14,,AUTO
         3 001500   000011 772000                    QRL     9
         3 001501   201751 552120                    STBQ    REVBUF+1,'20'O,AUTO
         3 001502   201275 236100                    LDQ     MPCREC+14,,AUTO
         3 001503   000011 772000                    QRL     9
         3 001504   201751 552110                    STBQ    REVBUF+1,'10'O,AUTO
         3 001505   000051 236007                    LDQ     41,DL
         3 001506   201751 552104                    STBQ    REVBUF+1,'04'O,AUTO

     5069     2321    3           CALL THF$ADD_TEXTC(TEXT$,REVBUF,8);

   2321  3 001507   000023 236000 4                  LDQ     19
         3 001510   201764 756100                    STQ     CHAR3+4,,AUTO
         3 001511   201750 630500                    EPPR0   REVBUF,,AUTO
         3 001512   201763 450500                    STP0    CHAR3+3,,AUTO
         3 001513   201656 631500                    EPPR1   TEXT$,,AUTO
         3 001514   201762 451500                    STP1    CHAR3+2,,AUTO
         3 001515   201762 630500                    EPPR0   CHAR3+2,,AUTO
         3 001516   000021 631400 xsym               EPPR1   B_VECTNIL+17
         3 001517   000000 701000 xent               TSX1    THF$ADD_TEXTC
         3 001520   000000 011000                    NOP     0

     5070     2322    3           END;  /* IF */

   2322  3 001521   001534 710000 3                  TRA     s:2326

     5071     2323    3        ELSE DO;

PL6.E3A0      #005=THF$CONFIG File=THF$FORMAT.:E05TSI                            WED 07/30/97 06:16 Page:968
     5072     2324    3           CALL THF$ADD_TEXTC(TEXT$,' ',1);

   2324  3 001522   000024 236000 4                  LDQ     20
         3 001523   201764 756100                    STQ     CHAR3+4,,AUTO
         3 001524   000002 236000 4                  LDQ     2
         3 001525   201763 756100                    STQ     CHAR3+3,,AUTO
         3 001526   201656 630500                    EPPR0   TEXT$,,AUTO
         3 001527   201762 450500                    STP0    CHAR3+2,,AUTO
         3 001530   201762 630500                    EPPR0   CHAR3+2,,AUTO
         3 001531   000021 631400 xsym               EPPR1   B_VECTNIL+17
         3 001532   000000 701000 xent               TSX1    THF$ADD_TEXTC
         3 001533   000000 011000                    NOP     0

     5073     2325    3           END;  /* ELSE */

     5074     2326    2        IF SUBSTR(MPC_NAME,0,2) = 'OP'  THEN

   2326  3 001534   201725 470500                    LDP0    @MPC_NAME,,AUTO
         3 001535   040000 106500                    CMPC    fill='040'O
         3 001536   000000 000002                    ADSC9   0,,PR0                   cn=0,n=2
         3 001537   001117 000002 1                  ADSC9   XBAR_FMT+15              cn=0,n=2
         3 001540   001551 601000 3                  TNZ     s:2329

     5075     2327    2           CALL CONCAT(TMP_NAME,'FEP',SUBSTR(MPC_NAME,2,2));  /* TMP == OPC here  */

   2327  3 001541   001132 236000 1                  LDQ     XBAR_FMT+26
         3 001542   000003 376000 4                  ANQ     3
         3 001543   000040 276007                    ORQ     32,DL
         3 001544   201726 756100                    STQ     TMP_NAME,,AUTO
         3 001545   040100 100500                    MLR     fill='040'O
         3 001546   000000 400002                    ADSC9   0,,PR0                   cn=2,n=2
         3 001547   201726 600005                    ADSC9   TMP_NAME,,AUTO           cn=3,n=5
         3 001550   001554 710000 3                  TRA     s:2330

     5076     2328    2        ELSE
     5077     2329    2           TMP_NAME = MPC_NAME;                               /* TMP == MPC here  */

PL6.E3A0      #005=THF$CONFIG File=THF$FORMAT.:E05TSI                            WED 07/30/97 06:16 Page:969
   2329  3 001551   040100 100500                    MLR     fill='040'O
         3 001552   000000 000010                    ADSC9   0,,PR0                   cn=0,n=8
         3 001553   201726 000010                    ADSC9   TMP_NAME,,AUTO           cn=0,n=8

     5078     2330    2        CALL FIND_CHANNEL(TMP_NAME,NUM_CHANS,CHANS);

   2330  3 001554   201542 630500                    EPPR0   CHANS,,AUTO
         3 001555   201755 450500                    STP0    @CHANS,,AUTO
         3 001556   201541 631500                    EPPR1   NUM_CHANS,,AUTO
         3 001557   201754 451500                    STP1    @NUM,,AUTO
         3 001560   201726 633500                    EPPR3   TMP_NAME,,AUTO
         3 001561   201753 453500                    STP3    @DEVNAME,,AUTO
         3 001562   001220 701000 3                  TSX1    FIND_CHANNEL
         3 001563   000000 011000                    NOP     0

     5079     2331    2        IF NUM_CHANS = 0 THEN ALTRETURN;

   2331  3 001564   201541 235100                    LDA     NUM_CHANS,,AUTO
         3 001565   001570 601000 3                  TNZ     s:2332

   2331  3 001566   201724 221300                    LDX1  ! XBAR_INDX+2,,AUTO
         3 001567   000000 702211                    TSX2  ! 0,X1

     5080     2332    2        RANGE_FLAG = %FALSE;

   2332  3 001570   201730 450100                    STZ     RANGE_FLAG,,AUTO

     5081     2333    2        CALL MY_BINCHAR(CHANS(0),CHAN,LEN);

   2333  3 001571   201732 630500                    EPPR0   LEN,,AUTO
         3 001572   201755 450500                    STP0    @CHANS,,AUTO
         3 001573   201745 631500                    EPPR1   CHAN,,AUTO
         3 001574   201754 451500                    STP1    @NUM,,AUTO
         3 001575   201542 633500                    EPPR3   CHANS,,AUTO
         3 001576   201753 453500                    STP3    @DEVNAME,,AUTO
         3 001577   002621 701000 3                  TSX1    MY_BINCHAR
         3 001600   000000 011000                    NOP     0
PL6.E3A0      #005=THF$CONFIG File=THF$FORMAT.:E05TSI                            WED 07/30/97 06:16 Page:970

     5082     2334    2        CALL INSERT(CHAN_BUF,BUF_CNT,LEN,CHAN);

   2334  3 001601   201732 720100                    LXL0    LEN,,AUTO
         3 001602   201731 235100                    LDA     BUF_CNT,,AUTO
         3 001603   040145 100500                    MLR     fill='040'O
         3 001604   201745 000003                    ADSC9   CHAN,,AUTO               cn=0,n=3
         3 001605   201733 000010                    ADSC9   CHAN_BUF,A,AUTO          cn=0,n=*X0

     5083     2335    2        BUF_CNT = BUF_CNT + LEN;

   2335  3 001606   201731 236100                    LDQ     BUF_CNT,,AUTO
         3 001607   201732 036100                    ADLQ    LEN,,AUTO
         3 001610   201731 756100                    STQ     BUF_CNT,,AUTO

     5084     2336    2        LAST_CHAN = CHANS(0);

   2336  3 001611   201542 235100                    LDA     CHANS,,AUTO
         3 001612   201746 755100                    STA     LAST_CHAN,,AUTO

     5085     2337    3        DO J = 1 TO NUM_CHANS - 1;

   2337  3 001613   000001 235007                    LDA     1,DL
         3 001614   201747 755100                    STA     J,,AUTO
         3 001615   001716 710000 3                  TRA     s:2359+3

     5086     2338    3           IF CHANS(J) = LAST_CHAN + 1

   2338  3 001616   201747 720100                    LXL0    J,,AUTO
         3 001617   201746 236100                    LDQ     LAST_CHAN,,AUTO
         3 001620   000001 036007                    ADLQ    1,DL
         3 001621   201542 116110                    CMPQ    CHANS,X0,AUTO
         3 001622   001626 601000 3                  TNZ     s:2342

     5087     2339    3              THEN RANGE_FLAG = %TRUE;

   2339  3 001623   400000 236003                    LDQ     -131072,DU
PL6.E3A0      #005=THF$CONFIG File=THF$FORMAT.:E05TSI                            WED 07/30/97 06:16 Page:971
         3 001624   201730 756100                    STQ     RANGE_FLAG,,AUTO
         3 001625   001710 710000 3                  TRA     s:2358

     5088     2340    3              ELSE
     5089     2341    4              DO;

     5090     2342    4                 IF RANGE_FLAG

   2342  3 001626   201730 234100                    SZN     RANGE_FLAG,,AUTO
         3 001627   001660 605000 3                  TPL     s:2352

     5091     2343    4                    THEN
     5092     2344    5                    DO;

     5093     2345    5                       RANGE_FLAG = %FALSE;

   2345  3 001630   201730 450100                    STZ     RANGE_FLAG,,AUTO

     5094     2346    5                       CALL INSERT(CHAN_BUF,BUF_CNT,1,'-');

   2346  3 001631   201731 235100                    LDA     BUF_CNT,,AUTO
         3 001632   040105 100400                    MLR     fill='040'O
         3 001633   000025 000001 4                  ADSC9   21                       cn=0,n=1
         3 001634   201733 000001                    ADSC9   CHAN_BUF,A,AUTO          cn=0,n=1

     5095     2347    5                       BUF_CNT = BUF_CNT + 1;

   2347  3 001635   201731 235100                    LDA     BUF_CNT,,AUTO
         3 001636   000001 035007                    ADLA    1,DL
         3 001637   201731 755100                    STA     BUF_CNT,,AUTO

     5096     2348    5                       CALL MY_BINCHAR(LAST_CHAN,CHAN,LEN);

   2348  3 001640   201732 630500                    EPPR0   LEN,,AUTO
         3 001641   201755 450500                    STP0    @CHANS,,AUTO
         3 001642   201745 631500                    EPPR1   CHAN,,AUTO
         3 001643   201754 451500                    STP1    @NUM,,AUTO
PL6.E3A0      #005=THF$CONFIG File=THF$FORMAT.:E05TSI                            WED 07/30/97 06:16 Page:972
         3 001644   201746 633500                    EPPR3   LAST_CHAN,,AUTO
         3 001645   201753 453500                    STP3    @DEVNAME,,AUTO
         3 001646   002621 701000 3                  TSX1    MY_BINCHAR
         3 001647   000000 011000                    NOP     0

     5097     2349    5                       CALL INSERT(CHAN_BUF,BUF_CNT,LEN,CHAN);

   2349  3 001650   201732 720100                    LXL0    LEN,,AUTO
         3 001651   201731 235100                    LDA     BUF_CNT,,AUTO
         3 001652   040145 100500                    MLR     fill='040'O
         3 001653   201745 000003                    ADSC9   CHAN,,AUTO               cn=0,n=3
         3 001654   201733 000010                    ADSC9   CHAN_BUF,A,AUTO          cn=0,n=*X0

     5098     2350    5                       BUF_CNT = BUF_CNT + LEN;

   2350  3 001655   201731 236100                    LDQ     BUF_CNT,,AUTO
         3 001656   201732 036100                    ADLQ    LEN,,AUTO
         3 001657   201731 756100                    STQ     BUF_CNT,,AUTO

     5099     2351    5                    END;                   /* IF RANGE_FLAG                      */

     5100     2352    4                 CALL INSERT(CHAN_BUF,BUF_CNT,1,',');

   2352  3 001660   201731 235100                    LDA     BUF_CNT,,AUTO
         3 001661   040105 100400                    MLR     fill='040'O
         3 001662   000026 000001 4                  ADSC9   22                       cn=0,n=1
         3 001663   201733 000001                    ADSC9   CHAN_BUF,A,AUTO          cn=0,n=1

     5101     2353    4                 BUF_CNT = BUF_CNT + 1;

   2353  3 001664   201731 235100                    LDA     BUF_CNT,,AUTO
         3 001665   000001 035007                    ADLA    1,DL
         3 001666   201731 755100                    STA     BUF_CNT,,AUTO

     5102     2354    4                 CALL MY_BINCHAR(CHANS(J),CHAN,LEN);

   2354  3 001667   201732 630500                    EPPR0   LEN,,AUTO
PL6.E3A0      #005=THF$CONFIG File=THF$FORMAT.:E05TSI                            WED 07/30/97 06:16 Page:973
         3 001670   201755 450500                    STP0    @CHANS,,AUTO
         3 001671   201745 631500                    EPPR1   CHAN,,AUTO
         3 001672   201754 451500                    STP1    @NUM,,AUTO
         3 001673   201747 720100                    LXL0    J,,AUTO
         3 001674   201542 633510                    EPPR3   CHANS,X0,AUTO
         3 001675   201753 453500                    STP3    @DEVNAME,,AUTO
         3 001676   002621 701000 3                  TSX1    MY_BINCHAR
         3 001677   000000 011000                    NOP     0

     5103     2355    4                 CALL INSERT(CHAN_BUF,BUF_CNT,LEN,CHAN);

   2355  3 001700   201732 720100                    LXL0    LEN,,AUTO
         3 001701   201731 235100                    LDA     BUF_CNT,,AUTO
         3 001702   040145 100500                    MLR     fill='040'O
         3 001703   201745 000003                    ADSC9   CHAN,,AUTO               cn=0,n=3
         3 001704   201733 000010                    ADSC9   CHAN_BUF,A,AUTO          cn=0,n=*X0

     5104     2356    4                 BUF_CNT = BUF_CNT + LEN;

   2356  3 001705   201731 236100                    LDQ     BUF_CNT,,AUTO
         3 001706   201732 036100                    ADLQ    LEN,,AUTO
         3 001707   201731 756100                    STQ     BUF_CNT,,AUTO

     5105     2357    4              END;                         /* IF CHANS(J) -1 = LAST_CHAN         */

     5106     2358    3           LAST_CHAN = CHANS(J);

   2358  3 001710   201747 720100                    LXL0    J,,AUTO
         3 001711   201542 235110                    LDA     CHANS,X0,AUTO
         3 001712   201746 755100                    STA     LAST_CHAN,,AUTO

     5107     2359    3        END;                               /* DO J                               */

   2359  3 001713   201747 236100                    LDQ     J,,AUTO
         3 001714   000001 036007                    ADLQ    1,DL
         3 001715   201747 756100                    STQ     J,,AUTO
         3 001716   201747 236100                    LDQ     J,,AUTO
PL6.E3A0      #005=THF$CONFIG File=THF$FORMAT.:E05TSI                            WED 07/30/97 06:16 Page:974
         3 001717   201541 116100                    CMPQ    NUM_CHANS,,AUTO
         3 001720   001616 602000 3                  TNC     s:2338

     5108     2360    2        IF RANGE_FLAG

   2360  3 001721   201730 234100                    SZN     RANGE_FLAG,,AUTO
         3 001722   001752 605000 3                  TPL     s:2369

     5109     2361    2           THEN
     5110     2362    3           DO;

     5111     2363    3              CALL INSERT(CHAN_BUF,BUF_CNT,1,'-');

   2363  3 001723   201731 235100                    LDA     BUF_CNT,,AUTO
         3 001724   040105 100400                    MLR     fill='040'O
         3 001725   000025 000001 4                  ADSC9   21                       cn=0,n=1
         3 001726   201733 000001                    ADSC9   CHAN_BUF,A,AUTO          cn=0,n=1

     5112     2364    3              BUF_CNT = BUF_CNT + 1;

   2364  3 001727   201731 235100                    LDA     BUF_CNT,,AUTO
         3 001730   000001 035007                    ADLA    1,DL
         3 001731   201731 755100                    STA     BUF_CNT,,AUTO

     5113     2365    3              CALL MY_BINCHAR(LAST_CHAN,CHAN,LEN);

   2365  3 001732   201732 630500                    EPPR0   LEN,,AUTO
         3 001733   201755 450500                    STP0    @CHANS,,AUTO
         3 001734   201745 631500                    EPPR1   CHAN,,AUTO
         3 001735   201754 451500                    STP1    @NUM,,AUTO
         3 001736   201746 633500                    EPPR3   LAST_CHAN,,AUTO
         3 001737   201753 453500                    STP3    @DEVNAME,,AUTO
         3 001740   002621 701000 3                  TSX1    MY_BINCHAR
         3 001741   000000 011000                    NOP     0

     5114     2366    3              CALL INSERT(CHAN_BUF,BUF_CNT,LEN,CHAN);

PL6.E3A0      #005=THF$CONFIG File=THF$FORMAT.:E05TSI                            WED 07/30/97 06:16 Page:975
   2366  3 001742   201732 720100                    LXL0    LEN,,AUTO
         3 001743   201731 235100                    LDA     BUF_CNT,,AUTO
         3 001744   040145 100500                    MLR     fill='040'O
         3 001745   201745 000003                    ADSC9   CHAN,,AUTO               cn=0,n=3
         3 001746   201733 000010                    ADSC9   CHAN_BUF,A,AUTO          cn=0,n=*X0

     5115     2367    3              BUF_CNT = BUF_CNT + LEN;

   2367  3 001747   201731 236100                    LDQ     BUF_CNT,,AUTO
         3 001750   201732 036100                    ADLQ    LEN,,AUTO
         3 001751   201731 756100                    STQ     BUF_CNT,,AUTO

     5116     2368    3           END;

     5117     2369    2        CALL THF$ADD_TEXTC(TEXT$,CHAN_BUF,BUF_CNT);

   2369  3 001752   201731 630500                    EPPR0   BUF_CNT,,AUTO
         3 001753   201764 450500                    STP0    CHAR3+4,,AUTO
         3 001754   201733 631500                    EPPR1   CHAN_BUF,,AUTO
         3 001755   201763 451500                    STP1    CHAR3+3,,AUTO
         3 001756   201656 633500                    EPPR3   TEXT$,,AUTO
         3 001757   201762 453500                    STP3    CHAR3+2,,AUTO
         3 001760   201762 630500                    EPPR0   CHAR3+2,,AUTO
         3 001761   000021 631400 xsym               EPPR1   B_VECTNIL+17
         3 001762   000000 701000 xent               TSX1    THF$ADD_TEXTC
         3 001763   000000 011000                    NOP     0

     5118     2370    2        TVEC = VECTOR(TEXTBUF);

   2370  3 001764   000027 235000 4                  LDA     23
         3 001765   201762 452500                    STP2    CHAR3+2,,AUTO
         3 001766   201762 236100                    LDQ     CHAR3+2,,AUTO
         3 001767   001556 036003                    ADLQ    878,DU
         3 001770   201554 757100                    STAQ    TVEC,,AUTO

     5119     2371    2        TVEC.BOUND = POFFC(TEXT$,ADDR(TEXTBUF)) - 1;

PL6.E3A0      #005=THF$CONFIG File=THF$FORMAT.:E05TSI                            WED 07/30/97 06:16 Page:976
   2371  3 001771   201762 452500                    STP2    CHAR3+2,,AUTO
         3 001772   201762 236100                    LDQ     CHAR3+2,,AUTO
         3 001773   001556 036003                    ADLQ    878,DU
         3 001774   000020 772000                    QRL     16
         3 001775   201763 756100                    STQ     CHAR3+3,,AUTO
         3 001776   201656 236100                    LDQ     TEXT$,,AUTO
         3 001777   000020 772000                    QRL     16
         3 002000   201763 136100                    SBLQ    CHAR3+3,,AUTO
         3 002001   000001 136007                    SBLQ    1,DL
         3 002002   000020 736000                    QLS     16
         3 002003   201554 676100                    ERQ     TVEC,,AUTO
         3 002004   000034 376000 xsym               ANQ     B_VECTNIL+28
         3 002005   201554 656100                    ERSQ    TVEC,,AUTO

     5120     2372    2        IF SUBSTR(MPC_NAME,0,2) = 'OP'  THEN

   2372  3 002006   201725 470500                    LDP0    @MPC_NAME,,AUTO
         3 002007   040000 106500                    CMPC    fill='040'O
         3 002010   000000 000002                    ADSC9   0,,PR0                   cn=0,n=2
         3 002011   001117 000002 1                  ADSC9   XBAR_FMT+15              cn=0,n=2
         3 002012   002044 601000 3                  TNZ     s:2375

     5121     2373    2           CALL THW$WRITE(CONFIG_OPC,VECTOR(TMP_NAME),VECTOR(CHANS));

   2373  3 002013   000011 235000 4                  LDA     9
         3 002014   201762 452500                    STP2    CHAR3+2,,AUTO
         3 002015   201762 236100                    LDQ     CHAR3+2,,AUTO
         3 002016   001726 036003                    ADLQ    982,DU
         3 002017   201764 757100                    STAQ    CHAR3+4,,AUTO
         3 002020   000012 235000 4                  LDA     10
         3 002021   201766 452500                    STP2    CHAR3+6,,AUTO
         3 002022   201766 236100                    LDQ     CHAR3+6,,AUTO
         3 002023   001542 036003                    ADLQ    866,DU
         3 002024   201772 757100                    STAQ    CHAR3+10,,AUTO
         3 002025   201764 237100                    LDAQ    CHAR3+4,,AUTO
         3 002026   201770 757100                    STAQ    CHAR3+8,,AUTO
         3 002027   201772 237100                    LDAQ    CHAR3+10,,AUTO
PL6.E3A0      #005=THF$CONFIG File=THF$FORMAT.:E05TSI                            WED 07/30/97 06:16 Page:977
         3 002030   201774 757100                    STAQ    CHAR3+12,,AUTO
         3 002031   201774 631500                    EPPR1   CHAR3+12,,AUTO
         3 002032   202000 451500                    STP1    CHAR3+16,,AUTO
         3 002033   201770 633500                    EPPR3   CHAR3+8,,AUTO
         3 002034   201777 453500                    STP3    CHAR3+15,,AUTO
         3 002035   000030 236000 4                  LDQ     24
         3 002036   201776 756100                    STQ     CHAR3+14,,AUTO
         3 002037   201776 630500                    EPPR0   CHAR3+14,,AUTO
         3 002040   000021 631400 xsym               EPPR1   B_VECTNIL+17
         3 002041   000000 701000 xent               TSX1    THW$WRITE
         3 002042   000000 011000                    NOP     0
         3 002043   002061 710000 3                  TRA     s:2376

     5122     2374    2        ELSE
     5123     2375    2           CALL THW$WRITE(CONFIG_MPC,VECTOR(MPC_NAME),TVEC);

   2375  3 002044   000011 235000 4                  LDA     9
         3 002045   201725 236100                    LDQ     @MPC_NAME,,AUTO
         3 002046   201762 757100                    STAQ    CHAR3+2,,AUTO
         3 002047   201554 631500                    EPPR1   TVEC,,AUTO
         3 002050   201766 451500                    STP1    CHAR3+6,,AUTO
         3 002051   201762 633500                    EPPR3   CHAR3+2,,AUTO
         3 002052   201765 453500                    STP3    CHAR3+5,,AUTO
         3 002053   000031 236000 4                  LDQ     25
         3 002054   201764 756100                    STQ     CHAR3+4,,AUTO
         3 002055   201764 630500                    EPPR0   CHAR3+4,,AUTO
         3 002056   000021 631400 xsym               EPPR1   B_VECTNIL+17
         3 002057   000000 701000 xent               TSX1    THW$WRITE
         3 002060   000000 011000                    NOP     0

     5124     2376    2        RETURN;

   2376  3 002061   201724 221300                    LDX1  ! XBAR_INDX+2,,AUTO
         3 002062   000001 702211                    TSX2  ! 1,X1

     5125     2377    2   END MPC_HDR;
     5126     2378        %EJECT;
PL6.E3A0      #005=THF$CONFIG File=THF$FORMAT.:E05TSI                            WED 07/30/97 06:16 Page:978
     5127     2379    1   MPC_DEVICES: PROC(MPC_NAME,MPC_TYPE,ST,SP,DEV_FLG);

   2379  3 002063   201724 741300       MPC_DEVICES  STX1  ! XBAR_INDX+2,,AUTO

     5128     2380        /**/
     5129     2381        /* PARAMS */
     5130     2382    2   DCL MPC_NAME CHAR(8);
     5131     2383    2   DCL MPC_TYPE UBIN WORD;
     5132     2384    2   DCL ST SBIN;
     5133     2385    2   DCL SP SBIN;
     5134     2386    2   DCL DEV_FLG BIT(1) ALIGNED;
     5135     2387        /**/
     5136     2388        /* LOCAL VARS */
     5137     2389    2   DCL ATTR_BUF CHAR(256) STATIC INIT(' ');
     5138     2390    2   DCL TEXT CHAR(32) STATIC INIT(' ');
     5139     2391    2   DCL I UBIN WORD;
     5140     2392    2   DCL J UBIN WORD;
     5141     2393    2   DCL K UBIN WORD;
     5142     2394    2   DCL STRT UBIN WORD;
     5143     2395    2   DCL LEN UBIN WORD;
     5144     2396    2   DCL OUTPUT_ATTRS UBIN WORD;
     5145     2397    2   DCL START SBIN;
     5146     2398    2   DCL STOP SBIN;
     5147     2399    2   DCL TH_AP_ATTR_FLG BIT(1) STATIC SYMDEF INIT('0'B);
     5148     2400        /**/
     5149     2401        %EJECT;
PL6.E3A0      #005=THF$CONFIG File=THF$FORMAT.:E05TSI                            WED 07/30/97 06:16 Page:979
     5150     2402    2        IF DEV_FLG

   2402  3 002064   201731 470500                    LDP0    @DEV_FLG,,AUTO
         3 002065   000000 234100                    SZN     0,,PR0
         3 002066   002076 605000 3                  TPL     s:2408

     5151     2403    3           THEN DO;

     5152     2404    3              START = ST;

   2404  3 002067   201727 471500                    LDP1    @ST,,AUTO
         3 002070   100000 235100                    LDA     0,,PR1
         3 002071   201740 755100                    STA     START,,AUTO

     5153     2405    3              STOP = SP;

   2405  3 002072   201730 473500                    LDP3    @SP,,AUTO
         3 002073   300000 235100                    LDA     0,,PR3
         3 002074   201741 755100                    STA     STOP,,AUTO

     5154     2406    3           END;

   2406  3 002075   002103 710000 3                  TRA     s:2411

     5155     2407    3           ELSE DO;

     5156     2408    3              START = 0;

   2408  3 002076   201740 450100                    STZ     START,,AUTO

     5157     2409    3              STOP = MPCREC.NUMDEVS - 1;

   2409  3 002077   201271 235100                    LDA     MPCREC+10,,AUTO
         3 002100   000022 771000                    ARL     18
         3 002101   000001 135007                    SBLA    1,DL
         3 002102   201741 755100                    STA     STOP,,AUTO

PL6.E3A0      #005=THF$CONFIG File=THF$FORMAT.:E05TSI                            WED 07/30/97 06:16 Page:980
     5158     2410    3           END;

     5159     2411    3        DO J = START TO STOP;

   2411  3 002103   201740 236100                    LDQ     START,,AUTO
         3 002104   201733 756100                    STQ     J,,AUTO
         3 002105   002524 710000 3                  TRA     NO_DEVICE+3

     5160     2412    3           TEXT$ = ADDR(TEXTBUF);

   2412  3 002106   201556 630500                    EPPR0   TEXTBUF,,AUTO
         3 002107   201656 450500                    STP0    TEXT$,,AUTO

     5161     2413    3           IF DEV_FLG

   2413  3 002110   201731 471500                    LDP1    @DEV_FLG,,AUTO
         3 002111   100000 234100                    SZN     0,,PR1
         3 002112   002125 605000 3                  TPL     s:2417

     5162     2414    3              THEN
     5163     2415    3                 CALL THG$GETREC(%CONFIG,TH_REP_DEVS(J))  ALTRET(NO_DEVICE);

   2415  3 002113   201733 236100                    LDQ     J,,AUTO
         3 002114   000023 736000                    QLS     19
         3 002115   000032 036000 4                  ADLQ    26
         3 002116   000000 235000 4                  LDA     0
         3 002117   201762 757100                    STAQ    CHAR3+2,,AUTO
         3 002120   201762 630500                    EPPR0   CHAR3+2,,AUTO
         3 002121   000020 631400 xsym               EPPR1   B_VECTNIL+16
         3 002122   000000 701000 xent               TSX1    THG$GETREC
         3 002123   002521 702000 3                  TSX2    NO_DEVICE
         3 002124   002137 710000 3                  TRA     s:2418

     5164     2416    3              ELSE
     5165     2417    3                 CALL THG$GETREC(%CONFIG,MPCREC.DEVNAME(J));

   2417  3 002125   201733 235100                    LDA     J,,AUTO
PL6.E3A0      #005=THF$CONFIG File=THF$FORMAT.:E05TSI                            WED 07/30/97 06:16 Page:981
         3 002126   000001 735000                    ALS     1
         3 002127   201276 633505                    EPPR3   MPCREC+15,AL,AUTO
         3 002130   201763 453500                    STP3    CHAR3+3,,AUTO
         3 002131   000000 236000 4                  LDQ     0
         3 002132   201762 756100                    STQ     CHAR3+2,,AUTO
         3 002133   201762 630500                    EPPR0   CHAR3+2,,AUTO
         3 002134   000020 631400 xsym               EPPR1   B_VECTNIL+16
         3 002135   000000 701000 xent               TSX1    THG$GETREC
         3 002136   000000 011000                    NOP     0

     5166     2418    3           DEVREC = TH_RECORD.PTR$->TD$DEV;

   2418  3 002137   000001 470400 xsym               LDP0    TH_RECORD+1
         3 002140   000100 100500                    MLR     fill='000'O
         3 002141   000000 000054                    ADSC9   0,,PR0                   cn=0,n=44
         3 002142   201521 000054                    ADSC9   DEVREC,,AUTO             cn=0,n=44

     5167     2419
     5168     2420                                                /* STUFF ATTR INFO INTO TEXTBUF       */
     5169     2421    3           STRT = 0;

   2421  3 002143   201735 450100                    STZ     STRT,,AUTO

     5170     2422    3           OUTPUT_ATTRS = 0;

   2422  3 002144   201737 450100                    STZ     OUTPUT_ATTRS,,AUTO

     5171     2423    3           IF(SUBSTR(MPCREC.DEVNAME(J),0,2)='AC')

   2423  3 002145   201733 235100                    LDA     J,,AUTO
         3 002146   000001 735000                    ALS     1
         3 002147   201276 220105                    LDX0    MPCREC+15,AL,AUTO
         3 002150   001116 100000 1                  CMPX0   XBAR_FMT+14
         3 002151   002162 601000 3                  TNZ     s:2427

     5172     2424    4           THEN DO; CALL THW$WRITE(VECTOR(BLANK_LINE));

PL6.E3A0      #005=THF$CONFIG File=THF$FORMAT.:E05TSI                            WED 07/30/97 06:16 Page:982
   2424  3 002152   000010 630400 4                  EPPR0   8
         3 002153   000017 631400 xsym               EPPR1   B_VECTNIL+15
         3 002154   000000 701000 xent               TSX1    THW$WRITE
         3 002155   000000 011000                    NOP     0

     5173     2425    4             CALL THW$WRITE(CONFIG_APC);

   2425  3 002156   000033 630400 4                  EPPR0   27
         3 002157   000017 631400 xsym               EPPR1   B_VECTNIL+15
         3 002160   000000 701000 xent               TSX1    THW$WRITE
         3 002161   000000 011000                    NOP     0

     5174     2426    4           END; /* if devname = 'AC' */

     5175     2427    4           DO K = 0 TO NUM_ATTRS(MPC_TYPE) - 1;

   2427  3 002162   201734 450100                    STZ     K,,AUTO
         3 002163   002365 710000 3                  TRA     s:2474+3

     5176     2428    4              IF(SUBSTR(MPCREC.DEVNAME(J),0,2)='AP')

   2428  3 002164   201733 235100                    LDA     J,,AUTO
         3 002165   000001 735000                    ALS     1
         3 002166   201276 220105                    LDX0    MPCREC+15,AL,AUTO
         3 002167   001120 100000 1                  CMPX0   XBAR_FMT+16
         3 002170   002310 601000 3                  TNZ     s:2460
         3 002171   000151 234000 2                  SZN     TH_AP_ATTR_FLG
         3 002172   002310 604000 3                  TMI     s:2460

     5177     2429    4              AND(NOT TH_AP_ATTR_FLG)
     5178     2430    5              THEN DO;

     5179     2431    5                 OUTPUT_ATTRS = OUTPUT_ATTRS + 1;

   2431  3 002173   201737 236100                    LDQ     OUTPUT_ATTRS,,AUTO
         3 002174   000001 036007                    ADLQ    1,DL
         3 002175   201737 756100                    STQ     OUTPUT_ATTRS,,AUTO
PL6.E3A0      #005=THF$CONFIG File=THF$FORMAT.:E05TSI                            WED 07/30/97 06:16 Page:983

     5180     2432    6                 IF(AP_ATTR_TBL$->ATTR$TBL.ATTR(0) & DEVREC.ATTR) THEN DO;

   2432  3 002176   201532 721100                    LXL1    DEVREC+9,,AUTO
         3 002177   000040 470400 2                  LDP0    AP_ATTR_TBL$
         3 002200   000000 361100                    ANX1    0,,PR0
         3 002201   002212 600000 3                  TZE     s:2437

     5181     2433    6                    TEXT = AP_ATTR_TBL$->ATTR$TBL.TEXT(0);

   2433  3 002202   040000 100500                    MLR     fill='040'O
         3 002203   000000 600040                    ADSC9   0,,PR0                   cn=3,n=32
         3 002204   000141 000040 2                  ADSC9   TEXT                     cn=0,n=32

     5182     2434    6                    LEN = AP_ATTR_TBL$->ATTR$TBL.LEN(0);

   2434  3 002205   000000 236100                    LDQ     0,,PR0
         3 002206   000011 772000                    QRL     9
         3 002207   000777 376007                    ANQ     511,DL
         3 002210   201736 756100                    STQ     LEN,,AUTO

     5183     2435    6                 END;

   2435  3 002211   002221 710000 3                  TRA     s:2440

     5184     2436    6                 ELSE DO; /* ELSE ATTR$TBL.ATTR(0) ~& DEVREC.ATTR */

     5185     2437    6                    TEXT = AP_ATTR_TBL$->ATTR$TBL.TEXT(1);

   2437  3 002212   040000 100500                    MLR     fill='040'O
         3 002213   000011 600040                    ADSC9   9,,PR0                   cn=3,n=32
         3 002214   000141 000040 2                  ADSC9   TEXT                     cn=0,n=32

     5186     2438    6                    LEN = AP_ATTR_TBL$->ATTR$TBL.LEN(1);

   2438  3 002215   000011 236100                    LDQ     9,,PR0
         3 002216   000011 772000                    QRL     9
PL6.E3A0      #005=THF$CONFIG File=THF$FORMAT.:E05TSI                            WED 07/30/97 06:16 Page:984
         3 002217   000777 376007                    ANQ     511,DL
         3 002220   201736 756100                    STQ     LEN,,AUTO

     5187     2439    6                 END;

     5188     2440    5                 CALL INSERT(ATTR_BUF,STRT,LEN,TEXT);

   2440  3 002221   000000 621006                    EAX1    0,QL
         3 002222   201735 236100                    LDQ     STRT,,AUTO
         3 002223   040046 100400                    MLR     fill='040'O
         3 002224   000141 000040 2                  ADSC9   TEXT                     cn=0,n=32
         3 002225   000041 000011 2                  ADSC9   ATTR_BUF,Q               cn=0,n=*X1

     5189     2441    5                 STRT = STRT + LEN;

   2441  3 002226   201736 036100                    ADLQ    LEN,,AUTO
         3 002227   201735 756100                    STQ     STRT,,AUTO

     5190     2442    5                 I = 2;

   2442  3 002230   000002 235007                    LDA     2,DL
         3 002231   201732 755100                    STA     I,,AUTO

     5191     2443    6                 DO WHILE (I <= 9)AND(NOT TH_AP_ATTR_FLG);

   2443  3 002232   002304 710000 3                  TRA     s:2458

     5192     2444    6                    IF(AP_ATTR_TBL$->ATTR$TBL.ATTR(I) & DEVREC.ATTR)

   2444  3 002233   201532 720100                    LXL0    DEVREC+9,,AUTO
         3 002234   201732 236100                    LDQ     I,,AUTO
         3 002235   000011 402007                    MPY     9,DL
         3 002236   000040 470400 2                  LDP0    AP_ATTR_TBL$
         3 002237   000000 360106                    ANX0    0,QL,PR0
         3 002240   002301 600000 3                  TZE     s:2457

     5193     2445    7                    THEN DO;
PL6.E3A0      #005=THF$CONFIG File=THF$FORMAT.:E05TSI                            WED 07/30/97 06:16 Page:985

     5194     2446    7                      TH_AP_ATTR_FLG = %TRUE;

   2446  3 002241   400000 236003                    LDQ     -131072,DU
         3 002242   000151 756000 2                  STQ     TH_AP_ATTR_FLG

     5195     2447    7                      OUTPUT_ATTRS = OUTPUT_ATTRS + 1;

   2447  3 002243   201737 235100                    LDA     OUTPUT_ATTRS,,AUTO
         3 002244   000001 035007                    ADLA    1,DL
         3 002245   201737 755100                    STA     OUTPUT_ATTRS,,AUTO

     5196     2448    8                      IF OUTPUT_ATTRS > 1 THEN DO;

   2448  3 002246   000002 115007                    CMPA    2,DL
         3 002247   002256 602000 3                  TNC     s:2452

     5197     2449    8                         CALL INSERT(ATTR_BUF,STRT,2,', ');

   2449  3 002250   201735 235100                    LDA     STRT,,AUTO
         3 002251   040005 100400                    MLR     fill='040'O
         3 002252   001133 000002 1                  ADSC9   XBAR_FMT+27              cn=0,n=2
         3 002253   000041 000002 2                  ADSC9   ATTR_BUF,A               cn=0,n=2

     5198     2450    8                         STRT = STRT + 2;

   2450  3 002254   000002 035007                    ADLA    2,DL
         3 002255   201735 755100                    STA     STRT,,AUTO

     5199     2451    8                      END;

     5200     2452    7                      TEXT = AP_ATTR_TBL$->ATTR$TBL.TEXT(I);

   2452  3 002256   201732 236100                    LDQ     I,,AUTO
         3 002257   000044 402007                    MPY     36,DL
         3 002260   040000 100506                    MLR     fill='040'O
         3 002261   000000 600040                    ADSC9   0,Q,PR0                  cn=3,n=32
PL6.E3A0      #005=THF$CONFIG File=THF$FORMAT.:E05TSI                            WED 07/30/97 06:16 Page:986
         3 002262   000141 000040 2                  ADSC9   TEXT                     cn=0,n=32

     5201     2453    7                      LEN = AP_ATTR_TBL$->ATTR$TBL.LEN(I);

   2453  3 002263   201732 236100                    LDQ     I,,AUTO
         3 002264   000011 402007                    MPY     9,DL
         3 002265   000000 236106                    LDQ     0,QL,PR0
         3 002266   000011 772000                    QRL     9
         3 002267   000777 376007                    ANQ     511,DL
         3 002270   201736 756100                    STQ     LEN,,AUTO

     5202     2454    7                      CALL INSERT(ATTR_BUF,STRT,LEN,TEXT);

   2454  3 002271   000000 620006                    EAX0    0,QL
         3 002272   201735 235100                    LDA     STRT,,AUTO
         3 002273   040045 100400                    MLR     fill='040'O
         3 002274   000141 000040 2                  ADSC9   TEXT                     cn=0,n=32
         3 002275   000041 000010 2                  ADSC9   ATTR_BUF,A               cn=0,n=*X0

     5203     2455    7                      STRT = STRT + LEN;

   2455  3 002276   201735 236100                    LDQ     STRT,,AUTO
         3 002277   201736 036100                    ADLQ    LEN,,AUTO
         3 002300   201735 756100                    STQ     STRT,,AUTO

     5204     2456    7                    END;  /* IF ATTR$TBL.ATTR(I) & DEVREC.ATTR */

     5205     2457    6                 I = I + 1;

   2457  3 002301   201732 235100                    LDA     I,,AUTO
         3 002302   000001 035007                    ADLA    1,DL
         3 002303   201732 755100                    STA     I,,AUTO

     5206     2458    6                 END; /* do while I <= 9 and not th_ap_attr_flg */

   2458  3 002304   000012 115007                    CMPA    10,DL
         3 002305   002310 603000 3                  TRC     s:2460
PL6.E3A0      #005=THF$CONFIG File=THF$FORMAT.:E05TSI                            WED 07/30/97 06:16 Page:987
         3 002306   000151 234000 2                  SZN     TH_AP_ATTR_FLG
         3 002307   002233 605000 3                  TPL     s:2444

     5207     2459    5              END;    /* IF 'AP' AND NOT TH_AP_ATTR_FLG */

     5208     2460    4                 IF(ATTR$TBL$(MPC_TYPE)->ATTR$TBL.ATTR(K) & DEVREC.ATTR)

   2460  3 002310   201726 470500                    LDP0    @MPC_TYPE,,AUTO
         3 002311   000000 720100                    LXL0    0,,PR0
         3 002312   000032 471410 2                  LDP1    ATTR$TBL$,X0
         3 002313   201532 721100                    LXL1    DEVREC+9,,AUTO
         3 002314   201734 236100                    LDQ     K,,AUTO
         3 002315   000011 402007                    MPY     9,DL
         3 002316   100000 361106                    ANX1    0,QL,PR1
         3 002317   002362 600000 3                  TZE     s:2474
         3 002320   000151 234000 2                  SZN     TH_AP_ATTR_FLG
         3 002321   002362 604000 3                  TMI     s:2474

     5209     2461    5                 AND(NOT TH_AP_ATTR_FLG)THEN DO;

     5210     2462    5                    OUTPUT_ATTRS = OUTPUT_ATTRS + 1;

   2462  3 002322   201737 235100                    LDA     OUTPUT_ATTRS,,AUTO
         3 002323   000001 035007                    ADLA    1,DL
         3 002324   201737 755100                    STA     OUTPUT_ATTRS,,AUTO

     5211     2463    5                    IF OUTPUT_ATTRS > 1

   2463  3 002325   000002 115007                    CMPA    2,DL
         3 002326   002335 602000 3                  TNC     s:2469

     5212     2464    5                       THEN                /* STUFF A COMMA                      */
     5213     2465    6                       DO;

     5214     2466    6                          CALL INSERT(ATTR_BUF,STRT,2,', ');

   2466  3 002327   201735 235100                    LDA     STRT,,AUTO
PL6.E3A0      #005=THF$CONFIG File=THF$FORMAT.:E05TSI                            WED 07/30/97 06:16 Page:988
         3 002330   040005 100400                    MLR     fill='040'O
         3 002331   001133 000002 1                  ADSC9   XBAR_FMT+27              cn=0,n=2
         3 002332   000041 000002 2                  ADSC9   ATTR_BUF,A               cn=0,n=2

     5215     2467    6                          STRT = STRT + 2;

   2467  3 002333   000002 035007                    ADLA    2,DL
         3 002334   201735 755100                    STA     STRT,,AUTO

     5216     2468    6                       END;                /* IF OUTPUT_ATTRS > 1                */

     5217     2469    5                    TEXT = ATTR$TBL$(MPC_TYPE)->ATTR$TBL.TEXT(K);

   2469  3 002335   000000 720100                    LXL0    0,,PR0
         3 002336   000032 471410 2                  LDP1    ATTR$TBL$,X0
         3 002337   201734 236100                    LDQ     K,,AUTO
         3 002340   000044 402007                    MPY     36,DL
         3 002341   040000 100506                    MLR     fill='040'O
         3 002342   100000 600040                    ADSC9   0,Q,PR1                  cn=3,n=32
         3 002343   000141 000040 2                  ADSC9   TEXT                     cn=0,n=32

     5218     2470    5                    LEN = ATTR$TBL$(MPC_TYPE)->ATTR$TBL.LEN(K);

   2470  3 002344   201734 236100                    LDQ     K,,AUTO
         3 002345   000011 402007                    MPY     9,DL
         3 002346   100000 236106                    LDQ     0,QL,PR1
         3 002347   000011 772000                    QRL     9
         3 002350   000777 376007                    ANQ     511,DL
         3 002351   201736 756100                    STQ     LEN,,AUTO

     5219     2471    5                    CALL INSERT(ATTR_BUF,STRT,LEN,TEXT);

   2471  3 002352   000000 621006                    EAX1    0,QL
         3 002353   201735 235100                    LDA     STRT,,AUTO
         3 002354   040045 100400                    MLR     fill='040'O
         3 002355   000141 000040 2                  ADSC9   TEXT                     cn=0,n=32
         3 002356   000041 000011 2                  ADSC9   ATTR_BUF,A               cn=0,n=*X1
PL6.E3A0      #005=THF$CONFIG File=THF$FORMAT.:E05TSI                            WED 07/30/97 06:16 Page:989

     5220     2472    5                    STRT = STRT + LEN;

   2472  3 002357   201735 236100                    LDQ     STRT,,AUTO
         3 002360   201736 036100                    ADLQ    LEN,,AUTO
         3 002361   201735 756100                    STQ     STRT,,AUTO

     5221     2473    5                 END;                      /* IF                                 */

     5222     2474    4           END;                            /* DO K                               */

   2474  3 002362   201734 235100                    LDA     K,,AUTO
         3 002363   000001 035007                    ADLA    1,DL
         3 002364   201734 755100                    STA     K,,AUTO
         3 002365   201726 470500                    LDP0    @MPC_TYPE,,AUTO
         3 002366   000000 720100                    LXL0    0,,PR0
         3 002367   201734 236100                    LDQ     K,,AUTO
         3 002370   001072 116010 1                  CMPQ    NUM_ATTRS,X0
         3 002371   002164 602000 3                  TNC     s:2428

     5223     2475    3           TH_AP_ATTR_FLG = %FALSE;  /* reset flag */

   2475  3 002372   000151 450000 2                  STZ     TH_AP_ATTR_FLG

     5224     2476    3           CALL THF$ADD_TEXTC(TEXT$,ATTR_BUF,STRT);

   2476  3 002373   201735 631500                    EPPR1   STRT,,AUTO
         3 002374   201764 451500                    STP1    CHAR3+4,,AUTO
         3 002375   000034 236000 4                  LDQ     28
         3 002376   201763 756100                    STQ     CHAR3+3,,AUTO
         3 002377   201656 633500                    EPPR3   TEXT$,,AUTO
         3 002400   201762 453500                    STP3    CHAR3+2,,AUTO
         3 002401   201762 630500                    EPPR0   CHAR3+2,,AUTO
         3 002402   000021 631400 xsym               EPPR1   B_VECTNIL+17
         3 002403   000000 701000 xent               TSX1    THF$ADD_TEXTC
         3 002404   000000 011000                    NOP     0

PL6.E3A0      #005=THF$CONFIG File=THF$FORMAT.:E05TSI                            WED 07/30/97 06:16 Page:990
     5225     2477    3           TVEC = VECTOR(TEXTBUF);

   2477  3 002405   000027 235000 4                  LDA     23
         3 002406   201762 452500                    STP2    CHAR3+2,,AUTO
         3 002407   201762 236100                    LDQ     CHAR3+2,,AUTO
         3 002410   001556 036003                    ADLQ    878,DU
         3 002411   201554 757100                    STAQ    TVEC,,AUTO

     5226     2478    3           TVEC.BOUND = POFFC(TEXT$,ADDR(TEXTBUF)) - 1;

   2478  3 002412   201762 452500                    STP2    CHAR3+2,,AUTO
         3 002413   201762 236100                    LDQ     CHAR3+2,,AUTO
         3 002414   001556 036003                    ADLQ    878,DU
         3 002415   000020 772000                    QRL     16
         3 002416   201763 756100                    STQ     CHAR3+3,,AUTO
         3 002417   201656 236100                    LDQ     TEXT$,,AUTO
         3 002420   000020 772000                    QRL     16
         3 002421   201763 136100                    SBLQ    CHAR3+3,,AUTO
         3 002422   000001 136007                    SBLQ    1,DL
         3 002423   000020 736000                    QLS     16
         3 002424   201554 676100                    ERQ     TVEC,,AUTO
         3 002425   000034 376000 xsym               ANQ     B_VECTNIL+28
         3 002426   201554 656100                    ERSQ    TVEC,,AUTO

     5227     2479    3           IF DEV_FLG

   2479  3 002427   201731 470500                    LDP0    @DEV_FLG,,AUTO
         3 002430   000000 234100                    SZN     0,,PR0
         3 002431   002465 605000 3                  TPL     s:2483

     5228     2480    3              THEN
     5229     2481    3           CALL THW$WRITE(CONFIG_DEV,VECTOR(TH_REP_DEVS(J)),VECTOR(DEVREC),TVEC);

   2481  3 002432   000011 235000 4                  LDA     9
         3 002433   201733 236100                    LDQ     J,,AUTO
         3 002434   000023 736000                    QLS     19
         3 002435   000032 036000 4                  ADLQ    26
PL6.E3A0      #005=THF$CONFIG File=THF$FORMAT.:E05TSI                            WED 07/30/97 06:16 Page:991
         3 002436   201762 757100                    STAQ    CHAR3+2,,AUTO
         3 002437   000035 235000 4                  LDA     29
         3 002440   201764 452500                    STP2    CHAR3+4,,AUTO
         3 002441   201764 236100                    LDQ     CHAR3+4,,AUTO
         3 002442   001521 036003                    ADLQ    849,DU
         3 002443   201770 757100                    STAQ    CHAR3+8,,AUTO
         3 002444   201762 237100                    LDAQ    CHAR3+2,,AUTO
         3 002445   201766 757100                    STAQ    CHAR3+6,,AUTO
         3 002446   201770 237100                    LDAQ    CHAR3+8,,AUTO
         3 002447   201772 757100                    STAQ    CHAR3+10,,AUTO
         3 002450   201554 631500                    EPPR1   TVEC,,AUTO
         3 002451   201777 451500                    STP1    CHAR3+15,,AUTO
         3 002452   201772 633500                    EPPR3   CHAR3+10,,AUTO
         3 002453   201776 453500                    STP3    CHAR3+14,,AUTO
         3 002454   201766 634500                    EPPR4   CHAR3+6,,AUTO
         3 002455   201775 454500                    STP4    CHAR3+13,,AUTO
         3 002456   000036 236000 4                  LDQ     30
         3 002457   201774 756100                    STQ     CHAR3+12,,AUTO
         3 002460   201774 630500                    EPPR0   CHAR3+12,,AUTO
         3 002461   000022 631400 xsym               EPPR1   B_VECTNIL+18
         3 002462   000000 701000 xent               TSX1    THW$WRITE
         3 002463   000000 011000                    NOP     0
         3 002464   002521 710000 3                  TRA     NO_DEVICE

     5230     2482    3              ELSE
     5231     2483    3           CALL THW$WRITE(CONFIG_DEV,VECTOR(MPCREC.DEVNAME(J)),VECTOR(DEVREC),TVEC);

   2483  3 002465   000011 235000 4                  LDA     9
         3 002466   201762 452500                    STP2    CHAR3+2,,AUTO
         3 002467   201733 236100                    LDQ     J,,AUTO
         3 002470   000023 736000                    QLS     19
         3 002471   001276 036003                    ADLQ    702,DU
         3 002472   201762 036100                    ADLQ    CHAR3+2,,AUTO
         3 002473   201764 757100                    STAQ    CHAR3+4,,AUTO
         3 002474   000035 235000 4                  LDA     29
         3 002475   201766 452500                    STP2    CHAR3+6,,AUTO
         3 002476   201766 236100                    LDQ     CHAR3+6,,AUTO
PL6.E3A0      #005=THF$CONFIG File=THF$FORMAT.:E05TSI                            WED 07/30/97 06:16 Page:992
         3 002477   001521 036003                    ADLQ    849,DU
         3 002500   201772 757100                    STAQ    CHAR3+10,,AUTO
         3 002501   201764 237100                    LDAQ    CHAR3+4,,AUTO
         3 002502   201770 757100                    STAQ    CHAR3+8,,AUTO
         3 002503   201772 237100                    LDAQ    CHAR3+10,,AUTO
         3 002504   201774 757100                    STAQ    CHAR3+12,,AUTO
         3 002505   201554 631500                    EPPR1   TVEC,,AUTO
         3 002506   202001 451500                    STP1    CHAR3+17,,AUTO
         3 002507   201774 633500                    EPPR3   CHAR3+12,,AUTO
         3 002510   202000 453500                    STP3    CHAR3+16,,AUTO
         3 002511   201770 634500                    EPPR4   CHAR3+8,,AUTO
         3 002512   201777 454500                    STP4    CHAR3+15,,AUTO
         3 002513   000036 236000 4                  LDQ     30
         3 002514   201776 756100                    STQ     CHAR3+14,,AUTO
         3 002515   201776 630500                    EPPR0   CHAR3+14,,AUTO
         3 002516   000022 631400 xsym               EPPR1   B_VECTNIL+18
         3 002517   000000 701000 xent               TSX1    THW$WRITE
         3 002520   000000 011000                    NOP     0

     5232     2484    3   NO_DEVICE:
     5233     2485    3        END;                               /* DO J                               */

   2485  3 002521   201733 235100       NO_DEVICE    LDA     J,,AUTO
         3 002522   000001 035007                    ADLA    1,DL
         3 002523   201733 755100                    STA     J,,AUTO
         3 002524   201733 236100                    LDQ     J,,AUTO
         3 002525   002530 604000 3                  TMI     s:2486
         3 002526   201741 116100                    CMPQ    STOP,,AUTO
         3 002527   002106 604400 3                  TMOZ    s:2412

     5234     2486    2        RETURN;

   2486  3 002530   201724 221300                    LDX1  ! XBAR_INDX+2,,AUTO
         3 002531   000001 702211                    TSX2  ! 1,X1

     5235     2487    2   END MPC_DEVICES;
     5236     2488        %EJECT;
PL6.E3A0      #005=THF$CONFIG File=THF$FORMAT.:E05TSI                            WED 07/30/97 06:16 Page:993
     5237     2489    1   XBAR: PROC(MPC_INDX,LAST,XBAR_INDX) ALTRET;

   2489  3 002532   201724 741300       XBAR         STX1  ! XBAR_INDX+2,,AUTO

     5238     2490        /**/
     5239     2491        /* PARAMS */
     5240     2492    2   DCL MPC_INDX UBIN WORD;
     5241     2493    2   DCL LAST UBIN HALF;
     5242     2494    2   DCL XBAR_INDX UBIN WORD;
     5243     2495        /**/
     5244     2496        /* LOCAL VARS */
     5245     2497    2   DCL J UBIN;
     5246     2498        /**/
     5247     2499    2        CALL THG$GETREC(%CONFIG,TD_HEAD.DEVNAME(MPC_INDX));

   2499  3 002533   201725 470500                    LDP0    @MPC_INDX,,AUTO
         3 002534   000000 720100                    LXL0    0,,PR0
         3 002535   000000 635010                    EAA     0,X0
         3 002536   000021 771000                    ARL     17
         3 002537   200024 631505                    EPPR1   TD_HEAD+16,AL,AUTO
         3 002540   201763 451500                    STP1    CHAR3+3,,AUTO
         3 002541   000000 236000 4                  LDQ     0
         3 002542   201762 756100                    STQ     CHAR3+2,,AUTO
         3 002543   201762 630500                    EPPR0   CHAR3+2,,AUTO
         3 002544   000020 631400 xsym               EPPR1   B_VECTNIL+16
         3 002545   000000 701000 xent               TSX1    THG$GETREC
         3 002546   000000 011000                    NOP     0

     5248     2500    2        MPCREC = TH_RECORD.PTR$->TD$MPC;

   2500  3 002547   000001 470400 xsym               LDP0    TH_RECORD+1
         3 002550   000100 100500                    MLR     fill='000'O
         3 002551   000000 000504                    ADSC9   0,,PR0                   cn=0,n=324
         3 002552   201257 000504                    ADSC9   MPCREC,,AUTO             cn=0,n=324

     5249     2501    3        DO J = MPC_INDX + 1 TO LAST;

PL6.E3A0      #005=THF$CONFIG File=THF$FORMAT.:E05TSI                            WED 07/30/97 06:16 Page:994
   2501  3 002553   201725 471500                    LDP1    @MPC_INDX,,AUTO
         3 002554   100000 235100                    LDA     0,,PR1
         3 002555   000001 035007                    ADLA    1,DL
         3 002556   201730 755100                    STA     J,,AUTO
         3 002557   002612 710000 3                  TRA     s:2510+3

     5250     2502    3           CALL THG$GETREC(%CONFIG,TD_HEAD.DEVNAME(J));

   2502  3 002560   201730 235100                    LDA     J,,AUTO
         3 002561   000001 735000                    ALS     1
         3 002562   200024 630505                    EPPR0   TD_HEAD+16,AL,AUTO
         3 002563   201763 450500                    STP0    CHAR3+3,,AUTO
         3 002564   000000 236000 4                  LDQ     0
         3 002565   201762 756100                    STQ     CHAR3+2,,AUTO
         3 002566   201762 630500                    EPPR0   CHAR3+2,,AUTO
         3 002567   000020 631400 xsym               EPPR1   B_VECTNIL+16
         3 002570   000000 701000 xent               TSX1    THG$GETREC
         3 002571   000000 011000                    NOP     0

     5251     2503    3           MPCREC1 = TH_RECORD.PTR$->TD$MPC;

   2503  3 002572   000001 470400 xsym               LDP0    TH_RECORD+1
         3 002573   000100 100500                    MLR     fill='000'O
         3 002574   000000 000504                    ADSC9   0,,PR0                   cn=0,n=324
         3 002575   201400 000504                    ADSC9   MPCREC1,,AUTO            cn=0,n=324

     5252     2504    3           IF MPCREC.DEVNAME = MPCREC1.DEVNAME

   2504  3 002576   000100 106500                    CMPC    fill='000'O
         3 002577   201276 000410                    ADSC9   MPCREC+15,,AUTO          cn=0,n=264
         3 002600   201417 000410                    ADSC9   MPCREC1+15,,AUTO         cn=0,n=264
         3 002601   002607 601000 3                  TNZ     s:2510

     5253     2505    3              THEN                         /* XBAR WITH THIS ONE                 */
     5254     2506    4              DO;

     5255     2507    4                 XBAR_INDX = J;
PL6.E3A0      #005=THF$CONFIG File=THF$FORMAT.:E05TSI                            WED 07/30/97 06:16 Page:995

   2507  3 002602   201727 471500                    LDP1    @XBAR_INDX,,AUTO
         3 002603   201730 235100                    LDA     J,,AUTO
         3 002604   100000 755100                    STA     0,,PR1

     5256     2508    4                 RETURN;

   2508  3 002605   201724 221300                    LDX1  ! XBAR_INDX+2,,AUTO
         3 002606   000001 702211                    TSX2  ! 1,X1

     5257     2509    4              END;                         /* IF                                 */
     5258     2510    3        END;                               /* DO J                               */

   2510  3 002607   201730 235100                    LDA     J,,AUTO
         3 002610   000001 035007                    ADLA    1,DL
         3 002611   201730 755100                    STA     J,,AUTO
         3 002612   201726 471500                    LDP1    @LAST,,AUTO
         3 002613   100000 236100                    LDQ     0,,PR1
         3 002614   000022 772000                    QRL     18
         3 002615   201730 116100                    CMPQ    J,,AUTO
         3 002616   002560 603000 3                  TRC     s:2502

     5259     2511    2        ALTRETURN;

   2511  3 002617   201724 221300                    LDX1  ! XBAR_INDX+2,,AUTO
         3 002620   000000 702211                    TSX2  ! 0,X1

     5260     2512    2   END XBAR;
     5261     2513        %EJECT;
PL6.E3A0      #005=THF$CONFIG File=THF$FORMAT.:E05TSI                            WED 07/30/97 06:16 Page:996
     5262     2514    1   MY_BINCHAR: PROC(NUM,CHAN,LEN);

   2514  3 002621   201752 741300       MY_BINCHAR   STX1  ! REVBUF+2,,AUTO

     5263     2515        /**/
     5264     2516    2   DCL NUM UBIN WORD;
     5265     2517    2   DCL CHAN CHAR(3);
     5266     2518    2   DCL LEN UBIN;
     5267     2519        /**/
     5268     2520        /* LOCAL VARS */
     5269     2521    2   DCL CHAR1 CHAR(1);
     5270     2522    2   DCL CHAR2 CHAR(2);
     5271     2523    2   DCL CHAR3 CHAR(3);
     5272     2524        /**/
     5273     2525    2        IF NUM < 10

   2525  3 002622   201753 470500                    LDP0    @NUM,,AUTO
         3 002623   000000 235100                    LDA     0,,PR0
         3 002624   000012 115007                    CMPA    10,DL
         3 002625   002643 603000 3                  TRC     s:2532

     5274     2526    2           THEN
     5275     2527    3           DO;

     5276     2528    3              CALL BINCHAR(CHAR1,NUM);

   2528  3 002626   000044 773000                    LRL     36
         3 002627   201762 757100                    STAQ    CHAR3+2,,AUTO
         3 002630   000100 301500                    BTD
         3 002631   201762 000010                    NDSC9   CHAR3+2,,AUTO            cn=0,s=lsgnf,sf=0,n=8
         3 002632   201756 030001                    NDSC9   CHAR1,,AUTO              cn=0,s=nosgn,sf=0,n=1

     5277     2529    3              CHAN = CHAR1;

   2529  3 002633   201754 471500                    LDP1    @CHAN,,AUTO
         3 002634   040100 100500                    MLR     fill='040'O
         3 002635   201756 000001                    ADSC9   CHAR1,,AUTO              cn=0,n=1
PL6.E3A0      #005=THF$CONFIG File=THF$FORMAT.:E05TSI                            WED 07/30/97 06:16 Page:997
         3 002636   100000 000003                    ADSC9   0,,PR1                   cn=0,n=3

     5278     2530    3              LEN = 1;

   2530  3 002637   000001 235007                    LDA     1,DL
         3 002640   201755 473500                    LDP3    @LEN,,AUTO
         3 002641   300000 755100                    STA     0,,PR3

     5279     2531    3           END;

   2531  3 002642   002676 710000 3                  TRA     s:2543

     5280     2532    2           ELSE IF NUM < 100

   2532  3 002643   000144 115007                    CMPA    100,DL
         3 002644   002662 603000 3                  TRC     s:2539

     5281     2533    3           THEN DO;

     5282     2534    3              CALL BINCHAR(CHAR2,NUM);

   2534  3 002645   000044 773000                    LRL     36
         3 002646   201762 757100                    STAQ    CHAR3+2,,AUTO
         3 002647   000100 301500                    BTD
         3 002650   201762 000010                    NDSC9   CHAR3+2,,AUTO            cn=0,s=lsgnf,sf=0,n=8
         3 002651   201757 030002                    NDSC9   CHAR2,,AUTO              cn=0,s=nosgn,sf=0,n=2

     5283     2535    3              CHAN = CHAR2;

   2535  3 002652   201754 471500                    LDP1    @CHAN,,AUTO
         3 002653   040100 100500                    MLR     fill='040'O
         3 002654   201757 000002                    ADSC9   CHAR2,,AUTO              cn=0,n=2
         3 002655   100000 000003                    ADSC9   0,,PR1                   cn=0,n=3

     5284     2536    3              LEN = 2;

   2536  3 002656   000002 235007                    LDA     2,DL
PL6.E3A0      #005=THF$CONFIG File=THF$FORMAT.:E05TSI                            WED 07/30/97 06:16 Page:998
         3 002657   201755 473500                    LDP3    @LEN,,AUTO
         3 002660   300000 755100                    STA     0,,PR3

     5285     2537    3           END;

   2537  3 002661   002676 710000 3                  TRA     s:2543

     5286     2538    3           ELSE DO;

     5287     2539    3              CALL BINCHAR(CHAR3,NUM);

   2539  3 002662   000044 773000                    LRL     36
         3 002663   201762 757100                    STAQ    CHAR3+2,,AUTO
         3 002664   000100 301500                    BTD
         3 002665   201762 000010                    NDSC9   CHAR3+2,,AUTO            cn=0,s=lsgnf,sf=0,n=8
         3 002666   201760 030003                    NDSC9   CHAR3,,AUTO              cn=0,s=nosgn,sf=0,n=3

     5288     2540    3              CHAN = CHAR3;

   2540  3 002667   201754 471500                    LDP1    @CHAN,,AUTO
         3 002670   040100 100500                    MLR     fill='040'O
         3 002671   201760 000003                    ADSC9   CHAR3,,AUTO              cn=0,n=3
         3 002672   100000 000003                    ADSC9   0,,PR1                   cn=0,n=3

     5289     2541    3              LEN = 3;

   2541  3 002673   000003 235007                    LDA     3,DL
         3 002674   201755 473500                    LDP3    @LEN,,AUTO
         3 002675   300000 755100                    STA     0,,PR3

     5290     2542    3           END; /* else do */

     5291     2543    2        RETURN;

   2543  3 002676   201752 221300                    LDX1  ! REVBUF+2,,AUTO
         3 002677   000001 702211                    TSX2  ! 1,X1
     5292     2544    2   END MY_BINCHAR;
PL6.E3A0      #005=THF$CONFIG File=THF$FORMAT.:E05TSI                            WED 07/30/97 06:16 Page:999
     5293     2545    1   END THF$CONFIG;
     5294     2546        %EOD;

PL6.E3A0      #005=THF$CONFIG File=THF$FORMAT.:E05TSI                            WED 07/30/97 06:16 Page:1000
--  Include file information  --

   NI$TABLES.:E05TOU  is referenced.
   IT_SUBS_C.:E05TOU  is referenced.
   TH_DATA_R.:E05TOU  cannot be made into a system file and is referenced.
   B_STRINGS_C.:E05TOU  is referenced.
   TH_SUBS_C.:E05TOU  is referenced.
   TD$STRUCT.:E05TOU  is referenced.
   CP_6_SUBS.:E05TOU  is referenced.
   CP_6.:E05TOU  cannot be made into a system file and is referenced.
   B$JIT_C.:E05TOU  was found in the system file and is never referenced.
   CP_6_C.:E05TOU  was found in the system file and is referenced.
      No diagnostics issued in procedure THF$CONFIG.
PL6.E3A0      #005=THF$CONFIG File=THF$FORMAT.:E05TSI                            WED 07/30/97 06:16 Page:1001

 **** Variables and constants ****

  ****  Section 001 RoData THF$CONFIG

  ****  Scalars and arrays  ****
OctLoc.c.b A Datatyp(siz) R M Lvl/name                 OctLoc.c.b A Datatyp(siz) R M Lvl/name

     3-0-0/c CHAR(45)    r     1 APC_FMT                  564-0-0/w STRC(315)   r     1 AP_TBL(0:10)
     2-0-0/c CHAR(4)     r     1 BLANK_LINE               421-0-0/w STRC(315)   r     1 DC_TBL(0:10)
    53-0-0/c CHAR(70)    r     1 DEV_FMT                   75-0-0/c CHAR(26)    r     1 FEP_FMT
    17-0-0/c CHAR(24)    r     1 IOM_FMT                   25-0-0/c CHAR(53)    r     1 MPC_FMT
  1072-0-0/w UBIN        r     1 NUM_ATTRS(0:5)
   727-0-0/w STRC(315)   r     1 OD_TBL(0:10)              43-0-0/c CHAR(31)    r     1 OPC_FMT
   104-0-0/c CHAR(26)    r     1 SC_FMT                   256-0-0/w STRC(315)   r     1 TC_TBL(0:10)
   113-0-0/w STRC(315)   r     1 UC_TBL(0:10)            1100-0-0/c CHAR(24)    r     1 XBAR_FMT
     0-0-0/c CHAR(8)     r     1 ZERO

  ****  Section 002  Data  THF$CONFIG

  ****  Scalars and arrays  ****
OctLoc.c.b A Datatyp(siz) R M Lvl/name                 OctLoc.c.b A Datatyp(siz) R M Lvl/name

    40-0-0/w PTR         r     1 AP_ATTR_TBL$
    32-0-0/w PTR         r     1 ATTR$TBL$(0:5)
    41-0-0/c CHAR(256)   r     1 ATTR_BUF                  14-0-0/d BIT (72)    r     1 CONFIG_APC
    24-0-0/d BIT (72)    r     1 CONFIG_DEV                26-0-0/d BIT (72)    r     1 CONFIG_FEP
    16-0-0/d BIT (72)    r     1 CONFIG_IOM                20-0-0/d BIT (72)    r     1 CONFIG_MPC
    22-0-0/d BIT (72)    r     1 CONFIG_OPC                30-0-0/d BIT (72)    r     1 CONFIG_SC
     0-0-0/w UBIN        r     1 INDX_VEC(0:10)
   141-0-0/c CHAR(32)    r     1 TEXT                     151-0-0/b BIT         r     1 TH_AP_ATTR_FLG

  ****  Auto variables  ****

  ****  Scalars and arrays  ****
OctLoc.c.b A Datatyp(siz) R M Lvl/name                 OctLoc.c.b A Datatyp(siz) R M Lvl/name

  1754-0-0/w PTR         r     1 @CHAN                   1755-0-0/w PTR         r     1 @CHANS
PL6.E3A0      #005=THF$CONFIG File=THF$FORMAT.:E05TSI                            WED 07/30/97 06:16 Page:1002
     3-0-0/w PTR         r     1 @CODE                   1753-0-0/w PTR         r     1 @DEVNAME
  1731-0-0/w PTR         r     1 @DEV_FLG                1677-0-0/w PTR         r     1 @INDX
  1726-0-0/w PTR         r     1 @LAST                   1755-0-0/w PTR         r     1 @LEN
  1725-0-0/w PTR         r     1 @MPC_INDX               1725-0-0/w PTR         r     1 @MPC_NAME
  1725-0-0/w PTR         r     1 @MPC_NAME               1700-0-0/w PTR         r     1 @MPC_TYPE
  1726-0-0/w PTR         r     1 @MPC_TYPE               1754-0-0/w PTR         r     1 @NUM
  1753-0-0/w PTR         r     1 @NUM                    1730-0-0/w PTR         r     1 @SP
  1727-0-0/w PTR         r     1 @ST                     1727-0-0/w PTR         r     1 @XBAR_INDX
  1731-0-0/w UBIN        r     1 BUF_CNT                 1745-0-0/c CHAR(3)     r     1 CHAN
    *0-0-0/c CHAR(3)     r     1 CHAN                    1542-0-0/w UBIN        r     1 CHANS(0:7)
    *0-0-0/w UBIN        r     1 CHANS(0:7)              1733-0-0/c CHAR(40)    r     1 CHAN_BUF
  1756-0-0/c CHAR        r     1 CHAR1                   1757-0-0/c CHAR(2)     r     1 CHAR2
  1760-0-0/c CHAR(3)     r     1 CHAR3                     *0-0-0/w UBIN        r     1 CODE
  1675-0-0/w UBIN        r     1 C_CODE                    *0-0-0/c CHAR(8)     r     1 DEVNAME
  1521-0-0/w STRC(396)   r     1 DEVREC                  1673-0-0/w BIT         r     1 DEV_FLG
    *0-0-0/w BIT         r     1 DEV_FLG                 1701-0-0/w UBIN(18)    r     1 FIRST
  1663-0-0/w SBIN        r     1 FIRST_FEP               1661-0-0/w SBIN        r     1 FIRST_IOM
  1657-0-0/w SBIN        r     1 FIRST_MPC               1665-0-0/w SBIN        r     1 FIRST_SC
  1552-0-0/w SBIN        r     1 I                       1756-0-0/w UBIN        r     1 I
  1703-0-0/w UBIN        r     1 I                       1732-0-0/w UBIN        r     1 I
  1670-0-0/w SBIN        r     1 II                        *0-0-0/w STRC        r     1 INDX
  1540-0-0/c CHAR        r     1 IOM#                     646-0-0/w STRC(9540)  r     1 IOMREC
  1537-0-0/c CHAR(4)     r     1 IOM_NAME                1553-0-0/w SBIN        r     1 J
  1704-0-0/w UBIN        r     1 J                       1747-0-0/w UBIN        r     1 J
  1733-0-0/w UBIN        r     1 J                       1730-0-0/w UBIN        r     1 J
  1667-0-0/w SBIN        r     1 JJ                      1734-0-0/w UBIN        r     1 K
  1702-0-0/w UBIN(18)    r     1 LAST                      *0-0-0/w UBIN(18)    r     1 LAST
  1746-0-0/w UBIN        r     1 LAST_CHAN               1664-0-0/w SBIN        r     1 LAST_FEP
  1662-0-0/w SBIN        r     1 LAST_IOM                1660-0-0/w SBIN        r     1 LAST_MPC
  1666-0-0/w SBIN        r     1 LAST_SC                 1732-0-0/w UBIN        r     1 LEN
  1736-0-0/w UBIN        r     1 LEN                       *0-0-0/w UBIN        r     1 LEN
  1257-0-0/w STRC(2916)  r     1 MPCREC                  1400-0-0/w STRC(2916)  r     1 MPCREC1
    *0-0-0/w UBIN        r     1 MPC_INDX                  *0-0-0/c CHAR(8)     r     1 MPC_NAME
    *0-0-0/c CHAR(8)     r     1 MPC_NAME                  *0-0-0/w UBIN        r     1 MPC_TYPE
    *0-0-0/w UBIN        r     1 MPC_TYPE                  *0-0-0/w UBIN        r     1 NUM
    *0-0-0/w UBIN        r     1 NUM                     1541-0-0/w UBIN        r     1 NUM_CHANS
  1705-0-0/w SBIN        r     1 NUM_XBARS               1737-0-0/w UBIN        r     1 OUTPUT_ATTRS
PL6.E3A0      #005=THF$CONFIG File=THF$FORMAT.:E05TSI                            WED 07/30/97 06:16 Page:1003
  1730-0-0/b BIT         r     1 RANGE_FLAG              1750-0-0/c CHAR(8)     r     1 REVBUF
  1672-0-0/w SBIN        r     1 SP                        *0-0-0/w SBIN        r     1 SP
  1671-0-0/w SBIN        r     1 ST                        *0-0-0/w SBIN        r     1 ST
  1740-0-0/w SBIN        r     1 START                   1741-0-0/w SBIN        r     1 STOP
  1735-0-0/w UBIN        r     1 STRT                       4-0-0/w STRC(15048) r     1 TD_HEAD
  1674-0-0/c CHAR(2)     r     1 TEMP_DEV                1656-0-0/w PTR         r     1 TEXT$
  1556-0-0/c CHAR(256)   r     1 TEXTBUF                 1726-0-0/c CHAR(8)     r     1 TMP_NAME
  1554-0-0/d STRC(72)    r     1 TVEC                    1706-0-0/w UBIN        r     1 XBARS(0:10)
  1722-0-0/w UBIN        r     1 XBAR_INDX                 *0-0-0/w UBIN        r     1 XBAR_INDX

  ****  SYMREF variables  ****

  ****  Scalars and arrays  ****
OctLoc.c.b A Datatyp(siz) R M Lvl/name                 OctLoc.c.b A Datatyp(siz) R M Lvl/name

     0-0-0/w UBIN        r     1 TH_NUM_REP_DEVS            0-0-0/d STRC(72)    r     1 TH_RECORD
     0-0-0/w CHAR(8)     r     1 TH_REP_DEVS(0:511)

  ****  BASED and DCB variables  ****

  ****  Scalars and arrays  ****
OctLoc.c.b A Datatyp(siz) R M Lvl/name                 OctLoc.c.b A Datatyp(siz) R M Lvl/name

     0-0-0/w STRC(315)   r     1 ATTR$TBL(0:10)
     0-0-0/w STRC(396)   r     1 TD$DEV                     0-0-0/w STRC(7848)  r     1 TD$HEAD
     0-0-0/w STRC(9540)  r     1 TD$IOM                     0-0-0/w STRC(2916)  r     1 TD$MPC


   Procedure THF$CONFIG requires 1472 words for executable code.
   Procedure THF$CONFIG requires 1026 words of local(AUTO) storage.
PL6.E3A0      #005=THF$CONFIG File=THF$FORMAT.:E05TSI                            WED 07/30/97 06:16 Page:1004
          *** CROSS REFERENCE LISTING ***
**     DENOTES     IDENTIFIER DEFINITION
<<                 IDENTIFIER'S VALUE SET
>>                 IDENTIFIER'S VALUE USED
<>                 IDENTIFIER SET AND/OR USED
--                 IDENTIFIER REFERENCED
PL6.E3A0      #005=THF$CONFIG File=THF$FORMAT.:E05TSI                            WED 07/30/97 06:16 Page:1005
          MINI XREF LISTING

APC_FMT
      1899**DCL      1901--DCLINIT
AP_ATTR_TBL$
      2001**DCL      2432>>IF       2433>>ASSIGN   2434>>ASSIGN   2437>>ASSIGN   2438>>ASSIGN   2444>>IF
      2452>>ASSIGN   2453>>ASSIGN
AP_TBL
      1964**DCL      1999--DCLINIT  2001--DCLINIT
ATTR$TBL.ATTR
      1992**DCL      2432>>IF       2444>>IF       2460>>IF
ATTR$TBL.LEN
      1993**DCL      2434>>ASSIGN   2438>>ASSIGN   2453>>ASSIGN   2470>>ASSIGN
ATTR$TBL.TEXT
      1994**DCL      2433>>ASSIGN   2437>>ASSIGN   2452>>ASSIGN   2469>>ASSIGN
ATTR$TBL$
      1995**DCL      2460>>IF       2469>>ASSIGN   2470>>ASSIGN
ATTR_BUF IN PROCEDURE MPC_DEVICES
      2389**DCL      2440<<CALLBLT  2449<<CALLBLT  2454<<CALLBLT  2466<<CALLBLT  2471<<CALLBLT  2476<>CALL
BLANK_LINE
      1898**DCL      2194--CALL     2207--CALL     2288--CALL     2424--CALL
BUF_CNT IN PROCEDURE MPC_HDR
      2302**DCL      2312<<ASSIGN   2334>>CALLBLT  2335<<ASSIGN   2335>>ASSIGN   2346>>CALLBLT  2347<<ASSIGN
      2347>>ASSIGN   2349>>CALLBLT  2350<<ASSIGN   2350>>ASSIGN   2352>>CALLBLT  2353<<ASSIGN   2353>>ASSIGN
      2355>>CALLBLT  2356<<ASSIGN   2356>>ASSIGN   2363>>CALLBLT  2364<<ASSIGN   2364>>ASSIGN   2366>>CALLBLT
      2367<<ASSIGN   2367>>ASSIGN   2369<>CALL
CHAN IN PROCEDURE MPC_HDR
      2305**DCL      2333<>CALL     2334>>CALLBLT  2348<>CALL     2349>>CALLBLT  2354<>CALL     2355>>CALLBLT
      2365<>CALL     2366>>CALLBLT
CHAN IN PROCEDURE MY_BINCHAR
      2517**DCL      2514--PROC     2529<<ASSIGN   2535<<ASSIGN   2540<<ASSIGN
CHANS
      1886**DCL      2203<>CALL     2205--CALL     2211<>CALL     2213--CALL     2330<>CALL     2333<>CALL
      2336>>ASSIGN   2338>>IF       2354<>CALL     2358>>ASSIGN   2373--CALL
PL6.E3A0      #005=THF$CONFIG File=THF$FORMAT.:E05TSI                            WED 07/30/97 06:16 Page:1006
CHANS IN PROCEDURE FIND_CHANNEL
      2226**DCL      2221--PROC     2232<<ASSIGN   2238<<ASSIGN
CHAN_BUF IN PROCEDURE MPC_HDR
      2304**DCL      2311<<ASSIGN   2334<<CALLBLT  2346<<CALLBLT  2349<<CALLBLT  2352<<CALLBLT  2355<<CALLBLT
      2363<<CALLBLT  2366<<CALLBLT  2369<>CALL
CHAR1 IN PROCEDURE MY_BINCHAR
      2521**DCL      2528<<CALLBLT  2529>>ASSIGN
CHAR2 IN PROCEDURE MY_BINCHAR
      2522**DCL      2534<<CALLBLT  2535>>ASSIGN
CHAR3 IN PROCEDURE MY_BINCHAR
      2523**DCL      2539<<CALLBLT  2540>>ASSIGN
CODE
         9**DCL         7--PROC     2033>>IF
CONFIG_APC
      1901**DCL      2425<>CALL
CONFIG_DEV
      1913**DCL      2481<>CALL     2483<>CALL
CONFIG_FEP
      1916**DCL      2205<>CALL
CONFIG_IOM
      1904**DCL      2193<>CALL
CONFIG_MPC
      1907**DCL      2375<>CALL
CONFIG_OPC
      1910**DCL      2373<>CALL
CONFIG_SC
      1919**DCL      2213<>CALL
C_CODE
      2017**DCL      2046<<ASSIGN   2049<<ASSIGN   2052<<ASSIGN   2055<<ASSIGN   2058<<ASSIGN   2061<<ASSIGN
      2064<<ASSIGN   2067<<ASSIGN   2070<<ASSIGN   2073<<ASSIGN   2076<<ASSIGN   2079<<ASSIGN   2082<<ASSIGN
      2085<<ASSIGN   2087>>DOCASE
DC_TBL
      1949**DCL      1998--DCLINIT
DEVNAME IN PROCEDURE FIND_CHANNEL
      2224**DCL      2221--PROC     2234>>IF
DEVREC
PL6.E3A0      #005=THF$CONFIG File=THF$FORMAT.:E05TSI                            WED 07/30/97 06:16 Page:1007
      1839**DCL      2418<<ASSIGN   2481--CALL     2483--CALL
DEVREC.ATTR
      1853**DCL      2432>>IF       2444>>IF       2460>>IF
DEV_FLG
      2015**DCL      2024<<ASSIGN   2162<<ASSIGN   2163<>CALL     2167<<ASSIGN   2168<>CALL     2172<<ASSIGN
      2173<>CALL     2177<<ASSIGN   2178<>CALL     2182<<ASSIGN   2183<>CALL     2286<<ASSIGN   2287<>CALL
DEV_FLG IN PROCEDURE MPC_DEVICES
      2386**DCL      2379--PROC     2402>>IF       2413>>IF       2479>>IF
DEV_FMT
      1911**DCL      1913--DCLINIT
ENDLOOP IN PROCEDURE OUTPUT_MPC
      2290**LABEL    2273--GOTO     2275--CALLALT
FEP_FMT
      1914**DCL      1916--DCLINIT
FIND_CHANNEL
      2221**PROC     2203--CALL     2211--CALL     2330--CALL
FIRST IN PROCEDURE OUTPUT_MPC
      2254**DCL      2266<<ASSIGN   2269>>DOINDEX
FIRST_FEP
      2007**DCL      2029<<ASSIGN   2095>>ASSIGN   2202>>DOINDEX
FIRST_IOM
      2005**DCL      2025<<ASSIGN   2097<<CALLBLT  2188>>DOINDEX
FIRST_MPC
      2003**DCL      2027<<ASSIGN   2113<<ASSIGN   2114>>ASSIGN   2123<<ASSIGN   2124>>ASSIGN   2133<<ASSIGN
      2134>>ASSIGN   2143<<ASSIGN   2144>>ASSIGN   2153<<ASSIGN   2154>>ASSIGN   2161<<ASSIGN   2163<>CALL
      2166<<ASSIGN   2168<>CALL     2171<<ASSIGN   2173<>CALL     2176<<ASSIGN   2178<>CALL     2181<<ASSIGN
      2183<>CALL     2197>>DOINDEX
FIRST_SC
      2009**DCL      2031<<ASSIGN   2106>>ASSIGN   2210>>DOINDEX
FOR_ALL
      2187**LABEL    2036--GOTO
I
      1887**DCL      2188<<DOINDEX  2189>>CALLBLT
I IN PROCEDURE FIND_CHANNEL
      2229**DCL      2233<<DOINDEX  2234>>IF       2238>>ASSIGN
I IN PROCEDURE MPC_DEVICES
PL6.E3A0      #005=THF$CONFIG File=THF$FORMAT.:E05TSI                            WED 07/30/97 06:16 Page:1008
      2391**DCL      2442<<ASSIGN   2443>>DOWHILE  2444>>IF       2452>>ASSIGN   2453>>ASSIGN   2457<<ASSIGN
      2457>>ASSIGN
I IN PROCEDURE OUTPUT_MPC
      2256**DCL      2269<<DOINDEX  2272>>IF       2275>>CALL     2279<>CALL     2287>>CALL
II
      2012**DCL      2019<<ASSIGN   2022>>DOWHILE  2035<<ASSIGN   2038>>ASSIGN   2039>>DOWHILE  2039>>DOWHILE
      2039>>DOWHILE  2041<<ASSIGN   2041>>ASSIGN   2043>>ASSIGN   2044>>ASSIGN   2086<<ASSIGN   2086>>ASSIGN
INDX IN PROCEDURE OUTPUT_MPC
      2248**DCL      2245--PROC
INDX.FIRST IN PROCEDURE OUTPUT_MPC
      2249**DCL      2266>>ASSIGN   2267>>ASSIGN
INDX.NUM IN PROCEDURE OUTPUT_MPC
      2250**DCL      2267>>ASSIGN
INDX_VEC
      1890**DCL      2187<<ASSIGN   2198<>CALL
IOM#
      1884**DCL      2189<<CALLBLT  2190>>CALLBLT
IOMREC
      1757**DCL      2192<<ASSIGN   2193--CALL
IOMREC.DEVNAME
      1758**DCL      2234>>IF
IOM_FMT
      1902**DCL      1904--DCLINIT
IOM_NAME
      1882**DCL      2190<<CALLBLT  2191<>CALL     2193--CALL
J
      1888**DCL      2091<<DOINDEX  2092>>ASSIGN   2102<<DOINDEX  2103>>ASSIGN   2115<<DOINDEX  2116>>ASSIGN
      2125<<DOINDEX  2126>>ASSIGN   2135<<DOINDEX  2136>>ASSIGN   2145<<DOINDEX  2146>>ASSIGN   2155<<DOINDEX
      2156>>ASSIGN   2197<<DOINDEX  2198>>CALL     2198<>CALL     2202<<DOINDEX  2203>>CALL     2205>>CALL
      2210<<DOINDEX  2211>>CALL     2213>>CALL
J IN PROCEDURE MPC_DEVICES
      2392**DCL      2411<<DOINDEX  2415>>CALL     2417>>CALL     2423>>IF       2428>>IF       2481>>CALL
      2483>>CALL
J IN PROCEDURE MPC_HDR
      2307**DCL      2337<<DOINDEX  2338>>IF       2354>>CALL     2358>>ASSIGN
J IN PROCEDURE OUTPUT_MPC
PL6.E3A0      #005=THF$CONFIG File=THF$FORMAT.:E05TSI                            WED 07/30/97 06:16 Page:1009
      2257**DCL      2271<<DOINDEX  2272>>IF
J IN PROCEDURE XBAR
      2497**DCL      2501<<DOINDEX  2502>>CALL     2507>>ASSIGN
JJ
      2011**DCL      2023<<ASSIGN   2092>>ASSIGN   2093<<ASSIGN   2093>>ASSIGN   2103>>ASSIGN   2104<<ASSIGN
      2104>>ASSIGN   2116>>ASSIGN   2117<<ASSIGN   2117>>ASSIGN   2126>>ASSIGN   2127<<ASSIGN   2127>>ASSIGN
      2136>>ASSIGN   2137<<ASSIGN   2137>>ASSIGN   2146>>ASSIGN   2147<<ASSIGN   2147>>ASSIGN   2156>>ASSIGN
      2157<<ASSIGN   2157>>ASSIGN
K IN PROCEDURE MPC_DEVICES
      2393**DCL      2427<<DOINDEX  2460>>IF       2469>>ASSIGN   2470>>ASSIGN
LAST IN PROCEDURE OUTPUT_MPC
      2255**DCL      2267<<ASSIGN   2269>>DOINDEX  2279<>CALL
LAST IN PROCEDURE XBAR
      2493**DCL      2489--PROC     2501>>DOINDEX
LAST_CHAN IN PROCEDURE MPC_HDR
      2306**DCL      2336<<ASSIGN   2338>>IF       2348<>CALL     2358<<ASSIGN   2365<>CALL
LAST_FEP
      2008**DCL      2030<<ASSIGN   2095<<ASSIGN   2100<<ASSIGN   2109<<ASSIGN   2112<<ASSIGN   2122<<ASSIGN
      2132<<ASSIGN   2142<<ASSIGN   2152<<ASSIGN   2202>>DOINDEX
LAST_IOM
      2006**DCL      2026<<ASSIGN   2098<<CALLBLT  2188>>DOINDEX
LAST_MPC
      2004**DCL      2028<<ASSIGN   2089<<ASSIGN   2101<<ASSIGN   2114<<ASSIGN   2124<<ASSIGN   2134<<ASSIGN
      2144<<ASSIGN   2154<<ASSIGN   2197>>DOINDEX
LAST_SC
      2010**DCL      2032<<ASSIGN   2090<<ASSIGN   2106<<ASSIGN   2108<<ASSIGN   2111<<ASSIGN   2121<<ASSIGN
      2131<<ASSIGN   2141<<ASSIGN   2151<<ASSIGN   2210>>DOINDEX
LEN IN PROCEDURE MPC_DEVICES
      2395**DCL      2434<<ASSIGN   2438<<ASSIGN   2440>>CALLBLT  2441>>ASSIGN   2453<<ASSIGN   2454>>CALLBLT
      2455>>ASSIGN   2470<<ASSIGN   2471>>CALLBLT  2472>>ASSIGN
LEN IN PROCEDURE MPC_HDR
      2303**DCL      2333<>CALL     2334>>CALLBLT  2335>>ASSIGN   2348<>CALL     2349>>CALLBLT  2350>>ASSIGN
      2354<>CALL     2355>>CALLBLT  2356>>ASSIGN   2365<>CALL     2366>>CALLBLT  2367>>ASSIGN
LEN IN PROCEDURE MY_BINCHAR
      2518**DCL      2514--PROC     2530<<ASSIGN   2536<<ASSIGN   2541<<ASSIGN
MPCREC
PL6.E3A0      #005=THF$CONFIG File=THF$FORMAT.:E05TSI                            WED 07/30/97 06:16 Page:1010
      1773**DCL      2315<<ASSIGN   2500<<ASSIGN
MPCREC.CRPFWNAME
      1788**DCL      2318<>CALL
MPCREC.DEVNAME
      1792**DCL      2417<>CALL     2423>>IF       2428>>IF       2483--CALL     2504>>IF
MPCREC.FWNAME
      1786**DCL      2316<>CALL
MPCREC.FWREV.LETTER
      1790**DCL      2319>>IF       2320>>CALLBLT
MPCREC.FWREV.SUBREV
      1791**DCL      2320>>CALLBLT
MPCREC.LPFWNAME
      1787**DCL      2317<>CALL
MPCREC.NUMDEVS
      1781**DCL      2409>>ASSIGN
MPCREC1
      1795**DCL      2503<<ASSIGN
MPCREC1.DEVNAME
      1814**DCL      2504>>IF
MPC_DEVICES
      2379**PROC     2163--CALL     2168--CALL     2173--CALL     2178--CALL     2183--CALL     2287--CALL
MPC_FMT
      1905**DCL      1907--DCLINIT
MPC_HDR
      2294**PROC     2275--CALL     2281--CALL
MPC_INDX IN PROCEDURE XBAR
      2492**DCL      2489--PROC     2499>>CALL     2501>>DOINDEX
MPC_NAME IN PROCEDURE MPC_DEVICES
      2382**DCL      2379--PROC
MPC_NAME IN PROCEDURE MPC_HDR
      2297**DCL      2294--PROC     2314<>CALL     2326>>IF       2327>>CALLBLT  2329>>ASSIGN   2372>>IF
      2375--CALL
MPC_TYPE IN PROCEDURE MPC_DEVICES
      2383**DCL      2379--PROC     2427>>DOINDEX  2460>>IF       2469>>ASSIGN   2470>>ASSIGN
MPC_TYPE IN PROCEDURE OUTPUT_MPC
      2251**DCL      2245--PROC     2276>>IF       2287<>CALL
PL6.E3A0      #005=THF$CONFIG File=THF$FORMAT.:E05TSI                            WED 07/30/97 06:16 Page:1011
MY_BINCHAR
      2514**PROC     2333--CALL     2348--CALL     2354--CALL     2365--CALL
NEXT
      2217**LABEL    2164--GOTO     2169--GOTO     2174--GOTO     2179--GOTO     2184--GOTO
NO_DEVICE IN PROCEDURE MPC_DEVICES
      2485**LABEL    2415--CALLALT
NO_XBAR IN PROCEDURE OUTPUT_MPC
      2286**LABEL    2279--CALLALT
NUM IN PROCEDURE FIND_CHANNEL
      2225**DCL      2221--PROC     2231<<ASSIGN   2237<<ASSIGN   2237>>ASSIGN   2238>>ASSIGN
NUM IN PROCEDURE MY_BINCHAR
      2516**DCL      2514--PROC     2525>>IF       2528>>CALLBLT  2532>>IF       2534>>CALLBLT  2539>>CALLBLT
NUM_ATTRS
      2002**DCL      2427>>DOINDEX
NUM_CHANS
      1885**DCL      2203<>CALL     2204>>IF       2211<>CALL     2212>>IF       2330<>CALL     2331>>IF
      2337>>DOINDEX
NUM_XBARS IN PROCEDURE OUTPUT_MPC
      2258**DCL      2268<<ASSIGN   2271>>DOINDEX  2282>>ASSIGN   2283<<ASSIGN   2283>>ASSIGN
OD_TBL
      1977**DCL      2000--DCLINIT
OPC_FMT
      1908**DCL      1910--DCLINIT
OUTPUT_ATTRS IN PROCEDURE MPC_DEVICES
      2396**DCL      2422<<ASSIGN   2431<<ASSIGN   2431>>ASSIGN   2447<<ASSIGN   2447>>ASSIGN   2448>>IF
      2462<<ASSIGN   2462>>ASSIGN   2463>>IF
OUTPUT_MPC
      2245**PROC     2198--CALL
RANGE_FLAG IN PROCEDURE MPC_HDR
      2301**DCL      2332<<ASSIGN   2339<<ASSIGN   2342>>IF       2345<<ASSIGN   2360>>IF
REVBUF IN PROCEDURE MPC_HDR
      2308**DCL      2320<<CALLBLT  2321<>CALL
SC_FMT
      1917**DCL      1919--DCLINIT
SP
      2014**DCL      2043<<ASSIGN   2091>>DOINDEX  2095>>ASSIGN   2098>>CALLBLT  2102>>DOINDEX  2106>>ASSIGN
PL6.E3A0      #005=THF$CONFIG File=THF$FORMAT.:E05TSI                            WED 07/30/97 06:16 Page:1012
      2115>>DOINDEX  2119>>ASSIGN   2125>>DOINDEX  2129>>ASSIGN   2135>>DOINDEX  2139>>ASSIGN   2145>>DOINDEX
      2149>>ASSIGN   2155>>DOINDEX  2159>>ASSIGN   2163<>CALL     2168<>CALL     2173<>CALL     2178<>CALL
      2183<>CALL
SP IN PROCEDURE MPC_DEVICES
      2385**DCL      2379--PROC     2405>>ASSIGN
ST
      2013**DCL      2038<<ASSIGN   2091>>DOINDEX  2095>>ASSIGN   2097>>CALLBLT  2098>>CALLBLT  2102>>DOINDEX
      2106>>ASSIGN   2115>>DOINDEX  2119>>ASSIGN   2125>>DOINDEX  2129>>ASSIGN   2135>>DOINDEX  2139>>ASSIGN
      2145>>DOINDEX  2149>>ASSIGN   2155>>DOINDEX  2159>>ASSIGN   2163<>CALL     2168<>CALL     2173<>CALL
      2178<>CALL     2183<>CALL
ST IN PROCEDURE MPC_DEVICES
      2384**DCL      2379--PROC     2404>>ASSIGN
START IN PROCEDURE MPC_DEVICES
      2397**DCL      2404<<ASSIGN   2408<<ASSIGN   2411>>DOINDEX
STOP IN PROCEDURE MPC_DEVICES
      2398**DCL      2405<<ASSIGN   2409<<ASSIGN   2411>>DOINDEX
STRT IN PROCEDURE MPC_DEVICES
      2394**DCL      2421<<ASSIGN   2440>>CALLBLT  2441<<ASSIGN   2441>>ASSIGN   2449>>CALLBLT  2450<<ASSIGN
      2450>>ASSIGN   2454>>CALLBLT  2455<<ASSIGN   2455>>ASSIGN   2466>>CALLBLT  2467<<ASSIGN   2467>>ASSIGN
      2471>>CALLBLT  2472<<ASSIGN   2472>>ASSIGN   2476<>CALL
TC_TBL
      1935**DCL      1997--DCLINIT
TD$DEV
      1858**DCL      2418>>ASSIGN
TD$HEAD
      1685**DCL      2021>>ASSIGN
TD$IOM
      1765**DCL      2192>>ASSIGN
TD$MPC
      1817**DCL      2315>>ASSIGN   2500>>ASSIGN   2503>>ASSIGN
TD_HEAD
      1721**DCL      2021<<ASSIGN   2187>>ASSIGN
TD_HEAD.APMPC_INDX
      1730**DCL      2126>>ASSIGN
TD_HEAD.CONSOLE_INDX
      1736**DCL      2031>>ASSIGN   2032>>ASSIGN   2103>>ASSIGN
PL6.E3A0      #005=THF$CONFIG File=THF$FORMAT.:E05TSI                            WED 07/30/97 06:16 Page:1013
TD_HEAD.DEVNAME
      1754**DCL      2092<<ASSIGN   2103<<ASSIGN   2116<<ASSIGN   2126<<ASSIGN   2136<<ASSIGN   2146<<ASSIGN
      2156<<ASSIGN   2203<>CALL     2205--CALL     2211<>CALL     2213--CALL     2275<>CALL     2281<>CALL
      2287<>CALL     2499<>CALL     2502<>CALL
TD_HEAD.DISKMPC_INDX
      1728**DCL      2136>>ASSIGN
TD_HEAD.FEP_INDX
      1734**DCL      2029>>ASSIGN   2030>>ASSIGN   2092>>ASSIGN
TD_HEAD.NUMAPMPCS
      1731**DCL      2129<<ASSIGN
TD_HEAD.NUMCONSOLES
      1737**DCL      2032>>ASSIGN
TD_HEAD.NUMDISKMPCS
      1729**DCL      2139<<ASSIGN
TD_HEAD.NUMFEPS
      1735**DCL      2030>>ASSIGN
TD_HEAD.NUMIOMS
      1723**DCL      2026>>ASSIGN
TD_HEAD.NUMOPCS
      1733**DCL      2119<<ASSIGN
TD_HEAD.NUMTAPEMPCS
      1727**DCL      2149<<ASSIGN
TD_HEAD.NUMUNITMPCS
      1725**DCL      2159<<ASSIGN
TD_HEAD.OPC_INDX
      1732**DCL      2116>>ASSIGN
TD_HEAD.TAPEMPC_INDX
      1726**DCL      2146>>ASSIGN
TD_HEAD.UNITMPC_INDX
      1724**DCL      2156>>ASSIGN
TEMP_DEV
      2016**DCL      2044<<ASSIGN   2045>>IF       2048>>IF       2051>>IF       2051>>IF       2054>>IF
      2057>>IF       2060>>IF       2063>>IF       2066>>IF       2069>>IF       2072>>IF       2075>>IF
      2078>>IF       2081>>IF       2084>>IF       2084>>IF       2084>>IF
TEXT IN PROCEDURE MPC_DEVICES
      2390**DCL      2433<<ASSIGN   2437<<ASSIGN   2440>>CALLBLT  2452<<ASSIGN   2454>>CALLBLT  2469<<ASSIGN
PL6.E3A0      #005=THF$CONFIG File=THF$FORMAT.:E05TSI                            WED 07/30/97 06:16 Page:1014
      2471>>CALLBLT
TEXT$
      1896**DCL      2313<<ASSIGN   2316<>CALL     2317<>CALL     2318<>CALL     2321<>CALL     2324<>CALL
      2369<>CALL     2371>>ASSIGN   2412<<ASSIGN   2476<>CALL     2478>>ASSIGN
TEXTBUF
      1895**DCL      2313--ASSIGN   2370--ASSIGN   2371--ASSIGN   2412--ASSIGN   2477--ASSIGN   2478--ASSIGN
THF$ADD_TEXTC
      1681**DCL-ENT  2316--CALL     2317--CALL     2318--CALL     2321--CALL     2324--CALL     2369--CALL
      2476--CALL
THG$GETREC
      1679**DCL-ENT  2020--CALL     2191--CALL     2314--CALL     2415--CALL     2417--CALL     2499--CALL
      2502--CALL
THW$WRITE
      1680**DCL-ENT  2193--CALL     2194--CALL     2205--CALL     2207--CALL     2213--CALL     2280--CALL
      2288--CALL     2373--CALL     2375--CALL     2424--CALL     2425--CALL     2481--CALL     2483--CALL
TH_AP_ATTR_FLG IN PROCEDURE MPC_DEVICES
      2399**DCL      2428>>IF       2443>>DOWHILE  2446<<ASSIGN   2460>>IF       2475<<ASSIGN
TH_CONSTRAINTS.E_BY_B
      1127**DCL      1127--REDEF
TH_CONSTRAINTS.M_BY_B
      1126**DCL      1126--REDEF
TH_CONSTRAINTS.TYPES
      1124**DCL      1124--REDEF
TH_DEFAULT.E_BY_B
      1135**DCL      1135--REDEF
TH_DEFAULT.M_BY_B
      1134**DCL      1134--REDEF
TH_DEFAULT.TYPES
      1132**DCL      1132--REDEF
TH_NUM_REP_DEVS
      1149**DCL      2022>>DOWHILE  2039>>DOWHILE
TH_RECORD.PTR$
      1152**DCL      2021>>ASSIGN   2192>>ASSIGN   2315>>ASSIGN   2418>>ASSIGN   2500>>ASSIGN   2503>>ASSIGN
TH_REP_DEVS
      1150**DCL      2039>>DOWHILE  2039>>DOWHILE  2044>>ASSIGN   2092>>ASSIGN   2097>>CALLBLT  2098>>CALLBLT
      2103>>ASSIGN   2116>>ASSIGN   2126>>ASSIGN   2136>>ASSIGN   2146>>ASSIGN   2156>>ASSIGN   2415<>CALL
PL6.E3A0      #005=THF$CONFIG File=THF$FORMAT.:E05TSI                            WED 07/30/97 06:16 Page:1015
      2481--CALL
TH_SAVE.E_BY_B
      1143**DCL      1143--REDEF
TH_SAVE.M_BY_B
      1141**DCL      1141--REDEF
TH_SAVE.TYPES
      1139**DCL      1140--REDEF
TH_XSA_BUF_VECTOR
      1159**DCL      1159--REDEF
TMP_NAME IN PROCEDURE MPC_HDR
      2298**DCL      2327<<CALLBLT  2329<<ASSIGN   2330<>CALL     2373--CALL
TVEC
      1891**DCL      2370<<ASSIGN   2375<>CALL     2477<<ASSIGN   2481<>CALL     2483<>CALL
TVEC.BOUND
      1892**DCL      2371<<ASSIGN   2478<<ASSIGN
UC_TBL
      1921**DCL      1996--DCLINIT
XBAR
      2489**PROC     2279--CALL
XBARS IN PROCEDURE OUTPUT_MPC
      2259**DCL      2272>>IF       2282<<ASSIGN
XBAR_FMT IN PROCEDURE OUTPUT_MPC
      2262**DCL      2280--CALL
XBAR_INDX IN PROCEDURE OUTPUT_MPC
      2261**DCL      2279<>CALL     2281>>CALL     2282>>ASSIGN
XBAR_INDX IN PROCEDURE XBAR
      2494**DCL      2489--PROC     2507<<ASSIGN
ZERO
      1883**DCL      2020<>CALL

