PL6.E3A0      #001=THF$RAW File=THF$FORMAT.:E05TSI                               WED 07/30/97 06:08 Page:1
        1        1        /*T***********************************************************/
        2        2        /*T*                                                         */
        3        3        /*T* Copyright (c) Bull HN Information Systems Inc., 1997    */
        4        4        /*T*                                                         */
        5        5        /*T***********************************************************/
        6        6
        7        7        /*M* THF$FORMAT - ROUTINES TO BUILD INDIVIDUAL ELAN REPORTS */
        8        8        /**/
        9        9        THF$RAW: PROC(FMTTBL$);
       10       10        /**/
       11       11        /* PARAMS */
       12       12    1   DCL FMTTBL$(0:0) PTR;
       13       13        /**/
       14       14        /* INCLUDE FILES */
       15       15        %INCLUDE CP_6;
       16       96        %INCLUDE B$JIT;
       17      386        %INCLUDE EL$TABLES;
       18      709        %INCLUDE TH_DATA_R;
       19      787        %INCLUDE TH_SUBS_C;
       20     1169        %INCLUDE TH_DATA_C;
       21     1185        %INCLUDE KI_SUBS_C;
       22     1321        %INCLUDE EL_SUBS_C;
       23     1405        %INCLUDE TH_XSTATUS_R;
       24     1708        %INCLUDE CP_6_SUBS;
       25     2248        %INCLUDE B_MICROPS_C;
       26     2420        %INCLUDE TM_DATA_M;
       27     2522        %INCLUDE NI_DATA_C;
       28     2635        %INCLUDE XU_FORMAT_C;
       29     2797        /**/
       30     2798        /* ENTRY DEFS */
       31     2799    1   DCL THW$WRITE ENTRY(11);
       32     2800    1   DCL THF$CSHERR ENTRY;
       33     2801    1   DCL THF$DUMP ENTRY(3);
       34     2802    1   DCL THF$HEXDUMP ENTRY(3);
       35     2803    1   DCL THF$HISTORY ENTRY(2);
       36     2804    1   DCL THF$ADD_TEXTC ENTRY(3);
       37     2805    1   DCL THF$STATUS ENTRY(5) ALTRET;
PL6.E3A0      #001=THF$RAW File=THF$FORMAT.:E05TSI                               WED 07/30/97 06:08 Page:2
       38     2806    1   DCL X$FORMAT ENTRY(1);
       39     2807        /**/
       40     2808        /* SYMREFS */
       41     2809    1   DCL B$JIT$ PTR SYMREF;
       42     2810        /**/
       43     2811        /* VARS */
       44     2812    1   DCL 1 INFO DALIGNED,
       45     2813    1         2 BOUND UBIN(20) UNAL,
       46     2814    1         2 * BIT(16) UNAL,
       47     2815    1         2 PTR$ PTR;
       48     2816    1   DCL CHP CHAR(3);
       49     2817    1   DCL BORD CHAR(1);
       50     2818        %EL$SCREECH_MASK (NAME=MASK);
       51     2821    1   DCL I SBIN;
       52     2822    1   DCL X SBIN;
       53     2823    1   DCL PRNTR_REG BIT(6);
       54     2824    1   DCL PR54_BYTE BIT(9);
       55     2825    1   DCL 1 PTR_BELT,
       56     2826    1       2 BYT1 UBIN(8) UNAL,
       57     2827    1       2 BYT2 UBIN(8) UNAL;
       58     2828    1   DCL 1 PR54_BELT REDEF PTR_BELT,
       59     2829    1       2 * BIT(1) UNAL,
       60     2830    1       2 CODE BIT(15) UNAL;
       61     2831    1   DCL 1 PR71_BELT REDEF PTR_BELT,
       62     2832    1       2 * BIT(1) UNAL,
       63     2833    1       2 CODE BIT(15) UNAL;
       64     2834    1   DCL 1 PR71_REG1 ALIGNED,
       65     2835    1       2 BYT1 UBIN(8) UNAL,
       66     2836    1       2 BYT2 UBIN(8) UNAL,
       67     2837    1       2 * UBIN(20) UNAL;
       68     2838    1   DCL JUNK SBIN;
       69     2839    1   DCL TEMP CHAR(63);
       70     2840    1   DCL TEMP1 CHAR(63);
       71     2841    1   DCL TEMP2 CHAR(63);
       72     2842    1   DCL NUMSTATS UBIN;
       73     2843    1   DCL J UBIN;
       74     2844    1   DCL STRT UBIN;
PL6.E3A0      #001=THF$RAW File=THF$FORMAT.:E05TSI                               WED 07/30/97 06:08 Page:3
       75     2845    1   DCL LEN SBIN;
       76     2846    1   DCL OUTBUF CHAR(132) STATIC;
       77     2847    1   DCL DYMFMT CHAR(0) CONSTANT INIT('%/DYNAMIC DATA : %10P');
       78     2848    1   DCL INFOFMT CHAR(0) CONSTANT INIT('%/INFO : %10P');
       79     2849    1   DCL PROCERR_SS CHAR(0) CONSTANT INIT('%/SAFE-STORE FRAME:  %10P');
       80     2850    1   DCL NUMBYTES UBIN WORD;
       81     2851    1   DCL NUMWORDS UBIN WORD;
       82     2852    1   DCL CHARNUM CHAR(3);
       83     2853    1   DCL TEXTBUF CHAR(256);
       84     2854    1   DCL TAPEFMT CHAR(0) CONSTANT INIT(
       85     2855    1   '%5A %2P%4A %3P%9NS%9NS%T%18-%T%25-%T%36-%T%46-%T%51-%T%61-%T%66-%T%/%10P');
       86     2856    1   DCL DISKFMT CHAR(0) CONSTANT INIT(
       87     2857    1   '%5A %2P%4A %3P%9NS%9NS%T%19-%T%26-%T%32-%T%39-%T%44-%T%50-%T%55-%T%61-%T%67-%T%/%10
              2857        P');
       88     2858    1   DCL PR71FMT1 CHAR(0) CONSTANT INIT('ECHO CHECK REG: %0P%4.16ZH%1Q');
       89     2859    1   DCL PR71FMT3 CHAR(0) CONSTANT INIT('SHORT CIRCUIT REG: %0P%4.16ZH%1Q');
       90     2860    1   DCL 1 PR71_BUF STATIC SYMDEF,
       91     2861    1       2 * CHAR(1) UNAL,
       92     2862    1       2 STRING CHAR(35) UNAL INIT(' ');
       93     2863    1   DCL 1 PR71_VECTOR_TBL BIT(72) STATIC DALIGNED INIT(VECTOR(NIL)*0);
       94     2864    1   DCL TEMP_STATUS BIT(72) STATIC ALIGNED;
       95     2865    1   DCL 1 TEMP_STATUS1 REDEF TEMP_STATUS,
       96     2866    1         2 MAJOR_STATUS BIT(6) UNAL,
       97     2867    1         2 XX BIT(6) UNAL,
       98     2868    1         2 * BIT(6) UNAL,
       99     2869    1         2 YY BIT(6) UNAL,
      100     2870    1         2 * BIT(24) UNAL,
      101     2871    1         2 CHANNEL BIT(6) UNAL,
      102     2872    1         2 * BIT(12) UNAL,
      103     2873    1         2 FAULT_CODE BIT(6) UNAL;
      104     2874    1   DCL 1 TVEC DALIGNED,
      105     2875    1           2 BOUND UBIN(20) UNAL,
      106     2876    1           2 * BIT(16),
      107     2877    1           2 PTR$ PTR;
      108     2878    1   DCL 1 FEPERR_CODE STATIC UNAL,
      109     2879    1         2 FCG UBIN(18) UNAL,
      110     2880    1         2 MON BIT(1),
PL6.E3A0      #001=THF$RAW File=THF$FORMAT.:E05TSI                               WED 07/30/97 06:08 Page:4
      111     2881    1         2 CODE UBIN(14) UNAL,
      112     2882    1         2 SEV UBIN(3) UNAL;
      113     2883    1   DCL TEXT$ PTR;
      114     2884    1   DCL 1 DFNAME BASED(TEXT$),
      115     2885    1           2 N UBIN BYTE UNAL,
      116     2886    1           2 DF CHAR(3),
      117     2887    1           2 MONID CHAR(4) UNAL,
      118     2888    1           2 SCOUNT CHAR(3);
      119     2889    1   DCL CTL$ PTR;
      120     2890    1   DCL STATS$ PTR;
      121     2891    1   DCL 1 TAPE_STATS BASED(STATS$) ALIGNED,   /* MPC AND TPUR TAPE STATISTICS */
      122     2892    1       2 RECORDS_READ UBIN,
      123     2893    1       2 RECORDS_WRITTEN UBIN,
      124     2894    1       2 WRITE_ERRS UBIN,
      125     2895    1       2 READ_ERRS UBIN,
      126     2896    1       2 TRANS_TIMING_ERRS UBIN,
      127     2897    1       2 MARGINAL_RECS UBIN,
      128     2898    1       2 PARITY_ERRS UBIN,
      129     2899    1       2 MTC_READ_COUNT UBIN;
      130     2900    1   DCL 1 DISK_STATS BASED(STATS$) ALIGNED,  /* MPC AND DAU DISK STATISTICS */
      131     2901    1       2 SEEKS UBIN,
      132     2902    1       2 SECTORS_WRITTEN UBIN,
      133     2903    1       2 SECTORS_READ UBIN,
      134     2904    1       2 DATA_TRANSFERS UBIN,
      135     2905    1       2 SEEK_INCOMPLETES UBIN,
      136     2906    1       2 HDR_VER_ERRS UBIN,
      137     2907    1       2 TRANS_TIMING_ERRS UBIN,
      138     2908    1       2 DATA_CHK_ALERTS UBIN,
      139     2909    1       2 CNT_CHK_ALERTS UBIN,
      140     2910    1       2 DLI_PARITY_ERRS UBIN,
      141     2911    1       2 ALT_TRKS_PROCESSED UBIN,
      142     2912    1       2 EDAC_CORR_ERRS UBIN,
      143     2913    1       2 EDAC_UNCORR_ERRS UBIN,
      144     2914    1       2 LATENCY_RETRIES UBIN,
      145     2915    1       2 DATA_RETRIES UBIN,
      146     2916    1       2 SEARCH_ALERTS UBIN;
      147     2917    1   DCL 1 MDS_STATS BASED(STATS$) ALIGNED,  /* MDS DISK STATISTICS */
PL6.E3A0      #001=THF$RAW File=THF$FORMAT.:E05TSI                               WED 07/30/97 06:08 Page:5
      148     2918    1       2 BYTES_READ UBIN,
      149     2919    1       2 BYTES_WRITTEN UBIN,
      150     2920    1       2 IPC_SEEK_CNT UBIN(18) UNAL,
      151     2921    1       2 SEEK_ERRS UBIN(18) UNAL,
      152     2922    1       2 DATA_CHKS_CORR UBIN(18) UNAL,
      153     2923    1       2 DATA_CHKS_UNCORR UBIN(18) UNAL,
      154     2924    1       2 CM_SEEK_CNT UBIN,
      155     2925    1       2 SEEK_READS UBIN,
      156     2926    1       2 SECTORS_READ UBIN,
      157     2927    1       2 SEEK_WRITES UBIN,
      158     2928    1       2 SECTORS_WRITTEN UBIN,
      159     2929    1       2 RETRIES UBIN,
      160     2930    1       2 LATENCIES_LOST UBIN;
      161     2931    1   DCL 1 EURC_STATS BASED(STATS$) ALIGNED,   /* EURC/IPC-UR STATISTICS */
      162     2932    1       2 RECEIVER_ERRS(0:3) UBIN(18) UNAL,
      163     2933    1       2 TRANSMITTER_ERRS(0:3) UBIN(18) UNAL,
      164     2934    1       2 CARDS_PUNCHED(0:3) UBIN(18) UNAL,
      165     2935    1       2 CARDS_READ(0:3) UBIN(18) UNAL,
      166     2936    1       2 FRAMES_RECEIVED(0:3) UBIN(18) UNAL,
      167     2937    1       2 FRAMES_TRANSMITTED(0:3) UBIN(18) UNAL,
      168     2938    1       2 CONNECT_PCWS(0:3) UBIN(18) UNAL,
      169     2939    1       2 PCWS_ON_IMU_INTERFACE(0:3) UBIN(18) UNAL,
      170     2940    1       2 TOTAL_TRANSACTIONS(0:3) UBIN,
      171     2941    1       2 WORD_TRANSFERS(0:3) UBIN,
      172     2942    1       2 LINES_PRINTED(0:3) UBIN(18) UNAL,
      173     2943    1       2 RETRANSMISSIONS(0:3) UBIN(18) UNAL,
      174     2944    1       2 PAGES_PRINTED(0:3) UBIN(18) UNAL,
      175     2945    1       2 UPTIME UBIN,
      176     2946    1       2 LOST_INTS UBIN(18) UNAL,
      177     2947    1       2 UNSOLICITED_FRAMES UBIN(18) UNAL,
      178     2948    1       2 PROMS(0:7) UBIN(9) UNAL;
      179     2949    1   DCL TYPE UBIN;
      180     2950    1   DCL LOC_UTS UBIN STATIC;
      181     2951    1   DCL DBUF CHAR(8) STATIC;
      182     2952    1   DCL TBUF CHAR(11) STATIC;
      183     2953    1   DCL DUMP_HDR CHAR(0) CONSTANT INIT('%2/ TYPE = %D  TIME = %A - %A %10P');
      184     2954    1   DCL DEV_FLAG BIT(1);
PL6.E3A0      #001=THF$RAW File=THF$FORMAT.:E05TSI                               WED 07/30/97 06:08 Page:6
      185     2955    1   DCL DEV$ PTR;
      186     2956    1   DCL 1 DEVTBL(0:207) BASED(DEV$) ALIGNED,
      187     2957    1         2 CODE UBIN BYTE UNAL,
      188     2958    1         2 COUNT UBIN BYTE UNAL,
      189     2959    1         2 TEXT CHAR(35) UNAL;
      190     2960    1   DCL OCTET$ PTR;
      191     2961    1   DCL 1 PARAM_TBL(0:7) BASED(OCTET$) ALIGNED,
      192     2962    1       2 COUNT UBIN BYTE UNAL,
      193     2963    1       2 TEXT CHAR(44) UNAL;
      194     2964    1   DCL MDS_TBL$ PTR;
      195     2965    1   DCL 1 MDS_TBL(0:25) BASED(MDS_TBL$) ALIGNED,
      196     2966    1       2 CODE UBIN BYTE UNAL,
      197     2967    1       2 COUNT UBIN BYTE UNAL,
      198     2968    1       2 TEXT CHAR(44) UNAL;
      199     2969    1   DCL MODEL_CHAR CHAR(3);
      200     2970    1   DCL IO_MASK(0:35) UBIN(8) UNAL;
      201     2971    1   DCL IO_MASK1(0:287) REDEF IO_MASK BIT(1);
      202     2972    1   DCL NEW_IO_MASK(0:35) UBIN(8) UNAL;
      203     2973    1   DCL IO_MASK2(0:287) REDEF NEW_IO_MASK BIT(1);
      204     2974    1   DCL 1 OCTET_BYTE(0:25) UBIN(8) UNAL;
      205     2975    1   DCL 1 OCTET_NIBBLE(0:51) REDEF OCTET_BYTE UBIN(4) UNAL;
      206     2976    1   DCL 1 XSTATUS_BYTE(0:10) UBIN(8) UNAL;
      207     2977    1   DCL 1 XSTATUS_NIBBLE(0:21) REDEF XSTATUS_BYTE UBIN(4) UNAL;
      208     2978    1   DCL 1 HEX_NUM UBIN(8) UNAL;
      209     2979    1   DCL 1 HEX_NIBBLE(0:1) REDEF HEX_NUM UBIN(4) UNAL;
      210     2980    1   DCL 1 PARAM_INDX SBIN;
      211     2981    1   DCL 1 PARAMETER_ID UBIN(8) UNAL;
      212     2982    1   DCL 1 PARAM_ID REDEF PARAMETER_ID,
      213     2983    1       2 BYT1 UBIN(4) UNAL,
      214     2984    1       2 BYT2 UBIN(4) UNAL;
      215     2985    1   DCL 1 PARAMETER_LENGTH UBIN(8);
      216     2986    1   DCL 1 MDS_STATUS_REG1 UBIN(8) UNAL;
      217     2987    1   DCL 1 MDS_DRIVE_STATUS REDEF MDS_STATUS_REG1,
      218     2988    1       2 DRIVE_END_STATUS UBIN(4) UNAL,
      219     2989    1       2 OP_END_STATUS UBIN(4) UNAL;
      220     2990    1   DCL 1 MDS_STATUS_REG2(0:1) UBIN(8) UNAL;
      221     2991    1   DCL 1 MDS_CMD_ENDING_STAT REDEF MDS_STATUS_REG2,
PL6.E3A0      #001=THF$RAW File=THF$FORMAT.:E05TSI                               WED 07/30/97 06:08 Page:7
      222     2992    1       2 CMD_IDENT UBIN(8) UNAL,
      223     2993    1       2 ERROR_LOC UBIN(2) UNAL,
      224     2994    1       2 ERROR_CAT UBIN(2) UNAL,
      225     2995    1       2 ERROR_CODE UBIN(3) UNAL,
      226     2996    1       2 * UBIN(1) UNAL;
      227     2997    1   DCL 1 F_INDX UBIN(8) UNAL;
      228     2998    1   DCL 1 FRU_INDX(0:1) REDEF F_INDX UBIN(4) UNAL;
      229     2999    1   DCL 1 MAX_ENTRY UBIN;
      230     3000    1   DCL 1 OCTET_NUM SBIN;
      231     3001    1   DCL 1 BINHEX(0:15) CHAR(1) CONSTANT UNAL INIT('0','1','2','3','4','5','6',
      232     3002    1                      '7','8','9','A','B','C','D','E','F');
      233     3003    1   DCL 1 ASCII_EXTST(0:31),         /* ASCII FORMAT FOR EXTENDED STATUS */
      234     3004    1       2 * BIT(1) UNAL,
      235     3005    1       2 BYT UBIN(8) UNAL;
      236     3006    1   DCL 1 FRU_STRING STATIC,
      237     3007    1       2 * CHAR(4) UNAL INIT('  = '),
      238     3008    1       2 OCTET(0:3),
      239     3009    1         3 NIB1 CHAR(1) UNAL,
      240     3010    1         3 NIB2 CHAR(1) UNAL,
      241     3011    1         3 * CHAR(1) INIT(' '*0) UNAL;
      242     3012    1   DCL 1 FRU_STR REDEF FRU_STRING CHAR(16);
      243     3013    1   DCL 1 MDS_REG1 UBIN;
      244     3014    1   DCL 1 MDS_REG2 REDEF MDS_REG1,
      245     3015    1       2 * UBIN(20) UNAL,
      246     3016    1       2 OCTET(0:1) UBIN(8) UNAL;
      247     3017    1   DCL 1 MDS_CYL CHAR(4) UNAL;
      248     3018    1   DCL 1 MDS_SECTOR CHAR(2) UNAL;
      249     3019    1   DCL 1 MDS_HEAD CHAR(2) UNAL;
      250     3020    1   DCL FIPS_TAPE BIT(1);
      251     3021    1   DCL XST$ PTR;
      252     3022    1   DCL 1 XST_TEMP BASED(XST$),
      253     3023    1         2 N UBIN WORD;
      254     3024    1   DCL XSTBUF CHAR(6000) STATIC INIT(' ');
      255     3025    1   DCL 1 XSTVEC DALIGNED,
      256     3026    1         2 BOUND UBIN(20) UNAL,
      257     3027    1         2 * BIT(16) UNAL,
      258     3028    1         2 PTR$ PTR;
PL6.E3A0      #001=THF$RAW File=THF$FORMAT.:E05TSI                               WED 07/30/97 06:08 Page:8
      259     3029    1   DCL XST_TEXT CHAR(35);
      260     3030    1   DCL MDS_TEXT CHAR(80);
      261     3031    1   DCL 1 MDS_TEXT_POSITION SBIN;
      262     3032    1   DCL XST_CNT SBIN;
      263     3033    1   DCL NXST UBIN;
      264     3034    1   DCL N UBIN;
      265     3035    1   DCL MDSFMT CHAR(0) CONSTANT INIT('%N(%/%2-%T%) %10P');
      266     3036    1   DCL EVENFMT CHAR(0) CONSTANT INIT('%N(%/%2-%T%37-%T%) %10P');
      267     3037    1   DCL ODDFMT CHAR(0) CONSTANT INIT('%N(%/%2-%T%37-%T%) %/%2-%T %10P');
      268     3038    1   DCL ODDFLAG BIT(1);
      269     3039    1   DCL MAJBUF CHAR(32);
      270     3040    1   DCL MINBUF CHAR(32);
      271     3041    1   DCL MAJCNT SBIN WORD;
      272     3042    1   DCL MINCNT SBIN WORD;
      273     3043    1   DCL MMBUF CHAR(256) STATIC INIT(' ');
      274     3044    1   DCL MM$ PTR;
      275     3045    1   DCL 1 TXT_TEMP BASED(MM$),
      276     3046    1         2 N UBIN WORD;
      277     3047    1   DCL 1 MMVEC DALIGNED,
      278     3048    1         2 BOUND UBIN(20) UNAL,
      279     3049    1         2 * BIT(16) UNAL,
      280     3050    1         2 PTR$ PTR;
      281     3051    1   DCL SECTOR SBIN;
      282     3052    1   DCL CYL SBIN;
      283     3053    1   DCL HD SBIN;
      284     3054    1   DCL SE SBIN;
      285     3055    1   DCL IOMN CHAR(1);
      286     3056    1   DCL CPUN CHAR(1);     /* CPU NUMBER */
      287     3057    1   DCL SCUN CHAR(1);     /* SCU NUMBER */
      288     3058    1   DCL IOM_DEVN CHAR(8);
      289     3059    1   DCL CPU_DEVN CHAR(8);
      290     3060    1   DCL SCU_DEVN CHAR(8);
      291     3061    1   DCL SECBUF CHAR(20) STATIC INIT(' ');
      292     3062    1   DCL SEC$ PTR;
      293     3063    1   DCL CCYL CHAR(4);
      294     3064    1   DCL TEMPBUF(0:5) UBIN;
      295     3065    1   DCL CHD CHAR(3);
PL6.E3A0      #001=THF$RAW File=THF$FORMAT.:E05TSI                               WED 07/30/97 06:08 Page:9
      296     3066    1   DCL CSE CHAR(3);
      297     3067    1   DCL HDCH CHAR(2);
      298     3068    1   DCL SECH CHAR(2);
      299     3069    1   DCL 1 MT_POSITION STATIC CALIGNED,
      300     3070    1       2 FILE CHAR(4) UNAL,
      301     3071    1       2 * CHAR(1) INIT('-') UNAL,
      302     3072    1       2 RECCNT CHAR(6) UNAL;
      303     3073    1   DCL 1 DP_POSITION STATIC CALIGNED,
      304     3074    1       2 CYL CHAR(4) UNAL,
      305     3075    1       2 * CHAR(1) INIT('-') UNAL,
      306     3076    1       2 HD CHAR(2) UNAL,
      307     3077    1       2 * CHAR(1) INIT('-') UNAL,
      308     3078    1       2 SEC CHAR(2) UNAL;
      309     3079    1   DCL SEEK_ADDR CHAR(8) CALIGNED;
      310     3080    1   DCL 1 SECVEC DALIGNED,
      311     3081    1         2 BOUND UBIN(20) UNAL,
      312     3082    1         2 * BIT(16) UNAL,
      313     3083    1         2 PTR$ PTR;
      314     3084    1   DCL FC$ PTR;
      315     3085    1   DCL FCBUF CHAR(300) STATIC INIT(' ');
      316     3086    1   DCL 1 FCVEC DALIGNED,
      317     3087    1         2 BOUND UBIN(20) UNAL,
      318     3088    1         2 * BIT(16) UNAL,
      319     3089    1         2 PTR$ PTR;
      320     3090    1   DCL FC_TEXT CHAR(37);
      321     3091    1   DCL FC_CNT SBIN;
      322     3092    1   DCL FCPTR$ PTR;
      323     3093    1   DCL 1 FCTBL(0:71) BASED (FCPTR$) ALIGNED,
      324     3094    1         2 CODE UBIN BYTE UNAL,
      325     3095    1         2 COUNT UBIN BYTE UNAL,
      326     3096    1         2 TEXT CHAR(37) UNAL;
      327     3097    1   DCL FLT_REG BIT(72);
      328     3098    1   DCL FLT_REG_T(0:71) REDEF FLT_REG BIT(1);
      329     3099    1   DCL FLT_REG_TT(0:17) REDEF FLT_REG BIT(4);
      330     3100    1   DCL FCFMT CHAR(0) CONSTANT INIT('%/FAULT CODE:  %T%10P');
      331     3101    1   DCL FRFMT CHAR(0) CONSTANT INIT(
      332     3102    1       '%/FAULT REGISTER INTERPRETATION: %N(%/%5-%T%) %10P');
PL6.E3A0      #001=THF$RAW File=THF$FORMAT.:E05TSI                               WED 07/30/97 06:08 Page:10
      333     3103    1   DCL 1 FC_TEMP BASED (FC$),
      334     3104    1         2 N UBIN WORD;
      335     3105    1   DCL II UBIN;
      336     3106    1   DCL JJ UBIN;
      337     3107    1   DCL FCFLAG UBIN;
      338     3108    1   DCL BIT_CNT UBIN;
      339     3109    1   DCL FEP_COUNT UBIN;
      340     3110    1   DCL 1 SPTBL(0:6) BASED(SPC$) ALIGNED,
      341     3111    1         2 CODE CHAR(5) UNAL,
      342     3112    1         2 COUNT UBIN BYTE UNAL,
      343     3113    1         2 TEXT CHAR(35) UNAL;
      344     3114    1   DCL SP_BIT(0:4) CHAR(1) STATIC INIT(' '*0);
      345     3115    1   DCL SPBIT$ PTR STATIC INIT(ADDR(SP_BIT));
      346     3116    1   DCL SP_CHAR CHAR(LENN) BASED(SPBIT$);
      347     3117    1   DCL LENN UBIN;
      348     3118    1   DCL SPC$ PTR;
      349     3119    1   DCL DP_BIT(0:3) BIT(1);
      350     3120    1   DCL DP_FORMAT REDEF DP_BIT UBIN(4) UNAL;
      351     3121    1   DCL DP_FORM_MSG REDEF DP_BIT UBIN(4) UNAL;
      352     3122    1   DCL FT_BIT(0:7) BIT(1);
      353     3123    1   DCL FT_CODE REDEF FT_BIT UBIN(8) UNAL;
      354     3124    1   DCL 1 DP_FORM_TBL(0:15) BASED(DPC$) ALIGNED,
      355     3125    1         2 CODE UBIN(4) UNAL,
      356     3126    1         2 COUNT UBIN BYTE UNAL,
      357     3127    1         2 TEXT CHAR(30) UNAL;
      358     3128    1   DCL DPC$ PTR;
      359     3129    1   DCL ERR_MSG STATIC CHAR(120) INIT(' ');
      360     3130    1   DCL ERR_MSG_T CHAR(43);
      361     3131    1   DCL COMPONENT_HDR CHAR(0) CONSTANT INIT(
      362     3132        '%/COMPONENT - %1.20P%4A      ICCCDD - %1.5.0.6P%1.3D%3.9ZD%1.5P%2.6ZD%/
      363     3133                  COUNT  ERROR TYPE%/
      364     3134    1             -----  ----------%10P');
      365     3135    1   DCL COMPONENT_FMT BIT(72) DALIGNED STATIC INIT(VECTOR(COMPONENT_HDR));
      366     3136    1   DCL STATUS_DATA CHAR(0) CONSTANT INIT(
      367     3137    1   '       %1P%3D    %2P%35A%10P');
      368     3138    1   DCL STATUS_FMT BIT(72) DALIGNED STATIC INIT(VECTOR(STATUS_DATA));
      369     3139    1   DCL NO_XSTAT_HDR CHAR(0) CONSTANT INIT(
PL6.E3A0      #001=THF$RAW File=THF$FORMAT.:E05TSI                               WED 07/30/97 06:08 Page:11
      370     3140        '%/%2P %8-%3D %3P %13-%T,%28-%T %1.1P %48-%2.6ZO/%51-%2.6ZO %/
      371     3141    1                          Device Id-%1.24P%8A Tracks-%2.19P%1A Operation-%2.1P%8A %10P'
              3141        '%/%2P %8-%3D %3P %13-%T,%28-%T %1.1P %48-%2.6ZO/%51-%2.6ZO %/            Device Id-
              3141        %1.24P%8A Tracks-%2.19P%1A Operation-%2.1P%8A %10P');
      372     3142    1   DCL NO_XSTAT_FMT BIT(72) DALIGNED STATIC INIT(VECTOR(NO_XSTAT_HDR));
      373     3143    1   DCL NON_TAPE_HDR CHAR(0) CONSTANT INIT(
      374     3144    1   '%/%2P %8-%3D %3P %13-%T,%28-%T %1.1P %48-%2.6ZO/%51-%2.6ZO %10P');
      375     3145    1   DCL NON_TAPE_FMT BIT(72) DALIGNED STATIC INIT(VECTOR(NON_TAPE_HDR));
      376     3146    1   DCL NINE_TRK_HDR CHAR(0) CONSTANT INIT(
      377     3147        '            Data/Trk in Err 0/7  1/6  2/5  3/3  4/9  5/1  6/8  7/2  P/4 %/
      378     3148    1                     err counts =   %1P%3A  %3A  %3A  %3A  %3A  %3A  %3A  %3A  %3A%10P'
              3148        '            Data/Trk in Err 0/7  1/6  2/5  3/3  4/9  5/1  6/8  7/2  P/4 %/
              3148            err counts =   %1P%3A  %3A  %3A  %3A  %3A  %3A  %3A  %3A  %3A%10P');
      379     3149    1   DCL NINE_TRK_FMT BIT(72) DALIGNED STATIC INIT(VECTOR(NINE_TRK_HDR));
      380     3150    1   DCL SEVEN_TRK_HDR CHAR(0) CONSTANT INIT(
      381     3151        '            Data/Trk in Err           2/6  3/5  4/4  5/3  6/2  7/1  P/7 %/
      382     3152    1                     err counts =             %1P%3A  %3A  %3A  %3A  %3A  %3A  %3A%10P'
              3152        '            Data/Trk in Err           2/6  3/5  4/4  5/3  6/2  7/1  P/7 %/
              3152            err counts =             %1P%3A  %3A  %3A  %3A  %3A  %3A  %3A%10P');
      383     3153    1   DCL SEVEN_TRK_FMT BIT(72) DALIGNED STATIC INIT(VECTOR(SEVEN_TRK_HDR));
      384     3154    1   DCL EXTENDED_HDR CHAR(0) CONSTANT INIT(
      385     3155    1   '            EXTENDED STATUS:%10P');
      386     3156    1   DCL EXTENDED_FMT BIT(72) DALIGNED STATIC INIT(VECTOR(EXTENDED_HDR));
      387     3157    1   DCL NEW_OP BIT(36);
      388     3158    1   DCL NEW_OP_RDF(0:5) REDEF NEW_OP BIT(6);
      389     3159    1   DCL OPERATION CHAR(8);
      390     3160    1   DCL 1 OTHER_IOERR_TBL STATIC SYMDEF ALIGNED,
      391     3161    1         2 COUNT UBIN WORD,
      392     3162    1         2 OPERATION CHAR(8),
      393     3163    1         2 SPEED CHAR(32),
      394     3164    1         2 DENSITY CHAR(32),
      395     3165    1         2 TRACK CHAR(1);
      396     3166    1   DCL 1 XSTAT_TBL(0:207) STATIC SYMDEF ALIGNED,
      397     3167    1         2 COUNT UBIN WORD,
      398     3168    1         2 TEXT CHAR(35);
      399     3169    1   DCL ALL_MATCH BIT(1);
      400     3170    1   DCL DEV_OP$ PTR;
PL6.E3A0      #001=THF$RAW File=THF$FORMAT.:E05TSI                               WED 07/30/97 06:08 Page:12
      401     3171    1   DCL 1 DEV_OP_TBL(0:30) BASED(DEV_OP$) ALIGNED,
      402     3172    1         2 CODE BIT(6) UNAL,
      403     3173    1         2 COUNT UBIN BYTE UNAL,
      404     3174    1         2 TEXT CHAR(8) UNAL;
      405     3175    1   DCL OLD_DENSE UBIN(8) UNAL;
      406     3176    1   DCL 1 OLD_DENSE_RDF REDEF OLD_DENSE,
      407     3177    1       2 DENSITY UBIN(3) UNAL,
      408     3178    1       2 * UBIN(5) UNAL;
      409     3179    1   DCL NEW_DENSE UBIN(8) UNAL;
      410     3180    1   DCL 1 NEW_DENSE_RDF REDEF NEW_DENSE,
      411     3181    1       2 DENSITY UBIN(3) UNAL,
      412     3182    1       2 * UBIN(5) UNAL;
      413     3183    1   DCL NUM_XSTATUS UBIN WORD ALIGNED;
      414     3184    1   DCL TRACK_NINE BIT(1);
      415     3185    1   DCL TRACK_SEVEN BIT(1);
      416     3186    1   DCL FOUND_ST BIT(1);
      417     3187    1   DCL 1 NINE_TRACK_TBL STATIC SYMDEF CALIGNED,
      418     3188    1         2 SEVEN UBIN BYTE CALIGNED,
      419     3189    1         2 SIX UBIN BYTE CALIGNED,
      420     3190    1         2 FIVE UBIN BYTE CALIGNED,
      421     3191    1         2 THREE UBIN BYTE CALIGNED,
      422     3192    1         2 NINE UBIN BYTE CALIGNED,
      423     3193    1         2 ONE UBIN BYTE CALIGNED,
      424     3194    1         2 EIGHT UBIN BYTE CALIGNED,
      425     3195    1         2 TWO UBIN BYTE CALIGNED,
      426     3196    1         2 FOUR UBIN BYTE CALIGNED;
      427     3197    1   DCL 1 NINE_TRACK_RDF(0:8) REDEF NINE_TRACK_TBL UBIN BYTE CALIGNED;
      428     3198    1   DCL NINE_TRACK_BLNK(0:8) CHAR(3);
      429     3199    1   DCL NINE_TRACK_STRING REDEF NINE_TRACK_BLNK CHAR(27);
      430     3200    1   DCL NO_LEADING_ZEROS(0:2) BIT(9) CONSTANT UNAL INIT(%MVZB2,%SES10,%MVC1);
      431     3201    1   DCL FEP_HDR CHAR(0) CONSTANT INIT(
      432     3202        '%/FEP# - %3.16D  CHAN - %1.5.2.1P%2.8ZH%1.5.3.1P%2.8ZH%/
      433     3203        COUNT       ERROR CODE    ERROR MESSAGE%/
      434     3204    1   %5(-%)       %12(-%)  %44(-%)%10P');
      435     3205    1   DCL FEP_FMT BIT(72) DALIGNED STATIC INIT(VECTOR(FEP_HDR));
      436     3206        %FPT_ERRMSG (FPTN = ERR_MSGS,
      437     3207                     BUF = ERR_MSG,
PL6.E3A0      #001=THF$RAW File=THF$FORMAT.:E05TSI                               WED 07/30/97 06:08 Page:13
      438     3208                     CODE = FEPERR_CODE,
      439     3209                     INCLCODE=NO,
      440     3210                     FILEACCT = ERR_MSG_ACCT,
      441     3211                     RESULTS = TEMP_VLR,
      442     3212                     FILENAME = ERR_MSG_NAME);
      443     3239        %FPT_TIME (FPTN=LOC_DATE,
      444     3240                   STCLASS=CONSTANT,
      445     3241                   SOURCE=UTS,
      446     3242                   TSTAMP=LOC_UTS,
      447     3243                   DATE=DBUF,
      448     3244                   TIME=TBUF,
      449     3245                   DEST=LOCAL);
      450     3264        %VLP_ACCT (FPTN = ERR_MSG_ACCT,
      451     3265                   ACCT = ':SYS');
      452     3278        %VLP_NAME (FPTN = ERR_MSG_NAME,
      453     3279                   NAME = ':GGERRMSG');
      454     3306        %VLR_ERRMSG (FPTN = TEMP_VLR);
      455     3328        /**/
      456     3329        /* MACRO INVOCATIONS */
      457     3330        %CTL (STCLASS="BASED(CTL$)");
      458     3340        %EL$ENTRY (NAME=RECORD,STCLASS="BASED(TH_RECORD.PTR$)");
      459     3344        %EL$IOERR (STCLASS="BASED(INFO.PTR$)");
      460     3354        %EL$SCREECH (STCLASS="BASED(INFO.PTR$)");
      461     3360        %EL$FILERR (STCLASS="BASED(INFO.PTR$)");
      462     3367        %EL$FWLOAD (STCLASS="BASED(INFO.PTR$)");
      463     3370        %EL$OSFI (STCLASS="BASED(INFO.PTR$)");
      464     3377        %EL$SPURINT (STCLASS="BASED(INFO.PTR$)");
      465     3381        %EL$MTDMT (STCLASS="BASED(INFO.PTR$)");
      466     3384        %EL$FECRASH (STCLASS="BASED(INFO.PTR$)");
      467     3389        %EL$FEPFLT (STCLASS="BASED(INFO.PTR$)");
      468     3392        %EL$OPER (STCLASS="BASED(INFO.PTR$)");
      469     3395        %EL$CMPSTRT (STCLASS="BASED(INFO.PTR$)");
      470     3398        %EL$PROCERR (STCLASS="BASED(INFO.PTR$)");
      471     3408        %EL$EDAC (STCLASS="BASED(INFO.PTR$)");
      472     3417        %EL$GABRT (STCLASS="BASED(INFO.PTR$)");
      473     3422        %EL$SYSCON (STCLASS="BASED(INFO.PTR$)");
      474     3426        %EL$ANLZ (STCLASS="BASED(INFO.PTR$)");
PL6.E3A0      #001=THF$RAW File=THF$FORMAT.:E05TSI                               WED 07/30/97 06:08 Page:14
      475     3430        %EL$MPCSTATS (STCLASS="BASED(INFO.PTR$)");
      476     3433        %EL$DEVSTATS (STCLASS="BASED(INFO.PTR$)");
      477     3436        %EL$FEPERR (STCLASS="BASED(INFO.PTR$)");
      478     3515        %EL$ZAP (STCLASS="BASED(INFO.PTR$)");
      479     3518        %EL$CGERR (STCLASS="BASED(INFO.PTR$)");
      480     3522        %EL$DIAG (STCLASS="BASED(INFO.PTR$)");
      481     3525        %VLR_SITEINFO (FPTN=EL$SYSID,STCLASS="BASED(INFO.PTR$)");
      482     3544        %EL$FEPERR (NAME=FEPERR_TBL,STCLASS="STATIC SYMDEF");
      483     3623        %EL$IOERR (NAME=IOERR_TBL,STCLASS="STATIC SYMDEF");
      484     3633        %EL$CHANTRAN (STCLASS="BASED(INFO.PTR$)");
      485     3637        %EL$MSOSSAYS (STCLASS="BASED(INFO.PTR$)");
      486     3643        %EL$CP6SAYS (STCLASS="BASED(INFO.PTR$)");
      487     3649        %EL$CHNGAARD (STCLASS="BASED(INFO.PTR$)");
      488     3653        %EL$MIRROR (STCLASS="BASED(INFO.PTR$)");
      489     3657        %F_FDS(NAME=FDS_PR71,NVECS=1,TRUNC=YES,VECTR=PR71_VECTOR_TBL,
      490     3658               BUF=PR71_BUF);
      491     3771        /**/
      492     3772        %SUB NUMMODELS = 29;    /* THE MAX IS 29, THERE ARE 9 EXTRA SLOTS NOW! */
      493     3773        /**/
      494     3774        %EJECT;
PL6.E3A0      #001=THF$RAW File=THF$FORMAT.:E05TSI                               WED 07/30/97 06:08 Page:15
      495     3775    1        IF TH_RECOV AND (TH_ITYPE = %TH_SUA OR TH_ITYPE = %TH_SNAP)
      496     3776    1           THEN TH_ITYPE = %TH_SCREECH;
      497     3777    1        CTL$ = FMTTBL$(TH_ITYPE);
      498     3778    1        IF CTL$ = ADDR(NIL) OR TH_ITYPE > %TH_LASTITYPE
      499     3779    2           THEN DO;                        /* DUMP RECORD IN OCTAL               */
      500     3780    2              LOC_UTS = RECORD.UTS;
      501     3781    2              CALL M$TIME(LOC_DATE);
      502     3782    2              TYPE = RECORD.TYPE;
      503     3783    2              CALL THW$WRITE(VECTOR(DUMP_HDR),
      504     3784    2                             VECTOR(TYPE),
      505     3785    2                             VECTOR(DBUF),
      506     3786    2                             VECTOR(TBUF));
      507     3787    2              CALL THF$DUMP(TH_RECORD.PTR$);
      508     3788    2              TH_LASTTYPE = -1;
      509     3789    2              RETURN;
      510     3790    2              END;
      511     3791    1        IF TH_DETAIL_FLG AND TH_IOERR_FLG
      512     3792    1        THEN CALL THF$IOERR;
      513     3793    1        ELSE IF TH_FEPERR_FLG AND TH_DETAIL_FLG
      514     3794    1        THEN CALL THF$FEPERR;
      515     3795    2        ELSE DO;
      516     3796    2        INFO = TH_INFO;
      517     3797    2        TEXTBUF = ' ';
      518     3798    2        TEXT$ = ADDR(TEXTBUF);
      519     3799    2        MMBUF = ' ';
      520     3800    2        MM$ = ADDR(MMBUF);
      521     3801    2        SECBUF = ' ';
      522     3802    2        SEC$ = ADDR(SECBUF);
      523     3803    3        DO I = 0 TO 5;
      524     3804    3          TEMPBUF(I) = 0;
      525     3805    3        END;
      526     3806    2        CYL = 0;
      527     3807    2        HD = 0;
      528     3808    2        SE = 0;
      529     3809    3        DO CASE(TH_ITYPE);
      530     3810    3            CASE(%TH_CMPSTRT);
      531     3811    3              CALL BUILDTIME(EL$CMPSTRT.LAST_STATE_CHANGE);
PL6.E3A0      #001=THF$RAW File=THF$FORMAT.:E05TSI                               WED 07/30/97 06:08 Page:16
      532     3812    4              DO CASE(EL$CMPSTRT.STATE);
      533     3813    4               CASE(0);
      534     3814    4                 CALL ADD_TEXTC('STOPPED',7);
      535     3815    4               CASE(1,2);
      536     3816    4                 IF EL$CMPSTRT.PNO=0
      537     3817    4                 THEN CALL ADD_TEXTC('MASTER RUNNING',14);
      538     3818    4                 ELSE CALL ADD_TEXTC('RUNNING',7);
      539     3819    4               CASE(ELSE);
      540     3820    4                 CALL ADD_TEXTC('HUNG UP',7);
      541     3821    4               END;
      542     3822    3            CASE(%TH_MOUNT,%TH_DSMT);
      543     3823    3              IF TH_ITYPE = %TH_MOUNT
      544     3824    3                 THEN CALL ADD_TEXTC('MOUNT',5);
      545     3825    3                 ELSE CALL ADD_TEXTC('DISMOUNT',8);
      546     3826    3            CASE(%TH_FWLOAD);
      547     3827    3              IF EL$FWLOAD.LOADED THEN CALL ADD_TEXTC('SUCCESSFUL',10);
      548     3828    3              ELSE CALL ADD_TEXTC('FAILED',6);
      549     3829    3            CASE(%TH_SPURINT);
      550     3830    4              IF EL$SPURINT.STATUS.DOWN THEN DO CASE(EL$SPURINT.STATUS.TND);
      551     3831    4               CASE(0);
      552     3832    4                 CALL ADD_TEXTC('PART ',5);
      553     3833    4               CASE(1);
      554     3834    4                 CALL ADD_TEXTC('POLTS',5);
      555     3835    4               CASE(2);
      556     3836    4                 CALL ADD_TEXTC('ITR  ',5);
      557     3837    4               CASE(3);
      558     3838    4                 CALL ADD_TEXTC('MDR  ',5);
      559     3839    4               CASE(ELSE);
      560     3840    4                 CALL ADD_TEXTC('?????',5);
      561     3841    4               END;
      562     3842    3              ELSE CALL ADD_TEXTC('     ',5);
      563     3843    4              DO CASE(EL$SPURINT.STATE);
      564     3844    4               CASE(0);
      565     3845    4                 CALL ADD_TEXTC('IDLE',4);
      566     3846    4               CASE(1);
      567     3847    4                 CALL ADD_TEXTC('REQUESTED',9);
      568     3848    4               CASE(2);
PL6.E3A0      #001=THF$RAW File=THF$FORMAT.:E05TSI                               WED 07/30/97 06:08 Page:17
      569     3849    4                 CALL ADD_TEXTC('ASSIGNED',8);
      570     3850    4               CASE(3);
      571     3851    4                 CALL ADD_TEXTC('SPWAIT',6);
      572     3852    4               CASE(4);
      573     3853    4                 CALL ADD_TEXTC('KIWAIT',6);
      574     3854    4               CASE(5);
      575     3855    4                 CALL ADD_TEXTC('BUSY',4);
      576     3856    4               CASE(6);
      577     3857    4                 CALL ADD_TEXTC('SUSPENDED',9);
      578     3858    4               CASE(ELSE);
      579     3859    4                 CALL ADD_TEXTC('UNKNOWN',7);
      580     3860    4               END;
      581     3861    3            CASE(%TH_SCREECH,%TH_SUA,%TH_SNAP);
      582     3862    3              CALL ERROR_CODE(EL$SCREECH.SCODE);
      583     3863    4              IF EL$SCREECH.DUMP~=0 THEN DO;
      584     3864    4                 CALL ADD_TEXTC('NONE',4);
      585     3865    4                 END;
      586     3866    4              ELSE DO;
      587     3867    4                 DFNAME.N=SIZEC(DFNAME)-1;
      588     3868    4                 DFNAME.DF=':DF';
      589     3869    4                 DFNAME.MONID = EL$SCREECH.MONID;
      590     3870    4                 CALL BINCHAR(DFNAME.SCOUNT,EL$SCREECH.SCOUNT);
      591     3871    4                 TEXT$=PINCRC(TEXT$,SIZEC(DFNAME));
      592     3872    4                 END;
      593     3873    3              IF (MASK & EL$SCREECH.RTRAP)
      594     3874    4                 THEN DO;
      595     3875    4                    CALL ADD_TEXTC('TRAPPED',7);
      596     3876    4                 END;
      597     3877    4                 ELSE DO;
      598     3878    4                    CALL ADD_TEXTC(' ',1);
      599     3879    4                 END;
      600     3880    3            CASE(%TH_FI);
      601     3881    3              CALL INSERT(TEXTBUF,1,3,'DP#');
      602     3882    3              I=4;
      603     3883    3               CALL INDEX(JUNK,' ',EL$FILERR.SN);
      604     3884    3              CALL INSERT(TEXTBUF,I,JUNK,EL$FILERR.SN);
      605     3885    3              I=I+JUNK;
PL6.E3A0      #001=THF$RAW File=THF$FORMAT.:E05TSI                               WED 07/30/97 06:08 Page:18
      606     3886    4              IF EL$FILERR.FNAME.L>0 THEN DO;
      607     3887    4                 CALL INSERT(TEXTBUF,I,EL$FILERR.FNAME.L+1,'/',EL$FILERR.FNAME.C);
      608     3888    4                 I=I+EL$FILERR.FNAME.L+1;
      609     3889    4                 END;
      610     3890    3                  CALL INDEX(JUNK,' ',EL$FILERR.ACCT);
      611     3891    4              IF JUNK>0 THEN DO;
      612     3892    4                 CALL INSERT(TEXTBUF,I,JUNK+1,'.',EL$FILERR.ACCT);
      613     3893    4                 I=I+JUNK+1;
      614     3894    4                 END;
      615     3895    3              TEXT$=PINCRC(TEXT$,I);
      616     3896    3              CALL INSERT(TEXTBUF,0,1,BINASC(I-1));
      617     3897    3              IF (SUBSTR(EL$FILERR.DEVNM,0,2) = 'DP')
      618     3898    3                THEN
      619     3899    4                 DO I = 0 TO TH_NUM_DEVS - 1;
      620     3900    4                   IF TH_SYS_DEVS.DEVN(I) = EL$FILERR.DEVNM
      621     3901    4                      THEN GOTO FOUND;
      622     3902    4                 END;
      623     3903    3   FOUND:
      624     3904    3                 SECTOR = EL$FILERR.SECTOR;
      625     3905    4                DO SELECT( TH_SYS_DEVS.MODEL(I) );
      626     3906    4                  SELECT('MSU0501','MSU0509');
      627     3907    4                      CYL = SECTOR/(8*40);
      628     3908    4                      HD = MOD(SECTOR /8,40);
      629     3909    4                      SE = MOD(SECTOR,8);
      630     3910    4                  SELECT('MSU0451');
      631     3911    4                      CYL = SECTOR / (40*19);
      632     3912    4                      HD = MOD(SECTOR/40,19);
      633     3913    4                      SE = MOD(SECTOR,40);
      634     3914    4                  SELECT('MSU3380','MSU3381','MSU3382','MSU3383',  /* FIPS D&E */
      635     3915    4                         'MSU3390','MSU3391','MSU3392','MSU3393'); /* FIPS J&K */
      636     3916    4                     CYL = SECTOR / (17*15);
      637     3917    4                     HD = MOD(SECTOR/17,15);
      638     3918    4                     SE = MOD(SECTOR,17);
      639     3919    4                  SELECT('MSU8082');                   /* MDS I - FDS II        */
      640     3920    4                      CYL = SECTOR / (11*24);
      641     3921    4                      HD = MOD(SECTOR/11,24);
      642     3922    4                      SE = MOD(SECTOR,11);
PL6.E3A0      #001=THF$RAW File=THF$FORMAT.:E05TSI                               WED 07/30/97 06:08 Page:19
      643     3923    4                  SELECT('MSU8092');                  /* MDS II - SABRE V       */
      644     3924    4                      CYL = SECTOR / (19*15);
      645     3925    4                      HD = MOD(SECTOR/19,15);
      646     3926    4                      SE = MOD(SECTOR,19);
      647     3927    4                  END;  /*SELECT*/
      648     3928    3            CASE(%TH_CGERR);
      649     3929    3              CALL INSERT(TEXTBUF,1,3,'DP#');
      650     3930    3              I=4;
      651     3931    3                 CALL INDEX(JUNK,' ',EL$CGERR.PSN);
      652     3932    3              CALL INSERT(TEXTBUF,I,JUNK,EL$CGERR.PSN);
      653     3933    3              I=I+JUNK;
      654     3934    4              IF EL$CGERR.FNAME.L>0 THEN DO;
      655     3935    4                 CALL INSERT(TEXTBUF,I,EL$CGERR.FNAME.L+1,'/',EL$CGERR.FNAME.C);
      656     3936    4                 I=I+EL$CGERR.FNAME.L+1;
      657     3937    4                 END;
      658     3938    3            CALL INDEX(JUNK,' ',EL$CGERR.ACCT);
      659     3939    4              IF JUNK>0 THEN DO;
      660     3940    4                 CALL INSERT(TEXTBUF,I,JUNK+1,'.',EL$CGERR.ACCT);
      661     3941    4                 I=I+JUNK+1;
      662     3942    4                 END;
      663     3943    3              TEXT$=PINCRC(TEXT$,I);
      664     3944    3              CALL INSERT(TEXTBUF,0,1,BINASC(I-1));
      665     3945    3            CASE(%TH_GABRT);
      666     3946    3              CALL ERROR_CODE(EL$GABRT.ERR);
      667     3947    3              CALL ERROR_CODE(EL$GABRT.USRERR);
      668     3948    3            CASE(%TH_EDAC);
      669     3949    4              DO CASE(EL$EDAC.PORT#);
      670     3950    4                 CASE(0);                  /* PORT A                             */
      671     3951    4                    CALL ADD_TEXTC('A',1);
      672     3952    4                 CASE(1);                  /* PORT B                             */
      673     3953    4                    CALL ADD_TEXTC('B',1);
      674     3954    4                 CASE(2);                  /* PORT C                             */
      675     3955    4                    CALL ADD_TEXTC('C',1);
      676     3956    4                 CASE(3);                  /* PORT D                             */
      677     3957    4                    CALL ADD_TEXTC('D',1);
      678     3958    4              END;                         /* CASE EL$EDAC.PORT#                 */
      679     3959    4              DO CASE(EL$EDAC.STORE_UNIT);
PL6.E3A0      #001=THF$RAW File=THF$FORMAT.:E05TSI                               WED 07/30/97 06:08 Page:20
      680     3960    4                 CASE(0);                  /* A                                  */
      681     3961    4                    CALL ADD_TEXTC('A ',2);
      682     3962    4                 CASE(1);                  /* A1                                 */
      683     3963    4                    CALL ADD_TEXTC('A1',2);
      684     3964    4                 CASE(2);                  /* B                                  */
      685     3965    4                    CALL ADD_TEXTC('B ',2);
      686     3966    4                 CASE(3);                  /* B1                                 */
      687     3967    4                    CALL ADD_TEXTC('B1',2);
      688     3968    4              END;                         /* CASE EL$EDAC.STORE_UNIT            */
      689     3969    3              CALL EDAC(INFO.PTR$,BORD,CHP);
      690     3970    3              CALL ADD_TEXTC(BORD,1);
      691     3971    3              CALL ADD_TEXTC(CHP,3);
      692     3972    3            CASE(%TH_FEPERR);
      693     3973    3              FEPERR_CODE = EL$FEPERR.STATDATA.ERRCODE;
      694     3974    3              IF INFO.BOUND > SIZEC(EL$FEPERR.STATDATA)
      695     3975    4                 THEN DO;                  /* DYNAMIC DATA IS PRESENT            */
      696     3976    4                    NUMBYTES = INFO.BOUND - SIZEC(EL$FEPERR.STATDATA);
      697     3977    4                    CALL ADD_TEXTC(' YES',4);
      698     3978    4                 END;
      699     3979    4                 ELSE DO;                  /* NO DYNAMIC DATA                    */
      700     3980    4                    NUMBYTES = 0;
      701     3981    4                    CALL ADD_TEXTC('  NO',4);
      702     3982    4                 END;
      703     3983    3              CALL ERROR_CODE(FEPERR_CODE);
      704     3984    3              ERR_MSG = ' ';
      705     3985    3              CALL M$ERRMSG (ERR_MSGS) ALTRET(NO_MSG);
      706     3986    3              I = 0;
      707     3987    4              DO WHILE (SUBSTR(ERR_MSG,I,1) = ' ');
      708     3988    4                 I = I + 1;
      709     3989    4              END;
      710     3990    3              ERR_MSG_T = SUBSTR(ERR_MSG,I,43);
      711     3991    3              CALL ADD_TEXTC (ERR_MSG_T,43);
      712     3992    4              DO NEVER;
      713     3993    4   NO_MSG:       CALL ADD_TEXTC ('NO ERROR MESSAGE',16);
      714     3994    4              END;
      715     3995    3            CASE(%TH_MIRROR);
      716     3996    3              IF EL$MIRROR.PRI
PL6.E3A0      #001=THF$RAW File=THF$FORMAT.:E05TSI                               WED 07/30/97 06:08 Page:21
      717     3997    3                 THEN CALL ADD_TEXTC('P',1);
      718     3998    3                 ELSE CALL ADD_TEXTC('S',1);
      719     3999    4              DO CASE(EL$MIRROR.STATE.NEW);
      720     4000    4                 CASE(%NI_MIRROR_FAIL);
      721     4001    4                   CALL ADD_TEXTC('FAIL',4);
      722     4002    4                 CASE(%NI_MIRROR_OPER);
      723     4003    4                   CALL ADD_TEXTC('OPER',4);
      724     4004    4                 CASE(%NI_MIRROR_REST);
      725     4005    4                   CALL ADD_TEXTC('REST',4);
      726     4006    4                 CASE(%NI_MIRROR_WAIT);
      727     4007    4                   CALL ADD_TEXTC('WAIT',4);
      728     4008    4                 CASE(%NI_MIRROR_NONE);
      729     4009    4                   CALL ADD_TEXTC('NONE',4);
      730     4010    4              END;
      731     4011    3            CASE(%TH_SYSCON);
      732     4012    4              DO CASE(EL$SYSCON.FUNCTION);
      733     4013    4                 CASE(1);                  /* PARTITION                          */
      734     4014    4                    CALL ADD_TEXTC('PARTITION',9);
      735     4015    4                 CASE(2);                  /* RETURN                             */
      736     4016    4                    CALL ADD_TEXTC('RETURN',6);
      737     4017    4                 CASE(3);                   /* DISPLAY */
      738     4018    4                    CALL ADD_TEXTC('DISPLAY',7);
      739     4019    4                 CASE(4);                  /* SETFLAG */
      740     4020    4                    CALL ADD_TEXTC('SETFLAG',7);
      741     4021    4                 CASE(5);                    /* RELEASE */
      742     4022    4                    CALL ADD_TEXTC('RELEASE',7);
      743     4023    4              END;                         /* CASE FUNCTION                      */
      744     4024    4              DO CASE(EL$SYSCON.COMPONENT);
      745     4025    4                CASE(%CHANNEL#);               /* CHANNEL                            */
      746     4026    4                   CALL ADD_TEXTC('CHAN',4);
      747     4027    4                   STRT = 0;
      748     4028    4                   CALL BINCHAR(TEMP1,EL$SYSCON.IOM);
      749     4029    4                   J = 0;
      750     4030    5                   DO WHILE (SUBSTR(TEMP1,J,1) = '0');
      751     4031    5                      J = J + 1;
      752     4032    5                   END;                    /* DO WHILE                           */
      753     4033    4                   LEN = 63 - J;
PL6.E3A0      #001=THF$RAW File=THF$FORMAT.:E05TSI                               WED 07/30/97 06:08 Page:22
      754     4034    4                   IF LEN = 0
      755     4035    4                      THEN
      756     4036    5                      DO;
      757     4037    5                         LEN = 1;
      758     4038    5                         J = 0;
      759     4039    5                      END;                 /* IF LEN = 0                         */
      760     4040    4                   CALL INSERT(TEMP2,STRT,LEN+1,SUBSTR(TEMP1,J,LEN),'-');
      761     4041    4                   STRT = STRT + LEN + 1;
      762     4042    4                   CALL BINCHAR(TEMP1,EL$SYSCON.CHAN);
      763     4043    4                   J = 0;
      764     4044    5                   DO WHILE (SUBSTR(TEMP1,J,1) = '0');
      765     4045    5                       J = J + 1;
      766     4046    5                   END;                    /* DO WHILE                           */
      767     4047    4                   LEN = 63 - J;
      768     4048    4                   IF LEN = 0
      769     4049    4                      THEN
      770     4050    5                      DO;
      771     4051    5                         LEN = 1;
      772     4052    5                         J = 0;
      773     4053    5                      END;                 /* IF LEN = 0                         */
      774     4054    4                   CALL INSERT(TEMP2,STRT,LEN,SUBSTR(TEMP1,J,LEN));
      775     4055    4                   STRT = STRT + LEN;
      776     4056    4                   CALL ADD_TEXTC(TEMP2,STRT);
      777     4057    4                   CALL ADD_TEXTC(' ',1);
      778     4058    4                CASE(%DVC#);                   /* DEVICE                             */
      779     4059    4                   CALL ADD_TEXTC('DVC',3);
      780     4060    4                   CALL ADD_TEXTC(' ',1);
      781     4061    4                   CALL ADD_TEXTC(EL$SYSCON.DEVNM,8);
      782     4062    4                CASE(%MPC#);                   /* MPC                                */
      783     4063    4                   CALL ADD_TEXTC('MPC',3);
      784     4064    4                   CALL ADD_TEXTC(' ',1);
      785     4065    4                   CALL ADD_TEXTC(EL$SYSCON.DEVNM,8);
      786     4066    4                CASE(%FEP##);                  /* FEP                                */
      787     4067    4                   CALL ADD_TEXTC('FEP',3);
      788     4068    4                   CALL BINCHAR(TEMP1,EL$SYSCON.CHAN);
      789     4069    4                   J = 0;
      790     4070    5                   DO WHILE (SUBSTR(TEMP1,J,1) = '0');
PL6.E3A0      #001=THF$RAW File=THF$FORMAT.:E05TSI                               WED 07/30/97 06:08 Page:23
      791     4071    5                      J = J + 1;
      792     4072    5                   END;                    /* DO WHILE                           */
      793     4073    4                   LEN = 63 - J;
      794     4074    4                   IF LEN = 0
      795     4075    4                      THEN
      796     4076    5                      DO;
      797     4077    5                         LEN = 1;
      798     4078    5                         J = 0;
      799     4079    5                      END;                 /* IF LEN = 0                         */
      800     4080    4                   CALL INSERT(TEMP2,0,LEN+4,'FEP#',SUBSTR(TEMP1,J,LEN));
      801     4081    4                   CALL ADD_TEXTC(TEMP2,LEN+4);
      802     4082    4                   CALL ADD_TEXTC(' ',1);
      803     4083    4                CASE(%IOM##);                      /* IOM           */
      804     4084    4                   IOM_DEVN = ' ';
      805     4085    4                   CALL BINCHAR(IOMN,EL$SYSCON.IOM);
      806     4086    4                   CALL CONCAT(IOM_DEVN,'IOM',IOMN);
      807     4087    4                   CALL ADD_TEXTC('IOM',3);
      808     4088    4                   CALL ADD_TEXTC(' ',1);
      809     4089    4                   CALL ADD_TEXTC(IOM_DEVN,8);
      810     4090    4                CASE(%CPU##);
      811     4091    4                   CALL ADD_TEXTC('CPU',3);
      812     4092    4                   CALL ADD_TEXTC(' ',1);
      813     4093    4                   CPU_DEVN = ' ';
      814     4094    4                   CALL BINCHAR(CPUN, EL$SYSCON.IOM);   /* CPU PORT # */
      815     4095    4                   CALL CONCAT(CPU_DEVN, 'CPU', CPUN);
      816     4096    4                   CALL ADD_TEXTC(CPU_DEVN,8);
      817     4097    4                CASE(%SCU##);
      818     4098    4                   CALL ADD_TEXTC('SCU', 3);
      819     4099    4                   CALL ADD_TEXTC(' ', 1);
      820     4100    4                   SCU_DEVN = ' ';
      821     4101    4                   CALL BINCHAR(SCUN, EL$SYSCON.IOM);   /* SCU PORT # */
      822     4102    4                   CALL CONCAT(SCU_DEVN,'SCU',SCUN);
      823     4103    4                   CALL ADD_TEXTC(SCU_DEVN,8);
      824     4104    4              END;                         /* CASE COMPONENT                     */
      825     4105    3            CASE(%TH_SYSID);
      826     4106    3              CALL BUILDTIME(EL$SYSID.MON_UTS#);
      827     4107    3              LEN = EL$SYSID.SITE_NAME#.L;
PL6.E3A0      #001=THF$RAW File=THF$FORMAT.:E05TSI                               WED 07/30/97 06:08 Page:24
      828     4108    3              CALL ADD_TEXTC(SUBSTR(EL$SYSID.SITE_NAME#.C,0,LEN),LEN);
      829     4109    3            CASE(%TH_ANLZ);
      830     4110    3              I = 119;
      831     4111    4              DO WHILE (SUBSTR(EL$ANLZ.TXT,I,1) = ' ');
      832     4112    4                 I = I - 1;
      833     4113    4              END;
      834     4114    3              CALL ADD_TEXTC(SUBSTR(EL$ANLZ.TXT,0,I+1),I+1);
      835     4115    3            CASE(%TH_FEPEVENT);
      836     4116    4              DO CASE(EL$FECRASH.FENM.PROBLEM);
      837     4117    4                 CASE(KIER_OK);
      838     4118    4                    CALL ADD_TEXTC('UP AND OK',9);
      839     4119    4                 CASE(KIER_TO);
      840     4120    4                    CALL ADD_TEXTC('TIMEOUT',7);
      841     4121    4                 CASE(KIER_QFL);
      842     4122    4                    CALL ADD_TEXTC('OUTPUT QUEUE FULL',17);
      843     4123    4                 CASE(KIER_NOBT);
      844     4124    4                    CALL ADD_TEXTC('FEP WONT BOOT',13);
      845     4125    4                 CASE(KIER_FESC);
      846     4126    4                    CALL ADD_TEXTC('SOFTWARE CRASH',14);
      847     4127    4                 CASE(KIER_CPLR);
      848     4128    4                    CALL ADD_TEXTC('COUPLER',7);
      849     4129    4                 CASE(KIER_BINT);
      850     4130    4                    CALL ADD_TEXTC('BAD INTERRUPT',13);
      851     4131    4                 CASE(KIER_BDLN);
      852     4132    4                    CALL ADD_TEXTC('BAD LINE NUMBER',15);
      853     4133    4                 CASE(KIER_MFMT);
      854     4134    4                    CALL ADD_TEXTC('BAD MESSAGE FORMAT',18);
      855     4135    4                 CASE(KIER_BFCN);
      856     4136    4                    CALL ADD_TEXTC('BAD FUNCTION CODE',17);
      857     4137    4                 CASE(KIER_DCFT);
      858     4138    4                    CALL ADD_TEXTC('IOM MEMORY FAULT',16);
      859     4139    4                 CASE(KIER_BCMD);
      860     4140    4                    CALL ADD_TEXTC('BOOT REQUESTED',14);
      861     4141    4                 CASE(KIER_6ALZ);
      862     4142    4                    CALL ADD_TEXTC('REQUEST FROM L6ANLZ',19);
      863     4143    4                 CASE(KIER_STOP);
      864     4144    4                    CALL ADD_TEXTC('STOP REQUESTED',14);
PL6.E3A0      #001=THF$RAW File=THF$FORMAT.:E05TSI                               WED 07/30/97 06:08 Page:25
      865     4145    4                 CASE(KIER_PART);
      866     4146    4                    CALL ADD_TEXTC('PARTITIONED',11);
      867     4147    4                 CASE(KIER_UPRT);
      868     4148    4                    CALL ADD_TEXTC('NOT PARTITIONED',15);
      869     4149    4                 CASE(KIER_FREQ);
      870     4150    4                    CALL ADD_TEXTC('FEP REQUEST',11);
      871     4151    4                 CASE(KIER_LNKUP);
      872     4152    4                    CALL ADD_TEXTC('LINK UP',7);
      873     4153    4                 CASE(KIER_LNKDWN);
      874     4154    4                    CALL ADD_TEXTC('LINK DOWN',9);
      875     4155    4                 CASE(KIER_QOSCHG);
      876     4156    4                    CALL ADD_TEXTC('ROUTING CHANGE',14);
      877     4157    4                 CASE(ELSE);
      878     4158    4                    CALL ADD_TEXTC('????',4);
      879     4159    4                 END;  /* DO CASE PROBLEM */
      880     4160    4              DO CASE(EL$FECRASH.FENM.STATE);
      881     4161    4                 CASE(KIST_DN);
      882     4162    4                    CALL ADD_TEXTC('DOWN',4);
      883     4163    4                 CASE(KIST_TOK);
      884     4164    4                    CALL ADD_TEXTC('CHECKING FOR UP',15);
      885     4165    4                 CASE(KIST_RUN);
      886     4166    4                    CALL ADD_TEXTC('RUNNING',7);
      887     4167    4                 CASE(KIST_QFL);
      888     4168    4                    CALL ADD_TEXTC('OUTPUT QUEUE FULL',17);
      889     4169    4                 CASE(KIST_DB);
      890     4170    4                    CALL ADD_TEXTC('DEBUG MODE',10);
      891     4171    4                 CASE(KIST_DMP);
      892     4172    4                    CALL ADD_TEXTC('DUMPING',7);
      893     4173    4                 CASE(KIST_BT);
      894     4174    4                    CALL ADD_TEXTC('BOOTING',7);
      895     4175    4                 CASE ( KIST_STOPPING ) ;
      896     4176    4                    CALL ADD_TEXTC ( 'STOPPING' , 8 ) ;
      897     4177    4                 CASE ( KIST_MASKED ) ;
      898     4178    4                    CALL ADD_TEXTC ( 'MASKED' , 6 ) ;
      899     4179    4                 CASE(ELSE);
      900     4180    4                    CALL ADD_TEXTC('????',4);
      901     4181    4                 END;  /* DO CASE STATE */
PL6.E3A0      #001=THF$RAW File=THF$FORMAT.:E05TSI                               WED 07/30/97 06:08 Page:26
      902     4182    3            CASE(%TH_ZAP);
      903     4183    3              J = 139;
      904     4184    3              IF EL$ZAP.OPER_TEXT = ' '
      905     4185    3                 THEN J = 0;
      906     4186    3                 ELSE
      907     4187    4              DO WHILE (SUBSTR(EL$ZAP.OPER_TEXT,J,1) = ' ');
      908     4188    4                 J = J - 1;
      909     4189    4              END;
      910     4190    3              CALL ADD_TEXTC(SUBSTR(EL$ZAP.OPER_TEXT,0,J+1),J+1);
      911     4191    3            CASE(%TH_CHANTRAN);
      912     4192    3              IF(EL$CHANTRAN.STATUS.CHAN ~= 4)
      913     4193    3              THEN
      914     4194    4                   DO CASE(EL$CHANTRAN.STATUS.CHAN_STAT);
      915     4195    4                      CASE(%CHAN_SUSPEND);
      916     4196    4                        CALL ADD_TEXTC('CHANNEL SUSPENDED',17);
      917     4197    4                      CASE(%CHAN_RELEASED);
      918     4198    4                        CALL ADD_TEXTC('CHANNEL RELEASED',16);
      919     4199    4                      CASE(%CHAN_STOPPED);
      920     4200    4                        CALL ADD_TEXTC('CHANNEL STOPPED',15);
      921     4201    4                      CASE(%CHAN_AVAILABLE);
      922     4202    4                        CALL ADD_TEXTC('CHANNEL AVAILABLE',17);
      923     4203    4                      CASE(ELSE);
      924     4204    4                        CALL ADD_TEXTC('IMPROPER STATE',14);
      925     4205    4                   END;  /*do case channel not = to 4 */
      926     4206    3              ELSE IF(EL$CHANTRAN.STATUS.CHAN = 4)
      927     4207    3              THEN
      928     4208    4                   DO CASE(EL$CHANTRAN.STATUS.MSOS_REQ);
      929     4209    4                      CASE(%RSR_ASSIGN_RELEASE);
      930     4210    4                        CALL ADD_TEXTC('RESOURCE ASSIGN/RELEASE',23);
      931     4211    4                      CASE(%IOP_AUTO_REBOOT);
      932     4212    4                        CALL ADD_TEXTC('IOP AUTO REBOOT',15);
      933     4213    4                      CASE(%IOP_ASSIGN);
      934     4214    4                        CALL ADD_TEXTC('IOP ASSIGN',10);
      935     4215    4                   END;  /*do case channel = 4 */
      936     4216    3            CASE(%TH_MSOSSAYS);
      937     4217    4              DO SELECT(EL$MSOSSAYS.IDCW.CODE);
      938     4218    4                 SELECT(%REQ_TIME);
PL6.E3A0      #001=THF$RAW File=THF$FORMAT.:E05TSI                               WED 07/30/97 06:08 Page:27
      939     4219    4                   CALL ADD_TEXTC('TIME CORRECTION REQUEST',23);
      940     4220    4                 SELECT(%REQ_MEM_EXPANSION);
      941     4221    4                   CALL ADD_TEXTC('MEMORY EXPANSION REQUEST',24);
      942     4222    4                 SELECT(%REQ_ASSIGN_EPU);
      943     4223    4                   CALL ADD_TEXTC('ASSIGN EPU REQUEST',18);
      944     4224    4                 SELECT(%REQ_ASSIGN_DEVICE);
      945     4225    4                   CALL ADD_TEXTC('ASSIGN DEVICE REQUEST',21);
      946     4226    4                 SELECT(%REQ_RELEASE_EPU);
      947     4227    4                   CALL ADD_TEXTC('RELEASE EPU REQUEST',19);
      948     4228    4                 SELECT(%REQ_RELEASE_MEM1);
      949     4229    4                   CALL ADD_TEXTC('RELEASE MEMORY REQUEST',22);
      950     4230    4                 SELECT(%REQ_RELEASE_DEVICE);
      951     4231    4                   CALL ADD_TEXTC('RELEASE DEVICE REQUEST',22);
      952     4232    4                 SELECT(%REQ_RELEASE_MEM2);
      953     4233    4                   CALL ADD_TEXTC('RELEASE MEMORY REQUEST',22);
      954     4234    4              END;  /* do case */
      955     4235    3            CASE(%TH_CP6SAYS);
      956     4236    4              DO SELECT(EL$CP6SAYS.IDCW.CODE);
      957     4237    4                 SELECT(%RSP_INIT);
      958     4238    4                   CALL ADD_TEXTC('RESPONSE INITIALIZATION',23);
      959     4239    4                 SELECT(%RSP_BUSY);
      960     4240    4                   CALL ADD_TEXTC('RESPONSE BUSY',13);
      961     4241    4                 SELECT(%RSP_REJECT);
      962     4242    4                   CALL ADD_TEXTC('RESPONSE REJECT',15);
      963     4243    4                 SELECT(%RSP_COMPLETE);
      964     4244    4                   CALL ADD_TEXTC('RESPONSE COMPLETE',17);
      965     4245    4                 SELECT(%RSP_IOP_RECOV);
      966     4246    4                   CALL ADD_TEXTC('RESPONSE IOP RECOVERY',21);
      967     4247    4                 SELECT(%RSP_ILL_CMND);
      968     4248    4                   CALL ADD_TEXTC('RESPONSE ILLEGAL COMMAND',24);
      969     4249    4                 SELECT(%RSP_UNMSK_IOP);
      970     4250    4                   CALL ADD_TEXTC('RESPONSE UNMASK IOP',19);
      971     4251    4              END;  /* do case */
      972     4252    3              IF EL$CP6SAYS.REASON = %REAS_USE_RC
      973     4253    3              THEN
      974     4254    4              DO SELECT(EL$CP6SAYS.IDCWE.RC);
      975     4255    4                 SELECT(%RC_INV_CMND);
PL6.E3A0      #001=THF$RAW File=THF$FORMAT.:E05TSI                               WED 07/30/97 06:08 Page:28
      976     4256    4                   CALL ADD_TEXTC('INVALID COMMAND FROM MSOS',25);
      977     4257    4                 SELECT(%RC_INV_ADD);
      978     4258    4                   CALL ADD_TEXTC('INVAL ADDR/MEM SZ FROM MSOS',27);
      979     4259    4                 SELECT(%RC_INV_IOP);
      980     4260    4                   CALL ADD_TEXTC('INVALID IOP FROM MSOS',21);
      981     4261    4                 SELECT(%RC_INV_CHN);
      982     4262    4                   CALL ADD_TEXTC('INVALID CHANNEL FROM MSOS',25);
      983     4263    4                 SELECT(%RC_INV_DEV);
      984     4264    4                   CALL ADD_TEXTC('INVALID DEVICE FROM MSOS',24);
      985     4265    4                 SELECT(%RC_RES_NCONF);
      986     4266    4                   CALL ADD_TEXTC('RESOURCE NOT CONFIGURED',23);
      987     4267    4                 SELECT(%RC_SHA_FILE);
      988     4268    4                   CALL ADD_TEXTC('SHARED FILE UNIT ~= DISK',24);
      989     4269    4                 SELECT(%RC_RES_ASSGND);
      990     4270    4                   CALL ADD_TEXTC('RESOURCE ALREADY ASSIGNED',25);
      991     4271    4                 SELECT(%RC_PER_NCONF);
      992     4272    4                   CALL ADD_TEXTC('PERIPHERAL NOT DEFINED',22);
      993     4273    4                 SELECT(%RC_REL_MON);
      994     4274    4                   CALL ADD_TEXTC('REQUIRE RELEASE OF MONITOR',26);
      995     4275    4                 SELECT(%RC_REL_IMPOS);
      996     4276    4                   CALL ADD_TEXTC('RELEASE UNSWAPPABLE PROGRAM',27);
      997     4277    4                 SELECT(%RC_MEM_RLSD);
      998     4278    4                   CALL ADD_TEXTC('MEMORY ALREADY RELEASED',23);
      999     4279    4                 SELECT(%RC_INV_PRCS);
     1000     4280    4                   CALL ADD_TEXTC('INVALID PROCESSOR #',19);
     1001     4281    4                 SELECT(%RC_EPU_RCONF);
     1002     4282    4                   CALL ADD_TEXTC('EPU IN RECONFIG',15);
     1003     4283    4                 SELECT(%RC_PER_RLSD);
     1004     4284    4                   CALL ADD_TEXTC('PERIPHERAL ALREADY RELEASED',27);
     1005     4285    4                 SELECT(%RC_PER_ASSGND);
     1006     4286    4                   CALL ADD_TEXTC('PERIPHERAL ALREADY ASSIGNED',27);
     1007     4287    4                 SELECT(ELSE);
     1008     4288    4                   CALL ADD_TEXTC('NOT USED IN CP6',15);
     1009     4289    4              END;  /* do case */
     1010     4290    3              ELSE
     1011     4291    4              DO SELECT(EL$CP6SAYS.REASON);
     1012     4292    4                 SELECT(%REAS_MSOS_CMD_OK);
PL6.E3A0      #001=THF$RAW File=THF$FORMAT.:E05TSI                               WED 07/30/97 06:08 Page:29
     1013     4293    4                   CALL ADD_TEXTC('MSOS CMD ACCEPTED & PROCESSED',29);
     1014     4294    4                 SELECT(%REAS_RES_IN_USE);
     1015     4295    4                   CALL ADD_TEXTC('RESOURCE REQUESTED IN USE',25);
     1016     4296    4                 SELECT(%REAS_PER_NOT_PART);
     1017     4297    4                   CALL ADD_TEXTC('PERIPH NOT PARTITIONED-CP6 CAN''T RELEASE',40);
     1018     4298    4              END;  /* do select el$cp6says.reason */
     1019     4299    3            CASE(%TH_IOERR);
     1020     4300    3              IF ((EL$IOERR.MPC_MODEL = 'URPEURP ')
     1021     4301    3                OR (EL$IOERR.MPC_MODEL = 'URP8011 ')
     1022     4302    3                OR (EL$IOERR.MPC_MODEL = 'URP8012 ')
     1023     4303    3                OR (EL$IOERR.MPC_MODEL = 'URP8013 ')
     1024     4304    3                OR (EL$IOERR.MPC_MODEL = 'URP8600 ')
     1025     4305    3                OR (EL$IOERR.MPC_MODEL = 'URP8601 '))
     1026     4306    4                  THEN DO;
     1027     4307    4                      ASCII_EXTST = EL$IOERR.EXTST;  /* REFORMAT EXTENDED STATUS */
     1028     4308    5                      DO J = 0 TO 31;
     1029     4309    5                         EL$IOERR.EXTST(J) = ASCII_EXTST.BYT(J);
     1030     4310    5                      END;
     1031     4311    4                  END;
     1032     4312    3              IF ((EL$IOERR.MODEL = 'PRU1200')
     1033     4313    3                OR (EL$IOERR.MODEL = 'PRU1600')) THEN
     1034     4314    4                   DO J = 15 TO 35;        /* CLEAR UNNECESSARY JUNK FROM EXT STATUS */
     1035     4315    4                      EL$IOERR.EXTST(J) = 0;
     1036     4316    4                   END;
     1037     4317    3              IF EL$IOERR.THRESH.DEVICE
     1038     4318    3                 THEN CALL BINCHAR(TEMP,EL$IOERR.CONNECTS.DEVICE);
     1039     4319    3                 ELSE
     1040     4320    3              IF EL$IOERR.THRESH.IOM
     1041     4321    3                 THEN CALL BINCHAR(TEMP,EL$IOERR.CONNECTS.IOM);
     1042     4322    3                 ELSE
     1043     4323    3              IF EL$IOERR.THRESH.CHANNEL
     1044     4324    3                 THEN CALL BINCHAR(TEMP,EL$IOERR.CONNECTS.CHANNEL);
     1045     4325    3                 ELSE
     1046     4326    3              IF EL$IOERR.THRESH.MPC
     1047     4327    3                 THEN CALL BINCHAR(TEMP,EL$IOERR.CONNECTS.MPC);
     1048     4328    3                 ELSE CALL BINCHAR(TEMP,0);
     1049     4329    3              J = 0;
PL6.E3A0      #001=THF$RAW File=THF$FORMAT.:E05TSI                               WED 07/30/97 06:08 Page:30
     1050     4330    4              DO WHILE ((SUBSTR(TEMP,J,1) = '0') & (J < 63));
     1051     4331    4                 J = J + 1;
     1052     4332    4              END;                         /* DO WHILE                           */
     1053     4333    3              LEN = 63 - J;
     1054     4334    3              IF LEN = 0
     1055     4335    3                 THEN
     1056     4336    4                 DO;
     1057     4337    4                    LEN = 1;
     1058     4338    4                    J = 0;
     1059     4339    4                 END;
     1060     4340    3              CALL ADD_TEXTC(SUBSTR(TEMP,J,LEN),LEN);
     1061     4341    3              IF TH_LAST_REQID  = EL$IOERR.REQID
     1062     4342    3                 THEN CALL ADD_TEXTC('  *',3);
     1063     4343    3                 ELSE CALL ADD_TEXTC('   ',3);
     1064     4344    3              TH_LAST_REQID = EL$IOERR.REQID;
     1065     4345
     1066     4346                                                /* CHECK FOR SPECIAL STATUS           */
     1067     4347    3              TEMP_STATUS = EL$IOERR.STATUS;
     1068     4348    3              IF TEMP_STATUS1.MAJOR_STATUS = '101111'B /* '57'O                  */
     1069     4349    3                 THEN
     1070     4350    4                 DO;
     1071     4351    4                    TEMP_STATUS1.XX = TEMP_STATUS1.FAULT_CODE;
     1072     4352    4                    TEMP_STATUS1.YY = TEMP_STATUS1.CHANNEL;
     1073     4353    4                    EL$IOERR.STATUS = TEMP_STATUS;
     1074     4354    4                 END;                      /* IF MAJOR_STATUS = '57'O            */
     1075     4355    3              CALL THF$STATUS(EL$IOERR,MAJBUF,MAJCNT,MINBUF,MINCNT)
     1076     4356    3                              ALTRET(NO_STAT);
     1077     4357    3              CALL THF$ADD_TEXTC(MM$,MAJBUF,MAJCNT);
     1078     4358    3              CALL THF$ADD_TEXTC(MM$,MINBUF,MINCNT);
     1079     4359    4              DO NEVER;
     1080     4360    4   NO_STAT:
     1081     4361    4                 CALL THF$ADD_TEXTC(MM$,'***',3);
     1082     4362    4                 CALL THF$ADD_TEXTC(MM$,'***',3);
     1083     4363    4                 MMVEC = VECTOR(MMBUF);
     1084     4364    4                 MMVEC.BOUND = POFFC(MM$,ADDR(MMBUF)) - 1;
     1085     4365    4              END;
     1086     4366    3                 NXST = 0;
PL6.E3A0      #001=THF$RAW File=THF$FORMAT.:E05TSI                               WED 07/30/97 06:08 Page:31
     1087     4367    3                 DEV_FLAG = %FALSE;
     1088     4368    4                 DO I = 0 TO NUMMODELS;
     1089     4369    4                   IF EL$IOERR.MODEL = X_DEV_TYPE.DEV(I)
     1090     4370    5                      THEN DO;
     1091     4371    5                           IO_MASK = EL$IOERR.EXTST;
     1092     4372    5                           IF IO_MASK1
     1093     4373    5                               THEN;
     1094     4374    5                               ELSE GOTO NO_INTERP;
     1095     4375    5                           IF EL$IOERR.MODEL = 'MTU0610'  AND
     1096     4376    5                              IO_MASK1(53) AND IO_MASK1(54)
     1097     4377    5                               THEN I = I + 1;
     1098     4378        /* REMOVE THE FOLLOWING TEST WHEN #39334 IS FIXED                */
     1099     4379    5                           IF EL$IOERR.MODEL = 'PRU1200'
     1100     4380    5                           AND IO_MASK1(47) THEN        /* ITS A PR54 */
     1101     4381    5                               I = I - 1;
     1102     4382    5                           DEV$ = X_DEV_TYPE.SUB$(I);
     1103     4383    5                           DEV_FLAG = %TRUE;
     1104     4384    5                           J = X_DEV_TYPE.COUNT(I);
     1105     4385    5                           GOTO FND;
     1106     4386    5                           END;
     1107     4387    4                 END;
     1108     4388    3   FND:
     1109     4389    3                 IF DEV_FLAG
     1110     4390    4                   THEN DO;
     1111     4391    4                      XST$ = ADDR(XSTBUF);
     1112     4392    4                      CALL THF$ADD_TEXTC (XST$,'   ',3);
     1113     4393    4                      MODEL_CHAR = EL$IOERR.MODEL;
     1114     4394    5                      DO I = 0 TO J;
     1115     4395    5                        IF (((MODEL_CHAR = 'MTU') AND (EL$IOERR.MODEL ~= 'MTU8200') AND
     1116     4396    5                           (DEVTBL.CODE(I) = 16 OR DEVTBL.CODE(I) = 20
     1117     4397    5                            OR DEVTBL.CODE(I) = 27 OR DEVTBL.CODE(I) = 35))
     1118     4398    5                           OR (EL$IOERR.MODEL = 'MTU0400' AND
     1119     4399    5                               DEVTBL.CODE(I) = 96))
     1120     4400    6                           THEN DO;
     1121     4401    7                             DO CASE (DEVTBL.CODE(I));
     1122     4402    7                                CASE (16);
     1123     4403    7                                   LENN = 3;
PL6.E3A0      #001=THF$RAW File=THF$FORMAT.:E05TSI                               WED 07/30/97 06:08 Page:32
     1124     4404    7                                CASE (20);
     1125     4405    7                                   LENN = 4;
     1126     4406    7                                CASE (27);
     1127     4407    7                                   LENN = 5;
     1128     4408    7                                CASE (35);
     1129     4409    7                                   LENN = 5;
     1130     4410    7                                CASE (96);
     1131     4411    7                                   LENN = 4;
     1132     4412    7                             END;
     1133     4413    7                             DO II = 0 TO LENN - 1;
     1134     4414    7                                IF IO_MASK1(DEVTBL.CODE(I) + II)
     1135     4415    7                                     THEN SP_BIT(II) = '1';
     1136     4416    7                                     ELSE SP_BIT(II) = '0';
     1137     4417    7                             END;
     1138     4418    7                             DO II = 0 TO 4;
     1139     4419    7                                IF DEVTBL.CODE(I) = SP_CASES.BYTEN(II)
     1140     4420    8                                   THEN DO;
     1141     4421    8                                     SPC$ = SP_CASES.SUB$(II);
     1142     4422    8                                     JJ = SP_CASES.COUNT(II);
     1143     4423    8                                     GOTO FND_SP;
     1144     4424    8                                   END;
     1145     4425    7                             END;
     1146     4426    6   FND_SP:
     1147     4427    7                             DO II = 0 TO JJ;
     1148     4428    7                                IF SP_CHAR = SPTBL.CODE(II)
     1149     4429    8                                  THEN DO;
     1150     4430    8                                     XST_TEXT = SPTBL.TEXT(II);
     1151     4431    8                                     XST_CNT = SPTBL.COUNT(II);
     1152     4432    8                                     GOTO NEXT_I;
     1153     4433    8                                  END;
     1154     4434    7                             END;
     1155     4435    6                           END;                /* OF THEN */
     1156     4436    5                           ELSE IF ((EL$IOERR.MODEL = 'PRU0901')
     1157     4437    5                                 OR (EL$IOERR.MODEL = 'PRU0903')
     1158     4438    5                                 OR (EL$IOERR.MODEL = 'PRU0908')
     1159     4439    5                                 OR (EL$IOERR.MODEL = 'PRU1201')
     1160     4440    5                                 OR (EL$IOERR.MODEL = 'PRU1203')
PL6.E3A0      #001=THF$RAW File=THF$FORMAT.:E05TSI                               WED 07/30/97 06:08 Page:33
     1161     4441    5                                 OR (EL$IOERR.MODEL = 'PRU1208')) THEN
     1162     4442    5                               CALL EURC_PR54;
     1163     4443    5                           ELSE IF ((EL$IOERR.MODEL = 'PRU1200')
     1164     4444    5                                 OR (EL$IOERR.MODEL = 'PRU1600')) THEN
     1165     4445    5                                    CALL MPC_PR71;
     1166     4446    5                           ELSE IF (EL$IOERR.MODEL = 'MTU8200')AND
     1167     4447    5                                  ((DEVTBL.CODE(I) = 29)OR(DEVTBL.CODE(I) = 53)
     1168     4448    5                                  OR(DEVTBL.CODE(I) = 176))
     1169     4449    6                           THEN DO CASE(DEVTBL.CODE(I));
     1170     4450    6                                   CASE(29); /* if byte 3, bit 5  */
     1171     4451    6                                       CALL FIND_DEN_MODE;/* check for density*/
     1172     4452    6                                   CASE(53);  /* if byte 6, bits 5-7 */
     1173     4453                                                   /* check for speed     */
     1174     4454    6                                    IF IO_MASK1(DEVTBL.CODE(I)) AND
     1175     4455    6                                       IO_MASK1(DEVTBL.CODE(I+1))
     1176     4456    7                                       THEN DO;
     1177     4457    7                                         XST_TEXT = 'DEV SPEED: 200 IPS';
     1178     4458    7                                         XST_CNT = 18;
     1179     4459    7                                         GOTO NEXT_I;
     1180     4460    7                                    END;  /* if bits 53 & 54 set */
     1181     4461    6                                   CASE(176); /* if it's byte 22, check*/
     1182     4462                                                   /* for fault symptom code*/
     1183     4463    7                                    DO II = 0 TO 7;/* pickup byte 22 */
     1184     4464    7                                       IF IO_MASK1(DEVTBL.CODE(I) + II)
     1185     4465    7                                       THEN FT_BIT(II) =  '1'B;
     1186     4466    7                                       ELSE FT_BIT(II) =  '0'B;
     1187     4467    7                                    END;  /* do */
     1188     4468    7                                    DO II = 0 TO 70;/* go thru tbl for a match */
     1189     4469    7                                       IF FT_CODE = FAULT_SYMP_TBL.CODE(II)
     1190     4470    8                                       THEN DO;
     1191     4471    8                                         XST_TEXT = FAULT_SYMP_TBL.TEXT(II);
     1192     4472    8                                         XST_CNT = FAULT_SYMP_TBL.COUNT(II);
     1193     4473    8                                         GOTO NEXT_I;
     1194     4474    8                                       END;  /* if fault code is found */
     1195     4475    7                                    END; /* do II */
     1196     4476    6                                END; /* do case */
     1197     4477    5                           ELSE IF((EL$IOERR.MODEL='MSU3380')
PL6.E3A0      #001=THF$RAW File=THF$FORMAT.:E05TSI                               WED 07/30/97 06:08 Page:34
     1198     4478    5                                OR (EL$IOERR.MODEL='MSU3381')
     1199     4479    5                                OR (EL$IOERR.MODEL='MSU3382')
     1200     4480    5                                OR (EL$IOERR.MODEL='MSU3383')
     1201     4481    5                                OR (EL$IOERR.MODEL='MSU3390')
     1202     4482    5                                OR (EL$IOERR.MODEL='MSU3391')
     1203     4483    5                                OR (EL$IOERR.MODEL='MSU3392')
     1204     4484    5                                OR (EL$IOERR.MODEL='MSU3393'))
     1205     4485    5                                AND  (DEVTBL.CODE(I) = 56)
     1206     4486    5                                THEN
     1207     4487    5                                    CALL FIND_FORMAT_MSG;
     1208     4488    5                           ELSE IF((EL$IOERR.MODEL='MSU8082')
     1209     4489    5                                OR (EL$IOERR.MODEL='MSU8092'))
     1210     4490    5                                THEN
     1211     4491    5                                    CALL IPC_MDSII;
     1212     4492    6                           ELSE DO;
     1213     4493    6                             IF IO_MASK1(DEVTBL.CODE(I))
     1214     4494    7                                THEN DO;
     1215     4495    7                                  XST_TEXT = DEVTBL.TEXT(I);
     1216     4496    7                                  XST_CNT = DEVTBL.COUNT(I);
     1217     4497    7   NEXT_I:
     1218     4498    7                                  CALL THF$ADD_TEXTC(XST$,
     1219     4499    7                                                     XST_TEXT,
     1220     4500    7                                                     XST_CNT);
     1221     4501    7                                  NXST = NXST + 1;
     1222     4502    7                                END;
     1223     4503    6                           END;                /* OF ELSE */
     1224     4504    5                      END;
     1225     4505    4        NO_INTERP:
     1226     4506    4                 END;
     1227     4507    3                 MODEL_CHAR = EL$IOERR.MODEL;
     1228     4508    3                 SECTOR = EL$IOERR.SEEK.SECTOR;
     1229     4509    4                DO SELECT( EL$IOERR.MODEL );
     1230     4510    4                  SELECT('MSU0501','MSU0509');
     1231     4511    4                      CYL = SECTOR/(8*40);
     1232     4512    4                      HD = MOD(SECTOR /8,40);
     1233     4513    4                      SE = MOD(SECTOR,8);
     1234     4514    4                  SELECT('MSU0451');
PL6.E3A0      #001=THF$RAW File=THF$FORMAT.:E05TSI                               WED 07/30/97 06:08 Page:35
     1235     4515    4                      CYL = SECTOR / (40*19);
     1236     4516    4                      HD = MOD(SECTOR/40,19);
     1237     4517    4                      SE = MOD(SECTOR,40);
     1238     4518    4                  SELECT('MSU3380','MSU3381','MSU3382','MSU3383',  /* FIPS D&E */
     1239     4519    4                         'MSU3390','MSU3391','MSU3392','MSU3393'); /* FIPS J&K */
     1240     4520    4                     CYL = SECTOR / (17*15);
     1241     4521    4                     HD = MOD(SECTOR/17,15);
     1242     4522    4                     SE = MOD(SECTOR,17);
     1243     4523    4                  SELECT('MSU8082');                   /* MDS I - FDS II        */
     1244     4524    4                      CYL = SECTOR / (11*24);
     1245     4525    4                      HD = MOD(SECTOR/11,24);
     1246     4526    4                      SE = MOD(SECTOR,11);
     1247     4527    4                  SELECT('MSU8092');                  /* MDS II - SABRE V       */
     1248     4528    4                      CYL = SECTOR / (19*15);
     1249     4529    4                      HD = MOD(SECTOR/19,15);
     1250     4530    4                      SE = MOD(SECTOR,19);
     1251     4531    4                  END;  /*SELECT*/
     1252     4532    3            CASE(%TH_DEVSTATS);
     1253     4533    3              STATS$ = ADDR(EL$DEVSTATS.STATISTICS(0));
     1254     4534    4              DO SELECT(EL$DEVSTATS.FW_NAME);
     1255     4535    4                 SELECT('M601', 'M610', 'TPUR');   /* MPC OR TPUR TAPES */
     1256     4536    4                 SELECT('M191', 'D500', 'MSP8');   /* MPC OR DAU DISCS */
     1257     4537    4                   TH_ITYPE = %TH_DEVSTATS_DISK;
     1258     4538    4                   TEMPBUF(0) = DISK_STATS.SEEK_INCOMPLETES
              4538                            /* SEEK ERRS = SEEK INCOMPLETES */
     1259     4539    4                              + DISK_STATS.HDR_VER_ERRS;     /* + HDR VER ERRORS */
     1260     4540    4                   TEMPBUF(1) = DISK_STATS.TRANS_TIMING_ERRS
              4540                            /* OTHER ERRS = TRANS TIM ERRS */
     1261     4541    4                              + DISK_STATS.CNT_CHK_ALERTS     /* + CNT CHECK ALERTS */
     1262     4542    4                              + DISK_STATS.DLI_PARITY_ERRS    /* + DLI PARITY ERRS */
     1263     4543    4                              + DISK_STATS.LATENCY_RETRIES    /*  + LATENCY RETRIES */
     1264     4544    4                              + DISK_STATS.DATA_CHK_ALERTS   /*  + DATA CHECK ALERTS */
     1265     4545    4                              + DISK_STATS.SEARCH_ALERTS;     /* + SYNC FAILURES */
     1266     4546    4                 SELECT('IIDK');                   /* MDS DISKS */
     1267     4547    4                   TH_ITYPE = %TH_DEVSTATS_MDS;
     1268     4548    4                   TEMPBUF(0) = MDS_STATS.SEEK_READS      /* # OF SEEKS = SEEK-READS */
     1269     4549    4                              + MDS_STATS.SEEK_WRITES;      /* + SEEK-WRITES */
PL6.E3A0      #001=THF$RAW File=THF$FORMAT.:E05TSI                               WED 07/30/97 06:08 Page:36
     1270     4550    4              END;  /* DO SELECT */
     1271     4551    3              CTL$ = FMTTBL$(TH_ITYPE);
     1272     4552    3            CASE ( %TH_MPCSTAT );
     1273     4553    3              STATS$ = ADDR(EL$MPCSTATS.STATS(0));
     1274     4554    3              TEMPBUF(0) = EURC_STATS.CARDS_READ(0)
     1275     4555    3                         + EURC_STATS.CARDS_READ(1)
     1276     4556    3                         + EURC_STATS.CARDS_READ(2)
     1277     4557    3                         + EURC_STATS.CARDS_READ(3);
     1278     4558    3              TEMPBUF(1) = EURC_STATS.CARDS_PUNCHED(0)
     1279     4559    3                         + EURC_STATS.CARDS_PUNCHED(1)
     1280     4560    3                         + EURC_STATS.CARDS_PUNCHED(2)
     1281     4561    3                         + EURC_STATS.CARDS_PUNCHED(3);
     1282     4562    3              TEMPBUF(2) = EURC_STATS.LINES_PRINTED(0)
     1283     4563    3                         + EURC_STATS.LINES_PRINTED(1)
     1284     4564    3                         + EURC_STATS.LINES_PRINTED(2)
     1285     4565    3                         + EURC_STATS.LINES_PRINTED(3);
     1286     4566    3              TEMPBUF(3) = EURC_STATS.PAGES_PRINTED(0)
     1287     4567    3                         + EURC_STATS.PAGES_PRINTED(1)
     1288     4568    3                         + EURC_STATS.PAGES_PRINTED(2)
     1289     4569    3                         + EURC_STATS.PAGES_PRINTED(3);
     1290     4570    3              TEMPBUF(4) = EURC_STATS.WORD_TRANSFERS(0)
     1291     4571    3                         + EURC_STATS.WORD_TRANSFERS(1)
     1292     4572    3                         + EURC_STATS.WORD_TRANSFERS(2)
     1293     4573    3                         + EURC_STATS.WORD_TRANSFERS(3);
     1294     4574    3              TEMPBUF(5) = EURC_STATS.RECEIVER_ERRS(0)
     1295     4575    3                         + EURC_STATS.RECEIVER_ERRS(1)
     1296     4576    3                         + EURC_STATS.RECEIVER_ERRS(2)
     1297     4577    3                         + EURC_STATS.RECEIVER_ERRS(3)
     1298     4578    3                         + EURC_STATS.TRANSMITTER_ERRS(0)
     1299     4579    3                         + EURC_STATS.TRANSMITTER_ERRS(1)
     1300     4580    3                         + EURC_STATS.TRANSMITTER_ERRS(2)
     1301     4581    3                         + EURC_STATS.TRANSMITTER_ERRS(3);
     1302     4582    3            CASE (%TH_DIAG);
     1303     4583    4               DO CASE (EL$DIAG.TEST);
     1304     4584    4                 CASE (%TD_TEST_POLTS);
     1305     4585    4                   CALL THF$ADD_TEXTC (TEXT$,'POLTS         ',14);
     1306     4586    4                 CASE (%TD_TEST_ITR);
PL6.E3A0      #001=THF$RAW File=THF$FORMAT.:E05TSI                               WED 07/30/97 06:08 Page:37
     1307     4587    4                   CALL THF$ADD_TEXTC (TEXT$,'ITR           ',14);
     1308     4588    4                 CASE (%TD_TEST_MDR);
     1309     4589    4                   CALL THF$ADD_TEXTC (TEXT$,'MDR           ',14);
     1310     4590    4                 CASE (%TD_TEST_MTAR);
     1311     4591    4                   CALL THF$ADD_TEXTC (TEXT$,'MTAR          ',14);
     1312     4592    4                 CASE (%TD_TEST_FEP);
     1313     4593    4                   CALL THF$ADD_TEXTC (TEXT$,'FEP           ',14);
     1314     4594    4                 CASE(%TD_TEST_MPC);
     1315     4595    4                   CALL THF$ADD_TEXTC (TEXT$,'CTRLR PRE-OPEN',14);
     1316     4596    4                 CASE(%TD_TEST_MCA);
     1317     4597    4                   CALL THF$ADD_TEXTC (TEXT$,'MCA           ',14);
     1318     4598    4                 CASE(%TD_TEST_DEVICE);
     1319     4599    4                   CALL THF$ADD_TEXTC (TEXT$,'DEV PRE-OPEN  ',14);
     1320     4600    4                 CASE (ELSE);
     1321     4601    4                   CALL THF$ADD_TEXTC (TEXT$,' *** ',5);
     1322     4602    4               END;
     1323     4603    3            CASE ( %TH_CHNGAARD ) ;
     1324     4604    4               IF EL$CHNGAARD.OLD THEN DO ;
     1325     4605    4                  CALL BINCHAR ( TEMP1, EL$CHNGAARD.OLDIOM ) ;
     1326     4606    4                  CALL INSERT ( TEMP2, 0, 2, SUBSTR(TEMP1,LENGTHC(TEMP1)-1,1), '-' ) ;
     1327     4607    4                  CALL BINCHAR ( TEMP1, EL$CHNGAARD.OLDCHAN ) ;
     1328     4608    4                  CALL INSERT ( TEMP2, 2, 3, SUBSTR(TEMP1,LENGTHC(TEMP1)-3,3) ) ;
     1329     4609    4                  CALL ADD_TEXTC ( TEMP2, 5 ) ;
     1330     4610    4                  END ;
     1331     4611    3               ELSE
     1332     4612    3                  CALL ADD_TEXTC ( '     ', 5 ) ;
     1333     4613
     1334     4614    4               IF EL$CHNGAARD.NEW THEN DO ;
     1335     4615    4                  CALL BINCHAR ( TEMP1, EL$CHNGAARD.NEWIOM ) ;
     1336     4616    4                  CALL INSERT ( TEMP2, 0, 2, SUBSTR(TEMP1,LENGTHC(TEMP1)-1,1), '-' ) ;
     1337     4617    4                  CALL BINCHAR ( TEMP1, EL$CHNGAARD.NEWCHAN ) ;
     1338     4618    4                  CALL INSERT ( TEMP2, 2, 3, SUBSTR(TEMP1,LENGTHC(TEMP1)-3,3) ) ;
     1339     4619    4                  CALL ADD_TEXTC ( TEMP2, 5 ) ;
     1340     4620    4                  END ;
     1341     4621    3               ELSE
     1342     4622    3                  CALL ADD_TEXTC ( '     ', 5 ) ;
     1343     4623
PL6.E3A0      #001=THF$RAW File=THF$FORMAT.:E05TSI                               WED 07/30/97 06:08 Page:38
     1344     4624    3               IF EL$CHNGAARD.ERR THEN
     1345     4625    3                  CALL ADD_TEXTC ( 'DP#CP-6''S error.  Do Tape Boot ASAP.', 36 ) ;
     1346     4626    3               ELSE
     1347     4627    3                  CALL ADD_TEXTC ( '     ', 5 ) ;
     1348     4628
     1349     4629    3        END;                               /*  DO CASE TH_ITYPE                  */
     1350     4630    2        IF TH_ITYPE = %TH_MPCSTAT
     1351     4631    2           OR TH_ITYPE = %TH_DEVSTATS
     1352     4632    2           OR TH_ITYPE = %TH_DEVSTATS_DISK
     1353     4633    2           OR TH_ITYPE = %TH_DEVSTATS_MDS
     1354     4634    2           THEN TVEC = VECTOR(TEMPBUF);
     1355     4635    2        ELSE IF TEXT$ = ADDR(TEXTBUF)
     1356     4636    2           THEN TVEC = VECTOR(NIL);
     1357     4637    2           ELSE                            /* TEXT HAS BEEN PUT INTO TBUF        */
     1358     4638    3           DO;
     1359     4639    3              TVEC = VECTOR(TEXTBUF);
     1360     4640    3              TVEC.BOUND = POFFC(TEXT$,ADDR(TEXTBUF)) - 1;
     1361     4641    3           END;
     1362     4642    2     IF MM$ = ADDR(MMBUF)
     1363     4643    2       THEN MMVEC = VECTOR(NIL);
     1364     4644    2   ELSE
     1365     4645    3       DO;
     1366     4646    3      MMVEC = VECTOR(MMBUF);
     1367     4647    3      MMVEC.BOUND = POFFC(MM$,ADDR(MMBUF)) - 1;
     1368     4648    3   END;
     1369     4649    3   IF TH_ITYPE = %TH_IOERR OR TH_ITYPE = %TH_FI THEN DO;
     1370     4650    4      IF MODEL_CHAR = 'MTU' AND NOT TH_DETAIL_FLG THEN DO;
     1371     4651    4        SEEK_ADDR = ' ';
     1372     4652    4        CALL THF$ADD_TEXTC(SEC$,SEEK_ADDR,8);
     1373     4653    4        CALL BINCHAR(MT_POSITION.FILE, EL$IOERR.TAPEPOS.FILECNT);
     1374     4654    4        CALL BINCHAR(MT_POSITION.RECCNT, EL$IOERR.TAPEPOS.CURECNT);
     1375     4655    4        CALL THF$ADD_TEXTC(SEC$, MT_POSITION, 11);
     1376     4656    4      END;
     1377     4657    4      ELSE DO;
     1378     4658    4        CALL BINCHAR(SEEK_ADDR, SECTOR);
     1379     4659    4        CALL THF$ADD_TEXTC(SEC$, SEEK_ADDR, 8);
     1380     4660    4        CALL BINCHAR(DP_POSITION.CYL, CYL);
PL6.E3A0      #001=THF$RAW File=THF$FORMAT.:E05TSI                               WED 07/30/97 06:08 Page:39
     1381     4661    4        CALL BINCHAR(DP_POSITION.HD, HD);
     1382     4662    4        CALL BINCHAR(DP_POSITION.SEC, SE);
     1383     4663    4        CALL THF$ADD_TEXTC(SEC$, DP_POSITION, 10);
     1384     4664    4      END;
     1385     4665    3   END;
     1386     4666    2        SECVEC = VECTOR(SECBUF);
     1387     4667    2        SECVEC.BOUND = POFFC(SEC$,ADDR(SECBUF)) - 1;
     1388     4668    2        IF (RECORD.TYPE ~= TH_LASTTYPE) AND
     1389     4669    2           NOT ((RECORD.TYPE = EL_SUA OR RECORD.TYPE = EL_SNAP) AND TH_LASTTYPE =
              4669                    EL_SCREECH)
     1390     4670    2           AND NOT(RECORD.TYPE = EL_DSMT AND TH_LASTTYPE = EL_MOUNT)
     1391     4671    2           THEN
     1392     4672    3           DO I = 1 TO CTL.NHDR;
     1393     4673    3            CALL THW$WRITE(CTL.FMT(I),VECTOR(TH_TIME),INFO,TVEC,SECVEC,MMVEC);
     1394     4674    3           END;
     1395     4675    2        ELSE IF RECORD.TYPE = EL_DEVSTAT
     1396     4676    2                AND TH_RAW_FLG
     1397     4677    2                AND (TH_LAST_DEVTYPE ~= SUBSTR(EL$DEVSTATS.DEVNM,0,2))
     1398     4678    3                THEN DO I = 2 TO CTL.NHDR;
     1399     4679    3                  CALL THW$WRITE(CTL.FMT(I),VECTOR(TH_TIME),INFO,TVEC,SECVEC,MMVEC);
     1400     4680    3                END;
     1401     4681    2        IF RECORD.TYPE = EL_DEVSTAT THEN
     1402     4682    2           TH_LAST_DEVTYPE = SUBSTR(EL$DEVSTATS.DEVNM,0,2);
     1403     4683    2        IF CTL.HDRFLG THEN TH_LASTTYPE = RECORD.TYPE;
     1404     4684    2                      ELSE TH_LASTTYPE = -1;
     1405     4685    2        IF TH_LASTTYPE = EL_SNAP OR TH_LASTTYPE = EL_SUA
     1406     4686    2           THEN TH_LASTTYPE = EL_SCREECH;
     1407     4687    2        IF TH_LASTTYPE = EL_DSMT
     1408     4688    2           THEN TH_LASTTYPE = EL_MOUNT;
     1409     4689    3        DO I = CTL.NHDR + 1 TO CTL.NFMT + CTL.NHDR;
     1410     4690    3        IF (TH_ITYPE = %TH_MOUNT OR TH_ITYPE = %TH_DSMT) AND
     1411     4691    3        (  TH_CONSTRAINTS.M_MED_S AND TH_CONSTRAINTS.M_MED ~= EL$MTDMT.VOLUME)
     1412     4692    3            THEN;
     1413     4693    3            ELSE
     1414     4694    3            CALL THW$WRITE(CTL.FMT(I),VECTOR(TH_TIME),INFO,TVEC,SECVEC,MMVEC);
     1415     4695    3        END;
     1416     4696    3        IF CTL.SPECIAL THEN DO CASE(TH_ITYPE);
PL6.E3A0      #001=THF$RAW File=THF$FORMAT.:E05TSI                               WED 07/30/97 06:08 Page:40
     1417     4697    3          CASE (%TH_IOERR);
     1418     4698    3            IF (NXST > 0) AND (EL$IOERR.MODEL = 'MSU8082' OR EL$IOERR.MODEL = 'MSU8092'
              4698                     )
     1419     4699    4              THEN DO;
     1420     4700    4                 N = NXST;
     1421     4701    4                 ADDR(XSTBUF) -> XST_TEMP.N = N;
     1422     4702    4                 XSTVEC = VECTOR(XSTBUF);
     1423     4703    4                 XSTVEC.BOUND = POFFC(XST$, ADDR(XSTBUF)) - 1;
     1424     4704    4                 CALL THW$WRITE(VECTOR(MDSFMT), XSTVEC);
     1425     4705    4                 END;
     1426     4706    3            ELSE IF NXST > 0
     1427     4707    4              THEN DO;
     1428     4708    4                 N = NXST / 2;
     1429     4709    4                 ADDR(XSTBUF) -> XST_TEMP.N = N;
     1430     4710    4                 IF MOD(NXST,2) = 0
     1431     4711    4                      THEN ODDFLAG = '0'B;
     1432     4712    4                      ELSE ODDFLAG = '1'B;
     1433     4713    4                 XSTVEC = VECTOR(XSTBUF);
     1434     4714    4                 XSTVEC.BOUND = POFFC(XST$,ADDR(XSTBUF)) - 1;
     1435     4715    4                 IF ODDFLAG
     1436     4716    4                      THEN CALL THW$WRITE(VECTOR(ODDFMT),XSTVEC);
     1437     4717    4                      ELSE CALL THW$WRITE(VECTOR(EVENFMT),XSTVEC);
     1438     4718    4                 END;
     1439     4719    3           CASE(%TH_FEPERR);
     1440     4720    4              IF NUMBYTES > 0 THEN DO;
     1441     4721    4                 CALL THW$WRITE(VECTOR(DYMFMT));
     1442     4722    4                 NUMWORDS = (NUMBYTES+3)/4;
     1443     4723    4                 CALL THF$HEXDUMP(ADDR(EL$FEPERR.X),NUMWORDS);
     1444     4724    4                 END;  /* IF NUMBYTES > 0 */
     1445     4725    3           CASE(%TH_CGERR);
     1446     4726    4              IF EL$CGERR.SIZ > 0 THEN DO;
     1447     4727    4                 TH_LASTTYPE = -1;
     1448     4728    4                 CALL THW$WRITE(VECTOR(INFOFMT));
     1449     4729    4                 CALL THF$DUMP(ADDR(EL$CGERR.INFO),EL$CGERR.SIZ);
     1450     4730    4                 END;  /* IF EL$CGERR.SIZ > 0 */
     1451     4731    3           CASE(%TH_PROCERR);
     1452     4732    3              FCBUF = ' ';
PL6.E3A0      #001=THF$RAW File=THF$FORMAT.:E05TSI                               WED 07/30/97 06:08 Page:41
     1453     4733    3              FC$ = ADDR(FCBUF);
     1454     4734    3              I = 0;
     1455     4735    3              IF EL$PROCERR.FC > 21
     1456     4736    3                 THEN CALL THF$ADD_TEXTC(FC$,'***',3);
     1457     4737    4                 ELSE DO;
     1458     4738    4                      I = EL$PROCERR.FC;
     1459     4739    4                      FC_TEXT = FC.TEXT(I);
     1460     4740    4                      FC_CNT = FC.COUNT(I);
     1461     4741    4                      CALL THF$ADD_TEXTC(FC$,FC_TEXT,FC_CNT);
     1462     4742    4                      END;
     1463     4743    3              FCVEC = VECTOR(FCBUF);
     1464     4744    3              FCVEC.BOUND = POFFC(FC$,ADDR(FCBUF)) - 1;
     1465     4745    3              CALL THW$WRITE(VECTOR(FCFMT),FCVEC);
     1466     4746    3              FCBUF = ' ';
     1467     4747    3              FC$ = ADDR(FCBUF);
     1468     4748    3              CALL THF$ADD_TEXTC(FC$,'   ',3);
     1469     4749    3              I = 0;
     1470     4750    3              N = 0;
     1471     4751    3              FCFLAG = 0;
     1472     4752    3              IF EL$PROCERR.PROCTYPE = %L66  OR
     1473     4753    3                 EL$PROCERR.PROCTYPE = %DPSE OR
     1474     4754    3                 EL$PROCERR.PROCTYPE = %ELS1
     1475     4755    4                  THEN DO;
     1476     4756    4                      I = EL$PROCERR.PROCTYPE;
     1477     4757    4                      FCPTR$ = FLTREG_TYPE.SUB$(I);
     1478     4758    4                      J = FLTREG_TYPE.COUNT(I);
     1479     4759    4                      FLT_REG = EL$PROCERR.FLTREG;
     1480     4760    5                      DO I = 0 TO J;
     1481     4761    5                         IF FCTBL.CODE(I) > 16 AND FCFLAG = 0
     1482     4762    6                           THEN DO;
     1483     4763    6                                IF EL$PROCERR.PROCTYPE = %ELS1
     1484     4764    6                                  THEN JJ = 5;
     1485     4765    6                                  ELSE JJ = 7;
     1486     4766    7                                DO II = 4 TO JJ;
     1487     4767    7                                   BIT_CNT = BITBIN(FLT_REG_TT(II));
     1488     4768    7                                   IF BIT_CNT = 0
     1489     4769    7                                   THEN GOTO NON_CODE;
PL6.E3A0      #001=THF$RAW File=THF$FORMAT.:E05TSI                               WED 07/30/97 06:08 Page:42
     1490     4770    8                                   ELSE DO;
     1491     4771    9                                   DO CASE(II);
     1492     4772    9                                      CASE(4);
     1493     4773    9                                       CALL INSERT(FC_TEXT,0,7,'PORT A ');
     1494     4774    9                                      CASE(5);
     1495     4775    9                                       CALL INSERT(FC_TEXT,0,7,'PORT B ');
     1496     4776    9                                      CASE(6);
     1497     4777    9                                       CALL INSERT(FC_TEXT,0,7,'PORT C ');
     1498     4778    9                                      CASE(7);
     1499     4779    9                                       CALL INSERT(FC_TEXT,0,7,'PORT D ');
     1500     4780    9                                   END;  /* do case */
     1501     4781    8                                   FC_CNT = 7;
     1502     4782    8                                    CALL INSERT(FC_TEXT,FC_CNT,
     1503     4783    8                                                ILL_CODE.COUNT(BIT_CNT),
     1504     4784    8                                                ILL_CODE.TEXT(BIT_CNT));
     1505     4785    8                                    FC_CNT = FC_CNT+ILL_CODE.COUNT(BIT_CNT);
     1506     4786    8                                    CALL THF$ADD_TEXTC(FC$,FC_TEXT,FC_CNT);
     1507     4787    8                                    N = N + 1;
     1508     4788    8                                   END;  /* else do */
     1509     4789    7                NON_CODE:
     1510     4790    7                                    FCFLAG = 1;
     1511     4791    7                                 END;        /*  OF DO II = ... */
     1512     4792    6                                 END;        /*  OF THEN DO     */
     1513     4793    5                      IF FLT_REG_T(FCTBL.CODE(I))
     1514     4794    6                         THEN DO;
     1515     4795    6                              FC_TEXT = FCTBL.TEXT(I);
     1516     4796    6                              FC_CNT = FCTBL.COUNT(I);
     1517     4797    6                              CALL THF$ADD_TEXTC(FC$,FC_TEXT,FC_CNT);
     1518     4798    6                              N = N +1;
     1519     4799    6                              END;
     1520     4800    5                    END;         /*  OF DO I = ... */
     1521     4801    4                      END;                /* OF THEN DO */
     1522     4802    3               IF N > 0
     1523     4803    4                 THEN DO;
     1524     4804    4                      ADDR(FCBUF) -> FC_TEMP.N = N;
     1525     4805    4                      FCVEC = VECTOR(FCBUF);
     1526     4806    4                      FCVEC.BOUND = POFFC(FC$,ADDR(FCBUF)) - 1;
PL6.E3A0      #001=THF$RAW File=THF$FORMAT.:E05TSI                               WED 07/30/97 06:08 Page:43
     1527     4807    4                      CALL THW$WRITE(VECTOR(FRFMT),FCVEC);
     1528     4808    4                      END;
     1529     4809    3              IF EL$PROCERR.FC = 9       /* PARITY FAULT                          */
     1530     4810    4              THEN DO;
     1531     4811    4                 TH_LASTTYPE = -1;
     1532     4812    4                 CALL THF$CSHERR;
     1533     4813    4                 IF EL$PROCERR.SAFESTORE.CSHERR ~= '0'B
     1534     4814    4                 THEN GOTO PROCERR_DONE;
     1535     4815    4                 END;
     1536     4816    3              IF EL$PROCERR.SSSIZE > 0
     1537     4817    4              THEN DO;
     1538     4818    4                 TH_LASTTYPE = -1;
     1539     4819    4                 CALL THW$WRITE(VECTOR(PROCERR_SS));
     1540     4820    4                 I = EL$PROCERR.SSSIZE;
     1541     4821    4                 CALL THF$DUMP(ADDR(EL$PROCERR.SAFESTORE),I,'1'B);
     1542     4822    4                 IF EL$PROCERR.HRSIZE > 0
     1543     4823    5                 THEN DO;
     1544     4824    5                    I = EL$PROCERR.PROCTYPE;
     1545     4825    5                    CALL THF$HISTORY(ADDR(EL$PROCERR.HISTREGS),I);
     1546     4826    5                    END;
     1547     4827    4                 END;
     1548     4828    3   PROCERR_DONE: ;
     1549     4829    3           CASE(ELSE);
     1550     4830                   /* DO NOTHING */
     1551     4831    3           END;  /* do case */
     1552     4832    2        END; /* else do */
     1553     4833    1        RETURN;
     1554     4834        %EJECT;
PL6.E3A0      #001=THF$RAW File=THF$FORMAT.:E05TSI                               WED 07/30/97 06:08 Page:44
     1555     4835    1   BUILDTIME: PROC(UTS);
     1556     4836    2   DCL UTS UBIN UNAL;
     1557     4837    2   DCL TSTAMP UBIN;
     1558     4838        %FPT_TIME (SOURCE=UTS,DEST=LOCAL);
     1559     4857    2   DCL 1 TBUF BASED(TEXT$),
     1560     4858    2           2 N UBIN BYTE UNAL,
     1561     4859    2           2 TIME CHAR(5),
     1562     4860    2           2 * CHAR(1),
     1563     4861    2           2 DATE CHAR(8);
     1564     4862        /**/
     1565     4863    2           TBUF.N=14;
     1566     4864    2           FPT_TIME.TIME_=VECTOR(TBUF.TIME);
     1567     4865    2           FPT_TIME.DATE_=VECTOR(TBUF.DATE);
     1568     4866    2           FPT_TIME.TSTAMP_=VECTOR(TSTAMP);
     1569     4867    2           TSTAMP=UTS;
     1570     4868    2           CALL M$TIME(FPT_TIME);
     1571     4869    2           TEXT$=PINCRC(TEXT$,SIZEC(TBUF));
     1572     4870    2           RETURN;
     1573     4871    2   END BUILDTIME;
     1574     4872        %EJECT;
PL6.E3A0      #001=THF$RAW File=THF$FORMAT.:E05TSI                               WED 07/30/97 06:08 Page:45
     1575     4873    1   ADD_TEXTC: PROC(TXT,SIZ);
     1576     4874    2   DCL TXT CHAR(SIZ);
     1577     4875    2   DCL SIZ SBIN;
     1578     4876    2   DCL 1 TBUF BASED(TEXT$),
     1579     4877    2           2 N UBIN BYTE UNAL,
     1580     4878    2           2 C CHAR(SIZ);
     1581     4879        /**/
     1582     4880    2           TBUF.N=SIZ;
     1583     4881    2           TBUF.C=TXT;
     1584     4882    2           TEXT$=PINCRC(TEXT$,SIZ+1);
     1585     4883    2           RETURN;
     1586     4884    2   END ADD_TEXTC;
     1587     4885        %EJECT;
PL6.E3A0      #001=THF$RAW File=THF$FORMAT.:E05TSI                               WED 07/30/97 06:08 Page:46
     1588     4886    1   ERROR_CODE: PROC(ERR);
     1589     4887    2   DCL 1 ERR UNAL,
     1590     4888    2           2 FCG(0:2) UBIN(6) UNAL,
     1591     4889    2           2 MON BIT(1),
     1592     4890    2           2 CODE UBIN(14) UNAL,
     1593     4891    2           2 SEV UBIN(3) UNAL;
     1594     4892    2   DCL 1 TBUF BASED(TEXT$),
     1595     4893    2           2 N UBIN BYTE UNAL,
     1596     4894    2           2 C CHAR(12),
     1597     4895    2           2 C_ARRAY(0:11) REDEF C CHAR(1) UNAL,
     1598     4896    2           2 C_UBIN(0:11) REDEF C UBIN(9) UNAL;
     1599     4897    2   DCL I SBIN;
     1600     4898        /**/
     1601     4899    3           DO I=0 TO 2;
     1602     4900    3              IF ERR.FCG(I) = 0
     1603     4901    3              THEN TBUF.C_ARRAY(I) = ' ';
     1604     4902    3              ELSE IF ERR.FCG(I) < 48
     1605     4903    3                   THEN TBUF.C_UBIN(I) = ERR.FCG(I) + 64;  /*its a letter*/
     1606     4904    3                   ELSE TBUF.C_UBIN(I) = ERR.FCG(I);       /*its a number*/
     1607     4905    3              END;
     1608     4906    2           CALL INSERT(TBUF.C,3,1,'-');
     1609     4907    2           I=4;
     1610     4908    3           IF ERR.MON THEN DO;
     1611     4909    3              CALL INSERT(TBUF.C,I,1,'M');
     1612     4910    3              I=5;
     1613     4911    3              END;
     1614     4912    2           CALL BINCHAR(SUBSTR(TBUF.C,I,5),ERR.CODE);
     1615     4913    2           CALL INSERT(TBUF.C,I+5,1,'-');
     1616     4914    2           CALL BINCHAR(SUBSTR(TBUF.C,I+6,1),ERR.SEV);
     1617     4915    2           TBUF.N=SIZEC(TBUF.C);
     1618     4916    2           TEXT$=PINCRC(TEXT$,SIZEC(TBUF));
     1619     4917    2           RETURN;
     1620     4918    2   END ERROR_CODE;
     1621     4919        %EJECT;
PL6.E3A0      #001=THF$RAW File=THF$FORMAT.:E05TSI                               WED 07/30/97 06:08 Page:47
     1622     4920        /*    CONVERT EDAC SYNDROME NUMBER TO TEXT                            */
     1623     4921        /**/
     1624     4922    1   EDAC: PROC(STATUS$,BOARD,CHIP);
     1625     4923    2   DCL BIT_4K(0:127) SBIN BYTE CALIGNED CONSTANT SYMDEF INIT(
     1626     4924    2           19,18,17,15,16,14,13,-1,19,12,11,9,10,8,7,-1,
     1627     4925    2           18,6,5,3,4,2,1,-1,-1,0,19,-1,18,-1,-1,-1,
     1628     4926    2           17,-1,-1,17,-1,16,15,-1,-1,14,13,11,12,10,9,-1,
     1629     4927    2           -1,8,7,5,6,4,3,-1,-1,2,1,-1,0,-1,-1,-1,
     1630     4928    2           16,-1,-1,15,-1,14,13,-1,-1,12,11,9,10,8,7,-1,
     1631     4929    2           -1,6,5,3,4,2,1,-1,-1,0,19,-1,18,-1,-1,-1,
     1632     4930    2           -1,-1,-1,17,-1,16,15,-1,-1,14,13,11,12,10,9,-1,
     1633     4931    2           -1,8,7,5,6,4,3,-1,-1,2,1,-1,0,-1,-1,-1);
     1634     4932    2   DCL QUAD_4K(0:127) SBIN BYTE CALIGNED CONSTANT SYMDEF INIT(
     1635     4933    2           4,4,4,4,4,4,4,0,2,4,4,4,4,4,4,0,
     1636     4934    2           2,4,4,4,4,4,4,0,0,4,3,0,3,0,0,0,
     1637     4935    2           2,0,0,3,0,3,3,0,0,3,3,3,3,3,3,0,
     1638     4936    2           0,3,3,3,3,3,3,0,0,3,3,0,3,0,0,0,
     1639     4937    2           2,0,0,2,0,2,2,0,0,2,2,2,2,2,2,0,
     1640     4938    2           0,2,2,2,2,2,2,0,0,2,1,0,1,0,0,0,
     1641     4939    2           0,0,0,1,0,1,1,0,0,1,1,1,1,1,1,0,
     1642     4940    2           0,1,1,1,1,1,1,0,0,1,1,0,1,0,0,0);
     1643     4941    2   DCL BOARD_4K(0:3) CHAR(4) STATIC INIT(
     1644     4942    2           'ABCD','FGHJ','KLMN','QRST');
     1645     4943    2   DCL CHIP_LTTR(0:9) STATIC CHAR(1) INIT('A','B','C','D','E','G',
     1646     4944    2       'H','J','K','L');
     1647     4945    2   DCL BIT# SBIN;
     1648     4946    2   DCL QUAD# SBIN;
     1649     4947    2   DCL CHIP# CHAR(2);
     1650     4948    2   DCL BOARD CHAR(1);
     1651     4949    2   DCL CHIP CHAR(3);
     1652     4950    2   DCL STATUS$ PTR;
     1653     4951        /**/
     1654     4952    2   DCL BIT_64K (0:127) SBIN BYTE CALIGNED CONSTANT SYMDEF INIT(
     1655     4953    2         79,78,77,71,76,70,69,-1,75,68,67,
     1656     4954    2         65,66,64,63,-1,74,62,61,59,60,58,
     1657     4955    2         57,-1,-1,56,55,-1,54,-1,-1,-1,73,-1,-1,53,-1,52,51,-1,-1,50,49,
     1658     4956    2         47,48,46,45,-1,-1,44,43,41,42,40,39,
PL6.E3A0      #001=THF$RAW File=THF$FORMAT.:E05TSI                               WED 07/30/97 06:08 Page:48
     1659     4957    2         -1,-1,38,37,-1,36,-1,-1,-1,72,-1,-1,35,-1,34,33,-1,-1,32,31,29,
     1660     4958    2         30,28,27,-1,-1,26,25,23,24,22,21,-1,-1,20,
     1661     4959    2         19,-1,18,-1,-1,-1,-1,-1,-1,17,-1,16,15,-1,-1,14,13,11,12,10,
     1662     4960    2         9,-1,-1,8,7,5,6,4,3,-1,-1,2,1,-1,0,-1*0);
     1663     4961    2   DCL CHIP_64K_CHAR (0:7) CHAR(2) CALIGNED CONSTANT SYMDEF INIT(
     1664     4962    2         '01','10','19','28','37','46','55','64');
     1665     4963    2   DCL CHIP_64K_LET (0:19) CHAR(1) CALIGNED CONSTANT SYMDEF INIT(
     1666     4964    2         'A','B','C','D','E','F','G','H','J','K',
     1667     4965    2         'N','P','Q','R','S','T','U','V','W','X');
     1668     4966    2   DCL BOARD_64K (0:15) CHAR(1) CALIGNED CONSTANT SYMDEF INIT(
     1669     4967    2         'A','B','C','D','E','F','G','H',
     1670     4968    2         'J','K','L','M','N','P','Q','R');
     1671     4969        /*                                                                    */
     1672     4970        /*                                                                    */
     1673     4971        %EL$EDAC;
     1674     4980        /*                                                                    */
     1675     4981        %EJECT;
PL6.E3A0      #001=THF$RAW File=THF$FORMAT.:E05TSI                               WED 07/30/97 06:08 Page:49
     1676     4982    2           IF STATUS$->EL$EDAC.STORE_MODE.MOSID = '1010'B
     1677     4983    2           THEN GOTO EDAC_64K;
     1678     4984    2           BIT#=BIT_4K(STATUS$->EL$EDAC.STORE_MODE.SYNDROME.NUMB);
     1679     4985    2           QUAD#=QUAD_4K(STATUS$->EL$EDAC.STORE_MODE.SYNDROME.NUMB);
     1680     4986    2           IF BIT#=-1 OR QUAD#=0 THEN
     1681     4987    3              DO;
     1682     4988    3                 BOARD=' ';
     1683     4989    3                 CHIP=' ';
     1684     4990    3                 RETURN;
     1685     4991    3              END;
     1686     4992    2           BOARD=SUBSTR(BOARD_4K(QUAD#-1),STATUS$->EL$EDAC.STORE_MODE.A45,1);
     1687     4993    2           IF MOD(BIT#,2) = 1 THEN
     1688     4994    3              DO;
     1689     4995    3                 CALL BINCHAR(CHIP#,7-STATUS$->EL$EDAC.STORE_MODE.A678);
     1690     4996    3                 CALL CONCAT(CHIP,SUBSTR(CHIP#,1,1),CHIP_LTTR(BIT#/2));
     1691     4997    3              END;
     1692     4998    2           ELSE
     1693     4999    3              DO;
     1694     5000    3                 CALL BINCHAR(CHIP#,18-STATUS$->EL$EDAC.STORE_MODE.A678);
     1695     5001    3                 CALL CONCAT(CHIP,CHIP#,CHIP_LTTR(BIT#/2));
     1696     5002    3              END;
     1697     5003    2           RETURN;
     1698     5004    2   EDAC_64K:
     1699     5005    2           BIT# = BIT_64K(STATUS$->EL$EDAC.STORE_MODE.SYNDROME.NUMB);
     1700     5006    2           IF BIT# < 0
     1701     5007    3           THEN DO;
     1702     5008    3              BOARD = ' ';
     1703     5009    3              CHIP = ' ';
     1704     5010    3              RETURN;
     1705     5011    3              END;
     1706     5012    2           BOARD = BOARD_64K(STATUS$->EL$EDAC.STORE_MODE.A45 * 4
     1707     5013    2                           + STATUS$->EL$EDAC.STORE_MODE.A678 / 2);
     1708     5014    2           QUAD# = BIT# * 2 + MOD(STATUS$->EL$EDAC.STORE_MODE.A678,2);
     1709     5015    2           CALL CONCAT (CHIP,
     1710     5016    2                        CHIP_64K_CHAR(MOD(QUAD#,8)),
     1711     5017    2                        CHIP_64K_LET(QUAD#/8));
     1712     5018    2           RETURN;
PL6.E3A0      #001=THF$RAW File=THF$FORMAT.:E05TSI                               WED 07/30/97 06:08 Page:50
     1713     5019    2   END EDAC;
     1714     5020        %EJECT;
PL6.E3A0      #001=THF$RAW File=THF$FORMAT.:E05TSI                               WED 07/30/97 06:08 Page:51
     1715     5021        /* HANDLING OF DETAIL REPORT FORMAT FOR IOERR                       */
     1716     5022        /**/
     1717     5023    1   THF$IOERR: PROC;
     1718     5024        /**/
     1719     5025    2   ALL_MATCH = %FALSE;
     1720     5026    3   IF TH_FIRST_TIME THEN DO;    /* if it's the first I/O record read */
     1721     5027    3      CALL INIT_TABLES;  /* call procedure to initialize tables */
     1722     5028    3      MMBUF = ' ';
     1723     5029    3      MM$ = ADDR(MMBUF);
     1724     5030    3      INFO = TH_XSA_BUF_VECTOR;   /* EL$IOERR now frames the data record */
     1725     5031    3      IF ((EL$IOERR.MPC_MODEL = 'URPEURP ')
     1726     5032    3        OR (EL$IOERR.MPC_MODEL = 'URP8011 ')
     1727     5033    3        OR (EL$IOERR.MPC_MODEL = 'URP8012 ')
     1728     5034    3        OR (EL$IOERR.MPC_MODEL = 'URP8013 ')
     1729     5035    3        OR (EL$IOERR.MPC_MODEL = 'URP8600 ')
     1730     5036    3        OR (EL$IOERR.MPC_MODEL = 'URP8601 '))
     1731     5037    4          THEN DO;
     1732     5038    4            ASCII_EXTST = EL$IOERR.EXTST;  /* REFORMAT EXTENDED STATUS */
     1733     5039    5            DO J = 0 TO 31;
     1734     5040    5               EL$IOERR.EXTST(J) = ASCII_EXTST.BYT(J);
     1735     5041    5            END;
     1736     5042    4          END;
     1737     5043    3      CALL THW$WRITE(COMPONENT_FMT,INFO);  /* write header for component */
     1738     5044    3      IOERR_TBL = EL$IOERR; /* store data record to detail_tbl */
     1739     5045    3      OTHER_IOERR_TBL.COUNT = OTHER_IOERR_TBL.COUNT + 1;
     1740     5046    3      NEW_OP = EL$IOERR.IDCW;
     1741     5047    3      GOTO FIND_STATUS_ETC;
     1742     5048    3   END;  /* if first record read */
     1743     5049    2   ELSE IF TH_EOF_FLG THEN GOTO NOT_ALL_MATCH;
     1744     5050    3   ELSE IF NOT TH_EOF_FLG AND NOT TH_FIRST_TIME THEN DO;
     1745     5051    3      MM$ = ADDR(MMBUF);
     1746     5052    3      INFO = TH_XSA_BUF_VECTOR;   /* EL$IOERR now frames the data record */
     1747     5053    3      IF ((EL$IOERR.MPC_MODEL = 'URPEURP ')
     1748     5054    3        OR (EL$IOERR.MPC_MODEL = 'URP8011 ')
     1749     5055    3        OR (EL$IOERR.MPC_MODEL = 'URP8012 ')
     1750     5056    3        OR (EL$IOERR.MPC_MODEL = 'URP8013 ')
     1751     5057    3        OR (EL$IOERR.MPC_MODEL = 'URP8600 ')
PL6.E3A0      #001=THF$RAW File=THF$FORMAT.:E05TSI                               WED 07/30/97 06:08 Page:52
     1752     5058    3        OR (EL$IOERR.MPC_MODEL = 'URP8601 '))
     1753     5059    4          THEN DO;
     1754     5060    4            ASCII_EXTST = EL$IOERR.EXTST;  /* REFORMAT EXTENDED STATUS */
     1755     5061    5            DO J = 0 TO 31;
     1756     5062    5               EL$IOERR.EXTST(J) = ASCII_EXTST.BYT(J);
     1757     5063    5            END;
     1758     5064    4          END;
     1759     5065    3      NEW_OP = EL$IOERR.IDCW;
     1760     5066    3      NEW_DENSE = EL$IOERR.EXTST(2);
     1761     5067    3      OLD_DENSE = IOERR_TBL.EXTST(2);
     1762     5068    3      J = 0;
     1763     5069    4      DO I = 0 TO NUMMODELS;
     1764     5070    5         IF EL$IOERR.MODEL = DEVICE_CMND.DEV(I) THEN DO;
     1765     5071    5            DEV_OP$ = DEVICE_CMND.SUB$(I);
     1766     5072    5            J = DEVICE_CMND.COUNT(I);
     1767     5073    5         END;  /* if el$ioerr.model = device_cmnd.dev(i)  */
     1768     5074    4      END;  /* do i = 0 to 19 */
     1769     5075    3      IF J > 0 THEN
     1770     5076    4      DO I = 0 TO J;
     1771     5077    4         IF NEW_OP_RDF(0) = DEV_OP_TBL.CODE(I)
     1772     5078    4         THEN OPERATION = DEV_OP_TBL.TEXT(I);
     1773     5079    4      END;  /* do i = 0 to j */
     1774     5080    3      IF EL$IOERR.DEVNM = IOERR_TBL.DEVNM
     1775     5081    4      THEN DO;
     1776     5082    4          IF EL$IOERR.STATUS.MAJOR = IOERR_TBL.STATUS.MAJOR
     1777     5083    5          THEN DO;
     1778     5084    5            IF EL$IOERR.STATUS.MINOR = IOERR_TBL.STATUS.MINOR
     1779     5085    6            THEN DO;
     1780     5086    6              IF EL$IOERR.MODEL = IOERR_TBL.MODEL
     1781     5087    7              THEN DO;
     1782     5088    7                MODEL_CHAR = IOERR_TBL.MODEL;
     1783     5089    8                IF MODEL_CHAR = 'MTU' THEN DO;
     1784     5090    8                  IF EL$IOERR.MODEL = 'MTU8200'
     1785     5091    9                  THEN DO;
     1786     5092    9                     NEW_IO_MASK = EL$IOERR.EXTST;
     1787     5093    9                     IO_MASK = IOERR_TBL.EXTST;
     1788     5094    9                     IF IO_MASK1(29) = IO_MASK2(29) THEN;
PL6.E3A0      #001=THF$RAW File=THF$FORMAT.:E05TSI                               WED 07/30/97 06:08 Page:53
     1789     5095    9                     ELSE IF IO_MASK1(51) = IO_MASK2(51) THEN;
     1790     5096    9                     ELSE IF IO_MASK1(52) = IO_MASK2(52) THEN;
     1791     5097    9                     ELSE GOTO NOT_ALL_MATCH;
     1792     5098    9                       GOTO COMP_OP;
     1793     5099    9                  END; /* if model is mtu8200 */
     1794     5100    8                  ELSE IF NEW_DENSE_RDF.DENSITY = OLD_DENSE_RDF.DENSITY
     1795     5101    9                  THEN DO;
     1796     5102    9   COMP_OP:        IF OPERATION = OTHER_IOERR_TBL.OPERATION
     1797     5103   10                   THEN DO;
     1798     5104   10                      OTHER_IOERR_TBL.COUNT = OTHER_IOERR_TBL.COUNT + 1;
     1799     5105   10                      ALL_MATCH = %TRUE;
     1800     5106   10                      GOTO FIND_STATUS_ETC;
     1801     5107   10                   END;  /*  if new_operation = old_operation */
     1802     5108    9                   ELSE GOTO NOT_ALL_MATCH;
     1803     5109    9                  END; /* if new density = old density */
     1804     5110    8                  ELSE GOTO NOT_ALL_MATCH;
     1805     5111    8                END; /* if model_char = 'MTU' */
     1806     5112    8                ELSE DO;
     1807     5113    8                  OTHER_IOERR_TBL.COUNT = OTHER_IOERR_TBL.COUNT + 1;
     1808     5114    8                  ALL_MATCH = %TRUE;
     1809     5115    8                  GOTO FIND_STATUS_ETC;
     1810     5116    8                END; /* else do */
     1811     5117    7              END;
     1812     5118    6              ELSE GOTO NOT_ALL_MATCH;
     1813     5119    6            END;
     1814     5120    5            ELSE GOTO NOT_ALL_MATCH;
     1815     5121    5          END;
     1816     5122    4          ELSE GOTO NOT_ALL_MATCH;
     1817     5123    4      END;
     1818     5124    3      ELSE GOTO NOT_ALL_MATCH;
     1819     5125    3   END;
     1820     5126    3      DO NEVER;
     1821     5127    3   NOT_ALL_MATCH: MMVEC = VECTOR(MMBUF);
     1822     5128    3                  MMVEC.BOUND = POFFC(MM$,ADDR(MMBUF)) - 1;
     1823     5129    3                  IO_MASK = IOERR_TBL.EXTST;
     1824     5130    3                  MODEL_CHAR = IOERR_TBL.MODEL;
     1825     5131    3                  IF IOERR_TBL.MODEL = 'MTU0400' OR IOERR_TBL.MODEL = 'MTU0500'
PL6.E3A0      #001=THF$RAW File=THF$FORMAT.:E05TSI                               WED 07/30/97 06:08 Page:54
     1826     5132    3                  THEN OTHER_IOERR_TBL.TRACK = '7';
     1827     5133    3                  ELSE IF IOERR_TBL.MODEL = 'MTU0610' OR IOERR_TBL.MODEL = 'MTU0630' OR
              5133                           IOERR_TBL.MODEL = 'MTU8200'
     1828     5134    3                  THEN OTHER_IOERR_TBL.TRACK = '9';
     1829     5135    4                  DO I = CTL.NHDR + 1 TO CTL.NFMT + CTL.NHDR;
     1830     5136    4                    IF MODEL_CHAR = 'MTU' AND IO_MASK1 THEN
     1831     5137    4                    CALL THW$WRITE(CTL.FMT(I),VECTOR(IOERR_TBL),VECTOR(OTHER_IOERR_TBL)
              5137                             ,MMVEC);
     1832     5138    4                    ELSE IF MODEL_CHAR = 'MTU' THEN
     1833     5139    4                    CALL THW$WRITE(NO_XSTAT_FMT,VECTOR(IOERR_TBL),VECTOR(
              5139                             OTHER_IOERR_TBL),MMVEC);
     1834     5140    4                    ELSE CALL THW$WRITE(NON_TAPE_FMT,VECTOR(IOERR_TBL),VECTOR(
              5140                             OTHER_IOERR_TBL),MMVEC);
     1835     5141    5                    IF IO_MASK1 THEN DO;
     1836     5142    6                       IF TRACK_NINE THEN DO;
     1837     5143    7                          DO X = 0 TO 8;
     1838     5144    8                             IF NINE_TRACK_RDF(X) > 0 THEN DO;
     1839     5145    8                             CALL BINCHAR(NINE_TRACK_BLNK(X),NINE_TRACK_RDF(X));
     1840     5146    8                             CALL EDITCHAR(NINE_TRACK_BLNK(X), , ,NO_LEADING_ZEROS,
              5146                                      NINE_TRACK_BLNK(X));
     1841     5147    8                             END;  /* if nine_track_rdf(x) > 0 */
     1842     5148    7                          END;
     1843     5149    6                          CALL THW$WRITE(NINE_TRK_FMT,VECTOR(NINE_TRACK_BLNK));
     1844     5150    6                       END;  /* if track_nine */
     1845     5151    5                    END;  /* if io_mask1 */
     1846     5152    4                  END;   /* do i = ctl.nhdr+1 to ctl.nfmt+ctl.nhdr */
     1847     5153    4         IF CTL.SPECIAL THEN DO;
     1848     5154    5            IF NUM_XSTATUS > 0 AND MODEL_CHAR = 'MTU' THEN DO;/* if stats bits*/
     1849     5155    5               CALL THW$WRITE(EXTENDED_FMT);  /* write extended stats hdr */
     1850     5156    6               DO I = 0 TO NUM_XSTATUS-1;
     1851     5157    6                   CALL THW$WRITE(STATUS_FMT,VECTOR(XSTAT_TBL.COUNT(I)),VECTOR(
              5157                            XSTAT_TBL.TEXT(I)));
     1852     5158    6               END; /*  do i = 0 to num_xstatus */
     1853     5159    5            END; /* if num_xstatus > 0 */
     1854     5160    4         END; /* if ctl.special */
     1855     5161    3         IF TH_EOF_FLG THEN RETURN;
     1856     5162    3         CALL INIT_TABLES;  /* call procedure to initialize tables */
PL6.E3A0      #001=THF$RAW File=THF$FORMAT.:E05TSI                               WED 07/30/97 06:08 Page:55
     1857     5163    3         IF EL$IOERR.DEVNM ~= IOERR_TBL.DEVNM THEN
     1858     5164    3              CALL THW$WRITE(COMPONENT_FMT,INFO);
     1859     5165    3            IOERR_TBL = EL$IOERR;  /* save new data record */
     1860     5166    3            OTHER_IOERR_TBL.COUNT = OTHER_IOERR_TBL.COUNT + 1;
     1861     5167    3      END;  /* do never */
     1862     5168    2   FIND_STATUS_ETC: TEMP_STATUS = EL$IOERR.STATUS;
     1863     5169    3         IF TEMP_STATUS1.MAJOR_STATUS = '101111'B THEN DO;
     1864     5170    3            TEMP_STATUS1.XX = TEMP_STATUS1.FAULT_CODE;
     1865     5171    3            TEMP_STATUS1.YY = TEMP_STATUS1.CHANNEL;
     1866     5172    3            EL$IOERR.STATUS = TEMP_STATUS;
     1867     5173    3         END;
     1868     5174    2         CALL THF$STATUS(EL$IOERR,MAJBUF,MAJCNT,MINBUF,MINCNT) ALTRET(SORRY_NO_STATS);
     1869     5175    2         CALL THF$ADD_TEXTC(MM$,MAJBUF,MAJCNT);
     1870     5176    2         CALL THF$ADD_TEXTC(MM$,MINBUF,MINCNT);
     1871     5177
     1872     5178    3      DO NEVER;
     1873     5179    3   SORRY_NO_STATS: CALL THF$ADD_TEXTC(MM$,'***',3);
     1874     5180    3                   CALL THF$ADD_TEXTC(MM$,'***',3);
     1875     5181    3                   MMVEC = VECTOR(MMBUF);
     1876     5182    3                   MMVEC.BOUND = POFFC(MM$,ADDR(MMBUF)) - 1;
     1877     5183    3      END;  /* do never */
     1878     5184
     1879     5185    2      NXST = 0;
     1880     5186    2      DEV_FLAG = %FALSE;
     1881     5187    3      DO I = 0 TO NUMMODELS;
     1882     5188    4         IF EL$IOERR.MODEL = X_DEV_TYPE.DEV(I) THEN DO;
     1883     5189    4            IO_MASK = EL$IOERR.EXTST;
     1884     5190    4            IF IO_MASK1 THEN;
     1885     5191    4            ELSE GOTO NO_INT;
     1886     5192    4              IF EL$IOERR.MODEL = 'MTU0610' AND IO_MASK1(53) AND IO_MASK1(54)
     1887     5193    4              THEN I = I + 1;
     1888     5194    4              IF EL$IOERR.MODEL = 'MTU0400' THEN I = I + 1;
     1889     5195    4              IF EL$IOERR.MODEL = 'MTU8200'
     1890     5196    4              THEN FIPS_TAPE = %TRUE;
     1891     5197    4            DEV$ = X_DEV_TYPE.SUB$(I);
     1892     5198    4            DEV_FLAG = %TRUE;
     1893     5199    4            J = X_DEV_TYPE.COUNT(I);
PL6.E3A0      #001=THF$RAW File=THF$FORMAT.:E05TSI                               WED 07/30/97 06:08 Page:56
     1894     5200    4            GOTO FOUND_XSTATS;
     1895     5201    4         END;
     1896     5202    3      END;   /* do i = 0 to 19 */
     1897     5203    2      GOTO NO_INT;
     1898     5204    3   FOUND_XSTATS:   IF DEV_FLAG THEN DO;
     1899     5205    3        IO_MASK = EL$IOERR.EXTST;
     1900     5206    3        MODEL_CHAR = EL$IOERR.MODEL;
     1901     5207    4          DO I = 0 TO J; /* go through device's text tables */
     1902     5208    4            IF (((MODEL_CHAR = 'MTU')AND NOT FIPS_TAPE AND
     1903     5209    4               (DEVTBL.CODE(I) = 16 OR DEVTBL.CODE(I) = 20
     1904     5210    4                 OR DEVTBL.CODE(I) = 27 OR DEVTBL.CODE(I) = 35))
     1905     5211    4               OR (EL$IOERR.MODEL = 'MTU0400' AND DEVTBL.CODE(I) = 96))
     1906     5212    5            THEN DO;
     1907     5213    6              DO CASE(DEVTBL.CODE(I));
     1908     5214    6                 CASE (16);
     1909     5215    6                    LENN = 3;
     1910     5216    6                 CASE (20);
     1911     5217    6                    LENN = 4;
     1912     5218    6                 CASE (27);
     1913     5219    6                    LENN = 5;
     1914     5220    6                 CASE (35);
     1915     5221    6                    LENN = 5;
     1916     5222    6                 CASE (96);
     1917     5223    6                    LENN = 4;
     1918     5224    6              END;  /* do case */
     1919     5225    6              DO II = 0 TO LENN -1;
     1920     5226    6                IF IO_MASK1(DEVTBL.CODE(I) + II)
     1921     5227    6                   THEN SP_BIT(II) = '1';
     1922     5228    6                   ELSE SP_BIT(II) = '0';
     1923     5229    6              END;  /* do II */
     1924     5230    6              DO II = 0 TO 4;
     1925     5231    6                IF DEVTBL.CODE(I) = SP_CASES.BYTEN(II)
     1926     5232    7                THEN DO;
     1927     5233    7                   SPC$ = SP_CASES.SUB$(II);
     1928     5234    7                   JJ = SP_CASES.COUNT(II);
     1929     5235    7                   GOTO FOUND_SP;
     1930     5236    7                END;  /* if devtbl.code(i) = sp_cases.byten(ii) */
PL6.E3A0      #001=THF$RAW File=THF$FORMAT.:E05TSI                               WED 07/30/97 06:08 Page:57
     1931     5237    6              END; /* do II = 0 to 4 */
     1932     5238    5   FOUND_SP:
     1933     5239    6              DO II = 0 TO JJ;
     1934     5240    6                IF SP_CHAR = SPTBL.CODE(II)
     1935     5241    7                THEN DO;
     1936     5242    7                    XST_TEXT = SPTBL.TEXT(II);
     1937     5243    7                    XST_CNT = SPTBL.COUNT(II);
     1938     5244    7                    GOTO CONT_NEXT_I;
     1939     5245    7                END;   /* if sp_char = sptbl.code(ii) */
     1940     5246    6              END;  /* do ii = 0 to jj */
     1941     5247    5            END; /* if model_char='MTU'... */
     1942     5248    4            ELSE IF FIPS_TAPE AND ((DEVTBL.CODE(I)=29)OR(DEVTBL.CODE(I)=53)OR(DEVTBL.
              5248                     CODE(I)=176))
     1943     5249    5            THEN DO CASE(DEVTBL.CODE(I));
     1944     5250    5                    CASE(29);
     1945     5251    5                      CALL FIND_DEN_MODE;
     1946     5252    5                      GOTO CONT_NEXT_I;
     1947     5253    5                    CASE(53);
     1948     5254    5                      IF IO_MASK1(DEVTBL.CODE(I))AND
     1949     5255    5                         IO_MASK1(DEVTBL.CODE(I+1))
     1950     5256    6                      THEN DO;
     1951     5257    6                         XST_TEXT = 'DEV SPEED: 200 IPS';
     1952     5258    6                         GOTO CONT_NEXT_I;
     1953     5259    6                      END;
     1954     5260    5                    CASE(176);
     1955     5261    5                      CALL FIND_FAULT_CODE;
     1956     5262    5                      GOTO CONT_NEXT_I;
     1957     5263    5                 END;  /* do case */
     1958     5264    5            ELSE DO;
     1959     5265    6              IF IO_MASK1(DEVTBL.CODE(I)) THEN DO;
     1960     5266    6                 XST_TEXT = DEVTBL.TEXT(I);
     1961     5267    6                 XST_CNT = DEVTBL.COUNT(I);
     1962     5268    6   CONT_NEXT_I: IF FIPS_TAPE
     1963     5269    6                THEN CALL FIND_NINE_TRACKS; /* mtu8200s are always 9 trks */
     1964     5270    7                ELSE IF MODEL_CHAR = 'MTU' THEN DO;
     1965     5271    7                  IF IO_MASK1(16) THEN CALL FIND_TRACKS; /* if nrzi mode */
     1966     5272    7                  ELSE CALL FIND_NINE_TRACKS;  /* else pe, or gcr mode */
PL6.E3A0      #001=THF$RAW File=THF$FORMAT.:E05TSI                               WED 07/30/97 06:08 Page:58
     1967     5273    7                END; /*  if model_char='mtu' */
     1968     5274    6                CALL CHECK_MODEL_CODES;  /* checking current bit */
     1969     5275    7                 IF ALL_MATCH THEN DO;  /* if all data  match */
     1970     5276    7                    X = 0;
     1971     5277    8                    DO WHILE X <= J AND NOT FOUND_ST;
     1972     5278    8                       IF XST_TEXT = XSTAT_TBL.TEXT(X)
     1973     5279    9                       THEN DO; XSTAT_TBL.COUNT(X) = XSTAT_TBL.COUNT(X) + 1;
     1974     5280    9                                FOUND_ST = %TRUE;
     1975     5281    9                       END;
     1976     5282    8                       ELSE X = X + 1;
     1977     5283    8                    END;  /* do while */
     1978     5284    7                    X = 0;
     1979     5285    7                    IF MODEL_CHAR = 'MTU' AND (I = 16 OR DEVTBL.CODE(I) = 27)
     1980     5286    7                    THEN;
     1981     5287    7                    ELSE IF FIPS_TAPE AND (DEVTBL.CODE(I)=29) OR (DEVTBL.CODE(I)=53)
              5287                             THEN;
     1982     5288    7                    ELSE
     1983     5289    8                     DO WHILE NOT FOUND_ST AND X <= J;
     1984     5290    9                       IF XSTAT_TBL.TEXT(X) = ' ' THEN DO;
     1985     5291    9                          XSTAT_TBL.TEXT(X) = XST_TEXT;
     1986     5292    9                          XSTAT_TBL.COUNT(X) = XSTAT_TBL.COUNT(X) + 1;
     1987     5293    9                          NUM_XSTATUS = NUM_XSTATUS + 1;
     1988     5294    9                          FOUND_ST = %TRUE;
     1989     5295    9                       END;
     1990     5296    8                       ELSE X = X + 1;
     1991     5297    8                     END;  /* do while */
     1992     5298    7                  END;  /* if all_match */
     1993     5299    7                  ELSE DO;  /* if not all_match */
     1994     5300    7                   IF FIPS_TAPE AND (DEVTBL.CODE(I)=29) THEN
     1995     5301    7                     OTHER_IOERR_TBL.DENSITY = XST_TEXT;
     1996     5302    7                   ELSE IF FIPS_TAPE AND (DEVTBL.CODE(I)=53) THEN
     1997     5303    7                     OTHER_IOERR_TBL.SPEED = XST_TEXT;
     1998     5304    7                   ELSE IF I= 16 AND MODEL_CHAR = 'MTU' THEN
     1999     5305    7                     OTHER_IOERR_TBL.DENSITY = XST_TEXT;
     2000     5306    7                   ELSE IF DEVTBL.CODE(I) = 27 AND MODEL_CHAR = 'MTU' THEN
     2001     5307    7                     OTHER_IOERR_TBL.SPEED = XST_TEXT;
     2002     5308    8                   ELSE IF NOT FOUND_ST THEN DO;
PL6.E3A0      #001=THF$RAW File=THF$FORMAT.:E05TSI                               WED 07/30/97 06:08 Page:59
     2003     5309    8                      XSTAT_TBL.TEXT(NUM_XSTATUS) = XST_TEXT; /* save status */
     2004     5310    8                      XSTAT_TBL.COUNT(NUM_XSTATUS) = XSTAT_TBL.COUNT(NUM_XSTATUS) + 1;
     2005     5311    8                      NUM_XSTATUS = NUM_XSTATUS + 1;
     2006     5312    8                   END; /* if not found_st  */
     2007     5313    7                  END; /* else do */
     2008     5314    6                 NXST = NXST + 1;
     2009     5315    6              END;  /* if io_mask1(devtbl.code(I)) */
     2010     5316    5            END;  /* else do */
     2011     5317    4          END;   /* do i = 0 to j */
     2012     5318    3   NO_INT:MODEL_CHAR = EL$IOERR.MODEL;
     2013     5319    4          IF NOT ALL_MATCH AND MODEL_CHAR = 'MTU' THEN DO;
     2014     5320    5             DO I = 0 TO NUMMODELS;  /* go through device command table */
     2015     5321    6                IF EL$IOERR.MODEL = DEVICE_CMND.DEV(I) THEN DO; /* if model is found */
     2016     5322    6                   DEV_OP$ = DEVICE_CMND.SUB$(I);  /* get start of model table */
     2017     5323    6                   J = DEVICE_CMND.COUNT(I);  /* get size of model table */
     2018     5324    6                END; /* if el$ioerr.model = device_cmnd.dev(i) */
     2019     5325    5             END; /* do i = 0 to 19 */
     2020     5326    5             DO I = 0 TO J;  /* go through model table */
     2021     5327    5                IF NEW_OP_RDF(0) = DEV_OP_TBL.CODE(I) /* if new operation found */
     2022     5328    5                THEN
     2023     5329    5                    OTHER_IOERR_TBL.OPERATION = DEV_OP_TBL.TEXT(I);
              5329                             /* store new operation */
     2024     5330    5             END; /* do i = 0 to j */
     2025     5331    4          END; /* if not_all_match and model_char = 'mtu' */
     2026     5332    3          IF TH_FIRST_TIME THEN TH_FIRST_TIME = %FALSE;
     2027     5333    3       END;  /* if dev_flag */
     2028     5334    2   END THF$IOERR;
     2029     5335        %EJECT;
PL6.E3A0      #001=THF$RAW File=THF$FORMAT.:E05TSI                               WED 07/30/97 06:08 Page:60
     2030     5336        /*  LOOK FOR TRACKS IN ERR IF NRZI MODE */
     2031     5337        /**/
     2032     5338    1   FIND_TRACKS: PROC;
     2033     5339        /**/
     2034     5340    3   IF EL$IOERR.MODEL = 'MTU0610' OR EL$IOERR.MODEL = 'MTU0630' THEN DO;
     2035     5341    4     IF IO_MASK1(9) THEN DO;   /* if write mode for 9 track tapes */
     2036     5342    5       DO CASE(DEVTBL.CODE(I));
     2037     5343    5          CASE(144);
     2038     5344    5            NINE_TRACK_TBL.SEVEN = NINE_TRACK_TBL.SEVEN + 1;
     2039     5345    5          CASE(145);
     2040     5346    5            NINE_TRACK_TBL.SIX = NINE_TRACK_TBL.SIX + 1;
     2041     5347    5          CASE(146);
     2042     5348    5            NINE_TRACK_TBL.FIVE = NINE_TRACK_TBL.FIVE + 1;
     2043     5349    5          CASE(147);
     2044     5350    5            NINE_TRACK_TBL.THREE = NINE_TRACK_TBL.THREE + 1;
     2045     5351    5          CASE(148);
     2046     5352    5            NINE_TRACK_TBL.NINE = NINE_TRACK_TBL.NINE + 1;
     2047     5353    5          CASE(149);
     2048     5354    5            NINE_TRACK_TBL.ONE = NINE_TRACK_TBL.ONE + 1;
     2049     5355    5          CASE(150);
     2050     5356    5            NINE_TRACK_TBL.EIGHT = NINE_TRACK_TBL.EIGHT + 1;
     2051     5357    5          CASE(151);
     2052     5358    5            NINE_TRACK_TBL.TWO = NINE_TRACK_TBL.TWO + 1;
     2053     5359    5          CASE(137);
     2054     5360    5            NINE_TRACK_TBL.FOUR = NINE_TRACK_TBL.FOUR + 1;
     2055     5361    5       END;  /* do case */
     2056     5362    5       DO X = 0 TO 8;
     2057     5363    5          IF NINE_TRACK_RDF(X) > 0 THEN TRACK_NINE = %TRUE;
     2058     5364    5       END;
     2059     5365    4     END;  /* if write mode */
     2060     5366    3   END; /* if 9 track tapes */
     2061     5367    2   END FIND_TRACKS;
     2062     5368        %EJECT;
PL6.E3A0      #001=THF$RAW File=THF$FORMAT.:E05TSI                               WED 07/30/97 06:08 Page:61
     2063     5369        /*    FIND DATA/TRACK IN ERR FOR NINE TRACK TAPES */
     2064     5370        /**/
     2065     5371    1   FIND_NINE_TRACKS: PROC;
     2066     5372        /**/
     2067     5373    2      IF EL$IOERR.MODEL = 'MTU8200'
     2068     5374    3      THEN DO CASE(DEVTBL.CODE(I));
     2069     5375    3              CASE(16);
     2070     5376    3                 NINE_TRACK_TBL.SEVEN = NINE_TRACK_TBL.SEVEN + 1;
     2071     5377    3              CASE(17);
     2072     5378    3                 NINE_TRACK_TBL.SIX = NINE_TRACK_TBL.SIX + 1;
     2073     5379    3              CASE(18);
     2074     5380    3                 NINE_TRACK_TBL.FIVE = NINE_TRACK_TBL.FIVE + 1;
     2075     5381    3              CASE(19);
     2076     5382    3                 NINE_TRACK_TBL.THREE = NINE_TRACK_TBL.THREE + 1;
     2077     5383    3              CASE(20);
     2078     5384    3                 NINE_TRACK_TBL.NINE = NINE_TRACK_TBL.NINE + 1;
     2079     5385    3              CASE(21);
     2080     5386    3                 NINE_TRACK_TBL.ONE = NINE_TRACK_TBL.ONE + 1;
     2081     5387    3              CASE(22);
     2082     5388    3                 NINE_TRACK_TBL.EIGHT = NINE_TRACK_TBL.EIGHT + 1;
     2083     5389    3              CASE(23);
     2084     5390    3                 NINE_TRACK_TBL.TWO = NINE_TRACK_TBL.TWO + 1;
     2085     5391    3              CASE(24);
     2086     5392    3                 NINE_TRACK_TBL.FOUR = NINE_TRACK_TBL.FOUR +1;
     2087     5393    3           END;
     2088     5394    3      ELSE DO CASE(DEVTBL.CODE(I));
     2089     5395    3         CASE(128);
     2090     5396    3           NINE_TRACK_TBL.SEVEN = NINE_TRACK_TBL.SEVEN + 1;
     2091     5397    3         CASE(129);
     2092     5398    3           NINE_TRACK_TBL.SIX = NINE_TRACK_TBL.SIX + 1;
     2093     5399    3         CASE(130);
     2094     5400    3           NINE_TRACK_TBL.FIVE = NINE_TRACK_TBL.FIVE + 1;
     2095     5401    3         CASE(131);
     2096     5402    3           NINE_TRACK_TBL.THREE = NINE_TRACK_TBL.THREE + 1;
     2097     5403    3         CASE(132);
     2098     5404    3           NINE_TRACK_TBL.NINE = NINE_TRACK_TBL.NINE + 1;
     2099     5405    3         CASE(133);
PL6.E3A0      #001=THF$RAW File=THF$FORMAT.:E05TSI                               WED 07/30/97 06:08 Page:62
     2100     5406    3           NINE_TRACK_TBL.ONE = NINE_TRACK_TBL.ONE + 1;
     2101     5407    3         CASE(134);
     2102     5408    3           NINE_TRACK_TBL.EIGHT = NINE_TRACK_TBL.EIGHT + 1;
     2103     5409    3         CASE(135);
     2104     5410    3           NINE_TRACK_TBL.TWO = NINE_TRACK_TBL.TWO + 1;
     2105     5411    3         CASE(136);
     2106     5412    3           NINE_TRACK_TBL.FOUR = NINE_TRACK_TBL.FOUR + 1;
     2107     5413    3      END;  /*  do case  */
     2108     5414    3      DO X = 0 TO 8;
     2109     5415    3         IF NINE_TRACK_RDF(X) > 0 THEN TRACK_NINE = %TRUE;
     2110     5416    3      END;
     2111     5417    2   END FIND_NINE_TRACKS;
     2112     5418        %EJECT;
PL6.E3A0      #001=THF$RAW File=THF$FORMAT.:E05TSI                               WED 07/30/97 06:08 Page:63
     2113     5419        /**/
     2114     5420        /* PROCEDURE TO CHECK TABLES FOR EXTENDED STATUS BIT MATCH */
     2115     5421        /**/
     2116     5422    1   CHECK_MODEL_CODES: PROC;
     2117     5423        /**/
     2118     5424    2   FOUND_ST = %TRUE;
     2119     5425    2   IF FIPS_TAPE
     2120     5426    3   THEN DO X = 0 TO 26;
     2121     5427    3           IF DEVTBL.CODE(I) = TBL_EIGHTY_TWO.CODE(X)
     2122     5428    4           THEN DO;
     2123     5429    4              FOUND_ST = %FALSE;
     2124     5430    4              GOTO FOUND_CODE;
     2125     5431    4           END;
     2126     5432    3        END; /* do x */
     2127     5433    2   ELSE IF IO_MASK1(16) AND (TRACK_SEVEN OR TRACK_NINE) AND
     2128     5434    2      ((DEVTBL.CODE(I) >= 130 AND DEVTBL.CODE(I) <= 137)
     2129     5435    2     OR(DEVTBL.CODE(I) >= 144 AND DEVTBL.CODE(I) <= 151)) THEN;
     2130     5436    2   ELSE IF TRACK_NINE AND
     2131     5437    2          (DEVTBL.CODE(I) >= 128 AND DEVTBL.CODE(I) <= 136) THEN;
     2132     5438    2   ELSE IF EL$IOERR.MODEL = 'MTU0610' OR EL$IOERR.MODEL = 'MTU0630'
     2133     5439    3   THEN DO;
     2134     5440    4         DO X = 0 TO 9;
     2135     5441    4            IF DEVTBL.CODE(I) = TBL_SIX.CODE(X)
     2136     5442    5            THEN DO;
     2137     5443    5              FOUND_ST = %FALSE;
     2138     5444    5              GOTO FOUND_CODE;
     2139     5445    5            END;
     2140     5446    4         END;  /* do x */
     2141     5447    3         IF EL$IOERR.MODEL = 'MTU0610'
     2142     5448    4         THEN   DO X = 0 TO 9;
     2143     5449    4                  IF DEVTBL.CODE(I) = TBL_SIX_TEN.CODE(X)
     2144     5450    4                  THEN FOUND_ST = %FALSE;
     2145     5451    4                END;
     2146     5452    3         ELSE IF EL$IOERR.MODEL = 'MTU0630'
     2147     5453    4         THEN  DO X = 0 TO 7;
     2148     5454    4                  IF DEVTBL.CODE(I) = TBL_SIX_THIRTY.CODE(X)
     2149     5455    4                  THEN FOUND_ST = %FALSE;
PL6.E3A0      #001=THF$RAW File=THF$FORMAT.:E05TSI                               WED 07/30/97 06:08 Page:64
     2150     5456    4               END; /* do x */
     2151     5457    3   END;  /* if el$ioerr.model = 'mtu0610' or 'mtu0630' */
     2152     5458    2   ELSE FOUND_ST = %FALSE;
     2153     5459    2   FOUND_CODE:;
     2154     5460    2   END CHECK_MODEL_CODES;
     2155     5461        %EJECT;
PL6.E3A0      #001=THF$RAW File=THF$FORMAT.:E05TSI                               WED 07/30/97 06:08 Page:65
     2156     5462        /**/
     2157     5463        /*  PROCEDURE TO INITIALIZE TABLES FOR IOERR DETAIL REPORT */
     2158     5464        /**/
     2159     5465    1   INIT_TABLES: PROC;
     2160     5466    2         NUM_XSTATUS = 0;
     2161     5467    2         TRACK_SEVEN = %FALSE;
     2162     5468    2         TRACK_NINE = %FALSE;
     2163     5469    2         OTHER_IOERR_TBL.COUNT = 0;
     2164     5470    2         OTHER_IOERR_TBL.OPERATION = OPERATION;
     2165     5471    2         OTHER_IOERR_TBL.SPEED = ' ';
     2166     5472    2         OTHER_IOERR_TBL.DENSITY = ' ';
     2167     5473    2         OTHER_IOERR_TBL.TRACK = ' ';
     2168     5474    3         DO I = 0 TO 207;
     2169     5475    3            XSTAT_TBL.TEXT(I) = ' ';
     2170     5476    3            XSTAT_TBL.COUNT(I) = 0;
     2171     5477    3         END;  /* do i = 0 to 207  */
     2172     5478    2         NINE_TRACK_TBL = '0'B;
     2173     5479    2         NINE_TRACK_STRING = ' ';
     2174     5480    2         FIPS_TAPE = %FALSE;
     2175     5481    2   END INIT_TABLES;
     2176     5482        %EJECT;
PL6.E3A0      #001=THF$RAW File=THF$FORMAT.:E05TSI                               WED 07/30/97 06:08 Page:66
     2177     5483        /**/
     2178     5484        /* ROUTINE TO FIND THE DENSITY FOR FIPS TAPES                     */
     2179     5485        /**/
     2180     5486    1   FIND_DEN_MODE: PROC;
     2181     5487        /**/
     2182     5488    2     IF IO_MASK1(DEVTBL.CODE(I))   /* if byte 3, bit 5 is set */
     2183     5489    3     THEN DO;
     2184     5490    3        XST_TEXT = 'CURR DEN: 1600 BPI';   /* its PE mode */
     2185     5491    3        XST_CNT = 18;
     2186     5492    3     END;
     2187     5493    2     ELSE IF IO_MASK1(51)  /* if not PE mode, check byte 6, bit 3 */
     2188     5494    3     THEN DO;
     2189     5495    3        XST_TEXT = 'CURR DEN: 6250 BPI'; /* its GCR mode */
     2190     5496    3        XST_CNT = 18;
     2191     5497    3     END;
     2192     5498    2     ELSE IF NOT IO_MASK1(52)   /* if not GCR, check byte 6, bit 4 */
     2193     5499    3     THEN DO;
     2194     5500    3        XST_TEXT = 'CURR DEN: 200/556/800 BPI'; /* its NRZI mode */
     2195     5501    3        XST_CNT = 25;
     2196     5502    3     END;
     2197     5503    3     IF NOT TH_DETAIL_FLG THEN DO;
     2198     5504    3       CALL THF$ADD_TEXTC(XST$,XST_TEXT,XST_CNT);
     2199     5505    3       NXST = NXST + 1;
     2200     5506    3     END;  /* if not detail */
     2201     5507    2   END FIND_DEN_MODE;
     2202     5508        %EJECT;
PL6.E3A0      #001=THF$RAW File=THF$FORMAT.:E05TSI                               WED 07/30/97 06:08 Page:67
     2203     5509        /**/
     2204     5510        /* ROUTINE TO FIND FORMAT# AND MESSAGE# TO INTERPRET BYTE 7 OF  */
     2205     5511        /* EXTENDED STATUS BITS FOR FIPS TAPES                          */
     2206     5512        /**/
     2207     5513    1   FIND_FORMAT_MSG: PROC;
     2208     5514        /**/
     2209     5515    3     DO II = 0 TO 3;   /* get bits 0-3 of byte 7 for format type */
     2210     5516    3       IF IO_MASK1(DEVTBL.CODE(I) + II)
     2211     5517    3       THEN DP_BIT(II) = '1'B;
     2212     5518    3       ELSE DP_BIT(II) = '0'B;
     2213     5519    3     END;
     2214     5520    3     DO II = 0 TO 8;   /* go through list of formats to find format */
     2215     5521                            /* match in byte 7, bits 0-3                 */
     2216     5522    3       IF (DP_FORMAT = II)AND NOT IO_MASK1(11) /* if format 0       */
     2217     5523    4       THEN DO;                           /* but byte 1, bit 3 = 0  */
     2218     5524    4         DPC$ = ADDR(FORM0_NOTB1_B3);
     2219     5525    4         LENN = 9;
     2220     5526    4         GOTO FOUND_FORMAT;
     2221     5527    4       END;
     2222     5528    3       ELSE IF(DP_FORMAT = II)  /* if format type found in list     */
     2223     5529    4       THEN DO;
     2224     5530    4         DPC$ = FORMAT_TBLS.SUB$(II);
     2225     5531    4         LENN = FORMAT_TBLS.COUNT(II);
     2226     5532    4         GOTO FOUND_FORMAT;
     2227     5533    4       END;
     2228     5534    3     END; /* do ii */
     2229     5535    2     GOTO NEXT_BIT;  /* if not found format match */
     2230     5536    2   FOUND_FORMAT:
     2231     5537    3     DO II = 0 TO 3;  /* for message code, get bits 4-7 of byte 7  */
     2232     5538    3       IF IO_MASK1(DEVTBL.CODE(I) + 3 + II)
     2233     5539    3       THEN DP_BIT(II) = '1'B;
     2234     5540    3       ELSE DP_BIT(II) = '0'B;
     2235     5541    3     END;
     2236     5542    3     DO II = 0 TO LENN; /* go thru the found format tbl for the msg.*/
     2237     5543    3       IF DP_FORM_MSG = DP_FORM_TBL.CODE(II)  /* if msg found in tbl*/
     2238     5544    4       THEN DO;
     2239     5545    4         XST_TEXT = DP_FORM_TBL.TEXT(II);
PL6.E3A0      #001=THF$RAW File=THF$FORMAT.:E05TSI                               WED 07/30/97 06:08 Page:68
     2240     5546    4         XST_CNT = DP_FORM_TBL.COUNT(II);
     2241     5547    4         GOTO NEXT_BIT;
     2242     5548    4       END;  /* if */
     2243     5549    3     END;  /* do ii */
     2244     5550    2   NEXT_BIT:  IF LENN > 20 THEN RETURN; /* if format match not found */
     2245     5551    3              IF NOT TH_DETAIL_FLG THEN DO;
     2246     5552    3                CALL THF$ADD_TEXTC(XST$,XST_TEXT,XST_CNT);
     2247     5553    3                NXST = NXST + 1;
     2248     5554    3              END; /* if not detail */
     2249     5555    2   END FIND_FORMAT_MSG;
     2250     5556        %EJECT;
PL6.E3A0      #001=THF$RAW File=THF$FORMAT.:E05TSI                               WED 07/30/97 06:08 Page:69
     2251     5557        /**/
     2252     5558        /* PROCEDURE TO FIND FAULT CODE */
     2253     5559        /**/
     2254     5560    1   FIND_FAULT_CODE: PROC;
     2255     5561        /**/
     2256     5562    3   DO II = 0 TO 7;
     2257     5563    3      IF IO_MASK1(DEVTBL.CODE(I) + II)
     2258     5564    3      THEN FT_BIT(II) = '1'B;
     2259     5565    3      ELSE FT_BIT(II) = '0'B;
     2260     5566    3   END;
     2261     5567    3   DO II = 0 TO 70;
     2262     5568    3      IF FT_CODE = FAULT_SYMP_TBL.CODE(II)
     2263     5569    4      THEN DO;
     2264     5570    4        XST_TEXT = FAULT_SYMP_TBL.TEXT(II);
     2265     5571    4        XST_CNT = FAULT_SYMP_TBL.COUNT(II);
     2266     5572    4        GOTO FOUND_FAULT_CODE;
     2267     5573    4      END;
     2268     5574    3   END;
     2269     5575    2   FOUND_FAULT_CODE: IF NOT TH_DETAIL_FLG
     2270     5576    3                     THEN DO;
     2271     5577    3                       CALL THF$ADD_TEXTC(XST$,XST_TEXT,XST_CNT);
     2272     5578    3                       NXST = NXST + 1;
     2273     5579    3                     END;
     2274     5580    2   END FIND_FAULT_CODE;
     2275     5581        /* HANDLING OF DETAIL REPORT FORMAT FOR FEPERR */
     2276     5582        /**/
     2277     5583    1   THF$FEPERR: PROC;
     2278     5584        /**/
     2279     5585    2   ALL_MATCH = %FALSE;
     2280     5586    3   IF TH_FIRST_TIME THEN DO;
     2281     5587    3      FEP_COUNT = 0;
     2282     5588    3      TEXTBUF = ' ';
     2283     5589    3      TEXT$ = ADDR(TEXTBUF);
     2284     5590    3      INFO = TH_XSA_BUF_VECTOR;
     2285     5591    3        CALL THW$WRITE(FEP_FMT,INFO);
     2286     5592    3      FEPERR_TBL = EL$FEPERR;
     2287     5593    3      FEP_COUNT = FEP_COUNT + 1;
PL6.E3A0      #001=THF$RAW File=THF$FORMAT.:E05TSI                               WED 07/30/97 06:08 Page:70
     2288     5594    3      TH_FIRST_TIME = %FALSE;
     2289     5595    3      GOTO NEXT_RECORD_PLEASE;
     2290     5596    3   END;  /* if th_first_time */
     2291     5597    2   ELSE IF TH_EOF_FLG THEN GOTO NOT_MATCH_AT_ALL;
     2292     5598    3   ELSE IF NOT TH_FIRST_TIME AND NOT TH_EOF_FLG THEN DO;
     2293     5599    3      TEXT$ = ADDR(TEXTBUF);
     2294     5600    3      INFO = TH_XSA_BUF_VECTOR;
     2295     5601    3     IF EL$FEPERR.STATDATA.NODE = FEPERR_TBL.STATDATA.NODE
     2296     5602    4     THEN DO;
     2297     5603    4       IF EL$FEPERR.STATDATA.TERMID.TERM.CHANNEL = FEPERR_TBL.STATDATA.TERMID.TERM.
              5603                CHANNEL
     2298     5604    5       THEN DO;
     2299     5605    5           IF EL$FEPERR.STATDATA.ERRCODE.FCG = FEPERR_TBL.STATDATA.ERRCODE.FCG
     2300     5606    6           THEN DO;
     2301     5607    6             IF EL$FEPERR.STATDATA.ERRCODE.ERR# = FEPERR_TBL.STATDATA.ERRCODE.ERR#
     2302     5608    7             THEN DO;
     2303     5609    7               IF EL$FEPERR.STATDATA.ERRCODE.SEV = FEPERR_TBL.STATDATA.ERRCODE.SEV
     2304     5610    8               THEN DO;
     2305     5611    8                 FEP_COUNT = FEP_COUNT + 1;
     2306     5612    8                 ALL_MATCH = %TRUE;
     2307     5613    8                 GOTO NEXT_RECORD_PLEASE;
     2308     5614    8               END; /* if errcode.sev equals */
     2309     5615    7               ELSE GOTO NOT_MATCH_AT_ALL;
     2310     5616    7             END; /* if errcode.err# equals */
     2311     5617    6             ELSE GOTO NOT_MATCH_AT_ALL;
     2312     5618    6           END; /* if errcode.fcg equals */
     2313     5619    5           ELSE GOTO NOT_MATCH_AT_ALL;
     2314     5620    5       END; /* if channel number equals */
     2315     5621    4       ELSE GOTO NOT_MATCH_AT_ALL;
     2316     5622    4     END; /* if fep number equals */
     2317     5623    3     ELSE GOTO NOT_MATCH_AT_ALL;
     2318     5624    3   END; /* if not first time and not eof */
     2319     5625    2   NOT_MATCH_AT_ALL:
     2320     5626    2       FEPERR_CODE = FEPERR_TBL.STATDATA.ERRCODE;
     2321     5627    2       CALL ERROR_CODE(FEPERR_CODE);
     2322     5628    2       ERR_MSG = ' ';
     2323     5629    2         CALL M$ERRMSG(ERR_MSGS) ALTRET(NO_MESSAGE);
PL6.E3A0      #001=THF$RAW File=THF$FORMAT.:E05TSI                               WED 07/30/97 06:08 Page:71
     2324     5630    2         I = 0;
     2325     5631    3           DO WHILE(SUBSTR(ERR_MSG,I,1) = ' ');
     2326     5632    3              I = I + 1;
     2327     5633    3           END;  /* do while */
     2328     5634    2         ERR_MSG_T = SUBSTR(ERR_MSG,I,43);
     2329     5635    2       CALL ADD_TEXTC(ERR_MSG_T,43);
     2330     5636    3   DO NEVER;
     2331     5637    3   NO_MESSAGE: CALL ADD_TEXTC('NO ERROR MESSAGE',16);
     2332     5638    3      END; /* do never */
     2333     5639    2      TVEC = VECTOR(TEXTBUF);
     2334     5640    2      TVEC.BOUND = POFFC(TEXT$,ADDR(TEXTBUF)) - 1;
     2335     5641    3        DO I = CTL.NHDR + 1 TO CTL.NFMT + CTL.NHDR;
     2336     5642    3          CALL THW$WRITE(CTL.FMT(I),VECTOR(FEP_COUNT),TVEC);
     2337     5643    3        END; /*  do i */
     2338     5644    2      IF TH_EOF_FLG THEN RETURN;
     2339     5645    2      FEP_COUNT = 0;
     2340     5646    2      TEXTBUF = ' ';
     2341     5647    2      TEXT$ = ADDR(TEXTBUF);
     2342     5648    2      IF EL$FEPERR.STATDATA.NODE ~= FEPERR_TBL.STATDATA.NODE OR
     2343     5649    2         EL$FEPERR.STATDATA.TERMID.TERM.CHANNEL ~= FEPERR_TBL.STATDATA.TERMID.TERM.
              5649                  CHANNEL
     2344     5650    2         THEN CALL THW$WRITE(FEP_FMT,INFO);
     2345     5651    2      FEPERR_TBL = EL$FEPERR;
     2346     5652    2      FEP_COUNT = FEP_COUNT + 1;
     2347     5653    2   NEXT_RECORD_PLEASE: ;
     2348     5654    2   END THF$FEPERR;
     2349     5655        %EJECT;
PL6.E3A0      #001=THF$RAW File=THF$FORMAT.:E05TSI                               WED 07/30/97 06:08 Page:72
     2350     5656        /* HANDLING OF PR54 PRINTERS FOR IOERR RECORDS */
     2351     5657        /**/
     2352     5658    1   EURC_PR54: PROC;
     2353     5659        /**/
     2354     5660    2   IF DEVTBL.CODE(I) = 0 AND NOT IO_MASK1(0)
     2355     5661    2       THEN GOTO EURC_RETURN;
     2356     5662    3   ELSE IF DEVTBL.CODE(I) = 6 THEN DO;  /* BELT TYPE */
     2357     5663    3       PTR_BELT.BYT1 = IO_MASK(0);
     2358     5664    3       PTR_BELT.BYT2 = IO_MASK(1);
     2359     5665    4       DO X = 0 TO 3;         /* GO THRU PR54_BELT_TBL */
     2360     5666    4          IF PR54_BELT.CODE = PR54_BELT_TBL.CODE(X)
     2361     5667    5          THEN DO;
     2362     5668    5             XST_TEXT = PR54_BELT_TBL.TEXT(X);
     2363     5669    5             XST_CNT = PR54_BELT_TBL.COUNT(X);
     2364     5670    5             GOTO FOUND_IT;
     2365     5671    5          END;
     2366     5672    4       END;  /* DO X = 0 TO 3 */
     2367     5673    3       GOTO EURC_RETURN;        /* NOT FOUND */
     2368     5674    3     END;
     2369     5675    2   ELSE IF DEVTBL.CODE(I) = 24 AND NOT IO_MASK1(24)
     2370     5676    3   THEN DO;
     2371     5677    3       XST_TEXT = 'VFC NOT LOADED';  XST_CNT = 14;
     2372     5678    3   END;
     2373     5679    2   ELSE IF DEVTBL.CODE(I) = 25 AND NOT IO_MASK1(25)
     2374     5680    3   THEN DO;
     2375     5681    3       XST_TEXT = 'VFC OUT OF SYNC';  XST_CNT = 15;
     2376     5682    3   END;
     2377     5683    2   ELSE IF DEVTBL.CODE(I) = 16 AND NOT IO_MASK1(16)   /* BELT SPEED */
     2378     5684    3   THEN DO;
     2379     5685    3       XST_TEXT = '900 LPM';   XST_CNT = 7;
     2380     5686    3   END;
     2381     5687    2   ELSE IF DEVTBL.CODE(I) = 17 AND NOT IO_MASK1(17) /* slew speed */
     2382     5688    3   THEN DO;
     2383     5689    3       XST_TEXT = '25 IN/SEC';   XST_CNT = 9;
     2384     5690    3   END;
     2385     5691    2   ELSE IF DEVTBL.CODE(I) = 120 AND NOT IO_MASK1(120) /* line density*/
     2386     5692    3   THEN DO;
PL6.E3A0      #001=THF$RAW File=THF$FORMAT.:E05TSI                               WED 07/30/97 06:08 Page:73
     2387     5693    3       XST_TEXT = '6 LINES/IN';   XST_CNT = 10;
     2388     5694    3   END;
     2389     5695    3   ELSE IF DEVTBL.CODE(I) = 113 THEN DO; /* if its byte 14, bit 1 */
     2390     5696    3       PRNTR_REG = '0'B;
     2391     5697    3       PRNTR_REG = BINBIT(IO_MASK(14),6); /* GET PTR CMD FROM BYTE 14 */
     2392     5698    4     IF IO_MASK1(113) THEN DO; /* if byte 14, bit 1 is set */
     2393     5699    5       DO X = 0 TO 16;   /* go through register command table */
     2394     5700    5         IF PRNTR_REG = REGISTER_TBL.CODE(X)  /* if reg.addr. is found*/
     2395     5701    6         THEN DO;
     2396     5702    6             XST_TEXT = REGISTER_TBL.TEXT(X);
     2397     5703    6             XST_CNT = REGISTER_TBL.COUNT(X);
     2398     5704    6             GOTO FOUND_IT;
     2399     5705    6         END; /* if prntr_reg is in reg cmnd tbl */
     2400     5706    5       END;/* do x */
     2401     5707    4       GOTO EURC_RETURN;             /* CMD NOT FOUND */
     2402     5708    4     END; /* if byte 14,bit1 set */
     2403     5709    4     IF NOT IO_MASK1(113) THEN DO; /* if byte 14,bit 1 not set */
     2404     5710    5       DO X = 0 TO 10;   /* go thru non_register command table */
     2405     5711    5         IF PRNTR_REG = NON_REG_TBL.CODE(X) /* if cmnd is found */
     2406     5712    6         THEN DO;
     2407     5713    6             XST_TEXT = NON_REG_TBL.TEXT(X);
     2408     5714    6             XST_CNT = NON_REG_TBL.COUNT(X);
     2409     5715    6             GOTO FOUND_IT;
     2410     5716    6         END; /* if prntr_reg is in non-reg cmnd tbl */
     2411     5717    5       END; /* do x */
     2412     5718    4       GOTO EURC_RETURN;              /* CMD NOT FOUND */
     2413     5719    4     END; /* if byte 14,bit1 not set */
     2414     5720    3   END; /* if its byte 14, bit 1 */
     2415     5721    3   ELSE IF DEVTBL.CODE(I) = 96 THEN DO; /* if its byte 12 */
     2416     5722    3       PR54_BYTE = '0'B;
     2417     5723    3       PR54_BYTE = BINBIT(IO_MASK(12),9);  /* GET BYTE 12 - CONTROLLER ERR CODE */
     2418     5724    4       DO X = 0 TO 65;  /* go thru controller error table */
     2419     5725    4         IF PR54_BYTE = CTRL_ERR_TBL.CODE(X) /* if ctrl err is found*/
     2420     5726    5         THEN DO;
     2421     5727    5             XST_TEXT = CTRL_ERR_TBL.TEXT(X);
     2422     5728    5             XST_CNT = CTRL_ERR_TBL.COUNT(X);
     2423     5729    5             GOTO FOUND_IT;
PL6.E3A0      #001=THF$RAW File=THF$FORMAT.:E05TSI                               WED 07/30/97 06:08 Page:74
     2424     5730    5         END; /* if ctrl err is in tbl */
     2425     5731    4       END; /* do x */
     2426     5732    3       GOTO EURC_RETURN;              /* ERR CODE NOT FOUND */
     2427     5733    3   END;  /* if byte 12 */
     2428     5734    3   ELSE IF DEVTBL.CODE(I) = 104 THEN DO; /* if its byte 13 */
     2429     5735    3       PR54_BYTE = '0'B;
     2430     5736    3       PR54_BYTE = BINBIT(IO_MASK(13),9); /* GET BYTE 13 - PTR STATUS REGISTER */
     2431     5737    4       DO X = 0 TO 32; /* go thru prntr status tbl */
     2432     5738    4         IF PR54_BYTE = LED_TBL.CODE(X) /* if printer status found */
     2433     5739    5         THEN DO;
     2434     5740    5             XST_TEXT = LED_TBL.TEXT(X);
     2435     5741    5             XST_CNT = LED_TBL.COUNT(X);
     2436     5742    5             GOTO FOUND_IT;
     2437     5743    5         END; /* if prntr status is found */
     2438     5744    4       END; /* do x */
     2439     5745    3       GOTO EURC_RETURN;             /* PTR STATUS NOT FOUND */
     2440     5746    3   END; /* if byte 13 */
     2441     5747    3   ELSE DO;
     2442     5748    3       XST_TEXT = DEVTBL.TEXT(I);
     2443     5749    3       XST_CNT = DEVTBL.COUNT(I);
     2444     5750    3   END;
     2445     5751    2   FOUND_IT: CALL THF$ADD_TEXTC(XST$,XST_TEXT,XST_CNT);
     2446     5752    2             NXST = NXST + 1;
     2447     5753    2   EURC_RETURN:
     2448     5754    2       RETURN;
     2449     5755    2   END EURC_PR54;
     2450     5756        %EJECT;
PL6.E3A0      #001=THF$RAW File=THF$FORMAT.:E05TSI                               WED 07/30/97 06:08 Page:75
     2451     5757        /* HANDLING OF PR71 PRINTERS FOR IOERR RECORDS */
     2452     5758        /**/
     2453     5759    1   MPC_PR71: PROC;
     2454     5760        /**/
     2455     5761    3   IF DEVTBL.CODE(I) = 6 THEN DO;                  /* BELT TYPE */
     2456     5762    3       PTR_BELT.BYT1 = IO_MASK(0);
     2457     5763    3       PTR_BELT.BYT2 = IO_MASK(1);
     2458     5764    4       DO X = 0 TO 3;                             /* GO THRU BELT TABLE */
     2459     5765    4          IF PR71_BELT.CODE = PR71_BELT_TBL.CODE(X)
     2460     5766    5             THEN DO;
     2461     5767    5               XST_TEXT = PR71_BELT_TBL.TEXT(X);
     2462     5768    5               XST_CNT = PR71_BELT_TBL.COUNT(X);
     2463     5769    5               GOTO FOUND_ENTRY;
     2464     5770    5             END;
     2465     5771    4       END;   /* DO X = 0 TO 3 */
     2466     5772    3       GOTO MPC_RETURN;                           /* NOT FOUND */
     2467     5773    3   END;
     2468     5774    3   ELSE IF DEVTBL.CODE(I) = 88 THEN DO;           /* ECHO CHK REGISTER */
     2469     5775    3       PR71_BUF.STRING = ' ';
     2470     5776    3       PR71_REG1.BYT1 = IO_MASK(11);
     2471     5777    3       PR71_REG1.BYT2 = IO_MASK(12);
     2472     5778    3       PR71_VECTOR_TBL = VECTOR(PR71_REG1);
     2473     5779    3       FDS_PR71.FMT_ = VECTOR(PR71FMT1);
     2474     5780    3       CALL X$FORMAT(FDS_PR71);
     2475     5781    3       XST_TEXT = PR71_BUF.STRING;  XST_CNT = FDS_PR71.BUFSIZE -1;
     2476     5782    3       GOTO FOUND_ENTRY;
     2477     5783    3   END;
     2478     5784    3   ELSE IF DEVTBL.CODE(I) = 104 THEN DO;          /* SHORT CIRCUIT REGISTER */
     2479     5785    3       PR71_BUF.STRING = ' ';
     2480     5786    3       PR71_REG1.BYT1 =  IO_MASK(13);
     2481     5787    3       PR71_REG1.BYT2 =  IO_MASK(14);
     2482     5788    3       PR71_VECTOR_TBL = VECTOR(PR71_REG1);
     2483     5789    3       FDS_PR71.FMT_ = VECTOR(PR71FMT3);
     2484     5790    3       CALL X$FORMAT(FDS_PR71);
     2485     5791    3       XST_TEXT = PR71_BUF.STRING;   XST_CNT = FDS_PR71.BUFSIZE -1;
     2486     5792    3       GOTO FOUND_ENTRY;
     2487     5793    3   END;
PL6.E3A0      #001=THF$RAW File=THF$FORMAT.:E05TSI                               WED 07/30/97 06:08 Page:76
     2488     5794    3   ELSE DO;
     2489     5795    3       IF IO_MASK1(DEVTBL.CODE(I))
     2490     5796    4          THEN DO;
     2491     5797    4            XST_TEXT = DEVTBL.TEXT(I);  XST_CNT = DEVTBL.COUNT(I);
     2492     5798    4          END;
     2493     5799    3          ELSE GOTO MPC_RETURN;
     2494     5800    3   END;
     2495     5801    2   FOUND_ENTRY:
     2496     5802    2       CALL THF$ADD_TEXTC(XST$, XST_TEXT, XST_CNT);
     2497     5803    2       NXST = NXST +1;
     2498     5804    2   MPC_RETURN:
     2499     5805    2       RETURN;
     2500     5806    2   END MPC_PR71;
     2501     5807        %EJECT;
PL6.E3A0      #001=THF$RAW File=THF$FORMAT.:E05TSI                               WED 07/30/97 06:08 Page:77
     2502     5808        /* HANDLING OF MDSII DISKS FOR IOERR RECORDS (EXTENDED STATUS)  */
     2503     5809        /**/
     2504     5810    1   IPC_MDSII: PROC;
     2505     5811        /**/
     2506     5812    2      MDS_TEXT = ' ';
     2507     5813    2      MDS_TEXT = DEVTBL.TEXT(I);
     2508     5814    2      XST_CNT = DEVTBL.COUNT(I);
     2509     5815    3      IF DEVTBL.CODE(I) =0 THEN DO;             /* BYTE 0 - PATH COMPONENT */
     2510     5816    3         PARAMETER_ID = 0;
     2511     5817    3         PARAMETER_LENGTH = 0;
     2512     5818    3         OCTET_NUM = 0;
     2513     5819    4         DO X = 0 TO 10;
     2514     5820    4            XSTATUS_BYTE(X) = IO_MASK(X);
     2515     5821    4         END;
     2516     5822    4         DO X = 0 TO 25;
     2517     5823    4            OCTET_BYTE(X) = IO_MASK(X + 10);
     2518     5824    4         END;
     2519     5825    3         IF XSTATUS_BYTE(0) = 1 THEN
     2520     5826    3            MDS_TEXT = DEVTBL.TEXT(I);
     2521     5827    3         ELSE IF XSTATUS_BYTE(0) = 4 THEN
     2522     5828    3            MDS_TEXT = 'PATH COMPONENT = IPC-IPI';
     2523     5829    3         ELSE IF (XSTATUS_BYTE(0) = 2 OR XSTATUS_BYTE(0) = 3) THEN
     2524     5830    3            MDS_TEXT = 'PATH COMPONENT = DEVICE ';
     2525     5831    3         ELSE
     2526     5832    3            MDS_TEXT = 'UNKNOWN PATH COMPONENT  ';
     2527     5833    3         GOTO FOUND_OCTET;
     2528     5834    3      END;
     2529     5835    3      ELSE IF DEVTBL.CODE(I) = 1 THEN DO;       /* BYTE 1 - REFERENCE # */
     2530     5836    3         CALL INSERT(MDS_TEXT,19,2,BINHEX(XSTATUS_NIBBLE(2)), BINHEX(XSTATUS_NIBBLE(3))
              5836                  );
     2531     5837    3         GOTO FOUND_OCTET;
     2532     5838    3      END;
     2533     5839    3      ELSE IF DEVTBL.CODE(I) = 2 THEN DO;       /* BYTE 2 - TRANSACTION # */
     2534     5840    3         CALL INSERT(MDS_TEXT,25,2,BINHEX(XSTATUS_NIBBLE(4)), BINHEX(XSTATUS_NIBBLE(5))
              5840                  );
     2535     5841    3         GOTO FOUND_OCTET;
     2536     5842    3      END;
PL6.E3A0      #001=THF$RAW File=THF$FORMAT.:E05TSI                               WED 07/30/97 06:08 Page:78
     2537     5843    3      ELSE IF DEVTBL.CODE(I) = 3 THEN DO;       /* BYTE3 - OP CODE */
     2538     5844    4         DO X = 0 TO 41;
     2539     5845    4            IF XSTATUS_BYTE(3) = MDS_OP_CODE_TBL.CODE(X)
     2540     5846    5               THEN DO;
     2541     5847    5                  XST_CNT = XST_CNT + MDS_OP_CODE_TBL.COUNT(X);
     2542     5848    5                  CALL INSERT(MDS_TEXT, 17, MDS_OP_CODE_TBL.COUNT(X),
     2543     5849    5                              MDS_OP_CODE_TBL.TEXT(X));
     2544     5850    5                  GOTO FOUND_OCTET;
     2545     5851    5               END;
     2546     5852    4         END;  /* DO X = 0 TO 41 */
     2547     5853    4         IF XSTATUS_BYTE(3) = %HEX_86 THEN DO;
     2548     5854    4            CALL INSERT(MDS_TEXT, 0, 15, 'ASYNC INTERRUPT');
     2549     5855    4            XST_CNT = 15;
     2550     5856    4            GOTO FOUND_OCTET;
     2551     5857    4         END;
     2552     5858    4         ELSE DO;
     2553     5859    4            CALL INSERT(MDS_TEXT, 0, 35, MDS_OP_CODE_TBL.TEXT(42));
     2554     5860    4            XST_CNT = MDS_OP_CODE_TBL.COUNT(42);
     2555     5861    4            GOTO FOUND_OCTET;
     2556     5862    4         END;
     2557     5863    3      END;
     2558     5864    3      ELSE IF DEVTBL.CODE(I) = 4 THEN DO;       /* BYTE 4 - CMD MODIFIERS */
     2559     5865    3         CALL INSERT(MDS_TEXT, 16, 1, BINHEX(XSTATUS_NIBBLE(8)));
     2560     5866    3         CALL INSERT(MDS_TEXT, 33, 1, BINHEX(XSTATUS_NIBBLE(9)));
     2561     5867    3         GOTO FOUND_OCTET;
     2562     5868    3      END;
     2563     5869    3      ELSE IF DEVTBL.CODE(I) = 5 THEN DO;       /* BYTE 5 - CM # */
     2564     5870    3         CALL INSERT(MDS_TEXT, 12, 2, BINHEX(XSTATUS_NIBBLE(10)), BINHEX(XSTATUS_NIBBLE
              5870                  (11)));
     2565     5871    3         GOTO FOUND_OCTET;
     2566     5872    3      END;
     2567     5873    3      ELSE IF DEVTBL.CODE(I) = 6 THEN DO;       /* BYTE 6 - DEV # */
     2568     5874    3         CALL INSERT(MDS_TEXT, 16, 2, BINHEX(XSTATUS_NIBBLE(12)), BINHEX(XSTATUS_NIBBLE
              5874                  (13)));
     2569     5875    3         GOTO FOUND_OCTET;
     2570     5876    3      END;
     2571     5877    3      ELSE IF DEVTBL.CODE(I) = 7 THEN DO;       /* BYTE 7 - IPI STATUS */
PL6.E3A0      #001=THF$RAW File=THF$FORMAT.:E05TSI                               WED 07/30/97 06:08 Page:79
     2572     5878    3         CALL INSERT(MDS_TEXT, 28, 3, BINHEX(XSTATUS_NIBBLE(14)), BINHEX(XSTATUS_NIBBLE
              5878                  (15)),
     2573     5879    3                     BINHEX(XSTATUS_NIBBLE(17)));
     2574     5880    3         GOTO FOUND_OCTET;
     2575     5881    3      END;
     2576     5882    2      ELSE IF (DEVTBL.CODE(I) >= 56 AND IO_MASK1(DEVTBL.CODE(I))) THEN
     2577     5883    3         DO;
     2578     5884    3           MDS_TEXT = ' ';
     2579     5885    3           CALL INSERT(MDS_TEXT,15,DEVTBL.COUNT(I),DEVTBL.TEXT(I));
     2580     5886    3           XST_CNT = DEVTBL.COUNT(I) + 15;
     2581     5887    3           GOTO FOUND_OCTET;
     2582     5888    3         END;
     2583     5889    3      ELSE IF DEVTBL.CODE(I) = 8 THEN DO;       /* BYTE 8 - STATUS TYPE */
     2584     5890    3         CALL INSERT(MDS_TEXT, 29, 1, BINHEX(XSTATUS_NIBBLE(16)));
     2585     5891    4         DO CASE(XSTATUS_NIBBLE(16));                /* STATUS TYPE */
     2586     5892    4            CASE(%STD_COMPLETION);
     2587     5893    4               CALL INSERT(MDS_TEXT, 30, 35, ' -- STD COMMAND COMPLETION RESPONSE');
     2588     5894    4               XST_CNT = XST_CNT +35;
     2589     5895    4            CASE(%EXT_COMPLETION);
     2590     5896    4               CALL INSERT(MDS_TEXT, 30, 36, ' -- EXTENDED CMD COMPLETION RESPONSE');
     2591     5897    4               XST_CNT = XST_CNT + 36;
     2592     5898    4            CASE(%ASYNC_COMPLETION);
     2593     5899    4               CALL INSERT(MDS_TEXT, 30, 36, ' -- ASYNCHRONOUS COMPLETION RESPONSE');
     2594     5900    4               XST_CNT = XST_CNT + 36;
     2595     5901    4            CASE(%TRANSFER_NOTF);
     2596     5902    4               CALL INSERT(MDS_TEXT, 30, 25, ' -- TRANSFER NOTIFICATION');
     2597     5903    4               XST_CNT = XST_CNT + 25;
     2598     5904    4            CASE(ELSE);
     2599     5905    4               CALL INSERT(MDS_TEXT, 30, 20, '  ** NO SUCH CODE **');
     2600     5906    4               XST_CNT = XST_CNT + 20;
     2601     5907    4         END;   /* DO CASE */
     2602     5908    3         GOTO FOUND_OCTET;
     2603     5909    3      END;
     2604     5910    3      ELSE IF DEVTBL.CODE(I) = 9 THEN DO;   /* BYTE 9 - PARAM LENGTH */
     2605     5911    3         PARAMETER_LENGTH = XSTATUS_BYTE(9);
     2606     5912    3         CALL INSERT(MDS_TEXT, 30, 2, BINHEX(XSTATUS_NIBBLE(18)),
     2607     5913    3                     BINHEX(XSTATUS_NIBBLE(19)));
PL6.E3A0      #001=THF$RAW File=THF$FORMAT.:E05TSI                               WED 07/30/97 06:08 Page:80
     2608     5914    3         GOTO FOUND_OCTET;
     2609     5915    3      END;
     2610     5916    3      ELSE IF DEVTBL.CODE(I) = 10 THEN DO;     /* BYTE 10 - PARAMETER ID */
     2611     5917    3         PARAMETER_ID = XSTATUS_BYTE(10);
     2612     5918    3         CALL INSERT(MDS_TEXT, 30, 2, BINHEX(PARAM_ID.BYT1), BINHEX(PARAM_ID.BYT2));
     2613     5919    3         IF ((PARAM_ID.BYT1 = 1 OR PARAM_ID.BYT1 = 2)
     2614     5920    4            AND (PARAM_ID.BYT2 <= 10)) THEN DO;
     2615     5921    4            CALL INSERT(MDS_TEXT, 32, MDS_PARAM_ID_TBL.COUNT(PARAM_ID.BYT2),
     2616     5922    4                        MDS_PARAM_ID_TBL.TEXT(PARAM_ID.BYT2));
     2617     5923    4            XST_CNT = XST_CNT + MDS_PARAM_ID_TBL.COUNT(PARAM_ID.BYT2);
     2618     5924    4            GOTO FOUND_OCTET;
     2619     5925    4         END;
     2620     5926    3         IF (PARAMETER_ID = %HEX_51 AND XSTATUS_NIBBLE(16) = %STD_COMPLETION)
     2621     5927    4            THEN DO;
     2622     5928    4              CALL INSERT(MDS_TEXT, 32, 26, ' -- REPORT DEVICE''S STATUS');
     2623     5929    4              XST_CNT = 58;
     2624     5930    4            END;
     2625     5931    4         ELSE DO;
     2626     5932    4            CALL INSERT(MDS_TEXT, 32, 27, ' ** ILLEGAL PARAMETER ID **');
     2627     5933    4            XST_CNT = XST_CNT + 27;
     2628     5934    4            PARAMETER_ID = 0;
     2629     5935    4         END;
     2630     5936    3         GOTO FOUND_OCTET;
     2631     5937    3      END;
     2632     5938    2      ELSE IF ((DEVTBL.CODE(I) > 10 AND DEVTBL.CODE(I) < 36)  AND PARAMETER_ID ~= 0)
     2633     5939    3        THEN DO;
     2634     5940    3         OCTET_NUM = DEVTBL.CODE(I) - 10;
     2635     5941    3         IF PARAMETER_ID = %HEX_51 THEN
     2636     5942    3            CALL DECODE_PARAM_51;
     2637     5943    4         ELSE DO CASE(PARAM_ID.BYT2);                  /* SUBSTATUS */
     2638     5944    4                 CASE(%DEFECT_MGMT);
     2639     5945    4                    CALL DECODE_PARAM_X2;
     2640     5946    4                 CASE(%MICROCODE_EXP);
     2641     5947    4                    CALL DECODE_PARAM_X3;
     2642     5948    4                 CASE(%INTERVENTION_REQ);
     2643     5949    4                    CALL DECODE_PARAM_X4;
     2644     5950    4                 CASE(%ALT_PORT_EXP);
PL6.E3A0      #001=THF$RAW File=THF$FORMAT.:E05TSI                               WED 07/30/97 06:08 Page:81
     2645     5951    4                    CALL DECODE_PARAM_X5;
     2646     5952    4                 CASE(%MACHINE_EXP);
     2647     5953    4                    CALL DECODE_PARAM_X6;
     2648     5954    4                 CASE(%CMD_EXP);
     2649     5955    4                    CALL DECODE_PARAM_X7;
     2650     5956    4                 CASE(%CMD_ABORTED);
     2651     5957    4                    CALL DECODE_PARAM_X8;
     2652     5958    4                 CASE(%COND_SUCCESS);
     2653     5959    4                    CALL DECODE_PARAM_X9;
     2654     5960    4                 CASE(%INCOMPLETE);
     2655     5961    4                    CALL DECODE_PARAM_XA;
     2656     5962    4                 CASE(ELSE);
     2657     5963    4                    PARAMETER_ID = 0;
     2658     5964    4                 END;  /* DO CASE */
     2659     5965    3            RETURN;
     2660     5966    3         END;
     2661     5967    2      ELSE RETURN;
     2662     5968    2   FOUND_OCTET:
     2663     5969    2      CALL THF$ADD_TEXTC(XST$, MDS_TEXT, XST_CNT);
     2664     5970    2      NXST = NXST + 1;
     2665     5971    2      RETURN;
     2666     5972    2   END IPC_MDSII;
     2667     5973        %EJECT;
PL6.E3A0      #001=THF$RAW File=THF$FORMAT.:E05TSI                               WED 07/30/97 06:08 Page:82
     2668     5974        /**/
     2669     5975        /* PROCEDURE TO DECODE DEFECT MANAGEMENT STATUS CODE FOR MDS DISCS */
     2670     5976        /**/
     2671     5977    1   DECODE_PARAM_X2: PROC;
     2672     5978        /**/
     2673     5979    2      MDS_TEXT = ' ';
     2674     5980    2      OCTET$ = MDS_PARAM_X2.SUB$(OCTET_NUM - 1);
     2675     5981    2      IF (OCTET_NUM > 0 AND OCTET_NUM < 5) THEN
     2676     5982    3         DO;
     2677     5983    3           HEX_NUM = OCTET_NUM;
     2678     5984    3           CALL INSERT (MDS_TEXT, 17, 11, 'OCTET ', BINHEX(HEX_NIBBLE(0)),
     2679     5985    3                        BINHEX(HEX_NIBBLE(1)), ' = ');
     2680     5986    3           CALL INSERT (MDS_TEXT, 28, 2, BINHEX(OCTET_NIBBLE(2 * OCTET_NUM)), BINHEX(
              5986                    OCTET_NIBBLE(2 * OCTET_NUM + 1)));
     2681     5987    3           XST_CNT = 30;
     2682     5988    3           CALL THF$ADD_TEXTC(XST$, MDS_TEXT, XST_CNT);
     2683     5989    3           NXST = NXST + 1;
     2684     5990    3           PARAM_INDX = 0;
     2685     5991    4           DO X = (8 * DEVTBL.CODE(I)) TO (8 * DEVTBL.CODE(I) +7);
     2686     5992    4              IF (IO_MASK1(X)) AND (PARAM_TBL.COUNT(PARAM_INDX) > 1)
     2687     5993    5                 THEN DO;
     2688     5994    5                   MDS_TEXT = ' ';
     2689     5995    5                   CALL INSERT(MDS_TEXT, 17, PARAM_TBL.COUNT(PARAM_INDX), PARAM_TBL.
              5995                            TEXT(PARAM_INDX));
     2690     5996    5                   XST_CNT = PARAM_TBL.COUNT(PARAM_INDX) + 17;
     2691     5997    5                   CALL THF$ADD_TEXTC(XST$, MDS_TEXT, XST_CNT);
     2692     5998    5                   NXST = NXST + 1;
     2693     5999    5                 END;
     2694     6000    4              PARAM_INDX = PARAM_INDX + 1;
     2695     6001    4           END;  /* DO X */
     2696     6002    3           IF OCTET_NUM >= PARAMETER_LENGTH - 1 THEN
     2697     6003    3              GOTO PARAM_X2_DONE;
     2698     6004    3           ELSE RETURN;
     2699     6005    3         END;         /* FOR OCTET_NUM < 5 */
     2700     6006    2         ELSE IF OCTET_NUM = 5
     2701     6007    3           THEN DO;
     2702     6008    3             IF IO_MASK(DEVTBL.CODE(I)) = %HEX_80        /* TEST FOR '80'X */
PL6.E3A0      #001=THF$RAW File=THF$FORMAT.:E05TSI                               WED 07/30/97 06:08 Page:83
     2703     6009    3                THEN GOTO PARAM_X2_DONE;
     2704     6010    3             MDS_TEXT = ' ';
     2705     6011    3             CALL INSERT(MDS_TEXT, 0, 57,
     2706     6012    3                  'THE FOLLOWING OCTETS CONTAIN THE FAILING PHYSICAL ADDRESS');
     2707     6013    3             XST_CNT = 57;
     2708     6014    3             CALL THF$ADD_TEXTC(XST$, MDS_TEXT, XST_CNT);
     2709     6015    3             NXST = NXST + 1;
     2710     6016    3             MDS_TEXT = ' ';
     2711     6017    3             MDS_REG1 = 0;
     2712     6018    3             MDS_REG2.OCTET(0) = OCTET_BYTE(5);
     2713     6019    3             MDS_REG2.OCTET(1) = OCTET_BYTE(6);
     2714     6020    3             CALL BINCHAR(MDS_CYL, MDS_REG1);
     2715     6021    3             CALL INSERT(MDS_TEXT, 17, PARAM_TBL.COUNT(0), PARAM_TBL.TEXT(0));
     2716     6022    3             CALL INSERT(MDS_TEXT, 34, 4, MDS_CYL);
     2717     6023    3             XST_CNT = PARAM_TBL.COUNT(0) + 17;
     2718     6024    3             CALL THF$ADD_TEXTC(XST$, MDS_TEXT, XST_CNT);
     2719     6025    3             NXST = NXST + 1;
     2720     6026    3             IF IO_MASK(DEVTBL.CODE(I+2)) = %HEX_80      /* TEST FOR '80'X */
     2721     6027    3                THEN GOTO PARAM_X2_DONE;
     2722     6028    3             MDS_TEXT = ' ';
     2723     6029    3             MDS_REG1 = 0;
     2724     6030    3             MDS_REG2.OCTET(1) = OCTET_BYTE(7);
     2725     6031    3             CALL BINCHAR(MDS_HEAD, MDS_REG1);
     2726     6032    3             CALL INSERT(MDS_TEXT, 17, PARAM_TBL.COUNT(1), PARAM_TBL.TEXT(1));
     2727     6033    3             CALL INSERT(MDS_TEXT, 28, 2, MDS_HEAD);
     2728     6034    3             XST_CNT = PARAM_TBL.COUNT(1) + 17;
     2729     6035    3             CALL THF$ADD_TEXTC(XST$, MDS_TEXT, XST_CNT);
     2730     6036    3             NXST = NXST + 1;
     2731     6037    3             IF IO_MASK(DEVTBL.CODE(I+3)) = %HEX_80      /* TEST FOR '80'X */
     2732     6038    3                THEN GOTO PARAM_X2_DONE;
     2733     6039    3             MDS_TEXT = ' ';
     2734     6040    3             MDS_REG1 = 0;
     2735     6041    3             MDS_REG2.OCTET(1) = OCTET_BYTE(8);
     2736     6042    3             CALL BINCHAR(MDS_SECTOR, MDS_REG1);
     2737     6043    3             CALL INSERT(MDS_TEXT, 17, PARAM_TBL.COUNT(2), PARAM_TBL.TEXT(2));
     2738     6044    3             CALL INSERT(MDS_TEXT, 28, 2, MDS_SECTOR);
     2739     6045    3             XST_CNT = PARAM_TBL.COUNT(2) + 17;
PL6.E3A0      #001=THF$RAW File=THF$FORMAT.:E05TSI                               WED 07/30/97 06:08 Page:84
     2740     6046    3             CALL THF$ADD_TEXTC(XST$, MDS_TEXT, XST_CNT);
     2741     6047    3             NXST = NXST + 1;
     2742     6048    3   PARAM_X2_DONE:
     2743     6049    3             PARAMETER_ID = 0;
     2744     6050    3             RETURN;
     2745     6051    3           END;
     2746     6052    2         ELSE RETURN;
     2747     6053    2   END DECODE_PARAM_X2;
     2748     6054        %EJECT;
PL6.E3A0      #001=THF$RAW File=THF$FORMAT.:E05TSI                               WED 07/30/97 06:08 Page:85
     2749     6055        /**/
     2750     6056        /* PROCEDURE TO DECODE MESSAGE/MICROCODE EXCEPTION STATUS CODE FOR  MDS DISCS */
     2751     6057        /**/
     2752     6058    1   DECODE_PARAM_X3: PROC;
     2753     6059        /**/
     2754     6060                            /* NOTE: CODE MAY BE IMPLEMENTED AT A LATER TIME.  */
     2755     6061    2          RETURN;      /* THESE PARAMETERS ARE RETURNED FROM T&D I/O ONLY */
     2756     6062    2   END DECODE_PARAM_X3;
     2757     6063        %EJECT;
PL6.E3A0      #001=THF$RAW File=THF$FORMAT.:E05TSI                               WED 07/30/97 06:08 Page:86
     2758     6064        /**/
     2759     6065        /* PROCEDURE TO DECODE INTERVENTION REQUIRED STATUS CODE FOR  MDS DISCS */
     2760     6066        /**/
     2761     6067    1   DECODE_PARAM_X4: PROC;
     2762     6068        /**/
     2763     6069    2      MDS_TEXT = ' ';
     2764     6070    2      OCTET$ = MDS_PARAM_X4.SUB$(OCTET_NUM - 1);
     2765     6071    2      IF (OCTET_NUM > 0 AND OCTET_NUM < 7) THEN
     2766     6072    3         DO;
     2767     6073    3           HEX_NUM = OCTET_NUM;
     2768     6074    3           CALL INSERT(MDS_TEXT, 17, 11, 'OCTET ', BINHEX(HEX_NIBBLE(0)),
     2769     6075    3                       BINHEX(HEX_NIBBLE(1)), ' = ');
     2770     6076    3           CALL INSERT(MDS_TEXT, 28, 2, BINHEX(OCTET_NIBBLE(2 * OCTET_NUM)),
     2771     6077    3                       BINHEX(OCTET_NIBBLE(2*OCTET_NUM +1)));
     2772     6078    3           XST_CNT = 30;
     2773     6079    3           CALL THF$ADD_TEXTC(XST$, MDS_TEXT, XST_CNT);
     2774     6080    3           NXST = NXST + 1;
     2775     6081    3         END;
     2776     6082    2      IF (OCTET_NUM = 1 OR OCTET_NUM = 5 OR OCTET_NUM = 6) THEN
     2777     6083    3         DO;
     2778     6084    3           PARAM_INDX = 0;
     2779     6085    4           DO X = (8 * DEVTBL.CODE(I)) TO (8 * DEVTBL.CODE(I) + 7);
     2780     6086    4              IF (IO_MASK1(X)) AND (PARAM_TBL.COUNT(PARAM_INDX) > 1)
     2781     6087    5                 THEN DO;
     2782     6088    5                    MDS_TEXT = ' ';
     2783     6089    5                    CALL INSERT(MDS_TEXT, 17, PARAM_TBL.COUNT(PARAM_INDX), PARAM_TBL.
              6089                             TEXT(PARAM_INDX));
     2784     6090    5                    XST_CNT = PARAM_TBL.COUNT(PARAM_INDX) + 17;
     2785     6091    5                    CALL THF$ADD_TEXTC(XST$, MDS_TEXT, XST_CNT);
     2786     6092    5                    NXST = NXST + 1;
     2787     6093    5                 END;
     2788     6094    4              PARAM_INDX = PARAM_INDX + 1;
     2789     6095    4           END;  /* DO X */
     2790     6096    3           IF (OCTET_NUM = 6 OR OCTET_NUM >= PARAMETER_LENGTH -1)THEN
     2791     6097    3              PARAMETER_ID = 0;
     2792     6098    3           RETURN;
     2793     6099    3         END;
PL6.E3A0      #001=THF$RAW File=THF$FORMAT.:E05TSI                               WED 07/30/97 06:08 Page:87
     2794     6100    3         ELSE DO;
     2795     6101    3           IF OCTET_NUM >= PARAMETER_LENGTH - 1 THEN
     2796     6102    3              PARAMETER_ID = 0;
     2797     6103    3           RETURN;
     2798     6104    3         END;
     2799     6105    2   END DECODE_PARAM_X4;
     2800     6106        %EJECT;
PL6.E3A0      #001=THF$RAW File=THF$FORMAT.:E05TSI                               WED 07/30/97 06:08 Page:88
     2801     6107        /**/
     2802     6108        /* PROCEDURE TO DECODE ALT PORT EXCEPTION STATUS CODE FOR  MDS DISCS */
     2803     6109        /**/
     2804     6110    1   DECODE_PARAM_X5: PROC;
     2805     6111        /**/
     2806     6112    2      MDS_TEXT = ' ';
     2807     6113    2      OCTET$ = MDS_PARAM_X5.SUB$(OCTET_NUM - 1);
     2808     6114    2      IF (OCTET_NUM > 0 AND OCTET_NUM < 6) THEN
     2809     6115    3         DO;
     2810     6116    3           HEX_NUM = OCTET_NUM;
     2811     6117    3           CALL INSERT(MDS_TEXT, 17, 11, 'OCTET ', BINHEX(HEX_NIBBLE(0)),
     2812     6118    3                       BINHEX(HEX_NIBBLE(1)), ' = ');
     2813     6119    3           CALL INSERT(MDS_TEXT, 28, 2, BINHEX(OCTET_NIBBLE(2 * OCTET_NUM)),
     2814     6120    3                       BINHEX(OCTET_NIBBLE(2*OCTET_NUM +1)));
     2815     6121    3           XST_CNT = 30;
     2816     6122    3           CALL THF$ADD_TEXTC(XST$, MDS_TEXT, XST_CNT);
     2817     6123    3           NXST = NXST + 1;
     2818     6124    3         END;
     2819     6125    2      IF (OCTET_NUM = 1 OR OCTET_NUM = 2 OR OCTET_NUM = 5) THEN
     2820     6126    3         DO;
     2821     6127    3           PARAM_INDX = 0;
     2822     6128    4           DO X = (8 * DEVTBL.CODE(I)) TO (8 * DEVTBL.CODE(I) + 7);
     2823     6129    4              IF (IO_MASK1(X)) AND (PARAM_TBL.COUNT(PARAM_INDX) > 1)
     2824     6130    5                 THEN DO;
     2825     6131    5                    MDS_TEXT = ' ';
     2826     6132    5                    CALL INSERT(MDS_TEXT, 17, PARAM_TBL.COUNT(PARAM_INDX), PARAM_TBL.
              6132                             TEXT(PARAM_INDX));
     2827     6133    5                    XST_CNT = PARAM_TBL.COUNT(PARAM_INDX) + 17;
     2828     6134    5                    CALL THF$ADD_TEXTC(XST$, MDS_TEXT, XST_CNT);
     2829     6135    5                    NXST = NXST + 1;
     2830     6136    5                 END;
     2831     6137    4              PARAM_INDX = PARAM_INDX + 1;
     2832     6138    4           END;  /* DO X */
     2833     6139    3           IF OCTET_NUM = 5 THEN PARAMETER_ID = 0;
     2834     6140    3           RETURN;
     2835     6141    3         END;
     2836     6142    2         ELSE RETURN;
PL6.E3A0      #001=THF$RAW File=THF$FORMAT.:E05TSI                               WED 07/30/97 06:08 Page:89
     2837     6143    2   END DECODE_PARAM_X5;
     2838     6144        %EJECT;
PL6.E3A0      #001=THF$RAW File=THF$FORMAT.:E05TSI                               WED 07/30/97 06:08 Page:90
     2839     6145        /**/
     2840     6146        /* PROCEDURE TO DECODE MACHINE EXCEPTION STATUS CODE FOR  MDS DISCS */
     2841     6147        /**/
     2842     6148    1   DECODE_PARAM_X6: PROC;
     2843     6149        /**/
     2844     6150    2      MDS_TEXT = ' ';
     2845     6151    2      IF (OCTET_NUM > 0 AND OCTET_NUM < 7) THEN
     2846     6152    3         DO;
     2847     6153    3           OCTET$ = MDS_PARAM_X6.SUB$(OCTET_NUM - 1);
     2848     6154    3           HEX_NUM = OCTET_NUM;
     2849     6155    3           CALL INSERT(MDS_TEXT, 17, 11, 'OCTET ', BINHEX(HEX_NIBBLE(0)),
     2850     6156    3                       BINHEX(HEX_NIBBLE(1)), ' = ');
     2851     6157    3           CALL INSERT(MDS_TEXT, 28, 2, BINHEX(OCTET_NIBBLE(2 * OCTET_NUM)),
     2852     6158    3                       BINHEX(OCTET_NIBBLE(2*OCTET_NUM +1)));
     2853     6159    3           XST_CNT = 30;
     2854     6160    3           CALL THF$ADD_TEXTC(XST$, MDS_TEXT, XST_CNT);
     2855     6161    3           NXST = NXST + 1;
     2856     6162    3           PARAM_INDX = 0;
     2857     6163    4           DO X = (8 * DEVTBL.CODE(I)) TO (8 * DEVTBL.CODE(I) + 7);
     2858     6164    4              IF (IO_MASK1(X)) AND (PARAM_TBL.COUNT(PARAM_INDX) > 1)
     2859     6165    5                 THEN DO;
     2860     6166    5                    MDS_TEXT = ' ';
     2861     6167    5                    CALL INSERT(MDS_TEXT, 17, PARAM_TBL.COUNT(PARAM_INDX), PARAM_TBL.
              6167                             TEXT(PARAM_INDX));
     2862     6168    5                    XST_CNT = PARAM_TBL.COUNT(PARAM_INDX) + 17;
     2863     6169    5                    CALL THF$ADD_TEXTC(XST$, MDS_TEXT, XST_CNT);
     2864     6170    5                    NXST = NXST + 1;
     2865     6171    5                 END;
     2866     6172    4              PARAM_INDX = PARAM_INDX + 1;
     2867     6173    4           END;  /* DO X */
     2868     6174    3         END;  /* OCTET_NUM = 1 TO 6 */
     2869     6175    2      ELSE IF OCTET_NUM = 7 THEN
     2870     6176    3         DO;                           /* DRIVE ENDING STATUS */
     2871     6177    3           CALL INSERT(MDS_TEXT, 17, 44,
     2872     6178    3                       'OCTET 07 TO 08 = 0000  - DRIVE ENDING STATUS');
     2873     6179    3           CALL INSERT(MDS_TEXT, 34, 4, BINHEX(OCTET_NIBBLE(14)),
     2874     6180    3                                        BINHEX(OCTET_NIBBLE(15)),
PL6.E3A0      #001=THF$RAW File=THF$FORMAT.:E05TSI                               WED 07/30/97 06:08 Page:91
     2875     6181    3                                        BINHEX(OCTET_NIBBLE(16)),
     2876     6182    3                                        BINHEX(OCTET_NIBBLE(17)));
     2877     6183    3           XST_CNT = 61;
     2878     6184    3           CALL THF$ADD_TEXTC(XST$, MDS_TEXT, XST_CNT);
     2879     6185    3           NXST = NXST + 1;
     2880     6186    3         END;  /* OCTET 7 */
     2881     6187    2      ELSE IF OCTET_NUM = 8 THEN
     2882     6188    3         DO;
     2883     6189    3           MDS_STATUS_REG1 = OCTET_BYTE(8);
     2884     6190    3           CALL DECODE_DRIVE_STAT;
     2885     6191    3         END;  /* OCTET_NUM = 8 */
     2886     6192    2      ELSE IF OCTET_NUM = 9 THEN     /* OCTETS 9 & A - CMD ENDING STATUS */
     2887     6193    3         DO;
     2888     6194    3           CALL INSERT(MDS_TEXT, 17, 47,
     2889     6195    3                       'OCTETS 09 TO 0A = 0000  - COMMAND ENDING STATUS');
     2890     6196    3           CALL INSERT(MDS_TEXT, 35, 4, BINHEX(OCTET_NIBBLE(18)),
     2891     6197    3                                        BINHEX(OCTET_NIBBLE(19)),
     2892     6198    3                                        BINHEX(OCTET_NIBBLE(20)),
     2893     6199    3                                        BINHEX(OCTET_NIBBLE(21)));
     2894     6200    3           XST_CNT = 64;
     2895     6201    3           CALL THF$ADD_TEXTC(XST$, MDS_TEXT, XST_CNT);
     2896     6202    3           NXST = NXST + 1;
     2897     6203    3           MDS_STATUS_REG2(0) = OCTET_BYTE(9);
     2898     6204    4           DO X = 0 TO 48;              /* DECODE CMD IDENTIFIER */
     2899     6205    4              IF MDS_CMD_ENDING_STAT.CMD_IDENT = MDS_CMD_IDENT.CODE(X) THEN
     2900     6206    5                 DO;
     2901     6207    5                   MDS_TEXT = ' ';
     2902     6208    5                   CALL INSERT(MDS_TEXT,19,MDS_CMD_IDENT.COUNT(X) + 19,
     2903     6209    5                               'COMMAND IDENTIFIER:',
     2904     6210    5                               MDS_CMD_IDENT.TEXT(X));
     2905     6211    5                   XST_CNT = MDS_CMD_IDENT.COUNT(X) + 38;
     2906     6212    5                   CALL THF$ADD_TEXTC(XST$, MDS_TEXT, XST_CNT);
     2907     6213    5                   NXST = NXST + 1;
     2908     6214    5                 END;
     2909     6215    4           END;  /* DO X */
     2910     6216    3         END;    /* OCTET 9 */
     2911     6217    2      ELSE IF OCTET_NUM = 10 THEN
PL6.E3A0      #001=THF$RAW File=THF$FORMAT.:E05TSI                               WED 07/30/97 06:08 Page:92
     2912     6218    3         DO;                          /* DECODE ERROR CODE */
     2913     6219    3           MDS_STATUS_REG2(1) = OCTET_BYTE(10);
     2914     6220    3           CALL DECODE_CMD_STAT;
     2915     6221    3           IF PARAMETER_LENGTH = %HEX_0B    /* TEST FOR SHORT PARAMETER */
     2916     6222    4              THEN DO;
     2917     6223    4                 CALL DECODE_PARAM_3X;
     2918     6224    4                 RETURN;
     2919     6225    4              END;
     2920     6226    3         END;    /* OCTET_NUM = 10 */
     2921     6227    2      ELSE IF OCTET_NUM = 11 THEN
     2922     6228    3         DO;
     2923     6229    3           CALL INSERT(MDS_TEXT, 17, 43,
     2924     6230    3                       'OCTET 0B = 00 -- DRIVE''S STATUS/ERROR CODES');
     2925     6231    3           CALL INSERT(MDS_TEXT, 28, 2, BINHEX(OCTET_NIBBLE(22)),
     2926     6232    3                                        BINHEX(OCTET_NIBBLE(23)));
     2927     6233    3           XST_CNT = 60;
     2928     6234    3           CALL THF$ADD_TEXTC(XST$, MDS_TEXT, XST_CNT);
     2929     6235    3           NXST = NXST + 1;
     2930     6236    3           IF EL$IOERR.MODEL = 'MSU8092' THEN
     2931     6237    4              DO;                       /* DECODE STATUS FOR MDS II DISC */
     2932     6238    4                MDS_TBL$ = ADDR(MDSII_STATUS);
     2933     6239    4                MAX_ENTRY = %MDSII_MAX_STATUS;
     2934     6240    5                DO X = 0 TO MAX_ENTRY;
     2935     6241    5                   IF OCTET_BYTE(11) = MDS_TBL.CODE(X) THEN
     2936     6242    6                      DO;
     2937     6243    6                        MDS_TEXT = ' ';
     2938     6244    6                        CALL INSERT(MDS_TEXT, 19, MDS_TBL.COUNT(X),
     2939     6245    6                                    MDS_TBL.TEXT(X));
     2940     6246    6                        XST_CNT = MDS_TBL.COUNT(X) + 19;
     2941     6247    6                        CALL THF$ADD_TEXTC(XST$, MDS_TEXT, XST_CNT);
     2942     6248    6                        NXST = NXST + 1;
     2943     6249    6                      END;
     2944     6250    5                END;  /* DO X */
     2945     6251    4              END;  /* MODEL = MSU8092 */
     2946     6252    3         END;
     2947     6253    2      ELSE IF OCTET_NUM = 12 THEN
     2948     6254    3         DO;
PL6.E3A0      #001=THF$RAW File=THF$FORMAT.:E05TSI                               WED 07/30/97 06:08 Page:93
     2949     6255    4           DO X = 0 TO 3;
     2950     6256    4              FRU_STRING.OCTET.NIB1(X) = BINHEX(OCTET_NIBBLE(2 * X + 24));
     2951     6257    4              FRU_STRING.OCTET.NIB2(X) = BINHEX(OCTET_NIBBLE(2 * X + 25));
     2952     6258    4           END;  /* DO X */
     2953     6259    3           CALL INSERT(MDS_TEXT, 17, 39, 'OCTETS 1B TO 1E', FRU_STR, '  - FRUS');
     2954     6260    3           XST_CNT = 56;
     2955     6261    3           CALL THF$ADD_TEXTC(XST$, MDS_TEXT, XST_CNT);
     2956     6262    3           NXST = NXST + 1;
     2957     6263    3           IF EL$IOERR.MODEL = 'MSU8092' THEN
     2958     6264    4              DO;
     2959     6265    4                MAX_ENTRY = %MDSII_MAX_FRUS;
     2960     6266    4                MDS_TBL$ = ADDR(MDSII_FRUS);
     2961     6267    4              END;
     2962     6268    4              ELSE DO;
     2963     6269    4                MAX_ENTRY = %MDSI_MAX_FRUS;
     2964     6270    4                MDS_TBL$ = ADDR(MDSI_FRUS);
     2965     6271    4              END;
     2966     6272    4           DO X = 12 TO 15;
     2967     6273    4              F_INDX = OCTET_BYTE(X);
     2968     6274    4              IF (FRU_INDX(1) >0 AND FRU_INDX(1) <= MAX_ENTRY) THEN
     2969     6275    5                DO;
     2970     6276    5                  MDS_TEXT = ' ';
     2971     6277    5                  CALL INSERT(MDS_TEXT, 19, MDS_TBL.COUNT(FRU_INDX(1)),
     2972     6278    5                              MDS_TBL.TEXT(FRU_INDX(1)));
     2973     6279    5                  XST_CNT = MDS_TBL.COUNT(FRU_INDX(1)) + 19;
     2974     6280    5                  CALL THF$ADD_TEXTC(XST$, MDS_TEXT, XST_CNT);
     2975     6281    5                  NXST = NXST + 1;
     2976     6282    5                END;
     2977     6283    4           END;  /* DO X */
     2978     6284    3         END;    /* DO OCTET_NUM = 12 */
     2979     6285    2      ELSE IF OCTET_NUM = 16 THEN
     2980     6286    3         DO;
     2981     6287    3           CALL INSERT(MDS_TEXT,17,27,'OCTET 1F = 00 -- FAULT CODE');
     2982     6288    3           CALL INSERT(MDS_TEXT,28,2,BINHEX(OCTET_NIBBLE(32)),
     2983     6289    3                                     BINHEX(OCTET_NIBBLE(33)));
     2984     6290    3           XST_CNT = 44;
     2985     6291    3           CALL THF$ADD_TEXTC(XST$, MDS_TEXT, XST_CNT);
PL6.E3A0      #001=THF$RAW File=THF$FORMAT.:E05TSI                               WED 07/30/97 06:08 Page:94
     2986     6292    3           NXST = NXST + 1;
     2987     6293    3           IF EL$IOERR.MODEL = 'MSU8092' THEN
     2988     6294    4             DO;
     2989     6295    4               MAX_ENTRY = %MDSII_MAX_FC;
     2990     6296    4               MDS_TBL$ = ADDR(MDSII_FCODE);
     2991     6297    4             END;
     2992     6298    4             ELSE DO;
     2993     6299    4               MAX_ENTRY = %MDSI_MAX_FC;
     2994     6300    4               MDS_TBL$ = ADDR(MDSI_FCODE);
     2995     6301    4             END;
     2996     6302    4           DO X = 0 TO MAX_ENTRY;
     2997     6303    4             IF OCTET_BYTE(16) = MDS_TBL.CODE(X) THEN
     2998     6304    5                DO;
     2999     6305    5                  MDS_TEXT = ' ';
     3000     6306    5                  CALL INSERT(MDS_TEXT, 19, MDS_TBL.COUNT(X),
     3001     6307    5                              MDS_TBL.TEXT(X));
     3002     6308    5                  XST_CNT = MDS_TBL.COUNT(X) + 19;
     3003     6309    5                  CALL THF$ADD_TEXTC(XST$, MDS_TEXT, XST_CNT);
     3004     6310    5                  NXST = NXST + 1;
     3005     6311    5                END;
     3006     6312    4           END;  /* DO X */
     3007     6313    3           CALL DECODE_PARAM_3X;  /* DECODING FINISHED FOR X6 */
     3008     6314    3           RETURN;
     3009     6315    3         END;
     3010     6316    2      ELSE RETURN;
     3011     6317    2         IF OCTET_NUM >= PARAMETER_LENGTH - 1 THEN
     3012     6318    2            CALL DECODE_PARAM_3X;
     3013     6319    2         RETURN;
     3014     6320    2   END DECODE_PARAM_X6;
     3015     6321        %EJECT;
PL6.E3A0      #001=THF$RAW File=THF$FORMAT.:E05TSI                               WED 07/30/97 06:08 Page:95
     3016     6322        /**/
     3017     6323        /* PROCEDURE TO DECODE COMMAND EXCEPTION STATUS CODE FOR  MDS DISCS */
     3018     6324        /**/
     3019     6325    1   DECODE_PARAM_X7: PROC;
     3020     6326        /**/
     3021     6327    2      MDS_TEXT = ' ';
     3022     6328    2      OCTET$ = MDS_PARAM_X7.SUB$(OCTET_NUM -1);
     3023     6329    2      IF (OCTET_NUM > 0 AND OCTET_NUM < 7) THEN
     3024     6330    3         DO;
     3025     6331    3           HEX_NUM = OCTET_NUM;
     3026     6332    3           CALL INSERT(MDS_TEXT, 17, 11, ' OCTET ',BINHEX(HEX_NIBBLE(0)),
     3027     6333    3                       BINHEX(HEX_NIBBLE(1)), ' = ');
     3028     6334    3           CALL INSERT(MDS_TEXT, 28, 2, BINHEX(OCTET_NIBBLE(2 * OCTET_NUM)),
     3029     6335    3                       BINHEX(OCTET_NIBBLE(2 * OCTET_NUM + 1)));
     3030     6336    3           XST_CNT = 30;
     3031     6337    3           CALL THF$ADD_TEXTC(XST$, MDS_TEXT, XST_CNT);
     3032     6338    3           NXST = NXST + 1;
     3033     6339    3         END;
     3034     6340    2      IF (OCTET_NUM = 1 OR OCTET_NUM = 2 OR OCTET_NUM = 5) THEN
     3035     6341    3         DO;
     3036     6342    3           PARAM_INDX = 0;
     3037     6343    4           DO X = (8 * DEVTBL.CODE(I)) TO (8 * DEVTBL.CODE(I) +7);
     3038     6344    4              IF (IO_MASK1(X)) AND (PARAM_TBL.COUNT(PARAM_INDX) > 1)
     3039     6345    5                 THEN DO;
     3040     6346    5                   MDS_TEXT = ' ';
     3041     6347    5                   CALL INSERT(MDS_TEXT, 17, PARAM_TBL.COUNT(PARAM_INDX), PARAM_TBL.
              6347                            TEXT(PARAM_INDX));
     3042     6348    5                   XST_CNT = PARAM_TBL.COUNT(PARAM_INDX) + 17;
     3043     6349    5                   CALL THF$ADD_TEXTC(XST$, MDS_TEXT, XST_CNT);
     3044     6350    5                   NXST = NXST + 1;
     3045     6351    5                 END;
     3046     6352    4           PARAM_INDX = PARAM_INDX + 1;
     3047     6353    4           END;  /* DO X */
     3048     6354    3           IF OCTET_NUM >= PARAMETER_LENGTH -1
     3049     6355    3              THEN PARAMETER_ID = 0;
     3050     6356    3           RETURN;
     3051     6357    3         END;
PL6.E3A0      #001=THF$RAW File=THF$FORMAT.:E05TSI                               WED 07/30/97 06:08 Page:96
     3052     6358    2      IF OCTET_NUM = 7 THEN
     3053     6359    3         DO;
     3054     6360    3             CALL INSERT(MDS_TEXT, 17, PARAM_TBL.COUNT(0), PARAM_TBL.TEXT(0));
     3055     6361    3             CALL INSERT(MDS_TEXT, 36, 4, BINHEX(OCTET_NIBBLE(14)),
     3056     6362    3                                          BINHEX(OCTET_NIBBLE(15)),
     3057     6363    3                                          BINHEX(OCTET_NIBBLE(16)),
     3058     6364    3                                          BINHEX(OCTET_NIBBLE(17)));
     3059     6365    3             XST_CNT = PARAM_TBL.COUNT(0) + 17;
     3060     6366    3             CALL THF$ADD_TEXTC(XST$, MDS_TEXT, XST_CNT);
     3061     6367    3             NXST = NXST + 1;
     3062     6368    3             MDS_TEXT = ' ';
     3063     6369    3             CALL INSERT(MDS_TEXT, 17, PARAM_TBL.COUNT(1), PARAM_TBL.TEXT(1));
     3064     6370    3             CALL INSERT(MDS_TEXT, 36, 2, BINHEX(OCTET_NIBBLE(18)),
     3065     6371    3                                          BINHEX(OCTET_NIBBLE(19)));
     3066     6372    3             XST_CNT = PARAM_TBL.COUNT(1) + 17;
     3067     6373    3             CALL THF$ADD_TEXTC(XST$, MDS_TEXT, XST_CNT);
     3068     6374    3             NXST = NXST + 1;
     3069     6375    3             MDS_TEXT = ' ';
     3070     6376    3             CALL INSERT(MDS_TEXT, 17, PARAM_TBL.COUNT(2), PARAM_TBL.TEXT(2));
     3071     6377    3             CALL INSERT(MDS_TEXT, 36, 2, BINHEX(OCTET_NIBBLE(20)),
     3072     6378    3                                          BINHEX(OCTET_NIBBLE(21)));
     3073     6379    3             XST_CNT = PARAM_TBL.COUNT(2) + 17;
     3074     6380    3             CALL THF$ADD_TEXTC(XST$, MDS_TEXT, XST_CNT);
     3075     6381    3             NXST = NXST + 1;
     3076     6382    3             PARAMETER_ID = 0;               /* DECODING FINISHED FOR X7 */
     3077     6383    3             RETURN;
     3078     6384    3         END;
     3079     6385    2      IF OCTET_NUM >= PARAMETER_LENGTH - 1
     3080     6386    2         THEN PARAMETER_ID = 0;
     3081     6387    2      RETURN;
     3082     6388    2   END DECODE_PARAM_X7;
     3083     6389        %EJECT;
PL6.E3A0      #001=THF$RAW File=THF$FORMAT.:E05TSI                               WED 07/30/97 06:08 Page:97
     3084     6390        /**/
     3085     6391        /* PROCEDURE TO DECODE COMMAND ABORTED STATUS CODE FOR  MDS DISCS */
     3086     6392        /**/
     3087     6393    1   DECODE_PARAM_X8: PROC;
     3088     6394        /**/
     3089     6395    2      MDS_TEXT = ' ';
     3090     6396    2      OCTET$ = MDS_PARAM_X8.SUB$;
     3091     6397    2      IF (OCTET_NUM > 0 AND OCTET_NUM<5) THEN
     3092     6398    3         DO;
     3093     6399    3           HEX_NUM = OCTET_NUM;
     3094     6400    3           CALL INSERT(MDS_TEXT, 17, 11, ' OCTET ',BINHEX(HEX_NIBBLE(0)),
     3095     6401    3                       BINHEX(HEX_NIBBLE(1)), ' = ');
     3096     6402    3           CALL INSERT(MDS_TEXT, 28, 2, BINHEX(OCTET_NIBBLE(2 * OCTET_NUM)),
     3097     6403    3                       BINHEX(OCTET_NIBBLE(2 * OCTET_NUM + 1)));
     3098     6404    3           XST_CNT = 30;
     3099     6405    3           CALL THF$ADD_TEXTC(XST$, MDS_TEXT, XST_CNT);
     3100     6406    3           NXST = NXST + 1;
     3101     6407    3         END;
     3102     6408    2      IF OCTET_NUM = 1 THEN
     3103     6409    3         DO;
     3104     6410    3           PARAM_INDX = 0;
     3105     6411    4           DO X = (8 * DEVTBL.CODE(I)) TO (8 * DEVTBL.CODE(I) +7);
     3106     6412    4              IF (IO_MASK1(X)) AND (PARAM_TBL.COUNT(PARAM_INDX) > 1)
     3107     6413    5                 THEN DO;
     3108     6414    5                   MDS_TEXT = ' ';
     3109     6415    5                   CALL INSERT(MDS_TEXT, 17, PARAM_TBL.COUNT(PARAM_INDX), PARAM_TBL.
              6415                            TEXT(PARAM_INDX));
     3110     6416    5                   XST_CNT = PARAM_TBL.COUNT(PARAM_INDX) + 17;
     3111     6417    5                   CALL THF$ADD_TEXTC(XST$, MDS_TEXT, XST_CNT);
     3112     6418    5                   NXST = NXST + 1;
     3113     6419    5                 END;
     3114     6420    4           PARAM_INDX = PARAM_INDX + 1;
     3115     6421    4           END;  /* DO X */
     3116     6422    3           RETURN;
     3117     6423    3         END;
     3118     6424    2      IF OCTET_NUM = 5 THEN
     3119     6425    3         DO;
PL6.E3A0      #001=THF$RAW File=THF$FORMAT.:E05TSI                               WED 07/30/97 06:08 Page:98
     3120     6426    3           HEX_NUM = PARAMETER_LENGTH - 1;
     3121     6427    3           CALL INSERT(MDS_TEXT, 17, 19, ' OCTETS 05 TO ',BINHEX(HEX_NIBBLE(0)),
     3122     6428    3                       BINHEX(HEX_NIBBLE(1)),' = ');
     3123     6429    3           MDS_TEXT_POSITION = 36;
     3124     6430    4           DO X = 5 TO PARAMETER_LENGTH - 1;
     3125     6431    4              CALL INSERT(MDS_TEXT, MDS_TEXT_POSITION, 2, BINHEX(OCTET_NIBBLE(2 * X)),
     3126     6432    4                          BINHEX(OCTET_NIBBLE(2 * X + 1)));
     3127     6433    4              MDS_TEXT_POSITION = MDS_TEXT_POSITION + 3;
     3128     6434    4           END;
     3129     6435    3           CALL INSERT(MDS_TEXT, MDS_TEXT_POSITION, 21, ' - EXTENDED SUBSTATUS');
     3130     6436    3           XST_CNT = MDS_TEXT_POSITION + 21;
     3131     6437    3           CALL THF$ADD_TEXTC(XST$, MDS_TEXT, XST_CNT);
     3132     6438    3           NXST = NXST + 1;
     3133     6439    3           PARAMETER_ID = 0;                  /* DECODING DONE FOR X8 */
     3134     6440    3           RETURN;
     3135     6441    3         END;       /* OCTET_NUM = 5 */
     3136     6442    2      IF OCTET_NUM >= PARAMETER_LENGTH - 1 THEN
     3137     6443    2         PARAMETER_ID = 0;
     3138     6444    2      RETURN;
     3139     6445    2   END DECODE_PARAM_X8;
     3140     6446        %EJECT;
PL6.E3A0      #001=THF$RAW File=THF$FORMAT.:E05TSI                               WED 07/30/97 06:08 Page:99
     3141     6447        /**/
     3142     6448        /* PROCEDURE TO DECODE CONDITIONAL SUCCESS STATUS CODE FOR  MDS DISCS */
     3143     6449        /**/
     3144     6450    1   DECODE_PARAM_X9: PROC;
     3145     6451        /**/
     3146     6452    2      MDS_TEXT = ' ';
     3147     6453    2      OCTET$ = MDS_PARAM_X9.SUB$(OCTET_NUM - 1);
     3148     6454    2      IF (OCTET_NUM > 0 AND OCTET_NUM < 5) THEN
     3149     6455    3         DO;
     3150     6456    3           HEX_NUM = OCTET_NUM;
     3151     6457    3           CALL INSERT(MDS_TEXT, 17, 11, 'OCTET ',BINHEX(HEX_NIBBLE(0)),
     3152     6458    3                       BINHEX(HEX_NIBBLE(1)), ' = ');
     3153     6459    3           CALL INSERT(MDS_TEXT, 28, 2, BINHEX(OCTET_NIBBLE(2 * OCTET_NUM)),
     3154     6460    3                       BINHEX(OCTET_NIBBLE(2 * OCTET_NUM + 1)));
     3155     6461    3           XST_CNT = 30;
     3156     6462    3           CALL THF$ADD_TEXTC(XST$, MDS_TEXT, XST_CNT);
     3157     6463    3           NXST = NXST + 1;
     3158     6464    3         END;
     3159     6465    2      IF (OCTET_NUM > 0 AND OCTET_NUM < 4) THEN
     3160     6466    3         DO;
     3161     6467    3           PARAM_INDX = 0;
     3162     6468    4           DO X = (8 * DEVTBL.CODE(I)) TO (8 * DEVTBL.CODE(I) +7);
     3163     6469    4              IF (IO_MASK1(X)) AND (PARAM_TBL.COUNT(PARAM_INDX) > 1)
     3164     6470    5                 THEN DO;
     3165     6471    5                   MDS_TEXT = ' ';
     3166     6472    5                   CALL INSERT(MDS_TEXT, 17, PARAM_TBL.COUNT(PARAM_INDX), PARAM_TBL.
              6472                            TEXT(PARAM_INDX));
     3167     6473    5                   XST_CNT = PARAM_TBL.COUNT(PARAM_INDX) + 17;
     3168     6474    5                   CALL THF$ADD_TEXTC(XST$, MDS_TEXT, XST_CNT);
     3169     6475    5                   NXST = NXST + 1;
     3170     6476    5                 END;
     3171     6477    4           PARAM_INDX = PARAM_INDX + 1;
     3172     6478    4           END;  /* DO X */
     3173     6479    3           IF OCTET_NUM >= PARAMETER_LENGTH - 1 THEN
     3174     6480    3              CALL DECODE_PARAM_3X;
     3175     6481    3           RETURN;
     3176     6482    3         END;
PL6.E3A0      #001=THF$RAW File=THF$FORMAT.:E05TSI                               WED 07/30/97 06:08 Page:100
     3177     6483    2      IF OCTET_NUM = 5 THEN
     3178     6484    3         DO;                            /* DECODE DRIVE ENDING STATUS */
     3179     6485    3           HEX_NUM = OCTET_NUM + 4;     /* THIS CORRESPONDS TO OCTET 9 IN SPECS */
     3180     6486    3           CALL INSERT(MDS_TEXT, 17, 11, 'OCTET ', BINHEX(HEX_NIBBLE(0)),
     3181     6487    3                       BINHEX(HEX_NIBBLE(1)), ' = ');
     3182     6488    3           CALL INSERT(MDS_TEXT, 28, 25,
     3183     6489    3                       BINHEX(OCTET_NIBBLE(2 * OCTET_NUM)),
     3184     6490    3                       BINHEX(OCTET_NIBBLE(2 * OCTET_NUM + 1)),
     3185     6491    3                       ' -- DRIVE ENDING STATUS');
     3186     6492    3           XST_CNT = 53;
     3187     6493    3           CALL THF$ADD_TEXTC(XST$, MDS_TEXT, XST_CNT);
     3188     6494    3           NXST = NXST + 1;
     3189     6495    3           MDS_STATUS_REG1 = OCTET_BYTE(5);
     3190     6496    3           CALL DECODE_DRIVE_STAT;
     3191     6497    3         END;  /* OCTET_NUM = 5 */
     3192     6498    2         ELSE IF OCTET_NUM = 6 THEN
     3193     6499    3         DO;                            /* DECODE CMD ENDING STATUS */
     3194     6500    3           HEX_NUM = OCTET_NUM + 4;     /* THIS CORRESPONDS TO OCTET A IN SPECS */
     3195     6501    3           CALL INSERT(MDS_TEXT, 17, 11, 'OCTET ', BINHEX(HEX_NIBBLE(0)),
     3196     6502    3                       BINHEX(HEX_NIBBLE(1)), ' = ');
     3197     6503    3           CALL INSERT(MDS_TEXT, 28, 23,
     3198     6504    3                       BINHEX(OCTET_NIBBLE(2 * OCTET_NUM)),
     3199     6505    3                       BINHEX(OCTET_NIBBLE(2 * OCTET_NUM + 1)),
     3200     6506    3                       ' -- CMD ENDING STATUS');
     3201     6507    3           XST_CNT = 51;
     3202     6508    3           CALL THF$ADD_TEXTC(XST$, MDS_TEXT, XST_CNT);
     3203     6509    3           NXST = NXST + 1;
     3204     6510    3           MDS_STATUS_REG2(1) = OCTET_BYTE(6);
     3205     6511    3           CALL DECODE_CMD_STAT;
     3206     6512    3         END;  /* OCTET_NUM = 6 */
     3207     6513    2         ELSE IF OCTET_NUM = 7 THEN
     3208     6514    3           DO;
     3209     6515    3             CALL INSERT(MDS_TEXT, 17, 46,
     3210     6516    3                         'OCTETS 0B TO 0C = 0000 -- COUNT OF SOFT ERRORS');
     3211     6517    3             CALL INSERT(MDS_TEXT, 35, 4, BINHEX(OCTET_NIBBLE(14)),
     3212     6518    3                                          BINHEX(OCTET_NIBBLE(15)),
     3213     6519    3                                          BINHEX(OCTET_NIBBLE(16)),
PL6.E3A0      #001=THF$RAW File=THF$FORMAT.:E05TSI                               WED 07/30/97 06:08 Page:101
     3214     6520    3                                          BINHEX(OCTET_NIBBLE(17)));
     3215     6521    3             XST_CNT = 63;
     3216     6522    3             CALL THF$ADD_TEXTC(XST$, MDS_TEXT, XST_CNT);
     3217     6523    3             NXST = NXST + 1;
     3218     6524    3           END;  /* OCTET_NUM = 7 */
     3219     6525    2         ELSE IF OCTET_NUM = 9 THEN
     3220     6526    3           DO;                        /* OCTETS 9 AND 10 - RETRY CNT */
     3221     6527    3             CALL INSERT(MDS_TEXT, 17, 62,
     3222     6528    3                       'OCTETS 0D TO 0E = 0000 -- TOTAL # OF RETRIES & ECC CORRECTIONS'
              6528                                  );
     3223     6529    3             CALL INSERT(MDS_TEXT, 35, 4, BINHEX(OCTET_NIBBLE(18)),
     3224     6530    3                                          BINHEX(OCTET_NIBBLE(19)),
     3225     6531    3                                          BINHEX(OCTET_NIBBLE(20)),
     3226     6532    3                                          BINHEX(OCTET_NIBBLE(21)));
     3227     6533    3             XST_CNT = 79;
     3228     6534    3             CALL THF$ADD_TEXTC(XST$, MDS_TEXT, XST_CNT);
     3229     6535    3             NXST = NXST + 1;
     3230     6536    3             IF PARAMETER_LENGTH = %HEX_0F    /* TEST FOR SHORT PARAMETER */
     3231     6537    4                THEN DO;
     3232     6538    4                   CALL DECODE_PARAM_3X;
     3233     6539    4                   RETURN;
     3234     6540    4                END;
     3235     6541    3           END;  /* OCTET_NUM = 9 */
     3236     6542    2         ELSE IF OCTET_NUM = 11 THEN
     3237     6543    3            DO;                                /* OCTET 11 - DEVICE STATUS */
     3238     6544    3              CALL INSERT(MDS_TEXT, 17, 43,
     3239     6545    3                          'OCTET 0F = 00 -- DRIVE''S STATUS/ERROR CODES');
     3240     6546    3              CALL INSERT(MDS_TEXT, 28, 2, BINHEX(OCTET_NIBBLE(22)),
     3241     6547    3                                           BINHEX(OCTET_NIBBLE(23)));
     3242     6548    3              XST_CNT = 60;
     3243     6549    3              CALL THF$ADD_TEXTC(XST$, MDS_TEXT, XST_CNT);
     3244     6550    3              NXST = NXST + 1;
     3245     6551    3              IF EL$IOERR.MODEL = 'MSU8092' THEN
     3246     6552    4                 DO;                       /* DECODE STATUS FOR MDS II DISC */
     3247     6553    4                   MDS_TBL$ = ADDR(MDSII_STATUS);
     3248     6554    4                   MAX_ENTRY = %MDSII_MAX_STATUS;
     3249     6555    5                   DO X = 0 TO MAX_ENTRY;
PL6.E3A0      #001=THF$RAW File=THF$FORMAT.:E05TSI                               WED 07/30/97 06:08 Page:102
     3250     6556    5                      IF OCTET_BYTE(11) = MDS_TBL.CODE(X) THEN
     3251     6557    6                         DO;
     3252     6558    6                           MDS_TEXT = ' ';
     3253     6559    6                           CALL INSERT(MDS_TEXT, 19, MDS_TBL.COUNT(X),
     3254     6560    6                                       MDS_TBL.TEXT(X));
     3255     6561    6                           XST_CNT = MDS_TBL.COUNT(X) + 19;
     3256     6562    6                           CALL THF$ADD_TEXTC(XST$, MDS_TEXT, XST_CNT);
     3257     6563    6                           NXST = NXST + 1;
     3258     6564    6                         END;
     3259     6565    5                   END;  /* DO X */
     3260     6566    4                 END;  /* MODEL = MSU8092 */
     3261     6567    3            END;
     3262     6568    2         ELSE IF OCTET_NUM = 12 THEN
     3263     6569    3            DO;
     3264     6570    4              DO X = 0 TO 3;
     3265     6571    4                 FRU_STRING.OCTET.NIB1(X) = BINHEX(OCTET_NIBBLE(2 * X + 24));
     3266     6572    4                 FRU_STRING.OCTET.NIB2(X) = BINHEX(OCTET_NIBBLE(2 * X + 25));
     3267     6573    4              END;  /* DO X */
     3268     6574    3              CALL INSERT(MDS_TEXT, 17, 39, 'OCTETS 20 TO 23', FRU_STR, '  - FRUS');
     3269     6575    3              XST_CNT = 56;
     3270     6576    3              CALL THF$ADD_TEXTC(XST$, MDS_TEXT, XST_CNT);
     3271     6577    3              NXST = NXST + 1;
     3272     6578    3              IF EL$IOERR.MODEL = 'MSU8092' THEN
     3273     6579    4                 DO;
     3274     6580    4                   MAX_ENTRY = %MDSII_MAX_FRUS;
     3275     6581    4                   MDS_TBL$ = ADDR(MDSII_FRUS);
     3276     6582    4                 END;
     3277     6583    4                 ELSE DO;
     3278     6584    4                   MAX_ENTRY = %MDSI_MAX_FRUS;
     3279     6585    4                   MDS_TBL$ = ADDR(MDSI_FRUS);
     3280     6586    4                 END;
     3281     6587    4              DO X = 12 TO 15;
     3282     6588    4                 F_INDX = OCTET_BYTE(X);
     3283     6589    4                 IF (FRU_INDX(1) >0 AND FRU_INDX(1) <= MAX_ENTRY) THEN
     3284     6590    5                   DO;
     3285     6591    5                     MDS_TEXT = ' ';
     3286     6592    5                     CALL INSERT(MDS_TEXT, 19, MDS_TBL.COUNT(FRU_INDX(1)),
PL6.E3A0      #001=THF$RAW File=THF$FORMAT.:E05TSI                               WED 07/30/97 06:08 Page:103
     3287     6593    5                                 MDS_TBL.TEXT(FRU_INDX(1)));
     3288     6594    5                     XST_CNT = MDS_TBL.COUNT(FRU_INDX(1)) + 19;
     3289     6595    5                     CALL THF$ADD_TEXTC(XST$, MDS_TEXT, XST_CNT);
     3290     6596    5                     NXST = NXST + 1;
     3291     6597    5                   END;
     3292     6598    4              END;  /* DO X */
     3293     6599    3            END;    /* DO OCTET_NUM = 12 */
     3294     6600    2         ELSE IF OCTET_NUM = 16 THEN
     3295     6601    3            DO;
     3296     6602    3              CALL INSERT(MDS_TEXT,17,27,'OCTET 24 = 00 -- FAULT CODE');
     3297     6603    3              CALL INSERT(MDS_TEXT,28,2,BINHEX(OCTET_NIBBLE(32)),
     3298     6604    3                                        BINHEX(OCTET_NIBBLE(33)));
     3299     6605    3              XST_CNT = 44;
     3300     6606    3              CALL THF$ADD_TEXTC(XST$, MDS_TEXT, XST_CNT);
     3301     6607    3              NXST = NXST + 1;
     3302     6608    3              IF EL$IOERR.MODEL = 'MSU8092' THEN
     3303     6609    4                DO;
     3304     6610    4                  MAX_ENTRY = %MDSII_MAX_FC;
     3305     6611    4                  MDS_TBL$ = ADDR(MDSII_FCODE);
     3306     6612    4                END;
     3307     6613    4                ELSE DO;
     3308     6614    4                  MAX_ENTRY = %MDSI_MAX_FC;
     3309     6615    4                  MDS_TBL$ = ADDR(MDSI_FCODE);
     3310     6616    4                END;
     3311     6617    4              DO X = 0 TO MAX_ENTRY;
     3312     6618    4                IF OCTET_BYTE(16) = MDS_TBL.CODE(X) THEN
     3313     6619    5                   DO;
     3314     6620    5                     MDS_TEXT = ' ';
     3315     6621    5                     CALL INSERT(MDS_TEXT, 19, MDS_TBL.COUNT(X),
     3316     6622    5                                 MDS_TBL.TEXT(X));
     3317     6623    5                     XST_CNT = MDS_TBL.COUNT(X) + 19;
     3318     6624    5                     CALL THF$ADD_TEXTC(XST$, MDS_TEXT, XST_CNT);
     3319     6625    5                     NXST = NXST + 1;
     3320     6626    5                   END;
     3321     6627    4              END;  /* DO X */
     3322     6628    3              CALL DECODE_PARAM_3X;  /* DECODING FINISHED FOR X9 */
     3323     6629    3              RETURN;
PL6.E3A0      #001=THF$RAW File=THF$FORMAT.:E05TSI                               WED 07/30/97 06:08 Page:104
     3324     6630    3            END;
     3325     6631    2         ELSE RETURN;
     3326     6632    2      IF OCTET_NUM >= PARAMETER_LENGTH -1 THEN
     3327     6633    2         CALL DECODE_PARAM_3X;
     3328     6634    2      RETURN;
     3329     6635    2   END DECODE_PARAM_X9;
     3330     6636        %EJECT;
PL6.E3A0      #001=THF$RAW File=THF$FORMAT.:E05TSI                               WED 07/30/97 06:08 Page:105
     3331     6637        /**/
     3332     6638        /* PROCEDURE TO DECODE INCOMPLETE STATUS CODE FOR  MDS DISCS */
     3333     6639        /**/
     3334     6640    1   DECODE_PARAM_XA: PROC;
     3335     6641        /**/
     3336     6642    2      MDS_TEXT = ' ';
     3337     6643    2      OCTET$ = MDS_PARAM_XA.SUB$(OCTET_NUM - 1);
     3338     6644    2      IF (OCTET_NUM > 0 AND OCTET_NUM < 6) THEN
     3339     6645    3         DO;
     3340     6646    3           HEX_NUM = OCTET_NUM;
     3341     6647    3           CALL INSERT(MDS_TEXT, 17, 12, ' OCTET ',BINHEX(HEX_NIBBLE(0)),
     3342     6648    3                       BINHEX(HEX_NIBBLE(1)), ' = ');
     3343     6649    3           CALL INSERT(MDS_TEXT, 28, 2, BINHEX(OCTET_NIBBLE(2 * OCTET_NUM)),
     3344     6650    3                       BINHEX(OCTET_NIBBLE(2 * OCTET_NUM + 1)));
     3345     6651    3           XST_CNT = 30;
     3346     6652    3           CALL THF$ADD_TEXTC(XST$, MDS_TEXT, XST_CNT);
     3347     6653    3           NXST = NXST + 1;
     3348     6654    3         END;
     3349     6655    2      IF (OCTET_NUM =1 OR OCTET_NUM = 3 OR OCTET_NUM = 5) THEN
     3350     6656    3         DO;
     3351     6657    3           PARAM_INDX = 0;
     3352     6658    4           DO X = (8 * DEVTBL.CODE(I)) TO (8 * DEVTBL.CODE(I) +7);
     3353     6659    4              IF (IO_MASK1(X)) AND (PARAM_TBL.COUNT(PARAM_INDX) > 1)
     3354     6660    5                 THEN DO;
     3355     6661    5                   MDS_TEXT = ' ';
     3356     6662    5                   CALL INSERT(MDS_TEXT, 17, PARAM_TBL.COUNT(PARAM_INDX), PARAM_TBL.
              6662                            TEXT(PARAM_INDX));
     3357     6663    5                   XST_CNT = PARAM_TBL.COUNT(PARAM_INDX) + 17;
     3358     6664    5                   CALL THF$ADD_TEXTC(XST$, MDS_TEXT, XST_CNT);
     3359     6665    5                   NXST = NXST + 1;
     3360     6666    5                 END;
     3361     6667    4           PARAM_INDX = PARAM_INDX + 1;
     3362     6668    4           END;  /* DO X */
     3363     6669    3           IF OCTET_NUM >= PARAMETER_LENGTH -1
     3364     6670    3              THEN PARAMETER_ID = 0;
     3365     6671    3           RETURN;
     3366     6672    3         END;
PL6.E3A0      #001=THF$RAW File=THF$FORMAT.:E05TSI                               WED 07/30/97 06:08 Page:106
     3367     6673    2      IF OCTET_NUM = 6 THEN
     3368     6674    3         DO;
     3369     6675    3           HEX_NUM = PARAMETER_LENGTH - 1;
     3370     6676    3           CALL INSERT(MDS_TEXT, 17, 36, ' OCTET 06 TO ',BINHEX(HEX_NIBBLE(0)),
     3371     6677    3                       BINHEX(HEX_NIBBLE(1)),' - EXTENDED SUBSTATUS');
     3372     6678    3           XST_CNT = 53;
     3373     6679    3           CALL THF$ADD_TEXTC(XST$, MDS_TEXT, XST_CNT);
     3374     6680    3           NXST = NXST + 1;
     3375     6681    3           MDS_TEXT = ' ';
     3376     6682    3           CALL INSERT(MDS_TEXT,19,1,'=');
     3377     6683    3           MDS_TEXT_POSITION = 21;
     3378     6684    4           DO X = 6 TO PARAMETER_LENGTH - 1;
     3379     6685    4              CALL INSERT(MDS_TEXT, MDS_TEXT_POSITION, 2, BINHEX(OCTET_NIBBLE(2 * X)),
     3380     6686    4                          BINHEX(OCTET_NIBBLE(2 * X + 1)));
     3381     6687    4              MDS_TEXT_POSITION = MDS_TEXT_POSITION + 3;
     3382     6688    4           END;
     3383     6689    3           XST_CNT = MDS_TEXT_POSITION;
     3384     6690    3           CALL THF$ADD_TEXTC(XST$, MDS_TEXT, XST_CNT);
     3385     6691    3           NXST = NXST + 1;
     3386     6692    3           PARAMETER_ID = 0;                  /* DECODING DONE FOR X8 */
     3387     6693    3           RETURN;
     3388     6694    3         END;
     3389     6695    2      IF OCTET_NUM >= PARAMETER_LENGTH -1 THEN
     3390     6696    2         PARAMETER_ID = 0;
     3391     6697    2      RETURN;
     3392     6698    2   END DECODE_PARAM_XA;
     3393     6699        %EJECT;
PL6.E3A0      #001=THF$RAW File=THF$FORMAT.:E05TSI                               WED 07/30/97 06:08 Page:107
     3394     6700        /**/
     3395     6701        /* PROCEDURE TO DECODE DRIVE ENDING STATUS CODE FOR  MDS DISCS */
     3396     6702        /**/
     3397     6703    1   DECODE_DRIVE_STAT: PROC;
     3398     6704        /**/
     3399     6705    2           PARAM_INDX = 0;
     3400     6706    3           DO X = (8 * DEVTBL.CODE(I)) TO (8 * DEVTBL.CODE(I) + 3);
     3401     6707    3              IF IO_MASK1(X) THEN
     3402     6708    4                 DO;              /* DECODE DRIVE ENDING STATUS */
     3403     6709    4                   MDS_TEXT = ' ';
     3404     6710    4                   CALL INSERT(MDS_TEXT,17,MDS_DRIVE_ENDING_STATUS.COUNT(PARAM_INDX),
     3405     6711    4                               MDS_DRIVE_ENDING_STATUS.TEXT(PARAM_INDX));
     3406     6712    4                   XST_CNT = MDS_DRIVE_ENDING_STATUS.COUNT(PARAM_INDX) + 17;
     3407     6713    4                   CALL THF$ADD_TEXTC(XST$, MDS_TEXT, XST_CNT);
     3408     6714    4                   NXST = NXST + 1;
     3409     6715    4                 END;
     3410     6716    3              PARAM_INDX = PARAM_INDX + 1;
     3411     6717    3           END;  /* DO X */
     3412     6718    2           MDS_TEXT = ' ';
     3413     6719    3           DO CASE(MDS_DRIVE_STATUS.OP_END_STATUS);  /* DECODE OP ENDING STATUS */
     3414     6720    3              CASE(%BUS_CNTL_EXECUTED);
     3415     6721    3                CALL INSERT(MDS_TEXT,17,24,' -- BUS CONTROL EXECUTED');
     3416     6722    3                XST_CNT = 41;
     3417     6723    3              CASE(%BUS_CNTL_REJECT);
     3418     6724    3                CALL INSERT(MDS_TEXT,17,29,' -- BUSY - BUS CONTROL REJECT');
     3419     6725    3                XST_CNT = 46;
     3420     6726    3              CASE(%MISSING_AM);
     3421     6727    3                CALL INSERT(MDS_TEXT,17,24,' -- MISSING ADDRESS MARK');
     3422     6728    3                XST_CNT = 41;
     3423     6729    3              CASE(%MISSING_SYNC_BYTE);
     3424     6730    3                CALL INSERT(MDS_TEXT,17,21,' -- MISSING SYNC BYTE');
     3425     6731    3                XST_CNT = 38;
     3426     6732    3              CASE(%ECC_ERROR);
     3427     6733    3                CALL INSERT(MDS_TEXT,17,13,' -- ECC ERROR');
     3428     6734    3                XST_CNT = 30;
     3429     6735    3              CASE(%HDR_VERIFY_ERR);
     3430     6736    3                CALL INSERT(MDS_TEXT,17,23,' -- HEADER VERIFY ERROR');
PL6.E3A0      #001=THF$RAW File=THF$FORMAT.:E05TSI                               WED 07/30/97 06:08 Page:108
     3431     6737    3                XST_CNT = 40;
     3432     6738    3              CASE(%OPERATION_EXCEPTION);
     3433     6739    3                CALL INSERT(MDS_TEXT,17,23,' -- OPERATION EXCEPTION');
     3434     6740    3                XST_CNT = 40;
     3435     6741    3              CASE(%UNSOLICIT_EXCEPTION);
     3436     6742    3                CALL INSERT(MDS_TEXT,17,25,' -- UNSOLICITED EXCEPTION');
     3437     6743    3                XST_CNT = 42;
     3438     6744    3           END;  /* DO CASE */
     3439     6745    2           CALL THF$ADD_TEXTC(XST$, MDS_TEXT, XST_CNT);
     3440     6746    2           NXST = NXST + 1;
     3441     6747    2           RETURN;
     3442     6748    2   END DECODE_DRIVE_STAT;
     3443     6749        %EJECT;
PL6.E3A0      #001=THF$RAW File=THF$FORMAT.:E05TSI                               WED 07/30/97 06:08 Page:109
     3444     6750        /**/
     3445     6751        /* PROCEDURE TO DECODE COMMAND ENDING STATUS (BYTE 2) FOR PARAM_X6 AND PARAM_X9 */
     3446     6752        /**/
     3447     6753    1   DECODE_CMD_STAT: PROC;
     3448     6754        /**/
     3449     6755    2      MDS_TEXT = ' ';
     3450     6756    2      CALL INSERT(MDS_TEXT, 19, 51, 'ERROR LOCATION:',
     3451     6757    2                  MDS_ERROR_LOC.TEXT(MDS_CMD_ENDING_STAT.ERROR_LOC));
     3452     6758    2      XST_CNT = 70;
     3453     6759    2      CALL THF$ADD_TEXTC(XST$, MDS_TEXT, XST_CNT);
     3454     6760    2      NXST = NXST + 1;
     3455     6761    2      MDS_TEXT = ' ';
     3456     6762    2      CALL INSERT(MDS_TEXT, 19, 17, 'ERROR CATAGORY:  ');
     3457     6763    3      DO CASE(MDS_CMD_ENDING_STAT.ERROR_CAT);
     3458     6764    3         CASE(%TIMEOUT_ERR);
     3459     6765    3              CALL INSERT(MDS_TEXT, 36, 13, 'TIMEOUT ERROR');
     3460     6766    3              XST_CNT = 47;
     3461     6767    3              CALL THF$ADD_TEXTC(XST$, MDS_TEXT, XST_CNT);
     3462     6768    3              NXST = NXST + 1;
     3463     6769    3              MDS_TEXT = ' ';
     3464     6770    3              CALL INSERT(MDS_TEXT, 19, 35, 'ERROR CODE:',
     3465     6771    3                          MDS_TIMEOUT_ERRS.TEXT(MDS_CMD_ENDING_STAT.ERROR_CODE));
     3466     6772    3              XST_CNT = 54;
     3467     6773    3              CALL THF$ADD_TEXTC(XST$, MDS_TEXT, XST_CNT);
     3468     6774    3              NXST = NXST + 1;
     3469     6775    3         CASE(%RW_ERR);
     3470     6776    3              CALL INSERT(MDS_TEXT, 36, 16, 'READ/WRITE ERROR');
     3471     6777    3              XST_CNT = 50;
     3472     6778    3              CALL THF$ADD_TEXTC(XST$, MDS_TEXT, XST_CNT);
     3473     6779    3              NXST = NXST + 1;
     3474     6780    3              MDS_TEXT = ' ';
     3475     6781    3              CALL INSERT(MDS_TEXT, 19, 37, 'ERROR CODE:',
     3476     6782    3                          MDS_RW_ERRS.TEXT(MDS_CMD_ENDING_STAT.ERROR_CODE));
     3477     6783    3              XST_CNT = 56;
     3478     6784    3              CALL THF$ADD_TEXTC(XST$, MDS_TEXT, XST_CNT);
     3479     6785    3              NXST = NXST + 1;
     3480     6786    3         CASE(%MISC_ERR);
PL6.E3A0      #001=THF$RAW File=THF$FORMAT.:E05TSI                               WED 07/30/97 06:08 Page:110
     3481     6787    3              CALL INSERT(MDS_TEXT, 36, 10, 'MISC ERROR');
     3482     6788    3              XST_CNT = 44;
     3483     6789    3              CALL THF$ADD_TEXTC(XST$, MDS_TEXT, XST_CNT);
     3484     6790    3              NXST = NXST + 1;
     3485     6791    3              MDS_TEXT = ' ';
     3486     6792    3              IF (MDS_CMD_ENDING_STAT.ERROR_CODE = 0 OR
     3487     6793    3                  MDS_CMD_ENDING_STAT.ERROR_CODE = 1)
     3488     6794    3                  THEN CALL INSERT(MDS_TEXT, 19, 25, 'ERROR CODE:',
     3489     6795    3                                   MDS_MISC_ERRS.TEXT(MDS_CMD_ENDING_STAT.ERROR_CODE));
     3490     6796    3                  ELSE CALL INSERT(MDS_TEXT, 19, 25, 'ERROR CODE:  UNKNOWN TYPE');
     3491     6797    3              XST_CNT = 44;
     3492     6798    3              CALL THF$ADD_TEXTC(XST$, MDS_TEXT, XST_CNT);
     3493     6799    3              NXST = NXST + 1;
     3494     6800    3         CASE(%INFO_XFR_ERR);
     3495     6801    3              CALL INSERT(MDS_TEXT, 36, 20, 'INFORMATION TRANSFER');
     3496     6802    3              XST_CNT = 65;
     3497     6803    3              CALL THF$ADD_TEXTC(XST$, MDS_TEXT, XST_CNT);
     3498     6804    3              NXST = NXST + 1;
     3499     6805    3              MDS_TEXT = ' ';
     3500     6806    3              IF (MDS_CMD_ENDING_STAT.ERROR_CODE > 0 OR
     3501     6807    3                  MDS_CMD_ENDING_STAT.ERROR_CODE < 6) THEN
     3502     6808    3                  CALL INSERT(MDS_TEXT, 19, 45, 'ERROR CODE:',
     3503     6809    3                       MDS_INFO_ERRS.TEXT(MDS_CMD_ENDING_STAT.ERROR_CODE));
     3504     6810    3                  ELSE CALL INSERT(MDS_TEXT, 19, 25, 'ERROR CODE:  UNKNOWN TYPE');
     3505     6811    3              XST_CNT = 64;
     3506     6812    3              CALL THF$ADD_TEXTC(XST$, MDS_TEXT, XST_CNT);
     3507     6813    3              NXST = NXST + 1;
     3508     6814    3      END;  /* DO CASE */
     3509     6815    2      RETURN;
     3510     6816    2   END DECODE_CMD_STAT;
     3511     6817        %EJECT;
PL6.E3A0      #001=THF$RAW File=THF$FORMAT.:E05TSI                               WED 07/30/97 06:08 Page:111
     3512     6818        /**/
     3513     6819        /* PROCEDURE TO DECODE COMMON PARAMETERS (TYPE 3X) FOR MDS DISCS */
     3514     6820        /**/
     3515     6821    1   DECODE_PARAM_3X: PROC;
     3516     6822        /**/
     3517     6823    2      PARAMETER_LENGTH = IO_MASK(27);  /* THIS PARAM ALWAYS STARTS AT OCTET 27 */
     3518     6824    2      PARAMETER_ID = IO_MASK(28);
     3519     6825    2      IF NOT (PARAMETER_LENGTH = 9 AND PARAMETER_ID = %HEX_32)
     3520     6826    2         THEN GOTO PARAM_3X_DONE;
     3521     6827    3      DO X = 0 TO 6;
     3522     6828    3         OCTET_BYTE(X) = IO_MASK(28 + X);
     3523     6829    3      END;
     3524     6830    2      MDS_TEXT = ' ';
     3525     6831    2      HEX_NUM = PARAMETER_LENGTH;
     3526     6832    2      CALL INSERT(MDS_TEXT, 15, 17, 'PARAM LENGTH = ',
     3527     6833    2                                    BINHEX(HEX_NIBBLE(0)),
     3528     6834    2                                    BINHEX(HEX_NIBBLE(1)));
     3529     6835    2      XST_CNT = 32;
     3530     6836    2      CALL THF$ADD_TEXTC(XST$, MDS_TEXT, XST_CNT);
     3531     6837    2      NXST = NXST + 1;
     3532     6838    2      MDS_TEXT = ' ';
     3533     6839    2      CALL INSERT(MDS_TEXT, 15, 46, 'PARAMETER ID = ',
     3534     6840    2                                    BINHEX(PARAM_ID.BYT1),
     3535     6841    2                                    BINHEX(PARAM_ID.BYT2),
     3536     6842    2                                    ' -- RESPONSE EXTENT PARAMETER');
     3537     6843    2      XST_CNT = 61;
     3538     6844    2      CALL THF$ADD_TEXTC(XST$, MDS_TEXT, XST_CNT);
     3539     6845    2      NXST = NXST + 1;
     3540     6846    2      MDS_TEXT = ' ';
     3541     6847    2      CALL INSERT(MDS_TEXT,17,46,'OCTETS 01 TO 04 = ', BINHEX(OCTET_NIBBLE(2)),
     3542     6848    2                  BINHEX(OCTET_NIBBLE(3)), BINHEX(OCTET_NIBBLE(4)),
     3543     6849    2                  BINHEX(OCTET_NIBBLE(5)), ' -- RESIDUAL COUNT (HEX)');
     3544     6850    2      XST_CNT = 63;
     3545     6851    2      CALL THF$ADD_TEXTC(XST$, MDS_TEXT, XST_CNT);
     3546     6852    2      NXST = NXST + 1;
     3547     6853    2      MDS_TEXT = ' ';
     3548     6854    2      MDS_REG1 = 0;
PL6.E3A0      #001=THF$RAW File=THF$FORMAT.:E05TSI                               WED 07/30/97 06:08 Page:112
     3549     6855    2      MDS_REG2.OCTET(0) = OCTET_BYTE(3);
     3550     6856    2      MDS_REG2.OCTET(1) = OCTET_BYTE(4);
     3551     6857    2      CALL BINCHAR(MDS_CYL, MDS_REG1);
     3552     6858    2      CALL INSERT(MDS_TEXT, 17, 34, 'OCTETS 05 TO 06 = ', MDS_CYL,
     3553     6859    2                  ' -- CYLINDER');
     3554     6860    2      XST_CNT = 51;
     3555     6861    2      CALL THF$ADD_TEXTC(XST$, MDS_TEXT, XST_CNT);
     3556     6862    2      NXST = NXST + 1;
     3557     6863    2      MDS_TEXT = ' ';
     3558     6864    2      MDS_REG1 = 0;
     3559     6865    2      MDS_REG2.OCTET(1) = OCTET_BYTE(5);
     3560     6866    2      CALL BINCHAR(MDS_HEAD, MDS_REG1);
     3561     6867    2      CALL INSERT(MDS_TEXT, 17, 21, 'OCTET 07 = ', MDS_HEAD, ' -- HEAD');
     3562     6868    2      XST_CNT = 38;
     3563     6869    2      CALL THF$ADD_TEXTC(XST$, MDS_TEXT, XST_CNT);
     3564     6870    2      NXST = NXST + 1;
     3565     6871    2      MDS_TEXT = ' ';
     3566     6872    2      MDS_REG1 = 0;
     3567     6873    2      MDS_REG2.OCTET(1) = OCTET_BYTE(6);
     3568     6874    2      CALL BINCHAR(MDS_SECTOR, MDS_REG1);
     3569     6875    2      CALL INSERT(MDS_TEXT, 17, 23, 'OCTET 08 = ', MDS_SECTOR, ' -- SECTOR');
     3570     6876    2      XST_CNT = 40;
     3571     6877    2      CALL THF$ADD_TEXTC(XST$, MDS_TEXT, XST_CNT);
     3572     6878    2      NXST = NXST + 1;
     3573     6879    2   PARAM_3X_DONE:
     3574     6880    2      PARAMETER_ID = 0;                /* DECODING DONE FOR PARAM_3X */
     3575     6881    2          RETURN;
     3576     6882    2   END DECODE_PARAM_3X;
     3577     6883        %EJECT;
PL6.E3A0      #001=THF$RAW File=THF$FORMAT.:E05TSI                               WED 07/30/97 06:08 Page:113
     3578     6884        /**/
     3579     6885        /* PROCEDURE TO DECODE DEVICE STATUS PARAMETER (TYPE 51) FOR MDS DISCS */
     3580     6886        /**/
     3581     6887    1   DECODE_PARAM_51:  PROC;
     3582     6888        /**/
     3583     6889    2      MDS_TEXT = ' ';
     3584     6890    2      OCTET$ = MDS_PARAM_51.SUB$(OCTET_NUM - 1);
     3585     6891    2      IF (OCTET_NUM = 1 OR OCTET_NUM = 2) THEN
     3586     6892    3         DO;
     3587     6893    3           HEX_NUM = OCTET_NUM;
     3588     6894    3           CALL INSERT(MDS_TEXT, 17, 11, 'OCTET ',BINHEX(HEX_NIBBLE(0)),
     3589     6895    3                       BINHEX(HEX_NIBBLE(1)), ' = ');
     3590     6896    3           CALL INSERT(MDS_TEXT, 28, 2, BINHEX(OCTET_NIBBLE(2 * OCTET_NUM)),
     3591     6897    3                       BINHEX(OCTET_NIBBLE(2 * OCTET_NUM + 1)));
     3592     6898    3           XST_CNT = 30;
     3593     6899    3           CALL THF$ADD_TEXTC(XST$, MDS_TEXT, XST_CNT);
     3594     6900    3           NXST = NXST + 1;
     3595     6901    3           PARAM_INDX = 0;
     3596     6902    4           DO X = (8 * DEVTBL.CODE(I)) TO (8 * DEVTBL.CODE(I) +7);
     3597     6903    4              IF (IO_MASK1(X)) AND (PARAM_TBL.COUNT(PARAM_INDX) > 1)
     3598     6904    5                 THEN DO;
     3599     6905    5                   MDS_TEXT = ' ';
     3600     6906    5                   CALL INSERT(MDS_TEXT, 17, PARAM_TBL.COUNT(PARAM_INDX), PARAM_TBL.
              6906                            TEXT(PARAM_INDX));
     3601     6907    5                   XST_CNT = PARAM_TBL.COUNT(PARAM_INDX) + 17;
     3602     6908    5                   CALL THF$ADD_TEXTC(XST$, MDS_TEXT, XST_CNT);
     3603     6909    5                   NXST = NXST + 1;
     3604     6910    5                 END;
     3605     6911    4           PARAM_INDX = PARAM_INDX + 1;
     3606     6912    4           END;  /* DO X */
     3607     6913    3         END;
     3608     6914    2         ELSE RETURN;
     3609     6915    2      IF OCTET_NUM = 2 THEN
     3610     6916    2         PARAMETER_ID = 0;           /* FINISHED DECODING PARAM_51 */
     3611     6917    2      RETURN;
     3612     6918    2   END DECODE_PARAM_51;
     3613     6919    1   END THF$RAW;
PL6.E3A0      #001=THF$RAW File=THF$FORMAT.:E05TSI                               WED 07/30/97 06:08 Page:114
     3614     6920        %EOD;

PL6.E3A0      #001=THF$RAW File=THF$FORMAT.:E05TSI                               WED 07/30/97 06:08 Page:115
--  Include file information  --

   XU_FORMAT_C.:E05TOU  is referenced.
   NI_DATA_C.:E05TOU  is referenced.
   TM_DATA_M.:E05TOU  is referenced.
   B_MICROPS_C.:E05TOU  is referenced.
   CP_6_SUBS.:E05TOU  is referenced.
   TH_XSTATUS_R.:E05TOU  cannot be made into a system file and is referenced.
   EL_SUBS_C.:E05TOU  is referenced.
   KI_SUBS_C.:E05TOU  is referenced.
   TH_DATA_C.:E05TOU  is referenced.
   B_STRINGS_C.:E05TOU  is referenced.
   TH_SUBS_C.:E05TOU  is referenced.
   TH_DATA_R.:E05TOU  cannot be made into a system file and is referenced.
   EL$TABLES.:E05TOU  is referenced.
   B$JIT.:E05TOU  cannot be made into a system file and is referenced.
   CP_6.:E05TOU  cannot be made into a system file and is referenced.
   B$JIT_C.:E05TOU  was found in the system file and is referenced.
   CP_6_C.:E05TOU  was found in the system file and is referenced.
      No diagnostics issued in procedure THF$RAW.

   Procedure THF$RAW requires 11633 words for executable code.
   Procedure THF$RAW requires 366 words of local(AUTO) storage.

PL6.E3A0      #001=THF$RAW File=THF$FORMAT.:E05TSI                               WED 07/30/97 06:08 Page:116

 Object Unit name= THF$RAW                                    File name= THF$FORMAT.:E05TOU
 UTS= JUL 30 '97 06:08:02.04 WED                              Compiler= PL-6/E31         Sev=      00
 SharedLib= :SHARED_SYSTEM                                    Alt SharedLib=


    ****  Control sections  ****

 Sect   Type Bound  Init  Size OctSiz  Section name(segment info)
    0   DCB   even  none     0      0  M$UC
    1  RoData even  UTS   1424   2620  THF$RAW
    2   Data  even  none  4009   7651  THF$RAW
    3   Proc  even  none 11633  26561  THF$RAW
    4  RoData even  none   304    460  THF$RAW

    ****  Entry defs  ****

                              Check   Calling
                             calling  sequence
  Sect OctLoc Primary Altret sequence   type   Parms  Name
     3      0   yes            yes      Std        1  THF$RAW

  ****  Data defs  ****

 Sect OctLoc  Name                           Sect OctLoc  Name
    2     41  PR71_BUF                           2   3332  OTHER_IOERR_TBL
    2   3356  XSTAT_TBL                          2   7416  NINE_TRACK_TBL
    2   7470  FEPERR_TBL                         2   7532  IOERR_TBL
    1    526  BIT_4K                             1    566  QUAD_4K
    1    626  BIT_64K                            1    666  CHIP_64K_CHAR
    1    672  CHIP_64K_LET                       1    677  BOARD_64K
PL6.E3A0      #001=THF$RAW File=THF$FORMAT.:E05TSI                               WED 07/30/97 06:08 Page:117

  ****  Entry refs  ****

         Check        Calling
        calling       sequence
Altret sequence SRef   type   Args  Name
         yes           Std       3 THF$DUMP
         yes           Std      11 THW$WRITE
 yes     yes           Std       5 THF$STATUS
         yes           Std       2 THF$HISTORY
         yes           Std       0 THF$CSHERR
         yes           Std       3 THF$ADD_TEXTC
         yes           Std       3 THF$HEXDUMP
         yes           Std       1 X$FORMAT
                       nStd      0 X66_AUTO_1
                       Std       0 B_CONSPOOL_D
                       nStd      0 X66_ARET

  ****  Data refs  ****

  Flags:  r = read only, s = secondary
Flgs Name                             Flgs Name                             Flgs Name
     M$UC                                  TH_CONSTRAINTS                        TH_SYS_DEVS
     TH_NUM_DEVS                           TH_RECORD                             TH_INFO
     TH_ITYPE                              TH_LASTTYPE                           TH_TIME
     TH_LAST_DEVTYPE                       TH_LAST_REQID                         TH_RECOV
     TH_XSA_BUF_VECTOR                     TH_DETAIL_FLG                         TH_RAW_FLG
     TH_IOERR_FLG                          TH_FEPERR_FLG                         TH_FIRST_TIME
     TH_EOF_FLG                       r    X_DEV_TYPE                       r    MDS_OP_CODE_TBL
r    MDS_PARAM_ID_TBL                 r    MDS_PARAM_X2                     r    MDS_PARAM_X4
r    MDS_PARAM_X5                     r    MDS_PARAM_X8                     r    MDS_PARAM_XA
r    MDS_PARAM_X7                     r    MDS_PARAM_X6                     r    MDS_DRIVE_ENDING_STATUS
r    MDS_PARAM_X9                     r    MDSI_FRUS                        r    MDSII_FRUS
r    MDSI_FCODE                       r    MDSII_FCODE                      r    MDSII_STATUS
r    MDS_CMD_IDENT                    r    MDS_ERROR_LOC                    r    MDS_TIMEOUT_ERRS
r    MDS_RW_ERRS                      r    MDS_MISC_ERRS                    r    MDS_INFO_ERRS
r    MDS_PARAM_51                     r    PR54_BELT_TBL                    r    PR71_BELT_TBL
r    CTRL_ERR_TBL                     r    LED_TBL                          r    REGISTER_TBL
PL6.E3A0      #001=THF$RAW File=THF$FORMAT.:E05TSI                               WED 07/30/97 06:08 Page:118
r    NON_REG_TBL                      r    FC                               r    FLTREG_TYPE
r    ILL_CODE                         r    SP_CASES                         r    DEVICE_CMND
r    TBL_EIGHTY_TWO                   r    TBL_SIX                          r    TBL_SIX_TEN
r    TBL_SIX_THIRTY                   r    FORMAT_TBLS                      r    FORM0_NOTB1_B3
r    FAULT_SYMP_TBL                        B$JIT$                                B_VECTNIL

  ****  Segment refs  ****

  Flags:  r = read only, s = secondary
Flgs Name                             Flgs Name                             Flgs Name
     NULLSID                               ISSID
PL6.E3A0      #001=THF$RAW File=THF$FORMAT.:E05TSI                               WED 07/30/97 06:08 Page:119


        1        1        /*T***********************************************************/
        2        2        /*T*                                                         */
        3        3        /*T* Copyright (c) Bull HN Information Systems Inc., 1997    */
        4        4        /*T*                                                         */
        5        5        /*T***********************************************************/
        6        6
        7        7        /*M* THF$FORMAT - ROUTINES TO BUILD INDIVIDUAL ELAN REPORTS */
        8        8        /**/
        9        9        THF$RAW: PROC(FMTTBL$);

      9  3 000000   000000 700200 xent  THF$RAW      TSX0  ! X66_AUTO_1
         3 000001   000556 000001                    ZERO    366,1

       10       10        /**/
       11       11        /* PARAMS */
       12       12    1   DCL FMTTBL$(0:0) PTR;
       13       13        /**/
       14       14        /* INCLUDE FILES */
       15       15        %INCLUDE CP_6;
       16       96        %INCLUDE B$JIT;
       17      386        %INCLUDE EL$TABLES;
       18      709        %INCLUDE TH_DATA_R;
       19      787        %INCLUDE TH_SUBS_C;
       20     1169        %INCLUDE TH_DATA_C;
       21     1185        %INCLUDE KI_SUBS_C;
       22     1321        %INCLUDE EL_SUBS_C;
       23     1405        %INCLUDE TH_XSTATUS_R;
       24     1708        %INCLUDE CP_6_SUBS;
       25     2248        %INCLUDE B_MICROPS_C;
       26     2420        %INCLUDE TM_DATA_M;
       27     2522        %INCLUDE NI_DATA_C;
       28     2635        %INCLUDE XU_FORMAT_C;
       29     2797        /**/
       30     2798        /* ENTRY DEFS */
       31     2799    1   DCL THW$WRITE ENTRY(11);
       32     2800    1   DCL THF$CSHERR ENTRY;
PL6.E3A0      #001=THF$RAW File=THF$FORMAT.:E05TSI                               WED 07/30/97 06:08 Page:120
       33     2801    1   DCL THF$DUMP ENTRY(3);
       34     2802    1   DCL THF$HEXDUMP ENTRY(3);
       35     2803    1   DCL THF$HISTORY ENTRY(2);
       36     2804    1   DCL THF$ADD_TEXTC ENTRY(3);
       37     2805    1   DCL THF$STATUS ENTRY(5) ALTRET;
       38     2806    1   DCL X$FORMAT ENTRY(1);
       39     2807        /**/
       40     2808        /* SYMREFS */
       41     2809    1   DCL B$JIT$ PTR SYMREF;
       42     2810        /**/
       43     2811        /* VARS */
       44     2812    1   DCL 1 INFO DALIGNED,
       45     2813    1         2 BOUND UBIN(20) UNAL,
       46     2814    1         2 * BIT(16) UNAL,
       47     2815    1         2 PTR$ PTR;
       48     2816    1   DCL CHP CHAR(3);
       49     2817    1   DCL BORD CHAR(1);
       50     2818        %EL$SCREECH_MASK (NAME=MASK);
       51     2821    1   DCL I SBIN;
       52     2822    1   DCL X SBIN;
       53     2823    1   DCL PRNTR_REG BIT(6);
       54     2824    1   DCL PR54_BYTE BIT(9);
       55     2825    1   DCL 1 PTR_BELT,
       56     2826    1       2 BYT1 UBIN(8) UNAL,
       57     2827    1       2 BYT2 UBIN(8) UNAL;
       58     2828    1   DCL 1 PR54_BELT REDEF PTR_BELT,
       59     2829    1       2 * BIT(1) UNAL,
       60     2830    1       2 CODE BIT(15) UNAL;
       61     2831    1   DCL 1 PR71_BELT REDEF PTR_BELT,
       62     2832    1       2 * BIT(1) UNAL,
       63     2833    1       2 CODE BIT(15) UNAL;
       64     2834    1   DCL 1 PR71_REG1 ALIGNED,
       65     2835    1       2 BYT1 UBIN(8) UNAL,
       66     2836    1       2 BYT2 UBIN(8) UNAL,
       67     2837    1       2 * UBIN(20) UNAL;
       68     2838    1   DCL JUNK SBIN;
       69     2839    1   DCL TEMP CHAR(63);
PL6.E3A0      #001=THF$RAW File=THF$FORMAT.:E05TSI                               WED 07/30/97 06:08 Page:121
       70     2840    1   DCL TEMP1 CHAR(63);
       71     2841    1   DCL TEMP2 CHAR(63);
       72     2842    1   DCL NUMSTATS UBIN;
       73     2843    1   DCL J UBIN;
       74     2844    1   DCL STRT UBIN;
       75     2845    1   DCL LEN SBIN;
       76     2846    1   DCL OUTBUF CHAR(132) STATIC;
       77     2847    1   DCL DYMFMT CHAR(0) CONSTANT INIT('%/DYNAMIC DATA : %10P');
       78     2848    1   DCL INFOFMT CHAR(0) CONSTANT INIT('%/INFO : %10P');
       79     2849    1   DCL PROCERR_SS CHAR(0) CONSTANT INIT('%/SAFE-STORE FRAME:  %10P');
       80     2850    1   DCL NUMBYTES UBIN WORD;
       81     2851    1   DCL NUMWORDS UBIN WORD;
       82     2852    1   DCL CHARNUM CHAR(3);
       83     2853    1   DCL TEXTBUF CHAR(256);
       84     2854    1   DCL TAPEFMT CHAR(0) CONSTANT INIT(
       85     2855    1   '%5A %2P%4A %3P%9NS%9NS%T%18-%T%25-%T%36-%T%46-%T%51-%T%61-%T%66-%T%/%10P');
       86     2856    1   DCL DISKFMT CHAR(0) CONSTANT INIT(
       87     2857    1  '%5A %2P%4A %3P%9NS%9NS%T%19-%T%26-%T%32-%T%39-%T%44-%T%50-%T%55-%T%61-%T%67-%T%/%10
              2857        P');
       88     2858    1   DCL PR71FMT1 CHAR(0) CONSTANT INIT('ECHO CHECK REG: %0P%4.16ZH%1Q');
       89     2859    1   DCL PR71FMT3 CHAR(0) CONSTANT INIT('SHORT CIRCUIT REG: %0P%4.16ZH%1Q');
       90     2860    1   DCL 1 PR71_BUF STATIC SYMDEF,
       91     2861    1       2 * CHAR(1) UNAL,
       92     2862    1       2 STRING CHAR(35) UNAL INIT(' ');
       93     2863    1   DCL 1 PR71_VECTOR_TBL BIT(72) STATIC DALIGNED INIT(VECTOR(NIL)*0);
       94     2864    1   DCL TEMP_STATUS BIT(72) STATIC ALIGNED;
       95     2865    1   DCL 1 TEMP_STATUS1 REDEF TEMP_STATUS,
       96     2866    1         2 MAJOR_STATUS BIT(6) UNAL,
       97     2867    1         2 XX BIT(6) UNAL,
       98     2868    1         2 * BIT(6) UNAL,
       99     2869    1         2 YY BIT(6) UNAL,
      100     2870    1         2 * BIT(24) UNAL,
      101     2871    1         2 CHANNEL BIT(6) UNAL,
      102     2872    1         2 * BIT(12) UNAL,
      103     2873    1         2 FAULT_CODE BIT(6) UNAL;
      104     2874    1   DCL 1 TVEC DALIGNED,
      105     2875    1           2 BOUND UBIN(20) UNAL,
PL6.E3A0      #001=THF$RAW File=THF$FORMAT.:E05TSI                               WED 07/30/97 06:08 Page:122
      106     2876    1           2 * BIT(16),
      107     2877    1           2 PTR$ PTR;
      108     2878    1   DCL 1 FEPERR_CODE STATIC UNAL,
      109     2879    1         2 FCG UBIN(18) UNAL,
      110     2880    1         2 MON BIT(1),
      111     2881    1         2 CODE UBIN(14) UNAL,
      112     2882    1         2 SEV UBIN(3) UNAL;
      113     2883    1   DCL TEXT$ PTR;
      114     2884    1   DCL 1 DFNAME BASED(TEXT$),
      115     2885    1           2 N UBIN BYTE UNAL,
      116     2886    1           2 DF CHAR(3),
      117     2887    1           2 MONID CHAR(4) UNAL,
      118     2888    1           2 SCOUNT CHAR(3);
      119     2889    1   DCL CTL$ PTR;
      120     2890    1   DCL STATS$ PTR;
      121     2891    1   DCL 1 TAPE_STATS BASED(STATS$) ALIGNED,   /* MPC AND TPUR TAPE STATISTICS */
      122     2892    1       2 RECORDS_READ UBIN,
      123     2893    1       2 RECORDS_WRITTEN UBIN,
      124     2894    1       2 WRITE_ERRS UBIN,
      125     2895    1       2 READ_ERRS UBIN,
      126     2896    1       2 TRANS_TIMING_ERRS UBIN,
      127     2897    1       2 MARGINAL_RECS UBIN,
      128     2898    1       2 PARITY_ERRS UBIN,
      129     2899    1       2 MTC_READ_COUNT UBIN;
      130     2900    1   DCL 1 DISK_STATS BASED(STATS$) ALIGNED,  /* MPC AND DAU DISK STATISTICS */
      131     2901    1       2 SEEKS UBIN,
      132     2902    1       2 SECTORS_WRITTEN UBIN,
      133     2903    1       2 SECTORS_READ UBIN,
      134     2904    1       2 DATA_TRANSFERS UBIN,
      135     2905    1       2 SEEK_INCOMPLETES UBIN,
      136     2906    1       2 HDR_VER_ERRS UBIN,
      137     2907    1       2 TRANS_TIMING_ERRS UBIN,
      138     2908    1       2 DATA_CHK_ALERTS UBIN,
      139     2909    1       2 CNT_CHK_ALERTS UBIN,
      140     2910    1       2 DLI_PARITY_ERRS UBIN,
      141     2911    1       2 ALT_TRKS_PROCESSED UBIN,
      142     2912    1       2 EDAC_CORR_ERRS UBIN,
PL6.E3A0      #001=THF$RAW File=THF$FORMAT.:E05TSI                               WED 07/30/97 06:08 Page:123
      143     2913    1       2 EDAC_UNCORR_ERRS UBIN,
      144     2914    1       2 LATENCY_RETRIES UBIN,
      145     2915    1       2 DATA_RETRIES UBIN,
      146     2916    1       2 SEARCH_ALERTS UBIN;
      147     2917    1   DCL 1 MDS_STATS BASED(STATS$) ALIGNED,  /* MDS DISK STATISTICS */
      148     2918    1       2 BYTES_READ UBIN,
      149     2919    1       2 BYTES_WRITTEN UBIN,
      150     2920    1       2 IPC_SEEK_CNT UBIN(18) UNAL,
      151     2921    1       2 SEEK_ERRS UBIN(18) UNAL,
      152     2922    1       2 DATA_CHKS_CORR UBIN(18) UNAL,
      153     2923    1       2 DATA_CHKS_UNCORR UBIN(18) UNAL,
      154     2924    1       2 CM_SEEK_CNT UBIN,
      155     2925    1       2 SEEK_READS UBIN,
      156     2926    1       2 SECTORS_READ UBIN,
      157     2927    1       2 SEEK_WRITES UBIN,
      158     2928    1       2 SECTORS_WRITTEN UBIN,
      159     2929    1       2 RETRIES UBIN,
      160     2930    1       2 LATENCIES_LOST UBIN;
      161     2931    1   DCL 1 EURC_STATS BASED(STATS$) ALIGNED,   /* EURC/IPC-UR STATISTICS */
      162     2932    1       2 RECEIVER_ERRS(0:3) UBIN(18) UNAL,
      163     2933    1       2 TRANSMITTER_ERRS(0:3) UBIN(18) UNAL,
      164     2934    1       2 CARDS_PUNCHED(0:3) UBIN(18) UNAL,
      165     2935    1       2 CARDS_READ(0:3) UBIN(18) UNAL,
      166     2936    1       2 FRAMES_RECEIVED(0:3) UBIN(18) UNAL,
      167     2937    1       2 FRAMES_TRANSMITTED(0:3) UBIN(18) UNAL,
      168     2938    1       2 CONNECT_PCWS(0:3) UBIN(18) UNAL,
      169     2939    1       2 PCWS_ON_IMU_INTERFACE(0:3) UBIN(18) UNAL,
      170     2940    1       2 TOTAL_TRANSACTIONS(0:3) UBIN,
      171     2941    1       2 WORD_TRANSFERS(0:3) UBIN,
      172     2942    1       2 LINES_PRINTED(0:3) UBIN(18) UNAL,
      173     2943    1       2 RETRANSMISSIONS(0:3) UBIN(18) UNAL,
      174     2944    1       2 PAGES_PRINTED(0:3) UBIN(18) UNAL,
      175     2945    1       2 UPTIME UBIN,
      176     2946    1       2 LOST_INTS UBIN(18) UNAL,
      177     2947    1       2 UNSOLICITED_FRAMES UBIN(18) UNAL,
      178     2948    1       2 PROMS(0:7) UBIN(9) UNAL;
      179     2949    1   DCL TYPE UBIN;
PL6.E3A0      #001=THF$RAW File=THF$FORMAT.:E05TSI                               WED 07/30/97 06:08 Page:124
      180     2950    1   DCL LOC_UTS UBIN STATIC;
      181     2951    1   DCL DBUF CHAR(8) STATIC;
      182     2952    1   DCL TBUF CHAR(11) STATIC;
      183     2953    1   DCL DUMP_HDR CHAR(0) CONSTANT INIT('%2/ TYPE = %D  TIME = %A - %A %10P');
      184     2954    1   DCL DEV_FLAG BIT(1);
      185     2955    1   DCL DEV$ PTR;
      186     2956    1   DCL 1 DEVTBL(0:207) BASED(DEV$) ALIGNED,
      187     2957    1         2 CODE UBIN BYTE UNAL,
      188     2958    1         2 COUNT UBIN BYTE UNAL,
      189     2959    1         2 TEXT CHAR(35) UNAL;
      190     2960    1   DCL OCTET$ PTR;
      191     2961    1   DCL 1 PARAM_TBL(0:7) BASED(OCTET$) ALIGNED,
      192     2962    1       2 COUNT UBIN BYTE UNAL,
      193     2963    1       2 TEXT CHAR(44) UNAL;
      194     2964    1   DCL MDS_TBL$ PTR;
      195     2965    1   DCL 1 MDS_TBL(0:25) BASED(MDS_TBL$) ALIGNED,
      196     2966    1       2 CODE UBIN BYTE UNAL,
      197     2967    1       2 COUNT UBIN BYTE UNAL,
      198     2968    1       2 TEXT CHAR(44) UNAL;
      199     2969    1   DCL MODEL_CHAR CHAR(3);
      200     2970    1   DCL IO_MASK(0:35) UBIN(8) UNAL;
      201     2971    1   DCL IO_MASK1(0:287) REDEF IO_MASK BIT(1);
      202     2972    1   DCL NEW_IO_MASK(0:35) UBIN(8) UNAL;
      203     2973    1   DCL IO_MASK2(0:287) REDEF NEW_IO_MASK BIT(1);
      204     2974    1   DCL 1 OCTET_BYTE(0:25) UBIN(8) UNAL;
      205     2975    1   DCL 1 OCTET_NIBBLE(0:51) REDEF OCTET_BYTE UBIN(4) UNAL;
      206     2976    1   DCL 1 XSTATUS_BYTE(0:10) UBIN(8) UNAL;
      207     2977    1   DCL 1 XSTATUS_NIBBLE(0:21) REDEF XSTATUS_BYTE UBIN(4) UNAL;
      208     2978    1   DCL 1 HEX_NUM UBIN(8) UNAL;
      209     2979    1   DCL 1 HEX_NIBBLE(0:1) REDEF HEX_NUM UBIN(4) UNAL;
      210     2980    1   DCL 1 PARAM_INDX SBIN;
      211     2981    1   DCL 1 PARAMETER_ID UBIN(8) UNAL;
      212     2982    1   DCL 1 PARAM_ID REDEF PARAMETER_ID,
      213     2983    1       2 BYT1 UBIN(4) UNAL,
      214     2984    1       2 BYT2 UBIN(4) UNAL;
      215     2985    1   DCL 1 PARAMETER_LENGTH UBIN(8);
      216     2986    1   DCL 1 MDS_STATUS_REG1 UBIN(8) UNAL;
PL6.E3A0      #001=THF$RAW File=THF$FORMAT.:E05TSI                               WED 07/30/97 06:08 Page:125
      217     2987    1   DCL 1 MDS_DRIVE_STATUS REDEF MDS_STATUS_REG1,
      218     2988    1       2 DRIVE_END_STATUS UBIN(4) UNAL,
      219     2989    1       2 OP_END_STATUS UBIN(4) UNAL;
      220     2990    1   DCL 1 MDS_STATUS_REG2(0:1) UBIN(8) UNAL;
      221     2991    1   DCL 1 MDS_CMD_ENDING_STAT REDEF MDS_STATUS_REG2,
      222     2992    1       2 CMD_IDENT UBIN(8) UNAL,
      223     2993    1       2 ERROR_LOC UBIN(2) UNAL,
      224     2994    1       2 ERROR_CAT UBIN(2) UNAL,
      225     2995    1       2 ERROR_CODE UBIN(3) UNAL,
      226     2996    1       2 * UBIN(1) UNAL;
      227     2997    1   DCL 1 F_INDX UBIN(8) UNAL;
      228     2998    1   DCL 1 FRU_INDX(0:1) REDEF F_INDX UBIN(4) UNAL;
      229     2999    1   DCL 1 MAX_ENTRY UBIN;
      230     3000    1   DCL 1 OCTET_NUM SBIN;
      231     3001    1   DCL 1 BINHEX(0:15) CHAR(1) CONSTANT UNAL INIT('0','1','2','3','4','5','6',
      232     3002    1                      '7','8','9','A','B','C','D','E','F');
      233     3003    1   DCL 1 ASCII_EXTST(0:31),         /* ASCII FORMAT FOR EXTENDED STATUS */
      234     3004    1       2 * BIT(1) UNAL,
      235     3005    1       2 BYT UBIN(8) UNAL;
      236     3006    1   DCL 1 FRU_STRING STATIC,
      237     3007    1       2 * CHAR(4) UNAL INIT('  = '),
      238     3008    1       2 OCTET(0:3),
      239     3009    1         3 NIB1 CHAR(1) UNAL,
      240     3010    1         3 NIB2 CHAR(1) UNAL,
      241     3011    1         3 * CHAR(1) INIT(' '*0) UNAL;
      242     3012    1   DCL 1 FRU_STR REDEF FRU_STRING CHAR(16);
      243     3013    1   DCL 1 MDS_REG1 UBIN;
      244     3014    1   DCL 1 MDS_REG2 REDEF MDS_REG1,
      245     3015    1       2 * UBIN(20) UNAL,
      246     3016    1       2 OCTET(0:1) UBIN(8) UNAL;
      247     3017    1   DCL 1 MDS_CYL CHAR(4) UNAL;
      248     3018    1   DCL 1 MDS_SECTOR CHAR(2) UNAL;
      249     3019    1   DCL 1 MDS_HEAD CHAR(2) UNAL;
      250     3020    1   DCL FIPS_TAPE BIT(1);
      251     3021    1   DCL XST$ PTR;
      252     3022    1   DCL 1 XST_TEMP BASED(XST$),
      253     3023    1         2 N UBIN WORD;
PL6.E3A0      #001=THF$RAW File=THF$FORMAT.:E05TSI                               WED 07/30/97 06:08 Page:126
      254     3024    1   DCL XSTBUF CHAR(6000) STATIC INIT(' ');
      255     3025    1   DCL 1 XSTVEC DALIGNED,
      256     3026    1         2 BOUND UBIN(20) UNAL,
      257     3027    1         2 * BIT(16) UNAL,
      258     3028    1         2 PTR$ PTR;
      259     3029    1   DCL XST_TEXT CHAR(35);
      260     3030    1   DCL MDS_TEXT CHAR(80);
      261     3031    1   DCL 1 MDS_TEXT_POSITION SBIN;
      262     3032    1   DCL XST_CNT SBIN;
      263     3033    1   DCL NXST UBIN;
      264     3034    1   DCL N UBIN;
      265     3035    1   DCL MDSFMT CHAR(0) CONSTANT INIT('%N(%/%2-%T%) %10P');
      266     3036    1   DCL EVENFMT CHAR(0) CONSTANT INIT('%N(%/%2-%T%37-%T%) %10P');
      267     3037    1   DCL ODDFMT CHAR(0) CONSTANT INIT('%N(%/%2-%T%37-%T%) %/%2-%T %10P');
      268     3038    1   DCL ODDFLAG BIT(1);
      269     3039    1   DCL MAJBUF CHAR(32);
      270     3040    1   DCL MINBUF CHAR(32);
      271     3041    1   DCL MAJCNT SBIN WORD;
      272     3042    1   DCL MINCNT SBIN WORD;
      273     3043    1   DCL MMBUF CHAR(256) STATIC INIT(' ');
      274     3044    1   DCL MM$ PTR;
      275     3045    1   DCL 1 TXT_TEMP BASED(MM$),
      276     3046    1         2 N UBIN WORD;
      277     3047    1   DCL 1 MMVEC DALIGNED,
      278     3048    1         2 BOUND UBIN(20) UNAL,
      279     3049    1         2 * BIT(16) UNAL,
      280     3050    1         2 PTR$ PTR;
      281     3051    1   DCL SECTOR SBIN;
      282     3052    1   DCL CYL SBIN;
      283     3053    1   DCL HD SBIN;
      284     3054    1   DCL SE SBIN;
      285     3055    1   DCL IOMN CHAR(1);
      286     3056    1   DCL CPUN CHAR(1);     /* CPU NUMBER */
      287     3057    1   DCL SCUN CHAR(1);     /* SCU NUMBER */
      288     3058    1   DCL IOM_DEVN CHAR(8);
      289     3059    1   DCL CPU_DEVN CHAR(8);
      290     3060    1   DCL SCU_DEVN CHAR(8);
PL6.E3A0      #001=THF$RAW File=THF$FORMAT.:E05TSI                               WED 07/30/97 06:08 Page:127
      291     3061    1   DCL SECBUF CHAR(20) STATIC INIT(' ');
      292     3062    1   DCL SEC$ PTR;
      293     3063    1   DCL CCYL CHAR(4);
      294     3064    1   DCL TEMPBUF(0:5) UBIN;
      295     3065    1   DCL CHD CHAR(3);
      296     3066    1   DCL CSE CHAR(3);
      297     3067    1   DCL HDCH CHAR(2);
      298     3068    1   DCL SECH CHAR(2);
      299     3069    1   DCL 1 MT_POSITION STATIC CALIGNED,
      300     3070    1       2 FILE CHAR(4) UNAL,
      301     3071    1       2 * CHAR(1) INIT('-') UNAL,
      302     3072    1       2 RECCNT CHAR(6) UNAL;
      303     3073    1   DCL 1 DP_POSITION STATIC CALIGNED,
      304     3074    1       2 CYL CHAR(4) UNAL,
      305     3075    1       2 * CHAR(1) INIT('-') UNAL,
      306     3076    1       2 HD CHAR(2) UNAL,
      307     3077    1       2 * CHAR(1) INIT('-') UNAL,
      308     3078    1       2 SEC CHAR(2) UNAL;
      309     3079    1   DCL SEEK_ADDR CHAR(8) CALIGNED;
      310     3080    1   DCL 1 SECVEC DALIGNED,
      311     3081    1         2 BOUND UBIN(20) UNAL,
      312     3082    1         2 * BIT(16) UNAL,
      313     3083    1         2 PTR$ PTR;
      314     3084    1   DCL FC$ PTR;
      315     3085    1   DCL FCBUF CHAR(300) STATIC INIT(' ');
      316     3086    1   DCL 1 FCVEC DALIGNED,
      317     3087    1         2 BOUND UBIN(20) UNAL,
      318     3088    1         2 * BIT(16) UNAL,
      319     3089    1         2 PTR$ PTR;
      320     3090    1   DCL FC_TEXT CHAR(37);
      321     3091    1   DCL FC_CNT SBIN;
      322     3092    1   DCL FCPTR$ PTR;
      323     3093    1   DCL 1 FCTBL(0:71) BASED (FCPTR$) ALIGNED,
      324     3094    1         2 CODE UBIN BYTE UNAL,
      325     3095    1         2 COUNT UBIN BYTE UNAL,
      326     3096    1         2 TEXT CHAR(37) UNAL;
      327     3097    1   DCL FLT_REG BIT(72);
PL6.E3A0      #001=THF$RAW File=THF$FORMAT.:E05TSI                               WED 07/30/97 06:08 Page:128
      328     3098    1   DCL FLT_REG_T(0:71) REDEF FLT_REG BIT(1);
      329     3099    1   DCL FLT_REG_TT(0:17) REDEF FLT_REG BIT(4);
      330     3100    1   DCL FCFMT CHAR(0) CONSTANT INIT('%/FAULT CODE:  %T%10P');
      331     3101    1   DCL FRFMT CHAR(0) CONSTANT INIT(
      332     3102    1       '%/FAULT REGISTER INTERPRETATION: %N(%/%5-%T%) %10P');
      333     3103    1   DCL 1 FC_TEMP BASED (FC$),
      334     3104    1         2 N UBIN WORD;
      335     3105    1   DCL II UBIN;
      336     3106    1   DCL JJ UBIN;
      337     3107    1   DCL FCFLAG UBIN;
      338     3108    1   DCL BIT_CNT UBIN;
      339     3109    1   DCL FEP_COUNT UBIN;
      340     3110    1   DCL 1 SPTBL(0:6) BASED(SPC$) ALIGNED,
      341     3111    1         2 CODE CHAR(5) UNAL,
      342     3112    1         2 COUNT UBIN BYTE UNAL,
      343     3113    1         2 TEXT CHAR(35) UNAL;
      344     3114    1   DCL SP_BIT(0:4) CHAR(1) STATIC INIT(' '*0);
      345     3115    1   DCL SPBIT$ PTR STATIC INIT(ADDR(SP_BIT));
      346     3116    1   DCL SP_CHAR CHAR(LENN) BASED(SPBIT$);
      347     3117    1   DCL LENN UBIN;
      348     3118    1   DCL SPC$ PTR;
      349     3119    1   DCL DP_BIT(0:3) BIT(1);
      350     3120    1   DCL DP_FORMAT REDEF DP_BIT UBIN(4) UNAL;
      351     3121    1   DCL DP_FORM_MSG REDEF DP_BIT UBIN(4) UNAL;
      352     3122    1   DCL FT_BIT(0:7) BIT(1);
      353     3123    1   DCL FT_CODE REDEF FT_BIT UBIN(8) UNAL;
      354     3124    1   DCL 1 DP_FORM_TBL(0:15) BASED(DPC$) ALIGNED,
      355     3125    1         2 CODE UBIN(4) UNAL,
      356     3126    1         2 COUNT UBIN BYTE UNAL,
      357     3127    1         2 TEXT CHAR(30) UNAL;
      358     3128    1   DCL DPC$ PTR;
      359     3129    1   DCL ERR_MSG STATIC CHAR(120) INIT(' ');
      360     3130    1   DCL ERR_MSG_T CHAR(43);
      361     3131    1   DCL COMPONENT_HDR CHAR(0) CONSTANT INIT(
      362     3132        '%/COMPONENT - %1.20P%4A      ICCCDD - %1.5.0.6P%1.3D%3.9ZD%1.5P%2.6ZD%/
      363     3133                  COUNT  ERROR TYPE%/
      364     3134    1             -----  ----------%10P');
PL6.E3A0      #001=THF$RAW File=THF$FORMAT.:E05TSI                               WED 07/30/97 06:08 Page:129
      365     3135    1   DCL COMPONENT_FMT BIT(72) DALIGNED STATIC INIT(VECTOR(COMPONENT_HDR));
      366     3136    1   DCL STATUS_DATA CHAR(0) CONSTANT INIT(
      367     3137    1   '       %1P%3D    %2P%35A%10P');
      368     3138    1   DCL STATUS_FMT BIT(72) DALIGNED STATIC INIT(VECTOR(STATUS_DATA));
      369     3139    1   DCL NO_XSTAT_HDR CHAR(0) CONSTANT INIT(
      370     3140        '%/%2P %8-%3D %3P %13-%T,%28-%T %1.1P %48-%2.6ZO/%51-%2.6ZO %/
      371     3141    1                         Device Id-%1.24P%8A Tracks-%2.19P%1A Operation-%2.1P%8A %10P'
              3141        '%/%2P %8-%3D %3P %13-%T,%28-%T %1.1P %48-%2.6ZO/%51-%2.6ZO %/           Device Id-
              3141        %1.24P%8A Tracks-%2.19P%1A Operation-%2.1P%8A %10P');
      372     3142    1   DCL NO_XSTAT_FMT BIT(72) DALIGNED STATIC INIT(VECTOR(NO_XSTAT_HDR));
      373     3143    1   DCL NON_TAPE_HDR CHAR(0) CONSTANT INIT(
      374     3144    1   '%/%2P %8-%3D %3P %13-%T,%28-%T %1.1P %48-%2.6ZO/%51-%2.6ZO %10P');
      375     3145    1   DCL NON_TAPE_FMT BIT(72) DALIGNED STATIC INIT(VECTOR(NON_TAPE_HDR));
      376     3146    1   DCL NINE_TRK_HDR CHAR(0) CONSTANT INIT(
      377     3147        '            Data/Trk in Err 0/7  1/6  2/5  3/3  4/9  5/1  6/8  7/2  P/4 %/
      378     3148    1                     err counts =   %1P%3A  %3A  %3A  %3A  %3A  %3A  %3A  %3A %3A%10P'
              3148        '            Data/Trk in Err 0/7  1/6  2/5  3/3  4/9  5/1  6/8  7/2  P/4 %/
              3148            err counts =   %1P%3A  %3A  %3A  %3A  %3A  %3A  %3A  %3A  %3A%10P');
      379     3149    1   DCL NINE_TRK_FMT BIT(72) DALIGNED STATIC INIT(VECTOR(NINE_TRK_HDR));
      380     3150    1   DCL SEVEN_TRK_HDR CHAR(0) CONSTANT INIT(
      381     3151        '            Data/Trk in Err           2/6  3/5  4/4  5/3  6/2  7/1  P/7 %/
      382     3152    1                     err counts =             %1P%3A  %3A  %3A  %3A  %3A  %3A %3A%10P'
              3152        '            Data/Trk in Err           2/6  3/5  4/4  5/3  6/2  7/1  P/7 %/
              3152            err counts =             %1P%3A  %3A  %3A  %3A  %3A  %3A  %3A%10P');
      383     3153    1   DCL SEVEN_TRK_FMT BIT(72) DALIGNED STATIC INIT(VECTOR(SEVEN_TRK_HDR));
      384     3154    1   DCL EXTENDED_HDR CHAR(0) CONSTANT INIT(
      385     3155    1   '            EXTENDED STATUS:%10P');
      386     3156    1   DCL EXTENDED_FMT BIT(72) DALIGNED STATIC INIT(VECTOR(EXTENDED_HDR));
      387     3157    1   DCL NEW_OP BIT(36);
      388     3158    1   DCL NEW_OP_RDF(0:5) REDEF NEW_OP BIT(6);
      389     3159    1   DCL OPERATION CHAR(8);
      390     3160    1   DCL 1 OTHER_IOERR_TBL STATIC SYMDEF ALIGNED,
      391     3161    1         2 COUNT UBIN WORD,
      392     3162    1         2 OPERATION CHAR(8),
      393     3163    1         2 SPEED CHAR(32),
      394     3164    1         2 DENSITY CHAR(32),
      395     3165    1         2 TRACK CHAR(1);
PL6.E3A0      #001=THF$RAW File=THF$FORMAT.:E05TSI                               WED 07/30/97 06:08 Page:130
      396     3166    1   DCL 1 XSTAT_TBL(0:207) STATIC SYMDEF ALIGNED,
      397     3167    1         2 COUNT UBIN WORD,
      398     3168    1         2 TEXT CHAR(35);
      399     3169    1   DCL ALL_MATCH BIT(1);
      400     3170    1   DCL DEV_OP$ PTR;
      401     3171    1   DCL 1 DEV_OP_TBL(0:30) BASED(DEV_OP$) ALIGNED,
      402     3172    1         2 CODE BIT(6) UNAL,
      403     3173    1         2 COUNT UBIN BYTE UNAL,
      404     3174    1         2 TEXT CHAR(8) UNAL;
      405     3175    1   DCL OLD_DENSE UBIN(8) UNAL;
      406     3176    1   DCL 1 OLD_DENSE_RDF REDEF OLD_DENSE,
      407     3177    1       2 DENSITY UBIN(3) UNAL,
      408     3178    1       2 * UBIN(5) UNAL;
      409     3179    1   DCL NEW_DENSE UBIN(8) UNAL;
      410     3180    1   DCL 1 NEW_DENSE_RDF REDEF NEW_DENSE,
      411     3181    1       2 DENSITY UBIN(3) UNAL,
      412     3182    1       2 * UBIN(5) UNAL;
      413     3183    1   DCL NUM_XSTATUS UBIN WORD ALIGNED;
      414     3184    1   DCL TRACK_NINE BIT(1);
      415     3185    1   DCL TRACK_SEVEN BIT(1);
      416     3186    1   DCL FOUND_ST BIT(1);
      417     3187    1   DCL 1 NINE_TRACK_TBL STATIC SYMDEF CALIGNED,
      418     3188    1         2 SEVEN UBIN BYTE CALIGNED,
      419     3189    1         2 SIX UBIN BYTE CALIGNED,
      420     3190    1         2 FIVE UBIN BYTE CALIGNED,
      421     3191    1         2 THREE UBIN BYTE CALIGNED,
      422     3192    1         2 NINE UBIN BYTE CALIGNED,
      423     3193    1         2 ONE UBIN BYTE CALIGNED,
      424     3194    1         2 EIGHT UBIN BYTE CALIGNED,
      425     3195    1         2 TWO UBIN BYTE CALIGNED,
      426     3196    1         2 FOUR UBIN BYTE CALIGNED;
      427     3197    1   DCL 1 NINE_TRACK_RDF(0:8) REDEF NINE_TRACK_TBL UBIN BYTE CALIGNED;
      428     3198    1   DCL NINE_TRACK_BLNK(0:8) CHAR(3);
      429     3199    1   DCL NINE_TRACK_STRING REDEF NINE_TRACK_BLNK CHAR(27);
      430     3200    1   DCL NO_LEADING_ZEROS(0:2) BIT(9) CONSTANT UNAL INIT(%MVZB2,%SES10,%MVC1);
      431     3201    1   DCL FEP_HDR CHAR(0) CONSTANT INIT(
      432     3202        '%/FEP# - %3.16D  CHAN - %1.5.2.1P%2.8ZH%1.5.3.1P%2.8ZH%/
PL6.E3A0      #001=THF$RAW File=THF$FORMAT.:E05TSI                               WED 07/30/97 06:08 Page:131
      433     3203        COUNT       ERROR CODE    ERROR MESSAGE%/
      434     3204    1   %5(-%)       %12(-%)  %44(-%)%10P');
      435     3205    1   DCL FEP_FMT BIT(72) DALIGNED STATIC INIT(VECTOR(FEP_HDR));
      436     3206        %FPT_ERRMSG (FPTN = ERR_MSGS,
      437     3207                     BUF = ERR_MSG,
      438     3208                     CODE = FEPERR_CODE,
      439     3209                     INCLCODE=NO,
      440     3210                     FILEACCT = ERR_MSG_ACCT,
      441     3211                     RESULTS = TEMP_VLR,
      442     3212                     FILENAME = ERR_MSG_NAME);
      443     3239        %FPT_TIME (FPTN=LOC_DATE,
      444     3240                   STCLASS=CONSTANT,
      445     3241                   SOURCE=UTS,
      446     3242                   TSTAMP=LOC_UTS,
      447     3243                   DATE=DBUF,
      448     3244                   TIME=TBUF,
      449     3245                   DEST=LOCAL);
      450     3264        %VLP_ACCT (FPTN = ERR_MSG_ACCT,
      451     3265                   ACCT = ':SYS');
      452     3278        %VLP_NAME (FPTN = ERR_MSG_NAME,
      453     3279                   NAME = ':GGERRMSG');
      454     3306        %VLR_ERRMSG (FPTN = TEMP_VLR);
      455     3328        /**/
      456     3329        /* MACRO INVOCATIONS */
      457     3330        %CTL (STCLASS="BASED(CTL$)");
      458     3340        %EL$ENTRY (NAME=RECORD,STCLASS="BASED(TH_RECORD.PTR$)");
      459     3344        %EL$IOERR (STCLASS="BASED(INFO.PTR$)");
      460     3354        %EL$SCREECH (STCLASS="BASED(INFO.PTR$)");
      461     3360        %EL$FILERR (STCLASS="BASED(INFO.PTR$)");
      462     3367        %EL$FWLOAD (STCLASS="BASED(INFO.PTR$)");
      463     3370        %EL$OSFI (STCLASS="BASED(INFO.PTR$)");
      464     3377        %EL$SPURINT (STCLASS="BASED(INFO.PTR$)");
      465     3381        %EL$MTDMT (STCLASS="BASED(INFO.PTR$)");
      466     3384        %EL$FECRASH (STCLASS="BASED(INFO.PTR$)");
      467     3389        %EL$FEPFLT (STCLASS="BASED(INFO.PTR$)");
      468     3392        %EL$OPER (STCLASS="BASED(INFO.PTR$)");
      469     3395        %EL$CMPSTRT (STCLASS="BASED(INFO.PTR$)");
PL6.E3A0      #001=THF$RAW File=THF$FORMAT.:E05TSI                               WED 07/30/97 06:08 Page:132
      470     3398        %EL$PROCERR (STCLASS="BASED(INFO.PTR$)");
      471     3408        %EL$EDAC (STCLASS="BASED(INFO.PTR$)");
      472     3417        %EL$GABRT (STCLASS="BASED(INFO.PTR$)");
      473     3422        %EL$SYSCON (STCLASS="BASED(INFO.PTR$)");
      474     3426        %EL$ANLZ (STCLASS="BASED(INFO.PTR$)");
      475     3430        %EL$MPCSTATS (STCLASS="BASED(INFO.PTR$)");
      476     3433        %EL$DEVSTATS (STCLASS="BASED(INFO.PTR$)");
      477     3436        %EL$FEPERR (STCLASS="BASED(INFO.PTR$)");
      478     3515        %EL$ZAP (STCLASS="BASED(INFO.PTR$)");
      479     3518        %EL$CGERR (STCLASS="BASED(INFO.PTR$)");
      480     3522        %EL$DIAG (STCLASS="BASED(INFO.PTR$)");
      481     3525        %VLR_SITEINFO (FPTN=EL$SYSID,STCLASS="BASED(INFO.PTR$)");
      482     3544        %EL$FEPERR (NAME=FEPERR_TBL,STCLASS="STATIC SYMDEF");
      483     3623        %EL$IOERR (NAME=IOERR_TBL,STCLASS="STATIC SYMDEF");
      484     3633        %EL$CHANTRAN (STCLASS="BASED(INFO.PTR$)");
      485     3637        %EL$MSOSSAYS (STCLASS="BASED(INFO.PTR$)");
      486     3643        %EL$CP6SAYS (STCLASS="BASED(INFO.PTR$)");
      487     3649        %EL$CHNGAARD (STCLASS="BASED(INFO.PTR$)");
      488     3653        %EL$MIRROR (STCLASS="BASED(INFO.PTR$)");
      489     3657        %F_FDS(NAME=FDS_PR71,NVECS=1,TRUNC=YES,VECTR=PR71_VECTOR_TBL,
      490     3658               BUF=PR71_BUF);
      491     3771        /**/
      492     3772        %SUB NUMMODELS = 29;    /* THE MAX IS 29, THERE ARE 9 EXTRA SLOTS NOW! */
      493     3773        /**/
      494     3774        %EJECT;
PL6.E3A0      #001=THF$RAW File=THF$FORMAT.:E05TSI                               WED 07/30/97 06:08 Page:133
      495     3775    1        IF TH_RECOV AND (TH_ITYPE = %TH_SUA OR TH_ITYPE = %TH_SNAP)

   3775  3 000002   000000 234000 xsym               SZN     TH_RECOV
         3 000003   000013 605000 3                  TPL     s:3777
         3 000004   000000 235000 xsym               LDA     TH_ITYPE
         3 000005   000035 115007                    CMPA    29,DL
         3 000006   000011 600000 3                  TZE     s:3776
         3 000007   000036 115007                    CMPA    30,DL
         3 000010   000013 601000 3                  TNZ     s:3777

      496     3776    1           THEN TH_ITYPE = %TH_SCREECH;

   3776  3 000011   000030 236007                    LDQ     24,DL
         3 000012   000000 756000 xsym               STQ     TH_ITYPE

      497     3777    1        CTL$ = FMTTBL$(TH_ITYPE);

   3777  3 000013   200003 470500                    LDP0    @FMTTBL$,,AUTO
         3 000014   000000 720000 xsym               LXL0    TH_ITYPE
         3 000015   000000 236110                    LDQ     0,X0,PR0
         3 000016   200211 756100                    STQ     CTL$,,AUTO

      498     3778    1        IF CTL$ = ADDR(NIL) OR TH_ITYPE > %TH_LASTITYPE

   3778  3 000017   000001 116000 xsym               CMPQ    B_VECTNIL+1
         3 000020   000024 600000 3                  TZE     s:3780
         3 000021   000000 235000 xsym               LDA     TH_ITYPE
         3 000022   000046 115007                    CMPA    38,DL
         3 000023   000066 602000 3                  TNC     s:3791

      499     3779    2           THEN DO;                        /* DUMP RECORD IN OCTAL               */

      500     3780    2              LOC_UTS = RECORD.UTS;

   3780  3 000024   000001 471400 xsym               LDP1    TH_RECORD+1
         3 000025   100000 235100                    LDA     0,,PR1
         3 000026   100001 236100                    LDQ     1,,PR1
PL6.E3A0      #001=THF$RAW File=THF$FORMAT.:E05TSI                               WED 07/30/97 06:08 Page:134
         3 000027   000011 773000                    LRL     9
         3 000030   000057 756000 2                  STQ     LOC_UTS

      501     3781    2              CALL M$TIME(LOC_DATE);

   3781  3 000031   000512 630400 1                  EPPR0   LOC_DATE
         3 000032   020004 713400                    CLIMB   8196
         3 000033   402000 401760                    pmme    nvectors=5

      502     3782    2              TYPE = RECORD.TYPE;

   3782  3 000034   000001 470400 xsym               LDP0    TH_RECORD+1
         3 000035   000000 236100                    LDQ     0,,PR0
         3 000036   000033 772000                    QRL     27
         3 000037   200213 756100                    STQ     TYPE,,AUTO

      503     3783    2              CALL THW$WRITE(VECTOR(DUMP_HDR),

   3783  3 000040   777640 235007                    LDA     -96,DL
         3 000041   200534 452500                    STP2    CHIP#+2,,AUTO
         3 000042   200534 236100                    LDQ     CHIP#+2,,AUTO
         3 000043   000213 036003                    ADLQ    139,DU
         3 000044   200536 757100                    STAQ    CHIP#+4,,AUTO
         3 000045   000006 237000 4                  LDAQ    6
         3 000046   200542 757100                    STAQ    CHIP#+8,,AUTO
         3 000047   200536 631500                    EPPR1   CHIP#+4,,AUTO
         3 000050   200541 451500                    STP1    CHIP#+7,,AUTO
         3 000051   000010 236000 4                  LDQ     8
         3 000052   200540 756100                    STQ     CHIP#+6,,AUTO
         3 000053   200540 630500                    EPPR0   CHIP#+6,,AUTO
         3 000054   000022 631400 xsym               EPPR1   B_VECTNIL+18
         3 000055   000000 701000 xent               TSX1    THW$WRITE
         3 000056   000000 011000                    NOP     0

      504     3784    2                             VECTOR(TYPE),
      505     3785    2                             VECTOR(DBUF),
      506     3786    2                             VECTOR(TBUF));
PL6.E3A0      #001=THF$RAW File=THF$FORMAT.:E05TSI                               WED 07/30/97 06:08 Page:135
      507     3787    2              CALL THF$DUMP(TH_RECORD.PTR$);

   3787  3 000057   000011 630400 4                  EPPR0   9
         3 000060   000017 631400 xsym               EPPR1   B_VECTNIL+15
         3 000061   000000 701000 xent               TSX1    THF$DUMP
         3 000062   000000 011000                    NOP     0

      508     3788    2              TH_LASTTYPE = -1;

   3788  3 000063   000001 335007                    LCA     1,DL
         3 000064   000000 755000 xsym               STA     TH_LASTTYPE

      509     3789    2              RETURN;

   3789  3 000065   000000 702200 xent               TSX2  ! X66_ARET

      510     3790    2              END;
      511     3791    1        IF TH_DETAIL_FLG AND TH_IOERR_FLG

   3791  3 000066   000000 234000 xsym               SZN     TH_DETAIL_FLG
         3 000067   000075 605000 3                  TPL     s:3793
         3 000070   000000 234000 xsym               SZN     TH_IOERR_FLG
         3 000071   000075 605000 3                  TPL     s:3793

      512     3792    1        THEN CALL THF$IOERR;

   3792  3 000072   011221 701000 3                  TSX1    THF$IOERR
         3 000073   000000 011000                    NOP     0
         3 000074   010513 710000 3                  TRA     s:4833

      513     3793    1        ELSE IF TH_FEPERR_FLG AND TH_DETAIL_FLG

   3793  3 000075   000000 234000 xsym               SZN     TH_FEPERR_FLG
         3 000076   000104 605000 3                  TPL     s:3796
         3 000077   000000 234000 xsym               SZN     TH_DETAIL_FLG
         3 000100   000104 605000 3                  TPL     s:3796

PL6.E3A0      #001=THF$RAW File=THF$FORMAT.:E05TSI                               WED 07/30/97 06:08 Page:136
      514     3794    1        THEN CALL THF$FEPERR;

   3794  3 000101   015067 701000 3                  TSX1    THF$FEPERR
         3 000102   000000 011000                    NOP     0
         3 000103   010513 710000 3                  TRA     s:4833

      515     3795    2        ELSE DO;

      516     3796    2        INFO = TH_INFO;

   3796  3 000104   000000 237000 xsym               LDAQ    TH_INFO
         3 000105   200004 757100                    STAQ    INFO,,AUTO

      517     3797    2        TEXTBUF = ' ';

   3797  3 000106   040100 100400                    MLR     fill='040'O
         3 000107   000035 000001 xsym               ADSC9   B_VECTNIL+29             cn=0,n=1
         3 000110   200106 000400                    ADSC9   TEXTBUF,,AUTO            cn=0,n=256

      518     3798    2        TEXT$ = ADDR(TEXTBUF);

   3798  3 000111   200106 631500                    EPPR1   TEXTBUF,,AUTO
         3 000112   200210 451500                    STP1    TEXT$,,AUTO

      519     3799    2        MMBUF = ' ';

   3799  3 000113   040000 100400                    MLR     fill='040'O
         3 000114   000035 000001 xsym               ADSC9   B_VECTNIL+29             cn=0,n=1
         3 000115   003025 000400 2                  ADSC9   MMBUF                    cn=0,n=256

      520     3800    2        MM$ = ADDR(MMBUF);

   3800  3 000116   000012 236000 4                  LDQ     10
         3 000117   200370 756100                    STQ     MM$,,AUTO

      521     3801    2        SECBUF = ' ';

PL6.E3A0      #001=THF$RAW File=THF$FORMAT.:E05TSI                               WED 07/30/97 06:08 Page:137
   3801  3 000120   040000 100400                    MLR     fill='040'O
         3 000121   000035 000001 xsym               ADSC9   B_VECTNIL+29             cn=0,n=1
         3 000122   003125 000024 2                  ADSC9   SECBUF                   cn=0,n=20

      522     3802    2        SEC$ = ADDR(SECBUF);

   3802  3 000123   000013 236000 4                  LDQ     11
         3 000124   200411 756100                    STQ     SEC$,,AUTO

      523     3803    3        DO I = 0 TO 5;

   3803  3 000125   200010 450100                    STZ     I,,AUTO

      524     3804    3          TEMPBUF(I) = 0;

   3804  3 000126   200010 720100                    LXL0    I,,AUTO
         3 000127   200413 450110                    STZ     TEMPBUF,X0,AUTO

      525     3805    3        END;

   3805  3 000130   200010 054100                    AOS     I,,AUTO
         3 000131   200010 235100                    LDA     I,,AUTO
         3 000132   000005 115007                    CMPA    5,DL
         3 000133   000126 604400 3                  TMOZ    s:3804

      526     3806    2        CYL = 0;

   3806  3 000134   200375 450100                    STZ     CYL,,AUTO

      527     3807    2        HD = 0;

   3807  3 000135   200376 450100                    STZ     HD,,AUTO

      528     3808    2        SE = 0;

   3808  3 000136   200377 450100                    STZ     SE,,AUTO

PL6.E3A0      #001=THF$RAW File=THF$FORMAT.:E05TSI                               WED 07/30/97 06:08 Page:138
      529     3809    3        DO CASE(TH_ITYPE);

   3809  3 000137   000000 236000 xsym               LDQ     TH_ITYPE
         3 000140   000046 116007                    CMPQ    38,DL
         3 000141   000143 602006 3                  TNC     s:3809+4,QL
         3 000142   007070 710000 3                  TRA     s:4630
         3 000143   007070 710000 3                  TRA     s:4630
         3 000144   000211 710000 3                  TRA     s:3811
         3 000145   000264 710000 3                  TRA     s:3823
         3 000146   000264 710000 3                  TRA     s:3823
         3 000147   007070 710000 3                  TRA     s:4630
         3 000150   007070 710000 3                  TRA     s:4630
         3 000151   007070 710000 3                  TRA     s:4630
         3 000152   000304 710000 3                  TRA     s:3827
         3 000153   006545 710000 3                  TRA     s:4583
         3 000154   001632 710000 3                  TRA     s:4012
         3 000155   002427 710000 3                  TRA     s:4106
         3 000156   006344 710000 3                  TRA     s:4553
         3 000157   002450 710000 3                  TRA     s:4110
         3 000160   003077 710000 3                  TRA     s:4183
         3 000161   006257 710000 3                  TRA     s:4533
         3 000162   003134 710000 3                  TRA     s:4192
         3 000163   003271 710000 3                  TRA     s:4217
         3 000164   003446 710000 3                  TRA     s:4236
         3 000165   004214 710000 3                  TRA     s:4300
         3 000166   001274 710000 3                  TRA     s:3949
         3 000167   001435 710000 3                  TRA     s:3973
         3 000170   007070 710000 3                  TRA     s:4630
         3 000171   000325 710000 3                  TRA     s:3830
         3 000172   007070 710000 3                  TRA     s:4630
         3 000173   000521 710000 3                  TRA     s:3862
         3 000174   000611 710000 3                  TRA     s:3881
         3 000175   007070 710000 3                  TRA     s:4630
         3 000176   002475 710000 3                  TRA     s:4116
         3 000177   001262 710000 3                  TRA     s:3946
         3 000200   000521 710000 3                  TRA     s:3862
         3 000201   000521 710000 3                  TRA     s:3862
PL6.E3A0      #001=THF$RAW File=THF$FORMAT.:E05TSI                               WED 07/30/97 06:08 Page:139
         3 000202   001144 710000 3                  TRA     s:3929
         3 000203   007070 710000 3                  TRA     s:4630
         3 000204   007070 710000 3                  TRA     s:4630
         3 000205   006725 710000 3                  TRA     s:4604
         3 000206   007070 710000 3                  TRA     s:4630
         3 000207   007070 710000 3                  TRA     s:4630
         3 000210   001532 710000 3                  TRA     s:3996

      530     3810    3            CASE(%TH_CMPSTRT);

      531     3811    3              CALL BUILDTIME(EL$CMPSTRT.LAST_STATE_CHANGE);

   3811  3 000211   200005 236100                    LDQ     INFO+1,,AUTO
         3 000212   000003 036003                    ADLQ    3,DU
         3 000213   200525 756100                    STQ     NINE_TRACK_BLNK+9,,AUTO
         3 000214   010514 701000 3                  TSX1    BUILDTIME
         3 000215   000000 011000                    NOP     0

      532     3812    4              DO CASE(EL$CMPSTRT.STATE);

   3812  3 000216   200005 470500                    LDP0    INFO+1,,AUTO
         3 000217   000005 235100                    LDA     5,,PR0
         3 000220   000003 115007                    CMPA    3,DL
         3 000221   000223 602005 3                  TNC     s:3812+5,AL
         3 000222   000255 710000 3                  TRA     s:3820
         3 000223   000226 710000 3                  TRA     s:3814
         3 000224   000235 710000 3                  TRA     s:3816
         3 000225   000235 710000 3                  TRA     s:3816

      533     3813    4               CASE(0);

      534     3814    4                 CALL ADD_TEXTC('STOPPED',7);

   3814  3 000226   000014 236000 4                  LDQ     12
         3 000227   200530 756100                    STQ     @CHIP+1,,AUTO
         3 000230   000015 236000 4                  LDQ     13
         3 000231   200527 756100                    STQ     @BOARD+1,,AUTO
PL6.E3A0      #001=THF$RAW File=THF$FORMAT.:E05TSI                               WED 07/30/97 06:08 Page:140
         3 000232   010552 701000 3                  TSX1    ADD_TEXTC
         3 000233   000000 011000                    NOP     0
         3 000234   007070 710000 3                  TRA     s:4630

      535     3815    4               CASE(1,2);

      536     3816    4                 IF EL$CMPSTRT.PNO=0

   3816  3 000235   000002 235100                    LDA     2,,PR0
         3 000236   000246 601000 3                  TNZ     s:3818

      537     3817    4                 THEN CALL ADD_TEXTC('MASTER RUNNING',14);

   3817  3 000237   000017 236000 4                  LDQ     15
         3 000240   200530 756100                    STQ     @CHIP+1,,AUTO
         3 000241   000020 236000 4                  LDQ     16
         3 000242   200527 756100                    STQ     @BOARD+1,,AUTO
         3 000243   010552 701000 3                  TSX1    ADD_TEXTC
         3 000244   000000 011000                    NOP     0
         3 000245   007070 710000 3                  TRA     s:4630

      538     3818    4                 ELSE CALL ADD_TEXTC('RUNNING',7);

   3818  3 000246   000014 236000 4                  LDQ     12
         3 000247   200530 756100                    STQ     @CHIP+1,,AUTO
         3 000250   000021 236000 4                  LDQ     17
         3 000251   200527 756100                    STQ     @BOARD+1,,AUTO
         3 000252   010552 701000 3                  TSX1    ADD_TEXTC
         3 000253   000000 011000                    NOP     0
         3 000254   007070 710000 3                  TRA     s:4630

      539     3819    4               CASE(ELSE);

      540     3820    4                 CALL ADD_TEXTC('HUNG UP',7);

   3820  3 000255   000014 236000 4                  LDQ     12
         3 000256   200530 756100                    STQ     @CHIP+1,,AUTO
PL6.E3A0      #001=THF$RAW File=THF$FORMAT.:E05TSI                               WED 07/30/97 06:08 Page:141
         3 000257   000022 236000 4                  LDQ     18
         3 000260   200527 756100                    STQ     @BOARD+1,,AUTO
         3 000261   010552 701000 3                  TSX1    ADD_TEXTC
         3 000262   000000 011000                    NOP     0

      541     3821    4               END;

   3821  3 000263   007070 710000 3                  TRA     s:4630

      542     3822    3            CASE(%TH_MOUNT,%TH_DSMT);

      543     3823    3              IF TH_ITYPE = %TH_MOUNT

   3823  3 000264   000002 116007                    CMPQ    2,DL
         3 000265   000275 601000 3                  TNZ     s:3825

      544     3824    3                 THEN CALL ADD_TEXTC('MOUNT',5);

   3824  3 000266   000023 236000 4                  LDQ     19
         3 000267   200530 756100                    STQ     @CHIP+1,,AUTO
         3 000270   000024 236000 4                  LDQ     20
         3 000271   200527 756100                    STQ     @BOARD+1,,AUTO
         3 000272   010552 701000 3                  TSX1    ADD_TEXTC
         3 000273   000000 011000                    NOP     0
         3 000274   007070 710000 3                  TRA     s:4630

      545     3825    3                 ELSE CALL ADD_TEXTC('DISMOUNT',8);

   3825  3 000275   000025 236000 4                  LDQ     21
         3 000276   200530 756100                    STQ     @CHIP+1,,AUTO
         3 000277   000026 236000 4                  LDQ     22
         3 000300   200527 756100                    STQ     @BOARD+1,,AUTO
         3 000301   010552 701000 3                  TSX1    ADD_TEXTC
         3 000302   000000 011000                    NOP     0
         3 000303   007070 710000 3                  TRA     s:4630

      546     3826    3            CASE(%TH_FWLOAD);
PL6.E3A0      #001=THF$RAW File=THF$FORMAT.:E05TSI                               WED 07/30/97 06:08 Page:142

      547     3827    3              IF EL$FWLOAD.LOADED THEN CALL ADD_TEXTC('SUCCESSFUL',10);

   3827  3 000304   200005 470500                    LDP0    INFO+1,,AUTO
         3 000305   000002 234100                    SZN     2,,PR0
         3 000306   000316 605000 3                  TPL     s:3828

   3827  3 000307   000027 236000 4                  LDQ     23
         3 000310   200530 756100                    STQ     @CHIP+1,,AUTO
         3 000311   000030 236000 4                  LDQ     24
         3 000312   200527 756100                    STQ     @BOARD+1,,AUTO
         3 000313   010552 701000 3                  TSX1    ADD_TEXTC
         3 000314   000000 011000                    NOP     0
         3 000315   007070 710000 3                  TRA     s:4630

      548     3828    3              ELSE CALL ADD_TEXTC('FAILED',6);

   3828  3 000316   000031 236000 4                  LDQ     25
         3 000317   200530 756100                    STQ     @CHIP+1,,AUTO
         3 000320   000032 236000 4                  LDQ     26
         3 000321   200527 756100                    STQ     @BOARD+1,,AUTO
         3 000322   010552 701000 3                  TSX1    ADD_TEXTC
         3 000323   000000 011000                    NOP     0
         3 000324   007070 710000 3                  TRA     s:4630

      549     3829    3            CASE(%TH_SPURINT);

      550     3830    4              IF EL$SPURINT.STATUS.DOWN THEN DO CASE(EL$SPURINT.STATUS.TND);

   3830  3 000325   200005 470500                    LDP0    INFO+1,,AUTO
         3 000326   000000 236100                    LDQ     0,,PR0
         3 000327   040000 316007                    CANQ    16384,DL
         3 000330   000406 600000 3                  TZE     s:3842

   3830  3 000331   000000 236100                    LDQ     0,,PR0
         3 000332   000014 772000                    QRL     12
         3 000333   000003 376007                    ANQ     3,DL
PL6.E3A0      #001=THF$RAW File=THF$FORMAT.:E05TSI                               WED 07/30/97 06:08 Page:143
         3 000334   000004 116007                    CMPQ    4,DL
         3 000335   000337 602006 3                  TNC     s:3830+10,QL
         3 000336   000377 710000 3                  TRA     s:3840
         3 000337   000343 710000 3                  TRA     s:3832
         3 000340   000352 710000 3                  TRA     s:3834
         3 000341   000361 710000 3                  TRA     s:3836
         3 000342   000370 710000 3                  TRA     s:3838

      551     3831    4               CASE(0);

      552     3832    4                 CALL ADD_TEXTC('PART ',5);

   3832  3 000343   000023 236000 4                  LDQ     19
         3 000344   200530 756100                    STQ     @CHIP+1,,AUTO
         3 000345   000033 236000 4                  LDQ     27
         3 000346   200527 756100                    STQ     @BOARD+1,,AUTO
         3 000347   010552 701000 3                  TSX1    ADD_TEXTC
         3 000350   000000 011000                    NOP     0
         3 000351   000414 710000 3                  TRA     s:3843

      553     3833    4               CASE(1);

      554     3834    4                 CALL ADD_TEXTC('POLTS',5);

   3834  3 000352   000023 236000 4                  LDQ     19
         3 000353   200530 756100                    STQ     @CHIP+1,,AUTO
         3 000354   000034 236000 4                  LDQ     28
         3 000355   200527 756100                    STQ     @BOARD+1,,AUTO
         3 000356   010552 701000 3                  TSX1    ADD_TEXTC
         3 000357   000000 011000                    NOP     0
         3 000360   000414 710000 3                  TRA     s:3843

      555     3835    4               CASE(2);

      556     3836    4                 CALL ADD_TEXTC('ITR  ',5);

   3836  3 000361   000023 236000 4                  LDQ     19
PL6.E3A0      #001=THF$RAW File=THF$FORMAT.:E05TSI                               WED 07/30/97 06:08 Page:144
         3 000362   200530 756100                    STQ     @CHIP+1,,AUTO
         3 000363   000035 236000 4                  LDQ     29
         3 000364   200527 756100                    STQ     @BOARD+1,,AUTO
         3 000365   010552 701000 3                  TSX1    ADD_TEXTC
         3 000366   000000 011000                    NOP     0
         3 000367   000414 710000 3                  TRA     s:3843

      557     3837    4               CASE(3);

      558     3838    4                 CALL ADD_TEXTC('MDR  ',5);

   3838  3 000370   000023 236000 4                  LDQ     19
         3 000371   200530 756100                    STQ     @CHIP+1,,AUTO
         3 000372   000036 236000 4                  LDQ     30
         3 000373   200527 756100                    STQ     @BOARD+1,,AUTO
         3 000374   010552 701000 3                  TSX1    ADD_TEXTC
         3 000375   000000 011000                    NOP     0
         3 000376   000414 710000 3                  TRA     s:3843

      559     3839    4               CASE(ELSE);

      560     3840    4                 CALL ADD_TEXTC('?????',5);

   3840  3 000377   000023 236000 4                  LDQ     19
         3 000400   200530 756100                    STQ     @CHIP+1,,AUTO
         3 000401   000037 236000 4                  LDQ     31
         3 000402   200527 756100                    STQ     @BOARD+1,,AUTO
         3 000403   010552 701000 3                  TSX1    ADD_TEXTC
         3 000404   000000 011000                    NOP     0

      561     3841    4               END;

   3841  3 000405   000414 710000 3                  TRA     s:3843

      562     3842    3              ELSE CALL ADD_TEXTC('     ',5);

   3842  3 000406   000023 236000 4                  LDQ     19
PL6.E3A0      #001=THF$RAW File=THF$FORMAT.:E05TSI                               WED 07/30/97 06:08 Page:145
         3 000407   200530 756100                    STQ     @CHIP+1,,AUTO
         3 000410   000040 236000 4                  LDQ     32
         3 000411   200527 756100                    STQ     @BOARD+1,,AUTO
         3 000412   010552 701000 3                  TSX1    ADD_TEXTC
         3 000413   000000 011000                    NOP     0

      563     3843    4              DO CASE(EL$SPURINT.STATE);

   3843  3 000414   200005 470500                    LDP0    INFO+1,,AUTO
         3 000415   000000 220100                    LDX0    0,,PR0
         3 000416   000077 360003                    ANX0    63,DU
         3 000417   000007 100003                    CMPX0   7,DU
         3 000420   000422 602010 3                  TNC     s:3843+6,X0
         3 000421   000512 710000 3                  TRA     s:3859
         3 000422   000431 710000 3                  TRA     s:3845
         3 000423   000440 710000 3                  TRA     s:3847
         3 000424   000447 710000 3                  TRA     s:3849
         3 000425   000456 710000 3                  TRA     s:3851
         3 000426   000465 710000 3                  TRA     s:3853
         3 000427   000474 710000 3                  TRA     s:3855
         3 000430   000503 710000 3                  TRA     s:3857

      564     3844    4               CASE(0);

      565     3845    4                 CALL ADD_TEXTC('IDLE',4);

   3845  3 000431   000041 236000 4                  LDQ     33
         3 000432   200530 756100                    STQ     @CHIP+1,,AUTO
         3 000433   000042 236000 4                  LDQ     34
         3 000434   200527 756100                    STQ     @BOARD+1,,AUTO
         3 000435   010552 701000 3                  TSX1    ADD_TEXTC
         3 000436   000000 011000                    NOP     0
         3 000437   007070 710000 3                  TRA     s:4630

      566     3846    4               CASE(1);

      567     3847    4                 CALL ADD_TEXTC('REQUESTED',9);
PL6.E3A0      #001=THF$RAW File=THF$FORMAT.:E05TSI                               WED 07/30/97 06:08 Page:146

   3847  3 000440   000043 236000 4                  LDQ     35
         3 000441   200530 756100                    STQ     @CHIP+1,,AUTO
         3 000442   000044 236000 4                  LDQ     36
         3 000443   200527 756100                    STQ     @BOARD+1,,AUTO
         3 000444   010552 701000 3                  TSX1    ADD_TEXTC
         3 000445   000000 011000                    NOP     0
         3 000446   007070 710000 3                  TRA     s:4630

      568     3848    4               CASE(2);

      569     3849    4                 CALL ADD_TEXTC('ASSIGNED',8);

   3849  3 000447   000025 236000 4                  LDQ     21
         3 000450   200530 756100                    STQ     @CHIP+1,,AUTO
         3 000451   000045 236000 4                  LDQ     37
         3 000452   200527 756100                    STQ     @BOARD+1,,AUTO
         3 000453   010552 701000 3                  TSX1    ADD_TEXTC
         3 000454   000000 011000                    NOP     0
         3 000455   007070 710000 3                  TRA     s:4630

      570     3850    4               CASE(3);

      571     3851    4                 CALL ADD_TEXTC('SPWAIT',6);

   3851  3 000456   000031 236000 4                  LDQ     25
         3 000457   200530 756100                    STQ     @CHIP+1,,AUTO
         3 000460   000046 236000 4                  LDQ     38
         3 000461   200527 756100                    STQ     @BOARD+1,,AUTO
         3 000462   010552 701000 3                  TSX1    ADD_TEXTC
         3 000463   000000 011000                    NOP     0
         3 000464   007070 710000 3                  TRA     s:4630

      572     3852    4               CASE(4);

      573     3853    4                 CALL ADD_TEXTC('KIWAIT',6);

PL6.E3A0      #001=THF$RAW File=THF$FORMAT.:E05TSI                               WED 07/30/97 06:08 Page:147
   3853  3 000465   000031 236000 4                  LDQ     25
         3 000466   200530 756100                    STQ     @CHIP+1,,AUTO
         3 000467   000047 236000 4                  LDQ     39
         3 000470   200527 756100                    STQ     @BOARD+1,,AUTO
         3 000471   010552 701000 3                  TSX1    ADD_TEXTC
         3 000472   000000 011000                    NOP     0
         3 000473   007070 710000 3                  TRA     s:4630

      574     3854    4               CASE(5);

      575     3855    4                 CALL ADD_TEXTC('BUSY',4);

   3855  3 000474   000041 236000 4                  LDQ     33
         3 000475   200530 756100                    STQ     @CHIP+1,,AUTO
         3 000476   000050 236000 4                  LDQ     40
         3 000477   200527 756100                    STQ     @BOARD+1,,AUTO
         3 000500   010552 701000 3                  TSX1    ADD_TEXTC
         3 000501   000000 011000                    NOP     0
         3 000502   007070 710000 3                  TRA     s:4630

      576     3856    4               CASE(6);

      577     3857    4                 CALL ADD_TEXTC('SUSPENDED',9);

   3857  3 000503   000043 236000 4                  LDQ     35
         3 000504   200530 756100                    STQ     @CHIP+1,,AUTO
         3 000505   000051 236000 4                  LDQ     41
         3 000506   200527 756100                    STQ     @BOARD+1,,AUTO
         3 000507   010552 701000 3                  TSX1    ADD_TEXTC
         3 000510   000000 011000                    NOP     0
         3 000511   007070 710000 3                  TRA     s:4630

      578     3858    4               CASE(ELSE);

      579     3859    4                 CALL ADD_TEXTC('UNKNOWN',7);

   3859  3 000512   000014 236000 4                  LDQ     12
PL6.E3A0      #001=THF$RAW File=THF$FORMAT.:E05TSI                               WED 07/30/97 06:08 Page:148
         3 000513   200530 756100                    STQ     @CHIP+1,,AUTO
         3 000514   000052 236000 4                  LDQ     42
         3 000515   200527 756100                    STQ     @BOARD+1,,AUTO
         3 000516   010552 701000 3                  TSX1    ADD_TEXTC
         3 000517   000000 011000                    NOP     0

      580     3860    4               END;

   3860  3 000520   007070 710000 3                  TRA     s:4630

      581     3861    3            CASE(%TH_SCREECH,%TH_SUA,%TH_SNAP);

      582     3862    3              CALL ERROR_CODE(EL$SCREECH.SCODE);

   3862  3 000521   200005 236100                    LDQ     INFO+1,,AUTO
         3 000522   200527 756100                    STQ     @BOARD+1,,AUTO
         3 000523   010575 701000 3                  TSX1    ERROR_CODE
         3 000524   000000 011000                    NOP     0

      583     3863    4              IF EL$SCREECH.DUMP~=0 THEN DO;

   3863  3 000525   200005 470500                    LDP0    INFO+1,,AUTO
         3 000526   000005 235100                    LDA     5,,PR0
         3 000527   000537 600000 3                  TZE     s:3867

      584     3864    4                 CALL ADD_TEXTC('NONE',4);

   3864  3 000530   000041 236000 4                  LDQ     33
         3 000531   200530 756100                    STQ     @CHIP+1,,AUTO
         3 000532   000053 236000 4                  LDQ     43
         3 000533   200527 756100                    STQ     @BOARD+1,,AUTO
         3 000534   010552 701000 3                  TSX1    ADD_TEXTC
         3 000535   000000 011000                    NOP     0

      585     3865    4                 END;

   3865  3 000536   000567 710000 3                  TRA     s:3873
PL6.E3A0      #001=THF$RAW File=THF$FORMAT.:E05TSI                               WED 07/30/97 06:08 Page:149

      586     3866    4              ELSE DO;

      587     3867    4                 DFNAME.N=SIZEC(DFNAME)-1;

   3867  3 000537   200210 471500                    LDP1    TEXT$,,AUTO
         3 000540   000100 101400                    MRL     fill='000'O
         3 000541   000014 000004 xsym               ADSC9   B_VECTNIL+12             cn=0,n=4
         3 000542   100000 000001                    ADSC9   0,,PR1                   cn=0,n=1

      588     3868    4                 DFNAME.DF=':DF';

   3868  3 000543   200210 470500                    LDP0    TEXT$,,AUTO
         3 000544   040100 100400                    MLR     fill='040'O
         3 000545   000763 000003 1                  ADSC9   BOARD_64K+52             cn=0,n=3
         3 000546   000000 200003                    ADSC9   0,,PR0                   cn=1,n=3

      589     3869    4                 DFNAME.MONID = EL$SCREECH.MONID;

   3869  3 000547   200005 470500                    LDP0    INFO+1,,AUTO
         3 000550   200210 471500                    LDP1    TEXT$,,AUTO
         3 000551   040100 100500                    MLR     fill='040'O
         3 000552   000003 000004                    ADSC9   3,,PR0                   cn=0,n=4
         3 000553   100001 000004                    ADSC9   1,,PR1                   cn=0,n=4

      590     3870    4                 CALL BINCHAR(DFNAME.SCOUNT,EL$SCREECH.SCOUNT);

   3870  3 000554   200005 470500                    LDP0    INFO+1,,AUTO
         3 000555   000004 235100                    LDA     4,,PR0
         3 000556   000044 773000                    LRL     36
         3 000557   200534 757100                    STAQ    CHIP#+2,,AUTO
         3 000560   200210 471500                    LDP1    TEXT$,,AUTO
         3 000561   000100 301500                    BTD
         3 000562   200534 000010                    NDSC9   CHIP#+2,,AUTO            cn=0,s=lsgnf,sf=0,n=8
         3 000563   100002 030003                    NDSC9   2,,PR1                   cn=0,s=nosgn,sf=0,n=3

      591     3871    4                 TEXT$=PINCRC(TEXT$,SIZEC(DFNAME));
PL6.E3A0      #001=THF$RAW File=THF$FORMAT.:E05TSI                               WED 07/30/97 06:08 Page:150

   3871  3 000564   200210 236100                    LDQ     TEXT$,,AUTO
         3 000565   000054 036000 4                  ADLQ    44
         3 000566   200210 756100                    STQ     TEXT$,,AUTO

      592     3872    4                 END;

      593     3873    3              IF (MASK & EL$SCREECH.RTRAP)

   3873  3 000567   200005 470500                    LDP0    INFO+1,,AUTO
         3 000570   000000 236000 1                  LDQ     MASK
         3 000571   000006 376100                    ANQ     6,,PR0
         3 000572   000602 600000 3                  TZE     s:3878

      594     3874    4                 THEN DO;

      595     3875    4                    CALL ADD_TEXTC('TRAPPED',7);

   3875  3 000573   000014 236000 4                  LDQ     12
         3 000574   200530 756100                    STQ     @CHIP+1,,AUTO
         3 000575   000055 236000 4                  LDQ     45
         3 000576   200527 756100                    STQ     @BOARD+1,,AUTO
         3 000577   010552 701000 3                  TSX1    ADD_TEXTC
         3 000600   000000 011000                    NOP     0

      596     3876    4                 END;

   3876  3 000601   007070 710000 3                  TRA     s:4630

      597     3877    4                 ELSE DO;

      598     3878    4                    CALL ADD_TEXTC(' ',1);

   3878  3 000602   000056 236000 4                  LDQ     46
         3 000603   200530 756100                    STQ     @CHIP+1,,AUTO
         3 000604   000057 236000 4                  LDQ     47
         3 000605   200527 756100                    STQ     @BOARD+1,,AUTO
PL6.E3A0      #001=THF$RAW File=THF$FORMAT.:E05TSI                               WED 07/30/97 06:08 Page:151
         3 000606   010552 701000 3                  TSX1    ADD_TEXTC
         3 000607   000000 011000                    NOP     0

      599     3879    4                 END;

   3879  3 000610   007070 710000 3                  TRA     s:4630

      600     3880    3            CASE(%TH_FI);

      601     3881    3              CALL INSERT(TEXTBUF,1,3,'DP#');

   3881  3 000611   000766 236000 1                  LDQ     BOARD_64K+55
         3 000612   000011 772000                    QRL     9
         3 000613   200106 552134                    STBQ    TEXTBUF,'34'O,AUTO

      602     3882    3              I=4;

   3882  3 000614   000004 236007                    LDQ     4,DL
         3 000615   200010 756100                    STQ     I,,AUTO

      603     3883    3               CALL INDEX(JUNK,' ',EL$FILERR.SN);

   3883  3 000616   200005 470500                    LDP0    INFO+1,,AUTO
         3 000617   000000 124500                    SCM     mask='000'O
         3 000620   000021 000006                    ADSC9   17,,PR0                  cn=0,n=6
         3 000621   000035 000001 xsym               ADSC9   B_VECTNIL+29             cn=0,n=1
         3 000622   200016 000100                    ARG     JUNK,,AUTO

      604     3884    3              CALL INSERT(TEXTBUF,I,JUNK,EL$FILERR.SN);

   3884  3 000623   200016 720100                    LXL0    JUNK,,AUTO
         3 000624   040146 100500                    MLR     fill='040'O
         3 000625   000021 000006                    ADSC9   17,,PR0                  cn=0,n=6
         3 000626   200106 000010                    ADSC9   TEXTBUF,Q,AUTO           cn=0,n=*X0

      605     3885    3              I=I+JUNK;

PL6.E3A0      #001=THF$RAW File=THF$FORMAT.:E05TSI                               WED 07/30/97 06:08 Page:152
   3885  3 000627   200010 236100                    LDQ     I,,AUTO
         3 000630   200016 036100                    ADLQ    JUNK,,AUTO
         3 000631   200010 756100                    STQ     I,,AUTO

      606     3886    4              IF EL$FILERR.FNAME.L>0 THEN DO;

   3886  3 000632   200005 470500                    LDP0    INFO+1,,AUTO
         3 000633   000025 236100                    LDQ     21,,PR0
         3 000634   777000 316003                    CANQ    -512,DU
         3 000635   000665 600000 3                  TZE     s:3890

      607     3887    4                 CALL INSERT(TEXTBUF,I,EL$FILERR.FNAME.L+1,'/',EL$FILERR.FNAME.C);

   3887  3 000636   000025 236100                    LDQ     21,,PR0
         3 000637   000033 772000                    QRL     27
         3 000640   000001 621006                    EAX1    1,QL
         3 000641   200010 235100                    LDA     I,,AUTO
         3 000642   040145 100400                    MLR     fill='040'O
         3 000643   000060 000001 4                  ADSC9   48                       cn=0,n=1
         3 000644   200106 000011                    ADSC9   TEXTBUF,A,AUTO           cn=0,n=*X1
         3 000645   000000 636011                    EAQ     0,X1
         3 000646   000022 772000                    QRL     18
         3 000647   000002 116007                    CMPQ    2,DL
         3 000650   000657 602000 3                  TNC     s:3888
         3 000651   777777 622011                    EAX2    -1,X1
         3 000652   200005 470500                    LDP0    INFO+1,,AUTO
         3 000653   200010 235100                    LDA     I,,AUTO
         3 000654   040145 100500                    MLR     fill='040'O
         3 000655   000025 200037                    ADSC9   21,,PR0                  cn=1,n=31
         3 000656   200106 200012                    ADSC9   TEXTBUF,A,AUTO           cn=1,n=*X2

      608     3888    4                 I=I+EL$FILERR.FNAME.L+1;

   3888  3 000657   200005 470500                    LDP0    INFO+1,,AUTO
         3 000660   000025 236100                    LDQ     21,,PR0
         3 000661   000033 772000                    QRL     27
         3 000662   200010 036100                    ADLQ    I,,AUTO
PL6.E3A0      #001=THF$RAW File=THF$FORMAT.:E05TSI                               WED 07/30/97 06:08 Page:153
         3 000663   000001 036007                    ADLQ    1,DL
         3 000664   200010 756100                    STQ     I,,AUTO

      609     3889    4                 END;

      610     3890    3                  CALL INDEX(JUNK,' ',EL$FILERR.ACCT);

   3890  3 000665   000000 124500                    SCM     mask='000'O
         3 000666   000023 000010                    ADSC9   19,,PR0                  cn=0,n=8
         3 000667   000035 000001 xsym               ADSC9   B_VECTNIL+29             cn=0,n=1
         3 000670   200016 000100                    ARG     JUNK,,AUTO

      611     3891    4              IF JUNK>0 THEN DO;

   3891  3 000671   200016 235100                    LDA     JUNK,,AUTO
         3 000672   000715 604400 3                  TMOZ    s:3895

      612     3892    4                 CALL INSERT(TEXTBUF,I,JUNK+1,'.',EL$FILERR.ACCT);

   3892  3 000673   000001 620005                    EAX0    1,AL
         3 000674   200010 236100                    LDQ     I,,AUTO
         3 000675   040146 100400                    MLR     fill='040'O
         3 000676   000061 000001 4                  ADSC9   49                       cn=0,n=1
         3 000677   200106 000010                    ADSC9   TEXTBUF,Q,AUTO           cn=0,n=*X0
         3 000700   200016 236100                    LDQ     JUNK,,AUTO
         3 000701   000000 116003                    CMPQ    0,DU
         3 000702   000711 604400 3                  TMOZ    s:3893
         3 000703   200005 470500                    LDP0    INFO+1,,AUTO
         3 000704   000000 621006                    EAX1    0,QL
         3 000705   200010 236100                    LDQ     I,,AUTO
         3 000706   040146 100500                    MLR     fill='040'O
         3 000707   000023 000010                    ADSC9   19,,PR0                  cn=0,n=8
         3 000710   200106 200011                    ADSC9   TEXTBUF,Q,AUTO           cn=1,n=*X1

      613     3893    4                 I=I+JUNK+1;

   3893  3 000711   200010 236100                    LDQ     I,,AUTO
PL6.E3A0      #001=THF$RAW File=THF$FORMAT.:E05TSI                               WED 07/30/97 06:08 Page:154
         3 000712   200016 036100                    ADLQ    JUNK,,AUTO
         3 000713   000001 036007                    ADLQ    1,DL
         3 000714   200010 756100                    STQ     I,,AUTO

      614     3894    4                 END;

      615     3895    3              TEXT$=PINCRC(TEXT$,I);

   3895  3 000715   200010 236100                    LDQ     I,,AUTO
         3 000716   000020 736000                    QLS     16
         3 000717   200210 036100                    ADLQ    TEXT$,,AUTO
         3 000720   200210 756100                    STQ     TEXT$,,AUTO

      616     3896    3              CALL INSERT(TEXTBUF,0,1,BINASC(I-1));

   3896  3 000721   200010 236100                    LDQ     I,,AUTO
         3 000722   000001 136007                    SBLQ    1,DL
         3 000723   000033 736000                    QLS     27
         3 000724   000062 276000 4                  ORQ     50
         3 000725   200106 552140                    STBQ    TEXTBUF,'40'O,AUTO

      617     3897    3              IF (SUBSTR(EL$FILERR.DEVNM,0,2) = 'DP')

   3897  3 000726   200005 470500                    LDP0    INFO+1,,AUTO
         3 000727   000017 220100                    LDX0    15,,PR0
         3 000730   000766 100000 1                  CMPX0   BOARD_64K+55
         3 000731   000750 601000 3                  TNZ     FOUND

      618     3898    3                THEN
      619     3899    4                 DO I = 0 TO TH_NUM_DEVS - 1;

   3899  3 000732   200010 450100                    STZ     I,,AUTO
         3 000733   000744 710000 3                  TRA     s:3902+1

      620     3900    4                   IF TH_SYS_DEVS.DEVN(I) = EL$FILERR.DEVNM

   3900  3 000734   200010 235100                    LDA     I,,AUTO
PL6.E3A0      #001=THF$RAW File=THF$FORMAT.:E05TSI                               WED 07/30/97 06:08 Page:155
         3 000735   000004 735000                    ALS     4
         3 000736   200005 470500                    LDP0    INFO+1,,AUTO
         3 000737   040100 106405                    CMPC    fill='040'O
         3 000740   000000 000010 xsym               ADSC9   TH_SYS_DEVS,A            cn=0,n=8
         3 000741   000017 000010                    ADSC9   15,,PR0                  cn=0,n=8
         3 000742   000750 600000 3                  TZE     FOUND

      621     3901    4                      THEN GOTO FOUND;
      622     3902    4                 END;

   3902  3 000743   200010 054100                    AOS     I,,AUTO
         3 000744   200010 236100                    LDQ     I,,AUTO
         3 000745   000734 604000 3                  TMI     s:3900
         3 000746   000000 116000 xsym               CMPQ    TH_NUM_DEVS
         3 000747   000734 602000 3                  TNC     s:3900

      623     3903    3   FOUND:
      624     3904    3                 SECTOR = EL$FILERR.SECTOR;

   3904  3 000750   000004 235100       FOUND        LDA     4,,PR0
         3 000751   200374 755100                    STA     SECTOR,,AUTO

      625     3905    4                DO SELECT( TH_SYS_DEVS.MODEL(I) );

   3905  3 000752   200010 236100                    LDQ     I,,AUTO
         3 000753   000004 736000                    QLS     4
         3 000754   040000 106406                    CMPC    fill='040'O
         3 000755   000002 000010 xsym               ADSC9   TH_SYS_DEVS+2,Q          cn=0,n=8
         3 000756   000767 000007 1                  ADSC9   BOARD_64K+56             cn=0,n=7
         3 000757   001012 602000 3                  TNC     s:3905+32
         3 000760   001103 600000 3                  TZE     s:3916
         3 000761   040000 106406                    CMPC    fill='040'O
         3 000762   000002 000010 xsym               ADSC9   TH_SYS_DEVS+2,Q          cn=0,n=8
         3 000763   000771 000007 1                  ADSC9   BOARD_64K+58             cn=0,n=7
         3 000764   001005 602000 3                  TNC     s:3905+27
         3 000765   001103 600000 3                  TZE     s:3916
         3 000766   040000 106406                    CMPC    fill='040'O
PL6.E3A0      #001=THF$RAW File=THF$FORMAT.:E05TSI                               WED 07/30/97 06:08 Page:156
         3 000767   000002 000010 xsym               ADSC9   TH_SYS_DEVS+2,Q          cn=0,n=8
         3 000770   000773 000007 1                  ADSC9   BOARD_64K+60             cn=0,n=7
         3 000771   001000 602000 3                  TNC     s:3905+22
         3 000772   001116 600000 3                  TZE     s:3920
         3 000773   040000 106406                    CMPC    fill='040'O
         3 000774   000002 000010 xsym               ADSC9   TH_SYS_DEVS+2,Q          cn=0,n=8
         3 000775   000775 000007 1                  ADSC9   BOARD_64K+62             cn=0,n=7
         3 000776   007070 601000 3                  TNZ     s:4630
         3 000777   001131 710000 3                  TRA     s:3924
         3 001000   040000 106406                    CMPC    fill='040'O
         3 001001   000002 000010 xsym               ADSC9   TH_SYS_DEVS+2,Q          cn=0,n=8
         3 001002   000777 000007 1                  ADSC9   BOARD_64K+64             cn=0,n=7
         3 001003   007070 601000 3                  TNZ     s:4630
         3 001004   001103 710000 3                  TRA     s:3916
         3 001005   040000 106406                    CMPC    fill='040'O
         3 001006   000002 000010 xsym               ADSC9   TH_SYS_DEVS+2,Q          cn=0,n=8
         3 001007   001001 000007 1                  ADSC9   BOARD_64K+66             cn=0,n=7
         3 001010   007070 601000 3                  TNZ     s:4630
         3 001011   001103 710000 3                  TRA     s:3916
         3 001012   040000 106406                    CMPC    fill='040'O
         3 001013   000002 000010 xsym               ADSC9   TH_SYS_DEVS+2,Q          cn=0,n=8
         3 001014   001003 000007 1                  ADSC9   BOARD_64K+68             cn=0,n=7
         3 001015   001036 602000 3                  TNC     s:3905+52
         3 001016   001103 600000 3                  TZE     s:3916
         3 001017   040000 106406                    CMPC    fill='040'O
         3 001020   000002 000010 xsym               ADSC9   TH_SYS_DEVS+2,Q          cn=0,n=8
         3 001021   001005 000007 1                  ADSC9   BOARD_64K+70             cn=0,n=7
         3 001022   001031 602000 3                  TNC     s:3905+47
         3 001023   001103 600000 3                  TZE     s:3916
         3 001024   040000 106406                    CMPC    fill='040'O
         3 001025   000002 000010 xsym               ADSC9   TH_SYS_DEVS+2,Q          cn=0,n=8
         3 001026   001007 000007 1                  ADSC9   BOARD_64K+72             cn=0,n=7
         3 001027   007070 601000 3                  TNZ     s:4630
         3 001030   001103 710000 3                  TRA     s:3916
         3 001031   040000 106406                    CMPC    fill='040'O
         3 001032   000002 000010 xsym               ADSC9   TH_SYS_DEVS+2,Q          cn=0,n=8
         3 001033   001011 000007 1                  ADSC9   BOARD_64K+74             cn=0,n=7
PL6.E3A0      #001=THF$RAW File=THF$FORMAT.:E05TSI                               WED 07/30/97 06:08 Page:157
         3 001034   007070 601000 3                  TNZ     s:4630
         3 001035   001103 710000 3                  TRA     s:3916
         3 001036   040000 106406                    CMPC    fill='040'O
         3 001037   000002 000010 xsym               ADSC9   TH_SYS_DEVS+2,Q          cn=0,n=8
         3 001040   001013 000007 1                  ADSC9   BOARD_64K+76             cn=0,n=7
         3 001041   001050 602000 3                  TNC     s:3905+62
         3 001042   001055 600000 3                  TZE     s:3907
         3 001043   040000 106406                    CMPC    fill='040'O
         3 001044   000002 000010 xsym               ADSC9   TH_SYS_DEVS+2,Q          cn=0,n=8
         3 001045   001015 000007 1                  ADSC9   BOARD_64K+78             cn=0,n=7
         3 001046   007070 601000 3                  TNZ     s:4630
         3 001047   001055 710000 3                  TRA     s:3907
         3 001050   040000 106406                    CMPC    fill='040'O
         3 001051   000002 000010 xsym               ADSC9   TH_SYS_DEVS+2,Q          cn=0,n=8
         3 001052   001017 000007 1                  ADSC9   BOARD_64K+80             cn=0,n=7
         3 001053   007070 601000 3                  TNZ     s:4630
         3 001054   001070 710000 3                  TRA     s:3911

      626     3906    4                  SELECT('MSU0501','MSU0509');

      627     3907    4                      CYL = SECTOR/(8*40);

   3907  3 001055   200374 236100                    LDQ     SECTOR,,AUTO
         3 001056   000500 506007                    DIV     320,DL
         3 001057   200375 756100                    STQ     CYL,,AUTO

      628     3908    4                      HD = MOD(SECTOR /8,40);

   3908  3 001060   200374 236100                    LDQ     SECTOR,,AUTO
         3 001061   000010 506007                    DIV     8,DL
         3 001062   000050 506007                    DIV     40,DL
         3 001063   200376 755100                    STA     HD,,AUTO

      629     3909    4                      SE = MOD(SECTOR,8);

   3909  3 001064   200374 236100                    LDQ     SECTOR,,AUTO
         3 001065   000010 506007                    DIV     8,DL
PL6.E3A0      #001=THF$RAW File=THF$FORMAT.:E05TSI                               WED 07/30/97 06:08 Page:158
         3 001066   200377 755100                    STA     SE,,AUTO
         3 001067   007070 710000 3                  TRA     s:4630

      630     3910    4                  SELECT('MSU0451');

      631     3911    4                      CYL = SECTOR / (40*19);

   3911  3 001070   200374 236100                    LDQ     SECTOR,,AUTO
         3 001071   001370 506007                    DIV     760,DL
         3 001072   200375 756100                    STQ     CYL,,AUTO

      632     3912    4                      HD = MOD(SECTOR/40,19);

   3912  3 001073   200374 236100                    LDQ     SECTOR,,AUTO
         3 001074   000050 506007                    DIV     40,DL
         3 001075   000023 506007                    DIV     19,DL
         3 001076   200376 755100                    STA     HD,,AUTO

      633     3913    4                      SE = MOD(SECTOR,40);

   3913  3 001077   200374 236100                    LDQ     SECTOR,,AUTO
         3 001100   000050 506007                    DIV     40,DL
         3 001101   200377 755100                    STA     SE,,AUTO
         3 001102   007070 710000 3                  TRA     s:4630

      634     3914    4                  SELECT('MSU3380','MSU3381','MSU3382','MSU3383',  /* FIPS D&E */

      635     3915    4                         'MSU3390','MSU3391','MSU3392','MSU3393'); /* FIPS J&K */
      636     3916    4                     CYL = SECTOR / (17*15);

   3916  3 001103   200374 236100                    LDQ     SECTOR,,AUTO
         3 001104   000377 506007                    DIV     255,DL
         3 001105   200375 756100                    STQ     CYL,,AUTO

      637     3917    4                     HD = MOD(SECTOR/17,15);

   3917  3 001106   200374 236100                    LDQ     SECTOR,,AUTO
PL6.E3A0      #001=THF$RAW File=THF$FORMAT.:E05TSI                               WED 07/30/97 06:08 Page:159
         3 001107   000021 506007                    DIV     17,DL
         3 001110   000017 506007                    DIV     15,DL
         3 001111   200376 755100                    STA     HD,,AUTO

      638     3918    4                     SE = MOD(SECTOR,17);

   3918  3 001112   200374 236100                    LDQ     SECTOR,,AUTO
         3 001113   000021 506007                    DIV     17,DL
         3 001114   200377 755100                    STA     SE,,AUTO
         3 001115   007070 710000 3                  TRA     s:4630

      639     3919    4                  SELECT('MSU8082');                   /* MDS I - FDS II        */

      640     3920    4                      CYL = SECTOR / (11*24);

   3920  3 001116   200374 236100                    LDQ     SECTOR,,AUTO
         3 001117   000410 506007                    DIV     264,DL
         3 001120   200375 756100                    STQ     CYL,,AUTO

      641     3921    4                      HD = MOD(SECTOR/11,24);

   3921  3 001121   200374 236100                    LDQ     SECTOR,,AUTO
         3 001122   000013 506007                    DIV     11,DL
         3 001123   000030 506007                    DIV     24,DL
         3 001124   200376 755100                    STA     HD,,AUTO

      642     3922    4                      SE = MOD(SECTOR,11);

   3922  3 001125   200374 236100                    LDQ     SECTOR,,AUTO
         3 001126   000013 506007                    DIV     11,DL
         3 001127   200377 755100                    STA     SE,,AUTO
         3 001130   007070 710000 3                  TRA     s:4630

      643     3923    4                  SELECT('MSU8092');                  /* MDS II - SABRE V       */

      644     3924    4                      CYL = SECTOR / (19*15);

PL6.E3A0      #001=THF$RAW File=THF$FORMAT.:E05TSI                               WED 07/30/97 06:08 Page:160
   3924  3 001131   200374 236100                    LDQ     SECTOR,,AUTO
         3 001132   000435 506007                    DIV     285,DL
         3 001133   200375 756100                    STQ     CYL,,AUTO

      645     3925    4                      HD = MOD(SECTOR/19,15);

   3925  3 001134   200374 236100                    LDQ     SECTOR,,AUTO
         3 001135   000023 506007                    DIV     19,DL
         3 001136   000017 506007                    DIV     15,DL
         3 001137   200376 755100                    STA     HD,,AUTO

      646     3926    4                      SE = MOD(SECTOR,19);

   3926  3 001140   200374 236100                    LDQ     SECTOR,,AUTO
         3 001141   000023 506007                    DIV     19,DL
         3 001142   200377 755100                    STA     SE,,AUTO

      647     3927    4                  END;  /*SELECT*/

   3927  3 001143   007070 710000 3                  TRA     s:4630

      648     3928    3            CASE(%TH_CGERR);

      649     3929    3              CALL INSERT(TEXTBUF,1,3,'DP#');

   3929  3 001144   000766 236000 1                  LDQ     BOARD_64K+55
         3 001145   000011 772000                    QRL     9
         3 001146   200106 552134                    STBQ    TEXTBUF,'34'O,AUTO

      650     3930    3              I=4;

   3930  3 001147   000004 236007                    LDQ     4,DL
         3 001150   200010 756100                    STQ     I,,AUTO

      651     3931    3                 CALL INDEX(JUNK,' ',EL$CGERR.PSN);

   3931  3 001151   200005 470500                    LDP0    INFO+1,,AUTO
PL6.E3A0      #001=THF$RAW File=THF$FORMAT.:E05TSI                               WED 07/30/97 06:08 Page:161
         3 001152   000000 124500                    SCM     mask='000'O
         3 001153   000001 400006                    ADSC9   1,,PR0                   cn=2,n=6
         3 001154   000035 000001 xsym               ADSC9   B_VECTNIL+29             cn=0,n=1
         3 001155   200016 000100                    ARG     JUNK,,AUTO

      652     3932    3              CALL INSERT(TEXTBUF,I,JUNK,EL$CGERR.PSN);

   3932  3 001156   200016 720100                    LXL0    JUNK,,AUTO
         3 001157   040146 100500                    MLR     fill='040'O
         3 001160   000001 400006                    ADSC9   1,,PR0                   cn=2,n=6
         3 001161   200106 000010                    ADSC9   TEXTBUF,Q,AUTO           cn=0,n=*X0

      653     3933    3              I=I+JUNK;

   3933  3 001162   200010 236100                    LDQ     I,,AUTO
         3 001163   200016 036100                    ADLQ    JUNK,,AUTO
         3 001164   200010 756100                    STQ     I,,AUTO

      654     3934    4              IF EL$CGERR.FNAME.L>0 THEN DO;

   3934  3 001165   200005 470500                    LDP0    INFO+1,,AUTO
         3 001166   000005 236100                    LDQ     5,,PR0
         3 001167   777000 316003                    CANQ    -512,DU
         3 001170   001220 600000 3                  TZE     s:3938

      655     3935    4                 CALL INSERT(TEXTBUF,I,EL$CGERR.FNAME.L+1,'/',EL$CGERR.FNAME.C);

   3935  3 001171   000005 236100                    LDQ     5,,PR0
         3 001172   000033 772000                    QRL     27
         3 001173   000001 621006                    EAX1    1,QL
         3 001174   200010 235100                    LDA     I,,AUTO
         3 001175   040145 100400                    MLR     fill='040'O
         3 001176   000060 000001 4                  ADSC9   48                       cn=0,n=1
         3 001177   200106 000011                    ADSC9   TEXTBUF,A,AUTO           cn=0,n=*X1
         3 001200   000000 636011                    EAQ     0,X1
         3 001201   000022 772000                    QRL     18
         3 001202   000002 116007                    CMPQ    2,DL
PL6.E3A0      #001=THF$RAW File=THF$FORMAT.:E05TSI                               WED 07/30/97 06:08 Page:162
         3 001203   001212 602000 3                  TNC     s:3936
         3 001204   777777 622011                    EAX2    -1,X1
         3 001205   200005 470500                    LDP0    INFO+1,,AUTO
         3 001206   200010 235100                    LDA     I,,AUTO
         3 001207   040145 100500                    MLR     fill='040'O
         3 001210   000005 200037                    ADSC9   5,,PR0                   cn=1,n=31
         3 001211   200106 200012                    ADSC9   TEXTBUF,A,AUTO           cn=1,n=*X2

      656     3936    4                 I=I+EL$CGERR.FNAME.L+1;

   3936  3 001212   200005 470500                    LDP0    INFO+1,,AUTO
         3 001213   000005 236100                    LDQ     5,,PR0
         3 001214   000033 772000                    QRL     27
         3 001215   200010 036100                    ADLQ    I,,AUTO
         3 001216   000001 036007                    ADLQ    1,DL
         3 001217   200010 756100                    STQ     I,,AUTO

      657     3937    4                 END;

      658     3938    3            CALL INDEX(JUNK,' ',EL$CGERR.ACCT);

   3938  3 001220   000000 124500                    SCM     mask='000'O
         3 001221   000003 000010                    ADSC9   3,,PR0                   cn=0,n=8
         3 001222   000035 000001 xsym               ADSC9   B_VECTNIL+29             cn=0,n=1
         3 001223   200016 000100                    ARG     JUNK,,AUTO

      659     3939    4              IF JUNK>0 THEN DO;

   3939  3 001224   200016 235100                    LDA     JUNK,,AUTO
         3 001225   001250 604400 3                  TMOZ    s:3943

      660     3940    4                 CALL INSERT(TEXTBUF,I,JUNK+1,'.',EL$CGERR.ACCT);

   3940  3 001226   000001 620005                    EAX0    1,AL
         3 001227   200010 236100                    LDQ     I,,AUTO
         3 001230   040146 100400                    MLR     fill='040'O
         3 001231   000061 000001 4                  ADSC9   49                       cn=0,n=1
PL6.E3A0      #001=THF$RAW File=THF$FORMAT.:E05TSI                               WED 07/30/97 06:08 Page:163
         3 001232   200106 000010                    ADSC9   TEXTBUF,Q,AUTO           cn=0,n=*X0
         3 001233   200016 236100                    LDQ     JUNK,,AUTO
         3 001234   000000 116003                    CMPQ    0,DU
         3 001235   001244 604400 3                  TMOZ    s:3941
         3 001236   200005 470500                    LDP0    INFO+1,,AUTO
         3 001237   000000 621006                    EAX1    0,QL
         3 001240   200010 236100                    LDQ     I,,AUTO
         3 001241   040146 100500                    MLR     fill='040'O
         3 001242   000003 000010                    ADSC9   3,,PR0                   cn=0,n=8
         3 001243   200106 200011                    ADSC9   TEXTBUF,Q,AUTO           cn=1,n=*X1

      661     3941    4                 I=I+JUNK+1;

   3941  3 001244   200010 236100                    LDQ     I,,AUTO
         3 001245   200016 036100                    ADLQ    JUNK,,AUTO
         3 001246   000001 036007                    ADLQ    1,DL
         3 001247   200010 756100                    STQ     I,,AUTO

      662     3942    4                 END;

      663     3943    3              TEXT$=PINCRC(TEXT$,I);

   3943  3 001250   200010 236100                    LDQ     I,,AUTO
         3 001251   000020 736000                    QLS     16
         3 001252   200210 036100                    ADLQ    TEXT$,,AUTO
         3 001253   200210 756100                    STQ     TEXT$,,AUTO

      664     3944    3              CALL INSERT(TEXTBUF,0,1,BINASC(I-1));

   3944  3 001254   200010 236100                    LDQ     I,,AUTO
         3 001255   000001 136007                    SBLQ    1,DL
         3 001256   000033 736000                    QLS     27
         3 001257   000062 276000 4                  ORQ     50
         3 001260   200106 552140                    STBQ    TEXTBUF,'40'O,AUTO
         3 001261   007070 710000 3                  TRA     s:4630

      665     3945    3            CASE(%TH_GABRT);
PL6.E3A0      #001=THF$RAW File=THF$FORMAT.:E05TSI                               WED 07/30/97 06:08 Page:164

      666     3946    3              CALL ERROR_CODE(EL$GABRT.ERR);

   3946  3 001262   200005 236100                    LDQ     INFO+1,,AUTO
         3 001263   200527 756100                    STQ     @BOARD+1,,AUTO
         3 001264   010575 701000 3                  TSX1    ERROR_CODE
         3 001265   000000 011000                    NOP     0

      667     3947    3              CALL ERROR_CODE(EL$GABRT.USRERR);

   3947  3 001266   200005 236100                    LDQ     INFO+1,,AUTO
         3 001267   000001 036003                    ADLQ    1,DU
         3 001270   200527 756100                    STQ     @BOARD+1,,AUTO
         3 001271   010575 701000 3                  TSX1    ERROR_CODE
         3 001272   000000 011000                    NOP     0
         3 001273   007070 710000 3                  TRA     s:4630

      668     3948    3            CASE(%TH_EDAC);

      669     3949    4              DO CASE(EL$EDAC.PORT#);

   3949  3 001274   200005 470500                    LDP0    INFO+1,,AUTO
         3 001275   000010 236100                    LDQ     8,,PR0
         3 001276   000041 772000                    QRL     33
         3 001277   000003 376007                    ANQ     3,DL
         3 001300   000004 116007                    CMPQ    4,DL
         3 001301   001303 602006 3                  TNC     s:3949+7,QL
         3 001302   001342 710000 3                  TRA     s:3959
         3 001303   001307 710000 3                  TRA     s:3951
         3 001304   001316 710000 3                  TRA     s:3953
         3 001305   001325 710000 3                  TRA     s:3955
         3 001306   001334 710000 3                  TRA     s:3957

      670     3950    4                 CASE(0);                  /* PORT A                             */

      671     3951    4                    CALL ADD_TEXTC('A',1);

PL6.E3A0      #001=THF$RAW File=THF$FORMAT.:E05TSI                               WED 07/30/97 06:08 Page:165
   3951  3 001307   000056 236000 4                  LDQ     46
         3 001310   200530 756100                    STQ     @CHIP+1,,AUTO
         3 001311   000064 236000 4                  LDQ     52
         3 001312   200527 756100                    STQ     @BOARD+1,,AUTO
         3 001313   010552 701000 3                  TSX1    ADD_TEXTC
         3 001314   000000 011000                    NOP     0
         3 001315   001342 710000 3                  TRA     s:3959

      672     3952    4                 CASE(1);                  /* PORT B                             */

      673     3953    4                    CALL ADD_TEXTC('B',1);

   3953  3 001316   000056 236000 4                  LDQ     46
         3 001317   200530 756100                    STQ     @CHIP+1,,AUTO
         3 001320   000066 236000 4                  LDQ     54
         3 001321   200527 756100                    STQ     @BOARD+1,,AUTO
         3 001322   010552 701000 3                  TSX1    ADD_TEXTC
         3 001323   000000 011000                    NOP     0
         3 001324   001342 710000 3                  TRA     s:3959

      674     3954    4                 CASE(2);                  /* PORT C                             */

      675     3955    4                    CALL ADD_TEXTC('C',1);

   3955  3 001325   000056 236000 4                  LDQ     46
         3 001326   200530 756100                    STQ     @CHIP+1,,AUTO
         3 001327   000070 236000 4                  LDQ     56
         3 001330   200527 756100                    STQ     @BOARD+1,,AUTO
         3 001331   010552 701000 3                  TSX1    ADD_TEXTC
         3 001332   000000 011000                    NOP     0
         3 001333   001342 710000 3                  TRA     s:3959

      676     3956    4                 CASE(3);                  /* PORT D                             */

      677     3957    4                    CALL ADD_TEXTC('D',1);

   3957  3 001334   000056 236000 4                  LDQ     46
PL6.E3A0      #001=THF$RAW File=THF$FORMAT.:E05TSI                               WED 07/30/97 06:08 Page:166
         3 001335   200530 756100                    STQ     @CHIP+1,,AUTO
         3 001336   000072 236000 4                  LDQ     58
         3 001337   200527 756100                    STQ     @BOARD+1,,AUTO
         3 001340   010552 701000 3                  TSX1    ADD_TEXTC
         3 001341   000000 011000                    NOP     0

      678     3958    4              END;                         /* CASE EL$EDAC.PORT#                 */

      679     3959    4              DO CASE(EL$EDAC.STORE_UNIT);

   3959  3 001342   200005 470500                    LDP0    INFO+1,,AUTO
         3 001343   000010 236100                    LDQ     8,,PR0
         3 001344   000036 772000                    QRL     30
         3 001345   000003 376007                    ANQ     3,DL
         3 001346   000004 116007                    CMPQ    4,DL
         3 001347   001351 602006 3                  TNC     s:3959+7,QL
         3 001350   001410 710000 3                  TRA     s:3969
         3 001351   001355 710000 3                  TRA     s:3961
         3 001352   001364 710000 3                  TRA     s:3963
         3 001353   001373 710000 3                  TRA     s:3965
         3 001354   001402 710000 3                  TRA     s:3967

      680     3960    4                 CASE(0);                  /* A                                  */

      681     3961    4                    CALL ADD_TEXTC('A ',2);

   3961  3 001355   000073 236000 4                  LDQ     59
         3 001356   200530 756100                    STQ     @CHIP+1,,AUTO
         3 001357   000074 236000 4                  LDQ     60
         3 001360   200527 756100                    STQ     @BOARD+1,,AUTO
         3 001361   010552 701000 3                  TSX1    ADD_TEXTC
         3 001362   000000 011000                    NOP     0
         3 001363   001410 710000 3                  TRA     s:3969

      682     3962    4                 CASE(1);                  /* A1                                 */

      683     3963    4                    CALL ADD_TEXTC('A1',2);
PL6.E3A0      #001=THF$RAW File=THF$FORMAT.:E05TSI                               WED 07/30/97 06:08 Page:167

   3963  3 001364   000073 236000 4                  LDQ     59
         3 001365   200530 756100                    STQ     @CHIP+1,,AUTO
         3 001366   000075 236000 4                  LDQ     61
         3 001367   200527 756100                    STQ     @BOARD+1,,AUTO
         3 001370   010552 701000 3                  TSX1    ADD_TEXTC
         3 001371   000000 011000                    NOP     0
         3 001372   001410 710000 3                  TRA     s:3969

      684     3964    4                 CASE(2);                  /* B                                  */

      685     3965    4                    CALL ADD_TEXTC('B ',2);

   3965  3 001373   000073 236000 4                  LDQ     59
         3 001374   200530 756100                    STQ     @CHIP+1,,AUTO
         3 001375   000076 236000 4                  LDQ     62
         3 001376   200527 756100                    STQ     @BOARD+1,,AUTO
         3 001377   010552 701000 3                  TSX1    ADD_TEXTC
         3 001400   000000 011000                    NOP     0
         3 001401   001410 710000 3                  TRA     s:3969

      686     3966    4                 CASE(3);                  /* B1                                 */

      687     3967    4                    CALL ADD_TEXTC('B1',2);

   3967  3 001402   000073 236000 4                  LDQ     59
         3 001403   200530 756100                    STQ     @CHIP+1,,AUTO
         3 001404   000077 236000 4                  LDQ     63
         3 001405   200527 756100                    STQ     @BOARD+1,,AUTO
         3 001406   010552 701000 3                  TSX1    ADD_TEXTC
         3 001407   000000 011000                    NOP     0

      688     3968    4              END;                         /* CASE EL$EDAC.STORE_UNIT            */

      689     3969    3              CALL EDAC(INFO.PTR$,BORD,CHP);

   3969  3 001410   200006 630500                    EPPR0   CHP,,AUTO
PL6.E3A0      #001=THF$RAW File=THF$FORMAT.:E05TSI                               WED 07/30/97 06:08 Page:168
         3 001411   200527 450500                    STP0    @BOARD+1,,AUTO
         3 001412   200007 631500                    EPPR1   BORD,,AUTO
         3 001413   200526 451500                    STP1    @STATUS$+1,,AUTO
         3 001414   200005 633500                    EPPR3   INFO+1,,AUTO
         3 001415   200525 453500                    STP3    NINE_TRACK_BLNK+9,,AUTO
         3 001416   010764 701000 3                  TSX1    EDAC
         3 001417   000000 011000                    NOP     0

      690     3970    3              CALL ADD_TEXTC(BORD,1);

   3970  3 001420   000056 236000 4                  LDQ     46
         3 001421   200530 756100                    STQ     @CHIP+1,,AUTO
         3 001422   200007 630500                    EPPR0   BORD,,AUTO
         3 001423   200527 450500                    STP0    @BOARD+1,,AUTO
         3 001424   010552 701000 3                  TSX1    ADD_TEXTC
         3 001425   000000 011000                    NOP     0

      691     3971    3              CALL ADD_TEXTC(CHP,3);

   3971  3 001426   000100 236000 4                  LDQ     64
         3 001427   200530 756100                    STQ     @CHIP+1,,AUTO
         3 001430   200006 630500                    EPPR0   CHP,,AUTO
         3 001431   200527 450500                    STP0    @BOARD+1,,AUTO
         3 001432   010552 701000 3                  TSX1    ADD_TEXTC
         3 001433   000000 011000                    NOP     0
         3 001434   007070 710000 3                  TRA     s:4630

      692     3972    3            CASE(%TH_FEPERR);

      693     3973    3              FEPERR_CODE = EL$FEPERR.STATDATA.ERRCODE;

   3973  3 001435   200005 470500                    LDP0    INFO+1,,AUTO
         3 001436   000001 236100                    LDQ     1,,PR0
         3 001437   000056 756000 2                  STQ     FEPERR_CODE

      694     3974    3              IF INFO.BOUND > SIZEC(EL$FEPERR.STATDATA)

PL6.E3A0      #001=THF$RAW File=THF$FORMAT.:E05TSI                               WED 07/30/97 06:08 Page:169
   3974  3 001440   200004 236100                    LDQ     INFO,,AUTO
         3 001441   000034 376000 xsym               ANQ     B_VECTNIL+28
         3 001442   000101 116000 4                  CMPQ    65
         3 001443   001457 602000 3                  TNC     s:3980

      695     3975    4                 THEN DO;                  /* DYNAMIC DATA IS PRESENT            */

      696     3976    4                    NUMBYTES = INFO.BOUND - SIZEC(EL$FEPERR.STATDATA);

   3976  3 001444   200004 236100                    LDQ     INFO,,AUTO
         3 001445   000020 772000                    QRL     16
         3 001446   000044 136007                    SBLQ    36,DL
         3 001447   200103 756100                    STQ     NUMBYTES,,AUTO

      697     3977    4                    CALL ADD_TEXTC(' YES',4);

   3977  3 001450   000041 236000 4                  LDQ     33
         3 001451   200530 756100                    STQ     @CHIP+1,,AUTO
         3 001452   000102 236000 4                  LDQ     66
         3 001453   200527 756100                    STQ     @BOARD+1,,AUTO
         3 001454   010552 701000 3                  TSX1    ADD_TEXTC
         3 001455   000000 011000                    NOP     0

      698     3978    4                 END;

   3978  3 001456   001466 710000 3                  TRA     s:3983

      699     3979    4                 ELSE DO;                  /* NO DYNAMIC DATA                    */

      700     3980    4                    NUMBYTES = 0;

   3980  3 001457   200103 450100                    STZ     NUMBYTES,,AUTO

      701     3981    4                    CALL ADD_TEXTC('  NO',4);

   3981  3 001460   000041 236000 4                  LDQ     33
         3 001461   200530 756100                    STQ     @CHIP+1,,AUTO
PL6.E3A0      #001=THF$RAW File=THF$FORMAT.:E05TSI                               WED 07/30/97 06:08 Page:170
         3 001462   000103 236000 4                  LDQ     67
         3 001463   200527 756100                    STQ     @BOARD+1,,AUTO
         3 001464   010552 701000 3                  TSX1    ADD_TEXTC
         3 001465   000000 011000                    NOP     0

      702     3982    4                 END;

      703     3983    3              CALL ERROR_CODE(FEPERR_CODE);

   3983  3 001466   000104 236000 4                  LDQ     68
         3 001467   200527 756100                    STQ     @BOARD+1,,AUTO
         3 001470   010575 701000 3                  TSX1    ERROR_CODE
         3 001471   000000 011000                    NOP     0

      704     3984    3              ERR_MSG = ' ';

   3984  3 001472   040000 100400                    MLR     fill='040'O
         3 001473   000035 000001 xsym               ADSC9   B_VECTNIL+29             cn=0,n=1
         3 001474   003256 000170 2                  ADSC9   ERR_MSG                  cn=0,n=120

      705     3985    3              CALL M$ERRMSG (ERR_MSGS) ALTRET(NO_MSG);

   3985  3 001475   007424 630400 2                  EPPR0   ERR_MSGS
         3 001476   420000 713400                    CLIMB   alt,+8192
         3 001477   405000 401760                    pmme    nvectors=11
         3 001500   001523 702000 3                  TSX2    NO_MSG

      706     3986    3              I = 0;

   3986  3 001501   200010 450100                    STZ     I,,AUTO

      707     3987    4              DO WHILE (SUBSTR(ERR_MSG,I,1) = ' ');

   3987  3 001502   001504 710000 3                  TRA     s:3989

      708     3988    4                 I = I + 1;

PL6.E3A0      #001=THF$RAW File=THF$FORMAT.:E05TSI                               WED 07/30/97 06:08 Page:171
   3988  3 001503   200010 054100                    AOS     I,,AUTO

      709     3989    4              END;

   3989  3 001504   200010 235100                    LDA     I,,AUTO
         3 001505   040000 106405                    CMPC    fill='040'O
         3 001506   003256 000001 2                  ADSC9   ERR_MSG,A                cn=0,n=1
         3 001507   000035 000001 xsym               ADSC9   B_VECTNIL+29             cn=0,n=1
         3 001510   001503 600000 3                  TZE     s:3988

      710     3990    3              ERR_MSG_T = SUBSTR(ERR_MSG,I,43);

   3990  3 001511   040100 100405                    MLR     fill='040'O
         3 001512   003256 000053 2                  ADSC9   ERR_MSG,A                cn=0,n=43
         3 001513   200466 000053                    ADSC9   ERR_MSG_T,,AUTO          cn=0,n=43

      711     3991    3              CALL ADD_TEXTC (ERR_MSG_T,43);

   3991  3 001514   000106 236000 4                  LDQ     70
         3 001515   200530 756100                    STQ     @CHIP+1,,AUTO
         3 001516   200466 630500                    EPPR0   ERR_MSG_T,,AUTO
         3 001517   200527 450500                    STP0    @BOARD+1,,AUTO
         3 001520   010552 701000 3                  TSX1    ADD_TEXTC
         3 001521   000000 011000                    NOP     0

      712     3992    4              DO NEVER;

   3992  3 001522   007070 710000 3                  TRA     s:4630

      713     3993    4   NO_MSG:       CALL ADD_TEXTC ('NO ERROR MESSAGE',16);

   3993  3 001523   000110 236000 4     NO_MSG       LDQ     72
         3 001524   200530 756100                    STQ     @CHIP+1,,AUTO
         3 001525   000111 236000 4                  LDQ     73
         3 001526   200527 756100                    STQ     @BOARD+1,,AUTO
         3 001527   010552 701000 3                  TSX1    ADD_TEXTC
         3 001530   000000 011000                    NOP     0
PL6.E3A0      #001=THF$RAW File=THF$FORMAT.:E05TSI                               WED 07/30/97 06:08 Page:172

      714     3994    4              END;

   3994  3 001531   007070 710000 3                  TRA     s:4630

      715     3995    3            CASE(%TH_MIRROR);

      716     3996    3              IF EL$MIRROR.PRI

   3996  3 001532   200005 470500                    LDP0    INFO+1,,AUTO
         3 001533   000006 236100                    LDQ     6,,PR0
         3 001534   000040 316003                    CANQ    32,DU
         3 001535   001545 600000 3                  TZE     s:3998

      717     3997    3                 THEN CALL ADD_TEXTC('P',1);

   3997  3 001536   000056 236000 4                  LDQ     46
         3 001537   200530 756100                    STQ     @CHIP+1,,AUTO
         3 001540   000113 236000 4                  LDQ     75
         3 001541   200527 756100                    STQ     @BOARD+1,,AUTO
         3 001542   010552 701000 3                  TSX1    ADD_TEXTC
         3 001543   000000 011000                    NOP     0
         3 001544   001553 710000 3                  TRA     s:3999

      718     3998    3                 ELSE CALL ADD_TEXTC('S',1);

   3998  3 001545   000056 236000 4                  LDQ     46
         3 001546   200530 756100                    STQ     @CHIP+1,,AUTO
         3 001547   000115 236000 4                  LDQ     77
         3 001550   200527 756100                    STQ     @BOARD+1,,AUTO
         3 001551   010552 701000 3                  TSX1    ADD_TEXTC
         3 001552   000000 011000                    NOP     0

      719     3999    4              DO CASE(EL$MIRROR.STATE.NEW);

   3999  3 001553   200005 470500                    LDP0    INFO+1,,AUTO
         3 001554   000006 236100                    LDQ     6,,PR0
PL6.E3A0      #001=THF$RAW File=THF$FORMAT.:E05TSI                               WED 07/30/97 06:08 Page:173
         3 001555   000030 772000                    QRL     24
         3 001556   000077 376007                    ANQ     63,DL
         3 001557   000005 116007                    CMPQ    5,DL
         3 001560   001562 602006 3                  TNC     s:3999+7,QL
         3 001561   007070 710000 3                  TRA     s:4630
         3 001562   001576 710000 3                  TRA     s:4003
         3 001563   001567 710000 3                  TRA     s:4001
         3 001564   001605 710000 3                  TRA     s:4005
         3 001565   001614 710000 3                  TRA     s:4007
         3 001566   001623 710000 3                  TRA     s:4009

      720     4000    4                 CASE(%NI_MIRROR_FAIL);

      721     4001    4                   CALL ADD_TEXTC('FAIL',4);

   4001  3 001567   000041 236000 4                  LDQ     33
         3 001570   200530 756100                    STQ     @CHIP+1,,AUTO
         3 001571   000032 236000 4                  LDQ     26
         3 001572   200527 756100                    STQ     @BOARD+1,,AUTO
         3 001573   010552 701000 3                  TSX1    ADD_TEXTC
         3 001574   000000 011000                    NOP     0
         3 001575   007070 710000 3                  TRA     s:4630

      722     4002    4                 CASE(%NI_MIRROR_OPER);

      723     4003    4                   CALL ADD_TEXTC('OPER',4);

   4003  3 001576   000041 236000 4                  LDQ     33
         3 001577   200530 756100                    STQ     @CHIP+1,,AUTO
         3 001600   000116 236000 4                  LDQ     78
         3 001601   200527 756100                    STQ     @BOARD+1,,AUTO
         3 001602   010552 701000 3                  TSX1    ADD_TEXTC
         3 001603   000000 011000                    NOP     0
         3 001604   007070 710000 3                  TRA     s:4630

      724     4004    4                 CASE(%NI_MIRROR_REST);

PL6.E3A0      #001=THF$RAW File=THF$FORMAT.:E05TSI                               WED 07/30/97 06:08 Page:174
      725     4005    4                   CALL ADD_TEXTC('REST',4);

   4005  3 001605   000041 236000 4                  LDQ     33
         3 001606   200530 756100                    STQ     @CHIP+1,,AUTO
         3 001607   000117 236000 4                  LDQ     79
         3 001610   200527 756100                    STQ     @BOARD+1,,AUTO
         3 001611   010552 701000 3                  TSX1    ADD_TEXTC
         3 001612   000000 011000                    NOP     0
         3 001613   007070 710000 3                  TRA     s:4630

      726     4006    4                 CASE(%NI_MIRROR_WAIT);

      727     4007    4                   CALL ADD_TEXTC('WAIT',4);

   4007  3 001614   000041 236000 4                  LDQ     33
         3 001615   200530 756100                    STQ     @CHIP+1,,AUTO
         3 001616   000120 236000 4                  LDQ     80
         3 001617   200527 756100                    STQ     @BOARD+1,,AUTO
         3 001620   010552 701000 3                  TSX1    ADD_TEXTC
         3 001621   000000 011000                    NOP     0
         3 001622   007070 710000 3                  TRA     s:4630

      728     4008    4                 CASE(%NI_MIRROR_NONE);

      729     4009    4                   CALL ADD_TEXTC('NONE',4);

   4009  3 001623   000041 236000 4                  LDQ     33
         3 001624   200530 756100                    STQ     @CHIP+1,,AUTO
         3 001625   000053 236000 4                  LDQ     43
         3 001626   200527 756100                    STQ     @BOARD+1,,AUTO
         3 001627   010552 701000 3                  TSX1    ADD_TEXTC
         3 001630   000000 011000                    NOP     0

      730     4010    4              END;

   4010  3 001631   007070 710000 3                  TRA     s:4630

PL6.E3A0      #001=THF$RAW File=THF$FORMAT.:E05TSI                               WED 07/30/97 06:08 Page:175
      731     4011    3            CASE(%TH_SYSCON);

      732     4012    4              DO CASE(EL$SYSCON.FUNCTION);

   4012  3 001632   200005 470500                    LDP0    INFO+1,,AUTO
         3 001633   000000 236100                    LDQ     0,,PR0
         3 001634   000033 772000                    QRL     27
         3 001635   000006 116007                    CMPQ    6,DL
         3 001636   001640 602006 3                  TNC     s:4012+6,QL
         3 001637   001710 710000 3                  TRA     s:4024
         3 001640   001710 710000 3                  TRA     s:4024
         3 001641   001646 710000 3                  TRA     s:4014
         3 001642   001655 710000 3                  TRA     s:4016
         3 001643   001664 710000 3                  TRA     s:4018
         3 001644   001673 710000 3                  TRA     s:4020
         3 001645   001702 710000 3                  TRA     s:4022

      733     4013    4                 CASE(1);                  /* PARTITION                          */

      734     4014    4                    CALL ADD_TEXTC('PARTITION',9);

   4014  3 001646   000043 236000 4                  LDQ     35
         3 001647   200530 756100                    STQ     @CHIP+1,,AUTO
         3 001650   000121 236000 4                  LDQ     81
         3 001651   200527 756100                    STQ     @BOARD+1,,AUTO
         3 001652   010552 701000 3                  TSX1    ADD_TEXTC
         3 001653   000000 011000                    NOP     0
         3 001654   001710 710000 3                  TRA     s:4024

      735     4015    4                 CASE(2);                  /* RETURN                             */

      736     4016    4                    CALL ADD_TEXTC('RETURN',6);

   4016  3 001655   000031 236000 4                  LDQ     25
         3 001656   200530 756100                    STQ     @CHIP+1,,AUTO
         3 001657   000122 236000 4                  LDQ     82
         3 001660   200527 756100                    STQ     @BOARD+1,,AUTO
PL6.E3A0      #001=THF$RAW File=THF$FORMAT.:E05TSI                               WED 07/30/97 06:08 Page:176
         3 001661   010552 701000 3                  TSX1    ADD_TEXTC
         3 001662   000000 011000                    NOP     0
         3 001663   001710 710000 3                  TRA     s:4024

      737     4017    4                 CASE(3);                   /* DISPLAY */

      738     4018    4                    CALL ADD_TEXTC('DISPLAY',7);

   4018  3 001664   000014 236000 4                  LDQ     12
         3 001665   200530 756100                    STQ     @CHIP+1,,AUTO
         3 001666   000123 236000 4                  LDQ     83
         3 001667   200527 756100                    STQ     @BOARD+1,,AUTO
         3 001670   010552 701000 3                  TSX1    ADD_TEXTC
         3 001671   000000 011000                    NOP     0
         3 001672   001710 710000 3                  TRA     s:4024

      739     4019    4                 CASE(4);                  /* SETFLAG */

      740     4020    4                    CALL ADD_TEXTC('SETFLAG',7);

   4020  3 001673   000014 236000 4                  LDQ     12
         3 001674   200530 756100                    STQ     @CHIP+1,,AUTO
         3 001675   000124 236000 4                  LDQ     84
         3 001676   200527 756100                    STQ     @BOARD+1,,AUTO
         3 001677   010552 701000 3                  TSX1    ADD_TEXTC
         3 001700   000000 011000                    NOP     0
         3 001701   001710 710000 3                  TRA     s:4024

      741     4021    4                 CASE(5);                    /* RELEASE */

      742     4022    4                    CALL ADD_TEXTC('RELEASE',7);

   4022  3 001702   000014 236000 4                  LDQ     12
         3 001703   200530 756100                    STQ     @CHIP+1,,AUTO
         3 001704   000125 236000 4                  LDQ     85
         3 001705   200527 756100                    STQ     @BOARD+1,,AUTO
         3 001706   010552 701000 3                  TSX1    ADD_TEXTC
PL6.E3A0      #001=THF$RAW File=THF$FORMAT.:E05TSI                               WED 07/30/97 06:08 Page:177
         3 001707   000000 011000                    NOP     0

      743     4023    4              END;                         /* CASE FUNCTION                      */

      744     4024    4              DO CASE(EL$SYSCON.COMPONENT);

   4024  3 001710   200005 470500                    LDP0    INFO+1,,AUTO
         3 001711   000000 220100                    LDX0    0,,PR0
         3 001712   000777 360003                    ANX0    511,DU
         3 001713   000010 100003                    CMPX0   8,DU
         3 001714   001716 602010 3                  TNC     s:4024+6,X0
         3 001715   007070 710000 3                  TRA     s:4630
         3 001716   002426 710000 3                  TRA     s:4104
         3 001717   001726 710000 3                  TRA     s:4026
         3 001720   002076 710000 3                  TRA     s:4059
         3 001721   002122 710000 3                  TRA     s:4063
         3 001722   002146 710000 3                  TRA     s:4067
         3 001723   002243 710000 3                  TRA     s:4084
         3 001724   002311 710000 3                  TRA     s:4091
         3 001725   002360 710000 3                  TRA     s:4098

      745     4025    4                CASE(%CHANNEL#);               /* CHANNEL                           */

      746     4026    4                   CALL ADD_TEXTC('CHAN',4);

   4026  3 001726   000041 236000 4                  LDQ     33
         3 001727   200530 756100                    STQ     @CHIP+1,,AUTO
         3 001730   000126 236000 4                  LDQ     86
         3 001731   200527 756100                    STQ     @BOARD+1,,AUTO
         3 001732   010552 701000 3                  TSX1    ADD_TEXTC
         3 001733   000000 011000                    NOP     0

      747     4027    4                   STRT = 0;

   4027  3 001734   200101 450100                    STZ     STRT,,AUTO

      748     4028    4                   CALL BINCHAR(TEMP1,EL$SYSCON.IOM);
PL6.E3A0      #001=THF$RAW File=THF$FORMAT.:E05TSI                               WED 07/30/97 06:08 Page:178

   4028  3 001735   200005 470500                    LDP0    INFO+1,,AUTO
         3 001736   000000 236100                    LDQ     0,,PR0
         3 001737   000011 772000                    QRL     9
         3 001740   000777 376007                    ANQ     511,DL
         3 001741   000000 235003                    LDA     0,DU
         3 001742   200534 757100                    STAQ    CHIP#+2,,AUTO
         3 001743   000100 301500                    BTD
         3 001744   200534 000010                    NDSC9   CHIP#+2,,AUTO            cn=0,s=lsgnf,sf=0,n=8
         3 001745   200037 030077                    NDSC9   TEMP1,,AUTO              cn=0,s=nosgn,sf=0,n=63

      749     4029    4                   J = 0;

   4029  3 001746   200100 450100                    STZ     J,,AUTO

      750     4030    5                   DO WHILE (SUBSTR(TEMP1,J,1) = '0');

   4030  3 001747   001753 710000 3                  TRA     s:4032

      751     4031    5                      J = J + 1;

   4031  3 001750   200100 235100                    LDA     J,,AUTO
         3 001751   000001 035007                    ADLA    1,DL
         3 001752   200100 755100                    STA     J,,AUTO

      752     4032    5                   END;                    /* DO WHILE                           */

   4032  3 001753   200100 235100                    LDA     J,,AUTO
         3 001754   040000 106505                    CMPC    fill='040'O
         3 001755   200037 000001                    ADSC9   TEMP1,A,AUTO             cn=0,n=1
         3 001756   000127 000001 4                  ADSC9   87                       cn=0,n=1
         3 001757   001750 600000 3                  TZE     s:4031

      753     4033    4                   LEN = 63 - J;

   4033  3 001760   000027 675000 xsym               ERA     B_VECTNIL+23
         3 001761   000100 035007                    ADLA    64,DL
PL6.E3A0      #001=THF$RAW File=THF$FORMAT.:E05TSI                               WED 07/30/97 06:08 Page:179
         3 001762   200102 755100                    STA     LEN,,AUTO

      754     4034    4                   IF LEN = 0

   4034  3 001763   001767 601000 3                  TNZ     s:4040

      755     4035    4                      THEN
      756     4036    5                      DO;

      757     4037    5                         LEN = 1;

   4037  3 001764   000001 236007                    LDQ     1,DL
         3 001765   200102 756100                    STQ     LEN,,AUTO

      758     4038    5                         J = 0;

   4038  3 001766   200100 450100                    STZ     J,,AUTO

      759     4039    5                      END;                 /* IF LEN = 0                         */

      760     4040    4                   CALL INSERT(TEMP2,STRT,LEN+1,SUBSTR(TEMP1,J,LEN),'-');

   4040  3 001767   200102 720100                    LXL0    LEN,,AUTO
         3 001770   000001 621010                    EAX1    1,X0
         3 001771   200102 722100                    LXL2    LEN,,AUTO
         3 001772   200100 235100                    LDA     J,,AUTO
         3 001773   200101 236100                    LDQ     STRT,,AUTO
         3 001774   040146 100545                    MLR     fill='040'O
         3 001775   200037 000012                    ADSC9   TEMP1,A,AUTO             cn=0,n=*X2
         3 001776   200057 000011                    ADSC9   TEMP2,Q,AUTO             cn=0,n=*X1
         3 001777   200102 236100                    LDQ     LEN,,AUTO
         3 002000   200102 136100                    SBLQ    LEN,,AUTO
         3 002001   000027 116000 xsym               CMPQ    B_VECTNIL+23
         3 002002   002013 604400 3                  TMOZ    s:4041
         3 002003   200534 756100                    STQ     CHIP#+2,,AUTO
         3 002004   200101 236100                    LDQ     STRT,,AUTO
         3 002005   200102 036100                    ADLQ    LEN,,AUTO
PL6.E3A0      #001=THF$RAW File=THF$FORMAT.:E05TSI                               WED 07/30/97 06:08 Page:180
         3 002006   200534 720100                    LXL0    CHIP#+2,,AUTO
         3 002007   000001 621010                    EAX1    1,X0
         3 002010   040146 100400                    MLR     fill='040'O
         3 002011   000130 000001 4                  ADSC9   88                       cn=0,n=1
         3 002012   200057 000011                    ADSC9   TEMP2,Q,AUTO             cn=0,n=*X1

      761     4041    4                   STRT = STRT + LEN + 1;

   4041  3 002013   200101 236100                    LDQ     STRT,,AUTO
         3 002014   200102 036100                    ADLQ    LEN,,AUTO
         3 002015   000001 036007                    ADLQ    1,DL
         3 002016   200101 756100                    STQ     STRT,,AUTO

      762     4042    4                   CALL BINCHAR(TEMP1,EL$SYSCON.CHAN);

   4042  3 002017   200005 470500                    LDP0    INFO+1,,AUTO
         3 002020   000000 236100                    LDQ     0,,PR0
         3 002021   000777 376007                    ANQ     511,DL
         3 002022   000000 235003                    LDA     0,DU
         3 002023   200534 757100                    STAQ    CHIP#+2,,AUTO
         3 002024   000100 301500                    BTD
         3 002025   200534 000010                    NDSC9   CHIP#+2,,AUTO            cn=0,s=lsgnf,sf=0,n=8
         3 002026   200037 030077                    NDSC9   TEMP1,,AUTO              cn=0,s=nosgn,sf=0,n=63

      763     4043    4                   J = 0;

   4043  3 002027   200100 450100                    STZ     J,,AUTO

      764     4044    5                   DO WHILE (SUBSTR(TEMP1,J,1) = '0');

   4044  3 002030   002034 710000 3                  TRA     s:4046

      765     4045    5                       J = J + 1;

   4045  3 002031   200100 235100                    LDA     J,,AUTO
         3 002032   000001 035007                    ADLA    1,DL
         3 002033   200100 755100                    STA     J,,AUTO
PL6.E3A0      #001=THF$RAW File=THF$FORMAT.:E05TSI                               WED 07/30/97 06:08 Page:181

      766     4046    5                   END;                    /* DO WHILE                           */

   4046  3 002034   200100 235100                    LDA     J,,AUTO
         3 002035   040000 106505                    CMPC    fill='040'O
         3 002036   200037 000001                    ADSC9   TEMP1,A,AUTO             cn=0,n=1
         3 002037   000127 000001 4                  ADSC9   87                       cn=0,n=1
         3 002040   002031 600000 3                  TZE     s:4045

      767     4047    4                   LEN = 63 - J;

   4047  3 002041   000027 675000 xsym               ERA     B_VECTNIL+23
         3 002042   000100 035007                    ADLA    64,DL
         3 002043   200102 755100                    STA     LEN,,AUTO

      768     4048    4                   IF LEN = 0

   4048  3 002044   002050 601000 3                  TNZ     s:4054

      769     4049    4                      THEN
      770     4050    5                      DO;

      771     4051    5                         LEN = 1;

   4051  3 002045   000001 236007                    LDQ     1,DL
         3 002046   200102 756100                    STQ     LEN,,AUTO

      772     4052    5                         J = 0;

   4052  3 002047   200100 450100                    STZ     J,,AUTO

      773     4053    5                      END;                 /* IF LEN = 0                         */

      774     4054    4                   CALL INSERT(TEMP2,STRT,LEN,SUBSTR(TEMP1,J,LEN));

   4054  3 002050   200102 720100                    LXL0    LEN,,AUTO
         3 002051   200100 235100                    LDA     J,,AUTO
PL6.E3A0      #001=THF$RAW File=THF$FORMAT.:E05TSI                               WED 07/30/97 06:08 Page:182
         3 002052   200101 236100                    LDQ     STRT,,AUTO
         3 002053   040146 100545                    MLR     fill='040'O
         3 002054   200037 000010                    ADSC9   TEMP1,A,AUTO             cn=0,n=*X0
         3 002055   200057 000010                    ADSC9   TEMP2,Q,AUTO             cn=0,n=*X0

      775     4055    4                   STRT = STRT + LEN;

   4055  3 002056   200101 236100                    LDQ     STRT,,AUTO
         3 002057   200102 036100                    ADLQ    LEN,,AUTO
         3 002060   200101 756100                    STQ     STRT,,AUTO

      776     4056    4                   CALL ADD_TEXTC(TEMP2,STRT);

   4056  3 002061   200101 630500                    EPPR0   STRT,,AUTO
         3 002062   200530 450500                    STP0    @CHIP+1,,AUTO
         3 002063   200057 631500                    EPPR1   TEMP2,,AUTO
         3 002064   200527 451500                    STP1    @BOARD+1,,AUTO
         3 002065   010552 701000 3                  TSX1    ADD_TEXTC
         3 002066   000000 011000                    NOP     0

      777     4057    4                   CALL ADD_TEXTC(' ',1);

   4057  3 002067   000056 236000 4                  LDQ     46
         3 002070   200530 756100                    STQ     @CHIP+1,,AUTO
         3 002071   000057 236000 4                  LDQ     47
         3 002072   200527 756100                    STQ     @BOARD+1,,AUTO
         3 002073   010552 701000 3                  TSX1    ADD_TEXTC
         3 002074   000000 011000                    NOP     0
         3 002075   007070 710000 3                  TRA     s:4630

      778     4058    4                CASE(%DVC#);                   /* DEVICE                            */

      779     4059    4                   CALL ADD_TEXTC('DVC',3);

   4059  3 002076   000100 236000 4                  LDQ     64
         3 002077   200530 756100                    STQ     @CHIP+1,,AUTO
         3 002100   000131 236000 4                  LDQ     89
PL6.E3A0      #001=THF$RAW File=THF$FORMAT.:E05TSI                               WED 07/30/97 06:08 Page:183
         3 002101   200527 756100                    STQ     @BOARD+1,,AUTO
         3 002102   010552 701000 3                  TSX1    ADD_TEXTC
         3 002103   000000 011000                    NOP     0

      780     4060    4                   CALL ADD_TEXTC(' ',1);

   4060  3 002104   000056 236000 4                  LDQ     46
         3 002105   200530 756100                    STQ     @CHIP+1,,AUTO
         3 002106   000057 236000 4                  LDQ     47
         3 002107   200527 756100                    STQ     @BOARD+1,,AUTO
         3 002110   010552 701000 3                  TSX1    ADD_TEXTC
         3 002111   000000 011000                    NOP     0

      781     4061    4                   CALL ADD_TEXTC(EL$SYSCON.DEVNM,8);

   4061  3 002112   000025 236000 4                  LDQ     21
         3 002113   200530 756100                    STQ     @CHIP+1,,AUTO
         3 002114   200005 236100                    LDQ     INFO+1,,AUTO
         3 002115   000001 036003                    ADLQ    1,DU
         3 002116   200527 756100                    STQ     @BOARD+1,,AUTO
         3 002117   010552 701000 3                  TSX1    ADD_TEXTC
         3 002120   000000 011000                    NOP     0
         3 002121   007070 710000 3                  TRA     s:4630

      782     4062    4                CASE(%MPC#);                   /* MPC                               */

      783     4063    4                   CALL ADD_TEXTC('MPC',3);

   4063  3 002122   000100 236000 4                  LDQ     64
         3 002123   200530 756100                    STQ     @CHIP+1,,AUTO
         3 002124   000132 236000 4                  LDQ     90
         3 002125   200527 756100                    STQ     @BOARD+1,,AUTO
         3 002126   010552 701000 3                  TSX1    ADD_TEXTC
         3 002127   000000 011000                    NOP     0

      784     4064    4                   CALL ADD_TEXTC(' ',1);

PL6.E3A0      #001=THF$RAW File=THF$FORMAT.:E05TSI                               WED 07/30/97 06:08 Page:184
   4064  3 002130   000056 236000 4                  LDQ     46
         3 002131   200530 756100                    STQ     @CHIP+1,,AUTO
         3 002132   000057 236000 4                  LDQ     47
         3 002133   200527 756100                    STQ     @BOARD+1,,AUTO
         3 002134   010552 701000 3                  TSX1    ADD_TEXTC
         3 002135   000000 011000                    NOP     0

      785     4065    4                   CALL ADD_TEXTC(EL$SYSCON.DEVNM,8);

   4065  3 002136   000025 236000 4                  LDQ     21
         3 002137   200530 756100                    STQ     @CHIP+1,,AUTO
         3 002140   200005 236100                    LDQ     INFO+1,,AUTO
         3 002141   000001 036003                    ADLQ    1,DU
         3 002142   200527 756100                    STQ     @BOARD+1,,AUTO
         3 002143   010552 701000 3                  TSX1    ADD_TEXTC
         3 002144   000000 011000                    NOP     0
         3 002145   007070 710000 3                  TRA     s:4630

      786     4066    4                CASE(%FEP##);                  /* FEP                               */

      787     4067    4                   CALL ADD_TEXTC('FEP',3);

   4067  3 002146   000100 236000 4                  LDQ     64
         3 002147   200530 756100                    STQ     @CHIP+1,,AUTO
         3 002150   000133 236000 4                  LDQ     91
         3 002151   200527 756100                    STQ     @BOARD+1,,AUTO
         3 002152   010552 701000 3                  TSX1    ADD_TEXTC
         3 002153   000000 011000                    NOP     0

      788     4068    4                   CALL BINCHAR(TEMP1,EL$SYSCON.CHAN);

   4068  3 002154   200005 470500                    LDP0    INFO+1,,AUTO
         3 002155   000000 236100                    LDQ     0,,PR0
         3 002156   000777 376007                    ANQ     511,DL
         3 002157   000000 235003                    LDA     0,DU
         3 002160   200534 757100                    STAQ    CHIP#+2,,AUTO
         3 002161   000100 301500                    BTD
PL6.E3A0      #001=THF$RAW File=THF$FORMAT.:E05TSI                               WED 07/30/97 06:08 Page:185
         3 002162   200534 000010                    NDSC9   CHIP#+2,,AUTO            cn=0,s=lsgnf,sf=0,n=8
         3 002163   200037 030077                    NDSC9   TEMP1,,AUTO              cn=0,s=nosgn,sf=0,n=63

      789     4069    4                   J = 0;

   4069  3 002164   200100 450100                    STZ     J,,AUTO

      790     4070    5                   DO WHILE (SUBSTR(TEMP1,J,1) = '0');

   4070  3 002165   002171 710000 3                  TRA     s:4072

      791     4071    5                      J = J + 1;

   4071  3 002166   200100 235100                    LDA     J,,AUTO
         3 002167   000001 035007                    ADLA    1,DL
         3 002170   200100 755100                    STA     J,,AUTO

      792     4072    5                   END;                    /* DO WHILE                           */

   4072  3 002171   200100 235100                    LDA     J,,AUTO
         3 002172   040000 106505                    CMPC    fill='040'O
         3 002173   200037 000001                    ADSC9   TEMP1,A,AUTO             cn=0,n=1
         3 002174   000127 000001 4                  ADSC9   87                       cn=0,n=1
         3 002175   002166 600000 3                  TZE     s:4071

      793     4073    4                   LEN = 63 - J;

   4073  3 002176   000027 675000 xsym               ERA     B_VECTNIL+23
         3 002177   000100 035007                    ADLA    64,DL
         3 002200   200102 755100                    STA     LEN,,AUTO

      794     4074    4                   IF LEN = 0

   4074  3 002201   002205 601000 3                  TNZ     s:4080

      795     4075    4                      THEN
      796     4076    5                      DO;
PL6.E3A0      #001=THF$RAW File=THF$FORMAT.:E05TSI                               WED 07/30/97 06:08 Page:186

      797     4077    5                         LEN = 1;

   4077  3 002202   000001 236007                    LDQ     1,DL
         3 002203   200102 756100                    STQ     LEN,,AUTO

      798     4078    5                         J = 0;

   4078  3 002204   200100 450100                    STZ     J,,AUTO

      799     4079    5                      END;                 /* IF LEN = 0                         */

      800     4080    4                   CALL INSERT(TEMP2,0,LEN+4,'FEP#',SUBSTR(TEMP1,J,LEN));

   4080  3 002205   200102 720100                    LXL0    LEN,,AUTO
         3 002206   000004 621010                    EAX1    4,X0
         3 002207   040140 100400                    MLR     fill='040'O
         3 002210   001055 000004 1                  ADSC9   BOARD_64K+110            cn=0,n=4
         3 002211   200057 000011                    ADSC9   TEMP2,,AUTO              cn=0,n=*X1
         3 002212   200102 236100                    LDQ     LEN,,AUTO
         3 002213   000000 116003                    CMPQ    0,DU
         3 002214   002223 604400 3                  TMOZ    s:4081
         3 002215   000000 620006                    EAX0    0,QL
         3 002216   200100 235100                    LDA     J,,AUTO
         3 002217   200102 721100                    LXL1    LEN,,AUTO
         3 002220   040140 100545                    MLR     fill='040'O
         3 002221   200037 000010                    ADSC9   TEMP1,A,AUTO             cn=0,n=*X0
         3 002222   200060 000011                    ADSC9   TEMP2+1,,AUTO            cn=0,n=*X1

      801     4081    4                   CALL ADD_TEXTC(TEMP2,LEN+4);

   4081  3 002223   200102 235100                    LDA     LEN,,AUTO
         3 002224   000004 035007                    ADLA    4,DL
         3 002225   200553 755100                    STA     CHIP#+17,,AUTO
         3 002226   200553 630500                    EPPR0   CHIP#+17,,AUTO
         3 002227   200530 450500                    STP0    @CHIP+1,,AUTO
         3 002230   200057 631500                    EPPR1   TEMP2,,AUTO
PL6.E3A0      #001=THF$RAW File=THF$FORMAT.:E05TSI                               WED 07/30/97 06:08 Page:187
         3 002231   200527 451500                    STP1    @BOARD+1,,AUTO
         3 002232   010552 701000 3                  TSX1    ADD_TEXTC
         3 002233   000000 011000                    NOP     0

      802     4082    4                   CALL ADD_TEXTC(' ',1);

   4082  3 002234   000056 236000 4                  LDQ     46
         3 002235   200530 756100                    STQ     @CHIP+1,,AUTO
         3 002236   000057 236000 4                  LDQ     47
         3 002237   200527 756100                    STQ     @BOARD+1,,AUTO
         3 002240   010552 701000 3                  TSX1    ADD_TEXTC
         3 002241   000000 011000                    NOP     0
         3 002242   007070 710000 3                  TRA     s:4630

      803     4083    4                CASE(%IOM##);                      /* IOM           */

      804     4084    4                   IOM_DEVN = ' ';

   4084  3 002243   000035 235000 xsym               LDA     B_VECTNIL+29
         3 002244   000035 236000 xsym               LDQ     B_VECTNIL+29
         3 002245   200403 755100                    STA     IOM_DEVN,,AUTO
         3 002246   200404 756100                    STQ     IOM_DEVN+1,,AUTO

      805     4085    4                   CALL BINCHAR(IOMN,EL$SYSCON.IOM);

   4085  3 002247   000000 236100                    LDQ     0,,PR0
         3 002250   000011 772000                    QRL     9
         3 002251   000777 376007                    ANQ     511,DL
         3 002252   000000 235003                    LDA     0,DU
         3 002253   200534 757100                    STAQ    CHIP#+2,,AUTO
         3 002254   000100 301500                    BTD
         3 002255   200534 000010                    NDSC9   CHIP#+2,,AUTO            cn=0,s=lsgnf,sf=0,n=8
         3 002256   200400 030001                    NDSC9   IOMN,,AUTO               cn=0,s=nosgn,sf=0,n=1

      806     4086    4                   CALL CONCAT(IOM_DEVN,'IOM',IOMN);

   4086  3 002257   001056 236000 1                  LDQ     BOARD_64K+111
PL6.E3A0      #001=THF$RAW File=THF$FORMAT.:E05TSI                               WED 07/30/97 06:08 Page:188
         3 002260   000134 376000 4                  ANQ     92
         3 002261   000040 276007                    ORQ     32,DL
         3 002262   200403 756100                    STQ     IOM_DEVN,,AUTO
         3 002263   040100 100500                    MLR     fill='040'O
         3 002264   200400 000001                    ADSC9   IOMN,,AUTO               cn=0,n=1
         3 002265   200403 600005                    ADSC9   IOM_DEVN,,AUTO           cn=3,n=5

      807     4087    4                   CALL ADD_TEXTC('IOM',3);

   4087  3 002266   000100 236000 4                  LDQ     64
         3 002267   200530 756100                    STQ     @CHIP+1,,AUTO
         3 002270   000135 236000 4                  LDQ     93
         3 002271   200527 756100                    STQ     @BOARD+1,,AUTO
         3 002272   010552 701000 3                  TSX1    ADD_TEXTC
         3 002273   000000 011000                    NOP     0

      808     4088    4                   CALL ADD_TEXTC(' ',1);

   4088  3 002274   000056 236000 4                  LDQ     46
         3 002275   200530 756100                    STQ     @CHIP+1,,AUTO
         3 002276   000057 236000 4                  LDQ     47
         3 002277   200527 756100                    STQ     @BOARD+1,,AUTO
         3 002300   010552 701000 3                  TSX1    ADD_TEXTC
         3 002301   000000 011000                    NOP     0

      809     4089    4                   CALL ADD_TEXTC(IOM_DEVN,8);

   4089  3 002302   000025 236000 4                  LDQ     21
         3 002303   200530 756100                    STQ     @CHIP+1,,AUTO
         3 002304   200403 630500                    EPPR0   IOM_DEVN,,AUTO
         3 002305   200527 450500                    STP0    @BOARD+1,,AUTO
         3 002306   010552 701000 3                  TSX1    ADD_TEXTC
         3 002307   000000 011000                    NOP     0
         3 002310   007070 710000 3                  TRA     s:4630

      810     4090    4                CASE(%CPU##);

PL6.E3A0      #001=THF$RAW File=THF$FORMAT.:E05TSI                               WED 07/30/97 06:08 Page:189
      811     4091    4                   CALL ADD_TEXTC('CPU',3);

   4091  3 002311   000100 236000 4                  LDQ     64
         3 002312   200530 756100                    STQ     @CHIP+1,,AUTO
         3 002313   000136 236000 4                  LDQ     94
         3 002314   200527 756100                    STQ     @BOARD+1,,AUTO
         3 002315   010552 701000 3                  TSX1    ADD_TEXTC
         3 002316   000000 011000                    NOP     0

      812     4092    4                   CALL ADD_TEXTC(' ',1);

   4092  3 002317   000056 236000 4                  LDQ     46
         3 002320   200530 756100                    STQ     @CHIP+1,,AUTO
         3 002321   000057 236000 4                  LDQ     47
         3 002322   200527 756100                    STQ     @BOARD+1,,AUTO
         3 002323   010552 701000 3                  TSX1    ADD_TEXTC
         3 002324   000000 011000                    NOP     0

      813     4093    4                   CPU_DEVN = ' ';

   4093  3 002325   000035 235000 xsym               LDA     B_VECTNIL+29
         3 002326   000035 236000 xsym               LDQ     B_VECTNIL+29
         3 002327   200405 755100                    STA     CPU_DEVN,,AUTO
         3 002330   200406 756100                    STQ     CPU_DEVN+1,,AUTO

      814     4094    4                   CALL BINCHAR(CPUN, EL$SYSCON.IOM);   /* CPU PORT # */

   4094  3 002331   200005 470500                    LDP0    INFO+1,,AUTO
         3 002332   000000 236100                    LDQ     0,,PR0
         3 002333   000011 772000                    QRL     9
         3 002334   000777 376007                    ANQ     511,DL
         3 002335   000000 235003                    LDA     0,DU
         3 002336   200534 757100                    STAQ    CHIP#+2,,AUTO
         3 002337   000100 301500                    BTD
         3 002340   200534 000010                    NDSC9   CHIP#+2,,AUTO            cn=0,s=lsgnf,sf=0,n=8
         3 002341   200401 030001                    NDSC9   CPUN,,AUTO               cn=0,s=nosgn,sf=0,n=1

PL6.E3A0      #001=THF$RAW File=THF$FORMAT.:E05TSI                               WED 07/30/97 06:08 Page:190
      815     4095    4                   CALL CONCAT(CPU_DEVN, 'CPU', CPUN);

   4095  3 002342   001057 236000 1                  LDQ     BOARD_64K+112
         3 002343   000134 376000 4                  ANQ     92
         3 002344   000040 276007                    ORQ     32,DL
         3 002345   200405 756100                    STQ     CPU_DEVN,,AUTO
         3 002346   040100 100500                    MLR     fill='040'O
         3 002347   200401 000001                    ADSC9   CPUN,,AUTO               cn=0,n=1
         3 002350   200405 600005                    ADSC9   CPU_DEVN,,AUTO           cn=3,n=5

      816     4096    4                   CALL ADD_TEXTC(CPU_DEVN,8);

   4096  3 002351   000025 236000 4                  LDQ     21
         3 002352   200530 756100                    STQ     @CHIP+1,,AUTO
         3 002353   200405 630500                    EPPR0   CPU_DEVN,,AUTO
         3 002354   200527 450500                    STP0    @BOARD+1,,AUTO
         3 002355   010552 701000 3                  TSX1    ADD_TEXTC
         3 002356   000000 011000                    NOP     0
         3 002357   007070 710000 3                  TRA     s:4630

      817     4097    4                CASE(%SCU##);

      818     4098    4                   CALL ADD_TEXTC('SCU', 3);

   4098  3 002360   000100 236000 4                  LDQ     64
         3 002361   200530 756100                    STQ     @CHIP+1,,AUTO
         3 002362   000137 236000 4                  LDQ     95
         3 002363   200527 756100                    STQ     @BOARD+1,,AUTO
         3 002364   010552 701000 3                  TSX1    ADD_TEXTC
         3 002365   000000 011000                    NOP     0

      819     4099    4                   CALL ADD_TEXTC(' ', 1);

   4099  3 002366   000056 236000 4                  LDQ     46
         3 002367   200530 756100                    STQ     @CHIP+1,,AUTO
         3 002370   000057 236000 4                  LDQ     47
         3 002371   200527 756100                    STQ     @BOARD+1,,AUTO
PL6.E3A0      #001=THF$RAW File=THF$FORMAT.:E05TSI                               WED 07/30/97 06:08 Page:191
         3 002372   010552 701000 3                  TSX1    ADD_TEXTC
         3 002373   000000 011000                    NOP     0

      820     4100    4                   SCU_DEVN = ' ';

   4100  3 002374   000035 235000 xsym               LDA     B_VECTNIL+29
         3 002375   000035 236000 xsym               LDQ     B_VECTNIL+29
         3 002376   200407 755100                    STA     SCU_DEVN,,AUTO
         3 002377   200410 756100                    STQ     SCU_DEVN+1,,AUTO

      821     4101    4                   CALL BINCHAR(SCUN, EL$SYSCON.IOM);   /* SCU PORT # */

   4101  3 002400   200005 470500                    LDP0    INFO+1,,AUTO
         3 002401   000000 236100                    LDQ     0,,PR0
         3 002402   000011 772000                    QRL     9
         3 002403   000777 376007                    ANQ     511,DL
         3 002404   000000 235003                    LDA     0,DU
         3 002405   200534 757100                    STAQ    CHIP#+2,,AUTO
         3 002406   000100 301500                    BTD
         3 002407   200534 000010                    NDSC9   CHIP#+2,,AUTO            cn=0,s=lsgnf,sf=0,n=8
         3 002410   200402 030001                    NDSC9   SCUN,,AUTO               cn=0,s=nosgn,sf=0,n=1

      822     4102    4                   CALL CONCAT(SCU_DEVN,'SCU',SCUN);

   4102  3 002411   001060 236000 1                  LDQ     BOARD_64K+113
         3 002412   000134 376000 4                  ANQ     92
         3 002413   000040 276007                    ORQ     32,DL
         3 002414   200407 756100                    STQ     SCU_DEVN,,AUTO
         3 002415   040100 100500                    MLR     fill='040'O
         3 002416   200402 000001                    ADSC9   SCUN,,AUTO               cn=0,n=1
         3 002417   200407 600005                    ADSC9   SCU_DEVN,,AUTO           cn=3,n=5

      823     4103    4                   CALL ADD_TEXTC(SCU_DEVN,8);

   4103  3 002420   000025 236000 4                  LDQ     21
         3 002421   200530 756100                    STQ     @CHIP+1,,AUTO
         3 002422   200407 630500                    EPPR0   SCU_DEVN,,AUTO
PL6.E3A0      #001=THF$RAW File=THF$FORMAT.:E05TSI                               WED 07/30/97 06:08 Page:192
         3 002423   200527 450500                    STP0    @BOARD+1,,AUTO
         3 002424   010552 701000 3                  TSX1    ADD_TEXTC
         3 002425   000000 011000                    NOP     0

      824     4104    4              END;                         /* CASE COMPONENT                     */

   4104  3 002426   007070 710000 3                  TRA     s:4630

      825     4105    3            CASE(%TH_SYSID);

      826     4106    3              CALL BUILDTIME(EL$SYSID.MON_UTS#);

   4106  3 002427   200005 236100                    LDQ     INFO+1,,AUTO
         3 002430   000065 036003                    ADLQ    53,DU
         3 002431   200525 756100                    STQ     NINE_TRACK_BLNK+9,,AUTO
         3 002432   010514 701000 3                  TSX1    BUILDTIME
         3 002433   000000 011000                    NOP     0

      827     4107    3              LEN = EL$SYSID.SITE_NAME#.L;

   4107  3 002434   200005 470500                    LDP0    INFO+1,,AUTO
         3 002435   000001 236100                    LDQ     1,,PR0
         3 002436   000033 772000                    QRL     27
         3 002437   200102 756100                    STQ     LEN,,AUTO

      828     4108    3              CALL ADD_TEXTC(SUBSTR(EL$SYSID.SITE_NAME#.C,0,LEN),LEN);

   4108  3 002440   200102 631500                    EPPR1   LEN,,AUTO
         3 002441   200530 451500                    STP1    @CHIP+1,,AUTO
         3 002442   200005 236100                    LDQ     INFO+1,,AUTO
         3 002443   000140 036000 4                  ADLQ    96
         3 002444   200527 756100                    STQ     @BOARD+1,,AUTO
         3 002445   010552 701000 3                  TSX1    ADD_TEXTC
         3 002446   000000 011000                    NOP     0
         3 002447   007070 710000 3                  TRA     s:4630

      829     4109    3            CASE(%TH_ANLZ);
PL6.E3A0      #001=THF$RAW File=THF$FORMAT.:E05TSI                               WED 07/30/97 06:08 Page:193

      830     4110    3              I = 119;

   4110  3 002450   000167 235007                    LDA     119,DL
         3 002451   200010 755100                    STA     I,,AUTO

      831     4111    4              DO WHILE (SUBSTR(EL$ANLZ.TXT,I,1) = ' ');

   4111  3 002452   002455 710000 3                  TRA     s:4113

      832     4112    4                 I = I - 1;

   4112  3 002453   000001 336007                    LCQ     1,DL
         3 002454   200010 056100                    ASQ     I,,AUTO

      833     4113    4              END;

   4113  3 002455   200005 470500                    LDP0    INFO+1,,AUTO
         3 002456   200010 235100                    LDA     I,,AUTO
         3 002457   040000 106505                    CMPC    fill='040'O
         3 002460   000007 000001                    ADSC9   7,A,PR0                  cn=0,n=1
         3 002461   000035 000001 xsym               ADSC9   B_VECTNIL+29             cn=0,n=1
         3 002462   002453 600000 3                  TZE     s:4112

      834     4114    3              CALL ADD_TEXTC(SUBSTR(EL$ANLZ.TXT,0,I+1),I+1);

   4114  3 002463   000001 035007                    ADLA    1,DL
         3 002464   200554 755100                    STA     CHIP#+18,,AUTO
         3 002465   200554 631500                    EPPR1   CHIP#+18,,AUTO
         3 002466   200530 451500                    STP1    @CHIP+1,,AUTO
         3 002467   200005 236100                    LDQ     INFO+1,,AUTO
         3 002470   000007 036003                    ADLQ    7,DU
         3 002471   200527 756100                    STQ     @BOARD+1,,AUTO
         3 002472   010552 701000 3                  TSX1    ADD_TEXTC
         3 002473   000000 011000                    NOP     0
         3 002474   007070 710000 3                  TRA     s:4630

PL6.E3A0      #001=THF$RAW File=THF$FORMAT.:E05TSI                               WED 07/30/97 06:08 Page:194
      835     4115    3            CASE(%TH_FEPEVENT);

      836     4116    4              DO CASE(EL$FECRASH.FENM.PROBLEM);

   4116  3 002475   200005 470500                    LDP0    INFO+1,,AUTO
         3 002476   000000 236100                    LDQ     0,,PR0
         3 002477   000011 772000                    QRL     9
         3 002500   000777 376007                    ANQ     511,DL
         3 002501   000024 116007                    CMPQ    20,DL
         3 002502   002504 602006 3                  TNC     s:4116+7,QL
         3 002503   002744 710000 3                  TRA     s:4158
         3 002504   002530 710000 3                  TRA     s:4118
         3 002505   002537 710000 3                  TRA     s:4120
         3 002506   002546 710000 3                  TRA     s:4122
         3 002507   002555 710000 3                  TRA     s:4124
         3 002510   002564 710000 3                  TRA     s:4126
         3 002511   002573 710000 3                  TRA     s:4128
         3 002512   002602 710000 3                  TRA     s:4130
         3 002513   002611 710000 3                  TRA     s:4132
         3 002514   002620 710000 3                  TRA     s:4134
         3 002515   002627 710000 3                  TRA     s:4136
         3 002516   002636 710000 3                  TRA     s:4138
         3 002517   002645 710000 3                  TRA     s:4140
         3 002520   002654 710000 3                  TRA     s:4142
         3 002521   002663 710000 3                  TRA     s:4144
         3 002522   002672 710000 3                  TRA     s:4146
         3 002523   002701 710000 3                  TRA     s:4148
         3 002524   002710 710000 3                  TRA     s:4150
         3 002525   002717 710000 3                  TRA     s:4152
         3 002526   002726 710000 3                  TRA     s:4154
         3 002527   002735 710000 3                  TRA     s:4156

      837     4117    4                 CASE(KIER_OK);

      838     4118    4                    CALL ADD_TEXTC('UP AND OK',9);

   4118  3 002530   000043 236000 4                  LDQ     35
PL6.E3A0      #001=THF$RAW File=THF$FORMAT.:E05TSI                               WED 07/30/97 06:08 Page:195
         3 002531   200530 756100                    STQ     @CHIP+1,,AUTO
         3 002532   000141 236000 4                  LDQ     97
         3 002533   200527 756100                    STQ     @BOARD+1,,AUTO
         3 002534   010552 701000 3                  TSX1    ADD_TEXTC
         3 002535   000000 011000                    NOP     0
         3 002536   002752 710000 3                  TRA     s:4160

      839     4119    4                 CASE(KIER_TO);

      840     4120    4                    CALL ADD_TEXTC('TIMEOUT',7);

   4120  3 002537   000014 236000 4                  LDQ     12
         3 002540   200530 756100                    STQ     @CHIP+1,,AUTO
         3 002541   000142 236000 4                  LDQ     98
         3 002542   200527 756100                    STQ     @BOARD+1,,AUTO
         3 002543   010552 701000 3                  TSX1    ADD_TEXTC
         3 002544   000000 011000                    NOP     0
         3 002545   002752 710000 3                  TRA     s:4160

      841     4121    4                 CASE(KIER_QFL);

      842     4122    4                    CALL ADD_TEXTC('OUTPUT QUEUE FULL',17);

   4122  3 002546   000144 236000 4                  LDQ     100
         3 002547   200530 756100                    STQ     @CHIP+1,,AUTO
         3 002550   000145 236000 4                  LDQ     101
         3 002551   200527 756100                    STQ     @BOARD+1,,AUTO
         3 002552   010552 701000 3                  TSX1    ADD_TEXTC
         3 002553   000000 011000                    NOP     0
         3 002554   002752 710000 3                  TRA     s:4160

      843     4123    4                 CASE(KIER_NOBT);

      844     4124    4                    CALL ADD_TEXTC('FEP WONT BOOT',13);

   4124  3 002555   000147 236000 4                  LDQ     103
         3 002556   200530 756100                    STQ     @CHIP+1,,AUTO
PL6.E3A0      #001=THF$RAW File=THF$FORMAT.:E05TSI                               WED 07/30/97 06:08 Page:196
         3 002557   000150 236000 4                  LDQ     104
         3 002560   200527 756100                    STQ     @BOARD+1,,AUTO
         3 002561   010552 701000 3                  TSX1    ADD_TEXTC
         3 002562   000000 011000                    NOP     0
         3 002563   002752 710000 3                  TRA     s:4160

      845     4125    4                 CASE(KIER_FESC);

      846     4126    4                    CALL ADD_TEXTC('SOFTWARE CRASH',14);

   4126  3 002564   000017 236000 4                  LDQ     15
         3 002565   200530 756100                    STQ     @CHIP+1,,AUTO
         3 002566   000151 236000 4                  LDQ     105
         3 002567   200527 756100                    STQ     @BOARD+1,,AUTO
         3 002570   010552 701000 3                  TSX1    ADD_TEXTC
         3 002571   000000 011000                    NOP     0
         3 002572   002752 710000 3                  TRA     s:4160

      847     4127    4                 CASE(KIER_CPLR);

      848     4128    4                    CALL ADD_TEXTC('COUPLER',7);

   4128  3 002573   000014 236000 4                  LDQ     12
         3 002574   200530 756100                    STQ     @CHIP+1,,AUTO
         3 002575   000152 236000 4                  LDQ     106
         3 002576   200527 756100                    STQ     @BOARD+1,,AUTO
         3 002577   010552 701000 3                  TSX1    ADD_TEXTC
         3 002600   000000 011000                    NOP     0
         3 002601   002752 710000 3                  TRA     s:4160

      849     4129    4                 CASE(KIER_BINT);

      850     4130    4                    CALL ADD_TEXTC('BAD INTERRUPT',13);

   4130  3 002602   000147 236000 4                  LDQ     103
         3 002603   200530 756100                    STQ     @CHIP+1,,AUTO
         3 002604   000153 236000 4                  LDQ     107
PL6.E3A0      #001=THF$RAW File=THF$FORMAT.:E05TSI                               WED 07/30/97 06:08 Page:197
         3 002605   200527 756100                    STQ     @BOARD+1,,AUTO
         3 002606   010552 701000 3                  TSX1    ADD_TEXTC
         3 002607   000000 011000                    NOP     0
         3 002610   002752 710000 3                  TRA     s:4160

      851     4131    4                 CASE(KIER_BDLN);

      852     4132    4                    CALL ADD_TEXTC('BAD LINE NUMBER',15);

   4132  3 002611   000155 236000 4                  LDQ     109
         3 002612   200530 756100                    STQ     @CHIP+1,,AUTO
         3 002613   000156 236000 4                  LDQ     110
         3 002614   200527 756100                    STQ     @BOARD+1,,AUTO
         3 002615   010552 701000 3                  TSX1    ADD_TEXTC
         3 002616   000000 011000                    NOP     0
         3 002617   002752 710000 3                  TRA     s:4160

      853     4133    4                 CASE(KIER_MFMT);

      854     4134    4                    CALL ADD_TEXTC('BAD MESSAGE FORMAT',18);

   4134  3 002620   000160 236000 4                  LDQ     112
         3 002621   200530 756100                    STQ     @CHIP+1,,AUTO
         3 002622   000161 236000 4                  LDQ     113
         3 002623   200527 756100                    STQ     @BOARD+1,,AUTO
         3 002624   010552 701000 3                  TSX1    ADD_TEXTC
         3 002625   000000 011000                    NOP     0
         3 002626   002752 710000 3                  TRA     s:4160

      855     4135    4                 CASE(KIER_BFCN);

      856     4136    4                    CALL ADD_TEXTC('BAD FUNCTION CODE',17);

   4136  3 002627   000144 236000 4                  LDQ     100
         3 002630   200530 756100                    STQ     @CHIP+1,,AUTO
         3 002631   000162 236000 4                  LDQ     114
         3 002632   200527 756100                    STQ     @BOARD+1,,AUTO
PL6.E3A0      #001=THF$RAW File=THF$FORMAT.:E05TSI                               WED 07/30/97 06:08 Page:198
         3 002633   010552 701000 3                  TSX1    ADD_TEXTC
         3 002634   000000 011000                    NOP     0
         3 002635   002752 710000 3                  TRA     s:4160

      857     4137    4                 CASE(KIER_DCFT);

      858     4138    4                    CALL ADD_TEXTC('IOM MEMORY FAULT',16);

   4138  3 002636   000110 236000 4                  LDQ     72
         3 002637   200530 756100                    STQ     @CHIP+1,,AUTO
         3 002640   000163 236000 4                  LDQ     115
         3 002641   200527 756100                    STQ     @BOARD+1,,AUTO
         3 002642   010552 701000 3                  TSX1    ADD_TEXTC
         3 002643   000000 011000                    NOP     0
         3 002644   002752 710000 3                  TRA     s:4160

      859     4139    4                 CASE(KIER_BCMD);

      860     4140    4                    CALL ADD_TEXTC('BOOT REQUESTED',14);

   4140  3 002645   000017 236000 4                  LDQ     15
         3 002646   200530 756100                    STQ     @CHIP+1,,AUTO
         3 002647   000164 236000 4                  LDQ     116
         3 002650   200527 756100                    STQ     @BOARD+1,,AUTO
         3 002651   010552 701000 3                  TSX1    ADD_TEXTC
         3 002652   000000 011000                    NOP     0
         3 002653   002752 710000 3                  TRA     s:4160

      861     4141    4                 CASE(KIER_6ALZ);

      862     4142    4                    CALL ADD_TEXTC('REQUEST FROM L6ANLZ',19);

   4142  3 002654   000166 236000 4                  LDQ     118
         3 002655   200530 756100                    STQ     @CHIP+1,,AUTO
         3 002656   000167 236000 4                  LDQ     119
         3 002657   200527 756100                    STQ     @BOARD+1,,AUTO
         3 002660   010552 701000 3                  TSX1    ADD_TEXTC
PL6.E3A0      #001=THF$RAW File=THF$FORMAT.:E05TSI                               WED 07/30/97 06:08 Page:199
         3 002661   000000 011000                    NOP     0
         3 002662   002752 710000 3                  TRA     s:4160

      863     4143    4                 CASE(KIER_STOP);

      864     4144    4                    CALL ADD_TEXTC('STOP REQUESTED',14);

   4144  3 002663   000017 236000 4                  LDQ     15
         3 002664   200530 756100                    STQ     @CHIP+1,,AUTO
         3 002665   000170 236000 4                  LDQ     120
         3 002666   200527 756100                    STQ     @BOARD+1,,AUTO
         3 002667   010552 701000 3                  TSX1    ADD_TEXTC
         3 002670   000000 011000                    NOP     0
         3 002671   002752 710000 3                  TRA     s:4160

      865     4145    4                 CASE(KIER_PART);

      866     4146    4                    CALL ADD_TEXTC('PARTITIONED',11);

   4146  3 002672   000171 236000 4                  LDQ     121
         3 002673   200530 756100                    STQ     @CHIP+1,,AUTO
         3 002674   000172 236000 4                  LDQ     122
         3 002675   200527 756100                    STQ     @BOARD+1,,AUTO
         3 002676   010552 701000 3                  TSX1    ADD_TEXTC
         3 002677   000000 011000                    NOP     0
         3 002700   002752 710000 3                  TRA     s:4160

      867     4147    4                 CASE(KIER_UPRT);

      868     4148    4                    CALL ADD_TEXTC('NOT PARTITIONED',15);

   4148  3 002701   000155 236000 4                  LDQ     109
         3 002702   200530 756100                    STQ     @CHIP+1,,AUTO
         3 002703   000173 236000 4                  LDQ     123
         3 002704   200527 756100                    STQ     @BOARD+1,,AUTO
         3 002705   010552 701000 3                  TSX1    ADD_TEXTC
         3 002706   000000 011000                    NOP     0
PL6.E3A0      #001=THF$RAW File=THF$FORMAT.:E05TSI                               WED 07/30/97 06:08 Page:200
         3 002707   002752 710000 3                  TRA     s:4160

      869     4149    4                 CASE(KIER_FREQ);

      870     4150    4                    CALL ADD_TEXTC('FEP REQUEST',11);

   4150  3 002710   000171 236000 4                  LDQ     121
         3 002711   200530 756100                    STQ     @CHIP+1,,AUTO
         3 002712   000174 236000 4                  LDQ     124
         3 002713   200527 756100                    STQ     @BOARD+1,,AUTO
         3 002714   010552 701000 3                  TSX1    ADD_TEXTC
         3 002715   000000 011000                    NOP     0
         3 002716   002752 710000 3                  TRA     s:4160

      871     4151    4                 CASE(KIER_LNKUP);

      872     4152    4                    CALL ADD_TEXTC('LINK UP',7);

   4152  3 002717   000014 236000 4                  LDQ     12
         3 002720   200530 756100                    STQ     @CHIP+1,,AUTO
         3 002721   000175 236000 4                  LDQ     125
         3 002722   200527 756100                    STQ     @BOARD+1,,AUTO
         3 002723   010552 701000 3                  TSX1    ADD_TEXTC
         3 002724   000000 011000                    NOP     0
         3 002725   002752 710000 3                  TRA     s:4160

      873     4153    4                 CASE(KIER_LNKDWN);

      874     4154    4                    CALL ADD_TEXTC('LINK DOWN',9);

   4154  3 002726   000043 236000 4                  LDQ     35
         3 002727   200530 756100                    STQ     @CHIP+1,,AUTO
         3 002730   000176 236000 4                  LDQ     126
         3 002731   200527 756100                    STQ     @BOARD+1,,AUTO
         3 002732   010552 701000 3                  TSX1    ADD_TEXTC
         3 002733   000000 011000                    NOP     0
         3 002734   002752 710000 3                  TRA     s:4160
PL6.E3A0      #001=THF$RAW File=THF$FORMAT.:E05TSI                               WED 07/30/97 06:08 Page:201

      875     4155    4                 CASE(KIER_QOSCHG);

      876     4156    4                    CALL ADD_TEXTC('ROUTING CHANGE',14);

   4156  3 002735   000017 236000 4                  LDQ     15
         3 002736   200530 756100                    STQ     @CHIP+1,,AUTO
         3 002737   000177 236000 4                  LDQ     127
         3 002740   200527 756100                    STQ     @BOARD+1,,AUTO
         3 002741   010552 701000 3                  TSX1    ADD_TEXTC
         3 002742   000000 011000                    NOP     0
         3 002743   002752 710000 3                  TRA     s:4160

      877     4157    4                 CASE(ELSE);

      878     4158    4                    CALL ADD_TEXTC('????',4);

   4158  3 002744   000041 236000 4                  LDQ     33
         3 002745   200530 756100                    STQ     @CHIP+1,,AUTO
         3 002746   000037 236000 4                  LDQ     31
         3 002747   200527 756100                    STQ     @BOARD+1,,AUTO
         3 002750   010552 701000 3                  TSX1    ADD_TEXTC
         3 002751   000000 011000                    NOP     0

      879     4159    4                 END;  /* DO CASE PROBLEM */

      880     4160    4              DO CASE(EL$FECRASH.FENM.STATE);

   4160  3 002752   200005 470500                    LDP0    INFO+1,,AUTO
         3 002753   000000 720100                    LXL0    0,,PR0
         3 002754   000777 360003                    ANX0    511,DU
         3 002755   000011 100003                    CMPX0   9,DU
         3 002756   002760 602010 3                  TNC     s:4160+6,X0
         3 002757   003070 710000 3                  TRA     s:4180
         3 002760   002771 710000 3                  TRA     s:4162
         3 002761   003000 710000 3                  TRA     s:4164
         3 002762   003007 710000 3                  TRA     s:4166
PL6.E3A0      #001=THF$RAW File=THF$FORMAT.:E05TSI                               WED 07/30/97 06:08 Page:202
         3 002763   003016 710000 3                  TRA     s:4168
         3 002764   003025 710000 3                  TRA     s:4170
         3 002765   003034 710000 3                  TRA     s:4172
         3 002766   003043 710000 3                  TRA     s:4174
         3 002767   003061 710000 3                  TRA     s:4178
         3 002770   003052 710000 3                  TRA     s:4176

      881     4161    4                 CASE(KIST_DN);

      882     4162    4                    CALL ADD_TEXTC('DOWN',4);

   4162  3 002771   000041 236000 4                  LDQ     33
         3 002772   200530 756100                    STQ     @CHIP+1,,AUTO
         3 002773   000200 236000 4                  LDQ     128
         3 002774   200527 756100                    STQ     @BOARD+1,,AUTO
         3 002775   010552 701000 3                  TSX1    ADD_TEXTC
         3 002776   000000 011000                    NOP     0
         3 002777   007070 710000 3                  TRA     s:4630

      883     4163    4                 CASE(KIST_TOK);

      884     4164    4                    CALL ADD_TEXTC('CHECKING FOR UP',15);

   4164  3 003000   000155 236000 4                  LDQ     109
         3 003001   200530 756100                    STQ     @CHIP+1,,AUTO
         3 003002   000201 236000 4                  LDQ     129
         3 003003   200527 756100                    STQ     @BOARD+1,,AUTO
         3 003004   010552 701000 3                  TSX1    ADD_TEXTC
         3 003005   000000 011000                    NOP     0
         3 003006   007070 710000 3                  TRA     s:4630

      885     4165    4                 CASE(KIST_RUN);

      886     4166    4                    CALL ADD_TEXTC('RUNNING',7);

   4166  3 003007   000014 236000 4                  LDQ     12
         3 003010   200530 756100                    STQ     @CHIP+1,,AUTO
PL6.E3A0      #001=THF$RAW File=THF$FORMAT.:E05TSI                               WED 07/30/97 06:08 Page:203
         3 003011   000021 236000 4                  LDQ     17
         3 003012   200527 756100                    STQ     @BOARD+1,,AUTO
         3 003013   010552 701000 3                  TSX1    ADD_TEXTC
         3 003014   000000 011000                    NOP     0
         3 003015   007070 710000 3                  TRA     s:4630

      887     4167    4                 CASE(KIST_QFL);

      888     4168    4                    CALL ADD_TEXTC('OUTPUT QUEUE FULL',17);

   4168  3 003016   000144 236000 4                  LDQ     100
         3 003017   200530 756100                    STQ     @CHIP+1,,AUTO
         3 003020   000145 236000 4                  LDQ     101
         3 003021   200527 756100                    STQ     @BOARD+1,,AUTO
         3 003022   010552 701000 3                  TSX1    ADD_TEXTC
         3 003023   000000 011000                    NOP     0
         3 003024   007070 710000 3                  TRA     s:4630

      889     4169    4                 CASE(KIST_DB);

      890     4170    4                    CALL ADD_TEXTC('DEBUG MODE',10);

   4170  3 003025   000027 236000 4                  LDQ     23
         3 003026   200530 756100                    STQ     @CHIP+1,,AUTO
         3 003027   000202 236000 4                  LDQ     130
         3 003030   200527 756100                    STQ     @BOARD+1,,AUTO
         3 003031   010552 701000 3                  TSX1    ADD_TEXTC
         3 003032   000000 011000                    NOP     0
         3 003033   007070 710000 3                  TRA     s:4630

      891     4171    4                 CASE(KIST_DMP);

      892     4172    4                    CALL ADD_TEXTC('DUMPING',7);

   4172  3 003034   000014 236000 4                  LDQ     12
         3 003035   200530 756100                    STQ     @CHIP+1,,AUTO
         3 003036   000203 236000 4                  LDQ     131
PL6.E3A0      #001=THF$RAW File=THF$FORMAT.:E05TSI                               WED 07/30/97 06:08 Page:204
         3 003037   200527 756100                    STQ     @BOARD+1,,AUTO
         3 003040   010552 701000 3                  TSX1    ADD_TEXTC
         3 003041   000000 011000                    NOP     0
         3 003042   007070 710000 3                  TRA     s:4630

      893     4173    4                 CASE(KIST_BT);

      894     4174    4                    CALL ADD_TEXTC('BOOTING',7);

   4174  3 003043   000014 236000 4                  LDQ     12
         3 003044   200530 756100                    STQ     @CHIP+1,,AUTO
         3 003045   000204 236000 4                  LDQ     132
         3 003046   200527 756100                    STQ     @BOARD+1,,AUTO
         3 003047   010552 701000 3                  TSX1    ADD_TEXTC
         3 003050   000000 011000                    NOP     0
         3 003051   007070 710000 3                  TRA     s:4630

      895     4175    4                 CASE ( KIST_STOPPING ) ;

      896     4176    4                    CALL ADD_TEXTC ( 'STOPPING' , 8 ) ;

   4176  3 003052   000025 236000 4                  LDQ     21
         3 003053   200530 756100                    STQ     @CHIP+1,,AUTO
         3 003054   000205 236000 4                  LDQ     133
         3 003055   200527 756100                    STQ     @BOARD+1,,AUTO
         3 003056   010552 701000 3                  TSX1    ADD_TEXTC
         3 003057   000000 011000                    NOP     0
         3 003060   007070 710000 3                  TRA     s:4630

      897     4177    4                 CASE ( KIST_MASKED ) ;

      898     4178    4                    CALL ADD_TEXTC ( 'MASKED' , 6 ) ;

   4178  3 003061   000031 236000 4                  LDQ     25
         3 003062   200530 756100                    STQ     @CHIP+1,,AUTO
         3 003063   000206 236000 4                  LDQ     134
         3 003064   200527 756100                    STQ     @BOARD+1,,AUTO
PL6.E3A0      #001=THF$RAW File=THF$FORMAT.:E05TSI                               WED 07/30/97 06:08 Page:205
         3 003065   010552 701000 3                  TSX1    ADD_TEXTC
         3 003066   000000 011000                    NOP     0
         3 003067   007070 710000 3                  TRA     s:4630

      899     4179    4                 CASE(ELSE);

      900     4180    4                    CALL ADD_TEXTC('????',4);

   4180  3 003070   000041 236000 4                  LDQ     33
         3 003071   200530 756100                    STQ     @CHIP+1,,AUTO
         3 003072   000037 236000 4                  LDQ     31
         3 003073   200527 756100                    STQ     @BOARD+1,,AUTO
         3 003074   010552 701000 3                  TSX1    ADD_TEXTC
         3 003075   000000 011000                    NOP     0

      901     4181    4                 END;  /* DO CASE STATE */

   4181  3 003076   007070 710000 3                  TRA     s:4630

      902     4182    3            CASE(%TH_ZAP);

      903     4183    3              J = 139;

   4183  3 003077   000213 235007                    LDA     139,DL
         3 003100   200100 755100                    STA     J,,AUTO

      904     4184    3              IF EL$ZAP.OPER_TEXT = ' '

   4184  3 003101   200005 470500                    LDP0    INFO+1,,AUTO
         3 003102   040000 106500                    CMPC    fill='040'O
         3 003103   000002 000214                    ADSC9   2,,PR0                   cn=0,n=140
         3 003104   000035 000001 xsym               ADSC9   B_VECTNIL+29             cn=0,n=1
         3 003105   003110 601000 3                  TNZ     s:4187

      905     4185    3                 THEN J = 0;

   4185  3 003106   200100 450100                    STZ     J,,AUTO
PL6.E3A0      #001=THF$RAW File=THF$FORMAT.:E05TSI                               WED 07/30/97 06:08 Page:206
         3 003107   003121 710000 3                  TRA     s:4190

      906     4186    3                 ELSE
      907     4187    4              DO WHILE (SUBSTR(EL$ZAP.OPER_TEXT,J,1) = ' ');

   4187  3 003110   003114 710000 3                  TRA     s:4189

      908     4188    4                 J = J - 1;

   4188  3 003111   200100 235100                    LDA     J,,AUTO
         3 003112   000001 135007                    SBLA    1,DL
         3 003113   200100 755100                    STA     J,,AUTO

      909     4189    4              END;

   4189  3 003114   200005 470500                    LDP0    INFO+1,,AUTO
         3 003115   040000 106505                    CMPC    fill='040'O
         3 003116   000002 000001                    ADSC9   2,A,PR0                  cn=0,n=1
         3 003117   000035 000001 xsym               ADSC9   B_VECTNIL+29             cn=0,n=1
         3 003120   003111 600000 3                  TZE     s:4188

      910     4190    3              CALL ADD_TEXTC(SUBSTR(EL$ZAP.OPER_TEXT,0,J+1),J+1);

   4190  3 003121   200100 235100                    LDA     J,,AUTO
         3 003122   000001 035007                    ADLA    1,DL
         3 003123   200555 755100                    STA     CHIP#+19,,AUTO
         3 003124   200555 631500                    EPPR1   CHIP#+19,,AUTO
         3 003125   200530 451500                    STP1    @CHIP+1,,AUTO
         3 003126   200005 236100                    LDQ     INFO+1,,AUTO
         3 003127   000002 036003                    ADLQ    2,DU
         3 003130   200527 756100                    STQ     @BOARD+1,,AUTO
         3 003131   010552 701000 3                  TSX1    ADD_TEXTC
         3 003132   000000 011000                    NOP     0
         3 003133   007070 710000 3                  TRA     s:4630

      911     4191    3            CASE(%TH_CHANTRAN);

PL6.E3A0      #001=THF$RAW File=THF$FORMAT.:E05TSI                               WED 07/30/97 06:08 Page:207
      912     4192    3              IF(EL$CHANTRAN.STATUS.CHAN ~= 4)

   4192  3 003134   200005 470500                    LDP0    INFO+1,,AUTO
         3 003135   000001 236100                    LDQ     1,,PR0
         3 003136   377000 376003                    ANQ     130560,DU
         3 003137   004000 116003                    CMPQ    2048,DU
         3 003140   003233 600000 3                  TZE     s:4206

      913     4193    3              THEN
      914     4194    4                   DO CASE(EL$CHANTRAN.STATUS.CHAN_STAT);

   4194  3 003141   000001 236100                    LDQ     1,,PR0
         3 003142   000011 772000                    QRL     9
         3 003143   000377 376007                    ANQ     255,DL
         3 003144   000021 116007                    CMPQ    17,DL
         3 003145   003147 602006 3                  TNC     s:4194+6,QL
         3 003146   003224 710000 3                  TRA     s:4204
         3 003147   003224 710000 3                  TRA     s:4204
         3 003150   003170 710000 3                  TRA     s:4196
         3 003151   003177 710000 3                  TRA     s:4198
         3 003152   003224 710000 3                  TRA     s:4204
         3 003153   003224 710000 3                  TRA     s:4204
         3 003154   003224 710000 3                  TRA     s:4204
         3 003155   003224 710000 3                  TRA     s:4204
         3 003156   003224 710000 3                  TRA     s:4204
         3 003157   003206 710000 3                  TRA     s:4200
         3 003160   003224 710000 3                  TRA     s:4204
         3 003161   003224 710000 3                  TRA     s:4204
         3 003162   003224 710000 3                  TRA     s:4204
         3 003163   003224 710000 3                  TRA     s:4204
         3 003164   003224 710000 3                  TRA     s:4204
         3 003165   003224 710000 3                  TRA     s:4204
         3 003166   003224 710000 3                  TRA     s:4204
         3 003167   003215 710000 3                  TRA     s:4202

      915     4195    4                      CASE(%CHAN_SUSPEND);

PL6.E3A0      #001=THF$RAW File=THF$FORMAT.:E05TSI                               WED 07/30/97 06:08 Page:208
      916     4196    4                        CALL ADD_TEXTC('CHANNEL SUSPENDED',17);

   4196  3 003170   000144 236000 4                  LDQ     100
         3 003171   200530 756100                    STQ     @CHIP+1,,AUTO
         3 003172   000207 236000 4                  LDQ     135
         3 003173   200527 756100                    STQ     @BOARD+1,,AUTO
         3 003174   010552 701000 3                  TSX1    ADD_TEXTC
         3 003175   000000 011000                    NOP     0
         3 003176   007070 710000 3                  TRA     s:4630

      917     4197    4                      CASE(%CHAN_RELEASED);

      918     4198    4                        CALL ADD_TEXTC('CHANNEL RELEASED',16);

   4198  3 003177   000110 236000 4                  LDQ     72
         3 003200   200530 756100                    STQ     @CHIP+1,,AUTO
         3 003201   000210 236000 4                  LDQ     136
         3 003202   200527 756100                    STQ     @BOARD+1,,AUTO
         3 003203   010552 701000 3                  TSX1    ADD_TEXTC
         3 003204   000000 011000                    NOP     0
         3 003205   007070 710000 3                  TRA     s:4630

      919     4199    4                      CASE(%CHAN_STOPPED);

      920     4200    4                        CALL ADD_TEXTC('CHANNEL STOPPED',15);

   4200  3 003206   000155 236000 4                  LDQ     109
         3 003207   200530 756100                    STQ     @CHIP+1,,AUTO
         3 003210   000211 236000 4                  LDQ     137
         3 003211   200527 756100                    STQ     @BOARD+1,,AUTO
         3 003212   010552 701000 3                  TSX1    ADD_TEXTC
         3 003213   000000 011000                    NOP     0
         3 003214   007070 710000 3                  TRA     s:4630

      921     4201    4                      CASE(%CHAN_AVAILABLE);

      922     4202    4                        CALL ADD_TEXTC('CHANNEL AVAILABLE',17);
PL6.E3A0      #001=THF$RAW File=THF$FORMAT.:E05TSI                               WED 07/30/97 06:08 Page:209

   4202  3 003215   000144 236000 4                  LDQ     100
         3 003216   200530 756100                    STQ     @CHIP+1,,AUTO
         3 003217   000212 236000 4                  LDQ     138
         3 003220   200527 756100                    STQ     @BOARD+1,,AUTO
         3 003221   010552 701000 3                  TSX1    ADD_TEXTC
         3 003222   000000 011000                    NOP     0
         3 003223   007070 710000 3                  TRA     s:4630

      923     4203    4                      CASE(ELSE);

      924     4204    4                        CALL ADD_TEXTC('IMPROPER STATE',14);

   4204  3 003224   000017 236000 4                  LDQ     15
         3 003225   200530 756100                    STQ     @CHIP+1,,AUTO
         3 003226   000213 236000 4                  LDQ     139
         3 003227   200527 756100                    STQ     @BOARD+1,,AUTO
         3 003230   010552 701000 3                  TSX1    ADD_TEXTC
         3 003231   000000 011000                    NOP     0

      925     4205    4                   END;  /*do case channel not = to 4 */

   4205  3 003232   007070 710000 3                  TRA     s:4630

      926     4206    3              ELSE IF(EL$CHANTRAN.STATUS.CHAN = 4)

   4206  3 003233   007070 601000 3                  TNZ     s:4630

      927     4207    3              THEN
      928     4208    4                   DO CASE(EL$CHANTRAN.STATUS.MSOS_REQ);

   4208  3 003234   000001 720100                    LXL0    1,,PR0
         3 003235   000377 360003                    ANX0    255,DU
         3 003236   000003 100003                    CMPX0   3,DU
         3 003237   003241 602010 3                  TNC     s:4208+5,X0
         3 003240   007070 710000 3                  TRA     s:4630
         3 003241   003244 710000 3                  TRA     s:4210
PL6.E3A0      #001=THF$RAW File=THF$FORMAT.:E05TSI                               WED 07/30/97 06:08 Page:210
         3 003242   003253 710000 3                  TRA     s:4212
         3 003243   003262 710000 3                  TRA     s:4214

      929     4209    4                      CASE(%RSR_ASSIGN_RELEASE);

      930     4210    4                        CALL ADD_TEXTC('RESOURCE ASSIGN/RELEASE',23);

   4210  3 003244   000215 236000 4                  LDQ     141
         3 003245   200530 756100                    STQ     @CHIP+1,,AUTO
         3 003246   000216 236000 4                  LDQ     142
         3 003247   200527 756100                    STQ     @BOARD+1,,AUTO
         3 003250   010552 701000 3                  TSX1    ADD_TEXTC
         3 003251   000000 011000                    NOP     0
         3 003252   007070 710000 3                  TRA     s:4630

      931     4211    4                      CASE(%IOP_AUTO_REBOOT);

      932     4212    4                        CALL ADD_TEXTC('IOP AUTO REBOOT',15);

   4212  3 003253   000155 236000 4                  LDQ     109
         3 003254   200530 756100                    STQ     @CHIP+1,,AUTO
         3 003255   000217 236000 4                  LDQ     143
         3 003256   200527 756100                    STQ     @BOARD+1,,AUTO
         3 003257   010552 701000 3                  TSX1    ADD_TEXTC
         3 003260   000000 011000                    NOP     0
         3 003261   007070 710000 3                  TRA     s:4630

      933     4213    4                      CASE(%IOP_ASSIGN);

      934     4214    4                        CALL ADD_TEXTC('IOP ASSIGN',10);

   4214  3 003262   000027 236000 4                  LDQ     23
         3 003263   200530 756100                    STQ     @CHIP+1,,AUTO
         3 003264   000220 236000 4                  LDQ     144
         3 003265   200527 756100                    STQ     @BOARD+1,,AUTO
         3 003266   010552 701000 3                  TSX1    ADD_TEXTC
         3 003267   000000 011000                    NOP     0
PL6.E3A0      #001=THF$RAW File=THF$FORMAT.:E05TSI                               WED 07/30/97 06:08 Page:211

      935     4215    4                   END;  /*do case channel = 4 */

   4215  3 003270   007070 710000 3                  TRA     s:4630

      936     4216    3            CASE(%TH_MSOSSAYS);

      937     4217    4              DO SELECT(EL$MSOSSAYS.IDCW.CODE);

   4217  3 003271   200005 470500                    LDP0    INFO+1,,AUTO
         3 003272   000004 236100                    LDQ     4,,PR0
         3 003273   770000 376003                    ANQ     -4096,DU
         3 003274   420000 116003                    CMPQ    -122880,DU
         3 003275   003334 602000 3                  TNC     s:4217+35
         3 003276   000004 236100                    LDQ     4,,PR0
         3 003277   770000 376003                    ANQ     -4096,DU
         3 003300   420000 116003                    CMPQ    -122880,DU
         3 003301   003403 600000 3                  TZE     s:4225
         3 003302   000004 236100                    LDQ     4,,PR0
         3 003303   770000 376003                    ANQ     -4096,DU
         3 003304   610000 116003                    CMPQ    -61440,DU
         3 003305   003327 602000 3                  TNC     s:4217+30
         3 003306   000004 236100                    LDQ     4,,PR0
         3 003307   770000 376003                    ANQ     -4096,DU
         3 003310   610000 116003                    CMPQ    -61440,DU
         3 003311   003421 600000 3                  TZE     s:4229
         3 003312   000004 236100                    LDQ     4,,PR0
         3 003313   770000 376003                    ANQ     -4096,DU
         3 003314   620000 116003                    CMPQ    -57344,DU
         3 003315   007070 602000 3                  TNC     s:4630
         3 003316   000004 236100                    LDQ     4,,PR0
         3 003317   770000 376003                    ANQ     -4096,DU
         3 003320   620000 116003                    CMPQ    -57344,DU
         3 003321   003430 600000 3                  TZE     s:4231
         3 003322   000004 236100                    LDQ     4,,PR0
         3 003323   770000 376003                    ANQ     -4096,DU
         3 003324   640000 116003                    CMPQ    -49152,DU
PL6.E3A0      #001=THF$RAW File=THF$FORMAT.:E05TSI                               WED 07/30/97 06:08 Page:212
         3 003325   007070 601000 3                  TNZ     s:4630
         3 003326   003437 710000 3                  TRA     s:4233
         3 003327   000004 236100                    LDQ     4,,PR0
         3 003330   770000 376003                    ANQ     -4096,DU
         3 003331   600000 116003                    CMPQ    -65536,DU
         3 003332   007070 601000 3                  TNZ     s:4630
         3 003333   003412 710000 3                  TRA     s:4227
         3 003334   000004 236100                    LDQ     4,,PR0
         3 003335   770000 376003                    ANQ     -4096,DU
         3 003336   070000 116003                    CMPQ    28672,DU
         3 003337   003351 602000 3                  TNC     s:4217+48
         3 003340   000004 236100                    LDQ     4,,PR0
         3 003341   770000 376003                    ANQ     -4096,DU
         3 003342   070000 116003                    CMPQ    28672,DU
         3 003343   003365 600000 3                  TZE     s:4221
         3 003344   000004 236100                    LDQ     4,,PR0
         3 003345   770000 376003                    ANQ     -4096,DU
         3 003346   400000 116003                    CMPQ    -131072,DU
         3 003347   007070 601000 3                  TNZ     s:4630
         3 003350   003374 710000 3                  TRA     s:4223
         3 003351   000004 236100                    LDQ     4,,PR0
         3 003352   770000 376003                    ANQ     -4096,DU
         3 003353   030000 116003                    CMPQ    12288,DU
         3 003354   007070 601000 3                  TNZ     s:4630
         3 003355   003356 710000 3                  TRA     s:4219

      938     4218    4                 SELECT(%REQ_TIME);

      939     4219    4                   CALL ADD_TEXTC('TIME CORRECTION REQUEST',23);

   4219  3 003356   000215 236000 4                  LDQ     141
         3 003357   200530 756100                    STQ     @CHIP+1,,AUTO
         3 003360   000221 236000 4                  LDQ     145
         3 003361   200527 756100                    STQ     @BOARD+1,,AUTO
         3 003362   010552 701000 3                  TSX1    ADD_TEXTC
         3 003363   000000 011000                    NOP     0
         3 003364   007070 710000 3                  TRA     s:4630
PL6.E3A0      #001=THF$RAW File=THF$FORMAT.:E05TSI                               WED 07/30/97 06:08 Page:213

      940     4220    4                 SELECT(%REQ_MEM_EXPANSION);

      941     4221    4                   CALL ADD_TEXTC('MEMORY EXPANSION REQUEST',24);

   4221  3 003365   000223 236000 4                  LDQ     147
         3 003366   200530 756100                    STQ     @CHIP+1,,AUTO
         3 003367   000224 236000 4                  LDQ     148
         3 003370   200527 756100                    STQ     @BOARD+1,,AUTO
         3 003371   010552 701000 3                  TSX1    ADD_TEXTC
         3 003372   000000 011000                    NOP     0
         3 003373   007070 710000 3                  TRA     s:4630

      942     4222    4                 SELECT(%REQ_ASSIGN_EPU);

      943     4223    4                   CALL ADD_TEXTC('ASSIGN EPU REQUEST',18);

   4223  3 003374   000160 236000 4                  LDQ     112
         3 003375   200530 756100                    STQ     @CHIP+1,,AUTO
         3 003376   000225 236000 4                  LDQ     149
         3 003377   200527 756100                    STQ     @BOARD+1,,AUTO
         3 003400   010552 701000 3                  TSX1    ADD_TEXTC
         3 003401   000000 011000                    NOP     0
         3 003402   007070 710000 3                  TRA     s:4630

      944     4224    4                 SELECT(%REQ_ASSIGN_DEVICE);

      945     4225    4                   CALL ADD_TEXTC('ASSIGN DEVICE REQUEST',21);

   4225  3 003403   000227 236000 4                  LDQ     151
         3 003404   200530 756100                    STQ     @CHIP+1,,AUTO
         3 003405   000230 236000 4                  LDQ     152
         3 003406   200527 756100                    STQ     @BOARD+1,,AUTO
         3 003407   010552 701000 3                  TSX1    ADD_TEXTC
         3 003410   000000 011000                    NOP     0
         3 003411   007070 710000 3                  TRA     s:4630

PL6.E3A0      #001=THF$RAW File=THF$FORMAT.:E05TSI                               WED 07/30/97 06:08 Page:214
      946     4226    4                 SELECT(%REQ_RELEASE_EPU);

      947     4227    4                   CALL ADD_TEXTC('RELEASE EPU REQUEST',19);

   4227  3 003412   000166 236000 4                  LDQ     118
         3 003413   200530 756100                    STQ     @CHIP+1,,AUTO
         3 003414   000231 236000 4                  LDQ     153
         3 003415   200527 756100                    STQ     @BOARD+1,,AUTO
         3 003416   010552 701000 3                  TSX1    ADD_TEXTC
         3 003417   000000 011000                    NOP     0
         3 003420   007070 710000 3                  TRA     s:4630

      948     4228    4                 SELECT(%REQ_RELEASE_MEM1);

      949     4229    4                   CALL ADD_TEXTC('RELEASE MEMORY REQUEST',22);

   4229  3 003421   000233 236000 4                  LDQ     155
         3 003422   200530 756100                    STQ     @CHIP+1,,AUTO
         3 003423   000234 236000 4                  LDQ     156
         3 003424   200527 756100                    STQ     @BOARD+1,,AUTO
         3 003425   010552 701000 3                  TSX1    ADD_TEXTC
         3 003426   000000 011000                    NOP     0
         3 003427   007070 710000 3                  TRA     s:4630

      950     4230    4                 SELECT(%REQ_RELEASE_DEVICE);

      951     4231    4                   CALL ADD_TEXTC('RELEASE DEVICE REQUEST',22);

   4231  3 003430   000233 236000 4                  LDQ     155
         3 003431   200530 756100                    STQ     @CHIP+1,,AUTO
         3 003432   000235 236000 4                  LDQ     157
         3 003433   200527 756100                    STQ     @BOARD+1,,AUTO
         3 003434   010552 701000 3                  TSX1    ADD_TEXTC
         3 003435   000000 011000                    NOP     0
         3 003436   007070 710000 3                  TRA     s:4630

      952     4232    4                 SELECT(%REQ_RELEASE_MEM2);
PL6.E3A0      #001=THF$RAW File=THF$FORMAT.:E05TSI                               WED 07/30/97 06:08 Page:215

      953     4233    4                   CALL ADD_TEXTC('RELEASE MEMORY REQUEST',22);

   4233  3 003437   000233 236000 4                  LDQ     155
         3 003440   200530 756100                    STQ     @CHIP+1,,AUTO
         3 003441   000234 236000 4                  LDQ     156
         3 003442   200527 756100                    STQ     @BOARD+1,,AUTO
         3 003443   010552 701000 3                  TSX1    ADD_TEXTC
         3 003444   000000 011000                    NOP     0

      954     4234    4              END;  /* do case */

   4234  3 003445   007070 710000 3                  TRA     s:4630

      955     4235    3            CASE(%TH_CP6SAYS);

      956     4236    4              DO SELECT(EL$CP6SAYS.IDCW.CODE);

   4236  3 003446   200005 470500                    LDP0    INFO+1,,AUTO
         3 003447   000004 236100                    LDQ     4,,PR0
         3 003450   770000 376003                    ANQ     -4096,DU
         3 003451   030000 116003                    CMPQ    12288,DU
         3 003452   003501 602000 3                  TNC     s:4236+27
         3 003453   000004 236100                    LDQ     4,,PR0
         3 003454   770000 376003                    ANQ     -4096,DU
         3 003455   030000 116003                    CMPQ    12288,DU
         3 003456   003551 600000 3                  TZE     s:4244
         3 003457   000004 236100                    LDQ     4,,PR0
         3 003460   770000 376003                    ANQ     -4096,DU
         3 003461   050000 116003                    CMPQ    20480,DU
         3 003462   003474 602000 3                  TNC     s:4236+22
         3 003463   000004 236100                    LDQ     4,,PR0
         3 003464   770000 376003                    ANQ     -4096,DU
         3 003465   050000 116003                    CMPQ    20480,DU
         3 003466   003567 600000 3                  TZE     s:4248
         3 003467   000004 236100                    LDQ     4,,PR0
         3 003470   770000 376003                    ANQ     -4096,DU
PL6.E3A0      #001=THF$RAW File=THF$FORMAT.:E05TSI                               WED 07/30/97 06:08 Page:216
         3 003471   150000 116003                    CMPQ    53248,DU
         3 003472   003604 601000 3                  TNZ     s:4252
         3 003473   003576 710000 3                  TRA     s:4250
         3 003474   000004 236100                    LDQ     4,,PR0
         3 003475   770000 376003                    ANQ     -4096,DU
         3 003476   040000 116003                    CMPQ    16384,DU
         3 003477   003604 601000 3                  TNZ     s:4252
         3 003500   003560 710000 3                  TRA     s:4246
         3 003501   000004 236100                    LDQ     4,,PR0
         3 003502   770000 376003                    ANQ     -4096,DU
         3 003503   010000 116003                    CMPQ    4096,DU
         3 003504   003516 602000 3                  TNC     s:4236+40
         3 003505   000004 236100                    LDQ     4,,PR0
         3 003506   770000 376003                    ANQ     -4096,DU
         3 003507   010000 116003                    CMPQ    4096,DU
         3 003510   003533 600000 3                  TZE     s:4240
         3 003511   000004 236100                    LDQ     4,,PR0
         3 003512   770000 376003                    ANQ     -4096,DU
         3 003513   020000 116003                    CMPQ    8192,DU
         3 003514   003604 601000 3                  TNZ     s:4252
         3 003515   003542 710000 3                  TRA     s:4242
         3 003516   000004 236100                    LDQ     4,,PR0
         3 003517   770000 376003                    ANQ     -4096,DU
         3 003520   000000 116003                    CMPQ    0,DU
         3 003521   003524 602000 3                  TNC     s:4238
         3 003522   003524 600000 3                  TZE     s:4238
         3 003523   003604 710000 3                  TRA     s:4252

      957     4237    4                 SELECT(%RSP_INIT);

      958     4238    4                   CALL ADD_TEXTC('RESPONSE INITIALIZATION',23);

   4238  3 003524   000215 236000 4                  LDQ     141
         3 003525   200530 756100                    STQ     @CHIP+1,,AUTO
         3 003526   000236 236000 4                  LDQ     158
         3 003527   200527 756100                    STQ     @BOARD+1,,AUTO
         3 003530   010552 701000 3                  TSX1    ADD_TEXTC
PL6.E3A0      #001=THF$RAW File=THF$FORMAT.:E05TSI                               WED 07/30/97 06:08 Page:217
         3 003531   000000 011000                    NOP     0
         3 003532   003604 710000 3                  TRA     s:4252

      959     4239    4                 SELECT(%RSP_BUSY);

      960     4240    4                   CALL ADD_TEXTC('RESPONSE BUSY',13);

   4240  3 003533   000147 236000 4                  LDQ     103
         3 003534   200530 756100                    STQ     @CHIP+1,,AUTO
         3 003535   000237 236000 4                  LDQ     159
         3 003536   200527 756100                    STQ     @BOARD+1,,AUTO
         3 003537   010552 701000 3                  TSX1    ADD_TEXTC
         3 003540   000000 011000                    NOP     0
         3 003541   003604 710000 3                  TRA     s:4252

      961     4241    4                 SELECT(%RSP_REJECT);

      962     4242    4                   CALL ADD_TEXTC('RESPONSE REJECT',15);

   4242  3 003542   000155 236000 4                  LDQ     109
         3 003543   200530 756100                    STQ     @CHIP+1,,AUTO
         3 003544   000240 236000 4                  LDQ     160
         3 003545   200527 756100                    STQ     @BOARD+1,,AUTO
         3 003546   010552 701000 3                  TSX1    ADD_TEXTC
         3 003547   000000 011000                    NOP     0
         3 003550   003604 710000 3                  TRA     s:4252

      963     4243    4                 SELECT(%RSP_COMPLETE);

      964     4244    4                   CALL ADD_TEXTC('RESPONSE COMPLETE',17);

   4244  3 003551   000144 236000 4                  LDQ     100
         3 003552   200530 756100                    STQ     @CHIP+1,,AUTO
         3 003553   000241 236000 4                  LDQ     161
         3 003554   200527 756100                    STQ     @BOARD+1,,AUTO
         3 003555   010552 701000 3                  TSX1    ADD_TEXTC
         3 003556   000000 011000                    NOP     0
PL6.E3A0      #001=THF$RAW File=THF$FORMAT.:E05TSI                               WED 07/30/97 06:08 Page:218
         3 003557   003604 710000 3                  TRA     s:4252

      965     4245    4                 SELECT(%RSP_IOP_RECOV);

      966     4246    4                   CALL ADD_TEXTC('RESPONSE IOP RECOVERY',21);

   4246  3 003560   000227 236000 4                  LDQ     151
         3 003561   200530 756100                    STQ     @CHIP+1,,AUTO
         3 003562   000242 236000 4                  LDQ     162
         3 003563   200527 756100                    STQ     @BOARD+1,,AUTO
         3 003564   010552 701000 3                  TSX1    ADD_TEXTC
         3 003565   000000 011000                    NOP     0
         3 003566   003604 710000 3                  TRA     s:4252

      967     4247    4                 SELECT(%RSP_ILL_CMND);

      968     4248    4                   CALL ADD_TEXTC('RESPONSE ILLEGAL COMMAND',24);

   4248  3 003567   000223 236000 4                  LDQ     147
         3 003570   200530 756100                    STQ     @CHIP+1,,AUTO
         3 003571   000243 236000 4                  LDQ     163
         3 003572   200527 756100                    STQ     @BOARD+1,,AUTO
         3 003573   010552 701000 3                  TSX1    ADD_TEXTC
         3 003574   000000 011000                    NOP     0
         3 003575   003604 710000 3                  TRA     s:4252

      969     4249    4                 SELECT(%RSP_UNMSK_IOP);

      970     4250    4                   CALL ADD_TEXTC('RESPONSE UNMASK IOP',19);

   4250  3 003576   000166 236000 4                  LDQ     118
         3 003577   200530 756100                    STQ     @CHIP+1,,AUTO
         3 003600   000244 236000 4                  LDQ     164
         3 003601   200527 756100                    STQ     @BOARD+1,,AUTO
         3 003602   010552 701000 3                  TSX1    ADD_TEXTC
         3 003603   000000 011000                    NOP     0

PL6.E3A0      #001=THF$RAW File=THF$FORMAT.:E05TSI                               WED 07/30/97 06:08 Page:219
      971     4251    4              END;  /* do case */

      972     4252    3              IF EL$CP6SAYS.REASON = %REAS_USE_RC

   4252  3 003604   200005 470500                    LDP0    INFO+1,,AUTO
         3 003605   000000 236100                    LDQ     0,,PR0
         3 003606   000777 316003                    CANQ    511,DU
         3 003607   004150 601000 3                  TNZ     s:4291

      973     4253    3              THEN
      974     4254    4              DO SELECT(EL$CP6SAYS.IDCWE.RC);

   4254  3 003610   000003 236100                    LDQ     3,,PR0
         3 003611   770000 376003                    ANQ     -4096,DU
         3 003612   100000 116003                    CMPQ    32768,DU
         3 003613   003704 602000 3                  TNC     s:4254+60
         3 003614   000003 236100                    LDQ     3,,PR0
         3 003615   770000 376003                    ANQ     -4096,DU
         3 003616   100000 116003                    CMPQ    32768,DU
         3 003617   004042 600000 3                  TZE     s:4270
         3 003620   000003 236100                    LDQ     3,,PR0
         3 003621   770000 376003                    ANQ     -4096,DU
         3 003622   210000 116003                    CMPQ    69632,DU
         3 003623   003662 602000 3                  TNC     s:4254+42
         3 003624   000003 236100                    LDQ     3,,PR0
         3 003625   770000 376003                    ANQ     -4096,DU
         3 003626   210000 116003                    CMPQ    69632,DU
         3 003627   004076 600000 3                  TZE     s:4278
         3 003630   000003 236100                    LDQ     3,,PR0
         3 003631   770000 376003                    ANQ     -4096,DU
         3 003632   260000 116003                    CMPQ    90112,DU
         3 003633   003655 602000 3                  TNC     s:4254+37
         3 003634   000003 236100                    LDQ     3,,PR0
         3 003635   770000 376003                    ANQ     -4096,DU
         3 003636   260000 116003                    CMPQ    90112,DU
         3 003637   004114 600000 3                  TZE     s:4282
         3 003640   000003 236100                    LDQ     3,,PR0
PL6.E3A0      #001=THF$RAW File=THF$FORMAT.:E05TSI                               WED 07/30/97 06:08 Page:220
         3 003641   770000 376003                    ANQ     -4096,DU
         3 003642   270000 116003                    CMPQ    94208,DU
         3 003643   004141 602000 3                  TNC     s:4288
         3 003644   000003 236100                    LDQ     3,,PR0
         3 003645   770000 376003                    ANQ     -4096,DU
         3 003646   270000 116003                    CMPQ    94208,DU
         3 003647   004123 600000 3                  TZE     s:4284
         3 003650   000003 236100                    LDQ     3,,PR0
         3 003651   770000 376003                    ANQ     -4096,DU
         3 003652   300000 116003                    CMPQ    98304,DU
         3 003653   004141 601000 3                  TNZ     s:4288
         3 003654   004132 710000 3                  TRA     s:4286
         3 003655   000003 236100                    LDQ     3,,PR0
         3 003656   770000 376003                    ANQ     -4096,DU
         3 003657   220000 116003                    CMPQ    73728,DU
         3 003660   004141 601000 3                  TNZ     s:4288
         3 003661   004105 710000 3                  TRA     s:4280
         3 003662   000003 236100                    LDQ     3,,PR0
         3 003663   770000 376003                    ANQ     -4096,DU
         3 003664   140000 116003                    CMPQ    49152,DU
         3 003665   003677 602000 3                  TNC     s:4254+55
         3 003666   000003 236100                    LDQ     3,,PR0
         3 003667   770000 376003                    ANQ     -4096,DU
         3 003670   140000 116003                    CMPQ    49152,DU
         3 003671   004060 600000 3                  TZE     s:4274
         3 003672   000003 236100                    LDQ     3,,PR0
         3 003673   770000 376003                    ANQ     -4096,DU
         3 003674   150000 116003                    CMPQ    53248,DU
         3 003675   004141 601000 3                  TNZ     s:4288
         3 003676   004067 710000 3                  TRA     s:4276
         3 003677   000003 236100                    LDQ     3,,PR0
         3 003700   770000 376003                    ANQ     -4096,DU
         3 003701   110000 116003                    CMPQ    36864,DU
         3 003702   004141 601000 3                  TNZ     s:4288
         3 003703   004051 710000 3                  TRA     s:4272
         3 003704   000003 236100                    LDQ     3,,PR0
         3 003705   770000 376003                    ANQ     -4096,DU
PL6.E3A0      #001=THF$RAW File=THF$FORMAT.:E05TSI                               WED 07/30/97 06:08 Page:221
         3 003706   040000 116003                    CMPQ    16384,DU
         3 003707   003736 602000 3                  TNC     s:4254+86
         3 003710   000003 236100                    LDQ     3,,PR0
         3 003711   770000 376003                    ANQ     -4096,DU
         3 003712   040000 116003                    CMPQ    16384,DU
         3 003713   004006 600000 3                  TZE     s:4262
         3 003714   000003 236100                    LDQ     3,,PR0
         3 003715   770000 376003                    ANQ     -4096,DU
         3 003716   060000 116003                    CMPQ    24576,DU
         3 003717   003731 602000 3                  TNC     s:4254+81
         3 003720   000003 236100                    LDQ     3,,PR0
         3 003721   770000 376003                    ANQ     -4096,DU
         3 003722   060000 116003                    CMPQ    24576,DU
         3 003723   004024 600000 3                  TZE     s:4266
         3 003724   000003 236100                    LDQ     3,,PR0
         3 003725   770000 376003                    ANQ     -4096,DU
         3 003726   070000 116003                    CMPQ    28672,DU
         3 003727   004141 601000 3                  TNZ     s:4288
         3 003730   004033 710000 3                  TRA     s:4268
         3 003731   000003 236100                    LDQ     3,,PR0
         3 003732   770000 376003                    ANQ     -4096,DU
         3 003733   050000 116003                    CMPQ    20480,DU
         3 003734   004141 601000 3                  TNZ     s:4288
         3 003735   004015 710000 3                  TRA     s:4264
         3 003736   000003 236100                    LDQ     3,,PR0
         3 003737   770000 376003                    ANQ     -4096,DU
         3 003740   020000 116003                    CMPQ    8192,DU
         3 003741   003753 602000 3                  TNC     s:4254+99
         3 003742   000003 236100                    LDQ     3,,PR0
         3 003743   770000 376003                    ANQ     -4096,DU
         3 003744   020000 116003                    CMPQ    8192,DU
         3 003745   003770 600000 3                  TZE     s:4258
         3 003746   000003 236100                    LDQ     3,,PR0
         3 003747   770000 376003                    ANQ     -4096,DU
         3 003750   030000 116003                    CMPQ    12288,DU
         3 003751   004141 601000 3                  TNZ     s:4288
         3 003752   003777 710000 3                  TRA     s:4260
PL6.E3A0      #001=THF$RAW File=THF$FORMAT.:E05TSI                               WED 07/30/97 06:08 Page:222
         3 003753   000003 236100                    LDQ     3,,PR0
         3 003754   770000 376003                    ANQ     -4096,DU
         3 003755   000000 116003                    CMPQ    0,DU
         3 003756   003761 602000 3                  TNC     s:4256
         3 003757   003761 600000 3                  TZE     s:4256
         3 003760   004141 710000 3                  TRA     s:4288

      975     4255    4                 SELECT(%RC_INV_CMND);

      976     4256    4                   CALL ADD_TEXTC('INVALID COMMAND FROM MSOS',25);

   4256  3 003761   000246 236000 4                  LDQ     166
         3 003762   200530 756100                    STQ     @CHIP+1,,AUTO
         3 003763   000247 236000 4                  LDQ     167
         3 003764   200527 756100                    STQ     @BOARD+1,,AUTO
         3 003765   010552 701000 3                  TSX1    ADD_TEXTC
         3 003766   000000 011000                    NOP     0
         3 003767   007070 710000 3                  TRA     s:4630

      977     4257    4                 SELECT(%RC_INV_ADD);

      978     4258    4                   CALL ADD_TEXTC('INVAL ADDR/MEM SZ FROM MSOS',27);

   4258  3 003770   000251 236000 4                  LDQ     169
         3 003771   200530 756100                    STQ     @CHIP+1,,AUTO
         3 003772   000252 236000 4                  LDQ     170
         3 003773   200527 756100                    STQ     @BOARD+1,,AUTO
         3 003774   010552 701000 3                  TSX1    ADD_TEXTC
         3 003775   000000 011000                    NOP     0
         3 003776   007070 710000 3                  TRA     s:4630

      979     4259    4                 SELECT(%RC_INV_IOP);

      980     4260    4                   CALL ADD_TEXTC('INVALID IOP FROM MSOS',21);

   4260  3 003777   000227 236000 4                  LDQ     151
         3 004000   200530 756100                    STQ     @CHIP+1,,AUTO
PL6.E3A0      #001=THF$RAW File=THF$FORMAT.:E05TSI                               WED 07/30/97 06:08 Page:223
         3 004001   000253 236000 4                  LDQ     171
         3 004002   200527 756100                    STQ     @BOARD+1,,AUTO
         3 004003   010552 701000 3                  TSX1    ADD_TEXTC
         3 004004   000000 011000                    NOP     0
         3 004005   007070 710000 3                  TRA     s:4630

      981     4261    4                 SELECT(%RC_INV_CHN);

      982     4262    4                   CALL ADD_TEXTC('INVALID CHANNEL FROM MSOS',25);

   4262  3 004006   000246 236000 4                  LDQ     166
         3 004007   200530 756100                    STQ     @CHIP+1,,AUTO
         3 004010   000254 236000 4                  LDQ     172
         3 004011   200527 756100                    STQ     @BOARD+1,,AUTO
         3 004012   010552 701000 3                  TSX1    ADD_TEXTC
         3 004013   000000 011000                    NOP     0
         3 004014   007070 710000 3                  TRA     s:4630

      983     4263    4                 SELECT(%RC_INV_DEV);

      984     4264    4                   CALL ADD_TEXTC('INVALID DEVICE FROM MSOS',24);

   4264  3 004015   000223 236000 4                  LDQ     147
         3 004016   200530 756100                    STQ     @CHIP+1,,AUTO
         3 004017   000255 236000 4                  LDQ     173
         3 004020   200527 756100                    STQ     @BOARD+1,,AUTO
         3 004021   010552 701000 3                  TSX1    ADD_TEXTC
         3 004022   000000 011000                    NOP     0
         3 004023   007070 710000 3                  TRA     s:4630

      985     4265    4                 SELECT(%RC_RES_NCONF);

      986     4266    4                   CALL ADD_TEXTC('RESOURCE NOT CONFIGURED',23);

   4266  3 004024   000215 236000 4                  LDQ     141
         3 004025   200530 756100                    STQ     @CHIP+1,,AUTO
         3 004026   000256 236000 4                  LDQ     174
PL6.E3A0      #001=THF$RAW File=THF$FORMAT.:E05TSI                               WED 07/30/97 06:08 Page:224
         3 004027   200527 756100                    STQ     @BOARD+1,,AUTO
         3 004030   010552 701000 3                  TSX1    ADD_TEXTC
         3 004031   000000 011000                    NOP     0
         3 004032   007070 710000 3                  TRA     s:4630

      987     4267    4                 SELECT(%RC_SHA_FILE);

      988     4268    4                   CALL ADD_TEXTC('SHARED FILE UNIT ~= DISK',24);

   4268  3 004033   000223 236000 4                  LDQ     147
         3 004034   200530 756100                    STQ     @CHIP+1,,AUTO
         3 004035   000257 236000 4                  LDQ     175
         3 004036   200527 756100                    STQ     @BOARD+1,,AUTO
         3 004037   010552 701000 3                  TSX1    ADD_TEXTC
         3 004040   000000 011000                    NOP     0
         3 004041   007070 710000 3                  TRA     s:4630

      989     4269    4                 SELECT(%RC_RES_ASSGND);

      990     4270    4                   CALL ADD_TEXTC('RESOURCE ALREADY ASSIGNED',25);

   4270  3 004042   000246 236000 4                  LDQ     166
         3 004043   200530 756100                    STQ     @CHIP+1,,AUTO
         3 004044   000260 236000 4                  LDQ     176
         3 004045   200527 756100                    STQ     @BOARD+1,,AUTO
         3 004046   010552 701000 3                  TSX1    ADD_TEXTC
         3 004047   000000 011000                    NOP     0
         3 004050   007070 710000 3                  TRA     s:4630

      991     4271    4                 SELECT(%RC_PER_NCONF);

      992     4272    4                   CALL ADD_TEXTC('PERIPHERAL NOT DEFINED',22);

   4272  3 004051   000233 236000 4                  LDQ     155
         3 004052   200530 756100                    STQ     @CHIP+1,,AUTO
         3 004053   000261 236000 4                  LDQ     177
         3 004054   200527 756100                    STQ     @BOARD+1,,AUTO
PL6.E3A0      #001=THF$RAW File=THF$FORMAT.:E05TSI                               WED 07/30/97 06:08 Page:225
         3 004055   010552 701000 3                  TSX1    ADD_TEXTC
         3 004056   000000 011000                    NOP     0
         3 004057   007070 710000 3                  TRA     s:4630

      993     4273    4                 SELECT(%RC_REL_MON);

      994     4274    4                   CALL ADD_TEXTC('REQUIRE RELEASE OF MONITOR',26);

   4274  3 004060   000263 236000 4                  LDQ     179
         3 004061   200530 756100                    STQ     @CHIP+1,,AUTO
         3 004062   000264 236000 4                  LDQ     180
         3 004063   200527 756100                    STQ     @BOARD+1,,AUTO
         3 004064   010552 701000 3                  TSX1    ADD_TEXTC
         3 004065   000000 011000                    NOP     0
         3 004066   007070 710000 3                  TRA     s:4630

      995     4275    4                 SELECT(%RC_REL_IMPOS);

      996     4276    4                   CALL ADD_TEXTC('RELEASE UNSWAPPABLE PROGRAM',27);

   4276  3 004067   000251 236000 4                  LDQ     169
         3 004070   200530 756100                    STQ     @CHIP+1,,AUTO
         3 004071   000265 236000 4                  LDQ     181
         3 004072   200527 756100                    STQ     @BOARD+1,,AUTO
         3 004073   010552 701000 3                  TSX1    ADD_TEXTC
         3 004074   000000 011000                    NOP     0
         3 004075   007070 710000 3                  TRA     s:4630

      997     4277    4                 SELECT(%RC_MEM_RLSD);

      998     4278    4                   CALL ADD_TEXTC('MEMORY ALREADY RELEASED',23);

   4278  3 004076   000215 236000 4                  LDQ     141
         3 004077   200530 756100                    STQ     @CHIP+1,,AUTO
         3 004100   000266 236000 4                  LDQ     182
         3 004101   200527 756100                    STQ     @BOARD+1,,AUTO
         3 004102   010552 701000 3                  TSX1    ADD_TEXTC
PL6.E3A0      #001=THF$RAW File=THF$FORMAT.:E05TSI                               WED 07/30/97 06:08 Page:226
         3 004103   000000 011000                    NOP     0
         3 004104   007070 710000 3                  TRA     s:4630

      999     4279    4                 SELECT(%RC_INV_PRCS);

     1000     4280    4                   CALL ADD_TEXTC('INVALID PROCESSOR #',19);

   4280  3 004105   000166 236000 4                  LDQ     118
         3 004106   200530 756100                    STQ     @CHIP+1,,AUTO
         3 004107   000267 236000 4                  LDQ     183
         3 004110   200527 756100                    STQ     @BOARD+1,,AUTO
         3 004111   010552 701000 3                  TSX1    ADD_TEXTC
         3 004112   000000 011000                    NOP     0
         3 004113   007070 710000 3                  TRA     s:4630

     1001     4281    4                 SELECT(%RC_EPU_RCONF);

     1002     4282    4                   CALL ADD_TEXTC('EPU IN RECONFIG',15);

   4282  3 004114   000155 236000 4                  LDQ     109
         3 004115   200530 756100                    STQ     @CHIP+1,,AUTO
         3 004116   000270 236000 4                  LDQ     184
         3 004117   200527 756100                    STQ     @BOARD+1,,AUTO
         3 004120   010552 701000 3                  TSX1    ADD_TEXTC
         3 004121   000000 011000                    NOP     0
         3 004122   007070 710000 3                  TRA     s:4630

     1003     4283    4                 SELECT(%RC_PER_RLSD);

     1004     4284    4                   CALL ADD_TEXTC('PERIPHERAL ALREADY RELEASED',27);

   4284  3 004123   000251 236000 4                  LDQ     169
         3 004124   200530 756100                    STQ     @CHIP+1,,AUTO
         3 004125   000271 236000 4                  LDQ     185
         3 004126   200527 756100                    STQ     @BOARD+1,,AUTO
         3 004127   010552 701000 3                  TSX1    ADD_TEXTC
         3 004130   000000 011000                    NOP     0
PL6.E3A0      #001=THF$RAW File=THF$FORMAT.:E05TSI                               WED 07/30/97 06:08 Page:227
         3 004131   007070 710000 3                  TRA     s:4630

     1005     4285    4                 SELECT(%RC_PER_ASSGND);

     1006     4286    4                   CALL ADD_TEXTC('PERIPHERAL ALREADY ASSIGNED',27);

   4286  3 004132   000251 236000 4                  LDQ     169
         3 004133   200530 756100                    STQ     @CHIP+1,,AUTO
         3 004134   000272 236000 4                  LDQ     186
         3 004135   200527 756100                    STQ     @BOARD+1,,AUTO
         3 004136   010552 701000 3                  TSX1    ADD_TEXTC
         3 004137   000000 011000                    NOP     0
         3 004140   007070 710000 3                  TRA     s:4630

     1007     4287    4                 SELECT(ELSE);

     1008     4288    4                   CALL ADD_TEXTC('NOT USED IN CP6',15);

   4288  3 004141   000155 236000 4                  LDQ     109
         3 004142   200530 756100                    STQ     @CHIP+1,,AUTO
         3 004143   000273 236000 4                  LDQ     187
         3 004144   200527 756100                    STQ     @BOARD+1,,AUTO
         3 004145   010552 701000 3                  TSX1    ADD_TEXTC
         3 004146   000000 011000                    NOP     0

     1009     4289    4              END;  /* do case */

   4289  3 004147   007070 710000 3                  TRA     s:4630

     1010     4290    3              ELSE
     1011     4291    4              DO SELECT(EL$CP6SAYS.REASON);

   4291  3 004150   000000 236100                    LDQ     0,,PR0
         3 004151   000022 772000                    QRL     18
         3 004152   000777 376007                    ANQ     511,DL
         3 004153   000002 116007                    CMPQ    2,DL
         3 004154   004162 602000 3                  TNC     s:4291+10
PL6.E3A0      #001=THF$RAW File=THF$FORMAT.:E05TSI                               WED 07/30/97 06:08 Page:228
         3 004155   004176 600000 3                  TZE     s:4295
         3 004156   000022 736000                    QLS     18
         3 004157   000003 116003                    CMPQ    3,DU
         3 004160   007070 601000 3                  TNZ     s:4630
         3 004161   004205 710000 3                  TRA     s:4297
         3 004162   000000 236100                    LDQ     0,,PR0
         3 004163   000777 376003                    ANQ     511,DU
         3 004164   000001 116003                    CMPQ    1,DU
         3 004165   007070 601000 3                  TNZ     s:4630
         3 004166   004167 710000 3                  TRA     s:4293

     1012     4292    4                 SELECT(%REAS_MSOS_CMD_OK);

     1013     4293    4                   CALL ADD_TEXTC('MSOS CMD ACCEPTED & PROCESSED',29);

   4293  3 004167   000275 236000 4                  LDQ     189
         3 004170   200530 756100                    STQ     @CHIP+1,,AUTO
         3 004171   000276 236000 4                  LDQ     190
         3 004172   200527 756100                    STQ     @BOARD+1,,AUTO
         3 004173   010552 701000 3                  TSX1    ADD_TEXTC
         3 004174   000000 011000                    NOP     0
         3 004175   007070 710000 3                  TRA     s:4630

     1014     4294    4                 SELECT(%REAS_RES_IN_USE);

     1015     4295    4                   CALL ADD_TEXTC('RESOURCE REQUESTED IN USE',25);

   4295  3 004176   000246 236000 4                  LDQ     166
         3 004177   200530 756100                    STQ     @CHIP+1,,AUTO
         3 004200   000277 236000 4                  LDQ     191
         3 004201   200527 756100                    STQ     @BOARD+1,,AUTO
         3 004202   010552 701000 3                  TSX1    ADD_TEXTC
         3 004203   000000 011000                    NOP     0
         3 004204   007070 710000 3                  TRA     s:4630

     1016     4296    4                 SELECT(%REAS_PER_NOT_PART);

PL6.E3A0      #001=THF$RAW File=THF$FORMAT.:E05TSI                               WED 07/30/97 06:08 Page:229
     1017     4297    4                   CALL ADD_TEXTC('PERIPH NOT PARTITIONED-CP6 CAN''T RELEASE',40);

   4297  3 004205   000301 236000 4                  LDQ     193
         3 004206   200530 756100                    STQ     @CHIP+1,,AUTO
         3 004207   000302 236000 4                  LDQ     194
         3 004210   200527 756100                    STQ     @BOARD+1,,AUTO
         3 004211   010552 701000 3                  TSX1    ADD_TEXTC
         3 004212   000000 011000                    NOP     0

     1018     4298    4              END;  /* do select el$cp6says.reason */

   4298  3 004213   007070 710000 3                  TRA     s:4630

     1019     4299    3            CASE(%TH_IOERR);

     1020     4300    3              IF ((EL$IOERR.MPC_MODEL = 'URPEURP ')

   4300  3 004214   200005 470500                    LDP0    INFO+1,,AUTO
         3 004215   040000 106500                    CMPC    fill='040'O
         3 004216   000032 000010                    ADSC9   26,,PR0                  cn=0,n=8
         3 004217   001574 000010 1                  ADSC9   BOARD_64K+445            cn=0,n=8
         3 004220   004245 600000 3                  TZE     s:4307
         3 004221   040000 106500                    CMPC    fill='040'O
         3 004222   000032 000010                    ADSC9   26,,PR0                  cn=0,n=8
         3 004223   001576 000010 1                  ADSC9   BOARD_64K+447            cn=0,n=8
         3 004224   004245 600000 3                  TZE     s:4307
         3 004225   040000 106500                    CMPC    fill='040'O
         3 004226   000032 000010                    ADSC9   26,,PR0                  cn=0,n=8
         3 004227   001600 000010 1                  ADSC9   BOARD_64K+449            cn=0,n=8
         3 004230   004245 600000 3                  TZE     s:4307
         3 004231   040000 106500                    CMPC    fill='040'O
         3 004232   000032 000010                    ADSC9   26,,PR0                  cn=0,n=8
         3 004233   001602 000010 1                  ADSC9   BOARD_64K+451            cn=0,n=8
         3 004234   004245 600000 3                  TZE     s:4307
         3 004235   040000 106500                    CMPC    fill='040'O
         3 004236   000032 000010                    ADSC9   26,,PR0                  cn=0,n=8
         3 004237   001604 000010 1                  ADSC9   BOARD_64K+453            cn=0,n=8
PL6.E3A0      #001=THF$RAW File=THF$FORMAT.:E05TSI                               WED 07/30/97 06:08 Page:230
         3 004240   004245 600000 3                  TZE     s:4307
         3 004241   040000 106500                    CMPC    fill='040'O
         3 004242   000032 000010                    ADSC9   26,,PR0                  cn=0,n=8
         3 004243   001606 000010 1                  ADSC9   BOARD_64K+455            cn=0,n=8
         3 004244   004266 601000 3                  TNZ     s:4312

     1021     4301    3                OR (EL$IOERR.MPC_MODEL = 'URP8011 ')
     1022     4302    3                OR (EL$IOERR.MPC_MODEL = 'URP8012 ')
     1023     4303    3                OR (EL$IOERR.MPC_MODEL = 'URP8013 ')
     1024     4304    3                OR (EL$IOERR.MPC_MODEL = 'URP8600 ')
     1025     4305    3                OR (EL$IOERR.MPC_MODEL = 'URP8601 '))
     1026     4306    4                  THEN DO;

     1027     4307    4                      ASCII_EXTST = EL$IOERR.EXTST;  /* REFORMAT EXTENDED STATUS */

   4307  3 004245   000100 100500                    MLR     fill='000'O
         3 004246   000013 000040                    ADSC9   11,,PR0                  cn=0,n=32
         3 004247   200263 000040                    ADSC9   ASCII_EXTST,,AUTO        cn=0,n=32

     1028     4308    5                      DO J = 0 TO 31;

   4308  3 004250   200100 450100                    STZ     J,,AUTO

     1029     4309    5                         EL$IOERR.EXTST(J) = ASCII_EXTST.BYT(J);

   4309  3 004251   200100 236100                    LDQ     J,,AUTO
         3 004252   000011 402007                    MPY     9,DL
         3 004253   200100 235100                    LDA     J,,AUTO
         3 004254   000003 735000                    ALS     3
         3 004255   200005 470500                    LDP0    INFO+1,,AUTO
         3 004256   003105 060506                    CSL     bolr='003'O
         3 004257   200263 010010                    BDSC    ASCII_EXTST,Q,AUTO       by=0,bit=1,n=8
         3 004260   000013 000010                    BDSC    11,A,PR0                 by=0,bit=0,n=8

     1030     4310    5                      END;

   4310  3 004261   200100 235100                    LDA     J,,AUTO
PL6.E3A0      #001=THF$RAW File=THF$FORMAT.:E05TSI                               WED 07/30/97 06:08 Page:231
         3 004262   000001 035007                    ADLA    1,DL
         3 004263   200100 755100                    STA     J,,AUTO
         3 004264   000040 115007                    CMPA    32,DL
         3 004265   004251 602000 3                  TNC     s:4309

     1031     4311    4                  END;

     1032     4312    3              IF ((EL$IOERR.MODEL = 'PRU1200')

   4312  3 004266   200005 470500                    LDP0    INFO+1,,AUTO
         3 004267   040000 106500                    CMPC    fill='040'O
         3 004270   000030 000010                    ADSC9   24,,PR0                  cn=0,n=8
         3 004271   001610 000007 1                  ADSC9   BOARD_64K+457            cn=0,n=7
         3 004272   004277 600000 3                  TZE     s:4314
         3 004273   040000 106500                    CMPC    fill='040'O
         3 004274   000030 000010                    ADSC9   24,,PR0                  cn=0,n=8
         3 004275   001612 000007 1                  ADSC9   BOARD_64K+459            cn=0,n=7
         3 004276   004314 601000 3                  TNZ     s:4317

     1033     4313    3                OR (EL$IOERR.MODEL = 'PRU1600')) THEN
     1034     4314    4                   DO J = 15 TO 35;       /* CLEAR UNNECESSARY JUNK FROM EXT STATUS */

   4314  3 004277   000017 235007                    LDA     15,DL
         3 004300   200100 755100                    STA     J,,AUTO

     1035     4315    4                      EL$IOERR.EXTST(J) = 0;

   4315  3 004301   200100 235100                    LDA     J,,AUTO
         3 004302   000003 735000                    ALS     3
         3 004303   200005 470500                    LDP0    INFO+1,,AUTO
         3 004304   003105 061400                    CSR     bolr='003'O
         3 004305   000002 000044 xsym               BDSC    B_VECTNIL+2              by=0,bit=0,n=36
         3 004306   000013 000010                    BDSC    11,A,PR0                 by=0,bit=0,n=8

     1036     4316    4                   END;

   4316  3 004307   200100 236100                    LDQ     J,,AUTO
PL6.E3A0      #001=THF$RAW File=THF$FORMAT.:E05TSI                               WED 07/30/97 06:08 Page:232
         3 004310   000001 036007                    ADLQ    1,DL
         3 004311   200100 756100                    STQ     J,,AUTO
         3 004312   000044 116007                    CMPQ    36,DL
         3 004313   004301 602000 3                  TNC     s:4315

     1037     4317    3              IF EL$IOERR.THRESH.DEVICE

   4317  3 004314   200005 470500                    LDP0    INFO+1,,AUTO
         3 004315   000027 236100                    LDQ     23,,PR0
         3 004316   040000 316007                    CANQ    16384,DL
         3 004317   004330 600000 3                  TZE     s:4320

     1038     4318    3                 THEN CALL BINCHAR(TEMP,EL$IOERR.CONNECTS.DEVICE);

   4318  3 004320   000007 236100                    LDQ     7,,PR0
         3 004321   777777 376007                    ANQ     -1,DL
         3 004322   000000 235003                    LDA     0,DU
         3 004323   200534 757100                    STAQ    CHIP#+2,,AUTO
         3 004324   000100 301500                    BTD
         3 004325   200534 000010                    NDSC9   CHIP#+2,,AUTO            cn=0,s=lsgnf,sf=0,n=8
         3 004326   200017 030077                    NDSC9   TEMP,,AUTO               cn=0,s=nosgn,sf=0,n=63
         3 004327   004374 710000 3                  TRA     s:4329

     1039     4319    3                 ELSE
     1040     4320    3              IF EL$IOERR.THRESH.IOM

   4320  3 004330   400000 316007                    CANQ    -131072,DL
         3 004331   004342 600000 3                  TZE     s:4323

     1041     4321    3                 THEN CALL BINCHAR(TEMP,EL$IOERR.CONNECTS.IOM);

   4321  3 004332   000006 236100                    LDQ     6,,PR0
         3 004333   000022 772000                    QRL     18
         3 004334   000000 235003                    LDA     0,DU
         3 004335   200534 757100                    STAQ    CHIP#+2,,AUTO
         3 004336   000100 301500                    BTD
         3 004337   200534 000010                    NDSC9   CHIP#+2,,AUTO            cn=0,s=lsgnf,sf=0,n=8
PL6.E3A0      #001=THF$RAW File=THF$FORMAT.:E05TSI                               WED 07/30/97 06:08 Page:233
         3 004340   200017 030077                    NDSC9   TEMP,,AUTO               cn=0,s=nosgn,sf=0,n=63
         3 004341   004374 710000 3                  TRA     s:4329

     1042     4322    3                 ELSE
     1043     4323    3              IF EL$IOERR.THRESH.CHANNEL

   4323  3 004342   200000 316007                    CANQ    65536,DL
         3 004343   004354 600000 3                  TZE     s:4326

     1044     4324    3                 THEN CALL BINCHAR(TEMP,EL$IOERR.CONNECTS.CHANNEL);

   4324  3 004344   000006 236100                    LDQ     6,,PR0
         3 004345   777777 376007                    ANQ     -1,DL
         3 004346   000000 235003                    LDA     0,DU
         3 004347   200534 757100                    STAQ    CHIP#+2,,AUTO
         3 004350   000100 301500                    BTD
         3 004351   200534 000010                    NDSC9   CHIP#+2,,AUTO            cn=0,s=lsgnf,sf=0,n=8
         3 004352   200017 030077                    NDSC9   TEMP,,AUTO               cn=0,s=nosgn,sf=0,n=63
         3 004353   004374 710000 3                  TRA     s:4329

     1045     4325    3                 ELSE
     1046     4326    3              IF EL$IOERR.THRESH.MPC

   4326  3 004354   100000 316007                    CANQ    32768,DL
         3 004355   004366 600000 3                  TZE     s:4328

     1047     4327    3                 THEN CALL BINCHAR(TEMP,EL$IOERR.CONNECTS.MPC);

   4327  3 004356   000007 236100                    LDQ     7,,PR0
         3 004357   000022 772000                    QRL     18
         3 004360   000000 235003                    LDA     0,DU
         3 004361   200534 757100                    STAQ    CHIP#+2,,AUTO
         3 004362   000100 301500                    BTD
         3 004363   200534 000010                    NDSC9   CHIP#+2,,AUTO            cn=0,s=lsgnf,sf=0,n=8
         3 004364   200017 030077                    NDSC9   TEMP,,AUTO               cn=0,s=nosgn,sf=0,n=63
         3 004365   004374 710000 3                  TRA     s:4329

PL6.E3A0      #001=THF$RAW File=THF$FORMAT.:E05TSI                               WED 07/30/97 06:08 Page:234
     1048     4328    3                 ELSE CALL BINCHAR(TEMP,0);

   4328  3 004366   000000 235003                    LDA     0,DU
         3 004367   000044 773000                    LRL     36
         3 004370   200534 757100                    STAQ    CHIP#+2,,AUTO
         3 004371   000100 301500                    BTD
         3 004372   200534 000010                    NDSC9   CHIP#+2,,AUTO            cn=0,s=lsgnf,sf=0,n=8
         3 004373   200017 030077                    NDSC9   TEMP,,AUTO               cn=0,s=nosgn,sf=0,n=63

     1049     4329    3              J = 0;

   4329  3 004374   200100 450100                    STZ     J,,AUTO

     1050     4330    4              DO WHILE ((SUBSTR(TEMP,J,1) = '0') & (J < 63));

   4330  3 004375   004401 710000 3                  TRA     s:4332

     1051     4331    4                 J = J + 1;

   4331  3 004376   200100 235100                    LDA     J,,AUTO
         3 004377   000001 035007                    ADLA    1,DL
         3 004400   200100 755100                    STA     J,,AUTO

     1052     4332    4              END;                         /* DO WHILE                           */

   4332  3 004401   400000 220003                    LDX0    -131072,DU
         3 004402   200100 235100                    LDA     J,,AUTO
         3 004403   040000 106505                    CMPC    fill='040'O
         3 004404   200017 000001                    ADSC9   TEMP,A,AUTO              cn=0,n=1
         3 004405   000127 000001 4                  ADSC9   87                       cn=0,n=1
         3 004406   004410 600000 3                  TZE     s:4332+7
         3 004407   000000 220003                    LDX0    0,DU
         3 004410   400000 221003                    LDX1    -131072,DU
         3 004411   000077 115007                    CMPA    63,DL
         3 004412   004414 602000 3                  TNC     s:4332+11
         3 004413   000000 221003                    LDX1    0,DU
         3 004414   000000 636011                    EAQ     0,X1
PL6.E3A0      #001=THF$RAW File=THF$FORMAT.:E05TSI                               WED 07/30/97 06:08 Page:235
         3 004415   200534 756100                    STQ     CHIP#+2,,AUTO
         3 004416   000000 636010                    EAQ     0,X0
         3 004417   200534 376100                    ANQ     CHIP#+2,,AUTO
         3 004420   004376 601000 3                  TNZ     s:4331

     1053     4333    3              LEN = 63 - J;

   4333  3 004421   000027 675000 xsym               ERA     B_VECTNIL+23
         3 004422   000100 035007                    ADLA    64,DL
         3 004423   200102 755100                    STA     LEN,,AUTO

     1054     4334    3              IF LEN = 0

   4334  3 004424   004430 601000 3                  TNZ     s:4340

     1055     4335    3                 THEN
     1056     4336    4                 DO;

     1057     4337    4                    LEN = 1;

   4337  3 004425   000001 236007                    LDQ     1,DL
         3 004426   200102 756100                    STQ     LEN,,AUTO

     1058     4338    4                    J = 0;

   4338  3 004427   200100 450100                    STZ     J,,AUTO

     1059     4339    4                 END;

     1060     4340    3              CALL ADD_TEXTC(SUBSTR(TEMP,J,LEN),LEN);

   4340  3 004430   200102 630500                    EPPR0   LEN,,AUTO
         3 004431   200530 450500                    STP0    @CHIP+1,,AUTO
         3 004432   200534 452500                    STP2    CHIP#+2,,AUTO
         3 004433   200100 236100                    LDQ     J,,AUTO
         3 004434   000020 736000                    QLS     16
         3 004435   000017 036003                    ADLQ    15,DU
PL6.E3A0      #001=THF$RAW File=THF$FORMAT.:E05TSI                               WED 07/30/97 06:08 Page:236
         3 004436   200534 036100                    ADLQ    CHIP#+2,,AUTO
         3 004437   200527 756100                    STQ     @BOARD+1,,AUTO
         3 004440   010552 701000 3                  TSX1    ADD_TEXTC
         3 004441   000000 011000                    NOP     0

     1061     4341    3              IF TH_LAST_REQID  = EL$IOERR.REQID

   4341  3 004442   200005 470500                    LDP0    INFO+1,,AUTO
         3 004443   000000 236000 xsym               LDQ     TH_LAST_REQID
         3 004444   000000 116100                    CMPQ    0,,PR0
         3 004445   004455 601000 3                  TNZ     s:4343

     1062     4342    3                 THEN CALL ADD_TEXTC('  *',3);

   4342  3 004446   000100 236000 4                  LDQ     64
         3 004447   200530 756100                    STQ     @CHIP+1,,AUTO
         3 004450   000303 236000 4                  LDQ     195
         3 004451   200527 756100                    STQ     @BOARD+1,,AUTO
         3 004452   010552 701000 3                  TSX1    ADD_TEXTC
         3 004453   000000 011000                    NOP     0
         3 004454   004463 710000 3                  TRA     s:4344

     1063     4343    3                 ELSE CALL ADD_TEXTC('   ',3);

   4343  3 004455   000100 236000 4                  LDQ     64
         3 004456   200530 756100                    STQ     @CHIP+1,,AUTO
         3 004457   000304 236000 4                  LDQ     196
         3 004460   200527 756100                    STQ     @BOARD+1,,AUTO
         3 004461   010552 701000 3                  TSX1    ADD_TEXTC
         3 004462   000000 011000                    NOP     0

     1064     4344    3              TH_LAST_REQID = EL$IOERR.REQID;

   4344  3 004463   200005 470500                    LDP0    INFO+1,,AUTO
         3 004464   000000 235100                    LDA     0,,PR0
         3 004465   000000 755000 xsym               STA     TH_LAST_REQID

PL6.E3A0      #001=THF$RAW File=THF$FORMAT.:E05TSI                               WED 07/30/97 06:08 Page:237
     1065     4345
     1066     4346                                                /* CHECK FOR SPECIAL STATUS           */
     1067     4347    3              TEMP_STATUS = EL$IOERR.STATUS;

   4347  3 004466   000000 100500                    MLR     fill='000'O
         3 004467   000001 000010                    ADSC9   1,,PR0                   cn=0,n=8
         3 004470   000054 000010 2                  ADSC9   TEMP_STATUS              cn=0,n=8

     1068     4348    3              IF TEMP_STATUS1.MAJOR_STATUS = '101111'B /* '57'O                  */

   4348  3 004471   000054 236000 2                  LDQ     TEMP_STATUS
         3 004472   770000 376003                    ANQ     -4096,DU
         3 004473   570000 116003                    CMPQ    -69632,DU
         3 004474   004506 601000 3                  TNZ     s:4355

     1069     4349    3                 THEN
     1070     4350    4                 DO;

     1071     4351    4                    TEMP_STATUS1.XX = TEMP_STATUS1.FAULT_CODE;

   4351  3 004475   000055 236000 2                  LDQ     TEMP_STATUS+1
         3 004476   000030 736000                    QLS     24
         3 004477   000054 752020 2                  STCQ    TEMP_STATUS,'20'O

     1072     4352    4                    TEMP_STATUS1.YY = TEMP_STATUS1.CHANNEL;

   4352  3 004500   000055 236000 2                  LDQ     TEMP_STATUS+1
         3 004501   000006 772000                    QRL     6
         3 004502   000054 752004 2                  STCQ    TEMP_STATUS,'04'O

     1073     4353    4                    EL$IOERR.STATUS = TEMP_STATUS;

   4353  3 004503   000054 237000 2                  LDAQ    TEMP_STATUS
         3 004504   000001 755100                    STA     1,,PR0
         3 004505   000002 756100                    STQ     2,,PR0

     1074     4354    4                 END;                      /* IF MAJOR_STATUS = '57'O            */
PL6.E3A0      #001=THF$RAW File=THF$FORMAT.:E05TSI                               WED 07/30/97 06:08 Page:238

     1075     4355    3              CALL THF$STATUS(EL$IOERR,MAJBUF,MAJCNT,MINBUF,MINCNT)

   4355  3 004506   200367 630500                    EPPR0   MINCNT,,AUTO
         3 004507   200540 450500                    STP0    CHIP#+6,,AUTO
         3 004510   200356 631500                    EPPR1   MINBUF,,AUTO
         3 004511   200537 451500                    STP1    CHIP#+5,,AUTO
         3 004512   200366 633500                    EPPR3   MAJCNT,,AUTO
         3 004513   200536 453500                    STP3    CHIP#+4,,AUTO
         3 004514   200346 634500                    EPPR4   MAJBUF,,AUTO
         3 004515   200535 454500                    STP4    CHIP#+3,,AUTO
         3 004516   200005 236100                    LDQ     INFO+1,,AUTO
         3 004517   200534 756100                    STQ     CHIP#+2,,AUTO
         3 004520   200534 630500                    EPPR0   CHIP#+2,,AUTO
         3 004521   000023 631400 xsym               EPPR1   B_VECTNIL+19
         3 004522   000000 701000 xent               TSX1    THF$STATUS
         3 004523   004551 702000 3                  TSX2    NO_STAT

     1076     4356    3                              ALTRET(NO_STAT);
     1077     4357    3              CALL THF$ADD_TEXTC(MM$,MAJBUF,MAJCNT);

   4357  3 004524   200366 630500                    EPPR0   MAJCNT,,AUTO
         3 004525   200536 450500                    STP0    CHIP#+4,,AUTO
         3 004526   200346 631500                    EPPR1   MAJBUF,,AUTO
         3 004527   200535 451500                    STP1    CHIP#+3,,AUTO
         3 004530   200370 633500                    EPPR3   MM$,,AUTO
         3 004531   200534 453500                    STP3    CHIP#+2,,AUTO
         3 004532   200534 630500                    EPPR0   CHIP#+2,,AUTO
         3 004533   000021 631400 xsym               EPPR1   B_VECTNIL+17
         3 004534   000000 701000 xent               TSX1    THF$ADD_TEXTC
         3 004535   000000 011000                    NOP     0

     1078     4358    3              CALL THF$ADD_TEXTC(MM$,MINBUF,MINCNT);

   4358  3 004536   200367 630500                    EPPR0   MINCNT,,AUTO
         3 004537   200536 450500                    STP0    CHIP#+4,,AUTO
         3 004540   200356 631500                    EPPR1   MINBUF,,AUTO
PL6.E3A0      #001=THF$RAW File=THF$FORMAT.:E05TSI                               WED 07/30/97 06:08 Page:239
         3 004541   200535 451500                    STP1    CHIP#+3,,AUTO
         3 004542   200370 633500                    EPPR3   MM$,,AUTO
         3 004543   200534 453500                    STP3    CHIP#+2,,AUTO
         3 004544   200534 630500                    EPPR0   CHIP#+2,,AUTO
         3 004545   000021 631400 xsym               EPPR1   B_VECTNIL+17
         3 004546   000000 701000 xent               TSX1    THF$ADD_TEXTC
         3 004547   000000 011000                    NOP     0

     1079     4359    4              DO NEVER;

   4359  3 004550   004612 710000 3                  TRA     s:4366

     1080     4360    4   NO_STAT:
     1081     4361    4                 CALL THF$ADD_TEXTC(MM$,'***',3);

   4361  3 004551   000100 236000 4     NO_STAT      LDQ     64
         3 004552   200536 756100                    STQ     CHIP#+4,,AUTO
         3 004553   000305 236000 4                  LDQ     197
         3 004554   200535 756100                    STQ     CHIP#+3,,AUTO
         3 004555   200370 630500                    EPPR0   MM$,,AUTO
         3 004556   200534 450500                    STP0    CHIP#+2,,AUTO
         3 004557   200534 630500                    EPPR0   CHIP#+2,,AUTO
         3 004560   000021 631400 xsym               EPPR1   B_VECTNIL+17
         3 004561   000000 701000 xent               TSX1    THF$ADD_TEXTC
         3 004562   000000 011000                    NOP     0

     1082     4362    4                 CALL THF$ADD_TEXTC(MM$,'***',3);

   4362  3 004563   000100 236000 4                  LDQ     64
         3 004564   200536 756100                    STQ     CHIP#+4,,AUTO
         3 004565   000305 236000 4                  LDQ     197
         3 004566   200535 756100                    STQ     CHIP#+3,,AUTO
         3 004567   200370 630500                    EPPR0   MM$,,AUTO
         3 004570   200534 450500                    STP0    CHIP#+2,,AUTO
         3 004571   200534 630500                    EPPR0   CHIP#+2,,AUTO
         3 004572   000021 631400 xsym               EPPR1   B_VECTNIL+17
         3 004573   000000 701000 xent               TSX1    THF$ADD_TEXTC
PL6.E3A0      #001=THF$RAW File=THF$FORMAT.:E05TSI                               WED 07/30/97 06:08 Page:240
         3 004574   000000 011000                    NOP     0

     1083     4363    4                 MMVEC = VECTOR(MMBUF);

   4363  3 004575   000306 237000 4                  LDAQ    198
         3 004576   200372 757100                    STAQ    MMVEC,,AUTO

     1084     4364    4                 MMVEC.BOUND = POFFC(MM$,ADDR(MMBUF)) - 1;

   4364  3 004577   000012 236000 4                  LDQ     10
         3 004600   000020 772000                    QRL     16
         3 004601   200534 756100                    STQ     CHIP#+2,,AUTO
         3 004602   200370 236100                    LDQ     MM$,,AUTO
         3 004603   000020 772000                    QRL     16
         3 004604   200534 136100                    SBLQ    CHIP#+2,,AUTO
         3 004605   000001 136007                    SBLQ    1,DL
         3 004606   000020 736000                    QLS     16
         3 004607   200372 676100                    ERQ     MMVEC,,AUTO
         3 004610   000034 376000 xsym               ANQ     B_VECTNIL+28
         3 004611   200372 656100                    ERSQ    MMVEC,,AUTO

     1085     4365    4              END;

     1086     4366    3                 NXST = 0;

   4366  3 004612   200343 450100                    STZ     NXST,,AUTO

     1087     4367    3                 DEV_FLAG = %FALSE;

   4367  3 004613   200214 450100                    STZ     DEV_FLAG,,AUTO

     1088     4368    4                 DO I = 0 TO NUMMODELS;

   4368  3 004614   200010 450100                    STZ     I,,AUTO

     1089     4369    4                   IF EL$IOERR.MODEL = X_DEV_TYPE.DEV(I)

PL6.E3A0      #001=THF$RAW File=THF$FORMAT.:E05TSI                               WED 07/30/97 06:08 Page:241
   4369  3 004615   200010 235100                    LDA     I,,AUTO
         3 004616   000004 735000                    ALS     4
         3 004617   200005 470500                    LDP0    INFO+1,,AUTO
         3 004620   040005 106500                    CMPC    fill='040'O
         3 004621   000030 000010                    ADSC9   24,,PR0                  cn=0,n=8
         3 004622   000000 000010 xsym               ADSC9   X_DEV_TYPE,A             cn=0,n=8
         3 004623   004671 601000 3                  TNZ     s:4387

     1090     4370    5                      THEN DO;

     1091     4371    5                           IO_MASK = EL$IOERR.EXTST;

   4371  3 004624   000100 100500                    MLR     fill='000'O
         3 004625   000013 000040                    ADSC9   11,,PR0                  cn=0,n=32
         3 004626   200221 000040                    ADSC9   IO_MASK,,AUTO            cn=0,n=32

     1092     4372    5                           IF IO_MASK1

   4372  3 004627   000000 106500                    CMPC    fill='000'O
         3 004630   200221 000040                    ADSC9   IO_MASK,,AUTO            cn=0,n=32
         3 004631   000002 000002 xsym               ADSC9   B_VECTNIL+2              cn=0,n=2
         3 004632   006064 600000 3                  TZE     NO_INTERP

   4368  3 004633   004634 710000 3                  TRA     s:4375

     1093     4373    5                               THEN;
     1094     4374    5                               ELSE GOTO NO_INTERP;
     1095     4375    5                           IF EL$IOERR.MODEL = 'MTU0610'  AND

   4375  3 004634   040000 106500                    CMPC    fill='040'O
         3 004635   000030 000010                    ADSC9   24,,PR0                  cn=0,n=8
         3 004636   001617 000007 1                  ADSC9   BOARD_64K+464            cn=0,n=7
         3 004637   004646 601000 3                  TNZ     s:4379
         3 004640   200222 236100                    LDQ     IO_MASK+1,,AUTO
         3 004641   000001 316003                    CANQ    1,DU
         3 004642   004646 600000 3                  TZE     s:4379
         3 004643   400000 316007                    CANQ    -131072,DL
PL6.E3A0      #001=THF$RAW File=THF$FORMAT.:E05TSI                               WED 07/30/97 06:08 Page:242
         3 004644   004646 600000 3                  TZE     s:4379

     1096     4376    5                              IO_MASK1(53) AND IO_MASK1(54)
     1097     4377    5                               THEN I = I + 1;

   4377  3 004645   200010 054100                    AOS     I,,AUTO

     1098     4378        /* REMOVE THE FOLLOWING TEST WHEN #39334 IS FIXED                */
     1099     4379    5                           IF EL$IOERR.MODEL = 'PRU1200'

   4379  3 004646   040000 106500                    CMPC    fill='040'O
         3 004647   000030 000010                    ADSC9   24,,PR0                  cn=0,n=8
         3 004650   001610 000007 1                  ADSC9   BOARD_64K+457            cn=0,n=7
         3 004651   004657 601000 3                  TNZ     s:4382
         3 004652   200222 236100                    LDQ     IO_MASK+1,,AUTO
         3 004653   000100 316003                    CANQ    64,DU
         3 004654   004657 600000 3                  TZE     s:4382

     1100     4380    5                           AND IO_MASK1(47) THEN        /* ITS A PR54 */
     1101     4381    5                               I = I - 1;

   4381  3 004655   000001 336007                    LCQ     1,DL
         3 004656   200010 056100                    ASQ     I,,AUTO

     1102     4382    5                           DEV$ = X_DEV_TYPE.SUB$(I);

   4382  3 004657   200010 235100                    LDA     I,,AUTO
         3 004660   000002 735000                    ALS     2
         3 004661   000002 236005 xsym               LDQ     X_DEV_TYPE+2,AL
         3 004662   200215 756100                    STQ     DEV$,,AUTO

     1103     4383    5                           DEV_FLAG = %TRUE;

   4383  3 004663   400000 236003                    LDQ     -131072,DU
         3 004664   200214 756100                    STQ     DEV_FLAG,,AUTO

     1104     4384    5                           J = X_DEV_TYPE.COUNT(I);
PL6.E3A0      #001=THF$RAW File=THF$FORMAT.:E05TSI                               WED 07/30/97 06:08 Page:243

   4384  3 004665   000003 236005 xsym               LDQ     X_DEV_TYPE+3,AL
         3 004666   000033 772000                    QRL     27
         3 004667   200100 756100                    STQ     J,,AUTO

     1105     4385    5                           GOTO FND;

   4385  3 004670   004675 710000 3                  TRA     FND

     1106     4386    5                           END;
     1107     4387    4                 END;

   4387  3 004671   200010 054100                    AOS     I,,AUTO
         3 004672   200010 235100                    LDA     I,,AUTO
         3 004673   000035 115007                    CMPA    29,DL
         3 004674   004615 604400 3                  TMOZ    s:4369

     1108     4388    3   FND:
     1109     4389    3                 IF DEV_FLAG

   4389  3 004675   200214 234100       FND          SZN     DEV_FLAG,,AUTO
         3 004676   006064 605000 3                  TPL     NO_INTERP

     1110     4390    4                   THEN DO;

     1111     4391    4                      XST$ = ADDR(XSTBUF);

   4391  3 004677   000310 236000 4                  LDQ     200
         3 004700   200300 756100                    STQ     XST$,,AUTO

     1112     4392    4                      CALL THF$ADD_TEXTC (XST$,'   ',3);

   4392  3 004701   000100 236000 4                  LDQ     64
         3 004702   200536 756100                    STQ     CHIP#+4,,AUTO
         3 004703   000304 236000 4                  LDQ     196
         3 004704   200535 756100                    STQ     CHIP#+3,,AUTO
         3 004705   200300 631500                    EPPR1   XST$,,AUTO
PL6.E3A0      #001=THF$RAW File=THF$FORMAT.:E05TSI                               WED 07/30/97 06:08 Page:244
         3 004706   200534 451500                    STP1    CHIP#+2,,AUTO
         3 004707   200534 630500                    EPPR0   CHIP#+2,,AUTO
         3 004710   000021 631400 xsym               EPPR1   B_VECTNIL+17
         3 004711   000000 701000 xent               TSX1    THF$ADD_TEXTC
         3 004712   000000 011000                    NOP     0

     1113     4393    4                      MODEL_CHAR = EL$IOERR.MODEL;

   4393  3 004713   200005 470500                    LDP0    INFO+1,,AUTO
         3 004714   000030 236100                    LDQ     24,,PR0
         3 004715   000134 376000 4                  ANQ     92
         3 004716   000040 276007                    ORQ     32,DL
         3 004717   200220 756100                    STQ     MODEL_CHAR,,AUTO

     1114     4394    5                      DO I = 0 TO J;

   4394  3 004720   200010 450100                    STZ     I,,AUTO
         3 004721   006060 710000 3                  TRA     s:4504+1

     1115     4395    5                       IF (((MODEL_CHAR = 'MTU') AND (EL$IOERR.MODEL ~= 'MTU8200') AND

   4395  3 004722   200220 236100                    LDQ     MODEL_CHAR,,AUTO
         3 004723   001617 676000 1                  ERQ     BOARD_64K+464
         3 004724   000134 376000 4                  ANQ     92
         3 004725   004764 601000 3                  TNZ     s:4395+34
         3 004726   200005 470500                    LDP0    INFO+1,,AUTO
         3 004727   040000 106500                    CMPC    fill='040'O
         3 004730   000030 000010                    ADSC9   24,,PR0                  cn=0,n=8
         3 004731   001621 000007 1                  ADSC9   BOARD_64K+466            cn=0,n=7
         3 004732   004764 600000 3                  TZE     s:4395+34
         3 004733   200010 236100                    LDQ     I,,AUTO
         3 004734   000012 402007                    MPY     10,DL
         3 004735   200215 471500                    LDP1    DEV$,,AUTO
         3 004736   100000 236106                    LDQ     0,QL,PR1
         3 004737   777000 376003                    ANQ     -512,DU
         3 004740   020000 116003                    CMPQ    8192,DU
         3 004741   005000 600000 3                  TZE     s:4401
PL6.E3A0      #001=THF$RAW File=THF$FORMAT.:E05TSI                               WED 07/30/97 06:08 Page:245
         3 004742   200010 236100                    LDQ     I,,AUTO
         3 004743   000012 402007                    MPY     10,DL
         3 004744   100000 236106                    LDQ     0,QL,PR1
         3 004745   777000 376003                    ANQ     -512,DU
         3 004746   024000 116003                    CMPQ    10240,DU
         3 004747   005000 600000 3                  TZE     s:4401
         3 004750   200010 236100                    LDQ     I,,AUTO
         3 004751   000012 402007                    MPY     10,DL
         3 004752   100000 236106                    LDQ     0,QL,PR1
         3 004753   777000 376003                    ANQ     -512,DU
         3 004754   033000 116003                    CMPQ    13824,DU
         3 004755   005000 600000 3                  TZE     s:4401
         3 004756   200010 236100                    LDQ     I,,AUTO
         3 004757   000012 402007                    MPY     10,DL
         3 004760   100000 236106                    LDQ     0,QL,PR1
         3 004761   777000 376003                    ANQ     -512,DU
         3 004762   043000 116003                    CMPQ    17920,DU
         3 004763   005000 600000 3                  TZE     s:4401
         3 004764   200005 470500                    LDP0    INFO+1,,AUTO
         3 004765   040000 106500                    CMPC    fill='040'O
         3 004766   000030 000010                    ADSC9   24,,PR0                  cn=0,n=8
         3 004767   001623 000007 1                  ADSC9   BOARD_64K+468            cn=0,n=7
         3 004770   005263 601000 3                  TNZ     s:4436
         3 004771   200010 236100                    LDQ     I,,AUTO
         3 004772   000012 402007                    MPY     10,DL
         3 004773   200215 471500                    LDP1    DEV$,,AUTO
         3 004774   100000 236106                    LDQ     0,QL,PR1
         3 004775   777000 376003                    ANQ     -512,DU
         3 004776   140000 116003                    CMPQ    49152,DU
         3 004777   005263 601000 3                  TNZ     s:4436

     1116     4396    5                           (DEVTBL.CODE(I) = 16 OR DEVTBL.CODE(I) = 20
     1117     4397    5                            OR DEVTBL.CODE(I) = 27 OR DEVTBL.CODE(I) = 35))
     1118     4398    5                           OR (EL$IOERR.MODEL = 'MTU0400' AND
     1119     4399    5                               DEVTBL.CODE(I) = 96))
     1120     4400    6                           THEN DO;

PL6.E3A0      #001=THF$RAW File=THF$FORMAT.:E05TSI                               WED 07/30/97 06:08 Page:246
     1121     4401    7                             DO CASE (DEVTBL.CODE(I));

   4401  3 005000   200010 236100                    LDQ     I,,AUTO
         3 005001   000012 402007                    MPY     10,DL
         3 005002   100000 236106                    LDQ     0,QL,PR1
         3 005003   000033 772000                    QRL     27
         3 005004   000020 136007                    SBLQ    16,DL
         3 005005   000121 116007                    CMPQ    81,DL
         3 005006   005010 602006 3                  TNC     s:4401+8,QL
         3 005007   005147 710000 3                  TRA     s:4413
         3 005010   005131 710000 3                  TRA     s:4403
         3 005011   005147 710000 3                  TRA     s:4413
         3 005012   005147 710000 3                  TRA     s:4413
         3 005013   005147 710000 3                  TRA     s:4413
         3 005014   005134 710000 3                  TRA     s:4405
         3 005015   005147 710000 3                  TRA     s:4413
         3 005016   005147 710000 3                  TRA     s:4413
         3 005017   005147 710000 3                  TRA     s:4413
         3 005020   005147 710000 3                  TRA     s:4413
         3 005021   005147 710000 3                  TRA     s:4413
         3 005022   005147 710000 3                  TRA     s:4413
         3 005023   005137 710000 3                  TRA     s:4407
         3 005024   005147 710000 3                  TRA     s:4413
         3 005025   005147 710000 3                  TRA     s:4413
         3 005026   005147 710000 3                  TRA     s:4413
         3 005027   005147 710000 3                  TRA     s:4413
         3 005030   005147 710000 3                  TRA     s:4413
         3 005031   005147 710000 3                  TRA     s:4413
         3 005032   005147 710000 3                  TRA     s:4413
         3 005033   005142 710000 3                  TRA     s:4409
         3 005034   005147 710000 3                  TRA     s:4413
         3 005035   005147 710000 3                  TRA     s:4413
         3 005036   005147 710000 3                  TRA     s:4413
         3 005037   005147 710000 3                  TRA     s:4413
         3 005040   005147 710000 3                  TRA     s:4413
         3 005041   005147 710000 3                  TRA     s:4413
         3 005042   005147 710000 3                  TRA     s:4413
PL6.E3A0      #001=THF$RAW File=THF$FORMAT.:E05TSI                               WED 07/30/97 06:08 Page:247
         3 005043   005147 710000 3                  TRA     s:4413
         3 005044   005147 710000 3                  TRA     s:4413
         3 005045   005147 710000 3                  TRA     s:4413
         3 005046   005147 710000 3                  TRA     s:4413
         3 005047   005147 710000 3                  TRA     s:4413
         3 005050   005147 710000 3                  TRA     s:4413
         3 005051   005147 710000 3                  TRA     s:4413
         3 005052   005147 710000 3                  TRA     s:4413
         3 005053   005147 710000 3                  TRA     s:4413
         3 005054   005147 710000 3                  TRA     s:4413
         3 005055   005147 710000 3                  TRA     s:4413
         3 005056   005147 710000 3                  TRA     s:4413
         3 005057   005147 710000 3                  TRA     s:4413
         3 005060   005147 710000 3                  TRA     s:4413
         3 005061   005147 710000 3                  TRA     s:4413
         3 005062   005147 710000 3                  TRA     s:4413
         3 005063   005147 710000 3                  TRA     s:4413
         3 005064   005147 710000 3                  TRA     s:4413
         3 005065   005147 710000 3                  TRA     s:4413
         3 005066   005147 710000 3                  TRA     s:4413
         3 005067   005147 710000 3                  TRA     s:4413
         3 005070   005147 710000 3                  TRA     s:4413
         3 005071   005147 710000 3                  TRA     s:4413
         3 005072   005147 710000 3                  TRA     s:4413
         3 005073   005147 710000 3                  TRA     s:4413
         3 005074   005147 710000 3                  TRA     s:4413
         3 005075   005147 710000 3                  TRA     s:4413
         3 005076   005147 710000 3                  TRA     s:4413
         3 005077   005147 710000 3                  TRA     s:4413
         3 005100   005147 710000 3                  TRA     s:4413
         3 005101   005147 710000 3                  TRA     s:4413
         3 005102   005147 710000 3                  TRA     s:4413
         3 005103   005147 710000 3                  TRA     s:4413
         3 005104   005147 710000 3                  TRA     s:4413
         3 005105   005147 710000 3                  TRA     s:4413
         3 005106   005147 710000 3                  TRA     s:4413
         3 005107   005147 710000 3                  TRA     s:4413
PL6.E3A0      #001=THF$RAW File=THF$FORMAT.:E05TSI                               WED 07/30/97 06:08 Page:248
         3 005110   005147 710000 3                  TRA     s:4413
         3 005111   005147 710000 3                  TRA     s:4413
         3 005112   005147 710000 3                  TRA     s:4413
         3 005113   005147 710000 3                  TRA     s:4413
         3 005114   005147 710000 3                  TRA     s:4413
         3 005115   005147 710000 3                  TRA     s:4413
         3 005116   005147 710000 3                  TRA     s:4413
         3 005117   005147 710000 3                  TRA     s:4413
         3 005120   005147 710000 3                  TRA     s:4413
         3 005121   005147 710000 3                  TRA     s:4413
         3 005122   005147 710000 3                  TRA     s:4413
         3 005123   005147 710000 3                  TRA     s:4413
         3 005124   005147 710000 3                  TRA     s:4413
         3 005125   005147 710000 3                  TRA     s:4413
         3 005126   005147 710000 3                  TRA     s:4413
         3 005127   005147 710000 3                  TRA     s:4413
         3 005130   005145 710000 3                  TRA     s:4411

     1122     4402    7                                CASE (16);

     1123     4403    7                                   LENN = 3;

   4403  3 005131   000003 235007                    LDA     3,DL
         3 005132   200461 755100                    STA     LENN,,AUTO
         3 005133   005147 710000 3                  TRA     s:4413

     1124     4404    7                                CASE (20);

     1125     4405    7                                   LENN = 4;

   4405  3 005134   000004 235007                    LDA     4,DL
         3 005135   200461 755100                    STA     LENN,,AUTO
         3 005136   005147 710000 3                  TRA     s:4413

     1126     4406    7                                CASE (27);

     1127     4407    7                                   LENN = 5;
PL6.E3A0      #001=THF$RAW File=THF$FORMAT.:E05TSI                               WED 07/30/97 06:08 Page:249

   4407  3 005137   000005 235007                    LDA     5,DL
         3 005140   200461 755100                    STA     LENN,,AUTO
         3 005141   005147 710000 3                  TRA     s:4413

     1128     4408    7                                CASE (35);

     1129     4409    7                                   LENN = 5;

   4409  3 005142   000005 235007                    LDA     5,DL
         3 005143   200461 755100                    STA     LENN,,AUTO
         3 005144   005147 710000 3                  TRA     s:4413

     1130     4410    7                                CASE (96);

     1131     4411    7                                   LENN = 4;

   4411  3 005145   000004 235007                    LDA     4,DL
         3 005146   200461 755100                    STA     LENN,,AUTO

     1132     4412    7                             END;

     1133     4413    7                             DO II = 0 TO LENN - 1;

   4413  3 005147   200454 450100                    STZ     II,,AUTO
         3 005150   005176 710000 3                  TRA     s:4417+2

     1134     4414    7                                IF IO_MASK1(DEVTBL.CODE(I) + II)

   4414  3 005151   200010 236100                    LDQ     I,,AUTO
         3 005152   000012 402007                    MPY     10,DL
         3 005153   200215 470500                    LDP0    DEV$,,AUTO
         3 005154   000000 236106                    LDQ     0,QL,PR0
         3 005155   000033 772000                    QRL     27
         3 005156   200454 036100                    ADLQ    II,,AUTO
         3 005157   000000 066506                    CMPB    filb='0'B
         3 005160   200221 000001                    BDSC    IO_MASK,Q,AUTO           by=0,bit=0,n=1
PL6.E3A0      #001=THF$RAW File=THF$FORMAT.:E05TSI                               WED 07/30/97 06:08 Page:250
         3 005161   000002 000022 xsym               BDSC    B_VECTNIL+2              by=0,bit=0,n=18
         3 005162   005170 600000 3                  TZE     s:4416

     1135     4415    7                                     THEN SP_BIT(II) = '1';

   4415  3 005163   200454 235100                    LDA     II,,AUTO
         3 005164   040005 100400                    MLR     fill='040'O
         3 005165   000311 000001 4                  ADSC9   201                      cn=0,n=1
         3 005166   003253 000001 2                  ADSC9   SP_BIT,A                 cn=0,n=1
         3 005167   005174 710000 3                  TRA     s:4417

     1136     4416    7                                     ELSE SP_BIT(II) = '0';

   4416  3 005170   200454 235100                    LDA     II,,AUTO
         3 005171   040005 100400                    MLR     fill='040'O
         3 005172   000127 000001 4                  ADSC9   87                       cn=0,n=1
         3 005173   003253 000001 2                  ADSC9   SP_BIT,A                 cn=0,n=1

     1137     4417    7                             END;

   4417  3 005174   000001 035007                    ADLA    1,DL
         3 005175   200454 755100                    STA     II,,AUTO
         3 005176   200454 236100                    LDQ     II,,AUTO
         3 005177   200461 116100                    CMPQ    LENN,,AUTO
         3 005200   005151 602000 3                  TNC     s:4414

     1138     4418    7                             DO II = 0 TO 4;

   4418  3 005201   200454 450100                    STZ     II,,AUTO

     1139     4419    7                                IF DEVTBL.CODE(I) = SP_CASES.BYTEN(II)

   4419  3 005202   200454 236100                    LDQ     II,,AUTO
         3 005203   000003 402007                    MPY     3,DL
         3 005204   000000 620006                    EAX0    0,QL
         3 005205   200010 236100                    LDQ     I,,AUTO
         3 005206   000012 402007                    MPY     10,DL
PL6.E3A0      #001=THF$RAW File=THF$FORMAT.:E05TSI                               WED 07/30/97 06:08 Page:251
         3 005207   200215 470500                    LDP0    DEV$,,AUTO
         3 005210   000000 236106                    LDQ     0,QL,PR0
         3 005211   000000 676010 xsym               ERQ     SP_CASES,X0
         3 005212   777000 376003                    ANQ     -512,DU
         3 005213   005222 601000 3                  TNZ     s:4425

     1140     4420    8                                   THEN DO;

     1141     4421    8                                     SPC$ = SP_CASES.SUB$(II);

   4421  3 005214   000001 236010 xsym               LDQ     SP_CASES+1,X0
         3 005215   200462 756100                    STQ     SPC$,,AUTO

     1142     4422    8                                     JJ = SP_CASES.COUNT(II);

   4422  3 005216   000002 236010 xsym               LDQ     SP_CASES+2,X0
         3 005217   000033 772000                    QRL     27
         3 005220   200455 756100                    STQ     JJ,,AUTO

     1143     4423    8                                     GOTO FND_SP;

   4423  3 005221   005227 710000 3                  TRA     FND_SP

     1144     4424    8                                   END;
     1145     4425    7                             END;

   4425  3 005222   200454 235100                    LDA     II,,AUTO
         3 005223   000001 035007                    ADLA    1,DL
         3 005224   200454 755100                    STA     II,,AUTO
         3 005225   000005 115007                    CMPA    5,DL
         3 005226   005202 602000 3                  TNC     s:4419

     1146     4426    6   FND_SP:
     1147     4427    7                             DO II = 0 TO JJ;

   4427  3 005227   200454 450100       FND_SP       STZ     II,,AUTO
         3 005230   005257 710000 3                  TRA     s:4434+3
PL6.E3A0      #001=THF$RAW File=THF$FORMAT.:E05TSI                               WED 07/30/97 06:08 Page:252

     1148     4428    7                                IF SP_CHAR = SPTBL.CODE(II)

   4428  3 005231   200454 236100                    LDQ     II,,AUTO
         3 005232   000054 402007                    MPY     44,DL
         3 005233   003255 470400 2                  LDP0    SPBIT$
         3 005234   200461 720100                    LXL0    LENN,,AUTO
         3 005235   200462 471500                    LDP1    SPC$,,AUTO
         3 005236   040106 106540                    CMPC    fill='040'O
         3 005237   000000 000010                    ADSC9   0,,PR0                   cn=0,n=*X0
         3 005240   100000 000005                    ADSC9   0,Q,PR1                  cn=0,n=5
         3 005241   005254 601000 3                  TNZ     s:4434

     1149     4429    8                                  THEN DO;

     1150     4430    8                                     XST_TEXT = SPTBL.TEXT(II);

   4430  3 005242   040100 100506                    MLR     fill='040'O
         3 005243   100001 400043                    ADSC9   1,Q,PR1                  cn=2,n=35
         3 005244   200304 000043                    ADSC9   XST_TEXT,,AUTO           cn=0,n=35

     1151     4431    8                                     XST_CNT = SPTBL.COUNT(II);

   4431  3 005245   200454 236100                    LDQ     II,,AUTO
         3 005246   000013 402007                    MPY     11,DL
         3 005247   100001 236106                    LDQ     1,QL,PR1
         3 005250   000022 772000                    QRL     18
         3 005251   000777 376007                    ANQ     511,DL
         3 005252   200342 756100                    STQ     XST_CNT,,AUTO

     1152     4432    8                                     GOTO NEXT_I;

   4432  3 005253   006042 710000 3                  TRA     NEXT_I

     1153     4433    8                                  END;
     1154     4434    7                             END;

PL6.E3A0      #001=THF$RAW File=THF$FORMAT.:E05TSI                               WED 07/30/97 06:08 Page:253
   4434  3 005254   200454 235100                    LDA     II,,AUTO
         3 005255   000001 035007                    ADLA    1,DL
         3 005256   200454 755100                    STA     II,,AUTO
         3 005257   200455 236100                    LDQ     JJ,,AUTO
         3 005260   200454 116100                    CMPQ    II,,AUTO
         3 005261   005231 603000 3                  TRC     s:4428

     1155     4435    6                           END;                /* OF THEN */

   4435  3 005262   006057 710000 3                  TRA     s:4504

     1156     4436    5                           ELSE IF ((EL$IOERR.MODEL = 'PRU0901')

   4436  3 005263   040000 106500                    CMPC    fill='040'O
         3 005264   000030 000010                    ADSC9   24,,PR0                  cn=0,n=8
         3 005265   001625 000007 1                  ADSC9   BOARD_64K+470            cn=0,n=7
         3 005266   005313 600000 3                  TZE     s:4442
         3 005267   040000 106500                    CMPC    fill='040'O
         3 005270   000030 000010                    ADSC9   24,,PR0                  cn=0,n=8
         3 005271   001627 000007 1                  ADSC9   BOARD_64K+472            cn=0,n=7
         3 005272   005313 600000 3                  TZE     s:4442
         3 005273   040000 106500                    CMPC    fill='040'O
         3 005274   000030 000010                    ADSC9   24,,PR0                  cn=0,n=8
         3 005275   001631 000007 1                  ADSC9   BOARD_64K+474            cn=0,n=7
         3 005276   005313 600000 3                  TZE     s:4442
         3 005277   040000 106500                    CMPC    fill='040'O
         3 005300   000030 000010                    ADSC9   24,,PR0                  cn=0,n=8
         3 005301   001633 000007 1                  ADSC9   BOARD_64K+476            cn=0,n=7
         3 005302   005313 600000 3                  TZE     s:4442
         3 005303   040000 106500                    CMPC    fill='040'O
         3 005304   000030 000010                    ADSC9   24,,PR0                  cn=0,n=8
         3 005305   001635 000007 1                  ADSC9   BOARD_64K+478            cn=0,n=7
         3 005306   005313 600000 3                  TZE     s:4442
         3 005307   040000 106500                    CMPC    fill='040'O
         3 005310   000030 000010                    ADSC9   24,,PR0                  cn=0,n=8
         3 005311   001637 000007 1                  ADSC9   BOARD_64K+480            cn=0,n=7
         3 005312   005316 601000 3                  TNZ     s:4443
PL6.E3A0      #001=THF$RAW File=THF$FORMAT.:E05TSI                               WED 07/30/97 06:08 Page:254

     1157     4437    5                                 OR (EL$IOERR.MODEL = 'PRU0903')
     1158     4438    5                                 OR (EL$IOERR.MODEL = 'PRU0908')
     1159     4439    5                                 OR (EL$IOERR.MODEL = 'PRU1201')
     1160     4440    5                                 OR (EL$IOERR.MODEL = 'PRU1203')
     1161     4441    5                                 OR (EL$IOERR.MODEL = 'PRU1208')) THEN
     1162     4442    5                               CALL EURC_PR54;

   4442  3 005313   015372 701000 3                  TSX1    EURC_PR54
         3 005314   000000 011000                    NOP     0
         3 005315   006057 710000 3                  TRA     s:4504

     1163     4443    5                           ELSE IF ((EL$IOERR.MODEL = 'PRU1200')

   4443  3 005316   040000 106500                    CMPC    fill='040'O
         3 005317   000030 000010                    ADSC9   24,,PR0                  cn=0,n=8
         3 005320   001610 000007 1                  ADSC9   BOARD_64K+457            cn=0,n=7
         3 005321   005326 600000 3                  TZE     s:4445
         3 005322   040000 106500                    CMPC    fill='040'O
         3 005323   000030 000010                    ADSC9   24,,PR0                  cn=0,n=8
         3 005324   001612 000007 1                  ADSC9   BOARD_64K+459            cn=0,n=7
         3 005325   005331 601000 3                  TNZ     s:4446

     1164     4444    5                                 OR (EL$IOERR.MODEL = 'PRU1600')) THEN
     1165     4445    5                                    CALL MPC_PR71;

   4445  3 005326   016027 701000 3                  TSX1    MPC_PR71
         3 005327   000000 011000                    NOP     0
         3 005330   006057 710000 3                  TRA     s:4504

     1166     4446    5                           ELSE IF (EL$IOERR.MODEL = 'MTU8200')AND

   4446  3 005331   040000 106500                    CMPC    fill='040'O
         3 005332   000030 000010                    ADSC9   24,,PR0                  cn=0,n=8
         3 005333   001621 000007 1                  ADSC9   BOARD_64K+466            cn=0,n=7
         3 005334   005731 601000 3                  TNZ     s:4477
         3 005335   200010 236100                    LDQ     I,,AUTO
PL6.E3A0      #001=THF$RAW File=THF$FORMAT.:E05TSI                               WED 07/30/97 06:08 Page:255
         3 005336   000012 402007                    MPY     10,DL
         3 005337   200215 471500                    LDP1    DEV$,,AUTO
         3 005340   100000 236106                    LDQ     0,QL,PR1
         3 005341   777000 376003                    ANQ     -512,DU
         3 005342   035000 116003                    CMPQ    14848,DU
         3 005343   005360 600000 3                  TZE     s:4449
         3 005344   200010 236100                    LDQ     I,,AUTO
         3 005345   000012 402007                    MPY     10,DL
         3 005346   100000 236106                    LDQ     0,QL,PR1
         3 005347   777000 376003                    ANQ     -512,DU
         3 005350   065000 116003                    CMPQ    27136,DU
         3 005351   005360 600000 3                  TZE     s:4449
         3 005352   200010 236100                    LDQ     I,,AUTO
         3 005353   000012 402007                    MPY     10,DL
         3 005354   100000 236106                    LDQ     0,QL,PR1
         3 005355   777000 376003                    ANQ     -512,DU
         3 005356   260000 116003                    CMPQ    90112,DU
         3 005357   005731 601000 3                  TNZ     s:4477

     1167     4447    5                                  ((DEVTBL.CODE(I) = 29)OR(DEVTBL.CODE(I) = 53)
     1168     4448    5                                  OR(DEVTBL.CODE(I) = 176))
     1169     4449    6                           THEN DO CASE(DEVTBL.CODE(I));

   4449  3 005360   200010 236100                    LDQ     I,,AUTO
         3 005361   000012 402007                    MPY     10,DL
         3 005362   100000 236106                    LDQ     0,QL,PR1
         3 005363   000033 772000                    QRL     27
         3 005364   000035 136007                    SBLQ    29,DL
         3 005365   000224 116007                    CMPQ    148,DL
         3 005366   005370 602006 3                  TNC     s:4449+8,QL
         3 005367   006057 710000 3                  TRA     s:4504
         3 005370   005614 710000 3                  TRA     s:4451
         3 005371   005730 710000 3                  TRA     s:4476
         3 005372   005730 710000 3                  TRA     s:4476
         3 005373   005730 710000 3                  TRA     s:4476
         3 005374   005730 710000 3                  TRA     s:4476
         3 005375   005730 710000 3                  TRA     s:4476
PL6.E3A0      #001=THF$RAW File=THF$FORMAT.:E05TSI                               WED 07/30/97 06:08 Page:256
         3 005376   005730 710000 3                  TRA     s:4476
         3 005377   005730 710000 3                  TRA     s:4476
         3 005400   005730 710000 3                  TRA     s:4476
         3 005401   005730 710000 3                  TRA     s:4476
         3 005402   005730 710000 3                  TRA     s:4476
         3 005403   005730 710000 3                  TRA     s:4476
         3 005404   005730 710000 3                  TRA     s:4476
         3 005405   005730 710000 3                  TRA     s:4476
         3 005406   005730 710000 3                  TRA     s:4476
         3 005407   005730 710000 3                  TRA     s:4476
         3 005410   005730 710000 3                  TRA     s:4476
         3 005411   005730 710000 3                  TRA     s:4476
         3 005412   005730 710000 3                  TRA     s:4476
         3 005413   005730 710000 3                  TRA     s:4476
         3 005414   005730 710000 3                  TRA     s:4476
         3 005415   005730 710000 3                  TRA     s:4476
         3 005416   005730 710000 3                  TRA     s:4476
         3 005417   005730 710000 3                  TRA     s:4476
         3 005420   005617 710000 3                  TRA     s:4454
         3 005421   005730 710000 3                  TRA     s:4476
         3 005422   005730 710000 3                  TRA     s:4476
         3 005423   005730 710000 3                  TRA     s:4476
         3 005424   005730 710000 3                  TRA     s:4476
         3 005425   005730 710000 3                  TRA     s:4476
         3 005426   005730 710000 3                  TRA     s:4476
         3 005427   005730 710000 3                  TRA     s:4476
         3 005430   005730 710000 3                  TRA     s:4476
         3 005431   005730 710000 3                  TRA     s:4476
         3 005432   005730 710000 3                  TRA     s:4476
         3 005433   005730 710000 3                  TRA     s:4476
         3 005434   005730 710000 3                  TRA     s:4476
         3 005435   005730 710000 3                  TRA     s:4476
         3 005436   005730 710000 3                  TRA     s:4476
         3 005437   005730 710000 3                  TRA     s:4476
         3 005440   005730 710000 3                  TRA     s:4476
         3 005441   005730 710000 3                  TRA     s:4476
         3 005442   005730 710000 3                  TRA     s:4476
PL6.E3A0      #001=THF$RAW File=THF$FORMAT.:E05TSI                               WED 07/30/97 06:08 Page:257
         3 005443   005730 710000 3                  TRA     s:4476
         3 005444   005730 710000 3                  TRA     s:4476
         3 005445   005730 710000 3                  TRA     s:4476
         3 005446   005730 710000 3                  TRA     s:4476
         3 005447   005730 710000 3                  TRA     s:4476
         3 005450   005730 710000 3                  TRA     s:4476
         3 005451   005730 710000 3                  TRA     s:4476
         3 005452   005730 710000 3                  TRA     s:4476
         3 005453   005730 710000 3                  TRA     s:4476
         3 005454   005730 710000 3                  TRA     s:4476
         3 005455   005730 710000 3                  TRA     s:4476
         3 005456   005730 710000 3                  TRA     s:4476
         3 005457   005730 710000 3                  TRA     s:4476
         3 005460   005730 710000 3                  TRA     s:4476
         3 005461   005730 710000 3                  TRA     s:4476
         3 005462   005730 710000 3                  TRA     s:4476
         3 005463   005730 710000 3                  TRA     s:4476
         3 005464   005730 710000 3                  TRA     s:4476
         3 005465   005730 710000 3                  TRA     s:4476
         3 005466   005730 710000 3                  TRA     s:4476
         3 005467   005730 710000 3                  TRA     s:4476
         3 005470   005730 710000 3                  TRA     s:4476
         3 005471   005730 710000 3                  TRA     s:4476
         3 005472   005730 710000 3                  TRA     s:4476
         3 005473   005730 710000 3                  TRA     s:4476
         3 005474   005730 710000 3                  TRA     s:4476
         3 005475   005730 710000 3                  TRA     s:4476
         3 005476   005730 710000 3                  TRA     s:4476
         3 005477   005730 710000 3                  TRA     s:4476
         3 005500   005730 710000 3                  TRA     s:4476
         3 005501   005730 710000 3                  TRA     s:4476
         3 005502   005730 710000 3                  TRA     s:4476
         3 005503   005730 710000 3                  TRA     s:4476
         3 005504   005730 710000 3                  TRA     s:4476
         3 005505   005730 710000 3                  TRA     s:4476
         3 005506   005730 710000 3                  TRA     s:4476
         3 005507   005730 710000 3                  TRA     s:4476
PL6.E3A0      #001=THF$RAW File=THF$FORMAT.:E05TSI                               WED 07/30/97 06:08 Page:258
         3 005510   005730 710000 3                  TRA     s:4476
         3 005511   005730 710000 3                  TRA     s:4476
         3 005512   005730 710000 3                  TRA     s:4476
         3 005513   005730 710000 3                  TRA     s:4476
         3 005514   005730 710000 3                  TRA     s:4476
         3 005515   005730 710000 3                  TRA     s:4476
         3 005516   005730 710000 3                  TRA     s:4476
         3 005517   005730 710000 3                  TRA     s:4476
         3 005520   005730 710000 3                  TRA     s:4476
         3 005521   005730 710000 3                  TRA     s:4476
         3 005522   005730 710000 3                  TRA     s:4476
         3 005523   005730 710000 3                  TRA     s:4476
         3 005524   005730 710000 3                  TRA     s:4476
         3 005525   005730 710000 3                  TRA     s:4476
         3 005526   005730 710000 3                  TRA     s:4476
         3 005527   005730 710000 3                  TRA     s:4476
         3 005530   005730 710000 3                  TRA     s:4476
         3 005531   005730 710000 3                  TRA     s:4476
         3 005532   005730 710000 3                  TRA     s:4476
         3 005533   005730 710000 3                  TRA     s:4476
         3 005534   005730 710000 3                  TRA     s:4476
         3 005535   005730 710000 3                  TRA     s:4476
         3 005536   005730 710000 3                  TRA     s:4476
         3 005537   005730 710000 3                  TRA     s:4476
         3 005540   005730 710000 3                  TRA     s:4476
         3 005541   005730 710000 3                  TRA     s:4476
         3 005542   005730 710000 3                  TRA     s:4476
         3 005543   005730 710000 3                  TRA     s:4476
         3 005544   005730 710000 3                  TRA     s:4476
         3 005545   005730 710000 3                  TRA     s:4476
         3 005546   005730 710000 3                  TRA     s:4476
         3 005547   005730 710000 3                  TRA     s:4476
         3 005550   005730 710000 3                  TRA     s:4476
         3 005551   005730 710000 3                  TRA     s:4476
         3 005552   005730 710000 3                  TRA     s:4476
         3 005553   005730 710000 3                  TRA     s:4476
         3 005554   005730 710000 3                  TRA     s:4476
PL6.E3A0      #001=THF$RAW File=THF$FORMAT.:E05TSI                               WED 07/30/97 06:08 Page:259
         3 005555   005730 710000 3                  TRA     s:4476
         3 005556   005730 710000 3                  TRA     s:4476
         3 005557   005730 710000 3                  TRA     s:4476
         3 005560   005730 710000 3                  TRA     s:4476
         3 005561   005730 710000 3                  TRA     s:4476
         3 005562   005730 710000 3                  TRA     s:4476
         3 005563   005730 710000 3                  TRA     s:4476
         3 005564   005730 710000 3                  TRA     s:4476
         3 005565   005730 710000 3                  TRA     s:4476
         3 005566   005730 710000 3                  TRA     s:4476
         3 005567   005730 710000 3                  TRA     s:4476
         3 005570   005730 710000 3                  TRA     s:4476
         3 005571   005730 710000 3                  TRA     s:4476
         3 005572   005730 710000 3                  TRA     s:4476
         3 005573   005730 710000 3                  TRA     s:4476
         3 005574   005730 710000 3                  TRA     s:4476
         3 005575   005730 710000 3                  TRA     s:4476
         3 005576   005730 710000 3                  TRA     s:4476
         3 005577   005730 710000 3                  TRA     s:4476
         3 005600   005730 710000 3                  TRA     s:4476
         3 005601   005730 710000 3                  TRA     s:4476
         3 005602   005730 710000 3                  TRA     s:4476
         3 005603   005730 710000 3                  TRA     s:4476
         3 005604   005730 710000 3                  TRA     s:4476
         3 005605   005730 710000 3                  TRA     s:4476
         3 005606   005730 710000 3                  TRA     s:4476
         3 005607   005730 710000 3                  TRA     s:4476
         3 005610   005730 710000 3                  TRA     s:4476
         3 005611   005730 710000 3                  TRA     s:4476
         3 005612   005730 710000 3                  TRA     s:4476
         3 005613   005645 710000 3                  TRA     s:4463

     1170     4450    6                                   CASE(29); /* if byte 3, bit 5  */

     1171     4451    6                                       CALL FIND_DEN_MODE;/* check for density*/

   4451  3 005614   014501 701000 3                  TSX1    FIND_DEN_MODE
PL6.E3A0      #001=THF$RAW File=THF$FORMAT.:E05TSI                               WED 07/30/97 06:08 Page:260
         3 005615   000000 011000                    NOP     0
         3 005616   006057 710000 3                  TRA     s:4504

     1172     4452    6                                   CASE(53);  /* if byte 6, bits 5-7 */

     1173     4453                                                   /* check for speed     */
     1174     4454    6                                    IF IO_MASK1(DEVTBL.CODE(I)) AND

   4454  3 005617   200010 236100                    LDQ     I,,AUTO
         3 005620   000012 402007                    MPY     10,DL
         3 005621   100000 236106                    LDQ     0,QL,PR1
         3 005622   000033 772000                    QRL     27
         3 005623   000000 066506                    CMPB    filb='0'B
         3 005624   200221 000001                    BDSC    IO_MASK,Q,AUTO           by=0,bit=0,n=1
         3 005625   000002 000022 xsym               BDSC    B_VECTNIL+2              by=0,bit=0,n=18
         3 005626   006057 600000 3                  TZE     s:4504
         3 005627   200010 236100                    LDQ     I,,AUTO
         3 005630   000012 402007                    MPY     10,DL
         3 005631   100012 236106                    LDQ     10,QL,PR1
         3 005632   000033 772000                    QRL     27
         3 005633   000000 066506                    CMPB    filb='0'B
         3 005634   200221 000001                    BDSC    IO_MASK,Q,AUTO           by=0,bit=0,n=1
         3 005635   000002 000022 xsym               BDSC    B_VECTNIL+2              by=0,bit=0,n=18
         3 005636   006057 600000 3                  TZE     s:4504

     1175     4455    6                                       IO_MASK1(DEVTBL.CODE(I+1))
     1176     4456    7                                       THEN DO;

     1177     4457    7                                         XST_TEXT = 'DEV SPEED: 200 IPS';

   4457  3 005637   040100 100400                    MLR     fill='040'O
         3 005640   001641 000022 1                  ADSC9   BOARD_64K+482            cn=0,n=18
         3 005641   200304 000043                    ADSC9   XST_TEXT,,AUTO           cn=0,n=35

     1178     4458    7                                         XST_CNT = 18;

   4458  3 005642   000022 235007                    LDA     18,DL
PL6.E3A0      #001=THF$RAW File=THF$FORMAT.:E05TSI                               WED 07/30/97 06:08 Page:261
         3 005643   200342 755100                    STA     XST_CNT,,AUTO

     1179     4459    7                                         GOTO NEXT_I;

   4459  3 005644   006042 710000 3                  TRA     NEXT_I

     1180     4460    7                                    END;  /* if bits 53 & 54 set */
     1181     4461    6                                   CASE(176); /* if it's byte 22, check*/

     1182     4462                                                   /* for fault symptom code*/
     1183     4463    7                                    DO II = 0 TO 7;/* pickup byte 22 */

   4463  3 005645   200454 450100                    STZ     II,,AUTO

     1184     4464    7                                       IF IO_MASK1(DEVTBL.CODE(I) + II)

   4464  3 005646   200010 236100                    LDQ     I,,AUTO
         3 005647   000012 402007                    MPY     10,DL
         3 005650   200215 470500                    LDP0    DEV$,,AUTO
         3 005651   000000 236106                    LDQ     0,QL,PR0
         3 005652   000033 772000                    QRL     27
         3 005653   200454 036100                    ADLQ    II,,AUTO
         3 005654   000000 066506                    CMPB    filb='0'B
         3 005655   200221 000001                    BDSC    IO_MASK,Q,AUTO           by=0,bit=0,n=1
         3 005656   000002 000022 xsym               BDSC    B_VECTNIL+2              by=0,bit=0,n=18
         3 005657   005665 600000 3                  TZE     s:4466

     1185     4465    7                                       THEN FT_BIT(II) =  '1'B;

   4465  3 005660   200454 235100                    LDA     II,,AUTO
         3 005661   003105 060400                    CSL     bolr='003'O
         3 005662   000030 000001 xsym               BDSC    B_VECTNIL+24             by=0,bit=0,n=1
         3 005663   200464 000001                    BDSC    FT_BIT,A,AUTO            by=0,bit=0,n=1
         3 005664   005671 710000 3                  TRA     s:4467

     1186     4466    7                                       ELSE FT_BIT(II) =  '0'B;

PL6.E3A0      #001=THF$RAW File=THF$FORMAT.:E05TSI                               WED 07/30/97 06:08 Page:262
   4466  3 005665   200454 235100                    LDA     II,,AUTO
         3 005666   003105 060400                    CSL     bolr='003'O
         3 005667   000002 000001 xsym               BDSC    B_VECTNIL+2              by=0,bit=0,n=1
         3 005670   200464 000001                    BDSC    FT_BIT,A,AUTO            by=0,bit=0,n=1

     1187     4467    7                                    END;  /* do */

   4467  3 005671   000001 035007                    ADLA    1,DL
         3 005672   200454 755100                    STA     II,,AUTO
         3 005673   000010 115007                    CMPA    8,DL
         3 005674   005646 602000 3                  TNC     s:4464

     1188     4468    7                                    DO II = 0 TO 70;/* go thru tbl for a match */

   4468  3 005675   200454 450100                    STZ     II,,AUTO

     1189     4469    7                                       IF FT_CODE = FAULT_SYMP_TBL.CODE(II)

   4469  3 005676   200454 236100                    LDQ     II,,AUTO
         3 005677   000012 402007                    MPY     10,DL
         3 005700   000000 236006 xsym               LDQ     FAULT_SYMP_TBL,QL
         3 005701   000033 772000                    QRL     27
         3 005702   200534 756100                    STQ     CHIP#+2,,AUTO
         3 005703   200464 236100                    LDQ     FT_BIT,,AUTO
         3 005704   000034 772000                    QRL     28
         3 005705   200534 116100                    CMPQ    CHIP#+2,,AUTO
         3 005706   005723 601000 3                  TNZ     s:4475

     1190     4470    8                                       THEN DO;

     1191     4471    8                                         XST_TEXT = FAULT_SYMP_TBL.TEXT(II);

   4471  3 005707   200454 236100                    LDQ     II,,AUTO
         3 005710   000050 402007                    MPY     40,DL
         3 005711   040100 100406                    MLR     fill='040'O
         3 005712   000000 400043 xsym               ADSC9   FAULT_SYMP_TBL,Q         cn=2,n=35
         3 005713   200304 000043                    ADSC9   XST_TEXT,,AUTO           cn=0,n=35
PL6.E3A0      #001=THF$RAW File=THF$FORMAT.:E05TSI                               WED 07/30/97 06:08 Page:263

     1192     4472    8                                         XST_CNT = FAULT_SYMP_TBL.COUNT(II);

   4472  3 005714   200454 236100                    LDQ     II,,AUTO
         3 005715   000012 402007                    MPY     10,DL
         3 005716   000000 236006 xsym               LDQ     FAULT_SYMP_TBL,QL
         3 005717   000022 772000                    QRL     18
         3 005720   000777 376007                    ANQ     511,DL
         3 005721   200342 756100                    STQ     XST_CNT,,AUTO

     1193     4473    8                                         GOTO NEXT_I;

   4473  3 005722   006042 710000 3                  TRA     NEXT_I

     1194     4474    8                                       END;  /* if fault code is found */
     1195     4475    7                                    END; /* do II */

   4475  3 005723   200454 235100                    LDA     II,,AUTO
         3 005724   000001 035007                    ADLA    1,DL
         3 005725   200454 755100                    STA     II,,AUTO
         3 005726   000107 115007                    CMPA    71,DL
         3 005727   005676 602000 3                  TNC     s:4469

     1196     4476    6                                END; /* do case */

   4476  3 005730   006057 710000 3                  TRA     s:4504

     1197     4477    5                           ELSE IF((EL$IOERR.MODEL='MSU3380')

   4477  3 005731   040000 106500                    CMPC    fill='040'O
         3 005732   000030 000010                    ADSC9   24,,PR0                  cn=0,n=8
         3 005733   001646 000007 1                  ADSC9   BOARD_64K+487            cn=0,n=7
         3 005734   005771 600000 3                  TZE     s:4477+32
         3 005735   040000 106500                    CMPC    fill='040'O
         3 005736   000030 000010                    ADSC9   24,,PR0                  cn=0,n=8
         3 005737   001650 000007 1                  ADSC9   BOARD_64K+489            cn=0,n=7
         3 005740   005771 600000 3                  TZE     s:4477+32
PL6.E3A0      #001=THF$RAW File=THF$FORMAT.:E05TSI                               WED 07/30/97 06:08 Page:264
         3 005741   040000 106500                    CMPC    fill='040'O
         3 005742   000030 000010                    ADSC9   24,,PR0                  cn=0,n=8
         3 005743   001652 000007 1                  ADSC9   BOARD_64K+491            cn=0,n=7
         3 005744   005771 600000 3                  TZE     s:4477+32
         3 005745   040000 106500                    CMPC    fill='040'O
         3 005746   000030 000010                    ADSC9   24,,PR0                  cn=0,n=8
         3 005747   001654 000007 1                  ADSC9   BOARD_64K+493            cn=0,n=7
         3 005750   005771 600000 3                  TZE     s:4477+32
         3 005751   040000 106500                    CMPC    fill='040'O
         3 005752   000030 000010                    ADSC9   24,,PR0                  cn=0,n=8
         3 005753   001656 000007 1                  ADSC9   BOARD_64K+495            cn=0,n=7
         3 005754   005771 600000 3                  TZE     s:4477+32
         3 005755   040000 106500                    CMPC    fill='040'O
         3 005756   000030 000010                    ADSC9   24,,PR0                  cn=0,n=8
         3 005757   001660 000007 1                  ADSC9   BOARD_64K+497            cn=0,n=7
         3 005760   005771 600000 3                  TZE     s:4477+32
         3 005761   040000 106500                    CMPC    fill='040'O
         3 005762   000030 000010                    ADSC9   24,,PR0                  cn=0,n=8
         3 005763   001662 000007 1                  ADSC9   BOARD_64K+499            cn=0,n=7
         3 005764   005771 600000 3                  TZE     s:4477+32
         3 005765   040000 106500                    CMPC    fill='040'O
         3 005766   000030 000010                    ADSC9   24,,PR0                  cn=0,n=8
         3 005767   001664 000007 1                  ADSC9   BOARD_64K+501            cn=0,n=7
         3 005770   006003 601000 3                  TNZ     s:4488
         3 005771   200010 236100                    LDQ     I,,AUTO
         3 005772   000012 402007                    MPY     10,DL
         3 005773   200215 471500                    LDP1    DEV$,,AUTO
         3 005774   100000 236106                    LDQ     0,QL,PR1
         3 005775   777000 376003                    ANQ     -512,DU
         3 005776   070000 116003                    CMPQ    28672,DU
         3 005777   006003 601000 3                  TNZ     s:4488

     1198     4478    5                                OR (EL$IOERR.MODEL='MSU3381')
     1199     4479    5                                OR (EL$IOERR.MODEL='MSU3382')
     1200     4480    5                                OR (EL$IOERR.MODEL='MSU3383')
     1201     4481    5                                OR (EL$IOERR.MODEL='MSU3390')
     1202     4482    5                                OR (EL$IOERR.MODEL='MSU3391')
PL6.E3A0      #001=THF$RAW File=THF$FORMAT.:E05TSI                               WED 07/30/97 06:08 Page:265
     1203     4483    5                                OR (EL$IOERR.MODEL='MSU3392')
     1204     4484    5                                OR (EL$IOERR.MODEL='MSU3393'))
     1205     4485    5                                AND  (DEVTBL.CODE(I) = 56)
     1206     4486    5                                THEN
     1207     4487    5                                    CALL FIND_FORMAT_MSG;

   4487  3 006000   014562 701000 3                  TSX1    FIND_FORMAT_MSG
         3 006001   000000 011000                    NOP     0
         3 006002   006057 710000 3                  TRA     s:4504

     1208     4488    5                           ELSE IF((EL$IOERR.MODEL='MSU8082')

   4488  3 006003   040000 106500                    CMPC    fill='040'O
         3 006004   000030 000010                    ADSC9   24,,PR0                  cn=0,n=8
         3 006005   001666 000007 1                  ADSC9   BOARD_64K+503            cn=0,n=7
         3 006006   006013 600000 3                  TZE     s:4491
         3 006007   040000 106500                    CMPC    fill='040'O
         3 006010   000030 000010                    ADSC9   24,,PR0                  cn=0,n=8
         3 006011   001670 000007 1                  ADSC9   BOARD_64K+505            cn=0,n=7
         3 006012   006016 601000 3                  TNZ     s:4493

     1209     4489    5                                OR (EL$IOERR.MODEL='MSU8092'))
     1210     4490    5                                THEN
     1211     4491    5                                    CALL IPC_MDSII;

   4491  3 006013   016262 701000 3                  TSX1    IPC_MDSII
         3 006014   000000 011000                    NOP     0
         3 006015   006057 710000 3                  TRA     s:4504

     1212     4492    6                           ELSE DO;

     1213     4493    6                             IF IO_MASK1(DEVTBL.CODE(I))

   4493  3 006016   200010 236100                    LDQ     I,,AUTO
         3 006017   000012 402007                    MPY     10,DL
         3 006020   200215 471500                    LDP1    DEV$,,AUTO
         3 006021   100000 236106                    LDQ     0,QL,PR1
PL6.E3A0      #001=THF$RAW File=THF$FORMAT.:E05TSI                               WED 07/30/97 06:08 Page:266
         3 006022   000033 772000                    QRL     27
         3 006023   000000 066506                    CMPB    filb='0'B
         3 006024   200221 000001                    BDSC    IO_MASK,Q,AUTO           by=0,bit=0,n=1
         3 006025   000002 000022 xsym               BDSC    B_VECTNIL+2              by=0,bit=0,n=18
         3 006026   006057 600000 3                  TZE     s:4504

     1214     4494    7                                THEN DO;

     1215     4495    7                                  XST_TEXT = DEVTBL.TEXT(I);

   4495  3 006027   200010 236100                    LDQ     I,,AUTO
         3 006030   000050 402007                    MPY     40,DL
         3 006031   040100 100506                    MLR     fill='040'O
         3 006032   100000 400043                    ADSC9   0,Q,PR1                  cn=2,n=35
         3 006033   200304 000043                    ADSC9   XST_TEXT,,AUTO           cn=0,n=35

     1216     4496    7                                  XST_CNT = DEVTBL.COUNT(I);

   4496  3 006034   200010 236100                    LDQ     I,,AUTO
         3 006035   000012 402007                    MPY     10,DL
         3 006036   100000 236106                    LDQ     0,QL,PR1
         3 006037   000022 772000                    QRL     18
         3 006040   000777 376007                    ANQ     511,DL
         3 006041   200342 756100                    STQ     XST_CNT,,AUTO

     1217     4497    7   NEXT_I:
     1218     4498    7                                  CALL THF$ADD_TEXTC(XST$,

   4498  3 006042   200342 630500       NEXT_I       EPPR0   XST_CNT,,AUTO
         3 006043   200536 450500                    STP0    CHIP#+4,,AUTO
         3 006044   200304 631500                    EPPR1   XST_TEXT,,AUTO
         3 006045   200535 451500                    STP1    CHIP#+3,,AUTO
         3 006046   200300 633500                    EPPR3   XST$,,AUTO
         3 006047   200534 453500                    STP3    CHIP#+2,,AUTO
         3 006050   200534 630500                    EPPR0   CHIP#+2,,AUTO
         3 006051   000021 631400 xsym               EPPR1   B_VECTNIL+17
         3 006052   000000 701000 xent               TSX1    THF$ADD_TEXTC
PL6.E3A0      #001=THF$RAW File=THF$FORMAT.:E05TSI                               WED 07/30/97 06:08 Page:267
         3 006053   000000 011000                    NOP     0

     1219     4499    7                                                     XST_TEXT,
     1220     4500    7                                                     XST_CNT);
     1221     4501    7                                  NXST = NXST + 1;

   4501  3 006054   200343 235100                    LDA     NXST,,AUTO
         3 006055   000001 035007                    ADLA    1,DL
         3 006056   200343 755100                    STA     NXST,,AUTO

     1222     4502    7                                END;

     1223     4503    6                           END;                /* OF ELSE */

     1224     4504    5                      END;

   4504  3 006057   200010 054100                    AOS     I,,AUTO
         3 006060   200100 236100                    LDQ     J,,AUTO
         3 006061   004722 604000 3                  TMI     s:4395
         3 006062   200010 116100                    CMPQ    I,,AUTO
         3 006063   004722 605000 3                  TPL     s:4395

     1225     4505    4        NO_INTERP:
     1226     4506    4                 END;

   4506  3 006064                       NO_INTERP    null
     1227     4507    3                 MODEL_CHAR = EL$IOERR.MODEL;

   4507  3 006064   200005 470500                    LDP0    INFO+1,,AUTO
         3 006065   000030 236100                    LDQ     24,,PR0
         3 006066   000134 376000 4                  ANQ     92
         3 006067   000040 276007                    ORQ     32,DL
         3 006070   200220 756100                    STQ     MODEL_CHAR,,AUTO

     1228     4508    3                 SECTOR = EL$IOERR.SEEK.SECTOR;

   4508  3 006071   000023 236100                    LDQ     19,,PR0
PL6.E3A0      #001=THF$RAW File=THF$FORMAT.:E05TSI                               WED 07/30/97 06:08 Page:268
         3 006072   000312 376000 4                  ANQ     202
         3 006073   200374 756100                    STQ     SECTOR,,AUTO

     1229     4509    4                DO SELECT( EL$IOERR.MODEL );

   4509  3 006074   040000 106500                    CMPC    fill='040'O
         3 006075   000030 000010                    ADSC9   24,,PR0                  cn=0,n=8
         3 006076   001656 000007 1                  ADSC9   BOARD_64K+495            cn=0,n=7
         3 006077   006132 602000 3                  TNC     s:4509+30
         3 006100   006221 600000 3                  TZE     s:4520
         3 006101   040000 106500                    CMPC    fill='040'O
         3 006102   000030 000010                    ADSC9   24,,PR0                  cn=0,n=8
         3 006103   001662 000007 1                  ADSC9   BOARD_64K+499            cn=0,n=7
         3 006104   006125 602000 3                  TNC     s:4509+25
         3 006105   006221 600000 3                  TZE     s:4520
         3 006106   040000 106500                    CMPC    fill='040'O
         3 006107   000030 000010                    ADSC9   24,,PR0                  cn=0,n=8
         3 006110   001666 000007 1                  ADSC9   BOARD_64K+503            cn=0,n=7
         3 006111   006120 602000 3                  TNC     s:4509+20
         3 006112   006233 600000 3                  TZE     s:4524
         3 006113   040000 106500                    CMPC    fill='040'O
         3 006114   000030 000010                    ADSC9   24,,PR0                  cn=0,n=8
         3 006115   001670 000007 1                  ADSC9   BOARD_64K+505            cn=0,n=7
         3 006116   007070 601000 3                  TNZ     s:4630
         3 006117   006245 710000 3                  TRA     s:4528
         3 006120   040000 106500                    CMPC    fill='040'O
         3 006121   000030 000010                    ADSC9   24,,PR0                  cn=0,n=8
         3 006122   001664 000007 1                  ADSC9   BOARD_64K+501            cn=0,n=7
         3 006123   007070 601000 3                  TNZ     s:4630
         3 006124   006221 710000 3                  TRA     s:4520
         3 006125   040000 106500                    CMPC    fill='040'O
         3 006126   000030 000010                    ADSC9   24,,PR0                  cn=0,n=8
         3 006127   001660 000007 1                  ADSC9   BOARD_64K+497            cn=0,n=7
         3 006130   007070 601000 3                  TNZ     s:4630
         3 006131   006221 710000 3                  TRA     s:4520
         3 006132   040000 106500                    CMPC    fill='040'O
         3 006133   000030 000010                    ADSC9   24,,PR0                  cn=0,n=8
PL6.E3A0      #001=THF$RAW File=THF$FORMAT.:E05TSI                               WED 07/30/97 06:08 Page:269
         3 006134   001646 000007 1                  ADSC9   BOARD_64K+487            cn=0,n=7
         3 006135   006156 602000 3                  TNC     s:4509+50
         3 006136   006221 600000 3                  TZE     s:4520
         3 006137   040000 106500                    CMPC    fill='040'O
         3 006140   000030 000010                    ADSC9   24,,PR0                  cn=0,n=8
         3 006141   001652 000007 1                  ADSC9   BOARD_64K+491            cn=0,n=7
         3 006142   006151 602000 3                  TNC     s:4509+45
         3 006143   006221 600000 3                  TZE     s:4520
         3 006144   040000 106500                    CMPC    fill='040'O
         3 006145   000030 000010                    ADSC9   24,,PR0                  cn=0,n=8
         3 006146   001654 000007 1                  ADSC9   BOARD_64K+493            cn=0,n=7
         3 006147   007070 601000 3                  TNZ     s:4630
         3 006150   006221 710000 3                  TRA     s:4520
         3 006151   040000 106500                    CMPC    fill='040'O
         3 006152   000030 000010                    ADSC9   24,,PR0                  cn=0,n=8
         3 006153   001650 000007 1                  ADSC9   BOARD_64K+489            cn=0,n=7
         3 006154   007070 601000 3                  TNZ     s:4630
         3 006155   006221 710000 3                  TRA     s:4520
         3 006156   040000 106500                    CMPC    fill='040'O
         3 006157   000030 000010                    ADSC9   24,,PR0                  cn=0,n=8
         3 006160   001672 000007 1                  ADSC9   BOARD_64K+507            cn=0,n=7
         3 006161   006170 602000 3                  TNC     s:4509+60
         3 006162   006175 600000 3                  TZE     s:4511
         3 006163   040000 106500                    CMPC    fill='040'O
         3 006164   000030 000010                    ADSC9   24,,PR0                  cn=0,n=8
         3 006165   001674 000007 1                  ADSC9   BOARD_64K+509            cn=0,n=7
         3 006166   007070 601000 3                  TNZ     s:4630
         3 006167   006175 710000 3                  TRA     s:4511
         3 006170   040000 106500                    CMPC    fill='040'O
         3 006171   000030 000010                    ADSC9   24,,PR0                  cn=0,n=8
         3 006172   001676 000007 1                  ADSC9   BOARD_64K+511            cn=0,n=7
         3 006173   007070 601000 3                  TNZ     s:4630
         3 006174   006207 710000 3                  TRA     s:4515

     1230     4510    4                  SELECT('MSU0501','MSU0509');

     1231     4511    4                      CYL = SECTOR/(8*40);
PL6.E3A0      #001=THF$RAW File=THF$FORMAT.:E05TSI                               WED 07/30/97 06:08 Page:270

   4511  3 006175   000500 506007                    DIV     320,DL
         3 006176   200375 756100                    STQ     CYL,,AUTO

     1232     4512    4                      HD = MOD(SECTOR /8,40);

   4512  3 006177   200374 236100                    LDQ     SECTOR,,AUTO
         3 006200   000010 506007                    DIV     8,DL
         3 006201   000050 506007                    DIV     40,DL
         3 006202   200376 755100                    STA     HD,,AUTO

     1233     4513    4                      SE = MOD(SECTOR,8);

   4513  3 006203   200374 236100                    LDQ     SECTOR,,AUTO
         3 006204   000010 506007                    DIV     8,DL
         3 006205   200377 755100                    STA     SE,,AUTO
         3 006206   007070 710000 3                  TRA     s:4630

     1234     4514    4                  SELECT('MSU0451');

     1235     4515    4                      CYL = SECTOR / (40*19);

   4515  3 006207   001370 506007                    DIV     760,DL
         3 006210   200375 756100                    STQ     CYL,,AUTO

     1236     4516    4                      HD = MOD(SECTOR/40,19);

   4516  3 006211   200374 236100                    LDQ     SECTOR,,AUTO
         3 006212   000050 506007                    DIV     40,DL
         3 006213   000023 506007                    DIV     19,DL
         3 006214   200376 755100                    STA     HD,,AUTO

     1237     4517    4                      SE = MOD(SECTOR,40);

   4517  3 006215   200374 236100                    LDQ     SECTOR,,AUTO
         3 006216   000050 506007                    DIV     40,DL
         3 006217   200377 755100                    STA     SE,,AUTO
PL6.E3A0      #001=THF$RAW File=THF$FORMAT.:E05TSI                               WED 07/30/97 06:08 Page:271
         3 006220   007070 710000 3                  TRA     s:4630

     1238     4518    4                  SELECT('MSU3380','MSU3381','MSU3382','MSU3383',  /* FIPS D&E */

     1239     4519    4                         'MSU3390','MSU3391','MSU3392','MSU3393'); /* FIPS J&K */
     1240     4520    4                     CYL = SECTOR / (17*15);

   4520  3 006221   000377 506007                    DIV     255,DL
         3 006222   200375 756100                    STQ     CYL,,AUTO

     1241     4521    4                     HD = MOD(SECTOR/17,15);

   4521  3 006223   200374 236100                    LDQ     SECTOR,,AUTO
         3 006224   000021 506007                    DIV     17,DL
         3 006225   000017 506007                    DIV     15,DL
         3 006226   200376 755100                    STA     HD,,AUTO

     1242     4522    4                     SE = MOD(SECTOR,17);

   4522  3 006227   200374 236100                    LDQ     SECTOR,,AUTO
         3 006230   000021 506007                    DIV     17,DL
         3 006231   200377 755100                    STA     SE,,AUTO
         3 006232   007070 710000 3                  TRA     s:4630

     1243     4523    4                  SELECT('MSU8082');                   /* MDS I - FDS II        */

     1244     4524    4                      CYL = SECTOR / (11*24);

   4524  3 006233   000410 506007                    DIV     264,DL
         3 006234   200375 756100                    STQ     CYL,,AUTO

     1245     4525    4                      HD = MOD(SECTOR/11,24);

   4525  3 006235   200374 236100                    LDQ     SECTOR,,AUTO
         3 006236   000013 506007                    DIV     11,DL
         3 006237   000030 506007                    DIV     24,DL
         3 006240   200376 755100                    STA     HD,,AUTO
PL6.E3A0      #001=THF$RAW File=THF$FORMAT.:E05TSI                               WED 07/30/97 06:08 Page:272

     1246     4526    4                      SE = MOD(SECTOR,11);

   4526  3 006241   200374 236100                    LDQ     SECTOR,,AUTO
         3 006242   000013 506007                    DIV     11,DL
         3 006243   200377 755100                    STA     SE,,AUTO
         3 006244   007070 710000 3                  TRA     s:4630

     1247     4527    4                  SELECT('MSU8092');                  /* MDS II - SABRE V       */

     1248     4528    4                      CYL = SECTOR / (19*15);

   4528  3 006245   000435 506007                    DIV     285,DL
         3 006246   200375 756100                    STQ     CYL,,AUTO

     1249     4529    4                      HD = MOD(SECTOR/19,15);

   4529  3 006247   200374 236100                    LDQ     SECTOR,,AUTO
         3 006250   000023 506007                    DIV     19,DL
         3 006251   000017 506007                    DIV     15,DL
         3 006252   200376 755100                    STA     HD,,AUTO

     1250     4530    4                      SE = MOD(SECTOR,19);

   4530  3 006253   200374 236100                    LDQ     SECTOR,,AUTO
         3 006254   000023 506007                    DIV     19,DL
         3 006255   200377 755100                    STA     SE,,AUTO

     1251     4531    4                  END;  /*SELECT*/

   4531  3 006256   007070 710000 3                  TRA     s:4630

     1252     4532    3            CASE(%TH_DEVSTATS);

     1253     4533    3              STATS$ = ADDR(EL$DEVSTATS.STATISTICS(0));

   4533  3 006257   200005 236100                    LDQ     INFO+1,,AUTO
PL6.E3A0      #001=THF$RAW File=THF$FORMAT.:E05TSI                               WED 07/30/97 06:08 Page:273
         3 006260   000005 036003                    ADLQ    5,DU
         3 006261   200212 756100                    STQ     STATS$,,AUTO

     1254     4534    4              DO SELECT(EL$DEVSTATS.FW_NAME);

   4534  3 006262   200005 470500                    LDP0    INFO+1,,AUTO
         3 006263   000004 236100                    LDQ     4,,PR0
         3 006264   001700 116000 1                  CMPQ    BOARD_64K+513
         3 006265   006276 602000 3                  TNC     s:4534+12
         3 006266   006312 600000 3                  TZE     s:4535
         3 006267   001701 116000 1                  CMPQ    BOARD_64K+514
         3 006270   006273 602000 3                  TNC     s:4534+9
         3 006271   006312 600000 3                  TZE     s:4535
         3 006272   006337 710000 3                  TRA     s:4551
         3 006273   001702 116000 1                  CMPQ    BOARD_64K+515
         3 006274   006337 601000 3                  TNZ     s:4551
         3 006275   006313 710000 3                  TRA     s:4537
         3 006276   001703 116000 1                  CMPQ    BOARD_64K+516
         3 006277   006304 602000 3                  TNC     s:4534+18
         3 006300   006313 600000 3                  TZE     s:4537
         3 006301   001704 116000 1                  CMPQ    BOARD_64K+517
         3 006302   006337 601000 3                  TNZ     s:4551
         3 006303   006312 710000 3                  TRA     s:4535
         3 006304   001705 116000 1                  CMPQ    BOARD_64K+518
         3 006305   006337 602000 3                  TNC     s:4551
         3 006306   006313 600000 3                  TZE     s:4537
         3 006307   001706 116000 1                  CMPQ    BOARD_64K+519
         3 006310   006337 601000 3                  TNZ     s:4551
         3 006311   006331 710000 3                  TRA     s:4547

     1255     4535    4                 SELECT('M601', 'M610', 'TPUR');   /* MPC OR TPUR TAPES */

   4535  3 006312   006337 710000 3                  TRA     s:4551

     1256     4536    4                 SELECT('M191', 'D500', 'MSP8');   /* MPC OR DAU DISCS */

     1257     4537    4                   TH_ITYPE = %TH_DEVSTATS_DISK;
PL6.E3A0      #001=THF$RAW File=THF$FORMAT.:E05TSI                               WED 07/30/97 06:08 Page:274

   4537  3 006313   000043 235007                    LDA     35,DL
         3 006314   000000 755000 xsym               STA     TH_ITYPE

     1258     4538    4                   TEMPBUF(0) = DISK_STATS.SEEK_INCOMPLETES
              4538                            /* SEEK ERRS = SEEK INCOMPLETES */

   4538  3 006315   200212 471500                    LDP1    STATS$,,AUTO
         3 006316   100004 236100                    LDQ     4,,PR1
         3 006317   100005 036100                    ADLQ    5,,PR1
         3 006320   200413 756100                    STQ     TEMPBUF,,AUTO

     1259     4539    4                              + DISK_STATS.HDR_VER_ERRS;     /* + HDR VER ERRORS */
     1260     4540    4                   TEMPBUF(1) = DISK_STATS.TRANS_TIMING_ERRS
              4540                            /* OTHER ERRS = TRANS TIM ERRS */

   4540  3 006321   100006 236100                    LDQ     6,,PR1
         3 006322   100010 036100                    ADLQ    8,,PR1
         3 006323   100011 036100                    ADLQ    9,,PR1
         3 006324   100015 036100                    ADLQ    13,,PR1
         3 006325   100007 036100                    ADLQ    7,,PR1
         3 006326   100017 036100                    ADLQ    15,,PR1
         3 006327   200414 756100                    STQ     TEMPBUF+1,,AUTO
         3 006330   006337 710000 3                  TRA     s:4551

     1261     4541    4                              + DISK_STATS.CNT_CHK_ALERTS     /* + CNT CHECK ALERTS */
     1262     4542    4                              + DISK_STATS.DLI_PARITY_ERRS    /* + DLI PARITY ERRS */
     1263     4543    4                              + DISK_STATS.LATENCY_RETRIES    /*  + LATENCY RETRIES */
     1264     4544    4                              + DISK_STATS.DATA_CHK_ALERTS   /* + DATA CHECK ALERTS */
     1265     4545    4                              + DISK_STATS.SEARCH_ALERTS;     /* + SYNC FAILURES */
     1266     4546    4                 SELECT('IIDK');                   /* MDS DISKS */

     1267     4547    4                   TH_ITYPE = %TH_DEVSTATS_MDS;

   4547  3 006331   000044 235007                    LDA     36,DL
         3 006332   000000 755000 xsym               STA     TH_ITYPE

PL6.E3A0      #001=THF$RAW File=THF$FORMAT.:E05TSI                               WED 07/30/97 06:08 Page:275
     1268     4548    4                   TEMPBUF(0) = MDS_STATS.SEEK_READS     /* # OF SEEKS = SEEK-READS */

   4548  3 006333   200212 471500                    LDP1    STATS$,,AUTO
         3 006334   100005 236100                    LDQ     5,,PR1
         3 006335   100007 036100                    ADLQ    7,,PR1
         3 006336   200413 756100                    STQ     TEMPBUF,,AUTO

     1269     4549    4                              + MDS_STATS.SEEK_WRITES;      /* + SEEK-WRITES */
     1270     4550    4              END;  /* DO SELECT */

     1271     4551    3              CTL$ = FMTTBL$(TH_ITYPE);

   4551  3 006337   200003 471500                    LDP1    @FMTTBL$,,AUTO
         3 006340   000000 720000 xsym               LXL0    TH_ITYPE
         3 006341   100000 236110                    LDQ     0,X0,PR1
         3 006342   200211 756100                    STQ     CTL$,,AUTO
         3 006343   007070 710000 3                  TRA     s:4630

     1272     4552    3            CASE ( %TH_MPCSTAT );

     1273     4553    3              STATS$ = ADDR(EL$MPCSTATS.STATS(0));

   4553  3 006344   200005 236100                    LDQ     INFO+1,,AUTO
         3 006345   000003 036003                    ADLQ    3,DU
         3 006346   200212 756100                    STQ     STATS$,,AUTO

     1274     4554    3              TEMPBUF(0) = EURC_STATS.CARDS_READ(0)

   4554  3 006347   200212 470500                    LDP0    STATS$,,AUTO
         3 006350   000006 236100                    LDQ     6,,PR0
         3 006351   777777 376007                    ANQ     -1,DL
         3 006352   200534 756100                    STQ     CHIP#+2,,AUTO
         3 006353   000006 236100                    LDQ     6,,PR0
         3 006354   000022 772000                    QRL     18
         3 006355   200534 036100                    ADLQ    CHIP#+2,,AUTO
         3 006356   200535 756100                    STQ     CHIP#+3,,AUTO
         3 006357   000007 236100                    LDQ     7,,PR0
PL6.E3A0      #001=THF$RAW File=THF$FORMAT.:E05TSI                               WED 07/30/97 06:08 Page:276
         3 006360   000022 772000                    QRL     18
         3 006361   200536 756100                    STQ     CHIP#+4,,AUTO
         3 006362   200535 236100                    LDQ     CHIP#+3,,AUTO
         3 006363   200536 036100                    ADLQ    CHIP#+4,,AUTO
         3 006364   200537 756100                    STQ     CHIP#+5,,AUTO
         3 006365   000007 236100                    LDQ     7,,PR0
         3 006366   777777 376007                    ANQ     -1,DL
         3 006367   200540 756100                    STQ     CHIP#+6,,AUTO
         3 006370   200537 236100                    LDQ     CHIP#+5,,AUTO
         3 006371   200540 036100                    ADLQ    CHIP#+6,,AUTO
         3 006372   200413 756100                    STQ     TEMPBUF,,AUTO

     1275     4555    3                         + EURC_STATS.CARDS_READ(1)
     1276     4556    3                         + EURC_STATS.CARDS_READ(2)
     1277     4557    3                         + EURC_STATS.CARDS_READ(3);
     1278     4558    3              TEMPBUF(1) = EURC_STATS.CARDS_PUNCHED(0)

   4558  3 006373   000004 236100                    LDQ     4,,PR0
         3 006374   777777 376007                    ANQ     -1,DL
         3 006375   200534 756100                    STQ     CHIP#+2,,AUTO
         3 006376   000004 236100                    LDQ     4,,PR0
         3 006377   000022 772000                    QRL     18
         3 006400   200534 036100                    ADLQ    CHIP#+2,,AUTO
         3 006401   200535 756100                    STQ     CHIP#+3,,AUTO
         3 006402   000005 236100                    LDQ     5,,PR0
         3 006403   000022 772000                    QRL     18
         3 006404   200536 756100                    STQ     CHIP#+4,,AUTO
         3 006405   200535 236100                    LDQ     CHIP#+3,,AUTO
         3 006406   200536 036100                    ADLQ    CHIP#+4,,AUTO
         3 006407   200537 756100                    STQ     CHIP#+5,,AUTO
         3 006410   000005 236100                    LDQ     5,,PR0
         3 006411   777777 376007                    ANQ     -1,DL
         3 006412   200540 756100                    STQ     CHIP#+6,,AUTO
         3 006413   200537 236100                    LDQ     CHIP#+5,,AUTO
         3 006414   200540 036100                    ADLQ    CHIP#+6,,AUTO
         3 006415   200414 756100                    STQ     TEMPBUF+1,,AUTO

PL6.E3A0      #001=THF$RAW File=THF$FORMAT.:E05TSI                               WED 07/30/97 06:08 Page:277
     1279     4559    3                         + EURC_STATS.CARDS_PUNCHED(1)
     1280     4560    3                         + EURC_STATS.CARDS_PUNCHED(2)
     1281     4561    3                         + EURC_STATS.CARDS_PUNCHED(3);
     1282     4562    3              TEMPBUF(2) = EURC_STATS.LINES_PRINTED(0)

   4562  3 006416   000030 236100                    LDQ     24,,PR0
         3 006417   777777 376007                    ANQ     -1,DL
         3 006420   200534 756100                    STQ     CHIP#+2,,AUTO
         3 006421   000030 236100                    LDQ     24,,PR0
         3 006422   000022 772000                    QRL     18
         3 006423   200534 036100                    ADLQ    CHIP#+2,,AUTO
         3 006424   200535 756100                    STQ     CHIP#+3,,AUTO
         3 006425   000031 236100                    LDQ     25,,PR0
         3 006426   000022 772000                    QRL     18
         3 006427   200536 756100                    STQ     CHIP#+4,,AUTO
         3 006430   200535 236100                    LDQ     CHIP#+3,,AUTO
         3 006431   200536 036100                    ADLQ    CHIP#+4,,AUTO
         3 006432   200537 756100                    STQ     CHIP#+5,,AUTO
         3 006433   000031 236100                    LDQ     25,,PR0
         3 006434   777777 376007                    ANQ     -1,DL
         3 006435   200540 756100                    STQ     CHIP#+6,,AUTO
         3 006436   200537 236100                    LDQ     CHIP#+5,,AUTO
         3 006437   200540 036100                    ADLQ    CHIP#+6,,AUTO
         3 006440   200415 756100                    STQ     TEMPBUF+2,,AUTO

     1283     4563    3                         + EURC_STATS.LINES_PRINTED(1)
     1284     4564    3                         + EURC_STATS.LINES_PRINTED(2)
     1285     4565    3                         + EURC_STATS.LINES_PRINTED(3);
     1286     4566    3              TEMPBUF(3) = EURC_STATS.PAGES_PRINTED(0)

   4566  3 006441   000034 236100                    LDQ     28,,PR0
         3 006442   777777 376007                    ANQ     -1,DL
         3 006443   200534 756100                    STQ     CHIP#+2,,AUTO
         3 006444   000034 236100                    LDQ     28,,PR0
         3 006445   000022 772000                    QRL     18
         3 006446   200534 036100                    ADLQ    CHIP#+2,,AUTO
         3 006447   200535 756100                    STQ     CHIP#+3,,AUTO
PL6.E3A0      #001=THF$RAW File=THF$FORMAT.:E05TSI                               WED 07/30/97 06:08 Page:278
         3 006450   000035 236100                    LDQ     29,,PR0
         3 006451   000022 772000                    QRL     18
         3 006452   200536 756100                    STQ     CHIP#+4,,AUTO
         3 006453   200535 236100                    LDQ     CHIP#+3,,AUTO
         3 006454   200536 036100                    ADLQ    CHIP#+4,,AUTO
         3 006455   200537 756100                    STQ     CHIP#+5,,AUTO
         3 006456   000035 236100                    LDQ     29,,PR0
         3 006457   777777 376007                    ANQ     -1,DL
         3 006460   200540 756100                    STQ     CHIP#+6,,AUTO
         3 006461   200537 236100                    LDQ     CHIP#+5,,AUTO
         3 006462   200540 036100                    ADLQ    CHIP#+6,,AUTO
         3 006463   200416 756100                    STQ     TEMPBUF+3,,AUTO

     1287     4567    3                         + EURC_STATS.PAGES_PRINTED(1)
     1288     4568    3                         + EURC_STATS.PAGES_PRINTED(2)
     1289     4569    3                         + EURC_STATS.PAGES_PRINTED(3);
     1290     4570    3              TEMPBUF(4) = EURC_STATS.WORD_TRANSFERS(0)

   4570  3 006464   000024 236100                    LDQ     20,,PR0
         3 006465   000025 036100                    ADLQ    21,,PR0
         3 006466   000026 036100                    ADLQ    22,,PR0
         3 006467   000027 036100                    ADLQ    23,,PR0
         3 006470   200417 756100                    STQ     TEMPBUF+4,,AUTO

     1291     4571    3                         + EURC_STATS.WORD_TRANSFERS(1)
     1292     4572    3                         + EURC_STATS.WORD_TRANSFERS(2)
     1293     4573    3                         + EURC_STATS.WORD_TRANSFERS(3);
     1294     4574    3              TEMPBUF(5) = EURC_STATS.RECEIVER_ERRS(0)

   4574  3 006471   000000 236100                    LDQ     0,,PR0
         3 006472   777777 376007                    ANQ     -1,DL
         3 006473   200534 756100                    STQ     CHIP#+2,,AUTO
         3 006474   000000 236100                    LDQ     0,,PR0
         3 006475   000022 772000                    QRL     18
         3 006476   200534 036100                    ADLQ    CHIP#+2,,AUTO
         3 006477   200535 756100                    STQ     CHIP#+3,,AUTO
         3 006500   000001 236100                    LDQ     1,,PR0
PL6.E3A0      #001=THF$RAW File=THF$FORMAT.:E05TSI                               WED 07/30/97 06:08 Page:279
         3 006501   000022 772000                    QRL     18
         3 006502   200536 756100                    STQ     CHIP#+4,,AUTO
         3 006503   200535 236100                    LDQ     CHIP#+3,,AUTO
         3 006504   200536 036100                    ADLQ    CHIP#+4,,AUTO
         3 006505   200537 756100                    STQ     CHIP#+5,,AUTO
         3 006506   000001 236100                    LDQ     1,,PR0
         3 006507   777777 376007                    ANQ     -1,DL
         3 006510   200540 756100                    STQ     CHIP#+6,,AUTO
         3 006511   200537 236100                    LDQ     CHIP#+5,,AUTO
         3 006512   200540 036100                    ADLQ    CHIP#+6,,AUTO
         3 006513   200541 756100                    STQ     CHIP#+7,,AUTO
         3 006514   000002 236100                    LDQ     2,,PR0
         3 006515   000022 772000                    QRL     18
         3 006516   200542 756100                    STQ     CHIP#+8,,AUTO
         3 006517   200541 236100                    LDQ     CHIP#+7,,AUTO
         3 006520   200542 036100                    ADLQ    CHIP#+8,,AUTO
         3 006521   200543 756100                    STQ     CHIP#+9,,AUTO
         3 006522   000002 236100                    LDQ     2,,PR0
         3 006523   777777 376007                    ANQ     -1,DL
         3 006524   200544 756100                    STQ     CHIP#+10,,AUTO
         3 006525   200543 236100                    LDQ     CHIP#+9,,AUTO
         3 006526   200544 036100                    ADLQ    CHIP#+10,,AUTO
         3 006527   200545 756100                    STQ     CHIP#+11,,AUTO
         3 006530   000003 236100                    LDQ     3,,PR0
         3 006531   000022 772000                    QRL     18
         3 006532   200546 756100                    STQ     CHIP#+12,,AUTO
         3 006533   200545 236100                    LDQ     CHIP#+11,,AUTO
         3 006534   200546 036100                    ADLQ    CHIP#+12,,AUTO
         3 006535   200547 756100                    STQ     CHIP#+13,,AUTO
         3 006536   000003 236100                    LDQ     3,,PR0
         3 006537   777777 376007                    ANQ     -1,DL
         3 006540   200550 756100                    STQ     CHIP#+14,,AUTO
         3 006541   200547 236100                    LDQ     CHIP#+13,,AUTO
         3 006542   200550 036100                    ADLQ    CHIP#+14,,AUTO
         3 006543   200420 756100                    STQ     TEMPBUF+5,,AUTO
         3 006544   007070 710000 3                  TRA     s:4630

PL6.E3A0      #001=THF$RAW File=THF$FORMAT.:E05TSI                               WED 07/30/97 06:08 Page:280
     1295     4575    3                         + EURC_STATS.RECEIVER_ERRS(1)
     1296     4576    3                         + EURC_STATS.RECEIVER_ERRS(2)
     1297     4577    3                         + EURC_STATS.RECEIVER_ERRS(3)
     1298     4578    3                         + EURC_STATS.TRANSMITTER_ERRS(0)
     1299     4579    3                         + EURC_STATS.TRANSMITTER_ERRS(1)
     1300     4580    3                         + EURC_STATS.TRANSMITTER_ERRS(2)
     1301     4581    3                         + EURC_STATS.TRANSMITTER_ERRS(3);
     1302     4582    3            CASE (%TH_DIAG);

     1303     4583    4               DO CASE (EL$DIAG.TEST);

   4583  3 006545   200005 470500                    LDP0    INFO+1,,AUTO
         3 006546   000010 235100                    LDA     8,,PR0
         3 006547   000010 115007                    CMPA    8,DL
         3 006550   006552 602005 3                  TNC     s:4583+5,AL
         3 006551   006712 710000 3                  TRA     s:4601
         3 006552   006677 710000 3                  TRA     s:4599
         3 006553   006562 710000 3                  TRA     s:4585
         3 006554   006575 710000 3                  TRA     s:4587
         3 006555   006610 710000 3                  TRA     s:4589
         3 006556   006623 710000 3                  TRA     s:4591
         3 006557   006636 710000 3                  TRA     s:4593
         3 006560   006651 710000 3                  TRA     s:4595
         3 006561   006664 710000 3                  TRA     s:4597

     1304     4584    4                 CASE (%TD_TEST_POLTS);

     1305     4585    4                   CALL THF$ADD_TEXTC (TEXT$,'POLTS         ',14);

   4585  3 006562   000017 236000 4                  LDQ     15
         3 006563   200536 756100                    STQ     CHIP#+4,,AUTO
         3 006564   000313 236000 4                  LDQ     203
         3 006565   200535 756100                    STQ     CHIP#+3,,AUTO
         3 006566   200210 631500                    EPPR1   TEXT$,,AUTO
         3 006567   200534 451500                    STP1    CHIP#+2,,AUTO
         3 006570   200534 630500                    EPPR0   CHIP#+2,,AUTO
         3 006571   000021 631400 xsym               EPPR1   B_VECTNIL+17
PL6.E3A0      #001=THF$RAW File=THF$FORMAT.:E05TSI                               WED 07/30/97 06:08 Page:281
         3 006572   000000 701000 xent               TSX1    THF$ADD_TEXTC
         3 006573   000000 011000                    NOP     0
         3 006574   007070 710000 3                  TRA     s:4630

     1306     4586    4                 CASE (%TD_TEST_ITR);

     1307     4587    4                   CALL THF$ADD_TEXTC (TEXT$,'ITR           ',14);

   4587  3 006575   000017 236000 4                  LDQ     15
         3 006576   200536 756100                    STQ     CHIP#+4,,AUTO
         3 006577   000314 236000 4                  LDQ     204
         3 006600   200535 756100                    STQ     CHIP#+3,,AUTO
         3 006601   200210 631500                    EPPR1   TEXT$,,AUTO
         3 006602   200534 451500                    STP1    CHIP#+2,,AUTO
         3 006603   200534 630500                    EPPR0   CHIP#+2,,AUTO
         3 006604   000021 631400 xsym               EPPR1   B_VECTNIL+17
         3 006605   000000 701000 xent               TSX1    THF$ADD_TEXTC
         3 006606   000000 011000                    NOP     0
         3 006607   007070 710000 3                  TRA     s:4630

     1308     4588    4                 CASE (%TD_TEST_MDR);

     1309     4589    4                   CALL THF$ADD_TEXTC (TEXT$,'MDR           ',14);

   4589  3 006610   000017 236000 4                  LDQ     15
         3 006611   200536 756100                    STQ     CHIP#+4,,AUTO
         3 006612   000315 236000 4                  LDQ     205
         3 006613   200535 756100                    STQ     CHIP#+3,,AUTO
         3 006614   200210 631500                    EPPR1   TEXT$,,AUTO
         3 006615   200534 451500                    STP1    CHIP#+2,,AUTO
         3 006616   200534 630500                    EPPR0   CHIP#+2,,AUTO
         3 006617   000021 631400 xsym               EPPR1   B_VECTNIL+17
         3 006620   000000 701000 xent               TSX1    THF$ADD_TEXTC
         3 006621   000000 011000                    NOP     0
         3 006622   007070 710000 3                  TRA     s:4630

     1310     4590    4                 CASE (%TD_TEST_MTAR);
PL6.E3A0      #001=THF$RAW File=THF$FORMAT.:E05TSI                               WED 07/30/97 06:08 Page:282

     1311     4591    4                   CALL THF$ADD_TEXTC (TEXT$,'MTAR          ',14);

   4591  3 006623   000017 236000 4                  LDQ     15
         3 006624   200536 756100                    STQ     CHIP#+4,,AUTO
         3 006625   000316 236000 4                  LDQ     206
         3 006626   200535 756100                    STQ     CHIP#+3,,AUTO
         3 006627   200210 631500                    EPPR1   TEXT$,,AUTO
         3 006630   200534 451500                    STP1    CHIP#+2,,AUTO
         3 006631   200534 630500                    EPPR0   CHIP#+2,,AUTO
         3 006632   000021 631400 xsym               EPPR1   B_VECTNIL+17
         3 006633   000000 701000 xent               TSX1    THF$ADD_TEXTC
         3 006634   000000 011000                    NOP     0
         3 006635   007070 710000 3                  TRA     s:4630

     1312     4592    4                 CASE (%TD_TEST_FEP);

     1313     4593    4                   CALL THF$ADD_TEXTC (TEXT$,'FEP           ',14);

   4593  3 006636   000017 236000 4                  LDQ     15
         3 006637   200536 756100                    STQ     CHIP#+4,,AUTO
         3 006640   000317 236000 4                  LDQ     207
         3 006641   200535 756100                    STQ     CHIP#+3,,AUTO
         3 006642   200210 631500                    EPPR1   TEXT$,,AUTO
         3 006643   200534 451500                    STP1    CHIP#+2,,AUTO
         3 006644   200534 630500                    EPPR0   CHIP#+2,,AUTO
         3 006645   000021 631400 xsym               EPPR1   B_VECTNIL+17
         3 006646   000000 701000 xent               TSX1    THF$ADD_TEXTC
         3 006647   000000 011000                    NOP     0
         3 006650   007070 710000 3                  TRA     s:4630

     1314     4594    4                 CASE(%TD_TEST_MPC);

     1315     4595    4                   CALL THF$ADD_TEXTC (TEXT$,'CTRLR PRE-OPEN',14);

   4595  3 006651   000017 236000 4                  LDQ     15
         3 006652   200536 756100                    STQ     CHIP#+4,,AUTO
PL6.E3A0      #001=THF$RAW File=THF$FORMAT.:E05TSI                               WED 07/30/97 06:08 Page:283
         3 006653   000320 236000 4                  LDQ     208
         3 006654   200535 756100                    STQ     CHIP#+3,,AUTO
         3 006655   200210 631500                    EPPR1   TEXT$,,AUTO
         3 006656   200534 451500                    STP1    CHIP#+2,,AUTO
         3 006657   200534 630500                    EPPR0   CHIP#+2,,AUTO
         3 006660   000021 631400 xsym               EPPR1   B_VECTNIL+17
         3 006661   000000 701000 xent               TSX1    THF$ADD_TEXTC
         3 006662   000000 011000                    NOP     0
         3 006663   007070 710000 3                  TRA     s:4630

     1316     4596    4                 CASE(%TD_TEST_MCA);

     1317     4597    4                   CALL THF$ADD_TEXTC (TEXT$,'MCA           ',14);

   4597  3 006664   000017 236000 4                  LDQ     15
         3 006665   200536 756100                    STQ     CHIP#+4,,AUTO
         3 006666   000321 236000 4                  LDQ     209
         3 006667   200535 756100                    STQ     CHIP#+3,,AUTO
         3 006670   200210 631500                    EPPR1   TEXT$,,AUTO
         3 006671   200534 451500                    STP1    CHIP#+2,,AUTO
         3 006672   200534 630500                    EPPR0   CHIP#+2,,AUTO
         3 006673   000021 631400 xsym               EPPR1   B_VECTNIL+17
         3 006674   000000 701000 xent               TSX1    THF$ADD_TEXTC
         3 006675   000000 011000                    NOP     0
         3 006676   007070 710000 3                  TRA     s:4630

     1318     4598    4                 CASE(%TD_TEST_DEVICE);

     1319     4599    4                   CALL THF$ADD_TEXTC (TEXT$,'DEV PRE-OPEN  ',14);

   4599  3 006677   000017 236000 4                  LDQ     15
         3 006700   200536 756100                    STQ     CHIP#+4,,AUTO
         3 006701   000322 236000 4                  LDQ     210
         3 006702   200535 756100                    STQ     CHIP#+3,,AUTO
         3 006703   200210 631500                    EPPR1   TEXT$,,AUTO
         3 006704   200534 451500                    STP1    CHIP#+2,,AUTO
         3 006705   200534 630500                    EPPR0   CHIP#+2,,AUTO
PL6.E3A0      #001=THF$RAW File=THF$FORMAT.:E05TSI                               WED 07/30/97 06:08 Page:284
         3 006706   000021 631400 xsym               EPPR1   B_VECTNIL+17
         3 006707   000000 701000 xent               TSX1    THF$ADD_TEXTC
         3 006710   000000 011000                    NOP     0
         3 006711   007070 710000 3                  TRA     s:4630

     1320     4600    4                 CASE (ELSE);

     1321     4601    4                   CALL THF$ADD_TEXTC (TEXT$,' *** ',5);

   4601  3 006712   000023 236000 4                  LDQ     19
         3 006713   200536 756100                    STQ     CHIP#+4,,AUTO
         3 006714   000323 236000 4                  LDQ     211
         3 006715   200535 756100                    STQ     CHIP#+3,,AUTO
         3 006716   200210 631500                    EPPR1   TEXT$,,AUTO
         3 006717   200534 451500                    STP1    CHIP#+2,,AUTO
         3 006720   200534 630500                    EPPR0   CHIP#+2,,AUTO
         3 006721   000021 631400 xsym               EPPR1   B_VECTNIL+17
         3 006722   000000 701000 xent               TSX1    THF$ADD_TEXTC
         3 006723   000000 011000                    NOP     0

     1322     4602    4               END;

   4602  3 006724   007070 710000 3                  TRA     s:4630

     1323     4603    3            CASE ( %TH_CHNGAARD ) ;

     1324     4604    4               IF EL$CHNGAARD.OLD THEN DO ;

   4604  3 006725   200005 470500                    LDP0    INFO+1,,AUTO
         3 006726   000000 234100                    SZN     0,,PR0
         3 006727   006770 605000 3                  TPL     s:4612

     1325     4605    4                  CALL BINCHAR ( TEMP1, EL$CHNGAARD.OLDIOM ) ;

   4605  3 006730   000000 236100                    LDQ     0,,PR0
         3 006731   000031 772000                    QRL     25
         3 006732   000003 376007                    ANQ     3,DL
PL6.E3A0      #001=THF$RAW File=THF$FORMAT.:E05TSI                               WED 07/30/97 06:08 Page:285
         3 006733   000000 235003                    LDA     0,DU
         3 006734   200534 757100                    STAQ    CHIP#+2,,AUTO
         3 006735   000100 301500                    BTD
         3 006736   200534 000010                    NDSC9   CHIP#+2,,AUTO            cn=0,s=lsgnf,sf=0,n=8
         3 006737   200037 030077                    NDSC9   TEMP1,,AUTO              cn=0,s=nosgn,sf=0,n=63

     1326     4606    4                  CALL INSERT ( TEMP2, 0, 2, SUBSTR(TEMP1,LENGTHC(TEMP1)-1,1), '-' ) ;

   4606  3 006740   200056 236100                    LDQ     TEMP1+15,,AUTO
         3 006741   000022 736000                    QLS     18
         3 006742   200057 552140                    STBQ    TEMP2,'40'O,AUTO
         3 006743   000055 236003                    LDQ     45,DU
         3 006744   200057 552120                    STBQ    TEMP2,'20'O,AUTO

     1327     4607    4                  CALL BINCHAR ( TEMP1, EL$CHNGAARD.OLDCHAN ) ;

   4607  3 006745   200005 470500                    LDP0    INFO+1,,AUTO
         3 006746   000000 236100                    LDQ     0,,PR0
         3 006747   000022 772000                    QRL     18
         3 006750   000177 376007                    ANQ     127,DL
         3 006751   000000 235003                    LDA     0,DU
         3 006752   200534 757100                    STAQ    CHIP#+2,,AUTO
         3 006753   000100 301500                    BTD
         3 006754   200534 000010                    NDSC9   CHIP#+2,,AUTO            cn=0,s=lsgnf,sf=0,n=8
         3 006755   200037 030077                    NDSC9   TEMP1,,AUTO              cn=0,s=nosgn,sf=0,n=63

     1328     4608    4                  CALL INSERT ( TEMP2, 2, 3, SUBSTR(TEMP1,LENGTHC(TEMP1)-3,3) ) ;

   4608  3 006756   040100 100500                    MLR     fill='040'O
         3 006757   200056 000003                    ADSC9   TEMP1+15,,AUTO           cn=0,n=3
         3 006760   200057 400003                    ADSC9   TEMP2,,AUTO              cn=2,n=3

     1329     4609    4                  CALL ADD_TEXTC ( TEMP2, 5 ) ;

   4609  3 006761   000023 236000 4                  LDQ     19
         3 006762   200530 756100                    STQ     @CHIP+1,,AUTO
         3 006763   200057 631500                    EPPR1   TEMP2,,AUTO
PL6.E3A0      #001=THF$RAW File=THF$FORMAT.:E05TSI                               WED 07/30/97 06:08 Page:286
         3 006764   200527 451500                    STP1    @BOARD+1,,AUTO
         3 006765   010552 701000 3                  TSX1    ADD_TEXTC
         3 006766   000000 011000                    NOP     0

     1330     4610    4                  END ;

   4610  3 006767   006776 710000 3                  TRA     s:4614

     1331     4611    3               ELSE
     1332     4612    3                  CALL ADD_TEXTC ( '     ', 5 ) ;

   4612  3 006770   000023 236000 4                  LDQ     19
         3 006771   200530 756100                    STQ     @CHIP+1,,AUTO
         3 006772   000324 236000 4                  LDQ     212
         3 006773   200527 756100                    STQ     @BOARD+1,,AUTO
         3 006774   010552 701000 3                  TSX1    ADD_TEXTC
         3 006775   000000 011000                    NOP     0

     1333     4613
     1334     4614    4               IF EL$CHNGAARD.NEW THEN DO ;

   4614  3 006776   200005 470500                    LDP0    INFO+1,,AUTO
         3 006777   000000 236100                    LDQ     0,,PR0
         3 007000   200000 316003                    CANQ    65536,DU
         3 007001   007041 600000 3                  TZE     s:4622

     1335     4615    4                  CALL BINCHAR ( TEMP1, EL$CHNGAARD.NEWIOM ) ;

   4615  3 007002   000000 236100                    LDQ     0,,PR0
         3 007003   000007 772000                    QRL     7
         3 007004   000003 376007                    ANQ     3,DL
         3 007005   000000 235003                    LDA     0,DU
         3 007006   200534 757100                    STAQ    CHIP#+2,,AUTO
         3 007007   000100 301500                    BTD
         3 007010   200534 000010                    NDSC9   CHIP#+2,,AUTO            cn=0,s=lsgnf,sf=0,n=8
         3 007011   200037 030077                    NDSC9   TEMP1,,AUTO              cn=0,s=nosgn,sf=0,n=63

PL6.E3A0      #001=THF$RAW File=THF$FORMAT.:E05TSI                               WED 07/30/97 06:08 Page:287
     1336     4616    4                  CALL INSERT ( TEMP2, 0, 2, SUBSTR(TEMP1,LENGTHC(TEMP1)-1,1), '-' ) ;

   4616  3 007012   200056 236100                    LDQ     TEMP1+15,,AUTO
         3 007013   000022 736000                    QLS     18
         3 007014   200057 552140                    STBQ    TEMP2,'40'O,AUTO
         3 007015   000055 236003                    LDQ     45,DU
         3 007016   200057 552120                    STBQ    TEMP2,'20'O,AUTO

     1337     4617    4                  CALL BINCHAR ( TEMP1, EL$CHNGAARD.NEWCHAN ) ;

   4617  3 007017   200005 470500                    LDP0    INFO+1,,AUTO
         3 007020   000000 236100                    LDQ     0,,PR0
         3 007021   000177 376007                    ANQ     127,DL
         3 007022   000000 235003                    LDA     0,DU
         3 007023   200534 757100                    STAQ    CHIP#+2,,AUTO
         3 007024   000100 301500                    BTD
         3 007025   200534 000010                    NDSC9   CHIP#+2,,AUTO            cn=0,s=lsgnf,sf=0,n=8
         3 007026   200037 030077                    NDSC9   TEMP1,,AUTO              cn=0,s=nosgn,sf=0,n=63

     1338     4618    4                  CALL INSERT ( TEMP2, 2, 3, SUBSTR(TEMP1,LENGTHC(TEMP1)-3,3) ) ;

   4618  3 007027   040100 100500                    MLR     fill='040'O
         3 007030   200056 000003                    ADSC9   TEMP1+15,,AUTO           cn=0,n=3
         3 007031   200057 400003                    ADSC9   TEMP2,,AUTO              cn=2,n=3

     1339     4619    4                  CALL ADD_TEXTC ( TEMP2, 5 ) ;

   4619  3 007032   000023 236000 4                  LDQ     19
         3 007033   200530 756100                    STQ     @CHIP+1,,AUTO
         3 007034   200057 631500                    EPPR1   TEMP2,,AUTO
         3 007035   200527 451500                    STP1    @BOARD+1,,AUTO
         3 007036   010552 701000 3                  TSX1    ADD_TEXTC
         3 007037   000000 011000                    NOP     0

     1340     4620    4                  END ;

   4620  3 007040   007047 710000 3                  TRA     s:4624
PL6.E3A0      #001=THF$RAW File=THF$FORMAT.:E05TSI                               WED 07/30/97 06:08 Page:288

     1341     4621    3               ELSE
     1342     4622    3                  CALL ADD_TEXTC ( '     ', 5 ) ;

   4622  3 007041   000023 236000 4                  LDQ     19
         3 007042   200530 756100                    STQ     @CHIP+1,,AUTO
         3 007043   000324 236000 4                  LDQ     212
         3 007044   200527 756100                    STQ     @BOARD+1,,AUTO
         3 007045   010552 701000 3                  TSX1    ADD_TEXTC
         3 007046   000000 011000                    NOP     0

     1343     4623
     1344     4624    3               IF EL$CHNGAARD.ERR THEN

   4624  3 007047   200005 470500                    LDP0    INFO+1,,AUTO
         3 007050   000000 236100                    LDQ     0,,PR0
         3 007051   100000 316003                    CANQ    32768,DU
         3 007052   007062 600000 3                  TZE     s:4627

     1345     4625    3                  CALL ADD_TEXTC ( 'DP#CP-6''S error.  Do Tape Boot ASAP.', 36 ) ;

   4625  3 007053   000326 236000 4                  LDQ     214
         3 007054   200530 756100                    STQ     @CHIP+1,,AUTO
         3 007055   000327 236000 4                  LDQ     215
         3 007056   200527 756100                    STQ     @BOARD+1,,AUTO
         3 007057   010552 701000 3                  TSX1    ADD_TEXTC
         3 007060   000000 011000                    NOP     0
         3 007061   007070 710000 3                  TRA     s:4630

     1346     4626    3               ELSE
     1347     4627    3                  CALL ADD_TEXTC ( '     ', 5 ) ;

   4627  3 007062   000023 236000 4                  LDQ     19
         3 007063   200530 756100                    STQ     @CHIP+1,,AUTO
         3 007064   000324 236000 4                  LDQ     212
         3 007065   200527 756100                    STQ     @BOARD+1,,AUTO
         3 007066   010552 701000 3                  TSX1    ADD_TEXTC
PL6.E3A0      #001=THF$RAW File=THF$FORMAT.:E05TSI                               WED 07/30/97 06:08 Page:289
         3 007067   000000 011000                    NOP     0

     1348     4628
     1349     4629    3        END;                               /*  DO CASE TH_ITYPE                  */

     1350     4630    2        IF TH_ITYPE = %TH_MPCSTAT

   4630  3 007070   000000 235000 xsym               LDA     TH_ITYPE
         3 007071   000013 115007                    CMPA    11,DL
         3 007072   007101 600000 3                  TZE     s:4634
         3 007073   000016 115007                    CMPA    14,DL
         3 007074   007101 600000 3                  TZE     s:4634
         3 007075   000043 115007                    CMPA    35,DL
         3 007076   007101 600000 3                  TZE     s:4634
         3 007077   000044 115007                    CMPA    36,DL
         3 007100   007107 601000 3                  TNZ     s:4635

     1351     4631    2           OR TH_ITYPE = %TH_DEVSTATS
     1352     4632    2           OR TH_ITYPE = %TH_DEVSTATS_DISK
     1353     4633    2           OR TH_ITYPE = %TH_DEVSTATS_MDS
     1354     4634    2           THEN TVEC = VECTOR(TEMPBUF);

   4634  3 007101   000330 235000 4                  LDA     216
         3 007102   200534 452500                    STP2    CHIP#+2,,AUTO
         3 007103   200534 236100                    LDQ     CHIP#+2,,AUTO
         3 007104   000413 036003                    ADLQ    267,DU
         3 007105   200206 757100                    STAQ    TVEC,,AUTO
         3 007106   007141 710000 3                  TRA     s:4642

     1355     4635    2        ELSE IF TEXT$ = ADDR(TEXTBUF)

   4635  3 007107   200534 452500                    STP2    CHIP#+2,,AUTO
         3 007110   200534 236100                    LDQ     CHIP#+2,,AUTO
         3 007111   000106 036003                    ADLQ    70,DU
         3 007112   200210 116100                    CMPQ    TEXT$,,AUTO
         3 007113   007117 601000 3                  TNZ     s:4639

PL6.E3A0      #001=THF$RAW File=THF$FORMAT.:E05TSI                               WED 07/30/97 06:08 Page:290
     1356     4636    2           THEN TVEC = VECTOR(NIL);

   4636  3 007114   000332 237000 4                  LDAQ    218
         3 007115   200206 757100                    STAQ    TVEC,,AUTO
         3 007116   007141 710000 3                  TRA     s:4642

     1357     4637    2           ELSE                            /* TEXT HAS BEEN PUT INTO TBUF        */
     1358     4638    3           DO;

     1359     4639    3              TVEC = VECTOR(TEXTBUF);

   4639  3 007117   000306 235000 4                  LDA     198
         3 007120   200534 452500                    STP2    CHIP#+2,,AUTO
         3 007121   200534 236100                    LDQ     CHIP#+2,,AUTO
         3 007122   000106 036003                    ADLQ    70,DU
         3 007123   200206 757100                    STAQ    TVEC,,AUTO

     1360     4640    3              TVEC.BOUND = POFFC(TEXT$,ADDR(TEXTBUF)) - 1;

   4640  3 007124   200534 452500                    STP2    CHIP#+2,,AUTO
         3 007125   200534 236100                    LDQ     CHIP#+2,,AUTO
         3 007126   000106 036003                    ADLQ    70,DU
         3 007127   000020 772000                    QRL     16
         3 007130   200535 756100                    STQ     CHIP#+3,,AUTO
         3 007131   200210 236100                    LDQ     TEXT$,,AUTO
         3 007132   000020 772000                    QRL     16
         3 007133   200535 136100                    SBLQ    CHIP#+3,,AUTO
         3 007134   000001 136007                    SBLQ    1,DL
         3 007135   000020 736000                    QLS     16
         3 007136   200206 676100                    ERQ     TVEC,,AUTO
         3 007137   000034 376000 xsym               ANQ     B_VECTNIL+28
         3 007140   200206 656100                    ERSQ    TVEC,,AUTO

     1361     4641    3           END;

     1362     4642    2     IF MM$ = ADDR(MMBUF)

PL6.E3A0      #001=THF$RAW File=THF$FORMAT.:E05TSI                               WED 07/30/97 06:08 Page:291
   4642  3 007141   000012 236000 4                  LDQ     10
         3 007142   200370 116100                    CMPQ    MM$,,AUTO
         3 007143   007147 601000 3                  TNZ     s:4646

     1363     4643    2       THEN MMVEC = VECTOR(NIL);

   4643  3 007144   000332 237000 4                  LDAQ    218
         3 007145   200372 757100                    STAQ    MMVEC,,AUTO
         3 007146   007164 710000 3                  TRA     s:4649

     1364     4644    2   ELSE
     1365     4645    3       DO;

     1366     4646    3      MMVEC = VECTOR(MMBUF);

   4646  3 007147   000306 237000 4                  LDAQ    198
         3 007150   200372 757100                    STAQ    MMVEC,,AUTO

     1367     4647    3      MMVEC.BOUND = POFFC(MM$,ADDR(MMBUF)) - 1;

   4647  3 007151   000012 236000 4                  LDQ     10
         3 007152   000020 772000                    QRL     16
         3 007153   200534 756100                    STQ     CHIP#+2,,AUTO
         3 007154   200370 236100                    LDQ     MM$,,AUTO
         3 007155   000020 772000                    QRL     16
         3 007156   200534 136100                    SBLQ    CHIP#+2,,AUTO
         3 007157   000001 136007                    SBLQ    1,DL
         3 007160   000020 736000                    QLS     16
         3 007161   200372 676100                    ERQ     MMVEC,,AUTO
         3 007162   000034 376000 xsym               ANQ     B_VECTNIL+28
         3 007163   200372 656100                    ERSQ    MMVEC,,AUTO

     1368     4648    3   END;

     1369     4649    3   IF TH_ITYPE = %TH_IOERR OR TH_ITYPE = %TH_FI THEN DO;

   4649  3 007164   000000 235000 xsym               LDA     TH_ITYPE
PL6.E3A0      #001=THF$RAW File=THF$FORMAT.:E05TSI                               WED 07/30/97 06:08 Page:292
         3 007165   000022 115007                    CMPA    18,DL
         3 007166   007171 600000 3                  TZE     s:4650
         3 007167   000031 115007                    CMPA    25,DL
         3 007170   007307 601000 3                  TNZ     s:4666

     1370     4650    4      IF MODEL_CHAR = 'MTU' AND NOT TH_DETAIL_FLG THEN DO;

   4650  3 007171   200220 236100                    LDQ     MODEL_CHAR,,AUTO
         3 007172   001617 676000 1                  ERQ     BOARD_64K+464
         3 007173   000134 376000 4                  ANQ     92
         3 007174   007247 601000 3                  TNZ     s:4658
         3 007175   000000 234000 xsym               SZN     TH_DETAIL_FLG
         3 007176   007247 604000 3                  TMI     s:4658

     1371     4651    4        SEEK_ADDR = ' ';

   4651  3 007177   000035 235000 xsym               LDA     B_VECTNIL+29
         3 007200   000035 236000 xsym               LDQ     B_VECTNIL+29
         3 007201   200425 755100                    STA     SEEK_ADDR,,AUTO
         3 007202   200426 756100                    STQ     SEEK_ADDR+1,,AUTO

     1372     4652    4        CALL THF$ADD_TEXTC(SEC$,SEEK_ADDR,8);

   4652  3 007203   000025 236000 4                  LDQ     21
         3 007204   200536 756100                    STQ     CHIP#+4,,AUTO
         3 007205   200425 630500                    EPPR0   SEEK_ADDR,,AUTO
         3 007206   200535 450500                    STP0    CHIP#+3,,AUTO
         3 007207   200411 631500                    EPPR1   SEC$,,AUTO
         3 007210   200534 451500                    STP1    CHIP#+2,,AUTO
         3 007211   200534 630500                    EPPR0   CHIP#+2,,AUTO
         3 007212   000021 631400 xsym               EPPR1   B_VECTNIL+17
         3 007213   000000 701000 xent               TSX1    THF$ADD_TEXTC
         3 007214   000000 011000                    NOP     0

     1373     4653    4        CALL BINCHAR(MT_POSITION.FILE, EL$IOERR.TAPEPOS.FILECNT);

   4653  3 007215   200005 470500                    LDP0    INFO+1,,AUTO
PL6.E3A0      #001=THF$RAW File=THF$FORMAT.:E05TSI                               WED 07/30/97 06:08 Page:293
         3 007216   000023 236100                    LDQ     19,,PR0
         3 007217   777777 376007                    ANQ     -1,DL
         3 007220   000000 235003                    LDA     0,DU
         3 007221   200534 757100                    STAQ    CHIP#+2,,AUTO
         3 007222   000000 301500                    BTD
         3 007223   200534 000010                    NDSC9   CHIP#+2,,AUTO            cn=0,s=lsgnf,sf=0,n=8
         3 007224   003132 030004 2                  NDSC9   MT_POSITION              cn=0,s=nosgn,sf=0,n=4

     1374     4654    4        CALL BINCHAR(MT_POSITION.RECCNT, EL$IOERR.TAPEPOS.CURECNT);

   4654  3 007225   000023 236100                    LDQ     19,,PR0
         3 007226   000022 772000                    QRL     18
         3 007227   000000 235003                    LDA     0,DU
         3 007230   200534 757100                    STAQ    CHIP#+2,,AUTO
         3 007231   000000 301500                    BTD
         3 007232   200534 000010                    NDSC9   CHIP#+2,,AUTO            cn=0,s=lsgnf,sf=0,n=8
         3 007233   003133 230006 2                  NDSC9   MT_POSITION+1            cn=1,s=nosgn,sf=0,n=6

     1375     4655    4        CALL THF$ADD_TEXTC(SEC$, MT_POSITION, 11);

   4655  3 007234   000171 236000 4                  LDQ     121
         3 007235   200536 756100                    STQ     CHIP#+4,,AUTO
         3 007236   000331 236000 4                  LDQ     217
         3 007237   200535 756100                    STQ     CHIP#+3,,AUTO
         3 007240   200411 631500                    EPPR1   SEC$,,AUTO
         3 007241   200534 451500                    STP1    CHIP#+2,,AUTO
         3 007242   200534 630500                    EPPR0   CHIP#+2,,AUTO
         3 007243   000021 631400 xsym               EPPR1   B_VECTNIL+17
         3 007244   000000 701000 xent               TSX1    THF$ADD_TEXTC
         3 007245   000000 011000                    NOP     0

     1376     4656    4      END;

   4656  3 007246   007307 710000 3                  TRA     s:4666

     1377     4657    4      ELSE DO;

PL6.E3A0      #001=THF$RAW File=THF$FORMAT.:E05TSI                               WED 07/30/97 06:08 Page:294
     1378     4658    4        CALL BINCHAR(SEEK_ADDR, SECTOR);

   4658  3 007247   000100 301500                    BTD
         3 007250   200374 000004                    NDSC9   SECTOR,,AUTO             cn=0,s=lsgnf,sf=0,n=4
         3 007251   200425 030010                    NDSC9   SEEK_ADDR,,AUTO          cn=0,s=nosgn,sf=0,n=8

     1379     4659    4        CALL THF$ADD_TEXTC(SEC$, SEEK_ADDR, 8);

   4659  3 007252   000025 236000 4                  LDQ     21
         3 007253   200536 756100                    STQ     CHIP#+4,,AUTO
         3 007254   200425 630500                    EPPR0   SEEK_ADDR,,AUTO
         3 007255   200535 450500                    STP0    CHIP#+3,,AUTO
         3 007256   200411 631500                    EPPR1   SEC$,,AUTO
         3 007257   200534 451500                    STP1    CHIP#+2,,AUTO
         3 007260   200534 630500                    EPPR0   CHIP#+2,,AUTO
         3 007261   000021 631400 xsym               EPPR1   B_VECTNIL+17
         3 007262   000000 701000 xent               TSX1    THF$ADD_TEXTC
         3 007263   000000 011000                    NOP     0

     1380     4660    4        CALL BINCHAR(DP_POSITION.CYL, CYL);

   4660  3 007264   000000 301500                    BTD
         3 007265   200375 000004                    NDSC9   CYL,,AUTO                cn=0,s=lsgnf,sf=0,n=4
         3 007266   003135 030004 2                  NDSC9   DP_POSITION              cn=0,s=nosgn,sf=0,n=4

     1381     4661    4        CALL BINCHAR(DP_POSITION.HD, HD);

   4661  3 007267   000000 301500                    BTD
         3 007270   200376 000004                    NDSC9   HD,,AUTO                 cn=0,s=lsgnf,sf=0,n=4
         3 007271   003136 230002 2                  NDSC9   DP_POSITION+1            cn=1,s=nosgn,sf=0,n=2

     1382     4662    4        CALL BINCHAR(DP_POSITION.SEC, SE);

   4662  3 007272   000000 301500                    BTD
         3 007273   200377 000004                    NDSC9   SE,,AUTO                 cn=0,s=lsgnf,sf=0,n=4
         3 007274   003137 030002 2                  NDSC9   DP_POSITION+2            cn=0,s=nosgn,sf=0,n=2

PL6.E3A0      #001=THF$RAW File=THF$FORMAT.:E05TSI                               WED 07/30/97 06:08 Page:295
     1383     4663    4        CALL THF$ADD_TEXTC(SEC$, DP_POSITION, 10);

   4663  3 007275   000027 236000 4                  LDQ     23
         3 007276   200536 756100                    STQ     CHIP#+4,,AUTO
         3 007277   000334 236000 4                  LDQ     220
         3 007300   200535 756100                    STQ     CHIP#+3,,AUTO
         3 007301   200411 630500                    EPPR0   SEC$,,AUTO
         3 007302   200534 450500                    STP0    CHIP#+2,,AUTO
         3 007303   200534 630500                    EPPR0   CHIP#+2,,AUTO
         3 007304   000021 631400 xsym               EPPR1   B_VECTNIL+17
         3 007305   000000 701000 xent               TSX1    THF$ADD_TEXTC
         3 007306   000000 011000                    NOP     0

     1384     4664    4      END;

     1385     4665    3   END;

     1386     4666    2        SECVEC = VECTOR(SECBUF);

   4666  3 007307   000336 237000 4                  LDAQ    222
         3 007310   200430 757100                    STAQ    SECVEC,,AUTO

     1387     4667    2        SECVEC.BOUND = POFFC(SEC$,ADDR(SECBUF)) - 1;

   4667  3 007311   000013 236000 4                  LDQ     11
         3 007312   000020 772000                    QRL     16
         3 007313   200534 756100                    STQ     CHIP#+2,,AUTO
         3 007314   200411 236100                    LDQ     SEC$,,AUTO
         3 007315   000020 772000                    QRL     16
         3 007316   200534 136100                    SBLQ    CHIP#+2,,AUTO
         3 007317   000001 136007                    SBLQ    1,DL
         3 007320   000020 736000                    QLS     16
         3 007321   200430 676100                    ERQ     SECVEC,,AUTO
         3 007322   000034 376000 xsym               ANQ     B_VECTNIL+28
         3 007323   200430 656100                    ERSQ    SECVEC,,AUTO

     1388     4668    2        IF (RECORD.TYPE ~= TH_LASTTYPE) AND
PL6.E3A0      #001=THF$RAW File=THF$FORMAT.:E05TSI                               WED 07/30/97 06:08 Page:296

   4668  3 007324   000001 470400 xsym               LDP0    TH_RECORD+1
         3 007325   000000 236100                    LDQ     0,,PR0
         3 007326   000033 772000                    QRL     27
         3 007327   000000 116000 xsym               CMPQ    TH_LASTTYPE
         3 007330   007403 600000 3                  TZE     s:4675
         3 007331   000033 736000                    QLS     27
         3 007332   462000 116003                    CMPQ    -105472,DU
         3 007333   007336 600000 3                  TZE     s:4668+10
         3 007334   463000 116003                    CMPQ    -104960,DU
         3 007335   007341 601000 3                  TNZ     s:4668+13
         3 007336   000000 235000 xsym               LDA     TH_LASTTYPE
         3 007337   000455 115007                    CMPA    301,DL
         3 007340   007403 600000 3                  TZE     s:4675
         3 007341   147000 116003                    CMPQ    52736,DU
         3 007342   007346 601000 3                  TNZ     s:4672
         3 007343   000000 235000 xsym               LDA     TH_LASTTYPE
         3 007344   000146 115007                    CMPA    102,DL
         3 007345   007403 600000 3                  TZE     s:4675

     1389     4669    2           NOT ((RECORD.TYPE = EL_SUA OR RECORD.TYPE = EL_SNAP) AND TH_LASTTYPE =
              4669                    EL_SCREECH)
     1390     4670    2           AND NOT(RECORD.TYPE = EL_DSMT AND TH_LASTTYPE = EL_MOUNT)
     1391     4671    2           THEN
     1392     4672    3           DO I = 1 TO CTL.NHDR;

   4672  3 007346   000001 235007                    LDA     1,DL
         3 007347   200010 755100                    STA     I,,AUTO
         3 007350   007375 710000 3                  TRA     s:4674+1

     1393     4673    3            CALL THW$WRITE(CTL.FMT(I),VECTOR(TH_TIME),INFO,TVEC,SECVEC,MMVEC);

   4673  3 007351   200372 630500                    EPPR0   MMVEC,,AUTO
         3 007352   200541 450500                    STP0    CHIP#+7,,AUTO
         3 007353   200430 631500                    EPPR1   SECVEC,,AUTO
         3 007354   200540 451500                    STP1    CHIP#+6,,AUTO
         3 007355   200206 633500                    EPPR3   TVEC,,AUTO
PL6.E3A0      #001=THF$RAW File=THF$FORMAT.:E05TSI                               WED 07/30/97 06:08 Page:297
         3 007356   200537 453500                    STP3    CHIP#+5,,AUTO
         3 007357   200004 634500                    EPPR4   INFO,,AUTO
         3 007360   200536 454500                    STP4    CHIP#+4,,AUTO
         3 007361   000342 236000 4                  LDQ     226
         3 007362   200535 756100                    STQ     CHIP#+3,,AUTO
         3 007363   200010 236100                    LDQ     I,,AUTO
         3 007364   000023 736000                    QLS     19
         3 007365   000002 036003                    ADLQ    2,DU
         3 007366   200211 036100                    ADLQ    CTL$,,AUTO
         3 007367   200534 756100                    STQ     CHIP#+2,,AUTO
         3 007370   200534 630500                    EPPR0   CHIP#+2,,AUTO
         3 007371   000024 631400 xsym               EPPR1   B_VECTNIL+20
         3 007372   000000 701000 xent               TSX1    THW$WRITE
         3 007373   000000 011000                    NOP     0

     1394     4674    3           END;

   4674  3 007374   200010 054100                    AOS     I,,AUTO
         3 007375   200211 470500                    LDP0    CTL$,,AUTO
         3 007376   000000 236100                    LDQ     0,,PR0
         3 007377   000033 772000                    QRL     27
         3 007400   200010 116100                    CMPQ    I,,AUTO
         3 007401   007351 605000 3                  TPL     s:4673
         3 007402   007451 710000 3                  TRA     s:4681

     1395     4675    2        ELSE IF RECORD.TYPE = EL_DEVSTAT

   4675  3 007403   000000 236100                    LDQ     0,,PR0
         3 007404   777000 376003                    ANQ     -512,DU
         3 007405   164000 116003                    CMPQ    59392,DU
         3 007406   007451 601000 3                  TNZ     s:4681
         3 007407   000000 234000 xsym               SZN     TH_RAW_FLG
         3 007410   007451 605000 3                  TPL     s:4681
         3 007411   000000 220000 xsym               LDX0    TH_LAST_DEVTYPE
         3 007412   200005 471500                    LDP1    INFO+1,,AUTO
         3 007413   100000 100100                    CMPX0   0,,PR1
         3 007414   007451 600000 3                  TZE     s:4681
PL6.E3A0      #001=THF$RAW File=THF$FORMAT.:E05TSI                               WED 07/30/97 06:08 Page:298

     1396     4676    2                AND TH_RAW_FLG
     1397     4677    2                AND (TH_LAST_DEVTYPE ~= SUBSTR(EL$DEVSTATS.DEVNM,0,2))
     1398     4678    3                THEN DO I = 2 TO CTL.NHDR;

   4678  3 007415   000002 235007                    LDA     2,DL
         3 007416   200010 755100                    STA     I,,AUTO
         3 007417   007444 710000 3                  TRA     s:4680+1

     1399     4679    3                  CALL THW$WRITE(CTL.FMT(I),VECTOR(TH_TIME),INFO,TVEC,SECVEC,MMVEC);

   4679  3 007420   200372 630500                    EPPR0   MMVEC,,AUTO
         3 007421   200541 450500                    STP0    CHIP#+7,,AUTO
         3 007422   200430 631500                    EPPR1   SECVEC,,AUTO
         3 007423   200540 451500                    STP1    CHIP#+6,,AUTO
         3 007424   200206 633500                    EPPR3   TVEC,,AUTO
         3 007425   200537 453500                    STP3    CHIP#+5,,AUTO
         3 007426   200004 634500                    EPPR4   INFO,,AUTO
         3 007427   200536 454500                    STP4    CHIP#+4,,AUTO
         3 007430   000342 236000 4                  LDQ     226
         3 007431   200535 756100                    STQ     CHIP#+3,,AUTO
         3 007432   200010 236100                    LDQ     I,,AUTO
         3 007433   000023 736000                    QLS     19
         3 007434   000002 036003                    ADLQ    2,DU
         3 007435   200211 036100                    ADLQ    CTL$,,AUTO
         3 007436   200534 756100                    STQ     CHIP#+2,,AUTO
         3 007437   200534 630500                    EPPR0   CHIP#+2,,AUTO
         3 007440   000024 631400 xsym               EPPR1   B_VECTNIL+20
         3 007441   000000 701000 xent               TSX1    THW$WRITE
         3 007442   000000 011000                    NOP     0

     1400     4680    3                END;

   4680  3 007443   200010 054100                    AOS     I,,AUTO
         3 007444   200211 470500                    LDP0    CTL$,,AUTO
         3 007445   000000 236100                    LDQ     0,,PR0
         3 007446   000033 772000                    QRL     27
PL6.E3A0      #001=THF$RAW File=THF$FORMAT.:E05TSI                               WED 07/30/97 06:08 Page:299
         3 007447   200010 116100                    CMPQ    I,,AUTO
         3 007450   007420 605000 3                  TPL     s:4679

     1401     4681    2        IF RECORD.TYPE = EL_DEVSTAT THEN

   4681  3 007451   000001 470400 xsym               LDP0    TH_RECORD+1
         3 007452   000000 236100                    LDQ     0,,PR0
         3 007453   777000 376003                    ANQ     -512,DU
         3 007454   164000 116003                    CMPQ    59392,DU
         3 007455   007461 601000 3                  TNZ     s:4683

     1402     4682    2           TH_LAST_DEVTYPE = SUBSTR(EL$DEVSTATS.DEVNM,0,2);

   4682  3 007456   200005 471500                    LDP1    INFO+1,,AUTO
         3 007457   100000 220100                    LDX0    0,,PR1
         3 007460   000000 740000 xsym               STX0    TH_LAST_DEVTYPE

     1403     4683    2        IF CTL.HDRFLG THEN TH_LASTTYPE = RECORD.TYPE;

   4683  3 007461   200211 471500                    LDP1    CTL$,,AUTO
         3 007462   100000 236100                    LDQ     0,,PR1
         3 007463   400000 316007                    CANQ    -131072,DL
         3 007464   007471 600000 3                  TZE     s:4684

   4683  3 007465   000000 236100                    LDQ     0,,PR0
         3 007466   000033 772000                    QRL     27
         3 007467   000000 756000 xsym               STQ     TH_LASTTYPE
         3 007470   007473 710000 3                  TRA     s:4685

     1404     4684    2                      ELSE TH_LASTTYPE = -1;

   4684  3 007471   000001 335007                    LCA     1,DL
         3 007472   000000 755000 xsym               STA     TH_LASTTYPE

     1405     4685    2        IF TH_LASTTYPE = EL_SNAP OR TH_LASTTYPE = EL_SUA

   4685  3 007473   000000 235000 xsym               LDA     TH_LASTTYPE
PL6.E3A0      #001=THF$RAW File=THF$FORMAT.:E05TSI                               WED 07/30/97 06:08 Page:300
         3 007474   000463 115007                    CMPA    307,DL
         3 007475   007500 600000 3                  TZE     s:4686
         3 007476   000462 115007                    CMPA    306,DL
         3 007477   007502 601000 3                  TNZ     s:4687

     1406     4686    2           THEN TH_LASTTYPE = EL_SCREECH;

   4686  3 007500   000455 236007                    LDQ     301,DL
         3 007501   000000 756000 xsym               STQ     TH_LASTTYPE

     1407     4687    2        IF TH_LASTTYPE = EL_DSMT

   4687  3 007502   000000 235000 xsym               LDA     TH_LASTTYPE
         3 007503   000147 115007                    CMPA    103,DL
         3 007504   007507 601000 3                  TNZ     s:4689

     1408     4688    2           THEN TH_LASTTYPE = EL_MOUNT;

   4688  3 007505   000146 236007                    LDQ     102,DL
         3 007506   000000 756000 xsym               STQ     TH_LASTTYPE

     1409     4689    3        DO I = CTL.NHDR + 1 TO CTL.NFMT + CTL.NHDR;

   4689  3 007507   100000 236100                    LDQ     0,,PR1
         3 007510   000033 772000                    QRL     27
         3 007511   000001 036007                    ADLQ    1,DL
         3 007512   200010 756100                    STQ     I,,AUTO
         3 007513   007554 710000 3                  TRA     s:4695+1

     1410     4690    3        IF (TH_ITYPE = %TH_MOUNT OR TH_ITYPE = %TH_DSMT) AND

   4690  3 007514   000000 235000 xsym               LDA     TH_ITYPE
         3 007515   000002 115007                    CMPA    2,DL
         3 007516   007521 600000 3                  TZE     s:4690+5
         3 007517   000003 115007                    CMPA    3,DL
         3 007520   007530 601000 3                  TNZ     s:4694
         3 007521   000016 234000 xsym               SZN     TH_CONSTRAINTS+14
PL6.E3A0      #001=THF$RAW File=THF$FORMAT.:E05TSI                               WED 07/30/97 06:08 Page:301
         3 007522   007530 605000 3                  TPL     s:4694
         3 007523   200005 470500                    LDP0    INFO+1,,AUTO
         3 007524   040100 106400                    CMPC    fill='040'O
         3 007525   000014 400006 xsym               ADSC9   TH_CONSTRAINTS+12        cn=2,n=6
         3 007526   000001 000006                    ADSC9   1,,PR0                   cn=0,n=6
         3 007527   007553 601000 3                  TNZ     s:4695

     1411     4691    3        (  TH_CONSTRAINTS.M_MED_S AND TH_CONSTRAINTS.M_MED ~= EL$MTDMT.VOLUME)
     1412     4692    3            THEN;
     1413     4693    3            ELSE
     1414     4694    3            CALL THW$WRITE(CTL.FMT(I),VECTOR(TH_TIME),INFO,TVEC,SECVEC,MMVEC);

   4694  3 007530   200372 630500                    EPPR0   MMVEC,,AUTO
         3 007531   200541 450500                    STP0    CHIP#+7,,AUTO
         3 007532   200430 631500                    EPPR1   SECVEC,,AUTO
         3 007533   200540 451500                    STP1    CHIP#+6,,AUTO
         3 007534   200206 633500                    EPPR3   TVEC,,AUTO
         3 007535   200537 453500                    STP3    CHIP#+5,,AUTO
         3 007536   200004 634500                    EPPR4   INFO,,AUTO
         3 007537   200536 454500                    STP4    CHIP#+4,,AUTO
         3 007540   000342 236000 4                  LDQ     226
         3 007541   200535 756100                    STQ     CHIP#+3,,AUTO
         3 007542   200010 236100                    LDQ     I,,AUTO
         3 007543   000023 736000                    QLS     19
         3 007544   000002 036003                    ADLQ    2,DU
         3 007545   200211 036100                    ADLQ    CTL$,,AUTO
         3 007546   200534 756100                    STQ     CHIP#+2,,AUTO
         3 007547   200534 630500                    EPPR0   CHIP#+2,,AUTO
         3 007550   000024 631400 xsym               EPPR1   B_VECTNIL+20
         3 007551   000000 701000 xent               TSX1    THW$WRITE
         3 007552   000000 011000                    NOP     0

     1415     4695    3        END;

   4695  3 007553   200010 054100                    AOS     I,,AUTO
         3 007554   200211 470500                    LDP0    CTL$,,AUTO
         3 007555   000000 236100                    LDQ     0,,PR0
PL6.E3A0      #001=THF$RAW File=THF$FORMAT.:E05TSI                               WED 07/30/97 06:08 Page:302
         3 007556   000033 772000                    QRL     27
         3 007557   200534 756100                    STQ     CHIP#+2,,AUTO
         3 007560   000000 236100                    LDQ     0,,PR0
         3 007561   000022 772000                    QRL     18
         3 007562   000777 376007                    ANQ     511,DL
         3 007563   200534 036100                    ADLQ    CHIP#+2,,AUTO
         3 007564   007514 604000 3                  TMI     s:4690
         3 007565   200010 116100                    CMPQ    I,,AUTO
         3 007566   007514 605000 3                  TPL     s:4690

     1416     4696    3        IF CTL.SPECIAL THEN DO CASE(TH_ITYPE);

   4696  3 007567   000000 236100                    LDQ     0,,PR0
         3 007570   200000 316007                    CANQ    65536,DL
         3 007571   010513 600000 3                  TZE     s:4833

   4696  3 007572   000000 235000 xsym               LDA     TH_ITYPE
         3 007573   000022 135007                    SBLA    18,DL
         3 007574   000016 115007                    CMPA    14,DL
         3 007575   007577 602005 3                  TNC     s:4696+8,AL
         3 007576   010513 710000 3                  TRA     s:4833
         3 007577   007615 710000 3                  TRA     s:4698
         3 007600   010513 710000 3                  TRA     s:4833
         3 007601   007736 710000 3                  TRA     s:4720
         3 007602   010012 710000 3                  TRA     s:4732
         3 007603   010513 710000 3                  TRA     s:4833
         3 007604   010513 710000 3                  TRA     s:4833
         3 007605   010513 710000 3                  TRA     s:4833
         3 007606   010513 710000 3                  TRA     s:4833
         3 007607   010513 710000 3                  TRA     s:4833
         3 007610   010513 710000 3                  TRA     s:4833
         3 007611   010513 710000 3                  TRA     s:4833
         3 007612   010513 710000 3                  TRA     s:4833
         3 007613   010513 710000 3                  TRA     s:4833
         3 007614   007764 710000 3                  TRA     s:4726

     1417     4697    3          CASE (%TH_IOERR);
PL6.E3A0      #001=THF$RAW File=THF$FORMAT.:E05TSI                               WED 07/30/97 06:08 Page:303

     1418     4698    3           IF (NXST > 0) AND (EL$IOERR.MODEL = 'MSU8082' OR EL$IOERR.MODEL = 'MSU8092'
              4698                     )

   4698  3 007615   200343 235100                    LDA     NXST,,AUTO
         3 007616   007660 600000 3                  TZE     s:4706
         3 007617   200005 471500                    LDP1    INFO+1,,AUTO
         3 007620   040000 106500                    CMPC    fill='040'O
         3 007621   100030 000010                    ADSC9   24,,PR1                  cn=0,n=8
         3 007622   001666 000007 1                  ADSC9   BOARD_64K+503            cn=0,n=7
         3 007623   007630 600000 3                  TZE     s:4700
         3 007624   040000 106500                    CMPC    fill='040'O
         3 007625   100030 000010                    ADSC9   24,,PR1                  cn=0,n=8
         3 007626   001670 000007 1                  ADSC9   BOARD_64K+505            cn=0,n=7
         3 007627   007660 601000 3                  TNZ     s:4706

     1419     4699    4              THEN DO;

     1420     4700    4                 N = NXST;

   4700  3 007630   200344 755100                    STA     N,,AUTO

     1421     4701    4                 ADDR(XSTBUF) -> XST_TEMP.N = N;

   4701  3 007631   000071 755000 2                  STA     XSTBUF

     1422     4702    4                 XSTVEC = VECTOR(XSTBUF);

   4702  3 007632   000344 237000 4                  LDAQ    228
         3 007633   200302 757100                    STAQ    XSTVEC,,AUTO

     1423     4703    4                 XSTVEC.BOUND = POFFC(XST$, ADDR(XSTBUF)) - 1;

   4703  3 007634   000310 236000 4                  LDQ     200
         3 007635   000020 772000                    QRL     16
         3 007636   200534 756100                    STQ     CHIP#+2,,AUTO
         3 007637   200300 236100                    LDQ     XST$,,AUTO
PL6.E3A0      #001=THF$RAW File=THF$FORMAT.:E05TSI                               WED 07/30/97 06:08 Page:304
         3 007640   000020 772000                    QRL     16
         3 007641   200534 136100                    SBLQ    CHIP#+2,,AUTO
         3 007642   000001 136007                    SBLQ    1,DL
         3 007643   000020 736000                    QLS     16
         3 007644   200302 676100                    ERQ     XSTVEC,,AUTO
         3 007645   000034 376000 xsym               ANQ     B_VECTNIL+28
         3 007646   200302 656100                    ERSQ    XSTVEC,,AUTO

     1424     4704    4                 CALL THW$WRITE(VECTOR(MDSFMT), XSTVEC);

   4704  3 007647   200302 633500                    EPPR3   XSTVEC,,AUTO
         3 007650   200535 453500                    STP3    CHIP#+3,,AUTO
         3 007651   000350 236000 4                  LDQ     232
         3 007652   200534 756100                    STQ     CHIP#+2,,AUTO
         3 007653   200534 630500                    EPPR0   CHIP#+2,,AUTO
         3 007654   000020 631400 xsym               EPPR1   B_VECTNIL+16
         3 007655   000000 701000 xent               TSX1    THW$WRITE
         3 007656   000000 011000                    NOP     0

     1425     4705    4                 END;

   4705  3 007657   010513 710000 3                  TRA     s:4833

     1426     4706    3            ELSE IF NXST > 0

   4706  3 007660   000000 115003                    CMPA    0,DU
         3 007661   010513 600000 3                  TZE     s:4833

     1427     4707    4              THEN DO;

     1428     4708    4                 N = NXST / 2;

   4708  3 007662   200343 236100                    LDQ     NXST,,AUTO
         3 007663   000001 772000                    QRL     1
         3 007664   200344 756100                    STQ     N,,AUTO

     1429     4709    4                 ADDR(XSTBUF) -> XST_TEMP.N = N;
PL6.E3A0      #001=THF$RAW File=THF$FORMAT.:E05TSI                               WED 07/30/97 06:08 Page:305

   4709  3 007665   000071 756000 2                  STQ     XSTBUF

     1430     4710    4                 IF MOD(NXST,2) = 0

   4710  3 007666   200343 236100                    LDQ     NXST,,AUTO
         3 007667   000001 376007                    ANQ     1,DL
         3 007670   007673 601000 3                  TNZ     s:4712

     1431     4711    4                      THEN ODDFLAG = '0'B;

   4711  3 007671   200345 450100                    STZ     ODDFLAG,,AUTO
         3 007672   007675 710000 3                  TRA     s:4713

     1432     4712    4                      ELSE ODDFLAG = '1'B;

   4712  3 007673   400000 236003                    LDQ     -131072,DU
         3 007674   200345 756100                    STQ     ODDFLAG,,AUTO

     1433     4713    4                 XSTVEC = VECTOR(XSTBUF);

   4713  3 007675   000344 237000 4                  LDAQ    228
         3 007676   200302 757100                    STAQ    XSTVEC,,AUTO

     1434     4714    4                 XSTVEC.BOUND = POFFC(XST$,ADDR(XSTBUF)) - 1;

   4714  3 007677   000310 236000 4                  LDQ     200
         3 007700   000020 772000                    QRL     16
         3 007701   200534 756100                    STQ     CHIP#+2,,AUTO
         3 007702   200300 236100                    LDQ     XST$,,AUTO
         3 007703   000020 772000                    QRL     16
         3 007704   200534 136100                    SBLQ    CHIP#+2,,AUTO
         3 007705   000001 136007                    SBLQ    1,DL
         3 007706   000020 736000                    QLS     16
         3 007707   200302 676100                    ERQ     XSTVEC,,AUTO
         3 007710   000034 376000 xsym               ANQ     B_VECTNIL+28
         3 007711   200302 656100                    ERSQ    XSTVEC,,AUTO
PL6.E3A0      #001=THF$RAW File=THF$FORMAT.:E05TSI                               WED 07/30/97 06:08 Page:306

     1435     4715    4                 IF ODDFLAG

   4715  3 007712   200345 234100                    SZN     ODDFLAG,,AUTO
         3 007713   007725 605000 3                  TPL     s:4717

     1436     4716    4                      THEN CALL THW$WRITE(VECTOR(ODDFMT),XSTVEC);

   4716  3 007714   200302 631500                    EPPR1   XSTVEC,,AUTO
         3 007715   200535 451500                    STP1    CHIP#+3,,AUTO
         3 007716   000354 236000 4                  LDQ     236
         3 007717   200534 756100                    STQ     CHIP#+2,,AUTO
         3 007720   200534 630500                    EPPR0   CHIP#+2,,AUTO
         3 007721   000020 631400 xsym               EPPR1   B_VECTNIL+16
         3 007722   000000 701000 xent               TSX1    THW$WRITE
         3 007723   000000 011000                    NOP     0
         3 007724   010513 710000 3                  TRA     s:4833

     1437     4717    4                      ELSE CALL THW$WRITE(VECTOR(EVENFMT),XSTVEC);

   4717  3 007725   200302 631500                    EPPR1   XSTVEC,,AUTO
         3 007726   200535 451500                    STP1    CHIP#+3,,AUTO
         3 007727   000360 236000 4                  LDQ     240
         3 007730   200534 756100                    STQ     CHIP#+2,,AUTO
         3 007731   200534 630500                    EPPR0   CHIP#+2,,AUTO
         3 007732   000020 631400 xsym               EPPR1   B_VECTNIL+16
         3 007733   000000 701000 xent               TSX1    THW$WRITE
         3 007734   000000 011000                    NOP     0

     1438     4718    4                 END;

   4718  3 007735   010513 710000 3                  TRA     s:4833

     1439     4719    3           CASE(%TH_FEPERR);

     1440     4720    4              IF NUMBYTES > 0 THEN DO;

PL6.E3A0      #001=THF$RAW File=THF$FORMAT.:E05TSI                               WED 07/30/97 06:08 Page:307
   4720  3 007736   200103 235100                    LDA     NUMBYTES,,AUTO
         3 007737   010513 600000 3                  TZE     s:4833

     1441     4721    4                 CALL THW$WRITE(VECTOR(DYMFMT));

   4721  3 007740   000364 630400 4                  EPPR0   244
         3 007741   000017 631400 xsym               EPPR1   B_VECTNIL+15
         3 007742   000000 701000 xent               TSX1    THW$WRITE
         3 007743   000000 011000                    NOP     0

     1442     4722    4                 NUMWORDS = (NUMBYTES+3)/4;

   4722  3 007744   200103 236100                    LDQ     NUMBYTES,,AUTO
         3 007745   000003 036007                    ADLQ    3,DL
         3 007746   000002 772000                    QRL     2
         3 007747   200104 756100                    STQ     NUMWORDS,,AUTO

     1443     4723    4                 CALL THF$HEXDUMP(ADDR(EL$FEPERR.X),NUMWORDS);

   4723  3 007750   200005 236100                    LDQ     INFO+1,,AUTO
         3 007751   000011 036003                    ADLQ    9,DU
         3 007752   200534 756100                    STQ     CHIP#+2,,AUTO
         3 007753   200104 630500                    EPPR0   NUMWORDS,,AUTO
         3 007754   200537 450500                    STP0    CHIP#+5,,AUTO
         3 007755   200534 631500                    EPPR1   CHIP#+2,,AUTO
         3 007756   200536 451500                    STP1    CHIP#+4,,AUTO
         3 007757   200536 630500                    EPPR0   CHIP#+4,,AUTO
         3 007760   000020 631400 xsym               EPPR1   B_VECTNIL+16
         3 007761   000000 701000 xent               TSX1    THF$HEXDUMP
         3 007762   000000 011000                    NOP     0

     1444     4724    4                 END;  /* IF NUMBYTES > 0 */

   4724  3 007763   010513 710000 3                  TRA     s:4833

     1445     4725    3           CASE(%TH_CGERR);

PL6.E3A0      #001=THF$RAW File=THF$FORMAT.:E05TSI                               WED 07/30/97 06:08 Page:308
     1446     4726    4              IF EL$CGERR.SIZ > 0 THEN DO;

   4726  3 007764   200005 471500                    LDP1    INFO+1,,AUTO
         3 007765   100015 235100                    LDA     13,,PR1
         3 007766   010513 600000 3                  TZE     s:4833

     1447     4727    4                 TH_LASTTYPE = -1;

   4727  3 007767   000001 335007                    LCA     1,DL
         3 007770   000000 755000 xsym               STA     TH_LASTTYPE

     1448     4728    4                 CALL THW$WRITE(VECTOR(INFOFMT));

   4728  3 007771   000370 630400 4                  EPPR0   248
         3 007772   000017 631400 xsym               EPPR1   B_VECTNIL+15
         3 007773   000000 701000 xent               TSX1    THW$WRITE
         3 007774   000000 011000                    NOP     0

     1449     4729    4                 CALL THF$DUMP(ADDR(EL$CGERR.INFO),EL$CGERR.SIZ);

   4729  3 007775   200005 236100                    LDQ     INFO+1,,AUTO
         3 007776   000016 036003                    ADLQ    14,DU
         3 007777   200534 756100                    STQ     CHIP#+2,,AUTO
         3 010000   200005 236100                    LDQ     INFO+1,,AUTO
         3 010001   000015 036003                    ADLQ    13,DU
         3 010002   200537 756100                    STQ     CHIP#+5,,AUTO
         3 010003   200534 630500                    EPPR0   CHIP#+2,,AUTO
         3 010004   200536 450500                    STP0    CHIP#+4,,AUTO
         3 010005   200536 630500                    EPPR0   CHIP#+4,,AUTO
         3 010006   000020 631400 xsym               EPPR1   B_VECTNIL+16
         3 010007   000000 701000 xent               TSX1    THF$DUMP
         3 010010   000000 011000                    NOP     0

     1450     4730    4                 END;  /* IF EL$CGERR.SIZ > 0 */

   4730  3 010011   010513 710000 3                  TRA     s:4833

PL6.E3A0      #001=THF$RAW File=THF$FORMAT.:E05TSI                               WED 07/30/97 06:08 Page:309
     1451     4731    3           CASE(%TH_PROCERR);

     1452     4732    3              FCBUF = ' ';

   4732  3 010012   040000 100400                    MLR     fill='040'O
         3 010013   000035 000001 xsym               ADSC9   B_VECTNIL+29             cn=0,n=1
         3 010014   003140 000454 2                  ADSC9   FCBUF                    cn=0,n=300

     1453     4733    3              FC$ = ADDR(FCBUF);

   4733  3 010015   000371 236000 4                  LDQ     249
         3 010016   200432 756100                    STQ     FC$,,AUTO

     1454     4734    3              I = 0;

   4734  3 010017   200010 450100                    STZ     I,,AUTO

     1455     4735    3              IF EL$PROCERR.FC > 21

   4735  3 010020   200005 471500                    LDP1    INFO+1,,AUTO
         3 010021   100005 236100                    LDQ     5,,PR1
         3 010022   000037 376007                    ANQ     31,DL
         3 010023   000026 116007                    CMPQ    22,DL
         3 010024   010040 602000 3                  TNC     s:4738

     1456     4736    3                 THEN CALL THF$ADD_TEXTC(FC$,'***',3);

   4736  3 010025   000100 236000 4                  LDQ     64
         3 010026   200536 756100                    STQ     CHIP#+4,,AUTO
         3 010027   000305 236000 4                  LDQ     197
         3 010030   200535 756100                    STQ     CHIP#+3,,AUTO
         3 010031   200432 633500                    EPPR3   FC$,,AUTO
         3 010032   200534 453500                    STP3    CHIP#+2,,AUTO
         3 010033   200534 630500                    EPPR0   CHIP#+2,,AUTO
         3 010034   000021 631400 xsym               EPPR1   B_VECTNIL+17
         3 010035   000000 701000 xent               TSX1    THF$ADD_TEXTC
         3 010036   000000 011000                    NOP     0
PL6.E3A0      #001=THF$RAW File=THF$FORMAT.:E05TSI                               WED 07/30/97 06:08 Page:310
         3 010037   010064 710000 3                  TRA     s:4743

     1457     4737    4                 ELSE DO;

     1458     4738    4                      I = EL$PROCERR.FC;

   4738  3 010040   200010 756100                    STQ     I,,AUTO

     1459     4739    4                      FC_TEXT = FC.TEXT(I);

   4739  3 010041   000044 402007                    MPY     36,DL
         3 010042   040100 100406                    MLR     fill='040'O
         3 010043   000000 200041 xsym               ADSC9   FC,Q                     cn=1,n=33
         3 010044   200436 000045                    ADSC9   FC_TEXT,,AUTO            cn=0,n=37

     1460     4740    4                      FC_CNT = FC.COUNT(I);

   4740  3 010045   200010 236100                    LDQ     I,,AUTO
         3 010046   000011 402007                    MPY     9,DL
         3 010047   000000 236006 xsym               LDQ     FC,QL
         3 010050   000033 772000                    QRL     27
         3 010051   200450 756100                    STQ     FC_CNT,,AUTO

     1461     4741    4                      CALL THF$ADD_TEXTC(FC$,FC_TEXT,FC_CNT);

   4741  3 010052   200450 633500                    EPPR3   FC_CNT,,AUTO
         3 010053   200536 453500                    STP3    CHIP#+4,,AUTO
         3 010054   200436 634500                    EPPR4   FC_TEXT,,AUTO
         3 010055   200535 454500                    STP4    CHIP#+3,,AUTO
         3 010056   200432 635500                    EPPR5   FC$,,AUTO
         3 010057   200534 455500                    STP5    CHIP#+2,,AUTO
         3 010060   200534 630500                    EPPR0   CHIP#+2,,AUTO
         3 010061   000021 631400 xsym               EPPR1   B_VECTNIL+17
         3 010062   000000 701000 xent               TSX1    THF$ADD_TEXTC
         3 010063   000000 011000                    NOP     0

     1462     4742    4                      END;
PL6.E3A0      #001=THF$RAW File=THF$FORMAT.:E05TSI                               WED 07/30/97 06:08 Page:311

     1463     4743    3              FCVEC = VECTOR(FCBUF);

   4743  3 010064   000372 237000 4                  LDAQ    250
         3 010065   200434 757100                    STAQ    FCVEC,,AUTO

     1464     4744    3              FCVEC.BOUND = POFFC(FC$,ADDR(FCBUF)) - 1;

   4744  3 010066   000371 236000 4                  LDQ     249
         3 010067   000020 772000                    QRL     16
         3 010070   200534 756100                    STQ     CHIP#+2,,AUTO
         3 010071   200432 236100                    LDQ     FC$,,AUTO
         3 010072   000020 772000                    QRL     16
         3 010073   200534 136100                    SBLQ    CHIP#+2,,AUTO
         3 010074   000001 136007                    SBLQ    1,DL
         3 010075   000020 736000                    QLS     16
         3 010076   200434 676100                    ERQ     FCVEC,,AUTO
         3 010077   000034 376000 xsym               ANQ     B_VECTNIL+28
         3 010100   200434 656100                    ERSQ    FCVEC,,AUTO

     1465     4745    3              CALL THW$WRITE(VECTOR(FCFMT),FCVEC);

   4745  3 010101   200434 630500                    EPPR0   FCVEC,,AUTO
         3 010102   200535 450500                    STP0    CHIP#+3,,AUTO
         3 010103   000376 236000 4                  LDQ     254
         3 010104   200534 756100                    STQ     CHIP#+2,,AUTO
         3 010105   200534 630500                    EPPR0   CHIP#+2,,AUTO
         3 010106   000020 631400 xsym               EPPR1   B_VECTNIL+16
         3 010107   000000 701000 xent               TSX1    THW$WRITE
         3 010110   000000 011000                    NOP     0

     1466     4746    3              FCBUF = ' ';

   4746  3 010111   040000 100400                    MLR     fill='040'O
         3 010112   000035 000001 xsym               ADSC9   B_VECTNIL+29             cn=0,n=1
         3 010113   003140 000454 2                  ADSC9   FCBUF                    cn=0,n=300

PL6.E3A0      #001=THF$RAW File=THF$FORMAT.:E05TSI                               WED 07/30/97 06:08 Page:312
     1467     4747    3              FC$ = ADDR(FCBUF);

   4747  3 010114   000371 236000 4                  LDQ     249
         3 010115   200432 756100                    STQ     FC$,,AUTO

     1468     4748    3              CALL THF$ADD_TEXTC(FC$,'   ',3);

   4748  3 010116   000100 236000 4                  LDQ     64
         3 010117   200536 756100                    STQ     CHIP#+4,,AUTO
         3 010120   000304 236000 4                  LDQ     196
         3 010121   200535 756100                    STQ     CHIP#+3,,AUTO
         3 010122   200432 630500                    EPPR0   FC$,,AUTO
         3 010123   200534 450500                    STP0    CHIP#+2,,AUTO
         3 010124   200534 630500                    EPPR0   CHIP#+2,,AUTO
         3 010125   000021 631400 xsym               EPPR1   B_VECTNIL+17
         3 010126   000000 701000 xent               TSX1    THF$ADD_TEXTC
         3 010127   000000 011000                    NOP     0

     1469     4749    3              I = 0;

   4749  3 010130   200010 450100                    STZ     I,,AUTO

     1470     4750    3              N = 0;

   4750  3 010131   200344 450100                    STZ     N,,AUTO

     1471     4751    3              FCFLAG = 0;

   4751  3 010132   200456 450100                    STZ     FCFLAG,,AUTO

     1472     4752    3              IF EL$PROCERR.PROCTYPE = %L66  OR

   4752  3 010133   200005 470500                    LDP0    INFO+1,,AUTO
         3 010134   000005 236100                    LDQ     5,,PR0
         3 010135   000740 316007                    CANQ    480,DL
         3 010136   010145 600000 3                  TZE     s:4756
         3 010137   000005 236100                    LDQ     5,,PR0
PL6.E3A0      #001=THF$RAW File=THF$FORMAT.:E05TSI                               WED 07/30/97 06:08 Page:313
         3 010140   000740 376007                    ANQ     480,DL
         3 010141   000040 116007                    CMPQ    32,DL
         3 010142   010145 600000 3                  TZE     s:4756
         3 010143   000100 116007                    CMPQ    64,DL
         3 010144   010370 601000 3                  TNZ     s:4802

     1473     4753    3                 EL$PROCERR.PROCTYPE = %DPSE OR
     1474     4754    3                 EL$PROCERR.PROCTYPE = %ELS1
     1475     4755    4                  THEN DO;

     1476     4756    4                      I = EL$PROCERR.PROCTYPE;

   4756  3 010145   000005 236100                    LDQ     5,,PR0
         3 010146   000005 772000                    QRL     5
         3 010147   000017 376007                    ANQ     15,DL
         3 010150   200010 756100                    STQ     I,,AUTO

     1477     4757    4                      FCPTR$ = FLTREG_TYPE.SUB$(I);

   4757  3 010151   200010 235100                    LDA     I,,AUTO
         3 010152   000001 735000                    ALS     1
         3 010153   000000 236005 xsym               LDQ     FLTREG_TYPE,AL
         3 010154   200451 756100                    STQ     FCPTR$,,AUTO

     1478     4758    4                      J = FLTREG_TYPE.COUNT(I);

   4758  3 010155   000001 236005 xsym               LDQ     FLTREG_TYPE+1,AL
         3 010156   000033 772000                    QRL     27
         3 010157   200100 756100                    STQ     J,,AUTO

     1479     4759    4                      FLT_REG = EL$PROCERR.FLTREG;

   4759  3 010160   000100 100500                    MLR     fill='000'O
         3 010161   000002 000010                    ADSC9   2,,PR0                   cn=0,n=8
         3 010162   200452 000010                    ADSC9   FLT_REG,,AUTO            cn=0,n=8

     1480     4760    5                      DO I = 0 TO J;
PL6.E3A0      #001=THF$RAW File=THF$FORMAT.:E05TSI                               WED 07/30/97 06:08 Page:314

   4760  3 010163   200010 450100                    STZ     I,,AUTO
         3 010164   010364 710000 3                  TRA     s:4800+1

     1481     4761    5                         IF FCTBL.CODE(I) > 16 AND FCFLAG = 0

   4761  3 010165   200010 236100                    LDQ     I,,AUTO
         3 010166   000012 402007                    MPY     10,DL
         3 010167   200451 470500                    LDP0    FCPTR$,,AUTO
         3 010170   000000 236106                    LDQ     0,QL,PR0
         3 010171   777000 376003                    ANQ     -512,DU
         3 010172   021000 116003                    CMPQ    8704,DU
         3 010173   010322 602000 3                  TNC     s:4793
         3 010174   200456 235100                    LDA     FCFLAG,,AUTO
         3 010175   010322 601000 3                  TNZ     s:4793

     1482     4762    6                           THEN DO;

     1483     4763    6                                IF EL$PROCERR.PROCTYPE = %ELS1

   4763  3 010176   200005 471500                    LDP1    INFO+1,,AUTO
         3 010177   100005 236100                    LDQ     5,,PR1
         3 010200   000740 376007                    ANQ     480,DL
         3 010201   000100 116007                    CMPQ    64,DL
         3 010202   010206 601000 3                  TNZ     s:4765

     1484     4764    6                                  THEN JJ = 5;

   4764  3 010203   000005 235007                    LDA     5,DL
         3 010204   200455 755100                    STA     JJ,,AUTO
         3 010205   010210 710000 3                  TRA     s:4766

     1485     4765    6                                  ELSE JJ = 7;

   4765  3 010206   000007 235007                    LDA     7,DL
         3 010207   200455 755100                    STA     JJ,,AUTO

PL6.E3A0      #001=THF$RAW File=THF$FORMAT.:E05TSI                               WED 07/30/97 06:08 Page:315
     1486     4766    7                                DO II = 4 TO JJ;

   4766  3 010210   000004 235007                    LDA     4,DL
         3 010211   200454 755100                    STA     II,,AUTO
         3 010212   010317 710000 3                  TRA     s:4791+3

     1487     4767    7                                   BIT_CNT = BITBIN(FLT_REG_TT(II));

   4767  3 010213   200454 235100                    LDA     II,,AUTO
         3 010214   000002 735000                    ALS     2
         3 010215   003100 061505                    CSR     bolr='003'O
         3 010216   200452 000004                    BDSC    FLT_REG,A,AUTO           by=0,bit=0,n=4
         3 010217   200534 000044                    BDSC    CHIP#+2,,AUTO            by=0,bit=0,n=36
         3 010220   200534 236100                    LDQ     CHIP#+2,,AUTO
         3 010221   200457 756100                    STQ     BIT_CNT,,AUTO

     1488     4768    7                                   IF BIT_CNT = 0

   4768  3 010222   010312 600000 3                  TZE     NON_CODE

     1489     4769    7                                   THEN GOTO NON_CODE;
     1490     4770    8                                   ELSE DO;

     1491     4771    9                                   DO CASE(II);

   4771  3 010223   200454 235100                    LDA     II,,AUTO
         3 010224   000004 135007                    SBLA    4,DL
         3 010225   000004 115007                    CMPA    4,DL
         3 010226   010230 602005 3                  TNC     s:4771+5,AL
         3 010227   010253 710000 3                  TRA     s:4781
         3 010230   010234 710000 3                  TRA     s:4773
         3 010231   010240 710000 3                  TRA     s:4775
         3 010232   010244 710000 3                  TRA     s:4777
         3 010233   010250 710000 3                  TRA     s:4779

     1492     4772    9                                      CASE(4);

PL6.E3A0      #001=THF$RAW File=THF$FORMAT.:E05TSI                               WED 07/30/97 06:08 Page:316
     1493     4773    9                                       CALL INSERT(FC_TEXT,0,7,'PORT A ');

   4773  3 010234   040100 100400                    MLR     fill='040'O
         3 010235   001762 000007 1                  ADSC9   BOARD_64K+563            cn=0,n=7
         3 010236   200436 000007                    ADSC9   FC_TEXT,,AUTO            cn=0,n=7
         3 010237   010253 710000 3                  TRA     s:4781

     1494     4774    9                                      CASE(5);

     1495     4775    9                                       CALL INSERT(FC_TEXT,0,7,'PORT B ');

   4775  3 010240   040100 100400                    MLR     fill='040'O
         3 010241   001764 000007 1                  ADSC9   BOARD_64K+565            cn=0,n=7
         3 010242   200436 000007                    ADSC9   FC_TEXT,,AUTO            cn=0,n=7
         3 010243   010253 710000 3                  TRA     s:4781

     1496     4776    9                                      CASE(6);

     1497     4777    9                                       CALL INSERT(FC_TEXT,0,7,'PORT C ');

   4777  3 010244   040100 100400                    MLR     fill='040'O
         3 010245   001766 000007 1                  ADSC9   BOARD_64K+567            cn=0,n=7
         3 010246   200436 000007                    ADSC9   FC_TEXT,,AUTO            cn=0,n=7
         3 010247   010253 710000 3                  TRA     s:4781

     1498     4778    9                                      CASE(7);

     1499     4779    9                                       CALL INSERT(FC_TEXT,0,7,'PORT D ');

   4779  3 010250   040100 100400                    MLR     fill='040'O
         3 010251   001770 000007 1                  ADSC9   BOARD_64K+569            cn=0,n=7
         3 010252   200436 000007                    ADSC9   FC_TEXT,,AUTO            cn=0,n=7

     1500     4780    9                                   END;  /* do case */

     1501     4781    8                                   FC_CNT = 7;

PL6.E3A0      #001=THF$RAW File=THF$FORMAT.:E05TSI                               WED 07/30/97 06:08 Page:317
   4781  3 010253   000007 235007                    LDA     7,DL
         3 010254   200450 755100                    STA     FC_CNT,,AUTO

     1502     4782    8                                    CALL INSERT(FC_TEXT,FC_CNT,

   4782  3 010255   000012 402007                    MPY     10,DL
         3 010256   000000 236006 xsym               LDQ     ILL_CODE,QL
         3 010257   000033 772000                    QRL     27
         3 010260   000000 620006                    EAX0    0,QL
         3 010261   200457 236100                    LDQ     BIT_CNT,,AUTO
         3 010262   000050 402007                    MPY     40,DL
         3 010263   200450 235100                    LDA     FC_CNT,,AUTO
         3 010264   040145 100406                    MLR     fill='040'O
         3 010265   000000 200045 xsym               ADSC9   ILL_CODE,Q               cn=1,n=37
         3 010266   200436 000010                    ADSC9   FC_TEXT,A,AUTO           cn=0,n=*X0

     1503     4783    8                                                ILL_CODE.COUNT(BIT_CNT),
     1504     4784    8                                                ILL_CODE.TEXT(BIT_CNT));
     1505     4785    8                                    FC_CNT = FC_CNT+ILL_CODE.COUNT(BIT_CNT);

   4785  3 010267   200457 236100                    LDQ     BIT_CNT,,AUTO
         3 010270   000012 402007                    MPY     10,DL
         3 010271   000000 236006 xsym               LDQ     ILL_CODE,QL
         3 010272   000033 772000                    QRL     27
         3 010273   200450 036100                    ADLQ    FC_CNT,,AUTO
         3 010274   200450 756100                    STQ     FC_CNT,,AUTO

     1506     4786    8                                    CALL THF$ADD_TEXTC(FC$,FC_TEXT,FC_CNT);

   4786  3 010275   200450 630500                    EPPR0   FC_CNT,,AUTO
         3 010276   200536 450500                    STP0    CHIP#+4,,AUTO
         3 010277   200436 631500                    EPPR1   FC_TEXT,,AUTO
         3 010300   200535 451500                    STP1    CHIP#+3,,AUTO
         3 010301   200432 633500                    EPPR3   FC$,,AUTO
         3 010302   200534 453500                    STP3    CHIP#+2,,AUTO
         3 010303   200534 630500                    EPPR0   CHIP#+2,,AUTO
         3 010304   000021 631400 xsym               EPPR1   B_VECTNIL+17
PL6.E3A0      #001=THF$RAW File=THF$FORMAT.:E05TSI                               WED 07/30/97 06:08 Page:318
         3 010305   000000 701000 xent               TSX1    THF$ADD_TEXTC
         3 010306   000000 011000                    NOP     0

     1507     4787    8                                    N = N + 1;

   4787  3 010307   200344 235100                    LDA     N,,AUTO
         3 010310   000001 035007                    ADLA    1,DL
         3 010311   200344 755100                    STA     N,,AUTO

     1508     4788    8                                   END;  /* else do */

     1509     4789    7                NON_CODE:
     1510     4790    7                                    FCFLAG = 1;

   4790  3 010312   000001 235007       NON_CODE     LDA     1,DL
         3 010313   200456 755100                    STA     FCFLAG,,AUTO

     1511     4791    7                                 END;        /*  OF DO II = ... */

   4791  3 010314   200454 236100                    LDQ     II,,AUTO
         3 010315   000001 036007                    ADLQ    1,DL
         3 010316   200454 756100                    STQ     II,,AUTO
         3 010317   200455 236100                    LDQ     JJ,,AUTO
         3 010320   200454 116100                    CMPQ    II,,AUTO
         3 010321   010213 603000 3                  TRC     s:4767

     1512     4792    6                                 END;        /*  OF THEN DO     */

     1513     4793    5                      IF FLT_REG_T(FCTBL.CODE(I))

   4793  3 010322   200010 236100                    LDQ     I,,AUTO
         3 010323   000012 402007                    MPY     10,DL
         3 010324   200451 470500                    LDP0    FCPTR$,,AUTO
         3 010325   000000 236106                    LDQ     0,QL,PR0
         3 010326   000033 772000                    QRL     27
         3 010327   000000 066506                    CMPB    filb='0'B
         3 010330   200452 000001                    BDSC    FLT_REG,Q,AUTO           by=0,bit=0,n=1
PL6.E3A0      #001=THF$RAW File=THF$FORMAT.:E05TSI                               WED 07/30/97 06:08 Page:319
         3 010331   000002 000022 xsym               BDSC    B_VECTNIL+2              by=0,bit=0,n=18
         3 010332   010363 600000 3                  TZE     s:4800

     1514     4794    6                         THEN DO;

     1515     4795    6                              FC_TEXT = FCTBL.TEXT(I);

   4795  3 010333   200010 236100                    LDQ     I,,AUTO
         3 010334   000050 402007                    MPY     40,DL
         3 010335   040100 100506                    MLR     fill='040'O
         3 010336   000000 400045                    ADSC9   0,Q,PR0                  cn=2,n=37
         3 010337   200436 000045                    ADSC9   FC_TEXT,,AUTO            cn=0,n=37

     1516     4796    6                              FC_CNT = FCTBL.COUNT(I);

   4796  3 010340   200010 236100                    LDQ     I,,AUTO
         3 010341   000012 402007                    MPY     10,DL
         3 010342   000000 236106                    LDQ     0,QL,PR0
         3 010343   000022 772000                    QRL     18
         3 010344   000777 376007                    ANQ     511,DL
         3 010345   200450 756100                    STQ     FC_CNT,,AUTO

     1517     4797    6                              CALL THF$ADD_TEXTC(FC$,FC_TEXT,FC_CNT);

   4797  3 010346   200450 631500                    EPPR1   FC_CNT,,AUTO
         3 010347   200536 451500                    STP1    CHIP#+4,,AUTO
         3 010350   200436 633500                    EPPR3   FC_TEXT,,AUTO
         3 010351   200535 453500                    STP3    CHIP#+3,,AUTO
         3 010352   200432 634500                    EPPR4   FC$,,AUTO
         3 010353   200534 454500                    STP4    CHIP#+2,,AUTO
         3 010354   200534 630500                    EPPR0   CHIP#+2,,AUTO
         3 010355   000021 631400 xsym               EPPR1   B_VECTNIL+17
         3 010356   000000 701000 xent               TSX1    THF$ADD_TEXTC
         3 010357   000000 011000                    NOP     0

     1518     4798    6                              N = N +1;

PL6.E3A0      #001=THF$RAW File=THF$FORMAT.:E05TSI                               WED 07/30/97 06:08 Page:320
   4798  3 010360   200344 235100                    LDA     N,,AUTO
         3 010361   000001 035007                    ADLA    1,DL
         3 010362   200344 755100                    STA     N,,AUTO

     1519     4799    6                              END;

     1520     4800    5                    END;         /*  OF DO I = ... */

   4800  3 010363   200010 054100                    AOS     I,,AUTO
         3 010364   200100 236100                    LDQ     J,,AUTO
         3 010365   010165 604000 3                  TMI     s:4761
         3 010366   200010 116100                    CMPQ    I,,AUTO
         3 010367   010165 605000 3                  TPL     s:4761

     1521     4801    4                      END;                /* OF THEN DO */

     1522     4802    3               IF N > 0

   4802  3 010370   200344 235100                    LDA     N,,AUTO
         3 010371   010420 600000 3                  TZE     s:4809

     1523     4803    4                 THEN DO;

     1524     4804    4                      ADDR(FCBUF) -> FC_TEMP.N = N;

   4804  3 010372   003140 755000 2                  STA     FCBUF

     1525     4805    4                      FCVEC = VECTOR(FCBUF);

   4805  3 010373   000372 237000 4                  LDAQ    250
         3 010374   200434 757100                    STAQ    FCVEC,,AUTO

     1526     4806    4                      FCVEC.BOUND = POFFC(FC$,ADDR(FCBUF)) - 1;

   4806  3 010375   000371 236000 4                  LDQ     249
         3 010376   000020 772000                    QRL     16
         3 010377   200534 756100                    STQ     CHIP#+2,,AUTO
PL6.E3A0      #001=THF$RAW File=THF$FORMAT.:E05TSI                               WED 07/30/97 06:08 Page:321
         3 010400   200432 236100                    LDQ     FC$,,AUTO
         3 010401   000020 772000                    QRL     16
         3 010402   200534 136100                    SBLQ    CHIP#+2,,AUTO
         3 010403   000001 136007                    SBLQ    1,DL
         3 010404   000020 736000                    QLS     16
         3 010405   200434 676100                    ERQ     FCVEC,,AUTO
         3 010406   000034 376000 xsym               ANQ     B_VECTNIL+28
         3 010407   200434 656100                    ERSQ    FCVEC,,AUTO

     1527     4807    4                      CALL THW$WRITE(VECTOR(FRFMT),FCVEC);

   4807  3 010410   200434 630500                    EPPR0   FCVEC,,AUTO
         3 010411   200535 450500                    STP0    CHIP#+3,,AUTO
         3 010412   000402 236000 4                  LDQ     258
         3 010413   200534 756100                    STQ     CHIP#+2,,AUTO
         3 010414   200534 630500                    EPPR0   CHIP#+2,,AUTO
         3 010415   000020 631400 xsym               EPPR1   B_VECTNIL+16
         3 010416   000000 701000 xent               TSX1    THW$WRITE
         3 010417   000000 011000                    NOP     0

     1528     4808    4                      END;

     1529     4809    3              IF EL$PROCERR.FC = 9       /* PARITY FAULT                          */

   4809  3 010420   200005 470500                    LDP0    INFO+1,,AUTO
         3 010421   000005 236100                    LDQ     5,,PR0
         3 010422   000037 376007                    ANQ     31,DL
         3 010423   000011 116007                    CMPQ    9,DL
         3 010424   010437 601000 3                  TNZ     s:4816

     1530     4810    4              THEN DO;

     1531     4811    4                 TH_LASTTYPE = -1;

   4811  3 010425   000001 335007                    LCA     1,DL
         3 010426   000000 755000 xsym               STA     TH_LASTTYPE

PL6.E3A0      #001=THF$RAW File=THF$FORMAT.:E05TSI                               WED 07/30/97 06:08 Page:322
     1532     4812    4                 CALL THF$CSHERR;

   4812  3 010427   000002 631400 xsym               EPPR1   B_VECTNIL+2
         3 010430   000000 701000 xent               TSX1    THF$CSHERR
         3 010431   000000 011000                    NOP     0

     1533     4813    4                 IF EL$PROCERR.SAFESTORE.CSHERR ~= '0'B

   4813  3 010432   200005 470500                    LDP0    INFO+1,,AUTO
         3 010433   000000 106500                    CMPC    fill='000'O
         3 010434   000102 000030                    ADSC9   66,,PR0                  cn=0,n=24
         3 010435   000002 000002 xsym               ADSC9   B_VECTNIL+2              cn=0,n=2
         3 010436   010512 601000 3                  TNZ     PROCERR_DONE

     1534     4814    4                 THEN GOTO PROCERR_DONE;
     1535     4815    4                 END;

     1536     4816    3              IF EL$PROCERR.SSSIZE > 0

   4816  3 010437   000011 220100                    LDX0    9,,PR0
         3 010440   010512 600000 3                  TZE     PROCERR_DONE

     1537     4817    4              THEN DO;

     1538     4818    4                 TH_LASTTYPE = -1;

   4818  3 010441   000001 335007                    LCA     1,DL
         3 010442   000000 755000 xsym               STA     TH_LASTTYPE

     1539     4819    4                 CALL THW$WRITE(VECTOR(PROCERR_SS));

   4819  3 010443   000406 630400 4                  EPPR0   262
         3 010444   000017 631400 xsym               EPPR1   B_VECTNIL+15
         3 010445   000000 701000 xent               TSX1    THW$WRITE
         3 010446   000000 011000                    NOP     0

     1540     4820    4                 I = EL$PROCERR.SSSIZE;
PL6.E3A0      #001=THF$RAW File=THF$FORMAT.:E05TSI                               WED 07/30/97 06:08 Page:323

   4820  3 010447   200005 470500                    LDP0    INFO+1,,AUTO
         3 010450   000011 236100                    LDQ     9,,PR0
         3 010451   000022 772000                    QRL     18
         3 010452   200010 756100                    STQ     I,,AUTO

     1541     4821    4                 CALL THF$DUMP(ADDR(EL$PROCERR.SAFESTORE),I,'1'B);

   4821  3 010453   200005 236100                    LDQ     INFO+1,,AUTO
         3 010454   000012 036003                    ADLQ    10,DU
         3 010455   200534 756100                    STQ     CHIP#+2,,AUTO
         3 010456   000407 236000 4                  LDQ     263
         3 010457   200537 756100                    STQ     CHIP#+5,,AUTO
         3 010460   200010 631500                    EPPR1   I,,AUTO
         3 010461   200536 451500                    STP1    CHIP#+4,,AUTO
         3 010462   200534 633500                    EPPR3   CHIP#+2,,AUTO
         3 010463   200535 453500                    STP3    CHIP#+3,,AUTO
         3 010464   200535 630500                    EPPR0   CHIP#+3,,AUTO
         3 010465   000021 631400 xsym               EPPR1   B_VECTNIL+17
         3 010466   000000 701000 xent               TSX1    THF$DUMP
         3 010467   000000 011000                    NOP     0

     1542     4822    4                 IF EL$PROCERR.HRSIZE > 0

   4822  3 010470   200005 470500                    LDP0    INFO+1,,AUTO
         3 010471   000011 720100                    LXL0    9,,PR0
         3 010472   010512 600000 3                  TZE     PROCERR_DONE

     1543     4823    5                 THEN DO;

     1544     4824    5                    I = EL$PROCERR.PROCTYPE;

   4824  3 010473   000005 236100                    LDQ     5,,PR0
         3 010474   000005 772000                    QRL     5
         3 010475   000017 376007                    ANQ     15,DL
         3 010476   200010 756100                    STQ     I,,AUTO

PL6.E3A0      #001=THF$RAW File=THF$FORMAT.:E05TSI                               WED 07/30/97 06:08 Page:324
     1545     4825    5                    CALL THF$HISTORY(ADDR(EL$PROCERR.HISTREGS),I);

   4825  3 010477   200005 236100                    LDQ     INFO+1,,AUTO
         3 010500   000112 036003                    ADLQ    74,DU
         3 010501   200534 756100                    STQ     CHIP#+2,,AUTO
         3 010502   200010 631500                    EPPR1   I,,AUTO
         3 010503   200537 451500                    STP1    CHIP#+5,,AUTO
         3 010504   200534 633500                    EPPR3   CHIP#+2,,AUTO
         3 010505   200536 453500                    STP3    CHIP#+4,,AUTO
         3 010506   200536 630500                    EPPR0   CHIP#+4,,AUTO
         3 010507   000020 631400 xsym               EPPR1   B_VECTNIL+16
         3 010510   000000 701000 xent               TSX1    THF$HISTORY
         3 010511   000000 011000                    NOP     0

     1546     4826    5                    END;

     1547     4827    4                 END;

   4823  3 010512   010513 710000 3     PROCERR_DONE TRA     s:4833

     1548     4828    3   PROCERR_DONE: ;
     1549     4829    3           CASE(ELSE);

     1550     4830                   /* DO NOTHING */
     1551     4831    3           END;  /* do case */

     1552     4832    2        END; /* else do */

     1553     4833    1        RETURN;

   4833  3 010513   000000 702200 xent               TSX2  ! X66_ARET

     1554     4834        %EJECT;
PL6.E3A0      #001=THF$RAW File=THF$FORMAT.:E05TSI                               WED 07/30/97 06:08 Page:325
     1555     4835    1   BUILDTIME: PROC(UTS);

   4835  3 010514   200524 741300       BUILDTIME    STX1  ! NINE_TRACK_BLNK+8,,AUTO

     1556     4836    2   DCL UTS UBIN UNAL;
     1557     4837    2   DCL TSTAMP UBIN;
     1558     4838        %FPT_TIME (SOURCE=UTS,DEST=LOCAL);
     1559     4857    2   DCL 1 TBUF BASED(TEXT$),
     1560     4858    2           2 N UBIN BYTE UNAL,
     1561     4859    2           2 TIME CHAR(5),
     1562     4860    2           2 * CHAR(1),
     1563     4861    2           2 DATE CHAR(8);
     1564     4862        /**/
     1565     4863    2           TBUF.N=14;

   4863  3 010515   200210 470500                    LDP0    TEXT$,,AUTO
         3 010516   000100 101400                    MRL     fill='000'O
         3 010517   000016 000004 4                  ADSC9   14                       cn=0,n=4
         3 010520   000000 000001                    ADSC9   0,,PR0                   cn=0,n=1

     1566     4864    2           FPT_TIME.TIME_=VECTOR(TBUF.TIME);

   4864  3 010521   000410 235000 4                  LDA     264
         3 010522   200210 236100                    LDQ     TEXT$,,AUTO
         3 010523   200000 036007                    ADLQ    65536,DL
         3 010524   007632 757000 2                  STAQ    FPT_TIME+4

     1567     4865    2           FPT_TIME.DATE_=VECTOR(TBUF.DATE);

   4865  3 010525   000002 235000 4                  LDA     2
         3 010526   200210 236100                    LDQ     TEXT$,,AUTO
         3 010527   000411 036000 4                  ADLQ    265
         3 010530   007630 757000 2                  STAQ    FPT_TIME+2

     1568     4866    2           FPT_TIME.TSTAMP_=VECTOR(TSTAMP);

   4866  3 010531   777640 235007                    LDA     -96,DL
PL6.E3A0      #001=THF$RAW File=THF$FORMAT.:E05TSI                               WED 07/30/97 06:08 Page:326
         3 010532   200534 452500                    STP2    CHIP#+2,,AUTO
         3 010533   200534 236100                    LDQ     CHIP#+2,,AUTO
         3 010534   000526 036003                    ADLQ    342,DU
         3 010535   007636 757000 2                  STAQ    FPT_TIME+8

     1569     4867    2           TSTAMP=UTS;

   4867  3 010536   200525 470500                    LDP0    @UTS,,AUTO
         3 010537   003100 060500                    CSL     bolr='003'O
         3 010540   000000 000044                    BDSC    0,,PR0                   by=0,bit=0,n=36
         3 010541   200526 000044                    BDSC    TSTAMP,,AUTO             by=0,bit=0,n=36

     1570     4868    2           CALL M$TIME(FPT_TIME);

   4868  3 010542   007626 630400 2                  EPPR0   FPT_TIME
         3 010543   020004 713400                    CLIMB   8196
         3 010544   402000 401760                    pmme    nvectors=5

     1571     4869    2           TEXT$=PINCRC(TEXT$,SIZEC(TBUF));

   4869  3 010545   200210 236100                    LDQ     TEXT$,,AUTO
         3 010546   000412 036000 4                  ADLQ    266
         3 010547   200210 756100                    STQ     TEXT$,,AUTO

     1572     4870    2           RETURN;

   4870  3 010550   200524 221300                    LDX1  ! NINE_TRACK_BLNK+8,,AUTO
         3 010551   000001 702211                    TSX2  ! 1,X1

     1573     4871    2   END BUILDTIME;
     1574     4872        %EJECT;
PL6.E3A0      #001=THF$RAW File=THF$FORMAT.:E05TSI                               WED 07/30/97 06:08 Page:327
     1575     4873    1   ADD_TEXTC: PROC(TXT,SIZ);

   4873  3 010552   200526 741300       ADD_TEXTC    STX1  ! TSTAMP,,AUTO

     1576     4874    2   DCL TXT CHAR(SIZ);
     1577     4875    2   DCL SIZ SBIN;
     1578     4876    2   DCL 1 TBUF BASED(TEXT$),
     1579     4877    2           2 N UBIN BYTE UNAL,
     1580     4878    2           2 C CHAR(SIZ);
     1581     4879        /**/
     1582     4880    2           TBUF.N=SIZ;

   4880  3 010553   200530 470500                    LDP0    @SIZ,,AUTO
         3 010554   200210 471500                    LDP1    TEXT$,,AUTO
         3 010555   000100 101500                    MRL     fill='000'O
         3 010556   000000 000004                    ADSC9   0,,PR0                   cn=0,n=4
         3 010557   100000 000001                    ADSC9   0,,PR1                   cn=0,n=1

     1583     4881    2           TBUF.C=TXT;

   4881  3 010560   000000 720100                    LXL0    0,,PR0
         3 010561   200527 471500                    LDP1    @TXT,,AUTO
         3 010562   200210 473500                    LDP3    TEXT$,,AUTO
         3 010563   040140 100540                    MLR     fill='040'O
         3 010564   100000 000010                    ADSC9   0,,PR1                   cn=0,n=*X0
         3 010565   300000 200010                    ADSC9   0,,PR3                   cn=1,n=*X0

     1584     4882    2           TEXT$=PINCRC(TEXT$,SIZ+1);

   4882  3 010566   000000 236100                    LDQ     0,,PR0
         3 010567   000020 736000                    QLS     16
         3 010570   200000 036007                    ADLQ    65536,DL
         3 010571   200210 036100                    ADLQ    TEXT$,,AUTO
         3 010572   200210 756100                    STQ     TEXT$,,AUTO

     1585     4883    2           RETURN;

PL6.E3A0      #001=THF$RAW File=THF$FORMAT.:E05TSI                               WED 07/30/97 06:08 Page:328
   4883  3 010573   200526 221300                    LDX1  ! TSTAMP,,AUTO
         3 010574   000001 702211                    TSX2  ! 1,X1

     1586     4884    2   END ADD_TEXTC;
     1587     4885        %EJECT;
PL6.E3A0      #001=THF$RAW File=THF$FORMAT.:E05TSI                               WED 07/30/97 06:08 Page:329
     1588     4886    1   ERROR_CODE: PROC(ERR);

   4886  3 010575   200526 741300       ERROR_CODE   STX1  ! TSTAMP,,AUTO

     1589     4887    2   DCL 1 ERR UNAL,
     1590     4888    2           2 FCG(0:2) UBIN(6) UNAL,
     1591     4889    2           2 MON BIT(1),
     1592     4890    2           2 CODE UBIN(14) UNAL,
     1593     4891    2           2 SEV UBIN(3) UNAL;
     1594     4892    2   DCL 1 TBUF BASED(TEXT$),
     1595     4893    2           2 N UBIN BYTE UNAL,
     1596     4894    2           2 C CHAR(12),
     1597     4895    2           2 C_ARRAY(0:11) REDEF C CHAR(1) UNAL,
     1598     4896    2           2 C_UBIN(0:11) REDEF C UBIN(9) UNAL;
     1599     4897    2   DCL I SBIN;
     1600     4898        /**/
     1601     4899    3           DO I=0 TO 2;

   4899  3 010576   200530 450100                    STZ     I,,AUTO

     1602     4900    3              IF ERR.FCG(I) = 0

   4900  3 010577   200530 236100                    LDQ     I,,AUTO
         3 010600   000006 402007                    MPY     6,DL
         3 010601   000000 116003                    CMPQ    0,DU
         3 010602   010604 605000 3                  TPL     s:4900+5
         3 010603   000044 036003                    ADLQ    36,DU
         3 010604   200527 470500                    LDP0    @ERR,,AUTO
         3 010605   003100 061506                    CSR     bolr='003'O
         3 010606   000000 000006                    BDSC    0,Q,PR0                  by=0,bit=0,n=6
         3 010607   200534 000044                    BDSC    CHIP#+2,,AUTO            by=0,bit=0,n=36
         3 010610   200534 236100                    LDQ     CHIP#+2,,AUTO
         3 010611   000000 116003                    CMPQ    0,DU
         3 010612   010621 601000 3                  TNZ     s:4902

     1603     4901    3              THEN TBUF.C_ARRAY(I) = ' ';

PL6.E3A0      #001=THF$RAW File=THF$FORMAT.:E05TSI                               WED 07/30/97 06:08 Page:330
   4901  3 010613   200210 471500                    LDP1    TEXT$,,AUTO
         3 010614   200530 235100                    LDA     I,,AUTO
         3 010615   040105 100400                    MLR     fill='040'O
         3 010616   000035 000001 xsym               ADSC9   B_VECTNIL+29             cn=0,n=1
         3 010617   100000 200001                    ADSC9   0,A,PR1                  cn=1,n=1
         3 010620   010675 710000 3                  TRA     s:4905

     1604     4902    3              ELSE IF ERR.FCG(I) < 48

   4902  3 010621   200530 236100                    LDQ     I,,AUTO
         3 010622   000006 402007                    MPY     6,DL
         3 010623   000000 116003                    CMPQ    0,DU
         3 010624   010626 605000 3                  TPL     s:4902+5
         3 010625   000044 036003                    ADLQ    36,DU
         3 010626   003100 061506                    CSR     bolr='003'O
         3 010627   000000 000006                    BDSC    0,Q,PR0                  by=0,bit=0,n=6
         3 010630   200534 000044                    BDSC    CHIP#+2,,AUTO            by=0,bit=0,n=36
         3 010631   200534 236100                    LDQ     CHIP#+2,,AUTO
         3 010632   000060 116007                    CMPQ    48,DL
         3 010633   010655 605000 3                  TPL     s:4904

     1605     4903    3                   THEN TBUF.C_UBIN(I) = ERR.FCG(I) + 64;  /*its a letter*/

   4903  3 010634   200530 236100                    LDQ     I,,AUTO
         3 010635   000006 402007                    MPY     6,DL
         3 010636   000000 116003                    CMPQ    0,DU
         3 010637   010641 605000 3                  TPL     s:4903+5
         3 010640   000044 036003                    ADLQ    36,DU
         3 010641   003100 061506                    CSR     bolr='003'O
         3 010642   000000 000006                    BDSC    0,Q,PR0                  by=0,bit=0,n=6
         3 010643   200535 000044                    BDSC    CHIP#+3,,AUTO            by=0,bit=0,n=36
         3 010644   200535 236100                    LDQ     CHIP#+3,,AUTO
         3 010645   000100 036007                    ADLQ    64,DL
         3 010646   200534 756100                    STQ     CHIP#+2,,AUTO
         3 010647   200210 471500                    LDP1    TEXT$,,AUTO
         3 010650   200530 235100                    LDA     I,,AUTO
         3 010651   000105 101500                    MRL     fill='000'O
PL6.E3A0      #001=THF$RAW File=THF$FORMAT.:E05TSI                               WED 07/30/97 06:08 Page:331
         3 010652   200534 000004                    ADSC9   CHIP#+2,,AUTO            cn=0,n=4
         3 010653   100000 200001                    ADSC9   0,A,PR1                  cn=1,n=1
         3 010654   010675 710000 3                  TRA     s:4905

     1606     4904    3                   ELSE TBUF.C_UBIN(I) = ERR.FCG(I);       /*its a number*/

   4904  3 010655   200530 236100                    LDQ     I,,AUTO
         3 010656   000006 402007                    MPY     6,DL
         3 010657   000000 116003                    CMPQ    0,DU
         3 010660   010662 605000 3                  TPL     s:4904+5
         3 010661   000044 036003                    ADLQ    36,DU
         3 010662   200534 756100                    STQ     CHIP#+2,,AUTO
         3 010663   200530 236100                    LDQ     I,,AUTO
         3 010664   000011 402007                    MPY     9,DL
         3 010665   000000 116003                    CMPQ    0,DU
         3 010666   010670 605000 3                  TPL     s:4904+11
         3 010667   000044 036003                    ADLQ    36,DU
         3 010670   200534 235100                    LDA     CHIP#+2,,AUTO
         3 010671   200210 471500                    LDP1    TEXT$,,AUTO
         3 010672   003106 061505                    CSR     bolr='003'O
         3 010673   000000 000006                    BDSC    0,A,PR0                  by=0,bit=0,n=6
         3 010674   100000 200011                    BDSC    0,Q,PR1                  by=1,bit=0,n=9

     1607     4905    3              END;

   4905  3 010675   200530 054100                    AOS     I,,AUTO
         3 010676   200530 235100                    LDA     I,,AUTO
         3 010677   000002 115007                    CMPA    2,DL
         3 010700   010577 604400 3                  TMOZ    s:4900

     1608     4906    2           CALL INSERT(TBUF.C,3,1,'-');

   4906  3 010701   200210 471500                    LDP1    TEXT$,,AUTO
         3 010702   040100 100400                    MLR     fill='040'O
         3 010703   000130 000001 4                  ADSC9   88                       cn=0,n=1
         3 010704   100001 000001                    ADSC9   1,,PR1                   cn=0,n=1

PL6.E3A0      #001=THF$RAW File=THF$FORMAT.:E05TSI                               WED 07/30/97 06:08 Page:332
     1609     4907    2           I=4;

   4907  3 010705   000004 236007                    LDQ     4,DL
         3 010706   200530 756100                    STQ     I,,AUTO

     1610     4908    3           IF ERR.MON THEN DO;

   4908  3 010707   000000 066500                    CMPB    filb='0'B
         3 010710   000000 400001                    BDSC    0,,PR0                   by=2,bit=0,n=1
         3 010711   000002 000022 xsym               BDSC    B_VECTNIL+2              by=0,bit=0,n=18
         3 010712   010721 600000 3                  TZE     s:4912

     1611     4909    3              CALL INSERT(TBUF.C,I,1,'M');

   4909  3 010713   200210 471500                    LDP1    TEXT$,,AUTO
         3 010714   040106 100400                    MLR     fill='040'O
         3 010715   000413 000001 4                  ADSC9   267                      cn=0,n=1
         3 010716   100000 200001                    ADSC9   0,Q,PR1                  cn=1,n=1

     1612     4910    3              I=5;

   4910  3 010717   000005 235007                    LDA     5,DL
         3 010720   200530 755100                    STA     I,,AUTO

     1613     4911    3              END;

     1614     4912    2           CALL BINCHAR(SUBSTR(TBUF.C,I,5),ERR.CODE);

   4912  3 010721   003100 061500                    CSR     bolr='003'O
         3 010722   000000 410016                    BDSC    0,,PR0                   by=2,bit=1,n=14
         3 010723   200534 000044                    BDSC    CHIP#+2,,AUTO            by=0,bit=0,n=36
         3 010724   200534 236100                    LDQ     CHIP#+2,,AUTO
         3 010725   000000 235003                    LDA     0,DU
         3 010726   200536 757100                    STAQ    CHIP#+4,,AUTO
         3 010727   200210 471500                    LDP1    TEXT$,,AUTO
         3 010730   200530 235100                    LDA     I,,AUTO
         3 010731   000105 301500                    BTD
PL6.E3A0      #001=THF$RAW File=THF$FORMAT.:E05TSI                               WED 07/30/97 06:08 Page:333
         3 010732   200536 000010                    NDSC9   CHIP#+4,,AUTO            cn=0,s=lsgnf,sf=0,n=8
         3 010733   100000 230005                    NDSC9   0,A,PR1                  cn=1,s=nosgn,sf=0,n=5

     1615     4913    2           CALL INSERT(TBUF.C,I+5,1,'-');

   4913  3 010734   200210 471500                    LDP1    TEXT$,,AUTO
         3 010735   040105 100400                    MLR     fill='040'O
         3 010736   000130 000001 4                  ADSC9   88                       cn=0,n=1
         3 010737   100001 400001                    ADSC9   1,A,PR1                  cn=2,n=1

     1616     4914    2           CALL BINCHAR(SUBSTR(TBUF.C,I+6,1),ERR.SEV);

   4914  3 010740   003100 061500                    CSR     bolr='003'O
         3 010741   000000 660003                    BDSC    0,,PR0                   by=3,bit=6,n=3
         3 010742   200534 000044                    BDSC    CHIP#+2,,AUTO            by=0,bit=0,n=36
         3 010743   200534 236100                    LDQ     CHIP#+2,,AUTO
         3 010744   000000 235003                    LDA     0,DU
         3 010745   200536 757100                    STAQ    CHIP#+4,,AUTO
         3 010746   200210 471500                    LDP1    TEXT$,,AUTO
         3 010747   200530 235100                    LDA     I,,AUTO
         3 010750   000105 301500                    BTD
         3 010751   200536 000010                    NDSC9   CHIP#+4,,AUTO            cn=0,s=lsgnf,sf=0,n=8
         3 010752   100001 630001                    NDSC9   1,A,PR1                  cn=3,s=nosgn,sf=0,n=1

     1617     4915    2           TBUF.N=SIZEC(TBUF.C);

   4915  3 010753   200210 471500                    LDP1    TEXT$,,AUTO
         3 010754   000100 101400                    MRL     fill='000'O
         3 010755   000414 000004 4                  ADSC9   268                      cn=0,n=4
         3 010756   100000 000001                    ADSC9   0,,PR1                   cn=0,n=1

     1618     4916    2           TEXT$=PINCRC(TEXT$,SIZEC(TBUF));

   4916  3 010757   200210 236100                    LDQ     TEXT$,,AUTO
         3 010760   000415 036000 4                  ADLQ    269
         3 010761   200210 756100                    STQ     TEXT$,,AUTO

PL6.E3A0      #001=THF$RAW File=THF$FORMAT.:E05TSI                               WED 07/30/97 06:08 Page:334
     1619     4917    2           RETURN;

   4917  3 010762   200526 221300                    LDX1  ! TSTAMP,,AUTO
         3 010763   000001 702211                    TSX2  ! 1,X1

     1620     4918    2   END ERROR_CODE;
     1621     4919        %EJECT;
PL6.E3A0      #001=THF$RAW File=THF$FORMAT.:E05TSI                               WED 07/30/97 06:08 Page:335
     1622     4920        /*    CONVERT EDAC SYNDROME NUMBER TO TEXT                            */
     1623     4921        /**/
     1624     4922    1   EDAC: PROC(STATUS$,BOARD,CHIP);

   4922  3 010764   200524 741300       EDAC         STX1  ! NINE_TRACK_BLNK+8,,AUTO

     1625     4923    2   DCL BIT_4K(0:127) SBIN BYTE CALIGNED CONSTANT SYMDEF INIT(
     1626     4924    2           19,18,17,15,16,14,13,-1,19,12,11,9,10,8,7,-1,
     1627     4925    2           18,6,5,3,4,2,1,-1,-1,0,19,-1,18,-1,-1,-1,
     1628     4926    2           17,-1,-1,17,-1,16,15,-1,-1,14,13,11,12,10,9,-1,
     1629     4927    2           -1,8,7,5,6,4,3,-1,-1,2,1,-1,0,-1,-1,-1,
     1630     4928    2           16,-1,-1,15,-1,14,13,-1,-1,12,11,9,10,8,7,-1,
     1631     4929    2           -1,6,5,3,4,2,1,-1,-1,0,19,-1,18,-1,-1,-1,
     1632     4930    2           -1,-1,-1,17,-1,16,15,-1,-1,14,13,11,12,10,9,-1,
     1633     4931    2           -1,8,7,5,6,4,3,-1,-1,2,1,-1,0,-1,-1,-1);
     1634     4932    2   DCL QUAD_4K(0:127) SBIN BYTE CALIGNED CONSTANT SYMDEF INIT(
     1635     4933    2           4,4,4,4,4,4,4,0,2,4,4,4,4,4,4,0,
     1636     4934    2           2,4,4,4,4,4,4,0,0,4,3,0,3,0,0,0,
     1637     4935    2           2,0,0,3,0,3,3,0,0,3,3,3,3,3,3,0,
     1638     4936    2           0,3,3,3,3,3,3,0,0,3,3,0,3,0,0,0,
     1639     4937    2           2,0,0,2,0,2,2,0,0,2,2,2,2,2,2,0,
     1640     4938    2           0,2,2,2,2,2,2,0,0,2,1,0,1,0,0,0,
     1641     4939    2           0,0,0,1,0,1,1,0,0,1,1,1,1,1,1,0,
     1642     4940    2           0,1,1,1,1,1,1,0,0,1,1,0,1,0,0,0);
     1643     4941    2   DCL BOARD_4K(0:3) CHAR(4) STATIC INIT(
     1644     4942    2           'ABCD','FGHJ','KLMN','QRST');
     1645     4943    2   DCL CHIP_LTTR(0:9) STATIC CHAR(1) INIT('A','B','C','D','E','G',
     1646     4944    2       'H','J','K','L');
     1647     4945    2   DCL BIT# SBIN;
     1648     4946    2   DCL QUAD# SBIN;
     1649     4947    2   DCL CHIP# CHAR(2);
     1650     4948    2   DCL BOARD CHAR(1);
     1651     4949    2   DCL CHIP CHAR(3);
     1652     4950    2   DCL STATUS$ PTR;
     1653     4951        /**/
     1654     4952    2   DCL BIT_64K (0:127) SBIN BYTE CALIGNED CONSTANT SYMDEF INIT(
     1655     4953    2         79,78,77,71,76,70,69,-1,75,68,67,
PL6.E3A0      #001=THF$RAW File=THF$FORMAT.:E05TSI                               WED 07/30/97 06:08 Page:336
     1656     4954    2         65,66,64,63,-1,74,62,61,59,60,58,
     1657     4955    2         57,-1,-1,56,55,-1,54,-1,-1,-1,73,-1,-1,53,-1,52,51,-1,-1,50,49,
     1658     4956    2         47,48,46,45,-1,-1,44,43,41,42,40,39,
     1659     4957    2         -1,-1,38,37,-1,36,-1,-1,-1,72,-1,-1,35,-1,34,33,-1,-1,32,31,29,
     1660     4958    2         30,28,27,-1,-1,26,25,23,24,22,21,-1,-1,20,
     1661     4959    2         19,-1,18,-1,-1,-1,-1,-1,-1,17,-1,16,15,-1,-1,14,13,11,12,10,
     1662     4960    2         9,-1,-1,8,7,5,6,4,3,-1,-1,2,1,-1,0,-1*0);
     1663     4961    2   DCL CHIP_64K_CHAR (0:7) CHAR(2) CALIGNED CONSTANT SYMDEF INIT(
     1664     4962    2         '01','10','19','28','37','46','55','64');
     1665     4963    2   DCL CHIP_64K_LET (0:19) CHAR(1) CALIGNED CONSTANT SYMDEF INIT(
     1666     4964    2         'A','B','C','D','E','F','G','H','J','K',
     1667     4965    2         'N','P','Q','R','S','T','U','V','W','X');
     1668     4966    2   DCL BOARD_64K (0:15) CHAR(1) CALIGNED CONSTANT SYMDEF INIT(
     1669     4967    2         'A','B','C','D','E','F','G','H',
     1670     4968    2         'J','K','L','M','N','P','Q','R');
     1671     4969        /*                                                                    */
     1672     4970        /*                                                                    */
     1673     4971        %EL$EDAC;
     1674     4980        /*                                                                    */
     1675     4981        %EJECT;
PL6.E3A0      #001=THF$RAW File=THF$FORMAT.:E05TSI                               WED 07/30/97 06:08 Page:337
     1676     4982    2           IF STATUS$->EL$EDAC.STORE_MODE.MOSID = '1010'B

   4982  3 010765   200525 470500                    LDP0    @STATUS$,,AUTO
         3 010766   000000 471500                    LDP1    0,,PR0
         3 010767   100004 236100                    LDQ     4,,PR1
         3 010770   000017 376003                    ANQ     15,DU
         3 010771   000012 116003                    CMPQ    10,DU
         3 010772   011126 600000 3                  TZE     EDAC_64K

     1677     4983    2           THEN GOTO EDAC_64K;
     1678     4984    2           BIT#=BIT_4K(STATUS$->EL$EDAC.STORE_MODE.SYNDROME.NUMB);

   4984  3 010773   100004 236100                    LDQ     4,,PR1
         3 010774   000027 772000                    QRL     23
         3 010775   000177 376007                    ANQ     127,DL
         3 010776   000100 100406                    MLR     fill='000'O
         3 010777   000526 000001 1                  ADSC9   BIT_4K,Q                 cn=0,n=1
         3 011000   200534 000004                    ADSC9   CHIP#+2,,AUTO            cn=0,n=4
         3 011001   200534 236100                    LDQ     CHIP#+2,,AUTO
         3 011002   000033 732000                    QRS     27
         3 011003   200530 756100                    STQ     BIT#,,AUTO

     1679     4985    2           QUAD#=QUAD_4K(STATUS$->EL$EDAC.STORE_MODE.SYNDROME.NUMB);

   4985  3 011004   000000 471500                    LDP1    0,,PR0
         3 011005   100004 236100                    LDQ     4,,PR1
         3 011006   000027 772000                    QRL     23
         3 011007   000177 376007                    ANQ     127,DL
         3 011010   000100 100406                    MLR     fill='000'O
         3 011011   000566 000001 1                  ADSC9   QUAD_4K,Q                cn=0,n=1
         3 011012   200534 000004                    ADSC9   CHIP#+2,,AUTO            cn=0,n=4
         3 011013   200534 236100                    LDQ     CHIP#+2,,AUTO
         3 011014   000033 732000                    QRS     27
         3 011015   200531 756100                    STQ     QUAD#,,AUTO

     1680     4986    2           IF BIT#=-1 OR QUAD#=0 THEN

PL6.E3A0      #001=THF$RAW File=THF$FORMAT.:E05TSI                               WED 07/30/97 06:08 Page:338
   4986  3 011016   200530 235100                    LDA     BIT#,,AUTO
         3 011017   000027 115000 xsym               CMPA    B_VECTNIL+23
         3 011020   011023 600000 3                  TZE     s:4988
         3 011021   000000 116003                    CMPQ    0,DU
         3 011022   011035 601000 3                  TNZ     s:4992

     1681     4987    3              DO;

     1682     4988    3                 BOARD=' ';

   4988  3 011023   200526 471500                    LDP1    @BOARD,,AUTO
         3 011024   040100 100400                    MLR     fill='040'O
         3 011025   000035 000001 xsym               ADSC9   B_VECTNIL+29             cn=0,n=1
         3 011026   100000 000001                    ADSC9   0,,PR1                   cn=0,n=1

     1683     4989    3                 CHIP=' ';

   4989  3 011027   200527 473500                    LDP3    @CHIP,,AUTO
         3 011030   040100 100400                    MLR     fill='040'O
         3 011031   000035 000001 xsym               ADSC9   B_VECTNIL+29             cn=0,n=1
         3 011032   300000 000003                    ADSC9   0,,PR3                   cn=0,n=3

     1684     4990    3                 RETURN;

   4990  3 011033   200524 221300                    LDX1  ! NINE_TRACK_BLNK+8,,AUTO
         3 011034   000001 702211                    TSX2  ! 1,X1

     1685     4991    3              END;
     1686     4992    2           BOARD=SUBSTR(BOARD_4K(QUAD#-1),STATUS$->EL$EDAC.STORE_MODE.A45,1);

   4992  3 011035   000000 471500                    LDP1    0,,PR0
         3 011036   100004 236100                    LDQ     4,,PR1
         3 011037   000042 772000                    QRL     34
         3 011040   200534 756100                    STQ     CHIP#+2,,AUTO
         3 011041   200531 236100                    LDQ     QUAD#,,AUTO
         3 011042   000002 736000                    QLS     2
         3 011043   200534 036100                    ADLQ    CHIP#+2,,AUTO
PL6.E3A0      #001=THF$RAW File=THF$FORMAT.:E05TSI                               WED 07/30/97 06:08 Page:339
         3 011044   200526 471500                    LDP1    @BOARD,,AUTO
         3 011045   040100 100406                    MLR     fill='040'O
         3 011046   007641 000001 2                  ADSC9   FPT_TIME+11,Q            cn=0,n=1
         3 011047   100000 000001                    ADSC9   0,,PR1                   cn=0,n=1

     1687     4993    2           IF MOD(BIT#,2) = 1 THEN

   4993  3 011050   200530 236100                    LDQ     BIT#,,AUTO
         3 011051   000002 506007                    DIV     2,DL
         3 011052   000044 733000                    LRS     36
         3 011053   000001 116007                    CMPQ    1,DL
         3 011054   011101 601000 3                  TNZ     s:5000

     1688     4994    3              DO;

     1689     4995    3                 CALL BINCHAR(CHIP#,7-STATUS$->EL$EDAC.STORE_MODE.A678);

   4995  3 011055   000000 473500                    LDP3    0,,PR0
         3 011056   300004 236100                    LDQ     4,,PR3
         3 011057   000037 772000                    QRL     31
         3 011060   000007 376007                    ANQ     7,DL
         3 011061   000027 676000 xsym               ERQ     B_VECTNIL+23
         3 011062   000010 036007                    ADLQ    8,DL
         3 011063   200534 756100                    STQ     CHIP#+2,,AUTO
         3 011064   000100 301500                    BTD
         3 011065   200534 000004                    NDSC9   CHIP#+2,,AUTO            cn=0,s=lsgnf,sf=0,n=4
         3 011066   200532 030002                    NDSC9   CHIP#,,AUTO              cn=0,s=nosgn,sf=0,n=2

     1690     4996    3                 CALL CONCAT(CHIP,SUBSTR(CHIP#,1,1),CHIP_LTTR(BIT#/2));

   4996  3 011067   200530 236100                    LDQ     BIT#,,AUTO
         3 011070   000002 506007                    DIV     2,DL
         3 011071   200527 473500                    LDP3    @CHIP,,AUTO
         3 011072   040100 100500                    MLR     fill='040'O
         3 011073   200532 200001                    ADSC9   CHIP#,,AUTO              cn=1,n=1
         3 011074   300000 000001                    ADSC9   0,,PR3                   cn=0,n=1
         3 011075   040100 100406                    MLR     fill='040'O
PL6.E3A0      #001=THF$RAW File=THF$FORMAT.:E05TSI                               WED 07/30/97 06:08 Page:340
         3 011076   007646 000001 2                  ADSC9   CHIP_LTTR,Q              cn=0,n=1
         3 011077   300000 200002                    ADSC9   0,,PR3                   cn=1,n=2

     1691     4997    3              END;

   4997  3 011100   011124 710000 3                  TRA     s:5003

     1692     4998    2           ELSE
     1693     4999    3              DO;

     1694     5000    3                 CALL BINCHAR(CHIP#,18-STATUS$->EL$EDAC.STORE_MODE.A678);

   5000  3 011101   000000 473500                    LDP3    0,,PR0
         3 011102   300004 236100                    LDQ     4,,PR3
         3 011103   000037 772000                    QRL     31
         3 011104   000007 376007                    ANQ     7,DL
         3 011105   000027 676000 xsym               ERQ     B_VECTNIL+23
         3 011106   000023 036007                    ADLQ    19,DL
         3 011107   200534 756100                    STQ     CHIP#+2,,AUTO
         3 011110   000100 301500                    BTD
         3 011111   200534 000004                    NDSC9   CHIP#+2,,AUTO            cn=0,s=lsgnf,sf=0,n=4
         3 011112   200532 030002                    NDSC9   CHIP#,,AUTO              cn=0,s=nosgn,sf=0,n=2

     1695     5001    3                 CALL CONCAT(CHIP,CHIP#,CHIP_LTTR(BIT#/2));

   5001  3 011113   200530 236100                    LDQ     BIT#,,AUTO
         3 011114   000002 506007                    DIV     2,DL
         3 011115   200527 473500                    LDP3    @CHIP,,AUTO
         3 011116   040100 100500                    MLR     fill='040'O
         3 011117   200532 000002                    ADSC9   CHIP#,,AUTO              cn=0,n=2
         3 011120   300000 000002                    ADSC9   0,,PR3                   cn=0,n=2
         3 011121   040100 100406                    MLR     fill='040'O
         3 011122   007646 000001 2                  ADSC9   CHIP_LTTR,Q              cn=0,n=1
         3 011123   300000 400001                    ADSC9   0,,PR3                   cn=2,n=1

     1696     5002    3              END;

PL6.E3A0      #001=THF$RAW File=THF$FORMAT.:E05TSI                               WED 07/30/97 06:08 Page:341
     1697     5003    2           RETURN;

   5003  3 011124   200524 221300                    LDX1  ! NINE_TRACK_BLNK+8,,AUTO
         3 011125   000001 702211                    TSX2  ! 1,X1

     1698     5004    2   EDAC_64K:
     1699     5005    2           BIT# = BIT_64K(STATUS$->EL$EDAC.STORE_MODE.SYNDROME.NUMB);

   5005  3 011126   100004 236100       EDAC_64K     LDQ     4,,PR1
         3 011127   000027 772000                    QRL     23
         3 011130   000177 376007                    ANQ     127,DL
         3 011131   000100 100406                    MLR     fill='000'O
         3 011132   000626 000001 1                  ADSC9   BIT_64K,Q                cn=0,n=1
         3 011133   200534 000004                    ADSC9   CHIP#+2,,AUTO            cn=0,n=4
         3 011134   200534 236100                    LDQ     CHIP#+2,,AUTO
         3 011135   000033 732000                    QRS     27
         3 011136   200530 756100                    STQ     BIT#,,AUTO

     1700     5006    2           IF BIT# < 0

   5006  3 011137   011152 605000 3                  TPL     s:5012

     1701     5007    3           THEN DO;

     1702     5008    3              BOARD = ' ';

   5008  3 011140   200526 471500                    LDP1    @BOARD,,AUTO
         3 011141   040100 100400                    MLR     fill='040'O
         3 011142   000035 000001 xsym               ADSC9   B_VECTNIL+29             cn=0,n=1
         3 011143   100000 000001                    ADSC9   0,,PR1                   cn=0,n=1

     1703     5009    3              CHIP = ' ';

   5009  3 011144   200527 473500                    LDP3    @CHIP,,AUTO
         3 011145   040100 100400                    MLR     fill='040'O
         3 011146   000035 000001 xsym               ADSC9   B_VECTNIL+29             cn=0,n=1
         3 011147   300000 000003                    ADSC9   0,,PR3                   cn=0,n=3
PL6.E3A0      #001=THF$RAW File=THF$FORMAT.:E05TSI                               WED 07/30/97 06:08 Page:342

     1704     5010    3              RETURN;

   5010  3 011150   200524 221300                    LDX1  ! NINE_TRACK_BLNK+8,,AUTO
         3 011151   000001 702211                    TSX2  ! 1,X1

     1705     5011    3              END;
     1706     5012    2           BOARD = BOARD_64K(STATUS$->EL$EDAC.STORE_MODE.A45 * 4

   5012  3 011152   000000 471500                    LDP1    0,,PR0
         3 011153   100004 236100                    LDQ     4,,PR1
         3 011154   000037 772000                    QRL     31
         3 011155   000007 376007                    ANQ     7,DL
         3 011156   000001 772000                    QRL     1
         3 011157   200534 756100                    STQ     CHIP#+2,,AUTO
         3 011160   100004 236100                    LDQ     4,,PR1
         3 011161   000040 772000                    QRL     32
         3 011162   000014 376007                    ANQ     12,DL
         3 011163   200534 036100                    ADLQ    CHIP#+2,,AUTO
         3 011164   200526 471500                    LDP1    @BOARD,,AUTO
         3 011165   040100 100406                    MLR     fill='040'O
         3 011166   000677 000001 1                  ADSC9   BOARD_64K,Q              cn=0,n=1
         3 011167   100000 000001                    ADSC9   0,,PR1                   cn=0,n=1

     1707     5013    2                           + STATUS$->EL$EDAC.STORE_MODE.A678 / 2);
     1708     5014    2           QUAD# = BIT# * 2 + MOD(STATUS$->EL$EDAC.STORE_MODE.A678,2);

   5014  3 011170   000000 473500                    LDP3    0,,PR0
         3 011171   300004 236100                    LDQ     4,,PR3
         3 011172   000037 772000                    QRL     31
         3 011173   000007 376007                    ANQ     7,DL
         3 011174   000001 376007                    ANQ     1,DL
         3 011175   200534 756100                    STQ     CHIP#+2,,AUTO
         3 011176   200530 236100                    LDQ     BIT#,,AUTO
         3 011177   000001 736000                    QLS     1
         3 011200   200534 036100                    ADLQ    CHIP#+2,,AUTO
         3 011201   200531 756100                    STQ     QUAD#,,AUTO
PL6.E3A0      #001=THF$RAW File=THF$FORMAT.:E05TSI                               WED 07/30/97 06:08 Page:343

     1709     5015    2           CALL CONCAT (CHIP,

   5015  3 011202   000010 506007                    DIV     8,DL
         3 011203   200531 236100                    LDQ     QUAD#,,AUTO
         3 011204   200534 755100                    STA     CHIP#+2,,AUTO
         3 011205   000010 506007                    DIV     8,DL
         3 011206   200534 235100                    LDA     CHIP#+2,,AUTO
         3 011207   000001 735000                    ALS     1
         3 011210   200527 473500                    LDP3    @CHIP,,AUTO
         3 011211   040100 100405                    MLR     fill='040'O
         3 011212   000666 000002 1                  ADSC9   CHIP_64K_CHAR,A          cn=0,n=2
         3 011213   300000 000002                    ADSC9   0,,PR3                   cn=0,n=2
         3 011214   040100 100406                    MLR     fill='040'O
         3 011215   000672 000001 1                  ADSC9   CHIP_64K_LET,Q           cn=0,n=1
         3 011216   300000 400001                    ADSC9   0,,PR3                   cn=2,n=1

     1710     5016    2                        CHIP_64K_CHAR(MOD(QUAD#,8)),
     1711     5017    2                        CHIP_64K_LET(QUAD#/8));
     1712     5018    2           RETURN;

   5018  3 011217   200524 221300                    LDX1  ! NINE_TRACK_BLNK+8,,AUTO
         3 011220   000001 702211                    TSX2  ! 1,X1

     1713     5019    2   END EDAC;
     1714     5020        %EJECT;
PL6.E3A0      #001=THF$RAW File=THF$FORMAT.:E05TSI                               WED 07/30/97 06:08 Page:344
     1715     5021        /* HANDLING OF DETAIL REPORT FORMAT FOR IOERR                       */
     1716     5022        /**/
     1717     5023    1   THF$IOERR: PROC;

   5023  3 011221   200524 741300       THF$IOERR    STX1  ! NINE_TRACK_BLNK+8,,AUTO

     1718     5024        /**/
     1719     5025    2   ALL_MATCH = %FALSE;

   5025  3 011222   200504 450100                    STZ     ALL_MATCH,,AUTO

     1720     5026    3   IF TH_FIRST_TIME THEN DO;    /* if it's the first I/O record read */

   5026  3 011223   000000 234000 xsym               SZN     TH_FIRST_TIME
         3 011224   011333 605000 3                  TPL     s:5049

     1721     5027    3      CALL INIT_TABLES;  /* call procedure to initialize tables */

   5027  3 011225   014433 701000 3                  TSX1    INIT_TABLES
         3 011226   000000 011000                    NOP     0

     1722     5028    3      MMBUF = ' ';

   5028  3 011227   040000 100400                    MLR     fill='040'O
         3 011230   000035 000001 xsym               ADSC9   B_VECTNIL+29             cn=0,n=1
         3 011231   003025 000400 2                  ADSC9   MMBUF                    cn=0,n=256

     1723     5029    3      MM$ = ADDR(MMBUF);

   5029  3 011232   000012 236000 4                  LDQ     10
         3 011233   200370 756100                    STQ     MM$,,AUTO

     1724     5030    3      INFO = TH_XSA_BUF_VECTOR;   /* EL$IOERR now frames the data record */

   5030  3 011234   000100 100400                    MLR     fill='000'O
         3 011235   000000 000010 xsym               ADSC9   TH_XSA_BUF_VECTOR        cn=0,n=8
         3 011236   200004 000010                    ADSC9   INFO,,AUTO               cn=0,n=8
PL6.E3A0      #001=THF$RAW File=THF$FORMAT.:E05TSI                               WED 07/30/97 06:08 Page:345

     1725     5031    3      IF ((EL$IOERR.MPC_MODEL = 'URPEURP ')

   5031  3 011237   200005 470500                    LDP0    INFO+1,,AUTO
         3 011240   040000 106500                    CMPC    fill='040'O
         3 011241   000032 000010                    ADSC9   26,,PR0                  cn=0,n=8
         3 011242   001574 000010 1                  ADSC9   BOARD_64K+445            cn=0,n=8
         3 011243   011270 600000 3                  TZE     s:5038
         3 011244   040000 106500                    CMPC    fill='040'O
         3 011245   000032 000010                    ADSC9   26,,PR0                  cn=0,n=8
         3 011246   001576 000010 1                  ADSC9   BOARD_64K+447            cn=0,n=8
         3 011247   011270 600000 3                  TZE     s:5038
         3 011250   040000 106500                    CMPC    fill='040'O
         3 011251   000032 000010                    ADSC9   26,,PR0                  cn=0,n=8
         3 011252   001600 000010 1                  ADSC9   BOARD_64K+449            cn=0,n=8
         3 011253   011270 600000 3                  TZE     s:5038
         3 011254   040000 106500                    CMPC    fill='040'O
         3 011255   000032 000010                    ADSC9   26,,PR0                  cn=0,n=8
         3 011256   001602 000010 1                  ADSC9   BOARD_64K+451            cn=0,n=8
         3 011257   011270 600000 3                  TZE     s:5038
         3 011260   040000 106500                    CMPC    fill='040'O
         3 011261   000032 000010                    ADSC9   26,,PR0                  cn=0,n=8
         3 011262   001604 000010 1                  ADSC9   BOARD_64K+453            cn=0,n=8
         3 011263   011270 600000 3                  TZE     s:5038
         3 011264   040000 106500                    CMPC    fill='040'O
         3 011265   000032 000010                    ADSC9   26,,PR0                  cn=0,n=8
         3 011266   001606 000010 1                  ADSC9   BOARD_64K+455            cn=0,n=8
         3 011267   011311 601000 3                  TNZ     s:5043

     1726     5032    3        OR (EL$IOERR.MPC_MODEL = 'URP8011 ')
     1727     5033    3        OR (EL$IOERR.MPC_MODEL = 'URP8012 ')
     1728     5034    3        OR (EL$IOERR.MPC_MODEL = 'URP8013 ')
     1729     5035    3        OR (EL$IOERR.MPC_MODEL = 'URP8600 ')
     1730     5036    3        OR (EL$IOERR.MPC_MODEL = 'URP8601 '))
     1731     5037    4          THEN DO;

     1732     5038    4            ASCII_EXTST = EL$IOERR.EXTST;  /* REFORMAT EXTENDED STATUS */
PL6.E3A0      #001=THF$RAW File=THF$FORMAT.:E05TSI                               WED 07/30/97 06:08 Page:346

   5038  3 011270   000100 100500                    MLR     fill='000'O
         3 011271   000013 000040                    ADSC9   11,,PR0                  cn=0,n=32
         3 011272   200263 000040                    ADSC9   ASCII_EXTST,,AUTO        cn=0,n=32

     1733     5039    5            DO J = 0 TO 31;

   5039  3 011273   200100 450100                    STZ     J,,AUTO

     1734     5040    5               EL$IOERR.EXTST(J) = ASCII_EXTST.BYT(J);

   5040  3 011274   200100 236100                    LDQ     J,,AUTO
         3 011275   000011 402007                    MPY     9,DL
         3 011276   200100 235100                    LDA     J,,AUTO
         3 011277   000003 735000                    ALS     3
         3 011300   200005 470500                    LDP0    INFO+1,,AUTO
         3 011301   003105 060506                    CSL     bolr='003'O
         3 011302   200263 010010                    BDSC    ASCII_EXTST,Q,AUTO       by=0,bit=1,n=8
         3 011303   000013 000010                    BDSC    11,A,PR0                 by=0,bit=0,n=8

     1735     5041    5            END;

   5041  3 011304   200100 235100                    LDA     J,,AUTO
         3 011305   000001 035007                    ADLA    1,DL
         3 011306   200100 755100                    STA     J,,AUTO
         3 011307   000040 115007                    CMPA    32,DL
         3 011310   011274 602000 3                  TNC     s:5040

     1736     5042    4          END;

     1737     5043    3      CALL THW$WRITE(COMPONENT_FMT,INFO);  /* write header for component */

   5043  3 011311   200004 630500                    EPPR0   INFO,,AUTO
         3 011312   200535 450500                    STP0    CHIP#+3,,AUTO
         3 011313   000416 236000 4                  LDQ     270
         3 011314   200534 756100                    STQ     CHIP#+2,,AUTO
         3 011315   200534 630500                    EPPR0   CHIP#+2,,AUTO
PL6.E3A0      #001=THF$RAW File=THF$FORMAT.:E05TSI                               WED 07/30/97 06:08 Page:347
         3 011316   000020 631400 xsym               EPPR1   B_VECTNIL+16
         3 011317   000000 701000 xent               TSX1    THW$WRITE
         3 011320   000000 011000                    NOP     0

     1738     5044    3      IOERR_TBL = EL$IOERR; /* store data record to detail_tbl */

   5044  3 011321   200005 470500                    LDP0    INFO+1,,AUTO
         3 011322   000000 100500                    MLR     fill='000'O
         3 011323   000000 000170                    ADSC9   0,,PR0                   cn=0,n=120
         3 011324   007532 000170 2                  ADSC9   IOERR_TBL                cn=0,n=120

     1739     5045    3      OTHER_IOERR_TBL.COUNT = OTHER_IOERR_TBL.COUNT + 1;

   5045  3 011325   003332 235000 2                  LDA     OTHER_IOERR_TBL
         3 011326   000001 035007                    ADLA    1,DL
         3 011327   003332 755000 2                  STA     OTHER_IOERR_TBL

     1740     5046    3      NEW_OP = EL$IOERR.IDCW;

   5046  3 011330   000010 236100                    LDQ     8,,PR0
         3 011331   200501 756100                    STQ     NEW_OP,,AUTO

     1741     5047    3      GOTO FIND_STATUS_ETC;

   5047  3 011332   012173 710000 3                  TRA     FIND_STATUS_ETC

     1742     5048    3   END;  /* if first record read */
     1743     5049    2   ELSE IF TH_EOF_FLG THEN GOTO NOT_ALL_MATCH;

   5049  3 011333   000000 234000 xsym               SZN     TH_EOF_FLG
         3 011334   011616 604000 3                  TMI     NOT_ALL_MATCH

     1744     5050    3   ELSE IF NOT TH_EOF_FLG AND NOT TH_FIRST_TIME THEN DO;

   5050  3 011335   011615 604000 3                  TMI     s:5126
         3 011336   000000 234000 xsym               SZN     TH_FIRST_TIME
         3 011337   011615 604000 3                  TMI     s:5126
PL6.E3A0      #001=THF$RAW File=THF$FORMAT.:E05TSI                               WED 07/30/97 06:08 Page:348

     1745     5051    3      MM$ = ADDR(MMBUF);

   5051  3 011340   000012 236000 4                  LDQ     10
         3 011341   200370 756100                    STQ     MM$,,AUTO

     1746     5052    3      INFO = TH_XSA_BUF_VECTOR;   /* EL$IOERR now frames the data record */

   5052  3 011342   000100 100400                    MLR     fill='000'O
         3 011343   000000 000010 xsym               ADSC9   TH_XSA_BUF_VECTOR        cn=0,n=8
         3 011344   200004 000010                    ADSC9   INFO,,AUTO               cn=0,n=8

     1747     5053    3      IF ((EL$IOERR.MPC_MODEL = 'URPEURP ')

   5053  3 011345   200005 470500                    LDP0    INFO+1,,AUTO
         3 011346   040000 106500                    CMPC    fill='040'O
         3 011347   000032 000010                    ADSC9   26,,PR0                  cn=0,n=8
         3 011350   001574 000010 1                  ADSC9   BOARD_64K+445            cn=0,n=8
         3 011351   011376 600000 3                  TZE     s:5060
         3 011352   040000 106500                    CMPC    fill='040'O
         3 011353   000032 000010                    ADSC9   26,,PR0                  cn=0,n=8
         3 011354   001576 000010 1                  ADSC9   BOARD_64K+447            cn=0,n=8
         3 011355   011376 600000 3                  TZE     s:5060
         3 011356   040000 106500                    CMPC    fill='040'O
         3 011357   000032 000010                    ADSC9   26,,PR0                  cn=0,n=8
         3 011360   001600 000010 1                  ADSC9   BOARD_64K+449            cn=0,n=8
         3 011361   011376 600000 3                  TZE     s:5060
         3 011362   040000 106500                    CMPC    fill='040'O
         3 011363   000032 000010                    ADSC9   26,,PR0                  cn=0,n=8
         3 011364   001602 000010 1                  ADSC9   BOARD_64K+451            cn=0,n=8
         3 011365   011376 600000 3                  TZE     s:5060
         3 011366   040000 106500                    CMPC    fill='040'O
         3 011367   000032 000010                    ADSC9   26,,PR0                  cn=0,n=8
         3 011370   001604 000010 1                  ADSC9   BOARD_64K+453            cn=0,n=8
         3 011371   011376 600000 3                  TZE     s:5060
         3 011372   040000 106500                    CMPC    fill='040'O
         3 011373   000032 000010                    ADSC9   26,,PR0                  cn=0,n=8
PL6.E3A0      #001=THF$RAW File=THF$FORMAT.:E05TSI                               WED 07/30/97 06:08 Page:349
         3 011374   001606 000010 1                  ADSC9   BOARD_64K+455            cn=0,n=8
         3 011375   011417 601000 3                  TNZ     s:5065

     1748     5054    3        OR (EL$IOERR.MPC_MODEL = 'URP8011 ')
     1749     5055    3        OR (EL$IOERR.MPC_MODEL = 'URP8012 ')
     1750     5056    3        OR (EL$IOERR.MPC_MODEL = 'URP8013 ')
     1751     5057    3        OR (EL$IOERR.MPC_MODEL = 'URP8600 ')
     1752     5058    3        OR (EL$IOERR.MPC_MODEL = 'URP8601 '))
     1753     5059    4          THEN DO;

     1754     5060    4            ASCII_EXTST = EL$IOERR.EXTST;  /* REFORMAT EXTENDED STATUS */

   5060  3 011376   000100 100500                    MLR     fill='000'O
         3 011377   000013 000040                    ADSC9   11,,PR0                  cn=0,n=32
         3 011400   200263 000040                    ADSC9   ASCII_EXTST,,AUTO        cn=0,n=32

     1755     5061    5            DO J = 0 TO 31;

   5061  3 011401   200100 450100                    STZ     J,,AUTO

     1756     5062    5               EL$IOERR.EXTST(J) = ASCII_EXTST.BYT(J);

   5062  3 011402   200100 236100                    LDQ     J,,AUTO
         3 011403   000011 402007                    MPY     9,DL
         3 011404   200100 235100                    LDA     J,,AUTO
         3 011405   000003 735000                    ALS     3
         3 011406   200005 470500                    LDP0    INFO+1,,AUTO
         3 011407   003105 060506                    CSL     bolr='003'O
         3 011410   200263 010010                    BDSC    ASCII_EXTST,Q,AUTO       by=0,bit=1,n=8
         3 011411   000013 000010                    BDSC    11,A,PR0                 by=0,bit=0,n=8

     1757     5063    5            END;

   5063  3 011412   200100 235100                    LDA     J,,AUTO
         3 011413   000001 035007                    ADLA    1,DL
         3 011414   200100 755100                    STA     J,,AUTO
         3 011415   000040 115007                    CMPA    32,DL
PL6.E3A0      #001=THF$RAW File=THF$FORMAT.:E05TSI                               WED 07/30/97 06:08 Page:350
         3 011416   011402 602000 3                  TNC     s:5062

     1758     5064    4          END;

     1759     5065    3      NEW_OP = EL$IOERR.IDCW;

   5065  3 011417   200005 470500                    LDP0    INFO+1,,AUTO
         3 011420   000010 236100                    LDQ     8,,PR0
         3 011421   200501 756100                    STQ     NEW_OP,,AUTO

     1760     5066    3      NEW_DENSE = EL$IOERR.EXTST(2);

   5066  3 011422   000013 236100                    LDQ     11,,PR0
         3 011423   000020 736000                    QLS     16
         3 011424   200507 676100                    ERQ     NEW_DENSE,,AUTO
         3 011425   776000 376003                    ANQ     -1024,DU
         3 011426   200507 656100                    ERSQ    NEW_DENSE,,AUTO

     1761     5067    3      OLD_DENSE = IOERR_TBL.EXTST(2);

   5067  3 011427   007545 236000 2                  LDQ     IOERR_TBL+11
         3 011430   000020 736000                    QLS     16
         3 011431   200506 676100                    ERQ     OLD_DENSE,,AUTO
         3 011432   776000 376003                    ANQ     -1024,DU
         3 011433   200506 656100                    ERSQ    OLD_DENSE,,AUTO

     1762     5068    3      J = 0;

   5068  3 011434   200100 450100                    STZ     J,,AUTO

     1763     5069    4      DO I = 0 TO NUMMODELS;

   5069  3 011435   200010 450100                    STZ     I,,AUTO

     1764     5070    5         IF EL$IOERR.MODEL = DEVICE_CMND.DEV(I) THEN DO;

   5070  3 011436   200010 235100                    LDA     I,,AUTO
PL6.E3A0      #001=THF$RAW File=THF$FORMAT.:E05TSI                               WED 07/30/97 06:08 Page:351
         3 011437   000004 735000                    ALS     4
         3 011440   200005 470500                    LDP0    INFO+1,,AUTO
         3 011441   040005 106500                    CMPC    fill='040'O
         3 011442   000030 000010                    ADSC9   24,,PR0                  cn=0,n=8
         3 011443   000000 000010 xsym               ADSC9   DEVICE_CMND,A            cn=0,n=8
         3 011444   011456 601000 3                  TNZ     s:5074

     1765     5071    5            DEV_OP$ = DEVICE_CMND.SUB$(I);

   5071  3 011445   200010 236100                    LDQ     I,,AUTO
         3 011446   000002 736000                    QLS     2
         3 011447   000002 236006 xsym               LDQ     DEVICE_CMND+2,QL
         3 011450   200505 756100                    STQ     DEV_OP$,,AUTO

     1766     5072    5            J = DEVICE_CMND.COUNT(I);

   5072  3 011451   200010 235100                    LDA     I,,AUTO
         3 011452   000002 735000                    ALS     2
         3 011453   000003 236005 xsym               LDQ     DEVICE_CMND+3,AL
         3 011454   000033 772000                    QRL     27
         3 011455   200100 756100                    STQ     J,,AUTO

     1767     5073    5         END;  /* if el$ioerr.model = device_cmnd.dev(i)  */

     1768     5074    4      END;  /* do i = 0 to 19 */

   5074  3 011456   200010 054100                    AOS     I,,AUTO
         3 011457   200010 235100                    LDA     I,,AUTO
         3 011460   000035 115007                    CMPA    29,DL
         3 011461   011436 604400 3                  TMOZ    s:5070

     1769     5075    3      IF J > 0 THEN

   5075  3 011462   200100 236100                    LDQ     J,,AUTO
         3 011463   011510 600000 3                  TZE     s:5080

     1770     5076    4      DO I = 0 TO J;
PL6.E3A0      #001=THF$RAW File=THF$FORMAT.:E05TSI                               WED 07/30/97 06:08 Page:352

   5076  3 011464   200010 450100                    STZ     I,,AUTO
         3 011465   011504 710000 3                  TRA     s:5079+1

     1771     5077    4         IF NEW_OP_RDF(0) = DEV_OP_TBL.CODE(I)

   5077  3 011466   200010 236100                    LDQ     I,,AUTO
         3 011467   000003 402007                    MPY     3,DL
         3 011470   200505 470500                    LDP0    DEV_OP$,,AUTO
         3 011471   000000 620006                    EAX0    0,QL
         3 011472   200501 236100                    LDQ     NEW_OP,,AUTO
         3 011473   000000 676110                    ERQ     0,X0,PR0
         3 011474   770000 376003                    ANQ     -4096,DU
         3 011475   011503 601000 3                  TNZ     s:5079

     1772     5078    4         THEN OPERATION = DEV_OP_TBL.TEXT(I);

   5078  3 011476   200010 236100                    LDQ     I,,AUTO
         3 011477   000014 402007                    MPY     12,DL
         3 011500   040100 100506                    MLR     fill='040'O
         3 011501   000000 400010                    ADSC9   0,Q,PR0                  cn=2,n=8
         3 011502   200502 000010                    ADSC9   OPERATION,,AUTO          cn=0,n=8

     1773     5079    4      END;  /* do i = 0 to j */

   5079  3 011503   200010 054100                    AOS     I,,AUTO
         3 011504   200100 236100                    LDQ     J,,AUTO
         3 011505   011466 604000 3                  TMI     s:5077
         3 011506   200010 116100                    CMPQ    I,,AUTO
         3 011507   011466 605000 3                  TPL     s:5077

     1774     5080    3      IF EL$IOERR.DEVNM = IOERR_TBL.DEVNM

   5080  3 011510   200005 470500                    LDP0    INFO+1,,AUTO
         3 011511   040000 106500                    CMPC    fill='040'O
         3 011512   000024 000010                    ADSC9   20,,PR0                  cn=0,n=8
         3 011513   007556 000010 2                  ADSC9   IOERR_TBL+20             cn=0,n=8
PL6.E3A0      #001=THF$RAW File=THF$FORMAT.:E05TSI                               WED 07/30/97 06:08 Page:353
         3 011514   011616 601000 3                  TNZ     NOT_ALL_MATCH

     1775     5081    4      THEN DO;

     1776     5082    4          IF EL$IOERR.STATUS.MAJOR = IOERR_TBL.STATUS.MAJOR

   5082  3 011515   000001 236100                    LDQ     1,,PR0
         3 011516   007533 676000 2                  ERQ     IOERR_TBL+1
         3 011517   170000 376003                    ANQ     61440,DU
         3 011520   011616 601000 3                  TNZ     NOT_ALL_MATCH

     1777     5083    5          THEN DO;

     1778     5084    5            IF EL$IOERR.STATUS.MINOR = IOERR_TBL.STATUS.MINOR

   5084  3 011521   000001 236100                    LDQ     1,,PR0
         3 011522   007533 676000 2                  ERQ     IOERR_TBL+1
         3 011523   007700 376003                    ANQ     4032,DU
         3 011524   011616 601000 3                  TNZ     NOT_ALL_MATCH

     1779     5085    6            THEN DO;

     1780     5086    6              IF EL$IOERR.MODEL = IOERR_TBL.MODEL

   5086  3 011525   040000 106500                    CMPC    fill='040'O
         3 011526   000030 000010                    ADSC9   24,,PR0                  cn=0,n=8
         3 011527   007562 000010 2                  ADSC9   IOERR_TBL+24             cn=0,n=8
         3 011530   011616 601000 3                  TNZ     NOT_ALL_MATCH

     1781     5087    7              THEN DO;

     1782     5088    7                MODEL_CHAR = IOERR_TBL.MODEL;

   5088  3 011531   007562 236000 2                  LDQ     IOERR_TBL+24
         3 011532   000134 376000 4                  ANQ     92
         3 011533   000040 276007                    ORQ     32,DL
         3 011534   200220 756100                    STQ     MODEL_CHAR,,AUTO
PL6.E3A0      #001=THF$RAW File=THF$FORMAT.:E05TSI                               WED 07/30/97 06:08 Page:354

     1783     5089    8                IF MODEL_CHAR = 'MTU' THEN DO;

   5089  3 011535   200220 236100                    LDQ     MODEL_CHAR,,AUTO
         3 011536   001617 676000 1                  ERQ     BOARD_64K+464
         3 011537   000134 376000 4                  ANQ     92
         3 011540   011607 601000 3                  TNZ     s:5113

     1784     5090    8                  IF EL$IOERR.MODEL = 'MTU8200'

   5090  3 011541   040000 106500                    CMPC    fill='040'O
         3 011542   000030 000010                    ADSC9   24,,PR0                  cn=0,n=8
         3 011543   001621 000007 1                  ADSC9   BOARD_64K+466            cn=0,n=7
         3 011544   011571 601000 3                  TNZ     s:5100

     1785     5091    9                  THEN DO;

     1786     5092    9                     NEW_IO_MASK = EL$IOERR.EXTST;

   5092  3 011545   000100 100500                    MLR     fill='000'O
         3 011546   000013 000040                    ADSC9   11,,PR0                  cn=0,n=32
         3 011547   200231 000040                    ADSC9   NEW_IO_MASK,,AUTO        cn=0,n=32

     1787     5093    9                     IO_MASK = IOERR_TBL.EXTST;

   5093  3 011550   000100 100400                    MLR     fill='000'O
         3 011551   007545 000040 2                  ADSC9   IOERR_TBL+11             cn=0,n=32
         3 011552   200221 000040                    ADSC9   IO_MASK,,AUTO            cn=0,n=32

     1788     5094    9                     IF IO_MASK1(29) = IO_MASK2(29) THEN;

   5094  3 011553   200221 236100                    LDQ     IO_MASK,,AUTO
         3 011554   200231 676100                    ERQ     NEW_IO_MASK,,AUTO
         3 011555   000100 376007                    ANQ     64,DL
         3 011556   011570 600000 3                  TZE     s:5098

     1789     5095    9                     ELSE IF IO_MASK1(51) = IO_MASK2(51) THEN;
PL6.E3A0      #001=THF$RAW File=THF$FORMAT.:E05TSI                               WED 07/30/97 06:08 Page:355

   5095  3 011557   200222 236100                    LDQ     IO_MASK+1,,AUTO
         3 011560   200232 676100                    ERQ     NEW_IO_MASK+1,,AUTO
         3 011561   000004 376003                    ANQ     4,DU
         3 011562   011570 600000 3                  TZE     s:5098

     1790     5096    9                     ELSE IF IO_MASK1(52) = IO_MASK2(52) THEN;

   5096  3 011563   200222 236100                    LDQ     IO_MASK+1,,AUTO
         3 011564   200232 676100                    ERQ     NEW_IO_MASK+1,,AUTO
         3 011565   000002 376003                    ANQ     2,DU
         3 011566   011616 601000 3                  TNZ     NOT_ALL_MATCH

   5096  3 011567   011570 710000 3                  TRA     s:5098

     1791     5097    9                     ELSE GOTO NOT_ALL_MATCH;
     1792     5098    9                       GOTO COMP_OP;

   5098  3 011570   011575 710000 3                  TRA     COMP_OP

     1793     5099    9                  END; /* if model is mtu8200 */
     1794     5100    8                  ELSE IF NEW_DENSE_RDF.DENSITY = OLD_DENSE_RDF.DENSITY

   5100  3 011571   200507 236100                    LDQ     NEW_DENSE,,AUTO
         3 011572   200506 676100                    ERQ     OLD_DENSE,,AUTO
         3 011573   700000 376003                    ANQ     -32768,DU
         3 011574   011616 601000 3                  TNZ     NOT_ALL_MATCH

     1795     5101    9                  THEN DO;

     1796     5102    9   COMP_OP:        IF OPERATION = OTHER_IOERR_TBL.OPERATION

   5102  3 011575   040000 106500       COMP_OP      CMPC    fill='040'O
         3 011576   200502 000010                    ADSC9   OPERATION,,AUTO          cn=0,n=8
         3 011577   003333 000010 2                  ADSC9   OTHER_IOERR_TBL+1        cn=0,n=8
         3 011600   011616 601000 3                  TNZ     NOT_ALL_MATCH

PL6.E3A0      #001=THF$RAW File=THF$FORMAT.:E05TSI                               WED 07/30/97 06:08 Page:356
     1797     5103   10                   THEN DO;

     1798     5104   10                      OTHER_IOERR_TBL.COUNT = OTHER_IOERR_TBL.COUNT + 1;

   5104  3 011601   003332 235000 2                  LDA     OTHER_IOERR_TBL
         3 011602   000001 035007                    ADLA    1,DL
         3 011603   003332 755000 2                  STA     OTHER_IOERR_TBL

     1799     5105   10                      ALL_MATCH = %TRUE;

   5105  3 011604   400000 236003                    LDQ     -131072,DU
         3 011605   200504 756100                    STQ     ALL_MATCH,,AUTO

     1800     5106   10                      GOTO FIND_STATUS_ETC;

   5106  3 011606   012173 710000 3                  TRA     FIND_STATUS_ETC

     1801     5107   10                   END;  /*  if new_operation = old_operation */
     1802     5108    9                   ELSE GOTO NOT_ALL_MATCH;
     1803     5109    9                  END; /* if new density = old density */
     1804     5110    8                  ELSE GOTO NOT_ALL_MATCH;
     1805     5111    8                END; /* if model_char = 'MTU' */
     1806     5112    8                ELSE DO;

     1807     5113    8                  OTHER_IOERR_TBL.COUNT = OTHER_IOERR_TBL.COUNT + 1;

   5113  3 011607   003332 235000 2                  LDA     OTHER_IOERR_TBL
         3 011610   000001 035007                    ADLA    1,DL
         3 011611   003332 755000 2                  STA     OTHER_IOERR_TBL

     1808     5114    8                  ALL_MATCH = %TRUE;

   5114  3 011612   400000 236003                    LDQ     -131072,DU
         3 011613   200504 756100                    STQ     ALL_MATCH,,AUTO

     1809     5115    8                  GOTO FIND_STATUS_ETC;

PL6.E3A0      #001=THF$RAW File=THF$FORMAT.:E05TSI                               WED 07/30/97 06:08 Page:357
   5115  3 011614   012173 710000 3                  TRA     FIND_STATUS_ETC

     1810     5116    8                END; /* else do */
     1811     5117    7              END;
     1812     5118    6              ELSE GOTO NOT_ALL_MATCH;
     1813     5119    6            END;
     1814     5120    5            ELSE GOTO NOT_ALL_MATCH;
     1815     5121    5          END;
     1816     5122    4          ELSE GOTO NOT_ALL_MATCH;
     1817     5123    4      END;
     1818     5124    3      ELSE GOTO NOT_ALL_MATCH;
     1819     5125    3   END;
     1820     5126    3      DO NEVER;

   5126  3 011615   012173 710000 3                  TRA     FIND_STATUS_ETC

     1821     5127    3   NOT_ALL_MATCH: MMVEC = VECTOR(MMBUF);

   5127  3 011616   000306 237000 4     NOT_ALL_MAT* LDAQ    198
         3 011617   200372 757100                    STAQ    MMVEC,,AUTO

     1822     5128    3                  MMVEC.BOUND = POFFC(MM$,ADDR(MMBUF)) - 1;

   5128  3 011620   000012 236000 4                  LDQ     10
         3 011621   000020 772000                    QRL     16
         3 011622   200534 756100                    STQ     CHIP#+2,,AUTO
         3 011623   200370 236100                    LDQ     MM$,,AUTO
         3 011624   000020 772000                    QRL     16
         3 011625   200534 136100                    SBLQ    CHIP#+2,,AUTO
         3 011626   000001 136007                    SBLQ    1,DL
         3 011627   000020 736000                    QLS     16
         3 011630   200372 676100                    ERQ     MMVEC,,AUTO
         3 011631   000034 376000 xsym               ANQ     B_VECTNIL+28
         3 011632   200372 656100                    ERSQ    MMVEC,,AUTO

     1823     5129    3                  IO_MASK = IOERR_TBL.EXTST;

PL6.E3A0      #001=THF$RAW File=THF$FORMAT.:E05TSI                               WED 07/30/97 06:08 Page:358
   5129  3 011633   000100 100400                    MLR     fill='000'O
         3 011634   007545 000040 2                  ADSC9   IOERR_TBL+11             cn=0,n=32
         3 011635   200221 000040                    ADSC9   IO_MASK,,AUTO            cn=0,n=32

     1824     5130    3                  MODEL_CHAR = IOERR_TBL.MODEL;

   5130  3 011636   007562 236000 2                  LDQ     IOERR_TBL+24
         3 011637   000134 376000 4                  ANQ     92
         3 011640   000040 276007                    ORQ     32,DL
         3 011641   200220 756100                    STQ     MODEL_CHAR,,AUTO

     1825     5131    3                  IF IOERR_TBL.MODEL = 'MTU0400' OR IOERR_TBL.MODEL = 'MTU0500'

   5131  3 011642   040000 106400                    CMPC    fill='040'O
         3 011643   007562 000010 2                  ADSC9   IOERR_TBL+24             cn=0,n=8
         3 011644   001623 000007 1                  ADSC9   BOARD_64K+468            cn=0,n=7
         3 011645   011652 600000 3                  TZE     s:5132
         3 011646   040000 106400                    CMPC    fill='040'O
         3 011647   007562 000010 2                  ADSC9   IOERR_TBL+24             cn=0,n=8
         3 011650   001772 000007 1                  ADSC9   BOARD_64K+571            cn=0,n=7
         3 011651   011655 601000 3                  TNZ     s:5133

     1826     5132    3                  THEN OTHER_IOERR_TBL.TRACK = '7';

   5132  3 011652   067000 236003                    LDQ     28160,DU
         3 011653   003355 756000 2                  STQ     OTHER_IOERR_TBL+19
         3 011654   011673 710000 3                  TRA     s:5135

     1827     5133    3                 ELSE IF IOERR_TBL.MODEL = 'MTU0610' OR IOERR_TBL.MODEL = 'MTU0630' OR
              5133                           IOERR_TBL.MODEL = 'MTU8200'

   5133  3 011655   040000 106400                    CMPC    fill='040'O
         3 011656   007562 000010 2                  ADSC9   IOERR_TBL+24             cn=0,n=8
         3 011657   001617 000007 1                  ADSC9   BOARD_64K+464            cn=0,n=7
         3 011660   011671 600000 3                  TZE     s:5134
         3 011661   040000 106400                    CMPC    fill='040'O
         3 011662   007562 000010 2                  ADSC9   IOERR_TBL+24             cn=0,n=8
PL6.E3A0      #001=THF$RAW File=THF$FORMAT.:E05TSI                               WED 07/30/97 06:08 Page:359
         3 011663   001774 000007 1                  ADSC9   BOARD_64K+573            cn=0,n=7
         3 011664   011671 600000 3                  TZE     s:5134
         3 011665   040000 106400                    CMPC    fill='040'O
         3 011666   007562 000010 2                  ADSC9   IOERR_TBL+24             cn=0,n=8
         3 011667   001621 000007 1                  ADSC9   BOARD_64K+466            cn=0,n=7
         3 011670   011673 601000 3                  TNZ     s:5135

     1828     5134    3                  THEN OTHER_IOERR_TBL.TRACK = '9';

   5134  3 011671   071000 236003                    LDQ     29184,DU
         3 011672   003355 756000 2                  STQ     OTHER_IOERR_TBL+19

     1829     5135    4                  DO I = CTL.NHDR + 1 TO CTL.NFMT + CTL.NHDR;

   5135  3 011673   200211 470500                    LDP0    CTL$,,AUTO
         3 011674   000000 236100                    LDQ     0,,PR0
         3 011675   000033 772000                    QRL     27
         3 011676   000001 036007                    ADLQ    1,DL
         3 011677   200010 756100                    STQ     I,,AUTO
         3 011700   012046 710000 3                  TRA     s:5152+1

     1830     5136    4                    IF MODEL_CHAR = 'MTU' AND IO_MASK1 THEN

   5136  3 011701   200220 236100                    LDQ     MODEL_CHAR,,AUTO
         3 011702   001617 676000 1                  ERQ     BOARD_64K+464
         3 011703   000134 376000 4                  ANQ     92
         3 011704   011731 601000 3                  TNZ     s:5138
         3 011705   000000 106500                    CMPC    fill='000'O
         3 011706   200221 000040                    ADSC9   IO_MASK,,AUTO            cn=0,n=32
         3 011707   000002 000002 xsym               ADSC9   B_VECTNIL+2              cn=0,n=2
         3 011710   011731 600000 3                  TZE     s:5138

     1831     5137    4                   CALL THW$WRITE(CTL.FMT(I),VECTOR(IOERR_TBL),VECTOR(OTHER_IOERR_TBL)
              5137                             ,MMVEC);

   5137  3 011711   200372 630500                    EPPR0   MMVEC,,AUTO
         3 011712   200537 450500                    STP0    CHIP#+5,,AUTO
PL6.E3A0      #001=THF$RAW File=THF$FORMAT.:E05TSI                               WED 07/30/97 06:08 Page:360
         3 011713   000424 236000 4                  LDQ     276
         3 011714   200536 756100                    STQ     CHIP#+4,,AUTO
         3 011715   000425 236000 4                  LDQ     277
         3 011716   200535 756100                    STQ     CHIP#+3,,AUTO
         3 011717   200010 236100                    LDQ     I,,AUTO
         3 011720   000023 736000                    QLS     19
         3 011721   000002 036003                    ADLQ    2,DU
         3 011722   200211 036100                    ADLQ    CTL$,,AUTO
         3 011723   200534 756100                    STQ     CHIP#+2,,AUTO
         3 011724   200534 630500                    EPPR0   CHIP#+2,,AUTO
         3 011725   000022 631400 xsym               EPPR1   B_VECTNIL+18
         3 011726   000000 701000 xent               TSX1    THW$WRITE
         3 011727   000000 011000                    NOP     0
         3 011730   011762 710000 3                  TRA     s:5141

     1832     5138    4                    ELSE IF MODEL_CHAR = 'MTU' THEN

   5138  3 011731   200220 236100                    LDQ     MODEL_CHAR,,AUTO
         3 011732   001617 676000 1                  ERQ     BOARD_64K+464
         3 011733   000134 376000 4                  ANQ     92
         3 011734   011750 601000 3                  TNZ     s:5140

     1833     5139    4                    CALL THW$WRITE(NO_XSTAT_FMT,VECTOR(IOERR_TBL),VECTOR(
              5139                             OTHER_IOERR_TBL),MMVEC);

   5139  3 011735   200372 630500                    EPPR0   MMVEC,,AUTO
         3 011736   200537 450500                    STP0    CHIP#+5,,AUTO
         3 011737   000424 236000 4                  LDQ     276
         3 011740   200536 756100                    STQ     CHIP#+4,,AUTO
         3 011741   000426 237000 4                  LDAQ    278
         3 011742   200534 757100                    STAQ    CHIP#+2,,AUTO
         3 011743   200534 630500                    EPPR0   CHIP#+2,,AUTO
         3 011744   000022 631400 xsym               EPPR1   B_VECTNIL+18
         3 011745   000000 701000 xent               TSX1    THW$WRITE
         3 011746   000000 011000                    NOP     0
         3 011747   011762 710000 3                  TRA     s:5141

PL6.E3A0      #001=THF$RAW File=THF$FORMAT.:E05TSI                               WED 07/30/97 06:08 Page:361
     1834     5140    4                    ELSE CALL THW$WRITE(NON_TAPE_FMT,VECTOR(IOERR_TBL),VECTOR(
              5140                             OTHER_IOERR_TBL),MMVEC);

   5140  3 011750   200372 630500                    EPPR0   MMVEC,,AUTO
         3 011751   200537 450500                    STP0    CHIP#+5,,AUTO
         3 011752   000424 236000 4                  LDQ     276
         3 011753   200536 756100                    STQ     CHIP#+4,,AUTO
         3 011754   000430 237000 4                  LDAQ    280
         3 011755   200534 757100                    STAQ    CHIP#+2,,AUTO
         3 011756   200534 630500                    EPPR0   CHIP#+2,,AUTO
         3 011757   000022 631400 xsym               EPPR1   B_VECTNIL+18
         3 011760   000000 701000 xent               TSX1    THW$WRITE
         3 011761   000000 011000                    NOP     0

     1835     5141    5                    IF IO_MASK1 THEN DO;

   5141  3 011762   000000 106500                    CMPC    fill='000'O
         3 011763   200221 000040                    ADSC9   IO_MASK,,AUTO            cn=0,n=32
         3 011764   000002 000002 xsym               ADSC9   B_VECTNIL+2              cn=0,n=2
         3 011765   012045 600000 3                  TZE     s:5152

     1836     5142    6                       IF TRACK_NINE THEN DO;

   5142  3 011766   200511 234100                    SZN     TRACK_NINE,,AUTO
         3 011767   012045 605000 3                  TPL     s:5152

     1837     5143    7                          DO X = 0 TO 8;

   5143  3 011770   200011 450100                    STZ     X,,AUTO

     1838     5144    8                             IF NINE_TRACK_RDF(X) > 0 THEN DO;

   5144  3 011771   200011 235100                    LDA     X,,AUTO
         3 011772   000100 101405                    MRL     fill='000'O
         3 011773   007416 000001 2                  ADSC9   NINE_TRACK_TBL,A         cn=0,n=1
         3 011774   200534 000004                    ADSC9   CHIP#+2,,AUTO            cn=0,n=4
         3 011775   200534 236100                    LDQ     CHIP#+2,,AUTO
PL6.E3A0      #001=THF$RAW File=THF$FORMAT.:E05TSI                               WED 07/30/97 06:08 Page:362
         3 011776   000000 116003                    CMPQ    0,DU
         3 011777   012024 600000 3                  TZE     s:5148

     1839     5145    8                             CALL BINCHAR(NINE_TRACK_BLNK(X),NINE_TRACK_RDF(X));

   5145  3 012000   200011 236100                    LDQ     X,,AUTO
         3 012001   000003 402007                    MPY     3,DL
         3 012002   200011 235100                    LDA     X,,AUTO
         3 012003   000100 101405                    MRL     fill='000'O
         3 012004   007416 000001 2                  ADSC9   NINE_TRACK_TBL,A         cn=0,n=1
         3 012005   200534 000004                    ADSC9   CHIP#+2,,AUTO            cn=0,n=4
         3 012006   200535 756100                    STQ     CHIP#+3,,AUTO
         3 012007   200534 236100                    LDQ     CHIP#+2,,AUTO
         3 012010   000000 235003                    LDA     0,DU
         3 012011   200536 757100                    STAQ    CHIP#+4,,AUTO
         3 012012   200535 235100                    LDA     CHIP#+3,,AUTO
         3 012013   000105 301500                    BTD
         3 012014   200536 000010                    NDSC9   CHIP#+4,,AUTO            cn=0,s=lsgnf,sf=0,n=8
         3 012015   200514 030003                    NDSC9   NINE_TRACK_BLNK,A,AUTO   cn=0,s=nosgn,sf=0,n=3

     1840     5146    8                             CALL EDITCHAR(NINE_TRACK_BLNK(X), , ,NO_LEADING_ZEROS,
              5146                                      NINE_TRACK_BLNK(X));

   5146  3 012016   200011 236100                    LDQ     X,,AUTO
         3 012017   000003 402007                    MPY     3,DL
         3 012020   106000 024506                    MVNE
         3 012021   200514 030003                    NDSC9   NINE_TRACK_BLNK,Q,AUTO   cn=0,s=nosgn,sf=0,n=3
         3 012022   000450 000003 1                  ADSC9   NO_LEADING_ZEROS         cn=0,n=3
         3 012023   200514 000003                    ADSC9   NINE_TRACK_BLNK,Q,AUTO   cn=0,n=3

     1841     5147    8                             END;  /* if nine_track_rdf(x) > 0 */

     1842     5148    7                          END;

   5148  3 012024   200011 054100                    AOS     X,,AUTO
         3 012025   200011 235100                    LDA     X,,AUTO
         3 012026   000010 115007                    CMPA    8,DL
PL6.E3A0      #001=THF$RAW File=THF$FORMAT.:E05TSI                               WED 07/30/97 06:08 Page:363
         3 012027   011771 604400 3                  TMOZ    s:5144

     1843     5149    6                          CALL THW$WRITE(NINE_TRK_FMT,VECTOR(NINE_TRACK_BLNK));

   5149  3 012030   000432 235000 4                  LDA     282
         3 012031   200534 452500                    STP2    CHIP#+2,,AUTO
         3 012032   200534 236100                    LDQ     CHIP#+2,,AUTO
         3 012033   000514 036003                    ADLQ    332,DU
         3 012034   200536 757100                    STAQ    CHIP#+4,,AUTO
         3 012035   200536 630500                    EPPR0   CHIP#+4,,AUTO
         3 012036   200541 450500                    STP0    CHIP#+7,,AUTO
         3 012037   000433 236000 4                  LDQ     283
         3 012040   200540 756100                    STQ     CHIP#+6,,AUTO
         3 012041   200540 630500                    EPPR0   CHIP#+6,,AUTO
         3 012042   000020 631400 xsym               EPPR1   B_VECTNIL+16
         3 012043   000000 701000 xent               TSX1    THW$WRITE
         3 012044   000000 011000                    NOP     0

     1844     5150    6                       END;  /* if track_nine */

     1845     5151    5                    END;  /* if io_mask1 */

     1846     5152    4                  END;   /* do i = ctl.nhdr+1 to ctl.nfmt+ctl.nhdr */

   5152  3 012045   200010 054100                    AOS     I,,AUTO
         3 012046   200211 470500                    LDP0    CTL$,,AUTO
         3 012047   000000 236100                    LDQ     0,,PR0
         3 012050   000033 772000                    QRL     27
         3 012051   200534 756100                    STQ     CHIP#+2,,AUTO
         3 012052   000000 236100                    LDQ     0,,PR0
         3 012053   000022 772000                    QRL     18
         3 012054   000777 376007                    ANQ     511,DL
         3 012055   200534 036100                    ADLQ    CHIP#+2,,AUTO
         3 012056   011701 604000 3                  TMI     s:5136
         3 012057   200010 116100                    CMPQ    I,,AUTO
         3 012060   011701 605000 3                  TPL     s:5136

PL6.E3A0      #001=THF$RAW File=THF$FORMAT.:E05TSI                               WED 07/30/97 06:08 Page:364
     1847     5153    4         IF CTL.SPECIAL THEN DO;

   5153  3 012061   000000 236100                    LDQ     0,,PR0
         3 012062   200000 316007                    CANQ    65536,DL
         3 012063   012141 600000 3                  TZE     s:5161

     1848     5154    5            IF NUM_XSTATUS > 0 AND MODEL_CHAR = 'MTU' THEN DO;/* if stats bits*/

   5154  3 012064   200510 235100                    LDA     NUM_XSTATUS,,AUTO
         3 012065   012141 600000 3                  TZE     s:5161
         3 012066   200220 236100                    LDQ     MODEL_CHAR,,AUTO
         3 012067   001617 676000 1                  ERQ     BOARD_64K+464
         3 012070   000134 376000 4                  ANQ     92
         3 012071   012141 601000 3                  TNZ     s:5161

     1849     5155    5               CALL THW$WRITE(EXTENDED_FMT);  /* write extended stats hdr */

   5155  3 012072   000434 630400 4                  EPPR0   284
         3 012073   000017 631400 xsym               EPPR1   B_VECTNIL+15
         3 012074   000000 701000 xent               TSX1    THW$WRITE
         3 012075   000000 011000                    NOP     0

     1850     5156    6               DO I = 0 TO NUM_XSTATUS-1;

   5156  3 012076   200010 450100                    STZ     I,,AUTO
         3 012077   012135 710000 3                  TRA     s:5158+1

     1851     5157    6                   CALL THW$WRITE(STATUS_FMT,VECTOR(XSTAT_TBL.COUNT(I)),VECTOR(
              5157                            XSTAT_TBL.TEXT(I)));

   5157  3 012100   777640 235007                    LDA     -96,DL
         3 012101   200010 236100                    LDQ     I,,AUTO
         3 012102   200534 755100                    STA     CHIP#+2,,AUTO
         3 012103   000012 402003                    MPY     10,DU
         3 012104   000435 036000 4                  ADLQ    285
         3 012105   200534 235100                    LDA     CHIP#+2,,AUTO
         3 012106   200536 757100                    STAQ    CHIP#+4,,AUTO
PL6.E3A0      #001=THF$RAW File=THF$FORMAT.:E05TSI                               WED 07/30/97 06:08 Page:365
         3 012107   000436 235000 4                  LDA     286
         3 012110   200010 236100                    LDQ     I,,AUTO
         3 012111   200540 755100                    STA     CHIP#+6,,AUTO
         3 012112   000012 402003                    MPY     10,DU
         3 012113   000437 036000 4                  ADLQ    287
         3 012114   200540 235100                    LDA     CHIP#+6,,AUTO
         3 012115   200544 757100                    STAQ    CHIP#+10,,AUTO
         3 012116   200536 237100                    LDAQ    CHIP#+4,,AUTO
         3 012117   200542 757100                    STAQ    CHIP#+8,,AUTO
         3 012120   200544 237100                    LDAQ    CHIP#+10,,AUTO
         3 012121   200546 757100                    STAQ    CHIP#+12,,AUTO
         3 012122   200546 630500                    EPPR0   CHIP#+12,,AUTO
         3 012123   200552 450500                    STP0    CHIP#+16,,AUTO
         3 012124   200542 631500                    EPPR1   CHIP#+8,,AUTO
         3 012125   200551 451500                    STP1    CHIP#+15,,AUTO
         3 012126   000440 236000 4                  LDQ     288
         3 012127   200550 756100                    STQ     CHIP#+14,,AUTO
         3 012130   200550 630500                    EPPR0   CHIP#+14,,AUTO
         3 012131   000021 631400 xsym               EPPR1   B_VECTNIL+17
         3 012132   000000 701000 xent               TSX1    THW$WRITE
         3 012133   000000 011000                    NOP     0

     1852     5158    6               END; /*  do i = 0 to num_xstatus */

   5158  3 012134   200010 054100                    AOS     I,,AUTO
         3 012135   200010 236100                    LDQ     I,,AUTO
         3 012136   012100 604000 3                  TMI     s:5157
         3 012137   200510 116100                    CMPQ    NUM_XSTATUS,,AUTO
         3 012140   012100 602000 3                  TNC     s:5157

     1853     5159    5            END; /* if num_xstatus > 0 */

     1854     5160    4         END; /* if ctl.special */

     1855     5161    3         IF TH_EOF_FLG THEN RETURN;

   5161  3 012141   000000 234000 xsym               SZN     TH_EOF_FLG
PL6.E3A0      #001=THF$RAW File=THF$FORMAT.:E05TSI                               WED 07/30/97 06:08 Page:366
         3 012142   012145 605000 3                  TPL     s:5162

   5161  3 012143   200524 221300                    LDX1  ! NINE_TRACK_BLNK+8,,AUTO
         3 012144   000001 702211                    TSX2  ! 1,X1

     1856     5162    3         CALL INIT_TABLES;  /* call procedure to initialize tables */

   5162  3 012145   014433 701000 3                  TSX1    INIT_TABLES
         3 012146   000000 011000                    NOP     0

     1857     5163    3         IF EL$IOERR.DEVNM ~= IOERR_TBL.DEVNM THEN

   5163  3 012147   200005 470500                    LDP0    INFO+1,,AUTO
         3 012150   040000 106500                    CMPC    fill='040'O
         3 012151   000024 000010                    ADSC9   20,,PR0                  cn=0,n=8
         3 012152   007556 000010 2                  ADSC9   IOERR_TBL+20             cn=0,n=8
         3 012153   012164 600000 3                  TZE     s:5165

     1858     5164    3              CALL THW$WRITE(COMPONENT_FMT,INFO);

   5164  3 012154   200004 631500                    EPPR1   INFO,,AUTO
         3 012155   200535 451500                    STP1    CHIP#+3,,AUTO
         3 012156   000416 236000 4                  LDQ     270
         3 012157   200534 756100                    STQ     CHIP#+2,,AUTO
         3 012160   200534 630500                    EPPR0   CHIP#+2,,AUTO
         3 012161   000020 631400 xsym               EPPR1   B_VECTNIL+16
         3 012162   000000 701000 xent               TSX1    THW$WRITE
         3 012163   000000 011000                    NOP     0

     1859     5165    3            IOERR_TBL = EL$IOERR;  /* save new data record */

   5165  3 012164   200005 470500                    LDP0    INFO+1,,AUTO
         3 012165   000000 100500                    MLR     fill='000'O
         3 012166   000000 000170                    ADSC9   0,,PR0                   cn=0,n=120
         3 012167   007532 000170 2                  ADSC9   IOERR_TBL                cn=0,n=120

     1860     5166    3            OTHER_IOERR_TBL.COUNT = OTHER_IOERR_TBL.COUNT + 1;
PL6.E3A0      #001=THF$RAW File=THF$FORMAT.:E05TSI                               WED 07/30/97 06:08 Page:367

   5166  3 012170   003332 235000 2                  LDA     OTHER_IOERR_TBL
         3 012171   000001 035007                    ADLA    1,DL
         3 012172   003332 755000 2                  STA     OTHER_IOERR_TBL

     1861     5167    3      END;  /* do never */

     1862     5168    2   FIND_STATUS_ETC: TEMP_STATUS = EL$IOERR.STATUS;

   5168  3 012173   200005 470500       FIND_STATUS* LDP0    INFO+1,,AUTO
         3 012174   000000 100500                    MLR     fill='000'O
         3 012175   000001 000010                    ADSC9   1,,PR0                   cn=0,n=8
         3 012176   000054 000010 2                  ADSC9   TEMP_STATUS              cn=0,n=8

     1863     5169    3         IF TEMP_STATUS1.MAJOR_STATUS = '101111'B THEN DO;

   5169  3 012177   000054 236000 2                  LDQ     TEMP_STATUS
         3 012200   770000 376003                    ANQ     -4096,DU
         3 012201   570000 116003                    CMPQ    -69632,DU
         3 012202   012214 601000 3                  TNZ     s:5174

     1864     5170    3            TEMP_STATUS1.XX = TEMP_STATUS1.FAULT_CODE;

   5170  3 012203   000055 236000 2                  LDQ     TEMP_STATUS+1
         3 012204   000030 736000                    QLS     24
         3 012205   000054 752020 2                  STCQ    TEMP_STATUS,'20'O

     1865     5171    3            TEMP_STATUS1.YY = TEMP_STATUS1.CHANNEL;

   5171  3 012206   000055 236000 2                  LDQ     TEMP_STATUS+1
         3 012207   000006 772000                    QRL     6
         3 012210   000054 752004 2                  STCQ    TEMP_STATUS,'04'O

     1866     5172    3            EL$IOERR.STATUS = TEMP_STATUS;

   5172  3 012211   000054 237000 2                  LDAQ    TEMP_STATUS
         3 012212   000001 755100                    STA     1,,PR0
PL6.E3A0      #001=THF$RAW File=THF$FORMAT.:E05TSI                               WED 07/30/97 06:08 Page:368
         3 012213   000002 756100                    STQ     2,,PR0

     1867     5173    3         END;

     1868     5174    2         CALL THF$STATUS(EL$IOERR,MAJBUF,MAJCNT,MINBUF,MINCNT) ALTRET(SORRY_NO_STATS);

   5174  3 012214   200367 630500                    EPPR0   MINCNT,,AUTO
         3 012215   200540 450500                    STP0    CHIP#+6,,AUTO
         3 012216   200356 631500                    EPPR1   MINBUF,,AUTO
         3 012217   200537 451500                    STP1    CHIP#+5,,AUTO
         3 012220   200366 633500                    EPPR3   MAJCNT,,AUTO
         3 012221   200536 453500                    STP3    CHIP#+4,,AUTO
         3 012222   200346 634500                    EPPR4   MAJBUF,,AUTO
         3 012223   200535 454500                    STP4    CHIP#+3,,AUTO
         3 012224   200005 236100                    LDQ     INFO+1,,AUTO
         3 012225   200534 756100                    STQ     CHIP#+2,,AUTO
         3 012226   200534 630500                    EPPR0   CHIP#+2,,AUTO
         3 012227   000023 631400 xsym               EPPR1   B_VECTNIL+19
         3 012230   000000 701000 xent               TSX1    THF$STATUS
         3 012231   012257 702000 3                  TSX2    SORRY_NO_STATS

     1869     5175    2         CALL THF$ADD_TEXTC(MM$,MAJBUF,MAJCNT);

   5175  3 012232   200366 630500                    EPPR0   MAJCNT,,AUTO
         3 012233   200536 450500                    STP0    CHIP#+4,,AUTO
         3 012234   200346 631500                    EPPR1   MAJBUF,,AUTO
         3 012235   200535 451500                    STP1    CHIP#+3,,AUTO
         3 012236   200370 633500                    EPPR3   MM$,,AUTO
         3 012237   200534 453500                    STP3    CHIP#+2,,AUTO
         3 012240   200534 630500                    EPPR0   CHIP#+2,,AUTO
         3 012241   000021 631400 xsym               EPPR1   B_VECTNIL+17
         3 012242   000000 701000 xent               TSX1    THF$ADD_TEXTC
         3 012243   000000 011000                    NOP     0

     1870     5176    2         CALL THF$ADD_TEXTC(MM$,MINBUF,MINCNT);

   5176  3 012244   200367 630500                    EPPR0   MINCNT,,AUTO
PL6.E3A0      #001=THF$RAW File=THF$FORMAT.:E05TSI                               WED 07/30/97 06:08 Page:369
         3 012245   200536 450500                    STP0    CHIP#+4,,AUTO
         3 012246   200356 631500                    EPPR1   MINBUF,,AUTO
         3 012247   200535 451500                    STP1    CHIP#+3,,AUTO
         3 012250   200370 633500                    EPPR3   MM$,,AUTO
         3 012251   200534 453500                    STP3    CHIP#+2,,AUTO
         3 012252   200534 630500                    EPPR0   CHIP#+2,,AUTO
         3 012253   000021 631400 xsym               EPPR1   B_VECTNIL+17
         3 012254   000000 701000 xent               TSX1    THF$ADD_TEXTC
         3 012255   000000 011000                    NOP     0

     1871     5177
     1872     5178    3      DO NEVER;

   5178  3 012256   012320 710000 3                  TRA     s:5185

     1873     5179    3   SORRY_NO_STATS: CALL THF$ADD_TEXTC(MM$,'***',3);

   5179  3 012257   000100 236000 4     SORRY_NO_ST* LDQ     64
         3 012260   200536 756100                    STQ     CHIP#+4,,AUTO
         3 012261   000305 236000 4                  LDQ     197
         3 012262   200535 756100                    STQ     CHIP#+3,,AUTO
         3 012263   200370 630500                    EPPR0   MM$,,AUTO
         3 012264   200534 450500                    STP0    CHIP#+2,,AUTO
         3 012265   200534 630500                    EPPR0   CHIP#+2,,AUTO
         3 012266   000021 631400 xsym               EPPR1   B_VECTNIL+17
         3 012267   000000 701000 xent               TSX1    THF$ADD_TEXTC
         3 012270   000000 011000                    NOP     0

     1874     5180    3                   CALL THF$ADD_TEXTC(MM$,'***',3);

   5180  3 012271   000100 236000 4                  LDQ     64
         3 012272   200536 756100                    STQ     CHIP#+4,,AUTO
         3 012273   000305 236000 4                  LDQ     197
         3 012274   200535 756100                    STQ     CHIP#+3,,AUTO
         3 012275   200370 630500                    EPPR0   MM$,,AUTO
         3 012276   200534 450500                    STP0    CHIP#+2,,AUTO
         3 012277   200534 630500                    EPPR0   CHIP#+2,,AUTO
PL6.E3A0      #001=THF$RAW File=THF$FORMAT.:E05TSI                               WED 07/30/97 06:08 Page:370
         3 012300   000021 631400 xsym               EPPR1   B_VECTNIL+17
         3 012301   000000 701000 xent               TSX1    THF$ADD_TEXTC
         3 012302   000000 011000                    NOP     0

     1875     5181    3                   MMVEC = VECTOR(MMBUF);

   5181  3 012303   000306 237000 4                  LDAQ    198
         3 012304   200372 757100                    STAQ    MMVEC,,AUTO

     1876     5182    3                   MMVEC.BOUND = POFFC(MM$,ADDR(MMBUF)) - 1;

   5182  3 012305   000012 236000 4                  LDQ     10
         3 012306   000020 772000                    QRL     16
         3 012307   200534 756100                    STQ     CHIP#+2,,AUTO
         3 012310   200370 236100                    LDQ     MM$,,AUTO
         3 012311   000020 772000                    QRL     16
         3 012312   200534 136100                    SBLQ    CHIP#+2,,AUTO
         3 012313   000001 136007                    SBLQ    1,DL
         3 012314   000020 736000                    QLS     16
         3 012315   200372 676100                    ERQ     MMVEC,,AUTO
         3 012316   000034 376000 xsym               ANQ     B_VECTNIL+28
         3 012317   200372 656100                    ERSQ    MMVEC,,AUTO

     1877     5183    3      END;  /* do never */

     1878     5184
     1879     5185    2      NXST = 0;

   5185  3 012320   200343 450100                    STZ     NXST,,AUTO

     1880     5186    2      DEV_FLAG = %FALSE;

   5186  3 012321   200214 450100                    STZ     DEV_FLAG,,AUTO

     1881     5187    3      DO I = 0 TO NUMMODELS;

   5187  3 012322   200010 450100                    STZ     I,,AUTO
PL6.E3A0      #001=THF$RAW File=THF$FORMAT.:E05TSI                               WED 07/30/97 06:08 Page:371

     1882     5188    4         IF EL$IOERR.MODEL = X_DEV_TYPE.DEV(I) THEN DO;

   5188  3 012323   200010 235100                    LDA     I,,AUTO
         3 012324   000004 735000                    ALS     4
         3 012325   200005 470500                    LDP0    INFO+1,,AUTO
         3 012326   040005 106500                    CMPC    fill='040'O
         3 012327   000030 000010                    ADSC9   24,,PR0                  cn=0,n=8
         3 012330   000000 000010 xsym               ADSC9   X_DEV_TYPE,A             cn=0,n=8
         3 012331   012401 601000 3                  TNZ     s:5202

     1883     5189    4            IO_MASK = EL$IOERR.EXTST;

   5189  3 012332   000100 100500                    MLR     fill='000'O
         3 012333   000013 000040                    ADSC9   11,,PR0                  cn=0,n=32
         3 012334   200221 000040                    ADSC9   IO_MASK,,AUTO            cn=0,n=32

     1884     5190    4            IF IO_MASK1 THEN;

   5190  3 012335   000000 106500                    CMPC    fill='000'O
         3 012336   200221 000040                    ADSC9   IO_MASK,,AUTO            cn=0,n=32
         3 012337   000002 000002 xsym               ADSC9   B_VECTNIL+2              cn=0,n=2
         3 012340   013603 600000 3                  TZE     NO_INT

   5185  3 012341   012342 710000 3                  TRA     s:5192

     1885     5191    4            ELSE GOTO NO_INT;
     1886     5192    4              IF EL$IOERR.MODEL = 'MTU0610' AND IO_MASK1(53) AND IO_MASK1(54)

   5192  3 012342   040000 106500                    CMPC    fill='040'O
         3 012343   000030 000010                    ADSC9   24,,PR0                  cn=0,n=8
         3 012344   001617 000007 1                  ADSC9   BOARD_64K+464            cn=0,n=7
         3 012345   012354 601000 3                  TNZ     s:5194
         3 012346   200222 236100                    LDQ     IO_MASK+1,,AUTO
         3 012347   000001 316003                    CANQ    1,DU
         3 012350   012354 600000 3                  TZE     s:5194
         3 012351   400000 316007                    CANQ    -131072,DL
PL6.E3A0      #001=THF$RAW File=THF$FORMAT.:E05TSI                               WED 07/30/97 06:08 Page:372
         3 012352   012354 600000 3                  TZE     s:5194

     1887     5193    4              THEN I = I + 1;

   5193  3 012353   200010 054100                    AOS     I,,AUTO

     1888     5194    4              IF EL$IOERR.MODEL = 'MTU0400' THEN I = I + 1;

   5194  3 012354   040000 106500                    CMPC    fill='040'O
         3 012355   000030 000010                    ADSC9   24,,PR0                  cn=0,n=8
         3 012356   001623 000007 1                  ADSC9   BOARD_64K+468            cn=0,n=7
         3 012357   012361 601000 3                  TNZ     s:5195

   5194  3 012360   200010 054100                    AOS     I,,AUTO

     1889     5195    4              IF EL$IOERR.MODEL = 'MTU8200'

   5195  3 012361   040000 106500                    CMPC    fill='040'O
         3 012362   000030 000010                    ADSC9   24,,PR0                  cn=0,n=8
         3 012363   001621 000007 1                  ADSC9   BOARD_64K+466            cn=0,n=7
         3 012364   012367 601000 3                  TNZ     s:5197

     1890     5196    4              THEN FIPS_TAPE = %TRUE;

   5196  3 012365   400000 236003                    LDQ     -131072,DU
         3 012366   200277 756100                    STQ     FIPS_TAPE,,AUTO

     1891     5197    4            DEV$ = X_DEV_TYPE.SUB$(I);

   5197  3 012367   200010 235100                    LDA     I,,AUTO
         3 012370   000002 735000                    ALS     2
         3 012371   000002 236005 xsym               LDQ     X_DEV_TYPE+2,AL
         3 012372   200215 756100                    STQ     DEV$,,AUTO

     1892     5198    4            DEV_FLAG = %TRUE;

   5198  3 012373   400000 236003                    LDQ     -131072,DU
PL6.E3A0      #001=THF$RAW File=THF$FORMAT.:E05TSI                               WED 07/30/97 06:08 Page:373
         3 012374   200214 756100                    STQ     DEV_FLAG,,AUTO

     1893     5199    4            J = X_DEV_TYPE.COUNT(I);

   5199  3 012375   000003 236005 xsym               LDQ     X_DEV_TYPE+3,AL
         3 012376   000033 772000                    QRL     27
         3 012377   200100 756100                    STQ     J,,AUTO

     1894     5200    4            GOTO FOUND_XSTATS;

   5200  3 012400   012406 710000 3                  TRA     FOUND_XSTATS

     1895     5201    4         END;
     1896     5202    3      END;   /* do i = 0 to 19 */

   5202  3 012401   200010 054100                    AOS     I,,AUTO
         3 012402   200010 235100                    LDA     I,,AUTO
         3 012403   000035 115007                    CMPA    29,DL
         3 012404   012323 604400 3                  TMOZ    s:5188

     1897     5203    2      GOTO NO_INT;

   5203  3 012405   013603 710000 3                  TRA     NO_INT

     1898     5204    3   FOUND_XSTATS:   IF DEV_FLAG THEN DO;

   5204  3 012406   200214 234100       FOUND_XSTATS SZN     DEV_FLAG,,AUTO
         3 012407   013672 605000 3                  TPL     s:5334

     1899     5205    3        IO_MASK = EL$IOERR.EXTST;

   5205  3 012410   000100 100500                    MLR     fill='000'O
         3 012411   000013 000040                    ADSC9   11,,PR0                  cn=0,n=32
         3 012412   200221 000040                    ADSC9   IO_MASK,,AUTO            cn=0,n=32

     1900     5206    3        MODEL_CHAR = EL$IOERR.MODEL;

PL6.E3A0      #001=THF$RAW File=THF$FORMAT.:E05TSI                               WED 07/30/97 06:08 Page:374
   5206  3 012413   000030 236100                    LDQ     24,,PR0
         3 012414   000134 376000 4                  ANQ     92
         3 012415   000040 276007                    ORQ     32,DL
         3 012416   200220 756100                    STQ     MODEL_CHAR,,AUTO

     1901     5207    4          DO I = 0 TO J; /* go through device's text tables */

   5207  3 012417   200010 450100                    STZ     I,,AUTO
         3 012420   013577 710000 3                  TRA     s:5317+1

     1902     5208    4            IF (((MODEL_CHAR = 'MTU')AND NOT FIPS_TAPE AND

   5208  3 012421   200220 236100                    LDQ     MODEL_CHAR,,AUTO
         3 012422   001617 676000 1                  ERQ     BOARD_64K+464
         3 012423   000134 376000 4                  ANQ     92
         3 012424   012460 601000 3                  TNZ     s:5208+31
         3 012425   200277 234100                    SZN     FIPS_TAPE,,AUTO
         3 012426   012460 604000 3                  TMI     s:5208+31
         3 012427   200010 236100                    LDQ     I,,AUTO
         3 012430   000012 402007                    MPY     10,DL
         3 012431   200215 470500                    LDP0    DEV$,,AUTO
         3 012432   000000 236106                    LDQ     0,QL,PR0
         3 012433   777000 376003                    ANQ     -512,DU
         3 012434   020000 116003                    CMPQ    8192,DU
         3 012435   012474 600000 3                  TZE     s:5213
         3 012436   200010 236100                    LDQ     I,,AUTO
         3 012437   000012 402007                    MPY     10,DL
         3 012440   000000 236106                    LDQ     0,QL,PR0
         3 012441   777000 376003                    ANQ     -512,DU
         3 012442   024000 116003                    CMPQ    10240,DU
         3 012443   012474 600000 3                  TZE     s:5213
         3 012444   200010 236100                    LDQ     I,,AUTO
         3 012445   000012 402007                    MPY     10,DL
         3 012446   000000 236106                    LDQ     0,QL,PR0
         3 012447   777000 376003                    ANQ     -512,DU
         3 012450   033000 116003                    CMPQ    13824,DU
         3 012451   012474 600000 3                  TZE     s:5213
PL6.E3A0      #001=THF$RAW File=THF$FORMAT.:E05TSI                               WED 07/30/97 06:08 Page:375
         3 012452   200010 236100                    LDQ     I,,AUTO
         3 012453   000012 402007                    MPY     10,DL
         3 012454   000000 236106                    LDQ     0,QL,PR0
         3 012455   777000 376003                    ANQ     -512,DU
         3 012456   043000 116003                    CMPQ    17920,DU
         3 012457   012474 600000 3                  TZE     s:5213
         3 012460   200005 470500                    LDP0    INFO+1,,AUTO
         3 012461   040000 106500                    CMPC    fill='040'O
         3 012462   000030 000010                    ADSC9   24,,PR0                  cn=0,n=8
         3 012463   001623 000007 1                  ADSC9   BOARD_64K+468            cn=0,n=7
         3 012464   012760 601000 3                  TNZ     s:5248
         3 012465   200010 236100                    LDQ     I,,AUTO
         3 012466   000012 402007                    MPY     10,DL
         3 012467   200215 471500                    LDP1    DEV$,,AUTO
         3 012470   100000 236106                    LDQ     0,QL,PR1
         3 012471   777000 376003                    ANQ     -512,DU
         3 012472   140000 116003                    CMPQ    49152,DU
         3 012473   012760 601000 3                  TNZ     s:5248

     1903     5209    4               (DEVTBL.CODE(I) = 16 OR DEVTBL.CODE(I) = 20
     1904     5210    4                 OR DEVTBL.CODE(I) = 27 OR DEVTBL.CODE(I) = 35))
     1905     5211    4               OR (EL$IOERR.MODEL = 'MTU0400' AND DEVTBL.CODE(I) = 96))
     1906     5212    5            THEN DO;

     1907     5213    6              DO CASE(DEVTBL.CODE(I));

   5213  3 012474   200010 236100                    LDQ     I,,AUTO
         3 012475   000012 402007                    MPY     10,DL
         3 012476   200215 470500                    LDP0    DEV$,,AUTO
         3 012477   000000 236106                    LDQ     0,QL,PR0
         3 012500   000033 772000                    QRL     27
         3 012501   000020 136007                    SBLQ    16,DL
         3 012502   000121 116007                    CMPQ    81,DL
         3 012503   012505 602006 3                  TNC     s:5213+9,QL
         3 012504   012644 710000 3                  TRA     s:5225
         3 012505   012626 710000 3                  TRA     s:5215
         3 012506   012644 710000 3                  TRA     s:5225
PL6.E3A0      #001=THF$RAW File=THF$FORMAT.:E05TSI                               WED 07/30/97 06:08 Page:376
         3 012507   012644 710000 3                  TRA     s:5225
         3 012510   012644 710000 3                  TRA     s:5225
         3 012511   012631 710000 3                  TRA     s:5217
         3 012512   012644 710000 3                  TRA     s:5225
         3 012513   012644 710000 3                  TRA     s:5225
         3 012514   012644 710000 3                  TRA     s:5225
         3 012515   012644 710000 3                  TRA     s:5225
         3 012516   012644 710000 3                  TRA     s:5225
         3 012517   012644 710000 3                  TRA     s:5225
         3 012520   012634 710000 3                  TRA     s:5219
         3 012521   012644 710000 3                  TRA     s:5225
         3 012522   012644 710000 3                  TRA     s:5225
         3 012523   012644 710000 3                  TRA     s:5225
         3 012524   012644 710000 3                  TRA     s:5225
         3 012525   012644 710000 3                  TRA     s:5225
         3 012526   012644 710000 3                  TRA     s:5225
         3 012527   012644 710000 3                  TRA     s:5225
         3 012530   012637 710000 3                  TRA     s:5221
         3 012531   012644 710000 3                  TRA     s:5225
         3 012532   012644 710000 3                  TRA     s:5225
         3 012533   012644 710000 3                  TRA     s:5225
         3 012534   012644 710000 3                  TRA     s:5225
         3 012535   012644 710000 3                  TRA     s:5225
         3 012536   012644 710000 3                  TRA     s:5225
         3 012537   012644 710000 3                  TRA     s:5225
         3 012540   012644 710000 3                  TRA     s:5225
         3 012541   012644 710000 3                  TRA     s:5225
         3 012542   012644 710000 3                  TRA     s:5225
         3 012543   012644 710000 3                  TRA     s:5225
         3 012544   012644 710000 3                  TRA     s:5225
         3 012545   012644 710000 3                  TRA     s:5225
         3 012546   012644 710000 3                  TRA     s:5225
         3 012547   012644 710000 3                  TRA     s:5225
         3 012550   012644 710000 3                  TRA     s:5225
         3 012551   012644 710000 3                  TRA     s:5225
         3 012552   012644 710000 3                  TRA     s:5225
         3 012553   012644 710000 3                  TRA     s:5225
PL6.E3A0      #001=THF$RAW File=THF$FORMAT.:E05TSI                               WED 07/30/97 06:08 Page:377
         3 012554   012644 710000 3                  TRA     s:5225
         3 012555   012644 710000 3                  TRA     s:5225
         3 012556   012644 710000 3                  TRA     s:5225
         3 012557   012644 710000 3                  TRA     s:5225
         3 012560   012644 710000 3                  TRA     s:5225
         3 012561   012644 710000 3                  TRA     s:5225
         3 012562   012644 710000 3                  TRA     s:5225
         3 012563   012644 710000 3                  TRA     s:5225
         3 012564   012644 710000 3                  TRA     s:5225
         3 012565   012644 710000 3                  TRA     s:5225
         3 012566   012644 710000 3                  TRA     s:5225
         3 012567   012644 710000 3                  TRA     s:5225
         3 012570   012644 710000 3                  TRA     s:5225
         3 012571   012644 710000 3                  TRA     s:5225
         3 012572   012644 710000 3                  TRA     s:5225
         3 012573   012644 710000 3                  TRA     s:5225
         3 012574   012644 710000 3                  TRA     s:5225
         3 012575   012644 710000 3                  TRA     s:5225
         3 012576   012644 710000 3                  TRA     s:5225
         3 012577   012644 710000 3                  TRA     s:5225
         3 012600   012644 710000 3                  TRA     s:5225
         3 012601   012644 710000 3                  TRA     s:5225
         3 012602   012644 710000 3                  TRA     s:5225
         3 012603   012644 710000 3                  TRA     s:5225
         3 012604   012644 710000 3                  TRA     s:5225
         3 012605   012644 710000 3                  TRA     s:5225
         3 012606   012644 710000 3                  TRA     s:5225
         3 012607   012644 710000 3                  TRA     s:5225
         3 012610   012644 710000 3                  TRA     s:5225
         3 012611   012644 710000 3                  TRA     s:5225
         3 012612   012644 710000 3                  TRA     s:5225
         3 012613   012644 710000 3                  TRA     s:5225
         3 012614   012644 710000 3                  TRA     s:5225
         3 012615   012644 710000 3                  TRA     s:5225
         3 012616   012644 710000 3                  TRA     s:5225
         3 012617   012644 710000 3                  TRA     s:5225
         3 012620   012644 710000 3                  TRA     s:5225
PL6.E3A0      #001=THF$RAW File=THF$FORMAT.:E05TSI                               WED 07/30/97 06:08 Page:378
         3 012621   012644 710000 3                  TRA     s:5225
         3 012622   012644 710000 3                  TRA     s:5225
         3 012623   012644 710000 3                  TRA     s:5225
         3 012624   012644 710000 3                  TRA     s:5225
         3 012625   012642 710000 3                  TRA     s:5223

     1908     5214    6                 CASE (16);

     1909     5215    6                    LENN = 3;

   5215  3 012626   000003 235007                    LDA     3,DL
         3 012627   200461 755100                    STA     LENN,,AUTO
         3 012630   012644 710000 3                  TRA     s:5225

     1910     5216    6                 CASE (20);

     1911     5217    6                    LENN = 4;

   5217  3 012631   000004 235007                    LDA     4,DL
         3 012632   200461 755100                    STA     LENN,,AUTO
         3 012633   012644 710000 3                  TRA     s:5225

     1912     5218    6                 CASE (27);

     1913     5219    6                    LENN = 5;

   5219  3 012634   000005 235007                    LDA     5,DL
         3 012635   200461 755100                    STA     LENN,,AUTO
         3 012636   012644 710000 3                  TRA     s:5225

     1914     5220    6                 CASE (35);

     1915     5221    6                    LENN = 5;

   5221  3 012637   000005 235007                    LDA     5,DL
         3 012640   200461 755100                    STA     LENN,,AUTO
         3 012641   012644 710000 3                  TRA     s:5225
PL6.E3A0      #001=THF$RAW File=THF$FORMAT.:E05TSI                               WED 07/30/97 06:08 Page:379

     1916     5222    6                 CASE (96);

     1917     5223    6                    LENN = 4;

   5223  3 012642   000004 235007                    LDA     4,DL
         3 012643   200461 755100                    STA     LENN,,AUTO

     1918     5224    6              END;  /* do case */

     1919     5225    6              DO II = 0 TO LENN -1;

   5225  3 012644   200454 450100                    STZ     II,,AUTO
         3 012645   012673 710000 3                  TRA     s:5229+2

     1920     5226    6                IF IO_MASK1(DEVTBL.CODE(I) + II)

   5226  3 012646   200010 236100                    LDQ     I,,AUTO
         3 012647   000012 402007                    MPY     10,DL
         3 012650   200215 470500                    LDP0    DEV$,,AUTO
         3 012651   000000 236106                    LDQ     0,QL,PR0
         3 012652   000033 772000                    QRL     27
         3 012653   200454 036100                    ADLQ    II,,AUTO
         3 012654   000000 066506                    CMPB    filb='0'B
         3 012655   200221 000001                    BDSC    IO_MASK,Q,AUTO           by=0,bit=0,n=1
         3 012656   000002 000022 xsym               BDSC    B_VECTNIL+2              by=0,bit=0,n=18
         3 012657   012665 600000 3                  TZE     s:5228

     1921     5227    6                   THEN SP_BIT(II) = '1';

   5227  3 012660   200454 235100                    LDA     II,,AUTO
         3 012661   040005 100400                    MLR     fill='040'O
         3 012662   000311 000001 4                  ADSC9   201                      cn=0,n=1
         3 012663   003253 000001 2                  ADSC9   SP_BIT,A                 cn=0,n=1
         3 012664   012671 710000 3                  TRA     s:5229

     1922     5228    6                   ELSE SP_BIT(II) = '0';
PL6.E3A0      #001=THF$RAW File=THF$FORMAT.:E05TSI                               WED 07/30/97 06:08 Page:380

   5228  3 012665   200454 235100                    LDA     II,,AUTO
         3 012666   040005 100400                    MLR     fill='040'O
         3 012667   000127 000001 4                  ADSC9   87                       cn=0,n=1
         3 012670   003253 000001 2                  ADSC9   SP_BIT,A                 cn=0,n=1

     1923     5229    6              END;  /* do II */

   5229  3 012671   000001 035007                    ADLA    1,DL
         3 012672   200454 755100                    STA     II,,AUTO
         3 012673   200454 236100                    LDQ     II,,AUTO
         3 012674   200461 116100                    CMPQ    LENN,,AUTO
         3 012675   012646 602000 3                  TNC     s:5226

     1924     5230    6              DO II = 0 TO 4;

   5230  3 012676   200454 450100                    STZ     II,,AUTO

     1925     5231    6                IF DEVTBL.CODE(I) = SP_CASES.BYTEN(II)

   5231  3 012677   200454 236100                    LDQ     II,,AUTO
         3 012700   000003 402007                    MPY     3,DL
         3 012701   000000 620006                    EAX0    0,QL
         3 012702   200010 236100                    LDQ     I,,AUTO
         3 012703   000012 402007                    MPY     10,DL
         3 012704   200215 470500                    LDP0    DEV$,,AUTO
         3 012705   000000 236106                    LDQ     0,QL,PR0
         3 012706   000000 676010 xsym               ERQ     SP_CASES,X0
         3 012707   777000 376003                    ANQ     -512,DU
         3 012710   012717 601000 3                  TNZ     s:5237

     1926     5232    7                THEN DO;

     1927     5233    7                   SPC$ = SP_CASES.SUB$(II);

   5233  3 012711   000001 236010 xsym               LDQ     SP_CASES+1,X0
         3 012712   200462 756100                    STQ     SPC$,,AUTO
PL6.E3A0      #001=THF$RAW File=THF$FORMAT.:E05TSI                               WED 07/30/97 06:08 Page:381

     1928     5234    7                   JJ = SP_CASES.COUNT(II);

   5234  3 012713   000002 236010 xsym               LDQ     SP_CASES+2,X0
         3 012714   000033 772000                    QRL     27
         3 012715   200455 756100                    STQ     JJ,,AUTO

     1929     5235    7                   GOTO FOUND_SP;

   5235  3 012716   012724 710000 3                  TRA     FOUND_SP

     1930     5236    7                END;  /* if devtbl.code(i) = sp_cases.byten(ii) */
     1931     5237    6              END; /* do II = 0 to 4 */

   5237  3 012717   200454 235100                    LDA     II,,AUTO
         3 012720   000001 035007                    ADLA    1,DL
         3 012721   200454 755100                    STA     II,,AUTO
         3 012722   000005 115007                    CMPA    5,DL
         3 012723   012677 602000 3                  TNC     s:5231

     1932     5238    5   FOUND_SP:
     1933     5239    6              DO II = 0 TO JJ;

   5239  3 012724   200454 450100       FOUND_SP     STZ     II,,AUTO
         3 012725   012754 710000 3                  TRA     s:5246+3

     1934     5240    6                IF SP_CHAR = SPTBL.CODE(II)

   5240  3 012726   200454 236100                    LDQ     II,,AUTO
         3 012727   000054 402007                    MPY     44,DL
         3 012730   003255 470400 2                  LDP0    SPBIT$
         3 012731   200461 720100                    LXL0    LENN,,AUTO
         3 012732   200462 471500                    LDP1    SPC$,,AUTO
         3 012733   040106 106540                    CMPC    fill='040'O
         3 012734   000000 000010                    ADSC9   0,,PR0                   cn=0,n=*X0
         3 012735   100000 000005                    ADSC9   0,Q,PR1                  cn=0,n=5
         3 012736   012751 601000 3                  TNZ     s:5246
PL6.E3A0      #001=THF$RAW File=THF$FORMAT.:E05TSI                               WED 07/30/97 06:08 Page:382

     1935     5241    7                THEN DO;

     1936     5242    7                    XST_TEXT = SPTBL.TEXT(II);

   5242  3 012737   040100 100506                    MLR     fill='040'O
         3 012740   100001 400043                    ADSC9   1,Q,PR1                  cn=2,n=35
         3 012741   200304 000043                    ADSC9   XST_TEXT,,AUTO           cn=0,n=35

     1937     5243    7                    XST_CNT = SPTBL.COUNT(II);

   5243  3 012742   200454 236100                    LDQ     II,,AUTO
         3 012743   000013 402007                    MPY     11,DL
         3 012744   100001 236106                    LDQ     1,QL,PR1
         3 012745   000022 772000                    QRL     18
         3 012746   000777 376007                    ANQ     511,DL
         3 012747   200342 756100                    STQ     XST_CNT,,AUTO

     1938     5244    7                    GOTO CONT_NEXT_I;

   5244  3 012750   013320 710000 3                  TRA     CONT_NEXT_I

     1939     5245    7                END;   /* if sp_char = sptbl.code(ii) */
     1940     5246    6              END;  /* do ii = 0 to jj */

   5246  3 012751   200454 235100                    LDA     II,,AUTO
         3 012752   000001 035007                    ADLA    1,DL
         3 012753   200454 755100                    STA     II,,AUTO
         3 012754   200455 236100                    LDQ     JJ,,AUTO
         3 012755   200454 116100                    CMPQ    II,,AUTO
         3 012756   012726 603000 3                  TRC     s:5240

     1941     5247    5            END; /* if model_char='MTU'... */

   5247  3 012757   013576 710000 3                  TRA     s:5317

     1942     5248    4            ELSE IF FIPS_TAPE AND ((DEVTBL.CODE(I)=29)OR(DEVTBL.CODE(I)=53)OR(DEVTBL.
PL6.E3A0      #001=THF$RAW File=THF$FORMAT.:E05TSI                               WED 07/30/97 06:08 Page:383
              5248                     CODE(I)=176))

   5248  3 012760   200277 234100                    SZN     FIPS_TAPE,,AUTO
         3 012761   013274 605000 3                  TPL     s:5265
         3 012762   200010 236100                    LDQ     I,,AUTO
         3 012763   000012 402007                    MPY     10,DL
         3 012764   200215 471500                    LDP1    DEV$,,AUTO
         3 012765   100000 236106                    LDQ     0,QL,PR1
         3 012766   777000 376003                    ANQ     -512,DU
         3 012767   035000 116003                    CMPQ    14848,DU
         3 012770   013005 600000 3                  TZE     s:5249
         3 012771   200010 236100                    LDQ     I,,AUTO
         3 012772   000012 402007                    MPY     10,DL
         3 012773   100000 236106                    LDQ     0,QL,PR1
         3 012774   777000 376003                    ANQ     -512,DU
         3 012775   065000 116003                    CMPQ    27136,DU
         3 012776   013005 600000 3                  TZE     s:5249
         3 012777   200010 236100                    LDQ     I,,AUTO
         3 013000   000012 402007                    MPY     10,DL
         3 013001   100000 236106                    LDQ     0,QL,PR1
         3 013002   777000 376003                    ANQ     -512,DU
         3 013003   260000 116003                    CMPQ    90112,DU
         3 013004   013274 601000 3                  TNZ     s:5265

     1943     5249    5            THEN DO CASE(DEVTBL.CODE(I));

   5249  3 013005   200010 236100                    LDQ     I,,AUTO
         3 013006   000012 402007                    MPY     10,DL
         3 013007   100000 236106                    LDQ     0,QL,PR1
         3 013010   000033 772000                    QRL     27
         3 013011   000035 136007                    SBLQ    29,DL
         3 013012   000224 116007                    CMPQ    148,DL
         3 013013   013015 602006 3                  TNC     s:5249+8,QL
         3 013014   013576 710000 3                  TRA     s:5317
         3 013015   013241 710000 3                  TRA     s:5251
         3 013016   013273 710000 3                  TRA     s:5263
         3 013017   013273 710000 3                  TRA     s:5263
PL6.E3A0      #001=THF$RAW File=THF$FORMAT.:E05TSI                               WED 07/30/97 06:08 Page:384
         3 013020   013273 710000 3                  TRA     s:5263
         3 013021   013273 710000 3                  TRA     s:5263
         3 013022   013273 710000 3                  TRA     s:5263
         3 013023   013273 710000 3                  TRA     s:5263
         3 013024   013273 710000 3                  TRA     s:5263
         3 013025   013273 710000 3                  TRA     s:5263
         3 013026   013273 710000 3                  TRA     s:5263
         3 013027   013273 710000 3                  TRA     s:5263
         3 013030   013273 710000 3                  TRA     s:5263
         3 013031   013273 710000 3                  TRA     s:5263
         3 013032   013273 710000 3                  TRA     s:5263
         3 013033   013273 710000 3                  TRA     s:5263
         3 013034   013273 710000 3                  TRA     s:5263
         3 013035   013273 710000 3                  TRA     s:5263
         3 013036   013273 710000 3                  TRA     s:5263
         3 013037   013273 710000 3                  TRA     s:5263
         3 013040   013273 710000 3                  TRA     s:5263
         3 013041   013273 710000 3                  TRA     s:5263
         3 013042   013273 710000 3                  TRA     s:5263
         3 013043   013273 710000 3                  TRA     s:5263
         3 013044   013273 710000 3                  TRA     s:5263
         3 013045   013244 710000 3                  TRA     s:5254
         3 013046   013273 710000 3                  TRA     s:5263
         3 013047   013273 710000 3                  TRA     s:5263
         3 013050   013273 710000 3                  TRA     s:5263
         3 013051   013273 710000 3                  TRA     s:5263
         3 013052   013273 710000 3                  TRA     s:5263
         3 013053   013273 710000 3                  TRA     s:5263
         3 013054   013273 710000 3                  TRA     s:5263
         3 013055   013273 710000 3                  TRA     s:5263
         3 013056   013273 710000 3                  TRA     s:5263
         3 013057   013273 710000 3                  TRA     s:5263
         3 013060   013273 710000 3                  TRA     s:5263
         3 013061   013273 710000 3                  TRA     s:5263
         3 013062   013273 710000 3                  TRA     s:5263
         3 013063   013273 710000 3                  TRA     s:5263
         3 013064   013273 710000 3                  TRA     s:5263
PL6.E3A0      #001=THF$RAW File=THF$FORMAT.:E05TSI                               WED 07/30/97 06:08 Page:385
         3 013065   013273 710000 3                  TRA     s:5263
         3 013066   013273 710000 3                  TRA     s:5263
         3 013067   013273 710000 3                  TRA     s:5263
         3 013070   013273 710000 3                  TRA     s:5263
         3 013071   013273 710000 3                  TRA     s:5263
         3 013072   013273 710000 3                  TRA     s:5263
         3 013073   013273 710000 3                  TRA     s:5263
         3 013074   013273 710000 3                  TRA     s:5263
         3 013075   013273 710000 3                  TRA     s:5263
         3 013076   013273 710000 3                  TRA     s:5263
         3 013077   013273 710000 3                  TRA     s:5263
         3 013100   013273 710000 3                  TRA     s:5263
         3 013101   013273 710000 3                  TRA     s:5263
         3 013102   013273 710000 3                  TRA     s:5263
         3 013103   013273 710000 3                  TRA     s:5263
         3 013104   013273 710000 3                  TRA     s:5263
         3 013105   013273 710000 3                  TRA     s:5263
         3 013106   013273 710000 3                  TRA     s:5263
         3 013107   013273 710000 3                  TRA     s:5263
         3 013110   013273 710000 3                  TRA     s:5263
         3 013111   013273 710000 3                  TRA     s:5263
         3 013112   013273 710000 3                  TRA     s:5263
         3 013113   013273 710000 3                  TRA     s:5263
         3 013114   013273 710000 3                  TRA     s:5263
         3 013115   013273 710000 3                  TRA     s:5263
         3 013116   013273 710000 3                  TRA     s:5263
         3 013117   013273 710000 3                  TRA     s:5263
         3 013120   013273 710000 3                  TRA     s:5263
         3 013121   013273 710000 3                  TRA     s:5263
         3 013122   013273 710000 3                  TRA     s:5263
         3 013123   013273 710000 3                  TRA     s:5263
         3 013124   013273 710000 3                  TRA     s:5263
         3 013125   013273 710000 3                  TRA     s:5263
         3 013126   013273 710000 3                  TRA     s:5263
         3 013127   013273 710000 3                  TRA     s:5263
         3 013130   013273 710000 3                  TRA     s:5263
         3 013131   013273 710000 3                  TRA     s:5263
PL6.E3A0      #001=THF$RAW File=THF$FORMAT.:E05TSI                               WED 07/30/97 06:08 Page:386
         3 013132   013273 710000 3                  TRA     s:5263
         3 013133   013273 710000 3                  TRA     s:5263
         3 013134   013273 710000 3                  TRA     s:5263
         3 013135   013273 710000 3                  TRA     s:5263
         3 013136   013273 710000 3                  TRA     s:5263
         3 013137   013273 710000 3                  TRA     s:5263
         3 013140   013273 710000 3                  TRA     s:5263
         3 013141   013273 710000 3                  TRA     s:5263
         3 013142   013273 710000 3                  TRA     s:5263
         3 013143   013273 710000 3                  TRA     s:5263
         3 013144   013273 710000 3                  TRA     s:5263
         3 013145   013273 710000 3                  TRA     s:5263
         3 013146   013273 710000 3                  TRA     s:5263
         3 013147   013273 710000 3                  TRA     s:5263
         3 013150   013273 710000 3                  TRA     s:5263
         3 013151   013273 710000 3                  TRA     s:5263
         3 013152   013273 710000 3                  TRA     s:5263
         3 013153   013273 710000 3                  TRA     s:5263
         3 013154   013273 710000 3                  TRA     s:5263
         3 013155   013273 710000 3                  TRA     s:5263
         3 013156   013273 710000 3                  TRA     s:5263
         3 013157   013273 710000 3                  TRA     s:5263
         3 013160   013273 710000 3                  TRA     s:5263
         3 013161   013273 710000 3                  TRA     s:5263
         3 013162   013273 710000 3                  TRA     s:5263
         3 013163   013273 710000 3                  TRA     s:5263
         3 013164   013273 710000 3                  TRA     s:5263
         3 013165   013273 710000 3                  TRA     s:5263
         3 013166   013273 710000 3                  TRA     s:5263
         3 013167   013273 710000 3                  TRA     s:5263
         3 013170   013273 710000 3                  TRA     s:5263
         3 013171   013273 710000 3                  TRA     s:5263
         3 013172   013273 710000 3                  TRA     s:5263
         3 013173   013273 710000 3                  TRA     s:5263
         3 013174   013273 710000 3                  TRA     s:5263
         3 013175   013273 710000 3                  TRA     s:5263
         3 013176   013273 710000 3                  TRA     s:5263
PL6.E3A0      #001=THF$RAW File=THF$FORMAT.:E05TSI                               WED 07/30/97 06:08 Page:387
         3 013177   013273 710000 3                  TRA     s:5263
         3 013200   013273 710000 3                  TRA     s:5263
         3 013201   013273 710000 3                  TRA     s:5263
         3 013202   013273 710000 3                  TRA     s:5263
         3 013203   013273 710000 3                  TRA     s:5263
         3 013204   013273 710000 3                  TRA     s:5263
         3 013205   013273 710000 3                  TRA     s:5263
         3 013206   013273 710000 3                  TRA     s:5263
         3 013207   013273 710000 3                  TRA     s:5263
         3 013210   013273 710000 3                  TRA     s:5263
         3 013211   013273 710000 3                  TRA     s:5263
         3 013212   013273 710000 3                  TRA     s:5263
         3 013213   013273 710000 3                  TRA     s:5263
         3 013214   013273 710000 3                  TRA     s:5263
         3 013215   013273 710000 3                  TRA     s:5263
         3 013216   013273 710000 3                  TRA     s:5263
         3 013217   013273 710000 3                  TRA     s:5263
         3 013220   013273 710000 3                  TRA     s:5263
         3 013221   013273 710000 3                  TRA     s:5263
         3 013222   013273 710000 3                  TRA     s:5263
         3 013223   013273 710000 3                  TRA     s:5263
         3 013224   013273 710000 3                  TRA     s:5263
         3 013225   013273 710000 3                  TRA     s:5263
         3 013226   013273 710000 3                  TRA     s:5263
         3 013227   013273 710000 3                  TRA     s:5263
         3 013230   013273 710000 3                  TRA     s:5263
         3 013231   013273 710000 3                  TRA     s:5263
         3 013232   013273 710000 3                  TRA     s:5263
         3 013233   013273 710000 3                  TRA     s:5263
         3 013234   013273 710000 3                  TRA     s:5263
         3 013235   013273 710000 3                  TRA     s:5263
         3 013236   013273 710000 3                  TRA     s:5263
         3 013237   013273 710000 3                  TRA     s:5263
         3 013240   013270 710000 3                  TRA     s:5261

     1944     5250    5                    CASE(29);

PL6.E3A0      #001=THF$RAW File=THF$FORMAT.:E05TSI                               WED 07/30/97 06:08 Page:388
     1945     5251    5                      CALL FIND_DEN_MODE;

   5251  3 013241   014501 701000 3                  TSX1    FIND_DEN_MODE
         3 013242   000000 011000                    NOP     0

     1946     5252    5                      GOTO CONT_NEXT_I;

   5252  3 013243   013320 710000 3                  TRA     CONT_NEXT_I

     1947     5253    5                    CASE(53);

     1948     5254    5                      IF IO_MASK1(DEVTBL.CODE(I))AND

   5254  3 013244   200010 236100                    LDQ     I,,AUTO
         3 013245   000012 402007                    MPY     10,DL
         3 013246   100000 236106                    LDQ     0,QL,PR1
         3 013247   000033 772000                    QRL     27
         3 013250   000000 066506                    CMPB    filb='0'B
         3 013251   200221 000001                    BDSC    IO_MASK,Q,AUTO           by=0,bit=0,n=1
         3 013252   000002 000022 xsym               BDSC    B_VECTNIL+2              by=0,bit=0,n=18
         3 013253   013576 600000 3                  TZE     s:5317
         3 013254   200010 236100                    LDQ     I,,AUTO
         3 013255   000012 402007                    MPY     10,DL
         3 013256   100012 236106                    LDQ     10,QL,PR1
         3 013257   000033 772000                    QRL     27
         3 013260   000000 066506                    CMPB    filb='0'B
         3 013261   200221 000001                    BDSC    IO_MASK,Q,AUTO           by=0,bit=0,n=1
         3 013262   000002 000022 xsym               BDSC    B_VECTNIL+2              by=0,bit=0,n=18
         3 013263   013576 600000 3                  TZE     s:5317

     1949     5255    5                         IO_MASK1(DEVTBL.CODE(I+1))
     1950     5256    6                      THEN DO;

     1951     5257    6                         XST_TEXT = 'DEV SPEED: 200 IPS';

   5257  3 013264   040100 100400                    MLR     fill='040'O
         3 013265   001641 000022 1                  ADSC9   BOARD_64K+482            cn=0,n=18
PL6.E3A0      #001=THF$RAW File=THF$FORMAT.:E05TSI                               WED 07/30/97 06:08 Page:389
         3 013266   200304 000043                    ADSC9   XST_TEXT,,AUTO           cn=0,n=35

     1952     5258    6                         GOTO CONT_NEXT_I;

   5258  3 013267   013320 710000 3                  TRA     CONT_NEXT_I

     1953     5259    6                      END;
     1954     5260    5                    CASE(176);

     1955     5261    5                      CALL FIND_FAULT_CODE;

   5261  3 013270   014762 701000 3                  TSX1    FIND_FAULT_CODE
         3 013271   000000 011000                    NOP     0

     1956     5262    5                      GOTO CONT_NEXT_I;

   5262  3 013272   013320 710000 3                  TRA     CONT_NEXT_I

     1957     5263    5                 END;  /* do case */

   5263  3 013273   013576 710000 3                  TRA     s:5317

     1958     5264    5            ELSE DO;

     1959     5265    6              IF IO_MASK1(DEVTBL.CODE(I)) THEN DO;

   5265  3 013274   200010 236100                    LDQ     I,,AUTO
         3 013275   000012 402007                    MPY     10,DL
         3 013276   200215 471500                    LDP1    DEV$,,AUTO
         3 013277   100000 236106                    LDQ     0,QL,PR1
         3 013300   000033 772000                    QRL     27
         3 013301   000000 066506                    CMPB    filb='0'B
         3 013302   200221 000001                    BDSC    IO_MASK,Q,AUTO           by=0,bit=0,n=1
         3 013303   000002 000022 xsym               BDSC    B_VECTNIL+2              by=0,bit=0,n=18
         3 013304   013576 600000 3                  TZE     s:5317

     1960     5266    6                 XST_TEXT = DEVTBL.TEXT(I);
PL6.E3A0      #001=THF$RAW File=THF$FORMAT.:E05TSI                               WED 07/30/97 06:08 Page:390

   5266  3 013305   200010 236100                    LDQ     I,,AUTO
         3 013306   000050 402007                    MPY     40,DL
         3 013307   040100 100506                    MLR     fill='040'O
         3 013310   100000 400043                    ADSC9   0,Q,PR1                  cn=2,n=35
         3 013311   200304 000043                    ADSC9   XST_TEXT,,AUTO           cn=0,n=35

     1961     5267    6                 XST_CNT = DEVTBL.COUNT(I);

   5267  3 013312   200010 236100                    LDQ     I,,AUTO
         3 013313   000012 402007                    MPY     10,DL
         3 013314   100000 236106                    LDQ     0,QL,PR1
         3 013315   000022 772000                    QRL     18
         3 013316   000777 376007                    ANQ     511,DL
         3 013317   200342 756100                    STQ     XST_CNT,,AUTO

     1962     5268    6   CONT_NEXT_I: IF FIPS_TAPE

   5268  3 013320   200277 234100       CONT_NEXT_I  SZN     FIPS_TAPE,,AUTO
         3 013321   013325 605000 3                  TPL     s:5270

     1963     5269    6                THEN CALL FIND_NINE_TRACKS; /* mtu8200s are always 9 trks */

   5269  3 013322   014024 701000 3                  TSX1    FIND_NINE_TRACKS
         3 013323   000000 011000                    NOP     0
         3 013324   013341 710000 3                  TRA     s:5274

     1964     5270    7                ELSE IF MODEL_CHAR = 'MTU' THEN DO;

   5270  3 013325   200220 236100                    LDQ     MODEL_CHAR,,AUTO
         3 013326   001617 676000 1                  ERQ     BOARD_64K+464
         3 013327   000134 376000 4                  ANQ     92
         3 013330   013341 601000 3                  TNZ     s:5274

     1965     5271    7                  IF IO_MASK1(16) THEN CALL FIND_TRACKS; /* if nrzi mode */

   5271  3 013331   200221 236100                    LDQ     IO_MASK,,AUTO
PL6.E3A0      #001=THF$RAW File=THF$FORMAT.:E05TSI                               WED 07/30/97 06:08 Page:391
         3 013332   000002 316003                    CANQ    2,DU
         3 013333   013337 600000 3                  TZE     s:5272

   5271  3 013334   013674 701000 3                  TSX1    FIND_TRACKS
         3 013335   000000 011000                    NOP     0
         3 013336   013341 710000 3                  TRA     s:5274

     1966     5272    7                  ELSE CALL FIND_NINE_TRACKS;  /* else pe, or gcr mode */

   5272  3 013337   014024 701000 3                  TSX1    FIND_NINE_TRACKS
         3 013340   000000 011000                    NOP     0

     1967     5273    7                END; /*  if model_char='mtu' */

     1968     5274    6                CALL CHECK_MODEL_CODES;  /* checking current bit */

   5274  3 013341   014225 701000 3                  TSX1    CHECK_MODEL_CODES
         3 013342   000000 011000                    NOP     0

     1969     5275    7                 IF ALL_MATCH THEN DO;  /* if all data  match */

   5275  3 013343   200504 234100                    SZN     ALL_MATCH,,AUTO
         3 013344   013470 605000 3                  TPL     s:5300

     1970     5276    7                    X = 0;

   5276  3 013345   200011 450100                    STZ     X,,AUTO

     1971     5277    8                    DO WHILE X <= J AND NOT FOUND_ST;

   5277  3 013346   013366 710000 3                  TRA     s:5283

     1972     5278    8                       IF XST_TEXT = XSTAT_TBL.TEXT(X)

   5278  3 013347   200011 236100                    LDQ     X,,AUTO
         3 013350   000050 402007                    MPY     40,DL
         3 013351   040006 106500                    CMPC    fill='040'O
PL6.E3A0      #001=THF$RAW File=THF$FORMAT.:E05TSI                               WED 07/30/97 06:08 Page:392
         3 013352   200304 000043                    ADSC9   XST_TEXT,,AUTO           cn=0,n=35
         3 013353   003357 000043 2                  ADSC9   XSTAT_TBL+1,Q            cn=0,n=35
         3 013354   013365 601000 3                  TNZ     s:5282

     1973     5279    9                       THEN DO; XSTAT_TBL.COUNT(X) = XSTAT_TBL.COUNT(X) + 1;

   5279  3 013355   200011 236100                    LDQ     X,,AUTO
         3 013356   000012 402007                    MPY     10,DL
         3 013357   003356 235006 2                  LDA     XSTAT_TBL,QL
         3 013360   000001 035007                    ADLA    1,DL
         3 013361   003356 755006 2                  STA     XSTAT_TBL,QL

     1974     5280    9                                FOUND_ST = %TRUE;

   5280  3 013362   400000 236003                    LDQ     -131072,DU
         3 013363   200513 756100                    STQ     FOUND_ST,,AUTO

     1975     5281    9                       END;

   5281  3 013364   013366 710000 3                  TRA     s:5283

     1976     5282    8                       ELSE X = X + 1;

   5282  3 013365   200011 054100                    AOS     X,,AUTO

     1977     5283    8                    END;  /* do while */

   5283  3 013366   200100 236100                    LDQ     J,,AUTO
         3 013367   013372 604000 3                  TMI     s:5283+4
         3 013370   200011 116100                    CMPQ    X,,AUTO
         3 013371   013374 604000 3                  TMI     s:5284
         3 013372   200513 234100                    SZN     FOUND_ST,,AUTO
         3 013373   013347 605000 3                  TPL     s:5278

     1978     5284    7                    X = 0;

   5284  3 013374   200011 450100                    STZ     X,,AUTO
PL6.E3A0      #001=THF$RAW File=THF$FORMAT.:E05TSI                               WED 07/30/97 06:08 Page:393

     1979     5285    7                    IF MODEL_CHAR = 'MTU' AND (I = 16 OR DEVTBL.CODE(I) = 27)

   5285  3 013375   200220 236100                    LDQ     MODEL_CHAR,,AUTO
         3 013376   001617 676000 1                  ERQ     BOARD_64K+464
         3 013377   000134 376000 4                  ANQ     92
         3 013400   013413 601000 3                  TNZ     s:5287
         3 013401   200010 235100                    LDA     I,,AUTO
         3 013402   000020 115007                    CMPA    16,DL
         3 013403   013573 600000 3                  TZE     s:5314
         3 013404   200010 236100                    LDQ     I,,AUTO
         3 013405   000012 402007                    MPY     10,DL
         3 013406   200215 470500                    LDP0    DEV$,,AUTO
         3 013407   000000 236106                    LDQ     0,QL,PR0
         3 013410   777000 376003                    ANQ     -512,DU
         3 013411   033000 116003                    CMPQ    13824,DU
         3 013412   013573 600000 3                  TZE     s:5314

     1980     5286    7                    THEN;
     1981     5287    7                    ELSE IF FIPS_TAPE AND (DEVTBL.CODE(I)=29) OR (DEVTBL.CODE(I)=53)
              5287                             THEN;

   5287  3 013413   200277 234100                    SZN     FIPS_TAPE,,AUTO
         3 013414   013424 605000 3                  TPL     s:5287+9
         3 013415   200010 236100                    LDQ     I,,AUTO
         3 013416   000012 402007                    MPY     10,DL
         3 013417   200215 470500                    LDP0    DEV$,,AUTO
         3 013420   000000 236106                    LDQ     0,QL,PR0
         3 013421   777000 376003                    ANQ     -512,DU
         3 013422   035000 116003                    CMPQ    14848,DU
         3 013423   013573 600000 3                  TZE     s:5314
         3 013424   200010 236100                    LDQ     I,,AUTO
         3 013425   000012 402007                    MPY     10,DL
         3 013426   200215 470500                    LDP0    DEV$,,AUTO
         3 013427   000000 236106                    LDQ     0,QL,PR0
         3 013430   777000 376003                    ANQ     -512,DU
         3 013431   065000 116003                    CMPQ    27136,DU
PL6.E3A0      #001=THF$RAW File=THF$FORMAT.:E05TSI                               WED 07/30/97 06:08 Page:394
         3 013432   013573 600000 3                  TZE     s:5314

     1982     5288    7                    ELSE
     1983     5289    8                     DO WHILE NOT FOUND_ST AND X <= J;

   5289  3 013433   013461 710000 3                  TRA     s:5297

     1984     5290    9                       IF XSTAT_TBL.TEXT(X) = ' ' THEN DO;

   5290  3 013434   200011 236100                    LDQ     X,,AUTO
         3 013435   000050 402007                    MPY     40,DL
         3 013436   040000 106406                    CMPC    fill='040'O
         3 013437   003357 000043 2                  ADSC9   XSTAT_TBL+1,Q            cn=0,n=35
         3 013440   000035 000001 xsym               ADSC9   B_VECTNIL+29             cn=0,n=1
         3 013441   013460 601000 3                  TNZ     s:5296

     1985     5291    9                          XSTAT_TBL.TEXT(X) = XST_TEXT;

   5291  3 013442   040006 100500                    MLR     fill='040'O
         3 013443   200304 000043                    ADSC9   XST_TEXT,,AUTO           cn=0,n=35
         3 013444   003357 000043 2                  ADSC9   XSTAT_TBL+1,Q            cn=0,n=35

     1986     5292    9                          XSTAT_TBL.COUNT(X) = XSTAT_TBL.COUNT(X) + 1;

   5292  3 013445   200011 236100                    LDQ     X,,AUTO
         3 013446   000012 402007                    MPY     10,DL
         3 013447   003356 235006 2                  LDA     XSTAT_TBL,QL
         3 013450   000001 035007                    ADLA    1,DL
         3 013451   003356 755006 2                  STA     XSTAT_TBL,QL

     1987     5293    9                          NUM_XSTATUS = NUM_XSTATUS + 1;

   5293  3 013452   200510 235100                    LDA     NUM_XSTATUS,,AUTO
         3 013453   000001 035007                    ADLA    1,DL
         3 013454   200510 755100                    STA     NUM_XSTATUS,,AUTO

     1988     5294    9                          FOUND_ST = %TRUE;
PL6.E3A0      #001=THF$RAW File=THF$FORMAT.:E05TSI                               WED 07/30/97 06:08 Page:395

   5294  3 013455   400000 236003                    LDQ     -131072,DU
         3 013456   200513 756100                    STQ     FOUND_ST,,AUTO

     1989     5295    9                       END;

   5295  3 013457   013461 710000 3                  TRA     s:5297

     1990     5296    8                       ELSE X = X + 1;

   5296  3 013460   200011 054100                    AOS     X,,AUTO

     1991     5297    8                     END;  /* do while */

   5297  3 013461   200513 234100                    SZN     FOUND_ST,,AUTO
         3 013462   013467 604000 3                  TMI     s:5298
         3 013463   200100 236100                    LDQ     J,,AUTO
         3 013464   013434 604000 3                  TMI     s:5290
         3 013465   200011 116100                    CMPQ    X,,AUTO
         3 013466   013434 605000 3                  TPL     s:5290

     1992     5298    7                  END;  /* if all_match */

   5298  3 013467   013573 710000 3                  TRA     s:5314

     1993     5299    7                  ELSE DO;  /* if not all_match */

     1994     5300    7                   IF FIPS_TAPE AND (DEVTBL.CODE(I)=29) THEN

   5300  3 013470   200277 234100                    SZN     FIPS_TAPE,,AUTO
         3 013471   013505 605000 3                  TPL     s:5302
         3 013472   200010 236100                    LDQ     I,,AUTO
         3 013473   000012 402007                    MPY     10,DL
         3 013474   200215 470500                    LDP0    DEV$,,AUTO
         3 013475   000000 236106                    LDQ     0,QL,PR0
         3 013476   777000 376003                    ANQ     -512,DU
         3 013477   035000 116003                    CMPQ    14848,DU
PL6.E3A0      #001=THF$RAW File=THF$FORMAT.:E05TSI                               WED 07/30/97 06:08 Page:396
         3 013500   013505 601000 3                  TNZ     s:5302

     1995     5301    7                     OTHER_IOERR_TBL.DENSITY = XST_TEXT;

   5301  3 013501   040000 100500                    MLR     fill='040'O
         3 013502   200304 000040                    ADSC9   XST_TEXT,,AUTO           cn=0,n=32
         3 013503   003345 000040 2                  ADSC9   OTHER_IOERR_TBL+11       cn=0,n=32
         3 013504   013573 710000 3                  TRA     s:5314

     1996     5302    7                   ELSE IF FIPS_TAPE AND (DEVTBL.CODE(I)=53) THEN

   5302  3 013505   200277 234100                    SZN     FIPS_TAPE,,AUTO
         3 013506   013522 605000 3                  TPL     s:5304
         3 013507   200010 236100                    LDQ     I,,AUTO
         3 013510   000012 402007                    MPY     10,DL
         3 013511   200215 470500                    LDP0    DEV$,,AUTO
         3 013512   000000 236106                    LDQ     0,QL,PR0
         3 013513   777000 376003                    ANQ     -512,DU
         3 013514   065000 116003                    CMPQ    27136,DU
         3 013515   013522 601000 3                  TNZ     s:5304

     1997     5303    7                     OTHER_IOERR_TBL.SPEED = XST_TEXT;

   5303  3 013516   040000 100500                    MLR     fill='040'O
         3 013517   200304 000040                    ADSC9   XST_TEXT,,AUTO           cn=0,n=32
         3 013520   003335 000040 2                  ADSC9   OTHER_IOERR_TBL+3        cn=0,n=32
         3 013521   013573 710000 3                  TRA     s:5314

     1998     5304    7                   ELSE IF I= 16 AND MODEL_CHAR = 'MTU' THEN

   5304  3 013522   200010 235100                    LDA     I,,AUTO
         3 013523   000020 115007                    CMPA    16,DL
         3 013524   013535 601000 3                  TNZ     s:5306
         3 013525   200220 236100                    LDQ     MODEL_CHAR,,AUTO
         3 013526   001617 676000 1                  ERQ     BOARD_64K+464
         3 013527   000134 376000 4                  ANQ     92
         3 013530   013535 601000 3                  TNZ     s:5306
PL6.E3A0      #001=THF$RAW File=THF$FORMAT.:E05TSI                               WED 07/30/97 06:08 Page:397

     1999     5305    7                     OTHER_IOERR_TBL.DENSITY = XST_TEXT;

   5305  3 013531   040000 100500                    MLR     fill='040'O
         3 013532   200304 000040                    ADSC9   XST_TEXT,,AUTO           cn=0,n=32
         3 013533   003345 000040 2                  ADSC9   OTHER_IOERR_TBL+11       cn=0,n=32
         3 013534   013573 710000 3                  TRA     s:5314

     2000     5306    7                   ELSE IF DEVTBL.CODE(I) = 27 AND MODEL_CHAR = 'MTU' THEN

   5306  3 013535   200010 236100                    LDQ     I,,AUTO
         3 013536   000012 402007                    MPY     10,DL
         3 013537   200215 470500                    LDP0    DEV$,,AUTO
         3 013540   000000 236106                    LDQ     0,QL,PR0
         3 013541   777000 376003                    ANQ     -512,DU
         3 013542   033000 116003                    CMPQ    13824,DU
         3 013543   013554 601000 3                  TNZ     s:5308
         3 013544   200220 236100                    LDQ     MODEL_CHAR,,AUTO
         3 013545   001617 676000 1                  ERQ     BOARD_64K+464
         3 013546   000134 376000 4                  ANQ     92
         3 013547   013554 601000 3                  TNZ     s:5308

     2001     5307    7                     OTHER_IOERR_TBL.SPEED = XST_TEXT;

   5307  3 013550   040000 100500                    MLR     fill='040'O
         3 013551   200304 000040                    ADSC9   XST_TEXT,,AUTO           cn=0,n=32
         3 013552   003335 000040 2                  ADSC9   OTHER_IOERR_TBL+3        cn=0,n=32
         3 013553   013573 710000 3                  TRA     s:5314

     2002     5308    8                   ELSE IF NOT FOUND_ST THEN DO;

   5308  3 013554   200513 234100                    SZN     FOUND_ST,,AUTO
         3 013555   013573 604000 3                  TMI     s:5314

     2003     5309    8                      XSTAT_TBL.TEXT(NUM_XSTATUS) = XST_TEXT; /* save status */

   5309  3 013556   200510 236100                    LDQ     NUM_XSTATUS,,AUTO
PL6.E3A0      #001=THF$RAW File=THF$FORMAT.:E05TSI                               WED 07/30/97 06:08 Page:398
         3 013557   000050 402007                    MPY     40,DL
         3 013560   040006 100500                    MLR     fill='040'O
         3 013561   200304 000043                    ADSC9   XST_TEXT,,AUTO           cn=0,n=35
         3 013562   003357 000043 2                  ADSC9   XSTAT_TBL+1,Q            cn=0,n=35

     2004     5310    8                      XSTAT_TBL.COUNT(NUM_XSTATUS) = XSTAT_TBL.COUNT(NUM_XSTATUS) + 1;

   5310  3 013563   200510 236100                    LDQ     NUM_XSTATUS,,AUTO
         3 013564   000012 402007                    MPY     10,DL
         3 013565   003356 235006 2                  LDA     XSTAT_TBL,QL
         3 013566   000001 035007                    ADLA    1,DL
         3 013567   003356 755006 2                  STA     XSTAT_TBL,QL

     2005     5311    8                      NUM_XSTATUS = NUM_XSTATUS + 1;

   5311  3 013570   200510 235100                    LDA     NUM_XSTATUS,,AUTO
         3 013571   000001 035007                    ADLA    1,DL
         3 013572   200510 755100                    STA     NUM_XSTATUS,,AUTO

     2006     5312    8                   END; /* if not found_st  */

     2007     5313    7                  END; /* else do */

     2008     5314    6                 NXST = NXST + 1;

   5314  3 013573   200343 235100                    LDA     NXST,,AUTO
         3 013574   000001 035007                    ADLA    1,DL
         3 013575   200343 755100                    STA     NXST,,AUTO

     2009     5315    6              END;  /* if io_mask1(devtbl.code(I)) */

     2010     5316    5            END;  /* else do */

     2011     5317    4          END;   /* do i = 0 to j */

   5317  3 013576   200010 054100                    AOS     I,,AUTO
         3 013577   200100 236100                    LDQ     J,,AUTO
PL6.E3A0      #001=THF$RAW File=THF$FORMAT.:E05TSI                               WED 07/30/97 06:08 Page:399
         3 013600   012421 604000 3                  TMI     s:5208
         3 013601   200010 116100                    CMPQ    I,,AUTO
         3 013602   012421 605000 3                  TPL     s:5208

     2012     5318    3   NO_INT:MODEL_CHAR = EL$IOERR.MODEL;

   5318  3 013603   200005 470500       NO_INT       LDP0    INFO+1,,AUTO
         3 013604   000030 236100                    LDQ     24,,PR0
         3 013605   000134 376000 4                  ANQ     92
         3 013606   000040 276007                    ORQ     32,DL
         3 013607   200220 756100                    STQ     MODEL_CHAR,,AUTO

     2013     5319    4          IF NOT ALL_MATCH AND MODEL_CHAR = 'MTU' THEN DO;

   5319  3 013610   200504 234100                    SZN     ALL_MATCH,,AUTO
         3 013611   013667 604000 3                  TMI     s:5332
         3 013612   200220 236100                    LDQ     MODEL_CHAR,,AUTO
         3 013613   001617 676000 1                  ERQ     BOARD_64K+464
         3 013614   000134 376000 4                  ANQ     92
         3 013615   013667 601000 3                  TNZ     s:5332

     2014     5320    5             DO I = 0 TO NUMMODELS;  /* go through device command table */

   5320  3 013616   200010 450100                    STZ     I,,AUTO

     2015     5321    6               IF EL$IOERR.MODEL = DEVICE_CMND.DEV(I) THEN DO; /* if model is found */

   5321  3 013617   200010 235100                    LDA     I,,AUTO
         3 013620   000004 735000                    ALS     4
         3 013621   200005 470500                    LDP0    INFO+1,,AUTO
         3 013622   040005 106500                    CMPC    fill='040'O
         3 013623   000030 000010                    ADSC9   24,,PR0                  cn=0,n=8
         3 013624   000000 000010 xsym               ADSC9   DEVICE_CMND,A            cn=0,n=8
         3 013625   013637 601000 3                  TNZ     s:5325

     2016     5322    6                   DEV_OP$ = DEVICE_CMND.SUB$(I);  /* get start of model table */

PL6.E3A0      #001=THF$RAW File=THF$FORMAT.:E05TSI                               WED 07/30/97 06:08 Page:400
   5322  3 013626   200010 236100                    LDQ     I,,AUTO
         3 013627   000002 736000                    QLS     2
         3 013630   000002 236006 xsym               LDQ     DEVICE_CMND+2,QL
         3 013631   200505 756100                    STQ     DEV_OP$,,AUTO

     2017     5323    6                   J = DEVICE_CMND.COUNT(I);  /* get size of model table */

   5323  3 013632   200010 235100                    LDA     I,,AUTO
         3 013633   000002 735000                    ALS     2
         3 013634   000003 236005 xsym               LDQ     DEVICE_CMND+3,AL
         3 013635   000033 772000                    QRL     27
         3 013636   200100 756100                    STQ     J,,AUTO

     2018     5324    6                END; /* if el$ioerr.model = device_cmnd.dev(i) */

     2019     5325    5             END; /* do i = 0 to 19 */

   5325  3 013637   200010 054100                    AOS     I,,AUTO
         3 013640   200010 235100                    LDA     I,,AUTO
         3 013641   000035 115007                    CMPA    29,DL
         3 013642   013617 604400 3                  TMOZ    s:5321

     2020     5326    5             DO I = 0 TO J;  /* go through model table */

   5326  3 013643   200010 450100                    STZ     I,,AUTO
         3 013644   013663 710000 3                  TRA     s:5330+1

     2021     5327    5                IF NEW_OP_RDF(0) = DEV_OP_TBL.CODE(I) /* if new operation found */

   5327  3 013645   200010 236100                    LDQ     I,,AUTO
         3 013646   000003 402007                    MPY     3,DL
         3 013647   200505 470500                    LDP0    DEV_OP$,,AUTO
         3 013650   000000 620006                    EAX0    0,QL
         3 013651   200501 236100                    LDQ     NEW_OP,,AUTO
         3 013652   000000 676110                    ERQ     0,X0,PR0
         3 013653   770000 376003                    ANQ     -4096,DU
         3 013654   013662 601000 3                  TNZ     s:5330
PL6.E3A0      #001=THF$RAW File=THF$FORMAT.:E05TSI                               WED 07/30/97 06:08 Page:401

     2022     5328    5                THEN
     2023     5329    5                    OTHER_IOERR_TBL.OPERATION = DEV_OP_TBL.TEXT(I);
              5329                             /* store new operation */

   5329  3 013655   200010 236100                    LDQ     I,,AUTO
         3 013656   000014 402007                    MPY     12,DL
         3 013657   040000 100506                    MLR     fill='040'O
         3 013660   000000 400010                    ADSC9   0,Q,PR0                  cn=2,n=8
         3 013661   003333 000010 2                  ADSC9   OTHER_IOERR_TBL+1        cn=0,n=8

     2024     5330    5             END; /* do i = 0 to j */

   5330  3 013662   200010 054100                    AOS     I,,AUTO
         3 013663   200100 236100                    LDQ     J,,AUTO
         3 013664   013645 604000 3                  TMI     s:5327
         3 013665   200010 116100                    CMPQ    I,,AUTO
         3 013666   013645 605000 3                  TPL     s:5327

     2025     5331    4          END; /* if not_all_match and model_char = 'mtu' */

     2026     5332    3          IF TH_FIRST_TIME THEN TH_FIRST_TIME = %FALSE;

   5332  3 013667   000000 234000 xsym               SZN     TH_FIRST_TIME
         3 013670   013672 605000 3                  TPL     s:5334

   5332  3 013671   000000 450000 xsym               STZ     TH_FIRST_TIME

     2027     5333    3       END;  /* if dev_flag */

     2028     5334    2   END THF$IOERR;

   5334  3 013672   200524 221300                    LDX1  ! NINE_TRACK_BLNK+8,,AUTO
         3 013673   000001 702211                    TSX2  ! 1,X1

     2029     5335        %EJECT;
PL6.E3A0      #001=THF$RAW File=THF$FORMAT.:E05TSI                               WED 07/30/97 06:08 Page:402
     2030     5336        /*  LOOK FOR TRACKS IN ERR IF NRZI MODE */
     2031     5337        /**/
     2032     5338    1   FIND_TRACKS: PROC;

   5338  3 013674   200526 741300       FIND_TRACKS  STX1  ! @BOARD,,AUTO

     2033     5339        /**/
     2034     5340    3   IF EL$IOERR.MODEL = 'MTU0610' OR EL$IOERR.MODEL = 'MTU0630' THEN DO;

   5340  3 013675   200005 470500                    LDP0    INFO+1,,AUTO
         3 013676   040000 106500                    CMPC    fill='040'O
         3 013677   000030 000010                    ADSC9   24,,PR0                  cn=0,n=8
         3 013700   001617 000007 1                  ADSC9   BOARD_64K+464            cn=0,n=7
         3 013701   013706 600000 3                  TZE     s:5341
         3 013702   040000 106500                    CMPC    fill='040'O
         3 013703   000030 000010                    ADSC9   24,,PR0                  cn=0,n=8
         3 013704   001774 000007 1                  ADSC9   BOARD_64K+573            cn=0,n=7
         3 013705   014022 601000 3                  TNZ     s:5367

     2035     5341    4     IF IO_MASK1(9) THEN DO;   /* if write mode for 9 track tapes */

   5341  3 013706   200221 236100                    LDQ     IO_MASK,,AUTO
         3 013707   000400 316003                    CANQ    256,DU
         3 013710   014022 600000 3                  TZE     s:5367

     2036     5342    5       DO CASE(DEVTBL.CODE(I));

   5342  3 013711   200010 236100                    LDQ     I,,AUTO
         3 013712   000012 402007                    MPY     10,DL
         3 013713   200215 471500                    LDP1    DEV$,,AUTO
         3 013714   100000 236106                    LDQ     0,QL,PR1
         3 013715   000033 772000                    QRL     27
         3 013716   000211 136007                    SBLQ    137,DL
         3 013717   000017 116007                    CMPQ    15,DL
         3 013720   013722 602006 3                  TNC     s:5342+9,QL
         3 013721   014004 710000 3                  TRA     s:5362
         3 013722   014001 710000 3                  TRA     s:5360
PL6.E3A0      #001=THF$RAW File=THF$FORMAT.:E05TSI                               WED 07/30/97 06:08 Page:403
         3 013723   014004 710000 3                  TRA     s:5362
         3 013724   014004 710000 3                  TRA     s:5362
         3 013725   014004 710000 3                  TRA     s:5362
         3 013726   014004 710000 3                  TRA     s:5362
         3 013727   014004 710000 3                  TRA     s:5362
         3 013730   014004 710000 3                  TRA     s:5362
         3 013731   013741 710000 3                  TRA     s:5344
         3 013732   013745 710000 3                  TRA     s:5346
         3 013733   013751 710000 3                  TRA     s:5348
         3 013734   013755 710000 3                  TRA     s:5350
         3 013735   013761 710000 3                  TRA     s:5352
         3 013736   013765 710000 3                  TRA     s:5354
         3 013737   013771 710000 3                  TRA     s:5356
         3 013740   013775 710000 3                  TRA     s:5358

     2037     5343    5          CASE(144);

     2038     5344    5            NINE_TRACK_TBL.SEVEN = NINE_TRACK_TBL.SEVEN + 1;

   5344  3 013741   007416 236000 2                  LDQ     NINE_TRACK_TBL
         3 013742   001000 036003                    ADLQ    512,DU
         3 013743   007416 552040 2                  STBQ    NINE_TRACK_TBL,'40'O
         3 013744   014004 710000 3                  TRA     s:5362

     2039     5345    5          CASE(145);

     2040     5346    5            NINE_TRACK_TBL.SIX = NINE_TRACK_TBL.SIX + 1;

   5346  3 013745   007416 236000 2                  LDQ     NINE_TRACK_TBL
         3 013746   000001 036003                    ADLQ    1,DU
         3 013747   007416 552020 2                  STBQ    NINE_TRACK_TBL,'20'O
         3 013750   014004 710000 3                  TRA     s:5362

     2041     5347    5          CASE(146);

     2042     5348    5            NINE_TRACK_TBL.FIVE = NINE_TRACK_TBL.FIVE + 1;

PL6.E3A0      #001=THF$RAW File=THF$FORMAT.:E05TSI                               WED 07/30/97 06:08 Page:404
   5348  3 013751   007416 236000 2                  LDQ     NINE_TRACK_TBL
         3 013752   001000 036007                    ADLQ    512,DL
         3 013753   007416 552010 2                  STBQ    NINE_TRACK_TBL,'10'O
         3 013754   014004 710000 3                  TRA     s:5362

     2043     5349    5          CASE(147);

     2044     5350    5            NINE_TRACK_TBL.THREE = NINE_TRACK_TBL.THREE + 1;

   5350  3 013755   007416 236000 2                  LDQ     NINE_TRACK_TBL
         3 013756   000001 036007                    ADLQ    1,DL
         3 013757   007416 552004 2                  STBQ    NINE_TRACK_TBL,'04'O
         3 013760   014004 710000 3                  TRA     s:5362

     2045     5351    5          CASE(148);

     2046     5352    5            NINE_TRACK_TBL.NINE = NINE_TRACK_TBL.NINE + 1;

   5352  3 013761   007417 236000 2                  LDQ     NINE_TRACK_TBL+1
         3 013762   001000 036003                    ADLQ    512,DU
         3 013763   007417 552040 2                  STBQ    NINE_TRACK_TBL+1,'40'O
         3 013764   014004 710000 3                  TRA     s:5362

     2047     5353    5          CASE(149);

     2048     5354    5            NINE_TRACK_TBL.ONE = NINE_TRACK_TBL.ONE + 1;

   5354  3 013765   007417 236000 2                  LDQ     NINE_TRACK_TBL+1
         3 013766   000001 036003                    ADLQ    1,DU
         3 013767   007417 552020 2                  STBQ    NINE_TRACK_TBL+1,'20'O
         3 013770   014004 710000 3                  TRA     s:5362

     2049     5355    5          CASE(150);

     2050     5356    5            NINE_TRACK_TBL.EIGHT = NINE_TRACK_TBL.EIGHT + 1;

   5356  3 013771   007417 236000 2                  LDQ     NINE_TRACK_TBL+1
PL6.E3A0      #001=THF$RAW File=THF$FORMAT.:E05TSI                               WED 07/30/97 06:08 Page:405
         3 013772   001000 036007                    ADLQ    512,DL
         3 013773   007417 552010 2                  STBQ    NINE_TRACK_TBL+1,'10'O
         3 013774   014004 710000 3                  TRA     s:5362

     2051     5357    5          CASE(151);

     2052     5358    5            NINE_TRACK_TBL.TWO = NINE_TRACK_TBL.TWO + 1;

   5358  3 013775   007417 236000 2                  LDQ     NINE_TRACK_TBL+1
         3 013776   000001 036007                    ADLQ    1,DL
         3 013777   007417 552004 2                  STBQ    NINE_TRACK_TBL+1,'04'O
         3 014000   014004 710000 3                  TRA     s:5362

     2053     5359    5          CASE(137);

     2054     5360    5            NINE_TRACK_TBL.FOUR = NINE_TRACK_TBL.FOUR + 1;

   5360  3 014001   007420 236000 2                  LDQ     NINE_TRACK_TBL+2
         3 014002   001000 036003                    ADLQ    512,DU
         3 014003   007420 552040 2                  STBQ    NINE_TRACK_TBL+2,'40'O

     2055     5361    5       END;  /* do case */

     2056     5362    5       DO X = 0 TO 8;

   5362  3 014004   200011 450100                    STZ     X,,AUTO

     2057     5363    5          IF NINE_TRACK_RDF(X) > 0 THEN TRACK_NINE = %TRUE;

   5363  3 014005   200011 235100                    LDA     X,,AUTO
         3 014006   000100 101405                    MRL     fill='000'O
         3 014007   007416 000001 2                  ADSC9   NINE_TRACK_TBL,A         cn=0,n=1
         3 014010   200534 000004                    ADSC9   CHIP#+2,,AUTO            cn=0,n=4
         3 014011   200534 236100                    LDQ     CHIP#+2,,AUTO
         3 014012   000000 116003                    CMPQ    0,DU
         3 014013   014016 600000 3                  TZE     s:5364

PL6.E3A0      #001=THF$RAW File=THF$FORMAT.:E05TSI                               WED 07/30/97 06:08 Page:406
   5363  3 014014   400000 236003                    LDQ     -131072,DU
         3 014015   200511 756100                    STQ     TRACK_NINE,,AUTO

     2058     5364    5       END;

   5364  3 014016   200011 054100                    AOS     X,,AUTO
         3 014017   200011 235100                    LDA     X,,AUTO
         3 014020   000010 115007                    CMPA    8,DL
         3 014021   014005 604400 3                  TMOZ    s:5363

     2059     5365    4     END;  /* if write mode */

     2060     5366    3   END; /* if 9 track tapes */

     2061     5367    2   END FIND_TRACKS;

   5367  3 014022   200526 221300                    LDX1  ! @BOARD,,AUTO
         3 014023   000001 702211                    TSX2  ! 1,X1

     2062     5368        %EJECT;
PL6.E3A0      #001=THF$RAW File=THF$FORMAT.:E05TSI                               WED 07/30/97 06:08 Page:407
     2063     5369        /*    FIND DATA/TRACK IN ERR FOR NINE TRACK TAPES */
     2064     5370        /**/
     2065     5371    1   FIND_NINE_TRACKS: PROC;

   5371  3 014024   200526 741300       FIND_NINE_T* STX1  ! @BOARD,,AUTO

     2066     5372        /**/
     2067     5373    2      IF EL$IOERR.MODEL = 'MTU8200'

   5373  3 014025   200005 470500                    LDP0    INFO+1,,AUTO
         3 014026   040000 106500                    CMPC    fill='040'O
         3 014027   000030 000010                    ADSC9   24,,PR0                  cn=0,n=8
         3 014030   001621 000007 1                  ADSC9   BOARD_64K+466            cn=0,n=7
         3 014031   014120 601000 3                  TNZ     s:5394

     2068     5374    3      THEN DO CASE(DEVTBL.CODE(I));

   5374  3 014032   200010 236100                    LDQ     I,,AUTO
         3 014033   000012 402007                    MPY     10,DL
         3 014034   200215 471500                    LDP1    DEV$,,AUTO
         3 014035   100000 236106                    LDQ     0,QL,PR1
         3 014036   000033 772000                    QRL     27
         3 014037   000020 136007                    SBLQ    16,DL
         3 014040   000011 116007                    CMPQ    9,DL
         3 014041   014043 602006 3                  TNC     s:5374+9,QL
         3 014042   014205 710000 3                  TRA     s:5414
         3 014043   014054 710000 3                  TRA     s:5376
         3 014044   014060 710000 3                  TRA     s:5378
         3 014045   014064 710000 3                  TRA     s:5380
         3 014046   014070 710000 3                  TRA     s:5382
         3 014047   014074 710000 3                  TRA     s:5384
         3 014050   014100 710000 3                  TRA     s:5386
         3 014051   014104 710000 3                  TRA     s:5388
         3 014052   014110 710000 3                  TRA     s:5390
         3 014053   014114 710000 3                  TRA     s:5392

     2069     5375    3              CASE(16);
PL6.E3A0      #001=THF$RAW File=THF$FORMAT.:E05TSI                               WED 07/30/97 06:08 Page:408

     2070     5376    3                 NINE_TRACK_TBL.SEVEN = NINE_TRACK_TBL.SEVEN + 1;

   5376  3 014054   007416 236000 2                  LDQ     NINE_TRACK_TBL
         3 014055   001000 036003                    ADLQ    512,DU
         3 014056   007416 552040 2                  STBQ    NINE_TRACK_TBL,'40'O
         3 014057   014205 710000 3                  TRA     s:5414

     2071     5377    3              CASE(17);

     2072     5378    3                 NINE_TRACK_TBL.SIX = NINE_TRACK_TBL.SIX + 1;

   5378  3 014060   007416 236000 2                  LDQ     NINE_TRACK_TBL
         3 014061   000001 036003                    ADLQ    1,DU
         3 014062   007416 552020 2                  STBQ    NINE_TRACK_TBL,'20'O
         3 014063   014205 710000 3                  TRA     s:5414

     2073     5379    3              CASE(18);

     2074     5380    3                 NINE_TRACK_TBL.FIVE = NINE_TRACK_TBL.FIVE + 1;

   5380  3 014064   007416 236000 2                  LDQ     NINE_TRACK_TBL
         3 014065   001000 036007                    ADLQ    512,DL
         3 014066   007416 552010 2                  STBQ    NINE_TRACK_TBL,'10'O
         3 014067   014205 710000 3                  TRA     s:5414

     2075     5381    3              CASE(19);

     2076     5382    3                 NINE_TRACK_TBL.THREE = NINE_TRACK_TBL.THREE + 1;

   5382  3 014070   007416 236000 2                  LDQ     NINE_TRACK_TBL
         3 014071   000001 036007                    ADLQ    1,DL
         3 014072   007416 552004 2                  STBQ    NINE_TRACK_TBL,'04'O
         3 014073   014205 710000 3                  TRA     s:5414

     2077     5383    3              CASE(20);

PL6.E3A0      #001=THF$RAW File=THF$FORMAT.:E05TSI                               WED 07/30/97 06:08 Page:409
     2078     5384    3                 NINE_TRACK_TBL.NINE = NINE_TRACK_TBL.NINE + 1;

   5384  3 014074   007417 236000 2                  LDQ     NINE_TRACK_TBL+1
         3 014075   001000 036003                    ADLQ    512,DU
         3 014076   007417 552040 2                  STBQ    NINE_TRACK_TBL+1,'40'O
         3 014077   014205 710000 3                  TRA     s:5414

     2079     5385    3              CASE(21);

     2080     5386    3                 NINE_TRACK_TBL.ONE = NINE_TRACK_TBL.ONE + 1;

   5386  3 014100   007417 236000 2                  LDQ     NINE_TRACK_TBL+1
         3 014101   000001 036003                    ADLQ    1,DU
         3 014102   007417 552020 2                  STBQ    NINE_TRACK_TBL+1,'20'O
         3 014103   014205 710000 3                  TRA     s:5414

     2081     5387    3              CASE(22);

     2082     5388    3                 NINE_TRACK_TBL.EIGHT = NINE_TRACK_TBL.EIGHT + 1;

   5388  3 014104   007417 236000 2                  LDQ     NINE_TRACK_TBL+1
         3 014105   001000 036007                    ADLQ    512,DL
         3 014106   007417 552010 2                  STBQ    NINE_TRACK_TBL+1,'10'O
         3 014107   014205 710000 3                  TRA     s:5414

     2083     5389    3              CASE(23);

     2084     5390    3                 NINE_TRACK_TBL.TWO = NINE_TRACK_TBL.TWO + 1;

   5390  3 014110   007417 236000 2                  LDQ     NINE_TRACK_TBL+1
         3 014111   000001 036007                    ADLQ    1,DL
         3 014112   007417 552004 2                  STBQ    NINE_TRACK_TBL+1,'04'O
         3 014113   014205 710000 3                  TRA     s:5414

     2085     5391    3              CASE(24);

     2086     5392    3                 NINE_TRACK_TBL.FOUR = NINE_TRACK_TBL.FOUR +1;
PL6.E3A0      #001=THF$RAW File=THF$FORMAT.:E05TSI                               WED 07/30/97 06:08 Page:410

   5392  3 014114   007420 236000 2                  LDQ     NINE_TRACK_TBL+2
         3 014115   001000 036003                    ADLQ    512,DU
         3 014116   007420 552040 2                  STBQ    NINE_TRACK_TBL+2,'40'O

     2087     5393    3           END;

   5393  3 014117   014205 710000 3                  TRA     s:5414

     2088     5394    3      ELSE DO CASE(DEVTBL.CODE(I));

   5394  3 014120   200010 236100                    LDQ     I,,AUTO
         3 014121   000012 402007                    MPY     10,DL
         3 014122   200215 471500                    LDP1    DEV$,,AUTO
         3 014123   100000 236106                    LDQ     0,QL,PR1
         3 014124   000033 772000                    QRL     27
         3 014125   000200 136007                    SBLQ    128,DL
         3 014126   000011 116007                    CMPQ    9,DL
         3 014127   014131 602006 3                  TNC     s:5394+9,QL
         3 014130   014205 710000 3                  TRA     s:5414
         3 014131   014142 710000 3                  TRA     s:5396
         3 014132   014146 710000 3                  TRA     s:5398
         3 014133   014152 710000 3                  TRA     s:5400
         3 014134   014156 710000 3                  TRA     s:5402
         3 014135   014162 710000 3                  TRA     s:5404
         3 014136   014166 710000 3                  TRA     s:5406
         3 014137   014172 710000 3                  TRA     s:5408
         3 014140   014176 710000 3                  TRA     s:5410
         3 014141   014202 710000 3                  TRA     s:5412

     2089     5395    3         CASE(128);

     2090     5396    3           NINE_TRACK_TBL.SEVEN = NINE_TRACK_TBL.SEVEN + 1;

   5396  3 014142   007416 236000 2                  LDQ     NINE_TRACK_TBL
         3 014143   001000 036003                    ADLQ    512,DU
         3 014144   007416 552040 2                  STBQ    NINE_TRACK_TBL,'40'O
PL6.E3A0      #001=THF$RAW File=THF$FORMAT.:E05TSI                               WED 07/30/97 06:08 Page:411
         3 014145   014205 710000 3                  TRA     s:5414

     2091     5397    3         CASE(129);

     2092     5398    3           NINE_TRACK_TBL.SIX = NINE_TRACK_TBL.SIX + 1;

   5398  3 014146   007416 236000 2                  LDQ     NINE_TRACK_TBL
         3 014147   000001 036003                    ADLQ    1,DU
         3 014150   007416 552020 2                  STBQ    NINE_TRACK_TBL,'20'O
         3 014151   014205 710000 3                  TRA     s:5414

     2093     5399    3         CASE(130);

     2094     5400    3           NINE_TRACK_TBL.FIVE = NINE_TRACK_TBL.FIVE + 1;

   5400  3 014152   007416 236000 2                  LDQ     NINE_TRACK_TBL
         3 014153   001000 036007                    ADLQ    512,DL
         3 014154   007416 552010 2                  STBQ    NINE_TRACK_TBL,'10'O
         3 014155   014205 710000 3                  TRA     s:5414

     2095     5401    3         CASE(131);

     2096     5402    3           NINE_TRACK_TBL.THREE = NINE_TRACK_TBL.THREE + 1;

   5402  3 014156   007416 236000 2                  LDQ     NINE_TRACK_TBL
         3 014157   000001 036007                    ADLQ    1,DL
         3 014160   007416 552004 2                  STBQ    NINE_TRACK_TBL,'04'O
         3 014161   014205 710000 3                  TRA     s:5414

     2097     5403    3         CASE(132);

     2098     5404    3           NINE_TRACK_TBL.NINE = NINE_TRACK_TBL.NINE + 1;

   5404  3 014162   007417 236000 2                  LDQ     NINE_TRACK_TBL+1
         3 014163   001000 036003                    ADLQ    512,DU
         3 014164   007417 552040 2                  STBQ    NINE_TRACK_TBL+1,'40'O
         3 014165   014205 710000 3                  TRA     s:5414
PL6.E3A0      #001=THF$RAW File=THF$FORMAT.:E05TSI                               WED 07/30/97 06:08 Page:412

     2099     5405    3         CASE(133);

     2100     5406    3           NINE_TRACK_TBL.ONE = NINE_TRACK_TBL.ONE + 1;

   5406  3 014166   007417 236000 2                  LDQ     NINE_TRACK_TBL+1
         3 014167   000001 036003                    ADLQ    1,DU
         3 014170   007417 552020 2                  STBQ    NINE_TRACK_TBL+1,'20'O
         3 014171   014205 710000 3                  TRA     s:5414

     2101     5407    3         CASE(134);

     2102     5408    3           NINE_TRACK_TBL.EIGHT = NINE_TRACK_TBL.EIGHT + 1;

   5408  3 014172   007417 236000 2                  LDQ     NINE_TRACK_TBL+1
         3 014173   001000 036007                    ADLQ    512,DL
         3 014174   007417 552010 2                  STBQ    NINE_TRACK_TBL+1,'10'O
         3 014175   014205 710000 3                  TRA     s:5414

     2103     5409    3         CASE(135);

     2104     5410    3           NINE_TRACK_TBL.TWO = NINE_TRACK_TBL.TWO + 1;

   5410  3 014176   007417 236000 2                  LDQ     NINE_TRACK_TBL+1
         3 014177   000001 036007                    ADLQ    1,DL
         3 014200   007417 552004 2                  STBQ    NINE_TRACK_TBL+1,'04'O
         3 014201   014205 710000 3                  TRA     s:5414

     2105     5411    3         CASE(136);

     2106     5412    3           NINE_TRACK_TBL.FOUR = NINE_TRACK_TBL.FOUR + 1;

   5412  3 014202   007420 236000 2                  LDQ     NINE_TRACK_TBL+2
         3 014203   001000 036003                    ADLQ    512,DU
         3 014204   007420 552040 2                  STBQ    NINE_TRACK_TBL+2,'40'O

     2107     5413    3      END;  /*  do case  */
PL6.E3A0      #001=THF$RAW File=THF$FORMAT.:E05TSI                               WED 07/30/97 06:08 Page:413

     2108     5414    3      DO X = 0 TO 8;

   5414  3 014205   200011 450100                    STZ     X,,AUTO

     2109     5415    3         IF NINE_TRACK_RDF(X) > 0 THEN TRACK_NINE = %TRUE;

   5415  3 014206   200011 235100                    LDA     X,,AUTO
         3 014207   000100 101405                    MRL     fill='000'O
         3 014210   007416 000001 2                  ADSC9   NINE_TRACK_TBL,A         cn=0,n=1
         3 014211   200534 000004                    ADSC9   CHIP#+2,,AUTO            cn=0,n=4
         3 014212   200534 236100                    LDQ     CHIP#+2,,AUTO
         3 014213   000000 116003                    CMPQ    0,DU
         3 014214   014217 600000 3                  TZE     s:5416

   5415  3 014215   400000 236003                    LDQ     -131072,DU
         3 014216   200511 756100                    STQ     TRACK_NINE,,AUTO

     2110     5416    3      END;

   5416  3 014217   200011 054100                    AOS     X,,AUTO
         3 014220   200011 235100                    LDA     X,,AUTO
         3 014221   000010 115007                    CMPA    8,DL
         3 014222   014206 604400 3                  TMOZ    s:5415

     2111     5417    2   END FIND_NINE_TRACKS;

   5417  3 014223   200526 221300                    LDX1  ! @BOARD,,AUTO
         3 014224   000001 702211                    TSX2  ! 1,X1

     2112     5418        %EJECT;
PL6.E3A0      #001=THF$RAW File=THF$FORMAT.:E05TSI                               WED 07/30/97 06:08 Page:414
     2113     5419        /**/
     2114     5420        /* PROCEDURE TO CHECK TABLES FOR EXTENDED STATUS BIT MATCH */
     2115     5421        /**/
     2116     5422    1   CHECK_MODEL_CODES: PROC;

   5422  3 014225   200526 741300       CHECK_MODEL* STX1  ! @BOARD,,AUTO

     2117     5423        /**/
     2118     5424    2   FOUND_ST = %TRUE;

   5424  3 014226   400000 236003                    LDQ     -131072,DU
         3 014227   200513 756100                    STQ     FOUND_ST,,AUTO

     2119     5425    2   IF FIPS_TAPE

   5425  3 014230   200277 234100                    SZN     FIPS_TAPE,,AUTO
         3 014231   014252 605000 3                  TPL     s:5433

     2120     5426    3   THEN DO X = 0 TO 26;

   5426  3 014232   200011 450100                    STZ     X,,AUTO

     2121     5427    3           IF DEVTBL.CODE(I) = TBL_EIGHTY_TWO.CODE(X)

   5427  3 014233   200011 720100                    LXL0    X,,AUTO
         3 014234   200010 236100                    LDQ     I,,AUTO
         3 014235   000012 402007                    MPY     10,DL
         3 014236   200215 470500                    LDP0    DEV$,,AUTO
         3 014237   000000 236106                    LDQ     0,QL,PR0
         3 014240   000000 676010 xsym               ERQ     TBL_EIGHTY_TWO,X0
         3 014241   777000 376003                    ANQ     -512,DU
         3 014242   014245 601000 3                  TNZ     s:5432

     2122     5428    4           THEN DO;

     2123     5429    4              FOUND_ST = %FALSE;

PL6.E3A0      #001=THF$RAW File=THF$FORMAT.:E05TSI                               WED 07/30/97 06:08 Page:415
   5429  3 014243   200513 450100                    STZ     FOUND_ST,,AUTO

     2124     5430    4              GOTO FOUND_CODE;

   5430  3 014244   014431 710000 3                  TRA     FOUND_CODE

     2125     5431    4           END;
     2126     5432    3        END; /* do x */

   5432  3 014245   200011 054100                    AOS     X,,AUTO
         3 014246   200011 235100                    LDA     X,,AUTO
         3 014247   000032 115007                    CMPA    26,DL
         3 014250   014233 604400 3                  TMOZ    s:5427
         3 014251   014431 710000 3                  TRA     FOUND_CODE

     2127     5433    2   ELSE IF IO_MASK1(16) AND (TRACK_SEVEN OR TRACK_NINE) AND

   5433  3 014252   200221 236100                    LDQ     IO_MASK,,AUTO
         3 014253   000002 316003                    CANQ    2,DU
         3 014254   014312 600000 3                  TZE     s:5436
         3 014255   200512 234100                    SZN     TRACK_SEVEN,,AUTO
         3 014256   014261 604000 3                  TMI     s:5433+7
         3 014257   200511 234100                    SZN     TRACK_NINE,,AUTO
         3 014260   014312 605000 3                  TPL     s:5436
         3 014261   200010 236100                    LDQ     I,,AUTO
         3 014262   000012 402007                    MPY     10,DL
         3 014263   200215 470500                    LDP0    DEV$,,AUTO
         3 014264   000000 236106                    LDQ     0,QL,PR0
         3 014265   777000 376003                    ANQ     -512,DU
         3 014266   202000 116003                    CMPQ    66560,DU
         3 014267   014276 602000 3                  TNC     s:5433+20
         3 014270   200010 236100                    LDQ     I,,AUTO
         3 014271   000012 402007                    MPY     10,DL
         3 014272   000000 236106                    LDQ     0,QL,PR0
         3 014273   777000 376003                    ANQ     -512,DU
         3 014274   212000 116003                    CMPQ    70656,DU
         3 014275   014431 602000 3                  TNC     FOUND_CODE
PL6.E3A0      #001=THF$RAW File=THF$FORMAT.:E05TSI                               WED 07/30/97 06:08 Page:416
         3 014276   200010 236100                    LDQ     I,,AUTO
         3 014277   000012 402007                    MPY     10,DL
         3 014300   000000 236106                    LDQ     0,QL,PR0
         3 014301   777000 376003                    ANQ     -512,DU
         3 014302   220000 116003                    CMPQ    73728,DU
         3 014303   014312 602000 3                  TNC     s:5436
         3 014304   200010 236100                    LDQ     I,,AUTO
         3 014305   000012 402007                    MPY     10,DL
         3 014306   000000 236106                    LDQ     0,QL,PR0
         3 014307   777000 376003                    ANQ     -512,DU
         3 014310   230000 116003                    CMPQ    77824,DU
         3 014311   014431 602000 3                  TNC     FOUND_CODE

     2128     5434    2      ((DEVTBL.CODE(I) >= 130 AND DEVTBL.CODE(I) <= 137)
     2129     5435    2     OR(DEVTBL.CODE(I) >= 144 AND DEVTBL.CODE(I) <= 151)) THEN;
     2130     5436    2   ELSE IF TRACK_NINE AND

   5436  3 014312   200511 234100                    SZN     TRACK_NINE,,AUTO
         3 014313   014331 605000 3                  TPL     s:5438
         3 014314   200010 236100                    LDQ     I,,AUTO
         3 014315   000012 402007                    MPY     10,DL
         3 014316   200215 470500                    LDP0    DEV$,,AUTO
         3 014317   000000 236106                    LDQ     0,QL,PR0
         3 014320   777000 376003                    ANQ     -512,DU
         3 014321   200000 116003                    CMPQ    65536,DU
         3 014322   014331 602000 3                  TNC     s:5438
         3 014323   200010 236100                    LDQ     I,,AUTO
         3 014324   000012 402007                    MPY     10,DL
         3 014325   000000 236106                    LDQ     0,QL,PR0
         3 014326   777000 376003                    ANQ     -512,DU
         3 014327   211000 116003                    CMPQ    70144,DU
         3 014330   014431 602000 3                  TNC     FOUND_CODE

     2131     5437    2          (DEVTBL.CODE(I) >= 128 AND DEVTBL.CODE(I) <= 136) THEN;
     2132     5438    2   ELSE IF EL$IOERR.MODEL = 'MTU0610' OR EL$IOERR.MODEL = 'MTU0630'

   5438  3 014331   200005 470500                    LDP0    INFO+1,,AUTO
PL6.E3A0      #001=THF$RAW File=THF$FORMAT.:E05TSI                               WED 07/30/97 06:08 Page:417
         3 014332   040000 106500                    CMPC    fill='040'O
         3 014333   000030 000010                    ADSC9   24,,PR0                  cn=0,n=8
         3 014334   001617 000007 1                  ADSC9   BOARD_64K+464            cn=0,n=7
         3 014335   014342 600000 3                  TZE     s:5440
         3 014336   040000 106500                    CMPC    fill='040'O
         3 014337   000030 000010                    ADSC9   24,,PR0                  cn=0,n=8
         3 014340   001774 000007 1                  ADSC9   BOARD_64K+573            cn=0,n=7
         3 014341   014430 601000 3                  TNZ     s:5458

     2133     5439    3   THEN DO;

     2134     5440    4         DO X = 0 TO 9;

   5440  3 014342   200011 450100                    STZ     X,,AUTO

     2135     5441    4            IF DEVTBL.CODE(I) = TBL_SIX.CODE(X)

   5441  3 014343   200011 720100                    LXL0    X,,AUTO
         3 014344   200010 236100                    LDQ     I,,AUTO
         3 014345   000012 402007                    MPY     10,DL
         3 014346   200215 470500                    LDP0    DEV$,,AUTO
         3 014347   000000 236106                    LDQ     0,QL,PR0
         3 014350   000000 676010 xsym               ERQ     TBL_SIX,X0
         3 014351   777000 376003                    ANQ     -512,DU
         3 014352   014355 601000 3                  TNZ     s:5446

     2136     5442    5            THEN DO;

     2137     5443    5              FOUND_ST = %FALSE;

   5443  3 014353   200513 450100                    STZ     FOUND_ST,,AUTO

     2138     5444    5              GOTO FOUND_CODE;

   5444  3 014354   014431 710000 3                  TRA     FOUND_CODE

     2139     5445    5            END;
PL6.E3A0      #001=THF$RAW File=THF$FORMAT.:E05TSI                               WED 07/30/97 06:08 Page:418
     2140     5446    4         END;  /* do x */

   5446  3 014355   200011 054100                    AOS     X,,AUTO
         3 014356   200011 235100                    LDA     X,,AUTO
         3 014357   000011 115007                    CMPA    9,DL
         3 014360   014343 604400 3                  TMOZ    s:5441

     2141     5447    3         IF EL$IOERR.MODEL = 'MTU0610'

   5447  3 014361   200005 471500                    LDP1    INFO+1,,AUTO
         3 014362   040000 106500                    CMPC    fill='040'O
         3 014363   100030 000010                    ADSC9   24,,PR1                  cn=0,n=8
         3 014364   001617 000007 1                  ADSC9   BOARD_64K+464            cn=0,n=7
         3 014365   014405 601000 3                  TNZ     s:5452

     2142     5448    4         THEN   DO X = 0 TO 9;

   5448  3 014366   200011 450100                    STZ     X,,AUTO

     2143     5449    4                  IF DEVTBL.CODE(I) = TBL_SIX_TEN.CODE(X)

   5449  3 014367   200011 720100                    LXL0    X,,AUTO
         3 014370   200010 236100                    LDQ     I,,AUTO
         3 014371   000012 402007                    MPY     10,DL
         3 014372   200215 470500                    LDP0    DEV$,,AUTO
         3 014373   000000 236106                    LDQ     0,QL,PR0
         3 014374   000000 676010 xsym               ERQ     TBL_SIX_TEN,X0
         3 014375   777000 376003                    ANQ     -512,DU
         3 014376   014400 601000 3                  TNZ     s:5451

     2144     5450    4                  THEN FOUND_ST = %FALSE;

   5450  3 014377   200513 450100                    STZ     FOUND_ST,,AUTO

     2145     5451    4                END;

   5451  3 014400   200011 054100                    AOS     X,,AUTO
PL6.E3A0      #001=THF$RAW File=THF$FORMAT.:E05TSI                               WED 07/30/97 06:08 Page:419
         3 014401   200011 235100                    LDA     X,,AUTO
         3 014402   000011 115007                    CMPA    9,DL
         3 014403   014367 604400 3                  TMOZ    s:5449
         3 014404   014431 710000 3                  TRA     FOUND_CODE

     2146     5452    3         ELSE IF EL$IOERR.MODEL = 'MTU0630'

   5452  3 014405   040000 106500                    CMPC    fill='040'O
         3 014406   100030 000010                    ADSC9   24,,PR1                  cn=0,n=8
         3 014407   001774 000007 1                  ADSC9   BOARD_64K+573            cn=0,n=7
         3 014410   014431 601000 3                  TNZ     FOUND_CODE

     2147     5453    4         THEN  DO X = 0 TO 7;

   5453  3 014411   200011 450100                    STZ     X,,AUTO

     2148     5454    4                  IF DEVTBL.CODE(I) = TBL_SIX_THIRTY.CODE(X)

   5454  3 014412   200011 720100                    LXL0    X,,AUTO
         3 014413   200010 236100                    LDQ     I,,AUTO
         3 014414   000012 402007                    MPY     10,DL
         3 014415   200215 470500                    LDP0    DEV$,,AUTO
         3 014416   000000 236106                    LDQ     0,QL,PR0
         3 014417   000000 676010 xsym               ERQ     TBL_SIX_THIRTY,X0
         3 014420   777000 376003                    ANQ     -512,DU
         3 014421   014423 601000 3                  TNZ     s:5456

     2149     5455    4                  THEN FOUND_ST = %FALSE;

   5455  3 014422   200513 450100                    STZ     FOUND_ST,,AUTO

     2150     5456    4               END; /* do x */

   5456  3 014423   200011 054100                    AOS     X,,AUTO
         3 014424   200011 235100                    LDA     X,,AUTO
         3 014425   000007 115007                    CMPA    7,DL
         3 014426   014412 604400 3                  TMOZ    s:5454
PL6.E3A0      #001=THF$RAW File=THF$FORMAT.:E05TSI                               WED 07/30/97 06:08 Page:420

     2151     5457    3   END;  /* if el$ioerr.model = 'mtu0610' or 'mtu0630' */

   5457  3 014427   014431 710000 3                  TRA     FOUND_CODE

     2152     5458    2   ELSE FOUND_ST = %FALSE;

   5458  3 014430   200513 450100                    STZ     FOUND_ST,,AUTO

   5452  3 014431                       FOUND_CODE   null
     2153     5459    2   FOUND_CODE:;
     2154     5460    2   END CHECK_MODEL_CODES;

   5460  3 014431   200526 221300                    LDX1  ! @BOARD,,AUTO
         3 014432   000001 702211                    TSX2  ! 1,X1

     2155     5461        %EJECT;
PL6.E3A0      #001=THF$RAW File=THF$FORMAT.:E05TSI                               WED 07/30/97 06:08 Page:421
     2156     5462        /**/
     2157     5463        /*  PROCEDURE TO INITIALIZE TABLES FOR IOERR DETAIL REPORT */
     2158     5464        /**/
     2159     5465    1   INIT_TABLES: PROC;

   5465  3 014433   200526 741300       INIT_TABLES  STX1  ! @BOARD,,AUTO

     2160     5466    2         NUM_XSTATUS = 0;

   5466  3 014434   200510 450100                    STZ     NUM_XSTATUS,,AUTO

     2161     5467    2         TRACK_SEVEN = %FALSE;

   5467  3 014435   200512 450100                    STZ     TRACK_SEVEN,,AUTO

     2162     5468    2         TRACK_NINE = %FALSE;

   5468  3 014436   200511 450100                    STZ     TRACK_NINE,,AUTO

     2163     5469    2         OTHER_IOERR_TBL.COUNT = 0;

   5469  3 014437   003332 450000 2                  STZ     OTHER_IOERR_TBL

     2164     5470    2         OTHER_IOERR_TBL.OPERATION = OPERATION;

   5470  3 014440   200502 237100                    LDAQ    OPERATION,,AUTO
         3 014441   003333 755000 2                  STA     OTHER_IOERR_TBL+1
         3 014442   003334 756000 2                  STQ     OTHER_IOERR_TBL+2

     2165     5471    2         OTHER_IOERR_TBL.SPEED = ' ';

   5471  3 014443   040000 100400                    MLR     fill='040'O
         3 014444   000035 000001 xsym               ADSC9   B_VECTNIL+29             cn=0,n=1
         3 014445   003335 000040 2                  ADSC9   OTHER_IOERR_TBL+3        cn=0,n=32

     2166     5472    2         OTHER_IOERR_TBL.DENSITY = ' ';

PL6.E3A0      #001=THF$RAW File=THF$FORMAT.:E05TSI                               WED 07/30/97 06:08 Page:422
   5472  3 014446   040000 100400                    MLR     fill='040'O
         3 014447   000035 000001 xsym               ADSC9   B_VECTNIL+29             cn=0,n=1
         3 014450   003345 000040 2                  ADSC9   OTHER_IOERR_TBL+11       cn=0,n=32

     2167     5473    2         OTHER_IOERR_TBL.TRACK = ' ';

   5473  3 014451   040000 236003                    LDQ     16384,DU
         3 014452   003355 756000 2                  STQ     OTHER_IOERR_TBL+19

     2168     5474    3         DO I = 0 TO 207;

   5474  3 014453   200010 450100                    STZ     I,,AUTO

     2169     5475    3            XSTAT_TBL.TEXT(I) = ' ';

   5475  3 014454   200010 236100                    LDQ     I,,AUTO
         3 014455   000050 402007                    MPY     40,DL
         3 014456   040006 100400                    MLR     fill='040'O
         3 014457   000035 000001 xsym               ADSC9   B_VECTNIL+29             cn=0,n=1
         3 014460   003357 000043 2                  ADSC9   XSTAT_TBL+1,Q            cn=0,n=35

     2170     5476    3            XSTAT_TBL.COUNT(I) = 0;

   5476  3 014461   200010 236100                    LDQ     I,,AUTO
         3 014462   000012 402007                    MPY     10,DL
         3 014463   003356 450006 2                  STZ     XSTAT_TBL,QL

     2171     5477    3         END;  /* do i = 0 to 207  */

   5477  3 014464   200010 054100                    AOS     I,,AUTO
         3 014465   200010 235100                    LDA     I,,AUTO
         3 014466   000317 115007                    CMPA    207,DL
         3 014467   014454 604400 3                  TMOZ    s:5475

     2172     5478    2         NINE_TRACK_TBL = '0'B;

   5478  3 014470   000000 100400                    MLR     fill='000'O
PL6.E3A0      #001=THF$RAW File=THF$FORMAT.:E05TSI                               WED 07/30/97 06:08 Page:423
         3 014471   000002 000001 xsym               ADSC9   B_VECTNIL+2              cn=0,n=1
         3 014472   007416 000011 2                  ADSC9   NINE_TRACK_TBL           cn=0,n=9

     2173     5479    2         NINE_TRACK_STRING = ' ';

   5479  3 014473   040100 100400                    MLR     fill='040'O
         3 014474   000035 000001 xsym               ADSC9   B_VECTNIL+29             cn=0,n=1
         3 014475   200514 000033                    ADSC9   NINE_TRACK_BLNK,,AUTO    cn=0,n=27

     2174     5480    2         FIPS_TAPE = %FALSE;

   5480  3 014476   200277 450100                    STZ     FIPS_TAPE,,AUTO

     2175     5481    2   END INIT_TABLES;

   5481  3 014477   200526 221300                    LDX1  ! @BOARD,,AUTO
         3 014500   000001 702211                    TSX2  ! 1,X1

     2176     5482        %EJECT;
PL6.E3A0      #001=THF$RAW File=THF$FORMAT.:E05TSI                               WED 07/30/97 06:08 Page:424
     2177     5483        /**/
     2178     5484        /* ROUTINE TO FIND THE DENSITY FOR FIPS TAPES                     */
     2179     5485        /**/
     2180     5486    1   FIND_DEN_MODE: PROC;

   5486  3 014501   200526 741300       FIND_DEN_MO* STX1  ! @BOARD,,AUTO

     2181     5487        /**/
     2182     5488    2     IF IO_MASK1(DEVTBL.CODE(I))   /* if byte 3, bit 5 is set */

   5488  3 014502   200010 236100                    LDQ     I,,AUTO
         3 014503   000012 402007                    MPY     10,DL
         3 014504   200215 470500                    LDP0    DEV$,,AUTO
         3 014505   000000 236106                    LDQ     0,QL,PR0
         3 014506   000033 772000                    QRL     27
         3 014507   000000 066506                    CMPB    filb='0'B
         3 014510   200221 000001                    BDSC    IO_MASK,Q,AUTO           by=0,bit=0,n=1
         3 014511   000002 000022 xsym               BDSC    B_VECTNIL+2              by=0,bit=0,n=18
         3 014512   014521 600000 3                  TZE     s:5493

     2183     5489    3     THEN DO;

     2184     5490    3        XST_TEXT = 'CURR DEN: 1600 BPI';   /* its PE mode */

   5490  3 014513   040100 100400                    MLR     fill='040'O
         3 014514   001776 000022 1                  ADSC9   BOARD_64K+575            cn=0,n=18
         3 014515   200304 000043                    ADSC9   XST_TEXT,,AUTO           cn=0,n=35

     2185     5491    3        XST_CNT = 18;

   5491  3 014516   000022 235007                    LDA     18,DL
         3 014517   200342 755100                    STA     XST_CNT,,AUTO

     2186     5492    3     END;

   5492  3 014520   014541 710000 3                  TRA     s:5503

PL6.E3A0      #001=THF$RAW File=THF$FORMAT.:E05TSI                               WED 07/30/97 06:08 Page:425
     2187     5493    2     ELSE IF IO_MASK1(51)  /* if not PE mode, check byte 6, bit 3 */

   5493  3 014521   200222 236100                    LDQ     IO_MASK+1,,AUTO
         3 014522   000004 316003                    CANQ    4,DU
         3 014523   014532 600000 3                  TZE     s:5498

     2188     5494    3     THEN DO;

     2189     5495    3        XST_TEXT = 'CURR DEN: 6250 BPI'; /* its GCR mode */

   5495  3 014524   040100 100400                    MLR     fill='040'O
         3 014525   002003 000022 1                  ADSC9   BOARD_64K+580            cn=0,n=18
         3 014526   200304 000043                    ADSC9   XST_TEXT,,AUTO           cn=0,n=35

     2190     5496    3        XST_CNT = 18;

   5496  3 014527   000022 235007                    LDA     18,DL
         3 014530   200342 755100                    STA     XST_CNT,,AUTO

     2191     5497    3     END;

   5497  3 014531   014541 710000 3                  TRA     s:5503

     2192     5498    2     ELSE IF NOT IO_MASK1(52)   /* if not GCR, check byte 6, bit 4 */

   5498  3 014532   000002 316003                    CANQ    2,DU
         3 014533   014541 601000 3                  TNZ     s:5503

     2193     5499    3     THEN DO;

     2194     5500    3        XST_TEXT = 'CURR DEN: 200/556/800 BPI'; /* its NRZI mode */

   5500  3 014534   040100 100400                    MLR     fill='040'O
         3 014535   002010 000031 1                  ADSC9   BOARD_64K+585            cn=0,n=25
         3 014536   200304 000043                    ADSC9   XST_TEXT,,AUTO           cn=0,n=35

     2195     5501    3        XST_CNT = 25;
PL6.E3A0      #001=THF$RAW File=THF$FORMAT.:E05TSI                               WED 07/30/97 06:08 Page:426

   5501  3 014537   000031 235007                    LDA     25,DL
         3 014540   200342 755100                    STA     XST_CNT,,AUTO

     2196     5502    3     END;

     2197     5503    3     IF NOT TH_DETAIL_FLG THEN DO;

   5503  3 014541   000000 234000 xsym               SZN     TH_DETAIL_FLG
         3 014542   014560 604000 3                  TMI     s:5507

     2198     5504    3       CALL THF$ADD_TEXTC(XST$,XST_TEXT,XST_CNT);

   5504  3 014543   200342 631500                    EPPR1   XST_CNT,,AUTO
         3 014544   200536 451500                    STP1    CHIP#+4,,AUTO
         3 014545   200304 633500                    EPPR3   XST_TEXT,,AUTO
         3 014546   200535 453500                    STP3    CHIP#+3,,AUTO
         3 014547   200300 634500                    EPPR4   XST$,,AUTO
         3 014550   200534 454500                    STP4    CHIP#+2,,AUTO
         3 014551   200534 630500                    EPPR0   CHIP#+2,,AUTO
         3 014552   000021 631400 xsym               EPPR1   B_VECTNIL+17
         3 014553   000000 701000 xent               TSX1    THF$ADD_TEXTC
         3 014554   000000 011000                    NOP     0

     2199     5505    3       NXST = NXST + 1;

   5505  3 014555   200343 235100                    LDA     NXST,,AUTO
         3 014556   000001 035007                    ADLA    1,DL
         3 014557   200343 755100                    STA     NXST,,AUTO

     2200     5506    3     END;  /* if not detail */

     2201     5507    2   END FIND_DEN_MODE;

   5507  3 014560   200526 221300                    LDX1  ! @BOARD,,AUTO
         3 014561   000001 702211                    TSX2  ! 1,X1

PL6.E3A0      #001=THF$RAW File=THF$FORMAT.:E05TSI                               WED 07/30/97 06:08 Page:427
     2202     5508        %EJECT;
PL6.E3A0      #001=THF$RAW File=THF$FORMAT.:E05TSI                               WED 07/30/97 06:08 Page:428
     2203     5509        /**/
     2204     5510        /* ROUTINE TO FIND FORMAT# AND MESSAGE# TO INTERPRET BYTE 7 OF  */
     2205     5511        /* EXTENDED STATUS BITS FOR FIPS TAPES                          */
     2206     5512        /**/
     2207     5513    1   FIND_FORMAT_MSG: PROC;

   5513  3 014562   200524 741300       FIND_FORMAT* STX1  ! NINE_TRACK_BLNK+8,,AUTO

     2208     5514        /**/
     2209     5515    3     DO II = 0 TO 3;   /* get bits 0-3 of byte 7 for format type */

   5515  3 014563   200454 450100                    STZ     II,,AUTO

     2210     5516    3       IF IO_MASK1(DEVTBL.CODE(I) + II)

   5516  3 014564   200010 236100                    LDQ     I,,AUTO
         3 014565   000012 402007                    MPY     10,DL
         3 014566   200215 470500                    LDP0    DEV$,,AUTO
         3 014567   000000 236106                    LDQ     0,QL,PR0
         3 014570   000033 772000                    QRL     27
         3 014571   200454 036100                    ADLQ    II,,AUTO
         3 014572   000000 066506                    CMPB    filb='0'B
         3 014573   200221 000001                    BDSC    IO_MASK,Q,AUTO           by=0,bit=0,n=1
         3 014574   000002 000022 xsym               BDSC    B_VECTNIL+2              by=0,bit=0,n=18
         3 014575   014603 600000 3                  TZE     s:5518

     2211     5517    3       THEN DP_BIT(II) = '1'B;

   5517  3 014576   200454 235100                    LDA     II,,AUTO
         3 014577   003105 060400                    CSL     bolr='003'O
         3 014600   000030 000001 xsym               BDSC    B_VECTNIL+24             by=0,bit=0,n=1
         3 014601   200463 000001                    BDSC    DP_BIT,A,AUTO            by=0,bit=0,n=1
         3 014602   014607 710000 3                  TRA     s:5519

     2212     5518    3       ELSE DP_BIT(II) = '0'B;

   5518  3 014603   200454 235100                    LDA     II,,AUTO
PL6.E3A0      #001=THF$RAW File=THF$FORMAT.:E05TSI                               WED 07/30/97 06:08 Page:429
         3 014604   003105 060400                    CSL     bolr='003'O
         3 014605   000002 000001 xsym               BDSC    B_VECTNIL+2              by=0,bit=0,n=1
         3 014606   200463 000001                    BDSC    DP_BIT,A,AUTO            by=0,bit=0,n=1

     2213     5519    3     END;

   5519  3 014607   000001 035007                    ADLA    1,DL
         3 014610   200454 755100                    STA     II,,AUTO
         3 014611   000004 115007                    CMPA    4,DL
         3 014612   014564 602000 3                  TNC     s:5516

     2214     5520    3     DO II = 0 TO 8;   /* go through list of formats to find format */

   5520  3 014613   200454 450100                    STZ     II,,AUTO

     2215     5521                            /* match in byte 7, bits 0-3                 */
     2216     5522    3       IF (DP_FORMAT = II)AND NOT IO_MASK1(11) /* if format 0       */

   5522  3 014614   200463 236100                    LDQ     DP_BIT,,AUTO
         3 014615   000040 772000                    QRL     32
         3 014616   200454 116100                    CMPQ    II,,AUTO
         3 014617   014630 601000 3                  TNZ     s:5528
         3 014620   200221 236100                    LDQ     IO_MASK,,AUTO
         3 014621   000100 316003                    CANQ    64,DU
         3 014622   014630 601000 3                  TNZ     s:5528

     2217     5523    4       THEN DO;                           /* but byte 1, bit 3 = 0  */

     2218     5524    4         DPC$ = ADDR(FORM0_NOTB1_B3);

   5524  3 014623   000441 236000 4                  LDQ     289
         3 014624   200465 756100                    STQ     DPC$,,AUTO

     2219     5525    4         LENN = 9;

   5525  3 014625   000011 235007                    LDA     9,DL
         3 014626   200461 755100                    STA     LENN,,AUTO
PL6.E3A0      #001=THF$RAW File=THF$FORMAT.:E05TSI                               WED 07/30/97 06:08 Page:430

     2220     5526    4         GOTO FOUND_FORMAT;

   5526  3 014627   014652 710000 3                  TRA     FOUND_FORMAT

     2221     5527    4       END;
     2222     5528    3       ELSE IF(DP_FORMAT = II)  /* if format type found in list     */

   5528  3 014630   200463 236100                    LDQ     DP_BIT,,AUTO
         3 014631   000040 772000                    QRL     32
         3 014632   200454 116100                    CMPQ    II,,AUTO
         3 014633   014644 601000 3                  TNZ     s:5534

     2223     5529    4       THEN DO;

     2224     5530    4         DPC$ = FORMAT_TBLS.SUB$(II);

   5530  3 014634   200454 235100                    LDA     II,,AUTO
         3 014635   000001 735000                    ALS     1
         3 014636   000000 236005 xsym               LDQ     FORMAT_TBLS,AL
         3 014637   200465 756100                    STQ     DPC$,,AUTO

     2225     5531    4         LENN = FORMAT_TBLS.COUNT(II);

   5531  3 014640   000001 236005 xsym               LDQ     FORMAT_TBLS+1,AL
         3 014641   000033 772000                    QRL     27
         3 014642   200461 756100                    STQ     LENN,,AUTO

     2226     5532    4         GOTO FOUND_FORMAT;

   5532  3 014643   014652 710000 3                  TRA     FOUND_FORMAT

     2227     5533    4       END;
     2228     5534    3     END; /* do ii */

   5534  3 014644   200454 235100                    LDA     II,,AUTO
         3 014645   000001 035007                    ADLA    1,DL
PL6.E3A0      #001=THF$RAW File=THF$FORMAT.:E05TSI                               WED 07/30/97 06:08 Page:431
         3 014646   200454 755100                    STA     II,,AUTO
         3 014647   000011 115007                    CMPA    9,DL
         3 014650   014614 602000 3                  TNC     s:5522

     2229     5535    2     GOTO NEXT_BIT;  /* if not found format match */

   5535  3 014651   014734 710000 3                  TRA     NEXT_BIT

     2230     5536    2   FOUND_FORMAT:
     2231     5537    3     DO II = 0 TO 3;  /* for message code, get bits 4-7 of byte 7  */

   5537  3 014652   200454 450100       FOUND_FORMAT STZ     II,,AUTO

     2232     5538    3       IF IO_MASK1(DEVTBL.CODE(I) + 3 + II)

   5538  3 014653   200010 236100                    LDQ     I,,AUTO
         3 014654   000012 402007                    MPY     10,DL
         3 014655   200215 470500                    LDP0    DEV$,,AUTO
         3 014656   000000 236106                    LDQ     0,QL,PR0
         3 014657   000033 772000                    QRL     27
         3 014660   200454 036100                    ADLQ    II,,AUTO
         3 014661   000000 066506                    CMPB    filb='0'B
         3 014662   200221 030001                    BDSC    IO_MASK,Q,AUTO           by=0,bit=3,n=1
         3 014663   000002 000022 xsym               BDSC    B_VECTNIL+2              by=0,bit=0,n=18
         3 014664   014672 600000 3                  TZE     s:5540

     2233     5539    3       THEN DP_BIT(II) = '1'B;

   5539  3 014665   200454 235100                    LDA     II,,AUTO
         3 014666   003105 060400                    CSL     bolr='003'O
         3 014667   000030 000001 xsym               BDSC    B_VECTNIL+24             by=0,bit=0,n=1
         3 014670   200463 000001                    BDSC    DP_BIT,A,AUTO            by=0,bit=0,n=1
         3 014671   014676 710000 3                  TRA     s:5541

     2234     5540    3       ELSE DP_BIT(II) = '0'B;

   5540  3 014672   200454 235100                    LDA     II,,AUTO
PL6.E3A0      #001=THF$RAW File=THF$FORMAT.:E05TSI                               WED 07/30/97 06:08 Page:432
         3 014673   003105 060400                    CSL     bolr='003'O
         3 014674   000002 000001 xsym               BDSC    B_VECTNIL+2              by=0,bit=0,n=1
         3 014675   200463 000001                    BDSC    DP_BIT,A,AUTO            by=0,bit=0,n=1

     2235     5541    3     END;

   5541  3 014676   000001 035007                    ADLA    1,DL
         3 014677   200454 755100                    STA     II,,AUTO
         3 014700   000004 115007                    CMPA    4,DL
         3 014701   014653 602000 3                  TNC     s:5538

     2236     5542    3     DO II = 0 TO LENN; /* go thru the found format tbl for the msg.*/

   5542  3 014702   200454 450100                    STZ     II,,AUTO
         3 014703   014731 710000 3                  TRA     s:5549+3

     2237     5543    3       IF DP_FORM_MSG = DP_FORM_TBL.CODE(II)  /* if msg found in tbl*/

   5543  3 014704   200454 235100                    LDA     II,,AUTO
         3 014705   000003 735000                    ALS     3
         3 014706   200465 470500                    LDP0    DPC$,,AUTO
         3 014707   000000 620005                    EAX0    0,AL
         3 014710   200463 236100                    LDQ     DP_BIT,,AUTO
         3 014711   000000 676110                    ERQ     0,X0,PR0
         3 014712   740000 376003                    ANQ     -16384,DU
         3 014713   014726 601000 3                  TNZ     s:5549

     2238     5544    4       THEN DO;

     2239     5545    4         XST_TEXT = DP_FORM_TBL.TEXT(II);

   5545  3 014714   200454 236100                    LDQ     II,,AUTO
         3 014715   000005 736000                    QLS     5
         3 014716   040100 100506                    MLR     fill='040'O
         3 014717   000000 400036                    ADSC9   0,Q,PR0                  cn=2,n=30
         3 014720   200304 000043                    ADSC9   XST_TEXT,,AUTO           cn=0,n=35

PL6.E3A0      #001=THF$RAW File=THF$FORMAT.:E05TSI                               WED 07/30/97 06:08 Page:433
     2240     5546    4         XST_CNT = DP_FORM_TBL.COUNT(II);

   5546  3 014721   000000 236110                    LDQ     0,X0,PR0
         3 014722   000027 772000                    QRL     23
         3 014723   000777 376007                    ANQ     511,DL
         3 014724   200342 756100                    STQ     XST_CNT,,AUTO

     2241     5547    4         GOTO NEXT_BIT;

   5547  3 014725   014734 710000 3                  TRA     NEXT_BIT

     2242     5548    4       END;  /* if */
     2243     5549    3     END;  /* do ii */

   5549  3 014726   200454 236100                    LDQ     II,,AUTO
         3 014727   000001 036007                    ADLQ    1,DL
         3 014730   200454 756100                    STQ     II,,AUTO
         3 014731   200461 236100                    LDQ     LENN,,AUTO
         3 014732   200454 116100                    CMPQ    II,,AUTO
         3 014733   014704 603000 3                  TRC     s:5543

     2244     5550    2   NEXT_BIT:  IF LENN > 20 THEN RETURN; /* if format match not found */

   5550  3 014734   200461 235100       NEXT_BIT     LDA     LENN,,AUTO
         3 014735   000025 115007                    CMPA    21,DL
         3 014736   014741 602000 3                  TNC     s:5551

   5550  3 014737   200524 221300                    LDX1  ! NINE_TRACK_BLNK+8,,AUTO
         3 014740   000001 702211                    TSX2  ! 1,X1

     2245     5551    3              IF NOT TH_DETAIL_FLG THEN DO;

   5551  3 014741   000000 234000 xsym               SZN     TH_DETAIL_FLG
         3 014742   014760 604000 3                  TMI     s:5555

     2246     5552    3                CALL THF$ADD_TEXTC(XST$,XST_TEXT,XST_CNT);

PL6.E3A0      #001=THF$RAW File=THF$FORMAT.:E05TSI                               WED 07/30/97 06:08 Page:434
   5552  3 014743   200342 630500                    EPPR0   XST_CNT,,AUTO
         3 014744   200536 450500                    STP0    CHIP#+4,,AUTO
         3 014745   200304 631500                    EPPR1   XST_TEXT,,AUTO
         3 014746   200535 451500                    STP1    CHIP#+3,,AUTO
         3 014747   200300 633500                    EPPR3   XST$,,AUTO
         3 014750   200534 453500                    STP3    CHIP#+2,,AUTO
         3 014751   200534 630500                    EPPR0   CHIP#+2,,AUTO
         3 014752   000021 631400 xsym               EPPR1   B_VECTNIL+17
         3 014753   000000 701000 xent               TSX1    THF$ADD_TEXTC
         3 014754   000000 011000                    NOP     0

     2247     5553    3                NXST = NXST + 1;

   5553  3 014755   200343 235100                    LDA     NXST,,AUTO
         3 014756   000001 035007                    ADLA    1,DL
         3 014757   200343 755100                    STA     NXST,,AUTO

     2248     5554    3              END; /* if not detail */

     2249     5555    2   END FIND_FORMAT_MSG;

   5555  3 014760   200524 221300                    LDX1  ! NINE_TRACK_BLNK+8,,AUTO
         3 014761   000001 702211                    TSX2  ! 1,X1

     2250     5556        %EJECT;
PL6.E3A0      #001=THF$RAW File=THF$FORMAT.:E05TSI                               WED 07/30/97 06:08 Page:435
     2251     5557        /**/
     2252     5558        /* PROCEDURE TO FIND FAULT CODE */
     2253     5559        /**/
     2254     5560    1   FIND_FAULT_CODE: PROC;

   5560  3 014762   200526 741300       FIND_FAULT_* STX1  ! @BOARD,,AUTO

     2255     5561        /**/
     2256     5562    3   DO II = 0 TO 7;

   5562  3 014763   200454 450100                    STZ     II,,AUTO

     2257     5563    3      IF IO_MASK1(DEVTBL.CODE(I) + II)

   5563  3 014764   200010 236100                    LDQ     I,,AUTO
         3 014765   000012 402007                    MPY     10,DL
         3 014766   200215 470500                    LDP0    DEV$,,AUTO
         3 014767   000000 236106                    LDQ     0,QL,PR0
         3 014770   000033 772000                    QRL     27
         3 014771   200454 036100                    ADLQ    II,,AUTO
         3 014772   000000 066506                    CMPB    filb='0'B
         3 014773   200221 000001                    BDSC    IO_MASK,Q,AUTO           by=0,bit=0,n=1
         3 014774   000002 000022 xsym               BDSC    B_VECTNIL+2              by=0,bit=0,n=18
         3 014775   015003 600000 3                  TZE     s:5565

     2258     5564    3      THEN FT_BIT(II) = '1'B;

   5564  3 014776   200454 235100                    LDA     II,,AUTO
         3 014777   003105 060400                    CSL     bolr='003'O
         3 015000   000030 000001 xsym               BDSC    B_VECTNIL+24             by=0,bit=0,n=1
         3 015001   200464 000001                    BDSC    FT_BIT,A,AUTO            by=0,bit=0,n=1
         3 015002   015007 710000 3                  TRA     s:5566

     2259     5565    3      ELSE FT_BIT(II) = '0'B;

   5565  3 015003   200454 235100                    LDA     II,,AUTO
         3 015004   003105 060400                    CSL     bolr='003'O
PL6.E3A0      #001=THF$RAW File=THF$FORMAT.:E05TSI                               WED 07/30/97 06:08 Page:436
         3 015005   000002 000001 xsym               BDSC    B_VECTNIL+2              by=0,bit=0,n=1
         3 015006   200464 000001                    BDSC    FT_BIT,A,AUTO            by=0,bit=0,n=1

     2260     5566    3   END;

   5566  3 015007   000001 035007                    ADLA    1,DL
         3 015010   200454 755100                    STA     II,,AUTO
         3 015011   000010 115007                    CMPA    8,DL
         3 015012   014764 602000 3                  TNC     s:5563

     2261     5567    3   DO II = 0 TO 70;

   5567  3 015013   200454 450100                    STZ     II,,AUTO

     2262     5568    3      IF FT_CODE = FAULT_SYMP_TBL.CODE(II)

   5568  3 015014   200454 236100                    LDQ     II,,AUTO
         3 015015   000012 402007                    MPY     10,DL
         3 015016   000000 236006 xsym               LDQ     FAULT_SYMP_TBL,QL
         3 015017   000033 772000                    QRL     27
         3 015020   200534 756100                    STQ     CHIP#+2,,AUTO
         3 015021   200464 236100                    LDQ     FT_BIT,,AUTO
         3 015022   000034 772000                    QRL     28
         3 015023   200534 116100                    CMPQ    CHIP#+2,,AUTO
         3 015024   015041 601000 3                  TNZ     s:5574

     2263     5569    4      THEN DO;

     2264     5570    4        XST_TEXT = FAULT_SYMP_TBL.TEXT(II);

   5570  3 015025   200454 236100                    LDQ     II,,AUTO
         3 015026   000050 402007                    MPY     40,DL
         3 015027   040100 100406                    MLR     fill='040'O
         3 015030   000000 400043 xsym               ADSC9   FAULT_SYMP_TBL,Q         cn=2,n=35
         3 015031   200304 000043                    ADSC9   XST_TEXT,,AUTO           cn=0,n=35

     2265     5571    4        XST_CNT = FAULT_SYMP_TBL.COUNT(II);
PL6.E3A0      #001=THF$RAW File=THF$FORMAT.:E05TSI                               WED 07/30/97 06:08 Page:437

   5571  3 015032   200454 236100                    LDQ     II,,AUTO
         3 015033   000012 402007                    MPY     10,DL
         3 015034   000000 236006 xsym               LDQ     FAULT_SYMP_TBL,QL
         3 015035   000022 772000                    QRL     18
         3 015036   000777 376007                    ANQ     511,DL
         3 015037   200342 756100                    STQ     XST_CNT,,AUTO

     2266     5572    4        GOTO FOUND_FAULT_CODE;

   5572  3 015040   015046 710000 3                  TRA     FOUND_FAULT_CODE

     2267     5573    4      END;
     2268     5574    3   END;

   5574  3 015041   200454 235100                    LDA     II,,AUTO
         3 015042   000001 035007                    ADLA    1,DL
         3 015043   200454 755100                    STA     II,,AUTO
         3 015044   000107 115007                    CMPA    71,DL
         3 015045   015014 602000 3                  TNC     s:5568

     2269     5575    2   FOUND_FAULT_CODE: IF NOT TH_DETAIL_FLG

   5575  3 015046   000000 234000 xsym  FOUND_FAULT* SZN     TH_DETAIL_FLG
         3 015047   015065 604000 3                  TMI     s:5580

     2270     5576    3                     THEN DO;

     2271     5577    3                       CALL THF$ADD_TEXTC(XST$,XST_TEXT,XST_CNT);

   5577  3 015050   200342 630500                    EPPR0   XST_CNT,,AUTO
         3 015051   200536 450500                    STP0    CHIP#+4,,AUTO
         3 015052   200304 631500                    EPPR1   XST_TEXT,,AUTO
         3 015053   200535 451500                    STP1    CHIP#+3,,AUTO
         3 015054   200300 633500                    EPPR3   XST$,,AUTO
         3 015055   200534 453500                    STP3    CHIP#+2,,AUTO
         3 015056   200534 630500                    EPPR0   CHIP#+2,,AUTO
PL6.E3A0      #001=THF$RAW File=THF$FORMAT.:E05TSI                               WED 07/30/97 06:08 Page:438
         3 015057   000021 631400 xsym               EPPR1   B_VECTNIL+17
         3 015060   000000 701000 xent               TSX1    THF$ADD_TEXTC
         3 015061   000000 011000                    NOP     0

     2272     5578    3                       NXST = NXST + 1;

   5578  3 015062   200343 235100                    LDA     NXST,,AUTO
         3 015063   000001 035007                    ADLA    1,DL
         3 015064   200343 755100                    STA     NXST,,AUTO

     2273     5579    3                     END;

     2274     5580    2   END FIND_FAULT_CODE;

   5580  3 015065   200526 221300                    LDX1  ! @BOARD,,AUTO
         3 015066   000001 702211                    TSX2  ! 1,X1

     2275     5581        /* HANDLING OF DETAIL REPORT FORMAT FOR FEPERR */
     2276     5582        /**/
     2277     5583    1   THF$FEPERR: PROC;

   5583  3 015067   200524 741300       THF$FEPERR   STX1  ! NINE_TRACK_BLNK+8,,AUTO

     2278     5584        /**/
     2279     5585    2   ALL_MATCH = %FALSE;

   5585  3 015070   200504 450100                    STZ     ALL_MATCH,,AUTO

     2280     5586    3   IF TH_FIRST_TIME THEN DO;

   5586  3 015071   000000 234000 xsym               SZN     TH_FIRST_TIME
         3 015072   015125 605000 3                  TPL     s:5597

     2281     5587    3      FEP_COUNT = 0;

   5587  3 015073   200460 450100                    STZ     FEP_COUNT,,AUTO

PL6.E3A0      #001=THF$RAW File=THF$FORMAT.:E05TSI                               WED 07/30/97 06:08 Page:439
     2282     5588    3      TEXTBUF = ' ';

   5588  3 015074   040100 100400                    MLR     fill='040'O
         3 015075   000035 000001 xsym               ADSC9   B_VECTNIL+29             cn=0,n=1
         3 015076   200106 000400                    ADSC9   TEXTBUF,,AUTO            cn=0,n=256

     2283     5589    3      TEXT$ = ADDR(TEXTBUF);

   5589  3 015077   200106 630500                    EPPR0   TEXTBUF,,AUTO
         3 015100   200210 450500                    STP0    TEXT$,,AUTO

     2284     5590    3      INFO = TH_XSA_BUF_VECTOR;

   5590  3 015101   000100 100400                    MLR     fill='000'O
         3 015102   000000 000010 xsym               ADSC9   TH_XSA_BUF_VECTOR        cn=0,n=8
         3 015103   200004 000010                    ADSC9   INFO,,AUTO               cn=0,n=8

     2285     5591    3        CALL THW$WRITE(FEP_FMT,INFO);

   5591  3 015104   200004 631500                    EPPR1   INFO,,AUTO
         3 015105   200535 451500                    STP1    CHIP#+3,,AUTO
         3 015106   000442 236000 4                  LDQ     290
         3 015107   200534 756100                    STQ     CHIP#+2,,AUTO
         3 015110   200534 630500                    EPPR0   CHIP#+2,,AUTO
         3 015111   000020 631400 xsym               EPPR1   B_VECTNIL+16
         3 015112   000000 701000 xent               TSX1    THW$WRITE
         3 015113   000000 011000                    NOP     0

     2286     5592    3      FEPERR_TBL = EL$FEPERR;

   5592  3 015114   200005 470500                    LDP0    INFO+1,,AUTO
         3 015115   000000 100500                    MLR     fill='000'O
         3 015116   000000 000210                    ADSC9   0,,PR0                   cn=0,n=136
         3 015117   007470 000210 2                  ADSC9   FEPERR_TBL               cn=0,n=136

     2287     5593    3      FEP_COUNT = FEP_COUNT + 1;

PL6.E3A0      #001=THF$RAW File=THF$FORMAT.:E05TSI                               WED 07/30/97 06:08 Page:440
   5593  3 015120   200460 235100                    LDA     FEP_COUNT,,AUTO
         3 015121   000001 035007                    ADLA    1,DL
         3 015122   200460 755100                    STA     FEP_COUNT,,AUTO

     2288     5594    3      TH_FIRST_TIME = %FALSE;

   5594  3 015123   000000 450000 xsym               STZ     TH_FIRST_TIME

     2289     5595    3      GOTO NEXT_RECORD_PLEASE;

   5595  3 015124   015370 710000 3                  TRA     NEXT_RECORD_PLEASE

     2290     5596    3   END;  /* if th_first_time */
     2291     5597    2   ELSE IF TH_EOF_FLG THEN GOTO NOT_MATCH_AT_ALL;

   5597  3 015125   000000 234000 xsym               SZN     TH_EOF_FLG
         3 015126   015173 604000 3                  TMI     NOT_MATCH_AT_ALL

     2292     5598    3   ELSE IF NOT TH_FIRST_TIME AND NOT TH_EOF_FLG THEN DO;

   5598  3 015127   000000 234000 xsym               SZN     TH_FIRST_TIME
         3 015130   015173 604000 3                  TMI     NOT_MATCH_AT_ALL
         3 015131   000000 234000 xsym               SZN     TH_EOF_FLG
         3 015132   015173 604000 3                  TMI     NOT_MATCH_AT_ALL

     2293     5599    3      TEXT$ = ADDR(TEXTBUF);

   5599  3 015133   200106 630500                    EPPR0   TEXTBUF,,AUTO
         3 015134   200210 450500                    STP0    TEXT$,,AUTO

     2294     5600    3      INFO = TH_XSA_BUF_VECTOR;

   5600  3 015135   000100 100400                    MLR     fill='000'O
         3 015136   000000 000010 xsym               ADSC9   TH_XSA_BUF_VECTOR        cn=0,n=8
         3 015137   200004 000010                    ADSC9   INFO,,AUTO               cn=0,n=8

     2295     5601    3     IF EL$FEPERR.STATDATA.NODE = FEPERR_TBL.STATDATA.NODE
PL6.E3A0      #001=THF$RAW File=THF$FORMAT.:E05TSI                               WED 07/30/97 06:08 Page:441

   5601  3 015140   200005 471500                    LDP1    INFO+1,,AUTO
         3 015141   100000 236100                    LDQ     0,,PR1
         3 015142   007470 676000 2                  ERQ     FEPERR_TBL
         3 015143   777774 376003                    ANQ     -4,DU
         3 015144   015173 601000 3                  TNZ     NOT_MATCH_AT_ALL

     2296     5602    4     THEN DO;

     2297     5603    4       IF EL$FEPERR.STATDATA.TERMID.TERM.CHANNEL = FEPERR_TBL.STATDATA.TERMID.TERM.
              5603                CHANNEL

   5603  3 015145   100005 236100                    LDQ     5,,PR1
         3 015146   007475 676000 2                  ERQ     FEPERR_TBL+5
         3 015147   777777 376007                    ANQ     -1,DL
         3 015150   015173 601000 3                  TNZ     NOT_MATCH_AT_ALL

     2298     5604    5       THEN DO;

     2299     5605    5           IF EL$FEPERR.STATDATA.ERRCODE.FCG = FEPERR_TBL.STATDATA.ERRCODE.FCG

   5605  3 015151   100001 236100                    LDQ     1,,PR1
         3 015152   007471 676000 2                  ERQ     FEPERR_TBL+1
         3 015153   777700 376003                    ANQ     -64,DU
         3 015154   015173 601000 3                  TNZ     NOT_MATCH_AT_ALL

     2300     5606    6           THEN DO;

     2301     5607    6             IF EL$FEPERR.STATDATA.ERRCODE.ERR# = FEPERR_TBL.STATDATA.ERRCODE.ERR#

   5607  3 015155   100001 236100                    LDQ     1,,PR1
         3 015156   007471 676000 2                  ERQ     FEPERR_TBL+1
         3 015157   377770 376007                    ANQ     131064,DL
         3 015160   015173 601000 3                  TNZ     NOT_MATCH_AT_ALL

     2302     5608    7             THEN DO;

PL6.E3A0      #001=THF$RAW File=THF$FORMAT.:E05TSI                               WED 07/30/97 06:08 Page:442
     2303     5609    7               IF EL$FEPERR.STATDATA.ERRCODE.SEV = FEPERR_TBL.STATDATA.ERRCODE.SEV

   5609  3 015161   100001 236100                    LDQ     1,,PR1
         3 015162   007471 676000 2                  ERQ     FEPERR_TBL+1
         3 015163   000007 376007                    ANQ     7,DL
         3 015164   015173 601000 3                  TNZ     NOT_MATCH_AT_ALL

     2304     5610    8               THEN DO;

     2305     5611    8                 FEP_COUNT = FEP_COUNT + 1;

   5611  3 015165   200460 235100                    LDA     FEP_COUNT,,AUTO
         3 015166   000001 035007                    ADLA    1,DL
         3 015167   200460 755100                    STA     FEP_COUNT,,AUTO

     2306     5612    8                 ALL_MATCH = %TRUE;

   5612  3 015170   400000 236003                    LDQ     -131072,DU
         3 015171   200504 756100                    STQ     ALL_MATCH,,AUTO

     2307     5613    8                 GOTO NEXT_RECORD_PLEASE;

   5613  3 015172   015370 710000 3                  TRA     NEXT_RECORD_PLEASE

     2308     5614    8               END; /* if errcode.sev equals */
     2309     5615    7               ELSE GOTO NOT_MATCH_AT_ALL;
     2310     5616    7             END; /* if errcode.err# equals */
     2311     5617    6             ELSE GOTO NOT_MATCH_AT_ALL;
     2312     5618    6           END; /* if errcode.fcg equals */
     2313     5619    5           ELSE GOTO NOT_MATCH_AT_ALL;
     2314     5620    5       END; /* if channel number equals */
     2315     5621    4       ELSE GOTO NOT_MATCH_AT_ALL;
     2316     5622    4     END; /* if fep number equals */
     2317     5623    3     ELSE GOTO NOT_MATCH_AT_ALL;
     2318     5624    3   END; /* if not first time and not eof */
     2319     5625    2   NOT_MATCH_AT_ALL:
     2320     5626    2       FEPERR_CODE = FEPERR_TBL.STATDATA.ERRCODE;
PL6.E3A0      #001=THF$RAW File=THF$FORMAT.:E05TSI                               WED 07/30/97 06:08 Page:443

   5626  3 015173   007471 236000 2     NOT_MATCH_A* LDQ     FEPERR_TBL+1
         3 015174   000056 756000 2                  STQ     FEPERR_CODE

     2321     5627    2       CALL ERROR_CODE(FEPERR_CODE);

   5627  3 015175   000104 236000 4                  LDQ     68
         3 015176   200527 756100                    STQ     @CHIP,,AUTO
         3 015177   010575 701000 3                  TSX1    ERROR_CODE
         3 015200   000000 011000                    NOP     0

     2322     5628    2       ERR_MSG = ' ';

   5628  3 015201   040000 100400                    MLR     fill='040'O
         3 015202   000035 000001 xsym               ADSC9   B_VECTNIL+29             cn=0,n=1
         3 015203   003256 000170 2                  ADSC9   ERR_MSG                  cn=0,n=120

     2323     5629    2         CALL M$ERRMSG(ERR_MSGS) ALTRET(NO_MESSAGE);

   5629  3 015204   007424 630400 2                  EPPR0   ERR_MSGS
         3 015205   420000 713400                    CLIMB   alt,+8192
         3 015206   405000 401760                    pmme    nvectors=11
         3 015207   015232 702000 3                  TSX2    NO_MESSAGE

     2324     5630    2         I = 0;

   5630  3 015210   200010 450100                    STZ     I,,AUTO

     2325     5631    3           DO WHILE(SUBSTR(ERR_MSG,I,1) = ' ');

   5631  3 015211   015213 710000 3                  TRA     s:5633

     2326     5632    3              I = I + 1;

   5632  3 015212   200010 054100                    AOS     I,,AUTO

     2327     5633    3           END;  /* do while */
PL6.E3A0      #001=THF$RAW File=THF$FORMAT.:E05TSI                               WED 07/30/97 06:08 Page:444

   5633  3 015213   200010 235100                    LDA     I,,AUTO
         3 015214   040000 106405                    CMPC    fill='040'O
         3 015215   003256 000001 2                  ADSC9   ERR_MSG,A                cn=0,n=1
         3 015216   000035 000001 xsym               ADSC9   B_VECTNIL+29             cn=0,n=1
         3 015217   015212 600000 3                  TZE     s:5632

     2328     5634    2         ERR_MSG_T = SUBSTR(ERR_MSG,I,43);

   5634  3 015220   040100 100405                    MLR     fill='040'O
         3 015221   003256 000053 2                  ADSC9   ERR_MSG,A                cn=0,n=43
         3 015222   200466 000053                    ADSC9   ERR_MSG_T,,AUTO          cn=0,n=43

     2329     5635    2       CALL ADD_TEXTC(ERR_MSG_T,43);

   5635  3 015223   000106 236000 4                  LDQ     70
         3 015224   200530 756100                    STQ     BIT#,,AUTO
         3 015225   200466 630500                    EPPR0   ERR_MSG_T,,AUTO
         3 015226   200527 450500                    STP0    @CHIP,,AUTO
         3 015227   010552 701000 3                  TSX1    ADD_TEXTC
         3 015230   000000 011000                    NOP     0

     2330     5636    3   DO NEVER;

   5636  3 015231   015240 710000 3                  TRA     s:5639

     2331     5637    3   NO_MESSAGE: CALL ADD_TEXTC('NO ERROR MESSAGE',16);

   5637  3 015232   000110 236000 4     NO_MESSAGE   LDQ     72
         3 015233   200530 756100                    STQ     BIT#,,AUTO
         3 015234   000443 236000 4                  LDQ     291
         3 015235   200527 756100                    STQ     @CHIP,,AUTO
         3 015236   010552 701000 3                  TSX1    ADD_TEXTC
         3 015237   000000 011000                    NOP     0

     2332     5638    3      END; /* do never */

PL6.E3A0      #001=THF$RAW File=THF$FORMAT.:E05TSI                               WED 07/30/97 06:08 Page:445
     2333     5639    2      TVEC = VECTOR(TEXTBUF);

   5639  3 015240   000306 235000 4                  LDA     198
         3 015241   200534 452500                    STP2    CHIP#+2,,AUTO
         3 015242   200534 236100                    LDQ     CHIP#+2,,AUTO
         3 015243   000106 036003                    ADLQ    70,DU
         3 015244   200206 757100                    STAQ    TVEC,,AUTO

     2334     5640    2      TVEC.BOUND = POFFC(TEXT$,ADDR(TEXTBUF)) - 1;

   5640  3 015245   200534 452500                    STP2    CHIP#+2,,AUTO
         3 015246   200534 236100                    LDQ     CHIP#+2,,AUTO
         3 015247   000106 036003                    ADLQ    70,DU
         3 015250   000020 772000                    QRL     16
         3 015251   200535 756100                    STQ     CHIP#+3,,AUTO
         3 015252   200210 236100                    LDQ     TEXT$,,AUTO
         3 015253   000020 772000                    QRL     16
         3 015254   200535 136100                    SBLQ    CHIP#+3,,AUTO
         3 015255   000001 136007                    SBLQ    1,DL
         3 015256   000020 736000                    QLS     16
         3 015257   200206 676100                    ERQ     TVEC,,AUTO
         3 015260   000034 376000 xsym               ANQ     B_VECTNIL+28
         3 015261   200206 656100                    ERSQ    TVEC,,AUTO

     2335     5641    3        DO I = CTL.NHDR + 1 TO CTL.NFMT + CTL.NHDR;

   5641  3 015262   200211 470500                    LDP0    CTL$,,AUTO
         3 015263   000000 236100                    LDQ     0,,PR0
         3 015264   000033 772000                    QRL     27
         3 015265   000001 036007                    ADLQ    1,DL
         3 015266   200010 756100                    STQ     I,,AUTO
         3 015267   015313 710000 3                  TRA     s:5643+1

     2336     5642    3          CALL THW$WRITE(CTL.FMT(I),VECTOR(FEP_COUNT),TVEC);

   5642  3 015270   777640 235007                    LDA     -96,DL
         3 015271   200534 452500                    STP2    CHIP#+2,,AUTO
PL6.E3A0      #001=THF$RAW File=THF$FORMAT.:E05TSI                               WED 07/30/97 06:08 Page:446
         3 015272   200534 236100                    LDQ     CHIP#+2,,AUTO
         3 015273   000460 036003                    ADLQ    304,DU
         3 015274   200536 757100                    STAQ    CHIP#+4,,AUTO
         3 015275   200206 630500                    EPPR0   TVEC,,AUTO
         3 015276   200542 450500                    STP0    CHIP#+8,,AUTO
         3 015277   200536 631500                    EPPR1   CHIP#+4,,AUTO
         3 015300   200541 451500                    STP1    CHIP#+7,,AUTO
         3 015301   200010 236100                    LDQ     I,,AUTO
         3 015302   000023 736000                    QLS     19
         3 015303   000002 036003                    ADLQ    2,DU
         3 015304   200211 036100                    ADLQ    CTL$,,AUTO
         3 015305   200540 756100                    STQ     CHIP#+6,,AUTO
         3 015306   200540 630500                    EPPR0   CHIP#+6,,AUTO
         3 015307   000021 631400 xsym               EPPR1   B_VECTNIL+17
         3 015310   000000 701000 xent               TSX1    THW$WRITE
         3 015311   000000 011000                    NOP     0

     2337     5643    3        END; /*  do i */

   5643  3 015312   200010 054100                    AOS     I,,AUTO
         3 015313   200211 470500                    LDP0    CTL$,,AUTO
         3 015314   000000 236100                    LDQ     0,,PR0
         3 015315   000033 772000                    QRL     27
         3 015316   200534 756100                    STQ     CHIP#+2,,AUTO
         3 015317   000000 236100                    LDQ     0,,PR0
         3 015320   000022 772000                    QRL     18
         3 015321   000777 376007                    ANQ     511,DL
         3 015322   200534 036100                    ADLQ    CHIP#+2,,AUTO
         3 015323   015270 604000 3                  TMI     s:5642
         3 015324   200010 116100                    CMPQ    I,,AUTO
         3 015325   015270 605000 3                  TPL     s:5642

     2338     5644    2      IF TH_EOF_FLG THEN RETURN;

   5644  3 015326   000000 234000 xsym               SZN     TH_EOF_FLG
         3 015327   015332 605000 3                  TPL     s:5645

PL6.E3A0      #001=THF$RAW File=THF$FORMAT.:E05TSI                               WED 07/30/97 06:08 Page:447
   5644  3 015330   200524 221300                    LDX1  ! NINE_TRACK_BLNK+8,,AUTO
         3 015331   000001 702211                    TSX2  ! 1,X1

     2339     5645    2      FEP_COUNT = 0;

   5645  3 015332   200460 450100                    STZ     FEP_COUNT,,AUTO

     2340     5646    2      TEXTBUF = ' ';

   5646  3 015333   040100 100400                    MLR     fill='040'O
         3 015334   000035 000001 xsym               ADSC9   B_VECTNIL+29             cn=0,n=1
         3 015335   200106 000400                    ADSC9   TEXTBUF,,AUTO            cn=0,n=256

     2341     5647    2      TEXT$ = ADDR(TEXTBUF);

   5647  3 015336   200106 631500                    EPPR1   TEXTBUF,,AUTO
         3 015337   200210 451500                    STP1    TEXT$,,AUTO

     2342     5648    2      IF EL$FEPERR.STATDATA.NODE ~= FEPERR_TBL.STATDATA.NODE OR

   5648  3 015340   200005 473500                    LDP3    INFO+1,,AUTO
         3 015341   300000 236100                    LDQ     0,,PR3
         3 015342   007470 676000 2                  ERQ     FEPERR_TBL
         3 015343   777774 376003                    ANQ     -4,DU
         3 015344   015351 601000 3                  TNZ     s:5650
         3 015345   300005 236100                    LDQ     5,,PR3
         3 015346   007475 676000 2                  ERQ     FEPERR_TBL+5
         3 015347   777777 376007                    ANQ     -1,DL
         3 015350   015361 600000 3                  TZE     s:5651

     2343     5649    2         EL$FEPERR.STATDATA.TERMID.TERM.CHANNEL ~= FEPERR_TBL.STATDATA.TERMID.TERM.
              5649                  CHANNEL
     2344     5650    2         THEN CALL THW$WRITE(FEP_FMT,INFO);

   5650  3 015351   200004 634500                    EPPR4   INFO,,AUTO
         3 015352   200535 454500                    STP4    CHIP#+3,,AUTO
         3 015353   000442 236000 4                  LDQ     290
PL6.E3A0      #001=THF$RAW File=THF$FORMAT.:E05TSI                               WED 07/30/97 06:08 Page:448
         3 015354   200534 756100                    STQ     CHIP#+2,,AUTO
         3 015355   200534 630500                    EPPR0   CHIP#+2,,AUTO
         3 015356   000020 631400 xsym               EPPR1   B_VECTNIL+16
         3 015357   000000 701000 xent               TSX1    THW$WRITE
         3 015360   000000 011000                    NOP     0

     2345     5651    2      FEPERR_TBL = EL$FEPERR;

   5651  3 015361   200005 470500                    LDP0    INFO+1,,AUTO
         3 015362   000000 100500                    MLR     fill='000'O
         3 015363   000000 000210                    ADSC9   0,,PR0                   cn=0,n=136
         3 015364   007470 000210 2                  ADSC9   FEPERR_TBL               cn=0,n=136

     2346     5652    2      FEP_COUNT = FEP_COUNT + 1;

   5652  3 015365   200460 235100                    LDA     FEP_COUNT,,AUTO
         3 015366   000001 035007                    ADLA    1,DL
         3 015367   200460 755100                    STA     FEP_COUNT,,AUTO

   5652  3 015370                       NEXT_RECORD* null
     2347     5653    2   NEXT_RECORD_PLEASE: ;
     2348     5654    2   END THF$FEPERR;

   5654  3 015370   200524 221300                    LDX1  ! NINE_TRACK_BLNK+8,,AUTO
         3 015371   000001 702211                    TSX2  ! 1,X1

     2349     5655        %EJECT;
PL6.E3A0      #001=THF$RAW File=THF$FORMAT.:E05TSI                               WED 07/30/97 06:08 Page:449
     2350     5656        /* HANDLING OF PR54 PRINTERS FOR IOERR RECORDS */
     2351     5657        /**/
     2352     5658    1   EURC_PR54: PROC;

   5658  3 015372   200524 741300       EURC_PR54    STX1  ! NINE_TRACK_BLNK+8,,AUTO

     2353     5659        /**/
     2354     5660    2   IF DEVTBL.CODE(I) = 0 AND NOT IO_MASK1(0)

   5660  3 015373   200010 236100                    LDQ     I,,AUTO
         3 015374   000012 402007                    MPY     10,DL
         3 015375   200215 470500                    LDP0    DEV$,,AUTO
         3 015376   000000 236106                    LDQ     0,QL,PR0
         3 015377   777000 316003                    CANQ    -512,DU
         3 015400   015403 601000 3                  TNZ     s:5662
         3 015401   200221 234100                    SZN     IO_MASK,,AUTO
         3 015402   016025 605000 3                  TPL     EURC_RETURN

     2355     5661    2       THEN GOTO EURC_RETURN;
     2356     5662    3   ELSE IF DEVTBL.CODE(I) = 6 THEN DO;  /* BELT TYPE */

   5662  3 015403   200010 236100                    LDQ     I,,AUTO
         3 015404   000012 402007                    MPY     10,DL
         3 015405   000000 236106                    LDQ     0,QL,PR0
         3 015406   777000 376003                    ANQ     -512,DU
         3 015407   006000 116003                    CMPQ    3072,DU
         3 015410   015454 601000 3                  TNZ     s:5675

     2357     5663    3       PTR_BELT.BYT1 = IO_MASK(0);

   5663  3 015411   200221 236100                    LDQ     IO_MASK,,AUTO
         3 015412   200014 676100                    ERQ     PTR_BELT,,AUTO
         3 015413   776000 376003                    ANQ     -1024,DU
         3 015414   200014 656100                    ERSQ    PTR_BELT,,AUTO

     2358     5664    3       PTR_BELT.BYT2 = IO_MASK(1);

PL6.E3A0      #001=THF$RAW File=THF$FORMAT.:E05TSI                               WED 07/30/97 06:08 Page:450
   5664  3 015415   200221 236100                    LDQ     IO_MASK,,AUTO
         3 015416   200014 676100                    ERQ     PTR_BELT,,AUTO
         3 015417   001774 376003                    ANQ     1020,DU
         3 015420   200014 656100                    ERSQ    PTR_BELT,,AUTO

     2359     5665    4       DO X = 0 TO 3;         /* GO THRU PR54_BELT_TBL */

   5665  3 015421   200011 450100                    STZ     X,,AUTO

     2360     5666    4          IF PR54_BELT.CODE = PR54_BELT_TBL.CODE(X)

   5666  3 015422   200011 236100                    LDQ     X,,AUTO
         3 015423   000330 402007                    MPY     216,DL
         3 015424   000000 116003                    CMPQ    0,DU
         3 015425   015427 605000 3                  TPL     s:5666+5
         3 015426   000044 036003                    ADLQ    36,DU
         3 015427   000006 066500                    CMPB    filb='0'B
         3 015430   200014 010017                    BDSC    PTR_BELT,,AUTO           by=0,bit=1,n=15
         3 015431   000000 000017 xsym               BDSC    PR54_BELT_TBL,Q          by=0,bit=0,n=15
         3 015432   015447 601000 3                  TNZ     s:5672

     2361     5667    5          THEN DO;

     2362     5668    5             XST_TEXT = PR54_BELT_TBL.TEXT(X);

   5668  3 015433   200011 236100                    LDQ     X,,AUTO
         3 015434   000030 402007                    MPY     24,DL
         3 015435   040100 100406                    MLR     fill='040'O
         3 015436   000000 600022 xsym               ADSC9   PR54_BELT_TBL,Q          cn=3,n=18
         3 015437   200304 000043                    ADSC9   XST_TEXT,,AUTO           cn=0,n=35

     2363     5669    5             XST_CNT = PR54_BELT_TBL.COUNT(X);

   5669  3 015440   200011 236100                    LDQ     X,,AUTO
         3 015441   000006 402007                    MPY     6,DL
         3 015442   000000 236006 xsym               LDQ     PR54_BELT_TBL,QL
         3 015443   000014 772000                    QRL     12
PL6.E3A0      #001=THF$RAW File=THF$FORMAT.:E05TSI                               WED 07/30/97 06:08 Page:451
         3 015444   000777 376007                    ANQ     511,DL
         3 015445   200342 756100                    STQ     XST_CNT,,AUTO

     2364     5670    5             GOTO FOUND_IT;

   5670  3 015446   016010 710000 3                  TRA     FOUND_IT

     2365     5671    5          END;
     2366     5672    4       END;  /* DO X = 0 TO 3 */

   5672  3 015447   200011 054100                    AOS     X,,AUTO
         3 015450   200011 235100                    LDA     X,,AUTO
         3 015451   000003 115007                    CMPA    3,DL
         3 015452   015422 604400 3                  TMOZ    s:5666

     2367     5673    3       GOTO EURC_RETURN;        /* NOT FOUND */

   5673  3 015453   016025 710000 3                  TRA     EURC_RETURN

     2368     5674    3     END;
     2369     5675    2   ELSE IF DEVTBL.CODE(I) = 24 AND NOT IO_MASK1(24)

   5675  3 015454   200010 236100                    LDQ     I,,AUTO
         3 015455   000012 402007                    MPY     10,DL
         3 015456   000000 236106                    LDQ     0,QL,PR0
         3 015457   777000 376003                    ANQ     -512,DU
         3 015460   030000 116003                    CMPQ    12288,DU
         3 015461   015473 601000 3                  TNZ     s:5679
         3 015462   200221 236100                    LDQ     IO_MASK,,AUTO
         3 015463   004000 316007                    CANQ    2048,DL
         3 015464   015473 601000 3                  TNZ     s:5679

     2370     5676    3   THEN DO;

     2371     5677    3       XST_TEXT = 'VFC NOT LOADED';  XST_CNT = 14;

   5677  3 015465   040100 100400                    MLR     fill='040'O
PL6.E3A0      #001=THF$RAW File=THF$FORMAT.:E05TSI                               WED 07/30/97 06:08 Page:452
         3 015466   002023 000016 1                  ADSC9   BOARD_64K+596            cn=0,n=14
         3 015467   200304 000043                    ADSC9   XST_TEXT,,AUTO           cn=0,n=35

   5677  3 015470   000016 235007                    LDA     14,DL
         3 015471   200342 755100                    STA     XST_CNT,,AUTO

     2372     5678    3   END;

   5678  3 015472   016010 710000 3                  TRA     FOUND_IT

     2373     5679    2   ELSE IF DEVTBL.CODE(I) = 25 AND NOT IO_MASK1(25)

   5679  3 015473   200010 236100                    LDQ     I,,AUTO
         3 015474   000012 402007                    MPY     10,DL
         3 015475   000000 236106                    LDQ     0,QL,PR0
         3 015476   777000 376003                    ANQ     -512,DU
         3 015477   031000 116003                    CMPQ    12800,DU
         3 015500   015512 601000 3                  TNZ     s:5683
         3 015501   200221 236100                    LDQ     IO_MASK,,AUTO
         3 015502   002000 316007                    CANQ    1024,DL
         3 015503   015512 601000 3                  TNZ     s:5683

     2374     5680    3   THEN DO;

     2375     5681    3       XST_TEXT = 'VFC OUT OF SYNC';  XST_CNT = 15;

   5681  3 015504   040100 100400                    MLR     fill='040'O
         3 015505   002027 000017 1                  ADSC9   BOARD_64K+600            cn=0,n=15
         3 015506   200304 000043                    ADSC9   XST_TEXT,,AUTO           cn=0,n=35

   5681  3 015507   000017 235007                    LDA     15,DL
         3 015510   200342 755100                    STA     XST_CNT,,AUTO

     2376     5682    3   END;

   5682  3 015511   016010 710000 3                  TRA     FOUND_IT

PL6.E3A0      #001=THF$RAW File=THF$FORMAT.:E05TSI                               WED 07/30/97 06:08 Page:453
     2377     5683    2   ELSE IF DEVTBL.CODE(I) = 16 AND NOT IO_MASK1(16)   /* BELT SPEED */

   5683  3 015512   200010 236100                    LDQ     I,,AUTO
         3 015513   000012 402007                    MPY     10,DL
         3 015514   000000 236106                    LDQ     0,QL,PR0
         3 015515   777000 376003                    ANQ     -512,DU
         3 015516   020000 116003                    CMPQ    8192,DU
         3 015517   015531 601000 3                  TNZ     s:5687
         3 015520   200221 236100                    LDQ     IO_MASK,,AUTO
         3 015521   000002 316003                    CANQ    2,DU
         3 015522   015531 601000 3                  TNZ     s:5687

     2378     5684    3   THEN DO;

     2379     5685    3       XST_TEXT = '900 LPM';   XST_CNT = 7;

   5685  3 015523   040100 100400                    MLR     fill='040'O
         3 015524   002033 000007 1                  ADSC9   BOARD_64K+604            cn=0,n=7
         3 015525   200304 000043                    ADSC9   XST_TEXT,,AUTO           cn=0,n=35

   5685  3 015526   000007 235007                    LDA     7,DL
         3 015527   200342 755100                    STA     XST_CNT,,AUTO

     2380     5686    3   END;

   5686  3 015530   016010 710000 3                  TRA     FOUND_IT

     2381     5687    2   ELSE IF DEVTBL.CODE(I) = 17 AND NOT IO_MASK1(17) /* slew speed */

   5687  3 015531   200010 236100                    LDQ     I,,AUTO
         3 015532   000012 402007                    MPY     10,DL
         3 015533   000000 236106                    LDQ     0,QL,PR0
         3 015534   777000 376003                    ANQ     -512,DU
         3 015535   021000 116003                    CMPQ    8704,DU
         3 015536   015550 601000 3                  TNZ     s:5691
         3 015537   200221 236100                    LDQ     IO_MASK,,AUTO
         3 015540   000001 316003                    CANQ    1,DU
PL6.E3A0      #001=THF$RAW File=THF$FORMAT.:E05TSI                               WED 07/30/97 06:08 Page:454
         3 015541   015550 601000 3                  TNZ     s:5691

     2382     5688    3   THEN DO;

     2383     5689    3       XST_TEXT = '25 IN/SEC';   XST_CNT = 9;

   5689  3 015542   040100 100400                    MLR     fill='040'O
         3 015543   002035 000011 1                  ADSC9   BOARD_64K+606            cn=0,n=9
         3 015544   200304 000043                    ADSC9   XST_TEXT,,AUTO           cn=0,n=35

   5689  3 015545   000011 235007                    LDA     9,DL
         3 015546   200342 755100                    STA     XST_CNT,,AUTO

     2384     5690    3   END;

   5690  3 015547   016010 710000 3                  TRA     FOUND_IT

     2385     5691    2   ELSE IF DEVTBL.CODE(I) = 120 AND NOT IO_MASK1(120) /* line density*/

   5691  3 015550   200010 236100                    LDQ     I,,AUTO
         3 015551   000012 402007                    MPY     10,DL
         3 015552   000000 236106                    LDQ     0,QL,PR0
         3 015553   777000 376003                    ANQ     -512,DU
         3 015554   170000 116003                    CMPQ    61440,DU
         3 015555   015567 601000 3                  TNZ     s:5695
         3 015556   200224 236100                    LDQ     IO_MASK+3,,AUTO
         3 015557   000040 316003                    CANQ    32,DU
         3 015560   015567 601000 3                  TNZ     s:5695

     2386     5692    3   THEN DO;

     2387     5693    3       XST_TEXT = '6 LINES/IN';   XST_CNT = 10;

   5693  3 015561   040100 100400                    MLR     fill='040'O
         3 015562   002040 000012 1                  ADSC9   BOARD_64K+609            cn=0,n=10
         3 015563   200304 000043                    ADSC9   XST_TEXT,,AUTO           cn=0,n=35

PL6.E3A0      #001=THF$RAW File=THF$FORMAT.:E05TSI                               WED 07/30/97 06:08 Page:455
   5693  3 015564   000012 235007                    LDA     10,DL
         3 015565   200342 755100                    STA     XST_CNT,,AUTO

     2388     5694    3   END;

   5694  3 015566   016010 710000 3                  TRA     FOUND_IT

     2389     5695    3   ELSE IF DEVTBL.CODE(I) = 113 THEN DO; /* if its byte 14, bit 1 */

   5695  3 015567   200010 236100                    LDQ     I,,AUTO
         3 015570   000012 402007                    MPY     10,DL
         3 015571   000000 236106                    LDQ     0,QL,PR0
         3 015572   777000 376003                    ANQ     -512,DU
         3 015573   161000 116003                    CMPQ    57856,DU
         3 015574   015666 601000 3                  TNZ     s:5721

     2390     5696    3       PRNTR_REG = '0'B;

   5696  3 015575   200012 450100                    STZ     PRNTR_REG,,AUTO

     2391     5697    3       PRNTR_REG = BINBIT(IO_MASK(14),6); /* GET PTR CMD FROM BYTE 14 */

   5697  3 015576   200224 236100                    LDQ     IO_MASK+3,,AUTO
         3 015577   000030 772000                    QRL     24
         3 015600   000377 376007                    ANQ     255,DL
         3 015601   000036 736000                    QLS     30
         3 015602   200012 756100                    STQ     PRNTR_REG,,AUTO

     2392     5698    4     IF IO_MASK1(113) THEN DO; /* if byte 14, bit 1 is set */

   5698  3 015603   200224 236100                    LDQ     IO_MASK+3,,AUTO
         3 015604   010000 316003                    CANQ    4096,DU
         3 015605   015635 600000 3                  TZE     s:5709

     2393     5699    5       DO X = 0 TO 16;   /* go through register command table */

   5699  3 015606   200011 450100                    STZ     X,,AUTO
PL6.E3A0      #001=THF$RAW File=THF$FORMAT.:E05TSI                               WED 07/30/97 06:08 Page:456

     2394     5700    5         IF PRNTR_REG = REGISTER_TBL.CODE(X)  /* if reg.addr. is found*/

   5700  3 015607   200011 236100                    LDQ     X,,AUTO
         3 015610   000012 402007                    MPY     10,DL
         3 015611   000000 620006                    EAX0    0,QL
         3 015612   200012 236100                    LDQ     PRNTR_REG,,AUTO
         3 015613   000000 676010 xsym               ERQ     REGISTER_TBL,X0
         3 015614   770000 376003                    ANQ     -4096,DU
         3 015615   015630 601000 3                  TNZ     s:5706

     2395     5701    6         THEN DO;

     2396     5702    6             XST_TEXT = REGISTER_TBL.TEXT(X);

   5702  3 015616   200011 236100                    LDQ     X,,AUTO
         3 015617   000050 402007                    MPY     40,DL
         3 015620   040100 100406                    MLR     fill='040'O
         3 015621   000000 400043 xsym               ADSC9   REGISTER_TBL,Q           cn=2,n=35
         3 015622   200304 000043                    ADSC9   XST_TEXT,,AUTO           cn=0,n=35

     2397     5703    6             XST_CNT = REGISTER_TBL.COUNT(X);

   5703  3 015623   000000 236010 xsym               LDQ     REGISTER_TBL,X0
         3 015624   000025 772000                    QRL     21
         3 015625   000777 376007                    ANQ     511,DL
         3 015626   200342 756100                    STQ     XST_CNT,,AUTO

     2398     5704    6             GOTO FOUND_IT;

   5704  3 015627   016010 710000 3                  TRA     FOUND_IT

     2399     5705    6         END; /* if prntr_reg is in reg cmnd tbl */
     2400     5706    5       END;/* do x */

   5706  3 015630   200011 054100                    AOS     X,,AUTO
         3 015631   200011 235100                    LDA     X,,AUTO
PL6.E3A0      #001=THF$RAW File=THF$FORMAT.:E05TSI                               WED 07/30/97 06:08 Page:457
         3 015632   000020 115007                    CMPA    16,DL
         3 015633   015607 604400 3                  TMOZ    s:5700

     2401     5707    4       GOTO EURC_RETURN;             /* CMD NOT FOUND */

   5707  3 015634   016025 710000 3                  TRA     EURC_RETURN

     2402     5708    4     END; /* if byte 14,bit1 set */
     2403     5709    4     IF NOT IO_MASK1(113) THEN DO; /* if byte 14,bit 1 not set */

   5709  3 015635   010000 316003                    CANQ    4096,DU
         3 015636   016010 601000 3                  TNZ     FOUND_IT

     2404     5710    5       DO X = 0 TO 10;   /* go thru non_register command table */

   5710  3 015637   200011 450100                    STZ     X,,AUTO

     2405     5711    5         IF PRNTR_REG = NON_REG_TBL.CODE(X) /* if cmnd is found */

   5711  3 015640   200011 236100                    LDQ     X,,AUTO
         3 015641   000012 402007                    MPY     10,DL
         3 015642   000000 620006                    EAX0    0,QL
         3 015643   200012 236100                    LDQ     PRNTR_REG,,AUTO
         3 015644   000000 676010 xsym               ERQ     NON_REG_TBL,X0
         3 015645   770000 376003                    ANQ     -4096,DU
         3 015646   015661 601000 3                  TNZ     s:5717

     2406     5712    6         THEN DO;

     2407     5713    6             XST_TEXT = NON_REG_TBL.TEXT(X);

   5713  3 015647   200011 236100                    LDQ     X,,AUTO
         3 015650   000050 402007                    MPY     40,DL
         3 015651   040100 100406                    MLR     fill='040'O
         3 015652   000000 400043 xsym               ADSC9   NON_REG_TBL,Q            cn=2,n=35
         3 015653   200304 000043                    ADSC9   XST_TEXT,,AUTO           cn=0,n=35

PL6.E3A0      #001=THF$RAW File=THF$FORMAT.:E05TSI                               WED 07/30/97 06:08 Page:458
     2408     5714    6             XST_CNT = NON_REG_TBL.COUNT(X);

   5714  3 015654   000000 236010 xsym               LDQ     NON_REG_TBL,X0
         3 015655   000025 772000                    QRL     21
         3 015656   000777 376007                    ANQ     511,DL
         3 015657   200342 756100                    STQ     XST_CNT,,AUTO

     2409     5715    6             GOTO FOUND_IT;

   5715  3 015660   016010 710000 3                  TRA     FOUND_IT

     2410     5716    6         END; /* if prntr_reg is in non-reg cmnd tbl */
     2411     5717    5       END; /* do x */

   5717  3 015661   200011 054100                    AOS     X,,AUTO
         3 015662   200011 235100                    LDA     X,,AUTO
         3 015663   000012 115007                    CMPA    10,DL
         3 015664   015640 604400 3                  TMOZ    s:5711

     2412     5718    4       GOTO EURC_RETURN;              /* CMD NOT FOUND */

   5718  3 015665   016025 710000 3                  TRA     EURC_RETURN

     2413     5719    4     END; /* if byte 14,bit1 not set */
     2414     5720    3   END; /* if its byte 14, bit 1 */
     2415     5721    3   ELSE IF DEVTBL.CODE(I) = 96 THEN DO; /* if its byte 12 */

   5721  3 015666   200010 236100                    LDQ     I,,AUTO
         3 015667   000012 402007                    MPY     10,DL
         3 015670   000000 236106                    LDQ     0,QL,PR0
         3 015671   777000 376003                    ANQ     -512,DU
         3 015672   140000 116003                    CMPQ    49152,DU
         3 015673   015731 601000 3                  TNZ     s:5734

     2416     5722    3       PR54_BYTE = '0'B;

   5722  3 015674   200013 450100                    STZ     PR54_BYTE,,AUTO
PL6.E3A0      #001=THF$RAW File=THF$FORMAT.:E05TSI                               WED 07/30/97 06:08 Page:459

     2417     5723    3       PR54_BYTE = BINBIT(IO_MASK(12),9);  /* GET BYTE 12 - CONTROLLER ERR CODE */

   5723  3 015675   200223 236100                    LDQ     IO_MASK+2,,AUTO
         3 015676   000004 772000                    QRL     4
         3 015677   000377 376007                    ANQ     255,DL
         3 015700   000033 736000                    QLS     27
         3 015701   200013 756100                    STQ     PR54_BYTE,,AUTO

     2418     5724    4       DO X = 0 TO 65;  /* go thru controller error table */

   5724  3 015702   200011 450100                    STZ     X,,AUTO

     2419     5725    4         IF PR54_BYTE = CTRL_ERR_TBL.CODE(X) /* if ctrl err is found*/

   5725  3 015703   200011 236100                    LDQ     X,,AUTO
         3 015704   000012 402007                    MPY     10,DL
         3 015705   000000 620006                    EAX0    0,QL
         3 015706   200013 236100                    LDQ     PR54_BYTE,,AUTO
         3 015707   000000 676010 xsym               ERQ     CTRL_ERR_TBL,X0
         3 015710   777000 376003                    ANQ     -512,DU
         3 015711   015724 601000 3                  TNZ     s:5731

     2420     5726    5         THEN DO;

     2421     5727    5             XST_TEXT = CTRL_ERR_TBL.TEXT(X);

   5727  3 015712   200011 236100                    LDQ     X,,AUTO
         3 015713   000050 402007                    MPY     40,DL
         3 015714   040100 100406                    MLR     fill='040'O
         3 015715   000000 400043 xsym               ADSC9   CTRL_ERR_TBL,Q           cn=2,n=35
         3 015716   200304 000043                    ADSC9   XST_TEXT,,AUTO           cn=0,n=35

     2422     5728    5             XST_CNT = CTRL_ERR_TBL.COUNT(X);

   5728  3 015717   000000 236010 xsym               LDQ     CTRL_ERR_TBL,X0
         3 015720   000022 772000                    QRL     18
PL6.E3A0      #001=THF$RAW File=THF$FORMAT.:E05TSI                               WED 07/30/97 06:08 Page:460
         3 015721   000777 376007                    ANQ     511,DL
         3 015722   200342 756100                    STQ     XST_CNT,,AUTO

     2423     5729    5             GOTO FOUND_IT;

   5729  3 015723   016010 710000 3                  TRA     FOUND_IT

     2424     5730    5         END; /* if ctrl err is in tbl */
     2425     5731    4       END; /* do x */

   5731  3 015724   200011 054100                    AOS     X,,AUTO
         3 015725   200011 235100                    LDA     X,,AUTO
         3 015726   000101 115007                    CMPA    65,DL
         3 015727   015703 604400 3                  TMOZ    s:5725

     2426     5732    3       GOTO EURC_RETURN;              /* ERR CODE NOT FOUND */

   5732  3 015730   016025 710000 3                  TRA     EURC_RETURN

     2427     5733    3   END;  /* if byte 12 */
     2428     5734    3   ELSE IF DEVTBL.CODE(I) = 104 THEN DO; /* if its byte 13 */

   5734  3 015731   200010 236100                    LDQ     I,,AUTO
         3 015732   000012 402007                    MPY     10,DL
         3 015733   000000 236106                    LDQ     0,QL,PR0
         3 015734   777000 376003                    ANQ     -512,DU
         3 015735   150000 116003                    CMPQ    53248,DU
         3 015736   015775 601000 3                  TNZ     s:5748

     2429     5735    3       PR54_BYTE = '0'B;

   5735  3 015737   200013 450100                    STZ     PR54_BYTE,,AUTO

     2430     5736    3       PR54_BYTE = BINBIT(IO_MASK(13),9); /* GET BYTE 13 - PTR STATUS REGISTER */

   5736  3 015740   200223 235100                    LDA     IO_MASK+2,,AUTO
         3 015741   200224 236100                    LDQ     IO_MASK+3,,AUTO
PL6.E3A0      #001=THF$RAW File=THF$FORMAT.:E05TSI                               WED 07/30/97 06:08 Page:461
         3 015742   000040 773000                    LRL     32
         3 015743   000377 376007                    ANQ     255,DL
         3 015744   000033 736000                    QLS     27
         3 015745   200013 756100                    STQ     PR54_BYTE,,AUTO

     2431     5737    4       DO X = 0 TO 32; /* go thru prntr status tbl */

   5737  3 015746   200011 450100                    STZ     X,,AUTO

     2432     5738    4         IF PR54_BYTE = LED_TBL.CODE(X) /* if printer status found */

   5738  3 015747   200011 236100                    LDQ     X,,AUTO
         3 015750   000012 402007                    MPY     10,DL
         3 015751   000000 620006                    EAX0    0,QL
         3 015752   200013 236100                    LDQ     PR54_BYTE,,AUTO
         3 015753   000000 676010 xsym               ERQ     LED_TBL,X0
         3 015754   777000 376003                    ANQ     -512,DU
         3 015755   015770 601000 3                  TNZ     s:5744

     2433     5739    5         THEN DO;

     2434     5740    5             XST_TEXT = LED_TBL.TEXT(X);

   5740  3 015756   200011 236100                    LDQ     X,,AUTO
         3 015757   000050 402007                    MPY     40,DL
         3 015760   040100 100406                    MLR     fill='040'O
         3 015761   000000 400043 xsym               ADSC9   LED_TBL,Q                cn=2,n=35
         3 015762   200304 000043                    ADSC9   XST_TEXT,,AUTO           cn=0,n=35

     2435     5741    5             XST_CNT = LED_TBL.COUNT(X);

   5741  3 015763   000000 236010 xsym               LDQ     LED_TBL,X0
         3 015764   000022 772000                    QRL     18
         3 015765   000777 376007                    ANQ     511,DL
         3 015766   200342 756100                    STQ     XST_CNT,,AUTO

     2436     5742    5             GOTO FOUND_IT;
PL6.E3A0      #001=THF$RAW File=THF$FORMAT.:E05TSI                               WED 07/30/97 06:08 Page:462

   5742  3 015767   016010 710000 3                  TRA     FOUND_IT

     2437     5743    5         END; /* if prntr status is found */
     2438     5744    4       END; /* do x */

   5744  3 015770   200011 054100                    AOS     X,,AUTO
         3 015771   200011 235100                    LDA     X,,AUTO
         3 015772   000040 115007                    CMPA    32,DL
         3 015773   015747 604400 3                  TMOZ    s:5738

     2439     5745    3       GOTO EURC_RETURN;             /* PTR STATUS NOT FOUND */

   5745  3 015774   016025 710000 3                  TRA     EURC_RETURN

     2440     5746    3   END; /* if byte 13 */
     2441     5747    3   ELSE DO;

     2442     5748    3       XST_TEXT = DEVTBL.TEXT(I);

   5748  3 015775   200010 236100                    LDQ     I,,AUTO
         3 015776   000050 402007                    MPY     40,DL
         3 015777   040100 100506                    MLR     fill='040'O
         3 016000   000000 400043                    ADSC9   0,Q,PR0                  cn=2,n=35
         3 016001   200304 000043                    ADSC9   XST_TEXT,,AUTO           cn=0,n=35

     2443     5749    3       XST_CNT = DEVTBL.COUNT(I);

   5749  3 016002   200010 236100                    LDQ     I,,AUTO
         3 016003   000012 402007                    MPY     10,DL
         3 016004   000000 236106                    LDQ     0,QL,PR0
         3 016005   000022 772000                    QRL     18
         3 016006   000777 376007                    ANQ     511,DL
         3 016007   200342 756100                    STQ     XST_CNT,,AUTO

     2444     5750    3   END;

PL6.E3A0      #001=THF$RAW File=THF$FORMAT.:E05TSI                               WED 07/30/97 06:08 Page:463
     2445     5751    2   FOUND_IT: CALL THF$ADD_TEXTC(XST$,XST_TEXT,XST_CNT);

   5751  3 016010   200342 630500       FOUND_IT     EPPR0   XST_CNT,,AUTO
         3 016011   200536 450500                    STP0    CHIP#+4,,AUTO
         3 016012   200304 631500                    EPPR1   XST_TEXT,,AUTO
         3 016013   200535 451500                    STP1    CHIP#+3,,AUTO
         3 016014   200300 633500                    EPPR3   XST$,,AUTO
         3 016015   200534 453500                    STP3    CHIP#+2,,AUTO
         3 016016   200534 630500                    EPPR0   CHIP#+2,,AUTO
         3 016017   000021 631400 xsym               EPPR1   B_VECTNIL+17
         3 016020   000000 701000 xent               TSX1    THF$ADD_TEXTC
         3 016021   000000 011000                    NOP     0

     2446     5752    2             NXST = NXST + 1;

   5752  3 016022   200343 235100                    LDA     NXST,,AUTO
         3 016023   000001 035007                    ADLA    1,DL
         3 016024   200343 755100                    STA     NXST,,AUTO

     2447     5753    2   EURC_RETURN:
     2448     5754    2       RETURN;

   5754  3 016025   200524 221300       EURC_RETURN  LDX1  ! NINE_TRACK_BLNK+8,,AUTO
         3 016026   000001 702211                    TSX2  ! 1,X1

     2449     5755    2   END EURC_PR54;
     2450     5756        %EJECT;
PL6.E3A0      #001=THF$RAW File=THF$FORMAT.:E05TSI                               WED 07/30/97 06:08 Page:464
     2451     5757        /* HANDLING OF PR71 PRINTERS FOR IOERR RECORDS */
     2452     5758        /**/
     2453     5759    1   MPC_PR71: PROC;

   5759  3 016027   200524 741300       MPC_PR71     STX1  ! NINE_TRACK_BLNK+8,,AUTO

     2454     5760        /**/
     2455     5761    3   IF DEVTBL.CODE(I) = 6 THEN DO;                  /* BELT TYPE */

   5761  3 016030   200010 236100                    LDQ     I,,AUTO
         3 016031   000012 402007                    MPY     10,DL
         3 016032   200215 470500                    LDP0    DEV$,,AUTO
         3 016033   000000 236106                    LDQ     0,QL,PR0
         3 016034   777000 376003                    ANQ     -512,DU
         3 016035   006000 116003                    CMPQ    3072,DU
         3 016036   016102 601000 3                  TNZ     s:5774

     2456     5762    3       PTR_BELT.BYT1 = IO_MASK(0);

   5762  3 016037   200221 236100                    LDQ     IO_MASK,,AUTO
         3 016040   200014 676100                    ERQ     PTR_BELT,,AUTO
         3 016041   776000 376003                    ANQ     -1024,DU
         3 016042   200014 656100                    ERSQ    PTR_BELT,,AUTO

     2457     5763    3       PTR_BELT.BYT2 = IO_MASK(1);

   5763  3 016043   200221 236100                    LDQ     IO_MASK,,AUTO
         3 016044   200014 676100                    ERQ     PTR_BELT,,AUTO
         3 016045   001774 376003                    ANQ     1020,DU
         3 016046   200014 656100                    ERSQ    PTR_BELT,,AUTO

     2458     5764    4       DO X = 0 TO 3;                             /* GO THRU BELT TABLE */

   5764  3 016047   200011 450100                    STZ     X,,AUTO

     2459     5765    4          IF PR71_BELT.CODE = PR71_BELT_TBL.CODE(X)

PL6.E3A0      #001=THF$RAW File=THF$FORMAT.:E05TSI                               WED 07/30/97 06:08 Page:465
   5765  3 016050   200011 236100                    LDQ     X,,AUTO
         3 016051   000330 402007                    MPY     216,DL
         3 016052   000000 116003                    CMPQ    0,DU
         3 016053   016055 605000 3                  TPL     s:5765+5
         3 016054   000044 036003                    ADLQ    36,DU
         3 016055   000006 066500                    CMPB    filb='0'B
         3 016056   200014 010017                    BDSC    PTR_BELT,,AUTO           by=0,bit=1,n=15
         3 016057   000000 000017 xsym               BDSC    PR71_BELT_TBL,Q          by=0,bit=0,n=15
         3 016060   016075 601000 3                  TNZ     s:5771

     2460     5766    5             THEN DO;

     2461     5767    5               XST_TEXT = PR71_BELT_TBL.TEXT(X);

   5767  3 016061   200011 236100                    LDQ     X,,AUTO
         3 016062   000030 402007                    MPY     24,DL
         3 016063   040100 100406                    MLR     fill='040'O
         3 016064   000000 600022 xsym               ADSC9   PR71_BELT_TBL,Q          cn=3,n=18
         3 016065   200304 000043                    ADSC9   XST_TEXT,,AUTO           cn=0,n=35

     2462     5768    5               XST_CNT = PR71_BELT_TBL.COUNT(X);

   5768  3 016066   200011 236100                    LDQ     X,,AUTO
         3 016067   000006 402007                    MPY     6,DL
         3 016070   000000 236006 xsym               LDQ     PR71_BELT_TBL,QL
         3 016071   000014 772000                    QRL     12
         3 016072   000777 376007                    ANQ     511,DL
         3 016073   200342 756100                    STQ     XST_CNT,,AUTO

     2463     5769    5               GOTO FOUND_ENTRY;

   5769  3 016074   016243 710000 3                  TRA     FOUND_ENTRY

     2464     5770    5             END;
     2465     5771    4       END;   /* DO X = 0 TO 3 */

   5771  3 016075   200011 054100                    AOS     X,,AUTO
PL6.E3A0      #001=THF$RAW File=THF$FORMAT.:E05TSI                               WED 07/30/97 06:08 Page:466
         3 016076   200011 235100                    LDA     X,,AUTO
         3 016077   000003 115007                    CMPA    3,DL
         3 016100   016050 604400 3                  TMOZ    s:5765

     2466     5772    3       GOTO MPC_RETURN;                           /* NOT FOUND */

   5772  3 016101   016260 710000 3                  TRA     MPC_RETURN

     2467     5773    3   END;
     2468     5774    3   ELSE IF DEVTBL.CODE(I) = 88 THEN DO;           /* ECHO CHK REGISTER */

   5774  3 016102   200010 236100                    LDQ     I,,AUTO
         3 016103   000012 402007                    MPY     10,DL
         3 016104   000000 236106                    LDQ     0,QL,PR0
         3 016105   777000 376003                    ANQ     -512,DU
         3 016106   130000 116003                    CMPQ    45056,DU
         3 016107   016147 601000 3                  TNZ     s:5784

     2469     5775    3       PR71_BUF.STRING = ' ';

   5775  3 016110   040000 100400                    MLR     fill='040'O
         3 016111   000035 000001 xsym               ADSC9   B_VECTNIL+29             cn=0,n=1
         3 016112   000041 200043 2                  ADSC9   PR71_BUF                 cn=1,n=35

     2470     5776    3       PR71_REG1.BYT1 = IO_MASK(11);

   5776  3 016113   200223 236100                    LDQ     IO_MASK+2,,AUTO
         3 016114   000020 736000                    QLS     16
         3 016115   200015 676100                    ERQ     PR71_REG1,,AUTO
         3 016116   776000 376003                    ANQ     -1024,DU
         3 016117   200015 656100                    ERSQ    PR71_REG1,,AUTO

     2471     5777    3       PR71_REG1.BYT2 = IO_MASK(12);

   5777  3 016120   200223 236100                    LDQ     IO_MASK+2,,AUTO
         3 016121   000020 736000                    QLS     16
         3 016122   200015 676100                    ERQ     PR71_REG1,,AUTO
PL6.E3A0      #001=THF$RAW File=THF$FORMAT.:E05TSI                               WED 07/30/97 06:08 Page:467
         3 016123   001774 376003                    ANQ     1020,DU
         3 016124   200015 656100                    ERSQ    PR71_REG1,,AUTO

     2472     5778    3       PR71_VECTOR_TBL = VECTOR(PR71_REG1);

   5778  3 016125   777640 235007                    LDA     -96,DL
         3 016126   200534 452500                    STP2    CHIP#+2,,AUTO
         3 016127   200534 236100                    LDQ     CHIP#+2,,AUTO
         3 016130   000015 036003                    ADLQ    13,DU
         3 016131   000052 757000 2                  STAQ    PR71_VECTOR_TBL

     2473     5779    3       FDS_PR71.FMT_ = VECTOR(PR71FMT1);

   5779  3 016132   000444 237000 4                  LDAQ    292
         3 016133   007570 757000 2                  STAQ    FDS_PR71

     2474     5780    3       CALL X$FORMAT(FDS_PR71);

   5780  3 016134   000446 630400 4                  EPPR0   294
         3 016135   000017 631400 xsym               EPPR1   B_VECTNIL+15
         3 016136   000000 701000 xent               TSX1    X$FORMAT
         3 016137   000000 011000                    NOP     0

     2475     5781    3       XST_TEXT = PR71_BUF.STRING;  XST_CNT = FDS_PR71.BUFSIZE -1;

   5781  3 016140   040100 100400                    MLR     fill='040'O
         3 016141   000041 200043 2                  ADSC9   PR71_BUF                 cn=1,n=35
         3 016142   200304 000043                    ADSC9   XST_TEXT,,AUTO           cn=0,n=35

   5781  3 016143   007600 235000 2                  LDA     FDS_PR71+8
         3 016144   000001 135007                    SBLA    1,DL
         3 016145   200342 755100                    STA     XST_CNT,,AUTO

     2476     5782    3       GOTO FOUND_ENTRY;

   5782  3 016146   016243 710000 3                  TRA     FOUND_ENTRY

PL6.E3A0      #001=THF$RAW File=THF$FORMAT.:E05TSI                               WED 07/30/97 06:08 Page:468
     2477     5783    3   END;
     2478     5784    3   ELSE IF DEVTBL.CODE(I) = 104 THEN DO;          /* SHORT CIRCUIT REGISTER */

   5784  3 016147   200010 236100                    LDQ     I,,AUTO
         3 016150   000012 402007                    MPY     10,DL
         3 016151   000000 236106                    LDQ     0,QL,PR0
         3 016152   777000 376003                    ANQ     -512,DU
         3 016153   150000 116003                    CMPQ    53248,DU
         3 016154   016217 601000 3                  TNZ     s:5795

     2479     5785    3       PR71_BUF.STRING = ' ';

   5785  3 016155   040000 100400                    MLR     fill='040'O
         3 016156   000035 000001 xsym               ADSC9   B_VECTNIL+29             cn=0,n=1
         3 016157   000041 200043 2                  ADSC9   PR71_BUF                 cn=1,n=35

     2480     5786    3       PR71_REG1.BYT1 =  IO_MASK(13);

   5786  3 016160   200223 235100                    LDA     IO_MASK+2,,AUTO
         3 016161   200224 236100                    LDQ     IO_MASK+3,,AUTO
         3 016162   000040 773000                    LRL     32
         3 016163   000377 376007                    ANQ     255,DL
         3 016164   000034 736000                    QLS     28
         3 016165   200015 676100                    ERQ     PR71_REG1,,AUTO
         3 016166   776000 376003                    ANQ     -1024,DU
         3 016167   200015 656100                    ERSQ    PR71_REG1,,AUTO

     2481     5787    3       PR71_REG1.BYT2 =  IO_MASK(14);

   5787  3 016170   200224 236100                    LDQ     IO_MASK+3,,AUTO
         3 016171   000004 772000                    QRL     4
         3 016172   200015 676100                    ERQ     PR71_REG1,,AUTO
         3 016173   001774 376003                    ANQ     1020,DU
         3 016174   200015 656100                    ERSQ    PR71_REG1,,AUTO

     2482     5788    3       PR71_VECTOR_TBL = VECTOR(PR71_REG1);

PL6.E3A0      #001=THF$RAW File=THF$FORMAT.:E05TSI                               WED 07/30/97 06:08 Page:469
   5788  3 016175   777640 235007                    LDA     -96,DL
         3 016176   200534 452500                    STP2    CHIP#+2,,AUTO
         3 016177   200534 236100                    LDQ     CHIP#+2,,AUTO
         3 016200   000015 036003                    ADLQ    13,DU
         3 016201   000052 757000 2                  STAQ    PR71_VECTOR_TBL

     2483     5789    3       FDS_PR71.FMT_ = VECTOR(PR71FMT3);

   5789  3 016202   000450 237000 4                  LDAQ    296
         3 016203   007570 757000 2                  STAQ    FDS_PR71

     2484     5790    3       CALL X$FORMAT(FDS_PR71);

   5790  3 016204   000446 630400 4                  EPPR0   294
         3 016205   000017 631400 xsym               EPPR1   B_VECTNIL+15
         3 016206   000000 701000 xent               TSX1    X$FORMAT
         3 016207   000000 011000                    NOP     0

     2485     5791    3       XST_TEXT = PR71_BUF.STRING;   XST_CNT = FDS_PR71.BUFSIZE -1;

   5791  3 016210   040100 100400                    MLR     fill='040'O
         3 016211   000041 200043 2                  ADSC9   PR71_BUF                 cn=1,n=35
         3 016212   200304 000043                    ADSC9   XST_TEXT,,AUTO           cn=0,n=35

   5791  3 016213   007600 235000 2                  LDA     FDS_PR71+8
         3 016214   000001 135007                    SBLA    1,DL
         3 016215   200342 755100                    STA     XST_CNT,,AUTO

     2486     5792    3       GOTO FOUND_ENTRY;

   5792  3 016216   016243 710000 3                  TRA     FOUND_ENTRY

     2487     5793    3   END;
     2488     5794    3   ELSE DO;

     2489     5795    3       IF IO_MASK1(DEVTBL.CODE(I))

PL6.E3A0      #001=THF$RAW File=THF$FORMAT.:E05TSI                               WED 07/30/97 06:08 Page:470
   5795  3 016217   200010 236100                    LDQ     I,,AUTO
         3 016220   000012 402007                    MPY     10,DL
         3 016221   000000 236106                    LDQ     0,QL,PR0
         3 016222   000033 772000                    QRL     27
         3 016223   000000 066506                    CMPB    filb='0'B
         3 016224   200221 000001                    BDSC    IO_MASK,Q,AUTO           by=0,bit=0,n=1
         3 016225   000002 000022 xsym               BDSC    B_VECTNIL+2              by=0,bit=0,n=18
         3 016226   016260 600000 3                  TZE     MPC_RETURN

     2490     5796    4          THEN DO;

     2491     5797    4            XST_TEXT = DEVTBL.TEXT(I);  XST_CNT = DEVTBL.COUNT(I);

   5797  3 016227   200010 236100                    LDQ     I,,AUTO
         3 016230   000050 402007                    MPY     40,DL
         3 016231   040100 100506                    MLR     fill='040'O
         3 016232   000000 400043                    ADSC9   0,Q,PR0                  cn=2,n=35
         3 016233   200304 000043                    ADSC9   XST_TEXT,,AUTO           cn=0,n=35

   5797  3 016234   200010 236100                    LDQ     I,,AUTO
         3 016235   000012 402007                    MPY     10,DL
         3 016236   000000 236106                    LDQ     0,QL,PR0
         3 016237   000022 772000                    QRL     18
         3 016240   000777 376007                    ANQ     511,DL
         3 016241   200342 756100                    STQ     XST_CNT,,AUTO

     2492     5798    4          END;

   5798  3 016242   016243 710000 3                  TRA     FOUND_ENTRY

     2493     5799    3          ELSE GOTO MPC_RETURN;
     2494     5800    3   END;
     2495     5801    2   FOUND_ENTRY:
     2496     5802    2       CALL THF$ADD_TEXTC(XST$, XST_TEXT, XST_CNT);

   5802  3 016243   200342 630500       FOUND_ENTRY  EPPR0   XST_CNT,,AUTO
         3 016244   200536 450500                    STP0    CHIP#+4,,AUTO
PL6.E3A0      #001=THF$RAW File=THF$FORMAT.:E05TSI                               WED 07/30/97 06:08 Page:471
         3 016245   200304 631500                    EPPR1   XST_TEXT,,AUTO
         3 016246   200535 451500                    STP1    CHIP#+3,,AUTO
         3 016247   200300 633500                    EPPR3   XST$,,AUTO
         3 016250   200534 453500                    STP3    CHIP#+2,,AUTO
         3 016251   200534 630500                    EPPR0   CHIP#+2,,AUTO
         3 016252   000021 631400 xsym               EPPR1   B_VECTNIL+17
         3 016253   000000 701000 xent               TSX1    THF$ADD_TEXTC
         3 016254   000000 011000                    NOP     0

     2497     5803    2       NXST = NXST +1;

   5803  3 016255   200343 235100                    LDA     NXST,,AUTO
         3 016256   000001 035007                    ADLA    1,DL
         3 016257   200343 755100                    STA     NXST,,AUTO

     2498     5804    2   MPC_RETURN:
     2499     5805    2       RETURN;

   5805  3 016260   200524 221300       MPC_RETURN   LDX1  ! NINE_TRACK_BLNK+8,,AUTO
         3 016261   000001 702211                    TSX2  ! 1,X1

     2500     5806    2   END MPC_PR71;
     2501     5807        %EJECT;
PL6.E3A0      #001=THF$RAW File=THF$FORMAT.:E05TSI                               WED 07/30/97 06:08 Page:472
     2502     5808        /* HANDLING OF MDSII DISKS FOR IOERR RECORDS (EXTENDED STATUS)  */
     2503     5809        /**/
     2504     5810    1   IPC_MDSII: PROC;

   5810  3 016262   200524 741300       IPC_MDSII    STX1  ! NINE_TRACK_BLNK+8,,AUTO

     2505     5811        /**/
     2506     5812    2      MDS_TEXT = ' ';

   5812  3 016263   040100 100400                    MLR     fill='040'O
         3 016264   000035 000001 xsym               ADSC9   B_VECTNIL+29             cn=0,n=1
         3 016265   200315 000120                    ADSC9   MDS_TEXT,,AUTO           cn=0,n=80

     2507     5813    2      MDS_TEXT = DEVTBL.TEXT(I);

   5813  3 016266   200010 236100                    LDQ     I,,AUTO
         3 016267   000050 402007                    MPY     40,DL
         3 016270   200215 470500                    LDP0    DEV$,,AUTO
         3 016271   040100 100506                    MLR     fill='040'O
         3 016272   000000 400043                    ADSC9   0,Q,PR0                  cn=2,n=35
         3 016273   200315 000120                    ADSC9   MDS_TEXT,,AUTO           cn=0,n=80

     2508     5814    2      XST_CNT = DEVTBL.COUNT(I);

   5814  3 016274   200010 236100                    LDQ     I,,AUTO
         3 016275   000012 402007                    MPY     10,DL
         3 016276   000000 236106                    LDQ     0,QL,PR0
         3 016277   000022 772000                    QRL     18
         3 016300   000777 376007                    ANQ     511,DL
         3 016301   200342 756100                    STQ     XST_CNT,,AUTO

     2509     5815    3      IF DEVTBL.CODE(I) =0 THEN DO;             /* BYTE 0 - PATH COMPONENT */

   5815  3 016302   200010 236100                    LDQ     I,,AUTO
         3 016303   000012 402007                    MPY     10,DL
         3 016304   000000 236106                    LDQ     0,QL,PR0
         3 016305   777000 316003                    CANQ    -512,DU
PL6.E3A0      #001=THF$RAW File=THF$FORMAT.:E05TSI                               WED 07/30/97 06:08 Page:473
         3 016306   016410 601000 3                  TNZ     s:5835

     2510     5816    3         PARAMETER_ID = 0;

   5816  3 016307   000452 236000 4                  LDQ     298
         3 016310   200254 356100                    ANSQ    PARAMETER_ID,,AUTO

     2511     5817    3         PARAMETER_LENGTH = 0;

   5817  3 016311   200255 450100                    STZ     PARAMETER_LENGTH,,AUTO

     2512     5818    3         OCTET_NUM = 0;

   5818  3 016312   200262 450100                    STZ     OCTET_NUM,,AUTO

     2513     5819    4         DO X = 0 TO 10;

   5819  3 016313   200011 450100                    STZ     X,,AUTO

     2514     5820    4            XSTATUS_BYTE(X) = IO_MASK(X);

   5820  3 016314   200011 235100                    LDA     X,,AUTO
         3 016315   000003 735000                    ALS     3
         3 016316   016320 605000 3                  TPL     s:5820+4
         3 016317   000044 035003                    ADLA    36,DU
         3 016320   200011 236100                    LDQ     X,,AUTO
         3 016321   000003 736000                    QLS     3
         3 016322   016324 605000 3                  TPL     s:5820+8
         3 016323   000044 036003                    ADLQ    36,DU
         3 016324   003106 060505                    CSL     bolr='003'O
         3 016325   200221 000010                    BDSC    IO_MASK,A,AUTO           by=0,bit=0,n=8
         3 016326   200247 000010                    BDSC    XSTATUS_BYTE,Q,AUTO      by=0,bit=0,n=8

     2515     5821    4         END;

   5821  3 016327   200011 054100                    AOS     X,,AUTO
         3 016330   200011 235100                    LDA     X,,AUTO
PL6.E3A0      #001=THF$RAW File=THF$FORMAT.:E05TSI                               WED 07/30/97 06:08 Page:474
         3 016331   000012 115007                    CMPA    10,DL
         3 016332   016314 604400 3                  TMOZ    s:5820

     2516     5822    4         DO X = 0 TO 25;

   5822  3 016333   200011 450100                    STZ     X,,AUTO

     2517     5823    4            OCTET_BYTE(X) = IO_MASK(X + 10);

   5823  3 016334   200011 235100                    LDA     X,,AUTO
         3 016335   000003 735000                    ALS     3
         3 016336   016340 605000 3                  TPL     s:5823+4
         3 016337   000044 035003                    ADLA    36,DU
         3 016340   200011 236100                    LDQ     X,,AUTO
         3 016341   000003 736000                    QLS     3
         3 016342   016344 605000 3                  TPL     s:5823+8
         3 016343   000044 036003                    ADLQ    36,DU
         3 016344   003106 060505                    CSL     bolr='003'O
         3 016345   200223 100010                    BDSC    IO_MASK+2,A,AUTO         by=0,bit=8,n=8
         3 016346   200241 000010                    BDSC    OCTET_BYTE,Q,AUTO        by=0,bit=0,n=8

     2518     5824    4         END;

   5824  3 016347   200011 054100                    AOS     X,,AUTO
         3 016350   200011 235100                    LDA     X,,AUTO
         3 016351   000031 115007                    CMPA    25,DL
         3 016352   016334 604400 3                  TMOZ    s:5823

     2519     5825    3         IF XSTATUS_BYTE(0) = 1 THEN

   5825  3 016353   200247 236100                    LDQ     XSTATUS_BYTE,,AUTO
         3 016354   776000 376003                    ANQ     -1024,DU
         3 016355   002000 116003                    CMPQ    1024,DU
         3 016356   016366 601000 3                  TNZ     s:5827

     2520     5826    3            MDS_TEXT = DEVTBL.TEXT(I);

PL6.E3A0      #001=THF$RAW File=THF$FORMAT.:E05TSI                               WED 07/30/97 06:08 Page:475
   5826  3 016357   200010 236100                    LDQ     I,,AUTO
         3 016360   000050 402007                    MPY     40,DL
         3 016361   200215 470500                    LDP0    DEV$,,AUTO
         3 016362   040100 100506                    MLR     fill='040'O
         3 016363   000000 400043                    ADSC9   0,Q,PR0                  cn=2,n=35
         3 016364   200315 000120                    ADSC9   MDS_TEXT,,AUTO           cn=0,n=80
         3 016365   016407 710000 3                  TRA     s:5833

     2521     5827    3         ELSE IF XSTATUS_BYTE(0) = 4 THEN

   5827  3 016366   010000 116003                    CMPQ    4096,DU
         3 016367   016374 601000 3                  TNZ     s:5829

     2522     5828    3            MDS_TEXT = 'PATH COMPONENT = IPC-IPI';

   5828  3 016370   040100 100400                    MLR     fill='040'O
         3 016371   002043 000030 1                  ADSC9   BOARD_64K+612            cn=0,n=24
         3 016372   200315 000120                    ADSC9   MDS_TEXT,,AUTO           cn=0,n=80
         3 016373   016407 710000 3                  TRA     s:5833

     2523     5829    3         ELSE IF (XSTATUS_BYTE(0) = 2 OR XSTATUS_BYTE(0) = 3) THEN

   5829  3 016374   004000 116003                    CMPQ    2048,DU
         3 016375   016400 600000 3                  TZE     s:5830
         3 016376   006000 116003                    CMPQ    3072,DU
         3 016377   016404 601000 3                  TNZ     s:5832

     2524     5830    3            MDS_TEXT = 'PATH COMPONENT = DEVICE ';

   5830  3 016400   040100 100400                    MLR     fill='040'O
         3 016401   002051 000030 1                  ADSC9   BOARD_64K+618            cn=0,n=24
         3 016402   200315 000120                    ADSC9   MDS_TEXT,,AUTO           cn=0,n=80
         3 016403   016407 710000 3                  TRA     s:5833

     2525     5831    3         ELSE
     2526     5832    3            MDS_TEXT = 'UNKNOWN PATH COMPONENT  ';

