VERSION E05

PL6.E3A0      #001=THM$ERRMSG File=THM$ERRMSG.:E05TSI                            WED 07/30/97 06:15 Page:1
        1        1        /*M* THM$ERRMSG - ERROR MESSAGE ROUTINE FOR ELAN */
        2        2        /*T***********************************************************/
        3        3        /*T*                                                         */
        4        4        /*T* Copyright (c) Bull HN Information Systems Inc., 1997    */
        5        5        /*T*                                                         */
        6        6        /*T***********************************************************/
        7        7        THM$ERRMSG: PROC(CODE);
        8        8        /**/
        9        9        /* PARAMS */
       10       10    1   DCL CODE UBIN WORD;
       11       11        /**/
       12       12        /* INCLUDES */
       13       13        %INCLUDE CP_6;
       14       94        %INCLUDE TH_DATA_R;
       15      172        /**/
       16      173        /* MACROS */
       17      174        %B$TCB;
       18      177        %B$ALT;
       19      185        /**/
       20      186        /* ENTRY DCLS */
       21      187    1   DCL XUR$ERRMSG ENTRY(7) ALTRET;
       22      188        /**/
       23      189        /* SYMREFS */
       24      190    1   DCL B$TCB$ PTR SYMREF;
       25      191        /* LOCALS */
       26      192    1   DCL DCB_NBR UBIN WORD AUTO;
       27      193        %EJECT;
PL6.E3A0      #001=THM$ERRMSG File=THM$ERRMSG.:E05TSI                            WED 07/30/97 06:15 Page:2
       28      194    1      IF ADDR(CODE) = ADDR(NIL)
       29      195    2       THEN DO;
       30      196    2         TH_ERRCODE = B$TCB$->B$TCB.ALT$->B$ALT.ERR;
       31      197    2         TH_ERRCODE.SEV = 0;
       32      198    2         DCB_NBR = B$TCB$->B$TCB.ALT$->B$ALT.DCB#;
       33      199    2         CALL XUR$ERRMSG( TH_ERRCODE, DCB_NBR );
       34      200    2         END;
       35      201    2       ELSE DO;
       36      202    2         TH_ERRCODE = '241005000000'O;
       37      203    2         TH_ERRCODE.CODE = CODE;
       38      204    2         CALL XUR$ERRMSG( TH_ERRCODE );
       39      205    2         END;
       40      206    1        RETURN;
       41      207    1   END THM$ERRMSG;

PL6.E3A0      #001=THM$ERRMSG File=THM$ERRMSG.:E05TSI                            WED 07/30/97 06:15 Page:3
--  Include file information  --

   TH_DATA_R.:E05TOU  cannot be made into a system file and is referenced.
   CP_6.:E05TOU  cannot be made into a system file and is referenced.
   B$JIT_C.:E05TOU  was found in the system file and is never referenced.
   CP_6_C.:E05TOU  was found in the system file and is referenced.
      No diagnostics issued in procedure THM$ERRMSG.

   Procedure THM$ERRMSG requires 36 words for executable code.
   Procedure THM$ERRMSG requires 8 words of local(AUTO) storage.

    No errors detected in file THM$ERRMSG.:E05TSI    .

PL6.E3A0      #001=THM$ERRMSG File=THM$ERRMSG.:E05TSI                            WED 07/30/97 06:15 Page:4

 Object Unit name= THM$ERRMSG                                 File name= THM$ERRMSG.:E05TOU
 UTS= JUL 30 '97 06:15:55.08 WED                              Compiler= PL-6/E31         Sev=      00
 SharedLib= :SHARED_SYSTEM                                    Alt SharedLib=


    ****  Control sections  ****

 Sect   Type Bound  Init  Size OctSiz  Section name(segment info)
    0   DCB   even  none     0      0  M$UC
    1  RoData even  UTS      1      1  THM$ERRMSG
    2   Proc  even  none    36     44  THM$ERRMSG
    3  RoData even  none     2      2  THM$ERRMSG

    ****  Entry defs  ****

                              Check   Calling
                             calling  sequence
  Sect OctLoc Primary Altret sequence   type   Parms  Name
     2      0   yes            yes      Std        1  THM$ERRMSG

  ****  Entry refs  ****

         Check        Calling
        calling       sequence
Altret sequence SRef   type   Args  Name
 yes     yes           Std       7 XUR$ERRMSG
                       nStd      0 X66_AUTO_1
                       Std       0 B_CONSPOOL_D
                       nStd      0 X66_ARET

  ****  Data refs  ****

  Flags:  r = read only, s = secondary
Flgs Name                             Flgs Name                             Flgs Name
     M$UC                                  TH_ERRCODE                            TH_XSA_BUF_VECTOR
     B$TCB$                                B_VECTNIL
PL6.E3A0      #001=THM$ERRMSG File=THM$ERRMSG.:E05TSI                            WED 07/30/97 06:15 Page:5

  ****  Segment refs  ****

  Flags:  r = read only, s = secondary
Flgs Name                             Flgs Name                             Flgs Name
     ISSID
PL6.E3A0      #001=THM$ERRMSG File=THM$ERRMSG.:E05TSI                            WED 07/30/97 06:15 Page:6


        1        1        /*M* THM$ERRMSG - ERROR MESSAGE ROUTINE FOR ELAN */
        2        2        /*T***********************************************************/
        3        3        /*T*                                                         */
        4        4        /*T* Copyright (c) Bull HN Information Systems Inc., 1997    */
        5        5        /*T*                                                         */
        6        6        /*T***********************************************************/
        7        7        THM$ERRMSG: PROC(CODE);

      7  2 000000   000000 700200 xent  THM$ERRMSG   TSX0  ! X66_AUTO_1
         2 000001   000010 000001                    ZERO    8,1

        8        8        /**/
        9        9        /* PARAMS */
       10       10    1   DCL CODE UBIN WORD;
       11       11        /**/
       12       12        /* INCLUDES */
       13       13        %INCLUDE CP_6;
       14       94        %INCLUDE TH_DATA_R;
       15      172        /**/
       16      173        /* MACROS */
       17      174        %B$TCB;
       18      177        %B$ALT;
       19      185        /**/
       20      186        /* ENTRY DCLS */
       21      187    1   DCL XUR$ERRMSG ENTRY(7) ALTRET;
       22      188        /**/
       23      189        /* SYMREFS */
       24      190    1   DCL B$TCB$ PTR SYMREF;
       25      191        /* LOCALS */
       26      192    1   DCL DCB_NBR UBIN WORD AUTO;
       27      193        %EJECT;
PL6.E3A0      #001=THM$ERRMSG File=THM$ERRMSG.:E05TSI                            WED 07/30/97 06:15 Page:7
       28      194    1      IF ADDR(CODE) = ADDR(NIL)

    194  2 000002   200003 236100                    LDQ     @CODE,,AUTO
         2 000003   000001 116000 xsym               CMPQ    B_VECTNIL+1
         2 000004   000027 601000 2                  TNZ     s:202

       29      195    2       THEN DO;

       30      196    2         TH_ERRCODE = B$TCB$->B$TCB.ALT$->B$ALT.ERR;

    196  2 000005   000000 470400 xsym               LDP0    B$TCB$
         2 000006   000000 471500                    LDP1    0,,PR0
         2 000007   100102 236100                    LDQ     66,,PR1
         2 000010   000000 756000 xsym               STQ     TH_ERRCODE

       31      197    2         TH_ERRCODE.SEV = 0;

    197  2 000011   000000 236000 3                  LDQ     0
         2 000012   000000 356000 xsym               ANSQ    TH_ERRCODE

       32      198    2         DCB_NBR = B$TCB$->B$TCB.ALT$->B$ALT.DCB#;

    198  2 000013   000000 471500                    LDP1    0,,PR0
         2 000014   100101 235100                    LDA     65,,PR1
         2 000015   200004 755100                    STA     DCB_NBR,,AUTO

       33      199    2         CALL XUR$ERRMSG( TH_ERRCODE, DCB_NBR );

    199  2 000016   200004 631500                    EPPR1   DCB_NBR,,AUTO
         2 000017   200007 451500                    STP1    DCB_NBR+3,,AUTO
         2 000020   000001 236000 3                  LDQ     1
         2 000021   200006 756100                    STQ     DCB_NBR+2,,AUTO
         2 000022   200006 630500                    EPPR0   DCB_NBR+2,,AUTO
         2 000023   000020 631400 xsym               EPPR1   B_VECTNIL+16
         2 000024   000000 701000 xent               TSX1    XUR$ERRMSG
         2 000025   000000 011000                    NOP     0

PL6.E3A0      #001=THM$ERRMSG File=THM$ERRMSG.:E05TSI                            WED 07/30/97 06:15 Page:8
       34      200    2         END;

    200  2 000026   000043 710000 2                  TRA     s:206

       35      201    2       ELSE DO;

       36      202    2         TH_ERRCODE = '241005000000'O;

    202  2 000027   000000 236000 1                  LDQ     0
         2 000030   000000 756000 xsym               STQ     TH_ERRCODE

       37      203    2         TH_ERRCODE.CODE = CODE;

    203  2 000031   200003 470500                    LDP0    @CODE,,AUTO
         2 000032   000000 236100                    LDQ     0,,PR0
         2 000033   000003 736000                    QLS     3
         2 000034   000000 676000 xsym               ERQ     TH_ERRCODE
         2 000035   377770 376007                    ANQ     131064,DL
         2 000036   000000 656000 xsym               ERSQ    TH_ERRCODE

       38      204    2         CALL XUR$ERRMSG( TH_ERRCODE );

    204  2 000037   000001 630400 3                  EPPR0   1
         2 000040   000017 631400 xsym               EPPR1   B_VECTNIL+15
         2 000041   000000 701000 xent               TSX1    XUR$ERRMSG
         2 000042   000000 011000                    NOP     0

       39      205    2         END;

       40      206    1        RETURN;

    206  2 000043   000000 702200 xent               TSX2  ! X66_ARET
       41      207    1   END THM$ERRMSG;

PL6.E3A0      #001=THM$ERRMSG File=THM$ERRMSG.:E05TSI                            WED 07/30/97 06:15 Page:9
--  Include file information  --

   TH_DATA_R.:E05TOU  cannot be made into a system file and is referenced.
   CP_6.:E05TOU  cannot be made into a system file and is referenced.
   B$JIT_C.:E05TOU  was found in the system file and is never referenced.
   CP_6_C.:E05TOU  was found in the system file and is referenced.
      No diagnostics issued in procedure THM$ERRMSG.
PL6.E3A0      #001=THM$ERRMSG File=THM$ERRMSG.:E05TSI                            WED 07/30/97 06:15 Page:10

 **** Variables and constants ****

  ****  Auto variables  ****

  ****  Scalars and arrays  ****
OctLoc.c.b A Datatyp(siz) R M Lvl/name                 OctLoc.c.b A Datatyp(siz) R M Lvl/name

     3-0-0/w PTR         r     1 @CODE                     *0-0-0/w UBIN        r     1 CODE
     4-0-0/w UBIN        r     1 DCB_NBR

  ****  SYMREF variables  ****

  ****  Scalars and arrays  ****
OctLoc.c.b A Datatyp(siz) R M Lvl/name                 OctLoc.c.b A Datatyp(siz) R M Lvl/name

     0-0-0/w PTR         r     1 B$TCB$                     0-0-0/w STRC        r     1 TH_ERRCODE

  ****  BASED and DCB variables  ****

  ****  Scalars and arrays  ****
OctLoc.c.b A Datatyp(siz) R M Lvl/name                 OctLoc.c.b A Datatyp(siz) R M Lvl/name

     0-0-0/w STRC(2448)  r     1 B$ALT                      0-0-0/w STRC(144)   r     1 B$TCB


   Procedure THM$ERRMSG requires 36 words for executable code.
   Procedure THM$ERRMSG requires 8 words of local(AUTO) storage.

    No errors detected in file THM$ERRMSG.:E05TSI    .
PL6.E3A0      #001=THM$ERRMSG File=THM$ERRMSG.:E05TSI                            WED 07/30/97 06:15 Page:11
          *** CROSS REFERENCE LISTING ***
**     DENOTES     IDENTIFIER DEFINITION
<<                 IDENTIFIER'S VALUE SET
>>                 IDENTIFIER'S VALUE USED
<>                 IDENTIFIER SET AND/OR USED
--                 IDENTIFIER REFERENCED
PL6.E3A0      #001=THM$ERRMSG File=THM$ERRMSG.:E05TSI                            WED 07/30/97 06:15 Page:12
          MINI XREF LISTING

B$ALT.CODE
       179**DCL       179--REDEF     180--REDEF     180--REDEF
B$ALT.DCB#
       180**DCL       198>>ASSIGN
B$ALT.ERR
       180**DCL       196>>ASSIGN
B$ALT.ERR.ERR#
       181**DCL       181--REDEF
B$ALT.EVID
       180**DCL       180--REDEF     180--REDEF
B$TCB.ALT$
       175**DCL       196>>ASSIGN    198>>ASSIGN
B$TCB$
       190**DCL       196>>ASSIGN    198>>ASSIGN
CODE
        10**DCL         7--PROC      194--IF        203>>ASSIGN
DCB_NBR
       192**DCL       198<<ASSIGN    199<>CALL
TH_CONSTRAINTS.E_BY_B
       105**DCL       105--REDEF
TH_CONSTRAINTS.M_BY_B
       104**DCL       104--REDEF
TH_CONSTRAINTS.TYPES
       102**DCL       102--REDEF
TH_DEFAULT.E_BY_B
       113**DCL       113--REDEF
TH_DEFAULT.M_BY_B
       112**DCL       112--REDEF
TH_DEFAULT.TYPES
       110**DCL       110--REDEF
TH_ERRCODE
       125**DCL       196<<ASSIGN    199<>CALL      202<<ASSIGN    204<>CALL
PL6.E3A0      #001=THM$ERRMSG File=THM$ERRMSG.:E05TSI                            WED 07/30/97 06:15 Page:13
TH_ERRCODE.CODE
       126**DCL       203<<ASSIGN
TH_ERRCODE.SEV
       126**DCL       197<<ASSIGN
TH_SAVE.E_BY_B
       121**DCL       121--REDEF
TH_SAVE.M_BY_B
       119**DCL       119--REDEF
TH_SAVE.TYPES
       117**DCL       118--REDEF
TH_XSA_BUF_VECTOR
       137**DCL       137--REDEF
XUR$ERRMSG
       187**DCL-ENT   199--CALL      204--CALL
