VERSION E05

PL6.E3A0      #001=THP$STATS File=THP$STATS.:E05TSI                              WED 07/30/97 06:16 Page:1
        1        1        /*M* THP$STATS - ROUTINES TO CALCULATE STATISTICS FOR ELAN */
        2        2        /*T***********************************************************/
        3        3        /*T*                                                         */
        4        4        /*T* Copyright (c) Bull HN Information Systems Inc., 1997    */
        5        5        /*T*                                                         */
        6        6        /*T***********************************************************/
        7        7        /* Internally to ELAN, all statistics are stored as either UBIN or SBIN values.
        8        8           These values represent thousandths of a percent.  I.e., a value of 9999
        9        9          represents a value of %99.99                         */
       10       10        THP$STATS: PROC(COUNT,CONNECTS,PVAL);
       11       11        /**/
       12       12        /* PARAMS */
       13       13    1   DCL COUNT SBIN WORD;
       14       14    1   DCL CONNECTS SBIN WORD;
       15       15    1   DCL PVAL SBIN WORD;
       16       16        /**/
       17       17    1           IF (COUNT = 0 AND CONNECTS = 0)
       18       18    1              THEN
       19       19    2              DO;
       20       20    2                 PVAL = 10000;
       21       21    2                 RETURN;
       22       22    2              END;
       23       23    1           IF (CONNECTS = 0 AND COUNT > 0)
       24       24    1              THEN
       25       25    2              DO;
       26       26    2                 PVAL = 0;
       27       27    2                 RETURN;
       28       28    2              END;
       29       29    1           PVAL = (10000 - ((10000 * COUNT)/CONNECTS));
       30       30    1           RETURN;
       31       31    1   END THP$STATS;
       32       32        %EOD;

PL6.E3A0      #001=THP$STATS File=THP$STATS.:E05TSI                              WED 07/30/97 06:16 Page:2
      No diagnostics issued in procedure THP$STATS.

   Procedure THP$STATS requires 28 words for executable code.
   Procedure THP$STATS requires 6 words of local(AUTO) storage.

PL6.E3A0      #001=THP$STATS File=THP$STATS.:E05TSI                              WED 07/30/97 06:16 Page:3

 Object Unit name= THP$STATS                                  File name= THP$STATS.:E05TOU
 UTS= JUL 30 '97 06:16:47.44 WED                              Compiler= PL-6/E31         Sev=      00
 SharedLib= :SHARED_SYSTEM                                    Alt SharedLib=


    ****  Control sections  ****

 Sect   Type Bound  Init  Size OctSiz  Section name(segment info)
    0   Proc  even  none    28     34  THP$STATS

    ****  Entry defs  ****

                              Check   Calling
                             calling  sequence
  Sect OctLoc Primary Altret sequence   type   Parms  Name
     0      0   yes            yes      Std        3  THP$STATS

  ****  Entry refs  ****

         Check        Calling
        calling       sequence
Altret sequence SRef   type   Args  Name
                       nStd      0 X66_AUTO_3
                       nStd      0 X66_ARET
                       Std       0 B_CONSPOOL_D

  ****  Data refs  ****

  Flags:  r = read only, s = secondary
Flgs Name                             Flgs Name                             Flgs Name
     B_VECTNIL
PL6.E3A0      #001=THP$STATS File=THP$STATS.:E05TSI                              WED 07/30/97 06:16 Page:4


        1        1        /*M* THP$STATS - ROUTINES TO CALCULATE STATISTICS FOR ELAN */
        2        2        /*T***********************************************************/
        3        3        /*T*                                                         */
        4        4        /*T* Copyright (c) Bull HN Information Systems Inc., 1997    */
        5        5        /*T*                                                         */
        6        6        /*T***********************************************************/
        7        7        /* Internally to ELAN, all statistics are stored as either UBIN or SBIN values.
        8        8           These values represent thousandths of a percent.  I.e., a value of 9999
        9        9          represents a value of %99.99                         */
       10       10        THP$STATS: PROC(COUNT,CONNECTS,PVAL);

     10  0 000000   000000 700200 xent  THP$STATS    TSX0  ! X66_AUTO_3
         0 000001   000006 000003                    ZERO    6,3

       11       11        /**/
       12       12        /* PARAMS */
       13       13    1   DCL COUNT SBIN WORD;
       14       14    1   DCL CONNECTS SBIN WORD;
       15       15    1   DCL PVAL SBIN WORD;
       16       16        /**/
       17       17    1           IF (COUNT = 0 AND CONNECTS = 0)

     17  0 000002   200003 470500                    LDP0    @COUNT,,AUTO
         0 000003   000000 235100                    LDA     0,,PR0
         0 000004   000014 601000 0                  TNZ     s:23
         0 000005   200004 471500                    LDP1    @CONNECTS,,AUTO
         0 000006   100000 235100                    LDA     0,,PR1
         0 000007   000014 601000 0                  TNZ     s:23

       18       18    1              THEN
       19       19    2              DO;

       20       20    2                 PVAL = 10000;

     20  0 000010   023420 236007                    LDQ     10000,DL
         0 000011   200005 473500                    LDP3    @PVAL,,AUTO
PL6.E3A0      #001=THP$STATS File=THP$STATS.:E05TSI                              WED 07/30/97 06:16 Page:5
         0 000012   300000 756100                    STQ     0,,PR3

       21       21    2                 RETURN;

     21  0 000013   000000 702200 xent               TSX2  ! X66_ARET

       22       22    2              END;
       23       23    1           IF (CONNECTS = 0 AND COUNT > 0)

     23  0 000014   200004 471500                    LDP1    @CONNECTS,,AUTO
         0 000015   100000 235100                    LDA     0,,PR1
         0 000016   000024 601000 0                  TNZ     s:29
         0 000017   000000 235100                    LDA     0,,PR0
         0 000020   000024 604400 0                  TMOZ    s:29

       24       24    1              THEN
       25       25    2              DO;

       26       26    2                 PVAL = 0;

     26  0 000021   200005 473500                    LDP3    @PVAL,,AUTO
         0 000022   300000 450100                    STZ     0,,PR3

       27       27    2                 RETURN;

     27  0 000023   000000 702200 xent               TSX2  ! X66_ARET

       28       28    2              END;
       29       29    1           PVAL = (10000 - ((10000 * COUNT)/CONNECTS));

     29  0 000024   000000 236100                    LDQ     0,,PR0
         0 000025   023420 402007                    MPY     10000,DL
         0 000026   100000 506100                    DIV     0,,PR1
         0 000027   000027 676000 xsym               ERQ     B_VECTNIL+23
         0 000030   023421 036007                    ADLQ    10001,DL
         0 000031   200005 473500                    LDP3    @PVAL,,AUTO
         0 000032   300000 756100                    STQ     0,,PR3
PL6.E3A0      #001=THP$STATS File=THP$STATS.:E05TSI                              WED 07/30/97 06:16 Page:6

       30       30    1           RETURN;

     30  0 000033   000000 702200 xent               TSX2  ! X66_ARET
       31       31    1   END THP$STATS;
       32       32        %EOD;

PL6.E3A0      #001=THP$STATS File=THP$STATS.:E05TSI                              WED 07/30/97 06:16 Page:7
      No diagnostics issued in procedure THP$STATS.
PL6.E3A0      #001=THP$STATS File=THP$STATS.:E05TSI                              WED 07/30/97 06:16 Page:8

 **** Variables and constants ****

  ****  Auto variables  ****

  ****  Scalars and arrays  ****
OctLoc.c.b A Datatyp(siz) R M Lvl/name                 OctLoc.c.b A Datatyp(siz) R M Lvl/name

     4-0-0/w PTR         r     1 @CONNECTS                  3-0-0/w PTR         r     1 @COUNT
     5-0-0/w PTR         r     1 @PVAL                     *0-0-0/w SBIN        r     1 CONNECTS
    *0-0-0/w SBIN        r     1 COUNT                     *0-0-0/w SBIN        r     1 PVAL


   Procedure THP$STATS requires 28 words for executable code.
   Procedure THP$STATS requires 6 words of local(AUTO) storage.
PL6.E3A0      #001=THP$STATS File=THP$STATS.:E05TSI                              WED 07/30/97 06:16 Page:9
          *** CROSS REFERENCE LISTING ***
**     DENOTES     IDENTIFIER DEFINITION
<<                 IDENTIFIER'S VALUE SET
>>                 IDENTIFIER'S VALUE USED
<>                 IDENTIFIER SET AND/OR USED
--                 IDENTIFIER REFERENCED
PL6.E3A0      #001=THP$STATS File=THP$STATS.:E05TSI                              WED 07/30/97 06:16 Page:10
          MINI XREF LISTING

CONNECTS
        14**DCL        10--PROC       17>>IF         23>>IF         29>>ASSIGN
COUNT
        13**DCL        10--PROC       17>>IF         23>>IF         29>>ASSIGN
PVAL
        15**DCL        10--PROC       20<<ASSIGN     26<<ASSIGN     29<<ASSIGN

PL6.E3A0      #002=THP$PTOT File=THP$STATS.:E05TSI                               WED 07/30/97 06:16 Page:11
       33        1        /*T***********************************************************/
       34        2        /*T*                                                         */
       35        3        /*T* Copyright (c) Bull HN Information Systems Inc., 1997    */
       36        4        /*T*                                                         */
       37        5        /*T***********************************************************/
       38        6        THP$PTOT: PROC(PVAL,THRESH,PTOT);
       39        7        /**/
       40        8        /* PARAMS */
       41        9    1   DCL PVAL SBIN WORD;
       42       10    1   DCL THRESH SBIN WORD;
       43       11    1   DCL PTOT SBIN WORD;
       44       12        /**/
       45       13    1           IF (THRESH = 0 AND PVAL = 0)
       46       14    1              THEN
       47       15    2              DO;
       48       16    2                 PTOT = 0;
       49       17    2                 RETURN;
       50       18    2              END;
       51       19    1           IF (THRESH = 0 AND PVAL > 0)
       52       20    1              THEN
       53       21    2              DO;
       54       22    2                 PTOT = 10000;
       55       23    2                 RETURN;
       56       24    2              END;
       57       25    1           PTOT = (((PVAL - THRESH) * 10000)/THRESH);
       58       26    1           RETURN;
       59       27    1   END THP$PTOT;

PL6.E3A0      #002=THP$PTOT File=THP$STATS.:E05TSI                               WED 07/30/97 06:16 Page:12
      No diagnostics issued in procedure THP$PTOT.

   Procedure THP$PTOT requires 28 words for executable code.
   Procedure THP$PTOT requires 6 words of local(AUTO) storage.

    No errors detected in file THP$STATS.:E05TSI    .

PL6.E3A0      #002=THP$PTOT File=THP$STATS.:E05TSI                               WED 07/30/97 06:16 Page:13

 Object Unit name= THP$PTOT                                   File name= THP$STATS.:E05TOU
 UTS= JUL 30 '97 06:16:50.36 WED                              Compiler= PL-6/E31         Sev=      00
 SharedLib= :SHARED_SYSTEM                                    Alt SharedLib=


    ****  Control sections  ****

 Sect   Type Bound  Init  Size OctSiz  Section name(segment info)
    0   Proc  even  none    28     34  THP$PTOT

    ****  Entry defs  ****

                              Check   Calling
                             calling  sequence
  Sect OctLoc Primary Altret sequence   type   Parms  Name
     0      0   yes            yes      Std        3  THP$PTOT

  ****  Entry refs  ****

         Check        Calling
        calling       sequence
Altret sequence SRef   type   Args  Name
                       nStd      0 X66_AUTO_3
                       nStd      0 X66_ARET
PL6.E3A0      #002=THP$PTOT File=THP$STATS.:E05TSI                               WED 07/30/97 06:16 Page:14


       33        1        /*T***********************************************************/
       34        2        /*T*                                                         */
       35        3        /*T* Copyright (c) Bull HN Information Systems Inc., 1997    */
       36        4        /*T*                                                         */
       37        5        /*T***********************************************************/
       38        6        THP$PTOT: PROC(PVAL,THRESH,PTOT);

      6  0 000000   000000 700200 xent  THP$PTOT     TSX0  ! X66_AUTO_3
         0 000001   000006 000003                    ZERO    6,3

       39        7        /**/
       40        8        /* PARAMS */
       41        9    1   DCL PVAL SBIN WORD;
       42       10    1   DCL THRESH SBIN WORD;
       43       11    1   DCL PTOT SBIN WORD;
       44       12        /**/
       45       13    1           IF (THRESH = 0 AND PVAL = 0)

     13  0 000002   200004 470500                    LDP0    @THRESH,,AUTO
         0 000003   000000 235100                    LDA     0,,PR0
         0 000004   000013 601000 0                  TNZ     s:19
         0 000005   200003 471500                    LDP1    @PVAL,,AUTO
         0 000006   100000 235100                    LDA     0,,PR1
         0 000007   000013 601000 0                  TNZ     s:19

       46       14    1              THEN
       47       15    2              DO;

       48       16    2                 PTOT = 0;

     16  0 000010   200005 473500                    LDP3    @PTOT,,AUTO
         0 000011   300000 450100                    STZ     0,,PR3

       49       17    2                 RETURN;

     17  0 000012   000000 702200 xent               TSX2  ! X66_ARET
PL6.E3A0      #002=THP$PTOT File=THP$STATS.:E05TSI                               WED 07/30/97 06:16 Page:15

       50       18    2              END;
       51       19    1           IF (THRESH = 0 AND PVAL > 0)

     19  0 000013   000000 235100                    LDA     0,,PR0
         0 000014   000024 601000 0                  TNZ     s:25
         0 000015   200003 471500                    LDP1    @PVAL,,AUTO
         0 000016   100000 235100                    LDA     0,,PR1
         0 000017   000024 604400 0                  TMOZ    s:25

       52       20    1              THEN
       53       21    2              DO;

       54       22    2                 PTOT = 10000;

     22  0 000020   023420 236007                    LDQ     10000,DL
         0 000021   200005 473500                    LDP3    @PTOT,,AUTO
         0 000022   300000 756100                    STQ     0,,PR3

       55       23    2                 RETURN;

     23  0 000023   000000 702200 xent               TSX2  ! X66_ARET

       56       24    2              END;
       57       25    1           PTOT = (((PVAL - THRESH) * 10000)/THRESH);

     25  0 000024   200003 471500                    LDP1    @PVAL,,AUTO
         0 000025   100000 236100                    LDQ     0,,PR1
         0 000026   000000 136100                    SBLQ    0,,PR0
         0 000027   023420 402007                    MPY     10000,DL
         0 000030   000000 506100                    DIV     0,,PR0
         0 000031   200005 473500                    LDP3    @PTOT,,AUTO
         0 000032   300000 756100                    STQ     0,,PR3

       58       26    1           RETURN;

     26  0 000033   000000 702200 xent               TSX2  ! X66_ARET
PL6.E3A0      #002=THP$PTOT File=THP$STATS.:E05TSI                               WED 07/30/97 06:16 Page:16
       59       27    1   END THP$PTOT;

PL6.E3A0      #002=THP$PTOT File=THP$STATS.:E05TSI                               WED 07/30/97 06:16 Page:17
      No diagnostics issued in procedure THP$PTOT.
PL6.E3A0      #002=THP$PTOT File=THP$STATS.:E05TSI                               WED 07/30/97 06:16 Page:18

 **** Variables and constants ****

  ****  Auto variables  ****

  ****  Scalars and arrays  ****
OctLoc.c.b A Datatyp(siz) R M Lvl/name                 OctLoc.c.b A Datatyp(siz) R M Lvl/name

     5-0-0/w PTR         r     1 @PTOT                      3-0-0/w PTR         r     1 @PVAL
     4-0-0/w PTR         r     1 @THRESH                   *0-0-0/w SBIN        r     1 PTOT
    *0-0-0/w SBIN        r     1 PVAL                      *0-0-0/w SBIN        r     1 THRESH


   Procedure THP$PTOT requires 28 words for executable code.
   Procedure THP$PTOT requires 6 words of local(AUTO) storage.

    No errors detected in file THP$STATS.:E05TSI    .
PL6.E3A0      #002=THP$PTOT File=THP$STATS.:E05TSI                               WED 07/30/97 06:16 Page:19
          *** CROSS REFERENCE LISTING ***
**     DENOTES     IDENTIFIER DEFINITION
<<                 IDENTIFIER'S VALUE SET
>>                 IDENTIFIER'S VALUE USED
<>                 IDENTIFIER SET AND/OR USED
--                 IDENTIFIER REFERENCED
PL6.E3A0      #002=THP$PTOT File=THP$STATS.:E05TSI                               WED 07/30/97 06:16 Page:20
          MINI XREF LISTING

PTOT
        11**DCL         6--PROC       16<<ASSIGN     22<<ASSIGN     25<<ASSIGN
PVAL
         9**DCL         6--PROC       13>>IF         19>>IF         25>>ASSIGN
THRESH
        10**DCL         6--PROC       13>>IF         19>>IF         25>>ASSIGN     25>>ASSIGN
