VERSION E05

PL6.E3A0      #001=THW$WRITE File=THW$WRITE.:E05TSI                              WED 07/30/97 06:17 Page:1
        1        1        /*M* THW$WRITE - WRITE ROUTINE FOR ELAN */
        2        2        /*T***********************************************************/
        3        3        /*T*                                                         */
        4        4        /*T* Copyright (c) Bull HN Information Systems Inc., 1997    */
        5        5        /*T*                                                         */
        6        6        /*T***********************************************************/
        7        7        THW$WRITE: PROC(FORMAT_VEC,DV1,DV2,DV3,DV4,DV5,DV6,DV7,DV8,DV9,DV10);
        8        8        /**/
        9        9        /* PARAMS */
       10       10    1   DCL FORMAT_VEC BIT(72) DALIGNED;
       11       11    1   DCL DV1 BIT(72) DALIGNED;
       12       12    1   DCL DV2 BIT(72) DALIGNED;
       13       13    1   DCL DV3 BIT(72) DALIGNED;
       14       14    1   DCL DV4 BIT(72) DALIGNED;
       15       15    1   DCL DV5 BIT(72) DALIGNED;
       16       16    1   DCL DV6 BIT(72) DALIGNED;
       17       17    1   DCL DV7 BIT(72) DALIGNED;
       18       18    1   DCL DV8 BIT(72) DALIGNED;
       19       19    1   DCL DV9 BIT(72) DALIGNED;
       20       20    1   DCL DV10 BIT(72) DALIGNED;
       21       21        /**/
       22       22        /* INCLUDE FILES */
       23       23        %INCLUDE CP_6;
       24      104        %INCLUDE XU_FORMAT_C;
       25      266        %INCLUDE F$DCB;
       26      315        %INCLUDE TH_SUBS_C;
       27      697        %INCLUDE TH_DATA_R;
       28      775        /**/
       29      776        /* VARIABLES */
       30      777    1   DCL TH_OUTBUF CHAR(100) STATIC SYMDEF INIT(' ');
       31      778    1   DCL I UBIN;
       32      779    1   DCL DATA_VEC(0:9) BIT(72) STATIC INIT(VECTOR(NIL)*0);
       33      780    1   DCL OUTPUT_DCB# UBIN SYMREF;
       34      781        /**/
       35      782        /* ENTRY DEFS */
       36      783    1   DCL X$FORMAT ENTRY(1);
       37      784        /**/
PL6.E3A0      #001=THW$WRITE File=THW$WRITE.:E05TSI                              WED 07/30/97 06:17 Page:2
       38      785        /* MACROS */
       39      786        %F_FDS (NAME=FDS,
       40      787                TRUNC=NO,
       41      788                BUF=TH_OUTBUF,
       42      789                VECTR=DATA_VEC);
       43      902        /**/
       44      903        %EJECT;
PL6.E3A0      #001=THW$WRITE File=THW$WRITE.:E05TSI                              WED 07/30/97 06:17 Page:3
       45      904    1        FDS.DCB# = OUTPUT_DCB#;
       46      905    1        FDS.FMT_ = FORMAT_VEC;
       47      906    1        IF ADDR(DV1) ~= ADDR(NIL)
       48      907    1           THEN DATA_VEC(0) = DV1;
       49      908    1        IF ADDR(DV2) ~= ADDR(NIL)
       50      909    1           THEN DATA_VEC(1) = DV2;
       51      910    1        IF ADDR(DV3) ~= ADDR(NIL)
       52      911    1           THEN DATA_VEC(2) = DV3;
       53      912    1        IF ADDR(DV4) ~= ADDR(NIL)
       54      913    1           THEN DATA_VEC(3) = DV4;
       55      914    1        IF ADDR(DV5) ~= ADDR(NIL)
       56      915    1           THEN DATA_VEC(4) = DV5;
       57      916    1        IF ADDR(DV6) ~= ADDR(NIL)
       58      917    1           THEN DATA_VEC(5) = DV6;
       59      918    1        IF ADDR(DV7) ~= ADDR(NIL)
       60      919    1           THEN DATA_VEC(6) = DV7;
       61      920    1        IF ADDR(DV8) ~= ADDR(NIL)
       62      921    1           THEN DATA_VEC(7) = DV8;
       63      922    1        IF ADDR(DV9) ~= ADDR(NIL)
       64      923    1           THEN DATA_VEC(8) = DV9;
       65      924    1        IF ADDR(DV10) ~= ADDR(NIL)
       66      925    1           THEN DATA_VEC(9) = DV10;
       67      926    1        I = 0;
       68      927    2        DO WHILE(DATA_VEC(I) ~= VECTOR(NIL) AND I < 10);
       69      928    2           I = I + 1;
       70      929    2        END;                               /* DO WHILE                           */
       71      930    1        FDS.NVECS# = I;
       72      931    1        FDS.BUF_.BOUND = DCBADDR( OUTPUT_DCB#)->F$DCB.WIDTH;
       73      932    1   IF (FDS.BUF_.BOUND = 0 OR FDS.BUF_.BOUND > 100)
       74      933    1          THEN FDS.BUF_.BOUND = 100;
       75      934    1        CALL X$FORMAT(FDS);
       76      935    1   END THW$WRITE;

PL6.E3A0      #001=THW$WRITE File=THW$WRITE.:E05TSI                              WED 07/30/97 06:17 Page:4
--  Include file information  --

   TH_DATA_R.:E05TOU  cannot be made into a system file and is referenced.
   B_STRINGS_C.:E05TOU  is referenced.
   TH_SUBS_C.:E05TOU  is referenced.
   F$DCB.:E05TOU  cannot be made into a system file and is referenced.
   XU_FORMAT_C.:E05TOU  is referenced.
   CP_6.:E05TOU  cannot be made into a system file and is referenced.
   B$JIT_C.:E05TOU  was found in the system file and is never referenced.
   CP_6_C.:E05TOU  was found in the system file and is referenced.
      No diagnostics issued in procedure THW$WRITE.

   Procedure THW$WRITE requires 120 words for executable code.
   Procedure THW$WRITE requires 16 words of local(AUTO) storage.

    No errors detected in file THW$WRITE.:E05TSI    .

PL6.E3A0      #001=THW$WRITE File=THW$WRITE.:E05TSI                              WED 07/30/97 06:17 Page:5

 Object Unit name= THW$WRITE                                  File name= THW$WRITE.:E05TOU
 UTS= JUL 30 '97 06:17:13.24 WED                              Compiler= PL-6/E31         Sev=      00
 SharedLib= :SHARED_SYSTEM                                    Alt SharedLib=


    ****  Control sections  ****

 Sect   Type Bound  Init  Size OctSiz  Section name(segment info)
    0   DCB   even  none     0      0  M$UC
    1   Data  even  none    75    113  THW$WRITE
    2   Proc  even  none   120    170  THW$WRITE
    3  RoData even  none     5      5  THW$WRITE

    ****  Entry defs  ****

                              Check   Calling
                             calling  sequence
  Sect OctLoc Primary Altret sequence   type   Parms  Name
     2      0   yes            yes      Std       11  THW$WRITE

  ****  Data defs  ****

 Sect OctLoc  Name                           Sect OctLoc  Name
    1      0  TH_OUTBUF

  ****  Entry refs  ****

         Check        Calling
        calling       sequence
Altret sequence SRef   type   Args  Name
         yes           Std       1 X$FORMAT
                       nStd      0 X66_AUTO_N
                       Std       0 B_CONSPOOL_D
                       nStd      0 X66_ARET
PL6.E3A0      #001=THW$WRITE File=THW$WRITE.:E05TSI                              WED 07/30/97 06:17 Page:6

  ****  Data refs  ****

  Flags:  r = read only, s = secondary
Flgs Name                             Flgs Name                             Flgs Name
     M$UC                                  TH_XSA_BUF_VECTOR                     OUTPUT_DCB#
     B_VECTNIL

  ****  Segment refs  ****

  Flags:  r = read only, s = secondary
Flgs Name                             Flgs Name                             Flgs Name
     NULLSID                               ISSID                                 ROSID
PL6.E3A0      #001=THW$WRITE File=THW$WRITE.:E05TSI                              WED 07/30/97 06:17 Page:7


        1        1        /*M* THW$WRITE - WRITE ROUTINE FOR ELAN */
        2        2        /*T***********************************************************/
        3        3        /*T*                                                         */
        4        4        /*T* Copyright (c) Bull HN Information Systems Inc., 1997    */
        5        5        /*T*                                                         */
        6        6        /*T***********************************************************/
        7        7        THW$WRITE: PROC(FORMAT_VEC,DV1,DV2,DV3,DV4,DV5,DV6,DV7,DV8,DV9,DV10);

      7  2 000000   000000 700200 xent  THW$WRITE    TSX0  ! X66_AUTO_N
         2 000001   000020 000013                    ZERO    16,11

        8        8        /**/
        9        9        /* PARAMS */
       10       10    1   DCL FORMAT_VEC BIT(72) DALIGNED;
       11       11    1   DCL DV1 BIT(72) DALIGNED;
       12       12    1   DCL DV2 BIT(72) DALIGNED;
       13       13    1   DCL DV3 BIT(72) DALIGNED;
       14       14    1   DCL DV4 BIT(72) DALIGNED;
       15       15    1   DCL DV5 BIT(72) DALIGNED;
       16       16    1   DCL DV6 BIT(72) DALIGNED;
       17       17    1   DCL DV7 BIT(72) DALIGNED;
       18       18    1   DCL DV8 BIT(72) DALIGNED;
       19       19    1   DCL DV9 BIT(72) DALIGNED;
       20       20    1   DCL DV10 BIT(72) DALIGNED;
       21       21        /**/
       22       22        /* INCLUDE FILES */
       23       23        %INCLUDE CP_6;
       24      104        %INCLUDE XU_FORMAT_C;
       25      266        %INCLUDE F$DCB;
       26      315        %INCLUDE TH_SUBS_C;
       27      697        %INCLUDE TH_DATA_R;
       28      775        /**/
       29      776        /* VARIABLES */
       30      777    1   DCL TH_OUTBUF CHAR(100) STATIC SYMDEF INIT(' ');
       31      778    1   DCL I UBIN;
       32      779    1   DCL DATA_VEC(0:9) BIT(72) STATIC INIT(VECTOR(NIL)*0);
PL6.E3A0      #001=THW$WRITE File=THW$WRITE.:E05TSI                              WED 07/30/97 06:17 Page:8
       33      780    1   DCL OUTPUT_DCB# UBIN SYMREF;
       34      781        /**/
       35      782        /* ENTRY DEFS */
       36      783    1   DCL X$FORMAT ENTRY(1);
       37      784        /**/
       38      785        /* MACROS */
       39      786        %F_FDS (NAME=FDS,
       40      787                TRUNC=NO,
       41      788                BUF=TH_OUTBUF,
       42      789                VECTR=DATA_VEC);
       43      902        /**/
       44      903        %EJECT;
PL6.E3A0      #001=THW$WRITE File=THW$WRITE.:E05TSI                              WED 07/30/97 06:17 Page:9
       45      904    1        FDS.DCB# = OUTPUT_DCB#;

    904  2 000002   000000 720000 xsym               LXL0    OUTPUT_DCB#
         2 000003   000070 740000 1                  STX0    FDS+11

       46      905    1        FDS.FMT_ = FORMAT_VEC;

    905  2 000004   200003 470500                    LDP0    @FORMAT_VEC,,AUTO
         2 000005   000000 237100                    LDAQ    0,,PR0
         2 000006   000055 755000 1                  STA     FDS
         2 000007   000056 756000 1                  STQ     FDS+1

       47      906    1        IF ADDR(DV1) ~= ADDR(NIL)

    906  2 000010   200004 236100                    LDQ     @DV1,,AUTO
         2 000011   000001 116000 xsym               CMPQ    B_VECTNIL+1
         2 000012   000017 600000 2                  TZE     s:908

       48      907    1           THEN DATA_VEC(0) = DV1;

    907  2 000013   200004 471500                    LDP1    @DV1,,AUTO
         2 000014   100000 237100                    LDAQ    0,,PR1
         2 000015   000031 755000 1                  STA     DATA_VEC
         2 000016   000032 756000 1                  STQ     DATA_VEC+1

       49      908    1        IF ADDR(DV2) ~= ADDR(NIL)

    908  2 000017   200005 236100                    LDQ     @DV2,,AUTO
         2 000020   000001 116000 xsym               CMPQ    B_VECTNIL+1
         2 000021   000026 600000 2                  TZE     s:910

       50      909    1           THEN DATA_VEC(1) = DV2;

    909  2 000022   200005 471500                    LDP1    @DV2,,AUTO
         2 000023   100000 237100                    LDAQ    0,,PR1
         2 000024   000033 755000 1                  STA     DATA_VEC+2
         2 000025   000034 756000 1                  STQ     DATA_VEC+3
PL6.E3A0      #001=THW$WRITE File=THW$WRITE.:E05TSI                              WED 07/30/97 06:17 Page:10

       51      910    1        IF ADDR(DV3) ~= ADDR(NIL)

    910  2 000026   200006 236100                    LDQ     @DV3,,AUTO
         2 000027   000001 116000 xsym               CMPQ    B_VECTNIL+1
         2 000030   000035 600000 2                  TZE     s:912

       52      911    1           THEN DATA_VEC(2) = DV3;

    911  2 000031   200006 471500                    LDP1    @DV3,,AUTO
         2 000032   100000 237100                    LDAQ    0,,PR1
         2 000033   000035 755000 1                  STA     DATA_VEC+4
         2 000034   000036 756000 1                  STQ     DATA_VEC+5

       53      912    1        IF ADDR(DV4) ~= ADDR(NIL)

    912  2 000035   200007 236100                    LDQ     @DV4,,AUTO
         2 000036   000001 116000 xsym               CMPQ    B_VECTNIL+1
         2 000037   000044 600000 2                  TZE     s:914

       54      913    1           THEN DATA_VEC(3) = DV4;

    913  2 000040   200007 471500                    LDP1    @DV4,,AUTO
         2 000041   100000 237100                    LDAQ    0,,PR1
         2 000042   000037 755000 1                  STA     DATA_VEC+6
         2 000043   000040 756000 1                  STQ     DATA_VEC+7

       55      914    1        IF ADDR(DV5) ~= ADDR(NIL)

    914  2 000044   200010 236100                    LDQ     @DV5,,AUTO
         2 000045   000001 116000 xsym               CMPQ    B_VECTNIL+1
         2 000046   000053 600000 2                  TZE     s:916

       56      915    1           THEN DATA_VEC(4) = DV5;

    915  2 000047   200010 471500                    LDP1    @DV5,,AUTO
         2 000050   100000 237100                    LDAQ    0,,PR1
PL6.E3A0      #001=THW$WRITE File=THW$WRITE.:E05TSI                              WED 07/30/97 06:17 Page:11
         2 000051   000041 755000 1                  STA     DATA_VEC+8
         2 000052   000042 756000 1                  STQ     DATA_VEC+9

       57      916    1        IF ADDR(DV6) ~= ADDR(NIL)

    916  2 000053   200011 236100                    LDQ     @DV6,,AUTO
         2 000054   000001 116000 xsym               CMPQ    B_VECTNIL+1
         2 000055   000062 600000 2                  TZE     s:918

       58      917    1           THEN DATA_VEC(5) = DV6;

    917  2 000056   200011 471500                    LDP1    @DV6,,AUTO
         2 000057   100000 237100                    LDAQ    0,,PR1
         2 000060   000043 755000 1                  STA     DATA_VEC+10
         2 000061   000044 756000 1                  STQ     DATA_VEC+11

       59      918    1        IF ADDR(DV7) ~= ADDR(NIL)

    918  2 000062   200012 236100                    LDQ     @DV7,,AUTO
         2 000063   000001 116000 xsym               CMPQ    B_VECTNIL+1
         2 000064   000071 600000 2                  TZE     s:920

       60      919    1           THEN DATA_VEC(6) = DV7;

    919  2 000065   200012 471500                    LDP1    @DV7,,AUTO
         2 000066   100000 237100                    LDAQ    0,,PR1
         2 000067   000045 755000 1                  STA     DATA_VEC+12
         2 000070   000046 756000 1                  STQ     DATA_VEC+13

       61      920    1        IF ADDR(DV8) ~= ADDR(NIL)

    920  2 000071   200013 236100                    LDQ     @DV8,,AUTO
         2 000072   000001 116000 xsym               CMPQ    B_VECTNIL+1
         2 000073   000100 600000 2                  TZE     s:922

       62      921    1           THEN DATA_VEC(7) = DV8;

PL6.E3A0      #001=THW$WRITE File=THW$WRITE.:E05TSI                              WED 07/30/97 06:17 Page:12
    921  2 000074   200013 471500                    LDP1    @DV8,,AUTO
         2 000075   100000 237100                    LDAQ    0,,PR1
         2 000076   000047 755000 1                  STA     DATA_VEC+14
         2 000077   000050 756000 1                  STQ     DATA_VEC+15

       63      922    1        IF ADDR(DV9) ~= ADDR(NIL)

    922  2 000100   200014 236100                    LDQ     @DV9,,AUTO
         2 000101   000001 116000 xsym               CMPQ    B_VECTNIL+1
         2 000102   000107 600000 2                  TZE     s:924

       64      923    1           THEN DATA_VEC(8) = DV9;

    923  2 000103   200014 471500                    LDP1    @DV9,,AUTO
         2 000104   100000 237100                    LDAQ    0,,PR1
         2 000105   000051 755000 1                  STA     DATA_VEC+16
         2 000106   000052 756000 1                  STQ     DATA_VEC+17

       65      924    1        IF ADDR(DV10) ~= ADDR(NIL)

    924  2 000107   200015 236100                    LDQ     @DV10,,AUTO
         2 000110   000001 116000 xsym               CMPQ    B_VECTNIL+1
         2 000111   000116 600000 2                  TZE     s:926

       66      925    1           THEN DATA_VEC(9) = DV10;

    925  2 000112   200015 471500                    LDP1    @DV10,,AUTO
         2 000113   100000 237100                    LDAQ    0,,PR1
         2 000114   000053 755000 1                  STA     DATA_VEC+18
         2 000115   000054 756000 1                  STQ     DATA_VEC+19

       67      926    1        I = 0;

    926  2 000116   200016 450100                    STZ     I,,AUTO

       68      927    2        DO WHILE(DATA_VEC(I) ~= VECTOR(NIL) AND I < 10);

PL6.E3A0      #001=THW$WRITE File=THW$WRITE.:E05TSI                              WED 07/30/97 06:17 Page:13
    927  2 000117   000123 710000 2                  TRA     s:929

       69      928    2           I = I + 1;

    928  2 000120   200016 235100                    LDA     I,,AUTO
         2 000121   000001 035007                    ADLA    1,DL
         2 000122   200016 755100                    STA     I,,AUTO

       70      929    2        END;                               /* DO WHILE                           */

    929  2 000123   200016 235100                    LDA     I,,AUTO
         2 000124   000003 735000                    ALS     3
         2 000125   000000 106405                    CMPC    fill='000'O
         2 000126   000031 000010 1                  ADSC9   DATA_VEC,A               cn=0,n=8
         2 000127   000000 000010 3                  ADSC9   0                        cn=0,n=8
         2 000130   000134 600000 2                  TZE     s:930
         2 000131   200016 236100                    LDQ     I,,AUTO
         2 000132   000012 116007                    CMPQ    10,DL
         2 000133   000120 602000 2                  TNC     s:928

       71      930    1        FDS.NVECS# = I;

    930  2 000134   200016 236100                    LDQ     I,,AUTO
         2 000135   000066 756000 1                  STQ     FDS+9

       72      931    1        FDS.BUF_.BOUND = DCBADDR( OUTPUT_DCB#)->F$DCB.WIDTH;

    931  2 000136   000002 470400 3                  LDP0    2
         2 000137   000000 471500                    LDP1    0,,PR0
         2 000140   000000 720000 xsym               LXL0    OUTPUT_DCB#
         2 000141   100000 473510                    LDP3    0,X0,PR1
         2 000142   300004 236100                    LDQ     4,,PR3
         2 000143   000777 376007                    ANQ     511,DL
         2 000144   000020 736000                    QLS     16
         2 000145   000062 676000 1                  ERQ     FDS+5
         2 000146   000034 376000 xsym               ANQ     B_VECTNIL+28
         2 000147   000062 656000 1                  ERSQ    FDS+5
PL6.E3A0      #001=THW$WRITE File=THW$WRITE.:E05TSI                              WED 07/30/97 06:17 Page:14

       73      932    1   IF (FDS.BUF_.BOUND = 0 OR FDS.BUF_.BOUND > 100)

    932  2 000150   000062 236000 1                  LDQ     FDS+5
         2 000151   000034 316000 xsym               CANQ    B_VECTNIL+28
         2 000152   000157 600000 2                  TZE     s:933
         2 000153   000062 236000 1                  LDQ     FDS+5
         2 000154   000034 376000 xsym               ANQ     B_VECTNIL+28
         2 000155   000003 116000 3                  CMPQ    3
         2 000156   000163 602000 2                  TNC     s:934

       74      933    1          THEN FDS.BUF_.BOUND = 100;

    933  2 000157   000062 236000 1                  LDQ     FDS+5
         2 000160   177777 376007                    ANQ     65535,DL
         2 000161   000031 276003                    ORQ     25,DU
         2 000162   000062 756000 1                  STQ     FDS+5

       75      934    1        CALL X$FORMAT(FDS);

    934  2 000163   000004 630400 3                  EPPR0   4
         2 000164   000017 631400 xsym               EPPR1   B_VECTNIL+15
         2 000165   000000 701000 xent               TSX1    X$FORMAT
         2 000166   000000 011000                    NOP     0

       76      935    1   END THW$WRITE;

    935  2 000167   000000 702200 xent               TSX2  ! X66_ARET

PL6.E3A0      #001=THW$WRITE File=THW$WRITE.:E05TSI                              WED 07/30/97 06:17 Page:15
--  Include file information  --

   TH_DATA_R.:E05TOU  cannot be made into a system file and is referenced.
   B_STRINGS_C.:E05TOU  is referenced.
   TH_SUBS_C.:E05TOU  is referenced.
   F$DCB.:E05TOU  cannot be made into a system file and is referenced.
   XU_FORMAT_C.:E05TOU  is referenced.
   CP_6.:E05TOU  cannot be made into a system file and is referenced.
   B$JIT_C.:E05TOU  was found in the system file and is never referenced.
   CP_6_C.:E05TOU  was found in the system file and is referenced.
      No diagnostics issued in procedure THW$WRITE.
PL6.E3A0      #001=THW$WRITE File=THW$WRITE.:E05TSI                              WED 07/30/97 06:17 Page:16

 **** Variables and constants ****

  ****  Section 001  Data  THW$WRITE

  ****  Scalars and arrays  ****
OctLoc.c.b A Datatyp(siz) R M Lvl/name                 OctLoc.c.b A Datatyp(siz) R M Lvl/name

    31-0-0/b BIT (72)    r     1 DATA_VEC(0:9)
    55-0-0/w STRC(1080)  r     1 FDS                        0-0-0/c CHAR(100)   r     1 TH_OUTBUF

  ****  Auto variables  ****

  ****  Scalars and arrays  ****
OctLoc.c.b A Datatyp(siz) R M Lvl/name                 OctLoc.c.b A Datatyp(siz) R M Lvl/name

     4-0-0/w PTR         r     1 @DV1                      15-0-0/w PTR         r     1 @DV10
     5-0-0/w PTR         r     1 @DV2                       6-0-0/w PTR         r     1 @DV3
     7-0-0/w PTR         r     1 @DV4                      10-0-0/w PTR         r     1 @DV5
    11-0-0/w PTR         r     1 @DV6                      12-0-0/w PTR         r     1 @DV7
    13-0-0/w PTR         r     1 @DV8                      14-0-0/w PTR         r     1 @DV9
     3-0-0/w PTR         r     1 @FORMAT_VEC               *0-0-0/d BIT (72)    r     1 DV1
    *0-0-0/d BIT (72)    r     1 DV10                      *0-0-0/d BIT (72)    r     1 DV2
    *0-0-0/d BIT (72)    r     1 DV3                       *0-0-0/d BIT (72)    r     1 DV4
    *0-0-0/d BIT (72)    r     1 DV5                       *0-0-0/d BIT (72)    r     1 DV6
    *0-0-0/d BIT (72)    r     1 DV7                       *0-0-0/d BIT (72)    r     1 DV8
    *0-0-0/d BIT (72)    r     1 DV9                       *0-0-0/d BIT (72)    r     1 FORMAT_VEC
    16-0-0/w UBIN        r     1 I

  ****  SYMREF variables  ****

  ****  Scalars and arrays  ****
OctLoc.c.b A Datatyp(siz) R M Lvl/name                 OctLoc.c.b A Datatyp(siz) R M Lvl/name

     0-0-0/w UBIN        r     1 OUTPUT_DCB#

  ****  BASED and DCB variables  ****

PL6.E3A0      #001=THW$WRITE File=THW$WRITE.:E05TSI                              WED 07/30/97 06:17 Page:17
  ****  Scalars and arrays  ****
OctLoc.c.b A Datatyp(siz) R M Lvl/name                 OctLoc.c.b A Datatyp(siz) R M Lvl/name

     0-0-0/d ASTR(3528)  r     1 F$DCB


   Procedure THW$WRITE requires 120 words for executable code.
   Procedure THW$WRITE requires 16 words of local(AUTO) storage.

    No errors detected in file THW$WRITE.:E05TSI    .
PL6.E3A0      #001=THW$WRITE File=THW$WRITE.:E05TSI                              WED 07/30/97 06:17 Page:18
          *** CROSS REFERENCE LISTING ***
**     DENOTES     IDENTIFIER DEFINITION
<<                 IDENTIFIER'S VALUE SET
>>                 IDENTIFIER'S VALUE USED
<>                 IDENTIFIER SET AND/OR USED
--                 IDENTIFIER REFERENCED
PL6.E3A0      #001=THW$WRITE File=THW$WRITE.:E05TSI                              WED 07/30/97 06:17 Page:19
          MINI XREF LISTING

DATA_VEC
       779**DCL       833--DCLINIT   907<<ASSIGN    909<<ASSIGN    911<<ASSIGN    913<<ASSIGN    915<<ASSIGN
       917<<ASSIGN    919<<ASSIGN    921<<ASSIGN    923<<ASSIGN    925<<ASSIGN    927>>DOWHILE
DV1
        11**DCL         7--PROC      906--IF        907>>ASSIGN
DV10
        20**DCL         7--PROC      924--IF        925>>ASSIGN
DV2
        12**DCL         7--PROC      908--IF        909>>ASSIGN
DV3
        13**DCL         7--PROC      910--IF        911>>ASSIGN
DV4
        14**DCL         7--PROC      912--IF        913>>ASSIGN
DV5
        15**DCL         7--PROC      914--IF        915>>ASSIGN
DV6
        16**DCL         7--PROC      916--IF        917>>ASSIGN
DV7
        17**DCL         7--PROC      918--IF        919>>ASSIGN
DV8
        18**DCL         7--PROC      920--IF        921>>ASSIGN
DV9
        19**DCL         7--PROC      922--IF        923>>ASSIGN
F$DCB.ACTPOS
       292**DCL       292--REDEF
F$DCB.ARS
       267**DCL       267--REDEF
F$DCB.ATTR
       285**DCL       286--REDEF
F$DCB.BORROW
       300**DCL       300--REDEF     300--REDEF     300--REDEF
F$DCB.DCBNAME.L
PL6.E3A0      #001=THW$WRITE File=THW$WRITE.:E05TSI                              WED 07/30/97 06:17 Page:20
       314**DCL       314--IMP-SIZ
F$DCB.EOMCHAR
       271**DCL       271--REDEF
F$DCB.FLDID
       295**DCL       295--REDEF
F$DCB.FORM$
       289**DCL       289--REDEF
F$DCB.FSECT
       305**DCL       305--REDEF
F$DCB.FSN
       282**DCL       282--REDEF     282--REDEF     283--REDEF
F$DCB.HEADER$
       288**DCL       288--REDEF
F$DCB.IXTNSIZE
       286**DCL       286--REDEF
F$DCB.LASTSTA$
       276**DCL       276--REDEF
F$DCB.LVL
       301**DCL       301--REDEF
F$DCB.NAME.C
       276**DCL       276--REDEF
F$DCB.NOEOF
       297**DCL       297--REDEF
F$DCB.NRECS
       287**DCL       287--REDEF
F$DCB.NRECX
       306**DCL       306--REDEF
F$DCB.OHDR
       298**DCL       298--REDEF
F$DCB.ORG
       281**DCL       281--REDEF
F$DCB.PRECNO
       304**DCL       304--REDEF
F$DCB.RCSZ
       309**DCL       309--REDEF
F$DCB.RES
PL6.E3A0      #001=THW$WRITE File=THW$WRITE.:E05TSI                              WED 07/30/97 06:17 Page:21
       277**DCL       277--REDEF
F$DCB.SETX
       289**DCL       289--REDEF
F$DCB.TAB$
       288**DCL       289--REDEF
F$DCB.TDA
       303**DCL       303--REDEF
F$DCB.WIDTH
       274**DCL       931>>ASSIGN
F$DCB.WSN
       278**DCL       278--REDEF
FDS
       803**DCL       934<>CALL
FDS.BUF_.BOUND
       821**DCL       931<<ASSIGN    932>>IF        932>>IF        933<<ASSIGN
FDS.DCB#
       836**DCL       904<<ASSIGN
FDS.FMT_
       807**DCL       905<<ASSIGN
FDS.NVECS#
       831**DCL       930<<ASSIGN
FORMAT_VEC
        10**DCL         7--PROC      905>>ASSIGN
I
       778**DCL       926<<ASSIGN    927>>DOWHILE   927>>DOWHILE   928<<ASSIGN    928>>ASSIGN    930>>ASSIGN
OUTPUT_DCB#
       780**DCL       904>>ASSIGN    931--ASSIGN
TH_CONSTRAINTS.E_BY_B
       708**DCL       708--REDEF
TH_CONSTRAINTS.M_BY_B
       707**DCL       707--REDEF
TH_CONSTRAINTS.TYPES
       705**DCL       705--REDEF
TH_DEFAULT.E_BY_B
       716**DCL       716--REDEF
TH_DEFAULT.M_BY_B
PL6.E3A0      #001=THW$WRITE File=THW$WRITE.:E05TSI                              WED 07/30/97 06:17 Page:22
       715**DCL       715--REDEF
TH_DEFAULT.TYPES
       713**DCL       713--REDEF
TH_OUTBUF
       777**DCL       821--DCLINIT   823--DCLINIT
TH_SAVE.E_BY_B
       724**DCL       724--REDEF
TH_SAVE.M_BY_B
       722**DCL       722--REDEF
TH_SAVE.TYPES
       720**DCL       721--REDEF
TH_XSA_BUF_VECTOR
       740**DCL       740--REDEF
X$FORMAT
       783**DCL-ENT   934--CALL
