VERSION E05

PL6.E3A0      #001=TH_DATA_D File=TH_DATA_D.:E05TSI                              WED 07/30/97 06:17 Page:1
        1        1        /*M* STATIC DATA FOR ELAN */
        2        2        /*T***********************************************************/
        3        3        /*T*                                                         */
        4        4        /*T* Copyright (c) Bull HN Information Systems Inc., 1997    */
        5        5        /*T*                                                         */
        6        6        /*T***********************************************************/
        7        7        TH_DATA_D: PROC NOAUTO;
        8        8        /**/
        9        9    1   DCL 1 TH_CONSTRAINTS STATIC SYMDEF DALIGNED,
       10       10    1        2 NTYPES SBIN INIT(0),
       11       11    1        2 TYPES (0:25) UBIN BYTE UNAL INIT(0*0),
       12       12    1        2 TYPESC (0:25) REDEF TYPES CHAR(1),
       13       13    1        2 DEVNM CHAR(8) ALIGNED INIT(' '),
       14       14    1        2 START UBIN WORD ALIGNED INIT(0),
       15       15    1        2 STOP UBIN WORD ALIGNED INIT(BITBIN('777777777777'O)),
       16       16    1       2 M_MAJ UBIN(6) UNAL,
       17       17    1       2 M_MAJ_S BIT(1) UNAL INIT('0'B),
       18       18    1       2 M_SUB BIT(6) UNAL,
       19       19    1       2 M_SUB_S BIT(1) UNAL INIT('0'B),
       20       20    1       2 M_MED CHAR(6),
       21       21    1       2 M_MED_S BIT(1) UNAL INIT('0'B),
       22       22    1       2 M_BY_B(0:35) BIT(8) UNAL,
       23       23    1       2 M_BY_B_VEC (0:287) REDEF M_BY_B BIT(1),
       24       24    1       2 M_BY_B_SET (0:287) BIT(1) INIT('0'B*0),
       25       25    1       2 E_MAJ UBIN(6) UNAL,
       26       26    1       2 E_MAJ_S BIT(1) UNAL INIT('0'B),
       27       27    1       2 E_SUB BIT(6) UNAL,
       28       28    1       2 E_SUB_S BIT(1) UNAL INIT('0'B),
       29       29    1       2 E_MED CHAR(6),
       30       30    1       2 E_MED_S BIT(1) UNAL INIT('0'B),
       31       31    1       2 E_BY_B(0:35) BIT(8) UNAL,
       32       32    1       2 E_BY_B_VEC (0:287) REDEF E_BY_B BIT(1),
       33       33    1       2 E_BY_B_SET (0:287) BIT(1) INIT('0'B*0),
       34       34    1       2 M_FEP CHAR(3),
       35       35    1       2 M_FEP_SET BIT(1) UNAL INIT('0'B),
       36       36    1       2 M_FEP_N UBIN BYTE UNAL,
       37       37    1    2 * CHAR(4),
PL6.E3A0      #001=TH_DATA_D File=TH_DATA_D.:E05TSI                              WED 07/30/97 06:17 Page:2
       38       38    1       2 M_CHAN_SET BIT(1) UNAL INIT('0'B),
       39       39    1       2 E_FEP CHAR(3),
       40       40    1       2 E_FEP_SET BIT(1) UNAL INIT('0'B),
       41       41    1       2 E_FEP_N UBIN BYTE UNAL,
       42       42    1       2 E_CHAN CHAR(4),
       43       43    1       2 E_CHAN_SET BIT(1) UNAL INIT('0'B),
       44       44    1       2 M_COD UBIN(9) UNAL,
       45       45    1       2 M_COD_SET BIT(1) UNAL INIT('0'B),
       46       46    1       2 M_REA UBIN(9) UNAL,
       47       47    1       2 M_REA_SET BIT(1) UNAL INIT('0'B),
       48       48    1       2 M_ACT UBIN(9) UNAL,
       49       49    1       2 M_ACT_SET BIT(1) UNAL INIT('0'B),
       50       50    1       2 E_COD UBIN(9) UNAL,
       51       51    1       2 E_COD_SET BIT(1) UNAL INIT('0'B),
       52       52    1       2 E_REA UBIN(9) UNAL,
       53       53    1       2 E_REA_SET BIT(1) UNAL INIT('0'B),
       54       54    1       2 E_ACT UBIN(9) UNAL,
       55       55    1       2 E_ACT_SET BIT(1) UNAL INIT('0'B),
       56       56    1        2 OCTAL BIT(1) UNAL INIT('0'B),
       57       57    1        2 CROSS BIT(1) UNAL INIT('0'B);
       58       58    1   DCL 1 TH_DEFAULT STATIC SYMDEF DALIGNED,
       59       59    1        2 NTYPES SBIN INIT(0),
       60       60    1        2 TYPES (0:25) UBIN BYTE UNAL INIT(0*0),
       61       61    1        2 TYPESC (0:25) REDEF TYPES CHAR(1),
       62       62    1        2 DEVNM CHAR(8) ALIGNED INIT(' '),
       63       63    1        2 START UBIN WORD ALIGNED INIT(0),
       64       64    1        2 STOP UBIN WORD ALIGNED INIT(BITBIN('777777777777'O)),
       65       65    1       2 M_MAJ UBIN(6) UNAL,
       66       66    1       2 M_MAJ_S BIT(1) UNAL INIT('0'B),
       67       67    1       2 M_SUB BIT(6) UNAL,
       68       68    1       2 M_SUB_S BIT(1) UNAL INIT('0'B),
       69       69    1       2 M_MED CHAR(6),
       70       70    1       2 M_MED_S BIT(1) UNAL INIT('0'B),
       71       71    1       2 M_BY_B(0:35) BIT(8) UNAL,
       72       72    1       2 M_BY_B_VEC (0:287) REDEF M_BY_B BIT(1),
       73       73    1       2 M_BY_B_SET (0:287) BIT(1) INIT('0'B*0),
       74       74    1       2 E_MAJ UBIN(6) UNAL,
PL6.E3A0      #001=TH_DATA_D File=TH_DATA_D.:E05TSI                              WED 07/30/97 06:17 Page:3
       75       75    1       2 E_MAJ_S BIT(1) UNAL INIT('0'B),
       76       76    1       2 E_SUB BIT(6) UNAL,
       77       77    1       2 E_SUB_S BIT(1) UNAL INIT('0'B),
       78       78    1       2 E_MED CHAR(6),
       79       79    1       2 E_MED_S BIT(1) UNAL INIT('0'B),
       80       80    1       2 E_BY_B(0:35) BIT(8) UNAL,
       81       81    1       2 E_BY_B_VEC (0:287) REDEF E_BY_B BIT(1),
       82       82    1       2 E_BY_B_SET (0:287) BIT(1) INIT('0'B*0),
       83       83    1       2 M_FEP CHAR(3),
       84       84    1       2 M_FEP_SET BIT(1) UNAL INIT('0'B),
       85       85    1       2 M_FEP_N UBIN BYTE UNAL,
       86       86    1    2 * CHAR(4),
       87       87    1       2 M_CHAN_SET BIT(1) UNAL INIT('0'B),
       88       88    1       2 E_FEP CHAR(3),
       89       89    1       2 E_FEP_SET BIT(1) UNAL INIT('0'B),
       90       90    1       2 E_FEP_N UBIN BYTE UNAL,
       91       91    1       2 E_CHAN CHAR(4),
       92       92    1       2 E_CHAN_SET BIT(1) UNAL INIT('0'B),
       93       93    1       2 M_COD UBIN(9) UNAL,
       94       94    1       2 M_COD_SET BIT(1) UNAL INIT('0'B),
       95       95    1       2 M_REA UBIN(9) UNAL,
       96       96    1       2 M_REA_SET BIT(1) UNAL INIT('0'B),
       97       97    1       2 M_ACT UBIN(9) UNAL,
       98       98    1       2 M_ACT_SET BIT(1) UNAL INIT('0'B),
       99       99    1       2 E_COD UBIN(9) UNAL,
      100      100    1       2 E_COD_SET BIT(1) UNAL INIT('0'B),
      101      101    1       2 E_REA UBIN(9) UNAL,
      102      102    1       2 E_REA_SET BIT(1) UNAL INIT('0'B),
      103      103    1       2 E_ACT UBIN(9) UNAL,
      104      104    1       2 E_ACT_SET BIT(1) UNAL INIT('0'B),
      105      105    1        2 OCTAL BIT(1) UNAL INIT('0'B),
      106      106    1        2 CROSS BIT(1) UNAL INIT('0'B);
      107      107    1   DCL 1 TH_SAVE STATIC SYMDEF DALIGNED,
      108      108    1        2 NTYPES SBIN INIT(0),
      109      109    1        2 TYPES (0:25) UBIN BYTE UNAL INIT(0*0),
      110      110    1        2 TYPESC (0:25) REDEF TYPES CHAR(1),
      111      111    1        2 DEVNM CHAR(8) ALIGNED INIT(' '),
PL6.E3A0      #001=TH_DATA_D File=TH_DATA_D.:E05TSI                              WED 07/30/97 06:17 Page:4
      112      112    1        2 START UBIN WORD ALIGNED INIT(0),
      113      113    1        2 STOP UBIN WORD ALIGNED INIT(BITBIN('777777777777'O)),
      114      114    1       2 M_MAJ UBIN(6) UNAL,
      115      115    1       2 M_MAJ_S BIT(1) UNAL INIT('0'B),
      116      116    1       2 M_SUB BIT(6) UNAL,
      117      117    1       2 M_SUB_S BIT(1) UNAL INIT('0'B),
      118      118    1       2 M_MED CHAR(6),
      119      119    1       2 M_MED_S BIT(1) UNAL INIT('0'B),
      120      120    1       2 M_BY_B(0:35) BIT(8) UNAL,
      121      121    1       2 M_BY_B_VEC (0:287) REDEF M_BY_B BIT(1),
      122      122    1       2 M_BY_B_SET (0:287) BIT(1) INIT('0'B*0),
      123      123    1       2 E_MAJ UBIN(6) UNAL,
      124      124    1       2 E_MAJ_S BIT(1) UNAL INIT('0'B),
      125      125    1       2 E_SUB BIT(6) UNAL,
      126      126    1       2 E_SUB_S BIT(1) UNAL INIT('0'B),
      127      127    1       2 E_MED CHAR(6),
      128      128    1       2 E_MED_S BIT(1) UNAL INIT('0'B),
      129      129    1       2 E_BY_B(0:35) BIT(8) UNAL,
      130      130    1       2 E_BY_B_VEC (0:287) REDEF E_BY_B BIT(1),
      131      131    1       2 E_BY_B_SET (0:287) BIT(1) INIT('0'B*0),
      132      132    1       2 M_FEP CHAR(3),
      133      133    1       2 M_FEP_SET BIT(1) UNAL INIT('0'B),
      134      134    1       2 M_FEP_N UBIN BYTE UNAL,
      135      135    1    2 * CHAR(4),
      136      136    1       2 M_CHAN_SET BIT(1) UNAL INIT('0'B),
      137      137    1       2 E_FEP CHAR(3),
      138      138    1       2 E_FEP_SET BIT(1) UNAL INIT('0'B),
      139      139    1       2 E_FEP_N UBIN BYTE UNAL,
      140      140    1       2 E_CHAN CHAR(4),
      141      141    1       2 E_CHAN_SET BIT(1) UNAL INIT('0'B),
      142      142    1       2 M_COD UBIN(9) UNAL,
      143      143    1       2 M_COD_SET BIT(1) UNAL INIT('0'B),
      144      144    1       2 M_REA UBIN(9) UNAL,
      145      145    1       2 M_REA_SET BIT(1) UNAL INIT('0'B),
      146      146    1       2 M_ACT UBIN(9) UNAL,
      147      147    1       2 M_ACT_SET BIT(1) UNAL INIT('0'B),
      148      148    1       2 E_COD UBIN(9) UNAL,
PL6.E3A0      #001=TH_DATA_D File=TH_DATA_D.:E05TSI                              WED 07/30/97 06:17 Page:5
      149      149    1       2 E_COD_SET BIT(1) UNAL INIT('0'B),
      150      150    1       2 E_REA UBIN(9) UNAL,
      151      151    1       2 E_REA_SET BIT(1) UNAL INIT('0'B),
      152      152    1       2 E_ACT UBIN(9) UNAL,
      153      153    1       2 E_ACT_SET BIT(1) UNAL INIT('0'B),
      154      154    1        2 OCTAL BIT(1) UNAL INIT('0'B),
      155      155    1        2 CROSS BIT(1) UNAL INIT('0'B);
      156      156    1   DCL TH_ERR_RETURN REMEMBER STATIC SYMDEF;
      157      157    1   DCL 1 TH_ERRCODE STATIC SYMDEF ALIGNED,
      158      158    1        2 FCG BIT(18),
      159      159    1        2 MON BIT(1),
      160      160    1        2 CODE UBIN(14) UNAL,
      161      161    1        2 SEV UBIN(3) UNAL;
      162      162    1   DCL TH_CPOS SBIN STATIC SYMDEF INIT(-1);
      163      163    1   DCL TH_ENDFLAG BIT(1) STATIC SYMDEF INIT('0'B);
      164      164    1   DCL TH_BRKMSG BIT(1) STATIC SYMDEF INIT('0'B);
      165      165    1   DCL TH_PHONY_GHOST BIT(1) STATIC SYMDEF INIT('0'B);
      166      166    1   DCL TH_REBUILD BIT(1) STATIC SYMDEF INIT('0'B);   /* REBUILD OPTION */
      167      167    1   DCL TH_DEVHIST_MODE UBIN WORD STATIC SYMDEF INIT(0);
      168      168    1   DCL TH_NUM_REP_DEVS UBIN WORD STATIC SYMDEF ALIGNED INIT(0);
      169      169    1   DCL TH_REP_DEVS(0:511) CHAR(8) STATIC SYMDEF ALIGNED;
      170      170    1   DCL 1 TH_SYS_DEVS(0:511) STATIC SYMDEF ALIGNED,
      171      171    1         2 DEVN CHAR(8),
      172      172    1         2 MODEL CHAR(8);
      173      173    1   DCL TH_NUM_MODS UBIN WORD STATIC SYMDEF ALIGNED INIT(0);
      174      174    1   DCL TH_NUM_DEVS UBIN WORD STATIC SYMDEF ALIGNED INIT(0);
      175      175    1   DCL TH_CURDATE UBIN WORD STATIC SYMDEF ALIGNED INIT(0);
      176      176    1   DCL TH_FIRST_ERRLG UBIN WORD STATIC SYMDEF ALIGNED INIT(0);
      177      177    1   DCL TH_BOF BIT(1) STATIC SYMDEF INIT('1'B);
      178      178    1   DCL 1 TH_RECORD STATIC SYMDEF DALIGNED,
      179      179    1         2 BOUND UBIN(20) UNAL,
      180      180    1         2 * BIT(16),
      181      181    1         2 PTR$ PTR;
      182      182    1   DCL 1 TH_INFO STATIC SYMDEF DALIGNED,
      183      183    1         2 BOUND UBIN(20) UNAL,
      184      184    1         2 * BIT(16),
      185      185    1         2 PTR$ PTR;
PL6.E3A0      #001=TH_DATA_D File=TH_DATA_D.:E05TSI                              WED 07/30/97 06:17 Page:6
      186      186    1   DCL 1 TH_HDR STATIC SYMDEF DALIGNED,
      187      187    1         2 BOUND UBIN(20) UNAL,
      188      188    1         2 * BIT(16),
      189      189    1         2 PTR$ PTR;
      190      190    1   DCL TH_ITYPE UBIN WORD STATIC SYMDEF ALIGNED;
      191      191    1   DCL TH_LASTTYPE SBIN WORD STATIC SYMDEF ALIGNED INIT(-1);
      192      192    1   DCL TH_LASTUTS UBIN WORD STATIC SYMDEF ALIGNED INIT(0);
      193      193    1   DCL TH_DAY CHAR(3) STATIC SYMDEF;
      194      194    1   DCL TH_DATE CHAR(10) STATIC SYMDEF INIT(' ');
      195      195    1   DCL TH_TIME CHAR(11) STATIC SYMDEF INIT(' ');
      196      196    1   DCL TH_SITE_ID CHAR(6) STATIC SYMDEF ALIGNED INIT(' ');
      197      197    1   DCL TH_LAST_DEVTYPE CHAR(2) STATIC SYMDEF ALIGNED INIT(' ');
      198      198    1   DCL 1 TH_SITE_NAME STATIC SYMDEF ALIGNED,
      199      199    1         2 L UBIN BYTE UNAL INIT(0),
      200      200    1         2 C CHAR(119) INIT(' ');
      201      201    1   DCL 1 TH_LAST_MATCH STATIC SYMDEF ALIGNED,
      202      202    1         2 COUNT UBIN BYTE UNAL INIT(0),
      203      203    1         2 TEXT CHAR(119) INIT(' ');
      204      204    1   DCL 1 TH_LAST_EXCLUDE STATIC SYMDEF ALIGNED,
      205      205    1         2 COUNT UBIN BYTE UNAL INIT(0),
      206      206    1         2 TEXT CHAR(119) INIT(' ');
      207      207    1   DCL TH_LAST_REQID UBIN WORD STATIC SYMDEF INIT(0);
      208      208    1   DCL TH_SAME_REQID BIT(1) STATIC SYMDEF INIT('0'B);
      209      209    1   DCL TH_RECOV BIT(1) STATIC SYMDEF INIT('0'B);
      210      210    1   DCL TH_PROC_FLAG BIT (1) UNAL STATIC SYMDEF INIT('1'B);
      211      211    1   DCL TH_MAXDCTX UBIN WORD STATIC SYMDEF INIT(0);
      212      212    1   DCL TH_DCT$(0:511) PTR STATIC SYMDEF INIT(ADDR(NIL)*0);
      213      213    1   DCL TH_XSA_BUF_VECTOR BIT(72) STATIC SYMDEF INIT(VECTOR(NIL));
      214      214    1   DCL 1 TH_XSA_BUF REDEF TH_XSA_BUF_VECTOR,
      215      215    1         2 BOUND UBIN(20) UNAL,
      216      216    1         2 * BIT(16),
      217      217    1         2 P$ PTR;
      218      218    1   DCL TH_IOERR_M_BY_B_SET BIT(1) STATIC SYMDEF INIT('0'B);
      219      219    1   DCL TH_IOERR_E_BY_B_SET BIT(1) STATIC SYMDEF INIT('0'B);
      220      220    1   DCL TH_IOERR_M_SET BIT(1) STATIC SYMDEF INIT('0'B);
      221      221    1   DCL TH_IOERR_E_SET BIT(1) STATIC SYMDEF INIT('0'B);
      222      222    1   DCL TH_IOERR_M_OR_E_SET BIT(1) STATIC SYMDEF INIT('0'B);
PL6.E3A0      #001=TH_DATA_D File=TH_DATA_D.:E05TSI                              WED 07/30/97 06:17 Page:7
      223      223    1   DCL TH_FEPERR_M_OR_E_SET BIT(1) STATIC SYMDEF INIT('0'B);
      224      224    1   DCL TH_FIERR_M_SET BIT(1) STATIC SYMDEF INIT('0'B);
      225      225    1   DCL TH_FIERR_E_SET BIT(1) STATIC SYMDEF INIT('0'B);
      226      226    1   DCL TH_CHECK_DEVNM BIT(1) STATIC SYMDEF INIT('0'B);
      227      227    1   DCL TH_M$ERRLOG$ PTR STATIC SYMDEF;
      228      228    1   DCL TH_DETAIL_FLG BIT(1) STATIC SYMDEF INIT('1'B);
      229      229    1   DCL TH_RAW_FLG BIT(1) STATIC SYMDEF INIT('0'B);
      230      230    1   DCL TH_IOERR_FLG BIT(1) STATIC SYMDEF INIT('0'B);
      231      231    1   DCL TH_FEPERR_FLG BIT(1) STATIC SYMDEF INIT('0'B);
      232      232    1   DCL TH_FIRST_TIME BIT(1) STATIC SYMDEF INIT('1'B);
      233      233    1   DCL TH_EOF_FLG BIT(1) STATIC SYMDEF INIT('0'B);
      234      234        /* ! ! */
      235      235        %INCLUDE CP_6;
      236     5794        /* !R! */
      237     5795        %VLP_ACCT(FPTN=VLP_SYSTAC,
      238     5796                  ACCT=':SYSTAC',
      239     5797                  STCLASS="STATIC SYMDEF");
      240     5810        %VLP_ACCT(FPTN=DEVHIST_ACCT,
      241     5811                  ACCT=':SYSTAC',
      242     5812                  STCLASS="STATIC SYMDEF");
      243     5825    1   DCL TH_CHANGE_ACCOUNT BIT(1) STATIC SYMDEF INIT('1'B);
      244     5826    1   DCL TH_CHANGE_FILE BIT(1) STATIC SYMDEF INIT('0'B);
      245     5827    1   DCL TH_PRMT_FLAG BIT(1) STATIC SYMDEF INIT('0'B);
      246     5828    1   DCL 1 TH_PRMT STATIC SYMDEF,
      247     5829    1          2 VFC CHAR(1) UNAL,
      248     5830    1          2 TEXT CHAR(30) UNAL;
      249     5831    1   DCL TH_PRMT_SIZE UBIN STATIC SYMDEF;
      250     5832    1   DCL 1 TH_M_CHAN(0:9)  STATIC SYMDEF,
      251     5833    1          2 TEXT CHAR(4),
      252     5834    1          2 FLAG BIT(1);
      253     5835    1   DCL TH_M_CHAN_TOTAL UBIN(5) STATIC SYMDEF INIT(0);
      254     5836    1   END TH_DATA_D;

PL6.E3A0      #001=TH_DATA_D File=TH_DATA_D.:E05TSI                              WED 07/30/97 06:17 Page:8
--  Include file information  --

   CP_6_C.:E05TOU  is referenced.
   CP_6.:E05TOU  cannot be made into a system file and is referenced.
      No diagnostics issued in procedure TH_DATA_D.

   No code generated for procedure TH_DATA_D .
   Procedure TH_DATA_D is declared NOAUTO and requires 3932 words of local(STATIC) storage.

    No errors detected in file TH_DATA_D.:E05TSI    .

PL6.E3A0      #001=TH_DATA_D File=TH_DATA_D.:E05TSI                              WED 07/30/97 06:17 Page:9

 Object Unit name= TH_DATA_D                                  File name= TH_DATA_D.:E05TOU
 UTS= JUL 30 '97 06:17:53.52 WED                              Compiler= PL-6/E31         Sev=      00
 SharedLib= :SHARED_SYSTEM                                    Alt SharedLib=


    ****  Control sections  ****

 Sect   Type Bound  Init  Size OctSiz  Section name(segment info)
    0   Data  even  none  3932   7534  TH_DATA_D
    1   DCB   even  none     0      0  M$UC
    2   Proc  even  none     0      0  TH_DATA_D

    ****  Entry defs  ****

                              Check   Calling
                             calling  sequence
  Sect OctLoc Primary Altret sequence   type   Parms  Name
     2      0   yes            yes     ~proc       0  TH_DATA_D
PL6.E3A0      #001=TH_DATA_D File=TH_DATA_D.:E05TSI                              WED 07/30/97 06:17 Page:10

  ****  Data defs  ****

 Sect OctLoc  Name                           Sect OctLoc  Name
    0      2  TH_CONSTRAINTS                     0     72  TH_DEFAULT
    0    162  TH_SAVE                            0    252  TH_ERR_RETURN
    0    254  TH_ERRCODE                         0    255  TH_CPOS
    0    256  TH_ENDFLAG                         0    257  TH_BRKMSG
    0    260  TH_PHONY_GHOST                     0    261  TH_REBUILD
    0    262  TH_DEVHIST_MODE                    0    263  TH_NUM_REP_DEVS
    0    264  TH_REP_DEVS                        0   2264  TH_SYS_DEVS
    0   6264  TH_NUM_MODS                        0   6265  TH_NUM_DEVS
    0   6266  TH_CURDATE                         0   6267  TH_FIRST_ERRLG
    0   6270  TH_BOF                             0   6272  TH_RECORD
    0   6274  TH_INFO                            0   6276  TH_HDR
    0   6300  TH_ITYPE                           0   6301  TH_LASTTYPE
    0   6302  TH_LASTUTS                         0   6303  TH_DAY
    0   6304  TH_DATE                            0   6307  TH_TIME
    0   6312  TH_SITE_ID                         0   6314  TH_LAST_DEVTYPE
    0   6315  TH_SITE_NAME                       0   6353  TH_LAST_MATCH
    0   6411  TH_LAST_EXCLUDE                    0   6447  TH_LAST_REQID
    0   6450  TH_SAME_REQID                      0   6451  TH_RECOV
    0   6452  TH_PROC_FLAG                       0   6453  TH_MAXDCTX
    0   6454  TH_DCT$                            0   7454  TH_XSA_BUF_VECTOR
    0   7456  TH_IOERR_M_BY_B_SET                0   7457  TH_IOERR_E_BY_B_SET
    0   7460  TH_IOERR_M_SET                     0   7461  TH_IOERR_E_SET
    0   7462  TH_IOERR_M_OR_E_SET                0   7463  TH_FEPERR_M_OR_E_SET
    0   7464  TH_FIERR_M_SET                     0   7465  TH_FIERR_E_SET
    0   7466  TH_CHECK_DEVNM                     0   7467  TH_M$ERRLOG$
    0   7470  TH_DETAIL_FLG                      0   7471  TH_RAW_FLG
    0   7472  TH_IOERR_FLG                       0   7473  TH_FEPERR_FLG
    0   7474  TH_FIRST_TIME                      0   7475  TH_EOF_FLG
    0   7476  VLP_SYSTAC                         0   7500  DEVHIST_ACCT
    0   7502  TH_CHANGE_ACCOUNT                  0   7503  TH_CHANGE_FILE
    0   7504  TH_PRMT_FLAG                       0   7505  TH_PRMT
    0   7515  TH_PRMT_SIZE                       0   7516  TH_M_CHAN
    0   7533  TH_M_CHAN_TOTAL
PL6.E3A0      #001=TH_DATA_D File=TH_DATA_D.:E05TSI                              WED 07/30/97 06:17 Page:11

  ****  Data refs  ****

  Flags:  r = read only, s = secondary
Flgs Name                             Flgs Name                             Flgs Name
     M$UC

  ****  Segment refs  ****

  Flags:  r = read only, s = secondary
Flgs Name                             Flgs Name                             Flgs Name
     NULLSID
PL6.E3A0      #001=TH_DATA_D File=TH_DATA_D.:E05TSI                              WED 07/30/97 06:17 Page:12

        1        1        /*M* STATIC DATA FOR ELAN */
        2        2        /*T***********************************************************/
        3        3        /*T*                                                         */
        4        4        /*T* Copyright (c) Bull HN Information Systems Inc., 1997    */
        5        5        /*T*                                                         */
        6        6        /*T***********************************************************/
        7        7        TH_DATA_D: PROC NOAUTO;
        8        8        /**/
        9        9    1   DCL 1 TH_CONSTRAINTS STATIC SYMDEF DALIGNED,
       10       10    1        2 NTYPES SBIN INIT(0),
       11       11    1        2 TYPES (0:25) UBIN BYTE UNAL INIT(0*0),
       12       12    1        2 TYPESC (0:25) REDEF TYPES CHAR(1),
       13       13    1        2 DEVNM CHAR(8) ALIGNED INIT(' '),
       14       14    1        2 START UBIN WORD ALIGNED INIT(0),
       15       15    1        2 STOP UBIN WORD ALIGNED INIT(BITBIN('777777777777'O)),
       16       16    1       2 M_MAJ UBIN(6) UNAL,
       17       17    1       2 M_MAJ_S BIT(1) UNAL INIT('0'B),
       18       18    1       2 M_SUB BIT(6) UNAL,
       19       19    1       2 M_SUB_S BIT(1) UNAL INIT('0'B),
       20       20    1       2 M_MED CHAR(6),
       21       21    1       2 M_MED_S BIT(1) UNAL INIT('0'B),
       22       22    1       2 M_BY_B(0:35) BIT(8) UNAL,
       23       23    1       2 M_BY_B_VEC (0:287) REDEF M_BY_B BIT(1),
       24       24    1       2 M_BY_B_SET (0:287) BIT(1) INIT('0'B*0),
       25       25    1       2 E_MAJ UBIN(6) UNAL,
       26       26    1       2 E_MAJ_S BIT(1) UNAL INIT('0'B),
       27       27    1       2 E_SUB BIT(6) UNAL,
       28       28    1       2 E_SUB_S BIT(1) UNAL INIT('0'B),
       29       29    1       2 E_MED CHAR(6),
       30       30    1       2 E_MED_S BIT(1) UNAL INIT('0'B),
       31       31    1       2 E_BY_B(0:35) BIT(8) UNAL,
       32       32    1       2 E_BY_B_VEC (0:287) REDEF E_BY_B BIT(1),
       33       33    1       2 E_BY_B_SET (0:287) BIT(1) INIT('0'B*0),
       34       34    1       2 M_FEP CHAR(3),
       35       35    1       2 M_FEP_SET BIT(1) UNAL INIT('0'B),
       36       36    1       2 M_FEP_N UBIN BYTE UNAL,
       37       37    1    2 * CHAR(4),
PL6.E3A0      #001=TH_DATA_D File=TH_DATA_D.:E05TSI                              WED 07/30/97 06:17 Page:13
       38       38    1       2 M_CHAN_SET BIT(1) UNAL INIT('0'B),
       39       39    1       2 E_FEP CHAR(3),
       40       40    1       2 E_FEP_SET BIT(1) UNAL INIT('0'B),
       41       41    1       2 E_FEP_N UBIN BYTE UNAL,
       42       42    1       2 E_CHAN CHAR(4),
       43       43    1       2 E_CHAN_SET BIT(1) UNAL INIT('0'B),
       44       44    1       2 M_COD UBIN(9) UNAL,
       45       45    1       2 M_COD_SET BIT(1) UNAL INIT('0'B),
       46       46    1       2 M_REA UBIN(9) UNAL,
       47       47    1       2 M_REA_SET BIT(1) UNAL INIT('0'B),
       48       48    1       2 M_ACT UBIN(9) UNAL,
       49       49    1       2 M_ACT_SET BIT(1) UNAL INIT('0'B),
       50       50    1       2 E_COD UBIN(9) UNAL,
       51       51    1       2 E_COD_SET BIT(1) UNAL INIT('0'B),
       52       52    1       2 E_REA UBIN(9) UNAL,
       53       53    1       2 E_REA_SET BIT(1) UNAL INIT('0'B),
       54       54    1       2 E_ACT UBIN(9) UNAL,
       55       55    1       2 E_ACT_SET BIT(1) UNAL INIT('0'B),
       56       56    1        2 OCTAL BIT(1) UNAL INIT('0'B),
       57       57    1        2 CROSS BIT(1) UNAL INIT('0'B);
       58       58    1   DCL 1 TH_DEFAULT STATIC SYMDEF DALIGNED,
       59       59    1        2 NTYPES SBIN INIT(0),
       60       60    1        2 TYPES (0:25) UBIN BYTE UNAL INIT(0*0),
       61       61    1        2 TYPESC (0:25) REDEF TYPES CHAR(1),
       62       62    1        2 DEVNM CHAR(8) ALIGNED INIT(' '),
       63       63    1        2 START UBIN WORD ALIGNED INIT(0),
       64       64    1        2 STOP UBIN WORD ALIGNED INIT(BITBIN('777777777777'O)),
       65       65    1       2 M_MAJ UBIN(6) UNAL,
       66       66    1       2 M_MAJ_S BIT(1) UNAL INIT('0'B),
       67       67    1       2 M_SUB BIT(6) UNAL,
       68       68    1       2 M_SUB_S BIT(1) UNAL INIT('0'B),
       69       69    1       2 M_MED CHAR(6),
       70       70    1       2 M_MED_S BIT(1) UNAL INIT('0'B),
       71       71    1       2 M_BY_B(0:35) BIT(8) UNAL,
       72       72    1       2 M_BY_B_VEC (0:287) REDEF M_BY_B BIT(1),
       73       73    1       2 M_BY_B_SET (0:287) BIT(1) INIT('0'B*0),
       74       74    1       2 E_MAJ UBIN(6) UNAL,
PL6.E3A0      #001=TH_DATA_D File=TH_DATA_D.:E05TSI                              WED 07/30/97 06:17 Page:14
       75       75    1       2 E_MAJ_S BIT(1) UNAL INIT('0'B),
       76       76    1       2 E_SUB BIT(6) UNAL,
       77       77    1       2 E_SUB_S BIT(1) UNAL INIT('0'B),
       78       78    1       2 E_MED CHAR(6),
       79       79    1       2 E_MED_S BIT(1) UNAL INIT('0'B),
       80       80    1       2 E_BY_B(0:35) BIT(8) UNAL,
       81       81    1       2 E_BY_B_VEC (0:287) REDEF E_BY_B BIT(1),
       82       82    1       2 E_BY_B_SET (0:287) BIT(1) INIT('0'B*0),
       83       83    1       2 M_FEP CHAR(3),
       84       84    1       2 M_FEP_SET BIT(1) UNAL INIT('0'B),
       85       85    1       2 M_FEP_N UBIN BYTE UNAL,
       86       86    1    2 * CHAR(4),
       87       87    1       2 M_CHAN_SET BIT(1) UNAL INIT('0'B),
       88       88    1       2 E_FEP CHAR(3),
       89       89    1       2 E_FEP_SET BIT(1) UNAL INIT('0'B),
       90       90    1       2 E_FEP_N UBIN BYTE UNAL,
       91       91    1       2 E_CHAN CHAR(4),
       92       92    1       2 E_CHAN_SET BIT(1) UNAL INIT('0'B),
       93       93    1       2 M_COD UBIN(9) UNAL,
       94       94    1       2 M_COD_SET BIT(1) UNAL INIT('0'B),
       95       95    1       2 M_REA UBIN(9) UNAL,
       96       96    1       2 M_REA_SET BIT(1) UNAL INIT('0'B),
       97       97    1       2 M_ACT UBIN(9) UNAL,
       98       98    1       2 M_ACT_SET BIT(1) UNAL INIT('0'B),
       99       99    1       2 E_COD UBIN(9) UNAL,
      100      100    1       2 E_COD_SET BIT(1) UNAL INIT('0'B),
      101      101    1       2 E_REA UBIN(9) UNAL,
      102      102    1       2 E_REA_SET BIT(1) UNAL INIT('0'B),
      103      103    1       2 E_ACT UBIN(9) UNAL,
      104      104    1       2 E_ACT_SET BIT(1) UNAL INIT('0'B),
      105      105    1        2 OCTAL BIT(1) UNAL INIT('0'B),
      106      106    1        2 CROSS BIT(1) UNAL INIT('0'B);
      107      107    1   DCL 1 TH_SAVE STATIC SYMDEF DALIGNED,
      108      108    1        2 NTYPES SBIN INIT(0),
      109      109    1        2 TYPES (0:25) UBIN BYTE UNAL INIT(0*0),
      110      110    1        2 TYPESC (0:25) REDEF TYPES CHAR(1),
      111      111    1        2 DEVNM CHAR(8) ALIGNED INIT(' '),
PL6.E3A0      #001=TH_DATA_D File=TH_DATA_D.:E05TSI                              WED 07/30/97 06:17 Page:15
      112      112    1        2 START UBIN WORD ALIGNED INIT(0),
      113      113    1        2 STOP UBIN WORD ALIGNED INIT(BITBIN('777777777777'O)),
      114      114    1       2 M_MAJ UBIN(6) UNAL,
      115      115    1       2 M_MAJ_S BIT(1) UNAL INIT('0'B),
      116      116    1       2 M_SUB BIT(6) UNAL,
      117      117    1       2 M_SUB_S BIT(1) UNAL INIT('0'B),
      118      118    1       2 M_MED CHAR(6),
      119      119    1       2 M_MED_S BIT(1) UNAL INIT('0'B),
      120      120    1       2 M_BY_B(0:35) BIT(8) UNAL,
      121      121    1       2 M_BY_B_VEC (0:287) REDEF M_BY_B BIT(1),
      122      122    1       2 M_BY_B_SET (0:287) BIT(1) INIT('0'B*0),
      123      123    1       2 E_MAJ UBIN(6) UNAL,
      124      124    1       2 E_MAJ_S BIT(1) UNAL INIT('0'B),
      125      125    1       2 E_SUB BIT(6) UNAL,
      126      126    1       2 E_SUB_S BIT(1) UNAL INIT('0'B),
      127      127    1       2 E_MED CHAR(6),
      128      128    1       2 E_MED_S BIT(1) UNAL INIT('0'B),
      129      129    1       2 E_BY_B(0:35) BIT(8) UNAL,
      130      130    1       2 E_BY_B_VEC (0:287) REDEF E_BY_B BIT(1),
      131      131    1       2 E_BY_B_SET (0:287) BIT(1) INIT('0'B*0),
      132      132    1       2 M_FEP CHAR(3),
      133      133    1       2 M_FEP_SET BIT(1) UNAL INIT('0'B),
      134      134    1       2 M_FEP_N UBIN BYTE UNAL,
      135      135    1    2 * CHAR(4),
      136      136    1       2 M_CHAN_SET BIT(1) UNAL INIT('0'B),
      137      137    1       2 E_FEP CHAR(3),
      138      138    1       2 E_FEP_SET BIT(1) UNAL INIT('0'B),
      139      139    1       2 E_FEP_N UBIN BYTE UNAL,
      140      140    1       2 E_CHAN CHAR(4),
      141      141    1       2 E_CHAN_SET BIT(1) UNAL INIT('0'B),
      142      142    1       2 M_COD UBIN(9) UNAL,
      143      143    1       2 M_COD_SET BIT(1) UNAL INIT('0'B),
      144      144    1       2 M_REA UBIN(9) UNAL,
      145      145    1       2 M_REA_SET BIT(1) UNAL INIT('0'B),
      146      146    1       2 M_ACT UBIN(9) UNAL,
      147      147    1       2 M_ACT_SET BIT(1) UNAL INIT('0'B),
      148      148    1       2 E_COD UBIN(9) UNAL,
PL6.E3A0      #001=TH_DATA_D File=TH_DATA_D.:E05TSI                              WED 07/30/97 06:17 Page:16
      149      149    1       2 E_COD_SET BIT(1) UNAL INIT('0'B),
      150      150    1       2 E_REA UBIN(9) UNAL,
      151      151    1       2 E_REA_SET BIT(1) UNAL INIT('0'B),
      152      152    1       2 E_ACT UBIN(9) UNAL,
      153      153    1       2 E_ACT_SET BIT(1) UNAL INIT('0'B),
      154      154    1        2 OCTAL BIT(1) UNAL INIT('0'B),
      155      155    1        2 CROSS BIT(1) UNAL INIT('0'B);
      156      156    1   DCL TH_ERR_RETURN REMEMBER STATIC SYMDEF;
      157      157    1   DCL 1 TH_ERRCODE STATIC SYMDEF ALIGNED,
      158      158    1        2 FCG BIT(18),
      159      159    1        2 MON BIT(1),
      160      160    1        2 CODE UBIN(14) UNAL,
      161      161    1        2 SEV UBIN(3) UNAL;
      162      162    1   DCL TH_CPOS SBIN STATIC SYMDEF INIT(-1);
      163      163    1   DCL TH_ENDFLAG BIT(1) STATIC SYMDEF INIT('0'B);
      164      164    1   DCL TH_BRKMSG BIT(1) STATIC SYMDEF INIT('0'B);
      165      165    1   DCL TH_PHONY_GHOST BIT(1) STATIC SYMDEF INIT('0'B);
      166      166    1   DCL TH_REBUILD BIT(1) STATIC SYMDEF INIT('0'B);   /* REBUILD OPTION */
      167      167    1   DCL TH_DEVHIST_MODE UBIN WORD STATIC SYMDEF INIT(0);
      168      168    1   DCL TH_NUM_REP_DEVS UBIN WORD STATIC SYMDEF ALIGNED INIT(0);
      169      169    1   DCL TH_REP_DEVS(0:511) CHAR(8) STATIC SYMDEF ALIGNED;
      170      170    1   DCL 1 TH_SYS_DEVS(0:511) STATIC SYMDEF ALIGNED,
      171      171    1         2 DEVN CHAR(8),
      172      172    1         2 MODEL CHAR(8);
      173      173    1   DCL TH_NUM_MODS UBIN WORD STATIC SYMDEF ALIGNED INIT(0);
      174      174    1   DCL TH_NUM_DEVS UBIN WORD STATIC SYMDEF ALIGNED INIT(0);
      175      175    1   DCL TH_CURDATE UBIN WORD STATIC SYMDEF ALIGNED INIT(0);
      176      176    1   DCL TH_FIRST_ERRLG UBIN WORD STATIC SYMDEF ALIGNED INIT(0);
      177      177    1   DCL TH_BOF BIT(1) STATIC SYMDEF INIT('1'B);
      178      178    1   DCL 1 TH_RECORD STATIC SYMDEF DALIGNED,
      179      179    1         2 BOUND UBIN(20) UNAL,
      180      180    1         2 * BIT(16),
      181      181    1         2 PTR$ PTR;
      182      182    1   DCL 1 TH_INFO STATIC SYMDEF DALIGNED,
      183      183    1         2 BOUND UBIN(20) UNAL,
      184      184    1         2 * BIT(16),
      185      185    1         2 PTR$ PTR;
PL6.E3A0      #001=TH_DATA_D File=TH_DATA_D.:E05TSI                              WED 07/30/97 06:17 Page:17
      186      186    1   DCL 1 TH_HDR STATIC SYMDEF DALIGNED,
      187      187    1         2 BOUND UBIN(20) UNAL,
      188      188    1         2 * BIT(16),
      189      189    1         2 PTR$ PTR;
      190      190    1   DCL TH_ITYPE UBIN WORD STATIC SYMDEF ALIGNED;
      191      191    1   DCL TH_LASTTYPE SBIN WORD STATIC SYMDEF ALIGNED INIT(-1);
      192      192    1   DCL TH_LASTUTS UBIN WORD STATIC SYMDEF ALIGNED INIT(0);
      193      193    1   DCL TH_DAY CHAR(3) STATIC SYMDEF;
      194      194    1   DCL TH_DATE CHAR(10) STATIC SYMDEF INIT(' ');
      195      195    1   DCL TH_TIME CHAR(11) STATIC SYMDEF INIT(' ');
      196      196    1   DCL TH_SITE_ID CHAR(6) STATIC SYMDEF ALIGNED INIT(' ');
      197      197    1   DCL TH_LAST_DEVTYPE CHAR(2) STATIC SYMDEF ALIGNED INIT(' ');
      198      198    1   DCL 1 TH_SITE_NAME STATIC SYMDEF ALIGNED,
      199      199    1         2 L UBIN BYTE UNAL INIT(0),
      200      200    1         2 C CHAR(119) INIT(' ');
      201      201    1   DCL 1 TH_LAST_MATCH STATIC SYMDEF ALIGNED,
      202      202    1         2 COUNT UBIN BYTE UNAL INIT(0),
      203      203    1         2 TEXT CHAR(119) INIT(' ');
      204      204    1   DCL 1 TH_LAST_EXCLUDE STATIC SYMDEF ALIGNED,
      205      205    1         2 COUNT UBIN BYTE UNAL INIT(0),
      206      206    1         2 TEXT CHAR(119) INIT(' ');
      207      207    1   DCL TH_LAST_REQID UBIN WORD STATIC SYMDEF INIT(0);
      208      208    1   DCL TH_SAME_REQID BIT(1) STATIC SYMDEF INIT('0'B);
      209      209    1   DCL TH_RECOV BIT(1) STATIC SYMDEF INIT('0'B);
      210      210    1   DCL TH_PROC_FLAG BIT (1) UNAL STATIC SYMDEF INIT('1'B);
      211      211    1   DCL TH_MAXDCTX UBIN WORD STATIC SYMDEF INIT(0);
      212      212    1   DCL TH_DCT$(0:511) PTR STATIC SYMDEF INIT(ADDR(NIL)*0);
      213      213    1   DCL TH_XSA_BUF_VECTOR BIT(72) STATIC SYMDEF INIT(VECTOR(NIL));
      214      214    1   DCL 1 TH_XSA_BUF REDEF TH_XSA_BUF_VECTOR,
      215      215    1         2 BOUND UBIN(20) UNAL,
      216      216    1         2 * BIT(16),
      217      217    1         2 P$ PTR;
      218      218    1   DCL TH_IOERR_M_BY_B_SET BIT(1) STATIC SYMDEF INIT('0'B);
      219      219    1   DCL TH_IOERR_E_BY_B_SET BIT(1) STATIC SYMDEF INIT('0'B);
      220      220    1   DCL TH_IOERR_M_SET BIT(1) STATIC SYMDEF INIT('0'B);
      221      221    1   DCL TH_IOERR_E_SET BIT(1) STATIC SYMDEF INIT('0'B);
      222      222    1   DCL TH_IOERR_M_OR_E_SET BIT(1) STATIC SYMDEF INIT('0'B);
PL6.E3A0      #001=TH_DATA_D File=TH_DATA_D.:E05TSI                              WED 07/30/97 06:17 Page:18
      223      223    1   DCL TH_FEPERR_M_OR_E_SET BIT(1) STATIC SYMDEF INIT('0'B);
      224      224    1   DCL TH_FIERR_M_SET BIT(1) STATIC SYMDEF INIT('0'B);
      225      225    1   DCL TH_FIERR_E_SET BIT(1) STATIC SYMDEF INIT('0'B);
      226      226    1   DCL TH_CHECK_DEVNM BIT(1) STATIC SYMDEF INIT('0'B);
      227      227    1   DCL TH_M$ERRLOG$ PTR STATIC SYMDEF;
      228      228    1   DCL TH_DETAIL_FLG BIT(1) STATIC SYMDEF INIT('1'B);
      229      229    1   DCL TH_RAW_FLG BIT(1) STATIC SYMDEF INIT('0'B);
      230      230    1   DCL TH_IOERR_FLG BIT(1) STATIC SYMDEF INIT('0'B);
      231      231    1   DCL TH_FEPERR_FLG BIT(1) STATIC SYMDEF INIT('0'B);
      232      232    1   DCL TH_FIRST_TIME BIT(1) STATIC SYMDEF INIT('1'B);
      233      233    1   DCL TH_EOF_FLG BIT(1) STATIC SYMDEF INIT('0'B);
      234      234        /* ! ! */
      235      235        %INCLUDE CP_6;
      236     5794        /* !R! */
      237     5795        %VLP_ACCT(FPTN=VLP_SYSTAC,
      238     5796                  ACCT=':SYSTAC',
      239     5797                  STCLASS="STATIC SYMDEF");
      240     5810        %VLP_ACCT(FPTN=DEVHIST_ACCT,
      241     5811                  ACCT=':SYSTAC',
      242     5812                  STCLASS="STATIC SYMDEF");
      243     5825    1   DCL TH_CHANGE_ACCOUNT BIT(1) STATIC SYMDEF INIT('1'B);
      244     5826    1   DCL TH_CHANGE_FILE BIT(1) STATIC SYMDEF INIT('0'B);
      245     5827    1   DCL TH_PRMT_FLAG BIT(1) STATIC SYMDEF INIT('0'B);
      246     5828    1   DCL 1 TH_PRMT STATIC SYMDEF,
      247     5829    1          2 VFC CHAR(1) UNAL,
      248     5830    1          2 TEXT CHAR(30) UNAL;
      249     5831    1   DCL TH_PRMT_SIZE UBIN STATIC SYMDEF;
      250     5832    1   DCL 1 TH_M_CHAN(0:9)  STATIC SYMDEF,
      251     5833    1          2 TEXT CHAR(4),
      252     5834    1          2 FLAG BIT(1);
      253     5835    1   DCL TH_M_CHAN_TOTAL UBIN(5) STATIC SYMDEF INIT(0);
      254     5836    1   END TH_DATA_D;

PL6.E3A0      #001=TH_DATA_D File=TH_DATA_D.:E05TSI                              WED 07/30/97 06:17 Page:19
--  Include file information  --

   CP_6_C.:E05TOU  is referenced.
   CP_6.:E05TOU  cannot be made into a system file and is referenced.
      No diagnostics issued in procedure TH_DATA_D.
PL6.E3A0      #001=TH_DATA_D File=TH_DATA_D.:E05TSI                              WED 07/30/97 06:17 Page:20

 **** Variables and constants ****


   No code generated for procedure TH_DATA_D .
   Procedure TH_DATA_D is declared NOAUTO and requires 3932 words of local(STATIC) storage.

    No errors detected in file TH_DATA_D.:E05TSI    .
PL6.E3A0      #001=TH_DATA_D File=TH_DATA_D.:E05TSI                              WED 07/30/97 06:17 Page:21
          *** CROSS REFERENCE LISTING ***
**     DENOTES     IDENTIFIER DEFINITION
<<                 IDENTIFIER'S VALUE SET
>>                 IDENTIFIER'S VALUE USED
<>                 IDENTIFIER SET AND/OR USED
--                 IDENTIFIER REFERENCED
PL6.E3A0      #001=TH_DATA_D File=TH_DATA_D.:E05TSI                              WED 07/30/97 06:17 Page:22
          MINI XREF LISTING

TH_CONSTRAINTS.E_BY_B
        31**DCL        32--REDEF
TH_CONSTRAINTS.M_BY_B
        22**DCL        23--REDEF
TH_CONSTRAINTS.TYPES
        11**DCL        12--REDEF
TH_DEFAULT.E_BY_B
        80**DCL        81--REDEF
TH_DEFAULT.M_BY_B
        71**DCL        72--REDEF
TH_DEFAULT.TYPES
        60**DCL        61--REDEF
TH_SAVE.E_BY_B
       129**DCL       130--REDEF
TH_SAVE.M_BY_B
       120**DCL       121--REDEF
TH_SAVE.TYPES
       109**DCL       110--REDEF
TH_XSA_BUF_VECTOR
       213**DCL       214--REDEF
