VERSION E05

PL6.E3A0      #001=TH_REPORT_D File=TH_REPORT_D.:E05TSI                          WED 07/30/97 06:17 Page:1
        1        1        /*M* TH_REPORT_D - STATIC DATA FOR REPORT FORMATS IN ELAN */
        2        2        /*T***********************************************************/
        3        3        /*T*                                                         */
        4        4        /*T* Copyright (c) Bull HN Information Systems Inc., 1997    */
        5        5        /*T*                                                         */
        6        6        /*T***********************************************************/
        7        7        TH_REPORT_D: PROC;
        8        8        /**/
        9        9        %MACRO CTL (NAME=GARBAGE,
       10       10                    NHDR=0,
       11       11                    NFMT=0,
       12       12                    HDRFLG(FIRSTTIME='1'B,ALWAYS='0'B)='1'B,/*TELLS IF HDR PRINTS ONCE*/
       13       13                    SPECIAL(YES='1'B,NO='0'B)='0'B,/*IF ADDITIONAL DATA TO CHECK*/
       14       14                    V1=NIL,V2=NIL,V3=NIL,V4=NIL,V5=NIL,
       15       15                    V6=NIL,V7=NIL,V8=NIL,V9=NIL,V10=NIL);
       16       16        DCL 1 NAME CONSTANT DALIGNED,
       17       17                2 * UBIN BYTE UNAL INIT(NHDR),      /* NHDR */
       18       18                2 * UBIN BYTE UNAL INIT(NFMT),     /* NFMT */
       19       19                2 * BIT(1) UNAL INIT(HDRFLG),    /* HDRFLG */
       20       20                2 * BIT(1) UNAL INIT(SPECIAL),    /* SPECIAL */
       21       21                2 * BIT(16) UNAL INIT('0'B),
       22       22                2 * UBIN ALIGNED INIT(0),
       23       23                2 * (0:10) BIT(72) INIT(VECTOR(NIL),VECTOR(V1),VECTOR(V2),
       24       24                                        VECTOR(V3),VECTOR(V4),VECTOR(V5),VECTOR(V6),
       25       25                                        VECTOR(V7),VECTOR(V8),VECTOR(V9),
       26       26                                        VECTOR(V10));
       27       27        %MEND;
       28       28        %EJECT;
PL6.E3A0      #001=TH_REPORT_D File=TH_REPORT_D.:E05TSI                          WED 07/30/97 06:17 Page:2
       29       29        /* COMPONENT STARTUP */
       30       30    1   DCL CMPSTRT_H1 CHAR(0) CONSTANT INIT(
       31       31        '%/<<<< COMPONENT STARTUP >>>> (101)%2/
       32       32        TIME  COMPONENT LAST STATE CHANGE NEW STATE%/
       33       33    1   ----- --------- ----------------- ---------%10P');
       34       34    1   DCL CMPSTRT_F1 CHAR(0) CONSTANT INIT(
       35       35    1   '%5A%2P %4A%D%17-%3P%T%35-%T%10P');
       36       36        %CTL (NAME=RAW_CMPSTRT,NHDR=1,NFMT=1,HDRFLG=FIRSTTIME,V1=CMPSTRT_H1,V2=CMPSTRT_F1);
       37       49        %EJECT;
PL6.E3A0      #001=TH_REPORT_D File=TH_REPORT_D.:E05TSI                          WED 07/30/97 06:17 Page:3
       38       50        /* MOUNT AND DISMOUNT */
       39       51    1   DCL MOUNT_H1 CHAR(0) CONSTANT INIT(
       40       52    1   '%/<<<< VOLUME MOUNT/DISMOUNT >>>> %10P%2/');
       41       53    1   DCL MOUNT_H2 CHAR(0) CONSTANT INIT(
       42       54        'TIME  VOLUME PSN    DEVNM    REQT%/
       43       55    1   ----- ------ ------ -------- -----%10P');
       44       56    1   DCL MOUNT_F1 CHAR(0) CONSTANT INIT(
       45       57    1   '%5A %2.1P%6A %6A %8A %5..0U %3P%T%10P');
       46       58        %CTL (NAME=RAW_MOUNT,NHDR=2,NFMT=1,HDRFLG=FIRSTTIME,
       47       59                V1=MOUNT_H1,V2=MOUNT_H2,V3=MOUNT_F1);
       48       72        %EJECT;
PL6.E3A0      #001=TH_REPORT_D File=TH_REPORT_D.:E05TSI                          WED 07/30/97 06:17 Page:4
       49       73        /* TIMESTAMP */
       50       74    1   DCL TIMESTAMP_H1 CHAR(0) CONSTANT INIT(
       51       75    1   '%/<<<< TIMESTAMP >>>>   %5A%10P%/');
       52       76        %CTL (NAME=RAW_TIMESTAMP,NHDR=1,NFMT=0,HDRFLG=ALWAYS,V1=TIMESTAMP_H1);
       53       89        %EJECT;
PL6.E3A0      #001=TH_REPORT_D File=TH_REPORT_D.:E05TSI                          WED 07/30/97 06:17 Page:5
       54       90        /* OPERATOR INPUT */
       55       91    1   DCL OPER_H1 CHAR(0) CONSTANT INIT(
       56       92    1   '%/<<<< OPERATOR INPUT >>>> %10P%/');
       57       93    1   DCL OPER_F1 CHAR(0) CONSTANT INIT(
       58       94    1   '%5A: %2.7P%126A%10P');
       59       95        %CTL (NAME=RAW_OPER,NHDR=1,NFMT=1,HDRFLG=ALWAYS,V1=OPER_H1,V2=OPER_F1);
       60      108        %EJECT;
PL6.E3A0      #001=TH_REPORT_D File=TH_REPORT_D.:E05TSI                          WED 07/30/97 06:17 Page:6
       61      109    1   DCL REX_H1 CHAR(0) CONSTANT INIT(
       62      110    1   '%/<<<< RESOURCE EXHAUSTED >>>>  %10P%/');
       63      111        %CTL (NAME=RAW_REX,NHDR=1,NFMT=0,HDRFLG=ALWAYS,V1=REX_H1);
       64      124        %EJECT;
PL6.E3A0      #001=TH_REPORT_D File=TH_REPORT_D.:E05TSI                          WED 07/30/97 06:17 Page:7
       65      125        /* FIRMWARE LOAD */
       66      126    1   DCL FWLOAD_H1 CHAR(0) CONSTANT INIT(
       67      127    1   '%/<<<< FIRMWARE LOAD >>>>  %10P%2/');
       68      128    1   DCL FWLOAD_F1 CHAR(0) CONSTANT INIT(
       69      129    1   '%5A FIRMWARE LOAD %3P%T ON %2P%8A%10P');
       70      130        %CTL (NAME=RAW_FWLOAD,NHDR=1,NFMT=1,HDRFLG=FIRSTTIME,V1=FWLOAD_H1,V2=FWLOAD_F1);
       71      143        %EJECT;
PL6.E3A0      #001=TH_REPORT_D File=TH_REPORT_D.:E05TSI                          WED 07/30/97 06:17 Page:8
       72      144        /* DIAGNOSTIC OPEN */
       73      145    1   DCL DIAG_H1 CHAR(0) CONSTANT INIT(
       74      146        '%/<<<< DIAGNOSTIC OPEN >>>> (110)%2/
       75      147    1   TIME  ACCOUNT  USER NAME    SYSID  DEV  TEST%10P');
       76      148    1   DCL DIAG_H2 CHAR(0) CONSTANT INIT(
       77      149    1   '----- -------- ------------ ----- ---- --------------%10P');
       78      150    1   DCL DIAG_F1 CHAR(0) CONSTANT INIT(
       79      151    1   '%5A %2P%8A %12A %5.18D %2S%4A %3P%T%10P');
       80      152        %CTL (NAME=RAW_DIAG,NHDR=2,NFMT=1,HDRFLG=FIRSTTIME,V1=DIAG_H1,V2=DIAG_H2,V3=DIAG_F1)
               152            ;
       81      165        %EJECT;
PL6.E3A0      #001=TH_REPORT_D File=TH_REPORT_D.:E05TSI                          WED 07/30/97 06:17 Page:9
       82      166        /* SYSCON ENTRIES */
       83      167    1   DCL SYSCON_H1 CHAR(0) CONSTANT INIT(
       84      168        '%/<<<< SYSCON ENTRY >>>> (111)%2/
       85      169    1   TIME  FUNCTION  COMP I-CCC DEVNAME  ACCOUNT  USER NAME    SYSID%10P');
       86      170    1   DCL SYSCON_H2 CHAR(0) CONSTANT INIT(
       87      171    1   '----- --------- ---- ----- -------- -------- ------------ -----%10P');
       88      172    1   DCL SYSCON_F1 CHAR(0) CONSTANT INIT(
       89      173    1   '%5A%3P %T%17-%T %22-%T%28-%T%37-%2.3P%8A %12A %6.18D%10P');
       90      174        %CTL (NAME=RAW_SYSCON,NHDR=2,NFMT=1,HDRFLG=FIRSTTIME,V1=SYSCON_H1,V2=SYSCON_H2,V3=
               174            SYSCON_F1);
       91      187        %EJECT;
PL6.E3A0      #001=TH_REPORT_D File=TH_REPORT_D.:E05TSI                          WED 07/30/97 06:17 Page:10
       92      188        /* SYSID */
       93      189    1   DCL SYSID_H1 CHAR(0) CONSTANT INIT(
       94      190        '%/<<<< SYSID >>>> (112)%2/
       95      191    1   TIME  SITE ID VERSION PATCHWEEK TIMESTAMP      ANSPROT SITE NAME%10P');
       96      192    1   DCL SYSID_H2 CHAR(0) CONSTANT INIT(
       97      193    1   '----- ------- ------- --------- -------------- ------- ------------%10P');
       98      194    1   DCL SYSID_F1 CHAR(0) CONSTANT INIT(
       99      195    1   '%5A %2.54P%6A%2.52P%18-%4A%2.56P%25-%4A    %3P%T    %2.51..33P%1.3D    %3P%15S%T%10
               195        P');
      100      196        %CTL (NAME=RAW_SYSID,NHDR=2,NFMT=1,HDRFLG=FIRSTTIME,V1=SYSID_H1,V2=SYSID_H2,V3=
               196            SYSID_F1);
      101      209        %EJECT;
PL6.E3A0      #001=TH_REPORT_D File=TH_REPORT_D.:E05TSI                          WED 07/30/97 06:17 Page:11
      102      210        /* MPC DEVICE STATISTICS */
      103      211    1   DCL DEVSTAT_H1 CHAR(0) CONSTANT INIT(
      104      212    1   '%2/<<<< DEVICE STATISTICS >>>> %/%10P');
      105      213
      106      214
      107      215    1   DCL 1 DEVSTAT_H3 CONSTANT,          /* MPC & TPUR TAPE RAW FORMAT */
      108      216    1       2 * CHAR(0) INIT(
      109      217    1   '%2/                 RECS   RECS    WRITE  READ  TRANSFER  MARG  RECS W/SNG  MTC%/')
               217            ,
      110      218    1       2 * CHAR(0) INIT(
      111      219    1   'TIME   DEV/MPC   READ  WRITTEN   ERRS  ERRS  TIM ERRS  RECS   TRK CORR  RD CNT%/'),
      112      220    1       2 * CHAR(0) INIT(
      113      221    1   '----- --------- ------ -------  ----- ------ -------- ------ ---------- ------%/%10
               221        P');
      114      222
      115      223    1   DCL 1 DEVSTAT_F1 CHAR(0) CONSTANT INIT(
      116      224    1   '%1P%5A %2.0P%4A/%2.2P%4A%2.5P %6.36D %7.36D  %5.36D  %5.36D   %6.36D %6.36D    %7.3
               224        6D %6.36D%/%10P');
      117      225
      118      226        %CTL (NAME=RAW_DEVSTATS,NHDR=2,NFMT=1,HDRFLG=FIRSTTIME,V1=DEVSTAT_H1,V2=DEVSTAT_H3,
               226            V3=DEVSTAT_F1);
      119      239
      120      240
      121      241    1   DCL 1 DEVSTAT_H2 CONSTANT,       /* DISC RAW FORMAT HEADER */
      122      242    1       2 * CHAR(0) INIT(
      123      243    1   '%2/                 # OF   SECTORS SECTORS  SEEK            CORR    UNCORR   OTHER%
               243        /'),
      124      244    1       2 * CHAR(0) INIT(
      125      245    1   'TIME   DEV/MPC   SEEKS   READ   WRITTEN ERRORS RETRIES EDAC ERS EDAC ERS   ERRS%/')
               245            ,
      126      246    1       2 * CHAR(0) INIT(
      127      247    1   '----- --------- ------- ------- ------- ------ ------- -------- -------- -------%10
               247        P');
      128      248
      129      249
      130      250    1   DCL DEVSTAT2_F2 CHAR(0) CONSTANT INIT(      /* MPC & DAU DISC RAW FORMAT */
      131      251    1   '%1P%5A %2.0P%4A/%2.2P%4A %2.5P%7.36D %2.7P%7.36D %2.6P%7.36D%3.0P%7.36D %2.19P%7.36
PL6.E3A0      #001=TH_REPORT_D File=TH_REPORT_D.:E05TSI                          WED 07/30/97 06:17 Page:12
               251        D  %2.16P%7.36D  %7.36D %3.1P%7.36D%/%10P');
      132      252
      133      253        %CTL(NAME=RAW_DEVSTATS2,NHDR=2,NFMT=1,HDRFLG=FIRSTTIME,V1=DEVSTAT_H1,
      134      254             V2=DEVSTAT_H2,V3=DEVSTAT2_F2);
      135      267
      136      268
      137      269    1   DCL 1 DEVSTAT3_F2 CHAR(0) CONSTANT INIT(     /* MDS DISC RAW FORMAT */
      138      270    1   '%1P%5A %2.0P%4A/%2.2P%4A %3.0P%7.36D %2.11P%7.36D %2.13P%7.36D%2.7.2P%7.18D%2.14P%8
               270        .36D %2.8P%8.18D %8.18D %2.15P%7.36D%/%10P');
      139      271
      140      272        %CTL(NAME=RAW_DEVSTATS3,NHDR=2,NFMT=1,HDRFLG=FIRSTTIME,V1=DEVSTAT_H1,
      141      273             V2=DEVSTAT_H2,V3=DEVSTAT3_F2);
      142      286
      143      287
      144      288    1   DCL 1 DEVSTAT_F2 CONSTANT,          /* MPC & TPUR TAPE EXT FORMAT */
      145      289    1       2 * CHAR(0) INIT(
      146      290    1   '%2/                 RECS   RECS    WRITE  READ  TRANSFER  MARG  RECS W/SNG  MTC%/')
               290            ,
      147      291    1       2 * CHAR(0) INIT(
      148      292    1   'TIME   DEV/MPC   READ  WRITTEN   ERRS  ERRS  TIM ERRS  RECS   TRK CORR  RD CNT%/'),
      149      293    1       2 * CHAR(0) INIT(
      150      294    1   '----- --------- ------ -------  ----- ------ -------- ------ ---------- ------%/%10
               294        P'),
      151      295    1       2 * CHAR(0) INIT(
      152      296    1   '%1P%5A %2.0P%4A/%2.2P%4A%2.5P %6.36D %7.36D  %5.36D  %5.36D   %6.36D %6.36D    %7.3
               296        6D %6.36D%/%10P');
      153      297
      154      298        %CTL (NAME=EXTENDED_DEVSTATS,NHDR=1,NFMT=1,HDRFLG=FIRSTTIME,V1=DEVSTAT_H1,V2=
               298            DEVSTAT_F2);
      155      311
      156      312
      157      313    1   DCL 1 DEVSTAT2_F1 CONSTANT,         /* MPC & DAU DISC EXT FORMAT */
      158      314    1       2 * CHAR(0) INIT(
      159      315    1   '%2/                 # OF   SECTORS SECTORS # DATA  INCOMP HDR VER  TRANS   DATA CHK
               315        %/'),
      160      316    1       2 * CHAR(0) INIT(
      161      317    1   'TIME   DEV/MPC   SEEKS  WRITTEN  READ   TR CMDS  SEEKS  ERRS   TIM ERRS ALERTS%/'),
PL6.E3A0      #001=TH_REPORT_D File=TH_REPORT_D.:E05TSI                          WED 07/30/97 06:17 Page:13
      162      318    1       2 * CHAR(0) INIT(
      163      319    1   '----- --------- ------- ------- ------- ------- ------ ------- -------- --------%/%
               319        10P'),
      164      320    1       2 * CHAR(0) INIT(
      165      321    1           '%1P%5A %2.0P%4A/%2.2P%4A%2.5P%4( %7.36D%)%7.36D %7.36D%2(  %7.36D%)%2/'),
      166      322    1       2 * CHAR(0) INIT(
      167      323    1   '            CNT CHK DLI PAR ALT TRKS   CORR    UNCORR  LATENCY DATA    SYNC%/'),
      168      324    1       2 * CHAR(0) INIT(
      169      325    1   '             ALERTS  ERRS   ACCESSED EDAC ERS EDAC ERS RETRIES RETRIES FAILURES%/')
               325            ,
      170      326    1       2 * CHAR(0) INIT(
      171      327    1   '            ------- ------- -------- -------- -------- ------- ------- --------%/%1
               327        0P'),
      172      328    1       2 * CHAR(0) INIT('          %2.13P  %7.36D %7.36D  %7.36D  %7.36D  %7.36D %7.36D
               328         %7.36D  %7.36D%/%10P');
      173      329
      174      330        %CTL (NAME=EXTENDED_DEVSTATS2, NHDR=1,NFMT=1,HDRFLG=FIRSTTIME,
      175      331              V1=DEVSTAT_H1,V2=DEVSTAT2_F1);
      176      344
      177      345
      178      346    1   DCL 1 DEVSTAT3_F1 CONSTANT,          /* MDS DISC EXT FORMAT */
      179      347    1       2 * CHAR(0) INIT(
      180      348    1   '%2/                   BYTES READ BYTES WRT   # OF     # OF     DATA CHKS DATA CHKS%
               348        /'),
      181      349    1       2 * CHAR(0) INIT(
      182      350    1   'TIME    DEV/MPC     (1024K)    (1024K)  SEEKS(1K) SEEK ERRS CORRECTED  UNCORR %/%10
               350        P'),
      183      351    1       2 * CHAR(0) INIT(
      184      352    1   '-----  ---------   ---------- --------- --------- --------- --------- ---------%/%1
               352        0P'),
      185      353    1       2 * CHAR(0) INIT(
               353                '%1P%5A  %2.0P%4A/%2.2P%4A   %2.5P%2(  %8.36D%)%4(  %8.18D%)%2/'),
      186      354    1       2 * CHAR(0) INIT(
      187      355    1   '             # OF     # OF      SECTORS    # OF    SECTORS    # OF    LATENCIES%/')
               355            ,
      188      356    1       2 * CHAR(0) INIT(
      189      357    1   '             SEEKS  SEEK/READS   READ    SEEK/WRTS WRITTEN   RETRIES    LOST%/'),
PL6.E3A0      #001=TH_REPORT_D File=TH_REPORT_D.:E05TSI                          WED 07/30/97 06:17 Page:14
      190      358    1       2 * CHAR(0) INIT(
      191      359    1   '            ------- ---------- --------  --------- --------  -------- ---------%/')
               359            ,
      192      360    1       2 * CHAR(0) INIT('           %2.9P%8.36D  %8.36D%5(  %8.36D%)%/%10P');
      193      361
      194      362        %CTL (NAME=EXTENDED_DEVSTATS3, NHDR=1,NFMT=1,HDRFLG=FIRSTTIME,
      195      363             V1=DEVSTAT_H1,V2=DEVSTAT3_F1);
      196      376        %EJECT;
PL6.E3A0      #001=TH_REPORT_D File=TH_REPORT_D.:E05TSI                          WED 07/30/97 06:17 Page:15
      197      377        /* MPC STATISTICS */
      198      378    1   DCL MPCSTAT_H1 CHAR(0) CONSTANT INIT(
      199      379    1   '%2/<<<< MPC STATISTICS >>>> %/%10P');
      200      380    1   DCL 1 MPCSTAT_F1 CONSTANT,
      201      381    1       2 * CHAR(0) INIT(
      202      382    1   '%2/TIME  MPC   FW                                PORT 0   PORT 1   PORT 2   PORT 3%
               382        /'),
      203      383    1       2 * CHAR(0) INIT(
      204      384    1   '----- ---- ---- ---------------------------- -------- -------- -------- --------%/'
               384            ),
      205      385    1       2 * CHAR(0) INIT(
      206      386    1   '%1P%5A %2.0P%4A %2.2P%4A PDSI RECEIVER ERRORS        %2.3P%4(  %7.18D%)%/'),
      207      387    1       2 * CHAR(0) INIT(
      208      388    1   '                PDSI TRANSMITTER ERRORS     %2.5P%4(  %7.18D%)%/'),
      209      389    1       2 * CHAR(0) INIT(
      210      390    1   '                CARDS PUNCHED               %2.7P%4(  %7.18D%)%/'),
      211      391    1       2 * CHAR(0) INIT(
      212      392    1   '                CARDS READ                  %2.9P%4(  %7.18D%)%/'),
      213      393    1       2 * CHAR(0) INIT(
      214      394    1   '                FRAMES RECEIVED OVER PDSI   %2.11P%4(  %7.18D%)%/'),
      215      395    1       2 * CHAR(0) INIT(
      216      396    1   '                FRAMES TRANSMITTED OVER PDSI%2.13P%4(  %7.18D%)%/'),
      217      397    1       2 * CHAR(0) INIT(
      218      398    1   '                CONNECT PCWS                %2.15P%4(  %7.18D%)%/'),
      219      399    1       2 * CHAR(0) INIT(
      220      400    1   '                PCWS ON IOM INTERFACE       %2.17P%4(  %7.18D%)%/'),
      221      401    1       2 * CHAR(0) INIT(
      222      402    1   '                IOM INTERFACE TRANSACTIONS  %2.19P%4( %8.36D%)%/'),
      223      403    1       2 * CHAR(0) INIT(
      224      404    1   '                IOM INTERFACE WD TRANSFERS  %2.23P%4( %8.36D%)%/'),
      225      405    1       2 * CHAR(0) INIT(
      226      406    1   '                LINES PRINTED               %2.27P%4(  %7.18D%)%/'),
      227      407    1       2 * CHAR(0) INIT(
      228      408    1   '                RETRANSMISSIONS OVER PDSI   %2.29P%4(  %7.18D%)%/'),
      229      409    1       2 * CHAR(0) INIT(
      230      410    1   '                PAGES PRINTED               %2.31P%4(  %7.18D%)%/'),
      231      411    1       2 * CHAR(0) INIT(
PL6.E3A0      #001=TH_REPORT_D File=TH_REPORT_D.:E05TSI                          WED 07/30/97 06:17 Page:16
      232      412    1   '                ELAPSED TIME:  %2.33P%9.36D MINS%/'),
      233      413    1       2 * CHAR(0) INIT(
      234      414    1   '                LOST INTERRUPTS: %2.34P%7.18D%/'),
      235      415    1       2 * CHAR(0) INIT(
      236      416    1   '                UNSOLICITED FRAMES: %2.34.2P%7.18D%/'),
      237      417    1       2 * CHAR(0) INIT(
      238      418    1   '                  PROM 0:   %2.35..1P%2.8ZH    PROM 1:   %2.35..10P%2.8ZH    '),
      239      419    1       2 * CHAR(0) INIT(
      240      420    1   'PROM 2:   %2.35..19P%2.8ZH    PROM 3:   %2.35..28P%2.8ZH%/'),
      241      421    1       2 * CHAR(0) INIT(
      242      422    1   '                  PROM 4/5: %2.36..1P%2.8ZH    PROM 6/7: %2.36..10P%2.8ZH    '),
      243      423    1       2 * CHAR(0) INIT(
      244      424    1   'PROM 8:   %2.36..19P%2.8ZH    CONFIG:   %2.36..28P%2.8ZH%3/%10P');
      245      425        %CTL (NAME=EXTENDED_MPCSTAT,NHDR=1,NFMT=1,HDRFLG=FIRSTTIME,V1=MPCSTAT_H1,V2=
               425            MPCSTAT_F1);
      246      438
      247      439
      248      440    1   DCL 1 MPCSTAT_H3 CONSTANT,
      249      441    1       2 * CHAR(0) INIT(
      250      442    1   '%2/      MPC   FW   CARDS   CARDS   LINES   PAGES    IOM     LOST   UNSOL   TR/REC%
               442        /'),
      251      443    1       2 * CHAR(0) INIT(
      252      444    1   'TIME  NAME NAME  READ   PUNCHED PRINTED PRINTED WD TRANS  INTS   FRAMES  ERRORS%/')
               444            ,
      253      445    1       2 * CHAR(0) INIT(
      254      446    1   '----- ---- ---- ------- ------- ------- ------- -------- ------- ------- -------%/%
               446        10P');
      255      447
      256      448    1   DCL MPCSTAT_F2 CHAR(0) CONSTANT INIT(
      257      449    1   '%1P%5A %2.0P%4A %2.2P%4A %3.0P%7.36D %7.36D %7.36D %7.36D  %7.36D %2.34.0P%7.18D %2
               449        .34.2P%7.18D %3.5P%7.36D%/%10P');
      258      450
      259      451        %CTL(NAME=RAW_MPCSTAT,NHDR=2,NFMT=1,HDRFLG=FIRSTTIME,V1=MPCSTAT_H1,V2=MPCSTAT_H3,V3=
               451            MPCSTAT_F2);
      260      464        %EJECT;
PL6.E3A0      #001=TH_REPORT_D File=TH_REPORT_D.:E05TSI                          WED 07/30/97 06:17 Page:17
      261      465        /* MIRRORED DISC STATE CHANGE */
      262      466    1   DCL 1 MIRROR_H1 CONSTANT,
      263      467    1       2 * CHAR(0) INIT(
      264      468    1   '%/<<<< MIRRORED DISC STATE CHANGE >>>>%2/'),
      265      469    1       2 * CHAR(0) INIT('           PRI/  NEW    TIME OF%/'),
      266      470    1       2 * CHAR(0) INIT(
      267      471    1   'TIME  DEV  SEC  STATE STATE CHANGE    VSN    MIRROR   ACCT      UNAME     SYSID%/')
               471            ,
      268      472    1       2 * CHAR(0) INIT(
      269      473    1   '----- ---- ---- ----- ------------ --------- ------ -------- ------------ -----%/%1
               473        0P');
      270      474    1   DCL 1 MIRROR_F1 CONSTANT,
      271      475    1       2 * CHAR(0) INIT(
      272      476    1   '%1P%5A %2.0P%4A  %3P%T   %T  %2.5P%12.36.0.9U  %2.4P%8.36D  %2.2P%4A  %2.6.2P%8A %2
               476        .8.2P%12A %2.12P%5.18D%10P');
      273      477        %CTL(NAME=RAW_MIRROR, NHDR=1, NFMT=1, HDRFLG=FIRSTTIME,
      274      478             V1=MIRROR_H1, V2=MIRROR_F1);
      275      491        %EJECT;
PL6.E3A0      #001=TH_REPORT_D File=TH_REPORT_D.:E05TSI                          WED 07/30/97 06:17 Page:18
      276      492        /* ANLZ */
      277      493    1   DCL ANLZ_H1 CHAR(0) CONSTANT INIT(
      278      494        '%/<<<< ANLZ >>>> (114)%2/
      279      495    1   TIME  USER# USER NAME    ACCOUNT  SYSID  COMMAND%10P');
      280      496    1   DCL ANLZ_H2 CHAR(0) CONSTANT INIT(
      281      497    1   '----- ----- ------------ -------- ------ ------------%10P');
      282      498    1   DCL ANLZ_F1 CHAR(0) CONSTANT INIT(
      283      499    1   '%5A %2.0.1P%5.9O%13-%2.3P%12A %2.1P%8A %2.0.2P%6.18D%3P%42-%T%10P');
      284      500        %CTL (NAME=RAW_ANLZ,NHDR=2,NFMT=1,HDRFLG=FIRSTTIME,V1=ANLZ_H1,V2=ANLZ_H2,V3=ANLZ_F1)
               500            ;
      285      513        %EJECT;
PL6.E3A0      #001=TH_REPORT_D File=TH_REPORT_D.:E05TSI                          WED 07/30/97 06:17 Page:19
      286      514        /* ZAP */
      287      515    1   DCL ZAP_H1 CHAR(0) CONSTANT INIT(
      288      516    1   '%/<<<< ZAP >>>> %2/TIME  STATION  OPERATOR TEXT%10P');
      289      517    1   DCL ZAP_H2 CHAR(0) CONSTANT INIT(
      290      518    1   '----- -------- --------------------%10P');
      291      519    1   DCL ZAP_F1 CHAR(0) CONSTANT INIT(
      292      520    1   '%5A %2P%8A %3P%T%10P');
      293      521        %CTL (NAME=RAW_ZAP,NHDR=2,NFMT=1,HDRFLG=FIRSTTIME,V1=ZAP_H1,V2=ZAP_H2,V3=ZAP_F1);
      294      534        %EJECT;
PL6.E3A0      #001=TH_REPORT_D File=TH_REPORT_D.:E05TSI                          WED 07/30/97 06:17 Page:20
      295      535    1   DCL CHANTRAN_H1 CHAR(0) CONSTANT INIT(
      296      536    1   '%/<<<< CHANTRAN >>>> %2/TIME        IOP CHAN STATUS%10P');
      297      537    1   DCL CHANTRAN_H2 CHAR(0) CONSTANT INIT(
      298      538    1   '----------- --- ---- -------------------------%10P');
      299      539    1   DCL 1 CHANTRAN_F1 CONSTANT,
      300      540    1         2 * CHAR(0) INIT(
      301      541    1   '%11A %2P%3.9D  %2.1.0.3P%2.6D  %3P%T%10P');
      302      542        %CTL (NAME=RAW_CHANTRAN,NHDR=2,NFMT=1,HDRFLG=FIRSTTIME,V1=CHANTRAN_H1,V2=CHANTRAN_H2
               542            ,V3=CHANTRAN_F1);
      303      555
      304      556
      305      557
      306      558
      307      559    1   DCL 1 CHANTRAN_F2 CONSTANT,
      308      560    1         2 * CHAR(0) INIT(
      309      561        '%/<<<< CHANTRAN >>>> (117)%2/
      310      562    1   TIME        IOP CHAN STATUS'),
      311      563    1         2 * CHAR(0) INIT(
      312      564    1   '%/----------- --- ---- -------------------------%/'),
      313      565    1         2 * CHAR(0) INIT(
      314      566    1   '%11A %2P%3.9D  %2.1.0.3P%2.6D  %3P%T%2/'),
      315      567    1         2 * CHAR(0) INIT(
      316      568    1   'SPECIAL STATUS WORDS'),
      317      569    1         2 * CHAR(0) INIT(
      318      570    1   '%/-------------------------%/'),
      319      571    1         2 * CHAR(0) INIT(
      320      572    1   ' %2P%12ZO %12ZO%10P');
      321      573        %CTL (NAME=DETAIL_CHANTRAN,NHDR=0,NFMT=1,HDRFLG=ALWAYS,V1=CHANTRAN_F2);
      322      586        %EJECT;
PL6.E3A0      #001=TH_REPORT_D File=TH_REPORT_D.:E05TSI                          WED 07/30/97 06:17 Page:21
      323      587        /* MSOSSAYS */
      324      588    1   DCL MSOSSAYS_H1 CHAR(0) CONSTANT INIT(
      325      589    1   '%/<<<< MSOSSAYS >>>>%2/TIME        IOP MSOS REQUEST TO CP6%10P');
      326      590    1   DCL MSOSSAYS_H2 CHAR(0) CONSTANT INIT(
      327      591    1   '----------- --- -------------------------%10P');
      328      592    1   DCL 1 MSOSSAYS_F1 CONSTANT,
      329      593    1         2 * CHAR(0) INIT(
      330      594    1   '%11A %2P%3.9D %3P%T%10P');
      331      595        %CTL (NAME=RAW_MSOSSAYS,NHDR=2,NFMT=1,HDRFLG=FIRSTTIME,V1=MSOSSAYS_H1,V2=MSOSSAYS_H2
               595            ,V3=MSOSSAYS_F1);
      332      608
      333      609
      334      610
      335      611
      336      612    1   DCL 1 MSOSSAYS_F2 CONSTANT,
      337      613    1         2 * CHAR(0) INIT(
      338      614        '%/<<<< MSOSSAYS >>>> (118) %2/
      339      615    1   TIME        IOP MSOS REQUEST TO CP6'),
      340      616    1         2 * CHAR(0) INIT(
      341      617    1   '%/----------- --- -------------------------%/'),
      342      618    1         2 * CHAR(0) INIT(
      343      619    1   '%11A %2P%3.9D %3P%T%2/'),
      344      620    1         2 * CHAR(0) INIT(
      345      621    1   'COMMAND BLOCK'),
      346      622    1         2 * CHAR(0) INIT(
      347      623    1   '%/----------------------------------------------------------------%/'),
      348      624    1         2 * CHAR(0) INIT(
      349      625    1   '%2P%12ZO %12ZO %12ZO %12ZO %12ZO%10P');
      350      626        %CTL (NAME=DETAIL_MSOSSAYS,NHDR=0,NFMT=1,HDRFLG=ALWAYS,V1=MSOSSAYS_F2);
      351      639        %EJECT;
PL6.E3A0      #001=TH_REPORT_D File=TH_REPORT_D.:E05TSI                          WED 07/30/97 06:17 Page:22
      352      640        /* CP6SAYS */
      353      641    1   DCL CP6SAYS_H1 CHAR(0) CONSTANT INIT(
      354      642    1   '%/<<<< CP6SAYS >>>>%2/TIME        IOP CP6 RESPONSE TO MSOS      REASON%10P');
      355      643    1   DCL CP6SAYS_H2 CHAR(0) CONSTANT INIT(
      356      644    1   '----------- --- ------------------------- -------------------------------%10P');
      357      645    1   DCL 1 CP6SAYS_F1 CONSTANT,
      358      646    1         2 * CHAR(0) INIT(
      359      647    1   '%11A %2P%3.9D %3P%T %43-%T%10P');
      360      648        %CTL (NAME=RAW_CP6SAYS,NHDR=2,NFMT=1,HDRFLG=FIRSTTIME,V1=CP6SAYS_H1,V2=CP6SAYS_H2,V3
               648            =CP6SAYS_F1);
      361      661
      362      662
      363      663
      364      664
      365      665    1   DCL 1 CP6SAYS_F2 CONSTANT,
      366      666    1         2 * CHAR(0) INIT(
      367      667    1   '%/<<<< CP6SAYS >>>> (119)%2/TIME        IOP CP6 RESPONSE TO MSOS      REASON'),
      368      668    1         2 * CHAR(0) INIT(
      369      669    1   '%/----------- --- ------------------------- -------------------------------%/'),
      370      670    1         2 * CHAR(0) INIT(
      371      671    1   '%11A %2P%3.9D %3P%T %43-%T%2/'),
      372      672    1         2 * CHAR(0) INIT(
      373      673    1   'COMMAND BLOCK'),
      374      674    1         2 * CHAR(0) INIT(
      375      675    1   '%/----------------------------------------------------------------%/'),
      376      676    1         2 * CHAR(0) INIT(
      377      677    1   '%2P%12ZO %12ZO %12ZO %12ZO %12ZO%10P');
      378      678        %CTL (NAME=DETAIL_CP6SAYS,NHDR=0,NFMT=1,HDRFLG=ALWAYS,V1=CP6SAYS_F2);
      379      691        %EJECT;
PL6.E3A0      #001=TH_REPORT_D File=TH_REPORT_D.:E05TSI                          WED 07/30/97 06:17 Page:23
      380      692        /* IOERR */
      381      693    1   DCL IOERR_H1 CHAR(0) CONSTANT INIT(
      382      694    1   '%/<<<< IOERR >>>> %2/TIME  IDCW ISTAT    FSTAT    I-CCC-DD RT-CT CNCT   CYL-HD-SE
               694         DEV  SN     REQ%/%35-if tape errors->FIL-RECCNT%10P')
      383      695    1   ;
      384      696    1   DCL IOERR_H2 CHAR(0) CONSTANT INIT(
      385      697    1   '----- ---- -------- -------- ------- ------ ----- ------------ ---- ------ ---%10P'
               697            );
      386      698    1   DCL 1 IOERR_F1 CONSTANT,
      387      699    1         2 * CHAR(0) INIT(
      388      700    1   '%5A %2.8P  %2.6ZO%2.1P %2.6ZO-%2.6ZO-%2.1.2P%2.6ZO %2.3P%2.6ZO-%2.6ZO-%2.3.2P%2.6ZO
               700        '),
      389      701    1         2 * CHAR(0) INIT(
      390      702    1   '%2.5.0.6P %1.3D-%3.9ZD%2.5P-%2.6ZD%2.5.2P %2.9D-%2.9D %3P%T%51-%4.2.1P%T %64-%2.20.
               702        0P%4A %4S%6A%3P%9NS %T%10P');
      391      703        %CTL (NAME=RAW_IOERR,NHDR=2,NFMT=1,HDRFLG=FIRSTTIME,V1=IOERR_H1,V2=IOERR_H2,V3=
               703            IOERR_F1);
      392      716
      393      717
      394      718
      395      719    1   DCL 1 IOERR_F2 CONSTANT,
      396      720    1       2 * CHAR(0) INIT(
      397      721        '%/<<<< IOERR >>>> (201)%2/
      398      722    1   TIME  DEV  REQID  INITIAL STATUS            FINAL STATUS              I-CCC-DD'),
      399      723    1       2 * CHAR(0) INIT(
      400      724    1   '%/----- ---- ------ ------------------------- ------------------------- --------%/'
               724            ),
      401      725    1       2 * CHAR(0) INIT(
      402      726    1   '%1P%5A %2.20P%4A %2P%6D %12ZO %12ZO %12ZO %12ZO %2.5.0.6P%1.3D-%3.9ZD-%2.5P%2.6ZD%2
               726        /'),
      403      727    1       2 * CHAR(0) INIT(
      404      728    1   'ER CT CNCT   IDCW         DCW          MEM ADDRESS  SN     SEEKADDR  CYL-HD-SE%/%54
               728        -if tape errors->FIL-RECCNT'),
      405      729    1       2 * CHAR(0) INIT(
      406      730    1   '%/----- ------ ------------ ------------ ------------ ------ -------- ------------%
               730        /'),
      407      731    1       2 * CHAR(0) INIT(
PL6.E3A0      #001=TH_REPORT_D File=TH_REPORT_D.:E05TSI                          WED 07/30/97 06:17 Page:24
      408      732    1   '%2.5.2P%2.9D-%2.9D %3P%T%14-%2.8P%12ZO %12ZO %12D %2.22P%6A %4P%T %4.2.1P%T%2/'),
      409      733    1         2 * CHAR(0) INIT(
      410      734    1   '    STATUS              STATUS CODES'),
      411      735    1       2 * CHAR(0) INIT(
      412      736    1   '%/  MAJOR MINOR      MAJOR            MINOR'),
      413      737    1       2 * CHAR(0) INIT(
      414      738    1   '%/  ----- ----- ---------------- -----------------%/'),
      415      739    1       2 * CHAR(0) INIT(
      416      740    1   '%2.1P %4-%2.6ZO %10-%2.6ZO %5P %15-%T%32-%T%2/'),
      417      741    1       2 * CHAR(0) INIT(
      418      742    1   'EXTENDED STATUS AND ITS INTERPRETATIONS'),
      419      743    1       2 * CHAR(0) INIT(
      420      744    1   '%/----------------------------------------------------------------%/'),
      421      745    1       2 * CHAR(0) INIT(
      422      746        '%2.11P%4.16ZH %4.16ZH %4.16ZH %4.16ZH %4.16ZH %4.16ZH %4.16ZH %4.16ZH %4.16ZH
      423      747    1     %4.16ZH %4.16ZH %4.16ZH %4.16ZH %/%4.16ZH %4.16ZH %4.16ZH %4.16ZH %4.16ZH%10P');
      424      748        %CTL (NAME=EXTENDED_IOERR,NHDR=0,NFMT=1,SPECIAL=YES,HDRFLG=ALWAYS,V1=IOERR_F2);
      425      761        %EJECT;
PL6.E3A0      #001=TH_REPORT_D File=TH_REPORT_D.:E05TSI                          WED 07/30/97 06:17 Page:25
      426      762        /* DETAIL IOERR */
      427      763    1   DCL 1 IOERR_F3 CONSTANT,
      428      764    1       2 * CHAR(0) INIT(
      429      765    1   '%/%2P %8-%3D %3P %13-%T,%28-%T %1.1P %48-%2.6ZO/%51-%2.6ZO %/'),
      430      766    1       2 * CHAR(0) INIT(
      431      767    1   '            Device Id-%1.24P%8A  Tracks-%2.19P%1A  Speed-%2.3P%32A'),
      432      768    1       2 * CHAR(0) INIT(
      433      769    1   '            Density-%2.11P%32A   Operation-%2.1P%8A %10P');
      434      770        %CTL (NAME=DETAIL_IOERR,NHDR=0,NFMT=1,SPECIAL=YES,HDRFLG=ALWAYS,V1=IOERR_F3);
      435      783        %EJECT;
PL6.E3A0      #001=TH_REPORT_D File=TH_REPORT_D.:E05TSI                          WED 07/30/97 06:17 Page:26
      436      784        /* EDAC */
      437      785    1   DCL EDAC_H1 CHAR(0) CONSTANT INIT(
      438      786        '%/<<<< MOS MEMORY ERRORS >>>> (202)%2/
      439      787    1   TIME  ADDRESS  SCU MODE        STORE UNIT MODE PORT STORE UNIT SLOT CHIP COUNT%10P')
               787            ;
      440      788    1   DCL EDAC_H2 CHAR(0) CONSTANT INIT(
      441      789    1   '----- -------- --------------- --------------- ---- ---------- ---- ---- -----%10P'
               789            );
      442      790    1   DCL EDAC_F1 CHAR(0) CONSTANT INIT(
      443      791    1   '%5A %2.0.0.12P%8.24ZO %2.2P00-%12ZO %2.4P00-%12ZO%3P%50-%T%57-%T%66-%T%70-%T%74-%2.
               791        8.2P%5.18D%10P');
      444      792        %CTL (NAME=RAW_EDAC,NHDR=2,NFMT=1,HDRFLG=FIRSTTIME,V1=EDAC_H1,V2=EDAC_H2,V3=EDAC_F1)
               792            ;
      445      805        %EJECT;
PL6.E3A0      #001=TH_REPORT_D File=TH_REPORT_D.:E05TSI                          WED 07/30/97 06:17 Page:27
      446      806        /* FEP ERRORS */
      447      807    1   DCL FEPERR_H1 CHAR(0) CONSTANT INIT(
      448      808    1   '%/<<<< FEP ERROR >>>> %2/TIME  FEP CHAN DATA ERROR CODE   ERROR MESSAGE%10P');
      449      809    1   DCL FEPERR_H2 CHAR(0) CONSTANT INIT(
      450      810    1   '----- --- ---- ---- ------------ --------------------%10P');
      451      811    1   DCL FEPERR_F1 CHAR(0) CONSTANT INIT(
      452      812    1   '%5A %2P%3.16D %2.5.2.1P%2.8ZH%2.5.3.1P%2.8ZH %3P%T %T %T%10P');
      453      813        %CTL (NAME=RAW_FEPERR,NHDR=2,NFMT=1,HDRFLG=FIRSTTIME,V1=FEPERR_H1,V2=FEPERR_H2,V3=
               813            FEPERR_F1);
      454      826
      455      827
      456      828
      457      829    1   DCL 1 FEPERR_F2 CONSTANT,
      458      830    1         2 * CHAR(0) INIT(
      459      831        '%/<<<< FEP ERROR >>>>%2/
      460      832    1   TIME  FEP CHAN DATA ERROR CODE   ERROR MESSAGE%/'),
      461      833    1         2 * CHAR(0) INIT(
      462      834    1   '%5(-%) %3(-%) %4(-%) %4(-%) %12(-%) %20(-%)%/'),
      463      835    1         2 * CHAR(0) INIT(
      464      836    1   '%5A %2P%3.16D %2.5.2.1P%2.8ZH%2.5.3.1P%2.8ZH %3P%T %T %T%2/'),
      465      837    1         2 * CHAR(0) INIT(
      466      838    1   'CODE L6 TIME  VALUE(0) VALUE(1) VALUE(2) VALUE(3)%/'),
      467      839    1         2 * CHAR(0) INIT(
      468      840    1   '%4(-%) %8(-%) %8(-%) %8(-%) %8(-%) %8(-%)%/'),
      469      841    1         2 * CHAR(0) INIT(
      470      842    1   '%2.1.0.19P%4.9D %2.2P%8.32ZH   %2.3.0.1P%2.8ZH%2.3.1.1P%2.8ZH     %2.3.2.1P%2.8ZH%2
               842        .3.3.1P%2.8ZH'),
      471      843    1         2 * CHAR(0) INIT(
      472      844    1   '     %2.4.0.1P%2.8ZH%2.4.1.1P%2.8ZH     %2.4.2.1P%2.8ZH%2.4.3.1P%2.8ZH%10P');
      473      845        %CTL (NAME=EXTENDED_FEPERR,NHDR=0,NFMT=1,HDRFLG=ALWAYS,SPECIAL=YES,V1=FEPERR_F2);
      474      858        %EJECT;
PL6.E3A0      #001=TH_REPORT_D File=TH_REPORT_D.:E05TSI                          WED 07/30/97 06:17 Page:28
      475      859        /* DETAIL FEP ERRORS */
      476      860    1   DCL 1 FEPERR_F3 CONSTANT,
      477      861    1         2 * CHAR(0) INIT(
      478      862    1   '%1-%5D       %2P%T   %T%10P');
      479      863        %CTL(NAME=DETAIL_FEPERR,NHDR=0,NFMT=1,HDRFLG=ALWAYS,SPECIAL=YES,V1=FEPERR_F3);
      480      876        %EJECT;
PL6.E3A0      #001=TH_REPORT_D File=TH_REPORT_D.:E05TSI                          WED 07/30/97 06:17 Page:29
      481      877        /* PROCESSOR ERRORS */
      482      878    1   DCL PROCERR_H1 CHAR(0) CONSTANT INIT(
      483      879    1   '%/<<<< PROCESSOR ERRORS >>>> %2/%6XFAULT PORT%44-PROC%56-ISR%71-FAULT%10P');
      484      880    1   DCL PROCERR_H2 CHAR(0) CONSTANT INIT(
      485      881    1   'TIME   CODE   #%24-FAULT REGISTER%44-TYPE  SYSID WSR   IC%68-INSTRUCTION%10P');
      486      882    1   DCL PROCERR_H3 CHAR(0) CONSTANT INIT(
      487      883    1   '%5(-%) %5(-%) %4(-%) %25(-%) %4(-%) %6(-%) %3(-%) %6(-%) %12(-%)%10P');
      488      884    1   DCL PROCERR_F1 CHAR(0) CONSTANT INIT(
      489      885    1   '%5A%3X%2.5.3.4P%2.5D%4X%2.5.2P%1.9D  %2.2P%12ZO %12ZO%3X%2.5.3P%1.4D  %2.5P%6.18D
               885        %2.0.3.2P%1.3O  %2.4P%6.18ZO %2.6P%12ZO%10P');
      490      886        %CTL (NAME=RAW_PROCERR,NHDR=3,NFMT=1,HDRFLG=FIRSTTIME,V1=PROCERR_H1,V2=PROCERR_H2,V3
               886            =PROCERR_H3,V4=PROCERR_F1);
      491      899        %CTL (NAME=DETAIL_PROCERR,
      492      900              NHDR=3,
      493      901              NFMT=1,
      494      902              HDRFLG=ALWAYS,
      495      903              SPECIAL=YES,
      496      904              V1=PROCERR_H1,
      497      905              V2=PROCERR_H2,
      498      906              V3=PROCERR_H3,
      499      907              V4=PROCERR_F1);
      500      920        %EJECT;
PL6.E3A0      #001=TH_REPORT_D File=TH_REPORT_D.:E05TSI                          WED 07/30/97 06:17 Page:30
      501      921        /* SPURIOUS INTERRUPT */
      502      922    1   DCL SPURINT_H1 CHAR(0) CONSTANT INIT(
      503      923        '%/<<<< SPURIOUS INTERRUPT >>>> (205)%2/
      504      924    1   TIME  I-CCC T & D STATE     INTLVL STATUS WORDS%10P');
      505      925    1   DCL SPURINT_H2 CHAR(0) CONSTANT INIT(
      506      926    1   '----- ----- ----- --------- ------ -------------------------%10P');
      507      927    1   DCL SPURINT_F1 CHAR(0) CONSTANT INIT(
      508      928    1   '%5A %2P%1.3ZD-%3.9ZD %3P%T %T %29-%2.0.2P%5X%1.3ZD %2.1P%12ZO %12ZO %10P');
      509      929        %CTL (NAME=RAW_SPURINT,NHDR=2,NFMT=1,HDRFLG=FIRSTTIME,V1=SPURINT_H1,V2=SPURINT_H2,V3
               929            =SPURINT_F1);
      510      942        %EJECT;
PL6.E3A0      #001=TH_REPORT_D File=TH_REPORT_D.:E05TSI                          WED 07/30/97 06:17 Page:31
      511      943        /* FEPFLT */
      512      944    1   DCL FEPFLT_H1 CHAR(0) CONSTANT INIT(
      513      945        '%/<<<< FEP FAULT >>>> (206)%2/
      514      946        TIME  I-CCC FEP#   FAULT WORD  %/
      515      947    1   ----- ----- ------ ------------%10P');
      516      948    1   DCL FEPFLT_F1 CHAR(0) CONSTANT INIT(
      517      949    1   '%5A %2P%1.2ZD-%3.7ZD %6.27D %2.1.0.1P%12ZO %10P');
      518      950        %CTL (NAME=RAW_FEPFLT,NHDR=1,NFMT=1,HDRFLG=FIRSTTIME,V1=FEPFLT_H1,V2=FEPFLT_F1);
      519      963        %EJECT;
PL6.E3A0      #001=TH_REPORT_D File=TH_REPORT_D.:E05TSI                          WED 07/30/97 06:17 Page:32
      520      964        /* SCREECH, SUA AND SNAP */
      521      965    1   DCL SCREECH_H1 CHAR(0) CONSTANT INIT(
      522      966    1   '%/<<<< SYSTEM RECOVERY >>>> %/%10P');
      523      967    1   DCL SUA_H1 CHAR(0) CONSTANT INIT(
      524      968    1   '%/<<<< SINGLE USER ABORT >>>> %/%10P');
      525      969    1   DCL SNAP_H1 CHAR(0) CONSTANT INIT(
      526      970    1   '%/<<<< SNAP >>>> %/%10P');
      527      971    1   DCL SCREECH_H2 CHAR(0) CONSTANT INIT(
      528      972    1   'TIME  SCREECH CODE DUMP FLAGS   SNAPU# DUMP FILE%10P');
      529      973    1   DCL SCREECH_H3 CHAR(0) CONSTANT INIT(
      530      974    1   '----- ------------ ------------ ------ ---------%10P');
      531      975    1   DCL SCREECH_F1 CHAR(0) CONSTANT INIT(
      532      976    1   '%5A %3P%T %20-%2.1P%12ZO %6D %3P%9NS%T%50-%T%10P');
      533      977        %CTL (NAME=RAW_SCREECH,NHDR=3,NFMT=1,HDRFLG=FIRSTTIME,V1=SCREECH_H1,V2=SCREECH_H2,V3
               977            =SCREECH_H3,V4=SCREECH_F1);
      534      990        %CTL (NAME=RAW_SUA,NHDR=3,NFMT=1,HDRFLG=FIRSTTIME,V1=SUA_H1,V2=SCREECH_H2,V3=
               990            SCREECH_H3,V4=SCREECH_F1);
      535     1003        %CTL (NAME=RAW_SNAP,NHDR=3,NFMT=1,HDRFLG=FIRSTTIME,V1=SNAP_H1,V2=SCREECH_H2,V3=
              1003            SCREECH_H3,V4=SCREECH_F1);
      536     1016        %EJECT;
PL6.E3A0      #001=TH_REPORT_D File=TH_REPORT_D.:E05TSI                          WED 07/30/97 06:17 Page:33
      537     1017        /* FILE INCONSISTENCY */
      538     1018    1   DCL FI_H1 CHAR(0) CONSTANT INIT(
      539     1019    1   '%/<<<< FILE INCONSISTENCY >>>> %2/TIME  COD REA ACT FRDA         SRDA         REQID
              1019          DEV  FID%10P');
      540     1020    1   DCL FI_H2 CHAR(0) CONSTANT INIT(
      541     1021    1   '----- --- --- --- ------------ ------------ ------ ---- -----------------------%10P
              1021        ');
      542     1022    1   DCL FI_F1 CHAR(0) CONSTANT INIT(
      543     1023    1   '%5A %2P%3.9D %3.9D %3.9D %2.2P%12ZO %12ZO %2.14P%6D %2.15P%4A %3P%T%10P');
      544     1024        %CTL (NAME=RAW_FI,NHDR=2,NFMT=1,HDRFLG=FIRSTTIME,V1=FI_H1,V2=FI_H2,V3=FI_F1);
      545     1037
      546     1038
      547     1039
      548     1040    1   DCL 1 FI_F2 CONSTANT,
      549     1041    1           2 * CHAR(0) INIT(
      550     1042        '%/<<<< FILE INCONSISTENCY >>>> (302)%2/
      551     1043    1   TIME  COD REA ACT SYSID  ORG F D S AC L G REQID  DEV  FID%/'),
      552     1044    1           2 * CHAR(0) INIT(
      553     1045    1   '----- --- --- --- ------ --- - - - -- - - ------ ---- -------------------------%/')
              1045            ,
      554     1046    1           2 * CHAR(0) INIT(
      555     1047    1   '%1P%5A %2P%3.9D %3.9D %3.9D %2.11.2P%6.18D%2.1.0.1P %3.8D %1.3ZD %1.3ZD %1.3ZD %2.6
              1047        D %1.3ZD %1.9D%2.14P %6D %4A %3P%T%2/'),
      556     1048    1           2 * CHAR(0) INIT(
      557     1049    1   'FRDA         SRDA         CYL-HD-SE  MISC         TYC          STATUS%/'),
      558     1050    1           2 * CHAR(0) INIT(
      559     1051    1   '------------ ------------ ---------  ------------ ------------ ------------%/'),
      560     1052    1           2 * CHAR(0) INIT(
      561     1053    1   '%2.2P%12ZO %12ZO %4.2.1P%T %2.8P%12ZO %2.12P%12ZO %12ZO%2/'),
      562     1054    1           2 * CHAR(0) INIT(
      563     1055        'BFR1        BFR1X BFR2        BFR2X BFR3        BFR3X PLUGH%/
      564     1056    1   ----------------- ----------------- ----------------- --------------------%/'),
      565     1057    1           2 * CHAR(0) INIT(
      566     1058    1   '%2.5P%12ZO(%2.9P%3.12D) %2.6P%12ZO(%2.9..12P%3.12D) %2.7P%12ZO(%2.9..24P%3.12D) %6.
              1058        18ZO %6.18ZO %6.18ZO%10P%3/');
      567     1059        %CTL (NAME=DETAIL_FI,NHDR=0,NFMT=1,HDRFLG=ALWAYS,V1=FI_F2);
      568     1072        %EJECT;
PL6.E3A0      #001=TH_REPORT_D File=TH_REPORT_D.:E05TSI                          WED 07/30/97 06:17 Page:34
      569     1073        /* OSFI */
      570     1074    1   DCL OSFI_H1 CHAR(0) CONSTANT INIT(
      571     1075        '%/<<<< OUTPUT SYMBIONT FILE INCONSISTENCY >>>> (303)%2/
      572     1076    1   TIME  SUBC STAMP        EXPSTAMP     AVAIL SYSID        FRDAD%10P');
      573     1077    1   DCL OSFI_H2 CHAR(0) CONSTANT INIT(
      574     1078    1   '----- ---- ------------ ------------ ----- ------------ ------------%10P');
      575     1079    1   DCL OSFI_F1 CHAR(0) CONSTANT INIT(
      576     1080    1   '%5A %2P%4D %12ZO %12ZO %5D %6.18ZD.%5.18ZD %12ZO%10P');
      577     1081        %CTL (NAME=RAW_OSFI,NHDR=2,NFMT=1,HDRFLG=FIRSTTIME,V1=OSFI_H1,V2=OSFI_H2,V3=OSFI_F1)
              1081            ;
      578     1094        %EJECT;
PL6.E3A0      #001=TH_REPORT_D File=TH_REPORT_D.:E05TSI                          WED 07/30/97 06:17 Page:35
      579     1095        /* FEP EVENT */
      580     1096    1   DCL FEPEVENT_H1 CHAR(0) CONSTANT INIT(
      581     1097        '%/<<<< FEP INTERFACE EVENT >>>> (304)%2/
      582     1098    1   TIME  I-CCC SEQ PROBLEM             STATE             NODE#   NAME  %10P');
      583     1099    1   DCL FEPEVENT_H2 CHAR(0) CONSTANT INIT(
      584     1100    1   '----- ----- --- ------------------- ----------------- ----- --------%10P');
      585     1101    1   DCL FEPEVENT_F1 CHAR(0) CONSTANT INIT(
      586     1102    1   '%5A %2P%1.2ZD-%3.7ZD %3.9D %3P%T %37-%T%2.1P%56-%3D  %2.2P%8A%10P');
      587     1103        %CTL (NAME=RAW_FEPEVENT,NHDR=2,NFMT=1,HDRFLG=FIRSTTIME,V1=FEPEVENT_H1,V2=FEPEVENT_H2
              1103            ,V3=FEPEVENT_F1);
      588     1116        %EJECT;
PL6.E3A0      #001=TH_REPORT_D File=TH_REPORT_D.:E05TSI                          WED 07/30/97 06:17 Page:36
      589     1117        /* GHOST ABORT */
      590     1118    1   DCL GABRT_H1 CHAR(0) CONSTANT INIT(
      591     1119        '%/ <<<< GHOST ABORT >>>> (305)%2/
      592     1120    1   TIME  ERRCODE      USER ERRCODE IC     RNS FRS XFL SYSID CC USER NAME%10P');
      593     1121    1   DCL GABRT_H2 CHAR(0) CONSTANT INIT(
      594     1122    1   '----- ------------ ------------ ------ --- --- --- ----- -- ------------%10P');
      595     1123    1   DCL GABRT_F1 CHAR(0) CONSTANT INIT(
      596     1124    1   '%5A %3P%T %20-%T%33-%2.2.2P%6.18ZO %3.9O %3.9O %1S%3.9O %2.2P%5.18D %2.3.2P%2.9D %2
              1124        .4P%12A%10P');
      597     1125        %CTL (NAME=RAW_GABRT,NHDR=2,NFMT=1,HDRFLG=FIRSTTIME,V1=GABRT_H1,V2=GABRT_H2,V3=
              1125            GABRT_F1);
      598     1138        %EJECT;
PL6.E3A0      #001=TH_REPORT_D File=TH_REPORT_D.:E05TSI                          WED 07/30/97 06:17 Page:37
      599     1139        /* COMGROUP ERROR */
      600     1140    1   DCL CGERR_H1 CHAR(0) CONSTANT INIT(
      601     1141    1   '%/ <<<< COMGROUP ERROR >>>> %2/TIME  CODE  CTX    NAME%10P');
      602     1142    1   DCL CGERR_H2 CHAR(0) CONSTANT INIT(
      603     1143    1   '----- ---- ------ -------------------------%10P');
      604     1144    1   DCL CGERR_F1 CHAR(0) CONSTANT INIT(
      605     1145    1   '%5A %2P%4.9D %2.1P%6.18ZO %3P%T%10P');
      606     1146        %CTL (NAME=RAW_CGERR,NHDR=2,NFMT=1,HDRFLG=FIRSTTIME,V1=CGERR_H1,V2=CGERR_H2,V3=
              1146            CGERR_F1);
      607     1159        %CTL (NAME=DETAIL_CGERR,NHDR=2,NFMT=1,HDRFLG=FIRSTTIME,SPECIAL=YES,V1=CGERR_H1,V2=
              1159            CGERR_H2,V3=CGERR_F1);
      608     1172        %EJECT;
PL6.E3A0      #001=TH_REPORT_D File=TH_REPORT_D.:E05TSI                          WED 07/30/97 06:17 Page:38
      609     1173        /* FEP DUMP */
      610     1174    1   DCL FEPDUMP_H1 CHAR(0) CONSTANT INIT(
      611     1175    1   '%/<<<< FEP DUMP >>>> (309) %2/TIME  FEP#  DUMP FILE NAME          REASON         SC
              1175        REECH%10P');
      612     1176    1   DCL FEPDUMP_H2 CHAR(0) CONSTANT INIT(
      613     1177    1   '----- ---- ------------------- --------------- --------------------%10P');
      614     1178    1   DCL FEPDUMP_F1 CHAR(0) CONSTANT INIT(
      615     1179    1   '%5A %2P%4.36D %T%2.21.0P%15A %9S%T%10P');
      616     1180        %CTL (NAME=RAW_FEPDUMP,NHDR=2,NFMT=1,HDRFLG=FIRSTTIME,V1=FEPDUMP_H1,V2=FEPDUMP_H2,V3
              1180            =FEPDUMP_F1);
      617     1193        %EJECT;
PL6.E3A0      #001=TH_REPORT_D File=TH_REPORT_D.:E05TSI                          WED 07/30/97 06:17 Page:39
      618     1194        /* LOST ERRORS */
      619     1195    1   DCL LOST_H1 CHAR(0) CONSTANT INIT(
      620     1196    1   '%/<<<< LOST ERRORS >>>>   %2P%D OF ''EM AT %1P%5A%10P%/');
      621     1197        %CTL (NAME=RAW_LOST,NHDR=1,NFMT=0,HDRFLG=ALWAYS,V1=LOST_H1);
      622     1210        %EJECT;
PL6.E3A0      #001=TH_REPORT_D File=TH_REPORT_D.:E05TSI                          WED 07/30/97 06:17 Page:40
      623     1211        /* CHNGAARD ENTRIES */
      624     1212    1   DCL CHNGAARD_H1 CHAR(0) CONSTANT INIT(
      625     1213        '%/<<<< CHNGAARD ENTRY >>>> (120)%2/
      626     1214                    OLD   NEW    %/
      627     1215    1   TIME  I-CCC I-CCC ACCOUNT  USER NAME    SYSID  MESSAGE%10P');
      628     1216    1   DCL CHNGAARD_H2 CHAR(0) CONSTANT INIT(
      629     1217    1   '----- ----- ----- -------- ------------ ------ -------%10P');
      630     1218    1   DCL CHNGAARD_F1 CHAR(0) CONSTANT INIT(
      631     1219    1   '%5A%3.0.0P %T%13-%T %19-%2.1.1P%8A %12A %6.18D %48-%3.3.0P%T%10P');
      632     1220        %CTL (NAME=RAW_CHNGAARD,NHDR=2,NFMT=1,HDRFLG=FIRSTTIME,V1=CHNGAARD_H1,V2=CHNGAARD_H2
              1220            ,V3=CHNGAARD_F1);
      633     1233        %EJECT;
PL6.E3A0      #001=TH_REPORT_D File=TH_REPORT_D.:E05TSI                          WED 07/30/97 06:17 Page:41
      634     1234    1   DCL 1 TH_RAW_FMT CONSTANT SYMDEF ALIGNED,
      635     1235    1                  2 * PTR INIT(ADDR(NIL)),
      636     1236    1                  2 * PTR INIT(ADDR(RAW_CMPSTRT)),
      637     1237    1                  2 * PTR INIT(ADDR(RAW_MOUNT)),
      638     1238    1                  2 * PTR INIT(ADDR(RAW_MOUNT)),
      639     1239    1                  2 * PTR INIT(ADDR(RAW_TIMESTAMP)),
      640     1240    1                  2 * PTR INIT(ADDR(RAW_OPER)),
      641     1241    1                  2 * PTR INIT(ADDR(RAW_REX)),
      642     1242    1                  2 * PTR INIT(ADDR(RAW_FWLOAD)),
      643     1243    1                  2 * PTR INIT(ADDR(RAW_DIAG)),
      644     1244    1                  2 * PTR INIT(ADDR(RAW_SYSCON)),
      645     1245    1                  2 * PTR INIT(ADDR(RAW_SYSID)),
      646     1246    1                  2 * PTR INIT(ADDR(RAW_MPCSTAT)),
      647     1247    1                  2 * PTR INIT(ADDR(RAW_ANLZ)),
      648     1248    1                  2 * PTR INIT(ADDR(RAW_ZAP)),
      649     1249    1                  2 * PTR INIT(ADDR(RAW_DEVSTATS)),
      650     1250    1                  2 * PTR INIT(ADDR(RAW_CHANTRAN)),
      651     1251    1                  2 * PTR INIT(ADDR(RAW_MSOSSAYS)),
      652     1252    1                  2 * PTR INIT(ADDR(RAW_CP6SAYS)),
      653     1253    1                  2 * PTR INIT(ADDR(RAW_IOERR)),
      654     1254    1                  2 * PTR INIT(ADDR(RAW_EDAC)),
      655     1255    1                  2 * PTR INIT(ADDR(RAW_FEPERR)),
      656     1256    1                  2 * PTR INIT(ADDR(RAW_PROCERR)),
      657     1257    1                  2 * PTR INIT(ADDR(RAW_SPURINT)),
      658     1258    1                  2 * PTR INIT(ADDR(RAW_FEPFLT)),
      659     1259    1                  2 * PTR INIT(ADDR(RAW_SCREECH)),
      660     1260    1                  2 * PTR INIT(ADDR(RAW_FI)),
      661     1261    1                  2 * PTR INIT(ADDR(RAW_OSFI)),
      662     1262    1                  2 * PTR INIT(ADDR(RAW_FEPEVENT)),
      663     1263    1                  2 * PTR INIT(ADDR(RAW_GABRT)),
      664     1264    1                  2 * PTR INIT(ADDR(RAW_SUA)),
      665     1265    1                  2 * PTR INIT(ADDR(RAW_SNAP)),
      666     1266    1                  2 * PTR INIT(ADDR(RAW_CGERR)),
      667     1267    1                  2 * PTR INIT(ADDR(RAW_FEPDUMP)),
      668     1268    1                  2 * PTR INIT(ADDR(RAW_LOST)),
      669     1269    1                  2 * PTR INIT(ADDR(RAW_CHNGAARD)),
      670     1270    1                  2 * PTR INIT(ADDR(RAW_DEVSTATS2)),
PL6.E3A0      #001=TH_REPORT_D File=TH_REPORT_D.:E05TSI                          WED 07/30/97 06:17 Page:42
      671     1271    1                  2 * PTR INIT(ADDR(RAW_DEVSTATS3)),
      672     1272    1                  2 * PTR INIT(ADDR(RAW_MIRROR)),
      673     1273    1                  2 * PTR INIT(ADDR(NIL));
      674     1274        %EJECT;
PL6.E3A0      #001=TH_REPORT_D File=TH_REPORT_D.:E05TSI                          WED 07/30/97 06:17 Page:43
      675     1275    1   DCL 1 TH_DETAIL_FMT CONSTANT SYMDEF ALIGNED,
      676     1276    1                  2 * PTR INIT(ADDR(NIL)),
      677     1277    1                  2 * PTR INIT(ADDR(RAW_CMPSTRT)),
      678     1278    1                  2 * PTR INIT(ADDR(RAW_MOUNT)),
      679     1279    1                  2 * PTR INIT(ADDR(RAW_MOUNT)),
      680     1280    1                  2 * PTR INIT(ADDR(RAW_TIMESTAMP)),
      681     1281    1                  2 * PTR INIT(ADDR(RAW_OPER)),
      682     1282    1                  2 * PTR INIT(ADDR(RAW_REX)),
      683     1283    1                  2 * PTR INIT(ADDR(RAW_FWLOAD)),
      684     1284    1                  2 * PTR INIT(ADDR(RAW_DIAG)),
      685     1285    1                  2 * PTR INIT(ADDR(RAW_SYSCON)),
      686     1286    1                  2 * PTR INIT(ADDR(RAW_SYSID)),
      687     1287    1                  2 * PTR INIT(ADDR(EXTENDED_MPCSTAT)),
      688     1288    1                  2 * PTR INIT(ADDR(RAW_ANLZ)),
      689     1289    1                  2 * PTR INIT(ADDR(RAW_ZAP)),
      690     1290    1                  2 * PTR INIT(ADDR(EXTENDED_DEVSTATS)),
      691     1291    1                  2 * PTR INIT(ADDR(DETAIL_CHANTRAN)),
      692     1292    1                  2 * PTR INIT(ADDR(DETAIL_MSOSSAYS)),
      693     1293    1                  2 * PTR INIT(ADDR(DETAIL_CP6SAYS)),
      694     1294    1                  2 * PTR INIT(ADDR(DETAIL_IOERR)),
      695     1295    1                  2 * PTR INIT(ADDR(RAW_EDAC)),
      696     1296    1                  2 * PTR INIT(ADDR(DETAIL_FEPERR)),
      697     1297    1                  2 * PTR INIT(ADDR(DETAIL_PROCERR)),
      698     1298    1                  2 * PTR INIT(ADDR(RAW_SPURINT)),
      699     1299    1                  2 * PTR INIT(ADDR(RAW_FEPFLT)),
      700     1300    1                  2 * PTR INIT(ADDR(RAW_SCREECH)),
      701     1301    1                  2 * PTR INIT(ADDR(DETAIL_FI)),
      702     1302    1                  2 * PTR INIT(ADDR(RAW_OSFI)),
      703     1303    1                  2 * PTR INIT(ADDR(RAW_FEPEVENT)),
      704     1304    1                  2 * PTR INIT(ADDR(RAW_GABRT)),
      705     1305    1                  2 * PTR INIT(ADDR(RAW_SUA)),
      706     1306    1                  2 * PTR INIT(ADDR(RAW_SNAP)),
      707     1307    1                  2 * PTR INIT(ADDR(DETAIL_CGERR)),
      708     1308    1                  2 * PTR INIT(ADDR(RAW_FEPDUMP)),
      709     1309    1                  2 * PTR INIT(ADDR(RAW_LOST)),
      710     1310    1                  2 * PTR INIT(ADDR(RAW_CHNGAARD)),
      711     1311    1                  2 * PTR INIT(ADDR(EXTENDED_DEVSTATS2)),
PL6.E3A0      #001=TH_REPORT_D File=TH_REPORT_D.:E05TSI                          WED 07/30/97 06:17 Page:44
      712     1312    1                  2 * PTR INIT(ADDR(EXTENDED_DEVSTATS3)),
      713     1313    1                  2 * PTR INIT(ADDR(RAW_MIRROR)),
      714     1314    1                  2 * PTR INIT(ADDR(NIL));
      715     1315        %EJECT;
PL6.E3A0      #001=TH_REPORT_D File=TH_REPORT_D.:E05TSI                          WED 07/30/97 06:17 Page:45
      716     1316    1   DCL 1 TH_EXTENDED_FMT CONSTANT SYMDEF ALIGNED,
      717     1317    1                  2 * PTR INIT(ADDR(NIL)),
      718     1318    1                  2 * PTR INIT(ADDR(RAW_CMPSTRT)),
      719     1319    1                  2 * PTR INIT(ADDR(RAW_MOUNT)),
      720     1320    1                  2 * PTR INIT(ADDR(RAW_MOUNT)),
      721     1321    1                  2 * PTR INIT(ADDR(RAW_TIMESTAMP)),
      722     1322    1                  2 * PTR INIT(ADDR(RAW_OPER)),
      723     1323    1                  2 * PTR INIT(ADDR(RAW_REX)),
      724     1324    1                  2 * PTR INIT(ADDR(RAW_FWLOAD)),
      725     1325    1                  2 * PTR INIT(ADDR(RAW_DIAG)),
      726     1326    1                  2 * PTR INIT(ADDR(RAW_SYSCON)),
      727     1327    1                  2 * PTR INIT(ADDR(RAW_SYSID)),
      728     1328    1                  2 * PTR INIT(ADDR(EXTENDED_MPCSTAT)),
      729     1329    1                  2 * PTR INIT(ADDR(RAW_ANLZ)),
      730     1330    1                  2 * PTR INIT(ADDR(RAW_ZAP)),
      731     1331    1                  2 * PTR INIT(ADDR(EXTENDED_DEVSTATS)),
      732     1332    1                  2 * PTR INIT(ADDR(DETAIL_CHANTRAN)),
      733     1333    1                  2 * PTR INIT(ADDR(DETAIL_MSOSSAYS)),
      734     1334    1                  2 * PTR INIT(ADDR(DETAIL_CP6SAYS)),
      735     1335    1                  2 * PTR INIT(ADDR(EXTENDED_IOERR)),
      736     1336    1                  2 * PTR INIT(ADDR(RAW_EDAC)),
      737     1337    1                  2 * PTR INIT(ADDR(EXTENDED_FEPERR)),
      738     1338    1                  2 * PTR INIT(ADDR(DETAIL_PROCERR)),
      739     1339    1                  2 * PTR INIT(ADDR(RAW_SPURINT)),
      740     1340    1                  2 * PTR INIT(ADDR(RAW_FEPFLT)),
      741     1341    1                  2 * PTR INIT(ADDR(RAW_SCREECH)),
      742     1342    1                  2 * PTR INIT(ADDR(DETAIL_FI)),
      743     1343    1                  2 * PTR INIT(ADDR(RAW_OSFI)),
      744     1344    1                  2 * PTR INIT(ADDR(RAW_FEPEVENT)),
      745     1345    1                  2 * PTR INIT(ADDR(RAW_GABRT)),
      746     1346    1                  2 * PTR INIT(ADDR(RAW_SUA)),
      747     1347    1                  2 * PTR INIT(ADDR(RAW_SNAP)),
      748     1348    1                  2 * PTR INIT(ADDR(DETAIL_CGERR)),
      749     1349    1                  2 * PTR INIT(ADDR(RAW_FEPDUMP)),
      750     1350    1                  2 * PTR INIT(ADDR(RAW_LOST)),
      751     1351    1                  2 * PTR INIT(ADDR(RAW_CHNGAARD)),
      752     1352    1                  2 * PTR INIT(ADDR(EXTENDED_DEVSTATS2)),
PL6.E3A0      #001=TH_REPORT_D File=TH_REPORT_D.:E05TSI                          WED 07/30/97 06:17 Page:46
      753     1353    1                  2 * PTR INIT(ADDR(EXTENDED_DEVSTATS3)),
      754     1354    1                  2 * PTR INIT(ADDR(RAW_MIRROR)),
      755     1355    1                  2 * PTR INIT(ADDR(NIL));
      756     1356        %EJECT;
PL6.E3A0      #001=TH_REPORT_D File=TH_REPORT_D.:E05TSI                          WED 07/30/97 06:17 Page:47
      757     1357        /* FORMAT STRUCTURES FOR HWE REPORTS FOR ELAN */
      758     1358        /* MEMORY REPORT */
      759     1359    1   DCL 1 MEM_H1 CONSTANT,
      760     1360    1         2 * CHAR(0) INIT('LAST%/ERROR PORT STORE UNIT SLOT CHIP COUNT%/'),
      761     1361    1         2 * CHAR(0) INIT('----- ---- ---------- ---- ---- -----%10P');
      762     1362    1   DCL MEM_F1 CHAR(0) CONSTANT INIT(
      763     1363    1   '%5A %3P%9-%T%16-%T%25-%T%29-%T%2.1.0.18P%5.18D%10P');
      764     1364        %CTL (NAME=HWE_MEM,NHDR=1,NFMT=1,HDRFLG=FIRSTTIME,V1=MEM_H1,V2=MEM_F1);
      765     1377        %EJECT;
PL6.E3A0      #001=TH_REPORT_D File=TH_REPORT_D.:E05TSI                          WED 07/30/97 06:17 Page:48
      766     1378        /* IOM REPORT */
      767     1379        %CTL (NAME=HWE_IOM,NHDR=0,NFMT=0);
      768     1392        %EJECT;
PL6.E3A0      #001=TH_REPORT_D File=TH_REPORT_D.:E05TSI                          WED 07/30/97 06:17 Page:49
      769     1393        /* FEP REPORT */
      770     1394        %CTL (NAME=HWE_FEP,NHDR=0,NFMT=0);
      771     1407        %EJECT;
PL6.E3A0      #001=TH_REPORT_D File=TH_REPORT_D.:E05TSI                          WED 07/30/97 06:17 Page:50
      772     1408        /* PERIPHERAL REPORT */
      773     1409    1   DCL 1 PERIPH_H1 CONSTANT,
      774     1410    1         2 * CHAR(0) INIT(
              1410        '%7-TRY ERR%54-STATUS CODES%/TIME  CNT CNT I-CC-DD DEV  IDCW SN%45-MAJOR%62-MINOR%/'
              1410                  ),
      775     1411    1         2 * CHAR(0) INIT(
              1411        '----- --- --- ------- ---- ---- ------ ---------------- ----------------------%10P'
              1411                  );
      776     1412    1   DCL PERIPH_F1 CHAR(0) CONSTANT INIT(
      777     1413    1   '%5A %2.5.2P%3.9D %2.5.3P%3.9D %2.5.0.6P%1.3D-%2.9ZD-%2.5P%2.6ZD %2.20P%4A   %2.8P%2
              1413        .6ZO %2.22P%6A %3P%T%57-%T%74-%2.1P%2.6ZO/%2.6ZO %10P'
      778     1414    1   );
      779     1415        %CTL (NAME=HWE_PERIPH,NHDR=1,NFMT=1,HDRFLG=FIRSTTIME,V1=PERIPH_H1,V2=PERIPH_F1);
      780     1428        %EJECT;
PL6.E3A0      #001=TH_REPORT_D File=TH_REPORT_D.:E05TSI                          WED 07/30/97 06:17 Page:51
      781     1429        /* MPC REPORT */
      782     1430        %CTL (NAME=HWE_MPC,NHDR=0,NFMT=0);
      783     1443        %EJECT;
PL6.E3A0      #001=TH_REPORT_D File=TH_REPORT_D.:E05TSI                          WED 07/30/97 06:17 Page:52
      784     1444    1   DCL 1 TH_HWE_FMT CONSTANT SYMDEF ALIGNED,
      785     1445    1                  2 * PTR INIT(ADDR(NIL)),
      786     1446    1                  2 * PTR INIT(ADDR(HWE_MEM)),
      787     1447    1                  2 * PTR INIT(ADDR(HWE_IOM)),
      788     1448    1                  2 * PTR INIT(ADDR(HWE_FEP)),
      789     1449    1                  2 * PTR INIT(ADDR(HWE_PERIPH)),
      790     1450    1                  2 * PTR INIT(ADDR(HWE_MPC)),
      791     1451    1                  2 * PTR INIT(ADDR(NIL));
      792     1452    1   END TH_REPORT_D;

PL6.E3A0      #001=TH_REPORT_D File=TH_REPORT_D.:E05TSI                          WED 07/30/97 06:17 Page:53
      No diagnostics issued in procedure TH_REPORT_D.

   No code generated for procedure TH_REPORT_D .
   Procedure TH_REPORT_D requires 4 words of local(AUTO) storage.

    No errors detected in file TH_REPORT_D.:E05TSI    .

PL6.E3A0      #001=TH_REPORT_D File=TH_REPORT_D.:E05TSI                          WED 07/30/97 06:17 Page:54

 Object Unit name= TH_REPORT_D                                File name= TH_REPORT_D.:E05TOU
 UTS= JUL 30 '97 06:17:55.72 WED                              Compiler= PL-6/E31         Sev=      00
 SharedLib= :SHARED_SYSTEM                                    Alt SharedLib=


    ****  Control sections  ****

 Sect   Type Bound  Init  Size OctSiz  Section name(segment info)
    0  RoData even  UTS   4921  11471  TH_REPORT_D
    1   Proc  even  none     0      0  TH_REPORT_D

    ****  Entry defs  ****

                              Check   Calling
                             calling  sequence
  Sect OctLoc Primary Altret sequence   type   Parms  Name
     1      0   yes            yes     ~proc       0  TH_REPORT_D

  ****  Data defs  ****

 Sect OctLoc  Name                           Sect OctLoc  Name
    0  10726  TH_RAW_FMT                         0  10775  TH_DETAIL_FMT
    0  11044  TH_EXTENDED_FMT                    0  11462  TH_HWE_FMT

  ****  Segment refs  ****

  Flags:  r = read only, s = secondary
Flgs Name                             Flgs Name                             Flgs Name
     NULLSID                               ISSID
PL6.E3A0      #001=TH_REPORT_D File=TH_REPORT_D.:E05TSI                          WED 07/30/97 06:17 Page:55

        1        1        /*M* TH_REPORT_D - STATIC DATA FOR REPORT FORMATS IN ELAN */
        2        2        /*T***********************************************************/
        3        3        /*T*                                                         */
        4        4        /*T* Copyright (c) Bull HN Information Systems Inc., 1997    */
        5        5        /*T*                                                         */
        6        6        /*T***********************************************************/
        7        7        TH_REPORT_D: PROC;
        8        8        /**/
        9        9        %MACRO CTL (NAME=GARBAGE,
       10       10                    NHDR=0,
       11       11                    NFMT=0,
       12       12                    HDRFLG(FIRSTTIME='1'B,ALWAYS='0'B)='1'B,/*TELLS IF HDR PRINTS ONCE*/
       13       13                    SPECIAL(YES='1'B,NO='0'B)='0'B,/*IF ADDITIONAL DATA TO CHECK*/
       14       14                    V1=NIL,V2=NIL,V3=NIL,V4=NIL,V5=NIL,
       15       15                    V6=NIL,V7=NIL,V8=NIL,V9=NIL,V10=NIL);
       16       16        DCL 1 NAME CONSTANT DALIGNED,
       17       17                2 * UBIN BYTE UNAL INIT(NHDR),      /* NHDR */
       18       18                2 * UBIN BYTE UNAL INIT(NFMT),     /* NFMT */
       19       19                2 * BIT(1) UNAL INIT(HDRFLG),    /* HDRFLG */
       20       20                2 * BIT(1) UNAL INIT(SPECIAL),    /* SPECIAL */
       21       21                2 * BIT(16) UNAL INIT('0'B),
       22       22                2 * UBIN ALIGNED INIT(0),
       23       23                2 * (0:10) BIT(72) INIT(VECTOR(NIL),VECTOR(V1),VECTOR(V2),
       24       24                                        VECTOR(V3),VECTOR(V4),VECTOR(V5),VECTOR(V6),
       25       25                                        VECTOR(V7),VECTOR(V8),VECTOR(V9),
       26       26                                        VECTOR(V10));
       27       27        %MEND;
       28       28        %EJECT;
PL6.E3A0      #001=TH_REPORT_D File=TH_REPORT_D.:E05TSI                          WED 07/30/97 06:17 Page:56
       29       29        /* COMPONENT STARTUP */
       30       30    1   DCL CMPSTRT_H1 CHAR(0) CONSTANT INIT(
       31       31        '%/<<<< COMPONENT STARTUP >>>> (101)%2/
       32       32        TIME  COMPONENT LAST STATE CHANGE NEW STATE%/
       33       33    1   ----- --------- ----------------- ---------%10P');
       34       34    1   DCL CMPSTRT_F1 CHAR(0) CONSTANT INIT(
       35       35    1   '%5A%2P %4A%D%17-%3P%T%35-%T%10P');
       36       36        %CTL (NAME=RAW_CMPSTRT,NHDR=1,NFMT=1,HDRFLG=FIRSTTIME,V1=CMPSTRT_H1,V2=CMPSTRT_F1);
       37       49        %EJECT;
PL6.E3A0      #001=TH_REPORT_D File=TH_REPORT_D.:E05TSI                          WED 07/30/97 06:17 Page:57
       38       50        /* MOUNT AND DISMOUNT */
       39       51    1   DCL MOUNT_H1 CHAR(0) CONSTANT INIT(
       40       52    1   '%/<<<< VOLUME MOUNT/DISMOUNT >>>> %10P%2/');
       41       53    1   DCL MOUNT_H2 CHAR(0) CONSTANT INIT(
       42       54        'TIME  VOLUME PSN    DEVNM    REQT%/
       43       55    1   ----- ------ ------ -------- -----%10P');
       44       56    1   DCL MOUNT_F1 CHAR(0) CONSTANT INIT(
       45       57    1   '%5A %2.1P%6A %6A %8A %5..0U %3P%T%10P');
       46       58        %CTL (NAME=RAW_MOUNT,NHDR=2,NFMT=1,HDRFLG=FIRSTTIME,
       47       59                V1=MOUNT_H1,V2=MOUNT_H2,V3=MOUNT_F1);
       48       72        %EJECT;
PL6.E3A0      #001=TH_REPORT_D File=TH_REPORT_D.:E05TSI                          WED 07/30/97 06:17 Page:58
       49       73        /* TIMESTAMP */
       50       74    1   DCL TIMESTAMP_H1 CHAR(0) CONSTANT INIT(
       51       75    1   '%/<<<< TIMESTAMP >>>>   %5A%10P%/');
       52       76        %CTL (NAME=RAW_TIMESTAMP,NHDR=1,NFMT=0,HDRFLG=ALWAYS,V1=TIMESTAMP_H1);
       53       89        %EJECT;
PL6.E3A0      #001=TH_REPORT_D File=TH_REPORT_D.:E05TSI                          WED 07/30/97 06:17 Page:59
       54       90        /* OPERATOR INPUT */
       55       91    1   DCL OPER_H1 CHAR(0) CONSTANT INIT(
       56       92    1   '%/<<<< OPERATOR INPUT >>>> %10P%/');
       57       93    1   DCL OPER_F1 CHAR(0) CONSTANT INIT(
       58       94    1   '%5A: %2.7P%126A%10P');
       59       95        %CTL (NAME=RAW_OPER,NHDR=1,NFMT=1,HDRFLG=ALWAYS,V1=OPER_H1,V2=OPER_F1);
       60      108        %EJECT;
PL6.E3A0      #001=TH_REPORT_D File=TH_REPORT_D.:E05TSI                          WED 07/30/97 06:17 Page:60
       61      109    1   DCL REX_H1 CHAR(0) CONSTANT INIT(
       62      110    1   '%/<<<< RESOURCE EXHAUSTED >>>>  %10P%/');
       63      111        %CTL (NAME=RAW_REX,NHDR=1,NFMT=0,HDRFLG=ALWAYS,V1=REX_H1);
       64      124        %EJECT;
PL6.E3A0      #001=TH_REPORT_D File=TH_REPORT_D.:E05TSI                          WED 07/30/97 06:17 Page:61
       65      125        /* FIRMWARE LOAD */
       66      126    1   DCL FWLOAD_H1 CHAR(0) CONSTANT INIT(
       67      127    1   '%/<<<< FIRMWARE LOAD >>>>  %10P%2/');
       68      128    1   DCL FWLOAD_F1 CHAR(0) CONSTANT INIT(
       69      129    1   '%5A FIRMWARE LOAD %3P%T ON %2P%8A%10P');
       70      130        %CTL (NAME=RAW_FWLOAD,NHDR=1,NFMT=1,HDRFLG=FIRSTTIME,V1=FWLOAD_H1,V2=FWLOAD_F1);
       71      143        %EJECT;
PL6.E3A0      #001=TH_REPORT_D File=TH_REPORT_D.:E05TSI                          WED 07/30/97 06:17 Page:62
       72      144        /* DIAGNOSTIC OPEN */
       73      145    1   DCL DIAG_H1 CHAR(0) CONSTANT INIT(
       74      146        '%/<<<< DIAGNOSTIC OPEN >>>> (110)%2/
       75      147    1   TIME  ACCOUNT  USER NAME    SYSID  DEV  TEST%10P');
       76      148    1   DCL DIAG_H2 CHAR(0) CONSTANT INIT(
       77      149    1   '----- -------- ------------ ----- ---- --------------%10P');
       78      150    1   DCL DIAG_F1 CHAR(0) CONSTANT INIT(
       79      151    1   '%5A %2P%8A %12A %5.18D %2S%4A %3P%T%10P');
       80      152       %CTL (NAME=RAW_DIAG,NHDR=2,NFMT=1,HDRFLG=FIRSTTIME,V1=DIAG_H1,V2=DIAG_H2,V3=DIAG_F1)
               152            ;
       81      165        %EJECT;
PL6.E3A0      #001=TH_REPORT_D File=TH_REPORT_D.:E05TSI                          WED 07/30/97 06:17 Page:63
       82      166        /* SYSCON ENTRIES */
       83      167    1   DCL SYSCON_H1 CHAR(0) CONSTANT INIT(
       84      168        '%/<<<< SYSCON ENTRY >>>> (111)%2/
       85      169    1   TIME  FUNCTION  COMP I-CCC DEVNAME  ACCOUNT  USER NAME    SYSID%10P');
       86      170    1   DCL SYSCON_H2 CHAR(0) CONSTANT INIT(
       87      171    1   '----- --------- ---- ----- -------- -------- ------------ -----%10P');
       88      172    1   DCL SYSCON_F1 CHAR(0) CONSTANT INIT(
       89      173    1   '%5A%3P %T%17-%T %22-%T%28-%T%37-%2.3P%8A %12A %6.18D%10P');
       90      174        %CTL (NAME=RAW_SYSCON,NHDR=2,NFMT=1,HDRFLG=FIRSTTIME,V1=SYSCON_H1,V2=SYSCON_H2,V3=
               174            SYSCON_F1);
       91      187        %EJECT;
PL6.E3A0      #001=TH_REPORT_D File=TH_REPORT_D.:E05TSI                          WED 07/30/97 06:17 Page:64
       92      188        /* SYSID */
       93      189    1   DCL SYSID_H1 CHAR(0) CONSTANT INIT(
       94      190        '%/<<<< SYSID >>>> (112)%2/
       95      191    1   TIME  SITE ID VERSION PATCHWEEK TIMESTAMP      ANSPROT SITE NAME%10P');
       96      192    1   DCL SYSID_H2 CHAR(0) CONSTANT INIT(
       97      193    1   '----- ------- ------- --------- -------------- ------- ------------%10P');
       98      194    1   DCL SYSID_F1 CHAR(0) CONSTANT INIT(
       99      195    1   '%5A %2.54P%6A%2.52P%18-%4A%2.56P%25-%4A    %3P%T    %2.51..33P%1.3D   %3P%15S%T%10
               195        P');
      100      196        %CTL (NAME=RAW_SYSID,NHDR=2,NFMT=1,HDRFLG=FIRSTTIME,V1=SYSID_H1,V2=SYSID_H2,V3=
               196            SYSID_F1);
      101      209        %EJECT;
PL6.E3A0      #001=TH_REPORT_D File=TH_REPORT_D.:E05TSI                          WED 07/30/97 06:17 Page:65
      102      210        /* MPC DEVICE STATISTICS */
      103      211    1   DCL DEVSTAT_H1 CHAR(0) CONSTANT INIT(
      104      212    1   '%2/<<<< DEVICE STATISTICS >>>> %/%10P');
      105      213
      106      214
      107      215    1   DCL 1 DEVSTAT_H3 CONSTANT,          /* MPC & TPUR TAPE RAW FORMAT */
      108      216    1       2 * CHAR(0) INIT(
      109      217    1   '%2/                 RECS   RECS    WRITE  READ  TRANSFER  MARG  RECS W/SNG MTC%/')
               217            ,
      110      218    1       2 * CHAR(0) INIT(
      111      219    1   'TIME   DEV/MPC   READ  WRITTEN   ERRS  ERRS  TIM ERRS  RECS   TRK CORR RD CNT%/'),
      112      220    1       2 * CHAR(0) INIT(
      113      221    1   '----- --------- ------ ------- ----- ------ -------- ------ ---------- ------%/%10
               221        P');
      114      222
      115      223    1   DCL 1 DEVSTAT_F1 CHAR(0) CONSTANT INIT(
      116      224    1   '%1P%5A %2.0P%4A/%2.2P%4A%2.5P %6.36D %7.36D  %5.36D  %5.36D   %6.36D %6.36D   %7.3
               224        6D %6.36D%/%10P');
      117      225
      118      226        %CTL (NAME=RAW_DEVSTATS,NHDR=2,NFMT=1,HDRFLG=FIRSTTIME,V1=DEVSTAT_H1,V2=DEVSTAT_H3,
               226            V3=DEVSTAT_F1);
      119      239
      120      240
      121      241    1   DCL 1 DEVSTAT_H2 CONSTANT,       /* DISC RAW FORMAT HEADER */
      122      242    1       2 * CHAR(0) INIT(
      123      243    1   '%2/                 # OF   SECTORS SECTORS  SEEK            CORR    UNCORR  OTHER%
               243        /'),
      124      244    1       2 * CHAR(0) INIT(
      125      245    1   'TIME   DEV/MPC   SEEKS   READ   WRITTEN ERRORS RETRIES EDAC ERS EDAC ERS  ERRS%/')
               245            ,
      126      246    1       2 * CHAR(0) INIT(
      127      247    1  '----- --------- ------- ------- ------- ------ ------- -------- -------- -------%10
               247        P');
      128      248
      129      249
      130      250    1   DCL DEVSTAT2_F2 CHAR(0) CONSTANT INIT(      /* MPC & DAU DISC RAW FORMAT */
      131      251    1  '%1P%5A %2.0P%4A/%2.2P%4A %2.5P%7.36D %2.7P%7.36D %2.6P%7.36D%3.0P%7.36D %2.19P%7.36
PL6.E3A0      #001=TH_REPORT_D File=TH_REPORT_D.:E05TSI                          WED 07/30/97 06:17 Page:66
               251        D  %2.16P%7.36D  %7.36D %3.1P%7.36D%/%10P');
      132      252
      133      253        %CTL(NAME=RAW_DEVSTATS2,NHDR=2,NFMT=1,HDRFLG=FIRSTTIME,V1=DEVSTAT_H1,
      134      254             V2=DEVSTAT_H2,V3=DEVSTAT2_F2);
      135      267
      136      268
      137      269    1   DCL 1 DEVSTAT3_F2 CHAR(0) CONSTANT INIT(     /* MDS DISC RAW FORMAT */
      138      270    1  '%1P%5A %2.0P%4A/%2.2P%4A %3.0P%7.36D %2.11P%7.36D %2.13P%7.36D%2.7.2P%7.18D%2.14P%8
               270        .36D %2.8P%8.18D %8.18D %2.15P%7.36D%/%10P');
      139      271
      140      272        %CTL(NAME=RAW_DEVSTATS3,NHDR=2,NFMT=1,HDRFLG=FIRSTTIME,V1=DEVSTAT_H1,
      141      273             V2=DEVSTAT_H2,V3=DEVSTAT3_F2);
      142      286
      143      287
      144      288    1   DCL 1 DEVSTAT_F2 CONSTANT,          /* MPC & TPUR TAPE EXT FORMAT */
      145      289    1       2 * CHAR(0) INIT(
      146      290    1   '%2/                 RECS   RECS    WRITE  READ  TRANSFER  MARG  RECS W/SNG MTC%/')
               290            ,
      147      291    1       2 * CHAR(0) INIT(
      148      292    1   'TIME   DEV/MPC   READ  WRITTEN   ERRS  ERRS  TIM ERRS  RECS   TRK CORR RD CNT%/'),
      149      293    1       2 * CHAR(0) INIT(
      150      294    1   '----- --------- ------ ------- ----- ------ -------- ------ ---------- ------%/%10
               294        P'),
      151      295    1       2 * CHAR(0) INIT(
      152      296    1   '%1P%5A %2.0P%4A/%2.2P%4A%2.5P %6.36D %7.36D  %5.36D  %5.36D   %6.36D %6.36D   %7.3
               296        6D %6.36D%/%10P');
      153      297
      154      298        %CTL (NAME=EXTENDED_DEVSTATS,NHDR=1,NFMT=1,HDRFLG=FIRSTTIME,V1=DEVSTAT_H1,V2=
               298            DEVSTAT_F2);
      155      311
      156      312
      157      313    1   DCL 1 DEVSTAT2_F1 CONSTANT,         /* MPC & DAU DISC EXT FORMAT */
      158      314    1       2 * CHAR(0) INIT(
      159      315    1   '%2/                 # OF   SECTORS SECTORS # DATA  INCOMP HDR VER  TRANS  DATA CHK
               315        %/'),
      160      316    1       2 * CHAR(0) INIT(
      161      317    1   'TIME   DEV/MPC   SEEKS  WRITTEN  READ   TR CMDS  SEEKS  ERRS  TIM ERRS ALERTS%/'),
PL6.E3A0      #001=TH_REPORT_D File=TH_REPORT_D.:E05TSI                          WED 07/30/97 06:17 Page:67
      162      318    1       2 * CHAR(0) INIT(
      163      319    1  '----- --------- ------- ------- ------- ------- ------ ------- -------- --------%/%
               319        10P'),
      164      320    1       2 * CHAR(0) INIT(
      165      321    1           '%1P%5A %2.0P%4A/%2.2P%4A%2.5P%4( %7.36D%)%7.36D %7.36D%2(  %7.36D%)%2/'),
      166      322    1       2 * CHAR(0) INIT(
      167      323    1   '            CNT CHK DLI PAR ALT TRKS   CORR    UNCORR  LATENCY DATA    SYNC%/'),
      168      324    1       2 * CHAR(0) INIT(
      169      325    1   '             ALERTS  ERRS  ACCESSED EDAC ERS EDAC ERS RETRIES RETRIES FAILURES%/')
               325            ,
      170      326    1       2 * CHAR(0) INIT(
      171      327    1   '           ------- ------- -------- -------- -------- ------- ------- --------%/%1
               327        0P'),
      172      328    1       2 * CHAR(0) INIT('          %2.13P  %7.36D %7.36D  %7.36D  %7.36D %7.36D %7.36D
               328         %7.36D  %7.36D%/%10P');
      173      329
      174      330        %CTL (NAME=EXTENDED_DEVSTATS2, NHDR=1,NFMT=1,HDRFLG=FIRSTTIME,
      175      331              V1=DEVSTAT_H1,V2=DEVSTAT2_F1);
      176      344
      177      345
      178      346    1   DCL 1 DEVSTAT3_F1 CONSTANT,          /* MDS DISC EXT FORMAT */
      179      347    1       2 * CHAR(0) INIT(
      180      348    1   '%2/                   BYTES READ BYTES WRT   # OF     # OF    DATA CHKS DATA CHKS%
               348        /'),
      181      349    1       2 * CHAR(0) INIT(
      182      350    1   'TIME    DEV/MPC     (1024K)    (1024K)  SEEKS(1K) SEEK ERRS CORRECTED UNCORR %/%10
               350        P'),
      183      351    1       2 * CHAR(0) INIT(
      184      352    1   '-----  ---------  ---------- --------- --------- --------- --------- ---------%/%1
               352        0P'),
      185      353    1       2 * CHAR(0) INIT(
               353                '%1P%5A  %2.0P%4A/%2.2P%4A   %2.5P%2(  %8.36D%)%4(  %8.18D%)%2/'),
      186      354    1       2 * CHAR(0) INIT(
      187      355    1   '             # OF     # OF      SECTORS    # OF    SECTORS    # OF   LATENCIES%/')
               355            ,
      188      356    1       2 * CHAR(0) INIT(
      189      357    1   '             SEEKS  SEEK/READS   READ    SEEK/WRTS WRITTEN   RETRIES    LOST%/'),
PL6.E3A0      #001=TH_REPORT_D File=TH_REPORT_D.:E05TSI                          WED 07/30/97 06:17 Page:68
      190      358    1       2 * CHAR(0) INIT(
      191      359    1   '            ------- ---------- --------  --------- -------- -------- ---------%/')
               359            ,
      192      360    1       2 * CHAR(0) INIT('           %2.9P%8.36D  %8.36D%5(  %8.36D%)%/%10P');
      193      361
      194      362        %CTL (NAME=EXTENDED_DEVSTATS3, NHDR=1,NFMT=1,HDRFLG=FIRSTTIME,
      195      363             V1=DEVSTAT_H1,V2=DEVSTAT3_F1);
      196      376        %EJECT;
PL6.E3A0      #001=TH_REPORT_D File=TH_REPORT_D.:E05TSI                          WED 07/30/97 06:17 Page:69
      197      377        /* MPC STATISTICS */
      198      378    1   DCL MPCSTAT_H1 CHAR(0) CONSTANT INIT(
      199      379    1   '%2/<<<< MPC STATISTICS >>>> %/%10P');
      200      380    1   DCL 1 MPCSTAT_F1 CONSTANT,
      201      381    1       2 * CHAR(0) INIT(
      202      382    1   '%2/TIME  MPC   FW                                PORT 0   PORT 1   PORT 2  PORT 3%
               382        /'),
      203      383    1       2 * CHAR(0) INIT(
      204      384    1  '----- ---- ---- ---------------------------- -------- -------- -------- --------%/'
               384            ),
      205      385    1       2 * CHAR(0) INIT(
      206      386    1   '%1P%5A %2.0P%4A %2.2P%4A PDSI RECEIVER ERRORS        %2.3P%4(  %7.18D%)%/'),
      207      387    1       2 * CHAR(0) INIT(
      208      388    1   '                PDSI TRANSMITTER ERRORS     %2.5P%4(  %7.18D%)%/'),
      209      389    1       2 * CHAR(0) INIT(
      210      390    1   '                CARDS PUNCHED               %2.7P%4(  %7.18D%)%/'),
      211      391    1       2 * CHAR(0) INIT(
      212      392    1   '                CARDS READ                  %2.9P%4(  %7.18D%)%/'),
      213      393    1       2 * CHAR(0) INIT(
      214      394    1   '                FRAMES RECEIVED OVER PDSI   %2.11P%4(  %7.18D%)%/'),
      215      395    1       2 * CHAR(0) INIT(
      216      396    1   '                FRAMES TRANSMITTED OVER PDSI%2.13P%4(  %7.18D%)%/'),
      217      397    1       2 * CHAR(0) INIT(
      218      398    1   '                CONNECT PCWS                %2.15P%4(  %7.18D%)%/'),
      219      399    1       2 * CHAR(0) INIT(
      220      400    1   '                PCWS ON IOM INTERFACE       %2.17P%4(  %7.18D%)%/'),
      221      401    1       2 * CHAR(0) INIT(
      222      402    1   '                IOM INTERFACE TRANSACTIONS  %2.19P%4( %8.36D%)%/'),
      223      403    1       2 * CHAR(0) INIT(
      224      404    1   '                IOM INTERFACE WD TRANSFERS  %2.23P%4( %8.36D%)%/'),
      225      405    1       2 * CHAR(0) INIT(
      226      406    1   '                LINES PRINTED               %2.27P%4(  %7.18D%)%/'),
      227      407    1       2 * CHAR(0) INIT(
      228      408    1   '                RETRANSMISSIONS OVER PDSI   %2.29P%4(  %7.18D%)%/'),
      229      409    1       2 * CHAR(0) INIT(
      230      410    1   '                PAGES PRINTED               %2.31P%4(  %7.18D%)%/'),
      231      411    1       2 * CHAR(0) INIT(
PL6.E3A0      #001=TH_REPORT_D File=TH_REPORT_D.:E05TSI                          WED 07/30/97 06:17 Page:70
      232      412    1   '                ELAPSED TIME:  %2.33P%9.36D MINS%/'),
      233      413    1       2 * CHAR(0) INIT(
      234      414    1   '                LOST INTERRUPTS: %2.34P%7.18D%/'),
      235      415    1       2 * CHAR(0) INIT(
      236      416    1   '                UNSOLICITED FRAMES: %2.34.2P%7.18D%/'),
      237      417    1       2 * CHAR(0) INIT(
      238      418    1   '                  PROM 0:   %2.35..1P%2.8ZH    PROM 1:   %2.35..10P%2.8ZH    '),
      239      419    1       2 * CHAR(0) INIT(
      240      420    1   'PROM 2:   %2.35..19P%2.8ZH    PROM 3:   %2.35..28P%2.8ZH%/'),
      241      421    1       2 * CHAR(0) INIT(
      242      422    1   '                  PROM 4/5: %2.36..1P%2.8ZH    PROM 6/7: %2.36..10P%2.8ZH    '),
      243      423    1       2 * CHAR(0) INIT(
      244      424    1   'PROM 8:   %2.36..19P%2.8ZH    CONFIG:   %2.36..28P%2.8ZH%3/%10P');
      245      425        %CTL (NAME=EXTENDED_MPCSTAT,NHDR=1,NFMT=1,HDRFLG=FIRSTTIME,V1=MPCSTAT_H1,V2=
               425            MPCSTAT_F1);
      246      438
      247      439
      248      440    1   DCL 1 MPCSTAT_H3 CONSTANT,
      249      441    1       2 * CHAR(0) INIT(
      250      442    1   '%2/      MPC   FW   CARDS   CARDS   LINES   PAGES    IOM     LOST   UNSOL  TR/REC%
               442        /'),
      251      443    1       2 * CHAR(0) INIT(
      252      444    1   'TIME  NAME NAME  READ   PUNCHED PRINTED PRINTED WD TRANS  INTS   FRAMES ERRORS%/')
               444            ,
      253      445    1       2 * CHAR(0) INIT(
      254      446    1  '----- ---- ---- ------- ------- ------- ------- -------- ------- ------- -------%/%
               446        10P');
      255      447
      256      448    1   DCL MPCSTAT_F2 CHAR(0) CONSTANT INIT(
      257      449    1   '%1P%5A %2.0P%4A %2.2P%4A %3.0P%7.36D %7.36D %7.36D %7.36D %7.36D %2.34.0P%7.18D %2
               449        .34.2P%7.18D %3.5P%7.36D%/%10P');
      258      450
      259      451       %CTL(NAME=RAW_MPCSTAT,NHDR=2,NFMT=1,HDRFLG=FIRSTTIME,V1=MPCSTAT_H1,V2=MPCSTAT_H3,V3=
               451            MPCSTAT_F2);
      260      464        %EJECT;
PL6.E3A0      #001=TH_REPORT_D File=TH_REPORT_D.:E05TSI                          WED 07/30/97 06:17 Page:71
      261      465        /* MIRRORED DISC STATE CHANGE */
      262      466    1   DCL 1 MIRROR_H1 CONSTANT,
      263      467    1       2 * CHAR(0) INIT(
      264      468    1   '%/<<<< MIRRORED DISC STATE CHANGE >>>>%2/'),
      265      469    1       2 * CHAR(0) INIT('           PRI/  NEW    TIME OF%/'),
      266      470    1       2 * CHAR(0) INIT(
      267      471    1   'TIME  DEV  SEC  STATE STATE CHANGE    VSN    MIRROR   ACCT      UNAME    SYSID%/')
               471            ,
      268      472    1       2 * CHAR(0) INIT(
      269      473    1  '----- ---- ---- ----- ------------ --------- ------ -------- ------------ -----%/%1
               473        0P');
      270      474    1   DCL 1 MIRROR_F1 CONSTANT,
      271      475    1       2 * CHAR(0) INIT(
      272      476    1   '%1P%5A %2.0P%4A  %3P%T   %T  %2.5P%12.36.0.9U  %2.4P%8.36D  %2.2P%4A %2.6.2P%8A %2
               476        .8.2P%12A %2.12P%5.18D%10P');
      273      477        %CTL(NAME=RAW_MIRROR, NHDR=1, NFMT=1, HDRFLG=FIRSTTIME,
      274      478             V1=MIRROR_H1, V2=MIRROR_F1);
      275      491        %EJECT;
PL6.E3A0      #001=TH_REPORT_D File=TH_REPORT_D.:E05TSI                          WED 07/30/97 06:17 Page:72
      276      492        /* ANLZ */
      277      493    1   DCL ANLZ_H1 CHAR(0) CONSTANT INIT(
      278      494        '%/<<<< ANLZ >>>> (114)%2/
      279      495    1   TIME  USER# USER NAME    ACCOUNT  SYSID  COMMAND%10P');
      280      496    1   DCL ANLZ_H2 CHAR(0) CONSTANT INIT(
      281      497    1   '----- ----- ------------ -------- ------ ------------%10P');
      282      498    1   DCL ANLZ_F1 CHAR(0) CONSTANT INIT(
      283      499    1   '%5A %2.0.1P%5.9O%13-%2.3P%12A %2.1P%8A %2.0.2P%6.18D%3P%42-%T%10P');
      284      500       %CTL (NAME=RAW_ANLZ,NHDR=2,NFMT=1,HDRFLG=FIRSTTIME,V1=ANLZ_H1,V2=ANLZ_H2,V3=ANLZ_F1)
               500            ;
      285      513        %EJECT;
PL6.E3A0      #001=TH_REPORT_D File=TH_REPORT_D.:E05TSI                          WED 07/30/97 06:17 Page:73
      286      514        /* ZAP */
      287      515    1   DCL ZAP_H1 CHAR(0) CONSTANT INIT(
      288      516    1   '%/<<<< ZAP >>>> %2/TIME  STATION  OPERATOR TEXT%10P');
      289      517    1   DCL ZAP_H2 CHAR(0) CONSTANT INIT(
      290      518    1   '----- -------- --------------------%10P');
      291      519    1   DCL ZAP_F1 CHAR(0) CONSTANT INIT(
      292      520    1   '%5A %2P%8A %3P%T%10P');
      293      521        %CTL (NAME=RAW_ZAP,NHDR=2,NFMT=1,HDRFLG=FIRSTTIME,V1=ZAP_H1,V2=ZAP_H2,V3=ZAP_F1);
      294      534        %EJECT;
PL6.E3A0      #001=TH_REPORT_D File=TH_REPORT_D.:E05TSI                          WED 07/30/97 06:17 Page:74
      295      535    1   DCL CHANTRAN_H1 CHAR(0) CONSTANT INIT(
      296      536    1   '%/<<<< CHANTRAN >>>> %2/TIME        IOP CHAN STATUS%10P');
      297      537    1   DCL CHANTRAN_H2 CHAR(0) CONSTANT INIT(
      298      538    1   '----------- --- ---- -------------------------%10P');
      299      539    1   DCL 1 CHANTRAN_F1 CONSTANT,
      300      540    1         2 * CHAR(0) INIT(
      301      541    1   '%11A %2P%3.9D  %2.1.0.3P%2.6D  %3P%T%10P');
      302      542       %CTL (NAME=RAW_CHANTRAN,NHDR=2,NFMT=1,HDRFLG=FIRSTTIME,V1=CHANTRAN_H1,V2=CHANTRAN_H2
               542            ,V3=CHANTRAN_F1);
      303      555
      304      556
      305      557
      306      558
      307      559    1   DCL 1 CHANTRAN_F2 CONSTANT,
      308      560    1         2 * CHAR(0) INIT(
      309      561        '%/<<<< CHANTRAN >>>> (117)%2/
      310      562    1   TIME        IOP CHAN STATUS'),
      311      563    1         2 * CHAR(0) INIT(
      312      564    1   '%/----------- --- ---- -------------------------%/'),
      313      565    1         2 * CHAR(0) INIT(
      314      566    1   '%11A %2P%3.9D  %2.1.0.3P%2.6D  %3P%T%2/'),
      315      567    1         2 * CHAR(0) INIT(
      316      568    1   'SPECIAL STATUS WORDS'),
      317      569    1         2 * CHAR(0) INIT(
      318      570    1   '%/-------------------------%/'),
      319      571    1         2 * CHAR(0) INIT(
      320      572    1   ' %2P%12ZO %12ZO%10P');
      321      573        %CTL (NAME=DETAIL_CHANTRAN,NHDR=0,NFMT=1,HDRFLG=ALWAYS,V1=CHANTRAN_F2);
      322      586        %EJECT;
PL6.E3A0      #001=TH_REPORT_D File=TH_REPORT_D.:E05TSI                          WED 07/30/97 06:17 Page:75
      323      587        /* MSOSSAYS */
      324      588    1   DCL MSOSSAYS_H1 CHAR(0) CONSTANT INIT(
      325      589    1   '%/<<<< MSOSSAYS >>>>%2/TIME        IOP MSOS REQUEST TO CP6%10P');
      326      590    1   DCL MSOSSAYS_H2 CHAR(0) CONSTANT INIT(
      327      591    1   '----------- --- -------------------------%10P');
      328      592    1   DCL 1 MSOSSAYS_F1 CONSTANT,
      329      593    1         2 * CHAR(0) INIT(
      330      594    1   '%11A %2P%3.9D %3P%T%10P');
      331      595       %CTL (NAME=RAW_MSOSSAYS,NHDR=2,NFMT=1,HDRFLG=FIRSTTIME,V1=MSOSSAYS_H1,V2=MSOSSAYS_H2
               595            ,V3=MSOSSAYS_F1);
      332      608
      333      609
      334      610
      335      611
      336      612    1   DCL 1 MSOSSAYS_F2 CONSTANT,
      337      613    1         2 * CHAR(0) INIT(
      338      614        '%/<<<< MSOSSAYS >>>> (118) %2/
      339      615    1   TIME        IOP MSOS REQUEST TO CP6'),
      340      616    1         2 * CHAR(0) INIT(
      341      617    1   '%/----------- --- -------------------------%/'),
      342      618    1         2 * CHAR(0) INIT(
      343      619    1   '%11A %2P%3.9D %3P%T%2/'),
      344      620    1         2 * CHAR(0) INIT(
      345      621    1   'COMMAND BLOCK'),
      346      622    1         2 * CHAR(0) INIT(
      347      623    1   '%/----------------------------------------------------------------%/'),
      348      624    1         2 * CHAR(0) INIT(
      349      625    1   '%2P%12ZO %12ZO %12ZO %12ZO %12ZO%10P');
      350      626        %CTL (NAME=DETAIL_MSOSSAYS,NHDR=0,NFMT=1,HDRFLG=ALWAYS,V1=MSOSSAYS_F2);
      351      639        %EJECT;
PL6.E3A0      #001=TH_REPORT_D File=TH_REPORT_D.:E05TSI                          WED 07/30/97 06:17 Page:76
      352      640        /* CP6SAYS */
      353      641    1   DCL CP6SAYS_H1 CHAR(0) CONSTANT INIT(
      354      642    1   '%/<<<< CP6SAYS >>>>%2/TIME        IOP CP6 RESPONSE TO MSOS      REASON%10P');
      355      643    1   DCL CP6SAYS_H2 CHAR(0) CONSTANT INIT(
      356      644    1   '----------- --- ------------------------- -------------------------------%10P');
      357      645    1   DCL 1 CP6SAYS_F1 CONSTANT,
      358      646    1         2 * CHAR(0) INIT(
      359      647    1   '%11A %2P%3.9D %3P%T %43-%T%10P');
      360      648       %CTL (NAME=RAW_CP6SAYS,NHDR=2,NFMT=1,HDRFLG=FIRSTTIME,V1=CP6SAYS_H1,V2=CP6SAYS_H2,V3
               648            =CP6SAYS_F1);
      361      661
      362      662
      363      663
      364      664
      365      665    1   DCL 1 CP6SAYS_F2 CONSTANT,
      366      666    1         2 * CHAR(0) INIT(
      367      667    1   '%/<<<< CP6SAYS >>>> (119)%2/TIME        IOP CP6 RESPONSE TO MSOS      REASON'),
      368      668    1         2 * CHAR(0) INIT(
      369      669    1   '%/----------- --- ------------------------- -------------------------------%/'),
      370      670    1         2 * CHAR(0) INIT(
      371      671    1   '%11A %2P%3.9D %3P%T %43-%T%2/'),
      372      672    1         2 * CHAR(0) INIT(
      373      673    1   'COMMAND BLOCK'),
      374      674    1         2 * CHAR(0) INIT(
      375      675    1   '%/----------------------------------------------------------------%/'),
      376      676    1         2 * CHAR(0) INIT(
      377      677    1   '%2P%12ZO %12ZO %12ZO %12ZO %12ZO%10P');
      378      678        %CTL (NAME=DETAIL_CP6SAYS,NHDR=0,NFMT=1,HDRFLG=ALWAYS,V1=CP6SAYS_F2);
      379      691        %EJECT;
PL6.E3A0      #001=TH_REPORT_D File=TH_REPORT_D.:E05TSI                          WED 07/30/97 06:17 Page:77
      380      692        /* IOERR */
      381      693    1   DCL IOERR_H1 CHAR(0) CONSTANT INIT(
      382      694    1   '%/<<<< IOERR >>>> %2/TIME  IDCW ISTAT    FSTAT    I-CCC-DD RT-CT CNCT   CYL-HD-SE
               694         DEV  SN     REQ%/%35-if tape errors->FIL-RECCNT%10P')
      383      695    1   ;
      384      696    1   DCL IOERR_H2 CHAR(0) CONSTANT INIT(
      385      697    1  '----- ---- -------- -------- ------- ------ ----- ------------ ---- ------ ---%10P'
               697            );
      386      698    1   DCL 1 IOERR_F1 CONSTANT,
      387      699    1         2 * CHAR(0) INIT(
      388      700    1   '%5A %2.8P %2.6ZO%2.1P %2.6ZO-%2.6ZO-%2.1.2P%2.6ZO %2.3P%2.6ZO-%2.6ZO-%2.3.2P%2.6ZO
               700        '),
      389      701    1         2 * CHAR(0) INIT(
      390      702    1  '%2.5.0.6P %1.3D-%3.9ZD%2.5P-%2.6ZD%2.5.2P %2.9D-%2.9D %3P%T%51-%4.2.1P%T %64-%2.20.
               702        0P%4A %4S%6A%3P%9NS %T%10P');
      391      703        %CTL (NAME=RAW_IOERR,NHDR=2,NFMT=1,HDRFLG=FIRSTTIME,V1=IOERR_H1,V2=IOERR_H2,V3=
               703            IOERR_F1);
      392      716
      393      717
      394      718
      395      719    1   DCL 1 IOERR_F2 CONSTANT,
      396      720    1       2 * CHAR(0) INIT(
      397      721        '%/<<<< IOERR >>>> (201)%2/
      398      722    1   TIME  DEV  REQID  INITIAL STATUS            FINAL STATUS              I-CCC-DD'),
      399      723    1       2 * CHAR(0) INIT(
      400      724    1  '%/----- ---- ------ ------------------------- ------------------------- --------%/'
               724            ),
      401      725    1       2 * CHAR(0) INIT(
      402      726    1  '%1P%5A %2.20P%4A %2P%6D %12ZO %12ZO %12ZO %12ZO %2.5.0.6P%1.3D-%3.9ZD-%2.5P%2.6ZD%2
               726        /'),
      403      727    1       2 * CHAR(0) INIT(
      404      728    1   'ER CT CNCT   IDCW         DCW          MEM ADDRESS  SN     SEEKADDR CYL-HD-SE%/%54
               728        -if tape errors->FIL-RECCNT'),
      405      729    1       2 * CHAR(0) INIT(
      406      730    1  '%/----- ------ ------------ ------------ ------------ ------ -------- ------------%
               730        /'),
      407      731    1       2 * CHAR(0) INIT(
PL6.E3A0      #001=TH_REPORT_D File=TH_REPORT_D.:E05TSI                          WED 07/30/97 06:17 Page:78
      408      732    1   '%2.5.2P%2.9D-%2.9D %3P%T%14-%2.8P%12ZO %12ZO %12D %2.22P%6A %4P%T %4.2.1P%T%2/'),
      409      733    1         2 * CHAR(0) INIT(
      410      734    1   '    STATUS              STATUS CODES'),
      411      735    1       2 * CHAR(0) INIT(
      412      736    1   '%/  MAJOR MINOR      MAJOR            MINOR'),
      413      737    1       2 * CHAR(0) INIT(
      414      738    1   '%/  ----- ----- ---------------- -----------------%/'),
      415      739    1       2 * CHAR(0) INIT(
      416      740    1   '%2.1P %4-%2.6ZO %10-%2.6ZO %5P %15-%T%32-%T%2/'),
      417      741    1       2 * CHAR(0) INIT(
      418      742    1   'EXTENDED STATUS AND ITS INTERPRETATIONS'),
      419      743    1       2 * CHAR(0) INIT(
      420      744    1   '%/----------------------------------------------------------------%/'),
      421      745    1       2 * CHAR(0) INIT(
      422      746        '%2.11P%4.16ZH %4.16ZH %4.16ZH %4.16ZH %4.16ZH %4.16ZH %4.16ZH %4.16ZH %4.16ZH
      423      747    1     %4.16ZH %4.16ZH %4.16ZH %4.16ZH %/%4.16ZH %4.16ZH %4.16ZH %4.16ZH %4.16ZH%10P');
      424      748        %CTL (NAME=EXTENDED_IOERR,NHDR=0,NFMT=1,SPECIAL=YES,HDRFLG=ALWAYS,V1=IOERR_F2);
      425      761        %EJECT;
PL6.E3A0      #001=TH_REPORT_D File=TH_REPORT_D.:E05TSI                          WED 07/30/97 06:17 Page:79
      426      762        /* DETAIL IOERR */
      427      763    1   DCL 1 IOERR_F3 CONSTANT,
      428      764    1       2 * CHAR(0) INIT(
      429      765    1   '%/%2P %8-%3D %3P %13-%T,%28-%T %1.1P %48-%2.6ZO/%51-%2.6ZO %/'),
      430      766    1       2 * CHAR(0) INIT(
      431      767    1   '            Device Id-%1.24P%8A  Tracks-%2.19P%1A  Speed-%2.3P%32A'),
      432      768    1       2 * CHAR(0) INIT(
      433      769    1   '            Density-%2.11P%32A   Operation-%2.1P%8A %10P');
      434      770        %CTL (NAME=DETAIL_IOERR,NHDR=0,NFMT=1,SPECIAL=YES,HDRFLG=ALWAYS,V1=IOERR_F3);
      435      783        %EJECT;
PL6.E3A0      #001=TH_REPORT_D File=TH_REPORT_D.:E05TSI                          WED 07/30/97 06:17 Page:80
      436      784        /* EDAC */
      437      785    1   DCL EDAC_H1 CHAR(0) CONSTANT INIT(
      438      786        '%/<<<< MOS MEMORY ERRORS >>>> (202)%2/
      439      787    1   TIME  ADDRESS  SCU MODE       STORE UNIT MODE PORT STORE UNIT SLOT CHIP COUNT%10P')
               787            ;
      440      788    1   DCL EDAC_H2 CHAR(0) CONSTANT INIT(
      441      789    1  '----- -------- --------------- --------------- ---- ---------- ---- ---- -----%10P'
               789            );
      442      790    1   DCL EDAC_F1 CHAR(0) CONSTANT INIT(
      443      791    1  '%5A %2.0.0.12P%8.24ZO %2.2P00-%12ZO %2.4P00-%12ZO%3P%50-%T%57-%T%66-%T%70-%T%74-%2.
               791        8.2P%5.18D%10P');
      444      792       %CTL (NAME=RAW_EDAC,NHDR=2,NFMT=1,HDRFLG=FIRSTTIME,V1=EDAC_H1,V2=EDAC_H2,V3=EDAC_F1)
               792            ;
      445      805        %EJECT;
PL6.E3A0      #001=TH_REPORT_D File=TH_REPORT_D.:E05TSI                          WED 07/30/97 06:17 Page:81
      446      806        /* FEP ERRORS */
      447      807    1   DCL FEPERR_H1 CHAR(0) CONSTANT INIT(
      448      808    1   '%/<<<< FEP ERROR >>>> %2/TIME  FEP CHAN DATA ERROR CODE   ERROR MESSAGE%10P');
      449      809    1   DCL FEPERR_H2 CHAR(0) CONSTANT INIT(
      450      810    1   '----- --- ---- ---- ------------ --------------------%10P');
      451      811    1   DCL FEPERR_F1 CHAR(0) CONSTANT INIT(
      452      812    1   '%5A %2P%3.16D %2.5.2.1P%2.8ZH%2.5.3.1P%2.8ZH %3P%T %T %T%10P');
      453      813        %CTL (NAME=RAW_FEPERR,NHDR=2,NFMT=1,HDRFLG=FIRSTTIME,V1=FEPERR_H1,V2=FEPERR_H2,V3=
               813            FEPERR_F1);
      454      826
      455      827
      456      828
      457      829    1   DCL 1 FEPERR_F2 CONSTANT,
      458      830    1         2 * CHAR(0) INIT(
      459      831        '%/<<<< FEP ERROR >>>>%2/
      460      832    1   TIME  FEP CHAN DATA ERROR CODE   ERROR MESSAGE%/'),
      461      833    1         2 * CHAR(0) INIT(
      462      834    1   '%5(-%) %3(-%) %4(-%) %4(-%) %12(-%) %20(-%)%/'),
      463      835    1         2 * CHAR(0) INIT(
      464      836    1   '%5A %2P%3.16D %2.5.2.1P%2.8ZH%2.5.3.1P%2.8ZH %3P%T %T %T%2/'),
      465      837    1         2 * CHAR(0) INIT(
      466      838    1   'CODE L6 TIME  VALUE(0) VALUE(1) VALUE(2) VALUE(3)%/'),
      467      839    1         2 * CHAR(0) INIT(
      468      840    1   '%4(-%) %8(-%) %8(-%) %8(-%) %8(-%) %8(-%)%/'),
      469      841    1         2 * CHAR(0) INIT(
      470      842    1   '%2.1.0.19P%4.9D %2.2P%8.32ZH   %2.3.0.1P%2.8ZH%2.3.1.1P%2.8ZH    %2.3.2.1P%2.8ZH%2
               842        .3.3.1P%2.8ZH'),
      471      843    1         2 * CHAR(0) INIT(
      472      844    1   '     %2.4.0.1P%2.8ZH%2.4.1.1P%2.8ZH     %2.4.2.1P%2.8ZH%2.4.3.1P%2.8ZH%10P');
      473      845        %CTL (NAME=EXTENDED_FEPERR,NHDR=0,NFMT=1,HDRFLG=ALWAYS,SPECIAL=YES,V1=FEPERR_F2);
      474      858        %EJECT;
PL6.E3A0      #001=TH_REPORT_D File=TH_REPORT_D.:E05TSI                          WED 07/30/97 06:17 Page:82
      475      859        /* DETAIL FEP ERRORS */
      476      860    1   DCL 1 FEPERR_F3 CONSTANT,
      477      861    1         2 * CHAR(0) INIT(
      478      862    1   '%1-%5D       %2P%T   %T%10P');
      479      863        %CTL(NAME=DETAIL_FEPERR,NHDR=0,NFMT=1,HDRFLG=ALWAYS,SPECIAL=YES,V1=FEPERR_F3);
      480      876        %EJECT;
PL6.E3A0      #001=TH_REPORT_D File=TH_REPORT_D.:E05TSI                          WED 07/30/97 06:17 Page:83
      481      877        /* PROCESSOR ERRORS */
      482      878    1   DCL PROCERR_H1 CHAR(0) CONSTANT INIT(
      483      879    1   '%/<<<< PROCESSOR ERRORS >>>> %2/%6XFAULT PORT%44-PROC%56-ISR%71-FAULT%10P');
      484      880    1   DCL PROCERR_H2 CHAR(0) CONSTANT INIT(
      485      881    1   'TIME   CODE   #%24-FAULT REGISTER%44-TYPE  SYSID WSR   IC%68-INSTRUCTION%10P');
      486      882    1   DCL PROCERR_H3 CHAR(0) CONSTANT INIT(
      487      883    1   '%5(-%) %5(-%) %4(-%) %25(-%) %4(-%) %6(-%) %3(-%) %6(-%) %12(-%)%10P');
      488      884    1   DCL PROCERR_F1 CHAR(0) CONSTANT INIT(
      489      885    1   '%5A%3X%2.5.3.4P%2.5D%4X%2.5.2P%1.9D  %2.2P%12ZO %12ZO%3X%2.5.3P%1.4D  %2.5P%6.18D
               885        %2.0.3.2P%1.3O  %2.4P%6.18ZO %2.6P%12ZO%10P');
      490      886       %CTL (NAME=RAW_PROCERR,NHDR=3,NFMT=1,HDRFLG=FIRSTTIME,V1=PROCERR_H1,V2=PROCERR_H2,V3
               886            =PROCERR_H3,V4=PROCERR_F1);
      491      899        %CTL (NAME=DETAIL_PROCERR,
      492      900              NHDR=3,
      493      901              NFMT=1,
      494      902              HDRFLG=ALWAYS,
      495      903              SPECIAL=YES,
      496      904              V1=PROCERR_H1,
      497      905              V2=PROCERR_H2,
      498      906              V3=PROCERR_H3,
      499      907              V4=PROCERR_F1);
      500      920        %EJECT;
PL6.E3A0      #001=TH_REPORT_D File=TH_REPORT_D.:E05TSI                          WED 07/30/97 06:17 Page:84
      501      921        /* SPURIOUS INTERRUPT */
      502      922    1   DCL SPURINT_H1 CHAR(0) CONSTANT INIT(
      503      923        '%/<<<< SPURIOUS INTERRUPT >>>> (205)%2/
      504      924    1   TIME  I-CCC T & D STATE     INTLVL STATUS WORDS%10P');
      505      925    1   DCL SPURINT_H2 CHAR(0) CONSTANT INIT(
      506      926    1   '----- ----- ----- --------- ------ -------------------------%10P');
      507      927    1   DCL SPURINT_F1 CHAR(0) CONSTANT INIT(
      508      928    1   '%5A %2P%1.3ZD-%3.9ZD %3P%T %T %29-%2.0.2P%5X%1.3ZD %2.1P%12ZO %12ZO %10P');
      509      929       %CTL (NAME=RAW_SPURINT,NHDR=2,NFMT=1,HDRFLG=FIRSTTIME,V1=SPURINT_H1,V2=SPURINT_H2,V3
               929            =SPURINT_F1);
      510      942        %EJECT;
PL6.E3A0      #001=TH_REPORT_D File=TH_REPORT_D.:E05TSI                          WED 07/30/97 06:17 Page:85
      511      943        /* FEPFLT */
      512      944    1   DCL FEPFLT_H1 CHAR(0) CONSTANT INIT(
      513      945        '%/<<<< FEP FAULT >>>> (206)%2/
      514      946        TIME  I-CCC FEP#   FAULT WORD  %/
      515      947    1   ----- ----- ------ ------------%10P');
      516      948    1   DCL FEPFLT_F1 CHAR(0) CONSTANT INIT(
      517      949    1   '%5A %2P%1.2ZD-%3.7ZD %6.27D %2.1.0.1P%12ZO %10P');
      518      950        %CTL (NAME=RAW_FEPFLT,NHDR=1,NFMT=1,HDRFLG=FIRSTTIME,V1=FEPFLT_H1,V2=FEPFLT_F1);
      519      963        %EJECT;
PL6.E3A0      #001=TH_REPORT_D File=TH_REPORT_D.:E05TSI                          WED 07/30/97 06:17 Page:86
      520      964        /* SCREECH, SUA AND SNAP */
      521      965    1   DCL SCREECH_H1 CHAR(0) CONSTANT INIT(
      522      966    1   '%/<<<< SYSTEM RECOVERY >>>> %/%10P');
      523      967    1   DCL SUA_H1 CHAR(0) CONSTANT INIT(
      524      968    1   '%/<<<< SINGLE USER ABORT >>>> %/%10P');
      525      969    1   DCL SNAP_H1 CHAR(0) CONSTANT INIT(
      526      970    1   '%/<<<< SNAP >>>> %/%10P');
      527      971    1   DCL SCREECH_H2 CHAR(0) CONSTANT INIT(
      528      972    1   'TIME  SCREECH CODE DUMP FLAGS   SNAPU# DUMP FILE%10P');
      529      973    1   DCL SCREECH_H3 CHAR(0) CONSTANT INIT(
      530      974    1   '----- ------------ ------------ ------ ---------%10P');
      531      975    1   DCL SCREECH_F1 CHAR(0) CONSTANT INIT(
      532      976    1   '%5A %3P%T %20-%2.1P%12ZO %6D %3P%9NS%T%50-%T%10P');
      533      977       %CTL (NAME=RAW_SCREECH,NHDR=3,NFMT=1,HDRFLG=FIRSTTIME,V1=SCREECH_H1,V2=SCREECH_H2,V3
               977            =SCREECH_H3,V4=SCREECH_F1);
      534      990        %CTL (NAME=RAW_SUA,NHDR=3,NFMT=1,HDRFLG=FIRSTTIME,V1=SUA_H1,V2=SCREECH_H2,V3=
               990            SCREECH_H3,V4=SCREECH_F1);
      535     1003        %CTL (NAME=RAW_SNAP,NHDR=3,NFMT=1,HDRFLG=FIRSTTIME,V1=SNAP_H1,V2=SCREECH_H2,V3=
              1003            SCREECH_H3,V4=SCREECH_F1);
      536     1016        %EJECT;
PL6.E3A0      #001=TH_REPORT_D File=TH_REPORT_D.:E05TSI                          WED 07/30/97 06:17 Page:87
      537     1017        /* FILE INCONSISTENCY */
      538     1018    1   DCL FI_H1 CHAR(0) CONSTANT INIT(
      539     1019    1   '%/<<<< FILE INCONSISTENCY >>>> %2/TIME  COD REA ACT FRDA         SRDA        REQID
              1019          DEV  FID%10P');
      540     1020    1   DCL FI_H2 CHAR(0) CONSTANT INIT(
      541     1021    1  '----- --- --- --- ------------ ------------ ------ ---- -----------------------%10P
              1021        ');
      542     1022    1   DCL FI_F1 CHAR(0) CONSTANT INIT(
      543     1023    1   '%5A %2P%3.9D %3.9D %3.9D %2.2P%12ZO %12ZO %2.14P%6D %2.15P%4A %3P%T%10P');
      544     1024        %CTL (NAME=RAW_FI,NHDR=2,NFMT=1,HDRFLG=FIRSTTIME,V1=FI_H1,V2=FI_H2,V3=FI_F1);
      545     1037
      546     1038
      547     1039
      548     1040    1   DCL 1 FI_F2 CONSTANT,
      549     1041    1           2 * CHAR(0) INIT(
      550     1042        '%/<<<< FILE INCONSISTENCY >>>> (302)%2/
      551     1043    1   TIME  COD REA ACT SYSID  ORG F D S AC L G REQID  DEV  FID%/'),
      552     1044    1           2 * CHAR(0) INIT(
      553     1045    1  '----- --- --- --- ------ --- - - - -- - - ------ ---- -------------------------%/')
              1045            ,
      554     1046    1           2 * CHAR(0) INIT(
      555     1047    1  '%1P%5A %2P%3.9D %3.9D %3.9D %2.11.2P%6.18D%2.1.0.1P %3.8D %1.3ZD %1.3ZD %1.3ZD %2.6
              1047        D %1.3ZD %1.9D%2.14P %6D %4A %3P%T%2/'),
      556     1048    1           2 * CHAR(0) INIT(
      557     1049    1   'FRDA         SRDA         CYL-HD-SE  MISC         TYC          STATUS%/'),
      558     1050    1           2 * CHAR(0) INIT(
      559     1051    1   '------------ ------------ ---------  ------------ ------------ ------------%/'),
      560     1052    1           2 * CHAR(0) INIT(
      561     1053    1   '%2.2P%12ZO %12ZO %4.2.1P%T %2.8P%12ZO %2.12P%12ZO %12ZO%2/'),
      562     1054    1           2 * CHAR(0) INIT(
      563     1055        'BFR1        BFR1X BFR2        BFR2X BFR3        BFR3X PLUGH%/
      564     1056    1   ----------------- ----------------- ----------------- --------------------%/'),
      565     1057    1           2 * CHAR(0) INIT(
      566     1058    1  '%2.5P%12ZO(%2.9P%3.12D) %2.6P%12ZO(%2.9..12P%3.12D) %2.7P%12ZO(%2.9..24P%3.12D) %6.
              1058        18ZO %6.18ZO %6.18ZO%10P%3/');
      567     1059        %CTL (NAME=DETAIL_FI,NHDR=0,NFMT=1,HDRFLG=ALWAYS,V1=FI_F2);
      568     1072        %EJECT;
PL6.E3A0      #001=TH_REPORT_D File=TH_REPORT_D.:E05TSI                          WED 07/30/97 06:17 Page:88
      569     1073        /* OSFI */
      570     1074    1   DCL OSFI_H1 CHAR(0) CONSTANT INIT(
      571     1075        '%/<<<< OUTPUT SYMBIONT FILE INCONSISTENCY >>>> (303)%2/
      572     1076    1   TIME  SUBC STAMP        EXPSTAMP     AVAIL SYSID        FRDAD%10P');
      573     1077    1   DCL OSFI_H2 CHAR(0) CONSTANT INIT(
      574     1078    1   '----- ---- ------------ ------------ ----- ------------ ------------%10P');
      575     1079    1   DCL OSFI_F1 CHAR(0) CONSTANT INIT(
      576     1080    1   '%5A %2P%4D %12ZO %12ZO %5D %6.18ZD.%5.18ZD %12ZO%10P');
      577     1081       %CTL (NAME=RAW_OSFI,NHDR=2,NFMT=1,HDRFLG=FIRSTTIME,V1=OSFI_H1,V2=OSFI_H2,V3=OSFI_F1)
              1081            ;
      578     1094        %EJECT;
PL6.E3A0      #001=TH_REPORT_D File=TH_REPORT_D.:E05TSI                          WED 07/30/97 06:17 Page:89
      579     1095        /* FEP EVENT */
      580     1096    1   DCL FEPEVENT_H1 CHAR(0) CONSTANT INIT(
      581     1097        '%/<<<< FEP INTERFACE EVENT >>>> (304)%2/
      582     1098    1   TIME  I-CCC SEQ PROBLEM             STATE             NODE#   NAME  %10P');
      583     1099    1   DCL FEPEVENT_H2 CHAR(0) CONSTANT INIT(
      584     1100    1   '----- ----- --- ------------------- ----------------- ----- --------%10P');
      585     1101    1   DCL FEPEVENT_F1 CHAR(0) CONSTANT INIT(
      586     1102    1   '%5A %2P%1.2ZD-%3.7ZD %3.9D %3P%T %37-%T%2.1P%56-%3D  %2.2P%8A%10P');
      587     1103       %CTL (NAME=RAW_FEPEVENT,NHDR=2,NFMT=1,HDRFLG=FIRSTTIME,V1=FEPEVENT_H1,V2=FEPEVENT_H2
              1103            ,V3=FEPEVENT_F1);
      588     1116        %EJECT;
PL6.E3A0      #001=TH_REPORT_D File=TH_REPORT_D.:E05TSI                          WED 07/30/97 06:17 Page:90
      589     1117        /* GHOST ABORT */
      590     1118    1   DCL GABRT_H1 CHAR(0) CONSTANT INIT(
      591     1119        '%/ <<<< GHOST ABORT >>>> (305)%2/
      592     1120    1   TIME  ERRCODE      USER ERRCODE IC     RNS FRS XFL SYSID CC USER NAME%10P');
      593     1121    1   DCL GABRT_H2 CHAR(0) CONSTANT INIT(
      594     1122    1   '----- ------------ ------------ ------ --- --- --- ----- -- ------------%10P');
      595     1123    1   DCL GABRT_F1 CHAR(0) CONSTANT INIT(
      596     1124    1  '%5A %3P%T %20-%T%33-%2.2.2P%6.18ZO %3.9O %3.9O %1S%3.9O %2.2P%5.18D %2.3.2P%2.9D %2
              1124        .4P%12A%10P');
      597     1125        %CTL (NAME=RAW_GABRT,NHDR=2,NFMT=1,HDRFLG=FIRSTTIME,V1=GABRT_H1,V2=GABRT_H2,V3=
              1125            GABRT_F1);
      598     1138        %EJECT;
PL6.E3A0      #001=TH_REPORT_D File=TH_REPORT_D.:E05TSI                          WED 07/30/97 06:17 Page:91
      599     1139        /* COMGROUP ERROR */
      600     1140    1   DCL CGERR_H1 CHAR(0) CONSTANT INIT(
      601     1141    1   '%/ <<<< COMGROUP ERROR >>>> %2/TIME  CODE  CTX    NAME%10P');
      602     1142    1   DCL CGERR_H2 CHAR(0) CONSTANT INIT(
      603     1143    1   '----- ---- ------ -------------------------%10P');
      604     1144    1   DCL CGERR_F1 CHAR(0) CONSTANT INIT(
      605     1145    1   '%5A %2P%4.9D %2.1P%6.18ZO %3P%T%10P');
      606     1146        %CTL (NAME=RAW_CGERR,NHDR=2,NFMT=1,HDRFLG=FIRSTTIME,V1=CGERR_H1,V2=CGERR_H2,V3=
              1146            CGERR_F1);
      607     1159        %CTL (NAME=DETAIL_CGERR,NHDR=2,NFMT=1,HDRFLG=FIRSTTIME,SPECIAL=YES,V1=CGERR_H1,V2=
              1159            CGERR_H2,V3=CGERR_F1);
      608     1172        %EJECT;
PL6.E3A0      #001=TH_REPORT_D File=TH_REPORT_D.:E05TSI                          WED 07/30/97 06:17 Page:92
      609     1173        /* FEP DUMP */
      610     1174    1   DCL FEPDUMP_H1 CHAR(0) CONSTANT INIT(
      611     1175    1   '%/<<<< FEP DUMP >>>> (309) %2/TIME  FEP#  DUMP FILE NAME          REASON        SC
              1175        REECH%10P');
      612     1176    1   DCL FEPDUMP_H2 CHAR(0) CONSTANT INIT(
      613     1177    1   '----- ---- ------------------- --------------- --------------------%10P');
      614     1178    1   DCL FEPDUMP_F1 CHAR(0) CONSTANT INIT(
      615     1179    1   '%5A %2P%4.36D %T%2.21.0P%15A %9S%T%10P');
      616     1180       %CTL (NAME=RAW_FEPDUMP,NHDR=2,NFMT=1,HDRFLG=FIRSTTIME,V1=FEPDUMP_H1,V2=FEPDUMP_H2,V3
              1180            =FEPDUMP_F1);
      617     1193        %EJECT;
PL6.E3A0      #001=TH_REPORT_D File=TH_REPORT_D.:E05TSI                          WED 07/30/97 06:17 Page:93
      618     1194        /* LOST ERRORS */
      619     1195    1   DCL LOST_H1 CHAR(0) CONSTANT INIT(
      620     1196    1   '%/<<<< LOST ERRORS >>>>   %2P%D OF ''EM AT %1P%5A%10P%/');
      621     1197        %CTL (NAME=RAW_LOST,NHDR=1,NFMT=0,HDRFLG=ALWAYS,V1=LOST_H1);
      622     1210        %EJECT;
PL6.E3A0      #001=TH_REPORT_D File=TH_REPORT_D.:E05TSI                          WED 07/30/97 06:17 Page:94
      623     1211        /* CHNGAARD ENTRIES */
      624     1212    1   DCL CHNGAARD_H1 CHAR(0) CONSTANT INIT(
      625     1213        '%/<<<< CHNGAARD ENTRY >>>> (120)%2/
      626     1214                    OLD   NEW    %/
      627     1215    1   TIME  I-CCC I-CCC ACCOUNT  USER NAME    SYSID  MESSAGE%10P');
      628     1216    1   DCL CHNGAARD_H2 CHAR(0) CONSTANT INIT(
      629     1217    1   '----- ----- ----- -------- ------------ ------ -------%10P');
      630     1218    1   DCL CHNGAARD_F1 CHAR(0) CONSTANT INIT(
      631     1219    1   '%5A%3.0.0P %T%13-%T %19-%2.1.1P%8A %12A %6.18D %48-%3.3.0P%T%10P');
      632     1220       %CTL (NAME=RAW_CHNGAARD,NHDR=2,NFMT=1,HDRFLG=FIRSTTIME,V1=CHNGAARD_H1,V2=CHNGAARD_H2
              1220            ,V3=CHNGAARD_F1);
      633     1233        %EJECT;
PL6.E3A0      #001=TH_REPORT_D File=TH_REPORT_D.:E05TSI                          WED 07/30/97 06:17 Page:95
      634     1234    1   DCL 1 TH_RAW_FMT CONSTANT SYMDEF ALIGNED,
      635     1235    1                  2 * PTR INIT(ADDR(NIL)),
      636     1236    1                  2 * PTR INIT(ADDR(RAW_CMPSTRT)),
      637     1237    1                  2 * PTR INIT(ADDR(RAW_MOUNT)),
      638     1238    1                  2 * PTR INIT(ADDR(RAW_MOUNT)),
      639     1239    1                  2 * PTR INIT(ADDR(RAW_TIMESTAMP)),
      640     1240    1                  2 * PTR INIT(ADDR(RAW_OPER)),
      641     1241    1                  2 * PTR INIT(ADDR(RAW_REX)),
      642     1242    1                  2 * PTR INIT(ADDR(RAW_FWLOAD)),
      643     1243    1                  2 * PTR INIT(ADDR(RAW_DIAG)),
      644     1244    1                  2 * PTR INIT(ADDR(RAW_SYSCON)),
      645     1245    1                  2 * PTR INIT(ADDR(RAW_SYSID)),
      646     1246    1                  2 * PTR INIT(ADDR(RAW_MPCSTAT)),
      647     1247    1                  2 * PTR INIT(ADDR(RAW_ANLZ)),
      648     1248    1                  2 * PTR INIT(ADDR(RAW_ZAP)),
      649     1249    1                  2 * PTR INIT(ADDR(RAW_DEVSTATS)),
      650     1250    1                  2 * PTR INIT(ADDR(RAW_CHANTRAN)),
      651     1251    1                  2 * PTR INIT(ADDR(RAW_MSOSSAYS)),
      652     1252    1                  2 * PTR INIT(ADDR(RAW_CP6SAYS)),
      653     1253    1                  2 * PTR INIT(ADDR(RAW_IOERR)),
      654     1254    1                  2 * PTR INIT(ADDR(RAW_EDAC)),
      655     1255    1                  2 * PTR INIT(ADDR(RAW_FEPERR)),
      656     1256    1                  2 * PTR INIT(ADDR(RAW_PROCERR)),
      657     1257    1                  2 * PTR INIT(ADDR(RAW_SPURINT)),
      658     1258    1                  2 * PTR INIT(ADDR(RAW_FEPFLT)),
      659     1259    1                  2 * PTR INIT(ADDR(RAW_SCREECH)),
      660     1260    1                  2 * PTR INIT(ADDR(RAW_FI)),
      661     1261    1                  2 * PTR INIT(ADDR(RAW_OSFI)),
      662     1262    1                  2 * PTR INIT(ADDR(RAW_FEPEVENT)),
      663     1263    1                  2 * PTR INIT(ADDR(RAW_GABRT)),
      664     1264    1                  2 * PTR INIT(ADDR(RAW_SUA)),
      665     1265    1                  2 * PTR INIT(ADDR(RAW_SNAP)),
      666     1266    1                  2 * PTR INIT(ADDR(RAW_CGERR)),
      667     1267    1                  2 * PTR INIT(ADDR(RAW_FEPDUMP)),
      668     1268    1                  2 * PTR INIT(ADDR(RAW_LOST)),
      669     1269    1                  2 * PTR INIT(ADDR(RAW_CHNGAARD)),
      670     1270    1                  2 * PTR INIT(ADDR(RAW_DEVSTATS2)),
PL6.E3A0      #001=TH_REPORT_D File=TH_REPORT_D.:E05TSI                          WED 07/30/97 06:17 Page:96
      671     1271    1                  2 * PTR INIT(ADDR(RAW_DEVSTATS3)),
      672     1272    1                  2 * PTR INIT(ADDR(RAW_MIRROR)),
      673     1273    1                  2 * PTR INIT(ADDR(NIL));
      674     1274        %EJECT;
PL6.E3A0      #001=TH_REPORT_D File=TH_REPORT_D.:E05TSI                          WED 07/30/97 06:17 Page:97
      675     1275    1   DCL 1 TH_DETAIL_FMT CONSTANT SYMDEF ALIGNED,
      676     1276    1                  2 * PTR INIT(ADDR(NIL)),
      677     1277    1                  2 * PTR INIT(ADDR(RAW_CMPSTRT)),
      678     1278    1                  2 * PTR INIT(ADDR(RAW_MOUNT)),
      679     1279    1                  2 * PTR INIT(ADDR(RAW_MOUNT)),
      680     1280    1                  2 * PTR INIT(ADDR(RAW_TIMESTAMP)),
      681     1281    1                  2 * PTR INIT(ADDR(RAW_OPER)),
      682     1282    1                  2 * PTR INIT(ADDR(RAW_REX)),
      683     1283    1                  2 * PTR INIT(ADDR(RAW_FWLOAD)),
      684     1284    1                  2 * PTR INIT(ADDR(RAW_DIAG)),
      685     1285    1                  2 * PTR INIT(ADDR(RAW_SYSCON)),
      686     1286    1                  2 * PTR INIT(ADDR(RAW_SYSID)),
      687     1287    1                  2 * PTR INIT(ADDR(EXTENDED_MPCSTAT)),
      688     1288    1                  2 * PTR INIT(ADDR(RAW_ANLZ)),
      689     1289    1                  2 * PTR INIT(ADDR(RAW_ZAP)),
      690     1290    1                  2 * PTR INIT(ADDR(EXTENDED_DEVSTATS)),
      691     1291    1                  2 * PTR INIT(ADDR(DETAIL_CHANTRAN)),
      692     1292    1                  2 * PTR INIT(ADDR(DETAIL_MSOSSAYS)),
      693     1293    1                  2 * PTR INIT(ADDR(DETAIL_CP6SAYS)),
      694     1294    1                  2 * PTR INIT(ADDR(DETAIL_IOERR)),
      695     1295    1                  2 * PTR INIT(ADDR(RAW_EDAC)),
      696     1296    1                  2 * PTR INIT(ADDR(DETAIL_FEPERR)),
      697     1297    1                  2 * PTR INIT(ADDR(DETAIL_PROCERR)),
      698     1298    1                  2 * PTR INIT(ADDR(RAW_SPURINT)),
      699     1299    1                  2 * PTR INIT(ADDR(RAW_FEPFLT)),
      700     1300    1                  2 * PTR INIT(ADDR(RAW_SCREECH)),
      701     1301    1                  2 * PTR INIT(ADDR(DETAIL_FI)),
      702     1302    1                  2 * PTR INIT(ADDR(RAW_OSFI)),
      703     1303    1                  2 * PTR INIT(ADDR(RAW_FEPEVENT)),
      704     1304    1                  2 * PTR INIT(ADDR(RAW_GABRT)),
      705     1305    1                  2 * PTR INIT(ADDR(RAW_SUA)),
      706     1306    1                  2 * PTR INIT(ADDR(RAW_SNAP)),
      707     1307    1                  2 * PTR INIT(ADDR(DETAIL_CGERR)),
      708     1308    1                  2 * PTR INIT(ADDR(RAW_FEPDUMP)),
      709     1309    1                  2 * PTR INIT(ADDR(RAW_LOST)),
      710     1310    1                  2 * PTR INIT(ADDR(RAW_CHNGAARD)),
      711     1311    1                  2 * PTR INIT(ADDR(EXTENDED_DEVSTATS2)),
PL6.E3A0      #001=TH_REPORT_D File=TH_REPORT_D.:E05TSI                          WED 07/30/97 06:17 Page:98
      712     1312    1                  2 * PTR INIT(ADDR(EXTENDED_DEVSTATS3)),
      713     1313    1                  2 * PTR INIT(ADDR(RAW_MIRROR)),
      714     1314    1                  2 * PTR INIT(ADDR(NIL));
      715     1315        %EJECT;
PL6.E3A0      #001=TH_REPORT_D File=TH_REPORT_D.:E05TSI                          WED 07/30/97 06:17 Page:99
      716     1316    1   DCL 1 TH_EXTENDED_FMT CONSTANT SYMDEF ALIGNED,
      717     1317    1                  2 * PTR INIT(ADDR(NIL)),
      718     1318    1                  2 * PTR INIT(ADDR(RAW_CMPSTRT)),
      719     1319    1                  2 * PTR INIT(ADDR(RAW_MOUNT)),
      720     1320    1                  2 * PTR INIT(ADDR(RAW_MOUNT)),
      721     1321    1                  2 * PTR INIT(ADDR(RAW_TIMESTAMP)),
      722     1322    1                  2 * PTR INIT(ADDR(RAW_OPER)),
      723     1323    1                  2 * PTR INIT(ADDR(RAW_REX)),
      724     1324    1                  2 * PTR INIT(ADDR(RAW_FWLOAD)),
      725     1325    1                  2 * PTR INIT(ADDR(RAW_DIAG)),
      726     1326    1                  2 * PTR INIT(ADDR(RAW_SYSCON)),
      727     1327    1                  2 * PTR INIT(ADDR(RAW_SYSID)),
      728     1328    1                  2 * PTR INIT(ADDR(EXTENDED_MPCSTAT)),
      729     1329    1                  2 * PTR INIT(ADDR(RAW_ANLZ)),
      730     1330    1                  2 * PTR INIT(ADDR(RAW_ZAP)),
      731     1331    1                  2 * PTR INIT(ADDR(EXTENDED_DEVSTATS)),
      732     1332    1                  2 * PTR INIT(ADDR(DETAIL_CHANTRAN)),
      733     1333    1                  2 * PTR INIT(ADDR(DETAIL_MSOSSAYS)),
      734     1334    1                  2 * PTR INIT(ADDR(DETAIL_CP6SAYS)),
      735     1335    1                  2 * PTR INIT(ADDR(EXTENDED_IOERR)),
      736     1336    1                  2 * PTR INIT(ADDR(RAW_EDAC)),
      737     1337    1                  2 * PTR INIT(ADDR(EXTENDED_FEPERR)),
      738     1338    1                  2 * PTR INIT(ADDR(DETAIL_PROCERR)),
      739     1339    1                  2 * PTR INIT(ADDR(RAW_SPURINT)),
      740     1340    1                  2 * PTR INIT(ADDR(RAW_FEPFLT)),
      741     1341    1                  2 * PTR INIT(ADDR(RAW_SCREECH)),
      742     1342    1                  2 * PTR INIT(ADDR(DETAIL_FI)),
      743     1343    1                  2 * PTR INIT(ADDR(RAW_OSFI)),
      744     1344    1                  2 * PTR INIT(ADDR(RAW_FEPEVENT)),
      745     1345    1                  2 * PTR INIT(ADDR(RAW_GABRT)),
      746     1346    1                  2 * PTR INIT(ADDR(RAW_SUA)),
      747     1347    1                  2 * PTR INIT(ADDR(RAW_SNAP)),
      748     1348    1                  2 * PTR INIT(ADDR(DETAIL_CGERR)),
      749     1349    1                  2 * PTR INIT(ADDR(RAW_FEPDUMP)),
      750     1350    1                  2 * PTR INIT(ADDR(RAW_LOST)),
      751     1351    1                  2 * PTR INIT(ADDR(RAW_CHNGAARD)),
      752     1352    1                  2 * PTR INIT(ADDR(EXTENDED_DEVSTATS2)),
PL6.E3A0      #001=TH_REPORT_D File=TH_REPORT_D.:E05TSI                          WED 07/30/97 06:17 Page:100
      753     1353    1                  2 * PTR INIT(ADDR(EXTENDED_DEVSTATS3)),
      754     1354    1                  2 * PTR INIT(ADDR(RAW_MIRROR)),
      755     1355    1                  2 * PTR INIT(ADDR(NIL));
      756     1356        %EJECT;
PL6.E3A0      #001=TH_REPORT_D File=TH_REPORT_D.:E05TSI                          WED 07/30/97 06:17 Page:101
      757     1357        /* FORMAT STRUCTURES FOR HWE REPORTS FOR ELAN */
      758     1358        /* MEMORY REPORT */
      759     1359    1   DCL 1 MEM_H1 CONSTANT,
      760     1360    1         2 * CHAR(0) INIT('LAST%/ERROR PORT STORE UNIT SLOT CHIP COUNT%/'),
      761     1361    1         2 * CHAR(0) INIT('----- ---- ---------- ---- ---- -----%10P');
      762     1362    1   DCL MEM_F1 CHAR(0) CONSTANT INIT(
      763     1363    1   '%5A %3P%9-%T%16-%T%25-%T%29-%T%2.1.0.18P%5.18D%10P');
      764     1364        %CTL (NAME=HWE_MEM,NHDR=1,NFMT=1,HDRFLG=FIRSTTIME,V1=MEM_H1,V2=MEM_F1);
      765     1377        %EJECT;
PL6.E3A0      #001=TH_REPORT_D File=TH_REPORT_D.:E05TSI                          WED 07/30/97 06:17 Page:102
      766     1378        /* IOM REPORT */
      767     1379        %CTL (NAME=HWE_IOM,NHDR=0,NFMT=0);
      768     1392        %EJECT;
PL6.E3A0      #001=TH_REPORT_D File=TH_REPORT_D.:E05TSI                          WED 07/30/97 06:17 Page:103
      769     1393        /* FEP REPORT */
      770     1394        %CTL (NAME=HWE_FEP,NHDR=0,NFMT=0);
      771     1407        %EJECT;
PL6.E3A0      #001=TH_REPORT_D File=TH_REPORT_D.:E05TSI                          WED 07/30/97 06:17 Page:104
      772     1408        /* PERIPHERAL REPORT */
      773     1409    1   DCL 1 PERIPH_H1 CONSTANT,
      774     1410    1         2 * CHAR(0) INIT(
              1410        '%7-TRY ERR%54-STATUS CODES%/TIME  CNT CNT I-CC-DD DEV IDCW SN%45-MAJOR%62-MINOR%/'
              1410                  ),
      775     1411    1         2 * CHAR(0) INIT(
              1411       '----- --- --- ------- ---- ---- ------ ---------------- ----------------------%10P'
              1411                  );
      776     1412    1   DCL PERIPH_F1 CHAR(0) CONSTANT INIT(
      777     1413    1   '%5A %2.5.2P%3.9D %2.5.3P%3.9D %2.5.0.6P%1.3D-%2.9ZD-%2.5P%2.6ZD %2.20P%4A  %2.8P%2
              1413        .6ZO %2.22P%6A %3P%T%57-%T%74-%2.1P%2.6ZO/%2.6ZO %10P'
      778     1414    1   );
      779     1415        %CTL (NAME=HWE_PERIPH,NHDR=1,NFMT=1,HDRFLG=FIRSTTIME,V1=PERIPH_H1,V2=PERIPH_F1);
      780     1428        %EJECT;
PL6.E3A0      #001=TH_REPORT_D File=TH_REPORT_D.:E05TSI                          WED 07/30/97 06:17 Page:105
      781     1429        /* MPC REPORT */
      782     1430        %CTL (NAME=HWE_MPC,NHDR=0,NFMT=0);
      783     1443        %EJECT;
PL6.E3A0      #001=TH_REPORT_D File=TH_REPORT_D.:E05TSI                          WED 07/30/97 06:17 Page:106
      784     1444    1   DCL 1 TH_HWE_FMT CONSTANT SYMDEF ALIGNED,
      785     1445    1                  2 * PTR INIT(ADDR(NIL)),
      786     1446    1                  2 * PTR INIT(ADDR(HWE_MEM)),
      787     1447    1                  2 * PTR INIT(ADDR(HWE_IOM)),
      788     1448    1                  2 * PTR INIT(ADDR(HWE_FEP)),
      789     1449    1                  2 * PTR INIT(ADDR(HWE_PERIPH)),
      790     1450    1                  2 * PTR INIT(ADDR(HWE_MPC)),
      791     1451    1                  2 * PTR INIT(ADDR(NIL));
      792     1452    1   END TH_REPORT_D;

PL6.E3A0      #001=TH_REPORT_D File=TH_REPORT_D.:E05TSI                          WED 07/30/97 06:17 Page:107
      No diagnostics issued in procedure TH_REPORT_D.
PL6.E3A0      #001=TH_REPORT_D File=TH_REPORT_D.:E05TSI                          WED 07/30/97 06:17 Page:108

 **** Variables and constants ****

  ****  Section 000 RoData TH_REPORT_D

  ****  Scalars and arrays  ****
OctLoc.c.b A Datatyp(siz) R M Lvl/name                 OctLoc.c.b A Datatyp(siz) R M Lvl/name

  3627-0-0/c CHAR(65)    r     1 ANLZ_F1                 3564-0-0/c CHAR(77)    r     1 ANLZ_H1
  3610-0-0/c CHAR(57)    r     1 ANLZ_H2                10327-0-0/c CHAR(35)    r     1 CGERR_F1
 10274-0-0/c CHAR(58)    r     1 CGERR_H1               10313-0-0/c CHAR(47)    r     1 CGERR_H2
  4017-0-0/c STRC(360)   r     1 CHANTRAN_F1             4062-0-0/c STRC(1917)  r     1 CHANTRAN_F2
  3764-0-0/c CHAR(55)    r     1 CHANTRAN_H1             4002-0-0/c CHAR(50)    r     1 CHANTRAN_H2
 10656-0-0/c CHAR(64)    r     1 CHNGAARD_F1            10602-0-0/c CHAR(114)   r     1 CHNGAARD_H1
 10637-0-0/c CHAR(58)    r     1 CHNGAARD_H2               41-0-0/c CHAR(31)    r     1 CMPSTRT_F1
     0-0-0/c CHAR(130)   r     1 CMPSTRT_H1              4471-0-0/c STRC(270)   r     1 CP6SAYS_F1
  4532-0-0/c STRC(2691)  r     1 CP6SAYS_F2              4422-0-0/c CHAR(74)    r     1 CP6SAYS_H1
  4445-0-0/c CHAR(77)    r     1 CP6SAYS_H2             10370-0-0/d STRC(864)   r     1 DETAIL_CGERR
  4150-0-0/d STRC(864)   r     1 DETAIL_CHANTRAN         4646-0-0/d STRC(864)   r     1 DETAIL_CP6SAYS
  6316-0-0/d STRC(864)   r     1 DETAIL_FEPERR           7630-0-0/d STRC(864)   r     1 DETAIL_FI
  5572-0-0/d STRC(864)   r     1 DETAIL_IOERR            4372-0-0/d STRC(864)   r     1 DETAIL_MSOSSAYS
  6526-0-0/d STRC(864)   r     1 DETAIL_PROCERR          1634-0-0/c STRC(5823)  r     1 DEVSTAT2_F1
  1277-0-0/c CHAR(124)   r     1 DEVSTAT2_F2             2126-0-0/c STRC(5436)  r     1 DEVSTAT3_F1
  1366-0-0/c CHAR(125)   r     1 DEVSTAT3_F2             1116-0-0/c CHAR(98)    r     1 DEVSTAT_F1
  1456-0-0/c STRC(3087)  r     1 DEVSTAT_F2              1006-0-0/c CHAR(37)    r     1 DEVSTAT_H1
  1200-0-0/c STRC(2241)  r     1 DEVSTAT_H2              1020-0-0/c STRC(2205)  r     1 DEVSTAT_H3
   474-0-0/c CHAR(39)    r     1 DIAG_F1                  430-0-0/c CHAR(84)    r     1 DIAG_H1
   455-0-0/c CHAR(57)    r     1 DIAG_H2                 5705-0-0/c CHAR(97)    r     1 EDAC_F1
  5622-0-0/c CHAR(120)   r     1 EDAC_H1                 5660-0-0/c CHAR(82)    r     1 EDAC_H2
  1604-0-0/d STRC(864)   r     1 EXTENDED_DEVSTATS       2076-0-0/d STRC(864)   r     1 EXTENDED_DEVSTATS2
  2356-0-0/d STRC(864)   r     1 EXTENDED_DEVSTATS3      6256-0-0/d STRC(864)   r     1 EXTENDED_FEPERR
  5464-0-0/d STRC(864)   r     1 EXTENDED_IOERR          3170-0-0/d STRC(864)   r     1 EXTENDED_MPCSTAT
 10471-0-0/c CHAR(38)    r     1 FEPDUMP_F1             10420-0-0/c CHAR(92)    r     1 FEPDUMP_H1
 10447-0-0/c CHAR(71)    r     1 FEPDUMP_H2              6030-0-0/c CHAR(60)    r     1 FEPERR_F1
  6100-0-0/c STRC(3960)  r     1 FEPERR_F2               6306-0-0/c STRC(243)   r     1 FEPERR_F3
  5766-0-0/c CHAR(75)    r     1 FEPERR_H1               6011-0-0/c CHAR(57)    r     1 FEPERR_H2
 10064-0-0/c CHAR(65)    r     1 FEPEVENT_F1            10006-0-0/c CHAR(112)   r     1 FEPEVENT_H1
 10042-0-0/c CHAR(72)    r     1 FEPEVENT_H2             6731-0-0/c CHAR(47)    r     1 FEPFLT_F1
PL6.E3A0      #001=TH_REPORT_D File=TH_REPORT_D.:E05TSI                          WED 07/30/97 06:17 Page:109
  6700-0-0/c CHAR(98)    r     1 FEPFLT_H1               7262-0-0/c CHAR(71)    r     1 FI_F1
  7334-0-0/c STRC(6768)  r     1 FI_F2                   7204-0-0/c CHAR(97)    r     1 FI_H1
  7235-0-0/c CHAR(83)    r     1 FI_H2                    365-0-0/c CHAR(37)    r     1 FWLOAD_F1
   354-0-0/c CHAR(34)    r     1 FWLOAD_H1              10214-0-0/c CHAR(94)    r     1 GABRT_F1
 10136-0-0/c CHAR(106)   r     1 GABRT_H1               10171-0-0/c CHAR(76)    r     1 GABRT_H2
 11236-0-0/d STRC(864)   r     1 HWE_FEP                11206-0-0/d STRC(864)   r     1 HWE_IOM
 11156-0-0/d STRC(864)   r     1 HWE_MEM                11432-0-0/d STRC(864)   r     1 HWE_MPC
 11402-0-0/d STRC(864)   r     1 HWE_PERIPH              4765-0-0/c STRC(1728)  r     1 IOERR_F1
  5076-0-0/c STRC(8829)  r     1 IOERR_F2                5514-0-0/c STRC(1647)  r     1 IOERR_F3
  4676-0-0/c CHAR(135)   r     1 IOERR_H1                4740-0-0/c CHAR(82)    r     1 IOERR_H2
 10534-0-0/c CHAR(54)    r     1 LOST_H1                11141-0-0/c CHAR(50)    r     1 MEM_F1
 11113-0-0/c STRC(774)   r     1 MEM_H1                  3500-0-0/c STRC(981)   r     1 MIRROR_F1
  3404-0-0/c STRC(2160)  r     1 MIRROR_H1                140-0-0/c CHAR(37)    r     1 MOUNT_F1
   102-0-0/c CHAR(41)    r     1 MOUNT_H1                 115-0-0/c CHAR(73)    r     1 MOUNT_H2
  2417-0-0/c STRC(12942) r     1 MPCSTAT_F1              3317-0-0/c CHAR(113)   r     1 MPCSTAT_F2
  2406-0-0/c CHAR(34)    r     1 MPCSTAT_H1              3220-0-0/c STRC(2259)  r     1 MPCSTAT_H3
  4234-0-0/c STRC(207)   r     1 MSOSSAYS_F1             4272-0-0/c STRC(2241)  r     1 MSOSSAYS_F2
  4200-0-0/c CHAR(62)    r     1 MSOSSAYS_H1             4220-0-0/c CHAR(45)    r     1 MSOSSAYS_H2
   255-0-0/c CHAR(19)    r     1 OPER_F1                  244-0-0/c CHAR(33)    r     1 OPER_H1
  7740-0-0/c CHAR(52)    r     1 OSFI_F1                 7660-0-0/c CHAR(120)   r     1 OSFI_H1
  7716-0-0/c CHAR(72)    r     1 OSFI_H2                11337-0-0/c CHAR(136)   r     1 PERIPH_F1
 11266-0-0/c STRC(1476)  r     1 PERIPH_H1               6435-0-0/c CHAR(126)   r     1 PROCERR_F1
  6346-0-0/c CHAR(73)    r     1 PROCERR_H1              6371-0-0/c CHAR(76)    r     1 PROCERR_H2
  6414-0-0/c CHAR(68)    r     1 PROCERR_H3              3650-0-0/d STRC(864)   r     1 RAW_ANLZ
 10340-0-0/d STRC(864)   r     1 RAW_CGERR               4032-0-0/d STRC(864)   r     1 RAW_CHANTRAN
 10676-0-0/d STRC(864)   r     1 RAW_CHNGAARD              52-0-0/d STRC(864)   r     1 RAW_CMPSTRT
  4502-0-0/d STRC(864)   r     1 RAW_CP6SAYS             1150-0-0/d STRC(864)   r     1 RAW_DEVSTATS
  1336-0-0/d STRC(864)   r     1 RAW_DEVSTATS2           1426-0-0/d STRC(864)   r     1 RAW_DEVSTATS3
   506-0-0/d STRC(864)   r     1 RAW_DIAG                5736-0-0/d STRC(864)   r     1 RAW_EDAC
 10504-0-0/d STRC(864)   r     1 RAW_FEPDUMP             6050-0-0/d STRC(864)   r     1 RAW_FEPERR
 10106-0-0/d STRC(864)   r     1 RAW_FEPEVENT            6746-0-0/d STRC(864)   r     1 RAW_FEPFLT
  7304-0-0/d STRC(864)   r     1 RAW_FI                   400-0-0/d STRC(864)   r     1 RAW_FWLOAD
 10244-0-0/d STRC(864)   r     1 RAW_GABRT               5046-0-0/d STRC(864)   r     1 RAW_IOERR
 10552-0-0/d STRC(864)   r     1 RAW_LOST                3534-0-0/d STRC(864)   r     1 RAW_MIRROR
   152-0-0/d STRC(864)   r     1 RAW_MOUNT               3354-0-0/d STRC(864)   r     1 RAW_MPCSTAT
  4242-0-0/d STRC(864)   r     1 RAW_MSOSSAYS             262-0-0/d STRC(864)   r     1 RAW_OPER
  7756-0-0/d STRC(864)   r     1 RAW_OSFI                6476-0-0/d STRC(864)   r     1 RAW_PROCERR
PL6.E3A0      #001=TH_REPORT_D File=TH_REPORT_D.:E05TSI                          WED 07/30/97 06:17 Page:110
   324-0-0/d STRC(864)   r     1 RAW_REX                 7074-0-0/d STRC(864)   r     1 RAW_SCREECH
  7154-0-0/d STRC(864)   r     1 RAW_SNAP                6650-0-0/d STRC(864)   r     1 RAW_SPURINT
  7124-0-0/d STRC(864)   r     1 RAW_SUA                  626-0-0/d STRC(864)   r     1 RAW_SYSCON
   756-0-0/d STRC(864)   r     1 RAW_SYSID                214-0-0/d STRC(864)   r     1 RAW_TIMESTAMP
  3734-0-0/d STRC(864)   r     1 RAW_ZAP                  312-0-0/c CHAR(38)    r     1 REX_H1
  7060-0-0/c CHAR(48)    r     1 SCREECH_F1              6776-0-0/c CHAR(34)    r     1 SCREECH_H1
  7026-0-0/c CHAR(52)    r     1 SCREECH_H2              7043-0-0/c CHAR(52)    r     1 SCREECH_H3
  7020-0-0/c CHAR(23)    r     1 SNAP_H1                 6625-0-0/c CHAR(72)    r     1 SPURINT_F1
  6556-0-0/c CHAR(90)    r     1 SPURINT_H1              6605-0-0/c CHAR(64)    r     1 SPURINT_H2
  7007-0-0/c CHAR        r     1 SUA_H1                   610-0-0/c CHAR(56)    r     1 SYSCON_F1
   536-0-0/c CHAR(100)   r     1 SYSCON_H1                567-0-0/c CHAR(67)    r     1 SYSCON_H2
   730-0-0/c CHAR(84)    r     1 SYSID_F1                 656-0-0/c CHAR(94)    r     1 SYSID_H1
   706-0-0/c CHAR(71)    r     1 SYSID_H2                 202-0-0/c CHAR(33)    r     1 TIMESTAMP_H1
  3727-0-0/c CHAR(20)    r     1 ZAP_F1                  3700-0-0/c CHAR(51)    r     1 ZAP_H1
  3715-0-0/c CHAR(39)    r     1 ZAP_H2


   No code generated for procedure TH_REPORT_D .
   Procedure TH_REPORT_D requires 4 words of local(AUTO) storage.

    No errors detected in file TH_REPORT_D.:E05TSI    .
PL6.E3A0      #001=TH_REPORT_D File=TH_REPORT_D.:E05TSI                          WED 07/30/97 06:17 Page:111
          *** CROSS REFERENCE LISTING ***
**     DENOTES     IDENTIFIER DEFINITION
<<                 IDENTIFIER'S VALUE SET
>>                 IDENTIFIER'S VALUE USED
<>                 IDENTIFIER SET AND/OR USED
--                 IDENTIFIER REFERENCED
PL6.E3A0      #001=TH_REPORT_D File=TH_REPORT_D.:E05TSI                          WED 07/30/97 06:17 Page:112
          MINI XREF LISTING

ANLZ_F1
       498**DCL       509--DCLINIT
ANLZ_H1
       493**DCL       508--DCLINIT
ANLZ_H2
       496**DCL       508--DCLINIT
CGERR_F1
      1144**DCL      1155--DCLINIT  1168--DCLINIT
CGERR_H1
      1140**DCL      1154--DCLINIT  1167--DCLINIT
CGERR_H2
      1142**DCL      1154--DCLINIT  1167--DCLINIT
CHANTRAN_F1
       539**DCL       551--DCLINIT
CHANTRAN_F2
       559**DCL       581--DCLINIT
CHANTRAN_H1
       535**DCL       550--DCLINIT
CHANTRAN_H2
       537**DCL       550--DCLINIT
CHNGAARD_F1
      1218**DCL      1229--DCLINIT
CHNGAARD_H1
      1212**DCL      1228--DCLINIT
CHNGAARD_H2
      1216**DCL      1228--DCLINIT
CMPSTRT_F1
        34**DCL        44--DCLINIT
CMPSTRT_H1
        30**DCL        44--DCLINIT
CP6SAYS_F1
       645**DCL       657--DCLINIT
PL6.E3A0      #001=TH_REPORT_D File=TH_REPORT_D.:E05TSI                          WED 07/30/97 06:17 Page:113
CP6SAYS_F2
       665**DCL       686--DCLINIT
CP6SAYS_H1
       641**DCL       656--DCLINIT
CP6SAYS_H2
       643**DCL       656--DCLINIT
DETAIL_CGERR
      1160**DCL      1307--DCLINIT  1348--DCLINIT
DETAIL_CHANTRAN
       574**DCL      1291--DCLINIT  1332--DCLINIT
DETAIL_CP6SAYS
       679**DCL      1293--DCLINIT  1334--DCLINIT
DETAIL_FEPERR
       864**DCL      1296--DCLINIT
DETAIL_FI
      1060**DCL      1301--DCLINIT  1342--DCLINIT
DETAIL_IOERR
       771**DCL      1294--DCLINIT
DETAIL_MSOSSAYS
       627**DCL      1292--DCLINIT  1333--DCLINIT
DETAIL_PROCERR
       908**DCL      1297--DCLINIT  1338--DCLINIT
DEVSTAT2_F1
       313**DCL       339--DCLINIT
DEVSTAT2_F2
       250**DCL       263--DCLINIT
DEVSTAT3_F1
       346**DCL       371--DCLINIT
DEVSTAT3_F2
       269**DCL       282--DCLINIT
DEVSTAT_F1
       223**DCL       235--DCLINIT
DEVSTAT_F2
       288**DCL       306--DCLINIT
DEVSTAT_H1
       211**DCL       234--DCLINIT   262--DCLINIT   281--DCLINIT   306--DCLINIT   339--DCLINIT   371--DCLINIT
PL6.E3A0      #001=TH_REPORT_D File=TH_REPORT_D.:E05TSI                          WED 07/30/97 06:17 Page:114
DEVSTAT_H2
       241**DCL       262--DCLINIT   281--DCLINIT
DEVSTAT_H3
       215**DCL       234--DCLINIT
DIAG_F1
       150**DCL       161--DCLINIT
DIAG_H1
       145**DCL       160--DCLINIT
DIAG_H2
       148**DCL       160--DCLINIT
EDAC_F1
       790**DCL       801--DCLINIT
EDAC_H1
       785**DCL       800--DCLINIT
EDAC_H2
       788**DCL       800--DCLINIT
EXTENDED_DEVSTATS
       299**DCL      1290--DCLINIT  1331--DCLINIT
EXTENDED_DEVSTATS2
       332**DCL      1311--DCLINIT  1352--DCLINIT
EXTENDED_DEVSTATS3
       364**DCL      1312--DCLINIT  1353--DCLINIT
EXTENDED_FEPERR
       846**DCL      1337--DCLINIT
EXTENDED_IOERR
       749**DCL      1335--DCLINIT
EXTENDED_MPCSTAT
       426**DCL      1287--DCLINIT  1328--DCLINIT
FEPDUMP_F1
      1178**DCL      1189--DCLINIT
FEPDUMP_H1
      1174**DCL      1188--DCLINIT
FEPDUMP_H2
      1176**DCL      1188--DCLINIT
FEPERR_F1
       811**DCL       822--DCLINIT
PL6.E3A0      #001=TH_REPORT_D File=TH_REPORT_D.:E05TSI                          WED 07/30/97 06:17 Page:115
FEPERR_F2
       829**DCL       853--DCLINIT
FEPERR_F3
       860**DCL       871--DCLINIT
FEPERR_H1
       807**DCL       821--DCLINIT
FEPERR_H2
       809**DCL       821--DCLINIT
FEPEVENT_F1
      1101**DCL      1112--DCLINIT
FEPEVENT_H1
      1096**DCL      1111--DCLINIT
FEPEVENT_H2
      1099**DCL      1111--DCLINIT
FEPFLT_F1
       948**DCL       958--DCLINIT
FEPFLT_H1
       944**DCL       958--DCLINIT
FI_F1
      1022**DCL      1033--DCLINIT
FI_F2
      1040**DCL      1067--DCLINIT
FI_H1
      1018**DCL      1032--DCLINIT
FI_H2
      1020**DCL      1032--DCLINIT
FWLOAD_F1
       128**DCL       138--DCLINIT
FWLOAD_H1
       126**DCL       138--DCLINIT
GABRT_F1
      1123**DCL      1134--DCLINIT
GABRT_H1
      1118**DCL      1133--DCLINIT
GABRT_H2
      1121**DCL      1133--DCLINIT
PL6.E3A0      #001=TH_REPORT_D File=TH_REPORT_D.:E05TSI                          WED 07/30/97 06:17 Page:116
HWE_FEP
      1395**DCL      1448--DCLINIT
HWE_IOM
      1380**DCL      1447--DCLINIT
HWE_MEM
      1365**DCL      1446--DCLINIT
HWE_MPC
      1431**DCL      1450--DCLINIT
HWE_PERIPH
      1416**DCL      1449--DCLINIT
IOERR_F1
       698**DCL       712--DCLINIT
IOERR_F2
       719**DCL       756--DCLINIT
IOERR_F3
       763**DCL       778--DCLINIT
IOERR_H1
       693**DCL       711--DCLINIT
IOERR_H2
       696**DCL       711--DCLINIT
LOST_H1
      1195**DCL      1205--DCLINIT
MEM_F1
      1362**DCL      1372--DCLINIT
MEM_H1
      1359**DCL      1372--DCLINIT
MIRROR_F1
       474**DCL       486--DCLINIT
MIRROR_H1
       466**DCL       486--DCLINIT
MOUNT_F1
        56**DCL        68--DCLINIT
MOUNT_H1
        51**DCL        67--DCLINIT
MOUNT_H2
        53**DCL        67--DCLINIT
PL6.E3A0      #001=TH_REPORT_D File=TH_REPORT_D.:E05TSI                          WED 07/30/97 06:17 Page:117
MPCSTAT_F1
       380**DCL       433--DCLINIT
MPCSTAT_F2
       448**DCL       460--DCLINIT
MPCSTAT_H1
       378**DCL       433--DCLINIT   459--DCLINIT
MPCSTAT_H3
       440**DCL       459--DCLINIT
MSOSSAYS_F1
       592**DCL       604--DCLINIT
MSOSSAYS_F2
       612**DCL       634--DCLINIT
MSOSSAYS_H1
       588**DCL       603--DCLINIT
MSOSSAYS_H2
       590**DCL       603--DCLINIT
OPER_F1
        93**DCL       103--DCLINIT
OPER_H1
        91**DCL       103--DCLINIT
OSFI_F1
      1079**DCL      1090--DCLINIT
OSFI_H1
      1074**DCL      1089--DCLINIT
OSFI_H2
      1077**DCL      1089--DCLINIT
PERIPH_F1
      1412**DCL      1423--DCLINIT
PERIPH_H1
      1409**DCL      1423--DCLINIT
PROCERR_F1
       884**DCL       895--DCLINIT   916--DCLINIT
PROCERR_H1
       878**DCL       894--DCLINIT   915--DCLINIT
PROCERR_H2
       880**DCL       894--DCLINIT   915--DCLINIT
PL6.E3A0      #001=TH_REPORT_D File=TH_REPORT_D.:E05TSI                          WED 07/30/97 06:17 Page:118
PROCERR_H3
       882**DCL       895--DCLINIT   916--DCLINIT
RAW_ANLZ
       501**DCL      1247--DCLINIT  1288--DCLINIT  1329--DCLINIT
RAW_CGERR
      1147**DCL      1266--DCLINIT
RAW_CHANTRAN
       543**DCL      1250--DCLINIT
RAW_CHNGAARD
      1221**DCL      1269--DCLINIT  1310--DCLINIT  1351--DCLINIT
RAW_CMPSTRT
        37**DCL      1236--DCLINIT  1277--DCLINIT  1318--DCLINIT
RAW_CP6SAYS
       649**DCL      1252--DCLINIT
RAW_DEVSTATS
       227**DCL      1249--DCLINIT
RAW_DEVSTATS2
       255**DCL      1270--DCLINIT
RAW_DEVSTATS3
       274**DCL      1271--DCLINIT
RAW_DIAG
       153**DCL      1243--DCLINIT  1284--DCLINIT  1325--DCLINIT
RAW_EDAC
       793**DCL      1254--DCLINIT  1295--DCLINIT  1336--DCLINIT
RAW_FEPDUMP
      1181**DCL      1267--DCLINIT  1308--DCLINIT  1349--DCLINIT
RAW_FEPERR
       814**DCL      1255--DCLINIT
RAW_FEPEVENT
      1104**DCL      1262--DCLINIT  1303--DCLINIT  1344--DCLINIT
RAW_FEPFLT
       951**DCL      1258--DCLINIT  1299--DCLINIT  1340--DCLINIT
RAW_FI
      1025**DCL      1260--DCLINIT
RAW_FWLOAD
       131**DCL      1242--DCLINIT  1283--DCLINIT  1324--DCLINIT
PL6.E3A0      #001=TH_REPORT_D File=TH_REPORT_D.:E05TSI                          WED 07/30/97 06:17 Page:119
RAW_GABRT
      1126**DCL      1263--DCLINIT  1304--DCLINIT  1345--DCLINIT
RAW_IOERR
       704**DCL      1253--DCLINIT
RAW_LOST
      1198**DCL      1268--DCLINIT  1309--DCLINIT  1350--DCLINIT
RAW_MIRROR
       479**DCL      1272--DCLINIT  1313--DCLINIT  1354--DCLINIT
RAW_MOUNT
        60**DCL      1237--DCLINIT  1238--DCLINIT  1278--DCLINIT  1279--DCLINIT  1319--DCLINIT  1320--DCLINIT
RAW_MPCSTAT
       452**DCL      1246--DCLINIT
RAW_MSOSSAYS
       596**DCL      1251--DCLINIT
RAW_OPER
        96**DCL      1240--DCLINIT  1281--DCLINIT  1322--DCLINIT
RAW_OSFI
      1082**DCL      1261--DCLINIT  1302--DCLINIT  1343--DCLINIT
RAW_PROCERR
       887**DCL      1256--DCLINIT
RAW_REX
       112**DCL      1241--DCLINIT  1282--DCLINIT  1323--DCLINIT
RAW_SCREECH
       978**DCL      1259--DCLINIT  1300--DCLINIT  1341--DCLINIT
RAW_SNAP
      1004**DCL      1265--DCLINIT  1306--DCLINIT  1347--DCLINIT
RAW_SPURINT
       930**DCL      1257--DCLINIT  1298--DCLINIT  1339--DCLINIT
RAW_SUA
       991**DCL      1264--DCLINIT  1305--DCLINIT  1346--DCLINIT
RAW_SYSCON
       175**DCL      1244--DCLINIT  1285--DCLINIT  1326--DCLINIT
RAW_SYSID
       197**DCL      1245--DCLINIT  1286--DCLINIT  1327--DCLINIT
RAW_TIMESTAMP
        77**DCL      1239--DCLINIT  1280--DCLINIT  1321--DCLINIT
PL6.E3A0      #001=TH_REPORT_D File=TH_REPORT_D.:E05TSI                          WED 07/30/97 06:17 Page:120
RAW_ZAP
       522**DCL      1248--DCLINIT  1289--DCLINIT  1330--DCLINIT
REX_H1
       109**DCL       119--DCLINIT
SCREECH_F1
       975**DCL       986--DCLINIT   999--DCLINIT  1012--DCLINIT
SCREECH_H1
       965**DCL       985--DCLINIT
SCREECH_H2
       971**DCL       985--DCLINIT   998--DCLINIT  1011--DCLINIT
SCREECH_H3
       973**DCL       986--DCLINIT   999--DCLINIT  1012--DCLINIT
SNAP_H1
       969**DCL      1011--DCLINIT
SPURINT_F1
       927**DCL       938--DCLINIT
SPURINT_H1
       922**DCL       937--DCLINIT
SPURINT_H2
       925**DCL       937--DCLINIT
SUA_H1
       967**DCL       998--DCLINIT
SYSCON_F1
       172**DCL       183--DCLINIT
SYSCON_H1
       167**DCL       182--DCLINIT
SYSCON_H2
       170**DCL       182--DCLINIT
SYSID_F1
       194**DCL       205--DCLINIT
SYSID_H1
       189**DCL       204--DCLINIT
SYSID_H2
       192**DCL       204--DCLINIT
TIMESTAMP_H1
        74**DCL        84--DCLINIT
PL6.E3A0      #001=TH_REPORT_D File=TH_REPORT_D.:E05TSI                          WED 07/30/97 06:17 Page:121
ZAP_F1
       519**DCL       530--DCLINIT
ZAP_H1
       515**DCL       529--DCLINIT
ZAP_H2
       517**DCL       529--DCLINIT
