PL6.E3A0      #001=TH_XSTATUS_D File=TH_XSTATUS_D.:E05TSI                        WED 07/30/97 06:19 Page:1
        1        1        /*T***********************************************************/
        2        2        /*T*                                                         */
        3        3        /*T* Copyright (c) Bull HN Information Systems Inc., 1997    */
        4        4        /*T*                                                         */
        5        5        /*T***********************************************************/
        6        6
        7        7        /*M* STATIC DATA FOR EXTENDED STATUS INTERPRETATION IN ELAN */
        8        8        TH_XSTATUS_D: PROC;
        9        9        /**/
       10       10        /**/
       11       11        /*  HEXIDECIMAL MASKS  */
       12       12        %EQU   HEX_0B = 11;
       13       13        %EQU   HEX_0F = 15;
       14       14        %EQU   HEX_32 = 50;
       15       15        %EQU   HEX_51 = 81;
       16       16        %EQU   HEX_80 = 128;
       17       17        %EQU   HEX_81 = 129;
       18       18        %EQU   HEX_82 = 130;
       19       19        %EQU   HEX_83 = 131;
       20       20        %EQU   HEX_84 = 132;
       21       21        %EQU   HEX_85 = 133;
       22       22        %EQU   HEX_86 = 134;
       23       23        %EQU   HEX_87 = 135;
       24       24        %EQU   HEX_88 = 136;
       25       25        %EQU   HEX_89 = 137;
       26       26        %EQU   HEX_8A = 138;
       27       27        %EQU   HEX_8B = 139;
       28       28        %EQU   HEX_8C = 140;
       29       29        %EQU   HEX_8D = 141;
       30       30        %EQU   HEX_8E = 142;
       31       31        %EQU   HEX_8F = 143;
       32       32        %EQU   HEX_90 = 144;
       33       33        %EQU   HEX_91 = 145;
       34       34        %EQU   HEX_92 = 146;
       35       35        %EQU   HEX_93 = 147;
       36       36        %EQU   HEX_94 = 148;
       37       37        %EQU   HEX_95 = 149;
PL6.E3A0      #001=TH_XSTATUS_D File=TH_XSTATUS_D.:E05TSI                        WED 07/30/97 06:19 Page:2
       38       38        %EQU   HEX_96 = 150;
       39       39        %EQU   HEX_98 = 152;
       40       40        %EQU   HEX_99 = 153;
       41       41        %EQU   HEX_9A = 154;
       42       42        %EQU   HEX_9B = 155;
       43       43        %EQU   HEX_9C = 156;
       44       44        %EQU   HEX_9D = 157;
       45       45        %EQU   HEX_9E = 158;
       46       46        %EQU   HEX_A0 = 160;
       47       47        %EQU   HEX_A1 = 161;
       48       48        %EQU   HEX_A2 = 162;
       49       49        %EQU   HEX_A3 = 163;
       50       50        %EQU   HEX_A4 = 164;
       51       51        %EQU   HEX_A5 = 165;
       52       52        %EQU   HEX_A6 = 166;
       53       53        %EQU   HEX_A7 = 167;
       54       54        %EQU   HEX_A8 = 168;
       55       55        %EQU   HEX_A9 = 169;
       56       56        %EQU   HEX_AA = 170;
       57       57        %EQU   HEX_AB = 171;
       58       58        %EQU   HEX_AC = 172;
       59       59        %EQU   HEX_AD = 173;
       60       60        %EQU   HEX_B0 = 176;
       61       61        %EQU   HEX_B1 = 177;
       62       62        %EQU   HEX_B2 = 178;
       63       63        %EQU   HEX_B3 = 179;
       64       64        %EQU   HEX_B4 = 180;
       65       65        %EQU   HEX_B5 = 181;
       66       66        %EQU   HEX_C0 = 192;
       67       67        %EQU   HEX_C1 = 193;
       68       68        %EQU   HEX_C2 = 194;
       69       69        %EQU   HEX_C6 = 198;
       70       70        %EQU   HEX_CB = 203;
       71       71        %EQU   HEX_CD = 205;
       72       72        %EQU   HEX_CF = 207;
       73       73        %EQU   HEX_D4 = 212;
       74       74        %EQU   HEX_D5 = 213;
PL6.E3A0      #001=TH_XSTATUS_D File=TH_XSTATUS_D.:E05TSI                        WED 07/30/97 06:19 Page:3
       75       75        %EQU   HEX_D6 = 214;
       76       76        %EQU   HEX_D7 = 215;
       77       77        %EQU   HEX_D8 = 216;
       78       78        %EQU   HEX_D9 = 217;
       79       79        %EQU   HEX_DA = 218;
       80       80        %EQU   HEX_E0 = 224;
       81       81        %EQU   HEX_E1 = 225;
       82       82        %EQU   HEX_E2 = 226;
       83       83        %EQU   HEX_EE = 238;
       84       84        %SUB MAXMODELS = 29;
       85       85    1   DCL 1 X_DEV_TYPE(0:MAXMODELS) CONSTANT SYMDEF ALIGNED,
       86       86    1         2 DEV CHAR(8) INIT('MSU0451',
       87       87    1                            'MSU0501',
       88       88    1                            'MSU0509',
       89       89    1                            'MSU3380',
       90       90    1                            'MSU3381',
       91       91    1                            'MSU3382',
       92       92    1                            'MSU3383',
       93       93    1                            'MSU3390',
       94       94    1                            'MSU3391',
       95       95    1                            'MSU3392',
       96       96    1                            'MSU3393',
       97       97    1                            'MSU8082',
       98       98    1                            'MSU8092',
       99       99    1                            'MTU0610',
      100      100    1                            'MTU0630',
      101      101    1                            'MTU8200',
      102      102    1                            'CRU0501',
      103      103    1                            'CRU1050',
      104      104    1                            'PCU0120',
      105      105    1                            'PCU0121',
      106      106    1                            'PRU0901',
      107      107    1                            'PRU0903',
      108      108    1                            'PRU0908',
      109      109    1                            'PRU1201',
      110      110    1                            'PRU1203',
      111      111    1                            'PRU1208',
PL6.E3A0      #001=TH_XSTATUS_D File=TH_XSTATUS_D.:E05TSI                        WED 07/30/97 06:19 Page:4
      112      112    1                            'PRU1200',
      113      113    1                            'PRU1600',
      114      114    1                            ' '*0),
      115      115    1         2 SUB$ PTR INIT(ADDR(MSU_FOUR),
      116      116    1                         ADDR(MSU_FIVE),
      117      117    1                         ADDR(MSU_FIVE),
      118      118    1                         ADDR(MSU_THIRTY3),
      119      119    1                         ADDR(MSU_THIRTY3),
      120      120    1                         ADDR(MSU_THIRTY3),
      121      121    1                         ADDR(MSU_THIRTY3),
      122      122    1                         ADDR(MSU_THIRTY3),
      123      123    1                         ADDR(MSU_THIRTY3),
      124      124    1                         ADDR(MSU_THIRTY3),
      125      125    1                         ADDR(MSU_THIRTY3),
      126      126    1                         ADDR(MSU_MDS),
      127      127    1                         ADDR(MSU_MDS),
      128      128    1                         ADDR(MTU_SIX1),
      129      129    1                         ADDR(MTU_SIX2),
      130      130    1                         ADDR(MTU_EIGHTY2),
      131      131    1                         ADDR(CR_CP),
      132      132    1                         ADDR(CR_CP),
      133      133    1                         ADDR(CR_CP),
      134      134    1                         ADDR(CR_CP),
      135      135    1                         ADDR(PR54),
      136      136    1                         ADDR(PR54),
      137      137    1                         ADDR(PR54),
      138      138    1                         ADDR(PR54),
      139      139    1                         ADDR(PR54),
      140      140    1                         ADDR(PR54),
      141      141    1                         ADDR(PR71),
      142      142    1                         ADDR(PR71),
      143      143    1                         ADDR(NIL)*0),
      144      144    1         2 COUNT UBIN BYTE UNAL INIT(33,39,39,21,21,21,21,21,21,21,21,47,47,
      145      145    1                                     184,176,81,55,55,55,55,9,9,9,9,9,9,58,58,0*0);
      146      146        /**/
      147      147        /* FOR DISC -  MSU0451 */
      148      148        /**/
PL6.E3A0      #001=TH_XSTATUS_D File=TH_XSTATUS_D.:E05TSI                        WED 07/30/97 06:19 Page:5
      149      149    1   DCL 1 MSU_FOUR(0:33) CONSTANT SYMDEF ALIGNED,
      150      150    1         2 CODE UBIN BYTE UNAL INIT(0,1,2,3,4,5,6,7,8,10,11,12,13,14,
      151      151    1                                    15,16,17,18,19,21,23,24,25,27,32,33,
      152      152    1                                    35,37,38,39,44,45,46,47),
      153      153    1         2 COUNT UBIN BYTE UNAL INIT(15,13,17,15,9,16,12,18,18,15,19,
      154      154    1                                     15,17,19,17,16,17,18,19,18,13,15,
      155      155    1                                     17,9,10,17,19,15,14,14,15,17,17,12),
      156      156    1         2 TEXT CHAR(35) UNAL INIT('DEVICE RESERVED',
      157      157    1                                   'DEVICE SEIZED',
      158      158    1                                   'DEVICE IN STANDBY',
      159      159    1                                   'POSITIONER BUSY',
      160      160    1                                   'DLI FAULT',
      161      161    1                                   'DEVICE PROTECTED',
      162      162    1                                   'DEVICE FAULT',
      163      163    1                                   'DEV. IN DIAG. MODE',
      164      164    1                                   'COMMAND PAR. ERROR',
      165      165    1                                   'INVALID COMMAND',
      166      166    1                                   'INVALID COMMAND SEQ',
      167      167    1                                   'STATE VIOLATION',
      168      168    1                                   'PROTECT VIOLATION',
      169      169    1                                   'TRANS. TIMING ERROR',
      170      170    1                                   'DATA PARITY ERROR',
      171      171    1                                   'LOSS OF WRT CURR',
      172      172    1                                   'WRT & NO WRT CURR',
      173      173    1                                   'LOSS OF AC WT CURR',
      174      174    1                                   'NO OR MULTI HD SELE',
      175      175    1                                   'SPINDLE SPEED LOSS',
      176      176    1                                   'DC POWER LOSS',
      177      177    1                                   'SEEK INCOMPLETE',
      178      178    1                                   'POSIT. OVERTRAVEL',
      179      179    1                                   'RPS ERROR',
      180      180    1                                   'FINE SERVO',
      181      181    1                                   'TESTER ADDR ERROR',
      182      182    1                                   'INTERLOCK CYCLE INC',
      183      183    1                                   'LOSS OF COOLING',
      184      184    1                                   'FORWARD FF SET',
      185      185    1                                   'REVERSE FF SET',
PL6.E3A0      #001=TH_XSTATUS_D File=TH_XSTATUS_D.:E05TSI                        WED 07/30/97 06:19 Page:6
      186      186    1                                   'HEADS RETRACTED',
      187      187    1                                   'POSITIONER OFFSET',
      188      188    1                                   'READ CLOCK OFFSET',
      189      189    1                                   'WRITE & READ');
      190      190        /**/
      191      191        /* FOR DISC - MSU0501 AND MSU0509 */
      192      192        /**/
      193      193    1   DCL 1 MSU_FIVE(0:39) CONSTANT SYMDEF ALIGNED,
      194      194    1         2 CODE UBIN BYTE UNAL INIT(0,1,2,3,4,5,6,7,8,10,11,12,13,14,
      195      195    1                                    15,16,17,18,19,21,24,28,32,33,34,
      196      196    1                                    35,36,37,38,39,40,41,42,43,44,45,46,
      197      197    1                                    47,54,55),
      198      198    1         2 COUNT UBIN BYTE UNAL INIT(12,10,7,15,9,16,11,9,16,11,15,15,
      199      199    1                                     17,17,17,16,18,19,17,16,11,9,15,
      200      200    1                                     12,11,11,15,17,15,9,9,11,15,8,14,
      201      201    1                                     16,16,18,15,13),
      202      202    1         2 TEXT CHAR(35) UNAL INIT('DEV RESERVED',
      203      203    1                                   'DEV SEIZED',
      204      204    1                                   'STANDBY',
      205      205    1                                   'POSITIONER BUSY',
      206      206    1                                   'DLI ERROR',
      207      207    1                                   'WRITE PROTECTION',
      208      208    1                                   'DEV FAILURE',
      209      209    1                                   'DIAG MODE',
      210      210    1                                   'CMD PARITY ERROR',
      211      211    1                                   'INVALID CMD',
      212      212    1                                   'INVALID CMD SEQ',
      213      213    1                                   'STATE VIOLATION',
      214      214    1                                   'PROTECT VIOLATION',
      215      215    1                                   'XFER TIMING ERROR',
      216      216    1                                   'DATA PARITY ERROR',
      217      217    1                                   'LOSS OF WRT CURR',
      218      218    1                                   'WRT OR NO WRT CURR',
      219      219    1                                   'LOSS OF AC WRT CURR',
      220      220    1                                   'MULTI HD SELECTED',
      221      221    1                                   'SPINDLE SPD LOSS',
      222      222    1                                   'SEEK INCOMP',
PL6.E3A0      #001=TH_XSTATUS_D File=TH_XSTATUS_D.:E05TSI                        WED 07/30/97 06:19 Page:7
      223      223    1                                   'RPS FAULT',
      224      224    1                                   'SERVO OFF TRACK',
      225      225    1                                   'ACCESS CHECK',
      226      226    1                                   'PACK UNSAFE',
      227      227    1                                   'INDEX CHECK',
      228      228    1                                   'FIXED HD SELECT',
      229      229    1                                   'POSITIONER OFFSET',
      230      230    1                                   'RD CLOCK OFFSET',
      231      231    1                                   'R/W CHECK',
      232      232    1                                   'READ GATE',
      233      233    1                                   'NOT SOUELCH',
      234      234    1                                   'SYNC BYTE FOUND',
      235      235    1                                   'AM FOUND',
      236      236    1                                   'SEARCH AM MARK',
      237      237    1                                   '8 BITS PROCESSED',
      238      238    1                                   'SEARCH SYNC BYTE',
      239      239    1                                   '1ST BYTE PROCESSED',
      240      240    1                                   'INH HDA RECYCLE',
      241      241    1                                   'HDA SEQ CHECK');
      242      242        /**/
      243      243        /* FOR DISC - MSU3380 AND MSU3382 */
      244      244        /**/
      245      245    1   DCL 1 MSU_THIRTY3(0:21) CONSTANT SYMDEF ALIGNED,
      246      246    1         2 CODE UBIN BYTE UNAL INIT(0,1,2,3,4,5,8,9,10,11,12,13,14,
      247      247    1                                    17,18,19,20,21,22,32,34,56),
      248      248    1         2 COUNT UBIN BYTE UNAL INIT(14,21,14,15,10,7,15,20,15,19,15,14,15,
      249      249    1                                     11,18,26,16,16,16,29,16,1),
      250      250    1         2 TEXT CHAR(35) UNAL INIT('COMMAND REJECT',
      251      251    1                                   'INTERVENTION REQUIRED',
      252      252    1                                   'BUS OUT PARITY',
      253      253    1                                   'EQUIPMENT CHECK',
      254      254    1                                   'DATA CHECK',
      255      255    1                                   'OVERRUN',
      256      256    1                                   'PERMANENT ERROR',
      257      257    1                                   'INVALID TRACK FORMAT',
      258      258    1                                   'END OF CYLINDER',
      259      259    1                                   'MESSAGE OF OPERATOR',
PL6.E3A0      #001=TH_XSTATUS_D File=TH_XSTATUS_D.:E05TSI                        WED 07/30/97 06:19 Page:8
      260      260    1                                   'NO RECORD FOUND',
      261      261    1                                   'FILE PROTECTED',
      262      262    1                                   'WRITE INHIBITED',
      263      263    1                                   'CORRECTABLE',
      264      264    1                                   'FIRST LOGGED ERROR',
      265      265    1                                   'ENVIRONMENTAL DATA PRESENT',
      266      266    1                                   'INTENT VIOLATION',
      267      267    1                                   'IMPRECISE ENDING',
      268      268    1                                   'WRITE OPERATIONS',
      269      269    1                                   'CTRLR HAS DYNAMIC PATH SELECT',
      270      270    1                                   'PATH UNAVAILABLE',
      271      271    1                                   ' ');
      272      272        /**/
      273      273        /* FOR DISC - MDS8082 AND MDS8092 */
      274      274        /**/
      275      275    1   DCL 1 MSU_MDS(0:47) CONSTANT SYMDEF ALIGNED,
      276      276    1       2 CODE UBIN BYTE UNAL INIT(0,1,2,3,4,5,6,7,56,57,58,59,60,61,62,63,
      277      277    1                                  68,69,70,71,8,9,10,11,12,13,14,15,16,17,
      278      278    1                                  18,19,20,21,22,23,24,25,26,27,28,29,30,31,
      279      279    1                                  32,33,34,35),
      280      280    1       2 COUNT UBIN BYTE UNAL INIT(24,21,27,17,35,14,18,32,17,21,22,25,31,21,
      281      281    1                                  12,12,14,14,24,15,30,32,32,1,1,1,1,1,1,1,
      282      282    1                                  1,1,1,1,1,1,1,1,1,1,1,1,1,1,1,1,1,1),
      283      283    1       2 TEXT CHAR(35) UNAL INIT('PATH COMPONENT = CM-3   ',
      284      284    1                                'REFERENCE NUMBER =   ',
      285      285    1                                'IMX TRANSACTION NUMBER =   ',
      286      286    1                                'OPERATION CODE = ',
      287      287    1                                'CMD MODIFIERS =    OP MODIFIER =   ',
      288      288    1                                'CM NUMBER =   ',
      289      289    1                                'DEVICE NUMBER =   ',
      290      290    1                                'MAJOR STATUS:  IPI STATUS =     ',
      291      291    1                                ' -- CMD EXCEPTION',
      292      292    1                                ' -- MACHINE EXCEPTION',
      293      293    1                                ' -- ALT PORT EXCEPTION',
      294      294    1                                ' -- INTERVENTION REQUIRED',
      295      295    1                                ' -- MESSAGE/MICROCODE EXCEPTION',
      296      296    1                                ' -- DEFECT MANAGEMENT',
PL6.E3A0      #001=TH_XSTATUS_D File=TH_XSTATUS_D.:E05TSI                        WED 07/30/97 06:19 Page:9
      297      297    1                                ' -- RESERVED',
      298      298    1                                ' -- RESERVED',
      299      299    1                                ' -- SUCCESSFUL',
      300      300    1                                ' -- INCOMPLETE',
      301      301    1                                ' -- CONDITIONAL SUCCESS',
      302      302    1                                ' -- CMD ABORTED',
      303      303    1                                '               STATUS TYPE =  ',
      304      304    1                                'SUBSTATUS:     PARAM LENGTH =   ',
      305      305    1                                '               PARAMETER ID =   ',
      306      306    1                                ' ',' ',' ',' ',' ',' ',' ',' ',' ',' ',' ',
      307      307    1                                ' ',' ',' ',' ',' ',' ',' ',' ',' ',' ',' ',
      308      308    1                                ' ',' ',' ');
      309      309    1   DCL 1 MDS_OP_CODE_TBL(0:42) CONSTANT SYMDEF ALIGNED,
      310      310    1       2 CODE UBIN BYTE UNAL INIT(0,1,2,3,4,5,6,7,8,16,17,18,32,33,40,48,
      311      311    1                                  49,50,51,52,65,66,68,80,81,82,83,84,85,
      312      312    1                                  88,98,99,100,101,102,104,128,129,130,131,
      313      313    1                                  132,133,134),
      314      314    1       2 COUNT UBIN BYTE UNAL INIT(9,24,16,29,18,18,23,24,11,10,19,26,11,19,
      315      315    1                                   12,10,29,18,16,22,22,21,26,17,31,22,31,
      316      316    1                                   32,26,34,21,27,33,27,25,35,
      317      317    1                                   35,30,22,23,26,27,15),
      318      318    1       2 TEXT CHAR(35) UNAL INIT('00 -- NOP',
      319      319    1                                '01 -- FACILITY OPERATION',
      320      320    1                                '02 -- ATTRIBUTES',
      321      321    1                                '03 -- REPORT ADDRESSEE STATUS',
      322      322    1                                '04 -- PORT ADDRESS',
      323      323    1                                '05 -- PATH CONTROL',
      324      324    1                                '06 -- ATTENTION CONTROL',
      325      325    1                                '07 -- SET OPERATING MODE',
      326      326    1                                '08 -- ABORT',
      327      327    1                                '10 -- READ',
      328      328    1                                '11 -- READ RAW DATA',
      329      329    1                                '12 -- READ REPLICATED DATA',
      330      330    1                                '20 -- WRITE',
      331      331    1                                '21 -- WRITE PATTERN',
      332      332    1                                '28 -- FORMAT',
      333      333    1                                '30 -- COPY',
PL6.E3A0      #001=TH_XSTATUS_D File=TH_XSTATUS_D.:E05TSI                        WED 07/30/97 06:19 Page:10
      334      334    1                                '31 -- COMPARE CONTROLLER DATA',
      335      335    1                                '32 -- COMPARE DATA',
      336      336    1                                '33 -- REALLOCATE',
      337      337    1                                '34 -- ALLOCATE RESTORE',
      338      338    1                                '41 -- POSITION CONTROL',
      339      339    1                                '42 -- REPORT POSITION',
      340      340    1                                '44 -- REPORT DISCONTINUITY',
      341      341    1                                '50 -- READ VERIFY',
      342      342    1                                '51 -- READ FIRST AVAILABLE DATA',
      343      343    1                                '52 -- READ FROM BUFFER',
      344      344    1                                '53 -- READ DRIVE DATA TO BUFFER',
      345      345    1                                '54 -- READ PHYSICAL DATA AND ECC',
      346      346    1                                '55 -- READ PHYSICAL HEADER',
      347      347    1                                '58 -- READ PHYSICAL HEADER AND ECC',
      348      348    1                                '62 -- WRITE TO BUFFER',
      349      349    1                                '63 -- WRITE BUFFER TO DRIVE',
      350      350    1                                '64 -- WRITE PHYSICAL DATA AND ECC',
      351      351    1                                '65 -- WRITE PHYSICAL HEADER',
      352      352    1                                '66 -- LOAD CONTROLLER IML',
      353      353    1                                '68 -- WRITE PHYSICAL HEADER AND ECC',
      354      354    1                                '80 -- PERFORM CONTROLLER DIAGNOSTIC',
      355      355    1                                '81 -- PERFORM DRIVE DIAGNOSTIC',
      356      356    1                                '82 -- READ DEFECT LIST',
      357      357    1                                '83 -- WRITE DEFECT LIST',
      358      358    1                                '84 -- READ PERFORMANCE LOG',
      359      359    1                                '85 -- WRITE PERFORMANCE LOG',
      360      360    1                                'UNKNOWN OP CODE');
      361      361    1   DCL 1 MDS_PARAM_ID_TBL(0:10) CONSTANT SYMDEF ALIGNED,
      362      362    1       2 COUNT UBIN BYTE UNAL INIT(1,1,21,31,25,28,21,21,19,23,14),
      363      363    1       2 TEXT CHAR(35) UNAL INIT(' ',
      364      364    1                                ' ',
      365      365    1                                ' -- DEFECT MANAGEMENT',
      366      366    1                                ' -- MESSAGE/MICROCODE EXCEPTION',
      367      367    1                                ' -- INTERVENTION REQUIRED',
      368      368    1                                ' -- ALTERNATE PORT EXCEPTION',
      369      369    1                                ' -- MACHINE EXCEPTION',
      370      370    1                                ' -- COMMAND EXCEPTION',
PL6.E3A0      #001=TH_XSTATUS_D File=TH_XSTATUS_D.:E05TSI                        WED 07/30/97 06:19 Page:11
      371      371    1                                ' -- COMMAND ABORTED',
      372      372    1                                ' -- CONDITIONAL SUCCESS',
      373      373    1                                ' -- INCOMPLETE');
      374      374    1   DCL 1 MDS_PARAM_X2(0:4) CONSTANT SYMDEF ALIGNED,
      375      375    1       2 SUB$ PTR INIT( ADDR(OCT1_X2),
      376      376    1                        ADDR(OCT2_X2),
      377      377    1                        ADDR(OCT3_X2),
      378      378    1                        ADDR(OCT4_X2),
      379      379    1                        ADDR(OCT5_X2));
      380      380    1   DCL 1 OCT1_X2(0:7) CONSTANT SYMDEF ALIGNED,
      381      381    1       2 COUNT UBIN BYTE UNAL INIT(31,41,32,30,36,30,36,42),
      382      382    1       2 TEXT CHAR(44) UNAL INIT('  BOTH DEFECT LISTS ARE INVALID',
      383      383    1                                 '  DEFECTS FOR CYLINDER EXCEED TABLE SPACE',
      384      384    1                                 '  CYLINDER REALLOCATION REQUIRED',
      385      385    1                                 '  SECTOR REALLOCATION REQUIRED',
      386      386    1                                 '  INHIBIT SECTOR REALLOCATION ACTIVE',
      387      387    1                                 '  VOTING ON DEFECT LIST FAILED',
      388      388    1                                 '  UNABLE TO DETERMINE TRACK LOCATION',
      389      389    1                                 '  CONDITIONAL SUCCESS CE CYL NOT FORMATTED');
      390      390    1   DCL 1 OCT2_X2(0:7) CONSTANT SYMDEF ALIGNED,
      391      391    1       2 COUNT UBIN BYTE UNAL INIT(38,28,31,38,25,23,43,43),
      392      392    1       2 TEXT CHAR(44) UNAL INIT('  DATA MISCOMPARE ON HEADER(S) WRITTEN',
      393      393    1                                 '  DEFECT TO REMOVE NOT FOUND',
      394      394    1                                 '  DEFECT TO REMOVE IS PERMANENT',
      395      395    1                                 '  TEMPORARY DEFECT LIST DOES NOT EXIST',
      396      396    1                                 '  CERTIFY DEFECT(S) FOUND',
      397      397    1                                 '  SECTOR NUMBER INVALID',
      398      398    1                                 '  FAILED READING REPLICATED DEFECT MGT DATA',
      399      399    1                                 '  FAILED WRITING REPLICATED DEFECT MGT DATA');
      400      400    1   DCL 1 OCT3_X2(0:7) CONSTANT SYMDEF ALIGNED,
      401      401    1       2 COUNT UBIN BYTE UNAL INIT(39,21,29,22,30,30,36,44),
      402      402    1       2 TEXT CHAR(44) UNAL INIT('  MASTER TERMINATED READ OF DEFECT LIST',
      403      403    1                                 '  READ HEADER FAILURE',
      404      404    1                                 '  READ DELAYED HEADER FAILURE',
      405      405    1                                 '  WRITE HEADER FAILURE',
      406      406    1                                 '  WRITE DELAYED HEADER FAILURE',
      407      407    1                                 '  DEFECT ENTRY OUT OF SEQUENCE',
PL6.E3A0      #001=TH_XSTATUS_D File=TH_XSTATUS_D.:E05TSI                        WED 07/30/97 06:19 Page:12
      408      408    1                                 '  CYLINDER OR SECTOR NOT REALLOCATED',
      409      409    1                                 '  HIGH PARTIAL TRK INCLUDES A SLIPPED SECTOR');
      410      410    1   DCL 1 OCT4_X2(0:7) CONSTANT SYMDEF ALIGNED,
      411      411    1       2 COUNT UBIN BYTE UNAL INIT(44,25,1,1,1,1,1,1),
      412      412    1       2 TEXT CHAR(44) UNAL INIT('  DRIVE CONFIGURATION RECORD IS UNIDENTIFIED',
      413      413    1                                 '  INVALID DATA FROM DRIVE',
      414      414    1                                 ' ',
      415      415    1                                 ' ',
      416      416    1                                 ' ',
      417      417    1                                 ' ',
      418      418    1                                 ' ',
      419      419    1                                 ' ');
      420      420    1   DCL 1 OCT5_X2(0:7) CONSTANT SYMDEF ALIGNED,
      421      421    1       2 COUNT UBIN BYTE UNAL INIT(34,30,30,1,1,1,1,1),
      422      422    1       2 TEXT CHAR(44) UNAL INIT('OCTET 05 TO 06 = 0000  - CYLINDER#',
      423      423    1                                 'OCTET 07 = 00  - HEADER NUMBER',
      424      424    1                                 'OCTET 08 = 00  - SECTOR NUMBER',
      425      425    1                                 ' ',
      426      426    1                                 ' ',
      427      427    1                                 ' ',
      428      428    1                                 ' ',
      429      429    1                                 ' ');
      430      430    1   DCL 1 MDS_PARAM_X4(0:5) CONSTANT SYMDEF ALIGNED,
      431      431    1       2 SUB$ PTR INIT( ADDR(OCT1_X4),
      432      432    1                        ADDR(NIL),
      433      433    1                        ADDR(NIL),
      434      434    1                        ADDR(NIL),
      435      435    1                        ADDR(OCT5_X4),
      436      436    1                        ADDR(OCT6_X4));
      437      437    1   DCL 1 OCT1_X4(0:7) CONSTANT SYMDEF ALIGNED,
      438      438    1       2 COUNT UBIN BYTE UNAL INIT(17, 11, 28, 22, 23, 34, 15, 1),
      439      439    1       2 TEXT CHAR(44) UNAL INIT('  NOT OPERATIONAL',
      440      440    1                                 '  NOT READY',
      441      441    1                                 '  NOT OPERATIONAL TRANSITION',
      442      442    1                                 '  NOT READY TRANSITION',
      443      443    1                                 '  PHYSICAL LINK FAILURE',
      444      444    1                                 '  ATTRIBUTE TABLE MAY BE CORRUPTED',
PL6.E3A0      #001=TH_XSTATUS_D File=TH_XSTATUS_D.:E05TSI                        WED 07/30/97 06:19 Page:13
      445      445    1                                 '  FACILITY BUSY',
      446      446    1                                 ' ');
      447      447    1   DCL 1 OCT5_X4(0:7) CONSTANT SYMDEF ALIGNED,
      448      448    1       2 COUNT UBIN BYTE UNAL INIT(21,17,19,32,22,1,25,27),
      449      449    1       2 TEXT CHAR(44) UNAL INIT('  DRIVE NOT FORMATTED',
      450      450    1                                 '  PRIMARY COMMAND',
      451      451    1                                 '  SECONDARY COMMAND',
      452      452    1                                 '  PHYSICAL BLOCK SIZES NOT EQUAL',
      453      453    1                                 '  PARTITIONS NOT EQUAL',
      454      454    1                                 ' ',
      455      455    1                                 '  EXPLICIT RESERVE BROKEN',
      456      456    1                                 '  IML CHECKSUM OR BUS ERROR');
      457      457    1   DCL 1 OCT6_X4(0:7) CONSTANT SYMDEF ALIGNED,
      458      458    1       2 COUNT UBIN BYTE UNAL INIT(26,39,1,1,1,1,1,1),
      459      459    1       2 TEXT CHAR(44) UNAL INIT('  DRIVE DIAGNOSTICS FAILED',
      460      460    1                                 '  UNABLE TO READ SYSTEM CYLINDER TABLES',
      461      461    1                                 ' ',
      462      462    1                                 ' ',
      463      463    1                                 ' ',
      464      464    1                                 ' ',
      465      465    1                                 ' ',
      466      466    1                                 ' ');
      467      467    1   DCL 1 MDS_PARAM_X5(0:4) CONSTANT SYMDEF ALIGNED,
      468      468    1       2 SUB$ PTR INIT( ADDR(OCT1_X5),
      469      469    1                        ADDR(OCT2_X5),
      470      470    1                        ADDR(NIL),
      471      471    1                        ADDR(NIL),
      472      472    1                        ADDR(OCT5_X5));
      473      473    1   DCL 1 OCT1_X5(0:7) CONSTANT SYMDEF ALIGNED,
      474      474    1       2 COUNT UBIN BYTE UNAL INIT(25,20,26,18,1,1,1,1),
      475      475    1       2 TEXT CHAR(44) UNAL INIT('  PRIORITY RESERVE ISSUED',
      476      476    1                                 '  ATTRIBUTES UPDATED',
      477      477    1                                 '  INITIALIZATION COMPLETED',
      478      478    1                                 '  FORMAT COMPLETED',
      479      479    1                                 ' ',
      480      480    1                                 ' ',
      481      481    1                                 ' ',
PL6.E3A0      #001=TH_XSTATUS_D File=TH_XSTATUS_D.:E05TSI                        WED 07/30/97 06:19 Page:14
      482      482    1                                 ' ');
      483      483    1   DCL 1 OCT2_X5(0:7) CONSTANT SYMDEF ALIGNED,
      484      484    1       2 COUNT UBIN BYTE UNAL INIT(35,34,1,1,1,1,1,1),
      485      485    1       2 TEXT CHAR(44) UNAL INIT('  CONTROLLER DIAGNOSTIC IN PROGRESS',
      486      486    1                                 '  CONTROLLER DIAGNOSTIC TERMINATED',
      487      487    1                                 ' ',
      488      488    1                                 ' ',
      489      489    1                                 ' ',
      490      490    1                                 ' ',
      491      491    1                                 ' ',
      492      492    1                                 ' ');
      493      493    1   DCL 1 OCT5_X5(0:7) CONSTANT SYMDEF ALIGNED,
      494      494    1       2 COUNT UBIN BYTE UNAL INIT(25,1,1,1,1,1,25,1),
      495      495    1       2 TEXT CHAR(44) UNAL INIT('  FORMAT TABLES CORRUPTED',
      496      496    1                                 ' ',
      497      497    1                                 ' ',
      498      498    1                                 ' ',
      499      499    1                                 ' ',
      500      500    1                                 ' ',
      501      501    1                                 '  EXPLICIT RESERVE BROKEN',
      502      502    1                                 ' ');
      503      503    1   DCL 1 MDS_PARAM_X8 CONSTANT SYMDEF ALIGNED,
      504      504    1       2 SUB$ PTR INIT( ADDR(OCT1_X8));
      505      505    1   DCL 1 OCT1_X8(0:7) CONSTANT SYMDEF ALIGNED,
      506      506    1       2 COUNT UBIN BYTE UNAL INIT(17,29,41,26,38,26,38,1),
      507      507    1       2 TEXT CHAR(44) UNAL INIT('  COMMAND ABORTED',
      508      508    1                                 '  COMMAND SEQUENCE TERMINATED',
      509      509    1                                 '  UNEXECUTED CMD FROM TERMINATED SEQUENCE',
      510      510    1                                 '  COMMAND CHAIN TERMINATED',
      511      511    1                                 '  UNEXECUTED CMD FROM TERMINATED CHAIN',
      512      512    1                                 '  COMMAND ORDER TERMINATED',
      513      513    1                                 '  UNEXECUTED CMD FROM TERMINATED ORDER',
      514      514    1                                 ' ');
      515      515    1   DCL 1 MDS_PARAM_XA(0:5) CONSTANT SYMDEF ALIGNED,
      516      516    1       2 SUB$ PTR INIT( ADDR(OCT1_XA),
      517      517    1                        ADDR(NIL),
      518      518    1                        ADDR(OCT3_XA),
PL6.E3A0      #001=TH_XSTATUS_D File=TH_XSTATUS_D.:E05TSI                        WED 07/30/97 06:19 Page:15
      519      519    1                        ADDR(NIL),
      520      520    1                        ADDR(OCT5_XA),
      521      521    1                        ADDR(NIL));
      522      522    1   DCL 1 OCT1_XA(0:7) CONSTANT SYMDEF ALIGNED,
      523      523    1       2 COUNT UBIN BYTE UNAL INIT(1,1,1,27,1,1,1,1),
      524      524    1       2 TEXT CHAR(44) UNAL INIT(' ', ' ', ' ',
      525      525    1                                 '  RESPONSE PACKET TRUNCATED',
      526      526    1                                 ' ', ' ', ' ', ' ');
      527      527    1   DCL 1 OCT3_XA(0:7) CONSTANT SYMDEF ALIGNED,
      528      528    1       2 COUNT UBIN BYTE UNAL INIT(1,1,1,1,1,24,17,1),
      529      529    1       2 TEXT CHAR(44) UNAL INIT(' ', ' ', ' ', ' ', ' ',
      530      530    1                                 '  DATA LENGTH DIFFERENCE',
      531      531    1                                 '  BLOCK NOT FOUND',
      532      532    1                                 ' ');
      533      533    1   DCL 1 OCT5_XA(0:7) CONSTANT SYMDEF ALIGNED,
      534      534    1       2 COUNT UBIN BYTE UNAL INIT(21,1,1,1,1,1,1,1),
      535      535    1       2 TEXT CHAR(44) UNAL INIT('  OTHER PORT DISABLED',
      536      536    1                                 ' ', ' ', ' ', ' ', ' ', ' ', ' ');
      537      537    1   DCL 1 MDS_PARAM_X7(0:6) CONSTANT SYMDEF ALIGNED,
      538      538    1       2 SUB$ PTR INIT( ADDR(OCT1_X7),
      539      539    1                        ADDR(OCT2_X7),
      540      540    1                        ADDR(NIL),
      541      541    1                        ADDR(NIL),
      542      542    1                        ADDR(OCT5_X7),
      543      543    1                        ADDR(NIL),
      544      544    1                        ADDR(OCT7_X7));
      545      545    1   DCL 1 OCT1_X7(0:7) CONSTANT SYMDEF ALIGNED,
      546      546    1       2 COUNT UBIN BYTE UNAL INIT(23,30,23,26,1,1,16,18),
      547      547    1       2 TEXT CHAR(44) UNAL INIT('  INVALID PACKET LENGTH',
      548      548    1                                 '  INVALID CMD REFERENCE NUMBER',
      549      549    1                                 '  INVALID SLAVE ADDRESS',
      550      550    1                                 '  INVALID FACILITY ADDRESS',
      551      551    1                                 ' ', ' ',
      552      552    1                                 '  INVALID OPCODE',
      553      553    1                                 '  INVALID MODIFIER');
      554      554    1   DCL 1 OCT2_X7(0:7) CONSTANT SYMDEF ALIGNED,
      555      555    1       2 COUNT UBIN BYTE UNAL INIT(1,1,16,1,22,22,34,21),
PL6.E3A0      #001=TH_XSTATUS_D File=TH_XSTATUS_D.:E05TSI                        WED 07/30/97 06:19 Page:16
      556      556    1       2 TEXT CHAR(44) UNAL INIT(' ', ' ',
      557      557    1                                 '  INVALID EXTENT',
      558      558    1                                 ' ',
      559      559    1                                 '  INVALID PARAMETER(S)',
      560      560    1                                 '  MISSING PARAMETER(S)',
      561      561    1                                 '  RESERVED VALUE NOT EQUAL TO ZERO',
      562      562    1                                 '  INVALID COMBINATION');
      563      563    1   DCL 1 OCT5_X7(0:7) CONSTANT SYMDEF ALIGNED,
      564      564    1       2 COUNT UBIN BYTE UNAL INIT(36,20,33,41,30,27,1,1),
      565      565    1       2 TEXT CHAR(44) UNAL INIT('  CYLINDER OR SECTOR NOT REALLOCATED',
      566      566    1                                 '  HIGH PARTIAL TRACK',
      567      567    1                                 '  ATTEMPTED TO ABORT ON ABORT CMD',
      568      568    1                                 '  MASTER SECTOR DEFECTS NOT ADDED TO LIST',
      569      569    1                                 '  DRIVE RESERVED TO OTHER PORT',
      570      570    1                                 '  DATA TRANSMISSION FAILURE',
      571      571    1                                 ' ', ' ');
      572      572    1   DCL 1 OCT7_X7(0:7) CONSTANT SYMDEF ALIGNED,
      573      573    1       2 COUNT UBIN BYTE UNAL INIT(42,30,32,1,1,1,1,1),
      574      574    1       2 TEXT CHAR(44) UNAL INIT('  OCTET 07 TO 08 = 0000  - CYLINDER NUMBER',
      575      575    1                                 '  OCTET 09 = 00  - HEAD NUMBER',
      576      576    1                                 '  OCTET 0A = 00  - SECTOR NUMBER',
      577      577    1                                 ' ',
      578      578    1                                 ' ',
      579      579    1                                 ' ',
      580      580    1                                 ' ',
      581      581    1                                 ' ');
      582      582    1   DCL 1 MDS_PARAM_X6(0:5) CONSTANT SYMDEF ALIGNED,
      583      583    1       2 SUB$ PTR INIT( ADDR(OCT1_X6),
      584      584    1                        ADDR(OCT2_X6),
      585      585    1                        ADDR(OCT3_X6),
      586      586    1                        ADDR(OCT4_X6),
      587      587    1                        ADDR(OCT5_X6),
      588      588    1                        ADDR(OCT6_X6));
      589      589    1   DCL 1 OCT1_X6(0:7) CONSTANT SYMDEF ALIGNED,
      590      590    1       2 COUNT UBIN BYTE UNAL INIT(26,24,18,19,26,1,21,1),
      591      591    1       2 TEXT CHAR(44) UNAL INIT('  ADDRESSEE NO LONGER BUSY',
      592      592    1                                 '  OPERATIONAL TRANSITION',
PL6.E3A0      #001=TH_XSTATUS_D File=TH_XSTATUS_D.:E05TSI                        WED 07/30/97 06:19 Page:17
      593      593    1                                 '  READY TRANSITION',
      594      594    1                                 '  OPERATION TIMEOUT',
      595      595    1                                 '  PHYSICAL INTERFACE CHECK',
      596      596    1                                 ' ',
      597      597    1                                 '  ENVIRONMENTAL ERROR',
      598      598    1                                 ' ');
      599      599    1   DCL 1 OCT2_X6(0:7) CONSTANT SYMDEF ALIGNED,
      600      600    1       2 COUNT UBIN BYTE UNAL INIT(26,26,13,26,1,17,1,1),
      601      601    1       2 TEXT CHAR(44) UNAL INIT('  DATA CHECK (ON RAW DATA)',
      602      602    1                                 '  UNCORRECTABLE DATA CHECK',
      603      603    1                                 '  FATAL ERROR',
      604      604    1                                 '  HARDWARE WRITE PROTECTED',
      605      605    1                                 ' ',
      606      606    1                                 '  COMMAND FAILURE',
      607      607    1                                 ' ', ' ');
      608      608    1   DCL 1 OCT3_X6(0:7) CONSTANT SYMDEF ALIGNED,
      609      609    1       2 COUNT UBIN BYTE UNAL INIT(1,1,1,14,30,1,1,26),
      610      610    1       2 TEXT CHAR(44) UNAL INIT(' ', ' ', ' ',
      611      611    1                                 '  DATA OVERRUN',
      612      612    1                                 '  REALLOCATION SPACE EXHAUSTED',
      613      613    1                                 ' ', ' ',
      614      614    1                                 '  UNEXPECTED MASTER STATUS');
      615      615    1   DCL 1 OCT4_X6(0:7) CONSTANT SYMDEF ALIGNED,
      616      616    1       2 COUNT UBIN BYTE UNAL INIT(21,23,1,15,1,1,1,1),
      617      617    1       2 TEXT CHAR(44) UNAL INIT('  STATISTICS LOG FULL',
      618      618    1                                 '  DEFECT DIRECTORY FULL',
      619      619    1                                 ' ',
      620      620    1                                 '  POSITION LOST',
      621      621    1                                 ' ', ' ', ' ', ' ');
      622      622    1   DCL 1 OCT5_X6(0:7) CONSTANT SYMDEF ALIGNED,
      623      623    1       2 COUNT UBIN BYTE UNAL INIT(24,30,1,31,15,25,1,24),
      624      624    1       2 TEXT CHAR(44) UNAL INIT('  IPI PORT ENABLE FAILED',
      625      625    1                                 '  ERROR RECOVERY LIMIT REACHED',
      626      626    1                                 ' ',
      627      627    1                                 '  FORMAT TABLE MAY BE CORRUPTED',
      628      628    1                                 '  VOLTAGE FAULT',
      629      629    1                                 '  LOGIC TEMPERATURE ALERT',
PL6.E3A0      #001=TH_XSTATUS_D File=TH_XSTATUS_D.:E05TSI                        WED 07/30/97 06:19 Page:18
      630      630    1                                 ' ',
      631      631    1                                 '  WRITE TRANSITION FAULT');
      632      632    1   DCL 1 OCT6_X6(0:7) CONSTANT SYMDEF ALIGNED,
      633      633    1       2 COUNT UBIN BYTE UNAL INIT(21,19,25,29,23,19,19,1),
      634      634    1       2 TEXT CHAR(44) UNAL INIT('  INVALID BUS CONTROL',
      635      635    1                                 '  INVALID PARAMETER',
      636      636    1                                 '  UNSUPPORTED BUS CONTROL',
      637      637    1                                 '  INVALID BUS CONTROL CONTEXT',
      638      638    1                                 '  DATA BUS CONTROL LATE',
      639      639    1                                 '  HEAD OFFSET FAULT',
      640      640    1                                 '  DATA STROBE FAULT',
      641      641    1                                 ' ');
      642      642    1   DCL 1 MDS_DRIVE_ENDING_STATUS(0:3) CONSTANT SYMDEF ALIGNED,
      643      643    1       2 COUNT UBIN BYTE UNAL INIT(35,20,22,28),
      644      644    1       2 TEXT CHAR(44) UNAL INIT(' -- SUCCESSFUL INFORMATION TRANSFER',
      645      645    1                                 ' -- BUS PARITY ERROR',
      646      646    1                                 ' -- ODD OCTET TRANSFER',
      647      647    1                                 ' -- TIME DEPENDENT OPERATION');
      648      648    1   DCL 1 MDS_PARAM_X9(0:2) CONSTANT SYMDEF ALIGNED,
      649      649    1       2 SUB$ PTR INIT( ADDR(OCT1_X9),
      650      650    1                        ADDR(OCT2_X9),
      651      651    1                        ADDR(OCT3_X9));
      652      652        %EQU  X9_MSG10 = '  LOGGING DATA APPENDED';
      653      653        %EQU  X9_MSG11 = '  ABORT RECEIVED - NO CMD ACTIVE';
      654      654        %EQU  X9_MSG12 = '  ABORT RECEIVED - STATUS PENDING';
      655      655        %EQU  X9_MSG13 = '  ABORT RECEIVED - NOT OPERATIONAL';
      656      656        %EQU  X9_MSG14 = '  ANTICIPATED ERROR';
      657      657        %EQU  X9_MSG15 = '  ANTICIPATED DATA ERROR';
      658      658        %EQU  X9_MSG16 = ' ';
      659      659        %EQU  X9_MSG17 = ' ';
      660      660        %EQU  X9_MSG20 = '  DEFECT DIRECTORY THRESHOLD EXCEDED';
      661      661        %EQU  X9_MSG21 = '  ERROR RETRY PERFORMED';
      662      662        %EQU  X9_MSG22 = '  DATA RETRY PERFORMED';
      663      663        %EQU  X9_MSG23 = '  MOTION RETRY PERFORMED';
      664      664        %EQU  X9_MSG24 = '  DATA CORRECTION PERFORMED';
      665      665        %EQU  X9_MSG25 = '  SOFT ERROR';
      666      666        %EQU  X9_MSG26 = '  RELEASE OF UNRESERVED ADDRESSEE';
PL6.E3A0      #001=TH_XSTATUS_D File=TH_XSTATUS_D.:E05TSI                        WED 07/30/97 06:19 Page:19
      667      667        %EQU  X9_MSG27 = '  REQUEST OF DIAGNOSTIC CONTROL CMD';
      668      668        %EQU  X9_MSG30 = '  STATISTIC LOG REQUEST';
      669      669        %EQU  X9_MSG31 = ' ';
      670      670        %EQU  X9_MSG32 = ' ';
      671      671        %EQU  X9_MSG33 = ' ';
      672      672        %EQU  X9_MSG34 = ' ';
      673      673        %EQU  X9_MSG35 = ' ';
      674      674        %EQU  X9_MSG36 = '  ASYNC EVENT OCCURRENCE';
      675      675        %EQU  X9_MSG37 = '  MASTER TERMINATED';
      676      676    1   DCL 1 OCT1_X9(0:7) CONSTANT SYMDEF ALIGNED,
      677      677    1       2 COUNT UBIN BYTE UNAL INIT( %LENGTHC(X9_MSG10), %LENGTHC(X9_MSG11),
      678      678    1                                    %LENGTHC(X9_MSG12), %LENGTHC(X9_MSG13),
      679      679    1                                    %LENGTHC(X9_MSG14), %LENGTHC(X9_MSG15),
      680      680    1                                    %LENGTHC(X9_MSG16), %LENGTHC(X9_MSG17)),
      681      681    1       2 TEXT CHAR(44) UNAL INIT( %X9_MSG10, %X9_MSG11,
      682      682    1                                  %X9_MSG12, %X9_MSG13,
      683      683    1                                  %X9_MSG14, %X9_MSG15,
      684      684    1                                  %X9_MSG16, %X9_MSG17);
      685      685    1   DCL 1 OCT2_X9(0:7) CONSTANT SYMDEF ALIGNED,
      686      686    1       2 COUNT UBIN BYTE UNAL INIT( %LENGTHC(X9_MSG20), %LENGTHC(X9_MSG21),
      687      687    1                                    %LENGTHC(X9_MSG22), %LENGTHC(X9_MSG23),
      688      688    1                                    %LENGTHC(X9_MSG24), %LENGTHC(X9_MSG25),
      689      689    1                                    %LENGTHC(X9_MSG26), %LENGTHC(X9_MSG27)),
      690      690    1       2 TEXT CHAR(44) UNAL INIT( %X9_MSG20, %X9_MSG21,
      691      691    1                                  %X9_MSG22, %X9_MSG23,
      692      692    1                                  %X9_MSG24, %X9_MSG25,
      693      693    1                                  %X9_MSG26, %X9_MSG27);
      694      694    1   DCL 1 OCT3_X9(0:7) CONSTANT SYMDEF ALIGNED,
      695      695    1       2 COUNT UBIN BYTE UNAL INIT( %LENGTHC(X9_MSG30), %LENGTHC(X9_MSG31),
      696      696    1                                    %LENGTHC(X9_MSG32), %LENGTHC(X9_MSG33),
      697      697    1                                    %LENGTHC(X9_MSG34), %LENGTHC(X9_MSG35),
      698      698    1                                    %LENGTHC(X9_MSG36), %LENGTHC(X9_MSG37)),
      699      699    1       2 TEXT CHAR(44) UNAL INIT( %X9_MSG30, %X9_MSG31,
      700      700    1                                  %X9_MSG32, %X9_MSG33,
      701      701    1                                  %X9_MSG34, %X9_MSG35,
      702      702    1                                  %X9_MSG36, %X9_MSG37);
      703      703        %EQU  FRU_MSG0 = 'NO FRU INFORMATION';
PL6.E3A0      #001=TH_XSTATUS_D File=TH_XSTATUS_D.:E05TSI                        WED 07/30/97 06:19 Page:20
      704      704        %EQU  FRU_MSG1 = 'POWER SUPPLY';
      705      705        %EQU  FRU_MSG2 = 'CONTROL BOARD';
      706      706        %EQU  FRU_MSG3 = 'POWER AMPLIFIER';
      707      707        %EQU  FRU_MSG4 = 'MODULE';
      708      708        %EQU  FRU_MSG5 = 'READ/WRITE BOARD';
      709      709        %EQU  FRU_MSG6 = 'MODULE';
      710      710        %EQU  FRU_MSG7 = 'COOLING FAN';
      711      711        %EQU  FRU_MSG8 = 'I/O BOARD';
      712      712        %EQU  FRU_MSG9 = 'OPERATOR PANEL';
      713      713        %EQU  FRU_MSGA = 'MOTHER BOARD';
      714      714        %EQU  FRU_MSGB = 'MODULE';
      715      715        %EQU  FRU_MSGC = 'MODULE';
      716      716        %EQU  FRU_MSGD = 'MAINTENANCE PANEL';
      717      717        %EQU  FRU_MSGE = 'NOT DEFINED';
      718      718        %EQU  FRU_MSGF = 'AIR FILTER';
      719      719        %EQU  FRU_MSG11 = 'REPLACE CONTROL BOARD';
      720      720        %EQU  FRU_MSG12 = 'REPLACE MODULE';
      721      721        %EQU  FRU_MSG13 = 'REPLACE POWER SUPPLY';
      722      722        %EQU  FRU_MSG14 = 'REPLACE I/O BOARD';
      723      723        %EQU  FRU_MSG15 = 'REPLACE CONTROL BOARD';
      724      724        %EQU  FRU_MSG16 = 'REPLACE MODULE';
      725      725        %EQU  FRU_MSG17 = 'REPLACE COOLING FAN';
      726      726        %EQU  FRU_MSG18 = 'REPLACE STATUS/CTL OR OPERATOR PANEL';
      727      727    1   DCL 1 MDSI_FRUS(0:15) CONSTANT SYMDEF ALIGNED,
      728      728    1       2 CODE UBIN BYTE UNAL INIT( %HEX_80, %HEX_81, %HEX_82, %HEX_83,
      729      729    1                                   %HEX_84, %HEX_85, %HEX_86, %HEX_87,
      730      730    1                                   %HEX_88, %HEX_89, %HEX_8A, %HEX_8B,
      731      731    1                                   %HEX_8C, %HEX_8D, %HEX_8E, %HEX_8F),
      732      732    1       2 COUNT UBIN BYTE UNAL INIT( %LENGTHC(FRU_MSG0), %LENGTHC(FRU_MSG1),
      733      733    1                                    %LENGTHC(FRU_MSG2), %LENGTHC(FRU_MSG3),
      734      734    1                                    %LENGTHC(FRU_MSG4), %LENGTHC(FRU_MSG5),
      735      735    1                                    %LENGTHC(FRU_MSG6), %LENGTHC(FRU_MSG7),
      736      736    1                                    %LENGTHC(FRU_MSG8), %LENGTHC(FRU_MSG9),
      737      737    1                                    %LENGTHC(FRU_MSGA), %LENGTHC(FRU_MSGB),
      738      738    1                                    %LENGTHC(FRU_MSGC), %LENGTHC(FRU_MSGD),
      739      739    1                                    %LENGTHC(FRU_MSGE), %LENGTHC(FRU_MSGF)),
      740      740    1      2 TEXT CHAR(44) UNAL INIT ( %FRU_MSG0, %FRU_MSG1, %FRU_MSG2, %FRU_MSG3,
PL6.E3A0      #001=TH_XSTATUS_D File=TH_XSTATUS_D.:E05TSI                        WED 07/30/97 06:19 Page:21
      741      741    1                                  %FRU_MSG4, %FRU_MSG5, %FRU_MSG6, %FRU_MSG7,
      742      742    1                                  %FRU_MSG8, %FRU_MSG9, %FRU_MSGA, %FRU_MSGB,
      743      743    1                                  %FRU_MSGC, %FRU_MSGD, %FRU_MSGE, %FRU_MSGF);
      744      744    1   DCL 1 MDSII_FRUS(0:8) CONSTANT SYMDEF ALIGNED,
      745      745    1       2 CODE UBIN BYTE UNAL INIT( %HEX_80, %HEX_81, %HEX_82, %HEX_83, %HEX_84,
      746      746    1                                   %HEX_85, %HEX_86, %HEX_87, %HEX_88),
      747      747    1       2 COUNT UBIN BYTE UNAL INIT( %LENGTHC(FRU_MSG0), %LENGTHC(FRU_MSG11),
      748      748    1                                    %LENGTHC(FRU_MSG12), %LENGTHC(FRU_MSG13),
      749      749    1                                    %LENGTHC(FRU_MSG14), %LENGTHC(FRU_MSG15),
      750      750    1                                    %LENGTHC(FRU_MSG16), %LENGTHC(FRU_MSG17),
      751      751    1                                    %LENGTHC(FRU_MSG18)),
      752      752    1      2 TEXT CHAR(44) UNAL INIT( %FRU_MSG0, %FRU_MSG11, %FRU_MSG12, %FRU_MSG13,
      753      753    1                                 %FRU_MSG14, %FRU_MSG15, %FRU_MSG16, %FRU_MSG17,
      754      754    1                                 %FRU_MSG18);
      755      755        %EQU FLT_MSG0 = 'GOOD STATUS';
      756      756        %EQU FLT_MSG1 = 'READ/WRITE FAULT';
      757      757        %EQU FLT_MSG2 = 'VOLTAGE FAULT';
      758      758        %EQU FLT_MSG3 = 'WRITE FAULT';
      759      759        %EQU FLT_MSG4 = 'FIRST SEEK FAULT';
      760      760        %EQU FLT_MSG5 = 'READ + WRITE/OFF-CYL FAULT';
      761      761        %EQU FLT_MSG6 = 'HEAD SELECT FAULT';
      762      762        %EQU FLT_MSG7 = 'WRITE PROTECTED';
      763      763    1   DCL 1 MDSI_FCODE(0:6) CONSTANT SYMDEF ALIGNED,
      764      764    1       2 CODE UBIN BYTE UNAL INIT( %HEX_80, %HEX_82, %HEX_84, %HEX_88,
      765      765    1                                   %HEX_90, %HEX_A0, %HEX_C0),
      766      766    1       2 COUNT UBIN BYTE UNAL INIT( %LENGTHC(FLT_MSG0), %LENGTHC(FLT_MSG2),
      767      767    1                                    %LENGTHC(FLT_MSG3), %LENGTHC(FLT_MSG1),
      768      768    1                                    %LENGTHC(FLT_MSG5), %LENGTHC(FLT_MSG6),
      769      769    1                                    %LENGTHC(FLT_MSG4)),
      770      770    1         2 TEXT CHAR(44) UNAL INIT( %FLT_MSG0, %FLT_MSG2, %FLT_MSG3, %FLT_MSG1,
      771      771    1                                    %FLT_MSG5, %FLT_MSG6, %FLT_MSG4);
      772      772    1   DCL 1 MDSII_FCODE(0:7) CONSTANT SYMDEF ALIGNED,
      773      773    1       2 CODE UBIN BYTE UNAL INIT( %HEX_80, %HEX_81, %HEX_82, %HEX_84, %HEX_88,
      774      774    1                                   %HEX_90, %HEX_A0, %HEX_C0),
      775      775    1       2 COUNT UBIN BYTE UNAL INIT( %LENGTHC(FLT_MSG0), %LENGTHC(FLT_MSG1),
      776      776    1                                    %LENGTHC(FLT_MSG5), %LENGTHC(FLT_MSG4),
      777      777    1                                    %LENGTHC(FLT_MSG3), %LENGTHC(FLT_MSG7),
PL6.E3A0      #001=TH_XSTATUS_D File=TH_XSTATUS_D.:E05TSI                        WED 07/30/97 06:19 Page:22
      778      778    1                                    %LENGTHC(FLT_MSG6), %LENGTHC(FLT_MSG2)),
      779      779    1       2 TEXT CHAR(44) UNAL INIT( %FLT_MSG0, %FLT_MSG1, %FLT_MSG5, %FLT_MSG4,
      780      780    1                                  %FLT_MSG3, %FLT_MSG7, %FLT_MSG6, %FLT_MSG2);
      781      781        %EQU  STAT_MSG0 = 'READY AND ON-CYLINDER';
      782      782        %EQU  STAT_MSG2 = 'MOTOR STOPPING';
      783      783        %EQU  STAT_MSG3 = 'MOTOR STOPPED';
      784      784        %EQU  STAT_MSG4 = 'FIRST LOAD/CALIBRATE';
      785      785        %EQU  STAT_MSG5 = 'SEQUENCE DELAY';
      786      786        %EQU  STAT_MSG6 = 'WAITING FOR (HOLD + LOCAL)';
      787      787        %EQU  STAT_MSG7 = 'STARTING MOTOR';
      788      788        %EQU  STAT_MSG8 = 'MOTOR UP-TO-SPEED';
      789      789        %EQU  STAT_MSG9 = 'I/O SELF TEST PASSED';
      790      790        %EQU  STAT_MSGA = 'SWEEP SEGMENT IN PROGRESS';
      791      791        %EQU  STAT_MSGB = 'HEADS LEFT ON LAST CYL OF SWEEP';
      792      792        %EQU  STAT_MSG46 = 'SEEK TIMEOUT';
      793      793        %EQU  STAT_MSG4B = 'OFF-TRACK SEEK ERROR';
      794      794        %EQU  STAT_MSG4D = 'ILLEGAL CYL ADDRESS';
      795      795        %EQU  STAT_MSG4F = 'SEEK ERROR ON SETTLE-IN';
      796      796        %EQU  STAT_MSG54 = 'FIRST SEEK FLT ON RETRACT';
      797      797        %EQU  STAT_MSG55 = 'FIRST SEEK FLT ON LOAD';
      798      798        %EQU  STAT_MSG56 = 'FIRST SEEK FLT ON RTZ';
      799      799        %EQU  STAT_MSG57 = 'FIRST SEEK FLT ON CALIBRATE';
      800      800        %EQU  STAT_MSG58 = 'SPEED LOSS';
      801      801        %EQU  STAT_MSG59 = 'MOTOR CAN''T START';
      802      802        %EQU  STAT_MSG5A = 'EMERGENCY RETRACT';
      803      803        %EQU  STAT_MSG60 = 'MOTOR MPU FAILURE';
      804      804        %EQU  STAT_MSG61 = 'SERVO MPU FAILURE';
      805      805        %EQU  STAT_MSG62 = 'I/O STATUS TRANSFER FAILED';
      806      806        %EQU  STAT_MSG6E = 'I/O SELF DIAGNOSTIC TEST FAILED';
      807      807    1   DCL 1 MDSII_STATUS(0:25) CONSTANT SYMDEF ALIGNED,
      808      808    1       2 CODE UBIN BYTE UNAL INIT( %HEX_80, %HEX_82, %HEX_83, %HEX_84,
      809      809    1                                   %HEX_85, %HEX_86, %HEX_87, %HEX_88,
      810      810    1                                   %HEX_89, %HEX_8A, %HEX_8B, %HEX_C6,
      811      811    1                                   %HEX_CB, %HEX_CD, %HEX_CF, %HEX_D4,
      812      812    1                                   %HEX_D5, %HEX_D6, %HEX_D7, %HEX_D8,
      813      813    1                                   %HEX_D9, %HEX_DA, %HEX_E0, %HEX_E1,
      814      814    1                                   %HEX_E2, %HEX_EE ),
PL6.E3A0      #001=TH_XSTATUS_D File=TH_XSTATUS_D.:E05TSI                        WED 07/30/97 06:19 Page:23
      815      815    1      2 COUNT UBIN BYTE UNAL INIT( %LENGTHC(STAT_MSG0), %LENGTHC(STAT_MSG2),
      816      816    1                                   %LENGTHC(STAT_MSG3), %LENGTHC(STAT_MSG4),
      817      817    1                                   %LENGTHC(STAT_MSG5), %LENGTHC(STAT_MSG6),
      818      818    1                                   %LENGTHC(STAT_MSG7), %LENGTHC(STAT_MSG8),
      819      819    1                                   %LENGTHC(STAT_MSG9), %LENGTHC(STAT_MSGA),
      820      820    1                                   %LENGTHC(STAT_MSGB), %LENGTHC(STAT_MSG46),
      821      821    1                                   %LENGTHC(STAT_MSG4B), %LENGTHC(STAT_MSG4D),
      822      822    1                                   %LENGTHC(STAT_MSG4F), %LENGTHC(STAT_MSG54),
      823      823    1                                   %LENGTHC(STAT_MSG55), %LENGTHC(STAT_MSG56),
      824      824    1                                   %LENGTHC(STAT_MSG57), %LENGTHC(STAT_MSG58),
      825      825    1                                   %LENGTHC(STAT_MSG59), %LENGTHC(STAT_MSG5A),
      826      826    1                                   %LENGTHC(STAT_MSG60), %LENGTHC(STAT_MSG61),
      827      827    1                                   %LENGTHC(STAT_MSG62), %LENGTHC(STAT_MSG6E)),
      828      828    1       2 TEXT CHAR(44) UNAL INIT( %STAT_MSG0, %STAT_MSG2, %STAT_MSG3, %STAT_MSG4,
      829      829    1                                  %STAT_MSG5, %STAT_MSG6, %STAT_MSG7, %STAT_MSG8,
      830      830    1                                  %STAT_MSG9, %STAT_MSGA, %STAT_MSGB, %STAT_MSG46,
      831      831    1                                  %STAT_MSG4B, %STAT_MSG4D, %STAT_MSG4F, %STAT_MSG54,
      832      832    1                                  %STAT_MSG55, %STAT_MSG56, %STAT_MSG57, %STAT_MSG58,
      833      833    1                                  %STAT_MSG59, %STAT_MSG5A, %STAT_MSG60, %STAT_MSG61,
      834      834    1                                  %STAT_MSG62, %STAT_MSG6E);
      835      835        %EQU   CMD_01 = '  INITIALIZE';
      836      836        %EQU   CMD_02 = '  REQUEST INTERRUPTS';
      837      837        %EQU   CMD_03 = '  REQUEST SLAVE INTERRUPTS';
      838      838        %EQU   CMD_04 = '  REQUEST TRANSFER SETTINGS';
      839      839        %EQU   CMD_05 = '  MASTER RESET';
      840      840        %EQU   CMD_06 = '  SELECTIVE RESET';
      841      841        %EQU   CMD_07 = '  SELECT';
      842      842        %EQU   CMD_08 = '  DESELECT';
      843      843        %EQU   CMD_09 = '  STOP (CURRENT EXECUTING CMD)';
      844      844        %EQU   CMD_0A = '  READ SYNDROMES';
      845      845        %EQU   CMD_0B = '  POLLING LOOP';
      846      846        %EQU   CMD_0C = '  INCREMENT MAGIC SECTOR COUNTER';
      847      847        %EQU   CMD_10 = '  LOAD SLAVE FUNCTION';
      848      848        %EQU   CMD_11 = '  LOAD FORMAT SPEC';
      849      849        %EQU   CMD_12 = '  LOAD SLAVE SPECIFIC';
      850      850        %EQU   CMD_13 = '  LOAD CYLINDER';
      851      851        %EQU   CMD_14 = '  LOAD HEAD';
PL6.E3A0      #001=TH_XSTATUS_D File=TH_XSTATUS_D.:E05TSI                        WED 07/30/97 06:19 Page:24
      852      852        %EQU   CMD_15 = '  LOAD RPS';
      853      853        %EQU   CMD_16 = '  LOAD POSITION';
      854      854        %EQU   CMD_18 = '  READ CONFIGURATION';
      855      855        %EQU   CMD_19 = '  READ FORMAT SPEC';
      856      856        %EQU   CMD_1A = '  READ SLAVE SPECIFIC';
      857      857        %EQU   CMD_1B = '  READ STATUS';
      858      858        %EQU   CMD_1C = '  READ CURRENT SECTOR';
      859      859        %EQU   CMD_1D = '  READ PHYSICAL POSITION';
      860      860        %EQU   CMD_1E = '  READ EXTENDED STATUS';
      861      861        %EQU   CMD_20 = '  WRT HDRS';
      862      862        %EQU   CMD_21 = '  WRT HDR + ECC';
      863      863        %EQU   CMD_22 = '  WRT HDRS AND ZERO DATA';
      864      864        %EQU   CMD_23 = '  READ HDRS';
      865      865        %EQU   CMD_24 = '  READ HDR AND ECC';
      866      866        %EQU   CMD_25 = '  WRT DELAYED HDR';
      867      867        %EQU   CMD_26 = '  RD DELAYED HDR';
      868      868        %EQU   CMD_27 = '  WRT DEFLOG (2 FIELD)';
      869      869        %EQU   CMD_28 = '  RD DEFLOG (2 FIELD)';
      870      870        %EQU   CMD_29 = '  RECOVER DATA';
      871      871        %EQU   CMD_2A = '  WRT DELAYED HDR AND ECC';
      872      872        %EQU   CMD_2B = '  RD DELAYED HDR AND ECC';
      873      873        %EQU   CMD_2C = '  WRITE DEFECT LOG (1 FIELD)';
      874      874        %EQU   CMD_2D = '  READ DEFECT LOG (1 FIELD)';
      875      875        %EQU   CMD_30 = '  WRITE DATA';
      876      876        %EQU   CMD_31 = '  WRITE DATA AND ECC';
      877      877        %EQU   CMD_32 = '  READ DATA';
      878      878        %EQU   CMD_33 = '  READ DATA AND ECC';
      879      879        %EQU   CMD_34 = '  READ 1ST SECTOR';
      880      880        %EQU   CMD_35 = '  COMPARE DATA';
      881      881        %EQU   CMD_40 = '  LOAD FUNCTON AND POSITION';
      882      882        %EQU   CMD_41 = '  READ HEADER AND SYNDROME';
      883      883        %EQU   CMD_42 = '  READ DATA AND SYNDROME';
      884      884    1   DCL 1 MDS_CMD_IDENT(0:48) CONSTANT SYMDEF ALIGNED,
      885      885    1       2 CODE UBIN BYTE UNAL INIT( %HEX_81, %HEX_82, %HEX_83, %HEX_84,
      886      886    1                                   %HEX_85, %HEX_86, %HEX_87, %HEX_88,
      887      887    1                                   %HEX_89, %HEX_8A, %HEX_8B, %HEX_8C,
      888      888    1                                   %HEX_90, %HEX_91, %HEX_92, %HEX_93,
PL6.E3A0      #001=TH_XSTATUS_D File=TH_XSTATUS_D.:E05TSI                        WED 07/30/97 06:19 Page:25
      889      889    1                                   %HEX_94, %HEX_95, %HEX_96, %HEX_98,
      890      890    1                                   %HEX_99, %HEX_9A, %HEX_9B, %HEX_9C,
      891      891    1                                   %HEX_9D, %HEX_9E, %HEX_A0, %HEX_A1,
      892      892    1                                   %HEX_A2, %HEX_A3, %HEX_A4, %HEX_A5,
      893      893    1                                   %HEX_A6, %HEX_A7, %HEX_A8, %HEX_A9,
      894      894    1                                   %HEX_AA, %HEX_AB, %HEX_AC, %HEX_AD,
      895      895    1                                   %HEX_B0, %HEX_B1, %HEX_B2, %HEX_B3,
      896      896    1                                   %HEX_B4, %HEX_B5, %HEX_C0, %HEX_C1,
      897      897    1                                   %HEX_C2),
      898      898    1       2 COUNT UBIN BYTE UNAL INIT( %LENGTHC(CMD_01), %LENGTHC(CMD_02),
      899      899    1                                    %LENGTHC(CMD_03), %LENGTHC(CMD_04),
      900      900    1                                    %LENGTHC(CMD_05), %LENGTHC(CMD_06),
      901      901    1                                    %LENGTHC(CMD_07), %LENGTHC(CMD_08),
      902      902    1                                    %LENGTHC(CMD_09), %LENGTHC(CMD_0A),
      903      903    1                                    %LENGTHC(CMD_0B), %LENGTHC(CMD_0C),
      904      904    1                                    %LENGTHC(CMD_10), %LENGTHC(CMD_11),
      905      905    1                                    %LENGTHC(CMD_12), %LENGTHC(CMD_13),
      906      906    1                                    %LENGTHC(CMD_14), %LENGTHC(CMD_15),
      907      907    1                                    %LENGTHC(CMD_16), %LENGTHC(CMD_18),
      908      908    1                                    %LENGTHC(CMD_19), %LENGTHC(CMD_1A),
      909      909    1                                    %LENGTHC(CMD_1B), %LENGTHC(CMD_1C),
      910      910    1                                    %LENGTHC(CMD_1D), %LENGTHC(CMD_1E),
      911      911    1                                    %LENGTHC(CMD_20), %LENGTHC(CMD_21),
      912      912    1                                    %LENGTHC(CMD_22), %LENGTHC(CMD_23),
      913      913    1                                    %LENGTHC(CMD_24), %LENGTHC(CMD_25),
      914      914    1                                    %LENGTHC(CMD_26), %LENGTHC(CMD_27),
      915      915    1                                    %LENGTHC(CMD_28), %LENGTHC(CMD_29),
      916      916    1                                    %LENGTHC(CMD_2A), %LENGTHC(CMD_2B),
      917      917    1                                    %LENGTHC(CMD_2C), %LENGTHC(CMD_2D),
      918      918    1                                    %LENGTHC(CMD_30), %LENGTHC(CMD_31),
      919      919    1                                    %LENGTHC(CMD_32), %LENGTHC(CMD_33),
      920      920    1                                    %LENGTHC(CMD_34), %LENGTHC(CMD_35),
      921      921    1                                    %LENGTHC(CMD_40), %LENGTHC(CMD_41),
      922      922    1                                    %LENGTHC(CMD_42)),
      923      923    1       2 TEXT CHAR(44) UNAL INIT( %CMD_01, %CMD_02, %CMD_03, %CMD_04,
      924      924    1                                  %CMD_05, %CMD_06, %CMD_07, %CMD_08,
      925      925    1                                  %CMD_09, %CMD_0A, %CMD_0B, %CMD_0C,
PL6.E3A0      #001=TH_XSTATUS_D File=TH_XSTATUS_D.:E05TSI                        WED 07/30/97 06:19 Page:26
      926      926    1                                  %CMD_10, %CMD_11, %CMD_12, %CMD_13,
      927      927    1                                  %CMD_14, %CMD_15, %CMD_16, %CMD_18,
      928      928    1                                  %CMD_19, %CMD_1A, %CMD_1B, %CMD_1C,
      929      929    1                                  %CMD_1D, %CMD_1E, %CMD_20, %CMD_21,
      930      930    1                                  %CMD_22, %CMD_23, %CMD_24, %CMD_25,
      931      931    1                                  %CMD_26, %CMD_27, %CMD_28, %CMD_29,
      932      932    1                                  %CMD_2A, %CMD_2B, %CMD_2C, %CMD_2D,
      933      933    1                                  %CMD_30, %CMD_31, %CMD_32, %CMD_33,
      934      934    1                                  %CMD_34, %CMD_35, %CMD_40, %CMD_41,
      935      935    1                                  %CMD_42 );
      936      936    1   DCL 1 MDS_ERROR_LOC(0:3) CONSTANT SYMDEF ALIGNED,
      937      937    1       2 TEXT CHAR(36) UNAL INIT('  HEADER',
      938      938    1                                 '  HEAD INCREMENT',
      939      939    1                                 '  SKIP FIELD',
      940      940    1                                 '  DATA FIELD, LOAD, READ OR MISC CMD');
      941      941    1   DCL 1 MDS_TIMEOUT_ERRS(0:7) CONSTANT SYMDEF ALIGNED,
      942      942    1       2 TEXT CHAR(24) UNAL INIT('  IDLE1',
      943      943    1                                 '  IDLE2',
      944      944    1                                 '  SLVACK (SELECT)',
      945      945    1                                 '  REQACK',
      946      946    1                                 '  BUS CONTROL - BUSACK',
      947      947    1                                 '  BUS CONTROL - SLVACK',
      948      948    1                                 '  DATA TRANSFER - SLVEND',
      949      949    1                                 '  DATA TRANSFER - SLVACK');
      950      950    1   DCL 1 MDS_RW_ERRS(0:7) CONSTANT SYMDEF ALIGNED,
      951      951    1       2 TEXT CHAR(26) UNAL INIT('  ECC ERROR',
      952      952    1                                 '  MISSING SYNC',
      953      953    1                                 '  DEFECTIVE CYLILNDER',
      954      954    1                                 '  STOPPED ON DISCONTINUITY',
      955      955    1                                 '  SECTOR NOT FOUND',
      956      956    1                                 '  FORMAT PROBLEM',
      957      957    1                                 '  END OF CYLINDER ERROR',
      958      958    1                                 '  COMPARE ERROR');
      959      959    1   DCL 1 MDS_MISC_ERRS(0:1) CONSTANT SYMDEF ALIGNED,
      960      960    1       2 TEXT CHAR(14) UNAL INIT('  BUSY ERROR',
      961      961    1                                 '  SELECT ERROR');
      962      962    1   DCL 1 MDS_INFO_ERRS(0:5) CONSTANT SYMDEF ALIGNED,
PL6.E3A0      #001=TH_XSTATUS_D File=TH_XSTATUS_D.:E05TSI                        WED 07/30/97 06:19 Page:27
      963      963    1       2 TEXT CHAR(34) UNAL INIT('  DRIVE ENDING STATUS != 10XX0000B',
      964      964    1                                 '  UNDERFLOW',
      965      965    1                                 '  OVERFLOW',
      966      966    1                                 '  DATA TRANSFER PARITY ERROR',
      967      967    1                                 '  ENDING STATUS PARITY ERROR',
      968      968    1                                 '  STATUS PENDING');
      969      969    1   DCL 1 MDS_PARAM_51(0:1) CONSTANT SYMDEF ALIGNED,
      970      970    1       2 SUB$ PTR INIT( ADDR(OCT1_51),
      971      971    1                        ADDR(OCT2_51));
      972      972        %EQU  X51_MSG10 = '  OPERATIONAL';
      973      973        %EQU  X51_MSG11 = '  NOT OPERATIONAL';
      974      974        %EQU  X51_MSG12 = '  READY';
      975      975        %EQU  X51_MSG13 = '  NOT READY';
      976      976        %EQU  X51_MSG14 = '  DRIVE SWITCHED TO ANOTHER PORT';
      977      977        %EQU  X51_MSG15 = '  PORT NEUTRAL';
      978      978        %EQU  X51_MSG16 = '  AVAILABLE';
      979      979        %EQU  X51_MSG17 = '  BUSY';
      980      980        %EQU  X51_MSG20 = '  STATUS PENDING';
      981      981        %EQU  X51_MSG21 = '  ACTIVE';
      982      982        %EQU  X51_MSG22 = '  INACTIVE';
      983      983        %EQU  X51_MSG23 = ' ';
      984      984        %EQU  X51_MSG24 = ' ';
      985      985        %EQU  X51_MSG25 = ' ';
      986      986        %EQU  X51_MSG26 = ' ';
      987      987        %EQU  X51_MSG27 = ' ';
      988      988    1   DCL 1 OCT1_51(0:7) CONSTANT SYMDEF ALIGNED,
      989      989    1       2 COUNT UBIN BYTE UNAL INIT( %LENGTHC(X51_MSG10), %LENGTHC(X51_MSG11),
      990      990    1                               %LENGTHC(X51_MSG12), %LENGTHC(X51_MSG13),
      991      991    1                               %LENGTHC(X51_MSG14), %LENGTHC(X51_MSG15),
      992      992    1                               %LENGTHC(X51_MSG16), %LENGTHC(X51_MSG17)),
      993      993    1       2 TEXT CHAR(44) UNAL INIT( %X51_MSG10, %X51_MSG11, %X51_MSG12,
      994      994    1                                  %X51_MSG13, %X51_MSG14, %X51_MSG15,
      995      995    1                                  %X51_MSG16, %X51_MSG17);
      996      996    1   DCL 1 OCT2_51(0:7) CONSTANT SYMDEF ALIGNED,
      997      997    1       2 COUNT UBIN BYTE UNAL INIT( %LENGTHC(X51_MSG20), %LENGTHC(X51_MSG21),
      998      998    1                                    %LENGTHC(X51_MSG22), %LENGTHC(X51_MSG23),
      999      999    1                                    %LENGTHC(X51_MSG24), %LENGTHC(X51_MSG25),
PL6.E3A0      #001=TH_XSTATUS_D File=TH_XSTATUS_D.:E05TSI                        WED 07/30/97 06:19 Page:28
     1000     1000    1                                    %LENGTHC(X51_MSG26), %LENGTHC(X51_MSG27)),
     1001     1001    1       2 TEXT CHAR(44) UNAL INIT( %X51_MSG20, %X51_MSG21, %X51_MSG22,
     1002     1002    1                                  %X51_MSG23, %X51_MSG24, %X51_MSG25,
     1003     1003    1                                  %X51_MSG26, %X51_MSG27);
     1004     1004        /**/
     1005     1005        /* FOR TAPE - MTU0400 */
     1006     1006        /**/
     1007     1007    1   DCL 1 MTU_FOUR(0:60) CONSTANT SYMDEF ALIGNED,
     1008     1008    1         2 CODE UBIN BYTE UNAL INIT(0,1,2,3,4,5,6,8,9,10,11,12,13,14,15,
     1009     1009    1                                    16,19,20,25,27,32,33,35,41,42,43,
     1010     1010    1                                    44,45,46,47,48,49,50,51,
     1011     1011    1                                    56,57,58,59,60,61,64,65,66,67,68,72,
     1012     1012    1                                    73,74,75,76,80,81,82,83,84,88,89,90,
     1013     1013    1                                    91,92,96),
     1014     1014    1         2 COUNT UBIN BYTE UNAL INIT(9,14,14,9,3,3,7,10,11,16,17,16,17,9,
     1015     1015    1                                     17,1,13,1,13,1,8,14,1,16,18,15,
     1016     1016    1                                     19,19,19,19,13,13,15,17,
     1017     1017    1                                     11,16,13,18,15,16,15,18,13,11,
     1018     1018    1                                     18,14,14,18,18,18,16,15,15,13,15,
     1019     1019    1                                     15,15,20,4,12,1),
     1020     1020    1         2 TEXT CHAR(35) UNAL INIT('DEV FAULT',
     1021     1021    1                                   'CMD CODE ERROR',
     1022     1022    1                                   'WRT ECHO ERROR',
     1023     1023    1                                   'MULTI BOT',
     1024     1024    1                                   'BOT',
     1025     1025    1                                   'EOT',
     1026     1026    1                                   'STANDBY',
     1027     1027    1                                   'MTH LOADED',
     1028     1028    1                                   'LASTCMD WRT',
     1029     1029    1                                   'LAST CMD FORWARD',
     1030     1030    1                                   'REWIND IN PROCESS',
     1031     1031    1                                   'WRT RING PRESENT',
     1032     1032    1                                   'SOFTWARE WRT PERM',
     1033     1033    1                                   'DIAG MODE',
     1034     1034    1                                   'CMD CODE PAR EVEN',
     1035     1035    1                                   ' ',
     1036     1036    1                                   'LOW THRESHOLD',
PL6.E3A0      #001=TH_XSTATUS_D File=TH_XSTATUS_D.:E05TSI                        WED 07/30/97 06:19 Page:29
     1037     1037    1                                   ' ',
     1038     1038    1                                   'MODEL 7-TRACK',
     1039     1039    1                                   ' ',
     1040     1040    1                                   'DEV ADDR',
     1041     1041    1                                   'INC DESKEW WIN',
     1042     1042    1                                   ' ',
     1043     1043    1                                   'WRT DATA TO AMPS',
     1044     1044    1                                   'WRT LINES TO LINES',
     1045     1045    1                                   'DEV REV STAT: BIT 3',
     1046     1046    1                                   'DEV REV STAT: BIT 4',
     1047     1047    1                                   'DEV REV STAT: BIT 5',
     1048     1048    1                                   'DEV REV STAT: BIT 6',
     1049     1049    1                                   'DEV REV STAT: BIT 7',
     1050     1050    1                                   'BYPASS DESKEW',
     1051     1051    1                                   'TAD PACK INST',
     1052     1052    1                                   'DRIVE MOTION ST',
     1053     1053    1                                   'REVERSE MOTION ST',
     1054     1054    1                                   'WRT AMP PAR',
     1055     1055    1                                   'NATIVE INTER PAR',
     1056     1056    1                                   'WRT PERMIT ST',
     1057     1057    1                                   'ERASE CURR FAILURE',
     1058     1058    1                                   'WRT BUS BAD PAR',
     1059     1059    1                                   'DEV EVENT NOTICE',
     1060     1060    1                                   'UNLOAD TAPE CMD',
     1061     1061    1                                   'INHIBIT MOTION WRT',
     1062     1062    1                                   'WRT AMP CLEAR',
     1063     1063    1                                   'HEAD IN POS',
     1064     1064    1                                   'CAPSTAN SPD IN REW',
     1065     1065    1                                   'BOT DETECTED',
     1066     1066    1                                   'EOT DETECTED',
     1067     1067    1                                   'LOSS OF LOOP VAC',
     1068     1068    1                                   'LOSS OF MAIN VAC',
     1069     1069    1                                   'LOSS OF PRESSURE',
     1070     1070    1                                   'REEL SUPP FAIL',
     1071     1071    1                                   '+15 VOLT FAIL',
     1072     1072    1                                   '+40 VOLT FAIL',
     1073     1073    1                                   '5 VOLT FAIL',
PL6.E3A0      #001=TH_XSTATUS_D File=TH_XSTATUS_D.:E05TSI                        WED 07/30/97 06:19 Page:30
     1074     1074    1                                   'OVERTEMP FAIL',
     1075     1075    1                                   'FILE COL FAIL',
     1076     1076    1                                   'MACH COL FAIL',
     1077     1077    1                                   'CAPSTAN HI SPD: BOT',
     1078     1078    1                                   'LTOR',
     1079     1079    1                                   'LOAD TIMEOUT',
     1080     1080    1                                   ' ');
     1081     1081        /**/
     1082     1082        /* FOR TAPE - MTU0500 */
     1083     1083        /**/
     1084     1084    1   DCL 1 MTU_FIVE(0:166) CONSTANT SYMDEF ALIGNED,
     1085     1085    1         2 CODE UBIN BYTE UNAL INIT(0,1,2,3,4,5,6,7,8,9,10,11,12,13,14,
     1086     1086    1                                    15,16,19,20,25,26,27,33,35,40,41,
     1087     1087    1                                    42,43,47,48,49,50,51,52,53,54,55,56,
     1088     1088    1                                    57,58,59,60,61,62,63,64,65,66,67,68,
     1089     1089    1                                    69,70,71,72,73,74,75,76,77,78,79,80,
     1090     1090    1                                    81,84,85,86,87,88,89,90,91,92,93,94,
     1091     1091    1                                    95,96,97,98,99,100,101,102,103,104,
     1092     1092    1                                    105,106,107,108,109,110,111,112,113,
     1093     1093    1                                    114,115,116,117,118,119,120,121,122,
     1094     1094    1                                    123,124,125,126,127,128,131,132,135,
     1095     1095    1                                    136,137,138,139,140,141,142,143,144,
     1096     1096    1                                    145,146,147,148,149,150,151,152,153,
     1097     1097    1                                    154,155,156,157,158,159,160,161,162,
     1098     1098    1                                    163,164,165,166,167,168,169,170,171,
     1099     1099    1                                    172,173,174,175,176,177,178,179,180,
     1100     1100    1                                    181,182,183,184,185,186,187,188,189,
     1101     1101    1                                    190,191),
     1102     1102    1         2 COUNT UBIN BYTE UNAL INIT(9,14,14,14,11,11,7,11,13,17,17,13,
     1103     1103    1                                     16,13,9,12,1,18,1,13,14,1,15,1,
     1104     1104    1                                     16,15,15,19,8,16,17,19,17,18,
     1105     1105    1                                     19,18,18,18,18,15,17,17,17,17,17,
     1106     1106    1                                     13,14,14,17,18,17,15,17,17,16,19,
     1107     1107    1                                     15,15,15,15,15,13,14,19,19,19,19,
     1108     1108    1                                     15,4,16,11,16,15,15,15,11,18,14,17,
     1109     1109    1                                     14,14,15,12,15,14,15,16,19,20,15,17,
     1110     1110    1                                     17,18,18,19,19,19,15,14,18,19,19,
PL6.E3A0      #001=TH_XSTATUS_D File=TH_XSTATUS_D.:E05TSI                        WED 07/30/97 06:19 Page:31
     1111     1111    1                                     13,19,18,16,12,16,17,16,17,17,18,
     1112     1112    1                                     18,19,19,19,15,14,18,19,19,13,19,
     1113     1113    1                                     19,17,19,16,16,15,19,19,13,13,13,
     1114     1114    1                                     18,18,18,18,18,16,14,16,18,17,20,
     1115     1115    1                                     17,19,17,17,19,9,20,13,17,15,14,16,
     1116     1116    1                                     18,18,16,19,17,13,20,17,16),
     1117     1117    1         2 TEXT CHAR(35) UNAL INIT('DEV FAULT',
     1118     1118    1                                   'CMD CODE ERROR',
     1119     1119    1                                   'WRT ECHO ERROR',
     1120     1120    1                                   'MULTI BOT STAT',
     1121     1121    1                                   'BOT STORAGE',
     1122     1122    1                                   'EOT STORAGE',
     1123     1123    1                                   'STANDBY',
     1124     1124    1                                   'MARGIN COND',
     1125     1125    1                                   'LOAD SEQ COMP',
     1126     1126    1                                   'LAST CMD WRT STAT',
     1127     1127    1                                   'LAST CMD FWD STAT',
     1128     1128    1                                   'REWIND TAPE',
     1129     1129    1                                   'WRT RING PRESENT',
     1130     1130    1                                   'WRT PROJ STAT',
     1131     1131    1                                   'DIAG MODE',
     1132     1132    1                                   'CMD EVEN PAR',
     1133     1133    1                                   ' ',
     1134     1134    1                                   'LOW THRESHOLD STAT',
     1135     1135    1                                   ' ',
     1136     1136    1                                   'MODEL 7 TRACK',
     1137     1137    1                                   'EXCEPTION CHAR',
     1138     1138    1                                   ' ',
     1139     1139    1                                   'DESKEW WIN STAT',
     1140     1140    1                                   ' ',
     1141     1141    1                                   'CHANGE VOLT MODE',
     1142     1142    1                                   'REDUCE WRT CURR',
     1143     1143    1                                   'REDUCE ERS CURR',
     1144     1144    1                                   'RD DESKEW WRAP STAT',
     1145     1145    1                                   'MODEL 50',
     1146     1146    1                                   'LOAD AIR FAILURE',
     1147     1147    1                                   'FILE HUB ENG STAT',
PL6.E3A0      #001=TH_XSTATUS_D File=TH_XSTATUS_D.:E05TSI                        WED 07/30/97 06:19 Page:32
     1148     1148    1                                   'W FAIL TO SHUT STAT',
     1149     1149    1                                   'VAC START UP STAT',
     1150     1150    1                                   'FILE HUB OPEN STAT',
     1151     1151    1                                   'CAN FAIL TO OPEN ST',
     1152     1152    1                                   'SEMI AUTO T/W STAT',
     1153     1153    1                                   'AUTO T/W FAIL STAT',
     1154     1154    1                                   'MACH COL LOAD STAT',
     1155     1155    1                                   'FILE COL LOAD STAT',
     1156     1156    1                                   'DOOR INTLK STAT',
     1157     1157    1                                   'W INTLK OPEN STAT',
     1158     1158    1                                   'FILE HI TAPE STAT',
     1159     1159    1                                   'MACH HI TAPE STAT',
     1160     1160    1                                   'FILE L0 TAPE STAT',
     1161     1161    1                                   'MACH L0 TAPE STAT',
     1162     1162    1                                   'VAC LOSS STAT',
     1163     1163    1                                   'COL VAC MARGIN',
     1164     1164    1                                   'LTOR LAMP STAT',
     1165     1165    1                                   'BOT/EOT LAMP STAT',
     1166     1166    1                                   'CAN FAIL SHUT STAT',
     1167     1167    1                                   'FILE HUB REL STAT',
     1168     1168    1                                   'ERASE CURR FAIL',
     1169     1169    1                                   'WINDOW SAFETY BAR',
     1170     1170    1                                   'OVERTEMP LOGIC MD',
     1171     1171    1                                   'OVERTEMP CAPSTAN',
     1172     1172    1                                   'DC BREAKER SWITCHED',
     1173     1173    1                                   '0V/UV FAIL +05V',
     1174     1174    1                                   '0V/UV FAIL -24V',
     1175     1175    1                                   '0V/UV FAIL +12V',
     1176     1176    1                                   '0V/UV FAIL -12V',
     1177     1177    1                                   '0V/UV FAIL +24V',
     1178     1178    1                                   'OVER SPD STAT',
     1179     1179    1                                   'UNDER SPD STAT',
     1180     1180    1                                   '0V/UV MARGINAL +05V',
     1181     1181    1                                   '0V/UV MARGINAL -24V',
     1182     1182    1                                   '0V/UV MARGINAL +12V',
     1183     1183    1                                   '0V/UV MARGINAL -12V',
     1184     1184    1                                   'START/STOP STAT',
PL6.E3A0      #001=TH_XSTATUS_D File=TH_XSTATUS_D.:E05TSI                        WED 07/30/97 06:19 Page:33
     1185     1185    1                                   'STOP',
     1186     1186    1                                   'PREVIOUS DIR FWD',
     1187     1187    1                                   'DIR REVERSE',
     1188     1188    1                                   'BIDIR SEQ NEEDED',
     1189     1189    1                                   'WRT PERMIT STAT',
     1190     1190    1                                   'WRT AMPL ENABLE',
     1191     1191    1                                   'ENABLE WRT CURR',
     1192     1192    1                                   'UNLOAD TAPE',
     1193     1193    1                                   'REWIND SEARCH TIME',
     1194     1194    1                                   'HIGH SPD DRIVE',
     1195     1195    1                                   'DESKEW CTR ENABLE',
     1196     1196    1                                   'BOT MARKER DET',
     1197     1197    1                                   'EOT MARKER DET',
     1198     1198    1                                   'LTOR MARKER DET',
     1199     1199    1                                   'LTOR STORAGE',
     1200     1200    1                                   'CAPSTAN CMD RUN',
     1201     1201    1                                   'CAPSTAN CMD CW',
     1202     1202    1                                   'CAPSTAN CMD RWD',
     1203     1203    1                                   'CAPSTAN RUN STAT',
     1204     1204    1                                   'CAPSTAN DIR CW STAT',
     1205     1205    1                                   'CAPSTAN RWD CMD STAT',
     1206     1206    1                                   'CAPSTAN .95 SPD',
     1207     1207    1                                   'CAP STS REWINDING',
     1208     1208    1                                   'FILE CMD DRIVE CW',
     1209     1209    1                                   'FILE CMD DRIVE CCW',
     1210     1210    1                                   'FILE CW DRIVE STAT',
     1211     1211    1                                   'FILE CCW DRIVE STAT',
     1212     1212    1                                   'FILE HI SENSOR STAT',
     1213     1213    1                                   'FILE LO SENSOR STAT',
     1214     1214    1                                   'FILE BREAK STAT',
     1215     1215    1                                   'FILE BIAS STAT',
     1216     1216    1                                   'FILE REEL CONT RWD',
     1217     1217    1                                   'FILE CMD INH SENSOR',
     1218     1218    1                                   'FILE REEL CONT MALF',
     1219     1219    1                                   'FILE RWD STAT',
     1220     1220    1                                   'FILE INH SENSOR STS',
     1221     1221    1                                   'FILE CONT MALF STS',
PL6.E3A0      #001=TH_XSTATUS_D File=TH_XSTATUS_D.:E05TSI                        WED 07/30/97 06:19 Page:34
     1222     1222    1                                   'FILE HUB SW STAT',
     1223     1223    1                                   'MALF CLEARED',
     1224     1224    1                                   'TAPE IN FILE COL',
     1225     1225    1                                   'LOW TAPE DET FILE',
     1226     1226    1                                   'TAPE IN MACH COL',
     1227     1227    1                                   'LOW TAPE DET MACH',
     1228     1228    1                                   'MACH CMD DRIVE CW',
     1229     1229    1                                   'MACH CMD DRIVE CCW',
     1230     1230    1                                   'MACH CW DRIVE STAT',
     1231     1231    1                                   'MACH CCW DRIVE STAT',
     1232     1232    1                                   'MACH HI SENSOR STAT',
     1233     1233    1                                   'MACH LO SENSOR STAT',
     1234     1234    1                                   'MACH BREAK STAT',
     1235     1235    1                                   'MACH BIAS STAT',
     1236     1236    1                                   'MACH REEL CONT RWD',
     1237     1237    1                                   'MACH CMD INH SENSOR',
     1238     1238    1                                   'MACH REEL CONT MALF',
     1239     1239    1                                   'MACH RWD STAT',
     1240     1240    1                                   'MACH INH SENSOR STS',
     1241     1241    1                                   'MACH CONT MALF STAT',
     1242     1242    1                                   'TAPE ON MACH REEL',
     1243     1243    1                                   'ENAB USAGE TIME MET',
     1244     1244    1                                   'ENAB HD MOVEMENT',
     1245     1245    1                                   'HD POS RETRACTED',
     1246     1246    1                                   'TAPE TIP SENSED',
     1247     1247    1                                   'DRIVE CANISTER OPEN',
     1248     1248    1                                   'DRIVE CANISTER SHUT',
     1249     1249    1                                   'CANISTER OPEN',
     1250     1250    1                                   'CANISTER SHUT',
     1251     1251    1                                   'CANISTER LOAD',
     1252     1252    1                                   'COUNT BY 00.5 STAT',
     1253     1253    1                                   'COUNT BY 01.0 STAT',
     1254     1254    1                                   'COUNT BY 02.0 STAT',
     1255     1255    1                                   'COUNT BY 04.0 STAT',
     1256     1256    1                                   'COUNT BY 08.0 STAT',
     1257     1257    1                                   'CNT BY 16.0 STAT',
     1258     1258    1                                   'START LOAD SEQ',
PL6.E3A0      #001=TH_XSTATUS_D File=TH_XSTATUS_D.:E05TSI                        WED 07/30/97 06:19 Page:35
     1259     1259    1                                   'MANUAL LOAD STAT',
     1260     1260    1                                   'ENAB XPORT AIR/VAC',
     1261     1261    1                                   'ENAB MACH HUB/VAC',
     1262     1262    1                                   'EN HOLD VAC/SW PRESS',
     1263     1263    1                                   'ENAB CANISTER AIR',
     1264     1264    1                                   'EN RAMP VAC/CLS HUB',
     1265     1265    1                                   'EN FILE HUB PRESS',
     1266     1266    1                                   'ENAB LOAD AIR/VAC',
     1267     1267    1                                   'EN COL AIR/OPEN HUB',
     1268     1268    1                                   'VAC AVAIL',
     1269     1269    1                                   'COL VAC ABOVE MARGIN',
     1270     1270    1                                   'LOAD AIR STAT',
     1271     1271    1                                   'ENAB WINDOW DRIVE',
     1272     1272    1                                   'ENAB WINDOW DIR',
     1273     1273    1                                   'WINDOW UP STAT',
     1274     1274    1                                   'WINDOW DOWN STAT',
     1275     1275    1                                   'DOOR INTLK SW STAT',
     1276     1276    1                                   'INH MOTION/WRT CUR',
     1277     1277    1                                   'EN WRT TO RD AMP',
     1278     1278    1                                   'EN WRT DAT TO RD LN',
     1279     1279    1                                   'WRT WRAP TO RD LN',
     1280     1280    1                                   'BYPASS DESKEW',
     1281     1281    1                                   'LOAD SINGLE CLK MODE',
     1282     1282    1                                   'RUN CAP UNDER SPD',
     1283     1283    1                                   'RUN CAP OVER SPD');
     1284     1284        /**/
     1285     1285        /* FOR TAPE - MTU0610  */
     1286     1286        /**/
     1287     1287    1   DCL 1 MTU_SIX1(0:184) CONSTANT SYMDEF ALIGNED,
     1288     1288    1         2 CODE UBIN BYTE UNAL INIT(0,1,2,3,4,5,6,7,8,9,10,11,12,13,14,
     1289     1289    1                                    15,16,19,20,25,26,27,33,35,40,41,
     1290     1290    1                                    42,43,44,45,46,47,48,49,50,51,
     1291     1291    1                                    56,57,58,59,60,61,62,63,64,65,
     1292     1292    1                                    66,67,68,69,70,71,72,73,74,75,76,77,
     1293     1293    1                                    78,79,80,81,82,83,84,85,86,87,88,90,
     1294     1294    1                                    91,92,93,94,95,96,97,98,99,100,102,
     1295     1295    1                                    103,104,105,106,107,108,109,110,111,
PL6.E3A0      #001=TH_XSTATUS_D File=TH_XSTATUS_D.:E05TSI                        WED 07/30/97 06:19 Page:36
     1296     1296    1                                    112,113,114,115,116,117,118,119,120,
     1297     1297    1                                    121,122,123,124,125,126,127,128,129,
     1298     1298    1                                    130,131,132,133,134,135,136,137,138,
     1299     1299    1                                    140,141,142,143,144,145,146,147,148,
     1300     1300    1                                    149,150,151,152,153,154,155,156,157,
     1301     1301    1                                    158,159,160,161,162,163,164,165,166,
     1302     1302    1                                    167,168,169,170,171,172,173,174,175,
     1303     1303    1                                    176,177,178,179,180,181,182,183,184,
     1304     1304    1                                    185,186,187,188,189,190,191,192,193,
     1305     1305    1                                    194,195,196,197,198,199,200,201,202,
     1306     1306    1                                    203,204,205,206,207),
     1307     1307    1         2 COUNT UBIN BYTE UNAL INIT(14,14,12,9,11,11,7,11,13,12,12,8,
     1308     1308    1                                     13,14,9,12,1,13,1,13,11,1,15,1,
     1309     1309    1                                     19,19,19,20,20,20,20,12,16,15,9,20,
     1310     1310    1                                     15,9,13,17,17,9,12,9,
     1311     1311    1                                     15,9,17,11,15,9,17,11,14,15,14,12,
     1312     1312    1                                     19,19,12,10,16,14,16,15,12,16,14,
     1313     1313    1                                     14,16,18,15,12,13,14,14,14,14,14,
     1314     1314    1                                     14,15,14,11,3,3,10,5,10,14,11,6,9,
     1315     1315    1                                     7,16,5,9,7,15,10,14,14,14,14,14,14,
     1316     1316    1                                     14,14,18,18,18,18,18,18,18,18,15,
     1317     1317    1                                     15,15,17,17,17,17,14,14,14,14,14,14,14,14,
     1318     1318    1                                     16,17,25,19,19,19,8,8,6,13,8,16,7,
     1319     1319    1                                     7,16,1,11,1,16,18,8,12,8,8,17,16,
     1320     1320    1                                     15,14,14,16,18,11,4,4,18,14,11,9,
     1321     1321    1                                     10,16,8,8,8,8,8,8,8,8,15,1,11,10,
     1322     1322    1                                     16,15,15,10),
     1323     1323    1         2 TEXT CHAR(35) UNAL INIT('DEV FAULT STAT',
     1324     1324    1                                   'CMD CODE ERROR',
     1325     1325    1                                   'SIGNAL FAULT',
     1326     1326    1                                   'MULTI BOT',
     1327     1327    1                                   'BOT STORAGE',
     1328     1328    1                                   'EOT STORAGE',
     1329     1329    1                                   'STANDBY',
     1330     1330    1                                   'MARGIN COND',
     1331     1331    1                                   'LOAD SEQ COMP',
     1332     1332    1                                   'LAST CMD WRT',
PL6.E3A0      #001=TH_XSTATUS_D File=TH_XSTATUS_D.:E05TSI                        WED 07/30/97 06:19 Page:37
     1333     1333    1                                   'LAST CMD FWD',
     1334     1334    1                                   'RWD TAPE',
     1335     1335    1                                   'WRT RING PRES',
     1336     1336    1                                   'WRT PERMIT CMD',
     1337     1337    1                                   'DIAG MODE',
     1338     1338    1                                   'CMD EVEN PAR',
     1339     1339    1                                   ' ',
     1340     1340    1                                   'LOW THRESHOLD',
     1341     1341    1                                   ' ',
     1342     1342    1                                   '9 TRACK MODEL',
     1343     1343    1                                   'MUST BE A 1',
     1344     1344    1                                   ' ',
     1345     1345    1                                   'DESKEW WINDOW 1',
     1346     1346    1                                   ' ',
     1347     1347    1                         'THRESHD STAT: BIT 0',
     1348     1348    1                         'THRESHD STAT: BIT 1',
     1349     1349    1                         'THRESHD STAT: BIT 2',
     1350     1350    1                         'DEV LEV REV ST BIT 3',
     1351     1351    1                         'DEV LEV REV ST BIT 4',
     1352     1352    1                         'DEV LEV REV ST BIT 5',
     1353     1353    1                         'DEV LEV REV ST BIT 6',
     1354     1354    1                                   'CANISTER OPT',
     1355     1355    1                                   'INC SPD DETECTED',
     1356     1356    1                                   'LOW COOLING AIR',
     1357     1357    1                                   'OVER TEMP',
     1358     1358    1                                   'LOW AIR BEARING PRES',
     1359     1359    1                                   'ERASE CURR FAIL',
     1360     1360    1                                   'DOOR OPEN',
     1361     1361    1                                   'WRT CURR FAIL',
     1362     1362    1                                   'AIR PRESSURE FAIL',
     1363     1363    1                                   'FIBER OPTICS FAIL',
     1364     1364    1                                   'VOLT FAIL',
     1365     1365    1                                   'COL VAC FAIL',
     1366     1366    1                                   'LOAD FAIL',
     1367     1367    1                                   'DRIVE CART OPEN',
     1368     1368    1                                   'CART OPEN',
     1369     1369    1                                   'DRIVE CART CLOSED',
PL6.E3A0      #001=TH_XSTATUS_D File=TH_XSTATUS_D.:E05TSI                        WED 07/30/97 06:19 Page:38
     1370     1370    1                                   'CART CLOSED',
     1371     1371    1                                   'DRIVE WINDOW UP',
     1372     1372    1                                   'WINDOW UP',
     1373     1373    1                                   'DRIVE WINDOW DOWN',
     1374     1374    1                                   'WINDOW DOWN',
     1375     1375    1                                   'DIV VALVE ENAB',
     1376     1376    1                                   'HD CLEANER ENAB',
     1377     1377    1                                   'PNEUMATIC ENAB',
     1378     1378    1                                   'CART PRESENT',
     1379     1379    1                                   'TAPE PRESENT SENSOR',
     1380     1380    1                                   'TAPE TENSION SENSOR',
     1381     1381    1                                   'REELS LOADED',
     1382     1382    1                                   'COL LOADED',
     1383     1383    1                                   'MACH REEL THREAD',
     1384     1384    1                                   'MACH REEL WRAP',
     1385     1385    1                                   'MACH REEL UNLOAD',
     1386     1386    1                                   'MACH REEL BREAK',
     1387     1387    1                                   'MACH REEL CW',
     1388     1388    1                                   'MACH REEL DR CCW',
     1389     1389    1                                   'MACH REEL ENAB',
     1390     1390    1                                   'MACH REEL STAT',
     1391     1391    1                                   'FILE REEL THREAD',
     1392     1392    1                                   'FILE REEL UNLOADED',
     1393     1393    1                                   'FILE REEL BREAK',
     1394     1394    1                                   'FILE REEL CW',
     1395     1395    1                                   'FILE REEL CCW',
     1396     1396    1                                   'FILE REEL ENAB',
     1397     1397    1                                   'FILE REEL STAT',
     1398     1398    1                                   'MACH TAPE TACH',
     1399     1399    1                                   'FILE TAPE TACH',
     1400     1400    1                                   'CAPSTAN TACH A',
     1401     1401    1                                   'CAPSTAN TACH B',
     1402     1402    1                                   'NORM LOOP FAULT',
     1403     1403    1                                   'CART AIR DR ON',
     1404     1404    1                                   'BOT PRESENT',
     1405     1405    1                                   'RUN',
     1406     1406    1                                   'FWD',
PL6.E3A0      #001=TH_XSTATUS_D File=TH_XSTATUS_D.:E05TSI                        WED 07/30/97 06:19 Page:39
     1407     1407    1                                   'CAPSTAN GO',
     1408     1408    1                                   'HITCH',
     1409     1409    1                                   'HI SPD RWD',
     1410     1410    1                                   'HI SPD CONTROL',
     1411     1411    1                                   'POSITIONING',
     1412     1412    1                                   'PARKED',
     1413     1413    1                                   'HIGH CURR',
     1414     1414    1                                   'DEGAUSS',
     1415     1415    1                                   'DATA SECUR ERASE',
     1416     1416    1                                   'ERASE',
     1417     1417    1                                   'DATA WRAP',
     1418     1418    1                                   'AGC MAX',
     1419     1419    1                                   'LOW TAPE SENSOR',
     1420     1420    1                                   'EOT SENSOR',
     1421     1421    1                                   'IBG CTR BIT T8',
     1422     1422    1                                   'IBG CTR BIT T4',
     1423     1423    1                                   'IBG CTR BIT T2',
     1424     1424    1                                   'IBG CTR BIT T1',
     1425     1425    1                                   'IBG CTR BIT U8',
     1426     1426    1                                   'IBG CTR BIT U4',
     1427     1427    1                                   'IBG CTR BIT U2',
     1428     1428    1                                   'IBG CTR BIT U1',
     1429     1429    1                                   'PE/NRZI/GCR: BIT 0',
     1430     1430    1                                   'PE/NRZI/GCR: BIT 1',
     1431     1431    1                                   'PE/NRZI/GCR: BIT 2',
     1432     1432    1                                   'PE/NRZI/GCR: BIT 3',
     1433     1433    1                                   'PE/NRZI/GCR: BIT 4',
     1434     1434    1                                   'PE/NRZI/GCR: BIT 5',
     1435     1435    1                                   'PE/NRZI/GCR: BIT 6',
     1436     1436    1                                   'PE/NRZI/GCR: BIT 7',
     1437     1437    1                                   'BYTE 16 PAR BIT',
     1438     1438    1                                   'BYTE 18 PAR BIT',
     1439     1439    1                                   'BYTE 19 PAR BIT',
     1440     1440    1                                   'MTH PORT #: BIT 4',
     1441     1441    1                                   'MTH PORT #: BIT 5',
     1442     1442    1                                   'MTH PORT #: BIT 6',
     1443     1443    1                                   'MTH PORT #: BIT 7',
PL6.E3A0      #001=TH_XSTATUS_D File=TH_XSTATUS_D.:E05TSI                        WED 07/30/97 06:19 Page:40
     1444     1444    1                                   'PE/NRZI: BIT 0',
     1445     1445    1                                   'PE/NRZI: BIT 1',
     1446     1446    1                                   'PE/NRZI: BIT 2',
     1447     1447    1                                   'PE/NRZI: BIT 3',
     1448     1448    1                                   'PE/NRZI: BIT 4',
     1449     1449    1                                   'PE/NRZI: BIT 5',
     1450     1450    1                                   'PE/NRZI: BIT 6',
     1451     1451    1                                   'PE/NRZI: BIT 7',
     1452     1452    1                                   '1 TRACK IN ERROR',
     1453     1453    1                                   '2 TRACKS IN ERROR',
     1454     1454    1                                   '3 OR MORE TRACKS IN ERROR',
     1455     1455    1                                   '5 CHAR OF SK IN WRT',
     1456     1456    1                                   '10 CHAR OF SK IN WT',
     1457     1457    1                                   '25 CHAR OF SK IN WT',
     1458     1458    1                                   'EC ERROR',
     1459     1459    1                                   'AG ERROR',
     1460     1460    1                                   'DOS OK',
     1461     1461    1                                   'GCR UNDER SPD',
     1462     1462    1                                   'DOS DROP',
     1463     1463    1                                   'TRANS TIMING ERR',
     1464     1464    1                                   'OPER IN',
     1465     1465    1                                   'RAW DOS',
     1466     1466    1                                   'DATA OUT PAR ERR',
     1467     1467    1                                   '0',
     1468     1468    1                                   'A/C PAR ERR',
     1469     1469    1                                   '0',
     1470     1470    1                                   '1 OR MORE ENV UP',
     1471     1471    1                                   'SEL OR ANY DEV CEN',
     1472     1472    1                                   'REQ ACCT',
     1473     1473    1                                   'CB INTERRUPT',
     1474     1474    1                                   'DROP OUT',
     1475     1475    1                                   'HAD DATA',
     1476     1476    1                                   'MTH STAT REG FULL',
     1477     1477    1                                   'MTH STAT PAR ERR',
     1478     1478    1                                   'PE/NRZI PAR ERR',
     1479     1479    1                                   'E3 REG PAR BIT',
     1480     1480    1                                   'E2 REG PAR BIT',
PL6.E3A0      #001=TH_XSTATUS_D File=TH_XSTATUS_D.:E05TSI                        WED 07/30/97 06:19 Page:41
     1481     1481    1                                   'TRANS TIMING ERR',
     1482     1482    1                                   'PE MULTI-TRACK ERR',
     1483     1483    1                                   'PE OVERLOAD',
     1484     1484    1                                   'C2 1',
     1485     1485    1                                   'C2 0',
     1486     1486    1                                   'ILL CODE CONV CHAR',
     1487     1487    1                                   'MOD 4 LENG ERR',
     1488     1488    1                                   'LATERAL ERR',
     1489     1489    1                                   'PAR ERROR',
     1490     1490    1                                   'R4 PAR ERR',
     1491     1491    1                                   'DATA OUT PAR ERR',
     1492     1492    1                                   '0: BIT 0',
     1493     1493    1                                   '0: BIT 1',
     1494     1494    1                                   '0: BIT 2',
     1495     1495    1                                   '0: BIT 3',
     1496     1496    1                                   'BOARD CB',
     1497     1497    1                                   'BOARD RC',
     1498     1498    1                                   'BOARD FX',
     1499     1499    1                                   'BOARD WD',
     1500     1500    1                                   'PORT-1 SELECTED',
     1501     1501    1                                   '0',
     1502     1502    1                                   'A/C PAR ERR',
     1503     1503    1                                   'DO PAR ERR',
     1504     1504    1                                   'OPC ZERO CHANGED',
     1505     1505    1                                   'OPC ONE CHANGED',
     1506     1506    1                                   'WRT BUF PAR ERR',
     1507     1507    1                                     'R0 PAR ERR');
     1508     1508        /**/
     1509     1509        /* FOR TAPE - MTU0630 */
     1510     1510        /**/
     1511     1511    1   DCL 1 MTU_SIX2(0:176) CONSTANT SYMDEF ALIGNED,
     1512     1512    1         2 CODE UBIN BYTE UNAL INIT(0,1,2,3,4,5,6,7,8,9,10,11,12,13,14,
     1513     1513    1                                    15,16,19,20,24,27,33,35,40,41,42,
     1514     1514    1                                    43,44,45,46,47,48,49,50,51,56,57,58,
     1515     1515    1                                    59,60,61,62,63,64,65,66,67,68,69,70,
     1516     1516    1                                    71,72,73,75,77,78,79,80,81,82,84,85,
     1517     1517    1                                    86,88,90,91,93,94,95,96,97,98,99,
PL6.E3A0      #001=TH_XSTATUS_D File=TH_XSTATUS_D.:E05TSI                        WED 07/30/97 06:19 Page:42
     1518     1518    1                                    101,102,103,104,105,106,107,108,109,
     1519     1519    1                                    110,112,113,114,115,116,117,118,119,
     1520     1520    1                                    120,121,122,123,124,125,127,128,129,
     1521     1521    1                                    130,131,132,133,134,135,136,137,138,
     1522     1522    1                                    140,141,142,143,144,145,146,147,148,
     1523     1523    1                                    149,150,151,152,153,154,155,156,157,
     1524     1524    1                                    158,159,160,161,162,163,164,165,166,
     1525     1525    1                                    167,168,169,170,171,172,173,174,175,
     1526     1526    1                                    176,177,178,179,180,181,182,183,184,
     1527     1527    1                                    185,186,187,188,189,190,191,192,193,
     1528     1528    1                                    194,195,196,197,198,199,200,201,202,
     1529     1529    1                                    203,204,205,206,207),
     1530     1530    1         2 COUNT UBIN BYTE UNAL INIT(12,12,12,12,11,11,7,13,13,12,12,11,
     1531     1531    1                                     16,14,9,15,1,13,1,22,1,13,1,16,12,
     1532     1532    1                                     16,21,21,21,21,16,16,15,20,9,22,18,16,
     1533     1533    1                                     15,15,15,15,15,17,17,17,17,17,17,17,
     1534     1534    1                                     17,17,17,14,9,9,14,22,18,21,14,16,
     1535     1535    1                                     19,18,19,20,15,12,13,21,19,20,20,
     1536     1536    1                                     15,19,19,6,17,20,17,12,12,12,11,10,
     1537     1537    1                                     14,6,12,12,16,8,12,6,12,19,11,13,9,
     1538     1538    1                                     18,18,18,18,18,18,18,18,15,
     1539     1539    1                                     15,15,17,17,17,17,14,14,14,14,14,14,14,14,
     1540     1540    1                                     16,17,25,19,19,19,8,8,6,13,8,16,7,
     1541     1541    1                                     7,16,1,11,1,16,18,8,12,8,8,17,16,
     1542     1542    1                                     15,14,14,16,18,11,4,4,18,14,11,9,
     1543     1543    1                                     10,16,8,8,8,8,8,8,8,8,15,1,11,10,
     1544     1544    1                                     16,15,15,10),
     1545     1545    1         2 TEXT CHAR(35) UNAL INIT('DEVICE FAULT',
     1546     1546    1                                  'CMD CODE ERR',
     1547     1547    1                                  'SIGNAL FAULT',
     1548     1548    1                                  'MULTIPLE BOT',
     1549     1549    1                                  'BOT STORAGE',
     1550     1550    1                                  'EOT STORAGE',
     1551     1551    1                                  'STANDBY',
     1552     1552    1                                  'MARGINAL COND',
     1553     1553    1                                  'LOAD SEQ COMP',
     1554     1554    1                                  'LAST CMD WRT',
PL6.E3A0      #001=TH_XSTATUS_D File=TH_XSTATUS_D.:E05TSI                        WED 07/30/97 06:19 Page:43
     1555     1555    1                                  'LAST CMD FWD',
     1556     1556    1                                  'REWIND TAPE',
     1557     1557    1                                  'WRT RING PRESENT',
     1558     1558    1                                  'WRT PERMIT CMD',
     1559     1559    1                                  'DIAG MODE',
     1560     1560    1                                  'CMD EVEN PARITY',
     1561     1561    1                                  ' ',
     1562     1562    1                                  'LOW THRESHOLD',
     1563     1563    1                                  ' ',
     1564     1564    1                                  'DATA SECRTY ERASE EXEC',
     1565     1565    1                                  ' ',
     1566     1566    1                                  'DESKEW WINDOW',
     1567     1567    1                                  ' ',
     1568     1568    1                                  'MARG CAPSTAN SPD',
     1569     1569    1                                  'MARGINAL GAP',
     1570     1570    1                                  'MARG AIR BEARING',
     1571     1571    1                                  'DEV LEV REV ST: BIT 3',
     1572     1572    1                                  'DEV LEV REV ST: BIT 4',
     1573     1573    1                                  'DEV LEV REV ST: BIT 5',
     1574     1574    1                                  'DEV LEV REV ST: BIT 6',
     1575     1575    1                                  'CANNISTER OPTION',
     1576     1576    1                                  'WRT CURRENT FAIL',
     1577     1577    1                                  'ERASE CURR FAIL',
     1578     1578    1                                  'PRESSURE OR VAC FAIL',
     1579     1579    1                                  'DOOR OPEN',
     1580     1580    1                                  'REGULATED VOLT MISSING',
     1581     1581    1                                  'UNREG VOLT MISSING',
     1582     1582    1                                  'MARGINAL VOLTAGE',
     1583     1583    1                                  'SUB TEST: BIT 3',
     1584     1584    1                                  'SUB TEST: BIT 4',
     1585     1585    1                                  'SUB TEST: BIT 5',
     1586     1586    1                                  'SUB TEST: BIT 6',
     1587     1587    1                                  'SUB TEST: BIT 7',
     1588     1588    1                                  'FAULT CODE: BIT 0',
     1589     1589    1                                  'FAULT CODE: BIT 1',
     1590     1590    1                                  'FAULT CODE: BIT 2',
     1591     1591    1                                  'FAULT CODE: BIT 3',
PL6.E3A0      #001=TH_XSTATUS_D File=TH_XSTATUS_D.:E05TSI                        WED 07/30/97 06:19 Page:44
     1592     1592    1                                  'FAULT CODE: BIT 4',
     1593     1593    1                                  'FAULT CODE: BIT 5',
     1594     1594    1                                  'FAULT CODE: BIT 6',
     1595     1595    1                                  'FAULT CODE: BIT 7',
     1596     1596    1                                  'CARTRIDGE PRESENT',
     1597     1597    1                                  'CART ANALOG DRIVE',
     1598     1598    1                                  'CARTRIDGE OPEN',
     1599     1599    1                                  'WINDOW UP',
     1600     1600    1                                  'ARA CHECK',
     1601     1601    1                                  'PROCESSER FAIL',
     1602     1602    1                                  'THREAD VALVE SOL DRVER',
     1603     1603    1                                  'DIVERTER VALVE RUN',
     1604     1604    1                                  'DIVERTER VALVE THREAD',
     1605     1605    1                                  'PRESSURE AVAIL',
     1606     1606    1                                  'THREAD VAC AVAIL',
     1607     1607    1                                  'RUN SOLENOID DRIVER',
     1608     1608    1                                  'ENABLE DETAIL STAT',
     1609     1609    1                                  'FILE REEL ANALOG CW',
     1610     1610    1                                  'FILE REEL ANALOG CCW',
     1611     1611    1                                  'FILE COL LOADED',
     1612     1612    1                                  'ENABLE REELS',
     1613     1613    1                                  'COL VAC AVAIL',
     1614     1614    1                                  'RUN VALVE SOLENOID DR',
     1615     1615    1                                  'WINDOW LATCH SOL DR',
     1616     1616    1                                  'MACHINE REEL ANAL CW',
     1617     1617    1                                  'MACH REEL ANALOG CCW',
     1618     1618    1                                  'MACH COL LOADED',
     1619     1619    1                                  'MACHINE REEL LOADED',
     1620     1620    1                                  'TAPE TENSION THREAD',
     1621     1621    1                                  'REWIND',
     1622     1622    1                                  'HIGH SPEED REWIND',
     1623     1623    1                                  'HIGH SPD FOOT SOL DR',
     1624     1624    1                                  'HIGH SPD FOOT POS',
     1625     1625    1                                  'LOW SPD AREA',
     1626     1626    1                                  'BOT DETECTED',
     1627     1627    1                                  'EOT DETECTED',
     1628     1628    1                                  'DLI RUN CMD',
PL6.E3A0      #001=TH_XSTATUS_D File=TH_XSTATUS_D.:E05TSI                        WED 07/30/97 06:19 Page:45
     1629     1629    1                                  'CAPSTAN GO',
     1630     1630    1                                  'FORWARD MOTION',
     1631     1631    1                                  'PARKED',
     1632     1632    1                                  'TACH PHASE A',
     1633     1633    1                                  'TACH PHASE B',
     1634     1634    1                                  'EPO RELAY SOL DR',
     1635     1635    1                                  'Z80 BUSY',
     1636     1636    1                                  'NRZI CURRENT',
     1637     1637    1                                  'DEGAUS',
     1638     1638    1                                  'ENABLE ERASE',
     1639     1639    1                                  'DATA SEC ERASE MODE',
     1640     1640    1                                  'CURRENT WRT',
     1641     1641    1                                  'CURRENT ERASE',
     1642     1642    1                                  'DATA WRAP',
     1643     1643    1                                   'PE/NRZI/GCR: BIT 0',
     1644     1644    1                                   'PE/NRZI/GCR: BIT 1',
     1645     1645    1                                   'PE/NRZI/GCR: BIT 2',
     1646     1646    1                                   'PE/NRZI/GCR: BIT 3',
     1647     1647    1                                   'PE/NRZI/GCR: BIT 4',
     1648     1648    1                                   'PE/NRZI/GCR: BIT 5',
     1649     1649    1                                   'PE/NRZI/GCR: BIT 6',
     1650     1650    1                                   'PE/NRZI/GCR: BIT 7',
     1651     1651    1                                   'BYTE 16 PAR BIT',
     1652     1652    1                                   'BYTE 18 PAR BIT',
     1653     1653    1                                   'BYTE 19 PAR BIT',
     1654     1654    1                                   'MTH PORT #: BIT 4',
     1655     1655    1                                   'MTH PORT #: BIT 5',
     1656     1656    1                                   'MTH PORT #: BIT 6',
     1657     1657    1                                   'MTH PORT #: BIT 7',
     1658     1658    1                                   'PE/NRZI: BIT 0',
     1659     1659    1                                   'PE/NRZI: BIT 1',
     1660     1660    1                                   'PE/NRZI: BIT 2',
     1661     1661    1                                   'PE/NRZI: BIT 3',
     1662     1662    1                                   'PE/NRZI: BIT 4',
     1663     1663    1                                   'PE/NRZI: BIT 5',
     1664     1664    1                                   'PE/NRZI: BIT 6',
     1665     1665    1                                   'PE/NRZI: BIT 7',
PL6.E3A0      #001=TH_XSTATUS_D File=TH_XSTATUS_D.:E05TSI                        WED 07/30/97 06:19 Page:46
     1666     1666    1                                   '1 TRACK IN ERROR',
     1667     1667    1                                   '2 TRACKS IN ERROR',
     1668     1668    1                                   '3 OR MORE TRACKS IN ERROR',
     1669     1669    1                                   '5 CHAR OF SK IN WRT',
     1670     1670    1                                   '10 CHAR OF SK IN WT',
     1671     1671    1                                   '25 CHAR OF SK IN WT',
     1672     1672    1                                   'EC ERROR',
     1673     1673    1                                   'AG ERROR',
     1674     1674    1                                   'DOS OK',
     1675     1675    1                                   'GCR UNDER SPD',
     1676     1676    1                                   'DOS DROP',
     1677     1677    1                                   'TRANS TIMING ERR',
     1678     1678    1                                   'OPER IN',
     1679     1679    1                                   'RAW DOS',
     1680     1680    1                                   'DATA OUT PAR ERR',
     1681     1681    1                                   '0',
     1682     1682    1                                   'A/C PAR ERR',
     1683     1683    1                                   '0',
     1684     1684    1                                   '1 OR MORE ENV UP',
     1685     1685    1                                   'SEL OR ANY DEV CEN',
     1686     1686    1                                   'REQ ACCT',
     1687     1687    1                                   'CB INTERRUPT',
     1688     1688    1                                   'DROP OUT',
     1689     1689    1                                   'HAD DATA',
     1690     1690    1                                   'MTH STAT REG FULL',
     1691     1691    1                                   'MTH STAT PAR ERR',
     1692     1692    1                                   'PE/NRZI PAR ERR',
     1693     1693    1                                   'E3 REG PAR BIT',
     1694     1694    1                                   'E2 REG PAR BIT',
     1695     1695    1                                   'TRANS TIMING ERR',
     1696     1696    1                                   'PE MULTI-TRACK ERR',
     1697     1697    1                                   'PE OVERLOAD',
     1698     1698    1                                   'C2 1',
     1699     1699    1                                   'C2 0',
     1700     1700    1                                   'ILL CODE CONV CHAR',
     1701     1701    1                                   'MOD 4 LENG ERR',
     1702     1702    1                                   'LATERAL ERR',
PL6.E3A0      #001=TH_XSTATUS_D File=TH_XSTATUS_D.:E05TSI                        WED 07/30/97 06:19 Page:47
     1703     1703    1                                   'PAR ERROR',
     1704     1704    1                                   'R4 PAR ERR',
     1705     1705    1                                   'DATA OUT PAR ERR',
     1706     1706    1                                   '0: BIT 0',
     1707     1707    1                                   '0: BIT 1',
     1708     1708    1                                   '0: BIT 2',
     1709     1709    1                                   '0: BIT 3',
     1710     1710    1                                   'BOARD CB',
     1711     1711    1                                   'BOARD RC',
     1712     1712    1                                   'BOARD FX',
     1713     1713    1                                   'BOARD WD',
     1714     1714    1                                   'PORT-1 SELECTED',
     1715     1715    1                                   '0',
     1716     1716    1                                   'A/C PAR ERR',
     1717     1717    1                                   'DO PAR ERR',
     1718     1718    1                                   'OPC ZERO CHANGED',
     1719     1719    1                                   'OPC ONE CHANGED',
     1720     1720    1                                   'WRT BUF PAR ERR',
     1721     1721    1                                   'RO PAR ERR');
     1722     1722        /**/
     1723     1723        /* STC TAPE - 4600 series                                        */
     1724     1724        /**/
     1725     1725    1   DCL 1 MTU_EIGHTY2(0:81) CONSTANT SYMDEF ALIGNED,
     1726     1726    1         2 CODE UBIN BYTE UNAL INIT(0,1,2,3,4,5,6,8,9,10,12,13,14,15,16,17,
     1727     1727    1                                    18,19,20,21,22,23,24,25,26,27,28,29,30,31,32,33,
     1728     1728    1                                    34,35,37,38,41,42,43,45,46,49,50,53,56,57,
     1729     1729    1                                    58,59,60,61,63,64,72,73,74,75,76,79,80,83,
     1730     1730    1                                    85,87,91,136,137,152,153,154,155,156,157,158,
     1731     1731    1                                    159,160,161,162,163,164,165,166,167,176),
     1732     1732    1         2 COUNT UBIN BYTE UNAL INIT(14,21,13,15,10,7,15,5,11,11,3,12,12,11,10,10,
     1733     1733    1                                     10,10,10,10,10,10,7,7,10,7,7,1,15,11,12,9,
     1734     1734    1                                     13,9,3,8,14,9,14,14,15,11,5,1,10,17,
     1735     1735    1                                     20,9,9,11,10,12,15,15,20,7,8,12,21,19,
     1736     1736    1                                     18,14,9,18,12,9,9,9,9,9,9,9,
     1737     1737    1                                     9,9,9,9,9,9,9,9,9,1),
     1738     1738    1         2 TEXT CHAR(35) UNAL INIT('COMMAND REJECT',
     1739     1739    1                                   'INTERVENTION REQUIRED',
PL6.E3A0      #001=TH_XSTATUS_D File=TH_XSTATUS_D.:E05TSI                        WED 07/30/97 06:19 Page:48
     1740     1740    1                                   'BUS OUT CHECK',
     1741     1741    1                                   'EQUIPMENT CHECK',
     1742     1742    1                                   'DATA CHECK',
     1743     1743    1                                   'OVERRUN',
     1744     1744    1                                   'WORD COUNT ZERO',
     1745     1745    1                                   'NOISE',
     1746     1746    1                                   'TU STATUS A',
     1747     1747    1                                   'TU STATUS B',
     1748     1748    1                                   'BOT',
     1749     1749    1                                   'WRITE STATUS',
     1750     1750    1                                   'FILE PROTECT',
     1751     1751    1                                   'NOT CAPABLE',
     1752     1752    1                                   'TIE: BIT 0',
     1753     1753    1                                   'TIE: BIT 1',
     1754     1754    1                                   'TIE: BIT 2',
     1755     1755    1                                   'TIE: BIT 3',
     1756     1756    1                                   'TIE: BIT 4',
     1757     1757    1                                   'TIE: BIT 5',
     1758     1758    1                                   'TIE: BIT 6',
     1759     1759    1                                   'TIE: BIT 7',
     1760     1760    1                                   'R/W VRC',
     1761     1761    1                                   'MTE/LRC',
     1762     1762    1                                   'SKEW ERROR',
     1763     1763    1                                   'EDC/CRC',
     1764     1764    1                                   'ENV/ECC',
     1765     1765    1                                   ' ',
     1766     1766    1                                   'BACKWARD STATUS',
     1767     1767    1                                   'C/P COMPARE',
     1768     1768    1                                   'MP HDW CHECK',
     1769     1769    1                                   'REJECT TU',
     1770     1770    1                                   'TAPE INDICATE',
     1771     1771    1                                   'WRITE VRC',
     1772     1772    1                                   'LWR',
     1773     1773    1                                   'TU CHECK',
     1774     1774    1                                   '4600 SUBSYSTEM',
     1775     1775    1                                   'WTM CHECK',
     1776     1776    1                                   'ID BURST CHECK',
PL6.E3A0      #001=TH_XSTATUS_D File=TH_XSTATUS_D.:E05TSI                        WED 07/30/97 06:19 Page:49
     1777     1777    1                                   'PARTIAL RECORD',
     1778     1778    1                                   'POSTAMBLE ERROR',
     1779     1779    1                                   'WRITE CHECK',
     1780     1780    1                                   'DD TU',
     1781     1781    1                                   ' ',
     1782     1782    1                                   'COLUMN OUT',
     1783     1783    1                                   'FILE COLUMN CHECK',
     1784     1784    1                                   'MACHINE COLUMN CHECK',
     1785     1785    1                                   'RESET KEY',
     1786     1786    1                                   'DSE CHECK',
     1787     1787    1                                   'ERASE CHECK',
     1788     1788    1                                   'LOAD CHECK',
     1789     1789    1                                   'IBG DETECTED',
     1790     1790    1                                   '6250 CORRECTION',
     1791     1791    1                                   'VELOCITY CHANGE',
     1792     1792    1                                   'CHANNEL BUFFER CHECK',
     1793     1793    1                                   'CRC III',
     1794     1794    1                                   '6250 BPI',
     1795     1795    1                                   'TCU RESERVED',
     1796     1796    1                                   'COMMAND STATUS REJECT',
     1797     1797    1                                   'RECORD NOT DETECTED',
     1798     1798    1                                   'TACH START FAILURE',
     1799     1799    1                                   'VELOCITY CHECK',
     1800     1800    1                                   'CMD RETRY',
     1801     1801    1                                   'TWO CHANNEL SWITCH',
     1802     1802    1                                   'COMMUNICATOR',
     1803     1803    1                                   'TU 7 BUSY',
     1804     1804    1                                   'TU 6 BUSY',
     1805     1805    1                                   'TU 5 BUSY',
     1806     1806    1                                   'TU 4 BUSY',
     1807     1807    1                                   'TU 3 BUSY',
     1808     1808    1                                   'TU 2 BUSY',
     1809     1809    1                                   'TU 1 BUSY',
     1810     1810    1                                   'TU 0 BUSY',
     1811     1811    1                                   'TU F BUSY',
     1812     1812    1                                   'TU E BUSY',
     1813     1813    1                                   'TU D BUSY',
PL6.E3A0      #001=TH_XSTATUS_D File=TH_XSTATUS_D.:E05TSI                        WED 07/30/97 06:19 Page:50
     1814     1814    1                                   'TU C BUSY',
     1815     1815    1                                   'TU B BUSY',
     1816     1816    1                                   'TU A BUSY',
     1817     1817    1                                   'TU 9 BUSY',
     1818     1818    1                                   'TU 8 BUSY',
     1819     1819    1                                   ' ');
     1820     1820        /**/
     1821     1821        /* FOR CARD READER AND CARD PUNCHER - CRU1050, PCU0120 AND PCU0121 */
     1822     1822        /*                                    NO EX STAT INTERP FOR CRU0501 */
     1823     1823        /**/
     1824     1824    1   DCL 1 CR_CP(0:55) CONSTANT SYMDEF ALIGNED,
     1825     1825    1         2 CODE UBIN BYTE UNAL INIT(0,1,2,3,4,5,8,9,10,11,16,17,18,19,
     1826     1826    1                                    20,21,22,23,24,25,26,27,28,29,30,31,
     1827     1827    1                                    32,33,34,35,36,37,38,39,40,41,42,43,
     1828     1828    1                                    44,45,46,47,48,49,50,51,52,53,54,55,
     1829     1829    1                                    56,64,65,66,67,68),
     1830     1830    1         2 COUNT UBIN BYTE UNAL INIT(15,15,20,15,16,11,14,14,15,15,14,
     1831     1831    1                                     11,15,15,15,15,15,15,11,15,14,9,
     1832     1832    1                                     9,10,12,11,12,12,17,10,16,16,13,
     1833     1833    1                                     9,12,16,16,16,16,16,16,14,11,14,
     1834     1834    1                                     9,12,17,12,15,15,14,17,13,7,17,15),
     1835     1835    1         2 TEXT CHAR(35) UNAL INIT('PUNCH STAT PRES',
     1836     1836    1                                   'PUNCH BUF ALLOW',
     1837     1837    1                                   'JAM: RD & PUNCH STAT',
     1838     1838    1                                   'JAM ON INC FAIL',
     1839     1839    1                                   'JAM ON EXTRA STR',
     1840     1840    1                                   'BNK DATA FD',
     1841     1841    1                                   'PUNCH ERR COL1',
     1842     1842    1                                   'PUNCH ERR COL2',
     1843     1843    1                                   'PUNCH ERR COL41',
     1844     1844    1                                   'PUNCH ERR COL42',
     1845     1845    1                                   'DISCNCT TO DOE',
     1846     1846    1                                   'INHIBIT EV3',
     1847     1847    1                                   'SET APM1 TO DOE',
     1848     1848    1                                   'SET APM2 TO DOE',
     1849     1849    1                                   'SET APM3 TO DOE',
     1850     1850    1                                   'SET APM4 TO DOE',
PL6.E3A0      #001=TH_XSTATUS_D File=TH_XSTATUS_D.:E05TSI                        WED 07/30/97 06:19 Page:51
     1851     1851    1                                   'SET APM5 TO DOE',
     1852     1852    1                                   'LOWER LT TO DOE',
     1853     1853    1                                   'RD COMP ERR',
     1854     1854    1                                   'ALL LT/DK CHECK',
     1855     1855    1                                   'STROBE CNT ERR',
     1856     1856    1                                   'TRANS ERR',
     1857     1857    1                                   'ILL PUNCH',
     1858     1858    1                                   'BLANK CARD',
     1859     1859    1                                   'ADDR INC CMD',
     1860     1860    1                                   'EV1 PRESENT',
     1861     1861    1                                   'HOPPER EMPTY',
     1862     1862    1                                   'STACKER FULL',
     1863     1863    1                                   'ANTI FOUNTAIN OFF',
     1864     1864    1                                   'THROAT ERR',
     1865     1865    1                                   'JPK/JRK TYPE JAM',
     1866     1866    1                                   'JAM IN KICK STAT',
     1867     1867    1                                   'CHAD BOX FULL',
     1868     1868    1                                   'INTERLOCK',
     1869     1869    1                                   'BOARD CODE 0',
     1870     1870    1                                   'BOARD CODE LOG 1',
     1871     1871    1                                   'BOARD CODE LOG 2',
     1872     1872    1                                   'BOARD CODE LOG 3',
     1873     1873    1                                   'BOARD CODE LOG 4',
     1874     1874    1                                   'BOARD CODE LOG 5',
     1875     1875    1                                   'JAM IN WAIT STAT',
     1876     1876    1                                   'JAM IN RD STAT',
     1877     1877    1                                   'EV2 PRESENT',
     1878     1878    1                                   'END OF PROCESS',
     1879     1879    1                                   'DEV READY',
     1880     1880    1                                   'DATA PAR ERR',
     1881     1881    1                                   'RD LAMP VOLT MARG',
     1882     1882    1                                   '+5 VOLTS LOW',
     1883     1883    1                                   'PUNCH LAMP MARG',
     1884     1884    1                                   'INDEX TIME MARG',
     1885     1885    1                                   'CHECK BYTE CNT',
     1886     1886    1                                   'RESIDUAL BYTE CNT',
     1887     1887    1                                   'BUF CHECK ERR',
PL6.E3A0      #001=TH_XSTATUS_D File=TH_XSTATUS_D.:E05TSI                        WED 07/30/97 06:19 Page:52
     1888     1888    1                                   'ILL EV1',
     1889     1889    1                                   'NO END OF PROCESS',
     1890     1890    1                                   'DEV TIME RUNOUT');
     1891     1891        /**/
     1892     1892        /* FOR PRINTER - PRU1200,PRU1600; OF PR54Es */
     1893     1893        /**/
     1894     1894    1   DCL 1 PR54E(0:75) CONSTANT SYMDEF ALIGNED,
     1895     1895    1         2 CODE UBIN BYTE UNAL INIT(0,6,7,8,9,10,11,12,13,14,15,16,17,
     1896     1896    1                               18,19,20,21,22,23,24,25,32,33,34,35,36,
     1897     1897    1                               42,45,48,50,54,56,58,59,60,64,65,66,67,
     1898     1898    1                               69,72,73,75,76,77,78,79,80,88,89,90,91,
     1899     1899    1                               92,93,94,95,96,97,100,101,102,103,104,
     1900     1900    1                               105,106,107,108,109,110,111,112,113,116,
     1901     1901    1                               117,118,119),
     1902     1902    1         2 COUNT UBIN BYTE UNAL INIT(13,14,14,14,14,14,14,14,14,14,14,
     1903     1903    1                                     20,20,23,17,20,20,24,24,16,12,5,
     1904     1904    1                                     10,11,15,12,20,12,16,15,17,14,16,
     1905     1905    1                                     9,9,14,21,19,10,11,10,10,12,11,11,
     1906     1906    1                                     12,10,17,18,18,18,18,18,18,18,18,
     1907     1907    1                                     18,18,20,20,20,20,16,16,16,16,16,
     1908     1908    1                                     16,16,16,16,16,20,20,20,20),
     1909     1909    1         2 TEXT CHAR(35) UNAL INIT('BELT IMAGE LD',
     1910     1910    1                                   'BELT NO BIT 00',
     1911     1911    1                                   'BELT NO BIT 01',
     1912     1912    1                                   'BELT NO BIT 02',
     1913     1913    1                                   'BELT NO BIT 03',
     1914     1914    1                                   'BELT NO BIT 04',
     1915     1915    1                                   'BELT NO BIT 05',
     1916     1916    1                                   'BELT NO BIT 06',
     1917     1917    1                                   'BELT NO BIT 07',
     1918     1918    1                                   'BELT NO BIT 08',
     1919     1919    1                                   'BELT NO BIT 09',
     1920     1920    1                                   '# OF COL CODE: BIT 0',
     1921     1921    1                                   '# OF COL CODE: BIT 1',
     1922     1922    1                                   '# OF COL CODE: 136 COLS',
     1923     1923    1                                   'SPEED CODE: BIT 3',
     1924     1924    1                                   'SPEED CODE: 1600 LPM',
PL6.E3A0      #001=TH_XSTATUS_D File=TH_XSTATUS_D.:E05TSI                        WED 07/30/97 06:19 Page:53
     1925     1925    1                                   'SPEED CODE: 1200 LPM',
     1926     1926    1                                   'PRT DEN CODE: 8 LINES/IN',
     1927     1927    1                                   'PRT DEN CODE: 6 LINES/IN',
     1928     1928    1                                   'VFC IMAGE LOADED',
     1929     1929    1                                   'VFC SYNC BIT',
     1930     1930    1                                   'READY',
     1931     1931    1                                   'INITIALIZE',
     1932     1932    1                                   'PRINT CHECK',
     1933     1933    1                                   'PAPER POS ASKED',
     1934     1934    1                                   'FORM DELETED',
     1935     1935    1                                   'LINE STROBE INCIDENT',
     1936     1936    1                                   'DATA PAR ERR',
     1937     1937    1                                   'BAD PLB ADDR INC',
     1938     1938    1                                   'NONPRNTBLE CHAR',
     1939     1939    1                                   'IMG BELT ADDR ERR',
     1940     1940    1                                   'SPACE LINE ERR',
     1941     1941    1                                   'TRACTORS NOT ENG',
     1942     1942    1                                   'PAPER OUT',
     1943     1943    1                                   'PAPER ABS',
     1944     1944    1                                   'BELT GATE OPEN',
     1945     1945    1                                   'BROKEN FINGER ON BELT',
     1946     1946    1                                   'BELT START TIME OUT',
     1947     1947    1                                   'RIBBON ERR',
     1948     1948    1                                   'STACKER ERR',
     1949     1949    1                                   'ECHO CHECK',
     1950     1950    1                                   'ECHO CHECK',
     1951     1951    1                                   'SKIP FAILURE',
     1952     1952    1                                   '+40V SUPPLY',
     1953     1953    1                                   '-40V SUPPLY',
     1954     1954    1                                   'BELT COMMAND',
     1955     1955    1                                   '-9V SUPPLY',
     1956     1956    1                                   'PROCESSORS DIALOG',
     1957     1957    1                                   'ECHO CHK REG BIT00',
     1958     1958    1                                   'ECHO CHK REG BIT01',
     1959     1959    1                                   'ECHO CHK REG BIT02',
     1960     1960    1                                   'ECHO CHK REG BIT03',
     1961     1961    1                                   'ECHO CHK REG BIT04',
PL6.E3A0      #001=TH_XSTATUS_D File=TH_XSTATUS_D.:E05TSI                        WED 07/30/97 06:19 Page:54
     1962     1962    1                                   'ECHO CHK REG BIT05',
     1963     1963    1                                   'ECHO CHK REG BIT06',
     1964     1964    1                                   'ECHO CHK REG BIT07',
     1965     1965    1                                   'ECHO CHK REG BIT08',
     1966     1966    1                                   'ECHO CHK REG BIT09',
     1967     1967    1                                   'BYTE STROB CNT BIT 4',
     1968     1968    1                                   'BYTE STROB CNT BIT 5',
     1969     1969    1                                   'BYTE STROB CNT BIT 6',
     1970     1970    1                                   'BYTE STROB CNT BIT 7',
     1971     1971    1                                   'SHORT CKT BIT 00',
     1972     1972    1                                   'SHORT CKT BIT 01',
     1973     1973    1                                   'SHORT CKT BIT 02',
     1974     1974    1                                   'SHORT CKT BIT 03',
     1975     1975    1                                   'SHORT CKT BIT 04',
     1976     1976    1                                   'SHORT CKT BIT 05',
     1977     1977    1                                   'SHORT CKT BIT 06',
     1978     1978    1                                   'SHORT CKT BIT 07',
     1979     1979    1                                   'SHORT CKT BIT 08',
     1980     1980    1                                   'SHORT CKT BIT 09',
     1981     1981    1                                   'BYTE STROB CNT BIT 4',
     1982     1982    1                                   'BYTE STROB CNT BIT 5',
     1983     1983    1                                   'BYTE STROB CNT BIT 6',
     1984     1984    1                                   'BYTE STROB CNT BIT 7');
     1985     1985        /**/
     1986     1986        /* FOR PRINTER - PRU1200 AND PRU1600 */
     1987     1987        /**/
     1988     1988    1   DCL 1 PR71(0:58) CONSTANT SYMDEF ALIGNED,
     1989     1989    1         2 CODE UBIN BYTE UNAL INIT(0,6,16,17,
     1990     1990    1                                    18,19,20,21,22,23,24,25,32,33,34,35,
     1991     1991    1                                    36,40,41,42,43,44,45,48,49,50,51,52,
     1992     1992    1                                    53,54,55,56,57,58,59,60,64,65,66,67,
     1993     1993    1                                    68,69,72,73,74,75,76,77,78,79,80,81,
     1994     1994    1                                    82,83,84,85,86,88,104),
     1995     1995    1         2 COUNT UBIN BYTE UNAL INIT(13,18,
     1996     1996    1                                     20,23,23,17,20,20,24,24,16,12,5,
     1997     1997    1                                     10,11,15,12,14,20,13,12,13,16,16,
     1998     1998    1                                     11,19,19,14,20,17,17,14,8,16,9,9,
PL6.E3A0      #001=TH_XSTATUS_D File=TH_XSTATUS_D.:E05TSI                        WED 07/30/97 06:19 Page:55
     1999     1999    1                                     14,19,13,10,8,11,14,9,13,12,14,10,
     2000     2000    1                                     13,13,18,17,14,16,17,13,13,20,23),
     2001     2001    1         2 TEXT CHAR(35) UNAL INIT('BELT IMAGE LD',
     2002     2002    1                                   'BELT TYPE: PRB0600',
     2003     2003    1                                   '# OF COL CODE: BIT 0',
     2004     2004    1                                   '# OF COL CODE: 160 COLS',
     2005     2005    1                                   '# OF COL CODE: 136 COLS',
     2006     2006    1                                   'SPEED CODE: BIT 3',
     2007     2007    1                                   'SPEED CODE: 1600 LPM',
     2008     2008    1                                   'SPEED CODE: 1200 LPM',
     2009     2009    1                                   'PRT DEN CODE: 8 LINES/IN',
     2010     2010    1                                   'PRT DEN CODE: 6 LINES/IN',
     2011     2011    1                                   'VFC IMAGE LOADED',
     2012     2012    1                                   'VFC SYNC BIT',
     2013     2013    1                                   'READY',
     2014     2014    1                                   'INITIALIZE',
     2015     2015    1                                   'PRINT CHECK',
     2016     2016    1                                   'PAPER POS ASKED',
     2017     2017    1                                   'FORM DELETED',
     2018     2018    1                                   'ECHO CHECK ERR',
     2019     2019    1                                   'MULTI ECHO CHECK ERR',
     2020     2020    1                                   'BELT SYNC ERR',
     2021     2021    1                                   'SCAN REG ERR',
     2022     2022    1                                   'LNS DELAY ERR',
     2023     2023    1                                   'DAI DATA PAR ERR',
     2024     2024    1                                   'BAD PLB ADDR INC',
     2025     2025    1                                   'PLB PAR ERR',
     2026     2026    1                                   'NONPRTBAL CH IN PLB',
     2027     2027    1                                   'FIRE HAMMER REG ERR',
     2028     2028    1                                   'INVLD PLB ADDR',
     2029     2029    1                                   'IMG BELT BFR PAR ERR',
     2030     2030    1                                   'IMG BELT ADDR ERR',
     2031     2031    1                                   'INV IMG BELT ADDR',
     2032     2032    1                                   'SPACE LINE ERR',
     2033     2033    1                                   'SYNC ERR',
     2034     2034    1                                   'TRACTORS NOT ENG',
     2035     2035    1                                   'PAPER OUT',
PL6.E3A0      #001=TH_XSTATUS_D File=TH_XSTATUS_D.:E05TSI                        WED 07/30/97 06:19 Page:56
     2036     2036    1                                   'PAPER ABS',
     2037     2037    1                                   'BELT GATE OPEN',
     2038     2038    1                                   'BROKEN RING ON BELT',
     2039     2039    1                                   'VERT BELT POS',
     2040     2040    1                                   'RIBBON ERR',
     2041     2041    1                                   'SKEW ERR',
     2042     2042    1                                   'STACKER ERR',
     2043     2043    1                                   'PHASE FAIL ALT',
     2044     2044    1                                   'D-C ALERT',
     2045     2045    1                                   'THERMAL ALERT',
     2046     2046    1                                   'SUPPLY ALERT',
     2047     2047    1                                   'PRT SUPP ALERT',
     2048     2048    1                                   'PAPER FAIL',
     2049     2049    1                                   'PAPER RUNAWAY',
     2050     2050    1                                   'EMERGENCY OFF',
     2051     2051    1                                   'SHORT CKT ERR ENO1',
     2052     2052    1                                   'SHORT CKT ERR NO2',
     2053     2053    1                                   'SKIP OVER CURR',
     2054     2054    1                                   'RING SENSOR FAIL',
     2055     2055    1                                   'RING SENSOR DIRTY',
     2056     2056    1                                   'AIRFLOW CHECK',
     2057     2057    1                                   'A-C OVER CURR',
     2058     2058    1                                   'ECHO CHECK REG: 0000',
     2059     2059    1                                   'SHORT CIRCUIT REG: 0000');
     2060     2060        /**/
     2061     2061        /* FOR PRINTER - PRU0901 AND PRU1201 */
     2062     2062        /**/
     2063     2063    1   DCL 1 PR54(0:9) CONSTANT SYMDEF ALIGNED,
     2064     2064    1       2 CODE UBIN BYTE UNAL INIT(0,6,16,17,24,25,96,104,113,120),
     2065     2065    1       2 COUNT UBIN BYTE UNAL INIT(13,18,8,9,12,11,1,1,1,10),
     2066     2066    1       2 TEXT CHAR(35) UNAL INIT('BELT IMAGE LD',
     2067     2067    1                                 'BELT TYPE: PRB3600',
     2068     2068    1                                 '1200 LPM',
     2069     2069    1                                 '44 IN/SEC',
     2070     2070    1                                 'VFC IMAGE LD',
     2071     2071    1                                 'VFC IN SYNC',
     2072     2072    1                                 ' ',
PL6.E3A0      #001=TH_XSTATUS_D File=TH_XSTATUS_D.:E05TSI                        WED 07/30/97 06:19 Page:57
     2073     2073    1                                 ' ',
     2074     2074    1                                 ' ',
     2075     2075    1                                 '8 LINES/IN');
     2076     2076        /**/
     2077     2077        /* PRINT BELT CODES FOR PR54 PRINTER */
     2078     2078        /**/
     2079     2079    1   DCL 1 PR54_BELT_TBL(0:3) CONSTANT SYMDEF ALIGNED,
     2080     2080    1       2 CODE BIT(15) UNAL INIT('00764'O,'01001'O,'01014'O,'01130'O),
     2081     2081    1       2 COUNT UBIN BYTE UNAL INIT(18,18,18,18),
     2082     2082    1       2 TEXT CHAR(18) UNAL INIT('BELT TYPE: PRB3500',
     2083     2083    1                                 'BELT TYPE: PRB3513',
     2084     2084    1                                 'BELT TYPE: PRB3524',
     2085     2085    1                                 'BELT TYPE: PRB3600');
     2086     2086        /**/
     2087     2087        /* PRINT BELT CODES FOR PR71 PRINTER */
     2088     2088        /**/
     2089     2089    1   DCL 1 PR71_BELT_TBL(0:3) CONSTANT SYMDEF ALIGNED,
     2090     2090    1       2 CODE BIT(15) UNAL INIT('00764'O,'01001'O,'01014'O,'01130'O),
     2091     2091    1       2 COUNT UBIN BYTE UNAL INIT(18,18,18,18),
     2092     2092    1       2 TEXT CHAR(18) UNAL INIT('BELT TYPE: PRB0500',
     2093     2093    1                                 'BELT TYPE: PRB0513',
     2094     2094    1                                 'BELT TYPE: PRB0524',
     2095     2095    1                                 'BELT TYPE: PRB0600');
     2096     2096        /**/
     2097     2097        /* CONTROLLER DETECTED ERRORS FOUND IN BYTE 12 OF PR54 EXTENDED BITS*/
     2098     2098        /**/
     2099     2099    1   DCL 1 CTRL_ERR_TBL(0:65) CONSTANT SYMDEF ALIGNED,
     2100     2100    1         2 CODE BIT(9) UNAL INIT('000'O,'001'O,'002'O,'003'O,'004'O,
     2101     2101    1                                 '005'O,'006'O,'007'O,'010'O,'011'O,
     2102     2102    1                                 '012'O,'013'O,'014'O,'015'O,'016'O,
     2103     2103    1                                 '017'O,'020'O,'021'O,'022'O,'023'O,
     2104     2104    1                                 '024'O,'025'O,'026'O,'027'O,'030'O,
     2105     2105    1                                 '031'O,'032'O,'033'O,'034'O,'056'O,
     2106     2106    1                                 '057'O,'060'O,'061'O,'062'O,'063'O,
     2107     2107    1                                 '065'O,'066'O,'067'O,'070'O,'071'O,
     2108     2108    1                                 '072'O,'073'O,'074'O,'075'O,'076'O,
     2109     2109    1                                 '100'O,'106'O,'113'O,'114'O,'115'O,
PL6.E3A0      #001=TH_XSTATUS_D File=TH_XSTATUS_D.:E05TSI                        WED 07/30/97 06:19 Page:58
     2110     2110    1                                 '116'O,'117'O,'120'O,'121'O,'122'O,
     2111     2111    1                                 '123'O,'124'O,'133'O,'134'O,'135'O,
     2112     2112    1                                 '136'O,'137'O,'140'O,'141'O,'142'O,
     2113     2113    1                                 '143'O),
     2114     2114    1         2 COUNT UBIN BYTE UNAL INIT(9,11,12,9,14,21,21,8,7,9,12,13,
     2115     2115    1                                     18,24,14,19,21,15,9,14,17,10,15,
     2116     2116    1                                     17,14,16,13,22,10,9,12,11,20,6,
     2117     2117    1                                     19,19,9,9,9,13,10,12,8,13,11,11,
     2118     2118    1                                     20,10,10,8,15,9,9,14,13,11,8,13,
     2119     2119    1                                     13,13,17,17,20,19,14,13),
     2120     2120    1         2 TEXT CHAR(35)UNAL INIT('PAPER OUT',
     2121     2121    1                                  'ILL OP CODE',
     2122     2122    1                                  'ILL DEV ADDR',
     2123     2123    1                                  'NO VFC LD',
     2124     2124    1                                  'NO BELT IMG LD',
     2125     2125    1                                  'TOP ECHO ON LAST SLEW',
     2126     2126    1                                  'SLEW ERR ON LAST SLEW',
     2127     2127    1                                  'MAN HALT',
     2128     2128    1                                  'EOP/EOS',
     2129     2129    1                                  'PAPER LOW',
     2130     2130    1                                  'INVAL VFC LD',
     2131     2131    1                                  'PRNTR OFFLINE',
     2132     2132    1                                  'PAPER MOTION ALERT',
     2133     2133    1                                  'BIB NOT CONTAIN 240 CHAR',
     2134     2134    1                                  'INVAL LINE DEN',
     2135     2135    1                                  'FORM LEN > 144 LINE',
     2136     2136    1                                  'INVAL LINE# IN VFC LD',
     2137     2137    1                                  'INVAL AUTO SLEW',
     2138     2138    1                                  'INVAL TOP',
     2139     2139    1                                  'ERR ON STAT RD',
     2140     2140    1                                  'UNEXP PDSI REG ID',
     2141     2141    1                                  'TIMING ERR',
     2142     2142    1                                  'HORIZ TAB > 127',
     2143     2143    1                                  'TRIED TO TAB LEFT',
     2144     2144    1                                  'VERT TAB > 127',
     2145     2145    1                                  'HORIZ SKIP > 127',
     2146     2146    1                                  'SKIP PAST EOL',
PL6.E3A0      #001=TH_XSTATUS_D File=TH_XSTATUS_D.:E05TSI                        WED 07/30/97 06:19 Page:59
     2147     2147    1                                  'CNTRL CHAR IN NON EDIT',
     2148     2148    1                                  'READ ABORT',
     2149     2149    1                                  'POWER OFF',
     2150     2150    1                                  'CNTRLR ALERT',
     2151     2151    1                                  'CNTRLR ATTN',
     2152     2152    1                                  'ATTN COND ON PREV OP',
     2153     2153    1                                  'NO ERR',
     2154     2154    1                                  'SKIP LOOP CNTRL ERR',
     2155     2155    1                                  'TRACTORS DECLUTCHED',
     2156     2156    1                                  'PAPER JAM',
     2157     2157    1                                  'PAPER LOW',
     2158     2158    1                                  'YOKE OPEN',
     2159     2159    1                                  'BROKEN FINGER',
     2160     2160    1                                  'BELT START',
     2161     2161    1                                  'RIBBON MOTION',
     2162     2162    1                                  'TIME OUT',
     2163     2163    1                                  'STACKER ALERT',
     2164     2164    1                                  'RIBBON CART',
     2165     2165    1                                  'LINE STROBE',
     2166     2166    1                                  'CHAR NOT ON BAND IMG',
     2167     2167    1                                  'ECHO CHECK',
     2168     2168    1                                  'ECHO CHECK',
     2169     2169    1                                  'OVR TEMP',
     2170     2170    1                                  'SKIP BOARD FAIL',
     2171     2171    1                                  '+40V FAIL',
     2172     2172    1                                  '-40V FAIL',
     2173     2173    1                                  'BELT CMND FAIL',
     2174     2174    1                                  '-9V VOLT FAIL',
     2175     2175    1                                  'DIALOG FAIL',
     2176     2176    1                                  'TIME OUT',
     2177     2177    1                                  'PLB LD OVRFLO',
     2178     2178    1                                  'VFU LD OVRFLO',
     2179     2179    1                                  'BIB LD OVRFLO',
     2180     2180    1                                  'INVAL BIB DATA LD',
     2181     2181    1                                  'INVAL VFU DATA LD',
     2182     2182    1                                  'INVAL VFU CHAN# > 11',
     2183     2183    1                                  'NO STOP ON VFU CHAN',
PL6.E3A0      #001=TH_XSTATUS_D File=TH_XSTATUS_D.:E05TSI                        WED 07/30/97 06:19 Page:60
     2184     2184    1                                  'INVAL CMND SEQ',
     2185     2185    1                                  'ILL CMND CODE');
     2186     2186        /**/
     2187     2187        /* PRINTER STATUS REGISTER INFO - BYTE 13 OF PR54 EXTENDED BITS */
     2188     2188        /**/
     2189     2189    1   DCL 1 LED_TBL(0:32) CONSTANT SYMDEF ALIGNED,
     2190     2190    1         2 CODE BIT(9) UNAL INIT('000'O,'001'O,'003'O,'004'O,'005'O,
     2191     2191    1                                 '006'O,'007'O,'010'O,'011'O,'012'O,
     2192     2192    1                                 '013'O,'014'O,'016'O,'024'O,'031'O,
     2193     2193    1                                 '032'O,'033'O,'034'O,'035'O,'036'O,
     2194     2194    1                                 '037'O,'040'O,'041'O,'221'O,'222'O,
     2195     2195    1                                 '223'O,'224'O,'225'O,'226'O,'227'O,
     2196     2196    1                                 '230'O,'231'O,'377'O),
     2197     2197    1         2 COUNT UBIN BYTE UNAL INIT(6,19,19,9,9,9,13,10,13,7,12,14,
     2198     2198    1                                     11,8,10,10,7,9,9,9,14,8,10,11,13,
     2199     2199    1                                     22,11,13,13,19,14,8,14),
     2200     2200    1         2 TEXT CHAR(35) UNAL INIT('NO ERR',
     2201     2201    1                                   'SKIP LOOP CNTRL ERR',
     2202     2202    1                                   'TRACTORS DECLUTCHED',
     2203     2203    1                                   'PAPER JAM',
     2204     2204    1                                   'PAPER LOW',
     2205     2205    1                                   'YOKE OPEN',
     2206     2206    1                                   'BROKEN FINGER',
     2207     2207    1                                   'BELT START',
     2208     2208    1                                   'RIBBON MOTION',
     2209     2209    1                                   'TIMEOUT',
     2210     2210    1                                   'STACKR ALERT',
     2211     2211    1                                   'NO RIBBON CART',
     2212     2212    1                                   'LINE STROBE',
     2213     2213    1                                   'ILL CHAR',
     2214     2214    1                                   'ECHO CHECK',
     2215     2215    1                                   'ECHO CHECK',
     2216     2216    1                                   'OVRTEMP',
     2217     2217    1                                   'SKIP FAIL',
     2218     2218    1                                   '+40V FAIL',
     2219     2219    1                                   '-40V FAIL',
     2220     2220    1                                   'BELT CMND FAIL',
PL6.E3A0      #001=TH_XSTATUS_D File=TH_XSTATUS_D.:E05TSI                        WED 07/30/97 06:19 Page:61
     2221     2221    1                                   '-9V FAIL',
     2222     2222    1                                   'DIALOG INC',
     2223     2223    1                                   'LOAD OVRFLO',
     2224     2224    1                                   'BFR ID OVRFLO',
     2225     2225    1                                   'BAND IMG BFR LD OVRFLO',
     2226     2226    1                                   'INSUFF DATA',
     2227     2227    1                                   'INVAL VFU BFR',
     2228     2228    1                                   'ILL VFU CHAN#',
     2229     2229    1                                   'NO STOP ON VFU CHAN',
     2230     2230    1                                   'INVAL CMND SEQ',
     2231     2231    1                                   'ILL CMND',
     2232     2232    1                                   'PAPER POSITION');
     2233     2233        /**/
     2234     2234        /* PRINTER COMMAND REGISTER - BYTE 14 OF PR54 EXTENDED BITS */
     2235     2235        /**/
     2236     2236    1   DCL 1 REGISTER_TBL(0:16) CONSTANT SYMDEF ALIGNED,
     2237     2237    1         2 CODE BIT(6) UNAL INIT('00'O,'01'O,'02'O,'03'O,'04'O,'05'O,
     2238     2238    1                                 '06'O,'07'O,'10'O,'11'O,'12'O,'20'O,
     2239     2239    1                                 '21'O,'22'O,'23'O,'24'O,'25'O),
     2240     2240    1         2 COUNT UBIN BYTE UNAL INIT(9,10,8,14,13,13,8,12,16,8,14,
     2241     2241    1                                     10,13,3,3,12,11),
     2242     2242    1         2 TEXT CHAR(35) UNAL INIT('EVENT REG',
     2243     2243    1                                   'STATUS REG',
     2244     2244    1                                   'CMND REG',
     2245     2245    1                                   'DIAG EVENT REG',
     2246     2246    1                                   'DIAG STAT REG',
     2247     2247    1                                   'ILL FOR PRNTR',
     2248     2248    1                                   'SLEW REG',
     2249     2249    1                                   'LINE CNT REG',
     2250     2250    1                                   'CNTRL BUTTON REG',
     2251     2251    1                                   'PARM REG',
     2252     2252    1                                   'DEV CONFIG REG',
     2253     2253    1                                   'DEV ID BFR',
     2254     2254    1                                   'ILL FOR PRNTR',
     2255     2255    1                                   'PLB',
     2256     2256    1                                   'VFU',
     2257     2257    1                                   'BELT IMG BFR',
PL6.E3A0      #001=TH_XSTATUS_D File=TH_XSTATUS_D.:E05TSI                        WED 07/30/97 06:19 Page:62
     2258     2258    1                                   'BELT ID BFR');
     2259     2259        /**/
     2260     2260        /* PR54-BYTE 14'S NON-REGISTER COMMANDS FOR EXTENDED BITS */
     2261     2261        /**/
     2262     2262    1   DCL 1 NON_REG_TBL(0:10) CONSTANT SYMDEF ALIGNED,
     2263     2263    1         2 CODE BIT(6) UNAL INIT('00'O,'01'O,'02'O,'03'O,'04'O,'05'O,
     2264     2264    1                                 '06'O,'07'O,'10'O,'11'O,'12'O),
     2265     2265    1         2 COUNT UBIN BYTE UNAL INIT(11,13,15,14,13,11,11,12,19,14,13),
     2266     2266    1         2 TEXT CHAR(35) UNAL INIT('ALARM CLEAR',
     2267     2267    1                                   'SET DIAG MODE',
     2268     2268    1                                   'RESET DIAG MODE',
     2269     2269    1                                   'EXEC SELF-TEST',
     2270     2270    1                                   'ILL FOR PRNTR',
     2271     2271    1                                   'PRINT ORDER',
     2272     2272    1                                   'SLEW BY CNT',
     2273     2273    1                                   'SLEW BY CHAN',
     2274     2274    1                                   'EXEC PRNT SELF-TEST',
     2275     2275    1                                   'OFF-LINE ORDER',
     2276     2276    1                                   'ON-LINE ORDER');
     2277     2277        /**/
     2278     2278        /* DATA FOR PROCERR */
     2279     2279        /**/
     2280     2280    1   DCL 1 FC(0:21) CONSTANT SYMDEF ALIGNED,
     2281     2281    1         2 COUNT UBIN BYTE UNAL INIT(33,12,9,15,18,13,12,12,13,18,23,
     2282     2282    1                                     21,13,14,18,13,22,21,21,24,18,22),
     2283     2283    1         2 TEXT CHAR(33) UNAL INIT('No fault, Status information only',
     2284     2284    1                                   'Memory fault',
     2285     2285    1                                   'MME fault',
     2286     2286    1                                   'Fault tag fault',
     2287     2287    1                                   'Timer runout fault',
     2288     2288    1                                   'Command fault',
     2289     2289    1                                   'Derail fault',
     2290     2290    1                                   'Lockup fault',
     2291     2291    1                                   'Connect fault',
     2292     2292    1                                   'Parity error fault',
     2293     2293    1                                   'Illegal procedure fault',
     2294     2294    1                                   'Op not complete fault',
PL6.E3A0      #001=TH_XSTATUS_D File=TH_XSTATUS_D.:E05TSI                        WED 07/30/97 06:19 Page:63
     2295     2295    1                                   'Startup fault',
     2296     2296    1                                   'Overflow fault',
     2297     2297    1                                   'Divide check fault',
     2298     2298    1                                   'Execute fault',
     2299     2299    1                                   'Security class 1 fault',
     2300     2300    1                                   'Dynamic linking fault',
     2301     2301    1                                   'Missing segment fault',
     2302     2302    1                                   'Missing work space fault',
     2303     2303    1                                   'Missing page fault',
     2304     2304    1                                   'Security class 2 fault');
     2305     2305        /**/
     2306     2306        /* FOR FAULT REGISTER ERROR DATA */
     2307     2307        /**/
     2308     2308    1   DCL 1 FLTREG_TYPE(0:2) CONSTANT SYMDEF ALIGNED,
     2309     2309    1         2 SUB$ PTR INIT(ADDR(L66_DPSE),
     2310     2310    1                         ADDR(L66_DPSE),
     2311     2311    1                         ADDR(ELS1)),
     2312     2312    1         2 COUNT UBIN BYTE UNAL INIT(28,28,18);
     2313     2313        /**/
     2314     2314        /* FOR L66 AND DPSE */
     2315     2315        /**/
     2316     2316    1   DCL 1 L66_DPSE(0:28) CONSTANT SYMDEF ALIGNED,
     2317     2317    1         2 CODE UBIN BYTE UNAL INIT(0,1,2,3,4,5,6,7,8,9,10,11,12,13,32,
     2318     2318    1                                    33,34,35,36,37,38,39,40,41,42,43,44,
     2319     2319    1                                    45,46),
     2320     2320    1         2 COUNT UBIN BYTE UNAL INIT(15,24,23,26,20,13,16,24,24,16,16,
     2321     2321    1                                     16,16,29,22,18,23,26,24,24,24,24,
     2322     2322    1                                     33,32,37,37,37,37,35),
     2323     2323    1         2 TEXT CHAR(37) UNAL INIT('ILLEGAL OP CODE',
     2324     2324    1                                   'ILLEGAL ADDR OR MODIFIER',
     2325     2325    1                                   'ILLEGAL SLAVE PROCEDURE',
     2326     2326    1                                   'IPR - ALL OTHER PROCEDURES',
     2327     2327    1                                   'NON-EXISTENT ADDRESS',
     2328     2328    1                                   'OUT OF BOUNDS',
     2329     2329    1                                   'ILLEGAL EIS DATA',
     2330     2330    1                                   'PROCESSOR PARITY (UPPER)',
     2331     2331    1                                   'PROCESSOR PARITY (LOWER)',
PL6.E3A0      #001=TH_XSTATUS_D File=TH_XSTATUS_D.:E05TSI                        WED 07/30/97 06:19 Page:64
     2332     2332    1                                   'CONNECT - PORT A',
     2333     2333    1                                   'CONNECT - PORT B',
     2334     2334    1                                   'CONNECT - PORT C',
     2335     2335    1                                   'CONNECT - PORT D',
     2336     2336    1                                   'SC TO PROC CONTROL SEQ ERR #1',
     2337     2337    1                                   'DIRECTORY PARITY ERROR',
     2338     2338    1                                   'CACHE PARITY ERROR',
     2339     2339    1                                   'ILLEGAL ACTION ON STORE',
     2340     2340    1                                   'PARITY ERROR ON BLOCK LOAD',
     2341     2341    1                                   'BUFFER OVERFLOW - PORT A',
     2342     2342    1                                   'BUFFER OVERFLOW - PORT B',
     2343     2343    1                                   'BUFFER OVERFLOW - PORT C',
     2344     2344    1                                   'BUFFER OVERFLOW - PORT D',
     2345     2345    1                                   'PRIMARY DIRECTORY BUFFER OVERFLOW',
     2346     2346    1                                   'WRITE NOTIFY PAR ERR ON ANY PORT',
     2347     2347    1                                   'DUPLICATE DIRECTORY - LEVEL 0 PAR ERR',
     2348     2348    1                                   'DUPLICATE DIRECTORY - LEVEL 1 PAR ERR',
     2349     2349    1                                   'DUPLICATE DIRECTORY - LEVEL 2 PAR ERR',
     2350     2350    1                                   'DUPLICATE DIRECTORY - LEVEL 3 PAR ERR',
     2351     2351    1                                   'DUPLICATE DIRECTORY MULTI MATCH ERR');
     2352     2352        /**/
     2353     2353        /* FOR ELS 1 */
     2354     2354        /**/
     2355     2355    1   DCL 1 ELS1(0:18) CONSTANT SYMDEF ALIGNED,
     2356     2356    1         2 CODE UBIN BYTE UNAL INIT(0,6,7,8,9,10,13,32,33,34,35,36,37,
     2357     2357    1                                    38,39,40,41,42,43),
     2358     2358    1         2 COUNT UBIN BYTE UNAL INIT(15,16,24,24,16,16,34,22,18,23,
     2359     2359    1                                     26,34,29,28,30,28,30,33,25),
     2360     2360    1         2 TEXT CHAR(37) UNAL INIT('ILLEGAL OP CODE',
     2361     2361    1                                   'ILLEGAL EIS DATA',
     2362     2362    1                                   'PROCESSOR PARITY (UPPER)',
     2363     2363    1                                   'PROCESSOR PARITY (LOWER)',
     2364     2364    1                                   'CONNECT - PORT A',
     2365     2365    1                                   'CONNECT - PORT B',
     2366     2366    1                                   'SC TO PROCESSOR CONTROL SEQ ERR #1',
     2367     2367    1                                   'DIRECTORY PARITY ERROR',
     2368     2368    1                                   'CACHE PARITY ERROR',
PL6.E3A0      #001=TH_XSTATUS_D File=TH_XSTATUS_D.:E05TSI                        WED 07/30/97 06:19 Page:65
     2369     2369    1                                   'ILLEGAL ACTION ON STORE',
     2370     2370    1                                   'PARITY ERROR ON BLOCK LOAD',
     2371     2371    1                                   'WRITE NOTIFICATION BUFFER OVERFLOW',
     2372     2372    1                                   'ONE CYCLE OF PATROL COMPLETED',
     2373     2373    1                                   'INTERMITTENT ERROR ON PATROL',
     2374     2374    1                                   'ECS SINGLE BIT ERROR CORRECTED',
     2375     2375    1                                   'CONNECT FROM DIAGNOSTIC UNIT',
     2376     2376    1                                   'ASSOC MEMORY DIRECTORY PAR ERR',
     2377     2377    1                                   'ASSOC MEMORY STORAGE PARITY ERROR',
     2378     2378    1                                   'WRITE NOTIFY PARITY ERROR');
     2379     2379        /**/
     2380     2380        /* FOR PORT A IAXX - */
     2381     2381        /**/
     2382     2382    1   DCL 1 ILL_CODE(0:15) CONSTANT SYMDEF ALIGNED,
     2383     2383    1         2 COUNT UBIN BYTE UNAL INIT(24,15,24,25,15,28,27,25,18,18,22,22,
     2384     2384    1                                     26,27,27,28),
     2385     2385    1         2 TEXT CHAR(37) UNAL INIT('IA00 - NO ILLEGAL ACTION',
     2386     2386    1                                   'IA01 - NOT USED',
     2387     2387    1                                   'IA02 - NON-EXISTENT ADDR',
     2388     2388    1                                   'IA03 - FAULT ON CONDITION',
     2389     2389    1                                   'IA04 - NOT USED',
     2390     2390    1                                   'IA05 - DATA PARITY STORE-SCU',
     2391     2391    1                                   'IA06 - DATA PARITY IN STORE',
     2392     2392    1                                   'IA07 - DATA PAR STORE-SCU',
     2393     2393    1                                   'IA10 - NOT CONTROL',
     2394     2394    1                                   'IA11 - MASKED PORT',
     2395     2395    1                                   'IA12 - ILLEGAL COMMAND',
     2396     2396    1                                   'IA13 - STORE NOT READY',
     2397     2397    1                                   'IA14 - ZAC PARITY PROC-SCU',
     2398     2398    1                                   'IA15 - DATA PARITY PROC-SCU',
     2399     2399    1                                   'IA16 - ZAC PARITY SCU STORE',
     2400     2400    1                                   'IA17 - DATA PARITY SCU STORE');
     2401     2401        /**/
     2402     2402        /* MTU'S  AND PRU'S SPECIAL CASES */
     2403     2403        /**/
     2404     2404    1   DCL 1 SP_CASES(0:4) CONSTANT SYMDEF ALIGNED,
     2405     2405    1         2 BYTEN UBIN BYTE UNAL INIT(16,20,27,35,96),
PL6.E3A0      #001=TH_XSTATUS_D File=TH_XSTATUS_D.:E05TSI                        WED 07/30/97 06:19 Page:66
     2406     2406    1         2 SUB$ PTR INIT(ADDR(CURR_DEN),
     2407     2407    1                         ADDR(RCRD_CAPA),
     2408     2408    1                         ADDR(DEV_SPD),
     2409     2409    1                         ADDR(DEV_ADDR),
     2410     2410    1                         ADDR(LD_CYC)),
     2411     2411    1         2 COUNT UBIN BYTE UNAL INIT(4,5,4,6,5);
     2412     2412        /**/
     2413     2413        /* CURRENT DENSITY */
     2414     2414        /**/
     2415     2415    1   DCL 1 CURR_DEN(0:4) CONSTANT SYMDEF ALIGNED,
     2416     2416    1         2 CODE CHAR(5) INIT('000','001','100','110','111'),
     2417     2417    1         2 COUNT UBIN BYTE UNAL INIT(22,22,21,21,21),
     2418     2418    1         2 TEXT CHAR(35) UNAL INIT('CURR DEN 000: 1600 BPI',
     2419     2419    1                                  'CURR DEN 001: 6250 BPI',
     2420     2420    1                                  'CURR DEN 100: 800 BPI',
     2421     2421    1                                  'CURR DEN 110: 200 BPI',
     2422     2422    1                                  'CURR DEN 111: 556 BPI');
     2423     2423        /**/
     2424     2424        /* RECORDING CAPABILITY */
     2425     2425        /**/
     2426     2426    1   DCL 1 RCRD_CAPA(0:5) CONSTANT SYMDEF ALIGNED,
     2427     2427    1         2 CODE CHAR(5) INIT('0000','0001','0100','1000','1010','1011'),
     2428     2428    1         2 COUNT UBIN BYTE UNAL INIT(26,34,33,30,26,31),
     2429     2429    1         2 TEXT CHAR(35) UNAL INIT('RECRD CAPAB 0000: 1600 BPI',
     2430     2430    1                                  'RECRD CAPAB 0001: 1600/800/556/200',
     2431     2431    1                                  'RECRD CAPAB 0100: 800/556/200 BPI',
     2432     2432    1                                  'RECRD CAPAB 1000: 1600/800 BPI',
     2433     2433    1                                  'RECRD CAPAB 1010: 6250 BPI',
     2434     2434    1                                  'RECRD CAPAB 1011: 6250/1600 BPI');
     2435     2435        /**/
     2436     2436        /* DEVICE SPEED */
     2437     2437        /**/
     2438     2438    1   DCL 1 DEV_SPD(0:4) CONSTANT SYMDEF ALIGNED,
     2439     2439    1         2 CODE CHAR(5) INIT('00001','00101','01001','01101','01111'),
     2440     2440    1         2 COUNT UBIN BYTE UNAL INIT(26,25,23,24,24),
     2441     2441    1         2 TEXT CHAR(35) UNAL INIT('DEV SPEED 00001: 18.75 IPS',
     2442     2442    1                                  'DEV SPEED 00101: 37.5 IPS',
PL6.E3A0      #001=TH_XSTATUS_D File=TH_XSTATUS_D.:E05TSI                        WED 07/30/97 06:19 Page:67
     2443     2443    1                                  'DEV SPEED 01001: 75 IPS',
     2444     2444    1                                  'DEV SPEED 01101: 125 IPS',
     2445     2445    1                                  'DEV SPEED 01111: 200 IPS');
     2446     2446        /**/
     2447     2447        /* PHYSICAL DEVICE ADDRESS */
     2448     2448        /**/
     2449     2449    1   DCL 1 DEV_ADDR(0:6) CONSTANT SYMDEF ALIGNED,
     2450     2450    1         2 CODE CHAR(5) INIT('00001','00100','10000','01111','10111','11011','11110'),
     2451     2451    1         2 COUNT UBIN BYTE UNAL INIT(21,21,35,22,21,21,21),
     2452     2452    1         2 TEXT CHAR(35) UNAL INIT('PHY DEV ADDR 00001: 1',
     2453     2453    1                                  'PHY DEV ADDR 00100: 4',
     2454     2454    1                                  'PHY DEV ADDR 10000: 16(610);15(500)',
     2455     2455    1                                  'PHY DEV ADDR 01111: 16',
     2456     2456    1                                  'PHY DEV ADDR 10111: 8',
     2457     2457    1                                  'PHY DEV ADDR 11011: 4',
     2458     2458    1                                  'PHY DEV ADDR 11110: 1');
     2459     2459        /**/
     2460     2460        /* LOAD CYCLE BIT */
     2461     2461        /**/
     2462     2462    1   DCL 1 LD_CYC(0:5) CONSTANT SYMDEF ALIGNED,
     2463     2463    1         2 CODE CHAR(5) INIT('0001','0010','0011','0100','0101','0110'),
     2464     2464    1         2 COUNT UBIN BYTE UNAL INIT(27,30,26,31,31,26),
     2465     2465    1         2 TEXT CHAR(35) UNAL INIT('LD CYC 0001: START LOAD SEQ',
     2466     2466    1                                  'LD CYC 0010: TAPE ON MACH REEL',
     2467     2467    1                                  'LD CYC 0011: LOOP CHBR VAC',
     2468     2468    1                                  'LD CYC 0100: REQ STAT AIR PRESS',
     2469     2469    1                                  'LD CYC 0101: MAIN VAC SENSE SET',
     2470     2470    1                                  'LD CYC 0110: DEV CYCLED UP');
     2471     2471        /*  STATIC DATA FOR INTERPRETING IDCW'S DEVICE COMMAND CODES    */
     2472     2472        /**/
     2473     2473    1   DCL 1 DEVICE_CMND(0:MAXMODELS) CONSTANT SYMDEF ALIGNED,
     2474     2474    1         2 DEV CHAR(8) INIT('MSU0451',
     2475     2475    1                            'MSU0501',
     2476     2476    1                            'MSU0509',
     2477     2477    1                            'MSU3380',
     2478     2478    1                            'MSU3381',
     2479     2479    1                            'MSU3382',
PL6.E3A0      #001=TH_XSTATUS_D File=TH_XSTATUS_D.:E05TSI                        WED 07/30/97 06:19 Page:68
     2480     2480    1                            'MSU3383',
     2481     2481    1                            'MSU3390',
     2482     2482    1                            'MSU3391',
     2483     2483    1                            'MSU3392',
     2484     2484    1                            'MSU3393',
     2485     2485    1                            'MSU8082',
     2486     2486    1                            'MSU8092',
     2487     2487    1                            'MTU0610',
     2488     2488    1                            'MTU0630',
     2489     2489    1                            'MTU8200',
     2490     2490    1                            'CRU0501',
     2491     2491    1                            'CRU1050',
     2492     2492    1                            'PCU0120',
     2493     2493    1                            'PCU0121',
     2494     2494    1                            'PRU0901',
     2495     2495    1                            'PRU0903',
     2496     2496    1                            'PRU0908',
     2497     2497    1                            'PRU1201',
     2498     2498    1                            'PRU1203',
     2499     2499    1                            'PRU1208',
     2500     2500    1                            'PRU1200',
     2501     2501    1                            'PRU1600',
     2502     2502    1                            ' '*0),
     2503     2503    1         2 SUB$ PTR INIT(ADDR(MSU_DSK),
     2504     2504    1                         ADDR(MSU_DSK),
     2505     2505    1                         ADDR(MSU_DSK),
     2506     2506    1                         ADDR(MSU_DSK),
     2507     2507    1                         ADDR(MSU_DSK),
     2508     2508    1                         ADDR(MSU_DSK),
     2509     2509    1                         ADDR(MSU_DSK),
     2510     2510    1                         ADDR(MSU_DSK),
     2511     2511    1                         ADDR(MSU_DSK),
     2512     2512    1                         ADDR(MSU_DSK),
     2513     2513    1                         ADDR(MSU_DSK),
     2514     2514    1                         ADDR(MSU_DSK),
     2515     2515    1                         ADDR(MSU_DSK),
     2516     2516    1                         ADDR(MTU_TAPE),
PL6.E3A0      #001=TH_XSTATUS_D File=TH_XSTATUS_D.:E05TSI                        WED 07/30/97 06:19 Page:69
     2517     2517    1                         ADDR(MTU_TAPE),
     2518     2518    1                         ADDR(MTU_TAPE),
     2519     2519    1                         ADDR(CRU_READR),
     2520     2520    1                         ADDR(CRU_READR),
     2521     2521    1                         ADDR(PCU_PUNCHR),
     2522     2522    1                         ADDR(PCU_PUNCHR),
     2523     2523    1                         ADDR(PRU_PRINTR),
     2524     2524    1                         ADDR(PRU_PRINTR),
     2525     2525    1                         ADDR(PRU_PRINTR),
     2526     2526    1                         ADDR(PRU_PRINTR),
     2527     2527    1                         ADDR(PRU_PRINTR),
     2528     2528    1                         ADDR(PRU_PRINTR),
     2529     2529    1                         ADDR(PRU_PRINTR),
     2530     2530    1                         ADDR(PRU_PRINTR),
     2531     2531    1                         ADDR(NIL)*0),
     2532     2532    1         2 COUNT UBIN BYTE UNAL INIT(13,13,13,13,13,13,13,13,13,13,13,13,13,
     2533     2533    1                                     23,23,23,2,2,3,3,6,6,6,6,6,6,6,6,0*0);
     2534     2534        /**/
     2535     2535        /*  FOR DISC - MSU0451,MSU0501,AND MSU0509                */
     2536     2536        /**/
     2537     2537    1   DCL 1 MSU_DSK(0:13) CONSTANT SYMDEF ALIGNED,
     2538     2538    1         2 CODE BIT(6) UNAL INIT('00'O,'25'O,'31'O,'23'O,'32'O,'33'O,
     2539     2539    1                                 '72'O,'42'O,'40'O,'22'O,'34'O,'36'O,
     2540     2540    1                                 '30'O,'35'O),
     2541     2541    1         2 COUNT UBIN BYTE UNAL INIT(8,4,5,4,5,5,8,8,8,8,8,8,8,8),
     2542     2542    1         2 TEXT CHAR(8) UNAL INIT('NON-DATA','READ','WRITE','READ','WRITE',
     2543     2543    1                                  'WRITE','NON-DATA','NON-DATA','NON-DATA',
     2544     2544    1                                  'NON-DATA','NON-DATA','NON-DATA','NON-DATA',
     2545     2545    1                                  'NON-DATA');
     2546     2546        /**/
     2547     2547        /*  FOR TAPE - MTU0610, AND MTU0630                */
     2548     2548        /**/
     2549     2549    1   DCL 1 MTU_TAPE(0:23) CONSTANT SYMDEF ALIGNED,
     2550     2550    1         2 CODE BIT(6) UNAL INIT('00'O,'05'O,'15'O,'03'O,'13'O,'04'O,
     2551     2551    1                                 '14'O,'70'O,'72'O,'55'O,'44'O,'46'O,
     2552     2552    1                                 '45'O,'47'O,'63'O,'62'O,'40'O,'61'O,
     2553     2553    1                                 '60'O,'65'O,'41'O,'75'O,'50'O,'54'O),
PL6.E3A0      #001=TH_XSTATUS_D File=TH_XSTATUS_D.:E05TSI                        WED 07/30/97 06:19 Page:70
     2554     2554    1         2 COUNT UBIN BYTE UNAL INIT(8,4,5,4,5,4,5,8,8,5,8,8,8,8,8,8,8,
     2555     2555    1                                     8,8,8,8,8,8,8),
     2556     2556    1         2 TEXT CHAR(8) UNAL INIT('NON-DATA','READ','WRITE','READ','WRITE',
     2557     2557    1                                  'READ','WRITE','NON-DATA','NON-DATA',
     2558     2558    1                                  'WRITE','NON-DATA','NON-DATA','NON-DATA',
     2559     2559    1                                  'NON-DATA','NON-DATA','NON-DATA','NON-DATA',
     2560     2560    1                                  'NON-DATA','NON-DATA','NON-DATA','NON-DATA',
     2561     2561    1                                  'NON-DATA','NON-DATA','NON-DATA');
     2562     2562        /**/
     2563     2563        /*  FOR CARD READER - CRU1050        */
     2564     2564        /**/
     2565     2565    1   DCL 1 CRU_READR(0:2) CONSTANT SYMDEF ALIGNED,
     2566     2566    1         2 CODE BIT(6) UNAL INIT('00'O, '10'O, '40'O),
     2567     2567    1         2 COUNT UBIN BYTE UNAL INIT(8,4,8),
     2568     2568    1         2 TEXT CHAR(8) UNAL INIT('NON-DATA','READ','NON-DATA');
     2569     2569        /**/
     2570     2570        /*  FOR CARD PUNCHER - PCU0120 AND PCU0121   */
     2571     2571        /**/
     2572     2572    1   DCL 1 PCU_PUNCHR(0:3) CONSTANT SYMDEF ALIGNED,
     2573     2573    1         2 CODE BIT(6) UNAL INIT('00'O, '17'O, '16'O, '40'O),
     2574     2574    1         2 COUNT UBIN BYTE UNAL INIT(8,5,5,8),
     2575     2575    1         2 TEXT CHAR(8) UNAL INIT('NON-DATA','WRITE','WRITE','NON-DATA');
     2576     2576        /**/
     2577     2577        /*   FOR PRINTER - PRU1200 AND PRU1600   */
     2578     2578        /**/
     2579     2579    1   DCL 1 PRU_PRINTR(0:6) CONSTANT SYMDEF ALIGNED,
     2580     2580    1         2 CODE BIT(6) UNAL INIT('00'O, '64'O, '60'O, '40'O,
     2581     2581    1                                 '01'O, '05'O, '03'O),
     2582     2582    1         2 COUNT UBIN BYTE UNAL INIT(8,5,5,8,8,8,8),
     2583     2583    1         2 TEXT CHAR(8) UNAL INIT('NON-DATA','WRITE','WRITE','NON-DATA',
     2584     2584    1                                  'NON-DATA','NON-DATA','NON-DATA');
     2585     2585        /**/
     2586     2586        /* CODES FOR MTU0400 AND MTU0500 FOR DETAIL IOERR REPORTS */
     2587     2587        /**/
     2588     2588    1   DCL 1 TBL_FOUR_FIVE(0:47) CONSTANT SYMDEF ALIGNED,
     2589     2589    1         2 CODE UBIN BYTE UNAL INIT(0,1,2,3,7,15,48,49,50,51,52,53,54,
     2590     2590    1                                    55,56,57,58,59,60,61,62,63,64,65,
PL6.E3A0      #001=TH_XSTATUS_D File=TH_XSTATUS_D.:E05TSI                        WED 07/30/97 06:19 Page:71
     2591     2591    1                                    66,67,68,69,70,71,72,73,74,75,76,
     2592     2592    1                                    77,78,79,80,81,84,85,86,87,122,
     2593     2593    1                                    131,135,146);
     2594     2594        /**/
     2595     2595        /* CODES FOR MTU8200 FOR DETAIL IOERR REPORTS TO INTERPRET ONLY */
     2596     2596        /**/
     2597     2597    1   DCL 1 TBL_EIGHTY_TWO(0:26) CONSTANT SYMDEF ALIGNED,
     2598     2598    1         2 CODE UBIN BYTE UNAL INIT(8,9,10,12,14,15,24,25,26,27,28,
     2599     2599    1                                    30,31,32,33,34,35,37,38,41,42,
     2600     2600    1                                    43,45,46,49,50,176);
     2601     2601        /**/
     2602     2602        /*  CODES FOR MTU610 AND MTU630 TO TEST IN IOERR DETAIL REPORTS */
     2603     2603        /**/
     2604     2604    1   DCL 1 TBL_SIX(0:9) CONSTANT SYMDEF ALIGNED,
     2605     2605    1         2 CODE UBIN BYTE UNAL INIT(0,1,2,3,7,15,48,49,50,51);
     2606     2606        /**/
     2607     2607        /*  CODES FOR MTU610 TO TEST IN IOERR DETAIL REPORTS */
     2608     2608        /**/
     2609     2609    1   DCL 1 TBL_SIX_TEN(0:9) CONSTANT SYMDEF ALIGNED,
     2610     2610    1         2 CODE UBIN BYTE UNAL INIT(56,57,58,59,60,61,62,63,102,117);
     2611     2611        /**/
     2612     2612        /*  CODES FOR MTU630 TO TEST IN IOERR DETAIL ERPORTS */
     2613     2613        /**/
     2614     2614    1   DCL 1 TBL_SIX_THIRTY(0:7) CONSTANT SYMDEF ALIGNED,
     2615     2615    1         2 CODE UBIN BYTE UNAL INIT(40,41,42,56,57,58,63,79);
     2616     2616        /**/
     2617     2617        /* LIST OF FORMAT TABLES FOR DISCS MSU3380/MSU3381/MSU3382/MSU3383 */
     2618     2618        /* BYTE 7, BITS 0-3 TELLS WHICH FORMAT TABLE;                    */
     2619     2619        /* BYTE 7, BITS 4-7 TELLS WHICH MESSAGE                          */
     2620     2620        /**/
     2621     2621    1   DCL 1 FORMAT_TBLS(0:8) CONSTANT SYMDEF ALIGNED,
     2622     2622    1         2 SUB$ PTR INIT(ADDR(FORM0_B1_B3),
     2623     2623    1                         ADDR(FORM1_B7_B4),   /* format1 if byte7,bit4 set*/
     2624     2624    1                         ADDR(FORM2_B7_B4),
     2625     2625    1                         ADDR(FORM3_B7_B4),
     2626     2626    1                         ADDR(FORM4_B7_B4),
     2627     2627    1                         ADDR(FORM5_B7_B4),
PL6.E3A0      #001=TH_XSTATUS_D File=TH_XSTATUS_D.:E05TSI                        WED 07/30/97 06:19 Page:72
     2628     2628    1                         ADDR(FORM6_B7_B4),
     2629     2629    1                         ADDR(FORM7_B7_B4),
     2630     2630    1                         ADDR(FORM8_B7_B4)),
     2631     2631    1         2 COUNT UBIN BYTE UNAL INIT(2,13,3,2,15,7,7,13,6);
     2632     2632        /**/
     2633     2633        /* FORMAT 0 if byte 1, bit 3 is set in the extended status bits   */
     2634     2634        /* of MSU3380/MSU3381/MSU3382/MSU3383 \MSU3390/3391/3392/3393 discs */
     2635     2635        /**/
     2636     2636    1   DCL 1 FORM0_B1_B3(0:2) CONSTANT SYMDEF ALIGNED,
     2637     2637    1         2 CODE UBIN(4) UNAL INIT(0,1,2),
     2638     2638    1         2 COUNT UBIN BYTE UNAL INIT(6,24,26),
     2639     2639    1         2 TEXT CHAR(35) UNAL INIT('NO MSG',
     2640     2640    1                                   'SENSE DAT LOGGED FOR DEV',
     2641     2641    1                                   'SENSE DAT LOGGED FOR CTRLR');
     2642     2642        /**/
     2643     2643        /* FORMAT 1 if byte7,bit4 of ext. status bits is set             */
     2644     2644        /**/
     2645     2645    1   DCL 1 FORM1_B7_B4(0:13) CONSTANT SYMDEF ALIGNED,
     2646     2646    1         2 CODE UBIN(4) UNAL INIT(0,1,3,4,5,6,7,8,9,10,12,13,14,15),
     2647     2647    1         2 COUNT UBIN BYTE UNAL INIT(6,10,13,22,25,13,20,16,13,24,22,15,19,19),
     2648     2648    1         2 TEXT CHAR(35) UNAL INIT('NO MSG',
     2649     2649    1                                   'DEV STAT 1',
     2650     2650    1                                   'INDEX MISSING',
     2651     2651    1                                   'UNRESETTABLE INTERRUPT',
     2652     2652    1                                   'DEV NOT RESPOND TO SELECT',
     2653     2653    1                                   'DRIVE CHECK 2',
     2654     2654    1                                   'HEAD ADDR MISCOMPARE',
     2655     2655    1                                   'INVAL DEV STAT 1',
     2656     2656    1                                   'DEV NOT READY',
     2657     2657    1                                   'TRK PHY. ADDR MISCOMPARE',
     2658     2658    1                                   'DRIVE MOTOR SWITCH OFF',
     2659     2659    1                                   'SEEK INCOMPLETE',
     2660     2660    1                                   'CYL ADDR MISCOMPARE',
     2661     2661    1                                   'UNRESETTABLE OFFSET');
     2662     2662        /**/
     2663     2663        /* FORMAT 2 if byte 7,bit 4 is set for discs MSU3380/MSU3381/MSU3382/MSU3383 */
     2664     2664        /**/
PL6.E3A0      #001=TH_XSTATUS_D File=TH_XSTATUS_D.:E05TSI                        WED 07/30/97 06:19 Page:73
     2665     2665    1   DCL 1 FORM2_B7_B4(0:3) CONSTANT SYMDEF ALIGNED,
     2666     2666    1         2 CODE UBIN(4) UNAL INIT(8,9,10,15),
     2667     2667    1         2 COUNT UBIN BYTE UNAL INIT(6,15,23,17),
     2668     2668    1         2 TEXT CHAR(35) UNAL INIT('NO MSG',
     2669     2669    1                                   'SELECTIVE RESET',
     2670     2670    1                                   '1ST SYNC IN LINE FAILED',
     2671     2671    1                                   'MICROCODE DET CHK');
     2672     2672        /**/
     2673     2673        /* FORMAT 3 if byte7,bit4 is set in ext stats for MSU3380/MSU3381/MSU3382/MSU3383 */
     2674     2674        /**/
     2675     2675    1   DCL 1 FORM3_B7_B4(0:2) CONSTANT SYMDEF ALIGNED,
     2676     2676    1         2 CODE UBIN(4) UNAL INIT(8,9,10),
     2677     2677    1         2 COUNT UBIN BYTE UNAL INIT(19,21,15),
     2678     2678    1         2 TEXT CHAR(35) UNAL INIT('CLOCK STOPPED CHK 1',
     2679     2679    1                                   'CHAN CHK 1/SD TIMEOUT',
     2680     2680    1                                   'TRACE TBL IN SD');
     2681     2681        /**/
     2682     2682        /* FORMAT 4 if byte 7,bit 4 is set in extended status bits of   */
     2683     2683        /* MSU3380/MSU3381/MSU3382/MSU3383 discs                            */
     2684     2684        /**/
     2685     2685    1   DCL 1 FORM4_B7_B4(0:15) CONSTANT SYMDEF ALIGNED,
     2686     2686    1         2 CODE UBIN(4) UNAL INIT(0,1,2,3,4,5,6,7,8,9,10,11,12,13,14,15),
     2687     2687    1         2 COUNT UBIN BYTE UNAL INIT(13,9,7,8,23,19,17,18,28,24,22,23,21,22,20,20),
     2688     2688    1         2 TEXT CHAR(35) UNAL INIT('HOME ADDR ERR',
     2689     2689    1                                   'COUNT ERR',
     2690     2690    1                                   'KEY ERR',
     2691     2691    1                                   'DATA ERR',
     2692     2692    1                                   'DATA SYNCH ON HOME ADDR',
     2693     2693    1                                   'DATA SYNCH ON COUNT',
     2694     2694    1                                   'DATA SYNCH ON KEY',
     2695     2695    1                                   'DATA SYNCH ON DATA',
     2696     2696    1                                   'HOME ADDR ERR(ACCESS OFFSET)',
     2697     2697    1                                   'COUNT ERR(ACCESS OFFSET)',
     2698     2698    1                                   'KEY ERR(ACCESS OFFSET)',
     2699     2699    1                                   'DATA ERR(ACCESS OFFSET)',
     2700     2700    1                                   'DAT SYN HOME(ACC OFF)',
     2701     2701    1                                   'DAT SYN COUNT(ACC OFF)',
PL6.E3A0      #001=TH_XSTATUS_D File=TH_XSTATUS_D.:E05TSI                        WED 07/30/97 06:19 Page:74
     2702     2702    1                                   'DAT SYN KEY(ACC OFF)',
     2703     2703    1                                   'DAT SYN DAT(ACC OFF)');
     2704     2704        /**/
     2705     2705        /* FORMAT 5 if byte 7,bit 4 is set in extended status bits of    */
     2706     2706        /* MSU3380/MSU3381/MSU3382/MSU3383 discs                            */
     2707     2707        /**/
     2708     2708    1   DCL 1 FORM5_B7_B4(0:7) CONSTANT SYMDEF ALIGNED,
     2709     2709    1         2 CODE UBIN(4) UNAL INIT(0,1,2,3,8,9,10,11),
     2710     2710    1         2 COUNT UBIN BYTE UNAL INIT(17,18,16,17,19,22,20,17),
     2711     2711    1         2 TEXT CHAR(35) UNAL INIT('HOME ADDR DAT CHK',
     2712     2712    1                                   'COUNT ADDR DAT CHK',
     2713     2713    1                                   'KEY ADDR DAT CHK',
     2714     2714    1                                   'DATA ADDR DAT CHK',
     2715     2715    1                                   'HA DAT CHK W/OFFSET',
     2716     2716    1                                   'COUNT DAT CHK W/OFFSET',
     2717     2717    1                                   'KEY DAT CHK W/OFFSET',
     2718     2718    1                                   'DATA CHK W/OFFSET');
     2719     2719        /**/
     2720     2720        /* FORMAT 6 if byte 7, bit 4 is set in ext status bits of      */
     2721     2721        /* MSU3380/MSU3381/MSU3382/MSU3383                                  */
     2722     2722        /**/
     2723     2723    1   DCL 1 FORM6_B7_B4(0:7) CONSTANT SYMDEF ALIGNED,
     2724     2724    1         2 CODE UBIN(4) UNAL INIT(8,9,10,11,12,13,14,15),
     2725     2725    1         2 COUNT UBIN BYTE UNAL INIT(15,15,15,15,15,15,15,15),
     2726     2726    1         2 TEXT CHAR(35) UNAL INIT('CHAN A OVERRUNS',
     2727     2727    1                                   'CHAN B OVERRUNS',
     2728     2728    1                                   'CHAN C OVERRUNS',
     2729     2729    1                                   'CHAN D OVERRUNS',
     2730     2730    1                                   'CHAN E OVERRUNS',
     2731     2731    1                                   'CHAN F OVERRUNS',
     2732     2732    1                                   'CHAN G OVERRUNS',
     2733     2733    1                                   'CHAN H OVERRUNS');
     2734     2734        /**/
     2735     2735        /* FORMAT 7 if byte 7, bit 4 of ext status bits is set        */
     2736     2736        /* for MSU3380/MSU3381/MSU3382/MSU3383 discs                        */
     2737     2737        /**/
     2738     2738    1   DCL 1 FORM7_B7_B4(0:13) CONSTANT SYMDEF ALIGNED,
PL6.E3A0      #001=TH_XSTATUS_D File=TH_XSTATUS_D.:E05TSI                        WED 07/30/97 06:19 Page:75
     2739     2739    1         2 CODE UBIN(4) UNAL INIT(0,1,2,3,4,5,6,7,8,9,10,11,12,13),
     2740     2740    1         2 COUNT UBIN BYTE UNAL INIT(17,21,28,13,13,24,23,25,9,26,18,13,15,29),
     2741     2741    1         2 TEXT CHAR(35) UNAL INIT('RCC INIT BY A CCA',
     2742     2742    1                                   'RCC1 SEQ UNSUCCESSFUL',
     2743     2743    1                                   'RCC1 & RCC2 SEQ UNSUCCESSFUL',
     2744     2744    1                                   'INVAL DDC TAG',
     2745     2745    1                                   'EXTRA RRC REQ',
     2746     2746    1                                   'INVAL DDC SELECT/TIMEOUT',
     2747     2747    1                                   'MISSING END OP COMPLETE',
     2748     2748    1                                   'MISSING END OP INCOMPLETE',
     2749     2749    1                                   'INVAL TAG',
     2750     2750    1                                   'INVAL TAG FOR EXT CMND SEQ',
     2751     2751    1                                   'TIMED OUT/DESELECT',
     2752     2752    1                                   'NO CTRLR RESP',
     2753     2753    1                                   'CTRLR NOT AVAIL',
     2754     2754    1                                   'CTRLR NOT AVAIL ON DISCONNECT');
     2755     2755        /**/
     2756     2756        /* FORMAT 8 if byte 7, bit 4 is set on ext status bits for   */
     2757     2757        /* MSU3380/MSU3381/MSU3382/MSU3383 discs                            */
     2758     2758        /**/
     2759     2759    1   DCL 1 FORM8_B7_B4(0:6) CONSTANT SYMDEF ALIGNED,
     2760     2760    1         2 CODE UBIN(4) UNAL INIT(0,1,3,4,5,6,7),
     2761     2761    1         2 COUNT UBIN BYTE UNAL INIT(6,11,18,22,21,29,19),
     2762     2762    1         2 TEXT CHAR(35) UNAL INIT('NO MSG',
     2763     2763    1                                   'ECC HW FAIL',
     2764     2764    1                                   'UNEXPECTED EO RESP',
     2765     2765    1                                   'EO W/TRANSF COUNT ~= 0',
     2766     2766    1                                   'EO W/TRANSF COUNT = 0',
     2767     2767    1                                   'CTRLR STOPPED DYN PATH SELECT',
     2768     2768    1                                   'DPS ARRAY CANT INIT');
     2769     2769        /**/
     2770     2770        /* FORMAT 0 if byte 1, bit 3 is NOT set in the ext status bits   */
     2771     2771        /* for MSU3380/MSU3381/MSU3382/MSU3383 discs                        */
     2772     2772        /**/
     2773     2773    1   DCL 1 FORM0_NOTB1_B3(0:9) CONSTANT SYMDEF ALIGNED,
     2774     2774    1         2 CODE UBIN(4) UNAL INIT(0,1,2,3,4,5,6,7,11,12),
     2775     2775    1         2 COUNT UBIN BYTE UNAL INIT(6,10,22,18,14,29,10,26,19,21),
PL6.E3A0      #001=TH_XSTATUS_D File=TH_XSTATUS_D.:E05TSI                        WED 07/30/97 06:19 Page:76
     2776     2776    1         2 TEXT CHAR(35) UNAL INIT('NO MSG',
     2777     2777    1                                   'INVAL CMND',
     2778     2778    1                                   'INVAL CMND SEQ TO 3880',
     2779     2779    1                                   'CCW < REQ FOR CMND',
     2780     2780    1                                   'INVAL DATA ARG',
     2781     2781    1                                   'DIAG ~ PERMITTED BY FILE MASK',
     2782     2782    1                                   'RETRY STAT',
     2783     2783    1                                   'CCW RETURN ~= RETRY SIGNAL',
     2784     2784    1                                   'DEFECT/ALT TRACK PT',
     2785     2785    1                                   'INSTALL CONFIG. CHECK');
     2786     2786        /**/
     2787     2787        /* FAULT SYMPTOM CODES table interprets byte 22 of extended status */
     2788     2788        /* bits to MTU8200s                                                */
     2789     2789        /**/
     2790     2790    1   DCL 1 FAULT_SYMP_TBL(0:70) CONSTANT SYMDEF ALIGNED,
     2791     2791    1         2 CODE UBIN BYTE UNAL INIT(1,4,5,8,9,18,20,21,22,23,25,32,
     2792     2792    1                                    33,34,35,36,37,38,39,40,48,49,50,53,54,
     2793     2793    1                                    55,56,57,64,65,66,68,69,70,71,72,73,80,81,
     2794     2794    1                                    82,83,84,85,96,97,98,99,100,102,103,105,112,
     2795     2795    1                                    113,114,115,116,118,119,120,121,128,129,130,133,
     2796     2796    1                                    134,135,136,137,156,157,158),
     2797     2797    1         2 COUNT UBIN BYTE UNAL INIT(9,14,13,21,10,10,14,13,12,10,13,16,12,22,
     2798     2798    1                                     13,12,16,9,15,11,10,7,12,10,23,13,14,15,
     2799     2799    1                                     13,15,14,14,14,11,11,14,13,12,12,13,14,14,8,11,
     2800     2800    1                                     9,10,14,15,13,14,12,9,8,14,24,15,9,16,9,14,
     2801     2801    1                                     15,8,14,9,11,11,14,11,11,12,10),
     2802     2802    1         2 TEXT CHAR(35) UNAL INIT('NOT START',
     2803     2803    1                                   'REWRITE RECORD',
     2804     2804    1                                   'NO WRITE STAT',
     2805     2805    1                                   'NO WRITE & ERASE STAT',
     2806     2806    1                                   'BACKING UP',
     2807     2807    1                                   'ERASE STAT',
     2808     2808    1                                   'NOT WRITE STAT',
     2809     2809    1                                   'BACKWARD STAT',
     2810     2810    1                                   'FORWARD STAT',
     2811     2811    1                                   '50/150 IPS',
     2812     2812    1                                   'REWIND/UNLOAD',
PL6.E3A0      #001=TH_XSTATUS_D File=TH_XSTATUS_D.:E05TSI                        WED 07/30/97 06:19 Page:77
     2813     2813    1                                   'DSB: NO RESPONSE',
     2814     2814    1                                   'CANT SET DEN',
     2815     2815    1                                   'CTRL BYTE: NO RESPONSE',
     2816     2816    1                                   'VELOC TOO LOW',
     2817     2817    1                                   'VELOC TOO HI',
     2818     2818    1                                   'NO RESPONSE MODE',
     2819     2819    1                                   'ARA BURST',
     2820     2820    1                                   'GAP AFTER LD PT',
     2821     2821    1                                   'DATA IN ERG',
     2822     2822    1                                   'LP PT MARK',
     2823     2823    1                                   'P TRACK',
     2824     2824    1                                   'GAP AFTER ID',
     2825     2825    1                                   'BLANK TAPE',
     2826     2826    1                                   'NO REC LTH AFTER .18 IN',
     2827     2827    1                                   'IBG IN .18 IN',
     2828     2828    1                                   'LONG POSTAMBLE',
     2829     2829    1                                   'SHORT POSTAMBLE',
     2830     2830    1                                   'CANT WRITE TM',
     2831     2831    1                                   'NO WRITE STATUS',
     2832     2832    1                                   'NOISE AFTER TM',
     2833     2833    1                                   'IBG BEFORE EOD',
     2834     2834    1                                   'BAD TRACK 1 ID',
     2835     2835    1                                   'DATA IN ERG',
     2836     2836    1                                   'CRASHED BOT',
     2837     2837    1                                   'LONG POSTAMBLE',
     2838     2838    1                                   'WRITE INHIBIT',
     2839     2839    1                                   'INVALID STAT',
     2840     2840    1                                   'ILLEGAL CMND',
     2841     2841    1                                   'READ STAT ERR',
     2842     2842    1                                   'WRITE STAT ERR',
     2843     2843    1                                   'READY STAT ERR',
     2844     2844    1                                   'CHAN ERR',
     2845     2845    1                                   'BUSY/REWIND',
     2846     2846    1                                   'NOT READY',
     2847     2847    1                                   'DSE AT EOT',
     2848     2848    1                                   'BACKWARD @ BOT',
     2849     2849    1                                   'WRITE PROTECTED',
PL6.E3A0      #001=TH_XSTATUS_D File=TH_XSTATUS_D.:E05TSI                        WED 07/30/97 06:19 Page:78
     2850     2850    1                                   'READ DATA ERR',
     2851     2851    1                                   'WRITE DATA ERR',
     2852     2852    1                                   'EOT DETECTED',
     2853     2853    1                                   'NOT READY',
     2854     2854    1                                   'DSE FAIL',
     2855     2855    1                                   'UNIT EXCEPTION',
     2856     2856    1                                   'NMI RCVD W/NO ERR DECODE',
     2857     2857    1                                   'WRITING NRZI ID',
     2858     2858    1                                   'NRZI TAPE',
     2859     2859    1                                   'NOT NRZI CAPABLE',
     2860     2860    1                                   'NO ID DET',
     2861     2861    1                                   'WS MEM PAR ERR',
     2862     2862    1                                   'ICA MEM PAR ERR',
     2863     2863    1                                   'ILL ADDR',
     2864     2864    1                                   'ILL BYTE COUNT',
     2865     2865    1                                   'TU ONLINE',
     2866     2866    1                                   'NOT ENABLED',
     2867     2867    1                                   'SENSE ERROR',
     2868     2868    1                                   'NOT CONFIGURED',
     2869     2869    1                                   'INCOMP MPGM',
     2870     2870    1                                   'GCR TAPE LD',
     2871     2871    1                                   'NRZI TAPE LD',
     2872     2872    1                                   'PE TAPE LD');
     2873     2873    1   END TH_XSTATUS_D;

PL6.E3A0      #001=TH_XSTATUS_D File=TH_XSTATUS_D.:E05TSI                        WED 07/30/97 06:19 Page:79
--  Include file information  --

   B$JIT_C.:E05TOU  was found in the system file and is never referenced.
   CP_6_C.:E05TOU  was found in the system file and is never referenced.
      No diagnostics issued in procedure TH_XSTATUS_D.

   No code generated for procedure TH_XSTATUS_D .
   Procedure TH_XSTATUS_D requires 4 words of local(AUTO) storage.

    No errors detected in file TH_XSTATUS_D.:E05TSI    .

PL6.E3A0      #001=TH_XSTATUS_D File=TH_XSTATUS_D.:E05TSI                        WED 07/30/97 06:19 Page:80

 Object Unit name= TH_XSTATUS_D                               File name= TH_XSTATUS_D.:E05TOU
 UTS= JUL 30 '97 06:19:02.08 WED                              Compiler= PL-6/E31         Sev=      00
 SharedLib= :SHARED_SYSTEM                                    Alt SharedLib=


    ****  Control sections  ****

 Sect   Type Bound  Init  Size OctSiz  Section name(segment info)
    0  RoData even  UTS  19843  46603  TH_XSTATUS_D
    1   Proc  even  none     0      0  TH_XSTATUS_D

    ****  Entry defs  ****

                              Check   Calling
                             calling  sequence
  Sect OctLoc Primary Altret sequence   type   Parms  Name
     1      0   yes            yes     ~proc       0  TH_XSTATUS_D

  ****  Data defs  ****

 Sect OctLoc  Name                           Sect OctLoc  Name
    0      0  X_DEV_TYPE                         0    170  MSU_FOUR
    0    714  MSU_FIVE                           0   1534  MSU_THIRTY3
    0   2070  MSU_MDS                            0   3030  MDS_OP_CODE_TBL
    0   3706  MDS_PARAM_ID_TBL                   0   4051  MDS_PARAM_X2
    0   4056  OCT1_X2                            0   4216  OCT2_X2
    0   4356  OCT3_X2                            0   4516  OCT4_X2
    0   4656  OCT5_X2                            0   5016  MDS_PARAM_X4
    0   5024  OCT1_X4                            0   5164  OCT5_X4
    0   5324  OCT6_X4                            0   5464  MDS_PARAM_X5
    0   5471  OCT1_X5                            0   5631  OCT2_X5
    0   5771  OCT5_X5                            0   6131  MDS_PARAM_X8
    0   6132  OCT1_X8                            0   6272  MDS_PARAM_XA
    0   6300  OCT1_XA                            0   6440  OCT3_XA
    0   6600  OCT5_XA                            0   6740  MDS_PARAM_X7
    0   6747  OCT1_X7                            0   7107  OCT2_X7
    0   7247  OCT5_X7                            0   7407  OCT7_X7
PL6.E3A0      #001=TH_XSTATUS_D File=TH_XSTATUS_D.:E05TSI                        WED 07/30/97 06:19 Page:81
    0   7547  MDS_PARAM_X6                       0   7555  OCT1_X6
    0   7715  OCT2_X6                            0  10055  OCT3_X6
    0  10215  OCT4_X6                            0  10355  OCT5_X6
    0  10515  OCT6_X6                            0  10655  MDS_DRIVE_ENDING_STATUS
    0  10735  MDS_PARAM_X9                       0  10740  OCT1_X9
    0  11100  OCT2_X9                            0  11240  OCT3_X9
    0  11400  MDSI_FRUS                          0  11700  MDSII_FRUS
    0  12054  MDSI_FCODE                         0  12200  MDSII_FCODE
    0  12340  MDSII_STATUS                       0  13030  MDS_CMD_IDENT
    0  14144  MDS_ERROR_LOC                      0  14210  MDS_TIMEOUT_ERRS
    0  14270  MDS_RW_ERRS                        0  14360  MDS_MISC_ERRS
    0  14370  MDS_INFO_ERRS                      0  14456  MDS_PARAM_51
    0  14460  OCT1_51                            0  14620  OCT2_51
    0  14760  MTU_FOUR                           0  16122  MTU_FIVE
    0  21330  MTU_SIX1                           0  25022  MTU_SIX2
    0  30374  MTU_EIGHTY2                        0  32060  CR_CP
    0  33140  PR54E                              0  34530  PR71
    0  35646  PR54                               0  36012  PR54_BELT_TBL
    0  36042  PR71_BELT_TBL                      0  36072  CTRL_ERR_TBL
    0  37316  LED_TBL                            0  40030  REGISTER_TBL
    0  40302  NON_REG_TBL                        0  40460  FC
    0  40766  FLTREG_TYPE                        0  40774  L66_DPSE
    0  41436  ELS1                               0  41734  ILL_CODE
    0  42174  SP_CASES                           0  42213  CURR_DEN
    0  42302  RCRD_CAPA                          0  42404  DEV_SPD
    0  42473  DEV_ADDR                           0  42610  LD_CYC
    0  42712  DEVICE_CMND                        0  43102  MSU_DSK
    0  43154  MTU_TAPE                           0  43264  CRU_READR
    0  43275  PCU_PUNCHR                         0  43311  PRU_PRINTR
    0  43336  TBL_FOUR_FIVE                      0  43416  TBL_EIGHTY_TWO
    0  43451  TBL_SIX                            0  43463  TBL_SIX_TEN
    0  43475  TBL_SIX_THIRTY                     0  43505  FORMAT_TBLS
    0  43527  FORM0_B1_B3                        0  43565  FORM1_B7_B4
    0  44001  FORM2_B7_B4                        0  44051  FORM3_B7_B4
    0  44107  FORM4_B7_B4                        0  44347  FORM5_B7_B4
    0  44467  FORM6_B7_B4                        0  44607  FORM7_B7_B4
    0  45023  FORM8_B7_B4                        0  45131  FORM0_NOTB1_B3
PL6.E3A0      #001=TH_XSTATUS_D File=TH_XSTATUS_D.:E05TSI                        WED 07/30/97 06:19 Page:82
    0  45275  FAULT_SYMP_TBL

  ****  Segment refs  ****

  Flags:  r = read only, s = secondary
Flgs Name                             Flgs Name                             Flgs Name
     ISSID                                 NULLSID
PL6.E3A0      #001=TH_XSTATUS_D File=TH_XSTATUS_D.:E05TSI                        WED 07/30/97 06:19 Page:83

        1        1        /*T***********************************************************/
        2        2        /*T*                                                         */
        3        3        /*T* Copyright (c) Bull HN Information Systems Inc., 1997    */
        4        4        /*T*                                                         */
        5        5        /*T***********************************************************/
        6        6
        7        7        /*M* STATIC DATA FOR EXTENDED STATUS INTERPRETATION IN ELAN */
        8        8        TH_XSTATUS_D: PROC;
        9        9        /**/
       10       10        /**/
       11       11        /*  HEXIDECIMAL MASKS  */
       12       12        %EQU   HEX_0B = 11;
       13       13        %EQU   HEX_0F = 15;
       14       14        %EQU   HEX_32 = 50;
       15       15        %EQU   HEX_51 = 81;
       16       16        %EQU   HEX_80 = 128;
       17       17        %EQU   HEX_81 = 129;
       18       18        %EQU   HEX_82 = 130;
       19       19        %EQU   HEX_83 = 131;
       20       20        %EQU   HEX_84 = 132;
       21       21        %EQU   HEX_85 = 133;
       22       22        %EQU   HEX_86 = 134;
       23       23        %EQU   HEX_87 = 135;
       24       24        %EQU   HEX_88 = 136;
       25       25        %EQU   HEX_89 = 137;
       26       26        %EQU   HEX_8A = 138;
       27       27        %EQU   HEX_8B = 139;
       28       28        %EQU   HEX_8C = 140;
       29       29        %EQU   HEX_8D = 141;
       30       30        %EQU   HEX_8E = 142;
       31       31        %EQU   HEX_8F = 143;
       32       32        %EQU   HEX_90 = 144;
       33       33        %EQU   HEX_91 = 145;
       34       34        %EQU   HEX_92 = 146;
       35       35        %EQU   HEX_93 = 147;
       36       36        %EQU   HEX_94 = 148;
       37       37        %EQU   HEX_95 = 149;
PL6.E3A0      #001=TH_XSTATUS_D File=TH_XSTATUS_D.:E05TSI                        WED 07/30/97 06:19 Page:84
       38       38        %EQU   HEX_96 = 150;
       39       39        %EQU   HEX_98 = 152;
       40       40        %EQU   HEX_99 = 153;
       41       41        %EQU   HEX_9A = 154;
       42       42        %EQU   HEX_9B = 155;
       43       43        %EQU   HEX_9C = 156;
       44       44        %EQU   HEX_9D = 157;
       45       45        %EQU   HEX_9E = 158;
       46       46        %EQU   HEX_A0 = 160;
       47       47        %EQU   HEX_A1 = 161;
       48       48        %EQU   HEX_A2 = 162;
       49       49        %EQU   HEX_A3 = 163;
       50       50        %EQU   HEX_A4 = 164;
       51       51        %EQU   HEX_A5 = 165;
       52       52        %EQU   HEX_A6 = 166;
       53       53        %EQU   HEX_A7 = 167;
       54       54        %EQU   HEX_A8 = 168;
       55       55        %EQU   HEX_A9 = 169;
       56       56        %EQU   HEX_AA = 170;
       57       57        %EQU   HEX_AB = 171;
       58       58        %EQU   HEX_AC = 172;
       59       59        %EQU   HEX_AD = 173;
       60       60        %EQU   HEX_B0 = 176;
       61       61        %EQU   HEX_B1 = 177;
       62       62        %EQU   HEX_B2 = 178;
       63       63        %EQU   HEX_B3 = 179;
       64       64        %EQU   HEX_B4 = 180;
       65       65        %EQU   HEX_B5 = 181;
       66       66        %EQU   HEX_C0 = 192;
       67       67        %EQU   HEX_C1 = 193;
       68       68        %EQU   HEX_C2 = 194;
       69       69        %EQU   HEX_C6 = 198;
       70       70        %EQU   HEX_CB = 203;
       71       71        %EQU   HEX_CD = 205;
       72       72        %EQU   HEX_CF = 207;
       73       73        %EQU   HEX_D4 = 212;
       74       74        %EQU   HEX_D5 = 213;
PL6.E3A0      #001=TH_XSTATUS_D File=TH_XSTATUS_D.:E05TSI                        WED 07/30/97 06:19 Page:85
       75       75        %EQU   HEX_D6 = 214;
       76       76        %EQU   HEX_D7 = 215;
       77       77        %EQU   HEX_D8 = 216;
       78       78        %EQU   HEX_D9 = 217;
       79       79        %EQU   HEX_DA = 218;
       80       80        %EQU   HEX_E0 = 224;
       81       81        %EQU   HEX_E1 = 225;
       82       82        %EQU   HEX_E2 = 226;
       83       83        %EQU   HEX_EE = 238;
       84       84        %SUB MAXMODELS = 29;
       85       85    1   DCL 1 X_DEV_TYPE(0:MAXMODELS) CONSTANT SYMDEF ALIGNED,
       86       86    1         2 DEV CHAR(8) INIT('MSU0451',
       87       87    1                            'MSU0501',
       88       88    1                            'MSU0509',
       89       89    1                            'MSU3380',
       90       90    1                            'MSU3381',
       91       91    1                            'MSU3382',
       92       92    1                            'MSU3383',
       93       93    1                            'MSU3390',
       94       94    1                            'MSU3391',
       95       95    1                            'MSU3392',
       96       96    1                            'MSU3393',
       97       97    1                            'MSU8082',
       98       98    1                            'MSU8092',
       99       99    1                            'MTU0610',
      100      100    1                            'MTU0630',
      101      101    1                            'MTU8200',
      102      102    1                            'CRU0501',
      103      103    1                            'CRU1050',
      104      104    1                            'PCU0120',
      105      105    1                            'PCU0121',
      106      106    1                            'PRU0901',
      107      107    1                            'PRU0903',
      108      108    1                            'PRU0908',
      109      109    1                            'PRU1201',
      110      110    1                            'PRU1203',
      111      111    1                            'PRU1208',
PL6.E3A0      #001=TH_XSTATUS_D File=TH_XSTATUS_D.:E05TSI                        WED 07/30/97 06:19 Page:86
      112      112    1                            'PRU1200',
      113      113    1                            'PRU1600',
      114      114    1                            ' '*0),
      115      115    1         2 SUB$ PTR INIT(ADDR(MSU_FOUR),
      116      116    1                         ADDR(MSU_FIVE),
      117      117    1                         ADDR(MSU_FIVE),
      118      118    1                         ADDR(MSU_THIRTY3),
      119      119    1                         ADDR(MSU_THIRTY3),
      120      120    1                         ADDR(MSU_THIRTY3),
      121      121    1                         ADDR(MSU_THIRTY3),
      122      122    1                         ADDR(MSU_THIRTY3),
      123      123    1                         ADDR(MSU_THIRTY3),
      124      124    1                         ADDR(MSU_THIRTY3),
      125      125    1                         ADDR(MSU_THIRTY3),
      126      126    1                         ADDR(MSU_MDS),
      127      127    1                         ADDR(MSU_MDS),
      128      128    1                         ADDR(MTU_SIX1),
      129      129    1                         ADDR(MTU_SIX2),
      130      130    1                         ADDR(MTU_EIGHTY2),
      131      131    1                         ADDR(CR_CP),
      132      132    1                         ADDR(CR_CP),
      133      133    1                         ADDR(CR_CP),
      134      134    1                         ADDR(CR_CP),
      135      135    1                         ADDR(PR54),
      136      136    1                         ADDR(PR54),
      137      137    1                         ADDR(PR54),
      138      138    1                         ADDR(PR54),
      139      139    1                         ADDR(PR54),
      140      140    1                         ADDR(PR54),
      141      141    1                         ADDR(PR71),
      142      142    1                         ADDR(PR71),
      143      143    1                         ADDR(NIL)*0),
      144      144    1         2 COUNT UBIN BYTE UNAL INIT(33,39,39,21,21,21,21,21,21,21,21,47,47,
      145      145    1                                     184,176,81,55,55,55,55,9,9,9,9,9,9,58,58,0*0);
      146      146        /**/
      147      147        /* FOR DISC -  MSU0451 */
      148      148        /**/
PL6.E3A0      #001=TH_XSTATUS_D File=TH_XSTATUS_D.:E05TSI                        WED 07/30/97 06:19 Page:87
      149      149    1   DCL 1 MSU_FOUR(0:33) CONSTANT SYMDEF ALIGNED,
      150      150    1         2 CODE UBIN BYTE UNAL INIT(0,1,2,3,4,5,6,7,8,10,11,12,13,14,
      151      151    1                                    15,16,17,18,19,21,23,24,25,27,32,33,
      152      152    1                                    35,37,38,39,44,45,46,47),
      153      153    1         2 COUNT UBIN BYTE UNAL INIT(15,13,17,15,9,16,12,18,18,15,19,
      154      154    1                                     15,17,19,17,16,17,18,19,18,13,15,
      155      155    1                                     17,9,10,17,19,15,14,14,15,17,17,12),
      156      156    1         2 TEXT CHAR(35) UNAL INIT('DEVICE RESERVED',
      157      157    1                                   'DEVICE SEIZED',
      158      158    1                                   'DEVICE IN STANDBY',
      159      159    1                                   'POSITIONER BUSY',
      160      160    1                                   'DLI FAULT',
      161      161    1                                   'DEVICE PROTECTED',
      162      162    1                                   'DEVICE FAULT',
      163      163    1                                   'DEV. IN DIAG. MODE',
      164      164    1                                   'COMMAND PAR. ERROR',
      165      165    1                                   'INVALID COMMAND',
      166      166    1                                   'INVALID COMMAND SEQ',
      167      167    1                                   'STATE VIOLATION',
      168      168    1                                   'PROTECT VIOLATION',
      169      169    1                                   'TRANS. TIMING ERROR',
      170      170    1                                   'DATA PARITY ERROR',
      171      171    1                                   'LOSS OF WRT CURR',
      172      172    1                                   'WRT & NO WRT CURR',
      173      173    1                                   'LOSS OF AC WT CURR',
      174      174    1                                   'NO OR MULTI HD SELE',
      175      175    1                                   'SPINDLE SPEED LOSS',
      176      176    1                                   'DC POWER LOSS',
      177      177    1                                   'SEEK INCOMPLETE',
      178      178    1                                   'POSIT. OVERTRAVEL',
      179      179    1                                   'RPS ERROR',
      180      180    1                                   'FINE SERVO',
      181      181    1                                   'TESTER ADDR ERROR',
      182      182    1                                   'INTERLOCK CYCLE INC',
      183      183    1                                   'LOSS OF COOLING',
      184      184    1                                   'FORWARD FF SET',
      185      185    1                                   'REVERSE FF SET',
PL6.E3A0      #001=TH_XSTATUS_D File=TH_XSTATUS_D.:E05TSI                        WED 07/30/97 06:19 Page:88
      186      186    1                                   'HEADS RETRACTED',
      187      187    1                                   'POSITIONER OFFSET',
      188      188    1                                   'READ CLOCK OFFSET',
      189      189    1                                   'WRITE & READ');
      190      190        /**/
      191      191        /* FOR DISC - MSU0501 AND MSU0509 */
      192      192        /**/
      193      193    1   DCL 1 MSU_FIVE(0:39) CONSTANT SYMDEF ALIGNED,
      194      194    1         2 CODE UBIN BYTE UNAL INIT(0,1,2,3,4,5,6,7,8,10,11,12,13,14,
      195      195    1                                    15,16,17,18,19,21,24,28,32,33,34,
      196      196    1                                    35,36,37,38,39,40,41,42,43,44,45,46,
      197      197    1                                    47,54,55),
      198      198    1         2 COUNT UBIN BYTE UNAL INIT(12,10,7,15,9,16,11,9,16,11,15,15,
      199      199    1                                     17,17,17,16,18,19,17,16,11,9,15,
      200      200    1                                     12,11,11,15,17,15,9,9,11,15,8,14,
      201      201    1                                     16,16,18,15,13),
      202      202    1         2 TEXT CHAR(35) UNAL INIT('DEV RESERVED',
      203      203    1                                   'DEV SEIZED',
      204      204    1                                   'STANDBY',
      205      205    1                                   'POSITIONER BUSY',
      206      206    1                                   'DLI ERROR',
      207      207    1                                   'WRITE PROTECTION',
      208      208    1                                   'DEV FAILURE',
      209      209    1                                   'DIAG MODE',
      210      210    1                                   'CMD PARITY ERROR',
      211      211    1                                   'INVALID CMD',
      212      212    1                                   'INVALID CMD SEQ',
      213      213    1                                   'STATE VIOLATION',
      214      214    1                                   'PROTECT VIOLATION',
      215      215    1                                   'XFER TIMING ERROR',
      216      216    1                                   'DATA PARITY ERROR',
      217      217    1                                   'LOSS OF WRT CURR',
      218      218    1                                   'WRT OR NO WRT CURR',
      219      219    1                                   'LOSS OF AC WRT CURR',
      220      220    1                                   'MULTI HD SELECTED',
      221      221    1                                   'SPINDLE SPD LOSS',
      222      222    1                                   'SEEK INCOMP',
PL6.E3A0      #001=TH_XSTATUS_D File=TH_XSTATUS_D.:E05TSI                        WED 07/30/97 06:19 Page:89
      223      223    1                                   'RPS FAULT',
      224      224    1                                   'SERVO OFF TRACK',
      225      225    1                                   'ACCESS CHECK',
      226      226    1                                   'PACK UNSAFE',
      227      227    1                                   'INDEX CHECK',
      228      228    1                                   'FIXED HD SELECT',
      229      229    1                                   'POSITIONER OFFSET',
      230      230    1                                   'RD CLOCK OFFSET',
      231      231    1                                   'R/W CHECK',
      232      232    1                                   'READ GATE',
      233      233    1                                   'NOT SOUELCH',
      234      234    1                                   'SYNC BYTE FOUND',
      235      235    1                                   'AM FOUND',
      236      236    1                                   'SEARCH AM MARK',
      237      237    1                                   '8 BITS PROCESSED',
      238      238    1                                   'SEARCH SYNC BYTE',
      239      239    1                                   '1ST BYTE PROCESSED',
      240      240    1                                   'INH HDA RECYCLE',
      241      241    1                                   'HDA SEQ CHECK');
      242      242        /**/
      243      243        /* FOR DISC - MSU3380 AND MSU3382 */
      244      244        /**/
      245      245    1   DCL 1 MSU_THIRTY3(0:21) CONSTANT SYMDEF ALIGNED,
      246      246    1         2 CODE UBIN BYTE UNAL INIT(0,1,2,3,4,5,8,9,10,11,12,13,14,
      247      247    1                                    17,18,19,20,21,22,32,34,56),
      248      248    1         2 COUNT UBIN BYTE UNAL INIT(14,21,14,15,10,7,15,20,15,19,15,14,15,
      249      249    1                                     11,18,26,16,16,16,29,16,1),
      250      250    1         2 TEXT CHAR(35) UNAL INIT('COMMAND REJECT',
      251      251    1                                   'INTERVENTION REQUIRED',
      252      252    1                                   'BUS OUT PARITY',
      253      253    1                                   'EQUIPMENT CHECK',
      254      254    1                                   'DATA CHECK',
      255      255    1                                   'OVERRUN',
      256      256    1                                   'PERMANENT ERROR',
      257      257    1                                   'INVALID TRACK FORMAT',
      258      258    1                                   'END OF CYLINDER',
      259      259    1                                   'MESSAGE OF OPERATOR',
PL6.E3A0      #001=TH_XSTATUS_D File=TH_XSTATUS_D.:E05TSI                        WED 07/30/97 06:19 Page:90
      260      260    1                                   'NO RECORD FOUND',
      261      261    1                                   'FILE PROTECTED',
      262      262    1                                   'WRITE INHIBITED',
      263      263    1                                   'CORRECTABLE',
      264      264    1                                   'FIRST LOGGED ERROR',
      265      265    1                                   'ENVIRONMENTAL DATA PRESENT',
      266      266    1                                   'INTENT VIOLATION',
      267      267    1                                   'IMPRECISE ENDING',
      268      268    1                                   'WRITE OPERATIONS',
      269      269    1                                   'CTRLR HAS DYNAMIC PATH SELECT',
      270      270    1                                   'PATH UNAVAILABLE',
      271      271    1                                   ' ');
      272      272        /**/
      273      273        /* FOR DISC - MDS8082 AND MDS8092 */
      274      274        /**/
      275      275    1   DCL 1 MSU_MDS(0:47) CONSTANT SYMDEF ALIGNED,
      276      276    1       2 CODE UBIN BYTE UNAL INIT(0,1,2,3,4,5,6,7,56,57,58,59,60,61,62,63,
      277      277    1                                  68,69,70,71,8,9,10,11,12,13,14,15,16,17,
      278      278    1                                  18,19,20,21,22,23,24,25,26,27,28,29,30,31,
      279      279    1                                  32,33,34,35),
      280      280    1       2 COUNT UBIN BYTE UNAL INIT(24,21,27,17,35,14,18,32,17,21,22,25,31,21,
      281      281    1                                  12,12,14,14,24,15,30,32,32,1,1,1,1,1,1,1,
      282      282    1                                  1,1,1,1,1,1,1,1,1,1,1,1,1,1,1,1,1,1),
      283      283    1       2 TEXT CHAR(35) UNAL INIT('PATH COMPONENT = CM-3   ',
      284      284    1                                'REFERENCE NUMBER =   ',
      285      285    1                                'IMX TRANSACTION NUMBER =   ',
      286      286    1                                'OPERATION CODE = ',
      287      287    1                                'CMD MODIFIERS =    OP MODIFIER =   ',
      288      288    1                                'CM NUMBER =   ',
      289      289    1                                'DEVICE NUMBER =   ',
      290      290    1                                'MAJOR STATUS:  IPI STATUS =     ',
      291      291    1                                ' -- CMD EXCEPTION',
      292      292    1                                ' -- MACHINE EXCEPTION',
      293      293    1                                ' -- ALT PORT EXCEPTION',
      294      294    1                                ' -- INTERVENTION REQUIRED',
      295      295    1                                ' -- MESSAGE/MICROCODE EXCEPTION',
      296      296    1                                ' -- DEFECT MANAGEMENT',
PL6.E3A0      #001=TH_XSTATUS_D File=TH_XSTATUS_D.:E05TSI                        WED 07/30/97 06:19 Page:91
      297      297    1                                ' -- RESERVED',
      298      298    1                                ' -- RESERVED',
      299      299    1                                ' -- SUCCESSFUL',
      300      300    1                                ' -- INCOMPLETE',
      301      301    1                                ' -- CONDITIONAL SUCCESS',
      302      302    1                                ' -- CMD ABORTED',
      303      303    1                                '               STATUS TYPE =  ',
      304      304    1                                'SUBSTATUS:     PARAM LENGTH =   ',
      305      305    1                                '               PARAMETER ID =   ',
      306      306    1                                ' ',' ',' ',' ',' ',' ',' ',' ',' ',' ',' ',
      307      307    1                                ' ',' ',' ',' ',' ',' ',' ',' ',' ',' ',' ',
      308      308    1                                ' ',' ',' ');
      309      309    1   DCL 1 MDS_OP_CODE_TBL(0:42) CONSTANT SYMDEF ALIGNED,
      310      310    1       2 CODE UBIN BYTE UNAL INIT(0,1,2,3,4,5,6,7,8,16,17,18,32,33,40,48,
      311      311    1                                  49,50,51,52,65,66,68,80,81,82,83,84,85,
      312      312    1                                  88,98,99,100,101,102,104,128,129,130,131,
      313      313    1                                  132,133,134),
      314      314    1       2 COUNT UBIN BYTE UNAL INIT(9,24,16,29,18,18,23,24,11,10,19,26,11,19,
      315      315    1                                   12,10,29,18,16,22,22,21,26,17,31,22,31,
      316      316    1                                   32,26,34,21,27,33,27,25,35,
      317      317    1                                   35,30,22,23,26,27,15),
      318      318    1       2 TEXT CHAR(35) UNAL INIT('00 -- NOP',
      319      319    1                                '01 -- FACILITY OPERATION',
      320      320    1                                '02 -- ATTRIBUTES',
      321      321    1                                '03 -- REPORT ADDRESSEE STATUS',
      322      322    1                                '04 -- PORT ADDRESS',
      323      323    1                                '05 -- PATH CONTROL',
      324      324    1                                '06 -- ATTENTION CONTROL',
      325      325    1                                '07 -- SET OPERATING MODE',
      326      326    1                                '08 -- ABORT',
      327      327    1                                '10 -- READ',
      328      328    1                                '11 -- READ RAW DATA',
      329      329    1                                '12 -- READ REPLICATED DATA',
      330      330    1                                '20 -- WRITE',
      331      331    1                                '21 -- WRITE PATTERN',
      332      332    1                                '28 -- FORMAT',
      333      333    1                                '30 -- COPY',
PL6.E3A0      #001=TH_XSTATUS_D File=TH_XSTATUS_D.:E05TSI                        WED 07/30/97 06:19 Page:92
      334      334    1                                '31 -- COMPARE CONTROLLER DATA',
      335      335    1                                '32 -- COMPARE DATA',
      336      336    1                                '33 -- REALLOCATE',
      337      337    1                                '34 -- ALLOCATE RESTORE',
      338      338    1                                '41 -- POSITION CONTROL',
      339      339    1                                '42 -- REPORT POSITION',
      340      340    1                                '44 -- REPORT DISCONTINUITY',
      341      341    1                                '50 -- READ VERIFY',
      342      342    1                                '51 -- READ FIRST AVAILABLE DATA',
      343      343    1                                '52 -- READ FROM BUFFER',
      344      344    1                                '53 -- READ DRIVE DATA TO BUFFER',
      345      345    1                                '54 -- READ PHYSICAL DATA AND ECC',
      346      346    1                                '55 -- READ PHYSICAL HEADER',
      347      347    1                                '58 -- READ PHYSICAL HEADER AND ECC',
      348      348    1                                '62 -- WRITE TO BUFFER',
      349      349    1                                '63 -- WRITE BUFFER TO DRIVE',
      350      350    1                                '64 -- WRITE PHYSICAL DATA AND ECC',
      351      351    1                                '65 -- WRITE PHYSICAL HEADER',
      352      352    1                                '66 -- LOAD CONTROLLER IML',
      353      353    1                                '68 -- WRITE PHYSICAL HEADER AND ECC',
      354      354    1                                '80 -- PERFORM CONTROLLER DIAGNOSTIC',
      355      355    1                                '81 -- PERFORM DRIVE DIAGNOSTIC',
      356      356    1                                '82 -- READ DEFECT LIST',
      357      357    1                                '83 -- WRITE DEFECT LIST',
      358      358    1                                '84 -- READ PERFORMANCE LOG',
      359      359    1                                '85 -- WRITE PERFORMANCE LOG',
      360      360    1                                'UNKNOWN OP CODE');
      361      361    1   DCL 1 MDS_PARAM_ID_TBL(0:10) CONSTANT SYMDEF ALIGNED,
      362      362    1       2 COUNT UBIN BYTE UNAL INIT(1,1,21,31,25,28,21,21,19,23,14),
      363      363    1       2 TEXT CHAR(35) UNAL INIT(' ',
      364      364    1                                ' ',
      365      365    1                                ' -- DEFECT MANAGEMENT',
      366      366    1                                ' -- MESSAGE/MICROCODE EXCEPTION',
      367      367    1                                ' -- INTERVENTION REQUIRED',
      368      368    1                                ' -- ALTERNATE PORT EXCEPTION',
      369      369    1                                ' -- MACHINE EXCEPTION',
      370      370    1                                ' -- COMMAND EXCEPTION',
PL6.E3A0      #001=TH_XSTATUS_D File=TH_XSTATUS_D.:E05TSI                        WED 07/30/97 06:19 Page:93
      371      371    1                                ' -- COMMAND ABORTED',
      372      372    1                                ' -- CONDITIONAL SUCCESS',
      373      373    1                                ' -- INCOMPLETE');
      374      374    1   DCL 1 MDS_PARAM_X2(0:4) CONSTANT SYMDEF ALIGNED,
      375      375    1       2 SUB$ PTR INIT( ADDR(OCT1_X2),
      376      376    1                        ADDR(OCT2_X2),
      377      377    1                        ADDR(OCT3_X2),
      378      378    1                        ADDR(OCT4_X2),
      379      379    1                        ADDR(OCT5_X2));
      380      380    1   DCL 1 OCT1_X2(0:7) CONSTANT SYMDEF ALIGNED,
      381      381    1       2 COUNT UBIN BYTE UNAL INIT(31,41,32,30,36,30,36,42),
      382      382    1       2 TEXT CHAR(44) UNAL INIT('  BOTH DEFECT LISTS ARE INVALID',
      383      383    1                                 '  DEFECTS FOR CYLINDER EXCEED TABLE SPACE',
      384      384    1                                 '  CYLINDER REALLOCATION REQUIRED',
      385      385    1                                 '  SECTOR REALLOCATION REQUIRED',
      386      386    1                                 '  INHIBIT SECTOR REALLOCATION ACTIVE',
      387      387    1                                 '  VOTING ON DEFECT LIST FAILED',
      388      388    1                                 '  UNABLE TO DETERMINE TRACK LOCATION',
      389      389    1                                 '  CONDITIONAL SUCCESS CE CYL NOT FORMATTED');
      390      390    1   DCL 1 OCT2_X2(0:7) CONSTANT SYMDEF ALIGNED,
      391      391    1       2 COUNT UBIN BYTE UNAL INIT(38,28,31,38,25,23,43,43),
      392      392    1       2 TEXT CHAR(44) UNAL INIT('  DATA MISCOMPARE ON HEADER(S) WRITTEN',
      393      393    1                                 '  DEFECT TO REMOVE NOT FOUND',
      394      394    1                                 '  DEFECT TO REMOVE IS PERMANENT',
      395      395    1                                 '  TEMPORARY DEFECT LIST DOES NOT EXIST',
      396      396    1                                 '  CERTIFY DEFECT(S) FOUND',
      397      397    1                                 '  SECTOR NUMBER INVALID',
      398      398    1                                 '  FAILED READING REPLICATED DEFECT MGT DATA',
      399      399    1                                 '  FAILED WRITING REPLICATED DEFECT MGT DATA');
      400      400    1   DCL 1 OCT3_X2(0:7) CONSTANT SYMDEF ALIGNED,
      401      401    1       2 COUNT UBIN BYTE UNAL INIT(39,21,29,22,30,30,36,44),
      402      402    1       2 TEXT CHAR(44) UNAL INIT('  MASTER TERMINATED READ OF DEFECT LIST',
      403      403    1                                 '  READ HEADER FAILURE',
      404      404    1                                 '  READ DELAYED HEADER FAILURE',
      405      405    1                                 '  WRITE HEADER FAILURE',
      406      406    1                                 '  WRITE DELAYED HEADER FAILURE',
      407      407    1                                 '  DEFECT ENTRY OUT OF SEQUENCE',
PL6.E3A0      #001=TH_XSTATUS_D File=TH_XSTATUS_D.:E05TSI                        WED 07/30/97 06:19 Page:94
      408      408    1                                 '  CYLINDER OR SECTOR NOT REALLOCATED',
      409      409    1                                 '  HIGH PARTIAL TRK INCLUDES A SLIPPED SECTOR');
      410      410    1   DCL 1 OCT4_X2(0:7) CONSTANT SYMDEF ALIGNED,
      411      411    1       2 COUNT UBIN BYTE UNAL INIT(44,25,1,1,1,1,1,1),
      412      412    1       2 TEXT CHAR(44) UNAL INIT('  DRIVE CONFIGURATION RECORD IS UNIDENTIFIED',
      413      413    1                                 '  INVALID DATA FROM DRIVE',
      414      414    1                                 ' ',
      415      415    1                                 ' ',
      416      416    1                                 ' ',
      417      417    1                                 ' ',
      418      418    1                                 ' ',
      419      419    1                                 ' ');
      420      420    1   DCL 1 OCT5_X2(0:7) CONSTANT SYMDEF ALIGNED,
      421      421    1       2 COUNT UBIN BYTE UNAL INIT(34,30,30,1,1,1,1,1),
      422      422    1       2 TEXT CHAR(44) UNAL INIT('OCTET 05 TO 06 = 0000  - CYLINDER#',
      423      423    1                                 'OCTET 07 = 00  - HEADER NUMBER',
      424      424    1                                 'OCTET 08 = 00  - SECTOR NUMBER',
      425      425    1                                 ' ',
      426      426    1                                 ' ',
      427      427    1                                 ' ',
      428      428    1                                 ' ',
      429      429    1                                 ' ');
      430      430    1   DCL 1 MDS_PARAM_X4(0:5) CONSTANT SYMDEF ALIGNED,
      431      431    1       2 SUB$ PTR INIT( ADDR(OCT1_X4),
      432      432    1                        ADDR(NIL),
      433      433    1                        ADDR(NIL),
      434      434    1                        ADDR(NIL),
      435      435    1                        ADDR(OCT5_X4),
      436      436    1                        ADDR(OCT6_X4));
      437      437    1   DCL 1 OCT1_X4(0:7) CONSTANT SYMDEF ALIGNED,
      438      438    1       2 COUNT UBIN BYTE UNAL INIT(17, 11, 28, 22, 23, 34, 15, 1),
      439      439    1       2 TEXT CHAR(44) UNAL INIT('  NOT OPERATIONAL',
      440      440    1                                 '  NOT READY',
      441      441    1                                 '  NOT OPERATIONAL TRANSITION',
      442      442    1                                 '  NOT READY TRANSITION',
      443      443    1                                 '  PHYSICAL LINK FAILURE',
      444      444    1                                 '  ATTRIBUTE TABLE MAY BE CORRUPTED',
PL6.E3A0      #001=TH_XSTATUS_D File=TH_XSTATUS_D.:E05TSI                        WED 07/30/97 06:19 Page:95
      445      445    1                                 '  FACILITY BUSY',
      446      446    1                                 ' ');
      447      447    1   DCL 1 OCT5_X4(0:7) CONSTANT SYMDEF ALIGNED,
      448      448    1       2 COUNT UBIN BYTE UNAL INIT(21,17,19,32,22,1,25,27),
      449      449    1       2 TEXT CHAR(44) UNAL INIT('  DRIVE NOT FORMATTED',
      450      450    1                                 '  PRIMARY COMMAND',
      451      451    1                                 '  SECONDARY COMMAND',
      452      452    1                                 '  PHYSICAL BLOCK SIZES NOT EQUAL',
      453      453    1                                 '  PARTITIONS NOT EQUAL',
      454      454    1                                 ' ',
      455      455    1                                 '  EXPLICIT RESERVE BROKEN',
      456      456    1                                 '  IML CHECKSUM OR BUS ERROR');
      457      457    1   DCL 1 OCT6_X4(0:7) CONSTANT SYMDEF ALIGNED,
      458      458    1       2 COUNT UBIN BYTE UNAL INIT(26,39,1,1,1,1,1,1),
      459      459    1       2 TEXT CHAR(44) UNAL INIT('  DRIVE DIAGNOSTICS FAILED',
      460      460    1                                 '  UNABLE TO READ SYSTEM CYLINDER TABLES',
      461      461    1                                 ' ',
      462      462    1                                 ' ',
      463      463    1                                 ' ',
      464      464    1                                 ' ',
      465      465    1                                 ' ',
      466      466    1                                 ' ');
      467      467    1   DCL 1 MDS_PARAM_X5(0:4) CONSTANT SYMDEF ALIGNED,
      468      468    1       2 SUB$ PTR INIT( ADDR(OCT1_X5),
      469      469    1                        ADDR(OCT2_X5),
      470      470    1                        ADDR(NIL),
      471      471    1                        ADDR(NIL),
      472      472    1                        ADDR(OCT5_X5));
      473      473    1   DCL 1 OCT1_X5(0:7) CONSTANT SYMDEF ALIGNED,
      474      474    1       2 COUNT UBIN BYTE UNAL INIT(25,20,26,18,1,1,1,1),
      475      475    1       2 TEXT CHAR(44) UNAL INIT('  PRIORITY RESERVE ISSUED',
      476      476    1                                 '  ATTRIBUTES UPDATED',
      477      477    1                                 '  INITIALIZATION COMPLETED',
      478      478    1                                 '  FORMAT COMPLETED',
      479      479    1                                 ' ',
      480      480    1                                 ' ',
      481      481    1                                 ' ',
PL6.E3A0      #001=TH_XSTATUS_D File=TH_XSTATUS_D.:E05TSI                        WED 07/30/97 06:19 Page:96
      482      482    1                                 ' ');
      483      483    1   DCL 1 OCT2_X5(0:7) CONSTANT SYMDEF ALIGNED,
      484      484    1       2 COUNT UBIN BYTE UNAL INIT(35,34,1,1,1,1,1,1),
      485      485    1       2 TEXT CHAR(44) UNAL INIT('  CONTROLLER DIAGNOSTIC IN PROGRESS',
      486      486    1                                 '  CONTROLLER DIAGNOSTIC TERMINATED',
      487      487    1                                 ' ',
      488      488    1                                 ' ',
      489      489    1                                 ' ',
      490      490    1                                 ' ',
      491      491    1                                 ' ',
      492      492    1                                 ' ');
      493      493    1   DCL 1 OCT5_X5(0:7) CONSTANT SYMDEF ALIGNED,
      494      494    1       2 COUNT UBIN BYTE UNAL INIT(25,1,1,1,1,1,25,1),
      495      495    1       2 TEXT CHAR(44) UNAL INIT('  FORMAT TABLES CORRUPTED',
      496      496    1                                 ' ',
      497      497    1                                 ' ',
      498      498    1                                 ' ',
      499      499    1                                 ' ',
      500      500    1                                 ' ',
      501      501    1                                 '  EXPLICIT RESERVE BROKEN',
      502      502    1                                 ' ');
      503      503    1   DCL 1 MDS_PARAM_X8 CONSTANT SYMDEF ALIGNED,
      504      504    1       2 SUB$ PTR INIT( ADDR(OCT1_X8));
      505      505    1   DCL 1 OCT1_X8(0:7) CONSTANT SYMDEF ALIGNED,
      506      506    1       2 COUNT UBIN BYTE UNAL INIT(17,29,41,26,38,26,38,1),
      507      507    1       2 TEXT CHAR(44) UNAL INIT('  COMMAND ABORTED',
      508      508    1                                 '  COMMAND SEQUENCE TERMINATED',
      509      509    1                                 '  UNEXECUTED CMD FROM TERMINATED SEQUENCE',
      510      510    1                                 '  COMMAND CHAIN TERMINATED',
      511      511    1                                 '  UNEXECUTED CMD FROM TERMINATED CHAIN',
      512      512    1                                 '  COMMAND ORDER TERMINATED',
      513      513    1                                 '  UNEXECUTED CMD FROM TERMINATED ORDER',
      514      514    1                                 ' ');
      515      515    1   DCL 1 MDS_PARAM_XA(0:5) CONSTANT SYMDEF ALIGNED,
      516      516    1       2 SUB$ PTR INIT( ADDR(OCT1_XA),
      517      517    1                        ADDR(NIL),
      518      518    1                        ADDR(OCT3_XA),
PL6.E3A0      #001=TH_XSTATUS_D File=TH_XSTATUS_D.:E05TSI                        WED 07/30/97 06:19 Page:97
      519      519    1                        ADDR(NIL),
      520      520    1                        ADDR(OCT5_XA),
      521      521    1                        ADDR(NIL));
      522      522    1   DCL 1 OCT1_XA(0:7) CONSTANT SYMDEF ALIGNED,
      523      523    1       2 COUNT UBIN BYTE UNAL INIT(1,1,1,27,1,1,1,1),
      524      524    1       2 TEXT CHAR(44) UNAL INIT(' ', ' ', ' ',
      525      525    1                                 '  RESPONSE PACKET TRUNCATED',
      526      526    1                                 ' ', ' ', ' ', ' ');
      527      527    1   DCL 1 OCT3_XA(0:7) CONSTANT SYMDEF ALIGNED,
      528      528    1       2 COUNT UBIN BYTE UNAL INIT(1,1,1,1,1,24,17,1),
      529      529    1       2 TEXT CHAR(44) UNAL INIT(' ', ' ', ' ', ' ', ' ',
      530      530    1                                 '  DATA LENGTH DIFFERENCE',
      531      531    1                                 '  BLOCK NOT FOUND',
      532      532    1                                 ' ');
      533      533    1   DCL 1 OCT5_XA(0:7) CONSTANT SYMDEF ALIGNED,
      534      534    1       2 COUNT UBIN BYTE UNAL INIT(21,1,1,1,1,1,1,1),
      535      535    1       2 TEXT CHAR(44) UNAL INIT('  OTHER PORT DISABLED',
      536      536    1                                 ' ', ' ', ' ', ' ', ' ', ' ', ' ');
      537      537    1   DCL 1 MDS_PARAM_X7(0:6) CONSTANT SYMDEF ALIGNED,
      538      538    1       2 SUB$ PTR INIT( ADDR(OCT1_X7),
      539      539    1                        ADDR(OCT2_X7),
      540      540    1                        ADDR(NIL),
      541      541    1                        ADDR(NIL),
      542      542    1                        ADDR(OCT5_X7),
      543      543    1                        ADDR(NIL),
      544      544    1                        ADDR(OCT7_X7));
      545      545    1   DCL 1 OCT1_X7(0:7) CONSTANT SYMDEF ALIGNED,
      546      546    1       2 COUNT UBIN BYTE UNAL INIT(23,30,23,26,1,1,16,18),
      547      547    1       2 TEXT CHAR(44) UNAL INIT('  INVALID PACKET LENGTH',
      548      548    1                                 '  INVALID CMD REFERENCE NUMBER',
      549      549    1                                 '  INVALID SLAVE ADDRESS',
      550      550    1                                 '  INVALID FACILITY ADDRESS',
      551      551    1                                 ' ', ' ',
      552      552    1                                 '  INVALID OPCODE',
      553      553    1                                 '  INVALID MODIFIER');
      554      554    1   DCL 1 OCT2_X7(0:7) CONSTANT SYMDEF ALIGNED,
      555      555    1       2 COUNT UBIN BYTE UNAL INIT(1,1,16,1,22,22,34,21),
PL6.E3A0      #001=TH_XSTATUS_D File=TH_XSTATUS_D.:E05TSI                        WED 07/30/97 06:19 Page:98
      556      556    1       2 TEXT CHAR(44) UNAL INIT(' ', ' ',
      557      557    1                                 '  INVALID EXTENT',
      558      558    1                                 ' ',
      559      559    1                                 '  INVALID PARAMETER(S)',
      560      560    1                                 '  MISSING PARAMETER(S)',
      561      561    1                                 '  RESERVED VALUE NOT EQUAL TO ZERO',
      562      562    1                                 '  INVALID COMBINATION');
      563      563    1   DCL 1 OCT5_X7(0:7) CONSTANT SYMDEF ALIGNED,
      564      564    1       2 COUNT UBIN BYTE UNAL INIT(36,20,33,41,30,27,1,1),
      565      565    1       2 TEXT CHAR(44) UNAL INIT('  CYLINDER OR SECTOR NOT REALLOCATED',
      566      566    1                                 '  HIGH PARTIAL TRACK',
      567      567    1                                 '  ATTEMPTED TO ABORT ON ABORT CMD',
      568      568    1                                 '  MASTER SECTOR DEFECTS NOT ADDED TO LIST',
      569      569    1                                 '  DRIVE RESERVED TO OTHER PORT',
      570      570    1                                 '  DATA TRANSMISSION FAILURE',
      571      571    1                                 ' ', ' ');
      572      572    1   DCL 1 OCT7_X7(0:7) CONSTANT SYMDEF ALIGNED,
      573      573    1       2 COUNT UBIN BYTE UNAL INIT(42,30,32,1,1,1,1,1),
      574      574    1       2 TEXT CHAR(44) UNAL INIT('  OCTET 07 TO 08 = 0000  - CYLINDER NUMBER',
      575      575    1                                 '  OCTET 09 = 00  - HEAD NUMBER',
      576      576    1                                 '  OCTET 0A = 00  - SECTOR NUMBER',
      577      577    1                                 ' ',
      578      578    1                                 ' ',
      579      579    1                                 ' ',
      580      580    1                                 ' ',
      581      581    1                                 ' ');
      582      582    1   DCL 1 MDS_PARAM_X6(0:5) CONSTANT SYMDEF ALIGNED,
      583      583    1       2 SUB$ PTR INIT( ADDR(OCT1_X6),
      584      584    1                        ADDR(OCT2_X6),
      585      585    1                        ADDR(OCT3_X6),
      586      586    1                        ADDR(OCT4_X6),
      587      587    1                        ADDR(OCT5_X6),
      588      588    1                        ADDR(OCT6_X6));
      589      589    1   DCL 1 OCT1_X6(0:7) CONSTANT SYMDEF ALIGNED,
      590      590    1       2 COUNT UBIN BYTE UNAL INIT(26,24,18,19,26,1,21,1),
      591      591    1       2 TEXT CHAR(44) UNAL INIT('  ADDRESSEE NO LONGER BUSY',
      592      592    1                                 '  OPERATIONAL TRANSITION',
PL6.E3A0      #001=TH_XSTATUS_D File=TH_XSTATUS_D.:E05TSI                        WED 07/30/97 06:19 Page:99
      593      593    1                                 '  READY TRANSITION',
      594      594    1                                 '  OPERATION TIMEOUT',
      595      595    1                                 '  PHYSICAL INTERFACE CHECK',
      596      596    1                                 ' ',
      597      597    1                                 '  ENVIRONMENTAL ERROR',
      598      598    1                                 ' ');
      599      599    1   DCL 1 OCT2_X6(0:7) CONSTANT SYMDEF ALIGNED,
      600      600    1       2 COUNT UBIN BYTE UNAL INIT(26,26,13,26,1,17,1,1),
      601      601    1       2 TEXT CHAR(44) UNAL INIT('  DATA CHECK (ON RAW DATA)',
      602      602    1                                 '  UNCORRECTABLE DATA CHECK',
      603      603    1                                 '  FATAL ERROR',
      604      604    1                                 '  HARDWARE WRITE PROTECTED',
      605      605    1                                 ' ',
      606      606    1                                 '  COMMAND FAILURE',
      607      607    1                                 ' ', ' ');
      608      608    1   DCL 1 OCT3_X6(0:7) CONSTANT SYMDEF ALIGNED,
      609      609    1       2 COUNT UBIN BYTE UNAL INIT(1,1,1,14,30,1,1,26),
      610      610    1       2 TEXT CHAR(44) UNAL INIT(' ', ' ', ' ',
      611      611    1                                 '  DATA OVERRUN',
      612      612    1                                 '  REALLOCATION SPACE EXHAUSTED',
      613      613    1                                 ' ', ' ',
      614      614    1                                 '  UNEXPECTED MASTER STATUS');
      615      615    1   DCL 1 OCT4_X6(0:7) CONSTANT SYMDEF ALIGNED,
      616      616    1       2 COUNT UBIN BYTE UNAL INIT(21,23,1,15,1,1,1,1),
      617      617    1       2 TEXT CHAR(44) UNAL INIT('  STATISTICS LOG FULL',
      618      618    1                                 '  DEFECT DIRECTORY FULL',
      619      619    1                                 ' ',
      620      620    1                                 '  POSITION LOST',
      621      621    1                                 ' ', ' ', ' ', ' ');
      622      622    1   DCL 1 OCT5_X6(0:7) CONSTANT SYMDEF ALIGNED,
      623      623    1       2 COUNT UBIN BYTE UNAL INIT(24,30,1,31,15,25,1,24),
      624      624    1       2 TEXT CHAR(44) UNAL INIT('  IPI PORT ENABLE FAILED',
      625      625    1                                 '  ERROR RECOVERY LIMIT REACHED',
      626      626    1                                 ' ',
      627      627    1                                 '  FORMAT TABLE MAY BE CORRUPTED',
      628      628    1                                 '  VOLTAGE FAULT',
      629      629    1                                 '  LOGIC TEMPERATURE ALERT',
PL6.E3A0      #001=TH_XSTATUS_D File=TH_XSTATUS_D.:E05TSI                        WED 07/30/97 06:19 Page:100
      630      630    1                                 ' ',
      631      631    1                                 '  WRITE TRANSITION FAULT');
      632      632    1   DCL 1 OCT6_X6(0:7) CONSTANT SYMDEF ALIGNED,
      633      633    1       2 COUNT UBIN BYTE UNAL INIT(21,19,25,29,23,19,19,1),
      634      634    1       2 TEXT CHAR(44) UNAL INIT('  INVALID BUS CONTROL',
      635      635    1                                 '  INVALID PARAMETER',
      636      636    1                                 '  UNSUPPORTED BUS CONTROL',
      637      637    1                                 '  INVALID BUS CONTROL CONTEXT',
      638      638    1                                 '  DATA BUS CONTROL LATE',
      639      639    1                                 '  HEAD OFFSET FAULT',
      640      640    1                                 '  DATA STROBE FAULT',
      641      641    1                                 ' ');
      642      642    1   DCL 1 MDS_DRIVE_ENDING_STATUS(0:3) CONSTANT SYMDEF ALIGNED,
      643      643    1       2 COUNT UBIN BYTE UNAL INIT(35,20,22,28),
      644      644    1       2 TEXT CHAR(44) UNAL INIT(' -- SUCCESSFUL INFORMATION TRANSFER',
      645      645    1                                 ' -- BUS PARITY ERROR',
      646      646    1                                 ' -- ODD OCTET TRANSFER',
      647      647    1                                 ' -- TIME DEPENDENT OPERATION');
      648      648    1   DCL 1 MDS_PARAM_X9(0:2) CONSTANT SYMDEF ALIGNED,
      649      649    1       2 SUB$ PTR INIT( ADDR(OCT1_X9),
      650      650    1                        ADDR(OCT2_X9),
      651      651    1                        ADDR(OCT3_X9));
      652      652        %EQU  X9_MSG10 = '  LOGGING DATA APPENDED';
      653      653        %EQU  X9_MSG11 = '  ABORT RECEIVED - NO CMD ACTIVE';
      654      654        %EQU  X9_MSG12 = '  ABORT RECEIVED - STATUS PENDING';
      655      655        %EQU  X9_MSG13 = '  ABORT RECEIVED - NOT OPERATIONAL';
      656      656        %EQU  X9_MSG14 = '  ANTICIPATED ERROR';
      657      657        %EQU  X9_MSG15 = '  ANTICIPATED DATA ERROR';
      658      658        %EQU  X9_MSG16 = ' ';
      659      659        %EQU  X9_MSG17 = ' ';
      660      660        %EQU  X9_MSG20 = '  DEFECT DIRECTORY THRESHOLD EXCEDED';
      661      661        %EQU  X9_MSG21 = '  ERROR RETRY PERFORMED';
      662      662        %EQU  X9_MSG22 = '  DATA RETRY PERFORMED';
      663      663        %EQU  X9_MSG23 = '  MOTION RETRY PERFORMED';
      664      664        %EQU  X9_MSG24 = '  DATA CORRECTION PERFORMED';
      665      665        %EQU  X9_MSG25 = '  SOFT ERROR';
      666      666        %EQU  X9_MSG26 = '  RELEASE OF UNRESERVED ADDRESSEE';
PL6.E3A0      #001=TH_XSTATUS_D File=TH_XSTATUS_D.:E05TSI                        WED 07/30/97 06:19 Page:101
      667      667        %EQU  X9_MSG27 = '  REQUEST OF DIAGNOSTIC CONTROL CMD';
      668      668        %EQU  X9_MSG30 = '  STATISTIC LOG REQUEST';
      669      669        %EQU  X9_MSG31 = ' ';
      670      670        %EQU  X9_MSG32 = ' ';
      671      671        %EQU  X9_MSG33 = ' ';
      672      672        %EQU  X9_MSG34 = ' ';
      673      673        %EQU  X9_MSG35 = ' ';
      674      674        %EQU  X9_MSG36 = '  ASYNC EVENT OCCURRENCE';
      675      675        %EQU  X9_MSG37 = '  MASTER TERMINATED';
      676      676    1   DCL 1 OCT1_X9(0:7) CONSTANT SYMDEF ALIGNED,
      677      677    1       2 COUNT UBIN BYTE UNAL INIT( %LENGTHC(X9_MSG10), %LENGTHC(X9_MSG11),
      678      678    1                                    %LENGTHC(X9_MSG12), %LENGTHC(X9_MSG13),
      679      679    1                                    %LENGTHC(X9_MSG14), %LENGTHC(X9_MSG15),
      680      680    1                                    %LENGTHC(X9_MSG16), %LENGTHC(X9_MSG17)),
      681      681    1       2 TEXT CHAR(44) UNAL INIT( %X9_MSG10, %X9_MSG11,
      682      682    1                                  %X9_MSG12, %X9_MSG13,
      683      683    1                                  %X9_MSG14, %X9_MSG15,
      684      684    1                                  %X9_MSG16, %X9_MSG17);
      685      685    1   DCL 1 OCT2_X9(0:7) CONSTANT SYMDEF ALIGNED,
      686      686    1       2 COUNT UBIN BYTE UNAL INIT( %LENGTHC(X9_MSG20), %LENGTHC(X9_MSG21),
      687      687    1                                    %LENGTHC(X9_MSG22), %LENGTHC(X9_MSG23),
      688      688    1                                    %LENGTHC(X9_MSG24), %LENGTHC(X9_MSG25),
      689      689    1                                    %LENGTHC(X9_MSG26), %LENGTHC(X9_MSG27)),
      690      690    1       2 TEXT CHAR(44) UNAL INIT( %X9_MSG20, %X9_MSG21,
      691      691    1                                  %X9_MSG22, %X9_MSG23,
      692      692    1                                  %X9_MSG24, %X9_MSG25,
      693      693    1                                  %X9_MSG26, %X9_MSG27);
      694      694    1   DCL 1 OCT3_X9(0:7) CONSTANT SYMDEF ALIGNED,
      695      695    1       2 COUNT UBIN BYTE UNAL INIT( %LENGTHC(X9_MSG30), %LENGTHC(X9_MSG31),
      696      696    1                                    %LENGTHC(X9_MSG32), %LENGTHC(X9_MSG33),
      697      697    1                                    %LENGTHC(X9_MSG34), %LENGTHC(X9_MSG35),
      698      698    1                                    %LENGTHC(X9_MSG36), %LENGTHC(X9_MSG37)),
      699      699    1       2 TEXT CHAR(44) UNAL INIT( %X9_MSG30, %X9_MSG31,
      700      700    1                                  %X9_MSG32, %X9_MSG33,
      701      701    1                                  %X9_MSG34, %X9_MSG35,
      702      702    1                                  %X9_MSG36, %X9_MSG37);
      703      703        %EQU  FRU_MSG0 = 'NO FRU INFORMATION';
PL6.E3A0      #001=TH_XSTATUS_D File=TH_XSTATUS_D.:E05TSI                        WED 07/30/97 06:19 Page:102
      704      704        %EQU  FRU_MSG1 = 'POWER SUPPLY';
      705      705        %EQU  FRU_MSG2 = 'CONTROL BOARD';
      706      706        %EQU  FRU_MSG3 = 'POWER AMPLIFIER';
      707      707        %EQU  FRU_MSG4 = 'MODULE';
      708      708        %EQU  FRU_MSG5 = 'READ/WRITE BOARD';
      709      709        %EQU  FRU_MSG6 = 'MODULE';
      710      710        %EQU  FRU_MSG7 = 'COOLING FAN';
      711      711        %EQU  FRU_MSG8 = 'I/O BOARD';
      712      712        %EQU  FRU_MSG9 = 'OPERATOR PANEL';
      713      713        %EQU  FRU_MSGA = 'MOTHER BOARD';
      714      714        %EQU  FRU_MSGB = 'MODULE';
      715      715        %EQU  FRU_MSGC = 'MODULE';
      716      716        %EQU  FRU_MSGD = 'MAINTENANCE PANEL';
      717      717        %EQU  FRU_MSGE = 'NOT DEFINED';
      718      718        %EQU  FRU_MSGF = 'AIR FILTER';
      719      719        %EQU  FRU_MSG11 = 'REPLACE CONTROL BOARD';
      720      720        %EQU  FRU_MSG12 = 'REPLACE MODULE';
      721      721        %EQU  FRU_MSG13 = 'REPLACE POWER SUPPLY';
      722      722        %EQU  FRU_MSG14 = 'REPLACE I/O BOARD';
      723      723        %EQU  FRU_MSG15 = 'REPLACE CONTROL BOARD';
      724      724        %EQU  FRU_MSG16 = 'REPLACE MODULE';
      725      725        %EQU  FRU_MSG17 = 'REPLACE COOLING FAN';
      726      726        %EQU  FRU_MSG18 = 'REPLACE STATUS/CTL OR OPERATOR PANEL';
      727      727    1   DCL 1 MDSI_FRUS(0:15) CONSTANT SYMDEF ALIGNED,
      728      728    1       2 CODE UBIN BYTE UNAL INIT( %HEX_80, %HEX_81, %HEX_82, %HEX_83,
      729      729    1                                   %HEX_84, %HEX_85, %HEX_86, %HEX_87,
      730      730    1                                   %HEX_88, %HEX_89, %HEX_8A, %HEX_8B,
      731      731    1                                   %HEX_8C, %HEX_8D, %HEX_8E, %HEX_8F),
      732      732    1       2 COUNT UBIN BYTE UNAL INIT( %LENGTHC(FRU_MSG0), %LENGTHC(FRU_MSG1),
      733      733    1                                    %LENGTHC(FRU_MSG2), %LENGTHC(FRU_MSG3),
      734      734    1                                    %LENGTHC(FRU_MSG4), %LENGTHC(FRU_MSG5),
      735      735    1                                    %LENGTHC(FRU_MSG6), %LENGTHC(FRU_MSG7),
      736      736    1                                    %LENGTHC(FRU_MSG8), %LENGTHC(FRU_MSG9),
      737      737    1                                    %LENGTHC(FRU_MSGA), %LENGTHC(FRU_MSGB),
      738      738    1                                    %LENGTHC(FRU_MSGC), %LENGTHC(FRU_MSGD),
      739      739    1                                    %LENGTHC(FRU_MSGE), %LENGTHC(FRU_MSGF)),
      740      740    1      2 TEXT CHAR(44) UNAL INIT ( %FRU_MSG0, %FRU_MSG1, %FRU_MSG2, %FRU_MSG3,
PL6.E3A0      #001=TH_XSTATUS_D File=TH_XSTATUS_D.:E05TSI                        WED 07/30/97 06:19 Page:103
      741      741    1                                  %FRU_MSG4, %FRU_MSG5, %FRU_MSG6, %FRU_MSG7,
      742      742    1                                  %FRU_MSG8, %FRU_MSG9, %FRU_MSGA, %FRU_MSGB,
      743      743    1                                  %FRU_MSGC, %FRU_MSGD, %FRU_MSGE, %FRU_MSGF);
      744      744    1   DCL 1 MDSII_FRUS(0:8) CONSTANT SYMDEF ALIGNED,
      745      745    1       2 CODE UBIN BYTE UNAL INIT( %HEX_80, %HEX_81, %HEX_82, %HEX_83, %HEX_84,
      746      746    1                                   %HEX_85, %HEX_86, %HEX_87, %HEX_88),
      747      747    1       2 COUNT UBIN BYTE UNAL INIT( %LENGTHC(FRU_MSG0), %LENGTHC(FRU_MSG11),
      748      748    1                                    %LENGTHC(FRU_MSG12), %LENGTHC(FRU_MSG13),
      749      749    1                                    %LENGTHC(FRU_MSG14), %LENGTHC(FRU_MSG15),
      750      750    1                                    %LENGTHC(FRU_MSG16), %LENGTHC(FRU_MSG17),
      751      751    1                                    %LENGTHC(FRU_MSG18)),
      752      752    1      2 TEXT CHAR(44) UNAL INIT( %FRU_MSG0, %FRU_MSG11, %FRU_MSG12, %FRU_MSG13,
      753      753    1                                 %FRU_MSG14, %FRU_MSG15, %FRU_MSG16, %FRU_MSG17,
      754      754    1                                 %FRU_MSG18);
      755      755        %EQU FLT_MSG0 = 'GOOD STATUS';
      756      756        %EQU FLT_MSG1 = 'READ/WRITE FAULT';
      757      757        %EQU FLT_MSG2 = 'VOLTAGE FAULT';
      758      758        %EQU FLT_MSG3 = 'WRITE FAULT';
      759      759        %EQU FLT_MSG4 = 'FIRST SEEK FAULT';
      760      760        %EQU FLT_MSG5 = 'READ + WRITE/OFF-CYL FAULT';
      761      761        %EQU FLT_MSG6 = 'HEAD SELECT FAULT';
      762      762        %EQU FLT_MSG7 = 'WRITE PROTECTED';
      763      763    1   DCL 1 MDSI_FCODE(0:6) CONSTANT SYMDEF ALIGNED,
      764      764    1       2 CODE UBIN BYTE UNAL INIT( %HEX_80, %HEX_82, %HEX_84, %HEX_88,
      765      765    1                                   %HEX_90, %HEX_A0, %HEX_C0),
      766      766    1       2 COUNT UBIN BYTE UNAL INIT( %LENGTHC(FLT_MSG0), %LENGTHC(FLT_MSG2),
      767      767    1                                    %LENGTHC(FLT_MSG3), %LENGTHC(FLT_MSG1),
      768      768    1                                    %LENGTHC(FLT_MSG5), %LENGTHC(FLT_MSG6),
      769      769    1                                    %LENGTHC(FLT_MSG4)),
      770      770    1         2 TEXT CHAR(44) UNAL INIT( %FLT_MSG0, %FLT_MSG2, %FLT_MSG3, %FLT_MSG1,
      771      771    1                                    %FLT_MSG5, %FLT_MSG6, %FLT_MSG4);
      772      772    1   DCL 1 MDSII_FCODE(0:7) CONSTANT SYMDEF ALIGNED,
      773      773    1       2 CODE UBIN BYTE UNAL INIT( %HEX_80, %HEX_81, %HEX_82, %HEX_84, %HEX_88,
      774      774    1                                   %HEX_90, %HEX_A0, %HEX_C0),
      775      775    1       2 COUNT UBIN BYTE UNAL INIT( %LENGTHC(FLT_MSG0), %LENGTHC(FLT_MSG1),
      776      776    1                                    %LENGTHC(FLT_MSG5), %LENGTHC(FLT_MSG4),
      777      777    1                                    %LENGTHC(FLT_MSG3), %LENGTHC(FLT_MSG7),
PL6.E3A0      #001=TH_XSTATUS_D File=TH_XSTATUS_D.:E05TSI                        WED 07/30/97 06:19 Page:104
      778      778    1                                    %LENGTHC(FLT_MSG6), %LENGTHC(FLT_MSG2)),
      779      779    1       2 TEXT CHAR(44) UNAL INIT( %FLT_MSG0, %FLT_MSG1, %FLT_MSG5, %FLT_MSG4,
      780      780    1                                  %FLT_MSG3, %FLT_MSG7, %FLT_MSG6, %FLT_MSG2);
      781      781        %EQU  STAT_MSG0 = 'READY AND ON-CYLINDER';
      782      782        %EQU  STAT_MSG2 = 'MOTOR STOPPING';
      783      783        %EQU  STAT_MSG3 = 'MOTOR STOPPED';
      784      784        %EQU  STAT_MSG4 = 'FIRST LOAD/CALIBRATE';
      785      785        %EQU  STAT_MSG5 = 'SEQUENCE DELAY';
      786      786        %EQU  STAT_MSG6 = 'WAITING FOR (HOLD + LOCAL)';
      787      787        %EQU  STAT_MSG7 = 'STARTING MOTOR';
      788      788        %EQU  STAT_MSG8 = 'MOTOR UP-TO-SPEED';
      789      789        %EQU  STAT_MSG9 = 'I/O SELF TEST PASSED';
      790      790        %EQU  STAT_MSGA = 'SWEEP SEGMENT IN PROGRESS';
      791      791        %EQU  STAT_MSGB = 'HEADS LEFT ON LAST CYL OF SWEEP';
      792      792        %EQU  STAT_MSG46 = 'SEEK TIMEOUT';
      793      793        %EQU  STAT_MSG4B = 'OFF-TRACK SEEK ERROR';
      794      794        %EQU  STAT_MSG4D = 'ILLEGAL CYL ADDRESS';
      795      795        %EQU  STAT_MSG4F = 'SEEK ERROR ON SETTLE-IN';
      796      796        %EQU  STAT_MSG54 = 'FIRST SEEK FLT ON RETRACT';
      797      797        %EQU  STAT_MSG55 = 'FIRST SEEK FLT ON LOAD';
      798      798        %EQU  STAT_MSG56 = 'FIRST SEEK FLT ON RTZ';
      799      799        %EQU  STAT_MSG57 = 'FIRST SEEK FLT ON CALIBRATE';
      800      800        %EQU  STAT_MSG58 = 'SPEED LOSS';
      801      801        %EQU  STAT_MSG59 = 'MOTOR CAN''T START';
      802      802        %EQU  STAT_MSG5A = 'EMERGENCY RETRACT';
      803      803        %EQU  STAT_MSG60 = 'MOTOR MPU FAILURE';
      804      804        %EQU  STAT_MSG61 = 'SERVO MPU FAILURE';
      805      805        %EQU  STAT_MSG62 = 'I/O STATUS TRANSFER FAILED';
      806      806        %EQU  STAT_MSG6E = 'I/O SELF DIAGNOSTIC TEST FAILED';
      807      807    1   DCL 1 MDSII_STATUS(0:25) CONSTANT SYMDEF ALIGNED,
      808      808    1       2 CODE UBIN BYTE UNAL INIT( %HEX_80, %HEX_82, %HEX_83, %HEX_84,
      809      809    1                                   %HEX_85, %HEX_86, %HEX_87, %HEX_88,
      810      810    1                                   %HEX_89, %HEX_8A, %HEX_8B, %HEX_C6,
      811      811    1                                   %HEX_CB, %HEX_CD, %HEX_CF, %HEX_D4,
      812      812    1                                   %HEX_D5, %HEX_D6, %HEX_D7, %HEX_D8,
      813      813    1                                   %HEX_D9, %HEX_DA, %HEX_E0, %HEX_E1,
      814      814    1                                   %HEX_E2, %HEX_EE ),
PL6.E3A0      #001=TH_XSTATUS_D File=TH_XSTATUS_D.:E05TSI                        WED 07/30/97 06:19 Page:105
      815      815    1      2 COUNT UBIN BYTE UNAL INIT( %LENGTHC(STAT_MSG0), %LENGTHC(STAT_MSG2),
      816      816    1                                   %LENGTHC(STAT_MSG3), %LENGTHC(STAT_MSG4),
      817      817    1                                   %LENGTHC(STAT_MSG5), %LENGTHC(STAT_MSG6),
      818      818    1                                   %LENGTHC(STAT_MSG7), %LENGTHC(STAT_MSG8),
      819      819    1                                   %LENGTHC(STAT_MSG9), %LENGTHC(STAT_MSGA),
      820      820    1                                   %LENGTHC(STAT_MSGB), %LENGTHC(STAT_MSG46),
      821      821    1                                   %LENGTHC(STAT_MSG4B), %LENGTHC(STAT_MSG4D),
      822      822    1                                   %LENGTHC(STAT_MSG4F), %LENGTHC(STAT_MSG54),
      823      823    1                                   %LENGTHC(STAT_MSG55), %LENGTHC(STAT_MSG56),
      824      824    1                                   %LENGTHC(STAT_MSG57), %LENGTHC(STAT_MSG58),
      825      825    1                                   %LENGTHC(STAT_MSG59), %LENGTHC(STAT_MSG5A),
      826      826    1                                   %LENGTHC(STAT_MSG60), %LENGTHC(STAT_MSG61),
      827      827    1                                   %LENGTHC(STAT_MSG62), %LENGTHC(STAT_MSG6E)),
      828      828    1       2 TEXT CHAR(44) UNAL INIT( %STAT_MSG0, %STAT_MSG2, %STAT_MSG3, %STAT_MSG4,
      829      829    1                                  %STAT_MSG5, %STAT_MSG6, %STAT_MSG7, %STAT_MSG8,
      830      830    1                                  %STAT_MSG9, %STAT_MSGA, %STAT_MSGB, %STAT_MSG46,
      831      831    1                                  %STAT_MSG4B, %STAT_MSG4D, %STAT_MSG4F, %STAT_MSG54,
      832      832    1                                  %STAT_MSG55, %STAT_MSG56, %STAT_MSG57, %STAT_MSG58,
      833      833    1                                  %STAT_MSG59, %STAT_MSG5A, %STAT_MSG60, %STAT_MSG61,
      834      834    1                                  %STAT_MSG62, %STAT_MSG6E);
      835      835        %EQU   CMD_01 = '  INITIALIZE';
      836      836        %EQU   CMD_02 = '  REQUEST INTERRUPTS';
      837      837        %EQU   CMD_03 = '  REQUEST SLAVE INTERRUPTS';
      838      838        %EQU   CMD_04 = '  REQUEST TRANSFER SETTINGS';
      839      839        %EQU   CMD_05 = '  MASTER RESET';
      840      840        %EQU   CMD_06 = '  SELECTIVE RESET';
      841      841        %EQU   CMD_07 = '  SELECT';
      842      842        %EQU   CMD_08 = '  DESELECT';
      843      843        %EQU   CMD_09 = '  STOP (CURRENT EXECUTING CMD)';
      844      844        %EQU   CMD_0A = '  READ SYNDROMES';
      845      845        %EQU   CMD_0B = '  POLLING LOOP';
      846      846        %EQU   CMD_0C = '  INCREMENT MAGIC SECTOR COUNTER';
      847      847        %EQU   CMD_10 = '  LOAD SLAVE FUNCTION';
      848      848        %EQU   CMD_11 = '  LOAD FORMAT SPEC';
      849      849        %EQU   CMD_12 = '  LOAD SLAVE SPECIFIC';
      850      850        %EQU   CMD_13 = '  LOAD CYLINDER';
      851      851        %EQU   CMD_14 = '  LOAD HEAD';
PL6.E3A0      #001=TH_XSTATUS_D File=TH_XSTATUS_D.:E05TSI                        WED 07/30/97 06:19 Page:106
      852      852        %EQU   CMD_15 = '  LOAD RPS';
      853      853        %EQU   CMD_16 = '  LOAD POSITION';
      854      854        %EQU   CMD_18 = '  READ CONFIGURATION';
      855      855        %EQU   CMD_19 = '  READ FORMAT SPEC';
      856      856        %EQU   CMD_1A = '  READ SLAVE SPECIFIC';
      857      857        %EQU   CMD_1B = '  READ STATUS';
      858      858        %EQU   CMD_1C = '  READ CURRENT SECTOR';
      859      859        %EQU   CMD_1D = '  READ PHYSICAL POSITION';
      860      860        %EQU   CMD_1E = '  READ EXTENDED STATUS';
      861      861        %EQU   CMD_20 = '  WRT HDRS';
      862      862        %EQU   CMD_21 = '  WRT HDR + ECC';
      863      863        %EQU   CMD_22 = '  WRT HDRS AND ZERO DATA';
      864      864        %EQU   CMD_23 = '  READ HDRS';
      865      865        %EQU   CMD_24 = '  READ HDR AND ECC';
      866      866        %EQU   CMD_25 = '  WRT DELAYED HDR';
      867      867        %EQU   CMD_26 = '  RD DELAYED HDR';
      868      868        %EQU   CMD_27 = '  WRT DEFLOG (2 FIELD)';
      869      869        %EQU   CMD_28 = '  RD DEFLOG (2 FIELD)';
      870      870        %EQU   CMD_29 = '  RECOVER DATA';
      871      871        %EQU   CMD_2A = '  WRT DELAYED HDR AND ECC';
      872      872        %EQU   CMD_2B = '  RD DELAYED HDR AND ECC';
      873      873        %EQU   CMD_2C = '  WRITE DEFECT LOG (1 FIELD)';
      874      874        %EQU   CMD_2D = '  READ DEFECT LOG (1 FIELD)';
      875      875        %EQU   CMD_30 = '  WRITE DATA';
      876      876        %EQU   CMD_31 = '  WRITE DATA AND ECC';
      877      877        %EQU   CMD_32 = '  READ DATA';
      878      878        %EQU   CMD_33 = '  READ DATA AND ECC';
      879      879        %EQU   CMD_34 = '  READ 1ST SECTOR';
      880      880        %EQU   CMD_35 = '  COMPARE DATA';
      881      881        %EQU   CMD_40 = '  LOAD FUNCTON AND POSITION';
      882      882        %EQU   CMD_41 = '  READ HEADER AND SYNDROME';
      883      883        %EQU   CMD_42 = '  READ DATA AND SYNDROME';
      884      884    1   DCL 1 MDS_CMD_IDENT(0:48) CONSTANT SYMDEF ALIGNED,
      885      885    1       2 CODE UBIN BYTE UNAL INIT( %HEX_81, %HEX_82, %HEX_83, %HEX_84,
      886      886    1                                   %HEX_85, %HEX_86, %HEX_87, %HEX_88,
      887      887    1                                   %HEX_89, %HEX_8A, %HEX_8B, %HEX_8C,
      888      888    1                                   %HEX_90, %HEX_91, %HEX_92, %HEX_93,
PL6.E3A0      #001=TH_XSTATUS_D File=TH_XSTATUS_D.:E05TSI                        WED 07/30/97 06:19 Page:107
      889      889    1                                   %HEX_94, %HEX_95, %HEX_96, %HEX_98,
      890      890    1                                   %HEX_99, %HEX_9A, %HEX_9B, %HEX_9C,
      891      891    1                                   %HEX_9D, %HEX_9E, %HEX_A0, %HEX_A1,
      892      892    1                                   %HEX_A2, %HEX_A3, %HEX_A4, %HEX_A5,
      893      893    1                                   %HEX_A6, %HEX_A7, %HEX_A8, %HEX_A9,
      894      894    1                                   %HEX_AA, %HEX_AB, %HEX_AC, %HEX_AD,
      895      895    1                                   %HEX_B0, %HEX_B1, %HEX_B2, %HEX_B3,
      896      896    1                                   %HEX_B4, %HEX_B5, %HEX_C0, %HEX_C1,
      897      897    1                                   %HEX_C2),
      898      898    1       2 COUNT UBIN BYTE UNAL INIT( %LENGTHC(CMD_01), %LENGTHC(CMD_02),
      899      899    1                                    %LENGTHC(CMD_03), %LENGTHC(CMD_04),
      900      900    1                                    %LENGTHC(CMD_05), %LENGTHC(CMD_06),
      901      901    1                                    %LENGTHC(CMD_07), %LENGTHC(CMD_08),
      902      902    1                                    %LENGTHC(CMD_09), %LENGTHC(CMD_0A),
      903      903    1                                    %LENGTHC(CMD_0B), %LENGTHC(CMD_0C),
      904      904    1                                    %LENGTHC(CMD_10), %LENGTHC(CMD_11),
      905      905    1                                    %LENGTHC(CMD_12), %LENGTHC(CMD_13),
      906      906    1                                    %LENGTHC(CMD_14), %LENGTHC(CMD_15),
      907      907    1                                    %LENGTHC(CMD_16), %LENGTHC(CMD_18),
      908      908    1                                    %LENGTHC(CMD_19), %LENGTHC(CMD_1A),
      909      909    1                                    %LENGTHC(CMD_1B), %LENGTHC(CMD_1C),
      910      910    1                                    %LENGTHC(CMD_1D), %LENGTHC(CMD_1E),
      911      911    1                                    %LENGTHC(CMD_20), %LENGTHC(CMD_21),
      912      912    1                                    %LENGTHC(CMD_22), %LENGTHC(CMD_23),
      913      913    1                                    %LENGTHC(CMD_24), %LENGTHC(CMD_25),
      914      914    1                                    %LENGTHC(CMD_26), %LENGTHC(CMD_27),
      915      915    1                                    %LENGTHC(CMD_28), %LENGTHC(CMD_29),
      916      916    1                                    %LENGTHC(CMD_2A), %LENGTHC(CMD_2B),
      917      917    1                                    %LENGTHC(CMD_2C), %LENGTHC(CMD_2D),
      918      918    1                                    %LENGTHC(CMD_30), %LENGTHC(CMD_31),
      919      919    1                                    %LENGTHC(CMD_32), %LENGTHC(CMD_33),
      920      920    1                                    %LENGTHC(CMD_34), %LENGTHC(CMD_35),
      921      921    1                                    %LENGTHC(CMD_40), %LENGTHC(CMD_41),
      922      922    1                                    %LENGTHC(CMD_42)),
      923      923    1       2 TEXT CHAR(44) UNAL INIT( %CMD_01, %CMD_02, %CMD_03, %CMD_04,
      924      924    1                                  %CMD_05, %CMD_06, %CMD_07, %CMD_08,
      925      925    1                                  %CMD_09, %CMD_0A, %CMD_0B, %CMD_0C,
PL6.E3A0      #001=TH_XSTATUS_D File=TH_XSTATUS_D.:E05TSI                        WED 07/30/97 06:19 Page:108
      926      926    1                                  %CMD_10, %CMD_11, %CMD_12, %CMD_13,
      927      927    1                                  %CMD_14, %CMD_15, %CMD_16, %CMD_18,
      928      928    1                                  %CMD_19, %CMD_1A, %CMD_1B, %CMD_1C,
      929      929    1                                  %CMD_1D, %CMD_1E, %CMD_20, %CMD_21,
      930      930    1                                  %CMD_22, %CMD_23, %CMD_24, %CMD_25,
      931      931    1                                  %CMD_26, %CMD_27, %CMD_28, %CMD_29,
      932      932    1                                  %CMD_2A, %CMD_2B, %CMD_2C, %CMD_2D,
      933      933    1                                  %CMD_30, %CMD_31, %CMD_32, %CMD_33,
      934      934    1                                  %CMD_34, %CMD_35, %CMD_40, %CMD_41,
      935      935    1                                  %CMD_42 );
      936      936    1   DCL 1 MDS_ERROR_LOC(0:3) CONSTANT SYMDEF ALIGNED,
      937      937    1       2 TEXT CHAR(36) UNAL INIT('  HEADER',
      938      938    1                                 '  HEAD INCREMENT',
      939      939    1                                 '  SKIP FIELD',
      940      940    1                                 '  DATA FIELD, LOAD, READ OR MISC CMD');
      941      941    1   DCL 1 MDS_TIMEOUT_ERRS(0:7) CONSTANT SYMDEF ALIGNED,
      942      942    1       2 TEXT CHAR(24) UNAL INIT('  IDLE1',
      943      943    1                                 '  IDLE2',
      944      944    1                                 '  SLVACK (SELECT)',
      945      945    1                                 '  REQACK',
      946      946    1                                 '  BUS CONTROL - BUSACK',
      947      947    1                                 '  BUS CONTROL - SLVACK',
      948      948    1                                 '  DATA TRANSFER - SLVEND',
      949      949    1                                 '  DATA TRANSFER - SLVACK');
      950      950    1   DCL 1 MDS_RW_ERRS(0:7) CONSTANT SYMDEF ALIGNED,
      951      951    1       2 TEXT CHAR(26) UNAL INIT('  ECC ERROR',
      952      952    1                                 '  MISSING SYNC',
      953      953    1                                 '  DEFECTIVE CYLILNDER',
      954      954    1                                 '  STOPPED ON DISCONTINUITY',
      955      955    1                                 '  SECTOR NOT FOUND',
      956      956    1                                 '  FORMAT PROBLEM',
      957      957    1                                 '  END OF CYLINDER ERROR',
      958      958    1                                 '  COMPARE ERROR');
      959      959    1   DCL 1 MDS_MISC_ERRS(0:1) CONSTANT SYMDEF ALIGNED,
      960      960    1       2 TEXT CHAR(14) UNAL INIT('  BUSY ERROR',
      961      961    1                                 '  SELECT ERROR');
      962      962    1   DCL 1 MDS_INFO_ERRS(0:5) CONSTANT SYMDEF ALIGNED,
PL6.E3A0      #001=TH_XSTATUS_D File=TH_XSTATUS_D.:E05TSI                        WED 07/30/97 06:19 Page:109
      963      963    1       2 TEXT CHAR(34) UNAL INIT('  DRIVE ENDING STATUS != 10XX0000B',
      964      964    1                                 '  UNDERFLOW',
      965      965    1                                 '  OVERFLOW',
      966      966    1                                 '  DATA TRANSFER PARITY ERROR',
      967      967    1                                 '  ENDING STATUS PARITY ERROR',
      968      968    1                                 '  STATUS PENDING');
      969      969    1   DCL 1 MDS_PARAM_51(0:1) CONSTANT SYMDEF ALIGNED,
      970      970    1       2 SUB$ PTR INIT( ADDR(OCT1_51),
      971      971    1                        ADDR(OCT2_51));
      972      972        %EQU  X51_MSG10 = '  OPERATIONAL';
      973      973        %EQU  X51_MSG11 = '  NOT OPERATIONAL';
      974      974        %EQU  X51_MSG12 = '  READY';
      975      975        %EQU  X51_MSG13 = '  NOT READY';
      976      976        %EQU  X51_MSG14 = '  DRIVE SWITCHED TO ANOTHER PORT';
      977      977        %EQU  X51_MSG15 = '  PORT NEUTRAL';
      978      978        %EQU  X51_MSG16 = '  AVAILABLE';
      979      979        %EQU  X51_MSG17 = '  BUSY';
      980      980        %EQU  X51_MSG20 = '  STATUS PENDING';
      981      981        %EQU  X51_MSG21 = '  ACTIVE';
      982      982        %EQU  X51_MSG22 = '  INACTIVE';
      983      983        %EQU  X51_MSG23 = ' ';
      984      984        %EQU  X51_MSG24 = ' ';
      985      985        %EQU  X51_MSG25 = ' ';
      986      986        %EQU  X51_MSG26 = ' ';
      987      987        %EQU  X51_MSG27 = ' ';
      988      988    1   DCL 1 OCT1_51(0:7) CONSTANT SYMDEF ALIGNED,
      989      989    1       2 COUNT UBIN BYTE UNAL INIT( %LENGTHC(X51_MSG10), %LENGTHC(X51_MSG11),
      990      990    1                               %LENGTHC(X51_MSG12), %LENGTHC(X51_MSG13),
      991      991    1                               %LENGTHC(X51_MSG14), %LENGTHC(X51_MSG15),
      992      992    1                               %LENGTHC(X51_MSG16), %LENGTHC(X51_MSG17)),
      993      993    1       2 TEXT CHAR(44) UNAL INIT( %X51_MSG10, %X51_MSG11, %X51_MSG12,
      994      994    1                                  %X51_MSG13, %X51_MSG14, %X51_MSG15,
      995      995    1                                  %X51_MSG16, %X51_MSG17);
      996      996    1   DCL 1 OCT2_51(0:7) CONSTANT SYMDEF ALIGNED,
      997      997    1       2 COUNT UBIN BYTE UNAL INIT( %LENGTHC(X51_MSG20), %LENGTHC(X51_MSG21),
      998      998    1                                    %LENGTHC(X51_MSG22), %LENGTHC(X51_MSG23),
      999      999    1                                    %LENGTHC(X51_MSG24), %LENGTHC(X51_MSG25),
PL6.E3A0      #001=TH_XSTATUS_D File=TH_XSTATUS_D.:E05TSI                        WED 07/30/97 06:19 Page:110
     1000     1000    1                                    %LENGTHC(X51_MSG26), %LENGTHC(X51_MSG27)),
     1001     1001    1       2 TEXT CHAR(44) UNAL INIT( %X51_MSG20, %X51_MSG21, %X51_MSG22,
     1002     1002    1                                  %X51_MSG23, %X51_MSG24, %X51_MSG25,
     1003     1003    1                                  %X51_MSG26, %X51_MSG27);
     1004     1004        /**/
     1005     1005        /* FOR TAPE - MTU0400 */
     1006     1006        /**/
     1007     1007    1   DCL 1 MTU_FOUR(0:60) CONSTANT SYMDEF ALIGNED,
     1008     1008    1         2 CODE UBIN BYTE UNAL INIT(0,1,2,3,4,5,6,8,9,10,11,12,13,14,15,
     1009     1009    1                                    16,19,20,25,27,32,33,35,41,42,43,
     1010     1010    1                                    44,45,46,47,48,49,50,51,
     1011     1011    1                                    56,57,58,59,60,61,64,65,66,67,68,72,
     1012     1012    1                                    73,74,75,76,80,81,82,83,84,88,89,90,
     1013     1013    1                                    91,92,96),
     1014     1014    1         2 COUNT UBIN BYTE UNAL INIT(9,14,14,9,3,3,7,10,11,16,17,16,17,9,
     1015     1015    1                                     17,1,13,1,13,1,8,14,1,16,18,15,
     1016     1016    1                                     19,19,19,19,13,13,15,17,
     1017     1017    1                                     11,16,13,18,15,16,15,18,13,11,
     1018     1018    1                                     18,14,14,18,18,18,16,15,15,13,15,
     1019     1019    1                                     15,15,20,4,12,1),
     1020     1020    1         2 TEXT CHAR(35) UNAL INIT('DEV FAULT',
     1021     1021    1                                   'CMD CODE ERROR',
     1022     1022    1                                   'WRT ECHO ERROR',
     1023     1023    1                                   'MULTI BOT',
     1024     1024    1                                   'BOT',
     1025     1025    1                                   'EOT',
     1026     1026    1                                   'STANDBY',
     1027     1027    1                                   'MTH LOADED',
     1028     1028    1                                   'LASTCMD WRT',
     1029     1029    1                                   'LAST CMD FORWARD',
     1030     1030    1                                   'REWIND IN PROCESS',
     1031     1031    1                                   'WRT RING PRESENT',
     1032     1032    1                                   'SOFTWARE WRT PERM',
     1033     1033    1                                   'DIAG MODE',
     1034     1034    1                                   'CMD CODE PAR EVEN',
     1035     1035    1                                   ' ',
     1036     1036    1                                   'LOW THRESHOLD',
PL6.E3A0      #001=TH_XSTATUS_D File=TH_XSTATUS_D.:E05TSI                        WED 07/30/97 06:19 Page:111
     1037     1037    1                                   ' ',
     1038     1038    1                                   'MODEL 7-TRACK',
     1039     1039    1                                   ' ',
     1040     1040    1                                   'DEV ADDR',
     1041     1041    1                                   'INC DESKEW WIN',
     1042     1042    1                                   ' ',
     1043     1043    1                                   'WRT DATA TO AMPS',
     1044     1044    1                                   'WRT LINES TO LINES',
     1045     1045    1                                   'DEV REV STAT: BIT 3',
     1046     1046    1                                   'DEV REV STAT: BIT 4',
     1047     1047    1                                   'DEV REV STAT: BIT 5',
     1048     1048    1                                   'DEV REV STAT: BIT 6',
     1049     1049    1                                   'DEV REV STAT: BIT 7',
     1050     1050    1                                   'BYPASS DESKEW',
     1051     1051    1                                   'TAD PACK INST',
     1052     1052    1                                   'DRIVE MOTION ST',
     1053     1053    1                                   'REVERSE MOTION ST',
     1054     1054    1                                   'WRT AMP PAR',
     1055     1055    1                                   'NATIVE INTER PAR',
     1056     1056    1                                   'WRT PERMIT ST',
     1057     1057    1                                   'ERASE CURR FAILURE',
     1058     1058    1                                   'WRT BUS BAD PAR',
     1059     1059    1                                   'DEV EVENT NOTICE',
     1060     1060    1                                   'UNLOAD TAPE CMD',
     1061     1061    1                                   'INHIBIT MOTION WRT',
     1062     1062    1                                   'WRT AMP CLEAR',
     1063     1063    1                                   'HEAD IN POS',
     1064     1064    1                                   'CAPSTAN SPD IN REW',
     1065     1065    1                                   'BOT DETECTED',
     1066     1066    1                                   'EOT DETECTED',
     1067     1067    1                                   'LOSS OF LOOP VAC',
     1068     1068    1                                   'LOSS OF MAIN VAC',
     1069     1069    1                                   'LOSS OF PRESSURE',
     1070     1070    1                                   'REEL SUPP FAIL',
     1071     1071    1                                   '+15 VOLT FAIL',
     1072     1072    1                                   '+40 VOLT FAIL',
     1073     1073    1                                   '5 VOLT FAIL',
PL6.E3A0      #001=TH_XSTATUS_D File=TH_XSTATUS_D.:E05TSI                        WED 07/30/97 06:19 Page:112
     1074     1074    1                                   'OVERTEMP FAIL',
     1075     1075    1                                   'FILE COL FAIL',
     1076     1076    1                                   'MACH COL FAIL',
     1077     1077    1                                   'CAPSTAN HI SPD: BOT',
     1078     1078    1                                   'LTOR',
     1079     1079    1                                   'LOAD TIMEOUT',
     1080     1080    1                                   ' ');
     1081     1081        /**/
     1082     1082        /* FOR TAPE - MTU0500 */
     1083     1083        /**/
     1084     1084    1   DCL 1 MTU_FIVE(0:166) CONSTANT SYMDEF ALIGNED,
     1085     1085    1         2 CODE UBIN BYTE UNAL INIT(0,1,2,3,4,5,6,7,8,9,10,11,12,13,14,
     1086     1086    1                                    15,16,19,20,25,26,27,33,35,40,41,
     1087     1087    1                                    42,43,47,48,49,50,51,52,53,54,55,56,
     1088     1088    1                                    57,58,59,60,61,62,63,64,65,66,67,68,
     1089     1089    1                                    69,70,71,72,73,74,75,76,77,78,79,80,
     1090     1090    1                                    81,84,85,86,87,88,89,90,91,92,93,94,
     1091     1091    1                                    95,96,97,98,99,100,101,102,103,104,
     1092     1092    1                                    105,106,107,108,109,110,111,112,113,
     1093     1093    1                                    114,115,116,117,118,119,120,121,122,
     1094     1094    1                                    123,124,125,126,127,128,131,132,135,
     1095     1095    1                                    136,137,138,139,140,141,142,143,144,
     1096     1096    1                                    145,146,147,148,149,150,151,152,153,
     1097     1097    1                                    154,155,156,157,158,159,160,161,162,
     1098     1098    1                                    163,164,165,166,167,168,169,170,171,
     1099     1099    1                                    172,173,174,175,176,177,178,179,180,
     1100     1100    1                                    181,182,183,184,185,186,187,188,189,
     1101     1101    1                                    190,191),
     1102     1102    1         2 COUNT UBIN BYTE UNAL INIT(9,14,14,14,11,11,7,11,13,17,17,13,
     1103     1103    1                                     16,13,9,12,1,18,1,13,14,1,15,1,
     1104     1104    1                                     16,15,15,19,8,16,17,19,17,18,
     1105     1105    1                                     19,18,18,18,18,15,17,17,17,17,17,
     1106     1106    1                                     13,14,14,17,18,17,15,17,17,16,19,
     1107     1107    1                                     15,15,15,15,15,13,14,19,19,19,19,
     1108     1108    1                                     15,4,16,11,16,15,15,15,11,18,14,17,
     1109     1109    1                                     14,14,15,12,15,14,15,16,19,20,15,17,
     1110     1110    1                                     17,18,18,19,19,19,15,14,18,19,19,
PL6.E3A0      #001=TH_XSTATUS_D File=TH_XSTATUS_D.:E05TSI                        WED 07/30/97 06:19 Page:113
     1111     1111    1                                     13,19,18,16,12,16,17,16,17,17,18,
     1112     1112    1                                     18,19,19,19,15,14,18,19,19,13,19,
     1113     1113    1                                     19,17,19,16,16,15,19,19,13,13,13,
     1114     1114    1                                     18,18,18,18,18,16,14,16,18,17,20,
     1115     1115    1                                     17,19,17,17,19,9,20,13,17,15,14,16,
     1116     1116    1                                     18,18,16,19,17,13,20,17,16),
     1117     1117    1         2 TEXT CHAR(35) UNAL INIT('DEV FAULT',
     1118     1118    1                                   'CMD CODE ERROR',
     1119     1119    1                                   'WRT ECHO ERROR',
     1120     1120    1                                   'MULTI BOT STAT',
     1121     1121    1                                   'BOT STORAGE',
     1122     1122    1                                   'EOT STORAGE',
     1123     1123    1                                   'STANDBY',
     1124     1124    1                                   'MARGIN COND',
     1125     1125    1                                   'LOAD SEQ COMP',
     1126     1126    1                                   'LAST CMD WRT STAT',
     1127     1127    1                                   'LAST CMD FWD STAT',
     1128     1128    1                                   'REWIND TAPE',
     1129     1129    1                                   'WRT RING PRESENT',
     1130     1130    1                                   'WRT PROJ STAT',
     1131     1131    1                                   'DIAG MODE',
     1132     1132    1                                   'CMD EVEN PAR',
     1133     1133    1                                   ' ',
     1134     1134    1                                   'LOW THRESHOLD STAT',
     1135     1135    1                                   ' ',
     1136     1136    1                                   'MODEL 7 TRACK',
     1137     1137    1                                   'EXCEPTION CHAR',
     1138     1138    1                                   ' ',
     1139     1139    1                                   'DESKEW WIN STAT',
     1140     1140    1                                   ' ',
     1141     1141    1                                   'CHANGE VOLT MODE',
     1142     1142    1                                   'REDUCE WRT CURR',
     1143     1143    1                                   'REDUCE ERS CURR',
     1144     1144    1                                   'RD DESKEW WRAP STAT',
     1145     1145    1                                   'MODEL 50',
     1146     1146    1                                   'LOAD AIR FAILURE',
     1147     1147    1                                   'FILE HUB ENG STAT',
PL6.E3A0      #001=TH_XSTATUS_D File=TH_XSTATUS_D.:E05TSI                        WED 07/30/97 06:19 Page:114
     1148     1148    1                                   'W FAIL TO SHUT STAT',
     1149     1149    1                                   'VAC START UP STAT',
     1150     1150    1                                   'FILE HUB OPEN STAT',
     1151     1151    1                                   'CAN FAIL TO OPEN ST',
     1152     1152    1                                   'SEMI AUTO T/W STAT',
     1153     1153    1                                   'AUTO T/W FAIL STAT',
     1154     1154    1                                   'MACH COL LOAD STAT',
     1155     1155    1                                   'FILE COL LOAD STAT',
     1156     1156    1                                   'DOOR INTLK STAT',
     1157     1157    1                                   'W INTLK OPEN STAT',
     1158     1158    1                                   'FILE HI TAPE STAT',
     1159     1159    1                                   'MACH HI TAPE STAT',
     1160     1160    1                                   'FILE L0 TAPE STAT',
     1161     1161    1                                   'MACH L0 TAPE STAT',
     1162     1162    1                                   'VAC LOSS STAT',
     1163     1163    1                                   'COL VAC MARGIN',
     1164     1164    1                                   'LTOR LAMP STAT',
     1165     1165    1                                   'BOT/EOT LAMP STAT',
     1166     1166    1                                   'CAN FAIL SHUT STAT',
     1167     1167    1                                   'FILE HUB REL STAT',
     1168     1168    1                                   'ERASE CURR FAIL',
     1169     1169    1                                   'WINDOW SAFETY BAR',
     1170     1170    1                                   'OVERTEMP LOGIC MD',
     1171     1171    1                                   'OVERTEMP CAPSTAN',
     1172     1172    1                                   'DC BREAKER SWITCHED',
     1173     1173    1                                   '0V/UV FAIL +05V',
     1174     1174    1                                   '0V/UV FAIL -24V',
     1175     1175    1                                   '0V/UV FAIL +12V',
     1176     1176    1                                   '0V/UV FAIL -12V',
     1177     1177    1                                   '0V/UV FAIL +24V',
     1178     1178    1                                   'OVER SPD STAT',
     1179     1179    1                                   'UNDER SPD STAT',
     1180     1180    1                                   '0V/UV MARGINAL +05V',
     1181     1181    1                                   '0V/UV MARGINAL -24V',
     1182     1182    1                                   '0V/UV MARGINAL +12V',
     1183     1183    1                                   '0V/UV MARGINAL -12V',
     1184     1184    1                                   'START/STOP STAT',
PL6.E3A0      #001=TH_XSTATUS_D File=TH_XSTATUS_D.:E05TSI                        WED 07/30/97 06:19 Page:115
     1185     1185    1                                   'STOP',
     1186     1186    1                                   'PREVIOUS DIR FWD',
     1187     1187    1                                   'DIR REVERSE',
     1188     1188    1                                   'BIDIR SEQ NEEDED',
     1189     1189    1                                   'WRT PERMIT STAT',
     1190     1190    1                                   'WRT AMPL ENABLE',
     1191     1191    1                                   'ENABLE WRT CURR',
     1192     1192    1                                   'UNLOAD TAPE',
     1193     1193    1                                   'REWIND SEARCH TIME',
     1194     1194    1                                   'HIGH SPD DRIVE',
     1195     1195    1                                   'DESKEW CTR ENABLE',
     1196     1196    1                                   'BOT MARKER DET',
     1197     1197    1                                   'EOT MARKER DET',
     1198     1198    1                                   'LTOR MARKER DET',
     1199     1199    1                                   'LTOR STORAGE',
     1200     1200    1                                   'CAPSTAN CMD RUN',
     1201     1201    1                                   'CAPSTAN CMD CW',
     1202     1202    1                                   'CAPSTAN CMD RWD',
     1203     1203    1                                   'CAPSTAN RUN STAT',
     1204     1204    1                                   'CAPSTAN DIR CW STAT',
     1205     1205    1                                   'CAPSTAN RWD CMD STAT',
     1206     1206    1                                   'CAPSTAN .95 SPD',
     1207     1207    1                                   'CAP STS REWINDING',
     1208     1208    1                                   'FILE CMD DRIVE CW',
     1209     1209    1                                   'FILE CMD DRIVE CCW',
     1210     1210    1                                   'FILE CW DRIVE STAT',
     1211     1211    1                                   'FILE CCW DRIVE STAT',
     1212     1212    1                                   'FILE HI SENSOR STAT',
     1213     1213    1                                   'FILE LO SENSOR STAT',
     1214     1214    1                                   'FILE BREAK STAT',
     1215     1215    1                                   'FILE BIAS STAT',
     1216     1216    1                                   'FILE REEL CONT RWD',
     1217     1217    1                                   'FILE CMD INH SENSOR',
     1218     1218    1                                   'FILE REEL CONT MALF',
     1219     1219    1                                   'FILE RWD STAT',
     1220     1220    1                                   'FILE INH SENSOR STS',
     1221     1221    1                                   'FILE CONT MALF STS',
PL6.E3A0      #001=TH_XSTATUS_D File=TH_XSTATUS_D.:E05TSI                        WED 07/30/97 06:19 Page:116
     1222     1222    1                                   'FILE HUB SW STAT',
     1223     1223    1                                   'MALF CLEARED',
     1224     1224    1                                   'TAPE IN FILE COL',
     1225     1225    1                                   'LOW TAPE DET FILE',
     1226     1226    1                                   'TAPE IN MACH COL',
     1227     1227    1                                   'LOW TAPE DET MACH',
     1228     1228    1                                   'MACH CMD DRIVE CW',
     1229     1229    1                                   'MACH CMD DRIVE CCW',
     1230     1230    1                                   'MACH CW DRIVE STAT',
     1231     1231    1                                   'MACH CCW DRIVE STAT',
     1232     1232    1                                   'MACH HI SENSOR STAT',
     1233     1233    1                                   'MACH LO SENSOR STAT',
     1234     1234    1                                   'MACH BREAK STAT',
     1235     1235    1                                   'MACH BIAS STAT',
     1236     1236    1                                   'MACH REEL CONT RWD',
     1237     1237    1                                   'MACH CMD INH SENSOR',
     1238     1238    1                                   'MACH REEL CONT MALF',
     1239     1239    1                                   'MACH RWD STAT',
     1240     1240    1                                   'MACH INH SENSOR STS',
     1241     1241    1                                   'MACH CONT MALF STAT',
     1242     1242    1                                   'TAPE ON MACH REEL',
     1243     1243    1                                   'ENAB USAGE TIME MET',
     1244     1244    1                                   'ENAB HD MOVEMENT',
     1245     1245    1                                   'HD POS RETRACTED',
     1246     1246    1                                   'TAPE TIP SENSED',
     1247     1247    1                                   'DRIVE CANISTER OPEN',
     1248     1248    1                                   'DRIVE CANISTER SHUT',
     1249     1249    1                                   'CANISTER OPEN',
     1250     1250    1                                   'CANISTER SHUT',
     1251     1251    1                                   'CANISTER LOAD',
     1252     1252    1                                   'COUNT BY 00.5 STAT',
     1253     1253    1                                   'COUNT BY 01.0 STAT',
     1254     1254    1                                   'COUNT BY 02.0 STAT',
     1255     1255    1                                   'COUNT BY 04.0 STAT',
     1256     1256    1                                   'COUNT BY 08.0 STAT',
     1257     1257    1                                   'CNT BY 16.0 STAT',
     1258     1258    1                                   'START LOAD SEQ',
PL6.E3A0      #001=TH_XSTATUS_D File=TH_XSTATUS_D.:E05TSI                        WED 07/30/97 06:19 Page:117
     1259     1259    1                                   'MANUAL LOAD STAT',
     1260     1260    1                                   'ENAB XPORT AIR/VAC',
     1261     1261    1                                   'ENAB MACH HUB/VAC',
     1262     1262    1                                   'EN HOLD VAC/SW PRESS',
     1263     1263    1                                   'ENAB CANISTER AIR',
     1264     1264    1                                   'EN RAMP VAC/CLS HUB',
     1265     1265    1                                   'EN FILE HUB PRESS',
     1266     1266    1                                   'ENAB LOAD AIR/VAC',
     1267     1267    1                                   'EN COL AIR/OPEN HUB',
     1268     1268    1                                   'VAC AVAIL',
     1269     1269    1                                   'COL VAC ABOVE MARGIN',
     1270     1270    1                                   'LOAD AIR STAT',
     1271     1271    1                                   'ENAB WINDOW DRIVE',
     1272     1272    1                                   'ENAB WINDOW DIR',
     1273     1273    1                                   'WINDOW UP STAT',
     1274     1274    1                                   'WINDOW DOWN STAT',
     1275     1275    1                                   'DOOR INTLK SW STAT',
     1276     1276    1                                   'INH MOTION/WRT CUR',
     1277     1277    1                                   'EN WRT TO RD AMP',
     1278     1278    1                                   'EN WRT DAT TO RD LN',
     1279     1279    1                                   'WRT WRAP TO RD LN',
     1280     1280    1                                   'BYPASS DESKEW',
     1281     1281    1                                   'LOAD SINGLE CLK MODE',
     1282     1282    1                                   'RUN CAP UNDER SPD',
     1283     1283    1                                   'RUN CAP OVER SPD');
     1284     1284        /**/
     1285     1285        /* FOR TAPE - MTU0610  */
     1286     1286        /**/
     1287     1287    1   DCL 1 MTU_SIX1(0:184) CONSTANT SYMDEF ALIGNED,
     1288     1288    1         2 CODE UBIN BYTE UNAL INIT(0,1,2,3,4,5,6,7,8,9,10,11,12,13,14,
     1289     1289    1                                    15,16,19,20,25,26,27,33,35,40,41,
     1290     1290    1                                    42,43,44,45,46,47,48,49,50,51,
     1291     1291    1                                    56,57,58,59,60,61,62,63,64,65,
     1292     1292    1                                    66,67,68,69,70,71,72,73,74,75,76,77,
     1293     1293    1                                    78,79,80,81,82,83,84,85,86,87,88,90,
     1294     1294    1                                    91,92,93,94,95,96,97,98,99,100,102,
     1295     1295    1                                    103,104,105,106,107,108,109,110,111,
PL6.E3A0      #001=TH_XSTATUS_D File=TH_XSTATUS_D.:E05TSI                        WED 07/30/97 06:19 Page:118
     1296     1296    1                                    112,113,114,115,116,117,118,119,120,
     1297     1297    1                                    121,122,123,124,125,126,127,128,129,
     1298     1298    1                                    130,131,132,133,134,135,136,137,138,
     1299     1299    1                                    140,141,142,143,144,145,146,147,148,
     1300     1300    1                                    149,150,151,152,153,154,155,156,157,
     1301     1301    1                                    158,159,160,161,162,163,164,165,166,
     1302     1302    1                                    167,168,169,170,171,172,173,174,175,
     1303     1303    1                                    176,177,178,179,180,181,182,183,184,
     1304     1304    1                                    185,186,187,188,189,190,191,192,193,
     1305     1305    1                                    194,195,196,197,198,199,200,201,202,
     1306     1306    1                                    203,204,205,206,207),
     1307     1307    1         2 COUNT UBIN BYTE UNAL INIT(14,14,12,9,11,11,7,11,13,12,12,8,
     1308     1308    1                                     13,14,9,12,1,13,1,13,11,1,15,1,
     1309     1309    1                                     19,19,19,20,20,20,20,12,16,15,9,20,
     1310     1310    1                                     15,9,13,17,17,9,12,9,
     1311     1311    1                                     15,9,17,11,15,9,17,11,14,15,14,12,
     1312     1312    1                                     19,19,12,10,16,14,16,15,12,16,14,
     1313     1313    1                                     14,16,18,15,12,13,14,14,14,14,14,
     1314     1314    1                                     14,15,14,11,3,3,10,5,10,14,11,6,9,
     1315     1315    1                                     7,16,5,9,7,15,10,14,14,14,14,14,14,
     1316     1316    1                                     14,14,18,18,18,18,18,18,18,18,15,
     1317     1317    1                                     15,15,17,17,17,17,14,14,14,14,14,14,14,14,
     1318     1318    1                                     16,17,25,19,19,19,8,8,6,13,8,16,7,
     1319     1319    1                                     7,16,1,11,1,16,18,8,12,8,8,17,16,
     1320     1320    1                                     15,14,14,16,18,11,4,4,18,14,11,9,
     1321     1321    1                                     10,16,8,8,8,8,8,8,8,8,15,1,11,10,
     1322     1322    1                                     16,15,15,10),
     1323     1323    1         2 TEXT CHAR(35) UNAL INIT('DEV FAULT STAT',
     1324     1324    1                                   'CMD CODE ERROR',
     1325     1325    1                                   'SIGNAL FAULT',
     1326     1326    1                                   'MULTI BOT',
     1327     1327    1                                   'BOT STORAGE',
     1328     1328    1                                   'EOT STORAGE',
     1329     1329    1                                   'STANDBY',
     1330     1330    1                                   'MARGIN COND',
     1331     1331    1                                   'LOAD SEQ COMP',
     1332     1332    1                                   'LAST CMD WRT',
PL6.E3A0      #001=TH_XSTATUS_D File=TH_XSTATUS_D.:E05TSI                        WED 07/30/97 06:19 Page:119
     1333     1333    1                                   'LAST CMD FWD',
     1334     1334    1                                   'RWD TAPE',
     1335     1335    1                                   'WRT RING PRES',
     1336     1336    1                                   'WRT PERMIT CMD',
     1337     1337    1                                   'DIAG MODE',
     1338     1338    1                                   'CMD EVEN PAR',
     1339     1339    1                                   ' ',
     1340     1340    1                                   'LOW THRESHOLD',
     1341     1341    1                                   ' ',
     1342     1342    1                                   '9 TRACK MODEL',
     1343     1343    1                                   'MUST BE A 1',
     1344     1344    1                                   ' ',
     1345     1345    1                                   'DESKEW WINDOW 1',
     1346     1346    1                                   ' ',
     1347     1347    1                         'THRESHD STAT: BIT 0',
     1348     1348    1                         'THRESHD STAT: BIT 1',
     1349     1349    1                         'THRESHD STAT: BIT 2',
     1350     1350    1                         'DEV LEV REV ST BIT 3',
     1351     1351    1                         'DEV LEV REV ST BIT 4',
     1352     1352    1                         'DEV LEV REV ST BIT 5',
     1353     1353    1                         'DEV LEV REV ST BIT 6',
     1354     1354    1                                   'CANISTER OPT',
     1355     1355    1                                   'INC SPD DETECTED',
     1356     1356    1                                   'LOW COOLING AIR',
     1357     1357    1                                   'OVER TEMP',
     1358     1358    1                                   'LOW AIR BEARING PRES',
     1359     1359    1                                   'ERASE CURR FAIL',
     1360     1360    1                                   'DOOR OPEN',
     1361     1361    1                                   'WRT CURR FAIL',
     1362     1362    1                                   'AIR PRESSURE FAIL',
     1363     1363    1                                   'FIBER OPTICS FAIL',
     1364     1364    1                                   'VOLT FAIL',
     1365     1365    1                                   'COL VAC FAIL',
     1366     1366    1                                   'LOAD FAIL',
     1367     1367    1                                   'DRIVE CART OPEN',
     1368     1368    1                                   'CART OPEN',
     1369     1369    1                                   'DRIVE CART CLOSED',
PL6.E3A0      #001=TH_XSTATUS_D File=TH_XSTATUS_D.:E05TSI                        WED 07/30/97 06:19 Page:120
     1370     1370    1                                   'CART CLOSED',
     1371     1371    1                                   'DRIVE WINDOW UP',
     1372     1372    1                                   'WINDOW UP',
     1373     1373    1                                   'DRIVE WINDOW DOWN',
     1374     1374    1                                   'WINDOW DOWN',
     1375     1375    1                                   'DIV VALVE ENAB',
     1376     1376    1                                   'HD CLEANER ENAB',
     1377     1377    1                                   'PNEUMATIC ENAB',
     1378     1378    1                                   'CART PRESENT',
     1379     1379    1                                   'TAPE PRESENT SENSOR',
     1380     1380    1                                   'TAPE TENSION SENSOR',
     1381     1381    1                                   'REELS LOADED',
     1382     1382    1                                   'COL LOADED',
     1383     1383    1                                   'MACH REEL THREAD',
     1384     1384    1                                   'MACH REEL WRAP',
     1385     1385    1                                   'MACH REEL UNLOAD',
     1386     1386    1                                   'MACH REEL BREAK',
     1387     1387    1                                   'MACH REEL CW',
     1388     1388    1                                   'MACH REEL DR CCW',
     1389     1389    1                                   'MACH REEL ENAB',
     1390     1390    1                                   'MACH REEL STAT',
     1391     1391    1                                   'FILE REEL THREAD',
     1392     1392    1                                   'FILE REEL UNLOADED',
     1393     1393    1                                   'FILE REEL BREAK',
     1394     1394    1                                   'FILE REEL CW',
     1395     1395    1                                   'FILE REEL CCW',
     1396     1396    1                                   'FILE REEL ENAB',
     1397     1397    1                                   'FILE REEL STAT',
     1398     1398    1                                   'MACH TAPE TACH',
     1399     1399    1                                   'FILE TAPE TACH',
     1400     1400    1                                   'CAPSTAN TACH A',
     1401     1401    1                                   'CAPSTAN TACH B',
     1402     1402    1                                   'NORM LOOP FAULT',
     1403     1403    1                                   'CART AIR DR ON',
     1404     1404    1                                   'BOT PRESENT',
     1405     1405    1                                   'RUN',
     1406     1406    1                                   'FWD',
PL6.E3A0      #001=TH_XSTATUS_D File=TH_XSTATUS_D.:E05TSI                        WED 07/30/97 06:19 Page:121
     1407     1407    1                                   'CAPSTAN GO',
     1408     1408    1                                   'HITCH',
     1409     1409    1                                   'HI SPD RWD',
     1410     1410    1                                   'HI SPD CONTROL',
     1411     1411    1                                   'POSITIONING',
     1412     1412    1                                   'PARKED',
     1413     1413    1                                   'HIGH CURR',
     1414     1414    1                                   'DEGAUSS',
     1415     1415    1                                   'DATA SECUR ERASE',
     1416     1416    1                                   'ERASE',
     1417     1417    1                                   'DATA WRAP',
     1418     1418    1                                   'AGC MAX',
     1419     1419    1                                   'LOW TAPE SENSOR',
     1420     1420    1                                   'EOT SENSOR',
     1421     1421    1                                   'IBG CTR BIT T8',
     1422     1422    1                                   'IBG CTR BIT T4',
     1423     1423    1                                   'IBG CTR BIT T2',
     1424     1424    1                                   'IBG CTR BIT T1',
     1425     1425    1                                   'IBG CTR BIT U8',
     1426     1426    1                                   'IBG CTR BIT U4',
     1427     1427    1                                   'IBG CTR BIT U2',
     1428     1428    1                                   'IBG CTR BIT U1',
     1429     1429    1                                   'PE/NRZI/GCR: BIT 0',
     1430     1430    1                                   'PE/NRZI/GCR: BIT 1',
     1431     1431    1                                   'PE/NRZI/GCR: BIT 2',
     1432     1432    1                                   'PE/NRZI/GCR: BIT 3',
     1433     1433    1                                   'PE/NRZI/GCR: BIT 4',
     1434     1434    1                                   'PE/NRZI/GCR: BIT 5',
     1435     1435    1                                   'PE/NRZI/GCR: BIT 6',
     1436     1436    1                                   'PE/NRZI/GCR: BIT 7',
     1437     1437    1                                   'BYTE 16 PAR BIT',
     1438     1438    1                                   'BYTE 18 PAR BIT',
     1439     1439    1                                   'BYTE 19 PAR BIT',
     1440     1440    1                                   'MTH PORT #: BIT 4',
     1441     1441    1                                   'MTH PORT #: BIT 5',
     1442     1442    1                                   'MTH PORT #: BIT 6',
     1443     1443    1                                   'MTH PORT #: BIT 7',
PL6.E3A0      #001=TH_XSTATUS_D File=TH_XSTATUS_D.:E05TSI                        WED 07/30/97 06:19 Page:122
     1444     1444    1                                   'PE/NRZI: BIT 0',
     1445     1445    1                                   'PE/NRZI: BIT 1',
     1446     1446    1                                   'PE/NRZI: BIT 2',
     1447     1447    1                                   'PE/NRZI: BIT 3',
     1448     1448    1                                   'PE/NRZI: BIT 4',
     1449     1449    1                                   'PE/NRZI: BIT 5',
     1450     1450    1                                   'PE/NRZI: BIT 6',
     1451     1451    1                                   'PE/NRZI: BIT 7',
     1452     1452    1                                   '1 TRACK IN ERROR',
     1453     1453    1                                   '2 TRACKS IN ERROR',
     1454     1454    1                                   '3 OR MORE TRACKS IN ERROR',
     1455     1455    1                                   '5 CHAR OF SK IN WRT',
     1456     1456    1                                   '10 CHAR OF SK IN WT',
     1457     1457    1                                   '25 CHAR OF SK IN WT',
     1458     1458    1                                   'EC ERROR',
     1459     1459    1                                   'AG ERROR',
     1460     1460    1                                   'DOS OK',
     1461     1461    1                                   'GCR UNDER SPD',
     1462     1462    1                                   'DOS DROP',
     1463     1463    1                                   'TRANS TIMING ERR',
     1464     1464    1                                   'OPER IN',
     1465     1465    1                                   'RAW DOS',
     1466     1466    1                                   'DATA OUT PAR ERR',
     1467     1467    1                                   '0',
     1468     1468    1                                   'A/C PAR ERR',
     1469     1469    1                                   '0',
     1470     1470    1                                   '1 OR MORE ENV UP',
     1471     1471    1                                   'SEL OR ANY DEV CEN',
     1472     1472    1                                   'REQ ACCT',
     1473     1473    1                                   'CB INTERRUPT',
     1474     1474    1                                   'DROP OUT',
     1475     1475    1                                   'HAD DATA',
     1476     1476    1                                   'MTH STAT REG FULL',
     1477     1477    1                                   'MTH STAT PAR ERR',
     1478     1478    1                                   'PE/NRZI PAR ERR',
     1479     1479    1                                   'E3 REG PAR BIT',
     1480     1480    1                                   'E2 REG PAR BIT',
PL6.E3A0      #001=TH_XSTATUS_D File=TH_XSTATUS_D.:E05TSI                        WED 07/30/97 06:19 Page:123
     1481     1481    1                                   'TRANS TIMING ERR',
     1482     1482    1                                   'PE MULTI-TRACK ERR',
     1483     1483    1                                   'PE OVERLOAD',
     1484     1484    1                                   'C2 1',
     1485     1485    1                                   'C2 0',
     1486     1486    1                                   'ILL CODE CONV CHAR',
     1487     1487    1                                   'MOD 4 LENG ERR',
     1488     1488    1                                   'LATERAL ERR',
     1489     1489    1                                   'PAR ERROR',
     1490     1490    1                                   'R4 PAR ERR',
     1491     1491    1                                   'DATA OUT PAR ERR',
     1492     1492    1                                   '0: BIT 0',
     1493     1493    1                                   '0: BIT 1',
     1494     1494    1                                   '0: BIT 2',
     1495     1495    1                                   '0: BIT 3',
     1496     1496    1                                   'BOARD CB',
     1497     1497    1                                   'BOARD RC',
     1498     1498    1                                   'BOARD FX',
     1499     1499    1                                   'BOARD WD',
     1500     1500    1                                   'PORT-1 SELECTED',
     1501     1501    1                                   '0',
     1502     1502    1                                   'A/C PAR ERR',
     1503     1503    1                                   'DO PAR ERR',
     1504     1504    1                                   'OPC ZERO CHANGED',
     1505     1505    1                                   'OPC ONE CHANGED',
     1506     1506    1                                   'WRT BUF PAR ERR',
     1507     1507    1                                     'R0 PAR ERR');
     1508     1508        /**/
     1509     1509        /* FOR TAPE - MTU0630 */
     1510     1510        /**/
     1511     1511    1   DCL 1 MTU_SIX2(0:176) CONSTANT SYMDEF ALIGNED,
     1512     1512    1         2 CODE UBIN BYTE UNAL INIT(0,1,2,3,4,5,6,7,8,9,10,11,12,13,14,
     1513     1513    1                                    15,16,19,20,24,27,33,35,40,41,42,
     1514     1514    1                                    43,44,45,46,47,48,49,50,51,56,57,58,
     1515     1515    1                                    59,60,61,62,63,64,65,66,67,68,69,70,
     1516     1516    1                                    71,72,73,75,77,78,79,80,81,82,84,85,
     1517     1517    1                                    86,88,90,91,93,94,95,96,97,98,99,
PL6.E3A0      #001=TH_XSTATUS_D File=TH_XSTATUS_D.:E05TSI                        WED 07/30/97 06:19 Page:124
     1518     1518    1                                    101,102,103,104,105,106,107,108,109,
     1519     1519    1                                    110,112,113,114,115,116,117,118,119,
     1520     1520    1                                    120,121,122,123,124,125,127,128,129,
     1521     1521    1                                    130,131,132,133,134,135,136,137,138,
     1522     1522    1                                    140,141,142,143,144,145,146,147,148,
     1523     1523    1                                    149,150,151,152,153,154,155,156,157,
     1524     1524    1                                    158,159,160,161,162,163,164,165,166,
     1525     1525    1                                    167,168,169,170,171,172,173,174,175,
     1526     1526    1                                    176,177,178,179,180,181,182,183,184,
     1527     1527    1                                    185,186,187,188,189,190,191,192,193,
     1528     1528    1                                    194,195,196,197,198,199,200,201,202,
     1529     1529    1                                    203,204,205,206,207),
     1530     1530    1         2 COUNT UBIN BYTE UNAL INIT(12,12,12,12,11,11,7,13,13,12,12,11,
     1531     1531    1                                     16,14,9,15,1,13,1,22,1,13,1,16,12,
     1532     1532    1                                     16,21,21,21,21,16,16,15,20,9,22,18,16,
     1533     1533    1                                     15,15,15,15,15,17,17,17,17,17,17,17,
     1534     1534    1                                     17,17,17,14,9,9,14,22,18,21,14,16,
     1535     1535    1                                     19,18,19,20,15,12,13,21,19,20,20,
     1536     1536    1                                     15,19,19,6,17,20,17,12,12,12,11,10,
     1537     1537    1                                     14,6,12,12,16,8,12,6,12,19,11,13,9,
     1538     1538    1                                     18,18,18,18,18,18,18,18,15,
     1539     1539    1                                     15,15,17,17,17,17,14,14,14,14,14,14,14,14,
     1540     1540    1                                     16,17,25,19,19,19,8,8,6,13,8,16,7,
     1541     1541    1                                     7,16,1,11,1,16,18,8,12,8,8,17,16,
     1542     1542    1                                     15,14,14,16,18,11,4,4,18,14,11,9,
     1543     1543    1                                     10,16,8,8,8,8,8,8,8,8,15,1,11,10,
     1544     1544    1                                     16,15,15,10),
     1545     1545    1         2 TEXT CHAR(35) UNAL INIT('DEVICE FAULT',
     1546     1546    1                                  'CMD CODE ERR',
     1547     1547    1                                  'SIGNAL FAULT',
     1548     1548    1                                  'MULTIPLE BOT',
     1549     1549    1                                  'BOT STORAGE',
     1550     1550    1                                  'EOT STORAGE',
     1551     1551    1                                  'STANDBY',
     1552     1552    1                                  'MARGINAL COND',
     1553     1553    1                                  'LOAD SEQ COMP',
     1554     1554    1                                  'LAST CMD WRT',
PL6.E3A0      #001=TH_XSTATUS_D File=TH_XSTATUS_D.:E05TSI                        WED 07/30/97 06:19 Page:125
     1555     1555    1                                  'LAST CMD FWD',
     1556     1556    1                                  'REWIND TAPE',
     1557     1557    1                                  'WRT RING PRESENT',
     1558     1558    1                                  'WRT PERMIT CMD',
     1559     1559    1                                  'DIAG MODE',
     1560     1560    1                                  'CMD EVEN PARITY',
     1561     1561    1                                  ' ',
     1562     1562    1                                  'LOW THRESHOLD',
     1563     1563    1                                  ' ',
     1564     1564    1                                  'DATA SECRTY ERASE EXEC',
     1565     1565    1                                  ' ',
     1566     1566    1                                  'DESKEW WINDOW',
     1567     1567    1                                  ' ',
     1568     1568    1                                  'MARG CAPSTAN SPD',
     1569     1569    1                                  'MARGINAL GAP',
     1570     1570    1                                  'MARG AIR BEARING',
     1571     1571    1                                  'DEV LEV REV ST: BIT 3',
     1572     1572    1                                  'DEV LEV REV ST: BIT 4',
     1573     1573    1                                  'DEV LEV REV ST: BIT 5',
     1574     1574    1                                  'DEV LEV REV ST: BIT 6',
     1575     1575    1                                  'CANNISTER OPTION',
     1576     1576    1                                  'WRT CURRENT FAIL',
     1577     1577    1                                  'ERASE CURR FAIL',
     1578     1578    1                                  'PRESSURE OR VAC FAIL',
     1579     1579    1                                  'DOOR OPEN',
     1580     1580    1                                  'REGULATED VOLT MISSING',
     1581     1581    1                                  'UNREG VOLT MISSING',
     1582     1582    1                                  'MARGINAL VOLTAGE',
     1583     1583    1                                  'SUB TEST: BIT 3',
     1584     1584    1                                  'SUB TEST: BIT 4',
     1585     1585    1                                  'SUB TEST: BIT 5',
     1586     1586    1                                  'SUB TEST: BIT 6',
     1587     1587    1                                  'SUB TEST: BIT 7',
     1588     1588    1                                  'FAULT CODE: BIT 0',
     1589     1589    1                                  'FAULT CODE: BIT 1',
     1590     1590    1                                  'FAULT CODE: BIT 2',
     1591     1591    1                                  'FAULT CODE: BIT 3',
PL6.E3A0      #001=TH_XSTATUS_D File=TH_XSTATUS_D.:E05TSI                        WED 07/30/97 06:19 Page:126
     1592     1592    1                                  'FAULT CODE: BIT 4',
     1593     1593    1                                  'FAULT CODE: BIT 5',
     1594     1594    1                                  'FAULT CODE: BIT 6',
     1595     1595    1                                  'FAULT CODE: BIT 7',
     1596     1596    1                                  'CARTRIDGE PRESENT',
     1597     1597    1                                  'CART ANALOG DRIVE',
     1598     1598    1                                  'CARTRIDGE OPEN',
     1599     1599    1                                  'WINDOW UP',
     1600     1600    1                                  'ARA CHECK',
     1601     1601    1                                  'PROCESSER FAIL',
     1602     1602    1                                  'THREAD VALVE SOL DRVER',
     1603     1603    1                                  'DIVERTER VALVE RUN',
     1604     1604    1                                  'DIVERTER VALVE THREAD',
     1605     1605    1                                  'PRESSURE AVAIL',
     1606     1606    1                                  'THREAD VAC AVAIL',
     1607     1607    1                                  'RUN SOLENOID DRIVER',
     1608     1608    1                                  'ENABLE DETAIL STAT',
     1609     1609    1                                  'FILE REEL ANALOG CW',
     1610     1610    1                                  'FILE REEL ANALOG CCW',
     1611     1611    1                                  'FILE COL LOADED',
     1612     1612    1                                  'ENABLE REELS',
     1613     1613    1                                  'COL VAC AVAIL',
     1614     1614    1                                  'RUN VALVE SOLENOID DR',
     1615     1615    1                                  'WINDOW LATCH SOL DR',
     1616     1616    1                                  'MACHINE REEL ANAL CW',
     1617     1617    1                                  'MACH REEL ANALOG CCW',
     1618     1618    1                                  'MACH COL LOADED',
     1619     1619    1                                  'MACHINE REEL LOADED',
     1620     1620    1                                  'TAPE TENSION THREAD',
     1621     1621    1                                  'REWIND',
     1622     1622    1                                  'HIGH SPEED REWIND',
     1623     1623    1                                  'HIGH SPD FOOT SOL DR',
     1624     1624    1                                  'HIGH SPD FOOT POS',
     1625     1625    1                                  'LOW SPD AREA',
     1626     1626    1                                  'BOT DETECTED',
     1627     1627    1                                  'EOT DETECTED',
     1628     1628    1                                  'DLI RUN CMD',
PL6.E3A0      #001=TH_XSTATUS_D File=TH_XSTATUS_D.:E05TSI                        WED 07/30/97 06:19 Page:127
     1629     1629    1                                  'CAPSTAN GO',
     1630     1630    1                                  'FORWARD MOTION',
     1631     1631    1                                  'PARKED',
     1632     1632    1                                  'TACH PHASE A',
     1633     1633    1                                  'TACH PHASE B',
     1634     1634    1                                  'EPO RELAY SOL DR',
     1635     1635    1                                  'Z80 BUSY',
     1636     1636    1                                  'NRZI CURRENT',
     1637     1637    1                                  'DEGAUS',
     1638     1638    1                                  'ENABLE ERASE',
     1639     1639    1                                  'DATA SEC ERASE MODE',
     1640     1640    1                                  'CURRENT WRT',
     1641     1641    1                                  'CURRENT ERASE',
     1642     1642    1                                  'DATA WRAP',
     1643     1643    1                                   'PE/NRZI/GCR: BIT 0',
     1644     1644    1                                   'PE/NRZI/GCR: BIT 1',
     1645     1645    1                                   'PE/NRZI/GCR: BIT 2',
     1646     1646    1                                   'PE/NRZI/GCR: BIT 3',
     1647     1647    1                                   'PE/NRZI/GCR: BIT 4',
     1648     1648    1                                   'PE/NRZI/GCR: BIT 5',
     1649     1649    1                                   'PE/NRZI/GCR: BIT 6',
     1650     1650    1                                   'PE/NRZI/GCR: BIT 7',
     1651     1651    1                                   'BYTE 16 PAR BIT',
     1652     1652    1                                   'BYTE 18 PAR BIT',
     1653     1653    1                                   'BYTE 19 PAR BIT',
     1654     1654    1                                   'MTH PORT #: BIT 4',
     1655     1655    1                                   'MTH PORT #: BIT 5',
     1656     1656    1                                   'MTH PORT #: BIT 6',
     1657     1657    1                                   'MTH PORT #: BIT 7',
     1658     1658    1                                   'PE/NRZI: BIT 0',
     1659     1659    1                                   'PE/NRZI: BIT 1',
     1660     1660    1                                   'PE/NRZI: BIT 2',
     1661     1661    1                                   'PE/NRZI: BIT 3',
     1662     1662    1                                   'PE/NRZI: BIT 4',
     1663     1663    1                                   'PE/NRZI: BIT 5',
     1664     1664    1                                   'PE/NRZI: BIT 6',
     1665     1665    1                                   'PE/NRZI: BIT 7',
PL6.E3A0      #001=TH_XSTATUS_D File=TH_XSTATUS_D.:E05TSI                        WED 07/30/97 06:19 Page:128
     1666     1666    1                                   '1 TRACK IN ERROR',
     1667     1667    1                                   '2 TRACKS IN ERROR',
     1668     1668    1                                   '3 OR MORE TRACKS IN ERROR',
     1669     1669    1                                   '5 CHAR OF SK IN WRT',
     1670     1670    1                                   '10 CHAR OF SK IN WT',
     1671     1671    1                                   '25 CHAR OF SK IN WT',
     1672     1672    1                                   'EC ERROR',
     1673     1673    1                                   'AG ERROR',
     1674     1674    1                                   'DOS OK',
     1675     1675    1                                   'GCR UNDER SPD',
     1676     1676    1                                   'DOS DROP',
     1677     1677    1                                   'TRANS TIMING ERR',
     1678     1678    1                                   'OPER IN',
     1679     1679    1                                   'RAW DOS',
     1680     1680    1                                   'DATA OUT PAR ERR',
     1681     1681    1                                   '0',
     1682     1682    1                                   'A/C PAR ERR',
     1683     1683    1                                   '0',
     1684     1684    1                                   '1 OR MORE ENV UP',
     1685     1685    1                                   'SEL OR ANY DEV CEN',
     1686     1686    1                                   'REQ ACCT',
     1687     1687    1                                   'CB INTERRUPT',
     1688     1688    1                                   'DROP OUT',
     1689     1689    1                                   'HAD DATA',
     1690     1690    1                                   'MTH STAT REG FULL',
     1691     1691    1                                   'MTH STAT PAR ERR',
     1692     1692    1                                   'PE/NRZI PAR ERR',
     1693     1693    1                                   'E3 REG PAR BIT',
     1694     1694    1                                   'E2 REG PAR BIT',
     1695     1695    1                                   'TRANS TIMING ERR',
     1696     1696    1                                   'PE MULTI-TRACK ERR',
     1697     1697    1                                   'PE OVERLOAD',
     1698     1698    1                                   'C2 1',
     1699     1699    1                                   'C2 0',
     1700     1700    1                                   'ILL CODE CONV CHAR',
     1701     1701    1                                   'MOD 4 LENG ERR',
     1702     1702    1                                   'LATERAL ERR',
PL6.E3A0      #001=TH_XSTATUS_D File=TH_XSTATUS_D.:E05TSI                        WED 07/30/97 06:19 Page:129
     1703     1703    1                                   'PAR ERROR',
     1704     1704    1                                   'R4 PAR ERR',
     1705     1705    1                                   'DATA OUT PAR ERR',
     1706     1706    1                                   '0: BIT 0',
     1707     1707    1                                   '0: BIT 1',
     1708     1708    1                                   '0: BIT 2',
     1709     1709    1                                   '0: BIT 3',
     1710     1710    1                                   'BOARD CB',
     1711     1711    1                                   'BOARD RC',
     1712     1712    1                                   'BOARD FX',
     1713     1713    1                                   'BOARD WD',
     1714     1714    1                                   'PORT-1 SELECTED',
     1715     1715    1                                   '0',
     1716     1716    1                                   'A/C PAR ERR',
     1717     1717    1                                   'DO PAR ERR',
     1718     1718    1                                   'OPC ZERO CHANGED',
     1719     1719    1                                   'OPC ONE CHANGED',
     1720     1720    1                                   'WRT BUF PAR ERR',
     1721     1721    1                                   'RO PAR ERR');
     1722     1722        /**/
     1723     1723        /* STC TAPE - 4600 series                                        */
     1724     1724        /**/
     1725     1725    1   DCL 1 MTU_EIGHTY2(0:81) CONSTANT SYMDEF ALIGNED,
     1726     1726    1         2 CODE UBIN BYTE UNAL INIT(0,1,2,3,4,5,6,8,9,10,12,13,14,15,16,17,
     1727     1727    1                                    18,19,20,21,22,23,24,25,26,27,28,29,30,31,32,33,
     1728     1728    1                                    34,35,37,38,41,42,43,45,46,49,50,53,56,57,
     1729     1729    1                                    58,59,60,61,63,64,72,73,74,75,76,79,80,83,
     1730     1730    1                                    85,87,91,136,137,152,153,154,155,156,157,158,
     1731     1731    1                                    159,160,161,162,163,164,165,166,167,176),
     1732     1732    1         2 COUNT UBIN BYTE UNAL INIT(14,21,13,15,10,7,15,5,11,11,3,12,12,11,10,10,
     1733     1733    1                                     10,10,10,10,10,10,7,7,10,7,7,1,15,11,12,9,
     1734     1734    1                                     13,9,3,8,14,9,14,14,15,11,5,1,10,17,
     1735     1735    1                                     20,9,9,11,10,12,15,15,20,7,8,12,21,19,
     1736     1736    1                                     18,14,9,18,12,9,9,9,9,9,9,9,
     1737     1737    1                                     9,9,9,9,9,9,9,9,9,1),
     1738     1738    1         2 TEXT CHAR(35) UNAL INIT('COMMAND REJECT',
     1739     1739    1                                   'INTERVENTION REQUIRED',
PL6.E3A0      #001=TH_XSTATUS_D File=TH_XSTATUS_D.:E05TSI                        WED 07/30/97 06:19 Page:130
     1740     1740    1                                   'BUS OUT CHECK',
     1741     1741    1                                   'EQUIPMENT CHECK',
     1742     1742    1                                   'DATA CHECK',
     1743     1743    1                                   'OVERRUN',
     1744     1744    1                                   'WORD COUNT ZERO',
     1745     1745    1                                   'NOISE',
     1746     1746    1                                   'TU STATUS A',
     1747     1747    1                                   'TU STATUS B',
     1748     1748    1                                   'BOT',
     1749     1749    1                                   'WRITE STATUS',
     1750     1750    1                                   'FILE PROTECT',
     1751     1751    1                                   'NOT CAPABLE',
     1752     1752    1                                   'TIE: BIT 0',
     1753     1753    1                                   'TIE: BIT 1',
     1754     1754    1                                   'TIE: BIT 2',
     1755     1755    1                                   'TIE: BIT 3',
     1756     1756    1                                   'TIE: BIT 4',
     1757     1757    1                                   'TIE: BIT 5',
     1758     1758    1                                   'TIE: BIT 6',
     1759     1759    1                                   'TIE: BIT 7',
     1760     1760    1                                   'R/W VRC',
     1761     1761    1                                   'MTE/LRC',
     1762     1762    1                                   'SKEW ERROR',
     1763     1763    1                                   'EDC/CRC',
     1764     1764    1                                   'ENV/ECC',
     1765     1765    1                                   ' ',
     1766     1766    1                                   'BACKWARD STATUS',
     1767     1767    1                                   'C/P COMPARE',
     1768     1768    1                                   'MP HDW CHECK',
     1769     1769    1                                   'REJECT TU',
     1770     1770    1                                   'TAPE INDICATE',
     1771     1771    1                                   'WRITE VRC',
     1772     1772    1                                   'LWR',
     1773     1773    1                                   'TU CHECK',
     1774     1774    1                                   '4600 SUBSYSTEM',
     1775     1775    1                                   'WTM CHECK',
     1776     1776    1                                   'ID BURST CHECK',
PL6.E3A0      #001=TH_XSTATUS_D File=TH_XSTATUS_D.:E05TSI                        WED 07/30/97 06:19 Page:131
     1777     1777    1                                   'PARTIAL RECORD',
     1778     1778    1                                   'POSTAMBLE ERROR',
     1779     1779    1                                   'WRITE CHECK',
     1780     1780    1                                   'DD TU',
     1781     1781    1                                   ' ',
     1782     1782    1                                   'COLUMN OUT',
     1783     1783    1                                   'FILE COLUMN CHECK',
     1784     1784    1                                   'MACHINE COLUMN CHECK',
     1785     1785    1                                   'RESET KEY',
     1786     1786    1                                   'DSE CHECK',
     1787     1787    1                                   'ERASE CHECK',
     1788     1788    1                                   'LOAD CHECK',
     1789     1789    1                                   'IBG DETECTED',
     1790     1790    1                                   '6250 CORRECTION',
     1791     1791    1                                   'VELOCITY CHANGE',
     1792     1792    1                                   'CHANNEL BUFFER CHECK',
     1793     1793    1                                   'CRC III',
     1794     1794    1                                   '6250 BPI',
     1795     1795    1                                   'TCU RESERVED',
     1796     1796    1                                   'COMMAND STATUS REJECT',
     1797     1797    1                                   'RECORD NOT DETECTED',
     1798     1798    1                                   'TACH START FAILURE',
     1799     1799    1                                   'VELOCITY CHECK',
     1800     1800    1                                   'CMD RETRY',
     1801     1801    1                                   'TWO CHANNEL SWITCH',
     1802     1802    1                                   'COMMUNICATOR',
     1803     1803    1                                   'TU 7 BUSY',
     1804     1804    1                                   'TU 6 BUSY',
     1805     1805    1                                   'TU 5 BUSY',
     1806     1806    1                                   'TU 4 BUSY',
     1807     1807    1                                   'TU 3 BUSY',
     1808     1808    1                                   'TU 2 BUSY',
     1809     1809    1                                   'TU 1 BUSY',
     1810     1810    1                                   'TU 0 BUSY',
     1811     1811    1                                   'TU F BUSY',
     1812     1812    1                                   'TU E BUSY',
     1813     1813    1                                   'TU D BUSY',
PL6.E3A0      #001=TH_XSTATUS_D File=TH_XSTATUS_D.:E05TSI                        WED 07/30/97 06:19 Page:132
     1814     1814    1                                   'TU C BUSY',
     1815     1815    1                                   'TU B BUSY',
     1816     1816    1                                   'TU A BUSY',
     1817     1817    1                                   'TU 9 BUSY',
     1818     1818    1                                   'TU 8 BUSY',
     1819     1819    1                                   ' ');
     1820     1820        /**/
     1821     1821        /* FOR CARD READER AND CARD PUNCHER - CRU1050, PCU0120 AND PCU0121 */
     1822     1822        /*                                    NO EX STAT INTERP FOR CRU0501 */
     1823     1823        /**/
     1824     1824    1   DCL 1 CR_CP(0:55) CONSTANT SYMDEF ALIGNED,
     1825     1825    1         2 CODE UBIN BYTE UNAL INIT(0,1,2,3,4,5,8,9,10,11,16,17,18,19,
     1826     1826    1                                    20,21,22,23,24,25,26,27,28,29,30,31,
     1827     1827    1                                    32,33,34,35,36,37,38,39,40,41,42,43,
     1828     1828    1                                    44,45,46,47,48,49,50,51,52,53,54,55,
     1829     1829    1                                    56,64,65,66,67,68),
     1830     1830    1         2 COUNT UBIN BYTE UNAL INIT(15,15,20,15,16,11,14,14,15,15,14,
     1831     1831    1                                     11,15,15,15,15,15,15,11,15,14,9,
     1832     1832    1                                     9,10,12,11,12,12,17,10,16,16,13,
     1833     1833    1                                     9,12,16,16,16,16,16,16,14,11,14,
     1834     1834    1                                     9,12,17,12,15,15,14,17,13,7,17,15),
     1835     1835    1         2 TEXT CHAR(35) UNAL INIT('PUNCH STAT PRES',
     1836     1836    1                                   'PUNCH BUF ALLOW',
     1837     1837    1                                   'JAM: RD & PUNCH STAT',
     1838     1838    1                                   'JAM ON INC FAIL',
     1839     1839    1                                   'JAM ON EXTRA STR',
     1840     1840    1                                   'BNK DATA FD',
     1841     1841    1                                   'PUNCH ERR COL1',
     1842     1842    1                                   'PUNCH ERR COL2',
     1843     1843    1                                   'PUNCH ERR COL41',
     1844     1844    1                                   'PUNCH ERR COL42',
     1845     1845    1                                   'DISCNCT TO DOE',
     1846     1846    1                                   'INHIBIT EV3',
     1847     1847    1                                   'SET APM1 TO DOE',
     1848     1848    1                                   'SET APM2 TO DOE',
     1849     1849    1                                   'SET APM3 TO DOE',
     1850     1850    1                                   'SET APM4 TO DOE',
PL6.E3A0      #001=TH_XSTATUS_D File=TH_XSTATUS_D.:E05TSI                        WED 07/30/97 06:19 Page:133
     1851     1851    1                                   'SET APM5 TO DOE',
     1852     1852    1                                   'LOWER LT TO DOE',
     1853     1853    1                                   'RD COMP ERR',
     1854     1854    1                                   'ALL LT/DK CHECK',
     1855     1855    1                                   'STROBE CNT ERR',
     1856     1856    1                                   'TRANS ERR',
     1857     1857    1                                   'ILL PUNCH',
     1858     1858    1                                   'BLANK CARD',
     1859     1859    1                                   'ADDR INC CMD',
     1860     1860    1                                   'EV1 PRESENT',
     1861     1861    1                                   'HOPPER EMPTY',
     1862     1862    1                                   'STACKER FULL',
     1863     1863    1                                   'ANTI FOUNTAIN OFF',
     1864     1864    1                                   'THROAT ERR',
     1865     1865    1                                   'JPK/JRK TYPE JAM',
     1866     1866    1                                   'JAM IN KICK STAT',
     1867     1867    1                                   'CHAD BOX FULL',
     1868     1868    1                                   'INTERLOCK',
     1869     1869    1                                   'BOARD CODE 0',
     1870     1870    1                                   'BOARD CODE LOG 1',
     1871     1871    1                                   'BOARD CODE LOG 2',
     1872     1872    1                                   'BOARD CODE LOG 3',
     1873     1873    1                                   'BOARD CODE LOG 4',
     1874     1874    1                                   'BOARD CODE LOG 5',
     1875     1875    1                                   'JAM IN WAIT STAT',
     1876     1876    1                                   'JAM IN RD STAT',
     1877     1877    1                                   'EV2 PRESENT',
     1878     1878    1                                   'END OF PROCESS',
     1879     1879    1                                   'DEV READY',
     1880     1880    1                                   'DATA PAR ERR',
     1881     1881    1                                   'RD LAMP VOLT MARG',
     1882     1882    1                                   '+5 VOLTS LOW',
     1883     1883    1                                   'PUNCH LAMP MARG',
     1884     1884    1                                   'INDEX TIME MARG',
     1885     1885    1                                   'CHECK BYTE CNT',
     1886     1886    1                                   'RESIDUAL BYTE CNT',
     1887     1887    1                                   'BUF CHECK ERR',
PL6.E3A0      #001=TH_XSTATUS_D File=TH_XSTATUS_D.:E05TSI                        WED 07/30/97 06:19 Page:134
     1888     1888    1                                   'ILL EV1',
     1889     1889    1                                   'NO END OF PROCESS',
     1890     1890    1                                   'DEV TIME RUNOUT');
     1891     1891        /**/
     1892     1892        /* FOR PRINTER - PRU1200,PRU1600; OF PR54Es */
     1893     1893        /**/
     1894     1894    1   DCL 1 PR54E(0:75) CONSTANT SYMDEF ALIGNED,
     1895     1895    1         2 CODE UBIN BYTE UNAL INIT(0,6,7,8,9,10,11,12,13,14,15,16,17,
     1896     1896    1                               18,19,20,21,22,23,24,25,32,33,34,35,36,
     1897     1897    1                               42,45,48,50,54,56,58,59,60,64,65,66,67,
     1898     1898    1                               69,72,73,75,76,77,78,79,80,88,89,90,91,
     1899     1899    1                               92,93,94,95,96,97,100,101,102,103,104,
     1900     1900    1                               105,106,107,108,109,110,111,112,113,116,
     1901     1901    1                               117,118,119),
     1902     1902    1         2 COUNT UBIN BYTE UNAL INIT(13,14,14,14,14,14,14,14,14,14,14,
     1903     1903    1                                     20,20,23,17,20,20,24,24,16,12,5,
     1904     1904    1                                     10,11,15,12,20,12,16,15,17,14,16,
     1905     1905    1                                     9,9,14,21,19,10,11,10,10,12,11,11,
     1906     1906    1                                     12,10,17,18,18,18,18,18,18,18,18,
     1907     1907    1                                     18,18,20,20,20,20,16,16,16,16,16,
     1908     1908    1                                     16,16,16,16,16,20,20,20,20),
     1909     1909    1         2 TEXT CHAR(35) UNAL INIT('BELT IMAGE LD',
     1910     1910    1                                   'BELT NO BIT 00',
     1911     1911    1                                   'BELT NO BIT 01',
     1912     1912    1                                   'BELT NO BIT 02',
     1913     1913    1                                   'BELT NO BIT 03',
     1914     1914    1                                   'BELT NO BIT 04',
     1915     1915    1                                   'BELT NO BIT 05',
     1916     1916    1                                   'BELT NO BIT 06',
     1917     1917    1                                   'BELT NO BIT 07',
     1918     1918    1                                   'BELT NO BIT 08',
     1919     1919    1                                   'BELT NO BIT 09',
     1920     1920    1                                   '# OF COL CODE: BIT 0',
     1921     1921    1                                   '# OF COL CODE: BIT 1',
     1922     1922    1                                   '# OF COL CODE: 136 COLS',
     1923     1923    1                                   'SPEED CODE: BIT 3',
     1924     1924    1                                   'SPEED CODE: 1600 LPM',
PL6.E3A0      #001=TH_XSTATUS_D File=TH_XSTATUS_D.:E05TSI                        WED 07/30/97 06:19 Page:135
     1925     1925    1                                   'SPEED CODE: 1200 LPM',
     1926     1926    1                                   'PRT DEN CODE: 8 LINES/IN',
     1927     1927    1                                   'PRT DEN CODE: 6 LINES/IN',
     1928     1928    1                                   'VFC IMAGE LOADED',
     1929     1929    1                                   'VFC SYNC BIT',
     1930     1930    1                                   'READY',
     1931     1931    1                                   'INITIALIZE',
     1932     1932    1                                   'PRINT CHECK',
     1933     1933    1                                   'PAPER POS ASKED',
     1934     1934    1                                   'FORM DELETED',
     1935     1935    1                                   'LINE STROBE INCIDENT',
     1936     1936    1                                   'DATA PAR ERR',
     1937     1937    1                                   'BAD PLB ADDR INC',
     1938     1938    1                                   'NONPRNTBLE CHAR',
     1939     1939    1                                   'IMG BELT ADDR ERR',
     1940     1940    1                                   'SPACE LINE ERR',
     1941     1941    1                                   'TRACTORS NOT ENG',
     1942     1942    1                                   'PAPER OUT',
     1943     1943    1                                   'PAPER ABS',
     1944     1944    1                                   'BELT GATE OPEN',
     1945     1945    1                                   'BROKEN FINGER ON BELT',
     1946     1946    1                                   'BELT START TIME OUT',
     1947     1947    1                                   'RIBBON ERR',
     1948     1948    1                                   'STACKER ERR',
     1949     1949    1                                   'ECHO CHECK',
     1950     1950    1                                   'ECHO CHECK',
     1951     1951    1                                   'SKIP FAILURE',
     1952     1952    1                                   '+40V SUPPLY',
     1953     1953    1                                   '-40V SUPPLY',
     1954     1954    1                                   'BELT COMMAND',
     1955     1955    1                                   '-9V SUPPLY',
     1956     1956    1                                   'PROCESSORS DIALOG',
     1957     1957    1                                   'ECHO CHK REG BIT00',
     1958     1958    1                                   'ECHO CHK REG BIT01',
     1959     1959    1                                   'ECHO CHK REG BIT02',
     1960     1960    1                                   'ECHO CHK REG BIT03',
     1961     1961    1                                   'ECHO CHK REG BIT04',
PL6.E3A0      #001=TH_XSTATUS_D File=TH_XSTATUS_D.:E05TSI                        WED 07/30/97 06:19 Page:136
     1962     1962    1                                   'ECHO CHK REG BIT05',
     1963     1963    1                                   'ECHO CHK REG BIT06',
     1964     1964    1                                   'ECHO CHK REG BIT07',
     1965     1965    1                                   'ECHO CHK REG BIT08',
     1966     1966    1                                   'ECHO CHK REG BIT09',
     1967     1967    1                                   'BYTE STROB CNT BIT 4',
     1968     1968    1                                   'BYTE STROB CNT BIT 5',
     1969     1969    1                                   'BYTE STROB CNT BIT 6',
     1970     1970    1                                   'BYTE STROB CNT BIT 7',
     1971     1971    1                                   'SHORT CKT BIT 00',
     1972     1972    1                                   'SHORT CKT BIT 01',
     1973     1973    1                                   'SHORT CKT BIT 02',
     1974     1974    1                                   'SHORT CKT BIT 03',
     1975     1975    1                                   'SHORT CKT BIT 04',
     1976     1976    1                                   'SHORT CKT BIT 05',
     1977     1977    1                                   'SHORT CKT BIT 06',
     1978     1978    1                                   'SHORT CKT BIT 07',
     1979     1979    1                                   'SHORT CKT BIT 08',
     1980     1980    1                                   'SHORT CKT BIT 09',
     1981     1981    1                                   'BYTE STROB CNT BIT 4',
     1982     1982    1                                   'BYTE STROB CNT BIT 5',
     1983     1983    1                                   'BYTE STROB CNT BIT 6',
     1984     1984    1                                   'BYTE STROB CNT BIT 7');
     1985     1985        /**/
     1986     1986        /* FOR PRINTER - PRU1200 AND PRU1600 */
     1987     1987        /**/
     1988     1988    1   DCL 1 PR71(0:58) CONSTANT SYMDEF ALIGNED,
     1989     1989    1         2 CODE UBIN BYTE UNAL INIT(0,6,16,17,
     1990     1990    1                                    18,19,20,21,22,23,24,25,32,33,34,35,
     1991     1991    1                                    36,40,41,42,43,44,45,48,49,50,51,52,
     1992     1992    1                                    53,54,55,56,57,58,59,60,64,65,66,67,
     1993     1993    1                                    68,69,72,73,74,75,76,77,78,79,80,81,
     1994     1994    1                                    82,83,84,85,86,88,104),
     1995     1995    1         2 COUNT UBIN BYTE UNAL INIT(13,18,
     1996     1996    1                                     20,23,23,17,20,20,24,24,16,12,5,
     1997     1997    1                                     10,11,15,12,14,20,13,12,13,16,16,
     1998     1998    1                                     11,19,19,14,20,17,17,14,8,16,9,9,
PL6.E3A0      #001=TH_XSTATUS_D File=TH_XSTATUS_D.:E05TSI                        WED 07/30/97 06:19 Page:137
     1999     1999    1                                     14,19,13,10,8,11,14,9,13,12,14,10,
     2000     2000    1                                     13,13,18,17,14,16,17,13,13,20,23),
     2001     2001    1         2 TEXT CHAR(35) UNAL INIT('BELT IMAGE LD',
     2002     2002    1                                   'BELT TYPE: PRB0600',
     2003     2003    1                                   '# OF COL CODE: BIT 0',
     2004     2004    1                                   '# OF COL CODE: 160 COLS',
     2005     2005    1                                   '# OF COL CODE: 136 COLS',
     2006     2006    1                                   'SPEED CODE: BIT 3',
     2007     2007    1                                   'SPEED CODE: 1600 LPM',
     2008     2008    1                                   'SPEED CODE: 1200 LPM',
     2009     2009    1                                   'PRT DEN CODE: 8 LINES/IN',
     2010     2010    1                                   'PRT DEN CODE: 6 LINES/IN',
     2011     2011    1                                   'VFC IMAGE LOADED',
     2012     2012    1                                   'VFC SYNC BIT',
     2013     2013    1                                   'READY',
     2014     2014    1                                   'INITIALIZE',
     2015     2015    1                                   'PRINT CHECK',
     2016     2016    1                                   'PAPER POS ASKED',
     2017     2017    1                                   'FORM DELETED',
     2018     2018    1                                   'ECHO CHECK ERR',
     2019     2019    1                                   'MULTI ECHO CHECK ERR',
     2020     2020    1                                   'BELT SYNC ERR',
     2021     2021    1                                   'SCAN REG ERR',
     2022     2022    1                                   'LNS DELAY ERR',
     2023     2023    1                                   'DAI DATA PAR ERR',
     2024     2024    1                                   'BAD PLB ADDR INC',
     2025     2025    1                                   'PLB PAR ERR',
     2026     2026    1                                   'NONPRTBAL CH IN PLB',
     2027     2027    1                                   'FIRE HAMMER REG ERR',
     2028     2028    1                                   'INVLD PLB ADDR',
     2029     2029    1                                   'IMG BELT BFR PAR ERR',
     2030     2030    1                                   'IMG BELT ADDR ERR',
     2031     2031    1                                   'INV IMG BELT ADDR',
     2032     2032    1                                   'SPACE LINE ERR',
     2033     2033    1                                   'SYNC ERR',
     2034     2034    1                                   'TRACTORS NOT ENG',
     2035     2035    1                                   'PAPER OUT',
PL6.E3A0      #001=TH_XSTATUS_D File=TH_XSTATUS_D.:E05TSI                        WED 07/30/97 06:19 Page:138
     2036     2036    1                                   'PAPER ABS',
     2037     2037    1                                   'BELT GATE OPEN',
     2038     2038    1                                   'BROKEN RING ON BELT',
     2039     2039    1                                   'VERT BELT POS',
     2040     2040    1                                   'RIBBON ERR',
     2041     2041    1                                   'SKEW ERR',
     2042     2042    1                                   'STACKER ERR',
     2043     2043    1                                   'PHASE FAIL ALT',
     2044     2044    1                                   'D-C ALERT',
     2045     2045    1                                   'THERMAL ALERT',
     2046     2046    1                                   'SUPPLY ALERT',
     2047     2047    1                                   'PRT SUPP ALERT',
     2048     2048    1                                   'PAPER FAIL',
     2049     2049    1                                   'PAPER RUNAWAY',
     2050     2050    1                                   'EMERGENCY OFF',
     2051     2051    1                                   'SHORT CKT ERR ENO1',
     2052     2052    1                                   'SHORT CKT ERR NO2',
     2053     2053    1                                   'SKIP OVER CURR',
     2054     2054    1                                   'RING SENSOR FAIL',
     2055     2055    1                                   'RING SENSOR DIRTY',
     2056     2056    1                                   'AIRFLOW CHECK',
     2057     2057    1                                   'A-C OVER CURR',
     2058     2058    1                                   'ECHO CHECK REG: 0000',
     2059     2059    1                                   'SHORT CIRCUIT REG: 0000');
     2060     2060        /**/
     2061     2061        /* FOR PRINTER - PRU0901 AND PRU1201 */
     2062     2062        /**/
     2063     2063    1   DCL 1 PR54(0:9) CONSTANT SYMDEF ALIGNED,
     2064     2064    1       2 CODE UBIN BYTE UNAL INIT(0,6,16,17,24,25,96,104,113,120),
     2065     2065    1       2 COUNT UBIN BYTE UNAL INIT(13,18,8,9,12,11,1,1,1,10),
     2066     2066    1       2 TEXT CHAR(35) UNAL INIT('BELT IMAGE LD',
     2067     2067    1                                 'BELT TYPE: PRB3600',
     2068     2068    1                                 '1200 LPM',
     2069     2069    1                                 '44 IN/SEC',
     2070     2070    1                                 'VFC IMAGE LD',
     2071     2071    1                                 'VFC IN SYNC',
     2072     2072    1                                 ' ',
PL6.E3A0      #001=TH_XSTATUS_D File=TH_XSTATUS_D.:E05TSI                        WED 07/30/97 06:19 Page:139
     2073     2073    1                                 ' ',
     2074     2074    1                                 ' ',
     2075     2075    1                                 '8 LINES/IN');
     2076     2076        /**/
     2077     2077        /* PRINT BELT CODES FOR PR54 PRINTER */
     2078     2078        /**/
     2079     2079    1   DCL 1 PR54_BELT_TBL(0:3) CONSTANT SYMDEF ALIGNED,
     2080     2080    1       2 CODE BIT(15) UNAL INIT('00764'O,'01001'O,'01014'O,'01130'O),
     2081     2081    1       2 COUNT UBIN BYTE UNAL INIT(18,18,18,18),
     2082     2082    1       2 TEXT CHAR(18) UNAL INIT('BELT TYPE: PRB3500',
     2083     2083    1                                 'BELT TYPE: PRB3513',
     2084     2084    1                                 'BELT TYPE: PRB3524',
     2085     2085    1                                 'BELT TYPE: PRB3600');
     2086     2086        /**/
     2087     2087        /* PRINT BELT CODES FOR PR71 PRINTER */
     2088     2088        /**/
     2089     2089    1   DCL 1 PR71_BELT_TBL(0:3) CONSTANT SYMDEF ALIGNED,
     2090     2090    1       2 CODE BIT(15) UNAL INIT('00764'O,'01001'O,'01014'O,'01130'O),
     2091     2091    1       2 COUNT UBIN BYTE UNAL INIT(18,18,18,18),
     2092     2092    1       2 TEXT CHAR(18) UNAL INIT('BELT TYPE: PRB0500',
     2093     2093    1                                 'BELT TYPE: PRB0513',
     2094     2094    1                                 'BELT TYPE: PRB0524',
     2095     2095    1                                 'BELT TYPE: PRB0600');
     2096     2096        /**/
     2097     2097        /* CONTROLLER DETECTED ERRORS FOUND IN BYTE 12 OF PR54 EXTENDED BITS*/
     2098     2098        /**/
     2099     2099    1   DCL 1 CTRL_ERR_TBL(0:65) CONSTANT SYMDEF ALIGNED,
     2100     2100    1         2 CODE BIT(9) UNAL INIT('000'O,'001'O,'002'O,'003'O,'004'O,
     2101     2101    1                                 '005'O,'006'O,'007'O,'010'O,'011'O,
     2102     2102    1                                 '012'O,'013'O,'014'O,'015'O,'016'O,
     2103     2103    1                                 '017'O,'020'O,'021'O,'022'O,'023'O,
     2104     2104    1                                 '024'O,'025'O,'026'O,'027'O,'030'O,
     2105     2105    1                                 '031'O,'032'O,'033'O,'034'O,'056'O,
     2106     2106    1                                 '057'O,'060'O,'061'O,'062'O,'063'O,
     2107     2107    1                                 '065'O,'066'O,'067'O,'070'O,'071'O,
     2108     2108    1                                 '072'O,'073'O,'074'O,'075'O,'076'O,
     2109     2109    1                                 '100'O,'106'O,'113'O,'114'O,'115'O,
PL6.E3A0      #001=TH_XSTATUS_D File=TH_XSTATUS_D.:E05TSI                        WED 07/30/97 06:19 Page:140
     2110     2110    1                                 '116'O,'117'O,'120'O,'121'O,'122'O,
     2111     2111    1                                 '123'O,'124'O,'133'O,'134'O,'135'O,
     2112     2112    1                                 '136'O,'137'O,'140'O,'141'O,'142'O,
     2113     2113    1                                 '143'O),
     2114     2114    1         2 COUNT UBIN BYTE UNAL INIT(9,11,12,9,14,21,21,8,7,9,12,13,
     2115     2115    1                                     18,24,14,19,21,15,9,14,17,10,15,
     2116     2116    1                                     17,14,16,13,22,10,9,12,11,20,6,
     2117     2117    1                                     19,19,9,9,9,13,10,12,8,13,11,11,
     2118     2118    1                                     20,10,10,8,15,9,9,14,13,11,8,13,
     2119     2119    1                                     13,13,17,17,20,19,14,13),
     2120     2120    1         2 TEXT CHAR(35)UNAL INIT('PAPER OUT',
     2121     2121    1                                  'ILL OP CODE',
     2122     2122    1                                  'ILL DEV ADDR',
     2123     2123    1                                  'NO VFC LD',
     2124     2124    1                                  'NO BELT IMG LD',
     2125     2125    1                                  'TOP ECHO ON LAST SLEW',
     2126     2126    1                                  'SLEW ERR ON LAST SLEW',
     2127     2127    1                                  'MAN HALT',
     2128     2128    1                                  'EOP/EOS',
     2129     2129    1                                  'PAPER LOW',
     2130     2130    1                                  'INVAL VFC LD',
     2131     2131    1                                  'PRNTR OFFLINE',
     2132     2132    1                                  'PAPER MOTION ALERT',
     2133     2133    1                                  'BIB NOT CONTAIN 240 CHAR',
     2134     2134    1                                  'INVAL LINE DEN',
     2135     2135    1                                  'FORM LEN > 144 LINE',
     2136     2136    1                                  'INVAL LINE# IN VFC LD',
     2137     2137    1                                  'INVAL AUTO SLEW',
     2138     2138    1                                  'INVAL TOP',
     2139     2139    1                                  'ERR ON STAT RD',
     2140     2140    1                                  'UNEXP PDSI REG ID',
     2141     2141    1                                  'TIMING ERR',
     2142     2142    1                                  'HORIZ TAB > 127',
     2143     2143    1                                  'TRIED TO TAB LEFT',
     2144     2144    1                                  'VERT TAB > 127',
     2145     2145    1                                  'HORIZ SKIP > 127',
     2146     2146    1                                  'SKIP PAST EOL',
PL6.E3A0      #001=TH_XSTATUS_D File=TH_XSTATUS_D.:E05TSI                        WED 07/30/97 06:19 Page:141
     2147     2147    1                                  'CNTRL CHAR IN NON EDIT',
     2148     2148    1                                  'READ ABORT',
     2149     2149    1                                  'POWER OFF',
     2150     2150    1                                  'CNTRLR ALERT',
     2151     2151    1                                  'CNTRLR ATTN',
     2152     2152    1                                  'ATTN COND ON PREV OP',
     2153     2153    1                                  'NO ERR',
     2154     2154    1                                  'SKIP LOOP CNTRL ERR',
     2155     2155    1                                  'TRACTORS DECLUTCHED',
     2156     2156    1                                  'PAPER JAM',
     2157     2157    1                                  'PAPER LOW',
     2158     2158    1                                  'YOKE OPEN',
     2159     2159    1                                  'BROKEN FINGER',
     2160     2160    1                                  'BELT START',
     2161     2161    1                                  'RIBBON MOTION',
     2162     2162    1                                  'TIME OUT',
     2163     2163    1                                  'STACKER ALERT',
     2164     2164    1                                  'RIBBON CART',
     2165     2165    1                                  'LINE STROBE',
     2166     2166    1                                  'CHAR NOT ON BAND IMG',
     2167     2167    1                                  'ECHO CHECK',
     2168     2168    1                                  'ECHO CHECK',
     2169     2169    1                                  'OVR TEMP',
     2170     2170    1                                  'SKIP BOARD FAIL',
     2171     2171    1                                  '+40V FAIL',
     2172     2172    1                                  '-40V FAIL',
     2173     2173    1                                  'BELT CMND FAIL',
     2174     2174    1                                  '-9V VOLT FAIL',
     2175     2175    1                                  'DIALOG FAIL',
     2176     2176    1                                  'TIME OUT',
     2177     2177    1                                  'PLB LD OVRFLO',
     2178     2178    1                                  'VFU LD OVRFLO',
     2179     2179    1                                  'BIB LD OVRFLO',
     2180     2180    1                                  'INVAL BIB DATA LD',
     2181     2181    1                                  'INVAL VFU DATA LD',
     2182     2182    1                                  'INVAL VFU CHAN# > 11',
     2183     2183    1                                  'NO STOP ON VFU CHAN',
PL6.E3A0      #001=TH_XSTATUS_D File=TH_XSTATUS_D.:E05TSI                        WED 07/30/97 06:19 Page:142
     2184     2184    1                                  'INVAL CMND SEQ',
     2185     2185    1                                  'ILL CMND CODE');
     2186     2186        /**/
     2187     2187        /* PRINTER STATUS REGISTER INFO - BYTE 13 OF PR54 EXTENDED BITS */
     2188     2188        /**/
     2189     2189    1   DCL 1 LED_TBL(0:32) CONSTANT SYMDEF ALIGNED,
     2190     2190    1         2 CODE BIT(9) UNAL INIT('000'O,'001'O,'003'O,'004'O,'005'O,
     2191     2191    1                                 '006'O,'007'O,'010'O,'011'O,'012'O,
     2192     2192    1                                 '013'O,'014'O,'016'O,'024'O,'031'O,
     2193     2193    1                                 '032'O,'033'O,'034'O,'035'O,'036'O,
     2194     2194    1                                 '037'O,'040'O,'041'O,'221'O,'222'O,
     2195     2195    1                                 '223'O,'224'O,'225'O,'226'O,'227'O,
     2196     2196    1                                 '230'O,'231'O,'377'O),
     2197     2197    1         2 COUNT UBIN BYTE UNAL INIT(6,19,19,9,9,9,13,10,13,7,12,14,
     2198     2198    1                                     11,8,10,10,7,9,9,9,14,8,10,11,13,
     2199     2199    1                                     22,11,13,13,19,14,8,14),
     2200     2200    1         2 TEXT CHAR(35) UNAL INIT('NO ERR',
     2201     2201    1                                   'SKIP LOOP CNTRL ERR',
     2202     2202    1                                   'TRACTORS DECLUTCHED',
     2203     2203    1                                   'PAPER JAM',
     2204     2204    1                                   'PAPER LOW',
     2205     2205    1                                   'YOKE OPEN',
     2206     2206    1                                   'BROKEN FINGER',
     2207     2207    1                                   'BELT START',
     2208     2208    1                                   'RIBBON MOTION',
     2209     2209    1                                   'TIMEOUT',
     2210     2210    1                                   'STACKR ALERT',
     2211     2211    1                                   'NO RIBBON CART',
     2212     2212    1                                   'LINE STROBE',
     2213     2213    1                                   'ILL CHAR',
     2214     2214    1                                   'ECHO CHECK',
     2215     2215    1                                   'ECHO CHECK',
     2216     2216    1                                   'OVRTEMP',
     2217     2217    1                                   'SKIP FAIL',
     2218     2218    1                                   '+40V FAIL',
     2219     2219    1                                   '-40V FAIL',
     2220     2220    1                                   'BELT CMND FAIL',
PL6.E3A0      #001=TH_XSTATUS_D File=TH_XSTATUS_D.:E05TSI                        WED 07/30/97 06:19 Page:143
     2221     2221    1                                   '-9V FAIL',
     2222     2222    1                                   'DIALOG INC',
     2223     2223    1                                   'LOAD OVRFLO',
     2224     2224    1                                   'BFR ID OVRFLO',
     2225     2225    1                                   'BAND IMG BFR LD OVRFLO',
     2226     2226    1                                   'INSUFF DATA',
     2227     2227    1                                   'INVAL VFU BFR',
     2228     2228    1                                   'ILL VFU CHAN#',
     2229     2229    1                                   'NO STOP ON VFU CHAN',
     2230     2230    1                                   'INVAL CMND SEQ',
     2231     2231    1                                   'ILL CMND',
     2232     2232    1                                   'PAPER POSITION');
     2233     2233        /**/
     2234     2234        /* PRINTER COMMAND REGISTER - BYTE 14 OF PR54 EXTENDED BITS */
     2235     2235        /**/
     2236     2236    1   DCL 1 REGISTER_TBL(0:16) CONSTANT SYMDEF ALIGNED,
     2237     2237    1         2 CODE BIT(6) UNAL INIT('00'O,'01'O,'02'O,'03'O,'04'O,'05'O,
     2238     2238    1                                 '06'O,'07'O,'10'O,'11'O,'12'O,'20'O,
     2239     2239    1                                 '21'O,'22'O,'23'O,'24'O,'25'O),
     2240     2240    1         2 COUNT UBIN BYTE UNAL INIT(9,10,8,14,13,13,8,12,16,8,14,
     2241     2241    1                                     10,13,3,3,12,11),
     2242     2242    1         2 TEXT CHAR(35) UNAL INIT('EVENT REG',
     2243     2243    1                                   'STATUS REG',
     2244     2244    1                                   'CMND REG',
     2245     2245    1                                   'DIAG EVENT REG',
     2246     2246    1                                   'DIAG STAT REG',
     2247     2247    1                                   'ILL FOR PRNTR',
     2248     2248    1                                   'SLEW REG',
     2249     2249    1                                   'LINE CNT REG',
     2250     2250    1                                   'CNTRL BUTTON REG',
     2251     2251    1                                   'PARM REG',
     2252     2252    1                                   'DEV CONFIG REG',
     2253     2253    1                                   'DEV ID BFR',
     2254     2254    1                                   'ILL FOR PRNTR',
     2255     2255    1                                   'PLB',
     2256     2256    1                                   'VFU',
     2257     2257    1                                   'BELT IMG BFR',
PL6.E3A0      #001=TH_XSTATUS_D File=TH_XSTATUS_D.:E05TSI                        WED 07/30/97 06:19 Page:144
     2258     2258    1                                   'BELT ID BFR');
     2259     2259        /**/
     2260     2260        /* PR54-BYTE 14'S NON-REGISTER COMMANDS FOR EXTENDED BITS */
     2261     2261        /**/
     2262     2262    1   DCL 1 NON_REG_TBL(0:10) CONSTANT SYMDEF ALIGNED,
     2263     2263    1         2 CODE BIT(6) UNAL INIT('00'O,'01'O,'02'O,'03'O,'04'O,'05'O,
     2264     2264    1                                 '06'O,'07'O,'10'O,'11'O,'12'O),
     2265     2265    1         2 COUNT UBIN BYTE UNAL INIT(11,13,15,14,13,11,11,12,19,14,13),
     2266     2266    1         2 TEXT CHAR(35) UNAL INIT('ALARM CLEAR',
     2267     2267    1                                   'SET DIAG MODE',
     2268     2268    1                                   'RESET DIAG MODE',
     2269     2269    1                                   'EXEC SELF-TEST',
     2270     2270    1                                   'ILL FOR PRNTR',
     2271     2271    1                                   'PRINT ORDER',
     2272     2272    1                                   'SLEW BY CNT',
     2273     2273    1                                   'SLEW BY CHAN',
     2274     2274    1                                   'EXEC PRNT SELF-TEST',
     2275     2275    1                                   'OFF-LINE ORDER',
     2276     2276    1                                   'ON-LINE ORDER');
     2277     2277        /**/
     2278     2278        /* DATA FOR PROCERR */
     2279     2279        /**/
     2280     2280    1   DCL 1 FC(0:21) CONSTANT SYMDEF ALIGNED,
     2281     2281    1         2 COUNT UBIN BYTE UNAL INIT(33,12,9,15,18,13,12,12,13,18,23,
     2282     2282    1                                     21,13,14,18,13,22,21,21,24,18,22),
     2283     2283    1         2 TEXT CHAR(33) UNAL INIT('No fault, Status information only',
     2284     2284    1                                   'Memory fault',
     2285     2285    1                                   'MME fault',
     2286     2286    1                                   'Fault tag fault',
     2287     2287    1                                   'Timer runout fault',
     2288     2288    1                                   'Command fault',
     2289     2289    1                                   'Derail fault',
     2290     2290    1                                   'Lockup fault',
     2291     2291    1                                   'Connect fault',
     2292     2292    1                                   'Parity error fault',
     2293     2293    1                                   'Illegal procedure fault',
     2294     2294    1                                   'Op not complete fault',
PL6.E3A0      #001=TH_XSTATUS_D File=TH_XSTATUS_D.:E05TSI                        WED 07/30/97 06:19 Page:145
     2295     2295    1                                   'Startup fault',
     2296     2296    1                                   'Overflow fault',
     2297     2297    1                                   'Divide check fault',
     2298     2298    1                                   'Execute fault',
     2299     2299    1                                   'Security class 1 fault',
     2300     2300    1                                   'Dynamic linking fault',
     2301     2301    1                                   'Missing segment fault',
     2302     2302    1                                   'Missing work space fault',
     2303     2303    1                                   'Missing page fault',
     2304     2304    1                                   'Security class 2 fault');
     2305     2305        /**/
     2306     2306        /* FOR FAULT REGISTER ERROR DATA */
     2307     2307        /**/
     2308     2308    1   DCL 1 FLTREG_TYPE(0:2) CONSTANT SYMDEF ALIGNED,
     2309     2309    1         2 SUB$ PTR INIT(ADDR(L66_DPSE),
     2310     2310    1                         ADDR(L66_DPSE),
     2311     2311    1                         ADDR(ELS1)),
     2312     2312    1         2 COUNT UBIN BYTE UNAL INIT(28,28,18);
     2313     2313        /**/
     2314     2314        /* FOR L66 AND DPSE */
     2315     2315        /**/
     2316     2316    1   DCL 1 L66_DPSE(0:28) CONSTANT SYMDEF ALIGNED,
     2317     2317    1         2 CODE UBIN BYTE UNAL INIT(0,1,2,3,4,5,6,7,8,9,10,11,12,13,32,
     2318     2318    1                                    33,34,35,36,37,38,39,40,41,42,43,44,
     2319     2319    1                                    45,46),
     2320     2320    1         2 COUNT UBIN BYTE UNAL INIT(15,24,23,26,20,13,16,24,24,16,16,
     2321     2321    1                                     16,16,29,22,18,23,26,24,24,24,24,
     2322     2322    1                                     33,32,37,37,37,37,35),
     2323     2323    1         2 TEXT CHAR(37) UNAL INIT('ILLEGAL OP CODE',
     2324     2324    1                                   'ILLEGAL ADDR OR MODIFIER',
     2325     2325    1                                   'ILLEGAL SLAVE PROCEDURE',
     2326     2326    1                                   'IPR - ALL OTHER PROCEDURES',
     2327     2327    1                                   'NON-EXISTENT ADDRESS',
     2328     2328    1                                   'OUT OF BOUNDS',
     2329     2329    1                                   'ILLEGAL EIS DATA',
     2330     2330    1                                   'PROCESSOR PARITY (UPPER)',
     2331     2331    1                                   'PROCESSOR PARITY (LOWER)',
PL6.E3A0      #001=TH_XSTATUS_D File=TH_XSTATUS_D.:E05TSI                        WED 07/30/97 06:19 Page:146
     2332     2332    1                                   'CONNECT - PORT A',
     2333     2333    1                                   'CONNECT - PORT B',
     2334     2334    1                                   'CONNECT - PORT C',
     2335     2335    1                                   'CONNECT - PORT D',
     2336     2336    1                                   'SC TO PROC CONTROL SEQ ERR #1',
     2337     2337    1                                   'DIRECTORY PARITY ERROR',
     2338     2338    1                                   'CACHE PARITY ERROR',
     2339     2339    1                                   'ILLEGAL ACTION ON STORE',
     2340     2340    1                                   'PARITY ERROR ON BLOCK LOAD',
     2341     2341    1                                   'BUFFER OVERFLOW - PORT A',
     2342     2342    1                                   'BUFFER OVERFLOW - PORT B',
     2343     2343    1                                   'BUFFER OVERFLOW - PORT C',
     2344     2344    1                                   'BUFFER OVERFLOW - PORT D',
     2345     2345    1                                   'PRIMARY DIRECTORY BUFFER OVERFLOW',
     2346     2346    1                                   'WRITE NOTIFY PAR ERR ON ANY PORT',
     2347     2347    1                                   'DUPLICATE DIRECTORY - LEVEL 0 PAR ERR',
     2348     2348    1                                   'DUPLICATE DIRECTORY - LEVEL 1 PAR ERR',
     2349     2349    1                                   'DUPLICATE DIRECTORY - LEVEL 2 PAR ERR',
     2350     2350    1                                   'DUPLICATE DIRECTORY - LEVEL 3 PAR ERR',
     2351     2351    1                                   'DUPLICATE DIRECTORY MULTI MATCH ERR');
     2352     2352        /**/
     2353     2353        /* FOR ELS 1 */
     2354     2354        /**/
     2355     2355    1   DCL 1 ELS1(0:18) CONSTANT SYMDEF ALIGNED,
     2356     2356    1         2 CODE UBIN BYTE UNAL INIT(0,6,7,8,9,10,13,32,33,34,35,36,37,
     2357     2357    1                                    38,39,40,41,42,43),
     2358     2358    1         2 COUNT UBIN BYTE UNAL INIT(15,16,24,24,16,16,34,22,18,23,
     2359     2359    1                                     26,34,29,28,30,28,30,33,25),
     2360     2360    1         2 TEXT CHAR(37) UNAL INIT('ILLEGAL OP CODE',
     2361     2361    1                                   'ILLEGAL EIS DATA',
     2362     2362    1                                   'PROCESSOR PARITY (UPPER)',
     2363     2363    1                                   'PROCESSOR PARITY (LOWER)',
     2364     2364    1                                   'CONNECT - PORT A',
     2365     2365    1                                   'CONNECT - PORT B',
     2366     2366    1                                   'SC TO PROCESSOR CONTROL SEQ ERR #1',
     2367     2367    1                                   'DIRECTORY PARITY ERROR',
     2368     2368    1                                   'CACHE PARITY ERROR',
PL6.E3A0      #001=TH_XSTATUS_D File=TH_XSTATUS_D.:E05TSI                        WED 07/30/97 06:19 Page:147
     2369     2369    1                                   'ILLEGAL ACTION ON STORE',
     2370     2370    1                                   'PARITY ERROR ON BLOCK LOAD',
     2371     2371    1                                   'WRITE NOTIFICATION BUFFER OVERFLOW',
     2372     2372    1                                   'ONE CYCLE OF PATROL COMPLETED',
     2373     2373    1                                   'INTERMITTENT ERROR ON PATROL',
     2374     2374    1                                   'ECS SINGLE BIT ERROR CORRECTED',
     2375     2375    1                                   'CONNECT FROM DIAGNOSTIC UNIT',
     2376     2376    1                                   'ASSOC MEMORY DIRECTORY PAR ERR',
     2377     2377    1                                   'ASSOC MEMORY STORAGE PARITY ERROR',
     2378     2378    1                                   'WRITE NOTIFY PARITY ERROR');
     2379     2379        /**/
     2380     2380        /* FOR PORT A IAXX - */
     2381     2381        /**/
     2382     2382    1   DCL 1 ILL_CODE(0:15) CONSTANT SYMDEF ALIGNED,
     2383     2383    1         2 COUNT UBIN BYTE UNAL INIT(24,15,24,25,15,28,27,25,18,18,22,22,
     2384     2384    1                                     26,27,27,28),
     2385     2385    1         2 TEXT CHAR(37) UNAL INIT('IA00 - NO ILLEGAL ACTION',
     2386     2386    1                                   'IA01 - NOT USED',
     2387     2387    1                                   'IA02 - NON-EXISTENT ADDR',
     2388     2388    1                                   'IA03 - FAULT ON CONDITION',
     2389     2389    1                                   'IA04 - NOT USED',
     2390     2390    1                                   'IA05 - DATA PARITY STORE-SCU',
     2391     2391    1                                   'IA06 - DATA PARITY IN STORE',
     2392     2392    1                                   'IA07 - DATA PAR STORE-SCU',
     2393     2393    1                                   'IA10 - NOT CONTROL',
     2394     2394    1                                   'IA11 - MASKED PORT',
     2395     2395    1                                   'IA12 - ILLEGAL COMMAND',
     2396     2396    1                                   'IA13 - STORE NOT READY',
     2397     2397    1                                   'IA14 - ZAC PARITY PROC-SCU',
     2398     2398    1                                   'IA15 - DATA PARITY PROC-SCU',
     2399     2399    1                                   'IA16 - ZAC PARITY SCU STORE',
     2400     2400    1                                   'IA17 - DATA PARITY SCU STORE');
     2401     2401        /**/
     2402     2402        /* MTU'S  AND PRU'S SPECIAL CASES */
     2403     2403        /**/
     2404     2404    1   DCL 1 SP_CASES(0:4) CONSTANT SYMDEF ALIGNED,
     2405     2405    1         2 BYTEN UBIN BYTE UNAL INIT(16,20,27,35,96),
PL6.E3A0      #001=TH_XSTATUS_D File=TH_XSTATUS_D.:E05TSI                        WED 07/30/97 06:19 Page:148
     2406     2406    1         2 SUB$ PTR INIT(ADDR(CURR_DEN),
     2407     2407    1                         ADDR(RCRD_CAPA),
     2408     2408    1                         ADDR(DEV_SPD),
     2409     2409    1                         ADDR(DEV_ADDR),
     2410     2410    1                         ADDR(LD_CYC)),
     2411     2411    1         2 COUNT UBIN BYTE UNAL INIT(4,5,4,6,5);
     2412     2412        /**/
     2413     2413        /* CURRENT DENSITY */
     2414     2414        /**/
     2415     2415    1   DCL 1 CURR_DEN(0:4) CONSTANT SYMDEF ALIGNED,
     2416     2416    1         2 CODE CHAR(5) INIT('000','001','100','110','111'),
     2417     2417    1         2 COUNT UBIN BYTE UNAL INIT(22,22,21,21,21),
     2418     2418    1         2 TEXT CHAR(35) UNAL INIT('CURR DEN 000: 1600 BPI',
     2419     2419    1                                  'CURR DEN 001: 6250 BPI',
     2420     2420    1                                  'CURR DEN 100: 800 BPI',
     2421     2421    1                                  'CURR DEN 110: 200 BPI',
     2422     2422    1                                  'CURR DEN 111: 556 BPI');
     2423     2423        /**/
     2424     2424        /* RECORDING CAPABILITY */
     2425     2425        /**/
     2426     2426    1   DCL 1 RCRD_CAPA(0:5) CONSTANT SYMDEF ALIGNED,
     2427     2427    1         2 CODE CHAR(5) INIT('0000','0001','0100','1000','1010','1011'),
     2428     2428    1         2 COUNT UBIN BYTE UNAL INIT(26,34,33,30,26,31),
     2429     2429    1         2 TEXT CHAR(35) UNAL INIT('RECRD CAPAB 0000: 1600 BPI',
     2430     2430    1                                  'RECRD CAPAB 0001: 1600/800/556/200',
     2431     2431    1                                  'RECRD CAPAB 0100: 800/556/200 BPI',
     2432     2432    1                                  'RECRD CAPAB 1000: 1600/800 BPI',
     2433     2433    1                                  'RECRD CAPAB 1010: 6250 BPI',
     2434     2434    1                                  'RECRD CAPAB 1011: 6250/1600 BPI');
     2435     2435        /**/
     2436     2436        /* DEVICE SPEED */
     2437     2437        /**/
     2438     2438    1   DCL 1 DEV_SPD(0:4) CONSTANT SYMDEF ALIGNED,
     2439     2439    1         2 CODE CHAR(5) INIT('00001','00101','01001','01101','01111'),
     2440     2440    1         2 COUNT UBIN BYTE UNAL INIT(26,25,23,24,24),
     2441     2441    1         2 TEXT CHAR(35) UNAL INIT('DEV SPEED 00001: 18.75 IPS',
     2442     2442    1                                  'DEV SPEED 00101: 37.5 IPS',
PL6.E3A0      #001=TH_XSTATUS_D File=TH_XSTATUS_D.:E05TSI                        WED 07/30/97 06:19 Page:149
     2443     2443    1                                  'DEV SPEED 01001: 75 IPS',
     2444     2444    1                                  'DEV SPEED 01101: 125 IPS',
     2445     2445    1                                  'DEV SPEED 01111: 200 IPS');
     2446     2446        /**/
     2447     2447        /* PHYSICAL DEVICE ADDRESS */
     2448     2448        /**/
     2449     2449    1   DCL 1 DEV_ADDR(0:6) CONSTANT SYMDEF ALIGNED,
     2450     2450    1         2 CODE CHAR(5) INIT('00001','00100','10000','01111','10111','11011','11110'),
     2451     2451    1         2 COUNT UBIN BYTE UNAL INIT(21,21,35,22,21,21,21),
     2452     2452    1         2 TEXT CHAR(35) UNAL INIT('PHY DEV ADDR 00001: 1',
     2453     2453    1                                  'PHY DEV ADDR 00100: 4',
     2454     2454    1                                  'PHY DEV ADDR 10000: 16(610);15(500)',
     2455     2455    1                                  'PHY DEV ADDR 01111: 16',
     2456     2456    1                                  'PHY DEV ADDR 10111: 8',
     2457     2457    1                                  'PHY DEV ADDR 11011: 4',
     2458     2458    1                                  'PHY DEV ADDR 11110: 1');
     2459     2459        /**/
     2460     2460        /* LOAD CYCLE BIT */
     2461     2461        /**/
     2462     2462    1   DCL 1 LD_CYC(0:5) CONSTANT SYMDEF ALIGNED,
     2463     2463    1         2 CODE CHAR(5) INIT('0001','0010','0011','0100','0101','0110'),
     2464     2464    1         2 COUNT UBIN BYTE UNAL INIT(27,30,26,31,31,26),
     2465     2465    1         2 TEXT CHAR(35) UNAL INIT('LD CYC 0001: START LOAD SEQ',
     2466     2466    1                                  'LD CYC 0010: TAPE ON MACH REEL',
     2467     2467    1                                  'LD CYC 0011: LOOP CHBR VAC',
     2468     2468    1                                  'LD CYC 0100: REQ STAT AIR PRESS',
     2469     2469    1                                  'LD CYC 0101: MAIN VAC SENSE SET',
     2470     2470    1                                  'LD CYC 0110: DEV CYCLED UP');
     2471     2471        /*  STATIC DATA FOR INTERPRETING IDCW'S DEVICE COMMAND CODES    */
     2472     2472        /**/
     2473     2473    1   DCL 1 DEVICE_CMND(0:MAXMODELS) CONSTANT SYMDEF ALIGNED,
     2474     2474    1         2 DEV CHAR(8) INIT('MSU0451',
     2475     2475    1                            'MSU0501',
     2476     2476    1                            'MSU0509',
     2477     2477    1                            'MSU3380',
     2478     2478    1                            'MSU3381',
     2479     2479    1                            'MSU3382',
PL6.E3A0      #001=TH_XSTATUS_D File=TH_XSTATUS_D.:E05TSI                        WED 07/30/97 06:19 Page:150
     2480     2480    1                            'MSU3383',
     2481     2481    1                            'MSU3390',
     2482     2482    1                            'MSU3391',
     2483     2483    1                            'MSU3392',
     2484     2484    1                            'MSU3393',
     2485     2485    1                            'MSU8082',
     2486     2486    1                            'MSU8092',
     2487     2487    1                            'MTU0610',
     2488     2488    1                            'MTU0630',
     2489     2489    1                            'MTU8200',
     2490     2490    1                            'CRU0501',
     2491     2491    1                            'CRU1050',
     2492     2492    1                            'PCU0120',
     2493     2493    1                            'PCU0121',
     2494     2494    1                            'PRU0901',
     2495     2495    1                            'PRU0903',
     2496     2496    1                            'PRU0908',
     2497     2497    1                            'PRU1201',
     2498     2498    1                            'PRU1203',
     2499     2499    1                            'PRU1208',
     2500     2500    1                            'PRU1200',
     2501     2501    1                            'PRU1600',
     2502     2502    1                            ' '*0),
     2503     2503    1         2 SUB$ PTR INIT(ADDR(MSU_DSK),
     2504     2504    1                         ADDR(MSU_DSK),
     2505     2505    1                         ADDR(MSU_DSK),
     2506     2506    1                         ADDR(MSU_DSK),
     2507     2507    1                         ADDR(MSU_DSK),
     2508     2508    1                         ADDR(MSU_DSK),
     2509     2509    1                         ADDR(MSU_DSK),
     2510     2510    1                         ADDR(MSU_DSK),
     2511     2511    1                         ADDR(MSU_DSK),
     2512     2512    1                         ADDR(MSU_DSK),
     2513     2513    1                         ADDR(MSU_DSK),
     2514     2514    1                         ADDR(MSU_DSK),
     2515     2515    1                         ADDR(MSU_DSK),
     2516     2516    1                         ADDR(MTU_TAPE),
PL6.E3A0      #001=TH_XSTATUS_D File=TH_XSTATUS_D.:E05TSI                        WED 07/30/97 06:19 Page:151
     2517     2517    1                         ADDR(MTU_TAPE),
     2518     2518    1                         ADDR(MTU_TAPE),
     2519     2519    1                         ADDR(CRU_READR),
     2520     2520    1                         ADDR(CRU_READR),
     2521     2521    1                         ADDR(PCU_PUNCHR),
     2522     2522    1                         ADDR(PCU_PUNCHR),
     2523     2523    1                         ADDR(PRU_PRINTR),
     2524     2524    1                         ADDR(PRU_PRINTR),
     2525     2525    1                         ADDR(PRU_PRINTR),
     2526     2526    1                         ADDR(PRU_PRINTR),
     2527     2527    1                         ADDR(PRU_PRINTR),
     2528     2528    1                         ADDR(PRU_PRINTR),
     2529     2529    1                         ADDR(PRU_PRINTR),
     2530     2530    1                         ADDR(PRU_PRINTR),
     2531     2531    1                         ADDR(NIL)*0),
     2532     2532    1         2 COUNT UBIN BYTE UNAL INIT(13,13,13,13,13,13,13,13,13,13,13,13,13,
     2533     2533    1                                     23,23,23,2,2,3,3,6,6,6,6,6,6,6,6,0*0);
     2534     2534        /**/
     2535     2535        /*  FOR DISC - MSU0451,MSU0501,AND MSU0509                */
     2536     2536        /**/
     2537     2537    1   DCL 1 MSU_DSK(0:13) CONSTANT SYMDEF ALIGNED,
     2538     2538    1         2 CODE BIT(6) UNAL INIT('00'O,'25'O,'31'O,'23'O,'32'O,'33'O,
     2539     2539    1                                 '72'O,'42'O,'40'O,'22'O,'34'O,'36'O,
     2540     2540    1                                 '30'O,'35'O),
     2541     2541    1         2 COUNT UBIN BYTE UNAL INIT(8,4,5,4,5,5,8,8,8,8,8,8,8,8),
     2542     2542    1         2 TEXT CHAR(8) UNAL INIT('NON-DATA','READ','WRITE','READ','WRITE',
     2543     2543    1                                  'WRITE','NON-DATA','NON-DATA','NON-DATA',
     2544     2544    1                                  'NON-DATA','NON-DATA','NON-DATA','NON-DATA',
     2545     2545    1                                  'NON-DATA');
     2546     2546        /**/
     2547     2547        /*  FOR TAPE - MTU0610, AND MTU0630                */
     2548     2548        /**/
     2549     2549    1   DCL 1 MTU_TAPE(0:23) CONSTANT SYMDEF ALIGNED,
     2550     2550    1         2 CODE BIT(6) UNAL INIT('00'O,'05'O,'15'O,'03'O,'13'O,'04'O,
     2551     2551    1                                 '14'O,'70'O,'72'O,'55'O,'44'O,'46'O,
     2552     2552    1                                 '45'O,'47'O,'63'O,'62'O,'40'O,'61'O,
     2553     2553    1                                 '60'O,'65'O,'41'O,'75'O,'50'O,'54'O),
PL6.E3A0      #001=TH_XSTATUS_D File=TH_XSTATUS_D.:E05TSI                        WED 07/30/97 06:19 Page:152
     2554     2554    1         2 COUNT UBIN BYTE UNAL INIT(8,4,5,4,5,4,5,8,8,5,8,8,8,8,8,8,8,
     2555     2555    1                                     8,8,8,8,8,8,8),
     2556     2556    1         2 TEXT CHAR(8) UNAL INIT('NON-DATA','READ','WRITE','READ','WRITE',
     2557     2557    1                                  'READ','WRITE','NON-DATA','NON-DATA',
     2558     2558    1                                  'WRITE','NON-DATA','NON-DATA','NON-DATA',
     2559     2559    1                                  'NON-DATA','NON-DATA','NON-DATA','NON-DATA',
     2560     2560    1                                  'NON-DATA','NON-DATA','NON-DATA','NON-DATA',
     2561     2561    1                                  'NON-DATA','NON-DATA','NON-DATA');
     2562     2562        /**/
     2563     2563        /*  FOR CARD READER - CRU1050        */
     2564     2564        /**/
     2565     2565    1   DCL 1 CRU_READR(0:2) CONSTANT SYMDEF ALIGNED,
     2566     2566    1         2 CODE BIT(6) UNAL INIT('00'O, '10'O, '40'O),
     2567     2567    1         2 COUNT UBIN BYTE UNAL INIT(8,4,8),
     2568     2568    1         2 TEXT CHAR(8) UNAL INIT('NON-DATA','READ','NON-DATA');
     2569     2569        /**/
     2570     2570        /*  FOR CARD PUNCHER - PCU0120 AND PCU0121   */
     2571     2571        /**/
     2572     2572    1   DCL 1 PCU_PUNCHR(0:3) CONSTANT SYMDEF ALIGNED,
     2573     2573    1         2 CODE BIT(6) UNAL INIT('00'O, '17'O, '16'O, '40'O),
     2574     2574    1         2 COUNT UBIN BYTE UNAL INIT(8,5,5,8),
     2575     2575    1         2 TEXT CHAR(8) UNAL INIT('NON-DATA','WRITE','WRITE','NON-DATA');
     2576     2576        /**/
     2577     2577        /*   FOR PRINTER - PRU1200 AND PRU1600   */
     2578     2578        /**/
     2579     2579    1   DCL 1 PRU_PRINTR(0:6) CONSTANT SYMDEF ALIGNED,
     2580     2580    1         2 CODE BIT(6) UNAL INIT('00'O, '64'O, '60'O, '40'O,
     2581     2581    1                                 '01'O, '05'O, '03'O),
     2582     2582    1         2 COUNT UBIN BYTE UNAL INIT(8,5,5,8,8,8,8),
     2583     2583    1         2 TEXT CHAR(8) UNAL INIT('NON-DATA','WRITE','WRITE','NON-DATA',
     2584     2584    1                                  'NON-DATA','NON-DATA','NON-DATA');
     2585     2585        /**/
     2586     2586        /* CODES FOR MTU0400 AND MTU0500 FOR DETAIL IOERR REPORTS */
     2587     2587        /**/
     2588     2588    1   DCL 1 TBL_FOUR_FIVE(0:47) CONSTANT SYMDEF ALIGNED,
     2589     2589    1         2 CODE UBIN BYTE UNAL INIT(0,1,2,3,7,15,48,49,50,51,52,53,54,
     2590     2590    1                                    55,56,57,58,59,60,61,62,63,64,65,
PL6.E3A0      #001=TH_XSTATUS_D File=TH_XSTATUS_D.:E05TSI                        WED 07/30/97 06:19 Page:153
     2591     2591    1                                    66,67,68,69,70,71,72,73,74,75,76,
     2592     2592    1                                    77,78,79,80,81,84,85,86,87,122,
     2593     2593    1                                    131,135,146);
     2594     2594        /**/
     2595     2595        /* CODES FOR MTU8200 FOR DETAIL IOERR REPORTS TO INTERPRET ONLY */
     2596     2596        /**/
     2597     2597    1   DCL 1 TBL_EIGHTY_TWO(0:26) CONSTANT SYMDEF ALIGNED,
     2598     2598    1         2 CODE UBIN BYTE UNAL INIT(8,9,10,12,14,15,24,25,26,27,28,
     2599     2599    1                                    30,31,32,33,34,35,37,38,41,42,
     2600     2600    1                                    43,45,46,49,50,176);
     2601     2601        /**/
     2602     2602        /*  CODES FOR MTU610 AND MTU630 TO TEST IN IOERR DETAIL REPORTS */
     2603     2603        /**/
     2604     2604    1   DCL 1 TBL_SIX(0:9) CONSTANT SYMDEF ALIGNED,
     2605     2605    1         2 CODE UBIN BYTE UNAL INIT(0,1,2,3,7,15,48,49,50,51);
     2606     2606        /**/
     2607     2607        /*  CODES FOR MTU610 TO TEST IN IOERR DETAIL REPORTS */
     2608     2608        /**/
     2609     2609    1   DCL 1 TBL_SIX_TEN(0:9) CONSTANT SYMDEF ALIGNED,
     2610     2610    1         2 CODE UBIN BYTE UNAL INIT(56,57,58,59,60,61,62,63,102,117);
     2611     2611        /**/
     2612     2612        /*  CODES FOR MTU630 TO TEST IN IOERR DETAIL ERPORTS */
     2613     2613        /**/
     2614     2614    1   DCL 1 TBL_SIX_THIRTY(0:7) CONSTANT SYMDEF ALIGNED,
     2615     2615    1         2 CODE UBIN BYTE UNAL INIT(40,41,42,56,57,58,63,79);
     2616     2616        /**/
     2617     2617        /* LIST OF FORMAT TABLES FOR DISCS MSU3380/MSU3381/MSU3382/MSU3383 */
     2618     2618        /* BYTE 7, BITS 0-3 TELLS WHICH FORMAT TABLE;                    */
     2619     2619        /* BYTE 7, BITS 4-7 TELLS WHICH MESSAGE                          */
     2620     2620        /**/
     2621     2621    1   DCL 1 FORMAT_TBLS(0:8) CONSTANT SYMDEF ALIGNED,
     2622     2622    1         2 SUB$ PTR INIT(ADDR(FORM0_B1_B3),
     2623     2623    1                         ADDR(FORM1_B7_B4),   /* format1 if byte7,bit4 set*/
     2624     2624    1                         ADDR(FORM2_B7_B4),
     2625     2625    1                         ADDR(FORM3_B7_B4),
     2626     2626    1                         ADDR(FORM4_B7_B4),
     2627     2627    1                         ADDR(FORM5_B7_B4),
PL6.E3A0      #001=TH_XSTATUS_D File=TH_XSTATUS_D.:E05TSI                        WED 07/30/97 06:19 Page:154
     2628     2628    1                         ADDR(FORM6_B7_B4),
     2629     2629    1                         ADDR(FORM7_B7_B4),
     2630     2630    1                         ADDR(FORM8_B7_B4)),
     2631     2631    1         2 COUNT UBIN BYTE UNAL INIT(2,13,3,2,15,7,7,13,6);
     2632     2632        /**/
     2633     2633        /* FORMAT 0 if byte 1, bit 3 is set in the extended status bits   */
     2634     2634        /* of MSU3380/MSU3381/MSU3382/MSU3383 \MSU3390/3391/3392/3393 discs */
     2635     2635        /**/
     2636     2636    1   DCL 1 FORM0_B1_B3(0:2) CONSTANT SYMDEF ALIGNED,
     2637     2637    1         2 CODE UBIN(4) UNAL INIT(0,1,2),
     2638     2638    1         2 COUNT UBIN BYTE UNAL INIT(6,24,26),
     2639     2639    1         2 TEXT CHAR(35) UNAL INIT('NO MSG',
     2640     2640    1                                   'SENSE DAT LOGGED FOR DEV',
     2641     2641    1                                   'SENSE DAT LOGGED FOR CTRLR');
     2642     2642        /**/
     2643     2643        /* FORMAT 1 if byte7,bit4 of ext. status bits is set             */
     2644     2644        /**/
     2645     2645    1   DCL 1 FORM1_B7_B4(0:13) CONSTANT SYMDEF ALIGNED,
     2646     2646    1         2 CODE UBIN(4) UNAL INIT(0,1,3,4,5,6,7,8,9,10,12,13,14,15),
     2647     2647    1         2 COUNT UBIN BYTE UNAL INIT(6,10,13,22,25,13,20,16,13,24,22,15,19,19),
     2648     2648    1         2 TEXT CHAR(35) UNAL INIT('NO MSG',
     2649     2649    1                                   'DEV STAT 1',
     2650     2650    1                                   'INDEX MISSING',
     2651     2651    1                                   'UNRESETTABLE INTERRUPT',
     2652     2652    1                                   'DEV NOT RESPOND TO SELECT',
     2653     2653    1                                   'DRIVE CHECK 2',
     2654     2654    1                                   'HEAD ADDR MISCOMPARE',
     2655     2655    1                                   'INVAL DEV STAT 1',
     2656     2656    1                                   'DEV NOT READY',
     2657     2657    1                                   'TRK PHY. ADDR MISCOMPARE',
     2658     2658    1                                   'DRIVE MOTOR SWITCH OFF',
     2659     2659    1                                   'SEEK INCOMPLETE',
     2660     2660    1                                   'CYL ADDR MISCOMPARE',
     2661     2661    1                                   'UNRESETTABLE OFFSET');
     2662     2662        /**/
     2663     2663        /* FORMAT 2 if byte 7,bit 4 is set for discs MSU3380/MSU3381/MSU3382/MSU3383 */
     2664     2664        /**/
PL6.E3A0      #001=TH_XSTATUS_D File=TH_XSTATUS_D.:E05TSI                        WED 07/30/97 06:19 Page:155
     2665     2665    1   DCL 1 FORM2_B7_B4(0:3) CONSTANT SYMDEF ALIGNED,
     2666     2666    1         2 CODE UBIN(4) UNAL INIT(8,9,10,15),
     2667     2667    1         2 COUNT UBIN BYTE UNAL INIT(6,15,23,17),
     2668     2668    1         2 TEXT CHAR(35) UNAL INIT('NO MSG',
     2669     2669    1                                   'SELECTIVE RESET',
     2670     2670    1                                   '1ST SYNC IN LINE FAILED',
     2671     2671    1                                   'MICROCODE DET CHK');
     2672     2672        /**/
     2673     2673       /* FORMAT 3 if byte7,bit4 is set in ext stats for MSU3380/MSU3381/MSU3382/MSU3383 */
     2674     2674        /**/
     2675     2675    1   DCL 1 FORM3_B7_B4(0:2) CONSTANT SYMDEF ALIGNED,
     2676     2676    1         2 CODE UBIN(4) UNAL INIT(8,9,10),
     2677     2677    1         2 COUNT UBIN BYTE UNAL INIT(19,21,15),
     2678     2678    1         2 TEXT CHAR(35) UNAL INIT('CLOCK STOPPED CHK 1',
     2679     2679    1                                   'CHAN CHK 1/SD TIMEOUT',
     2680     2680    1                                   'TRACE TBL IN SD');
     2681     2681        /**/
     2682     2682        /* FORMAT 4 if byte 7,bit 4 is set in extended status bits of   */
     2683     2683        /* MSU3380/MSU3381/MSU3382/MSU3383 discs                            */
     2684     2684        /**/
     2685     2685    1   DCL 1 FORM4_B7_B4(0:15) CONSTANT SYMDEF ALIGNED,
     2686     2686    1         2 CODE UBIN(4) UNAL INIT(0,1,2,3,4,5,6,7,8,9,10,11,12,13,14,15),
     2687     2687    1         2 COUNT UBIN BYTE UNAL INIT(13,9,7,8,23,19,17,18,28,24,22,23,21,22,20,20),
     2688     2688    1         2 TEXT CHAR(35) UNAL INIT('HOME ADDR ERR',
     2689     2689    1                                   'COUNT ERR',
     2690     2690    1                                   'KEY ERR',
     2691     2691    1                                   'DATA ERR',
     2692     2692    1                                   'DATA SYNCH ON HOME ADDR',
     2693     2693    1                                   'DATA SYNCH ON COUNT',
     2694     2694    1                                   'DATA SYNCH ON KEY',
     2695     2695    1                                   'DATA SYNCH ON DATA',
     2696     2696    1                                   'HOME ADDR ERR(ACCESS OFFSET)',
     2697     2697    1                                   'COUNT ERR(ACCESS OFFSET)',
     2698     2698    1                                   'KEY ERR(ACCESS OFFSET)',
     2699     2699    1                                   'DATA ERR(ACCESS OFFSET)',
     2700     2700    1                                   'DAT SYN HOME(ACC OFF)',
     2701     2701    1                                   'DAT SYN COUNT(ACC OFF)',
PL6.E3A0      #001=TH_XSTATUS_D File=TH_XSTATUS_D.:E05TSI                        WED 07/30/97 06:19 Page:156
     2702     2702    1                                   'DAT SYN KEY(ACC OFF)',
     2703     2703    1                                   'DAT SYN DAT(ACC OFF)');
     2704     2704        /**/
     2705     2705        /* FORMAT 5 if byte 7,bit 4 is set in extended status bits of    */
     2706     2706        /* MSU3380/MSU3381/MSU3382/MSU3383 discs                            */
     2707     2707        /**/
     2708     2708    1   DCL 1 FORM5_B7_B4(0:7) CONSTANT SYMDEF ALIGNED,
     2709     2709    1         2 CODE UBIN(4) UNAL INIT(0,1,2,3,8,9,10,11),
     2710     2710    1         2 COUNT UBIN BYTE UNAL INIT(17,18,16,17,19,22,20,17),
     2711     2711    1         2 TEXT CHAR(35) UNAL INIT('HOME ADDR DAT CHK',
     2712     2712    1                                   'COUNT ADDR DAT CHK',
     2713     2713    1                                   'KEY ADDR DAT CHK',
     2714     2714    1                                   'DATA ADDR DAT CHK',
     2715     2715    1                                   'HA DAT CHK W/OFFSET',
     2716     2716    1                                   'COUNT DAT CHK W/OFFSET',
     2717     2717    1                                   'KEY DAT CHK W/OFFSET',
     2718     2718    1                                   'DATA CHK W/OFFSET');
     2719     2719        /**/
     2720     2720        /* FORMAT 6 if byte 7, bit 4 is set in ext status bits of      */
     2721     2721        /* MSU3380/MSU3381/MSU3382/MSU3383                                  */
     2722     2722        /**/
     2723     2723    1   DCL 1 FORM6_B7_B4(0:7) CONSTANT SYMDEF ALIGNED,
     2724     2724    1         2 CODE UBIN(4) UNAL INIT(8,9,10,11,12,13,14,15),
     2725     2725    1         2 COUNT UBIN BYTE UNAL INIT(15,15,15,15,15,15,15,15),
     2726     2726    1         2 TEXT CHAR(35) UNAL INIT('CHAN A OVERRUNS',
     2727     2727    1                                   'CHAN B OVERRUNS',
     2728     2728    1                                   'CHAN C OVERRUNS',
     2729     2729    1                                   'CHAN D OVERRUNS',
     2730     2730    1                                   'CHAN E OVERRUNS',
     2731     2731    1                                   'CHAN F OVERRUNS',
     2732     2732    1                                   'CHAN G OVERRUNS',
     2733     2733    1                                   'CHAN H OVERRUNS');
     2734     2734        /**/
     2735     2735        /* FORMAT 7 if byte 7, bit 4 of ext status bits is set        */
     2736     2736        /* for MSU3380/MSU3381/MSU3382/MSU3383 discs                        */
     2737     2737        /**/
     2738     2738    1   DCL 1 FORM7_B7_B4(0:13) CONSTANT SYMDEF ALIGNED,
PL6.E3A0      #001=TH_XSTATUS_D File=TH_XSTATUS_D.:E05TSI                        WED 07/30/97 06:19 Page:157
     2739     2739    1         2 CODE UBIN(4) UNAL INIT(0,1,2,3,4,5,6,7,8,9,10,11,12,13),
     2740     2740    1         2 COUNT UBIN BYTE UNAL INIT(17,21,28,13,13,24,23,25,9,26,18,13,15,29),
     2741     2741    1         2 TEXT CHAR(35) UNAL INIT('RCC INIT BY A CCA',
     2742     2742    1                                   'RCC1 SEQ UNSUCCESSFUL',
     2743     2743    1                                   'RCC1 & RCC2 SEQ UNSUCCESSFUL',
     2744     2744    1                                   'INVAL DDC TAG',
     2745     2745    1                                   'EXTRA RRC REQ',
     2746     2746    1                                   'INVAL DDC SELECT/TIMEOUT',
     2747     2747    1                                   'MISSING END OP COMPLETE',
     2748     2748    1                                   'MISSING END OP INCOMPLETE',
     2749     2749    1                                   'INVAL TAG',
     2750     2750    1                                   'INVAL TAG FOR EXT CMND SEQ',
     2751     2751    1                                   'TIMED OUT/DESELECT',
     2752     2752    1                                   'NO CTRLR RESP',
     2753     2753    1                                   'CTRLR NOT AVAIL',
     2754     2754    1                                   'CTRLR NOT AVAIL ON DISCONNECT');
     2755     2755        /**/
     2756     2756        /* FORMAT 8 if byte 7, bit 4 is set on ext status bits for   */
     2757     2757        /* MSU3380/MSU3381/MSU3382/MSU3383 discs                            */
     2758     2758        /**/
     2759     2759    1   DCL 1 FORM8_B7_B4(0:6) CONSTANT SYMDEF ALIGNED,
     2760     2760    1         2 CODE UBIN(4) UNAL INIT(0,1,3,4,5,6,7),
     2761     2761    1         2 COUNT UBIN BYTE UNAL INIT(6,11,18,22,21,29,19),
     2762     2762    1         2 TEXT CHAR(35) UNAL INIT('NO MSG',
     2763     2763    1                                   'ECC HW FAIL',
     2764     2764    1                                   'UNEXPECTED EO RESP',
     2765     2765    1                                   'EO W/TRANSF COUNT ~= 0',
     2766     2766    1                                   'EO W/TRANSF COUNT = 0',
     2767     2767    1                                   'CTRLR STOPPED DYN PATH SELECT',
     2768     2768    1                                   'DPS ARRAY CANT INIT');
     2769     2769        /**/
     2770     2770        /* FORMAT 0 if byte 1, bit 3 is NOT set in the ext status bits   */
     2771     2771        /* for MSU3380/MSU3381/MSU3382/MSU3383 discs                        */
     2772     2772        /**/
     2773     2773    1   DCL 1 FORM0_NOTB1_B3(0:9) CONSTANT SYMDEF ALIGNED,
     2774     2774    1         2 CODE UBIN(4) UNAL INIT(0,1,2,3,4,5,6,7,11,12),
     2775     2775    1         2 COUNT UBIN BYTE UNAL INIT(6,10,22,18,14,29,10,26,19,21),
PL6.E3A0      #001=TH_XSTATUS_D File=TH_XSTATUS_D.:E05TSI                        WED 07/30/97 06:19 Page:158
     2776     2776    1         2 TEXT CHAR(35) UNAL INIT('NO MSG',
     2777     2777    1                                   'INVAL CMND',
     2778     2778    1                                   'INVAL CMND SEQ TO 3880',
     2779     2779    1                                   'CCW < REQ FOR CMND',
     2780     2780    1                                   'INVAL DATA ARG',
     2781     2781    1                                   'DIAG ~ PERMITTED BY FILE MASK',
     2782     2782    1                                   'RETRY STAT',
     2783     2783    1                                   'CCW RETURN ~= RETRY SIGNAL',
     2784     2784    1                                   'DEFECT/ALT TRACK PT',
     2785     2785    1                                   'INSTALL CONFIG. CHECK');
     2786     2786        /**/
     2787     2787        /* FAULT SYMPTOM CODES table interprets byte 22 of extended status */
     2788     2788        /* bits to MTU8200s                                                */
     2789     2789        /**/
     2790     2790    1   DCL 1 FAULT_SYMP_TBL(0:70) CONSTANT SYMDEF ALIGNED,
     2791     2791    1         2 CODE UBIN BYTE UNAL INIT(1,4,5,8,9,18,20,21,22,23,25,32,
     2792     2792    1                                    33,34,35,36,37,38,39,40,48,49,50,53,54,
     2793     2793    1                                    55,56,57,64,65,66,68,69,70,71,72,73,80,81,
     2794     2794    1                                    82,83,84,85,96,97,98,99,100,102,103,105,112,
     2795     2795    1                                    113,114,115,116,118,119,120,121,128,129,130,133,
     2796     2796    1                                    134,135,136,137,156,157,158),
     2797     2797    1         2 COUNT UBIN BYTE UNAL INIT(9,14,13,21,10,10,14,13,12,10,13,16,12,22,
     2798     2798    1                                     13,12,16,9,15,11,10,7,12,10,23,13,14,15,
     2799     2799    1                                     13,15,14,14,14,11,11,14,13,12,12,13,14,14,8,11,
     2800     2800    1                                     9,10,14,15,13,14,12,9,8,14,24,15,9,16,9,14,
     2801     2801    1                                     15,8,14,9,11,11,14,11,11,12,10),
     2802     2802    1         2 TEXT CHAR(35) UNAL INIT('NOT START',
     2803     2803    1                                   'REWRITE RECORD',
     2804     2804    1                                   'NO WRITE STAT',
     2805     2805    1                                   'NO WRITE & ERASE STAT',
     2806     2806    1                                   'BACKING UP',
     2807     2807    1                                   'ERASE STAT',
     2808     2808    1                                   'NOT WRITE STAT',
     2809     2809    1                                   'BACKWARD STAT',
     2810     2810    1                                   'FORWARD STAT',
     2811     2811    1                                   '50/150 IPS',
     2812     2812    1                                   'REWIND/UNLOAD',
PL6.E3A0      #001=TH_XSTATUS_D File=TH_XSTATUS_D.:E05TSI                        WED 07/30/97 06:19 Page:159
     2813     2813    1                                   'DSB: NO RESPONSE',
     2814     2814    1                                   'CANT SET DEN',
     2815     2815    1                                   'CTRL BYTE: NO RESPONSE',
     2816     2816    1                                   'VELOC TOO LOW',
     2817     2817    1                                   'VELOC TOO HI',
     2818     2818    1                                   'NO RESPONSE MODE',
     2819     2819    1                                   'ARA BURST',
     2820     2820    1                                   'GAP AFTER LD PT',
     2821     2821    1                                   'DATA IN ERG',
     2822     2822    1                                   'LP PT MARK',
     2823     2823    1                                   'P TRACK',
     2824     2824    1                                   'GAP AFTER ID',
     2825     2825    1                                   'BLANK TAPE',
     2826     2826    1                                   'NO REC LTH AFTER .18 IN',
     2827     2827    1                                   'IBG IN .18 IN',
     2828     2828    1                                   'LONG POSTAMBLE',
     2829     2829    1                                   'SHORT POSTAMBLE',
     2830     2830    1                                   'CANT WRITE TM',
     2831     2831    1                                   'NO WRITE STATUS',
     2832     2832    1                                   'NOISE AFTER TM',
     2833     2833    1                                   'IBG BEFORE EOD',
     2834     2834    1                                   'BAD TRACK 1 ID',
     2835     2835    1                                   'DATA IN ERG',
     2836     2836    1                                   'CRASHED BOT',
     2837     2837    1                                   'LONG POSTAMBLE',
     2838     2838    1                                   'WRITE INHIBIT',
     2839     2839    1                                   'INVALID STAT',
     2840     2840    1                                   'ILLEGAL CMND',
     2841     2841    1                                   'READ STAT ERR',
     2842     2842    1                                   'WRITE STAT ERR',
     2843     2843    1                                   'READY STAT ERR',
     2844     2844    1                                   'CHAN ERR',
     2845     2845    1                                   'BUSY/REWIND',
     2846     2846    1                                   'NOT READY',
     2847     2847    1                                   'DSE AT EOT',
     2848     2848    1                                   'BACKWARD @ BOT',
     2849     2849    1                                   'WRITE PROTECTED',
PL6.E3A0      #001=TH_XSTATUS_D File=TH_XSTATUS_D.:E05TSI                        WED 07/30/97 06:19 Page:160
     2850     2850    1                                   'READ DATA ERR',
     2851     2851    1                                   'WRITE DATA ERR',
     2852     2852    1                                   'EOT DETECTED',
     2853     2853    1                                   'NOT READY',
     2854     2854    1                                   'DSE FAIL',
     2855     2855    1                                   'UNIT EXCEPTION',
     2856     2856    1                                   'NMI RCVD W/NO ERR DECODE',
     2857     2857    1                                   'WRITING NRZI ID',
     2858     2858    1                                   'NRZI TAPE',
     2859     2859    1                                   'NOT NRZI CAPABLE',
     2860     2860    1                                   'NO ID DET',
     2861     2861    1                                   'WS MEM PAR ERR',
     2862     2862    1                                   'ICA MEM PAR ERR',
     2863     2863    1                                   'ILL ADDR',
     2864     2864    1                                   'ILL BYTE COUNT',
     2865     2865    1                                   'TU ONLINE',
     2866     2866    1                                   'NOT ENABLED',
     2867     2867    1                                   'SENSE ERROR',
     2868     2868    1                                   'NOT CONFIGURED',
     2869     2869    1                                   'INCOMP MPGM',
     2870     2870    1                                   'GCR TAPE LD',
     2871     2871    1                                   'NRZI TAPE LD',
     2872     2872    1                                   'PE TAPE LD');
     2873     2873    1   END TH_XSTATUS_D;

PL6.E3A0      #001=TH_XSTATUS_D File=TH_XSTATUS_D.:E05TSI                        WED 07/30/97 06:19 Page:161
--  Include file information  --

   B$JIT_C.:E05TOU  was found in the system file and is never referenced.
   CP_6_C.:E05TOU  was found in the system file and is never referenced.
      No diagnostics issued in procedure TH_XSTATUS_D.
PL6.E3A0      #001=TH_XSTATUS_D File=TH_XSTATUS_D.:E05TSI                        WED 07/30/97 06:19 Page:162

 **** Variables and constants ****

  ****  Section 000 RoData TH_XSTATUS_D

  ****  Scalars and arrays  ****
OctLoc.c.b A Datatyp(siz) R M Lvl/name                 OctLoc.c.b A Datatyp(siz) R M Lvl/name

 43264-0-0/w STRC(90)    r     1 CRU_READR(0:2)
 32060-0-0/w STRC(333)   r     1 CR_CP(0:55)
 42213-0-0/w STRC(369)   r     1 CURR_DEN(0:4)
 42473-0-0/w STRC(369)   r     1 DEV_ADDR(0:6)
 42404-0-0/w STRC(369)   r     1 DEV_SPD(0:4)
 41436-0-0/w STRC(351)   r     1 ELS1(0:18)
 43527-0-0/w STRC(333)   r     1 FORM0_B1_B3(0:2)
 43565-0-0/w STRC(333)   r     1 FORM1_B7_B4(0:13)
 44001-0-0/w STRC(333)   r     1 FORM2_B7_B4(0:3)
 44051-0-0/w STRC(333)   r     1 FORM3_B7_B4(0:2)
 44107-0-0/w STRC(333)   r     1 FORM4_B7_B4(0:15)
 44347-0-0/w STRC(333)   r     1 FORM5_B7_B4(0:7)
 44467-0-0/w STRC(333)   r     1 FORM6_B7_B4(0:7)
 44607-0-0/w STRC(333)   r     1 FORM7_B7_B4(0:13)
 45023-0-0/w STRC(333)   r     1 FORM8_B7_B4(0:6)
 40774-0-0/w STRC(351)   r     1 L66_DPSE(0:28)
 42610-0-0/w STRC(369)   r     1 LD_CYC(0:5)            43102-0-0/w STRC(90)    r     1 MSU_DSK(0:13)
   714-0-0/w STRC(333)   r     1 MSU_FIVE(0:39)
   170-0-0/w STRC(333)   r     1 MSU_FOUR(0:33)
  2070-0-0/w STRC(333)   r     1 MSU_MDS(0:47)
  1534-0-0/w STRC(333)   r     1 MSU_THIRTY3(0:21)
 30374-0-0/w STRC(333)   r     1 MTU_EIGHTY2(0:81)
 21330-0-0/w STRC(333)   r     1 MTU_SIX1(0:184)        25022-0-0/w STRC(333)   r     1 MTU_SIX2(0:176)
 43154-0-0/w STRC(90)    r     1 MTU_TAPE(0:23)
 14460-0-0/w STRC(405)   r     1 OCT1_51(0:7)
  4056-0-0/w STRC(405)   r     1 OCT1_X2(0:7)
  5024-0-0/w STRC(405)   r     1 OCT1_X4(0:7)
  5471-0-0/w STRC(405)   r     1 OCT1_X5(0:7)
  7555-0-0/w STRC(405)   r     1 OCT1_X6(0:7)
  6747-0-0/w STRC(405)   r     1 OCT1_X7(0:7)
PL6.E3A0      #001=TH_XSTATUS_D File=TH_XSTATUS_D.:E05TSI                        WED 07/30/97 06:19 Page:163
  6132-0-0/w STRC(405)   r     1 OCT1_X8(0:7)
 10740-0-0/w STRC(405)   r     1 OCT1_X9(0:7)
  6300-0-0/w STRC(405)   r     1 OCT1_XA(0:7)
 14620-0-0/w STRC(405)   r     1 OCT2_51(0:7)
  4216-0-0/w STRC(405)   r     1 OCT2_X2(0:7)
  5631-0-0/w STRC(405)   r     1 OCT2_X5(0:7)
  7715-0-0/w STRC(405)   r     1 OCT2_X6(0:7)
  7107-0-0/w STRC(405)   r     1 OCT2_X7(0:7)
 11100-0-0/w STRC(405)   r     1 OCT2_X9(0:7)
  4356-0-0/w STRC(405)   r     1 OCT3_X2(0:7)
 10055-0-0/w STRC(405)   r     1 OCT3_X6(0:7)
 11240-0-0/w STRC(405)   r     1 OCT3_X9(0:7)
  6440-0-0/w STRC(405)   r     1 OCT3_XA(0:7)
  4516-0-0/w STRC(405)   r     1 OCT4_X2(0:7)
 10215-0-0/w STRC(405)   r     1 OCT4_X6(0:7)
  4656-0-0/w STRC(405)   r     1 OCT5_X2(0:7)
  5164-0-0/w STRC(405)   r     1 OCT5_X4(0:7)
  5771-0-0/w STRC(405)   r     1 OCT5_X5(0:7)
 10355-0-0/w STRC(405)   r     1 OCT5_X6(0:7)
  7247-0-0/w STRC(405)   r     1 OCT5_X7(0:7)
  6600-0-0/w STRC(405)   r     1 OCT5_XA(0:7)
  5324-0-0/w STRC(405)   r     1 OCT6_X4(0:7)
 10515-0-0/w STRC(405)   r     1 OCT6_X6(0:7)
  7407-0-0/w STRC(405)   r     1 OCT7_X7(0:7)
 43275-0-0/w STRC(90)    r     1 PCU_PUNCHR(0:3)
 35646-0-0/w STRC(333)   r     1 PR54(0:9)              34530-0-0/w STRC(333)   r     1 PR71(0:58)
 43311-0-0/w STRC(90)    r     1 PRU_PRINTR(0:6)
 42302-0-0/w STRC(369)   r     1 RCRD_CAPA(0:5)


   No code generated for procedure TH_XSTATUS_D .
   Procedure TH_XSTATUS_D requires 4 words of local(AUTO) storage.

    No errors detected in file TH_XSTATUS_D.:E05TSI    .
PL6.E3A0      #001=TH_XSTATUS_D File=TH_XSTATUS_D.:E05TSI                        WED 07/30/97 06:19 Page:164
          *** CROSS REFERENCE LISTING ***
**     DENOTES     IDENTIFIER DEFINITION
<<                 IDENTIFIER'S VALUE SET
>>                 IDENTIFIER'S VALUE USED
<>                 IDENTIFIER SET AND/OR USED
--                 IDENTIFIER REFERENCED
PL6.E3A0      #001=TH_XSTATUS_D File=TH_XSTATUS_D.:E05TSI                        WED 07/30/97 06:19 Page:165
          MINI XREF LISTING

CRU_READR
      2565**DCL      2519--DCLINIT  2520--DCLINIT
CR_CP
      1824**DCL       131--DCLINIT   132--DCLINIT   133--DCLINIT   134--DCLINIT
CURR_DEN
      2415**DCL      2406--DCLINIT
DEV_ADDR
      2449**DCL      2409--DCLINIT
DEV_SPD
      2438**DCL      2408--DCLINIT
ELS1
      2355**DCL      2311--DCLINIT
FORM0_B1_B3
      2636**DCL      2622--DCLINIT
FORM1_B7_B4
      2645**DCL      2623--DCLINIT
FORM2_B7_B4
      2665**DCL      2624--DCLINIT
FORM3_B7_B4
      2675**DCL      2625--DCLINIT
FORM4_B7_B4
      2685**DCL      2626--DCLINIT
FORM5_B7_B4
      2708**DCL      2627--DCLINIT
FORM6_B7_B4
      2723**DCL      2628--DCLINIT
FORM7_B7_B4
      2738**DCL      2629--DCLINIT
FORM8_B7_B4
      2759**DCL      2630--DCLINIT
L66_DPSE
      2316**DCL      2309--DCLINIT  2310--DCLINIT
PL6.E3A0      #001=TH_XSTATUS_D File=TH_XSTATUS_D.:E05TSI                        WED 07/30/97 06:19 Page:166
LD_CYC
      2462**DCL      2410--DCLINIT
MSU_DSK
      2537**DCL      2503--DCLINIT  2504--DCLINIT  2505--DCLINIT  2506--DCLINIT  2507--DCLINIT  2508--DCLINIT
      2509--DCLINIT  2510--DCLINIT  2511--DCLINIT  2512--DCLINIT  2513--DCLINIT  2514--DCLINIT  2515--DCLINIT
MSU_FIVE
       193**DCL       116--DCLINIT   117--DCLINIT
MSU_FOUR
       149**DCL       115--DCLINIT
MSU_MDS
       275**DCL       126--DCLINIT   127--DCLINIT
MSU_THIRTY3
       245**DCL       118--DCLINIT   119--DCLINIT   120--DCLINIT   121--DCLINIT   122--DCLINIT   123--DCLINIT
       124--DCLINIT   125--DCLINIT
MTU_EIGHTY2
      1725**DCL       130--DCLINIT
MTU_SIX1
      1287**DCL       128--DCLINIT
MTU_SIX2
      1511**DCL       129--DCLINIT
MTU_TAPE
      2549**DCL      2516--DCLINIT  2517--DCLINIT  2518--DCLINIT
OCT1_51
       988**DCL       970--DCLINIT
OCT1_X2
       380**DCL       375--DCLINIT
OCT1_X4
       437**DCL       431--DCLINIT
OCT1_X5
       473**DCL       468--DCLINIT
OCT1_X6
       589**DCL       583--DCLINIT
OCT1_X7
       545**DCL       538--DCLINIT
OCT1_X8
       505**DCL       504--DCLINIT
PL6.E3A0      #001=TH_XSTATUS_D File=TH_XSTATUS_D.:E05TSI                        WED 07/30/97 06:19 Page:167
OCT1_X9
       676**DCL       649--DCLINIT
OCT1_XA
       522**DCL       516--DCLINIT
OCT2_51
       996**DCL       971--DCLINIT
OCT2_X2
       390**DCL       376--DCLINIT
OCT2_X5
       483**DCL       469--DCLINIT
OCT2_X6
       599**DCL       584--DCLINIT
OCT2_X7
       554**DCL       539--DCLINIT
OCT2_X9
       685**DCL       650--DCLINIT
OCT3_X2
       400**DCL       377--DCLINIT
OCT3_X6
       608**DCL       585--DCLINIT
OCT3_X9
       694**DCL       651--DCLINIT
OCT3_XA
       527**DCL       518--DCLINIT
OCT4_X2
       410**DCL       378--DCLINIT
OCT4_X6
       615**DCL       586--DCLINIT
OCT5_X2
       420**DCL       379--DCLINIT
OCT5_X4
       447**DCL       435--DCLINIT
OCT5_X5
       493**DCL       472--DCLINIT
OCT5_X6
       622**DCL       587--DCLINIT
PL6.E3A0      #001=TH_XSTATUS_D File=TH_XSTATUS_D.:E05TSI                        WED 07/30/97 06:19 Page:168
OCT5_X7
       563**DCL       542--DCLINIT
OCT5_XA
       533**DCL       520--DCLINIT
OCT6_X4
       457**DCL       436--DCLINIT
OCT6_X6
       632**DCL       588--DCLINIT
OCT7_X7
       572**DCL       544--DCLINIT
PCU_PUNCHR
      2572**DCL      2521--DCLINIT  2522--DCLINIT
PR54
      2063**DCL       135--DCLINIT   136--DCLINIT   137--DCLINIT   138--DCLINIT   139--DCLINIT   140--DCLINIT
PR71
      1988**DCL       141--DCLINIT   142--DCLINIT
PRU_PRINTR
      2579**DCL      2523--DCLINIT  2524--DCLINIT  2525--DCLINIT  2526--DCLINIT  2527--DCLINIT  2528--DCLINIT
      2529--DCLINIT  2530--DCLINIT
RCRD_CAPA
      2426**DCL      2407--DCLINIT
