VERSION E05

PL6.E3A0      #001=TM_DATA_D File=TM_DATA_D.:E05TSI                              WED 07/30/97 06:20 Page:1
        1        1        /*M* TM_DATA_D - DATA MODULE FOR DPS8000 MCA PROCESSOR */
        2        2        /*T***********************************************************/
        3        3        /*T*                                                         */
        4        4        /*T* Copyright (c) Bull HN Information Systems Inc., 1997    */
        5        5        /*T*                                                         */
        6        6        /*T***********************************************************/
        7        7        /**/
        8        8        TM_DATA_D: PROC;
        9        9        /**/
       10       10    1   DCL TM_MCA_DO_TIME BIT(1) ALIGNED STATIC SYMDEF INIT('0'B);
       11       11        /**/
       12       12    1   END TM_DATA_D;

PL6.E3A0      #001=TM_DATA_D File=TM_DATA_D.:E05TSI                              WED 07/30/97 06:20 Page:2
      No diagnostics issued in procedure TM_DATA_D.

   No code generated for procedure TM_DATA_D .
   Procedure TM_DATA_D requires 4 words of local(AUTO) storage.

    No errors detected in file TM_DATA_D.:E05TSI    .

PL6.E3A0      #001=TM_DATA_D File=TM_DATA_D.:E05TSI                              WED 07/30/97 06:20 Page:3

 Object Unit name= TM_DATA_D                                  File name= TM_DATA_D.:E05TOU
 UTS= JUL 30 '97 06:20:33.12 WED                              Compiler= PL-6/E31         Sev=      00
 SharedLib= :SHARED_SYSTEM                                    Alt SharedLib=


    ****  Control sections  ****

 Sect   Type Bound  Init  Size OctSiz  Section name(segment info)
    0   Data  even  none     1      1  TM_DATA_D
    1   Proc  even  none     0      0  TM_DATA_D

    ****  Entry defs  ****

                              Check   Calling
                             calling  sequence
  Sect OctLoc Primary Altret sequence   type   Parms  Name
     1      0   yes            yes     ~proc       0  TM_DATA_D

  ****  Data defs  ****

 Sect OctLoc  Name                           Sect OctLoc  Name
    0      0  TM_MCA_DO_TIME
PL6.E3A0      #001=TM_DATA_D File=TM_DATA_D.:E05TSI                              WED 07/30/97 06:20 Page:4


(unnamed)
 Sect OctLoc
   0     000   0***** ******                                                    ....
        1        1        /*M* TM_DATA_D - DATA MODULE FOR DPS8000 MCA PROCESSOR */
        2        2        /*T***********************************************************/
        3        3        /*T*                                                         */
        4        4        /*T* Copyright (c) Bull HN Information Systems Inc., 1997    */
        5        5        /*T*                                                         */
        6        6        /*T***********************************************************/
        7        7        /**/
        8        8        TM_DATA_D: PROC;
        9        9        /**/
       10       10    1   DCL TM_MCA_DO_TIME BIT(1) ALIGNED STATIC SYMDEF INIT('0'B);
       11       11        /**/
       12       12    1   END TM_DATA_D;

PL6.E3A0      #001=TM_DATA_D File=TM_DATA_D.:E05TSI                              WED 07/30/97 06:20 Page:5
      No diagnostics issued in procedure TM_DATA_D.
PL6.E3A0      #001=TM_DATA_D File=TM_DATA_D.:E05TSI                              WED 07/30/97 06:20 Page:6

 **** Variables and constants ****


   No code generated for procedure TM_DATA_D .
   Procedure TM_DATA_D requires 4 words of local(AUTO) storage.

    No errors detected in file TM_DATA_D.:E05TSI    .
PL6.E3A0      #001=TM_DATA_D File=TM_DATA_D.:E05TSI                              WED 07/30/97 06:20 Page:7
          *** CROSS REFERENCE LISTING ***
**     DENOTES     IDENTIFIER DEFINITION
<<                 IDENTIFIER'S VALUE SET
>>                 IDENTIFIER'S VALUE USED
<>                 IDENTIFIER SET AND/OR USED
--                 IDENTIFIER REFERENCED
PL6.E3A0      #001=TM_DATA_D File=TM_DATA_D.:E05TSI                              WED 07/30/97 06:20 Page:8
          MINI XREF LISTING

