VERSION E05

 06:23 07/30/97  FILE=TOF$SFR.:E05TSI                                                                    1    BMAP - B00
                                         1  *M*    TOF$SFR     BMAP ROUTINES TO RETURN TO A SUBEXEC FAULT HANDLER
                                         2  *T***********************************************************
                                         3  *T*                                                         *
                                         4  *T* Copyright (c) Bull HN Information Systems Inc., 1997    *
                                         5  *T*                                                         *
                                         6  *T***********************************************************
                                         7  *P*    NAME:       TOF$SFR
                                         8  *,*    PURPOSE:    BMAP ROUTINES TO RETURN TO A SUBEXEC FAULT HANDLER
                                         9  *,*    DESCRIPTION:
                                        10  *,*                1.  TOF$SUBEXEC_FLT_RET RETURNS TO A SUBEXEC(GMAP)
                                        11  *,*                    FROM PL6 FOLLOWING A FAULT WHICH BREAKS GELBAR
                                        12  *,*                    AFTER RESTORING THE REGISTERS TO WHAT THEY
                                        13  *,*                    WERE AT THE TIME OF THE FAULT.
                                        14  *,*                2.  TOF$REMEMBER_SFR BUILDS A PL6 REMEMBER
                                        15  *,*                    VARIABLE TO BE USED WHEN RETURNING TO A
                                        16  *,*                    SUBEXEC SO THAT NO AUTO FRAMES ARE LEFT AROUND.
                                        17  *,*                3.  TOF$6XAUTO CALLS THE CP6 SYSTEM ROUTINE 6XAUTO
                                        18  *,*                    TO MANAGE THE POINTER TO THE CURRENT AUTO
                                        19  *,*                    FRAME WHEN RETURNING TO A SUBEXEC.
                                        20  *,*    REFERENCE:

 06:23 07/30/97  FILE=TOF$SFR.:E05TSI                                                                    2    BMAP - B00
                                        21         EJECT
                                        22  *F*    NAME:       TOF$SFR
                                        23  *,*    PURPOSE:    BMAP ROUTINES TO RETURN TO A SUBEXEC FAULT HANDLER
                                        24  *,*    DESCRIPTION:
                                        25  *,*    REFERENCE:  VERSION--  A00T, 10/29/79
                                        26  *,*                GARY CHUN

 06:23 07/30/97  FILE=TOF$SFR.:E05TSI                                                                    3    BMAP - B00
                                        27         EJECT
                                        28  *
                                        29  *      PROGRAM IDENTIFICATION
                                        30  *
 0 000000                               31  VERSION NULL
   000000    101060060124               32         UASCI   1,A00T          VERSION A00, T INTEGRATION
   000001                               33  DATE   NULL
   000001    061060057062               34         UASCI   2,10/29/79      LAST UPDATED
   000002    071057067071

 06:23 07/30/97  FILE=TOF$SFR.:E05TSI                                                                    4    BMAP - B00
                                        35         EJECT
                                        36  *
                                        37  *      SYMDEF,SYMREF AND ENTDEF
                                        38  *
                                        39         ENTDEF  TOF$SUBEXEC_FLT_RET
                                        40         ENTDEF  TOF$REMEMBER_SFR
                                        41         SYMREF  TOF$GELBAR_ADDRESS_REGS
                                        42         SYMREF  TOF$GELBAR_EIS_REGS
                                        43         SYMREF  TOF$GELBAR_INDICATORS
                                        44         SYMREF  TOF$GELBAR_FAULT_VECTOR
                                        45         SYMREF  TOF$GELBAR_REGISTERS
                                        46         SYMDEF  TOF$SFR_RV
 2 000000                               47         USE     TOF$FAULT_RETURN,0

 06:23 07/30/97  FILE=TOF$SFR.:E05TSI                                                                    5    BMAP - B00
                                        48         EJECT
                                        49  *D*    NAME:       TOF$SUBEXEC_FLT_RET
                                        50  *,*    ENTRY:
                                        51  *,*    CALL:       UNWIND TO TOF$SFR_RV
                                        52  *,*                (PL6 UNWIND INSTRUCTION CLEARS OFF THE
                                        53  *,*                AUTO STACK AND TRANSFERS TO THIS BMAP ROUTINE)
                                        54  *,*    INTERFACE:  6XAUTO  (CP6 SYSTEM ROUTINE)
                                        55  *,*    ENVIRONMENT:
                                        56  *,*    INPUT:      TOF$GELBAR_REGISTERS--
                                        57  *,*                  REGISTER STATE AT TIME OF TEST PAGE FAULT
                                        58  *,*                  WHICH WILL BE RESTORED PRIOR TO ENTERING
                                        59  *,*                  SUBEXEC'S FAULT HANDLER.
                                        60  *,*                TOF$GELBAR_EIS_REGS--
                                        61  *,*                  EIS (POINTER AND LENGTH) REGISTER STATE AT TIME
                                        62  *,*                  OF TEST PAGE FAULT WHICH WILL BE RESTORED PRIOR
                                        63  *,*                  TO ENTERING SUBEXEC'S FAULT HANDLER.
                                        64  *,*                TOF$GELBAR_INDICATORS--
                                        65  *,*                  INDICATORS AT TIME OF TEST PAGE FAULT.
                                        66  *,*                TOF$GELBAR_ADDRESS_REGS--
                                        67  *,*                  ADDRESS REGISTERS AT TIME OF TEST PAGE FAULT
                                        68  *,*                  WHICH WILL BE RESTORED PRIOR TO ENTERING
                                        69  *,*                  SUBEXEC'S FAULT HANDLER.
                                        70  *,*                TOF$GELBAR_FAULT_VECTOR--
                                        71  *,*                  TRANSFER INSTRUCTION IN SUBEXEC SLAVE PREFIX
                                        72  *,*                  AREA WHICH POINTS TO WHERE THE SUBEXEC'S FAULT
                                        73  *,*                  HANDLER IS.
                                        74  *,*    OUTPUT:     FOLLOWING REGISTERS INITIALIZED TO THE STATE THAT
                                        75  *,*                THEY WERE IN AT THE TIME OF THE TEST PAGE FAULT--
                                        76  *,*                  A,Q AND INDEX REGISTERS
                                        77  *,*                  EIS POINTER AND LENGTH REGISTERS
                                        78  *,*                  ADDRESS REGISTERS
                                        79  *,*                  INDICATOR REGISTER ZEROED
                                        80  *,*    SCRATCH:
                                        81  *,*    DESCRIPTION:
                                        82  *,*                THE ABOVE REGISTERS ARE INITIALIZED BY USING THE
                                        83  *,*                LREG, LAREG, LPL AND LDI INSTRUCTIONS.  IT IS UP
                                        84  *,*                TO THE SUBEXEC TO SAVE THESE REGISTERS ONCE
 06:23 07/30/97  FILE=TOF$SFR.:E05TSI                                                                    6    BMAP - B00
                                        85  *,*                ITS FAULT HANDLER GAINS CONTROL.
                                        86  *,*
                                        87  *<
                                        88  *,*                THE INDICATOR REGISTER IS ZEROED BECAUSE THE SUBEXECS
                                        89  *,*                TO DATE DON'T NEED IT OR USE IT.  HOWEVER,
                                        90  *,*                IF SOLTS WAS RUNNING AND BIT 30 OF THE INDICATOR
                                        91  *,*                REGISTER WAS SET (EIS TYPE INTERRUPT), THE
                                        92  *,*                CP6 FAULT HANDLER WILL NOT DECREMENT THE FAULT
                                        93  *,*                IC IN THE TCB FRAME.  THUS, IF THE SUBEXEC WERE TO
                                        94  *,*                CREATE A FAULT (AS DOES PROE), THE FAULT IC
                                        95  *,*                IN THE TCB FRAME WILL BE OFF BY ONE, AND NOTHING
                                        96  *,*                WILL WORK.  THE CONTENTS OF THE INDICATOR REGISTER
                                        97  *,*                AT THE TIME OF THE TEST PAGE FAULT ARE PASSED
                                        98  *,*                BACK TO THE SUBEXEC IN WORD 18 OF THE SLAVE PREFIX
                                        99  *,*                AREA SO THAT IT CAN PASS IT BACK TO THE TEST PAGE.
                                       100  *,*
                                       101  *,*                FINALLY, A TRANSFER IS MADE TO THE GELBAR FAULT
                                       102  *,*                VECTOR, TOF$GELBAR_FAULT_VECTOR WHICH WAS
                                       103  *,*                FETCH FROM THE SLAVE PREFIX AREA.

 06:23 07/30/97  FILE=TOF$SFR.:E05TSI                                                                    7    BMAP - B00
                                       104         EJECT
   000000                              105  TOF$SUBEXEC_FLT_RET NULL
   000000  X 000000 0730 00            106         LREG    TOF$GELBAR_REGISTERS     RESTORE A,Q AND INDEX REGS
   000001  X 000000 4634 00            107         LAREG   TOF$GELBAR_ADDRESS_REGS     RESTORE ADDRESS REGISTERS
   000002  X 000000 4674 00            108         LPL     TOF$GELBAR_EIS_REGS     RESTORE POINTER AND LENGTH REGS
   000003    000000 6340 07            109         LDI     0,DL            ZERO INDICATORS BEFORE RETURINING
   000004  X 000000 7100 00            110         TRA     TOF$GELBAR_FAULT_VECTOR

 06:23 07/30/97  FILE=TOF$SFR.:E05TSI                                                                    8    BMAP - B00
                                       111         EJECT
                                       112  *D*    NAME:       TOF$REMEMBER_SFR
                                       113  *,*    ENTRY:
                                       114  *,*    CALL:       CALL TOF$REMEMBER_SFR
                                       115  *,*    INTERFACE:
                                       116  *,*    ENVIRONMENT:
                                       117  *,*    INPUT:      NONE REQUIRED
                                       118  *,*    OUTPUT:     PL6 REMEMBER VARIABLE TOF$SFR_RV
                                       119  *,*    SCRATCH:
                                       120  *,*    DESCRIPTION:
                                       121  *,*                POINTER TO THE CURRENT AUTO FRAME (PR2) OF CALLER
                                       122  *,*                IS STORED INTO WORD 0 OF THE REMEMBER
                                       123  *,*                VARIABLE.   THE ENTRY ADDRESS OF THE BMAP ROUTINE
                                       124  *,*                TO BE ENTERED IS STORED INTO BITS 0-17
                                       125  *,*                OF WORD 1 OF THE REMEMBER VARIABLE.  THIS CREATES
                                       126  *,*                A PL6 REMEMBER VARIABLE.
                                       127  *,*
                                       128  *,*                AN UNWIND TO TOF$SFR_RV WILL POP ALL THE AUTO
                                       129  *,*                FRAMES BACK TO THE PLACE WHERE PR2 IN THE
                                       130  *,*                REMEMBER VARABLE IS POINTING AND TRANSFERS CONTROL
                                       131  *,*                TO THE BMAP ROUTINE TOF$SUBEXEC_FLT_RET.  THE
                                       132  *,*                UNWIND IS USED INSTEAD OF A CALL TO TOF$SUBEXEC_FLT_RET
                                       133  *,*                SO THAT AUTO FRAMES ARE NOT LEFT LYING AROUND
                                       134  *,*                AND ACCUMULATING.  IN THIS CASE, THE AUTO FRAME
                                       135  *,*                BELONGS TO TOF$FAULTS.

 06:23 07/30/97  FILE=TOF$SFR.:E05TSI                                                                    9    BMAP - B00
                                       136         EJECT
   000005                              137  TOF$REMEMBER_SFR NULL
   000005 (2)000012 4524 00            138         STP2    TOF$SFR_RV
   000006 (2)000000 6360 00            139         EAQ     TOF$SUBEXEC_FLT_RET
   000007 (2)000013 7560 00            140         STQ     TOF$SFR_RV+1
   000010    000000 7100 11            141         TRA     0,X1

 06:23 07/30/97  FILE=TOF$SFR.:E05TSI                                                                    10   BMAP - B00
                                       142         EJECT
   000011    000000 0110 00            143         EVEN
   000012
   000012                              144  TOF$SFR_RV NULL
   000012    000000000000              145         OCT     0
   000013    000000000000              146         OCT     0
                                       147         END

  CONTROL SECTION TABLE

   0 CODE   EVEN  000003
   1 RODATA EVEN  000000 LITERALS
   2 DATA   EVEN  000014 TOF$FAULT_RETURN

 06:23 07/30/97  FILE=TOF$SFR.:E05TSI         SYMBOL TABLE                                               11   BMAP - B00
 00101000 000000000001 DATE           *33
 03301000 000000000000 TOF$GELBAR_ADDRESS_REGS  *41       107
 03301001 000000000000 TOF$GELBAR_EIS_REGS      *42       108
 03301003 000000000000 TOF$GELBAR_FAULT_VECTOR  *44       110
 02301002 000000000000 TOF$GELBAR_INDICATORS    *43
 03301004 000000000000 TOF$GELBAR_REGISTERS     *45       106
 12101002 000000000005 TOF$REMEMBER_SFR          40      *137
 07101002 000000000012 TOF$SFR_RV      46       138       140      *144
 13101002 000000000000 TOF$SUBEXEC_FLT_RET       39      *105       139
 00101000 000000000000 VERSION        *31

      10 SYMBOLS

       0 MACROS

    SYMBOL SPACE USED   136 WORDS
     MACRO SPACE USED     0 WORDS
   INPUT RECORDS READ   294
 STATEMENTS PROCESSED    47
         ELAPSED TIME  0:02.64
             CPU TIME     0.91 SEC.
        ASSEMBLY RATE  3099 STATEMENTS/CPU MIN.

      NO ERRORS

