VERSION E05

PL6.E3A0      #001=TOL$FREE_BUFFER File=TOL$FREE_BUFFER.:E05TSI                  WED 07/30/97 06:25 Page:1
        1        1        /*M* TOL$FREE_BUFFER   TOLTS LOADER FREE/GET BUFFER program */
        2        2        /*T***********************************************************/
        3        3        /*T*                                                         */
        4        4        /*T* Copyright (c) Bull HN Information Systems Inc., 1997    */
        5        5        /*T*                                                         */
        6        6        /*T***********************************************************/
        7        7
        8        8        /*X* PLM=3,DCI=6,SQB=N,PRB=N,DTI=5,ENI=0,AND=Y,ECI=0,CSU=3,DIN=3,
        9        9             PRB=Y,CTI=8,CRM=109,CRT=1,NLB=N,NTB=Y,MCL=110 */
       10       10
       11       11
       12       12        TOL$FREE_BUFFER: PROC;
       13       13
       14       14        %INCLUDE B$JIT;
       15      617        %INCLUDE B_ERRORS_C;
       16     1744        %INCLUDE CP_6;
       17     7303        %INCLUDE CP_6_SUBS;
       18     7843
       19     7844        %FPT_FDP   (FPTN    = FREE_MEMORY,
       20     7845                    PAGES   = 26);
       21     7859        %FPT_GDP   (FPTN    = GET_MEMORY,
       22     7860                    PAGES   = 26);
       23     7874
       24     7875    1      DCL   B$JIT$                                    SYMREF PTR        ALIGNED;
       25     7876
       26     7877    1      DCL   TOL$BUFFER$                        STATIC SYMDEF PTR        ALIGNED INIT (
              7877               ADDR (NIL));
       27     7878    1      DCL   BUFFER$                 REDEF TOL$BUFFER$        PTR        ALIGNED;
       28     7879    1      DCL 1 BUFFERP                 REDEF TOL$BUFFER$                   ALIGNED,
       29     7880    1            2 ADDRESS                                        UBIN (18)  UNAL,
       30     7881    1            2 *                                              BIT  (18)  UNAL;
       31     7882    1      DCL   NEXT_PAGE#                                       UBIN (18)  ALIGNED;
       32     7883    1      DCL   TOL$BAD_CARD                                     ENTRY (1);
       33     7884        %EJECT;
PL6.E3A0      #001=TOL$FREE_BUFFER File=TOL$FREE_BUFFER.:E05TSI                  WED 07/30/97 06:25 Page:2
       34     7885    1      DCL 1 ER#68  STATIC    UNAL,
       35     7886    1            2 *    CHAR (12) UNAL INIT ('--ALTRET IN'),
       36     7887    1            2 *    CHAR (19) UNAL INIT ('TOL$FREE_BUFFER ON'),
       37     7888    1            2 *    CHAR (21) UNAL INIT ('M$FDP (FREE_MEMORY)');
       38     7889    1      DCL 1 ER#69  STATIC    UNAL,
       39     7890    1            2 *    CHAR (12) UNAL INIT ('--ALTRET IN'),
       40     7891    1            2 *    CHAR (18) UNAL INIT ('TOL$GET_BUFFER ON'),
       41     7892    1            2 *    CHAR (18) UNAL INIT ('M$GDP (GET_MEMORY)');
       42     7893        %EJECT;
PL6.E3A0      #001=TOL$FREE_BUFFER File=TOL$FREE_BUFFER.:E05TSI                  WED 07/30/97 06:25 Page:3
       43     7894        /* Free Buffer */
       44     7895
       45     7896    1      IF  BUFFER$ = ADDR (NIL)
       46     7897    1      THEN /* No Buffer to free */ ;
       47     7898    2      ELSE DO ;
       48     7899    2              CALL M$FDP (FREE_MEMORY) ALTRET (NO_FREE);
       49     7900    2              BUFFER$ = ADDR (NIL);
       50     7901    2           END /* ELSE */ ;
       51     7902    1      RETURN;
       52     7903
       53     7904    1   NO_FREE:
       54     7905    1      CALL TOL$BAD_CARD (VECTOR (ER#68));
       55     7906
       56     7907        /* END TOL$FREE_BUFFER */
       57     7908        %EJECT;
PL6.E3A0      #001=TOL$FREE_BUFFER File=TOL$FREE_BUFFER.:E05TSI                  WED 07/30/97 06:25 Page:4
       58     7909    1   TOL$GET_BUFFER: ENTRY;
       59     7910
       60     7911    1      IF BUFFER$ = ADDR (NIL)
       61     7912    2      THEN DO ;
       62     7913    2              BUFFER$ = ADDR (BUFFER$);
       63     7914    2              NEXT_PAGE# = B$JIT$ -> B$JIT.TDP;
       64     7915    2              BUFFERP.ADDRESS = (NEXT_PAGE# - 64) * 1024;
       65     7916    2              CALL M$GDP (GET_MEMORY) ALTRET (NO_MEMORY);
       66     7917    2           END /* THEN */ ;
       67     7918    1      ELSE /* Buffer already assigned. */ ;
       68     7919    1      RETURN;
       69     7920
       70     7921    1   NO_MEMORY:
       71     7922    1      BUFFER$ = ADDR (NIL);
       72     7923    1      CALL TOL$BAD_CARD (VECTOR (ER#69));
       73     7924
       74     7925        /* END TOL$GET_BUFFER */
       75     7926
       76     7927    1   END TOL$FREE_BUFFER;

PL6.E3A0      #001=TOL$FREE_BUFFER File=TOL$FREE_BUFFER.:E05TSI                  WED 07/30/97 06:25 Page:5
--  Include file information  --

   CP_6_SUBS.:E05TOU  is referenced.
   CP_6_C.:E05TOU  is referenced.
   CP_6.:E05TOU  cannot be made into a system file and is referenced.
   B_ERRORS_C.:E05TOU  is referenced.
   B$JIT_C.:E05TOU  is referenced.
   B$JIT.:E05TOU  cannot be made into a system file and is referenced.
      No diagnostics issued in procedure TOL$FREE_BUFFER.

   Procedure TOL$FREE_BUFFER requires 44 words for executable code.
   Procedure TOL$FREE_BUFFER requires 4 words of local(AUTO) storage.

    No errors detected in file TOL$FREE_BUFFER.:E05TSI    .

PL6.E3A0      #001=TOL$FREE_BUFFER File=TOL$FREE_BUFFER.:E05TSI                  WED 07/30/97 06:25 Page:6

 Object Unit name= TOL$FREE_BUFFER                            File name= TOL$FREE_BUFFER.:E05TOU
 UTS= JUL 30 '97 06:25:30.48 WED                              Compiler= PL-6/E31         Sev=      00
 SharedLib= :SHARED_SYSTEM                                    Alt SharedLib=


    ****  Control sections  ****

 Sect   Type Bound  Init  Size OctSiz  Section name(segment info)
    0   DCB   even  none     0      0  M$UC
    1   Data  even  none    38     46  TOL$FREE_BUFFER
    2   Proc  even  none    44     54  TOL$FREE_BUFFER
    3  RoData even  none     7      7  TOL$FREE_BUFFER

    ****  Entry defs  ****

                              Check   Calling
                             calling  sequence
  Sect OctLoc Primary Altret sequence   type   Parms  Name
     2      0   yes            yes      Std        0  TOL$FREE_BUFFER
     2     21                  yes      Std        0  TOL$GET_BUFFER

  ****  Data defs  ****

 Sect OctLoc  Name                           Sect OctLoc  Name
    1     14  TOL$BUFFER$

  ****  Entry refs  ****

         Check        Calling
        calling       sequence
Altret sequence SRef   type   Args  Name
         yes           Std       1 TOL$BAD_CARD
                       nStd      0 X66_AUTO_0
                       Std       0 B_CONSPOOL_D
                       nStd      0 X66_ARET
PL6.E3A0      #001=TOL$FREE_BUFFER File=TOL$FREE_BUFFER.:E05TSI                  WED 07/30/97 06:25 Page:7

  ****  Data refs  ****

  Flags:  r = read only, s = secondary
Flgs Name                             Flgs Name                             Flgs Name
     M$UC                                  B$JIT$                                B_VECTNIL

  ****  Segment refs  ****

  Flags:  r = read only, s = secondary
Flgs Name                             Flgs Name                             Flgs Name
     ISSID                                 NULLSID
PL6.E3A0      #001=TOL$FREE_BUFFER File=TOL$FREE_BUFFER.:E05TSI                  WED 07/30/97 06:25 Page:8


        1        1        /*M* TOL$FREE_BUFFER   TOLTS LOADER FREE/GET BUFFER program */
        2        2        /*T***********************************************************/
        3        3        /*T*                                                         */
        4        4        /*T* Copyright (c) Bull HN Information Systems Inc., 1997    */
        5        5        /*T*                                                         */
        6        6        /*T***********************************************************/
        7        7
        8        8        /*X* PLM=3,DCI=6,SQB=N,PRB=N,DTI=5,ENI=0,AND=Y,ECI=0,CSU=3,DIN=3,
        9        9             PRB=Y,CTI=8,CRM=109,CRT=1,NLB=N,NTB=Y,MCL=110 */
       10       10
       11       11
       12       12        TOL$FREE_BUFFER: PROC;

     12  2 000000   000000 700200 xent  TOL$FREE_BU* TSX0  ! X66_AUTO_0
         2 000001   000004 000000                    ZERO    4,0

       13       13
       14       14        %INCLUDE B$JIT;
       15      617        %INCLUDE B_ERRORS_C;
       16     1744        %INCLUDE CP_6;
       17     7303        %INCLUDE CP_6_SUBS;
       18     7843
       19     7844        %FPT_FDP   (FPTN    = FREE_MEMORY,
       20     7845                    PAGES   = 26);
       21     7859        %FPT_GDP   (FPTN    = GET_MEMORY,
       22     7860                    PAGES   = 26);
       23     7874
       24     7875    1      DCL   B$JIT$                                    SYMREF PTR        ALIGNED;
       25     7876
       26     7877    1      DCL   TOL$BUFFER$                        STATIC SYMDEF PTR        ALIGNED INIT (
              7877               ADDR (NIL));
       27     7878    1      DCL   BUFFER$                 REDEF TOL$BUFFER$        PTR        ALIGNED;
       28     7879    1      DCL 1 BUFFERP                 REDEF TOL$BUFFER$                   ALIGNED,
       29     7880    1            2 ADDRESS                                        UBIN (18)  UNAL,
       30     7881    1            2 *                                              BIT  (18)  UNAL;
       31     7882    1      DCL   NEXT_PAGE#                                       UBIN (18)  ALIGNED;
PL6.E3A0      #001=TOL$FREE_BUFFER File=TOL$FREE_BUFFER.:E05TSI                  WED 07/30/97 06:25 Page:9
       32     7883    1      DCL   TOL$BAD_CARD                                     ENTRY (1);
       33     7884        %EJECT;
PL6.E3A0      #001=TOL$FREE_BUFFER File=TOL$FREE_BUFFER.:E05TSI                  WED 07/30/97 06:25 Page:10
       34     7885    1      DCL 1 ER#68  STATIC    UNAL,
       35     7886    1            2 *    CHAR (12) UNAL INIT ('--ALTRET IN'),
       36     7887    1            2 *    CHAR (19) UNAL INIT ('TOL$FREE_BUFFER ON'),
       37     7888    1            2 *    CHAR (21) UNAL INIT ('M$FDP (FREE_MEMORY)');
       38     7889    1      DCL 1 ER#69  STATIC    UNAL,
       39     7890    1            2 *    CHAR (12) UNAL INIT ('--ALTRET IN'),
       40     7891    1            2 *    CHAR (18) UNAL INIT ('TOL$GET_BUFFER ON'),
       41     7892    1            2 *    CHAR (18) UNAL INIT ('M$GDP (GET_MEMORY)');
       42     7893        %EJECT;
PL6.E3A0      #001=TOL$FREE_BUFFER File=TOL$FREE_BUFFER.:E05TSI                  WED 07/30/97 06:25 Page:11
       43     7894        /* Free Buffer */
       44     7895
       45     7896    1      IF  BUFFER$ = ADDR (NIL)

   7896  2 000002   000014 236000 1                  LDQ     TOL$BUFFER$
         2 000003   000001 116000 xsym               CMPQ    B_VECTNIL+1
         2 000004   000013 600000 2                  TZE     s:7902

       46     7897    1      THEN /* No Buffer to free */ ;
       47     7898    2      ELSE DO ;

       48     7899    2              CALL M$FDP (FREE_MEMORY) ALTRET (NO_FREE);

   7899  2 000005   000000 630400 1                  EPPR0   FREE_MEMORY
         2 000006   430004 713400                    CLIMB   alt,+12292
         2 000007   400400 401760                    pmme    nvectors=2
         2 000010   000014 702000 2                  TSX2    NO_FREE

       49     7900    2              BUFFER$ = ADDR (NIL);

   7900  2 000011   000001 236000 xsym               LDQ     B_VECTNIL+1
         2 000012   000014 756000 1                  STQ     TOL$BUFFER$

       50     7901    2           END /* ELSE */ ;

       51     7902    1      RETURN;

   7902  2 000013   000000 702200 xent               TSX2  ! X66_ARET

       52     7903
       53     7904    1   NO_FREE:
       54     7905    1      CALL TOL$BAD_CARD (VECTOR (ER#68));

   7905  2 000014   000002 630400 3     NO_FREE      EPPR0   2
         2 000015   000017 631400 xsym               EPPR1   B_VECTNIL+15
         2 000016   000000 701000 xent               TSX1    TOL$BAD_CARD
         2 000017   000000 011000                    NOP     0
PL6.E3A0      #001=TOL$FREE_BUFFER File=TOL$FREE_BUFFER.:E05TSI                  WED 07/30/97 06:25 Page:12
         2 000020   000023 710000 2                  TRA     s:7911

       55     7906
       56     7907        /* END TOL$FREE_BUFFER */
       57     7908        %EJECT;
PL6.E3A0      #001=TOL$FREE_BUFFER File=TOL$FREE_BUFFER.:E05TSI                  WED 07/30/97 06:25 Page:13
       58     7909    1   TOL$GET_BUFFER: ENTRY;

   7909  2 000021   000000 700200 xent  TOL$GET_BUF* TSX0  ! X66_AUTO_0
         2 000022   000004 000000                    ZERO    4,0

       59     7910
       60     7911    1      IF BUFFER$ = ADDR (NIL)

   7911  2 000023   000014 236000 1                  LDQ     TOL$BUFFER$
         2 000024   000001 116000 xsym               CMPQ    B_VECTNIL+1
         2 000025   000044 601000 2                  TNZ     s:7919

       61     7912    2      THEN DO ;

       62     7913    2              BUFFER$ = ADDR (BUFFER$);

   7913  2 000026   000003 236000 3                  LDQ     3
         2 000027   000014 756000 1                  STQ     TOL$BUFFER$

       63     7914    2              NEXT_PAGE# = B$JIT$ -> B$JIT.TDP;

   7914  2 000030   000000 470400 xsym               LDP0    B$JIT$
         2 000031   000204 220100                    LDX0    132,,PR0
         2 000032   200003 740100                    STX0    NEXT_PAGE#,,AUTO

       64     7915    2              BUFFERP.ADDRESS = (NEXT_PAGE# - 64) * 1024;

   7915  2 000033   200003 235100                    LDA     NEXT_PAGE#,,AUTO
         2 000034   777777 375003                    ANA     -1,DU
         2 000035   000010 771000                    ARL     8
         2 000036   600000 621005                    EAX1    -65536,AL
         2 000037   000014 741000 1                  STX1    TOL$BUFFER$

       65     7916    2              CALL M$GDP (GET_MEMORY) ALTRET (NO_MEMORY);

   7916  2 000040   000006 630400 1                  EPPR0   GET_MEMORY
         2 000041   430003 713400                    CLIMB   alt,+12291
PL6.E3A0      #001=TOL$FREE_BUFFER File=TOL$FREE_BUFFER.:E05TSI                  WED 07/30/97 06:25 Page:14
         2 000042   400400 401760                    pmme    nvectors=2
         2 000043   000045 702000 2                  TSX2    NO_MEMORY

       66     7917    2           END /* THEN */ ;

       67     7918    1      ELSE /* Buffer already assigned. */ ;
       68     7919    1      RETURN;

   7919  2 000044   000000 702200 xent               TSX2  ! X66_ARET

       69     7920
       70     7921    1   NO_MEMORY:
       71     7922    1      BUFFER$ = ADDR (NIL);

   7922  2 000045   000001 236000 xsym  NO_MEMORY    LDQ     B_VECTNIL+1
         2 000046   000014 756000 1                  STQ     TOL$BUFFER$

       72     7923    1      CALL TOL$BAD_CARD (VECTOR (ER#69));

   7923  2 000047   000006 630400 3                  EPPR0   6
         2 000050   000017 631400 xsym               EPPR1   B_VECTNIL+15
         2 000051   000000 701000 xent               TSX1    TOL$BAD_CARD
         2 000052   000000 011000                    NOP     0

       73     7924
       74     7925        /* END TOL$GET_BUFFER */
       75     7926
       76     7927    1   END TOL$FREE_BUFFER;

   7927  2 000053   000000 702200 xent               TSX2  ! X66_ARET

FREE_MEMORY
 Sect OctLoc
   1     000   000001 777640   000004 006000   000000 177640   000000 006014    ................
   1     004   000000 000032   ****** ******                                    ........

GET_MEMORY
PL6.E3A0      #001=TOL$FREE_BUFFER File=TOL$FREE_BUFFER.:E05TSI                  WED 07/30/97 06:25 Page:15
 Sect OctLoc
   1     006   000001 777640   000012 006000   000000 177640   000000 006014    ................
   1     012   000000 000032   ****** ******                                    ........

TOL$BUFFER$
 Sect OctLoc
   1     014   000000 006014                                                    ....

ER#68
 Sect OctLoc
   1     015   055055 101114   124122 105124   040111 116040   124117 114044    --ALTRET IN TOL$
   1     021   106122 105105   137102 125106   106105 122040   117116 040115    FREE_BUFFER ON M
   1     025   044106 104120   040050 106122   105105 137115   105115 117122    $FDP (FREE_MEMOR
   1     031   131051 040040                                                    Y)

ER#69
 Sect OctLoc
   1     032   055055 101114   124122 105124   040111 116040   124117 114044    --ALTRET IN TOL$
   1     036   107105 124137   102125 106106   105122 040117   116040 115044    GET_BUFFER ON M$
   1     042   107104 120040   050107 105124   137115 105115   117122 131051    GDP (GET_MEMORY)

(unnamed)
 Sect OctLoc
   3     000   000014 777640   000015 006000   000000 006000   000014 006000    ................
   3     004   000013 777640   000032 006000   000004 006000                    ............

PL6.E3A0      #001=TOL$FREE_BUFFER File=TOL$FREE_BUFFER.:E05TSI                  WED 07/30/97 06:25 Page:16
--  Include file information  --

   CP_6_SUBS.:E05TOU  is referenced.
   CP_6_C.:E05TOU  is referenced.
   CP_6.:E05TOU  cannot be made into a system file and is referenced.
   B_ERRORS_C.:E05TOU  is referenced.
   B$JIT_C.:E05TOU  is referenced.
   B$JIT.:E05TOU  cannot be made into a system file and is referenced.
      No diagnostics issued in procedure TOL$FREE_BUFFER.
PL6.E3A0      #001=TOL$FREE_BUFFER File=TOL$FREE_BUFFER.:E05TSI                  WED 07/30/97 06:25 Page:17

 **** Procedure blocks ****

LB#    Line#s    #stmts #vars Sect# OctLoc  P A C   NP Lvl/name
  0    12-  7927     20    14     2      0  y   y    0   1 TOL$FREE_BUFFER
                                  2     21      y    0     TOL$GET_BUFFER
PL6.E3A0      #001=TOL$FREE_BUFFER File=TOL$FREE_BUFFER.:E05TSI                  WED 07/30/97 06:25 Page:18

    **** Executable statements  ****

  Exec cost Stmt Sec OctLoc Type   LB Label              Exec cost Stmt Sec OctLoc Type   LB Label

              12   2      0 Proc    0                              7896   2      2 If      0
            7898   2      5 Do      0                  $$$$$$$$$$  7899   2      5 MonCal  0
            7900   2     11 Assign  0                              7901   2     13 EndDo   0
            7902   2     13 Return  0                              7905   2     14 Call    0 NO_FREE
            7909   2     21 Entry   0                              7911   2     23 If      0
            7912   2     26 Do      0                              7913   2     26 Assign  0
            7914   2     30 Assign  0                              7915   2     33 Assign  0
$$$$$$$$$$  7916   2     40 MonCal  0                              7917   2     44 EndDo   0
            7919   2     44 Return  0                              7922   2     45 Assign  0 NO_MEMORY
            7923   2     47 Call    0                              7927   2     53 EndPrc  0


  **** Statement type totals  ****

     5 Assign     2 Call       2 MonCal     2 If         2 Return     2 Do
     2 EndDo      1 Proc       1 EndPrc     1 Entry      2 Labels

 # major stmts=   13 Code/major= 3.38 # stmts=   20 Code/stmt= 2.20  Point total= 92.3
 Cost/major stmt=  5.6 Cost/stmt=  3.6 Total cost=     73.8

   0-4  $$$$$$$$$$$$$$$$$$$$$$$$$$$$$$$$$$$$$$$$$$$$$$$$$$$$$$$$$$$$$$$$$$$$$$$$$$$$$$$$$
   4-6
   6-8
  8-10
 10-12
 12-14
 14-16
 16-18
 18-20
 20-22
 22-??  $$$$$$$$$$$$
PL6.E3A0      #001=TOL$FREE_BUFFER File=TOL$FREE_BUFFER.:E05TSI                  WED 07/30/97 06:25 Page:19

 **** Variables and constants ****

  ****  Section 001  Data  TOL$FREE_BUFFER

  ****  Scalars and arrays  ****
OctLoc.c.b A Datatyp(siz) R M Lvl/name                 OctLoc.c.b A Datatyp(siz) R M Lvl/name

    14-0-0/w PTR         r     1 BUFFER$                   15-0-0/c STRC(468)   r     1 ER#68
    32-0-0/c STRC(432)   r     1 ER#69                     14-0-0/w PTR         r     1 TOL$BUFFER$

  ****  Structures  ****
OctLoc.c.b A Datatyp(siz) R M Lvl/name

    14-0-0/w STRC        r     1 BUFFERP
    14-0-0/b UBIN(18)    r         2 ADDRESS

     0-0-0/d STRC(216)   r     1 FREE_MEMORY
     4-0-0/d STRC        r         2 V

     6-0-0/d STRC(216)   r     1 GET_MEMORY
    12-0-0/d STRC        r         2 V


  ****  Auto variables  ****

  ****  Scalars and arrays  ****
OctLoc.c.b A Datatyp(siz) R M Lvl/name                 OctLoc.c.b A Datatyp(siz) R M Lvl/name

     3-0-0/w UBIN(18)    r     1 NEXT_PAGE#

  ****  SYMREF variables  ****

  ****  Scalars and arrays  ****
OctLoc.c.b A Datatyp(siz) R M Lvl/name                 OctLoc.c.b A Datatyp(siz) R M Lvl/name

     0-0-0/w PTR         r     1 B$JIT$

PL6.E3A0      #001=TOL$FREE_BUFFER File=TOL$FREE_BUFFER.:E05TSI                  WED 07/30/97 06:25 Page:20
  ****  BASED and DCB variables  ****

  ****  Structures  ****
OctLoc.c.b A Datatyp(siz) R M Lvl/name

     0-0-0/d STRC(8856)  r     1 B$JIT
   204-0-0/h UBIN(18)    r         2 TDP


   Procedure TOL$FREE_BUFFER requires 44 words for executable code.
   Procedure TOL$FREE_BUFFER requires 4 words of local(AUTO) storage.

    No errors detected in file TOL$FREE_BUFFER.:E05TSI    .
PL6.E3A0      #001=TOL$FREE_BUFFER File=TOL$FREE_BUFFER.:E05TSI                  WED 07/30/97 06:25 Page:21
          *** CROSS REFERENCE LISTING ***
**     DENOTES     IDENTIFIER DEFINITION
<<                 IDENTIFIER'S VALUE SET
>>                 IDENTIFIER'S VALUE USED
<>                 IDENTIFIER SET AND/OR USED
--                 IDENTIFIER REFERENCED
PL6.E3A0      #001=TOL$FREE_BUFFER File=TOL$FREE_BUFFER.:E05TSI                  WED 07/30/97 06:25 Page:22
          MINI XREF LISTING

B$JIT.CPFLAGS1.SLEAZE
       435**DCL       435--REDEF
B$JIT.ERR.MID
       342**DCL       342--REDEF
B$JIT.JRESPEAK
       503**DCL       504--REDEF
B$JIT.ORIGINATOR_PORT.FROM_CR
       612**DCL       612--REDEF     613--REDEF
B$JIT.PNR
       516**DCL       516--REDEF
B$JIT.TDP
       501**DCL      7914>>ASSIGN
B$JIT.TSLINE
       610**DCL       611--REDEF
B$JIT$
      7875**DCL       336--IMP-PTR  7914>>ASSIGN
BUFFER$
      7878**DCL      7896>>IF       7900<<ASSIGN   7911>>IF       7913<<ASSIGN   7913--ASSIGN   7922<<ASSIGN
BUFFERP.ADDRESS
      7880**DCL      7915<<ASSIGN
ER#68
      7885**DCL      7905--CALL
ER#69
      7889**DCL      7923--CALL
FREE_MEMORY
      7856**DCL      7899<>CALL
FREE_MEMORY.V
      7856**DCL      7856--DCLINIT
GET_MEMORY
      7871**DCL      7916<>CALL
GET_MEMORY.V
      7871**DCL      7871--DCLINIT
PL6.E3A0      #001=TOL$FREE_BUFFER File=TOL$FREE_BUFFER.:E05TSI                  WED 07/30/97 06:25 Page:23
M$FDP
      7267**DCL-ENT  7899--CALL
M$GDP
      7267**DCL-ENT  7916--CALL
NEXT_PAGE#
      7882**DCL      7914<<ASSIGN   7915>>ASSIGN
NO_FREE
      7905**LABEL    7899--CALLALT
NO_MEMORY
      7922**LABEL    7916--CALLALT
TOL$BAD_CARD
      7883**DCL-ENT  7905--CALL     7923--CALL
TOL$BUFFER$
      7877**DCL      7878--REDEF    7879--REDEF
PL6.E3A0      #001=TOL$FREE_BUFFER File=TOL$FREE_BUFFER.:E05TSI                  WED 07/30/97 06:25 Page:24
              *** CROSS REFERENCE LISTING ***
    **     DENOTES     IDENTIFIER DEFINITION
    <<                 IDENTIFIER'S VALUE SET
    >>                 IDENTIFIER'S VALUE USED
    <>                 IDENTIFIER SET AND/OR USED
    --                 IDENTIFIER REFERENCED
PL6.E3A0      #001=TOL$FREE_BUFFER File=TOL$FREE_BUFFER.:E05TSI                  WED 07/30/97 06:25 Page:25
              FULL UREF LISTING

B$JIT
       336**DCL
B$JIT.ACCEPT_FLAGS
       489**DCL
B$JIT.ACCEPT_FLAGS.ANNOUNCE
       489**DCL
B$JIT.ACCEPT_FLAGS.BROADCAST
       489**DCL
B$JIT.ACCEPT_FLAGS.SEND
       489**DCL
B$JIT.ACCESS
       609**DCL
B$JIT.ACCESS.FORMS
       609**DCL
B$JIT.ACCESS.PACKS
       609**DCL
B$JIT.ACCESS.TAPES
       609**DCL
B$JIT.ACCN
       341**DCL
B$JIT.APATTR
       614**DCL
B$JIT.ARECX
       609**DCL
B$JIT.BILL
       489**DCL
B$JIT.BLINDACCTNG
       489**DCL
B$JIT.BUDLIM
       478**DCL
B$JIT.CALCNT
       515**DCL
PL6.E3A0      #001=TOL$FREE_BUFFER File=TOL$FREE_BUFFER.:E05TSI                  WED 07/30/97 06:25 Page:26
B$JIT.CCARS
       429**DCL
B$JIT.CCBUF
       429**DCL
B$JIT.CCDISP
       429**DCL
B$JIT.CHECK_CFU
       511**DCL
B$JIT.CLRES
       608**DCL
B$JIT.CPFLAGS1
       430**DCL
B$JIT.CPFLAGS1.BRK
       434**DCL
B$JIT.CPFLAGS1.BUFFULL
       434**DCL
B$JIT.CPFLAGS1.CFREAD
       434**DCL
B$JIT.CPFLAGS1.DELTA
       435**DCL
B$JIT.CPFLAGS1.DONTRFEXT3
       431**DCL
B$JIT.CPFLAGS1.DRIBBLE
       433**DCL
B$JIT.CPFLAGS1.ECHO
       434**DCL
B$JIT.CPFLAGS1.ECHO_LINK
       431**DCL
B$JIT.CPFLAGS1.EXIT#
       433**DCL
B$JIT.CPFLAGS1.FIRSTCP
       432**DCL
B$JIT.CPFLAGS1.INITIALIZE
       433**DCL
B$JIT.CPFLAGS1.JSTEP
       430**DCL
PL6.E3A0      #001=TOL$FREE_BUFFER File=TOL$FREE_BUFFER.:E05TSI                  WED 07/30/97 06:25 Page:27
B$JIT.CPFLAGS1.KEEPDS
       433**DCL
B$JIT.CPFLAGS1.LASTCP
       432**DCL
B$JIT.CPFLAGS1.LASTCPEXISTS
       432**DCL
B$JIT.CPFLAGS1.LNKPMME
       431**DCL
B$JIT.CPFLAGS1.LOGOFF
       430**DCL
B$JIT.CPFLAGS1.NOTIFY
       433**DCL
B$JIT.CPFLAGS1.PROCACCT
       433**DCL
B$JIT.CPFLAGS1.PROTECT
       434**DCL
B$JIT.CPFLAGS1.RUND
       430**DCL
B$JIT.CPFLAGS1.SCREECH
       434**DCL
B$JIT.CPFLAGS1.SKIPABORT
       433**DCL
B$JIT.CPFLAGS1.SOMENOTIFY
       432**DCL
B$JIT.CPFLAGS1.SSTART
       431**DCL
B$JIT.CPFLAGS1.STARPROC
       432**DCL
B$JIT.CPFLAGS1.STARSACC
       432**DCL
B$JIT.CPFLAGS1.STEPACCT
       434**DCL
B$JIT.CPFLAGS1.STEPLMT
       434**DCL
B$JIT.CPFLAGS1.TESTMODE
       432**DCL
PL6.E3A0      #001=TOL$FREE_BUFFER File=TOL$FREE_BUFFER.:E05TSI                  WED 07/30/97 06:25 Page:28
B$JIT.CPFLAGS1.TRMNATE
       433**DCL
B$JIT.CPFLAGS1.WHEN_INPUT
       431**DCL
B$JIT.CPFLAGS1.YC
       430**DCL
B$JIT.CPFLAGS1.YCGET
       431**DCL
B$JIT.CPFLAGS1.YCPMME
       431**DCL
B$JIT.CSLEV
       496**DCL
B$JIT.CTIME
       514**DCL
B$JIT.CURPNUM
       595**DCL
B$JIT.CURRCORE
       503**DCL
B$JIT.CURSUDO
       610**DCL
B$JIT.CURTMPDP
       510**DCL
B$JIT.DCB$
       509**DCL
B$JIT.DCBNO
       422**DCL
B$JIT.DDLL
       499**DCL
B$JIT.DDUL
       499**DCL
B$JIT.DEFEXP
       509**DCL
B$JIT.DEFPRI
       489**DCL
B$JIT.DLL
       499**DCL
PL6.E3A0      #001=TOL$FREE_BUFFER File=TOL$FREE_BUFFER.:E05TSI                  WED 07/30/97 06:25 Page:29
B$JIT.DO$
       509**DCL
B$JIT.DUL
       499**DCL
B$JIT.ENQS
       614**DCL
B$JIT.ERR
       341**DCL
B$JIT.ERR.CODE
       342**DCL
B$JIT.ERR.FCG
       341**DCL
B$JIT.ERR.MON
       342**DCL
B$JIT.ERR.SEV
       342**DCL
B$JIT.ERR.UMID
       342**DCL
B$JIT.EUP
       501**DCL
B$JIT.EXTUS
       517**DCL
B$JIT.FACCN
       341**DCL
B$JIT.FACNACS
       509**DCL
B$JIT.FACNCM
       511**DCL
B$JIT.FBUC
       501**DCL
B$JIT.FBUL
       501**DCL
B$JIT.FEXT
       509**DCL
B$JIT.FPSN
       422**DCL
PL6.E3A0      #001=TOL$FREE_BUFFER File=TOL$FREE_BUFFER.:E05TSI                  WED 07/30/97 06:25 Page:30
B$JIT.FRS
       537**DCL
B$JIT.GAC
       510**DCL
B$JIT.HIGHPNUM
       595**DCL
B$JIT.HPSN
       509**DCL
B$JIT.IDELTAT
       515**DCL
B$JIT.INSTWORD
       429**DCL
B$JIT.INTER
       608**DCL
B$JIT.INTTIME
       514**DCL
B$JIT.JOBNAME
       490**DCL
B$JIT.JOBUNIT
       430**DCL
B$JIT.JORG
       477**DCL
B$JIT.JPEAK
       503**DCL
B$JIT.JSLEV
       478**DCL
B$JIT.JTMPDPPK
       510**DCL
B$JIT.JUNK
       541**DCL
B$JIT.JUNK2
       595**DCL
B$JIT.LANG
       477**DCL
B$JIT.LBJID
       517**DCL
PL6.E3A0      #001=TOL$FREE_BUFFER File=TOL$FREE_BUFFER.:E05TSI                  WED 07/30/97 06:25 Page:31
B$JIT.LLL
       505**DCL
B$JIT.LNKCNT
       541**DCL
B$JIT.LOCK
       490**DCL
B$JIT.LOGONTIME
       478**DCL
B$JIT.LUL
       505**DCL
B$JIT.MAXCORE
       502**DCL
B$JIT.MAXENQ
       614**DCL
B$JIT.MAXEXP
       509**DCL
B$JIT.MAXPRI
       489**DCL
B$JIT.MAXTMPDP
       510**DCL
B$JIT.MMFLGS
       502**DCL
B$JIT.MMFLGS.FREE_PPGS
       502**DCL
B$JIT.MODE
       336**DCL
B$JIT.MOUNTS
       609**DCL
B$JIT.MRT
       515**DCL
B$JIT.MSGID
       490**DCL
B$JIT.MSGID.PRIMARY
       490**DCL
B$JIT.MSGID.XT
       491**DCL
PL6.E3A0      #001=TOL$FREE_BUFFER File=TOL$FREE_BUFFER.:E05TSI                  WED 07/30/97 06:25 Page:32
B$JIT.NEXTCC
       483**DCL
B$JIT.NODOEVER
       608**DCL
B$JIT.NOLOEVER
       608**DCL
B$JIT.NOPOEVER
       608**DCL
B$JIT.NUTS
       516**DCL
B$JIT.OLTA
       609**DCL
B$JIT.ORIGINATOR_MODE
       608**DCL
B$JIT.ORIGINATOR_PORT
       611**DCL
B$JIT.ORIGINATOR_PORT.FROM_CR.DEVICE
       612**DCL
B$JIT.ORIGINATOR_PORT.FROM_CR.TNAME
       612**DCL
B$JIT.ORIGINATOR_PORT.FROM_GHOST
       612**DCL
B$JIT.ORIGINATOR_PORT.FROM_GHOST.SYSID
       612**DCL
B$JIT.ORIGINATOR_PORT.FROM_INT
       613**DCL
B$JIT.ORIGINATOR_PORT.FROM_INT.SYSID
       613**DCL
B$JIT.ORIGINATOR_PORT.FROM_INT.TSLINE
       613**DCL
B$JIT.OUTPRIO
       422**DCL
B$JIT.PCADS
       505**DCL
B$JIT.PCC
       500**DCL
PL6.E3A0      #001=TOL$FREE_BUFFER File=TOL$FREE_BUFFER.:E05TSI                  WED 07/30/97 06:25 Page:33
B$JIT.PCD
       500**DCL
B$JIT.PCDD
       501**DCL
B$JIT.PCDDS
       504**DCL
B$JIT.PCDS
       500**DCL
B$JIT.PCL
       505**DCL
B$JIT.PCP
       500**DCL
B$JIT.PCROS
       500**DCL
B$JIT.PCV
       505**DCL
B$JIT.PLL
       499**DCL
B$JIT.PMEMTIM
       515**DCL
B$JIT.PMME_COUNT
       613**DCL
B$JIT.PMME_DATA
       613**DCL
B$JIT.PMME_DATA.CPU
       613**DCL
B$JIT.PMME_DATA.I_O
       613**DCL
B$JIT.PMME_DATA.MISC1
       613**DCL
B$JIT.PMME_DATA.MISC2
       614**DCL
B$JIT.PPC
       502**DCL
B$JIT.PPRIV
       397**DCL
PL6.E3A0      #001=TOL$FREE_BUFFER File=TOL$FREE_BUFFER.:E05TSI                  WED 07/30/97 06:25 Page:34
B$JIT.PPRIV.CNTRLC
       397**DCL
B$JIT.PPRIV.CNTRLD
       397**DCL
B$JIT.PPRIV.EFT
       397**DCL
B$JIT.PPRIV.EL
       397**DCL
B$JIT.PPRIV.LABEL
       398**DCL
B$JIT.PPRIV.NETCON
       398**DCL
B$JIT.PPRIV.PADMIN
       399**DCL
B$JIT.PPRIV.PIGC
       398**DCL
B$JIT.PPRIV.PIGD
       398**DCL
B$JIT.PPRIV.PIGETTE
       400**DCL
B$JIT.PPRIV.RATES
       399**DCL
B$JIT.PPRIV.REPLAY
       399**DCL
B$JIT.PPRIV.SPIDERC
       398**DCL
B$JIT.PPRIV.SPIDERD
       398**DCL
B$JIT.PPRIV.SUPER
       398**DCL
B$JIT.PPRIV.SUPERAUTH
       398**DCL
B$JIT.PPRIV.SUPERD
       399**DCL
B$JIT.PPRIV.SUPERFORM
       399**DCL
PL6.E3A0      #001=TOL$FREE_BUFFER File=TOL$FREE_BUFFER.:E05TSI                  WED 07/30/97 06:25 Page:35
B$JIT.PPRIV.SUPERWSN
       399**DCL
B$JIT.PPRIV.SYSCON
       399**DCL
B$JIT.PPRIV.VOLINIT
       399**DCL
B$JIT.PRDPRM
       510**DCL
B$JIT.PRFLAGS
       425**DCL
B$JIT.PRFLAGS.COMMENT
       425**DCL
B$JIT.PRFLAGS.CONTINUED
       425**DCL
B$JIT.PRFLAGS.CORRECT
       426**DCL
B$JIT.PRFLAGS.EXPOUND
       426**DCL
B$JIT.PRFLAGS.LIST
       425**DCL
B$JIT.PRFLAGS.LS
       425**DCL
B$JIT.PRFLAGS.NOSCAN
       426**DCL
B$JIT.PRFLAGS.NSSYNTAX
       425**DCL
B$JIT.PRFLAGS.OU
       425**DCL
B$JIT.PRFLAGS.OUTPUT
       425**DCL
B$JIT.PRFLAGS.POINT
       426**DCL
B$JIT.PRFLAGS.POSITION
       426**DCL
B$JIT.PRFLAGS.SI
       425**DCL
PL6.E3A0      #001=TOL$FREE_BUFFER File=TOL$FREE_BUFFER.:E05TSI                  WED 07/30/97 06:25 Page:36
B$JIT.PRFLAGS.UI
       425**DCL
B$JIT.PRFLAGS.WHEN
       426**DCL
B$JIT.PRIINC
       516**DCL
B$JIT.PRIOB
       514**DCL
B$JIT.PRIOCORE
       502**DCL
B$JIT.PRIOR_CP
       605**DCL
B$JIT.PRIV
       342**DCL
B$JIT.PRIV.ACTIVE
       342**DCL
B$JIT.PRIV.ACTIVE.ASAVE
       344**DCL
B$JIT.PRIV.ACTIVE.CFEP
       345**DCL
B$JIT.PRIV.ACTIVE.CQ
       345**DCL
B$JIT.PRIV.ACTIVE.DISPJOB
       344**DCL
B$JIT.PRIV.ACTIVE.DOMANE
       343**DCL
B$JIT.PRIV.ACTIVE.EXMM
       346**DCL
B$JIT.PRIV.ACTIVE.EXPM
       345**DCL
B$JIT.PRIV.ACTIVE.FMBLK
       342**DCL
B$JIT.PRIV.ACTIVE.FMDIAG
       343**DCL
B$JIT.PRIV.ACTIVE.FMEFT
       342**DCL
PL6.E3A0      #001=TOL$FREE_BUFFER File=TOL$FREE_BUFFER.:E05TSI                  WED 07/30/97 06:25 Page:37
B$JIT.PRIV.ACTIVE.FMREAD
       343**DCL
B$JIT.PRIV.ACTIVE.FMSEC
       343**DCL
B$JIT.PRIV.ACTIVE.GPP
       344**DCL
B$JIT.PRIV.ACTIVE.INTCON
       345**DCL
B$JIT.PRIV.ACTIVE.IOQ
       345**DCL
B$JIT.PRIV.ACTIVE.IOQW
       345**DCL
B$JIT.PRIV.ACTIVE.JIT
       346**DCL
B$JIT.PRIV.ACTIVE.MAXMEM
       346**DCL
B$JIT.PRIV.ACTIVE.MFEP
       345**DCL
B$JIT.PRIV.ACTIVE.MODE
       343**DCL
B$JIT.PRIV.ACTIVE.MSYS
       346**DCL
B$JIT.PRIV.ACTIVE.PM
       345**DCL
B$JIT.PRIV.ACTIVE.SCREECH
       344**DCL
B$JIT.PRIV.ACTIVE.SNAP
       344**DCL
B$JIT.PRIV.ACTIVE.SPCLMM
       346**DCL
B$JIT.PRIV.ACTIVE.SYSACCT
       343**DCL
B$JIT.PRIV.ACTIVE.SYSCON
       344**DCL
B$JIT.PRIV.ACTIVE.SYSLOG
       345**DCL
PL6.E3A0      #001=TOL$FREE_BUFFER File=TOL$FREE_BUFFER.:E05TSI                  WED 07/30/97 06:25 Page:38
B$JIT.PRIV.ACTIVE.TND
       345**DCL
B$JIT.PRIV.AUTH
       382**DCL
B$JIT.PRIV.AUTH.ASAVE
       383**DCL
B$JIT.PRIV.AUTH.CFEP
       384**DCL
B$JIT.PRIV.AUTH.CQ
       384**DCL
B$JIT.PRIV.AUTH.DISPJOB
       383**DCL
B$JIT.PRIV.AUTH.DOMANE
       382**DCL
B$JIT.PRIV.AUTH.EXMM
       385**DCL
B$JIT.PRIV.AUTH.EXPM
       384**DCL
B$JIT.PRIV.AUTH.FMBLK
       382**DCL
B$JIT.PRIV.AUTH.FMDIAG
       382**DCL
B$JIT.PRIV.AUTH.FMEFT
       382**DCL
B$JIT.PRIV.AUTH.FMREAD
       382**DCL
B$JIT.PRIV.AUTH.FMSEC
       382**DCL
B$JIT.PRIV.AUTH.GPP
       384**DCL
B$JIT.PRIV.AUTH.INTCON
       384**DCL
B$JIT.PRIV.AUTH.IOQ
       384**DCL
B$JIT.PRIV.AUTH.IOQW
       384**DCL
PL6.E3A0      #001=TOL$FREE_BUFFER File=TOL$FREE_BUFFER.:E05TSI                  WED 07/30/97 06:25 Page:39
B$JIT.PRIV.AUTH.JIT
       385**DCL
B$JIT.PRIV.AUTH.MAXMEM
       385**DCL
B$JIT.PRIV.AUTH.MFEP
       384**DCL
B$JIT.PRIV.AUTH.MODE
       382**DCL
B$JIT.PRIV.AUTH.MSYS
       385**DCL
B$JIT.PRIV.AUTH.PM
       385**DCL
B$JIT.PRIV.AUTH.SCREECH
       383**DCL
B$JIT.PRIV.AUTH.SNAP
       383**DCL
B$JIT.PRIV.AUTH.SPCLMM
       385**DCL
B$JIT.PRIV.AUTH.SYSACCT
       382**DCL
B$JIT.PRIV.AUTH.SYSCON
       383**DCL
B$JIT.PRIV.AUTH.SYSLOG
       384**DCL
B$JIT.PRIV.AUTH.TND
       385**DCL
B$JIT.PRIV.JOB
       385**DCL
B$JIT.PRIV.JOB.ASAVE
       387**DCL
B$JIT.PRIV.JOB.CFEP
       388**DCL
B$JIT.PRIV.JOB.CQ
       388**DCL
B$JIT.PRIV.JOB.DISPJOB
       387**DCL
PL6.E3A0      #001=TOL$FREE_BUFFER File=TOL$FREE_BUFFER.:E05TSI                  WED 07/30/97 06:25 Page:40
B$JIT.PRIV.JOB.DOMANE
       386**DCL
B$JIT.PRIV.JOB.EXMM
       389**DCL
B$JIT.PRIV.JOB.EXPM
       388**DCL
B$JIT.PRIV.JOB.FMBLK
       386**DCL
B$JIT.PRIV.JOB.FMDIAG
       386**DCL
B$JIT.PRIV.JOB.FMEFT
       385**DCL
B$JIT.PRIV.JOB.FMREAD
       386**DCL
B$JIT.PRIV.JOB.FMSEC
       386**DCL
B$JIT.PRIV.JOB.GPP
       387**DCL
B$JIT.PRIV.JOB.INTCON
       388**DCL
B$JIT.PRIV.JOB.IOQ
       388**DCL
B$JIT.PRIV.JOB.IOQW
       388**DCL
B$JIT.PRIV.JOB.JIT
       389**DCL
B$JIT.PRIV.JOB.MAXMEM
       389**DCL
B$JIT.PRIV.JOB.MFEP
       388**DCL
B$JIT.PRIV.JOB.MODE
       386**DCL
B$JIT.PRIV.JOB.MSYS
       389**DCL
B$JIT.PRIV.JOB.PM
       388**DCL
PL6.E3A0      #001=TOL$FREE_BUFFER File=TOL$FREE_BUFFER.:E05TSI                  WED 07/30/97 06:25 Page:41
B$JIT.PRIV.JOB.SCREECH
       387**DCL
B$JIT.PRIV.JOB.SNAP
       387**DCL
B$JIT.PRIV.JOB.SPCLMM
       389**DCL
B$JIT.PRIV.JOB.SYSACCT
       386**DCL
B$JIT.PRIV.JOB.SYSCON
       387**DCL
B$JIT.PRIV.JOB.SYSLOG
       388**DCL
B$JIT.PRIV.JOB.TND
       389**DCL
B$JIT.PRIV.PRC
       389**DCL
B$JIT.PRIV.PRC.ASAVE
       391**DCL
B$JIT.PRIV.PRC.CFEP
       392**DCL
B$JIT.PRIV.PRC.CQ
       392**DCL
B$JIT.PRIV.PRC.DISPJOB
       391**DCL
B$JIT.PRIV.PRC.DOMANE
       390**DCL
B$JIT.PRIV.PRC.EXMM
       393**DCL
B$JIT.PRIV.PRC.EXPM
       392**DCL
B$JIT.PRIV.PRC.FMBLK
       389**DCL
B$JIT.PRIV.PRC.FMDIAG
       390**DCL
B$JIT.PRIV.PRC.FMEFT
       389**DCL
PL6.E3A0      #001=TOL$FREE_BUFFER File=TOL$FREE_BUFFER.:E05TSI                  WED 07/30/97 06:25 Page:42
B$JIT.PRIV.PRC.FMREAD
       390**DCL
B$JIT.PRIV.PRC.FMSEC
       390**DCL
B$JIT.PRIV.PRC.GPP
       391**DCL
B$JIT.PRIV.PRC.INTCON
       392**DCL
B$JIT.PRIV.PRC.IOQ
       392**DCL
B$JIT.PRIV.PRC.IOQW
       392**DCL
B$JIT.PRIV.PRC.JIT
       393**DCL
B$JIT.PRIV.PRC.MAXMEM
       393**DCL
B$JIT.PRIV.PRC.MFEP
       392**DCL
B$JIT.PRIV.PRC.MODE
       390**DCL
B$JIT.PRIV.PRC.MSYS
       393**DCL
B$JIT.PRIV.PRC.PM
       392**DCL
B$JIT.PRIV.PRC.SCREECH
       391**DCL
B$JIT.PRIV.PRC.SNAP
       391**DCL
B$JIT.PRIV.PRC.SPCLMM
       393**DCL
B$JIT.PRIV.PRC.SYSACCT
       390**DCL
B$JIT.PRIV.PRC.SYSCON
       391**DCL
B$JIT.PRIV.PRC.SYSLOG
       391**DCL
PL6.E3A0      #001=TOL$FREE_BUFFER File=TOL$FREE_BUFFER.:E05TSI                  WED 07/30/97 06:25 Page:43
B$JIT.PRIV.PRC.TND
       392**DCL
B$JIT.PRIV.SAVED
       393**DCL
B$JIT.PRIV.SAVED.ASAVE
       395**DCL
B$JIT.PRIV.SAVED.CFEP
       396**DCL
B$JIT.PRIV.SAVED.CQ
       396**DCL
B$JIT.PRIV.SAVED.DISPJOB
       395**DCL
B$JIT.PRIV.SAVED.DOMANE
       394**DCL
B$JIT.PRIV.SAVED.EXMM
       397**DCL
B$JIT.PRIV.SAVED.EXPM
       396**DCL
B$JIT.PRIV.SAVED.FMBLK
       393**DCL
B$JIT.PRIV.SAVED.FMDIAG
       394**DCL
B$JIT.PRIV.SAVED.FMEFT
       393**DCL
B$JIT.PRIV.SAVED.FMREAD
       394**DCL
B$JIT.PRIV.SAVED.FMSEC
       393**DCL
B$JIT.PRIV.SAVED.GPP
       395**DCL
B$JIT.PRIV.SAVED.INTCON
       396**DCL
B$JIT.PRIV.SAVED.IOQ
       396**DCL
B$JIT.PRIV.SAVED.IOQW
       396**DCL
PL6.E3A0      #001=TOL$FREE_BUFFER File=TOL$FREE_BUFFER.:E05TSI                  WED 07/30/97 06:25 Page:44
B$JIT.PRIV.SAVED.JIT
       396**DCL
B$JIT.PRIV.SAVED.MAXMEM
       397**DCL
B$JIT.PRIV.SAVED.MFEP
       396**DCL
B$JIT.PRIV.SAVED.MODE
       394**DCL
B$JIT.PRIV.SAVED.MSYS
       397**DCL
B$JIT.PRIV.SAVED.PM
       396**DCL
B$JIT.PRIV.SAVED.SCREECH
       395**DCL
B$JIT.PRIV.SAVED.SNAP
       395**DCL
B$JIT.PRIV.SAVED.SPCLMM
       397**DCL
B$JIT.PRIV.SAVED.SYSACCT
       394**DCL
B$JIT.PRIV.SAVED.SYSCON
       395**DCL
B$JIT.PRIV.SAVED.SYSLOG
       395**DCL
B$JIT.PRIV.SAVED.TND
       396**DCL
B$JIT.PROG_ENTRY
       491**DCL
B$JIT.PROMPTS
       490**DCL
B$JIT.PSEUDOPGS
       504**DCL
B$JIT.PSEUDO_COUNT
       605**DCL
B$JIT.PSEUDO_TEXT
       605**DCL
PL6.E3A0      #001=TOL$FREE_BUFFER File=TOL$FREE_BUFFER.:E05TSI                  WED 07/30/97 06:25 Page:45
B$JIT.PSLEV
       478**DCL
B$JIT.PTSIZ
       505**DCL
B$JIT.PUL
       499**DCL
B$JIT.QUAN
       514**DCL
B$JIT.REMCPO
       614**DCL
B$JIT.REMDO
       614**DCL
B$JIT.REMLO
       614**DCL
B$JIT.RERUN
       516**DCL
B$JIT.RESCORE
       610**DCL
B$JIT.RESPEAK
       504**DCL
B$JIT.RNST
       520**DCL
B$JIT.RUNFLAGS
       537**DCL
B$JIT.SAVEDCB$
       511**DCL
B$JIT.SCHTIME
       514**DCL
B$JIT.SINPUTSZ
       490**DCL
B$JIT.SPEAK
       503**DCL
B$JIT.SRESPEAK
       504**DCL
B$JIT.SSLEV
       478**DCL
PL6.E3A0      #001=TOL$FREE_BUFFER File=TOL$FREE_BUFFER.:E05TSI                  WED 07/30/97 06:25 Page:46
B$JIT.STAR
       509**DCL
B$JIT.STAR.DA
       509**DCL
B$JIT.STDLOPGS
       609**DCL
B$JIT.STEPCC
       568**DCL
B$JIT.STEPS
       562**DCL
B$JIT.STEPUNIT
       430**DCL
B$JIT.STIME
       514**DCL
B$JIT.STMPDPPK
       510**DCL
B$JIT.SVLDTF
       582**DCL
B$JIT.SVTUS
       517**DCL
B$JIT.SWITCH
       429**DCL
B$JIT.SYSID
       341**DCL
B$JIT.TMPGAC
       510**DCL
B$JIT.TMPGAC.N
       510**DCL
B$JIT.TMPGAC.TIME
       510**DCL
B$JIT.TPEXT
       515**DCL
B$JIT.TPSVT
       515**DCL
B$JIT.TSLINE.FEX
       610**DCL
PL6.E3A0      #001=TOL$FREE_BUFFER File=TOL$FREE_BUFFER.:E05TSI                  WED 07/30/97 06:25 Page:47
B$JIT.TSLINE.LEV
       611**DCL
B$JIT.TSLINE.PORT
       610**DCL
B$JIT.TSLINE.SPEED
       610**DCL
B$JIT.TSLINE.SUBDEVICE
       611**DCL
B$JIT.TSLINE.SUBSUBDEVICE
       611**DCL
B$JIT.TSLINE.TTYP
       611**DCL
B$JIT.TUEXT
       515**DCL
B$JIT.TUSVT
       515**DCL
B$JIT.UMEMTIM
       515**DCL
B$JIT.UNAME
       341**DCL
B$JIT.USER
       341**DCL
B$JIT.USERWORD
       429**DCL
B$JIT.USRDCB
       490**DCL
B$JIT.USRERR
       477**DCL
B$JIT.USRERR.CODE
       477**DCL
B$JIT.USRERR.FCG
       477**DCL
B$JIT.USRERR.MID
       477**DCL
B$JIT.USRERR.MON
       477**DCL
PL6.E3A0      #001=TOL$FREE_BUFFER File=TOL$FREE_BUFFER.:E05TSI                  WED 07/30/97 06:25 Page:48
B$JIT.USRERR.SEV
       477**DCL
B$JIT.USRIC
       478**DCL
B$JIT.USRRNST
       477**DCL
B$JIT.UTIMER
       516**DCL
B$JIT.VIRTUAL
       506**DCL
B$JIT.VIRTUAL.DCB#
       506**DCL
B$JIT.WOO
       341**DCL
B$JIT.XCONF
       562**DCL
B$JIT.XLIMFLG
       572**DCL
B$JIT.XTIME
       514**DCL
B$JIT.YC0SZ
       478**DCL
B$JIT.YC2SZ
       496**DCL
BUFFERP
      7879**DCL
FREE_MEMORY.RESULTS_
      7856**DCL
FREE_MEMORY.V.PAGES#
      7857**DCL
FREE_MEMORY.V_
      7856**DCL
GET_MEMORY.RESULTS_
      7871**DCL
GET_MEMORY.V.PAGES#
      7872**DCL
PL6.E3A0      #001=TOL$FREE_BUFFER File=TOL$FREE_BUFFER.:E05TSI                  WED 07/30/97 06:25 Page:49
GET_MEMORY.V_
      7871**DCL
M$ACCT
      7248**DCL-ENT
M$ACTIVATE
      7251**DCL-ENT
M$ALIB
      7244**DCL-ENT
M$ASUSER
      7246**DCL-ENT
M$ATTACH
      7253**DCL-ENT
M$BADPP
      7271**DCL-ENT
M$CGCTL
      7252**DCL-ENT
M$CGINFO
      7252**DCL-ENT
M$CHECK
      7233**DCL-ENT
M$CHGUNIT
      7291**DCL-ENT
M$CLOSE
      7231**DCL-ENT
M$CLRSTK
      7289**DCL-ENT
M$CMDVAR
      7300**DCL-ENT
M$CONFIG
      7261**DCL-ENT
M$CORRES
      7236**DCL-ENT
M$CPEXIT
      7245**DCL-ENT
M$CVM
      7269**DCL-ENT
PL6.E3A0      #001=TOL$FREE_BUFFER File=TOL$FREE_BUFFER.:E05TSI                  WED 07/30/97 06:25 Page:50
M$CVOL
      7234**DCL-ENT
M$DCLFLD
      7261**DCL-ENT
M$DEACTIVATE
      7251**DCL-ENT
M$DELREC
      7233**DCL-ENT
M$DEQ
      7298**DCL-ENT
M$DETACH
      7253**DCL-ENT
M$DEVICE
      7235**DCL-ENT
M$DISPLAY
      7298**DCL-ENT
M$DISPRES
      7238**DCL-ENT
M$DLIB
      7244**DCL-ENT
M$DRIBBLE
      7261**DCL-ENT
M$DRTN
      7289**DCL-ENT
M$DSUSER
      7246**DCL-ENT
M$ENQ
      7297**DCL-ENT
M$EOM
      7256**DCL-ENT
M$ERASE
      7262**DCL-ENT
M$ERR
      7243**DCL-ENT
M$ERRMSG
      7294**DCL-ENT
PL6.E3A0      #001=TOL$FREE_BUFFER File=TOL$FREE_BUFFER.:E05TSI                  WED 07/30/97 06:25 Page:51
M$EVENT
      7286**DCL-ENT
M$EXHUME
      7295**DCL-ENT
M$EXIT
      7243**DCL-ENT
M$EXTEND
      7235**DCL-ENT
M$FDS
      7266**DCL-ENT
M$FEBOOT
      7259**DCL-ENT
M$FECTL
      7260**DCL-ENT
M$FEDUMP
      7259**DCL-ENT
M$FID
      7294**DCL-ENT
M$FINDPROC
      7248**DCL-ENT
M$FSUSER
      7246**DCL-ENT
M$FVP
      7268**DCL-ENT
M$FWCG
      7252**DCL-ENT
M$GBPL
      7272**DCL-ENT
M$GDDL
      7268**DCL-ENT
M$GDS
      7266**DCL-ENT
M$GETDCB
      7237**DCL-ENT
M$GETMOUSE
      7277**DCL-ENT
PL6.E3A0      #001=TOL$FREE_BUFFER File=TOL$FREE_BUFFER.:E05TSI                  WED 07/30/97 06:25 Page:52
M$GETPM
      7278**DCL-ENT
M$GJOB
      7296**DCL-ENT
M$GLINEATTR
      7256**DCL-ENT
M$GOODPP
      7271**DCL-ENT
M$GPLATEN
      7264**DCL-ENT
M$GPROMPT
      7263**DCL-ENT
M$GTRMATTR
      7257**DCL-ENT
M$GTRMCTL
      7255**DCL-ENT
M$GTRMTAB
      7258**DCL-ENT
M$GVP
      7267**DCL-ENT
M$HELP
      7294**DCL-ENT
M$INT
      7286**DCL-ENT
M$INTRTN
      7247**DCL-ENT
M$IOQ
      7282**DCL-ENT
M$JOBSTATS
      7296**DCL-ENT
M$KEYIN
      7236**DCL-ENT
M$LDEV
      7231**DCL-ENT
M$LDTRC
      7244**DCL-ENT
PL6.E3A0      #001=TOL$FREE_BUFFER File=TOL$FREE_BUFFER.:E05TSI                  WED 07/30/97 06:25 Page:53
M$LIMIT
      7237**DCL-ENT
M$LINES
      7236**DCL-ENT
M$LINK
      7243**DCL-ENT
M$MADMUCK
      7239**DCL-ENT
M$MAKUSER
      7270**DCL-ENT
M$MBS
      7238**DCL-ENT
M$MDFFLD
      7262**DCL-ENT
M$MERC
      7287**DCL-ENT
M$MERCS
      7288**DCL-ENT
M$MIRROR
      7282**DCL-ENT
M$MONINFO
      7299**DCL-ENT
M$MPL
      7272**DCL-ENT
M$NODEINFO
      7263**DCL-ENT
M$NXTUSR
      7297**DCL-ENT
M$OCMSG
      7295**DCL-ENT
M$OLAY
      7243**DCL-ENT
M$OPEN
      7231**DCL-ENT
M$PAS
      7272**DCL-ENT
PL6.E3A0      #001=TOL$FREE_BUFFER File=TOL$FREE_BUFFER.:E05TSI                  WED 07/30/97 06:25 Page:54
M$PATHCON
      7295**DCL-ENT
M$PDS
      7266**DCL-ENT
M$PFIL
      7233**DCL-ENT
M$PLATEN
      7257**DCL-ENT
M$PRECORD
      7235**DCL-ENT
M$PROCNAME
      7248**DCL-ENT
M$PROFILE
      7259**DCL-ENT
M$PROMPT
      7255**DCL-ENT
M$RACST
      7239**DCL-ENT
M$RDSYSLOG
      7280**DCL-ENT
M$READ
      7232**DCL-ENT
M$RELDCB
      7237**DCL-ENT
M$RELRES
      7238**DCL-ENT
M$RELSTARF
      7240**DCL-ENT
M$REM
      7240**DCL-ENT
M$RENV
      7287**DCL-ENT
M$REQUIRE
      7239**DCL-ENT
M$RETRY
      7288**DCL-ENT
PL6.E3A0      #001=TOL$FREE_BUFFER File=TOL$FREE_BUFFER.:E05TSI                  WED 07/30/97 06:25 Page:55
M$RETRYS
      7288**DCL-ENT
M$REW
      7234**DCL-ENT
M$RLSFLD
      7262**DCL-ENT
M$RPRIV
      7290**DCL-ENT
M$RSPP
      7269**DCL-ENT
M$RSWITCH
      7291**DCL-ENT
M$RUE
      7297**DCL-ENT
M$SAD
      7270**DCL-ENT
M$SAVE
      7246**DCL-ENT
M$SCON
      7247**DCL-ENT
M$SCREECH
      7245**DCL-ENT
M$SENV
      7287**DCL-ENT
M$SETFMA
      7231**DCL-ENT
M$SETFP
      7260**DCL-ENT
M$SINPUT
      7258**DCL-ENT
M$SLCFLD
      7263**DCL-ENT
M$SMOUSE
      7277**DCL-ENT
M$SMPRT
      7269**DCL-ENT
PL6.E3A0      #001=TOL$FREE_BUFFER File=TOL$FREE_BUFFER.:E05TSI                  WED 07/30/97 06:25 Page:56
M$SPRIV
      7290**DCL-ENT
M$SSC
      7270**DCL-ENT
M$SSWITCH
      7290**DCL-ENT
M$STATE
      7299**DCL-ENT
M$STD
      7271**DCL-ENT
M$STIMER
      7285**DCL-ENT
M$STLPP
      7268**DCL-ENT
M$STRAP
      7285**DCL-ENT
M$STRMATTR
      7257**DCL-ENT
M$STRMCTL
      7255**DCL-ENT
M$STRMTAB
      7258**DCL-ENT
M$SYMBIO
      7296**DCL-ENT
M$SYSCON
      7282**DCL-ENT
M$SYSID
      7300**DCL-ENT
M$TDCLOSE
      7281**DCL-ENT
M$TDIO
      7281**DCL-ENT
M$TDOPEN
      7280**DCL-ENT
M$TDREQCPU
      7281**DCL-ENT
PL6.E3A0      #001=TOL$FREE_BUFFER File=TOL$FREE_BUFFER.:E05TSI                  WED 07/30/97 06:25 Page:57
M$TEMPWROC
      7275**DCL-ENT
M$TIME
      7298**DCL-ENT
M$TRAP
      7285**DCL-ENT
M$TRMISC
      7260**DCL-ENT
M$TRMPRG
      7256**DCL-ENT
M$TRTN
      7289**DCL-ENT
M$TRUNC
      7232**DCL-ENT
M$TTIMER
      7285**DCL-ENT
M$UC
      7255**DCL
M$UMPL
      7272**DCL-ENT
M$UNFID
      7294**DCL-ENT
M$UNLATCH
      7251**DCL-ENT
M$UNSHARE
      7248**DCL-ENT
M$USRFIELD
      7291**DCL-ENT
M$VIRTUAL
      7266**DCL-ENT
M$WAIT
      7289**DCL-ENT
M$WEOF
      7234**DCL-ENT
M$WRITE
      7232**DCL-ENT
PL6.E3A0      #001=TOL$FREE_BUFFER File=TOL$FREE_BUFFER.:E05TSI                  WED 07/30/97 06:25 Page:58
M$WRSYSLOG
      7280**DCL-ENT
M$XCON
      7286**DCL-ENT
M$XCONRTN
      7247**DCL-ENT
M$XEQTIME
      7299**DCL-ENT
M$XFLUSH
      7240**DCL-ENT
M$XMOUSE
      7277**DCL-ENT
M$XXX
      7243**DCL-ENT
M$YC
      7245**DCL-ENT
TOL$FREE_BUFFER
        12**PROC
TOL$GET_BUFFER
      7909**ENTRY
