PL6.E3A0      #001=TOP$POLTS File=TOP$POLTS.:E05TSI                              WED 07/30/97 06:30 Page:558
     4438    15342        /* Parameters */
     4439    15343
     4440    15344    2      DCL 1 A_REG ALIGNED,
     4441    15345    2            2 ADDR# UBIN (18) UNAL,
     4442    15346    2            2 SIZE# UBIN (18) UNAL ;
     4443    15347    2      DCL 1 Q_REG ALIGNED,
     4444    15348    2            2 ADDR# UBIN (18) UNAL,
     4445    15349    2            2 SIZE# UBIN (18) UNAL ;
     4446    15350    2      DCL X1_REG SBIN (18) HALIGNED ;
     4447    15351    2      DCL X2_REG UBIN (18) HALIGNED ;
     4448    15352    2      DCL RETURN_DELTA SBIN HALF ;
     4449    15353
     4450    15354        /* DeCLarations */
     4451    15355
     4452    15356    2      DCL OCT_WORDS_PER_LINE UBIN WORD ALIGNED ;
     4453    15357    2      DCL OCT_WORDS_PER_LINE_SBIN REDEF OCT_WORDS_PER_LINE SBIN WORD ALIGNED;
     4454    15358    2      DCL 1 DUMP_LINE STATIC CALIGNED,
     4455    15359    2            2 * CHAR (1) INIT ('.'),
     4456    15360    2            2 ACTUAL_ADDR# CHAR (6),
     4457    15361    2            2 * CHAR (2) INIT (' .'),
     4458    15362    2            2 RELATIVE_ADDR# CHAR (6),
     4459    15363    2            2 * CHAR (1) INIT (' '),
     4460    15364    2            2 EDIT_NAME# CHAR (4),
     4461    15365    2            2 * CHAR (1) INIT (' '),
     4462    15366    2            2 DUMP_OUTPUT# CHAR (104) INIT (' '),
     4463    15367    2            2 DUMP_OUTPUT_(0:7) REDEF DUMP_OUTPUT#,
     4464    15368    2              3 * CHAR (1),
     4465    15369    2              3 OCT_WORD_ASC# CHAR (12) ;
     4466    15370    2      DCL 1 FILE_OUTPUT_LINE REDEF DUMP_LINE CALIGNED,
     4467    15371    2            2 DUMP_LINE# CHAR (73),
     4468    15372    2            2 * CHAR (52) ;
     4469    15373    2      DCL TP_BASE_REL_ADDR UBIN WORD ALIGNED ;
     4470    15374    2      DCL DUMP_WORD_INX UBIN WORD ALIGNED ;
     4471    15375    2      DCL DUMP_QUES CHAR (19) CONSTANT CALIGNED INIT ('Do you want a dump:') ;
     4472    15376    2      DCL FID_QUES  CHAR (20) CONSTANT CALIGNED INIT
     4473    15377    2                       ('Enter ''LP'' or <fid>:') ;
     4474    15378    2      DCL EDIT_NAME CHAR (4) CALIGNED ;
PL6.E3A0      #001=TOP$POLTS File=TOP$POLTS.:E05TSI                              WED 07/30/97 06:30 Page:559
     4475    15379    2      DCL DUMP_HDR$ PTR ALIGNED ;
     4476    15380    2      DCL DUMP_LINE_INX SBIN WORD ALIGNED ;
     4477    15381    2      DCL DUMP_HDR_SIZE UBIN WORD ALIGNED ;
     4478    15382    2      DCL TP_STATS_INX SBIN WORD ALIGNED ;
     4479    15383    2      DCL BCD_BUF(0:1199) UBIN WORD ALIGNED ;
     4480    15384    2      DCL ASCII_BUF CHAR (7200) CALIGNED ;
     4481    15385    2      DCL TEMP_ASCII_BUF CHAR (12) ALIGNED ;
     4482    15386    2      DCL DUMP_WORD_OCT UBIN WORD BASED ALIGNED ;
     4483    15387    2      DCL DUMP_SIZE UBIN WORD ALIGNED ;
     4484    15388    2      DCL DUMP_SIZE_SBIN REDEF DUMP_SIZE SBIN WORD ALIGNED ;
     4485    15389    2      DCL ADDR_TRANS$ PTR STATIC ALIGNED ;
     4486    15390    2      DCL READ_BUF CHAR (80) STATIC CALIGNED INIT (' ') ;
     4487    15391    2      DCL READ_BUF_(0:79) REDEF READ_BUF CHAR (1) CALIGNED ;
     4488    15392    2      DCL BL_INX SBIN WORD ALIGNED ;
     4489    15393    2      DCL CHR_INX SBIN WORD ALIGNED ;
     4490    15394    2      DCL DOT_INX SBIN WORD ALIGNED ;
     4491    15395    2      DCL LP_DUMP BIT (1) UNAL ;
     4492    15396    2      DCL 1 DUMP_ STATIC ALIGNED,
     4493    15397    2            2 ADDR# UBIN (18) UNAL,
     4494    15398    2            2 SEGID# UBIN (18) UNAL INIT (%IS_SEGID) ;
     4495    15399    2      DCL DUMP$ REDEF DUMP_ PTR ALIGNED ;
     4496    15400    2      DCL DUMP_ADDR_TEMP UBIN WORD ALIGNED ;
     4497    15401    2      DCL DUMP_TYPE UBIN HALF HALIGNED ;
     4498    15402           %F$DCB ;
     4499    15459           %EJECT ;
PL6.E3A0      #001=TOP$POLTS File=TOP$POLTS.:E05TSI                              WED 07/30/97 06:30 Page:560
     4500    15460        /* FPTs */
     4501    15461
     4502    15462           %FPT_CLOSE    (FPTN = CLOSE_DUMP,
     4503    15463                          DCB = M$DUMP,
     4504    15464                          DISP = SAVE) ;
     4505    15506           %FPT_OPEN     (FPTN = OPEN_LP,
     4506    15507                          ASN = DEVICE,
     4507    15508                          DCB = M$DUMP,
     4508    15509                          ORG = UR,
     4509    15510                          RES = 'LP') ;
     4510    15619           %FPT_OPEN     (FPTN = OPEN_DUMP_FILE,
     4511    15620                          ACCT = DUMP_ACCT,
     4512    15621                          ASN = FILE,
     4513    15622                          DCB = M$DUMP,
     4514    15623                          DISP = NAMED,
     4515    15624                          EXIST = ERROR,
     4516    15625                          FUN = CREATE,
     4517    15626                          NAME = DUMP_NAME,
     4518    15627                          ORG = CONSEC,
     4519    15628                          SHARE = NONE) ;
     4520    15737           %FPT_PROMPT   (FPTN = DUMP_PROMPT,
     4521    15738                          PROMPT = DUMP_QUES) ;
     4522    15766           %FPT_PROMPT   (FPTN = LP_OR_FID,
     4523    15767                          PROMPT = FID_QUES) ;
     4524    15795           %FPT_WRITE    (FPTN = WRITE_HDR_LINE,
     4525    15796                          DCB = M$DUMP) ;
     4526    15827           %FPT_WRITE    (FPTN = WRITE_DUMP,
     4527    15828                          DCB = M$DUMP) ;
     4528    15859           %VLP_NAME     (FPTN = DUMP_NAME,
     4529    15860                          LEN  = 31) ;
     4530    15887           %VLP_ACCT     (FPTN = DUMP_ACCT) ;
     4531    15900           %EJECT ;
PL6.E3A0      #001=TOP$POLTS File=TOP$POLTS.:E05TSI                              WED 07/30/97 06:30 Page:561
     4532    15901        /* Code */
     4533    15902
     4534    15903    2      CALL WRAP_DUMP_MSG ;

  15903  7 010243   010266 701000 7                  TSX1    WRAP_DUMP_MSG
         7 010244   000000 011000                    NOP     0

     4535    15904    2      CALL DO_YOU_WANT_A_DUMP ALTRET (NO_DUMP) ;

  15904  7 010245   010340 701000 7                  TSX1    DO_YOU_WANT_A_DUMP
         7 010246   010257 702000 7                  TSX2    NO_DUMP

     4536    15905
     4537    15906    2   UNSUCCESSFUL_DUMP:
     4538    15907    2      CALL GET_DUMP_OUTPUT_MODE ALTRET (UNSUCCESSFUL_DUMP) ;

  15907  7 010247   010477 701000 7     UNSUCCESSFU* TSX1    GET_DUMP_OUTPUT_MODE
         7 010250   010247 702000 7                  TSX2    UNSUCCESSFUL_DUMP

     4539    15908    2      CALL OPEN_DUMP_RECEPTICLE ALTRET (UNSUCCESSFUL_DUMP) ;

  15908  7 010251   010657 701000 7                  TSX1    OPEN_DUMP_RECEPTICLE
         7 010252   010247 702000 7                  TSX2    UNSUCCESSFUL_DUMP

     4540    15909    2      CALL SET_DUMP_PARAMS ALTRET (NO_DUMP) ;

  15909  7 010253   010730 701000 7                  TSX1    SET_DUMP_PARAMS
         7 010254   010257 702000 7                  TSX2    NO_DUMP

     4541    15910    2      CALL EXECUTE_DUMP ;

  15910  7 010255   011034 701000 7                  TSX1    EXECUTE_DUMP
         7 010256   000000 011000                    NOP     0

     4542    15911
     4543    15912    2   NO_DUMP:
     4544    15913    2      CALL CLOSE_DUMP_RECEPTICLE ;
PL6.E3A0      #001=TOP$POLTS File=TOP$POLTS.:E05TSI                              WED 07/30/97 06:30 Page:562

  15913  7 010257   011504 701000 7     NO_DUMP      TSX1    CLOSE_DUMP_RECEPTICLE
         7 010260   000000 011000                    NOP     0

     4545    15914    2      RETURN_DELTA = 1 ;

  15914  7 010261   000001 220003                    LDX0    1,DU
         7 010262   200015 470500                    LDP0    @RETURN_DELTA,,AUTO
         7 010263   000000 740100                    STX0    0,,PR0

     4546    15915    2      RETURN ;

  15915  7 010264   200010 221300                    LDX1  ! @RETURN_DELTA+2,,AUTO
         7 010265   000001 702211                    TSX2  ! 1,X1

     4547    15916
     4548    15917        /* END TOP$MME_WRDUMP */
     4549    15918        %EJECT ;
PL6.E3A0      #001=TOP$POLTS File=TOP$POLTS.:E05TSI                              WED 07/30/97 06:30 Page:563
     4550    15919    2   WRAP_DUMP_MSG: PROC ;

  15919  7 010266   205730 741300       WRAP_DUMP_M* STX1  ! DUMP_TYPE+1,,AUTO

     4551    15920
     4552    15921    3      DCL 1 MESSAGE STATIC CALIGNED,
     4553    15922    3            2 SUBEXEC CHAR (5) UNAL INIT (' '),
     4554    15923    3            2 *       CHAR (0) UNAL INIT (' Subexecutive wrapping up.') ;
     4555    15924
     4556    15925        /* Code */
     4557    15926
     4558    15927    4      DO CASE (TOT$ECP.SUBEXEC.CURRENT) ;

  15927  7 010267   000007 235000 xsym               LDA     TOT$ECP+7
         7 010270   000010 135007                    SBLA    8,DL
         7 010271   000006 115007                    CMPA    6,DL
         7 010272   010274 602005 7                  TNC     s:15927+5,AL
         7 010273   010331 710000 7                  TRA     s:15941
         7 010274   010302 710000 7                  TRA     s:15929
         7 010275   010306 710000 7                  TRA     s:15931
         7 010276   010312 710000 7                  TRA     s:15933
         7 010277   010316 710000 7                  TRA     s:15935
         7 010300   010326 710000 7                  TRA     s:15939
         7 010301   010322 710000 7                  TRA     s:15937

     4559    15928    4         CASE (%COLTS) ;

     4560    15929    4            MESSAGE.SUBEXEC = 'COLTS' ;

  15929  7 010302   040000 100400                    MLR     fill='040'O
         7 010303   000242 000005 6                  ADSC9   CRLF_+92                 cn=0,n=5
         7 010304   025342 000005 5                  ADSC9   MESSAGE                  cn=0,n=5
         7 010305   010331 710000 7                  TRA     s:15941

     4561    15930    4         CASE (%MOLTS) ;

     4562    15931    4            MESSAGE.SUBEXEC = 'MOLTS' ;
PL6.E3A0      #001=TOP$POLTS File=TOP$POLTS.:E05TSI                              WED 07/30/97 06:30 Page:564

  15931  7 010306   040000 100400                    MLR     fill='040'O
         7 010307   000244 000005 6                  ADSC9   CRLF_+94                 cn=0,n=5
         7 010310   025342 000005 5                  ADSC9   MESSAGE                  cn=0,n=5
         7 010311   010331 710000 7                  TRA     s:15941

     4563    15932    4         CASE (%POLTS) ;

     4564    15933    4            MESSAGE.SUBEXEC = 'POLTS' ;

  15933  7 010312   040000 100400                    MLR     fill='040'O
         7 010313   000246 000005 6                  ADSC9   CRLF_+96                 cn=0,n=5
         7 010314   025342 000005 5                  ADSC9   MESSAGE                  cn=0,n=5
         7 010315   010331 710000 7                  TRA     s:15941

     4565    15934    4         CASE (%SOLTS) ;

     4566    15935    4            MESSAGE.SUBEXEC = 'SOLTS' ;

  15935  7 010316   040000 100400                    MLR     fill='040'O
         7 010317   000250 000005 6                  ADSC9   CRLF_+98                 cn=0,n=5
         7 010320   025342 000005 5                  ADSC9   MESSAGE                  cn=0,n=5
         7 010321   010331 710000 7                  TRA     s:15941

     4567    15936    4         CASE (%SLTA) ;

     4568    15937    4            MESSAGE.SUBEXEC = 'SOLTA' ;

  15937  7 010322   040000 100400                    MLR     fill='040'O
         7 010323   000252 000005 6                  ADSC9   CRLF_+100                cn=0,n=5
         7 010324   025342 000005 5                  ADSC9   MESSAGE                  cn=0,n=5
         7 010325   010331 710000 7                  TRA     s:15941

     4569    15938    4         CASE (%PACT) ;

     4570    15939    4            MESSAGE.SUBEXEC = 'PACT ' ;

PL6.E3A0      #001=TOP$POLTS File=TOP$POLTS.:E05TSI                              WED 07/30/97 06:30 Page:565
  15939  7 010326   040000 100400                    MLR     fill='040'O
         7 010327   000254 000005 6                  ADSC9   CRLF_+102                cn=0,n=5
         7 010330   025342 000005 5                  ADSC9   MESSAGE                  cn=0,n=5

     4571    15940    4      END /* CASE */ ;

     4572    15941    3      CONSOLE_FPT.BUF_ = VECTOR (MESSAGE) ;

  15941  7 010331   000064 237000 8                  LDAQ    52
         7 010332   000004 757000 xsym               STAQ    CONSOLE_FPT+4

     4573    15942    3      CALL TOT$CONSOLE_OUT ;

  15942  7 010333   000002 631400 xsym               EPPR1   B_VECTNIL+2
         7 010334   000000 701000 xent               TSX1    TOT$CONSOLE_OUT
         7 010335   000000 011000                    NOP     0

     4574    15943    3      RETURN ;

  15943  7 010336   205730 221300                    LDX1  ! DUMP_TYPE+1,,AUTO
         7 010337   000001 702211                    TSX2  ! 1,X1

     4575    15944
     4576    15945    3   END WRAP_DUMP_MSG ;
     4577    15946        %EJECT ;
PL6.E3A0      #001=TOP$POLTS File=TOP$POLTS.:E05TSI                              WED 07/30/97 06:30 Page:566
     4578    15947    2   DO_YOU_WANT_A_DUMP: PROC ALTRET ;

  15947  7 010340   205730 741300       DO_YOU_WANT* STX1  ! DUMP_TYPE+1,,AUTO

     4579    15948
     4580    15949    3      DCL VALID_RESPONSE BIT (1) UNAL ;
     4581    15950    3      DCL YES_RESP  CHAR (3) CONSTANT CALIGNED INIT ('YES') ;
     4582    15951    3      DCL NO_RESP   CHAR (3) CONSTANT CALIGNED INIT ('NO ') ;
     4583    15952
     4584    15953        /* Code */
     4585    15954
     4586    15955    3      CALL M$PROMPT (DUMP_PROMPT) ;

  15955  7 010341   025254 630400 5                  EPPR0   DUMP_PROMPT
         7 010342   160002 713400                    CLIMB   57346
         7 010343   401000 401760                    pmme    nvectors=3

     4587    15956    4      DO UNTIL VALID_RESPONSE ;

     4588    15957    4         READ_BUF = ' ' ;

  15957  7 010344   040000 100400                    MLR     fill='040'O
         7 010345   000035 000001 xsym               ADSC9   B_VECTNIL+29             cn=0,n=1
         7 010346   025005 000120 5                  ADSC9   READ_BUF                 cn=0,n=80

     4589    15958    4         READ_IO.BUF_ = VECTOR (READ_BUF) ;

  15958  7 010347   000066 237000 8                  LDAQ    54
         7 010350   000004 757000 xsym               STAQ    READ_IO+4

     4590    15959    4         CALL TOT$CONSOLE_IN ;

  15959  7 010351   000002 631400 xsym               EPPR1   B_VECTNIL+2
         7 010352   000000 701000 xent               TSX1    TOT$CONSOLE_IN
         7 010353   000000 011000                    NOP     0

     4591    15960
PL6.E3A0      #001=TOP$POLTS File=TOP$POLTS.:E05TSI                              WED 07/30/97 06:30 Page:567
     4592    15961              /* Skip leading spaces */
     4593    15962    4         CHR_INX = 0 ;

  15962  7 010354   205723 450100                    STZ     CHR_INX,,AUTO

     4594    15963    5         DO WHILE READ_BUF_(CHR_INX) = ' ' AND CHR_INX < 80 ;

  15963  7 010355   010357 710000 7                  TRA     s:15965

     4595    15964    5            CHR_INX = CHR_INX + 1 ;

  15964  7 010356   205723 054100                    AOS     CHR_INX,,AUTO

     4596    15965    5         END /* WHILE */ ;

  15965  7 010357   205723 235100                    LDA     CHR_INX,,AUTO
         7 010360   040000 106405                    CMPC    fill='040'O
         7 010361   025005 000001 5                  ADSC9   READ_BUF,A               cn=0,n=1
         7 010362   000035 000001 xsym               ADSC9   B_VECTNIL+29             cn=0,n=1
         7 010363   010366 601000 7                  TNZ     s:15968
         7 010364   000120 115007                    CMPA    80,DL
         7 010365   010356 604000 7                  TMI     s:15964

     4597    15966
     4598    15967              /* Find first blank following first non-blank */
     4599    15968    4         CALL INDEX (BL_INX, ' ', READ_BUF, CHR_INX) ;

  15968  7 010366   777657 620005                    EAX0    -81,AL
         7 010367   777777 660003                    ERX0    -1,DU
         7 010370   205723 236100                    LDQ     CHR_INX,,AUTO
         7 010371   000000 124445                    SCM     mask='000'O
         7 010372   025005 000010 5                  ADSC9   READ_BUF,A               cn=0,n=*X0
         7 010373   000035 000001 xsym               ADSC9   B_VECTNIL+29             cn=0,n=1
         7 010374   205722 000100                    ARG     BL_INX,,AUTO
         7 010375   205722 056100                    ASQ     BL_INX,,AUTO

     4600    15969              %EJECT ;
PL6.E3A0      #001=TOP$POLTS File=TOP$POLTS.:E05TSI                              WED 07/30/97 06:30 Page:568
     4601    15970              /* Check Response for Yes or No */
     4602    15971    4         IF BL_INX - CHR_INX > 0  AND  BL_INX - CHR_INX < 4

  15971  7 010376   205722 236100                    LDQ     BL_INX,,AUTO
         7 010377   205723 136100                    SBLQ    CHR_INX,,AUTO
         7 010400   010453 604400 7                  TMOZ    s:15984
         7 010401   205722 236100                    LDQ     BL_INX,,AUTO
         7 010402   205723 136100                    SBLQ    CHR_INX,,AUTO
         7 010403   000004 116007                    CMPQ    4,DL
         7 010404   010453 605000 7                  TPL     s:15984

     4603    15972    4         THEN IF SUBSTR (READ_BUF, CHR_INX, BL_INX - CHR_INX) =

  15972  7 010405   205722 236100                    LDQ     BL_INX,,AUTO
         7 010406   205723 136100                    SBLQ    CHR_INX,,AUTO
         7 010407   205740 756100                    STQ     BCD_BUF_INX+1,,AUTO
         7 010410   205722 236100                    LDQ     BL_INX,,AUTO
         7 010411   205723 136100                    SBLQ    CHR_INX,,AUTO
         7 010412   205740 721100                    LXL1    BCD_BUF_INX+1,,AUTO
         7 010413   000000 622006                    EAX2    0,QL
         7 010414   040040 106445                    CMPC    fill='040'O
         7 010415   025005 000011 5                  ADSC9   READ_BUF,A               cn=0,n=*X1
         7 010416   000104 000012 6                  ADSC9   YES_RESP                 cn=0,n=*X2
         7 010417   010423 601000 7                  TNZ     s:15975

     4604    15973    4                    SUBSTR (YES_RESP, 0, BL_INX - CHR_INX)
     4605    15974    4            THEN VALID_RESPONSE = %TRUE ;

  15974  7 010420   400000 236003                    LDQ     -131072,DU
         7 010421   205731 756100                    STQ     VALID_RESPONSE,,AUTO
         7 010422   010464 710000 7                  TRA     s:15988

     4606    15975    4            ELSE IF SUBSTR (READ_BUF, CHR_INX, BL_INX - CHR_INX) =

  15975  7 010423   205722 236100                    LDQ     BL_INX,,AUTO
         7 010424   205723 136100                    SBLQ    CHR_INX,,AUTO
         7 010425   205740 756100                    STQ     BCD_BUF_INX+1,,AUTO
PL6.E3A0      #001=TOP$POLTS File=TOP$POLTS.:E05TSI                              WED 07/30/97 06:30 Page:569
         7 010426   205722 236100                    LDQ     BL_INX,,AUTO
         7 010427   205723 136100                    SBLQ    CHR_INX,,AUTO
         7 010430   205740 721100                    LXL1    BCD_BUF_INX+1,,AUTO
         7 010431   000000 622006                    EAX2    0,QL
         7 010432   040040 106445                    CMPC    fill='040'O
         7 010433   025005 000011 5                  ADSC9   READ_BUF,A               cn=0,n=*X1
         7 010434   000105 000012 6                  ADSC9   NO_RESP                  cn=0,n=*X2
         7 010435   010441 601000 7                  TNZ     s:15979

     4607    15976    4                       SUBSTR (NO_RESP, 0, BL_INX - CHR_INX)
     4608    15977    4               THEN VALID_RESPONSE = %TRUE ;

  15977  7 010436   400000 236003                    LDQ     -131072,DU
         7 010437   205731 756100                    STQ     VALID_RESPONSE,,AUTO
         7 010440   010464 710000 7                  TRA     s:15988

     4609    15978    5               ELSE DO ;

     4610    15979    5                       VALID_RESPONSE = %FALSE ;

  15979  7 010441   205731 450100                    STZ     VALID_RESPONSE,,AUTO

     4611    15980    5                       TOP_ERROR_CODE.ERR# = %E$BADRESP ;

  15980  7 010442   000173 236000 5                  LDQ     TOP_ERROR_CODE
         7 010443   000006 376000 8                  ANQ     6
         7 010444   003310 276007                    ORQ     1736,DL
         7 010445   000173 756000 5                  STQ     TOP_ERROR_CODE

     4612    15981    5                       CALL TOX$WARN (TOP_ERROR_CODE) ;

  15981  7 010446   000007 630400 8                  EPPR0   7
         7 010447   000017 631400 xsym               EPPR1   B_VECTNIL+15
         7 010450   000000 701000 xent               TSX1    TOX$WARN
         7 010451   000000 011000                    NOP     0

     4613    15982    5                    END /* ELSE */ ;
PL6.E3A0      #001=TOP$POLTS File=TOP$POLTS.:E05TSI                              WED 07/30/97 06:30 Page:570

  15982  7 010452   010464 710000 7                  TRA     s:15988

     4614    15983    5         ELSE DO ;

     4615    15984    5                 VALID_RESPONSE = %FALSE ;

  15984  7 010453   205731 450100                    STZ     VALID_RESPONSE,,AUTO

     4616    15985    5                 TOP_ERROR_CODE.ERR# = %E$BADRESP ;

  15985  7 010454   000173 236000 5                  LDQ     TOP_ERROR_CODE
         7 010455   000006 376000 8                  ANQ     6
         7 010456   003310 276007                    ORQ     1736,DL
         7 010457   000173 756000 5                  STQ     TOP_ERROR_CODE

     4617    15986    5                 CALL TOX$WARN (TOP_ERROR_CODE) ;

  15986  7 010460   000007 630400 8                  EPPR0   7
         7 010461   000017 631400 xsym               EPPR1   B_VECTNIL+15
         7 010462   000000 701000 xent               TSX1    TOX$WARN
         7 010463   000000 011000                    NOP     0

     4618    15987    5              END /* ELSE */ ;

     4619    15988    4      END /* UNTIL */ ;

  15988  7 010464   205731 234100                    SZN     VALID_RESPONSE,,AUTO
         7 010465   010344 605000 7                  TPL     s:15957

     4620    15989
     4621    15990           /* If dump desired then return else altreturn */
     4622    15991    3      IF READ_BUF_(CHR_INX) = 'Y'

  15991  7 010466   205723 235100                    LDA     CHR_INX,,AUTO
         7 010467   040000 106405                    CMPC    fill='040'O
         7 010470   025005 000001 5                  ADSC9   READ_BUF,A               cn=0,n=1
PL6.E3A0      #001=TOP$POLTS File=TOP$POLTS.:E05TSI                              WED 07/30/97 06:30 Page:571
         7 010471   000070 000001 8                  ADSC9   56                       cn=0,n=1
         7 010472   010475 601000 7                  TNZ     s:15993

     4623    15992    3      THEN RETURN ;

  15992  7 010473   205730 221300                    LDX1  ! DUMP_TYPE+1,,AUTO
         7 010474   000001 702211                    TSX2  ! 1,X1

     4624    15993    3      ELSE ALTRETURN ;

  15993  7 010475   205730 221300                    LDX1  ! DUMP_TYPE+1,,AUTO
         7 010476   000000 702211                    TSX2  ! 0,X1

     4625    15994
     4626    15995    3   END DO_YOU_WANT_A_DUMP ;
     4627    15996        %EJECT ;
PL6.E3A0      #001=TOP$POLTS File=TOP$POLTS.:E05TSI                              WED 07/30/97 06:30 Page:572
     4628    15997    2   GET_DUMP_OUTPUT_MODE: PROC ALTRET ;

  15997  7 010477   205730 741300       GET_DUMP_OU* STX1  ! DUMP_TYPE+1,,AUTO

     4629    15998
     4630    15999        /* Code */
     4631    16000
     4632    16001    3      CALL M$PROMPT (LP_OR_FID) ;

  16001  7 010500   025266 630400 5                  EPPR0   LP_OR_FID
         7 010501   160002 713400                    CLIMB   57346
         7 010502   401000 401760                    pmme    nvectors=3

     4633    16002    3      READ_BUF = ' ' ;

  16002  7 010503   040000 100400                    MLR     fill='040'O
         7 010504   000035 000001 xsym               ADSC9   B_VECTNIL+29             cn=0,n=1
         7 010505   025005 000120 5                  ADSC9   READ_BUF                 cn=0,n=80

     4634    16003    3      READ_IO.BUF_ = VECTOR (READ_BUF) ;

  16003  7 010506   000066 237000 8                  LDAQ    54
         7 010507   000004 757000 xsym               STAQ    READ_IO+4

     4635    16004    3      CALL TOT$CONSOLE_IN ;

  16004  7 010510   000002 631400 xsym               EPPR1   B_VECTNIL+2
         7 010511   000000 701000 xent               TSX1    TOT$CONSOLE_IN
         7 010512   000000 011000                    NOP     0

     4636    16005
     4637    16006    3      IF READ_BUF = ' '

  16006  7 010513   040000 106400                    CMPC    fill='040'O
         7 010514   025005 000120 5                  ADSC9   READ_BUF                 cn=0,n=80
         7 010515   000035 000001 xsym               ADSC9   B_VECTNIL+29             cn=0,n=1
         7 010516   010522 601000 7                  TNZ     s:16010
PL6.E3A0      #001=TOP$POLTS File=TOP$POLTS.:E05TSI                              WED 07/30/97 06:30 Page:573

     4638    16007    3      THEN LP_DUMP = %TRUE ;

  16007  7 010517   400000 236003                    LDQ     -131072,DU
         7 010520   205725 756100                    STQ     LP_DUMP,,AUTO
         7 010521   010562 710000 7                  TRA     s:16025

     4639    16008    4      ELSE DO ;

     4640    16009                   /* Delimit user reply */
     4641    16010    4              CHR_INX = 0 ;

  16010  7 010522   205723 450100                    STZ     CHR_INX,,AUTO

     4642    16011    5              DO WHILE READ_BUF_(CHR_INX) = ' ' AND CHR_INX < 80 ;

  16011  7 010523   010525 710000 7                  TRA     s:16013

     4643    16012    5                 CHR_INX = CHR_INX + 1 ;

  16012  7 010524   205723 054100                    AOS     CHR_INX,,AUTO

     4644    16013    5              END /* WHILE */ ;

  16013  7 010525   205723 235100                    LDA     CHR_INX,,AUTO
         7 010526   040000 106405                    CMPC    fill='040'O
         7 010527   025005 000001 5                  ADSC9   READ_BUF,A               cn=0,n=1
         7 010530   000035 000001 xsym               ADSC9   B_VECTNIL+29             cn=0,n=1
         7 010531   010534 601000 7                  TNZ     s:16014
         7 010532   000120 115007                    CMPA    80,DL
         7 010533   010524 604000 7                  TMI     s:16012

     4645    16014    4              CALL INDEX (BL_INX, ' ', READ_BUF, CHR_INX) ;

  16014  7 010534   777657 620005                    EAX0    -81,AL
         7 010535   777777 660003                    ERX0    -1,DU
         7 010536   205723 236100                    LDQ     CHR_INX,,AUTO
PL6.E3A0      #001=TOP$POLTS File=TOP$POLTS.:E05TSI                              WED 07/30/97 06:30 Page:574
         7 010537   000000 124445                    SCM     mask='000'O
         7 010540   025005 000010 5                  ADSC9   READ_BUF,A               cn=0,n=*X0
         7 010541   000035 000001 xsym               ADSC9   B_VECTNIL+29             cn=0,n=1
         7 010542   205722 000100                    ARG     BL_INX,,AUTO
         7 010543   205722 056100                    ASQ     BL_INX,,AUTO

     4646    16015
     4647    16016                   /* Check for 'LP' or file identifier */
     4648    16017    4              IF BL_INX - CHR_INX = 2 AND

  16017  7 010544   205722 236100                    LDQ     BL_INX,,AUTO
         7 010545   205723 136100                    SBLQ    CHR_INX,,AUTO
         7 010546   000002 116007                    CMPQ    2,DL
         7 010547   010557 601000 7                  TNZ     s:16021
         7 010550   040000 106405                    CMPC    fill='040'O
         7 010551   025005 000002 5                  ADSC9   READ_BUF,A               cn=0,n=2
         7 010552   000256 000002 6                  ADSC9   CRLF_+104                cn=0,n=2
         7 010553   010557 601000 7                  TNZ     s:16021

     4649    16018    4                      SUBSTR (READ_BUF, CHR_INX, 2) = 'LP'
     4650    16019    4              THEN LP_DUMP = %TRUE ;

  16019  7 010554   400000 236003                    LDQ     -131072,DU
         7 010555   205725 756100                    STQ     LP_DUMP,,AUTO
         7 010556   010562 710000 7                  TRA     s:16025

     4651    16020    5              ELSE DO ;

     4652    16021    5                      LP_DUMP = %FALSE ;

  16021  7 010557   205725 450100                    STZ     LP_DUMP,,AUTO

     4653    16022    5                      CALL SETUP_DUMP_FID ALTRET (BAD_FID) ;

  16022  7 010560   010566 701000 7                  TSX1    SETUP_DUMP_FID
         7 010561   010564 702000 7                  TSX2    BAD_FID

PL6.E3A0      #001=TOP$POLTS File=TOP$POLTS.:E05TSI                              WED 07/30/97 06:30 Page:575
     4654    16023    5                   END /* ELSE */ ;

     4655    16024    4           END /* ELSE */ ;

     4656    16025    3      RETURN ;

  16025  7 010562   205730 221300                    LDX1  ! DUMP_TYPE+1,,AUTO
         7 010563   000001 702211                    TSX2  ! 1,X1

     4657    16026
     4658    16027    3   BAD_FID:
     4659    16028    3      ALTRETURN ;

  16028  7 010564   205730 221300       BAD_FID      LDX1  ! DUMP_TYPE+1,,AUTO
         7 010565   000000 702211                    TSX2  ! 0,X1

     4660    16029
     4661    16030        /* END GET_DUMP_OUTPUT_MODE */
     4662    16031        %EJECT ;
PL6.E3A0      #001=TOP$POLTS File=TOP$POLTS.:E05TSI                              WED 07/30/97 06:30 Page:576
     4663    16032    3   SETUP_DUMP_FID: PROC ALTRET ;

  16032  7 010566   205732 741300       SETUP_DUMP_* STX1  ! EDIT_NAME_FOUND+1,,AUTO

     4664    16033
     4665    16034        /* Code */
     4666    16035
     4667    16036    4      CALL INDEX (DOT_INX, '.', READ_BUF, CHR_INX) ;

  16036  7 010567   205723 720100                    LXL0    CHR_INX,,AUTO
         7 010570   777657 620010                    EAX0    -81,X0
         7 010571   777777 660003                    ERX0    -1,DU
         7 010572   205723 236100                    LDQ     CHR_INX,,AUTO
         7 010573   205723 235100                    LDA     CHR_INX,,AUTO
         7 010574   000000 124445                    SCM     mask='000'O
         7 010575   025005 000010 5                  ADSC9   READ_BUF,A               cn=0,n=*X0
         7 010576   000071 000001 8                  ADSC9   57                       cn=0,n=1
         7 010577   205724 000100                    ARG     DOT_INX,,AUTO
         7 010600   205724 056100                    ASQ     DOT_INX,,AUTO

     4668    16037    4      IF DOT_INX = CHR_INX

  16037  7 010601   205724 236100                    LDQ     DOT_INX,,AUTO
         7 010602   205723 116100                    CMPQ    CHR_INX,,AUTO
         7 010603   010616 601000 7                  TNZ     s:16043

     4669    16038    5      THEN DO ;

     4670    16039    5              TOP_ERROR_CODE.ERR# = %E$BADFILEID ;

  16039  7 010604   000173 236000 5                  LDQ     TOP_ERROR_CODE
         7 010605   000006 376000 8                  ANQ     6
         7 010606   003320 276007                    ORQ     1744,DL
         7 010607   000173 756000 5                  STQ     TOP_ERROR_CODE

     4671    16040    5              CALL TOX$WARN (TOP_ERROR_CODE) ;

PL6.E3A0      #001=TOP$POLTS File=TOP$POLTS.:E05TSI                              WED 07/30/97 06:30 Page:577
  16040  7 010610   000007 630400 8                  EPPR0   7
         7 010611   000017 631400 xsym               EPPR1   B_VECTNIL+15
         7 010612   000000 701000 xent               TSX1    TOX$WARN
         7 010613   000000 011000                    NOP     0

     4672    16041    5              ALTRETURN ;

  16041  7 010614   205732 221300                    LDX1  ! EDIT_NAME_FOUND+1,,AUTO
         7 010615   000000 702211                    TSX2  ! 0,X1

     4673    16042    5           END /* THEN */ ;
     4674    16043    4      ELSE IF DOT_INX > BL_INX

  16043  7 010616   205722 116100                    CMPQ    BL_INX,,AUTO
         7 010617   010636 604400 7                  TMOZ    s:16052

     4675    16044    5         THEN DO ;

     4676    16045    5                 DUMP_NAME.NAME# = SUBSTR (READ_BUF,

  16045  7 010620   205722 236100                    LDQ     BL_INX,,AUTO
         7 010621   205723 136100                    SBLQ    CHR_INX,,AUTO
         7 010622   000000 622006                    EAX2    0,QL
         7 010623   040000 100445                    MLR     fill='040'O
         7 010624   025005 000012 5                  ADSC9   READ_BUF,A               cn=0,n=*X2
         7 010625   025330 200037 5                  ADSC9   DUMP_NAME                cn=1,n=31

     4677    16046    5                         CHR_INX,
     4678    16047    5                         BL_INX - CHR_INX) ;
     4679    16048    5                 DUMP_NAME.L# = BL_INX - CHR_INX ;

  16048  7 010626   205722 236100                    LDQ     BL_INX,,AUTO
         7 010627   205723 136100                    SBLQ    CHR_INX,,AUTO
         7 010630   000033 736000                    QLS     27
         7 010631   025330 552040 5                  STBQ    DUMP_NAME,'40'O

     4680    16049    5                 DUMP_ACCT.ACCT# = B$JIT$ -> B$JIT.FACCN ;
PL6.E3A0      #001=TOP$POLTS File=TOP$POLTS.:E05TSI                              WED 07/30/97 06:30 Page:578

  16049  7 010632   000000 470400 xsym               LDP0    B$JIT$
         7 010633   000006 237100                    LDAQ    6,,PR0
         7 010634   025340 757000 5                  STAQ    DUMP_ACCT

     4681    16050    5              END /* THEN */ ;

  16050  7 010635   010656 710000 7                  TRA     s:16060

     4682    16051    5         ELSE DO ;

     4683    16052    5                 DUMP_NAME.NAME# = SUBSTR (READ_BUF,

  16052  7 010636   205723 136100                    SBLQ    CHR_INX,,AUTO
         7 010637   000000 622006                    EAX2    0,QL
         7 010640   040000 100445                    MLR     fill='040'O
         7 010641   025005 000012 5                  ADSC9   READ_BUF,A               cn=0,n=*X2
         7 010642   025330 200037 5                  ADSC9   DUMP_NAME                cn=1,n=31

     4684    16053    5                         CHR_INX,
     4685    16054    5                         DOT_INX - CHR_INX) ;
     4686    16055    5                 DUMP_NAME.L# = DOT_INX - CHR_INX ;

  16055  7 010643   205724 236100                    LDQ     DOT_INX,,AUTO
         7 010644   205723 136100                    SBLQ    CHR_INX,,AUTO
         7 010645   000033 736000                    QLS     27
         7 010646   025330 552040 5                  STBQ    DUMP_NAME,'40'O

     4687    16056    5                 DUMP_ACCT.ACCT# = SUBSTR (READ_BUF,

  16056  7 010647   205722 236100                    LDQ     BL_INX,,AUTO
         7 010650   205724 136100                    SBLQ    DOT_INX,,AUTO
         7 010651   777777 622006                    EAX2    -1,QL
         7 010652   205724 236100                    LDQ     DOT_INX,,AUTO
         7 010653   040000 100446                    MLR     fill='040'O
         7 010654   025005 200012 5                  ADSC9   READ_BUF,Q               cn=1,n=*X2
         7 010655   025340 000010 5                  ADSC9   DUMP_ACCT                cn=0,n=8
PL6.E3A0      #001=TOP$POLTS File=TOP$POLTS.:E05TSI                              WED 07/30/97 06:30 Page:579

     4688    16057    5                         DOT_INX + 1,
     4689    16058    5                         BL_INX - DOT_INX - 1) ;
     4690    16059    5              END /* ELSE */ ;

     4691    16060    4      RETURN ;

  16060  7 010656   000001 702211                    TSX2  ! 1,X1

     4692    16061
     4693    16062    4   END SETUP_DUMP_FID ;
     4694    16063    3   END GET_DUMP_OUTPUT_MODE ;
     4695    16064        %EJECT ;
PL6.E3A0      #001=TOP$POLTS File=TOP$POLTS.:E05TSI                              WED 07/30/97 06:30 Page:580
     4696    16065    2   OPEN_DUMP_RECEPTICLE: PROC ALTRET ;

  16065  7 010657   205730 741300       OPEN_DUMP_R* STX1  ! DUMP_TYPE+1,,AUTO

     4697    16066
     4698    16067        /* Code */
     4699    16068
     4700    16069    3      IF DCBADDR (DCBNUM (M$DUMP)) -> F$DCB.FCD#

  16069  7 010660   000000 236007 xsym               LDQ     M$DUMP,DL
         7 010661   000015 470400 8                  LDP0    13
         7 010662   000000 471500                    LDP1    0,,PR0
         7 010663   100000 473506                    LDP3    0,QL,PR1
         7 010664   300031 236100                    LDQ     25,,PR3
         7 010665   020000 316007                    CANQ    8192,DL
         7 010666   010702 601000 7                  TNZ     s:16074

     4701    16070    3      THEN /* Dump data control block already open. */ ;
     4702    16071    3      ELSE IF LP_DUMP

  16071  7 010667   205725 234100                    SZN     LP_DUMP,,AUTO
         7 010670   010676 605000 7                  TPL     s:16073

     4703    16072    3         THEN CALL M$OPEN (OPEN_LP) ALTRET (BAD_LP_OPEN) ;

  16072  7 010671   025070 630400 5                  EPPR0   OPEN_LP
         7 010672   450000 713400                    CLIMB   alt,open
         7 010673   410400 401760                    pmme    nvectors=18
         7 010674   010704 702000 7                  TSX2    BAD_LP_OPEN
         7 010675   010702 710000 7                  TRA     s:16074

     4704    16073    3         ELSE CALL M$OPEN (OPEN_DUMP_FILE) ALTRET (BAD_FID_OPEN) ;

  16073  7 010676   025162 630400 5                  EPPR0   OPEN_DUMP_FILE
         7 010677   450000 713400                    CLIMB   alt,open
         7 010700   410400 401760                    pmme    nvectors=18
         7 010701   010716 702000 7                  TSX2    BAD_FID_OPEN
PL6.E3A0      #001=TOP$POLTS File=TOP$POLTS.:E05TSI                              WED 07/30/97 06:30 Page:581

     4705    16074    3      RETURN ;

  16074  7 010702   205730 221300                    LDX1  ! DUMP_TYPE+1,,AUTO
         7 010703   000001 702211                    TSX2  ! 1,X1

     4706    16075
     4707    16076    3   BAD_LP_OPEN:
     4708    16077    3      CALL TOX$WARN (B$TCB$->B$TCB.ALT$->B$ALT.ERR) ;

  16077  7 010704   000000 470400 xsym  BAD_LP_OPEN  LDP0    B$TCB$
         7 010705   000000 471500                    LDP1    0,,PR0
         7 010706   100102 633500                    EPPR3   66,,PR1
         7 010707   205740 453500                    STP3    BCD_BUF_INX+1,,AUTO
         7 010710   205740 630500                    EPPR0   BCD_BUF_INX+1,,AUTO
         7 010711   000017 631400 xsym               EPPR1   B_VECTNIL+15
         7 010712   000000 701000 xent               TSX1    TOX$WARN
         7 010713   000000 011000                    NOP     0

     4709    16078    3      ALTRETURN ;

  16078  7 010714   205730 221300                    LDX1  ! DUMP_TYPE+1,,AUTO
         7 010715   000000 702211                    TSX2  ! 0,X1

     4710    16079
     4711    16080    3   BAD_FID_OPEN:
     4712    16081    3      TOP_ERROR_CODE.ERR# = %E$NOOVRWR ;

  16081  7 010716   000173 236000 5     BAD_FID_OPEN LDQ     TOP_ERROR_CODE
         7 010717   000006 376000 8                  ANQ     6
         7 010720   003330 276007                    ORQ     1752,DL
         7 010721   000173 756000 5                  STQ     TOP_ERROR_CODE

     4713    16082    3      CALL TOX$WARN (TOP_ERROR_CODE) ;

  16082  7 010722   000007 630400 8                  EPPR0   7
         7 010723   000017 631400 xsym               EPPR1   B_VECTNIL+15
PL6.E3A0      #001=TOP$POLTS File=TOP$POLTS.:E05TSI                              WED 07/30/97 06:30 Page:582
         7 010724   000000 701000 xent               TSX1    TOX$WARN
         7 010725   000000 011000                    NOP     0

     4714    16083    3      ALTRETURN ;

  16083  7 010726   205730 221300                    LDX1  ! DUMP_TYPE+1,,AUTO
         7 010727   000000 702211                    TSX2  ! 0,X1

     4715    16084
     4716    16085    3   END OPEN_DUMP_RECEPTICLE ;
     4717    16086        %EJECT ;
PL6.E3A0      #001=TOP$POLTS File=TOP$POLTS.:E05TSI                              WED 07/30/97 06:30 Page:583
     4718    16087    2   SET_DUMP_PARAMS: PROC ALTRET ;

  16087  7 010730   205730 741300       SET_DUMP_PA* STX1  ! DUMP_TYPE+1,,AUTO

     4719    16088
     4720    16089    3      DCL EDIT_NAME_FOUND   BIT (1) ;
     4721    16090
     4722    16091        /* Code */
     4723    16092
     4724    16093    3      DUMP_HDR$ = PINCRW (IS$, A_REG.ADDR#) ;

  16093  7 010731   200011 470500                    LDP0    @A_REG,,AUTO
         7 010732   000000 220100                    LDX0    0,,PR0
         7 010733   000000 636010                    EAQ     0,X0
         7 010734   000000 036000 6                  ADLQ    FPTN_
         7 010735   200022 756100                    STQ     DUMP_HDR$,,AUTO

     4725    16094    3      DUMP_HDR_SIZE = A_REG.SIZE# ;

  16094  7 010736   000000 236100                    LDQ     0,,PR0
         7 010737   777777 376007                    ANQ     -1,DL
         7 010740   200024 756100                    STQ     DUMP_HDR_SIZE,,AUTO

     4726    16095    3      IF X1_REG = -1024

  16095  7 010741   200013 471500                    LDP1    @X1_REG,,AUTO
         7 010742   000100 100500                    MLR     fill='000'O
         7 010743   100000 000002                    ADSC9   0,,PR1                   cn=0,n=2
         7 010744   205740 000004                    ADSC9   BCD_BUF_INX+1,,AUTO      cn=0,n=4
         7 010745   205740 236100                    LDQ     BCD_BUF_INX+1,,AUTO
         7 010746   000022 732000                    QRS     18
         7 010747   000072 116000 8                  CMPQ    58
         7 010750   010766 601000 7                  TNZ     s:16103

     4727    16096    4      THEN DO ;

     4728    16097    4              DUMP_.ADDR# = TOT$ECP.SUBEXEC.ADDRESS ;
PL6.E3A0      #001=TOP$POLTS File=TOP$POLTS.:E05TSI                              WED 07/30/97 06:30 Page:584

  16097  7 010751   000010 720000 xsym               LXL0    TOT$ECP+8
         7 010752   025031 740000 5                  STX0    DUMP_

     4729    16098    4              DUMP_SIZE = Q_REG.SIZE# - 1024 - TOT$ECP.SUBEXEC.ADDRESS ;

  16098  7 010753   200012 473500                    LDP3    @Q_REG,,AUTO
         7 010754   300000 236100                    LDQ     0,,PR3
         7 010755   777777 376007                    ANQ     -1,DL
         7 010756   000010 136000 xsym               SBLQ    TOT$ECP+8
         7 010757   002000 136007                    SBLQ    1024,DL
         7 010760   205721 756100                    STQ     DUMP_SIZE,,AUTO

     4730    16099    4              DUMP_TYPE = %SUBEXEC ;

  16099  7 010761   000001 222003                    LDX2    1,DU
         7 010762   205727 742100                    STX2    DUMP_TYPE,,AUTO

     4731    16100    4              EDIT_NAME = TOT$ECP.SUBEXEC.EDIT_NAME ;

  16100  7 010763   000011 236000 xsym               LDQ     TOT$ECP+9
         7 010764   200021 756100                    STQ     EDIT_NAME,,AUTO

     4732    16101    4           END ;

  16101  7 010765   011032 710000 7                  TRA     s:16117

     4733    16102    4      ELSE DO ;

     4734    16103    4              DUMP_.ADDR# = Q_REG.ADDR# ;

  16103  7 010766   200012 473500                    LDP3    @Q_REG,,AUTO
         7 010767   300000 220100                    LDX0    0,,PR3
         7 010770   025031 740000 5                  STX0    DUMP_

     4735    16104    4              DUMP_SIZE = Q_REG.SIZE# ;

PL6.E3A0      #001=TOP$POLTS File=TOP$POLTS.:E05TSI                              WED 07/30/97 06:30 Page:585
  16104  7 010771   300000 236100                    LDQ     0,,PR3
         7 010772   777777 376007                    ANQ     -1,DL
         7 010773   205721 756100                    STQ     DUMP_SIZE,,AUTO

     4736    16105    4              DUMP_TYPE = %TEST_PAGE ;

  16105  7 010774   000002 222003                    LDX2    2,DU
         7 010775   205727 742100                    STX2    DUMP_TYPE,,AUTO

     4737    16106    4              EDIT_NAME_FOUND = %FALSE ;

  16106  7 010776   205731 450100                    STZ     EDIT_NAME_FOUND,,AUTO

     4738    16107    4              TP_STATS_INX = 0 ;

  16107  7 010777   200025 450100                    STZ     TP_STATS_INX,,AUTO

     4739    16108    5              DO UNTIL EDIT_NAME_FOUND OR TP_STATS_INX = 8 ;

     4740    16109    5                 IF DUMP_.ADDR# = TOP$TCP.STATS.LOAD_ADDR(TP_STATS_INX)

  16109  7 011000   200025 236100                    LDQ     TP_STATS_INX,,AUTO
         7 011001   000244 402007                    MPY     164,DL
         7 011002   000003 470400 xsym               LDP0    TOT$DMC+3
         7 011003   000000 620006                    EAX0    0,QL
         7 011004   025031 236000 5                  LDQ     DUMP_
         7 011005   000022 772000                    QRL     18
         7 011006   000016 116110                    CMPQ    14,X0,PR0
         7 011007   011013 601000 7                  TNZ     s:16111

     4741    16110    5                 THEN EDIT_NAME_FOUND = %TRUE ;

  16110  7 011010   400000 236003                    LDQ     -131072,DU
         7 011011   205731 756100                    STQ     EDIT_NAME_FOUND,,AUTO
         7 011012   011014 710000 7                  TRA     s:16112

     4742    16111    5                 ELSE TP_STATS_INX = TP_STATS_INX + 1 ;
PL6.E3A0      #001=TOP$POLTS File=TOP$POLTS.:E05TSI                              WED 07/30/97 06:30 Page:586

  16111  7 011013   200025 054100                    AOS     TP_STATS_INX,,AUTO

     4743    16112    5              END ;

  16112  7 011014   205731 234100                    SZN     EDIT_NAME_FOUND,,AUTO
         7 011015   011021 604000 7                  TMI     s:16113
         7 011016   200025 235100                    LDA     TP_STATS_INX,,AUTO
         7 011017   000010 115007                    CMPA    8,DL
         7 011020   011000 601000 7                  TNZ     s:16109

     4744    16113    4              IF EDIT_NAME_FOUND

  16113  7 011021   205731 234100                    SZN     EDIT_NAME_FOUND,,AUTO
         7 011022   011030 605000 7                  TPL     s:16115

     4745    16114    4              THEN EDIT_NAME = TOP$TCP.STATS.EDIT_NAME(TP_STATS_INX) ;

  16114  7 011023   200025 236100                    LDQ     TP_STATS_INX,,AUTO
         7 011024   000244 402007                    MPY     164,DL
         7 011025   000020 236106                    LDQ     16,QL,PR0
         7 011026   200021 756100                    STQ     EDIT_NAME,,AUTO
         7 011027   011032 710000 7                  TRA     s:16117

     4746    16115    4              ELSE ALTRETURN ;

  16115  7 011030   205730 221300                    LDX1  ! DUMP_TYPE+1,,AUTO
         7 011031   000000 702211                    TSX2  ! 0,X1

     4747    16116    4           END ;
     4748    16117    3      RETURN ;

  16117  7 011032   205730 221300                    LDX1  ! DUMP_TYPE+1,,AUTO
         7 011033   000001 702211                    TSX2  ! 1,X1

     4749    16118
     4750    16119    3   END SET_DUMP_PARAMS ;
PL6.E3A0      #001=TOP$POLTS File=TOP$POLTS.:E05TSI                              WED 07/30/97 06:30 Page:587
     4751    16120        %EJECT ;
PL6.E3A0      #001=TOP$POLTS File=TOP$POLTS.:E05TSI                              WED 07/30/97 06:30 Page:588
     4752    16121    2   EXECUTE_DUMP: PROC ;

  16121  7 011034   205730 741300       EXECUTE_DUMP STX1  ! DUMP_TYPE+1,,AUTO

     4753    16122
     4754    16123        /* Code */
     4755    16124
     4756    16125    3      CALL GET_BCD_BUFFER ;

  16125  7 011035   011265 701000 7                  TSX1    GET_BCD_BUFFER
         7 011036   000000 011000                    NOP     0

     4757    16126    3      CALL TOT$BCD_ASCII (BCD_BUF, ASCII_BUF, DUMP_HDR_SIZE) ;

  16126  7 011037   200024 630500                    EPPR0   DUMP_HDR_SIZE,,AUTO
         7 011040   205742 450500                    STP0    BCD_BUF_INX+3,,AUTO
         7 011041   202306 631500                    EPPR1   ASCII_BUF,,AUTO
         7 011042   205741 451500                    STP1    BCD_BUF_INX+2,,AUTO
         7 011043   200026 633500                    EPPR3   BCD_BUF,,AUTO
         7 011044   205740 453500                    STP3    BCD_BUF_INX+1,,AUTO
         7 011045   205740 630500                    EPPR0   BCD_BUF_INX+1,,AUTO
         7 011046   000021 631400 xsym               EPPR1   B_VECTNIL+17
         7 011047   000000 701000 xent               TSX1    TOT$BCD_ASCII
         7 011050   000000 011000                    NOP     0

     4758    16127    3      CALL BREAK_HDR_LINE ;

  16127  7 011051   011350 701000 7                  TSX1    BREAK_HDR_LINE
         7 011052   000000 011000                    NOP     0

     4759    16128    3      IF LP_DUMP

  16128  7 011053   205725 234100                    SZN     LP_DUMP,,AUTO
         7 011054   011062 605000 7                  TPL     s:16134

     4760    16129    4      THEN DO ;

PL6.E3A0      #001=TOP$POLTS File=TOP$POLTS.:E05TSI                              WED 07/30/97 06:30 Page:589
     4761    16130    4              WRITE_DUMP.BUF_ = VECTOR (DUMP_LINE) ;

  16130  7 011055   000074 237000 8                  LDAQ    60
         7 011056   025320 757000 5                  STAQ    WRITE_DUMP+4

     4762    16131    4              OCT_WORDS_PER_LINE = 8 ;

  16131  7 011057   000010 235007                    LDA     8,DL
         7 011060   200016 755100                    STA     OCT_WORDS_PER_LINE,,AUTO

     4763    16132    4           END /* then */ ;

  16132  7 011061   011066 710000 7                  TRA     s:16137

     4764    16133    4      ELSE DO ;

     4765    16134    4              WRITE_DUMP.BUF_ = VECTOR (FILE_OUTPUT_LINE.DUMP_LINE#) ;

  16134  7 011062   000076 237000 8                  LDAQ    62
         7 011063   025320 757000 5                  STAQ    WRITE_DUMP+4

     4766    16135    4              OCT_WORDS_PER_LINE = 4 ;

  16135  7 011064   000004 235007                    LDA     4,DL
         7 011065   200016 755100                    STA     OCT_WORDS_PER_LINE,,AUTO

     4767    16136    4           END /* else */ ;

     4768    16137    3      DUMP_LINE.EDIT_NAME# = EDIT_NAME ;

  16137  7 011066   200021 236100                    LDQ     EDIT_NAME,,AUTO
         7 011067   024750 756000 5                  STQ     DUMP_LINE+4

     4769    16138    3      ADDR_TRANS$ = ADDR (TEMP_ASCII_BUF) ;

  16138  7 011070   205716 630500                    EPPR0   TEMP_ASCII_BUF,,AUTO
         7 011071   025004 450400 5                  STP0    ADDR_TRANS$
PL6.E3A0      #001=TOP$POLTS File=TOP$POLTS.:E05TSI                              WED 07/30/97 06:30 Page:590

     4770    16139    4      DO DUMP_LINE_INX = 1 TO (DUMP_SIZE_SBIN / OCT_WORDS_PER_LINE_SBIN) ;

  16139  7 011072   000001 235007                    LDA     1,DL
         7 011073   200023 755100                    STA     DUMP_LINE_INX,,AUTO
         7 011074   011245 710000 7                  TRA     s:16179+1

     4771    16140    4         IF TOT$ECP.SUBEXEC.TEST_PAGE_COUNT > 0 AND

  16140  7 011075   000014 235000 xsym               LDA     TOT$ECP+12
         7 011076   011140 604400 7                  TMOZ    s:16163
         7 011077   000014 236000 xsym               LDQ     TOT$ECP+12
         7 011100   000001 136007                    SBLQ    1,DL
         7 011101   200025 116100                    CMPQ    TP_STATS_INX,,AUTO
         7 011102   011140 604400 7                  TMOZ    s:16163

     4772    16141    4                 TP_STATS_INX < TOT$ECP.SUBEXEC.TEST_PAGE_COUNT - 1
     4773    16142    5         THEN DO CASE (DUMP_TYPE) ;

  16142  7 011103   205727 220100                    LDX0    DUMP_TYPE,,AUTO
         7 011104   000003 100003                    CMPX0   3,DU
         7 011105   011107 602010 7                  TNC     s:16142+4,X0
         7 011106   011140 710000 7                  TRA     s:16163
         7 011107   011140 710000 7                  TRA     s:16163
         7 011110   011112 710000 7                  TRA     s:16144
         7 011111   011125 710000 7                  TRA     s:16153

     4774    16143    5                 CASE (%SUBEXEC) ;

     4775    16144    5                    IF DUMP_.ADDR# = TOP$TCP.STATS.LOAD_ADDR(0)

  16144  7 011112   000003 470400 xsym               LDP0    TOT$DMC+3
         7 011113   025031 236000 5                  LDQ     DUMP_
         7 011114   000022 772000                    QRL     18
         7 011115   000016 116100                    CMPQ    14,,PR0
         7 011116   011140 601000 7                  TNZ     s:16163

PL6.E3A0      #001=TOP$POLTS File=TOP$POLTS.:E05TSI                              WED 07/30/97 06:30 Page:591
     4776    16145    6                    THEN DO ;

     4777    16146    6                            DUMP_LINE.EDIT_NAME# =

  16146  7 011117   000020 236100                    LDQ     16,,PR0
         7 011120   024750 756000 5                  STQ     DUMP_LINE+4

     4778    16147    6                                    TOP$TCP.STATS.EDIT_NAME(0) ;
     4779    16148    6                            DUMP_TYPE = %TEST_PAGE ;

  16148  7 011121   000002 221003                    LDX1    2,DU
         7 011122   205727 741100                    STX1    DUMP_TYPE,,AUTO

     4780    16149    6                            TP_STATS_INX = TP_STATS_INX + 1 ;

  16149  7 011123   200025 054100                    AOS     TP_STATS_INX,,AUTO

     4781    16150    6                         END /* then */ ;

  16150  7 011124   011140 710000 7                  TRA     s:16163

     4782    16151    5                    ELSE /* Do Nothing */ ;
     4783    16152    5                 CASE (%TEST_PAGE) ;

     4784    16153    5                    IF DUMP_.ADDR# =

  16153  7 011125   200025 236100                    LDQ     TP_STATS_INX,,AUTO
         7 011126   000244 402007                    MPY     164,DL
         7 011127   000003 470400 xsym               LDP0    TOT$DMC+3
         7 011130   000000 621006                    EAX1    0,QL
         7 011131   025031 236000 5                  LDQ     DUMP_
         7 011132   000022 772000                    QRL     18
         7 011133   000262 116111                    CMPQ    178,X1,PR0
         7 011134   011140 601000 7                  TNZ     s:16163

     4785    16154    5                            TOP$TCP.STATS.LOAD_ADDR(TP_STATS_INX + 1)
     4786    16155    6                    THEN DO ;
PL6.E3A0      #001=TOP$POLTS File=TOP$POLTS.:E05TSI                              WED 07/30/97 06:30 Page:592

     4787    16156    6                            DUMP_LINE.EDIT_NAME# =

  16156  7 011135   000264 236111                    LDQ     180,X1,PR0
         7 011136   024750 756000 5                  STQ     DUMP_LINE+4

     4788    16157    6                                    TOP$TCP.STATS.EDIT_NAME(TP_STATS_INX+1) ;
     4789    16158    6                            TP_STATS_INX = TP_STATS_INX + 1 ;

  16158  7 011137   200025 054100                    AOS     TP_STATS_INX,,AUTO

     4790    16159    6                         END /* then */ ;

     4791    16160    5                    ELSE /* Do Nothing */ ;
     4792    16161    5              END /* CASE */ ;

     4793    16162    4         ELSE /* Do Nothing */ ;
     4794    16163    4         DUMP_ADDR_TEMP = BITBIN (DUMP_) ;

  16163  7 011140   025031 235000 5                  LDA     DUMP_
         7 011141   205726 755100                    STA     DUMP_ADDR_TEMP,,AUTO

     4795    16164    4         CALL TOT$OCTASC (TEMP_ASCII_BUF, DUMP_ADDR_TEMP) ;

  16164  7 011142   205726 630500                    EPPR0   DUMP_ADDR_TEMP,,AUTO
         7 011143   205741 450500                    STP0    BCD_BUF_INX+2,,AUTO
         7 011144   205716 631500                    EPPR1   TEMP_ASCII_BUF,,AUTO
         7 011145   205740 451500                    STP1    BCD_BUF_INX+1,,AUTO
         7 011146   205740 630500                    EPPR0   BCD_BUF_INX+1,,AUTO
         7 011147   000020 631400 xsym               EPPR1   B_VECTNIL+16
         7 011150   000000 701000 xent               TSX1    TOT$OCTASC
         7 011151   000000 011000                    NOP     0

     4796    16165    4         DUMP_LINE.ACTUAL_ADDR# = SUBSTR (TEMP_ASCII_BUF, 0, 6) ;

  16165  7 011152   040000 100500                    MLR     fill='040'O
         7 011153   205716 000006                    ADSC9   TEMP_ASCII_BUF,,AUTO     cn=0,n=6
PL6.E3A0      #001=TOP$POLTS File=TOP$POLTS.:E05TSI                              WED 07/30/97 06:30 Page:593
         7 011154   024744 200006 5                  ADSC9   DUMP_LINE                cn=1,n=6

     4797    16166    4         IF DUMP_TYPE = %TEST_PAGE

  16166  7 011155   205727 220100                    LDX0    DUMP_TYPE,,AUTO
         7 011156   000002 100003                    CMPX0   2,DU
         7 011157   011171 601000 7                  TNZ     s:16169

     4798    16167    4         THEN TP_BASE_REL_ADDR = DUMP_.ADDR# -

  16167  7 011160   200025 236100                    LDQ     TP_STATS_INX,,AUTO
         7 011161   000244 402007                    MPY     164,DL
         7 011162   000003 470400 xsym               LDP0    TOT$DMC+3
         7 011163   000000 621006                    EAX1    0,QL
         7 011164   025031 236000 5                  LDQ     DUMP_
         7 011165   000022 772000                    QRL     18
         7 011166   000016 136111                    SBLQ    14,X1,PR0
         7 011167   200017 756100                    STQ     TP_BASE_REL_ADDR,,AUTO
         7 011170   011175 710000 7                  TRA     s:16170

     4799    16168    4                    TOP$TCP.STATS.LOAD_ADDR(TP_STATS_INX) ;
     4800    16169    4         ELSE TP_BASE_REL_ADDR = DUMP_.ADDR# - TOT$ECP.SUBEXEC.ADDRESS ;

  16169  7 011171   025031 236000 5                  LDQ     DUMP_
         7 011172   000022 772000                    QRL     18
         7 011173   000010 136000 xsym               SBLQ    TOT$ECP+8
         7 011174   200017 756100                    STQ     TP_BASE_REL_ADDR,,AUTO

     4801    16170    4         CALL TOT$OCTASC (TEMP_ASCII_BUF, TP_BASE_REL_ADDR) ;

  16170  7 011175   200017 630500                    EPPR0   TP_BASE_REL_ADDR,,AUTO
         7 011176   205741 450500                    STP0    BCD_BUF_INX+2,,AUTO
         7 011177   205716 631500                    EPPR1   TEMP_ASCII_BUF,,AUTO
         7 011200   205740 451500                    STP1    BCD_BUF_INX+1,,AUTO
         7 011201   205740 630500                    EPPR0   BCD_BUF_INX+1,,AUTO
         7 011202   000020 631400 xsym               EPPR1   B_VECTNIL+16
         7 011203   000000 701000 xent               TSX1    TOT$OCTASC
PL6.E3A0      #001=TOP$POLTS File=TOP$POLTS.:E05TSI                              WED 07/30/97 06:30 Page:594
         7 011204   000000 011000                    NOP     0

     4802    16171    4         DUMP_LINE.RELATIVE_ADDR# = SUBSTR (TEMP_ASCII_BUF, 6, 6) ;

  16171  7 011205   040000 100500                    MLR     fill='040'O
         7 011206   205717 400006                    ADSC9   TEMP_ASCII_BUF+1,,AUTO   cn=2,n=6
         7 011207   024746 200006 5                  ADSC9   DUMP_LINE+2              cn=1,n=6

     4803    16172    5         DO DUMP_WORD_INX = 0 TO OCT_WORDS_PER_LINE - 1 ;

  16172  7 011210   200020 450100                    STZ     DUMP_WORD_INX,,AUTO
         7 011211   011235 710000 7                  TRA     s:16177+3

     4804    16173    5            CALL TOT$OCTASC (TEMP_ASCII_BUF, DUMP$ -> DUMP_WORD_OCT) ;

  16173  7 011212   025031 236000 5                  LDQ     DUMP_
         7 011213   205741 756100                    STQ     BCD_BUF_INX+2,,AUTO
         7 011214   205716 630500                    EPPR0   TEMP_ASCII_BUF,,AUTO
         7 011215   205740 450500                    STP0    BCD_BUF_INX+1,,AUTO
         7 011216   205740 630500                    EPPR0   BCD_BUF_INX+1,,AUTO
         7 011217   000020 631400 xsym               EPPR1   B_VECTNIL+16
         7 011220   000000 701000 xent               TSX1    TOT$OCTASC
         7 011221   000000 011000                    NOP     0

     4805    16174    5            DUMP_LINE.DUMP_OUTPUT_.OCT_WORD_ASC#(DUMP_WORD_INX) =

  16174  7 011222   200020 236100                    LDQ     DUMP_WORD_INX,,AUTO
         7 011223   000015 402007                    MPY     13,DL
         7 011224   040006 100500                    MLR     fill='040'O
         7 011225   205716 000014                    ADSC9   TEMP_ASCII_BUF,,AUTO     cn=0,n=12
         7 011226   024751 400014 5                  ADSC9   DUMP_LINE+5,Q            cn=2,n=12

     4806    16175    5                    TEMP_ASCII_BUF ;
     4807    16176    5            DUMP$ = PINCRW (DUMP$, 1) ;

  16176  7 011227   025031 236000 5                  LDQ     DUMP_
         7 011230   000001 036003                    ADLQ    1,DU
PL6.E3A0      #001=TOP$POLTS File=TOP$POLTS.:E05TSI                              WED 07/30/97 06:30 Page:595
         7 011231   025031 756000 5                  STQ     DUMP_

     4808    16177    5         END ;

  16177  7 011232   200020 235100                    LDA     DUMP_WORD_INX,,AUTO
         7 011233   000001 035007                    ADLA    1,DL
         7 011234   200020 755100                    STA     DUMP_WORD_INX,,AUTO
         7 011235   200020 236100                    LDQ     DUMP_WORD_INX,,AUTO
         7 011236   200016 116100                    CMPQ    OCT_WORDS_PER_LINE,,AUTO
         7 011237   011212 602000 7                  TNC     s:16173

     4809    16178    4         CALL M$WRITE (WRITE_DUMP) ALTRET (WRITE_ERR);

  16178  7 011240   025314 630400 5                  EPPR0   WRITE_DUMP
         7 011241   440001 713400                    CLIMB   alt,write
         7 011242   401400 401760                    pmme    nvectors=4
         7 011243   011253 702000 7                  TSX2    WRITE_ERR

     4810    16179    4      END /* do */ ;

  16179  7 011244   200023 054100                    AOS     DUMP_LINE_INX,,AUTO
         7 011245   205721 236100                    LDQ     DUMP_SIZE,,AUTO
         7 011246   200016 506100                    DIV     OCT_WORDS_PER_LINE,,AUTO
         7 011247   200023 116100                    CMPQ    DUMP_LINE_INX,,AUTO
         7 011250   011075 605000 7                  TPL     s:16140

     4811    16180    3      RETURN ;

  16180  7 011251   205730 221300                    LDX1  ! DUMP_TYPE+1,,AUTO
         7 011252   000001 702211                    TSX2  ! 1,X1

     4812    16181    3   WRITE_ERR:
     4813    16182    3      CALL TOX$WARN (B$TCB$ -> B$TCB.ALT$ -> B$ALT.ERR);

  16182  7 011253   000000 470400 xsym  WRITE_ERR    LDP0    B$TCB$
         7 011254   000000 471500                    LDP1    0,,PR0
         7 011255   100102 633500                    EPPR3   66,,PR1
PL6.E3A0      #001=TOP$POLTS File=TOP$POLTS.:E05TSI                              WED 07/30/97 06:30 Page:596
         7 011256   205740 453500                    STP3    BCD_BUF_INX+1,,AUTO
         7 011257   205740 630500                    EPPR0   BCD_BUF_INX+1,,AUTO
         7 011260   000017 631400 xsym               EPPR1   B_VECTNIL+15
         7 011261   000000 701000 xent               TSX1    TOX$WARN
         7 011262   000000 011000                    NOP     0

     4814    16183    3      RETURN;

  16183  7 011263   205730 221300                    LDX1  ! DUMP_TYPE+1,,AUTO
         7 011264   000001 702211                    TSX2  ! 1,X1

     4815    16184
     4816    16185        /* END EXECUTE_DUMP */
     4817    16186        %EJECT ;
PL6.E3A0      #001=TOP$POLTS File=TOP$POLTS.:E05TSI                              WED 07/30/97 06:30 Page:597
     4818    16187    3   GET_BCD_BUFFER: PROC ;

  16187  7 011265   205732 741300       GET_BCD_BUF* STX1  ! EDIT_NAME_FOUND+1,,AUTO

     4819    16188
     4820    16189    4      DCL DUMP_HDR_INX               UBIN WORD ALIGNED ;
     4821    16190    4      DCL 1 RCW                      ALIGNED,
     4822    16191    4            2 RCD_LGTH#              UBIN (18) UNAL,
     4823    16192    4            2 *                      UBIN (18) UNAL ;
     4824    16193    4      DCL RCW_ REDEF RCW UBIN WORD ALIGNED ;
     4825    16194    4      DCL OFFSET                     UBIN WORD ALIGNED ;
     4826    16195    4      DCL SUM                        UBIN WORD ALIGNED ;
     4827    16196    4      DCL BCD_BUF_INX                UBIN WORD ALIGNED ;
     4828    16197
     4829    16198        /* Code */
     4830    16199
     4831    16200    4      BCD_BUF = '0'B ;

  16200  7 011266   011300 220003                    LDX0    4800,DU
         7 011267   000140 100400                    MLR     fill='000'O
         7 011270   000002 000001 xsym               ADSC9   B_VECTNIL+2              cn=0,n=1
         7 011271   200026 000010                    ADSC9   BCD_BUF,,AUTO            cn=0,n=*X0

     4832    16201    4      DUMP_HDR_INX = 0 ;

  16201  7 011272   205733 450100                    STZ     DUMP_HDR_INX,,AUTO

     4833    16202    4      BCD_BUF_INX = 0 ;

  16202  7 011273   205737 450100                    STZ     BCD_BUF_INX,,AUTO

     4834    16203    4      SUM = 0 ;

  16203  7 011274   205736 450100                    STZ     SUM,,AUTO

     4835    16204    5      DO WHILE (DUMP_HDR_INX < DUMP_HDR_SIZE) ;

PL6.E3A0      #001=TOP$POLTS File=TOP$POLTS.:E05TSI                              WED 07/30/97 06:30 Page:598
  16204  7 011275   205733 236100                    LDQ     DUMP_HDR_INX,,AUTO
         7 011276   200024 116100                    CMPQ    DUMP_HDR_SIZE,,AUTO
         7 011277   011343 603000 7                  TRC     s:16215

     4836    16205    5         RCW_ = DUMP_HDR$ -> DUMP_WORD_OCT ;

  16205  7 011300   200022 470500                    LDP0    DUMP_HDR$,,AUTO
         7 011301   000000 235100                    LDA     0,,PR0
         7 011302   205734 755100                    STA     RCW,,AUTO

     4837    16206    6         DO OFFSET = 1 TO RCW.RCD_LGTH# ;

  16206  7 011303   000001 236007                    LDQ     1,DL
         7 011304   205735 756100                    STQ     OFFSET,,AUTO
         7 011305   011323 710000 7                  TRA     s:16210+3

     4838    16207    6            DUMP_HDR$ = PINCRW (DUMP_HDR$, 1) ;

  16207  7 011306   200022 236100                    LDQ     DUMP_HDR$,,AUTO
         7 011307   000001 036003                    ADLQ    1,DU
         7 011310   200022 756100                    STQ     DUMP_HDR$,,AUTO

     4839    16208    6            BCD_BUF(BCD_BUF_INX) = DUMP_HDR$ -> DUMP_WORD_OCT ;

  16208  7 011311   200022 470500                    LDP0    DUMP_HDR$,,AUTO
         7 011312   205737 720100                    LXL0    BCD_BUF_INX,,AUTO
         7 011313   000000 235100                    LDA     0,,PR0
         7 011314   200026 755110                    STA     BCD_BUF,X0,AUTO

     4840    16209    6            BCD_BUF_INX = BCD_BUF_INX + 1 ;

  16209  7 011315   205737 235100                    LDA     BCD_BUF_INX,,AUTO
         7 011316   000001 035007                    ADLA    1,DL
         7 011317   205737 755100                    STA     BCD_BUF_INX,,AUTO

     4841    16210    6         END /* DO */ ;

PL6.E3A0      #001=TOP$POLTS File=TOP$POLTS.:E05TSI                              WED 07/30/97 06:30 Page:599
  16210  7 011320   205735 235100                    LDA     OFFSET,,AUTO
         7 011321   000001 035007                    ADLA    1,DL
         7 011322   205735 755100                    STA     OFFSET,,AUTO
         7 011323   205734 236100                    LDQ     RCW,,AUTO
         7 011324   000022 772000                    QRL     18
         7 011325   205735 116100                    CMPQ    OFFSET,,AUTO
         7 011326   011306 603000 7                  TRC     s:16207

     4842    16211    5         SUM = SUM + RCW.RCD_LGTH# ;

  16211  7 011327   205736 036100                    ADLQ    SUM,,AUTO
         7 011330   205736 756100                    STQ     SUM,,AUTO

     4843    16212    5         DUMP_HDR$ = PINCRW (DUMP_HDR$, 1) ;

  16212  7 011331   200022 236100                    LDQ     DUMP_HDR$,,AUTO
         7 011332   000001 036003                    ADLQ    1,DU
         7 011333   200022 756100                    STQ     DUMP_HDR$,,AUTO

     4844    16213    5         DUMP_HDR_INX = DUMP_HDR_INX + RCW.RCD_LGTH# + 1 ;

  16213  7 011334   205734 236100                    LDQ     RCW,,AUTO
         7 011335   000022 772000                    QRL     18
         7 011336   205733 036100                    ADLQ    DUMP_HDR_INX,,AUTO
         7 011337   000001 036007                    ADLQ    1,DL
         7 011340   205733 756100                    STQ     DUMP_HDR_INX,,AUTO

     4845    16214    5      END /* WHILE */ ;

  16214  7 011341   200024 116100                    CMPQ    DUMP_HDR_SIZE,,AUTO
         7 011342   011300 602000 7                  TNC     s:16205

     4846    16215    4      DUMP_HDR_SIZE = SUM * 6 ;

  16215  7 011343   205736 236100                    LDQ     SUM,,AUTO
         7 011344   000006 402007                    MPY     6,DL
         7 011345   200024 756100                    STQ     DUMP_HDR_SIZE,,AUTO
PL6.E3A0      #001=TOP$POLTS File=TOP$POLTS.:E05TSI                              WED 07/30/97 06:30 Page:600

     4847    16216    4      RETURN ;

  16216  7 011346   205732 221300                    LDX1  ! EDIT_NAME_FOUND+1,,AUTO
         7 011347   000001 702211                    TSX2  ! 1,X1

     4848    16217
     4849    16218    4   END GET_BCD_BUFFER ;
     4850    16219        %EJECT ;
PL6.E3A0      #001=TOP$POLTS File=TOP$POLTS.:E05TSI                              WED 07/30/97 06:30 Page:601
     4851    16220    3   BREAK_HDR_LINE: PROC ;

  16220  7 011350   205732 741300       BREAK_HDR_L* STX1  ! EDIT_NAME_FOUND+1,,AUTO

     4852    16221
     4853    16222    4      DCL 1 CRLF_ CONSTANT CALIGNED,
     4854    16223    4            2 CR# CHAR (1) UNAL INIT (BITASC ('015'O)),
     4855    16224    4            2 LF# CHAR (1) UNAL INIT (BITASC ('012'O)) ;
     4856    16225    4      DCL CRLF REDEF CRLF_ CHAR (2) CALIGNED ;
     4857    16226    4      DCL CRLF_INDEX UBIN (36) ALIGNED ;
     4858    16227    4      DCL DUMP_HDR_INDEX UBIN (36) ALIGNED ;
     4859    16228    4      DCL LINE_LGTH      UBIN (36) ;
     4860    16229
     4861    16230        /* Code */
     4862    16231
     4863    16232           /* Get first non CRLF character to print */
     4864    16233    4      DUMP_HDR_INDEX = 0 ;

  16233  7 011351   205734 450100                    STZ     DUMP_HDR_INDEX,,AUTO

     4865    16234    4      CALL INDEX (CRLF_INDEX,

  16234  7 011352   205734 720100                    LXL0    DUMP_HDR_INDEX,,AUTO
         7 011353   761737 620010                    EAX0    -7201,X0
         7 011354   777777 660003                    ERX0    -1,DU
         7 011355   205734 236100                    LDQ     DUMP_HDR_INDEX,,AUTO
         7 011356   205734 235100                    LDA     DUMP_HDR_INDEX,,AUTO
         7 011357   000000 120545                    SCD
         7 011360   202306 000010                    ADSC9   ASCII_BUF,A,AUTO         cn=0,n=*X0
         7 011361   000106 000002 6                  ADSC9   CRLF_                    cn=0,n=2
         7 011362   205733 000100                    ARG     CRLF_INDEX,,AUTO
         7 011363   205733 056100                    ASQ     CRLF_INDEX,,AUTO
         7 011364   011366 607000 7                  TTF     s:16238
         7 011365   205733 054100                    AOS     CRLF_INDEX,,AUTO

     4866    16235    4              CRLF,
     4867    16236    4              ASCII_BUF,
PL6.E3A0      #001=TOP$POLTS File=TOP$POLTS.:E05TSI                              WED 07/30/97 06:30 Page:602
     4868    16237    4              DUMP_HDR_INDEX) ;
     4869    16238    5      DO WHILE (DUMP_HDR_INDEX = CRLF_INDEX) ;

  16238  7 011366   205734 236100                    LDQ     DUMP_HDR_INDEX,,AUTO
         7 011367   205733 116100                    CMPQ    CRLF_INDEX,,AUTO
         7 011370   011411 601000 7                  TNZ     s:16247

     4870    16239    5         DUMP_HDR_INDEX = DUMP_HDR_INDEX + 2 ;

  16239  7 011371   205734 235100                    LDA     DUMP_HDR_INDEX,,AUTO
         7 011372   000002 035007                    ADLA    2,DL
         7 011373   205734 755100                    STA     DUMP_HDR_INDEX,,AUTO

     4871    16240    5         CALL INDEX (CRLF_INDEX,

  16240  7 011374   761737 620005                    EAX0    -7201,AL
         7 011375   777777 660003                    ERX0    -1,DU
         7 011376   205734 236100                    LDQ     DUMP_HDR_INDEX,,AUTO
         7 011377   000000 120545                    SCD
         7 011400   202306 000010                    ADSC9   ASCII_BUF,A,AUTO         cn=0,n=*X0
         7 011401   000106 000002 6                  ADSC9   CRLF_                    cn=0,n=2
         7 011402   205733 000100                    ARG     CRLF_INDEX,,AUTO
         7 011403   205733 056100                    ASQ     CRLF_INDEX,,AUTO
         7 011404   011406 607000 7                  TTF     s:16244
         7 011405   205733 054100                    AOS     CRLF_INDEX,,AUTO

     4872    16241    5                 CRLF,
     4873    16242    5                 ASCII_BUF,
     4874    16243    5                 DUMP_HDR_INDEX) ;
     4875    16244    5      END /* WHILE */ ;

  16244  7 011406   205734 236100                    LDQ     DUMP_HDR_INDEX,,AUTO
         7 011407   205733 116100                    CMPQ    CRLF_INDEX,,AUTO
         7 011410   011371 600000 7                  TZE     s:16239

     4876    16245           %EJECT ;
PL6.E3A0      #001=TOP$POLTS File=TOP$POLTS.:E05TSI                              WED 07/30/97 06:30 Page:603
     4877    16246           /* Loop through and print all parts of the message */
     4878    16247    5      DO WHILE (DUMP_HDR_INDEX < DUMP_HDR_SIZE) ;

  16247  7 011411   200024 116100                    CMPQ    DUMP_HDR_SIZE,,AUTO
         7 011412   011502 603000 7                  TRC     s:16273

     4879    16248              /* Set up message part length */
     4880    16249    5         IF CRLF_INDEX < DUMP_HDR_SIZE

  16249  7 011413   205733 236100                    LDQ     CRLF_INDEX,,AUTO
         7 011414   200024 116100                    CMPQ    DUMP_HDR_SIZE,,AUTO
         7 011415   011421 603000 7                  TRC     s:16251

     4881    16250    5         THEN LINE_LGTH = CRLF_INDEX - DUMP_HDR_INDEX ;

  16250  7 011416   205734 136100                    SBLQ    DUMP_HDR_INDEX,,AUTO
         7 011417   205735 756100                    STQ     LINE_LGTH,,AUTO
         7 011420   011424 710000 7                  TRA     s:16254

     4882    16251    5         ELSE LINE_LGTH = DUMP_HDR_SIZE - DUMP_HDR_INDEX ;

  16251  7 011421   200024 236100                    LDQ     DUMP_HDR_SIZE,,AUTO
         7 011422   205734 136100                    SBLQ    DUMP_HDR_INDEX,,AUTO
         7 011423   205735 756100                    STQ     LINE_LGTH,,AUTO

     4883    16252
     4884    16253              /* Frame and output message part */
     4885    16254    5         WRITE_HDR_LINE.BUF_ = VECTOR (SUBSTR (ASCII_BUF,

  16254  7 011424   205735 235100                    LDA     LINE_LGTH,,AUTO
         7 011425   000020 735000                    ALS     16
         7 011426   000140 135007                    SBLA    96,DL
         7 011427   205740 452500                    STP2    BCD_BUF_INX+1,,AUTO
         7 011430   205734 236100                    LDQ     DUMP_HDR_INDEX,,AUTO
         7 011431   000020 736000                    QLS     16
         7 011432   002306 036003                    ADLQ    1222,DU
         7 011433   205740 036100                    ADLQ    BCD_BUF_INX+1,,AUTO
PL6.E3A0      #001=TOP$POLTS File=TOP$POLTS.:E05TSI                              WED 07/30/97 06:30 Page:604
         7 011434   025304 757000 5                  STAQ    WRITE_HDR_LINE+4

     4886    16255    5                 DUMP_HDR_INDEX,
     4887    16256    5                 LINE_LGTH)) ;
     4888    16257    5         CALL M$WRITE (WRITE_HDR_LINE) ;

  16257  7 011435   025300 630400 5                  EPPR0   WRITE_HDR_LINE
         7 011436   040001 713400                    CLIMB   write
         7 011437   401400 401760                    pmme    nvectors=4

     4889    16258
     4890    16259              /* Get next non CRLF character to print */
     4891    16260    5         DUMP_HDR_INDEX = DUMP_HDR_INDEX + LINE_LGTH ;

  16260  7 011440   205734 236100                    LDQ     DUMP_HDR_INDEX,,AUTO
         7 011441   205735 036100                    ADLQ    LINE_LGTH,,AUTO
         7 011442   205734 756100                    STQ     DUMP_HDR_INDEX,,AUTO

     4892    16261    5         CALL INDEX (CRLF_INDEX,

  16261  7 011443   761737 620006                    EAX0    -7201,QL
         7 011444   777777 660003                    ERX0    -1,DU
         7 011445   205734 235100                    LDA     DUMP_HDR_INDEX,,AUTO
         7 011446   000000 120545                    SCD
         7 011447   202306 000010                    ADSC9   ASCII_BUF,A,AUTO         cn=0,n=*X0
         7 011450   000106 000002 6                  ADSC9   CRLF_                    cn=0,n=2
         7 011451   205733 000100                    ARG     CRLF_INDEX,,AUTO
         7 011452   205733 056100                    ASQ     CRLF_INDEX,,AUTO
         7 011453   011455 607000 7                  TTF     s:16265
         7 011454   205733 054100                    AOS     CRLF_INDEX,,AUTO

     4893    16262    5                 CRLF,
     4894    16263    5                 ASCII_BUF,
     4895    16264    5                 DUMP_HDR_INDEX) ;
     4896    16265    6         DO WHILE (DUMP_HDR_INDEX = CRLF_INDEX) ;

  16265  7 011455   205734 236100                    LDQ     DUMP_HDR_INDEX,,AUTO
PL6.E3A0      #001=TOP$POLTS File=TOP$POLTS.:E05TSI                              WED 07/30/97 06:30 Page:605
         7 011456   205733 116100                    CMPQ    CRLF_INDEX,,AUTO
         7 011457   011500 601000 7                  TNZ     s:16272

     4897    16266    6            DUMP_HDR_INDEX = DUMP_HDR_INDEX + 2 ;

  16266  7 011460   205734 235100                    LDA     DUMP_HDR_INDEX,,AUTO
         7 011461   000002 035007                    ADLA    2,DL
         7 011462   205734 755100                    STA     DUMP_HDR_INDEX,,AUTO

     4898    16267    6            CALL INDEX (CRLF_INDEX,

  16267  7 011463   761737 620005                    EAX0    -7201,AL
         7 011464   777777 660003                    ERX0    -1,DU
         7 011465   205734 236100                    LDQ     DUMP_HDR_INDEX,,AUTO
         7 011466   000000 120545                    SCD
         7 011467   202306 000010                    ADSC9   ASCII_BUF,A,AUTO         cn=0,n=*X0
         7 011470   000106 000002 6                  ADSC9   CRLF_                    cn=0,n=2
         7 011471   205733 000100                    ARG     CRLF_INDEX,,AUTO
         7 011472   205733 056100                    ASQ     CRLF_INDEX,,AUTO
         7 011473   011475 607000 7                  TTF     s:16271
         7 011474   205733 054100                    AOS     CRLF_INDEX,,AUTO

     4899    16268    6                    CRLF,
     4900    16269    6                    ASCII_BUF,
     4901    16270    6                    DUMP_HDR_INDEX) ;
     4902    16271    6         END /* WHILE */ ;

  16271  7 011475   205734 236100                    LDQ     DUMP_HDR_INDEX,,AUTO
         7 011476   205733 116100                    CMPQ    CRLF_INDEX,,AUTO
         7 011477   011460 600000 7                  TZE     s:16266

     4903    16272    5      END /* WHILE */ ;

  16272  7 011500   200024 116100                    CMPQ    DUMP_HDR_SIZE,,AUTO
         7 011501   011413 602000 7                  TNC     s:16249

     4904    16273    4      RETURN ;
PL6.E3A0      #001=TOP$POLTS File=TOP$POLTS.:E05TSI                              WED 07/30/97 06:30 Page:606

  16273  7 011502   205732 221300                    LDX1  ! EDIT_NAME_FOUND+1,,AUTO
         7 011503   000001 702211                    TSX2  ! 1,X1

     4905    16274
     4906    16275    4   END BREAK_HDR_LINE ;
     4907    16276
     4908    16277    3   END EXECUTE_DUMP ;
     4909    16278        %EJECT ;
PL6.E3A0      #001=TOP$POLTS File=TOP$POLTS.:E05TSI                              WED 07/30/97 06:30 Page:607
     4910    16279    2   CLOSE_DUMP_RECEPTICLE: PROC ;

  16279  7 011504   205730 741300       CLOSE_DUMP_* STX1  ! DUMP_TYPE+1,,AUTO

     4911    16280
     4912    16281        /* Code */
     4913    16282
     4914    16283    3      IF DCBADDR (DCBNUM (M$DUMP)) -> F$DCB.FCD#

  16283  7 011505   000000 236007 xsym               LDQ     M$DUMP,DL
         7 011506   000015 470400 8                  LDP0    13
         7 011507   000000 471500                    LDP1    0,,PR0
         7 011510   100000 473506                    LDP3    0,QL,PR1
         7 011511   300031 236100                    LDQ     25,,PR3
         7 011512   020000 316007                    CANQ    8192,DL
         7 011513   011517 600000 7                  TZE     s:16286

     4915    16284    3      THEN CALL M$CLOSE (CLOSE_DUMP) ;

  16284  7 011514   025032 630400 5                  EPPR0   CLOSE_DUMP
         7 011515   050001 713400                    CLIMB   close
         7 011516   406000 401760                    pmme    nvectors=13

     4916    16285    3      ELSE /* Dump file or device is not currently open. */ ;
     4917    16286    3      RETURN ;

  16286  7 011517   205730 221300                    LDX1  ! DUMP_TYPE+1,,AUTO
         7 011520   000001 702211                    TSX2  ! 1,X1

     4918    16287
     4919    16288    3   END CLOSE_DUMP_RECEPTICLE ;
     4920    16289    2   END TOP$MME_WRDUMP ;
     4921    16290        %EJECT ;
PL6.E3A0      #001=TOP$POLTS File=TOP$POLTS.:E05TSI                              WED 07/30/97 06:30 Page:608
     4922    16291        /*I* NAME:         BUILD_SCTWRK
     4923    16292        CALL:        CALL BUILD_SCTWRK (TCX, DC, PW2, B17F, B13F, BIT12F, QR, SCTWDS_BUILT)
     4924    16293             INTERFACE:
     4925    16294             INPUT:        TCX = index into TOP$TCP for test page
     4926    16295                           DEVICE_CODE = GCOS 6 bit device code
     4927    16296                            P_MMEWD2(bits 0-17) = address of SCTWRK buffer in subexec
     4928    16297             OUTPUT:       SCTWRK buffer in subexec filled in
     4929    16298             DESCRIPTION:  Merely fills in SCTWRK according to the defined
     4930    16299                           BASED structure ;  see code for the details.
     4931    16300        */
     4932    16301
     4933    16302    1   BUILD_SCTWRK: PROC (TCX, P_MMEWD2, BIT17FLAG, BIT13FLAG, BIT12FLAG, Q_REG,
             16302            SCTWDS_BUILT) ;

  16302  7 011521   200034 741300       BUILD_SCTWRK STX1  ! REASON+1,,AUTO

     4934    16303
     4935    16304    2      DCL BIT17FLAG   BIT (1) CALIGNED ;
     4936    16305    2      DCL BIT13FLAG   BIT (1) CALIGNED ;
     4937    16306    2      DCL BIT12FLAG   BIT (1) CALIGNED ;
     4938    16307    2      DCL Q_REG       BIT (36) ALIGNED ;
     4939    16308    2      DCL 1 Q_REG_    REDEF Q_REG ALIGNED,
     4940    16309    2            2 TAPE_URC_FLAG# BIT (1) UNAL,
     4941    16310    2            2 * BIT (5) UNAL,
     4942    16311    2            2 TAPE_ICC,
     4943    16312    2              3 FORMAT# BIT (1) UNAL,
     4944    16313    2              3 OLD_FORMAT,
     4945    16314    2                4 IOM# UBIN (5) UNAL,
     4946    16315    2                4 CHAN# UBIN (6) UNAL,
     4947    16316    2              3 NEW_FORMAT REDEF OLD_FORMAT,
     4948    16317    2                4 IOM# UBIN (3) UNAL,
     4949    16318    2                4 CHAN# UBIN (8) UNAL,
     4950    16319    2            2 * BIT (6) UNAL,
     4951    16320    2            2 URC_ICC,
     4952    16321    2              3 FORMAT# BIT (1) UNAL,
     4953    16322    2              3 OLD_FORMAT,
     4954    16323    2                4 IOM# UBIN (5) UNAL,
PL6.E3A0      #001=TOP$POLTS File=TOP$POLTS.:E05TSI                              WED 07/30/97 06:30 Page:609
     4955    16324    2                4 CHAN# UBIN (6) UNAL,
     4956    16325    2              3 NEW_FORMAT REDEF OLD_FORMAT,
     4957    16326    2                4 IOM# UBIN (3) UNAL,
     4958    16327    2                4 CHAN# UBIN (8) UNAL ;
     4959    16328    2      DCL 1 CONTROLLER_SCT BASED ALIGNED,
     4960    16329    2            2 W0# BIT (36) ALIGNED,
     4961    16330    2            2 W1# BIT (36) ALIGNED,
     4962    16331    2            2 W2# BIT (36) ALIGNED,
     4963    16332    2            2 W3# BIT (36) ALIGNED ;
     4964    16333    2      DCL 1 DEVICE_SCT BASED ALIGNED,
     4965    16334    2            2 W0# BIT (36) ALIGNED,
     4966    16335    2            2 W1# BIT (36) ALIGNED,
     4967    16336    2            2 W2# BIT (36) ALIGNED,
     4968    16337    2            2 W3# BIT (36) ALIGNED ;
     4969    16338    2      DCL DV_SCT$ PTR ;
     4970    16339    2      DCL 1 SCT_PTR REDEF DV_SCT$,
     4971    16340    2            2 ADDR# UBIN (18) UNAL,
     4972    16341    2            2 SEGID# UBIN (18) UNAL ;
     4973    16342    2      DCL TCX UBIN WORD ALIGNED ;
     4974    16343    2      DCL P_MMEWD2 UBIN WORD ALIGNED ;
     4975    16344    2      DCL 1 MME_W2 REDEF P_MMEWD2 ALIGNED,
     4976    16345    2            2 ADDR# UBIN (18) UNAL,
     4977    16346    2            2 * UBIN (18) UNAL ;
     4978    16347    2      DCL CN_SCT$  PTR ;
     4979    16348    2      DCL 1 CSCT_PTR REDEF CN_SCT$,
     4980    16349    2            2 ADDR# UBIN (18) UNAL,
     4981    16350    2            2 SEGID# UBIN (18) UNAL ;
     4982    16351    2      DCL SCTWRK$ PTR ;
     4983    16352    2      DCL SCTWDS_BUILT BIT (1) CALIGNED ;
     4984    16353        %EJECT ;
PL6.E3A0      #001=TOP$POLTS File=TOP$POLTS.:E05TSI                              WED 07/30/97 06:30 Page:610
     4985    16354        /* Code */
     4986    16355
     4987    16356    2      SCTWRK$ = PINCRW (IS$, MME_W2.ADDR#) ;

  16356  7 011522   200036 470500                    LDP0    @P_MMEWD2,,AUTO
         7 011523   000000 220100                    LDX0    0,,PR0
         7 011524   000000 636010                    EAQ     0,X0
         7 011525   000000 036000 6                  ADLQ    FPTN_
         7 011526   200046 756100                    STQ     SCTWRK$,,AUTO

     4988    16357    2      SCTWRK$ -> SCTWRK = '0'B ;

  16357  7 011527   200046 471500                    LDP1    SCTWRK$,,AUTO
         7 011530   000100 100400                    MLR     fill='000'O
         7 011531   000002 000001 xsym               ADSC9   B_VECTNIL+2              cn=0,n=1
         7 011532   100000 000050                    ADSC9   0,,PR1                   cn=0,n=40

     4989    16358        /* SET THE IO CONTROLLER TYPE IOM, IOP, OR IMX  */
     4990    16359    3      DO CASE (TOT$ECP.BOOT_CPU_TYPE) ;

  16359  7 011533   000015 236000 xsym               LDQ     TOT$ECP+13
         7 011534   000011 772000                    QRL     9
         7 011535   000777 376007                    ANQ     511,DL
         7 011536   000004 136007                    SBLQ    4,DL
         7 011537   000003 116007                    CMPQ    3,DL
         7 011540   011542 602006 7                  TNC     s:16359+7,QL
         7 011541   011557 710000 7                  TRA     s:16365
         7 011542   011545 710000 7                  TRA     s:16361
         7 011543   011545 710000 7                  TRA     s:16361
         7 011544   011552 710000 7                  TRA     s:16363

     4991    16360    3         CASE (%DPS90#,%DPS90XA#) ;

     4992    16361    3            SCTWRK$ -> SCTWRK.IOC_TYPE# = %IOP#;

  16361  7 011545   100002 236100                    LDQ     2,,PR1
         7 011546   000073 376000 8                  ANQ     59
PL6.E3A0      #001=TOP$POLTS File=TOP$POLTS.:E05TSI                              WED 07/30/97 06:30 Page:611
         7 011547   140000 276007                    ORQ     49152,DL
         7 011550   100002 756100                    STQ     2,,PR1
         7 011551   011561 710000 7                  TRA     s:16367

     4993    16362    3         CASE (%DPS8000#) ;

     4994    16363    3            SCTWRK$ -> SCTWRK.IOC_TYPE# = %IMX#;

  16363  7 011552   100002 236100                    LDQ     2,,PR1
         7 011553   000073 376000 8                  ANQ     59
         7 011554   200000 276007                    ORQ     65536,DL
         7 011555   100002 756100                    STQ     2,,PR1
         7 011556   011561 710000 7                  TRA     s:16367

     4995    16364    3         CASE (ELSE) ;

     4996    16365    3            SCTWRK$ -> SCTWRK.IOC_TYPE# = %IOM#;

  16365  7 011557   000073 236000 8                  LDQ     59
         7 011560   100002 356100                    ANSQ    2,,PR1

     4997    16366    3      END /* CASE */ ;

     4998    16367    2      DV_SCT$ = ADDR (TOP$SCT.DV(TCX)) ;

  16367  7 011561   200035 473500                    LDP3    @TCX,,AUTO
         7 011562   300000 235100                    LDA     0,,PR3
         7 011563   000003 735000                    ALS     3
         7 011564   000004 634405 xsym               EPPR4   TOP$SCT+4,AL
         7 011565   200044 454500                    STP4    DV_SCT$,,AUTO

     4999    16368    2      CN_SCT$ = ADDR (TOP$SCT.CN(TCX)) ;

  16368  7 011566   000000 635405 xsym               EPPR5   TOP$SCT,AL
         7 011567   200045 455500                    STP5    CN_SCT$,,AUTO

     5000    16369    2      IF TOP$TCP.TEST_TYPE(TCX) = 'ITR'
PL6.E3A0      #001=TOP$POLTS File=TOP$POLTS.:E05TSI                              WED 07/30/97 06:30 Page:612

  16369  7 011570   300000 236100                    LDQ     0,,PR3
         7 011571   000122 402007                    MPY     82,DL
         7 011572   000001 736000                    QLS     1
         7 011573   000003 476400 xsym               LDP6    TOT$DMC+3
         7 011574   600002 236106                    LDQ     2,QL,PR6
         7 011575   000117 676000 6                  ERQ     CRLF_+9
         7 011576   000010 376000 8                  ANQ     8
         7 011577   011603 601000 7                  TNZ     s:16371

     5001    16370    2      THEN SCTWRK$ -> SCTWRK.SCT_ADR# = CSCT_PTR.ADDR# ;

  16370  7 011600   200045 220100                    LDX0    CN_SCT$,,AUTO
         7 011601   100000 740100                    STX0    0,,PR1
         7 011602   011605 710000 7                  TRA     s:16372

     5002    16371    2      ELSE SCTWRK$ -> SCTWRK.SCT_ADR# = SCT_PTR.ADDR# ;

  16371  7 011603   200044 220100                    LDX0    DV_SCT$,,AUTO
         7 011604   100000 740100                    STX0    0,,PR1

     5003    16372    2      SCTWRK$ -> SCTWRK.ALTSCT_ADR# = 0 ;

  16372  7 011605   000000 221003                    LDX1    0,DU
         7 011606   100001 741100                    STX1    1,,PR1

     5004    16373    2      SCTWRK$ -> SCTWRK.XBICC# = 0 ;

  16373  7 011607   000000 236003                    LDQ     0,DU
         7 011610   100000 752103                    STCQ    0,'03'O,PR1

     5005    16374    2      SCTWRK$ -> SCTWRK.GCOS_TYPE_CODE# = TOP$TCP.DEVICE_CODE(TCX) ;

  16374  7 011611   300000 236100                    LDQ     0,,PR3
         7 011612   000122 402007                    MPY     82,DL
         7 011613   000001 736000                    QLS     1
         7 011614   000003 476400 xsym               LDP6    TOT$DMC+3
PL6.E3A0      #001=TOP$POLTS File=TOP$POLTS.:E05TSI                              WED 07/30/97 06:30 Page:613
         7 011615   600007 236106                    LDQ     7,QL,PR6
         7 011616   000006 772000                    QRL     6
         7 011617   100001 752104                    STCQ    1,'04'O,PR1

     5006    16375    2      SCTWRK$ -> SCTWRK.CSCT_ADR# = CSCT_PTR.ADDR# ;

  16375  7 011620   200045 220100                    LDX0    CN_SCT$,,AUTO
         7 011621   100002 740100                    STX0    2,,PR1

     5007    16376    2      SCTWRK$ -> SCTWRK.MPC_SCT_ADR# = CSCT_PTR.ADDR# ;

  16376  7 011622   100003 740100                    STX0    3,,PR1

     5008    16377    2      SCTWRK$ -> SCTWRK.MPC_INDEX# = TCX ;

  16377  7 011623   300000 722100                    LXL2    0,,PR3
         7 011624   100003 442100                    SXL2    3,,PR1

     5009    16378    2      IF TOP$TCP.FIRMWARE.TYPE(TCX) = 'M610' OR

  16378  7 011625   300000 236100                    LDQ     0,,PR3
         7 011626   000122 402007                    MPY     82,DL
         7 011627   000001 736000                    QLS     1
         7 011630   000003 476400 xsym               LDP6    TOT$DMC+3
         7 011631   600013 236106                    LDQ     11,QL,PR6
         7 011632   000232 116000 6                  CMPQ    CRLF_+84
         7 011633   011642 600000 7                  TZE     s:16380
         7 011634   300000 236100                    LDQ     0,,PR3
         7 011635   000122 402007                    MPY     82,DL
         7 011636   000001 736000                    QLS     1
         7 011637   600013 236106                    LDQ     11,QL,PR6
         7 011640   000226 116000 6                  CMPQ    CRLF_+80
         7 011641   011644 601000 7                  TNZ     s:16382

     5010    16379    2              TOP$TCP.FIRMWARE.TYPE(TCX) = 'TPUR'
     5011    16380    2      THEN SCTWRK$ -> SCTWRK.CRCST_1.BIT8# = '1'B ;

PL6.E3A0      #001=TOP$POLTS File=TOP$POLTS.:E05TSI                              WED 07/30/97 06:30 Page:614
  16380  7 011642   001000 236003                    LDQ     512,DU
         7 011643   100005 256100                    ORSQ    5,,PR1

     5012    16381    2      ELSE ;
     5013    16382    2      IF (TOP$TCP.FIRMWARE.TYPE(TCX) = 'D500') OR

  16382  7 011644   300000 236100                    LDQ     0,,PR3
         7 011645   000122 402007                    MPY     82,DL
         7 011646   000001 736000                    QLS     1
         7 011647   600013 236106                    LDQ     11,QL,PR6
         7 011650   000237 116000 6                  CMPQ    CRLF_+89
         7 011651   011660 600000 7                  TZE     s:16384
         7 011652   300000 236100                    LDQ     0,,PR3
         7 011653   000122 402007                    MPY     82,DL
         7 011654   000001 736000                    QLS     1
         7 011655   600013 236106                    LDQ     11,QL,PR6
         7 011656   000231 116000 6                  CMPQ    CRLF_+83
         7 011657   011662 601000 7                  TNZ     s:16386

     5014    16383    2              (TOP$TCP.FIRMWARE.TYPE(TCX) = 'MSP8')
     5015    16384    2      THEN SCTWRK$ -> SCTWRK.CRCST_1.BIT7# = '1'B ;

  16384  7 011660   002000 236003                    LDQ     1024,DU
         7 011661   100005 256100                    ORSQ    5,,PR1

     5016    16385    2      ELSE ;
     5017    16386    2      IF TOP$TCP.TEST_TYPE(TCX) = 'ITR'

  16386  7 011662   300000 236100                    LDQ     0,,PR3
         7 011663   000122 402007                    MPY     82,DL
         7 011664   000001 736000                    QLS     1
         7 011665   600002 236106                    LDQ     2,QL,PR6
         7 011666   000117 676000 6                  ERQ     CRLF_+9
         7 011667   000010 376000 8                  ANQ     8
         7 011670   011673 601000 7                  TNZ     s:16390

     5018    16387    2      THEN SCTWRK$ -> SCTWRK.CRCST_3.BIT9# = '1'B ;
PL6.E3A0      #001=TOP$POLTS File=TOP$POLTS.:E05TSI                              WED 07/30/97 06:30 Page:615

  16387  7 011671   000400 236003                    LDQ     256,DU
         7 011672   100007 256100                    ORSQ    7,,PR1

     5019    16388    2      ELSE /* MPC will not be allocated */ ;
     5020    16389           %EJECT ;
PL6.E3A0      #001=TOP$POLTS File=TOP$POLTS.:E05TSI                              WED 07/30/97 06:30 Page:616
     5021    16390    2      IF TOP$TCP.TEST_TYPE(TCX) = 'MDR' OR

  16390  7 011673   300000 236100                    LDQ     0,,PR3
         7 011674   000122 402007                    MPY     82,DL
         7 011675   000001 736000                    QLS     1
         7 011676   600002 236106                    LDQ     2,QL,PR6
         7 011677   000113 676000 6                  ERQ     CRLF_+5
         7 011700   000010 376000 8                  ANQ     8
         7 011701   011711 600000 7                  TZE     s:16393
         7 011702   300000 236100                    LDQ     0,,PR3
         7 011703   000122 402007                    MPY     82,DL
         7 011704   000001 736000                    QLS     1
         7 011705   600002 236106                    LDQ     2,QL,PR6
         7 011706   000117 676000 6                  ERQ     CRLF_+9
         7 011707   000010 376000 8                  ANQ     8
         7 011710   012000 601000 7                  TNZ     s:16416

     5022    16391    2              TOP$TCP.TEST_TYPE(TCX) = 'ITR'
     5023    16392    3      THEN DO ;

     5024    16393    3              Q_REG = '0'B ;

  16393  7 011711   200042 477500                    LDP7    @Q_REG,,AUTO
         7 011712   700000 450100                    STZ     0,,PR7

     5025    16394    3              IF TOP$TCP.FIRMWARE.TYPE(TCX) = 'TPUR'

  16394  7 011713   300000 236100                    LDQ     0,,PR3
         7 011714   000122 402007                    MPY     82,DL
         7 011715   000001 736000                    QLS     1
         7 011716   000003 476400 xsym               LDP6    TOT$DMC+3
         7 011717   600013 236106                    LDQ     11,QL,PR6
         7 011720   000226 116000 6                  CMPQ    CRLF_+80
         7 011721   012000 601000 7                  TNZ     s:16416

     5026    16395    4              THEN DO ;

PL6.E3A0      #001=TOP$POLTS File=TOP$POLTS.:E05TSI                              WED 07/30/97 06:30 Page:617
     5027    16396    4                      Q_REG_.TAPE_URC_FLAG# = '1'B ;

  16396  7 011722   400000 236003                    LDQ     -131072,DU
         7 011723   700000 256100                    ORSQ    0,,PR7

     5028    16397    4                      IF TOP$TCP.FICCDD.FORMAT#(TCX)

  16397  7 011724   300000 236100                    LDQ     0,,PR3
         7 011725   000122 402007                    MPY     82,DL
         7 011726   000001 736000                    QLS     1
         7 011727   000003 476400 xsym               LDP6    TOT$DMC+3
         7 011730   600001 236106                    LDQ     1,QL,PR6
         7 011731   040000 316003                    CANQ    16384,DU
         7 011732   011760 600000 7                  TZE     s:16406

     5029    16398    5                      THEN DO ;

     5030    16399    5                              Q_REG_.TAPE_ICC.FORMAT# = '1'B ;

  16399  7 011733   004000 236003                    LDQ     2048,DU
         7 011734   700000 256100                    ORSQ    0,,PR7

     5031    16400    5                              Q_REG_.TAPE_ICC.NEW_FORMAT.IOM# =

  16400  7 011735   300000 236100                    LDQ     0,,PR3
         7 011736   000122 402007                    MPY     82,DL
         7 011737   000001 736000                    QLS     1
         7 011740   000003 476400 xsym               LDP6    TOT$DMC+3
         7 011741   600001 236106                    LDQ     1,QL,PR6
         7 011742   000003 772000                    QRL     3
         7 011743   700000 676100                    ERQ     0,,PR7
         7 011744   003400 376003                    ANQ     1792,DU
         7 011745   700000 656100                    ERSQ    0,,PR7

     5032    16401    5                                      TOP$TCP.FICCDD.IOM#(TCX) ;
     5033    16402    5                              Q_REG_.TAPE_ICC.NEW_FORMAT.CHAN# =

PL6.E3A0      #001=TOP$POLTS File=TOP$POLTS.:E05TSI                              WED 07/30/97 06:30 Page:618
  16402  7 011746   300000 236100                    LDQ     0,,PR3
         7 011747   000122 402007                    MPY     82,DL
         7 011750   000001 736000                    QLS     1
         7 011751   000003 476400 xsym               LDP6    TOT$DMC+3
         7 011752   600001 236106                    LDQ     1,QL,PR6
         7 011753   000003 772000                    QRL     3
         7 011754   700000 676100                    ERQ     0,,PR7
         7 011755   000377 376003                    ANQ     255,DU
         7 011756   700000 656100                    ERSQ    0,,PR7

     5034    16403    5                                      TOP$TCP.FICCDD.CHAN#(TCX) ;
     5035    16404    5                           END ;

  16404  7 011757   012000 710000 7                  TRA     s:16416

     5036    16405    5                      ELSE DO ;

     5037    16406    5                              Q_REG_.TAPE_ICC.OLD_FORMAT.IOM# =

  16406  7 011760   300000 236100                    LDQ     0,,PR3
         7 011761   000122 402007                    MPY     82,DL
         7 011762   000001 736000                    QLS     1
         7 011763   600001 236106                    LDQ     1,QL,PR6
         7 011764   034000 376003                    ANQ     14336,DU
         7 011765   000005 772000                    QRL     5
         7 011766   700000 676100                    ERQ     0,,PR7
         7 011767   003700 376003                    ANQ     1984,DU
         7 011770   700000 656100                    ERSQ    0,,PR7

     5038    16407    5                                      TOP$TCP.FICCDD.IOM#(TCX) ;
     5039    16408    5                              Q_REG_.TAPE_ICC.OLD_FORMAT.CHAN# =

  16408  7 011771   300000 236100                    LDQ     0,,PR3
         7 011772   000122 402007                    MPY     82,DL
         7 011773   000001 736000                    QLS     1
         7 011774   000003 476400 xsym               LDP6    TOT$DMC+3
         7 011775   600001 236106                    LDQ     1,QL,PR6
PL6.E3A0      #001=TOP$POLTS File=TOP$POLTS.:E05TSI                              WED 07/30/97 06:30 Page:619
         7 011776   000003 772000                    QRL     3
         7 011777   700000 752110                    STCQ    0,'10'O,PR7

     5040    16409    5                                      TOP$TCP.FICCDD.CHAN#(TCX) ;
     5041    16410    5                           END ;

     5042    16411    4                   END /* THEN */ ;

     5043    16412    3              ELSE /* not a tape unit record controller */ ;
     5044    16413    3           END /* THEN */ ;

     5045    16414    2      ELSE /* not an MDR or ITR */ ;
     5046    16415           %EJECT ;
PL6.E3A0      #001=TOP$POLTS File=TOP$POLTS.:E05TSI                              WED 07/30/97 06:30 Page:620
     5047    16416    2      IF SCTWDS_BUILT

  16416  7 012000   200043 476500                    LDP6    @SCTWDS_BUILT,,AUTO
         7 012001   000000 066500                    CMPB    filb='0'B
         7 012002   600000 000001                    BDSC    0,,PR6                   by=0,bit=0,n=1
         7 012003   000002 000022 xsym               BDSC    B_VECTNIL+2              by=0,bit=0,n=18
         7 012004   012014 600000 7                  TZE     s:16423

     5048    16417    3      THEN DO ;

     5049    16418    3              SCTWRK$ -> SCTWRK.CRCST_0 = CN_SCT$ -> CONTROLLER_SCT.W0# ;

  16418  7 012005   500000 236100                    LDQ     0,,PR5
         7 012006   100004 756100                    STQ     4,,PR1

     5050    16419    3              SCTWRK$ -> SCTWRK.SCT_0 = DV_SCT$ -> DEVICE_SCT.W0# ;

  16419  7 012007   400000 236100                    LDQ     0,,PR4
         7 012010   100010 756100                    STQ     8,,PR1

     5051    16420    3              SCTWRK$ -> SCTWRK.SCT_1 = DV_SCT$ -> DEVICE_SCT.W1# ;

  16420  7 012011   400001 236100                    LDQ     1,,PR4
         7 012012   100011 756100                    STQ     9,,PR1

     5052    16421    3           END ;

  16421  7 012013   012104 710000 7                  TRA     s:16437

     5053    16422    3      ELSE DO ;

     5054    16423    3              SCTWRK$ -> SCTWRK.SCT_0.BIT17# = TOP$TCP.SCT.BIT17(TCX) ;

  16423  7 012014   300000 236100                    LDQ     0,,PR3
         7 012015   000122 402007                    MPY     82,DL
         7 012016   000001 736000                    QLS     1
         7 012017   000003 477400 xsym               LDP7    TOT$DMC+3
PL6.E3A0      #001=TOP$POLTS File=TOP$POLTS.:E05TSI                              WED 07/30/97 06:30 Page:621
         7 012020   700012 236106                    LDQ     10,QL,PR7
         7 012021   000010 772000                    QRL     8
         7 012022   100010 676100                    ERQ     8,,PR1
         7 012023   000001 376003                    ANQ     1,DU
         7 012024   100010 656100                    ERSQ    8,,PR1

     5055    16424    3              SCTWRK$ -> SCTWRK.SCT_0.SPEED# = TOP$TCP.SCT.BIT13(TCX) ;

  16424  7 012025   300000 236100                    LDQ     0,,PR3
         7 012026   000122 402007                    MPY     82,DL
         7 012027   000001 736000                    QLS     1
         7 012030   700012 236106                    LDQ     10,QL,PR7
         7 012031   000003 772000                    QRL     3
         7 012032   100010 676100                    ERQ     8,,PR1
         7 012033   000020 376003                    ANQ     16,DU
         7 012034   100010 656100                    ERSQ    8,,PR1

     5056    16425    3              SCTWRK$ -> SCTWRK.SCT_0.BIT12# = TOP$TCP.SCT.BIT12(TCX) ;

  16425  7 012035   300000 236100                    LDQ     0,,PR3
         7 012036   000122 402007                    MPY     82,DL
         7 012037   000001 736000                    QLS     1
         7 012040   700012 236106                    LDQ     10,QL,PR7
         7 012041   000001 772000                    QRL     1
         7 012042   100010 676100                    ERQ     8,,PR1
         7 012043   000040 376003                    ANQ     32,DU
         7 012044   100010 656100                    ERSQ    8,,PR1

     5057    16426    3              IF  ( TOP$TCP.FIRMWARE.TYPE(TCX) = 'NONE' )  OR

  16426  7 012045   300000 236100                    LDQ     0,,PR3
         7 012046   000122 402007                    MPY     82,DL
         7 012047   000001 736000                    QLS     1
         7 012050   700013 236106                    LDQ     11,QL,PR7
         7 012051   000124 116000 6                  CMPQ    CRLF_+14
         7 012052   012061 600000 7                  TZE     s:16428
         7 012053   300000 236100                    LDQ     0,,PR3
PL6.E3A0      #001=TOP$POLTS File=TOP$POLTS.:E05TSI                              WED 07/30/97 06:30 Page:622
         7 012054   000122 402007                    MPY     82,DL
         7 012055   000001 736000                    QLS     1
         7 012056   700013 236106                    LDQ     11,QL,PR7
         7 012057   000236 116000 6                  CMPQ    CRLF_+88
         7 012060   012100 601000 7                  TNZ     s:16434

     5058    16427    3                      ( TOP$TCP.FIRMWARE.TYPE(TCX) = 'IPR5' )
     5059    16428    3              THEN IF TOP$TCP.DEVICE_CODE(TCX) = %DPR42

  16428  7 012061   300000 236100                    LDQ     0,,PR3
         7 012062   000122 402007                    MPY     82,DL
         7 012063   000001 736000                    QLS     1
         7 012064   700007 222106                    LDX2    7,QL,PR7
         7 012065   000024 102003                    CMPX2   20,DU
         7 012066   012102 601000 7                  TNZ     s:16435

     5060    16429    4                 THEN DO ;

     5061    16430    4                        SCTWRK$ -> SCTWRK.SCT_0.DEV_TYPE# = TOP$TCP.DEVICE_CODE(TCX) ;

  16430  7 012067   300000 236100                    LDQ     0,,PR3
         7 012070   000122 402007                    MPY     82,DL
         7 012071   000001 736000                    QLS     1
         7 012072   700007 236106                    LDQ     7,QL,PR7
         7 012073   000014 736000                    QLS     12
         7 012074   100010 752140                    STCQ    8,'40'O,PR1

     5062    16431    4                         SCTWRK$ -> SCTWRK.SCT_0.BIT17# = '1'B ;

  16431  7 012075   000001 236003                    LDQ     1,DU
         7 012076   100010 256100                    ORSQ    8,,PR1

     5063    16432    4                      END ;

  16432  7 012077   012102 710000 7                  TRA     s:16435

     5064    16433    3                 ELSE ;
PL6.E3A0      #001=TOP$POLTS File=TOP$POLTS.:E05TSI                              WED 07/30/97 06:30 Page:623
     5065    16434    3              ELSE SCTWRK$ -> SCTWRK.CRCST_0.VOLATILE_FW# = '1'B ;

  16434  7 012100   200000 236003                    LDQ     65536,DU
         7 012101   100004 256100                    ORSQ    4,,PR1

     5066    16435    3              SCTWRK$ -> SCTWRK.CRCST_0.MPC# = '1'B ;

  16435  7 012102   100000 236003                    LDQ     32768,DU
         7 012103   100004 256100                    ORSQ    4,,PR1

     5067    16436    3           END ;

     5068    16437    3      DO SELECT (TOP$TCP.MPC_MODEL (TCX));

  16437  7 012104   300000 236100                    LDQ     0,,PR3
         7 012105   000122 402007                    MPY     82,DL
         7 012106   000000 622006                    EAX2    0,QL
         7 012107   000003 736000                    QLS     3
         7 012110   000003 477400 xsym               LDP7    TOT$DMC+3
         7 012111   040000 106506                    CMPC    fill='040'O
         7 012112   700002 600010                    ADSC9   2,Q,PR7                  cn=3,n=8
         7 012113   000257 000007 6                  ADSC9   CRLF_+105                cn=0,n=7
         7 012114   012271 602000 7                  TNC     s:16437+117
         7 012115   000000 635012                    EAA     0,X2
         7 012116   000017 771000                    ARL     15
         7 012117   040000 106505                    CMPC    fill='040'O
         7 012120   700002 600010                    ADSC9   2,A,PR7                  cn=3,n=8
         7 012121   000257 000007 6                  ADSC9   CRLF_+105                cn=0,n=7
         7 012122   012502 600000 7                  TZE     s:16446
         7 012123   000000 635012                    EAA     0,X2
         7 012124   000017 771000                    ARL     15
         7 012125   040000 106505                    CMPC    fill='040'O
         7 012126   700002 600010                    ADSC9   2,A,PR7                  cn=3,n=8
         7 012127   000261 000007 6                  ADSC9   CRLF_+107                cn=0,n=7
         7 012130   012214 602000 7                  TNC     s:16437+72
         7 012131   000000 635012                    EAA     0,X2
         7 012132   000017 771000                    ARL     15
PL6.E3A0      #001=TOP$POLTS File=TOP$POLTS.:E05TSI                              WED 07/30/97 06:30 Page:624
         7 012133   040000 106505                    CMPC    fill='040'O
         7 012134   700002 600010                    ADSC9   2,A,PR7                  cn=3,n=8
         7 012135   000261 000007 6                  ADSC9   CRLF_+107                cn=0,n=7
         7 012136   012470 600000 7                  TZE     s:16439
         7 012137   000000 635012                    EAA     0,X2
         7 012140   000017 771000                    ARL     15
         7 012141   040000 106505                    CMPC    fill='040'O
         7 012142   700002 600010                    ADSC9   2,A,PR7                  cn=3,n=8
         7 012143   000263 000007 6                  ADSC9   CRLF_+109                cn=0,n=7
         7 012144   012205 602000 7                  TNC     s:16437+65
         7 012145   000000 635012                    EAA     0,X2
         7 012146   000017 771000                    ARL     15
         7 012147   040000 106505                    CMPC    fill='040'O
         7 012150   700002 600010                    ADSC9   2,A,PR7                  cn=3,n=8
         7 012151   000263 000007 6                  ADSC9   CRLF_+109                cn=0,n=7
         7 012152   012507 600000 7                  TZE     s:16448
         7 012153   000000 635012                    EAA     0,X2
         7 012154   000017 771000                    ARL     15
         7 012155   040000 106505                    CMPC    fill='040'O
         7 012156   700002 600010                    ADSC9   2,A,PR7                  cn=3,n=8
         7 012157   000265 000007 6                  ADSC9   CRLF_+111                cn=0,n=7
         7 012160   012176 602000 7                  TNC     s:16437+58
         7 012161   000000 635012                    EAA     0,X2
         7 012162   000017 771000                    ARL     15
         7 012163   040000 106505                    CMPC    fill='040'O
         7 012164   700002 600010                    ADSC9   2,A,PR7                  cn=3,n=8
         7 012165   000265 000007 6                  ADSC9   CRLF_+111                cn=0,n=7
         7 012166   012507 600000 7                  TZE     s:16448
         7 012167   000000 635012                    EAA     0,X2
         7 012170   000017 771000                    ARL     15
         7 012171   040000 106505                    CMPC    fill='040'O
         7 012172   700002 600010                    ADSC9   2,A,PR7                  cn=3,n=8
         7 012173   000267 000007 6                  ADSC9   CRLF_+113                cn=0,n=7
         7 012174   012514 601000 7                  TNZ     s:16450
         7 012175   012470 710000 7                  TRA     s:16439
         7 012176   000000 635012                    EAA     0,X2
         7 012177   000017 771000                    ARL     15
PL6.E3A0      #001=TOP$POLTS File=TOP$POLTS.:E05TSI                              WED 07/30/97 06:30 Page:625
         7 012200   040000 106505                    CMPC    fill='040'O
         7 012201   700002 600010                    ADSC9   2,A,PR7                  cn=3,n=8
         7 012202   000271 000007 6                  ADSC9   CRLF_+115                cn=0,n=7
         7 012203   012514 601000 7                  TNZ     s:16450
         7 012204   012507 710000 7                  TRA     s:16448
         7 012205   000000 635012                    EAA     0,X2
         7 012206   000017 771000                    ARL     15
         7 012207   040000 106505                    CMPC    fill='040'O
         7 012210   700002 600010                    ADSC9   2,A,PR7                  cn=3,n=8
         7 012211   000273 000007 6                  ADSC9   CRLF_+117                cn=0,n=7
         7 012212   012514 601000 7                  TNZ     s:16450
         7 012213   012470 710000 7                  TRA     s:16439
         7 012214   000000 635012                    EAA     0,X2
         7 012215   000017 771000                    ARL     15
         7 012216   040000 106505                    CMPC    fill='040'O
         7 012217   700002 600010                    ADSC9   2,A,PR7                  cn=3,n=8
         7 012220   000275 000007 6                  ADSC9   CRLF_+119                cn=0,n=7
         7 012221   012262 602000 7                  TNC     s:16437+110
         7 012222   000000 635012                    EAA     0,X2
         7 012223   000017 771000                    ARL     15
         7 012224   040000 106505                    CMPC    fill='040'O
         7 012225   700002 600010                    ADSC9   2,A,PR7                  cn=3,n=8
         7 012226   000275 000007 6                  ADSC9   CRLF_+119                cn=0,n=7
         7 012227   012502 600000 7                  TZE     s:16446
         7 012230   000000 635012                    EAA     0,X2
         7 012231   000017 771000                    ARL     15
         7 012232   040000 106505                    CMPC    fill='040'O
         7 012233   700002 600010                    ADSC9   2,A,PR7                  cn=3,n=8
         7 012234   000277 000007 6                  ADSC9   CRLF_+121                cn=0,n=7
         7 012235   012253 602000 7                  TNC     s:16437+103
         7 012236   000000 635012                    EAA     0,X2
         7 012237   000017 771000                    ARL     15
         7 012240   040000 106505                    CMPC    fill='040'O
         7 012241   700002 600010                    ADSC9   2,A,PR7                  cn=3,n=8
         7 012242   000277 000007 6                  ADSC9   CRLF_+121                cn=0,n=7
         7 012243   012502 600000 7                  TZE     s:16446
         7 012244   000000 635012                    EAA     0,X2
PL6.E3A0      #001=TOP$POLTS File=TOP$POLTS.:E05TSI                              WED 07/30/97 06:30 Page:626
         7 012245   000017 771000                    ARL     15
         7 012246   040000 106505                    CMPC    fill='040'O
         7 012247   700002 600010                    ADSC9   2,A,PR7                  cn=3,n=8
         7 012250   000301 000007 6                  ADSC9   CRLF_+123                cn=0,n=7
         7 012251   012514 601000 7                  TNZ     s:16450
         7 012252   012470 710000 7                  TRA     s:16439
         7 012253   000000 635012                    EAA     0,X2
         7 012254   000017 771000                    ARL     15
         7 012255   040000 106505                    CMPC    fill='040'O
         7 012256   700002 600010                    ADSC9   2,A,PR7                  cn=3,n=8
         7 012257   000303 000007 6                  ADSC9   CRLF_+125                cn=0,n=7
         7 012260   012514 601000 7                  TNZ     s:16450
         7 012261   012502 710000 7                  TRA     s:16446
         7 012262   000000 635012                    EAA     0,X2
         7 012263   000017 771000                    ARL     15
         7 012264   040000 106505                    CMPC    fill='040'O
         7 012265   700002 600010                    ADSC9   2,A,PR7                  cn=3,n=8
         7 012266   000305 000007 6                  ADSC9   CRLF_+127                cn=0,n=7
         7 012267   012514 601000 7                  TNZ     s:16450
         7 012270   012502 710000 7                  TRA     s:16446
         7 012271   000000 635012                    EAA     0,X2
         7 012272   000017 771000                    ARL     15
         7 012273   040000 106505                    CMPC    fill='040'O
         7 012274   700002 600010                    ADSC9   2,A,PR7                  cn=3,n=8
         7 012275   000307 000007 6                  ADSC9   CRLF_+129                cn=0,n=7
         7 012276   012377 602000 7                  TNC     s:16437+187
         7 012277   000000 635012                    EAA     0,X2
         7 012300   000017 771000                    ARL     15
         7 012301   040000 106505                    CMPC    fill='040'O
         7 012302   700002 600010                    ADSC9   2,A,PR7                  cn=3,n=8
         7 012303   000307 000007 6                  ADSC9   CRLF_+129                cn=0,n=7
         7 012304   012502 600000 7                  TZE     s:16446
         7 012305   000000 635012                    EAA     0,X2
         7 012306   000017 771000                    ARL     15
         7 012307   040000 106505                    CMPC    fill='040'O
         7 012310   700002 600010                    ADSC9   2,A,PR7                  cn=3,n=8
         7 012311   000311 000007 6                  ADSC9   CRLF_+131                cn=0,n=7
PL6.E3A0      #001=TOP$POLTS File=TOP$POLTS.:E05TSI                              WED 07/30/97 06:30 Page:627
         7 012312   012345 602000 7                  TNC     s:16437+161
         7 012313   000000 635012                    EAA     0,X2
         7 012314   000017 771000                    ARL     15
         7 012315   040000 106505                    CMPC    fill='040'O
         7 012316   700002 600010                    ADSC9   2,A,PR7                  cn=3,n=8
         7 012317   000311 000007 6                  ADSC9   CRLF_+131                cn=0,n=7
         7 012320   012502 600000 7                  TZE     s:16446
         7 012321   000000 635012                    EAA     0,X2
         7 012322   000017 771000                    ARL     15
         7 012323   040000 106505                    CMPC    fill='040'O
         7 012324   700002 600010                    ADSC9   2,A,PR7                  cn=3,n=8
         7 012325   000313 000007 6                  ADSC9   CRLF_+133                cn=0,n=7
         7 012326   012336 602000 7                  TNC     s:16437+154
         7 012327   000000 635012                    EAA     0,X2
         7 012330   000017 771000                    ARL     15
         7 012331   040000 106505                    CMPC    fill='040'O
         7 012332   700002 600010                    ADSC9   2,A,PR7                  cn=3,n=8
         7 012333   000313 000007 6                  ADSC9   CRLF_+133                cn=0,n=7
         7 012334   012502 600000 7                  TZE     s:16446
         7 012335   012514 710000 7                  TRA     s:16450
         7 012336   000000 635012                    EAA     0,X2
         7 012337   000017 771000                    ARL     15
         7 012340   040000 106505                    CMPC    fill='040'O
         7 012341   700002 600010                    ADSC9   2,A,PR7                  cn=3,n=8
         7 012342   000315 000007 6                  ADSC9   CRLF_+135                cn=0,n=7
         7 012343   012514 601000 7                  TNZ     s:16450
         7 012344   012502 710000 7                  TRA     s:16446
         7 012345   000000 635012                    EAA     0,X2
         7 012346   000017 771000                    ARL     15
         7 012347   040000 106505                    CMPC    fill='040'O
         7 012350   700002 600010                    ADSC9   2,A,PR7                  cn=3,n=8
         7 012351   000317 000007 6                  ADSC9   CRLF_+137                cn=0,n=7
         7 012352   012370 602000 7                  TNC     s:16437+180
         7 012353   000000 635012                    EAA     0,X2
         7 012354   000017 771000                    ARL     15
         7 012355   040000 106505                    CMPC    fill='040'O
         7 012356   700002 600010                    ADSC9   2,A,PR7                  cn=3,n=8
PL6.E3A0      #001=TOP$POLTS File=TOP$POLTS.:E05TSI                              WED 07/30/97 06:30 Page:628
         7 012357   000317 000007 6                  ADSC9   CRLF_+137                cn=0,n=7
         7 012360   012475 600000 7                  TZE     s:16441
         7 012361   000000 635012                    EAA     0,X2
         7 012362   000017 771000                    ARL     15
         7 012363   040000 106505                    CMPC    fill='040'O
         7 012364   700002 600010                    ADSC9   2,A,PR7                  cn=3,n=8
         7 012365   000321 000007 6                  ADSC9   CRLF_+139                cn=0,n=7
         7 012366   012514 601000 7                  TNZ     s:16450
         7 012367   012475 710000 7                  TRA     s:16441
         7 012370   000000 635012                    EAA     0,X2
         7 012371   000017 771000                    ARL     15
         7 012372   040000 106505                    CMPC    fill='040'O
         7 012373   700002 600010                    ADSC9   2,A,PR7                  cn=3,n=8
         7 012374   000323 000007 6                  ADSC9   CRLF_+141                cn=0,n=7
         7 012375   012514 601000 7                  TNZ     s:16450
         7 012376   012502 710000 7                  TRA     s:16446
         7 012377   000000 635012                    EAA     0,X2
         7 012400   000017 771000                    ARL     15
         7 012401   040000 106505                    CMPC    fill='040'O
         7 012402   700002 600010                    ADSC9   2,A,PR7                  cn=3,n=8
         7 012403   000325 000007 6                  ADSC9   CRLF_+143                cn=0,n=7
         7 012404   012445 602000 7                  TNC     s:16437+225
         7 012405   000000 635012                    EAA     0,X2
         7 012406   000017 771000                    ARL     15
         7 012407   040000 106505                    CMPC    fill='040'O
         7 012410   700002 600010                    ADSC9   2,A,PR7                  cn=3,n=8
         7 012411   000325 000007 6                  ADSC9   CRLF_+143                cn=0,n=7
         7 012412   012502 600000 7                  TZE     s:16446
         7 012413   000000 635012                    EAA     0,X2
         7 012414   000017 771000                    ARL     15
         7 012415   040000 106505                    CMPC    fill='040'O
         7 012416   700002 600010                    ADSC9   2,A,PR7                  cn=3,n=8
         7 012417   000327 000007 6                  ADSC9   CRLF_+145                cn=0,n=7
         7 012420   012436 602000 7                  TNC     s:16437+218
         7 012421   000000 635012                    EAA     0,X2
         7 012422   000017 771000                    ARL     15
         7 012423   040000 106505                    CMPC    fill='040'O
PL6.E3A0      #001=TOP$POLTS File=TOP$POLTS.:E05TSI                              WED 07/30/97 06:30 Page:629
         7 012424   700002 600010                    ADSC9   2,A,PR7                  cn=3,n=8
         7 012425   000327 000007 6                  ADSC9   CRLF_+145                cn=0,n=7
         7 012426   012502 600000 7                  TZE     s:16446
         7 012427   000000 635012                    EAA     0,X2
         7 012430   000017 771000                    ARL     15
         7 012431   040000 106505                    CMPC    fill='040'O
         7 012432   700002 600010                    ADSC9   2,A,PR7                  cn=3,n=8
         7 012433   000331 000007 6                  ADSC9   CRLF_+147                cn=0,n=7
         7 012434   012514 601000 7                  TNZ     s:16450
         7 012435   012502 710000 7                  TRA     s:16446
         7 012436   000000 635012                    EAA     0,X2
         7 012437   000017 771000                    ARL     15
         7 012440   040000 106505                    CMPC    fill='040'O
         7 012441   700002 600010                    ADSC9   2,A,PR7                  cn=3,n=8
         7 012442   000333 000007 6                  ADSC9   CRLF_+149                cn=0,n=7
         7 012443   012514 601000 7                  TNZ     s:16450
         7 012444   012502 710000 7                  TRA     s:16446
         7 012445   000000 635012                    EAA     0,X2
         7 012446   000017 771000                    ARL     15
         7 012447   040000 106505                    CMPC    fill='040'O
         7 012450   700002 600010                    ADSC9   2,A,PR7                  cn=3,n=8
         7 012451   000335 000007 6                  ADSC9   CRLF_+151                cn=0,n=7
         7 012452   012514 602000 7                  TNC     s:16450
         7 012453   000000 635012                    EAA     0,X2
         7 012454   000017 771000                    ARL     15
         7 012455   040000 106505                    CMPC    fill='040'O
         7 012456   700002 600010                    ADSC9   2,A,PR7                  cn=3,n=8
         7 012457   000335 000007 6                  ADSC9   CRLF_+151                cn=0,n=7
         7 012460   012502 600000 7                  TZE     s:16446
         7 012461   000000 635012                    EAA     0,X2
         7 012462   000017 771000                    ARL     15
         7 012463   040000 106505                    CMPC    fill='040'O
         7 012464   700002 600010                    ADSC9   2,A,PR7                  cn=3,n=8
         7 012465   000337 000007 6                  ADSC9   CRLF_+153                cn=0,n=7
         7 012466   012514 601000 7                  TNZ     s:16450
         7 012467   012502 710000 7                  TRA     s:16446

PL6.E3A0      #001=TOP$POLTS File=TOP$POLTS.:E05TSI                              WED 07/30/97 06:30 Page:630
     5069    16438    3         SELECT ('URPEURP', 'URP8011', 'URP8012', 'URP8013');

     5070    16439    3         SCTWRK$ -> SCTWRK.CTLR_TYPE# = %EURC# ;

  16439  7 012470   100002 236100                    LDQ     2,,PR1
         7 012471   000100 376000 8                  ANQ     64
         7 012472   004000 276007                    ORQ     2048,DL
         7 012473   100002 756100                    STQ     2,,PR1
         7 012474   012516 710000 7                  TRA     s:16452

     5071    16440    3         SELECT ('MSP8021', 'MSP8022');

     5072    16441    3         SCTWRK$ -> SCTWRK.CTLR_TYPE# = %DAU#;

  16441  7 012475   100002 236100                    LDQ     2,,PR1
         7 012476   000100 376000 8                  ANQ     64
         7 012477   002000 276007                    ORQ     1024,DL
         7 012500   100002 756100                    STQ     2,,PR1
         7 012501   012516 710000 7                  TRA     s:16452

     5073    16442    3         SELECT ('MSP3881', 'MSP3885', 'MTP8215', 'MTP8216', 'MTP8218',

     5074    16443    3                 'MSP3993', 'MSP3994',
     5075    16444    3                 'MSP3882', 'MSP3886', 'MTP8225', 'MTP8226', 'MTP8228',
     5076    16445    3                 'MSP3991', 'MSP3992', 'MSS8080', 'MSS8090' );
     5077    16446    3         SCTWRK$ -> SCTWRK.CTLR_TYPE# = %FIPS#;

  16446  7 012502   100002 236100                    LDQ     2,,PR1
         7 012503   000100 376000 8                  ANQ     64
         7 012504   006000 276007                    ORQ     3072,DL
         7 012505   100002 756100                    STQ     2,,PR1
         7 012506   012516 710000 7                  TRA     s:16452

     5078    16447    3         SELECT ( 'URP8600', 'URP8601', 'URP8602' ) ;

     5079    16448    3         SCTWRK$ -> SCTWRK.CTLR_TYPE# = %IPC# ;

PL6.E3A0      #001=TOP$POLTS File=TOP$POLTS.:E05TSI                              WED 07/30/97 06:30 Page:631
  16448  7 012507   100002 236100                    LDQ     2,,PR1
         7 012510   000100 376000 8                  ANQ     64
         7 012511   010000 276007                    ORQ     4096,DL
         7 012512   100002 756100                    STQ     2,,PR1
         7 012513   012516 710000 7                  TRA     s:16452

     5080    16449    3         SELECT (ELSE);

     5081    16450    3      SCTWRK$ -> SCTWRK.CTLR_TYPE# = %MPC_CTLR#;

  16450  7 012514   000100 236000 8                  LDQ     64
         7 012515   100002 356100                    ANSQ    2,,PR1

     5082    16451    3      END /* DO SELECT */;

     5083    16452    2      RETURN ;

  16452  7 012516   200034 221300                    LDX1  ! REASON+1,,AUTO
         7 012517   000001 702211                    TSX2  ! 1,X1

     5084    16453
     5085    16454    2   END BUILD_SCTWRK ;
     5086    16455        %EJECT ;
PL6.E3A0      #001=TOP$POLTS File=TOP$POLTS.:E05TSI                              WED 07/30/97 06:30 Page:632
     5087    16456        /*I* NAME:         MATCH_ICC
     5088    16457             CALL:         CALL MATCH_ICC(ICC,TCX) ;
     5089    16458             INTERFACE:
     5090    16459             INPUT:        ICC = IOM and channel number
     5091    16460             OUTPUT:       TCX = index into TOP$TCP for test page
     5092    16461             DESCRIPTION:  Searches the ICC field in TOP$TCP for a match
     5093    16462                           with ICC and returns I.
     5094    16463        */
     5095    16464
     5096    16465    1   MATCH_ICC: PROC (ICC,TCX) ;

  16465  7 012520   200022 741300       MATCH_ICC    STX1  ! DUMP_HDR$,,AUTO

     5097    16466
     5098    16467    2      DCL TCX UBIN(36) ;
     5099    16468    2      DCL ICC         UBIN (11) ;
     5100    16469
     5101    16470        /* Code */
     5102    16471
     5103    16472    2      TCX = 0 ;

  16472  7 012521   200024 470500                    LDP0    @TCX,,AUTO
         7 012522   000000 450100                    STZ     0,,PR0

     5104    16473    3      DO WHILE TCX < 8 ;

  16473  7 012523   000000 235100                    LDA     0,,PR0
         7 012524   000010 115007                    CMPA    8,DL
         7 012525   012555 603000 7                  TRC     s:16479

     5105    16474    3         IF TOP$TCP.ICC.ICC#(TCX) = ICC

  16474  7 012526   200024 470500                    LDP0    @TCX,,AUTO
         7 012527   000000 236100                    LDQ     0,,PR0
         7 012530   000122 402007                    MPY     82,DL
         7 012531   200023 471500                    LDP1    @ICC,,AUTO
         7 012532   000000 620006                    EAX0    0,QL
PL6.E3A0      #001=TOP$POLTS File=TOP$POLTS.:E05TSI                              WED 07/30/97 06:30 Page:633
         7 012533   100000 236100                    LDQ     0,,PR1
         7 012534   000031 772000                    QRL     25
         7 012535   205740 756100                    STQ     BCD_BUF_INX+1,,AUTO
         7 012536   000000 635010                    EAA     0,X0
         7 012537   000021 771000                    ARL     17
         7 012540   000003 473400 xsym               LDP3    TOT$DMC+3
         7 012541   300001 236105                    LDQ     1,AL,PR3
         7 012542   000025 772000                    QRL     21
         7 012543   003777 376007                    ANQ     2047,DL
         7 012544   205740 116100                    CMPQ    BCD_BUF_INX+1,,AUTO
         7 012545   012550 601000 7                  TNZ     s:16476

     5106    16475    3         THEN RETURN ;

  16475  7 012546   200022 221300                    LDX1  ! DUMP_HDR$,,AUTO
         7 012547   000001 702211                    TSX2  ! 1,X1

     5107    16476    3         ELSE TCX = TCX + 1 ;

  16476  7 012550   000000 235100                    LDA     0,,PR0
         7 012551   000001 035007                    ADLA    1,DL
         7 012552   000000 755100                    STA     0,,PR0

     5108    16477    3      END ;

  16477  7 012553   000010 115007                    CMPA    8,DL
         7 012554   012526 602000 7                  TNC     s:16474

     5109    16478
     5110    16479    2      TOP_ERROR_CODE.ERR# = %E$BADICC ;

  16479  7 012555   000173 236000 5                  LDQ     TOP_ERROR_CODE
         7 012556   000006 376000 8                  ANQ     6
         7 012557   003340 276007                    ORQ     1760,DL
         7 012560   000173 756000 5                  STQ     TOP_ERROR_CODE

     5111    16480    2      CALL TOX$SCREECH (TOP_ERROR_CODE) ;
PL6.E3A0      #001=TOP$POLTS File=TOP$POLTS.:E05TSI                              WED 07/30/97 06:30 Page:634

  16480  7 012561   000007 630400 8                  EPPR0   7
         7 012562   000017 631400 xsym               EPPR1   B_VECTNIL+15
         7 012563   000000 701000 xent               TSX1    TOX$SCREECH
         7 012564   000000 011000                    NOP     0

     5112    16481
     5113    16482    2   END MATCH_ICC ;

  16482  7 012565   200022 221300                    LDX1  ! DUMP_HDR$,,AUTO
         7 012566   000001 702211                    TSX2  ! 1,X1

     5114    16483        %EJECT ;
PL6.E3A0      #001=TOP$POLTS File=TOP$POLTS.:E05TSI                              WED 07/30/97 06:30 Page:635
     5115    16484        /*I* NAME:         MATCH_SCT_ADR
     5116    16485             CALL:         CALL MATCH_SCT_ADR(NEW_SCT_ADR,TCX) ;
     5117    16486             INTERFACE:
     5118    16487             INPUT:        NEW_SCT_ADR = a SCT address from the subexec
     5119    16488             OUTPUT:       TCX = index into TOP$TCP for the test page.
     5120    16489             DESCRTIPTION: Given a SCT address, searches for a match against
     5121    16490                           both the device and controller SCT address saved
     5122    16491                           in TOP$TCP and returns I.  Also either sets
     5123    16492                           or resets the CONTROLLER_IO flag in TOP$TCP
     5124    16493                           depending on which SCT address matched up.  This
     5125    16494                           flag determines the device number when building
     5126    16495                           IDCWs.
     5127    16496
     5128    16497                           To start with, the device and controller SCT addresses
     5129    16498                           are phony entities which are sent back to the subexec
     5130    16499                           via SCTWRK and which the subexecs use in turn to
     5131    16500                           identify either device or controller I/O.
     5132    16501        */
     5133    16502        %EJECT ;
PL6.E3A0      #001=TOP$POLTS File=TOP$POLTS.:E05TSI                              WED 07/30/97 06:30 Page:636
     5134    16503    1   MATCH_SCT_ADR: PROC (NEW_SCT_ADR,TCX) ;

  16503  7 012567   200024 741300       MATCH_SCT_A* STX1  ! @TCX,,AUTO

     5135    16504
     5136    16505    2      DCL TCX UBIN WORD ALIGNED ;
     5137    16506    2      DCL NEW_SCT_ADR UBIN HALF HALIGNED ;
     5138    16507
     5139    16508        /* Code */
     5140    16509
     5141    16510    2      TCX = 0 ;

  16510  7 012570   200026 470500                    LDP0    @TCX,,AUTO
         7 012571   000000 450100                    STZ     0,,PR0

     5142    16511    3      DO WHILE TCX < 8 ;

  16511  7 012572   000000 235100                    LDA     0,,PR0
         7 012573   000010 115007                    CMPA    8,DL
         7 012574   012627 603000 7                  TRC     s:16520

     5143    16512    3         IF TOP$TCP.ADR.SCT(TCX) = NEW_SCT_ADR

  16512  7 012575   200026 470500                    LDP0    @TCX,,AUTO
         7 012576   000000 236100                    LDQ     0,,PR0
         7 012577   000122 402007                    MPY     82,DL
         7 012600   200025 471500                    LDP1    @NEW_SCT_ADR,,AUTO
         7 012601   000100 101500                    MRL     fill='000'O
         7 012602   100000 000002                    ADSC9   0,,PR1                   cn=0,n=2
         7 012603   205740 000004                    ADSC9   BCD_BUF_INX+1,,AUTO      cn=0,n=4
         7 012604   000001 736000                    QLS     1
         7 012605   000003 473400 xsym               LDP3    TOT$DMC+3
         7 012606   300010 236106                    LDQ     8,QL,PR3
         7 012607   000022 772000                    QRL     18
         7 012610   205740 116100                    CMPQ    BCD_BUF_INX+1,,AUTO
         7 012611   012622 601000 7                  TNZ     s:16517

PL6.E3A0      #001=TOP$POLTS File=TOP$POLTS.:E05TSI                              WED 07/30/97 06:30 Page:637
     5144    16513    4         THEN DO ;

     5145    16514    4                 TOP$TCP.IO.CONTROLLER(TCX) = '0'B ;

  16514  7 012612   000000 236100                    LDQ     0,,PR0
         7 012613   000122 402007                    MPY     82,DL
         7 012614   000001 736000                    QLS     1
         7 012615   000000 620006                    EAX0    0,QL
         7 012616   000101 236000 8                  LDQ     65
         7 012617   300012 356110                    ANSQ    10,X0,PR3

     5146    16515    4                 RETURN ;

  16515  7 012620   200024 221300                    LDX1  ! @TCX,,AUTO
         7 012621   000001 702211                    TSX2  ! 1,X1

     5147    16516    4              END ;
     5148    16517    3         ELSE TCX = TCX + 1 ;

  16517  7 012622   000000 235100                    LDA     0,,PR0
         7 012623   000001 035007                    ADLA    1,DL
         7 012624   000000 755100                    STA     0,,PR0

     5149    16518    3      END ;

  16518  7 012625   000010 115007                    CMPA    8,DL
         7 012626   012575 602000 7                  TNC     s:16512

     5150    16519
     5151    16520    2      TCX = 0 ;

  16520  7 012627   000000 450100                    STZ     0,,PR0

     5152    16521    3      DO WHILE TCX < 8 ;

  16521  7 012630   000000 235100                    LDA     0,,PR0
         7 012631   000010 115007                    CMPA    8,DL
PL6.E3A0      #001=TOP$POLTS File=TOP$POLTS.:E05TSI                              WED 07/30/97 06:30 Page:638
         7 012632   012665 603000 7                  TRC     s:16530

     5153    16522    3         IF TOP$TCP.ADR.CSCT(TCX) = NEW_SCT_ADR

  16522  7 012633   200026 470500                    LDP0    @TCX,,AUTO
         7 012634   000000 236100                    LDQ     0,,PR0
         7 012635   000122 402007                    MPY     82,DL
         7 012636   200025 471500                    LDP1    @NEW_SCT_ADR,,AUTO
         7 012637   000100 101500                    MRL     fill='000'O
         7 012640   100000 000002                    ADSC9   0,,PR1                   cn=0,n=2
         7 012641   205740 000004                    ADSC9   BCD_BUF_INX+1,,AUTO      cn=0,n=4
         7 012642   000001 736000                    QLS     1
         7 012643   000003 473400 xsym               LDP3    TOT$DMC+3
         7 012644   300010 236106                    LDQ     8,QL,PR3
         7 012645   777777 376007                    ANQ     -1,DL
         7 012646   205740 116100                    CMPQ    BCD_BUF_INX+1,,AUTO
         7 012647   012660 601000 7                  TNZ     s:16527

     5154    16523    4         THEN DO ;

     5155    16524    4                 TOP$TCP.IO.CONTROLLER(TCX) = '1'B ;

  16524  7 012650   000000 236100                    LDQ     0,,PR0
         7 012651   000122 402007                    MPY     82,DL
         7 012652   000001 736000                    QLS     1
         7 012653   000000 620006                    EAX0    0,QL
         7 012654   100000 236003                    LDQ     32768,DU
         7 012655   300012 256110                    ORSQ    10,X0,PR3

     5156    16525    4                 RETURN ;

  16525  7 012656   200024 221300                    LDX1  ! @TCX,,AUTO
         7 012657   000001 702211                    TSX2  ! 1,X1

     5157    16526    4              END ;
     5158    16527    3         ELSE TCX = TCX + 1 ;

PL6.E3A0      #001=TOP$POLTS File=TOP$POLTS.:E05TSI                              WED 07/30/97 06:30 Page:639
  16527  7 012660   000000 235100                    LDA     0,,PR0
         7 012661   000001 035007                    ADLA    1,DL
         7 012662   000000 755100                    STA     0,,PR0

     5159    16528    3      END ;

  16528  7 012663   000010 115007                    CMPA    8,DL
         7 012664   012633 602000 7                  TNC     s:16522

     5160    16529
     5161    16530    2      TOP_ERROR_CODE.ERR# = %E$BADSCTADR ;

  16530  7 012665   000173 236000 5                  LDQ     TOP_ERROR_CODE
         7 012666   000006 376000 8                  ANQ     6
         7 012667   003370 276007                    ORQ     1784,DL
         7 012670   000173 756000 5                  STQ     TOP_ERROR_CODE

     5162    16531    2      CALL TOX$SCREECH (TOP_ERROR_CODE) ;

  16531  7 012671   000007 630400 8                  EPPR0   7
         7 012672   000017 631400 xsym               EPPR1   B_VECTNIL+15
         7 012673   000000 701000 xent               TSX1    TOX$SCREECH
         7 012674   000000 011000                    NOP     0

     5163    16532
     5164    16533    2   END MATCH_SCT_ADR ;

  16533  7 012675   200024 221300                    LDX1  ! @TCX,,AUTO
         7 012676   000001 702211                    TSX2  ! 1,X1

     5165    16534        %EJECT ;
PL6.E3A0      #001=TOP$POLTS File=TOP$POLTS.:E05TSI                              WED 07/30/97 06:30 Page:640
     5166    16535        /*I* NAME:         TOP$TIO_DONE
     5167    16536             CALL:         CALL TOP$TIO_DONE ;
     5168    16537             INTERFACE:    RETURN_TIO_STATUS
     5169    16538                           PAY_TIO_CC
     5170    16539                           RETURN_SPECIAL_STATUS
     5171    16540             INPUT:        TOP$EVENT_ID = Event ID of test I/O completing
     5172    16541                           TOP$STATUS = 2 words of status fetched from TCB in
     5173    16542                                       Event Handler
     5174    16543                           Uses information in IO_ENTRY and TOP$TCP
     5175    16544             OUTPUT:       Status returned to test page and Courtesy Call paid
     5176    16545             DESCRIPTION:  This is the routine that handles the termination of
     5177    16546                           a test I/O, returning status to the test page and
     5178    16547                           paying a Courtesy Call.  It is also here that the
     5179    16548                           special handling of ITR interrupts is done.(See
     5180    16549                           documentation in TOP$MME_TESTIO for a description
     5181    16550                           of the overall picture of ITR I/O.)
     5182    16551
     5183    16552                           First, the test page index TCX into TOP$TCP is
     5184    16553                           calculated from the Event ID.  We need to make 2 passes
     5185    16554                           at this.  First the Event ID Base for normal
     5186    16555                           I/O is subracted from TOP$EVENT_ID, and the result
     5187    16556                           checked to see if it is between 0 and 7.  If it is
     5188    16557                           it is assumed that this I/O completion is a
     5189    16558                           terminate interrupt and the TERMINATE flag is set.
     5190    16559                           If it isn't between 0 and 7, then is is assumed
     5191    16560                           that the I/O completion is a special interrupt
     5192    16561                           and the Event ID Base for special interrupts is
     5193    16562                           subracted from TOP$EVENT_ID to yield TCX, and
     5194    16563                           the internal flag TERMINATE is reset.
     5195    16564
     5196    16565                           Now terminate and special interrupts are handled
     5197    16566                           separately.  Terminates are handled first
     5198    16567                           (TERMINATE = 1).  Within the logic for terminate
     5199    16568                           interrupts, terminate interrupts for normal I/O
     5200    16569                           and ITR I/O are handled separately.  The field
     5201    16570                           ITR_INTERRUPT in TOP$TCP indicates whether
     5202    16571                           this terminate interrupt is for an ITR or not.
PL6.E3A0      #001=TOP$POLTS File=TOP$POLTS.:E05TSI                              WED 07/30/97 06:30 Page:641
     5203    16572                           If it isn't, status is returned and the Courtesy
     5204    16573                           Call paid.  If it is an ITR terminate interrupt,
     5205    16574                           the status is checked for "ready" status.  The
     5206    16575                           termination status is fetched from the DCB for the
     5207    16576                           page and stored in TERMINATE_STATUS.  A pointer
     5208    16577                           TERMINATE_STATUS$ is built to TERMINATE_STATUS and
     5209    16578                           Major and Minor status fields are checked for 0.
     5210    16579                           If they are the terminate interrupt occurred flag
     5211    16580                           TOP$TCP.TERMINATE_OCCURRED(TCX) is set and
     5212    16581                           nothing else is done at this time.  This flag is
     5213    16582                           used in TOP$MME_HUNGTM for timing out special
     5214    16583                           interrupts.
     5215    16584
     5216    16585                           If the terminate status for the ITR is not ready,
     5217    16586                           it is returned immediately to the subexec ; stauts
     5218    16587                           is returned and a Courtesy Call paid.
     5219    16588
     5220    16589                           The second half of the routine takes care of
     5221    16590                           special interrupts(which come only from ITR I/O).
     5222    16591                           If TOP$TCP.ITR_INTERRUPT(TCX) is set, indicating
     5223    16592                           that this is ITR I/O, the special status is returned
     5224    16593                           and the Courtesy Call is paid.  If the flag is
     5225    16594                           not set, the special is ignored.
     5226    16595        */
     5227    16596
     5228    16597    1   TOP$TIO_DONE: PROC ;

  16597  7 012677   200010 741300       TOP$TIO_DONE STX1  ! @RETURN_DELTA+2,,AUTO

     5229    16598
     5230    16599    2      DCL TCX SBIN WORD ALIGNED ;
     5231    16600    2      DCL TD_DCB$ PTR ;
     5232    16601    2      DCL TERMSTAT$ PTR ;
     5233    16602           %EJECT ;
PL6.E3A0      #001=TOP$POLTS File=TOP$POLTS.:E05TSI                              WED 07/30/97 06:30 Page:642
     5234    16603        /* Code */
     5235    16604
     5236    16605    3      DO INHIBIT ;

     5237    16606    3         TCX = TOP$EVENT_ID - %TIO_EVENT_BASE ;

  16606  7 012700   000000 235200 5                  LDA   ! TOP$EVENT_ID
         7 012701   000144 135207                    SBLA  ! 100,DL
         7 012702   200011 755300                    STA   ! TCX,,AUTO

     5238    16607    3         IF 0 <= TCX & TCX < 8

  16607  7 012703   400000 220203                    LDX0  ! -131072,DU
         7 012704   000010 115207                    CMPA  ! 8,DL
         7 012705   012707 604200 7                  TMI   ! s:16607+4
         7 012706   000000 220203                    LDX0  ! 0,DU
         7 012707   400000 222203                    LDX2  ! -131072,DU
         7 012710   000000 115203                    CMPA  ! 0,DU
         7 012711   012713 605200 7                  TPL   ! s:16607+8
         7 012712   000000 222203                    LDX2  ! 0,DU
         7 012713   000000 636212                    EAQ   ! 0,X2
         7 012714   205740 756300                    STQ   ! BCD_BUF_INX+1,,AUTO
         7 012715   000000 636210                    EAQ   ! 0,X0
         7 012716   205740 376300                    ANQ   ! BCD_BUF_INX+1,,AUTO
         7 012717   012773 600200 7                  TZE   ! s:16625

     5239    16608    3         THEN IF TOP$TCP.IO.ITR_INTERRUPT(TCX)

  16608  7 012720   200011 236300                    LDQ   ! TCX,,AUTO
         7 012721   000244 402207                    MPY   ! 164,DL
         7 012722   000003 470600 xsym               LDP0  ! TOT$DMC+3
         7 012723   000012 234306                    SZN   ! 10,QL,PR0
         7 012724   012766 605200 7                  TPL   ! s:16621

     5240    16609    4            THEN DO ;

     5241    16610    4                    TD_DCB$ = DCBADDR (TOP$TCP.DCB#(TCX)) ;
PL6.E3A0      #001=TOP$POLTS File=TOP$POLTS.:E05TSI                              WED 07/30/97 06:30 Page:643

  16610  7 012725   000015 471600 8                  LDP1  ! 13
         7 012726   100000 473700                    LDP3  ! 0,,PR1
         7 012727   000007 720306                    LXL0  ! 7,QL,PR0
         7 012730   300000 236310                    LDQ   ! 0,X0,PR3
         7 012731   200012 756300                    STQ   ! TD_DCB$,,AUTO

     5242    16611    4                    TERMSTAT$ = ADDR (TD_DCB$ -> F$DCB.TDSTAT#) ;

  16611  7 012732   000027 036203                    ADLQ  ! 23,DU
         7 012733   200013 756300                    STQ   ! TERMSTAT$,,AUTO

     5243    16612    4                    IF TERMSTAT$ -> STATUS.MAJOR# = '0000'B &

  16612  7 012734   400000 220203                    LDX0  ! -131072,DU
         7 012735   200013 474700                    LDP4  ! TERMSTAT$,,AUTO
         7 012736   400000 236300                    LDQ   ! 0,,PR4
         7 012737   170000 316203                    CANQ  ! 61440,DU
         7 012740   012742 600200 7                  TZE   ! s:16612+6
         7 012741   000000 220203                    LDX0  ! 0,DU
         7 012742   400000 222203                    LDX2  ! -131072,DU
         7 012743   007700 316203                    CANQ  ! 4032,DU
         7 012744   012746 600200 7                  TZE   ! s:16612+10
         7 012745   000000 222203                    LDX2  ! 0,DU
         7 012746   000000 636212                    EAQ   ! 0,X2
         7 012747   205740 756300                    STQ   ! BCD_BUF_INX+1,,AUTO
         7 012750   000000 636210                    EAQ   ! 0,X0
         7 012751   205740 376300                    ANQ   ! BCD_BUF_INX+1,,AUTO
         7 012752   012761 600200 7                  TZE   ! s:16616

     5244    16613    4                            TERMSTAT$ -> STATUS.MINOR# = '000000'B
     5245    16614    4                    THEN TOP$TCP.IO.TERMINATED(TCX) = '1'B ;

  16614  7 012753   200011 236300                    LDQ   ! TCX,,AUTO
         7 012754   000244 402207                    MPY   ! 164,DL
         7 012755   000000 620206                    EAX0  ! 0,QL
         7 012756   200000 236203                    LDQ   ! 65536,DU
PL6.E3A0      #001=TOP$POLTS File=TOP$POLTS.:E05TSI                              WED 07/30/97 06:30 Page:644
         7 012757   000012 256310                    ORSQ  ! 10,X0,PR0
         7 012760   013006 710200 7                  TRA   ! s:16634

     5246    16615    5                    ELSE DO ;

     5247    16616    5                            CALL RETURN_TIO_STATUS ;

  16616  7 012761   013010 701200 7                  TSX1  ! RETURN_TIO_STATUS
         7 012762   000000 011200                    NOP   ! 0

     5248    16617    5                            CALL PAY_TIO_CC ;

  16617  7 012763   013117 701200 7                  TSX1  ! PAY_TIO_CC
         7 012764   000000 011200                    NOP   ! 0

     5249    16618    5                         END /* ELSE */ ;

     5250    16619    4                 END /* THEN */ ;

  16619  7 012765   013006 710200 7                  TRA   ! s:16634

     5251    16620    4            ELSE DO ;

     5252    16621    4                    CALL RETURN_TIO_STATUS ;

  16621  7 012766   013010 701200 7                  TSX1  ! RETURN_TIO_STATUS
         7 012767   000000 011200                    NOP   ! 0

     5253    16622    4                    CALL PAY_TIO_CC ;

  16622  7 012770   013117 701200 7                  TSX1  ! PAY_TIO_CC
         7 012771   000000 011200                    NOP   ! 0

     5254    16623    4                 END /* ELSE */ ;

  16623  7 012772   013006 710200 7                  TRA   ! s:16634

PL6.E3A0      #001=TOP$POLTS File=TOP$POLTS.:E05TSI                              WED 07/30/97 06:30 Page:645
     5255    16624    4         ELSE DO ;

     5256    16625    4                 TCX = TOP$EVENT_ID - %ITR_EVENT_BASE ;

  16625  7 012773   000000 236200 5                  LDQ   ! TOP$EVENT_ID
         7 012774   000024 136207                    SBLQ  ! 20,DL
         7 012775   200011 756300                    STQ   ! TCX,,AUTO

     5257    16626    4                 IF TOP$TCP.IO.ITR_INTERRUPT(TCX)

  16626  7 012776   000244 402207                    MPY   ! 164,DL
         7 012777   000003 470600 xsym               LDP0  ! TOT$DMC+3
         7 013000   000012 234306                    SZN   ! 10,QL,PR0
         7 013001   013006 605200 7                  TPL   ! s:16634

     5258    16627    5                 THEN DO ;

     5259    16628    5                         CALL RETURN_SPECIAL_STATUS ;

  16628  7 013002   013145 701200 7                  TSX1  ! RETURN_SPECIAL_STATUS
         7 013003   000000 011200                    NOP   ! 0

     5260    16629    5                         CALL PAY_TIO_CC ;

  16629  7 013004   013117 701200 7                  TSX1  ! PAY_TIO_CC
         7 013005   000000 011200                    NOP   ! 0

     5261    16630    5                      END /* THEN */ ;

     5262    16631    4                 ELSE /* ignore all other special interrupts */ ;
     5263    16632    4              END /* ELSE */ ;

     5264    16633    3      END /* INHIBIT */ ;

     5265    16634    2      RETURN ;

  16634  7 013006   200010 221300                    LDX1  ! @RETURN_DELTA+2,,AUTO
PL6.E3A0      #001=TOP$POLTS File=TOP$POLTS.:E05TSI                              WED 07/30/97 06:30 Page:646
         7 013007   000001 702211                    TSX2  ! 1,X1

     5266    16635
     5267    16636        /*END TOF$TIO_DONE*/
     5268    16637        %EJECT ;
PL6.E3A0      #001=TOP$POLTS File=TOP$POLTS.:E05TSI                              WED 07/30/97 06:30 Page:647
     5269    16638        /*I* NAME:         RETURN_TIO_STATUS
     5270    16639             CALL:         CALL RETURN_TIO_STATUS ;
     5271    16640             INTERFACE:
     5272    16641             INPUT:        Nothing explicitly
     5273    16642             OUTPUT:       Status is returned to the subexec
     5274    16643             DESCRIPTION:  Two words of status are returned to the status buffer
     5275    16644                           specified in the I/O Entry.  TD_DCB$ is a pointer
     5276    16645                           built to the DCB for the test page using the DCB
     5277    16646                           number in TOP$TCP.  The address of the status
     5278    16647                           buffer is stored in word 9 of the I/O entry.  If
     5279    16648                           is zero, no status is returned.  Otherwise, the
     5280    16649                           address is used to build POLTS_STATUS$ which
     5281    16650                           points to the location in the subexec where status
     5282    16651                           is to be returned.  The status is then moved from
     5283    16652                           the DCB to the subexec.  A check is made to see
     5284    16653                           if CP6 returned lost interrupt status, and if it
     5285    16654                           did, it is changed to GCOS lost interrupt status.
     5286    16655                           CP6 indicates lost interrupt status by returning
     5287    16656                           a Major status of '1000'B.  The GCOS lost
     5288    16657                           interrupt status is phonied up as shown in the code.
     5289    16658
     5290    16659                           Finally, a value of '200000'O is subtracted from
     5291    16660                           the address residue in the second word of the
     5292    16661                           status in order to make that address residue
     5293    16662                           relative to the base of the ISR.  It is returned
     5294    16663                           relative to the base of the Working Space, and the
     5295    16664                           ISR base is at '200000'O relative to the base of
     5296    16665                           the Working Space.
     5297    16666        */
     5298    16667        %EJECT ;
PL6.E3A0      #001=TOP$POLTS File=TOP$POLTS.:E05TSI                              WED 07/30/97 06:30 Page:648
     5299    16668    2   RETURN_TIO_STATUS: PROC ;

  16668  7 013010   200014 741300       RETURN_TIO_* STX1  ! @X2_REG,,AUTO

     5300    16669
     5301    16670    3      DCL POLTS_STATUS$ PTR ;
     5302    16671    3      DCL TD_DCB$ PTR ;
     5303    16672    3      DCL EXT_STATUS$ PTR ALIGNED;
     5304    16673    3      DCL EXT_STATUS (0:7) UBIN WORD BASED;
     5305    16674
     5306    16675        /* Code */
     5307    16676
     5308    16677    3      IF IO_ENTRY.W9.STATUS_ADR#(TCX) = 0

  16677  7 013011   200011 236100                    LDQ     TCX,,AUTO
         7 013012   000013 402007                    MPY     11,DL
         7 013013   000014 220006 5                  LDX0    IO_ENTRY+9,QL
         7 013014   013115 600000 7                  TZE     s:16706

     5309    16678    3      THEN /* zero --- don't return STATUS */ ;
     5310    16679    4      ELSE DO ;

     5311    16680    4              TD_DCB$ = DCBADDR (TOP$TCP.DCB#(TCX)) ;

  16680  7 013015   000015 470400 8                  LDP0    13
         7 013016   000000 471500                    LDP1    0,,PR0
         7 013017   200011 236100                    LDQ     TCX,,AUTO
         7 013020   000244 402007                    MPY     164,DL
         7 013021   000003 473400 xsym               LDP3    TOT$DMC+3
         7 013022   300007 720106                    LXL0    7,QL,PR3
         7 013023   100000 236110                    LDQ     0,X0,PR1
         7 013024   200016 756100                    STQ     TD_DCB$,,AUTO

     5312    16681    4              POLTS_STATUS$ = PINCRW (IS$, IO_ENTRY.W9.STATUS_ADR#(TCX)) ;

  16681  7 013025   200011 236100                    LDQ     TCX,,AUTO
         7 013026   000013 402007                    MPY     11,DL
PL6.E3A0      #001=TOP$POLTS File=TOP$POLTS.:E05TSI                              WED 07/30/97 06:30 Page:649
         7 013027   000014 220006 5                  LDX0    IO_ENTRY+9,QL
         7 013030   000000 636010                    EAQ     0,X0
         7 013031   000000 036000 6                  ADLQ    FPTN_
         7 013032   200015 756100                    STQ     POLTS_STATUS$,,AUTO

     5313    16682    4              POLTS_STATUS$ -> STATUS = TD_DCB$ -> F$DCB.TDSTAT# ;

  16682  7 013033   200016 474500                    LDP4    TD_DCB$,,AUTO
         7 013034   200015 475500                    LDP5    POLTS_STATUS$,,AUTO
         7 013035   000100 100500                    MLR     fill='000'O
         7 013036   400027 000010                    ADSC9   23,,PR4                  cn=0,n=8
         7 013037   500000 000010                    ADSC9   0,,PR5                   cn=0,n=8

     5314    16683    4              IF POLTS_STATUS$ -> STATUS.MAJOR# = '1000'B

  16683  7 013040   500000 236100                    LDQ     0,,PR5
         7 013041   170000 376003                    ANQ     61440,DU
         7 013042   100000 116003                    CMPQ    32768,DU
         7 013043   013057 601000 7                  TNZ     s:16690

     5315    16684    5              THEN DO ;

     5316    16685    5                      POLTS_STATUS$ -> STATUS.MAJOR# = '1001'B ;

  16685  7 013044   500000 236100                    LDQ     0,,PR5
         7 013045   000022 376000 8                  ANQ     18
         7 013046   110000 276003                    ORQ     36864,DU
         7 013047   500000 756100                    STQ     0,,PR5

     5317    16686    5                      POLTS_STATUS$ -> STATUS.TERMINATION_INDICATOR# = '1'B ;

  16686  7 013050   400000 236003                    LDQ     -131072,DU
         7 013051   500000 256100                    ORSQ    0,,PR5

     5318    16687    5                      POLTS_STATUS$ -> STATUS.LOST_INTERRUPT# = '1'B ;

  16687  7 013052   000004 236003                    LDQ     4,DU
PL6.E3A0      #001=TOP$POLTS File=TOP$POLTS.:E05TSI                              WED 07/30/97 06:30 Page:650
         7 013053   500000 256100                    ORSQ    0,,PR5

     5319    16688    5                      POLTS_STATUS$ -> STATUS.INTERRUPT_INDICATOR# = '1'B ;

  16688  7 013054   000002 236003                    LDQ     2,DU
         7 013055   500000 256100                    ORSQ    0,,PR5

     5320    16689    5                   END ;

  16689  7 013056   013061 710000 7                  TRA     s:16691

     5321    16690    4              ELSE POLTS_STATUS$ -> STATUS.LOST_INTERRUPT# = '0'B ;

  16690  7 013057   000102 236000 8                  LDQ     66
         7 013060   500000 356100                    ANSQ    0,,PR5

     5322    16691    4              POLTS_STATUS$ -> STATUS.ABORT_INDICATOR# = '0'B ;

  16691  7 013061   000103 236000 8                  LDQ     67
         7 013062   500000 356100                    ANSQ    0,,PR5

     5323    16692    4              IF (TOT$ECP.BOOT_CPU_TYPE = %DPS8000#)

  16692  7 013063   000015 236000 xsym               LDQ     TOT$ECP+13
         7 013064   777000 376007                    ANQ     -512,DL
         7 013065   006000 116007                    CMPQ    3072,DL
         7 013066   013072 600000 7                  TZE     s:16697

     5324    16693    4              THEN /* DO NOTHING */;
     5325    16694    4              ELSE /* SUBTRACT 200000 OCTAL */
     5326    16695    4                 POLTS_STATUS$ -> STATUS.DATA_ADDRESS_RESIDUE# =

  16695  7 013067   500001 220100                    LDX0    1,,PR5
         7 013070   600000 621010                    EAX1    -65536,X0
         7 013071   500001 741100                    STX1    1,,PR5

     5327    16696    4                        POLTS_STATUS$->STATUS.DATA_ADDRESS_RESIDUE# - BITBIN('200000'O
PL6.E3A0      #001=TOP$POLTS File=TOP$POLTS.:E05TSI                              WED 07/30/97 06:30 Page:651
             16696                                  ) ;
     5328    16697    4              IF IO_ENTRY.W1.EXTSTAT_ADR#(TCX) = 0

  16697  7 013072   200011 236100                    LDQ     TCX,,AUTO
         7 013073   000013 402007                    MPY     11,DL
         7 013074   000004 220006 5                  LDX0    IO_ENTRY+1,QL
         7 013075   013115 600000 7                  TZE     s:16706

     5329    16698    4              THEN /* do not return extended status */;
     5330    16699    5              ELSE DO;

     5331    16700    5                      EXT_STATUS$ = PINCRW (IS$, IO_ENTRY.W1.EXTSTAT_ADR#(TCX));

  16700  7 013076   000000 636010                    EAQ     0,X0
         7 013077   000000 036000 6                  ADLQ    FPTN_
         7 013100   200017 756100                    STQ     EXT_STATUS$,,AUTO

     5332    16701    5                      IF TD_DCB$->F$DCB.TDEXTST$->EXT_STATUS (0) = 0

  16701  7 013101   400007 473500                    LDP3    7,,PR4
         7 013102   300000 235100                    LDA     0,,PR3
         7 013103   013111 601000 7                  TNZ     s:16703

     5333    16702    5                     THEN EXT_STATUS$->EXT_STATUS = '0'B /* OS hasn't given us any */;

  16702  7 013104   200017 476500                    LDP6    EXT_STATUS$,,AUTO
         7 013105   000100 100400                    MLR     fill='000'O
         7 013106   000002 000001 xsym               ADSC9   B_VECTNIL+2              cn=0,n=1
         7 013107   600000 000040                    ADSC9   0,,PR6                   cn=0,n=32
         7 013110   013115 710000 7                  TRA     s:16706

     5334    16703    5                      ELSE EXT_STATUS$->EXT_STATUS = TD_DCB$->F$DCB.TDEXTST$->
             16703                               EXT_STATUS;

  16703  7 013111   200017 476500                    LDP6    EXT_STATUS$,,AUTO
         7 013112   000100 100500                    MLR     fill='000'O
         7 013113   300000 000040                    ADSC9   0,,PR3                   cn=0,n=32
PL6.E3A0      #001=TOP$POLTS File=TOP$POLTS.:E05TSI                              WED 07/30/97 06:30 Page:652
         7 013114   600000 000040                    ADSC9   0,,PR6                   cn=0,n=32

     5335    16704    5                   END /* ELSE */;

     5336    16705    4           END ;

     5337    16706    3      RETURN ;

  16706  7 013115   200014 221300                    LDX1  ! @X2_REG,,AUTO
         7 013116   000001 702211                    TSX2  ! 1,X1

     5338    16707
     5339    16708    3   END RETURN_TIO_STATUS ;
     5340    16709        %EJECT ;
PL6.E3A0      #001=TOP$POLTS File=TOP$POLTS.:E05TSI                              WED 07/30/97 06:30 Page:653
     5341    16710        /*I* NAME:         PAY_TIO_CC
     5342    16711             CALL:         CALL PAY_TIO_CC ;
     5343    16712             INTERFACE:    TOK$COURTESY_CALL
     5344    16713             INPUT:        None explicitly
     5345    16714             OUTPUT:       Courtesy Call paid to subexec to address stored
     5346    16715                           in I/O entry.
     5347    16716             DESCRIPTION:  The Courtesy Call address is stored in word 9 of
     5348    16717                           ther I/O entry which was saved in IO_ENTRY..  If
     5349    16718                           it is zero, no Courtesy Call is paid.  If it is
     5350    16719                           non zero, an entry pointer, CC$, is built pointing
     5351    16720                           to the Courtesy Call routine.  TOK$COURTESY_CALL
     5352    16721                           is called which will actually transfer into the
     5353    16722                           Courtesy Call and set things up so that the MME
     5354    16723                           GEENDC will return control here when the subexec
     5355    16724                           is done with the Courtesy Call processing.
     5356    16725        */
     5357    16726
     5358    16727    2   PAY_TIO_CC: PROC ;

  16727  7 013117   200014 741300       PAY_TIO_CC   STX1  ! @X2_REG,,AUTO

     5359    16728
     5360    16729    3      DCL CC$ PTR ;
     5361    16730
     5362    16731        /* Code */
     5363    16732
     5364    16733    3      TOP$TCP.IO.CC_PAID(TCX) = '1'B ;

  16733  7 013120   200011 236100                    LDQ     TCX,,AUTO
         7 013121   000244 402007                    MPY     164,DL
         7 013122   000003 470400 xsym               LDP0    TOT$DMC+3
         7 013123   000000 620006                    EAX0    0,QL
         7 013124   010000 236003                    LDQ     4096,DU
         7 013125   000012 256110                    ORSQ    10,X0,PR0

     5365    16734    3      IF IO_ENTRY.W9.CC_ADR#(TCX) = 0

PL6.E3A0      #001=TOP$POLTS File=TOP$POLTS.:E05TSI                              WED 07/30/97 06:30 Page:654
  16734  7 013126   200011 236100                    LDQ     TCX,,AUTO
         7 013127   000013 402007                    MPY     11,DL
         7 013130   000014 721006 5                  LXL1    IO_ENTRY+9,QL
         7 013131   013143 600000 7                  TZE     s:16740

     5366    16735    3      THEN /* No courtesy call needed */ ;
     5367    16736    4      ELSE DO ;

     5368    16737    4              CC$ = PINCRW (IS$, IO_ENTRY.W9.CC_ADR#(TCX)) ;

  16737  7 013132   000000 636011                    EAQ     0,X1
         7 013133   000000 036000 6                  ADLQ    FPTN_
         7 013134   200015 756100                    STQ     CC$,,AUTO

     5369    16738    4              CALL TOK$COURTESY_CALL (CC$) ;

  16738  7 013135   200015 630500                    EPPR0   CC$,,AUTO
         7 013136   205740 450500                    STP0    BCD_BUF_INX+1,,AUTO
         7 013137   205740 630500                    EPPR0   BCD_BUF_INX+1,,AUTO
         7 013140   000017 631400 xsym               EPPR1   B_VECTNIL+15
         7 013141   000000 701000 xent               TSX1    TOK$COURTESY_CALL
         7 013142   000000 011000                    NOP     0

     5370    16739    4           END ;

     5371    16740    3      RETURN ;

  16740  7 013143   200014 221300                    LDX1  ! @X2_REG,,AUTO
         7 013144   000001 702211                    TSX2  ! 1,X1

     5372    16741
     5373    16742    3   END PAY_TIO_CC ;
     5374    16743        %EJECT ;
PL6.E3A0      #001=TOP$POLTS File=TOP$POLTS.:E05TSI                              WED 07/30/97 06:30 Page:655
     5375    16744        /*I* NAME:         RETURN_SPECIAL_STATUS
     5376    16745             CALL:         CALL RETURN_SPECIAL_STATUS ;
     5377    16746             INTERFACE:
     5378    16747             INPUT:        None explicitly
     5379    16748             OUTPUT:       Status returned to the subexec
     5380    16749             DESCRIPTION:  The special status from ITR I/O is returned to
     5381    16750                           the subexec if the status buffer address stored
     5382    16751                           in word 9 of the I/O entry stored in IO_ENTRY.
     5383    16752                           If this address is zero, no status is returned.
     5384    16753                           Otherwise, the pointer POLTS_STATUS$ is built
     5385    16754                           pointing to the status buffer in the subexec
     5386    16755                           and the 2 words of special status stored in
     5387    16756                           TOP$STATUS are returned.  These 2 words were
     5388    16757                           fetched from the TCB Event frame by the Event
     5389    16758                           Handler and passed on to the Dispatcher.
     5390    16759
     5391    16760                           Note:  The portion of the CP-6 monitor that
     5392    16761                           returns the Special Interrupts to the user event
     5393    16762                           routine must remove the "Sync" or "Presence" bit
     5394    16763                           ('400000000000'O) from the special interrupt
     5395    16764                           status.  If this is not done, the special interrupt
     5396    16765                           status will look like a termination interrupt
     5397    16766                           status.  As of E02C, this coding was present for
     5398    16767                           IOM, IOP, and IMX based platforms.
     5399    16768        */
     5400    16769        %EJECT ;
PL6.E3A0      #001=TOP$POLTS File=TOP$POLTS.:E05TSI                              WED 07/30/97 06:30 Page:656
     5401    16770    2   RETURN_SPECIAL_STATUS: PROC ;

  16770  7 013145   200014 741300       RETURN_SPEC* STX1  ! @X2_REG,,AUTO

     5402    16771
     5403    16772    3      DCL POLTS_STATUS$              PTR ;
     5404    16773
     5405    16774        /* Code */
     5406    16775
     5407    16776    3      IF IO_ENTRY.W9.STATUS_ADR#(TCX) = 0

  16776  7 013146   200011 236100                    LDQ     TCX,,AUTO
         7 013147   000013 402007                    MPY     11,DL
         7 013150   000014 220006 5                  LDX0    IO_ENTRY+9,QL
         7 013151   013161 600000 7                  TZE     s:16782

     5408    16777    3      THEN /* No need to return status. */ ;
     5409    16778    4      ELSE DO ;

     5410    16779    4              POLTS_STATUS$ = PINCRW (IS$, IO_ENTRY.W9.STATUS_ADR#(TCX)) ;

  16779  7 013152   000000 636010                    EAQ     0,X0
         7 013153   000000 036000 6                  ADLQ    FPTN_
         7 013154   200015 756100                    STQ     POLTS_STATUS$,,AUTO

     5411    16780    4              POLTS_STATUS$ -> STATUS = TOP$STATUS ;

  16780  7 013155   200015 470500                    LDP0    POLTS_STATUS$,,AUTO
         7 013156   000100 100400                    MLR     fill='000'O
         7 013157   000001 000010 5                  ADSC9   TOP$STATUS               cn=0,n=8
         7 013160   000000 000010                    ADSC9   0,,PR0                   cn=0,n=8

     5412    16781    4           END /* ELSE */ ;

     5413    16782    3      RETURN ;

  16782  7 013161   200014 221300                    LDX1  ! @X2_REG,,AUTO
PL6.E3A0      #001=TOP$POLTS File=TOP$POLTS.:E05TSI                              WED 07/30/97 06:30 Page:657
         7 013162   000001 702211                    TSX2  ! 1,X1

TOP$EVENT_ID
 Sect OctLoc
   5     000   000000 000000                                                    ....

TOP$STATUS
 Sect OctLoc
   5     001   000000 000000   000000 000000                                    ........

IO_ENTRY
 Sect OctLoc
   5     003   ****** ******   ****** ******   ****** ******   ****** ******    ................

MPC
 Sect OctLoc
   5     133   000000 000000   000000 000000   000000 000000   000000 000000    ................
   5     167*  000000 000000   000000 000000   000000 000000   000000 000000    ................

TOP_ERROR_CODE
 Sect OctLoc
   5     173   241720 000000                                                    ....

TDCLOSE_FPT
 Sect OctLoc
   5     174   000001 777640   000176 006000   000000 ******   ****** ******    .....~..........

TDIO_FPT
 Sect OctLoc
   5     200   000003 777640   000206 006000   000000 177640   000000 006014    ................
   5     204   000000 177640   000000 006014   000000 400000   000000 700000    ................
   5     210   000000 000000   000000 000000                                    ........

TDOPEN_FPT
 Sect OctLoc
   5     212   000003 777640   000222 006000   000000 177640   000000 006014    ................
   5     216   000000 177640   000000 006014   000000 177640   000000 006014    ................
PL6.E3A0      #001=TOP$POLTS File=TOP$POLTS.:E05TSI                              WED 07/30/97 06:30 Page:658
   5     222   000000 000000   000000 000000   000000 000000   000000 000000    ................

DCB_NAME
 Sect OctLoc
   5     226   012120 117114   124123 137104   103102 ******                    .POLTS_DCB..

GET_POLTS_DCB
 Sect OctLoc
   5     232   000001 777640   000240 006000   000002 577640   000226 006000    ................
   5     236   000000 777640   000231 006000   000000 000000   000000 000000    ................

DATA_VECTOR
 Sect OctLoc
   5     242   0***** *7764*   000000 006000                                    ........

DENSITY_DCWLIST
 Sect OctLoc
   5     244   570000 700001   ****** 000010                                    ........

DEVICE_INFO
 Sect OctLoc
   5     246   ****** ******   ****** ******   ****** ******   ****** ******    ................

DELAY_FPT
 Sect OctLoc
   5     256   000001 777640   000262 006000   000000 177640   000000 006014    ................
   5     262   000000 000017   000000 000001                                    ........

CHANNEL_MSG
 Sect OctLoc
   5     264   102141 163145   040143 150141   156156 145154   072040 060060    Base channel: 00
   5     270   060040 116165   155142 145162   040157 146040   143150 141156    0 Number of chan
   5     274   156145 154163   072040 060060   060*** ******                    nels: 000...

OPEN_CONFIG
 Sect OctLoc
   5     300   000025 777640   000344 006000   000000 177640   000000 006014    ................
PL6.E3A0      #001=TOP$POLTS File=TOP$POLTS.:E05TSI                              WED 07/30/97 06:30 Page:659
   5     304   000000 177640   000000 006014   000002 777640   000446 006000    ................
   5     310   000000 177640   000000 006014   000000 177640   000000 006014    ................
   5     324*  000001 777640   000451 006000   000000 177640   000000 006014    ................
   5     330   000000 177640   000000 006014   000000 177640   000000 006014    ................
   5     344*  000000 000062   000000 002001   252525 002002   000040 252520    ...2......... ..
   5     350   000040 040040   000000 000002   000000 777777   000000 000000    .   ............
   5     354   000000 000000   000000 000000   000000 000000   000000 000000    ................
   5     360   251000 622000   000000 000000   000000 000000   111250 000000    ............I...
   5     364   040040 040040   000000 000000   000000 000000   000000 000000        ............
   5     370   000000 000000   ****** ******                                    ........

READ_CONFIG
 Sect OctLoc
   5     372   000005 777640   000402 006000   000000 177640   000000 006014    ................
   5     376   000000 177640   000000 006014   000000 177640   000000 006014    ................
   5     402   000000 600000   000000 000000   000000 000000   000000 000000    ................
   5     406   000000 000000   000000 000000                                    ........

CLOSE_CONFIG
 Sect OctLoc
   5     410   000003 777640   000442 006000   000000 177640   000000 006014    ................
   5     414   000000 177640   000000 006014   000000 177640   000000 006014    ................
   5     440*  000000 177640   000000 006014   000000 000002   000000 000040    ...............
   5     444   000220 000000   000000 000000                                    ........

FILE_NAME
 Sect OctLoc
   5     446   007072 103117   116106 111107   040040 040040                    .:CONFIG

ACCOUNT_NAME
 Sect OctLoc
   5     451   072123 131123   040040 040040                                    :SYS

DEVICE_KEY
 Sect OctLoc
   5     454   010040 040040   040040 040040   040*** ******                    .        ...

PL6.E3A0      #001=TOP$POLTS File=TOP$POLTS.:E05TSI                              WED 07/30/97 06:30 Page:660
MPC_KEY
 Sect OctLoc
   5     457   010*** ******   ****** ******   ****** ******                    ............

DCWLIST_BFR
 Sect OctLoc
   5     464   ****** ******   ****** ******   ****** ******   ****** ******    ................

DATA_VECTOR
 Sect OctLoc
   5   24724   ****** *7764*   000000 006000                                    ........

TIME_FPT
 Sect OctLoc
   5   24730   000001 777640   024742 006000   000000 177640   000000 006014    ................
   5   24734   000000 177640   000000 006014   000000 177640   000000 006014    ................
   5   24740   000000 777640   024726 006000   000005 000000   ****** ******    ................

DUMP_LINE
 Sect OctLoc
   5   24744   056*** ******   ****** ***040   056*** ******   ****** ***040    ....... .......
   5   24750   ****** ******   040040 040040   040040 040040   040040 040040    ....
   5   24754   040040 040040   040040 040040   040040 040040   040040 040040
   5   25000*  040040 040040   040040 040040   040040 040040   040*** ******                 ...

READ_BUF
 Sect OctLoc
   5   25005   040040 040040   040040 040040   040040 040040   040040 040040
   5   25025*  040040 040040   040040 040040   040040 040040   040040 040040

DUMP_
 Sect OctLoc
   5   25031   ****** 006000                                                    ....

CLOSE_DUMP
 Sect OctLoc
   5   25032   000003 777640   025064 006000   000000 177640   000000 006014    .....4..........
PL6.E3A0      #001=TOP$POLTS File=TOP$POLTS.:E05TSI                              WED 07/30/97 06:30 Page:661
   5   25036   000000 177640   000000 006014   000000 177640   000000 006014    ................
   5   25062*  000000 177640   000000 006014   000000 000002   000000 000040    ...............
   5   25066   000220 000000   000000 000000                                    ........

OPEN_LP
 Sect OctLoc
   5   25070   000025 777640   025134 006000   000000 177640   000000 006014    .....\..........
   5   25074   000000 177640   000000 006014   000000 177640   000000 006014    ................
   5   25134*  000000 000042   000000 000003   252525 004000   000040 252520    ..."......... ..
   5   25140   114120 040040   000000 000000   000000 777777   000000 000000    LP  ............
   5   25144   000000 000000   000000 000000   000000 000000   000000 000000    ................
   5   25150   251000 622000   000000 000000   000000 000000   111250 000000    ............I...
   5   25154   040040 040040   000000 000000   000000 000000   000000 000000        ............
   5   25160   000000 000000   ****** ******                                    ........

OPEN_DUMP_FILE
 Sect OctLoc
   5   25162   000025 777640   025226 006000   000000 177640   000000 006014    ................
   5   25166   000000 177640   000000 006014   000007 777640   025330 006000    ................
   5   25172   000000 177640   000000 006014   000000 177640   000000 006014    ................
   5   25206*  000001 777640   025340 006000   000000 177640   000000 006014    ................
   5   25212   000000 177640   000000 006014   000000 177640   000000 006014    ................
   5   25226*  000000 000272   000000 003001   252525 001000   000040 252520    ............. ..
   5   25232   000040 040040   000000 000002   000000 777777   000000 000000    .   ............
   5   25236   000000 000000   000000 000000   000000 000000   000000 000000    ................
   5   25242   251000 622000   000000 000000   000000 000000   111250 000000    ............I...
   5   25246   040040 040040   000000 000000   000000 000000   000000 000000        ............
   5   25252   000000 000000   ****** ******                                    ........

DUMP_PROMPT
 Sect OctLoc
   5   25254   000003 777640   025262 006000   000000 177640   000000 006014    ................
   5   25260   000004 577640   000072 006000   000000 000000   000000 000000    .....:..........
   5   25264   000000 000000   000000 000000                                    ........

LP_OR_FID
 Sect OctLoc
PL6.E3A0      #001=TOP$POLTS File=TOP$POLTS.:E05TSI                              WED 07/30/97 06:30 Page:662
   5   25266   000003 777640   025274 006000   000000 177640   000000 006014    ................
   5   25272   000004 777640   000077 006000   000000 000000   000000 000000    .....?..........
   5   25276   000000 000000   000000 000000                                    ........

WRITE_HDR_LINE
 Sect OctLoc
   5   25300   000003 777640   025310 006000   000000 177640   000000 006014    ................
   5   25304   000000 177640   000000 006014   000000 177640   000000 006014    ................
   5   25310   000000 400400   000000 000000   000000 000000   000000 000000    ................

WRITE_DUMP
 Sect OctLoc
   5   25314   000003 777640   025324 006000   000000 177640   000000 006014    ................
   5   25320   000000 177640   000000 006014   000000 177640   000000 006014    ................
   5   25324   000000 400400   000000 000000   000000 000000   000000 000000    ................

DUMP_NAME
 Sect OctLoc
   5   25330   037040 040040   040040 040040   040040 040040   040040 040040    .
   5   25334   040040 040040   040040 040040   040040 040040   040040 040040

DUMP_ACCT
 Sect OctLoc
   5   25340   040040 040040   040040 040040

MESSAGE
 Sect OctLoc
   5   25342   040040 040040   040040 123165   142145 170145   143165 164151          Subexecuti
   5   25346   166145 040167   162141 160160   151156 147040   165160 056***    ve wrapping up..

FPTN_
 Sect OctLoc
   6     000   000000 006000                                                    ....

DEVICE_INFO$
 Sect OctLoc
   6     001   000246 006000                                                    ....
PL6.E3A0      #001=TOP$POLTS File=TOP$POLTS.:E05TSI                              WED 07/30/97 06:30 Page:663

YES_RETURN_MSG_1
 Sect OctLoc
   6     002   124117 114124   123040 162145   143157 155155   145156 144163    TOLTS recommends
   6     006   040164 150141   164040 164150   145040 146157   154154 157167     that the follow
   6     012   151156 147040   143150 141156   156145 154163   040163 150141    ing channels sha
   6     016   154154 040142   145*** ******                                    ll be...

YES_RETURN_MSG_2
 Sect OctLoc
   6     020   162145 164165   162156 145144   040142 141143   153040 164157    returned back to
   6     024   040164 150145   040163 171163   164145 155040   166151 141040     the system via
   6     030   123131 123103   117116 ******                                    SYSCON..

NO_RETURN_MSG
 Sect OctLoc
   6     032   105162 162157   162163 040144   145164 145143   164145 144040    Errors detected
   6     036   157156 040143   150141 156156   145154 163040   141156 144040    on channels and
   6     042   164150 165163   040163 150157   165154 144040   156157 164040    thus should not
   6     046   142145 040162   145164 165162   156145 144***                    be returned.

HEAD_KEY
 Sect OctLoc
   6     051   001000 ******                                                    ....

IOM_KEY
 Sect OctLoc
   6     052   004111 117115   060*** ******   004111 117115   061*** ******    .IOM0....IOM1...
   6     056   004111 117115   062*** ******   004111 117115   063*** ******    .IOM2....IOM3...

IMU_KEY
 Sect OctLoc
   6     062   004111 115125   060*** ******   004111 115125   061*** ******    .IMU0....IMU1...
   6     066   004111 115125   062*** ******   004111 115125   063*** ******    .IMU2....IMU3...

DUMP_QUES
 Sect OctLoc
PL6.E3A0      #001=TOP$POLTS File=TOP$POLTS.:E05TSI                              WED 07/30/97 06:30 Page:664
   6     072   104157 040171   157165 040167   141156 164040   141040 144165    Do you want a du
   6     076   155160 072***                                                    mp:.

FID_QUES
 Sect OctLoc
   6     077   105156 164145   162040 047114   120047 040157   162040 074146    Enter 'LP' or <f
   6     103   151144 076072                                                    id>:

YES_RESP
 Sect OctLoc
   6     104   131105 123***                                                    YES.

NO_RESP
 Sect OctLoc
   6     105   116117 040***                                                    NO .

CRLF_
 Sect OctLoc
   6     106   015012 ******                                                    ....

(unnamed)
 Sect OctLoc
   6     107   115124 107040   120114 124040   124115 104040   115124 122040    MTG PLT TMD MTR
   6     113   115104 122040   115106 103040   115124 103040   115104 123040    MDR MFC MTC MDS
   6     117   111124 122040   115104 103040   000000 700000   115124 125070    ITR MDC ....MTU8
   6     123   062060 060040   116117 116105   000000 770000   141154 154040    200 NONE....all
   6     127   124103 040040   125103 040040   104103 040040   123103 040040    TC  UC  DC  SC
   6     133   115124 125060   066063 060040   120103 125060   061062 060040    MTU0630 PCU0120
   6     137   120122 125061   062060 060040   120122 125061   062060 063040    PRU1200 PRU1203
   6     143   120122 125061   066060 060040   120122 125061   062060 061040    PRU1600 PRU1201
   6     147   120122 125060   071060 061040   120122 125060   071060 063040    PRU0901 PRU0903
   6     153   120103 125060   061062 061040   115124 125070   062060 065040    PCU0121 MTU8205
   6     157   115124 125070   062060 066040   115124 125070   062060 070040    MTU8206 MTU8208
   6     163   115123 125063   063070 060040   115123 125063   063071 062040    MSU3380 MSU3392
   6     167   115124 125060   066060 060040   115124 125060   066061 060040    MTU0600 MTU0610
   6     173   115123 125070   060070 062040   115123 125070   060071 062040    MSU8082 MSU8092
   6     177   115123 125063   063071 063040   115123 125063   063070 063040    MSU3393 MSU3383
PL6.E3A0      #001=TOP$POLTS File=TOP$POLTS.:E05TSI                              WED 07/30/97 06:30 Page:665
   6     203   115123 125063   063071 061040   115123 125063   063071 060040    MSU3391 MSU3390
   6     207   115123 125063   063070 062040   115123 125063   063070 061040    MSU3382 MSU3381
   6     213   103122 125061   060065 060040   115123 125060   065060 061040    CRU1050 MSU0501
   6     217   115123 125060   064065 061040   103122 125060   065060 061040    MSU0451 CRU0501
   6     223   103117 116123   117114 105040   115066 060061   124120 125122    CONSOLE M601TPUR
   6     227   125103 115116   125122 124120   115123 120070   115066 061060    UCMNURTPMSP8M610
   6     233   115061 071061   115065 060060   111103 122104   111120 122065    M191M500ICRDIPR5
   6     237   104065 060060   116111 117040   122120 115040   103117 114124    D500NIO RPM COLT
   6     243   123040 040040   115117 114124   123040 040040   120117 114124    S   MOLTS   POLT
   6     247   123040 040040   123117 114124   123040 040040   123117 114124    S   SOLTS   SOLT
   6     253   101040 040040   120101 103124   040040 040040   114120 040040    A   PACT    LP
   6     257   115124 120070   062061 066040   125122 120070   060061 062040    MTP8216 URP8012
   6     263   125122 120070   066060 060040   125122 120070   066060 062040    URP8600 URP8602
   6     267   125122 120105   125122 120040   125122 120070   066060 061040    URPEURP URP8601
   6     273   125122 120070   060061 063040   115124 120070   062062 065040    URP8013 MTP8225
   6     277   115124 120070   062062 070040   125122 120070   060061 061040    MTP8228 URP8011
   6     303   115124 120070   062062 066040   115124 120070   062061 070040    MTP8226 MTP8218
   6     307   115123 120063   071071 063040   115123 123070   060070 060040    MSP3993 MSS8080
   6     313   115124 120070   062061 065040   115123 123070   060071 060040    MTP8215 MSS8090
   6     317   115123 120070   060062 061040   115123 120070   060062 062040    MSP8021 MSP8022
   6     323   115123 120063   071071 064040   115123 120063   070070 065040    MSP3994 MSP3885
   6     327   115123 120063   071071 061040   115123 120063   071071 062040    MSP3991 MSP3992
   6     333   115123 120063   070070 066040   115123 120063   070070 061040    MSP3886 MSP3881
   6     337   115123 120063   070070 062040                                    MSP3882

(unnamed)
 Sect OctLoc
   8     000   000001 400000   000002 400000   000003 400000   000007 700000    ................
   8     004   077777 777777   037777 700000   777777 400007   000173 006000    ?............{..
   8     010   777777 777000   000107 777640   777777 777770   007777 770000    .....G..........
   8     014   000001 000001   000000 006003   000001 777640   000244 006000    ................
   8     020   777767 777777   000004 006000   607777 777777   777777 377777    ................
   8     024   000000 177640   000000 006014   000016 577640   000032 006000    ................
   8     030   000015 177640   000002 006000   000011 377640   000020 006000    ................
   8     034   000012 177640   000264 006000   001777 776000   000000 000027    ................
   8     040   000024 600000   000024 400000   000000 777640   000051 006000    .............)..
   8     044   003720 777640   000052 006000   000062 006000   000001 777776    .....*...2......
PL6.E3A0      #001=TOP$POLTS File=TOP$POLTS.:E05TSI                              WED 07/30/97 06:30 Page:666
   8     050   000002 177640   000454 006000   000002 177640   000457 006000    ................
   8     054   777777 777377   777007 777777   737777 777777   757777 777777    ................
   8     060   767777 777777   002423 777640   000464 006000   577777 777777    ................
   8     064   000007 577640   025342 006000   000023 777640   025005 006000    ................
   8     070   131040 040040   056040 040040   777777 776000   777777 037777    Y   .   ........
   8     074   000037 177640   024744 006000   000022 177640   024744 006000    ................
   8     100   777777 741777   677777 777777   777773 777777   777776 777777    ................
     5414    16783
     5415    16784    3   END RETURN_SPECIAL_STATUS ;
     5416    16785    2   END TOP$TIO_DONE ;
     5417    16786    1   END TOP$POLTS ;

PL6.E3A0      #001=TOP$POLTS File=TOP$POLTS.:E05TSI                              WED 07/30/97 06:30 Page:667
--  Include file information  --

   TD$STRUCT.:E05TOU  is referenced.
   TO_PERR_C.:E05TOU  is referenced.
   TOT_TOLTS_M.:E05TOU  is referenced.
   TOT_RQSTS_E.:E05TOU  is referenced.
   NI_DATA_C.:E05TOU  is referenced.
   CP_6_SUBS.:E05TOU  is referenced.
   CP_6_C.:E05TOU  is referenced.
   CP_6.:E05TOU  cannot be made into a system file and is referenced.
   B_ERRORS_C.:E05TOU  is referenced.
   B$JIT_C.:E05TOU  is referenced.
   B$JIT.:E05TOU  cannot be made into a system file and is referenced.
      No diagnostics issued in procedure TOP$POLTS.
PL6.E3A0      #001=TOP$POLTS File=TOP$POLTS.:E05TSI                              WED 07/30/97 06:30 Page:668

 **** Procedure blocks ****

LB#    Line#s    #stmts #vars Sect# OctLoc  P A C   NP Lvl/name
  0    56- 16786   1458   207     7      0  y   y    4   1 TOP$POLTS
                                  7    720      y    4     TOP$POLTS_IO
  1 10682- 10759     35    14     7    725  y   y    4     2 TOP$MME_ALCMCA
  2 10726- 10740     10     2     7   1010  y y y    1      3 DEDICATE_CHANNEL_3
  3 10750- 10758      6     0     7   1056  y y y    0      3 UNDEDICATE_CHANNEL_3
  4 10838- 11600    215    31     7   1073  y   y    9     2 TOP$MME_ALLOCR
  5 10921- 10953     24     2     7   1215  y   y    1      3 MATCH_ICCDD
  6 10970- 11027     10     9     7   1333  y   y    1      3 GET_TEST_DCB
  7 11065- 11102     29     2     7   1372  y   y    1      3 SET_TDOPEN_FPT
  8 11117- 11141     12     0     7   1646  y y y    0      3 ALLOCATE_DEVICE
  9 11157- 11177      9     5     7   1726  y   y    1      3 SET_MTAR_PERMISSION
 10 11209- 11563     97    13     7   1762  y y y    1      3 BUILD_DEVICE_SCT
 11 11273- 11283      6     0     7   2133  y   y    0       4 BUILD_CHN_3_SCT
 12 11293- 11302      5     0     7   2156  y   y    0       4 BUILD_DISK_SCT
 13 11316- 11477     39     0     7   2201  y y y    0       4 BUILD_TAPE_SCT
 14 11398- 11476     28    13     7   2253  y y y    0        5 GET_DENSITIES
 15 11493- 11505      8     0     7   2433  y   y    0       4 BUILD_PRINTER_SCT
 16 11515- 11524      5     0     7   2502  y   y    0       4 BUILD_CREADER_SCT
 17 11534- 11543      5     0     7   2525  y   y    0       4 BUILD_CPUNCH_SCT
 18 11553- 11562      5     0     7   2550  y   y    0       4 BUILD_CONSOLE_SCT
 19 11572- 11599     10     7     7   2565  y   y    1      3 BUILD_CONTROLLER_SCT
 20 11624- 11639      5     9     7   2623  y   y    4     2 TOP$MME_ASGPAT
 21 11660- 11702     15     7     7   2650  y   y    3     2 TOP$MME_CHANTM
 22 11684- 11701     10     4     7   2701  y   y    2      3 MATCH_PAT_PTR
 23 11712- 11722      3     4     7   2745  y   y    2     2 TOP$MME_DEALCP
 24 11739- 11755      6     9     7   2754  y   y    4     2 TOP$MME_EXPDEV
 25 11776- 11795      6    10     7   3003  y   y    3     2 TOP$MME_GETCSC
 26 11806- 11820      3    12     7   3030  y   y    6     2 TOP$MME_GETLIN
 27 11899- 12031     44    10     7   3036  y   y    4     2 TOP$MME_HUNGTM
 28 11937- 11954     10     4     7   3124  y   y    2      3 MATCH_IO_ENTRY
 29 11978- 11997     11     3     7   3170  y   y    1      3 RETURN_STATUS
 30 12015- 12030      7     3     7   3220  y   y    1      3 GIVE_COURTESY_CALL
 31 12048- 12064      6     8     7   3241  y   y    3     2 TOP$MME_IOCONS
 32 12124- 12188     26    18     7   3272  y   y    2     2 TOP$MME_IPCWDT
PL6.E3A0      #001=TOP$POLTS File=TOP$POLTS.:E05TSI                              WED 07/30/97 06:30 Page:669
 33 12201- 12211      3     4     7   3363  y   y    2     2 TOP$MME_LODIMG
 34 12224- 12235      3     6     7   3372  y   y    3     2 TOP$MME_LODVFC
 35 12252- 12291     16    20     7   3401  y   y    3     2 TOP$MME_LPWDT
 36 12332- 12578     67    16     7   3454  y   y    5     2 TOP$MME_PACMAN
 37 12413- 12445     13    11     7   3575  y y y    3      3 SUSPEND_CHANNELS
 38 12467- 12521     23    16     7   3644  y   y    1      3 REPORT_CHANNELS
 39 12549- 12577      9     7     7   3736  y y y    3      3 RELEASE_CHANNELS
 40 12614- 12691     38    23     7   3772  y   y    2     2 TOP$MME_POINIT
 41 12709- 12730      6    13     7   4150  y   y    4     2 TOP$MME_PRTRAN
 42 12755- 12829     27    21     7   4200  y   y    9     2 TOP$MME_RELEAS
 43 12810- 12828     11     2     7   4346  y y y    1      3 RELEASE_DEVICE
 44 12840- 12854      3    12     7   4431  y   y    6     2 TOP$MME_RELLNK
 45 12865- 12875      3     4     7   4437  y   y    2     2 TOP$MME_RELMPC
 46 12885- 12895      3     4     7   4445  y   y    2     2 TOP$MME_RLSPAT
 47 13007- 14346    272    19     7   4454  y   y    6     2 TOP$MME_SCTCMP
 48 13092- 13115     16     3     7   4574  y y y    1      3 FIND_VACANT_ENTRY
 49 13194- 14212    188    21     7   4646  y y y    4      3 GET_DEVICE_CODE
 50 13541- 13602     11    22     7   5010  y   y    3       4 BUILD_SCT_FICCDD
 51 13623- 13733     18    16     7   5057  y y y    2       4 GET_CHANNEL_DEVICE
 52 13751- 13801     13     9     7   5154  y y y    2       4 BOGUS_TDOPEN
 53 13815- 13882      8    11     7   5234  y   y    2       4 GET_MODEL_ID
 54 13900- 14074     30     8     7   5264  y y y    3       4 VALIDATE_DEVICE_TYPE
 55 13987- 14073     16    28     7   5343  y y y    3        5 MAP_MPC_DEVICE
 56 14091- 14211     76    12     7   5441  y y y    2       4 MAP_DEVICE
 57 14247- 14345     48    24     7   6240  y y y    2      3 BUILD_TEST_CONTROL_ENTRY
 58 14733- 15284    187    20     7   6771  y   y    8     2 TOP$MME_TESTIO
 59 14783- 14804      5     4     7   7046  y   y    0      3 FRAME_DATA_AREA
 60 14815- 14834      4     8     7   7070  y   y    2      3 GET_SCT_ADR
 61 14846- 14862      6     7     7   7110  y   y    2      3 COPY_IO_ENTRY
 62 14902- 14922     14     2     7   7144  y   y    1      3 SET_TDIO_FPT
 63 14946- 15194    132    19     7   7236  y   y    1      3 BUILD_DCW_LIST
 64 15003- 15069     36     0     7   7346  y   y    0       4 BUILD_1ST_IDCW
 65 15071- 15108     15     0     7   7627  y   y    0       4 BUILD_2ND_IDCW
 66 15110- 15120      5     0     7   7720  y   y    0       4 BUILD_FAKE_DCW
 67 15122- 15162     32     2     7   7737  y   y    0       4 PROCESS_DCWS
 68 15164- 15184     15     0     7  10047  y   y    0       4 PROCESS_IDCW
 69 15186- 15193      4     0     7  10134  y   y    0       4 BAD_LIST_ABORT
PL6.E3A0      #001=TOP$POLTS File=TOP$POLTS.:E05TSI                              WED 07/30/97 06:30 Page:670
 70 15209- 15222      7     2     7  10147  y   y    1      3 ISSUE_IO
 71 15241- 15283      9    13     7  10166  y   y    5      3 SET_RETURN_VALUES
 72 15295- 15305      3     4     7  10234  y   y    2     2 TOP$MME_UNSPEC
 73 15321- 16289    228    80     7  10242  y   y    5     2 TOP$MME_WRDUMP
 74 15919- 15945     18     2     7  10266  y   y    0      3 WRAP_DUMP_MSG
 75 15947- 15995     30     3     7  10340  y y y    0      3 DO_YOU_WANT_A_DUMP
 76 15997- 16063     41     0     7  10477  y y y    0      3 GET_DUMP_OUTPUT_MODE
 77 16032- 16062     19     0     7  10566  y y y    0       4 SETUP_DUMP_FID
 78 16065- 16085     11     0     7  10657  y y y    0      3 OPEN_DUMP_RECEPTICLE
 79 16087- 16119     25     1     7  10730  y y y    0      3 SET_DUMP_PARAMS
 80 16121- 16277     89     0     7  11034  y   y    0      3 EXECUTE_DUMP
 81 16187- 16218     18     7     7  11265  y   y    0       4 GET_BCD_BUFFER
 82 16220- 16275     21     5     7  11350  y   y    0       4 BREAK_HDR_LINE
 83 16279- 16288      4     0     7  11504  y   y    0      3 CLOSE_DUMP_RECEPTICLE
 84 16302- 16454     78    38     7  11521  y   y    7     2 BUILD_SCTWRK
 85 16465- 16482     10     4     7  12520  y   y    2     2 MATCH_ICC
 86 16503- 16533     20     4     7  12567  y   y    2     2 MATCH_SCT_ADR
 87 16597- 16785     70     3     7  12677  y   y    0     2 TOP$TIO_DONE
 88 16668- 16708     26     4     7  13010  y   y    0      3 RETURN_TIO_STATUS
 89 16727- 16742      8     1     7  13117  y   y    0      3 PAY_TIO_CC
 90 16770- 16784      7     1     7  13145  y   y    0      3 RETURN_SPECIAL_STATUS
PL6.E3A0      #001=TOP$POLTS File=TOP$POLTS.:E05TSI                              WED 07/30/97 06:30 Page:671

    **** Executable statements  ****

  Exec cost Stmt Sec OctLoc Type   LB Label              Exec cost Stmt Sec OctLoc Type   LB Label

              56   7      0 Proc    0                  $$$$$$$$$$ 10552   7      2 DoCase  0
           10553   7    156 Case    0                         $$$ 10554   7    156 Call    0
           10555   7    172 Case    0                   $$$$$$$$$ 10556   7    172 Call    0
           10558   7    227 Case    0                        $$$$ 10559   7    227 Call    0
           10560   7    245 Case    0                         $$$ 10561   7    245 Call    0
           10562   7    260 Case    0                           $ 10563   7    260 Call    0
           10564   7    270 Case    0                        $$$$ 10565   7    270 Call    0
           10566   7    306 Case    0                         $$$ 10567   7    306 Call    0
           10568   7    321 Case    0                      $$$$$$ 10569   7    321 Call    0
           10571   7    345 Case    0                        $$$$ 10572   7    345 Call    0
           10573   7    363 Case    0                         $$$ 10574   7    363 Call    0
           10575   7    376 Case    0                           $ 10576   7    376 Call    0
           10577   7    406 Case    0                           $ 10578   7    406 Call    0
           10579   7    416 Case    0                         $$$ 10580   7    416 Call    0
           10581   7    431 Case    0                         $$$ 10582   7    431 Call    0
           10583   7    444 Case    0                       $$$$$ 10584   7    444 Call    0
           10585   7    465 Case    0                           $ 10586   7    465 Call    0
           10587   7    474 Case    0                        $$$$ 10588   7    474 Call    0
           10590   7    512 Case    0                    $$$$$$$$ 10591   7    512 Call    0
           10593   7    545 Case    0                      $$$$$$ 10594   7    545 Call    0
           10596   7    571 Case    0                           $ 10597   7    571 Call    0
           10598   7    601 Case    0                           $ 10599   7    601 Call    0
           10600   7    611 Case    0                      $$$$$$ 10601   7    611 Call    0
           10603   7    635 Case    0                    $$$$$$$$ 10604   7    635 Call    0
           10606   7    667 Case    0                           $ 10607   7    667 Call    0
           10608   7    677 Case    0                        $$$$ 10609   7    677 Call    0
           10611   7    717 EndCse  0                             10612   7    717 Return  0
           10661   7    720 Entry   0                             10663   7    722 Call    0
           10664   7    724 Return  0                             10682   7    725 Proc    1
        $$ 10695   7    726 Assign  1                          $$ 10696   7    732 Assign  1
           10697   7    740 Assign  1                           $ 10698   7    745 Call    1
        $$ 10701   7    753 Assign  1                          $$ 10702   7    757 DoCase  1
           10703   7    765 Case    1                           $ 10704   7    765 Call    1
PL6.E3A0      #001=TOP$POLTS File=TOP$POLTS.:E05TSI                              WED 07/30/97 06:30 Page:672
           10705   7    772 Do      1                          $$ 10706   7    772 Assign  1
           10707   7    776 EndDo   1                             10708   7    777 Case    1
           10709   7    777 Call    1                             10710   7   1002 Do      1
        $$ 10711   7   1002 Assign  1                             10712   7   1006 EndDo   1
           10713   7   1006 EndCse  1                             10714   7   1006 Return  1
           10726   7   1010 Proc    2                             10730   7   1011 Assign  2
           10731   7   1014 Assign  2                       $$$$$ 10732   7   1016 Assign  2
       $$$ 10733   7   1030 Assign  2                          $$ 10734   7   1037 Assign  2
$$$$$$$$$$ 10735   7   1045 MonCal  2                             10736   7   1052 Do      2
           10737   7   1052 Altret  2                             10739   7   1054 Return  2
           10750   7   1056 Proc    3                             10752   7   1057 Assign  3
 $$$$$$$$$ 10753   7   1062 MonCal  3                             10754   7   1067 Do      3
           10755   7   1067 Altret  3                             10757   7   1071 Return  3
           10838   7   1073 Proc    4                             10868   7   1074 Call    4
       $$$ 10871   7   1100 If      4                             10873   7   1106 Assign  4
           10874   7   1113 Do      4                             10875   7   1113 Call    4
           10876   7   1117 Call    4                             10877   7   1123 Call    4
           10878   7   1126 Do      4                          $$ 10879   7   1126 Assign  4
        $$ 10880   7   1132 Assign  4                             10881   7   1136 Return  4
           10883   7   1140 Call    4                             10884   7   1144 EndDo   4
         $ 10886   7   1144 Call    4                             10887   7   1151 Do      4
        $$ 10888   7   1151 Assign  4                          $$ 10889   7   1155 Assign  4
           10890   7   1161 Return  4                             10892   7   1163 Call    4
           10894   7   1167 Assign  4                        $$$$ 10895   7   1171 Call    4
        $$ 10897   7   1207 Assign  4                             10898   7   1213 Return  4
           10921   7   1215 Proc    5                           $ 10927   7   1216 Assign  5
         $ 10929   7   1223 If      5                             10930   7   1227 Do      5
           10931   7   1227 Assign  5                   $$$$$$$$$ 10932   7   1234 Assign  5
           10933   7   1240 Assign  5                             10934   7   1245 EndDo   5
           10935   7   1246 Do      5                             10936   7   1246 Assign  5
         $ 10937   7   1253 Assign  5                             10938   7   1261 Assign  5
           10939   7   1266 EndDo   5                             10940   7   1266 Assign  5
           10941   7   1270 Assign  5                             10943   7   1274 Assign  5
           10944   7   1276 DoWhil  5                       $$$$$ 10945   7   1301 If      5
           10946   7   1312 Return  5                             10947   7   1314 Assign  5
           10948   7   1317 EndWhi  5                             10950   7   1321 Assign  5
           10951   7   1325 Call    5                             10953   7   1331 EndPrc  5
PL6.E3A0      #001=TOP$POLTS File=TOP$POLTS.:E05TSI                              WED 07/30/97 06:30 Page:673
           10970   7   1333 Proc    6                   $$$$$$$$$ 11016   7   1334 IntCal  6
$$$$$$$$$$ 11017   7   1343 MonCal  6                             11018   7   1347 Do      6
      $$$$ 11019   7   1347 Assign  6                             11020   7   1356 Return  6
           11023   7   1360 Do      6                         $$$ 11024   7   1360 Call    6
           11025   7   1370 EndDo   6                             11027   7   1370 EndPrc  6
           11065   7   1372 Proc    7                        $$$$ 11071   7   1373 Assign  7
$$$$$$$$$$ 11073   7   1402 Do Sel  7                             11074   7   1543 Select  7
           11075   7   1543 Assign  7                             11076   7   1546 Select  7
           11077   7   1546 Assign  7                             11078   7   1550 Assign  7
           11079   7   1554 Select  7                             11080   7   1554 Assign  7
           11081   7   1557 Select  7                             11082   7   1557 Assign  7
           11083   7   1562 Select  7                          $$ 11084   7   1562 DoCase  7
           11085   7   1573 Case    7                             11086   7   1573 Assign  7
           11087   7   1576 Case    7                             11088   7   1576 Assign  7
           11089   7   1600 EndCse  7                             11090   7   1601 Select  7
           11091   7   1601 Assign  7                             11092   7   1605 Call    7
           11093   7   1611 EndSel  7                             11095   7   1611 Assign  7
           11096   7   1616 Assign  7                             11097   7   1622 Assign  7
      $$$$ 11098   7   1625 Assign  7                         $$$ 11099   7   1635 Assign  7
           11100   7   1644 Return  7                             11117   7   1646 Proc    8
$$$$$$$$$$ 11121   7   1647 MonCal  8                             11122   7   1654 Do      8
$$$$$$$$$$ 11125   7   1654 If      8                             11129   7   1703 Do      8
           11130   7   1703 Assign  8                  $$$$$$$$$$ 11131   7   1705 MonCal  8
           11132   7   1711 EndDo   8                             11133   7   1712 Do      8
       $$$ 11135   7   1712 Call    8 NO_ALLOCATION               11136   7   1722 Altret  8
           11139   7   1724 Return  8                             11157   7   1726 Proc    9
     $$$$$ 11167   7   1727 If      9                             11168   7   1740 Do      9
         $ 11169   7   1740 Assign  9                             11170   7   1745 If      9
         $ 11171   7   1751 Assign  9                           $ 11172   7   1755 Assign  9
           11173   7   1760 EndDo   9                             11175   7   1760 Return  9
           11209   7   1762 Proc   10                           $ 11237   7   1763 Assign 10
$$$$$$$$$$ 11238   7   1770 DoCase 10                             11239   7   2071 Case   10
           11240   7   2071 Call   10                             11241   7   2074 Case   10
           11242   7   2074 Call   10                             11243   7   2077 Case   10
           11244   7   2077 Call   10                             11245   7   2102 Do     10
           11246   7   2102 Altret 10                             11248   7   2105 Case   10
           11249   7   2105 Call   10                             11250   7   2110 Case   10
PL6.E3A0      #001=TOP$POLTS File=TOP$POLTS.:E05TSI                              WED 07/30/97 06:30 Page:674
           11251   7   2110 Call   10                             11252   7   2113 Case   10
           11253   7   2113 Call   10                             11254   7   2116 Case   10
           11255   7   2116 Call   10                             11256   7   2121 Case   10
           11257   7   2121 Assign 10                             11258   7   2125 Call   10
           11259   7   2131 EndCse 10                             11260   7   2131 Return 10
           11273   7   2133 Proc   11                           $ 11277   7   2134 Assign 11
     $$$$$ 11278   7   2140 Assign 11                             11279   7   2150 Assign 11
           11280   7   2152 Assign 11                             11281   7   2154 Return 11
           11293   7   2156 Proc   12                           $ 11297   7   2157 Assign 12
     $$$$$ 11298   7   2163 Assign 12                           $ 11299   7   2173 Assign 12
           11300   7   2177 Return 12                             11316   7   2201 Proc   13
         $ 11320   7   2202 Assign 13                       $$$$$ 11321   7   2206 Assign 13
         $ 11322   7   2216 Assign 13                        $$$$ 11323   7   2222 If     13
           11325   7   2232 Do     13                             11326   7   2232 Call   13
   $$$$$$$ 11327   7   2234 Assign 13                             11328   7   2247 EndDo  13
           11329   7   2247 Return 13                             11332   7   2251 Altret 13 BAD_SURVEY
           11398   7   2253 Proc   14                             11442   7   2254 Assign 14
       $$$ 11443   7   2256 Assign 14                             11444   7   2267 Assign 14
           11445   7   2271 Assign 14                        $$$$ 11446   7   2273 Assign 14
           11447   7   2302 Assign 14                             11448   7   2304 Assign 14
           11449   7   2306 Assign 14                             11450   7   2310 Assign 14
           11451   7   2311 Assign 14                  $$$$$$$$$$ 11452   7   2312 MonCal 14
           11453   7   2316 Do     14                    $$$$$$$$ 11454   7   2316 Assign 14
           11455   7   2331 If     14                             11457   7   2336 Do     14
       $$$ 11458   7   2336 If     14                         $$$ 11459   7   2345 Assign 14
       $$$ 11460   7   2356 Assign 14                  $$$$$$$$$$ 11461   7   2366 Assign 14
           11462   7   2405 Return 14                             11464   7   2407 Do     14
           11465   7   2407 Assign 14                             11466   7   2413 Call   14
           11467   7   2417 Altret 14                             11471   7   2421 Do     14
       $$$ 11472   7   2421 Call   14                             11473   7   2431 Altret 14
           11493   7   2433 Proc   15                           $ 11497   7   2434 Assign 15
     $$$$$ 11498   7   2440 Assign 15                           $ 11499   7   2450 Assign 15
           11500   7   2454 Assign 15                        $$$$ 11501   7   2456 Assign 15
      $$$$ 11502   7   2467 Assign 15                             11503   7   2500 Return 15
           11515   7   2502 Proc   16                           $ 11519   7   2503 Assign 16
     $$$$$ 11520   7   2507 Assign 16                           $ 11521   7   2517 Assign 16
           11522   7   2523 Return 16                             11534   7   2525 Proc   17
PL6.E3A0      #001=TOP$POLTS File=TOP$POLTS.:E05TSI                              WED 07/30/97 06:30 Page:675
         $ 11538   7   2526 Assign 17                       $$$$$ 11539   7   2532 Assign 17
         $ 11540   7   2542 Assign 17                             11541   7   2546 Return 17
           11553   7   2550 Proc   18                           $ 11557   7   2551 Assign 18
           11558   7   2555 Assign 18                           $ 11559   7   2557 Assign 18
           11560   7   2563 Return 18                             11572   7   2565 Proc   19
         $ 11588   7   2566 Assign 19                             11589   7   2573 Assign 19
       $$$ 11590   7   2576 If     19                             11592   7   2605 Do     19
        $$ 11593   7   2605 If     19                             11595   7   2613 Assign 19
           11596   7   2615 Assign 19                             11597   7   2617 Return 19
           11599   7   2621 EndPrc 19                             11624   7   2623 Proc   20
         $ 11634   7   2624 Call   20                       $$$$$ 11635   7   2632 Assign 20
        $$ 11636   7   2642 Assign 20                             11637   7   2646 Return 20
           11660   7   2650 Proc   21                           $ 11669   7   2651 Call   21
$$$$$$$$$$ 11670   7   2657 Assign 21                          $$ 11671   7   2673 Assign 21
           11672   7   2677 Return 21                             11684   7   2701 Proc   22
           11691   7   2702 Assign 22                             11692   7   2704 DoWhil 22
  $$$$$$$$ 11693   7   2707 If     22                             11694   7   2724 Return 22
           11695   7   2726 Assign 22                             11696   7   2731 EndWhi 22
           11698   7   2733 Assign 22                             11699   7   2737 Call   22
           11701   7   2743 EndPrc 22                             11712   7   2745 Proc   23
        $$ 11719   7   2746 Assign 23                             11720   7   2752 Return 23
           11739   7   2754 Proc   24                           $ 11749   7   2755 Call   24
         $ 11750   7   2763 Assign 24                           $ 11751   7   2770 Assign 24
        $$ 11752   7   2775 Assign 24                             11753   7   3001 Return 24
           11776   7   3003 Proc   25                           $ 11789   7   3004 Call   25
           11790   7   3012 Assign 25                           $ 11791   7   3016 Assign 25
        $$ 11792   7   3022 Assign 25                             11793   7   3026 Return 25
           11806   7   3030 Proc   26                             11817   7   3031 Assign 26
           11818   7   3034 Return 26                             11899   7   3036 Proc   27
         $ 11911   7   3037 Call   27                     $$$$$$$ 11912   7   3045 If     27
           11913   7   3062 Do     27                             11914   7   3062 Call   27
           11915   7   3066 Call   27                             11916   7   3072 Assign 27
       $$$ 11917   7   3074 Assign 27                          $$ 11918   7   3102 Assign 27
           11919   7   3106 EndDo  27                             11920   7   3107 Do     27
        $$ 11921   7   3107 Assign 27                             11922   7   3113 Assign 27
        $$ 11923   7   3116 Assign 27                             11924   7   3122 EndDo  27
           11925   7   3122 Return 27                             11937   7   3124 Proc   28
PL6.E3A0      #001=TOP$POLTS File=TOP$POLTS.:E05TSI                              WED 07/30/97 06:30 Page:676
           11944   7   3125 Assign 28                             11945   7   3127 DoWhil 28
  $$$$$$$$ 11946   7   3132 If     28                             11947   7   3147 Return 28
           11948   7   3151 Assign 28                             11949   7   3154 EndWhi 28
           11951   7   3156 Assign 28                             11952   7   3162 Call   28
           11954   7   3166 EndPrc 28                             11978   7   3170 Proc   29
       $$$ 11985   7   3171 If     29                             11987   7   3176 Do     29
           11988   7   3176 Assign 29                           $ 11989   7   3201 Assign 29
           11990   7   3204 Assign 29                             11991   7   3210 Assign 29
           11992   7   3212 Assign 29                             11993   7   3214 Assign 29
           11994   7   3216 EndDo  29                             11995   7   3216 Return 29
           12015   7   3220 Proc   30                         $$$ 12022   7   3221 If     30
           12024   7   3226 Do     30                             12025   7   3226 Assign 30
         $ 12026   7   3231 Call   30                             12027   7   3237 EndDo  30
           12028   7   3237 Return 30                             12048   7   3241 Proc   31
         $ 12058   7   3242 Call   31                       $$$$$ 12059   7   3250 Assign 31
        $$ 12060   7   3260 Assign 31                          $$ 12061   7   3264 Assign 31
           12062   7   3270 Return 31                             12124   7   3272 Proc   32
        $$ 12159   7   3273 If     32                             12160   7   3300 Do     32
        $$ 12161   7   3300 Assign 32                          $$ 12162   7   3303 Assign 32
           12163   7   3306 EndDo  32                             12164   7   3307 Do     32
   $$$$$$$ 12165   7   3307 Assign 32                     $$$$$$$ 12166   7   3312 Assign 32
           12167   7   3315 EndDo  32                           $ 12168   7   3315 Call   32
           12169   7   3323 Assign 32                             12170   7   3325 Assign 32
       $$$ 12171   7   3327 Assign 32                             12172   7   3334 Assign 32
           12173   7   3336 Assign 32                             12174   7   3340 Assign 32
           12175   7   3342 Assign 32                             12176   7   3344 Assign 32
           12177   7   3346 DoInhi 32                             12178   7   3346 Assign 32
$$$$$$$$$$ 12179   7   3347 MonCal 32                             12180   7   3352 EndInh 32
$$$$$$$$$$ 12184   7   3352 MonCal 32                          $$ 12185   7   3355 Assign 32
           12186   7   3361 Return 32                             12201   7   3363 Proc   33
        $$ 12208   7   3364 Assign 33                             12209   7   3370 Return 33
           12224   7   3372 Proc   34                          $$ 12232   7   3373 Assign 34
           12233   7   3377 Return 34                             12252   7   3401 Proc   35
        $$ 12275   7   3402 If     35                             12276   7   3407 Do     35
        $$ 12277   7   3407 Assign 35                          $$ 12278   7   3412 Assign 35
           12279   7   3415 EndDo  35                             12280   7   3416 Do     35
   $$$$$$$ 12281   7   3416 Assign 35                     $$$$$$$ 12282   7   3421 Assign 35
PL6.E3A0      #001=TOP$POLTS File=TOP$POLTS.:E05TSI                              WED 07/30/97 06:30 Page:677
           12283   7   3424 EndDo  35                           $ 12284   7   3424 Call   35
       $$$ 12285   7   3432 Assign 35                          $$ 12286   7   3437 Assign 35
        $$ 12287   7   3443 Assign 35                             12288   7   3447 Assign 35
           12289   7   3452 Return 35                             12332   7   3454 Proc   36
         $ 12354   7   3455 Assign 36                           $ 12355   7   3462 Call   36
        $$ 12356   7   3470 Assign 36                          $$ 12357   7   3476 Assign 36
        $$ 12358   7   3506 Assign 36                          $$ 12361   7   3512 DoCase 36
           12362   7   3520 Case   36                         $$$ 12363   7   3520 Call   36
           12364   7   3531 Do     36                         $$$ 12366   7   3531 If     36
        $$ 12367   7   3540 Assign 36                          $$ 12368   7   3545 Assign 36
           12369   7   3551 EndDo  36                             12370   7   3552 Case   36
           12371   7   3552 Call   36                         $$$ 12372   7   3556 Call   36
           12373   7   3567 Do     36                          $$ 12375   7   3567 Assign 36
           12376   7   3573 EndDo  36                             12377   7   3573 EndCse 36
           12378   7   3573 Return 36                             12413   7   3575 Proc   37
           12430   7   3576 Assign 37                             12431   7   3601 Assign 37
           12432   7   3604 Assign 37                           $ 12433   7   3606 Assign 37
           12434   7   3612 Assign 37                             12435   7   3615 Assign 37
$$$$$$$$$$ 12436   7   3617 MonCal 37                             12437   7   3624 Do     37
       $$$ 12438   7   3624 Call   37                          $$ 12439   7   3634 Assign 37
           12440   7   3640 Altret 37                             12443   7   3642 Return 37
           12467   7   3644 Proc   38                             12493   7   3645 Assign 38
           12494   7   3650 DoWhil 38                           $ 12496   7   3651 If     38
           12497   7   3655 Do     38                             12498   7   3655 Assign 38
           12499   7   3657 Call   38                             12500   7   3662 EndDo  38
           12501   7   3663 Do     38                             12502   7   3663 Assign 38
           12503   7   3665 Call   38                             12504   7   3670 Assign 38
           12506   7   3672 Call   38                             12507   7   3675 EndDo  38
 $$$$$$$$$ 12509   7   3675 IntCal 38                             12510   7   3705 If     38
           12511   7   3711 Assign 38                     $$$$$$$ 12512   7   3715 IntCal 38
           12513   7   3720 Assign 38                             12514   7   3722 Call   38
           12517   7   3725 Assign 38                           $ 12518   7   3730 EndWhi 38
           12519   7   3734 Return 38                             12549   7   3736 Proc   39
           12566   7   3737 Assign 39                             12567   7   3742 Assign 39
 $$$$$$$$$ 12568   7   3745 MonCal 39                             12569   7   3752 Do     39
       $$$ 12570   7   3752 Call   39                          $$ 12571   7   3762 Assign 39
           12572   7   3766 Altret 39                             12575   7   3770 Return 39
PL6.E3A0      #001=TOP$POLTS File=TOP$POLTS.:E05TSI                              WED 07/30/97 06:30 Page:678
           12614   7   3772 Proc   40                          $$ 12653   7   3773 If     40
           12654   7   3777 Do     40                             12655   7   3777 Assign 40
           12656   7   4002 Assign 40                         $$$ 12657   7   4005 DoCase 40
           12658   7   4020 Case   40                             12659   7   4020 Assign 40
           12660   7   4023 Case   40                             12661   7   4023 Assign 40
           12662   7   4026 Case   40                             12663   7   4026 Assign 40
           12664   7   4030 EndCse 40                             12665   7   4030 EndDo  40
         $ 12666   7   4030 Assign 40                             12667   7   4035 Assign 40
         $ 12668   7   4037 Assign 40                           $ 12669   7   4045 Assign 40
           12670   7   4052 Assign 40                           $ 12671   7   4054 Assign 40
           12672   7   4061 Assign 40                           $ 12673   7   4063 Assign 40
        $$ 12674   7   4070 DoCase 40                             12675   7   4102 Case   40
         $ 12676   7   4102 Assign 40                             12677   7   4106 Case   40
         $ 12678   7   4106 Assign 40                             12679   7   4111 Case   40
           12680   7   4111 Assign 40                             12681   7   4114 Assign 40
           12682   7   4116 Assign 40                             12683   7   4120 Assign 40
           12684   7   4122 EndCse 40                           $ 12685   7   4122 Assign 40
         $ 12686   7   4127 Assign 40                          $$ 12687   7   4134 Assign 40
        $$ 12688   7   4142 Assign 40                             12689   7   4146 Return 40
           12709   7   4150 Proc   41                           $ 12724   7   4151 Call   41
         $ 12725   7   4157 Assign 41                       $$$$$ 12726   7   4164 Assign 41
           12727   7   4173 Assign 41                             12728   7   4176 Return 41
           12755   7   4200 Proc   42                           $ 12774   7   4201 Call   42
$$$$$$$$$$ 12775   7   4207 DoCase 42                             12776   7   4311 Case   42
         $ 12777   7   4311 Call   42                             12778   7   4316 Do     42
           12779   7   4316 Assign 42                             12780   7   4321 Return 42
           12782   7   4324 Case   42                             12783   7   4324 Assign 42
           12784   7   4330 Call   42                             12785   7   4334 Assign 42
           12786   7   4337 Return 42                             12787   7   4341 EndCse 42
           12788   7   4341 Assign 42                             12789   7   4344 Return 42
           12810   7   4346 Proc   43                        $$$$ 12816   7   4347 Assign 43
 $$$$$$$$$ 12817   7   4356 MonCal 43                             12818   7   4363 Do     43
       $$$ 12819   7   4363 Call   43                             12820   7   4373 Altret 43
     $$$$$ 12822   7   4375 Assign 43                           $ 12823   7   4405 Assign 43
         $ 12824   7   4413 Assign 43                           $ 12825   7   4421 Assign 43
           12826   7   4427 Return 43                             12840   7   4431 Proc   44
           12851   7   4432 Assign 44                             12852   7   4435 Return 44
PL6.E3A0      #001=TOP$POLTS File=TOP$POLTS.:E05TSI                              WED 07/30/97 06:30 Page:679
           12865   7   4437 Proc   45                             12872   7   4440 Assign 45
           12873   7   4443 Return 45                             12885   7   4445 Proc   46
        $$ 12892   7   4446 Assign 46                             12893   7   4452 Return 46
           13007   7   4454 Proc   47                           $ 13053   7   4455 Call   47
           13054   7   4462 Do     47                          $$ 13055   7   4462 Assign 47
        $$ 13056   7   4466 Assign 47                             13057   7   4472 Return 47
       $$$ 13060   7   4474 Call   47                             13061   7   4507 Do     47
        $$ 13062   7   4507 Assign 47                           $ 13063   7   4513 Assign 47
           13064   7   4517 Return 47                          $$ 13067   7   4521 Call   47
           13068   7   4530 Do     47                          $$ 13069   7   4530 Assign 47
        $$ 13070   7   4534 Assign 47                             13071   7   4540 Return 47
           13074   7   4542 Assign 47                      $$$$$$ 13075   7   4543 Call   47
        $$ 13076   7   4566 Assign 47                             13077   7   4572 Return 47
           13092   7   4574 Proc   48                             13099   7   4575 DoInhi 48
           13100   7   4575 Assign 48                             13101   7   4577 DoWhil 48
         $ 13102   7   4600 Assign 48                      $$$$$$ 13103   7   4604 EndWhi 48
           13104   7   4623 If     48                             13105   7   4626 Do     48
           13106   7   4626 Assign 48                          $$ 13107   7   4630 Assign 48
           13108   7   4636 EndDo  48                             13109   7   4637 Assign 48
           13110   7   4640 EndInh 48                             13111   7   4640 If     48
           13112   7   4642 Return 48                             13113   7   4644 Altret 48
           13194   7   4646 Proc   49                           $ 13479   7   4647 Call   49
$$$$$$$$$$ 13480   7   4655 MonCal 49                             13481   7   4662 Do     49
           13482   7   4662 Assign 49                             13483   7   4666 Call   49
           13484   7   4672 EndDo  49                           $ 13488   7   4672 If     49
           13490   7   4677 Do     49                          $$ 13491   7   4677 Call   49
           13492   7   4706 Do     49                  $$$$$$$$$$ 13493   7   4706 MonCal 49
        $$ 13494   7   4711 Assign 49                             13495   7   4715 Altret 49
        $$ 13497   7   4717 Call   49                             13498   7   4726 Do     49
$$$$$$$$$$ 13499   7   4726 MonCal 49                          $$ 13500   7   4731 Assign 49
           13501   7   4735 Altret 49                           $ 13503   7   4737 Call   49
        $$ 13504   7   4745 Call   49                             13505   7   4756 Do     49
$$$$$$$$$$ 13506   7   4756 MonCal 49                             13507   7   4761 Altret 49
           13509   7   4763 EndDo  49                          $$ 13511   7   4763 Call   49
           13512   7   4772 Do     49                  $$$$$$$$$$ 13513   7   4772 MonCal 49
        $$ 13514   7   4775 Assign 49                             13515   7   5001 Altret 49
$$$$$$$$$$ 13517   7   5003 MonCal 49                             13518   7   5006 Return 49
PL6.E3A0      #001=TOP$POLTS File=TOP$POLTS.:E05TSI                              WED 07/30/97 06:30 Page:680
           13541   7   5010 Proc   50                           $ 13589   7   5011 Assign 50
        $$ 13592   7   5016 Assign 50                             13593   7   5024 Assign 50
           13594   7   5030 Assign 50                             13595   7   5034 If     50
       $$$ 13596   7   5037 Assign 50                             13597   7   5044 Assign 50
           13598   7   5047 Assign 50                             13599   7   5052 Assign 50
           13600   7   5055 Return 50                             13623   7   5057 Proc   51
           13713   7   5060 Assign 51                             13714   7   5062 Assign 51
           13715   7   5064 Assign 51                  $$$$$$$$$$ 13716   7   5071 MonCal 51
      $$$$ 13717   7   5074 If     51                             13718   7   5106 Do     51
           13719   7   5106 Assign 51                  $$$$$$$$$$ 13720   7   5112 MonCal 51
           13721   7   5117 Do     51                          $$ 13722   7   5117 Assign 51
$$$$$$$$$$ 13723   7   5127 MonCal 51                             13724   7   5134 Do     51
           13725   7   5134 Altret 51                             13727   7   5136 EndDo  51
     $$$$$ 13728   7   5136 Assign 51                             13729   7   5150 Return 51
           13731   7   5152 Altret 51                             13751   7   5154 Proc   52
           13786   7   5155 Assign 52                           $ 13787   7   5160 If     52
           13788   7   5165 Assign 52                             13789   7   5170 Assign 52
         $ 13790   7   5172 Assign 52                             13791   7   5200 Assign 52
           13792   7   5203 Assign 52                  $$$$$$$$$$ 13793   7   5206 MonCal 52
       $$$ 13794   7   5212 Assign 52                             13795   7   5220 Return 52
       $$$ 13798   7   5222 Call   52 ERROR                       13799   7   5232 Altret 52
           13815   7   5234 Proc   53                          $$ 13874   7   5235 Assign 53
           13875   7   5242 Assign 53                             13876   7   5244 Assign 53
$$$$$$$$$$ 13877   7   5251 MonCal 53                             13878   7   5254 Assign 53
         $ 13879   7   5256 Assign 53                             13880   7   5262 Return 53
           13900   7   5264 Proc   54                   $$$$$$$$$ 13936   7   5265 Do Sel 54
           13937   7   5312 Select 54                           $ 13938   7   5312 Call   54
           13939   7   5321 Select 54                           $ 13940   7   5321 If     54
           13942   7   5325 Do     54                          $$ 13943   7   5325 Assign 54
           13944   7   5331 Altret 54                             13946   7   5333 Select 54
        $$ 13947   7   5333 Assign 54                             13949   7   5337 Altret 54 ERROR
           13950   7   5341 EndSel 54                             13951   7   5341 Return 54
           13987   7   5343 Proc   55                           $ 14050   7   5344 Assign 55
           14051   7   5350 Assign 55                             14052   7   5352 Assign 55
$$$$$$$$$$ 14053   7   5357 MonCal 55                             14054   7   5362 Assign 55
         $ 14056   7   5364 If     55                       $$$$$ 14057   7   5371 If     55
           14061   7   5415 Do     55                          $$ 14062   7   5415 Assign 55
PL6.E3A0      #001=TOP$POLTS File=TOP$POLTS.:E05TSI                              WED 07/30/97 06:30 Page:681
           14063   7   5421 Altret 55                             14067   7   5423 Assign 55
           14068   7   5426 Assign 55                             14069   7   5431 Assign 55
           14070   7   5434 Assign 55                             14071   7   5437 Return 55
           14091   7   5441 Proc   56                           $ 14127   7   5442 Assign 56
           14128   7   5445 Assign 56                             14129   7   5447 Assign 56
$$$$$$$$$$ 14130   7   5451 Do Sel 56                             14131   7   5703 Select 56
           14132   7   5703 Assign 56                             14133   7   5710 Select 56
           14134   7   5710 Assign 56                             14135   7   5715 Select 56
           14136   7   5715 Assign 56                             14137   7   5721 Assign 56
           14138   7   5724 Select 56                             14139   7   5724 Assign 56
           14140   7   5731 Select 56                             14141   7   5731 Assign 56
           14142   7   5736 Select 56                             14143   7   5736 Assign 56
           14144   7   5743 Select 56                             14145   7   5743 Assign 56
           14146   7   5747 Assign 56                             14147   7   5752 Select 56
           14149   7   5752 Assign 56                             14150   7   5757 Select 56
           14151   7   5757 Assign 56                             14152   7   5764 Select 56
           14153   7   5764 Assign 56                             14154   7   5771 Select 56
           14155   7   5771 Assign 56                             14156   7   5776 Select 56
           14157   7   5776 Assign 56                             14158   7   6003 Select 56
           14159   7   6003 Assign 56                             14160   7   6010 Select 56
           14161   7   6010 Assign 56                             14162   7   6015 Select 56
           14163   7   6015 Assign 56                             14164   7   6022 Select 56
           14165   7   6022 Assign 56                             14166   7   6027 Select 56
           14167   7   6027 Assign 56                             14168   7   6033 Assign 56
           14169   7   6036 Select 56                             14170   7   6036 Assign 56
           14171   7   6042 Assign 56                             14172   7   6044 Assign 56
           14173   7   6047 Select 56                             14174   7   6047 Assign 56
           14175   7   6051 EndSel 56                             14179   7   6051 If     56
           14180   7   6055 Do     56                             14181   7   6055 Assign 56
           14182   7   6061 Assign 56                             14183   7   6063 EndDo  56
           14187   7   6063 If     56                  $$$$$$$$$$ 14188   7   6067 Do Sel 56
           14189   7   6163 Select 56                             14190   7   6163 Assign 56
           14191   7   6170 Select 56                             14192   7   6170 Assign 56
           14193   7   6175 Select 56                             14194   7   6175 Assign 56
           14195   7   6202 Select 56                             14196   7   6202 Assign 56
           14197   7   6207 Select 56                             14198   7   6207 Assign 56
           14199   7   6213 Assign 56                             14200   7   6216 Select 56
PL6.E3A0      #001=TOP$POLTS File=TOP$POLTS.:E05TSI                              WED 07/30/97 06:30 Page:682
           14201   7   6216 Assign 56                             14202   7   6223 Select 56
           14203   7   6223 Assign 56                             14204   7   6227 Assign 56
           14205   7   6231 EndSel 56                             14207   7   6231 If     56
           14208   7   6234 Altret 56                             14209   7   6236 Return 56
           14247   7   6240 Proc   57                     $$$$$$$ 14285   7   6241 Assign 57
      $$$$ 14286   7   6256 Assign 57                        $$$$ 14287   7   6270 Assign 57
      $$$$ 14288   7   6302 Assign 57                        $$$$ 14289   7   6313 Assign 57
$$$$$$$$$$ 14292   7   6324 DoCase 57                             14293   7   6423 Case   57
      $$$$ 14294   7   6423 Assign 57                             14295   7   6435 Case   57
      $$$$ 14296   7   6435 Assign 57                             14297   7   6447 Case   57
      $$$$ 14298   7   6447 Assign 57                             14299   7   6461 Case   57
      $$$$ 14300   7   6461 Assign 57                             14301   7   6473 Case   57
      $$$$ 14302   7   6473 Assign 57                             14303   7   6505 Case   57
      $$$$ 14304   7   6505 Assign 57                             14305   7   6517 Case   57
      $$$$ 14306   7   6517 Assign 57                             14307   7   6531 Case   57
      $$$$ 14308   7   6531 Assign 57                             14309   7   6543 Case   57
      $$$$ 14310   7   6543 Assign 57                             14311   7   6555 Case   57
      $$$$ 14312   7   6555 Assign 57                             14313   7   6567 Case   57
      $$$$ 14314   7   6567 Assign 57                             14315   7   6601 Case   57
      $$$$ 14316   7   6601 Assign 57                             14317   7   6613 Case   57
           14318   7   6613 Altret 57                             14319   7   6615 EndCse 57
      $$$$ 14322   7   6615 Assign 57                             14325   7   6627 Assign 57
       $$$ 14326   7   6633 Assign 57                             14327   7   6641 Assign 57
       $$$ 14328   7   6645 Assign 57                        $$$$ 14331   7   6653 Assign 57
      $$$$ 14332   7   6665 Assign 57                        $$$$ 14333   7   6677 Assign 57
      $$$$ 14336   7   6711 Assign 57                        $$$$ 14337   7   6723 Assign 57
      $$$$ 14338   7   6735 Assign 57                        $$$$ 14341   7   6747 Assign 57
      $$$$ 14342   7   6757 Assign 57                             14343   7   6767 Return 57
           14733   7   6771 Proc   58                             14752   7   6772 Call   58
         $ 14753   7   6774 Call   58                           $ 14754   7   7002 Call   58
         $ 14755   7   7010 Call   58                             14756   7   7016 Call   58
           14757   7   7022 Call   58                             14758   7   7026 Call   58
        $$ 14759   7   7032 Call   58                             14760   7   7044 Return 58
           14783   7   7046 Proc   59                          $$ 14799   7   7047 Assign 59
         $ 14800   7   7056 Assign 59                             14801   7   7065 Assign 59
           14802   7   7067 Return 59                             14815   7   7070 Proc   60
        $$ 14830   7   7071 Assign 60                  $$$$$$$$$$ 14831   7   7101 Assign 60
PL6.E3A0      #001=TOP$POLTS File=TOP$POLTS.:E05TSI                              WED 07/30/97 06:30 Page:683
           14832   7   7106 Return 60                             14846   7   7110 Proc   61
        $$ 14856   7   7111 Assign 61                         $$$ 14857   7   7121 Assign 61
         $ 14858   7   7126 Assign 61                        $$$$ 14859   7   7132 Assign 61
           14860   7   7142 Return 61                             14902   7   7144 Proc   62
     $$$$$ 14908   7   7145 Assign 62                         $$$ 14909   7   7155 Assign 62
       $$$ 14910   7   7164 Assign 62                          $$ 14911   7   7173 Assign 62
       $$$ 14912   7   7201 Assign 62                             14913   7   7207 Assign 62
           14914   7   7211 Assign 62                             14915   7   7213 Assign 62
           14916   7   7215 Assign 62                          $$ 14917   7   7220 If     62
           14918   7   7227 Assign 62                             14919   7   7232 Assign 62
           14920   7   7234 Return 62                             14946   7   7236 Proc   63
$$$$$$$$$$ 14976   7   7237 DoCase 63                             14977   7   7266 Case   63
           14978   7   7266 Call   63                             14979   7   7270 Call   63
           14980   7   7272 Call   63                             14981   7   7274 Call   63
           14982   7   7277 Case   63                             14983   7   7277 Call   63
         $ 14984   7   7301 If     63                             14985   7   7306 Call   63
           14986   7   7311 Call   63                             14987   7   7313 DoWhil 63
           14988   7   7314 Call   63                             14989   7   7316 Call   63
           14990   7   7320 EndWhi 63                             14991   7   7326 Case   63
           14992   7   7326 Call   63                             14993   7   7330 Call   63
           14994   7   7332 DoWhil 63                             14995   7   7333 Call   63
           14996   7   7335 Call   63                             14997   7   7337 EndWhi 63
           14998   7   7344 EndCse 63                             14999   7   7344 Return 63
           15003   7   7346 Proc   64                         $$$ 15008   7   7347 Assign 64
        $$ 15011   7   7356 Assign 64                             15012   7   7363 Assign 64
         $ 15015   7   7365 Assign 64                    $$$$$$$$ 15016   7   7371 If     64
       $$$ 15019   7   7412 Assign 64                         $$$ 15020   7   7421 Assign 64
       $$$ 15021   7   7430 Assign 64                     $$$$$$$ 15024   7   7437 If     64
           15026   7   7455 Assign 64                             15029   7   7457 Assign 64
 $$$$$$$$$ 15032   7   7461 DoCase 64                             15033   7   7507 Case   64
           15034   7   7507 Assign 64                             15035   7   7512 Case   64
        $$ 15036   7   7512 If     64                             15037   7   7520 Assign 64
           15039   7   7523 Case   64                          $$ 15040   7   7523 If     64
           15042   7   7532 Assign 64                             15043   7   7534 EndCse 64
        $$ 15046   7   7534 If     64                         $$$ 15047   7   7542 If     64
        $$ 15048   7   7551 Assign 64                          $$ 15050   7   7557 Assign 64
         $ 15053   7   7564 Assign 64                             15056   7   7570 Assign 64
PL6.E3A0      #001=TOP$POLTS File=TOP$POLTS.:E05TSI                              WED 07/30/97 06:30 Page:684
        $$ 15057   7   7574 If     64                             15058   7   7602 Assign 64
           15059   7   7604 Assign 64                             15060   7   7606 Assign 64
           15063   7   7610 Assign 64                          $$ 15064   7   7613 If     64
        $$ 15065   7   7620 Assign 64                             15067   7   7625 Return 64
           15071   7   7627 Proc   65                             15076   7   7630 Assign 65
       $$$ 15079   7   7632 Assign 65                     $$$$$$$ 15082   7   7637 If     65
           15084   7   7655 Assign 65                             15087   7   7657 Assign 65
        $$ 15090   7   7661 Assign 65                           $ 15095   7   7666 Assign 65
           15098   7   7672 Assign 65                          $$ 15099   7   7676 If     65
           15100   7   7704 Assign 65                             15101   7   7706 Assign 65
           15102   7   7710 Assign 65                             15105   7   7713 Assign 65
           15106   7   7716 Return 65                             15110   7   7720 Proc   66
      $$$$ 15115   7   7721 Assign 66                             15116   7   7727 Assign 66
           15117   7   7732 Assign 66                             15118   7   7735 Return 66
           15122   7   7737 Proc   67                             15129   7   7740 If     67
           15130   7   7742 Do     67                             15131   7   7742 Assign 67
           15132   7   7743 DoUntl 67                        $$$$ 15133   7   7743 DoCase 67
           15134   7   7756 Case   67                             15135   7   7756 Assign 67
           15136   7   7761 Assign 67                             15137   7   7765 Case   67
           15138   7   7765 Assign 67                             15139   7   7770 Assign 67
           15140   7   7773 Assign 67                             15141   7   7776 Case   67
           15142   7   7776 Assign 67                             15143   7  10001 Assign 67
           15144   7  10004 Assign 67                             15145   7  10010 If     67
           15146   7  10012 Assign 67                             15147   7  10014 Assign 67
         $ 15148   7  10016 If     67                             15149   7  10023 Assign 67
           15150   7  10026 Case   67                             15151   7  10026 Call   67
           15152   7  10030 EndCse 67                             15153   7  10030 If     67
           15154   7  10033 Assign 67                             15155   7  10036 Call   67
           15156   7  10040 Assign 67                             15157   7  10043 EndUnt 67
           15158   7  10045 EndDo  67                             15160   7  10045 Return 67
           15164   7  10047 Proc   68                          $$ 15168   7  10050 Assign 68
  $$$$$$$$ 15169   7  10054 If     68                             15170   7  10073 Assign 68
           15171   7  10076 Assign 68                             15173   7  10100 Assign 68
           15174   7  10104 If     68                             15175   7  10110 Assign 68
           15176   7  10112 Assign 68                             15177   7  10114 Assign 68
           15178   7  10117 If     68                             15179   7  10122 Assign 68
           15180   7  10125 Call   68                             15181   7  10127 Assign 68
PL6.E3A0      #001=TOP$POLTS File=TOP$POLTS.:E05TSI                              WED 07/30/97 06:30 Page:685
           15182   7  10132 Return 68                             15186   7  10134 Proc   69
           15190   7  10135 Assign 69                             15191   7  10141 Call   69
           15193   7  10145 EndPrc 69                             15209   7  10147 Proc   70
           15215   7  10150 DoInhi 70                             15216   7  10150 Assign 70
     $$$$$ 15217   7  10151 Assign 70                  $$$$$$$$$$ 15218   7  10161 MonCal 70
           15219   7  10164 EndInh 70                             15220   7  10164 Return 70
           15241   7  10166 Proc   71                       $$$$$ 15274   7  10167 If     71
         $ 15275   7  10200 Assign 71                             15276   7  10203 Assign 71
$$$$$$$$$$ 15277   7  10206 MonCal 71                           $ 15278   7  10211 Assign 71
    $$$$$$ 15279   7  10215 Assign 71                          $$ 15280   7  10226 Assign 71
           15281   7  10232 Return 71                             15295   7  10234 Proc   72
           15302   7  10235 Assign 72                             15303   7  10240 Return 72
           15321   7  10242 Proc   73                             15903   7  10243 Call   73
           15904   7  10245 Call   73
           15907   7  10247 Call   73 UNSUCCESSFUL_DUMP           15908   7  10251 Call   73
           15909   7  10253 Call   73                             15910   7  10255 Call   73
           15913   7  10257 Call   73 NO_DUMP                     15914   7  10261 Assign 73
           15915   7  10264 Return 73                             15919   7  10266 Proc   74
       $$$ 15927   7  10267 DoCase 74                             15928   7  10302 Case   74
           15929   7  10302 Assign 74                             15930   7  10306 Case   74
           15931   7  10306 Assign 74                             15932   7  10312 Case   74
           15933   7  10312 Assign 74                             15934   7  10316 Case   74
           15935   7  10316 Assign 74                             15936   7  10322 Case   74
           15937   7  10322 Assign 74                             15938   7  10326 Case   74
           15939   7  10326 Assign 74                             15940   7  10331 EndCse 74
           15941   7  10331 Assign 74                             15942   7  10333 Call   74
           15943   7  10336 Return 74                             15947   7  10340 Proc   75
$$$$$$$$$$ 15955   7  10341 MonCal 75                             15956   7  10344 DoUntl 75
           15957   7  10344 Assign 75                             15958   7  10347 Assign 75
           15959   7  10351 Call   75                             15962   7  10354 Assign 75
           15963   7  10355 DoWhil 75                             15964   7  10356 Assign 75
         $ 15965   7  10357 EndWhi 75                         $$$ 15968   7  10366 IntCal 75
         $ 15971   7  10376 If     75                         $$$ 15972   7  10405 If     75
           15974   7  10420 Assign 75                         $$$ 15975   7  10423 If     75
           15977   7  10436 Assign 75                             15978   7  10441 Do     75
           15979   7  10441 Assign 75                             15980   7  10442 Assign 75
           15981   7  10446 Call   75                             15982   7  10452 EndDo  75
PL6.E3A0      #001=TOP$POLTS File=TOP$POLTS.:E05TSI                              WED 07/30/97 06:30 Page:686
           15983   7  10453 Do     75                             15984   7  10453 Assign 75
           15985   7  10454 Assign 75                             15986   7  10460 Call   75
           15987   7  10464 EndDo  75                             15988   7  10464 EndUnt 75
         $ 15991   7  10466 If     75                             15992   7  10473 Return 75
           15993   7  10475 Altret 75                             15997   7  10477 Proc   76
$$$$$$$$$$ 16001   7  10500 MonCal 76                             16002   7  10503 Assign 76
           16003   7  10506 Assign 76                             16004   7  10510 Call   76
           16006   7  10513 If     76                             16007   7  10517 Assign 76
           16008   7  10522 Do     76                             16010   7  10522 Assign 76
           16011   7  10523 DoWhil 76                             16012   7  10524 Assign 76
         $ 16013   7  10525 EndWhi 76                         $$$ 16014   7  10534 IntCal 76
        $$ 16017   7  10544 If     76                             16019   7  10554 Assign 76
           16020   7  10557 Do     76                             16021   7  10557 Assign 76
           16022   7  10560 Call   76                             16023   7  10562 EndDo  76
           16024   7  10562 EndDo  76                             16025   7  10562 Return 76
           16028   7  10564 Altret 76 BAD_FID                     16032   7  10566 Proc   77
      $$$$ 16036   7  10567 IntCal 77                             16037   7  10601 If     77
           16038   7  10604 Do     77                             16039   7  10604 Assign 77
           16040   7  10610 Call   77                             16041   7  10614 Altret 77
           16043   7  10616 If     77                             16044   7  10620 Do     77
         $ 16045   7  10620 Assign 77                             16048   7  10626 Assign 77
           16049   7  10632 Assign 77                             16050   7  10635 EndDo  77
           16051   7  10636 Do     77                           $ 16052   7  10636 Assign 77
           16055   7  10643 Assign 77                           $ 16056   7  10647 Assign 77
           16059   7  10656 EndDo  77                             16060   7  10656 Return 77
           16065   7  10657 Proc   78                         $$$ 16069   7  10660 If     78
           16071   7  10667 If     78                  $$$$$$$$$$ 16072   7  10671 MonCal 78
$$$$$$$$$$ 16073   7  10676 MonCal 78                             16074   7  10702 Return 78
       $$$ 16077   7  10704 Call   78 BAD_LP_OPEN                 16078   7  10714 Altret 78
           16081   7  10716 Assign 78 BAD_FID_OPEN                16082   7  10722 Call   78
           16083   7  10726 Altret 78                             16087   7  10730 Proc   79
         $ 16093   7  10731 Assign 79                             16094   7  10736 Assign 79
       $$$ 16095   7  10741 If     79                             16096   7  10751 Do     79
           16097   7  10751 Assign 79                           $ 16098   7  10753 Assign 79
           16099   7  10761 Assign 79                             16100   7  10763 Assign 79
           16101   7  10765 EndDo  79                             16102   7  10766 Do     79
           16103   7  10766 Assign 79                             16104   7  10771 Assign 79
PL6.E3A0      #001=TOP$POLTS File=TOP$POLTS.:E05TSI                              WED 07/30/97 06:30 Page:687
           16105   7  10774 Assign 79                             16106   7  10776 Assign 79
           16107   7  10777 Assign 79                             16108   7  11000 DoUntl 79
      $$$$ 16109   7  11000 If     79                             16110   7  11010 Assign 79
           16111   7  11013 Assign 79                             16112   7  11014 EndUnt 79
           16113   7  11021 If     79                          $$ 16114   7  11023 Assign 79
           16115   7  11030 Altret 79                             16117   7  11032 Return 79
           16121   7  11034 Proc   80                             16125   7  11035 Call   80
       $$$ 16126   7  11037 Call   80                             16127   7  11051 Call   80
           16128   7  11053 If     80                             16129   7  11055 Do     80
           16130   7  11055 Assign 80                             16131   7  11057 Assign 80
           16132   7  11061 EndDo  80                             16133   7  11062 Do     80
           16134   7  11062 Assign 80                             16135   7  11064 Assign 80
           16136   7  11066 EndDo  80                             16137   7  11066 Assign 80
           16138   7  11070 Assign 80                             16139   7  11072 DoIndx 80
           16140   7  11075 If     80                           $ 16142   7  11103 DoCase 80
           16143   7  11112 Case   80                           $ 16144   7  11112 If     80
           16145   7  11117 Do     80                             16146   7  11117 Assign 80
           16148   7  11121 Assign 80                             16149   7  11123 Assign 80
           16150   7  11124 EndDo  80                             16152   7  11125 Case   80
      $$$$ 16153   7  11125 If     80                             16155   7  11135 Do     80
           16156   7  11135 Assign 80                             16158   7  11137 Assign 80
           16159   7  11140 EndDo  80                             16161   7  11140 EndCse 80
           16163   7  11140 Assign 80                          $$ 16164   7  11142 Call   80
           16165   7  11152 Assign 80                             16166   7  11155 If     80
      $$$$ 16167   7  11160 Assign 80                             16169   7  11171 Assign 80
        $$ 16170   7  11175 Call   80                             16171   7  11205 Assign 80
           16172   7  11210 DoIndx 80                          $$ 16173   7  11212 Call   80
        $$ 16174   7  11222 Assign 80                             16176   7  11227 Assign 80
           16177   7  11232 EndInd 80                  $$$$$$$$$$ 16178   7  11240 MonCal 80
      $$$$ 16179   7  11244 EndInd 80                             16180   7  11251 Return 80
       $$$ 16182   7  11253 Call   80 WRITE_ERR                   16183   7  11263 Return 80
           16187   7  11265 Proc   81                             16200   7  11266 Assign 81
           16201   7  11272 Assign 81                             16202   7  11273 Assign 81
           16203   7  11274 Assign 81                             16204   7  11275 DoWhil 81
           16205   7  11300 Assign 81                             16206   7  11303 DoIndx 81
           16207   7  11306 Assign 81                           $ 16208   7  11311 Assign 81
           16209   7  11315 Assign 81                           $ 16210   7  11320 EndInd 81
PL6.E3A0      #001=TOP$POLTS File=TOP$POLTS.:E05TSI                              WED 07/30/97 06:30 Page:688
           16211   7  11327 Assign 81                             16212   7  11331 Assign 81
           16213   7  11334 Assign 81                             16214   7  11341 EndWhi 81
         $ 16215   7  11343 Assign 81                             16216   7  11346 Return 81
           16220   7  11350 Proc   82                             16233   7  11351 Assign 82
     $$$$$ 16234   7  11352 IntCal 82                             16238   7  11366 DoWhil 82
           16239   7  11371 Assign 82                        $$$$ 16240   7  11374 IntCal 82
           16244   7  11406 EndWhi 82                             16247   7  11411 DoWhil 82
           16249   7  11413 If     82                             16250   7  11416 Assign 82
           16251   7  11421 Assign 82                          $$ 16254   7  11424 Assign 82
$$$$$$$$$$ 16257   7  11435 MonCal 82                             16260   7  11440 Assign 82
      $$$$ 16261   7  11443 IntCal 82                             16265   7  11455 DoWhil 82
           16266   7  11460 Assign 82                        $$$$ 16267   7  11463 IntCal 82
           16271   7  11475 EndWhi 82                             16272   7  11500 EndWhi 82
           16273   7  11502 Return 82                             16279   7  11504 Proc   83
       $$$ 16283   7  11505 If     83                  $$$$$$$$$$ 16284   7  11514 MonCal 83
           16286   7  11517 Return 83                             16302   7  11521 Proc   84
         $ 16356   7  11522 Assign 84                           $ 16357   7  11527 Assign 84
        $$ 16359   7  11533 DoCase 84                             16360   7  11545 Case   84
           16361   7  11545 Assign 84                             16362   7  11552 Case   84
           16363   7  11552 Assign 84                             16364   7  11557 Case   84
           16365   7  11557 Assign 84                             16366   7  11561 EndCse 84
         $ 16367   7  11561 Assign 84                             16368   7  11566 Assign 84
      $$$$ 16369   7  11570 If     84                             16370   7  11600 Assign 84
           16371   7  11603 Assign 84                             16372   7  11605 Assign 84
           16373   7  11607 Assign 84                        $$$$ 16374   7  11611 Assign 84
           16375   7  11620 Assign 84                             16376   7  11622 Assign 84
           16377   7  11623 Assign 84                     $$$$$$$ 16378   7  11625 If     84
           16380   7  11642 Assign 84                      $$$$$$ 16382   7  11644 If     84
           16384   7  11660 Assign 84                          $$ 16386   7  11662 If     84
           16387   7  11671 Assign 84                      $$$$$$ 16390   7  11673 If     84
           16392   7  11711 Do     84                             16393   7  11711 Assign 84
       $$$ 16394   7  11713 If     84                             16395   7  11722 Do     84
           16396   7  11722 Assign 84                         $$$ 16397   7  11724 If     84
           16398   7  11733 Do     84                             16399   7  11733 Assign 84
      $$$$ 16400   7  11735 Assign 84                        $$$$ 16402   7  11746 Assign 84
           16404   7  11757 EndDo  84                             16405   7  11760 Do     84
       $$$ 16406   7  11760 Assign 84                        $$$$ 16408   7  11771 Assign 84
PL6.E3A0      #001=TOP$POLTS File=TOP$POLTS.:E05TSI                              WED 07/30/97 06:30 Page:689
           16410   7  12000 EndDo  84                             16411   7  12000 EndDo  84
           16413   7  12000 EndDo  84                          $$ 16416   7  12000 If     84
           16417   7  12005 Do     84                             16418   7  12005 Assign 84
           16419   7  12007 Assign 84                             16420   7  12011 Assign 84
           16421   7  12013 EndDo  84                             16422   7  12014 Do     84
      $$$$ 16423   7  12014 Assign 84                         $$$ 16424   7  12025 Assign 84
       $$$ 16425   7  12035 Assign 84                      $$$$$$ 16426   7  12045 If     84
        $$ 16428   7  12061 If     84                             16429   7  12067 Do     84
        $$ 16430   7  12067 Assign 84                             16431   7  12075 Assign 84
           16432   7  12077 EndDo  84                             16434   7  12100 Assign 84
           16435   7  12102 Assign 84                             16436   7  12104 EndDo  84
$$$$$$$$$$ 16437   7  12104 Do Sel 84                             16438   7  12470 Select 84
           16439   7  12470 Assign 84                             16440   7  12475 Select 84
           16441   7  12475 Assign 84                             16442   7  12502 Select 84
           16446   7  12502 Assign 84                             16447   7  12507 Select 84
           16448   7  12507 Assign 84                             16449   7  12514 Select 84
           16450   7  12514 Assign 84                             16451   7  12516 EndSel 84
           16452   7  12516 Return 84                             16465   7  12520 Proc   85
           16472   7  12521 Assign 85                             16473   7  12523 DoWhil 85
  $$$$$$$$ 16474   7  12526 If     85                             16475   7  12546 Return 85
           16476   7  12550 Assign 85                             16477   7  12553 EndWhi 85
           16479   7  12555 Assign 85                             16480   7  12561 Call   85
           16482   7  12565 EndPrc 85                             16503   7  12567 Proc   86
           16510   7  12570 Assign 86                             16511   7  12572 DoWhil 86
  $$$$$$$$ 16512   7  12575 If     86                             16513   7  12612 Do     86
        $$ 16514   7  12612 Assign 86                             16515   7  12620 Return 86
           16517   7  12622 Assign 86                             16518   7  12625 EndWhi 86
           16520   7  12627 Assign 86                             16521   7  12630 DoWhil 86
  $$$$$$$$ 16522   7  12633 If     86                             16523   7  12650 Do     86
        $$ 16524   7  12650 Assign 86                             16525   7  12656 Return 86
           16527   7  12660 Assign 86                             16528   7  12663 EndWhi 86
           16530   7  12665 Assign 86                             16531   7  12671 Call   86
           16533   7  12675 EndPrc 86                             16597   7  12677 Proc   87
           16605   7  12700 DoInhi 87                             16606   7  12700 Assign 87
        $$ 16607   7  12703 If     87                         $$$ 16608   7  12720 If     87
           16609   7  12725 Do     87                          $$ 16610   7  12725 Assign 87
           16611   7  12732 Assign 87                        $$$$ 16612   7  12734 If     87
PL6.E3A0      #001=TOP$POLTS File=TOP$POLTS.:E05TSI                              WED 07/30/97 06:30 Page:690
        $$ 16614   7  12753 Assign 87                             16615   7  12761 Do     87
           16616   7  12761 Call   87                             16617   7  12763 Call   87
           16618   7  12765 EndDo  87                             16619   7  12765 EndDo  87
           16620   7  12766 Do     87                             16621   7  12766 Call   87
           16622   7  12770 Call   87                             16623   7  12772 EndDo  87
           16624   7  12773 Do     87                             16625   7  12773 Assign 87
        $$ 16626   7  12776 If     87                             16627   7  13002 Do     87
           16628   7  13002 Call   87                             16629   7  13004 Call   87
           16630   7  13006 EndDo  87                             16632   7  13006 EndDo  87
           16633   7  13006 EndInh 87                             16634   7  13006 Return 87
           16668   7  13010 Proc   88                           $ 16677   7  13011 If     88
           16679   7  13015 Do     88                       $$$$$ 16680   7  13015 Assign 88
        $$ 16681   7  13025 Assign 88                          $$ 16682   7  13033 Assign 88
           16683   7  13040 If     88                             16684   7  13044 Do     88
           16685   7  13044 Assign 88                             16686   7  13050 Assign 88
           16687   7  13052 Assign 88                             16688   7  13054 Assign 88
           16689   7  13056 EndDo  88                             16690   7  13057 Assign 88
           16691   7  13061 Assign 88                             16692   7  13063 If     88
           16695   7  13067 Assign 88                           $ 16697   7  13072 If     88
           16699   7  13076 Do     88                             16700   7  13076 Assign 88
           16701   7  13101 If     88                          $$ 16702   7  13104 Assign 88
         $ 16703   7  13111 Assign 88                             16704   7  13115 EndDo  88
           16705   7  13115 EndDo  88                             16706   7  13115 Return 88
           16727   7  13117 Proc   89                         $$$ 16733   7  13120 Assign 89
         $ 16734   7  13126 If     89                             16736   7  13132 Do     89
           16737   7  13132 Assign 89                           $ 16738   7  13135 Call   89
           16739   7  13143 EndDo  89                             16740   7  13143 Return 89
           16770   7  13145 Proc   90                           $ 16776   7  13146 If     90
           16778   7  13152 Do     90                             16779   7  13152 Assign 90
         $ 16780   7  13155 Assign 90                             16781   7  13161 EndDo  90
           16782   7  13161 Return 90

  **** Statement type totals  ****

   582 Assign   150 Call      32 MonCal    98 If        81 Case     100 Return
    29 Altret    10 IntCal     5 Do Sel     5 EndSel    40 Select     3 DoUntl
     3 DoIndx    16 DoWhil    15 DoCase    88 Do         4 DoInhi     3 EndUnt
PL6.E3A0      #001=TOP$POLTS File=TOP$POLTS.:E05TSI                              WED 07/30/97 06:30 Page:691
     3 EndInd    16 EndWhi    15 EndCse    56 EndDo      4 EndInh    91 Proc
     8 EndPrc     1 Entry     10 Labels

 # major stmts= 1088 Code/major= 5.28 # stmts= 1458 Code/stmt= 3.94  Point total=127.1
 Cost/major stmt=  6.4 Cost/stmt=  4.8 Total cost=   7007.6

   0-4  $$$$$$$$$$$$$$$$$$$$$$$$$$$$$$$$$$$$$$$$$$$$$$$$$$$$$$$$$$$$$
   4-6  $$$$$$$$$
   6-8  $$$$$$$$$
  8-10  $$$$$
 10-12  $$$$
 12-14  $
 14-16
 16-18
 18-20
 20-22
 22-??  $$$
PL6.E3A0      #001=TOP$POLTS File=TOP$POLTS.:E05TSI                              WED 07/30/97 06:30 Page:692

 **** Variables and constants ****

  ****  Section 005  Data  TOP$POLTS

  ****  Scalars and arrays  ****
OctLoc.c.b A Datatyp(siz) R M Lvl/name                 OctLoc.c.b A Datatyp(siz) R M Lvl/name

   451-0-0/c STRC(72)    r     1 ACCOUNT_NAME           25004-0-0/w PTR         r     1 ADDR_TRANS$
   242-0-0/d BIT (72)    r     1 DATA_V                 24724-0-0/d BIT (72)    r     1 DATA_V
   231-0-0/w UBIN        r     1 DCB_NUM
   464-0-0/w CHAR(5200)  r     1 DCWLIST_BFR(0:7)
 25031-0-0/w PTR         r     1 DUMP$                    453-0-0/w PTR         r     1 FICCDD$
   446-0-0/c STRC(108)   r     1 FILE_NAME                133-0-0/w STRC(144)   r     1 MPC(0:7)
 25005-0-0/c CHAR(80)    r     1 READ_BUF
 25005-0-0/c CHAR        r     1 READ_BUF_(0:79)
 24726-0-0/w UBIN        r     1 TIME_VALUE                 0-0-0/w UBIN        r     1 TOP$EVENT_ID
     1-0-0/b BIT (72)    r     1 TOP$STATUS

  ****  Structures  ****
OctLoc.c.b A Datatyp(siz) R M Lvl/name

   264-0-0/c STRC(369)   r     1 CHANNEL_MSG
   267-2-0/c CHAR(3)     r         2 CHN#
   275-2-0/c CHAR(3)     r         2 NUM#

   410-0-0/d STRC(1080)  r     1 CLOSE_CONFIG
   442-0-0/d STRC(144)   r         2 V

 25032-0-0/d STRC(1080)  r     1 CLOSE_DUMP
 25064-0-0/d STRC(144)   r         2 V

   242-0-0/d STRC(72)    r     1 DATA_VECTOR
   242-0-0/b UBIN(20)    r         2 SIZE#

 24724-0-0/d STRC(72)    r     1 DATA_VECTOR
 24724-0-0/b UBIN(20)    r         2 SIZE#

PL6.E3A0      #001=TOP$POLTS File=TOP$POLTS.:E05TSI                              WED 07/30/97 06:30 Page:693
   226-0-0/c STRC(99)    r     1 DCB_NAME
   230-2-0/c CHAR        r         2 TCX

   256-0-0/d STRC(216)   r     1 DELAY_FPT
   262-0-0/d STRC(72)    r         2 V

   244-0-0/w STRC(72)    r     1 DENSITY_DCWLIST
   245-0-0/b STRC        r         2 DCW
   245-0-0/b UBIN(18)    r          3 ADDR#

   246-0-0/h STRC(18)    r     1 DEVICE_INFO(0:15)
   246-1-5/b BIT (4)     r         2 DENSITIES#

   454-0-0/c STRC(81)    r     1 DEVICE_KEY
   454-1-0/c CHAR(8)     r         2 DATA

 25031-0-0/w STRC        r     1 DUMP_
 25031-0-0/b UBIN(18)    r         2 ADDR#

 25340-0-0/c STRC(72)    r     1 DUMP_ACCT
 25340-0-0/c CHAR(8)     r         2 ACCT#

 24744-0-0/c STRC(1125)  r     1 DUMP_LINE
 24744-1-0/c CHAR(6)     r         2 ACTUAL_ADDR#
 24746-1-0/c CHAR(6)     r         2 RELATIVE_ADDR#
 24750-0-0/c CHAR(4)     r         2 EDIT_NAME#
 24751-1-0/c STRC(117)   r         2 DUMP_OUTPUT_(0:7)
 24751-2-0/c CHAR(12)    r          3 OCT_WORD_ASC#

 25330-0-0/c STRC(288)   r     1 DUMP_NAME
 25330-0-0/b UBIN(9)     r         2 L#
 25330-1-0/c CHAR(31)    r         2 NAME#

 25254-0-0/d STRC(360)   r     1 DUMP_PROMPT
 25262-0-0/d STRC(144)   r         2 V

 24744-0-0/c STRC(1125)  r     1 FILE_OUTPUT_LINE
PL6.E3A0      #001=TOP$POLTS File=TOP$POLTS.:E05TSI                              WED 07/30/97 06:30 Page:694
 24744-0-0/c CHAR(73)    r         2 DUMP_LINE#

   232-0-0/d STRC(288)   r     1 GET_POLTS_DCB
   240-0-0/d STRC(72)    r         2 V

     3-0-0/w STRC(396)   r     1 IO_ENTRY(0:7)
     4-0-0/h STRC        r         2 W1
     4-0-0/h UBIN(18)    r          3 EXTSTAT_ADR#
     4-2-0/h UBIN(18)    r          3 LOWER#
     5-0-0/b STRC        r         2 W2
     5-0-2/b BIT         r          3 MDS_DEV_IDCW_LIST
     7-0-0/b STRC        r         2 W4
     7-0-0/b BIT (6)     r          3 DEVICE_CMD#
     7-2-0/b UBIN(6)     r          3 IO_CMD#
     7-3-3/b UBIN(6)     r          3 RECORD_COUNT#
    10-0-0/w BIT         r         2 W5#
    12-0-0/b STRC        r         2 W7
    12-0-0/b BIT (6)     r          3 DEVICE_CMD#
    12-2-0/b UBIN(6)     r          3 IO_CMD#
    12-3-2/b BIT         r          3 BIT29#
    12-3-3/b UBIN(6)     r          3 RECORD_COUNT#
    13-0-0/h STRC        r         2 W8
    13-0-0/h UBIN(18)    r          3 DCW_PTR#
    14-0-0/h STRC        r         2 W9
    14-0-0/h UBIN(18)    r          3 STATUS_ADR#
    14-2-0/h UBIN(18)    r          3 CC_ADR#

 25266-0-0/d STRC(360)   r     1 LP_OR_FID
 25274-0-0/d STRC(144)   r         2 V

 25342-0-0/c STRC(279)   r     1 MESSAGE
 25342-0-0/c CHAR(5)     r         2 SUBEXEC

   457-0-0/c STRC(81)    r     1 MPC_KEY
   457-1-0/c CHAR(8)     r         2 KEY

   300-0-0/d STRC(2088)  r     1 OPEN_CONFIG
PL6.E3A0      #001=TOP$POLTS File=TOP$POLTS.:E05TSI                              WED 07/30/97 06:30 Page:695
   344-0-0/d STRC(756)   r         2 V

 25162-0-0/d STRC(2088)  r     1 OPEN_DUMP_FILE
 25226-0-0/d STRC(756)   r         2 V

 25070-0-0/d STRC(2088)  r     1 OPEN_LP
 25134-0-0/d STRC(756)   r         2 V

   372-0-0/d STRC(504)   r     1 READ_CONFIG
   374-0-0/w STRC(72)    r         2 KEY_
   376-0-0/w STRC(72)    r         2 BUF_
   402-0-0/d STRC(216)   r         2 V

   174-0-0/d STRC(144)   r     1 TDCLOSE_FPT
   176-0-0/d STRC(18)    r         2 V
   176-0-0/b UBIN(18)    r          3 DCB#

   200-0-0/d STRC(360)   r     1 TDIO_FPT
   202-0-0/b BIT (72)    r         2 DCWLIST_
   204-0-0/b BIT (72)    r         2 DATA_
   206-0-0/d STRC(144)   r         2 V
   206-0-0/b UBIN(18)    r          3 DCB#
   206-2-0/b BIT         r          3 WAIT#
   206-2-6/b STRC(12)    r          3 ALTPATH
   207-0-0/w BIT         r          3 PCW#
   210-0-0/w SBIN        r          3 EVENT#
   211-0-0/b UBIN(6)     r          3 TIMEOUT#

   212-0-0/d STRC(432)   r     1 TDOPEN_FPT
   214-0-0/b BIT (72)    r         2 CHAIN_
   216-0-0/b BIT (72)    r         2 VFC_
   222-0-0/d STRC(144)   r         2 V
   222-0-0/b UBIN(18)    r          3 DCB#
   222-2-0/b STRC(18)    r          3 DEVICE
   222-2-0/b UBIN(6)     r           4 DVN#
   222-2-6/b UBIN(3)     r           4 IOM#
   222-3-0/b UBIN(9)     r           4 CHAN#
PL6.E3A0      #001=TOP$POLTS File=TOP$POLTS.:E05TSI                              WED 07/30/97 06:30 Page:696
   223-0-0/w SBIN        r          3 SPEVENT#
   224-0-0/b UBIN(6)     r          3 TEST#
   224-0-6/b UBIN(6)     r          3 NCHANS#

 24730-0-0/d STRC(432)   r     1 TIME_FPT
 24742-0-0/d STRC        r         2 V

   173-0-0/w STRC        r     1 TOP_ERROR_CODE
   173-2-1/b UBIN(14)    r         2 ERR#

 25314-0-0/d STRC(432)   r     1 WRITE_DUMP
 25320-0-0/w STRC(72)    r         2 BUF_
 25324-0-0/d STRC(144)   r         2 V

 25300-0-0/d STRC(432)   r     1 WRITE_HDR_LINE
 25304-0-0/w STRC(72)    r         2 BUF_
 25310-0-0/d STRC(144)   r         2 V


  ****  Section 006 RoData TOP$POLTS

  ****  Scalars and arrays  ****
OctLoc.c.b A Datatyp(siz) R M Lvl/name                 OctLoc.c.b A Datatyp(siz) R M Lvl/name

   106-0-0/c CHAR(2)     r     1 CRLF                     106-0-0/c STRC(18)    r     1 CRLF_
     1-0-0/w PTR         r     1 DEVICE_INFO$              72-0-0/c CHAR(19)    r     1 DUMP_QUES
    77-0-0/c CHAR(20)    r     1 FID_QUES                   0-0-0/w STRC        r     1 FPTN_
    51-0-0/w STRC(18)    r     1 HEAD_KEY
    62-0-0/w STRC(45)    r     1 IMU_KEY(0:3)
    52-0-0/w STRC(45)    r     1 IOM_KEY(0:3)
     0-0-0/w PTR         r     1 IS$                      105-0-0/c CHAR(3)     r     1 NO_RESP
    32-0-0/c CHAR(59)    r     1 NO_RETURN_MSG            104-0-0/c CHAR(3)     r     1 YES_RESP
     2-0-0/c CHAR(53)    r     1 YES_RETURN_MSG_1          20-0-0/c CHAR(38)    r     1 YES_RETURN_MSG_2

  ****  Structures  ****
OctLoc.c.b A Datatyp(siz) R M Lvl/name

PL6.E3A0      #001=TOP$POLTS File=TOP$POLTS.:E05TSI                              WED 07/30/97 06:30 Page:697
     1-0-0/w STRC        r     1 DEVICE_INFO_
     1-0-0/b UBIN(18)    r         2 ADDR#


  ****  Auto variables  ****

  ****  Scalars and arrays  ****
OctLoc.c.b A Datatyp(siz) R M Lvl/name                 OctLoc.c.b A Datatyp(siz) R M Lvl/name

    11-0-0/w PTR         r     1 @A                        12-0-0/w PTR         r     1 @A
    11-0-0/w PTR         r     1 @A                        11-0-0/w PTR         r     1 @A
    15-0-0/w PTR         r     1 @A                        27-0-0/w PTR         r     1 @A
    11-0-0/w PTR         r     1 @A_REG                    41-0-0/w PTR         r     1 @BIT12FLAG
    40-0-0/w PTR         r     1 @BIT13FLAG                37-0-0/w PTR         r     1 @BIT17FLAG
    46-0-0/w PTR         r     1 @CHANNEL_DEVICE           46-0-0/w PTR         r     1 @CHANNEL_DEVICE
    52-0-0/w PTR         r     1 @CHANNEL_DEVICE           46-0-0/w PTR         r     1 @DCB$
    46-0-0/w PTR         r     1 @DCB$                     46-0-0/w PTR         r     1 @DCB$
    17-0-0/w PTR         r     1 @ENTRY_ADR                23-0-0/w PTR         r     1 @ICC
    25-0-0/w PTR         r     1 @IO_ENTRY_ADR             25-0-0/w PTR         r     1 @IO_ENTRY_ADR
    24-0-0/w PTR         r     1 @LIST$                    23-0-0/w PTR         r     1 @LIST$
    24-0-0/w PTR         r     1 @LIST$                     3-0-0/w PTR         r     1 @MME
     5-0-0/w PTR         r     1 @MME_INSTR$               11-0-0/w PTR         r     1 @MME_INSTR$
    45-0-0/w PTR         r     1 @MME_W1                   11-0-0/w PTR         r     1 @MME_W1
    12-0-0/w PTR         r     1 @MME_W2                   13-0-0/w PTR         r     1 @MME_W3
    14-0-0/w PTR         r     1 @MME_W4                   11-0-0/w PTR         r     1 @MME_WD1
    35-0-0/w PTR         r     1 @MME_WD1                  12-0-0/w PTR         r     1 @MME_WD2
     4-0-0/w PTR         r     1 @MREG                     17-0-0/w PTR         r     1 @NEW_PAT_PTR
    26-0-0/w PTR         r     1 @NEW_SCT_ADR              25-0-0/w PTR         r     1 @NEW_SCT_ADR
    12-0-0/w PTR         r     1 @P_AREG                   11-0-0/w PTR         r     1 @P_AREG
    12-0-0/w PTR         r     1 @P_AREG                   12-0-0/w PTR         r     1 @P_AREG
    12-0-0/w PTR         r     1 @P_AREG                   13-0-0/w PTR         r     1 @P_AREG
    17-0-0/w PTR         r     1 @P_AREG                   11-0-0/w PTR         r     1 @P_AREG
    11-0-0/w PTR         r     1 @P_MMEWD1                 36-0-0/w PTR         r     1 @P_MMEWD2
    13-0-0/w PTR         r     1 @P_QREG                   12-0-0/w PTR         r     1 @P_QREG
    20-0-0/w PTR         r     1 @P_QREG                   12-0-0/w PTR         r     1 @P_QREG
    12-0-0/w PTR         r     1 @P_X0REG                  11-0-0/w PTR         r     1 @P_X1REG
    11-0-0/w PTR         r     1 @P_X1REG                  11-0-0/w PTR         r     1 @P_X1REG
PL6.E3A0      #001=TOP$POLTS File=TOP$POLTS.:E05TSI                              WED 07/30/97 06:30 Page:698
    15-0-0/w PTR         r     1 @P_X1REG                  11-0-0/w PTR         r     1 @P_X1REG
    11-0-0/w PTR         r     1 @P_X1REG                  11-0-0/w PTR         r     1 @P_X1REG
    11-0-0/w PTR         r     1 @P_X1REG                  11-0-0/w PTR         r     1 @P_X1REG
    12-0-0/w PTR         r     1 @P_X1REG                  13-0-0/w PTR         r     1 @P_X1REG
    13-0-0/w PTR         r     1 @P_X1REG                  11-0-0/w PTR         r     1 @P_X1REG
    11-0-0/w PTR         r     1 @P_X1REG                  12-0-0/w PTR         r     1 @P_X2REG
    14-0-0/w PTR         r     1 @P_X2REG                  13-0-0/w PTR         r     1 @P_X3REG
    14-0-0/w PTR         r     1 @P_X3REG                  13-0-0/w PTR         r     1 @P_X4REG
    14-0-0/w PTR         r     1 @P_X4REG                  15-0-0/w PTR         r     1 @P_X4REG
    15-0-0/w PTR         r     1 @P_X4REG                  11-0-0/w PTR         r     1 @P_X4REG
    16-0-0/w PTR         r     1 @P_X6REG                  11-0-0/w PTR         r     1 @P_X7REG
    12-0-0/w PTR         r     1 @Q                        15-0-0/w PTR         r     1 @Q
    12-0-0/w PTR         r     1 @Q                        12-0-0/w PTR         r     1 @Q
    13-0-0/w PTR         r     1 @Q                        16-0-0/w PTR         r     1 @Q
    26-0-0/w PTR         r     1 @Q                        12-0-0/w PTR         r     1 @Q_REG
    42-0-0/w PTR         r     1 @Q_REG                    25-0-0/w PTR         r     1 @REASON
    25-0-0/w PTR         r     1 @REASON                   40-0-0/w PTR         r     1 @REASON
    47-0-0/w PTR         r     1 @REASON                   53-0-0/w PTR         r     1 @REASON
     6-0-0/w PTR         r     1 @RETURN_DELTA             14-0-0/w PTR         r     1 @RETURN_DELTA
    21-0-0/w PTR         r     1 @RETURN_DELTA             14-0-0/w PTR         r     1 @RETURN_DELTA
    13-0-0/w PTR         r     1 @RETURN_DELTA             12-0-0/w PTR         r     1 @RETURN_DELTA
    14-0-0/w PTR         r     1 @RETURN_DELTA             13-0-0/w PTR         r     1 @RETURN_DELTA
    16-0-0/w PTR         r     1 @RETURN_DELTA             14-0-0/w PTR         r     1 @RETURN_DELTA
    13-0-0/w PTR         r     1 @RETURN_DELTA             12-0-0/w PTR         r     1 @RETURN_DELTA
    12-0-0/w PTR         r     1 @RETURN_DELTA             13-0-0/w PTR         r     1 @RETURN_DELTA
    13-0-0/w PTR         r     1 @RETURN_DELTA             15-0-0/w PTR         r     1 @RETURN_DELTA
    12-0-0/w PTR         r     1 @RETURN_DELTA             14-0-0/w PTR         r     1 @RETURN_DELTA
    21-0-0/w PTR         r     1 @RETURN_DELTA             16-0-0/w PTR         r     1 @RETURN_DELTA
    12-0-0/w PTR         r     1 @RETURN_DELTA             12-0-0/w PTR         r     1 @RETURN_DELTA
    16-0-0/w PTR         r     1 @RETURN_DELTA             20-0-0/w PTR         r     1 @RETURN_DELTA
    31-0-0/w PTR         r     1 @RETURN_DELTA             12-0-0/w PTR         r     1 @RETURN_DELTA
    15-0-0/w PTR         r     1 @RETURN_DELTA             37-0-0/w PTR         r     1 @SCT
    47-0-0/w PTR         r     1 @SCT                      45-0-0/w PTR         r     1 @SCT
    45-0-0/w PTR         r     1 @SCT                      45-0-0/w PTR         r     1 @SCT
    45-0-0/w PTR         r     1 @SCT                      51-0-0/w PTR         r     1 @SCT
    45-0-0/w PTR         r     1 @SCT                      36-0-0/w PTR         r     1 @SCT
    43-0-0/w PTR         r     1 @SCTWDS_BUILT             21-0-0/w PTR         r     1 @TCX
PL6.E3A0      #001=TOP$POLTS File=TOP$POLTS.:E05TSI                              WED 07/30/97 06:30 Page:699
    31-0-0/w PTR         r     1 @TCX                      31-0-0/w PTR         r     1 @TCX
    31-0-0/w PTR         r     1 @TCX                      31-0-0/w PTR         r     1 @TCX
    31-0-0/w PTR         r     1 @TCX                      31-0-0/w PTR         r     1 @TCX
    20-0-0/w PTR         r     1 @TCX                      20-0-0/w PTR         r     1 @TCX
    17-0-0/w PTR         r     1 @TCX                      17-0-0/w PTR         r     1 @TCX
    23-0-0/w PTR         r     1 @TCX                      23-0-0/w PTR         r     1 @TCX
    25-0-0/w PTR         r     1 @TCX                      35-0-0/w PTR         r     1 @TCX
    35-0-0/w PTR         r     1 @TCX                      26-0-0/w PTR         r     1 @TCX
    25-0-0/w PTR         r     1 @TCX                      25-0-0/w PTR         r     1 @TCX
    25-0-0/w PTR         r     1 @TCX                      25-0-0/w PTR         r     1 @TCX
    35-0-0/w PTR         r     1 @TCX                      24-0-0/w PTR         r     1 @TCX
    26-0-0/w PTR         r     1 @TCX                      11-0-0/w PTR         r     1 @WD_1
    12-0-0/w PTR         r     1 @WD_2                     13-0-0/w PTR         r     1 @WD_3
    14-0-0/w PTR         r     1 @WD_4                     13-0-0/w PTR         r     1 @X0
    16-0-0/w PTR         r     1 @X1                       11-0-0/w PTR         r     1 @X1
    13-0-0/w PTR         r     1 @X1                       13-0-0/w PTR         r     1 @X1_REG
    17-0-0/w PTR         r     1 @X2                       13-0-0/w PTR         r     1 @X2
    14-0-0/w PTR         r     1 @X2                       14-0-0/w PTR         r     1 @X2_REG
    20-0-0/w PTR         r     1 @X3                       15-0-0/w PTR         r     1 @X3
    36-0-0/w PTR         r     1 @X3                       46-0-0/w PTR         r     1 @X3
    11-0-0/w PTR         r     1 @X4                       12-0-0/w PTR         r     1 @X4
    17-0-0/w PTR         r     1 @X4                       30-0-0/w PTR         r     1 @X4
    14-0-0/w PTR         r     1 @X5                       *0-0-0/w UBIN        r     1 A
    *0-0-0/w UBIN        r     1 A                         *0-0-0/w UBIN        r     1 A
    *0-0-0/w UBIN        r     1 A                       2306-0-0/c CHAR(7200)  r     1 ASCII_BUF
    26-0-0/w UBIN        r     1 BCD_BUF(0:1199)         5737-0-0/w UBIN        r     1 BCD_BUF_INX
    *0-0-0/c BIT         r     1 BIT12FLAG                 *0-0-0/c BIT         r     1 BIT13FLAG
    *0-0-0/c BIT         r     1 BIT17FLAG               5722-0-0/w SBIN        r     1 BL_INX
    13-0-0/h SBIN(18)    r     1 BOUNDS                    20-0-0/w PTR         r     1 CC$
    15-0-0/w PTR         r     1 CC$                       41-0-0/w CHAR(8)     r     1 CHANNEL_DEVICE
    *0-0-0/c CHAR(8)     r     1 CHANNEL_DEVICE            *0-0-0/c CHAR(8)     r     1 CHANNEL_DEVICE
    *0-0-0/c CHAR(8)     r     1 CHANNEL_DEVICE          5723-0-0/w SBIN        r     1 CHR_INX
    32-0-0/w PTR         r     1 CN_SCT$                   45-0-0/w PTR         r     1 CN_SCT$
  3770-0-0/w PTR         r     1 CONFIG$                   43-0-0/w PTR         r     1 CONFIG_DCB$
    47-0-0/w UBIN        r     1 CONFIG_RECORD(0:2000)
    50-0-0/w UBIN        r     1 CONFIG_RECORD(0:2000)
    54-0-0/w UBIN        r     1 CONFIG_RECORD(0:2000)
PL6.E3A0      #001=TOP$POLTS File=TOP$POLTS.:E05TSI                              WED 07/30/97 06:30 Page:700
    26-0-0/c BIT         r     1 CONTINUE                5733-0-0/w UBIN        r     1 CRLF_INDEX
    14-0-0/w PTR         r     1 CSCT$                     *0-0-0/w PTR         r     1 DCB$
    *0-0-0/w PTR         r     1 DCB$                      *0-0-0/w PTR         r     1 DCB$
    30-0-0/w PTR         r     1 DCW$                      31-0-0/w PTR         r     1 DCWLIST$
    47-0-0/w PTR         r     1 DEVICE$                   40-0-0/h UBIN(18)    r     1 DIX
  5724-0-0/w SBIN        r     1 DOT_INX                 5726-0-0/w UBIN        r     1 DUMP_ADDR_TEMP
    22-0-0/w PTR         r     1 DUMP_HDR$               5734-0-0/w UBIN        r     1 DUMP_HDR_INDEX
  5733-0-0/w UBIN        r     1 DUMP_HDR_INX              24-0-0/w UBIN        r     1 DUMP_HDR_SIZE
    23-0-0/w SBIN        r     1 DUMP_LINE_INX           5721-0-0/w UBIN        r     1 DUMP_SIZE
  5721-0-0/w SBIN        r     1 DUMP_SIZE_SBIN          5727-0-0/h UBIN(18)    r     1 DUMP_TYPE
    20-0-0/w UBIN        r     1 DUMP_WORD_INX             32-0-0/w PTR         r     1 DV_SCT$
    44-0-0/w PTR         r     1 DV_SCT$                   21-0-0/c CHAR(4)     r     1 EDIT_NAME
  5731-0-0/b BIT         r     1 EDIT_NAME_FOUND           *0-0-0/h UBIN(18)    r     1 ENTRY_ADR
    17-0-0/w PTR         r     1 EXT_STATUS$               24-0-0/w PTR         r     1 FICCDD$
    36-0-0/w BIT         r     1 FOUND                     27-0-0/c BIT         r     1 HAS_DCWS
    *0-0-0/w UBIN(11)    r     1 ICC                       30-0-0/w PTR         r     1 IO_ENTRY$
    *0-0-0/h UBIN(18)    r     1 IO_ENTRY_ADR              *0-0-0/h UBIN(18)    r     1 IO_ENTRY_ADR
    35-0-0/b BIT         r     1 LAST_DATA_DCW           5735-0-0/w UBIN        r     1 LINE_LGTH
    17-0-0/w PTR         r     1 LIST$                     *0-0-0/w PTR         r     1 LIST$
    *0-0-0/w PTR         r     1 LIST$                     *0-0-0/w PTR         r     1 LIST$
    32-0-0/w UBIN        r     1 LIST_SIZE               5725-0-0/b BIT         r     1 LP_DUMP
    *0-0-0/w PTR         r     1 MME_INSTR$                *0-0-0/w PTR         r     1 MME_INSTR$
    *0-0-0/w UBIN        r     1 MME_W2                    *0-0-0/w UBIN        r     1 MME_W3
    *0-0-0/w UBIN        r     1 MME_W4                    *0-0-0/w UBIN        r     1 MME_WD1
    *0-0-0/w UBIN        r     1 MME_WD1                   *0-0-0/w UBIN        r     1 MME_WD2
  3775-0-0/w PTR         r     1 MPC$                      32-0-0/w PTR         r     1 MTARF$
    *0-0-0/h UBIN(18)    r     1 NEW_PAT_PTR               22-0-0/h UBIN(18)    r     1 NEW_SCT_ADR
    *0-0-0/h UBIN(18)    r     1 NEW_SCT_ADR               *0-0-0/h UBIN(18)    r     1 NEW_SCT_ADR
    25-0-0/w UBIN(20)    r     1 NEXT_PAGE_AVAIL           16-0-0/w UBIN        r     1 OCT_WORDS_PER_LINE
    16-0-0/w SBIN        r     1 OCT_WORDS_PER_LINE_SBIN
  5735-0-0/w UBIN        r     1 OFFSET                    16-0-0/w STRC(11)    r     1 ONLY_ICC
    14-0-0/w PTR         r     1 PARAMETER$                27-0-0/w PTR         r     1 POLTS_IO$
    27-0-0/w PTR         r     1 POLTS_IO$                 20-0-0/w PTR         r     1 POLTS_STATUS$
    15-0-0/w PTR         r     1 POLTS_STATUS$             15-0-0/w PTR         r     1 POLTS_STATUS$
    *0-0-0/w UBIN        r     1 P_AREG                    *0-0-0/w UBIN        r     1 P_AREG
    *0-0-0/w UBIN        r     1 P_AREG                    *0-0-0/w UBIN        r     1 P_AREG
    *0-0-0/w UBIN        r     1 P_AREG                    *0-0-0/w UBIN        r     1 P_AREG
PL6.E3A0      #001=TOP$POLTS File=TOP$POLTS.:E05TSI                              WED 07/30/97 06:30 Page:701
    *0-0-0/w UBIN        r     1 P_AREG                    *0-0-0/w UBIN        r     1 P_AREG
    *0-0-0/w UBIN        r     1 P_MMEWD1                  *0-0-0/w UBIN        r     1 P_MMEWD2
    *0-0-0/w UBIN        r     1 P_QREG                    *0-0-0/w UBIN        r     1 P_QREG
    *0-0-0/w UBIN        r     1 P_QREG                    *0-0-0/w UBIN        r     1 P_QREG
    *0-0-0/h UBIN(18)    r     1 P_X0REG                   *0-0-0/h UBIN(18)    r     1 P_X1REG
    *0-0-0/h UBIN(18)    r     1 P_X1REG                   *0-0-0/h UBIN(18)    r     1 P_X1REG
    *0-0-0/h UBIN(18)    r     1 P_X1REG                   *0-0-0/h UBIN(18)    r     1 P_X1REG
    *0-0-0/h UBIN(18)    r     1 P_X1REG                   *0-0-0/h UBIN(18)    r     1 P_X1REG
    *0-0-0/h UBIN(18)    r     1 P_X1REG                   *0-0-0/h UBIN(18)    r     1 P_X1REG
    *0-0-0/h UBIN(18)    r     1 P_X1REG                   *0-0-0/h UBIN(18)    r     1 P_X1REG
    *0-0-0/h UBIN(18)    r     1 P_X1REG                   *0-0-0/h UBIN(18)    r     1 P_X1REG
    *0-0-0/h UBIN(18)    r     1 P_X1REG                   *0-0-0/h UBIN(18)    r     1 P_X2REG
    *0-0-0/h UBIN(18)    r     1 P_X2REG                   *0-0-0/h UBIN(18)    r     1 P_X3REG
    *0-0-0/h UBIN(18)    r     1 P_X3REG                   *0-0-0/h UBIN(18)    r     1 P_X4REG
    *0-0-0/h UBIN(18)    r     1 P_X4REG                   *0-0-0/h UBIN(18)    r     1 P_X4REG
    *0-0-0/h UBIN(18)    r     1 P_X4REG                   *0-0-0/h UBIN(18)    r     1 P_X4REG
    *0-0-0/h UBIN(18)    r     1 P_X6REG                   *0-0-0/h UBIN(18)    r     1 P_X7REG
    *0-0-0/w SBIN        r     1 Q                         *0-0-0/w UBIN        r     1 Q
    *0-0-0/w UBIN        r     1 Q                         *0-0-0/w UBIN        r     1 Q
    *0-0-0/w UBIN        r     1 Q                         *0-0-0/w UBIN        r     1 Q
    *0-0-0/w UBIN        r     1 Q                         *0-0-0/w BIT         r     1 Q_REG
  5734-0-0/w UBIN        r     1 RCW_                      *0-0-0/h UBIN(18)    r     1 REASON
    *0-0-0/h UBIN(18)    r     1 REASON                    33-0-0/h UBIN(18)    r     1 REASON
    *0-0-0/h UBIN(18)    r     1 REASON                    *0-0-0/h UBIN(18)    r     1 REASON
    *0-0-0/h UBIN(18)    r     1 REASON                    *0-0-0/w SBIN(18)    r     1 RETURN_DELTA
    *0-0-0/h SBIN(18)    r     1 RETURN_DELTA              *0-0-0/h SBIN(18)    r     1 RETURN_DELTA
    *0-0-0/h SBIN(18)    r     1 RETURN_DELTA              *0-0-0/h SBIN(18)    r     1 RETURN_DELTA
    *0-0-0/h SBIN(18)    r     1 RETURN_DELTA              *0-0-0/h SBIN(18)    r     1 RETURN_DELTA
    *0-0-0/h SBIN(18)    r     1 RETURN_DELTA              *0-0-0/w SBIN(18)    r     1 RETURN_DELTA
    *0-0-0/h SBIN(18)    r     1 RETURN_DELTA              *0-0-0/h SBIN(18)    r     1 RETURN_DELTA
    *0-0-0/h SBIN(18)    r     1 RETURN_DELTA              *0-0-0/h SBIN(18)    r     1 RETURN_DELTA
    *0-0-0/h SBIN(18)    r     1 RETURN_DELTA              *0-0-0/w SBIN(18)    r     1 RETURN_DELTA
    *0-0-0/h SBIN(18)    r     1 RETURN_DELTA              *0-0-0/h SBIN(18)    r     1 RETURN_DELTA
    *0-0-0/w SBIN(18)    r     1 RETURN_DELTA              *0-0-0/w SBIN(18)    r     1 RETURN_DELTA
    *0-0-0/w SBIN(18)    r     1 RETURN_DELTA              *0-0-0/w SBIN(18)    r     1 RETURN_DELTA
    *0-0-0/h SBIN(18)    r     1 RETURN_DELTA              *0-0-0/h SBIN(18)    r     1 RETURN_DELTA
    *0-0-0/h SBIN(18)    r     1 RETURN_DELTA              *0-0-0/h SBIN(18)    r     1 RETURN_DELTA
PL6.E3A0      #001=TOP$POLTS File=TOP$POLTS.:E05TSI                              WED 07/30/97 06:30 Page:702
    *0-0-0/w SBIN(18)    r     1 RETURN_DELTA              *0-0-0/w SBIN(18)    r     1 RETURN_DELTA
    37-0-0/w PTR         r     1 SCT$                      25-0-0/c BIT         r     1 SCTWDS_BUILT
    32-0-0/c BIT         r     1 SCTWDS_BUILT              *0-0-0/c BIT         r     1 SCTWDS_BUILT
    46-0-0/w PTR         r     1 SCTWRK$                   37-0-0/w PTR         r     1 STATUS$
  5736-0-0/w UBIN        r     1 SUM                       16-0-0/w UBIN        r     1 TCX
    *0-0-0/w UBIN        r     1 TCX                       23-0-0/w UBIN        r     1 TCX
    *0-0-0/w UBIN        r     1 TCX                       *0-0-0/w UBIN        r     1 TCX
    *0-0-0/w UBIN        r     1 TCX                       *0-0-0/w UBIN        r     1 TCX
    *0-0-0/w UBIN        r     1 TCX                       *0-0-0/w UBIN        r     1 TCX
    15-0-0/w UBIN        r     1 TCX                       14-0-0/w UBIN        r     1 TCX
    *0-0-0/w UBIN        r     1 TCX                       15-0-0/w UBIN        r     1 TCX
    15-0-0/w UBIN        r     1 TCX                       15-0-0/w UBIN        r     1 TCX
    *0-0-0/w UBIN        r     1 TCX                       *0-0-0/w UBIN        r     1 TCX
    *0-0-0/w UBIN        r     1 TCX                       14-0-0/w UBIN        r     1 TCX
    13-0-0/w UBIN        r     1 TCX                       14-0-0/w UBIN        r     1 TCX
    20-0-0/w UBIN        r     1 TCX                       *0-0-0/w UBIN        r     1 TCX
    *0-0-0/w UBIN        r     1 TCX                       15-0-0/w UBIN        r     1 TCX
    22-0-0/w UBIN        r     1 TCX                       *0-0-0/w UBIN        r     1 TCX
    17-0-0/w UBIN        r     1 TCX                       *0-0-0/w UBIN        r     1 TCX
    *0-0-0/w UBIN        r     1 TCX                       21-0-0/w UBIN        r     1 TCX
    *0-0-0/w UBIN        r     1 TCX                       *0-0-0/w UBIN        r     1 TCX
    *0-0-0/w UBIN        r     1 TCX                       *0-0-0/w UBIN        r     1 TCX
    *0-0-0/w UBIN        r     1 TCX                       *0-0-0/w UBIN        r     1 TCX
    *0-0-0/w UBIN        r     1 TCX                       *0-0-0/w UBIN        r     1 TCX
    11-0-0/w SBIN        r     1 TCX                       16-0-0/b UBIN(18)    r     1 TD_DCB#
    15-0-0/w PTR         r     1 TD_DCB$                   17-0-0/w PTR         r     1 TD_DCB$
    12-0-0/w PTR         r     1 TD_DCB$                   16-0-0/w PTR         r     1 TD_DCB$
    36-0-0/w PTR         r     1 TEMP$                   5716-0-0/w CHAR(12)    r     1 TEMP_ASCII_BUF
    13-0-0/w PTR         r     1 TERMSTAT$                 17-0-0/w UBIN        r     1 TP_BASE_REL_ADDR
    25-0-0/w SBIN        r     1 TP_STATS_INX              16-0-0/w PTR         r     1 TRAIN_BFR$
  5731-0-0/b BIT         r     1 VALID_RESPONSE            *0-0-0/w UBIN        r     1 WD_3
    *0-0-0/w UBIN        r     1 WD_4                      26-0-0/w PTR         r     1 WORK$
    24-0-0/w PTR         r     1 WORK$                     26-0-0/w PTR         r     1 WORK$
    *0-0-0/h UBIN(18)    r     1 X0                        *0-0-0/h UBIN(18)    r     1 X1
    *0-0-0/h UBIN(18)    r     1 X1                        *0-0-0/h UBIN(18)    r     1 X1
    *0-0-0/h SBIN(18)    r     1 X1_REG                    *0-0-0/h UBIN(18)    r     1 X2
    *0-0-0/h UBIN(18)    r     1 X2                        *0-0-0/h UBIN(18)    r     1 X2
PL6.E3A0      #001=TOP$POLTS File=TOP$POLTS.:E05TSI                              WED 07/30/97 06:30 Page:703
    *0-0-0/h UBIN(18)    r     1 X2_REG                    *0-0-0/h UBIN(18)    r     1 X3
    *0-0-0/h UBIN(18)    r     1 X3                        *0-0-0/h UBIN(18)    r     1 X3
    *0-0-0/h UBIN(18)    r     1 X3                        *0-0-0/h UBIN(18)    r     1 X4
    *0-0-0/h UBIN(18)    r     1 X4                        *0-0-0/h UBIN(18)    r     1 X4
    *0-0-0/h UBIN(18)    r     1 X4                        *0-0-0/h UBIN(18)    r     1 X5

  ****  Structures  ****
OctLoc.c.b A Datatyp(siz) R M Lvl/name

    *0-0-0/w STRC        r     1 A
     0-0-0/h UBIN(18)    r         2 A_UPPER
     0-2-0/h UBIN(18)    r         2 A_LOWER

    *0-0-0/w STRC        r     1 A
     0-0-0/b UBIN(18)    r         2 UPPER

    *0-0-0/w STRC        r     1 A_REG
     0-0-0/b UBIN(18)    r         2 ADDR#
     0-2-0/b UBIN(18)    r         2 SIZE#

    14-0-0/w STRC        r     1 CSCT_PTR
    14-0-0/b UBIN(18)    r         2 ADDR#

    45-0-0/w STRC        r     1 CSCT_PTR
    45-0-0/b UBIN(18)    r         2 ADDR#

    31-0-0/w STRC        r     1 DCWLIST_
    31-0-0/b UBIN(18)    r         2 ADDR#

    15-0-0/w STRC(11)    r     1 ICC
    15-0-0/b UBIN(3)     r         2 IOM#
    15-0-3/b UBIN(8)     r         2 CHAN#

    14-0-0/b STRC(11)    r     1 ICC
    14-0-0/b UBIN(3)     r         2 IOM#
    14-0-3/b UBIN(8)     r         2 CHAN#

PL6.E3A0      #001=TOP$POLTS File=TOP$POLTS.:E05TSI                              WED 07/30/97 06:30 Page:704
    15-0-0/b STRC(11)    r     1 ICC
    15-0-0/b UBIN(3)     r         2 IOM#
    15-0-3/b UBIN(8)     r         2 CHAN#

    *0-0-0/w STRC        r     1 ICC
     0-0-7/b STRC(11)    r         2 ICCC
     0-0-7/b UBIN(3)     r          3 IOM#

    *0-0-0/w STRC(252)   r     1 MME
     0-0-0/b STRC        r         2 INST
     0-0-0/b SBIN(18)    r          3 NO
     1-0-0/w UBIN        r         2 WD_1
     2-0-0/w UBIN        r         2 WD_2
     3-0-0/w UBIN        r         2 WD_3
     4-0-0/w UBIN        r         2 WD_4

    *0-0-0/w STRC        r     1 MME_W1
     0-0-0/b UBIN(18)    r         2 ADR

    *0-0-0/w STRC        r     1 MME_W1
     0-0-0/b UBIN(18)    r         2 ADDR#

    *0-0-0/w STRC        r     1 MME_W1
     0-0-0/b UBIN(18)    r         2 ADDR#

    *0-0-0/w STRC        r     1 MME_W2
     0-0-0/b UBIN(18)    r         2 ADDR#

    *0-0-0/d STRC(252)   r     1 MREG
     0-0-0/b UBIN(18)    r         2 X0
     0-2-0/b UBIN(18)    r         2 X1
     1-0-0/b UBIN(18)    r         2 X2
     1-2-0/b UBIN(18)    r         2 X3
     2-0-0/b UBIN(18)    r         2 X4
     2-2-0/b UBIN(18)    r         2 X5
     3-0-0/b UBIN(18)    r         2 X6
     3-2-0/b UBIN(18)    r         2 X7
PL6.E3A0      #001=TOP$POLTS File=TOP$POLTS.:E05TSI                              WED 07/30/97 06:30 Page:705
     4-0-0/b UBIN        r         2 A
     5-0-0/b UBIN        r         2 Q

    26-0-0/b STRC(21)    r     1 NEW_ICCDD
    26-0-0/b BIT (3)     r         2 FLAG#
    26-0-3/b BIT         r         2 FORMAT#
    26-0-4/b STRC(17)    r         2 ICCDD_
    26-0-4/b UBIN(3)     r          3 IOM#
    26-0-7/b UBIN(8)     r          3 CHAN#
    26-1-6/b UBIN(6)     r          3 DEV#
    26-0-4/b UBIN(17)    r         2 ICCDD#

    *0-0-0/w STRC        r     1 Q_REG
     0-0-0/b UBIN(18)    r         2 ADDR#
     0-2-0/b UBIN(18)    r         2 SIZE#

    *0-0-0/w STRC        r     1 Q_REG_
     0-0-0/b BIT         r         2 TAPE_URC_FLAG#
     0-0-6/b STRC(12)    r         2 TAPE_ICC
     0-0-6/b BIT         r          3 FORMAT#
     0-0-7/b STRC(11)    r          3 OLD_FORMAT
     0-0-7/b UBIN(5)     r           4 IOM#
     0-1-3/b UBIN(6)     r           4 CHAN#
     0-0-7/b STRC(11)    r          3 NEW_FORMAT
     0-0-7/b UBIN(3)     r           4 IOM#
     0-1-1/b UBIN(8)     r           4 CHAN#

  5734-0-0/w STRC        r     1 RCW
  5734-0-0/b UBIN(18)    r         2 RCD_LGTH#

    *0-0-0/h STRC(18)    r     1 RELEASE_ID
     0-0-0/b UBIN(6)     r         2 TYPE

    20-0-0/w STRC(333)   r     1 SCT
    24-2-0/c BIT         r         2 BIT17
    24-3-0/c BIT         r         2 BIT13
    25-0-0/c BIT         r         2 BIT12
PL6.E3A0      #001=TOP$POLTS File=TOP$POLTS.:E05TSI                              WED 07/30/97 06:30 Page:706

    *0-0-0/w STRC(333)   r     1 SCT
     1-0-0/c UBIN(6)     r         2 TEST_TYPE

    *0-0-0/w STRC(333)   r     1 SCT
     0-0-0/w STRC        r         2 FICCDD
     0-0-0/b BIT (3)     r          3 FLAG#
     0-0-3/b BIT         r          3 FORMAT#
     0-0-4/b UBIN(2)     r          3 IOM#
     0-0-6/b UBIN(18)    r          3 CHANNEL#
     0-2-6/b UBIN(6)     r          3 DEVICE#
     1-0-0/c UBIN(6)     r         2 TEST_TYPE

    *0-0-0/w STRC(333)   r     1 SCT
     0-0-0/w STRC        r         2 FICCDD
     0-0-4/b UBIN(2)     r          3 IOM#
     0-0-6/b UBIN(18)    r          3 CHANNEL#

    *0-0-0/w STRC(333)   r     1 SCT
     0-0-0/w STRC        r         2 FICCDD
     0-0-4/b UBIN(2)     r          3 IOM#
     0-0-6/b UBIN(18)    r          3 CHANNEL#
     0-2-6/b UBIN(6)     r          3 DEVICE#
     1-0-0/c UBIN(6)     r         2 TEST_TYPE

    *0-0-0/w STRC(333)   r     1 SCT
     5-1-0/c CHAR(8)     r         2 MODEL

    *0-0-0/w STRC(333)   r     1 SCT
     0-0-0/w STRC        r         2 FICCDD
     0-2-6/b UBIN(6)     r          3 DEVICE#

    *0-0-0/w STRC(333)   r     1 SCT
     0-0-0/w STRC        r         2 FICCDD
     0-0-4/b UBIN(2)     r          3 IOM#
     0-0-6/b UBIN(18)    r          3 CHANNEL#
     1-0-0/c UBIN(6)     r         2 TEST_TYPE
PL6.E3A0      #001=TOP$POLTS File=TOP$POLTS.:E05TSI                              WED 07/30/97 06:30 Page:707
     1-2-0/c STRC(108)   r         2 FIRMWARE
     1-2-0/c CHAR(4)     r          3 TYPE#
     2-2-0/c CHAR(4)     r          3 LP#
     3-2-0/c CHAR(4)     r          3 RP#
     7-1-0/c CHAR(8)     r         2 MPC_MODEL

    *0-0-0/w STRC(333)   r     1 SCT
     1-0-0/c UBIN(6)     r         2 TEST_TYPE
     1-1-0/c UBIN(6)     r         2 DEVICE_CODE
     1-2-0/c STRC(108)   r         2 FIRMWARE
     1-2-0/c CHAR(4)     r          3 TYPE#
     4-2-0/c BIT         r         2 BIT17
     4-3-0/c BIT         r         2 BIT13
     5-0-0/c BIT         r         2 BIT12
     5-1-0/c CHAR(8)     r         2 MODEL

    *0-0-0/w STRC(333)   r     1 SCT
     0-0-0/w STRC        r         2 FICCDD
     0-0-0/b BIT (3)     r          3 FLAG#
     0-0-3/b BIT         r          3 FORMAT#
     0-0-4/b UBIN(2)     r          3 IOM#
     0-0-6/b UBIN(18)    r          3 CHANNEL#
     0-2-6/b UBIN(6)     r          3 DEVICE#
     1-0-0/c UBIN(6)     r         2 TEST_TYPE
     1-1-0/c UBIN(6)     r         2 DEVICE_CODE
     1-2-0/c STRC(108)   r         2 FIRMWARE
     1-2-0/c CHAR(4)     r          3 TYPE#
     2-2-0/c CHAR(4)     r          3 LP#
     3-2-0/c CHAR(4)     r          3 RP#
     4-2-0/c BIT         r         2 BIT17
     4-3-0/c BIT         r         2 BIT13
     5-0-0/c BIT         r         2 BIT12
     5-1-0/c CHAR(8)     r         2 MODEL
     7-1-0/c CHAR(8)     r         2 MPC_MODEL

    37-0-0/w STRC        r     1 SCT_
    37-0-0/b UBIN(18)    r         2 ADDR#
PL6.E3A0      #001=TOP$POLTS File=TOP$POLTS.:E05TSI                              WED 07/30/97 06:30 Page:708

    44-0-0/w STRC        r     1 SCT_PTR
    44-0-0/b UBIN(18)    r         2 ADDR#

    *0-0-0/w STRC        r     1 WD_1
     0-0-0/h UBIN(18)    r         2 FICCDD_ADDR#

    *0-0-0/w STRC        r     1 WD_2
     0-2-0/h UBIN(18)    r         2 MTAR_FLAG_ADDR#

    *0-0-0/h STRC(18)    r     1 X1
     0-0-6/b BIT         r         2 FORMAT#
     0-0-7/b STRC(11)    r         2 OLD_ICC
     0-0-7/b UBIN(5)     r          3 IOM#
     0-1-3/b UBIN(6)     r          3 CHAN#
     0-0-7/b STRC(11)    r         2 NEW_ICC
     0-0-7/b UBIN(3)     r          3 IOM#
     0-1-1/b UBIN(8)     r          3 CHAN#

    *0-0-0/h STRC(18)    r     1 X1
     0-0-6/b BIT         r         2 FORMAT#
     0-0-7/b STRC(11)    r         2 OLD_ICC
     0-0-7/b UBIN(5)     r          3 IOM#
     0-1-3/b UBIN(6)     r          3 CHAN#
     0-0-7/b STRC(11)    r         2 NEW_ICC
     0-0-7/b UBIN(3)     r          3 IOM#
     0-1-1/b UBIN(8)     r          3 CHAN#


  ****  SYMREF variables  ****

  ****  Scalars and arrays  ****
OctLoc.c.b A Datatyp(siz) R M Lvl/name                 OctLoc.c.b A Datatyp(siz) R M Lvl/name

     0-0-0/w PTR         r     1 B$JIT$                     0-0-0/w PTR         r     1 B$TCB$

  ****  Structures  ****
PL6.E3A0      #001=TOP$POLTS File=TOP$POLTS.:E05TSI                              WED 07/30/97 06:30 Page:709
OctLoc.c.b A Datatyp(siz) R M Lvl/name

     0-0-0/d STRC(432)   r     1 CONSOLE_FPT
     4-0-0/w STRC(72)    r         2 BUF_

     0-0-0/d STRC(504)   r     1 READ_IO
     4-0-0/w STRC(72)    r         2 BUF_

     0-0-0/w STRC(288)   r     1 TOP$SCT(0:7)
     0-0-0/w STRC(144)   r         2 CN
     4-0-0/w STRC(144)   r         2 DV
     4-0-0/w UBIN        r          3 WD0#
     5-0-0/w UBIN        r          3 WD1#

     0-0-0/d STRC(288)   r     1 TOT$DMC
     2-0-0/d STRC(72)    r         2 TOP$TCP
     3-0-0/b PTR         r          3 PTR$

     0-0-0/w STRC(495)   r     1 TOT$ECP
     3-0-0/w STRC(72)    r         2 IO
     4-0-0/w SBIN        r          3 COUNT
     7-0-0/w STRC(216)   r         2 SUBEXEC
     7-0-0/w UBIN        r          3 CURRENT
    10-0-0/w UBIN        r          3 ADDRESS
    11-0-0/c CHAR(4)     r          3 EDIT_NAME
    13-0-0/w PTR         r          3 WRAPUP$
    14-0-0/w SBIN        r          3 TEST_PAGE_COUNT
    15-2-0/c UBIN(9)     r         2 BOOT_CPU_TYPE

     0-0-0/c STRC(639)   r     1 TOT$TOLTS
     0-0-0/c STRC(90)    r         2 LINK_DATE
     1-2-0/c BIT         r          3 BCD


  ****  BASED and DCB variables  ****

  ****  Scalars and arrays  ****
PL6.E3A0      #001=TOP$POLTS File=TOP$POLTS.:E05TSI                              WED 07/30/97 06:30 Page:710
OctLoc.c.b A Datatyp(siz) R M Lvl/name                 OctLoc.c.b A Datatyp(siz) R M Lvl/name

     0-0-0/w UBIN        r     1 DUMP_WORD_OCT
     0-0-0/w UBIN        r     1 EXT_STATUS(0:7)
     0-0-0/w UBIN        r     1 IO_ENTRY_WORDS(0:10)
     0-0-0N  NULL        r     1 M$CNFGFILE                 0-0-0N  NULL        r     1 M$DEVCNFG
     0-0-0N  NULL        r     1 M$DUMP                     0-0-0N  NULL        r     1 M$MCACNFG
     0-0-0N  NULL        r     1 M$UC                       0-0-0/w UBIN        r     1 PARAMETER
     0-0-0/w BIT         r     1 PARAMETER_BIT              0-0-0/w CHAR(288)   r     1 TRAIN_BFR

  ****  Structures  ****
OctLoc.c.b A Datatyp(siz) R M Lvl/name

     0-0-0/w STRC(2448)  r     1 B$ALT
   102-0-0/b STRC        r         2 ERR

     0-0-0/w STRC(2448)  r     1 B$ALT
   102-0-0/b STRC        r         2 ERR

     0-0-0/w STRC(2448)  r     1 B$EXCFR
   102-0-0/b STRC        r         2 ERR

     0-0-0/d STRC(8856)  r     1 B$JIT
     6-0-0/c CHAR(8)     r         2 FACCN
   204-0-0/h UBIN(18)    r         2 TDP

     0-0-0/w STRC(144)   r     1 B$TCB
     0-0-0/w PTR         r         2 ALT$

     0-0-0/w STRC(144)   r     1 B$TCB
     0-0-0/w PTR         r         2 ALT$

     0-0-0/w STRC(144)   r     1 CONTROLLER_SCT
     0-0-0/b STRC        r         2 W0
     0-0-1/b BIT         r          3 VOLATILE_FW#
     0-0-2/b BIT         r          3 MPC#

PL6.E3A0      #001=TOP$POLTS File=TOP$POLTS.:E05TSI                              WED 07/30/97 06:30 Page:711
     0-0-0/w STRC(144)   r     1 CONTROLLER_SCT
     0-0-0/w BIT         r         2 W0#

     0-0-0/w STRC        r     1 DCW
     0-0-0/b UBIN(18)    r         2 ADDR#
     0-2-4/b UBIN(2)     r         2 TYPE#

     0-0-0/w STRC(144)   r     1 DEVICE_SCT
     0-0-0/b STRC        r         2 W0
     0-0-0/b UBIN(6)     r          3 DEVICE_TYPE#
     0-0-6/b UBIN(6)     r          3 DEVICE_NO#
     0-1-3/b BIT         r          3 BIT12#
     0-1-4/b BIT         r          3 BIT13#
     0-1-5/b BIT         r          3 BIT14#
     0-1-8/b BIT         r          3 BIT17#
     1-0-0/b STRC        r         2 W1
     1-2-3/b BIT (4)     r          3 DENSITIES#

     0-0-0/w STRC(144)   r     1 DEVICE_SCT
     0-0-0/w BIT         r         2 W0#
     1-0-0/w BIT         r         2 W1#

     0-0-0/d ASTR(3528)  r     1 F$DCB
     0-0-0/b BIT         r         2 FLPW#
     7-0-0/w PTR         r         2 TDEXTST$
    10-0-0/c STRC(288)   r         2 NAME#
    10-1-0/c CHAR(31)    r          3 C
    27-0-0/b BIT (72)    r         2 TDSTAT#
    41-0-0/w SBIN        r         2 CONNCT#
    42-0-0/w SBIN        r         2 CHANTIME#
   140-0-0/d ASTR(9)     r         2 DCBNAME
   140-0-4/b UBIN(5)     r          3 L

     0-0-0/d ASTR(3528)  r     1 F$DCB
    31-2-4/b BIT         r         2 FCD#
   140-0-0/d ASTR(9)     r         2 DCBNAME
   140-0-4/b UBIN(5)     r          3 L
PL6.E3A0      #001=TOP$POLTS File=TOP$POLTS.:E05TSI                              WED 07/30/97 06:30 Page:712

     0-0-0/w STRC        r     1 FICCDD
     0-0-3/b BIT         r         2 FORMAT#
     0-0-4/b UBIN(2)     r         2 IOM#
     0-0-6/b UBIN(6)     r         2 CHAN#
     0-1-3/b UBIN(6)     r         2 DEV#

     0-0-0/w STRC        r     1 FICCDD
     0-0-0/b BIT (3)     r         2 FLAG#
     0-0-3/b BIT         r         2 FORMAT#
     0-0-4/b UBIN(2)     r         2 IOM#
     0-0-6/b UBIN(6)     r         2 CHAN#
     0-1-3/b UBIN(6)     r         2 DEV#
     0-2-0/b UBIN(6)     r         2 TEST_TYPE#

     0-0-0/w STRC        r     1 IDCW
     0-0-0/b BIT (6)     r         2 DEVICE_CMD#
     0-0-6/b BIT (6)     r         2 DEVICE_ADDRESS#
     0-2-0/b UBIN(3)     r         2 TYPE#
     0-2-4/b BIT         r         2 CONTINUE#
     0-2-6/b UBIN(6)     r         2 CHANNEL_CMD#
     0-3-3/b UBIN(6)     r         2 RECORD_COUNT#

     0-0-0/w STRC(396)   r     1 IO_ENTRY
     2-0-0/b STRC        r         2 W2
     2-0-3/b UBIN(15)    r          3 SCT_ADR#

     0-0-0/w STRC        r     1 LIST_ITEM
     0-0-0/w STRC        r         2 E
     0-0-0/c UBIN(9)     r          3 BASE_CHN
     0-1-0/c SBIN(9)     r          3 NUMB_CHN

     0-0-0/w STRC        r     1 LIST_ITEM
     0-0-0/w STRC        r         2 E
     0-0-0/c UBIN(9)     r          3 BASE_CHN
     0-1-0/c SBIN(9)     r          3 NUMB_CHN
     0-2-0/c STRC(18)    r          3 FLAGS
PL6.E3A0      #001=TOP$POLTS File=TOP$POLTS.:E05TSI                              WED 07/30/97 06:30 Page:713
     0-2-0/b BIT         r           4 NO_REBOOT
     0-0-0/w SBIN        r         2 FENCE

     0-0-0/w STRC        r     1 MTAR_DATA
     0-3-6/b BIT (3)     r         2 WR_FLAG#

     0-0-0/w STRC        r     1 PARAMETER_
     0-0-0/b UBIN(18)    r         2 UPPER#

     0-0-0/w STRC        r     1 PARAMETER_BYTE
     0-0-0/b SBIN(9)     r         2 BYTE0
     0-1-0/b SBIN(9)     r         2 BYTE1
     0-2-0/b SBIN(9)     r         2 BYTE2
     0-3-0/b SBIN(9)     r         2 BYTE3

     0-0-0/w STRC(360)   r     1 POINIT
     1-0-0/h UBIN(18)    r         2 WWFLAG_ADR#
     1-2-0/h UBIN(18)    r         2 OP_SYS_CODE_ADR#
     2-0-0/h UBIN(18)    r         2 LSTLOC_ADR#
     3-0-0/h UBIN(18)    r         2 TBWRK_ADR#
     4-0-0/h UBIN(18)    r         2 TDIOC_ADR#
     5-0-0/h UBIN(18)    r         2 WRADD_ADR#
     7-0-0/h UBIN(18)    r         2 MMEXEC_ADR#

     0-0-0/w STRC(360)   r     1 SCTWRK
     0-0-0/h UBIN(18)    r         2 SCT_ADR#
     0-2-6/b UBIN(12)    r         2 XBICC#
     1-0-0/h UBIN(18)    r         2 ALTSCT_ADR#
     1-2-0/b UBIN(6)     r         2 GCOS_TYPE_CODE#
     2-0-0/h UBIN(18)    r         2 CSCT_ADR#
     2-2-0/b BIT (4)     r         2 IOC_TYPE#
     2-2-4/b BIT (4)     r         2 CTLR_TYPE#
     3-0-0/h UBIN(18)    r         2 MPC_SCT_ADR#
     3-2-0/h UBIN(18)    r         2 MPC_INDEX#
     4-0-0/b STRC        r         2 CRCST_0
     4-0-1/b BIT         r          3 VOLATILE_FW#
     4-0-2/b BIT         r          3 MPC#
PL6.E3A0      #001=TOP$POLTS File=TOP$POLTS.:E05TSI                              WED 07/30/97 06:30 Page:714
     5-0-0/b STRC        r         2 CRCST_1
     5-0-7/b BIT         r          3 BIT7#
     5-0-8/b BIT         r          3 BIT8#
     7-0-0/b STRC        r         2 CRCST_3
     7-1-0/b BIT         r          3 BIT9#
    10-0-0/b STRC        r         2 SCT_0
    10-0-0/b UBIN(6)     r          3 DEV_TYPE#
    10-1-3/b BIT         r          3 BIT12#
    10-1-4/b BIT         r          3 SPEED#
    10-1-8/b BIT         r          3 BIT17#
    11-0-0/b STRC        r         2 SCT_1

     0-0-0/w STRC(72)    r     1 STATUS
     0-0-0/b BIT         r         2 TERMINATION_INDICATOR#
     0-0-2/b BIT (4)     r         2 MAJOR#
     0-0-6/b BIT (6)     r         2 MINOR#
     0-1-6/b BIT         r         2 LOST_INTERRUPT#
     0-1-7/b BIT         r         2 INTERRUPT_INDICATOR#
     0-1-8/b BIT         r         2 ABORT_INDICATOR#
     1-0-0/b UBIN(18)    r         2 DATA_ADDRESS_RESIDUE#

     0-0-0/w STRC(396)   r     1 TD$DEV
     0-0-0/c CHAR(8)     r         2 MODEL

     0-0-0/w STRC(648)   r     1 TD$HEAD
     0-2-0/b UBIN(18)    r         2 NUMIOMS

     0-0-0/w STRC(9540)  r     1 TD$IOM
     0-0-0/c CHAR(8)     r         2 DEVNAME(0:127)

     0-0-0/w STRC(612)   r     1 TD$MPC
     0-0-0/c CHAR(8)     r         2 MODEL
     2-0-0/b STRC        r         2 IOCHAN(0:7)
     2-0-0/b BIT         r          3 PRESENCE
     2-1-0/b UBIN(9)     r          3 IOM
     2-2-0/b UBIN(9)     r          3 LOCHAN
    13-0-0/c CHAR(4)     r         2 FWNAME
PL6.E3A0      #001=TOP$POLTS File=TOP$POLTS.:E05TSI                              WED 07/30/97 06:30 Page:715
    14-0-0/c CHAR(4)     r         2 LPFWNAME
    15-0-0/c CHAR(4)     r         2 CRPFWNAME

     0-0-0/d STRC(5904)  r     1 TOP$TCP(0:7)
     0-0-0/w BIT         r         2 IN_USE
     1-0-0/w STRC(21)    r         2 FICCDD
     1-0-0/b BIT (3)     r          3 FLAG#
     1-0-3/b BIT         r          3 FORMAT#
     1-0-4/b UBIN(3)     r          3 IOM#
     1-0-7/b UBIN(8)     r          3 CHAN#
     1-1-6/b UBIN(6)     r          3 DEV#
     1-0-0/w STRC(21)    r         2 ICCDD
     1-0-4/b UBIN(17)    r          3 ICCDD#
     1-0-0/w STRC(21)    r         2 ICC
     1-0-4/b UBIN(11)    r          3 ICC#
     2-0-0/c CHAR(3)     r         2 TEST_TYPE
     2-3-0/c CHAR(8)     r         2 MPC_MODEL
     4-3-0/c CHAR(8)     r         2 DEVICE_MODEL
     7-0-0/h UBIN(18)    r         2 DEVICE_CODE
     7-2-0/h UBIN(18)    r         2 DCB#
    10-0-0/h STRC(72)    r         2 ADR
    10-0-0/h UBIN(18)    r          3 SCT
    10-2-0/h UBIN(18)    r          3 CSCT
    11-0-0/h UBIN(18)    r          3 PAT
    11-2-0/h UBIN(18)    r          3 IOENTRY
    12-0-0/c STRC(6)     r         2 IO
    12-0-0/b BIT         r          3 ITR_INTERRUPT
    12-0-1/b BIT         r          3 TERMINATED
    12-0-2/b BIT         r          3 CONTROLLER
    12-0-3/b BIT         r          3 ISSUED
    12-0-4/b BIT         r          3 DONE
    12-0-5/b BIT         r          3 CC_PAID
    12-1-0/c STRC(18)    r         2 SCT
    12-1-0/b BIT         r          3 BIT17
    12-1-1/b BIT         r          3 BIT13
    12-1-2/b BIT         r          3 BIT12
    12-2-0/c BIT (4)     r          3 TAPE_DENSITY
PL6.E3A0      #001=TOP$POLTS File=TOP$POLTS.:E05TSI                              WED 07/30/97 06:30 Page:716
    12-3-0/c STRC(117)   r         2 FIRMWARE
    13-0-0/c CHAR(4)     r          3 TYPE
    14-0-0/c CHAR(4)     r          3 LP_TYPE
    15-0-0/c CHAR(4)     r          3 RP_TYPE
    16-0-0/w STRC(162)   r         2 STATS
    16-0-0/w UBIN        r          3 LOAD_ADDR
    20-0-0/c CHAR(4)     r          3 EDIT_NAME
    24-0-0/d STRC(5184)  r         2 BFR
    24-0-0/d CHAR(288)   r          3 TRAIN_IMAGE
   134-0-0/d CHAR(288)   r          3 VFC_IMAGE


   Procedure TOP$POLTS requires 5747 words for executable code.
   Procedure TOP$POLTS requires 3044 words of local(AUTO) storage.

    No errors detected in file TOP$POLTS.:E05TSI    .
PL6.E3A0      #001=TOP$POLTS File=TOP$POLTS.:E05TSI                              WED 07/30/97 06:30 Page:717
          *** CROSS REFERENCE LISTING ***
**     DENOTES     IDENTIFIER DEFINITION
<<                 IDENTIFIER'S VALUE SET
>>                 IDENTIFIER'S VALUE USED
<>                 IDENTIFIER SET AND/OR USED
--                 IDENTIFIER REFERENCED
PL6.E3A0      #001=TOP$POLTS File=TOP$POLTS.:E05TSI                              WED 07/30/97 06:30 Page:718
          MINI XREF LISTING

A IN PROCEDURE SET_RETURN_VALUES
     15245**DCL     15241--PROC    15278<<ASSIGN
A IN PROCEDURE TOP$MME_ALCMCA
     10684**DCL     10682--PROC
A.A_LOWER IN PROCEDURE TOP$MME_ALCMCA
     10686**DCL     10697>>ASSIGN
A.A_UPPER IN PROCEDURE TOP$MME_ALCMCA
     10685**DCL     10696>>ASSIGN
A IN PROCEDURE TOP$MME_CHANTM
     11663**DCL     11660--PROC    11670<<ASSIGN
A IN PROCEDURE TOP$MME_HUNGTM
     11901**DCL     11899--PROC
A.UPPER IN PROCEDURE TOP$MME_HUNGTM
     11902**DCL     11911<>CALL
A IN PROCEDURE TOP$MME_PACMAN
     12334**DCL     12332--PROC    12361>>DOCASE
A IN PROCEDURE TOP$MME_TESTIO
     14741**DCL     14733--PROC    14759<>CALL
ACCOUNT_NAME IN PROCEDURE GET_DEVICE_CODE
     13474**DCL     13309--DCLINIT
ADDR_TRANS$ IN PROCEDURE TOP$MME_WRDUMP
     15389**DCL     16138<<ASSIGN
ALLOCATE_DEVICE IN PROCEDURE TOP$MME_ALLOCR
     11117**PROC    10877--CALL
ASCII_BUF IN PROCEDURE TOP$MME_WRDUMP
     15384**DCL     16126<>CALL    16234>>CALLBLT 16240>>CALLBLT 16254--ASSIGN  16261>>CALLBLT 16267>>CALLBLT
A_REG IN PROCEDURE TOP$MME_WRDUMP
     15344**DCL     15321--PROC
A_REG.ADDR# IN PROCEDURE TOP$MME_WRDUMP
     15345**DCL     16093>>ASSIGN
A_REG.SIZE# IN PROCEDURE TOP$MME_WRDUMP
     15346**DCL     16094>>ASSIGN
PL6.E3A0      #001=TOP$POLTS File=TOP$POLTS.:E05TSI                              WED 07/30/97 06:30 Page:719
B$ALT.CODE
     10194**DCL     10194--REDEF   10195--REDEF   10195--REDEF
B$ALT.ERR
     10195**DCL     11135<>CALL    11472<>CALL    12438<>CALL    12570<>CALL    12819<>CALL    13798<>CALL
B$ALT.ERR.ERR#
     10196**DCL     10196--REDEF
B$ALT.EVID
     10195**DCL     10195--REDEF   10195--REDEF
B$ALT.CODE IN PROCEDURE TOP$MME_WRDUMP
     15330**DCL     15330--REDEF   15331--REDEF   15331--REDEF
B$ALT.ERR IN PROCEDURE TOP$MME_WRDUMP
     15331**DCL     16077<>CALL    16182<>CALL
B$ALT.ERR.ERR# IN PROCEDURE TOP$MME_WRDUMP
     15332**DCL     15332--REDEF
B$ALT.EVID IN PROCEDURE TOP$MME_WRDUMP
     15331**DCL     15331--REDEF   15331--REDEF
B$EXCFR.ASL IN PROCEDURE GET_TEST_DCB
     10979**DCL     10979--REDEF
B$EXCFR.ERR IN PROCEDURE GET_TEST_DCB
     10993**DCL     11024<>CALL
B$EXCFR.ERR.ERR# IN PROCEDURE GET_TEST_DCB
     10993**DCL     10993--REDEF
B$EXCFR.EVID IN PROCEDURE GET_TEST_DCB
     10992**DCL     10992--REDEF   10993--REDEF
B$EXCFR.IR IN PROCEDURE GET_TEST_DCB
     10980**DCL     10980--REDEF
B$EXCFR.PREVSZ IN PROCEDURE GET_TEST_DCB
     10979**DCL     10979--REDEF
B$EXCFR.SUBC IN PROCEDURE GET_TEST_DCB
     10991**DCL     10991--REDEF   10992--REDEF   10992--REDEF
B$JIT.CPFLAGS1.SLEAZE
       481**DCL       481--REDEF
B$JIT.ERR.MID
       388**DCL       388--REDEF
B$JIT.FACCN
       387**DCL     16049>>ASSIGN
PL6.E3A0      #001=TOP$POLTS File=TOP$POLTS.:E05TSI                              WED 07/30/97 06:30 Page:720
B$JIT.JRESPEAK
       549**DCL       550--REDEF
B$JIT.ORIGINATOR_PORT.FROM_CR
       658**DCL       658--REDEF     659--REDEF
B$JIT.PNR
       562**DCL       562--REDEF
B$JIT.TDP
       547**DCL     11443>>ASSIGN  12668>>ASSIGN  14799>>ASSIGN
B$JIT.TSLINE
       656**DCL       657--REDEF
B$JIT$
      9910**DCL       382--IMP-PTR 11443>>ASSIGN  12668>>ASSIGN  14799>>ASSIGN  16049>>ASSIGN
B$TCB.ALT$
     10201**DCL     11024>>CALL    11135>>CALL    11472>>CALL    12438>>CALL    12570>>CALL    12819>>CALL
     13798>>CALL
B$TCB.ALT$ IN PROCEDURE TOP$MME_WRDUMP
     15326**DCL     16077>>CALL    16182>>CALL
B$TCB$
      9911**DCL     11024>>CALL    11135>>CALL    11472>>CALL    12438>>CALL    12570>>CALL    12819>>CALL
     13798>>CALL    16077>>CALL    16182>>CALL
BAD_FID IN PROCEDURE GET_DUMP_OUTPUT_MODE
     16028**LABEL   16022--CALLALT
BAD_FID_OPEN IN PROCEDURE OPEN_DUMP_RECEPTICLE
     16081**LABEL   16073--CALLALT
BAD_LIST_ABORT IN PROCEDURE BUILD_DCW_LIST
     15186**PROC    15151--CALL    15155--CALL    15180--CALL
BAD_LP_OPEN IN PROCEDURE OPEN_DUMP_RECEPTICLE
     16077**LABEL   16072--CALLALT
BAD_SURVEY IN PROCEDURE BUILD_TAPE_SCT
     11332**LABEL   11326--CALLALT
BCD_BUF IN PROCEDURE TOP$MME_WRDUMP
     15383**DCL     16126<>CALL    16200<<ASSIGN  16208<<ASSIGN
BCD_BUF_INX IN PROCEDURE GET_BCD_BUFFER
     16196**DCL     16202<<ASSIGN  16208>>ASSIGN  16209<<ASSIGN  16209>>ASSIGN
BIT12FLAG IN PROCEDURE BUILD_SCTWRK
     16306**DCL     16302--PROC
PL6.E3A0      #001=TOP$POLTS File=TOP$POLTS.:E05TSI                              WED 07/30/97 06:30 Page:721
BIT13FLAG IN PROCEDURE BUILD_SCTWRK
     16305**DCL     16302--PROC
BIT17FLAG IN PROCEDURE BUILD_SCTWRK
     16304**DCL     16302--PROC
BL_INX IN PROCEDURE TOP$MME_WRDUMP
     15392**DCL     15968<<CALLBLT 15971>>IF      15971>>IF      15972>>IF      15972>>IF      15975>>IF
     15975>>IF      16014<<CALLBLT 16017>>IF      16043>>IF      16045>>ASSIGN  16048>>ASSIGN  16056>>ASSIGN
BOGUS_TDOPEN IN PROCEDURE GET_DEVICE_CODE
     13751**PROC    13497--CALL
BOUNDS IN PROCEDURE TOP$MME_POINIT
     12616**DCL     12668<<ASSIGN  12670>>ASSIGN
BREAK_HDR_LINE IN PROCEDURE EXECUTE_DUMP
     16220**PROC    16127--CALL
BUILD_1ST_IDCW IN PROCEDURE BUILD_DCW_LIST
     15003**PROC    14978--CALL    14983--CALL    14992--CALL
BUILD_2ND_IDCW IN PROCEDURE BUILD_DCW_LIST
     15071**PROC    14980--CALL
BUILD_CHN_3_SCT IN PROCEDURE BUILD_DEVICE_SCT
     11273**PROC    11240--CALL
BUILD_CONSOLE_SCT IN PROCEDURE BUILD_DEVICE_SCT
     11553**PROC    11242--CALL
BUILD_CONTROLLER_SCT IN PROCEDURE TOP$MME_ALLOCR
     11572**PROC    10892--CALL
BUILD_CPUNCH_SCT IN PROCEDURE BUILD_DEVICE_SCT
     11534**PROC    11255--CALL
BUILD_CREADER_SCT IN PROCEDURE BUILD_DEVICE_SCT
     11515**PROC    11253--CALL
BUILD_DCW_LIST IN PROCEDURE TOP$MME_TESTIO
     14946**PROC    14757--CALL
BUILD_DEVICE_SCT IN PROCEDURE TOP$MME_ALLOCR
     11209**PROC    10886--CALL
BUILD_DISK_SCT IN PROCEDURE BUILD_DEVICE_SCT
     11293**PROC    11249--CALL
BUILD_FAKE_DCW IN PROCEDURE BUILD_DCW_LIST
     15110**PROC    14979--CALL    14985--CALL
BUILD_PRINTER_SCT IN PROCEDURE BUILD_DEVICE_SCT
PL6.E3A0      #001=TOP$POLTS File=TOP$POLTS.:E05TSI                              WED 07/30/97 06:30 Page:722
     11493**PROC    11251--CALL
BUILD_SCTWRK
     16302**PROC    10895--CALL    13075--CALL
BUILD_SCT_FICCDD IN PROCEDURE GET_DEVICE_CODE
     13541**PROC    13479--CALL
BUILD_TAPE_SCT IN PROCEDURE BUILD_DEVICE_SCT
     11316**PROC    11244--CALL
BUILD_TEST_CONTROL_ENTRY IN PROCEDURE TOP$MME_SCTCMP
     14247**PROC    13067--CALL
CC$ IN PROCEDURE GIVE_COURTESY_CALL
     12018**DCL     12025<<ASSIGN  12026<>CALL
CC$ IN PROCEDURE PAY_TIO_CC
     16729**DCL     16737<<ASSIGN  16738<>CALL
CHANNEL_DEVICE IN PROCEDURE GET_CHANNEL_DEVICE
     13654**DCL     13623--PROC    13728<<ASSIGN
CHANNEL_DEVICE IN PROCEDURE GET_DEVICE_CODE
     13228**DCL     13491<>CALL    13504<>CALL
CHANNEL_DEVICE IN PROCEDURE MAP_MPC_DEVICE
     14018**DCL     13987--PROC    14050>>ASSIGN
CHANNEL_DEVICE IN PROCEDURE VALIDATE_DEVICE_TYPE
     13931**DCL     13900--PROC    13936>>DOSELCT 13938<>CALL
CHANNEL_MSG IN PROCEDURE REPORT_CHANNELS
     12485**DCL     12513--ASSIGN
CHANNEL_MSG.CHN# IN PROCEDURE REPORT_CHANNELS
     12487**DCL     12509<<CALLBLT
CHANNEL_MSG.NUM# IN PROCEDURE REPORT_CHANNELS
     12489**DCL     12511<<ASSIGN  12512<<CALLBLT
CHR_INX IN PROCEDURE TOP$MME_WRDUMP
     15393**DCL     15962<<ASSIGN  15963>>DOWHILE 15963>>DOWHILE 15964<<ASSIGN  15964>>ASSIGN  15968>>CALLBLT
     15971>>IF      15971>>IF      15972>>IF      15972>>IF      15972>>IF      15975>>IF      15975>>IF
     15975>>IF      15991>>IF      16010<<ASSIGN  16011>>DOWHILE 16011>>DOWHILE 16012<<ASSIGN  16012>>ASSIGN
     16014>>CALLBLT 16017>>IF      16017>>IF      16036>>CALLBLT 16037>>IF      16045>>ASSIGN  16045>>ASSIGN
     16048>>ASSIGN  16052>>ASSIGN  16052>>ASSIGN  16055>>ASSIGN
CLOSE_CONFIG IN PROCEDURE GET_DEVICE_CODE
     13414**DCL     13493<>CALL    13499<>CALL    13506<>CALL    13513<>CALL    13517<>CALL
CLOSE_CONFIG.SN_ IN PROCEDURE GET_DEVICE_CODE
PL6.E3A0      #001=TOP$POLTS File=TOP$POLTS.:E05TSI                              WED 07/30/97 06:30 Page:723
     13414**DCL     13414--REDEF
CLOSE_CONFIG.UTL_ IN PROCEDURE GET_DEVICE_CODE
     13415**DCL     13415--REDEF
CLOSE_CONFIG.V IN PROCEDURE GET_DEVICE_CODE
     13419**DCL     13414--DCLINIT
CLOSE_CONFIG.V.EXPIRE# IN PROCEDURE GET_DEVICE_CODE
     13429**DCL     13429--REDEF
CLOSE_CONFIG.V.TYPE# IN PROCEDURE GET_DEVICE_CODE
     13427**DCL     13427--REDEF
CLOSE_CONFIG.V.XTNSIZE# IN PROCEDURE GET_DEVICE_CODE
     13424**DCL     13424--REDEF   13426--REDEF
CLOSE_DUMP IN PROCEDURE TOP$MME_WRDUMP
     15487**DCL     16284<>CALL
CLOSE_DUMP.SN_ IN PROCEDURE TOP$MME_WRDUMP
     15487**DCL     15487--REDEF
CLOSE_DUMP.UTL_ IN PROCEDURE TOP$MME_WRDUMP
     15488**DCL     15488--REDEF
CLOSE_DUMP.V IN PROCEDURE TOP$MME_WRDUMP
     15492**DCL     15487--DCLINIT
CLOSE_DUMP.V.EXPIRE# IN PROCEDURE TOP$MME_WRDUMP
     15502**DCL     15502--REDEF
CLOSE_DUMP.V.TYPE# IN PROCEDURE TOP$MME_WRDUMP
     15500**DCL     15500--REDEF
CLOSE_DUMP.V.XTNSIZE# IN PROCEDURE TOP$MME_WRDUMP
     15497**DCL     15497--REDEF   15499--REDEF
CLOSE_DUMP_RECEPTICLE IN PROCEDURE TOP$MME_WRDUMP
     16279**PROC    15913--CALL
CN_SCT$ IN PROCEDURE BUILD_CONTROLLER_SCT
     11584**DCL     11588<<ASSIGN  11589>>ASSIGN  11595>>ASSIGN  11596>>ASSIGN
CN_SCT$ IN PROCEDURE BUILD_SCTWRK
     16347**DCL     16348--REDEF   16368<<ASSIGN  16418>>ASSIGN
CONFIG$ IN PROCEDURE GET_CHANNEL_DEVICE
     13665**DCL     13713<<ASSIGN  13717>>IF      13728>>ASSIGN
CONFIG_DCB$ IN PROCEDURE GET_DEVICE_CODE
     13229**DCL     13497<>CALL    13503<>CALL    13511<>CALL
CONFIG_RECORD IN PROCEDURE GET_CHANNEL_DEVICE
PL6.E3A0      #001=TOP$POLTS File=TOP$POLTS.:E05TSI                              WED 07/30/97 06:30 Page:724
     13664**DCL     13713--ASSIGN  13715--ASSIGN
CONFIG_RECORD IN PROCEDURE GET_MODEL_ID
     13851**DCL     13876--ASSIGN  13878--ASSIGN
CONFIG_RECORD IN PROCEDURE MAP_MPC_DEVICE
     14023**DCL     14052--ASSIGN  14054--ASSIGN
CONSOLE_FPT.BUF_
      9930**DCL     12498<<ASSIGN  12502<<ASSIGN  12504<<ASSIGN  12513<<ASSIGN  15941<<ASSIGN
CONSOLE_FPT.STATION_
      9932**DCL      9932--REDEF
CONSOLE_FPT.V.DVBYTE.VFC#
      9939**DCL      9939--REDEF
CONTINUE IN PROCEDURE BUILD_DCW_LIST
     14949**DCL     14987>>DOWHILE 14994>>DOWHILE 15056<<ASSIGN  15098<<ASSIGN  15173<<ASSIGN
CONTROLLER_SCT IN PROCEDURE BUILD_CONTROLLER_SCT
     11575**DCL     11589<<ASSIGN
CONTROLLER_SCT.W0.MPC# IN PROCEDURE BUILD_CONTROLLER_SCT
     11579**DCL     11596<<ASSIGN
CONTROLLER_SCT.W0.VOLATILE_FW# IN PROCEDURE BUILD_CONTROLLER_SCT
     11578**DCL     11595<<ASSIGN
CONTROLLER_SCT.W0# IN PROCEDURE BUILD_SCTWRK
     16329**DCL     16418>>ASSIGN
COPY_IO_ENTRY IN PROCEDURE TOP$MME_TESTIO
     14846**PROC    14755--CALL
CRLF IN PROCEDURE BREAK_HDR_LINE
     16225**DCL     16234>>CALLBLT 16240>>CALLBLT 16261>>CALLBLT 16267>>CALLBLT
CRLF_ IN PROCEDURE BREAK_HDR_LINE
     16222**DCL     16225--REDEF
CRLF_INDEX IN PROCEDURE BREAK_HDR_LINE
     16226**DCL     16234<<CALLBLT 16238>>DOWHILE 16240<<CALLBLT 16249>>IF      16250>>ASSIGN  16261<<CALLBLT
     16265>>DOWHILE 16267<<CALLBLT
CSCT$ IN PROCEDURE TOP$MME_GETCSC
     11781**DCL     11782--REDEF   11790<<ASSIGN
CSCT_PTR.ADDR# IN PROCEDURE BUILD_SCTWRK
     16349**DCL     16370>>ASSIGN  16375>>ASSIGN  16376>>ASSIGN
CSCT_PTR.ADDR# IN PROCEDURE TOP$MME_GETCSC
     11783**DCL     11791>>ASSIGN
PL6.E3A0      #001=TOP$POLTS File=TOP$POLTS.:E05TSI                              WED 07/30/97 06:30 Page:725
DATA_V IN PROCEDURE FRAME_DATA_AREA
     14793**DCL     14801>>ASSIGN
DATA_V IN PROCEDURE GET_DENSITIES
     11408**DCL     11444>>ASSIGN
DATA_VECTOR IN PROCEDURE FRAME_DATA_AREA
     14785**DCL     14793--REDEF
DATA_VECTOR.SIZE# IN PROCEDURE FRAME_DATA_AREA
     14786**DCL     14800<<ASSIGN
DATA_VECTOR IN PROCEDURE GET_DENSITIES
     11400**DCL     11408--REDEF
DATA_VECTOR.SIZE# IN PROCEDURE GET_DENSITIES
     11401**DCL     11443<<ASSIGN
DCB$ IN PROCEDURE BOGUS_TDOPEN
     13782**DCL     13751--PROC    13794<<ASSIGN
DCB$ IN PROCEDURE GET_MODEL_ID
     13846**DCL     13815--PROC    13874>>ASSIGN
DCB$ IN PROCEDURE MAP_DEVICE
     14093**DCL     14091--PROC
DCB_NAME IN PROCEDURE GET_TEST_DCB
     10973**DCL     11009--DCLINIT
DCB_NAME.TCX IN PROCEDURE GET_TEST_DCB
     10976**DCL     11016<<CALLBLT
DCB_NUM IN PROCEDURE GET_TEST_DCB
     10977**DCL     11010--DCLINIT 11019>>ASSIGN
DCW IN PROCEDURE BUILD_DCW_LIST
     14966**DCL     15115<<ASSIGN  15135<<ASSIGN  15135>>ASSIGN  15138<<ASSIGN  15138>>ASSIGN  15142<<ASSIGN
     15142>>ASSIGN
DCW.ADDR# IN PROCEDURE BUILD_DCW_LIST
     14967**DCL     15143<<ASSIGN  15144>>ASSIGN
DCW.TYPE# IN PROCEDURE BUILD_DCW_LIST
     14970**DCL     15133>>DOCASE
DCW$ IN PROCEDURE BUILD_DCW_LIST
     14951**DCL     14984>>IF      15008<<ASSIGN  15133>>DOCASE  15135>>ASSIGN  15136<<ASSIGN  15136>>ASSIGN
     15138>>ASSIGN  15139<<ASSIGN  15139>>ASSIGN  15142>>ASSIGN  15144>>ASSIGN  15145>>IF      15147<<ASSIGN
     15148>>IF      15168>>ASSIGN  15181<<ASSIGN  15181>>ASSIGN
DCWLIST$ IN PROCEDURE BUILD_DCW_LIST
PL6.E3A0      #001=TOP$POLTS File=TOP$POLTS.:E05TSI                              WED 07/30/97 06:30 Page:726
     14952**DCL     14953--REDEF   15011<<ASSIGN  15012>>ASSIGN  15015>>ASSIGN  15016>>IF      15026>>ASSIGN
     15029>>ASSIGN  15034>>ASSIGN  15037>>ASSIGN  15042>>ASSIGN  15048>>ASSIGN  15050>>ASSIGN  15053>>ASSIGN
     15056>>ASSIGN  15063<<ASSIGN  15063>>ASSIGN  15076>>ASSIGN  15079>>ASSIGN  15084>>ASSIGN  15087>>ASSIGN
     15090>>ASSIGN  15095>>ASSIGN  15098>>ASSIGN  15105<<ASSIGN  15105>>ASSIGN  15115>>ASSIGN  15117<<ASSIGN
     15117>>ASSIGN  15135>>ASSIGN  15138>>ASSIGN  15142>>ASSIGN  15143>>ASSIGN  15156<<ASSIGN  15156>>ASSIGN
     15168>>ASSIGN  15170>>ASSIGN  15171>>ASSIGN  15173>>ASSIGN  15174>>IF      15177<<ASSIGN  15177>>ASSIGN
DCWLIST_.ADDR# IN PROCEDURE BUILD_DCW_LIST
     14954**DCL     15143>>ASSIGN
DCWLIST_BFR IN PROCEDURE TOP$MME_TESTIO
     14746**DCL     14911--ASSIGN  15011--ASSIGN
DEDICATE_CHANNEL_3 IN PROCEDURE TOP$MME_ALCMCA
     10726**PROC    10704--CALL
DELAY_FPT IN PROCEDURE TOP$MME_IPCWDT
     12138**DCL     12184<>CALL
DELAY_FPT.V IN PROCEDURE TOP$MME_IPCWDT
     12139**DCL     12138--DCLINIT
DENSITY_DCWLIST IN PROCEDURE GET_DENSITIES
     11409**DCL     11445--ASSIGN
DENSITY_DCWLIST.DCW.ADDR# IN PROCEDURE GET_DENSITIES
     11419**DCL     11442<<ASSIGN
DEVICE$ IN PROCEDURE GET_MODEL_ID
     13847**DCL     13878<<ASSIGN  13879>>ASSIGN
DEVICE_INFO IN PROCEDURE GET_DENSITIES
     11424**DCL     11434--DCLINIT
DEVICE_INFO.DENSITIES# IN PROCEDURE GET_DENSITIES
     11433**DCL     11461>>ASSIGN
DEVICE_INFO$ IN PROCEDURE GET_DENSITIES
     11434**DCL     11435--REDEF
DEVICE_INFO_.ADDR# IN PROCEDURE GET_DENSITIES
     11436**DCL     11442>>ASSIGN
DEVICE_KEY IN PROCEDURE GET_MODEL_ID
     13848**DCL     13875--ASSIGN
DEVICE_KEY.DATA IN PROCEDURE GET_MODEL_ID
     13850**DCL     13874<<ASSIGN
DEVICE_SCT IN PROCEDURE BUILD_DEVICE_SCT
     11216**DCL     11277<<ASSIGN  11297<<ASSIGN  11320<<ASSIGN  11497<<ASSIGN  11519<<ASSIGN  11538<<ASSIGN
PL6.E3A0      #001=TOP$POLTS File=TOP$POLTS.:E05TSI                              WED 07/30/97 06:30 Page:727
     11557<<ASSIGN
DEVICE_SCT.W0.BIT12# IN PROCEDURE BUILD_DEVICE_SCT
     11220**DCL     11280<<ASSIGN
DEVICE_SCT.W0.BIT13# IN PROCEDURE BUILD_DEVICE_SCT
     11221**DCL     11502<<ASSIGN
DEVICE_SCT.W0.BIT14# IN PROCEDURE BUILD_DEVICE_SCT
     11222**DCL     11500<<ASSIGN
DEVICE_SCT.W0.BIT17# IN PROCEDURE BUILD_DEVICE_SCT
     11224**DCL     11501<<ASSIGN
DEVICE_SCT.W0.DEVICE_NO# IN PROCEDURE BUILD_DEVICE_SCT
     11219**DCL     11279<<ASSIGN  11299<<ASSIGN  11322<<ASSIGN  11499<<ASSIGN  11521<<ASSIGN  11540<<ASSIGN
     11559<<ASSIGN
DEVICE_SCT.W0.DEVICE_TYPE# IN PROCEDURE BUILD_DEVICE_SCT
     11218**DCL     11278<<ASSIGN  11298<<ASSIGN  11321<<ASSIGN  11498<<ASSIGN  11520<<ASSIGN  11539<<ASSIGN
     11558<<ASSIGN
DEVICE_SCT.W1.DENSITIES# IN PROCEDURE BUILD_DEVICE_SCT
     11230**DCL     11327<<ASSIGN
DEVICE_SCT.W0# IN PROCEDURE BUILD_SCTWRK
     16334**DCL     16419>>ASSIGN
DEVICE_SCT.W1# IN PROCEDURE BUILD_SCTWRK
     16335**DCL     16420>>ASSIGN
DIX IN PROCEDURE GET_DENSITIES
     11438**DCL     11459<<ASSIGN  11460<<ASSIGN  11461>>ASSIGN
DOT_INX IN PROCEDURE TOP$MME_WRDUMP
     15394**DCL     16036<<CALLBLT 16037>>IF      16043>>IF      16052>>ASSIGN  16055>>ASSIGN  16056>>ASSIGN
     16056>>ASSIGN
DO_YOU_WANT_A_DUMP IN PROCEDURE TOP$MME_WRDUMP
     15947**PROC    15904--CALL
DUMP$ IN PROCEDURE TOP$MME_WRDUMP
     15399**DCL     16173>>CALL    16176<<ASSIGN  16176>>ASSIGN
DUMP_ IN PROCEDURE TOP$MME_WRDUMP
     15396**DCL     15399--REDEF   16163>>ASSIGN
DUMP_.ADDR# IN PROCEDURE TOP$MME_WRDUMP
     15397**DCL     16097<<ASSIGN  16103<<ASSIGN  16109>>IF      16144>>IF      16153>>IF      16167>>ASSIGN
     16169>>ASSIGN
DUMP_ACCT IN PROCEDURE TOP$MME_WRDUMP
PL6.E3A0      #001=TOP$POLTS File=TOP$POLTS.:E05TSI                              WED 07/30/97 06:30 Page:728
     15898**DCL     15698--DCLINIT
DUMP_ACCT.ACCT# IN PROCEDURE TOP$MME_WRDUMP
     15898**DCL     16049<<ASSIGN  16056<<ASSIGN
DUMP_ADDR_TEMP IN PROCEDURE TOP$MME_WRDUMP
     15400**DCL     16163<<ASSIGN  16164<>CALL
DUMP_HDR$ IN PROCEDURE TOP$MME_WRDUMP
     15379**DCL     16093<<ASSIGN  16205>>ASSIGN  16207<<ASSIGN  16207>>ASSIGN  16208>>ASSIGN  16212<<ASSIGN
     16212>>ASSIGN
DUMP_HDR_INDEX IN PROCEDURE BREAK_HDR_LINE
     16227**DCL     16233<<ASSIGN  16234>>CALLBLT 16238>>DOWHILE 16239<<ASSIGN  16239>>ASSIGN  16240>>CALLBLT
     16247>>DOWHILE 16250>>ASSIGN  16251>>ASSIGN  16254>>ASSIGN  16260<<ASSIGN  16260>>ASSIGN  16261>>CALLBLT
     16265>>DOWHILE 16266<<ASSIGN  16266>>ASSIGN  16267>>CALLBLT
DUMP_HDR_INX IN PROCEDURE GET_BCD_BUFFER
     16189**DCL     16201<<ASSIGN  16204>>DOWHILE 16213<<ASSIGN  16213>>ASSIGN
DUMP_HDR_SIZE IN PROCEDURE TOP$MME_WRDUMP
     15381**DCL     16094<<ASSIGN  16126<>CALL    16204>>DOWHILE 16215<<ASSIGN  16247>>DOWHILE 16249>>IF
     16251>>ASSIGN
DUMP_LINE IN PROCEDURE TOP$MME_WRDUMP
     15358**DCL     15370--REDEF   16130--ASSIGN
DUMP_LINE.ACTUAL_ADDR# IN PROCEDURE TOP$MME_WRDUMP
     15360**DCL     16165<<ASSIGN
DUMP_LINE.DUMP_OUTPUT# IN PROCEDURE TOP$MME_WRDUMP
     15366**DCL     15367--REDEF
DUMP_LINE.DUMP_OUTPUT_.OCT_WORD_ASC# IN PROCEDURE TOP$MME_WRDUMP
     15369**DCL     16174<<ASSIGN
DUMP_LINE.EDIT_NAME# IN PROCEDURE TOP$MME_WRDUMP
     15364**DCL     16137<<ASSIGN  16146<<ASSIGN  16156<<ASSIGN
DUMP_LINE.RELATIVE_ADDR# IN PROCEDURE TOP$MME_WRDUMP
     15362**DCL     16171<<ASSIGN
DUMP_LINE_INX IN PROCEDURE TOP$MME_WRDUMP
     15380**DCL     16139<<DOINDEX
DUMP_NAME IN PROCEDURE TOP$MME_WRDUMP
     15885**DCL     15694--DCLINIT
DUMP_NAME.L# IN PROCEDURE TOP$MME_WRDUMP
     15885**DCL     16048<<ASSIGN  16055<<ASSIGN
DUMP_NAME.NAME# IN PROCEDURE TOP$MME_WRDUMP
PL6.E3A0      #001=TOP$POLTS File=TOP$POLTS.:E05TSI                              WED 07/30/97 06:30 Page:729
     15885**DCL     16045<<ASSIGN  16052<<ASSIGN
DUMP_PROMPT IN PROCEDURE TOP$MME_WRDUMP
     15754**DCL     15955<>CALL
DUMP_PROMPT.V IN PROCEDURE TOP$MME_WRDUMP
     15762**DCL     15756--DCLINIT
DUMP_QUES IN PROCEDURE TOP$MME_WRDUMP
     15375**DCL     15760--DCLINIT
DUMP_SIZE IN PROCEDURE TOP$MME_WRDUMP
     15387**DCL     15388--REDEF   16098<<ASSIGN  16104<<ASSIGN
DUMP_SIZE_SBIN IN PROCEDURE TOP$MME_WRDUMP
     15388**DCL     16139>>DOINDEX
DUMP_TYPE IN PROCEDURE TOP$MME_WRDUMP
     15401**DCL     16099<<ASSIGN  16105<<ASSIGN  16142>>DOCASE  16148<<ASSIGN  16166>>IF
DUMP_WORD_INX IN PROCEDURE TOP$MME_WRDUMP
     15374**DCL     16172<<DOINDEX 16174>>ASSIGN
DUMP_WORD_OCT IN PROCEDURE TOP$MME_WRDUMP
     15386**DCL     16173<>CALL    16205>>ASSIGN  16208>>ASSIGN
DV_SCT$ IN PROCEDURE BUILD_DEVICE_SCT
     11211**DCL     11237<<ASSIGN  11277>>ASSIGN  11278>>ASSIGN  11279>>ASSIGN  11280>>ASSIGN  11297>>ASSIGN
     11298>>ASSIGN  11299>>ASSIGN  11320>>ASSIGN  11321>>ASSIGN  11322>>ASSIGN  11327>>ASSIGN  11497>>ASSIGN
     11498>>ASSIGN  11499>>ASSIGN  11500>>ASSIGN  11501>>ASSIGN  11502>>ASSIGN  11519>>ASSIGN  11520>>ASSIGN
     11521>>ASSIGN  11538>>ASSIGN  11539>>ASSIGN  11540>>ASSIGN  11557>>ASSIGN  11558>>ASSIGN  11559>>ASSIGN
DV_SCT$ IN PROCEDURE BUILD_SCTWRK
     16338**DCL     16339--REDEF   16367<<ASSIGN  16419>>ASSIGN  16420>>ASSIGN
EDIT_NAME IN PROCEDURE TOP$MME_WRDUMP
     15378**DCL     16100<<ASSIGN  16114<<ASSIGN  16137>>ASSIGN
EDIT_NAME_FOUND IN PROCEDURE SET_DUMP_PARAMS
     16089**DCL     16106<<ASSIGN  16108>>DOUNTIL 16110<<ASSIGN  16113>>IF
ENTRY_ADR IN PROCEDURE MATCH_IO_ENTRY
     11939**DCL     11937--PROC    11946>>IF
ERROR IN PROCEDURE BOGUS_TDOPEN
     13798**LABEL   13793--CALLALT
ERROR IN PROCEDURE VALIDATE_DEVICE_TYPE
     13949**LABEL   13938--CALLALT
EXECUTE_DUMP IN PROCEDURE TOP$MME_WRDUMP
     16121**PROC    15910--CALL
PL6.E3A0      #001=TOP$POLTS File=TOP$POLTS.:E05TSI                              WED 07/30/97 06:30 Page:730
EXT_STATUS IN PROCEDURE RETURN_TIO_STATUS
     16673**DCL     16701>>IF      16702<<ASSIGN  16703<<ASSIGN  16703>>ASSIGN
EXT_STATUS$ IN PROCEDURE RETURN_TIO_STATUS
     16672**DCL     16700<<ASSIGN  16702>>ASSIGN  16703>>ASSIGN
F$DCB.ACTPOS
     10236**DCL     10236--REDEF
F$DCB.ARS#
     10210**DCL     10210--REDEF
F$DCB.ATTR
     10229**DCL     10230--REDEF
F$DCB.BORROW
     10244**DCL     10244--REDEF   10244--REDEF   10244--REDEF
F$DCB.CHANTIME#
     10231**DCL     11670>>ASSIGN
F$DCB.CONNCT#
     10230**DCL     12060>>ASSIGN
F$DCB.DCBNAME.L
     10258**DCL     10258--IMP-SIZ
F$DCB.EOMCHAR#
     10214**DCL     10214--REDEF
F$DCB.FLDID
     10239**DCL     10239--REDEF
F$DCB.FLPW#
     10210**DCL     12287>>ASSIGN
F$DCB.FORM$
     10233**DCL     10233--REDEF
F$DCB.FSECT
     10249**DCL     10249--REDEF
F$DCB.FSN#
     10226**DCL     10226--REDEF   10226--REDEF   10227--REDEF
F$DCB.HEADER$
     10232**DCL     10232--REDEF
F$DCB.IXTNSIZE#
     10230**DCL     10230--REDEF
F$DCB.LASTSTA$
     10219**DCL     10219--REDEF
PL6.E3A0      #001=TOP$POLTS File=TOP$POLTS.:E05TSI                              WED 07/30/97 06:30 Page:731
F$DCB.LVL
     10245**DCL     10245--REDEF
F$DCB.NAME#.C
     10220**DCL     10220--REDEF   13874>>ASSIGN
F$DCB.NOEOF
     10242**DCL     10242--REDEF
F$DCB.NRECS#
     10231**DCL     10231--REDEF
F$DCB.NRECX
     10250**DCL     10250--REDEF
F$DCB.OHDR
     10242**DCL     10242--REDEF
F$DCB.ORG#
     10225**DCL     10225--REDEF
F$DCB.PRECNO
     10248**DCL     10248--REDEF
F$DCB.RCSZ
     10254**DCL     10254--REDEF
F$DCB.RES#
     10221**DCL     10221--REDEF
F$DCB.SETX
     10233**DCL     10233--REDEF
F$DCB.TAB$
     10233**DCL     10233--REDEF
F$DCB.TDA
     10247**DCL     10248--REDEF
F$DCB.TDEXTST$
     10219**DCL     16701>>IF      16703>>ASSIGN
F$DCB.TDSTAT#
     10221**DCL     11454--ASSIGN  16611--ASSIGN  16682>>ASSIGN
F$DCB.WSN#
     10221**DCL     10221--REDEF
F$DCB.ACTPOS IN PROCEDURE TOP$MME_WRDUMP
     15435**DCL     15435--REDEF
F$DCB.ARS# IN PROCEDURE TOP$MME_WRDUMP
     15409**DCL     15409--REDEF
PL6.E3A0      #001=TOP$POLTS File=TOP$POLTS.:E05TSI                              WED 07/30/97 06:30 Page:732
F$DCB.ATTR IN PROCEDURE TOP$MME_WRDUMP
     15428**DCL     15429--REDEF
F$DCB.BORROW IN PROCEDURE TOP$MME_WRDUMP
     15443**DCL     15443--REDEF   15443--REDEF   15443--REDEF
F$DCB.DCBNAME.L IN PROCEDURE TOP$MME_WRDUMP
     15457**DCL     15457--IMP-SIZ
F$DCB.EOMCHAR# IN PROCEDURE TOP$MME_WRDUMP
     15413**DCL     15413--REDEF
F$DCB.FCD# IN PROCEDURE TOP$MME_WRDUMP
     15422**DCL     16069>>IF      16283>>IF
F$DCB.FLDID IN PROCEDURE TOP$MME_WRDUMP
     15438**DCL     15438--REDEF
F$DCB.FORM$ IN PROCEDURE TOP$MME_WRDUMP
     15432**DCL     15432--REDEF
F$DCB.FSECT IN PROCEDURE TOP$MME_WRDUMP
     15448**DCL     15448--REDEF
F$DCB.FSN# IN PROCEDURE TOP$MME_WRDUMP
     15425**DCL     15425--REDEF   15425--REDEF   15426--REDEF
F$DCB.HEADER$ IN PROCEDURE TOP$MME_WRDUMP
     15431**DCL     15431--REDEF
F$DCB.IXTNSIZE# IN PROCEDURE TOP$MME_WRDUMP
     15429**DCL     15429--REDEF
F$DCB.LASTSTA$ IN PROCEDURE TOP$MME_WRDUMP
     15418**DCL     15418--REDEF
F$DCB.LVL IN PROCEDURE TOP$MME_WRDUMP
     15444**DCL     15444--REDEF
F$DCB.NAME#.C IN PROCEDURE TOP$MME_WRDUMP
     15419**DCL     15419--REDEF
F$DCB.NOEOF IN PROCEDURE TOP$MME_WRDUMP
     15441**DCL     15441--REDEF
F$DCB.NRECS# IN PROCEDURE TOP$MME_WRDUMP
     15430**DCL     15430--REDEF
F$DCB.NRECX IN PROCEDURE TOP$MME_WRDUMP
     15449**DCL     15449--REDEF
F$DCB.OHDR IN PROCEDURE TOP$MME_WRDUMP
     15441**DCL     15441--REDEF
PL6.E3A0      #001=TOP$POLTS File=TOP$POLTS.:E05TSI                              WED 07/30/97 06:30 Page:733
F$DCB.ORG# IN PROCEDURE TOP$MME_WRDUMP
     15424**DCL     15424--REDEF
F$DCB.PRECNO IN PROCEDURE TOP$MME_WRDUMP
     15447**DCL     15447--REDEF
F$DCB.RCSZ IN PROCEDURE TOP$MME_WRDUMP
     15453**DCL     15453--REDEF
F$DCB.RES# IN PROCEDURE TOP$MME_WRDUMP
     15420**DCL     15420--REDEF
F$DCB.SETX IN PROCEDURE TOP$MME_WRDUMP
     15432**DCL     15432--REDEF
F$DCB.TAB$ IN PROCEDURE TOP$MME_WRDUMP
     15432**DCL     15432--REDEF
F$DCB.TDA IN PROCEDURE TOP$MME_WRDUMP
     15446**DCL     15447--REDEF
F$DCB.WSN# IN PROCEDURE TOP$MME_WRDUMP
     15420**DCL     15420--REDEF
FICCDD.CHAN#
     10264**DCL     10937>>ASSIGN
FICCDD.DEV#
     10265**DCL     10933>>ASSIGN  10938>>ASSIGN  11299>>ASSIGN  11322>>ASSIGN  11499>>ASSIGN  11521>>ASSIGN
     11540>>ASSIGN  11559>>ASSIGN
FICCDD.FORMAT#
     10262**DCL     10929>>IF      10941>>ASSIGN
FICCDD.IOM#
     10263**DCL     10931>>ASSIGN  10936>>ASSIGN
FICCDD.CHAN# IN PROCEDURE BUILD_SCT_FICCDD
     13581**DCL     13597>>ASSIGN
FICCDD.DEV# IN PROCEDURE BUILD_SCT_FICCDD
     13582**DCL     13598>>ASSIGN
FICCDD.FLAG# IN PROCEDURE BUILD_SCT_FICCDD
     13578**DCL     13592>>ASSIGN
FICCDD.FORMAT# IN PROCEDURE BUILD_SCT_FICCDD
     13579**DCL     13593>>ASSIGN  13595>>IF
FICCDD.IOM# IN PROCEDURE BUILD_SCT_FICCDD
     13580**DCL     13594>>ASSIGN
FICCDD.TEST_TYPE# IN PROCEDURE BUILD_SCT_FICCDD
PL6.E3A0      #001=TOP$POLTS File=TOP$POLTS.:E05TSI                              WED 07/30/97 06:30 Page:734
     13583**DCL     13599>>ASSIGN
FICCDD$ IN PROCEDURE BUILD_SCT_FICCDD
     13576**DCL     13577--IMP-PTR 13589<<ASSIGN  13592>>ASSIGN  13593>>ASSIGN  13594>>ASSIGN  13595>>IF
     13597>>ASSIGN  13598>>ASSIGN  13599>>ASSIGN
FICCDD$ IN PROCEDURE TOP$MME_ALLOCR
     10854**DCL     10927<<ASSIGN  10929>>IF      10931>>ASSIGN  10933>>ASSIGN  10936>>ASSIGN  10937>>ASSIGN
     10938>>ASSIGN  10941>>ASSIGN  11299>>ASSIGN  11322>>ASSIGN  11499>>ASSIGN  11521>>ASSIGN  11540>>ASSIGN
     11559>>ASSIGN
FID_QUES IN PROCEDURE TOP$MME_WRDUMP
     15376**DCL     15789--DCLINIT
FILE_NAME IN PROCEDURE GET_DEVICE_CODE
     13460**DCL     13305--DCLINIT
FILE_OUTPUT_LINE.DUMP_LINE# IN PROCEDURE TOP$MME_WRDUMP
     15371**DCL     16134--ASSIGN
FIND_VACANT_ENTRY IN PROCEDURE TOP$MME_SCTCMP
     13092**PROC    13053--CALL
FOUND IN PROCEDURE FIND_VACANT_ENTRY
     13095**DCL     13106<<ASSIGN  13109<<ASSIGN  13111>>IF
FPTN_
     10314**DCL     10317--REDEF
FRAME_DATA_AREA IN PROCEDURE TOP$MME_TESTIO
     14783**PROC    14752--CALL
GET_BCD_BUFFER IN PROCEDURE EXECUTE_DUMP
     16187**PROC    16125--CALL
GET_CHANNEL_DEVICE IN PROCEDURE GET_DEVICE_CODE
     13623**PROC    13491--CALL
GET_DENSITIES IN PROCEDURE BUILD_TAPE_SCT
     11398**PROC    11326--CALL
GET_DEVICE_CODE IN PROCEDURE TOP$MME_SCTCMP
     13194**PROC    13060--CALL
GET_DUMP_OUTPUT_MODE IN PROCEDURE TOP$MME_WRDUMP
     15997**PROC    15907--CALL
GET_MODEL_ID IN PROCEDURE GET_DEVICE_CODE
     13815**PROC    13503--CALL
GET_POLTS_DCB IN PROCEDURE GET_TEST_DCB
     11009**DCL     11017<>CALL
PL6.E3A0      #001=TOP$POLTS File=TOP$POLTS.:E05TSI                              WED 07/30/97 06:30 Page:735
GET_POLTS_DCB.V IN PROCEDURE GET_TEST_DCB
     11010**DCL     11009--DCLINIT
GET_SCT_ADR IN PROCEDURE TOP$MME_TESTIO
     14815**PROC    14753--CALL
GET_TEST_DCB IN PROCEDURE TOP$MME_ALLOCR
     10970**PROC    10875--CALL
GIVE_COURTESY_CALL IN PROCEDURE TOP$MME_HUNGTM
     12015**PROC    11915--CALL
HAS_DCWS IN PROCEDURE BUILD_DCW_LIST
     14950**DCL     15058<<ASSIGN  15059<<ASSIGN  15100<<ASSIGN  15101<<ASSIGN  15129>>IF      15175<<ASSIGN
     15176<<ASSIGN
HEAD_KEY IN PROCEDURE GET_CHANNEL_DEVICE
     13655**DCL     13714--ASSIGN
ICC IN PROCEDURE MATCH_ICC
     16468**DCL     16465--PROC    16474>>IF
ICC IN PROCEDURE TOP$MME_ALCMCA
     10688**DCL     10698<>CALL
ICC.CHAN# IN PROCEDURE TOP$MME_ALCMCA
     10690**DCL     10697<<ASSIGN
ICC.IOM# IN PROCEDURE TOP$MME_ALCMCA
     10689**DCL     10696<<ASSIGN
ICC IN PROCEDURE TOP$MME_IPCWDT
     12152**DCL     12168<>CALL
ICC.CHAN# IN PROCEDURE TOP$MME_IPCWDT
     12154**DCL     12162<<ASSIGN  12166<<ASSIGN
ICC.IOM# IN PROCEDURE TOP$MME_IPCWDT
     12153**DCL     12161<<ASSIGN  12165<<ASSIGN
ICC IN PROCEDURE TOP$MME_LPWDT
     12266**DCL     12284<>CALL
ICC.CHAN# IN PROCEDURE TOP$MME_LPWDT
     12268**DCL     12278<<ASSIGN  12282<<ASSIGN
ICC.IOM# IN PROCEDURE TOP$MME_LPWDT
     12267**DCL     12277<<ASSIGN  12281<<ASSIGN
ICC.ICCC IN PROCEDURE TOP$MME_PACMAN
     12338**DCL     12354>>ASSIGN
ICC.ICCC.IOM# IN PROCEDURE TOP$MME_PACMAN
PL6.E3A0      #001=TOP$POLTS File=TOP$POLTS.:E05TSI                              WED 07/30/97 06:30 Page:736
     12339**DCL     12356>>ASSIGN
IDCW IN PROCEDURE BUILD_DCW_LIST
     14956**DCL     15012<<ASSIGN  15076<<ASSIGN  15168<<ASSIGN  15168>>ASSIGN
IDCW.CHANNEL_CMD# IN PROCEDURE BUILD_DCW_LIST
     14964**DCL     15048<<ASSIGN  15050<<ASSIGN  15090<<ASSIGN  15174>>IF
IDCW.CONTINUE# IN PROCEDURE BUILD_DCW_LIST
     14962**DCL     15034<<ASSIGN  15037<<ASSIGN  15042<<ASSIGN  15056>>ASSIGN  15098>>ASSIGN  15173>>ASSIGN
IDCW.DEVICE_ADDRESS# IN PROCEDURE BUILD_DCW_LIST
     14958**DCL     15026<<ASSIGN  15084<<ASSIGN  15170<<ASSIGN  15171<<ASSIGN
IDCW.DEVICE_CMD# IN PROCEDURE BUILD_DCW_LIST
     14957**DCL     15015<<ASSIGN  15016>>IF      15079<<ASSIGN
IDCW.RECORD_COUNT# IN PROCEDURE BUILD_DCW_LIST
     14965**DCL     15053<<ASSIGN  15095<<ASSIGN
IDCW.TYPE# IN PROCEDURE BUILD_DCW_LIST
     14960**DCL     14984>>IF      15029<<ASSIGN  15087<<ASSIGN  15148>>IF
IMU_KEY IN PROCEDURE GET_CHANNEL_DEVICE
     13661**DCL     13722--ASSIGN
IOM_KEY IN PROCEDURE GET_CHANNEL_DEVICE
     13658**DCL     13719--ASSIGN
IO_ENTRY
     10269**DCL     14857--ASSIGN
IO_ENTRY.W1.EXTSTAT_ADR#
     10272**DCL     16697>>IF      16700>>ASSIGN
IO_ENTRY.W1.LOWER#
     10273**DCL     11917>>ASSIGN
IO_ENTRY.W2.MDS_DEV_IDCW_LIST
     10276**DCL     15064>>IF      15065<<ASSIGN
IO_ENTRY.W4.DEVICE_CMD#
     10281**DCL     15015>>ASSIGN  15040>>IF
IO_ENTRY.W4.IO_CMD#
     10283**DCL     14976>>DOCASE  15032>>DOCASE  15046>>IF      15048>>ASSIGN  15050>>ASSIGN  15057>>IF
IO_ENTRY.W4.RECORD_COUNT#
     10285**DCL     15036>>IF      15053>>ASSIGN
IO_ENTRY.W5#
     10286**DCL     15115>>ASSIGN
IO_ENTRY.W7.BIT29#
PL6.E3A0      #001=TOP$POLTS File=TOP$POLTS.:E05TSI                              WED 07/30/97 06:30 Page:737
     10295**DCL     15016>>IF
IO_ENTRY.W7.DEVICE_CMD#
     10291**DCL     15040>>IF      15079>>ASSIGN
IO_ENTRY.W7.IO_CMD#
     10293**DCL     15090>>ASSIGN  15099>>IF
IO_ENTRY.W7.RECORD_COUNT#
     10296**DCL     15095>>ASSIGN
IO_ENTRY.W8.DCW_PTR#
     10298**DCL     15008>>ASSIGN
IO_ENTRY.W9.CC_ADR#
     10302**DCL     12022>>IF      12025>>ASSIGN  16734>>IF      16737>>ASSIGN
IO_ENTRY.W9.STATUS_ADR#
     10301**DCL     11985>>IF      11988>>ASSIGN  16677>>IF      16681>>ASSIGN  16776>>IF      16779>>ASSIGN
IO_ENTRY.W2.SCT_ADR# IN PROCEDURE GET_SCT_ADR
     14824**DCL     14831>>ASSIGN
IO_ENTRY$ IN PROCEDURE COPY_IO_ENTRY
     14851**DCL     14857<<ASSIGN  14858>>ASSIGN
IO_ENTRY_ADR IN PROCEDURE COPY_IO_ENTRY
     14848**DCL     14846--PROC    14856>>ASSIGN  14859>>ASSIGN
IO_ENTRY_ADR IN PROCEDURE GET_SCT_ADR
     14817**DCL     14815--PROC    14830>>ASSIGN
IO_ENTRY_WORDS IN PROCEDURE COPY_IO_ENTRY
     14852**DCL     14858<<ASSIGN  14858>>ASSIGN
IS$
     10317**DCL     10927>>ASSIGN  11169>>ASSIGN  11988>>ASSIGN  12025>>ASSIGN  12357>>ASSIGN  12655>>ASSIGN
     12666>>ASSIGN  12669>>ASSIGN  12671>>ASSIGN  12673>>ASSIGN  12685>>ASSIGN  12686>>ASSIGN  12725>>ASSIGN
     13589>>ASSIGN  14830>>ASSIGN  14856>>ASSIGN  15008>>ASSIGN  15144>>ASSIGN  16093>>ASSIGN  16356>>ASSIGN
     16681>>ASSIGN  16700>>ASSIGN  16737>>ASSIGN  16779>>ASSIGN
ISSUE_IO IN PROCEDURE TOP$MME_TESTIO
     15209**PROC    14758--CALL
LAST_DATA_DCW IN PROCEDURE PROCESS_DCWS
     15124**DCL     15131<<ASSIGN  15132>>DOUNTIL 15140<<ASSIGN  15146<<ASSIGN  15149<<ASSIGN
LINE_LGTH IN PROCEDURE BREAK_HDR_LINE
     16228**DCL     16250<<ASSIGN  16251<<ASSIGN  16254>>ASSIGN  16260>>ASSIGN
LIST$ IN PROCEDURE RELEASE_CHANNELS
     12552**DCL     12549--PROC    12566>>ASSIGN
PL6.E3A0      #001=TOP$POLTS File=TOP$POLTS.:E05TSI                              WED 07/30/97 06:30 Page:738
LIST$ IN PROCEDURE REPORT_CHANNELS
     12469**DCL     12467--PROC    12493>>ASSIGN
LIST$ IN PROCEDURE SUSPEND_CHANNELS
     12416**DCL     12413--PROC    12430>>ASSIGN
LIST$ IN PROCEDURE TOP$MME_PACMAN
     12348**DCL     12357<<ASSIGN  12363<>CALL    12371<>CALL    12372<>CALL
LIST_ITEM.E IN PROCEDURE RELEASE_CHANNELS
     12556**DCL     12562--REDEF
LIST_ITEM.E IN PROCEDURE REPORT_CHANNELS
     12472**DCL     12478--REDEF
LIST_ITEM.E.BASE_CHN IN PROCEDURE REPORT_CHANNELS
     12473**DCL     12509>>CALLBLT
LIST_ITEM.E.FLAGS.NO_REBOOT IN PROCEDURE REPORT_CHANNELS
     12476**DCL     12496>>IF
LIST_ITEM.E.NUMB_CHN IN PROCEDURE REPORT_CHANNELS
     12474**DCL     12510>>IF      12512>>CALLBLT
LIST_ITEM.FENCE IN PROCEDURE REPORT_CHANNELS
     12478**DCL     12494>>DOWHILE
LIST_ITEM.E IN PROCEDURE SUSPEND_CHANNELS
     12420**DCL     12426--REDEF
LIST_ITEM.E.BASE_CHN IN PROCEDURE SUSPEND_CHANNELS
     12421**DCL     12434>>ASSIGN
LIST_ITEM.E.NUMB_CHN IN PROCEDURE SUSPEND_CHANNELS
     12422**DCL     12433>>ASSIGN
LIST_SIZE IN PROCEDURE BUILD_DCW_LIST
     14972**DCL     14987>>DOWHILE 14994>>DOWHILE 15060<<ASSIGN  15102<<ASSIGN  15102>>ASSIGN  15116<<ASSIGN
     15116>>ASSIGN  15153>>IF      15154<<ASSIGN  15154>>ASSIGN  15178>>IF      15179<<ASSIGN  15179>>ASSIGN
LP_DUMP IN PROCEDURE TOP$MME_WRDUMP
     15395**DCL     16007<<ASSIGN  16019<<ASSIGN  16021<<ASSIGN  16071>>IF      16128>>IF
LP_OR_FID IN PROCEDURE TOP$MME_WRDUMP
     15783**DCL     16001<>CALL
LP_OR_FID.V IN PROCEDURE TOP$MME_WRDUMP
     15791**DCL     15785--DCLINIT
M$CLOSE
      7277**DCL-ENT 13493--CALL    13499--CALL    13506--CALL    13513--CALL    13517--CALL    16284--CALL
M$DEVCNFG
PL6.E3A0      #001=TOP$POLTS File=TOP$POLTS.:E05TSI                              WED 07/30/97 06:30 Page:739
      9905**DCL     12431>>ASSIGN  12567>>ASSIGN  13786>>ASSIGN  13794--ASSIGN
M$DUMP
      9906**DCL     16069--IF      16283--IF
M$GETDCB
      7283**DCL-ENT 11017--CALL
M$MCACNFG
      9903**DCL     10730>>ASSIGN  10752>>ASSIGN  10873>>ASSIGN
M$OPEN
      7277**DCL-ENT 13480--CALL    16072--CALL    16073--CALL
M$PROMPT
      7301**DCL-ENT 15955--CALL    16001--CALL
M$READ
      7278**DCL-ENT 13716--CALL    13720--CALL    13723--CALL    13877--CALL    14053--CALL
M$TDCLOSE
      7327**DCL-ENT 10753--CALL    12568--CALL    12817--CALL
M$TDIO
      7327**DCL-ENT 11452--CALL    12179--CALL    15218--CALL
M$TDOPEN
      7326**DCL-ENT 10735--CALL    11121--CALL    11131--CALL    12436--CALL    13793--CALL
M$TIME
      7344**DCL-ENT 15277--CALL
M$WAIT
      7335**DCL-ENT 12184--CALL
M$WRITE
      7278**DCL-ENT 16178--CALL    16257--CALL
MAP_DEVICE IN PROCEDURE GET_DEVICE_CODE
     14091**PROC    13511--CALL
MAP_MPC_DEVICE IN PROCEDURE VALIDATE_DEVICE_TYPE
     13987**PROC    13938--CALL
MATCH_ICC
     16465**PROC    10698--CALL    12168--CALL    12284--CALL    12355--CALL
MATCH_ICCDD IN PROCEDURE TOP$MME_ALLOCR
     10921**PROC    10868--CALL
MATCH_IO_ENTRY IN PROCEDURE TOP$MME_HUNGTM
     11937**PROC    11911--CALL
MATCH_PAT_PTR IN PROCEDURE TOP$MME_CHANTM
PL6.E3A0      #001=TOP$POLTS File=TOP$POLTS.:E05TSI                              WED 07/30/97 06:30 Page:740
     11684**PROC    11669--CALL
MATCH_SCT_ADR
     16503**PROC    11634--CALL    11749--CALL    11789--CALL    12058--CALL    12724--CALL    12774--CALL
     14754--CALL
MESSAGE IN PROCEDURE WRAP_DUMP_MSG
     15921**DCL     15941--ASSIGN
MESSAGE.SUBEXEC IN PROCEDURE WRAP_DUMP_MSG
     15922**DCL     15929<<ASSIGN  15931<<ASSIGN  15933<<ASSIGN  15935<<ASSIGN  15937<<ASSIGN  15939<<ASSIGN
MME
      9860**DCL        56--PROC    10661--ENTRY
MME.INST.NO
      9863**DCL     10552>>DOCASE
MME.INSTR
      9861**DCL      9862--REDEF
MME.WD_1
      9865**DCL     10556<>CALL    10588<>CALL    10601<>CALL    10604<>CALL
MME.WD_2
      9866**DCL     10556<>CALL    10601<>CALL    10604<>CALL
MME.WD_3
      9867**DCL     10556<>CALL    10604<>CALL
MME.WD_4
      9868**DCL     10556<>CALL    10604<>CALL
MME_INSTR$
      9895**DCL        56--PROC    10586<>CALL    10661--ENTRY
MME_INSTR$ IN PROCEDURE TOP$MME_POINIT
     12617**DCL     12614--PROC    12653>>IF      12655>>ASSIGN  12666>>ASSIGN  12669>>ASSIGN  12671>>ASSIGN
     12673>>ASSIGN  12685>>ASSIGN  12686>>ASSIGN
MME_W1 IN PROCEDURE BUILD_SCT_FICCDD
     13543**DCL     13541--PROC
MME_W1.ADDR# IN PROCEDURE BUILD_SCT_FICCDD
     13544**DCL     13589>>ASSIGN
MME_W1.ADR IN PROCEDURE TOP$MME_PRTRAN
     12714**DCL     12725>>ASSIGN
MME_W1 IN PROCEDURE TOP$MME_TESTIO
     14735**DCL     14733--PROC
MME_W1.ADDR# IN PROCEDURE TOP$MME_TESTIO
PL6.E3A0      #001=TOP$POLTS File=TOP$POLTS.:E05TSI                              WED 07/30/97 06:30 Page:741
     14736**DCL     14753<>CALL    14755<>CALL
MME_W2.ADDR# IN PROCEDURE BUILD_SCTWRK
     16345**DCL     16356>>ASSIGN
MME_W2 IN PROCEDURE TOP$MME_TESTIO
     14738**DCL     14733--PROC
MME_W3 IN PROCEDURE TOP$MME_TESTIO
     14739**DCL     14733--PROC
MME_W4 IN PROCEDURE TOP$MME_TESTIO
     14740**DCL     14733--PROC
MME_WD1 IN PROCEDURE GET_DEVICE_CODE
     13196**DCL     13194--PROC    13479<>CALL
MME_WD1 IN PROCEDURE TOP$MME_SCTCMP
     13009**DCL     13007--PROC    13060<>CALL
MME_WD2 IN PROCEDURE TOP$MME_SCTCMP
     13010**DCL     13007--PROC    13075<>CALL
MPC
     10319**DCL     12825<<ASSIGN
MPC$ IN PROCEDURE MAP_MPC_DEVICE
     14024**DCL     14054<<ASSIGN  14057>>IF      14057>>IF      14057>>IF      14067>>ASSIGN  14068>>ASSIGN
     14069>>ASSIGN  14070>>ASSIGN
MPC_KEY IN PROCEDURE MAP_MPC_DEVICE
     14020**DCL     14051--ASSIGN
MPC_KEY.KEY IN PROCEDURE MAP_MPC_DEVICE
     14022**DCL     14050<<ASSIGN
MREG
      9881**DCL        56--PROC    10661--ENTRY
MREG.A
      9890**DCL     10554<>CALL    10561<>CALL    10565<>CALL    10569<>CALL    10572<>CALL    10574<>CALL
     10580<>CALL    10582<>CALL    10584<>CALL    10588<>CALL    10591<>CALL    10594<>CALL    10604<>CALL
     10609<>CALL
MREG.Q
      9891**DCL     10554<>CALL    10556<>CALL    10565<>CALL    10569<>CALL    10572<>CALL    10584<>CALL
     10591<>CALL    10594<>CALL    10601<>CALL    10604<>CALL    10609<>CALL
MREG.X0
      9882**DCL     10554<>CALL    10591<>CALL
MREG.X1
PL6.E3A0      #001=TOP$POLTS File=TOP$POLTS.:E05TSI                              WED 07/30/97 06:30 Page:742
      9883**DCL     10556<>CALL    10559<>CALL    10563<>CALL    10565<>CALL    10567<>CALL    10569<>CALL
     10572<>CALL    10574<>CALL    10576<>CALL    10578<>CALL    10580<>CALL    10582<>CALL    10588<>CALL
     10591<>CALL    10594<>CALL    10597<>CALL    10607<>CALL    10609<>CALL
MREG.X2
      9884**DCL     10556<>CALL    10559<>CALL    10584<>CALL    10591<>CALL    10601<>CALL    10609<>CALL
MREG.X3
      9885**DCL     10556<>CALL    10569<>CALL    10594<>CALL    10601<>CALL
MREG.X4
      9886**DCL     10559<>CALL    10561<>CALL    10567<>CALL    10569<>CALL    10591<>CALL    10594<>CALL
     10599<>CALL    10604<>CALL
MREG.X5
      9887**DCL     10584<>CALL
MREG.X6
      9888**DCL     10591<>CALL
MREG.X7
      9889**DCL     10591<>CALL
MTARF$ IN PROCEDURE SET_MTAR_PERMISSION
     11160**DCL     11169<<ASSIGN  11171>>ASSIGN  11172>>ASSIGN
MTAR_DATA.WR_FLAG# IN PROCEDURE SET_MTAR_PERMISSION
     11163**DCL     11171<<ASSIGN  11172<<ASSIGN
NEW_ICCDD.FLAG# IN PROCEDURE TOP$MME_ALLOCR
     10857**DCL     10940<<ASSIGN
NEW_ICCDD.FORMAT# IN PROCEDURE TOP$MME_ALLOCR
     10858**DCL     10941<<ASSIGN
NEW_ICCDD.ICCDD# IN PROCEDURE TOP$MME_ALLOCR
     10863**DCL     10945>>IF
NEW_ICCDD.ICCDD_ IN PROCEDURE TOP$MME_ALLOCR
     10859**DCL     10863--REDEF
NEW_ICCDD.ICCDD_.CHAN# IN PROCEDURE TOP$MME_ALLOCR
     10861**DCL     10932<<ASSIGN  10937<<ASSIGN  11096>>ASSIGN
NEW_ICCDD.ICCDD_.DEV# IN PROCEDURE TOP$MME_ALLOCR
     10862**DCL     10933<<ASSIGN  10938<<ASSIGN  11097>>ASSIGN
NEW_ICCDD.ICCDD_.IOM# IN PROCEDURE TOP$MME_ALLOCR
     10860**DCL     10931<<ASSIGN  10936<<ASSIGN  11095>>ASSIGN
NEW_PAT_PTR IN PROCEDURE MATCH_PAT_PTR
     11687**DCL     11684--PROC    11693>>IF
PL6.E3A0      #001=TOP$POLTS File=TOP$POLTS.:E05TSI                              WED 07/30/97 06:30 Page:743
NEW_SCT_ADR IN PROCEDURE GET_SCT_ADR
     14818**DCL     14815--PROC    14831<<ASSIGN
NEW_SCT_ADR IN PROCEDURE MATCH_SCT_ADR
     16506**DCL     16503--PROC    16512>>IF      16522>>IF
NEW_SCT_ADR IN PROCEDURE TOP$MME_TESTIO
     14748**DCL     14753<>CALL    14754<>CALL
NEXT_PAGE_AVAIL IN PROCEDURE FRAME_DATA_AREA
     14794**DCL     14799<<ASSIGN  14800>>ASSIGN
NO_ALLOCATION IN PROCEDURE ALLOCATE_DEVICE
     11135**LABEL   11131--CALLALT
NO_DUMP IN PROCEDURE TOP$MME_WRDUMP
     15913**LABEL   15904--CALLALT 15909--CALLALT
NO_RESP IN PROCEDURE DO_YOU_WANT_A_DUMP
     15951**DCL     15975>>IF
NO_RETURN_MSG IN PROCEDURE REPORT_CHANNELS
     12483**DCL     12498--ASSIGN
OCT_WORDS_PER_LINE IN PROCEDURE TOP$MME_WRDUMP
     15356**DCL     15357--REDEF   16131<<ASSIGN  16135<<ASSIGN  16172>>DOINDEX
OCT_WORDS_PER_LINE_SBIN IN PROCEDURE TOP$MME_WRDUMP
     15357**DCL     16139>>DOINDEX
OFFSET IN PROCEDURE GET_BCD_BUFFER
     16194**DCL     16206<<DOINDEX
ONLY_ICC IN PROCEDURE TOP$MME_PACMAN
     12342**DCL     12354<<ASSIGN  12355<>CALL
OPEN_CONFIG IN PROCEDURE GET_DEVICE_CODE
     13304**DCL     13480<>CALL
OPEN_CONFIG.ACSVEH_ IN PROCEDURE GET_DEVICE_CODE
     13306**DCL     13307--REDEF
OPEN_CONFIG.ALTKEYS_ IN PROCEDURE GET_DEVICE_CODE
     13312**DCL     13313--REDEF   13313--REDEF
OPEN_CONFIG.HDR_ IN PROCEDURE GET_DEVICE_CODE
     13311**DCL     13312--REDEF
OPEN_CONFIG.TAB_ IN PROCEDURE GET_DEVICE_CODE
     13310**DCL     13311--REDEF
OPEN_CONFIG.UHL_ IN PROCEDURE GET_DEVICE_CODE
     13304**DCL     13305--REDEF   13305--REDEF
PL6.E3A0      #001=TOP$POLTS File=TOP$POLTS.:E05TSI                              WED 07/30/97 06:30 Page:744
OPEN_CONFIG.V IN PROCEDURE GET_DEVICE_CODE
     13313**DCL     13304--DCLINIT
OPEN_CONFIG.V.FSN# IN PROCEDURE GET_DEVICE_CODE
     13344**DCL     13344--REDEF   13344--REDEF
OPEN_CONFIG.WSN_ IN PROCEDURE GET_DEVICE_CODE
     13310**DCL     13310--REDEF
OPEN_DUMP_FILE IN PROCEDURE TOP$MME_WRDUMP
     15693**DCL     16073<>CALL
OPEN_DUMP_FILE.ACSVEH_ IN PROCEDURE TOP$MME_WRDUMP
     15695**DCL     15696--REDEF
OPEN_DUMP_FILE.ALTKEYS_ IN PROCEDURE TOP$MME_WRDUMP
     15701**DCL     15702--REDEF   15702--REDEF
OPEN_DUMP_FILE.HDR_ IN PROCEDURE TOP$MME_WRDUMP
     15700**DCL     15701--REDEF
OPEN_DUMP_FILE.TAB_ IN PROCEDURE TOP$MME_WRDUMP
     15699**DCL     15700--REDEF
OPEN_DUMP_FILE.UHL_ IN PROCEDURE TOP$MME_WRDUMP
     15693**DCL     15694--REDEF   15694--REDEF
OPEN_DUMP_FILE.V IN PROCEDURE TOP$MME_WRDUMP
     15702**DCL     15693--DCLINIT
OPEN_DUMP_FILE.V.FSN# IN PROCEDURE TOP$MME_WRDUMP
     15733**DCL     15733--REDEF   15733--REDEF
OPEN_DUMP_FILE.WSN_ IN PROCEDURE TOP$MME_WRDUMP
     15699**DCL     15699--REDEF
OPEN_DUMP_RECEPTICLE IN PROCEDURE TOP$MME_WRDUMP
     16065**PROC    15908--CALL
OPEN_LP IN PROCEDURE TOP$MME_WRDUMP
     15575**DCL     16072<>CALL
OPEN_LP.ACSVEH_ IN PROCEDURE TOP$MME_WRDUMP
     15577**DCL     15578--REDEF
OPEN_LP.ALTKEYS_ IN PROCEDURE TOP$MME_WRDUMP
     15583**DCL     15584--REDEF   15584--REDEF
OPEN_LP.HDR_ IN PROCEDURE TOP$MME_WRDUMP
     15582**DCL     15583--REDEF
OPEN_LP.TAB_ IN PROCEDURE TOP$MME_WRDUMP
     15581**DCL     15582--REDEF
PL6.E3A0      #001=TOP$POLTS File=TOP$POLTS.:E05TSI                              WED 07/30/97 06:30 Page:745
OPEN_LP.UHL_ IN PROCEDURE TOP$MME_WRDUMP
     15575**DCL     15576--REDEF   15576--REDEF
OPEN_LP.V IN PROCEDURE TOP$MME_WRDUMP
     15584**DCL     15575--DCLINIT
OPEN_LP.V.FSN# IN PROCEDURE TOP$MME_WRDUMP
     15615**DCL     15615--REDEF   15615--REDEF
OPEN_LP.WSN_ IN PROCEDURE TOP$MME_WRDUMP
     15581**DCL     15581--REDEF
PARAMETER IN PROCEDURE TOP$MME_POINIT
     12618**DCL     12656<<ASSIGN  12667<<ASSIGN  12672<<ASSIGN  12676<<ASSIGN  12678<<ASSIGN
PARAMETER$ IN PROCEDURE TOP$MME_POINIT
     12628**DCL     12655<<ASSIGN  12656>>ASSIGN  12659>>ASSIGN  12661>>ASSIGN  12663>>ASSIGN  12666<<ASSIGN
     12667>>ASSIGN  12669<<ASSIGN  12670>>ASSIGN  12671<<ASSIGN  12672>>ASSIGN  12673<<ASSIGN  12676>>ASSIGN
     12678>>ASSIGN  12680>>ASSIGN  12681>>ASSIGN  12682>>ASSIGN  12683>>ASSIGN  12686<<ASSIGN  12687>>ASSIGN
PARAMETER_.UPPER# IN PROCEDURE TOP$MME_POINIT
     12620**DCL     12670<<ASSIGN
PARAMETER_BIT IN PROCEDURE TOP$MME_POINIT
     12627**DCL     12687<<ASSIGN
PARAMETER_BYTE.BYTE0 IN PROCEDURE TOP$MME_POINIT
     12623**DCL     12680<<ASSIGN
PARAMETER_BYTE.BYTE1 IN PROCEDURE TOP$MME_POINIT
     12624**DCL     12681<<ASSIGN
PARAMETER_BYTE.BYTE2 IN PROCEDURE TOP$MME_POINIT
     12625**DCL     12659<<ASSIGN  12661<<ASSIGN  12663<<ASSIGN  12682<<ASSIGN
PARAMETER_BYTE.BYTE3 IN PROCEDURE TOP$MME_POINIT
     12626**DCL     12683<<ASSIGN
PAY_TIO_CC IN PROCEDURE TOP$TIO_DONE
     16727**PROC    16617--CALL    16622--CALL    16629--CALL
POINIT.LSTLOC_ADR# IN PROCEDURE TOP$MME_POINIT
     12633**DCL     12669>>ASSIGN
POINIT.MMEXEC_ADR# IN PROCEDURE TOP$MME_POINIT
     12643**DCL     12686>>ASSIGN
POINIT.OP_SYS_CODE_ADR# IN PROCEDURE TOP$MME_POINIT
     12632**DCL     12653>>IF      12655>>ASSIGN
POINIT.TBWRK_ADR# IN PROCEDURE TOP$MME_POINIT
     12635**DCL     12671>>ASSIGN
PL6.E3A0      #001=TOP$POLTS File=TOP$POLTS.:E05TSI                              WED 07/30/97 06:30 Page:746
POINIT.TDIOC_ADR# IN PROCEDURE TOP$MME_POINIT
     12637**DCL     12673>>ASSIGN
POINIT.WRADD_ADR# IN PROCEDURE TOP$MME_POINIT
     12639**DCL     12685>>ASSIGN
POINIT.WWFLAG_ADR# IN PROCEDURE TOP$MME_POINIT
     12631**DCL     12666>>ASSIGN
POLTS_IO$ IN PROCEDURE COPY_IO_ENTRY
     14850**DCL     14856<<ASSIGN  14858>>ASSIGN
POLTS_IO$ IN PROCEDURE GET_SCT_ADR
     14819**DCL     14830<<ASSIGN  14831>>ASSIGN
POLTS_STATUS$ IN PROCEDURE RETURN_SPECIAL_STATUS
     16772**DCL     16779<<ASSIGN  16780>>ASSIGN
POLTS_STATUS$ IN PROCEDURE RETURN_STATUS
     11981**DCL     11988<<ASSIGN  11989>>ASSIGN  11990>>ASSIGN  11991>>ASSIGN  11992>>ASSIGN  11993>>ASSIGN
POLTS_STATUS$ IN PROCEDURE RETURN_TIO_STATUS
     16670**DCL     16681<<ASSIGN  16682>>ASSIGN  16683>>IF      16685>>ASSIGN  16686>>ASSIGN  16687>>ASSIGN
     16688>>ASSIGN  16690>>ASSIGN  16691>>ASSIGN  16695>>ASSIGN  16695>>ASSIGN
PROCESS_DCWS IN PROCEDURE BUILD_DCW_LIST
     15122**PROC    14981--CALL    14986--CALL    14989--CALL    14993--CALL    14996--CALL
PROCESS_IDCW IN PROCEDURE BUILD_DCW_LIST
     15164**PROC    14988--CALL    14995--CALL
P_AREG IN PROCEDURE TOP$MME_EXPDEV
     11743**DCL     11739--PROC    11750<<ASSIGN
P_AREG IN PROCEDURE TOP$MME_GETLIN
     11808**DCL     11806--PROC
P_AREG IN PROCEDURE TOP$MME_IOCONS
     12051**DCL     12048--PROC    12060<<ASSIGN
P_AREG IN PROCEDURE TOP$MME_LODVFC
     12227**DCL     12224--PROC
P_AREG IN PROCEDURE TOP$MME_LPWDT
     12255**DCL     12252--PROC    12287<<ASSIGN
P_AREG IN PROCEDURE TOP$MME_PRTRAN
     12717**DCL     12709--PROC
P_AREG IN PROCEDURE TOP$MME_RELEAS
     12768**DCL     12755--PROC
P_AREG IN PROCEDURE TOP$MME_RELLNK
PL6.E3A0      #001=TOP$POLTS File=TOP$POLTS.:E05TSI                              WED 07/30/97 06:30 Page:747
     12842**DCL     12840--PROC
P_MMEWD1 IN PROCEDURE TOP$MME_PRTRAN
     12712**DCL     12709--PROC    12713--REDEF
P_MMEWD2 IN PROCEDURE BUILD_SCTWRK
     16343**DCL     16302--PROC    16344--REDEF
P_QREG IN PROCEDURE TOP$MME_EXPDEV
     11744**DCL     11739--PROC    11751<<ASSIGN
P_QREG IN PROCEDURE TOP$MME_GETLIN
     11809**DCL     11806--PROC
P_QREG IN PROCEDURE TOP$MME_RELEAS
     12769**DCL     12755--PROC
P_QREG IN PROCEDURE TOP$MME_RELLNK
     12843**DCL     12840--PROC
P_X0REG IN PROCEDURE TOP$MME_RELEAS
     12759**DCL     12755--PROC
P_X1REG IN PROCEDURE TOP$MME_ASGPAT
     11627**DCL     11624--PROC    11634<>CALL
P_X1REG IN PROCEDURE TOP$MME_DEALCP
     11714**DCL     11712--PROC
P_X1REG IN PROCEDURE TOP$MME_EXPDEV
     11742**DCL     11739--PROC    11749<>CALL
P_X1REG IN PROCEDURE TOP$MME_GETLIN
     11810**DCL     11806--PROC
P_X1REG IN PROCEDURE TOP$MME_IOCONS
     12052**DCL     12048--PROC    12058<>CALL
P_X1REG IN PROCEDURE TOP$MME_IPCWDT
     12142**DCL     12124--PROC    12143--REDEF
P_X1REG IN PROCEDURE TOP$MME_LODIMG
     12203**DCL     12201--PROC
P_X1REG IN PROCEDURE TOP$MME_LODVFC
     12226**DCL     12224--PROC
P_X1REG IN PROCEDURE TOP$MME_LPWDT
     12256**DCL     12252--PROC    12257--REDEF
P_X1REG IN PROCEDURE TOP$MME_PRTRAN
     12716**DCL     12709--PROC    12724<>CALL
P_X1REG IN PROCEDURE TOP$MME_RELEAS
PL6.E3A0      #001=TOP$POLTS File=TOP$POLTS.:E05TSI                              WED 07/30/97 06:30 Page:748
     12760**DCL     12755--PROC    12774<>CALL
P_X1REG IN PROCEDURE TOP$MME_RELLNK
     12844**DCL     12840--PROC
P_X1REG IN PROCEDURE TOP$MME_RELMPC
     12867**DCL     12865--PROC
P_X1REG IN PROCEDURE TOP$MME_UNSPEC
     15297**DCL     15295--PROC
P_X2REG IN PROCEDURE TOP$MME_ASGPAT
     11628**DCL     11624--PROC
P_X2REG IN PROCEDURE TOP$MME_RELEAS
     12761**DCL     12755--PROC
P_X3REG IN PROCEDURE TOP$MME_GETLIN
     11811**DCL     11806--PROC
P_X3REG IN PROCEDURE TOP$MME_RELLNK
     12845**DCL     12840--PROC
P_X4REG IN PROCEDURE TOP$MME_ASGPAT
     11629**DCL     11624--PROC    11635>>ASSIGN
P_X4REG IN PROCEDURE TOP$MME_GETLIN
     11812**DCL     11806--PROC
P_X4REG IN PROCEDURE TOP$MME_RELEAS
     12762**DCL     12755--PROC
P_X4REG IN PROCEDURE TOP$MME_RELLNK
     12846**DCL     12840--PROC
P_X4REG IN PROCEDURE TOP$MME_RLSPAT
     12887**DCL     12885--PROC
P_X6REG IN PROCEDURE TOP$MME_RELEAS
     12763**DCL     12755--PROC
P_X7REG IN PROCEDURE TOP$MME_RELEAS
     12764**DCL     12755--PROC    12765--REDEF
Q IN PROCEDURE SET_RETURN_VALUES
     15244**DCL     15241--PROC    15275<<ASSIGN  15276<<ASSIGN
Q IN PROCEDURE TOP$MME_ALCMCA
     10691**DCL     10682--PROC    10702>>DOCASE
Q IN PROCEDURE TOP$MME_ALLOCR
     10848**DCL     10838--PROC    10895<>CALL
Q IN PROCEDURE TOP$MME_HUNGTM
PL6.E3A0      #001=TOP$POLTS File=TOP$POLTS.:E05TSI                              WED 07/30/97 06:30 Page:749
     11904**DCL     11899--PROC    11916<<ASSIGN  11922<<ASSIGN
Q IN PROCEDURE TOP$MME_PACMAN
     12335**DCL     12332--PROC    12336--REDEF
Q IN PROCEDURE TOP$MME_SCTCMP
     13011**DCL     13007--PROC    13075<>CALL
Q IN PROCEDURE TOP$MME_TESTIO
     14742**DCL     14733--PROC    14759<>CALL
Q_REG IN PROCEDURE BUILD_SCTWRK
     16307**DCL     16302--PROC    16308--REDEF   16393<<ASSIGN
Q_REG IN PROCEDURE TOP$MME_WRDUMP
     15347**DCL     15321--PROC
Q_REG.ADDR# IN PROCEDURE TOP$MME_WRDUMP
     15348**DCL     16103>>ASSIGN
Q_REG.SIZE# IN PROCEDURE TOP$MME_WRDUMP
     15349**DCL     16098>>ASSIGN  16104>>ASSIGN
Q_REG_.TAPE_ICC.FORMAT# IN PROCEDURE BUILD_SCTWRK
     16312**DCL     16399<<ASSIGN
Q_REG_.TAPE_ICC.NEW_FORMAT.CHAN# IN PROCEDURE BUILD_SCTWRK
     16318**DCL     16402<<ASSIGN
Q_REG_.TAPE_ICC.NEW_FORMAT.IOM# IN PROCEDURE BUILD_SCTWRK
     16317**DCL     16400<<ASSIGN
Q_REG_.TAPE_ICC.OLD_FORMAT IN PROCEDURE BUILD_SCTWRK
     16313**DCL     16316--REDEF
Q_REG_.TAPE_ICC.OLD_FORMAT.CHAN# IN PROCEDURE BUILD_SCTWRK
     16315**DCL     16408<<ASSIGN
Q_REG_.TAPE_ICC.OLD_FORMAT.IOM# IN PROCEDURE BUILD_SCTWRK
     16314**DCL     16406<<ASSIGN
Q_REG_.TAPE_URC_FLAG# IN PROCEDURE BUILD_SCTWRK
     16309**DCL     16396<<ASSIGN
Q_REG_.URC_ICC.OLD_FORMAT IN PROCEDURE BUILD_SCTWRK
     16322**DCL     16325--REDEF
RCW IN PROCEDURE GET_BCD_BUFFER
     16190**DCL     16193--REDEF
RCW.RCD_LGTH# IN PROCEDURE GET_BCD_BUFFER
     16191**DCL     16206>>DOINDEX 16211>>ASSIGN  16213>>ASSIGN
RCW_ IN PROCEDURE GET_BCD_BUFFER
PL6.E3A0      #001=TOP$POLTS File=TOP$POLTS.:E05TSI                              WED 07/30/97 06:30 Page:750
     16193**DCL     16205<<ASSIGN
READ_BUF IN PROCEDURE TOP$MME_WRDUMP
     15390**DCL     15391--REDEF   15957<<ASSIGN  15958--ASSIGN  15968>>CALLBLT 15972>>IF      15975>>IF
     16002<<ASSIGN  16003--ASSIGN  16006>>IF      16014>>CALLBLT 16017>>IF      16036>>CALLBLT 16045>>ASSIGN
     16052>>ASSIGN  16056>>ASSIGN
READ_BUF_ IN PROCEDURE TOP$MME_WRDUMP
     15391**DCL     15963>>DOWHILE 15991>>IF      16011>>DOWHILE
READ_CONFIG IN PROCEDURE GET_DEVICE_CODE
     13367**DCL     13716<>CALL    13720<>CALL    13723<>CALL    13877<>CALL    14053<>CALL
READ_CONFIG.BUF_ IN PROCEDURE GET_DEVICE_CODE
     13369**DCL     13715<<ASSIGN  13876<<ASSIGN  14052<<ASSIGN
READ_CONFIG.KEY_ IN PROCEDURE GET_DEVICE_CODE
     13367**DCL     13714<<ASSIGN  13719<<ASSIGN  13722<<ASSIGN  13875<<ASSIGN  14051<<ASSIGN
READ_CONFIG.STATION_ IN PROCEDURE GET_DEVICE_CODE
     13370**DCL     13371--REDEF
READ_CONFIG.V IN PROCEDURE GET_DEVICE_CODE
     13371**DCL     13367--DCLINIT
READ_CONFIG.V.DVBYTE.REREAD# IN PROCEDURE GET_DEVICE_CODE
     13382**DCL     13382--REDEF
READ_CONFIG.V.INDX# IN PROCEDURE GET_DEVICE_CODE
     13380**DCL     13380--REDEF
READ_IO.BUF_
      9964**DCL     15958<<ASSIGN  16003<<ASSIGN
READ_IO.STATION_
      9965**DCL      9966--REDEF
READ_IO.V.DVBYTE.REREAD#
      9977**DCL      9977--REDEF
READ_IO.V.INDX#
      9975**DCL      9975--REDEF
REASON IN PROCEDURE GET_DEVICE_CODE
     13227**DCL     13194--PROC    13494<<ASSIGN  13500<<ASSIGN  13504<>CALL    13514<<ASSIGN
REASON IN PROCEDURE MAP_MPC_DEVICE
     14019**DCL     13987--PROC    14062<<ASSIGN
REASON IN PROCEDURE RELEASE_CHANNELS
     12553**DCL     12549--PROC    12571<<ASSIGN
REASON IN PROCEDURE SUSPEND_CHANNELS
PL6.E3A0      #001=TOP$POLTS File=TOP$POLTS.:E05TSI                              WED 07/30/97 06:30 Page:751
     12417**DCL     12413--PROC    12439<<ASSIGN
REASON IN PROCEDURE TOP$MME_SCTCMP
     13049**DCL     13060<>CALL    13063>>ASSIGN
REASON IN PROCEDURE VALIDATE_DEVICE_TYPE
     13932**DCL     13900--PROC    13938<>CALL    13943<<ASSIGN  13947<<ASSIGN
RELEASE_CHANNELS IN PROCEDURE TOP$MME_PACMAN
     12549**PROC    12372--CALL
RELEASE_DEVICE IN PROCEDURE TOP$MME_RELEAS
     12810**PROC    12777--CALL
RELEASE_ID.TYPE IN PROCEDURE TOP$MME_RELEAS
     12766**DCL     12775>>DOCASE
REPORT_CHANNELS IN PROCEDURE TOP$MME_PACMAN
     12467**PROC    12371--CALL
RETURN_DELTA
      9898**DCL        56--PROC    10554<>CALL    10556<>CALL    10559<>CALL    10561<>CALL    10563<>CALL
     10565<>CALL    10567<>CALL    10569<>CALL    10572<>CALL    10574<>CALL    10576<>CALL    10578<>CALL
     10580<>CALL    10582<>CALL    10584<>CALL    10586<>CALL    10588<>CALL    10591<>CALL    10594<>CALL
     10597<>CALL    10599<>CALL    10601<>CALL    10604<>CALL    10607<>CALL    10609<>CALL    10661--ENTRY
RETURN_DELTA IN PROCEDURE SET_RETURN_VALUES
     15247**DCL     15241--PROC    15280<<ASSIGN
RETURN_DELTA IN PROCEDURE TOP$MME_ALCMCA
     10693**DCL     10682--PROC    10695<<ASSIGN
RETURN_DELTA IN PROCEDURE TOP$MME_ALLOCR
     10864**DCL     10838--PROC    10880<<ASSIGN  10889<<ASSIGN  10897<<ASSIGN
RETURN_DELTA IN PROCEDURE TOP$MME_ASGPAT
     11630**DCL     11624--PROC    11636<<ASSIGN
RETURN_DELTA IN PROCEDURE TOP$MME_CHANTM
     11664**DCL     11660--PROC    11671<<ASSIGN
RETURN_DELTA IN PROCEDURE TOP$MME_DEALCP
     11715**DCL     11712--PROC    11719<<ASSIGN
RETURN_DELTA IN PROCEDURE TOP$MME_EXPDEV
     11745**DCL     11739--PROC    11752<<ASSIGN
RETURN_DELTA IN PROCEDURE TOP$MME_GETCSC
     11780**DCL     11776--PROC    11792<<ASSIGN
RETURN_DELTA IN PROCEDURE TOP$MME_GETLIN
     11813**DCL     11806--PROC    11817<<ASSIGN
PL6.E3A0      #001=TOP$POLTS File=TOP$POLTS.:E05TSI                              WED 07/30/97 06:30 Page:752
RETURN_DELTA IN PROCEDURE TOP$MME_HUNGTM
     11906**DCL     11899--PROC    11918<<ASSIGN  11923<<ASSIGN
RETURN_DELTA IN PROCEDURE TOP$MME_IOCONS
     12053**DCL     12048--PROC    12061<<ASSIGN
RETURN_DELTA IN PROCEDURE TOP$MME_IPCWDT
     12155**DCL     12124--PROC    12185<<ASSIGN
RETURN_DELTA IN PROCEDURE TOP$MME_LODIMG
     12204**DCL     12201--PROC    12208<<ASSIGN
RETURN_DELTA IN PROCEDURE TOP$MME_LODVFC
     12228**DCL     12224--PROC    12232<<ASSIGN
RETURN_DELTA IN PROCEDURE TOP$MME_LPWDT
     12269**DCL     12252--PROC    12288<<ASSIGN
RETURN_DELTA IN PROCEDURE TOP$MME_PACMAN
     12347**DCL     12332--PROC    12358<<ASSIGN  12367<<ASSIGN  12368<<ASSIGN  12375<<ASSIGN
RETURN_DELTA IN PROCEDURE TOP$MME_POINIT
     12649**DCL     12614--PROC    12688<<ASSIGN
RETURN_DELTA IN PROCEDURE TOP$MME_PRTRAN
     12718**DCL     12709--PROC    12727<<ASSIGN
RETURN_DELTA IN PROCEDURE TOP$MME_RELEAS
     12770**DCL     12755--PROC    12779<<ASSIGN  12785<<ASSIGN  12788<<ASSIGN
RETURN_DELTA IN PROCEDURE TOP$MME_RELLNK
     12847**DCL     12840--PROC    12851<<ASSIGN
RETURN_DELTA IN PROCEDURE TOP$MME_RELMPC
     12868**DCL     12865--PROC    12872<<ASSIGN
RETURN_DELTA IN PROCEDURE TOP$MME_RLSPAT
     12888**DCL     12885--PROC    12892<<ASSIGN
RETURN_DELTA IN PROCEDURE TOP$MME_SCTCMP
     13014**DCL     13007--PROC    13055<<ASSIGN  13062<<ASSIGN  13069<<ASSIGN  13076<<ASSIGN
RETURN_DELTA IN PROCEDURE TOP$MME_TESTIO
     14744**DCL     14733--PROC    14759<>CALL
RETURN_DELTA IN PROCEDURE TOP$MME_UNSPEC
     15298**DCL     15295--PROC    15302<<ASSIGN
RETURN_DELTA IN PROCEDURE TOP$MME_WRDUMP
     15352**DCL     15321--PROC    15914<<ASSIGN
RETURN_SPECIAL_STATUS IN PROCEDURE TOP$TIO_DONE
     16770**PROC    16628--CALL
PL6.E3A0      #001=TOP$POLTS File=TOP$POLTS.:E05TSI                              WED 07/30/97 06:30 Page:753
RETURN_STATUS IN PROCEDURE TOP$MME_HUNGTM
     11978**PROC    11914--CALL
RETURN_TIO_STATUS IN PROCEDURE TOP$TIO_DONE
     16668**PROC    16616--CALL    16621--CALL
SCT IN PROCEDURE BOGUS_TDOPEN
     13762**DCL     13751--PROC
SCT.FICCDD.CHANNEL# IN PROCEDURE BOGUS_TDOPEN
     13767**DCL     13791>>ASSIGN
SCT.FICCDD.DEVICE# IN PROCEDURE BOGUS_TDOPEN
     13768**DCL     13792>>ASSIGN
SCT.FICCDD.IOM# IN PROCEDURE BOGUS_TDOPEN
     13766**DCL     13790>>ASSIGN
SCT.TEST_TYPE IN PROCEDURE BOGUS_TDOPEN
     13770**DCL     13787>>IF
SCT IN PROCEDURE BUILD_SCT_FICCDD
     13556**DCL     13541--PROC
SCT.FICCDD.CHANNEL# IN PROCEDURE BUILD_SCT_FICCDD
     13561**DCL     13596<<ASSIGN  13597<<ASSIGN
SCT.FICCDD.DEVICE# IN PROCEDURE BUILD_SCT_FICCDD
     13562**DCL     13598<<ASSIGN
SCT.FICCDD.FLAG# IN PROCEDURE BUILD_SCT_FICCDD
     13558**DCL     13592<<ASSIGN
SCT.FICCDD.FORMAT# IN PROCEDURE BUILD_SCT_FICCDD
     13559**DCL     13593<<ASSIGN
SCT.FICCDD.IOM# IN PROCEDURE BUILD_SCT_FICCDD
     13560**DCL     13594<<ASSIGN
SCT.TEST_TYPE IN PROCEDURE BUILD_SCT_FICCDD
     13564**DCL     13599<<ASSIGN
SCT IN PROCEDURE BUILD_TEST_CONTROL_ENTRY
     14259**DCL     14247--PROC
SCT.BIT12 IN PROCEDURE BUILD_TEST_CONTROL_ENTRY
     14275**DCL     14331>>ASSIGN
SCT.BIT13 IN PROCEDURE BUILD_TEST_CONTROL_ENTRY
     14274**DCL     14332>>ASSIGN
SCT.BIT17 IN PROCEDURE BUILD_TEST_CONTROL_ENTRY
     14273**DCL     14333>>ASSIGN
PL6.E3A0      #001=TOP$POLTS File=TOP$POLTS.:E05TSI                              WED 07/30/97 06:30 Page:754
SCT.DEVICE_CODE IN PROCEDURE BUILD_TEST_CONTROL_ENTRY
     14268**DCL     14322>>ASSIGN
SCT.FICCDD.CHANNEL# IN PROCEDURE BUILD_TEST_CONTROL_ENTRY
     14264**DCL     14286>>ASSIGN
SCT.FICCDD.DEVICE# IN PROCEDURE BUILD_TEST_CONTROL_ENTRY
     14265**DCL     14287>>ASSIGN
SCT.FICCDD.FLAG# IN PROCEDURE BUILD_TEST_CONTROL_ENTRY
     14261**DCL     14289>>ASSIGN
SCT.FICCDD.FORMAT# IN PROCEDURE BUILD_TEST_CONTROL_ENTRY
     14262**DCL     14288>>ASSIGN
SCT.FICCDD.IOM# IN PROCEDURE BUILD_TEST_CONTROL_ENTRY
     14263**DCL     14285>>ASSIGN
SCT.FIRMWARE.LP# IN PROCEDURE BUILD_TEST_CONTROL_ENTRY
     14271**DCL     14337>>ASSIGN
SCT.FIRMWARE.RP# IN PROCEDURE BUILD_TEST_CONTROL_ENTRY
     14272**DCL     14338>>ASSIGN
SCT.FIRMWARE.TYPE# IN PROCEDURE BUILD_TEST_CONTROL_ENTRY
     14270**DCL     14336>>ASSIGN
SCT.MODEL IN PROCEDURE BUILD_TEST_CONTROL_ENTRY
     14276**DCL     14341>>ASSIGN
SCT.MPC_MODEL IN PROCEDURE BUILD_TEST_CONTROL_ENTRY
     14277**DCL     14342>>ASSIGN
SCT.TEST_TYPE IN PROCEDURE BUILD_TEST_CONTROL_ENTRY
     14267**DCL     14292>>DOCASE
SCT IN PROCEDURE GET_CHANNEL_DEVICE
     13634**DCL     13623--PROC
SCT.FICCDD.CHANNEL# IN PROCEDURE GET_CHANNEL_DEVICE
     13639**DCL     13728>>ASSIGN
SCT.FICCDD.IOM# IN PROCEDURE GET_CHANNEL_DEVICE
     13638**DCL     13717>>IF      13719>>ASSIGN  13722>>ASSIGN
SCT IN PROCEDURE GET_DEVICE_CODE
     13207**DCL     13194--PROC    13479<>CALL    13491<>CALL    13497<>CALL    13503<>CALL    13504<>CALL
     13511<>CALL
SCT.TEST_TYPE IN PROCEDURE GET_DEVICE_CODE
     13215**DCL     13488>>IF
SCT IN PROCEDURE GET_MODEL_ID
PL6.E3A0      #001=TOP$POLTS File=TOP$POLTS.:E05TSI                              WED 07/30/97 06:30 Page:755
     13826**DCL     13815--PROC
SCT.MODEL IN PROCEDURE GET_MODEL_ID
     13843**DCL     13879<<ASSIGN
SCT IN PROCEDURE MAP_DEVICE
     14104**DCL     14091--PROC
SCT.BIT12 IN PROCEDURE MAP_DEVICE
     14120**DCL     14129<<ASSIGN  14182<<ASSIGN
SCT.BIT13 IN PROCEDURE MAP_DEVICE
     14119**DCL     14128<<ASSIGN  14146<<ASSIGN  14172<<ASSIGN
SCT.BIT17 IN PROCEDURE MAP_DEVICE
     14118**DCL     14127<<ASSIGN  14137<<ASSIGN  14168<<ASSIGN  14171<<ASSIGN  14199<<ASSIGN  14204<<ASSIGN
SCT.DEVICE_CODE IN PROCEDURE MAP_DEVICE
     14113**DCL     14132<<ASSIGN  14134<<ASSIGN  14136<<ASSIGN  14139<<ASSIGN  14141<<ASSIGN  14143<<ASSIGN
     14145<<ASSIGN  14149<<ASSIGN  14151<<ASSIGN  14153<<ASSIGN  14155<<ASSIGN  14157<<ASSIGN  14159<<ASSIGN
     14161<<ASSIGN  14163<<ASSIGN  14165<<ASSIGN  14167<<ASSIGN  14170<<ASSIGN  14174<<ASSIGN  14181<<ASSIGN
     14190<<ASSIGN  14192<<ASSIGN  14194<<ASSIGN  14196<<ASSIGN  14198<<ASSIGN  14201<<ASSIGN  14203<<ASSIGN
     14207>>IF
SCT.FIRMWARE.TYPE# IN PROCEDURE MAP_DEVICE
     14115**DCL     14188>>DOSELCT
SCT.MODEL IN PROCEDURE MAP_DEVICE
     14121**DCL     14130>>DOSELCT
SCT.TEST_TYPE IN PROCEDURE MAP_DEVICE
     14112**DCL     14179>>IF      14187>>IF
SCT IN PROCEDURE MAP_MPC_DEVICE
     13998**DCL     13987--PROC
SCT.FICCDD.CHANNEL# IN PROCEDURE MAP_MPC_DEVICE
     14003**DCL     14057>>IF
SCT.FICCDD.IOM# IN PROCEDURE MAP_MPC_DEVICE
     14002**DCL     14057>>IF
SCT.FIRMWARE.LP# IN PROCEDURE MAP_MPC_DEVICE
     14010**DCL     14069<<ASSIGN
SCT.FIRMWARE.RP# IN PROCEDURE MAP_MPC_DEVICE
     14011**DCL     14070<<ASSIGN
SCT.FIRMWARE.TYPE# IN PROCEDURE MAP_MPC_DEVICE
     14009**DCL     14068<<ASSIGN
SCT.MPC_MODEL IN PROCEDURE MAP_MPC_DEVICE
PL6.E3A0      #001=TOP$POLTS File=TOP$POLTS.:E05TSI                              WED 07/30/97 06:30 Page:756
     14016**DCL     14067<<ASSIGN
SCT.TEST_TYPE IN PROCEDURE MAP_MPC_DEVICE
     14006**DCL     14056>>IF
SCT IN PROCEDURE TOP$MME_SCTCMP
     13027**DCL     13060<>CALL    13067<>CALL
SCT.BIT12 IN PROCEDURE TOP$MME_SCTCMP
     13043**DCL     13075<>CALL
SCT.BIT13 IN PROCEDURE TOP$MME_SCTCMP
     13042**DCL     13075<>CALL
SCT.BIT17 IN PROCEDURE TOP$MME_SCTCMP
     13041**DCL     13075<>CALL
SCT IN PROCEDURE VALIDATE_DEVICE_TYPE
     13911**DCL     13900--PROC    13938<>CALL
SCT.FICCDD.DEVICE# IN PROCEDURE VALIDATE_DEVICE_TYPE
     13917**DCL     13940>>IF
SCT$ IN PROCEDURE BUILD_TEST_CONTROL_ENTRY
     14279**DCL     14280--REDEF   14325<<ASSIGN  14327<<ASSIGN
SCTWDS_BUILT IN PROCEDURE BUILD_SCTWRK
     16352**DCL     16302--PROC    16416>>IF
SCTWDS_BUILT IN PROCEDURE TOP$MME_ALLOCR
     10855**DCL     10894<<ASSIGN  10895<>CALL
SCTWDS_BUILT IN PROCEDURE TOP$MME_SCTCMP
     13048**DCL     13074<<ASSIGN  13075<>CALL
SCTWRK
     10324**DCL     16357<<ASSIGN
SCTWRK.ALTSCT_ADR#
     10328**DCL     16372<<ASSIGN
SCTWRK.CRCST_0
     10340**DCL     16418<<ASSIGN
SCTWRK.CRCST_0.MPC#
     10343**DCL     16435<<ASSIGN
SCTWRK.CRCST_0.VOLATILE_FW#
     10342**DCL     16434<<ASSIGN
SCTWRK.CRCST_1.BIT7#
     10347**DCL     16384<<ASSIGN
SCTWRK.CRCST_1.BIT8#
PL6.E3A0      #001=TOP$POLTS File=TOP$POLTS.:E05TSI                              WED 07/30/97 06:30 Page:757
     10348**DCL     16380<<ASSIGN
SCTWRK.CRCST_3.BIT9#
     10353**DCL     16387<<ASSIGN
SCTWRK.CSCT_ADR#
     10331**DCL     16375<<ASSIGN
SCTWRK.CTLR_TYPE#
     10333**DCL     16439<<ASSIGN  16441<<ASSIGN  16446<<ASSIGN  16448<<ASSIGN  16450<<ASSIGN
SCTWRK.GCOS_TYPE_CODE#
     10329**DCL     16374<<ASSIGN
SCTWRK.IOC_TYPE#
     10332**DCL     16361<<ASSIGN  16363<<ASSIGN  16365<<ASSIGN
SCTWRK.MPC_INDEX#
     10339**DCL     16377<<ASSIGN
SCTWRK.MPC_SCT_ADR#
     10338**DCL     16376<<ASSIGN
SCTWRK.SCT_0
     10355**DCL     16419<<ASSIGN
SCTWRK.SCT_0.BIT12#
     10358**DCL     16425<<ASSIGN
SCTWRK.SCT_0.BIT17#
     10362**DCL     16423<<ASSIGN  16431<<ASSIGN
SCTWRK.SCT_0.DEV_TYPE#
     10356**DCL     16430<<ASSIGN
SCTWRK.SCT_0.SPEED#
     10359**DCL     16424<<ASSIGN
SCTWRK.SCT_1
     10364**DCL     16420<<ASSIGN
SCTWRK.SCT_ADR#
     10325**DCL     16370<<ASSIGN  16371<<ASSIGN
SCTWRK.XBICC#
     10327**DCL     16373<<ASSIGN
SCTWRK$ IN PROCEDURE BUILD_SCTWRK
     16351**DCL     16356<<ASSIGN  16357>>ASSIGN  16361>>ASSIGN  16363>>ASSIGN  16365>>ASSIGN  16370>>ASSIGN
     16371>>ASSIGN  16372>>ASSIGN  16373>>ASSIGN  16374>>ASSIGN  16375>>ASSIGN  16376>>ASSIGN  16377>>ASSIGN
     16380>>ASSIGN  16384>>ASSIGN  16387>>ASSIGN  16418>>ASSIGN  16419>>ASSIGN  16420>>ASSIGN  16423>>ASSIGN
     16424>>ASSIGN  16425>>ASSIGN  16430>>ASSIGN  16431>>ASSIGN  16434>>ASSIGN  16435>>ASSIGN  16439>>ASSIGN
PL6.E3A0      #001=TOP$POLTS File=TOP$POLTS.:E05TSI                              WED 07/30/97 06:30 Page:758
     16441>>ASSIGN  16446>>ASSIGN  16448>>ASSIGN  16450>>ASSIGN
SCT_.ADDR# IN PROCEDURE BUILD_TEST_CONTROL_ENTRY
     14281**DCL     14326>>ASSIGN  14328>>ASSIGN
SCT_PTR.ADDR# IN PROCEDURE BUILD_SCTWRK
     16340**DCL     16371>>ASSIGN
SETUP_DUMP_FID IN PROCEDURE GET_DUMP_OUTPUT_MODE
     16032**PROC    16022--CALL
SET_DUMP_PARAMS IN PROCEDURE TOP$MME_WRDUMP
     16087**PROC    15909--CALL
SET_MTAR_PERMISSION IN PROCEDURE TOP$MME_ALLOCR
     11157**PROC    10883--CALL
SET_RETURN_VALUES IN PROCEDURE TOP$MME_TESTIO
     15241**PROC    14759--CALL
SET_TDIO_FPT IN PROCEDURE TOP$MME_TESTIO
     14902**PROC    14756--CALL
SET_TDOPEN_FPT IN PROCEDURE TOP$MME_ALLOCR
     11065**PROC    10876--CALL
STATUS
     10370**DCL     11989<<ASSIGN  16682<<ASSIGN  16780<<ASSIGN
STATUS.ABORT_INDICATOR#
     10380**DCL     16691<<ASSIGN
STATUS.DATA_ADDRESS_RESIDUE#
     10385**DCL     16695<<ASSIGN  16695>>ASSIGN
STATUS.INTERRUPT_INDICATOR#
     10379**DCL     11993<<ASSIGN  16688<<ASSIGN
STATUS.LOST_INTERRUPT#
     10378**DCL     11992<<ASSIGN  16687<<ASSIGN  16690<<ASSIGN
STATUS.MAJOR#
     10373**DCL     11455>>IF      11990<<ASSIGN  16612>>IF      16683>>IF      16685<<ASSIGN
STATUS.MINOR#
     10374**DCL     11455>>IF      16612>>IF
STATUS.TERMINATION_INDICATOR#
     10371**DCL     11991<<ASSIGN  16686<<ASSIGN
STATUS$ IN PROCEDURE GET_DENSITIES
     11422**DCL     11454<<ASSIGN  11455>>IF      11455>>IF
SUM IN PROCEDURE GET_BCD_BUFFER
PL6.E3A0      #001=TOP$POLTS File=TOP$POLTS.:E05TSI                              WED 07/30/97 06:30 Page:759
     16195**DCL     16203<<ASSIGN  16211<<ASSIGN  16211>>ASSIGN  16215>>ASSIGN
SUSPEND_CHANNELS IN PROCEDURE TOP$MME_PACMAN
     12413**PROC    12363--CALL
TCX IN PROCEDURE BUILD_CONTROLLER_SCT
     11574**DCL     11572--PROC    11588>>ASSIGN  11590>>IF      11593>>IF
TCX IN PROCEDURE BUILD_DCW_LIST
     14948**DCL     14946--PROC    14976>>DOCASE  15008>>ASSIGN  15011>>ASSIGN  15015>>ASSIGN  15016>>IF
     15016>>IF      15019>>ASSIGN  15020>>ASSIGN  15021>>ASSIGN  15024>>IF      15024>>IF      15032>>DOCASE
     15036>>IF      15040>>IF      15040>>IF      15046>>IF      15047>>IF      15048>>ASSIGN  15050>>ASSIGN
     15053>>ASSIGN  15057>>IF      15064>>IF      15065>>ASSIGN  15079>>ASSIGN  15082>>IF      15082>>IF
     15090>>ASSIGN  15095>>ASSIGN  15099>>IF      15115>>ASSIGN  15169>>IF      15169>>IF
TCX IN PROCEDURE BUILD_DEVICE_SCT
     11212**DCL     11209--PROC    11237>>ASSIGN  11238>>DOCASE  11278>>ASSIGN  11298>>ASSIGN  11321>>ASSIGN
     11323>>IF      11327>>ASSIGN  11446>>ASSIGN  11454>>ASSIGN  11458>>IF      11459>>ASSIGN  11460>>ASSIGN
     11461>>ASSIGN  11498>>ASSIGN  11501>>ASSIGN  11502>>ASSIGN  11520>>ASSIGN  11539>>ASSIGN
TCX IN PROCEDURE BUILD_SCTWRK
     16342**DCL     16302--PROC    16367>>ASSIGN  16368>>ASSIGN  16369>>IF      16374>>ASSIGN  16377>>ASSIGN
     16378>>IF      16378>>IF      16382>>IF      16382>>IF      16386>>IF      16390>>IF      16390>>IF
     16394>>IF      16397>>IF      16400>>ASSIGN  16402>>ASSIGN  16406>>ASSIGN  16408>>ASSIGN  16423>>ASSIGN
     16424>>ASSIGN  16425>>ASSIGN  16426>>IF      16426>>IF      16428>>IF      16430>>ASSIGN  16437>>DOSELCT
TCX IN PROCEDURE BUILD_TEST_CONTROL_ENTRY
     14249**DCL     14247--PROC    14285>>ASSIGN  14286>>ASSIGN  14287>>ASSIGN  14288>>ASSIGN  14289>>ASSIGN
     14294>>ASSIGN  14296>>ASSIGN  14298>>ASSIGN  14300>>ASSIGN  14302>>ASSIGN  14304>>ASSIGN  14306>>ASSIGN
     14308>>ASSIGN  14310>>ASSIGN  14312>>ASSIGN  14314>>ASSIGN  14316>>ASSIGN  14322>>ASSIGN  14325>>ASSIGN
     14326>>ASSIGN  14327>>ASSIGN  14328>>ASSIGN  14331>>ASSIGN  14332>>ASSIGN  14333>>ASSIGN  14336>>ASSIGN
     14337>>ASSIGN  14338>>ASSIGN  14341>>ASSIGN  14342>>ASSIGN
TCX IN PROCEDURE COPY_IO_ENTRY
     14849**DCL     14846--PROC    14857>>ASSIGN  14859>>ASSIGN
TCX IN PROCEDURE DEDICATE_CHANNEL_3
     10728**DCL     10726--PROC    10732>>ASSIGN  10733>>ASSIGN  10734>>ASSIGN
TCX IN PROCEDURE FIND_VACANT_ENTRY
     13094**DCL     13092--PROC    13100<<ASSIGN  13101>>DOWHILE 13101>>DOWHILE 13102<<ASSIGN  13102>>ASSIGN
     13104>>IF      13107>>ASSIGN
TCX IN PROCEDURE GET_TEST_DCB
     10972**DCL     10970--PROC    11016>>CALLBLT 11019>>ASSIGN
TCX IN PROCEDURE GIVE_COURTESY_CALL
PL6.E3A0      #001=TOP$POLTS File=TOP$POLTS.:E05TSI                              WED 07/30/97 06:30 Page:760
     12017**DCL     12015--PROC    12022>>IF      12025>>ASSIGN
TCX IN PROCEDURE ISSUE_IO
     15211**DCL     15209--PROC    15217>>ASSIGN
TCX IN PROCEDURE MATCH_ICC
     16467**DCL     16465--PROC    16472<<ASSIGN  16473>>DOWHILE 16474>>IF      16476<<ASSIGN  16476>>ASSIGN
TCX IN PROCEDURE MATCH_ICCDD
     10923**DCL     10921--PROC    10943<<ASSIGN  10944>>DOWHILE 10945>>IF      10947<<ASSIGN  10947>>ASSIGN
TCX IN PROCEDURE MATCH_IO_ENTRY
     11940**DCL     11937--PROC    11944<<ASSIGN  11945>>DOWHILE 11946>>IF      11948<<ASSIGN  11948>>ASSIGN
TCX IN PROCEDURE MATCH_PAT_PTR
     11686**DCL     11684--PROC    11691<<ASSIGN  11692>>DOWHILE 11693>>IF      11695<<ASSIGN  11695>>ASSIGN
TCX IN PROCEDURE MATCH_SCT_ADR
     16505**DCL     16503--PROC    16510<<ASSIGN  16511>>DOWHILE 16512>>IF      16514>>ASSIGN  16517<<ASSIGN
     16517>>ASSIGN  16520<<ASSIGN  16521>>DOWHILE 16522>>IF      16524>>ASSIGN  16527<<ASSIGN  16527>>ASSIGN
TCX IN PROCEDURE RELEASE_CHANNELS
     12551**DCL     12549--PROC
TCX IN PROCEDURE RELEASE_DEVICE
     12812**DCL     12810--PROC    12816>>ASSIGN  12822>>ASSIGN  12823>>ASSIGN  12824>>ASSIGN  12825>>ASSIGN
TCX IN PROCEDURE RETURN_STATUS
     11980**DCL     11978--PROC    11985>>IF      11988>>ASSIGN
TCX IN PROCEDURE SET_MTAR_PERMISSION
     11159**DCL     11157--PROC    11167>>IF
TCX IN PROCEDURE SET_RETURN_VALUES
     15243**DCL     15241--PROC    15274>>IF      15279>>ASSIGN
TCX IN PROCEDURE SET_TDIO_FPT
     14904**DCL     14902--PROC    14908>>ASSIGN  14909>>ASSIGN  14910>>ASSIGN  14911>>ASSIGN  14912>>ASSIGN
     14916>>ASSIGN  14917>>IF
TCX IN PROCEDURE SET_TDOPEN_FPT
     11067**DCL     11065--PROC    11071>>ASSIGN  11073>>DOSELCT 11078>>ASSIGN  11084>>DOCASE  11098>>ASSIGN
     11099>>ASSIGN
TCX IN PROCEDURE SUSPEND_CHANNELS
     12415**DCL     12413--PROC
TCX IN PROCEDURE TOP$MME_ALCMCA
     10692**DCL     10698<>CALL    10704<>CALL
TCX IN PROCEDURE TOP$MME_ALLOCR
     10853**DCL     10868<>CALL    10871>>IF      10873>>ASSIGN  10875<>CALL    10876<>CALL    10883<>CALL
PL6.E3A0      #001=TOP$POLTS File=TOP$POLTS.:E05TSI                              WED 07/30/97 06:30 Page:761
     10886<>CALL    10892<>CALL    10895<>CALL    11125>>IF      11125>>IF      11125>>IF
TCX IN PROCEDURE TOP$MME_ASGPAT
     11626**DCL     11634<>CALL    11635>>ASSIGN
TCX IN PROCEDURE TOP$MME_CHANTM
     11665**DCL     11669<>CALL    11670>>ASSIGN
TCX IN PROCEDURE TOP$MME_EXPDEV
     11741**DCL     11749<>CALL    11750>>ASSIGN  11751>>ASSIGN
TCX IN PROCEDURE TOP$MME_GETCSC
     11785**DCL     11789<>CALL    11790>>ASSIGN
TCX IN PROCEDURE TOP$MME_HUNGTM
     11907**DCL     11911<>CALL    11912>>IF      11912>>IF      11914<>CALL    11915<>CALL    11917>>ASSIGN
TCX IN PROCEDURE TOP$MME_IOCONS
     12050**DCL     12058<>CALL    12059>>ASSIGN
TCX IN PROCEDURE TOP$MME_IPCWDT
     12141**DCL     12168<>CALL    12171>>ASSIGN
TCX IN PROCEDURE TOP$MME_LPWDT
     12254**DCL     12284<>CALL    12285>>ASSIGN
TCX IN PROCEDURE TOP$MME_PACMAN
     12349**DCL     12355<>CALL    12363<>CALL    12372<>CALL
TCX IN PROCEDURE TOP$MME_PRTRAN
     12711**DCL     12724<>CALL    12726>>ASSIGN
TCX IN PROCEDURE TOP$MME_RELEAS
     12758**DCL     12774<>CALL    12777<>CALL
TCX IN PROCEDURE TOP$MME_SCTCMP
     13016**DCL     13053<>CALL    13067<>CALL    13075<>CALL
TCX IN PROCEDURE TOP$MME_TESTIO
     14747**DCL     14754<>CALL    14755<>CALL    14756<>CALL    14757<>CALL    14758<>CALL    14759<>CALL
TCX IN PROCEDURE TOP$TIO_DONE
     16599**DCL     16606<<ASSIGN  16607>>IF      16607>>IF      16608>>IF      16610>>ASSIGN  16614>>ASSIGN
     16625<<ASSIGN  16626>>IF      16677>>IF      16680>>ASSIGN  16681>>ASSIGN  16697>>IF      16700>>ASSIGN
     16733>>ASSIGN  16734>>IF      16737>>ASSIGN  16776>>IF      16779>>ASSIGN
TD$DEV.MODEL IN PROCEDURE GET_MODEL_ID
     13854**DCL     13879>>ASSIGN
TD$HEAD.NUMIOMS IN PROCEDURE GET_CHANNEL_DEVICE
     13669**DCL     13717>>IF
TD$IOM.DEVNAME IN PROCEDURE GET_CHANNEL_DEVICE
PL6.E3A0      #001=TOP$POLTS File=TOP$POLTS.:E05TSI                              WED 07/30/97 06:30 Page:762
     13704**DCL     13728>>ASSIGN
TD$MPC.CRPFWNAME IN PROCEDURE MAP_MPC_DEVICE
     14041**DCL     14070>>ASSIGN
TD$MPC.FWNAME IN PROCEDURE MAP_MPC_DEVICE
     14039**DCL     14068>>ASSIGN
TD$MPC.IOCHAN.IOM IN PROCEDURE MAP_MPC_DEVICE
     14031**DCL     14057>>IF
TD$MPC.IOCHAN.LOCHAN IN PROCEDURE MAP_MPC_DEVICE
     14032**DCL     14057>>IF
TD$MPC.IOCHAN.PRESENCE IN PROCEDURE MAP_MPC_DEVICE
     14029**DCL     14057>>IF
TD$MPC.LPFWNAME IN PROCEDURE MAP_MPC_DEVICE
     14040**DCL     14069>>ASSIGN
TD$MPC.MODEL IN PROCEDURE MAP_MPC_DEVICE
     14027**DCL     14067>>ASSIGN
TDCLOSE_FPT
     10452**DCL     10753<>CALL    12568<>CALL    12817<>CALL
TDCLOSE_FPT.V
     10452**DCL     10452--DCLINIT
TDCLOSE_FPT.V.DCB#
     10452**DCL     10752<<ASSIGN  12567<<ASSIGN  12816<<ASSIGN
TDIO_FPT
     10466**DCL     11452<>CALL    12179<>CALL    15218<>CALL
TDIO_FPT.DATA_
     10466**DCL     11444<<ASSIGN  12169<<ASSIGN  14801<<ASSIGN
TDIO_FPT.DCWLIST_
     10466**DCL     11445<<ASSIGN  12170<<ASSIGN  14911<<ASSIGN
TDIO_FPT.V
     10467**DCL     10466--DCLINIT
TDIO_FPT.V.ALTPATH
     10468**DCL     11449<<ASSIGN  12174<<ASSIGN  14915<<ASSIGN
TDIO_FPT.V.DCB#
     10467**DCL     11446<<ASSIGN  12171<<ASSIGN  14912<<ASSIGN
TDIO_FPT.V.EVENT#
     10469**DCL     11450<<ASSIGN  12175<<ASSIGN  14916<<ASSIGN
TDIO_FPT.V.PCW#
PL6.E3A0      #001=TOP$POLTS File=TOP$POLTS.:E05TSI                              WED 07/30/97 06:30 Page:763
     10469**DCL     11448<<ASSIGN  12173<<ASSIGN  14914<<ASSIGN
TDIO_FPT.V.TIMEOUT#
     10470**DCL     11451<<ASSIGN  12176<<ASSIGN  14918<<ASSIGN  14919<<ASSIGN
TDIO_FPT.V.WAIT#
     10467**DCL     11447<<ASSIGN  12172<<ASSIGN  14913<<ASSIGN
TDOPEN_FPT
     10483**DCL     10735<>CALL    11121<>CALL    11131<>CALL    12436<>CALL    13793<>CALL
TDOPEN_FPT.CHAIN_
     10483**DCL     11098<<ASSIGN
TDOPEN_FPT.V
     10484**DCL     10483--DCLINIT
TDOPEN_FPT.V.DCB#
     10484**DCL     10730<<ASSIGN  11071<<ASSIGN  12431<<ASSIGN  13786<<ASSIGN
TDOPEN_FPT.V.DEVICE.CHAN#
     10486**DCL     10733<<ASSIGN  11096<<ASSIGN  12434<<ASSIGN  13791<<ASSIGN
TDOPEN_FPT.V.DEVICE.DVN#
     10485**DCL     10734<<ASSIGN  11097<<ASSIGN  12435<<ASSIGN  13792<<ASSIGN
TDOPEN_FPT.V.DEVICE.IOM#
     10485**DCL     10732<<ASSIGN  11095<<ASSIGN  12356<<ASSIGN  13790<<ASSIGN
TDOPEN_FPT.V.NCHANS#
     10487**DCL     12433<<ASSIGN
TDOPEN_FPT.V.SPEVENT#
     10486**DCL     11078<<ASSIGN
TDOPEN_FPT.V.TEST#
     10486**DCL     10731<<ASSIGN  11075<<ASSIGN  11077<<ASSIGN  11080<<ASSIGN  11082<<ASSIGN  11086<<ASSIGN
     11088<<ASSIGN  11125>>IF      11130<<ASSIGN  11170>>IF      12432<<ASSIGN  13788<<ASSIGN  13789<<ASSIGN
TDOPEN_FPT.VFC_
     10483**DCL     11099<<ASSIGN
TD_DCB# IN PROCEDURE TOP$MME_LPWDT
     12270**DCL     12285<<ASSIGN  12286--ASSIGN
TD_DCB$ IN PROCEDURE RETURN_TIO_STATUS
     16671**DCL     16680<<ASSIGN  16682>>ASSIGN  16701>>IF      16703>>ASSIGN
TD_DCB$ IN PROCEDURE TOP$MME_IOCONS
     12054**DCL     12059<<ASSIGN  12060>>ASSIGN
TD_DCB$ IN PROCEDURE TOP$MME_LPWDT
     12271**DCL     12286<<ASSIGN  12287>>ASSIGN
PL6.E3A0      #001=TOP$POLTS File=TOP$POLTS.:E05TSI                              WED 07/30/97 06:30 Page:764
TD_DCB$ IN PROCEDURE TOP$TIO_DONE
     16600**DCL     16610<<ASSIGN  16611>>ASSIGN
TEMP$ IN PROCEDURE PROCESS_DCWS
     15125**DCL     15144<<ASSIGN  15145>>IF      15147>>ASSIGN
TEMP_ASCII_BUF IN PROCEDURE TOP$MME_WRDUMP
     15385**DCL     16138--ASSIGN  16164<>CALL    16165>>ASSIGN  16170<>CALL    16171>>ASSIGN  16173<>CALL
     16174>>ASSIGN
TERMSTAT$ IN PROCEDURE TOP$TIO_DONE
     16601**DCL     16611<<ASSIGN  16612>>IF      16612>>IF
TIME_FPT IN PROCEDURE SET_RETURN_VALUES
     15263**DCL     15277<>CALL
TIME_FPT.V IN PROCEDURE SET_RETURN_VALUES
     15267**DCL     15263--DCLINIT
TIME_VALUE IN PROCEDURE SET_RETURN_VALUES
     15248**DCL     15267--DCLINIT 15278>>ASSIGN
TOK$COURTESY_CALL
     10492**DCL-ENT 12026--CALL    16738--CALL
TOP$EVENT_ID
      9984**DCL     16606>>ASSIGN  16625>>ASSIGN
TOP$MME_ALCMCA
     10682**PROC    10554--CALL
TOP$MME_ALLOCR
     10838**PROC    10556--CALL
TOP$MME_ASGPAT
     11624**PROC    10559--CALL
TOP$MME_CHANTM
     11660**PROC    10561--CALL
TOP$MME_DEALCP
     11712**PROC    10563--CALL
TOP$MME_EXPDEV
     11739**PROC    10565--CALL
TOP$MME_GETCSC
     11776**PROC    10567--CALL
TOP$MME_GETLIN
     11806**PROC    10569--CALL
TOP$MME_HUNGTM
PL6.E3A0      #001=TOP$POLTS File=TOP$POLTS.:E05TSI                              WED 07/30/97 06:30 Page:765
     11899**PROC    10572--CALL
TOP$MME_IOCONS
     12048**PROC    10574--CALL
TOP$MME_IPCWDT
     12124**PROC    10576--CALL
TOP$MME_LODIMG
     12201**PROC    10578--CALL
TOP$MME_LODVFC
     12224**PROC    10580--CALL
TOP$MME_LPWDT
     12252**PROC    10582--CALL
TOP$MME_PACMAN
     12332**PROC    10584--CALL
TOP$MME_POINIT
     12614**PROC    10586--CALL
TOP$MME_PRTRAN
     12709**PROC    10588--CALL
TOP$MME_RELEAS
     12755**PROC    10591--CALL
TOP$MME_RELLNK
     12840**PROC    10594--CALL
TOP$MME_RELMPC
     12865**PROC    10597--CALL
TOP$MME_RLSPAT
     12885**PROC    10599--CALL
TOP$MME_SCTCMP
     13007**PROC    10601--CALL
TOP$MME_TESTIO
     14733**PROC    10604--CALL
TOP$MME_UNSPEC
     15295**PROC    10607--CALL
TOP$MME_WRDUMP
     15321**PROC    10609--CALL
TOP$SCT.CN
      9986**DCL     11588--ASSIGN  12824<<ASSIGN  14327--ASSIGN  16368--ASSIGN
TOP$SCT.DV
PL6.E3A0      #001=TOP$POLTS File=TOP$POLTS.:E05TSI                              WED 07/30/97 06:30 Page:766
      9991**DCL     11237--ASSIGN  11790--ASSIGN  12823<<ASSIGN  14325--ASSIGN  16367--ASSIGN
TOP$SCT.DV.WD0#
      9992**DCL     11750>>ASSIGN
TOP$SCT.DV.WD1#
      9993**DCL     11751>>ASSIGN
TOP$STATUS
      9996**DCL     16780>>ASSIGN
TOP$TCP
     10040**DCL     12822<<ASSIGN
TOP$TCP.ADR.CSCT
     10067**DCL     14328<<ASSIGN  16522>>IF
TOP$TCP.ADR.IOENTRY
     10071**DCL     11946>>IF      14859<<ASSIGN  15279>>ASSIGN
TOP$TCP.ADR.PAT
     10069**DCL     11635<<ASSIGN  11693>>IF
TOP$TCP.ADR.SCT
     10065**DCL     14326<<ASSIGN  16512>>IF
TOP$TCP.BFR.TRAIN_IMAGE
     10114**DCL     11098--ASSIGN  12726>>ASSIGN
TOP$TCP.BFR.VFC_IMAGE
     10116**DCL     11099--ASSIGN
TOP$TCP.DCB#
     10062**DCL     10873<<ASSIGN  11019<<ASSIGN  11071>>ASSIGN  11446>>ASSIGN  11454--ASSIGN  11670--ASSIGN
     12059--ASSIGN  12171>>ASSIGN  12285>>ASSIGN  12816>>ASSIGN  14912>>ASSIGN  16610--ASSIGN  16680--ASSIGN
TOP$TCP.DEVICE_CODE
     10060**DCL     10871>>IF      11084>>DOCASE  11238>>DOCASE  11278>>ASSIGN  11298>>ASSIGN  11321>>ASSIGN
     11498>>ASSIGN  11520>>ASSIGN  11539>>ASSIGN  11590>>IF      14322<<ASSIGN  16374>>ASSIGN  16428>>IF
     16430>>ASSIGN
TOP$TCP.DEVICE_MODEL
     10059**DCL     11458>>IF      14341<<ASSIGN
TOP$TCP.FICCDD
     10043**DCL     10049--REDEF   10052--REDEF
TOP$TCP.FICCDD.CHAN#
     10047**DCL     10733>>ASSIGN  14286<<ASSIGN  16402>>ASSIGN  16408>>ASSIGN
TOP$TCP.FICCDD.DEV#
     10048**DCL     10734>>ASSIGN  11459>>ASSIGN  11460>>ASSIGN  14287<<ASSIGN
PL6.E3A0      #001=TOP$POLTS File=TOP$POLTS.:E05TSI                              WED 07/30/97 06:30 Page:767
TOP$TCP.FICCDD.FLAG#
     10044**DCL     14289<<ASSIGN
TOP$TCP.FICCDD.FORMAT#
     10045**DCL     14288<<ASSIGN  16397>>IF
TOP$TCP.FICCDD.IOM#
     10046**DCL     10732>>ASSIGN  14285<<ASSIGN  16400>>ASSIGN  16406>>ASSIGN
TOP$TCP.FIRMWARE.LP_TYPE
     10100**DCL     14337<<ASSIGN
TOP$TCP.FIRMWARE.RP_TYPE
     10102**DCL     14338<<ASSIGN
TOP$TCP.FIRMWARE.TYPE
     10098**DCL     11593>>IF      14336<<ASSIGN  16378>>IF      16378>>IF      16382>>IF      16382>>IF
     16394>>IF      16426>>IF      16426>>IF
TOP$TCP.ICC.ICC#
     10054**DCL     16474>>IF
TOP$TCP.ICCDD.ICCDD#
     10051**DCL     10945>>IF
TOP$TCP.IN_USE
     10041**DCL     13101>>DOWHILE 13107<<ASSIGN
TOP$TCP.IO.CC_PAID
     10084**DCL     14910<<ASSIGN  16733<<ASSIGN
TOP$TCP.IO.CONTROLLER
     10078**DCL     15024>>IF      15047>>IF      15082>>IF      15169>>IF      16514<<ASSIGN  16524<<ASSIGN
TOP$TCP.IO.DONE
     10082**DCL     14909<<ASSIGN
TOP$TCP.IO.ISSUED
     10080**DCL     14908<<ASSIGN  15217<<ASSIGN
TOP$TCP.IO.ITR_INTERRUPT
     10074**DCL     11912>>IF      15019<<ASSIGN  15020<<ASSIGN  16608>>IF      16626>>IF
TOP$TCP.IO.TERMINATED
     10076**DCL     11912>>IF      15021<<ASSIGN  16614<<ASSIGN
TOP$TCP.MPC_MODEL
     10058**DCL     14342<<ASSIGN  16437>>DOSELCT
TOP$TCP.SCT.BIT12
     10091**DCL     14331<<ASSIGN  16425>>ASSIGN
TOP$TCP.SCT.BIT13
PL6.E3A0      #001=TOP$POLTS File=TOP$POLTS.:E05TSI                              WED 07/30/97 06:30 Page:768
     10089**DCL     11502>>ASSIGN  14332<<ASSIGN  16424>>ASSIGN
TOP$TCP.SCT.BIT17
     10087**DCL     11501>>ASSIGN  14333<<ASSIGN  16423>>ASSIGN
TOP$TCP.SCT.TAPE_DENSITY
     10093**DCL     11327>>ASSIGN  11461<<ASSIGN
TOP$TCP.STATS.EDIT_NAME
     10109**DCL     16114>>ASSIGN  16146>>ASSIGN  16156>>ASSIGN
TOP$TCP.STATS.LOAD_ADDR
     10105**DCL     16109>>IF      16144>>IF      16153>>IF      16167>>ASSIGN
TOP$TCP.TEST_TYPE
     10056**DCL     11073>>DOSELCT 11125>>IF      11125>>IF      11125>>IF      11167>>IF      11323>>IF
     14294<<ASSIGN  14296<<ASSIGN  14298<<ASSIGN  14300<<ASSIGN  14302<<ASSIGN  14304<<ASSIGN  14306<<ASSIGN
     14308<<ASSIGN  14310<<ASSIGN  14312<<ASSIGN  14314<<ASSIGN  14316<<ASSIGN  14917>>IF      15016>>IF
     15024>>IF      15082>>IF      15169>>IF      15274>>IF      16369>>IF      16386>>IF      16390>>IF
     16390>>IF
TOP$TIO_DONE
     16597**PROC    10663--CALL
TOP_ERROR_CODE
     10405**DCL     10951<>CALL    11092<>CALL    11258<>CALL    11466<>CALL    11699<>CALL    11952<>CALL
     12784<>CALL    13483<>CALL    15191<>CALL    15981<>CALL    15986<>CALL    16040<>CALL    16082<>CALL
     16480<>CALL    16531<>CALL
TOP_ERROR_CODE.ERR#
     10435**DCL     10950<<ASSIGN  11091<<ASSIGN  11257<<ASSIGN  11465<<ASSIGN  11698<<ASSIGN  11951<<ASSIGN
     12783<<ASSIGN  13482<<ASSIGN  15190<<ASSIGN  15980<<ASSIGN  15985<<ASSIGN  16039<<ASSIGN  16081<<ASSIGN
     16479<<ASSIGN  16530<<ASSIGN
TOT$BCD_ASCII
     10496**DCL-ENT 16126--CALL
TOT$CONSOLE_IN
     10493**DCL-ENT 15959--CALL    16004--CALL
TOT$CONSOLE_OUT
     10494**DCL-ENT 12499--CALL    12503--CALL    12506--CALL    12514--CALL    15942--CALL
TOT$DMC.TOP$TCP.PTR$
     10018**DCL     10040--IMP-PTR 10732>>ASSIGN  10733>>ASSIGN  10734>>ASSIGN  10871>>IF      10873>>ASSIGN
     10945>>IF      11019>>ASSIGN  11071>>ASSIGN  11073>>DOSELCT 11084>>DOCASE  11098>>ASSIGN  11099>>ASSIGN
     11125>>IF      11125>>IF      11125>>IF      11167>>IF      11238>>DOCASE  11278>>ASSIGN  11298>>ASSIGN
     11321>>ASSIGN  11323>>IF      11327>>ASSIGN  11446>>ASSIGN  11454>>ASSIGN  11458>>IF      11459>>ASSIGN
PL6.E3A0      #001=TOP$POLTS File=TOP$POLTS.:E05TSI                              WED 07/30/97 06:30 Page:769
     11460>>ASSIGN  11461>>ASSIGN  11498>>ASSIGN  11501>>ASSIGN  11502>>ASSIGN  11520>>ASSIGN  11539>>ASSIGN
     11590>>IF      11593>>IF      11635>>ASSIGN  11670>>ASSIGN  11693>>IF      11912>>IF      11912>>IF
     11946>>IF      12059>>ASSIGN  12171>>ASSIGN  12285>>ASSIGN  12726>>ASSIGN  12816>>ASSIGN  12822>>ASSIGN
     13101>>DOWHILE 13107>>ASSIGN  14285>>ASSIGN  14286>>ASSIGN  14287>>ASSIGN  14288>>ASSIGN  14289>>ASSIGN
     14294>>ASSIGN  14296>>ASSIGN  14298>>ASSIGN  14300>>ASSIGN  14302>>ASSIGN  14304>>ASSIGN  14306>>ASSIGN
     14308>>ASSIGN  14310>>ASSIGN  14312>>ASSIGN  14314>>ASSIGN  14316>>ASSIGN  14322>>ASSIGN  14326>>ASSIGN
     14328>>ASSIGN  14331>>ASSIGN  14332>>ASSIGN  14333>>ASSIGN  14336>>ASSIGN  14337>>ASSIGN  14338>>ASSIGN
     14341>>ASSIGN  14342>>ASSIGN  14859>>ASSIGN  14908>>ASSIGN  14909>>ASSIGN  14910>>ASSIGN  14912>>ASSIGN
     14917>>IF      15016>>IF      15019>>ASSIGN  15020>>ASSIGN  15021>>ASSIGN  15024>>IF      15024>>IF
     15047>>IF      15082>>IF      15082>>IF      15169>>IF      15169>>IF      15217>>ASSIGN  15274>>IF
     15279>>ASSIGN  16109>>IF      16114>>ASSIGN  16144>>IF      16146>>ASSIGN  16153>>IF      16156>>ASSIGN
     16167>>ASSIGN  16369>>IF      16374>>ASSIGN  16378>>IF      16378>>IF      16382>>IF      16382>>IF
     16386>>IF      16390>>IF      16390>>IF      16394>>IF      16397>>IF      16400>>ASSIGN  16402>>ASSIGN
     16406>>ASSIGN  16408>>ASSIGN  16423>>ASSIGN  16424>>ASSIGN  16425>>ASSIGN  16426>>IF      16426>>IF
     16428>>IF      16430>>ASSIGN  16437>>DOSELCT 16474>>IF      16512>>IF      16514>>ASSIGN  16522>>IF
     16524>>ASSIGN  16608>>IF      16610>>ASSIGN  16614>>ASSIGN  16626>>IF      16680>>ASSIGN  16733>>ASSIGN
TOT$ECP.BOOT_CPU_TYPE
     10165**DCL     12657>>DOCASE  12674>>DOCASE  16359>>DOCASE  16692>>IF
TOT$ECP.IO.COUNT
     10135**DCL     12178<<ASSIGN  12178>>ASSIGN  15216<<ASSIGN  15216>>ASSIGN
TOT$ECP.SUBEXEC.ADDRESS
     10151**DCL     16097>>ASSIGN  16098>>ASSIGN  16169>>ASSIGN
TOT$ECP.SUBEXEC.CURRENT
     10149**DCL     15927>>DOCASE
TOT$ECP.SUBEXEC.EDIT_NAME
     10153**DCL     16100>>ASSIGN
TOT$ECP.SUBEXEC.TEST_PAGE_COUNT
     10159**DCL     16140>>IF      16140>>IF
TOT$ECP.SUBEXEC.WRAPUP$
     10157**DCL     12685<<ASSIGN
TOT$ECP.TEST_REQ
     10129**DCL     10131--REDEF
TOT$OCTASC
     10495**DCL-ENT 16164--CALL    16170--CALL    16173--CALL
TOT$TOLTS.LINK_DATE.BCD
     10180**DCL     12687>>ASSIGN
PL6.E3A0      #001=TOP$POLTS File=TOP$POLTS.:E05TSI                              WED 07/30/97 06:30 Page:770
TOX$ERROR
     10497**DCL-ENT 11024--CALL    13483--CALL
TOX$SCREECH
     10499**DCL-ENT 10951--CALL    11092--CALL    11258--CALL    11699--CALL    11952--CALL    15191--CALL
     16480--CALL    16531--CALL
TOX$WARN
     10498**DCL-ENT 11135--CALL    11466--CALL    11472--CALL    12438--CALL    12570--CALL    12784--CALL
     12819--CALL    13798--CALL    15981--CALL    15986--CALL    16040--CALL    16077--CALL    16082--CALL
     16182--CALL
TP_BASE_REL_ADDR IN PROCEDURE TOP$MME_WRDUMP
     15373**DCL     16167<<ASSIGN  16169<<ASSIGN  16170<>CALL
TP_STATS_INX IN PROCEDURE TOP$MME_WRDUMP
     15382**DCL     16107<<ASSIGN  16108>>DOUNTIL 16109>>IF      16111<<ASSIGN  16111>>ASSIGN  16114>>ASSIGN
     16140>>IF      16149<<ASSIGN  16149>>ASSIGN  16153>>IF      16156>>ASSIGN  16158<<ASSIGN  16158>>ASSIGN
     16167>>ASSIGN
TRAIN_BFR IN PROCEDURE TOP$MME_PRTRAN
     12720**DCL     12726<<ASSIGN
TRAIN_BFR$ IN PROCEDURE TOP$MME_PRTRAN
     12719**DCL     12725<<ASSIGN  12726>>ASSIGN
UNDEDICATE_CHANNEL_3 IN PROCEDURE TOP$MME_ALCMCA
     10750**PROC    10709--CALL
UNSUCCESSFUL_DUMP IN PROCEDURE TOP$MME_WRDUMP
     15907**LABEL   15907--CALLALT 15908--CALLALT
VALIDATE_DEVICE_TYPE IN PROCEDURE GET_DEVICE_CODE
     13900**PROC    13504--CALL
VALID_RESPONSE IN PROCEDURE DO_YOU_WANT_A_DUMP
     15949**DCL     15956>>DOUNTIL 15974<<ASSIGN  15977<<ASSIGN  15979<<ASSIGN  15984<<ASSIGN
WD_1 IN PROCEDURE TOP$MME_ALLOCR
     10840**DCL     10838--PROC
WD_1.FICCDD_ADDR# IN PROCEDURE TOP$MME_ALLOCR
     10841**DCL     10927>>ASSIGN
WD_2 IN PROCEDURE TOP$MME_ALLOCR
     10843**DCL     10838--PROC    10895<>CALL
WD_2.MTAR_FLAG_ADDR# IN PROCEDURE TOP$MME_ALLOCR
     10845**DCL     11169>>ASSIGN
WD_3 IN PROCEDURE TOP$MME_ALLOCR
PL6.E3A0      #001=TOP$POLTS File=TOP$POLTS.:E05TSI                              WED 07/30/97 06:30 Page:771
     10846**DCL     10838--PROC
WD_4 IN PROCEDURE TOP$MME_ALLOCR
     10847**DCL     10838--PROC
WORK$ IN PROCEDURE RELEASE_CHANNELS
     12554**DCL     12555--IMP-PTR 12566<<ASSIGN
WORK$ IN PROCEDURE REPORT_CHANNELS
     12470**DCL     12471--IMP-PTR 12493<<ASSIGN  12494>>DOWHILE 12496>>IF      12509>>CALLBLT 12510>>IF
     12512>>CALLBLT 12517<<ASSIGN  12517>>ASSIGN
WORK$ IN PROCEDURE SUSPEND_CHANNELS
     12418**DCL     12419--IMP-PTR 12430<<ASSIGN  12433>>ASSIGN  12434>>ASSIGN
WRAP_DUMP_MSG IN PROCEDURE TOP$MME_WRDUMP
     15919**PROC    15903--CALL
WRITE_DUMP IN PROCEDURE TOP$MME_WRDUMP
     15845**DCL     16178<>CALL
WRITE_DUMP.BUF_ IN PROCEDURE TOP$MME_WRDUMP
     15845**DCL     16130<<ASSIGN  16134<<ASSIGN
WRITE_DUMP.STATION_ IN PROCEDURE TOP$MME_WRDUMP
     15847**DCL     15847--REDEF
WRITE_DUMP.V IN PROCEDURE TOP$MME_WRDUMP
     15848**DCL     15845--DCLINIT
WRITE_DUMP.V.DVBYTE.VFC# IN PROCEDURE TOP$MME_WRDUMP
     15854**DCL     15854--REDEF
WRITE_ERR IN PROCEDURE EXECUTE_DUMP
     16182**LABEL   16178--CALLALT
WRITE_HDR_LINE IN PROCEDURE TOP$MME_WRDUMP
     15813**DCL     16257<>CALL
WRITE_HDR_LINE.BUF_ IN PROCEDURE TOP$MME_WRDUMP
     15813**DCL     16254<<ASSIGN
WRITE_HDR_LINE.STATION_ IN PROCEDURE TOP$MME_WRDUMP
     15815**DCL     15815--REDEF
WRITE_HDR_LINE.V IN PROCEDURE TOP$MME_WRDUMP
     15816**DCL     15813--DCLINIT
WRITE_HDR_LINE.V.DVBYTE.VFC# IN PROCEDURE TOP$MME_WRDUMP
     15822**DCL     15822--REDEF
X0 IN PROCEDURE TOP$MME_ALCMCA
     10687**DCL     10682--PROC    10701<<ASSIGN  10706<<ASSIGN  10711<<ASSIGN
PL6.E3A0      #001=TOP$POLTS File=TOP$POLTS.:E05TSI                              WED 07/30/97 06:30 Page:772
X1 IN PROCEDURE TOP$MME_ALLOCR
     10849**DCL     10838--PROC
X1 IN PROCEDURE TOP$MME_GETCSC
     11778**DCL     11776--PROC    11789<>CALL
X1 IN PROCEDURE TOP$MME_HUNGTM
     11905**DCL     11899--PROC    11917<<ASSIGN  11921<<ASSIGN
X1.FORMAT# IN PROCEDURE TOP$MME_IPCWDT
     12145**DCL     12159>>IF
X1.NEW_ICC.CHAN# IN PROCEDURE TOP$MME_IPCWDT
     12151**DCL     12162>>ASSIGN
X1.NEW_ICC.IOM# IN PROCEDURE TOP$MME_IPCWDT
     12150**DCL     12161>>ASSIGN
X1.OLD_ICC IN PROCEDURE TOP$MME_IPCWDT
     12146**DCL     12149--REDEF
X1.OLD_ICC.CHAN# IN PROCEDURE TOP$MME_IPCWDT
     12148**DCL     12166>>ASSIGN
X1.OLD_ICC.IOM# IN PROCEDURE TOP$MME_IPCWDT
     12147**DCL     12165>>ASSIGN
X1.FORMAT# IN PROCEDURE TOP$MME_LPWDT
     12259**DCL     12275>>IF
X1.NEW_ICC.CHAN# IN PROCEDURE TOP$MME_LPWDT
     12265**DCL     12278>>ASSIGN
X1.NEW_ICC.IOM# IN PROCEDURE TOP$MME_LPWDT
     12264**DCL     12277>>ASSIGN
X1.OLD_ICC IN PROCEDURE TOP$MME_LPWDT
     12260**DCL     12263--REDEF
X1.OLD_ICC.CHAN# IN PROCEDURE TOP$MME_LPWDT
     12262**DCL     12282>>ASSIGN
X1.OLD_ICC.IOM# IN PROCEDURE TOP$MME_LPWDT
     12261**DCL     12281>>ASSIGN
X1_REG IN PROCEDURE TOP$MME_WRDUMP
     15350**DCL     15321--PROC    16095>>IF
X2 IN PROCEDURE TOP$MME_ALLOCR
     10850**DCL     10838--PROC    10879<<ASSIGN  10888<<ASSIGN
X2 IN PROCEDURE TOP$MME_PACMAN
     12345**DCL     12332--PROC    12357>>ASSIGN  12363<>CALL    12366>>IF      12372<>CALL
PL6.E3A0      #001=TOP$POLTS File=TOP$POLTS.:E05TSI                              WED 07/30/97 06:30 Page:773
X2 IN PROCEDURE TOP$MME_SCTCMP
     13012**DCL     13007--PROC    13056<<ASSIGN  13063<<ASSIGN  13070<<ASSIGN
X2_REG IN PROCEDURE TOP$MME_WRDUMP
     15351**DCL     15321--PROC
X3 IN PROCEDURE BUILD_SCT_FICCDD
     13546**DCL     13541--PROC    13596>>ASSIGN
X3 IN PROCEDURE GET_DEVICE_CODE
     13197**DCL     13194--PROC    13479<>CALL
X3 IN PROCEDURE TOP$MME_ALLOCR
     10851**DCL     10838--PROC    10932>>ASSIGN
X3 IN PROCEDURE TOP$MME_SCTCMP
     13013**DCL     13007--PROC    13060<>CALL
X4 IN PROCEDURE SET_RETURN_VALUES
     15246**DCL     15241--PROC    15279<<ASSIGN
X4 IN PROCEDURE TOP$MME_CHANTM
     11662**DCL     11660--PROC    11669<>CALL
X4 IN PROCEDURE TOP$MME_GETCSC
     11779**DCL     11776--PROC    11791<<ASSIGN
X4 IN PROCEDURE TOP$MME_TESTIO
     14743**DCL     14733--PROC    14759<>CALL
X5 IN PROCEDURE TOP$MME_PACMAN
     12346**DCL     12332--PROC
YES_RESP IN PROCEDURE DO_YOU_WANT_A_DUMP
     15950**DCL     15972>>IF
YES_RETURN_MSG_1 IN PROCEDURE REPORT_CHANNELS
     12479**DCL     12502--ASSIGN
YES_RETURN_MSG_2 IN PROCEDURE REPORT_CHANNELS
     12481**DCL     12504--ASSIGN
PL6.E3A0      #001=TOP$POLTS File=TOP$POLTS.:E05TSI                              WED 07/30/97 06:30 Page:774
              *** CROSS REFERENCE LISTING ***
    **     DENOTES     IDENTIFIER DEFINITION
    <<                 IDENTIFIER'S VALUE SET
    >>                 IDENTIFIER'S VALUE USED
    <>                 IDENTIFIER SET AND/OR USED
    --                 IDENTIFIER REFERENCED
PL6.E3A0      #001=TOP$POLTS File=TOP$POLTS.:E05TSI                              WED 07/30/97 06:30 Page:775
              FULL UREF LISTING

A.LOWER IN PROCEDURE TOP$MME_HUNGTM
     11903**DCL
ACCOUNT_NAME.ACCT# IN PROCEDURE GET_DEVICE_CODE
     13474**DCL
B$ALT
     10194**DCL
B$ALT.BRKCNT
     10195**DCL
B$ALT.DCB#
     10195**DCL
B$ALT.ERR.CODE
     10196**DCL
B$ALT.ERR.FCG
     10196**DCL
B$ALT.ERR.MID
     10196**DCL
B$ALT.ERR.MON
     10196**DCL
B$ALT.ERR.SEV
     10196**DCL
B$ALT.EVSC
     10195**DCL
B$ALT.FPT
     10194**DCL
B$ALT.FPT.FCG
     10194**DCL
B$ALT.FPT.PMME
     10194**DCL
B$ALT.P#
     10198**DCL
B$ALT.SSFRAME
     10194**DCL
PL6.E3A0      #001=TOP$POLTS File=TOP$POLTS.:E05TSI                              WED 07/30/97 06:30 Page:776
B$ALT.SUBC
     10195**DCL
B$ALT IN PROCEDURE TOP$MME_WRDUMP
     15330**DCL
B$ALT.BRKCNT IN PROCEDURE TOP$MME_WRDUMP
     15331**DCL
B$ALT.DCB# IN PROCEDURE TOP$MME_WRDUMP
     15331**DCL
B$ALT.ERR.CODE IN PROCEDURE TOP$MME_WRDUMP
     15332**DCL
B$ALT.ERR.FCG IN PROCEDURE TOP$MME_WRDUMP
     15332**DCL
B$ALT.ERR.MID IN PROCEDURE TOP$MME_WRDUMP
     15332**DCL
B$ALT.ERR.MON IN PROCEDURE TOP$MME_WRDUMP
     15332**DCL
B$ALT.ERR.SEV IN PROCEDURE TOP$MME_WRDUMP
     15332**DCL
B$ALT.EVSC IN PROCEDURE TOP$MME_WRDUMP
     15331**DCL
B$ALT.FPT IN PROCEDURE TOP$MME_WRDUMP
     15330**DCL
B$ALT.FPT.FCG IN PROCEDURE TOP$MME_WRDUMP
     15330**DCL
B$ALT.FPT.PMME IN PROCEDURE TOP$MME_WRDUMP
     15330**DCL
B$ALT.P# IN PROCEDURE TOP$MME_WRDUMP
     15334**DCL
B$ALT.SSFRAME IN PROCEDURE TOP$MME_WRDUMP
     15330**DCL
B$ALT.SUBC IN PROCEDURE TOP$MME_WRDUMP
     15331**DCL
B$EXCFR IN PROCEDURE GET_TEST_DCB
     10979**DCL
B$EXCFR.ALTEMPTY IN PROCEDURE GET_TEST_DCB
     10979**DCL
PL6.E3A0      #001=TOP$POLTS File=TOP$POLTS.:E05TSI                              WED 07/30/97 06:30 Page:777
B$EXCFR.ASLIC IN PROCEDURE GET_TEST_DCB
     10979**DCL
B$EXCFR.ASR IN PROCEDURE GET_TEST_DCB
     10985**DCL
B$EXCFR.ASR.BASE IN PROCEDURE GET_TEST_DCB
     10986**DCL
B$EXCFR.ASR.BOUND IN PROCEDURE GET_TEST_DCB
     10985**DCL
B$EXCFR.ASR.FLAGS IN PROCEDURE GET_TEST_DCB
     10985**DCL
B$EXCFR.ASR.FLAGS.BOUND IN PROCEDURE GET_TEST_DCB
     10986**DCL
B$EXCFR.ASR.FLAGS.CACHE IN PROCEDURE GET_TEST_DCB
     10986**DCL
B$EXCFR.ASR.FLAGS.EXU IN PROCEDURE GET_TEST_DCB
     10986**DCL
B$EXCFR.ASR.FLAGS.MON IN PROCEDURE GET_TEST_DCB
     10986**DCL
B$EXCFR.ASR.FLAGS.PRIV IN PROCEDURE GET_TEST_DCB
     10986**DCL
B$EXCFR.ASR.FLAGS.READ IN PROCEDURE GET_TEST_DCB
     10985**DCL
B$EXCFR.ASR.FLAGS.SAVE IN PROCEDURE GET_TEST_DCB
     10985**DCL
B$EXCFR.ASR.FLAGS.SEGMENT IN PROCEDURE GET_TEST_DCB
     10986**DCL
B$EXCFR.ASR.FLAGS.WRITE IN PROCEDURE GET_TEST_DCB
     10985**DCL
B$EXCFR.ASR.TYPE IN PROCEDURE GET_TEST_DCB
     10986**DCL
B$EXCFR.ASR.WSR IN PROCEDURE GET_TEST_DCB
     10986**DCL
B$EXCFR.BRKCNT IN PROCEDURE GET_TEST_DCB
     10993**DCL
B$EXCFR.CODE IN PROCEDURE GET_TEST_DCB
     10992**DCL
PL6.E3A0      #001=TOP$POLTS File=TOP$POLTS.:E05TSI                              WED 07/30/97 06:30 Page:778
B$EXCFR.CP# IN PROCEDURE GET_TEST_DCB
     10982**DCL
B$EXCFR.DCB# IN PROCEDURE GET_TEST_DCB
     10992**DCL
B$EXCFR.DRS IN PROCEDURE GET_TEST_DCB
     10990**DCL
B$EXCFR.DSAR IN PROCEDURE GET_TEST_DCB
     10983**DCL
B$EXCFR.ECC IN PROCEDURE GET_TEST_DCB
     10979**DCL
B$EXCFR.EIS IN PROCEDURE GET_TEST_DCB
     10991**DCL
B$EXCFR.ERR.CODE IN PROCEDURE GET_TEST_DCB
     10993**DCL
B$EXCFR.ERR.FCG IN PROCEDURE GET_TEST_DCB
     10993**DCL
B$EXCFR.ERR.MID IN PROCEDURE GET_TEST_DCB
     10993**DCL
B$EXCFR.ERR.MON IN PROCEDURE GET_TEST_DCB
     10993**DCL
B$EXCFR.ERR.SEV IN PROCEDURE GET_TEST_DCB
     10994**DCL
B$EXCFR.EVSC IN PROCEDURE GET_TEST_DCB
     10991**DCL
B$EXCFR.EWSQ# IN PROCEDURE GET_TEST_DCB
     10983**DCL
B$EXCFR.FCODE IN PROCEDURE GET_TEST_DCB
     10982**DCL
B$EXCFR.FI IN PROCEDURE GET_TEST_DCB
     10982**DCL
B$EXCFR.FPT IN PROCEDURE GET_TEST_DCB
     10992**DCL
B$EXCFR.FPT.FCG IN PROCEDURE GET_TEST_DCB
     10992**DCL
B$EXCFR.FPT.PMME IN PROCEDURE GET_TEST_DCB
     10992**DCL
PL6.E3A0      #001=TOP$POLTS File=TOP$POLTS.:E05TSI                              WED 07/30/97 06:30 Page:779
B$EXCFR.IC IN PROCEDURE GET_TEST_DCB
     10980**DCL
B$EXCFR.INST IN PROCEDURE GET_TEST_DCB
     10980**DCL
B$EXCFR.INST.EVEN IN PROCEDURE GET_TEST_DCB
     10980**DCL
B$EXCFR.INST.ODD IN PROCEDURE GET_TEST_DCB
     10980**DCL
B$EXCFR.IRBIT IN PROCEDURE GET_TEST_DCB
     10980**DCL
B$EXCFR.IRBIT.CARRY IN PROCEDURE GET_TEST_DCB
     10981**DCL
B$EXCFR.IRBIT.EXOF IN PROCEDURE GET_TEST_DCB
     10981**DCL
B$EXCFR.IRBIT.EXUF IN PROCEDURE GET_TEST_DCB
     10981**DCL
B$EXCFR.IRBIT.EXUFM IN PROCEDURE GET_TEST_DCB
     10982**DCL
B$EXCFR.IRBIT.HEX IN PROCEDURE GET_TEST_DCB
     10982**DCL
B$EXCFR.IRBIT.MIR IN PROCEDURE GET_TEST_DCB
     10981**DCL
B$EXCFR.IRBIT.MM IN PROCEDURE GET_TEST_DCB
     10981**DCL
B$EXCFR.IRBIT.NEG IN PROCEDURE GET_TEST_DCB
     10980**DCL
B$EXCFR.IRBIT.OF IN PROCEDURE GET_TEST_DCB
     10981**DCL
B$EXCFR.IRBIT.OFM IN PROCEDURE GET_TEST_DCB
     10981**DCL
B$EXCFR.IRBIT.PE IN PROCEDURE GET_TEST_DCB
     10981**DCL
B$EXCFR.IRBIT.PM IN PROCEDURE GET_TEST_DCB
     10981**DCL
B$EXCFR.IRBIT.TR IN PROCEDURE GET_TEST_DCB
     10981**DCL
PL6.E3A0      #001=TOP$POLTS File=TOP$POLTS.:E05TSI                              WED 07/30/97 06:30 Page:780
B$EXCFR.IRBIT.TRC IN PROCEDURE GET_TEST_DCB
     10981**DCL
B$EXCFR.IRBIT.ZERO IN PROCEDURE GET_TEST_DCB
     10980**DCL
B$EXCFR.ISR IN PROCEDURE GET_TEST_DCB
     10983**DCL
B$EXCFR.ISR.BASE IN PROCEDURE GET_TEST_DCB
     10985**DCL
B$EXCFR.ISR.BOUND IN PROCEDURE GET_TEST_DCB
     10983**DCL
B$EXCFR.ISR.FLAGS IN PROCEDURE GET_TEST_DCB
     10983**DCL
B$EXCFR.ISR.FLAGS.BOUND IN PROCEDURE GET_TEST_DCB
     10984**DCL
B$EXCFR.ISR.FLAGS.CACHE IN PROCEDURE GET_TEST_DCB
     10984**DCL
B$EXCFR.ISR.FLAGS.EXU IN PROCEDURE GET_TEST_DCB
     10984**DCL
B$EXCFR.ISR.FLAGS.MON IN PROCEDURE GET_TEST_DCB
     10984**DCL
B$EXCFR.ISR.FLAGS.PRIV IN PROCEDURE GET_TEST_DCB
     10984**DCL
B$EXCFR.ISR.FLAGS.READ IN PROCEDURE GET_TEST_DCB
     10984**DCL
B$EXCFR.ISR.FLAGS.SAVE IN PROCEDURE GET_TEST_DCB
     10984**DCL
B$EXCFR.ISR.FLAGS.SEGMENT IN PROCEDURE GET_TEST_DCB
     10984**DCL
B$EXCFR.ISR.FLAGS.WRITE IN PROCEDURE GET_TEST_DCB
     10984**DCL
B$EXCFR.ISR.TYPE IN PROCEDURE GET_TEST_DCB
     10985**DCL
B$EXCFR.ISR.WSR IN PROCEDURE GET_TEST_DCB
     10985**DCL
B$EXCFR.IS_SEGID IN PROCEDURE GET_TEST_DCB
     10983**DCL
PL6.E3A0      #001=TOP$POLTS File=TOP$POLTS.:E05TSI                              WED 07/30/97 06:30 Page:781
B$EXCFR.LSR IN PROCEDURE GET_TEST_DCB
     10987**DCL
B$EXCFR.LSR.BASE IN PROCEDURE GET_TEST_DCB
     10988**DCL
B$EXCFR.LSR.BOUND IN PROCEDURE GET_TEST_DCB
     10987**DCL
B$EXCFR.LSR.FLAGS IN PROCEDURE GET_TEST_DCB
     10987**DCL
B$EXCFR.LSR.FLAGS.BOUND IN PROCEDURE GET_TEST_DCB
     10988**DCL
B$EXCFR.LSR.FLAGS.CACHE IN PROCEDURE GET_TEST_DCB
     10987**DCL
B$EXCFR.LSR.FLAGS.EXU IN PROCEDURE GET_TEST_DCB
     10987**DCL
B$EXCFR.LSR.FLAGS.MON IN PROCEDURE GET_TEST_DCB
     10987**DCL
B$EXCFR.LSR.FLAGS.PRIV IN PROCEDURE GET_TEST_DCB
     10987**DCL
B$EXCFR.LSR.FLAGS.READ IN PROCEDURE GET_TEST_DCB
     10987**DCL
B$EXCFR.LSR.FLAGS.SAVE IN PROCEDURE GET_TEST_DCB
     10987**DCL
B$EXCFR.LSR.FLAGS.SEGMENT IN PROCEDURE GET_TEST_DCB
     10988**DCL
B$EXCFR.LSR.FLAGS.WRITE IN PROCEDURE GET_TEST_DCB
     10987**DCL
B$EXCFR.LSR.TYPE IN PROCEDURE GET_TEST_DCB
     10988**DCL
B$EXCFR.LSR.WSR IN PROCEDURE GET_TEST_DCB
     10988**DCL
B$EXCFR.P# IN PROCEDURE GET_TEST_DCB
     10994**DCL
B$EXCFR.PRS IN PROCEDURE GET_TEST_DCB
     10990**DCL
B$EXCFR.PSR IN PROCEDURE GET_TEST_DCB
     10988**DCL
PL6.E3A0      #001=TOP$POLTS File=TOP$POLTS.:E05TSI                              WED 07/30/97 06:30 Page:782
B$EXCFR.PSR.BASE IN PROCEDURE GET_TEST_DCB
     10990**DCL
B$EXCFR.PSR.BOUND IN PROCEDURE GET_TEST_DCB
     10988**DCL
B$EXCFR.PSR.FLAGS IN PROCEDURE GET_TEST_DCB
     10988**DCL
B$EXCFR.PSR.FLAGS.BOUND IN PROCEDURE GET_TEST_DCB
     10989**DCL
B$EXCFR.PSR.FLAGS.CACHE IN PROCEDURE GET_TEST_DCB
     10989**DCL
B$EXCFR.PSR.FLAGS.EXU IN PROCEDURE GET_TEST_DCB
     10989**DCL
B$EXCFR.PSR.FLAGS.MON IN PROCEDURE GET_TEST_DCB
     10989**DCL
B$EXCFR.PSR.FLAGS.PRIV IN PROCEDURE GET_TEST_DCB
     10989**DCL
B$EXCFR.PSR.FLAGS.READ IN PROCEDURE GET_TEST_DCB
     10988**DCL
B$EXCFR.PSR.FLAGS.SAVE IN PROCEDURE GET_TEST_DCB
     10989**DCL
B$EXCFR.PSR.FLAGS.SEGMENT IN PROCEDURE GET_TEST_DCB
     10989**DCL
B$EXCFR.PSR.FLAGS.WRITE IN PROCEDURE GET_TEST_DCB
     10989**DCL
B$EXCFR.PSR.TYPE IN PROCEDURE GET_TEST_DCB
     10990**DCL
B$EXCFR.PSR.WSR IN PROCEDURE GET_TEST_DCB
     10989**DCL
B$EXCFR.REGS IN PROCEDURE GET_TEST_DCB
     10990**DCL
B$EXCFR.REGS.A IN PROCEDURE GET_TEST_DCB
     10990**DCL
B$EXCFR.REGS.E IN PROCEDURE GET_TEST_DCB
     10991**DCL
B$EXCFR.REGS.Q IN PROCEDURE GET_TEST_DCB
     10990**DCL
PL6.E3A0      #001=TOP$POLTS File=TOP$POLTS.:E05TSI                              WED 07/30/97 06:30 Page:783
B$EXCFR.REGS.XREG IN PROCEDURE GET_TEST_DCB
     10990**DCL
B$EXCFR.RVA IN PROCEDURE GET_TEST_DCB
     10983**DCL
B$EXCFR.SCR IN PROCEDURE GET_TEST_DCB
     10983**DCL
B$EXCFR.SSF IN PROCEDURE GET_TEST_DCB
     10982**DCL
B$EXCFR.U1 IN PROCEDURE GET_TEST_DCB
     10991**DCL
B$JIT
       382**DCL
B$JIT.ACCEPT_FLAGS
       535**DCL
B$JIT.ACCEPT_FLAGS.ANNOUNCE
       535**DCL
B$JIT.ACCEPT_FLAGS.BROADCAST
       535**DCL
B$JIT.ACCEPT_FLAGS.SEND
       535**DCL
B$JIT.ACCESS
       655**DCL
B$JIT.ACCESS.FORMS
       655**DCL
B$JIT.ACCESS.PACKS
       655**DCL
B$JIT.ACCESS.TAPES
       655**DCL
B$JIT.ACCN
       387**DCL
B$JIT.APATTR
       660**DCL
B$JIT.ARECX
       655**DCL
B$JIT.BILL
       535**DCL
PL6.E3A0      #001=TOP$POLTS File=TOP$POLTS.:E05TSI                              WED 07/30/97 06:30 Page:784
B$JIT.BLINDACCTNG
       535**DCL
B$JIT.BUDLIM
       524**DCL
B$JIT.CALCNT
       561**DCL
B$JIT.CCARS
       475**DCL
B$JIT.CCBUF
       475**DCL
B$JIT.CCDISP
       475**DCL
B$JIT.CHECK_CFU
       557**DCL
B$JIT.CLRES
       654**DCL
B$JIT.CPFLAGS1
       476**DCL
B$JIT.CPFLAGS1.BRK
       480**DCL
B$JIT.CPFLAGS1.BUFFULL
       480**DCL
B$JIT.CPFLAGS1.CFREAD
       480**DCL
B$JIT.CPFLAGS1.DELTA
       481**DCL
B$JIT.CPFLAGS1.DONTRFEXT3
       477**DCL
B$JIT.CPFLAGS1.DRIBBLE
       479**DCL
B$JIT.CPFLAGS1.ECHO
       480**DCL
B$JIT.CPFLAGS1.ECHO_LINK
       477**DCL
B$JIT.CPFLAGS1.EXIT#
       479**DCL
PL6.E3A0      #001=TOP$POLTS File=TOP$POLTS.:E05TSI                              WED 07/30/97 06:30 Page:785
B$JIT.CPFLAGS1.FIRSTCP
       478**DCL
B$JIT.CPFLAGS1.INITIALIZE
       479**DCL
B$JIT.CPFLAGS1.JSTEP
       476**DCL
B$JIT.CPFLAGS1.KEEPDS
       479**DCL
B$JIT.CPFLAGS1.LASTCP
       478**DCL
B$JIT.CPFLAGS1.LASTCPEXISTS
       478**DCL
B$JIT.CPFLAGS1.LNKPMME
       477**DCL
B$JIT.CPFLAGS1.LOGOFF
       476**DCL
B$JIT.CPFLAGS1.NOTIFY
       479**DCL
B$JIT.CPFLAGS1.PROCACCT
       479**DCL
B$JIT.CPFLAGS1.PROTECT
       480**DCL
B$JIT.CPFLAGS1.RUND
       476**DCL
B$JIT.CPFLAGS1.SCREECH
       480**DCL
B$JIT.CPFLAGS1.SKIPABORT
       479**DCL
B$JIT.CPFLAGS1.SOMENOTIFY
       478**DCL
B$JIT.CPFLAGS1.SSTART
       477**DCL
B$JIT.CPFLAGS1.STARPROC
       478**DCL
B$JIT.CPFLAGS1.STARSACC
       478**DCL
PL6.E3A0      #001=TOP$POLTS File=TOP$POLTS.:E05TSI                              WED 07/30/97 06:30 Page:786
B$JIT.CPFLAGS1.STEPACCT
       480**DCL
B$JIT.CPFLAGS1.STEPLMT
       480**DCL
B$JIT.CPFLAGS1.TESTMODE
       478**DCL
B$JIT.CPFLAGS1.TRMNATE
       479**DCL
B$JIT.CPFLAGS1.WHEN_INPUT
       477**DCL
B$JIT.CPFLAGS1.YC
       476**DCL
B$JIT.CPFLAGS1.YCGET
       477**DCL
B$JIT.CPFLAGS1.YCPMME
       477**DCL
B$JIT.CSLEV
       542**DCL
B$JIT.CTIME
       560**DCL
B$JIT.CURPNUM
       641**DCL
B$JIT.CURRCORE
       549**DCL
B$JIT.CURSUDO
       656**DCL
B$JIT.CURTMPDP
       556**DCL
B$JIT.DCB$
       555**DCL
B$JIT.DCBNO
       468**DCL
B$JIT.DDLL
       545**DCL
B$JIT.DDUL
       545**DCL
PL6.E3A0      #001=TOP$POLTS File=TOP$POLTS.:E05TSI                              WED 07/30/97 06:30 Page:787
B$JIT.DEFEXP
       555**DCL
B$JIT.DEFPRI
       535**DCL
B$JIT.DLL
       545**DCL
B$JIT.DO$
       555**DCL
B$JIT.DUL
       545**DCL
B$JIT.ENQS
       660**DCL
B$JIT.ERR
       387**DCL
B$JIT.ERR.CODE
       388**DCL
B$JIT.ERR.FCG
       387**DCL
B$JIT.ERR.MON
       388**DCL
B$JIT.ERR.SEV
       388**DCL
B$JIT.ERR.UMID
       388**DCL
B$JIT.EUP
       547**DCL
B$JIT.EXTUS
       563**DCL
B$JIT.FACNACS
       555**DCL
B$JIT.FACNCM
       557**DCL
B$JIT.FBUC
       547**DCL
B$JIT.FBUL
       547**DCL
PL6.E3A0      #001=TOP$POLTS File=TOP$POLTS.:E05TSI                              WED 07/30/97 06:30 Page:788
B$JIT.FEXT
       555**DCL
B$JIT.FPSN
       468**DCL
B$JIT.FRS
       583**DCL
B$JIT.GAC
       556**DCL
B$JIT.HIGHPNUM
       641**DCL
B$JIT.HPSN
       555**DCL
B$JIT.IDELTAT
       561**DCL
B$JIT.INSTWORD
       475**DCL
B$JIT.INTER
       654**DCL
B$JIT.INTTIME
       560**DCL
B$JIT.JOBNAME
       536**DCL
B$JIT.JOBUNIT
       476**DCL
B$JIT.JORG
       523**DCL
B$JIT.JPEAK
       549**DCL
B$JIT.JSLEV
       524**DCL
B$JIT.JTMPDPPK
       556**DCL
B$JIT.JUNK
       587**DCL
B$JIT.JUNK2
       641**DCL
PL6.E3A0      #001=TOP$POLTS File=TOP$POLTS.:E05TSI                              WED 07/30/97 06:30 Page:789
B$JIT.LANG
       523**DCL
B$JIT.LBJID
       563**DCL
B$JIT.LLL
       551**DCL
B$JIT.LNKCNT
       587**DCL
B$JIT.LOCK
       536**DCL
B$JIT.LOGONTIME
       524**DCL
B$JIT.LUL
       551**DCL
B$JIT.MAXCORE
       548**DCL
B$JIT.MAXENQ
       660**DCL
B$JIT.MAXEXP
       555**DCL
B$JIT.MAXPRI
       535**DCL
B$JIT.MAXTMPDP
       556**DCL
B$JIT.MMFLGS
       548**DCL
B$JIT.MMFLGS.FREE_PPGS
       548**DCL
B$JIT.MODE
       382**DCL
B$JIT.MOUNTS
       655**DCL
B$JIT.MRT
       561**DCL
B$JIT.MSGID
       536**DCL
PL6.E3A0      #001=TOP$POLTS File=TOP$POLTS.:E05TSI                              WED 07/30/97 06:30 Page:790
B$JIT.MSGID.PRIMARY
       536**DCL
B$JIT.MSGID.XT
       537**DCL
B$JIT.NEXTCC
       529**DCL
B$JIT.NODOEVER
       654**DCL
B$JIT.NOLOEVER
       654**DCL
B$JIT.NOPOEVER
       654**DCL
B$JIT.NUTS
       562**DCL
B$JIT.OLTA
       655**DCL
B$JIT.ORIGINATOR_MODE
       654**DCL
B$JIT.ORIGINATOR_PORT
       657**DCL
B$JIT.ORIGINATOR_PORT.FROM_CR.DEVICE
       658**DCL
B$JIT.ORIGINATOR_PORT.FROM_CR.TNAME
       658**DCL
B$JIT.ORIGINATOR_PORT.FROM_GHOST
       658**DCL
B$JIT.ORIGINATOR_PORT.FROM_GHOST.SYSID
       658**DCL
B$JIT.ORIGINATOR_PORT.FROM_INT
       659**DCL
B$JIT.ORIGINATOR_PORT.FROM_INT.SYSID
       659**DCL
B$JIT.ORIGINATOR_PORT.FROM_INT.TSLINE
       659**DCL
B$JIT.OUTPRIO
       468**DCL
PL6.E3A0      #001=TOP$POLTS File=TOP$POLTS.:E05TSI                              WED 07/30/97 06:30 Page:791
B$JIT.PCADS
       551**DCL
B$JIT.PCC
       546**DCL
B$JIT.PCD
       546**DCL
B$JIT.PCDD
       547**DCL
B$JIT.PCDDS
       550**DCL
B$JIT.PCDS
       546**DCL
B$JIT.PCL
       551**DCL
B$JIT.PCP
       546**DCL
B$JIT.PCROS
       546**DCL
B$JIT.PCV
       551**DCL
B$JIT.PLL
       545**DCL
B$JIT.PMEMTIM
       561**DCL
B$JIT.PMME_COUNT
       659**DCL
B$JIT.PMME_DATA
       659**DCL
B$JIT.PMME_DATA.CPU
       659**DCL
B$JIT.PMME_DATA.I_O
       659**DCL
B$JIT.PMME_DATA.MISC1
       659**DCL
B$JIT.PMME_DATA.MISC2
       660**DCL
PL6.E3A0      #001=TOP$POLTS File=TOP$POLTS.:E05TSI                              WED 07/30/97 06:30 Page:792
B$JIT.PPC
       548**DCL
B$JIT.PPRIV
       443**DCL
B$JIT.PPRIV.CNTRLC
       443**DCL
B$JIT.PPRIV.CNTRLD
       443**DCL
B$JIT.PPRIV.EFT
       443**DCL
B$JIT.PPRIV.EL
       443**DCL
B$JIT.PPRIV.LABEL
       444**DCL
B$JIT.PPRIV.NETCON
       444**DCL
B$JIT.PPRIV.PADMIN
       445**DCL
B$JIT.PPRIV.PIGC
       444**DCL
B$JIT.PPRIV.PIGD
       444**DCL
B$JIT.PPRIV.PIGETTE
       446**DCL
B$JIT.PPRIV.RATES
       445**DCL
B$JIT.PPRIV.REPLAY
       445**DCL
B$JIT.PPRIV.SPIDERC
       444**DCL
B$JIT.PPRIV.SPIDERD
       444**DCL
B$JIT.PPRIV.SUPER
       444**DCL
B$JIT.PPRIV.SUPERAUTH
       444**DCL
PL6.E3A0      #001=TOP$POLTS File=TOP$POLTS.:E05TSI                              WED 07/30/97 06:30 Page:793
B$JIT.PPRIV.SUPERD
       445**DCL
B$JIT.PPRIV.SUPERFORM
       445**DCL
B$JIT.PPRIV.SUPERWSN
       445**DCL
B$JIT.PPRIV.SYSCON
       445**DCL
B$JIT.PPRIV.VOLINIT
       445**DCL
B$JIT.PRDPRM
       556**DCL
B$JIT.PRFLAGS
       471**DCL
B$JIT.PRFLAGS.COMMENT
       471**DCL
B$JIT.PRFLAGS.CONTINUED
       471**DCL
B$JIT.PRFLAGS.CORRECT
       472**DCL
B$JIT.PRFLAGS.EXPOUND
       472**DCL
B$JIT.PRFLAGS.LIST
       471**DCL
B$JIT.PRFLAGS.LS
       471**DCL
B$JIT.PRFLAGS.NOSCAN
       472**DCL
B$JIT.PRFLAGS.NSSYNTAX
       471**DCL
B$JIT.PRFLAGS.OU
       471**DCL
B$JIT.PRFLAGS.OUTPUT
       471**DCL
B$JIT.PRFLAGS.POINT
       472**DCL
PL6.E3A0      #001=TOP$POLTS File=TOP$POLTS.:E05TSI                              WED 07/30/97 06:30 Page:794
B$JIT.PRFLAGS.POSITION
       472**DCL
B$JIT.PRFLAGS.SI
       471**DCL
B$JIT.PRFLAGS.UI
       471**DCL
B$JIT.PRFLAGS.WHEN
       472**DCL
B$JIT.PRIINC
       562**DCL
B$JIT.PRIOB
       560**DCL
B$JIT.PRIOCORE
       548**DCL
B$JIT.PRIOR_CP
       651**DCL
B$JIT.PRIV
       388**DCL
B$JIT.PRIV.ACTIVE
       388**DCL
B$JIT.PRIV.ACTIVE.ASAVE
       390**DCL
B$JIT.PRIV.ACTIVE.CFEP
       391**DCL
B$JIT.PRIV.ACTIVE.CQ
       391**DCL
B$JIT.PRIV.ACTIVE.DISPJOB
       390**DCL
B$JIT.PRIV.ACTIVE.DOMANE
       389**DCL
B$JIT.PRIV.ACTIVE.EXMM
       392**DCL
B$JIT.PRIV.ACTIVE.EXPM
       391**DCL
B$JIT.PRIV.ACTIVE.FMBLK
       388**DCL
PL6.E3A0      #001=TOP$POLTS File=TOP$POLTS.:E05TSI                              WED 07/30/97 06:30 Page:795
B$JIT.PRIV.ACTIVE.FMDIAG
       389**DCL
B$JIT.PRIV.ACTIVE.FMEFT
       388**DCL
B$JIT.PRIV.ACTIVE.FMREAD
       389**DCL
B$JIT.PRIV.ACTIVE.FMSEC
       389**DCL
B$JIT.PRIV.ACTIVE.GPP
       390**DCL
B$JIT.PRIV.ACTIVE.INTCON
       391**DCL
B$JIT.PRIV.ACTIVE.IOQ
       391**DCL
B$JIT.PRIV.ACTIVE.IOQW
       391**DCL
B$JIT.PRIV.ACTIVE.JIT
       392**DCL
B$JIT.PRIV.ACTIVE.MAXMEM
       392**DCL
B$JIT.PRIV.ACTIVE.MFEP
       391**DCL
B$JIT.PRIV.ACTIVE.MODE
       389**DCL
B$JIT.PRIV.ACTIVE.MSYS
       392**DCL
B$JIT.PRIV.ACTIVE.PM
       391**DCL
B$JIT.PRIV.ACTIVE.SCREECH
       390**DCL
B$JIT.PRIV.ACTIVE.SNAP
       390**DCL
B$JIT.PRIV.ACTIVE.SPCLMM
       392**DCL
B$JIT.PRIV.ACTIVE.SYSACCT
       389**DCL
PL6.E3A0      #001=TOP$POLTS File=TOP$POLTS.:E05TSI                              WED 07/30/97 06:30 Page:796
B$JIT.PRIV.ACTIVE.SYSCON
       390**DCL
B$JIT.PRIV.ACTIVE.SYSLOG
       391**DCL
B$JIT.PRIV.ACTIVE.TND
       391**DCL
B$JIT.PRIV.AUTH
       428**DCL
B$JIT.PRIV.AUTH.ASAVE
       429**DCL
B$JIT.PRIV.AUTH.CFEP
       430**DCL
B$JIT.PRIV.AUTH.CQ
       430**DCL
B$JIT.PRIV.AUTH.DISPJOB
       429**DCL
B$JIT.PRIV.AUTH.DOMANE
       428**DCL
B$JIT.PRIV.AUTH.EXMM
       431**DCL
B$JIT.PRIV.AUTH.EXPM
       430**DCL
B$JIT.PRIV.AUTH.FMBLK
       428**DCL
B$JIT.PRIV.AUTH.FMDIAG
       428**DCL
B$JIT.PRIV.AUTH.FMEFT
       428**DCL
B$JIT.PRIV.AUTH.FMREAD
       428**DCL
B$JIT.PRIV.AUTH.FMSEC
       428**DCL
B$JIT.PRIV.AUTH.GPP
       430**DCL
B$JIT.PRIV.AUTH.INTCON
       430**DCL
PL6.E3A0      #001=TOP$POLTS File=TOP$POLTS.:E05TSI                              WED 07/30/97 06:30 Page:797
B$JIT.PRIV.AUTH.IOQ
       430**DCL
B$JIT.PRIV.AUTH.IOQW
       430**DCL
B$JIT.PRIV.AUTH.JIT
       431**DCL
B$JIT.PRIV.AUTH.MAXMEM
       431**DCL
B$JIT.PRIV.AUTH.MFEP
       430**DCL
B$JIT.PRIV.AUTH.MODE
       428**DCL
B$JIT.PRIV.AUTH.MSYS
       431**DCL
B$JIT.PRIV.AUTH.PM
       431**DCL
B$JIT.PRIV.AUTH.SCREECH
       429**DCL
B$JIT.PRIV.AUTH.SNAP
       429**DCL
B$JIT.PRIV.AUTH.SPCLMM
       431**DCL
B$JIT.PRIV.AUTH.SYSACCT
       428**DCL
B$JIT.PRIV.AUTH.SYSCON
       429**DCL
B$JIT.PRIV.AUTH.SYSLOG
       430**DCL
B$JIT.PRIV.AUTH.TND
       431**DCL
B$JIT.PRIV.JOB
       431**DCL
B$JIT.PRIV.JOB.ASAVE
       433**DCL
B$JIT.PRIV.JOB.CFEP
       434**DCL
PL6.E3A0      #001=TOP$POLTS File=TOP$POLTS.:E05TSI                              WED 07/30/97 06:30 Page:798
B$JIT.PRIV.JOB.CQ
       434**DCL
B$JIT.PRIV.JOB.DISPJOB
       433**DCL
B$JIT.PRIV.JOB.DOMANE
       432**DCL
B$JIT.PRIV.JOB.EXMM
       435**DCL
B$JIT.PRIV.JOB.EXPM
       434**DCL
B$JIT.PRIV.JOB.FMBLK
       432**DCL
B$JIT.PRIV.JOB.FMDIAG
       432**DCL
B$JIT.PRIV.JOB.FMEFT
       431**DCL
B$JIT.PRIV.JOB.FMREAD
       432**DCL
B$JIT.PRIV.JOB.FMSEC
       432**DCL
B$JIT.PRIV.JOB.GPP
       433**DCL
B$JIT.PRIV.JOB.INTCON
       434**DCL
B$JIT.PRIV.JOB.IOQ
       434**DCL
B$JIT.PRIV.JOB.IOQW
       434**DCL
B$JIT.PRIV.JOB.JIT
       435**DCL
B$JIT.PRIV.JOB.MAXMEM
       435**DCL
B$JIT.PRIV.JOB.MFEP
       434**DCL
B$JIT.PRIV.JOB.MODE
       432**DCL
PL6.E3A0      #001=TOP$POLTS File=TOP$POLTS.:E05TSI                              WED 07/30/97 06:30 Page:799
B$JIT.PRIV.JOB.MSYS
       435**DCL
B$JIT.PRIV.JOB.PM
       434**DCL
B$JIT.PRIV.JOB.SCREECH
       433**DCL
B$JIT.PRIV.JOB.SNAP
       433**DCL
B$JIT.PRIV.JOB.SPCLMM
       435**DCL
B$JIT.PRIV.JOB.SYSACCT
       432**DCL
B$JIT.PRIV.JOB.SYSCON
       433**DCL
B$JIT.PRIV.JOB.SYSLOG
       434**DCL
B$JIT.PRIV.JOB.TND
       435**DCL
B$JIT.PRIV.PRC
       435**DCL
B$JIT.PRIV.PRC.ASAVE
       437**DCL
B$JIT.PRIV.PRC.CFEP
       438**DCL
B$JIT.PRIV.PRC.CQ
       438**DCL
B$JIT.PRIV.PRC.DISPJOB
       437**DCL
B$JIT.PRIV.PRC.DOMANE
       436**DCL
B$JIT.PRIV.PRC.EXMM
       439**DCL
B$JIT.PRIV.PRC.EXPM
       438**DCL
B$JIT.PRIV.PRC.FMBLK
       435**DCL
PL6.E3A0      #001=TOP$POLTS File=TOP$POLTS.:E05TSI                              WED 07/30/97 06:30 Page:800
B$JIT.PRIV.PRC.FMDIAG
       436**DCL
B$JIT.PRIV.PRC.FMEFT
       435**DCL
B$JIT.PRIV.PRC.FMREAD
       436**DCL
B$JIT.PRIV.PRC.FMSEC
       436**DCL
B$JIT.PRIV.PRC.GPP
       437**DCL
B$JIT.PRIV.PRC.INTCON
       438**DCL
B$JIT.PRIV.PRC.IOQ
       438**DCL
B$JIT.PRIV.PRC.IOQW
       438**DCL
B$JIT.PRIV.PRC.JIT
       439**DCL
B$JIT.PRIV.PRC.MAXMEM
       439**DCL
B$JIT.PRIV.PRC.MFEP
       438**DCL
B$JIT.PRIV.PRC.MODE
       436**DCL
B$JIT.PRIV.PRC.MSYS
       439**DCL
B$JIT.PRIV.PRC.PM
       438**DCL
B$JIT.PRIV.PRC.SCREECH
       437**DCL
B$JIT.PRIV.PRC.SNAP
       437**DCL
B$JIT.PRIV.PRC.SPCLMM
       439**DCL
B$JIT.PRIV.PRC.SYSACCT
       436**DCL
PL6.E3A0      #001=TOP$POLTS File=TOP$POLTS.:E05TSI                              WED 07/30/97 06:30 Page:801
B$JIT.PRIV.PRC.SYSCON
       437**DCL
B$JIT.PRIV.PRC.SYSLOG
       437**DCL
B$JIT.PRIV.PRC.TND
       438**DCL
B$JIT.PRIV.SAVED
       439**DCL
B$JIT.PRIV.SAVED.ASAVE
       441**DCL
B$JIT.PRIV.SAVED.CFEP
       442**DCL
B$JIT.PRIV.SAVED.CQ
       442**DCL
B$JIT.PRIV.SAVED.DISPJOB
       441**DCL
B$JIT.PRIV.SAVED.DOMANE
       440**DCL
B$JIT.PRIV.SAVED.EXMM
       443**DCL
B$JIT.PRIV.SAVED.EXPM
       442**DCL
B$JIT.PRIV.SAVED.FMBLK
       439**DCL
B$JIT.PRIV.SAVED.FMDIAG
       440**DCL
B$JIT.PRIV.SAVED.FMEFT
       439**DCL
B$JIT.PRIV.SAVED.FMREAD
       440**DCL
B$JIT.PRIV.SAVED.FMSEC
       439**DCL
B$JIT.PRIV.SAVED.GPP
       441**DCL
B$JIT.PRIV.SAVED.INTCON
       442**DCL
PL6.E3A0      #001=TOP$POLTS File=TOP$POLTS.:E05TSI                              WED 07/30/97 06:30 Page:802
B$JIT.PRIV.SAVED.IOQ
       442**DCL
B$JIT.PRIV.SAVED.IOQW
       442**DCL
B$JIT.PRIV.SAVED.JIT
       442**DCL
B$JIT.PRIV.SAVED.MAXMEM
       443**DCL
B$JIT.PRIV.SAVED.MFEP
       442**DCL
B$JIT.PRIV.SAVED.MODE
       440**DCL
B$JIT.PRIV.SAVED.MSYS
       443**DCL
B$JIT.PRIV.SAVED.PM
       442**DCL
B$JIT.PRIV.SAVED.SCREECH
       441**DCL
B$JIT.PRIV.SAVED.SNAP
       441**DCL
B$JIT.PRIV.SAVED.SPCLMM
       443**DCL
B$JIT.PRIV.SAVED.SYSACCT
       440**DCL
B$JIT.PRIV.SAVED.SYSCON
       441**DCL
B$JIT.PRIV.SAVED.SYSLOG
       441**DCL
B$JIT.PRIV.SAVED.TND
       442**DCL
B$JIT.PROG_ENTRY
       537**DCL
B$JIT.PROMPTS
       536**DCL
B$JIT.PSEUDOPGS
       550**DCL
PL6.E3A0      #001=TOP$POLTS File=TOP$POLTS.:E05TSI                              WED 07/30/97 06:30 Page:803
B$JIT.PSEUDO_COUNT
       651**DCL
B$JIT.PSEUDO_TEXT
       651**DCL
B$JIT.PSLEV
       524**DCL
B$JIT.PTSIZ
       551**DCL
B$JIT.PUL
       545**DCL
B$JIT.QUAN
       560**DCL
B$JIT.REMCPO
       660**DCL
B$JIT.REMDO
       660**DCL
B$JIT.REMLO
       660**DCL
B$JIT.RERUN
       562**DCL
B$JIT.RESCORE
       656**DCL
B$JIT.RESPEAK
       550**DCL
B$JIT.RNST
       566**DCL
B$JIT.RUNFLAGS
       583**DCL
B$JIT.SAVEDCB$
       557**DCL
B$JIT.SCHTIME
       560**DCL
B$JIT.SINPUTSZ
       536**DCL
B$JIT.SPEAK
       549**DCL
PL6.E3A0      #001=TOP$POLTS File=TOP$POLTS.:E05TSI                              WED 07/30/97 06:30 Page:804
B$JIT.SRESPEAK
       550**DCL
B$JIT.SSLEV
       524**DCL
B$JIT.STAR
       555**DCL
B$JIT.STAR.DA
       555**DCL
B$JIT.STDLOPGS
       655**DCL
B$JIT.STEPCC
       614**DCL
B$JIT.STEPS
       608**DCL
B$JIT.STEPUNIT
       476**DCL
B$JIT.STIME
       560**DCL
B$JIT.STMPDPPK
       556**DCL
B$JIT.SVLDTF
       628**DCL
B$JIT.SVTUS
       563**DCL
B$JIT.SWITCH
       475**DCL
B$JIT.SYSID
       387**DCL
B$JIT.TMPGAC
       556**DCL
B$JIT.TMPGAC.N
       556**DCL
B$JIT.TMPGAC.TIME
       556**DCL
B$JIT.TPEXT
       561**DCL
PL6.E3A0      #001=TOP$POLTS File=TOP$POLTS.:E05TSI                              WED 07/30/97 06:30 Page:805
B$JIT.TPSVT
       561**DCL
B$JIT.TSLINE.FEX
       656**DCL
B$JIT.TSLINE.LEV
       657**DCL
B$JIT.TSLINE.PORT
       656**DCL
B$JIT.TSLINE.SPEED
       656**DCL
B$JIT.TSLINE.SUBDEVICE
       657**DCL
B$JIT.TSLINE.SUBSUBDEVICE
       657**DCL
B$JIT.TSLINE.TTYP
       657**DCL
B$JIT.TUEXT
       561**DCL
B$JIT.TUSVT
       561**DCL
B$JIT.UMEMTIM
       561**DCL
B$JIT.UNAME
       387**DCL
B$JIT.USER
       387**DCL
B$JIT.USERWORD
       475**DCL
B$JIT.USRDCB
       536**DCL
B$JIT.USRERR
       523**DCL
B$JIT.USRERR.CODE
       523**DCL
B$JIT.USRERR.FCG
       523**DCL
PL6.E3A0      #001=TOP$POLTS File=TOP$POLTS.:E05TSI                              WED 07/30/97 06:30 Page:806
B$JIT.USRERR.MID
       523**DCL
B$JIT.USRERR.MON
       523**DCL
B$JIT.USRERR.SEV
       523**DCL
B$JIT.USRIC
       524**DCL
B$JIT.USRRNST
       523**DCL
B$JIT.UTIMER
       562**DCL
B$JIT.VIRTUAL
       552**DCL
B$JIT.VIRTUAL.DCB#
       552**DCL
B$JIT.WOO
       387**DCL
B$JIT.XCONF
       608**DCL
B$JIT.XLIMFLG
       618**DCL
B$JIT.XTIME
       560**DCL
B$JIT.YC0SZ
       524**DCL
B$JIT.YC2SZ
       542**DCL
B$TCB
     10201**DCL
B$TCB.CURRSZ
     10201**DCL
B$TCB.STK$
     10201**DCL
B$TCB.TCBAVSZ
     10201**DCL
PL6.E3A0      #001=TOP$POLTS File=TOP$POLTS.:E05TSI                              WED 07/30/97 06:30 Page:807
B$TCB IN PROCEDURE TOP$MME_WRDUMP
     15326**DCL
B$TCB.CURRSZ IN PROCEDURE TOP$MME_WRDUMP
     15326**DCL
B$TCB.STK$ IN PROCEDURE TOP$MME_WRDUMP
     15326**DCL
B$TCB.TCBAVSZ IN PROCEDURE TOP$MME_WRDUMP
     15326**DCL
CLOSE_CONFIG.ACCESS_ IN PROCEDURE GET_DEVICE_CODE
     13416**DCL
CLOSE_CONFIG.ACCT_ IN PROCEDURE GET_DEVICE_CODE
     13418**DCL
CLOSE_CONFIG.ACSVEH_ IN PROCEDURE GET_DEVICE_CODE
     13417**DCL
CLOSE_CONFIG.ALTKEYS_ IN PROCEDURE GET_DEVICE_CODE
     13419**DCL
CLOSE_CONFIG.IFPARAM_ IN PROCEDURE GET_DEVICE_CODE
     13419**DCL
CLOSE_CONFIG.INSTATTR_ IN PROCEDURE GET_DEVICE_CODE
     13417**DCL
CLOSE_CONFIG.IRREC_ IN PROCEDURE GET_DEVICE_CODE
     13414**DCL
CLOSE_CONFIG.NAME_ IN PROCEDURE GET_DEVICE_CODE
     13415**DCL
CLOSE_CONFIG.PASS_ IN PROCEDURE GET_DEVICE_CODE
     13416**DCL
CLOSE_CONFIG.PROCATTR_ IN PROCEDURE GET_DEVICE_CODE
     13418**DCL
CLOSE_CONFIG.RECFIELD_ IN PROCEDURE GET_DEVICE_CODE
     13415**DCL
CLOSE_CONFIG.UATTR_ IN PROCEDURE GET_DEVICE_CODE
     13417**DCL
CLOSE_CONFIG.V.ALTBLD# IN PROCEDURE GET_DEVICE_CODE
     13428**DCL
CLOSE_CONFIG.V.BUPM# IN PROCEDURE GET_DEVICE_CODE
     13427**DCL
PL6.E3A0      #001=TOP$POLTS File=TOP$POLTS.:E05TSI                              WED 07/30/97 06:30 Page:808
CLOSE_CONFIG.V.CLDCB# IN PROCEDURE GET_DEVICE_CODE
     13427**DCL
CLOSE_CONFIG.V.CLINFO# IN PROCEDURE GET_DEVICE_CODE
     13429**DCL
CLOSE_CONFIG.V.CLSYSID# IN PROCEDURE GET_DEVICE_CODE
     13426**DCL
CLOSE_CONFIG.V.DCB# IN PROCEDURE GET_DEVICE_CODE
     13420**DCL
CLOSE_CONFIG.V.DESC IN PROCEDURE GET_DEVICE_CODE
     13424**DCL
CLOSE_CONFIG.V.DESC.ACTIVE# IN PROCEDURE GET_DEVICE_CODE
     13426**DCL
CLOSE_CONFIG.V.DESC.ARCHIVE# IN PROCEDURE GET_DEVICE_CODE
     13425**DCL
CLOSE_CONFIG.V.DESC.BAD# IN PROCEDURE GET_DEVICE_CODE
     13425**DCL
CLOSE_CONFIG.V.DESC.BUF# IN PROCEDURE GET_DEVICE_CODE
     13425**DCL
CLOSE_CONFIG.V.DESC.BUPM# IN PROCEDURE GET_DEVICE_CODE
     13425**DCL
CLOSE_CONFIG.V.DESC.DELF# IN PROCEDURE GET_DEVICE_CODE
     13424**DCL
CLOSE_CONFIG.V.DESC.FETCH# IN PROCEDURE GET_DEVICE_CODE
     13426**DCL
CLOSE_CONFIG.V.DESC.NBUF# IN PROCEDURE GET_DEVICE_CODE
     13426**DCL
CLOSE_CONFIG.V.DESC.NOLIST# IN PROCEDURE GET_DEVICE_CODE
     13425**DCL
CLOSE_CONFIG.V.DESC.ODSTOW# IN PROCEDURE GET_DEVICE_CODE
     13425**DCL
CLOSE_CONFIG.V.DESC.QS# IN PROCEDURE GET_DEVICE_CODE
     13425**DCL
CLOSE_CONFIG.V.DESC.TERMINATE# IN PROCEDURE GET_DEVICE_CODE
     13426**DCL
CLOSE_CONFIG.V.DESC.TPB# IN PROCEDURE GET_DEVICE_CODE
     13426**DCL
PL6.E3A0      #001=TOP$POLTS File=TOP$POLTS.:E05TSI                              WED 07/30/97 06:30 Page:809
CLOSE_CONFIG.V.DISP# IN PROCEDURE GET_DEVICE_CODE
     13423**DCL
CLOSE_CONFIG.V.EFTOPER IN PROCEDURE GET_DEVICE_CODE
     13421**DCL
CLOSE_CONFIG.V.EFTOPER.ASTOW# IN PROCEDURE GET_DEVICE_CODE
     13422**DCL
CLOSE_CONFIG.V.EFTOPER.BACKUP# IN PROCEDURE GET_DEVICE_CODE
     13421**DCL
CLOSE_CONFIG.V.EFTOPER.DELFDE# IN PROCEDURE GET_DEVICE_CODE
     13423**DCL
CLOSE_CONFIG.V.EFTOPER.ISTOW# IN PROCEDURE GET_DEVICE_CODE
     13422**DCL
CLOSE_CONFIG.V.EFTOPER.UPDDESC# IN PROCEDURE GET_DEVICE_CODE
     13422**DCL
CLOSE_CONFIG.V.GHSTACS# IN PROCEDURE GET_DEVICE_CODE
     13428**DCL
CLOSE_CONFIG.V.LRDL0# IN PROCEDURE GET_DEVICE_CODE
     13430**DCL
CLOSE_CONFIG.V.LSLIDE# IN PROCEDURE GET_DEVICE_CODE
     13430**DCL
CLOSE_CONFIG.V.NOMARKS# IN PROCEDURE GET_DEVICE_CODE
     13428**DCL
CLOSE_CONFIG.V.OPER IN PROCEDURE GET_DEVICE_CODE
     13420**DCL
CLOSE_CONFIG.V.OPER.CHGATT# IN PROCEDURE GET_DEVICE_CODE
     13420**DCL
CLOSE_CONFIG.V.OPER.REBLD# IN PROCEDURE GET_DEVICE_CODE
     13421**DCL
CLOSE_CONFIG.V.OPER.RELG# IN PROCEDURE GET_DEVICE_CODE
     13420**DCL
CLOSE_CONFIG.V.POS# IN PROCEDURE GET_DEVICE_CODE
     13427**DCL
CLOSE_CONFIG.V.SPARE# IN PROCEDURE GET_DEVICE_CODE
     13430**DCL
CLOSE_CONFIG.V.TRUNCATE# IN PROCEDURE GET_DEVICE_CODE
     13423**DCL
PL6.E3A0      #001=TOP$POLTS File=TOP$POLTS.:E05TSI                              WED 07/30/97 06:30 Page:810
CLOSE_CONFIG.V_ IN PROCEDURE GET_DEVICE_CODE
     13414**DCL
CLOSE_DUMP.ACCESS_ IN PROCEDURE TOP$MME_WRDUMP
     15489**DCL
CLOSE_DUMP.ACCT_ IN PROCEDURE TOP$MME_WRDUMP
     15491**DCL
CLOSE_DUMP.ACSVEH_ IN PROCEDURE TOP$MME_WRDUMP
     15490**DCL
CLOSE_DUMP.ALTKEYS_ IN PROCEDURE TOP$MME_WRDUMP
     15492**DCL
CLOSE_DUMP.IFPARAM_ IN PROCEDURE TOP$MME_WRDUMP
     15492**DCL
CLOSE_DUMP.INSTATTR_ IN PROCEDURE TOP$MME_WRDUMP
     15490**DCL
CLOSE_DUMP.IRREC_ IN PROCEDURE TOP$MME_WRDUMP
     15487**DCL
CLOSE_DUMP.NAME_ IN PROCEDURE TOP$MME_WRDUMP
     15488**DCL
CLOSE_DUMP.PASS_ IN PROCEDURE TOP$MME_WRDUMP
     15489**DCL
CLOSE_DUMP.PROCATTR_ IN PROCEDURE TOP$MME_WRDUMP
     15491**DCL
CLOSE_DUMP.RECFIELD_ IN PROCEDURE TOP$MME_WRDUMP
     15488**DCL
CLOSE_DUMP.UATTR_ IN PROCEDURE TOP$MME_WRDUMP
     15490**DCL
CLOSE_DUMP.V.ALTBLD# IN PROCEDURE TOP$MME_WRDUMP
     15501**DCL
CLOSE_DUMP.V.BUPM# IN PROCEDURE TOP$MME_WRDUMP
     15500**DCL
CLOSE_DUMP.V.CLDCB# IN PROCEDURE TOP$MME_WRDUMP
     15500**DCL
CLOSE_DUMP.V.CLINFO# IN PROCEDURE TOP$MME_WRDUMP
     15502**DCL
CLOSE_DUMP.V.CLSYSID# IN PROCEDURE TOP$MME_WRDUMP
     15499**DCL
PL6.E3A0      #001=TOP$POLTS File=TOP$POLTS.:E05TSI                              WED 07/30/97 06:30 Page:811
CLOSE_DUMP.V.DCB# IN PROCEDURE TOP$MME_WRDUMP
     15493**DCL
CLOSE_DUMP.V.DESC IN PROCEDURE TOP$MME_WRDUMP
     15497**DCL
CLOSE_DUMP.V.DESC.ACTIVE# IN PROCEDURE TOP$MME_WRDUMP
     15499**DCL
CLOSE_DUMP.V.DESC.ARCHIVE# IN PROCEDURE TOP$MME_WRDUMP
     15498**DCL
CLOSE_DUMP.V.DESC.BAD# IN PROCEDURE TOP$MME_WRDUMP
     15498**DCL
CLOSE_DUMP.V.DESC.BUF# IN PROCEDURE TOP$MME_WRDUMP
     15498**DCL
CLOSE_DUMP.V.DESC.BUPM# IN PROCEDURE TOP$MME_WRDUMP
     15498**DCL
CLOSE_DUMP.V.DESC.DELF# IN PROCEDURE TOP$MME_WRDUMP
     15497**DCL
CLOSE_DUMP.V.DESC.FETCH# IN PROCEDURE TOP$MME_WRDUMP
     15499**DCL
CLOSE_DUMP.V.DESC.NBUF# IN PROCEDURE TOP$MME_WRDUMP
     15499**DCL
CLOSE_DUMP.V.DESC.NOLIST# IN PROCEDURE TOP$MME_WRDUMP
     15498**DCL
CLOSE_DUMP.V.DESC.ODSTOW# IN PROCEDURE TOP$MME_WRDUMP
     15498**DCL
CLOSE_DUMP.V.DESC.QS# IN PROCEDURE TOP$MME_WRDUMP
     15498**DCL
CLOSE_DUMP.V.DESC.TERMINATE# IN PROCEDURE TOP$MME_WRDUMP
     15499**DCL
CLOSE_DUMP.V.DESC.TPB# IN PROCEDURE TOP$MME_WRDUMP
     15499**DCL
CLOSE_DUMP.V.DISP# IN PROCEDURE TOP$MME_WRDUMP
     15496**DCL
CLOSE_DUMP.V.EFTOPER IN PROCEDURE TOP$MME_WRDUMP
     15494**DCL
CLOSE_DUMP.V.EFTOPER.ASTOW# IN PROCEDURE TOP$MME_WRDUMP
     15495**DCL
PL6.E3A0      #001=TOP$POLTS File=TOP$POLTS.:E05TSI                              WED 07/30/97 06:30 Page:812
CLOSE_DUMP.V.EFTOPER.BACKUP# IN PROCEDURE TOP$MME_WRDUMP
     15494**DCL
CLOSE_DUMP.V.EFTOPER.DELFDE# IN PROCEDURE TOP$MME_WRDUMP
     15496**DCL
CLOSE_DUMP.V.EFTOPER.ISTOW# IN PROCEDURE TOP$MME_WRDUMP
     15495**DCL
CLOSE_DUMP.V.EFTOPER.UPDDESC# IN PROCEDURE TOP$MME_WRDUMP
     15495**DCL
CLOSE_DUMP.V.GHSTACS# IN PROCEDURE TOP$MME_WRDUMP
     15501**DCL
CLOSE_DUMP.V.LRDL0# IN PROCEDURE TOP$MME_WRDUMP
     15503**DCL
CLOSE_DUMP.V.LSLIDE# IN PROCEDURE TOP$MME_WRDUMP
     15503**DCL
CLOSE_DUMP.V.NOMARKS# IN PROCEDURE TOP$MME_WRDUMP
     15501**DCL
CLOSE_DUMP.V.OPER IN PROCEDURE TOP$MME_WRDUMP
     15493**DCL
CLOSE_DUMP.V.OPER.CHGATT# IN PROCEDURE TOP$MME_WRDUMP
     15493**DCL
CLOSE_DUMP.V.OPER.REBLD# IN PROCEDURE TOP$MME_WRDUMP
     15494**DCL
CLOSE_DUMP.V.OPER.RELG# IN PROCEDURE TOP$MME_WRDUMP
     15493**DCL
CLOSE_DUMP.V.POS# IN PROCEDURE TOP$MME_WRDUMP
     15500**DCL
CLOSE_DUMP.V.SPARE# IN PROCEDURE TOP$MME_WRDUMP
     15503**DCL
CLOSE_DUMP.V.TRUNCATE# IN PROCEDURE TOP$MME_WRDUMP
     15496**DCL
CLOSE_DUMP.V_ IN PROCEDURE TOP$MME_WRDUMP
     15487**DCL
CONSOLE_FPT
      9930**DCL
CONSOLE_FPT.BUF_.BOUND
      9930**DCL
PL6.E3A0      #001=TOP$POLTS File=TOP$POLTS.:E05TSI                              WED 07/30/97 06:30 Page:813
CONSOLE_FPT.BUF_.BUF$
      9932**DCL
CONSOLE_FPT.IDBUF_
      9932**DCL
CONSOLE_FPT.KEY_
      9930**DCL
CONSOLE_FPT.V
      9933**DCL
CONSOLE_FPT.V.DCB#
      9933**DCL
CONSOLE_FPT.V.DVBYTE
      9938**DCL
CONSOLE_FPT.V.DVBYTE.BIN#
      9939**DCL
CONSOLE_FPT.V.DVBYTE.BP#
      9939**DCL
CONSOLE_FPT.V.DVBYTE.CONT#
      9941**DCL
CONSOLE_FPT.V.DVBYTE.NODAT#
      9940**DCL
CONSOLE_FPT.V.DVBYTE.REREAD#
      9939**DCL
CONSOLE_FPT.V.DVBYTE.RRR#
      9940**DCL
CONSOLE_FPT.V.DVBYTE.TOP#
      9938**DCL
CONSOLE_FPT.V.DVBYTE.TRANS#
      9940**DCL
CONSOLE_FPT.V.EVENT#
      9938**DCL
CONSOLE_FPT.V.FULL#
      9935**DCL
CONSOLE_FPT.V.ID#
      9934**DCL
CONSOLE_FPT.V.IOERROK#
      9937**DCL
PL6.E3A0      #001=TOP$POLTS File=TOP$POLTS.:E05TSI                              WED 07/30/97 06:30 Page:814
CONSOLE_FPT.V.KEYTYPE#
      9937**DCL
CONSOLE_FPT.V.NEWKEY#
      9936**DCL
CONSOLE_FPT.V.NOTIME#
      9936**DCL
CONSOLE_FPT.V.ODFNC#
      9942**DCL
CONSOLE_FPT.V.ONEWKEY#
      9935**DCL
CONSOLE_FPT.V.REWRITE#
      9936**DCL
CONSOLE_FPT.V.SEED#
      9938**DCL
CONSOLE_FPT.V.WAIT#
      9933**DCL
CONSOLE_FPT.V_
      9930**DCL
CONTROLLER_SCT.W0 IN PROCEDURE BUILD_CONTROLLER_SCT
     11576**DCL
CONTROLLER_SCT.W1# IN PROCEDURE BUILD_CONTROLLER_SCT
     11581**DCL
CONTROLLER_SCT.W2# IN PROCEDURE BUILD_CONTROLLER_SCT
     11582**DCL
CONTROLLER_SCT.W3# IN PROCEDURE BUILD_CONTROLLER_SCT
     11583**DCL
CONTROLLER_SCT IN PROCEDURE BUILD_SCTWRK
     16328**DCL
CONTROLLER_SCT.W1# IN PROCEDURE BUILD_SCTWRK
     16330**DCL
CONTROLLER_SCT.W2# IN PROCEDURE BUILD_SCTWRK
     16331**DCL
CONTROLLER_SCT.W3# IN PROCEDURE BUILD_SCTWRK
     16332**DCL
CRLF_.CR# IN PROCEDURE BREAK_HDR_LINE
     16223**DCL
PL6.E3A0      #001=TOP$POLTS File=TOP$POLTS.:E05TSI                              WED 07/30/97 06:30 Page:815
CRLF_.LF# IN PROCEDURE BREAK_HDR_LINE
     16224**DCL
CSCT_PTR IN PROCEDURE BUILD_SCTWRK
     16348**DCL
CSCT_PTR.SEGID# IN PROCEDURE BUILD_SCTWRK
     16350**DCL
CSCT_PTR IN PROCEDURE TOP$MME_GETCSC
     11782**DCL
DATA_VECTOR.BASE# IN PROCEDURE FRAME_DATA_AREA
     14790**DCL
DATA_VECTOR.FLAGS# IN PROCEDURE FRAME_DATA_AREA
     14787**DCL
DATA_VECTOR.SEGID# IN PROCEDURE FRAME_DATA_AREA
     14792**DCL
DATA_VECTOR.V# IN PROCEDURE FRAME_DATA_AREA
     14788**DCL
DATA_VECTOR.BASE# IN PROCEDURE GET_DENSITIES
     11405**DCL
DATA_VECTOR.FLAGS# IN PROCEDURE GET_DENSITIES
     11402**DCL
DATA_VECTOR.SEGID# IN PROCEDURE GET_DENSITIES
     11407**DCL
DATA_VECTOR.V# IN PROCEDURE GET_DENSITIES
     11403**DCL
DCB_NAME.LGTH IN PROCEDURE GET_TEST_DCB
     10974**DCL
DCB_NAME.VALUE IN PROCEDURE GET_TEST_DCB
     10975**DCL
DCW.CHAR_POS# IN PROCEDURE BUILD_DCW_LIST
     14968**DCL
DCW.TALLY# IN PROCEDURE BUILD_DCW_LIST
     14971**DCL
DCW.TALLY_CNTRL# IN PROCEDURE BUILD_DCW_LIST
     14969**DCL
DCWLIST_ IN PROCEDURE BUILD_DCW_LIST
     14953**DCL
PL6.E3A0      #001=TOP$POLTS File=TOP$POLTS.:E05TSI                              WED 07/30/97 06:30 Page:816
DELAY_FPT.UETIME_ IN PROCEDURE TOP$MME_IPCWDT
     12138**DCL
DELAY_FPT.V.UNITS# IN PROCEDURE TOP$MME_IPCWDT
     12139**DCL
DELAY_FPT.V.UTYPE# IN PROCEDURE TOP$MME_IPCWDT
     12139**DCL
DELAY_FPT.V_ IN PROCEDURE TOP$MME_IPCWDT
     12138**DCL
DENSITY_DCWLIST.DCW IN PROCEDURE GET_DENSITIES
     11418**DCL
DENSITY_DCWLIST.DCW.WORD_COUNT# IN PROCEDURE GET_DENSITIES
     11421**DCL
DENSITY_DCWLIST.IDCW IN PROCEDURE GET_DENSITIES
     11410**DCL
DENSITY_DCWLIST.IDCW.CHAN_CMD# IN PROCEDURE GET_DENSITIES
     11416**DCL
DENSITY_DCWLIST.IDCW.CMD# IN PROCEDURE GET_DENSITIES
     11411**DCL
DENSITY_DCWLIST.IDCW.DEV_NUMBER# IN PROCEDURE GET_DENSITIES
     11412**DCL
DENSITY_DCWLIST.IDCW.REC_COUNT# IN PROCEDURE GET_DENSITIES
     11417**DCL
DENSITY_DCWLIST.IDCW.TYPE# IN PROCEDURE GET_DENSITIES
     11414**DCL
DEVICE_CODE IN PROCEDURE TOP$MME_ALLOCR
     10852**DCL
DEVICE_INFO.ALTCHAN# IN PROCEDURE GET_DENSITIES
     11426**DCL
DEVICE_INFO.DEV# IN PROCEDURE GET_DENSITIES
     11429**DCL
DEVICE_INFO.OPI# IN PROCEDURE GET_DENSITIES
     11427**DCL
DEVICE_INFO.RDY# IN PROCEDURE GET_DENSITIES
     11428**DCL
DEVICE_INFO.SPEED# IN PROCEDURE GET_DENSITIES
     11431**DCL
PL6.E3A0      #001=TOP$POLTS File=TOP$POLTS.:E05TSI                              WED 07/30/97 06:30 Page:817
DEVICE_INFO.TRACK# IN PROCEDURE GET_DENSITIES
     11432**DCL
DEVICE_INFO_ IN PROCEDURE GET_DENSITIES
     11435**DCL
DEVICE_INFO_.SEGID IN PROCEDURE GET_DENSITIES
     11437**DCL
DEVICE_KEY.SIZE IN PROCEDURE GET_MODEL_ID
     13849**DCL
DEVICE_SCT.W0 IN PROCEDURE BUILD_DEVICE_SCT
     11217**DCL
DEVICE_SCT.W1 IN PROCEDURE BUILD_DEVICE_SCT
     11226**DCL
DEVICE_SCT.W1.MODULES# IN PROCEDURE BUILD_DEVICE_SCT
     11228**DCL
DEVICE_SCT.W2# IN PROCEDURE BUILD_DEVICE_SCT
     11232**DCL
DEVICE_SCT.W3# IN PROCEDURE BUILD_DEVICE_SCT
     11233**DCL
DEVICE_SCT IN PROCEDURE BUILD_SCTWRK
     16333**DCL
DEVICE_SCT.W2# IN PROCEDURE BUILD_SCTWRK
     16336**DCL
DEVICE_SCT.W3# IN PROCEDURE BUILD_SCTWRK
     16337**DCL
DUMMY IN PROCEDURE TOP$MME_TESTIO
     14745**DCL
DUMP_.SEGID# IN PROCEDURE TOP$MME_WRDUMP
     15398**DCL
DUMP_LINE.DUMP_OUTPUT_ IN PROCEDURE TOP$MME_WRDUMP
     15367**DCL
DUMP_PROMPT.PROMPT_ IN PROCEDURE TOP$MME_WRDUMP
     15760**DCL
DUMP_PROMPT.STATION_ IN PROCEDURE TOP$MME_WRDUMP
     15758**DCL
DUMP_PROMPT.V.DCB# IN PROCEDURE TOP$MME_WRDUMP
     15762**DCL
PL6.E3A0      #001=TOP$POLTS File=TOP$POLTS.:E05TSI                              WED 07/30/97 06:30 Page:818
DUMP_PROMPT.V.DVBYTE# IN PROCEDURE TOP$MME_WRDUMP
     15762**DCL
DUMP_PROMPT.V.DVBYTE#.BIN# IN PROCEDURE TOP$MME_WRDUMP
     15763**DCL
DUMP_PROMPT.V.DVBYTE#.TRANS# IN PROCEDURE TOP$MME_WRDUMP
     15763**DCL
DUMP_PROMPT.V.DVBYTE#.VFC# IN PROCEDURE TOP$MME_WRDUMP
     15763**DCL
DUMP_PROMPT.V_ IN PROCEDURE TOP$MME_WRDUMP
     15756**DCL
F$DCB
     10204**DCL
F$DCB.ACCT#
     10220**DCL
F$DCB.ACS#
     10228**DCL
F$DCB.AFTRBLK
     10244**DCL
F$DCB.AGE
     10255**DCL
F$DCB.ALTKEYX
     10235**DCL
F$DCB.AMFLG
     10241**DCL
F$DCB.AMFLG.ACCF
     10241**DCL
F$DCB.AMFLG.ACSF
     10241**DCL
F$DCB.AMFLG.INSF
     10241**DCL
F$DCB.AMFLG.PROF
     10241**DCL
F$DCB.AMFLG.SNLF
     10241**DCL
F$DCB.AMFLG.USRF
     10241**DCL
PL6.E3A0      #001=TOP$POLTS File=TOP$POLTS.:E05TSI                              WED 07/30/97 06:30 Page:819
F$DCB.AMR#
     10223**DCL
F$DCB.AMRSETSTA
     10222**DCL
F$DCB.ANSISPANSEQ#
     10238**DCL
F$DCB.ASN#
     10225**DCL
F$DCB.ATTR.APL#
     10230**DCL
F$DCB.ATTR.BIN#
     10230**DCL
F$DCB.ATTR.DENS#
     10229**DCL
F$DCB.ATTR.GRLGL#
     10229**DCL
F$DCB.ATTR.LOWERCASE#
     10230**DCL
F$DCB.ATTR.NATL#
     10229**DCL
F$DCB.ATTR.NOXLATE#
     10229**DCL
F$DCB.ATTR.TRANSLGL#
     10229**DCL
F$DCB.ATTR.TRUOVRPRT#
     10229**DCL
F$DCB.ATTR.UPPERCASE#
     10229**DCL
F$DCB.AU#
     10222**DCL
F$DCB.AUTHFFLG
     10236**DCL
F$DCB.AUTHFFLG.AU#
     10238**DCL
F$DCB.AUTHFFLG.AURD#
     10238**DCL
PL6.E3A0      #001=TOP$POLTS File=TOP$POLTS.:E05TSI                              WED 07/30/97 06:30 Page:820
F$DCB.AUTHFFLG.CREATE#
     10238**DCL
F$DCB.AUTHFFLG.DELF#
     10237**DCL
F$DCB.AUTHFFLG.DELR#
     10237**DCL
F$DCB.AUTHFFLG.EXEC#
     10237**DCL
F$DCB.AUTHFFLG.NOLIST#
     10237**DCL
F$DCB.AUTHFFLG.READ#
     10237**DCL
F$DCB.AUTHFFLG.REATTR#
     10237**DCL
F$DCB.AUTHFFLG.TCTL#
     10238**DCL
F$DCB.AUTHFFLG.UPD#
     10237**DCL
F$DCB.AUTHFFLG.WNEW#
     10237**DCL
F$DCB.BADARS#
     10239**DCL
F$DCB.BFR
     10255**DCL
F$DCB.BFR.BUFUP
     10256**DCL
F$DCB.BFR.BUFX
     10256**DCL
F$DCB.BFR.CHNG
     10256**DCL
F$DCB.BFR.CVM
     10256**DCL
F$DCB.BFR.DA
     10256**DCL
F$DCB.BFR.SCRUB
     10256**DCL
PL6.E3A0      #001=TOP$POLTS File=TOP$POLTS.:E05TSI                              WED 07/30/97 06:30 Page:821
F$DCB.BFR1
     10256**DCL
F$DCB.BFR1.CX
     10257**DCL
F$DCB.BFR1.FLAGS
     10256**DCL
F$DCB.BFR1.FLAGS.ONE_WORD_HEADER
     10256**DCL
F$DCB.BFR1.SIZ
     10257**DCL
F$DCB.BLKL#
     10226**DCL
F$DCB.BLKLEN
     10249**DCL
F$DCB.BLOCKED#
     10224**DCL
F$DCB.BOL#
     10227**DCL
F$DCB.BUPF
     10214**DCL
F$DCB.BUPM#
     10225**DCL
F$DCB.BYTESLEFT
     10248**DCL
F$DCB.CACHE
     10243**DCL
F$DCB.CBUFNUM
     10247**DCL
F$DCB.CFU$
     10245**DCL
F$DCB.CHAIN#
     10231**DCL
F$DCB.CNVRT#
     10223**DCL
F$DCB.CODE16$
     10235**DCL
PL6.E3A0      #001=TOP$POLTS File=TOP$POLTS.:E05TSI                              WED 07/30/97 06:30 Page:822
F$DCB.COMP#
     10224**DCL
F$DCB.CONT
     10243**DCL
F$DCB.CRECNO
     10248**DCL
F$DCB.CRECX
     10247**DCL
F$DCB.CSEED
     10248**DCL
F$DCB.CTG#
     10224**DCL
F$DCB.CTLCMDIN
     10252**DCL
F$DCB.CVOL#
     10224**DCL
F$DCB.CWORD
     10253**DCL
F$DCB.CX
     10253**DCL
F$DCB.DBGDCBNO#
     10226**DCL
F$DCB.DBGSYSID#
     10226**DCL
F$DCB.DCB#
     10238**DCL
F$DCB.DCBNAME
     10257**DCL
F$DCB.DCBNAME.N
     10258**DCL
F$DCB.DCBNAME.S
     10258**DCL
F$DCB.DCBNAME.X
     10258**DCL
F$DCB.DCT$
     10233**DCL
PL6.E3A0      #001=TOP$POLTS File=TOP$POLTS.:E05TSI                              WED 07/30/97 06:30 Page:823
F$DCB.DDEV
     10216**DCL
F$DCB.DDEV.CP#
     10216**DCL
F$DCB.DDEV.GR#
     10217**DCL
F$DCB.DDEV.IC#
     10216**DCL
F$DCB.DDEV.LP#
     10216**DCL
F$DCB.DDEV.UCOUT#
     10217**DCL
F$DCB.DDEV.XEQ#
     10217**DCL
F$DCB.DECRYPT
     10251**DCL
F$DCB.DENSITY#
     10231**DCL
F$DCB.DESC
     10217**DCL
F$DCB.DESC.ACTIVE#
     10219**DCL
F$DCB.DESC.ARCHIVE#
     10218**DCL
F$DCB.DESC.BAD#
     10218**DCL
F$DCB.DESC.BUF#
     10218**DCL
F$DCB.DESC.BUPM#
     10218**DCL
F$DCB.DESC.DELF#
     10217**DCL
F$DCB.DESC.FETCH#
     10219**DCL
F$DCB.DESC.NBUF#
     10218**DCL
PL6.E3A0      #001=TOP$POLTS File=TOP$POLTS.:E05TSI                              WED 07/30/97 06:30 Page:824
F$DCB.DESC.NOLIST#
     10218**DCL
F$DCB.DESC.ODSTOW#
     10218**DCL
F$DCB.DESC.QS#
     10218**DCL
F$DCB.DESC.TERMINATE#
     10219**DCL
F$DCB.DESC.TPB#
     10219**DCL
F$DCB.DEVADR
     10233**DCL
F$DCB.DEVADR.CHAN#
     10234**DCL
F$DCB.DEVADR.DVN#
     10234**DCL
F$DCB.DEVADR.IOM#
     10234**DCL
F$DCB.DISP#
     10225**DCL
F$DCB.DQH$
     10232**DCL
F$DCB.DVBYTE
     10213**DCL
F$DCB.DVBYTE.BIN#
     10213**DCL
F$DCB.DVBYTE.TOP#
     10213**DCL
F$DCB.DVBYTE.TRANS#
     10213**DCL
F$DCB.DVBYTE.VFC#
     10213**DCL
F$DCB.DVFC#
     10232**DCL
F$DCB.DVTYPE#
     10225**DCL
PL6.E3A0      #001=TOP$POLTS File=TOP$POLTS.:E05TSI                              WED 07/30/97 06:30 Page:825
F$DCB.EBCDIC#
     10223**DCL
F$DCB.ENQF
     10243**DCL
F$DCB.EOMVAL#
     10214**DCL
F$DCB.EOMVAL#.VALUE#
     10215**DCL
F$DCB.EOMVAL#.VFLG#
     10214**DCL
F$DCB.EOP
     10240**DCL
F$DCB.EVENT
     10235**DCL
F$DCB.EXIST#
     10224**DCL
F$DCB.EXPIRE#
     10227**DCL
F$DCB.FCD#
     10223**DCL
F$DCB.FCI#
     10223**DCL
F$DCB.FCN
     10249**DCL
F$DCB.FCN.CNT
     10249**DCL
F$DCB.FCN.F
     10249**DCL
F$DCB.FDCM
     10248**DCL
F$DCB.FEPIO
     10255**DCL
F$DCB.FEPIO.BPP
     10255**DCL
F$DCB.FEPIO.BUFX
     10255**DCL
PL6.E3A0      #001=TOP$POLTS File=TOP$POLTS.:E05TSI                              WED 07/30/97 06:30 Page:826
F$DCB.FEPIO.EVENT
     10255**DCL
F$DCB.FEPIO.KEYX
     10255**DCL
F$DCB.FEPIO.KPP
     10255**DCL
F$DCB.FEPIO2
     10257**DCL
F$DCB.FEPIO3
     10257**DCL
F$DCB.FEPSIZ
     10254**DCL
F$DCB.FEPSIZ.BUF
     10254**DCL
F$DCB.FEPSIZ.KEY
     10254**DCL
F$DCB.FEXT
     10240**DCL
F$DCB.FEXTX
     10227**DCL
F$DCB.FFLG
     10215**DCL
F$DCB.FFLG.AU#
     10216**DCL
F$DCB.FFLG.AURD#
     10216**DCL
F$DCB.FFLG.CREATE#
     10216**DCL
F$DCB.FFLG.DELF#
     10215**DCL
F$DCB.FFLG.DELR#
     10215**DCL
F$DCB.FFLG.EXEC#
     10216**DCL
F$DCB.FFLG.NOLIST#
     10215**DCL
PL6.E3A0      #001=TOP$POLTS File=TOP$POLTS.:E05TSI                              WED 07/30/97 06:30 Page:827
F$DCB.FFLG.READ#
     10215**DCL
F$DCB.FFLG.REATTR#
     10215**DCL
F$DCB.FFLG.TCTL#
     10216**DCL
F$DCB.FFLG.UPD#
     10215**DCL
F$DCB.FFLG.WNEW#
     10215**DCL
F$DCB.FIELDX
     10235**DCL
F$DCB.FMOD
     10240**DCL
F$DCB.FPRGX
     10235**DCL
F$DCB.FPSTR
     10250**DCL
F$DCB.FTAM
     10244**DCL
F$DCB.FTAM.CTX
     10245**DCL
F$DCB.FTAM.PMME
     10245**DCL
F$DCB.FTAM.USR
     10245**DCL
F$DCB.FUN#
     10225**DCL
F$DCB.GDISP
     10251**DCL
F$DCB.GHSTACS#
     10234**DCL
F$DCB.GRPOS
     10243**DCL
F$DCB.GTYP
     10240**DCL
PL6.E3A0      #001=TOP$POLTS File=TOP$POLTS.:E05TSI                              WED 07/30/97 06:30 Page:828
F$DCB.HASH
     10248**DCL
F$DCB.IASN
     10253**DCL
F$DCB.ID
     10254**DCL
F$DCB.ID.DA
     10254**DCL
F$DCB.ID.GX
     10254**DCL
F$DCB.IFMT
     10252**DCL
F$DCB.IGNOREFSN#
     10222**DCL
F$DCB.INDX
     10249**DCL
F$DCB.IOERROK#
     10222**DCL
F$DCB.IORG
     10247**DCL
F$DCB.IRRECX
     10239**DCL
F$DCB.IWL
     10252**DCL
F$DCB.IWL.HDRIWL
     10252**DCL
F$DCB.IWL.SEQIWL
     10252**DCL
F$DCB.IWL.TABIWL
     10252**DCL
F$DCB.JRNLBYPASS#
     10234**DCL
F$DCB.KEYL#
     10227**DCL
F$DCB.KEYTYPE#
     10236**DCL
PL6.E3A0      #001=TOP$POLTS File=TOP$POLTS.:E05TSI                              WED 07/30/97 06:30 Page:829
F$DCB.KEYX#
     10227**DCL
F$DCB.KFIELDX
     10236**DCL
F$DCB.LASTKEY
     10244**DCL
F$DCB.LASTKEY$
     10244**DCL
F$DCB.LDCTX
     10233**DCL
F$DCB.LDFLG
     10242**DCL
F$DCB.LINES#
     10232**DCL
F$DCB.LOAD#
     10222**DCL
F$DCB.LOGSEC
     10251**DCL
F$DCB.LPOOL
     10245**DCL
F$DCB.LRDL0#
     10228**DCL
F$DCB.LSLIDE#
     10228**DCL
F$DCB.LSTAOR#
     10222**DCL
F$DCB.LSTBLK
     10244**DCL
F$DCB.MAXVOL#
     10231**DCL
F$DCB.MEDIA
     10252**DCL
F$DCB.MODCNT
     10250**DCL
F$DCB.MOUNT
     10242**DCL
PL6.E3A0      #001=TOP$POLTS File=TOP$POLTS.:E05TSI                              WED 07/30/97 06:30 Page:830
F$DCB.MOVED
     10253**DCL
F$DCB.MPC$
     10233**DCL
F$DCB.MUST_CVOL
     10241**DCL
F$DCB.NAME#
     10220**DCL
F$DCB.NAME#.C17
     10220**DCL
F$DCB.NAME#.C17.CC
     10220**DCL
F$DCB.NAME#.L
     10220**DCL
F$DCB.NEW_FSECT
     10242**DCL
F$DCB.OLDIOERR
     10251**DCL
F$DCB.OWNER
     10242**DCL
F$DCB.PASS#
     10220**DCL
F$DCB.PASSF#
     10223**DCL
F$DCB.PATH
     10239**DCL
F$DCB.PATH.CHAN#
     10239**DCL
F$DCB.PATH.IOM#
     10239**DCL
F$DCB.PGINGRAN
     10251**DCL
F$DCB.PRIVOPN
     10251**DCL
F$DCB.PSN#
     10220**DCL
PL6.E3A0      #001=TOP$POLTS File=TOP$POLTS.:E05TSI                              WED 07/30/97 06:30 Page:831
F$DCB.QISS#
     10222**DCL
F$DCB.RA
     10243**DCL
F$DCB.RDL0#
     10214**DCL
F$DCB.REALSPAN
     10251**DCL
F$DCB.RECL#
     10226**DCL
F$DCB.RESNT
     10221**DCL
F$DCB.RESNT.NUM
     10221**DCL
F$DCB.RESNT.TYP
     10221**DCL
F$DCB.RETRYCNT#
     10217**DCL
F$DCB.RPOS
     10243**DCL
F$DCB.SEED#
     10240**DCL
F$DCB.SEGX
     10250**DCL
F$DCB.SEQ#
     10232**DCL
F$DCB.SEQCOL#
     10232**DCL
F$DCB.SEQID#
     10232**DCL
F$DCB.SETSTA$
     10219**DCL
F$DCB.SEZ_OK
     10241**DCL
F$DCB.SHARE#
     10224**DCL
PL6.E3A0      #001=TOP$POLTS File=TOP$POLTS.:E05TSI                              WED 07/30/97 06:30 Page:832
F$DCB.SHARED
     10240**DCL
F$DCB.SLIDE#
     10214**DCL
F$DCB.SPAN
     10242**DCL
F$DCB.SPANNED#
     10224**DCL
F$DCB.SPARE#
     10228**DCL
F$DCB.STARF
     10240**DCL
F$DCB.STARTX
     10236**DCL
F$DCB.STARX
     10243**DCL
F$DCB.STR#
     10250**DCL
F$DCB.SYSID#
     10227**DCL
F$DCB.TAPTYP
     10246**DCL
F$DCB.TAPTYP.CP6F
     10246**DCL
F$DCB.TAPTYP.HAVLASTKEY
     10246**DCL
F$DCB.TAPTYP.MANAGED
     10247**DCL
F$DCB.TAPTYP.NOCVOL
     10247**DCL
F$DCB.TAPTYP.PASTFM
     10247**DCL
F$DCB.TAPTYP.RWASC
     10246**DCL
F$DCB.TAPTYP.USRBUF
     10246**DCL
PL6.E3A0      #001=TOP$POLTS File=TOP$POLTS.:E05TSI                              WED 07/30/97 06:30 Page:833
F$DCB.TDALVL
     10245**DCL
F$DCB.TDFLG
     10230**DCL
F$DCB.TDFLG.SDSK#
     10230**DCL
F$DCB.TRNC
     10243**DCL
F$DCB.TYC
     10210**DCL
F$DCB.TYC.BLNKTP#
     10210**DCL
F$DCB.TYC.BOF#
     10210**DCL
F$DCB.TYC.BOT#
     10210**DCL
F$DCB.TYC.CDALRT#
     10212**DCL
F$DCB.TYC.CGCRCW
     10213**DCL
F$DCB.TYC.CGCWRV
     10213**DCL
F$DCB.TYC.CGFULL
     10212**DCL
F$DCB.TYC.CGKEYV
     10212**DCL
F$DCB.TYC.CGLWRV
     10212**DCL
F$DCB.TYC.DACT#
     10211**DCL
F$DCB.TYC.DI#
     10211**DCL
F$DCB.TYC.EGV#
     10210**DCL
F$DCB.TYC.EOD#
     10211**DCL
PL6.E3A0      #001=TOP$POLTS File=TOP$POLTS.:E05TSI                              WED 07/30/97 06:30 Page:834
F$DCB.TYC.EOF#
     10211**DCL
F$DCB.TYC.EOT#
     10210**DCL
F$DCB.TYC.FRAW#
     10212**DCL
F$DCB.TYC.IOERR#
     10211**DCL
F$DCB.TYC.LAST#
     10212**DCL
F$DCB.TYC.LD#
     10211**DCL
F$DCB.TYC.LDISC#
     10211**DCL
F$DCB.TYC.MTRAP#
     10211**DCL
F$DCB.TYC.OPER#
     10210**DCL
F$DCB.TYC.PROT#
     10212**DCL
F$DCB.TYC.TIMO#
     10212**DCL
F$DCB.TYC.XTRARD
     10212**DCL
F$DCB.TYPE#
     10221**DCL
F$DCB.UB$
     10249**DCL
F$DCB.UBYTES
     10249**DCL
F$DCB.UCOUT
     10246**DCL
F$DCB.UNIQUEBLD
     10253**DCL
F$DCB.UOPT#
     10223**DCL
PL6.E3A0      #001=TOP$POLTS File=TOP$POLTS.:E05TSI                              WED 07/30/97 06:30 Page:835
F$DCB.UPDCNT
     10253**DCL
F$DCB.VFCCHAR#
     10235**DCL
F$DCB.VOL#
     10231**DCL
F$DCB.VOLACCESS#
     10223**DCL
F$DCB.WAIT
     10243**DCL
F$DCB.WCDATA
     10246**DCL
F$DCB.WIDTH#
     10217**DCL
F$DCB.WRCMP
     10246**DCL
F$DCB.WSR#
     10228**DCL
F$DCB.XTEND#
     10224**DCL
F$DCB.XTNSIZE#
     10228**DCL
F$DCB IN PROCEDURE TOP$MME_WRDUMP
     15403**DCL
F$DCB.ACCT# IN PROCEDURE TOP$MME_WRDUMP
     15419**DCL
F$DCB.ACS# IN PROCEDURE TOP$MME_WRDUMP
     15427**DCL
F$DCB.AFTRBLK IN PROCEDURE TOP$MME_WRDUMP
     15443**DCL
F$DCB.AGE IN PROCEDURE TOP$MME_WRDUMP
     15454**DCL
F$DCB.ALTKEYX IN PROCEDURE TOP$MME_WRDUMP
     15434**DCL
F$DCB.AMFLG IN PROCEDURE TOP$MME_WRDUMP
     15440**DCL
PL6.E3A0      #001=TOP$POLTS File=TOP$POLTS.:E05TSI                              WED 07/30/97 06:30 Page:836
F$DCB.AMFLG.ACCF IN PROCEDURE TOP$MME_WRDUMP
     15440**DCL
F$DCB.AMFLG.ACSF IN PROCEDURE TOP$MME_WRDUMP
     15440**DCL
F$DCB.AMFLG.INSF IN PROCEDURE TOP$MME_WRDUMP
     15440**DCL
F$DCB.AMFLG.PROF IN PROCEDURE TOP$MME_WRDUMP
     15440**DCL
F$DCB.AMFLG.SNLF IN PROCEDURE TOP$MME_WRDUMP
     15440**DCL
F$DCB.AMFLG.USRF IN PROCEDURE TOP$MME_WRDUMP
     15440**DCL
F$DCB.AMR# IN PROCEDURE TOP$MME_WRDUMP
     15422**DCL
F$DCB.AMRSETSTA IN PROCEDURE TOP$MME_WRDUMP
     15421**DCL
F$DCB.ANSISPANSEQ# IN PROCEDURE TOP$MME_WRDUMP
     15437**DCL
F$DCB.ASN# IN PROCEDURE TOP$MME_WRDUMP
     15424**DCL
F$DCB.ATTR.APL# IN PROCEDURE TOP$MME_WRDUMP
     15429**DCL
F$DCB.ATTR.BIN# IN PROCEDURE TOP$MME_WRDUMP
     15429**DCL
F$DCB.ATTR.DENS# IN PROCEDURE TOP$MME_WRDUMP
     15428**DCL
F$DCB.ATTR.GRLGL# IN PROCEDURE TOP$MME_WRDUMP
     15428**DCL
F$DCB.ATTR.LOWERCASE# IN PROCEDURE TOP$MME_WRDUMP
     15429**DCL
F$DCB.ATTR.NATL# IN PROCEDURE TOP$MME_WRDUMP
     15428**DCL
F$DCB.ATTR.NOXLATE# IN PROCEDURE TOP$MME_WRDUMP
     15428**DCL
F$DCB.ATTR.TRANSLGL# IN PROCEDURE TOP$MME_WRDUMP
     15428**DCL
PL6.E3A0      #001=TOP$POLTS File=TOP$POLTS.:E05TSI                              WED 07/30/97 06:30 Page:837
F$DCB.ATTR.TRUOVRPRT# IN PROCEDURE TOP$MME_WRDUMP
     15428**DCL
F$DCB.ATTR.UPPERCASE# IN PROCEDURE TOP$MME_WRDUMP
     15428**DCL
F$DCB.AU# IN PROCEDURE TOP$MME_WRDUMP
     15421**DCL
F$DCB.AUTHFFLG IN PROCEDURE TOP$MME_WRDUMP
     15435**DCL
F$DCB.AUTHFFLG.AU# IN PROCEDURE TOP$MME_WRDUMP
     15437**DCL
F$DCB.AUTHFFLG.AURD# IN PROCEDURE TOP$MME_WRDUMP
     15437**DCL
F$DCB.AUTHFFLG.CREATE# IN PROCEDURE TOP$MME_WRDUMP
     15437**DCL
F$DCB.AUTHFFLG.DELF# IN PROCEDURE TOP$MME_WRDUMP
     15436**DCL
F$DCB.AUTHFFLG.DELR# IN PROCEDURE TOP$MME_WRDUMP
     15436**DCL
F$DCB.AUTHFFLG.EXEC# IN PROCEDURE TOP$MME_WRDUMP
     15436**DCL
F$DCB.AUTHFFLG.NOLIST# IN PROCEDURE TOP$MME_WRDUMP
     15436**DCL
F$DCB.AUTHFFLG.READ# IN PROCEDURE TOP$MME_WRDUMP
     15436**DCL
F$DCB.AUTHFFLG.REATTR# IN PROCEDURE TOP$MME_WRDUMP
     15436**DCL
F$DCB.AUTHFFLG.TCTL# IN PROCEDURE TOP$MME_WRDUMP
     15437**DCL
F$DCB.AUTHFFLG.UPD# IN PROCEDURE TOP$MME_WRDUMP
     15436**DCL
F$DCB.AUTHFFLG.WNEW# IN PROCEDURE TOP$MME_WRDUMP
     15436**DCL
F$DCB.BADARS# IN PROCEDURE TOP$MME_WRDUMP
     15438**DCL
F$DCB.BFR IN PROCEDURE TOP$MME_WRDUMP
     15454**DCL
PL6.E3A0      #001=TOP$POLTS File=TOP$POLTS.:E05TSI                              WED 07/30/97 06:30 Page:838
F$DCB.BFR.BUFUP IN PROCEDURE TOP$MME_WRDUMP
     15455**DCL
F$DCB.BFR.BUFX IN PROCEDURE TOP$MME_WRDUMP
     15455**DCL
F$DCB.BFR.CHNG IN PROCEDURE TOP$MME_WRDUMP
     15455**DCL
F$DCB.BFR.CVM IN PROCEDURE TOP$MME_WRDUMP
     15455**DCL
F$DCB.BFR.DA IN PROCEDURE TOP$MME_WRDUMP
     15455**DCL
F$DCB.BFR.SCRUB IN PROCEDURE TOP$MME_WRDUMP
     15455**DCL
F$DCB.BFR1 IN PROCEDURE TOP$MME_WRDUMP
     15455**DCL
F$DCB.BFR1.CX IN PROCEDURE TOP$MME_WRDUMP
     15456**DCL
F$DCB.BFR1.FLAGS IN PROCEDURE TOP$MME_WRDUMP
     15455**DCL
F$DCB.BFR1.FLAGS.ONE_WORD_HEADER IN PROCEDURE TOP$MME_WRDUMP
     15455**DCL
F$DCB.BFR1.SIZ IN PROCEDURE TOP$MME_WRDUMP
     15456**DCL
F$DCB.BLKL# IN PROCEDURE TOP$MME_WRDUMP
     15425**DCL
F$DCB.BLKLEN IN PROCEDURE TOP$MME_WRDUMP
     15448**DCL
F$DCB.BLOCKED# IN PROCEDURE TOP$MME_WRDUMP
     15423**DCL
F$DCB.BOL# IN PROCEDURE TOP$MME_WRDUMP
     15426**DCL
F$DCB.BUPF IN PROCEDURE TOP$MME_WRDUMP
     15413**DCL
F$DCB.BUPM# IN PROCEDURE TOP$MME_WRDUMP
     15424**DCL
F$DCB.BYTESLEFT IN PROCEDURE TOP$MME_WRDUMP
     15447**DCL
PL6.E3A0      #001=TOP$POLTS File=TOP$POLTS.:E05TSI                              WED 07/30/97 06:30 Page:839
F$DCB.CACHE IN PROCEDURE TOP$MME_WRDUMP
     15442**DCL
F$DCB.CBUFNUM IN PROCEDURE TOP$MME_WRDUMP
     15446**DCL
F$DCB.CFU$ IN PROCEDURE TOP$MME_WRDUMP
     15444**DCL
F$DCB.CHAIN# IN PROCEDURE TOP$MME_WRDUMP
     15430**DCL
F$DCB.CHANTIME# IN PROCEDURE TOP$MME_WRDUMP
     15430**DCL
F$DCB.CNVRT# IN PROCEDURE TOP$MME_WRDUMP
     15422**DCL
F$DCB.CODE16$ IN PROCEDURE TOP$MME_WRDUMP
     15434**DCL
F$DCB.COMP# IN PROCEDURE TOP$MME_WRDUMP
     15423**DCL
F$DCB.CONNCT# IN PROCEDURE TOP$MME_WRDUMP
     15429**DCL
F$DCB.CONT IN PROCEDURE TOP$MME_WRDUMP
     15442**DCL
F$DCB.CRECNO IN PROCEDURE TOP$MME_WRDUMP
     15447**DCL
F$DCB.CRECX IN PROCEDURE TOP$MME_WRDUMP
     15446**DCL
F$DCB.CSEED IN PROCEDURE TOP$MME_WRDUMP
     15447**DCL
F$DCB.CTG# IN PROCEDURE TOP$MME_WRDUMP
     15423**DCL
F$DCB.CTLCMDIN IN PROCEDURE TOP$MME_WRDUMP
     15451**DCL
F$DCB.CVOL# IN PROCEDURE TOP$MME_WRDUMP
     15423**DCL
F$DCB.CWORD IN PROCEDURE TOP$MME_WRDUMP
     15452**DCL
F$DCB.CX IN PROCEDURE TOP$MME_WRDUMP
     15452**DCL
PL6.E3A0      #001=TOP$POLTS File=TOP$POLTS.:E05TSI                              WED 07/30/97 06:30 Page:840
F$DCB.DBGDCBNO# IN PROCEDURE TOP$MME_WRDUMP
     15425**DCL
F$DCB.DBGSYSID# IN PROCEDURE TOP$MME_WRDUMP
     15425**DCL
F$DCB.DCB# IN PROCEDURE TOP$MME_WRDUMP
     15437**DCL
F$DCB.DCBNAME IN PROCEDURE TOP$MME_WRDUMP
     15456**DCL
F$DCB.DCBNAME.N IN PROCEDURE TOP$MME_WRDUMP
     15457**DCL
F$DCB.DCBNAME.S IN PROCEDURE TOP$MME_WRDUMP
     15457**DCL
F$DCB.DCBNAME.X IN PROCEDURE TOP$MME_WRDUMP
     15457**DCL
F$DCB.DCT$ IN PROCEDURE TOP$MME_WRDUMP
     15432**DCL
F$DCB.DDEV IN PROCEDURE TOP$MME_WRDUMP
     15415**DCL
F$DCB.DDEV.CP# IN PROCEDURE TOP$MME_WRDUMP
     15415**DCL
F$DCB.DDEV.GR# IN PROCEDURE TOP$MME_WRDUMP
     15416**DCL
F$DCB.DDEV.IC# IN PROCEDURE TOP$MME_WRDUMP
     15415**DCL
F$DCB.DDEV.LP# IN PROCEDURE TOP$MME_WRDUMP
     15415**DCL
F$DCB.DDEV.UCOUT# IN PROCEDURE TOP$MME_WRDUMP
     15416**DCL
F$DCB.DDEV.XEQ# IN PROCEDURE TOP$MME_WRDUMP
     15416**DCL
F$DCB.DECRYPT IN PROCEDURE TOP$MME_WRDUMP
     15450**DCL
F$DCB.DENSITY# IN PROCEDURE TOP$MME_WRDUMP
     15430**DCL
F$DCB.DESC IN PROCEDURE TOP$MME_WRDUMP
     15416**DCL
PL6.E3A0      #001=TOP$POLTS File=TOP$POLTS.:E05TSI                              WED 07/30/97 06:30 Page:841
F$DCB.DESC.ACTIVE# IN PROCEDURE TOP$MME_WRDUMP
     15418**DCL
F$DCB.DESC.ARCHIVE# IN PROCEDURE TOP$MME_WRDUMP
     15417**DCL
F$DCB.DESC.BAD# IN PROCEDURE TOP$MME_WRDUMP
     15417**DCL
F$DCB.DESC.BUF# IN PROCEDURE TOP$MME_WRDUMP
     15417**DCL
F$DCB.DESC.BUPM# IN PROCEDURE TOP$MME_WRDUMP
     15417**DCL
F$DCB.DESC.DELF# IN PROCEDURE TOP$MME_WRDUMP
     15416**DCL
F$DCB.DESC.FETCH# IN PROCEDURE TOP$MME_WRDUMP
     15418**DCL
F$DCB.DESC.NBUF# IN PROCEDURE TOP$MME_WRDUMP
     15417**DCL
F$DCB.DESC.NOLIST# IN PROCEDURE TOP$MME_WRDUMP
     15417**DCL
F$DCB.DESC.ODSTOW# IN PROCEDURE TOP$MME_WRDUMP
     15417**DCL
F$DCB.DESC.QS# IN PROCEDURE TOP$MME_WRDUMP
     15417**DCL
F$DCB.DESC.TERMINATE# IN PROCEDURE TOP$MME_WRDUMP
     15418**DCL
F$DCB.DESC.TPB# IN PROCEDURE TOP$MME_WRDUMP
     15418**DCL
F$DCB.DEVADR IN PROCEDURE TOP$MME_WRDUMP
     15432**DCL
F$DCB.DEVADR.CHAN# IN PROCEDURE TOP$MME_WRDUMP
     15433**DCL
F$DCB.DEVADR.DVN# IN PROCEDURE TOP$MME_WRDUMP
     15433**DCL
F$DCB.DEVADR.IOM# IN PROCEDURE TOP$MME_WRDUMP
     15433**DCL
F$DCB.DISP# IN PROCEDURE TOP$MME_WRDUMP
     15424**DCL
PL6.E3A0      #001=TOP$POLTS File=TOP$POLTS.:E05TSI                              WED 07/30/97 06:30 Page:842
F$DCB.DQH$ IN PROCEDURE TOP$MME_WRDUMP
     15431**DCL
F$DCB.DVBYTE IN PROCEDURE TOP$MME_WRDUMP
     15412**DCL
F$DCB.DVBYTE.BIN# IN PROCEDURE TOP$MME_WRDUMP
     15412**DCL
F$DCB.DVBYTE.TOP# IN PROCEDURE TOP$MME_WRDUMP
     15412**DCL
F$DCB.DVBYTE.TRANS# IN PROCEDURE TOP$MME_WRDUMP
     15412**DCL
F$DCB.DVBYTE.VFC# IN PROCEDURE TOP$MME_WRDUMP
     15412**DCL
F$DCB.DVFC# IN PROCEDURE TOP$MME_WRDUMP
     15431**DCL
F$DCB.DVTYPE# IN PROCEDURE TOP$MME_WRDUMP
     15424**DCL
F$DCB.EBCDIC# IN PROCEDURE TOP$MME_WRDUMP
     15422**DCL
F$DCB.ENQF IN PROCEDURE TOP$MME_WRDUMP
     15442**DCL
F$DCB.EOMVAL# IN PROCEDURE TOP$MME_WRDUMP
     15413**DCL
F$DCB.EOMVAL#.VALUE# IN PROCEDURE TOP$MME_WRDUMP
     15414**DCL
F$DCB.EOMVAL#.VFLG# IN PROCEDURE TOP$MME_WRDUMP
     15413**DCL
F$DCB.EOP IN PROCEDURE TOP$MME_WRDUMP
     15439**DCL
F$DCB.EVENT IN PROCEDURE TOP$MME_WRDUMP
     15434**DCL
F$DCB.EXIST# IN PROCEDURE TOP$MME_WRDUMP
     15423**DCL
F$DCB.EXPIRE# IN PROCEDURE TOP$MME_WRDUMP
     15426**DCL
F$DCB.FCI# IN PROCEDURE TOP$MME_WRDUMP
     15422**DCL
PL6.E3A0      #001=TOP$POLTS File=TOP$POLTS.:E05TSI                              WED 07/30/97 06:30 Page:843
F$DCB.FCN IN PROCEDURE TOP$MME_WRDUMP
     15448**DCL
F$DCB.FCN.CNT IN PROCEDURE TOP$MME_WRDUMP
     15448**DCL
F$DCB.FCN.F IN PROCEDURE TOP$MME_WRDUMP
     15448**DCL
F$DCB.FDCM IN PROCEDURE TOP$MME_WRDUMP
     15447**DCL
F$DCB.FEPIO IN PROCEDURE TOP$MME_WRDUMP
     15454**DCL
F$DCB.FEPIO.BPP IN PROCEDURE TOP$MME_WRDUMP
     15454**DCL
F$DCB.FEPIO.BUFX IN PROCEDURE TOP$MME_WRDUMP
     15454**DCL
F$DCB.FEPIO.EVENT IN PROCEDURE TOP$MME_WRDUMP
     15454**DCL
F$DCB.FEPIO.KEYX IN PROCEDURE TOP$MME_WRDUMP
     15454**DCL
F$DCB.FEPIO.KPP IN PROCEDURE TOP$MME_WRDUMP
     15454**DCL
F$DCB.FEPIO2 IN PROCEDURE TOP$MME_WRDUMP
     15456**DCL
F$DCB.FEPIO3 IN PROCEDURE TOP$MME_WRDUMP
     15456**DCL
F$DCB.FEPSIZ IN PROCEDURE TOP$MME_WRDUMP
     15453**DCL
F$DCB.FEPSIZ.BUF IN PROCEDURE TOP$MME_WRDUMP
     15453**DCL
F$DCB.FEPSIZ.KEY IN PROCEDURE TOP$MME_WRDUMP
     15453**DCL
F$DCB.FEXT IN PROCEDURE TOP$MME_WRDUMP
     15439**DCL
F$DCB.FEXTX IN PROCEDURE TOP$MME_WRDUMP
     15426**DCL
F$DCB.FFLG IN PROCEDURE TOP$MME_WRDUMP
     15414**DCL
PL6.E3A0      #001=TOP$POLTS File=TOP$POLTS.:E05TSI                              WED 07/30/97 06:30 Page:844
F$DCB.FFLG.AU# IN PROCEDURE TOP$MME_WRDUMP
     15415**DCL
F$DCB.FFLG.AURD# IN PROCEDURE TOP$MME_WRDUMP
     15415**DCL
F$DCB.FFLG.CREATE# IN PROCEDURE TOP$MME_WRDUMP
     15415**DCL
F$DCB.FFLG.DELF# IN PROCEDURE TOP$MME_WRDUMP
     15414**DCL
F$DCB.FFLG.DELR# IN PROCEDURE TOP$MME_WRDUMP
     15414**DCL
F$DCB.FFLG.EXEC# IN PROCEDURE TOP$MME_WRDUMP
     15415**DCL
F$DCB.FFLG.NOLIST# IN PROCEDURE TOP$MME_WRDUMP
     15414**DCL
F$DCB.FFLG.READ# IN PROCEDURE TOP$MME_WRDUMP
     15414**DCL
F$DCB.FFLG.REATTR# IN PROCEDURE TOP$MME_WRDUMP
     15414**DCL
F$DCB.FFLG.TCTL# IN PROCEDURE TOP$MME_WRDUMP
     15415**DCL
F$DCB.FFLG.UPD# IN PROCEDURE TOP$MME_WRDUMP
     15414**DCL
F$DCB.FFLG.WNEW# IN PROCEDURE TOP$MME_WRDUMP
     15414**DCL
F$DCB.FIELDX IN PROCEDURE TOP$MME_WRDUMP
     15434**DCL
F$DCB.FLPW# IN PROCEDURE TOP$MME_WRDUMP
     15409**DCL
F$DCB.FMOD IN PROCEDURE TOP$MME_WRDUMP
     15439**DCL
F$DCB.FPRGX IN PROCEDURE TOP$MME_WRDUMP
     15434**DCL
F$DCB.FPSTR IN PROCEDURE TOP$MME_WRDUMP
     15449**DCL
F$DCB.FTAM IN PROCEDURE TOP$MME_WRDUMP
     15443**DCL
PL6.E3A0      #001=TOP$POLTS File=TOP$POLTS.:E05TSI                              WED 07/30/97 06:30 Page:845
F$DCB.FTAM.CTX IN PROCEDURE TOP$MME_WRDUMP
     15444**DCL
F$DCB.FTAM.PMME IN PROCEDURE TOP$MME_WRDUMP
     15444**DCL
F$DCB.FTAM.USR IN PROCEDURE TOP$MME_WRDUMP
     15444**DCL
F$DCB.FUN# IN PROCEDURE TOP$MME_WRDUMP
     15424**DCL
F$DCB.GDISP IN PROCEDURE TOP$MME_WRDUMP
     15450**DCL
F$DCB.GHSTACS# IN PROCEDURE TOP$MME_WRDUMP
     15433**DCL
F$DCB.GRPOS IN PROCEDURE TOP$MME_WRDUMP
     15442**DCL
F$DCB.GTYP IN PROCEDURE TOP$MME_WRDUMP
     15439**DCL
F$DCB.HASH IN PROCEDURE TOP$MME_WRDUMP
     15447**DCL
F$DCB.IASN IN PROCEDURE TOP$MME_WRDUMP
     15452**DCL
F$DCB.ID IN PROCEDURE TOP$MME_WRDUMP
     15453**DCL
F$DCB.ID.DA IN PROCEDURE TOP$MME_WRDUMP
     15453**DCL
F$DCB.ID.GX IN PROCEDURE TOP$MME_WRDUMP
     15453**DCL
F$DCB.IFMT IN PROCEDURE TOP$MME_WRDUMP
     15451**DCL
F$DCB.IGNOREFSN# IN PROCEDURE TOP$MME_WRDUMP
     15421**DCL
F$DCB.INDX IN PROCEDURE TOP$MME_WRDUMP
     15448**DCL
F$DCB.IOERROK# IN PROCEDURE TOP$MME_WRDUMP
     15421**DCL
F$DCB.IORG IN PROCEDURE TOP$MME_WRDUMP
     15446**DCL
PL6.E3A0      #001=TOP$POLTS File=TOP$POLTS.:E05TSI                              WED 07/30/97 06:30 Page:846
F$DCB.IRRECX IN PROCEDURE TOP$MME_WRDUMP
     15438**DCL
F$DCB.IWL IN PROCEDURE TOP$MME_WRDUMP
     15451**DCL
F$DCB.IWL.HDRIWL IN PROCEDURE TOP$MME_WRDUMP
     15451**DCL
F$DCB.IWL.SEQIWL IN PROCEDURE TOP$MME_WRDUMP
     15451**DCL
F$DCB.IWL.TABIWL IN PROCEDURE TOP$MME_WRDUMP
     15451**DCL
F$DCB.JRNLBYPASS# IN PROCEDURE TOP$MME_WRDUMP
     15433**DCL
F$DCB.KEYL# IN PROCEDURE TOP$MME_WRDUMP
     15426**DCL
F$DCB.KEYTYPE# IN PROCEDURE TOP$MME_WRDUMP
     15435**DCL
F$DCB.KEYX# IN PROCEDURE TOP$MME_WRDUMP
     15426**DCL
F$DCB.KFIELDX IN PROCEDURE TOP$MME_WRDUMP
     15435**DCL
F$DCB.LASTKEY IN PROCEDURE TOP$MME_WRDUMP
     15443**DCL
F$DCB.LASTKEY$ IN PROCEDURE TOP$MME_WRDUMP
     15443**DCL
F$DCB.LDCTX IN PROCEDURE TOP$MME_WRDUMP
     15432**DCL
F$DCB.LDFLG IN PROCEDURE TOP$MME_WRDUMP
     15441**DCL
F$DCB.LINES# IN PROCEDURE TOP$MME_WRDUMP
     15431**DCL
F$DCB.LOAD# IN PROCEDURE TOP$MME_WRDUMP
     15421**DCL
F$DCB.LOGSEC IN PROCEDURE TOP$MME_WRDUMP
     15450**DCL
F$DCB.LPOOL IN PROCEDURE TOP$MME_WRDUMP
     15444**DCL
PL6.E3A0      #001=TOP$POLTS File=TOP$POLTS.:E05TSI                              WED 07/30/97 06:30 Page:847
F$DCB.LRDL0# IN PROCEDURE TOP$MME_WRDUMP
     15427**DCL
F$DCB.LSLIDE# IN PROCEDURE TOP$MME_WRDUMP
     15427**DCL
F$DCB.LSTAOR# IN PROCEDURE TOP$MME_WRDUMP
     15421**DCL
F$DCB.LSTBLK IN PROCEDURE TOP$MME_WRDUMP
     15443**DCL
F$DCB.MAXVOL# IN PROCEDURE TOP$MME_WRDUMP
     15430**DCL
F$DCB.MEDIA IN PROCEDURE TOP$MME_WRDUMP
     15451**DCL
F$DCB.MODCNT IN PROCEDURE TOP$MME_WRDUMP
     15449**DCL
F$DCB.MOUNT IN PROCEDURE TOP$MME_WRDUMP
     15441**DCL
F$DCB.MOVED IN PROCEDURE TOP$MME_WRDUMP
     15452**DCL
F$DCB.MPC$ IN PROCEDURE TOP$MME_WRDUMP
     15432**DCL
F$DCB.MUST_CVOL IN PROCEDURE TOP$MME_WRDUMP
     15440**DCL
F$DCB.NAME# IN PROCEDURE TOP$MME_WRDUMP
     15419**DCL
F$DCB.NAME#.C17 IN PROCEDURE TOP$MME_WRDUMP
     15419**DCL
F$DCB.NAME#.C17.CC IN PROCEDURE TOP$MME_WRDUMP
     15419**DCL
F$DCB.NAME#.L IN PROCEDURE TOP$MME_WRDUMP
     15419**DCL
F$DCB.NEW_FSECT IN PROCEDURE TOP$MME_WRDUMP
     15441**DCL
F$DCB.OLDIOERR IN PROCEDURE TOP$MME_WRDUMP
     15450**DCL
F$DCB.OWNER IN PROCEDURE TOP$MME_WRDUMP
     15441**DCL
PL6.E3A0      #001=TOP$POLTS File=TOP$POLTS.:E05TSI                              WED 07/30/97 06:30 Page:848
F$DCB.PASS# IN PROCEDURE TOP$MME_WRDUMP
     15419**DCL
F$DCB.PASSF# IN PROCEDURE TOP$MME_WRDUMP
     15422**DCL
F$DCB.PATH IN PROCEDURE TOP$MME_WRDUMP
     15438**DCL
F$DCB.PATH.CHAN# IN PROCEDURE TOP$MME_WRDUMP
     15438**DCL
F$DCB.PATH.IOM# IN PROCEDURE TOP$MME_WRDUMP
     15438**DCL
F$DCB.PGINGRAN IN PROCEDURE TOP$MME_WRDUMP
     15450**DCL
F$DCB.PRIVOPN IN PROCEDURE TOP$MME_WRDUMP
     15450**DCL
F$DCB.PSN# IN PROCEDURE TOP$MME_WRDUMP
     15419**DCL
F$DCB.QISS# IN PROCEDURE TOP$MME_WRDUMP
     15421**DCL
F$DCB.RA IN PROCEDURE TOP$MME_WRDUMP
     15442**DCL
F$DCB.RDL0# IN PROCEDURE TOP$MME_WRDUMP
     15413**DCL
F$DCB.REALSPAN IN PROCEDURE TOP$MME_WRDUMP
     15450**DCL
F$DCB.RECL# IN PROCEDURE TOP$MME_WRDUMP
     15425**DCL
F$DCB.RESNT IN PROCEDURE TOP$MME_WRDUMP
     15420**DCL
F$DCB.RESNT.NUM IN PROCEDURE TOP$MME_WRDUMP
     15420**DCL
F$DCB.RESNT.TYP IN PROCEDURE TOP$MME_WRDUMP
     15420**DCL
F$DCB.RETRYCNT# IN PROCEDURE TOP$MME_WRDUMP
     15416**DCL
F$DCB.RPOS IN PROCEDURE TOP$MME_WRDUMP
     15442**DCL
PL6.E3A0      #001=TOP$POLTS File=TOP$POLTS.:E05TSI                              WED 07/30/97 06:30 Page:849
F$DCB.SEED# IN PROCEDURE TOP$MME_WRDUMP
     15439**DCL
F$DCB.SEGX IN PROCEDURE TOP$MME_WRDUMP
     15449**DCL
F$DCB.SEQ# IN PROCEDURE TOP$MME_WRDUMP
     15431**DCL
F$DCB.SEQCOL# IN PROCEDURE TOP$MME_WRDUMP
     15431**DCL
F$DCB.SEQID# IN PROCEDURE TOP$MME_WRDUMP
     15431**DCL
F$DCB.SETSTA$ IN PROCEDURE TOP$MME_WRDUMP
     15418**DCL
F$DCB.SEZ_OK IN PROCEDURE TOP$MME_WRDUMP
     15440**DCL
F$DCB.SHARE# IN PROCEDURE TOP$MME_WRDUMP
     15423**DCL
F$DCB.SHARED IN PROCEDURE TOP$MME_WRDUMP
     15439**DCL
F$DCB.SLIDE# IN PROCEDURE TOP$MME_WRDUMP
     15413**DCL
F$DCB.SPAN IN PROCEDURE TOP$MME_WRDUMP
     15441**DCL
F$DCB.SPANNED# IN PROCEDURE TOP$MME_WRDUMP
     15423**DCL
F$DCB.SPARE# IN PROCEDURE TOP$MME_WRDUMP
     15427**DCL
F$DCB.STARF IN PROCEDURE TOP$MME_WRDUMP
     15439**DCL
F$DCB.STARTX IN PROCEDURE TOP$MME_WRDUMP
     15435**DCL
F$DCB.STARX IN PROCEDURE TOP$MME_WRDUMP
     15442**DCL
F$DCB.STR# IN PROCEDURE TOP$MME_WRDUMP
     15449**DCL
F$DCB.SYSID# IN PROCEDURE TOP$MME_WRDUMP
     15426**DCL
PL6.E3A0      #001=TOP$POLTS File=TOP$POLTS.:E05TSI                              WED 07/30/97 06:30 Page:850
F$DCB.TAPTYP IN PROCEDURE TOP$MME_WRDUMP
     15445**DCL
F$DCB.TAPTYP.CP6F IN PROCEDURE TOP$MME_WRDUMP
     15445**DCL
F$DCB.TAPTYP.HAVLASTKEY IN PROCEDURE TOP$MME_WRDUMP
     15445**DCL
F$DCB.TAPTYP.MANAGED IN PROCEDURE TOP$MME_WRDUMP
     15446**DCL
F$DCB.TAPTYP.NOCVOL IN PROCEDURE TOP$MME_WRDUMP
     15446**DCL
F$DCB.TAPTYP.PASTFM IN PROCEDURE TOP$MME_WRDUMP
     15446**DCL
F$DCB.TAPTYP.RWASC IN PROCEDURE TOP$MME_WRDUMP
     15445**DCL
F$DCB.TAPTYP.USRBUF IN PROCEDURE TOP$MME_WRDUMP
     15445**DCL
F$DCB.TDALVL IN PROCEDURE TOP$MME_WRDUMP
     15444**DCL
F$DCB.TDEXTST$ IN PROCEDURE TOP$MME_WRDUMP
     15418**DCL
F$DCB.TDFLG IN PROCEDURE TOP$MME_WRDUMP
     15429**DCL
F$DCB.TDFLG.SDSK# IN PROCEDURE TOP$MME_WRDUMP
     15429**DCL
F$DCB.TDSTAT# IN PROCEDURE TOP$MME_WRDUMP
     15420**DCL
F$DCB.TRNC IN PROCEDURE TOP$MME_WRDUMP
     15442**DCL
F$DCB.TYC IN PROCEDURE TOP$MME_WRDUMP
     15409**DCL
F$DCB.TYC.BLNKTP# IN PROCEDURE TOP$MME_WRDUMP
     15409**DCL
F$DCB.TYC.BOF# IN PROCEDURE TOP$MME_WRDUMP
     15409**DCL
F$DCB.TYC.BOT# IN PROCEDURE TOP$MME_WRDUMP
     15409**DCL
PL6.E3A0      #001=TOP$POLTS File=TOP$POLTS.:E05TSI                              WED 07/30/97 06:30 Page:851
F$DCB.TYC.CDALRT# IN PROCEDURE TOP$MME_WRDUMP
     15411**DCL
F$DCB.TYC.CGCRCW IN PROCEDURE TOP$MME_WRDUMP
     15412**DCL
F$DCB.TYC.CGCWRV IN PROCEDURE TOP$MME_WRDUMP
     15412**DCL
F$DCB.TYC.CGFULL IN PROCEDURE TOP$MME_WRDUMP
     15411**DCL
F$DCB.TYC.CGKEYV IN PROCEDURE TOP$MME_WRDUMP
     15411**DCL
F$DCB.TYC.CGLWRV IN PROCEDURE TOP$MME_WRDUMP
     15411**DCL
F$DCB.TYC.DACT# IN PROCEDURE TOP$MME_WRDUMP
     15410**DCL
F$DCB.TYC.DI# IN PROCEDURE TOP$MME_WRDUMP
     15410**DCL
F$DCB.TYC.EGV# IN PROCEDURE TOP$MME_WRDUMP
     15409**DCL
F$DCB.TYC.EOD# IN PROCEDURE TOP$MME_WRDUMP
     15410**DCL
F$DCB.TYC.EOF# IN PROCEDURE TOP$MME_WRDUMP
     15410**DCL
F$DCB.TYC.EOT# IN PROCEDURE TOP$MME_WRDUMP
     15409**DCL
F$DCB.TYC.FRAW# IN PROCEDURE TOP$MME_WRDUMP
     15411**DCL
F$DCB.TYC.IOERR# IN PROCEDURE TOP$MME_WRDUMP
     15410**DCL
F$DCB.TYC.LAST# IN PROCEDURE TOP$MME_WRDUMP
     15411**DCL
F$DCB.TYC.LD# IN PROCEDURE TOP$MME_WRDUMP
     15410**DCL
F$DCB.TYC.LDISC# IN PROCEDURE TOP$MME_WRDUMP
     15410**DCL
F$DCB.TYC.MTRAP# IN PROCEDURE TOP$MME_WRDUMP
     15410**DCL
PL6.E3A0      #001=TOP$POLTS File=TOP$POLTS.:E05TSI                              WED 07/30/97 06:30 Page:852
F$DCB.TYC.OPER# IN PROCEDURE TOP$MME_WRDUMP
     15409**DCL
F$DCB.TYC.PROT# IN PROCEDURE TOP$MME_WRDUMP
     15411**DCL
F$DCB.TYC.TIMO# IN PROCEDURE TOP$MME_WRDUMP
     15411**DCL
F$DCB.TYC.XTRARD IN PROCEDURE TOP$MME_WRDUMP
     15411**DCL
F$DCB.TYPE# IN PROCEDURE TOP$MME_WRDUMP
     15420**DCL
F$DCB.UB$ IN PROCEDURE TOP$MME_WRDUMP
     15448**DCL
F$DCB.UBYTES IN PROCEDURE TOP$MME_WRDUMP
     15448**DCL
F$DCB.UCOUT IN PROCEDURE TOP$MME_WRDUMP
     15445**DCL
F$DCB.UNIQUEBLD IN PROCEDURE TOP$MME_WRDUMP
     15452**DCL
F$DCB.UOPT# IN PROCEDURE TOP$MME_WRDUMP
     15422**DCL
F$DCB.UPDCNT IN PROCEDURE TOP$MME_WRDUMP
     15452**DCL
F$DCB.VFCCHAR# IN PROCEDURE TOP$MME_WRDUMP
     15434**DCL
F$DCB.VOL# IN PROCEDURE TOP$MME_WRDUMP
     15430**DCL
F$DCB.VOLACCESS# IN PROCEDURE TOP$MME_WRDUMP
     15422**DCL
F$DCB.WAIT IN PROCEDURE TOP$MME_WRDUMP
     15442**DCL
F$DCB.WCDATA IN PROCEDURE TOP$MME_WRDUMP
     15445**DCL
F$DCB.WIDTH# IN PROCEDURE TOP$MME_WRDUMP
     15416**DCL
F$DCB.WRCMP IN PROCEDURE TOP$MME_WRDUMP
     15445**DCL
PL6.E3A0      #001=TOP$POLTS File=TOP$POLTS.:E05TSI                              WED 07/30/97 06:30 Page:853
F$DCB.WSR# IN PROCEDURE TOP$MME_WRDUMP
     15427**DCL
F$DCB.XTEND# IN PROCEDURE TOP$MME_WRDUMP
     15423**DCL
F$DCB.XTNSIZE# IN PROCEDURE TOP$MME_WRDUMP
     15427**DCL
FICCDD
     10260**DCL
FICCDD.FLAG#
     10261**DCL
FICCDD.TEST_TYPE#
     10266**DCL
FICCDD IN PROCEDURE BUILD_SCT_FICCDD
     13577**DCL
FILE_NAME.L# IN PROCEDURE GET_DEVICE_CODE
     13460**DCL
FILE_NAME.NAME# IN PROCEDURE GET_DEVICE_CODE
     13460**DCL
FILE_OUTPUT_LINE IN PROCEDURE TOP$MME_WRDUMP
     15370**DCL
GET_POLTS_DCB.DCBNAME_ IN PROCEDURE GET_TEST_DCB
     11009**DCL
GET_POLTS_DCB.DCBNUM_ IN PROCEDURE GET_TEST_DCB
     11009**DCL
GET_POLTS_DCB.V.DCB# IN PROCEDURE GET_TEST_DCB
     11010**DCL
GET_POLTS_DCB.V.MERGE# IN PROCEDURE GET_TEST_DCB
     11010**DCL
GET_POLTS_DCB.V.TEST# IN PROCEDURE GET_TEST_DCB
     11011**DCL
GET_POLTS_DCB.V_ IN PROCEDURE GET_TEST_DCB
     11009**DCL
HEAD_KEY.DATA IN PROCEDURE GET_CHANNEL_DEVICE
     13657**DCL
HEAD_KEY.SIZE IN PROCEDURE GET_CHANNEL_DEVICE
     13656**DCL
PL6.E3A0      #001=TOP$POLTS File=TOP$POLTS.:E05TSI                              WED 07/30/97 06:30 Page:854
ICC IN PROCEDURE TOP$MME_PACMAN
     12336**DCL
ICC.ICCC.CHAN# IN PROCEDURE TOP$MME_PACMAN
     12340**DCL
IMU_KEY.DATA IN PROCEDURE GET_CHANNEL_DEVICE
     13663**DCL
IMU_KEY.SIZE IN PROCEDURE GET_CHANNEL_DEVICE
     13662**DCL
IOM_KEY.DATA IN PROCEDURE GET_CHANNEL_DEVICE
     13660**DCL
IOM_KEY.SIZE IN PROCEDURE GET_CHANNEL_DEVICE
     13659**DCL
IO_ENTRY.W0#
     10270**DCL
IO_ENTRY.W1
     10271**DCL
IO_ENTRY.W10#
     10303**DCL
IO_ENTRY.W2
     10274**DCL
IO_ENTRY.W2.SCT_ADR#
     10277**DCL
IO_ENTRY.W3#
     10279**DCL
IO_ENTRY.W4
     10280**DCL
IO_ENTRY.W6
     10287**DCL
IO_ENTRY.W6.DCW_PTR_2ND#
     10288**DCL
IO_ENTRY.W7
     10290**DCL
IO_ENTRY.W7.PRESELECT_INDEX#
     10292**DCL
IO_ENTRY.W8
     10297**DCL
PL6.E3A0      #001=TOP$POLTS File=TOP$POLTS.:E05TSI                              WED 07/30/97 06:30 Page:855
IO_ENTRY.W9
     10300**DCL
IO_ENTRY IN PROCEDURE GET_SCT_ADR
     14820**DCL
IO_ENTRY.W2 IN PROCEDURE GET_SCT_ADR
     14822**DCL
LIST_ITEM IN PROCEDURE RELEASE_CHANNELS
     12555**DCL
LIST_ITEM.E.BASE_CHN IN PROCEDURE RELEASE_CHANNELS
     12557**DCL
LIST_ITEM.E.FLAGS IN PROCEDURE RELEASE_CHANNELS
     12559**DCL
LIST_ITEM.E.FLAGS.NO_REBOOT IN PROCEDURE RELEASE_CHANNELS
     12560**DCL
LIST_ITEM.E.NUMB_CHN IN PROCEDURE RELEASE_CHANNELS
     12558**DCL
LIST_ITEM.FENCE IN PROCEDURE RELEASE_CHANNELS
     12562**DCL
LIST_ITEM IN PROCEDURE REPORT_CHANNELS
     12471**DCL
LIST_ITEM.E.FLAGS IN PROCEDURE REPORT_CHANNELS
     12475**DCL
LIST_ITEM IN PROCEDURE SUSPEND_CHANNELS
     12419**DCL
LIST_ITEM.E.FLAGS IN PROCEDURE SUSPEND_CHANNELS
     12423**DCL
LIST_ITEM.E.FLAGS.NO_REBOOT IN PROCEDURE SUSPEND_CHANNELS
     12424**DCL
LIST_ITEM.FENCE IN PROCEDURE SUSPEND_CHANNELS
     12426**DCL
LP_OR_FID.PROMPT_ IN PROCEDURE TOP$MME_WRDUMP
     15789**DCL
LP_OR_FID.STATION_ IN PROCEDURE TOP$MME_WRDUMP
     15787**DCL
LP_OR_FID.V.DCB# IN PROCEDURE TOP$MME_WRDUMP
     15791**DCL
PL6.E3A0      #001=TOP$POLTS File=TOP$POLTS.:E05TSI                              WED 07/30/97 06:30 Page:856
LP_OR_FID.V.DVBYTE# IN PROCEDURE TOP$MME_WRDUMP
     15791**DCL
LP_OR_FID.V.DVBYTE#.BIN# IN PROCEDURE TOP$MME_WRDUMP
     15792**DCL
LP_OR_FID.V.DVBYTE#.TRANS# IN PROCEDURE TOP$MME_WRDUMP
     15792**DCL
LP_OR_FID.V.DVBYTE#.VFC# IN PROCEDURE TOP$MME_WRDUMP
     15792**DCL
LP_OR_FID.V_ IN PROCEDURE TOP$MME_WRDUMP
     15785**DCL
M$ACCT
      7294**DCL-ENT
M$ACTIVATE
      7297**DCL-ENT
M$ALIB
      7290**DCL-ENT
M$ASUSER
      7292**DCL-ENT
M$ATTACH
      7299**DCL-ENT
M$BADPP
      7317**DCL-ENT
M$CGCTL
      7298**DCL-ENT
M$CGINFO
      7298**DCL-ENT
M$CHECK
      7279**DCL-ENT
M$CHGUNIT
      7337**DCL-ENT
M$CLRSTK
      7335**DCL-ENT
M$CMDVAR
      7346**DCL-ENT
M$CNFGFILE
      9904**DCL
PL6.E3A0      #001=TOP$POLTS File=TOP$POLTS.:E05TSI                              WED 07/30/97 06:30 Page:857
M$CONFIG
      7307**DCL-ENT
M$CORRES
      7282**DCL-ENT
M$CPEXIT
      7291**DCL-ENT
M$CVM
      7315**DCL-ENT
M$CVOL
      7280**DCL-ENT
M$DCLFLD
      7307**DCL-ENT
M$DEACTIVATE
      7297**DCL-ENT
M$DELREC
      7279**DCL-ENT
M$DEQ
      7344**DCL-ENT
M$DETACH
      7299**DCL-ENT
M$DEVICE
      7281**DCL-ENT
M$DISPLAY
      7344**DCL-ENT
M$DISPRES
      7284**DCL-ENT
M$DLIB
      7290**DCL-ENT
M$DRIBBLE
      7307**DCL-ENT
M$DRTN
      7335**DCL-ENT
M$DSUSER
      7292**DCL-ENT
M$ENQ
      7343**DCL-ENT
PL6.E3A0      #001=TOP$POLTS File=TOP$POLTS.:E05TSI                              WED 07/30/97 06:30 Page:858
M$EOM
      7302**DCL-ENT
M$ERASE
      7308**DCL-ENT
M$ERR
      7289**DCL-ENT
M$ERRMSG
      7340**DCL-ENT
M$EVENT
      7332**DCL-ENT
M$EXHUME
      7341**DCL-ENT
M$EXIT
      7289**DCL-ENT
M$EXTEND
      7281**DCL-ENT
M$FDP
      7313**DCL-ENT
M$FDS
      7312**DCL-ENT
M$FEBOOT
      7305**DCL-ENT
M$FECTL
      7306**DCL-ENT
M$FEDUMP
      7305**DCL-ENT
M$FID
      7340**DCL-ENT
M$FINDPROC
      7294**DCL-ENT
M$FSUSER
      7292**DCL-ENT
M$FVP
      7314**DCL-ENT
M$FWCG
      7298**DCL-ENT
PL6.E3A0      #001=TOP$POLTS File=TOP$POLTS.:E05TSI                              WED 07/30/97 06:30 Page:859
M$GBPL
      7318**DCL-ENT
M$GDDL
      7314**DCL-ENT
M$GDP
      7313**DCL-ENT
M$GDS
      7312**DCL-ENT
M$GETMOUSE
      7323**DCL-ENT
M$GETPM
      7324**DCL-ENT
M$GJOB
      7342**DCL-ENT
M$GLINEATTR
      7302**DCL-ENT
M$GOODPP
      7317**DCL-ENT
M$GPLATEN
      7310**DCL-ENT
M$GPROMPT
      7309**DCL-ENT
M$GTRMATTR
      7303**DCL-ENT
M$GTRMCTL
      7301**DCL-ENT
M$GTRMTAB
      7304**DCL-ENT
M$GVP
      7313**DCL-ENT
M$HELP
      7340**DCL-ENT
M$INT
      7332**DCL-ENT
M$INTRTN
      7293**DCL-ENT
PL6.E3A0      #001=TOP$POLTS File=TOP$POLTS.:E05TSI                              WED 07/30/97 06:30 Page:860
M$IOQ
      7328**DCL-ENT
M$JOBSTATS
      7342**DCL-ENT
M$KEYIN
      7282**DCL-ENT
M$LDEV
      7277**DCL-ENT
M$LDTRC
      7290**DCL-ENT
M$LIMIT
      7283**DCL-ENT
M$LINES
      7282**DCL-ENT
M$LINK
      7289**DCL-ENT
M$MADMUCK
      7285**DCL-ENT
M$MAKUSER
      7316**DCL-ENT
M$MBS
      7284**DCL-ENT
M$MDFFLD
      7308**DCL-ENT
M$MERC
      7333**DCL-ENT
M$MERCS
      7334**DCL-ENT
M$MIRROR
      7328**DCL-ENT
M$MONINFO
      7345**DCL-ENT
M$MPL
      7318**DCL-ENT
M$NODEINFO
      7309**DCL-ENT
PL6.E3A0      #001=TOP$POLTS File=TOP$POLTS.:E05TSI                              WED 07/30/97 06:30 Page:861
M$NXTUSR
      7343**DCL-ENT
M$OCMSG
      7341**DCL-ENT
M$OLAY
      7289**DCL-ENT
M$PAS
      7318**DCL-ENT
M$PATHCON
      7341**DCL-ENT
M$PDS
      7312**DCL-ENT
M$PFIL
      7279**DCL-ENT
M$PLATEN
      7303**DCL-ENT
M$PRECORD
      7281**DCL-ENT
M$PROCNAME
      7294**DCL-ENT
M$PROFILE
      7305**DCL-ENT
M$RACST
      7285**DCL-ENT
M$RDSYSLOG
      7326**DCL-ENT
M$RELDCB
      7283**DCL-ENT
M$RELRES
      7284**DCL-ENT
M$RELSTARF
      7286**DCL-ENT
M$REM
      7286**DCL-ENT
M$RENV
      7333**DCL-ENT
PL6.E3A0      #001=TOP$POLTS File=TOP$POLTS.:E05TSI                              WED 07/30/97 06:30 Page:862
M$REQUIRE
      7285**DCL-ENT
M$RETRY
      7334**DCL-ENT
M$RETRYS
      7334**DCL-ENT
M$REW
      7280**DCL-ENT
M$RLSFLD
      7308**DCL-ENT
M$RPRIV
      7336**DCL-ENT
M$RSPP
      7315**DCL-ENT
M$RSWITCH
      7337**DCL-ENT
M$RUE
      7343**DCL-ENT
M$SAD
      7316**DCL-ENT
M$SAVE
      7292**DCL-ENT
M$SCON
      7293**DCL-ENT
M$SCREECH
      7291**DCL-ENT
M$SENV
      7333**DCL-ENT
M$SETFMA
      7277**DCL-ENT
M$SETFP
      7306**DCL-ENT
M$SINPUT
      7304**DCL-ENT
M$SLCFLD
      7309**DCL-ENT
PL6.E3A0      #001=TOP$POLTS File=TOP$POLTS.:E05TSI                              WED 07/30/97 06:30 Page:863
M$SMOUSE
      7323**DCL-ENT
M$SMPRT
      7315**DCL-ENT
M$SPRIV
      7336**DCL-ENT
M$SSC
      7316**DCL-ENT
M$SSWITCH
      7336**DCL-ENT
M$STATE
      7345**DCL-ENT
M$STD
      7317**DCL-ENT
M$STIMER
      7331**DCL-ENT
M$STLPP
      7314**DCL-ENT
M$STRAP
      7331**DCL-ENT
M$STRMATTR
      7303**DCL-ENT
M$STRMCTL
      7301**DCL-ENT
M$STRMTAB
      7304**DCL-ENT
M$SYMBIO
      7342**DCL-ENT
M$SYSCON
      7328**DCL-ENT
M$SYSID
      7346**DCL-ENT
M$TDREQCPU
      7327**DCL-ENT
M$TEMPWROC
      7321**DCL-ENT
PL6.E3A0      #001=TOP$POLTS File=TOP$POLTS.:E05TSI                              WED 07/30/97 06:30 Page:864
M$TRAP
      7331**DCL-ENT
M$TRMISC
      7306**DCL-ENT
M$TRMPRG
      7302**DCL-ENT
M$TRTN
      7335**DCL-ENT
M$TRUNC
      7278**DCL-ENT
M$TTIMER
      7331**DCL-ENT
M$UC
      7301**DCL
M$UMPL
      7318**DCL-ENT
M$UNFID
      7340**DCL-ENT
M$UNLATCH
      7297**DCL-ENT
M$UNSHARE
      7294**DCL-ENT
M$USRFIELD
      7337**DCL-ENT
M$VIRTUAL
      7312**DCL-ENT
M$WEOF
      7280**DCL-ENT
M$WRSYSLOG
      7326**DCL-ENT
M$XCON
      7332**DCL-ENT
M$XCONRTN
      7293**DCL-ENT
M$XEQTIME
      7345**DCL-ENT
PL6.E3A0      #001=TOP$POLTS File=TOP$POLTS.:E05TSI                              WED 07/30/97 06:30 Page:865
M$XFLUSH
      7286**DCL-ENT
M$XMOUSE
      7323**DCL-ENT
M$XXX
      7289**DCL-ENT
M$YC
      7291**DCL-ENT
MME.INST
      9862**DCL
MME.INST.OP
      9864**DCL
MME.WD_5
      9869**DCL
MME.WD_6
      9870**DCL
MME_W1 IN PROCEDURE TOP$MME_PRTRAN
     12713**DCL
MME_W2 IN PROCEDURE BUILD_SCTWRK
     16344**DCL
MPC.W0#
     10320**DCL
MPC.W1#
     10321**DCL
MPC.W2#
     10322**DCL
MPC.W3#
     10323**DCL
MPC_KEY.SIZE IN PROCEDURE MAP_MPC_DEVICE
     14021**DCL
MREG.E
      9892**DCL
MTAR_DATA IN PROCEDURE SET_MTAR_PERMISSION
     11161**DCL
NEW_ICCDD IN PROCEDURE TOP$MME_ALLOCR
     10856**DCL
PL6.E3A0      #001=TOP$POLTS File=TOP$POLTS.:E05TSI                              WED 07/30/97 06:30 Page:866
ONLY_ICC.CHAN# IN PROCEDURE TOP$MME_PACMAN
     12344**DCL
ONLY_ICC.IOM# IN PROCEDURE TOP$MME_PACMAN
     12343**DCL
OPEN_CONFIG.ACCESS_ IN PROCEDURE GET_DEVICE_CODE
     13306**DCL
OPEN_CONFIG.ACCT_ IN PROCEDURE GET_DEVICE_CODE
     13308**DCL
OPEN_CONFIG.FORM_ IN PROCEDURE GET_DEVICE_CODE
     13312**DCL
OPEN_CONFIG.FPARAM_ IN PROCEDURE GET_DEVICE_CODE
     13309**DCL
OPEN_CONFIG.FPRG_ IN PROCEDURE GET_DEVICE_CODE
     13313**DCL
OPEN_CONFIG.IFPARAM_ IN PROCEDURE GET_DEVICE_CODE
     13309**DCL
OPEN_CONFIG.INSTATTR_ IN PROCEDURE GET_DEVICE_CODE
     13308**DCL
OPEN_CONFIG.IRKEYS_ IN PROCEDURE GET_DEVICE_CODE
     13313**DCL
OPEN_CONFIG.IRREC_ IN PROCEDURE GET_DEVICE_CODE
     13312**DCL
OPEN_CONFIG.NAME_ IN PROCEDURE GET_DEVICE_CODE
     13305**DCL
OPEN_CONFIG.NODENAME_ IN PROCEDURE GET_DEVICE_CODE
     13310**DCL
OPEN_CONFIG.PASS_ IN PROCEDURE GET_DEVICE_CODE
     13306**DCL
OPEN_CONFIG.PROCATTR_ IN PROCEDURE GET_DEVICE_CODE
     13308**DCL
OPEN_CONFIG.RECFIELD_ IN PROCEDURE GET_DEVICE_CODE
     13311**DCL
OPEN_CONFIG.SETSTA_ IN PROCEDURE GET_DEVICE_CODE
     13305**DCL
OPEN_CONFIG.SN_ IN PROCEDURE GET_DEVICE_CODE
     13304**DCL
PL6.E3A0      #001=TOP$POLTS File=TOP$POLTS.:E05TSI                              WED 07/30/97 06:30 Page:867
OPEN_CONFIG.UATTR_ IN PROCEDURE GET_DEVICE_CODE
     13307**DCL
OPEN_CONFIG.V.ACS# IN PROCEDURE GET_DEVICE_CODE
     13324**DCL
OPEN_CONFIG.V.ANSISPANSEQ# IN PROCEDURE GET_DEVICE_CODE
     13337**DCL
OPEN_CONFIG.V.ASN# IN PROCEDURE GET_DEVICE_CODE
     13323**DCL
OPEN_CONFIG.V.ATTR# IN PROCEDURE GET_DEVICE_CODE
     13340**DCL
OPEN_CONFIG.V.AU# IN PROCEDURE GET_DEVICE_CODE
     13342**DCL
OPEN_CONFIG.V.BLKL# IN PROCEDURE GET_DEVICE_CODE
     13330**DCL
OPEN_CONFIG.V.BLOCKED# IN PROCEDURE GET_DEVICE_CODE
     13325**DCL
OPEN_CONFIG.V.BUPM# IN PROCEDURE GET_DEVICE_CODE
     13326**DCL
OPEN_CONFIG.V.CHAIN# IN PROCEDURE GET_DEVICE_CODE
     13339**DCL
OPEN_CONFIG.V.CNVRT# IN PROCEDURE GET_DEVICE_CODE
     13333**DCL
OPEN_CONFIG.V.COMP# IN PROCEDURE GET_DEVICE_CODE
     13325**DCL
OPEN_CONFIG.V.COPIES# IN PROCEDURE GET_DEVICE_CODE
     13345**DCL
OPEN_CONFIG.V.CTG# IN PROCEDURE GET_DEVICE_CODE
     13317**DCL
OPEN_CONFIG.V.CVOL# IN PROCEDURE GET_DEVICE_CODE
     13318**DCL
OPEN_CONFIG.V.DBGDCBNO# IN PROCEDURE GET_DEVICE_CODE
     13344**DCL
OPEN_CONFIG.V.DBGSYSID# IN PROCEDURE GET_DEVICE_CODE
     13344**DCL
OPEN_CONFIG.V.DCB# IN PROCEDURE GET_DEVICE_CODE
     13313**DCL
PL6.E3A0      #001=TOP$POLTS File=TOP$POLTS.:E05TSI                              WED 07/30/97 06:30 Page:868
OPEN_CONFIG.V.DCBCONLGL# IN PROCEDURE GET_DEVICE_CODE
     13335**DCL
OPEN_CONFIG.V.DELETE# IN PROCEDURE GET_DEVICE_CODE
     13315**DCL
OPEN_CONFIG.V.DENSITY# IN PROCEDURE GET_DEVICE_CODE
     13345**DCL
OPEN_CONFIG.V.DISP# IN PROCEDURE GET_DEVICE_CODE
     13329**DCL
OPEN_CONFIG.V.DVFC# IN PROCEDURE GET_DEVICE_CODE
     13340**DCL
OPEN_CONFIG.V.EBCDIC# IN PROCEDURE GET_DEVICE_CODE
     13333**DCL
OPEN_CONFIG.V.EVENT# IN PROCEDURE GET_DEVICE_CODE
     13343**DCL
OPEN_CONFIG.V.EXIST# IN PROCEDURE GET_DEVICE_CODE
     13317**DCL
OPEN_CONFIG.V.EXPIRE# IN PROCEDURE GET_DEVICE_CODE
     13333**DCL
OPEN_CONFIG.V.FINDPOS# IN PROCEDURE GET_DEVICE_CODE
     13319**DCL
OPEN_CONFIG.V.FUN# IN PROCEDURE GET_DEVICE_CODE
     13323**DCL
OPEN_CONFIG.V.GHSTACS# IN PROCEDURE GET_DEVICE_CODE
     13328**DCL
OPEN_CONFIG.V.IGNOREFSN# IN PROCEDURE GET_DEVICE_CODE
     13337**DCL
OPEN_CONFIG.V.INITZ IN PROCEDURE GET_DEVICE_CODE
     13314**DCL
OPEN_CONFIG.V.INITZ.REASSIGN# IN PROCEDURE GET_DEVICE_CODE
     13314**DCL
OPEN_CONFIG.V.INITZ.SCRUB# IN PROCEDURE GET_DEVICE_CODE
     13314**DCL
OPEN_CONFIG.V.IOERROK# IN PROCEDURE GET_DEVICE_CODE
     13335**DCL
OPEN_CONFIG.V.IXTNSIZE# IN PROCEDURE GET_DEVICE_CODE
     13332**DCL
PL6.E3A0      #001=TOP$POLTS File=TOP$POLTS.:E05TSI                              WED 07/30/97 06:30 Page:869
OPEN_CONFIG.V.JRNLBYPASS# IN PROCEDURE GET_DEVICE_CODE
     13327**DCL
OPEN_CONFIG.V.KEYL# IN PROCEDURE GET_DEVICE_CODE
     13329**DCL
OPEN_CONFIG.V.KEYTYPE# IN PROCEDURE GET_DEVICE_CODE
     13339**DCL
OPEN_CONFIG.V.KEYX# IN PROCEDURE GET_DEVICE_CODE
     13328**DCL
OPEN_CONFIG.V.LINES# IN PROCEDURE GET_DEVICE_CODE
     13343**DCL
OPEN_CONFIG.V.LOAD# IN PROCEDURE GET_DEVICE_CODE
     13327**DCL
OPEN_CONFIG.V.LRDL0# IN PROCEDURE GET_DEVICE_CODE
     13331**DCL
OPEN_CONFIG.V.LSLIDE# IN PROCEDURE GET_DEVICE_CODE
     13330**DCL
OPEN_CONFIG.V.LSTAOR# IN PROCEDURE GET_DEVICE_CODE
     13327**DCL
OPEN_CONFIG.V.MAXVOL# IN PROCEDURE GET_DEVICE_CODE
     13339**DCL
OPEN_CONFIG.V.NRECS# IN PROCEDURE GET_DEVICE_CODE
     13332**DCL
OPEN_CONFIG.V.OPER IN PROCEDURE GET_DEVICE_CODE
     13315**DCL
OPEN_CONFIG.V.OPER.MNTONLY# IN PROCEDURE GET_DEVICE_CODE
     13317**DCL
OPEN_CONFIG.V.OPER.NXTA# IN PROCEDURE GET_DEVICE_CODE
     13316**DCL
OPEN_CONFIG.V.OPER.NXTF# IN PROCEDURE GET_DEVICE_CODE
     13316**DCL
OPEN_CONFIG.V.OPER.TEST# IN PROCEDURE GET_DEVICE_CODE
     13315**DCL
OPEN_CONFIG.V.OPER.THISF# IN PROCEDURE GET_DEVICE_CODE
     13316**DCL
OPEN_CONFIG.V.ORG# IN PROCEDURE GET_DEVICE_CODE
     13324**DCL
PL6.E3A0      #001=TOP$POLTS File=TOP$POLTS.:E05TSI                              WED 07/30/97 06:30 Page:870
OPEN_CONFIG.V.OVERFDE# IN PROCEDURE GET_DEVICE_CODE
     13336**DCL
OPEN_CONFIG.V.QISS# IN PROCEDURE GET_DEVICE_CODE
     13342**DCL
OPEN_CONFIG.V.RECL# IN PROCEDURE GET_DEVICE_CODE
     13330**DCL
OPEN_CONFIG.V.RES# IN PROCEDURE GET_DEVICE_CODE
     13328**DCL
OPEN_CONFIG.V.SEED# IN PROCEDURE GET_DEVICE_CODE
     13346**DCL
OPEN_CONFIG.V.SEEDSPECIFIED# IN PROCEDURE GET_DEVICE_CODE
     13337**DCL
OPEN_CONFIG.V.SEQ# IN PROCEDURE GET_DEVICE_CODE
     13341**DCL
OPEN_CONFIG.V.SEQCOL# IN PROCEDURE GET_DEVICE_CODE
     13341**DCL
OPEN_CONFIG.V.SEQID# IN PROCEDURE GET_DEVICE_CODE
     13343**DCL
OPEN_CONFIG.V.SETDCB# IN PROCEDURE GET_DEVICE_CODE
     13314**DCL
OPEN_CONFIG.V.SHARE# IN PROCEDURE GET_DEVICE_CODE
     13318**DCL
OPEN_CONFIG.V.SPANNED# IN PROCEDURE GET_DEVICE_CODE
     13326**DCL
OPEN_CONFIG.V.SPARE# IN PROCEDURE GET_DEVICE_CODE
     13331**DCL
OPEN_CONFIG.V.SRCHCOND IN PROCEDURE GET_DEVICE_CODE
     13319**DCL
OPEN_CONFIG.V.SRCHCOND.ANYF# IN PROCEDURE GET_DEVICE_CODE
     13322**DCL
OPEN_CONFIG.V.SRCHCOND.ARCHIVE# IN PROCEDURE GET_DEVICE_CODE
     13321**DCL
OPEN_CONFIG.V.SRCHCOND.BAD# IN PROCEDURE GET_DEVICE_CODE
     13320**DCL
OPEN_CONFIG.V.SRCHCOND.BUF# IN PROCEDURE GET_DEVICE_CODE
     13320**DCL
PL6.E3A0      #001=TOP$POLTS File=TOP$POLTS.:E05TSI                              WED 07/30/97 06:30 Page:871
OPEN_CONFIG.V.SRCHCOND.DELF# IN PROCEDURE GET_DEVICE_CODE
     13319**DCL
OPEN_CONFIG.V.SRCHCOND.NOLIST# IN PROCEDURE GET_DEVICE_CODE
     13319**DCL
OPEN_CONFIG.V.SRCHCOND.QS# IN PROCEDURE GET_DEVICE_CODE
     13321**DCL
OPEN_CONFIG.V.SRCHCOND.REV# IN PROCEDURE GET_DEVICE_CODE
     13322**DCL
OPEN_CONFIG.V.TERMCONLGL# IN PROCEDURE GET_DEVICE_CODE
     13336**DCL
OPEN_CONFIG.V.TYPE# IN PROCEDURE GET_DEVICE_CODE
     13325**DCL
OPEN_CONFIG.V.UOPT# IN PROCEDURE GET_DEVICE_CODE
     13323**DCL
OPEN_CONFIG.V.VOL# IN PROCEDURE GET_DEVICE_CODE
     13338**DCL
OPEN_CONFIG.V.VOLACCESS# IN PROCEDURE GET_DEVICE_CODE
     13342**DCL
OPEN_CONFIG.V.XONLY# IN PROCEDURE GET_DEVICE_CODE
     13334**DCL
OPEN_CONFIG.V.XTEND# IN PROCEDURE GET_DEVICE_CODE
     13334**DCL
OPEN_CONFIG.V.XTNSIZE# IN PROCEDURE GET_DEVICE_CODE
     13332**DCL
OPEN_CONFIG.VIRTUAL_ IN PROCEDURE GET_DEVICE_CODE
     13305**DCL
OPEN_CONFIG.V_ IN PROCEDURE GET_DEVICE_CODE
     13304**DCL
OPEN_CONFIG.WINDOW_ IN PROCEDURE GET_DEVICE_CODE
     13307**DCL
OPEN_DUMP_FILE.ACCESS_ IN PROCEDURE TOP$MME_WRDUMP
     15695**DCL
OPEN_DUMP_FILE.ACCT_ IN PROCEDURE TOP$MME_WRDUMP
     15697**DCL
OPEN_DUMP_FILE.FORM_ IN PROCEDURE TOP$MME_WRDUMP
     15701**DCL
PL6.E3A0      #001=TOP$POLTS File=TOP$POLTS.:E05TSI                              WED 07/30/97 06:30 Page:872
OPEN_DUMP_FILE.FPARAM_ IN PROCEDURE TOP$MME_WRDUMP
     15698**DCL
OPEN_DUMP_FILE.FPRG_ IN PROCEDURE TOP$MME_WRDUMP
     15702**DCL
OPEN_DUMP_FILE.IFPARAM_ IN PROCEDURE TOP$MME_WRDUMP
     15698**DCL
OPEN_DUMP_FILE.INSTATTR_ IN PROCEDURE TOP$MME_WRDUMP
     15697**DCL
OPEN_DUMP_FILE.IRKEYS_ IN PROCEDURE TOP$MME_WRDUMP
     15702**DCL
OPEN_DUMP_FILE.IRREC_ IN PROCEDURE TOP$MME_WRDUMP
     15701**DCL
OPEN_DUMP_FILE.NAME_ IN PROCEDURE TOP$MME_WRDUMP
     15694**DCL
OPEN_DUMP_FILE.NODENAME_ IN PROCEDURE TOP$MME_WRDUMP
     15699**DCL
OPEN_DUMP_FILE.PASS_ IN PROCEDURE TOP$MME_WRDUMP
     15695**DCL
OPEN_DUMP_FILE.PROCATTR_ IN PROCEDURE TOP$MME_WRDUMP
     15697**DCL
OPEN_DUMP_FILE.RECFIELD_ IN PROCEDURE TOP$MME_WRDUMP
     15700**DCL
OPEN_DUMP_FILE.SETSTA_ IN PROCEDURE TOP$MME_WRDUMP
     15694**DCL
OPEN_DUMP_FILE.SN_ IN PROCEDURE TOP$MME_WRDUMP
     15693**DCL
OPEN_DUMP_FILE.UATTR_ IN PROCEDURE TOP$MME_WRDUMP
     15696**DCL
OPEN_DUMP_FILE.V.ACS# IN PROCEDURE TOP$MME_WRDUMP
     15713**DCL
OPEN_DUMP_FILE.V.ANSISPANSEQ# IN PROCEDURE TOP$MME_WRDUMP
     15726**DCL
OPEN_DUMP_FILE.V.ASN# IN PROCEDURE TOP$MME_WRDUMP
     15712**DCL
OPEN_DUMP_FILE.V.ATTR# IN PROCEDURE TOP$MME_WRDUMP
     15729**DCL
PL6.E3A0      #001=TOP$POLTS File=TOP$POLTS.:E05TSI                              WED 07/30/97 06:30 Page:873
OPEN_DUMP_FILE.V.AU# IN PROCEDURE TOP$MME_WRDUMP
     15731**DCL
OPEN_DUMP_FILE.V.BLKL# IN PROCEDURE TOP$MME_WRDUMP
     15719**DCL
OPEN_DUMP_FILE.V.BLOCKED# IN PROCEDURE TOP$MME_WRDUMP
     15714**DCL
OPEN_DUMP_FILE.V.BUPM# IN PROCEDURE TOP$MME_WRDUMP
     15715**DCL
OPEN_DUMP_FILE.V.CHAIN# IN PROCEDURE TOP$MME_WRDUMP
     15728**DCL
OPEN_DUMP_FILE.V.CNVRT# IN PROCEDURE TOP$MME_WRDUMP
     15722**DCL
OPEN_DUMP_FILE.V.COMP# IN PROCEDURE TOP$MME_WRDUMP
     15714**DCL
OPEN_DUMP_FILE.V.COPIES# IN PROCEDURE TOP$MME_WRDUMP
     15734**DCL
OPEN_DUMP_FILE.V.CTG# IN PROCEDURE TOP$MME_WRDUMP
     15706**DCL
OPEN_DUMP_FILE.V.CVOL# IN PROCEDURE TOP$MME_WRDUMP
     15707**DCL
OPEN_DUMP_FILE.V.DBGDCBNO# IN PROCEDURE TOP$MME_WRDUMP
     15733**DCL
OPEN_DUMP_FILE.V.DBGSYSID# IN PROCEDURE TOP$MME_WRDUMP
     15733**DCL
OPEN_DUMP_FILE.V.DCB# IN PROCEDURE TOP$MME_WRDUMP
     15702**DCL
OPEN_DUMP_FILE.V.DCBCONLGL# IN PROCEDURE TOP$MME_WRDUMP
     15724**DCL
OPEN_DUMP_FILE.V.DELETE# IN PROCEDURE TOP$MME_WRDUMP
     15704**DCL
OPEN_DUMP_FILE.V.DENSITY# IN PROCEDURE TOP$MME_WRDUMP
     15734**DCL
OPEN_DUMP_FILE.V.DISP# IN PROCEDURE TOP$MME_WRDUMP
     15718**DCL
OPEN_DUMP_FILE.V.DVFC# IN PROCEDURE TOP$MME_WRDUMP
     15729**DCL
PL6.E3A0      #001=TOP$POLTS File=TOP$POLTS.:E05TSI                              WED 07/30/97 06:30 Page:874
OPEN_DUMP_FILE.V.EBCDIC# IN PROCEDURE TOP$MME_WRDUMP
     15722**DCL
OPEN_DUMP_FILE.V.EVENT# IN PROCEDURE TOP$MME_WRDUMP
     15732**DCL
OPEN_DUMP_FILE.V.EXIST# IN PROCEDURE TOP$MME_WRDUMP
     15706**DCL
OPEN_DUMP_FILE.V.EXPIRE# IN PROCEDURE TOP$MME_WRDUMP
     15722**DCL
OPEN_DUMP_FILE.V.FINDPOS# IN PROCEDURE TOP$MME_WRDUMP
     15708**DCL
OPEN_DUMP_FILE.V.FUN# IN PROCEDURE TOP$MME_WRDUMP
     15712**DCL
OPEN_DUMP_FILE.V.GHSTACS# IN PROCEDURE TOP$MME_WRDUMP
     15717**DCL
OPEN_DUMP_FILE.V.IGNOREFSN# IN PROCEDURE TOP$MME_WRDUMP
     15726**DCL
OPEN_DUMP_FILE.V.INITZ IN PROCEDURE TOP$MME_WRDUMP
     15703**DCL
OPEN_DUMP_FILE.V.INITZ.REASSIGN# IN PROCEDURE TOP$MME_WRDUMP
     15703**DCL
OPEN_DUMP_FILE.V.INITZ.SCRUB# IN PROCEDURE TOP$MME_WRDUMP
     15703**DCL
OPEN_DUMP_FILE.V.IOERROK# IN PROCEDURE TOP$MME_WRDUMP
     15724**DCL
OPEN_DUMP_FILE.V.IXTNSIZE# IN PROCEDURE TOP$MME_WRDUMP
     15721**DCL
OPEN_DUMP_FILE.V.JRNLBYPASS# IN PROCEDURE TOP$MME_WRDUMP
     15716**DCL
OPEN_DUMP_FILE.V.KEYL# IN PROCEDURE TOP$MME_WRDUMP
     15718**DCL
OPEN_DUMP_FILE.V.KEYTYPE# IN PROCEDURE TOP$MME_WRDUMP
     15728**DCL
OPEN_DUMP_FILE.V.KEYX# IN PROCEDURE TOP$MME_WRDUMP
     15717**DCL
OPEN_DUMP_FILE.V.LINES# IN PROCEDURE TOP$MME_WRDUMP
     15732**DCL
PL6.E3A0      #001=TOP$POLTS File=TOP$POLTS.:E05TSI                              WED 07/30/97 06:30 Page:875
OPEN_DUMP_FILE.V.LOAD# IN PROCEDURE TOP$MME_WRDUMP
     15716**DCL
OPEN_DUMP_FILE.V.LRDL0# IN PROCEDURE TOP$MME_WRDUMP
     15720**DCL
OPEN_DUMP_FILE.V.LSLIDE# IN PROCEDURE TOP$MME_WRDUMP
     15719**DCL
OPEN_DUMP_FILE.V.LSTAOR# IN PROCEDURE TOP$MME_WRDUMP
     15716**DCL
OPEN_DUMP_FILE.V.MAXVOL# IN PROCEDURE TOP$MME_WRDUMP
     15728**DCL
OPEN_DUMP_FILE.V.NRECS# IN PROCEDURE TOP$MME_WRDUMP
     15721**DCL
OPEN_DUMP_FILE.V.OPER IN PROCEDURE TOP$MME_WRDUMP
     15704**DCL
OPEN_DUMP_FILE.V.OPER.MNTONLY# IN PROCEDURE TOP$MME_WRDUMP
     15706**DCL
OPEN_DUMP_FILE.V.OPER.NXTA# IN PROCEDURE TOP$MME_WRDUMP
     15705**DCL
OPEN_DUMP_FILE.V.OPER.NXTF# IN PROCEDURE TOP$MME_WRDUMP
     15705**DCL
OPEN_DUMP_FILE.V.OPER.TEST# IN PROCEDURE TOP$MME_WRDUMP
     15704**DCL
OPEN_DUMP_FILE.V.OPER.THISF# IN PROCEDURE TOP$MME_WRDUMP
     15705**DCL
OPEN_DUMP_FILE.V.ORG# IN PROCEDURE TOP$MME_WRDUMP
     15713**DCL
OPEN_DUMP_FILE.V.OVERFDE# IN PROCEDURE TOP$MME_WRDUMP
     15725**DCL
OPEN_DUMP_FILE.V.QISS# IN PROCEDURE TOP$MME_WRDUMP
     15731**DCL
OPEN_DUMP_FILE.V.RECL# IN PROCEDURE TOP$MME_WRDUMP
     15719**DCL
OPEN_DUMP_FILE.V.RES# IN PROCEDURE TOP$MME_WRDUMP
     15717**DCL
OPEN_DUMP_FILE.V.SEED# IN PROCEDURE TOP$MME_WRDUMP
     15735**DCL
PL6.E3A0      #001=TOP$POLTS File=TOP$POLTS.:E05TSI                              WED 07/30/97 06:30 Page:876
OPEN_DUMP_FILE.V.SEEDSPECIFIED# IN PROCEDURE TOP$MME_WRDUMP
     15726**DCL
OPEN_DUMP_FILE.V.SEQ# IN PROCEDURE TOP$MME_WRDUMP
     15730**DCL
OPEN_DUMP_FILE.V.SEQCOL# IN PROCEDURE TOP$MME_WRDUMP
     15730**DCL
OPEN_DUMP_FILE.V.SEQID# IN PROCEDURE TOP$MME_WRDUMP
     15732**DCL
OPEN_DUMP_FILE.V.SETDCB# IN PROCEDURE TOP$MME_WRDUMP
     15703**DCL
OPEN_DUMP_FILE.V.SHARE# IN PROCEDURE TOP$MME_WRDUMP
     15707**DCL
OPEN_DUMP_FILE.V.SPANNED# IN PROCEDURE TOP$MME_WRDUMP
     15715**DCL
OPEN_DUMP_FILE.V.SPARE# IN PROCEDURE TOP$MME_WRDUMP
     15720**DCL
OPEN_DUMP_FILE.V.SRCHCOND IN PROCEDURE TOP$MME_WRDUMP
     15708**DCL
OPEN_DUMP_FILE.V.SRCHCOND.ANYF# IN PROCEDURE TOP$MME_WRDUMP
     15711**DCL
OPEN_DUMP_FILE.V.SRCHCOND.ARCHIVE# IN PROCEDURE TOP$MME_WRDUMP
     15710**DCL
OPEN_DUMP_FILE.V.SRCHCOND.BAD# IN PROCEDURE TOP$MME_WRDUMP
     15709**DCL
OPEN_DUMP_FILE.V.SRCHCOND.BUF# IN PROCEDURE TOP$MME_WRDUMP
     15709**DCL
OPEN_DUMP_FILE.V.SRCHCOND.DELF# IN PROCEDURE TOP$MME_WRDUMP
     15708**DCL
OPEN_DUMP_FILE.V.SRCHCOND.NOLIST# IN PROCEDURE TOP$MME_WRDUMP
     15708**DCL
OPEN_DUMP_FILE.V.SRCHCOND.QS# IN PROCEDURE TOP$MME_WRDUMP
     15710**DCL
OPEN_DUMP_FILE.V.SRCHCOND.REV# IN PROCEDURE TOP$MME_WRDUMP
     15711**DCL
OPEN_DUMP_FILE.V.TERMCONLGL# IN PROCEDURE TOP$MME_WRDUMP
     15725**DCL
PL6.E3A0      #001=TOP$POLTS File=TOP$POLTS.:E05TSI                              WED 07/30/97 06:30 Page:877
OPEN_DUMP_FILE.V.TYPE# IN PROCEDURE TOP$MME_WRDUMP
     15714**DCL
OPEN_DUMP_FILE.V.UOPT# IN PROCEDURE TOP$MME_WRDUMP
     15712**DCL
OPEN_DUMP_FILE.V.VOL# IN PROCEDURE TOP$MME_WRDUMP
     15727**DCL
OPEN_DUMP_FILE.V.VOLACCESS# IN PROCEDURE TOP$MME_WRDUMP
     15731**DCL
OPEN_DUMP_FILE.V.XONLY# IN PROCEDURE TOP$MME_WRDUMP
     15723**DCL
OPEN_DUMP_FILE.V.XTEND# IN PROCEDURE TOP$MME_WRDUMP
     15723**DCL
OPEN_DUMP_FILE.V.XTNSIZE# IN PROCEDURE TOP$MME_WRDUMP
     15721**DCL
OPEN_DUMP_FILE.VIRTUAL_ IN PROCEDURE TOP$MME_WRDUMP
     15694**DCL
OPEN_DUMP_FILE.V_ IN PROCEDURE TOP$MME_WRDUMP
     15693**DCL
OPEN_DUMP_FILE.WINDOW_ IN PROCEDURE TOP$MME_WRDUMP
     15696**DCL
OPEN_LP.ACCESS_ IN PROCEDURE TOP$MME_WRDUMP
     15577**DCL
OPEN_LP.ACCT_ IN PROCEDURE TOP$MME_WRDUMP
     15579**DCL
OPEN_LP.FORM_ IN PROCEDURE TOP$MME_WRDUMP
     15583**DCL
OPEN_LP.FPARAM_ IN PROCEDURE TOP$MME_WRDUMP
     15580**DCL
OPEN_LP.FPRG_ IN PROCEDURE TOP$MME_WRDUMP
     15584**DCL
OPEN_LP.IFPARAM_ IN PROCEDURE TOP$MME_WRDUMP
     15580**DCL
OPEN_LP.INSTATTR_ IN PROCEDURE TOP$MME_WRDUMP
     15579**DCL
OPEN_LP.IRKEYS_ IN PROCEDURE TOP$MME_WRDUMP
     15584**DCL
PL6.E3A0      #001=TOP$POLTS File=TOP$POLTS.:E05TSI                              WED 07/30/97 06:30 Page:878
OPEN_LP.IRREC_ IN PROCEDURE TOP$MME_WRDUMP
     15583**DCL
OPEN_LP.NAME_ IN PROCEDURE TOP$MME_WRDUMP
     15576**DCL
OPEN_LP.NODENAME_ IN PROCEDURE TOP$MME_WRDUMP
     15581**DCL
OPEN_LP.PASS_ IN PROCEDURE TOP$MME_WRDUMP
     15577**DCL
OPEN_LP.PROCATTR_ IN PROCEDURE TOP$MME_WRDUMP
     15579**DCL
OPEN_LP.RECFIELD_ IN PROCEDURE TOP$MME_WRDUMP
     15582**DCL
OPEN_LP.SETSTA_ IN PROCEDURE TOP$MME_WRDUMP
     15576**DCL
OPEN_LP.SN_ IN PROCEDURE TOP$MME_WRDUMP
     15575**DCL
OPEN_LP.UATTR_ IN PROCEDURE TOP$MME_WRDUMP
     15578**DCL
OPEN_LP.V.ACS# IN PROCEDURE TOP$MME_WRDUMP
     15595**DCL
OPEN_LP.V.ANSISPANSEQ# IN PROCEDURE TOP$MME_WRDUMP
     15608**DCL
OPEN_LP.V.ASN# IN PROCEDURE TOP$MME_WRDUMP
     15594**DCL
OPEN_LP.V.ATTR# IN PROCEDURE TOP$MME_WRDUMP
     15611**DCL
OPEN_LP.V.AU# IN PROCEDURE TOP$MME_WRDUMP
     15613**DCL
OPEN_LP.V.BLKL# IN PROCEDURE TOP$MME_WRDUMP
     15601**DCL
OPEN_LP.V.BLOCKED# IN PROCEDURE TOP$MME_WRDUMP
     15596**DCL
OPEN_LP.V.BUPM# IN PROCEDURE TOP$MME_WRDUMP
     15597**DCL
OPEN_LP.V.CHAIN# IN PROCEDURE TOP$MME_WRDUMP
     15610**DCL
PL6.E3A0      #001=TOP$POLTS File=TOP$POLTS.:E05TSI                              WED 07/30/97 06:30 Page:879
OPEN_LP.V.CNVRT# IN PROCEDURE TOP$MME_WRDUMP
     15604**DCL
OPEN_LP.V.COMP# IN PROCEDURE TOP$MME_WRDUMP
     15596**DCL
OPEN_LP.V.COPIES# IN PROCEDURE TOP$MME_WRDUMP
     15616**DCL
OPEN_LP.V.CTG# IN PROCEDURE TOP$MME_WRDUMP
     15588**DCL
OPEN_LP.V.CVOL# IN PROCEDURE TOP$MME_WRDUMP
     15589**DCL
OPEN_LP.V.DBGDCBNO# IN PROCEDURE TOP$MME_WRDUMP
     15615**DCL
OPEN_LP.V.DBGSYSID# IN PROCEDURE TOP$MME_WRDUMP
     15615**DCL
OPEN_LP.V.DCB# IN PROCEDURE TOP$MME_WRDUMP
     15584**DCL
OPEN_LP.V.DCBCONLGL# IN PROCEDURE TOP$MME_WRDUMP
     15606**DCL
OPEN_LP.V.DELETE# IN PROCEDURE TOP$MME_WRDUMP
     15586**DCL
OPEN_LP.V.DENSITY# IN PROCEDURE TOP$MME_WRDUMP
     15616**DCL
OPEN_LP.V.DISP# IN PROCEDURE TOP$MME_WRDUMP
     15600**DCL
OPEN_LP.V.DVFC# IN PROCEDURE TOP$MME_WRDUMP
     15611**DCL
OPEN_LP.V.EBCDIC# IN PROCEDURE TOP$MME_WRDUMP
     15604**DCL
OPEN_LP.V.EVENT# IN PROCEDURE TOP$MME_WRDUMP
     15614**DCL
OPEN_LP.V.EXIST# IN PROCEDURE TOP$MME_WRDUMP
     15588**DCL
OPEN_LP.V.EXPIRE# IN PROCEDURE TOP$MME_WRDUMP
     15604**DCL
OPEN_LP.V.FINDPOS# IN PROCEDURE TOP$MME_WRDUMP
     15590**DCL
PL6.E3A0      #001=TOP$POLTS File=TOP$POLTS.:E05TSI                              WED 07/30/97 06:30 Page:880
OPEN_LP.V.FUN# IN PROCEDURE TOP$MME_WRDUMP
     15594**DCL
OPEN_LP.V.GHSTACS# IN PROCEDURE TOP$MME_WRDUMP
     15599**DCL
OPEN_LP.V.IGNOREFSN# IN PROCEDURE TOP$MME_WRDUMP
     15608**DCL
OPEN_LP.V.INITZ IN PROCEDURE TOP$MME_WRDUMP
     15585**DCL
OPEN_LP.V.INITZ.REASSIGN# IN PROCEDURE TOP$MME_WRDUMP
     15585**DCL
OPEN_LP.V.INITZ.SCRUB# IN PROCEDURE TOP$MME_WRDUMP
     15585**DCL
OPEN_LP.V.IOERROK# IN PROCEDURE TOP$MME_WRDUMP
     15606**DCL
OPEN_LP.V.IXTNSIZE# IN PROCEDURE TOP$MME_WRDUMP
     15603**DCL
OPEN_LP.V.JRNLBYPASS# IN PROCEDURE TOP$MME_WRDUMP
     15598**DCL
OPEN_LP.V.KEYL# IN PROCEDURE TOP$MME_WRDUMP
     15600**DCL
OPEN_LP.V.KEYTYPE# IN PROCEDURE TOP$MME_WRDUMP
     15610**DCL
OPEN_LP.V.KEYX# IN PROCEDURE TOP$MME_WRDUMP
     15599**DCL
OPEN_LP.V.LINES# IN PROCEDURE TOP$MME_WRDUMP
     15614**DCL
OPEN_LP.V.LOAD# IN PROCEDURE TOP$MME_WRDUMP
     15598**DCL
OPEN_LP.V.LRDL0# IN PROCEDURE TOP$MME_WRDUMP
     15602**DCL
OPEN_LP.V.LSLIDE# IN PROCEDURE TOP$MME_WRDUMP
     15601**DCL
OPEN_LP.V.LSTAOR# IN PROCEDURE TOP$MME_WRDUMP
     15598**DCL
OPEN_LP.V.MAXVOL# IN PROCEDURE TOP$MME_WRDUMP
     15610**DCL
PL6.E3A0      #001=TOP$POLTS File=TOP$POLTS.:E05TSI                              WED 07/30/97 06:30 Page:881
OPEN_LP.V.NRECS# IN PROCEDURE TOP$MME_WRDUMP
     15603**DCL
OPEN_LP.V.OPER IN PROCEDURE TOP$MME_WRDUMP
     15586**DCL
OPEN_LP.V.OPER.MNTONLY# IN PROCEDURE TOP$MME_WRDUMP
     15588**DCL
OPEN_LP.V.OPER.NXTA# IN PROCEDURE TOP$MME_WRDUMP
     15587**DCL
OPEN_LP.V.OPER.NXTF# IN PROCEDURE TOP$MME_WRDUMP
     15587**DCL
OPEN_LP.V.OPER.TEST# IN PROCEDURE TOP$MME_WRDUMP
     15586**DCL
OPEN_LP.V.OPER.THISF# IN PROCEDURE TOP$MME_WRDUMP
     15587**DCL
OPEN_LP.V.ORG# IN PROCEDURE TOP$MME_WRDUMP
     15595**DCL
OPEN_LP.V.OVERFDE# IN PROCEDURE TOP$MME_WRDUMP
     15607**DCL
OPEN_LP.V.QISS# IN PROCEDURE TOP$MME_WRDUMP
     15613**DCL
OPEN_LP.V.RECL# IN PROCEDURE TOP$MME_WRDUMP
     15601**DCL
OPEN_LP.V.RES# IN PROCEDURE TOP$MME_WRDUMP
     15599**DCL
OPEN_LP.V.SEED# IN PROCEDURE TOP$MME_WRDUMP
     15617**DCL
OPEN_LP.V.SEEDSPECIFIED# IN PROCEDURE TOP$MME_WRDUMP
     15608**DCL
OPEN_LP.V.SEQ# IN PROCEDURE TOP$MME_WRDUMP
     15612**DCL
OPEN_LP.V.SEQCOL# IN PROCEDURE TOP$MME_WRDUMP
     15612**DCL
OPEN_LP.V.SEQID# IN PROCEDURE TOP$MME_WRDUMP
     15614**DCL
OPEN_LP.V.SETDCB# IN PROCEDURE TOP$MME_WRDUMP
     15585**DCL
PL6.E3A0      #001=TOP$POLTS File=TOP$POLTS.:E05TSI                              WED 07/30/97 06:30 Page:882
OPEN_LP.V.SHARE# IN PROCEDURE TOP$MME_WRDUMP
     15589**DCL
OPEN_LP.V.SPANNED# IN PROCEDURE TOP$MME_WRDUMP
     15597**DCL
OPEN_LP.V.SPARE# IN PROCEDURE TOP$MME_WRDUMP
     15602**DCL
OPEN_LP.V.SRCHCOND IN PROCEDURE TOP$MME_WRDUMP
     15590**DCL
OPEN_LP.V.SRCHCOND.ANYF# IN PROCEDURE TOP$MME_WRDUMP
     15593**DCL
OPEN_LP.V.SRCHCOND.ARCHIVE# IN PROCEDURE TOP$MME_WRDUMP
     15592**DCL
OPEN_LP.V.SRCHCOND.BAD# IN PROCEDURE TOP$MME_WRDUMP
     15591**DCL
OPEN_LP.V.SRCHCOND.BUF# IN PROCEDURE TOP$MME_WRDUMP
     15591**DCL
OPEN_LP.V.SRCHCOND.DELF# IN PROCEDURE TOP$MME_WRDUMP
     15590**DCL
OPEN_LP.V.SRCHCOND.NOLIST# IN PROCEDURE TOP$MME_WRDUMP
     15590**DCL
OPEN_LP.V.SRCHCOND.QS# IN PROCEDURE TOP$MME_WRDUMP
     15592**DCL
OPEN_LP.V.SRCHCOND.REV# IN PROCEDURE TOP$MME_WRDUMP
     15593**DCL
OPEN_LP.V.TERMCONLGL# IN PROCEDURE TOP$MME_WRDUMP
     15607**DCL
OPEN_LP.V.TYPE# IN PROCEDURE TOP$MME_WRDUMP
     15596**DCL
OPEN_LP.V.UOPT# IN PROCEDURE TOP$MME_WRDUMP
     15594**DCL
OPEN_LP.V.VOL# IN PROCEDURE TOP$MME_WRDUMP
     15609**DCL
OPEN_LP.V.VOLACCESS# IN PROCEDURE TOP$MME_WRDUMP
     15613**DCL
OPEN_LP.V.XONLY# IN PROCEDURE TOP$MME_WRDUMP
     15605**DCL
PL6.E3A0      #001=TOP$POLTS File=TOP$POLTS.:E05TSI                              WED 07/30/97 06:30 Page:883
OPEN_LP.V.XTEND# IN PROCEDURE TOP$MME_WRDUMP
     15605**DCL
OPEN_LP.V.XTNSIZE# IN PROCEDURE TOP$MME_WRDUMP
     15603**DCL
OPEN_LP.VIRTUAL_ IN PROCEDURE TOP$MME_WRDUMP
     15576**DCL
OPEN_LP.V_ IN PROCEDURE TOP$MME_WRDUMP
     15575**DCL
OPEN_LP.WINDOW_ IN PROCEDURE TOP$MME_WRDUMP
     15578**DCL
PARAMETER_ IN PROCEDURE TOP$MME_POINIT
     12619**DCL
PARAMETER_.LOWER# IN PROCEDURE TOP$MME_POINIT
     12621**DCL
PARAMETER_BYTE IN PROCEDURE TOP$MME_POINIT
     12622**DCL
POINIT IN PROCEDURE TOP$MME_POINIT
     12629**DCL
POINIT.CRACF0# IN PROCEDURE TOP$MME_POINIT
     12647**DCL
POINIT.CVTTBL_ADR# IN PROCEDURE TOP$MME_POINIT
     12641**DCL
POINIT.MINTR# IN PROCEDURE TOP$MME_POINIT
     12645**DCL
Q_REG_ IN PROCEDURE BUILD_SCTWRK
     16308**DCL
Q_REG_.TAPE_ICC IN PROCEDURE BUILD_SCTWRK
     16311**DCL
Q_REG_.TAPE_ICC.NEW_FORMAT IN PROCEDURE BUILD_SCTWRK
     16316**DCL
Q_REG_.URC_ICC IN PROCEDURE BUILD_SCTWRK
     16320**DCL
Q_REG_.URC_ICC.FORMAT# IN PROCEDURE BUILD_SCTWRK
     16321**DCL
Q_REG_.URC_ICC.NEW_FORMAT IN PROCEDURE BUILD_SCTWRK
     16325**DCL
PL6.E3A0      #001=TOP$POLTS File=TOP$POLTS.:E05TSI                              WED 07/30/97 06:30 Page:884
Q_REG_.URC_ICC.NEW_FORMAT.CHAN# IN PROCEDURE BUILD_SCTWRK
     16327**DCL
Q_REG_.URC_ICC.NEW_FORMAT.IOM# IN PROCEDURE BUILD_SCTWRK
     16326**DCL
Q_REG_.URC_ICC.OLD_FORMAT.CHAN# IN PROCEDURE BUILD_SCTWRK
     16324**DCL
Q_REG_.URC_ICC.OLD_FORMAT.IOM# IN PROCEDURE BUILD_SCTWRK
     16323**DCL
READ_CONFIG.BUF_.BOUND IN PROCEDURE GET_DEVICE_CODE
     13369**DCL
READ_CONFIG.BUF_.BUF$ IN PROCEDURE GET_DEVICE_CODE
     13370**DCL
READ_CONFIG.IDBUF_ IN PROCEDURE GET_DEVICE_CODE
     13371**DCL
READ_CONFIG.KEY_.BOUND IN PROCEDURE GET_DEVICE_CODE
     13367**DCL
READ_CONFIG.KEY_.KEY$ IN PROCEDURE GET_DEVICE_CODE
     13368**DCL
READ_CONFIG.V.DCB# IN PROCEDURE GET_DEVICE_CODE
     13371**DCL
READ_CONFIG.V.DVBYTE IN PROCEDURE GET_DEVICE_CODE
     13381**DCL
READ_CONFIG.V.DVBYTE.BIN# IN PROCEDURE GET_DEVICE_CODE
     13382**DCL
READ_CONFIG.V.DVBYTE.BP# IN PROCEDURE GET_DEVICE_CODE
     13381**DCL
READ_CONFIG.V.DVBYTE.CONT# IN PROCEDURE GET_DEVICE_CODE
     13384**DCL
READ_CONFIG.V.DVBYTE.NODAT# IN PROCEDURE GET_DEVICE_CODE
     13383**DCL
READ_CONFIG.V.DVBYTE.TOP# IN PROCEDURE GET_DEVICE_CODE
     13381**DCL
READ_CONFIG.V.DVBYTE.TRANS# IN PROCEDURE GET_DEVICE_CODE
     13383**DCL
READ_CONFIG.V.DVBYTE.VFC# IN PROCEDURE GET_DEVICE_CODE
     13382**DCL
PL6.E3A0      #001=TOP$POLTS File=TOP$POLTS.:E05TSI                              WED 07/30/97 06:30 Page:885
READ_CONFIG.V.EVENT# IN PROCEDURE GET_DEVICE_CODE
     13380**DCL
READ_CONFIG.V.FULL# IN PROCEDURE GET_DEVICE_CODE
     13373**DCL
READ_CONFIG.V.ID# IN PROCEDURE GET_DEVICE_CODE
     13372**DCL
READ_CONFIG.V.IDS# IN PROCEDURE GET_DEVICE_CODE
     13373**DCL
READ_CONFIG.V.IOERROK# IN PROCEDURE GET_DEVICE_CODE
     13374**DCL
READ_CONFIG.V.KEYCHNG# IN PROCEDURE GET_DEVICE_CODE
     13373**DCL
READ_CONFIG.V.KEYR# IN PROCEDURE GET_DEVICE_CODE
     13372**DCL
READ_CONFIG.V.KEYS# IN PROCEDURE GET_DEVICE_CODE
     13372**DCL
READ_CONFIG.V.KEYTYPE# IN PROCEDURE GET_DEVICE_CODE
     13380**DCL
READ_CONFIG.V.ODFNC# IN PROCEDURE GET_DEVICE_CODE
     13385**DCL
READ_CONFIG.V.RECNUM# IN PROCEDURE GET_DEVICE_CODE
     13385**DCL
READ_CONFIG.V.REREADPOS# IN PROCEDURE GET_DEVICE_CODE
     13386**DCL
READ_CONFIG.V.SEED# IN PROCEDURE GET_DEVICE_CODE
     13381**DCL
READ_CONFIG.V.SINPUTSIZE# IN PROCEDURE GET_DEVICE_CODE
     13385**DCL
READ_CONFIG.V.STRPVFC# IN PROCEDURE GET_DEVICE_CODE
     13384**DCL
READ_CONFIG.V.WAIT# IN PROCEDURE GET_DEVICE_CODE
     13371**DCL
READ_CONFIG.V_ IN PROCEDURE GET_DEVICE_CODE
     13367**DCL
READ_IO
      9962**DCL
PL6.E3A0      #001=TOP$POLTS File=TOP$POLTS.:E05TSI                              WED 07/30/97 06:30 Page:886
READ_IO.BUF_.BOUND
      9964**DCL
READ_IO.BUF_.BUF$
      9965**DCL
READ_IO.IDBUF_
      9966**DCL
READ_IO.KEY_
      9962**DCL
READ_IO.KEY_.BOUND
      9962**DCL
READ_IO.KEY_.KEY$
      9963**DCL
READ_IO.V
      9966**DCL
READ_IO.V.DCB#
      9966**DCL
READ_IO.V.DVBYTE
      9976**DCL
READ_IO.V.DVBYTE.BIN#
      9977**DCL
READ_IO.V.DVBYTE.BP#
      9976**DCL
READ_IO.V.DVBYTE.CONT#
      9979**DCL
READ_IO.V.DVBYTE.NODAT#
      9978**DCL
READ_IO.V.DVBYTE.TOP#
      9976**DCL
READ_IO.V.DVBYTE.TRANS#
      9978**DCL
READ_IO.V.DVBYTE.VFC#
      9977**DCL
READ_IO.V.EVENT#
      9975**DCL
READ_IO.V.FULL#
      9968**DCL
PL6.E3A0      #001=TOP$POLTS File=TOP$POLTS.:E05TSI                              WED 07/30/97 06:30 Page:887
READ_IO.V.ID#
      9967**DCL
READ_IO.V.IDS#
      9968**DCL
READ_IO.V.IOERROK#
      9969**DCL
READ_IO.V.KEYCHNG#
      9968**DCL
READ_IO.V.KEYR#
      9967**DCL
READ_IO.V.KEYS#
      9967**DCL
READ_IO.V.KEYTYPE#
      9975**DCL
READ_IO.V.ODFNC#
      9980**DCL
READ_IO.V.RECNUM#
      9980**DCL
READ_IO.V.REREADPOS#
      9981**DCL
READ_IO.V.SEED#
      9976**DCL
READ_IO.V.SINPUTSIZE#
      9980**DCL
READ_IO.V.STRPVFC#
      9979**DCL
READ_IO.V.WAIT#
      9966**DCL
READ_IO.V_
      9962**DCL
RELEASE_ID IN PROCEDURE TOP$MME_RELEAS
     12765**DCL
SCT.BIT12 IN PROCEDURE BOGUS_TDOPEN
     13778**DCL
SCT.BIT13 IN PROCEDURE BOGUS_TDOPEN
     13777**DCL
PL6.E3A0      #001=TOP$POLTS File=TOP$POLTS.:E05TSI                              WED 07/30/97 06:30 Page:888
SCT.BIT17 IN PROCEDURE BOGUS_TDOPEN
     13776**DCL
SCT.DEVICE_CODE IN PROCEDURE BOGUS_TDOPEN
     13771**DCL
SCT.FICCDD IN PROCEDURE BOGUS_TDOPEN
     13763**DCL
SCT.FICCDD.FLAG# IN PROCEDURE BOGUS_TDOPEN
     13764**DCL
SCT.FICCDD.FORMAT# IN PROCEDURE BOGUS_TDOPEN
     13765**DCL
SCT.FIRMWARE IN PROCEDURE BOGUS_TDOPEN
     13772**DCL
SCT.FIRMWARE.LP# IN PROCEDURE BOGUS_TDOPEN
     13774**DCL
SCT.FIRMWARE.RP# IN PROCEDURE BOGUS_TDOPEN
     13775**DCL
SCT.FIRMWARE.TYPE# IN PROCEDURE BOGUS_TDOPEN
     13773**DCL
SCT.MODEL IN PROCEDURE BOGUS_TDOPEN
     13779**DCL
SCT.MPC_MODEL IN PROCEDURE BOGUS_TDOPEN
     13780**DCL
SCT.BIT12 IN PROCEDURE BUILD_SCT_FICCDD
     13572**DCL
SCT.BIT13 IN PROCEDURE BUILD_SCT_FICCDD
     13571**DCL
SCT.BIT17 IN PROCEDURE BUILD_SCT_FICCDD
     13570**DCL
SCT.DEVICE_CODE IN PROCEDURE BUILD_SCT_FICCDD
     13565**DCL
SCT.FICCDD IN PROCEDURE BUILD_SCT_FICCDD
     13557**DCL
SCT.FIRMWARE IN PROCEDURE BUILD_SCT_FICCDD
     13566**DCL
SCT.FIRMWARE.LP# IN PROCEDURE BUILD_SCT_FICCDD
     13568**DCL
PL6.E3A0      #001=TOP$POLTS File=TOP$POLTS.:E05TSI                              WED 07/30/97 06:30 Page:889
SCT.FIRMWARE.RP# IN PROCEDURE BUILD_SCT_FICCDD
     13569**DCL
SCT.FIRMWARE.TYPE# IN PROCEDURE BUILD_SCT_FICCDD
     13567**DCL
SCT.MODEL IN PROCEDURE BUILD_SCT_FICCDD
     13573**DCL
SCT.MPC_MODEL IN PROCEDURE BUILD_SCT_FICCDD
     13574**DCL
SCT.FICCDD IN PROCEDURE BUILD_TEST_CONTROL_ENTRY
     14260**DCL
SCT.FIRMWARE IN PROCEDURE BUILD_TEST_CONTROL_ENTRY
     14269**DCL
SCT.BIT12 IN PROCEDURE GET_CHANNEL_DEVICE
     13650**DCL
SCT.BIT13 IN PROCEDURE GET_CHANNEL_DEVICE
     13649**DCL
SCT.BIT17 IN PROCEDURE GET_CHANNEL_DEVICE
     13648**DCL
SCT.DEVICE_CODE IN PROCEDURE GET_CHANNEL_DEVICE
     13643**DCL
SCT.FICCDD IN PROCEDURE GET_CHANNEL_DEVICE
     13635**DCL
SCT.FICCDD.DEVICE# IN PROCEDURE GET_CHANNEL_DEVICE
     13640**DCL
SCT.FICCDD.FLAG# IN PROCEDURE GET_CHANNEL_DEVICE
     13636**DCL
SCT.FICCDD.FORMAT# IN PROCEDURE GET_CHANNEL_DEVICE
     13637**DCL
SCT.FIRMWARE IN PROCEDURE GET_CHANNEL_DEVICE
     13644**DCL
SCT.FIRMWARE.LP# IN PROCEDURE GET_CHANNEL_DEVICE
     13646**DCL
SCT.FIRMWARE.RP# IN PROCEDURE GET_CHANNEL_DEVICE
     13647**DCL
SCT.FIRMWARE.TYPE# IN PROCEDURE GET_CHANNEL_DEVICE
     13645**DCL
PL6.E3A0      #001=TOP$POLTS File=TOP$POLTS.:E05TSI                              WED 07/30/97 06:30 Page:890
SCT.MODEL IN PROCEDURE GET_CHANNEL_DEVICE
     13651**DCL
SCT.MPC_MODEL IN PROCEDURE GET_CHANNEL_DEVICE
     13652**DCL
SCT.TEST_TYPE IN PROCEDURE GET_CHANNEL_DEVICE
     13642**DCL
SCT.BIT12 IN PROCEDURE GET_DEVICE_CODE
     13223**DCL
SCT.BIT13 IN PROCEDURE GET_DEVICE_CODE
     13222**DCL
SCT.BIT17 IN PROCEDURE GET_DEVICE_CODE
     13221**DCL
SCT.DEVICE_CODE IN PROCEDURE GET_DEVICE_CODE
     13216**DCL
SCT.FICCDD IN PROCEDURE GET_DEVICE_CODE
     13208**DCL
SCT.FICCDD.CHANNEL# IN PROCEDURE GET_DEVICE_CODE
     13212**DCL
SCT.FICCDD.DEVICE# IN PROCEDURE GET_DEVICE_CODE
     13213**DCL
SCT.FICCDD.FLAG# IN PROCEDURE GET_DEVICE_CODE
     13209**DCL
SCT.FICCDD.FORMAT# IN PROCEDURE GET_DEVICE_CODE
     13210**DCL
SCT.FICCDD.IOM# IN PROCEDURE GET_DEVICE_CODE
     13211**DCL
SCT.FIRMWARE IN PROCEDURE GET_DEVICE_CODE
     13217**DCL
SCT.FIRMWARE.LP# IN PROCEDURE GET_DEVICE_CODE
     13219**DCL
SCT.FIRMWARE.RP# IN PROCEDURE GET_DEVICE_CODE
     13220**DCL
SCT.FIRMWARE.TYPE# IN PROCEDURE GET_DEVICE_CODE
     13218**DCL
SCT.MODEL IN PROCEDURE GET_DEVICE_CODE
     13224**DCL
PL6.E3A0      #001=TOP$POLTS File=TOP$POLTS.:E05TSI                              WED 07/30/97 06:30 Page:891
SCT.MPC_MODEL IN PROCEDURE GET_DEVICE_CODE
     13225**DCL
SCT.BIT12 IN PROCEDURE GET_MODEL_ID
     13842**DCL
SCT.BIT13 IN PROCEDURE GET_MODEL_ID
     13841**DCL
SCT.BIT17 IN PROCEDURE GET_MODEL_ID
     13840**DCL
SCT.DEVICE_CODE IN PROCEDURE GET_MODEL_ID
     13835**DCL
SCT.FICCDD IN PROCEDURE GET_MODEL_ID
     13827**DCL
SCT.FICCDD.CHANNEL# IN PROCEDURE GET_MODEL_ID
     13831**DCL
SCT.FICCDD.DEVICE# IN PROCEDURE GET_MODEL_ID
     13832**DCL
SCT.FICCDD.FLAG# IN PROCEDURE GET_MODEL_ID
     13828**DCL
SCT.FICCDD.FORMAT# IN PROCEDURE GET_MODEL_ID
     13829**DCL
SCT.FICCDD.IOM# IN PROCEDURE GET_MODEL_ID
     13830**DCL
SCT.FIRMWARE IN PROCEDURE GET_MODEL_ID
     13836**DCL
SCT.FIRMWARE.LP# IN PROCEDURE GET_MODEL_ID
     13838**DCL
SCT.FIRMWARE.RP# IN PROCEDURE GET_MODEL_ID
     13839**DCL
SCT.FIRMWARE.TYPE# IN PROCEDURE GET_MODEL_ID
     13837**DCL
SCT.MPC_MODEL IN PROCEDURE GET_MODEL_ID
     13844**DCL
SCT.TEST_TYPE IN PROCEDURE GET_MODEL_ID
     13834**DCL
SCT.FICCDD IN PROCEDURE MAP_DEVICE
     14105**DCL
PL6.E3A0      #001=TOP$POLTS File=TOP$POLTS.:E05TSI                              WED 07/30/97 06:30 Page:892
SCT.FICCDD.CHANNEL# IN PROCEDURE MAP_DEVICE
     14109**DCL
SCT.FICCDD.DEVICE# IN PROCEDURE MAP_DEVICE
     14110**DCL
SCT.FICCDD.FLAG# IN PROCEDURE MAP_DEVICE
     14106**DCL
SCT.FICCDD.FORMAT# IN PROCEDURE MAP_DEVICE
     14107**DCL
SCT.FICCDD.IOM# IN PROCEDURE MAP_DEVICE
     14108**DCL
SCT.FIRMWARE IN PROCEDURE MAP_DEVICE
     14114**DCL
SCT.FIRMWARE.LP# IN PROCEDURE MAP_DEVICE
     14116**DCL
SCT.FIRMWARE.RP# IN PROCEDURE MAP_DEVICE
     14117**DCL
SCT.MPC_MODEL IN PROCEDURE MAP_DEVICE
     14122**DCL
SCT.BIT12 IN PROCEDURE MAP_MPC_DEVICE
     14014**DCL
SCT.BIT13 IN PROCEDURE MAP_MPC_DEVICE
     14013**DCL
SCT.BIT17 IN PROCEDURE MAP_MPC_DEVICE
     14012**DCL
SCT.DEVICE_CODE IN PROCEDURE MAP_MPC_DEVICE
     14007**DCL
SCT.FICCDD IN PROCEDURE MAP_MPC_DEVICE
     13999**DCL
SCT.FICCDD.DEVICE# IN PROCEDURE MAP_MPC_DEVICE
     14004**DCL
SCT.FICCDD.FLAG# IN PROCEDURE MAP_MPC_DEVICE
     14000**DCL
SCT.FICCDD.FORMAT# IN PROCEDURE MAP_MPC_DEVICE
     14001**DCL
SCT.FIRMWARE IN PROCEDURE MAP_MPC_DEVICE
     14008**DCL
PL6.E3A0      #001=TOP$POLTS File=TOP$POLTS.:E05TSI                              WED 07/30/97 06:30 Page:893
SCT.MODEL IN PROCEDURE MAP_MPC_DEVICE
     14015**DCL
SCT.DEVICE_CODE IN PROCEDURE TOP$MME_SCTCMP
     13036**DCL
SCT.FICCDD IN PROCEDURE TOP$MME_SCTCMP
     13028**DCL
SCT.FICCDD.CHANNEL# IN PROCEDURE TOP$MME_SCTCMP
     13032**DCL
SCT.FICCDD.DEVICE# IN PROCEDURE TOP$MME_SCTCMP
     13033**DCL
SCT.FICCDD.FLAG# IN PROCEDURE TOP$MME_SCTCMP
     13029**DCL
SCT.FICCDD.FORMAT# IN PROCEDURE TOP$MME_SCTCMP
     13030**DCL
SCT.FICCDD.IOM# IN PROCEDURE TOP$MME_SCTCMP
     13031**DCL
SCT.FIRMWARE IN PROCEDURE TOP$MME_SCTCMP
     13037**DCL
SCT.FIRMWARE.LP# IN PROCEDURE TOP$MME_SCTCMP
     13039**DCL
SCT.FIRMWARE.RP# IN PROCEDURE TOP$MME_SCTCMP
     13040**DCL
SCT.FIRMWARE.TYPE# IN PROCEDURE TOP$MME_SCTCMP
     13038**DCL
SCT.MODEL IN PROCEDURE TOP$MME_SCTCMP
     13044**DCL
SCT.MPC_MODEL IN PROCEDURE TOP$MME_SCTCMP
     13045**DCL
SCT.TEST_TYPE IN PROCEDURE TOP$MME_SCTCMP
     13035**DCL
SCT.BIT12 IN PROCEDURE VALIDATE_DEVICE_TYPE
     13927**DCL
SCT.BIT13 IN PROCEDURE VALIDATE_DEVICE_TYPE
     13926**DCL
SCT.BIT17 IN PROCEDURE VALIDATE_DEVICE_TYPE
     13925**DCL
PL6.E3A0      #001=TOP$POLTS File=TOP$POLTS.:E05TSI                              WED 07/30/97 06:30 Page:894
SCT.DEVICE_CODE IN PROCEDURE VALIDATE_DEVICE_TYPE
     13920**DCL
SCT.FICCDD IN PROCEDURE VALIDATE_DEVICE_TYPE
     13912**DCL
SCT.FICCDD.CHANNEL# IN PROCEDURE VALIDATE_DEVICE_TYPE
     13916**DCL
SCT.FICCDD.FLAG# IN PROCEDURE VALIDATE_DEVICE_TYPE
     13913**DCL
SCT.FICCDD.FORMAT# IN PROCEDURE VALIDATE_DEVICE_TYPE
     13914**DCL
SCT.FICCDD.IOM# IN PROCEDURE VALIDATE_DEVICE_TYPE
     13915**DCL
SCT.FIRMWARE IN PROCEDURE VALIDATE_DEVICE_TYPE
     13921**DCL
SCT.FIRMWARE.LP# IN PROCEDURE VALIDATE_DEVICE_TYPE
     13923**DCL
SCT.FIRMWARE.RP# IN PROCEDURE VALIDATE_DEVICE_TYPE
     13924**DCL
SCT.FIRMWARE.TYPE# IN PROCEDURE VALIDATE_DEVICE_TYPE
     13922**DCL
SCT.MODEL IN PROCEDURE VALIDATE_DEVICE_TYPE
     13928**DCL
SCT.MPC_MODEL IN PROCEDURE VALIDATE_DEVICE_TYPE
     13929**DCL
SCT.TEST_TYPE IN PROCEDURE VALIDATE_DEVICE_TYPE
     13919**DCL
SCTWRK.CRCST_1
     10345**DCL
SCTWRK.CRCST_3
     10351**DCL
SCTWRK.SCT_0.BIT14#
     10360**DCL
SCTWRK.SCT_0.DEV_NUMBER#
     10357**DCL
SCTWRK.SCT_1.DENSITIES#
     10368**DCL
PL6.E3A0      #001=TOP$POLTS File=TOP$POLTS.:E05TSI                              WED 07/30/97 06:30 Page:895
SCTWRK.SCT_1.MODULES#
     10366**DCL
SCTWRK.XCTLR_TYPE#
     10336**DCL
SCTWRK.XIOC_TYPE#
     10335**DCL
SCT_ IN PROCEDURE BUILD_TEST_CONTROL_ENTRY
     14280**DCL
SCT_PTR IN PROCEDURE BUILD_SCTWRK
     16339**DCL
SCT_PTR.SEGID# IN PROCEDURE BUILD_SCTWRK
     16341**DCL
STATUS.ACTION_CODE#
     10388**DCL
STATUS.ADDR_EXTENSION#
     10383**DCL
STATUS.CHARACTER_COUNT#
     10386**DCL
STATUS.IOM_CENTRAL#
     10382**DCL
STATUS.IOM_CHANNEL#
     10381**DCL
STATUS.MARKER_INTERRUPT#
     10377**DCL
STATUS.ODD_WORD_COUNT#
     10375**DCL
STATUS.POWER_OFF#
     10372**DCL
STATUS.READ_WRITE_FLAG#
     10387**DCL
STATUS.RECORD_COUNT_RESIDUE#
     10384**DCL
STATUS.WORD_COUNT_RESIDUE#
     10389**DCL
TD$DEV IN PROCEDURE GET_MODEL_ID
     13853**DCL
PL6.E3A0      #001=TOP$POLTS File=TOP$POLTS.:E05TSI                              WED 07/30/97 06:30 Page:896
TD$DEV.ATTR IN PROCEDURE GET_MODEL_ID
     13867**DCL
TD$DEV.DEVNUM IN PROCEDURE GET_MODEL_ID
     13869**DCL
TD$DEV.DEVTYPE IN PROCEDURE GET_MODEL_ID
     13868**DCL
TD$DEV.FEATURE IN PROCEDURE GET_MODEL_ID
     13855**DCL
TD$DEV.FLAGS IN PROCEDURE GET_MODEL_ID
     13862**DCL
TD$DEV.FLAGS.CHECKWRITE IN PROCEDURE GET_MODEL_ID
     13865**DCL
TD$DEV.FLAGS.DOWN IN PROCEDURE GET_MODEL_ID
     13863**DCL
TD$DEV.FLAGS.TDOK IN PROCEDURE GET_MODEL_ID
     13864**DCL
TD$DEV.IOCHAN IN PROCEDURE GET_MODEL_ID
     13857**DCL
TD$DEV.IOCHAN.CHAN IN PROCEDURE GET_MODEL_ID
     13860**DCL
TD$DEV.IOCHAN.IOM IN PROCEDURE GET_MODEL_ID
     13859**DCL
TD$DEV.MPCNAME IN PROCEDURE GET_MODEL_ID
     13856**DCL
TD$HEAD IN PROCEDURE GET_CHANNEL_DEVICE
     13667**DCL
TD$HEAD.APMPC_INDX IN PROCEDURE GET_CHANNEL_DEVICE
     13676**DCL
TD$HEAD.AP_INDX IN PROCEDURE GET_CHANNEL_DEVICE
     13696**DCL
TD$HEAD.CONSOLE_INDX IN PROCEDURE GET_CHANNEL_DEVICE
     13682**DCL
TD$HEAD.CP_INDX IN PROCEDURE GET_CHANNEL_DEVICE
     13688**DCL
TD$HEAD.CR_INDX IN PROCEDURE GET_CHANNEL_DEVICE
     13686**DCL
PL6.E3A0      #001=TOP$POLTS File=TOP$POLTS.:E05TSI                              WED 07/30/97 06:30 Page:897
TD$HEAD.DEVNAME IN PROCEDURE GET_CHANNEL_DEVICE
     13700**DCL
TD$HEAD.DISKMPC_INDX IN PROCEDURE GET_CHANNEL_DEVICE
     13674**DCL
TD$HEAD.DP_INDX IN PROCEDURE GET_CHANNEL_DEVICE
     13690**DCL
TD$HEAD.FEP_INDX IN PROCEDURE GET_CHANNEL_DEVICE
     13680**DCL
TD$HEAD.IOM_INDX IN PROCEDURE GET_CHANNEL_DEVICE
     13668**DCL
TD$HEAD.LP_INDX IN PROCEDURE GET_CHANNEL_DEVICE
     13684**DCL
TD$HEAD.MT_INDX IN PROCEDURE GET_CHANNEL_DEVICE
     13692**DCL
TD$HEAD.NUMAPMPCS IN PROCEDURE GET_CHANNEL_DEVICE
     13677**DCL
TD$HEAD.NUMAPS IN PROCEDURE GET_CHANNEL_DEVICE
     13697**DCL
TD$HEAD.NUMCONSOLES IN PROCEDURE GET_CHANNEL_DEVICE
     13683**DCL
TD$HEAD.NUMCPS IN PROCEDURE GET_CHANNEL_DEVICE
     13689**DCL
TD$HEAD.NUMCRS IN PROCEDURE GET_CHANNEL_DEVICE
     13687**DCL
TD$HEAD.NUMDISKMPCS IN PROCEDURE GET_CHANNEL_DEVICE
     13675**DCL
TD$HEAD.NUMDPS IN PROCEDURE GET_CHANNEL_DEVICE
     13691**DCL
TD$HEAD.NUMFEPS IN PROCEDURE GET_CHANNEL_DEVICE
     13681**DCL
TD$HEAD.NUMLPS IN PROCEDURE GET_CHANNEL_DEVICE
     13685**DCL
TD$HEAD.NUMMTS IN PROCEDURE GET_CHANNEL_DEVICE
     13693**DCL
TD$HEAD.NUMODS IN PROCEDURE GET_CHANNEL_DEVICE
     13699**DCL
PL6.E3A0      #001=TOP$POLTS File=TOP$POLTS.:E05TSI                              WED 07/30/97 06:30 Page:898
TD$HEAD.NUMOPCS IN PROCEDURE GET_CHANNEL_DEVICE
     13679**DCL
TD$HEAD.NUMTAPEMPCS IN PROCEDURE GET_CHANNEL_DEVICE
     13673**DCL
TD$HEAD.NUMUNITMPCS IN PROCEDURE GET_CHANNEL_DEVICE
     13671**DCL
TD$HEAD.NUMXXS IN PROCEDURE GET_CHANNEL_DEVICE
     13695**DCL
TD$HEAD.OD_INDX IN PROCEDURE GET_CHANNEL_DEVICE
     13698**DCL
TD$HEAD.OPC_INDX IN PROCEDURE GET_CHANNEL_DEVICE
     13678**DCL
TD$HEAD.TAPEMPC_INDX IN PROCEDURE GET_CHANNEL_DEVICE
     13672**DCL
TD$HEAD.UNITMPC_INDX IN PROCEDURE GET_CHANNEL_DEVICE
     13670**DCL
TD$HEAD.XX_INDX IN PROCEDURE GET_CHANNEL_DEVICE
     13694**DCL
TD$IOM IN PROCEDURE GET_CHANNEL_DEVICE
     13703**DCL
TD$IOM.FLAGS IN PROCEDURE GET_CHANNEL_DEVICE
     13705**DCL
TD$IOM.FLAGS.DOWN IN PROCEDURE GET_CHANNEL_DEVICE
     13706**DCL
TD$IOM.FLAGS.TDOK IN PROCEDURE GET_CHANNEL_DEVICE
     13707**DCL
TD$IOM.PORT# IN PROCEDURE GET_CHANNEL_DEVICE
     13708**DCL
TD$MPC IN PROCEDURE MAP_MPC_DEVICE
     14026**DCL
TD$MPC.DEVNAME IN PROCEDURE MAP_MPC_DEVICE
     14045**DCL
TD$MPC.FLAGS IN PROCEDURE MAP_MPC_DEVICE
     14035**DCL
TD$MPC.FLAGS.DOWN IN PROCEDURE MAP_MPC_DEVICE
     14036**DCL
PL6.E3A0      #001=TOP$POLTS File=TOP$POLTS.:E05TSI                              WED 07/30/97 06:30 Page:899
TD$MPC.FLAGS.TDOK IN PROCEDURE MAP_MPC_DEVICE
     14037**DCL
TD$MPC.FWREV IN PROCEDURE MAP_MPC_DEVICE
     14042**DCL
TD$MPC.FWREV.LETTER IN PROCEDURE MAP_MPC_DEVICE
     14043**DCL
TD$MPC.FWREV.SUBREV IN PROCEDURE MAP_MPC_DEVICE
     14044**DCL
TD$MPC.IOCHAN IN PROCEDURE MAP_MPC_DEVICE
     14028**DCL
TD$MPC.IOCHAN.HICHAN IN PROCEDURE MAP_MPC_DEVICE
     14033**DCL
TD$MPC.NUMDEVS IN PROCEDURE MAP_MPC_DEVICE
     14034**DCL
TDCLOSE_FPT.V_
     10452**DCL
TDIO_FPT.V.ALTPATH.CHAN#
     10468**DCL
TDIO_FPT.V.ALTPATH.IOM#
     10468**DCL
TDIO_FPT.V_
     10466**DCL
TDOPEN_FPT.V.DEVICE
     10485**DCL
TDOPEN_FPT.V_
     10483**DCL
TDOPEN_FPT.WINDOW_
     10484**DCL
TIME_FPT.DATE_ IN PROCEDURE SET_RETURN_VALUES
     15263**DCL
TIME_FPT.DATE_.BOUND IN PROCEDURE SET_RETURN_VALUES
     15263**DCL
TIME_FPT.DATE_.DATE$ IN PROCEDURE SET_RETURN_VALUES
     15264**DCL
TIME_FPT.DAY_ IN PROCEDURE SET_RETURN_VALUES
     15266**DCL
PL6.E3A0      #001=TOP$POLTS File=TOP$POLTS.:E05TSI                              WED 07/30/97 06:30 Page:900
TIME_FPT.TIME_ IN PROCEDURE SET_RETURN_VALUES
     15265**DCL
TIME_FPT.TIME_.BOUND IN PROCEDURE SET_RETURN_VALUES
     15265**DCL
TIME_FPT.TIME_.TIME$ IN PROCEDURE SET_RETURN_VALUES
     15266**DCL
TIME_FPT.TSTAMP_ IN PROCEDURE SET_RETURN_VALUES
     15266**DCL
TIME_FPT.V.DEST# IN PROCEDURE SET_RETURN_VALUES
     15267**DCL
TIME_FPT.V.DEST_BASIS# IN PROCEDURE SET_RETURN_VALUES
     15268**DCL
TIME_FPT.V.SOURCE# IN PROCEDURE SET_RETURN_VALUES
     15267**DCL
TIME_FPT.V.SOURCE_BASIS# IN PROCEDURE SET_RETURN_VALUES
     15268**DCL
TIME_FPT.V_ IN PROCEDURE SET_RETURN_VALUES
     15263**DCL
TOP$POLTS
        56**PROC
TOP$POLTS_IO
     10661**ENTRY
TOP$SCT
      9985**DCL
TOP$SCT.CN.WD0#
      9987**DCL
TOP$SCT.CN.WD1#
      9988**DCL
TOP$SCT.CN.WD2#
      9989**DCL
TOP$SCT.CN.WD3#
      9990**DCL
TOP$SCT.DV.WD2#
      9994**DCL
TOP$SCT.DV.WD3#
      9995**DCL
PL6.E3A0      #001=TOP$POLTS File=TOP$POLTS.:E05TSI                              WED 07/30/97 06:30 Page:901
TOP$TCP.ADR
     10064**DCL
TOP$TCP.BFR
     10113**DCL
TOP$TCP.FIRMWARE
     10095**DCL
TOP$TCP.FIRMWARE.CHOICE_MADE
     10096**DCL
TOP$TCP.ICC
     10052**DCL
TOP$TCP.ICCDD
     10049**DCL
TOP$TCP.IO
     10073**DCL
TOP$TCP.SCT
     10086**DCL
TOP$TCP.STATS
     10104**DCL
TOP$TCP.STATS.GECALL_NAME
     10111**DCL
TOP$TCP.STATS.MAX_LOAD
     10107**DCL
TOP_ERROR_CODE.FCG
     10421**DCL
TOP_ERROR_CODE.MID
     10434**DCL
TOP_ERROR_CODE.MON
     10434**DCL
TOP_ERROR_CODE.SEV
     10435**DCL
TOT$DMC
     10009**DCL
TOT$DMC.TOM$ITRTBL
     10020**DCL
TOT$DMC.TOM$ITRTBL.PTR$
     10023**DCL
PL6.E3A0      #001=TOP$POLTS File=TOP$POLTS.:E05TSI                              WED 07/30/97 06:30 Page:902
TOT$DMC.TOM$SEGTBLS
     10025**DCL
TOT$DMC.TOM$SEGTBLS.PTR$
     10028**DCL
TOT$DMC.TOO$IO_BUFFER
     10010**DCL
TOT$DMC.TOO$IO_BUFFER.PTR$
     10013**DCL
TOT$DMC.TOP$TCP
     10015**DCL
TOT$ECP
     10128**DCL
TOT$ECP.BREAK_ALLOWED
     10161**DCL
TOT$ECP.BREAK_RECEIVED
     10163**DCL
TOT$ECP.DYNAMIC_PAGE_COUNT
     10146**DCL
TOT$ECP.IO
     10132**DCL
TOT$ECP.IO.TYPE
     10133**DCL
TOT$ECP.ISC
     10137**DCL
TOT$ECP.ISC.GERELC_WAIT
     10142**DCL
TOT$ECP.ISC.READ_OUT
     10138**DCL
TOT$ECP.ISC.READ_PENDING
     10144**DCL
TOT$ECP.ISC.WRITE_OUT
     10140**DCL
TOT$ECP.SUBEXEC
     10148**DCL
TOT$ECP.SUBEXEC.WRAPUP_TRIED
     10155**DCL
PL6.E3A0      #001=TOP$POLTS File=TOP$POLTS.:E05TSI                              WED 07/30/97 06:30 Page:903
TOT$ECP.TEST_REQ_
     10131**DCL
TOT$TOLTS
     10177**DCL
TOT$TOLTS.DECKFILE
     10185**DCL
TOT$TOLTS.DECKFILE.FID
     10187**DCL
TOT$TOLTS.DECKFILE.LGTH
     10186**DCL
TOT$TOLTS.LINK_DATE
     10178**DCL
TOT$TOLTS.LINK_DATE.ASCII
     10179**DCL
TOT$TOLTS.LINK_TIME
     10181**DCL
TOT$TOLTS.LINK_VERSION
     10182**DCL
TOT$TOLTS.LINK_VERSION.LGTH
     10183**DCL
TOT$TOLTS.LINK_VERSION.TEXT
     10184**DCL
WD_2.SCTWRK_ADDR# IN PROCEDURE TOP$MME_ALLOCR
     10844**DCL
WRITE_DUMP.BUF_.BOUND IN PROCEDURE TOP$MME_WRDUMP
     15845**DCL
WRITE_DUMP.BUF_.BUF$ IN PROCEDURE TOP$MME_WRDUMP
     15847**DCL
WRITE_DUMP.IDBUF_ IN PROCEDURE TOP$MME_WRDUMP
     15847**DCL
WRITE_DUMP.KEY_ IN PROCEDURE TOP$MME_WRDUMP
     15845**DCL
WRITE_DUMP.V.DCB# IN PROCEDURE TOP$MME_WRDUMP
     15848**DCL
WRITE_DUMP.V.DVBYTE IN PROCEDURE TOP$MME_WRDUMP
     15853**DCL
PL6.E3A0      #001=TOP$POLTS File=TOP$POLTS.:E05TSI                              WED 07/30/97 06:30 Page:904
WRITE_DUMP.V.DVBYTE.BIN# IN PROCEDURE TOP$MME_WRDUMP
     15854**DCL
WRITE_DUMP.V.DVBYTE.BP# IN PROCEDURE TOP$MME_WRDUMP
     15854**DCL
WRITE_DUMP.V.DVBYTE.CONT# IN PROCEDURE TOP$MME_WRDUMP
     15856**DCL
WRITE_DUMP.V.DVBYTE.NODAT# IN PROCEDURE TOP$MME_WRDUMP
     15855**DCL
WRITE_DUMP.V.DVBYTE.REREAD# IN PROCEDURE TOP$MME_WRDUMP
     15854**DCL
WRITE_DUMP.V.DVBYTE.RRR# IN PROCEDURE TOP$MME_WRDUMP
     15855**DCL
WRITE_DUMP.V.DVBYTE.TOP# IN PROCEDURE TOP$MME_WRDUMP
     15853**DCL
WRITE_DUMP.V.DVBYTE.TRANS# IN PROCEDURE TOP$MME_WRDUMP
     15855**DCL
WRITE_DUMP.V.EVENT# IN PROCEDURE TOP$MME_WRDUMP
     15853**DCL
WRITE_DUMP.V.FULL# IN PROCEDURE TOP$MME_WRDUMP
     15850**DCL
WRITE_DUMP.V.ID# IN PROCEDURE TOP$MME_WRDUMP
     15849**DCL
WRITE_DUMP.V.IOERROK# IN PROCEDURE TOP$MME_WRDUMP
     15852**DCL
WRITE_DUMP.V.KEYTYPE# IN PROCEDURE TOP$MME_WRDUMP
     15852**DCL
WRITE_DUMP.V.NEWKEY# IN PROCEDURE TOP$MME_WRDUMP
     15851**DCL
WRITE_DUMP.V.NOTIME# IN PROCEDURE TOP$MME_WRDUMP
     15851**DCL
WRITE_DUMP.V.ODFNC# IN PROCEDURE TOP$MME_WRDUMP
     15857**DCL
WRITE_DUMP.V.ONEWKEY# IN PROCEDURE TOP$MME_WRDUMP
     15850**DCL
WRITE_DUMP.V.REWRITE# IN PROCEDURE TOP$MME_WRDUMP
     15851**DCL
PL6.E3A0      #001=TOP$POLTS File=TOP$POLTS.:E05TSI                              WED 07/30/97 06:30 Page:905
WRITE_DUMP.V.SEED# IN PROCEDURE TOP$MME_WRDUMP
     15853**DCL
WRITE_DUMP.V.WAIT# IN PROCEDURE TOP$MME_WRDUMP
     15848**DCL
WRITE_DUMP.V_ IN PROCEDURE TOP$MME_WRDUMP
     15845**DCL
WRITE_HDR_LINE.BUF_.BOUND IN PROCEDURE TOP$MME_WRDUMP
     15813**DCL
WRITE_HDR_LINE.BUF_.BUF$ IN PROCEDURE TOP$MME_WRDUMP
     15815**DCL
WRITE_HDR_LINE.IDBUF_ IN PROCEDURE TOP$MME_WRDUMP
     15815**DCL
WRITE_HDR_LINE.KEY_ IN PROCEDURE TOP$MME_WRDUMP
     15813**DCL
WRITE_HDR_LINE.V.DCB# IN PROCEDURE TOP$MME_WRDUMP
     15816**DCL
WRITE_HDR_LINE.V.DVBYTE IN PROCEDURE TOP$MME_WRDUMP
     15821**DCL
WRITE_HDR_LINE.V.DVBYTE.BIN# IN PROCEDURE TOP$MME_WRDUMP
     15822**DCL
WRITE_HDR_LINE.V.DVBYTE.BP# IN PROCEDURE TOP$MME_WRDUMP
     15822**DCL
WRITE_HDR_LINE.V.DVBYTE.CONT# IN PROCEDURE TOP$MME_WRDUMP
     15824**DCL
WRITE_HDR_LINE.V.DVBYTE.NODAT# IN PROCEDURE TOP$MME_WRDUMP
     15823**DCL
WRITE_HDR_LINE.V.DVBYTE.REREAD# IN PROCEDURE TOP$MME_WRDUMP
     15822**DCL
WRITE_HDR_LINE.V.DVBYTE.RRR# IN PROCEDURE TOP$MME_WRDUMP
     15823**DCL
WRITE_HDR_LINE.V.DVBYTE.TOP# IN PROCEDURE TOP$MME_WRDUMP
     15821**DCL
WRITE_HDR_LINE.V.DVBYTE.TRANS# IN PROCEDURE TOP$MME_WRDUMP
     15823**DCL
WRITE_HDR_LINE.V.EVENT# IN PROCEDURE TOP$MME_WRDUMP
     15821**DCL
PL6.E3A0      #001=TOP$POLTS File=TOP$POLTS.:E05TSI                              WED 07/30/97 06:30 Page:906
WRITE_HDR_LINE.V.FULL# IN PROCEDURE TOP$MME_WRDUMP
     15818**DCL
WRITE_HDR_LINE.V.ID# IN PROCEDURE TOP$MME_WRDUMP
     15817**DCL
WRITE_HDR_LINE.V.IOERROK# IN PROCEDURE TOP$MME_WRDUMP
     15820**DCL
WRITE_HDR_LINE.V.KEYTYPE# IN PROCEDURE TOP$MME_WRDUMP
     15820**DCL
WRITE_HDR_LINE.V.NEWKEY# IN PROCEDURE TOP$MME_WRDUMP
     15819**DCL
WRITE_HDR_LINE.V.NOTIME# IN PROCEDURE TOP$MME_WRDUMP
     15819**DCL
WRITE_HDR_LINE.V.ODFNC# IN PROCEDURE TOP$MME_WRDUMP
     15825**DCL
WRITE_HDR_LINE.V.ONEWKEY# IN PROCEDURE TOP$MME_WRDUMP
     15818**DCL
WRITE_HDR_LINE.V.REWRITE# IN PROCEDURE TOP$MME_WRDUMP
     15819**DCL
WRITE_HDR_LINE.V.SEED# IN PROCEDURE TOP$MME_WRDUMP
     15821**DCL
WRITE_HDR_LINE.V.WAIT# IN PROCEDURE TOP$MME_WRDUMP
     15816**DCL
WRITE_HDR_LINE.V_ IN PROCEDURE TOP$MME_WRDUMP
     15813**DCL
X1 IN PROCEDURE TOP$MME_IPCWDT
     12143**DCL
X1.NEW_ICC IN PROCEDURE TOP$MME_IPCWDT
     12149**DCL
X1 IN PROCEDURE TOP$MME_LPWDT
     12257**DCL
X1.NEW_ICC IN PROCEDURE TOP$MME_LPWDT
     12263**DCL
