VERSION E05

PL6.E3A0      #001=TOR$BREAK_HANDLER File=TOR$BREAK_HANDLER.:E05TSI              WED 07/30/97 06:31 Page:1
        1        1        /*M* TOR$BREAK_HANDLER  TURTLE Break Handling Routine */
        2        2        /*T***********************************************************/
        3        3        /*T*                                                         */
        4        4        /*T* Copyright (c) Bull HN Information Systems Inc., 1997    */
        5        5        /*T*                                                         */
        6        6        /*T***********************************************************/
        7        7
        8        8        /*X* PLM=3,DCI=6,SQB=N,PRB=N,DTI=5,ENI=0,AND=Y,ECI=0,CSU=3,DIN=3,
        9        9             CTI=8,CRM=109,CRT=1,NLB=N,NTB=Y,MCL=110 */
       10       10
       11       11        /*F* NAME:         TOR$BREAK_HANDLER
       12       12             PURPOSE:      This program is established as the break handling
       13       13                           routine for TURTLE by a monitor call to M$INT.
       14       14                           This program is invoked asynchronously when the
       15       15                           BREAK key is depressed.
       16       16             LAST UPDATE:  08/18/82
       17       17        */
       18       18
       19       19        TOR$BREAK_HANDLER: PROC ASYNC ;
       20       20
       21       21           %INCLUDE CP_6 ;
       22     5580
       23     5581    1      DCL TOR$BREAK_OCCURRED BIT (1) STATIC SYMDEF CALIGNED INIT ('0'B) ;
       24     5582    1      DCL BRK_EXPECTED       BIT (1) SYMREF CALIGNED ;
       25     5583    1      DCL TOR$EXIT_PTR       ENTRY ;
       26     5584
       27     5585        /* Code */
       28     5586
       29     5587    1      IF BRK_EXPECTED
       30     5588    2      THEN DO ;
       31     5589    2              TOR$BREAK_OCCURRED = '1'B ;
       32     5590    2              CALL M$TRTN ;
       33     5591    2           END /* THEN */ ;
       34     5592    1      ELSE CALL TOR$EXIT_PTR ;
       35     5593
       36     5594    1   END TOR$BREAK_HANDLER;

PL6.E3A0      #001=TOR$BREAK_HANDLER File=TOR$BREAK_HANDLER.:E05TSI              WED 07/30/97 06:31 Page:2
--  Include file information  --

   CP_6_C.:E05TOU  is referenced.
   CP_6.:E05TOU  cannot be made into a system file and is referenced.
      No diagnostics issued in procedure TOR$BREAK_HANDLER.

   Procedure TOR$BREAK_HANDLER requires 13 words for executable code.
   Procedure TOR$BREAK_HANDLER requires 4 words of local(AUTO) storage.

    No errors detected in file TOR$BREAK_HANDLER.:E05TSI    .

PL6.E3A0      #001=TOR$BREAK_HANDLER File=TOR$BREAK_HANDLER.:E05TSI              WED 07/30/97 06:31 Page:3

 Object Unit name= TOR$BREAK_HANDLER                          File name= TOR$BREAK_HANDLER.:E05TOU
 UTS= JUL 30 '97 06:31:02.84 WED                              Compiler= PL-6/E31         Sev=      00
 SharedLib= :SHARED_SYSTEM                                    Alt SharedLib=


    ****  Control sections  ****

 Sect   Type Bound  Init  Size OctSiz  Section name(segment info)
    0   DCB   even  none     0      0  M$UC
    1   Data  even  none     1      1  TOR$BREAK_HANDLER
    2   Proc  even  none    13     15  TOR$BREAK_HANDLER

    ****  Entry defs  ****

                              Check   Calling
                             calling  sequence
  Sect OctLoc Primary Altret sequence   type   Parms  Name
     2      0   yes            yes     Async       0  TOR$BREAK_HANDLER

  ****  Data defs  ****

 Sect OctLoc  Name                           Sect OctLoc  Name
    1      0  TOR$BREAK_OCCURRED

  ****  Entry refs  ****

         Check        Calling
        calling       sequence
Altret sequence SRef   type   Args  Name
         yes           Std       0 TOR$EXIT_PTR
                       nStd      0 X66_AAUTO
                       Std       0 B_CONSPOOL_D
                       nStd      0 X66_AARET
PL6.E3A0      #001=TOR$BREAK_HANDLER File=TOR$BREAK_HANDLER.:E05TSI              WED 07/30/97 06:31 Page:4

  ****  Data refs  ****

  Flags:  r = read only, s = secondary
Flgs Name                             Flgs Name                             Flgs Name
     M$UC                                  BRK_EXPECTED                          B_VECTNIL
PL6.E3A0      #001=TOR$BREAK_HANDLER File=TOR$BREAK_HANDLER.:E05TSI              WED 07/30/97 06:31 Page:5


        1        1        /*M* TOR$BREAK_HANDLER  TURTLE Break Handling Routine */
        2        2        /*T***********************************************************/
        3        3        /*T*                                                         */
        4        4        /*T* Copyright (c) Bull HN Information Systems Inc., 1997    */
        5        5        /*T*                                                         */
        6        6        /*T***********************************************************/
        7        7
        8        8        /*X* PLM=3,DCI=6,SQB=N,PRB=N,DTI=5,ENI=0,AND=Y,ECI=0,CSU=3,DIN=3,
        9        9             CTI=8,CRM=109,CRT=1,NLB=N,NTB=Y,MCL=110 */
       10       10
       11       11        /*F* NAME:         TOR$BREAK_HANDLER
       12       12             PURPOSE:      This program is established as the break handling
       13       13                           routine for TURTLE by a monitor call to M$INT.
       14       14                           This program is invoked asynchronously when the
       15       15                           BREAK key is depressed.
       16       16             LAST UPDATE:  08/18/82
       17       17        */
       18       18
       19       19        TOR$BREAK_HANDLER: PROC ASYNC ;

     19  2 000000   000000 700200 xent  TOR$BREAK_H* TSX0  ! X66_AAUTO
         2 000001   000004 000000                    ZERO    4,0

       20       20
       21       21           %INCLUDE CP_6 ;
       22     5580
       23     5581    1      DCL TOR$BREAK_OCCURRED BIT (1) STATIC SYMDEF CALIGNED INIT ('0'B) ;
       24     5582    1      DCL BRK_EXPECTED       BIT (1) SYMREF CALIGNED ;
       25     5583    1      DCL TOR$EXIT_PTR       ENTRY ;
       26     5584
       27     5585        /* Code */
       28     5586
       29     5587    1      IF BRK_EXPECTED

   5587  2 000002   000000 234000 xsym               SZN     BRK_EXPECTED
         2 000003   000011 605000 2                  TPL     s:5592
PL6.E3A0      #001=TOR$BREAK_HANDLER File=TOR$BREAK_HANDLER.:E05TSI              WED 07/30/97 06:31 Page:6

       30     5588    2      THEN DO ;

       31     5589    2              TOR$BREAK_OCCURRED = '1'B ;

   5589  2 000004   400000 236003                    LDQ     -131072,DU
         2 000005   000000 756000 1                  STQ     TOR$BREAK_OCCURRED

       32     5590    2              CALL M$TRTN ;

   5590  2 000006   010012 713400                    CLIMB   4106
         2 000007   000000 401760                    pmme    nvectors=0

       33     5591    2           END /* THEN */ ;

   5591  2 000010   000014 710000 2                  TRA     s:5594

       34     5592    1      ELSE CALL TOR$EXIT_PTR ;

   5592  2 000011   000002 631400 xsym               EPPR1   B_VECTNIL+2
         2 000012   000000 701000 xent               TSX1    TOR$EXIT_PTR
         2 000013   000000 011000                    NOP     0

       35     5593
       36     5594    1   END TOR$BREAK_HANDLER;

   5594  2 000014   000000 702200 xent               TSX2  ! X66_AARET

TOR$BREAK_OCCURRED
 Sect OctLoc
   1     000   0***** ******                                                    ....

PL6.E3A0      #001=TOR$BREAK_HANDLER File=TOR$BREAK_HANDLER.:E05TSI              WED 07/30/97 06:31 Page:7
--  Include file information  --

   CP_6_C.:E05TOU  is referenced.
   CP_6.:E05TOU  cannot be made into a system file and is referenced.
      No diagnostics issued in procedure TOR$BREAK_HANDLER.
PL6.E3A0      #001=TOR$BREAK_HANDLER File=TOR$BREAK_HANDLER.:E05TSI              WED 07/30/97 06:31 Page:8

 **** Procedure blocks ****

LB#    Line#s    #stmts #vars Sect# OctLoc  P A C   NP Lvl/name
  0    19-  5594      8     2     2      0  y   y    0   1 TOR$BREAK_HANDLER
PL6.E3A0      #001=TOR$BREAK_HANDLER File=TOR$BREAK_HANDLER.:E05TSI              WED 07/30/97 06:31 Page:9

    **** Executable statements  ****

  Exec cost Stmt Sec OctLoc Type   LB Label              Exec cost Stmt Sec OctLoc Type   LB Label

              19   2      0 Proc    0                              5587   2      2 If      0
            5588   2      4 Do      0                              5589   2      4 Assign  0
    $$$$$$  5590   2      6 MonCal  0                              5591   2     10 EndDo   0
            5592   2     11 Call    0                              5594   2     14 EndPrc  0


  **** Statement type totals  ****

     1 Assign     1 Call       1 MonCal     1 If         1 Do         1 EndDo
     1 Proc       1 EndPrc

 # major stmts=    4 Code/major= 3.25 # stmts=    8 Code/stmt= 1.62  Point total= 92.3
 Cost/major stmt=  5.4 Cost/stmt=  2.7 Total cost=     21.7

   0-4  $$$$$$$$$$$$$$$$$$$$$$$$$$$$$$$$$$$$$$$$$$$$$$$$$$$$$$$$$$$$$$$$$$$$$$$
   4-6
   6-8
  8-10
 10-12
 12-14
 14-16  $$$$$$$$$$$$$$
 16-18
 18-20
 20-22
 22-??
PL6.E3A0      #001=TOR$BREAK_HANDLER File=TOR$BREAK_HANDLER.:E05TSI              WED 07/30/97 06:31 Page:10

 **** Variables and constants ****

  ****  Section 001  Data  TOR$BREAK_HANDLER

  ****  Scalars and arrays  ****
OctLoc.c.b A Datatyp(siz) R M Lvl/name                 OctLoc.c.b A Datatyp(siz) R M Lvl/name

     0-0-0/c BIT         r     1 TOR$BREAK_OCCURRED

  ****  SYMREF variables  ****

  ****  Scalars and arrays  ****
OctLoc.c.b A Datatyp(siz) R M Lvl/name                 OctLoc.c.b A Datatyp(siz) R M Lvl/name

     0-0-0/c BIT         r     1 BRK_EXPECTED


   Procedure TOR$BREAK_HANDLER requires 13 words for executable code.
   Procedure TOR$BREAK_HANDLER requires 4 words of local(AUTO) storage.

    No errors detected in file TOR$BREAK_HANDLER.:E05TSI    .
PL6.E3A0      #001=TOR$BREAK_HANDLER File=TOR$BREAK_HANDLER.:E05TSI              WED 07/30/97 06:31 Page:11
          *** CROSS REFERENCE LISTING ***
**     DENOTES     IDENTIFIER DEFINITION
<<                 IDENTIFIER'S VALUE SET
>>                 IDENTIFIER'S VALUE USED
<>                 IDENTIFIER SET AND/OR USED
--                 IDENTIFIER REFERENCED
PL6.E3A0      #001=TOR$BREAK_HANDLER File=TOR$BREAK_HANDLER.:E05TSI              WED 07/30/97 06:31 Page:12
          FULL XREF LISTING

BRK_EXPECTED
      5582**DCL      5587>>IF
M$ACCT
      5525**DCL-ENT
M$ACTIVATE
      5528**DCL-ENT
M$ALIB
      5521**DCL-ENT
M$ASUSER
      5523**DCL-ENT
M$ATTACH
      5530**DCL-ENT
M$BADPP
      5548**DCL-ENT
M$CGCTL
      5529**DCL-ENT
M$CGINFO
      5529**DCL-ENT
M$CHECK
      5510**DCL-ENT
M$CHGUNIT
      5568**DCL-ENT
M$CLOSE
      5508**DCL-ENT
M$CLRSTK
      5566**DCL-ENT
M$CMDVAR
      5577**DCL-ENT
M$CONFIG
      5538**DCL-ENT
M$CORRES
      5513**DCL-ENT
PL6.E3A0      #001=TOR$BREAK_HANDLER File=TOR$BREAK_HANDLER.:E05TSI              WED 07/30/97 06:31 Page:13
M$CPEXIT
      5522**DCL-ENT
M$CVM
      5546**DCL-ENT
M$CVOL
      5511**DCL-ENT
M$DCLFLD
      5538**DCL-ENT
M$DEACTIVATE
      5528**DCL-ENT
M$DELREC
      5510**DCL-ENT
M$DEQ
      5575**DCL-ENT
M$DETACH
      5530**DCL-ENT
M$DEVICE
      5512**DCL-ENT
M$DISPLAY
      5575**DCL-ENT
M$DISPRES
      5515**DCL-ENT
M$DLIB
      5521**DCL-ENT
M$DRIBBLE
      5538**DCL-ENT
M$DRTN
      5566**DCL-ENT
M$DSUSER
      5523**DCL-ENT
M$ENQ
      5574**DCL-ENT
M$EOM
      5533**DCL-ENT
M$ERASE
      5539**DCL-ENT
PL6.E3A0      #001=TOR$BREAK_HANDLER File=TOR$BREAK_HANDLER.:E05TSI              WED 07/30/97 06:31 Page:14
M$ERR
      5520**DCL-ENT
M$ERRMSG
      5571**DCL-ENT
M$EVENT
      5563**DCL-ENT
M$EXHUME
      5572**DCL-ENT
M$EXIT
      5520**DCL-ENT
M$EXTEND
      5512**DCL-ENT
M$FDP
      5544**DCL-ENT
M$FDS
      5543**DCL-ENT
M$FEBOOT
      5536**DCL-ENT
M$FECTL
      5537**DCL-ENT
M$FEDUMP
      5536**DCL-ENT
M$FID
      5571**DCL-ENT
M$FINDPROC
      5525**DCL-ENT
M$FSUSER
      5523**DCL-ENT
M$FVP
      5545**DCL-ENT
M$FWCG
      5529**DCL-ENT
M$GBPL
      5549**DCL-ENT
M$GDDL
      5545**DCL-ENT
PL6.E3A0      #001=TOR$BREAK_HANDLER File=TOR$BREAK_HANDLER.:E05TSI              WED 07/30/97 06:31 Page:15
M$GDP
      5544**DCL-ENT
M$GDS
      5543**DCL-ENT
M$GETDCB
      5514**DCL-ENT
M$GETMOUSE
      5554**DCL-ENT
M$GETPM
      5555**DCL-ENT
M$GJOB
      5573**DCL-ENT
M$GLINEATTR
      5533**DCL-ENT
M$GOODPP
      5548**DCL-ENT
M$GPLATEN
      5541**DCL-ENT
M$GPROMPT
      5540**DCL-ENT
M$GTRMATTR
      5534**DCL-ENT
M$GTRMCTL
      5532**DCL-ENT
M$GTRMTAB
      5535**DCL-ENT
M$GVP
      5544**DCL-ENT
M$HELP
      5571**DCL-ENT
M$INT
      5563**DCL-ENT
M$INTRTN
      5524**DCL-ENT
M$IOQ
      5559**DCL-ENT
PL6.E3A0      #001=TOR$BREAK_HANDLER File=TOR$BREAK_HANDLER.:E05TSI              WED 07/30/97 06:31 Page:16
M$JOBSTATS
      5573**DCL-ENT
M$KEYIN
      5513**DCL-ENT
M$LDEV
      5508**DCL-ENT
M$LDTRC
      5521**DCL-ENT
M$LIMIT
      5514**DCL-ENT
M$LINES
      5513**DCL-ENT
M$LINK
      5520**DCL-ENT
M$MADMUCK
      5516**DCL-ENT
M$MAKUSER
      5547**DCL-ENT
M$MBS
      5515**DCL-ENT
M$MDFFLD
      5539**DCL-ENT
M$MERC
      5564**DCL-ENT
M$MERCS
      5565**DCL-ENT
M$MIRROR
      5559**DCL-ENT
M$MONINFO
      5576**DCL-ENT
M$MPL
      5549**DCL-ENT
M$NODEINFO
      5540**DCL-ENT
M$NXTUSR
      5574**DCL-ENT
PL6.E3A0      #001=TOR$BREAK_HANDLER File=TOR$BREAK_HANDLER.:E05TSI              WED 07/30/97 06:31 Page:17
M$OCMSG
      5572**DCL-ENT
M$OLAY
      5520**DCL-ENT
M$OPEN
      5508**DCL-ENT
M$PAS
      5549**DCL-ENT
M$PATHCON
      5572**DCL-ENT
M$PDS
      5543**DCL-ENT
M$PFIL
      5510**DCL-ENT
M$PLATEN
      5534**DCL-ENT
M$PRECORD
      5512**DCL-ENT
M$PROCNAME
      5525**DCL-ENT
M$PROFILE
      5536**DCL-ENT
M$PROMPT
      5532**DCL-ENT
M$RACST
      5516**DCL-ENT
M$RDSYSLOG
      5557**DCL-ENT
M$READ
      5509**DCL-ENT
M$RELDCB
      5514**DCL-ENT
M$RELRES
      5515**DCL-ENT
M$RELSTARF
      5517**DCL-ENT
PL6.E3A0      #001=TOR$BREAK_HANDLER File=TOR$BREAK_HANDLER.:E05TSI              WED 07/30/97 06:31 Page:18
M$REM
      5517**DCL-ENT
M$RENV
      5564**DCL-ENT
M$REQUIRE
      5516**DCL-ENT
M$RETRY
      5565**DCL-ENT
M$RETRYS
      5565**DCL-ENT
M$REW
      5511**DCL-ENT
M$RLSFLD
      5539**DCL-ENT
M$RPRIV
      5567**DCL-ENT
M$RSPP
      5546**DCL-ENT
M$RSWITCH
      5568**DCL-ENT
M$RUE
      5574**DCL-ENT
M$SAD
      5547**DCL-ENT
M$SAVE
      5523**DCL-ENT
M$SCON
      5524**DCL-ENT
M$SCREECH
      5522**DCL-ENT
M$SENV
      5564**DCL-ENT
M$SETFMA
      5508**DCL-ENT
M$SETFP
      5537**DCL-ENT
PL6.E3A0      #001=TOR$BREAK_HANDLER File=TOR$BREAK_HANDLER.:E05TSI              WED 07/30/97 06:31 Page:19
M$SINPUT
      5535**DCL-ENT
M$SLCFLD
      5540**DCL-ENT
M$SMOUSE
      5554**DCL-ENT
M$SMPRT
      5546**DCL-ENT
M$SPRIV
      5567**DCL-ENT
M$SSC
      5547**DCL-ENT
M$SSWITCH
      5567**DCL-ENT
M$STATE
      5576**DCL-ENT
M$STD
      5548**DCL-ENT
M$STIMER
      5562**DCL-ENT
M$STLPP
      5545**DCL-ENT
M$STRAP
      5562**DCL-ENT
M$STRMATTR
      5534**DCL-ENT
M$STRMCTL
      5532**DCL-ENT
M$STRMTAB
      5535**DCL-ENT
M$SYMBIO
      5573**DCL-ENT
M$SYSCON
      5559**DCL-ENT
M$SYSID
      5577**DCL-ENT
PL6.E3A0      #001=TOR$BREAK_HANDLER File=TOR$BREAK_HANDLER.:E05TSI              WED 07/30/97 06:31 Page:20
M$TDCLOSE
      5558**DCL-ENT
M$TDIO
      5558**DCL-ENT
M$TDOPEN
      5557**DCL-ENT
M$TDREQCPU
      5558**DCL-ENT
M$TEMPWROC
      5552**DCL-ENT
M$TIME
      5575**DCL-ENT
M$TRAP
      5562**DCL-ENT
M$TRMISC
      5537**DCL-ENT
M$TRMPRG
      5533**DCL-ENT
M$TRTN
      5566**DCL-ENT  5590--CALL
M$TRUNC
      5509**DCL-ENT
M$TTIMER
      5562**DCL-ENT
M$UC
      5532**DCL
M$UMPL
      5549**DCL-ENT
M$UNFID
      5571**DCL-ENT
M$UNLATCH
      5528**DCL-ENT
M$UNSHARE
      5525**DCL-ENT
M$USRFIELD
      5568**DCL-ENT
PL6.E3A0      #001=TOR$BREAK_HANDLER File=TOR$BREAK_HANDLER.:E05TSI              WED 07/30/97 06:31 Page:21
M$VIRTUAL
      5543**DCL-ENT
M$WAIT
      5566**DCL-ENT
M$WEOF
      5511**DCL-ENT
M$WRITE
      5509**DCL-ENT
M$WRSYSLOG
      5557**DCL-ENT
M$XCON
      5563**DCL-ENT
M$XCONRTN
      5524**DCL-ENT
M$XEQTIME
      5576**DCL-ENT
M$XFLUSH
      5517**DCL-ENT
M$XMOUSE
      5554**DCL-ENT
M$XXX
      5520**DCL-ENT
M$YC
      5522**DCL-ENT
TOR$BREAK_HANDLER
        19**PROC
TOR$BREAK_OCCURRED
      5581**DCL      5589<<ASSIGN
TOR$EXIT_PTR
      5583**DCL-ENT  5592--CALL
PL6.E3A0      #001=TOR$BREAK_HANDLER File=TOR$BREAK_HANDLER.:E05TSI              WED 07/30/97 06:31 Page:22
              *** CROSS REFERENCE LISTING ***
    **     DENOTES     IDENTIFIER DEFINITION
    <<                 IDENTIFIER'S VALUE SET
    >>                 IDENTIFIER'S VALUE USED
    <>                 IDENTIFIER SET AND/OR USED
    --                 IDENTIFIER REFERENCED
PL6.E3A0      #001=TOR$BREAK_HANDLER File=TOR$BREAK_HANDLER.:E05TSI              WED 07/30/97 06:31 Page:23
              FULL UREF LISTING

M$ACCT
      5525**DCL-ENT
M$ACTIVATE
      5528**DCL-ENT
M$ALIB
      5521**DCL-ENT
M$ASUSER
      5523**DCL-ENT
M$ATTACH
      5530**DCL-ENT
M$BADPP
      5548**DCL-ENT
M$CGCTL
      5529**DCL-ENT
M$CGINFO
      5529**DCL-ENT
M$CHECK
      5510**DCL-ENT
M$CHGUNIT
      5568**DCL-ENT
M$CLOSE
      5508**DCL-ENT
M$CLRSTK
      5566**DCL-ENT
M$CMDVAR
      5577**DCL-ENT
M$CONFIG
      5538**DCL-ENT
M$CORRES
      5513**DCL-ENT
M$CPEXIT
      5522**DCL-ENT
PL6.E3A0      #001=TOR$BREAK_HANDLER File=TOR$BREAK_HANDLER.:E05TSI              WED 07/30/97 06:31 Page:24
M$CVM
      5546**DCL-ENT
M$CVOL
      5511**DCL-ENT
M$DCLFLD
      5538**DCL-ENT
M$DEACTIVATE
      5528**DCL-ENT
M$DELREC
      5510**DCL-ENT
M$DEQ
      5575**DCL-ENT
M$DETACH
      5530**DCL-ENT
M$DEVICE
      5512**DCL-ENT
M$DISPLAY
      5575**DCL-ENT
M$DISPRES
      5515**DCL-ENT
M$DLIB
      5521**DCL-ENT
M$DRIBBLE
      5538**DCL-ENT
M$DRTN
      5566**DCL-ENT
M$DSUSER
      5523**DCL-ENT
M$ENQ
      5574**DCL-ENT
M$EOM
      5533**DCL-ENT
M$ERASE
      5539**DCL-ENT
M$ERR
      5520**DCL-ENT
PL6.E3A0      #001=TOR$BREAK_HANDLER File=TOR$BREAK_HANDLER.:E05TSI              WED 07/30/97 06:31 Page:25
M$ERRMSG
      5571**DCL-ENT
M$EVENT
      5563**DCL-ENT
M$EXHUME
      5572**DCL-ENT
M$EXIT
      5520**DCL-ENT
M$EXTEND
      5512**DCL-ENT
M$FDP
      5544**DCL-ENT
M$FDS
      5543**DCL-ENT
M$FEBOOT
      5536**DCL-ENT
M$FECTL
      5537**DCL-ENT
M$FEDUMP
      5536**DCL-ENT
M$FID
      5571**DCL-ENT
M$FINDPROC
      5525**DCL-ENT
M$FSUSER
      5523**DCL-ENT
M$FVP
      5545**DCL-ENT
M$FWCG
      5529**DCL-ENT
M$GBPL
      5549**DCL-ENT
M$GDDL
      5545**DCL-ENT
M$GDP
      5544**DCL-ENT
PL6.E3A0      #001=TOR$BREAK_HANDLER File=TOR$BREAK_HANDLER.:E05TSI              WED 07/30/97 06:31 Page:26
M$GDS
      5543**DCL-ENT
M$GETDCB
      5514**DCL-ENT
M$GETMOUSE
      5554**DCL-ENT
M$GETPM
      5555**DCL-ENT
M$GJOB
      5573**DCL-ENT
M$GLINEATTR
      5533**DCL-ENT
M$GOODPP
      5548**DCL-ENT
M$GPLATEN
      5541**DCL-ENT
M$GPROMPT
      5540**DCL-ENT
M$GTRMATTR
      5534**DCL-ENT
M$GTRMCTL
      5532**DCL-ENT
M$GTRMTAB
      5535**DCL-ENT
M$GVP
      5544**DCL-ENT
M$HELP
      5571**DCL-ENT
M$INT
      5563**DCL-ENT
M$INTRTN
      5524**DCL-ENT
M$IOQ
      5559**DCL-ENT
M$JOBSTATS
      5573**DCL-ENT
PL6.E3A0      #001=TOR$BREAK_HANDLER File=TOR$BREAK_HANDLER.:E05TSI              WED 07/30/97 06:31 Page:27
M$KEYIN
      5513**DCL-ENT
M$LDEV
      5508**DCL-ENT
M$LDTRC
      5521**DCL-ENT
M$LIMIT
      5514**DCL-ENT
M$LINES
      5513**DCL-ENT
M$LINK
      5520**DCL-ENT
M$MADMUCK
      5516**DCL-ENT
M$MAKUSER
      5547**DCL-ENT
M$MBS
      5515**DCL-ENT
M$MDFFLD
      5539**DCL-ENT
M$MERC
      5564**DCL-ENT
M$MERCS
      5565**DCL-ENT
M$MIRROR
      5559**DCL-ENT
M$MONINFO
      5576**DCL-ENT
M$MPL
      5549**DCL-ENT
M$NODEINFO
      5540**DCL-ENT
M$NXTUSR
      5574**DCL-ENT
M$OCMSG
      5572**DCL-ENT
PL6.E3A0      #001=TOR$BREAK_HANDLER File=TOR$BREAK_HANDLER.:E05TSI              WED 07/30/97 06:31 Page:28
M$OLAY
      5520**DCL-ENT
M$OPEN
      5508**DCL-ENT
M$PAS
      5549**DCL-ENT
M$PATHCON
      5572**DCL-ENT
M$PDS
      5543**DCL-ENT
M$PFIL
      5510**DCL-ENT
M$PLATEN
      5534**DCL-ENT
M$PRECORD
      5512**DCL-ENT
M$PROCNAME
      5525**DCL-ENT
M$PROFILE
      5536**DCL-ENT
M$PROMPT
      5532**DCL-ENT
M$RACST
      5516**DCL-ENT
M$RDSYSLOG
      5557**DCL-ENT
M$READ
      5509**DCL-ENT
M$RELDCB
      5514**DCL-ENT
M$RELRES
      5515**DCL-ENT
M$RELSTARF
      5517**DCL-ENT
M$REM
      5517**DCL-ENT
PL6.E3A0      #001=TOR$BREAK_HANDLER File=TOR$BREAK_HANDLER.:E05TSI              WED 07/30/97 06:31 Page:29
M$RENV
      5564**DCL-ENT
M$REQUIRE
      5516**DCL-ENT
M$RETRY
      5565**DCL-ENT
M$RETRYS
      5565**DCL-ENT
M$REW
      5511**DCL-ENT
M$RLSFLD
      5539**DCL-ENT
M$RPRIV
      5567**DCL-ENT
M$RSPP
      5546**DCL-ENT
M$RSWITCH
      5568**DCL-ENT
M$RUE
      5574**DCL-ENT
M$SAD
      5547**DCL-ENT
M$SAVE
      5523**DCL-ENT
M$SCON
      5524**DCL-ENT
M$SCREECH
      5522**DCL-ENT
M$SENV
      5564**DCL-ENT
M$SETFMA
      5508**DCL-ENT
M$SETFP
      5537**DCL-ENT
M$SINPUT
      5535**DCL-ENT
PL6.E3A0      #001=TOR$BREAK_HANDLER File=TOR$BREAK_HANDLER.:E05TSI              WED 07/30/97 06:31 Page:30
M$SLCFLD
      5540**DCL-ENT
M$SMOUSE
      5554**DCL-ENT
M$SMPRT
      5546**DCL-ENT
M$SPRIV
      5567**DCL-ENT
M$SSC
      5547**DCL-ENT
M$SSWITCH
      5567**DCL-ENT
M$STATE
      5576**DCL-ENT
M$STD
      5548**DCL-ENT
M$STIMER
      5562**DCL-ENT
M$STLPP
      5545**DCL-ENT
M$STRAP
      5562**DCL-ENT
M$STRMATTR
      5534**DCL-ENT
M$STRMCTL
      5532**DCL-ENT
M$STRMTAB
      5535**DCL-ENT
M$SYMBIO
      5573**DCL-ENT
M$SYSCON
      5559**DCL-ENT
M$SYSID
      5577**DCL-ENT
M$TDCLOSE
      5558**DCL-ENT
PL6.E3A0      #001=TOR$BREAK_HANDLER File=TOR$BREAK_HANDLER.:E05TSI              WED 07/30/97 06:31 Page:31
M$TDIO
      5558**DCL-ENT
M$TDOPEN
      5557**DCL-ENT
M$TDREQCPU
      5558**DCL-ENT
M$TEMPWROC
      5552**DCL-ENT
M$TIME
      5575**DCL-ENT
M$TRAP
      5562**DCL-ENT
M$TRMISC
      5537**DCL-ENT
M$TRMPRG
      5533**DCL-ENT
M$TRUNC
      5509**DCL-ENT
M$TTIMER
      5562**DCL-ENT
M$UC
      5532**DCL
M$UMPL
      5549**DCL-ENT
M$UNFID
      5571**DCL-ENT
M$UNLATCH
      5528**DCL-ENT
M$UNSHARE
      5525**DCL-ENT
M$USRFIELD
      5568**DCL-ENT
M$VIRTUAL
      5543**DCL-ENT
M$WAIT
      5566**DCL-ENT
PL6.E3A0      #001=TOR$BREAK_HANDLER File=TOR$BREAK_HANDLER.:E05TSI              WED 07/30/97 06:31 Page:32
M$WEOF
      5511**DCL-ENT
M$WRITE
      5509**DCL-ENT
M$WRSYSLOG
      5557**DCL-ENT
M$XCON
      5563**DCL-ENT
M$XCONRTN
      5524**DCL-ENT
M$XEQTIME
      5576**DCL-ENT
M$XFLUSH
      5517**DCL-ENT
M$XMOUSE
      5554**DCL-ENT
M$XXX
      5520**DCL-ENT
M$YC
      5522**DCL-ENT
TOR$BREAK_HANDLER
        19**PROC
