VERSION E05

PL6.E3A0      #001=TOR$ENTRY File=TOR$ENTRY.:E05TSI                              WED 07/30/97 06:32 Page:1
        1        1        /*M* TOR$ENTRY   TOLTS User Requested Terminal Line Exercizer */
        2        2        /*T***********************************************************/
        3        3        /*T*                                                         */
        4        4        /*T* Copyright (c) Bull HN Information Systems Inc., 1997    */
        5        5        /*T*                                                         */
        6        6        /*T***********************************************************/
        7        7
        8        8        /*X* PLM=3,DCI=6,SQB=N,PRB=N,DTI=5,ENI=0,AND=Y,ECI=0,CSU=3,DIN=3,
        9        9             CTI=8,CRM=109,CRT=1,NLB=N,NTB=Y,MCL=110 */
       10       10
       11       11        /*F* NAME:         TOR$ENTRY
       12       12             PURPOSE:      Main entry point for TURTLE
       13       13                           Needed since main programs can not have entry points
       14       14             DESCRIPTION:  PL6 module invoked from IBEX
       15       15                           Invoked: !TURTLE
       16       16        */
       17       17        %EJECT ;
PL6.E3A0      #001=TOR$ENTRY File=TOR$ENTRY.:E05TSI                              WED 07/30/97 06:32 Page:2
       18       18        /*D*  NAME:        TURTLE
       19       19              PURPOSE:     TURTLE run unit
       20       20              DESCRIPTION: The modules linked together to form the TURTLE
       21       21                                TOR$BREAK_HANDLER
       22       22                                TOR$ENTRY
       23       23                                TOR$FAULTS
       24       24                                TOR$TURTLE
       25       25                           Other files considered part of the TURTLE are:
       26       26                                TOT_TOLTS_M
       27       27        */
       28       28
       29       29        TOR$ENTRY: PROC MAIN;
       30       30
       31       31    1      DCL TOR$TURTLE ENTRY;
       32       32
       33       33        /* Code */
       34       34
       35       35    1      CALL TOR$TURTLE;
       36       36
       37       37    1   END TOR$ENTRY;

PL6.E3A0      #001=TOR$ENTRY File=TOR$ENTRY.:E05TSI                              WED 07/30/97 06:32 Page:3
      No diagnostics issued in procedure TOR$ENTRY.

   Procedure TOR$ENTRY requires 6 words for executable code.
   Procedure TOR$ENTRY requires 4 words of local(AUTO) storage.

    No errors detected in file TOR$ENTRY.:E05TSI    .

PL6.E3A0      #001=TOR$ENTRY File=TOR$ENTRY.:E05TSI                              WED 07/30/97 06:32 Page:4

 Object Unit name= TOR$ENTRY                                  File name= TOR$ENTRY.:E05TOU
 UTS= JUL 30 '97 06:32:02.44 WED                              Compiler= PL-6/E31         Sev=      00
 SharedLib= :SHARED_SYSTEM                                    Alt SharedLib=


    ****  Control sections  ****

 Sect   Type Bound  Init  Size OctSiz  Section name(segment info)
    0   Proc  even  none     6      6  TOR$ENTRY

    ****  Entry defs  ****

                              Check   Calling
                             calling  sequence
  Sect OctLoc Primary Altret sequence   type   Parms  Name
     0      0   yes            yes      Main       0  TOR$ENTRY

  ****  Entry refs  ****

         Check        Calling
        calling       sequence
Altret sequence SRef   type   Args  Name
         yes           Std       0 TOR$TURTLE
                       nStd      0 X66_MAUTO
                       Std       0 B_CONSPOOL_D
                       nStd      0 X66_MARET

  ****  Data refs  ****

  Flags:  r = read only, s = secondary
Flgs Name                             Flgs Name                             Flgs Name
     B_VECTNIL
PL6.E3A0      #001=TOR$ENTRY File=TOR$ENTRY.:E05TSI                              WED 07/30/97 06:32 Page:5


        1        1        /*M* TOR$ENTRY   TOLTS User Requested Terminal Line Exercizer */
        2        2        /*T***********************************************************/
        3        3        /*T*                                                         */
        4        4        /*T* Copyright (c) Bull HN Information Systems Inc., 1997    */
        5        5        /*T*                                                         */
        6        6        /*T***********************************************************/
        7        7
        8        8        /*X* PLM=3,DCI=6,SQB=N,PRB=N,DTI=5,ENI=0,AND=Y,ECI=0,CSU=3,DIN=3,
        9        9             CTI=8,CRM=109,CRT=1,NLB=N,NTB=Y,MCL=110 */
       10       10
       11       11        /*F* NAME:         TOR$ENTRY
       12       12             PURPOSE:      Main entry point for TURTLE
       13       13                           Needed since main programs can not have entry points
       14       14             DESCRIPTION:  PL6 module invoked from IBEX
       15       15                           Invoked: !TURTLE
       16       16        */
       17       17        %EJECT ;
PL6.E3A0      #001=TOR$ENTRY File=TOR$ENTRY.:E05TSI                              WED 07/30/97 06:32 Page:6
       18       18        /*D*  NAME:        TURTLE
       19       19              PURPOSE:     TURTLE run unit
       20       20              DESCRIPTION: The modules linked together to form the TURTLE
       21       21                                TOR$BREAK_HANDLER
       22       22                                TOR$ENTRY
       23       23                                TOR$FAULTS
       24       24                                TOR$TURTLE
       25       25                           Other files considered part of the TURTLE are:
       26       26                                TOT_TOLTS_M
       27       27        */
       28       28
       29       29        TOR$ENTRY: PROC MAIN;

     29  0 000000   000000 700200 xent  TOR$ENTRY    TSX0  ! X66_MAUTO
         0 000001   000004 000000                    ZERO    4,0

       30       30
       31       31    1      DCL TOR$TURTLE ENTRY;
       32       32
       33       33        /* Code */
       34       34
       35       35    1      CALL TOR$TURTLE;

     35  0 000002   000002 631400 xsym               EPPR1   B_VECTNIL+2
         0 000003   000000 701000 xent               TSX1    TOR$TURTLE
         0 000004   000000 011000                    NOP     0

       36       36
       37       37    1   END TOR$ENTRY;

     37  0 000005   000000 702200 xent               TSX2  ! X66_MARET

PL6.E3A0      #001=TOR$ENTRY File=TOR$ENTRY.:E05TSI                              WED 07/30/97 06:32 Page:7
      No diagnostics issued in procedure TOR$ENTRY.
PL6.E3A0      #001=TOR$ENTRY File=TOR$ENTRY.:E05TSI                              WED 07/30/97 06:32 Page:8

 **** Procedure blocks ****

LB#    Line#s    #stmts #vars Sect# OctLoc  P A C   NP Lvl/name
  0    29-    37      3     0     0      0  y   y    0   1 TOR$ENTRY
PL6.E3A0      #001=TOR$ENTRY File=TOR$ENTRY.:E05TSI                              WED 07/30/97 06:32 Page:9

    **** Executable statements  ****

  Exec cost Stmt Sec OctLoc Type   LB Label              Exec cost Stmt Sec OctLoc Type   LB Label

              29   0      0 Proc    0                                35   0      2 Call    0
              37   0      5 EndPrc  0

  **** Statement type totals  ****

     1 Call       1 Proc       1 EndPrc

 # major stmts=    1 Code/major= 6.00 # stmts=    3 Code/stmt= 2.00  Point total= 88.9
 Cost/major stmt=  3.1 Cost/stmt=  1.0 Total cost=      3.1

   0-4  $$$$$$$$$$$$$$$$$$$$$$$$$$$$$$$$$$$$$$$$$$$$$$$$$$$$$$$$$$$$$$$$$$
   4-6
   6-8
  8-10
 10-12
 12-14
 14-16
 16-18
 18-20
 20-22
 22-??
PL6.E3A0      #001=TOR$ENTRY File=TOR$ENTRY.:E05TSI                              WED 07/30/97 06:32 Page:10

 **** Variables and constants ****


   Procedure TOR$ENTRY requires 6 words for executable code.
   Procedure TOR$ENTRY requires 4 words of local(AUTO) storage.

    No errors detected in file TOR$ENTRY.:E05TSI    .
PL6.E3A0      #001=TOR$ENTRY File=TOR$ENTRY.:E05TSI                              WED 07/30/97 06:32 Page:11
          *** CROSS REFERENCE LISTING ***
**     DENOTES     IDENTIFIER DEFINITION
<<                 IDENTIFIER'S VALUE SET
>>                 IDENTIFIER'S VALUE USED
<>                 IDENTIFIER SET AND/OR USED
--                 IDENTIFIER REFERENCED
PL6.E3A0      #001=TOR$ENTRY File=TOR$ENTRY.:E05TSI                              WED 07/30/97 06:32 Page:12
          FULL XREF LISTING

TOR$ENTRY
        29**PROC
TOR$TURTLE
        31**DCL-ENT    35--CALL
PL6.E3A0      #001=TOR$ENTRY File=TOR$ENTRY.:E05TSI                              WED 07/30/97 06:32 Page:13
              *** CROSS REFERENCE LISTING ***
    **     DENOTES     IDENTIFIER DEFINITION
    <<                 IDENTIFIER'S VALUE SET
    >>                 IDENTIFIER'S VALUE USED
    <>                 IDENTIFIER SET AND/OR USED
    --                 IDENTIFIER REFERENCED
PL6.E3A0      #001=TOR$ENTRY File=TOR$ENTRY.:E05TSI                              WED 07/30/97 06:32 Page:14
              FULL UREF LISTING

TOR$ENTRY
        29**PROC
