PL6.E3A0      #001=TOR$FAULTS File=TOR$FAULTS.:E05TSI                            WED 07/30/97 06:32 Page:1
        1        1        /*M*  TOR$FAULTS      T&D On-line tuRtle FAULTS handler */
        2        2        /*T***********************************************************/
        3        3        /*T*                                                         */
        4        4        /*T* Copyright (c) Bull HN Information Systems Inc., 1997    */
        5        5        /*T*                                                         */
        6        6        /*T***********************************************************/
        7        7
        8        8        /*X* PLM=3,DCI=6,SQB=N,PRB=N,DTI=5,ENI=0,AND=Y,ECI=0,CSU=3,DIN=3,
        9        9             PRB=Y,CTI=8,CRM=109,CRT=1,NLB=N,NTB=Y,MCL=110 */
       10       10
       11       11        /*P*  NAME:     TOR$FAULTS
       12       12              PURPOSE:  RECEIVE CONTROL FROM CP6 FOR ALL TURTLE FAULTS
       13       13                        AND CALLS A SERVICE ROUTINE TO HANDLE EACH
       14       14                        FAULT TYPE.
       15       15                        MAJORITY OF ENTRIES INTO  FAULTS  WILL BE AS A
       16       16                        RESULT OF "MME" INSTRUCTIONS EXECUTED BY
       17       17                        TURTLE REQUIRING A CP6 SERVICE.
       18       18              LAST UPDATE: 08/19/82
       19       19              DESCRIPTION: This fault handler is established at TURTLE
       20       20                           initialization time by a call to M$TRAP.
       21       21                           Control passes here on arithmetic and programmed faults.
       22       22        */
       23       23        %EJECT ;
PL6.E3A0      #001=TOR$FAULTS File=TOR$FAULTS.:E05TSI                            WED 07/30/97 06:32 Page:2
       24       24        TOR$FAULTS: PROC ASYNC;
       25       25
       26       26        /* Include files */
       27       27
       28       28           %INCLUDE CP_6;
       29     5587           %INCLUDE CP_6_SUBS;
       30     6127           %INCLUDE F$DCB;
       31     6176           %INCLUDE TOT_TOLTS_M ;
       32     7294
       33     7295        /* Fault Frame Declarations */
       34     7296
       35     7297           %B$EXCFR;
       36     7315           %B$FLT;
       37     7367           %B$TCB;
       38     7370           %B$ALT;
       39     7378           %SUB_EXC;
       40     7425
       41     7426        /* Function Parameter Tables */
       42     7427
       43     7428           %FPT_TRTN (FPTN = TRTN_FPT);
       44     7445           %FPT_WRITE(FPTN = CONSOLE_FPT,DCB = M$LO,WAIT = YES);
       45     7476           %FPT_WRITE(FPTN = WRITE_IO,DCB = M$LO,WAIT = YES,VFC = YES);
       46     7507           %FPT_READ(FPTN = READ_IO,DCB = M$SI,WAIT = YES) ;
       47     7546
       48     7547        /* Data Control Blocks */
       49     7548
       50     7549    1      DCL M$SI DCB ;
       51     7550    1      DCL M$LO DCB ;
       52     7551           %EJECT ;
PL6.E3A0      #001=TOR$FAULTS File=TOR$FAULTS.:E05TSI                            WED 07/30/97 06:32 Page:3
       53     7552        /* TOLTS Macros */
       54     7553
       55     7554           %MME ;
       56     7575           %MREG ;
       57     7597           %MME_INSTR$ ;
       58     7600    1      DCL 1 MME_INSTR REDEF MME_INSTR$ ALIGNED,
       59     7601    1            2 ADR     UBIN HALF UNAL,
       60     7602    1            2 SEGID   UBIN HALF UNAL ;
       61     7603           %RETURN_DELTA ;
       62     7606
       63     7607        /* Variables */
       64     7608
       65     7609    1      DCL B$TCB$ PTR SYMREF;
       66     7610    1      DCL TOR$BREAK_OCCURRED BIT (1) SYMREF CALIGNED ;
       67     7611    1      DCL CHAR_COUNT SBIN;
       68     7612    1      DCL ECC UBIN (18);
       69     7613    1      DCL MME_IR BIT  (13) ALIGNED;
       70     7614    1      DCL SUB_CODE UBIN (36);
       71     7615    1      DCL DATE_BUFFER_ASCII(0:5) CHAR(1) STATIC;
       72     7616    1      DCL IONUM SBIN HALF STATIC INIT(0);
       73     7617           %EJECT ;
PL6.E3A0      #001=TOR$FAULTS File=TOR$FAULTS.:E05TSI                            WED 07/30/97 06:32 Page:4
       74     7618    1      DCL 1 WRITE_BUF_VECTOR STATIC DALIGNED,
       75     7619    1            2 BOUNDS UBIN(20) UNAL,
       76     7620    1            2 FLAGS BIT(9) UNAL INIT('777'O),
       77     7621    1            2 V BIT(2) UNAL INIT('01'B),
       78     7622    1            2 * UBIN(5) UNAL,
       79     7623    1            2 BASE UBIN(20) UNAL,
       80     7624    1            2 * UBIN (4) UNAL INIT(0),
       81     7625    1            2 SEGID BIT(12) UNAL INIT('6000'O);
       82     7626    1      DCL WRITE_BUF_VECTOR_V REDEF WRITE_BUF_VECTOR BIT (72);
       83     7627    1      DCL 1 IO_BUFFER(0:7) STATIC,
       84     7628    1            2 BUF_AVAILIABLE_FLAG UBIN(1) UNAL INIT(0*0),
       85     7629    1            2 IO_REQ_SERVICED_FLAG UBIN(1) UNAL INIT(0*0),
       86     7630    1            2 READ_FLAG UBIN(1) UNAL INIT(0*0),
       87     7631    1            2 TDPCN UBIN(18) UNAL,
       88     7632    1            2 PAD_CHAR UBIN(6) UNAL,
       89     7633    1            2 LID UBIN(6) UNAL,
       90     7634    1            2 EXEC_NUM UBIN(3) UNAL,
       91     7635    1            2 IO_ENTRY BIT(18) UNAL,
       92     7636    1            2 IO_REQ_BITS UNAL,
       93     7637    1              3 E UBIN(1) UNAL,
       94     7638    1              3 R UBIN(1) UNAL,
       95     7639    1              3 M UBIN(1) UNAL,
       96     7640    1              3 S UBIN(1) UNAL,
       97     7641    1              3 C UBIN(1) UNAL,
       98     7642    1              3 P UBIN(1) UNAL,
       99     7643    1            2 WRITE_WD_CNT_BCD UBIN(12) UNAL,
      100     7644    1            2 CHAR_COUNT SBIN UNAL,
      101     7645    1            2 WRITE_DATA CHAR(1920) UNAL,
      102     7646    1            2 READ_DATA CHAR(84) UNAL;
      103     7647        %EJECT;
PL6.E3A0      #001=TOR$FAULTS File=TOR$FAULTS.:E05TSI                            WED 07/30/97 06:32 Page:5
      104     7648        /* External Entries and Entry Pointers */
      105     7649
      106     7650    1      DCL TOT$ASCII_BCD              ENTRY (3) ;
      107     7651    1      DCL TOT$BCD_ASCII              ENTRY (3) ;
      108     7652    1      DCL TOR$CONSOLE_OUT_PTR        ENTRY ;
      109     7653    1      DCL TOR$WRAPUP_PTR             ENTRY ;
      110     7654    1      DCL TOR$EXIT_PTR               ENTRY ;
      111     7655
      112     7656        /* Code */
      113     7657
      114     7658    1      CALL GET_EXCEPTION_CODE (ECC);
      115     7659    2      DO CASE (ECC);
      116     7660    2         CASE (6);
      117     7661    2            CALL MME_HANDLER;
      118     7662    2         CASE (ELSE);
      119     7663    2            CALL TOR$WRAPUP_PTR ;
      120     7664    2      END /* CASE */ ;
      121     7665    1      CALL M$TRTN (TRTN_FPT) ;
      122     7666
      123     7667        /* END TOR$FAULTS */
      124     7668        %EJECT;
PL6.E3A0      #001=TOR$FAULTS File=TOR$FAULTS.:E05TSI                            WED 07/30/97 06:32 Page:6
      125     7669        /*F* NAME:         GET_EXCEPTION_CODE
      126     7670             DESCRIPTION:
      127     7671                           ECC CODES AND SUB CODES--
      128     7672                           ECC = 0  (TIMER RUNOUT)
      129     7673                           ECC = 5   (ARITHMETIC FAULT)
      130     7674                              SUB_CODE = 0  OVERFLOW
      131     7675                              SUB_CODE = 1  DIVIDE CHECK
      132     7676                           ECC = 6  (PROGRAMMED FAULT)
      133     7677                              SUB_CODE = 0  MME
      134     7678                              SUB_CODE = 1  DERAIL
      135     7679                              SUB_CODE = 2  FAULT TAG
      136     7680                           ECC = 7  (ERRORS)
      137     7681                              SUB_CODE = 0  MEMORY
      138     7682                              SUB_CODE = 1  COMMAND
      139     7683                              SUB_CODE = 2  LOCKUP
      140     7684                              SUB_CODE = 3  ILLEGAL PROCEDURE
      141     7685                              SUB_CODE = 4  MISSING SEGMENT
      142     7686                              SUB_CODE = 5  MISSING PAGE
      143     7687                              SUB_CODE = 6  SECURITY 2
      144     7688        */
      145     7689
      146     7690    1   GET_EXCEPTION_CODE: PROC (ECC);
      147     7691
      148     7692    2      DCL ECC UBIN (18);
      149     7693    2      ECC = B$TCB$->B$TCB.STK$->B$EXCFR.ECC;
      150     7694    2      SUB_CODE = B$TCB$ -> B$TCB.STK$ -> B$EXCFR.SUBC;
      151     7695    2      RETURN;
      152     7696
      153     7697    2   END GET_EXCEPTION_CODE;
      154     7698        %EJECT;
PL6.E3A0      #001=TOR$FAULTS File=TOR$FAULTS.:E05TSI                            WED 07/30/97 06:32 Page:7
      155     7699        /*F* NAME:         MME_HANDLER
      156     7700             DESCRIPTION:
      157     7701           NEXT, GO INTO THE EXCEPTION STACK FRAME AND FETCH THE MME DATA--
      158     7702           REGISTERS, THE MME INSTRUCTION, AND SOME WORDS IMMEDIATELY FOLLOWING
      159     7703           THE MME INSTRUCTION.  THIS IS DONE SO ALL THE MME SERVICE ROUTINES
      160     7704           DON'T HAVE TO DO IT INDIVIDUALLY.   GET_MME-DATA    DOES THIS.
      161     7705           USING THE MME TYPE NUMBER (FROM THE MME INSTRUCTION), CALL THE
      162     7706           APPROPRIATE MME SERVICE ROUTINE.  CALL EITHER TOG$GCOS_MMES
      163     7707           OR TOR$TURTLE_MMES OR TOR$TURTLE WHICH IN TURN CALLS THE SPECIFIC
      164     7708           SERVICE ROUTINE.
      165     7709           ON RETURN FROM THE SERVICE ROUTINE, RETURN THE MME DATA BACK TO THE
      166     7710           EXCEPTION STACK AND THE WORDS IMMEDIATELY FOLLOWING THE MME
      167     7711           INSTRUCTION.   RET_MME_DATA    DOES THIS.
      168     7712           FINALLY, RETURN IS MADE TO THE SUBEXEC BY CALLING M$TRTN.  THIS POPS
      169     7713           THE EXCEPTION STACK FRAME, RESTORES THE REGISTER ENVIRONMENT AND
      170     7714           RETURNS CONTROL TO WHATEVER WAS INTERRUPTETED.
      171     7715        */
      172     7716        %EJECT;
PL6.E3A0      #001=TOR$FAULTS File=TOR$FAULTS.:E05TSI                            WED 07/30/97 06:32 Page:8
      173     7717    1   MME_HANDLER:PROC;
      174     7718
      175     7719    2      CALL GET_MME_DATA;
      176     7720    2      IF MME.INST.NO >  0
      177     7721    3      THEN DO CASE (MME.INST.NO);
      178     7722    3              CASE (%GESNAP);
      179     7723    3                 CALL TOR$MME_GESNAP(MME.WD_1,RETURN_DELTA);
      180     7724    3              CASE (%GETIME);
      181     7725    3                 CALL TOR$MME_GETIME(MREG.A,MREG.Q,RETURN_DELTA);
      182     7726    3              CASE(%GEROUT);
      183     7727    3                 CALL TOR$MME_GEROUT(MME.WD_1,MME.WD_2,RETURN_DELTA);
      184     7728    3              CASE (%GEWAKE);
      185     7729    3                 CALL TOR$MME_GEWAKE(MREG.Q,RETURN_DELTA);
      186     7730    3              CASE (%GEFINI);
      187     7731    3                 CALL TOR$EXIT_PTR ;
      188     7732    3              CASE (ELSE);
      189     7733    3                 CALL TOR$WRAPUP_PTR ;
      190     7734    3           END;
      191     7735    3      ELSE DO CASE (-MME.INST.NO);
      192     7736    3              CASE (%TADIOD);
      193     7737    3                 CALL TOR$MME_TADIOD(MREG.A,MME.WD_1,MME.WD_2,MME.WD_3,MME.WD_4,
      194     7738    3                         MME.WD_5,MME.WD_6,RETURN_DELTA);
      195     7739    3              CASE (%TERMIN) ;
      196     7740    3                 CALL TOR$EXIT_PTR ;
      197     7741    3              CASE (ELSE) ;
      198     7742    3                 CALL TOR$WRAPUP_PTR ;
      199     7743    3           END;
      200     7744    2      CALL RET_MME_DATA;
      201     7745    2      CALL FIX_RET_IC;
      202     7746    2      RETURN ;
      203     7747
      204     7748    2   END MME_HANDLER;
      205     7749        %EJECT;
PL6.E3A0      #001=TOR$FAULTS File=TOR$FAULTS.:E05TSI                            WED 07/30/97 06:32 Page:9
      206     7750        /*F* NAME:         GET_MME_DATA
      207     7751             DESCRIPTION:
      208     7752           FETCHES MME DATA FROM EXCEPTION STACK FRAME.  RETURNS STRUCTURES MME
      209     7753           AND MREG, AND MME.INSTR$, POINTER TO OF MME INSTRUCTION.
      210     7754           B$TCB DEFINES TASK CONTROL BLOCK (TCB) AND INFORMATION ABOUT
      211     7755           CURRENT EXCEPTION STACK FRAME.  B$EXCFR  DEFINES CURRENT
      212     7756           EXCEPTION STACK FRAME.
      213     7757           B$TCB$ IS A LOADER BUILT POINTER TO THE TCB.
      214     7758        */
      215     7759
      216     7760    1   GET_MME_DATA:PROC;
      217     7761
      218     7762    2      DCL MME_GMAP_DATA (0:6) UBIN  (36) BASED;
      219     7763
      220     7764    2      MME_INSTR.ADR = B$TCB$->B$TCB.STK$->B$EXCFR.IC;
      221     7765    2      MME_INSTR.SEGID = %IS_SEGID;
      222     7766
      223     7767    2      MME = MME_INSTR$->MME_GMAP_DATA;
      224     7768
      225     7769    2      MREG = B$TCB$->B$TCB.STK$->B$EXCFR.REGS;
      226     7770
      227     7771    2      MME_IR = B$TCB$ -> B$TCB.STK$ -> B$EXCFR.IR;
      228     7772    2      RETURN;
      229     7773
      230     7774    2   END GET_MME_DATA;
      231     7775        %EJECT;
PL6.E3A0      #001=TOR$FAULTS File=TOR$FAULTS.:E05TSI                            WED 07/30/97 06:32 Page:10
      232     7776        /*F* NAME:         FIX_RET_IC
      233     7777             DESCRIPTION:
      234     7778           FOLLOWING MME SERVICE, USES RETURN_DELTA TO FIX UP IC TO RETURN TO.
      235     7779           RETURN_DELTA IS NUMBER OF INSTRUCTIONS PAST MME INSTRUCTION TO
      236     7780           RETURN TO.  IT MAY BE POSITIVE OR NEGATIVE.  RETURN IC IS
      237     7781           CALCULATED BY ADDING RETURN DELTA TO MME INSTRUCTION IC.  RETURN
      238     7782           IC    IS STORED IN FPT.  CALL TO M$TRTN RETURNS IT TO EXCEPTION
      239     7783           STACK; CONTROL GOES TO RETURN IC WHEN STACK FRAME IS POPPED.
      240     7784        */
      241     7785
      242     7786    1   FIX_RET_IC:PROC;
      243     7787
      244     7788    2      TRTN_FPT.V.IC# = MME_INSTR.ADR + RETURN_DELTA;
      245     7789    2      RETURN;
      246     7790
      247     7791    2   END FIX_RET_IC;
      248     7792        %EJECT;
PL6.E3A0      #001=TOR$FAULTS File=TOR$FAULTS.:E05TSI                            WED 07/30/97 06:32 Page:11
      249     7793        /*F* NAME:         RET_MME_DATA
      250     7794             DESCRIPTION:
      251     7795           RETURNS DATA FROM STRUCTURES MREG AND MME TO EXCEPTION STACK FRAME.
      252     7796           AND GMAP PROGRAM.  M$TRTN AUTOMATICALLY RETURNS DATA TO STACK
      253     7797           FRAME.  THIS ROUTINE RETURNS 6 WORDS TO THE LOCATIONS
      254     7798           IMMEDIATELY FOLLOWING THE MME INSTRUCTION.
      255     7799        */
      256     7800
      257     7801    1   RET_MME_DATA:PROC;
      258     7802
      259     7803    2      DCL MME_GMAP_DATA (0:6) UBIN (36) BASED;
      260     7804
      261     7805    2      TRTN_FPT.REGS_ =   VECTOR (MREG);
      262     7806
      263     7807    2      MME_INSTR$->MME_GMAP_DATA = MME;
      264     7808    2      RETURN;
      265     7809
      266     7810    2   END RET_MME_DATA;
      267     7811        %EJECT;
PL6.E3A0      #001=TOR$FAULTS File=TOR$FAULTS.:E05TSI                            WED 07/30/97 06:32 Page:12
      268     7812        /*F*    NAME:    TOR$MME_GEROUT
      269     7813                PURPOSE: CALLED BY MME HANDLER TO SERVICE I/O
      270     7814                         REQUEST TO AND FROM THE TERMINAL.
      271     7815                         CHECKS THE BREAK FLAG. IF IT IS SET
      272     7816                         IT CALLS M$INT TO SET AND RESET THE
      273     7817                         BREAK_FPT. IT ALSO CALLS M$WAIT
      274     7818                         WHILE WAITING FOR A BREAK.
      275     7819                         CHECKS TO SEE IF ITS A WRITE OR A
      276     7820                         WRITE/READ. IT THEN CALLS M$WRITE
      277     7821                         OR M$READ.
      278     7822                         AFTER THE OPERATION IS COMPLETE IT
      279     7823                         FORMS THE STATUS AND SENDS IT BACK
      280     7824                         TO THE CALLER.
      281     7825        */
      282     7826        %EJECT;
PL6.E3A0      #001=TOR$FAULTS File=TOR$FAULTS.:E05TSI                            WED 07/30/97 06:32 Page:13
      283     7827    1   TOR$MME_GEROUT :PROC(GEMAP_PAR,STATUS_TABLE,RETURN_DELTA);
      284     7828
      285     7829    2      DCL BRK_EXPECTED      BIT (1) STATIC SYMDEF CALIGNED INIT (%FALSE) ;
      286     7830    2      DCL GEMAP_PAR UBIN(36);
      287     7831    2      DCL 1 GEMAP_PAR_TABLE REDEF GEMAP_PAR,
      288     7832    2            2 BUFFER_ADD UBIN(18) UNAL,
      289     7833    2            2 OP_CODE UBIN(6) UNAL,
      290     7834    2            2 * UBIN (12) UNAL;
      291     7835    2      DCL STATUS_TABLE UBIN(36);
      292     7836    2      DCL 1 STATUS_TABLE_PTR REDEF STATUS_TABLE,
      293     7837    2            2 STATUS_ADD UBIN(18) UNAL,
      294     7838    2            2 * UBIN(18) UNAL;
      295     7839    2      DCL RETURN_DELTA SBIN HALF;
      296     7840    2      DCL ERRCODE UBIN(14) UNAL;
      297     7841    2      DCL TABLE$ PTR;
      298     7842    2      DCL 1 TABLE_PTR REDEF TABLE$,
      299     7843    2            2 ADR UBIN(18) UNAL,
      300     7844    2            2 SEGID UBIN(18) UNAL;
      301     7845    2      DCL 1 TABLE BASED ALIGNED,
      302     7846    2            2 WORD_CNT UBIN(18) UNAL,
      303     7847    2            2 INPUT_BUF UBIN(18) UNAL,
      304     7848    2            2 CHAR_CNT UBIN(18) UNAL,
      305     7849    2            2 * UBIN(17) UNAL,
      306     7850    2            2 BREAK_FLAG UBIN(1) UNAL,
      307     7851    2            2 WRITE_DATA(0:383) CHAR(1) UNAL;
      308     7852    2      DCL STATUS$ PTR;
      309     7853    2      DCL 1 STATUS_PTR REDEF STATUS$,
      310     7854    2            2 ADR UBIN(18) UNAL,
      311     7855    2            2 SEGID UBIN(18) UNAL;
      312     7856    2      DCL 1 STATUS BASED ALIGNED,
      313     7857    2            2 * UBIN(33) UNAL,
      314     7858    2            2 OP_COMPLETE UBIN(1) UNAL,
      315     7859    2            2 IO_ERROR UBIN(1) UNAL,
      316     7860    2            2 BREAK_REC UBIN(1) UNAL;
      317     7861        %FPT_WAIT(FPTN = BRK_WAIT_FPT,UNITS=10);
      318     7875        %EJECT;
PL6.E3A0      #001=TOR$FAULTS File=TOR$FAULTS.:E05TSI                            WED 07/30/97 06:32 Page:14
      319     7876        /* Code */
      320     7877
      321     7878    2      TABLE_PTR.ADR = GEMAP_PAR_TABLE.BUFFER_ADD;
      322     7879    2      TABLE_PTR.SEGID = %IS_SEGID ;
      323     7880
      324     7881    2      STATUS_PTR.ADR = STATUS_TABLE_PTR.STATUS_ADD;
      325     7882    2      STATUS_PTR.SEGID = %IS_SEGID ;
      326     7883    2      IF TABLE$ -> TABLE.BREAK_FLAG = 1
      327     7884    2      THEN BRK_EXPECTED = %TRUE ;
      328     7885    2      ELSE BRK_EXPECTED = %FALSE ;
      329     7886
      330     7887    3      DO CASE (GEMAP_PAR_TABLE.OP_CODE) ;
      331     7888    3         CASE(3); /* WRITE */
      332     7889    3            CALL WRITE;
      333     7890    3         CASE(4); /* WRITE,READ */
      334     7891    3            CALL WRITE;
      335     7892    3            CALL READ;
      336     7893    3         CASE(ELSE);
      337     7894    3            CALL TOR$WRAPUP_PTR ;
      338     7895    3      END;
      339     7896
      340     7897    2      BRK_EXPECTED = %FALSE ;
      341     7898    2      RETURN_DELTA = 3;
      342     7899    2      RETURN;
      343     7900
      344     7901        /* END TOR$MME_GEROUT */
      345     7902        %EJECT;
PL6.E3A0      #001=TOR$FAULTS File=TOR$FAULTS.:E05TSI                            WED 07/30/97 06:32 Page:15
      346     7903        /*F* NAME:         WRITE
      347     7904             DESCRIPTION:
      348     7905        */
      349     7906
      350     7907    2   WRITE : PROC;
      351     7908
      352     7909    3      DCL CHAR_COUNT UBIN(18);
      353     7910    3      DCL ASCII_OUTPUT_BFR(0:383) CHAR(1);
      354     7911    3      DCL 1 VFC_ STATIC,
      355     7912    3            2 * UBIN(2) UNAL INIT(0),
      356     7913    3            2 * UBIN(3) UNAL INIT(4),
      357     7914    3            2 * UBIN(4) UNAL INIT(0);
      358     7915    3      DCL VFC_BYTE REDEF VFC_ CHAR(1);
      359     7916    3      DCL N UBIN(36);
      360     7917
      361     7918        /* Code */
      362     7919
      363     7920    3      CHAR_COUNT = TABLE$->TABLE.CHAR_CNT;
      364     7921    3      ASCII_OUTPUT_BFR(0) = VFC_BYTE;
      365     7922    4      DO N = 1 TO CHAR_COUNT;
      366     7923    4         ASCII_OUTPUT_BFR(N) = TABLE$->TABLE.WRITE_DATA(N-1);
      367     7924    4      END;
      368     7925    3      WRITE_IO.BUF_ = VECTOR(ASCII_OUTPUT_BFR);
      369     7926    3      WRITE_IO.BUF_.BOUND = CHAR_COUNT;
      370     7927    3      CALL M$WRITE(WRITE_IO) ALTRET (WRITE_ERROR) ;
      371     7928    3      STATUS$->STATUS.OP_COMPLETE = 1;
      372     7929    3      RETURN;
      373     7930           %EJECT;
PL6.E3A0      #001=TOR$FAULTS File=TOR$FAULTS.:E05TSI                            WED 07/30/97 06:32 Page:16
      374     7931    3   WRITE_ERROR:
      375     7932    3      ERRCODE = B$TCB$->B$TCB.ALT$->B$ALT.ERR.CODE;
      376     7933    4      DO CASE(ERRCODE);
      377     7934    4         CASE(8);
      378     7935    4            STATUS$->STATUS.IO_ERROR = 1;
      379     7936    4         CASE(ELSE);
      380     7937    4            CALL TOR$WRAPUP_PTR ;
      381     7938    4      END;
      382     7939    3      RETURN;
      383     7940
      384     7941    3   END WRITE;
      385     7942        %EJECT;
PL6.E3A0      #001=TOR$FAULTS File=TOR$FAULTS.:E05TSI                            WED 07/30/97 06:32 Page:17
      386     7943        /*F* NAME:         READ
      387     7944             DESCRIPTION:
      388     7945        */
      389     7946
      390     7947    2   READ : PROC;
      391     7948
      392     7949    3      DCL BUFFER$ PTR;
      393     7950    3      DCL 1 BUFFER_PTR REDEF BUFFER$,
      394     7951    3            2 ADR UBIN(18) UNAL,
      395     7952    3            2 SEGID UBIN(18) UNAL;
      396     7953    3      DCL 1 INPUT_BUFFER BASED ALIGNED,
      397     7954    3            2 CHAR_COUNT UBIN(18) UNAL,
      398     7955    3            2 * UBIN(18) UNAL,
      399     7956    3            2 READ_DATA(0:143) CHAR(1) UNAL;
      400     7957    3      DCL INPUT_CC UBIN(36);
      401     7958    3      DCL N UBIN(36);
      402     7959    3      DCL ASCII_INPUT_BFR(0:143) CHAR(1);
      403     7960    3      DCL X UBIN(36) STATIC INIT(0);
      404     7961
      405     7962        /* Code */
      406     7963
      407     7964    3      BUFFER_PTR.ADR = TABLE$->TABLE.INPUT_BUF;
      408     7965    3      BUFFER_PTR.SEGID = %IS_SEGID;
      409     7966    3      X = 0;
      410     7967    3      IF BRK_EXPECTED
      411     7968    4      THEN DO ;
      412     7969    4   WAIT:
      413     7970    4              CALL M$WAIT(BRK_WAIT_FPT) ;
      414     7971    4              IF TOR$BREAK_OCCURRED
      415     7972    4              THEN STATUS$->STATUS.BREAK_REC = 1;
      416     7973    5              ELSE DO;
      417     7974    5                      X = X+1;
      418     7975    5                      IF X = 3
      419     7976    5                      THEN STATUS$->STATUS.BREAK_REC = 0;
      420     7977    5                      ELSE GOTO WAIT;
      421     7978    5                   END;
      422     7979    4           END;
PL6.E3A0      #001=TOR$FAULTS File=TOR$FAULTS.:E05TSI                            WED 07/30/97 06:32 Page:18
      423     7980    4      ELSE DO;
      424     7981    4              READ_IO.BUF_ = VECTOR(ASCII_INPUT_BFR);
      425     7982    4              CALL M$READ(READ_IO) ALTRET (READ_ERROR) ;
      426     7983    4              INPUT_CC = DCBADDR (DCBNUM (M$SI))->F$DCB.ARS;
      427     7984    4              IF INPUT_CC>80
      428     7985    4              THEN BUFFER$->INPUT_BUFFER.CHAR_COUNT = 80;
      429     7986    4              ELSE BUFFER$->INPUT_BUFFER.CHAR_COUNT = INPUT_CC;
      430     7987    4              N = 0;
      431     7988    5              DO WHILE(N<INPUT_CC&N<80);
      432     7989    5                 BUFFER$->INPUT_BUFFER.READ_DATA(N) = ASCII_INPUT_BFR(N);
      433     7990    5                 N = N+1;
      434     7991    5              END;
      435     7992    4              STATUS$->STATUS.OP_COMPLETE=1;
      436     7993    4           END;
      437     7994    3      RETURN;
      438     7995
      439     7996    3   READ_ERROR:
      440     7997    3      ERRCODE = B$TCB$->B$TCB.ALT$->B$ALT.ERR.CODE;
      441     7998    4      DO CASE(ERRCODE);
      442     7999    4         CASE(8);
      443     8000    4            STATUS$->STATUS.IO_ERROR = 1;
      444     8001    4         CASE(ELSE);
      445     8002    4            CALL TOR$WRAPUP_PTR ;
      446     8003    4      END;
      447     8004    3      RETURN;
      448     8005
      449     8006    3   END READ;
      450     8007    2   END TOR$MME_GEROUT;
      451     8008        %EJECT;
PL6.E3A0      #001=TOR$FAULTS File=TOR$FAULTS.:E05TSI                            WED 07/30/97 06:32 Page:19
      452     8009    1   TOR$MME_GESNAP: PROC(PARAM_1, RETURN_DELTA);
      453     8010
      454     8011    2      DCL PARAM_1 UBIN(36);
      455     8012    2      DCL RETURN_DELTA SBIN HALF;
      456     8013
      457     8014        /* Code */
      458     8015
      459     8016    2      RETURN_DELTA = 2;
      460     8017    2      RETURN;
      461     8018
      462     8019    2   END TOR$MME_GESNAP;
      463     8020        %EJECT;
PL6.E3A0      #001=TOR$FAULTS File=TOR$FAULTS.:E05TSI                            WED 07/30/97 06:32 Page:20
      464     8021        /*F*      NAME:    TOR$MME_GETIME
      465     8022                  PURPOSE: CALLED BY MME HANDLER FOR DATE AND TIME.
      466     8023                           SPECIFIES DEST AND SOURCE OPTIONS IN TIME_FPT INDICATING
      467     8024                           SOURCE AND FORMAT OF  DATE TO BE RETURNED.
      468     8025                           CALLS M$TIME WHICH RETURNS DATE TO DATE_BUFFER_ASCII
      469     8026                           IN FORMAT OF YYMMDD.
      470     8027                           CALLS TOT$ASCII_BCD TO CONVERT DATE FROM ASCII FORMAT TO
      471     8028                           BCD FORMAT .
      472     8029                           CALLS TOR$MME-ABSTIM TO RETURN TIME IN 1/64th MILLI_
      473     8030                           SECOND INCREMENTS SINCE MIDNIGHT.
      474     8031                           ASSIGNS RETURN_DELTA.
      475     8032                           RETURNS TO MME HANDLER WITH TIME AND DATE IN "GETIME_
      476     8033                           BUFFER" AND "DATE_BUFFER" RESPECTIVELY.
      477     8034        */
      478     8035
      479     8036    1   TOR$MME_GETIME: PROC(DATE_BUFFER, GETIME_BUFFER, RETURN_DELTA);
      480     8037
      481     8038    2      DCL DATE_BUFFER UBIN(36);
      482     8039    2      DCL DATE_BUF_TEMP(0:5) REDEF DATE_BUFFER UBIN(6) UNAL;
      483     8040    2      DCL DATE_BUFFER_BCD(0:5) UBIN(6)  STATIC UNAL;
      484     8041    2      DCL GETIME_BUFFER UBIN(36);
      485     8042    2      DCL RETURN_DELTA SBIN HALF;
      486     8043    2      DCL TIME_BUFFER UBIN(36) STATIC;
      487     8044           %FPT_TIME(FPTN = TIME_FPT,
      488     8045                     SOURCE = CLOCK,
      489     8046                    DATE = DATE_BUFFER_ASCII,
      490     8047                    TSTAMP = TIME_BUFFER);
      491     8066           %EJECT;
PL6.E3A0      #001=TOR$FAULTS File=TOR$FAULTS.:E05TSI                            WED 07/30/97 06:32 Page:21
      492     8067        /* Code */
      493     8068
      494     8069    2      TIME_FPT.V.DEST# = %ANS#;
      495     8070    2      TIME_FPT.V.SOURCE# = %CLOCK#;
      496     8071
      497     8072    2      CALL M$TIME(TIME_FPT) ;
      498     8073    2      CHAR_COUNT = 6;
      499     8074
      500     8075    2      CALL TOT$ASCII_BCD (DATE_BUFFER_ASCII,DATE_BUFFER_BCD,CHAR_COUNT);
      501     8076    2      DATE_BUF_TEMP = DATE_BUFFER_BCD;
      502     8077
      503     8078    2      TIME_FPT.V.DEST# = %TUN#;
      504     8079    2      CALL M$TIME(TIME_FPT) ;
      505     8080    2      GETIME_BUFFER = 64*TIME_BUFFER;
      506     8081    2      RETURN_DELTA = 1;
      507     8082
      508     8083    2      RETURN;
      509     8084
      510     8085    2   END TOR$MME_GETIME;
      511     8086        %EJECT;
PL6.E3A0      #001=TOR$FAULTS File=TOR$FAULTS.:E05TSI                            WED 07/30/97 06:32 Page:22
      512     8087        /*F*      NAME:    TOR$MME_GEWAKE
      513     8088                  PURPOSE: FIRST CALLED BY MME HANDLER TO RELINQUISH CONTROL OF CPU
      514     8089                           FOR A SPECIFIED PERIOD OF TIME OR UNTIL AN I/O OPERATION
      515     8090                           COMPLETES.
      516     8091                           SETS TOF$GEWAKE_FLAG = 1 TO INDICATE TO EVENT HANDLER THAT
      517     8092                           GEWAKE REQUEST IS TO BE PROCESSED.
      518     8093                           TRANSLATES GEWAKE TIME PASSED AS A PARAMETER, FROM 1/64th
      519     8094                           MILLISECOND INCREMENTS TO 1 SECOND INCREMENTS BY DIVIDING
      520     8095                           GEWAKE_TIME BY 64,000 AND ASSIGNING QUOTIENT TO GEWAKE_TIME.
      521     8096                           IF TRUNCATED QUOTIENT IS LESS THAN 1 SECOND THEN SETS
      522     8097                           WAIT_FPT UNITS = 1 SPECIFYING THAT WAIT TIME IS 1 SECOND.
      523     8098                           OTHERWISE SETS WAIT FPT UNITS EQUAL TO TRUNCATED QUOTIENT.
      524     8099                           CALLS M$WAIT AND PUTS PROGRAM TO SLEEP FOR SPECIFIED
      525     8100                           PERIOD OF TIME OR UNTIL I/O OPERATION COMPLETES AND
      526     8101                           GENERATES AN INTERRUPT IN WHICH CASE M$WAIT IS EXITED AND
      527     8102                           AND CONTROL RETURNS TO EVENT HANDLER.
      528     8103                           IF TIME PERIOD ELAPSES BEFORE INTERRUPT THEN TOF$GEWAKE_
      529     8104                           FLAG IS RESET, RETURN_DELTA IS ASSIGNED AND RETURN IS
      530     8105                           BACK TO THE MME HANDLER.  OTHERWISE EVENT HANDLER CALLS
      531     8106                           TOR$MME_GEWAKE AFTER THE OCCURENCE OF AN INTERRUPT.
      532     8107                           IF WRITE PORTION OF WRITE THEN READ OPERATION COMPLETED
      533     8108                           THEN THE TIME REMAINING FROM THE LAST M$WAIT CALL IS
      534     8109                           ASSIGNED TO GEWAKE_TIME AND M$WAIT IS AGAIN INVOKED.
      535     8110                           WHEN TOR$MME_GEWAKE IS CALLED WITH TOF$GEWAKE_FLAG = 2 THEN
      536     8111                           RETURN_DELTA IS ASSIGNED, TOF$GEWAKE_FLAG IS RESET
      537     8112                           AND RETURN IS BACK TO EVENT HANDLER.
      538     8113                           POPPING OF SUBROUTINE CALL SEQUENCE FROM STACK RESULTS IN
      539     8114                           EVENTUAL RETURN TO MME HANDLER.
      540     8115        */
      541     8116        %EJECT ;
PL6.E3A0      #001=TOR$FAULTS File=TOR$FAULTS.:E05TSI                            WED 07/30/97 06:32 Page:23
      542     8117    1   TOR$MME_GEWAKE: PROC(GEWAKE_TIME, RETURN_DELTA);
      543     8118
      544     8119    2      DCL GEWAKE_TIME SBIN(36);
      545     8120    2      DCL RETURN_DELTA SBIN HALF;
      546     8121           %FPT_WAIT(FPTN = WAIT_FPT);
      547     8135
      548     8136        /* Code */
      549     8137
      550     8138    2      GEWAKE_TIME = GEWAKE_TIME/64000;
      551     8139    2      IF GEWAKE_TIME < 1
      552     8140    2      THEN WAIT_FPT.V.UNITS# = 1;
      553     8141    3      ELSE DO;
      554     8142    3              WAIT_FPT.V.UNITS# = GEWAKE_TIME;
      555     8143                   /*CALL M$WAIT(WAIT_FPT) ;*/
      556     8144    3           END;
      557     8145    2      RETURN_DELTA = 1;
      558     8146    2      RETURN;
      559     8147
      560     8148    2   END TOR$MME_GEWAKE;
      561     8149        %EJECT;
PL6.E3A0      #001=TOR$FAULTS File=TOR$FAULTS.:E05TSI                            WED 07/30/97 06:32 Page:24
      562     8150        /*F*      NAME:    TOR$MME_TADIOD
      563     8151                  PURPOSE: CALLED BY MME HANDLER TO SERVICE I/O REQUESTS.
      564     8152                           INCREMENTS NUMBER OF I/O OPERATIONS CURRENTLY ASSIGNED I/O
      565     8153                           BUFFER(IONUM) BY NUMBER OF REQUESTS PRESENTLY MADE.
      566     8154                           DENIES ALL I/O REQUESTS IF IONUM>8.
      567     8155                           CHECKS WRITE WORD COUNT FIELS OF THE 5 I/O PARAMETERS
      568     8156                           PASSED(REDEFINED AS PARAM(0:4)).  IF ANY ARE >85 THEN ALL
      569     8157                           I/O REQUESTS MADE ARRE DENIED, RETURN_DELTA IS SET,
      570     8158                           AND CONTROL RETURNS TO MME HANDLER.
      571     8159                           ALLOCATES AN AVAILIABLE I/O BUFFER, i.e., BUFFER WITH
      572     8160                            IO_BUFFER.BUF_AVAILIABLE_FLAG = 0,    AND SETS TOF$IO_
      573     8161                           BUFFER.BUF_AVAILIABLE_FLAG = 1.  SETS BUF_NUM ACCORDING TO
      574     8162                           ARRAY INDEX OF I/O BUFFER ALLOCATED.
      575     8163                           MOVES WRITE_WD_CNT_BCD, AND IO_REQ_BITS FIELDS FROM
      576     8164                           PARAM(NUM_REQUESTS) TO RESPECTIVE FIELDS IN  $$IO_BUFFER(
      577     8165                           BUF_NUM). SIMILARLY MOVES TDPCN, PAD_CHAR, EXEC_NUM, AND
      578     8166                           LID FIELDS FROM CONTROL_CODE  FIELDS TO THE ALLOCATED
      579     8167                           BUFFER.  MAKES ENTRY OF THE FORM 'IO ' IN OCTAL FORMAT IN
      580     8168                           IO_BUFFER ALLOCATED.
      581     8169                           BUILDS POINTER(DCW_LIST_PTR) TO THE BASED VARIABLE DCW_LIST
      582     8170                           LIST_ENTRY USING DCW LIST_ADDR FIELD CONTAINED IN
      583     8171                           PARAM(NUM_REQUESTS).  SETS DCW_WORD STRUCTURE EQUAL TO DCW_
      584     8172                           LIST _ENTRY.
      585     8173                           DECREMENTS NUM_REQUESTS; INITIALIZES VARIABLES K,M, AND
      586     8174                           CHECK TO ZERO.
      587     8175                           INCREMENTS CHECK BY THE WORD COUNT FIELD CONTAINED IN DCW_
      588     8176                           WORD.
      589     8177                           SETS VARIABLE K = M. M INDICATES THE NEXT ARRAY ELEMENT
      590     8178                           POSITION IN WRITE_BUF_BCD_REDEF   INTO WHICH DCW_DATA
      591     8179                           WORD IS TTO BE MOVED IN THE EVENT THAT THERE ARE
      592     8180                           MULTIPLE DCW_WORD ENTRIES FOR A SINGLE  I/O REQUEST.
      593     8181                           MOVES DCW_DATA WORD INTO READ_BUF_BCD_REDEF. INCREMENTS
      594     8182                           DCW_DATA_PTR TO POINT TO NEXT DCW_DATA WORD.  REPEATS
      595     8183                           PROCESS UNTIL NUMBER OF WORDS SPECIFIED BY DCW_WORD.
      596     8184                           WORD_COUNT HAS BEEN MOVED.
      597     8185                           EVALUATES CODE FIELD IN DCW_WORD.  IF DCW_WORD.CODE = 1 THEN
      598     8186                           MORE DATA EXISTS FOR THE I/O REQUEST PRESENTLY BEING
PL6.E3A0      #001=TOR$FAULTS File=TOR$FAULTS.:E05TSI                            WED 07/30/97 06:32 Page:25
      599     8187                           SERVICED.  DCW_LIST_PTR IS INCREMENTED TO POINT TO NEXT
      600     8188                           DCW_LIST_ENTRY AND DATA IS MOVED AS PREVIOUSLY
      601     8189                           DESCRIBED.
      602     8190                           IF DCW_WORD.CODE = 0 THEN ALL DATA HAS BEEN MOVED FOR
      603     8191                           THIS I/O REQUEST.CHECK IS THEN COMPARED TO WRITE_WD_CNT_BCD
      604     8192                           FIELD IN PARAMETER(NUM_REQUESTS).  IF THE VARIABLES ARE
      605     8193                           EQUAL THEN TOR$EXIT IS CALLED TO ABORT PROGRAM.  OTHERWISE
      606     8194                           TOT$BCD_ASCII IS CALLED TO CONVERT DATA.  CONVERTED DATA
      607     8195                           IS THEN MOVED INTO PREVIOUSLY ALLOCATED BUFFER.
      608     8196                           IF IO_REQUESTS REMAIN TO BE SERVICED (i.e.,NUM_REQUESTS ~= 0)
      609     8197                           THEN THE NEXT IO_REQUEST IS SIMILARLY SERVICED.
      610     8198                           IF NO I/O REQUESTS REMAIN THEN  PROCESS_IO_REQ    IS CALLED,
      611     8199                           CALLED, RETURN_DELTA IS ASSIGNED AND CONTROL RETURNS TO
      612     8200                           MME HANDLER.
      613     8201        */
      614     8202        %EJECT;
PL6.E3A0      #001=TOR$FAULTS File=TOR$FAULTS.:E05TSI                            WED 07/30/97 06:32 Page:26
      615     8203    1   TOR$MME_TADIOD: PROC(IO_CONTROL, NUMBER_OF_REQUESTS, PARAM_0, PARAM_1, PARAM_2,
              8203            PARAM_3, PARAM_4, RETURN_DELTA);
      616     8204
      617     8205    2      DCL BUF_NUM SBIN HALF;
      618     8206    2      DCL CHECK SBIN HALF;
      619     8207    2      DCL DCW_DATA SBIN WORD BASED(DCW_DATA_PTR);
      620     8208    2      DCL 1 DCW_DATA_PTR_FORMAT STATIC,
      621     8209    2            2 DCW_DATA_ADDR UBIN(18) UNAL,
      622     8210    2            2 ID UBIN(18) UNAL INIT(%IS_SEGID);
      623     8211    2      DCL DCW_DATA_PTR REDEF DCW_DATA_PTR_FORMAT PTR;
      624     8212    2      DCL DCW_LIST_ENTRY BIT(36) ALIGNED BASED(DCW_LIST_PTR);
      625     8213    2      DCL 1 DCW_LIST_PTR_FORMAT STATIC,
      626     8214    2            2 DCW_LIST_ADDR UBIN(18) UNAL,
      627     8215    2            2 ID BIT(18) UNAL INIT('006000'O);
      628     8216    2      DCL DCW_LIST_PTR REDEF DCW_LIST_PTR_FORMAT PTR;
      629     8217    2      DCL 1 DCW_WORD,
      630     8218    2            2 DATA_ADDR UBIN(18) UNAL,
      631     8219    2            2 CHAR_POSITION UBIN(3) UNAL,
      632     8220    2            2 * UBIN(1) UNAL,
      633     8221    2            2 CODE UBIN(2) UNAL,
      634     8222    2            2 WORD_COUNT UBIN(12) UNAL;
      635     8223    2      DCL I SBIN HALF;
      636     8224    2      DCL IO_CONTROL UBIN(36);
      637     8225    2      DCL 1 CONTROL_CODE REDEF IO_CONTROL,
      638     8226    2            2 TDPCN UBIN(18) UNAL,
      639     8227    2            2 PAD_CHAR UBIN(6) UNAL,
      640     8228    2            2 * UBIN(3) UNAL,
      641     8229    2            2 EXEC_NUM UBIN(3) UNAL,
      642     8230    2            2 LID UBIN(6) UNAL;
      643     8231    2      DCL J SBIN HALF;
      644     8232    2      DCL K SBIN HALF;
      645     8233    2      DCL M SBIN HALF;
      646     8234    2      DCL NUM_REQUESTS UBIN(18);
      647     8235    2      DCL NUMBER_OF_REQUESTS UBIN (36);                          /*A TEMPORARY KLUDGE*/
      648     8236    2      DCL 1 NOR REDEF NUMBER_OF_REQUESTS,
      649     8237    2            2 NO UBIN (18) UNAL,
      650     8238    2            2 * UBIN (18) UNAL;
PL6.E3A0      #001=TOR$FAULTS File=TOR$FAULTS.:E05TSI                            WED 07/30/97 06:32 Page:27
      651     8239    2      DCL PARAM_0 UBIN(36);
      652     8240    2      DCL PARAM_A REDEF PARAM_0 BIT(36);
      653     8241    2      DCL PARAM_1 UBIN(36);
      654     8242    2      DCL PARAM_B REDEF PARAM_1 BIT(36);
      655     8243    2      DCL PARAM_2 UBIN(36);
      656     8244    2      DCL PARAM_C REDEF PARAM_2 BIT(36);
      657     8245    2      DCL PARAM_3 UBIN(36);
      658     8246    2      DCL PARAM_D REDEF PARAM_3 BIT(36);
      659     8247    2      DCL PARAM_4 UBIN(36);
      660     8248    2      DCL PARAM_E REDEF PARAM_4 BIT(36);
      661     8249    2      DCL 1 PARAMETER(0:4),
      662     8250    2            2 DCW_LIST_ADDR UBIN(18) UNAL,
      663     8251    2            2 IO_REQ_BITS UNAL,
      664     8252    2              3 E UBIN(1) UNAL,
      665     8253    2              3 R UBIN(1) UNAL,
      666     8254    2              3 M UBIN(1) UNAL,
      667     8255    2              3 S UBIN(1) UNAL,
      668     8256    2              3 C UBIN(1) UNAL,
      669     8257    2              3 P UBIN(1) UNAL,
      670     8258    2            2 WRITE_WD_CNT_BCD UBIN(12) UNAL;
      671     8259    2      DCL REQ_INVALID UBIN(1) STATIC INIT(0);
      672     8260    2      DCL RETURN_DELTA SBIN HALF;
      673     8261    2      DCL RETURN_DELTA_COUNT SBIN HALF;
      674     8262    2      DCL WRITE_BUF_ASCII(0:1919) CHAR(1) STATIC UNAL;
      675     8263    2      DCL WRITE_BUF_ASCII_REDEF REDEF WRITE_BUF_ASCII CHAR(1920);
      676     8264    2      DCL WRITE_BUF_BCD(0:1919) UBIN(6) STATIC UNAL;
      677     8265    2      DCL WRITE_BUF_BCD_REDEF(0:319) REDEF WRITE_BUF_BCD UBIN(36);
      678     8266        %EJECT;
PL6.E3A0      #001=TOR$FAULTS File=TOR$FAULTS.:E05TSI                            WED 07/30/97 06:32 Page:28
      679     8267        /* Code */
      680     8268
      681     8269    2      REQ_INVALID = 0;                                     /*INITIALIZE FLAG*/
      682     8270    2      NUM_REQUESTS = NOR.NO;                               /*A TEMPORARY KLUDGE*/
      683     8271
      684     8272    2      RETURN_DELTA_COUNT = NUM_REQUESTS;
      685     8273    2      PARAMETER(0) = PARAM_A;
      686     8274    2      PARAMETER(1) = PARAM_B;
      687     8275    2      PARAMETER(2) = PARAM_C;
      688     8276    2      PARAMETER(3) = PARAM_D;
      689     8277    2      PARAMETER(4) = PARAM_E;
      690     8278
      691     8279    2      IONUM = IONUM + NUM_REQUESTS;
      692     8280    2      IF IONUM>8 THEN REQ_INVALID = 1;
      693     8281
      694     8282    3      DO I = 0 TO (NUM_REQUESTS-1) BY 1;
      695     8283    3         IF PARAMETER.WRITE_WD_CNT_BCD(I)>320
      696     8284    3         THEN CALL TOR$WRAPUP_PTR ;
      697     8285    3      END;
      698     8286
      699     8287    3      IF REQ_INVALID = 1 THEN DO;
      700     8288    3              IONUM = IONUM - NUM_REQUESTS;
      701     8289    3              RETURN_DELTA = 4 + RETURN_DELTA_COUNT;
      702     8290    3              GOTO GET_OUT ;
      703     8291    3           END;
      704     8292
      705     8293    2   ALLOC_IO_BUFFER:
      706     8294    3      DO I = 0 TO 7 BY 1;
      707     8295    4         IF IO_BUFFER.BUF_AVAILIABLE_FLAG(I) = 0 THEN DO;
      708     8296    4                 IO_BUFFER.BUF_AVAILIABLE_FLAG(I) = 1;
      709     8297    4                 BUF_NUM = I;
      710     8298    4                 GOTO NEXT_ENTRY;
      711     8299    4              END;
      712     8300    3      END;
      713     8301
      714     8302    2   NEXT_ENTRY:
      715     8303    2      NUM_REQUESTS = NUM_REQUESTS-1;
PL6.E3A0      #001=TOR$FAULTS File=TOR$FAULTS.:E05TSI                            WED 07/30/97 06:32 Page:29
      716     8304    2      CHECK = 0;
      717     8305    2      IO_BUFFER.IO_REQ_BITS(BUF_NUM) = PARAMETER.IO_REQ_BITS(NUM_REQUESTS);
      718     8306    2      IO_BUFFER.WRITE_WD_CNT_BCD(BUF_NUM) = PARAMETER.WRITE_WD_CNT_BCD(NUM_REQUESTS);
      719     8307    2      IO_BUFFER.TDPCN(BUF_NUM) = CONTROL_CODE.TDPCN;
      720     8308    2      IO_BUFFER.PAD_CHAR(BUF_NUM) = CONTROL_CODE.PAD_CHAR;
      721     8309    2      IO_BUFFER.EXEC_NUM(BUF_NUM) = CONTROL_CODE.EXEC_NUM;
      722     8310    2      IO_BUFFER.LID(BUF_NUM) = CONTROL_CODE.LID;
      723     8311    2      IO_BUFFER.IO_ENTRY(BUF_NUM) = '314620'O;
      724     8312
      725     8313    2      DCW_LIST_PTR_FORMAT.DCW_LIST_ADDR = PARAMETER.DCW_LIST_ADDR(NUM_REQUESTS);
      726     8314
      727     8315    2      K = 0;
      728     8316    2      M = 0;
      729     8317    2   NEXT_DCW_WD:
      730     8318    2      DCW_WORD = DCW_LIST_ENTRY;
      731     8319    2      CHECK = CHECK + DCW_WORD.WORD_COUNT;
      732     8320    2      DCW_DATA_PTR_FORMAT.DCW_DATA_ADDR = DCW_WORD.DATA_ADDR;
      733     8321
      734     8322    2      K = M;
      735     8323    3      DO J = K TO (K + DCW_WORD.WORD_COUNT-1) BY 1;
      736     8324    3         WRITE_BUF_BCD_REDEF(J) = DCW_DATA;
      737     8325    3         M = J + 1;
      738     8326    3         DCW_DATA_PTR = PINCRW(DCW_DATA_PTR,1);
      739     8327    3      END;
      740     8328
      741     8329    3      DO CASE(DCW_WORD.CODE);
      742     8330    3         CASE(0);
      743     8331    3            IF CHECK ~= PARAMETER.WRITE_WD_CNT_BCD(NUM_REQUESTS)
      744     8332    3            THEN CALL TOR$WRAPUP_PTR ;
      745     8333    4            ELSE DO;
      746     8334    4                    CHAR_COUNT =   IO_BUFFER.WRITE_WD_CNT_BCD(BUF_NUM)    * 6 - 1;
      747     8335    4                    CALL TOT$BCD_ASCII (WRITE_BUF_BCD,WRITE_BUF_ASCII,CHAR_COUNT);
      748     8336    4                    IO_BUFFER.CHAR_COUNT(BUF_NUM) =    CHAR_COUNT;
      749     8337    4                    IO_BUFFER.WRITE_DATA(BUF_NUM) = WRITE_BUF_ASCII_REDEF;
      750     8338    4                 END;
      751     8339
      752     8340    3            IF NUM_REQUESTS ~= 0
PL6.E3A0      #001=TOR$FAULTS File=TOR$FAULTS.:E05TSI                            WED 07/30/97 06:32 Page:30
      753     8341    3            THEN GOTO ALLOC_IO_BUFFER;
      754     8342    4            ELSE DO;
      755     8343    4                    CALL PROCESS_IO_REQ;
      756     8344    4                    RETURN_DELTA = 5 + RETURN_DELTA_COUNT;
      757     8345    4                 END;
      758     8346    3         CASE(1);
      759     8347    3            DCW_LIST_PTR = PINCRW(DCW_LIST_PTR,1);
      760     8348    3            GOTO NEXT_DCW_WD;
      761     8349    3      END;
      762     8350
      763     8351    2   GET_OUT:
      764     8352    2      RETURN;
      765     8353
      766     8354    2   END TOR$MME_TADIOD;
      767     8355        %EJECT;
PL6.E3A0      #001=TOR$FAULTS File=TOR$FAULTS.:E05TSI                            WED 07/30/97 06:32 Page:31
      768     8356        /*F*      NAME:     PROCESS_IO_REQ
      769     8357                  PURPOSE: CALLED BY TOR$MME_TADIOD TO PROCESS IO REQUESTS
      770     8358                           CURRENTLY IN  IO_BUFFER    STRUCTURE.
      771     8359                           FINDS BUFFER WITH I/O REQUEST WHICH HASN'T BEEN SERVICED
      772     8360                           AND SET IO_REQ_SERVICED_FLAG = 1.
      773     8361                           VERIFIES THAT LID FOR THIS REQUEST IS VALID.  IF NOT
      774     8362                           VALID THEN REQUEST IS NOT PROCESSED.
      775     8363                           CALLS  ERROR_MSG    TO OUTPUT MESSAGE IF E,S,M, OR
      776     8364                           P I/O REQUEST BITS ARE SET.  IF ANY OF THESE BITS
      777     8365                           ARE SET THEN REQUEST IS NOT PROCESSED.
      778     8366                           IF R BIT IS SET THEN SETS  IO_BUFFER.READ_FLAG = 1,
      779     8367                           AND CALLS  SERVICE_W_R_REQ.
      780     8368                           IF C BIT IS SET THEN C BIT IS RESET AND  SERVICE_WRITE
      781     8369                           _REQUEST IS CALLED.
      782     8370                           PROCESS IS REPEATED UNTIL ALL I/O BUFFERS HAVE BEEN
      783     8371                           SERVICED.
      784     8372                           RETURNS BACK TO TOR$MME_TADIOD.
      785     8373        */
      786     8374        %EJECT;
PL6.E3A0      #001=TOR$FAULTS File=TOR$FAULTS.:E05TSI                            WED 07/30/97 06:32 Page:32
      787     8375    1   PROCESS_IO_REQ: PROC;
      788     8376
      789     8377    2      DCL I SBIN HALF STATIC INIT(-1);
      790     8378    2      DCL MSG_CODE SBIN HALF;
      791     8379    2      DCL TEMP_LID UBIN(18);
      792     8380
      793     8381        /* Code */
      794     8382
      795     8383    2      I = -1;                                              /*INITIALIZE THE COUNTER*/
      796     8384
      797     8385    2   START_LOOP:
      798     8386    2      IF I = 7 THEN GOTO GET_OUT ;
      799     8387    2      I = I+1;
      800     8388
      801     8389    2      IF  IO_BUFFER.BUF_AVAILIABLE_FLAG(I) = 0
      802     8390    2      THEN GOTO START_LOOP;
      803     8391
      804     8392    2      IF  IO_BUFFER.IO_REQ_SERVICED_FLAG(I) = 1
      805     8393    2      THEN GOTO START_LOOP;
      806     8394
      807     8395    2      IO_BUFFER.IO_REQ_SERVICED_FLAG(I) = 1;
      808     8396    2      TEMP_LID = IO_BUFFER.LID(I);
      809     8397    2      IF( IO_BUFFER.IO_REQ_BITS.E(I) = 1)|
      810     8398    2              ( IO_BUFFER.IO_REQ_BITS.M(I) = 1)|
      811     8399    2              ( IO_BUFFER.IO_REQ_BITS.S(I) = 1)|
      812     8400    2              ( IO_BUFFER.IO_REQ_BITS.P(I) = 1)
      813     8401    2      THEN CALL TOR$WRAPUP_PTR ;
      814     8402
      815     8403    2      IF IO_BUFFER.IO_REQ_BITS.R(I) = 1
      816     8404    3      THEN DO ;
      817     8405    3              IO_BUFFER.READ_FLAG(I) = 1;
      818     8406    3              IO_BUFFER.IO_REQ_BITS.R(I) = 0;
      819     8407    3              CALL TOR$WRAPUP_PTR ;
      820     8408    3              GOTO START_LOOP;
      821     8409    3           END;
      822     8410    2      ELSE IF IO_BUFFER.IO_REQ_BITS.C(I) = 1
      823     8411    3         THEN DO ;
PL6.E3A0      #001=TOR$FAULTS File=TOR$FAULTS.:E05TSI                            WED 07/30/97 06:32 Page:33
      824     8412    3                 IO_BUFFER.IO_REQ_BITS.C(I) = 0;
      825     8413    3                 CALL SERVICE_WRITE_REQ(I);
      826     8414    3                 GOTO START_LOOP;
      827     8415    3              END;
      828     8416
      829     8417    2   GET_OUT:
      830     8418    2      RETURN;
      831     8419
      832     8420    2   END PROCESS_IO_REQ;
      833     8421        %EJECT;
PL6.E3A0      #001=TOR$FAULTS File=TOR$FAULTS.:E05TSI                            WED 07/30/97 06:32 Page:34
      834     8422        /*F*      NAME:     SERVICE_WRITE_REQ
      835     8423                  PURPOSE: CALLED BY TOR$MME_TADIOD TO SERVICED WRITE REQUEST.
      836     8424                           SETS BOUNDS IN WRITE_BUF_VECTOR.
      837     8425                           SPECIFIES WAIT WRITE OPTION FOR WRITE I/O FPT.
      838     8426                           FRAMES WRITE DATA AREA IN I/O BUFFER WITH PREVIOUSLY
      839     8427                           BUILT VECTOR.
      840     8428                           CALLS TOR$CONSOLE_OUT TO DO OUTPUT.
      841     8429                           RETURNS TO  PROCESS_IO_REQ.
      842     8430        */
      843     8431
      844     8432    1   SERVICE_WRITE_REQ: PROC(BUF_NUM);
      845     8433
      846     8434    2      DCL BUF_ADDR PTR;
      847     8435    2      DCL 1 BUF_ADDR_FORMAT REDEF BUF_ADDR,
      848     8436    2            2 BASE UBIN(20) UNAL,
      849     8437    2            2 SEGID UBIN(16) UNAL;
      850     8438    2      DCL BUF_NUM SBIN HALF;
      851     8439
      852     8440        /* Code */
      853     8441
      854     8442    2      BUF_ADDR = ADDR( IO_BUFFER.WRITE_DATA(BUF_NUM));
      855     8443    2      WRITE_BUF_VECTOR.BASE = BUF_ADDR_FORMAT.BASE;
      856     8444    2      WRITE_BUF_VECTOR.BOUNDS =  IO_BUFFER.CHAR_COUNT(BUF_NUM);
      857     8445    2      CALL BREAK_MESSAGE;
      858     8446    2      RETURN ;
      859     8447
      860     8448        /*END SERVICE_WRITE_REQ;*/
      861     8449        %EJECT;
PL6.E3A0      #001=TOR$FAULTS File=TOR$FAULTS.:E05TSI                            WED 07/30/97 06:32 Page:35
      862     8450        /*F* NAME:         BREAK_MESSAGE
      863     8451             DESCRIPTION:
      864     8452        BREAKS LONG MESSAGES INTO MANY SHORT ONES AT EACH CRLF.
      865     8453        */
      866     8454
      867     8455    2   BREAK_MESSAGE:PROC;
      868     8456
      869     8457    3      DCL 1 CRLF_ STATIC,
      870     8458    3            2 CR CHAR(1) UNAL INIT(BITASC('015'O)),
      871     8459    3            2 LF CHAR(1) UNAL INIT(BITASC('012'O));
      872     8460    3      DCL CRLF REDEF CRLF_ CHAR(2);
      873     8461    3      DCL CRLF_INDEX UBIN (36);
      874     8462    3      DCL DONE_FLAG UBIN(36);
      875     8463    3      DCL MESSAGE CHAR(1920) BASED;
      876     8464    3      DCL MESSAGE_SIZE UBIN(36);
      877     8465    3      DCL MSG$ PTR;
      878     8466    3      DCL 1 MSG_PTR REDEF MSG$,
      879     8467    3            2 ADR UBIN(20) UNAL,
      880     8468    3            2 SEGID UBIN(16) UNAL;
      881     8469    3      DCL MSG_START_INDEX UBIN(36);
      882     8470        %EJECT;
PL6.E3A0      #001=TOR$FAULTS File=TOR$FAULTS.:E05TSI                            WED 07/30/97 06:32 Page:36
      883     8471        /* Code */
      884     8472
      885     8473    3      MSG_START_INDEX = 0;
      886     8474    3      CRLF_INDEX = 0;
      887     8475    3      MESSAGE_SIZE = WRITE_BUF_VECTOR.BOUNDS;
      888     8476    3      MSG_PTR.ADR = WRITE_BUF_VECTOR.BASE;
      889     8477    3      MSG_PTR.SEGID = %IS_SEGID;
      890     8478
      891     8479    3      CALL INDEX(CRLF_INDEX,CRLF,MSG$->MESSAGE,0) ALTRET (LAST_MSG) ;
      892     8480    3      IF CRLF_INDEX = 0
      893     8481    3      THEN;
      894     8482    4      ELSE DO;
      895     8483    4              CONSOLE_FPT.BUF_ = VECTOR(SUBSTR(MSG$->MESSAGE,0,CRLF_INDEX));
      896     8484    4              CALL TOR$CONSOLE_OUT_PTR ;
      897     8485    4           END;
      898     8486    3      DONE_FLAG = 0;
      899     8487    4      DO WHILE(DONE_FLAG = 0);
      900     8488    4         MSG_START_INDEX = CRLF_INDEX;
      901     8489    4         CALL INDEX(CRLF_INDEX,CRLF,MSG$->MESSAGE,CRLF_INDEX+2) ALTRET(LAST_MSG);
      902     8490    4         IF CRLF_INDEX >= MESSAGE_SIZE
      903     8491    5         THEN DO;
      904     8492    5                 DONE_FLAG = 1;
      905     8493    5                 CONSOLE_FPT.BUF_ = VECTOR(SUBSTR(MSG$->MESSAGE,MSG_START_INDEX,
              8493                          MESSAGE_SIZE - MSG_START_INDEX));
      906     8494    5              END;
      907     8495    5         ELSE DO;
      908     8496    5                 CONSOLE_FPT.BUF_ = VECTOR(SUBSTR(MSG$->MESSAGE,MSG_START_INDEX,
              8496                          CRLF_INDEX-MSG_START_INDEX));
      909     8497    5              END;
      910     8498    4         CALL TOR$CONSOLE_OUT_PTR ;
      911     8499    4      END;
      912     8500    3      RETURN;
      913     8501           %EJECT ;
PL6.E3A0      #001=TOR$FAULTS File=TOR$FAULTS.:E05TSI                            WED 07/30/97 06:32 Page:37
      914     8502    3   LAST_MSG:
      915     8503    3      CONSOLE_FPT.BUF_ = VECTOR(SUBSTR(MSG$->MESSAGE,MSG_START_INDEX,MESSAGE_SIZE-
              8503               MSG_START_INDEX));
      916     8504    3      CALL TOR$CONSOLE_OUT_PTR ;
      917     8505    3      RETURN;
      918     8506
      919     8507    3   END BREAK_MESSAGE;
      920     8508    2   END SERVICE_WRITE_REQ;
      921     8509    1   END TOR$FAULTS;

PL6.E3A0      #001=TOR$FAULTS File=TOR$FAULTS.:E05TSI                            WED 07/30/97 06:32 Page:38
--  Include file information  --

   TOT_TOLTS_M.:E05TOU  is referenced.
   F$DCB.:E05TOU  cannot be made into a system file and is referenced.
   CP_6_SUBS.:E05TOU  is referenced.
   CP_6_C.:E05TOU  is referenced.
   CP_6.:E05TOU  cannot be made into a system file and is referenced.
      No diagnostics issued in procedure TOR$FAULTS.

   Procedure TOR$FAULTS requires 945 words for executable code.
   Procedure TOR$FAULTS requires 138 words of local(AUTO) storage.

    No errors detected in file TOR$FAULTS.:E05TSI    .

PL6.E3A0      #001=TOR$FAULTS File=TOR$FAULTS.:E05TSI                            WED 07/30/97 06:32 Page:39

 Object Unit name= TOR$FAULTS                                 File name= TOR$FAULTS.:E05TOU
 UTS= JUL 30 '97 06:32:21.28 WED                              Compiler= PL-6/E31         Sev=      00
 SharedLib= :SHARED_SYSTEM                                    Alt SharedLib=


    ****  Control sections  ****

 Sect   Type Bound  Init  Size OctSiz  Section name(segment info)
    0   DCB   even  none     0      0  M$UC
    1   Data  even  none  4919  11467  TOR$FAULTS
    2   DCB   even  none     0      0  M$SI
    3   DCB   even  none     0      0  M$LO
    4   Proc  even  none   945   1661  TOR$FAULTS
    5  RoData even  none    15     17  TOR$FAULTS

    ****  Entry defs  ****

                              Check   Calling
                             calling  sequence
  Sect OctLoc Primary Altret sequence   type   Parms  Name
     4      0   yes            yes     Async       0  TOR$FAULTS

  ****  Data defs  ****

 Sect OctLoc  Name                           Sect OctLoc  Name
    1   7764  BRK_EXPECTED
PL6.E3A0      #001=TOR$FAULTS File=TOR$FAULTS.:E05TSI                            WED 07/30/97 06:32 Page:40

  ****  Entry refs  ****

         Check        Calling
        calling       sequence
Altret sequence SRef   type   Args  Name
         yes           Std       0 TOR$WRAPUP_PTR
         yes           Std       0 TOR$EXIT_PTR
         yes           Std       3 TOT$ASCII_BCD
         yes           Std       3 TOT$BCD_ASCII
         yes           Std       0 TOR$CONSOLE_OUT_PTR
                       nStd      0 X66_AAUTO
                       Std       0 B_CONSPOOL_D
                       nStd      0 X66_AARET

  ****  Data refs  ****

  Flags:  r = read only, s = secondary
Flgs Name                             Flgs Name                             Flgs Name
     M$UC                                  M$SI                                  M$LO
     B$TCB$                                TOR$BREAK_OCCURRED                    B_VECTNIL

  ****  Segment refs  ****

  Flags:  r = read only, s = secondary
Flgs Name                             Flgs Name                             Flgs Name
     NULLSID                               ISSID                                 ROSID
PL6.E3A0      #001=TOR$FAULTS File=TOR$FAULTS.:E05TSI                            WED 07/30/97 06:32 Page:41


        1        1        /*M*  TOR$FAULTS      T&D On-line tuRtle FAULTS handler */
        2        2        /*T***********************************************************/
        3        3        /*T*                                                         */
        4        4        /*T* Copyright (c) Bull HN Information Systems Inc., 1997    */
        5        5        /*T*                                                         */
        6        6        /*T***********************************************************/
        7        7
        8        8        /*X* PLM=3,DCI=6,SQB=N,PRB=N,DTI=5,ENI=0,AND=Y,ECI=0,CSU=3,DIN=3,
        9        9             PRB=Y,CTI=8,CRM=109,CRT=1,NLB=N,NTB=Y,MCL=110 */
       10       10
       11       11        /*P*  NAME:     TOR$FAULTS
       12       12              PURPOSE:  RECEIVE CONTROL FROM CP6 FOR ALL TURTLE FAULTS
       13       13                        AND CALLS A SERVICE ROUTINE TO HANDLE EACH
       14       14                        FAULT TYPE.
       15       15                        MAJORITY OF ENTRIES INTO  FAULTS  WILL BE AS A
       16       16                        RESULT OF "MME" INSTRUCTIONS EXECUTED BY
       17       17                        TURTLE REQUIRING A CP6 SERVICE.
       18       18              LAST UPDATE: 08/19/82
       19       19              DESCRIPTION: This fault handler is established at TURTLE
       20       20                           initialization time by a call to M$TRAP.
       21       21                           Control passes here on arithmetic and programmed faults.
       22       22        */
       23       23        %EJECT ;
PL6.E3A0      #001=TOR$FAULTS File=TOR$FAULTS.:E05TSI                            WED 07/30/97 06:32 Page:42
       24       24        TOR$FAULTS: PROC ASYNC;

     24  4 000000   000000 700200 xent  TOR$FAULTS   TSX0  ! X66_AAUTO
         4 000001   000212 000000                    ZERO    138,0

       25       25
       26       26        /* Include files */
       27       27
       28       28           %INCLUDE CP_6;
       29     5587           %INCLUDE CP_6_SUBS;
       30     6127           %INCLUDE F$DCB;
       31     6176           %INCLUDE TOT_TOLTS_M ;
       32     7294
       33     7295        /* Fault Frame Declarations */
       34     7296
       35     7297           %B$EXCFR;
       36     7315           %B$FLT;
       37     7367           %B$TCB;
       38     7370           %B$ALT;
       39     7378           %SUB_EXC;
       40     7425
       41     7426        /* Function Parameter Tables */
       42     7427
       43     7428           %FPT_TRTN (FPTN = TRTN_FPT);
       44     7445           %FPT_WRITE(FPTN = CONSOLE_FPT,DCB = M$LO,WAIT = YES);
       45     7476           %FPT_WRITE(FPTN = WRITE_IO,DCB = M$LO,WAIT = YES,VFC = YES);
       46     7507           %FPT_READ(FPTN = READ_IO,DCB = M$SI,WAIT = YES) ;
       47     7546
       48     7547        /* Data Control Blocks */
       49     7548
       50     7549    1      DCL M$SI DCB ;
       51     7550    1      DCL M$LO DCB ;
       52     7551           %EJECT ;
PL6.E3A0      #001=TOR$FAULTS File=TOR$FAULTS.:E05TSI                            WED 07/30/97 06:32 Page:43
       53     7552        /* TOLTS Macros */
       54     7553
       55     7554           %MME ;
       56     7575           %MREG ;
       57     7597           %MME_INSTR$ ;
       58     7600    1      DCL 1 MME_INSTR REDEF MME_INSTR$ ALIGNED,
       59     7601    1            2 ADR     UBIN HALF UNAL,
       60     7602    1            2 SEGID   UBIN HALF UNAL ;
       61     7603           %RETURN_DELTA ;
       62     7606
       63     7607        /* Variables */
       64     7608
       65     7609    1      DCL B$TCB$ PTR SYMREF;
       66     7610    1      DCL TOR$BREAK_OCCURRED BIT (1) SYMREF CALIGNED ;
       67     7611    1      DCL CHAR_COUNT SBIN;
       68     7612    1      DCL ECC UBIN (18);
       69     7613    1      DCL MME_IR BIT  (13) ALIGNED;
       70     7614    1      DCL SUB_CODE UBIN (36);
       71     7615    1      DCL DATE_BUFFER_ASCII(0:5) CHAR(1) STATIC;
       72     7616    1      DCL IONUM SBIN HALF STATIC INIT(0);
       73     7617           %EJECT ;
PL6.E3A0      #001=TOR$FAULTS File=TOR$FAULTS.:E05TSI                            WED 07/30/97 06:32 Page:44
       74     7618    1      DCL 1 WRITE_BUF_VECTOR STATIC DALIGNED,
       75     7619    1            2 BOUNDS UBIN(20) UNAL,
       76     7620    1            2 FLAGS BIT(9) UNAL INIT('777'O),
       77     7621    1            2 V BIT(2) UNAL INIT('01'B),
       78     7622    1            2 * UBIN(5) UNAL,
       79     7623    1            2 BASE UBIN(20) UNAL,
       80     7624    1            2 * UBIN (4) UNAL INIT(0),
       81     7625    1            2 SEGID BIT(12) UNAL INIT('6000'O);
       82     7626    1      DCL WRITE_BUF_VECTOR_V REDEF WRITE_BUF_VECTOR BIT (72);
       83     7627    1      DCL 1 IO_BUFFER(0:7) STATIC,
       84     7628    1            2 BUF_AVAILIABLE_FLAG UBIN(1) UNAL INIT(0*0),
       85     7629    1            2 IO_REQ_SERVICED_FLAG UBIN(1) UNAL INIT(0*0),
       86     7630    1            2 READ_FLAG UBIN(1) UNAL INIT(0*0),
       87     7631    1            2 TDPCN UBIN(18) UNAL,
       88     7632    1            2 PAD_CHAR UBIN(6) UNAL,
       89     7633    1            2 LID UBIN(6) UNAL,
       90     7634    1            2 EXEC_NUM UBIN(3) UNAL,
       91     7635    1            2 IO_ENTRY BIT(18) UNAL,
       92     7636    1            2 IO_REQ_BITS UNAL,
       93     7637    1              3 E UBIN(1) UNAL,
       94     7638    1              3 R UBIN(1) UNAL,
       95     7639    1              3 M UBIN(1) UNAL,
       96     7640    1              3 S UBIN(1) UNAL,
       97     7641    1              3 C UBIN(1) UNAL,
       98     7642    1              3 P UBIN(1) UNAL,
       99     7643    1            2 WRITE_WD_CNT_BCD UBIN(12) UNAL,
      100     7644    1            2 CHAR_COUNT SBIN UNAL,
      101     7645    1            2 WRITE_DATA CHAR(1920) UNAL,
      102     7646    1            2 READ_DATA CHAR(84) UNAL;
      103     7647        %EJECT;
PL6.E3A0      #001=TOR$FAULTS File=TOR$FAULTS.:E05TSI                            WED 07/30/97 06:32 Page:45
      104     7648        /* External Entries and Entry Pointers */
      105     7649
      106     7650    1      DCL TOT$ASCII_BCD              ENTRY (3) ;
      107     7651    1      DCL TOT$BCD_ASCII              ENTRY (3) ;
      108     7652    1      DCL TOR$CONSOLE_OUT_PTR        ENTRY ;
      109     7653    1      DCL TOR$WRAPUP_PTR             ENTRY ;
      110     7654    1      DCL TOR$EXIT_PTR               ENTRY ;
      111     7655
      112     7656        /* Code */
      113     7657
      114     7658    1      CALL GET_EXCEPTION_CODE (ECC);

   7658  4 000002   200025 630500                    EPPR0   ECC,,AUTO
         4 000003   200031 450500                    STP0    SUB_CODE+2,,AUTO
         4 000004   000027 701000 4                  TSX1    GET_EXCEPTION_CODE
         4 000005   000000 011000                    NOP     0

      115     7659    2      DO CASE (ECC);

   7659  4 000006   200025 235100                    LDA     ECC,,AUTO
         4 000007   000022 771000                    ARL     18
         4 000010   000006 135007                    SBLA    6,DL
         4 000011   000001 115007                    CMPA    1,DL
         4 000012   000014 602005 4                  TNC     s:7659+6,AL
         4 000013   000020 710000 4                  TRA     s:7663
         4 000014   000015 710000 4                  TRA     s:7661

      116     7660    2         CASE (6);

      117     7661    2            CALL MME_HANDLER;

   7661  4 000015   000044 701000 4                  TSX1    MME_HANDLER
         4 000016   000000 011000                    NOP     0
         4 000017   000023 710000 4                  TRA     s:7665

      118     7662    2         CASE (ELSE);

PL6.E3A0      #001=TOR$FAULTS File=TOR$FAULTS.:E05TSI                            WED 07/30/97 06:32 Page:46
      119     7663    2            CALL TOR$WRAPUP_PTR ;

   7663  4 000020   000002 631400 xsym               EPPR1   B_VECTNIL+2
         4 000021   000000 701000 xent               TSX1    TOR$WRAPUP_PTR
         4 000022   000000 011000                    NOP     0

      120     7664    2      END /* CASE */ ;

      121     7665    1      CALL M$TRTN (TRTN_FPT) ;

   7665  4 000023   000000 630400 1                  EPPR0   TRTN_FPT
         4 000024   010012 713400                    CLIMB   4106
         4 000025   401000 401760                    pmme    nvectors=3
         4 000026   001660 710000 4                  TRA     s:8509

      122     7666
      123     7667        /* END TOR$FAULTS */
      124     7668        %EJECT;
PL6.E3A0      #001=TOR$FAULTS File=TOR$FAULTS.:E05TSI                            WED 07/30/97 06:32 Page:47
      125     7669        /*F* NAME:         GET_EXCEPTION_CODE
      126     7670             DESCRIPTION:
      127     7671                           ECC CODES AND SUB CODES--
      128     7672                           ECC = 0  (TIMER RUNOUT)
      129     7673                           ECC = 5   (ARITHMETIC FAULT)
      130     7674                              SUB_CODE = 0  OVERFLOW
      131     7675                              SUB_CODE = 1  DIVIDE CHECK
      132     7676                           ECC = 6  (PROGRAMMED FAULT)
      133     7677                              SUB_CODE = 0  MME
      134     7678                              SUB_CODE = 1  DERAIL
      135     7679                              SUB_CODE = 2  FAULT TAG
      136     7680                           ECC = 7  (ERRORS)
      137     7681                              SUB_CODE = 0  MEMORY
      138     7682                              SUB_CODE = 1  COMMAND
      139     7683                              SUB_CODE = 2  LOCKUP
      140     7684                              SUB_CODE = 3  ILLEGAL PROCEDURE
      141     7685                              SUB_CODE = 4  MISSING SEGMENT
      142     7686                              SUB_CODE = 5  MISSING PAGE
      143     7687                              SUB_CODE = 6  SECURITY 2
      144     7688        */
      145     7689
      146     7690    1   GET_EXCEPTION_CODE: PROC (ECC);

   7690  4 000027   200030 741300       GET_EXCEPTI* STX1  ! SUB_CODE+1,,AUTO

      147     7691
      148     7692    2      DCL ECC UBIN (18);
      149     7693    2      ECC = B$TCB$->B$TCB.STK$->B$EXCFR.ECC;

   7693  4 000030   000000 470400 xsym               LDP0    B$TCB$
         4 000031   000001 471500                    LDP1    1,,PR0
         4 000032   100000 720100                    LXL0    0,,PR1
         4 000033   200031 473500                    LDP3    @ECC,,AUTO
         4 000034   300000 740100                    STX0    0,,PR3

      150     7694    2      SUB_CODE = B$TCB$ -> B$TCB.STK$ -> B$EXCFR.SUBC;

PL6.E3A0      #001=TOR$FAULTS File=TOR$FAULTS.:E05TSI                            WED 07/30/97 06:32 Page:48
   7694  4 000035   000000 470400 xsym               LDP0    B$TCB$
         4 000036   000001 471500                    LDP1    1,,PR0
         4 000037   100100 236100                    LDQ     64,,PR1
         4 000040   777777 376007                    ANQ     -1,DL
         4 000041   200027 756100                    STQ     SUB_CODE,,AUTO

      151     7695    2      RETURN;

   7695  4 000042   200030 221300                    LDX1  ! SUB_CODE+1,,AUTO
         4 000043   000001 702211                    TSX2  ! 1,X1

      152     7696
      153     7697    2   END GET_EXCEPTION_CODE;
      154     7698        %EJECT;
PL6.E3A0      #001=TOR$FAULTS File=TOR$FAULTS.:E05TSI                            WED 07/30/97 06:32 Page:49
      155     7699        /*F* NAME:         MME_HANDLER
      156     7700             DESCRIPTION:
      157     7701           NEXT, GO INTO THE EXCEPTION STACK FRAME AND FETCH THE MME DATA--
      158     7702           REGISTERS, THE MME INSTRUCTION, AND SOME WORDS IMMEDIATELY FOLLOWING
      159     7703           THE MME INSTRUCTION.  THIS IS DONE SO ALL THE MME SERVICE ROUTINES
      160     7704           DON'T HAVE TO DO IT INDIVIDUALLY.   GET_MME-DATA    DOES THIS.
      161     7705           USING THE MME TYPE NUMBER (FROM THE MME INSTRUCTION), CALL THE
      162     7706           APPROPRIATE MME SERVICE ROUTINE.  CALL EITHER TOG$GCOS_MMES
      163     7707           OR TOR$TURTLE_MMES OR TOR$TURTLE WHICH IN TURN CALLS THE SPECIFIC
      164     7708           SERVICE ROUTINE.
      165     7709           ON RETURN FROM THE SERVICE ROUTINE, RETURN THE MME DATA BACK TO THE
      166     7710           EXCEPTION STACK AND THE WORDS IMMEDIATELY FOLLOWING THE MME
      167     7711           INSTRUCTION.   RET_MME_DATA    DOES THIS.
      168     7712           FINALLY, RETURN IS MADE TO THE SUBEXEC BY CALLING M$TRTN.  THIS POPS
      169     7713           THE EXCEPTION STACK FRAME, RESTORES THE REGISTER ENVIRONMENT AND
      170     7714           RETURNS CONTROL TO WHATEVER WAS INTERRUPTETED.
      171     7715        */
      172     7716        %EJECT;
PL6.E3A0      #001=TOR$FAULTS File=TOR$FAULTS.:E05TSI                            WED 07/30/97 06:32 Page:50
      173     7717    1   MME_HANDLER:PROC;

   7717  4 000044   200030 741300       MME_HANDLER  STX1  ! SUB_CODE+1,,AUTO

      174     7718
      175     7719    2      CALL GET_MME_DATA;

   7719  4 000045   000230 701000 4                  TSX1    GET_MME_DATA
         4 000046   000000 011000                    NOP     0

      176     7720    2      IF MME.INST.NO >  0

   7720  4 000047   200003 220100                    LDX0    MME,,AUTO
         4 000050   000157 604400 4                  TMOZ    s:7735

      177     7721    3      THEN DO CASE (MME.INST.NO);

   7721  4 000051   200003 235100                    LDA     MME,,AUTO
         4 000052   000022 731000                    ARS     18
         4 000053   000005 135007                    SBLA    5,DL
         4 000054   000030 115007                    CMPA    24,DL
         4 000055   000057 602005 4                  TNC     s:7721+6,AL
         4 000056   000153 710000 4                  TRA     s:7733
         4 000057   000107 710000 4                  TRA     s:7723
         4 000060   000153 710000 4                  TRA     s:7733
         4 000061   000147 710000 4                  TRA     s:7731
         4 000062   000153 710000 4                  TRA     s:7733
         4 000063   000153 710000 4                  TRA     s:7733
         4 000064   000153 710000 4                  TRA     s:7733
         4 000065   000153 710000 4                  TRA     s:7733
         4 000066   000153 710000 4                  TRA     s:7733
         4 000067   000153 710000 4                  TRA     s:7733
         4 000070   000153 710000 4                  TRA     s:7733
         4 000071   000153 710000 4                  TRA     s:7733
         4 000072   000153 710000 4                  TRA     s:7733
         4 000073   000116 710000 4                  TRA     s:7725
         4 000074   000153 710000 4                  TRA     s:7733
PL6.E3A0      #001=TOR$FAULTS File=TOR$FAULTS.:E05TSI                            WED 07/30/97 06:32 Page:51
         4 000075   000153 710000 4                  TRA     s:7733
         4 000076   000153 710000 4                  TRA     s:7733
         4 000077   000153 710000 4                  TRA     s:7733
         4 000100   000153 710000 4                  TRA     s:7733
         4 000101   000153 710000 4                  TRA     s:7733
         4 000102   000127 710000 4                  TRA     s:7727
         4 000103   000153 710000 4                  TRA     s:7733
         4 000104   000153 710000 4                  TRA     s:7733
         4 000105   000153 710000 4                  TRA     s:7733
         4 000106   000140 710000 4                  TRA     s:7729

      178     7722    3              CASE (%GESNAP);

      179     7723    3                 CALL TOR$MME_GESNAP(MME.WD_1,RETURN_DELTA);

   7723  4 000107   200023 630500                    EPPR0   RETURN_DELTA,,AUTO
         4 000110   200034 450500                    STP0    @IO_CONTROL+1,,AUTO
         4 000111   200004 631500                    EPPR1   MME+1,,AUTO
         4 000112   200033 451500                    STP1    @ECC+2,,AUTO
         4 000113   000627 701000 4                  TSX1    TOR$MME_GESNAP
         4 000114   000000 011000                    NOP     0
         4 000115   000222 710000 4                  TRA     s:7744

      180     7724    3              CASE (%GETIME);

      181     7725    3                 CALL TOR$MME_GETIME(MREG.A,MREG.Q,RETURN_DELTA);

   7725  4 000116   200023 630500                    EPPR0   RETURN_DELTA,,AUTO
         4 000117   200035 450500                    STP0    @NUMBER_OF_REQUESTS+1,,AUTO
         4 000120   200017 631500                    EPPR1   MREG+5,,AUTO
         4 000121   200034 451500                    STP1    @IO_CONTROL+1,,AUTO
         4 000122   200016 633500                    EPPR3   MREG+4,,AUTO
         4 000123   200033 453500                    STP3    @ECC+2,,AUTO
         4 000124   000635 701000 4                  TSX1    TOR$MME_GETIME
         4 000125   000000 011000                    NOP     0
         4 000126   000222 710000 4                  TRA     s:7744

PL6.E3A0      #001=TOR$FAULTS File=TOR$FAULTS.:E05TSI                            WED 07/30/97 06:32 Page:52
      182     7726    3              CASE(%GEROUT);

      183     7727    3                 CALL TOR$MME_GEROUT(MME.WD_1,MME.WD_2,RETURN_DELTA);

   7727  4 000127   200023 630500                    EPPR0   RETURN_DELTA,,AUTO
         4 000130   200035 450500                    STP0    @NUMBER_OF_REQUESTS+1,,AUTO
         4 000131   200005 631500                    EPPR1   MME+2,,AUTO
         4 000132   200034 451500                    STP1    @IO_CONTROL+1,,AUTO
         4 000133   200004 633500                    EPPR3   MME+1,,AUTO
         4 000134   200033 453500                    STP3    @ECC+2,,AUTO
         4 000135   000303 701000 4                  TSX1    TOR$MME_GEROUT
         4 000136   000000 011000                    NOP     0
         4 000137   000222 710000 4                  TRA     s:7744

      184     7728    3              CASE (%GEWAKE);

      185     7729    3                 CALL TOR$MME_GEWAKE(MREG.Q,RETURN_DELTA);

   7729  4 000140   200023 630500                    EPPR0   RETURN_DELTA,,AUTO
         4 000141   200034 450500                    STP0    @IO_CONTROL+1,,AUTO
         4 000142   200017 631500                    EPPR1   MREG+5,,AUTO
         4 000143   200033 451500                    STP1    @ECC+2,,AUTO
         4 000144   000700 701000 4                  TSX1    TOR$MME_GEWAKE
         4 000145   000000 011000                    NOP     0
         4 000146   000222 710000 4                  TRA     s:7744

      186     7730    3              CASE (%GEFINI);

      187     7731    3                 CALL TOR$EXIT_PTR ;

   7731  4 000147   000002 631400 xsym               EPPR1   B_VECTNIL+2
         4 000150   000000 701000 xent               TSX1    TOR$EXIT_PTR
         4 000151   000000 011000                    NOP     0
         4 000152   000222 710000 4                  TRA     s:7744

      188     7732    3              CASE (ELSE);

PL6.E3A0      #001=TOR$FAULTS File=TOR$FAULTS.:E05TSI                            WED 07/30/97 06:32 Page:53
      189     7733    3                 CALL TOR$WRAPUP_PTR ;

   7733  4 000153   000002 631400 xsym               EPPR1   B_VECTNIL+2
         4 000154   000000 701000 xent               TSX1    TOR$WRAPUP_PTR
         4 000155   000000 011000                    NOP     0

      190     7734    3           END;

   7734  4 000156   000222 710000 4                  TRA     s:7744

      191     7735    3      ELSE DO CASE (-MME.INST.NO);

   7735  4 000157   200003 235100                    LDA     MME,,AUTO
         4 000160   000022 731000                    ARS     18
         4 000161   000027 675000 xsym               ERA     B_VECTNIL+23
         4 000162   000041 135007                    SBLA    33,DL
         4 000163   000002 115007                    CMPA    2,DL
         4 000164   000166 602005 4                  TNC     s:7735+7,AL
         4 000165   000217 710000 4                  TRA     s:7742
         4 000166   000170 710000 4                  TRA     s:7737
         4 000167   000213 710000 4                  TRA     s:7740

      192     7736    3              CASE (%TADIOD);

      193     7737    3                 CALL TOR$MME_TADIOD(MREG.A,MME.WD_1,MME.WD_2,MME.WD_3,MME.WD_4,

   7737  4 000170   200023 630500                    EPPR0   RETURN_DELTA,,AUTO
         4 000171   200042 450500                    STP0    @PARAM_4+1,,AUTO
         4 000172   200011 631500                    EPPR1   MME+6,,AUTO
         4 000173   200041 451500                    STP1    @PARAM_3+1,,AUTO
         4 000174   200010 633500                    EPPR3   MME+5,,AUTO
         4 000175   200040 453500                    STP3    @PARAM_2+1,,AUTO
         4 000176   200007 634500                    EPPR4   MME+4,,AUTO
         4 000177   200037 454500                    STP4    @PARAM_1+1,,AUTO
         4 000200   200006 635500                    EPPR5   MME+3,,AUTO
         4 000201   200036 455500                    STP5    @PARAM_0+1,,AUTO
         4 000202   200005 636500                    EPPR6   MME+2,,AUTO
PL6.E3A0      #001=TOR$FAULTS File=TOR$FAULTS.:E05TSI                            WED 07/30/97 06:32 Page:54
         4 000203   200035 456500                    STP6    @NUMBER_OF_REQUESTS+1,,AUTO
         4 000204   200004 637500                    EPPR7   MME+1,,AUTO
         4 000205   200034 457500                    STP7    @IO_CONTROL+1,,AUTO
         4 000206   200016 630500                    EPPR0   MREG+4,,AUTO
         4 000207   200033 450500                    STP0    @ECC+2,,AUTO
         4 000210   000720 701000 4                  TSX1    TOR$MME_TADIOD
         4 000211   000000 011000                    NOP     0
         4 000212   000222 710000 4                  TRA     s:7744

      194     7738    3                         MME.WD_5,MME.WD_6,RETURN_DELTA);
      195     7739    3              CASE (%TERMIN) ;

      196     7740    3                 CALL TOR$EXIT_PTR ;

   7740  4 000213   000002 631400 xsym               EPPR1   B_VECTNIL+2
         4 000214   000000 701000 xent               TSX1    TOR$EXIT_PTR
         4 000215   000000 011000                    NOP     0
         4 000216   000222 710000 4                  TRA     s:7744

      197     7741    3              CASE (ELSE) ;

      198     7742    3                 CALL TOR$WRAPUP_PTR ;

   7742  4 000217   000002 631400 xsym               EPPR1   B_VECTNIL+2
         4 000220   000000 701000 xent               TSX1    TOR$WRAPUP_PTR
         4 000221   000000 011000                    NOP     0

      199     7743    3           END;

      200     7744    2      CALL RET_MME_DATA;

   7744  4 000222   000267 701000 4                  TSX1    RET_MME_DATA
         4 000223   000000 011000                    NOP     0

      201     7745    2      CALL FIX_RET_IC;

   7745  4 000224   000255 701000 4                  TSX1    FIX_RET_IC
PL6.E3A0      #001=TOR$FAULTS File=TOR$FAULTS.:E05TSI                            WED 07/30/97 06:32 Page:55
         4 000225   000000 011000                    NOP     0

      202     7746    2      RETURN ;

   7746  4 000226   200030 221300                    LDX1  ! SUB_CODE+1,,AUTO
         4 000227   000001 702211                    TSX2  ! 1,X1

      203     7747
      204     7748    2   END MME_HANDLER;
      205     7749        %EJECT;
PL6.E3A0      #001=TOR$FAULTS File=TOR$FAULTS.:E05TSI                            WED 07/30/97 06:32 Page:56
      206     7750        /*F* NAME:         GET_MME_DATA
      207     7751             DESCRIPTION:
      208     7752           FETCHES MME DATA FROM EXCEPTION STACK FRAME.  RETURNS STRUCTURES MME
      209     7753           AND MREG, AND MME.INSTR$, POINTER TO OF MME INSTRUCTION.
      210     7754           B$TCB DEFINES TASK CONTROL BLOCK (TCB) AND INFORMATION ABOUT
      211     7755           CURRENT EXCEPTION STACK FRAME.  B$EXCFR  DEFINES CURRENT
      212     7756           EXCEPTION STACK FRAME.
      213     7757           B$TCB$ IS A LOADER BUILT POINTER TO THE TCB.
      214     7758        */
      215     7759
      216     7760    1   GET_MME_DATA:PROC;

   7760  4 000230   200032 741300       GET_MME_DATA STX1  ! @ECC+1,,AUTO

      217     7761
      218     7762    2      DCL MME_GMAP_DATA (0:6) UBIN  (36) BASED;
      219     7763
      220     7764    2      MME_INSTR.ADR = B$TCB$->B$TCB.STK$->B$EXCFR.IC;

   7764  4 000231   000000 470400 xsym               LDP0    B$TCB$
         4 000232   000001 471500                    LDP1    1,,PR0
         4 000233   100004 220100                    LDX0    4,,PR1
         4 000234   200022 740100                    STX0    MME_INSTR$,,AUTO

      221     7765    2      MME_INSTR.SEGID = %IS_SEGID;

   7765  4 000235   006000 222003                    LDX2    3072,DU
         4 000236   200022 442100                    SXL2    MME_INSTR$,,AUTO

      222     7766
      223     7767    2      MME = MME_INSTR$->MME_GMAP_DATA;

   7767  4 000237   200022 473500                    LDP3    MME_INSTR$,,AUTO
         4 000240   000100 100500                    MLR     fill='000'O
         4 000241   300000 000034                    ADSC9   0,,PR3                   cn=0,n=28
         4 000242   200003 000034                    ADSC9   MME,,AUTO                cn=0,n=28

PL6.E3A0      #001=TOR$FAULTS File=TOR$FAULTS.:E05TSI                            WED 07/30/97 06:32 Page:57
      224     7768
      225     7769    2      MREG = B$TCB$->B$TCB.STK$->B$EXCFR.REGS;

   7769  4 000243   000001 471500                    LDP1    1,,PR0
         4 000244   000100 100500                    MLR     fill='000'O
         4 000245   100050 000034                    ADSC9   40,,PR1                  cn=0,n=28
         4 000246   200012 000034                    ADSC9   MREG,,AUTO               cn=0,n=28

      226     7770
      227     7771    2      MME_IR = B$TCB$ -> B$TCB.STK$ -> B$EXCFR.IR;

   7771  4 000247   000001 471500                    LDP1    1,,PR0
         4 000250   100004 236100                    LDQ     4,,PR1
         4 000251   000022 736000                    QLS     18
         4 000252   777740 376003                    ANQ     -32,DU
         4 000253   200026 756100                    STQ     MME_IR,,AUTO

      228     7772    2      RETURN;

   7772  4 000254   000001 702211                    TSX2  ! 1,X1

      229     7773
      230     7774    2   END GET_MME_DATA;
      231     7775        %EJECT;
PL6.E3A0      #001=TOR$FAULTS File=TOR$FAULTS.:E05TSI                            WED 07/30/97 06:32 Page:58
      232     7776        /*F* NAME:         FIX_RET_IC
      233     7777             DESCRIPTION:
      234     7778           FOLLOWING MME SERVICE, USES RETURN_DELTA TO FIX UP IC TO RETURN TO.
      235     7779           RETURN_DELTA IS NUMBER OF INSTRUCTIONS PAST MME INSTRUCTION TO
      236     7780           RETURN TO.  IT MAY BE POSITIVE OR NEGATIVE.  RETURN IC IS
      237     7781           CALCULATED BY ADDING RETURN DELTA TO MME INSTRUCTION IC.  RETURN
      238     7782           IC    IS STORED IN FPT.  CALL TO M$TRTN RETURNS IT TO EXCEPTION
      239     7783           STACK; CONTROL GOES TO RETURN IC WHEN STACK FRAME IS POPPED.
      240     7784        */
      241     7785
      242     7786    1   FIX_RET_IC:PROC;

   7786  4 000255   200032 741300       FIX_RET_IC   STX1  ! @ECC+1,,AUTO

      243     7787
      244     7788    2      TRTN_FPT.V.IC# = MME_INSTR.ADR + RETURN_DELTA;

   7788  4 000256   200023 235100                    LDA     RETURN_DELTA,,AUTO
         4 000257   000022 731000                    ARS     18
         4 000260   200206 755100                    STA     N+2,,AUTO
         4 000261   200022 236100                    LDQ     MME_INSTR$,,AUTO
         4 000262   000022 772000                    QRL     18
         4 000263   200206 036100                    ADLQ    N+2,,AUTO
         4 000264   000000 620006                    EAX0    0,QL
         4 000265   000006 740000 1                  STX0    TRTN_FPT+6

      245     7789    2      RETURN;

   7789  4 000266   000001 702211                    TSX2  ! 1,X1

      246     7790
      247     7791    2   END FIX_RET_IC;
      248     7792        %EJECT;
PL6.E3A0      #001=TOR$FAULTS File=TOR$FAULTS.:E05TSI                            WED 07/30/97 06:32 Page:59
      249     7793        /*F* NAME:         RET_MME_DATA
      250     7794             DESCRIPTION:
      251     7795           RETURNS DATA FROM STRUCTURES MREG AND MME TO EXCEPTION STACK FRAME.
      252     7796           AND GMAP PROGRAM.  M$TRTN AUTOMATICALLY RETURNS DATA TO STACK
      253     7797           FRAME.  THIS ROUTINE RETURNS 6 WORDS TO THE LOCATIONS
      254     7798           IMMEDIATELY FOLLOWING THE MME INSTRUCTION.
      255     7799        */
      256     7800
      257     7801    1   RET_MME_DATA:PROC;

   7801  4 000267   200032 741300       RET_MME_DATA STX1  ! @ECC+1,,AUTO

      258     7802
      259     7803    2      DCL MME_GMAP_DATA (0:6) UBIN (36) BASED;
      260     7804
      261     7805    2      TRTN_FPT.REGS_ =   VECTOR (MREG);

   7805  4 000270   000000 235000 5                  LDA     0
         4 000271   200206 452500                    STP2    N+2,,AUTO
         4 000272   200206 236100                    LDQ     N+2,,AUTO
         4 000273   000012 036003                    ADLQ    10,DU
         4 000274   000000 757000 1                  STAQ    TRTN_FPT

      262     7806
      263     7807    2      MME_INSTR$->MME_GMAP_DATA = MME;

   7807  4 000275   200022 470500                    LDP0    MME_INSTR$,,AUTO
         4 000276   000100 100500                    MLR     fill='000'O
         4 000277   200003 000034                    ADSC9   MME,,AUTO                cn=0,n=28
         4 000300   000000 000034                    ADSC9   0,,PR0                   cn=0,n=28

      264     7808    2      RETURN;

   7808  4 000301   200032 221300                    LDX1  ! @ECC+1,,AUTO
         4 000302   000001 702211                    TSX2  ! 1,X1

      265     7809
PL6.E3A0      #001=TOR$FAULTS File=TOR$FAULTS.:E05TSI                            WED 07/30/97 06:32 Page:60
      266     7810    2   END RET_MME_DATA;
      267     7811        %EJECT;
PL6.E3A0      #001=TOR$FAULTS File=TOR$FAULTS.:E05TSI                            WED 07/30/97 06:32 Page:61
      268     7812        /*F*    NAME:    TOR$MME_GEROUT
      269     7813                PURPOSE: CALLED BY MME HANDLER TO SERVICE I/O
      270     7814                         REQUEST TO AND FROM THE TERMINAL.
      271     7815                         CHECKS THE BREAK FLAG. IF IT IS SET
      272     7816                         IT CALLS M$INT TO SET AND RESET THE
      273     7817                         BREAK_FPT. IT ALSO CALLS M$WAIT
      274     7818                         WHILE WAITING FOR A BREAK.
      275     7819                         CHECKS TO SEE IF ITS A WRITE OR A
      276     7820                         WRITE/READ. IT THEN CALLS M$WRITE
      277     7821                         OR M$READ.
      278     7822                         AFTER THE OPERATION IS COMPLETE IT
      279     7823                         FORMS THE STATUS AND SENDS IT BACK
      280     7824                         TO THE CALLER.
      281     7825        */
      282     7826        %EJECT;
PL6.E3A0      #001=TOR$FAULTS File=TOR$FAULTS.:E05TSI                            WED 07/30/97 06:32 Page:62
      283     7827    1   TOR$MME_GEROUT :PROC(GEMAP_PAR,STATUS_TABLE,RETURN_DELTA);

   7827  4 000303   200032 741300       TOR$MME_GER* STX1  ! @ECC+1,,AUTO

      284     7828
      285     7829    2      DCL BRK_EXPECTED      BIT (1) STATIC SYMDEF CALIGNED INIT (%FALSE) ;
      286     7830    2      DCL GEMAP_PAR UBIN(36);
      287     7831    2      DCL 1 GEMAP_PAR_TABLE REDEF GEMAP_PAR,
      288     7832    2            2 BUFFER_ADD UBIN(18) UNAL,
      289     7833    2            2 OP_CODE UBIN(6) UNAL,
      290     7834    2            2 * UBIN (12) UNAL;
      291     7835    2      DCL STATUS_TABLE UBIN(36);
      292     7836    2      DCL 1 STATUS_TABLE_PTR REDEF STATUS_TABLE,
      293     7837    2            2 STATUS_ADD UBIN(18) UNAL,
      294     7838    2            2 * UBIN(18) UNAL;
      295     7839    2      DCL RETURN_DELTA SBIN HALF;
      296     7840    2      DCL ERRCODE UBIN(14) UNAL;
      297     7841    2      DCL TABLE$ PTR;
      298     7842    2      DCL 1 TABLE_PTR REDEF TABLE$,
      299     7843    2            2 ADR UBIN(18) UNAL,
      300     7844    2            2 SEGID UBIN(18) UNAL;
      301     7845    2      DCL 1 TABLE BASED ALIGNED,
      302     7846    2            2 WORD_CNT UBIN(18) UNAL,
      303     7847    2            2 INPUT_BUF UBIN(18) UNAL,
      304     7848    2            2 CHAR_CNT UBIN(18) UNAL,
      305     7849    2            2 * UBIN(17) UNAL,
      306     7850    2            2 BREAK_FLAG UBIN(1) UNAL,
      307     7851    2            2 WRITE_DATA(0:383) CHAR(1) UNAL;
      308     7852    2      DCL STATUS$ PTR;
      309     7853    2      DCL 1 STATUS_PTR REDEF STATUS$,
      310     7854    2            2 ADR UBIN(18) UNAL,
      311     7855    2            2 SEGID UBIN(18) UNAL;
      312     7856    2      DCL 1 STATUS BASED ALIGNED,
      313     7857    2            2 * UBIN(33) UNAL,
      314     7858    2            2 OP_COMPLETE UBIN(1) UNAL,
      315     7859    2            2 IO_ERROR UBIN(1) UNAL,
      316     7860    2            2 BREAK_REC UBIN(1) UNAL;
PL6.E3A0      #001=TOR$FAULTS File=TOR$FAULTS.:E05TSI                            WED 07/30/97 06:32 Page:63
      317     7861        %FPT_WAIT(FPTN = BRK_WAIT_FPT,UNITS=10);
      318     7875        %EJECT;
PL6.E3A0      #001=TOR$FAULTS File=TOR$FAULTS.:E05TSI                            WED 07/30/97 06:32 Page:64
      319     7876        /* Code */
      320     7877
      321     7878    2      TABLE_PTR.ADR = GEMAP_PAR_TABLE.BUFFER_ADD;

   7878  4 000304   200033 470500                    LDP0    @GEMAP_PAR,,AUTO
         4 000305   000000 220100                    LDX0    0,,PR0
         4 000306   200037 740100                    STX0    TABLE$,,AUTO

      322     7879    2      TABLE_PTR.SEGID = %IS_SEGID ;

   7879  4 000307   006000 222003                    LDX2    3072,DU
         4 000310   200037 442100                    SXL2    TABLE$,,AUTO

      323     7880
      324     7881    2      STATUS_PTR.ADR = STATUS_TABLE_PTR.STATUS_ADD;

   7881  4 000311   200034 471500                    LDP1    @STATUS_TABLE,,AUTO
         4 000312   100000 223100                    LDX3    0,,PR1
         4 000313   200040 743100                    STX3    STATUS$,,AUTO

      325     7882    2      STATUS_PTR.SEGID = %IS_SEGID ;

   7882  4 000314   200040 442100                    SXL2    STATUS$,,AUTO

      326     7883    2      IF TABLE$ -> TABLE.BREAK_FLAG = 1

   7883  4 000315   200037 473500                    LDP3    TABLE$,,AUTO
         4 000316   300001 236100                    LDQ     1,,PR3
         4 000317   000001 376007                    ANQ     1,DL
         4 000320   000001 116007                    CMPQ    1,DL
         4 000321   000325 601000 4                  TNZ     s:7885

      327     7884    2      THEN BRK_EXPECTED = %TRUE ;

   7884  4 000322   400000 236003                    LDQ     -131072,DU
         4 000323   007764 756000 1                  STQ     BRK_EXPECTED
         4 000324   000326 710000 4                  TRA     s:7887
PL6.E3A0      #001=TOR$FAULTS File=TOR$FAULTS.:E05TSI                            WED 07/30/97 06:32 Page:65

      328     7885    2      ELSE BRK_EXPECTED = %FALSE ;

   7885  4 000325   007764 450000 1                  STZ     BRK_EXPECTED

      329     7886
      330     7887    3      DO CASE (GEMAP_PAR_TABLE.OP_CODE) ;

   7887  4 000326   000000 236100                    LDQ     0,,PR0
         4 000327   000014 772000                    QRL     12
         4 000330   000077 376007                    ANQ     63,DL
         4 000331   000005 116007                    CMPQ    5,DL
         4 000332   000334 602006 4                  TNC     s:7887+6,QL
         4 000333   000351 710000 4                  TRA     s:7894
         4 000334   000351 710000 4                  TRA     s:7894
         4 000335   000351 710000 4                  TRA     s:7894
         4 000336   000351 710000 4                  TRA     s:7894
         4 000337   000341 710000 4                  TRA     s:7889
         4 000340   000344 710000 4                  TRA     s:7891

      331     7888    3         CASE(3); /* WRITE */

      332     7889    3            CALL WRITE;

   7889  4 000341   000362 701000 4                  TSX1    WRITE
         4 000342   000000 011000                    NOP     0
         4 000343   000354 710000 4                  TRA     s:7897

      333     7890    3         CASE(4); /* WRITE,READ */

      334     7891    3            CALL WRITE;

   7891  4 000344   000362 701000 4                  TSX1    WRITE
         4 000345   000000 011000                    NOP     0

      335     7892    3            CALL READ;

PL6.E3A0      #001=TOR$FAULTS File=TOR$FAULTS.:E05TSI                            WED 07/30/97 06:32 Page:66
   7892  4 000346   000461 701000 4                  TSX1    READ
         4 000347   000000 011000                    NOP     0
         4 000350   000354 710000 4                  TRA     s:7897

      336     7893    3         CASE(ELSE);

      337     7894    3            CALL TOR$WRAPUP_PTR ;

   7894  4 000351   000002 631400 xsym               EPPR1   B_VECTNIL+2
         4 000352   000000 701000 xent               TSX1    TOR$WRAPUP_PTR
         4 000353   000000 011000                    NOP     0

      338     7895    3      END;

      339     7896
      340     7897    2      BRK_EXPECTED = %FALSE ;

   7897  4 000354   007764 450000 1                  STZ     BRK_EXPECTED

      341     7898    2      RETURN_DELTA = 3;

   7898  4 000355   000003 220003                    LDX0    3,DU
         4 000356   200035 470500                    LDP0    @RETURN_DELTA,,AUTO
         4 000357   000000 740100                    STX0    0,,PR0

      342     7899    2      RETURN;

   7899  4 000360   200032 221300                    LDX1  ! @ECC+1,,AUTO
         4 000361   000001 702211                    TSX2  ! 1,X1

      343     7900
      344     7901        /* END TOR$MME_GEROUT */
      345     7902        %EJECT;
PL6.E3A0      #001=TOR$FAULTS File=TOR$FAULTS.:E05TSI                            WED 07/30/97 06:32 Page:67
      346     7903        /*F* NAME:         WRITE
      347     7904             DESCRIPTION:
      348     7905        */
      349     7906
      350     7907    2   WRITE : PROC;

   7907  4 000362   200042 741300       WRITE        STX1  ! @PARAM_4+1,,AUTO

      351     7908
      352     7909    3      DCL CHAR_COUNT UBIN(18);
      353     7910    3      DCL ASCII_OUTPUT_BFR(0:383) CHAR(1);
      354     7911    3      DCL 1 VFC_ STATIC,
      355     7912    3            2 * UBIN(2) UNAL INIT(0),
      356     7913    3            2 * UBIN(3) UNAL INIT(4),
      357     7914    3            2 * UBIN(4) UNAL INIT(0);
      358     7915    3      DCL VFC_BYTE REDEF VFC_ CHAR(1);
      359     7916    3      DCL N UBIN(36);
      360     7917
      361     7918        /* Code */
      362     7919
      363     7920    3      CHAR_COUNT = TABLE$->TABLE.CHAR_CNT;

   7920  4 000363   200037 470500                    LDP0    TABLE$,,AUTO
         4 000364   000001 220100                    LDX0    1,,PR0
         4 000365   200043 740100                    STX0    CHAR_COUNT,,AUTO

      364     7921    3      ASCII_OUTPUT_BFR(0) = VFC_BYTE;

   7921  4 000366   007774 236000 1                  LDQ     VFC_
         4 000367   200044 552140                    STBQ    ASCII_OUTPUT_BFR,'40'O,AUTO

      365     7922    4      DO N = 1 TO CHAR_COUNT;

   7922  4 000370   000001 235007                    LDA     1,DL
         4 000371   200204 755100                    STA     N,,AUTO
         4 000372   000402 710000 4                  TRA     s:7924+2

PL6.E3A0      #001=TOR$FAULTS File=TOR$FAULTS.:E05TSI                            WED 07/30/97 06:32 Page:68
      366     7923    4         ASCII_OUTPUT_BFR(N) = TABLE$->TABLE.WRITE_DATA(N-1);

   7923  4 000373   200037 470500                    LDP0    TABLE$,,AUTO
         4 000374   200204 235100                    LDA     N,,AUTO
         4 000375   040105 100505                    MLR     fill='040'O
         4 000376   000001 600001                    ADSC9   1,A,PR0                  cn=3,n=1
         4 000377   200044 000001                    ADSC9   ASCII_OUTPUT_BFR,A,AUTO  cn=0,n=1

      367     7924    4      END;

   7924  4 000400   000001 035007                    ADLA    1,DL
         4 000401   200204 755100                    STA     N,,AUTO
         4 000402   200043 236100                    LDQ     CHAR_COUNT,,AUTO
         4 000403   000022 772000                    QRL     18
         4 000404   200204 116100                    CMPQ    N,,AUTO
         4 000405   000373 603000 4                  TRC     s:7923

      368     7925    3      WRITE_IO.BUF_ = VECTOR(ASCII_OUTPUT_BFR);

   7925  4 000406   000001 235000 5                  LDA     1
         4 000407   200206 452500                    STP2    N+2,,AUTO
         4 000410   200206 236100                    LDQ     N+2,,AUTO
         4 000411   000044 036003                    ADLQ    36,DU
         4 000412   000030 757000 1                  STAQ    WRITE_IO+4

      369     7926    3      WRITE_IO.BUF_.BOUND = CHAR_COUNT;

   7926  4 000413   200043 236100                    LDQ     CHAR_COUNT,,AUTO
         4 000414   777777 376003                    ANQ     -1,DU
         4 000415   000002 772000                    QRL     2
         4 000416   000030 676000 1                  ERQ     WRITE_IO+4
         4 000417   000034 376000 xsym               ANQ     B_VECTNIL+28
         4 000420   000030 656000 1                  ERSQ    WRITE_IO+4

      370     7927    3      CALL M$WRITE(WRITE_IO) ALTRET (WRITE_ERROR) ;

   7927  4 000421   000024 630400 1                  EPPR0   WRITE_IO
PL6.E3A0      #001=TOR$FAULTS File=TOR$FAULTS.:E05TSI                            WED 07/30/97 06:32 Page:69
         4 000422   440001 713400                    CLIMB   alt,write
         4 000423   401400 401760                    pmme    nvectors=4
         4 000424   000432 702000 4                  TSX2    WRITE_ERROR

      371     7928    3      STATUS$->STATUS.OP_COMPLETE = 1;

   7928  4 000425   200040 470500                    LDP0    STATUS$,,AUTO
         4 000426   000004 236007                    LDQ     4,DL
         4 000427   000000 256100                    ORSQ    0,,PR0

      372     7929    3      RETURN;

   7929  4 000430   200042 221300                    LDX1  ! @PARAM_4+1,,AUTO
         4 000431   000001 702211                    TSX2  ! 1,X1

      373     7930           %EJECT;
PL6.E3A0      #001=TOR$FAULTS File=TOR$FAULTS.:E05TSI                            WED 07/30/97 06:32 Page:70
      374     7931    3   WRITE_ERROR:
      375     7932    3      ERRCODE = B$TCB$->B$TCB.ALT$->B$ALT.ERR.CODE;

   7932  4 000432   000000 470400 xsym  WRITE_ERROR  LDP0    B$TCB$
         4 000433   000000 471500                    LDP1    0,,PR0
         4 000434   100102 236100                    LDQ     66,,PR1
         4 000435   000003 772000                    QRL     3
         4 000436   037777 376007                    ANQ     16383,DL
         4 000437   000026 736000                    QLS     22
         4 000440   200036 756100                    STQ     ERRCODE,,AUTO

      376     7933    4      DO CASE(ERRCODE);

   7933  4 000441   200036 236100                    LDQ     ERRCODE,,AUTO
         4 000442   000026 772000                    QRL     22
         4 000443   000010 136007                    SBLQ    8,DL
         4 000444   000001 116007                    CMPQ    1,DL
         4 000445   000447 602006 4                  TNC     s:7933+6,QL
         4 000446   000454 710000 4                  TRA     s:7937
         4 000447   000450 710000 4                  TRA     s:7935

      377     7934    4         CASE(8);

      378     7935    4            STATUS$->STATUS.IO_ERROR = 1;

   7935  4 000450   200040 473500                    LDP3    STATUS$,,AUTO
         4 000451   000002 236007                    LDQ     2,DL
         4 000452   300000 256100                    ORSQ    0,,PR3
         4 000453   000457 710000 4                  TRA     s:7939

      379     7936    4         CASE(ELSE);

      380     7937    4            CALL TOR$WRAPUP_PTR ;

   7937  4 000454   000002 631400 xsym               EPPR1   B_VECTNIL+2
         4 000455   000000 701000 xent               TSX1    TOR$WRAPUP_PTR
         4 000456   000000 011000                    NOP     0
PL6.E3A0      #001=TOR$FAULTS File=TOR$FAULTS.:E05TSI                            WED 07/30/97 06:32 Page:71

      381     7938    4      END;

      382     7939    3      RETURN;

   7939  4 000457   200042 221300                    LDX1  ! @PARAM_4+1,,AUTO
         4 000460   000001 702211                    TSX2  ! 1,X1

      383     7940
      384     7941    3   END WRITE;
      385     7942        %EJECT;
PL6.E3A0      #001=TOR$FAULTS File=TOR$FAULTS.:E05TSI                            WED 07/30/97 06:32 Page:72
      386     7943        /*F* NAME:         READ
      387     7944             DESCRIPTION:
      388     7945        */
      389     7946
      390     7947    2   READ : PROC;

   7947  4 000461   200042 741300       READ         STX1  ! @PARAM_4+1,,AUTO

      391     7948
      392     7949    3      DCL BUFFER$ PTR;
      393     7950    3      DCL 1 BUFFER_PTR REDEF BUFFER$,
      394     7951    3            2 ADR UBIN(18) UNAL,
      395     7952    3            2 SEGID UBIN(18) UNAL;
      396     7953    3      DCL 1 INPUT_BUFFER BASED ALIGNED,
      397     7954    3            2 CHAR_COUNT UBIN(18) UNAL,
      398     7955    3            2 * UBIN(18) UNAL,
      399     7956    3            2 READ_DATA(0:143) CHAR(1) UNAL;
      400     7957    3      DCL INPUT_CC UBIN(36);
      401     7958    3      DCL N UBIN(36);
      402     7959    3      DCL ASCII_INPUT_BFR(0:143) CHAR(1);
      403     7960    3      DCL X UBIN(36) STATIC INIT(0);
      404     7961
      405     7962        /* Code */
      406     7963
      407     7964    3      BUFFER_PTR.ADR = TABLE$->TABLE.INPUT_BUF;

   7964  4 000462   200037 470500                    LDP0    TABLE$,,AUTO
         4 000463   000000 720100                    LXL0    0,,PR0
         4 000464   200043 740100                    STX0    BUFFER$,,AUTO

      408     7965    3      BUFFER_PTR.SEGID = %IS_SEGID;

   7965  4 000465   006000 222003                    LDX2    3072,DU
         4 000466   200043 442100                    SXL2    BUFFER$,,AUTO

      409     7966    3      X = 0;

PL6.E3A0      #001=TOR$FAULTS File=TOR$FAULTS.:E05TSI                            WED 07/30/97 06:32 Page:73
   7966  4 000467   007775 450000 1                  STZ     X

      410     7967    3      IF BRK_EXPECTED

   7967  4 000470   007764 234000 1                  SZN     BRK_EXPECTED
         4 000471   000514 605000 4                  TPL     s:7981

      411     7968    4      THEN DO ;

      412     7969    4   WAIT:
      413     7970    4              CALL M$WAIT(BRK_WAIT_FPT) ;

   7970  4 000472   007766 630400 1     WAIT         EPPR0   BRK_WAIT_FPT
         4 000473   020006 713400                    CLIMB   8198
         4 000474   400400 401760                    pmme    nvectors=2

      414     7971    4              IF TOR$BREAK_OCCURRED

   7971  4 000475   000000 234000 xsym               SZN     TOR$BREAK_OCCURRED
         4 000476   000503 605000 4                  TPL     s:7974

      415     7972    4              THEN STATUS$->STATUS.BREAK_REC = 1;

   7972  4 000477   200040 470500                    LDP0    STATUS$,,AUTO
         4 000500   000001 236007                    LDQ     1,DL
         4 000501   000000 256100                    ORSQ    0,,PR0
         4 000502   000576 710000 4                  TRA     s:7994

      416     7973    5              ELSE DO;

      417     7974    5                      X = X+1;

   7974  4 000503   007775 235000 1                  LDA     X
         4 000504   000001 035007                    ADLA    1,DL
         4 000505   007775 755000 1                  STA     X

      418     7975    5                      IF X = 3
PL6.E3A0      #001=TOR$FAULTS File=TOR$FAULTS.:E05TSI                            WED 07/30/97 06:32 Page:74

   7975  4 000506   000003 115007                    CMPA    3,DL
         4 000507   000472 601000 4                  TNZ     WAIT

      419     7976    5                      THEN STATUS$->STATUS.BREAK_REC = 0;

   7976  4 000510   200040 470500                    LDP0    STATUS$,,AUTO
         4 000511   000002 236000 5                  LDQ     2
         4 000512   000000 356100                    ANSQ    0,,PR0
         4 000513   000576 710000 4                  TRA     s:7994

      420     7977    5                      ELSE GOTO WAIT;
      421     7978    5                   END;
      422     7979    4           END;
      423     7980    4      ELSE DO;

      424     7981    4              READ_IO.BUF_ = VECTOR(ASCII_INPUT_BFR);

   7981  4 000514   000003 235000 5                  LDA     3
         4 000515   200206 452500                    STP2    N+2,,AUTO
         4 000516   200206 236100                    LDQ     N+2,,AUTO
         4 000517   000046 036003                    ADLQ    38,DU
         4 000520   000044 757000 1                  STAQ    READ_IO+4

      425     7982    4              CALL M$READ(READ_IO) ALTRET (READ_ERROR) ;

   7982  4 000521   000040 630400 1                  EPPR0   READ_IO
         4 000522   440000 713400                    CLIMB   alt,read
         4 000523   401400 401760                    pmme    nvectors=4
         4 000524   000600 702000 4                  TSX2    READ_ERROR

      426     7983    4              INPUT_CC = DCBADDR (DCBNUM (M$SI))->F$DCB.ARS;

   7983  4 000525   000000 236007 xsym               LDQ     M$SI,DL
         4 000526   000004 470400 5                  LDP0    4
         4 000527   000000 471500                    LDP1    0,,PR0
         4 000530   100000 473506                    LDP3    0,QL,PR1
PL6.E3A0      #001=TOR$FAULTS File=TOR$FAULTS.:E05TSI                            WED 07/30/97 06:32 Page:75
         4 000531   300000 235100                    LDA     0,,PR3
         4 000532   200044 755100                    STA     INPUT_CC,,AUTO

      427     7984    4              IF INPUT_CC>80

   7984  4 000533   000121 115007                    CMPA    81,DL
         4 000534   000541 602000 4                  TNC     s:7986

      428     7985    4              THEN BUFFER$->INPUT_BUFFER.CHAR_COUNT = 80;

   7985  4 000535   000120 220003                    LDX0    80,DU
         4 000536   200043 473500                    LDP3    BUFFER$,,AUTO
         4 000537   300000 740100                    STX0    0,,PR3
         4 000540   000544 710000 4                  TRA     s:7987

      429     7986    4              ELSE BUFFER$->INPUT_BUFFER.CHAR_COUNT = INPUT_CC;

   7986  4 000541   000000 620005                    EAX0    0,AL
         4 000542   200043 473500                    LDP3    BUFFER$,,AUTO
         4 000543   300000 740100                    STX0    0,,PR3

      430     7987    4              N = 0;

   7987  4 000544   200045 450100                    STZ     N,,AUTO

      431     7988    5              DO WHILE(N<INPUT_CC&N<80);

   7988  4 000545   000555 710000 4                  TRA     s:7991

      432     7989    5                 BUFFER$->INPUT_BUFFER.READ_DATA(N) = ASCII_INPUT_BFR(N);

   7989  4 000546   200045 235100                    LDA     N,,AUTO
         4 000547   200043 470500                    LDP0    BUFFER$,,AUTO
         4 000550   040105 100505                    MLR     fill='040'O
         4 000551   200046 000001                    ADSC9   ASCII_INPUT_BFR,A,AUTO   cn=0,n=1
         4 000552   000001 000001                    ADSC9   1,A,PR0                  cn=0,n=1

PL6.E3A0      #001=TOR$FAULTS File=TOR$FAULTS.:E05TSI                            WED 07/30/97 06:32 Page:76
      433     7990    5                 N = N+1;

   7990  4 000553   000001 035007                    ADLA    1,DL
         4 000554   200045 755100                    STA     N,,AUTO

      434     7991    5              END;

   7991  4 000555   400000 220003                    LDX0    -131072,DU
         4 000556   200045 236100                    LDQ     N,,AUTO
         4 000557   200044 116100                    CMPQ    INPUT_CC,,AUTO
         4 000560   000562 602000 4                  TNC     s:7991+5
         4 000561   000000 220003                    LDX0    0,DU
         4 000562   400000 221003                    LDX1    -131072,DU
         4 000563   000120 116007                    CMPQ    80,DL
         4 000564   000566 602000 4                  TNC     s:7991+9
         4 000565   000000 221003                    LDX1    0,DU
         4 000566   000000 636011                    EAQ     0,X1
         4 000567   200206 756100                    STQ     N+2,,AUTO
         4 000570   000000 636010                    EAQ     0,X0
         4 000571   200206 376100                    ANQ     N+2,,AUTO
         4 000572   000546 601000 4                  TNZ     s:7989

      435     7992    4              STATUS$->STATUS.OP_COMPLETE=1;

   7992  4 000573   200040 470500                    LDP0    STATUS$,,AUTO
         4 000574   000004 236007                    LDQ     4,DL
         4 000575   000000 256100                    ORSQ    0,,PR0

      436     7993    4           END;

      437     7994    3      RETURN;

   7994  4 000576   200042 221300                    LDX1  ! @PARAM_4+1,,AUTO
         4 000577   000001 702211                    TSX2  ! 1,X1

      438     7995
      439     7996    3   READ_ERROR:
PL6.E3A0      #001=TOR$FAULTS File=TOR$FAULTS.:E05TSI                            WED 07/30/97 06:32 Page:77
      440     7997    3      ERRCODE = B$TCB$->B$TCB.ALT$->B$ALT.ERR.CODE;

   7997  4 000600   000000 470400 xsym  READ_ERROR   LDP0    B$TCB$
         4 000601   000000 471500                    LDP1    0,,PR0
         4 000602   100102 236100                    LDQ     66,,PR1
         4 000603   000003 772000                    QRL     3
         4 000604   037777 376007                    ANQ     16383,DL
         4 000605   000026 736000                    QLS     22
         4 000606   200036 756100                    STQ     ERRCODE,,AUTO

      441     7998    4      DO CASE(ERRCODE);

   7998  4 000607   200036 236100                    LDQ     ERRCODE,,AUTO
         4 000610   000026 772000                    QRL     22
         4 000611   000010 136007                    SBLQ    8,DL
         4 000612   000001 116007                    CMPQ    1,DL
         4 000613   000615 602006 4                  TNC     s:7998+6,QL
         4 000614   000622 710000 4                  TRA     s:8002
         4 000615   000616 710000 4                  TRA     s:8000

      442     7999    4         CASE(8);

      443     8000    4            STATUS$->STATUS.IO_ERROR = 1;

   8000  4 000616   200040 473500                    LDP3    STATUS$,,AUTO
         4 000617   000002 236007                    LDQ     2,DL
         4 000620   300000 256100                    ORSQ    0,,PR3
         4 000621   000625 710000 4                  TRA     s:8004

      444     8001    4         CASE(ELSE);

      445     8002    4            CALL TOR$WRAPUP_PTR ;

   8002  4 000622   000002 631400 xsym               EPPR1   B_VECTNIL+2
         4 000623   000000 701000 xent               TSX1    TOR$WRAPUP_PTR
         4 000624   000000 011000                    NOP     0

PL6.E3A0      #001=TOR$FAULTS File=TOR$FAULTS.:E05TSI                            WED 07/30/97 06:32 Page:78
      446     8003    4      END;

      447     8004    3      RETURN;

   8004  4 000625   200042 221300                    LDX1  ! @PARAM_4+1,,AUTO
         4 000626   000001 702211                    TSX2  ! 1,X1

      448     8005
      449     8006    3   END READ;
      450     8007    2   END TOR$MME_GEROUT;
      451     8008        %EJECT;
PL6.E3A0      #001=TOR$FAULTS File=TOR$FAULTS.:E05TSI                            WED 07/30/97 06:32 Page:79
      452     8009    1   TOR$MME_GESNAP: PROC(PARAM_1, RETURN_DELTA);

   8009  4 000627   200032 741300       TOR$MME_GES* STX1  ! @ECC+1,,AUTO

      453     8010
      454     8011    2      DCL PARAM_1 UBIN(36);
      455     8012    2      DCL RETURN_DELTA SBIN HALF;
      456     8013
      457     8014        /* Code */
      458     8015
      459     8016    2      RETURN_DELTA = 2;

   8016  4 000630   000002 220003                    LDX0    2,DU
         4 000631   200034 470500                    LDP0    @RETURN_DELTA,,AUTO
         4 000632   000000 740100                    STX0    0,,PR0

      460     8017    2      RETURN;

   8017  4 000633   200032 221300                    LDX1  ! @ECC+1,,AUTO
         4 000634   000001 702211                    TSX2  ! 1,X1

      461     8018
      462     8019    2   END TOR$MME_GESNAP;
      463     8020        %EJECT;
PL6.E3A0      #001=TOR$FAULTS File=TOR$FAULTS.:E05TSI                            WED 07/30/97 06:32 Page:80
      464     8021        /*F*      NAME:    TOR$MME_GETIME
      465     8022                  PURPOSE: CALLED BY MME HANDLER FOR DATE AND TIME.
      466     8023                           SPECIFIES DEST AND SOURCE OPTIONS IN TIME_FPT INDICATING
      467     8024                           SOURCE AND FORMAT OF  DATE TO BE RETURNED.
      468     8025                           CALLS M$TIME WHICH RETURNS DATE TO DATE_BUFFER_ASCII
      469     8026                           IN FORMAT OF YYMMDD.
      470     8027                           CALLS TOT$ASCII_BCD TO CONVERT DATE FROM ASCII FORMAT TO
      471     8028                           BCD FORMAT .
      472     8029                           CALLS TOR$MME-ABSTIM TO RETURN TIME IN 1/64th MILLI_
      473     8030                           SECOND INCREMENTS SINCE MIDNIGHT.
      474     8031                           ASSIGNS RETURN_DELTA.
      475     8032                           RETURNS TO MME HANDLER WITH TIME AND DATE IN "GETIME_
      476     8033                           BUFFER" AND "DATE_BUFFER" RESPECTIVELY.
      477     8034        */
      478     8035
      479     8036    1   TOR$MME_GETIME: PROC(DATE_BUFFER, GETIME_BUFFER, RETURN_DELTA);

   8036  4 000635   200032 741300       TOR$MME_GET* STX1  ! @ECC+1,,AUTO

      480     8037
      481     8038    2      DCL DATE_BUFFER UBIN(36);
      482     8039    2      DCL DATE_BUF_TEMP(0:5) REDEF DATE_BUFFER UBIN(6) UNAL;
      483     8040    2      DCL DATE_BUFFER_BCD(0:5) UBIN(6)  STATIC UNAL;
      484     8041    2      DCL GETIME_BUFFER UBIN(36);
      485     8042    2      DCL RETURN_DELTA SBIN HALF;
      486     8043    2      DCL TIME_BUFFER UBIN(36) STATIC;
      487     8044           %FPT_TIME(FPTN = TIME_FPT,
      488     8045                     SOURCE = CLOCK,
      489     8046                    DATE = DATE_BUFFER_ASCII,
      490     8047                    TSTAMP = TIME_BUFFER);
      491     8066           %EJECT;
PL6.E3A0      #001=TOR$FAULTS File=TOR$FAULTS.:E05TSI                            WED 07/30/97 06:32 Page:81
      492     8067        /* Code */
      493     8068
      494     8069    2      TIME_FPT.V.DEST# = %ANS#;

   8069  4 000636   000002 236003                    LDQ     2,DU
         4 000637   010012 552020 1                  STBQ    TIME_FPT+10,'20'O

      495     8070    2      TIME_FPT.V.SOURCE# = %CLOCK#;

   8070  4 000640   000000 236003                    LDQ     0,DU
         4 000641   010012 552040 1                  STBQ    TIME_FPT+10,'40'O

      496     8071
      497     8072    2      CALL M$TIME(TIME_FPT) ;

   8072  4 000642   010000 630400 1                  EPPR0   TIME_FPT
         4 000643   020004 713400                    CLIMB   8196
         4 000644   402000 401760                    pmme    nvectors=5

      498     8073    2      CHAR_COUNT = 6;

   8073  4 000645   000006 235007                    LDA     6,DL
         4 000646   200024 755100                    STA     CHAR_COUNT,,AUTO

      499     8074
      500     8075    2      CALL TOT$ASCII_BCD (DATE_BUFFER_ASCII,DATE_BUFFER_BCD,CHAR_COUNT);

   8075  4 000647   200024 630500                    EPPR0   CHAR_COUNT,,AUTO
         4 000650   200210 450500                    STP0    N+4,,AUTO
         4 000651   000006 237000 5                  LDAQ    6
         4 000652   200206 757100                    STAQ    N+2,,AUTO
         4 000653   200206 630500                    EPPR0   N+2,,AUTO
         4 000654   000021 631400 xsym               EPPR1   B_VECTNIL+17
         4 000655   000000 701000 xent               TSX1    TOT$ASCII_BCD
         4 000656   000000 011000                    NOP     0

      501     8076    2      DATE_BUF_TEMP = DATE_BUFFER_BCD;
PL6.E3A0      #001=TOR$FAULTS File=TOR$FAULTS.:E05TSI                            WED 07/30/97 06:32 Page:82

   8076  4 000657   007776 236000 1                  LDQ     DATE_BUFFER_BCD
         4 000660   200033 470500                    LDP0    @DATE_BUFFER,,AUTO
         4 000661   000000 756100                    STQ     0,,PR0

      502     8077
      503     8078    2      TIME_FPT.V.DEST# = %TUN#;

   8078  4 000662   000005 236003                    LDQ     5,DU
         4 000663   010012 552020 1                  STBQ    TIME_FPT+10,'20'O

      504     8079    2      CALL M$TIME(TIME_FPT) ;

   8079  4 000664   010000 630400 1                  EPPR0   TIME_FPT
         4 000665   020004 713400                    CLIMB   8196
         4 000666   402000 401760                    pmme    nvectors=5

      505     8080    2      GETIME_BUFFER = 64*TIME_BUFFER;

   8080  4 000667   200034 470500                    LDP0    @GETIME_BUFFER,,AUTO
         4 000670   007777 235000 1                  LDA     TIME_BUFFER
         4 000671   000006 735000                    ALS     6
         4 000672   000000 755100                    STA     0,,PR0

      506     8081    2      RETURN_DELTA = 1;

   8081  4 000673   000001 220003                    LDX0    1,DU
         4 000674   200035 471500                    LDP1    @RETURN_DELTA,,AUTO
         4 000675   100000 740100                    STX0    0,,PR1

      507     8082
      508     8083    2      RETURN;

   8083  4 000676   200032 221300                    LDX1  ! @ECC+1,,AUTO
         4 000677   000001 702211                    TSX2  ! 1,X1

      509     8084
PL6.E3A0      #001=TOR$FAULTS File=TOR$FAULTS.:E05TSI                            WED 07/30/97 06:32 Page:83
      510     8085    2   END TOR$MME_GETIME;
      511     8086        %EJECT;
PL6.E3A0      #001=TOR$FAULTS File=TOR$FAULTS.:E05TSI                            WED 07/30/97 06:32 Page:84
      512     8087        /*F*      NAME:    TOR$MME_GEWAKE
      513     8088                  PURPOSE: FIRST CALLED BY MME HANDLER TO RELINQUISH CONTROL OF CPU
      514     8089                           FOR A SPECIFIED PERIOD OF TIME OR UNTIL AN I/O OPERATION
      515     8090                           COMPLETES.
      516     8091                           SETS TOF$GEWAKE_FLAG = 1 TO INDICATE TO EVENT HANDLER THAT
      517     8092                           GEWAKE REQUEST IS TO BE PROCESSED.
      518     8093                           TRANSLATES GEWAKE TIME PASSED AS A PARAMETER, FROM 1/64th
      519     8094                           MILLISECOND INCREMENTS TO 1 SECOND INCREMENTS BY DIVIDING
      520     8095                           GEWAKE_TIME BY 64,000 AND ASSIGNING QUOTIENT TO GEWAKE_TIME.
      521     8096                           IF TRUNCATED QUOTIENT IS LESS THAN 1 SECOND THEN SETS
      522     8097                           WAIT_FPT UNITS = 1 SPECIFYING THAT WAIT TIME IS 1 SECOND.
      523     8098                           OTHERWISE SETS WAIT FPT UNITS EQUAL TO TRUNCATED QUOTIENT.
      524     8099                           CALLS M$WAIT AND PUTS PROGRAM TO SLEEP FOR SPECIFIED
      525     8100                           PERIOD OF TIME OR UNTIL I/O OPERATION COMPLETES AND
      526     8101                           GENERATES AN INTERRUPT IN WHICH CASE M$WAIT IS EXITED AND
      527     8102                           AND CONTROL RETURNS TO EVENT HANDLER.
      528     8103                           IF TIME PERIOD ELAPSES BEFORE INTERRUPT THEN TOF$GEWAKE_
      529     8104                           FLAG IS RESET, RETURN_DELTA IS ASSIGNED AND RETURN IS
      530     8105                           BACK TO THE MME HANDLER.  OTHERWISE EVENT HANDLER CALLS
      531     8106                           TOR$MME_GEWAKE AFTER THE OCCURENCE OF AN INTERRUPT.
      532     8107                           IF WRITE PORTION OF WRITE THEN READ OPERATION COMPLETED
      533     8108                           THEN THE TIME REMAINING FROM THE LAST M$WAIT CALL IS
      534     8109                           ASSIGNED TO GEWAKE_TIME AND M$WAIT IS AGAIN INVOKED.
      535     8110                           WHEN TOR$MME_GEWAKE IS CALLED WITH TOF$GEWAKE_FLAG = 2 THEN
      536     8111                           RETURN_DELTA IS ASSIGNED, TOF$GEWAKE_FLAG IS RESET
      537     8112                           AND RETURN IS BACK TO EVENT HANDLER.
      538     8113                           POPPING OF SUBROUTINE CALL SEQUENCE FROM STACK RESULTS IN
      539     8114                           EVENTUAL RETURN TO MME HANDLER.
      540     8115        */
      541     8116        %EJECT ;
PL6.E3A0      #001=TOR$FAULTS File=TOR$FAULTS.:E05TSI                            WED 07/30/97 06:32 Page:85
      542     8117    1   TOR$MME_GEWAKE: PROC(GEWAKE_TIME, RETURN_DELTA);

   8117  4 000700   200032 741300       TOR$MME_GEW* STX1  ! @ECC+1,,AUTO

      543     8118
      544     8119    2      DCL GEWAKE_TIME SBIN(36);
      545     8120    2      DCL RETURN_DELTA SBIN HALF;
      546     8121           %FPT_WAIT(FPTN = WAIT_FPT);
      547     8135
      548     8136        /* Code */
      549     8137
      550     8138    2      GEWAKE_TIME = GEWAKE_TIME/64000;

   8138  4 000701   200033 470500                    LDP0    @GEWAKE_TIME,,AUTO
         4 000702   000000 236100                    LDQ     0,,PR0
         4 000703   175000 506007                    DIV     64000,DL
         4 000704   000000 756100                    STQ     0,,PR0

      551     8139    2      IF GEWAKE_TIME < 1

   8139  4 000705   000000 116003                    CMPQ    0,DU
         4 000706   000712 605400 4                  TPNZ    s:8142

      552     8140    2      THEN WAIT_FPT.V.UNITS# = 1;

   8140  4 000707   000001 235007                    LDA     1,DL
         4 000710   010020 755000 1                  STA     WAIT_FPT+4
         4 000711   000713 710000 4                  TRA     s:8145

      553     8141    3      ELSE DO;

      554     8142    3              WAIT_FPT.V.UNITS# = GEWAKE_TIME;

   8142  4 000712   010020 756000 1                  STQ     WAIT_FPT+4

      555     8143                   /*CALL M$WAIT(WAIT_FPT) ;*/
      556     8144    3           END;
PL6.E3A0      #001=TOR$FAULTS File=TOR$FAULTS.:E05TSI                            WED 07/30/97 06:32 Page:86

      557     8145    2      RETURN_DELTA = 1;

   8145  4 000713   000001 220003                    LDX0    1,DU
         4 000714   200034 471500                    LDP1    @RETURN_DELTA,,AUTO
         4 000715   100000 740100                    STX0    0,,PR1

      558     8146    2      RETURN;

   8146  4 000716   200032 221300                    LDX1  ! @ECC+1,,AUTO
         4 000717   000001 702211                    TSX2  ! 1,X1

      559     8147
      560     8148    2   END TOR$MME_GEWAKE;
      561     8149        %EJECT;
PL6.E3A0      #001=TOR$FAULTS File=TOR$FAULTS.:E05TSI                            WED 07/30/97 06:32 Page:87
      562     8150        /*F*      NAME:    TOR$MME_TADIOD
      563     8151                  PURPOSE: CALLED BY MME HANDLER TO SERVICE I/O REQUESTS.
      564     8152                           INCREMENTS NUMBER OF I/O OPERATIONS CURRENTLY ASSIGNED I/O
      565     8153                           BUFFER(IONUM) BY NUMBER OF REQUESTS PRESENTLY MADE.
      566     8154                           DENIES ALL I/O REQUESTS IF IONUM>8.
      567     8155                           CHECKS WRITE WORD COUNT FIELS OF THE 5 I/O PARAMETERS
      568     8156                           PASSED(REDEFINED AS PARAM(0:4)).  IF ANY ARE >85 THEN ALL
      569     8157                           I/O REQUESTS MADE ARRE DENIED, RETURN_DELTA IS SET,
      570     8158                           AND CONTROL RETURNS TO MME HANDLER.
      571     8159                           ALLOCATES AN AVAILIABLE I/O BUFFER, i.e., BUFFER WITH
      572     8160                            IO_BUFFER.BUF_AVAILIABLE_FLAG = 0,    AND SETS TOF$IO_
      573     8161                           BUFFER.BUF_AVAILIABLE_FLAG = 1.  SETS BUF_NUM ACCORDING TO
      574     8162                           ARRAY INDEX OF I/O BUFFER ALLOCATED.
      575     8163                           MOVES WRITE_WD_CNT_BCD, AND IO_REQ_BITS FIELDS FROM
      576     8164                           PARAM(NUM_REQUESTS) TO RESPECTIVE FIELDS IN  $$IO_BUFFER(
      577     8165                           BUF_NUM). SIMILARLY MOVES TDPCN, PAD_CHAR, EXEC_NUM, AND
      578     8166                           LID FIELDS FROM CONTROL_CODE  FIELDS TO THE ALLOCATED
      579     8167                           BUFFER.  MAKES ENTRY OF THE FORM 'IO ' IN OCTAL FORMAT IN
      580     8168                           IO_BUFFER ALLOCATED.
      581     8169                           BUILDS POINTER(DCW_LIST_PTR) TO THE BASED VARIABLE DCW_LIST
      582     8170                           LIST_ENTRY USING DCW LIST_ADDR FIELD CONTAINED IN
      583     8171                           PARAM(NUM_REQUESTS).  SETS DCW_WORD STRUCTURE EQUAL TO DCW_
      584     8172                           LIST _ENTRY.
      585     8173                           DECREMENTS NUM_REQUESTS; INITIALIZES VARIABLES K,M, AND
      586     8174                           CHECK TO ZERO.
      587     8175                           INCREMENTS CHECK BY THE WORD COUNT FIELD CONTAINED IN DCW_
      588     8176                           WORD.
      589     8177                           SETS VARIABLE K = M. M INDICATES THE NEXT ARRAY ELEMENT
      590     8178                           POSITION IN WRITE_BUF_BCD_REDEF   INTO WHICH DCW_DATA
      591     8179                           WORD IS TTO BE MOVED IN THE EVENT THAT THERE ARE
      592     8180                           MULTIPLE DCW_WORD ENTRIES FOR A SINGLE  I/O REQUEST.
      593     8181                           MOVES DCW_DATA WORD INTO READ_BUF_BCD_REDEF. INCREMENTS
      594     8182                           DCW_DATA_PTR TO POINT TO NEXT DCW_DATA WORD.  REPEATS
      595     8183                           PROCESS UNTIL NUMBER OF WORDS SPECIFIED BY DCW_WORD.
      596     8184                           WORD_COUNT HAS BEEN MOVED.
      597     8185                           EVALUATES CODE FIELD IN DCW_WORD.  IF DCW_WORD.CODE = 1 THEN
      598     8186                           MORE DATA EXISTS FOR THE I/O REQUEST PRESENTLY BEING
PL6.E3A0      #001=TOR$FAULTS File=TOR$FAULTS.:E05TSI                            WED 07/30/97 06:32 Page:88
      599     8187                           SERVICED.  DCW_LIST_PTR IS INCREMENTED TO POINT TO NEXT
      600     8188                           DCW_LIST_ENTRY AND DATA IS MOVED AS PREVIOUSLY
      601     8189                           DESCRIBED.
      602     8190                           IF DCW_WORD.CODE = 0 THEN ALL DATA HAS BEEN MOVED FOR
      603     8191                           THIS I/O REQUEST.CHECK IS THEN COMPARED TO WRITE_WD_CNT_BCD
      604     8192                           FIELD IN PARAMETER(NUM_REQUESTS).  IF THE VARIABLES ARE
      605     8193                           EQUAL THEN TOR$EXIT IS CALLED TO ABORT PROGRAM.  OTHERWISE
      606     8194                           TOT$BCD_ASCII IS CALLED TO CONVERT DATA.  CONVERTED DATA
      607     8195                           IS THEN MOVED INTO PREVIOUSLY ALLOCATED BUFFER.
      608     8196                           IF IO_REQUESTS REMAIN TO BE SERVICED (i.e.,NUM_REQUESTS ~= 0)
      609     8197                           THEN THE NEXT IO_REQUEST IS SIMILARLY SERVICED.
      610     8198                           IF NO I/O REQUESTS REMAIN THEN  PROCESS_IO_REQ    IS CALLED,
      611     8199                           CALLED, RETURN_DELTA IS ASSIGNED AND CONTROL RETURNS TO
      612     8200                           MME HANDLER.
      613     8201        */
      614     8202        %EJECT;
PL6.E3A0      #001=TOR$FAULTS File=TOR$FAULTS.:E05TSI                            WED 07/30/97 06:32 Page:89
      615     8203    1   TOR$MME_TADIOD: PROC(IO_CONTROL, NUMBER_OF_REQUESTS, PARAM_0, PARAM_1, PARAM_2,
              8203            PARAM_3, PARAM_4, RETURN_DELTA);

   8203  4 000720   200032 741300       TOR$MME_TAD* STX1  ! @ECC+1,,AUTO

      616     8204
      617     8205    2      DCL BUF_NUM SBIN HALF;
      618     8206    2      DCL CHECK SBIN HALF;
      619     8207    2      DCL DCW_DATA SBIN WORD BASED(DCW_DATA_PTR);
      620     8208    2      DCL 1 DCW_DATA_PTR_FORMAT STATIC,
      621     8209    2            2 DCW_DATA_ADDR UBIN(18) UNAL,
      622     8210    2            2 ID UBIN(18) UNAL INIT(%IS_SEGID);
      623     8211    2      DCL DCW_DATA_PTR REDEF DCW_DATA_PTR_FORMAT PTR;
      624     8212    2      DCL DCW_LIST_ENTRY BIT(36) ALIGNED BASED(DCW_LIST_PTR);
      625     8213    2      DCL 1 DCW_LIST_PTR_FORMAT STATIC,
      626     8214    2            2 DCW_LIST_ADDR UBIN(18) UNAL,
      627     8215    2            2 ID BIT(18) UNAL INIT('006000'O);
      628     8216    2      DCL DCW_LIST_PTR REDEF DCW_LIST_PTR_FORMAT PTR;
      629     8217    2      DCL 1 DCW_WORD,
      630     8218    2            2 DATA_ADDR UBIN(18) UNAL,
      631     8219    2            2 CHAR_POSITION UBIN(3) UNAL,
      632     8220    2            2 * UBIN(1) UNAL,
      633     8221    2            2 CODE UBIN(2) UNAL,
      634     8222    2            2 WORD_COUNT UBIN(12) UNAL;
      635     8223    2      DCL I SBIN HALF;
      636     8224    2      DCL IO_CONTROL UBIN(36);
      637     8225    2      DCL 1 CONTROL_CODE REDEF IO_CONTROL,
      638     8226    2            2 TDPCN UBIN(18) UNAL,
      639     8227    2            2 PAD_CHAR UBIN(6) UNAL,
      640     8228    2            2 * UBIN(3) UNAL,
      641     8229    2            2 EXEC_NUM UBIN(3) UNAL,
      642     8230    2            2 LID UBIN(6) UNAL;
      643     8231    2      DCL J SBIN HALF;
      644     8232    2      DCL K SBIN HALF;
      645     8233    2      DCL M SBIN HALF;
      646     8234    2      DCL NUM_REQUESTS UBIN(18);
      647     8235    2      DCL NUMBER_OF_REQUESTS UBIN (36);                         /*A TEMPORARY KLUDGE*/
PL6.E3A0      #001=TOR$FAULTS File=TOR$FAULTS.:E05TSI                            WED 07/30/97 06:32 Page:90
      648     8236    2      DCL 1 NOR REDEF NUMBER_OF_REQUESTS,
      649     8237    2            2 NO UBIN (18) UNAL,
      650     8238    2            2 * UBIN (18) UNAL;
      651     8239    2      DCL PARAM_0 UBIN(36);
      652     8240    2      DCL PARAM_A REDEF PARAM_0 BIT(36);
      653     8241    2      DCL PARAM_1 UBIN(36);
      654     8242    2      DCL PARAM_B REDEF PARAM_1 BIT(36);
      655     8243    2      DCL PARAM_2 UBIN(36);
      656     8244    2      DCL PARAM_C REDEF PARAM_2 BIT(36);
      657     8245    2      DCL PARAM_3 UBIN(36);
      658     8246    2      DCL PARAM_D REDEF PARAM_3 BIT(36);
      659     8247    2      DCL PARAM_4 UBIN(36);
      660     8248    2      DCL PARAM_E REDEF PARAM_4 BIT(36);
      661     8249    2      DCL 1 PARAMETER(0:4),
      662     8250    2            2 DCW_LIST_ADDR UBIN(18) UNAL,
      663     8251    2            2 IO_REQ_BITS UNAL,
      664     8252    2              3 E UBIN(1) UNAL,
      665     8253    2              3 R UBIN(1) UNAL,
      666     8254    2              3 M UBIN(1) UNAL,
      667     8255    2              3 S UBIN(1) UNAL,
      668     8256    2              3 C UBIN(1) UNAL,
      669     8257    2              3 P UBIN(1) UNAL,
      670     8258    2            2 WRITE_WD_CNT_BCD UBIN(12) UNAL;
      671     8259    2      DCL REQ_INVALID UBIN(1) STATIC INIT(0);
      672     8260    2      DCL RETURN_DELTA SBIN HALF;
      673     8261    2      DCL RETURN_DELTA_COUNT SBIN HALF;
      674     8262    2      DCL WRITE_BUF_ASCII(0:1919) CHAR(1) STATIC UNAL;
      675     8263    2      DCL WRITE_BUF_ASCII_REDEF REDEF WRITE_BUF_ASCII CHAR(1920);
      676     8264    2      DCL WRITE_BUF_BCD(0:1919) UBIN(6) STATIC UNAL;
      677     8265    2      DCL WRITE_BUF_BCD_REDEF(0:319) REDEF WRITE_BUF_BCD UBIN(36);
      678     8266        %EJECT;
PL6.E3A0      #001=TOR$FAULTS File=TOR$FAULTS.:E05TSI                            WED 07/30/97 06:32 Page:91
      679     8267        /* Code */
      680     8268
      681     8269    2      REQ_INVALID = 0;                                     /*INITIALIZE FLAG*/

   8269  4 000721   010024 450000 1                  STZ     REQ_INVALID

      682     8270    2      NUM_REQUESTS = NOR.NO;                               /*A TEMPORARY KLUDGE*/

   8270  4 000722   200034 470500                    LDP0    @NUMBER_OF_REQUESTS,,AUTO
         4 000723   000000 220100                    LDX0    0,,PR0
         4 000724   200052 740100                    STX0    NUM_REQUESTS,,AUTO

      683     8271
      684     8272    2      RETURN_DELTA_COUNT = NUM_REQUESTS;

   8272  4 000725   200060 740100                    STX0    RETURN_DELTA_COUNT,,AUTO

      685     8273    2      PARAMETER(0) = PARAM_A;

   8273  4 000726   200035 471500                    LDP1    @PARAM_0,,AUTO
         4 000727   100000 236100                    LDQ     0,,PR1
         4 000730   200053 756100                    STQ     PARAMETER,,AUTO

      686     8274    2      PARAMETER(1) = PARAM_B;

   8274  4 000731   200036 473500                    LDP3    @PARAM_1,,AUTO
         4 000732   300000 236100                    LDQ     0,,PR3
         4 000733   200054 756100                    STQ     PARAMETER+1,,AUTO

      687     8275    2      PARAMETER(2) = PARAM_C;

   8275  4 000734   200037 474500                    LDP4    @PARAM_2,,AUTO
         4 000735   400000 236100                    LDQ     0,,PR4
         4 000736   200055 756100                    STQ     PARAMETER+2,,AUTO

      688     8276    2      PARAMETER(3) = PARAM_D;

PL6.E3A0      #001=TOR$FAULTS File=TOR$FAULTS.:E05TSI                            WED 07/30/97 06:32 Page:92
   8276  4 000737   200040 475500                    LDP5    @PARAM_3,,AUTO
         4 000740   500000 236100                    LDQ     0,,PR5
         4 000741   200056 756100                    STQ     PARAMETER+3,,AUTO

      689     8277    2      PARAMETER(4) = PARAM_E;

   8277  4 000742   200041 476500                    LDP6    @PARAM_4,,AUTO
         4 000743   600000 236100                    LDQ     0,,PR6
         4 000744   200057 756100                    STQ     PARAMETER+4,,AUTO

      690     8278
      691     8279    2      IONUM = IONUM + NUM_REQUESTS;

   8279  4 000745   200052 235100                    LDA     NUM_REQUESTS,,AUTO
         4 000746   000022 771000                    ARL     18
         4 000747   200206 755100                    STA     N+2,,AUTO
         4 000750   000060 236000 1                  LDQ     IONUM
         4 000751   000022 732000                    QRS     18
         4 000752   200206 036100                    ADLQ    N+2,,AUTO
         4 000753   000000 622006                    EAX2    0,QL
         4 000754   000060 742000 1                  STX2    IONUM

      692     8280    2      IF IONUM>8 THEN REQ_INVALID = 1;

   8280  4 000755   000010 102003                    CMPX2   8,DU
         4 000756   000761 604400 4                  TMOZ    s:8282

   8280  4 000757   400000 236003                    LDQ     -131072,DU
         4 000760   010024 756000 1                  STQ     REQ_INVALID

      693     8281
      694     8282    3      DO I = 0 TO (NUM_REQUESTS-1) BY 1;

   8282  4 000761   000000 223003                    LDX3    0,DU
         4 000762   200046 743100                    STX3    I,,AUTO
         4 000763   000777 710000 4                  TRA     s:8285+3

PL6.E3A0      #001=TOR$FAULTS File=TOR$FAULTS.:E05TSI                            WED 07/30/97 06:32 Page:93
      695     8283    3         IF PARAMETER.WRITE_WD_CNT_BCD(I)>320

   8283  4 000764   200046 220100                    LDX0    I,,AUTO
         4 000765   200053 236110                    LDQ     PARAMETER,X0,AUTO
         4 000766   007777 376007                    ANQ     4095,DL
         4 000767   000501 116007                    CMPQ    321,DL
         4 000770   000774 602000 4                  TNC     s:8285

      696     8284    3         THEN CALL TOR$WRAPUP_PTR ;

   8284  4 000771   000002 631400 xsym               EPPR1   B_VECTNIL+2
         4 000772   000000 701000 xent               TSX1    TOR$WRAPUP_PTR
         4 000773   000000 011000                    NOP     0

      697     8285    3      END;

   8285  4 000774   200046 220100                    LDX0    I,,AUTO
         4 000775   000001 621010                    EAX1    1,X0
         4 000776   200046 741100                    STX1    I,,AUTO
         4 000777   200052 235100                    LDA     NUM_REQUESTS,,AUTO
         4 001000   000022 771000                    ARL     18
         4 001001   200206 755100                    STA     N+2,,AUTO
         4 001002   200046 236100                    LDQ     I,,AUTO
         4 001003   000022 732000                    QRS     18
         4 001004   200206 116100                    CMPQ    N+2,,AUTO
         4 001005   000764 604000 4                  TMI     s:8283

      698     8286
      699     8287    3      IF REQ_INVALID = 1 THEN DO;

   8287  4 001006   010024 236000 1                  LDQ     REQ_INVALID
         4 001007   400000 376003                    ANQ     -131072,DU
         4 001010   000027 676000 xsym               ERQ     B_VECTNIL+23
         4 001011   000001 036007                    ADLQ    1,DL
         4 001012   400000 116003                    CMPQ    -131072,DU
         4 001013   001027 601000 4                  TNZ     ALLOC_IO_BUFFER

PL6.E3A0      #001=TOR$FAULTS File=TOR$FAULTS.:E05TSI                            WED 07/30/97 06:32 Page:94
      700     8288    3              IONUM = IONUM - NUM_REQUESTS;

   8288  4 001014   200206 755100                    STA     N+2,,AUTO
         4 001015   000060 236000 1                  LDQ     IONUM
         4 001016   000022 732000                    QRS     18
         4 001017   200206 136100                    SBLQ    N+2,,AUTO
         4 001020   000000 620006                    EAX0    0,QL
         4 001021   000060 740000 1                  STX0    IONUM

      701     8289    3              RETURN_DELTA = 4 + RETURN_DELTA_COUNT;

   8289  4 001022   200060 221100                    LDX1    RETURN_DELTA_COUNT,,AUTO
         4 001023   000004 622011                    EAX2    4,X1
         4 001024   200042 470500                    LDP0    @RETURN_DELTA,,AUTO
         4 001025   000000 742100                    STX2    0,,PR0

      702     8290    3              GOTO GET_OUT ;

   8290  4 001026   001273 710000 4                  TRA     GET_OUT

      703     8291    3           END;
      704     8292
      705     8293    2   ALLOC_IO_BUFFER:
      706     8294    3      DO I = 0 TO 7 BY 1;

   8294  4 001027   000000 220003       ALLOC_IO_BU* LDX0    0,DU
         4 001030   200046 740100                    STX0    I,,AUTO

      707     8295    4         IF IO_BUFFER.BUF_AVAILIABLE_FLAG(I) = 0 THEN DO;

   8295  4 001031   200046 236100                    LDQ     I,,AUTO
         4 001032   000022 732000                    QRS     18
         4 001033   000770 402007                    MPY     504,DL
         4 001034   000064 236006 1                  LDQ     IO_BUFFER,QL
         4 001035   400000 316003                    CANQ    -131072,DU
         4 001036   001050 601000 4                  TNZ     s:8300

PL6.E3A0      #001=TOR$FAULTS File=TOR$FAULTS.:E05TSI                            WED 07/30/97 06:32 Page:95
      708     8296    4                 IO_BUFFER.BUF_AVAILIABLE_FLAG(I) = 1;

   8296  4 001037   200046 236100                    LDQ     I,,AUTO
         4 001040   000022 732000                    QRS     18
         4 001041   000770 402007                    MPY     504,DL
         4 001042   000000 620006                    EAX0    0,QL
         4 001043   400000 236003                    LDQ     -131072,DU
         4 001044   000064 256010 1                  ORSQ    IO_BUFFER,X0

      709     8297    4                 BUF_NUM = I;

   8297  4 001045   200046 221100                    LDX1    I,,AUTO
         4 001046   200043 741100                    STX1    BUF_NUM,,AUTO

      710     8298    4                 GOTO NEXT_ENTRY;

   8298  4 001047   001055 710000 4                  TRA     NEXT_ENTRY

      711     8299    4              END;
      712     8300    3      END;

   8300  4 001050   200046 220100                    LDX0    I,,AUTO
         4 001051   000001 621010                    EAX1    1,X0
         4 001052   200046 741100                    STX1    I,,AUTO
         4 001053   000007 101003                    CMPX1   7,DU
         4 001054   001031 604400 4                  TMOZ    s:8295

      713     8301
      714     8302    2   NEXT_ENTRY:
      715     8303    2      NUM_REQUESTS = NUM_REQUESTS-1;

   8303  4 001055   200052 220100       NEXT_ENTRY   LDX0    NUM_REQUESTS,,AUTO
         4 001056   777777 622010                    EAX2    -1,X0
         4 001057   200052 742100                    STX2    NUM_REQUESTS,,AUTO

      716     8304    2      CHECK = 0;

PL6.E3A0      #001=TOR$FAULTS File=TOR$FAULTS.:E05TSI                            WED 07/30/97 06:32 Page:96
   8304  4 001060   000000 220003                    LDX0    0,DU
         4 001061   200044 740100                    STX0    CHECK,,AUTO

      717     8305    2      IO_BUFFER.IO_REQ_BITS(BUF_NUM) = PARAMETER.IO_REQ_BITS(NUM_REQUESTS);

   8305  4 001062   200043 236100                    LDQ     BUF_NUM,,AUTO
         4 001063   000022 732000                    QRS     18
         4 001064   000770 402007                    MPY     504,DL
         4 001065   000000 623006                    EAX3    0,QL
         4 001066   200053 236112                    LDQ     PARAMETER,X2,AUTO
         4 001067   000065 676013 1                  ERQ     IO_BUFFER+1,X3
         4 001070   770000 376007                    ANQ     -4096,DL
         4 001071   000065 656013 1                  ERSQ    IO_BUFFER+1,X3

      718     8306    2      IO_BUFFER.WRITE_WD_CNT_BCD(BUF_NUM) = PARAMETER.WRITE_WD_CNT_BCD(NUM_REQUESTS);

   8306  4 001072   200053 236112                    LDQ     PARAMETER,X2,AUTO
         4 001073   000065 676013 1                  ERQ     IO_BUFFER+1,X3
         4 001074   007777 376007                    ANQ     4095,DL
         4 001075   000065 656013 1                  ERSQ    IO_BUFFER+1,X3

      719     8307    2      IO_BUFFER.TDPCN(BUF_NUM) = CONTROL_CODE.TDPCN;

   8307  4 001076   200033 470500                    LDP0    @IO_CONTROL,,AUTO
         4 001077   000000 236100                    LDQ     0,,PR0
         4 001100   000003 772000                    QRL     3
         4 001101   000064 676013 1                  ERQ     IO_BUFFER,X3
         4 001102   000010 376000 5                  ANQ     8
         4 001103   000064 656013 1                  ERSQ    IO_BUFFER,X3

      720     8308    2      IO_BUFFER.PAD_CHAR(BUF_NUM) = CONTROL_CODE.PAD_CHAR;

   8308  4 001104   000000 236100                    LDQ     0,,PR0
         4 001105   000003 772000                    QRL     3
         4 001106   000064 676013 1                  ERQ     IO_BUFFER,X3
         4 001107   077000 376007                    ANQ     32256,DL
         4 001110   000064 656013 1                  ERSQ    IO_BUFFER,X3
PL6.E3A0      #001=TOR$FAULTS File=TOR$FAULTS.:E05TSI                            WED 07/30/97 06:32 Page:97

      721     8309    2      IO_BUFFER.EXEC_NUM(BUF_NUM) = CONTROL_CODE.EXEC_NUM;

   8309  4 001111   000000 236100                    LDQ     0,,PR0
         4 001112   000006 772000                    QRL     6
         4 001113   000064 676013 1                  ERQ     IO_BUFFER,X3
         4 001114   000007 376007                    ANQ     7,DL
         4 001115   000064 656013 1                  ERSQ    IO_BUFFER,X3

      722     8310    2      IO_BUFFER.LID(BUF_NUM) = CONTROL_CODE.LID;

   8310  4 001116   000000 236100                    LDQ     0,,PR0
         4 001117   000003 736000                    QLS     3
         4 001120   000064 676013 1                  ERQ     IO_BUFFER,X3
         4 001121   000770 376007                    ANQ     504,DL
         4 001122   000064 656013 1                  ERSQ    IO_BUFFER,X3

      723     8311    2      IO_BUFFER.IO_ENTRY(BUF_NUM) = '314620'O;

   8311  4 001123   314620 224003                    LDX4    104848,DU
         4 001124   000065 744013 1                  STX4    IO_BUFFER+1,X3

      724     8312
      725     8313    2      DCW_LIST_PTR_FORMAT.DCW_LIST_ADDR = PARAMETER.DCW_LIST_ADDR(NUM_REQUESTS);

   8313  4 001125   200053 225112                    LDX5    PARAMETER,X2,AUTO
         4 001126   010023 745000 1                  STX5    DCW_LIST_PTR_FORMAT

      726     8314
      727     8315    2      K = 0;

   8315  4 001127   200050 740100                    STX0    K,,AUTO

      728     8316    2      M = 0;

   8316  4 001130   200051 740100                    STX0    M,,AUTO

PL6.E3A0      #001=TOR$FAULTS File=TOR$FAULTS.:E05TSI                            WED 07/30/97 06:32 Page:98
      729     8317    2   NEXT_DCW_WD:
      730     8318    2      DCW_WORD = DCW_LIST_ENTRY;

   8318  4 001131   010023 470400 1     NEXT_DCW_WD  LDP0    DCW_LIST_PTR_FORMAT
         4 001132   000000 236100                    LDQ     0,,PR0
         4 001133   200045 756100                    STQ     DCW_WORD,,AUTO

      731     8319    2      CHECK = CHECK + DCW_WORD.WORD_COUNT;

   8319  4 001134   200045 236100                    LDQ     DCW_WORD,,AUTO
         4 001135   007777 376007                    ANQ     4095,DL
         4 001136   200206 756100                    STQ     N+2,,AUTO
         4 001137   200044 236100                    LDQ     CHECK,,AUTO
         4 001140   000022 732000                    QRS     18
         4 001141   200206 036100                    ADLQ    N+2,,AUTO
         4 001142   000000 620006                    EAX0    0,QL
         4 001143   200044 740100                    STX0    CHECK,,AUTO

      732     8320    2      DCW_DATA_PTR_FORMAT.DCW_DATA_ADDR = DCW_WORD.DATA_ADDR;

   8320  4 001144   200045 221100                    LDX1    DCW_WORD,,AUTO
         4 001145   010022 741000 1                  STX1    DCW_DATA_PTR_FORMAT

      733     8321
      734     8322    2      K = M;

   8322  4 001146   200051 222100                    LDX2    M,,AUTO
         4 001147   200050 742100                    STX2    K,,AUTO

      735     8323    3      DO J = K TO (K + DCW_WORD.WORD_COUNT-1) BY 1;

   8323  4 001150   200047 742100                    STX2    J,,AUTO
         4 001151   001164 710000 4                  TRA     s:8327+1

      736     8324    3         WRITE_BUF_BCD_REDEF(J) = DCW_DATA;

   8324  4 001152   010022 470400 1                  LDP0    DCW_DATA_PTR_FORMAT
PL6.E3A0      #001=TOR$FAULTS File=TOR$FAULTS.:E05TSI                            WED 07/30/97 06:32 Page:99
         4 001153   000000 235100                    LDA     0,,PR0
         4 001154   200047 220100                    LDX0    J,,AUTO
         4 001155   010765 755010 1                  STA     WRITE_BUF_BCD,X0

      737     8325    3         M = J + 1;

   8325  4 001156   000001 621010                    EAX1    1,X0
         4 001157   200051 741100                    STX1    M,,AUTO

      738     8326    3         DCW_DATA_PTR = PINCRW(DCW_DATA_PTR,1);

   8326  4 001160   010022 236000 1                  LDQ     DCW_DATA_PTR_FORMAT
         4 001161   000001 036003                    ADLQ    1,DU
         4 001162   010022 756000 1                  STQ     DCW_DATA_PTR_FORMAT

      739     8327    3      END;

   8327  4 001163   200047 741100                    STX1    J,,AUTO
         4 001164   200045 236100                    LDQ     DCW_WORD,,AUTO
         4 001165   007777 376007                    ANQ     4095,DL
         4 001166   200206 756100                    STQ     N+2,,AUTO
         4 001167   200050 236100                    LDQ     K,,AUTO
         4 001170   000022 732000                    QRS     18
         4 001171   200206 036100                    ADLQ    N+2,,AUTO
         4 001172   200207 756100                    STQ     N+3,,AUTO
         4 001173   200047 236100                    LDQ     J,,AUTO
         4 001174   000022 732000                    QRS     18
         4 001175   200207 116100                    CMPQ    N+3,,AUTO
         4 001176   001152 604000 4                  TMI     s:8324

      740     8328
      741     8329    3      DO CASE(DCW_WORD.CODE);

   8329  4 001177   200045 236100                    LDQ     DCW_WORD,,AUTO
         4 001200   000014 772000                    QRL     12
         4 001201   000003 376007                    ANQ     3,DL
         4 001202   000002 116007                    CMPQ    2,DL
PL6.E3A0      #001=TOR$FAULTS File=TOR$FAULTS.:E05TSI                            WED 07/30/97 06:32 Page:100
         4 001203   001205 602006 4                  TNC     s:8329+6,QL
         4 001204   001273 710000 4                  TRA     GET_OUT
         4 001205   001207 710000 4                  TRA     s:8331
         4 001206   001267 710000 4                  TRA     s:8347

      742     8330    3         CASE(0);

      743     8331    3            IF CHECK ~= PARAMETER.WRITE_WD_CNT_BCD(NUM_REQUESTS)

   8331  4 001207   200052 220100                    LDX0    NUM_REQUESTS,,AUTO
         4 001210   200053 236110                    LDQ     PARAMETER,X0,AUTO
         4 001211   007777 376007                    ANQ     4095,DL
         4 001212   200206 756100                    STQ     N+2,,AUTO
         4 001213   200044 236100                    LDQ     CHECK,,AUTO
         4 001214   000022 732000                    QRS     18
         4 001215   200206 116100                    CMPQ    N+2,,AUTO
         4 001216   001223 600000 4                  TZE     s:8334

      744     8332    3            THEN CALL TOR$WRAPUP_PTR ;

   8332  4 001217   000002 631400 xsym               EPPR1   B_VECTNIL+2
         4 001220   000000 701000 xent               TSX1    TOR$WRAPUP_PTR
         4 001221   000000 011000                    NOP     0
         4 001222   001256 710000 4                  TRA     s:8340

      745     8333    4            ELSE DO;

      746     8334    4                    CHAR_COUNT =   IO_BUFFER.WRITE_WD_CNT_BCD(BUF_NUM)    * 6 - 1;

   8334  4 001223   200043 236100                    LDQ     BUF_NUM,,AUTO
         4 001224   000022 732000                    QRS     18
         4 001225   000770 402007                    MPY     504,DL
         4 001226   000065 236006 1                  LDQ     IO_BUFFER+1,QL
         4 001227   007777 376007                    ANQ     4095,DL
         4 001230   000006 402007                    MPY     6,DL
         4 001231   000001 136007                    SBLQ    1,DL
         4 001232   200024 756100                    STQ     CHAR_COUNT,,AUTO
PL6.E3A0      #001=TOR$FAULTS File=TOR$FAULTS.:E05TSI                            WED 07/30/97 06:32 Page:101

      747     8335    4                    CALL TOT$BCD_ASCII (WRITE_BUF_BCD,WRITE_BUF_ASCII,CHAR_COUNT);

   8335  4 001233   200024 630500                    EPPR0   CHAR_COUNT,,AUTO
         4 001234   200210 450500                    STP0    N+4,,AUTO
         4 001235   000012 237000 5                  LDAQ    10
         4 001236   200206 757100                    STAQ    N+2,,AUTO
         4 001237   200206 630500                    EPPR0   N+2,,AUTO
         4 001240   000021 631400 xsym               EPPR1   B_VECTNIL+17
         4 001241   000000 701000 xent               TSX1    TOT$BCD_ASCII
         4 001242   000000 011000                    NOP     0

      748     8336    4                    IO_BUFFER.CHAR_COUNT(BUF_NUM) =    CHAR_COUNT;

   8336  4 001243   200043 236100                    LDQ     BUF_NUM,,AUTO
         4 001244   000022 732000                    QRS     18
         4 001245   000770 402007                    MPY     504,DL
         4 001246   200024 235100                    LDA     CHAR_COUNT,,AUTO
         4 001247   000066 755006 1                  STA     IO_BUFFER+2,QL

      749     8337    4                    IO_BUFFER.WRITE_DATA(BUF_NUM) = WRITE_BUF_ASCII_REDEF;

   8337  4 001250   200043 236100                    LDQ     BUF_NUM,,AUTO
         4 001251   000022 732000                    QRS     18
         4 001252   003740 402007                    MPY     2016,DL
         4 001253   040006 100400                    MLR     fill='040'O
         4 001254   010025 003600 1                  ADSC9   WRITE_BUF_ASCII          cn=0,n=1920
         4 001255   000067 003600 1                  ADSC9   IO_BUFFER+3,Q            cn=0,n=1920

      750     8338    4                 END;

      751     8339
      752     8340    3            IF NUM_REQUESTS ~= 0

   8340  4 001256   200052 220100                    LDX0    NUM_REQUESTS,,AUTO
         4 001257   001027 601000 4                  TNZ     ALLOC_IO_BUFFER

PL6.E3A0      #001=TOR$FAULTS File=TOR$FAULTS.:E05TSI                            WED 07/30/97 06:32 Page:102
      753     8341    3            THEN GOTO ALLOC_IO_BUFFER;
      754     8342    4            ELSE DO;

      755     8343    4                    CALL PROCESS_IO_REQ;

   8343  4 001260   001275 701000 4                  TSX1    PROCESS_IO_REQ
         4 001261   000000 011000                    NOP     0

      756     8344    4                    RETURN_DELTA = 5 + RETURN_DELTA_COUNT;

   8344  4 001262   200060 220100                    LDX0    RETURN_DELTA_COUNT,,AUTO
         4 001263   000005 621010                    EAX1    5,X0
         4 001264   200042 470500                    LDP0    @RETURN_DELTA,,AUTO
         4 001265   000000 741100                    STX1    0,,PR0

      757     8345    4                 END;

   8345  4 001266   001273 710000 4                  TRA     GET_OUT

      758     8346    3         CASE(1);

      759     8347    3            DCW_LIST_PTR = PINCRW(DCW_LIST_PTR,1);

   8347  4 001267   010023 236000 1                  LDQ     DCW_LIST_PTR_FORMAT
         4 001270   000001 036003                    ADLQ    1,DU
         4 001271   010023 756000 1                  STQ     DCW_LIST_PTR_FORMAT

      760     8348    3            GOTO NEXT_DCW_WD;

   8348  4 001272   001131 710000 4                  TRA     NEXT_DCW_WD

      761     8349    3      END;

      762     8350
      763     8351    2   GET_OUT:
      764     8352    2      RETURN;

PL6.E3A0      #001=TOR$FAULTS File=TOR$FAULTS.:E05TSI                            WED 07/30/97 06:32 Page:103
   8352  4 001273   200032 221300       GET_OUT      LDX1  ! @ECC+1,,AUTO
         4 001274   000001 702211                    TSX2  ! 1,X1

      765     8353
      766     8354    2   END TOR$MME_TADIOD;
      767     8355        %EJECT;
PL6.E3A0      #001=TOR$FAULTS File=TOR$FAULTS.:E05TSI                            WED 07/30/97 06:32 Page:104
      768     8356        /*F*      NAME:     PROCESS_IO_REQ
      769     8357                  PURPOSE: CALLED BY TOR$MME_TADIOD TO PROCESS IO REQUESTS
      770     8358                           CURRENTLY IN  IO_BUFFER    STRUCTURE.
      771     8359                           FINDS BUFFER WITH I/O REQUEST WHICH HASN'T BEEN SERVICED
      772     8360                           AND SET IO_REQ_SERVICED_FLAG = 1.
      773     8361                           VERIFIES THAT LID FOR THIS REQUEST IS VALID.  IF NOT
      774     8362                           VALID THEN REQUEST IS NOT PROCESSED.
      775     8363                           CALLS  ERROR_MSG    TO OUTPUT MESSAGE IF E,S,M, OR
      776     8364                           P I/O REQUEST BITS ARE SET.  IF ANY OF THESE BITS
      777     8365                           ARE SET THEN REQUEST IS NOT PROCESSED.
      778     8366                           IF R BIT IS SET THEN SETS  IO_BUFFER.READ_FLAG = 1,
      779     8367                           AND CALLS  SERVICE_W_R_REQ.
      780     8368                           IF C BIT IS SET THEN C BIT IS RESET AND  SERVICE_WRITE
      781     8369                           _REQUEST IS CALLED.
      782     8370                           PROCESS IS REPEATED UNTIL ALL I/O BUFFERS HAVE BEEN
      783     8371                           SERVICED.
      784     8372                           RETURNS BACK TO TOR$MME_TADIOD.
      785     8373        */
      786     8374        %EJECT;
PL6.E3A0      #001=TOR$FAULTS File=TOR$FAULTS.:E05TSI                            WED 07/30/97 06:32 Page:105
      787     8375    1   PROCESS_IO_REQ: PROC;

   8375  4 001275   200062 741300       PROCESS_IO_* STX1  ! RETURN_DELTA_COUNT+2,,AUTO

      788     8376
      789     8377    2      DCL I SBIN HALF STATIC INIT(-1);
      790     8378    2      DCL MSG_CODE SBIN HALF;
      791     8379    2      DCL TEMP_LID UBIN(18);
      792     8380
      793     8381        /* Code */
      794     8382
      795     8383    2      I = -1;                                              /*INITIALIZE THE COUNTER*/

   8383  4 001276   777777 220003                    LDX0    -1,DU
         4 001277   011465 740000 1                  STX0    I

      796     8384
      797     8385    2   START_LOOP:
      798     8386    2      IF I = 7 THEN GOTO GET_OUT ;

   8386  4 001300   011465 220000 1     START_LOOP   LDX0    I
         4 001301   000007 100003                    CMPX0   7,DU
         4 001302   001473 600000 4                  TZE     GET_OUT

      799     8387    2      I = I+1;

   8387  4 001303   000001 621010                    EAX1    1,X0
         4 001304   011465 741000 1                  STX1    I

      800     8388
      801     8389    2      IF  IO_BUFFER.BUF_AVAILIABLE_FLAG(I) = 0

   8389  4 001305   011465 236000 1                  LDQ     I
         4 001306   000022 732000                    QRS     18
         4 001307   000770 402007                    MPY     504,DL
         4 001310   000064 236006 1                  LDQ     IO_BUFFER,QL
         4 001311   400000 316003                    CANQ    -131072,DU
PL6.E3A0      #001=TOR$FAULTS File=TOR$FAULTS.:E05TSI                            WED 07/30/97 06:32 Page:106
         4 001312   001300 600000 4                  TZE     START_LOOP

      802     8390    2      THEN GOTO START_LOOP;
      803     8391
      804     8392    2      IF  IO_BUFFER.IO_REQ_SERVICED_FLAG(I) = 1

   8392  4 001313   011465 236000 1                  LDQ     I
         4 001314   000022 732000                    QRS     18
         4 001315   000770 402007                    MPY     504,DL
         4 001316   000064 236006 1                  LDQ     IO_BUFFER,QL
         4 001317   200000 376003                    ANQ     65536,DU
         4 001320   200000 116003                    CMPQ    65536,DU
         4 001321   001300 600000 4                  TZE     START_LOOP

      805     8393    2      THEN GOTO START_LOOP;
      806     8394
      807     8395    2      IO_BUFFER.IO_REQ_SERVICED_FLAG(I) = 1;

   8395  4 001322   011465 236000 1                  LDQ     I
         4 001323   000022 732000                    QRS     18
         4 001324   000770 402007                    MPY     504,DL
         4 001325   000000 620006                    EAX0    0,QL
         4 001326   200000 236003                    LDQ     65536,DU
         4 001327   000064 256010 1                  ORSQ    IO_BUFFER,X0

      808     8396    2      TEMP_LID = IO_BUFFER.LID(I);

   8396  4 001330   011465 236000 1                  LDQ     I
         4 001331   000022 732000                    QRS     18
         4 001332   000770 402007                    MPY     504,DL
         4 001333   000064 236006 1                  LDQ     IO_BUFFER,QL
         4 001334   000003 772000                    QRL     3
         4 001335   000077 376007                    ANQ     63,DL
         4 001336   000000 620006                    EAX0    0,QL
         4 001337   200064 740100                    STX0    TEMP_LID,,AUTO

      809     8397    2      IF( IO_BUFFER.IO_REQ_BITS.E(I) = 1)|
PL6.E3A0      #001=TOR$FAULTS File=TOR$FAULTS.:E05TSI                            WED 07/30/97 06:32 Page:107

   8397  4 001340   400000 221003                    LDX1    -131072,DU
         4 001341   011465 236000 1                  LDQ     I
         4 001342   000022 732000                    QRS     18
         4 001343   000770 402007                    MPY     504,DL
         4 001344   000065 236006 1                  LDQ     IO_BUFFER+1,QL
         4 001345   400000 376007                    ANQ     -131072,DL
         4 001346   400000 116007                    CMPQ    -131072,DL
         4 001347   001351 600000 4                  TZE     s:8397+9
         4 001350   000000 221003                    LDX1    0,DU
         4 001351   400000 222003                    LDX2    -131072,DU
         4 001352   011465 236000 1                  LDQ     I
         4 001353   000022 732000                    QRS     18
         4 001354   000770 402007                    MPY     504,DL
         4 001355   000065 236006 1                  LDQ     IO_BUFFER+1,QL
         4 001356   100000 376007                    ANQ     32768,DL
         4 001357   100000 116007                    CMPQ    32768,DL
         4 001360   001362 600000 4                  TZE     s:8397+18
         4 001361   000000 222003                    LDX2    0,DU
         4 001362   000000 636012                    EAQ     0,X2
         4 001363   200206 756100                    STQ     N+2,,AUTO
         4 001364   000000 636011                    EAQ     0,X1
         4 001365   200206 276100                    ORQ     N+2,,AUTO
         4 001366   400000 221003                    LDX1    -131072,DU
         4 001367   200207 756100                    STQ     N+3,,AUTO
         4 001370   011465 236000 1                  LDQ     I
         4 001371   000022 732000                    QRS     18
         4 001372   000770 402007                    MPY     504,DL
         4 001373   000065 236006 1                  LDQ     IO_BUFFER+1,QL
         4 001374   040000 376007                    ANQ     16384,DL
         4 001375   040000 116007                    CMPQ    16384,DL
         4 001376   001400 600000 4                  TZE     s:8397+32
         4 001377   000000 221003                    LDX1    0,DU
         4 001400   000000 636011                    EAQ     0,X1
         4 001401   200207 276100                    ORQ     N+3,,AUTO
         4 001402   400000 221003                    LDX1    -131072,DU
         4 001403   200210 756100                    STQ     N+4,,AUTO
PL6.E3A0      #001=TOR$FAULTS File=TOR$FAULTS.:E05TSI                            WED 07/30/97 06:32 Page:108
         4 001404   011465 236000 1                  LDQ     I
         4 001405   000022 732000                    QRS     18
         4 001406   000770 402007                    MPY     504,DL
         4 001407   000065 236006 1                  LDQ     IO_BUFFER+1,QL
         4 001410   010000 376007                    ANQ     4096,DL
         4 001411   010000 116007                    CMPQ    4096,DL
         4 001412   001414 600000 4                  TZE     s:8397+44
         4 001413   000000 221003                    LDX1    0,DU
         4 001414   000000 636011                    EAQ     0,X1
         4 001415   200210 276100                    ORQ     N+4,,AUTO
         4 001416   001422 600000 4                  TZE     s:8403

      810     8398    2              ( IO_BUFFER.IO_REQ_BITS.M(I) = 1)|
      811     8399    2              ( IO_BUFFER.IO_REQ_BITS.S(I) = 1)|
      812     8400    2              ( IO_BUFFER.IO_REQ_BITS.P(I) = 1)
      813     8401    2      THEN CALL TOR$WRAPUP_PTR ;

   8401  4 001417   000002 631400 xsym               EPPR1   B_VECTNIL+2
         4 001420   000000 701000 xent               TSX1    TOR$WRAPUP_PTR
         4 001421   000000 011000                    NOP     0

      814     8402
      815     8403    2      IF IO_BUFFER.IO_REQ_BITS.R(I) = 1

   8403  4 001422   011465 236000 1                  LDQ     I
         4 001423   000022 732000                    QRS     18
         4 001424   000770 402007                    MPY     504,DL
         4 001425   000065 236006 1                  LDQ     IO_BUFFER+1,QL
         4 001426   200000 376007                    ANQ     65536,DL
         4 001427   200000 116007                    CMPQ    65536,DL
         4 001430   001451 601000 4                  TNZ     s:8410

      816     8404    3      THEN DO ;

      817     8405    3              IO_BUFFER.READ_FLAG(I) = 1;

   8405  4 001431   011465 236000 1                  LDQ     I
PL6.E3A0      #001=TOR$FAULTS File=TOR$FAULTS.:E05TSI                            WED 07/30/97 06:32 Page:109
         4 001432   000022 732000                    QRS     18
         4 001433   000770 402007                    MPY     504,DL
         4 001434   000000 620006                    EAX0    0,QL
         4 001435   100000 236003                    LDQ     32768,DU
         4 001436   000064 256010 1                  ORSQ    IO_BUFFER,X0

      818     8406    3              IO_BUFFER.IO_REQ_BITS.R(I) = 0;

   8406  4 001437   011465 236000 1                  LDQ     I
         4 001440   000022 732000                    QRS     18
         4 001441   000770 402007                    MPY     504,DL
         4 001442   000000 620006                    EAX0    0,QL
         4 001443   000011 236000 5                  LDQ     9
         4 001444   000065 356010 1                  ANSQ    IO_BUFFER+1,X0

      819     8407    3              CALL TOR$WRAPUP_PTR ;

   8407  4 001445   000002 631400 xsym               EPPR1   B_VECTNIL+2
         4 001446   000000 701000 xent               TSX1    TOR$WRAPUP_PTR
         4 001447   000000 011000                    NOP     0

      820     8408    3              GOTO START_LOOP;

   8408  4 001450   001300 710000 4                  TRA     START_LOOP

      821     8409    3           END;
      822     8410    2      ELSE IF IO_BUFFER.IO_REQ_BITS.C(I) = 1

   8410  4 001451   011465 236000 1                  LDQ     I
         4 001452   000022 732000                    QRS     18
         4 001453   000770 402007                    MPY     504,DL
         4 001454   000065 236006 1                  LDQ     IO_BUFFER+1,QL
         4 001455   020000 376007                    ANQ     8192,DL
         4 001456   020000 116007                    CMPQ    8192,DL
         4 001457   001473 601000 4                  TNZ     GET_OUT

      823     8411    3         THEN DO ;
PL6.E3A0      #001=TOR$FAULTS File=TOR$FAULTS.:E05TSI                            WED 07/30/97 06:32 Page:110

      824     8412    3                 IO_BUFFER.IO_REQ_BITS.C(I) = 0;

   8412  4 001460   011465 236000 1                  LDQ     I
         4 001461   000022 732000                    QRS     18
         4 001462   000770 402007                    MPY     504,DL
         4 001463   000000 620006                    EAX0    0,QL
         4 001464   000014 236000 5                  LDQ     12
         4 001465   000065 356010 1                  ANSQ    IO_BUFFER+1,X0

      825     8413    3                 CALL SERVICE_WRITE_REQ(I);

   8413  4 001466   000015 236000 5                  LDQ     13
         4 001467   200067 756100                    STQ     TEMP_LID+3,,AUTO
         4 001470   001475 701000 4                  TSX1    SERVICE_WRITE_REQ
         4 001471   000000 011000                    NOP     0

      826     8414    3                 GOTO START_LOOP;

   8414  4 001472   001300 710000 4                  TRA     START_LOOP

      827     8415    3              END;
      828     8416
      829     8417    2   GET_OUT:
      830     8418    2      RETURN;

   8418  4 001473   200062 221300       GET_OUT      LDX1  ! RETURN_DELTA_COUNT+2,,AUTO
         4 001474   000001 702211                    TSX2  ! 1,X1

      831     8419
      832     8420    2   END PROCESS_IO_REQ;
      833     8421        %EJECT;
PL6.E3A0      #001=TOR$FAULTS File=TOR$FAULTS.:E05TSI                            WED 07/30/97 06:32 Page:111
      834     8422        /*F*      NAME:     SERVICE_WRITE_REQ
      835     8423                  PURPOSE: CALLED BY TOR$MME_TADIOD TO SERVICED WRITE REQUEST.
      836     8424                           SETS BOUNDS IN WRITE_BUF_VECTOR.
      837     8425                           SPECIFIES WAIT WRITE OPTION FOR WRITE I/O FPT.
      838     8426                           FRAMES WRITE DATA AREA IN I/O BUFFER WITH PREVIOUSLY
      839     8427                           BUILT VECTOR.
      840     8428                           CALLS TOR$CONSOLE_OUT TO DO OUTPUT.
      841     8429                           RETURNS TO  PROCESS_IO_REQ.
      842     8430        */
      843     8431
      844     8432    1   SERVICE_WRITE_REQ: PROC(BUF_NUM);

   8432  4 001475   200066 741300       SERVICE_WRI* STX1  ! TEMP_LID+2,,AUTO

      845     8433
      846     8434    2      DCL BUF_ADDR PTR;
      847     8435    2      DCL 1 BUF_ADDR_FORMAT REDEF BUF_ADDR,
      848     8436    2            2 BASE UBIN(20) UNAL,
      849     8437    2            2 SEGID UBIN(16) UNAL;
      850     8438    2      DCL BUF_NUM SBIN HALF;
      851     8439
      852     8440        /* Code */
      853     8441
      854     8442    2      BUF_ADDR = ADDR( IO_BUFFER.WRITE_DATA(BUF_NUM));

   8442  4 001476   200067 470500                    LDP0    @BUF_NUM,,AUTO
         4 001477   000000 236100                    LDQ     0,,PR0
         4 001500   000022 732000                    QRS     18
         4 001501   000374 402007                    MPY     252,DL
         4 001502   000023 736000                    QLS     19
         4 001503   000016 036000 5                  ADLQ    14
         4 001504   200070 756100                    STQ     BUF_ADDR,,AUTO

      855     8443    2      WRITE_BUF_VECTOR.BASE = BUF_ADDR_FORMAT.BASE;

   8443  4 001505   200070 236100                    LDQ     BUF_ADDR,,AUTO
         4 001506   000063 676000 1                  ERQ     WRITE_BUF_VECTOR+1
PL6.E3A0      #001=TOR$FAULTS File=TOR$FAULTS.:E05TSI                            WED 07/30/97 06:32 Page:112
         4 001507   000034 376000 xsym               ANQ     B_VECTNIL+28
         4 001510   000063 656000 1                  ERSQ    WRITE_BUF_VECTOR+1

      856     8444    2      WRITE_BUF_VECTOR.BOUNDS =  IO_BUFFER.CHAR_COUNT(BUF_NUM);

   8444  4 001511   000000 236100                    LDQ     0,,PR0
         4 001512   000022 732000                    QRS     18
         4 001513   000374 402007                    MPY     252,DL
         4 001514   000001 736000                    QLS     1
         4 001515   000066 236006 1                  LDQ     IO_BUFFER+2,QL
         4 001516   000020 736000                    QLS     16
         4 001517   000062 676000 1                  ERQ     WRITE_BUF_VECTOR
         4 001520   000034 376000 xsym               ANQ     B_VECTNIL+28
         4 001521   000062 656000 1                  ERSQ    WRITE_BUF_VECTOR

      857     8445    2      CALL BREAK_MESSAGE;

   8445  4 001522   001526 701000 4                  TSX1    BREAK_MESSAGE
         4 001523   000000 011000                    NOP     0

      858     8446    2      RETURN ;

   8446  4 001524   200066 221300                    LDX1  ! TEMP_LID+2,,AUTO
         4 001525   000001 702211                    TSX2  ! 1,X1

      859     8447
      860     8448        /*END SERVICE_WRITE_REQ;*/
      861     8449        %EJECT;
PL6.E3A0      #001=TOR$FAULTS File=TOR$FAULTS.:E05TSI                            WED 07/30/97 06:32 Page:113
      862     8450        /*F* NAME:         BREAK_MESSAGE
      863     8451             DESCRIPTION:
      864     8452        BREAKS LONG MESSAGES INTO MANY SHORT ONES AT EACH CRLF.
      865     8453        */
      866     8454
      867     8455    2   BREAK_MESSAGE:PROC;

   8455  4 001526   200072 741300       BREAK_MESSA* STX1  ! BUF_ADDR+2,,AUTO

      868     8456
      869     8457    3      DCL 1 CRLF_ STATIC,
      870     8458    3            2 CR CHAR(1) UNAL INIT(BITASC('015'O)),
      871     8459    3            2 LF CHAR(1) UNAL INIT(BITASC('012'O));
      872     8460    3      DCL CRLF REDEF CRLF_ CHAR(2);
      873     8461    3      DCL CRLF_INDEX UBIN (36);
      874     8462    3      DCL DONE_FLAG UBIN(36);
      875     8463    3      DCL MESSAGE CHAR(1920) BASED;
      876     8464    3      DCL MESSAGE_SIZE UBIN(36);
      877     8465    3      DCL MSG$ PTR;
      878     8466    3      DCL 1 MSG_PTR REDEF MSG$,
      879     8467    3            2 ADR UBIN(20) UNAL,
      880     8468    3            2 SEGID UBIN(16) UNAL;
      881     8469    3      DCL MSG_START_INDEX UBIN(36);
      882     8470        %EJECT;
PL6.E3A0      #001=TOR$FAULTS File=TOR$FAULTS.:E05TSI                            WED 07/30/97 06:32 Page:114
      883     8471        /* Code */
      884     8472
      885     8473    3      MSG_START_INDEX = 0;

   8473  4 001527   200077 450100                    STZ     MSG_START_INDEX,,AUTO

      886     8474    3      CRLF_INDEX = 0;

   8474  4 001530   200073 450100                    STZ     CRLF_INDEX,,AUTO

      887     8475    3      MESSAGE_SIZE = WRITE_BUF_VECTOR.BOUNDS;

   8475  4 001531   000062 236000 1                  LDQ     WRITE_BUF_VECTOR
         4 001532   000020 772000                    QRL     16
         4 001533   200075 756100                    STQ     MESSAGE_SIZE,,AUTO

      888     8476    3      MSG_PTR.ADR = WRITE_BUF_VECTOR.BASE;

   8476  4 001534   000063 236000 1                  LDQ     WRITE_BUF_VECTOR+1
         4 001535   200076 676100                    ERQ     MSG$,,AUTO
         4 001536   000034 376000 xsym               ANQ     B_VECTNIL+28
         4 001537   200076 656100                    ERSQ    MSG$,,AUTO

      889     8477    3      MSG_PTR.SEGID = %IS_SEGID;

   8477  4 001540   200076 236100                    LDQ     MSG$,,AUTO
         4 001541   000034 376000 xsym               ANQ     B_VECTNIL+28
         4 001542   006000 276007                    ORQ     3072,DL
         4 001543   200076 756100                    STQ     MSG$,,AUTO

      890     8478
      891     8479    3      CALL INDEX(CRLF_INDEX,CRLF,MSG$->MESSAGE,0) ALTRET (LAST_MSG) ;

   8479  4 001544   200076 470500                    LDP0    MSG$,,AUTO
         4 001545   000000 120500                    SCD
         4 001546   000000 003600                    ADSC9   0,,PR0                   cn=0,n=1920
         4 001547   011466 000002 1                  ADSC9   CRLF_                    cn=0,n=2
PL6.E3A0      #001=TOR$FAULTS File=TOR$FAULTS.:E05TSI                            WED 07/30/97 06:32 Page:115
         4 001550   200073 000100                    ARG     CRLF_INDEX,,AUTO
         4 001551   001554 607000 4                  TTF     s:8480
         4 001552   200073 054100                    AOS     CRLF_INDEX,,AUTO
         4 001553   001643 710000 4                  TRA     LAST_MSG

      892     8480    3      IF CRLF_INDEX = 0

   8480  4 001554   200073 235100                    LDA     CRLF_INDEX,,AUTO
         4 001555   001565 600000 4                  TZE     s:8486

      893     8481    3      THEN;
      894     8482    4      ELSE DO;

      895     8483    4              CONSOLE_FPT.BUF_ = VECTOR(SUBSTR(MSG$->MESSAGE,0,CRLF_INDEX));

   8483  4 001556   000020 735000                    ALS     16
         4 001557   000140 135007                    SBLA    96,DL
         4 001560   200076 236100                    LDQ     MSG$,,AUTO
         4 001561   000014 757000 1                  STAQ    CONSOLE_FPT+4

      896     8484    4              CALL TOR$CONSOLE_OUT_PTR ;

   8484  4 001562   000002 631400 xsym               EPPR1   B_VECTNIL+2
         4 001563   000000 701000 xent               TSX1    TOR$CONSOLE_OUT_PTR
         4 001564   000000 011000                    NOP     0

      897     8485    4           END;

      898     8486    3      DONE_FLAG = 0;

   8486  4 001565   200074 450100                    STZ     DONE_FLAG,,AUTO

      899     8487    4      DO WHILE(DONE_FLAG = 0);

   8487  4 001566   200074 235100                    LDA     DONE_FLAG,,AUTO
         4 001567   001641 601000 4                  TNZ     s:8500

PL6.E3A0      #001=TOR$FAULTS File=TOR$FAULTS.:E05TSI                            WED 07/30/97 06:32 Page:116
      900     8488    4         MSG_START_INDEX = CRLF_INDEX;

   8488  4 001570   200073 235100                    LDA     CRLF_INDEX,,AUTO
         4 001571   200077 755100                    STA     MSG_START_INDEX,,AUTO

      901     8489    4         CALL INDEX(CRLF_INDEX,CRLF,MSG$->MESSAGE,CRLF_INDEX+2) ALTRET(LAST_MSG);

   8489  4 001572   774201 620005                    EAX0    -1919,AL
         4 001573   777777 660003                    ERX0    -1,DU
         4 001574   200073 236100                    LDQ     CRLF_INDEX,,AUTO
         4 001575   000002 036007                    ADLQ    2,DL
         4 001576   200076 470500                    LDP0    MSG$,,AUTO
         4 001577   000000 120545                    SCD
         4 001600   000000 400010                    ADSC9   0,A,PR0                  cn=2,n=*X0
         4 001601   011466 000002 1                  ADSC9   CRLF_                    cn=0,n=2
         4 001602   200073 000100                    ARG     CRLF_INDEX,,AUTO
         4 001603   200073 056100                    ASQ     CRLF_INDEX,,AUTO
         4 001604   001607 607000 4                  TTF     s:8490
         4 001605   200073 054100                    AOS     CRLF_INDEX,,AUTO
         4 001606   001643 710000 4                  TRA     LAST_MSG

      902     8490    4         IF CRLF_INDEX >= MESSAGE_SIZE

   8490  4 001607   200073 236100                    LDQ     CRLF_INDEX,,AUTO
         4 001610   200075 116100                    CMPQ    MESSAGE_SIZE,,AUTO
         4 001611   001625 602000 4                  TNC     s:8496

      903     8491    5         THEN DO;

      904     8492    5                 DONE_FLAG = 1;

   8492  4 001612   000001 235007                    LDA     1,DL
         4 001613   200074 755100                    STA     DONE_FLAG,,AUTO

      905     8493    5                 CONSOLE_FPT.BUF_ = VECTOR(SUBSTR(MSG$->MESSAGE,MSG_START_INDEX,
              8493                          MESSAGE_SIZE - MSG_START_INDEX));

PL6.E3A0      #001=TOR$FAULTS File=TOR$FAULTS.:E05TSI                            WED 07/30/97 06:32 Page:117
   8493  4 001614   200075 236100                    LDQ     MESSAGE_SIZE,,AUTO
         4 001615   200077 136100                    SBLQ    MSG_START_INDEX,,AUTO
         4 001616   000064 737000                    LLS     52
         4 001617   000140 135007                    SBLA    96,DL
         4 001620   200077 236100                    LDQ     MSG_START_INDEX,,AUTO
         4 001621   000020 736000                    QLS     16
         4 001622   200076 036100                    ADLQ    MSG$,,AUTO
         4 001623   000014 757000 1                  STAQ    CONSOLE_FPT+4

      906     8494    5              END;

   8494  4 001624   001634 710000 4                  TRA     s:8498

      907     8495    5         ELSE DO;

      908     8496    5                 CONSOLE_FPT.BUF_ = VECTOR(SUBSTR(MSG$->MESSAGE,MSG_START_INDEX,
              8496                          CRLF_INDEX-MSG_START_INDEX));

   8496  4 001625   200077 136100                    SBLQ    MSG_START_INDEX,,AUTO
         4 001626   000064 737000                    LLS     52
         4 001627   000140 135007                    SBLA    96,DL
         4 001630   200077 236100                    LDQ     MSG_START_INDEX,,AUTO
         4 001631   000020 736000                    QLS     16
         4 001632   200076 036100                    ADLQ    MSG$,,AUTO
         4 001633   000014 757000 1                  STAQ    CONSOLE_FPT+4

      909     8497    5              END;

      910     8498    4         CALL TOR$CONSOLE_OUT_PTR ;

   8498  4 001634   000002 631400 xsym               EPPR1   B_VECTNIL+2
         4 001635   000000 701000 xent               TSX1    TOR$CONSOLE_OUT_PTR
         4 001636   000000 011000                    NOP     0

      911     8499    4      END;

   8499  4 001637   200074 235100                    LDA     DONE_FLAG,,AUTO
PL6.E3A0      #001=TOR$FAULTS File=TOR$FAULTS.:E05TSI                            WED 07/30/97 06:32 Page:118
         4 001640   001570 600000 4                  TZE     s:8488

      912     8500    3      RETURN;

   8500  4 001641   200072 221300                    LDX1  ! BUF_ADDR+2,,AUTO
         4 001642   000001 702211                    TSX2  ! 1,X1

      913     8501           %EJECT ;
PL6.E3A0      #001=TOR$FAULTS File=TOR$FAULTS.:E05TSI                            WED 07/30/97 06:32 Page:119
      914     8502    3   LAST_MSG:
      915     8503    3      CONSOLE_FPT.BUF_ = VECTOR(SUBSTR(MSG$->MESSAGE,MSG_START_INDEX,MESSAGE_SIZE-
              8503               MSG_START_INDEX));

   8503  4 001643   200075 236100       LAST_MSG     LDQ     MESSAGE_SIZE,,AUTO
         4 001644   200077 136100                    SBLQ    MSG_START_INDEX,,AUTO
         4 001645   000064 737000                    LLS     52
         4 001646   000140 135007                    SBLA    96,DL
         4 001647   200077 236100                    LDQ     MSG_START_INDEX,,AUTO
         4 001650   000020 736000                    QLS     16
         4 001651   200076 036100                    ADLQ    MSG$,,AUTO
         4 001652   000014 757000 1                  STAQ    CONSOLE_FPT+4

      916     8504    3      CALL TOR$CONSOLE_OUT_PTR ;

   8504  4 001653   000002 631400 xsym               EPPR1   B_VECTNIL+2
         4 001654   000000 701000 xent               TSX1    TOR$CONSOLE_OUT_PTR
         4 001655   000000 011000                    NOP     0

      917     8505    3      RETURN;

   8505  4 001656   200072 221300                    LDX1  ! BUF_ADDR+2,,AUTO
         4 001657   000001 702211                    TSX2  ! 1,X1

      918     8506
      919     8507    3   END BREAK_MESSAGE;
      920     8508    2   END SERVICE_WRITE_REQ;
      921     8509    1   END TOR$FAULTS;

   8509  4 001660   000000 702200 xent               TSX2  ! X66_AARET

TRTN_FPT
 Sect OctLoc
   1     000   000000 177640   000000 006014   000000 177640   000000 006014    ................
   1     004   000001 777640   000006 006000   000000 000000   000000 000000    ................

CONSOLE_FPT
PL6.E3A0      #001=TOR$FAULTS File=TOR$FAULTS.:E05TSI                            WED 07/30/97 06:32 Page:120
 Sect OctLoc
   1     010   000003 777640   000020 006000   000000 177640   000000 006014    ................
   1     014   000000 177640   000000 006014   000000 177640   000000 006014    ................
   1     020   000000 400400   000000 000000   000000 000000   000000 000000    ................

WRITE_IO
 Sect OctLoc
   1     024   000003 777640   000034 006000   000000 177640   000000 006014    ................
   1     030   000000 177640   000000 006014   000000 177640   000000 006014    ................
   1     034   000000 400400   000000 000000   000000 000000   100000 000000    ............@...

READ_IO
 Sect OctLoc
   1     040   000005 777640   000050 006000   000000 177640   000000 006014    .....(..........
   1     044   000000 177640   000000 006014   000000 177640   000000 006014    ................
   1     050   000000 400000   000000 000000   000000 000000   000000 000000    ................
   1     054   000000 000000   000000 000000                                    ........

IONUM
 Sect OctLoc
   1     060   000000 ******                                                    ....

WRITE_BUF_VECTOR
 Sect OctLoc
   1     062   ****** *7764*   ****** *06000                                    ........

IO_BUFFER
 Sect OctLoc
   1     064   00**** ******   ****** ******   ****** ******   ****** ******    ................
   1    7760*  ****** ******   ****** ******   ****** ******   ****** ******    ................

BRK_EXPECTED
 Sect OctLoc
   1    7764   0***** ******                                                    ....

BRK_WAIT_FPT
 Sect OctLoc
PL6.E3A0      #001=TOR$FAULTS File=TOR$FAULTS.:E05TSI                            WED 07/30/97 06:32 Page:121
   1    7766   000001 777640   007772 006000   000000 177640   000000 006014    ................
   1    7772   000000 000012   000000 000001                                    ........

VFC_
 Sect OctLoc
   1    7774   1000** ******                                                    @...

X
 Sect OctLoc
   1    7775   000000 000000                                                    ....

TIME_FPT
 Sect OctLoc
   1   10000   000001 777640   010012 006000   000001 377640   000056 006000    ................
   1   10004   000000 177640   000000 006014   000000 177640   000000 006014    ................
   1   10010   000000 777640   007777 006000   000001 000000   ****** ******    ................

WAIT_FPT
 Sect OctLoc
   1   10014   000001 777640   010020 006000   000000 177640   000000 006014    ................
   1   10020   000000 000000   000000 000001                                    ........

DCW_DATA_PTR_FORMAT
 Sect OctLoc
   1   10022   ****** 006000                                                    ....

DCW_LIST_PTR_FORMAT
 Sect OctLoc
   1   10023   ****** 006000                                                    ....

REQ_INVALID
 Sect OctLoc
   1   10024   0***** ******                                                    ....

WRITE_BUF_ASCII
 Sect OctLoc
   1   10025   ****** ******   ****** ******   ****** ******   ****** ******    ................
PL6.E3A0      #001=TOR$FAULTS File=TOR$FAULTS.:E05TSI                            WED 07/30/97 06:32 Page:122

WRITE_BUF_BCD
 Sect OctLoc
   1   10765   ****** ******   ****** ******   ****** ******   ****** ******    ................

I
 Sect OctLoc
   1   11465   777777 ******                                                    ....

CRLF_
 Sect OctLoc
   1   11466   015012 ******                                                    ....

(unnamed)
 Sect OctLoc
   5     000   000007 777640   000137 777640   777777 777776   000043 777640    ....._.......#..
   5     004   000000 006003   000000 000000   000056 006000   007776 006000    ................
   5     010   077777 700000   777777 577777   010765 006000   010025 006000    ?...............
   5     014   777777 757777   011465 006000   000067 006000                    .........7..

PL6.E3A0      #001=TOR$FAULTS File=TOR$FAULTS.:E05TSI                            WED 07/30/97 06:32 Page:123
--  Include file information  --

   TOT_TOLTS_M.:E05TOU  is referenced.
   F$DCB.:E05TOU  cannot be made into a system file and is referenced.
   CP_6_SUBS.:E05TOU  is referenced.
   CP_6_C.:E05TOU  is referenced.
   CP_6.:E05TOU  cannot be made into a system file and is referenced.
      No diagnostics issued in procedure TOR$FAULTS.
PL6.E3A0      #001=TOR$FAULTS File=TOR$FAULTS.:E05TSI                            WED 07/30/97 06:32 Page:124

 **** Procedure blocks ****

LB#    Line#s    #stmts #vars Sect# OctLoc  P A C   NP Lvl/name
  0    24-  8509    282    79     4      0  y   y    0   1 TOR$FAULTS
  1  7690-  7697      4     2     4     27  y   y    1     2 GET_EXCEPTION_CODE
  2  7717-  7748     28     0     4     44  y   y    0     2 MME_HANDLER
  3  7760-  7774      7     1     4    230  y   y    0     2 GET_MME_DATA
  4  7786-  7791      3     0     4    255  y   y    0     2 FIX_RET_IC
  5  7801-  7810      4     1     4    267  y   y    0     2 RET_MME_DATA
  6  7827-  8007     75    32     4    303  y   y    3     2 TOR$MME_GEROUT
  7  7907-  7941     19     5     4    362  y   y    0      3 WRITE
  8  7947-  8006     36    11     4    461  y   y    0      3 READ
  9  8009-  8019      3     4     4    627  y   y    2     2 TOR$MME_GESNAP
 10  8036-  8085     12    13     4    635  y   y    3     2 TOR$MME_GETIME
 11  8117-  8148      9     7     4    700  y   y    2     2 TOR$MME_GEWAKE
 12  8203-  8354     69    57     4    720  y   y    8     2 TOR$MME_TADIOD
 13  8375-  8420     22     2     4   1275  y   y    0     2 PROCESS_IO_REQ
 14  8432-  8508     36     5     4   1475  y   y    1     2 SERVICE_WRITE_REQ
 15  8455-  8507     30    11     4   1526  y   y    0      3 BREAK_MESSAGE
PL6.E3A0      #001=TOR$FAULTS File=TOR$FAULTS.:E05TSI                            WED 07/30/97 06:32 Page:125

    **** Executable statements  ****

  Exec cost Stmt Sec OctLoc Type   LB Label              Exec cost Stmt Sec OctLoc Type   LB Label

              24   4      0 Proc    0                              7658   4      2 Call    0
         $  7659   4      6 DoCase  0                              7660   4     15 Case    0
            7661   4     15 Call    0                              7662   4     20 Case    0
            7663   4     20 Call    0                              7664   4     23 EndCse  0
$$$$$$$$$$  7665   4     23 MonCal  0                              7690   4     27 Proc    1
       $$$  7693   4     30 Assign  1                          $$  7694   4     35 Assign  1
            7695   4     42 Return  1                              7717   4     44 Proc    2
            7719   4     45 Call    2                              7720   4     47 If      2
$$$$$$$$$$  7721   4     51 DoCase  2                              7722   4    107 Case    2
        $$  7723   4    107 Call    2                              7724   4    116 Case    2
       $$$  7725   4    116 Call    2                              7726   4    127 Case    2
       $$$  7727   4    127 Call    2                              7728   4    140 Case    2
        $$  7729   4    140 Call    2                              7730   4    147 Case    2
            7731   4    147 Call    2                              7732   4    153 Case    2
            7733   4    153 Call    2                              7734   4    156 EndCse  2
        $$  7735   4    157 DoCase  2                              7736   4    170 Case    2
   $$$$$$$  7737   4    170 Call    2                              7739   4    213 Case    2
            7740   4    213 Call    2                              7741   4    217 Case    2
            7742   4    217 Call    2                              7743   4    222 EndCse  2
            7744   4    222 Call    2                              7745   4    224 Call    2
            7746   4    226 Return  2                              7760   4    230 Proc    3
        $$  7764   4    231 Assign  3                              7765   4    235 Assign  3
         $  7767   4    237 Assign  3                           $  7769   4    243 Assign  3
         $  7771   4    247 Assign  3                              7772   4    254 Return  3
            7786   4    255 Proc    4                           $  7788   4    256 Assign  4
            7789   4    266 Return  4                              7801   4    267 Proc    5
            7805   4    270 Assign  5                           $  7807   4    275 Assign  5
            7808   4    301 Return  5                              7827   4    303 Proc    6
            7878   4    304 Assign  6                              7879   4    307 Assign  6
            7881   4    311 Assign  6                              7882   4    314 Assign  6
         $  7883   4    315 If      6                              7884   4    322 Assign  6
            7885   4    325 Assign  6                         $$$  7887   4    326 DoCase  6
            7888   4    341 Case    6                              7889   4    341 Call    6
PL6.E3A0      #001=TOR$FAULTS File=TOR$FAULTS.:E05TSI                            WED 07/30/97 06:32 Page:126
            7890   4    344 Case    6                              7891   4    344 Call    6
            7892   4    346 Call    6                              7893   4    351 Case    6
            7894   4    351 Call    6                              7895   4    354 EndCse  6
            7897   4    354 Assign  6                              7898   4    355 Assign  6
            7899   4    360 Return  6                              7907   4    362 Proc    7
            7920   4    363 Assign  7                              7921   4    366 Assign  7
            7922   4    370 DoIndx  7                           $  7923   4    373 Assign  7
         $  7924   4    400 EndInd  7                              7925   4    406 Assign  7
         $  7926   4    413 Assign  7                  $$$$$$$$$$  7927   4    421 MonCal  7
         $  7928   4    425 Assign  7                              7929   4    430 Return  7
       $$$  7932   4    432 Assign  7 WRITE_ERROR               $  7933   4    441 DoCase  7
            7934   4    450 Case    7                           $  7935   4    450 Assign  7
            7936   4    454 Case    7                              7937   4    454 Call    7
            7938   4    457 EndCse  7                              7939   4    457 Return  7
            7947   4    461 Proc    8                              7964   4    462 Assign  8
            7965   4    465 Assign  8                              7966   4    467 Assign  8
            7967   4    470 If      8                              7968   4    472 Do      8
$$$$$$$$$$  7970   4    472 MonCal  8 WAIT                         7971   4    475 If      8
         $  7972   4    477 Assign  8                              7973   4    503 Do      8
            7974   4    503 Assign  8                              7975   4    506 If      8
         $  7976   4    510 Assign  8                              7980   4    514 Do      8
            7981   4    514 Assign  8                  $$$$$$$$$$  7982   4    521 MonCal  8
       $$$  7983   4    525 Assign  8                              7984   4    533 If      8
         $  7985   4    535 Assign  8                              7986   4    541 Assign  8
            7987   4    544 Assign  8                              7988   4    545 DoWhil  8
         $  7989   4    546 Assign  8                              7990   4    553 Assign  8
       $$$  7991   4    555 EndWhi  8                           $  7992   4    573 Assign  8
            7993   4    576 EndDo   8                              7994   4    576 Return  8
       $$$  7997   4    600 Assign  8 READ_ERROR                $  7998   4    607 DoCase  8
            7999   4    616 Case    8                           $  8000   4    616 Assign  8
            8001   4    622 Case    8                              8002   4    622 Call    8
            8003   4    625 EndCse  8                              8004   4    625 Return  8
            8009   4    627 Proc    9                              8016   4    630 Assign  9
            8017   4    633 Return  9                              8036   4    635 Proc   10
            8069   4    636 Assign 10                              8070   4    640 Assign 10
$$$$$$$$$$  8072   4    642 MonCal 10                              8073   4    645 Assign 10
        $$  8075   4    647 Call   10                              8076   4    657 Assign 10
PL6.E3A0      #001=TOR$FAULTS File=TOR$FAULTS.:E05TSI                            WED 07/30/97 06:32 Page:127
            8078   4    662 Assign 10                  $$$$$$$$$$  8079   4    664 MonCal 10
         $  8080   4    667 Assign 10                              8081   4    673 Assign 10
            8083   4    676 Return 10                              8117   4    700 Proc   11
      $$$$  8138   4    701 Assign 11                              8139   4    705 If     11
            8140   4    707 Assign 11                              8141   4    712 Do     11
            8142   4    712 Assign 11                              8144   4    713 EndDo  11
            8145   4    713 Assign 11                              8146   4    716 Return 11
            8203   4    720 Proc   12                              8269   4    721 Assign 12
            8270   4    722 Assign 12                              8272   4    725 Assign 12
            8273   4    726 Assign 12                              8274   4    731 Assign 12
            8275   4    734 Assign 12                              8276   4    737 Assign 12
            8277   4    742 Assign 12                           $  8279   4    745 Assign 12
            8280   4    755 If     12                              8280   4    757 Assign 12
            8282   4    761 DoIndx 12                              8283   4    764 If     12
            8284   4    771 Call   12                          $$  8285   4    774 EndInd 12
            8287   4   1006 If     12                              8287   4   1014 Do     12
         $  8288   4   1014 Assign 12                           $  8289   4   1022 Assign 12
            8290   4   1026 GoTo   12                              8294   4   1027 DoIndx 12 ALLOC_IO_BUFFER
        $$  8295   4   1031 If     12                              8295   4   1037 Do     12
        $$  8296   4   1037 Assign 12                              8297   4   1045 Assign 12
            8298   4   1047 GoTo   12                              8300   4   1050 EndInd 12
            8303   4   1055 Assign 12 NEXT_ENTRY                   8304   4   1060 Assign 12
       $$$  8305   4   1062 Assign 12                              8306   4   1072 Assign 12
        $$  8307   4   1076 Assign 12                              8308   4   1104 Assign 12
            8309   4   1111 Assign 12                              8310   4   1116 Assign 12
            8311   4   1123 Assign 12                              8313   4   1125 Assign 12
            8315   4   1127 Assign 12                              8316   4   1130 Assign 12
            8318   4   1131 Assign 12 NEXT_DCW_WD               $  8319   4   1134 Assign 12
            8320   4   1144 Assign 12                              8322   4   1146 Assign 12
            8323   4   1150 DoIndx 12                           $  8324   4   1152 Assign 12
            8325   4   1156 Assign 12                              8326   4   1160 Assign 12
       $$$  8327   4   1163 EndInd 12                          $$  8329   4   1177 DoCase 12
            8330   4   1207 Case   12                           $  8331   4   1207 If     12
            8332   4   1217 Call   12                              8333   4   1223 Do     12
      $$$$  8334   4   1223 Assign 12                          $$  8335   4   1233 Call   12
        $$  8336   4   1243 Assign 12                         $$$  8337   4   1250 Assign 12
            8338   4   1256 EndDo  12                              8340   4   1256 If     12
PL6.E3A0      #001=TOR$FAULTS File=TOR$FAULTS.:E05TSI                            WED 07/30/97 06:32 Page:128
            8342   4   1260 Do     12                              8343   4   1260 Call   12
         $  8344   4   1262 Assign 12                              8345   4   1266 EndDo  12
            8346   4   1267 Case   12                              8347   4   1267 Assign 12
            8348   4   1272 GoTo   12                              8349   4   1273 EndCse 12
            8352   4   1273 Return 12 GET_OUT                      8375   4   1275 Proc   13
            8383   4   1276 Assign 13                              8386   4   1300 If     13 START_LOOP
            8387   4   1303 Assign 13                          $$  8389   4   1305 If     13
        $$  8392   4   1313 If     13                          $$  8395   4   1322 Assign 13
       $$$  8396   4   1330 Assign 13                  $$$$$$$$$$  8397   4   1340 If     13
            8401   4   1417 Call   13                          $$  8403   4   1422 If     13
            8404   4   1431 Do     13                          $$  8405   4   1431 Assign 13
        $$  8406   4   1437 Assign 13                              8407   4   1445 Call   13
            8408   4   1450 GoTo   13                          $$  8410   4   1451 If     13
            8411   4   1460 Do     13                          $$  8412   4   1460 Assign 13
            8413   4   1466 Call   13                              8414   4   1472 GoTo   13
            8418   4   1473 Return 13 GET_OUT                      8432   4   1475 Proc   14
      $$$$  8442   4   1476 Assign 14                              8443   4   1505 Assign 14
       $$$  8444   4   1511 Assign 14                              8445   4   1522 Call   14
            8446   4   1524 Return 14                              8455   4   1526 Proc   15
            8473   4   1527 Assign 15                              8474   4   1530 Assign 15
            8475   4   1531 Assign 15                              8476   4   1534 Assign 15
            8477   4   1540 Assign 15                        $$$$  8479   4   1544 IntCal 15
            8480   4   1554 If     15                              8482   4   1556 Do     15
            8483   4   1556 Assign 15                              8484   4   1562 Call   15
            8485   4   1565 EndDo  15                              8486   4   1565 Assign 15
            8487   4   1566 DoWhil 15                              8488   4   1570 Assign 15
    $$$$$$  8489   4   1572 IntCal 15                              8490   4   1607 If     15
            8491   4   1612 Do     15                              8492   4   1612 Assign 15
         $  8493   4   1614 Assign 15                              8494   4   1624 EndDo  15
            8495   4   1625 Do     15                           $  8496   4   1625 Assign 15
            8497   4   1634 EndDo  15                              8498   4   1634 Call   15
            8499   4   1637 EndWhi 15                              8500   4   1641 Return 15
         $  8503   4   1643 Assign 15 LAST_MSG                     8504   4   1653 Call   15
            8505   4   1656 Return 15                              8509   4   1660 EndPrc  0


  **** Statement type totals  ****
PL6.E3A0      #001=TOR$FAULTS File=TOR$FAULTS.:E05TSI                            WED 07/30/97 06:32 Page:129

   114 Assign    33 Call       6 MonCal    21 If        20 Case       5 GoTo
    18 Return     2 IntCal     4 DoIndx     2 DoWhil     7 DoCase    13 Do
     4 EndInd     2 EndWhi     7 EndCse     7 EndDo     16 Proc       1 EndPrc
    10 Labels

 # major stmts=  212 Code/major= 4.45 # stmts=  282 Code/stmt= 3.35  Point total=103.3
 Cost/major stmt=  4.9 Cost/stmt=  3.6 Total cost=   1041.1

   0-4  $$$$$$$$$$$$$$$$$$$$$$$$$$$$$$$$$$$$$$$$$$$$$$$$$$$$$$$$$$$$$$$$$$
   4-6  $$$$$$$$$$$$$
   6-8  $$$$$$$$
  8-10  $$$$$
 10-12  $
 12-14
 14-16
 16-18
 18-20
 20-22
 22-??  $$$
PL6.E3A0      #001=TOR$FAULTS File=TOR$FAULTS.:E05TSI                            WED 07/30/97 06:32 Page:130

 **** Variables and constants ****

  ****  Section 001  Data  TOR$FAULTS

  ****  Scalars and arrays  ****
OctLoc.c.b A Datatyp(siz) R M Lvl/name                 OctLoc.c.b A Datatyp(siz) R M Lvl/name

  7764-0-0/c BIT         r     1 BRK_EXPECTED           11466-0-0/c CHAR(2)     r     1 CRLF
 11466-0-0/c STRC(18)    r     1 CRLF_
    56-0-0/c CHAR        r     1 DATE_BUFFER_ASCII(0:5)
  7776-0-0/b UBIN(6)     r     1 DATE_BUFFER_BCD(0:5)
 10022-0-0/w PTR         r     1 DCW_DATA_PTR           10023-0-0/w PTR         r     1 DCW_LIST_PTR
 11465-0-0/w SBIN(18)    r     1 I                         60-0-0/w SBIN(18)    r     1 IONUM
 10024-0-0/w UBIN        r     1 REQ_INVALID             7777-0-0/w UBIN        r     1 TIME_BUFFER
  7774-0-0/b STRC(9)     r     1 VFC_                    7774-0-0/c CHAR        r     1 VFC_BYTE
 10025-0-0/c CHAR        r     1 WRITE_BUF_ASCII(0:1919)
 10025-0-0/c CHAR(1920)  r     1 WRITE_BUF_ASCII_REDEF
 10765-0-0/b UBIN(6)     r     1 WRITE_BUF_BCD(0:1919)
 10765-0-0/w UBIN        r     1 WRITE_BUF_BCD_REDEF(0:319)
  7775-0-0/w UBIN        r     1 X

  ****  Structures  ****
OctLoc.c.b A Datatyp(siz) R M Lvl/name

  7766-0-0/d STRC(216)   r     1 BRK_WAIT_FPT
  7772-0-0/d STRC(72)    r         2 V

    10-0-0/d STRC(432)   r     1 CONSOLE_FPT
    14-0-0/w STRC(72)    r         2 BUF_
    20-0-0/d STRC(144)   r         2 V

 10022-0-0/b STRC        r     1 DCW_DATA_PTR_FORMAT
 10022-0-0/b UBIN(18)    r         2 DCW_DATA_ADDR

 10023-0-0/b STRC        r     1 DCW_LIST_PTR_FORMAT
 10023-0-0/b UBIN(18)    r         2 DCW_LIST_ADDR

PL6.E3A0      #001=TOR$FAULTS File=TOR$FAULTS.:E05TSI                            WED 07/30/97 06:32 Page:131
    64-0-0/c STRC(18144) r     1 IO_BUFFER(0:7)
    64-0-0/b UBIN        r         2 BUF_AVAILIABLE_FLAG
    64-0-1/b UBIN        r         2 IO_REQ_SERVICED_FLAG
    64-0-2/b UBIN        r         2 READ_FLAG
    64-0-3/b UBIN(18)    r         2 TDPCN
    64-2-3/b UBIN(6)     r         2 PAD_CHAR
    64-3-0/b UBIN(6)     r         2 LID
    64-3-6/b UBIN(3)     r         2 EXEC_NUM
    65-0-0/b BIT (18)    r         2 IO_ENTRY
    65-2-0/b STRC(6)     r         2 IO_REQ_BITS
    65-2-0/b UBIN        r          3 E
    65-2-1/b UBIN        r          3 R
    65-2-2/b UBIN        r          3 M
    65-2-3/b UBIN        r          3 S
    65-2-4/b UBIN        r          3 C
    65-2-5/b UBIN        r          3 P
    65-2-6/b UBIN(12)    r         2 WRITE_WD_CNT_BCD
    66-0-0/b SBIN        r         2 CHAR_COUNT
    67-0-0/c CHAR(1920)  r         2 WRITE_DATA

    40-0-0/d STRC(504)   r     1 READ_IO
    44-0-0/w STRC(72)    r         2 BUF_
    50-0-0/d STRC(216)   r         2 V

 10000-0-0/d STRC(432)   r     1 TIME_FPT
 10012-0-0/d STRC        r         2 V
 10012-0-0/b UBIN(9)     r          3 SOURCE#
 10012-1-0/b UBIN(9)     r          3 DEST#

     0-0-0/d STRC(288)   r     1 TRTN_FPT
     0-0-0/b BIT (72)    r         2 REGS_
     6-0-0/d STRC(72)    r         2 V
     6-0-0/b UBIN(18)    r          3 IC#

 10014-0-0/d STRC(216)   r     1 WAIT_FPT
 10020-0-0/d STRC(72)    r         2 V
 10020-0-0/w UBIN        r          3 UNITS#
PL6.E3A0      #001=TOR$FAULTS File=TOR$FAULTS.:E05TSI                            WED 07/30/97 06:32 Page:132

    62-0-0/d STRC(72)    r     1 WRITE_BUF_VECTOR
    62-0-0/b UBIN(20)    r         2 BOUNDS
    63-0-0/b UBIN(20)    r         2 BASE

    24-0-0/d STRC(432)   r     1 WRITE_IO
    30-0-0/w STRC(72)    r         2 BUF_
    30-0-0/b UBIN(20)    r          3 BOUND
    34-0-0/d STRC(144)   r         2 V


  ****  Auto variables  ****

  ****  Scalars and arrays  ****
OctLoc.c.b A Datatyp(siz) R M Lvl/name                 OctLoc.c.b A Datatyp(siz) R M Lvl/name

    67-0-0/w PTR         r     1 @BUF_NUM                  33-0-0/w PTR         r     1 @DATE_BUFFER
    31-0-0/w PTR         r     1 @ECC                      33-0-0/w PTR         r     1 @GEMAP_PAR
    34-0-0/w PTR         r     1 @GETIME_BUFFER            33-0-0/w PTR         r     1 @GEWAKE_TIME
    33-0-0/w PTR         r     1 @IO_CONTROL               34-0-0/w PTR         r     1 @NUMBER_OF_REQUESTS
    35-0-0/w PTR         r     1 @PARAM_0                  33-0-0/w PTR         r     1 @PARAM_1
    36-0-0/w PTR         r     1 @PARAM_1                  37-0-0/w PTR         r     1 @PARAM_2
    40-0-0/w PTR         r     1 @PARAM_3                  41-0-0/w PTR         r     1 @PARAM_4
    35-0-0/w PTR         r     1 @RETURN_DELTA             34-0-0/w PTR         r     1 @RETURN_DELTA
    35-0-0/w PTR         r     1 @RETURN_DELTA             34-0-0/w PTR         r     1 @RETURN_DELTA
    42-0-0/w PTR         r     1 @RETURN_DELTA             34-0-0/w PTR         r     1 @STATUS_TABLE
    46-0-0/c CHAR        r     1 ASCII_INPUT_BFR(0:143)
    44-0-0/c CHAR        r     1 ASCII_OUTPUT_BFR(0:383)
    43-0-0/w PTR         r     1 BUFFER$                   70-0-0/w PTR         r     1 BUF_ADDR
    43-0-0/w SBIN(18)    r     1 BUF_NUM                   *0-0-0/w SBIN(18)    r     1 BUF_NUM
    24-0-0/w SBIN        r     1 CHAR_COUNT                43-0-0/w UBIN(18)    r     1 CHAR_COUNT
    44-0-0/w SBIN(18)    r     1 CHECK                     73-0-0/w UBIN        r     1 CRLF_INDEX
    *0-0-0/w UBIN        r     1 DATE_BUFFER
    *0-0-0/w UBIN(6)     r     1 DATE_BUF_TEMP(0:5)
    74-0-0/w UBIN        r     1 DONE_FLAG                 25-0-0/w UBIN(18)    r     1 ECC
    *0-0-0/w UBIN(18)    r     1 ECC                       36-0-0/b UBIN(14)    r     1 ERRCODE
    *0-0-0/w UBIN        r     1 GEMAP_PAR                 *0-0-0/w UBIN        r     1 GETIME_BUFFER
PL6.E3A0      #001=TOR$FAULTS File=TOR$FAULTS.:E05TSI                            WED 07/30/97 06:32 Page:133
    *0-0-0/w SBIN        r     1 GEWAKE_TIME               46-0-0/w SBIN(18)    r     1 I
    44-0-0/w UBIN        r     1 INPUT_CC                  *0-0-0/w UBIN        r     1 IO_CONTROL
    47-0-0/w SBIN(18)    r     1 J                         50-0-0/w SBIN(18)    r     1 K
    51-0-0/w SBIN(18)    r     1 M                         75-0-0/w UBIN        r     1 MESSAGE_SIZE
    22-0-0/w PTR         r     1 MME_INSTR$                26-0-0/w BIT (13)    r     1 MME_IR
    76-0-0/w PTR         r     1 MSG$                      77-0-0/w UBIN        r     1 MSG_START_INDEX
   204-0-0/w UBIN        r     1 N                         45-0-0/w UBIN        r     1 N
    *0-0-0/w UBIN        r     1 NUMBER_OF_REQUESTS        52-0-0/w UBIN(18)    r     1 NUM_REQUESTS
    *0-0-0/w UBIN        r     1 PARAM_0                   *0-0-0/w UBIN        r     1 PARAM_1
    *0-0-0/w UBIN        r     1 PARAM_1                   *0-0-0/w UBIN        r     1 PARAM_2
    *0-0-0/w UBIN        r     1 PARAM_3                   *0-0-0/w UBIN        r     1 PARAM_4
    *0-0-0/w BIT         r     1 PARAM_A                   *0-0-0/w BIT         r     1 PARAM_B
    *0-0-0/w BIT         r     1 PARAM_C                   *0-0-0/w BIT         r     1 PARAM_D
    *0-0-0/w BIT         r     1 PARAM_E                   23-0-0/w SBIN(18)    r     1 RETURN_DELTA
    *0-0-0/w SBIN(18)    r     1 RETURN_DELTA              *0-0-0/w SBIN(18)    r     1 RETURN_DELTA
    *0-0-0/w SBIN(18)    r     1 RETURN_DELTA              *0-0-0/w SBIN(18)    r     1 RETURN_DELTA
    *0-0-0/w SBIN(18)    r     1 RETURN_DELTA              60-0-0/w SBIN(18)    r     1 RETURN_DELTA_COUNT
    40-0-0/w PTR         r     1 STATUS$                   *0-0-0/w UBIN        r     1 STATUS_TABLE
    27-0-0/w UBIN        r     1 SUB_CODE                  37-0-0/w PTR         r     1 TABLE$
    64-0-0/w UBIN(18)    r     1 TEMP_LID

  ****  Structures  ****
OctLoc.c.b A Datatyp(siz) R M Lvl/name

    43-0-0/w STRC        r     1 BUFFER_PTR
    43-0-0/b UBIN(18)    r         2 ADR
    43-2-0/b UBIN(18)    r         2 SEGID

    70-0-0/w STRC        r     1 BUF_ADDR_FORMAT
    70-0-0/b UBIN(20)    r         2 BASE

    *0-0-0/w STRC        r     1 CONTROL_CODE
     0-0-0/b UBIN(18)    r         2 TDPCN
     0-2-0/b UBIN(6)     r         2 PAD_CHAR
     0-3-0/b UBIN(3)     r         2 EXEC_NUM
     0-3-3/b UBIN(6)     r         2 LID

PL6.E3A0      #001=TOR$FAULTS File=TOR$FAULTS.:E05TSI                            WED 07/30/97 06:32 Page:134
    45-0-0/b STRC        r     1 DCW_WORD
    45-0-0/b UBIN(18)    r         2 DATA_ADDR
    45-2-4/b UBIN(2)     r         2 CODE
    45-2-6/b UBIN(12)    r         2 WORD_COUNT

    *0-0-0/w STRC        r     1 GEMAP_PAR_TABLE
     0-0-0/b UBIN(18)    r         2 BUFFER_ADD
     0-2-0/b UBIN(6)     r         2 OP_CODE

     3-0-0/w STRC(252)   r     1 MME
     3-0-0/b STRC        r         2 INST
     3-0-0/b SBIN(18)    r          3 NO
     4-0-0/w UBIN        r         2 WD_1
     5-0-0/w UBIN        r         2 WD_2
     6-0-0/w UBIN        r         2 WD_3
     7-0-0/w UBIN        r         2 WD_4
    10-0-0/w UBIN        r         2 WD_5
    11-0-0/w UBIN        r         2 WD_6

    22-0-0/w STRC        r     1 MME_INSTR
    22-0-0/b UBIN(18)    r         2 ADR
    22-2-0/b UBIN(18)    r         2 SEGID

    12-0-0/d STRC(252)   r     1 MREG
    16-0-0/b UBIN        r         2 A
    17-0-0/b UBIN        r         2 Q

    76-0-0/w STRC        r     1 MSG_PTR
    76-0-0/b UBIN(20)    r         2 ADR
    76-2-2/b UBIN(16)    r         2 SEGID

    *0-0-0/w STRC        r     1 NOR
     0-0-0/b UBIN(18)    r         2 NO

    53-0-0/b STRC        r     1 PARAMETER(0:4)
    53-0-0/b UBIN(18)    r         2 DCW_LIST_ADDR
    53-2-0/b STRC(6)     r         2 IO_REQ_BITS
PL6.E3A0      #001=TOR$FAULTS File=TOR$FAULTS.:E05TSI                            WED 07/30/97 06:32 Page:135
    53-2-6/b UBIN(12)    r         2 WRITE_WD_CNT_BCD

    40-0-0/w STRC        r     1 STATUS_PTR
    40-0-0/b UBIN(18)    r         2 ADR
    40-2-0/b UBIN(18)    r         2 SEGID

    *0-0-0/w STRC        r     1 STATUS_TABLE_PTR
     0-0-0/b UBIN(18)    r         2 STATUS_ADD

    37-0-0/w STRC        r     1 TABLE_PTR
    37-0-0/b UBIN(18)    r         2 ADR
    37-2-0/b UBIN(18)    r         2 SEGID


  ****  SYMREF variables  ****

  ****  Scalars and arrays  ****
OctLoc.c.b A Datatyp(siz) R M Lvl/name                 OctLoc.c.b A Datatyp(siz) R M Lvl/name

     0-0-0/w PTR         r     1 B$TCB$                     0-0-0/c BIT         r     1 TOR$BREAK_OCCURRED

  ****  BASED and DCB variables  ****

  ****  Scalars and arrays  ****
OctLoc.c.b A Datatyp(siz) R M Lvl/name                 OctLoc.c.b A Datatyp(siz) R M Lvl/name

     0-0-0/w SBIN        r     1 DCW_DATA                   0-0-0/w BIT         r     1 DCW_LIST_ENTRY
     0-0-0N  NULL        r     1 M$LO                       0-0-0N  NULL        r     1 M$SI
     0-0-0/c CHAR(1920)  r     1 MESSAGE
     0-0-0/w UBIN        r     1 MME_GMAP_DATA(0:6)
     0-0-0/w UBIN        r     1 MME_GMAP_DATA(0:6)

  ****  Structures  ****
OctLoc.c.b A Datatyp(siz) R M Lvl/name

     0-0-0/w STRC(2448)  r     1 B$ALT
   102-0-0/b STRC        r         2 ERR
PL6.E3A0      #001=TOR$FAULTS File=TOR$FAULTS.:E05TSI                            WED 07/30/97 06:32 Page:136
   102-2-1/b UBIN(14)    r          3 CODE

     0-0-0/w STRC(2448)  r     1 B$EXCFR
     0-2-0/b UBIN(18)    r         2 ECC
     4-0-0/b UBIN(18)    r         2 IC
     4-2-0/b BIT (18)    r         2 IR
    50-0-0/w STRC(252)   r         2 REGS
   100-2-0/b UBIN(18)    r         2 SUBC

     0-0-0/w STRC(144)   r     1 B$TCB
     0-0-0/w PTR         r         2 ALT$
     1-0-0/w PTR         r         2 STK$

     0-0-0/d ASTR(3528)  r     1 F$DCB
     0-0-0/w SBIN        r         2 ARS
   140-0-0/d ASTR(9)     r         2 DCBNAME
   140-0-4/b UBIN(5)     r          3 L

     0-0-0/w STRC(1332)  r     1 INPUT_BUFFER
     0-0-0/b UBIN(18)    r         2 CHAR_COUNT
     1-0-0/c CHAR        r         2 READ_DATA(0:143)

     0-0-0/w STRC        r     1 STATUS
     0-3-6/b UBIN        r         2 OP_COMPLETE
     0-3-7/b UBIN        r         2 IO_ERROR
     0-3-8/b UBIN        r         2 BREAK_REC

     0-0-0/w STRC(3528)  r     1 TABLE
     0-2-0/b UBIN(18)    r         2 INPUT_BUF
     1-0-0/b UBIN(18)    r         2 CHAR_CNT
     1-3-8/b UBIN        r         2 BREAK_FLAG
     2-0-0/c CHAR        r         2 WRITE_DATA(0:383)


   Procedure TOR$FAULTS requires 945 words for executable code.
PL6.E3A0      #001=TOR$FAULTS File=TOR$FAULTS.:E05TSI                            WED 07/30/97 06:32 Page:137
   Procedure TOR$FAULTS requires 138 words of local(AUTO) storage.

    No errors detected in file TOR$FAULTS.:E05TSI    .
PL6.E3A0      #001=TOR$FAULTS File=TOR$FAULTS.:E05TSI                            WED 07/30/97 06:32 Page:138
          *** CROSS REFERENCE LISTING ***
**     DENOTES     IDENTIFIER DEFINITION
<<                 IDENTIFIER'S VALUE SET
>>                 IDENTIFIER'S VALUE USED
<>                 IDENTIFIER SET AND/OR USED
--                 IDENTIFIER REFERENCED
PL6.E3A0      #001=TOR$FAULTS File=TOR$FAULTS.:E05TSI                            WED 07/30/97 06:32 Page:139
          FULL XREF LISTING

ALLOC_IO_BUFFER IN PROCEDURE TOR$MME_TADIOD
      8294**LABEL    8341--GOTO
ASCII_INPUT_BFR IN PROCEDURE READ
      7959**DCL      7981--ASSIGN   7989>>ASSIGN
ASCII_OUTPUT_BFR IN PROCEDURE WRITE
      7910**DCL      7921<<ASSIGN   7923<<ASSIGN   7925--ASSIGN
B$ALT
      7372**DCL
B$ALT.BRKCNT
      7373**DCL
B$ALT.CODE
      7372**DCL      7372--REDEF    7373--REDEF    7373--REDEF
B$ALT.DCB#
      7373**DCL
B$ALT.ERR
      7373**DCL
B$ALT.ERR.CODE
      7374**DCL      7932>>ASSIGN   7997>>ASSIGN
B$ALT.ERR.ERR#
      7374**DCL      7374--REDEF
B$ALT.ERR.FCG
      7374**DCL
B$ALT.ERR.MID
      7374**DCL
B$ALT.ERR.MON
      7374**DCL
B$ALT.ERR.SEV
      7374**DCL
B$ALT.EVID
      7373**DCL      7373--REDEF    7373--REDEF
B$ALT.EVSC
      7373**DCL
PL6.E3A0      #001=TOR$FAULTS File=TOR$FAULTS.:E05TSI                            WED 07/30/97 06:32 Page:140
B$ALT.FPT
      7372**DCL
B$ALT.FPT.FCG
      7372**DCL
B$ALT.FPT.PMME
      7372**DCL
B$ALT.P#
      7376**DCL
B$ALT.SSFRAME
      7372**DCL
B$ALT.SUBC
      7373**DCL
B$EXCFR
      7298**DCL
B$EXCFR.ALTEMPTY
      7298**DCL
B$EXCFR.ASL
      7298**DCL      7298--REDEF
B$EXCFR.ASLIC
      7298**DCL
B$EXCFR.ASR
      7304**DCL
B$EXCFR.ASR.BASE
      7305**DCL
B$EXCFR.ASR.BOUND
      7304**DCL
B$EXCFR.ASR.FLAGS
      7304**DCL
B$EXCFR.ASR.FLAGS.BOUND
      7305**DCL
B$EXCFR.ASR.FLAGS.CACHE
      7305**DCL
B$EXCFR.ASR.FLAGS.EXU
      7305**DCL
B$EXCFR.ASR.FLAGS.MON
      7305**DCL
PL6.E3A0      #001=TOR$FAULTS File=TOR$FAULTS.:E05TSI                            WED 07/30/97 06:32 Page:141
B$EXCFR.ASR.FLAGS.PRIV
      7305**DCL
B$EXCFR.ASR.FLAGS.READ
      7304**DCL
B$EXCFR.ASR.FLAGS.SAVE
      7304**DCL
B$EXCFR.ASR.FLAGS.SEGMENT
      7305**DCL
B$EXCFR.ASR.FLAGS.WRITE
      7304**DCL
B$EXCFR.ASR.TYPE
      7305**DCL
B$EXCFR.ASR.WSR
      7305**DCL
B$EXCFR.BRKCNT
      7312**DCL
B$EXCFR.CODE
      7311**DCL
B$EXCFR.CP#
      7301**DCL
B$EXCFR.DCB#
      7311**DCL
B$EXCFR.DRS
      7309**DCL
B$EXCFR.DSAR
      7302**DCL
B$EXCFR.ECC
      7298**DCL      7693>>ASSIGN
B$EXCFR.EIS
      7310**DCL
B$EXCFR.ERR
      7312**DCL
B$EXCFR.ERR.CODE
      7312**DCL
B$EXCFR.ERR.ERR#
      7312**DCL      7312--REDEF
PL6.E3A0      #001=TOR$FAULTS File=TOR$FAULTS.:E05TSI                            WED 07/30/97 06:32 Page:142
B$EXCFR.ERR.FCG
      7312**DCL
B$EXCFR.ERR.MID
      7312**DCL
B$EXCFR.ERR.MON
      7312**DCL
B$EXCFR.ERR.SEV
      7313**DCL
B$EXCFR.EVID
      7311**DCL      7311--REDEF    7312--REDEF
B$EXCFR.EVSC
      7310**DCL
B$EXCFR.EWSQ#
      7302**DCL
B$EXCFR.FCODE
      7301**DCL
B$EXCFR.FI
      7301**DCL
B$EXCFR.FPT
      7311**DCL
B$EXCFR.FPT.FCG
      7311**DCL
B$EXCFR.FPT.PMME
      7311**DCL
B$EXCFR.IC
      7299**DCL      7764>>ASSIGN
B$EXCFR.INST
      7299**DCL
B$EXCFR.INST.EVEN
      7299**DCL
B$EXCFR.INST.ODD
      7299**DCL
B$EXCFR.IR
      7299**DCL      7299--REDEF    7771>>ASSIGN
B$EXCFR.IRBIT
      7299**DCL
PL6.E3A0      #001=TOR$FAULTS File=TOR$FAULTS.:E05TSI                            WED 07/30/97 06:32 Page:143
B$EXCFR.IRBIT.CARRY
      7300**DCL
B$EXCFR.IRBIT.EXOF
      7300**DCL
B$EXCFR.IRBIT.EXUF
      7300**DCL
B$EXCFR.IRBIT.EXUFM
      7301**DCL
B$EXCFR.IRBIT.HEX
      7301**DCL
B$EXCFR.IRBIT.MIR
      7300**DCL
B$EXCFR.IRBIT.MM
      7300**DCL
B$EXCFR.IRBIT.NEG
      7299**DCL
B$EXCFR.IRBIT.OF
      7300**DCL
B$EXCFR.IRBIT.OFM
      7300**DCL
B$EXCFR.IRBIT.PE
      7300**DCL
B$EXCFR.IRBIT.PM
      7300**DCL
B$EXCFR.IRBIT.TR
      7300**DCL
B$EXCFR.IRBIT.TRC
      7300**DCL
B$EXCFR.IRBIT.ZERO
      7299**DCL
B$EXCFR.ISR
      7302**DCL
B$EXCFR.ISR.BASE
      7304**DCL
B$EXCFR.ISR.BOUND
      7302**DCL
PL6.E3A0      #001=TOR$FAULTS File=TOR$FAULTS.:E05TSI                            WED 07/30/97 06:32 Page:144
B$EXCFR.ISR.FLAGS
      7302**DCL
B$EXCFR.ISR.FLAGS.BOUND
      7303**DCL
B$EXCFR.ISR.FLAGS.CACHE
      7303**DCL
B$EXCFR.ISR.FLAGS.EXU
      7303**DCL
B$EXCFR.ISR.FLAGS.MON
      7303**DCL
B$EXCFR.ISR.FLAGS.PRIV
      7303**DCL
B$EXCFR.ISR.FLAGS.READ
      7303**DCL
B$EXCFR.ISR.FLAGS.SAVE
      7303**DCL
B$EXCFR.ISR.FLAGS.SEGMENT
      7303**DCL
B$EXCFR.ISR.FLAGS.WRITE
      7303**DCL
B$EXCFR.ISR.TYPE
      7304**DCL
B$EXCFR.ISR.WSR
      7304**DCL
B$EXCFR.IS_SEGID
      7302**DCL
B$EXCFR.LSR
      7306**DCL
B$EXCFR.LSR.BASE
      7307**DCL
B$EXCFR.LSR.BOUND
      7306**DCL
B$EXCFR.LSR.FLAGS
      7306**DCL
B$EXCFR.LSR.FLAGS.BOUND
      7307**DCL
PL6.E3A0      #001=TOR$FAULTS File=TOR$FAULTS.:E05TSI                            WED 07/30/97 06:32 Page:145
B$EXCFR.LSR.FLAGS.CACHE
      7306**DCL
B$EXCFR.LSR.FLAGS.EXU
      7306**DCL
B$EXCFR.LSR.FLAGS.MON
      7306**DCL
B$EXCFR.LSR.FLAGS.PRIV
      7306**DCL
B$EXCFR.LSR.FLAGS.READ
      7306**DCL
B$EXCFR.LSR.FLAGS.SAVE
      7306**DCL
B$EXCFR.LSR.FLAGS.SEGMENT
      7307**DCL
B$EXCFR.LSR.FLAGS.WRITE
      7306**DCL
B$EXCFR.LSR.TYPE
      7307**DCL
B$EXCFR.LSR.WSR
      7307**DCL
B$EXCFR.P#
      7313**DCL
B$EXCFR.PREVSZ
      7298**DCL      7298--REDEF
B$EXCFR.PRS
      7309**DCL
B$EXCFR.PSR
      7307**DCL
B$EXCFR.PSR.BASE
      7309**DCL
B$EXCFR.PSR.BOUND
      7307**DCL
B$EXCFR.PSR.FLAGS
      7307**DCL
B$EXCFR.PSR.FLAGS.BOUND
      7308**DCL
PL6.E3A0      #001=TOR$FAULTS File=TOR$FAULTS.:E05TSI                            WED 07/30/97 06:32 Page:146
B$EXCFR.PSR.FLAGS.CACHE
      7308**DCL
B$EXCFR.PSR.FLAGS.EXU
      7308**DCL
B$EXCFR.PSR.FLAGS.MON
      7308**DCL
B$EXCFR.PSR.FLAGS.PRIV
      7308**DCL
B$EXCFR.PSR.FLAGS.READ
      7307**DCL
B$EXCFR.PSR.FLAGS.SAVE
      7308**DCL
B$EXCFR.PSR.FLAGS.SEGMENT
      7308**DCL
B$EXCFR.PSR.FLAGS.WRITE
      7308**DCL
B$EXCFR.PSR.TYPE
      7309**DCL
B$EXCFR.PSR.WSR
      7308**DCL
B$EXCFR.REGS
      7309**DCL      7769>>ASSIGN
B$EXCFR.REGS.A
      7309**DCL
B$EXCFR.REGS.E
      7310**DCL
B$EXCFR.REGS.Q
      7309**DCL
B$EXCFR.REGS.XREG
      7309**DCL
B$EXCFR.RVA
      7302**DCL
B$EXCFR.SCR
      7302**DCL
B$EXCFR.SSF
      7301**DCL
PL6.E3A0      #001=TOR$FAULTS File=TOR$FAULTS.:E05TSI                            WED 07/30/97 06:32 Page:147
B$EXCFR.SUBC
      7310**DCL      7310--REDEF    7311--REDEF    7311--REDEF    7694>>ASSIGN
B$EXCFR.U1
      7310**DCL
B$FLT
      7316**DCL
B$FLT.BRANCH_MODE
      7321**DCL
B$FLT.CPU_TYPE
      7321**DCL
B$FLT.CU_HR
      7330**DCL
B$FLT.DU_HR
      7330**DCL
B$FLT.ERR
      7325**DCL
B$FLT.ERR.CODE
      7326**DCL
B$FLT.ERR.ERR#
      7325**DCL      7326--REDEF
B$FLT.ERR.FCG
      7325**DCL
B$FLT.ERR.MID
      7325**DCL
B$FLT.ERR.MON
      7325**DCL
B$FLT.ERR.SEV
      7326**DCL
B$FLT.FLTREG
      7321**DCL
B$FLT.FLTREG.CMD_SLAVE
      7322**DCL
B$FLT.FLTREG.CON_PORT_A
      7323**DCL
B$FLT.FLTREG.CON_PORT_B
      7323**DCL
PL6.E3A0      #001=TOR$FAULTS File=TOR$FAULTS.:E05TSI                            WED 07/30/97 06:32 Page:148
B$FLT.FLTREG.CON_PORT_C
      7323**DCL
B$FLT.FLTREG.CON_PORT_D
      7323**DCL
B$FLT.FLTREG.CSH_DIR_PRTY
      7324**DCL
B$FLT.FLTREG.CSH_IA_STORE
      7325**DCL
B$FLT.FLTREG.CSH_PRTY_BLK_LD
      7325**DCL
B$FLT.FLTREG.CSH_STORE_PRTY
      7324**DCL
B$FLT.FLTREG.IA_PORT_A
      7324**DCL
B$FLT.FLTREG.IA_PORT_B
      7324**DCL
B$FLT.FLTREG.IA_PORT_C
      7324**DCL
B$FLT.FLTREG.IA_PORT_D
      7324**DCL
B$FLT.FLTREG.IPR_ADDR
      7321**DCL
B$FLT.FLTREG.IPR_EIS
      7322**DCL
B$FLT.FLTREG.IPR_OPC
      7321**DCL
B$FLT.FLTREG.IPR_OTHER
      7322**DCL
B$FLT.FLTREG.ONC_PROC_ERR_1
      7323**DCL
B$FLT.FLTREG.ONC_PROC_ERR_2
      7323**DCL
B$FLT.FLTREG.PRTY_LOWER
      7322**DCL
B$FLT.FLTREG.PRTY_UPPER
      7322**DCL
PL6.E3A0      #001=TOR$FAULTS File=TOR$FAULTS.:E05TSI                            WED 07/30/97 06:32 Page:149
B$FLT.FLTREG.STR_BND
      7322**DCL
B$FLT.FLTREG.STR_NEA
      7322**DCL
B$FLT.OU_HR
      7330**DCL
B$FLT.P#
      7330**DCL
B$FLT.PORT#
      7321**DCL
B$FLT.SSFRAME
      7318**DCL
B$FLT.SSFRAME.ECC
      7318**DCL
B$FLT.SSFRAME.FCODE
      7318**DCL
B$FLT.SSFRAME.YES
      7318**DCL
B$FLT.SUBC
      7321**DCL
B$FLT.VU_HR
      7330**DCL
B$TCB
      7368**DCL
B$TCB.ALT$
      7368**DCL      7932>>ASSIGN   7997>>ASSIGN
B$TCB.CURRSZ
      7368**DCL
B$TCB.STK$
      7368**DCL      7693>>ASSIGN   7694>>ASSIGN   7764>>ASSIGN   7769>>ASSIGN   7771>>ASSIGN
B$TCB.TCBAVSZ
      7368**DCL
B$TCB$
      7609**DCL      7693>>ASSIGN   7694>>ASSIGN   7764>>ASSIGN   7769>>ASSIGN   7771>>ASSIGN   7932>>ASSIGN
      7997>>ASSIGN
BREAK_MESSAGE IN PROCEDURE SERVICE_WRITE_REQ
PL6.E3A0      #001=TOR$FAULTS File=TOR$FAULTS.:E05TSI                            WED 07/30/97 06:32 Page:150
      8455**PROC     8445--CALL
BRK_EXPECTED IN PROCEDURE TOR$MME_GEROUT
      7829**DCL      7884<<ASSIGN   7885<<ASSIGN   7897<<ASSIGN   7967>>IF
BRK_WAIT_FPT IN PROCEDURE TOR$MME_GEROUT
      7872**DCL      7970<>CALL
BRK_WAIT_FPT.UETIME_ IN PROCEDURE TOR$MME_GEROUT
      7872**DCL
BRK_WAIT_FPT.V IN PROCEDURE TOR$MME_GEROUT
      7873**DCL      7872--DCLINIT
BRK_WAIT_FPT.V.UNITS# IN PROCEDURE TOR$MME_GEROUT
      7873**DCL
BRK_WAIT_FPT.V.UTYPE# IN PROCEDURE TOR$MME_GEROUT
      7873**DCL
BRK_WAIT_FPT.V_ IN PROCEDURE TOR$MME_GEROUT
      7872**DCL
BUFFER$ IN PROCEDURE READ
      7949**DCL      7950--REDEF    7985>>ASSIGN   7986>>ASSIGN   7989>>ASSIGN
BUFFER_PTR IN PROCEDURE READ
      7950**DCL
BUFFER_PTR.ADR IN PROCEDURE READ
      7951**DCL      7964<<ASSIGN
BUFFER_PTR.SEGID IN PROCEDURE READ
      7952**DCL      7965<<ASSIGN
BUF_ADDR IN PROCEDURE SERVICE_WRITE_REQ
      8434**DCL      8435--REDEF    8442<<ASSIGN
BUF_ADDR_FORMAT IN PROCEDURE SERVICE_WRITE_REQ
      8435**DCL
BUF_ADDR_FORMAT.BASE IN PROCEDURE SERVICE_WRITE_REQ
      8436**DCL      8443>>ASSIGN
BUF_ADDR_FORMAT.SEGID IN PROCEDURE SERVICE_WRITE_REQ
      8437**DCL
BUF_NUM IN PROCEDURE SERVICE_WRITE_REQ
      8438**DCL      8432--PROC     8442>>ASSIGN   8444>>ASSIGN
BUF_NUM IN PROCEDURE TOR$MME_TADIOD
      8205**DCL      8297<<ASSIGN   8305>>ASSIGN   8306>>ASSIGN   8307>>ASSIGN   8308>>ASSIGN   8309>>ASSIGN
      8310>>ASSIGN   8311>>ASSIGN   8334>>ASSIGN   8336>>ASSIGN   8337>>ASSIGN
PL6.E3A0      #001=TOR$FAULTS File=TOR$FAULTS.:E05TSI                            WED 07/30/97 06:32 Page:151
CHAR_COUNT
      7611**DCL      8073<<ASSIGN   8075<>CALL     8334<<ASSIGN   8335<>CALL     8336>>ASSIGN
CHAR_COUNT IN PROCEDURE WRITE
      7909**DCL      7920<<ASSIGN   7922>>DOINDEX  7926>>ASSIGN
CHECK IN PROCEDURE TOR$MME_TADIOD
      8206**DCL      8304<<ASSIGN   8319<<ASSIGN   8319>>ASSIGN   8331>>IF
CONSOLE_FPT
      7462**DCL
CONSOLE_FPT.BUF_
      7462**DCL      8483<<ASSIGN   8493<<ASSIGN   8496<<ASSIGN   8503<<ASSIGN
CONSOLE_FPT.BUF_.BOUND
      7462**DCL
CONSOLE_FPT.BUF_.BUF$
      7464**DCL
CONSOLE_FPT.IDBUF_
      7464**DCL
CONSOLE_FPT.KEY_
      7462**DCL
CONSOLE_FPT.STATION_
      7464**DCL      7464--REDEF
CONSOLE_FPT.V
      7465**DCL      7462--DCLINIT
CONSOLE_FPT.V.DCB#
      7465**DCL
CONSOLE_FPT.V.DVBYTE
      7470**DCL
CONSOLE_FPT.V.DVBYTE.BIN#
      7471**DCL
CONSOLE_FPT.V.DVBYTE.BP#
      7471**DCL
CONSOLE_FPT.V.DVBYTE.CONT#
      7473**DCL
CONSOLE_FPT.V.DVBYTE.NODAT#
      7472**DCL
CONSOLE_FPT.V.DVBYTE.REREAD#
      7471**DCL
PL6.E3A0      #001=TOR$FAULTS File=TOR$FAULTS.:E05TSI                            WED 07/30/97 06:32 Page:152
CONSOLE_FPT.V.DVBYTE.RRR#
      7472**DCL
CONSOLE_FPT.V.DVBYTE.TOP#
      7470**DCL
CONSOLE_FPT.V.DVBYTE.TRANS#
      7472**DCL
CONSOLE_FPT.V.DVBYTE.VFC#
      7471**DCL      7471--REDEF
CONSOLE_FPT.V.EVENT#
      7470**DCL
CONSOLE_FPT.V.FULL#
      7467**DCL
CONSOLE_FPT.V.ID#
      7466**DCL
CONSOLE_FPT.V.IOERROK#
      7469**DCL
CONSOLE_FPT.V.KEYTYPE#
      7469**DCL
CONSOLE_FPT.V.NEWKEY#
      7468**DCL
CONSOLE_FPT.V.NOTIME#
      7468**DCL
CONSOLE_FPT.V.ODFNC#
      7474**DCL
CONSOLE_FPT.V.ONEWKEY#
      7467**DCL
CONSOLE_FPT.V.REWRITE#
      7468**DCL
CONSOLE_FPT.V.SEED#
      7470**DCL
CONSOLE_FPT.V.WAIT#
      7465**DCL
CONSOLE_FPT.V_
      7462**DCL
CONTROL_CODE IN PROCEDURE TOR$MME_TADIOD
      8225**DCL
PL6.E3A0      #001=TOR$FAULTS File=TOR$FAULTS.:E05TSI                            WED 07/30/97 06:32 Page:153
CONTROL_CODE.EXEC_NUM IN PROCEDURE TOR$MME_TADIOD
      8229**DCL      8309>>ASSIGN
CONTROL_CODE.LID IN PROCEDURE TOR$MME_TADIOD
      8230**DCL      8310>>ASSIGN
CONTROL_CODE.PAD_CHAR IN PROCEDURE TOR$MME_TADIOD
      8227**DCL      8308>>ASSIGN
CONTROL_CODE.TDPCN IN PROCEDURE TOR$MME_TADIOD
      8226**DCL      8307>>ASSIGN
CRLF IN PROCEDURE BREAK_MESSAGE
      8460**DCL      8479>>CALLBLT  8489>>CALLBLT
CRLF_ IN PROCEDURE BREAK_MESSAGE
      8457**DCL      8460--REDEF
CRLF_.CR IN PROCEDURE BREAK_MESSAGE
      8458**DCL
CRLF_.LF IN PROCEDURE BREAK_MESSAGE
      8459**DCL
CRLF_INDEX IN PROCEDURE BREAK_MESSAGE
      8461**DCL      8474<<ASSIGN   8479<<CALLBLT  8480>>IF       8483>>ASSIGN   8488>>ASSIGN   8489<<CALLBLT
      8489>>CALLBLT  8490>>IF       8496>>ASSIGN
DATE_BUFFER IN PROCEDURE TOR$MME_GETIME
      8038**DCL      8036--PROC     8039--REDEF
DATE_BUFFER_ASCII
      7615**DCL      8058--DCLINIT  8059--DCLINIT  8075<>CALL
DATE_BUFFER_BCD IN PROCEDURE TOR$MME_GETIME
      8040**DCL      8075<>CALL     8076>>ASSIGN
DATE_BUF_TEMP IN PROCEDURE TOR$MME_GETIME
      8039**DCL      8076<<ASSIGN
DCW_DATA IN PROCEDURE TOR$MME_TADIOD
      8207**DCL      8324>>ASSIGN
DCW_DATA_PTR IN PROCEDURE TOR$MME_TADIOD
      8211**DCL      8207--IMP-PTR  8324>>ASSIGN   8326<<ASSIGN   8326>>ASSIGN
DCW_DATA_PTR_FORMAT IN PROCEDURE TOR$MME_TADIOD
      8208**DCL      8211--REDEF
DCW_DATA_PTR_FORMAT.DCW_DATA_ADDR IN PROCEDURE TOR$MME_TADIOD
      8209**DCL      8320<<ASSIGN
DCW_DATA_PTR_FORMAT.ID IN PROCEDURE TOR$MME_TADIOD
PL6.E3A0      #001=TOR$FAULTS File=TOR$FAULTS.:E05TSI                            WED 07/30/97 06:32 Page:154
      8210**DCL
DCW_LIST_ENTRY IN PROCEDURE TOR$MME_TADIOD
      8212**DCL      8318>>ASSIGN
DCW_LIST_PTR IN PROCEDURE TOR$MME_TADIOD
      8216**DCL      8212--IMP-PTR  8318>>ASSIGN   8347<<ASSIGN   8347>>ASSIGN
DCW_LIST_PTR_FORMAT IN PROCEDURE TOR$MME_TADIOD
      8213**DCL      8216--REDEF
DCW_LIST_PTR_FORMAT.DCW_LIST_ADDR IN PROCEDURE TOR$MME_TADIOD
      8214**DCL      8313<<ASSIGN
DCW_LIST_PTR_FORMAT.ID IN PROCEDURE TOR$MME_TADIOD
      8215**DCL
DCW_WORD IN PROCEDURE TOR$MME_TADIOD
      8217**DCL      8318<<ASSIGN
DCW_WORD.CHAR_POSITION IN PROCEDURE TOR$MME_TADIOD
      8219**DCL
DCW_WORD.CODE IN PROCEDURE TOR$MME_TADIOD
      8221**DCL      8329>>DOCASE
DCW_WORD.DATA_ADDR IN PROCEDURE TOR$MME_TADIOD
      8218**DCL      8320>>ASSIGN
DCW_WORD.WORD_COUNT IN PROCEDURE TOR$MME_TADIOD
      8222**DCL      8319>>ASSIGN   8323>>DOINDEX
DONE_FLAG IN PROCEDURE BREAK_MESSAGE
      8462**DCL      8486<<ASSIGN   8487>>DOWHILE  8492<<ASSIGN
ECC
      7612**DCL      7658<>CALL     7659>>DOCASE
ECC IN PROCEDURE GET_EXCEPTION_CODE
      7692**DCL      7690--PROC     7693<<ASSIGN
ERRCODE IN PROCEDURE TOR$MME_GEROUT
      7840**DCL      7932<<ASSIGN   7933>>DOCASE   7997<<ASSIGN   7998>>DOCASE
F$DCB
      6128**DCL
F$DCB.ACCT
      6138**DCL
F$DCB.ACS
      6145**DCL
F$DCB.ACTPOS
PL6.E3A0      #001=TOR$FAULTS File=TOR$FAULTS.:E05TSI                            WED 07/30/97 06:32 Page:155
      6153**DCL      6153--REDEF
F$DCB.AFTRBLK
      6160**DCL
F$DCB.AGE
      6172**DCL
F$DCB.ALTKEYX
      6151**DCL
F$DCB.AMFLG
      6157**DCL
F$DCB.AMFLG.ACCF
      6157**DCL
F$DCB.AMFLG.ACSF
      6157**DCL
F$DCB.AMFLG.INSF
      6157**DCL
F$DCB.AMFLG.PROF
      6158**DCL
F$DCB.AMFLG.SNLF
      6158**DCL
F$DCB.AMFLG.USRF
      6158**DCL
F$DCB.AMR
      6141**DCL
F$DCB.AMRSETSTA
      6140**DCL
F$DCB.ANSISPANSEQ
      6155**DCL
F$DCB.ARS
      6128**DCL      6128--REDEF    7983>>ASSIGN
F$DCB.ASN
      6143**DCL
F$DCB.ATTR
      6146**DCL      6147--REDEF
F$DCB.ATTR.APL
      6147**DCL
F$DCB.ATTR.BIN
PL6.E3A0      #001=TOR$FAULTS File=TOR$FAULTS.:E05TSI                            WED 07/30/97 06:32 Page:156
      6147**DCL
F$DCB.ATTR.DENS
      6146**DCL
F$DCB.ATTR.GRLGL
      6146**DCL
F$DCB.ATTR.LOWERCASE
      6147**DCL
F$DCB.ATTR.NATL
      6146**DCL
F$DCB.ATTR.NOXLATE
      6146**DCL
F$DCB.ATTR.TRANSLGL
      6146**DCL
F$DCB.ATTR.TRUOVRPRT
      6146**DCL
F$DCB.ATTR.UPPERCASE
      6146**DCL
F$DCB.AU
      6139**DCL
F$DCB.AUTHFFLG
      6153**DCL
F$DCB.AUTHFFLG.AU
      6154**DCL
F$DCB.AUTHFFLG.AURD
      6155**DCL
F$DCB.AUTHFFLG.CREATE
      6154**DCL
F$DCB.AUTHFFLG.DELF
      6154**DCL
F$DCB.AUTHFFLG.DELR
      6154**DCL
F$DCB.AUTHFFLG.EXEC
      6154**DCL
F$DCB.AUTHFFLG.NOLIST
      6154**DCL
F$DCB.AUTHFFLG.READ
PL6.E3A0      #001=TOR$FAULTS File=TOR$FAULTS.:E05TSI                            WED 07/30/97 06:32 Page:157
      6153**DCL
F$DCB.AUTHFFLG.REATTR
      6154**DCL
F$DCB.AUTHFFLG.TCTL
      6155**DCL
F$DCB.AUTHFFLG.UPD
      6154**DCL
F$DCB.AUTHFFLG.WNEW
      6154**DCL
F$DCB.BADARS
      6156**DCL
F$DCB.BFR
      6172**DCL
F$DCB.BFR.BUFUP
      6172**DCL
F$DCB.BFR.BUFX
      6173**DCL
F$DCB.BFR.CHNG
      6172**DCL
F$DCB.BFR.CVM
      6173**DCL
F$DCB.BFR.DA
      6173**DCL
F$DCB.BFR.SCRUB
      6172**DCL
F$DCB.BFR1
      6173**DCL
F$DCB.BFR1.CX
      6174**DCL
F$DCB.BFR1.FLAGS
      6173**DCL
F$DCB.BFR1.FLAGS.ONE_WORD_HEADER
      6173**DCL
F$DCB.BFR1.SIZ
      6173**DCL
F$DCB.BLKL
PL6.E3A0      #001=TOR$FAULTS File=TOR$FAULTS.:E05TSI                            WED 07/30/97 06:32 Page:158
      6143**DCL
F$DCB.BLKLEN
      6166**DCL
F$DCB.BLOCKED
      6142**DCL
F$DCB.BOL
      6144**DCL
F$DCB.BORROW
      6161**DCL      6161--REDEF    6161--REDEF    6161--REDEF
F$DCB.BUPF
      6131**DCL
F$DCB.BUPM
      6142**DCL
F$DCB.BYTESLEFT
      6164**DCL
F$DCB.CACHE
      6160**DCL
F$DCB.CBUFNUM
      6164**DCL
F$DCB.CFU$
      6162**DCL
F$DCB.CHAIN
      6148**DCL
F$DCB.CHANTIME
      6148**DCL
F$DCB.CNVRT
      6140**DCL
F$DCB.CODE16$
      6152**DCL
F$DCB.COMP
      6141**DCL
F$DCB.CONNCT
      6147**DCL
F$DCB.CONT
      6160**DCL
F$DCB.CRECNO
PL6.E3A0      #001=TOR$FAULTS File=TOR$FAULTS.:E05TSI                            WED 07/30/97 06:32 Page:159
      6165**DCL
F$DCB.CRECX
      6164**DCL
F$DCB.CSEED
      6165**DCL
F$DCB.CTG
      6141**DCL
F$DCB.CTLCMDIN
      6169**DCL
F$DCB.CVOL
      6142**DCL
F$DCB.CWORD
      6170**DCL
F$DCB.CX
      6170**DCL
F$DCB.DBGDCBNO
      6143**DCL
F$DCB.DBGSYSID
      6143**DCL
F$DCB.DCB#
      6155**DCL
F$DCB.DCBNAME
      6174**DCL
F$DCB.DCBNAME.L
      6175**DCL      6175--IMP-SIZ
F$DCB.DCBNAME.N
      6175**DCL
F$DCB.DCBNAME.S
      6174**DCL
F$DCB.DCBNAME.X
      6174**DCL
F$DCB.DCT$
      6150**DCL
F$DCB.DDEV
      6134**DCL
F$DCB.DDEV.CP
PL6.E3A0      #001=TOR$FAULTS File=TOR$FAULTS.:E05TSI                            WED 07/30/97 06:32 Page:160
      6134**DCL
F$DCB.DDEV.GR
      6134**DCL
F$DCB.DDEV.IC
      6134**DCL
F$DCB.DDEV.LP
      6134**DCL
F$DCB.DDEV.UCOUT
      6134**DCL
F$DCB.DDEV.XEQ
      6134**DCL
F$DCB.DECRYPT
      6168**DCL
F$DCB.DENSITY
      6148**DCL
F$DCB.DESC
      6135**DCL
F$DCB.DESC.ACTIVE
      6136**DCL
F$DCB.DESC.ARCHIVE
      6136**DCL
F$DCB.DESC.BAD
      6136**DCL
F$DCB.DESC.BUF
      6135**DCL
F$DCB.DESC.BUPM
      6136**DCL
F$DCB.DESC.DELF
      6135**DCL
F$DCB.DESC.FETCH
      6136**DCL
F$DCB.DESC.NBUF
      6136**DCL
F$DCB.DESC.NOLIST
      6135**DCL
F$DCB.DESC.ODSTOW
PL6.E3A0      #001=TOR$FAULTS File=TOR$FAULTS.:E05TSI                            WED 07/30/97 06:32 Page:161
      6135**DCL
F$DCB.DESC.QS
      6136**DCL
F$DCB.DESC.TERMINATE
      6136**DCL
F$DCB.DESC.TPB
      6136**DCL
F$DCB.DEVADR
      6150**DCL
F$DCB.DEVADR.CHAN
      6151**DCL
F$DCB.DEVADR.DVN
      6150**DCL
F$DCB.DEVADR.IOM
      6151**DCL
F$DCB.DISP
      6143**DCL
F$DCB.DQH$
      6149**DCL
F$DCB.DVBYTE
      6131**DCL
F$DCB.DVBYTE.BIN
      6131**DCL
F$DCB.DVBYTE.TOP
      6131**DCL
F$DCB.DVBYTE.TRANS
      6131**DCL
F$DCB.DVBYTE.VFC
      6131**DCL
F$DCB.DVFC
      6149**DCL
F$DCB.DVTYPE
      6142**DCL
F$DCB.EBCDIC
      6140**DCL
F$DCB.ENQF
PL6.E3A0      #001=TOR$FAULTS File=TOR$FAULTS.:E05TSI                            WED 07/30/97 06:32 Page:162
      6160**DCL
F$DCB.EOMCHAR
      6132**DCL      6132--REDEF
F$DCB.EOMVAL
      6132**DCL
F$DCB.EOMVAL.VALUE
      6132**DCL
F$DCB.EOMVAL.VFLG
      6132**DCL
F$DCB.EOP
      6157**DCL
F$DCB.EVENT
      6152**DCL
F$DCB.EXIST
      6141**DCL
F$DCB.EXPIRE
      6144**DCL
F$DCB.FCD
      6141**DCL
F$DCB.FCI
      6141**DCL
F$DCB.FCN
      6165**DCL
F$DCB.FCN.CNT
      6165**DCL
F$DCB.FCN.F
      6165**DCL
F$DCB.FDCM
      6165**DCL
F$DCB.FEPIO
      6171**DCL
F$DCB.FEPIO.BPP
      6172**DCL
F$DCB.FEPIO.BUFX
      6172**DCL
F$DCB.FEPIO.EVENT
PL6.E3A0      #001=TOR$FAULTS File=TOR$FAULTS.:E05TSI                            WED 07/30/97 06:32 Page:163
      6171**DCL
F$DCB.FEPIO.KEYX
      6171**DCL
F$DCB.FEPIO.KPP
      6172**DCL
F$DCB.FEPIO2
      6174**DCL
F$DCB.FEPIO3
      6174**DCL
F$DCB.FEPSIZ
      6170**DCL
F$DCB.FEPSIZ.BUF
      6171**DCL
F$DCB.FEPSIZ.KEY
      6171**DCL
F$DCB.FEXT
      6156**DCL
F$DCB.FEXTX
      6144**DCL
F$DCB.FFLG
      6132**DCL
F$DCB.FFLG.AU
      6134**DCL
F$DCB.FFLG.AURD
      6134**DCL
F$DCB.FFLG.CREATE
      6133**DCL
F$DCB.FFLG.DELF
      6133**DCL
F$DCB.FFLG.DELR
      6133**DCL
F$DCB.FFLG.EXEC
      6133**DCL
F$DCB.FFLG.NOLIST
      6133**DCL
F$DCB.FFLG.READ
PL6.E3A0      #001=TOR$FAULTS File=TOR$FAULTS.:E05TSI                            WED 07/30/97 06:32 Page:164
      6133**DCL
F$DCB.FFLG.REATTR
      6133**DCL
F$DCB.FFLG.TCTL
      6134**DCL
F$DCB.FFLG.UPD
      6133**DCL
F$DCB.FFLG.WNEW
      6133**DCL
F$DCB.FIELDX
      6152**DCL
F$DCB.FLDID
      6156**DCL      6156--REDEF
F$DCB.FLPW
      6128**DCL
F$DCB.FMOD
      6157**DCL
F$DCB.FORM$
      6150**DCL      6150--REDEF
F$DCB.FPRGX
      6152**DCL
F$DCB.FPSTR
      6166**DCL
F$DCB.FSECT
      6166**DCL      6166--REDEF
F$DCB.FSN
      6143**DCL      6143--REDEF    6143--REDEF    6144--REDEF
F$DCB.FTAM
      6161**DCL
F$DCB.FTAM.CTX
      6161**DCL
F$DCB.FTAM.PMME
      6162**DCL
F$DCB.FTAM.USR
      6161**DCL
F$DCB.FUN
PL6.E3A0      #001=TOR$FAULTS File=TOR$FAULTS.:E05TSI                            WED 07/30/97 06:32 Page:165
      6142**DCL
F$DCB.GDISP
      6167**DCL
F$DCB.GHSTACS
      6151**DCL
F$DCB.GRPOS
      6160**DCL
F$DCB.GTYP
      6157**DCL
F$DCB.HASH
      6165**DCL
F$DCB.HEADER$
      6149**DCL      6149--REDEF
F$DCB.IASN
      6169**DCL
F$DCB.ID
      6171**DCL
F$DCB.ID.DA
      6171**DCL
F$DCB.ID.GX
      6171**DCL
F$DCB.IFMT
      6168**DCL
F$DCB.IGNOREFSN
      6139**DCL
F$DCB.INDX
      6166**DCL
F$DCB.IOERROK
      6140**DCL
F$DCB.IORG
      6164**DCL
F$DCB.IRRECX
      6156**DCL
F$DCB.IWL
      6169**DCL
F$DCB.IWL.HDRIWL
PL6.E3A0      #001=TOR$FAULTS File=TOR$FAULTS.:E05TSI                            WED 07/30/97 06:32 Page:166
      6169**DCL
F$DCB.IWL.SEQIWL
      6169**DCL
F$DCB.IWL.TABIWL
      6169**DCL
F$DCB.IXTNSIZE
      6147**DCL      6147--REDEF
F$DCB.JRNLBYPASS
      6151**DCL
F$DCB.KEYL
      6145**DCL
F$DCB.KEYTYPE
      6152**DCL
F$DCB.KEYX
      6144**DCL
F$DCB.KFIELDX
      6153**DCL
F$DCB.LASTKEY
      6161**DCL
F$DCB.LASTKEY$
      6161**DCL
F$DCB.LASTSTA$
      6137**DCL      6137--REDEF
F$DCB.LDCTX
      6150**DCL
F$DCB.LDFLG
      6159**DCL
F$DCB.LINES
      6149**DCL
F$DCB.LOAD
      6139**DCL
F$DCB.LOGSEC
      6167**DCL
F$DCB.LPOOL
      6162**DCL
F$DCB.LRDL0
PL6.E3A0      #001=TOR$FAULTS File=TOR$FAULTS.:E05TSI                            WED 07/30/97 06:32 Page:167
      6145**DCL
F$DCB.LSLIDE
      6145**DCL
F$DCB.LSTAOR
      6140**DCL
F$DCB.LSTBLK
      6160**DCL
F$DCB.LVL
      6162**DCL      6162--REDEF
F$DCB.MAXVOL
      6148**DCL
F$DCB.MEDIA
      6168**DCL
F$DCB.MODCNT
      6167**DCL
F$DCB.MOUNT
      6158**DCL
F$DCB.MOVED
      6170**DCL
F$DCB.MPC$
      6150**DCL
F$DCB.MUST_CVOL
      6158**DCL
F$DCB.NAME
      6137**DCL
F$DCB.NAME.C
      6137**DCL      6137--REDEF
F$DCB.NAME.C17
      6137**DCL
F$DCB.NAME.C17.CC
      6138**DCL
F$DCB.NAME.L
      6137**DCL
F$DCB.NEW_FSECT
      6158**DCL
F$DCB.NOEOF
PL6.E3A0      #001=TOR$FAULTS File=TOR$FAULTS.:E05TSI                            WED 07/30/97 06:32 Page:168
      6158**DCL      6158--REDEF
F$DCB.NRECS
      6148**DCL      6148--REDEF
F$DCB.NRECX
      6167**DCL      6167--REDEF
F$DCB.OHDR
      6159**DCL      6159--REDEF
F$DCB.OLDIOERR
      6168**DCL
F$DCB.ORG
      6142**DCL      6142--REDEF
F$DCB.OWNER
      6159**DCL
F$DCB.PASS
      6138**DCL
F$DCB.PASSF
      6140**DCL
F$DCB.PATH
      6155**DCL
F$DCB.PATH.CHAN
      6155**DCL
F$DCB.PATH.IOM
      6155**DCL
F$DCB.PGINGRAN
      6168**DCL
F$DCB.PRECNO
      6165**DCL      6165--REDEF
F$DCB.PRIVOPN
      6167**DCL
F$DCB.PSN
      6138**DCL
F$DCB.QISS
      6139**DCL
F$DCB.RA
      6159**DCL
F$DCB.RCSZ
PL6.E3A0      #001=TOR$FAULTS File=TOR$FAULTS.:E05TSI                            WED 07/30/97 06:32 Page:169
      6170**DCL      6170--REDEF
F$DCB.RDL0
      6132**DCL
F$DCB.REALSPAN
      6168**DCL
F$DCB.RECL
      6143**DCL
F$DCB.RES
      6138**DCL      6138--REDEF
F$DCB.RESNT
      6138**DCL
F$DCB.RESNT.NUM
      6139**DCL
F$DCB.RESNT.TYP
      6138**DCL
F$DCB.RETRYCNT
      6135**DCL
F$DCB.RPOS
      6159**DCL
F$DCB.SEED
      6156**DCL
F$DCB.SEGX
      6167**DCL
F$DCB.SEQ
      6149**DCL
F$DCB.SEQCOL
      6149**DCL
F$DCB.SEQID
      6149**DCL
F$DCB.SETSTA$
      6137**DCL
F$DCB.SETX
      6150**DCL      6150--REDEF
F$DCB.SEZ_OK
      6158**DCL
F$DCB.SHARE
PL6.E3A0      #001=TOR$FAULTS File=TOR$FAULTS.:E05TSI                            WED 07/30/97 06:32 Page:170
      6141**DCL
F$DCB.SHARED
      6157**DCL
F$DCB.SLIDE
      6132**DCL
F$DCB.SPAN
      6159**DCL
F$DCB.SPANNED
      6142**DCL
F$DCB.SPARE
      6145**DCL
F$DCB.STARF
      6157**DCL
F$DCB.STARTX
      6153**DCL
F$DCB.STARX
      6159**DCL
F$DCB.STR
      6166**DCL
F$DCB.SYSID
      6144**DCL
F$DCB.TAB$
      6149**DCL      6150--REDEF
F$DCB.TAPTYP
      6163**DCL
F$DCB.TAPTYP.CP6F
      6163**DCL
F$DCB.TAPTYP.HAVLASTKEY
      6163**DCL
F$DCB.TAPTYP.MANAGED
      6163**DCL
F$DCB.TAPTYP.NOCVOL
      6163**DCL
F$DCB.TAPTYP.PASTFM
      6163**DCL
F$DCB.TAPTYP.RWASC
PL6.E3A0      #001=TOR$FAULTS File=TOR$FAULTS.:E05TSI                            WED 07/30/97 06:32 Page:171
      6163**DCL
F$DCB.TAPTYP.USRBUF
      6163**DCL
F$DCB.TDA
      6164**DCL      6164--REDEF
F$DCB.TDALVL
      6162**DCL
F$DCB.TDEXTST$
      6137**DCL
F$DCB.TDFLG
      6147**DCL
F$DCB.TDFLG.SDSK
      6147**DCL
F$DCB.TDSTAT
      6139**DCL
F$DCB.TRNC
      6160**DCL
F$DCB.TYC
      6128**DCL
F$DCB.TYC.BLNKTP
      6128**DCL
F$DCB.TYC.BOF
      6128**DCL
F$DCB.TYC.BOT
      6128**DCL
F$DCB.TYC.CDALRT
      6130**DCL
F$DCB.TYC.CGCRCW
      6130**DCL
F$DCB.TYC.CGCWRV
      6131**DCL
F$DCB.TYC.CGFULL
      6130**DCL
F$DCB.TYC.CGKEYV
      6130**DCL
F$DCB.TYC.CGLWRV
PL6.E3A0      #001=TOR$FAULTS File=TOR$FAULTS.:E05TSI                            WED 07/30/97 06:32 Page:172
      6130**DCL
F$DCB.TYC.DACT
      6129**DCL
F$DCB.TYC.DI
      6129**DCL
F$DCB.TYC.EGV
      6128**DCL
F$DCB.TYC.EOD
      6129**DCL
F$DCB.TYC.EOF
      6129**DCL
F$DCB.TYC.EOT
      6128**DCL
F$DCB.TYC.FRAW
      6130**DCL
F$DCB.TYC.IOERR
      6129**DCL
F$DCB.TYC.LAST
      6130**DCL
F$DCB.TYC.LD
      6129**DCL
F$DCB.TYC.LDISC
      6129**DCL
F$DCB.TYC.MTRAP
      6129**DCL
F$DCB.TYC.OPER
      6128**DCL
F$DCB.TYC.PROT
      6130**DCL
F$DCB.TYC.TIMO
      6129**DCL
F$DCB.TYC.XTRARD
      6130**DCL
F$DCB.TYPE
      6138**DCL
F$DCB.UB$
PL6.E3A0      #001=TOR$FAULTS File=TOR$FAULTS.:E05TSI                            WED 07/30/97 06:32 Page:173
      6166**DCL
F$DCB.UBYTES
      6166**DCL
F$DCB.UCOUT
      6163**DCL
F$DCB.UNIQUEBLD
      6169**DCL
F$DCB.UOPT
      6140**DCL
F$DCB.UPDCNT
      6169**DCL
F$DCB.VFCCHAR
      6152**DCL
F$DCB.VOL
      6148**DCL
F$DCB.VOLACCESS
      6140**DCL
F$DCB.WAIT
      6160**DCL
F$DCB.WCDATA
      6162**DCL
F$DCB.WIDTH
      6135**DCL
F$DCB.WRCMP
      6162**DCL
F$DCB.WSN
      6139**DCL      6139--REDEF
F$DCB.WSR
      6145**DCL
F$DCB.XTEND
      6141**DCL
F$DCB.XTNSIZE
      6145**DCL
FIX_RET_IC
      7786**PROC     7745--CALL
GEMAP_PAR IN PROCEDURE TOR$MME_GEROUT
PL6.E3A0      #001=TOR$FAULTS File=TOR$FAULTS.:E05TSI                            WED 07/30/97 06:32 Page:174
      7830**DCL      7827--PROC     7831--REDEF
GEMAP_PAR_TABLE IN PROCEDURE TOR$MME_GEROUT
      7831**DCL
GEMAP_PAR_TABLE.BUFFER_ADD IN PROCEDURE TOR$MME_GEROUT
      7832**DCL      7878>>ASSIGN
GEMAP_PAR_TABLE.OP_CODE IN PROCEDURE TOR$MME_GEROUT
      7833**DCL      7887>>DOCASE
GETIME_BUFFER IN PROCEDURE TOR$MME_GETIME
      8041**DCL      8036--PROC     8080<<ASSIGN
GET_EXCEPTION_CODE
      7690**PROC     7658--CALL
GET_MME_DATA
      7760**PROC     7719--CALL
GET_OUT IN PROCEDURE PROCESS_IO_REQ
      8418**LABEL    8386--GOTO
GET_OUT IN PROCEDURE TOR$MME_TADIOD
      8352**LABEL    8290--GOTO
GEWAKE_TIME IN PROCEDURE TOR$MME_GEWAKE
      8119**DCL      8117--PROC     8138<<ASSIGN   8138>>ASSIGN   8139>>IF       8142>>ASSIGN
I IN PROCEDURE PROCESS_IO_REQ
      8377**DCL      8383<<ASSIGN   8386>>IF       8387<<ASSIGN   8387>>ASSIGN   8389>>IF       8392>>IF
      8395>>ASSIGN   8396>>ASSIGN   8397>>IF       8397>>IF       8397>>IF       8397>>IF       8403>>IF
      8405>>ASSIGN   8406>>ASSIGN   8410>>IF       8412>>ASSIGN   8413<>CALL
I IN PROCEDURE TOR$MME_TADIOD
      8223**DCL      8282<<DOINDEX  8283>>IF       8294<<DOINDEX  8295>>IF       8296>>ASSIGN   8297>>ASSIGN
INPUT_BUFFER IN PROCEDURE READ
      7953**DCL
INPUT_BUFFER.CHAR_COUNT IN PROCEDURE READ
      7954**DCL      7985<<ASSIGN   7986<<ASSIGN
INPUT_BUFFER.READ_DATA IN PROCEDURE READ
      7956**DCL      7989<<ASSIGN
INPUT_CC IN PROCEDURE READ
      7957**DCL      7983<<ASSIGN   7984>>IF       7986>>ASSIGN   7988>>DOWHILE
IONUM
      7616**DCL      8279<<ASSIGN   8279>>ASSIGN   8280>>IF       8288<<ASSIGN   8288>>ASSIGN
IO_BUFFER
PL6.E3A0      #001=TOR$FAULTS File=TOR$FAULTS.:E05TSI                            WED 07/30/97 06:32 Page:175
      7627**DCL
IO_BUFFER.BUF_AVAILIABLE_FLAG
      7628**DCL      8295>>IF       8296<<ASSIGN   8389>>IF
IO_BUFFER.CHAR_COUNT
      7644**DCL      8336<<ASSIGN   8444>>ASSIGN
IO_BUFFER.EXEC_NUM
      7634**DCL      8309<<ASSIGN
IO_BUFFER.IO_ENTRY
      7635**DCL      8311<<ASSIGN
IO_BUFFER.IO_REQ_BITS
      7636**DCL      8305<<ASSIGN
IO_BUFFER.IO_REQ_BITS.C
      7641**DCL      8410>>IF       8412<<ASSIGN
IO_BUFFER.IO_REQ_BITS.E
      7637**DCL      8397>>IF
IO_BUFFER.IO_REQ_BITS.M
      7639**DCL      8397>>IF
IO_BUFFER.IO_REQ_BITS.P
      7642**DCL      8397>>IF
IO_BUFFER.IO_REQ_BITS.R
      7638**DCL      8403>>IF       8406<<ASSIGN
IO_BUFFER.IO_REQ_BITS.S
      7640**DCL      8397>>IF
IO_BUFFER.IO_REQ_SERVICED_FLAG
      7629**DCL      8392>>IF       8395<<ASSIGN
IO_BUFFER.LID
      7633**DCL      8310<<ASSIGN   8396>>ASSIGN
IO_BUFFER.PAD_CHAR
      7632**DCL      8308<<ASSIGN
IO_BUFFER.READ_DATA
      7646**DCL
IO_BUFFER.READ_FLAG
      7630**DCL      8405<<ASSIGN
IO_BUFFER.TDPCN
      7631**DCL      8307<<ASSIGN
IO_BUFFER.WRITE_DATA
PL6.E3A0      #001=TOR$FAULTS File=TOR$FAULTS.:E05TSI                            WED 07/30/97 06:32 Page:176
      7645**DCL      8337<<ASSIGN   8442--ASSIGN
IO_BUFFER.WRITE_WD_CNT_BCD
      7643**DCL      8306<<ASSIGN   8334>>ASSIGN
IO_CONTROL IN PROCEDURE TOR$MME_TADIOD
      8224**DCL      8203--PROC     8225--REDEF
J IN PROCEDURE TOR$MME_TADIOD
      8231**DCL      8323<<DOINDEX  8324>>ASSIGN   8325>>ASSIGN
K IN PROCEDURE TOR$MME_TADIOD
      8232**DCL      8315<<ASSIGN   8322<<ASSIGN   8323>>DOINDEX  8323>>DOINDEX
LAST_MSG IN PROCEDURE BREAK_MESSAGE
      8503**LABEL    8479--CALLALT  8489--CALLALT
M IN PROCEDURE TOR$MME_TADIOD
      8233**DCL      8316<<ASSIGN   8322>>ASSIGN   8325<<ASSIGN
M$ACCT
      5532**DCL-ENT
M$ACTIVATE
      5535**DCL-ENT
M$ALIB
      5528**DCL-ENT
M$ASUSER
      5530**DCL-ENT
M$ATTACH
      5537**DCL-ENT
M$BADPP
      5555**DCL-ENT
M$CGCTL
      5536**DCL-ENT
M$CGINFO
      5536**DCL-ENT
M$CHECK
      5517**DCL-ENT
M$CHGUNIT
      5575**DCL-ENT
M$CLOSE
      5515**DCL-ENT
M$CLRSTK
PL6.E3A0      #001=TOR$FAULTS File=TOR$FAULTS.:E05TSI                            WED 07/30/97 06:32 Page:177
      5573**DCL-ENT
M$CMDVAR
      5584**DCL-ENT
M$CONFIG
      5545**DCL-ENT
M$CORRES
      5520**DCL-ENT
M$CPEXIT
      5529**DCL-ENT
M$CVM
      5553**DCL-ENT
M$CVOL
      5518**DCL-ENT
M$DCLFLD
      5545**DCL-ENT
M$DEACTIVATE
      5535**DCL-ENT
M$DELREC
      5517**DCL-ENT
M$DEQ
      5582**DCL-ENT
M$DETACH
      5537**DCL-ENT
M$DEVICE
      5519**DCL-ENT
M$DISPLAY
      5582**DCL-ENT
M$DISPRES
      5522**DCL-ENT
M$DLIB
      5528**DCL-ENT
M$DRIBBLE
      5545**DCL-ENT
M$DRTN
      5573**DCL-ENT
M$DSUSER
PL6.E3A0      #001=TOR$FAULTS File=TOR$FAULTS.:E05TSI                            WED 07/30/97 06:32 Page:178
      5530**DCL-ENT
M$ENQ
      5581**DCL-ENT
M$EOM
      5540**DCL-ENT
M$ERASE
      5546**DCL-ENT
M$ERR
      5527**DCL-ENT
M$ERRMSG
      5578**DCL-ENT
M$EVENT
      5570**DCL-ENT
M$EXHUME
      5579**DCL-ENT
M$EXIT
      5527**DCL-ENT
M$EXTEND
      5519**DCL-ENT
M$FDP
      5551**DCL-ENT
M$FDS
      5550**DCL-ENT
M$FEBOOT
      5543**DCL-ENT
M$FECTL
      5544**DCL-ENT
M$FEDUMP
      5543**DCL-ENT
M$FID
      5578**DCL-ENT
M$FINDPROC
      5532**DCL-ENT
M$FSUSER
      5530**DCL-ENT
M$FVP
PL6.E3A0      #001=TOR$FAULTS File=TOR$FAULTS.:E05TSI                            WED 07/30/97 06:32 Page:179
      5552**DCL-ENT
M$FWCG
      5536**DCL-ENT
M$GBPL
      5556**DCL-ENT
M$GDDL
      5552**DCL-ENT
M$GDP
      5551**DCL-ENT
M$GDS
      5550**DCL-ENT
M$GETDCB
      5521**DCL-ENT
M$GETMOUSE
      5561**DCL-ENT
M$GETPM
      5562**DCL-ENT
M$GJOB
      5580**DCL-ENT
M$GLINEATTR
      5540**DCL-ENT
M$GOODPP
      5555**DCL-ENT
M$GPLATEN
      5548**DCL-ENT
M$GPROMPT
      5547**DCL-ENT
M$GTRMATTR
      5541**DCL-ENT
M$GTRMCTL
      5539**DCL-ENT
M$GTRMTAB
      5542**DCL-ENT
M$GVP
      5551**DCL-ENT
M$HELP
PL6.E3A0      #001=TOR$FAULTS File=TOR$FAULTS.:E05TSI                            WED 07/30/97 06:32 Page:180
      5578**DCL-ENT
M$INT
      5570**DCL-ENT
M$INTRTN
      5531**DCL-ENT
M$IOQ
      5566**DCL-ENT
M$JOBSTATS
      5580**DCL-ENT
M$KEYIN
      5520**DCL-ENT
M$LDEV
      5515**DCL-ENT
M$LDTRC
      5528**DCL-ENT
M$LIMIT
      5521**DCL-ENT
M$LINES
      5520**DCL-ENT
M$LINK
      5527**DCL-ENT
M$LO
      7550**DCL
M$MADMUCK
      5523**DCL-ENT
M$MAKUSER
      5554**DCL-ENT
M$MBS
      5522**DCL-ENT
M$MDFFLD
      5546**DCL-ENT
M$MERC
      5571**DCL-ENT
M$MERCS
      5572**DCL-ENT
M$MIRROR
PL6.E3A0      #001=TOR$FAULTS File=TOR$FAULTS.:E05TSI                            WED 07/30/97 06:32 Page:181
      5566**DCL-ENT
M$MONINFO
      5583**DCL-ENT
M$MPL
      5556**DCL-ENT
M$NODEINFO
      5547**DCL-ENT
M$NXTUSR
      5581**DCL-ENT
M$OCMSG
      5579**DCL-ENT
M$OLAY
      5527**DCL-ENT
M$OPEN
      5515**DCL-ENT
M$PAS
      5556**DCL-ENT
M$PATHCON
      5579**DCL-ENT
M$PDS
      5550**DCL-ENT
M$PFIL
      5517**DCL-ENT
M$PLATEN
      5541**DCL-ENT
M$PRECORD
      5519**DCL-ENT
M$PROCNAME
      5532**DCL-ENT
M$PROFILE
      5543**DCL-ENT
M$PROMPT
      5539**DCL-ENT
M$RACST
      5523**DCL-ENT
M$RDSYSLOG
PL6.E3A0      #001=TOR$FAULTS File=TOR$FAULTS.:E05TSI                            WED 07/30/97 06:32 Page:182
      5564**DCL-ENT
M$READ
      5516**DCL-ENT  7982--CALL
M$RELDCB
      5521**DCL-ENT
M$RELRES
      5522**DCL-ENT
M$RELSTARF
      5524**DCL-ENT
M$REM
      5524**DCL-ENT
M$RENV
      5571**DCL-ENT
M$REQUIRE
      5523**DCL-ENT
M$RETRY
      5572**DCL-ENT
M$RETRYS
      5572**DCL-ENT
M$REW
      5518**DCL-ENT
M$RLSFLD
      5546**DCL-ENT
M$RPRIV
      5574**DCL-ENT
M$RSPP
      5553**DCL-ENT
M$RSWITCH
      5575**DCL-ENT
M$RUE
      5581**DCL-ENT
M$SAD
      5554**DCL-ENT
M$SAVE
      5530**DCL-ENT
M$SCON
PL6.E3A0      #001=TOR$FAULTS File=TOR$FAULTS.:E05TSI                            WED 07/30/97 06:32 Page:183
      5531**DCL-ENT
M$SCREECH
      5529**DCL-ENT
M$SENV
      5571**DCL-ENT
M$SETFMA
      5515**DCL-ENT
M$SETFP
      5544**DCL-ENT
M$SI
      7549**DCL      7983--ASSIGN
M$SINPUT
      5542**DCL-ENT
M$SLCFLD
      5547**DCL-ENT
M$SMOUSE
      5561**DCL-ENT
M$SMPRT
      5553**DCL-ENT
M$SPRIV
      5574**DCL-ENT
M$SSC
      5554**DCL-ENT
M$SSWITCH
      5574**DCL-ENT
M$STATE
      5583**DCL-ENT
M$STD
      5555**DCL-ENT
M$STIMER
      5569**DCL-ENT
M$STLPP
      5552**DCL-ENT
M$STRAP
      5569**DCL-ENT
M$STRMATTR
PL6.E3A0      #001=TOR$FAULTS File=TOR$FAULTS.:E05TSI                            WED 07/30/97 06:32 Page:184
      5541**DCL-ENT
M$STRMCTL
      5539**DCL-ENT
M$STRMTAB
      5542**DCL-ENT
M$SYMBIO
      5580**DCL-ENT
M$SYSCON
      5566**DCL-ENT
M$SYSID
      5584**DCL-ENT
M$TDCLOSE
      5565**DCL-ENT
M$TDIO
      5565**DCL-ENT
M$TDOPEN
      5564**DCL-ENT
M$TDREQCPU
      5565**DCL-ENT
M$TEMPWROC
      5559**DCL-ENT
M$TIME
      5582**DCL-ENT  8072--CALL     8079--CALL
M$TRAP
      5569**DCL-ENT
M$TRMISC
      5544**DCL-ENT
M$TRMPRG
      5540**DCL-ENT
M$TRTN
      5573**DCL-ENT  7665--CALL
M$TRUNC
      5516**DCL-ENT
M$TTIMER
      5569**DCL-ENT
M$UC
PL6.E3A0      #001=TOR$FAULTS File=TOR$FAULTS.:E05TSI                            WED 07/30/97 06:32 Page:185
      5539**DCL
M$UMPL
      5556**DCL-ENT
M$UNFID
      5578**DCL-ENT
M$UNLATCH
      5535**DCL-ENT
M$UNSHARE
      5532**DCL-ENT
M$USRFIELD
      5575**DCL-ENT
M$VIRTUAL
      5550**DCL-ENT
M$WAIT
      5573**DCL-ENT  7970--CALL
M$WEOF
      5518**DCL-ENT
M$WRITE
      5516**DCL-ENT  7927--CALL
M$WRSYSLOG
      5564**DCL-ENT
M$XCON
      5570**DCL-ENT
M$XCONRTN
      5531**DCL-ENT
M$XEQTIME
      5583**DCL-ENT
M$XFLUSH
      5524**DCL-ENT
M$XMOUSE
      5561**DCL-ENT
M$XXX
      5527**DCL-ENT
M$YC
      5529**DCL-ENT
MESSAGE IN PROCEDURE BREAK_MESSAGE
PL6.E3A0      #001=TOR$FAULTS File=TOR$FAULTS.:E05TSI                            WED 07/30/97 06:32 Page:186
      8463**DCL      8479>>CALLBLT  8483--ASSIGN   8489>>CALLBLT  8493--ASSIGN   8496--ASSIGN   8503--ASSIGN
MESSAGE_SIZE IN PROCEDURE BREAK_MESSAGE
      8464**DCL      8475<<ASSIGN   8490>>IF       8493>>ASSIGN   8503>>ASSIGN
MME
      7563**DCL      7767<<ASSIGN   7807>>ASSIGN
MME.INST
      7565**DCL
MME.INST.NO
      7566**DCL      7720>>IF       7721>>DOCASE   7735>>DOCASE
MME.INST.OP
      7567**DCL
MME.INSTR
      7564**DCL      7565--REDEF
MME.WD_1
      7568**DCL      7723<>CALL     7727<>CALL     7737<>CALL
MME.WD_2
      7569**DCL      7727<>CALL     7737<>CALL
MME.WD_3
      7570**DCL      7737<>CALL
MME.WD_4
      7571**DCL      7737<>CALL
MME.WD_5
      7572**DCL      7737<>CALL
MME.WD_6
      7573**DCL      7737<>CALL
MME_GMAP_DATA IN PROCEDURE GET_MME_DATA
      7762**DCL      7767>>ASSIGN
MME_GMAP_DATA IN PROCEDURE RET_MME_DATA
      7803**DCL      7807<<ASSIGN
MME_HANDLER
      7717**PROC     7661--CALL
MME_INSTR
      7600**DCL
MME_INSTR.ADR
      7601**DCL      7764<<ASSIGN   7788>>ASSIGN
MME_INSTR.SEGID
PL6.E3A0      #001=TOR$FAULTS File=TOR$FAULTS.:E05TSI                            WED 07/30/97 06:32 Page:187
      7602**DCL      7765<<ASSIGN
MME_INSTR$
      7598**DCL      7600--REDEF    7767>>ASSIGN   7807>>ASSIGN
MME_IR
      7613**DCL      7771<<ASSIGN
MREG
      7584**DCL      7769<<ASSIGN   7805--ASSIGN
MREG.A
      7593**DCL      7725<>CALL     7737<>CALL
MREG.E
      7595**DCL
MREG.Q
      7594**DCL      7725<>CALL     7729<>CALL
MREG.X0
      7585**DCL
MREG.X1
      7586**DCL
MREG.X2
      7587**DCL
MREG.X3
      7588**DCL
MREG.X4
      7589**DCL
MREG.X5
      7590**DCL
MREG.X6
      7591**DCL
MREG.X7
      7592**DCL
MSG$ IN PROCEDURE BREAK_MESSAGE
      8465**DCL      8466--REDEF    8479>>CALLBLT  8483>>ASSIGN   8489>>CALLBLT  8493>>ASSIGN   8496>>ASSIGN
      8503>>ASSIGN
MSG_CODE IN PROCEDURE PROCESS_IO_REQ
      8378**DCL
MSG_PTR IN PROCEDURE BREAK_MESSAGE
      8466**DCL
PL6.E3A0      #001=TOR$FAULTS File=TOR$FAULTS.:E05TSI                            WED 07/30/97 06:32 Page:188
MSG_PTR.ADR IN PROCEDURE BREAK_MESSAGE
      8467**DCL      8476<<ASSIGN
MSG_PTR.SEGID IN PROCEDURE BREAK_MESSAGE
      8468**DCL      8477<<ASSIGN
MSG_START_INDEX IN PROCEDURE BREAK_MESSAGE
      8469**DCL      8473<<ASSIGN   8488<<ASSIGN   8493>>ASSIGN   8493>>ASSIGN   8496>>ASSIGN   8496>>ASSIGN
      8503>>ASSIGN   8503>>ASSIGN
N IN PROCEDURE READ
      7958**DCL      7987<<ASSIGN   7988>>DOWHILE  7988>>DOWHILE  7989>>ASSIGN   7989>>ASSIGN   7990<<ASSIGN
      7990>>ASSIGN
N IN PROCEDURE WRITE
      7916**DCL      7922<<DOINDEX  7923>>ASSIGN   7923>>ASSIGN
NEXT_DCW_WD IN PROCEDURE TOR$MME_TADIOD
      8318**LABEL    8348--GOTO
NEXT_ENTRY IN PROCEDURE TOR$MME_TADIOD
      8303**LABEL    8298--GOTO
NOR IN PROCEDURE TOR$MME_TADIOD
      8236**DCL
NOR.NO IN PROCEDURE TOR$MME_TADIOD
      8237**DCL      8270>>ASSIGN
NUMBER_OF_REQUESTS IN PROCEDURE TOR$MME_TADIOD
      8235**DCL      8203--PROC     8236--REDEF
NUM_REQUESTS IN PROCEDURE TOR$MME_TADIOD
      8234**DCL      8270<<ASSIGN   8272>>ASSIGN   8279>>ASSIGN   8282>>DOINDEX  8288>>ASSIGN   8303<<ASSIGN
      8303>>ASSIGN   8305>>ASSIGN   8306>>ASSIGN   8313>>ASSIGN   8331>>IF       8340>>IF
PARAMETER IN PROCEDURE TOR$MME_TADIOD
      8249**DCL      8273<<ASSIGN   8274<<ASSIGN   8275<<ASSIGN   8276<<ASSIGN   8277<<ASSIGN
PARAMETER.DCW_LIST_ADDR IN PROCEDURE TOR$MME_TADIOD
      8250**DCL      8313>>ASSIGN
PARAMETER.IO_REQ_BITS IN PROCEDURE TOR$MME_TADIOD
      8251**DCL      8305>>ASSIGN
PARAMETER.IO_REQ_BITS.C IN PROCEDURE TOR$MME_TADIOD
      8256**DCL
PARAMETER.IO_REQ_BITS.E IN PROCEDURE TOR$MME_TADIOD
      8252**DCL
PARAMETER.IO_REQ_BITS.M IN PROCEDURE TOR$MME_TADIOD
PL6.E3A0      #001=TOR$FAULTS File=TOR$FAULTS.:E05TSI                            WED 07/30/97 06:32 Page:189
      8254**DCL
PARAMETER.IO_REQ_BITS.P IN PROCEDURE TOR$MME_TADIOD
      8257**DCL
PARAMETER.IO_REQ_BITS.R IN PROCEDURE TOR$MME_TADIOD
      8253**DCL
PARAMETER.IO_REQ_BITS.S IN PROCEDURE TOR$MME_TADIOD
      8255**DCL
PARAMETER.WRITE_WD_CNT_BCD IN PROCEDURE TOR$MME_TADIOD
      8258**DCL      8283>>IF       8306>>ASSIGN   8331>>IF
PARAM_0 IN PROCEDURE TOR$MME_TADIOD
      8239**DCL      8203--PROC     8240--REDEF
PARAM_1 IN PROCEDURE TOR$MME_GESNAP
      8011**DCL      8009--PROC
PARAM_1 IN PROCEDURE TOR$MME_TADIOD
      8241**DCL      8203--PROC     8242--REDEF
PARAM_2 IN PROCEDURE TOR$MME_TADIOD
      8243**DCL      8203--PROC     8244--REDEF
PARAM_3 IN PROCEDURE TOR$MME_TADIOD
      8245**DCL      8203--PROC     8246--REDEF
PARAM_4 IN PROCEDURE TOR$MME_TADIOD
      8247**DCL      8203--PROC     8248--REDEF
PARAM_A IN PROCEDURE TOR$MME_TADIOD
      8240**DCL      8273>>ASSIGN
PARAM_B IN PROCEDURE TOR$MME_TADIOD
      8242**DCL      8274>>ASSIGN
PARAM_C IN PROCEDURE TOR$MME_TADIOD
      8244**DCL      8275>>ASSIGN
PARAM_D IN PROCEDURE TOR$MME_TADIOD
      8246**DCL      8276>>ASSIGN
PARAM_E IN PROCEDURE TOR$MME_TADIOD
      8248**DCL      8277>>ASSIGN
PROCESS_IO_REQ
      8375**PROC     8343--CALL
READ IN PROCEDURE TOR$MME_GEROUT
      7947**PROC     7892--CALL
READ_ERROR IN PROCEDURE READ
PL6.E3A0      #001=TOR$FAULTS File=TOR$FAULTS.:E05TSI                            WED 07/30/97 06:32 Page:190
      7997**LABEL    7982--CALLALT
READ_IO
      7524**DCL      7982<>CALL
READ_IO.BUF_
      7526**DCL      7981<<ASSIGN
READ_IO.BUF_.BOUND
      7526**DCL
READ_IO.BUF_.BUF$
      7527**DCL
READ_IO.IDBUF_
      7528**DCL
READ_IO.KEY_
      7524**DCL
READ_IO.KEY_.BOUND
      7524**DCL
READ_IO.KEY_.KEY$
      7525**DCL
READ_IO.STATION_
      7527**DCL      7528--REDEF
READ_IO.V
      7528**DCL      7524--DCLINIT
READ_IO.V.DCB#
      7528**DCL
READ_IO.V.DVBYTE
      7538**DCL
READ_IO.V.DVBYTE.BIN#
      7539**DCL
READ_IO.V.DVBYTE.BP#
      7538**DCL
READ_IO.V.DVBYTE.CONT#
      7541**DCL
READ_IO.V.DVBYTE.NODAT#
      7540**DCL
READ_IO.V.DVBYTE.REREAD#
      7539**DCL      7539--REDEF
READ_IO.V.DVBYTE.TOP#
PL6.E3A0      #001=TOR$FAULTS File=TOR$FAULTS.:E05TSI                            WED 07/30/97 06:32 Page:191
      7538**DCL
READ_IO.V.DVBYTE.TRANS#
      7540**DCL
READ_IO.V.DVBYTE.VFC#
      7539**DCL
READ_IO.V.EVENT#
      7537**DCL
READ_IO.V.FULL#
      7530**DCL
READ_IO.V.ID#
      7529**DCL
READ_IO.V.IDS#
      7530**DCL
READ_IO.V.INDX#
      7537**DCL      7537--REDEF
READ_IO.V.IOERROK#
      7531**DCL
READ_IO.V.KEYCHNG#
      7530**DCL
READ_IO.V.KEYR#
      7529**DCL
READ_IO.V.KEYS#
      7529**DCL
READ_IO.V.KEYTYPE#
      7537**DCL
READ_IO.V.ODFNC#
      7542**DCL
READ_IO.V.RECNUM#
      7542**DCL
READ_IO.V.REREADPOS#
      7543**DCL
READ_IO.V.SEED#
      7538**DCL
READ_IO.V.SINPUTSIZE#
      7542**DCL
READ_IO.V.STRPVFC#
PL6.E3A0      #001=TOR$FAULTS File=TOR$FAULTS.:E05TSI                            WED 07/30/97 06:32 Page:192
      7541**DCL
READ_IO.V.WAIT#
      7528**DCL
READ_IO.V_
      7524**DCL
REQ_INVALID IN PROCEDURE TOR$MME_TADIOD
      8259**DCL      8269<<ASSIGN   8280<<ASSIGN   8287>>IF
RETURN_DELTA
      7604**DCL      7723<>CALL     7725<>CALL     7727<>CALL     7729<>CALL     7737<>CALL     7788>>ASSIGN
RETURN_DELTA IN PROCEDURE TOR$MME_GEROUT
      7839**DCL      7827--PROC     7898<<ASSIGN
RETURN_DELTA IN PROCEDURE TOR$MME_GESNAP
      8012**DCL      8009--PROC     8016<<ASSIGN
RETURN_DELTA IN PROCEDURE TOR$MME_GETIME
      8042**DCL      8036--PROC     8081<<ASSIGN
RETURN_DELTA IN PROCEDURE TOR$MME_GEWAKE
      8120**DCL      8117--PROC     8145<<ASSIGN
RETURN_DELTA IN PROCEDURE TOR$MME_TADIOD
      8260**DCL      8203--PROC     8289<<ASSIGN   8344<<ASSIGN
RETURN_DELTA_COUNT IN PROCEDURE TOR$MME_TADIOD
      8261**DCL      8272<<ASSIGN   8289>>ASSIGN   8344>>ASSIGN
RET_MME_DATA
      7801**PROC     7744--CALL
SERVICE_WRITE_REQ
      8432**PROC     8413--CALL
START_LOOP IN PROCEDURE PROCESS_IO_REQ
      8386**LABEL    8390--GOTO     8393--GOTO     8408--GOTO     8414--GOTO
STATUS IN PROCEDURE TOR$MME_GEROUT
      7856**DCL
STATUS.BREAK_REC IN PROCEDURE TOR$MME_GEROUT
      7860**DCL      7972<<ASSIGN   7976<<ASSIGN
STATUS.IO_ERROR IN PROCEDURE TOR$MME_GEROUT
      7859**DCL      7935<<ASSIGN   8000<<ASSIGN
STATUS.OP_COMPLETE IN PROCEDURE TOR$MME_GEROUT
      7858**DCL      7928<<ASSIGN   7992<<ASSIGN
STATUS$ IN PROCEDURE TOR$MME_GEROUT
PL6.E3A0      #001=TOR$FAULTS File=TOR$FAULTS.:E05TSI                            WED 07/30/97 06:32 Page:193
      7852**DCL      7853--REDEF    7928>>ASSIGN   7935>>ASSIGN   7972>>ASSIGN   7976>>ASSIGN   7992>>ASSIGN
      8000>>ASSIGN
STATUS_PTR IN PROCEDURE TOR$MME_GEROUT
      7853**DCL
STATUS_PTR.ADR IN PROCEDURE TOR$MME_GEROUT
      7854**DCL      7881<<ASSIGN
STATUS_PTR.SEGID IN PROCEDURE TOR$MME_GEROUT
      7855**DCL      7882<<ASSIGN
STATUS_TABLE IN PROCEDURE TOR$MME_GEROUT
      7835**DCL      7827--PROC     7836--REDEF
STATUS_TABLE_PTR IN PROCEDURE TOR$MME_GEROUT
      7836**DCL
STATUS_TABLE_PTR.STATUS_ADD IN PROCEDURE TOR$MME_GEROUT
      7837**DCL      7881>>ASSIGN
SUB_CODE
      7614**DCL      7694<<ASSIGN
TABLE IN PROCEDURE TOR$MME_GEROUT
      7845**DCL
TABLE.BREAK_FLAG IN PROCEDURE TOR$MME_GEROUT
      7850**DCL      7883>>IF
TABLE.CHAR_CNT IN PROCEDURE TOR$MME_GEROUT
      7848**DCL      7920>>ASSIGN
TABLE.INPUT_BUF IN PROCEDURE TOR$MME_GEROUT
      7847**DCL      7964>>ASSIGN
TABLE.WORD_CNT IN PROCEDURE TOR$MME_GEROUT
      7846**DCL
TABLE.WRITE_DATA IN PROCEDURE TOR$MME_GEROUT
      7851**DCL      7923>>ASSIGN
TABLE$ IN PROCEDURE TOR$MME_GEROUT
      7841**DCL      7842--REDEF    7883>>IF       7920>>ASSIGN   7923>>ASSIGN   7964>>ASSIGN
TABLE_PTR IN PROCEDURE TOR$MME_GEROUT
      7842**DCL
TABLE_PTR.ADR IN PROCEDURE TOR$MME_GEROUT
      7843**DCL      7878<<ASSIGN
TABLE_PTR.SEGID IN PROCEDURE TOR$MME_GEROUT
      7844**DCL      7879<<ASSIGN
PL6.E3A0      #001=TOR$FAULTS File=TOR$FAULTS.:E05TSI                            WED 07/30/97 06:32 Page:194
TEMP_LID IN PROCEDURE PROCESS_IO_REQ
      8379**DCL      8396<<ASSIGN
TIME_BUFFER IN PROCEDURE TOR$MME_GETIME
      8043**DCL      8062--DCLINIT  8080>>ASSIGN
TIME_FPT IN PROCEDURE TOR$MME_GETIME
      8058**DCL      8072<>CALL     8079<>CALL
TIME_FPT.DATE_ IN PROCEDURE TOR$MME_GETIME
      8058**DCL
TIME_FPT.DATE_.BOUND IN PROCEDURE TOR$MME_GETIME
      8058**DCL
TIME_FPT.DATE_.DATE$ IN PROCEDURE TOR$MME_GETIME
      8059**DCL
TIME_FPT.DAY_ IN PROCEDURE TOR$MME_GETIME
      8061**DCL
TIME_FPT.TIME_ IN PROCEDURE TOR$MME_GETIME
      8060**DCL
TIME_FPT.TIME_.BOUND IN PROCEDURE TOR$MME_GETIME
      8060**DCL
TIME_FPT.TIME_.TIME$ IN PROCEDURE TOR$MME_GETIME
      8061**DCL
TIME_FPT.TSTAMP_ IN PROCEDURE TOR$MME_GETIME
      8061**DCL
TIME_FPT.V IN PROCEDURE TOR$MME_GETIME
      8062**DCL      8058--DCLINIT
TIME_FPT.V.DEST# IN PROCEDURE TOR$MME_GETIME
      8062**DCL      8069<<ASSIGN   8078<<ASSIGN
TIME_FPT.V.DEST_BASIS# IN PROCEDURE TOR$MME_GETIME
      8063**DCL
TIME_FPT.V.SOURCE# IN PROCEDURE TOR$MME_GETIME
      8062**DCL      8070<<ASSIGN
TIME_FPT.V.SOURCE_BASIS# IN PROCEDURE TOR$MME_GETIME
      8063**DCL
TIME_FPT.V_ IN PROCEDURE TOR$MME_GETIME
      8058**DCL
TOR$BREAK_OCCURRED
      7610**DCL      7971>>IF
PL6.E3A0      #001=TOR$FAULTS File=TOR$FAULTS.:E05TSI                            WED 07/30/97 06:32 Page:195
TOR$CONSOLE_OUT_PTR
      7652**DCL-ENT  8484--CALL     8498--CALL     8504--CALL
TOR$EXIT_PTR
      7654**DCL-ENT  7731--CALL     7740--CALL
TOR$FAULTS
        24**PROC
TOR$MME_GEROUT
      7827**PROC     7727--CALL
TOR$MME_GESNAP
      8009**PROC     7723--CALL
TOR$MME_GETIME
      8036**PROC     7725--CALL
TOR$MME_GEWAKE
      8117**PROC     7729--CALL
TOR$MME_TADIOD
      8203**PROC     7737--CALL
TOR$WRAPUP_PTR
      7653**DCL-ENT  7663--CALL     7733--CALL     7742--CALL     7894--CALL     7937--CALL     8002--CALL
      8284--CALL     8332--CALL     8401--CALL     8407--CALL
TOT$ASCII_BCD
      7650**DCL-ENT  8075--CALL
TOT$BCD_ASCII
      7651**DCL-ENT  8335--CALL
TRTN_FPT
      7439**DCL      7665<>CALL
TRTN_FPT.DRS_
      7439**DCL
TRTN_FPT.REGS_
      7439**DCL      7805<<ASSIGN
TRTN_FPT.V
      7440**DCL      7440--DCLINIT
TRTN_FPT.V.IC#
      7440**DCL      7788<<ASSIGN
TRTN_FPT.V.IR#
      7440**DCL      7441--REDEF
TRTN_FPT.V.IRBIT#
PL6.E3A0      #001=TOR$FAULTS File=TOR$FAULTS.:E05TSI                            WED 07/30/97 06:32 Page:196
      7441**DCL
TRTN_FPT.V.IRBIT#.CARRY
      7441**DCL
TRTN_FPT.V.IRBIT#.EXOF
      7441**DCL
TRTN_FPT.V.IRBIT#.EXUF
      7441**DCL
TRTN_FPT.V.IRBIT#.EXUFM
      7442**DCL
TRTN_FPT.V.IRBIT#.HEX
      7442**DCL
TRTN_FPT.V.IRBIT#.MIR
      7442**DCL
TRTN_FPT.V.IRBIT#.MM
      7442**DCL
TRTN_FPT.V.IRBIT#.NEG
      7441**DCL
TRTN_FPT.V.IRBIT#.OF
      7441**DCL
TRTN_FPT.V.IRBIT#.OFM
      7441**DCL
TRTN_FPT.V.IRBIT#.PE
      7442**DCL
TRTN_FPT.V.IRBIT#.PM
      7442**DCL
TRTN_FPT.V.IRBIT#.TR
      7442**DCL
TRTN_FPT.V.IRBIT#.TRC
      7442**DCL
TRTN_FPT.V.IRBIT#.ZERO
      7441**DCL
TRTN_FPT.V.SETIR#
      7442**DCL
TRTN_FPT.V_
      7439**DCL
VFC_ IN PROCEDURE WRITE
PL6.E3A0      #001=TOR$FAULTS File=TOR$FAULTS.:E05TSI                            WED 07/30/97 06:32 Page:197
      7911**DCL      7915--REDEF
VFC_BYTE IN PROCEDURE WRITE
      7915**DCL      7921>>ASSIGN
WAIT IN PROCEDURE READ
      7970**LABEL    7977--GOTO
WAIT_FPT IN PROCEDURE TOR$MME_GEWAKE
      8132**DCL
WAIT_FPT.UETIME_ IN PROCEDURE TOR$MME_GEWAKE
      8132**DCL
WAIT_FPT.V IN PROCEDURE TOR$MME_GEWAKE
      8133**DCL      8132--DCLINIT
WAIT_FPT.V.UNITS# IN PROCEDURE TOR$MME_GEWAKE
      8133**DCL      8140<<ASSIGN   8142<<ASSIGN
WAIT_FPT.V.UTYPE# IN PROCEDURE TOR$MME_GEWAKE
      8133**DCL
WAIT_FPT.V_ IN PROCEDURE TOR$MME_GEWAKE
      8132**DCL
WRITE IN PROCEDURE TOR$MME_GEROUT
      7907**PROC     7889--CALL     7891--CALL
WRITE_BUF_ASCII IN PROCEDURE TOR$MME_TADIOD
      8262**DCL      8263--REDEF    8335<>CALL
WRITE_BUF_ASCII_REDEF IN PROCEDURE TOR$MME_TADIOD
      8263**DCL      8337>>ASSIGN
WRITE_BUF_BCD IN PROCEDURE TOR$MME_TADIOD
      8264**DCL      8265--REDEF    8335<>CALL
WRITE_BUF_BCD_REDEF IN PROCEDURE TOR$MME_TADIOD
      8265**DCL      8324<<ASSIGN
WRITE_BUF_VECTOR
      7618**DCL      7626--REDEF
WRITE_BUF_VECTOR.BASE
      7623**DCL      8443<<ASSIGN   8476>>ASSIGN
WRITE_BUF_VECTOR.BOUNDS
      7619**DCL      8444<<ASSIGN   8475>>ASSIGN
WRITE_BUF_VECTOR.FLAGS
      7620**DCL
WRITE_BUF_VECTOR.SEGID
PL6.E3A0      #001=TOR$FAULTS File=TOR$FAULTS.:E05TSI                            WED 07/30/97 06:32 Page:198
      7625**DCL
WRITE_BUF_VECTOR.V
      7621**DCL
WRITE_BUF_VECTOR_V
      7626**DCL
WRITE_ERROR IN PROCEDURE WRITE
      7932**LABEL    7927--CALLALT
WRITE_IO
      7493**DCL      7927<>CALL
WRITE_IO.BUF_
      7493**DCL      7925<<ASSIGN
WRITE_IO.BUF_.BOUND
      7493**DCL      7926<<ASSIGN
WRITE_IO.BUF_.BUF$
      7495**DCL
WRITE_IO.IDBUF_
      7495**DCL
WRITE_IO.KEY_
      7493**DCL
WRITE_IO.STATION_
      7495**DCL      7495--REDEF
WRITE_IO.V
      7496**DCL      7493--DCLINIT
WRITE_IO.V.DCB#
      7496**DCL
WRITE_IO.V.DVBYTE
      7501**DCL
WRITE_IO.V.DVBYTE.BIN#
      7502**DCL
WRITE_IO.V.DVBYTE.BP#
      7502**DCL
WRITE_IO.V.DVBYTE.CONT#
      7504**DCL
WRITE_IO.V.DVBYTE.NODAT#
      7503**DCL
WRITE_IO.V.DVBYTE.REREAD#
PL6.E3A0      #001=TOR$FAULTS File=TOR$FAULTS.:E05TSI                            WED 07/30/97 06:32 Page:199
      7502**DCL
WRITE_IO.V.DVBYTE.RRR#
      7503**DCL
WRITE_IO.V.DVBYTE.TOP#
      7501**DCL
WRITE_IO.V.DVBYTE.TRANS#
      7503**DCL
WRITE_IO.V.DVBYTE.VFC#
      7502**DCL      7502--REDEF
WRITE_IO.V.EVENT#
      7501**DCL
WRITE_IO.V.FULL#
      7498**DCL
WRITE_IO.V.ID#
      7497**DCL
WRITE_IO.V.IOERROK#
      7500**DCL
WRITE_IO.V.KEYTYPE#
      7500**DCL
WRITE_IO.V.NEWKEY#
      7499**DCL
WRITE_IO.V.NOTIME#
      7499**DCL
WRITE_IO.V.ODFNC#
      7505**DCL
WRITE_IO.V.ONEWKEY#
      7498**DCL
WRITE_IO.V.REWRITE#
      7499**DCL
WRITE_IO.V.SEED#
      7501**DCL
WRITE_IO.V.WAIT#
      7496**DCL
WRITE_IO.V_
      7493**DCL
X IN PROCEDURE READ
PL6.E3A0      #001=TOR$FAULTS File=TOR$FAULTS.:E05TSI                            WED 07/30/97 06:32 Page:200
      7960**DCL      7966<<ASSIGN   7974<<ASSIGN   7974>>ASSIGN   7975>>IF
PL6.E3A0      #001=TOR$FAULTS File=TOR$FAULTS.:E05TSI                            WED 07/30/97 06:32 Page:201
              *** CROSS REFERENCE LISTING ***
    **     DENOTES     IDENTIFIER DEFINITION
    <<                 IDENTIFIER'S VALUE SET
    >>                 IDENTIFIER'S VALUE USED
    <>                 IDENTIFIER SET AND/OR USED
    --                 IDENTIFIER REFERENCED
PL6.E3A0      #001=TOR$FAULTS File=TOR$FAULTS.:E05TSI                            WED 07/30/97 06:32 Page:202
              FULL UREF LISTING

B$ALT
      7372**DCL
B$ALT.BRKCNT
      7373**DCL
B$ALT.DCB#
      7373**DCL
B$ALT.ERR
      7373**DCL
B$ALT.ERR.FCG
      7374**DCL
B$ALT.ERR.MID
      7374**DCL
B$ALT.ERR.MON
      7374**DCL
B$ALT.ERR.SEV
      7374**DCL
B$ALT.EVSC
      7373**DCL
B$ALT.FPT
      7372**DCL
B$ALT.FPT.FCG
      7372**DCL
B$ALT.FPT.PMME
      7372**DCL
B$ALT.P#
      7376**DCL
B$ALT.SSFRAME
      7372**DCL
B$ALT.SUBC
      7373**DCL
B$EXCFR
      7298**DCL
PL6.E3A0      #001=TOR$FAULTS File=TOR$FAULTS.:E05TSI                            WED 07/30/97 06:32 Page:203
B$EXCFR.ALTEMPTY
      7298**DCL
B$EXCFR.ASLIC
      7298**DCL
B$EXCFR.ASR
      7304**DCL
B$EXCFR.ASR.BASE
      7305**DCL
B$EXCFR.ASR.BOUND
      7304**DCL
B$EXCFR.ASR.FLAGS
      7304**DCL
B$EXCFR.ASR.FLAGS.BOUND
      7305**DCL
B$EXCFR.ASR.FLAGS.CACHE
      7305**DCL
B$EXCFR.ASR.FLAGS.EXU
      7305**DCL
B$EXCFR.ASR.FLAGS.MON
      7305**DCL
B$EXCFR.ASR.FLAGS.PRIV
      7305**DCL
B$EXCFR.ASR.FLAGS.READ
      7304**DCL
B$EXCFR.ASR.FLAGS.SAVE
      7304**DCL
B$EXCFR.ASR.FLAGS.SEGMENT
      7305**DCL
B$EXCFR.ASR.FLAGS.WRITE
      7304**DCL
B$EXCFR.ASR.TYPE
      7305**DCL
B$EXCFR.ASR.WSR
      7305**DCL
B$EXCFR.BRKCNT
      7312**DCL
PL6.E3A0      #001=TOR$FAULTS File=TOR$FAULTS.:E05TSI                            WED 07/30/97 06:32 Page:204
B$EXCFR.CODE
      7311**DCL
B$EXCFR.CP#
      7301**DCL
B$EXCFR.DCB#
      7311**DCL
B$EXCFR.DRS
      7309**DCL
B$EXCFR.DSAR
      7302**DCL
B$EXCFR.EIS
      7310**DCL
B$EXCFR.ERR
      7312**DCL
B$EXCFR.ERR.CODE
      7312**DCL
B$EXCFR.ERR.FCG
      7312**DCL
B$EXCFR.ERR.MID
      7312**DCL
B$EXCFR.ERR.MON
      7312**DCL
B$EXCFR.ERR.SEV
      7313**DCL
B$EXCFR.EVSC
      7310**DCL
B$EXCFR.EWSQ#
      7302**DCL
B$EXCFR.FCODE
      7301**DCL
B$EXCFR.FI
      7301**DCL
B$EXCFR.FPT
      7311**DCL
B$EXCFR.FPT.FCG
      7311**DCL
PL6.E3A0      #001=TOR$FAULTS File=TOR$FAULTS.:E05TSI                            WED 07/30/97 06:32 Page:205
B$EXCFR.FPT.PMME
      7311**DCL
B$EXCFR.INST
      7299**DCL
B$EXCFR.INST.EVEN
      7299**DCL
B$EXCFR.INST.ODD
      7299**DCL
B$EXCFR.IRBIT
      7299**DCL
B$EXCFR.IRBIT.CARRY
      7300**DCL
B$EXCFR.IRBIT.EXOF
      7300**DCL
B$EXCFR.IRBIT.EXUF
      7300**DCL
B$EXCFR.IRBIT.EXUFM
      7301**DCL
B$EXCFR.IRBIT.HEX
      7301**DCL
B$EXCFR.IRBIT.MIR
      7300**DCL
B$EXCFR.IRBIT.MM
      7300**DCL
B$EXCFR.IRBIT.NEG
      7299**DCL
B$EXCFR.IRBIT.OF
      7300**DCL
B$EXCFR.IRBIT.OFM
      7300**DCL
B$EXCFR.IRBIT.PE
      7300**DCL
B$EXCFR.IRBIT.PM
      7300**DCL
B$EXCFR.IRBIT.TR
      7300**DCL
PL6.E3A0      #001=TOR$FAULTS File=TOR$FAULTS.:E05TSI                            WED 07/30/97 06:32 Page:206
B$EXCFR.IRBIT.TRC
      7300**DCL
B$EXCFR.IRBIT.ZERO
      7299**DCL
B$EXCFR.ISR
      7302**DCL
B$EXCFR.ISR.BASE
      7304**DCL
B$EXCFR.ISR.BOUND
      7302**DCL
B$EXCFR.ISR.FLAGS
      7302**DCL
B$EXCFR.ISR.FLAGS.BOUND
      7303**DCL
B$EXCFR.ISR.FLAGS.CACHE
      7303**DCL
B$EXCFR.ISR.FLAGS.EXU
      7303**DCL
B$EXCFR.ISR.FLAGS.MON
      7303**DCL
B$EXCFR.ISR.FLAGS.PRIV
      7303**DCL
B$EXCFR.ISR.FLAGS.READ
      7303**DCL
B$EXCFR.ISR.FLAGS.SAVE
      7303**DCL
B$EXCFR.ISR.FLAGS.SEGMENT
      7303**DCL
B$EXCFR.ISR.FLAGS.WRITE
      7303**DCL
B$EXCFR.ISR.TYPE
      7304**DCL
B$EXCFR.ISR.WSR
      7304**DCL
B$EXCFR.IS_SEGID
      7302**DCL
PL6.E3A0      #001=TOR$FAULTS File=TOR$FAULTS.:E05TSI                            WED 07/30/97 06:32 Page:207
B$EXCFR.LSR
      7306**DCL
B$EXCFR.LSR.BASE
      7307**DCL
B$EXCFR.LSR.BOUND
      7306**DCL
B$EXCFR.LSR.FLAGS
      7306**DCL
B$EXCFR.LSR.FLAGS.BOUND
      7307**DCL
B$EXCFR.LSR.FLAGS.CACHE
      7306**DCL
B$EXCFR.LSR.FLAGS.EXU
      7306**DCL
B$EXCFR.LSR.FLAGS.MON
      7306**DCL
B$EXCFR.LSR.FLAGS.PRIV
      7306**DCL
B$EXCFR.LSR.FLAGS.READ
      7306**DCL
B$EXCFR.LSR.FLAGS.SAVE
      7306**DCL
B$EXCFR.LSR.FLAGS.SEGMENT
      7307**DCL
B$EXCFR.LSR.FLAGS.WRITE
      7306**DCL
B$EXCFR.LSR.TYPE
      7307**DCL
B$EXCFR.LSR.WSR
      7307**DCL
B$EXCFR.P#
      7313**DCL
B$EXCFR.PRS
      7309**DCL
B$EXCFR.PSR
      7307**DCL
PL6.E3A0      #001=TOR$FAULTS File=TOR$FAULTS.:E05TSI                            WED 07/30/97 06:32 Page:208
B$EXCFR.PSR.BASE
      7309**DCL
B$EXCFR.PSR.BOUND
      7307**DCL
B$EXCFR.PSR.FLAGS
      7307**DCL
B$EXCFR.PSR.FLAGS.BOUND
      7308**DCL
B$EXCFR.PSR.FLAGS.CACHE
      7308**DCL
B$EXCFR.PSR.FLAGS.EXU
      7308**DCL
B$EXCFR.PSR.FLAGS.MON
      7308**DCL
B$EXCFR.PSR.FLAGS.PRIV
      7308**DCL
B$EXCFR.PSR.FLAGS.READ
      7307**DCL
B$EXCFR.PSR.FLAGS.SAVE
      7308**DCL
B$EXCFR.PSR.FLAGS.SEGMENT
      7308**DCL
B$EXCFR.PSR.FLAGS.WRITE
      7308**DCL
B$EXCFR.PSR.TYPE
      7309**DCL
B$EXCFR.PSR.WSR
      7308**DCL
B$EXCFR.REGS.A
      7309**DCL
B$EXCFR.REGS.E
      7310**DCL
B$EXCFR.REGS.Q
      7309**DCL
B$EXCFR.REGS.XREG
      7309**DCL
PL6.E3A0      #001=TOR$FAULTS File=TOR$FAULTS.:E05TSI                            WED 07/30/97 06:32 Page:209
B$EXCFR.RVA
      7302**DCL
B$EXCFR.SCR
      7302**DCL
B$EXCFR.SSF
      7301**DCL
B$EXCFR.U1
      7310**DCL
B$FLT
      7316**DCL
B$FLT.BRANCH_MODE
      7321**DCL
B$FLT.CPU_TYPE
      7321**DCL
B$FLT.CU_HR
      7330**DCL
B$FLT.DU_HR
      7330**DCL
B$FLT.ERR
      7325**DCL
B$FLT.ERR.CODE
      7326**DCL
B$FLT.ERR.FCG
      7325**DCL
B$FLT.ERR.MID
      7325**DCL
B$FLT.ERR.MON
      7325**DCL
B$FLT.ERR.SEV
      7326**DCL
B$FLT.FLTREG
      7321**DCL
B$FLT.FLTREG.CMD_SLAVE
      7322**DCL
B$FLT.FLTREG.CON_PORT_A
      7323**DCL
PL6.E3A0      #001=TOR$FAULTS File=TOR$FAULTS.:E05TSI                            WED 07/30/97 06:32 Page:210
B$FLT.FLTREG.CON_PORT_B
      7323**DCL
B$FLT.FLTREG.CON_PORT_C
      7323**DCL
B$FLT.FLTREG.CON_PORT_D
      7323**DCL
B$FLT.FLTREG.CSH_DIR_PRTY
      7324**DCL
B$FLT.FLTREG.CSH_IA_STORE
      7325**DCL
B$FLT.FLTREG.CSH_PRTY_BLK_LD
      7325**DCL
B$FLT.FLTREG.CSH_STORE_PRTY
      7324**DCL
B$FLT.FLTREG.IA_PORT_A
      7324**DCL
B$FLT.FLTREG.IA_PORT_B
      7324**DCL
B$FLT.FLTREG.IA_PORT_C
      7324**DCL
B$FLT.FLTREG.IA_PORT_D
      7324**DCL
B$FLT.FLTREG.IPR_ADDR
      7321**DCL
B$FLT.FLTREG.IPR_EIS
      7322**DCL
B$FLT.FLTREG.IPR_OPC
      7321**DCL
B$FLT.FLTREG.IPR_OTHER
      7322**DCL
B$FLT.FLTREG.ONC_PROC_ERR_1
      7323**DCL
B$FLT.FLTREG.ONC_PROC_ERR_2
      7323**DCL
B$FLT.FLTREG.PRTY_LOWER
      7322**DCL
PL6.E3A0      #001=TOR$FAULTS File=TOR$FAULTS.:E05TSI                            WED 07/30/97 06:32 Page:211
B$FLT.FLTREG.PRTY_UPPER
      7322**DCL
B$FLT.FLTREG.STR_BND
      7322**DCL
B$FLT.FLTREG.STR_NEA
      7322**DCL
B$FLT.OU_HR
      7330**DCL
B$FLT.P#
      7330**DCL
B$FLT.PORT#
      7321**DCL
B$FLT.SSFRAME
      7318**DCL
B$FLT.SSFRAME.ECC
      7318**DCL
B$FLT.SSFRAME.FCODE
      7318**DCL
B$FLT.SSFRAME.YES
      7318**DCL
B$FLT.SUBC
      7321**DCL
B$FLT.VU_HR
      7330**DCL
B$TCB
      7368**DCL
B$TCB.CURRSZ
      7368**DCL
B$TCB.TCBAVSZ
      7368**DCL
BRK_WAIT_FPT.UETIME_ IN PROCEDURE TOR$MME_GEROUT
      7872**DCL
BRK_WAIT_FPT.V.UNITS# IN PROCEDURE TOR$MME_GEROUT
      7873**DCL
BRK_WAIT_FPT.V.UTYPE# IN PROCEDURE TOR$MME_GEROUT
      7873**DCL
PL6.E3A0      #001=TOR$FAULTS File=TOR$FAULTS.:E05TSI                            WED 07/30/97 06:32 Page:212
BRK_WAIT_FPT.V_ IN PROCEDURE TOR$MME_GEROUT
      7872**DCL
BUFFER_PTR IN PROCEDURE READ
      7950**DCL
BUF_ADDR_FORMAT IN PROCEDURE SERVICE_WRITE_REQ
      8435**DCL
BUF_ADDR_FORMAT.SEGID IN PROCEDURE SERVICE_WRITE_REQ
      8437**DCL
CONSOLE_FPT
      7462**DCL
CONSOLE_FPT.BUF_.BOUND
      7462**DCL
CONSOLE_FPT.BUF_.BUF$
      7464**DCL
CONSOLE_FPT.IDBUF_
      7464**DCL
CONSOLE_FPT.KEY_
      7462**DCL
CONSOLE_FPT.V.DCB#
      7465**DCL
CONSOLE_FPT.V.DVBYTE
      7470**DCL
CONSOLE_FPT.V.DVBYTE.BIN#
      7471**DCL
CONSOLE_FPT.V.DVBYTE.BP#
      7471**DCL
CONSOLE_FPT.V.DVBYTE.CONT#
      7473**DCL
CONSOLE_FPT.V.DVBYTE.NODAT#
      7472**DCL
CONSOLE_FPT.V.DVBYTE.REREAD#
      7471**DCL
CONSOLE_FPT.V.DVBYTE.RRR#
      7472**DCL
CONSOLE_FPT.V.DVBYTE.TOP#
      7470**DCL
PL6.E3A0      #001=TOR$FAULTS File=TOR$FAULTS.:E05TSI                            WED 07/30/97 06:32 Page:213
CONSOLE_FPT.V.DVBYTE.TRANS#
      7472**DCL
CONSOLE_FPT.V.EVENT#
      7470**DCL
CONSOLE_FPT.V.FULL#
      7467**DCL
CONSOLE_FPT.V.ID#
      7466**DCL
CONSOLE_FPT.V.IOERROK#
      7469**DCL
CONSOLE_FPT.V.KEYTYPE#
      7469**DCL
CONSOLE_FPT.V.NEWKEY#
      7468**DCL
CONSOLE_FPT.V.NOTIME#
      7468**DCL
CONSOLE_FPT.V.ODFNC#
      7474**DCL
CONSOLE_FPT.V.ONEWKEY#
      7467**DCL
CONSOLE_FPT.V.REWRITE#
      7468**DCL
CONSOLE_FPT.V.SEED#
      7470**DCL
CONSOLE_FPT.V.WAIT#
      7465**DCL
CONSOLE_FPT.V_
      7462**DCL
CONTROL_CODE IN PROCEDURE TOR$MME_TADIOD
      8225**DCL
CRLF_.CR IN PROCEDURE BREAK_MESSAGE
      8458**DCL
CRLF_.LF IN PROCEDURE BREAK_MESSAGE
      8459**DCL
DCW_DATA_PTR_FORMAT.ID IN PROCEDURE TOR$MME_TADIOD
      8210**DCL
PL6.E3A0      #001=TOR$FAULTS File=TOR$FAULTS.:E05TSI                            WED 07/30/97 06:32 Page:214
DCW_LIST_PTR_FORMAT.ID IN PROCEDURE TOR$MME_TADIOD
      8215**DCL
DCW_WORD.CHAR_POSITION IN PROCEDURE TOR$MME_TADIOD
      8219**DCL
F$DCB
      6128**DCL
F$DCB.ACCT
      6138**DCL
F$DCB.ACS
      6145**DCL
F$DCB.AFTRBLK
      6160**DCL
F$DCB.AGE
      6172**DCL
F$DCB.ALTKEYX
      6151**DCL
F$DCB.AMFLG
      6157**DCL
F$DCB.AMFLG.ACCF
      6157**DCL
F$DCB.AMFLG.ACSF
      6157**DCL
F$DCB.AMFLG.INSF
      6157**DCL
F$DCB.AMFLG.PROF
      6158**DCL
F$DCB.AMFLG.SNLF
      6158**DCL
F$DCB.AMFLG.USRF
      6158**DCL
F$DCB.AMR
      6141**DCL
F$DCB.AMRSETSTA
      6140**DCL
F$DCB.ANSISPANSEQ
      6155**DCL
PL6.E3A0      #001=TOR$FAULTS File=TOR$FAULTS.:E05TSI                            WED 07/30/97 06:32 Page:215
F$DCB.ASN
      6143**DCL
F$DCB.ATTR.APL
      6147**DCL
F$DCB.ATTR.BIN
      6147**DCL
F$DCB.ATTR.DENS
      6146**DCL
F$DCB.ATTR.GRLGL
      6146**DCL
F$DCB.ATTR.LOWERCASE
      6147**DCL
F$DCB.ATTR.NATL
      6146**DCL
F$DCB.ATTR.NOXLATE
      6146**DCL
F$DCB.ATTR.TRANSLGL
      6146**DCL
F$DCB.ATTR.TRUOVRPRT
      6146**DCL
F$DCB.ATTR.UPPERCASE
      6146**DCL
F$DCB.AU
      6139**DCL
F$DCB.AUTHFFLG
      6153**DCL
F$DCB.AUTHFFLG.AU
      6154**DCL
F$DCB.AUTHFFLG.AURD
      6155**DCL
F$DCB.AUTHFFLG.CREATE
      6154**DCL
F$DCB.AUTHFFLG.DELF
      6154**DCL
F$DCB.AUTHFFLG.DELR
      6154**DCL
PL6.E3A0      #001=TOR$FAULTS File=TOR$FAULTS.:E05TSI                            WED 07/30/97 06:32 Page:216
F$DCB.AUTHFFLG.EXEC
      6154**DCL
F$DCB.AUTHFFLG.NOLIST
      6154**DCL
F$DCB.AUTHFFLG.READ
      6153**DCL
F$DCB.AUTHFFLG.REATTR
      6154**DCL
F$DCB.AUTHFFLG.TCTL
      6155**DCL
F$DCB.AUTHFFLG.UPD
      6154**DCL
F$DCB.AUTHFFLG.WNEW
      6154**DCL
F$DCB.BADARS
      6156**DCL
F$DCB.BFR
      6172**DCL
F$DCB.BFR.BUFUP
      6172**DCL
F$DCB.BFR.BUFX
      6173**DCL
F$DCB.BFR.CHNG
      6172**DCL
F$DCB.BFR.CVM
      6173**DCL
F$DCB.BFR.DA
      6173**DCL
F$DCB.BFR.SCRUB
      6172**DCL
F$DCB.BFR1
      6173**DCL
F$DCB.BFR1.CX
      6174**DCL
F$DCB.BFR1.FLAGS
      6173**DCL
PL6.E3A0      #001=TOR$FAULTS File=TOR$FAULTS.:E05TSI                            WED 07/30/97 06:32 Page:217
F$DCB.BFR1.FLAGS.ONE_WORD_HEADER
      6173**DCL
F$DCB.BFR1.SIZ
      6173**DCL
F$DCB.BLKL
      6143**DCL
F$DCB.BLKLEN
      6166**DCL
F$DCB.BLOCKED
      6142**DCL
F$DCB.BOL
      6144**DCL
F$DCB.BUPF
      6131**DCL
F$DCB.BUPM
      6142**DCL
F$DCB.BYTESLEFT
      6164**DCL
F$DCB.CACHE
      6160**DCL
F$DCB.CBUFNUM
      6164**DCL
F$DCB.CFU$
      6162**DCL
F$DCB.CHAIN
      6148**DCL
F$DCB.CHANTIME
      6148**DCL
F$DCB.CNVRT
      6140**DCL
F$DCB.CODE16$
      6152**DCL
F$DCB.COMP
      6141**DCL
F$DCB.CONNCT
      6147**DCL
PL6.E3A0      #001=TOR$FAULTS File=TOR$FAULTS.:E05TSI                            WED 07/30/97 06:32 Page:218
F$DCB.CONT
      6160**DCL
F$DCB.CRECNO
      6165**DCL
F$DCB.CRECX
      6164**DCL
F$DCB.CSEED
      6165**DCL
F$DCB.CTG
      6141**DCL
F$DCB.CTLCMDIN
      6169**DCL
F$DCB.CVOL
      6142**DCL
F$DCB.CWORD
      6170**DCL
F$DCB.CX
      6170**DCL
F$DCB.DBGDCBNO
      6143**DCL
F$DCB.DBGSYSID
      6143**DCL
F$DCB.DCB#
      6155**DCL
F$DCB.DCBNAME
      6174**DCL
F$DCB.DCBNAME.N
      6175**DCL
F$DCB.DCBNAME.S
      6174**DCL
F$DCB.DCBNAME.X
      6174**DCL
F$DCB.DCT$
      6150**DCL
F$DCB.DDEV
      6134**DCL
PL6.E3A0      #001=TOR$FAULTS File=TOR$FAULTS.:E05TSI                            WED 07/30/97 06:32 Page:219
F$DCB.DDEV.CP
      6134**DCL
F$DCB.DDEV.GR
      6134**DCL
F$DCB.DDEV.IC
      6134**DCL
F$DCB.DDEV.LP
      6134**DCL
F$DCB.DDEV.UCOUT
      6134**DCL
F$DCB.DDEV.XEQ
      6134**DCL
F$DCB.DECRYPT
      6168**DCL
F$DCB.DENSITY
      6148**DCL
F$DCB.DESC
      6135**DCL
F$DCB.DESC.ACTIVE
      6136**DCL
F$DCB.DESC.ARCHIVE
      6136**DCL
F$DCB.DESC.BAD
      6136**DCL
F$DCB.DESC.BUF
      6135**DCL
F$DCB.DESC.BUPM
      6136**DCL
F$DCB.DESC.DELF
      6135**DCL
F$DCB.DESC.FETCH
      6136**DCL
F$DCB.DESC.NBUF
      6136**DCL
F$DCB.DESC.NOLIST
      6135**DCL
PL6.E3A0      #001=TOR$FAULTS File=TOR$FAULTS.:E05TSI                            WED 07/30/97 06:32 Page:220
F$DCB.DESC.ODSTOW
      6135**DCL
F$DCB.DESC.QS
      6136**DCL
F$DCB.DESC.TERMINATE
      6136**DCL
F$DCB.DESC.TPB
      6136**DCL
F$DCB.DEVADR
      6150**DCL
F$DCB.DEVADR.CHAN
      6151**DCL
F$DCB.DEVADR.DVN
      6150**DCL
F$DCB.DEVADR.IOM
      6151**DCL
F$DCB.DISP
      6143**DCL
F$DCB.DQH$
      6149**DCL
F$DCB.DVBYTE
      6131**DCL
F$DCB.DVBYTE.BIN
      6131**DCL
F$DCB.DVBYTE.TOP
      6131**DCL
F$DCB.DVBYTE.TRANS
      6131**DCL
F$DCB.DVBYTE.VFC
      6131**DCL
F$DCB.DVFC
      6149**DCL
F$DCB.DVTYPE
      6142**DCL
F$DCB.EBCDIC
      6140**DCL
PL6.E3A0      #001=TOR$FAULTS File=TOR$FAULTS.:E05TSI                            WED 07/30/97 06:32 Page:221
F$DCB.ENQF
      6160**DCL
F$DCB.EOMVAL
      6132**DCL
F$DCB.EOMVAL.VALUE
      6132**DCL
F$DCB.EOMVAL.VFLG
      6132**DCL
F$DCB.EOP
      6157**DCL
F$DCB.EVENT
      6152**DCL
F$DCB.EXIST
      6141**DCL
F$DCB.EXPIRE
      6144**DCL
F$DCB.FCD
      6141**DCL
F$DCB.FCI
      6141**DCL
F$DCB.FCN
      6165**DCL
F$DCB.FCN.CNT
      6165**DCL
F$DCB.FCN.F
      6165**DCL
F$DCB.FDCM
      6165**DCL
F$DCB.FEPIO
      6171**DCL
F$DCB.FEPIO.BPP
      6172**DCL
F$DCB.FEPIO.BUFX
      6172**DCL
F$DCB.FEPIO.EVENT
      6171**DCL
PL6.E3A0      #001=TOR$FAULTS File=TOR$FAULTS.:E05TSI                            WED 07/30/97 06:32 Page:222
F$DCB.FEPIO.KEYX
      6171**DCL
F$DCB.FEPIO.KPP
      6172**DCL
F$DCB.FEPIO2
      6174**DCL
F$DCB.FEPIO3
      6174**DCL
F$DCB.FEPSIZ
      6170**DCL
F$DCB.FEPSIZ.BUF
      6171**DCL
F$DCB.FEPSIZ.KEY
      6171**DCL
F$DCB.FEXT
      6156**DCL
F$DCB.FEXTX
      6144**DCL
F$DCB.FFLG
      6132**DCL
F$DCB.FFLG.AU
      6134**DCL
F$DCB.FFLG.AURD
      6134**DCL
F$DCB.FFLG.CREATE
      6133**DCL
F$DCB.FFLG.DELF
      6133**DCL
F$DCB.FFLG.DELR
      6133**DCL
F$DCB.FFLG.EXEC
      6133**DCL
F$DCB.FFLG.NOLIST
      6133**DCL
F$DCB.FFLG.READ
      6133**DCL
PL6.E3A0      #001=TOR$FAULTS File=TOR$FAULTS.:E05TSI                            WED 07/30/97 06:32 Page:223
F$DCB.FFLG.REATTR
      6133**DCL
F$DCB.FFLG.TCTL
      6134**DCL
F$DCB.FFLG.UPD
      6133**DCL
F$DCB.FFLG.WNEW
      6133**DCL
F$DCB.FIELDX
      6152**DCL
F$DCB.FLPW
      6128**DCL
F$DCB.FMOD
      6157**DCL
F$DCB.FPRGX
      6152**DCL
F$DCB.FPSTR
      6166**DCL
F$DCB.FTAM
      6161**DCL
F$DCB.FTAM.CTX
      6161**DCL
F$DCB.FTAM.PMME
      6162**DCL
F$DCB.FTAM.USR
      6161**DCL
F$DCB.FUN
      6142**DCL
F$DCB.GDISP
      6167**DCL
F$DCB.GHSTACS
      6151**DCL
F$DCB.GRPOS
      6160**DCL
F$DCB.GTYP
      6157**DCL
PL6.E3A0      #001=TOR$FAULTS File=TOR$FAULTS.:E05TSI                            WED 07/30/97 06:32 Page:224
F$DCB.HASH
      6165**DCL
F$DCB.IASN
      6169**DCL
F$DCB.ID
      6171**DCL
F$DCB.ID.DA
      6171**DCL
F$DCB.ID.GX
      6171**DCL
F$DCB.IFMT
      6168**DCL
F$DCB.IGNOREFSN
      6139**DCL
F$DCB.INDX
      6166**DCL
F$DCB.IOERROK
      6140**DCL
F$DCB.IORG
      6164**DCL
F$DCB.IRRECX
      6156**DCL
F$DCB.IWL
      6169**DCL
F$DCB.IWL.HDRIWL
      6169**DCL
F$DCB.IWL.SEQIWL
      6169**DCL
F$DCB.IWL.TABIWL
      6169**DCL
F$DCB.JRNLBYPASS
      6151**DCL
F$DCB.KEYL
      6145**DCL
F$DCB.KEYTYPE
      6152**DCL
PL6.E3A0      #001=TOR$FAULTS File=TOR$FAULTS.:E05TSI                            WED 07/30/97 06:32 Page:225
F$DCB.KEYX
      6144**DCL
F$DCB.KFIELDX
      6153**DCL
F$DCB.LASTKEY
      6161**DCL
F$DCB.LASTKEY$
      6161**DCL
F$DCB.LDCTX
      6150**DCL
F$DCB.LDFLG
      6159**DCL
F$DCB.LINES
      6149**DCL
F$DCB.LOAD
      6139**DCL
F$DCB.LOGSEC
      6167**DCL
F$DCB.LPOOL
      6162**DCL
F$DCB.LRDL0
      6145**DCL
F$DCB.LSLIDE
      6145**DCL
F$DCB.LSTAOR
      6140**DCL
F$DCB.LSTBLK
      6160**DCL
F$DCB.MAXVOL
      6148**DCL
F$DCB.MEDIA
      6168**DCL
F$DCB.MODCNT
      6167**DCL
F$DCB.MOUNT
      6158**DCL
PL6.E3A0      #001=TOR$FAULTS File=TOR$FAULTS.:E05TSI                            WED 07/30/97 06:32 Page:226
F$DCB.MOVED
      6170**DCL
F$DCB.MPC$
      6150**DCL
F$DCB.MUST_CVOL
      6158**DCL
F$DCB.NAME
      6137**DCL
F$DCB.NAME.C17
      6137**DCL
F$DCB.NAME.C17.CC
      6138**DCL
F$DCB.NAME.L
      6137**DCL
F$DCB.NEW_FSECT
      6158**DCL
F$DCB.OLDIOERR
      6168**DCL
F$DCB.OWNER
      6159**DCL
F$DCB.PASS
      6138**DCL
F$DCB.PASSF
      6140**DCL
F$DCB.PATH
      6155**DCL
F$DCB.PATH.CHAN
      6155**DCL
F$DCB.PATH.IOM
      6155**DCL
F$DCB.PGINGRAN
      6168**DCL
F$DCB.PRIVOPN
      6167**DCL
F$DCB.PSN
      6138**DCL
PL6.E3A0      #001=TOR$FAULTS File=TOR$FAULTS.:E05TSI                            WED 07/30/97 06:32 Page:227
F$DCB.QISS
      6139**DCL
F$DCB.RA
      6159**DCL
F$DCB.RDL0
      6132**DCL
F$DCB.REALSPAN
      6168**DCL
F$DCB.RECL
      6143**DCL
F$DCB.RESNT
      6138**DCL
F$DCB.RESNT.NUM
      6139**DCL
F$DCB.RESNT.TYP
      6138**DCL
F$DCB.RETRYCNT
      6135**DCL
F$DCB.RPOS
      6159**DCL
F$DCB.SEED
      6156**DCL
F$DCB.SEGX
      6167**DCL
F$DCB.SEQ
      6149**DCL
F$DCB.SEQCOL
      6149**DCL
F$DCB.SEQID
      6149**DCL
F$DCB.SETSTA$
      6137**DCL
F$DCB.SEZ_OK
      6158**DCL
F$DCB.SHARE
      6141**DCL
PL6.E3A0      #001=TOR$FAULTS File=TOR$FAULTS.:E05TSI                            WED 07/30/97 06:32 Page:228
F$DCB.SHARED
      6157**DCL
F$DCB.SLIDE
      6132**DCL
F$DCB.SPAN
      6159**DCL
F$DCB.SPANNED
      6142**DCL
F$DCB.SPARE
      6145**DCL
F$DCB.STARF
      6157**DCL
F$DCB.STARTX
      6153**DCL
F$DCB.STARX
      6159**DCL
F$DCB.STR
      6166**DCL
F$DCB.SYSID
      6144**DCL
F$DCB.TAPTYP
      6163**DCL
F$DCB.TAPTYP.CP6F
      6163**DCL
F$DCB.TAPTYP.HAVLASTKEY
      6163**DCL
F$DCB.TAPTYP.MANAGED
      6163**DCL
F$DCB.TAPTYP.NOCVOL
      6163**DCL
F$DCB.TAPTYP.PASTFM
      6163**DCL
F$DCB.TAPTYP.RWASC
      6163**DCL
F$DCB.TAPTYP.USRBUF
      6163**DCL
PL6.E3A0      #001=TOR$FAULTS File=TOR$FAULTS.:E05TSI                            WED 07/30/97 06:32 Page:229
F$DCB.TDALVL
      6162**DCL
F$DCB.TDEXTST$
      6137**DCL
F$DCB.TDFLG
      6147**DCL
F$DCB.TDFLG.SDSK
      6147**DCL
F$DCB.TDSTAT
      6139**DCL
F$DCB.TRNC
      6160**DCL
F$DCB.TYC
      6128**DCL
F$DCB.TYC.BLNKTP
      6128**DCL
F$DCB.TYC.BOF
      6128**DCL
F$DCB.TYC.BOT
      6128**DCL
F$DCB.TYC.CDALRT
      6130**DCL
F$DCB.TYC.CGCRCW
      6130**DCL
F$DCB.TYC.CGCWRV
      6131**DCL
F$DCB.TYC.CGFULL
      6130**DCL
F$DCB.TYC.CGKEYV
      6130**DCL
F$DCB.TYC.CGLWRV
      6130**DCL
F$DCB.TYC.DACT
      6129**DCL
F$DCB.TYC.DI
      6129**DCL
PL6.E3A0      #001=TOR$FAULTS File=TOR$FAULTS.:E05TSI                            WED 07/30/97 06:32 Page:230
F$DCB.TYC.EGV
      6128**DCL
F$DCB.TYC.EOD
      6129**DCL
F$DCB.TYC.EOF
      6129**DCL
F$DCB.TYC.EOT
      6128**DCL
F$DCB.TYC.FRAW
      6130**DCL
F$DCB.TYC.IOERR
      6129**DCL
F$DCB.TYC.LAST
      6130**DCL
F$DCB.TYC.LD
      6129**DCL
F$DCB.TYC.LDISC
      6129**DCL
F$DCB.TYC.MTRAP
      6129**DCL
F$DCB.TYC.OPER
      6128**DCL
F$DCB.TYC.PROT
      6130**DCL
F$DCB.TYC.TIMO
      6129**DCL
F$DCB.TYC.XTRARD
      6130**DCL
F$DCB.TYPE
      6138**DCL
F$DCB.UB$
      6166**DCL
F$DCB.UBYTES
      6166**DCL
F$DCB.UCOUT
      6163**DCL
PL6.E3A0      #001=TOR$FAULTS File=TOR$FAULTS.:E05TSI                            WED 07/30/97 06:32 Page:231
F$DCB.UNIQUEBLD
      6169**DCL
F$DCB.UOPT
      6140**DCL
F$DCB.UPDCNT
      6169**DCL
F$DCB.VFCCHAR
      6152**DCL
F$DCB.VOL
      6148**DCL
F$DCB.VOLACCESS
      6140**DCL
F$DCB.WAIT
      6160**DCL
F$DCB.WCDATA
      6162**DCL
F$DCB.WIDTH
      6135**DCL
F$DCB.WRCMP
      6162**DCL
F$DCB.WSR
      6145**DCL
F$DCB.XTEND
      6141**DCL
F$DCB.XTNSIZE
      6145**DCL
GEMAP_PAR_TABLE IN PROCEDURE TOR$MME_GEROUT
      7831**DCL
INPUT_BUFFER IN PROCEDURE READ
      7953**DCL
IO_BUFFER
      7627**DCL
IO_BUFFER.READ_DATA
      7646**DCL
M$ACCT
      5532**DCL-ENT
PL6.E3A0      #001=TOR$FAULTS File=TOR$FAULTS.:E05TSI                            WED 07/30/97 06:32 Page:232
M$ACTIVATE
      5535**DCL-ENT
M$ALIB
      5528**DCL-ENT
M$ASUSER
      5530**DCL-ENT
M$ATTACH
      5537**DCL-ENT
M$BADPP
      5555**DCL-ENT
M$CGCTL
      5536**DCL-ENT
M$CGINFO
      5536**DCL-ENT
M$CHECK
      5517**DCL-ENT
M$CHGUNIT
      5575**DCL-ENT
M$CLOSE
      5515**DCL-ENT
M$CLRSTK
      5573**DCL-ENT
M$CMDVAR
      5584**DCL-ENT
M$CONFIG
      5545**DCL-ENT
M$CORRES
      5520**DCL-ENT
M$CPEXIT
      5529**DCL-ENT
M$CVM
      5553**DCL-ENT
M$CVOL
      5518**DCL-ENT
M$DCLFLD
      5545**DCL-ENT
PL6.E3A0      #001=TOR$FAULTS File=TOR$FAULTS.:E05TSI                            WED 07/30/97 06:32 Page:233
M$DEACTIVATE
      5535**DCL-ENT
M$DELREC
      5517**DCL-ENT
M$DEQ
      5582**DCL-ENT
M$DETACH
      5537**DCL-ENT
M$DEVICE
      5519**DCL-ENT
M$DISPLAY
      5582**DCL-ENT
M$DISPRES
      5522**DCL-ENT
M$DLIB
      5528**DCL-ENT
M$DRIBBLE
      5545**DCL-ENT
M$DRTN
      5573**DCL-ENT
M$DSUSER
      5530**DCL-ENT
M$ENQ
      5581**DCL-ENT
M$EOM
      5540**DCL-ENT
M$ERASE
      5546**DCL-ENT
M$ERR
      5527**DCL-ENT
M$ERRMSG
      5578**DCL-ENT
M$EVENT
      5570**DCL-ENT
M$EXHUME
      5579**DCL-ENT
PL6.E3A0      #001=TOR$FAULTS File=TOR$FAULTS.:E05TSI                            WED 07/30/97 06:32 Page:234
M$EXIT
      5527**DCL-ENT
M$EXTEND
      5519**DCL-ENT
M$FDP
      5551**DCL-ENT
M$FDS
      5550**DCL-ENT
M$FEBOOT
      5543**DCL-ENT
M$FECTL
      5544**DCL-ENT
M$FEDUMP
      5543**DCL-ENT
M$FID
      5578**DCL-ENT
M$FINDPROC
      5532**DCL-ENT
M$FSUSER
      5530**DCL-ENT
M$FVP
      5552**DCL-ENT
M$FWCG
      5536**DCL-ENT
M$GBPL
      5556**DCL-ENT
M$GDDL
      5552**DCL-ENT
M$GDP
      5551**DCL-ENT
M$GDS
      5550**DCL-ENT
M$GETDCB
      5521**DCL-ENT
M$GETMOUSE
      5561**DCL-ENT
PL6.E3A0      #001=TOR$FAULTS File=TOR$FAULTS.:E05TSI                            WED 07/30/97 06:32 Page:235
M$GETPM
      5562**DCL-ENT
M$GJOB
      5580**DCL-ENT
M$GLINEATTR
      5540**DCL-ENT
M$GOODPP
      5555**DCL-ENT
M$GPLATEN
      5548**DCL-ENT
M$GPROMPT
      5547**DCL-ENT
M$GTRMATTR
      5541**DCL-ENT
M$GTRMCTL
      5539**DCL-ENT
M$GTRMTAB
      5542**DCL-ENT
M$GVP
      5551**DCL-ENT
M$HELP
      5578**DCL-ENT
M$INT
      5570**DCL-ENT
M$INTRTN
      5531**DCL-ENT
M$IOQ
      5566**DCL-ENT
M$JOBSTATS
      5580**DCL-ENT
M$KEYIN
      5520**DCL-ENT
M$LDEV
      5515**DCL-ENT
M$LDTRC
      5528**DCL-ENT
PL6.E3A0      #001=TOR$FAULTS File=TOR$FAULTS.:E05TSI                            WED 07/30/97 06:32 Page:236
M$LIMIT
      5521**DCL-ENT
M$LINES
      5520**DCL-ENT
M$LINK
      5527**DCL-ENT
M$LO
      7550**DCL
M$MADMUCK
      5523**DCL-ENT
M$MAKUSER
      5554**DCL-ENT
M$MBS
      5522**DCL-ENT
M$MDFFLD
      5546**DCL-ENT
M$MERC
      5571**DCL-ENT
M$MERCS
      5572**DCL-ENT
M$MIRROR
      5566**DCL-ENT
M$MONINFO
      5583**DCL-ENT
M$MPL
      5556**DCL-ENT
M$NODEINFO
      5547**DCL-ENT
M$NXTUSR
      5581**DCL-ENT
M$OCMSG
      5579**DCL-ENT
M$OLAY
      5527**DCL-ENT
M$OPEN
      5515**DCL-ENT
PL6.E3A0      #001=TOR$FAULTS File=TOR$FAULTS.:E05TSI                            WED 07/30/97 06:32 Page:237
M$PAS
      5556**DCL-ENT
M$PATHCON
      5579**DCL-ENT
M$PDS
      5550**DCL-ENT
M$PFIL
      5517**DCL-ENT
M$PLATEN
      5541**DCL-ENT
M$PRECORD
      5519**DCL-ENT
M$PROCNAME
      5532**DCL-ENT
M$PROFILE
      5543**DCL-ENT
M$PROMPT
      5539**DCL-ENT
M$RACST
      5523**DCL-ENT
M$RDSYSLOG
      5564**DCL-ENT
M$RELDCB
      5521**DCL-ENT
M$RELRES
      5522**DCL-ENT
M$RELSTARF
      5524**DCL-ENT
M$REM
      5524**DCL-ENT
M$RENV
      5571**DCL-ENT
M$REQUIRE
      5523**DCL-ENT
M$RETRY
      5572**DCL-ENT
PL6.E3A0      #001=TOR$FAULTS File=TOR$FAULTS.:E05TSI                            WED 07/30/97 06:32 Page:238
M$RETRYS
      5572**DCL-ENT
M$REW
      5518**DCL-ENT
M$RLSFLD
      5546**DCL-ENT
M$RPRIV
      5574**DCL-ENT
M$RSPP
      5553**DCL-ENT
M$RSWITCH
      5575**DCL-ENT
M$RUE
      5581**DCL-ENT
M$SAD
      5554**DCL-ENT
M$SAVE
      5530**DCL-ENT
M$SCON
      5531**DCL-ENT
M$SCREECH
      5529**DCL-ENT
M$SENV
      5571**DCL-ENT
M$SETFMA
      5515**DCL-ENT
M$SETFP
      5544**DCL-ENT
M$SINPUT
      5542**DCL-ENT
M$SLCFLD
      5547**DCL-ENT
M$SMOUSE
      5561**DCL-ENT
M$SMPRT
      5553**DCL-ENT
PL6.E3A0      #001=TOR$FAULTS File=TOR$FAULTS.:E05TSI                            WED 07/30/97 06:32 Page:239
M$SPRIV
      5574**DCL-ENT
M$SSC
      5554**DCL-ENT
M$SSWITCH
      5574**DCL-ENT
M$STATE
      5583**DCL-ENT
M$STD
      5555**DCL-ENT
M$STIMER
      5569**DCL-ENT
M$STLPP
      5552**DCL-ENT
M$STRAP
      5569**DCL-ENT
M$STRMATTR
      5541**DCL-ENT
M$STRMCTL
      5539**DCL-ENT
M$STRMTAB
      5542**DCL-ENT
M$SYMBIO
      5580**DCL-ENT
M$SYSCON
      5566**DCL-ENT
M$SYSID
      5584**DCL-ENT
M$TDCLOSE
      5565**DCL-ENT
M$TDIO
      5565**DCL-ENT
M$TDOPEN
      5564**DCL-ENT
M$TDREQCPU
      5565**DCL-ENT
PL6.E3A0      #001=TOR$FAULTS File=TOR$FAULTS.:E05TSI                            WED 07/30/97 06:32 Page:240
M$TEMPWROC
      5559**DCL-ENT
M$TRAP
      5569**DCL-ENT
M$TRMISC
      5544**DCL-ENT
M$TRMPRG
      5540**DCL-ENT
M$TRUNC
      5516**DCL-ENT
M$TTIMER
      5569**DCL-ENT
M$UC
      5539**DCL
M$UMPL
      5556**DCL-ENT
M$UNFID
      5578**DCL-ENT
M$UNLATCH
      5535**DCL-ENT
M$UNSHARE
      5532**DCL-ENT
M$USRFIELD
      5575**DCL-ENT
M$VIRTUAL
      5550**DCL-ENT
M$WEOF
      5518**DCL-ENT
M$WRSYSLOG
      5564**DCL-ENT
M$XCON
      5570**DCL-ENT
M$XCONRTN
      5531**DCL-ENT
M$XEQTIME
      5583**DCL-ENT
PL6.E3A0      #001=TOR$FAULTS File=TOR$FAULTS.:E05TSI                            WED 07/30/97 06:32 Page:241
M$XFLUSH
      5524**DCL-ENT
M$XMOUSE
      5561**DCL-ENT
M$XXX
      5527**DCL-ENT
M$YC
      5529**DCL-ENT
MME.INST
      7565**DCL
MME.INST.OP
      7567**DCL
MME_INSTR
      7600**DCL
MREG.E
      7595**DCL
MREG.X0
      7585**DCL
MREG.X1
      7586**DCL
MREG.X2
      7587**DCL
MREG.X3
      7588**DCL
MREG.X4
      7589**DCL
MREG.X5
      7590**DCL
MREG.X6
      7591**DCL
MREG.X7
      7592**DCL
MSG_CODE IN PROCEDURE PROCESS_IO_REQ
      8378**DCL
MSG_PTR IN PROCEDURE BREAK_MESSAGE
      8466**DCL
PL6.E3A0      #001=TOR$FAULTS File=TOR$FAULTS.:E05TSI                            WED 07/30/97 06:32 Page:242
NOR IN PROCEDURE TOR$MME_TADIOD
      8236**DCL
PARAMETER.IO_REQ_BITS.C IN PROCEDURE TOR$MME_TADIOD
      8256**DCL
PARAMETER.IO_REQ_BITS.E IN PROCEDURE TOR$MME_TADIOD
      8252**DCL
PARAMETER.IO_REQ_BITS.M IN PROCEDURE TOR$MME_TADIOD
      8254**DCL
PARAMETER.IO_REQ_BITS.P IN PROCEDURE TOR$MME_TADIOD
      8257**DCL
PARAMETER.IO_REQ_BITS.R IN PROCEDURE TOR$MME_TADIOD
      8253**DCL
PARAMETER.IO_REQ_BITS.S IN PROCEDURE TOR$MME_TADIOD
      8255**DCL
READ_IO.BUF_.BOUND
      7526**DCL
READ_IO.BUF_.BUF$
      7527**DCL
READ_IO.IDBUF_
      7528**DCL
READ_IO.KEY_
      7524**DCL
READ_IO.KEY_.BOUND
      7524**DCL
READ_IO.KEY_.KEY$
      7525**DCL
READ_IO.V.DCB#
      7528**DCL
READ_IO.V.DVBYTE
      7538**DCL
READ_IO.V.DVBYTE.BIN#
      7539**DCL
READ_IO.V.DVBYTE.BP#
      7538**DCL
READ_IO.V.DVBYTE.CONT#
      7541**DCL
PL6.E3A0      #001=TOR$FAULTS File=TOR$FAULTS.:E05TSI                            WED 07/30/97 06:32 Page:243
READ_IO.V.DVBYTE.NODAT#
      7540**DCL
READ_IO.V.DVBYTE.TOP#
      7538**DCL
READ_IO.V.DVBYTE.TRANS#
      7540**DCL
READ_IO.V.DVBYTE.VFC#
      7539**DCL
READ_IO.V.EVENT#
      7537**DCL
READ_IO.V.FULL#
      7530**DCL
READ_IO.V.ID#
      7529**DCL
READ_IO.V.IDS#
      7530**DCL
READ_IO.V.IOERROK#
      7531**DCL
READ_IO.V.KEYCHNG#
      7530**DCL
READ_IO.V.KEYR#
      7529**DCL
READ_IO.V.KEYS#
      7529**DCL
READ_IO.V.KEYTYPE#
      7537**DCL
READ_IO.V.ODFNC#
      7542**DCL
READ_IO.V.RECNUM#
      7542**DCL
READ_IO.V.REREADPOS#
      7543**DCL
READ_IO.V.SEED#
      7538**DCL
READ_IO.V.SINPUTSIZE#
      7542**DCL
PL6.E3A0      #001=TOR$FAULTS File=TOR$FAULTS.:E05TSI                            WED 07/30/97 06:32 Page:244
READ_IO.V.STRPVFC#
      7541**DCL
READ_IO.V.WAIT#
      7528**DCL
READ_IO.V_
      7524**DCL
STATUS IN PROCEDURE TOR$MME_GEROUT
      7856**DCL
STATUS_PTR IN PROCEDURE TOR$MME_GEROUT
      7853**DCL
STATUS_TABLE_PTR IN PROCEDURE TOR$MME_GEROUT
      7836**DCL
TABLE IN PROCEDURE TOR$MME_GEROUT
      7845**DCL
TABLE.WORD_CNT IN PROCEDURE TOR$MME_GEROUT
      7846**DCL
TABLE_PTR IN PROCEDURE TOR$MME_GEROUT
      7842**DCL
TIME_FPT.DATE_ IN PROCEDURE TOR$MME_GETIME
      8058**DCL
TIME_FPT.DATE_.BOUND IN PROCEDURE TOR$MME_GETIME
      8058**DCL
TIME_FPT.DATE_.DATE$ IN PROCEDURE TOR$MME_GETIME
      8059**DCL
TIME_FPT.DAY_ IN PROCEDURE TOR$MME_GETIME
      8061**DCL
TIME_FPT.TIME_ IN PROCEDURE TOR$MME_GETIME
      8060**DCL
TIME_FPT.TIME_.BOUND IN PROCEDURE TOR$MME_GETIME
      8060**DCL
TIME_FPT.TIME_.TIME$ IN PROCEDURE TOR$MME_GETIME
      8061**DCL
TIME_FPT.TSTAMP_ IN PROCEDURE TOR$MME_GETIME
      8061**DCL
TIME_FPT.V.DEST_BASIS# IN PROCEDURE TOR$MME_GETIME
      8063**DCL
PL6.E3A0      #001=TOR$FAULTS File=TOR$FAULTS.:E05TSI                            WED 07/30/97 06:32 Page:245
TIME_FPT.V.SOURCE_BASIS# IN PROCEDURE TOR$MME_GETIME
      8063**DCL
TIME_FPT.V_ IN PROCEDURE TOR$MME_GETIME
      8058**DCL
TOR$FAULTS
        24**PROC
TRTN_FPT.DRS_
      7439**DCL
TRTN_FPT.V.IRBIT#
      7441**DCL
TRTN_FPT.V.IRBIT#.CARRY
      7441**DCL
TRTN_FPT.V.IRBIT#.EXOF
      7441**DCL
TRTN_FPT.V.IRBIT#.EXUF
      7441**DCL
TRTN_FPT.V.IRBIT#.EXUFM
      7442**DCL
TRTN_FPT.V.IRBIT#.HEX
      7442**DCL
TRTN_FPT.V.IRBIT#.MIR
      7442**DCL
TRTN_FPT.V.IRBIT#.MM
      7442**DCL
TRTN_FPT.V.IRBIT#.NEG
      7441**DCL
TRTN_FPT.V.IRBIT#.OF
      7441**DCL
TRTN_FPT.V.IRBIT#.OFM
      7441**DCL
TRTN_FPT.V.IRBIT#.PE
      7442**DCL
TRTN_FPT.V.IRBIT#.PM
      7442**DCL
TRTN_FPT.V.IRBIT#.TR
      7442**DCL
PL6.E3A0      #001=TOR$FAULTS File=TOR$FAULTS.:E05TSI                            WED 07/30/97 06:32 Page:246
TRTN_FPT.V.IRBIT#.TRC
      7442**DCL
TRTN_FPT.V.IRBIT#.ZERO
      7441**DCL
TRTN_FPT.V.SETIR#
      7442**DCL
TRTN_FPT.V_
      7439**DCL
WAIT_FPT IN PROCEDURE TOR$MME_GEWAKE
      8132**DCL
WAIT_FPT.UETIME_ IN PROCEDURE TOR$MME_GEWAKE
      8132**DCL
WAIT_FPT.V.UTYPE# IN PROCEDURE TOR$MME_GEWAKE
      8133**DCL
WAIT_FPT.V_ IN PROCEDURE TOR$MME_GEWAKE
      8132**DCL
WRITE_BUF_VECTOR.FLAGS
      7620**DCL
WRITE_BUF_VECTOR.SEGID
      7625**DCL
WRITE_BUF_VECTOR.V
      7621**DCL
WRITE_BUF_VECTOR_V
      7626**DCL
WRITE_IO.BUF_.BUF$
      7495**DCL
WRITE_IO.IDBUF_
      7495**DCL
WRITE_IO.KEY_
      7493**DCL
WRITE_IO.V.DCB#
      7496**DCL
WRITE_IO.V.DVBYTE
      7501**DCL
WRITE_IO.V.DVBYTE.BIN#
      7502**DCL
PL6.E3A0      #001=TOR$FAULTS File=TOR$FAULTS.:E05TSI                            WED 07/30/97 06:32 Page:247
WRITE_IO.V.DVBYTE.BP#
      7502**DCL
WRITE_IO.V.DVBYTE.CONT#
      7504**DCL
WRITE_IO.V.DVBYTE.NODAT#
      7503**DCL
WRITE_IO.V.DVBYTE.REREAD#
      7502**DCL
WRITE_IO.V.DVBYTE.RRR#
      7503**DCL
WRITE_IO.V.DVBYTE.TOP#
      7501**DCL
WRITE_IO.V.DVBYTE.TRANS#
      7503**DCL
WRITE_IO.V.EVENT#
      7501**DCL
WRITE_IO.V.FULL#
      7498**DCL
WRITE_IO.V.ID#
      7497**DCL
WRITE_IO.V.IOERROK#
      7500**DCL
WRITE_IO.V.KEYTYPE#
      7500**DCL
WRITE_IO.V.NEWKEY#
      7499**DCL
WRITE_IO.V.NOTIME#
      7499**DCL
WRITE_IO.V.ODFNC#
      7505**DCL
WRITE_IO.V.ONEWKEY#
      7498**DCL
WRITE_IO.V.REWRITE#
      7499**DCL
WRITE_IO.V.SEED#
      7501**DCL
PL6.E3A0      #001=TOR$FAULTS File=TOR$FAULTS.:E05TSI                            WED 07/30/97 06:32 Page:248
WRITE_IO.V.WAIT#
      7496**DCL
WRITE_IO.V_
      7493**DCL
