VERSION E05

PL6.E3A0      #001=TOR$TURTLE File=TOR$TURTLE.:E05TSI                            WED 07/30/97 06:34 Page:1
        1        1        /*M* TOR$TURTLE  TURTLE Root Program */
        2        2        /*T***********************************************************/
        3        3        /*T*                                                         */
        4        4        /*T* Copyright (c) Bull HN Information Systems Inc., 1997    */
        5        5        /*T*                                                         */
        6        6        /*T***********************************************************/
        7        7
        8        8        /*X* PLM=3,DCI=6,SQB=N,PRB=N,DTI=5,ENI=0,AND=Y,ECI=0,CSU=3,DIN=3,
        9        9             CTI=8,CRM=109,CRT=1,NLB=N,NTB=Y,MCL=110 */
       10       10
       11       11        /*F* NAME:         TOR$TURTLE
       12       12             PURPOSE:      Calls a system initialization routine that
       13       13                           will initialize all TURTLE variables, tables,
       14       14                           and  flags, plus establish all the exceptional
       15       15                           condition  handler routines.
       16       16             LAST UPDATE:  08/17/82
       17       17        */
       18       18
       19       19        TOR$TURTLE: PROC;
       20       20
       21       21        /* Include Files */
       22       22
       23       23           %INCLUDE CP_6;
       24     5582           %INCLUDE CP_6_SUBS;
       25     6122
       26     6123        /* Data Control Blocks */
       27     6124
       28     6125    1      DCL M$LO DCB;
       29     6126    1      DCL M$SI DCB;
       30     6127           %EJECT;
PL6.E3A0      #001=TOR$TURTLE File=TOR$TURTLE.:E05TSI                            WED 07/30/97 06:34 Page:2
       31     6128        /* Function Parameter Tables */
       32     6129
       33     6130           %FPT_TRAP(FPTN=TRAP_FPT,
       34     6131                     ARITHMETIC=TOR$FAULTS,
       35     6132                     OVERFLOW=TRAP,
       36     6133                     DIVIDE_CHECK=TRAP,
       37     6134                     PROGRAMMED=TOR$FAULTS,
       38     6135                     MME=TRAP,
       39     6136                     DERAIL= TRAP,
       40     6137                     FAULT_TAG=TRAP,
       41     6138                     ERRORS= TOR$FAULTS,
       42     6139                     MEMORY=TRAP,
       43     6140                     COMMAND=TRAP,
       44     6141                     LOCKUP=TRAP,
       45     6142                     IPR=TRAP,
       46     6143                     MISSING_SEG=TRAP,
       47     6144                     MISSING_PAGE=TRAP,
       48     6145                     SECURITY_2=TRAP,
       49     6146                     HISTORY_REGS= YES,
       50     6147                     PMME= TOR$FAULTS);
       51     6170
       52     6171           %FPT_WRITE(FPTN=CONSOLE_FPT,
       53     6172                      DCB=M$LO,
       54     6173                      WAIT= YES,
       55     6174                      STCLASS=STATIC  SYMDEF);
       56     6205           %EJECT ;
PL6.E3A0      #001=TOR$TURTLE File=TOR$TURTLE.:E05TSI                            WED 07/30/97 06:34 Page:3
       57     6206           %FPT_OPEN(FPTN=OPEN_FPT,ORG=TERMINAL,DCB=M$LO);
       58     6315
       59     6316           %FPT_TIME(FPTN=START_FPT,
       60     6317                     SOURCE=CLOCK,
       61     6318                     DEST=LOCAL,
       62     6319                     DATE=DATE_BUF,
       63     6320                     TIME=TIME_BUF);
       64     6339
       65     6340           %FPT_INT (FPTN = INT_FPT,
       66     6341                     UENTRY = TOR$BREAK_HANDLER) ;
       67     6355           %EJECT ;
PL6.E3A0      #001=TOR$TURTLE File=TOR$TURTLE.:E05TSI                            WED 07/30/97 06:34 Page:4
       68     6356        /* Variables */
       69     6357
       70     6358    1      DCL CHAR_COUNT SBIN STATIC ALIGNED;
       71     6359    1      DCL DATE_BUF CHAR(8) STATIC;
       72     6360    1      DCL WRITE_BUF_BCD(0:10)  UBIN(6) STATIC UNAL;
       73     6361    1      DCL WRITE_BUF_ASCII(0:10)  CHAR(1) STATIC UNAL;
       74     6362    1      DCL READ_BUF_ASCII(0:10) CHAR(1) STATIC UNAL;
       75     6363    1      DCL READ_BUF_BCD(0:10)  UBIN(6) STATIC UNAL;
       76     6364    1      DCL TIME_BUF CHAR(11) STATIC;
       77     6365    1      DCL 1 B_VERSION SYMREF CALIGNED,
       78     6366    1            2 LGTH    UBIN BYTE UNAL,
       79     6367    1            2 TEXT    CHAR (11) UNAL ;
       80     6368
       81     6369        /* External Entry Points */
       82     6370
       83     6371    1      DCL TURTLE_ENTRY$                 ENTRY ;
       84     6372    1      DCL TOR$BREAK_HANDLER             ENTRY ASYNC ;
       85     6373    1      DCL TOR$FAULTS                    ENTRY ASYNC ;
       86     6374
       87     6375        /* ***************
       88     6376           ** Main Code **
       89     6377           *************** */
       90     6378
       91     6379    1      CALL TOR$INITIALIZE ;
       92     6380    1      CALL TOR$START_UP;
       93     6381    1      CALL TURTLE_ENTRY$ ;
       94     6382
       95     6383        /* END TOR$TURTLE */
       96     6384        %EJECT;
PL6.E3A0      #001=TOR$TURTLE File=TOR$TURTLE.:E05TSI                            WED 07/30/97 06:34 Page:5
       97     6385        /*D* NAME:         TOR$CONSOLE_OUT_PTR
       98     6386                           TOR$WRAPUP_PTR
       99     6387                           TOR$EXIT_PTR
      100     6388         **********************************************************
      101     6389         **     SATISFYING ENTRY POINTS OF INTERNAL              **
      102     6390         **     PROCEDURES CALLED FROM EXTERNALLY DECLARED       **
      103     6391         **     PROCEDURES                                       **
      104     6392         **********************************************************
      105     6393        */
      106     6394
      107     6395    1   TOR$CONSOLE_OUT_PTR: ENTRY;
      108     6396    1      CALL TOR$CONSOLE_OUT;
      109     6397    1      RETURN;
      110     6398
      111     6399    1   TOR$WRAPUP_PTR: ENTRY;
      112     6400    1      CALL TOR$WRAPUP;
      113     6401
      114     6402    1   TOR$EXIT_PTR: ENTRY;
      115     6403    1      CALL TOR$EXIT;
      116     6404        %EJECT;
PL6.E3A0      #001=TOR$TURTLE File=TOR$TURTLE.:E05TSI                            WED 07/30/97 06:34 Page:6
      117     6405        /*F* NAME:         TOR$INITIALIZE
      118     6406             PURPOSE:      Does all the required system initialization
      119     6407                           required for the TURTLE program.
      120     6408                           the main sequence of events in this routine is the
      121     6409                           establishing of the Exceptional condition handlers
      122     6410                           with the aid of CP6 Monitor services routines.
      123     6411                             Conditions handled:
      124     6412                              1.) Hardware, and programed faults.
      125     6413                              2.) BREAK Key depression.
      126     6414                              3.) Line disconnect and exit cleanup.
      127     6415        */
      128     6416
      129     6417    1   TOR$INITIALIZE: PROC;
      130     6418
      131     6419    2      CALL M$OPEN(OPEN_FPT) ;
      132     6420    2      CALL M$INT(INT_FPT) ;
      133     6421    2      CALL M$TRAP(TRAP_FPT) ;
      134     6422    2      RETURN;
      135     6423
      136     6424    2   END TOR$INITIALIZE;
      137     6425        %EJECT;
PL6.E3A0      #001=TOR$TURTLE File=TOR$TURTLE.:E05TSI                            WED 07/30/97 06:34 Page:7
      138     6426        /*F* NAME:         TOR$START_UP
      139     6427             PURPOSE:      Issues the message telling the user that the TURTLE
      140     6428                           program has been activated.  The message will be edited to
      141     6429                           contain the current time, date and version date of TURTLE.
      142     6430        */
      143     6431
      144     6432    1   TOR$START_UP: PROC;
      145     6433
      146     6434    2      DCL BUFFER  CHAR (80) STATIC CALIGNED ;
      147     6435
      148     6436        /* Code */
      149     6437
      150     6438    2      CALL M$TIME(START_FPT) ;
      151     6439    2      CALL CONCAT (BUFFER,
      152     6440    2              'TURTLE Version ',
      153     6441    2              SUBSTR (B_VERSION.TEXT, 0, B_VERSION.LGTH),
      154     6442    2              ' on at ',
      155     6443    2              SUBSTR (TIME_BUF, 0, 5),
      156     6444    2              ' ',
      157     6445    2              DATE_BUF) ;
      158     6446    2      CONSOLE_FPT.BUF_ = VECTOR (BUFFER) ;
      159     6447    2      CALL TOR$CONSOLE_OUT;
      160     6448    2      RETURN;
      161     6449
      162     6450    2   END TOR$START_UP;
      163     6451        %EJECT;
PL6.E3A0      #001=TOR$TURTLE File=TOR$TURTLE.:E05TSI                            WED 07/30/97 06:34 Page:8
      164     6452        /*F* NAME:        TOR$EXIT
      165     6453             PURPOSE:     Performs the functions of exiting from the TURTLE program
      166     6454                          upon normal termination.
      167     6455                          Outputs a TURTLE termination message, telling the user that
      168     6456                          TURTLE has terminated, which includes the current date and
      169     6457                          time of day. TURTLE terminates via M$EXIT.
      170     6458        */
      171     6459
      172     6460    1   TOR$EXIT: PROC;
      173     6461
      174     6462    2      DCL BUFFER  CHAR (80) STATIC CALIGNED ;
      175     6463
      176     6464        /* Code */
      177     6465
      178     6466    2      BUFFER = ' ' ;
      179     6467    2      CONSOLE_FPT.BUF_ = VECTOR (BUFFER) ;
      180     6468    2      CALL TOR$CONSOLE_OUT;
      181     6469    2      CALL M$TIME(START_FPT) ;
      182     6470    2      CALL CONCAT (BUFFER,
      183     6471    2              'TURTLE off at ',
      184     6472    2              SUBSTR (TIME_BUF, 0, 5),
      185     6473    2              ' ',
      186     6474    2              DATE_BUF) ;
      187     6475    2      CALL TOR$CONSOLE_OUT;
      188     6476    2      CALL M$EXIT ;
      189     6477
      190     6478    2   END TOR$EXIT;
      191     6479        %EJECT;
PL6.E3A0      #001=TOR$TURTLE File=TOR$TURTLE.:E05TSI                            WED 07/30/97 06:34 Page:9
      192     6480        /*F* NAME:        TOR$CONSOLE_OUT
      193     6481             PURPOSE:     Is called to do just console output.
      194     6482                          Before calling this routine,
      195     6483                          the parameters for the console output FPT, CONSOLE_FPT, must
      196     6484                          be established, or reset.
      197     6485                          The parameters which must be established or reset are:
      198     6486                            1.)  Output buffer address
      199     6487                            2.)  Wait  option
      200     6488        */
      201     6489
      202     6490    1   TOR$CONSOLE_OUT: PROC;
      203     6491
      204     6492    2      CALL M$WRITE(CONSOLE_FPT) ;
      205     6493    2      RETURN;
      206     6494
      207     6495    2   END TOR$CONSOLE_OUT;
      208     6496        %EJECT;
PL6.E3A0      #001=TOR$TURTLE File=TOR$TURTLE.:E05TSI                            WED 07/30/97 06:34 Page:10
      209     6497        /*F* NAME:       TOR$WRAPUP
      210     6498             PURPOSE:    Called by the Asynchronous Fault Handlerwhen ever the
      211     6499                         fault is to be processed.
      212     6500                         The processing that is performed in this routine is the
      213     6501                         the outputting of a TURTLE wrapup message and abnormal
      214     6502                         termination of the TURTLE program.
      215     6503                         The abnormal termination will be done with aid of a
      216     6504                         Monitor Services Routine M$MERCS, which turns control
      217     6505                         over to the monitor who intern continues to process the
      218     6506                         the fault, and abnormally abort the program.
      219     6507        */
      220     6508
      221     6509    1   TOR$WRAPUP: PROC;
      222     6510
      223     6511    2      DCL BUFFER  CHAR (80) STATIC CALIGNED ;
      224     6512
      225     6513        /* Code */
      226     6514
      227     6515    2      CALL M$TIME(START_FPT) ;
      228     6516    2      CALL CONCAT (BUFFER,
      229     6517    2              'TURTLE Version ',
      230     6518    2              SUBSTR (B_VERSION.TEXT, 0, B_VERSION.LGTH),
      231     6519    2              ' wrapup at ',
      232     6520    2              SUBSTR (TIME_BUF, 0, 5),
      233     6521    2              ' ',
      234     6522    2              DATE_BUF) ;
      235     6523    2      CONSOLE_FPT.BUF_ = VECTOR (BUFFER) ;
      236     6524    2      CALL TOR$CONSOLE_OUT;
      237     6525    2      RETURN;
      238     6526
      239     6527    2   END TOR$WRAPUP;
      240     6528    1   END TOR$TURTLE;

PL6.E3A0      #001=TOR$TURTLE File=TOR$TURTLE.:E05TSI                            WED 07/30/97 06:34 Page:11
--  Include file information  --

   CP_6_SUBS.:E05TOU  is referenced.
   CP_6_C.:E05TOU  is referenced.
   CP_6.:E05TOU  cannot be made into a system file and is referenced.
      No diagnostics issued in procedure TOR$TURTLE.

   Procedure TOR$TURTLE requires 166 words for executable code.
   Procedure TOR$TURTLE requires 8 words of local(AUTO) storage.

    No errors detected in file TOR$TURTLE.:E05TSI    .

PL6.E3A0      #001=TOR$TURTLE File=TOR$TURTLE.:E05TSI                            WED 07/30/97 06:34 Page:12

 Object Unit name= TOR$TURTLE                                 File name= TOR$TURTLE.:E05TOU
 UTS= JUL 30 '97 06:34:04.32 WED                              Compiler= PL-6/E31         Sev=      00
 SharedLib= :SHARED_SYSTEM                                    Alt SharedLib=


    ****  Control sections  ****

 Sect   Type Bound  Init  Size OctSiz  Section name(segment info)
    0   DCB   even  none     0      0  M$UC
    1   DCB   even  none     0      0  M$LO
    2   DCB   even  none     0      0  M$SI
    3   Data  even  none   172    254  TOR$TURTLE
    4  RoData even  UTS     13     15  TOR$TURTLE
    5   Proc  even  none   166    246  TOR$TURTLE
    6  RoData even  none     6      6  TOR$TURTLE

    ****  Entry defs  ****

                              Check   Calling
                             calling  sequence
  Sect OctLoc Primary Altret sequence   type   Parms  Name
     5      0   yes            yes      Std        0  TOR$TURTLE
     5     12                  yes      Std        0  TOR$CONSOLE_OUT_PTR
     5     17                  yes      Std        0  TOR$WRAPUP_PTR
     5     24                  yes      Std        0  TOR$EXIT_PTR

  ****  Data defs  ****

 Sect OctLoc  Name                           Sect OctLoc  Name
    3     12  CONSOLE_FPT
PL6.E3A0      #001=TOR$TURTLE File=TOR$TURTLE.:E05TSI                            WED 07/30/97 06:34 Page:13

  ****  Entry refs  ****

         Check        Calling
        calling       sequence
Altret sequence SRef   type   Args  Name
         yes          Async      0 TOR$FAULTS
         yes          Async      0 TOR$BREAK_HANDLER
         yes           Std       0 TURTLE_ENTRY$
                       nStd      0 X66_AUTO_0
                       Std       0 B_CONSPOOL_D
                       nStd      0 X66_ARET

  ****  Data refs  ****

  Flags:  r = read only, s = secondary
Flgs Name                             Flgs Name                             Flgs Name
     M$UC                                  M$LO                                  M$SI
     B_VERSION                             B_VECTNIL

  ****  Segment refs  ****

  Flags:  r = read only, s = secondary
Flgs Name                             Flgs Name                             Flgs Name
     ISSID                                 NULLSID
PL6.E3A0      #001=TOR$TURTLE File=TOR$TURTLE.:E05TSI                            WED 07/30/97 06:34 Page:14


        1        1        /*M* TOR$TURTLE  TURTLE Root Program */
        2        2        /*T***********************************************************/
        3        3        /*T*                                                         */
        4        4        /*T* Copyright (c) Bull HN Information Systems Inc., 1997    */
        5        5        /*T*                                                         */
        6        6        /*T***********************************************************/
        7        7
        8        8        /*X* PLM=3,DCI=6,SQB=N,PRB=N,DTI=5,ENI=0,AND=Y,ECI=0,CSU=3,DIN=3,
        9        9             CTI=8,CRM=109,CRT=1,NLB=N,NTB=Y,MCL=110 */
       10       10
       11       11        /*F* NAME:         TOR$TURTLE
       12       12             PURPOSE:      Calls a system initialization routine that
       13       13                           will initialize all TURTLE variables, tables,
       14       14                           and  flags, plus establish all the exceptional
       15       15                           condition  handler routines.
       16       16             LAST UPDATE:  08/17/82
       17       17        */
       18       18
       19       19        TOR$TURTLE: PROC;

     19  5 000000   000000 700200 xent  TOR$TURTLE   TSX0  ! X66_AUTO_0
         5 000001   000010 000000                    ZERO    8,0

       20       20
       21       21        /* Include Files */
       22       22
       23       23           %INCLUDE CP_6;
       24     5582           %INCLUDE CP_6_SUBS;
       25     6122
       26     6123        /* Data Control Blocks */
       27     6124
       28     6125    1      DCL M$LO DCB;
       29     6126    1      DCL M$SI DCB;
       30     6127           %EJECT;
PL6.E3A0      #001=TOR$TURTLE File=TOR$TURTLE.:E05TSI                            WED 07/30/97 06:34 Page:15
       31     6128        /* Function Parameter Tables */
       32     6129
       33     6130           %FPT_TRAP(FPTN=TRAP_FPT,
       34     6131                     ARITHMETIC=TOR$FAULTS,
       35     6132                     OVERFLOW=TRAP,
       36     6133                     DIVIDE_CHECK=TRAP,
       37     6134                     PROGRAMMED=TOR$FAULTS,
       38     6135                     MME=TRAP,
       39     6136                     DERAIL= TRAP,
       40     6137                     FAULT_TAG=TRAP,
       41     6138                     ERRORS= TOR$FAULTS,
       42     6139                     MEMORY=TRAP,
       43     6140                     COMMAND=TRAP,
       44     6141                     LOCKUP=TRAP,
       45     6142                     IPR=TRAP,
       46     6143                     MISSING_SEG=TRAP,
       47     6144                     MISSING_PAGE=TRAP,
       48     6145                     SECURITY_2=TRAP,
       49     6146                     HISTORY_REGS= YES,
       50     6147                     PMME= TOR$FAULTS);
       51     6170
       52     6171           %FPT_WRITE(FPTN=CONSOLE_FPT,
       53     6172                      DCB=M$LO,
       54     6173                      WAIT= YES,
       55     6174                      STCLASS=STATIC  SYMDEF);
       56     6205           %EJECT ;
PL6.E3A0      #001=TOR$TURTLE File=TOR$TURTLE.:E05TSI                            WED 07/30/97 06:34 Page:16
       57     6206           %FPT_OPEN(FPTN=OPEN_FPT,ORG=TERMINAL,DCB=M$LO);
       58     6315
       59     6316           %FPT_TIME(FPTN=START_FPT,
       60     6317                     SOURCE=CLOCK,
       61     6318                     DEST=LOCAL,
       62     6319                     DATE=DATE_BUF,
       63     6320                     TIME=TIME_BUF);
       64     6339
       65     6340           %FPT_INT (FPTN = INT_FPT,
       66     6341                     UENTRY = TOR$BREAK_HANDLER) ;
       67     6355           %EJECT ;
PL6.E3A0      #001=TOR$TURTLE File=TOR$TURTLE.:E05TSI                            WED 07/30/97 06:34 Page:17
       68     6356        /* Variables */
       69     6357
       70     6358    1      DCL CHAR_COUNT SBIN STATIC ALIGNED;
       71     6359    1      DCL DATE_BUF CHAR(8) STATIC;
       72     6360    1      DCL WRITE_BUF_BCD(0:10)  UBIN(6) STATIC UNAL;
       73     6361    1      DCL WRITE_BUF_ASCII(0:10)  CHAR(1) STATIC UNAL;
       74     6362    1      DCL READ_BUF_ASCII(0:10) CHAR(1) STATIC UNAL;
       75     6363    1      DCL READ_BUF_BCD(0:10)  UBIN(6) STATIC UNAL;
       76     6364    1      DCL TIME_BUF CHAR(11) STATIC;
       77     6365    1      DCL 1 B_VERSION SYMREF CALIGNED,
       78     6366    1            2 LGTH    UBIN BYTE UNAL,
       79     6367    1            2 TEXT    CHAR (11) UNAL ;
       80     6368
       81     6369        /* External Entry Points */
       82     6370
       83     6371    1      DCL TURTLE_ENTRY$                 ENTRY ;
       84     6372    1      DCL TOR$BREAK_HANDLER             ENTRY ASYNC ;
       85     6373    1      DCL TOR$FAULTS                    ENTRY ASYNC ;
       86     6374
       87     6375        /* ***************
       88     6376           ** Main Code **
       89     6377           *************** */
       90     6378
       91     6379    1      CALL TOR$INITIALIZE ;

   6379  5 000002   000031 701000 5                  TSX1    TOR$INITIALIZE
         5 000003   000000 011000                    NOP     0

       92     6380    1      CALL TOR$START_UP;

   6380  5 000004   000045 701000 5                  TSX1    TOR$START_UP
         5 000005   000000 011000                    NOP     0

       93     6381    1      CALL TURTLE_ENTRY$ ;

   6381  5 000006   000002 631400 xsym               EPPR1   B_VECTNIL+2
         5 000007   000000 701000 xent               TSX1    TURTLE_ENTRY$
PL6.E3A0      #001=TOR$TURTLE File=TOR$TURTLE.:E05TSI                            WED 07/30/97 06:34 Page:18
         5 000010   000000 011000                    NOP     0
         5 000011   000014 710000 5                  TRA     s:6396

       94     6382
       95     6383        /* END TOR$TURTLE */
       96     6384        %EJECT;
PL6.E3A0      #001=TOR$TURTLE File=TOR$TURTLE.:E05TSI                            WED 07/30/97 06:34 Page:19
       97     6385        /*D* NAME:         TOR$CONSOLE_OUT_PTR
       98     6386                           TOR$WRAPUP_PTR
       99     6387                           TOR$EXIT_PTR
      100     6388         **********************************************************
      101     6389         **     SATISFYING ENTRY POINTS OF INTERNAL              **
      102     6390         **     PROCEDURES CALLED FROM EXTERNALLY DECLARED       **
      103     6391         **     PROCEDURES                                       **
      104     6392         **********************************************************
      105     6393        */
      106     6394
      107     6395    1   TOR$CONSOLE_OUT_PTR: ENTRY;

   6395  5 000012   000000 700200 xent  TOR$CONSOLE* TSX0  ! X66_AUTO_0
         5 000013   000010 000000                    ZERO    8,0

      108     6396    1      CALL TOR$CONSOLE_OUT;

   6396  5 000014   000160 701000 5                  TSX1    TOR$CONSOLE_OUT
         5 000015   000000 011000                    NOP     0

      109     6397    1      RETURN;

   6397  5 000016   000000 702200 xent               TSX2  ! X66_ARET

      110     6398
      111     6399    1   TOR$WRAPUP_PTR: ENTRY;

   6399  5 000017   000000 700200 xent  TOR$WRAPUP_* TSX0  ! X66_AUTO_0
         5 000020   000010 000000                    ZERO    8,0

      112     6400    1      CALL TOR$WRAPUP;

   6400  5 000021   000166 701000 5                  TSX1    TOR$WRAPUP
         5 000022   000000 011000                    NOP     0
         5 000023   000026 710000 5                  TRA     s:6403

      113     6401
PL6.E3A0      #001=TOR$TURTLE File=TOR$TURTLE.:E05TSI                            WED 07/30/97 06:34 Page:20
      114     6402    1   TOR$EXIT_PTR: ENTRY;

   6402  5 000024   000000 700200 xent  TOR$EXIT_PTR TSX0  ! X66_AUTO_0
         5 000025   000010 000000                    ZERO    8,0

      115     6403    1      CALL TOR$EXIT;

   6403  5 000026   000124 701000 5                  TSX1    TOR$EXIT
         5 000027   000000 011000                    NOP     0
         5 000030   000245 710000 5                  TRA     s:6528

      116     6404        %EJECT;
PL6.E3A0      #001=TOR$TURTLE File=TOR$TURTLE.:E05TSI                            WED 07/30/97 06:34 Page:21
      117     6405        /*F* NAME:         TOR$INITIALIZE
      118     6406             PURPOSE:      Does all the required system initialization
      119     6407                           required for the TURTLE program.
      120     6408                           the main sequence of events in this routine is the
      121     6409                           establishing of the Exceptional condition handlers
      122     6410                           with the aid of CP6 Monitor services routines.
      123     6411                             Conditions handled:
      124     6412                              1.) Hardware, and programed faults.
      125     6413                              2.) BREAK Key depression.
      126     6414                              3.) Line disconnect and exit cleanup.
      127     6415        */
      128     6416
      129     6417    1   TOR$INITIALIZE: PROC;

   6417  5 000031   200004 741300       TOR$INITIAL* STX1  ! 4,,AUTO

      130     6418
      131     6419    2      CALL M$OPEN(OPEN_FPT) ;

   6419  5 000032   000026 630400 3                  EPPR0   OPEN_FPT
         5 000033   050000 713400                    CLIMB   open
         5 000034   410400 401760                    pmme    nvectors=18

      132     6420    2      CALL M$INT(INT_FPT) ;

   6420  5 000035   000134 630400 3                  EPPR0   INT_FPT
         5 000036   010002 713400                    CLIMB   4098
         5 000037   400000 401760                    pmme    nvectors=1

      133     6421    2      CALL M$TRAP(TRAP_FPT) ;

   6421  5 000040   000000 630400 3                  EPPR0   TRAP_FPT
         5 000041   010004 713400                    CLIMB   4100
         5 000042   400400 401760                    pmme    nvectors=2

      134     6422    2      RETURN;

PL6.E3A0      #001=TOR$TURTLE File=TOR$TURTLE.:E05TSI                            WED 07/30/97 06:34 Page:22
   6422  5 000043   200004 221300                    LDX1  ! 4,,AUTO
         5 000044   000001 702211                    TSX2  ! 1,X1

      135     6423
      136     6424    2   END TOR$INITIALIZE;
      137     6425        %EJECT;
PL6.E3A0      #001=TOR$TURTLE File=TOR$TURTLE.:E05TSI                            WED 07/30/97 06:34 Page:23
      138     6426        /*F* NAME:         TOR$START_UP
      139     6427             PURPOSE:      Issues the message telling the user that the TURTLE
      140     6428                           program has been activated.  The message will be edited to
      141     6429                           contain the current time, date and version date of TURTLE.
      142     6430        */
      143     6431
      144     6432    1   TOR$START_UP: PROC;

   6432  5 000045   200004 741300       TOR$START_UP STX1  ! 4,,AUTO

      145     6433
      146     6434    2      DCL BUFFER  CHAR (80) STATIC CALIGNED ;
      147     6435
      148     6436        /* Code */
      149     6437
      150     6438    2      CALL M$TIME(START_FPT) ;

   6438  5 000046   000120 630400 3                  EPPR0   START_FPT
         5 000047   020004 713400                    CLIMB   8196
         5 000050   402000 401760                    pmme    nvectors=5

      151     6439    2      CALL CONCAT (BUFFER,

   6439  5 000051   000000 236000 xsym               LDQ     B_VERSION
         5 000052   000033 772000                    QRL     27
         5 000053   040000 100400                    MLR     fill='040'O
         5 000054   000000 000017 4                  ADSC9   0                        cn=0,n=15
         5 000055   000160 000017 3                  ADSC9   BUFFER                   cn=0,n=15
         5 000056   000000 620006                    EAX0    0,QL
         5 000057   040000 100440                    MLR     fill='040'O
         5 000060   000000 200010 xsym               ADSC9   B_VERSION                cn=1,n=*X0
         5 000061   000163 600101 3                  ADSC9   BUFFER+3                 cn=3,n=65
         5 000062   000101 116007                    CMPQ    65,DL
         5 000063   000116 603000 5                  TRC     s:6446
         5 000064   777676 620006                    EAX0    -66,QL
         5 000065   777777 660003                    ERX0    -1,DU
         5 000066   040046 100400                    MLR     fill='040'O
PL6.E3A0      #001=TOR$TURTLE File=TOR$TURTLE.:E05TSI                            WED 07/30/97 06:34 Page:24
         5 000067   000004 000007 4                  ADSC9   4                        cn=0,n=7
         5 000070   000163 600010 3                  ADSC9   BUFFER+3,Q               cn=3,n=*X0
         5 000071   000072 116007                    CMPQ    58,DL
         5 000072   000116 603000 5                  TRC     s:6446
         5 000073   777705 620006                    EAX0    -59,QL
         5 000074   777777 660003                    ERX0    -1,DU
         5 000075   040046 100400                    MLR     fill='040'O
         5 000076   000155 000005 3                  ADSC9   TIME_BUF                 cn=0,n=5
         5 000077   000165 400010 3                  ADSC9   BUFFER+5,Q               cn=2,n=*X0
         5 000100   000065 116007                    CMPQ    53,DL
         5 000101   000116 603000 5                  TRC     s:6446
         5 000102   777712 620006                    EAX0    -54,QL
         5 000103   777777 660003                    ERX0    -1,DU
         5 000104   040046 100400                    MLR     fill='040'O
         5 000105   000035 000001 xsym               ADSC9   B_VECTNIL+29             cn=0,n=1
         5 000106   000166 600010 3                  ADSC9   BUFFER+6,Q               cn=3,n=*X0
         5 000107   000064 116007                    CMPQ    52,DL
         5 000110   000116 603000 5                  TRC     s:6446
         5 000111   777713 620006                    EAX0    -53,QL
         5 000112   777777 660003                    ERX0    -1,DU
         5 000113   040046 100400                    MLR     fill='040'O
         5 000114   000141 000010 3                  ADSC9   DATE_BUF                 cn=0,n=8
         5 000115   000167 000010 3                  ADSC9   BUFFER+7,Q               cn=0,n=*X0

      152     6440    2              'TURTLE Version ',
      153     6441    2              SUBSTR (B_VERSION.TEXT, 0, B_VERSION.LGTH),
      154     6442    2              ' on at ',
      155     6443    2              SUBSTR (TIME_BUF, 0, 5),
      156     6444    2              ' ',
      157     6445    2              DATE_BUF) ;
      158     6446    2      CONSOLE_FPT.BUF_ = VECTOR (BUFFER) ;

   6446  5 000116   000000 237000 6                  LDAQ    0
         5 000117   000016 757000 3                  STAQ    CONSOLE_FPT+4

      159     6447    2      CALL TOR$CONSOLE_OUT;

PL6.E3A0      #001=TOR$TURTLE File=TOR$TURTLE.:E05TSI                            WED 07/30/97 06:34 Page:25
   6447  5 000120   000160 701000 5                  TSX1    TOR$CONSOLE_OUT
         5 000121   000000 011000                    NOP     0

      160     6448    2      RETURN;

   6448  5 000122   200004 221300                    LDX1  ! 4,,AUTO
         5 000123   000001 702211                    TSX2  ! 1,X1

      161     6449
      162     6450    2   END TOR$START_UP;
      163     6451        %EJECT;
PL6.E3A0      #001=TOR$TURTLE File=TOR$TURTLE.:E05TSI                            WED 07/30/97 06:34 Page:26
      164     6452        /*F* NAME:        TOR$EXIT
      165     6453             PURPOSE:     Performs the functions of exiting from the TURTLE program
      166     6454                          upon normal termination.
      167     6455                          Outputs a TURTLE termination message, telling the user that
      168     6456                          TURTLE has terminated, which includes the current date and
      169     6457                          time of day. TURTLE terminates via M$EXIT.
      170     6458        */
      171     6459
      172     6460    1   TOR$EXIT: PROC;

   6460  5 000124   200004 741300       TOR$EXIT     STX1  ! 4,,AUTO

      173     6461
      174     6462    2      DCL BUFFER  CHAR (80) STATIC CALIGNED ;
      175     6463
      176     6464        /* Code */
      177     6465
      178     6466    2      BUFFER = ' ' ;

   6466  5 000125   040000 100400                    MLR     fill='040'O
         5 000126   000035 000001 xsym               ADSC9   B_VECTNIL+29             cn=0,n=1
         5 000127   000204 000120 3                  ADSC9   BUFFER                   cn=0,n=80

      179     6467    2      CONSOLE_FPT.BUF_ = VECTOR (BUFFER) ;

   6467  5 000130   000002 237000 6                  LDAQ    2
         5 000131   000016 757000 3                  STAQ    CONSOLE_FPT+4

      180     6468    2      CALL TOR$CONSOLE_OUT;

   6468  5 000132   000160 701000 5                  TSX1    TOR$CONSOLE_OUT
         5 000133   000000 011000                    NOP     0

      181     6469    2      CALL M$TIME(START_FPT) ;

   6469  5 000134   000120 630400 3                  EPPR0   START_FPT
         5 000135   020004 713400                    CLIMB   8196
PL6.E3A0      #001=TOR$TURTLE File=TOR$TURTLE.:E05TSI                            WED 07/30/97 06:34 Page:27
         5 000136   402000 401760                    pmme    nvectors=5

      182     6470    2      CALL CONCAT (BUFFER,

   6470  5 000137   040000 100400                    MLR     fill='040'O
         5 000140   000006 000016 4                  ADSC9   6                        cn=0,n=14
         5 000141   000204 000016 3                  ADSC9   BUFFER                   cn=0,n=14
         5 000142   040000 100400                    MLR     fill='040'O
         5 000143   000155 000005 3                  ADSC9   TIME_BUF                 cn=0,n=5
         5 000144   000207 400005 3                  ADSC9   BUFFER+3                 cn=2,n=5
         5 000145   000040 236007                    LDQ     32,DL
         5 000146   000210 552004 3                  STBQ    BUFFER+4,'04'O
         5 000147   040000 100400                    MLR     fill='040'O
         5 000150   000141 000010 3                  ADSC9   DATE_BUF                 cn=0,n=8
         5 000151   000211 000074 3                  ADSC9   BUFFER+5                 cn=0,n=60

      183     6471    2              'TURTLE off at ',
      184     6472    2              SUBSTR (TIME_BUF, 0, 5),
      185     6473    2              ' ',
      186     6474    2              DATE_BUF) ;
      187     6475    2      CALL TOR$CONSOLE_OUT;

   6475  5 000152   000160 701000 5                  TSX1    TOR$CONSOLE_OUT
         5 000153   000000 011000                    NOP     0

      188     6476    2      CALL M$EXIT ;

   6476  5 000154   000001 713400                    CLIMB   exit
         5 000155   000000 401760                    pmme    nvectors=0

      189     6477
      190     6478    2   END TOR$EXIT;

   6478  5 000156   200004 221300                    LDX1  ! 4,,AUTO
         5 000157   000001 702211                    TSX2  ! 1,X1

      191     6479        %EJECT;
PL6.E3A0      #001=TOR$TURTLE File=TOR$TURTLE.:E05TSI                            WED 07/30/97 06:34 Page:28
      192     6480        /*F* NAME:        TOR$CONSOLE_OUT
      193     6481             PURPOSE:     Is called to do just console output.
      194     6482                          Before calling this routine,
      195     6483                          the parameters for the console output FPT, CONSOLE_FPT, must
      196     6484                          be established, or reset.
      197     6485                          The parameters which must be established or reset are:
      198     6486                            1.)  Output buffer address
      199     6487                            2.)  Wait  option
      200     6488        */
      201     6489
      202     6490    1   TOR$CONSOLE_OUT: PROC;

   6490  5 000160   200006 741300       TOR$CONSOLE* STX1  ! 6,,AUTO

      203     6491
      204     6492    2      CALL M$WRITE(CONSOLE_FPT) ;

   6492  5 000161   000012 630400 3                  EPPR0   CONSOLE_FPT
         5 000162   040001 713400                    CLIMB   write
         5 000163   401400 401760                    pmme    nvectors=4

      205     6493    2      RETURN;

   6493  5 000164   200006 221300                    LDX1  ! 6,,AUTO
         5 000165   000001 702211                    TSX2  ! 1,X1

      206     6494
      207     6495    2   END TOR$CONSOLE_OUT;
      208     6496        %EJECT;
PL6.E3A0      #001=TOR$TURTLE File=TOR$TURTLE.:E05TSI                            WED 07/30/97 06:34 Page:29
      209     6497        /*F* NAME:       TOR$WRAPUP
      210     6498             PURPOSE:    Called by the Asynchronous Fault Handlerwhen ever the
      211     6499                         fault is to be processed.
      212     6500                         The processing that is performed in this routine is the
      213     6501                         the outputting of a TURTLE wrapup message and abnormal
      214     6502                         termination of the TURTLE program.
      215     6503                         The abnormal termination will be done with aid of a
      216     6504                         Monitor Services Routine M$MERCS, which turns control
      217     6505                         over to the monitor who intern continues to process the
      218     6506                         the fault, and abnormally abort the program.
      219     6507        */
      220     6508
      221     6509    1   TOR$WRAPUP: PROC;

   6509  5 000166   200004 741300       TOR$WRAPUP   STX1  ! 4,,AUTO

      222     6510
      223     6511    2      DCL BUFFER  CHAR (80) STATIC CALIGNED ;
      224     6512
      225     6513        /* Code */
      226     6514
      227     6515    2      CALL M$TIME(START_FPT) ;

   6515  5 000167   000120 630400 3                  EPPR0   START_FPT
         5 000170   020004 713400                    CLIMB   8196
         5 000171   402000 401760                    pmme    nvectors=5

      228     6516    2      CALL CONCAT (BUFFER,

   6516  5 000172   000000 236000 xsym               LDQ     B_VERSION
         5 000173   000033 772000                    QRL     27
         5 000174   040000 100400                    MLR     fill='040'O
         5 000175   000000 000017 4                  ADSC9   0                        cn=0,n=15
         5 000176   000230 000017 3                  ADSC9   BUFFER                   cn=0,n=15
         5 000177   000000 620006                    EAX0    0,QL
         5 000200   040000 100440                    MLR     fill='040'O
         5 000201   000000 200010 xsym               ADSC9   B_VERSION                cn=1,n=*X0
PL6.E3A0      #001=TOR$TURTLE File=TOR$TURTLE.:E05TSI                            WED 07/30/97 06:34 Page:30
         5 000202   000233 600101 3                  ADSC9   BUFFER+3                 cn=3,n=65
         5 000203   000101 116007                    CMPQ    65,DL
         5 000204   000237 603000 5                  TRC     s:6523
         5 000205   777676 620006                    EAX0    -66,QL
         5 000206   777777 660003                    ERX0    -1,DU
         5 000207   040046 100400                    MLR     fill='040'O
         5 000210   000012 000013 4                  ADSC9   10                       cn=0,n=11
         5 000211   000233 600010 3                  ADSC9   BUFFER+3,Q               cn=3,n=*X0
         5 000212   000066 116007                    CMPQ    54,DL
         5 000213   000237 603000 5                  TRC     s:6523
         5 000214   777711 620006                    EAX0    -55,QL
         5 000215   777777 660003                    ERX0    -1,DU
         5 000216   040046 100400                    MLR     fill='040'O
         5 000217   000155 000005 3                  ADSC9   TIME_BUF                 cn=0,n=5
         5 000220   000236 400010 3                  ADSC9   BUFFER+6,Q               cn=2,n=*X0
         5 000221   000061 116007                    CMPQ    49,DL
         5 000222   000237 603000 5                  TRC     s:6523
         5 000223   777716 620006                    EAX0    -50,QL
         5 000224   777777 660003                    ERX0    -1,DU
         5 000225   040046 100400                    MLR     fill='040'O
         5 000226   000035 000001 xsym               ADSC9   B_VECTNIL+29             cn=0,n=1
         5 000227   000237 600010 3                  ADSC9   BUFFER+7,Q               cn=3,n=*X0
         5 000230   000060 116007                    CMPQ    48,DL
         5 000231   000237 603000 5                  TRC     s:6523
         5 000232   777717 620006                    EAX0    -49,QL
         5 000233   777777 660003                    ERX0    -1,DU
         5 000234   040046 100400                    MLR     fill='040'O
         5 000235   000141 000010 3                  ADSC9   DATE_BUF                 cn=0,n=8
         5 000236   000240 000010 3                  ADSC9   BUFFER+8,Q               cn=0,n=*X0

      229     6517    2              'TURTLE Version ',
      230     6518    2              SUBSTR (B_VERSION.TEXT, 0, B_VERSION.LGTH),
      231     6519    2              ' wrapup at ',
      232     6520    2              SUBSTR (TIME_BUF, 0, 5),
      233     6521    2              ' ',
      234     6522    2              DATE_BUF) ;
      235     6523    2      CONSOLE_FPT.BUF_ = VECTOR (BUFFER) ;
PL6.E3A0      #001=TOR$TURTLE File=TOR$TURTLE.:E05TSI                            WED 07/30/97 06:34 Page:31

   6523  5 000237   000004 237000 6                  LDAQ    4
         5 000240   000016 757000 3                  STAQ    CONSOLE_FPT+4

      236     6524    2      CALL TOR$CONSOLE_OUT;

   6524  5 000241   000160 701000 5                  TSX1    TOR$CONSOLE_OUT
         5 000242   000000 011000                    NOP     0

      237     6525    2      RETURN;

   6525  5 000243   200004 221300                    LDX1  ! 4,,AUTO
         5 000244   000001 702211                    TSX2  ! 1,X1

      238     6526
      239     6527    2   END TOR$WRAPUP;
      240     6528    1   END TOR$TURTLE;

   6528  5 000245   000000 702200 xent               TSX2  ! X66_ARET

TRAP_FPT
 Sect OctLoc
   3     000   000005 777640   000004 006000   000000 177640   000000 006014    ................
   3     004   000000 000000   000000 000000   000000 000000   000000 000000    ................
   3     010   525063 525256   000000 000000                                    .3......

CONSOLE_FPT
 Sect OctLoc
   3     012   000003 777640   000022 006000   000000 177640   000000 006014    ................
   3     016   000000 177640   000000 006014   000000 177640   000000 006014    ................
   3     022   000000 400400   000000 000000   000000 000000   000000 000000    ................

OPEN_FPT
 Sect OctLoc
   3     026   000025 777640   000072 006000   000000 177640   000000 006014    .....:..........
   3     032   000000 177640   000000 006014   000000 177640   000000 006014    ................
   3     072*  000000 000042   000000 000000   252525 010000   000040 252520    ..."......... ..
PL6.E3A0      #001=TOR$TURTLE File=TOR$TURTLE.:E05TSI                            WED 07/30/97 06:34 Page:32
   3     076   000040 040040   000000 000000   000000 777777   000000 000000    .   ............
   3     102   000000 000000   000000 000000   000000 000000   000000 000000    ................
   3     106   251000 622000   000000 000000   000000 000000   111250 000000    ............I...
   3     112   040040 040040   000000 000000   000000 000000   000000 000000        ............
   3     116   000000 000000   ****** ******                                    ........

START_FPT
 Sect OctLoc
   3     120   000001 777640   000132 006000   000001 777640   000141 006000    .....Z.......a..
   3     124   000002 577640   000155 006000   000000 177640   000000 006014    .....m..........
   3     130   000000 177640   000000 006014   000003 000000   ****** ******    ................

INT_FPT
 Sect OctLoc
   3     134   000001 777640   000136 006000   000000 000000   000000 000000    .....^..........

(unnamed)
 Sect OctLoc
   3     143   ****** ******   ****** ******   ****** ******   ****** ******    ................

BUFFER
 Sect OctLoc
   3     160   ****** ******   ****** ******   ****** ******   ****** ******    ................

BUFFER
 Sect OctLoc
   3     204   ****** ******   ****** ******   ****** ******   ****** ******    ................

BUFFER
 Sect OctLoc
   3     230   ****** ******   ****** ******   ****** ******   ****** ******    ................

(unnamed)
 Sect OctLoc
   4     000   124125 122124   114105 040126   145162 163151   157156 040040    TURTLE Version
   4     004   040157 156040   141164 040040   124125 122124   114105 040157     on at  TURTLE o
   4     010   146146 040141   164040 040040   040167 162141   160165 160040    ff at    wrapup
PL6.E3A0      #001=TOR$TURTLE File=TOR$TURTLE.:E05TSI                            WED 07/30/97 06:34 Page:33
   4     014   141164 040040                                                    at

(unnamed)
 Sect OctLoc
   6     000   000023 777640   000160 006000   000023 777640   000204 006000    .....p..........
   6     004   000023 777640   000230 006000                                    ........

PL6.E3A0      #001=TOR$TURTLE File=TOR$TURTLE.:E05TSI                            WED 07/30/97 06:34 Page:34
--  Include file information  --

   CP_6_SUBS.:E05TOU  is referenced.
   CP_6_C.:E05TOU  is referenced.
   CP_6.:E05TOU  cannot be made into a system file and is referenced.
      No diagnostics issued in procedure TOR$TURTLE.
PL6.E3A0      #001=TOR$TURTLE File=TOR$TURTLE.:E05TSI                            WED 07/30/97 06:34 Page:35

 **** Procedure blocks ****

LB#    Line#s    #stmts #vars Sect# OctLoc  P A C   NP Lvl/name
  0    19-  6528     41    17     5      0  y   y    0   1 TOR$TURTLE
                                  5     12      y    0     TOR$CONSOLE_OUT_PTR
                                  5     17      y    0     TOR$WRAPUP_PTR
                                  5     24      y    0     TOR$EXIT_PTR
  1  6417-  6424      5     0     5     31  y   y    0     2 TOR$INITIALIZE
  2  6432-  6450      6     1     5     45  y   y    0     2 TOR$START_UP
  3  6460-  6478      9     1     5    124  y   y    0     2 TOR$EXIT
  4  6490-  6495      3     0     5    160  y   y    0     2 TOR$CONSOLE_OUT
  5  6509-  6527      6     1     5    166  y   y    0     2 TOR$WRAPUP
PL6.E3A0      #001=TOR$TURTLE File=TOR$TURTLE.:E05TSI                            WED 07/30/97 06:34 Page:36

    **** Executable statements  ****

  Exec cost Stmt Sec OctLoc Type   LB Label              Exec cost Stmt Sec OctLoc Type   LB Label

              19   5      0 Proc    0                              6379   5      2 Call    0
            6380   5      4 Call    0                              6381   5      6 Call    0
            6395   5     12 Entry   0                              6396   5     14 Call    0
            6397   5     16 Return  0                              6399   5     17 Entry   0
            6400   5     21 Call    0                              6402   5     24 Entry   0
            6403   5     26 Call    0                              6417   5     31 Proc    1
$$$$$$$$$$  6419   5     32 MonCal  1                    $$$$$$$$  6420   5     35 MonCal  1
$$$$$$$$$$  6421   5     40 MonCal  1                              6422   5     43 Return  1
            6432   5     45 Proc    2                  $$$$$$$$$$  6438   5     46 MonCal  2
$$$$$$$$$$  6439   5     51 IntCal  2                              6446   5    116 Assign  2
            6447   5    120 Call    2                              6448   5    122 Return  2
            6460   5    124 Proc    3                              6466   5    125 Assign  3
            6467   5    130 Assign  3                              6468   5    132 Call    3
$$$$$$$$$$  6469   5    134 MonCal  3                        $$$$  6470   5    137 IntCal  3
            6475   5    152 Call    3                      $$$$$$  6476   5    154 MonCal  3
            6478   5    156 EndPrc  3                              6490   5    160 Proc    4
$$$$$$$$$$  6492   5    161 MonCal  4                              6493   5    164 Return  4
            6509   5    166 Proc    5                  $$$$$$$$$$  6515   5    167 MonCal  5
$$$$$$$$$$  6516   5    172 IntCal  5                              6523   5    237 Assign  5
            6524   5    241 Call    5                              6525   5    243 Return  5
            6528   5    245 EndPrc  0

  **** Statement type totals  ****

     4 Assign    10 Call       8 MonCal     5 Return     3 IntCal     6 Proc
     2 EndPrc     3 Entry

 # major stmts=   30 Code/major= 5.53 # stmts=   41 Code/stmt= 4.04  Point total= 95.5
 Cost/major stmt= 12.6 Cost/stmt=  9.2 Total cost=    378.4

   0-4  $$$$$$$$$$$$$$$$$$$$$$$$$$$$$$$$$$$$$$$$$$$$$$$$$$$$$$$$$$$$$$$$$$$$$$
   4-6
   6-8
PL6.E3A0      #001=TOR$TURTLE File=TOR$TURTLE.:E05TSI                            WED 07/30/97 06:34 Page:37
  8-10
 10-12  $$
 12-14
 14-16  $$
 16-18
 18-20  $$
 20-22
 22-??  $$$$$$$$$$$$$$$$$$$
PL6.E3A0      #001=TOR$TURTLE File=TOR$TURTLE.:E05TSI                            WED 07/30/97 06:34 Page:38

 **** Variables and constants ****

  ****  Section 003  Data  TOR$TURTLE

  ****  Scalars and arrays  ****
OctLoc.c.b A Datatyp(siz) R M Lvl/name                 OctLoc.c.b A Datatyp(siz) R M Lvl/name

   160-0-0/c CHAR(80)    r     1 BUFFER                   204-0-0/c CHAR(80)    r     1 BUFFER
   230-0-0/c CHAR(80)    r     1 BUFFER                   141-0-0/c CHAR(8)     r     1 DATE_BUF
   155-0-0/c CHAR(11)    r     1 TIME_BUF

  ****  Structures  ****
OctLoc.c.b A Datatyp(siz) R M Lvl/name

    12-0-0/d STRC(432)   r     1 CONSOLE_FPT
    16-0-0/w STRC(72)    r         2 BUF_
    22-0-0/d STRC(144)   r         2 V

   134-0-0/d STRC(144)   r     1 INT_FPT
   136-0-0/d STRC(72)    r         2 V

    26-0-0/d STRC(2088)  r     1 OPEN_FPT
    72-0-0/d STRC(756)   r         2 V

   120-0-0/d STRC(432)   r     1 START_FPT
   132-0-0/d STRC        r         2 V

     0-0-0/d STRC(360)   r     1 TRAP_FPT
     4-0-0/d STRC(216)   r         2 V


  ****  SYMREF variables  ****

  ****  Structures  ****
OctLoc.c.b A Datatyp(siz) R M Lvl/name

     0-0-0/c STRC(108)   r     1 B_VERSION
PL6.E3A0      #001=TOR$TURTLE File=TOR$TURTLE.:E05TSI                            WED 07/30/97 06:34 Page:39
     0-0-0/b UBIN(9)     r         2 LGTH
     0-1-0/c CHAR(11)    r         2 TEXT


  ****  BASED and DCB variables  ****

  ****  Scalars and arrays  ****
OctLoc.c.b A Datatyp(siz) R M Lvl/name                 OctLoc.c.b A Datatyp(siz) R M Lvl/name

     0-0-0N  NULL        r     1 M$LO


   Procedure TOR$TURTLE requires 166 words for executable code.
   Procedure TOR$TURTLE requires 8 words of local(AUTO) storage.

    No errors detected in file TOR$TURTLE.:E05TSI    .
PL6.E3A0      #001=TOR$TURTLE File=TOR$TURTLE.:E05TSI                            WED 07/30/97 06:34 Page:40
          *** CROSS REFERENCE LISTING ***
**     DENOTES     IDENTIFIER DEFINITION
<<                 IDENTIFIER'S VALUE SET
>>                 IDENTIFIER'S VALUE USED
<>                 IDENTIFIER SET AND/OR USED
--                 IDENTIFIER REFERENCED
PL6.E3A0      #001=TOR$TURTLE File=TOR$TURTLE.:E05TSI                            WED 07/30/97 06:34 Page:41
          FULL XREF LISTING

BUFFER IN PROCEDURE TOR$EXIT
      6462**DCL      6466<<ASSIGN   6467--ASSIGN   6470<<CALLBLT
BUFFER IN PROCEDURE TOR$START_UP
      6434**DCL      6439<<CALLBLT  6446--ASSIGN
BUFFER IN PROCEDURE TOR$WRAPUP
      6511**DCL      6516<<CALLBLT  6523--ASSIGN
B_VERSION
      6365**DCL
B_VERSION.LGTH
      6366**DCL      6439>>CALLBLT  6516>>CALLBLT
B_VERSION.TEXT
      6367**DCL      6439>>CALLBLT  6516>>CALLBLT
CHAR_COUNT
      6358**DCL
CONSOLE_FPT
      6191**DCL      6492<>CALL
CONSOLE_FPT.BUF_
      6191**DCL      6446<<ASSIGN   6467<<ASSIGN   6523<<ASSIGN
CONSOLE_FPT.BUF_.BOUND
      6191**DCL
CONSOLE_FPT.BUF_.BUF$
      6193**DCL
CONSOLE_FPT.IDBUF_
      6193**DCL
CONSOLE_FPT.KEY_
      6191**DCL
CONSOLE_FPT.STATION_
      6193**DCL      6193--REDEF
CONSOLE_FPT.V
      6194**DCL      6191--DCLINIT
CONSOLE_FPT.V.DCB#
      6194**DCL
PL6.E3A0      #001=TOR$TURTLE File=TOR$TURTLE.:E05TSI                            WED 07/30/97 06:34 Page:42
CONSOLE_FPT.V.DVBYTE
      6199**DCL
CONSOLE_FPT.V.DVBYTE.BIN#
      6200**DCL
CONSOLE_FPT.V.DVBYTE.BP#
      6200**DCL
CONSOLE_FPT.V.DVBYTE.CONT#
      6202**DCL
CONSOLE_FPT.V.DVBYTE.NODAT#
      6201**DCL
CONSOLE_FPT.V.DVBYTE.REREAD#
      6200**DCL
CONSOLE_FPT.V.DVBYTE.RRR#
      6201**DCL
CONSOLE_FPT.V.DVBYTE.TOP#
      6199**DCL
CONSOLE_FPT.V.DVBYTE.TRANS#
      6201**DCL
CONSOLE_FPT.V.DVBYTE.VFC#
      6200**DCL      6200--REDEF
CONSOLE_FPT.V.EVENT#
      6199**DCL
CONSOLE_FPT.V.FULL#
      6196**DCL
CONSOLE_FPT.V.ID#
      6195**DCL
CONSOLE_FPT.V.IOERROK#
      6198**DCL
CONSOLE_FPT.V.KEYTYPE#
      6198**DCL
CONSOLE_FPT.V.NEWKEY#
      6197**DCL
CONSOLE_FPT.V.NOTIME#
      6197**DCL
CONSOLE_FPT.V.ODFNC#
      6203**DCL
PL6.E3A0      #001=TOR$TURTLE File=TOR$TURTLE.:E05TSI                            WED 07/30/97 06:34 Page:43
CONSOLE_FPT.V.ONEWKEY#
      6196**DCL
CONSOLE_FPT.V.REWRITE#
      6197**DCL
CONSOLE_FPT.V.SEED#
      6199**DCL
CONSOLE_FPT.V.WAIT#
      6194**DCL
CONSOLE_FPT.V_
      6191**DCL
DATE_BUF
      6359**DCL      6331--DCLINIT  6332--DCLINIT  6439>>CALLBLT  6470>>CALLBLT  6516>>CALLBLT
INT_FPT
      6352**DCL      6420<>CALL
INT_FPT.V
      6352**DCL      6352--DCLINIT
INT_FPT.V.UENTRY#
      6352**DCL
INT_FPT.V_
      6352**DCL
M$ACCT
      5527**DCL-ENT
M$ACTIVATE
      5530**DCL-ENT
M$ALIB
      5523**DCL-ENT
M$ASUSER
      5525**DCL-ENT
M$ATTACH
      5532**DCL-ENT
M$BADPP
      5550**DCL-ENT
M$CGCTL
      5531**DCL-ENT
M$CGINFO
      5531**DCL-ENT
PL6.E3A0      #001=TOR$TURTLE File=TOR$TURTLE.:E05TSI                            WED 07/30/97 06:34 Page:44
M$CHECK
      5512**DCL-ENT
M$CHGUNIT
      5570**DCL-ENT
M$CLOSE
      5510**DCL-ENT
M$CLRSTK
      5568**DCL-ENT
M$CMDVAR
      5579**DCL-ENT
M$CONFIG
      5540**DCL-ENT
M$CORRES
      5515**DCL-ENT
M$CPEXIT
      5524**DCL-ENT
M$CVM
      5548**DCL-ENT
M$CVOL
      5513**DCL-ENT
M$DCLFLD
      5540**DCL-ENT
M$DEACTIVATE
      5530**DCL-ENT
M$DELREC
      5512**DCL-ENT
M$DEQ
      5577**DCL-ENT
M$DETACH
      5532**DCL-ENT
M$DEVICE
      5514**DCL-ENT
M$DISPLAY
      5577**DCL-ENT
M$DISPRES
      5517**DCL-ENT
PL6.E3A0      #001=TOR$TURTLE File=TOR$TURTLE.:E05TSI                            WED 07/30/97 06:34 Page:45
M$DLIB
      5523**DCL-ENT
M$DRIBBLE
      5540**DCL-ENT
M$DRTN
      5568**DCL-ENT
M$DSUSER
      5525**DCL-ENT
M$ENQ
      5576**DCL-ENT
M$EOM
      5535**DCL-ENT
M$ERASE
      5541**DCL-ENT
M$ERR
      5522**DCL-ENT
M$ERRMSG
      5573**DCL-ENT
M$EVENT
      5565**DCL-ENT
M$EXHUME
      5574**DCL-ENT
M$EXIT
      5522**DCL-ENT  6476--CALL
M$EXTEND
      5514**DCL-ENT
M$FDP
      5546**DCL-ENT
M$FDS
      5545**DCL-ENT
M$FEBOOT
      5538**DCL-ENT
M$FECTL
      5539**DCL-ENT
M$FEDUMP
      5538**DCL-ENT
PL6.E3A0      #001=TOR$TURTLE File=TOR$TURTLE.:E05TSI                            WED 07/30/97 06:34 Page:46
M$FID
      5573**DCL-ENT
M$FINDPROC
      5527**DCL-ENT
M$FSUSER
      5525**DCL-ENT
M$FVP
      5547**DCL-ENT
M$FWCG
      5531**DCL-ENT
M$GBPL
      5551**DCL-ENT
M$GDDL
      5547**DCL-ENT
M$GDP
      5546**DCL-ENT
M$GDS
      5545**DCL-ENT
M$GETDCB
      5516**DCL-ENT
M$GETMOUSE
      5556**DCL-ENT
M$GETPM
      5557**DCL-ENT
M$GJOB
      5575**DCL-ENT
M$GLINEATTR
      5535**DCL-ENT
M$GOODPP
      5550**DCL-ENT
M$GPLATEN
      5543**DCL-ENT
M$GPROMPT
      5542**DCL-ENT
M$GTRMATTR
      5536**DCL-ENT
PL6.E3A0      #001=TOR$TURTLE File=TOR$TURTLE.:E05TSI                            WED 07/30/97 06:34 Page:47
M$GTRMCTL
      5534**DCL-ENT
M$GTRMTAB
      5537**DCL-ENT
M$GVP
      5546**DCL-ENT
M$HELP
      5573**DCL-ENT
M$INT
      5565**DCL-ENT  6420--CALL
M$INTRTN
      5526**DCL-ENT
M$IOQ
      5561**DCL-ENT
M$JOBSTATS
      5575**DCL-ENT
M$KEYIN
      5515**DCL-ENT
M$LDEV
      5510**DCL-ENT
M$LDTRC
      5523**DCL-ENT
M$LIMIT
      5516**DCL-ENT
M$LINES
      5515**DCL-ENT
M$LINK
      5522**DCL-ENT
M$LO
      6125**DCL
M$MADMUCK
      5518**DCL-ENT
M$MAKUSER
      5549**DCL-ENT
M$MBS
      5517**DCL-ENT
PL6.E3A0      #001=TOR$TURTLE File=TOR$TURTLE.:E05TSI                            WED 07/30/97 06:34 Page:48
M$MDFFLD
      5541**DCL-ENT
M$MERC
      5566**DCL-ENT
M$MERCS
      5567**DCL-ENT
M$MIRROR
      5561**DCL-ENT
M$MONINFO
      5578**DCL-ENT
M$MPL
      5551**DCL-ENT
M$NODEINFO
      5542**DCL-ENT
M$NXTUSR
      5576**DCL-ENT
M$OCMSG
      5574**DCL-ENT
M$OLAY
      5522**DCL-ENT
M$OPEN
      5510**DCL-ENT  6419--CALL
M$PAS
      5551**DCL-ENT
M$PATHCON
      5574**DCL-ENT
M$PDS
      5545**DCL-ENT
M$PFIL
      5512**DCL-ENT
M$PLATEN
      5536**DCL-ENT
M$PRECORD
      5514**DCL-ENT
M$PROCNAME
      5527**DCL-ENT
PL6.E3A0      #001=TOR$TURTLE File=TOR$TURTLE.:E05TSI                            WED 07/30/97 06:34 Page:49
M$PROFILE
      5538**DCL-ENT
M$PROMPT
      5534**DCL-ENT
M$RACST
      5518**DCL-ENT
M$RDSYSLOG
      5559**DCL-ENT
M$READ
      5511**DCL-ENT
M$RELDCB
      5516**DCL-ENT
M$RELRES
      5517**DCL-ENT
M$RELSTARF
      5519**DCL-ENT
M$REM
      5519**DCL-ENT
M$RENV
      5566**DCL-ENT
M$REQUIRE
      5518**DCL-ENT
M$RETRY
      5567**DCL-ENT
M$RETRYS
      5567**DCL-ENT
M$REW
      5513**DCL-ENT
M$RLSFLD
      5541**DCL-ENT
M$RPRIV
      5569**DCL-ENT
M$RSPP
      5548**DCL-ENT
M$RSWITCH
      5570**DCL-ENT
PL6.E3A0      #001=TOR$TURTLE File=TOR$TURTLE.:E05TSI                            WED 07/30/97 06:34 Page:50
M$RUE
      5576**DCL-ENT
M$SAD
      5549**DCL-ENT
M$SAVE
      5525**DCL-ENT
M$SCON
      5526**DCL-ENT
M$SCREECH
      5524**DCL-ENT
M$SENV
      5566**DCL-ENT
M$SETFMA
      5510**DCL-ENT
M$SETFP
      5539**DCL-ENT
M$SI
      6126**DCL
M$SINPUT
      5537**DCL-ENT
M$SLCFLD
      5542**DCL-ENT
M$SMOUSE
      5556**DCL-ENT
M$SMPRT
      5548**DCL-ENT
M$SPRIV
      5569**DCL-ENT
M$SSC
      5549**DCL-ENT
M$SSWITCH
      5569**DCL-ENT
M$STATE
      5578**DCL-ENT
M$STD
      5550**DCL-ENT
PL6.E3A0      #001=TOR$TURTLE File=TOR$TURTLE.:E05TSI                            WED 07/30/97 06:34 Page:51
M$STIMER
      5564**DCL-ENT
M$STLPP
      5547**DCL-ENT
M$STRAP
      5564**DCL-ENT
M$STRMATTR
      5536**DCL-ENT
M$STRMCTL
      5534**DCL-ENT
M$STRMTAB
      5537**DCL-ENT
M$SYMBIO
      5575**DCL-ENT
M$SYSCON
      5561**DCL-ENT
M$SYSID
      5579**DCL-ENT
M$TDCLOSE
      5560**DCL-ENT
M$TDIO
      5560**DCL-ENT
M$TDOPEN
      5559**DCL-ENT
M$TDREQCPU
      5560**DCL-ENT
M$TEMPWROC
      5554**DCL-ENT
M$TIME
      5577**DCL-ENT  6438--CALL     6469--CALL     6515--CALL
M$TRAP
      5564**DCL-ENT  6421--CALL
M$TRMISC
      5539**DCL-ENT
M$TRMPRG
      5535**DCL-ENT
PL6.E3A0      #001=TOR$TURTLE File=TOR$TURTLE.:E05TSI                            WED 07/30/97 06:34 Page:52
M$TRTN
      5568**DCL-ENT
M$TRUNC
      5511**DCL-ENT
M$TTIMER
      5564**DCL-ENT
M$UC
      5534**DCL
M$UMPL
      5551**DCL-ENT
M$UNFID
      5573**DCL-ENT
M$UNLATCH
      5530**DCL-ENT
M$UNSHARE
      5527**DCL-ENT
M$USRFIELD
      5570**DCL-ENT
M$VIRTUAL
      5545**DCL-ENT
M$WAIT
      5568**DCL-ENT
M$WEOF
      5513**DCL-ENT
M$WRITE
      5511**DCL-ENT  6492--CALL
M$WRSYSLOG
      5559**DCL-ENT
M$XCON
      5565**DCL-ENT
M$XCONRTN
      5526**DCL-ENT
M$XEQTIME
      5578**DCL-ENT
M$XFLUSH
      5519**DCL-ENT
PL6.E3A0      #001=TOR$TURTLE File=TOR$TURTLE.:E05TSI                            WED 07/30/97 06:34 Page:53
M$XMOUSE
      5556**DCL-ENT
M$XXX
      5522**DCL-ENT
M$YC
      5524**DCL-ENT
OPEN_FPT
      6271**DCL      6419<>CALL
OPEN_FPT.ACCESS_
      6273**DCL
OPEN_FPT.ACCT_
      6275**DCL
OPEN_FPT.ACSVEH_
      6273**DCL      6274--REDEF
OPEN_FPT.ALTKEYS_
      6279**DCL      6280--REDEF    6280--REDEF
OPEN_FPT.FORM_
      6279**DCL
OPEN_FPT.FPARAM_
      6276**DCL
OPEN_FPT.FPRG_
      6280**DCL
OPEN_FPT.HDR_
      6278**DCL      6279--REDEF
OPEN_FPT.IFPARAM_
      6276**DCL
OPEN_FPT.INSTATTR_
      6275**DCL
OPEN_FPT.IRKEYS_
      6280**DCL
OPEN_FPT.IRREC_
      6279**DCL
OPEN_FPT.NAME_
      6272**DCL
OPEN_FPT.NODENAME_
      6277**DCL
PL6.E3A0      #001=TOR$TURTLE File=TOR$TURTLE.:E05TSI                            WED 07/30/97 06:34 Page:54
OPEN_FPT.PASS_
      6273**DCL
OPEN_FPT.PROCATTR_
      6275**DCL
OPEN_FPT.RECFIELD_
      6278**DCL
OPEN_FPT.SETSTA_
      6272**DCL
OPEN_FPT.SN_
      6271**DCL
OPEN_FPT.TAB_
      6277**DCL      6278--REDEF
OPEN_FPT.UATTR_
      6274**DCL
OPEN_FPT.UHL_
      6271**DCL      6272--REDEF    6272--REDEF
OPEN_FPT.V
      6280**DCL      6271--DCLINIT
OPEN_FPT.V.ACS#
      6291**DCL
OPEN_FPT.V.ANSISPANSEQ#
      6304**DCL
OPEN_FPT.V.ASN#
      6290**DCL
OPEN_FPT.V.ATTR#
      6307**DCL
OPEN_FPT.V.AU#
      6309**DCL
OPEN_FPT.V.BLKL#
      6297**DCL
OPEN_FPT.V.BLOCKED#
      6292**DCL
OPEN_FPT.V.BUPM#
      6293**DCL
OPEN_FPT.V.CHAIN#
      6306**DCL
PL6.E3A0      #001=TOR$TURTLE File=TOR$TURTLE.:E05TSI                            WED 07/30/97 06:34 Page:55
OPEN_FPT.V.CNVRT#
      6300**DCL
OPEN_FPT.V.COMP#
      6292**DCL
OPEN_FPT.V.COPIES#
      6312**DCL
OPEN_FPT.V.CTG#
      6284**DCL
OPEN_FPT.V.CVOL#
      6285**DCL
OPEN_FPT.V.DBGDCBNO#
      6311**DCL
OPEN_FPT.V.DBGSYSID#
      6311**DCL
OPEN_FPT.V.DCB#
      6280**DCL
OPEN_FPT.V.DCBCONLGL#
      6302**DCL
OPEN_FPT.V.DELETE#
      6282**DCL
OPEN_FPT.V.DENSITY#
      6312**DCL
OPEN_FPT.V.DISP#
      6296**DCL
OPEN_FPT.V.DVFC#
      6307**DCL
OPEN_FPT.V.EBCDIC#
      6300**DCL
OPEN_FPT.V.EVENT#
      6310**DCL
OPEN_FPT.V.EXIST#
      6284**DCL
OPEN_FPT.V.EXPIRE#
      6300**DCL
OPEN_FPT.V.FINDPOS#
      6286**DCL
PL6.E3A0      #001=TOR$TURTLE File=TOR$TURTLE.:E05TSI                            WED 07/30/97 06:34 Page:56
OPEN_FPT.V.FSN#
      6311**DCL      6311--REDEF    6311--REDEF
OPEN_FPT.V.FUN#
      6290**DCL
OPEN_FPT.V.GHSTACS#
      6295**DCL
OPEN_FPT.V.IGNOREFSN#
      6304**DCL
OPEN_FPT.V.INITZ
      6281**DCL
OPEN_FPT.V.INITZ.REASSIGN#
      6281**DCL
OPEN_FPT.V.INITZ.SCRUB#
      6281**DCL
OPEN_FPT.V.IOERROK#
      6302**DCL
OPEN_FPT.V.IXTNSIZE#
      6299**DCL
OPEN_FPT.V.JRNLBYPASS#
      6294**DCL
OPEN_FPT.V.KEYL#
      6296**DCL
OPEN_FPT.V.KEYTYPE#
      6306**DCL
OPEN_FPT.V.KEYX#
      6295**DCL
OPEN_FPT.V.LINES#
      6310**DCL
OPEN_FPT.V.LOAD#
      6294**DCL
OPEN_FPT.V.LRDL0#
      6298**DCL
OPEN_FPT.V.LSLIDE#
      6297**DCL
OPEN_FPT.V.LSTAOR#
      6294**DCL
PL6.E3A0      #001=TOR$TURTLE File=TOR$TURTLE.:E05TSI                            WED 07/30/97 06:34 Page:57
OPEN_FPT.V.MAXVOL#
      6306**DCL
OPEN_FPT.V.NRECS#
      6299**DCL
OPEN_FPT.V.OPER
      6282**DCL
OPEN_FPT.V.OPER.MNTONLY#
      6284**DCL
OPEN_FPT.V.OPER.NXTA#
      6283**DCL
OPEN_FPT.V.OPER.NXTF#
      6283**DCL
OPEN_FPT.V.OPER.TEST#
      6282**DCL
OPEN_FPT.V.OPER.THISF#
      6283**DCL
OPEN_FPT.V.ORG#
      6291**DCL
OPEN_FPT.V.OVERFDE#
      6303**DCL
OPEN_FPT.V.QISS#
      6309**DCL
OPEN_FPT.V.RECL#
      6297**DCL
OPEN_FPT.V.RES#
      6295**DCL
OPEN_FPT.V.SEED#
      6313**DCL
OPEN_FPT.V.SEEDSPECIFIED#
      6304**DCL
OPEN_FPT.V.SEQ#
      6308**DCL
OPEN_FPT.V.SEQCOL#
      6308**DCL
OPEN_FPT.V.SEQID#
      6310**DCL
PL6.E3A0      #001=TOR$TURTLE File=TOR$TURTLE.:E05TSI                            WED 07/30/97 06:34 Page:58
OPEN_FPT.V.SETDCB#
      6281**DCL
OPEN_FPT.V.SHARE#
      6285**DCL
OPEN_FPT.V.SPANNED#
      6293**DCL
OPEN_FPT.V.SPARE#
      6298**DCL
OPEN_FPT.V.SRCHCOND
      6286**DCL
OPEN_FPT.V.SRCHCOND.ANYF#
      6289**DCL
OPEN_FPT.V.SRCHCOND.ARCHIVE#
      6288**DCL
OPEN_FPT.V.SRCHCOND.BAD#
      6287**DCL
OPEN_FPT.V.SRCHCOND.BUF#
      6287**DCL
OPEN_FPT.V.SRCHCOND.DELF#
      6286**DCL
OPEN_FPT.V.SRCHCOND.NOLIST#
      6286**DCL
OPEN_FPT.V.SRCHCOND.QS#
      6288**DCL
OPEN_FPT.V.SRCHCOND.REV#
      6289**DCL
OPEN_FPT.V.TERMCONLGL#
      6303**DCL
OPEN_FPT.V.TYPE#
      6292**DCL
OPEN_FPT.V.UOPT#
      6290**DCL
OPEN_FPT.V.VOL#
      6305**DCL
OPEN_FPT.V.VOLACCESS#
      6309**DCL
PL6.E3A0      #001=TOR$TURTLE File=TOR$TURTLE.:E05TSI                            WED 07/30/97 06:34 Page:59
OPEN_FPT.V.XONLY#
      6301**DCL
OPEN_FPT.V.XTEND#
      6301**DCL
OPEN_FPT.V.XTNSIZE#
      6299**DCL
OPEN_FPT.VIRTUAL_
      6272**DCL
OPEN_FPT.V_
      6271**DCL
OPEN_FPT.WINDOW_
      6274**DCL
OPEN_FPT.WSN_
      6277**DCL      6277--REDEF
READ_BUF_ASCII
      6362**DCL
READ_BUF_BCD
      6363**DCL
START_FPT
      6331**DCL      6438<>CALL     6469<>CALL     6515<>CALL
START_FPT.DATE_
      6331**DCL
START_FPT.DATE_.BOUND
      6331**DCL
START_FPT.DATE_.DATE$
      6332**DCL
START_FPT.DAY_
      6334**DCL
START_FPT.TIME_
      6333**DCL
START_FPT.TIME_.BOUND
      6333**DCL
START_FPT.TIME_.TIME$
      6334**DCL
START_FPT.TSTAMP_
      6334**DCL
PL6.E3A0      #001=TOR$TURTLE File=TOR$TURTLE.:E05TSI                            WED 07/30/97 06:34 Page:60
START_FPT.V
      6335**DCL      6331--DCLINIT
START_FPT.V.DEST#
      6335**DCL
START_FPT.V.DEST_BASIS#
      6336**DCL
START_FPT.V.SOURCE#
      6335**DCL
START_FPT.V.SOURCE_BASIS#
      6336**DCL
START_FPT.V_
      6331**DCL
TIME_BUF
      6364**DCL      6333--DCLINIT  6334--DCLINIT  6439>>CALLBLT  6470>>CALLBLT  6516>>CALLBLT
TOR$BREAK_HANDLER
      6372**DCL-ENT  6352--DCLINIT
TOR$CONSOLE_OUT
      6490**PROC     6396--CALL     6447--CALL     6468--CALL     6475--CALL     6524--CALL
TOR$CONSOLE_OUT_PTR
      6395**ENTRY
TOR$EXIT
      6460**PROC     6403--CALL
TOR$EXIT_PTR
      6402**ENTRY
TOR$FAULTS
      6373**DCL-ENT  6159--DCLINIT  6159--DCLINIT  6160--DCLINIT  6160--DCLINIT
TOR$INITIALIZE
      6417**PROC     6379--CALL
TOR$START_UP
      6432**PROC     6380--CALL
TOR$TURTLE
        19**PROC
TOR$WRAPUP
      6509**PROC     6400--CALL
TOR$WRAPUP_PTR
      6399**ENTRY
PL6.E3A0      #001=TOR$TURTLE File=TOR$TURTLE.:E05TSI                            WED 07/30/97 06:34 Page:61
TRAP_FPT
      6158**DCL      6421<>CALL
TRAP_FPT.PTC_
      6158**DCL
TRAP_FPT.V
      6158**DCL      6158--DCLINIT
TRAP_FPT.V.ARITHMETIC#
      6159**DCL
TRAP_FPT.V.ERRORS#
      6160**DCL
TRAP_FPT.V.FLAGS
      6160**DCL
TRAP_FPT.V.FLAGS.COMMAND#
      6164**DCL
TRAP_FPT.V.FLAGS.DERAIL#
      6162**DCL
TRAP_FPT.V.FLAGS.DIVIDE_CHECK#
      6161**DCL
TRAP_FPT.V.FLAGS.FAULT_TAG#
      6162**DCL
TRAP_FPT.V.FLAGS.HARDWARE#
      6167**DCL
TRAP_FPT.V.FLAGS.HISTORY_REGS#
      6167**DCL
TRAP_FPT.V.FLAGS.IPR#
      6165**DCL
TRAP_FPT.V.FLAGS.LOCKUP#
      6165**DCL
TRAP_FPT.V.FLAGS.MEMORY#
      6164**DCL
TRAP_FPT.V.FLAGS.MISSING_PAGE#
      6166**DCL
TRAP_FPT.V.FLAGS.MISSING_SEG#
      6165**DCL
TRAP_FPT.V.FLAGS.MME#
      6161**DCL
PL6.E3A0      #001=TOR$TURTLE File=TOR$TURTLE.:E05TSI                            WED 07/30/97 06:34 Page:62
TRAP_FPT.V.FLAGS.OVERFLOW#
      6160**DCL
TRAP_FPT.V.FLAGS.RESTORE#
      6163**DCL
TRAP_FPT.V.FLAGS.SECURITY_1#
      6163**DCL
TRAP_FPT.V.FLAGS.SECURITY_2#
      6166**DCL
TRAP_FPT.V.PMME#
      6159**DCL
TRAP_FPT.V.PROGRAMMED#
      6159**DCL
TRAP_FPT.V_
      6158**DCL
TURTLE_ENTRY$
      6371**DCL-ENT  6381--CALL
WRITE_BUF_ASCII
      6361**DCL
WRITE_BUF_BCD
      6360**DCL
PL6.E3A0      #001=TOR$TURTLE File=TOR$TURTLE.:E05TSI                            WED 07/30/97 06:34 Page:63
              *** CROSS REFERENCE LISTING ***
    **     DENOTES     IDENTIFIER DEFINITION
    <<                 IDENTIFIER'S VALUE SET
    >>                 IDENTIFIER'S VALUE USED
    <>                 IDENTIFIER SET AND/OR USED
    --                 IDENTIFIER REFERENCED
PL6.E3A0      #001=TOR$TURTLE File=TOR$TURTLE.:E05TSI                            WED 07/30/97 06:34 Page:64
              FULL UREF LISTING

B_VERSION
      6365**DCL
CHAR_COUNT
      6358**DCL
CONSOLE_FPT.BUF_.BOUND
      6191**DCL
CONSOLE_FPT.BUF_.BUF$
      6193**DCL
CONSOLE_FPT.IDBUF_
      6193**DCL
CONSOLE_FPT.KEY_
      6191**DCL
CONSOLE_FPT.V.DCB#
      6194**DCL
CONSOLE_FPT.V.DVBYTE
      6199**DCL
CONSOLE_FPT.V.DVBYTE.BIN#
      6200**DCL
CONSOLE_FPT.V.DVBYTE.BP#
      6200**DCL
CONSOLE_FPT.V.DVBYTE.CONT#
      6202**DCL
CONSOLE_FPT.V.DVBYTE.NODAT#
      6201**DCL
CONSOLE_FPT.V.DVBYTE.REREAD#
      6200**DCL
CONSOLE_FPT.V.DVBYTE.RRR#
      6201**DCL
CONSOLE_FPT.V.DVBYTE.TOP#
      6199**DCL
CONSOLE_FPT.V.DVBYTE.TRANS#
      6201**DCL
PL6.E3A0      #001=TOR$TURTLE File=TOR$TURTLE.:E05TSI                            WED 07/30/97 06:34 Page:65
CONSOLE_FPT.V.EVENT#
      6199**DCL
CONSOLE_FPT.V.FULL#
      6196**DCL
CONSOLE_FPT.V.ID#
      6195**DCL
CONSOLE_FPT.V.IOERROK#
      6198**DCL
CONSOLE_FPT.V.KEYTYPE#
      6198**DCL
CONSOLE_FPT.V.NEWKEY#
      6197**DCL
CONSOLE_FPT.V.NOTIME#
      6197**DCL
CONSOLE_FPT.V.ODFNC#
      6203**DCL
CONSOLE_FPT.V.ONEWKEY#
      6196**DCL
CONSOLE_FPT.V.REWRITE#
      6197**DCL
CONSOLE_FPT.V.SEED#
      6199**DCL
CONSOLE_FPT.V.WAIT#
      6194**DCL
CONSOLE_FPT.V_
      6191**DCL
INT_FPT.V.UENTRY#
      6352**DCL
INT_FPT.V_
      6352**DCL
M$ACCT
      5527**DCL-ENT
M$ACTIVATE
      5530**DCL-ENT
M$ALIB
      5523**DCL-ENT
PL6.E3A0      #001=TOR$TURTLE File=TOR$TURTLE.:E05TSI                            WED 07/30/97 06:34 Page:66
M$ASUSER
      5525**DCL-ENT
M$ATTACH
      5532**DCL-ENT
M$BADPP
      5550**DCL-ENT
M$CGCTL
      5531**DCL-ENT
M$CGINFO
      5531**DCL-ENT
M$CHECK
      5512**DCL-ENT
M$CHGUNIT
      5570**DCL-ENT
M$CLOSE
      5510**DCL-ENT
M$CLRSTK
      5568**DCL-ENT
M$CMDVAR
      5579**DCL-ENT
M$CONFIG
      5540**DCL-ENT
M$CORRES
      5515**DCL-ENT
M$CPEXIT
      5524**DCL-ENT
M$CVM
      5548**DCL-ENT
M$CVOL
      5513**DCL-ENT
M$DCLFLD
      5540**DCL-ENT
M$DEACTIVATE
      5530**DCL-ENT
M$DELREC
      5512**DCL-ENT
PL6.E3A0      #001=TOR$TURTLE File=TOR$TURTLE.:E05TSI                            WED 07/30/97 06:34 Page:67
M$DEQ
      5577**DCL-ENT
M$DETACH
      5532**DCL-ENT
M$DEVICE
      5514**DCL-ENT
M$DISPLAY
      5577**DCL-ENT
M$DISPRES
      5517**DCL-ENT
M$DLIB
      5523**DCL-ENT
M$DRIBBLE
      5540**DCL-ENT
M$DRTN
      5568**DCL-ENT
M$DSUSER
      5525**DCL-ENT
M$ENQ
      5576**DCL-ENT
M$EOM
      5535**DCL-ENT
M$ERASE
      5541**DCL-ENT
M$ERR
      5522**DCL-ENT
M$ERRMSG
      5573**DCL-ENT
M$EVENT
      5565**DCL-ENT
M$EXHUME
      5574**DCL-ENT
M$EXTEND
      5514**DCL-ENT
M$FDP
      5546**DCL-ENT
PL6.E3A0      #001=TOR$TURTLE File=TOR$TURTLE.:E05TSI                            WED 07/30/97 06:34 Page:68
M$FDS
      5545**DCL-ENT
M$FEBOOT
      5538**DCL-ENT
M$FECTL
      5539**DCL-ENT
M$FEDUMP
      5538**DCL-ENT
M$FID
      5573**DCL-ENT
M$FINDPROC
      5527**DCL-ENT
M$FSUSER
      5525**DCL-ENT
M$FVP
      5547**DCL-ENT
M$FWCG
      5531**DCL-ENT
M$GBPL
      5551**DCL-ENT
M$GDDL
      5547**DCL-ENT
M$GDP
      5546**DCL-ENT
M$GDS
      5545**DCL-ENT
M$GETDCB
      5516**DCL-ENT
M$GETMOUSE
      5556**DCL-ENT
M$GETPM
      5557**DCL-ENT
M$GJOB
      5575**DCL-ENT
M$GLINEATTR
      5535**DCL-ENT
PL6.E3A0      #001=TOR$TURTLE File=TOR$TURTLE.:E05TSI                            WED 07/30/97 06:34 Page:69
M$GOODPP
      5550**DCL-ENT
M$GPLATEN
      5543**DCL-ENT
M$GPROMPT
      5542**DCL-ENT
M$GTRMATTR
      5536**DCL-ENT
M$GTRMCTL
      5534**DCL-ENT
M$GTRMTAB
      5537**DCL-ENT
M$GVP
      5546**DCL-ENT
M$HELP
      5573**DCL-ENT
M$INTRTN
      5526**DCL-ENT
M$IOQ
      5561**DCL-ENT
M$JOBSTATS
      5575**DCL-ENT
M$KEYIN
      5515**DCL-ENT
M$LDEV
      5510**DCL-ENT
M$LDTRC
      5523**DCL-ENT
M$LIMIT
      5516**DCL-ENT
M$LINES
      5515**DCL-ENT
M$LINK
      5522**DCL-ENT
M$LO
      6125**DCL
PL6.E3A0      #001=TOR$TURTLE File=TOR$TURTLE.:E05TSI                            WED 07/30/97 06:34 Page:70
M$MADMUCK
      5518**DCL-ENT
M$MAKUSER
      5549**DCL-ENT
M$MBS
      5517**DCL-ENT
M$MDFFLD
      5541**DCL-ENT
M$MERC
      5566**DCL-ENT
M$MERCS
      5567**DCL-ENT
M$MIRROR
      5561**DCL-ENT
M$MONINFO
      5578**DCL-ENT
M$MPL
      5551**DCL-ENT
M$NODEINFO
      5542**DCL-ENT
M$NXTUSR
      5576**DCL-ENT
M$OCMSG
      5574**DCL-ENT
M$OLAY
      5522**DCL-ENT
M$PAS
      5551**DCL-ENT
M$PATHCON
      5574**DCL-ENT
M$PDS
      5545**DCL-ENT
M$PFIL
      5512**DCL-ENT
M$PLATEN
      5536**DCL-ENT
PL6.E3A0      #001=TOR$TURTLE File=TOR$TURTLE.:E05TSI                            WED 07/30/97 06:34 Page:71
M$PRECORD
      5514**DCL-ENT
M$PROCNAME
      5527**DCL-ENT
M$PROFILE
      5538**DCL-ENT
M$PROMPT
      5534**DCL-ENT
M$RACST
      5518**DCL-ENT
M$RDSYSLOG
      5559**DCL-ENT
M$READ
      5511**DCL-ENT
M$RELDCB
      5516**DCL-ENT
M$RELRES
      5517**DCL-ENT
M$RELSTARF
      5519**DCL-ENT
M$REM
      5519**DCL-ENT
M$RENV
      5566**DCL-ENT
M$REQUIRE
      5518**DCL-ENT
M$RETRY
      5567**DCL-ENT
M$RETRYS
      5567**DCL-ENT
M$REW
      5513**DCL-ENT
M$RLSFLD
      5541**DCL-ENT
M$RPRIV
      5569**DCL-ENT
PL6.E3A0      #001=TOR$TURTLE File=TOR$TURTLE.:E05TSI                            WED 07/30/97 06:34 Page:72
M$RSPP
      5548**DCL-ENT
M$RSWITCH
      5570**DCL-ENT
M$RUE
      5576**DCL-ENT
M$SAD
      5549**DCL-ENT
M$SAVE
      5525**DCL-ENT
M$SCON
      5526**DCL-ENT
M$SCREECH
      5524**DCL-ENT
M$SENV
      5566**DCL-ENT
M$SETFMA
      5510**DCL-ENT
M$SETFP
      5539**DCL-ENT
M$SI
      6126**DCL
M$SINPUT
      5537**DCL-ENT
M$SLCFLD
      5542**DCL-ENT
M$SMOUSE
      5556**DCL-ENT
M$SMPRT
      5548**DCL-ENT
M$SPRIV
      5569**DCL-ENT
M$SSC
      5549**DCL-ENT
M$SSWITCH
      5569**DCL-ENT
PL6.E3A0      #001=TOR$TURTLE File=TOR$TURTLE.:E05TSI                            WED 07/30/97 06:34 Page:73
M$STATE
      5578**DCL-ENT
M$STD
      5550**DCL-ENT
M$STIMER
      5564**DCL-ENT
M$STLPP
      5547**DCL-ENT
M$STRAP
      5564**DCL-ENT
M$STRMATTR
      5536**DCL-ENT
M$STRMCTL
      5534**DCL-ENT
M$STRMTAB
      5537**DCL-ENT
M$SYMBIO
      5575**DCL-ENT
M$SYSCON
      5561**DCL-ENT
M$SYSID
      5579**DCL-ENT
M$TDCLOSE
      5560**DCL-ENT
M$TDIO
      5560**DCL-ENT
M$TDOPEN
      5559**DCL-ENT
M$TDREQCPU
      5560**DCL-ENT
M$TEMPWROC
      5554**DCL-ENT
M$TRMISC
      5539**DCL-ENT
M$TRMPRG
      5535**DCL-ENT
PL6.E3A0      #001=TOR$TURTLE File=TOR$TURTLE.:E05TSI                            WED 07/30/97 06:34 Page:74
M$TRTN
      5568**DCL-ENT
M$TRUNC
      5511**DCL-ENT
M$TTIMER
      5564**DCL-ENT
M$UC
      5534**DCL
M$UMPL
      5551**DCL-ENT
M$UNFID
      5573**DCL-ENT
M$UNLATCH
      5530**DCL-ENT
M$UNSHARE
      5527**DCL-ENT
M$USRFIELD
      5570**DCL-ENT
M$VIRTUAL
      5545**DCL-ENT
M$WAIT
      5568**DCL-ENT
M$WEOF
      5513**DCL-ENT
M$WRSYSLOG
      5559**DCL-ENT
M$XCON
      5565**DCL-ENT
M$XCONRTN
      5526**DCL-ENT
M$XEQTIME
      5578**DCL-ENT
M$XFLUSH
      5519**DCL-ENT
M$XMOUSE
      5556**DCL-ENT
PL6.E3A0      #001=TOR$TURTLE File=TOR$TURTLE.:E05TSI                            WED 07/30/97 06:34 Page:75
M$XXX
      5522**DCL-ENT
M$YC
      5524**DCL-ENT
OPEN_FPT.ACCESS_
      6273**DCL
OPEN_FPT.ACCT_
      6275**DCL
OPEN_FPT.FORM_
      6279**DCL
OPEN_FPT.FPARAM_
      6276**DCL
OPEN_FPT.FPRG_
      6280**DCL
OPEN_FPT.IFPARAM_
      6276**DCL
OPEN_FPT.INSTATTR_
      6275**DCL
OPEN_FPT.IRKEYS_
      6280**DCL
OPEN_FPT.IRREC_
      6279**DCL
OPEN_FPT.NAME_
      6272**DCL
OPEN_FPT.NODENAME_
      6277**DCL
OPEN_FPT.PASS_
      6273**DCL
OPEN_FPT.PROCATTR_
      6275**DCL
OPEN_FPT.RECFIELD_
      6278**DCL
OPEN_FPT.SETSTA_
      6272**DCL
OPEN_FPT.SN_
      6271**DCL
PL6.E3A0      #001=TOR$TURTLE File=TOR$TURTLE.:E05TSI                            WED 07/30/97 06:34 Page:76
OPEN_FPT.UATTR_
      6274**DCL
OPEN_FPT.V.ACS#
      6291**DCL
OPEN_FPT.V.ANSISPANSEQ#
      6304**DCL
OPEN_FPT.V.ASN#
      6290**DCL
OPEN_FPT.V.ATTR#
      6307**DCL
OPEN_FPT.V.AU#
      6309**DCL
OPEN_FPT.V.BLKL#
      6297**DCL
OPEN_FPT.V.BLOCKED#
      6292**DCL
OPEN_FPT.V.BUPM#
      6293**DCL
OPEN_FPT.V.CHAIN#
      6306**DCL
OPEN_FPT.V.CNVRT#
      6300**DCL
OPEN_FPT.V.COMP#
      6292**DCL
OPEN_FPT.V.COPIES#
      6312**DCL
OPEN_FPT.V.CTG#
      6284**DCL
OPEN_FPT.V.CVOL#
      6285**DCL
OPEN_FPT.V.DBGDCBNO#
      6311**DCL
OPEN_FPT.V.DBGSYSID#
      6311**DCL
OPEN_FPT.V.DCB#
      6280**DCL
PL6.E3A0      #001=TOR$TURTLE File=TOR$TURTLE.:E05TSI                            WED 07/30/97 06:34 Page:77
OPEN_FPT.V.DCBCONLGL#
      6302**DCL
OPEN_FPT.V.DELETE#
      6282**DCL
OPEN_FPT.V.DENSITY#
      6312**DCL
OPEN_FPT.V.DISP#
      6296**DCL
OPEN_FPT.V.DVFC#
      6307**DCL
OPEN_FPT.V.EBCDIC#
      6300**DCL
OPEN_FPT.V.EVENT#
      6310**DCL
OPEN_FPT.V.EXIST#
      6284**DCL
OPEN_FPT.V.EXPIRE#
      6300**DCL
OPEN_FPT.V.FINDPOS#
      6286**DCL
OPEN_FPT.V.FUN#
      6290**DCL
OPEN_FPT.V.GHSTACS#
      6295**DCL
OPEN_FPT.V.IGNOREFSN#
      6304**DCL
OPEN_FPT.V.INITZ
      6281**DCL
OPEN_FPT.V.INITZ.REASSIGN#
      6281**DCL
OPEN_FPT.V.INITZ.SCRUB#
      6281**DCL
OPEN_FPT.V.IOERROK#
      6302**DCL
OPEN_FPT.V.IXTNSIZE#
      6299**DCL
PL6.E3A0      #001=TOR$TURTLE File=TOR$TURTLE.:E05TSI                            WED 07/30/97 06:34 Page:78
OPEN_FPT.V.JRNLBYPASS#
      6294**DCL
OPEN_FPT.V.KEYL#
      6296**DCL
OPEN_FPT.V.KEYTYPE#
      6306**DCL
OPEN_FPT.V.KEYX#
      6295**DCL
OPEN_FPT.V.LINES#
      6310**DCL
OPEN_FPT.V.LOAD#
      6294**DCL
OPEN_FPT.V.LRDL0#
      6298**DCL
OPEN_FPT.V.LSLIDE#
      6297**DCL
OPEN_FPT.V.LSTAOR#
      6294**DCL
OPEN_FPT.V.MAXVOL#
      6306**DCL
OPEN_FPT.V.NRECS#
      6299**DCL
OPEN_FPT.V.OPER
      6282**DCL
OPEN_FPT.V.OPER.MNTONLY#
      6284**DCL
OPEN_FPT.V.OPER.NXTA#
      6283**DCL
OPEN_FPT.V.OPER.NXTF#
      6283**DCL
OPEN_FPT.V.OPER.TEST#
      6282**DCL
OPEN_FPT.V.OPER.THISF#
      6283**DCL
OPEN_FPT.V.ORG#
      6291**DCL
PL6.E3A0      #001=TOR$TURTLE File=TOR$TURTLE.:E05TSI                            WED 07/30/97 06:34 Page:79
OPEN_FPT.V.OVERFDE#
      6303**DCL
OPEN_FPT.V.QISS#
      6309**DCL
OPEN_FPT.V.RECL#
      6297**DCL
OPEN_FPT.V.RES#
      6295**DCL
OPEN_FPT.V.SEED#
      6313**DCL
OPEN_FPT.V.SEEDSPECIFIED#
      6304**DCL
OPEN_FPT.V.SEQ#
      6308**DCL
OPEN_FPT.V.SEQCOL#
      6308**DCL
OPEN_FPT.V.SEQID#
      6310**DCL
OPEN_FPT.V.SETDCB#
      6281**DCL
OPEN_FPT.V.SHARE#
      6285**DCL
OPEN_FPT.V.SPANNED#
      6293**DCL
OPEN_FPT.V.SPARE#
      6298**DCL
OPEN_FPT.V.SRCHCOND
      6286**DCL
OPEN_FPT.V.SRCHCOND.ANYF#
      6289**DCL
OPEN_FPT.V.SRCHCOND.ARCHIVE#
      6288**DCL
OPEN_FPT.V.SRCHCOND.BAD#
      6287**DCL
OPEN_FPT.V.SRCHCOND.BUF#
      6287**DCL
PL6.E3A0      #001=TOR$TURTLE File=TOR$TURTLE.:E05TSI                            WED 07/30/97 06:34 Page:80
OPEN_FPT.V.SRCHCOND.DELF#
      6286**DCL
OPEN_FPT.V.SRCHCOND.NOLIST#
      6286**DCL
OPEN_FPT.V.SRCHCOND.QS#
      6288**DCL
OPEN_FPT.V.SRCHCOND.REV#
      6289**DCL
OPEN_FPT.V.TERMCONLGL#
      6303**DCL
OPEN_FPT.V.TYPE#
      6292**DCL
OPEN_FPT.V.UOPT#
      6290**DCL
OPEN_FPT.V.VOL#
      6305**DCL
OPEN_FPT.V.VOLACCESS#
      6309**DCL
OPEN_FPT.V.XONLY#
      6301**DCL
OPEN_FPT.V.XTEND#
      6301**DCL
OPEN_FPT.V.XTNSIZE#
      6299**DCL
OPEN_FPT.VIRTUAL_
      6272**DCL
OPEN_FPT.V_
      6271**DCL
OPEN_FPT.WINDOW_
      6274**DCL
READ_BUF_ASCII
      6362**DCL
READ_BUF_BCD
      6363**DCL
START_FPT.DATE_
      6331**DCL
PL6.E3A0      #001=TOR$TURTLE File=TOR$TURTLE.:E05TSI                            WED 07/30/97 06:34 Page:81
START_FPT.DATE_.BOUND
      6331**DCL
START_FPT.DATE_.DATE$
      6332**DCL
START_FPT.DAY_
      6334**DCL
START_FPT.TIME_
      6333**DCL
START_FPT.TIME_.BOUND
      6333**DCL
START_FPT.TIME_.TIME$
      6334**DCL
START_FPT.TSTAMP_
      6334**DCL
START_FPT.V.DEST#
      6335**DCL
START_FPT.V.DEST_BASIS#
      6336**DCL
START_FPT.V.SOURCE#
      6335**DCL
START_FPT.V.SOURCE_BASIS#
      6336**DCL
START_FPT.V_
      6331**DCL
TOR$CONSOLE_OUT_PTR
      6395**ENTRY
TOR$EXIT_PTR
      6402**ENTRY
TOR$TURTLE
        19**PROC
TOR$WRAPUP_PTR
      6399**ENTRY
TRAP_FPT.PTC_
      6158**DCL
TRAP_FPT.V.ARITHMETIC#
      6159**DCL
PL6.E3A0      #001=TOR$TURTLE File=TOR$TURTLE.:E05TSI                            WED 07/30/97 06:34 Page:82
TRAP_FPT.V.ERRORS#
      6160**DCL
TRAP_FPT.V.FLAGS
      6160**DCL
TRAP_FPT.V.FLAGS.COMMAND#
      6164**DCL
TRAP_FPT.V.FLAGS.DERAIL#
      6162**DCL
TRAP_FPT.V.FLAGS.DIVIDE_CHECK#
      6161**DCL
TRAP_FPT.V.FLAGS.FAULT_TAG#
      6162**DCL
TRAP_FPT.V.FLAGS.HARDWARE#
      6167**DCL
TRAP_FPT.V.FLAGS.HISTORY_REGS#
      6167**DCL
TRAP_FPT.V.FLAGS.IPR#
      6165**DCL
TRAP_FPT.V.FLAGS.LOCKUP#
      6165**DCL
TRAP_FPT.V.FLAGS.MEMORY#
      6164**DCL
TRAP_FPT.V.FLAGS.MISSING_PAGE#
      6166**DCL
TRAP_FPT.V.FLAGS.MISSING_SEG#
      6165**DCL
TRAP_FPT.V.FLAGS.MME#
      6161**DCL
TRAP_FPT.V.FLAGS.OVERFLOW#
      6160**DCL
TRAP_FPT.V.FLAGS.RESTORE#
      6163**DCL
TRAP_FPT.V.FLAGS.SECURITY_1#
      6163**DCL
TRAP_FPT.V.FLAGS.SECURITY_2#
      6166**DCL
PL6.E3A0      #001=TOR$TURTLE File=TOR$TURTLE.:E05TSI                            WED 07/30/97 06:34 Page:83
TRAP_FPT.V.PMME#
      6159**DCL
TRAP_FPT.V.PROGRAMMED#
      6159**DCL
TRAP_FPT.V_
      6158**DCL
WRITE_BUF_ASCII
      6361**DCL
WRITE_BUF_BCD
      6360**DCL
