VERSION E05

PL6.E3A0      #001=TOT$ASCII_BCD File=TOT$ASCII_BCD.:E05TSI                      WED 07/30/97 06:35 Page:1
        1        1        /*M* TOT$ASCII_BCD     TOLTS ASCII to BCD Conversion program */
        2        2        /*T***********************************************************/
        3        3        /*T*                                                         */
        4        4        /*T* Copyright (c) Bull HN Information Systems Inc., 1997    */
        5        5        /*T*                                                         */
        6        6        /*T***********************************************************/
        7        7
        8        8        /*X* PLM=3,DCI=6,SQB=N,PRB=N,DTI=5,ENI=0,AND=Y,ECI=0,CSU=3,DIN=3,
        9        9             CTI=8,CRM=109,CRT=1,NLB=N,NTB=Y,MCL=110 */
       10       10
       11       11        /*D* NAME:         TOT$ASCII_BCD
       12       12             CALL:         CALL TOT$ASCII_BCD (ASCII,BCD,CHAR_COUNT)
       13       13             INTERFACE:    ASCBIN
       14       14             INPUT:        ASCII - string to be converted
       15       15                                   must be less than 85 characters
       16       16                           CHAR_COUNT - number of characters to convert
       17       17             OUTPUT:       BCD - BCD equivalent of the ASCII string
       18       18             DESCRIPTION:  This procedure converts the ASCII string into the
       19       19                           BCD string by indexing into a BCD table.
       20       20             LAST UPDATE:  06/02/83
       21       21        */
       22       22
       23       23        /*F* NAME:         TOT$ASCII_BCD
       24       24             PURPOSE:      Convert ASCII character string to BCD.
       25       25             DESCRIPTION:  Converts CP-6 ASCII to GCOS BCD format
       26       26             REFERENCE:    CP-6 Release C0I0
       27       27                           Carl J. Eichert / Scott S. Sheppard
       28       28        */
       29       29        %EJECT;
PL6.E3A0      #001=TOT$ASCII_BCD File=TOT$ASCII_BCD.:E05TSI                      WED 07/30/97 06:35 Page:2
       30       30        TOT$ASCII_BCD: PROC (ASCII, BCD, CHAR_COUNT) ;
       31       31
       32       32    1      DCL ASCII            (0:83) CHAR (1) CALIGNED ;
       33       33    1      DCL 1 BCD CALIGNED,
       34       34    1            2 E            (0:83) UBIN (6) UNAL ;
       35       35    1      DCL CHAR_COUNT       SBIN WORD ALIGNED ;
       36       36    1      DCL I                UBIN HALF HALIGNED ;
       37       37    1      DCL 1 TABLE CONSTANT ALIGNED,
       38       38    1            2 BCD          (0:511) UBIN (6) UNAL INIT
       39       39    1               (31*32,16,63,62,11,43,60,20,47,29,45,44,48,59,42,27,
       40       40    1                49,0,1,2,3,4,5,6,7,8,9,13,46,30,61,14,15,12,17,18,19,
       41       41    1                20,21,22,23,24,25,33,34,35,36,37,38,39,40,41,50,51,52,53,
       42       42    1                54,55,56,57,10,31,28,32,58,31,17,18,19,20,21,22,23,24,
       43       43    1                25,33,34,35,36,37,38,39,40,41,50,51,52,53,54,55,56,57,
       44       44    1                31*0) ;
       45       45
       46       46        /* Code */
       47       47
       48       48    2      DO I = 0 TO CHAR_COUNT - 1 ;
       49       49    2         BCD.E(I) = TABLE.BCD(ASCBIN (ASCII(I))) ;
       50       50    2      END /* DO */ ;
       51       51    1      RETURN ;
       52       52
       53       53    1   END TOT$ASCII_BCD;

PL6.E3A0      #001=TOT$ASCII_BCD File=TOT$ASCII_BCD.:E05TSI                      WED 07/30/97 06:35 Page:3
      No diagnostics issued in procedure TOT$ASCII_BCD.

   Procedure TOT$ASCII_BCD requires 31 words for executable code.
   Procedure TOT$ASCII_BCD requires 10 words of local(AUTO) storage.

    No errors detected in file TOT$ASCII_BCD.:E05TSI    .

PL6.E3A0      #001=TOT$ASCII_BCD File=TOT$ASCII_BCD.:E05TSI                      WED 07/30/97 06:35 Page:4

 Object Unit name= TOT$ASCII_BCD                              File name= TOT$ASCII_BCD.:E05TOU
 UTS= JUL 30 '97 06:35:39.12 WED                              Compiler= PL-6/E31         Sev=      00
 SharedLib= :SHARED_SYSTEM                                    Alt SharedLib=


    ****  Control sections  ****

 Sect   Type Bound  Init  Size OctSiz  Section name(segment info)
    0  RoData even  UTS     86    126  TOT$ASCII_BCD
    1   Proc  even  none    31     37  TOT$ASCII_BCD

    ****  Entry defs  ****

                              Check   Calling
                             calling  sequence
  Sect OctLoc Primary Altret sequence   type   Parms  Name
     1      0   yes            yes      Std        3  TOT$ASCII_BCD

  ****  Entry refs  ****

         Check        Calling
        calling       sequence
Altret sequence SRef   type   Args  Name
                       nStd      0 X66_AUTO_3
                       nStd      0 X66_ARET
PL6.E3A0      #001=TOT$ASCII_BCD File=TOT$ASCII_BCD.:E05TSI                      WED 07/30/97 06:35 Page:5


        1        1        /*M* TOT$ASCII_BCD     TOLTS ASCII to BCD Conversion program */
        2        2        /*T***********************************************************/
        3        3        /*T*                                                         */
        4        4        /*T* Copyright (c) Bull HN Information Systems Inc., 1997    */
        5        5        /*T*                                                         */
        6        6        /*T***********************************************************/
        7        7
        8        8        /*X* PLM=3,DCI=6,SQB=N,PRB=N,DTI=5,ENI=0,AND=Y,ECI=0,CSU=3,DIN=3,
        9        9             CTI=8,CRM=109,CRT=1,NLB=N,NTB=Y,MCL=110 */
       10       10
       11       11        /*D* NAME:         TOT$ASCII_BCD
       12       12             CALL:         CALL TOT$ASCII_BCD (ASCII,BCD,CHAR_COUNT)
       13       13             INTERFACE:    ASCBIN
       14       14             INPUT:        ASCII - string to be converted
       15       15                                   must be less than 85 characters
       16       16                           CHAR_COUNT - number of characters to convert
       17       17             OUTPUT:       BCD - BCD equivalent of the ASCII string
       18       18             DESCRIPTION:  This procedure converts the ASCII string into the
       19       19                           BCD string by indexing into a BCD table.
       20       20             LAST UPDATE:  06/02/83
       21       21        */
       22       22
       23       23        /*F* NAME:         TOT$ASCII_BCD
       24       24             PURPOSE:      Convert ASCII character string to BCD.
       25       25             DESCRIPTION:  Converts CP-6 ASCII to GCOS BCD format
       26       26             REFERENCE:    CP-6 Release C0I0
       27       27                           Carl J. Eichert / Scott S. Sheppard
       28       28        */
       29       29        %EJECT;
PL6.E3A0      #001=TOT$ASCII_BCD File=TOT$ASCII_BCD.:E05TSI                      WED 07/30/97 06:35 Page:6
       30       30        TOT$ASCII_BCD: PROC (ASCII, BCD, CHAR_COUNT) ;

     30  1 000000   000000 700200 xent  TOT$ASCII_B* TSX0  ! X66_AUTO_3
         1 000001   000012 000003                    ZERO    10,3

       31       31
       32       32    1      DCL ASCII            (0:83) CHAR (1) CALIGNED ;
       33       33    1      DCL 1 BCD CALIGNED,
       34       34    1            2 E            (0:83) UBIN (6) UNAL ;
       35       35    1      DCL CHAR_COUNT       SBIN WORD ALIGNED ;
       36       36    1      DCL I                UBIN HALF HALIGNED ;
       37       37    1      DCL 1 TABLE CONSTANT ALIGNED,
       38       38    1            2 BCD          (0:511) UBIN (6) UNAL INIT
       39       39    1               (31*32,16,63,62,11,43,60,20,47,29,45,44,48,59,42,27,
       40       40    1                49,0,1,2,3,4,5,6,7,8,9,13,46,30,61,14,15,12,17,18,19,
       41       41    1                20,21,22,23,24,25,33,34,35,36,37,38,39,40,41,50,51,52,53,
       42       42    1                54,55,56,57,10,31,28,32,58,31,17,18,19,20,21,22,23,24,
       43       43    1                25,33,34,35,36,37,38,39,40,41,50,51,52,53,54,55,56,57,
       44       44    1                31*0) ;
       45       45
       46       46        /* Code */
       47       47
       48       48    2      DO I = 0 TO CHAR_COUNT - 1 ;

     48  1 000002   000000 220003                    LDX0    0,DU
         1 000003   200006 740100                    STX0    I,,AUTO
         1 000004   000031 710000 1                  TRA     s:50+3

       49       49    2         BCD.E(I) = TABLE.BCD(ASCBIN (ASCII(I))) ;

     49  1 000005   200003 470500                    LDP0    @ASCII,,AUTO
         1 000006   200006 235100                    LDA     I,,AUTO
         1 000007   000022 771000                    ARL     18
         1 000010   000100 101505                    MRL     fill='000'O
         1 000011   000000 000001                    ADSC9   0,A,PR0                  cn=0,n=1
         1 000012   200010 000004                    ADSC9   I+2,,AUTO                cn=0,n=4
         1 000013   200010 236100                    LDQ     I+2,,AUTO
PL6.E3A0      #001=TOT$ASCII_BCD File=TOT$ASCII_BCD.:E05TSI                      WED 07/30/97 06:35 Page:7
         1 000014   000006 402007                    MPY     6,DL
         1 000015   200011 756100                    STQ     I+3,,AUTO
         1 000016   200006 236100                    LDQ     I,,AUTO
         1 000017   000022 772000                    QRL     18
         1 000020   000006 402007                    MPY     6,DL
         1 000021   200011 235100                    LDA     I+3,,AUTO
         1 000022   200004 471500                    LDP1    @BCD,,AUTO
         1 000023   003106 060405                    CSL     bolr='003'O
         1 000024   000000 000006 0                  BDSC    TABLE,A                  by=0,bit=0,n=6
         1 000025   100000 000006                    BDSC    0,Q,PR1                  by=0,bit=0,n=6

       50       50    2      END /* DO */ ;

     50  1 000026   200006 220100                    LDX0    I,,AUTO
         1 000027   000001 621010                    EAX1    1,X0
         1 000030   200006 741100                    STX1    I,,AUTO
         1 000031   200005 470500                    LDP0    @CHAR_COUNT,,AUTO
         1 000032   200006 236100                    LDQ     I,,AUTO
         1 000033   000022 772000                    QRL     18
         1 000034   000000 116100                    CMPQ    0,,PR0
         1 000035   000005 604000 1                  TMI     s:49

       51       51    1      RETURN ;

     51  1 000036   000000 702200 xent               TSX2  ! X66_ARET

TABLE
 Sect OctLoc
   0     000   373737 373737   373737 373737   373737 373737   373737 373737    ................
   0     004   373737 373737   373720 777613   537424 573555   546073 523361    .............;..
   0     010   000102 030405   060710 111556   367516 171421   222324 252627    .B..0.I...y.....
   0     014   303141 424344   454647 505162   636465 666770   711237 344072    .a.....r.......:
   0     020   372122 232425   262730 314142   434445 464750   516263 646566    .R.....b........
   0     024   677071 373737   373737 373737   373737 373737   373737 373737    .9..............
   0     030   373737 373737   373737 373737   373737 373737   373737 373737    ................
   0     124*  373737 373737   3737** ******                                    ........
       52       52
PL6.E3A0      #001=TOT$ASCII_BCD File=TOT$ASCII_BCD.:E05TSI                      WED 07/30/97 06:35 Page:8
       53       53    1   END TOT$ASCII_BCD;

PL6.E3A0      #001=TOT$ASCII_BCD File=TOT$ASCII_BCD.:E05TSI                      WED 07/30/97 06:35 Page:9
      No diagnostics issued in procedure TOT$ASCII_BCD.
PL6.E3A0      #001=TOT$ASCII_BCD File=TOT$ASCII_BCD.:E05TSI                      WED 07/30/97 06:35 Page:10

 **** Procedure blocks ****

LB#    Line#s    #stmts #vars Sect# OctLoc  P A C   NP Lvl/name
  0    30-    53      5    10     1      0  y   y    3   1 TOT$ASCII_BCD
PL6.E3A0      #001=TOT$ASCII_BCD File=TOT$ASCII_BCD.:E05TSI                      WED 07/30/97 06:35 Page:11

    **** Executable statements  ****

  Exec cost Stmt Sec OctLoc Type   LB Label              Exec cost Stmt Sec OctLoc Type   LB Label

              30   1      0 Proc    0                                48   1      2 DoIndx  0
$$$$$$$$$$    49   1      5 Assign  0                          $$    50   1     26 EndInd  0
              51   1     36 Return  0

  **** Statement type totals  ****

     1 Assign     1 Return     1 DoIndx     1 EndInd     1 Proc

 # major stmts=    3 Code/major=10.33 # stmts=    5 Code/stmt= 6.20  Point total= 84.4
 Cost/major stmt= 12.7 Cost/stmt=  7.6 Total cost=     38.1

   0-4  $$$$$$$$$$$$$$$$$$$$$$$$$$$$$$$$$$$$$$$$
   4-6
   6-8  $$$$$$$$$$$$$$$$$$$$
  8-10
 10-12
 12-14
 14-16
 16-18
 18-20
 20-22
 22-??  $$$$$$$$$$$$$$$$$$$$
PL6.E3A0      #001=TOT$ASCII_BCD File=TOT$ASCII_BCD.:E05TSI                      WED 07/30/97 06:35 Page:12

 **** Variables and constants ****

  ****  Section 000 RoData TOT$ASCII_BCD

  ****  Structures  ****
OctLoc.c.b A Datatyp(siz) R M Lvl/name

     0-0-0/w STRC(3072)  r     1 TABLE
     0-0-0/b UBIN(6)     r         2 BCD(0:511)


  ****  Auto variables  ****

  ****  Scalars and arrays  ****
OctLoc.c.b A Datatyp(siz) R M Lvl/name                 OctLoc.c.b A Datatyp(siz) R M Lvl/name

     3-0-0/w PTR         r     1 @ASCII                     4-0-0/w PTR         r     1 @BCD
     5-0-0/w PTR         r     1 @CHAR_COUNT               *0-0-0/c CHAR        r     1 ASCII(0:83)
    *0-0-0/w SBIN        r     1 CHAR_COUNT                 6-0-0/h UBIN(18)    r     1 I

  ****  Structures  ****
OctLoc.c.b A Datatyp(siz) R M Lvl/name

    *0-0-0/c STRC(504)   r     1 BCD
     0-0-0/b UBIN(6)     r         2 E(0:83)


   Procedure TOT$ASCII_BCD requires 31 words for executable code.
   Procedure TOT$ASCII_BCD requires 10 words of local(AUTO) storage.

    No errors detected in file TOT$ASCII_BCD.:E05TSI    .
PL6.E3A0      #001=TOT$ASCII_BCD File=TOT$ASCII_BCD.:E05TSI                      WED 07/30/97 06:35 Page:13
          *** CROSS REFERENCE LISTING ***
**     DENOTES     IDENTIFIER DEFINITION
<<                 IDENTIFIER'S VALUE SET
>>                 IDENTIFIER'S VALUE USED
<>                 IDENTIFIER SET AND/OR USED
--                 IDENTIFIER REFERENCED
PL6.E3A0      #001=TOT$ASCII_BCD File=TOT$ASCII_BCD.:E05TSI                      WED 07/30/97 06:35 Page:14
          MINI XREF LISTING

ASCII
        32**DCL        30--PROC       49>>ASSIGN
BCD
        33**DCL        30--PROC
BCD.E
        34**DCL        49<<ASSIGN
CHAR_COUNT
        35**DCL        30--PROC       48>>DOINDEX
I
        36**DCL        48<<DOINDEX    49>>ASSIGN     49>>ASSIGN
TABLE.BCD
        38**DCL        49>>ASSIGN
PL6.E3A0      #001=TOT$ASCII_BCD File=TOT$ASCII_BCD.:E05TSI                      WED 07/30/97 06:35 Page:15
              *** CROSS REFERENCE LISTING ***
    **     DENOTES     IDENTIFIER DEFINITION
    <<                 IDENTIFIER'S VALUE SET
    >>                 IDENTIFIER'S VALUE USED
    <>                 IDENTIFIER SET AND/OR USED
    --                 IDENTIFIER REFERENCED
PL6.E3A0      #001=TOT$ASCII_BCD File=TOT$ASCII_BCD.:E05TSI                      WED 07/30/97 06:35 Page:16
              FULL UREF LISTING

TABLE
        37**DCL
TOT$ASCII_BCD
        30**PROC
