VERSION E05

PL6.E3A0      #001=TOT$BCD_ASCII File=TOT$BCD_ASCII.:E05TSI                      WED 07/30/97 06:35 Page:1
        1        1        /*M* TOT$BCD_ASCII     TOLTS BCD to ASCII Conversion program */
        2        2        /*T***********************************************************/
        3        3        /*T*                                                         */
        4        4        /*T* Copyright (c) Bull HN Information Systems Inc., 1997    */
        5        5        /*T*                                                         */
        6        6        /*T***********************************************************/
        7        7
        8        8        /*X* PLM=3,DCI=6,SQB=N,PRB=N,DTI=5,ENI=0,AND=Y,ECI=0,CSU=3,DIN=3,
        9        9             CTI=8,CRM=109,CRT=1,NLB=N,NTB=Y,MCL=110 */
       10       10
       11       11        /*F* NAME:         TOT$BCD_ASCII
       12       12             PURPOSE:      Converts a BCD string to an ASCII string.
       13       13             DESCRIPTION:  Takes a GCOS type BCD string (with escape and slew
       14       14                           characters) and converts it to ASCII.
       15       15             REFERENCE:    CP-6 Release C0I0
       16       16                           Carl Eichert / Scott Sheppard
       17       17        */
       18       18        %EJECT ;
PL6.E3A0      #001=TOT$BCD_ASCII File=TOT$BCD_ASCII.:E05TSI                      WED 07/30/97 06:35 Page:2
       19       19        /*D* NAME:         TOT$BCD_ASCII
       20       20             CALL:         CALL TOT$BCD_ASCII(BCD,ASCII,CC);
       21       21             INPUT:        BCD is the BCD string, maximum of 320 words long.
       22       22                           CC is the number of BCD characters to convert.
       23       23             OUTPUT:       ASCII is the converted string.
       24       24                           CC is the number of ASCII characters in the output.
       25       25             DESCRIPTION:  This does the BCD to ASCII conversion in addition
       26       26                           to editting special control sequences which were
       27       27                           originally meant for GCOS.
       28       28
       29       29                           The BCD to ASCII translation is done through a
       30       30                           simple table lookup.  However, before this table
       31       31                           table lookup is done, the following editting
       32       32                           is done to eliminate the special control sequences
       33       33                           meant for GCOS type consoles:
       34       34
       35       35                           1.  "!n" sequence is translated into "n" slews,
       36       36                               i.e., "n" CR-LF's.
       37       37                           2.  "!!x" sequence is translated into "x", i.e.,
       38       38                               translate character "x".
       39       39                           3.  "?" is an ignore character, and results in no
       40       40                               change to the ASCII character string.
       41       41
       42       42                           On exit, CC represents the actual number of
       43       43                           characters which were translated, and can be used
       44       44                           in outputting the ASCII message.  Because of the
       45       45                           number of ignore characters in GCOS BCB strings
       46       46                           it is very possible for CC on output to be smaller
       47       47                           than CC on input.
       48       48             LAST UPDATE:  06/02/83
       49       49        */
       50       50        %EJECT;
PL6.E3A0      #001=TOT$BCD_ASCII File=TOT$BCD_ASCII.:E05TSI                      WED 07/30/97 06:35 Page:3
       51       51        TOT$BCD_ASCII: PROC(BCD,ASCII,CC);
       52       52
       53       53    1      DCL ACTUAL_COUNT SBIN;
       54       54    1      DCL ASCII(0:7199) CHAR (1) CALIGNED;
       55       55    1      DCL 1 BCD CALIGNED,
       56       56    1            2 E (0:7199) UBIN (6) UNAL;
       57       57    1      DCL CC SBIN;
       58       58    1      DCL I SBIN HALF;
       59       59    1      DCL K SBIN HALF ;
       60       60    1      DCL L SBIN;
       61       61    1      DCL M UBIN(6) UNAL;
       62       62    1      DCL LC UBIN WORD ALIGNED;
       63       63
       64       64    1      DCL 1 TABLE STATIC DALIGNED,
       65       65    1            2 ASCII(0:89) CHAR(1) INIT ('0','1','2','3','4','5','6','7','8','9',
       66       66    1           '[','#','@',':','>','?',' ','A','B','C',
       67       67    1           'D','E','F','G','H','I',BITASC('046'O),'.',']','(',
       68       68    1           '<','\','^','J','K','L','M','N','O','P',
       69       69    1           'Q','R','-','$','*',')',';',BITASC('047'O),'+','/',
       70       70    1           'S','T','U','V','W','X','Y','Z',BITASC('137'O),BITASC('054'O),'%',
       71       71    1           '=','"',BITASC('041'O),'a','b','c','d','e','f','g','h','i',
       72       72    1           'j','k','l','m','n','o','p','q','r','s','t','u','v','w','x',
       73       73    1           'y','z') UNAL,
       74       74    1            2 BCD(0:89) UBIN(6) INIT (0,1,2,3,4,5,6,7,8,9,10,11,12,13,14,15,16,
       75       75    1           17,18,19,20,21,22,23,24,25,26,27,28,29,30,31,32,33,34,35,36,37,
       76       76    1           38,39,40,41,42,43,44,45,46,47,48,49,50,51,52,53,54,
       77       77    1           55,56,57,58,59,60,61,62,63,17,18,19,20,21,22,23,24,25,33,34,35,36,
       78       78    1           37,38,39,40,41,50,51,52,53,54,55,56,57) UNAL;
       79       79        %EJECT;
PL6.E3A0      #001=TOT$BCD_ASCII File=TOT$BCD_ASCII.:E05TSI                      WED 07/30/97 06:35 Page:4
       80       80        /* Code */
       81       81
       82       82    1      L = 0;
       83       83    1      LC = 1;
       84       84    2      DO K = 0 TO CC-1;
       85       85    2         I = BCD.E(K);
       86       86    2         IF (I = 63 & K<7200)
       87       87    3         THEN DO;
       88       88    3                 IF BCD.E(K+1) < 3
       89       89    4                 THEN DO;
       90       90    4                         IF LC > 0
       91       91    5                         THEN DO ;
       92       92    5                                 ASCII(L) = BITASC('015'O);
       93       93    5                                 ASCII(L+1) = BITASC('012'O);
       94       94    5                                 L = L+2;
       95       95    5                                 LC = 0;
       96       96    5                              END;
       97       97    4                         K = K+1;
       98       98    4                      END;
       99       99    3                 ELSE IF BCD.E(K+1) = 63
      100      100    4                    THEN DO;
      101      101    4                            M = BCD.E(K+2);
      102      102    4                            ASCII(L) = TABLE.ASCII(M);
      103      103    4                            L = L+1;
      104      104    4                            LC = LC+1;
      105      105    4                            K = K+2;
      106      106    4                         END;
      107      107    3                    ELSE /* if not SLEW or !! ignore the character. */ ;
      108      108    3              END;
      109      109    2         ELSE IF I ~= 15
      110      110    3            THEN DO ;
      111      111    3                    ASCII(L) = TABLE.ASCII(I);
      112      112    3                    L = L+1;
      113      113    3                    LC = LC+1;
      114      114    3                 END;
      115      115    2            ELSE /* Do Nothing */ ;
      116      116    2      END;
PL6.E3A0      #001=TOT$BCD_ASCII File=TOT$BCD_ASCII.:E05TSI                      WED 07/30/97 06:35 Page:5
      117      117    1      ACTUAL_COUNT = L;
      118      118    2      DO WHILE (L < CC-1);
      119      119    2         ASCII(L) = ' ';
      120      120    2         L = L+1;
      121      121    2      END;
      122      122    1      CC = ACTUAL_COUNT;
      123      123    1      RETURN;
      124      124
      125      125    1   END TOT$BCD_ASCII;

PL6.E3A0      #001=TOT$BCD_ASCII File=TOT$BCD_ASCII.:E05TSI                      WED 07/30/97 06:35 Page:6
      No diagnostics issued in procedure TOT$BCD_ASCII.

   Procedure TOT$BCD_ASCII requires 134 words for executable code.
   Procedure TOT$BCD_ASCII requires 14 words of local(AUTO) storage.

    No errors detected in file TOT$BCD_ASCII.:E05TSI    .

PL6.E3A0      #001=TOT$BCD_ASCII File=TOT$BCD_ASCII.:E05TSI                      WED 07/30/97 06:35 Page:7

 Object Unit name= TOT$BCD_ASCII                              File name= TOT$BCD_ASCII.:E05TOU
 UTS= JUL 30 '97 06:35:56.56 WED                              Compiler= PL-6/E31         Sev=      00
 SharedLib= :SHARED_SYSTEM                                    Alt SharedLib=


    ****  Control sections  ****

 Sect   Type Bound  Init  Size OctSiz  Section name(segment info)
    0   Data  even  none    38     46  TOT$BCD_ASCII
    1   Proc  even  none   134    206  TOT$BCD_ASCII
    2  RoData even  none     2      2  TOT$BCD_ASCII

    ****  Entry defs  ****

                              Check   Calling
                             calling  sequence
  Sect OctLoc Primary Altret sequence   type   Parms  Name
     1      0   yes            yes      Std        3  TOT$BCD_ASCII

  ****  Entry refs  ****

         Check        Calling
        calling       sequence
Altret sequence SRef   type   Args  Name
                       nStd      0 X66_AUTO_3
                       Std       0 B_CONSPOOL_D
                       nStd      0 X66_ARET

  ****  Data refs  ****

  Flags:  r = read only, s = secondary
Flgs Name                             Flgs Name                             Flgs Name
     B_VECTNIL
PL6.E3A0      #001=TOT$BCD_ASCII File=TOT$BCD_ASCII.:E05TSI                      WED 07/30/97 06:35 Page:8


        1        1        /*M* TOT$BCD_ASCII     TOLTS BCD to ASCII Conversion program */
        2        2        /*T***********************************************************/
        3        3        /*T*                                                         */
        4        4        /*T* Copyright (c) Bull HN Information Systems Inc., 1997    */
        5        5        /*T*                                                         */
        6        6        /*T***********************************************************/
        7        7
        8        8        /*X* PLM=3,DCI=6,SQB=N,PRB=N,DTI=5,ENI=0,AND=Y,ECI=0,CSU=3,DIN=3,
        9        9             CTI=8,CRM=109,CRT=1,NLB=N,NTB=Y,MCL=110 */
       10       10
       11       11        /*F* NAME:         TOT$BCD_ASCII
       12       12             PURPOSE:      Converts a BCD string to an ASCII string.
       13       13             DESCRIPTION:  Takes a GCOS type BCD string (with escape and slew
       14       14                           characters) and converts it to ASCII.
       15       15             REFERENCE:    CP-6 Release C0I0
       16       16                           Carl Eichert / Scott Sheppard
       17       17        */
       18       18        %EJECT ;
PL6.E3A0      #001=TOT$BCD_ASCII File=TOT$BCD_ASCII.:E05TSI                      WED 07/30/97 06:35 Page:9
       19       19        /*D* NAME:         TOT$BCD_ASCII
       20       20             CALL:         CALL TOT$BCD_ASCII(BCD,ASCII,CC);
       21       21             INPUT:        BCD is the BCD string, maximum of 320 words long.
       22       22                           CC is the number of BCD characters to convert.
       23       23             OUTPUT:       ASCII is the converted string.
       24       24                           CC is the number of ASCII characters in the output.
       25       25             DESCRIPTION:  This does the BCD to ASCII conversion in addition
       26       26                           to editting special control sequences which were
       27       27                           originally meant for GCOS.
       28       28
       29       29                           The BCD to ASCII translation is done through a
       30       30                           simple table lookup.  However, before this table
       31       31                           table lookup is done, the following editting
       32       32                           is done to eliminate the special control sequences
       33       33                           meant for GCOS type consoles:
       34       34
       35       35                           1.  "!n" sequence is translated into "n" slews,
       36       36                               i.e., "n" CR-LF's.
       37       37                           2.  "!!x" sequence is translated into "x", i.e.,
       38       38                               translate character "x".
       39       39                           3.  "?" is an ignore character, and results in no
       40       40                               change to the ASCII character string.
       41       41
       42       42                           On exit, CC represents the actual number of
       43       43                           characters which were translated, and can be used
       44       44                           in outputting the ASCII message.  Because of the
       45       45                           number of ignore characters in GCOS BCB strings
       46       46                           it is very possible for CC on output to be smaller
       47       47                           than CC on input.
       48       48             LAST UPDATE:  06/02/83
       49       49        */
       50       50        %EJECT;
PL6.E3A0      #001=TOT$BCD_ASCII File=TOT$BCD_ASCII.:E05TSI                      WED 07/30/97 06:35 Page:10
       51       51        TOT$BCD_ASCII: PROC(BCD,ASCII,CC);

     51  1 000000   000000 700200 xent  TOT$BCD_ASC* TSX0  ! X66_AUTO_3
         1 000001   000016 000003                    ZERO    14,3

       52       52
       53       53    1      DCL ACTUAL_COUNT SBIN;
       54       54    1      DCL ASCII(0:7199) CHAR (1) CALIGNED;
       55       55    1      DCL 1 BCD CALIGNED,
       56       56    1            2 E (0:7199) UBIN (6) UNAL;
       57       57    1      DCL CC SBIN;
       58       58    1      DCL I SBIN HALF;
       59       59    1      DCL K SBIN HALF ;
       60       60    1      DCL L SBIN;
       61       61    1      DCL M UBIN(6) UNAL;
       62       62    1      DCL LC UBIN WORD ALIGNED;
       63       63
       64       64    1      DCL 1 TABLE STATIC DALIGNED,
       65       65    1            2 ASCII(0:89) CHAR(1) INIT ('0','1','2','3','4','5','6','7','8','9',
       66       66    1           '[','#','@',':','>','?',' ','A','B','C',
       67       67    1           'D','E','F','G','H','I',BITASC('046'O),'.',']','(',
       68       68    1           '<','\','^','J','K','L','M','N','O','P',
       69       69    1           'Q','R','-','$','*',')',';',BITASC('047'O),'+','/',
       70       70    1           'S','T','U','V','W','X','Y','Z',BITASC('137'O),BITASC('054'O),'%',
       71       71    1           '=','"',BITASC('041'O),'a','b','c','d','e','f','g','h','i',
       72       72    1           'j','k','l','m','n','o','p','q','r','s','t','u','v','w','x',
       73       73    1           'y','z') UNAL,
       74       74    1            2 BCD(0:89) UBIN(6) INIT (0,1,2,3,4,5,6,7,8,9,10,11,12,13,14,15,16,
       75       75    1           17,18,19,20,21,22,23,24,25,26,27,28,29,30,31,32,33,34,35,36,37,
       76       76    1           38,39,40,41,42,43,44,45,46,47,48,49,50,51,52,53,54,
       77       77    1           55,56,57,58,59,60,61,62,63,17,18,19,20,21,22,23,24,25,33,34,35,36,
       78       78    1           37,38,39,40,41,50,51,52,53,54,55,56,57) UNAL;
       79       79        %EJECT;
PL6.E3A0      #001=TOT$BCD_ASCII File=TOT$BCD_ASCII.:E05TSI                      WED 07/30/97 06:35 Page:11
       80       80        /* Code */
       81       81
       82       82    1      L = 0;

     82  1 000002   200011 450100                    STZ     L,,AUTO

       83       83    1      LC = 1;

     83  1 000003   000001 235007                    LDA     1,DL
         1 000004   200013 755100                    STA     LC,,AUTO

       84       84    2      DO K = 0 TO CC-1;

     84  1 000005   000000 220003                    LDX0    0,DU
         1 000006   200010 740100                    STX0    K,,AUTO
         1 000007   000160 710000 1                  TRA     s:116+3

       85       85    2         I = BCD.E(K);

     85  1 000010   200010 236100                    LDQ     K,,AUTO
         1 000011   000022 732000                    QRS     18
         1 000012   000006 402007                    MPY     6,DL
         1 000013   000000 116003                    CMPQ    0,DU
         1 000014   000016 605000 1                  TPL     s:85+6
         1 000015   000044 036003                    ADLQ    36,DU
         1 000016   200003 470500                    LDP0    @BCD,,AUTO
         1 000017   003100 061506                    CSR     bolr='003'O
         1 000020   000000 000006                    BDSC    0,Q,PR0                  by=0,bit=0,n=6
         1 000021   200007 000022                    BDSC    I,,AUTO                  by=0,bit=0,n=18

       86       86    2         IF (I = 63 & K<7200)

     86  1 000022   400000 220003                    LDX0    -131072,DU
         1 000023   200007 221100                    LDX1    I,,AUTO
         1 000024   000077 101003                    CMPX1   63,DU
         1 000025   000027 600000 1                  TZE     s:86+5
         1 000026   000000 220003                    LDX0    0,DU
PL6.E3A0      #001=TOT$BCD_ASCII File=TOT$BCD_ASCII.:E05TSI                      WED 07/30/97 06:35 Page:12
         1 000027   400000 222003                    LDX2    -131072,DU
         1 000030   200010 223100                    LDX3    K,,AUTO
         1 000031   016040 103003                    CMPX3   7200,DU
         1 000032   000034 604000 1                  TMI     s:86+10
         1 000033   000000 222003                    LDX2    0,DU
         1 000034   000000 636012                    EAQ     0,X2
         1 000035   200014 756100                    STQ     LC+1,,AUTO
         1 000036   000000 636010                    EAQ     0,X0
         1 000037   200014 376100                    ANQ     LC+1,,AUTO
         1 000040   000140 600000 1                  TZE     s:109

       87       87    3         THEN DO;

       88       88    3                 IF BCD.E(K+1) < 3

     88  1 000041   200010 236100                    LDQ     K,,AUTO
         1 000042   000022 732000                    QRS     18
         1 000043   000006 402007                    MPY     6,DL
         1 000044   000000 116003                    CMPQ    0,DU
         1 000045   000047 605000 1                  TPL     s:88+6
         1 000046   000044 036003                    ADLQ    36,DU
         1 000047   003100 061506                    CSR     bolr='003'O
         1 000050   000000 060006                    BDSC    0,Q,PR0                  by=0,bit=6,n=6
         1 000051   200014 000044                    BDSC    LC+1,,AUTO               by=0,bit=0,n=36
         1 000052   200014 236100                    LDQ     LC+1,,AUTO
         1 000053   000003 116007                    CMPQ    3,DL
         1 000054   000075 605000 1                  TPL     s:99

       89       89    4                 THEN DO;

       90       90    4                         IF LC > 0

     90  1 000055   200013 235100                    LDA     LC,,AUTO
         1 000056   000072 600000 1                  TZE     s:97

       91       91    5                         THEN DO ;

PL6.E3A0      #001=TOT$BCD_ASCII File=TOT$BCD_ASCII.:E05TSI                      WED 07/30/97 06:35 Page:13
       92       92    5                                 ASCII(L) = BITASC('015'O);

     92  1 000057   200004 471500                    LDP1    @ASCII,,AUTO
         1 000060   200011 236100                    LDQ     L,,AUTO
         1 000061   040106 100400                    MLR     fill='040'O
         1 000062   000000 000001 2                  ADSC9   0                        cn=0,n=1
         1 000063   100000 000001                    ADSC9   0,Q,PR1                  cn=0,n=1

       93       93    5                                 ASCII(L+1) = BITASC('012'O);

     93  1 000064   040106 100400                    MLR     fill='040'O
         1 000065   000001 000001 2                  ADSC9   1                        cn=0,n=1
         1 000066   100000 200001                    ADSC9   0,Q,PR1                  cn=1,n=1

       94       94    5                                 L = L+2;

     94  1 000067   000002 236007                    LDQ     2,DL
         1 000070   200011 056100                    ASQ     L,,AUTO

       95       95    5                                 LC = 0;

     95  1 000071   200013 450100                    STZ     LC,,AUTO

       96       96    5                              END;

       97       97    4                         K = K+1;

     97  1 000072   000001 620013                    EAX0    1,X3
         1 000073   200010 740100                    STX0    K,,AUTO

       98       98    4                      END;

     98  1 000074   000155 710000 1                  TRA     s:116

       99       99    3                 ELSE IF BCD.E(K+1) = 63

     99  1 000075   200010 236100                    LDQ     K,,AUTO
PL6.E3A0      #001=TOT$BCD_ASCII File=TOT$BCD_ASCII.:E05TSI                      WED 07/30/97 06:35 Page:14
         1 000076   000022 732000                    QRS     18
         1 000077   000006 402007                    MPY     6,DL
         1 000100   000000 116003                    CMPQ    0,DU
         1 000101   000103 605000 1                  TPL     s:99+6
         1 000102   000044 036003                    ADLQ    36,DU
         1 000103   003100 061506                    CSR     bolr='003'O
         1 000104   000000 060006                    BDSC    0,Q,PR0                  by=0,bit=6,n=6
         1 000105   200014 000044                    BDSC    LC+1,,AUTO               by=0,bit=0,n=36
         1 000106   200014 236100                    LDQ     LC+1,,AUTO
         1 000107   000077 116007                    CMPQ    63,DL
         1 000110   000155 601000 1                  TNZ     s:116

      100      100    4                    THEN DO;

      101      101    4                            M = BCD.E(K+2);

    101  1 000111   200010 236100                    LDQ     K,,AUTO
         1 000112   000022 732000                    QRS     18
         1 000113   000006 402007                    MPY     6,DL
         1 000114   000000 116003                    CMPQ    0,DU
         1 000115   000117 605000 1                  TPL     s:101+6
         1 000116   000044 036003                    ADLQ    36,DU
         1 000117   003100 060506                    CSL     bolr='003'O
         1 000120   000000 230006                    BDSC    0,Q,PR0                  by=1,bit=3,n=6
         1 000121   200012 000006                    BDSC    M,,AUTO                  by=0,bit=0,n=6

      102      102    4                            ASCII(L) = TABLE.ASCII(M);

    102  1 000122   200012 236100                    LDQ     M,,AUTO
         1 000123   000036 772000                    QRL     30
         1 000124   200004 471500                    LDP1    @ASCII,,AUTO
         1 000125   200011 235100                    LDA     L,,AUTO
         1 000126   040105 100406                    MLR     fill='040'O
         1 000127   000000 000001 0                  ADSC9   TABLE,Q                  cn=0,n=1
         1 000130   100000 000001                    ADSC9   0,A,PR1                  cn=0,n=1

      103      103    4                            L = L+1;
PL6.E3A0      #001=TOT$BCD_ASCII File=TOT$BCD_ASCII.:E05TSI                      WED 07/30/97 06:35 Page:15

    103  1 000131   200011 054100                    AOS     L,,AUTO

      104      104    4                            LC = LC+1;

    104  1 000132   200013 235100                    LDA     LC,,AUTO
         1 000133   000001 035007                    ADLA    1,DL
         1 000134   200013 755100                    STA     LC,,AUTO

      105      105    4                            K = K+2;

    105  1 000135   000002 620013                    EAX0    2,X3
         1 000136   200010 740100                    STX0    K,,AUTO

      106      106    4                         END;

      107      107    3                    ELSE /* if not SLEW or !! ignore the character. */ ;
      108      108    3              END;

    108  1 000137   000155 710000 1                  TRA     s:116

      109      109    2         ELSE IF I ~= 15

    109  1 000140   000017 101003                    CMPX1   15,DU
         1 000141   000155 600000 1                  TZE     s:116

      110      110    3            THEN DO ;

      111      111    3                    ASCII(L) = TABLE.ASCII(I);

    111  1 000142   200007 235100                    LDA     I,,AUTO
         1 000143   000022 731000                    ARS     18
         1 000144   200004 471500                    LDP1    @ASCII,,AUTO
         1 000145   200011 236100                    LDQ     L,,AUTO
         1 000146   040106 100405                    MLR     fill='040'O
         1 000147   000000 000001 0                  ADSC9   TABLE,A                  cn=0,n=1
         1 000150   100000 000001                    ADSC9   0,Q,PR1                  cn=0,n=1
PL6.E3A0      #001=TOT$BCD_ASCII File=TOT$BCD_ASCII.:E05TSI                      WED 07/30/97 06:35 Page:16

      112      112    3                    L = L+1;

    112  1 000151   200011 054100                    AOS     L,,AUTO

      113      113    3                    LC = LC+1;

    113  1 000152   200013 236100                    LDQ     LC,,AUTO
         1 000153   000001 036007                    ADLQ    1,DL
         1 000154   200013 756100                    STQ     LC,,AUTO

      114      114    3                 END;

      115      115    2            ELSE /* Do Nothing */ ;
      116      116    2      END;

    116  1 000155   200010 220100                    LDX0    K,,AUTO
         1 000156   000001 622010                    EAX2    1,X0
         1 000157   200010 742100                    STX2    K,,AUTO
         1 000160   200005 470500                    LDP0    @CC,,AUTO
         1 000161   200010 236100                    LDQ     K,,AUTO
         1 000162   000022 732000                    QRS     18
         1 000163   000000 116100                    CMPQ    0,,PR0
         1 000164   000010 604000 1                  TMI     s:85

      117      117    1      ACTUAL_COUNT = L;

    117  1 000165   200011 235100                    LDA     L,,AUTO
         1 000166   200006 755100                    STA     ACTUAL_COUNT,,AUTO

      118      118    2      DO WHILE (L < CC-1);

    118  1 000167   000176 710000 1                  TRA     s:121

      119      119    2         ASCII(L) = ' ';

    119  1 000170   200004 470500                    LDP0    @ASCII,,AUTO
PL6.E3A0      #001=TOT$BCD_ASCII File=TOT$BCD_ASCII.:E05TSI                      WED 07/30/97 06:35 Page:17
         1 000171   200011 235100                    LDA     L,,AUTO
         1 000172   040105 100400                    MLR     fill='040'O
         1 000173   000035 000001 xsym               ADSC9   B_VECTNIL+29             cn=0,n=1
         1 000174   000000 000001                    ADSC9   0,A,PR0                  cn=0,n=1

      120      120    2         L = L+1;

    120  1 000175   200011 054100                    AOS     L,,AUTO

      121      121    2      END;

    121  1 000176   200005 470500                    LDP0    @CC,,AUTO
         1 000177   000000 236100                    LDQ     0,,PR0
         1 000200   000001 136007                    SBLQ    1,DL
         1 000201   200011 116100                    CMPQ    L,,AUTO
         1 000202   000170 605400 1                  TPNZ    s:119

      122      122    1      CC = ACTUAL_COUNT;

    122  1 000203   200006 235100                    LDA     ACTUAL_COUNT,,AUTO
         1 000204   000000 755100                    STA     0,,PR0

      123      123    1      RETURN;

    123  1 000205   000000 702200 xent               TSX2  ! X66_ARET

TABLE
 Sect OctLoc
   0     000   060061 062063   064065 066067   070071 133043   100072 076077    0123456789[#@:>?
   0     004   040101 102103   104105 106107   110111 046056   135050 074134     ABCDEFGHI&.](<\
   0     010   136112 113114   115116 117120   121122 055044   052051 073047    ^JKLMNOPQR-$*);'
   0     014   053057 123124   125126 127130   131132 137054   045075 042041    +/STUVWXYZ_,%="!
   0     020   141142 143144   145146 147150   151152 153154   155156 157160    abcdefghijklmnop
   0     024   161162 163164   165166 167170   171172 000102   030405 060710    qrstuvwxyz.B..0.
   0     030   111213 141516   172021 222324   252627 303132   333435 363740    I.a.z......Z....
   0     034   414243 444546   475051 525354   555657 606162   636465 666770    .....).....r....
   0     040   717273 747576   772122 232425   262730 314142   434445 464750    .....R.....b....
PL6.E3A0      #001=TOT$BCD_ASCII File=TOT$BCD_ASCII.:E05TSI                      WED 07/30/97 06:35 Page:18
   0     044   516263 646566   677071 ******                                    .....9..

(unnamed)
 Sect OctLoc
   2     000   015040 040040   012040 040040                                    .   .
      124      124
      125      125    1   END TOT$BCD_ASCII;

PL6.E3A0      #001=TOT$BCD_ASCII File=TOT$BCD_ASCII.:E05TSI                      WED 07/30/97 06:35 Page:19
      No diagnostics issued in procedure TOT$BCD_ASCII.
PL6.E3A0      #001=TOT$BCD_ASCII File=TOT$BCD_ASCII.:E05TSI                      WED 07/30/97 06:35 Page:20

 **** Procedure blocks ****

LB#    Line#s    #stmts #vars Sect# OctLoc  P A C   NP Lvl/name
  0    51-   125     41    15     1      0  y   y    3   1 TOT$BCD_ASCII
PL6.E3A0      #001=TOT$BCD_ASCII File=TOT$BCD_ASCII.:E05TSI                      WED 07/30/97 06:35 Page:21

    **** Executable statements  ****

  Exec cost Stmt Sec OctLoc Type   LB Label              Exec cost Stmt Sec OctLoc Type   LB Label

              51   1      0 Proc    0                                82   1      2 Assign  0
              83   1      3 Assign  0                                84   1      5 DoIndx  0
$$$$$$$$$$    85   1     10 Assign  0                         $$$    86   1     22 If      0
              87   1     41 Do      0                  $$$$$$$$$$    88   1     41 If      0
              89   1     55 Do      0                                90   1     55 If      0
              91   1     57 Do      0                           $    92   1     57 Assign  0
              93   1     64 Assign  0                                94   1     67 Assign  0
              95   1     71 Assign  0                                96   1     72 EndDo   0
              97   1     72 Assign  0                                98   1     74 EndDo   0
$$$$$$$$$$    99   1     75 If      0                               100   1    111 Do      0
     $$$$$   101   1    111 Assign  0                          $$   102   1    122 Assign  0
             103   1    131 Assign  0                               104   1    132 Assign  0
             105   1    135 Assign  0                               106   1    137 EndDo   0
             108   1    137 EndDo   0                               109   1    140 If      0
             110   1    142 Do      0                          $$   111   1    142 Assign  0
             112   1    151 Assign  0                               113   1    152 Assign  0
             114   1    155 EndDo   0                          $$   116   1    155 EndInd  0
             117   1    165 Assign  0                               118   1    167 DoWhil  0
         $   119   1    170 Assign  0                               120   1    175 Assign  0
         $   121   1    176 EndWhi  0                               122   1    203 Assign  0
             123   1    205 Return  0

  **** Statement type totals  ****

    20 Assign     5 If         1 Return     1 DoIndx     1 DoWhil     5 Do
     1 EndInd     1 EndWhi     5 EndDo      1 Proc

 # major stmts=   28 Code/major= 4.78 # stmts=   41 Code/stmt= 3.26  Point total= 95.5
 Cost/major stmt=  6.1 Cost/stmt=  4.1 Total cost=    170.8

   0-4  $$$$$$$$$$$$$$$$$$$$$$$$$$$$$$$$$$$$$$$$$$$$$$$$$$$$$$$$$$$$$$$
   4-6  $$$$$$$$$
   6-8  $$$$$$$$$
PL6.E3A0      #001=TOT$BCD_ASCII File=TOT$BCD_ASCII.:E05TSI                      WED 07/30/97 06:35 Page:22
  8-10  $$$
 10-12
 12-14  $$$
 14-16
 16-18
 18-20
 20-22
 22-??  $$$$$$$$$
PL6.E3A0      #001=TOT$BCD_ASCII File=TOT$BCD_ASCII.:E05TSI                      WED 07/30/97 06:35 Page:23

 **** Variables and constants ****

  ****  Section 000  Data  TOT$BCD_ASCII

  ****  Structures  ****
OctLoc.c.b A Datatyp(siz) R M Lvl/name

     0-0-0/d STRC(1350)  r     1 TABLE
     0-0-0/c CHAR        r         2 ASCII(0:89)


  ****  Auto variables  ****

  ****  Scalars and arrays  ****
OctLoc.c.b A Datatyp(siz) R M Lvl/name                 OctLoc.c.b A Datatyp(siz) R M Lvl/name

     4-0-0/w PTR         r     1 @ASCII                     3-0-0/w PTR         r     1 @BCD
     5-0-0/w PTR         r     1 @CC                        6-0-0/w SBIN        r     1 ACTUAL_COUNT
    *0-0-0/c CHAR        r     1 ASCII(0:7199)             *0-0-0/w SBIN        r     1 CC
     7-0-0/w SBIN(18)    r     1 I                         10-0-0/w SBIN(18)    r     1 K
    11-0-0/w SBIN        r     1 L                         13-0-0/w UBIN        r     1 LC
    12-0-0/b UBIN(6)     r     1 M

  ****  Structures  ****
OctLoc.c.b A Datatyp(siz) R M Lvl/name

    *0-0-0/c STRC(43200) r     1 BCD
     0-0-0/b UBIN(6)     r         2 E(0:7199)


   Procedure TOT$BCD_ASCII requires 134 words for executable code.
   Procedure TOT$BCD_ASCII requires 14 words of local(AUTO) storage.

    No errors detected in file TOT$BCD_ASCII.:E05TSI    .
PL6.E3A0      #001=TOT$BCD_ASCII File=TOT$BCD_ASCII.:E05TSI                      WED 07/30/97 06:35 Page:24
          *** CROSS REFERENCE LISTING ***
**     DENOTES     IDENTIFIER DEFINITION
<<                 IDENTIFIER'S VALUE SET
>>                 IDENTIFIER'S VALUE USED
<>                 IDENTIFIER SET AND/OR USED
--                 IDENTIFIER REFERENCED
PL6.E3A0      #001=TOT$BCD_ASCII File=TOT$BCD_ASCII.:E05TSI                      WED 07/30/97 06:35 Page:25
          MINI XREF LISTING

ACTUAL_COUNT
        53**DCL       117<<ASSIGN    122>>ASSIGN
ASCII
        54**DCL        51--PROC       92<<ASSIGN     93<<ASSIGN    102<<ASSIGN    111<<ASSIGN    119<<ASSIGN
BCD
        55**DCL        51--PROC
BCD.E
        56**DCL        85>>ASSIGN     88>>IF         99>>IF        101>>ASSIGN
CC
        57**DCL        51--PROC       84>>DOINDEX   118>>DOWHILE   122<<ASSIGN
I
        58**DCL        85<<ASSIGN     86>>IF        109>>IF        111>>ASSIGN
K
        59**DCL        84<<DOINDEX    85>>ASSIGN     86>>IF         88>>IF         97<<ASSIGN     97>>ASSIGN
        99>>IF        101>>ASSIGN    105<<ASSIGN    105>>ASSIGN
L
        60**DCL        82<<ASSIGN     92>>ASSIGN     93>>ASSIGN     94<<ASSIGN     94>>ASSIGN    102>>ASSIGN
       103<<ASSIGN    103>>ASSIGN    111>>ASSIGN    112<<ASSIGN    112>>ASSIGN    117>>ASSIGN    118>>DOWHILE
       119>>ASSIGN    120<<ASSIGN    120>>ASSIGN
LC
        62**DCL        83<<ASSIGN     90>>IF         95<<ASSIGN    104<<ASSIGN    104>>ASSIGN    113<<ASSIGN
       113>>ASSIGN
M
        61**DCL       101<<ASSIGN    102>>ASSIGN
TABLE.ASCII
        65**DCL       102>>ASSIGN    111>>ASSIGN
PL6.E3A0      #001=TOT$BCD_ASCII File=TOT$BCD_ASCII.:E05TSI                      WED 07/30/97 06:35 Page:26
              *** CROSS REFERENCE LISTING ***
    **     DENOTES     IDENTIFIER DEFINITION
    <<                 IDENTIFIER'S VALUE SET
    >>                 IDENTIFIER'S VALUE USED
    <>                 IDENTIFIER SET AND/OR USED
    --                 IDENTIFIER REFERENCED
PL6.E3A0      #001=TOT$BCD_ASCII File=TOT$BCD_ASCII.:E05TSI                      WED 07/30/97 06:35 Page:27
              FULL UREF LISTING

TABLE
        64**DCL
TABLE.BCD
        74**DCL
TOT$BCD_ASCII
        51**PROC
