PL6.E3A0      #001=TOT$ERRMSGS File=TOT$ERRMSGS.:E05TSI                          WED 07/30/97 06:36 Page:1
        1        1        /*M* TOT$ERRMSGS   Processor Error Messages for TOLTS and DEER */
        2        2        /*T***********************************************************/
        3        3        /*T*                                                         */
        4        4        /*T* Copyright (c) Bull HN Information Systems Inc., 1997    */
        5        5        /*T*                                                         */
        6        6        /*T***********************************************************/
        7        7
        8        8
        9        9        /*X* DDA=Y */
       10       10
       11       11        /*P* NAME:         TOT$ERRMSGS
       12       12             PURPOSE:      Common error message file for TOLTS and DEER
       13       13             DESCRIPTION:  This is the file that gets EXTRACTed to provide
       14       14                           an error message file for TOLTS and DEER.
       15       15             REFERENCE:    CP-6 Release D0E0
       16       16             LAST UPDATE:  04/09/86
       17       17        */
       18       18        %EJECT ;
PL6.E3A0      #001=TOT$ERRMSGS File=TOT$ERRMSGS.:E05TSI                          WED 07/30/97 06:36 Page:2
       19       19        TOT$ERRMSGS: PROC NOAUTO;
       20       20
       21       21        /* TOLTS Error message code EQUates */
       22       22
       23       23        /* TOC$COLTS                      001 - 035 */
       24       24
       25       25        /* TOD$DISPATCHER                 036 - 055 */
       26       26
       27       27        /* TOE$EVENT_HANDLER              056 - 075 */
       28       28
       29       29        /* TOF$FAULTS                     076 - 105 */
       30       30
       31       31        /* TOG$GCOS_MMES                  106 - 135 */
       32       32
       33       33        /* TOL$LOADER                     136 - 145 */
       34       34
       35       35        /* TOM$MOLTS                      146 - 175 */
       36       36
       37       37        /* TOO$TOLTS_MMES                 176 - 205 */
       38       38
       39       39        /* TOP$POLTS                      206 - 225 */
       40       40
       41       41        /* TOQ$DEBUG                      226 - 235 */
       42       42
       43       43        /* TOS$SOLTS                      236 - 255 */
       44       44
       45       45        /* TOT$MAIN and TOT$ROOT          256 - 285 */
       46       46
       47       47        /* TOX$ERR                        286 - 299 */
       48       48
       49       49        /* End of TOLTS EQUates */
       50       50        %EJECT ;
PL6.E3A0      #001=TOT$ERRMSGS File=TOT$ERRMSGS.:E05TSI                          WED 07/30/97 06:36 Page:3
       51       51        /* TOLTS Error Messages */
       52       52
       53       53        /* TOC$COLTS messages */
       54       54
       55       55        /*E* ERROR: TOC-E$FULLTABLE
       56       56             MESSAGE: No more COLTS tests are currently allowed.  Eight is enough.
       57       57        */
       58       58        /*E* ERROR: TOC-E$BADINQ
       59       59             MESSAGE: A second remote inquiry has been attempted.  Only one is
       60       60                      allowed to be outstanding at any given time.
       61       61        */
       62       62        /*E* ERROR: TOC-E$BADLOGID
       63       63             MESSAGE: Couldn't find specified line i.d.
       64       64        */
       65       65        /*E* ERROR: TOC-E$BADLNST
       66       66             MESSAGE: Bad line state% for line i.d. %U1%.
       67       67        */
       68       68        /*E* ERROR: TOC-E$BADRCVP
       69       69             MESSAGE: Bad input buffer pointer.
       70       70        */
       71       71        /*E* ERROR: TOC-E$BADDISC
       72       72             MESSAGE: Record pointer to disconnect ICM not found.
       73       73        */
       74       74        /*E* ERROR: TOC-E$BADNODETOLTS
       75       75             MESSAGE: ICM received from unknown node.
       76       76        */
       77       77        /*E* ERROR: TOC-E$BADCOINIT
       78       78             MESSAGE: Illegal code passed to COINIT.
       79       79        */
       80       80        /*E* ERROR: TOC-E$OPCG
       81       81             MESSAGE: TOLTS must reside in :SYS to run COLTS.
       82       82        */
       83       83        /*E* ERROR: TOC-E$BADLNID
       84       84             MESSAGE: An invalid LINE ID was received from the subexecutive.
       85       85        */
       86       86        /*E* ERROR: TOC-E$BADLINE
       87       87             MESSAGE: A handler could not be identified for the line to be
PL6.E3A0      #001=TOT$ERRMSGS File=TOT$ERRMSGS.:E05TSI                          WED 07/30/97 06:36 Page:4
       88       88                      tested.
       89       89        */
       90       90        /*E* ERROR: TOC-E$LTABOVFL
       91       91             MESSAGE: The COLTS line table has overflowed.
       92       92        */
       93       93        /*E* ERROR: TOC-E$BADGROUTTYP
       94       94             MESSAGE: An illegal GEROUT type% %U1% was attempted.
       95       95        */
       96       96        /*E* ERROR: TOC-E$BADCLOSE
       97       97             MESSAGE: Couldn't CLOSE the DCB for FECG.  Check to see that
       98       98                      FROG is still running.
       99       99        */
      100      100        /*E* ERROR: TOC-E$BADICMWR
      101      101             MESSAGE: Attempt to send an ICM% to node %U1% failed.
      102      102        */
      103      103        /*E* ERROR: TOC-E$BADICMRD
      104      104             MESSAGE: Attempt to receive an ICM% from node %U1% failed.
      105      105        */
      106      106        /*E* ERROR: TOC-E$NODCB
      107      107             MESSAGE: A DCB could not be assigned for the current test.
      108      108        */
      109      109        /*E* ERROR: TOC-E$NOLOGFEP
      110      110        MESSAGE: The subexecutive attempted a "wakeup" without getting a logical FEP number.
      111      111        */
      112      112        /*E* ERROR: TOC-E$FEPNOTREADY
      113      113             MESSAGE: FEP node% %U1% has not been partitioned.
      114      114        */
      115      115        /*E* ERROR: TOC-E$MLBXACTIVE
      116      116             MESSAGE: Attempt to issue an ICM% to FEP %U1% failed because the
      117      117                      mailbox is currently protected due to an outstanding READ.
      118      118        */
      119      119        /*E* ERROR: TOC-E$BADPCW
      120      120             MESSAGE: Invalid PCW issued.
      121      121        */
      122      122        /*E* ERROR: TOC-E$L66INT
      123      123             MESSAGE: A host interrupt was attempted by the subexecutive.
      124      124        */
PL6.E3A0      #001=TOT$ERRMSGS File=TOT$ERRMSGS.:E05TSI                          WED 07/30/97 06:36 Page:5
      125      125        /*E* ERROR: TOC-E$NTNODE
      126      126             MESSAGE: Attempt to issue an ICM to an FEP not under test.
      127      127        */
      128      128        /*E* ERROR: TOC-E$BADEVID
      129      129             MESSAGE: Illegal Event Id encountered by the COLTS Executive.
      130      130        */
      131      131        /*E* ERROR: TOC-E$BADDEV
      132      132             MESSAGE: Attempting to test an FEP device that is unknown to COLTS.
      133      133        */
      134      134        /*E* ERROR: TOC-E$NOCONFIG
      135      135             MESSAGE: Unexpected ALTRET from M$CONFIG in COLTS.
      136      136        */
      137      137        /*E* ERROR: TOC-E$NOHNDLR
      138      138             MESSAGE: The FPRG COLTS is trying to talk to has gone away.
      139      139                      Be sure that your account has the TND and MSYS
      140      140                      FEP privileges.
      141      141        */
      142      142        /*E* ERROR: TOC-E$CANTOPENFPRG
      143      143             MESSAGE: Cannot downline load the COLTS FPRG to the FEP.
      144      144                      Check your FEP account authorizations and the FEP
      145      145                      memory availability.
      146      146        */
      147      147
      148      148        /* TOD$DISPATCHER messages */
      149      149
      150      150        /*E* ERROR: TOD-E$ILLREQTYP
      151      151             MESSAGE: Invalid dispatcher request type -- TOLTS bug.
      152      152        */
      153      153        /*E* ERROR: TOD-E$DISPFULL
      154      154             MESSAGE: Dispatcher queue currently is full.
      155      155        */
      156      156        /*E* ERROR: TOD-E$DISPBUSY
      157      157             MESSAGE: The dispatcher queue is currently busy.
      158      158                      It can not service two entries at once.
      159      159        */
      160      160        /*E* ERROR: TOD-E$BADSRVCODE
      161      161             MESSAGE: Invalid dispatcher service code -- TOLTS bug.
PL6.E3A0      #001=TOT$ERRMSGS File=TOT$ERRMSGS.:E05TSI                          WED 07/30/97 06:36 Page:6
      162      162        */
      163      163        /*E* ERROR: TOD-E$LOADERR
      164      164         MESSAGE: Error encountered while attempting to load the subexecutive from the deckf
               164        ile.
      165      165        */
      166      166        /*E* ERROR: TOD-E$BADSIZE
      167      167             MESSAGE: Subexecutive load size > maximum DCW list allowance.
      168      168        */
      169      169
      170      170        /* TOE$EVENT_HANDLER messages */
      171      171
      172      172        /*E* ERROR: TOE-E$BADEVID
      173      173             MESSAGE: Invalid event identifier returned by the system.
      174      174        */
      175      175        /*E* ERROR: TOE-E$BADIOCNT
      176      176             MESSAGE: TOLTS outstanding I/O count went negative.
      177      177        */
      178      178        /*E* ERROR: TOE-E$BADNODETOLTS
      179      179             MESSAGE: Invalid node returned by the system.
      180      180        */
      181      181
      182      182        /* TOF$FAULTS messages */
      183      183
      184      184        /*E* ERROR: TOF-E$UNEXERRFLT
      185      185             MESSAGE: TOLTS encountered an unexpected fault.
      186      186        */
      187      187        /*E* ERROR: TOF-E$UNEXPRGFLT
      188      188             MESSAGE: TOLTS encountered an unexpected programmed fault.
      189      189        */
      190      190        /*E* ERROR: TOF-E$UNEXMONFLT
      191      191             MESSAGE: TOLTS received an unexpected ALTRETurn from a monitor service call.
      192      192        */
      193      193        /*E* ERROR: TOF-E$BADTAG
      194      194             MESSAGE: Unsupported tag field encountered in SBAR instruction.
      195      195        */
      196      196        /*E* ERROR: TOF-E$BADMODTYP
      197      197             MESSAGE: Unsupported address modification encountered in SBAR instruction.
PL6.E3A0      #001=TOT$ERRMSGS File=TOT$ERRMSGS.:E05TSI                          WED 07/30/97 06:36 Page:7
      198      198        */
      199      199        /*E* ERROR: TOF-E$BADSUBCODE
      200      200             MESSAGE: Unexpected exception subcode found in the exception frame.
      201      201        */
      202      202        /*E* ERROR: TOF-E$BADECC
      203      203             MESSAGE: Unexpected exceptional condition code found in the exception frame.
      204      204        */
      205      205        /*E* ERROR: TOF-E$NOGLBVEC
      206      206             MESSAGE: Lost GELBAR vector. TOLTS can not return to the test page.
      207      207        */
      208      208        /*E* ERROR: TOF-E$INVMME
      209      209             MESSAGE: Invalid MME number trapped by fault handler.
      210      210        */
      211      211        /*E* ERROR: TOF-E$ILLMME
      212      212             MESSAGE: Non-supported MME number trapped by fault handler.
      213      213        */
      214      214
      215      215        /* TOG$GCOS_MMES messages */
      216      216
      217      217        /*E*  ERROR: TOG-E$BADIOCNT
      218      218              MESSAGE: I/O count went negative.
      219      219        */
      220      220        /*E*  ERROR: TOG-E$BADGEINOS
      221      221              MESSAGE: Invalid GEINOS op code% %U1%.
      222      222        */
      223      223        /*E*  ERROR: TOG-E$MULTGENWR
      224      224              MESSAGE: There are 2 GEINOS writes outstanding.
      225      225        */
      226      226        /*E*  ERROR: TOG-E$MULTGENRD
      227      227              MESSAGE: There are 2 GEINOS reads outstanding.
      228      228        */
      229      229
      230      230        /* TOL$LOADER messages */
      231      231
      232      232        /*E* ERROR: TOL-E$COULDNOTLOAD
      233      233             MESSAGE: Error encountered while attempting to load data from the deckfile.
      234      234        */
PL6.E3A0      #001=TOT$ERRMSGS File=TOT$ERRMSGS.:E05TSI                          WED 07/30/97 06:36 Page:8
      235      235
      236      236        /* TOM$MOLTS messages */
      237      237
      238      238        /*E* ERROR: TOM-E$TBLLOADERR
      239      239             MESSAGE: Error encountered while loading ITR catalog table from the deckfile.
      240      240        */
      241      241        /*E* ERROR: TOM-E$INVICC
      242      242             MESSAGE: Invalid ICCC value passed by the subexecutive.
      243      243        */
      244      244        /*E* ERROR: TOM-E$SAVEALT
      245      245             MESSAGE: Error during the save of the reformatted catalog data.
      246      246        */
      247      247        /*E* ERROR: TOM-E$CLEARALT
      248      248             MESSAGE: Error encountered while trying to clear memory above the
      249      249                      the reformatted catalog data.
      250      250        */
      251      251        /*E* ERROR: TOM-E$ILLOBJKEY
      252      252             MESSAGE: Object key returned from the deckfile has an invalid length.
      253      253        */
      254      254        /*E* ERROR: TOM-E$OBJREAD
      255      255             MESSAGE: Error while attempting to read object deck key from the deckfile.
      256      256        */
      257      257
      258      258        /*E* ERROR: TOM-E$NOSEG
      259      259             MESSAGE: Attempt to close a catalog file which has already
      260      260                      been closed or was never allocated.
      261      261        */
      262      262        /*E* ERROR: TOM-E$FREEINACTV
      263      263             MESSAGE: Attempt to free a catalog segment which is currently
      264      264                      inactive.
      265      265        */
      266      266        /*E* ERROR: TOM-E$SEGSFULL
      267      267             MESSAGE: Attempt to open more NIO files than allowable.
      268      268        */
      269      269        /*E* ERROR: TOM-E$WDCNTNOT64
      270      270             MESSAGE: The DCW used on a MME DATA to an NIO catalog was not
      271      271                      MOD 64. The word count specified must be divisible by
PL6.E3A0      #001=TOT$ERRMSGS File=TOT$ERRMSGS.:E05TSI                          WED 07/30/97 06:36 Page:9
      272      272                      64 so that it represents the number of diskette sectors
      273      273                      to obtain.
      274      274        */
      275      275        /*E* ERROR: TOM-E$INVSECTOR
      276      276             MESSAGE: The starting sector requested on a MME DATA to an NIO
      277      277                      catalog file was after the logical end of file.
      278      278        */
      279      279
      280      280        /* TOO$TOLTS_MMES messages */
      281      281
      282      282        /*E* ERROR: TOO-E$BADGEMREL
      283      283             MESSAGE: An attempt to release lower memory was made by the subexec.
      284      284        */
      285      285        /*E* ERROR: TOO-E$BADLOGID
      286      286             MESSAGE: Disconnect of unused LID was attempted by subexec.
      287      287        */
      288      288        /*E* ERROR: TOO-E$BADMSGSIZE
      289      289             MESSAGE: Message from subexec > 1019 octal words.  Internal TOLTS
      290      290                      limitation.  Message will not be sent to user.
      291      291        */
      292      292        /*E* ERROR: TOO-E$BADLOADSIZE
      293      293             MESSAGE: Can't build a DCW list long enough to load object deck
      294      294                      % %U1%.
      295      295        */
      296      296        /*E* ERROR: TOO-E$BADIOBITS
      297      297             MESSAGE: Illegal I/O request bits set.
      298      298        */
      299      299        /*E* ERROR: TOO-E$BADGECALL
      300      300             MESSAGE: Illegal GECALL parameter from TOLTS.
      301      301        */
      302      302        /*E* ERROR: TOO-E$BADRLID
      303      303             MESSAGE: Controlling terminal wasn't set to users terminal.
      304      304        */
      305      305        /*E* ERROR: TOO-E$NOLOAD
      306      306             MESSAGE: The requested test page% %U1% could not be loaded.
      307      307             MESSAGE1: Check your deckfile listing to make sure it exists.
      308      308        */
PL6.E3A0      #001=TOT$ERRMSGS File=TOT$ERRMSGS.:E05TSI                          WED 07/30/97 06:36 Page:10
      309      309        /*E* ERROR: TOO-E$BADWORDCT
      310      310             MESSAGE: The word count for TADIOD message doesn't fit the message.
      311      311        */
      312      312
      313      313        /* TOP$POLTS messages */
      314      314
      315      315        /*E*  ERROR: TOP-E$BADPSIA
      316      316              MESSAGE: ICC% %U1% is not a bootable MPC channel.
      317      317        */
      318      318        /*E*  ERROR: TOP-E$BADREL
      319      319              MESSAGE: Invalid code for MME RELEAS.
      320      320        */
      321      321        /*E*  ERROR: TOP-E$BADSTS
      322      322              MESSAGE: Bad status returned on device survey.
      323      323        */
      324      324        /*E*  ERROR: TOP-E$BADTT
      325      325              MESSAGE: Specified test type is not supported.
      326      326        */
      327      327        /*E*  ERROR: TOP-E$INVCHN
      328      328              MESSAGE: Can't find specified channel in :CONFIG file.
      329      329        */
      330      330        /*E*  ERROR: TOP-E$BADDEVTYP
      331      331              MESSAGE: Invalid CP-6 device type found.
      332      332        */
      333      333        /*E*  ERROR: TOP-E$INVDEVICE
      334      334              MESSAGE: Can't find the device specified in test request.
      335      335        */
      336      336        /*E*  ERROR: TOP-E$BADICCDD
      337      337              MESSAGE: Couldn't find a match for ICCDD% %U1%.
      338      338        */
      339      339        /*E*  ERROR: TOP-E$BADIOM
      340      340              MESSAGE: Invalid IOM number.
      341      341        */
      342      342        /*E*  ERROR: TOP-E$BADPATPTR
      343      343              MESSAGE: No match found for PAT pointer.
      344      344        */
      345      345        /*E*  ERROR: TOP-E$BADSCTADR
PL6.E3A0      #001=TOT$ERRMSGS File=TOT$ERRMSGS.:E05TSI                          WED 07/30/97 06:36 Page:11
      346      346              MESSAGE: No match found for SCT address.
      347      347        */
      348      348        /*E*  ERROR: TOP-E$BADIORET
      349      349              MESSAGE: No match found for I/O entry.
      350      350        */
      351      351        /*E*  ERROR: TOP-E$BADICC
      352      352              MESSAGE: No match found for ICC passed by subexec.
      353      353        */
      354      354        /*E*  ERROR: TOP-E$BADDCWLS
      355      355              MESSAGE: The DCW list for the current I/O is not valid.
      356      356        */
      357      357        /*E*  ERROR: TOP-E$BADRESP
      358      358              MESSAGE: Invalid response.
      359      359        */
      360      360        /*E*  ERROR: TOP-E$BADFILEID
      361      361              MESSAGE: That's not a valid file identifier.
      362      362        */
      363      363        /*E*  ERROR: TOP-E$NOOVRWR
      364      364              MESSAGE: You may not create a new file with that fid.
      365      365        */
      366      366        /*E*  ERROR: TOP-E$NOASSIGN
      367      367              MESSAGE: The specified device is not available for T&D.
      368      368        */
      369      369        /*E*  ERROR: TOP-E$NOOPENCONFIG
      370      370              MESSAGE: Can't open :CONFIG file, check access controls.
      371      371        */
      372      372
      373      373        /* TOQ$DEBUG messages */
      374      374
      375      375        /*E* ERROR:   TOQ-E$BADREASON
      376      376             MESSAGE: Invalid reason code: bad call to the TOLTS DEBUG module
      377      377        */
      378      378
      379      379        /* TOS$SOLTS messages */
      380      380
      381      381        /*E*  ERROR: TOS-E$BADPACTREQ
      382      382              MESSAGE: Invalid request:% %U1% format is% %U1%{[C][nnn][N][Pm]}.
PL6.E3A0      #001=TOT$ERRMSGS File=TOT$ERRMSGS.:E05TSI                          WED 07/30/97 06:36 Page:12
      383      383        */
      384      384        /*E*  ERROR: TOS-E$NOCOMWDALTER
      385      385              MESSAGE: The% %U1 <-> TOLTS% communications word will not be altered.
      386      386        */
      387      387        /*E*  ERROR: TOS-E$BADNPFORM
      388      388              MESSAGE: Invalid request:% %U1%NPm form -- 'N' must be followed by 'P'.
      389      389        */
      390      390        /*E*  ERROR: TOS-E$BADPORT
      391      391              MESSAGE: Invalid request:% %U1%[N]Pm form -- Invalid port field.
      392      392        */
      393      393        /*E*  ERROR: TOS-E$BADNNN
      394      394              MESSAGE: Invalid request:% %U1%nnn[Pm] form -- invalid count field.
      395      395        */
      396      396        /*E*  ERROR: TOS-E$PLSRELCPU
      397      397              MESSAGE: A serious error has been detected for logical processor number %U1
      398      398                       T&D recommends that this CPU be released from the system for
      399      399                       SOLTS testing.
      400      400        */
      401      401        /*E*  ERROR: TOS-E$RPMASGCPU
      402      402              MESSAGE: Test of Logical Processor %U1 (CPU %U2) complete.
      403      403                       Please keyin START CPU %U2
      404      404        */
      405      405        /*E*  ERROR: TOS-E$RPMRELCPU
      406      406              MESSAGE: T&D is testing logical processor %U1 (CPU %U2)
      407      407                       Do NOT start CPU %U2 until T&D test completed.
      408      408        */
      409      409        /*E*  ERROR: TOS-E$RELCPU_NOT_STOPPED
      410      410              MESSAGE: Can't test logical processor %U1 (CPU %U2)
      411      411                       CPU %U2 is not STOPPED
      412      412        */
      413      413        /*E*  ERROR: TOS-E$ASGCPU_NOT_STOPPED
      414      414              MESSAGE: Can't assign logical processor %U1 (CPU %U2)
      415      415                       CPU %U2 is not STOPPED.
      416      416        */
      417      417        /*E*  ERROR: TOS-E$RPMASGSCU
      418      418              MESSAGE: Logical SCU number %U1
      419      419                       Test of SCU %U1 is finished.
PL6.E3A0      #001=TOT$ERRMSGS File=TOT$ERRMSGS.:E05TSI                          WED 07/30/97 06:36 Page:13
      420      420                       Please RETURN SCU %U1 to the system.
      421      421        */
      422      422        /*E*  ERROR: TOS-E$RPMRELSCU
      423      423              MESSAGE: Logical SCU number %U1
      424      424                       SCU must be RELEASED before running the T&D test.
      425      425        /* TOT$MAIN and TOT$ROOT messages */
      426      426
      427      427        /*E* ERROR: TOT-E$NOMORE
      428      428             MESSAGE: End of topic.
      429      429        */
      430      430        /*E* ERROR: TOT-E$ALLDONE
      431      431             MESSAGE: No more help available.
      432      432        */
      433      433        /*E* ERROR: TOT-E$BADSUBEXEC
      434      434             MESSAGE0: Only one TOLTS subexecutive may be active at a time.
      435      435             MESSAGE1: Additional tests for the current subexective may be run.
      436      436        */
      437      437        /*E* ERROR: TOT-E$NOTYET
      438      438             MESSAGE: TOLTS may not be terminated while MOLTS test pages are still running.
      439      439                      Terminate all MOLTS tests which are currently running or  wrap-up the
      440      440                      MOLTS subexecutive in order to terminate TOLTS.
      441      441        */
      442      442        /*E* ERROR: TOT-E$ONLYONE
      443      443             MESSAGE: Only one TOLTS request may be executed while TOLTS is in DEBUG mode.
      444      444        */
      445      445        /*E* ERROR: TOT-E$NOTOLTSPRIV
      446      446             MESSAGE: Required privileges to run TOLTS not found.
      447      447        */
      448      448        /*E* ERROR: TOT-E$MSGTOOLONG
      449      449             MESSAGE: Operator messages are limited to 80 characters.
      450      450        */
      451      451        /*E* ERROR: TOT-E$NODKFLREV
      452      452             MESSAGE: The deckfile to be used by TOLTS, %U1,
      453      453                      is not compatible with this version of TOLTS, %U2.
      454      454                      Please use the DEER %U2 version to re-build the
      455      455                      deckfile from the most recent available IFAD tape.
      456      456        */
PL6.E3A0      #001=TOT$ERRMSGS File=TOT$ERRMSGS.:E05TSI                          WED 07/30/97 06:36 Page:14
      457      457        /*E* ERROR: TOT-E$NOTNDCONTRACT
      458      458             MESSAGE: Data from the  deckfile  currently installed indicates
      459      459                      that your site  currently does  NOT have a maintenance
      460      460                      contract with Honeywell.  TOLTS is a separately priced
      461      461                      software product and  requires  such a contract before
      462      462                      certain tests may be run.  If this is in error, please
      463      463                      contact the Technical Assistance Center immediately.
      464      464        */
      465      465        /*E* ERROR: TOT-E$BADFIRST
      466      466         MESSAGE: Invalid initial test request entered. Initial test requests must begin wit
               466        h:
      467      467                      'C' - COLTS
      468      468                      'M' - MOLTS
      469      469                      'NIO' - MOLTS (New IO)
      470      470                      'P' - POLTS
      471      471                      'RPM' - MOLTS (SPUD)
      472      472                      'S' - SOLTS
      473      473                      '$PACT' - PACT
      474      474                      '$SLTA' - SOLTS AUTOCALL
      475      475        */
      476      476        /*E* ERROR: TOT-E$NOTONDPS90
      477      477             MESSAGE: PACT, POLTS, SLTA, and SOLTS tests are not run under TOLTS
      478      478                      on  a  DPS90  system.  Check  your MSOS  documentation for
      479      479                      information on  how to  run these types of  tests on  your
      480      480                      system.
      481      481        */
      482      482        /*E* ERROR: TOT-E$NOTONDPS8000
      483      483             MESSAGE: PACT, SLTA, AND SOLTS tests are not supported under TOLTS
      484      484                      on a DPS8000 system.
      485      485        */
      486      486
      487      487        /* TOX$ERR messages */
      488      488
      489      489        /*E* ERROR: TOX-E$GOODSCREECH
      490      490             MESSAGE: TOLTS SCREECH - dump produced is %U1
      491      491        */
      492      492        /*E* ERROR: TOX-E$BADSCREECH
PL6.E3A0      #001=TOT$ERRMSGS File=TOT$ERRMSGS.:E05TSI                          WED 07/30/97 06:36 Page:15
      493      493             MESSAGE: No SCREECH dump produced.
      494      494        */
      495      495
      496      496        /* End of TOLTS Error Messages */
      497      497        %EJECT ;
PL6.E3A0      #001=TOT$ERRMSGS File=TOT$ERRMSGS.:E05TSI                          WED 07/30/97 06:36 Page:16
      498      498        /* DEER Error message code and message code EQUates */
      499      499
      500      500        /* DEER TEXT Codes */
      501      501
      502      502        /* general                          0 -   9 */
      503      503
      504      504        /* TOU$DE                          10 -  19 */
      505      505
      506      506        /* TOU$BUILD                       20 -  39 */
      507      507
      508      508        /* TOU$LIST                        40 -  49 */
      509      509
      510      510        /* TOU$SHOWDECK                    50 -  69 */
      511      511
      512      512        /* TOU$SHOWFILE                    70 -  89 */
      513      513
      514      514        /* TOU$NEWCAT                      90 -  99 */
      515      515
      516      516        /* TOU$NEWDECK                    100 - 109 */
      517      517
      518      518        /* TOU$REPDECK                    110 - 119 */
      519      519
      520      520        /* TOU$REMREF                     120 - 129 */
      521      521
      522      522        /* TOU$DELDECK                    130 - 139 */
      523      523
      524      524        /* TOU$DELPATCH                   140 - 149 */
      525      525
      526      526        /* TOU$DELCAT                     150 - 159 */
      527      527
      528      528        /* TOU$PATCH                      160 - 169 */
      529      529
      530      530        /* TOU$UPDATE                     170 - 179 */
      531      531
      532      532        /* TOU$HELP                       180 - 189 */
      533      533
      534      534        /* TOU$MERGE                      190 - 199 */
PL6.E3A0      #001=TOT$ERRMSGS File=TOT$ERRMSGS.:E05TSI                          WED 07/30/97 06:36 Page:17
      535      535           %EJECT ;
PL6.E3A0      #001=TOT$ERRMSGS File=TOT$ERRMSGS.:E05TSI                          WED 07/30/97 06:36 Page:18
      536      536        /* DEER ERROR Codes */
      537      537
      538      538        /* TOU$DE                         200 - 204 */
      539      539
      540      540        /* TOU$DU                         205 - 249 */
      541      541
      542      542        /* TOU$DFU                        250 - 299 */
      543      543
      544      544        /* TOU$BREAK                      300 - 309 */
      545      545
      546      546        /* TOU$CHECKS                     310 - 319 */
      547      547
      548      548        /* TOU$DEBLOCKER                  320 - 339 */
      549      549
      550      550        /* TOU$GET_CARD                   340 - 379 */
      551      551
      552      552        /* TOU$BUILD                      380 - 399 */
      553      553
      554      554        /* TOU$LIST                       400 - 419 */
      555      555
      556      556        /* TOU$SHOWDECK                   420 - 439 */
      557      557
      558      558        /* TOU$NEWCAT                     440 - 459 */
      559      559
      560      560        /* TOU$NEWDECK                    460 - 479 */
      561      561
      562      562        /* TOU$REPDECK                    480 - 499 */
      563      563
      564      564        /* TOU$REMREF                     500 - 519 */
      565      565
      566      566        /* TOU$DELDECK                    520 - 539 */
      567      567
      568      568        /* TOU$DELPATCH                   540 - 559 */
      569      569
      570      570        /* TOU$PATCH                      560 - 579 */
      571      571
      572      572        /* TOU$UPDATE                     580 - 599 */
PL6.E3A0      #001=TOT$ERRMSGS File=TOT$ERRMSGS.:E05TSI                          WED 07/30/97 06:36 Page:19
      573      573
      574      574        /* TOU$MERGE                      600 - 699 */
      575      575           %EJECT ;
PL6.E3A0      #001=TOT$ERRMSGS File=TOT$ERRMSGS.:E05TSI                          WED 07/30/97 06:36 Page:20
      576      576        /* DEER HEADER Codes */
      577      577
      578      578        /* TOU$DE                         700 - 709 */
      579      579
      580      580        /* TOU$BUILD                      710 - 719 */
      581      581
      582      582        /* TOU$LIST                       720 - 729 */
      583      583
      584      584        /* TOU$SHOWDECK                   730 - 739 */
      585      585
      586      586        /* TOU$SHOWFILE                   740 - 749 */
      587      587
      588      588        /* TOU$NEWCAT                     750 - 759 */
      589      589
      590      590        /* TOU$NEWDECK                    760 - 769 */
      591      591
      592      592        /* TOU$REPDECK                    770 - 779 */
      593      593
      594      594        /* TOU$REMREF                     780 - 789 */
      595      595
      596      596        /* TOU$DELDECK                    790 - 799 */
      597      597
      598      598        /* TOU$DELPATCH                   800 - 809 */
      599      599
      600      600        /* TOU$DELCAT                     810 - 819 */
      601      601
      602      602        /* TOU$PATCH                      820 - 829 */
      603      603
      604      604        /* TOU$UPDATE                     830 - 839 */
      605      605
      606      606        /* TOU$HELP                       840 - 849 */
      607      607
      608      608        /* TOU$MERGE                      850 - 859 */
      609      609
      610      610        /* End of DEER EQUates */
      611      611        %EJECT ;
PL6.E3A0      #001=TOT$ERRMSGS File=TOT$ERRMSGS.:E05TSI                          WED 07/30/97 06:36 Page:21
      612      612        /* General Purpose Messages */
      613      613
      614      614        /*E* ERROR:   TOU-T$BLANK_LINE
      615      615             MESSAGE:
      616      616        */
      617      617        /*E* ERROR:   TOU-T$SHOW_IFAD
      618      618             MESSAGE:    IFAD File Identifier:     ~IFAD_FID
      619      619        */
      620      620        /*E* ERROR:   TOU-T$SHOW_DF
      621      621             MESSAGE:    Deckfile File Identifier: ~DF_FID
      622      622        */
      623      623        /*E* ERROR:   TOU-T$BREAK_ABORT
      624      624             MESSAGE: **** DEER command aborted
      625      625        */
      626      626
      627      627        /* TOU$DE messages */
      628      628
      629      629        /*E* ERROR:   TOU-T$START_DEER
      630      630             MESSAGE: DEER Version ~RU    ~RLINK   on ~LDATE   at ~TIME
      631      631        */
      632      632        /*E* ERROR:   TOU-T$END_DEER
      633      633             MESSAGE: DEER Version ~RU    off ~LDATE   at ~TIME
      634      634        */
      635      635
      636      636        /* TOU$BUILD messages */
      637      637
      638      638        /*E* ERROR:   TOU-T$B_SUCCESS
      639      639             MESSAGE: Build successful.
      640      640        */
      641      641        /*E* ERROR:   TOU-T$B_FAILURE
      642      642             MESSAGE: The deckfile was not built.
      643      643        */
      644      644        /*E* ERROR:   TOU-T$B_MASTER
      645      645         MESSAGE:                                                    ~CAT
               645             ~CD
      646      646        */
      647      647        /*E* ERROR:   TOU-T$B_CATALOG
PL6.E3A0      #001=TOT$ERRMSGS File=TOT$ERRMSGS.:E05TSI                          WED 07/30/97 06:36 Page:22
      648      648         MESSAGE:                                                    ~CAT
               648             ~CD     ~EM
      649      649        */
      650      650        /*E* ERROR:   TOU-T$B_GECALL
      651      651         MESSAGE: ~GECAL ~LBL  ~LOAD  ~DATE     ~SE         ~REVIS   ~ENT
               651             ~DECK   ~EN        ~MSZ
      652      652        */
      653      653        /*E* ERROR:   TOU-T$B_ITR
      654      654         MESSAGE:        ~LBL  ~CLAS  ~DATE     ~ID     ~MODEL  ~R   ~ENT
               654             ~DECK   ~EN        ~MSZ
      655      655        */
      656      656        /*E* ERROR:   TOU-T$B_MDR
      657      657         MESSAGE: ~GECAL ~LBL  ~CLAS  ~DATE     ~ID     ~MODEL  ~R   ~ENT
               657             ~DECK   ~EN        ~MSZ
      658      658        */
      659      659        /*E* ERROR:   TOU-T$B_INFORM_BUILD
      660      660             MESSAGE: Completed catalog ~CAT                  ~EC    entries from file ~FM
      661      661        */
      662      662        /*E* ERROR:   TOU-T$B_MC_INFORM
      663      663             MESSAGE: Completed catalog ~CAT                  ~EC    master entries
      664      664        */
      665      665        /*E* ERROR:   TOU-T$B_PATCHES_WERE
      666      666             MESSAGE: The following patch cards were found for (~LBL) ~ENT
      667      667        */
      668      668        /*E* ERROR:   TOU-T$B_PATCH
      669      669             MESSAGE: ~PATCH
      670      670        */
      671      671        /*E* ERROR:   TOU-T$B_INFORM_COPY
      672      672             MESSAGE: Completed catalog ~CAT                  ~EC    entries copied
      673      673        */
      674      674
      675      675        /* TOU$LIST messages */
      676      676
      677      677        /*E* ERROR:   TOU-T$L_SUCCESS
      678      678             MESSAGE: List successful.
      679      679        */
      680      680        /*E* ERROR:   TOU-T$L_FAILURE
PL6.E3A0      #001=TOT$ERRMSGS File=TOT$ERRMSGS.:E05TSI                          WED 07/30/97 06:36 Page:23
      681      681             MESSAGE: An incomplete or no DEER Edit Listing was produced.
      682      682        */
      683      683        /*E* ERROR:   TOU-T$L_INFORM
      684      684             MESSAGE: Listed catalog ~CAT                  ~EC    entries from file ~F2
      685      685        */
      686      686        /*E* ERROR:   TOU-T$L_MC_INFORM
      687      687             MESSAGE: Listed catalog ~CAT                  ~EC    master entries
      688      688        */
      689      689        /*E* ERROR:   TOU-T$L_LOG_INFORM
      690      690             MESSAGE: Listed history log
      691      691        */
      692      692
      693      693        /* TOU$SHOWDECK messages */
      694      694
      695      695        /*E* ERROR:   TOU-T$SD_SUCCESS
      696      696             MESSAGE: Object deck successfully shown.
      697      697        */
      698      698        /*E* ERROR:   TOU-T$SD_FAILURE
      699      699             MESSAGE: Attempt to show object deck failed.
      700      700        */
      701      701        /*E* ERROR:   TOU-T$SD_DECK
      702      702             MESSAGE: Object Deck: ~ENT                    From: ~DF_FID
      703      703        */
      704      704        /*E* ERROR:   TOU-T$SD_ITR_TABLE
      705      705         MESSAGE: --------------------------------------------------------------------------
               705        ------
      706      706                             Library:         ~LIB                    Deck Number:     ~DECK
      707      707                              Load Type:       ~LOAD                   Load Size:       ~MSZ
      708      708                              Deck Type:       ~CLAS                   Binary Count:    ~BCT
      709      709                              Assembler Type:  ~A                      Total Count:     ~TCT
      710      710                            Title Date:      ~DATE                   Model:           ~MODEL
      711      711                            Edit Name:       ~LBL                    Revision:        ~REVIS
      712      712        */
      713      713        /*E* ERROR:   TOU-T$SD_MDR_TABLE
      714      714         MESSAGE: --------------------------------------------------------------------------
               714        ------
      715      715                             Library:         ~LIB                    Deck Number:     ~DECK
PL6.E3A0      #001=TOT$ERRMSGS File=TOT$ERRMSGS.:E05TSI                          WED 07/30/97 06:36 Page:24
      716      716                              Load Type:       ~LOAD                   Load Size:       ~MSZ
      717      717                              Deck Type:       ~CLAS                   Binary Count:    ~BCT
      718      718                              Assembler Type:  ~A                      Total Count:     ~TCT
      719      719                            Title Date:      ~DATE                   Model:           ~MODEL
      720      720                            Edit Name:       ~LBL                    Call Name:       ~GECAL
      721      721                                                                     Revision:        ~REVIS
      722      722        */
      723      723        /*E* ERROR:   TOU-T$SD_GECALL_TABLE
      724      724         MESSAGE: --------------------------------------------------------------------------
               724        ------
      725      725                             Library:         ~LIB                    Deck Number:     ~DECK
      726      726                              Load Type:       ~LOAD                   Load Size:       ~MSZ
      727      727                              Subsystem Type:  ~SE                     Binary Count:    ~BCT
      728      728                              Assembler Type:  ~A                      Total Count:     ~TCT
      729      729                            Title Date:      ~DATE                   Call Name:       ~GECAL
      730      730                            Edit Name:       ~LBL                    Assembly Date:   ~REVIS
      731      731        */
      732      732        /*E* ERROR:   TOU-T$SD_OBJECT
      733      733         MESSAGE: --------------------------------------------------------------------------
               733        ------
      734      734                      ~OBJ
      735      735        */
      736      736        /*E* ERROR:   TOU-T$SD_SEPARATOR
      737      737         MESSAGE: --------------------------------------------------------------------------
               737        ------
      738      738        */
      739      739        /*E* ERROR:   TOU-T$SD_REFS
      740      740             MESSAGE: ~ENT                    is referenced as:
      741      741        */
      742      742        /*E* ERROR:   TOU-T$SD_CATALOG
      743      743             MESSAGE:    Entry number ~EN    of catalog ~CAT
      744      744        */
      745      745        /*E* ERROR:   TOU-T$SD_PATCH
      746      746             MESSAGE: ~PATCH
      747      747        */
      748      748        /*E* ERROR:   TOU-T$SD_NIO_TABLE
      749      749         MESSAGE: --------------------------------------------------------------------------
PL6.E3A0      #001=TOT$ERRMSGS File=TOT$ERRMSGS.:E05TSI                          WED 07/30/97 06:36 Page:25
               749        ------
      750      750                             Library:         ~LIB                    Deck Number:     ~DECK
      751      751                              Load Type:       ~LOAD                   Load Size:       ~MSZ
      752      752                              Deck Type:       ~CLAS                   Binary Count:    ~BCT
      753      753                              Assembler Type:  ~A                      Total Count:     ~TCT
      754      754                          Title Date:      ~DATE                   Model:             ~MODEL
      755      755                            Edit Name:       ~LBL                    Revision:        ~REVIS
      756      756        */
      757      757
      758      758        /* TOU$SHOWFILE messages */
      759      759
      760      760        /*E* ERROR:   TOU-T$SF_SUCCESS
      761      761             MESSAGE: Deckfile history successfully shown.
      762      762        */
      763      763        /*E* ERROR:   TOU-T$SF_FAILURE
      764      764             MESSAGE: The history of the deckfile was not shown.
      765      765        */
      766      766        /*E* ERROR:   TOU-T$SF_BUILD
      767      767             MESSAGE: ~HLGDATE  ~HLGTIME     Built from ~HLGIFAD
      768      768                                             ~HLGCATALOG
      769      769        */
      770      770        /*E* ERROR:   TOU-T$SF_NEWCAT
      771      771             MESSAGE: ~HLGDATE  ~HLGTIME     Added catalog ~HLGCATALOG
      772      772                                             from ~HLGIFAD
      773      773        */
      774      774        /*E* ERROR:   TOU-T$SF_NEWDECK
      775      775             MESSAGE: ~HLGDATE  ~HLGTIME     Added object deck ~HLGDECK
      776      776                                             to ~HLGCATALOG
      777      777                                             from ~HLGIFAD
      778      778        */
      779      779        /*E* ERROR:   TOU-T$SF_REPDECK
      780      780             MESSAGE: ~HLGDATE  ~HLGTIME     Replaced object deck ~HLGDECK
      781      781                                             from ~HLGIFAD
      782      782        */
      783      783        /*E* ERROR:   TOU-T$SF_REMREF
      784      784             MESSAGE: ~HLGDATE  ~HLGTIME     Object deck ~HLGDECK
      785      785                                             is no longer referenced by ~HLGCATALOG
PL6.E3A0      #001=TOT$ERRMSGS File=TOT$ERRMSGS.:E05TSI                          WED 07/30/97 06:36 Page:26
      786      786        */
      787      787        /*E* ERROR:   TOU-T$SF_DELDECK
      788      788             MESSAGE: ~HLGDATE  ~HLGTIME     Deleted object deck ~HLGDECK
      789      789        */
      790      790        /*E* ERROR:   TOU-T$SF_DELCAT
      791      791             MESSAGE: ~HLGDATE  ~HLGTIME     Deleted catalog ~HLGCATALOG
      792      792        */
      793      793        /*E* ERROR:   TOU-T$SF_DELPATCH
      794      794             MESSAGE: ~HLGDATE  ~HLGTIME     Deleted patches for object deck ~HLGDECK
      795      795        */
      796      796        /*E* ERROR:   TOU-T$SF_PATCH
      797      797             MESSAGE: ~HLGDATE  ~HLGTIME     Patched object deck ~HLGDECK
      798      798                                             from ~HLGIFAD
      799      799        */
      800      800        /*E* ERROR:   TOU-T$SF_UPDATE
      801      801             MESSAGE: ~HLGDATE  ~HLGTIME     Updated from ~HLGIFAD
      802      802        */
      803      803        /*E* ERROR:   TOU-T$SF_SITE
      804      804         MESSAGE: ~WSN
               804        ~WSI
      805      805                      --------  -----------  ----------------------
      806      806                      Date      Time         Modification Performed
      807      807                      --------  -----------  ----------------------
      808      808        */
      809      809        /*E* ERROR:   TOU-T$SF_MERGE1
      810      810             MESSAGE: ~HLGDATE  ~HLGTIME     Merge created ~HLGCATALOG
      811      811                                             from ~HLGIFAD
      812      812        */
      813      813        /*E* ERROR:   TOU-T$SF_MERGE2
      814      814             MESSAGE: ~HLGDATE  ~HLGTIME     Merge extended ~HLGCATALOG
      815      815                                             from ~HLGIFAD
      816      816        */
      817      817        /*E* ERROR:   TOU-T$SF_COPY
      818      818             MESSAGE: ~HLGDATE  ~HLGTIME     Copied ~HLGCATALOG
      819      819                                             from ~HLGIFAD
      820      820        */
      821      821
PL6.E3A0      #001=TOT$ERRMSGS File=TOT$ERRMSGS.:E05TSI                          WED 07/30/97 06:36 Page:27
      822      822        /* TOU$NEWCAT messages */
      823      823
      824      824        /*E* ERROR:   TOU-T$NC_SUCCESS
      825      825             MESSAGE: New catalog successfully added.
      826      826        */
      827      827        /*E* ERROR:   TOU-T$NC_FAILURE
      828      828             MESSAGE: The new catalog was not added.
      829      829        */
      830      830        /*E* ERROR:   TOU-T$NC_INFORM
      831      831             MESSAGE: Added catalog ~CAT                  ~EC    entries from file ~FM
      832      832        */
      833      833
      834      834        /* TOU$NEWDECK messages */
      835      835
      836      836        /*E* ERROR:   TOU-T$ND_SUCCESS
      837      837             MESSAGE: New deck successfully added.
      838      838        */
      839      839        /*E* ERROR:   TOU-T$ND_FAILURE
      840      840             MESSAGE: The new object deck was not added.
      841      841        */
      842      842        /*E* ERROR:   TOU-T$ND_INFORM
      843      843             MESSAGE: Added deck ~ENT                    to catalog ~CAT
      844      844        */
      845      845        /*E* ERROR:   TOU-T$ND_CATALOG
      846      846         MESSAGE:                                                    ~CAT
               846             ~CD
      847      847        */
      848      848        /*E* ERROR:   TOU-T$ND_MULT_CATALOGS
      849      849             MESSAGE: There are ~COL catalogs with catalog key ~CAT
      850      850        */
      851      851        /*E* ERROR:   TOU-T$ND_CATALOG_CHOICE
      852      852             MESSAGE:    Master Entry Number: ~EM
      853      853        */
      854      854        /*E* ERROR:   TOU-T$ND_CATALOG_DIRECTIONS
      855      855             MESSAGE: Input the master entry number of the catalog to be used.
      856      856                      Refer to the DEER printout (deckfile listing) for information.
      857      857        */
PL6.E3A0      #001=TOT$ERRMSGS File=TOT$ERRMSGS.:E05TSI                          WED 07/30/97 06:36 Page:28
      858      858
      859      859        /* TOU$REPDECK messages */
      860      860
      861      861        /*E* ERROR:   TOU-T$RD_SUCCESS
      862      862             MESSAGE: Deck successfully replaced.
      863      863        */
      864      864        /*E* ERROR:   TOU-T$RD_FAILURE
      865      865             MESSAGE: The object deck was not replaced.
      866      866        */
      867      867        /*E* ERROR:   TOU-T$RD_GECALL
      868      868         MESSAGE: ~GECAL ~LBL  ~LOAD  ~DATE     ~SE         ~REVIS   ~ENT
               868             ~DECK              ~MSZ
      869      869        */
      870      870        /*E* ERROR:   TOU-T$RD_ITR
      871      871         MESSAGE:        ~LBL  ~CLAS  ~DATE     ~ID     ~MODEL  ~R   ~ENT
               871             ~DECK              ~MSZ
      872      872        */
      873      873        /*E* ERROR:   TOU-T$RD_MDR
      874      874         MESSAGE: ~GECAL ~LBL  ~CLAS  ~DATE     ~ID     ~MODEL  ~R   ~ENT
               874             ~DECK              ~MSZ
      875      875        */
      876      876        /*E* ERROR:   TOU-T$RD_INFORM
      877      877             MESSAGE: Replaced deck ~IMAGE                  with ~ENT
      878      878        */
      879      879
      880      880        /* TOU$REMREF messages */
      881      881
      882      882        /*E* ERROR:   TOU-T$RR_SUCCESS
      883      883             MESSAGE: Reference successfully removed.
      884      884        */
      885      885        /*E* ERROR:   TOU-T$RR_FAILURE
      886      886             MESSAGE: The catalog reference was not removed.
      887      887        */
      888      888        /*E* ERROR:   TOU-T$RR_INFORM
      889      889             MESSAGE: Removed entry for ~ENT                    from ~CAT
      890      890        */
      891      891        /*E* ERROR:   TOU-T$RR_CAT_NO_REFS
PL6.E3A0      #001=TOT$ERRMSGS File=TOT$ERRMSGS.:E05TSI                          WED 07/30/97 06:36 Page:29
      892      892             MESSAGE: Catalog no longer references any object decks and will be deleted.
      893      893                      (This may take a few minutes... please be patient.)
      894      894        */
      895      895
      896      896        /* TOU$DELDECK messages */
      897      897
      898      898        /*E* ERROR:   TOU-T$DD_SUCCESS
      899      899             MESSAGE: Deck successfully deleted.
      900      900        */
      901      901        /*E* ERROR:   TOU-T$DD_FAILURE
      902      902             MESSAGE: The object deck was not deleted.
      903      903        */
      904      904        /*E* ERROR:   TOU-T$DD_INFORM
      905      905             MESSAGE: Deleted deck ~ENT
      906      906        */
      907      907        /*E* ERROR:   TOU-T$DD_DEL_CAT
      908      908             MESSAGE: Deleted catalog ~CAT
      909      909        */
      910      910        /*E* ERROR:   TOU-T$DD_DEL_DF
      911      911             MESSAGE: Deckfile no longer references any catalogs.
      912      912                      Deleted deckfile ~DF_FID
      913      913        */
      914      914
      915      915        /* TOU$DELPATCH messages */
      916      916
      917      917        /*E* ERROR:   TOU-T$DP_SUCCESS
      918      918             MESSAGE: Patches successfully deleted.
      919      919        */
      920      920        /*E* ERROR:   TOU-T$DP_FAILURE
      921      921             MESSAGE: No patches were deleted.
      922      922        */
      923      923        /*E* ERROR:   TOU-T$DP_INFORM
      924      924             MESSAGE: Deleted patches for ~ENT
      925      925        */
      926      926
      927      927        /* TOU$DELCAT messages */
      928      928
PL6.E3A0      #001=TOT$ERRMSGS File=TOT$ERRMSGS.:E05TSI                          WED 07/30/97 06:36 Page:30
      929      929        /*E* ERROR:   TOU-T$DC_SUCCESS
      930      930             MESSAGE: Catalog successfully deleted.
      931      931        */
      932      932        /*E* ERROR:   TOU-T$DC_FAILURE
      933      933             MESSAGE: The catalog was not deleted.
      934      934        */
      935      935        /*E* ERROR:   TOU-T$DC_REMREF
      936      936             MESSAGE: Removed reference to ~ENT
      937      937        */
      938      938
      939      939        /* TOU$PATCH messages */
      940      940
      941      941        /*E* ERROR:   TOU-T$P_SUCCESS
      942      942             MESSAGE: Deck successfully patched.
      943      943        */
      944      944        /*E* ERROR:   TOU-T$P_FAILURE
      945      945             MESSAGE: No patches were added.
      946      946        */
      947      947        /*E* ERROR:   TOU-T$P_INFORM
      948      948             MESSAGE: Patched deck ~ENT
      949      949        */
      950      950        /*E* ERROR:   TOU-T$P_OVERWRITE
      951      951             MESSAGE: IFAD input file contains patches that will replace existing patches.
      952      952        */
      953      953
      954      954        /* TOU$UPDATE messages */
      955      955
      956      956        /*E* ERROR:   TOU-T$U_SUCCESS
      957      957             MESSAGE: The Update function is an unimplemented feature of the DEER processor.
      958      958        */
      959      959        /*E* ERROR:   TOU-T$U_FAILURE
      960      960             MESSAGE: Update attempt failed.
      961      961        */
      962      962        /*E* ERROR:   TOU-T$U_INFORM1
      963      963             MESSAGE: Updated ~CAT
      964      964        */
      965      965        /*E* ERROR:   TOU-T$U_INFORM2
PL6.E3A0      #001=TOT$ERRMSGS File=TOT$ERRMSGS.:E05TSI                          WED 07/30/97 06:36 Page:31
      966      966             MESSAGE: Updated ~ENT
      967      967        */
      968      968
      969      969        /* TOU$HELP messages */
      970      970
      971      971        /*E* ERROR:   TOU-T$H_NO_MORE
      972      972             MESSAGE: No more HELP available for that topic.
      973      973        */
      974      974        /*E* ERROR:   TOU-T$H_END_TOPIC
      975      975             MESSAGE: End of topic.
      976      976        */
      977      977
      978      978        /* TOU$MERGE messages */
      979      979
      980      980        /*E* ERROR:   TOU-T$M_SUCCESS
      981      981             MESSAGE: Diskette merge successful.
      982      982        */
      983      983        /*E* ERROR:   TOU-T$M_FAILURE
      984      984             MESSAGE: Diskette not merged.
      985      985        */
      986      986        /*E* ERROR:   TOU-T$M_INFORM1
      987      987             MESSAGE: Extended catalog ~CAT                  ~EC    entries from file ~F2
      988      988        */
      989      989        /*E* ERROR:   TOU-T$M_INFORM2
      990      990             MESSAGE: Created catalog ~CAT                  ~EC    entries from file ~F2
      991      991        */
      992      992
      993      993        /* TOU$DE error messages */
      994      994
      995      995        /*E* ERROR:   TOU-E$DSBH_BREAK
      996      996             MESSAGE: *** Attempt to establish DEER condition handling failed.
      997      997        */
      998      998
      999      999        /* TOU$DU error messages */
     1000     1000
     1001     1001        /*E* ERROR:   TOU-E$DSIF_NO_IFAD
     1002     1002         MESSAGE: * The IFAD file identifier must be entered as part of the DEER command sin
PL6.E3A0      #001=TOT$ERRMSGS File=TOT$ERRMSGS.:E05TSI                          WED 07/30/97 06:36 Page:32
              1002        ce a
     1003     1003                        valid  !SET M$IFAD <fid>  was not issued before DEER was invoked.
     1004     1004        */
     1005     1005        /*E* ERROR:   TOU-E$DIFH_NOT_ME
     1006     1006             MESSAGE: * IFAD input may not come from device 'ME' for this DEER command.
     1007     1007                        IFAD  may  only  be associated with 'ME' for the PATCH command.
     1008     1008        */
     1009     1009        /*E* ERROR:   TOU-E$DIFH_FID_ERROR
     1010     1010             MESSAGE: *** Attempt to set up IFAD FID from entered value failed: ~IFAD_FID
     1011     1011        */
     1012     1012        /*E* ERROR:   TOU-E$DIFM_DEVICE
     1013     1013             MESSAGE: * Invalid device selected for IFAD input: ~IFAD_FID
     1014     1014                        IFAD may be set to a Free Tape (FT#nnnnnn) device for:
     1015     1015                             BUILD  NEWCAT  NEWDECK  REPDECK  PATCH  UPDATE
     1016     1016                        IFAD may be set to the user terminal (ME) for:
     1017     1017                             PATCH
     1018     1018                        IFAD must be set to an IMX (IMXnn) for:
     1019     1019                             MERGE
     1020     1020                        All other DEVICES are illegal.
     1021     1021        */
     1022     1022        /*E* ERROR:   TOU-E$DIFM_ASN
     1023     1023            MESSAGE: * Labelled Tapes and Comgroups are not valid as IFAD input identifiers.
     1024     1024                   IFAD input must be of type  FILE (disk file) or DEVICE (Free Tape or ME).
     1025     1025        */
     1026     1026        /*E* ERROR:   TOU-E$DITFM_ERROR
     1027     1027             MESSAGE: *** Attempt to set IFAD tape fid from the DCB merge file failed.
     1028     1028        */
     1029     1029        /*E* ERROR:   TOU-E$DIDFM_ERROR
     1030     1030             MESSAGE: *** Attempt to set IFAD disk fid from the DCB merge file failed.
     1031     1031        */
     1032     1032        /*E* ERROR:   TOU-E$DOI_NO_FILE
     1033     1033             MESSAGE: ** IFAD Input file does not exist: ~IFAD_FID
     1034     1034        */
     1035     1035        /*E* ERROR:   TOU-E$DOI_ALREADY_OPEN
     1036     1036             MESSAGE: *** IFAD file is already open: ~IFAD_FID
     1037     1037                          DCB being closed now. Retry editor command.
     1038     1038        */
PL6.E3A0      #001=TOT$ERRMSGS File=TOT$ERRMSGS.:E05TSI                          WED 07/30/97 06:36 Page:33
     1039     1039        /*E* ERROR:   TOU-E$DOI_OPEN_ERROR
     1040     1040             MESSAGE: *** Attempt to open IFAD failed: ~IFAD_FID
     1041     1041        */
     1042     1042        /*E* ERROR:   TOU-E$DNI_CVOL_ERROR
     1043     1043             MESSAGE: *** Attempt to mount next IFAD volume failed: ~IFAD_FID
     1044     1044        */
     1045     1045        /*E* ERROR:   TOU-E$DCI_CLOSE_ERROR
     1046     1046             MESSAGE: *** Attempt to close IFAD failed: ~IFAD_FID
     1047     1047        */
     1048     1048        /*E* ERROR:   TOU-E$DDFH_ASN
     1049     1049             MESSAGE: * Invalid deckfile identifier: ~DF_FID
     1050     1050                        Deckfiles may only be specified as disk files.
     1051     1051        */
     1052     1052        /*E* ERROR:   TOU-E$DDFH_FID_ERROR
     1053     1053             MESSAGE: *** Attempt to set up DECKFILE FID from entered value failed.
     1054     1054                          Deckfiles may only be specified by legal disk files identifiers.
     1055     1055        */
     1056     1056        /*E* ERROR:   TOU-E$DDFM_ASN
     1057     1057             MESSAGE: * M$DECKFILE has been !SET to an invalid deckfile identifier.
     1058     1058                        Deckfiles may only be specified as disk files.
     1059     1059        */
     1060     1060        /*E* ERROR:   TOU-E$DDFM_ERROR
     1061     1061             MESSAGE: *** Attempt to set DECKFILE FID from the DCB merge file failed.
     1062     1062        */
     1063     1063        /*E* ERROR:   TOU-E$DOD_CANT_OVERWRITE
     1064     1064         MESSAGE: ** The DEER BUILD command will not overwrite an existing deckfile when the
              1064         ON
     1065     1065                         is used. Use the OVER option to replace ~DF_FID
     1066     1066                         B/UILD [<ifad fid>] OVER <deckfile fid>
     1067     1067        */
     1068     1068        /*E* ERROR:   TOU-E$DOD_CANT_ACCESS
     1069     1069             MESSAGE: ** Privileges currently not granted to access ~DF_FID
     1070     1070                         Contact your supervisor or assign needed privileges. (!PRIV ALL)
     1071     1071        */
     1072     1072        /*E* ERROR:   TOU-E$DOD_NO_FILE
     1073     1073             MESSAGE: ** The deckfile does not exist: ~DF_FID
     1074     1074        */
PL6.E3A0      #001=TOT$ERRMSGS File=TOT$ERRMSGS.:E05TSI                          WED 07/30/97 06:36 Page:34
     1075     1075        /*E* ERROR:   TOU-E$DOD_ALREADY_OPEN
     1076     1076             MESSAGE: *** The deckfile is already open: ~DF_FID
     1077     1077                          DCB being closed now. Retry editor command.
     1078     1078        */
     1079     1079        /*E* ERROR:   TOU-E$DOD_OPEN_ERROR
     1080     1080             MESSAGE: *** Attempt to open deckfile failed: ~DF_FID
     1081     1081        */
     1082     1082        /*E* ERROR:   TOU-E$DCD_CLOSE_ERROR
     1083     1083             MESSAGE: *** Attempt to close deckfile failed: ~DF_FID
     1084     1084        */
     1085     1085        /*E* ERROR:   TOU-E$DUR_READ
     1086     1086             MESSAGE: *** Attempt to obtain user input failed.
     1087     1087        */
     1088     1088        /*E* ERROR:   TOU-E$DPW_WRITE
     1089     1089             MESSAGE: *** Attempt to write text to the DEER Listing failed.
     1090     1090        */
     1091     1091        /*E* ERROR:   TOU-E$DHW_WRITE
     1092     1092             MESSAGE: *** Attempt to write header on DEER Listing failed.
     1093     1093        */
     1094     1094        /*E* ERROR:   TOU-E$DSEP_PROMPT
     1095     1095             MESSAGE: *** Attempt to set the edit prompt failed.
     1096     1096        */
     1097     1097        /*E* ERROR:   TOU-E$DSP_PROMPT
     1098     1098             MESSAGE: *** Attempt to set the prompt to a specified value failed.
     1099     1099        */
     1100     1100        /*E* ERROR:   TOU-E$DGDS_GDS
     1101     1101             MESSAGE: *** Attempt to obtain dynamic space failed.
     1102     1102        */
     1103     1103        /*E* ERROR:   TOU-E$DFDS_FDS
     1104     1104             MESSAGE: *** Attempt to free dynamic space failed.
     1105     1105        */
     1106     1106        /*E* ERROR:   TOU-E$DUL_TOO_MANY
     1107     1107          MESSAGE: ** No space available in the deckfile history log. The change will not be
     1108     1108                      saved in the history log,  but  the command will otherwise continue as
     1109     1109                         normal.
     1110     1110        */
     1111     1111        /*E* ERROR:   TOU-E$DSIIN_BAD_IMX#
PL6.E3A0      #001=TOT$ERRMSGS File=TOT$ERRMSGS.:E05TSI                          WED 07/30/97 06:36 Page:35
     1112     1112             MESSAGE: *** Invalid IMX number entered: ~IFAD_FID
     1113     1113        */
     1114     1114        /*E* ERROR:   TOU-E$DSIIN_NOT_IMX
     1115     1115             MESSAGE: *** Invalid IFAD identifier: ~IFAD_FID
     1116     1116                          An IMX must be specified for this DEER command.
     1117     1117        */
     1118     1118        /*E* ERROR:   TOU-E$DOW_MSG_TOO_LONG
     1119     1119             MESSAGE: Operator messages are limited to 120 characters.
     1120     1120        */
     1121     1121        /*E* ERROR:   TOU-E$DIOM_MSG
     1122     1122             MESSAGE: ** Attempt to send an operator message failed.
     1123     1123        */
     1124     1124        /*E* ERROR:   TOU-E$DOT_NO_TEXT
     1125     1125             MESSAGE: Text to be sent to the operator contains a blank line.
     1126     1126        */
     1127     1127        /*E* ERROR:   TOU-E$DMRS_MCA
     1128     1128             MESSAGE: *** Attempt to issue reset status to MCA failed.
     1129     1129        */
     1130     1130
     1131     1131        /* TOU$DFU error messages */
     1132     1132
     1133     1133        /*E* ERROR:   TOU-E$DRMC_NO_MAST_CNTRL
     1134     1134             MESSAGE: *** Attempt to read the MASTER CONTROL failed.
     1135     1135                          Master Control Key: MASTER_CATALOG
     1136     1136        */
     1137     1137        /*E* ERROR:   TOU-E$DRME_NO_MAST_ENTRY
     1138     1138             MESSAGE: *** Attempt to read a MASTER ENTRY failed.
     1139     1139                          Master Entry Number: ~EM
     1140     1140        */
     1141     1141        /*E* ERROR:   TOU-E$DRCC_NO_CAT_CNTRL
     1142     1142             MESSAGE: *** Attempt to read a CATALOG CONTROL failed.
     1143     1143                          Catalog: ~CAT
     1144     1144                          Catalog Deck Number: ~CD
     1145     1145        */
     1146     1146        /*E* ERROR:   TOU-E$DRS_NO_SUBCAT
     1147     1147             MESSAGE: *** Attempt to read a SUBCATALOG failed.
     1148     1148                          Catalog: ~CAT
PL6.E3A0      #001=TOT$ERRMSGS File=TOT$ERRMSGS.:E05TSI                          WED 07/30/97 06:36 Page:36
     1149     1149                          Catalog Deck Number:  ~CD
     1150     1150        */
     1151     1151        /*E* ERROR:   TOU-E$DRCE_NO_CAT_ENTRY
     1152     1152             MESSAGE: *** Attempt to read a CATALOG ENTRY failed.
     1153     1153                          Catalog: ~CAT
     1154     1154                          Catalog Deck Number:  ~CD
     1155     1155                          Catalog Entry Number: ~EN
     1156     1156        */
     1157     1157        /*E* ERROR:   TOU-E$DRO_DECK_NO_OBJECT
     1158     1158             MESSAGE: *** Object deck does not start with a $OBJECT Card.
     1159     1159                          Read of object card failed.
     1160     1160                          Object Key: ~ENT
     1161     1161        */
     1162     1162        /*E* ERROR:   TOU-E$DRO_NO_OBJECT
     1163     1163             MESSAGE: *** Attempt to read an OBJECT card failed.
     1164     1164                          Object Key: ~ENT
     1165     1165        */
     1166     1166        /*E* ERROR:   TOU-E$DRB_BAD_BINARY
     1167     1167             MESSAGE: *** Attempt to read a BINARY deck failed.
     1168     1168                          Deck Key: ~DECK
     1169     1169        */
     1170     1170        /*E* ERROR:   TOU-E$DRBC_BAD_DECK
     1171     1171             MESSAGE: *** Object deck does not end with a $DKEND Card.
     1172     1172                          Read of BCD cards failed.
     1173     1173                          Object Key: ~ENT
     1174     1174                          Deck Key:   ~DECK
     1175     1175        */
     1176     1176        /*E* ERROR:   TOU-E$DRBC_NO_BCD_CARDS
     1177     1177             MESSAGE: *** Attempt to read BCD CARDS failed.
     1178     1178                          Object Key: ~ENT
     1179     1179                          Deck Key:   ~DECK
     1180     1180        */
     1181     1181        /*E* ERROR:   TOU-E$DROR_NO_REFLST
     1182     1182             MESSAGE: *** Attempt to read an OBJECT REFLIST failed.
     1183     1183                          Object Key:   ~ENT
     1184     1184                          Deck Key:     ~DECK
     1185     1185        */
PL6.E3A0      #001=TOT$ERRMSGS File=TOT$ERRMSGS.:E05TSI                          WED 07/30/97 06:36 Page:37
     1186     1186        /*E* ERROR:   TOU-E$DRLD_NO_LAST_DECK#
     1187     1187             MESSAGE: *** Attempt to read the LAST DECK# failed.
     1188     1188                          Last Deck Number Key: LAST_DECK
     1189     1189        */
     1190     1190        /*E* ERROR:   TOU-E$DCAS_READ_ERROR
     1191     1191             MESSAGE: *** Attempt to check if object deck saved failed.
     1192     1192                          Object Key:   ~ENT
     1193     1193        */
     1194     1194        /*E* ERROR:   TOU-E$DCAS_MISMATCH
     1195     1195           MESSAGE: *** Object deck ~LBL on file ~FN  is duplicate deck but data mismatches.
     1196     1196                          Object Key:   ~ENT
     1197     1197        */
     1198     1198        /*E* ERROR:   TOU-E$DCFK_READ_ERROR
     1199     1199             MESSAGE: *** Attempt to check for object deck key failed.
     1200     1200                          Object Key:   ~ENT
     1201     1201        */
     1202     1202        /*E* ERROR:   TOU-E$DDCE_BAD_DEL
     1203     1203             MESSAGE: *** Attempt to delete a CATALOG ENTRY failed.
     1204     1204                          Catalog Deck Number:  ~CD
     1205     1205                          Catalog Entry Number: ~EN
     1206     1206        */
     1207     1207        /*E* ERROR:   TOU-E$DDD_BAD_DEL
     1208     1208             MESSAGE: *** Attempt to delete an OBJECT DECK failed.
     1209     1209                          Object Key:   ~ENT
     1210     1210                          Deck Key:   ~DECK
     1211     1211        */
     1212     1212        /*E* ERROR:   TOU-E$DDME_BAD_DEL
     1213     1213             MESSAGE: *** Attempt to delete a MASTER ENTRY failed.
     1214     1214                          Master Entry Number: ~EM
     1215     1215        */
     1216     1216        /*E* ERROR:   TOU-E$DDC_BAD_DEL
     1217     1217             MESSAGE: *** Attempt to delete a CATALOG failed.
     1218     1218                          Catalog Deck Number:  ~CD
     1219     1219        */
     1220     1220        /*E* ERROR:   TOU-E$DWMC_BAD_MAST_CNTRL
     1221     1221             MESSAGE: *** Attempt to write the MASTER CONTROL failed.
     1222     1222                          Master Control Key: MASTER_CATALOG
PL6.E3A0      #001=TOT$ERRMSGS File=TOT$ERRMSGS.:E05TSI                          WED 07/30/97 06:36 Page:38
     1223     1223        */
     1224     1224        /*E* ERROR:   TOU-E$DWME_BAD_MAST_ENTRY
     1225     1225             MESSAGE: *** Attempt to write a MASTER ENTRY failed.
     1226     1226                          Master Entry Number: ~EM
     1227     1227        */
     1228     1228        /*E* ERROR:   TOU-E$DWCC_BAD_CAT_CNTRL
     1229     1229             MESSAGE: *** Attempt to write a CATALOG CONTROL failed.
     1230     1230                          Catalog: ~CAT
     1231     1231        */
     1232     1232        /*E* ERROR:   TOU-E$DWS_BAD_SUBCAT
     1233     1233             MESSAGE: *** Attempt to write a SUBCATALOG failed.
     1234     1234                          Catalog: ~CAT
     1235     1235                          Catalog Deck Number:  ~CD
     1236     1236        */
     1237     1237        /*E* ERROR:   TOU-E$DWCE_BAD_CAT_ENTRY
     1238     1238             MESSAGE: *** Attempt to write a CATALOG ENTRY failed.
     1239     1239                          Catalog: ~CAT
     1240     1240                          Catalog Deck Number:  ~CD
     1241     1241                          Catalog Entry Number: ~EN
     1242     1242        */
     1243     1243        /*E* ERROR:   TOU-E$DWO_BAD_OBJECT
     1244     1244             MESSAGE: *** Attempt to write an OBJECT card failed.
     1245     1245                          Object Key: ~ENT
     1246     1246        */
     1247     1247        /*E* ERROR:   TOU-E$DWB_BAD_BINARY
     1248     1248             MESSAGE: *** Attempt to write a BINARY deck failed.
     1249     1249                          Deck Key: ~DECK
     1250     1250        */
     1251     1251        /*E* ERROR:   TOU-E$DWBC_BAD_DECK
     1252     1252             MESSAGE: *** Object deck does not end with a $DKEND Card.
     1253     1253                          Write of BCD cards failed.
     1254     1254                          Object Key: ~ENT
     1255     1255        */
     1256     1256        /*E* ERROR:   TOU-E$DWBC_BAD_BCD_CARDS
     1257     1257             MESSAGE: *** Attempt to write BCD CARDS failed.
     1258     1258                          Object Key: ~ENT
     1259     1259        */
PL6.E3A0      #001=TOT$ERRMSGS File=TOT$ERRMSGS.:E05TSI                          WED 07/30/97 06:36 Page:39
     1260     1260        /*E* ERROR:   TOU-E$DWOR_BAD_REFLST
     1261     1261             MESSAGE: *** Attempt to write an OBJECT REFLIST failed.
     1262     1262                          Deck Key:     ~DECK
     1263     1263        */
     1264     1264        /*E* ERROR:   TOU-E$DWLD_BAD_LAST_DECK#
     1265     1265             MESSAGE: *** Attempt to write the LAST DECK# failed.
     1266     1266                          Last Deck Number Key: LAST_DECK
     1267     1267        */
     1268     1268        /*E* ERROR:   TOU-E$DOT_OPEN_ERROR
     1269     1269             MESSAGE: *** Attempt to open the temporary file failed.
     1270     1270                          Temporary File FID: *DEER_TEMP
     1271     1271        */
     1272     1272        /*E* ERROR:   TOU-E$DCT_CLOSE_ERROR
     1273     1273             MESSAGE: *** Attempt to close the temporary file failed.
     1274     1274                          Temporary File FID: *DEER_TEMP
     1275     1275        */
     1276     1276        /*E* ERROR:   TOU-E$DRD_NO_LOG
     1277     1277             MESSAGE: *** This deckfile was built by a version of DEER earlier than ~RU
     1278     1278                          Deckfile conatins no history log: ~DF_FID
     1279     1279        */
     1280     1280        /*E* ERROR:   TOU-E$DWD_NO_LOG
     1281     1281             MESSAGE: *** Attempt to write deckfile history log failed.
     1282     1282        */
     1283     1283        /*E* ERROR:   TOU-E$DRR_NO_REVISION
     1284     1284             MESSAGE: *** Attempt to read IFAD revision from the deckfile failed.
     1285     1285        */
     1286     1286        /*E* ERROR:   TOU-E$DWR_NO_REVISION
     1287     1287             MESSAGE: *** Attempt to write the IFAD revision to the deckfile failed.
     1288     1288        */
     1289     1289        /*E* ERROR:   TOU-E$DGS_NO_SITE
     1290     1290             MESSAGE: *** Attempt to obtain customer site information failed.
     1291     1291        */
     1292     1292
     1293     1293        /* TOU$BREAK error messages */
     1294     1294
     1295     1295        /*E* ERROR:   TOU-E$BR_TRMPRG
     1296     1296             MESSAGE: **** Attempt to reset the break count failed.
PL6.E3A0      #001=TOT$ERRMSGS File=TOT$ERRMSGS.:E05TSI                          WED 07/30/97 06:36 Page:40
     1297     1297        */
     1298     1298        /*E* ERROR:   TOU-E$BR_FAULT
     1299     1299             MESSAGE: **** Unexpected fault occurred during DEER processing.
     1300     1300        */
     1301     1301        /*E* ERROR:   TOU-E$BR_DISABLE
     1302     1302             MESSAGE: Break is not allowed at this time or the deckfile will be ruined.
     1303     1303                      Command processing resumes...
     1304     1304        */
     1305     1305
     1306     1306        /* TOU$CHECKS error messages */
     1307     1307
     1308     1308        /*E* ERROR:   TOU-E$CS_OBJ_CHECKSUM
     1309     1309          MESSAGE: *** Object deck card ~BLS in deck ~LBL on file ~FN  has a checksum error.
     1310     1310        */
     1311     1311        /*E* ERROR:   TOU-E$CS_BAD_CHECKSUM
     1312     1312             MESSAGE: *** ChEcKsUm in deckfile did not match calculated cHeCkSuM.
     1313     1313        */
     1314     1314
     1315     1315        /* TOU$DEBLOCKER error messages */
     1316     1316
     1317     1317        /*E* ERROR:   TOU-E$DB_IFAD_RCD_SIZE
     1318     1318             MESSAGE: *** Block ~BLK    on file ~FN of ~IFAD_FID
     1319     1319                          Actual record size read was ~ARS    Not MOD-4.
     1320     1320        */
     1321     1321        /*E* ERROR:   TOU-E$DB_IFAD_BLOCK_SIZE
     1322     1322             MESSAGE: *** Block ~BLK    of file ~FN of ~IFAD_FID
     1323     1323                          Size was ~BSZ  -- does not match BCW size ~BCZ
     1324     1324        */
     1325     1325        /*E* ERROR:   TOU-E$DB_OBJ_FILE_MARK
     1326     1326             MESSAGE: *** Block ~BLK    on file ~FN of ~IFAD_FID
     1327     1327                          RCW ~RCW   at ~WD1   has illegal file mark.
     1328     1328        */
     1329     1329        /*E* ERROR:   TOU-E$DB_IFAD_MCODE
     1330     1330             MESSAGE: *** Block ~BLK    on file ~FN of ~IFAD_FID
     1331     1331                          RCW ~RCW   at ~WD1   has illegal media code.
     1332     1332        */
     1333     1333        /*E* ERROR:   TOU-E$DB_IFAD_SIZE
PL6.E3A0      #001=TOT$ERRMSGS File=TOT$ERRMSGS.:E05TSI                          WED 07/30/97 06:36 Page:41
     1334     1334             MESSAGE: *** Block ~BLK    on file ~FN of ~IFAD_FID
     1335     1335                          RCW ~RCW   at ~WD1   has illegal size.
     1336     1336        */
     1337     1337        /*E* ERROR:   TOU-E$DB_IFAD_LBLOCK
     1338     1338             MESSAGE: *** Block ~BLK    on file ~FN of ~IFAD_FID
     1339     1339                          RCW ~RCW   at ~WD1   extends past end of block.
     1340     1340        */
     1341     1341        /*E* ERROR:   TOU-E$DB_BSN_ERROR
     1342     1342             MESSAGE: *** Expect $DKEND in deck ~LBL on file ~FN
     1343     1343                          Irrecoverable BSN Error.
     1344     1344        */
     1345     1345        /*E* ERROR:   TOU-E$DB_BSN_EOF
     1346     1346             MESSAGE: *** Block ~BLK    on file ~FN of ~IFAD_FID
     1347     1347                          Unexpected EOF on Block Serial Number recovery.
     1348     1348        */
     1349     1349        /*E* ERROR:   TOU-E$DB_IFAD_READ
     1350     1350             MESSAGE: *** Attempt to obtain IFAD input failed.
     1351     1351        */
     1352     1352        /*E* ERROR:   TOU-E$DB_IFAD_POSITION
     1353     1353             MESSAGE: *** Attempt to reposition IFAD for re-read failed.
     1354     1354        */
     1355     1355        /*E* ERROR:   TOU-E$DB_MCA_READ
     1356     1356             MESSAGE: *** Attempt to obtain data from a diskette mounted on
     1357     1357                          drive ~J of IMX number ~IMX failed.
     1358     1358                      ~IMBLK
     1359     1359        */
     1360     1360
     1361     1361        /* TOU$GET_CARD error messages */
     1362     1362
     1363     1363        /*E* ERROR:   TOU-E$GGBC_NO_BINS
     1364     1364             MESSAGE: *** No binary cards for object deck ~LBL on file ~FN
     1365     1365                      ~OBJ
     1366     1366        */
     1367     1367        /*E* ERROR:   TOU-E$GGBC_NO_DKEND
     1368     1368             MESSAGE: *** No $DKEND card for object deck ~LBL on file ~FN
     1369     1369                      ~OBJ
     1370     1370        */
PL6.E3A0      #001=TOT$ERRMSGS File=TOT$ERRMSGS.:E05TSI                          WED 07/30/97 06:36 Page:42
     1371     1371        /*E* ERROR:   TOU-E$GGPC_BAD_INPUT
     1372     1372             MESSAGE: *** Invalid patch input from IFAD file identifier: ~IFAD_FID
     1373     1373                          Input could not be resolved to a legal patch card.
     1374     1374        */
     1375     1375        /*E* ERROR:   TOU-E$GOC_OBJ_ASSEMBLER
     1376     1376        MESSAGE: *** Invalid assembler type in $OBJECT card for object deck ~LBL on file ~FN
     1377     1377                      ~OBJ
     1378     1378        */
     1379     1379        /*E* ERROR:   TOU-E$GOC_OBJ_SEQ
     1380     1380         MESSAGE: *** Invalid object sequence field on $OBJECT card for object deck ~LBL on
              1380        file ~FN
     1381     1381                      ~OBJ
     1382     1382        */
     1383     1383        /*E* ERROR:   TOU-E$GOC_OBJ_CONTROL
     1384     1384             MESSAGE: *** Invalid control field for object deck ~LBL on file ~FN
     1385     1385                          Record should contain a '$' for $OBJECT.
     1386     1386                      ~OBJ
     1387     1387        */
     1388     1388        /*E* ERROR:   TOU-E$GCBC_BIN_LBL_SEQ
     1389     1389             MESSAGE: *** Binary card for deck ~LBL on file ~FN
     1390     1390                          has a non-convertible label-sequence field.
     1391     1391        */
     1392     1392        /*E* ERROR:   TOU-E$GCBC_BIN_SEQ
     1393     1393             MESSAGE: *** Binary card for deck ~LBL on file ~FN
     1394     1394                          has a non-numeric sequence field.
     1395     1395        */
     1396     1396        /*E* ERROR:   TOU-E$GBC_BIN_TYPE
     1397     1397             MESSAGE: *** Object deck card ~BLS for deck ~LBL on file ~FN
     1398     1398                          has an invalid binary type.
     1399     1399        */
     1400     1400        /*E* ERROR:   TOU-E$GBC_BIN_SEQ
     1401     1401             MESSAGE: *** Object deck card ~BLS (binary card) for deck ~LBL on file ~FN
     1402     1402                          is out of sequence.
     1403     1403        */
     1404     1404        /*E* ERROR:   TOU-E$GBC_BIN_LBL
     1405     1405             MESSAGE: *** Object deck card ~BLS (binary card) for deck ~LBL on file ~FN
     1406     1406                          has a label that does not match the object deck label.
PL6.E3A0      #001=TOT$ERRMSGS File=TOT$ERRMSGS.:E05TSI                          WED 07/30/97 06:36 Page:43
     1407     1407        */
     1408     1408        /*E* ERROR:   TOU-E$GBC_TOO_MANY_BCARDS
     1409     1409             MESSAGE: *** Too many binary cards for object deck ~LBL on file ~FN
     1410     1410                      ~OBJ
     1411     1411        */
     1412     1412        /*E* ERROR:   TOU-E$GPC_BIN_NO_PRIM
     1413     1413             MESSAGE: *** Object deck card ~BLS for deck ~LBL on file ~FN
     1414     1414                          is a binary card that has no primary entry.
     1415     1415        */
     1416     1416        /*E* ERROR:   TOU-E$GPC_NO_DKEND
     1417     1417             MESSAGE: *** No $DKEND card for object deck ~LBL on file ~FN
     1418     1418                          A new $OBJECT card was encountered after the binary records.
     1419     1419        */
     1420     1420        /*E* ERROR:   TOU-E$GPC_BCD_TYPE
     1421     1421             MESSAGE: *** Object deck card ~BLS (patch card) for deck ~LBL on file ~FN
     1422     1422                          has an invalid BCD type.
     1423     1423        */
     1424     1424        /*E* ERROR:   TOU-E$GPC_TOO_MANY_PCARDS
     1425     1425             MESSAGE: *** Too many patch cards for object deck ~LBL on file ~FN
     1426     1426        */
     1427     1427        /*E* ERROR:   TOU-E$GOC_PTCH_BAD_OCTAL
     1428     1428          MESSAGE: *** Object deck card ~BLS (patch card) for deck ~LBL on file ~FN contains
     1429     1429                    illegal OCTAL character(s). Blanks are illegal when digits are required.
     1430     1430                      ~PATCH
     1431     1431        */
     1432     1432        /*E* ERROR:   TOU-E$GOC_PTCH_BAD_DATE
     1433     1433             MESSAGE: *** Object deck card ~BLS (patch card) for deck ~LBL on file ~FN has a
     1434     1434                          title date that does not match the title date of the object deck.
     1435     1435                          Object Deck Title Date: ~DATE
     1436     1436                      ~PATCH
     1437     1437        */
     1438     1438        /*E* ERROR:   TOU-E$GOC_PTCH_BAD_REV
     1439     1439             MESSAGE: *** Object deck card ~BLS (patch card) for deck ~LBL on file ~FN has a
     1440     1440                          revision that does not match the revision of the object deck.
     1441     1441                          Object Deck Revision Level: ~REVIS
     1442     1442                      ~PATCH
     1443     1443        */
PL6.E3A0      #001=TOT$ERRMSGS File=TOT$ERRMSGS.:E05TSI                          WED 07/30/97 06:36 Page:44
     1444     1444        /*E* ERROR:   TOU-E$GOC_PTCH_BAD_LBL
     1445     1445             MESSAGE: *** Object deck card ~BLS (patch card) for deck ~LBL on file ~FN
     1446     1446                          has a label that does not match the edit name of the object deck.
     1447     1447                      ~PATCH
     1448     1448        */
     1449     1449        /*E* ERROR:   TOU-E$GVV_PTCH_NULL_VAL
     1450     1450             MESSAGE: *** Object deck card ~BLS (patch card) for deck ~LBL on file ~FN
     1451     1451                          has a null patch value. (two comma's in a row)
     1452     1452                      ~PATCH
     1453     1453        */
     1454     1454        /*E* ERROR:   TOU-E$GVV_PTCH_G12
     1455     1455             MESSAGE: *** Object deck card ~BLS (patch card) for deck ~LBL on file ~FN
     1456     1456                          has a patch value field longer than twelve characters.
     1457     1457                      ~PATCH
     1458     1458        */
     1459     1459        /*E* ERROR:   TOU-E$GHC_HEX_INVALID
     1460     1460             MESSAGE: *** Object deck card ~BLS (patch card) for deck ~LBL on file ~FN is a
     1461     1461                     HEX patch card which is illegal for object decks with assembler type ~A
     1462     1462                      ~PATCH
     1463     1463        */
     1464     1464        /*E* ERROR:   TOU-E$GHC_PTCH_TWO_ON_ODD
     1465     1465           MESSAGE: *** Object deck card ~BLS (patch card) for deck ~LBL on file ~FN has two
     1466     1466                          HEX patch values for an odd location.
     1467     1467                      ~PATCH
     1468     1468        */
     1469     1469        /*E* ERROR:   TOU-E$GHC_PTCH_HEX_TYPE
     1470     1470             MESSAGE: *** Object deck card ~BLS (patch card) for deck ~LBL on file ~FN
     1471     1471                          should contain a 'C' or 'R' for type of HEX patch.
     1472     1472                      ~PATCH
     1473     1473        */
     1474     1474        /*E* ERROR:   TOU-E$GHC_PTCH_HEX_REVERSE
     1475     1475             MESSAGE: *** Object deck card ~BLS (patch card) for deck ~LBL on file ~FN
     1476     1476                          should contain a blank or an 'R' in column 32.
     1477     1477                      ~PATCH
     1478     1478        */
     1479     1479        /*E* ERROR:   TOU-E$GVV_PTCH_BAD_HEX
     1480     1480          MESSAGE: *** Object deck card ~BLS (patch card) for deck ~LBL on file ~FN contains
PL6.E3A0      #001=TOT$ERRMSGS File=TOT$ERRMSGS.:E05TSI                          WED 07/30/97 06:36 Page:45
     1481     1481                      illegal HEX character(s). Blanks are illegal when digits are required.
     1482     1482                      ~PATCH
     1483     1483        */
     1484     1484        /*E* ERROR:   TOU-E$GDC_DKE_NON_NUMERIC
     1485     1485         MESSAGE: *** $DKEND card for object deck ~LBL on file ~FN has a non-numeric sequenc
              1485        e field.
     1486     1486        */
     1487     1487        /*E* ERROR:   TOU-E$GDC_DKE_SEQ
     1488     1488             MESSAGE: *** $DKEND card for object deck ~LBL on file ~FN is out of sequence.
     1489     1489        */
     1490     1490        /*E* ERROR:   TOU-E$GDC_DKE_LBL
     1491     1491             MESSAGE: *** $DKEND card for object deck ~LBL on file ~FN has a label
     1492     1492                          that does not match the label of the object deck.
     1493     1493        */
     1494     1494        /*E* ERROR:   TOU-E$GDC_DKE_CONTROL
     1495     1495         MESSAGE: *** $DKEND card for object deck ~LBL of file ~FN has an invalid control fi
              1495        eld.
     1496     1496                          Record should contain a '$' for $DKEND.
     1497     1497        */
     1498     1498
     1499     1499        /* TOU$BUILD error messages */
     1500     1500
     1501     1501        /*E* ERROR:   TOU-E$BPI_NO_DF
     1502     1502             MESSAGE: **** Error encountered while building ~DF_FID
     1503     1503        */
     1504     1504        /*E* ERROR:   TOU-E$BSCK_OBJ_LIB
     1505     1505             MESSAGE: *** Object deck card ~BLS in deck ~LBL on file ~FN
     1506     1506                          has illegal library ~LIB
     1507     1507                      ~OBJ
     1508     1508        */
     1509     1509        /*E* ERROR:   TOU-E$BSCK_OBJ_LOADER
     1510     1510             MESSAGE: *** Object deck card ~BLS in deck ~LBL on file ~FN
     1511     1511                          has illegal loader type ~TYP
     1512     1512                      ~OBJ
     1513     1513        */
     1514     1514        /*E* ERROR:   TOU-E$BSFC_OBJ_CLASS
     1515     1515             MESSAGE: *** Object deck card ~BLS in deck ~LBL on file ~FN
PL6.E3A0      #001=TOT$ERRMSGS File=TOT$ERRMSGS.:E05TSI                          WED 07/30/97 06:36 Page:46
     1516     1516                          has illegal class ~CLS
     1517     1517                      ~OBJ
     1518     1518        */
     1519     1519        /*E* ERROR:   TOU-E$BSC_ITR_NO_FIRM
     1520     1520             MESSAGE: *** No firmware found following ITR's on file ~FN of ~IFAD_FID
     1521     1521        */
     1522     1522        /*E* ERROR:   TOU-E$BSMC_NO_ENTRIES
     1523     1523             MESSAGE: ** No input records which apply to CP-6 were found in ~IFAD_FID
     1524     1524        */
     1525     1525        /*E* ERROR:   TOU-E$BCCF_WRONG_FILE
     1526     1526             MESSAGE: **** Error on IFAD input file: ~IFAD_FID
     1527     1527                           Object deck ~LBL on file ~FN is on the wrong file.
     1528     1528                           Catalog: ~CAT
     1529     1529                           Object: ~ENT
     1530     1530                      ~OBJ
     1531     1531        */
     1532     1532
     1533     1533        /* TOU$LIST error messages */
     1534     1534
     1535     1535        /*E* ERROR:   TOU-E$LLM_NO_MATCHES
     1536     1536             MESSAGE: No catalog entry keys contained the string: ~CAT
     1537     1537        */
     1538     1538
     1539     1539        /* TOU$SHOWFILE error messages */
     1540     1540
     1541     1541        /*E* ERROR:   TOU-E$SSM_NO_MATCHES
     1542     1542             MESSAGE: No deckfile history records matched ~ENT
     1543     1543        */
     1544     1544
     1545     1545        /* TOU$NEWCAT error messages */
     1546     1546
     1547     1547        /*E* ERROR:   TOU-E$NCFC_ALREADY_IN
     1548     1548             MESSAGE: ** ~CAT                   already exists in ~DF_FID
     1549     1549        */
     1550     1550        /*E* ERROR:   TOU-E$NVA_MAY_ADD
     1551     1551         MESSAGE: Another by the same name may be added without affecting the original catal
              1551        og.
PL6.E3A0      #001=TOT$ERRMSGS File=TOT$ERRMSGS.:E05TSI                          WED 07/30/97 06:36 Page:47
     1552     1552        */
     1553     1553        /*E* ERROR:   TOU-E$NVA_INVALID_REPLY
     1554     1554             MESSAGE: * Legal responses are 'Y/ES' and 'N/O'.
     1555     1555        */
     1556     1556        /*E* ERROR:   TOU-E$NPI_NO_ENTRIES
     1557     1557             MESSAGE: ** No input records for catalog ~CAT
     1558     1558                         were found in ~IFAD_FID
     1559     1559        */
     1560     1560        /*E* ERROR:   TOU-E$NPT_BAD_DECKFILE
     1561     1561         MESSAGE: **** Irrecoverable  error  during  processing  from  the DEER temporary fi
              1561        le
     1562     1562                     into the deckfile. The deckfile now contains erroneous data and will be
     1563     1563                           deleted. (Sorry about that chief.)
     1564     1564                           Please rebuild the deckfile from the current IFAD base tape.
     1565     1565        */
     1566     1566
     1567     1567        /* TOU$NEWDECK error messages */
     1568     1568
     1569     1569        /*E* ERROR:   TOU-E$NFC_NO_CAT_IN_DF
     1570     1570             MESSAGE: * No catalog in the deckfile for ~CAT
     1571     1571        */
     1572     1572        /*E* ERROR:   TOU-E$NCFD_IN_CATALOG
     1573     1573             MESSAGE: * ~ENT                    already exists in ~CAT
     1574     1574                        Use the Replace Deck command to replace the deck.
     1575     1575        */
     1576     1576        /*E* ERROR:   TOU-E$NPI_NO_OBJECT
     1577     1577             MESSAGE: ** No input records for object deck ~ENT
     1578     1578                         were found in ~IFAD_FID
     1579     1579        */
     1580     1580        /*E* ERROR:   TOU-E$NGCC_BAD_CHOICE
     1581     1581             MESSAGE: ** Invalid Master Entry number. Please try again.
     1582     1582        */
     1583     1583
     1584     1584        /* TOU$REPDECK error messages */
     1585     1585
     1586     1586        /*E* ERROR:   TOU-E$RCK_NO_MATCH
     1587     1587             MESSAGE: ** Deck to replace:  ~ENT
PL6.E3A0      #001=TOT$ERRMSGS File=TOT$ERRMSGS.:E05TSI                          WED 07/30/97 06:36 Page:48
     1588     1588                         Replacement deck: ~IMAGE
     1589     1589                      An object deck may ONLY be replaced by a deck that is the same  or a
     1590     1590                      different version (different revision level) of the  original object
     1591     1591                      deck. The keys for decks without revision levels must match exactly.
     1592     1592                      Examples: ITR.COMMON.BTLT.B1 may replace ITR.COMMON.BTLT.A1
     1593     1593                               but CLT.COLTCM is the only deck that may replace CLT.COLTCM
     1594     1594        */
     1595     1595
     1596     1596        /* TOU$REMREF error messages */
     1597     1597
     1598     1598        /*E* ERROR:   TOU-E$RFD_NO_OBJ_IN_CAT
     1599     1599             MESSAGE: ** No catalog reference to ~ENT                    in ~CAT
     1600     1600        */
     1601     1601        /*E* ERROR:   TOU-E$RFR_IN_CAT_BUT_NOT_REFL
     1602     1602             MESSAGE: **** ~CAT                   references ~ENT
     1603     1603                           but the catalog was not in the reference list.
     1604     1604                           Please recall sequence of DEER commands used to produce
     1605     1605                           this error and report this using STARLOG.
     1606     1606        */
     1607     1607        /*E* ERROR:   TOU-E$RAR_IN_CAT_BUT_NOT_REFL
     1608     1608             MESSAGE: **** Error in catalog ~CAT                   Entry Number ~CE
     1609     1609                        The catalog entry was not in the reference list for the object deck.
     1610     1610                           Please recall sequence of DEER commands used to produce
     1611     1611                           this error and report this using STARLOG.
     1612     1612        */
     1613     1613        /*E* ERROR:   TOU-E$RGR_ONLY_ONE_REF
     1614     1614          MESSAGE: ** Object deck ~ENT                    is only referenced by one catalog.
     1615     1615                    Use the Delete Deck command to remove the object deck from the deckfile.
     1616     1616        */
     1617     1617
     1618     1618        /* TOU$DELDECK error messages */
     1619     1619
     1620     1620        /*E* ERROR:   TOU-E$DFD_NO_OBJ_IN_DF
     1621     1621             MESSAGE: * No object deck in the deckfile for ~ENT
     1622     1622        */
     1623     1623
     1624     1624        /* TOU$DELPATCH error messages */
PL6.E3A0      #001=TOT$ERRMSGS File=TOT$ERRMSGS.:E05TSI                          WED 07/30/97 06:36 Page:49
     1625     1625
     1626     1626        /*E* ERROR:   TOU-E$DCPE_NO_PATCHES
     1627     1627             MESSAGE: * No patches for object deck ~ENT
     1628     1628        */
     1629     1629
     1630     1630        /* TOU$PATCH error messages */
     1631     1631
     1632     1632        /*E* ERROR:   TOU-E$PCNA_NONE_INPUT
     1633     1633             MESSAGE: * No patches found in ~IFAD_FID
     1634     1634        */
     1635     1635        /*E* ERROR:   TOU-E$PCNA_SAME_ADDRESS
     1636     1636        MESSAGE: Patch input file contains patches that modify the same object deck address.
     1637     1637        */
     1638     1638        /*E* ERROR:   TOU-E$PCPA_SAME_ADDRESS
     1639     1639         MESSAGE: Patch input file contains patches that modify previously patched object de
              1639        ck
     1640     1640                locations.    Use the  OVERWRITE  option to replace the existing object deck
     1641     1641                      patches with the input file patches for matching addresses.
     1642     1642        */
     1643     1643        /*E* ERROR:   TOU-E$PSCD_BAD_DF
     1644     1644             MESSAGE: **** Error encountered while saving patch cards in the deckfile.  The
     1645     1645                           deckfile now contains erroneous data and will be deleted. (Sorry
     1646     1646                           about that chief.)   Please rebuild the deckfile from the latest
     1647     1647                           IFAD base tape.
     1648     1648        */
     1649     1649
     1650     1650        /* TOU$UPDATE error messages */
     1651     1651
     1652     1652        /* messages for UPDATE ??? */
     1653     1653
     1654     1654        /* TOU$MERGE messages */
     1655     1655
     1656     1656        /*E* ERROR:   TOU-E$MRC_STORY
     1657     1657             MESSAGE: Please mount an MCA UTILITY diskette in IMX ~IMX,
     1658     1658                      drive number ~J and AFTER doing so respond:
     1659     1659                      - Y/ES to indicate the diskette has been mounted.
     1660     1660                      - N/O to terminate the DEER MERGE session.
PL6.E3A0      #001=TOT$ERRMSGS File=TOT$ERRMSGS.:E05TSI                          WED 07/30/97 06:36 Page:50
     1661     1661        */
     1662     1662        /*E* ERROR:   TOU-E$MPSD_SAME
     1663     1663             MESSAGE: An error has been encountered while attempting to
     1664     1664                      read data from IMX ~IMX using drive ~J
     1665     1665                      If the problem can be corrected, please do so and
     1666     1666                      respond yes AFTER the drive has been readied.
     1667     1667                      - YES indicates that a retry should be done on
     1668     1668                        drive ~J
     1669     1669                      - NO  indicates that no retry on the same drive should
     1670     1670                        be attempted
     1671     1671        */
     1672     1672        /*E* ERROR:   TOU-E$MPND_NEXT
     1673     1673             MESSAGE: An error has been encountered while attempting to read
     1674     1674                      data from IMX ~IMX using drive ~J
     1675     1675                      If an alternate drive on the same IMX is to be used,
     1676     1676                      please place the disk in the alternate drive and respond
     1677     1677                      yes AFTER doing so.
     1678     1678                      - YES indicates that the alternate drive should be tried
     1679     1679                      - NO  indicates that the alternate drive should not be
     1680     1680                        tried
     1681     1681        */
     1682     1682        /*E* ERROR:   TOU-E$MCTD_BAD_DISK_TYPE
     1683     1683             MESSAGE: *** The current diskette mounted is not a TND diskette.
     1684     1684                          It should not be copied into the deckfile.
     1685     1685                          The disk type encountered was ~J
     1686     1686                          instead of 3 for the UTIL type.
     1687     1687                          The wrong diskette has been mounted or there is a
     1688     1688                          problem with this particular diskette.
     1689     1689        */
     1690     1690        /*E* ERROR:   TOU-E$MCTD_BAD_DISK_TITLE
     1691     1691             MESSAGE: *** The current diskette mounted is not a TND diskette that should
     1692     1692                          be copied into the deckfile.   The TITLE should be of the form
     1693     1693                          UTILiiii, but was ~XTI    .
     1694     1694        */
     1695     1695        /*E* ERROR:   TOU-E$MCLD_NOT_FIRST
     1696     1696             MESSAGE: *** The diskette mounted in IMX number ~IMX, drive ~J
     1697     1697                          is not the first diskette of the diskette set.
PL6.E3A0      #001=TOT$ERRMSGS File=TOT$ERRMSGS.:E05TSI                          WED 07/30/97 06:36 Page:51
     1698     1698
     1699     1699                          Expected diskette number: 1
     1700     1700
     1701     1701                                Encountered number: ~XXX
     1702     1702                                             Title: ~XTU
     1703     1703                                         Unique Id: ~XUI
     1704     1704                                      Config. Name: ~XCN
     1705     1705
     1706     1706                          Please insert the proper diskette and re-invoke the
     1707     1707                          DEER MERGE command.
     1708     1708        */
     1709     1709        /*E* ERROR:   TOU-E$MCPS_WRONG_DISK
     1710     1710             MESSAGE: *** DIPPER diskettes which are part of a product set must
     1711     1711                          be mounted in the proper order.
     1712     1712                          Expected number: ~CUR     Encountered number: ~XXX
     1713     1713        */
     1714     1714        /*E* ERROR:   TOU-E$MCPS_WRONG_DWGNUM
     1715     1715             MESSAGE: *** The current diskette mounted is not a part of the product set.
     1716     1716                          Current product set drawing number: ~IMAGE
     1717     1717                          Drawing number on this diskette:    ~XDN
     1718     1718        */
     1719     1719        /*E* ERROR:   TOU-E$MCPS_WRONG_EQUIP
     1720     1720             MESSAGE: *** The current diskette mounted is not a part of the product set.
     1721     1721                          Current product set equipment type: ~IMAGE
     1722     1722                          Equipment type on this diskette:    ~XET
     1723     1723        */
     1724     1724        /*E* ERROR:   TOU-E$MCPS_WRONG_NUMTAB
     1725     1725             MESSAGE: *** The current diskette mounted is not a part of the product set.
     1726     1726                          Current product set number tab:      ~IMAGE
     1727     1727                          Product number tab on this diskette: ~XPT
     1728     1728        */
     1729     1729        /*E* ERROR:   TOU-E$MSH_ALREADY_IN
     1730     1730             MESSAGE: *** The data from the current diskette mounted has already
     1731     1731                          been saved in ~DF_FID
     1732     1732                             Diskette Title: ~XTI
     1733     1733                             Diskette Unique Id: ~XUI
     1734     1734                             Diskette Equipment Type: ~XET
PL6.E3A0      #001=TOT$ERRMSGS File=TOT$ERRMSGS.:E05TSI                          WED 07/30/97 06:36 Page:52
     1735     1735                             Diskette IPI Number: ~XIN
     1736     1736                             Diskette Drawing Number: ~XDN
     1737     1737                             Diskette Product Number Tab: ~XPT
     1738     1738                          The diskette has already been used on a previous DEER MERGE
     1739     1739                          command or has erroneous information in its header.
     1740     1740        */
     1741     1741        /*E* ERROR:   TOU-E$MPMI_RETRY
     1742     1742             MESSAGE: If an abort is NOT necessary, please mount the correct
     1743     1743                      diskette, and AFTER doing so, respond NO to abort.
     1744     1744                      - YES aborts the DEER MERGE command
     1745     1745                      - NO  initiates a retry
     1746     1746        */
     1747     1747        /*E* ERROR:   TOU-E$MPMI_ABORTQ
     1748     1748             MESSAGE: ** Should we abort??
     1749     1749        */
     1750     1750        /*E* ERROR:   TOU-E$MPMI_DISKETTE_ERR
     1751     1751             MESSAGE: *** An unrecoverable diskette error has been encountered.
     1752     1752                          Contact the system operator for more information.
     1753     1753        */
     1754     1754        /*E* ERROR:   TOU-E$MGH_LOADQ
     1755     1755             MESSAGE: Has the diskette been loaded?
     1756     1756        */
     1757     1757        /*E* ERROR:   TOU-E$MPSD_SAMEQ
     1758     1758             MESSAGE: Retry on SAME drive?
     1759     1759        */
     1760     1760        /*E* ERROR:   TOU-E$MPND_NEXTQ
     1761     1761             MESSAGE: Retry on NEXT drive?
     1762     1762        */
     1763     1763        /*E* ERROR:    TOU-E$RD_CONFIG
     1764     1764             MESSAGE:  Unable to read MCA configuration--must restart
     1765     1765        */
     1766     1766
     1767     1767        /* Line Printer Headings */
     1768     1768
     1769     1769        /*E* ERROR:   TOU-H$DEER
     1770     1770         MESSAGE: *** CP-6 Test and Diagnostic DEckfile Editor Routine            DEER Listi
              1770        ng                Page - ~PAGE  ***
PL6.E3A0      #001=TOT$ERRMSGS File=TOT$ERRMSGS.:E05TSI                          WED 07/30/97 06:36 Page:53
     1771     1771         *** DEER Processor ~RU                                                Date - ~LDATE
              1771            Time - ~LTIME      ***
     1772     1772         ***
              1772                               ***
     1773     1773         ***                                *******   ********* ********* *******
              1773                               ***
     1774     1774         ***                                ********  ********* ********* ********
              1774                               ***
     1775     1775         ***                                **     ** **        **        **     **
              1775                               ***
     1776     1776         ***                                **     ** **        **        **     **
              1776                               ***
     1777     1777         ***                                **     ** *****     *****     ********
              1777                               ***
     1778     1778         ***                                **     ** **        **        *******
              1778                               ***
     1779     1779         ***                                **     ** **        **        **    **
              1779                               ***
     1780     1780         ***                                ********  ********* ********* **     **
              1780                               ***
     1781     1781         ***                                *******   ********* ********* **      **
              1781                               ***
     1782     1782        */
     1783     1783
     1784     1784        /*E* ERROR:   TOU-H$BUILD
     1785     1785         MESSAGE: *** Build Command                        CP-6  Deckfile Editor  ~RU
              1785                          Page - ~PAGE  ***
     1786     1786         *** DEER Processor                                                    Date - ~LDATE
              1786            Time - ~LTIME      ***
     1787     1787        */
     1788     1788
     1789     1789        /*E* ERROR:   TOU-H$BUILD_ITR
     1790     1790         MESSAGE: *** Build Command                        CP-6  Deckfile Editor  ~RU
              1790                          Page - ~PAGE  ***
     1791     1791         *** IFAD: ~IFAD_FID                                    Deckfile: ~DF_FID
              1791                               ***
     1792     1792         *** Library - ~LIB                    IFAD File Number - ~FN          Date - ~LDATE
PL6.E3A0      #001=TOT$ERRMSGS File=TOT$ERRMSGS.:E05TSI                          WED 07/30/97 06:36 Page:54
              1792            Time - ~LTIME      ***
     1793     1793         ***
              1793                               ***
     1794     1794         *      Edit  Deck   Title     Ident.               Record  Search  Key         Deck
              1794            Entry    Load Size
     1795     1795         *      Name  Type   Date      Code    Model   Rev.                             Numb
              1795        er  Number   in  words
     1796     1796        */
     1797     1797
     1798     1798        /*E* ERROR:   TOU-H$BUILD_MDR
     1799     1799         MESSAGE: *** Build Command                        CP-6  Deckfile Editor  ~RU
              1799                          Page - ~PAGE  ***
     1800     1800         *** IFAD: ~IFAD_FID                                    Deckfile: ~DF_FID
              1800                               ***
     1801     1801         *** Library - ~LIB                    IFAD File Number - ~FN          Date - ~LDATE
              1801            Time - ~LTIME      ***
     1802     1802         ***
              1802                               ***
     1803     1803         Call   Edit  Deck   Title     Ident.               Record  Search  Key         Deck
              1803            Entry    Load Size
     1804     1804         Name   Name  Type   Date      Code    Model   Rev.                             Numb
              1804        er  Number   in  words
     1805     1805        */
     1806     1806
     1807     1807        /*E* ERROR:   TOU-H$BUILD_PROG
     1808     1808         MESSAGE: *** Build Command                        CP-6  Deckfile Editor  ~RU
              1808                          Page - ~PAGE  ***
     1809     1809         *** IFAD: ~IFAD_FID                                    Deckfile: ~DF_FID
              1809                               ***
     1810     1810         *** Library - ~LIB                    IFAD File Number - ~FN          Date - ~LDATE
              1810            Time - ~LTIME      ***
     1811     1811         ***
              1811                               ***
     1812     1812         Call   Edit  Deck   Title     Subsystem   Assembly Record  Search  Key         Deck
              1812            Entry    Load Size
     1813     1813         Name   Name  Type   Date      Type        Date                                 Numb
              1813        er  Number   in  words
PL6.E3A0      #001=TOT$ERRMSGS File=TOT$ERRMSGS.:E05TSI                          WED 07/30/97 06:36 Page:55
     1814     1814        */
     1815     1815
     1816     1816        /*E* ERROR:   TOU-H$BUILD_MC
     1817     1817         MESSAGE: *** Build Command                        CP-6  Deckfile Editor  ~RU
              1817                          Page - ~PAGE  ***
     1818     1818         *** IFAD: ~IFAD_FID                                    Deckfile: ~DF_FID
              1818                               ***
     1819     1819         *** Deckfile Master Catalog                                           Date - ~LDATE
              1819            Time - ~LTIME      ***
     1820     1820         *** ~WSN
              1820                        ~WSI   ***
     1821     1821         ***
              1821                               ***
     1822     1822         ***                                                Record  Search  Key         Deck
              1822                               ***
     1823     1823         ***                                                                            Numb
              1823        er                     ***
     1824     1824        */
     1825     1825        /*E* ERROR:   TOU-H$BUILD_NIO
     1826     1826         MESSAGE: *** Build Command                        CP-6  Deckfile Editor  ~RU
              1826                          Page - ~PAGE  ***
     1827     1827         *** Copy: ~DF_FID                                      Deckfile: ~DF_FID
              1827                               ***
     1828     1828         *** Library - ~LIB                    IFAD File - ~F2                 Date - ~LDATE
              1828            Time - ~LTIME      ***
     1829     1829         ***
              1829                               ***
     1830     1830         *      Edit  Deck   Title     Ident.  Equip.       Record  Search  Key         Deck
              1830            Entry    Load Size
     1831     1831         *      Name  Type   Date      Code    Type    Rev.                             Numb
              1831        er  Number   in  words
     1832     1832        */
     1833     1833
     1834     1834        /*E* ERROR:   TOU-H$LIST
     1835     1835         MESSAGE: *** List Command                         CP-6  Deckfile Editor  ~RU
              1835                          Page - ~PAGE  ***
     1836     1836         *** DEER Processor                                                    Date - ~LDATE
PL6.E3A0      #001=TOT$ERRMSGS File=TOT$ERRMSGS.:E05TSI                          WED 07/30/97 06:36 Page:56
              1836            Time - ~LTIME      ***
     1837     1837        */
     1838     1838
     1839     1839        /*E* ERROR:   TOU-H$LIST_ITR
     1840     1840         MESSAGE: *** List Command                         CP-6  Deckfile Editor  ~RU
              1840                          Page - ~PAGE  ***
     1841     1841         *** IFAD: ~SI                                          Deckfile: ~DF_FID
              1841                               ***
     1842     1842         *** Library - ~LIB    IFAD Release: ~WIR    IFAD File - ~F2           Date - ~LDATE
              1842            Time - ~LTIME      ***
     1843     1843         ***
              1843                               ***
     1844     1844         *      Edit  Deck   Title     Ident.               Record  Search  Key         Deck
              1844            Entry    Load Size
     1845     1845         *      Name  Type   Date      Code    Model   Rev.                             Numb
              1845        er  Number   in  words
     1846     1846        */
     1847     1847
     1848     1848        /*E* ERROR:   TOU-H$LIST_MDR
     1849     1849         MESSAGE: *** List Command                         CP-6  Deckfile Editor  ~RU
              1849                          Page - ~PAGE  ***
     1850     1850         *** IFAD: ~SI                                          Deckfile: ~DF_FID
              1850                               ***
     1851     1851         *** Library - ~LIB    IFAD Release: ~WIR    IFAD File - ~F2           Date - ~LDATE
              1851            Time - ~LTIME      ***
     1852     1852         ***
              1852                               ***
     1853     1853         Call   Edit  Deck   Title     Ident.               Record  Search  Key         Deck
              1853            Entry    Load Size
     1854     1854         Name   Name  Type   Date      Code    Model   Rev.                             Numb
              1854        er  Number   in  words
     1855     1855        */
     1856     1856
     1857     1857        /*E* ERROR:   TOU-H$LIST_PROG
     1858     1858         MESSAGE: *** List Command                         CP-6  Deckfile Editor  ~RU
              1858                          Page - ~PAGE  ***
     1859     1859         *** IFAD: ~SI                                          Deckfile: ~DF_FID
PL6.E3A0      #001=TOT$ERRMSGS File=TOT$ERRMSGS.:E05TSI                          WED 07/30/97 06:36 Page:57
              1859                               ***
     1860     1860         *** Library - ~LIB    IFAD Release: ~WIR    IFAD File - ~F2           Date - ~LDATE
              1860            Time - ~LTIME      ***
     1861     1861         ***
              1861                               ***
     1862     1862         Call   Edit  Deck   Title     Subsystem   Assembly Record  Search  Key         Deck
              1862            Entry    Load Size
     1863     1863         Name   Name  Type   Date      Type        Date                                 Numb
              1863        er  Number   in  words
     1864     1864        */
     1865     1865
     1866     1866        /*E* ERROR:   TOU-H$LIST_MC
     1867     1867         MESSAGE: *** List Command                         CP-6  Deckfile Editor  ~RU
              1867                          Page - ~PAGE  ***
     1868     1868         *** IFAD Release: ~WIR                                 Deckfile: ~DF_FID
              1868                               ***
     1869     1869         *** Deckfile Master Catalog                                           Date - ~LDATE
              1869            Time - ~LTIME      ***
     1870     1870         *** ~WSN
              1870                        ~WSI   ***
     1871     1871         ***
              1871                               ***
     1872     1872         ***                                                Record  Search  Key         Deck
              1872                               ***
     1873     1873         ***                                                                            Numb
              1873        er                     ***
     1874     1874        */
     1875     1875
     1876     1876        /*E* ERROR:   TOU-H$LIST_LOG
     1877     1877         MESSAGE: *** List Command                         CP-6  Deckfile Editor  ~RU
              1877                          Page - ~PAGE  ***
     1878     1878         *** Deckfile History Log (commands which altered the deckfile)        Date - ~LDATE
              1878            Time - ~LTIME      ***
     1879     1879         ***                                                    Deckfile: ~DF_FID
              1879                               ***
     1880     1880                      Date      Time         Modification performed
     1881     1881                      --------  -----------  ----------------------
PL6.E3A0      #001=TOT$ERRMSGS File=TOT$ERRMSGS.:E05TSI                          WED 07/30/97 06:36 Page:58
     1882     1882        */
     1883     1883
     1884     1884        /*E* ERROR:   TOU-H$LIST_NIO
     1885     1885         MESSAGE: *** List Command                         CP-6  Deckfile Editor  ~RU
              1885                          Page - ~PAGE  ***
     1886     1886         *** IFAD: ~SI                                          Deckfile: ~DF_FID
              1886                               ***
     1887     1887         *** Library - ~LIB    IFAD Release: ~WIR    IFAD File - ~F2           Date - ~LDATE
              1887            Time - ~LTIME      ***
     1888     1888         ***
              1888                               ***
     1889     1889         *      Edit  Deck   Title     Ident.  Equip.       Record  Search  Key         Deck
              1889            Entry    Load Size
     1890     1890         *      Name  Type   Date      Code    Type    Rev.                             Numb
              1890        er  Number   in  words
     1891     1891        */
     1892     1892
     1893     1893        /*E* ERROR:   TOU-H$SHOWDECK
     1894     1894         MESSAGE: *** Show Deck Command                    CP-6  Deckfile Editor  ~RU
              1894                          Page - ~PAGE  ***
     1895     1895         *** DEER Processor                                                    Date - ~LDATE
              1895            Time - ~LTIME      ***
     1896     1896         ***********************************************************************************
              1896        **************************
     1897     1897        */
     1898     1898
     1899     1899        /*E* ERROR:   TOU-H$SHOWFILE
     1900     1900         MESSAGE: *** Show File Command                    CP-6  Deckfile Editor  ~RU
              1900                          Page - ~PAGE  ***
     1901     1901         *** ~WSN
              1901                        ~WSI   ***
     1902     1902         *** Deckfile History Log for ~ENT                                     Date - ~LDATE
              1902            Time - ~LTIME      ***
     1903     1903         ***
              1903                               ***
     1904     1904        */
     1905     1905
PL6.E3A0      #001=TOT$ERRMSGS File=TOT$ERRMSGS.:E05TSI                          WED 07/30/97 06:36 Page:59
     1906     1906        /*E* ERROR:   TOU-H$NEWCAT
     1907     1907         MESSAGE: *** New Catalog Command                  CP-6  Deckfile Editor  ~RU
              1907                          Page - ~PAGE  ***
     1908     1908         *** DEER Processor                                                    Date - ~LDATE
              1908            Time - ~LTIME      ***
     1909     1909        */
     1910     1910
     1911     1911        /*E* ERROR:   TOU-H$NEWCAT_ITR
     1912     1912         MESSAGE: *** New Catalog Command                  CP-6  Deckfile Editor  ~RU
              1912                          Page - ~PAGE  ***
     1913     1913         *** IFAD: ~IFAD_FID                                    Deckfile: ~DF_FID
              1913                               ***
     1914     1914         *** Library - ~LIB                    IFAD File Number - ~FM          Date - ~LDATE
              1914            Time - ~LTIME      ***
     1915     1915         ***
              1915                               ***
     1916     1916         *      Edit  Deck   Title     Ident.               Record  Search  Key         Deck
              1916            Entry    Load Size
     1917     1917         *      Name  Type   Date      Code    Model   Rev.                             Numb
              1917        er  Number   in  words
     1918     1918        */
     1919     1919
     1920     1920        /*E* ERROR:   TOU-H$NEWCAT_MDR
     1921     1921         MESSAGE: *** New Catalog Command                  CP-6  Deckfile Editor  ~RU
              1921                          Page - ~PAGE  ***
     1922     1922         *** IFAD: ~IFAD_FID                                    Deckfile: ~DF_FID
              1922                               ***
     1923     1923         *** Library - ~LIB                    IFAD File Number - ~FM          Date - ~LDATE
              1923            Time - ~LTIME      ***
     1924     1924         ***
              1924                               ***
     1925     1925         Call   Edit  Deck   Title     Ident.               Record  Search  Key         Deck
              1925            Entry    Load Size
     1926     1926         Name   Name  Type   Date      Code    Model   Rev.                             Numb
              1926        er  Number   in  words
     1927     1927        */
     1928     1928
PL6.E3A0      #001=TOT$ERRMSGS File=TOT$ERRMSGS.:E05TSI                          WED 07/30/97 06:36 Page:60
     1929     1929        /*E* ERROR:   TOU-H$NEWCAT_PROG
     1930     1930         MESSAGE: *** New Catalog Command                  CP-6  Deckfile Editor  ~RU
              1930                          Page - ~PAGE  ***
     1931     1931         *** IFAD: ~IFAD_FID                                    Deckfile: ~DF_FID
              1931                               ***
     1932     1932         *** Library - ~LIB                    IFAD File Number - ~FM          Date - ~LDATE
              1932            Time - ~LTIME      ***
     1933     1933         ***
              1933                               ***
     1934     1934         Call   Edit  Deck   Title     Subsystem   Assembly Record  Search  Key         Deck
              1934            Entry    Load Size
     1935     1935         Name   Name  Type   Date      Type        Date                                 Numb
              1935        er  Number   in  words
     1936     1936        */
     1937     1937
     1938     1938        /*E* ERROR:   TOU-H$NEWDECK
     1939     1939         MESSAGE: *** New Deck Command                     CP-6  Deckfile Editor  ~RU
              1939                          Page - ~PAGE  ***
     1940     1940         *** DEER Processor                                                    Date - ~LDATE
              1940            Time - ~LTIME      ***
     1941     1941        */
     1942     1942
     1943     1943        /*E* ERROR:   TOU-H$NEWDECK_ITR
     1944     1944         MESSAGE: *** New Deck Command                     CP-6  Deckfile Editor  ~RU
              1944                          Page - ~PAGE  ***
     1945     1945         *** IFAD: ~IFAD_FID                                    Deckfile: ~DF_FID
              1945                               ***
     1946     1946         *** Library - ~LIB                    IFAD File Number - ~FN          Date - ~LDATE
              1946            Time - ~LTIME      ***
     1947     1947         ***
              1947                               ***
     1948     1948         *      Edit  Deck   Title     Ident.               Record  Search  Key         Deck
              1948            Entry    Load Size
     1949     1949         *      Name  Type   Date      Code    Model   Rev.                             Numb
              1949        er  Number   in  words
     1950     1950        */
     1951     1951
PL6.E3A0      #001=TOT$ERRMSGS File=TOT$ERRMSGS.:E05TSI                          WED 07/30/97 06:36 Page:61
     1952     1952        /*E* ERROR:   TOU-H$NEWDECK_MDR
     1953     1953         MESSAGE: *** New Deck Command                     CP-6  Deckfile Editor  ~RU
              1953                          Page - ~PAGE  ***
     1954     1954         *** IFAD: ~IFAD_FID                                    Deckfile: ~DF_FID
              1954                               ***
     1955     1955         *** Library - ~LIB                    IFAD File Number - ~FN          Date - ~LDATE
              1955            Time - ~LTIME      ***
     1956     1956         ***
              1956                               ***
     1957     1957         Call   Edit  Deck   Title     Ident.               Record  Search  Key         Deck
              1957            Entry    Load Size
     1958     1958         Name   Name  Type   Date      Code    Model   Rev.                             Numb
              1958        er  Number   in  words
     1959     1959        */
     1960     1960
     1961     1961        /*E* ERROR:   TOU-H$NEWDECK_PROG
     1962     1962         MESSAGE: *** New Deck Command                     CP-6  Deckfile Editor  ~RU
              1962                          Page - ~PAGE  ***
     1963     1963         *** IFAD: ~IFAD_FID                                    Deckfile: ~DF_FID
              1963                               ***
     1964     1964         *** Library - ~LIB                    IFAD File Number - ~FN          Date - ~LDATE
              1964            Time - ~LTIME      ***
     1965     1965         ***
              1965                               ***
     1966     1966         Call   Edit  Deck   Title     Subsystem   Assembly Record  Search  Key         Deck
              1966            Entry    Load Size
     1967     1967         Name   Name  Type   Date      Type        Date                                 Numb
              1967        er  Number   in  words
     1968     1968        */
     1969     1969
     1970     1970        /*E* ERROR:   TOU-H$REPDECK
     1971     1971         MESSAGE: *** Replace Deck Command                 CP-6  Deckfile Editor  ~RU
              1971                          Page - ~PAGE  ***
     1972     1972         *** DEER Processor                                                    Date - ~LDATE
              1972            Time - ~LTIME      ***
     1973     1973        */
     1974     1974
PL6.E3A0      #001=TOT$ERRMSGS File=TOT$ERRMSGS.:E05TSI                          WED 07/30/97 06:36 Page:62
     1975     1975        /*E* ERROR:   TOU-H$REPDECK_ITR
     1976     1976         MESSAGE: *** Replace Deck Command                 CP-6  Deckfile Editor  ~RU
              1976                          Page - ~PAGE  ***
     1977     1977         *** IFAD: ~IFAD_FID                                    Deckfile: ~DF_FID
              1977                               ***
     1978     1978         *** Library - ~LIB                    IFAD File Number - ~FN          Date - ~LDATE
              1978            Time - ~LTIME      ***
     1979     1979         ***
              1979                               ***
     1980     1980         *      Edit  Deck   Title     Ident.               Record  Search  Key         Deck
              1980                     Load Size
     1981     1981         *      Name  Type   Date      Code    Model   Rev.                             Numb
              1981        er           in  words
     1982     1982        */
     1983     1983
     1984     1984        /*E* ERROR:   TOU-H$REPDECK_MDR
     1985     1985         MESSAGE: *** Replace Deck Command                 CP-6  Deckfile Editor  ~RU
              1985                          Page - ~PAGE  ***
     1986     1986         *** IFAD: ~IFAD_FID                                    Deckfile: ~DF_FID
              1986                               ***
     1987     1987         *** Library - ~LIB                    IFAD File Number - ~FN          Date - ~LDATE
              1987            Time - ~LTIME      ***
     1988     1988         ***
              1988                               ***
     1989     1989         Call   Edit  Deck   Title     Ident.               Record  Search  Key         Deck
              1989                     Load Size
     1990     1990         Name   Name  Type   Date      Code    Model   Rev.                             Numb
              1990        er           in  words
     1991     1991        */
     1992     1992
     1993     1993        /*E* ERROR:   TOU-H$REPDECK_PROG
     1994     1994         MESSAGE: *** Replace Deck Command                 CP-6  Deckfile Editor  ~RU
              1994                          Page - ~PAGE  ***
     1995     1995         *** IFAD: ~IFAD_FID                                    Deckfile: ~DF_FID
              1995                               ***
     1996     1996         *** Library - ~LIB                    IFAD File Number - ~FN          Date - ~LDATE
              1996            Time - ~LTIME      ***
PL6.E3A0      #001=TOT$ERRMSGS File=TOT$ERRMSGS.:E05TSI                          WED 07/30/97 06:36 Page:63
     1997     1997         ***
              1997                               ***
     1998     1998         Call   Edit  Deck   Title     Subsystem   Assembly Record  Search  Key         Deck
              1998                     Load Size
     1999     1999         Name   Name  Type   Date      Type        Date                                 Numb
              1999        er           in  words
     2000     2000        */
     2001     2001
     2002     2002        /*E* ERROR:   TOU-H$REMREF
     2003     2003         MESSAGE: *** Remove Reference Command             CP-6  Deckfile Editor  ~RU
              2003                          Page - ~PAGE  ***
     2004     2004         *** Deckfile: ~DF_FID                                                 Date - ~LDATE
              2004            Time - ~LTIME      ***
     2005     2005         ***********************************************************************************
              2005        **************************
     2006     2006        */
     2007     2007
     2008     2008        /*E* ERROR:   TOU-H$DELDECK
     2009     2009         MESSAGE: *** Delete Deck Command                  CP-6  Deckfile Editor  ~RU
              2009                          Page - ~PAGE  ***
     2010     2010         *** Deckfile: ~DF_FID                                                 Date - ~LDATE
              2010            Time - ~LTIME      ***
     2011     2011         ***********************************************************************************
              2011        **************************
     2012     2012        */
     2013     2013
     2014     2014        /*E* ERROR:   TOU-H$DELPATCH
     2015     2015         MESSAGE: *** Delete Patch Command                 CP-6  Deckfile Editor  ~RU
              2015                          Page - ~PAGE  ***
     2016     2016         *** Deckfile: ~DF_FID                                                 Date - ~LDATE
              2016            Time - ~LTIME      ***
     2017     2017         ***********************************************************************************
              2017        **************************
     2018     2018        */
     2019     2019
     2020     2020        /*E* ERROR:   TOU-H$DELCAT
     2021     2021         MESSAGE: *** Delete Catalog Command               CP-6  Deckfile Editor  ~RU
PL6.E3A0      #001=TOT$ERRMSGS File=TOT$ERRMSGS.:E05TSI                          WED 07/30/97 06:36 Page:64
              2021                          Page - ~PAGE  ***
     2022     2022         *** Deckfile: ~DF_FID                                                 Date - ~LDATE
              2022            Time - ~LTIME      ***
     2023     2023         ***********************************************************************************
              2023        **************************
     2024     2024        */
     2025     2025
     2026     2026        /*E* ERROR:   TOU-H$PATCH
     2027     2027         MESSAGE: *** Patch Command                        CP-6  Deckfile Editor  ~RU
              2027                          Page - ~PAGE  ***
     2028     2028         *** Deckfile: ~DF_FID                                                 Date - ~LDATE
              2028            Time - ~LTIME      ***
     2029     2029        */
     2030     2030
     2031     2031        /*E* ERROR:   TOU-H$PATCH_ITR
     2032     2032         MESSAGE: *** Patch Command                        CP-6  Deckfile Editor  ~RU
              2032                          Page - ~PAGE  ***
     2033     2033         *** IFAD: ~IFAD_FID                                    Deckfile: ~DF_FID
              2033                               ***
     2034     2034         *** Library - ~LIB                    IFAD File Number - ~FN          Date - ~LDATE
              2034            Time - ~LTIME      ***
     2035     2035         ***
              2035                               ***
     2036     2036         *      Edit  Deck   Title     Ident.               Record  Search  Key         Deck
              2036                     Load Size
     2037     2037         *      Name  Type   Date      Code    Model   Rev.                             Numb
              2037        er           in  words
     2038     2038        */
     2039     2039
     2040     2040        /*E* ERROR:   TOU-H$PATCH_MDR
     2041     2041         MESSAGE: *** Patch Command                        CP-6  Deckfile Editor  ~RU
              2041                          Page - ~PAGE  ***
     2042     2042         *** IFAD: ~IFAD_FID                                    Deckfile: ~DF_FID
              2042                               ***
     2043     2043         *** Library - ~LIB                    IFAD File Number - ~FN          Date - ~LDATE
              2043            Time - ~LTIME      ***
     2044     2044         ***
PL6.E3A0      #001=TOT$ERRMSGS File=TOT$ERRMSGS.:E05TSI                          WED 07/30/97 06:36 Page:65
              2044                               ***
     2045     2045         Call   Edit  Deck   Title     Ident.               Record  Search  Key         Deck
              2045                     Load Size
     2046     2046         Name   Name  Type   Date      Code    Model   Rev.                             Numb
              2046        er           in  words
     2047     2047        */
     2048     2048
     2049     2049        /*E* ERROR:   TOU-H$PATCH_PROG
     2050     2050         MESSAGE: *** Patch Command                        CP-6  Deckfile Editor  ~RU
              2050                          Page - ~PAGE  ***
     2051     2051         *** IFAD: ~IFAD_FID                                    Deckfile: ~DF_FID
              2051                               ***
     2052     2052         *** Library - ~LIB                    IFAD File Number - ~FN          Date - ~LDATE
              2052            Time - ~LTIME      ***
     2053     2053         ***
              2053                               ***
     2054     2054         Call   Edit  Deck   Title     Subsystem   Assembly Record  Search  Key         Deck
              2054                     Load Size
     2055     2055         Name   Name  Type   Date      Type        Date                                 Numb
              2055        er           in  words
     2056     2056        */
     2057     2057
     2058     2058        /*E* ERROR:   TOU-H$UPDATE
     2059     2059         MESSAGE: *** Update Command                       CP-6  Deckfile Editor  ~RU
              2059                          Page - ~PAGE  ***
     2060     2060         *** DEER Processor                                                    Date - ~LDATE
              2060            Time - ~LTIME      ***
     2061     2061        */
     2062     2062
     2063     2063        /*E* ERROR:   TOU-H$UPDATE_ITR
     2064     2064         MESSAGE: *** Update Command                       CP-6  Deckfile Editor  ~RU
              2064                          Page - ~PAGE  ***
     2065     2065         *** IFAD: ~IFAD_FID                                    Deckfile: ~DF_FID
              2065                               ***
     2066     2066         *** Library - ~LIB                    IFAD File Number - ~FN          Date - ~LDATE
              2066            Time - ~LTIME      ***
     2067     2067         ***
PL6.E3A0      #001=TOT$ERRMSGS File=TOT$ERRMSGS.:E05TSI                          WED 07/30/97 06:36 Page:66
              2067                               ***
     2068     2068         *      Edit  Deck   Title     Ident.               Record  Search  Key         Deck
              2068            Entry    Load Size
     2069     2069         *      Name  Type   Date      Code    Model   Rev.                             Numb
              2069        er  Number   in  words
     2070     2070        */
     2071     2071
     2072     2072        /*E* ERROR:   TOU-H$UPDATE_MDR
     2073     2073         MESSAGE: *** Update Command                       CP-6  Deckfile Editor  ~RU
              2073                          Page - ~PAGE  ***
     2074     2074         *** IFAD: ~IFAD_FID                                    Deckfile: ~DF_FID
              2074                               ***
     2075     2075         *** Library - ~LIB                    IFAD File Number - ~FN          Date - ~LDATE
              2075            Time - ~LTIME      ***
     2076     2076         ***
              2076                               ***
     2077     2077         Call   Edit  Deck   Title     Ident.               Record  Search  Key         Deck
              2077            Entry    Load Size
     2078     2078         Name   Name  Type   Date      Code    Model   Rev.                             Numb
              2078        er  Number   in  words
     2079     2079        */
     2080     2080
     2081     2081        /*E* ERROR:   TOU-H$UPDATE_PROG
     2082     2082         MESSAGE: *** Update Command                       CP-6  Deckfile Editor  ~RU
              2082                          Page - ~PAGE  ***
     2083     2083         *** IFAD: ~IFAD_FID                                    Deckfile: ~DF_FID
              2083                               ***
     2084     2084         *** Library - ~LIB                    IFAD File Number - ~FN          Date - ~LDATE
              2084            Time - ~LTIME      ***
     2085     2085         ***
              2085                               ***
     2086     2086         Call   Edit  Deck   Title     Subsystem   Assembly Record  Search  Key         Deck
              2086            Entry    Load Size
     2087     2087         Name   Name  Type   Date      Type        Date                                 Numb
              2087        er  Number   in  words
     2088     2088        */
     2089     2089
PL6.E3A0      #001=TOT$ERRMSGS File=TOT$ERRMSGS.:E05TSI                          WED 07/30/97 06:36 Page:67
     2090     2090        /*E* ERROR:   TOU-H$UPDATE_MC
     2091     2091         MESSAGE: *** Update Command                       CP-6  Deckfile Editor  ~RU
              2091                          Page - ~PAGE  ***
     2092     2092         *** IFAD: ~IFAD_FID                                    Deckfile: ~DF_FID
              2092                               ***
     2093     2093         *** Deckfile Master Catalog                                           Date - ~LDATE
              2093            Time - ~LTIME      ***
     2094     2094         *** ~WSN
              2094                        ~WSI   ***
     2095     2095         ***
              2095                               ***
     2096     2096         ***                                                Record  Search  Key         Deck
              2096                               ***
     2097     2097         ***                                                                            Numb
              2097        er                     ***
     2098     2098        */
     2099     2099
     2100     2100        /*E* ERROR:   TOU-H$HELP
     2101     2101         MESSAGE: *** Help Command                         CP-6  Deckfile Editor  ~RU
              2101                          Page - ~PAGE  ***
     2102     2102         *** DEER Processor                                                    Date - ~LDATE
              2102            Time - ~LTIME      ***
     2103     2103         ***********************************************************************************
              2103        **************************
     2104     2104        */
     2105     2105
     2106     2106        /*E* ERROR:   TOU-H$MERGE
     2107     2107         MESSAGE: *** Merge Diskette Command               CP-6  Deckfile Editor  ~RU
              2107                          Page - ~PAGE  ***
     2108     2108         *** DEER Processor                                                    Date - ~LDATE
              2108            Time - ~LTIME      ***
     2109     2109        */
     2110     2110
     2111     2111        /*E* ERROR:   TOU-H$MERGE_NIO
     2112     2112         MESSAGE: *** Merge Diskette Command               CP-6  Deckfile Editor  ~RU
              2112                          Page - ~PAGE  ***
     2113     2113         *** IFAD: ~IFAD_FID                                    Deckfile: ~DF_FID
PL6.E3A0      #001=TOT$ERRMSGS File=TOT$ERRMSGS.:E05TSI                          WED 07/30/97 06:36 Page:68
              2113                               ***
     2114     2114         *** Library - ~LIB                    IFAD File - ~F2                 Date - ~LDATE
              2114            Time - ~LTIME      ***
     2115     2115         ***
              2115                               ***
     2116     2116         *      Edit  Deck   Title     Ident.  Equip.       Record  Search  Key         Deck
              2116            Entry    Load Size
     2117     2117         *      Name  Type   Date      Code    Type    Rev.                             Numb
              2117        er  Number   in  words
     2118     2118        */
     2119     2119
     2120     2120        /* End of DEER messages */
     2121     2121
     2122     2122        /* End of TOT$ERRMSGS */
     2123     2123
     2124     2124    1   END TOT$ERRMSGS;

PL6.E3A0      #001=TOT$ERRMSGS File=TOT$ERRMSGS.:E05TSI                          WED 07/30/97 06:36 Page:69
--  Include file information  --

   B$JIT_C.:E05TOU  was found in the system file and is never referenced.
   CP_6_C.:E05TOU  was found in the system file and is never referenced.
      No diagnostics issued in procedure TOT$ERRMSGS.

   No code generated for procedure TOT$ERRMSGS .
   Procedure TOT$ERRMSGS is declared NOAUTO and requires 2 words of local(STATIC) storage.

    No errors detected in file TOT$ERRMSGS.:E05TSI    .

PL6.E3A0      #001=TOT$ERRMSGS File=TOT$ERRMSGS.:E05TSI                          WED 07/30/97 06:36 Page:70

 Object Unit name= TOT$ERRMSGS                                File name= TOT$ERRMSGS.:E05TOU
 UTS= JUL 30 '97 06:36:19.00 WED                              Compiler= PL-6/E31         Sev=      00
 SharedLib= :SHARED_SYSTEM                                    Alt SharedLib=


    ****  Control sections  ****

 Sect   Type Bound  Init  Size OctSiz  Section name(segment info)
    0   Data  even  none     2      2  TOT$ERRMSGS
    1   Proc  even  none     0      0  TOT$ERRMSGS

    ****  Entry defs  ****

                              Check   Calling
                             calling  sequence
  Sect OctLoc Primary Altret sequence   type   Parms  Name
     1      0   yes            yes     ~proc       0  TOT$ERRMSGS
PL6.E3A0      #001=TOT$ERRMSGS File=TOT$ERRMSGS.:E05TSI                          WED 07/30/97 06:36 Page:71

        1        1        /*M* TOT$ERRMSGS   Processor Error Messages for TOLTS and DEER */
        2        2        /*T***********************************************************/
        3        3        /*T*                                                         */
        4        4        /*T* Copyright (c) Bull HN Information Systems Inc., 1997    */
        5        5        /*T*                                                         */
        6        6        /*T***********************************************************/
        7        7
        8        8
        9        9        /*X* DDA=Y */
       10       10
       11       11        /*P* NAME:         TOT$ERRMSGS
       12       12             PURPOSE:      Common error message file for TOLTS and DEER
       13       13             DESCRIPTION:  This is the file that gets EXTRACTed to provide
       14       14                           an error message file for TOLTS and DEER.
       15       15             REFERENCE:    CP-6 Release D0E0
       16       16             LAST UPDATE:  04/09/86
       17       17        */
       18       18        %EJECT ;
PL6.E3A0      #001=TOT$ERRMSGS File=TOT$ERRMSGS.:E05TSI                          WED 07/30/97 06:36 Page:72
       19       19        TOT$ERRMSGS: PROC NOAUTO;
       20       20
       21       21        /* TOLTS Error message code EQUates */
       22       22
       23       23        /* TOC$COLTS                      001 - 035 */
       24       24
       25       25        /* TOD$DISPATCHER                 036 - 055 */
       26       26
       27       27        /* TOE$EVENT_HANDLER              056 - 075 */
       28       28
       29       29        /* TOF$FAULTS                     076 - 105 */
       30       30
       31       31        /* TOG$GCOS_MMES                  106 - 135 */
       32       32
       33       33        /* TOL$LOADER                     136 - 145 */
       34       34
       35       35        /* TOM$MOLTS                      146 - 175 */
       36       36
       37       37        /* TOO$TOLTS_MMES                 176 - 205 */
       38       38
       39       39        /* TOP$POLTS                      206 - 225 */
       40       40
       41       41        /* TOQ$DEBUG                      226 - 235 */
       42       42
       43       43        /* TOS$SOLTS                      236 - 255 */
       44       44
       45       45        /* TOT$MAIN and TOT$ROOT          256 - 285 */
       46       46
       47       47        /* TOX$ERR                        286 - 299 */
       48       48
       49       49        /* End of TOLTS EQUates */
       50       50        %EJECT ;
PL6.E3A0      #001=TOT$ERRMSGS File=TOT$ERRMSGS.:E05TSI                          WED 07/30/97 06:36 Page:73
       51       51        /* TOLTS Error Messages */
       52       52
       53       53        /* TOC$COLTS messages */
       54       54
       55       55        /*E* ERROR: TOC-E$FULLTABLE
       56       56             MESSAGE: No more COLTS tests are currently allowed.  Eight is enough.
       57       57        */
       58       58        /*E* ERROR: TOC-E$BADINQ
       59       59             MESSAGE: A second remote inquiry has been attempted.  Only one is
       60       60                      allowed to be outstanding at any given time.
       61       61        */
       62       62        /*E* ERROR: TOC-E$BADLOGID
       63       63             MESSAGE: Couldn't find specified line i.d.
       64       64        */
       65       65        /*E* ERROR: TOC-E$BADLNST
       66       66             MESSAGE: Bad line state% for line i.d. %U1%.
       67       67        */
       68       68        /*E* ERROR: TOC-E$BADRCVP
       69       69             MESSAGE: Bad input buffer pointer.
       70       70        */
       71       71        /*E* ERROR: TOC-E$BADDISC
       72       72             MESSAGE: Record pointer to disconnect ICM not found.
       73       73        */
       74       74        /*E* ERROR: TOC-E$BADNODETOLTS
       75       75             MESSAGE: ICM received from unknown node.
       76       76        */
       77       77        /*E* ERROR: TOC-E$BADCOINIT
       78       78             MESSAGE: Illegal code passed to COINIT.
       79       79        */
       80       80        /*E* ERROR: TOC-E$OPCG
       81       81             MESSAGE: TOLTS must reside in :SYS to run COLTS.
       82       82        */
       83       83        /*E* ERROR: TOC-E$BADLNID
       84       84             MESSAGE: An invalid LINE ID was received from the subexecutive.
       85       85        */
       86       86        /*E* ERROR: TOC-E$BADLINE
       87       87             MESSAGE: A handler could not be identified for the line to be
PL6.E3A0      #001=TOT$ERRMSGS File=TOT$ERRMSGS.:E05TSI                          WED 07/30/97 06:36 Page:74
       88       88                      tested.
       89       89        */
       90       90        /*E* ERROR: TOC-E$LTABOVFL
       91       91             MESSAGE: The COLTS line table has overflowed.
       92       92        */
       93       93        /*E* ERROR: TOC-E$BADGROUTTYP
       94       94             MESSAGE: An illegal GEROUT type% %U1% was attempted.
       95       95        */
       96       96        /*E* ERROR: TOC-E$BADCLOSE
       97       97             MESSAGE: Couldn't CLOSE the DCB for FECG.  Check to see that
       98       98                      FROG is still running.
       99       99        */
      100      100        /*E* ERROR: TOC-E$BADICMWR
      101      101             MESSAGE: Attempt to send an ICM% to node %U1% failed.
      102      102        */
      103      103        /*E* ERROR: TOC-E$BADICMRD
      104      104             MESSAGE: Attempt to receive an ICM% from node %U1% failed.
      105      105        */
      106      106        /*E* ERROR: TOC-E$NODCB
      107      107             MESSAGE: A DCB could not be assigned for the current test.
      108      108        */
      109      109        /*E* ERROR: TOC-E$NOLOGFEP
      110      110       MESSAGE: The subexecutive attempted a "wakeup" without getting a logical FEP number.
      111      111        */
      112      112        /*E* ERROR: TOC-E$FEPNOTREADY
      113      113             MESSAGE: FEP node% %U1% has not been partitioned.
      114      114        */
      115      115        /*E* ERROR: TOC-E$MLBXACTIVE
      116      116             MESSAGE: Attempt to issue an ICM% to FEP %U1% failed because the
      117      117                      mailbox is currently protected due to an outstanding READ.
      118      118        */
      119      119        /*E* ERROR: TOC-E$BADPCW
      120      120             MESSAGE: Invalid PCW issued.
      121      121        */
      122      122        /*E* ERROR: TOC-E$L66INT
      123      123             MESSAGE: A host interrupt was attempted by the subexecutive.
      124      124        */
PL6.E3A0      #001=TOT$ERRMSGS File=TOT$ERRMSGS.:E05TSI                          WED 07/30/97 06:36 Page:75
      125      125        /*E* ERROR: TOC-E$NTNODE
      126      126             MESSAGE: Attempt to issue an ICM to an FEP not under test.
      127      127        */
      128      128        /*E* ERROR: TOC-E$BADEVID
      129      129             MESSAGE: Illegal Event Id encountered by the COLTS Executive.
      130      130        */
      131      131        /*E* ERROR: TOC-E$BADDEV
      132      132             MESSAGE: Attempting to test an FEP device that is unknown to COLTS.
      133      133        */
      134      134        /*E* ERROR: TOC-E$NOCONFIG
      135      135             MESSAGE: Unexpected ALTRET from M$CONFIG in COLTS.
      136      136        */
      137      137        /*E* ERROR: TOC-E$NOHNDLR
      138      138             MESSAGE: The FPRG COLTS is trying to talk to has gone away.
      139      139                      Be sure that your account has the TND and MSYS
      140      140                      FEP privileges.
      141      141        */
      142      142        /*E* ERROR: TOC-E$CANTOPENFPRG
      143      143             MESSAGE: Cannot downline load the COLTS FPRG to the FEP.
      144      144                      Check your FEP account authorizations and the FEP
      145      145                      memory availability.
      146      146        */
      147      147
      148      148        /* TOD$DISPATCHER messages */
      149      149
      150      150        /*E* ERROR: TOD-E$ILLREQTYP
      151      151             MESSAGE: Invalid dispatcher request type -- TOLTS bug.
      152      152        */
      153      153        /*E* ERROR: TOD-E$DISPFULL
      154      154             MESSAGE: Dispatcher queue currently is full.
      155      155        */
      156      156        /*E* ERROR: TOD-E$DISPBUSY
      157      157             MESSAGE: The dispatcher queue is currently busy.
      158      158                      It can not service two entries at once.
      159      159        */
      160      160        /*E* ERROR: TOD-E$BADSRVCODE
      161      161             MESSAGE: Invalid dispatcher service code -- TOLTS bug.
PL6.E3A0      #001=TOT$ERRMSGS File=TOT$ERRMSGS.:E05TSI                          WED 07/30/97 06:36 Page:76
      162      162        */
      163      163        /*E* ERROR: TOD-E$LOADERR
      164      164        MESSAGE: Error encountered while attempting to load the subexecutive from the deckf
               164        ile.
      165      165        */
      166      166        /*E* ERROR: TOD-E$BADSIZE
      167      167             MESSAGE: Subexecutive load size > maximum DCW list allowance.
      168      168        */
      169      169
      170      170        /* TOE$EVENT_HANDLER messages */
      171      171
      172      172        /*E* ERROR: TOE-E$BADEVID
      173      173             MESSAGE: Invalid event identifier returned by the system.
      174      174        */
      175      175        /*E* ERROR: TOE-E$BADIOCNT
      176      176             MESSAGE: TOLTS outstanding I/O count went negative.
      177      177        */
      178      178        /*E* ERROR: TOE-E$BADNODETOLTS
      179      179             MESSAGE: Invalid node returned by the system.
      180      180        */
      181      181
      182      182        /* TOF$FAULTS messages */
      183      183
      184      184        /*E* ERROR: TOF-E$UNEXERRFLT
      185      185             MESSAGE: TOLTS encountered an unexpected fault.
      186      186        */
      187      187        /*E* ERROR: TOF-E$UNEXPRGFLT
      188      188             MESSAGE: TOLTS encountered an unexpected programmed fault.
      189      189        */
      190      190        /*E* ERROR: TOF-E$UNEXMONFLT
      191      191             MESSAGE: TOLTS received an unexpected ALTRETurn from a monitor service call.
      192      192        */
      193      193        /*E* ERROR: TOF-E$BADTAG
      194      194             MESSAGE: Unsupported tag field encountered in SBAR instruction.
      195      195        */
      196      196        /*E* ERROR: TOF-E$BADMODTYP
      197      197             MESSAGE: Unsupported address modification encountered in SBAR instruction.
PL6.E3A0      #001=TOT$ERRMSGS File=TOT$ERRMSGS.:E05TSI                          WED 07/30/97 06:36 Page:77
      198      198        */
      199      199        /*E* ERROR: TOF-E$BADSUBCODE
      200      200             MESSAGE: Unexpected exception subcode found in the exception frame.
      201      201        */
      202      202        /*E* ERROR: TOF-E$BADECC
      203      203             MESSAGE: Unexpected exceptional condition code found in the exception frame.
      204      204        */
      205      205        /*E* ERROR: TOF-E$NOGLBVEC
      206      206             MESSAGE: Lost GELBAR vector. TOLTS can not return to the test page.
      207      207        */
      208      208        /*E* ERROR: TOF-E$INVMME
      209      209             MESSAGE: Invalid MME number trapped by fault handler.
      210      210        */
      211      211        /*E* ERROR: TOF-E$ILLMME
      212      212             MESSAGE: Non-supported MME number trapped by fault handler.
      213      213        */
      214      214
      215      215        /* TOG$GCOS_MMES messages */
      216      216
      217      217        /*E*  ERROR: TOG-E$BADIOCNT
      218      218              MESSAGE: I/O count went negative.
      219      219        */
      220      220        /*E*  ERROR: TOG-E$BADGEINOS
      221      221              MESSAGE: Invalid GEINOS op code% %U1%.
      222      222        */
      223      223        /*E*  ERROR: TOG-E$MULTGENWR
      224      224              MESSAGE: There are 2 GEINOS writes outstanding.
      225      225        */
      226      226        /*E*  ERROR: TOG-E$MULTGENRD
      227      227              MESSAGE: There are 2 GEINOS reads outstanding.
      228      228        */
      229      229
      230      230        /* TOL$LOADER messages */
      231      231
      232      232        /*E* ERROR: TOL-E$COULDNOTLOAD
      233      233             MESSAGE: Error encountered while attempting to load data from the deckfile.
      234      234        */
PL6.E3A0      #001=TOT$ERRMSGS File=TOT$ERRMSGS.:E05TSI                          WED 07/30/97 06:36 Page:78
      235      235
      236      236        /* TOM$MOLTS messages */
      237      237
      238      238        /*E* ERROR: TOM-E$TBLLOADERR
      239      239             MESSAGE: Error encountered while loading ITR catalog table from the deckfile.
      240      240        */
      241      241        /*E* ERROR: TOM-E$INVICC
      242      242             MESSAGE: Invalid ICCC value passed by the subexecutive.
      243      243        */
      244      244        /*E* ERROR: TOM-E$SAVEALT
      245      245             MESSAGE: Error during the save of the reformatted catalog data.
      246      246        */
      247      247        /*E* ERROR: TOM-E$CLEARALT
      248      248             MESSAGE: Error encountered while trying to clear memory above the
      249      249                      the reformatted catalog data.
      250      250        */
      251      251        /*E* ERROR: TOM-E$ILLOBJKEY
      252      252             MESSAGE: Object key returned from the deckfile has an invalid length.
      253      253        */
      254      254        /*E* ERROR: TOM-E$OBJREAD
      255      255             MESSAGE: Error while attempting to read object deck key from the deckfile.
      256      256        */
      257      257
      258      258        /*E* ERROR: TOM-E$NOSEG
      259      259             MESSAGE: Attempt to close a catalog file which has already
      260      260                      been closed or was never allocated.
      261      261        */
      262      262        /*E* ERROR: TOM-E$FREEINACTV
      263      263             MESSAGE: Attempt to free a catalog segment which is currently
      264      264                      inactive.
      265      265        */
      266      266        /*E* ERROR: TOM-E$SEGSFULL
      267      267             MESSAGE: Attempt to open more NIO files than allowable.
      268      268        */
      269      269        /*E* ERROR: TOM-E$WDCNTNOT64
      270      270             MESSAGE: The DCW used on a MME DATA to an NIO catalog was not
      271      271                      MOD 64. The word count specified must be divisible by
PL6.E3A0      #001=TOT$ERRMSGS File=TOT$ERRMSGS.:E05TSI                          WED 07/30/97 06:36 Page:79
      272      272                      64 so that it represents the number of diskette sectors
      273      273                      to obtain.
      274      274        */
      275      275        /*E* ERROR: TOM-E$INVSECTOR
      276      276             MESSAGE: The starting sector requested on a MME DATA to an NIO
      277      277                      catalog file was after the logical end of file.
      278      278        */
      279      279
      280      280        /* TOO$TOLTS_MMES messages */
      281      281
      282      282        /*E* ERROR: TOO-E$BADGEMREL
      283      283             MESSAGE: An attempt to release lower memory was made by the subexec.
      284      284        */
      285      285        /*E* ERROR: TOO-E$BADLOGID
      286      286             MESSAGE: Disconnect of unused LID was attempted by subexec.
      287      287        */
      288      288        /*E* ERROR: TOO-E$BADMSGSIZE
      289      289             MESSAGE: Message from subexec > 1019 octal words.  Internal TOLTS
      290      290                      limitation.  Message will not be sent to user.
      291      291        */
      292      292        /*E* ERROR: TOO-E$BADLOADSIZE
      293      293             MESSAGE: Can't build a DCW list long enough to load object deck
      294      294                      % %U1%.
      295      295        */
      296      296        /*E* ERROR: TOO-E$BADIOBITS
      297      297             MESSAGE: Illegal I/O request bits set.
      298      298        */
      299      299        /*E* ERROR: TOO-E$BADGECALL
      300      300             MESSAGE: Illegal GECALL parameter from TOLTS.
      301      301        */
      302      302        /*E* ERROR: TOO-E$BADRLID
      303      303             MESSAGE: Controlling terminal wasn't set to users terminal.
      304      304        */
      305      305        /*E* ERROR: TOO-E$NOLOAD
      306      306             MESSAGE: The requested test page% %U1% could not be loaded.
      307      307             MESSAGE1: Check your deckfile listing to make sure it exists.
      308      308        */
PL6.E3A0      #001=TOT$ERRMSGS File=TOT$ERRMSGS.:E05TSI                          WED 07/30/97 06:36 Page:80
      309      309        /*E* ERROR: TOO-E$BADWORDCT
      310      310             MESSAGE: The word count for TADIOD message doesn't fit the message.
      311      311        */
      312      312
      313      313        /* TOP$POLTS messages */
      314      314
      315      315        /*E*  ERROR: TOP-E$BADPSIA
      316      316              MESSAGE: ICC% %U1% is not a bootable MPC channel.
      317      317        */
      318      318        /*E*  ERROR: TOP-E$BADREL
      319      319              MESSAGE: Invalid code for MME RELEAS.
      320      320        */
      321      321        /*E*  ERROR: TOP-E$BADSTS
      322      322              MESSAGE: Bad status returned on device survey.
      323      323        */
      324      324        /*E*  ERROR: TOP-E$BADTT
      325      325              MESSAGE: Specified test type is not supported.
      326      326        */
      327      327        /*E*  ERROR: TOP-E$INVCHN
      328      328              MESSAGE: Can't find specified channel in :CONFIG file.
      329      329        */
      330      330        /*E*  ERROR: TOP-E$BADDEVTYP
      331      331              MESSAGE: Invalid CP-6 device type found.
      332      332        */
      333      333        /*E*  ERROR: TOP-E$INVDEVICE
      334      334              MESSAGE: Can't find the device specified in test request.
      335      335        */
      336      336        /*E*  ERROR: TOP-E$BADICCDD
      337      337              MESSAGE: Couldn't find a match for ICCDD% %U1%.
      338      338        */
      339      339        /*E*  ERROR: TOP-E$BADIOM
      340      340              MESSAGE: Invalid IOM number.
      341      341        */
      342      342        /*E*  ERROR: TOP-E$BADPATPTR
      343      343              MESSAGE: No match found for PAT pointer.
      344      344        */
      345      345        /*E*  ERROR: TOP-E$BADSCTADR
PL6.E3A0      #001=TOT$ERRMSGS File=TOT$ERRMSGS.:E05TSI                          WED 07/30/97 06:36 Page:81
      346      346              MESSAGE: No match found for SCT address.
      347      347        */
      348      348        /*E*  ERROR: TOP-E$BADIORET
      349      349              MESSAGE: No match found for I/O entry.
      350      350        */
      351      351        /*E*  ERROR: TOP-E$BADICC
      352      352              MESSAGE: No match found for ICC passed by subexec.
      353      353        */
      354      354        /*E*  ERROR: TOP-E$BADDCWLS
      355      355              MESSAGE: The DCW list for the current I/O is not valid.
      356      356        */
      357      357        /*E*  ERROR: TOP-E$BADRESP
      358      358              MESSAGE: Invalid response.
      359      359        */
      360      360        /*E*  ERROR: TOP-E$BADFILEID
      361      361              MESSAGE: That's not a valid file identifier.
      362      362        */
      363      363        /*E*  ERROR: TOP-E$NOOVRWR
      364      364              MESSAGE: You may not create a new file with that fid.
      365      365        */
      366      366        /*E*  ERROR: TOP-E$NOASSIGN
      367      367              MESSAGE: The specified device is not available for T&D.
      368      368        */
      369      369        /*E*  ERROR: TOP-E$NOOPENCONFIG
      370      370              MESSAGE: Can't open :CONFIG file, check access controls.
      371      371        */
      372      372
      373      373        /* TOQ$DEBUG messages */
      374      374
      375      375        /*E* ERROR:   TOQ-E$BADREASON
      376      376             MESSAGE: Invalid reason code: bad call to the TOLTS DEBUG module
      377      377        */
      378      378
      379      379        /* TOS$SOLTS messages */
      380      380
      381      381        /*E*  ERROR: TOS-E$BADPACTREQ
      382      382              MESSAGE: Invalid request:% %U1% format is% %U1%{[C][nnn][N][Pm]}.
PL6.E3A0      #001=TOT$ERRMSGS File=TOT$ERRMSGS.:E05TSI                          WED 07/30/97 06:36 Page:82
      383      383        */
      384      384        /*E*  ERROR: TOS-E$NOCOMWDALTER
      385      385              MESSAGE: The% %U1 <-> TOLTS% communications word will not be altered.
      386      386        */
      387      387        /*E*  ERROR: TOS-E$BADNPFORM
      388      388              MESSAGE: Invalid request:% %U1%NPm form -- 'N' must be followed by 'P'.
      389      389        */
      390      390        /*E*  ERROR: TOS-E$BADPORT
      391      391              MESSAGE: Invalid request:% %U1%[N]Pm form -- Invalid port field.
      392      392        */
      393      393        /*E*  ERROR: TOS-E$BADNNN
      394      394              MESSAGE: Invalid request:% %U1%nnn[Pm] form -- invalid count field.
      395      395        */
      396      396        /*E*  ERROR: TOS-E$PLSRELCPU
      397      397              MESSAGE: A serious error has been detected for logical processor number %U1
      398      398                       T&D recommends that this CPU be released from the system for
      399      399                       SOLTS testing.
      400      400        */
      401      401        /*E*  ERROR: TOS-E$RPMASGCPU
      402      402              MESSAGE: Test of Logical Processor %U1 (CPU %U2) complete.
      403      403                       Please keyin START CPU %U2
      404      404        */
      405      405        /*E*  ERROR: TOS-E$RPMRELCPU
      406      406              MESSAGE: T&D is testing logical processor %U1 (CPU %U2)
      407      407                       Do NOT start CPU %U2 until T&D test completed.
      408      408        */
      409      409        /*E*  ERROR: TOS-E$RELCPU_NOT_STOPPED
      410      410              MESSAGE: Can't test logical processor %U1 (CPU %U2)
      411      411                       CPU %U2 is not STOPPED
      412      412        */
      413      413        /*E*  ERROR: TOS-E$ASGCPU_NOT_STOPPED
      414      414              MESSAGE: Can't assign logical processor %U1 (CPU %U2)
      415      415                       CPU %U2 is not STOPPED.
      416      416        */
      417      417        /*E*  ERROR: TOS-E$RPMASGSCU
      418      418              MESSAGE: Logical SCU number %U1
      419      419                       Test of SCU %U1 is finished.
PL6.E3A0      #001=TOT$ERRMSGS File=TOT$ERRMSGS.:E05TSI                          WED 07/30/97 06:36 Page:83
      420      420                       Please RETURN SCU %U1 to the system.
      421      421        */
      422      422        /*E*  ERROR: TOS-E$RPMRELSCU
      423      423              MESSAGE: Logical SCU number %U1
      424      424                       SCU must be RELEASED before running the T&D test.
      425      425        /* TOT$MAIN and TOT$ROOT messages */
      426      426
      427      427        /*E* ERROR: TOT-E$NOMORE
      428      428             MESSAGE: End of topic.
      429      429        */
      430      430        /*E* ERROR: TOT-E$ALLDONE
      431      431             MESSAGE: No more help available.
      432      432        */
      433      433        /*E* ERROR: TOT-E$BADSUBEXEC
      434      434             MESSAGE0: Only one TOLTS subexecutive may be active at a time.
      435      435             MESSAGE1: Additional tests for the current subexective may be run.
      436      436        */
      437      437        /*E* ERROR: TOT-E$NOTYET
      438      438             MESSAGE: TOLTS may not be terminated while MOLTS test pages are still running.
      439      439                      Terminate all MOLTS tests which are currently running or  wrap-up the
      440      440                      MOLTS subexecutive in order to terminate TOLTS.
      441      441        */
      442      442        /*E* ERROR: TOT-E$ONLYONE
      443      443             MESSAGE: Only one TOLTS request may be executed while TOLTS is in DEBUG mode.
      444      444        */
      445      445        /*E* ERROR: TOT-E$NOTOLTSPRIV
      446      446             MESSAGE: Required privileges to run TOLTS not found.
      447      447        */
      448      448        /*E* ERROR: TOT-E$MSGTOOLONG
      449      449             MESSAGE: Operator messages are limited to 80 characters.
      450      450        */
      451      451        /*E* ERROR: TOT-E$NODKFLREV
      452      452             MESSAGE: The deckfile to be used by TOLTS, %U1,
      453      453                      is not compatible with this version of TOLTS, %U2.
      454      454                      Please use the DEER %U2 version to re-build the
      455      455                      deckfile from the most recent available IFAD tape.
      456      456        */
PL6.E3A0      #001=TOT$ERRMSGS File=TOT$ERRMSGS.:E05TSI                          WED 07/30/97 06:36 Page:84
      457      457        /*E* ERROR: TOT-E$NOTNDCONTRACT
      458      458             MESSAGE: Data from the  deckfile  currently installed indicates
      459      459                      that your site  currently does  NOT have a maintenance
      460      460                      contract with Honeywell.  TOLTS is a separately priced
      461      461                      software product and  requires  such a contract before
      462      462                      certain tests may be run.  If this is in error, please
      463      463                      contact the Technical Assistance Center immediately.
      464      464        */
      465      465        /*E* ERROR: TOT-E$BADFIRST
      466      466        MESSAGE: Invalid initial test request entered. Initial test requests must begin wit
               466        h:
      467      467                      'C' - COLTS
      468      468                      'M' - MOLTS
      469      469                      'NIO' - MOLTS (New IO)
      470      470                      'P' - POLTS
      471      471                      'RPM' - MOLTS (SPUD)
      472      472                      'S' - SOLTS
      473      473                      '$PACT' - PACT
      474      474                      '$SLTA' - SOLTS AUTOCALL
      475      475        */
      476      476        /*E* ERROR: TOT-E$NOTONDPS90
      477      477             MESSAGE: PACT, POLTS, SLTA, and SOLTS tests are not run under TOLTS
      478      478                      on  a  DPS90  system.  Check  your MSOS  documentation for
      479      479                      information on  how to  run these types of  tests on  your
      480      480                      system.
      481      481        */
      482      482        /*E* ERROR: TOT-E$NOTONDPS8000
      483      483             MESSAGE: PACT, SLTA, AND SOLTS tests are not supported under TOLTS
      484      484                      on a DPS8000 system.
      485      485        */
      486      486
      487      487        /* TOX$ERR messages */
      488      488
      489      489        /*E* ERROR: TOX-E$GOODSCREECH
      490      490             MESSAGE: TOLTS SCREECH - dump produced is %U1
      491      491        */
      492      492        /*E* ERROR: TOX-E$BADSCREECH
PL6.E3A0      #001=TOT$ERRMSGS File=TOT$ERRMSGS.:E05TSI                          WED 07/30/97 06:36 Page:85
      493      493             MESSAGE: No SCREECH dump produced.
      494      494        */
      495      495
      496      496        /* End of TOLTS Error Messages */
      497      497        %EJECT ;
PL6.E3A0      #001=TOT$ERRMSGS File=TOT$ERRMSGS.:E05TSI                          WED 07/30/97 06:36 Page:86
      498      498        /* DEER Error message code and message code EQUates */
      499      499
      500      500        /* DEER TEXT Codes */
      501      501
      502      502        /* general                          0 -   9 */
      503      503
      504      504        /* TOU$DE                          10 -  19 */
      505      505
      506      506        /* TOU$BUILD                       20 -  39 */
      507      507
      508      508        /* TOU$LIST                        40 -  49 */
      509      509
      510      510        /* TOU$SHOWDECK                    50 -  69 */
      511      511
      512      512        /* TOU$SHOWFILE                    70 -  89 */
      513      513
      514      514        /* TOU$NEWCAT                      90 -  99 */
      515      515
      516      516        /* TOU$NEWDECK                    100 - 109 */
      517      517
      518      518        /* TOU$REPDECK                    110 - 119 */
      519      519
      520      520        /* TOU$REMREF                     120 - 129 */
      521      521
      522      522        /* TOU$DELDECK                    130 - 139 */
      523      523
      524      524        /* TOU$DELPATCH                   140 - 149 */
      525      525
      526      526        /* TOU$DELCAT                     150 - 159 */
      527      527
      528      528        /* TOU$PATCH                      160 - 169 */
      529      529
      530      530        /* TOU$UPDATE                     170 - 179 */
      531      531
      532      532        /* TOU$HELP                       180 - 189 */
      533      533
      534      534        /* TOU$MERGE                      190 - 199 */
PL6.E3A0      #001=TOT$ERRMSGS File=TOT$ERRMSGS.:E05TSI                          WED 07/30/97 06:36 Page:87
      535      535           %EJECT ;
PL6.E3A0      #001=TOT$ERRMSGS File=TOT$ERRMSGS.:E05TSI                          WED 07/30/97 06:36 Page:88
      536      536        /* DEER ERROR Codes */
      537      537
      538      538        /* TOU$DE                         200 - 204 */
      539      539
      540      540        /* TOU$DU                         205 - 249 */
      541      541
      542      542        /* TOU$DFU                        250 - 299 */
      543      543
      544      544        /* TOU$BREAK                      300 - 309 */
      545      545
      546      546        /* TOU$CHECKS                     310 - 319 */
      547      547
      548      548        /* TOU$DEBLOCKER                  320 - 339 */
      549      549
      550      550        /* TOU$GET_CARD                   340 - 379 */
      551      551
      552      552        /* TOU$BUILD                      380 - 399 */
      553      553
      554      554        /* TOU$LIST                       400 - 419 */
      555      555
      556      556        /* TOU$SHOWDECK                   420 - 439 */
      557      557
      558      558        /* TOU$NEWCAT                     440 - 459 */
      559      559
      560      560        /* TOU$NEWDECK                    460 - 479 */
      561      561
      562      562        /* TOU$REPDECK                    480 - 499 */
      563      563
      564      564        /* TOU$REMREF                     500 - 519 */
      565      565
      566      566        /* TOU$DELDECK                    520 - 539 */
      567      567
      568      568        /* TOU$DELPATCH                   540 - 559 */
      569      569
      570      570        /* TOU$PATCH                      560 - 579 */
      571      571
      572      572        /* TOU$UPDATE                     580 - 599 */
PL6.E3A0      #001=TOT$ERRMSGS File=TOT$ERRMSGS.:E05TSI                          WED 07/30/97 06:36 Page:89
      573      573
      574      574        /* TOU$MERGE                      600 - 699 */
      575      575           %EJECT ;
PL6.E3A0      #001=TOT$ERRMSGS File=TOT$ERRMSGS.:E05TSI                          WED 07/30/97 06:36 Page:90
      576      576        /* DEER HEADER Codes */
      577      577
      578      578        /* TOU$DE                         700 - 709 */
      579      579
      580      580        /* TOU$BUILD                      710 - 719 */
      581      581
      582      582        /* TOU$LIST                       720 - 729 */
      583      583
      584      584        /* TOU$SHOWDECK                   730 - 739 */
      585      585
      586      586        /* TOU$SHOWFILE                   740 - 749 */
      587      587
      588      588        /* TOU$NEWCAT                     750 - 759 */
      589      589
      590      590        /* TOU$NEWDECK                    760 - 769 */
      591      591
      592      592        /* TOU$REPDECK                    770 - 779 */
      593      593
      594      594        /* TOU$REMREF                     780 - 789 */
      595      595
      596      596        /* TOU$DELDECK                    790 - 799 */
      597      597
      598      598        /* TOU$DELPATCH                   800 - 809 */
      599      599
      600      600        /* TOU$DELCAT                     810 - 819 */
      601      601
      602      602        /* TOU$PATCH                      820 - 829 */
      603      603
      604      604        /* TOU$UPDATE                     830 - 839 */
      605      605
      606      606        /* TOU$HELP                       840 - 849 */
      607      607
      608      608        /* TOU$MERGE                      850 - 859 */
      609      609
      610      610        /* End of DEER EQUates */
      611      611        %EJECT ;
PL6.E3A0      #001=TOT$ERRMSGS File=TOT$ERRMSGS.:E05TSI                          WED 07/30/97 06:36 Page:91
      612      612        /* General Purpose Messages */
      613      613
      614      614        /*E* ERROR:   TOU-T$BLANK_LINE
      615      615             MESSAGE:
      616      616        */
      617      617        /*E* ERROR:   TOU-T$SHOW_IFAD
      618      618             MESSAGE:    IFAD File Identifier:     ~IFAD_FID
      619      619        */
      620      620        /*E* ERROR:   TOU-T$SHOW_DF
      621      621             MESSAGE:    Deckfile File Identifier: ~DF_FID
      622      622        */
      623      623        /*E* ERROR:   TOU-T$BREAK_ABORT
      624      624             MESSAGE: **** DEER command aborted
      625      625        */
      626      626
      627      627        /* TOU$DE messages */
      628      628
      629      629        /*E* ERROR:   TOU-T$START_DEER
      630      630             MESSAGE: DEER Version ~RU    ~RLINK   on ~LDATE   at ~TIME
      631      631        */
      632      632        /*E* ERROR:   TOU-T$END_DEER
      633      633             MESSAGE: DEER Version ~RU    off ~LDATE   at ~TIME
      634      634        */
      635      635
      636      636        /* TOU$BUILD messages */
      637      637
      638      638        /*E* ERROR:   TOU-T$B_SUCCESS
      639      639             MESSAGE: Build successful.
      640      640        */
      641      641        /*E* ERROR:   TOU-T$B_FAILURE
      642      642             MESSAGE: The deckfile was not built.
      643      643        */
      644      644        /*E* ERROR:   TOU-T$B_MASTER
      645      645         MESSAGE:                                                    ~CAT
               645             ~CD
      646      646        */
      647      647        /*E* ERROR:   TOU-T$B_CATALOG
PL6.E3A0      #001=TOT$ERRMSGS File=TOT$ERRMSGS.:E05TSI                          WED 07/30/97 06:36 Page:92
      648      648         MESSAGE:                                                    ~CAT
               648             ~CD     ~EM
      649      649        */
      650      650        /*E* ERROR:   TOU-T$B_GECALL
      651      651         MESSAGE: ~GECAL ~LBL  ~LOAD  ~DATE     ~SE         ~REVIS   ~ENT
               651             ~DECK   ~EN        ~MSZ
      652      652        */
      653      653        /*E* ERROR:   TOU-T$B_ITR
      654      654         MESSAGE:        ~LBL  ~CLAS  ~DATE     ~ID     ~MODEL  ~R   ~ENT
               654             ~DECK   ~EN        ~MSZ
      655      655        */
      656      656        /*E* ERROR:   TOU-T$B_MDR
      657      657         MESSAGE: ~GECAL ~LBL  ~CLAS  ~DATE     ~ID     ~MODEL  ~R   ~ENT
               657             ~DECK   ~EN        ~MSZ
      658      658        */
      659      659        /*E* ERROR:   TOU-T$B_INFORM_BUILD
      660      660             MESSAGE: Completed catalog ~CAT                  ~EC    entries from file ~FM
      661      661        */
      662      662        /*E* ERROR:   TOU-T$B_MC_INFORM
      663      663             MESSAGE: Completed catalog ~CAT                  ~EC    master entries
      664      664        */
      665      665        /*E* ERROR:   TOU-T$B_PATCHES_WERE
      666      666             MESSAGE: The following patch cards were found for (~LBL) ~ENT
      667      667        */
      668      668        /*E* ERROR:   TOU-T$B_PATCH
      669      669             MESSAGE: ~PATCH
      670      670        */
      671      671        /*E* ERROR:   TOU-T$B_INFORM_COPY
      672      672             MESSAGE: Completed catalog ~CAT                  ~EC    entries copied
      673      673        */
      674      674
      675      675        /* TOU$LIST messages */
      676      676
      677      677        /*E* ERROR:   TOU-T$L_SUCCESS
      678      678             MESSAGE: List successful.
      679      679        */
      680      680        /*E* ERROR:   TOU-T$L_FAILURE
PL6.E3A0      #001=TOT$ERRMSGS File=TOT$ERRMSGS.:E05TSI                          WED 07/30/97 06:36 Page:93
      681      681             MESSAGE: An incomplete or no DEER Edit Listing was produced.
      682      682        */
      683      683        /*E* ERROR:   TOU-T$L_INFORM
      684      684             MESSAGE: Listed catalog ~CAT                  ~EC    entries from file ~F2
      685      685        */
      686      686        /*E* ERROR:   TOU-T$L_MC_INFORM
      687      687             MESSAGE: Listed catalog ~CAT                  ~EC    master entries
      688      688        */
      689      689        /*E* ERROR:   TOU-T$L_LOG_INFORM
      690      690             MESSAGE: Listed history log
      691      691        */
      692      692
      693      693        /* TOU$SHOWDECK messages */
      694      694
      695      695        /*E* ERROR:   TOU-T$SD_SUCCESS
      696      696             MESSAGE: Object deck successfully shown.
      697      697        */
      698      698        /*E* ERROR:   TOU-T$SD_FAILURE
      699      699             MESSAGE: Attempt to show object deck failed.
      700      700        */
      701      701        /*E* ERROR:   TOU-T$SD_DECK
      702      702             MESSAGE: Object Deck: ~ENT                    From: ~DF_FID
      703      703        */
      704      704        /*E* ERROR:   TOU-T$SD_ITR_TABLE
      705      705        MESSAGE: --------------------------------------------------------------------------
               705        ------
      706      706                             Library:         ~LIB                    Deck Number:    ~DECK
      707      707                              Load Type:       ~LOAD                   Load Size:      ~MSZ
      708      708                              Deck Type:       ~CLAS                   Binary Count:   ~BCT
      709      709                              Assembler Type:  ~A                      Total Count:    ~TCT
      710      710                            Title Date:      ~DATE                   Model:          ~MODEL
      711      711                            Edit Name:       ~LBL                    Revision:       ~REVIS
      712      712        */
      713      713        /*E* ERROR:   TOU-T$SD_MDR_TABLE
      714      714        MESSAGE: --------------------------------------------------------------------------
               714        ------
      715      715                             Library:         ~LIB                    Deck Number:    ~DECK
PL6.E3A0      #001=TOT$ERRMSGS File=TOT$ERRMSGS.:E05TSI                          WED 07/30/97 06:36 Page:94
      716      716                              Load Type:       ~LOAD                   Load Size:      ~MSZ
      717      717                              Deck Type:       ~CLAS                   Binary Count:   ~BCT
      718      718                              Assembler Type:  ~A                      Total Count:    ~TCT
      719      719                            Title Date:      ~DATE                   Model:          ~MODEL
      720      720                            Edit Name:       ~LBL                    Call Name:      ~GECAL
      721      721                                                                     Revision:       ~REVIS
      722      722        */
      723      723        /*E* ERROR:   TOU-T$SD_GECALL_TABLE
      724      724        MESSAGE: --------------------------------------------------------------------------
               724        ------
      725      725                             Library:         ~LIB                    Deck Number:    ~DECK
      726      726                              Load Type:       ~LOAD                   Load Size:      ~MSZ
      727      727                              Subsystem Type:  ~SE                     Binary Count:   ~BCT
      728      728                              Assembler Type:  ~A                      Total Count:    ~TCT
      729      729                            Title Date:      ~DATE                   Call Name:      ~GECAL
      730      730                            Edit Name:       ~LBL                    Assembly Date:  ~REVIS
      731      731        */
      732      732        /*E* ERROR:   TOU-T$SD_OBJECT
      733      733        MESSAGE: --------------------------------------------------------------------------
               733        ------
      734      734                      ~OBJ
      735      735        */
      736      736        /*E* ERROR:   TOU-T$SD_SEPARATOR
      737      737        MESSAGE: --------------------------------------------------------------------------
               737        ------
      738      738        */
      739      739        /*E* ERROR:   TOU-T$SD_REFS
      740      740             MESSAGE: ~ENT                    is referenced as:
      741      741        */
      742      742        /*E* ERROR:   TOU-T$SD_CATALOG
      743      743             MESSAGE:    Entry number ~EN    of catalog ~CAT
      744      744        */
      745      745        /*E* ERROR:   TOU-T$SD_PATCH
      746      746             MESSAGE: ~PATCH
      747      747        */
      748      748        /*E* ERROR:   TOU-T$SD_NIO_TABLE
      749      749        MESSAGE: --------------------------------------------------------------------------
PL6.E3A0      #001=TOT$ERRMSGS File=TOT$ERRMSGS.:E05TSI                          WED 07/30/97 06:36 Page:95
               749        ------
      750      750                             Library:         ~LIB                    Deck Number:    ~DECK
      751      751                              Load Type:       ~LOAD                   Load Size:      ~MSZ
      752      752                              Deck Type:       ~CLAS                   Binary Count:   ~BCT
      753      753                              Assembler Type:  ~A                      Total Count:    ~TCT
      754      754                          Title Date:      ~DATE                   Model:            ~MODEL
      755      755                            Edit Name:       ~LBL                    Revision:       ~REVIS
      756      756        */
      757      757
      758      758        /* TOU$SHOWFILE messages */
      759      759
      760      760        /*E* ERROR:   TOU-T$SF_SUCCESS
      761      761             MESSAGE: Deckfile history successfully shown.
      762      762        */
      763      763        /*E* ERROR:   TOU-T$SF_FAILURE
      764      764             MESSAGE: The history of the deckfile was not shown.
      765      765        */
      766      766        /*E* ERROR:   TOU-T$SF_BUILD
      767      767             MESSAGE: ~HLGDATE  ~HLGTIME     Built from ~HLGIFAD
      768      768                                             ~HLGCATALOG
      769      769        */
      770      770        /*E* ERROR:   TOU-T$SF_NEWCAT
      771      771             MESSAGE: ~HLGDATE  ~HLGTIME     Added catalog ~HLGCATALOG
      772      772                                             from ~HLGIFAD
      773      773        */
      774      774        /*E* ERROR:   TOU-T$SF_NEWDECK
      775      775             MESSAGE: ~HLGDATE  ~HLGTIME     Added object deck ~HLGDECK
      776      776                                             to ~HLGCATALOG
      777      777                                             from ~HLGIFAD
      778      778        */
      779      779        /*E* ERROR:   TOU-T$SF_REPDECK
      780      780             MESSAGE: ~HLGDATE  ~HLGTIME     Replaced object deck ~HLGDECK
      781      781                                             from ~HLGIFAD
      782      782        */
      783      783        /*E* ERROR:   TOU-T$SF_REMREF
      784      784             MESSAGE: ~HLGDATE  ~HLGTIME     Object deck ~HLGDECK
      785      785                                             is no longer referenced by ~HLGCATALOG
PL6.E3A0      #001=TOT$ERRMSGS File=TOT$ERRMSGS.:E05TSI                          WED 07/30/97 06:36 Page:96
      786      786        */
      787      787        /*E* ERROR:   TOU-T$SF_DELDECK
      788      788             MESSAGE: ~HLGDATE  ~HLGTIME     Deleted object deck ~HLGDECK
      789      789        */
      790      790        /*E* ERROR:   TOU-T$SF_DELCAT
      791      791             MESSAGE: ~HLGDATE  ~HLGTIME     Deleted catalog ~HLGCATALOG
      792      792        */
      793      793        /*E* ERROR:   TOU-T$SF_DELPATCH
      794      794             MESSAGE: ~HLGDATE  ~HLGTIME     Deleted patches for object deck ~HLGDECK
      795      795        */
      796      796        /*E* ERROR:   TOU-T$SF_PATCH
      797      797             MESSAGE: ~HLGDATE  ~HLGTIME     Patched object deck ~HLGDECK
      798      798                                             from ~HLGIFAD
      799      799        */
      800      800        /*E* ERROR:   TOU-T$SF_UPDATE
      801      801             MESSAGE: ~HLGDATE  ~HLGTIME     Updated from ~HLGIFAD
      802      802        */
      803      803        /*E* ERROR:   TOU-T$SF_SITE
      804      804         MESSAGE: ~WSN
               804        ~WSI
      805      805                      --------  -----------  ----------------------
      806      806                      Date      Time         Modification Performed
      807      807                      --------  -----------  ----------------------
      808      808        */
      809      809        /*E* ERROR:   TOU-T$SF_MERGE1
      810      810             MESSAGE: ~HLGDATE  ~HLGTIME     Merge created ~HLGCATALOG
      811      811                                             from ~HLGIFAD
      812      812        */
      813      813        /*E* ERROR:   TOU-T$SF_MERGE2
      814      814             MESSAGE: ~HLGDATE  ~HLGTIME     Merge extended ~HLGCATALOG
      815      815                                             from ~HLGIFAD
      816      816        */
      817      817        /*E* ERROR:   TOU-T$SF_COPY
      818      818             MESSAGE: ~HLGDATE  ~HLGTIME     Copied ~HLGCATALOG
      819      819                                             from ~HLGIFAD
      820      820        */
      821      821
PL6.E3A0      #001=TOT$ERRMSGS File=TOT$ERRMSGS.:E05TSI                          WED 07/30/97 06:36 Page:97
      822      822        /* TOU$NEWCAT messages */
      823      823
      824      824        /*E* ERROR:   TOU-T$NC_SUCCESS
      825      825             MESSAGE: New catalog successfully added.
      826      826        */
      827      827        /*E* ERROR:   TOU-T$NC_FAILURE
      828      828             MESSAGE: The new catalog was not added.
      829      829        */
      830      830        /*E* ERROR:   TOU-T$NC_INFORM
      831      831             MESSAGE: Added catalog ~CAT                  ~EC    entries from file ~FM
      832      832        */
      833      833
      834      834        /* TOU$NEWDECK messages */
      835      835
      836      836        /*E* ERROR:   TOU-T$ND_SUCCESS
      837      837             MESSAGE: New deck successfully added.
      838      838        */
      839      839        /*E* ERROR:   TOU-T$ND_FAILURE
      840      840             MESSAGE: The new object deck was not added.
      841      841        */
      842      842        /*E* ERROR:   TOU-T$ND_INFORM
      843      843             MESSAGE: Added deck ~ENT                    to catalog ~CAT
      844      844        */
      845      845        /*E* ERROR:   TOU-T$ND_CATALOG
      846      846         MESSAGE:                                                    ~CAT
               846             ~CD
      847      847        */
      848      848        /*E* ERROR:   TOU-T$ND_MULT_CATALOGS
      849      849             MESSAGE: There are ~COL catalogs with catalog key ~CAT
      850      850        */
      851      851        /*E* ERROR:   TOU-T$ND_CATALOG_CHOICE
      852      852             MESSAGE:    Master Entry Number: ~EM
      853      853        */
      854      854        /*E* ERROR:   TOU-T$ND_CATALOG_DIRECTIONS
      855      855             MESSAGE: Input the master entry number of the catalog to be used.
      856      856                      Refer to the DEER printout (deckfile listing) for information.
      857      857        */
PL6.E3A0      #001=TOT$ERRMSGS File=TOT$ERRMSGS.:E05TSI                          WED 07/30/97 06:36 Page:98
      858      858
      859      859        /* TOU$REPDECK messages */
      860      860
      861      861        /*E* ERROR:   TOU-T$RD_SUCCESS
      862      862             MESSAGE: Deck successfully replaced.
      863      863        */
      864      864        /*E* ERROR:   TOU-T$RD_FAILURE
      865      865             MESSAGE: The object deck was not replaced.
      866      866        */
      867      867        /*E* ERROR:   TOU-T$RD_GECALL
      868      868         MESSAGE: ~GECAL ~LBL  ~LOAD  ~DATE     ~SE         ~REVIS   ~ENT
               868             ~DECK              ~MSZ
      869      869        */
      870      870        /*E* ERROR:   TOU-T$RD_ITR
      871      871         MESSAGE:        ~LBL  ~CLAS  ~DATE     ~ID     ~MODEL  ~R   ~ENT
               871             ~DECK              ~MSZ
      872      872        */
      873      873        /*E* ERROR:   TOU-T$RD_MDR
      874      874         MESSAGE: ~GECAL ~LBL  ~CLAS  ~DATE     ~ID     ~MODEL  ~R   ~ENT
               874             ~DECK              ~MSZ
      875      875        */
      876      876        /*E* ERROR:   TOU-T$RD_INFORM
      877      877             MESSAGE: Replaced deck ~IMAGE                  with ~ENT
      878      878        */
      879      879
      880      880        /* TOU$REMREF messages */
      881      881
      882      882        /*E* ERROR:   TOU-T$RR_SUCCESS
      883      883             MESSAGE: Reference successfully removed.
      884      884        */
      885      885        /*E* ERROR:   TOU-T$RR_FAILURE
      886      886             MESSAGE: The catalog reference was not removed.
      887      887        */
      888      888        /*E* ERROR:   TOU-T$RR_INFORM
      889      889             MESSAGE: Removed entry for ~ENT                    from ~CAT
      890      890        */
      891      891        /*E* ERROR:   TOU-T$RR_CAT_NO_REFS
PL6.E3A0      #001=TOT$ERRMSGS File=TOT$ERRMSGS.:E05TSI                          WED 07/30/97 06:36 Page:99
      892      892             MESSAGE: Catalog no longer references any object decks and will be deleted.
      893      893                      (This may take a few minutes... please be patient.)
      894      894        */
      895      895
      896      896        /* TOU$DELDECK messages */
      897      897
      898      898        /*E* ERROR:   TOU-T$DD_SUCCESS
      899      899             MESSAGE: Deck successfully deleted.
      900      900        */
      901      901        /*E* ERROR:   TOU-T$DD_FAILURE
      902      902             MESSAGE: The object deck was not deleted.
      903      903        */
      904      904        /*E* ERROR:   TOU-T$DD_INFORM
      905      905             MESSAGE: Deleted deck ~ENT
      906      906        */
      907      907        /*E* ERROR:   TOU-T$DD_DEL_CAT
      908      908             MESSAGE: Deleted catalog ~CAT
      909      909        */
      910      910        /*E* ERROR:   TOU-T$DD_DEL_DF
      911      911             MESSAGE: Deckfile no longer references any catalogs.
      912      912                      Deleted deckfile ~DF_FID
      913      913        */
      914      914
      915      915        /* TOU$DELPATCH messages */
      916      916
      917      917        /*E* ERROR:   TOU-T$DP_SUCCESS
      918      918             MESSAGE: Patches successfully deleted.
      919      919        */
      920      920        /*E* ERROR:   TOU-T$DP_FAILURE
      921      921             MESSAGE: No patches were deleted.
      922      922        */
      923      923        /*E* ERROR:   TOU-T$DP_INFORM
      924      924             MESSAGE: Deleted patches for ~ENT
      925      925        */
      926      926
      927      927        /* TOU$DELCAT messages */
      928      928
PL6.E3A0      #001=TOT$ERRMSGS File=TOT$ERRMSGS.:E05TSI                          WED 07/30/97 06:36 Page:100
      929      929        /*E* ERROR:   TOU-T$DC_SUCCESS
      930      930             MESSAGE: Catalog successfully deleted.
      931      931        */
      932      932        /*E* ERROR:   TOU-T$DC_FAILURE
      933      933             MESSAGE: The catalog was not deleted.
      934      934        */
      935      935        /*E* ERROR:   TOU-T$DC_REMREF
      936      936             MESSAGE: Removed reference to ~ENT
      937      937        */
      938      938
      939      939        /* TOU$PATCH messages */
      940      940
      941      941        /*E* ERROR:   TOU-T$P_SUCCESS
      942      942             MESSAGE: Deck successfully patched.
      943      943        */
      944      944        /*E* ERROR:   TOU-T$P_FAILURE
      945      945             MESSAGE: No patches were added.
      946      946        */
      947      947        /*E* ERROR:   TOU-T$P_INFORM
      948      948             MESSAGE: Patched deck ~ENT
      949      949        */
      950      950        /*E* ERROR:   TOU-T$P_OVERWRITE
      951      951             MESSAGE: IFAD input file contains patches that will replace existing patches.
      952      952        */
      953      953
      954      954        /* TOU$UPDATE messages */
      955      955
      956      956        /*E* ERROR:   TOU-T$U_SUCCESS
      957      957            MESSAGE: The Update function is an unimplemented feature of the DEER processor.
      958      958        */
      959      959        /*E* ERROR:   TOU-T$U_FAILURE
      960      960             MESSAGE: Update attempt failed.
      961      961        */
      962      962        /*E* ERROR:   TOU-T$U_INFORM1
      963      963             MESSAGE: Updated ~CAT
      964      964        */
      965      965        /*E* ERROR:   TOU-T$U_INFORM2
PL6.E3A0      #001=TOT$ERRMSGS File=TOT$ERRMSGS.:E05TSI                          WED 07/30/97 06:36 Page:101
      966      966             MESSAGE: Updated ~ENT
      967      967        */
      968      968
      969      969        /* TOU$HELP messages */
      970      970
      971      971        /*E* ERROR:   TOU-T$H_NO_MORE
      972      972             MESSAGE: No more HELP available for that topic.
      973      973        */
      974      974        /*E* ERROR:   TOU-T$H_END_TOPIC
      975      975             MESSAGE: End of topic.
      976      976        */
      977      977
      978      978        /* TOU$MERGE messages */
      979      979
      980      980        /*E* ERROR:   TOU-T$M_SUCCESS
      981      981             MESSAGE: Diskette merge successful.
      982      982        */
      983      983        /*E* ERROR:   TOU-T$M_FAILURE
      984      984             MESSAGE: Diskette not merged.
      985      985        */
      986      986        /*E* ERROR:   TOU-T$M_INFORM1
      987      987             MESSAGE: Extended catalog ~CAT                  ~EC    entries from file ~F2
      988      988        */
      989      989        /*E* ERROR:   TOU-T$M_INFORM2
      990      990             MESSAGE: Created catalog ~CAT                  ~EC    entries from file ~F2
      991      991        */
      992      992
      993      993        /* TOU$DE error messages */
      994      994
      995      995        /*E* ERROR:   TOU-E$DSBH_BREAK
      996      996             MESSAGE: *** Attempt to establish DEER condition handling failed.
      997      997        */
      998      998
      999      999        /* TOU$DU error messages */
     1000     1000
     1001     1001        /*E* ERROR:   TOU-E$DSIF_NO_IFAD
     1002     1002        MESSAGE: * The IFAD file identifier must be entered as part of the DEER command sin
PL6.E3A0      #001=TOT$ERRMSGS File=TOT$ERRMSGS.:E05TSI                          WED 07/30/97 06:36 Page:102
              1002        ce a
     1003     1003                        valid  !SET M$IFAD <fid>  was not issued before DEER was invoked.
     1004     1004        */
     1005     1005        /*E* ERROR:   TOU-E$DIFH_NOT_ME
     1006     1006             MESSAGE: * IFAD input may not come from device 'ME' for this DEER command.
     1007     1007                        IFAD  may  only  be associated with 'ME' for the PATCH command.
     1008     1008        */
     1009     1009        /*E* ERROR:   TOU-E$DIFH_FID_ERROR
     1010     1010             MESSAGE: *** Attempt to set up IFAD FID from entered value failed: ~IFAD_FID
     1011     1011        */
     1012     1012        /*E* ERROR:   TOU-E$DIFM_DEVICE
     1013     1013             MESSAGE: * Invalid device selected for IFAD input: ~IFAD_FID
     1014     1014                        IFAD may be set to a Free Tape (FT#nnnnnn) device for:
     1015     1015                             BUILD  NEWCAT  NEWDECK  REPDECK  PATCH  UPDATE
     1016     1016                        IFAD may be set to the user terminal (ME) for:
     1017     1017                             PATCH
     1018     1018                        IFAD must be set to an IMX (IMXnn) for:
     1019     1019                             MERGE
     1020     1020                        All other DEVICES are illegal.
     1021     1021        */
     1022     1022        /*E* ERROR:   TOU-E$DIFM_ASN
     1023     1023           MESSAGE: * Labelled Tapes and Comgroups are not valid as IFAD input identifiers.
     1024     1024                  IFAD input must be of type  FILE (disk file) or DEVICE (Free Tape or ME).
     1025     1025        */
     1026     1026        /*E* ERROR:   TOU-E$DITFM_ERROR
     1027     1027             MESSAGE: *** Attempt to set IFAD tape fid from the DCB merge file failed.
     1028     1028        */
     1029     1029        /*E* ERROR:   TOU-E$DIDFM_ERROR
     1030     1030             MESSAGE: *** Attempt to set IFAD disk fid from the DCB merge file failed.
     1031     1031        */
     1032     1032        /*E* ERROR:   TOU-E$DOI_NO_FILE
     1033     1033             MESSAGE: ** IFAD Input file does not exist: ~IFAD_FID
     1034     1034        */
     1035     1035        /*E* ERROR:   TOU-E$DOI_ALREADY_OPEN
     1036     1036             MESSAGE: *** IFAD file is already open: ~IFAD_FID
     1037     1037                          DCB being closed now. Retry editor command.
     1038     1038        */
PL6.E3A0      #001=TOT$ERRMSGS File=TOT$ERRMSGS.:E05TSI                          WED 07/30/97 06:36 Page:103
     1039     1039        /*E* ERROR:   TOU-E$DOI_OPEN_ERROR
     1040     1040             MESSAGE: *** Attempt to open IFAD failed: ~IFAD_FID
     1041     1041        */
     1042     1042        /*E* ERROR:   TOU-E$DNI_CVOL_ERROR
     1043     1043             MESSAGE: *** Attempt to mount next IFAD volume failed: ~IFAD_FID
     1044     1044        */
     1045     1045        /*E* ERROR:   TOU-E$DCI_CLOSE_ERROR
     1046     1046             MESSAGE: *** Attempt to close IFAD failed: ~IFAD_FID
     1047     1047        */
     1048     1048        /*E* ERROR:   TOU-E$DDFH_ASN
     1049     1049             MESSAGE: * Invalid deckfile identifier: ~DF_FID
     1050     1050                        Deckfiles may only be specified as disk files.
     1051     1051        */
     1052     1052        /*E* ERROR:   TOU-E$DDFH_FID_ERROR
     1053     1053             MESSAGE: *** Attempt to set up DECKFILE FID from entered value failed.
     1054     1054                          Deckfiles may only be specified by legal disk files identifiers.
     1055     1055        */
     1056     1056        /*E* ERROR:   TOU-E$DDFM_ASN
     1057     1057             MESSAGE: * M$DECKFILE has been !SET to an invalid deckfile identifier.
     1058     1058                        Deckfiles may only be specified as disk files.
     1059     1059        */
     1060     1060        /*E* ERROR:   TOU-E$DDFM_ERROR
     1061     1061             MESSAGE: *** Attempt to set DECKFILE FID from the DCB merge file failed.
     1062     1062        */
     1063     1063        /*E* ERROR:   TOU-E$DOD_CANT_OVERWRITE
     1064     1064        MESSAGE: ** The DEER BUILD command will not overwrite an existing deckfile when the
              1064         ON
     1065     1065                         is used. Use the OVER option to replace ~DF_FID
     1066     1066                         B/UILD [<ifad fid>] OVER <deckfile fid>
     1067     1067        */
     1068     1068        /*E* ERROR:   TOU-E$DOD_CANT_ACCESS
     1069     1069             MESSAGE: ** Privileges currently not granted to access ~DF_FID
     1070     1070                         Contact your supervisor or assign needed privileges. (!PRIV ALL)
     1071     1071        */
     1072     1072        /*E* ERROR:   TOU-E$DOD_NO_FILE
     1073     1073             MESSAGE: ** The deckfile does not exist: ~DF_FID
     1074     1074        */
PL6.E3A0      #001=TOT$ERRMSGS File=TOT$ERRMSGS.:E05TSI                          WED 07/30/97 06:36 Page:104
     1075     1075        /*E* ERROR:   TOU-E$DOD_ALREADY_OPEN
     1076     1076             MESSAGE: *** The deckfile is already open: ~DF_FID
     1077     1077                          DCB being closed now. Retry editor command.
     1078     1078        */
     1079     1079        /*E* ERROR:   TOU-E$DOD_OPEN_ERROR
     1080     1080             MESSAGE: *** Attempt to open deckfile failed: ~DF_FID
     1081     1081        */
     1082     1082        /*E* ERROR:   TOU-E$DCD_CLOSE_ERROR
     1083     1083             MESSAGE: *** Attempt to close deckfile failed: ~DF_FID
     1084     1084        */
     1085     1085        /*E* ERROR:   TOU-E$DUR_READ
     1086     1086             MESSAGE: *** Attempt to obtain user input failed.
     1087     1087        */
     1088     1088        /*E* ERROR:   TOU-E$DPW_WRITE
     1089     1089             MESSAGE: *** Attempt to write text to the DEER Listing failed.
     1090     1090        */
     1091     1091        /*E* ERROR:   TOU-E$DHW_WRITE
     1092     1092             MESSAGE: *** Attempt to write header on DEER Listing failed.
     1093     1093        */
     1094     1094        /*E* ERROR:   TOU-E$DSEP_PROMPT
     1095     1095             MESSAGE: *** Attempt to set the edit prompt failed.
     1096     1096        */
     1097     1097        /*E* ERROR:   TOU-E$DSP_PROMPT
     1098     1098             MESSAGE: *** Attempt to set the prompt to a specified value failed.
     1099     1099        */
     1100     1100        /*E* ERROR:   TOU-E$DGDS_GDS
     1101     1101             MESSAGE: *** Attempt to obtain dynamic space failed.
     1102     1102        */
     1103     1103        /*E* ERROR:   TOU-E$DFDS_FDS
     1104     1104             MESSAGE: *** Attempt to free dynamic space failed.
     1105     1105        */
     1106     1106        /*E* ERROR:   TOU-E$DUL_TOO_MANY
     1107     1107         MESSAGE: ** No space available in the deckfile history log. The change will not be
     1108     1108                      saved in the history log,  but the command will otherwise continue as
     1109     1109                         normal.
     1110     1110        */
     1111     1111        /*E* ERROR:   TOU-E$DSIIN_BAD_IMX#
PL6.E3A0      #001=TOT$ERRMSGS File=TOT$ERRMSGS.:E05TSI                          WED 07/30/97 06:36 Page:105
     1112     1112             MESSAGE: *** Invalid IMX number entered: ~IFAD_FID
     1113     1113        */
     1114     1114        /*E* ERROR:   TOU-E$DSIIN_NOT_IMX
     1115     1115             MESSAGE: *** Invalid IFAD identifier: ~IFAD_FID
     1116     1116                          An IMX must be specified for this DEER command.
     1117     1117        */
     1118     1118        /*E* ERROR:   TOU-E$DOW_MSG_TOO_LONG
     1119     1119             MESSAGE: Operator messages are limited to 120 characters.
     1120     1120        */
     1121     1121        /*E* ERROR:   TOU-E$DIOM_MSG
     1122     1122             MESSAGE: ** Attempt to send an operator message failed.
     1123     1123        */
     1124     1124        /*E* ERROR:   TOU-E$DOT_NO_TEXT
     1125     1125             MESSAGE: Text to be sent to the operator contains a blank line.
     1126     1126        */
     1127     1127        /*E* ERROR:   TOU-E$DMRS_MCA
     1128     1128             MESSAGE: *** Attempt to issue reset status to MCA failed.
     1129     1129        */
     1130     1130
     1131     1131        /* TOU$DFU error messages */
     1132     1132
     1133     1133        /*E* ERROR:   TOU-E$DRMC_NO_MAST_CNTRL
     1134     1134             MESSAGE: *** Attempt to read the MASTER CONTROL failed.
     1135     1135                          Master Control Key: MASTER_CATALOG
     1136     1136        */
     1137     1137        /*E* ERROR:   TOU-E$DRME_NO_MAST_ENTRY
     1138     1138             MESSAGE: *** Attempt to read a MASTER ENTRY failed.
     1139     1139                          Master Entry Number: ~EM
     1140     1140        */
     1141     1141        /*E* ERROR:   TOU-E$DRCC_NO_CAT_CNTRL
     1142     1142             MESSAGE: *** Attempt to read a CATALOG CONTROL failed.
     1143     1143                          Catalog: ~CAT
     1144     1144                          Catalog Deck Number: ~CD
     1145     1145        */
     1146     1146        /*E* ERROR:   TOU-E$DRS_NO_SUBCAT
     1147     1147             MESSAGE: *** Attempt to read a SUBCATALOG failed.
     1148     1148                          Catalog: ~CAT
PL6.E3A0      #001=TOT$ERRMSGS File=TOT$ERRMSGS.:E05TSI                          WED 07/30/97 06:36 Page:106
     1149     1149                          Catalog Deck Number:  ~CD
     1150     1150        */
     1151     1151        /*E* ERROR:   TOU-E$DRCE_NO_CAT_ENTRY
     1152     1152             MESSAGE: *** Attempt to read a CATALOG ENTRY failed.
     1153     1153                          Catalog: ~CAT
     1154     1154                          Catalog Deck Number:  ~CD
     1155     1155                          Catalog Entry Number: ~EN
     1156     1156        */
     1157     1157        /*E* ERROR:   TOU-E$DRO_DECK_NO_OBJECT
     1158     1158             MESSAGE: *** Object deck does not start with a $OBJECT Card.
     1159     1159                          Read of object card failed.
     1160     1160                          Object Key: ~ENT
     1161     1161        */
     1162     1162        /*E* ERROR:   TOU-E$DRO_NO_OBJECT
     1163     1163             MESSAGE: *** Attempt to read an OBJECT card failed.
     1164     1164                          Object Key: ~ENT
     1165     1165        */
     1166     1166        /*E* ERROR:   TOU-E$DRB_BAD_BINARY
     1167     1167             MESSAGE: *** Attempt to read a BINARY deck failed.
     1168     1168                          Deck Key: ~DECK
     1169     1169        */
     1170     1170        /*E* ERROR:   TOU-E$DRBC_BAD_DECK
     1171     1171             MESSAGE: *** Object deck does not end with a $DKEND Card.
     1172     1172                          Read of BCD cards failed.
     1173     1173                          Object Key: ~ENT
     1174     1174                          Deck Key:   ~DECK
     1175     1175        */
     1176     1176        /*E* ERROR:   TOU-E$DRBC_NO_BCD_CARDS
     1177     1177             MESSAGE: *** Attempt to read BCD CARDS failed.
     1178     1178                          Object Key: ~ENT
     1179     1179                          Deck Key:   ~DECK
     1180     1180        */
     1181     1181        /*E* ERROR:   TOU-E$DROR_NO_REFLST
     1182     1182             MESSAGE: *** Attempt to read an OBJECT REFLIST failed.
     1183     1183                          Object Key:   ~ENT
     1184     1184                          Deck Key:     ~DECK
     1185     1185        */
PL6.E3A0      #001=TOT$ERRMSGS File=TOT$ERRMSGS.:E05TSI                          WED 07/30/97 06:36 Page:107
     1186     1186        /*E* ERROR:   TOU-E$DRLD_NO_LAST_DECK#
     1187     1187             MESSAGE: *** Attempt to read the LAST DECK# failed.
     1188     1188                          Last Deck Number Key: LAST_DECK
     1189     1189        */
     1190     1190        /*E* ERROR:   TOU-E$DCAS_READ_ERROR
     1191     1191             MESSAGE: *** Attempt to check if object deck saved failed.
     1192     1192                          Object Key:   ~ENT
     1193     1193        */
     1194     1194        /*E* ERROR:   TOU-E$DCAS_MISMATCH
     1195     1195           MESSAGE: *** Object deck ~LBL on file ~FN is duplicate deck but data mismatches.
     1196     1196                          Object Key:   ~ENT
     1197     1197        */
     1198     1198        /*E* ERROR:   TOU-E$DCFK_READ_ERROR
     1199     1199             MESSAGE: *** Attempt to check for object deck key failed.
     1200     1200                          Object Key:   ~ENT
     1201     1201        */
     1202     1202        /*E* ERROR:   TOU-E$DDCE_BAD_DEL
     1203     1203             MESSAGE: *** Attempt to delete a CATALOG ENTRY failed.
     1204     1204                          Catalog Deck Number:  ~CD
     1205     1205                          Catalog Entry Number: ~EN
     1206     1206        */
     1207     1207        /*E* ERROR:   TOU-E$DDD_BAD_DEL
     1208     1208             MESSAGE: *** Attempt to delete an OBJECT DECK failed.
     1209     1209                          Object Key:   ~ENT
     1210     1210                          Deck Key:   ~DECK
     1211     1211        */
     1212     1212        /*E* ERROR:   TOU-E$DDME_BAD_DEL
     1213     1213             MESSAGE: *** Attempt to delete a MASTER ENTRY failed.
     1214     1214                          Master Entry Number: ~EM
     1215     1215        */
     1216     1216        /*E* ERROR:   TOU-E$DDC_BAD_DEL
     1217     1217             MESSAGE: *** Attempt to delete a CATALOG failed.
     1218     1218                          Catalog Deck Number:  ~CD
     1219     1219        */
     1220     1220        /*E* ERROR:   TOU-E$DWMC_BAD_MAST_CNTRL
     1221     1221             MESSAGE: *** Attempt to write the MASTER CONTROL failed.
     1222     1222                          Master Control Key: MASTER_CATALOG
PL6.E3A0      #001=TOT$ERRMSGS File=TOT$ERRMSGS.:E05TSI                          WED 07/30/97 06:36 Page:108
     1223     1223        */
     1224     1224        /*E* ERROR:   TOU-E$DWME_BAD_MAST_ENTRY
     1225     1225             MESSAGE: *** Attempt to write a MASTER ENTRY failed.
     1226     1226                          Master Entry Number: ~EM
     1227     1227        */
     1228     1228        /*E* ERROR:   TOU-E$DWCC_BAD_CAT_CNTRL
     1229     1229             MESSAGE: *** Attempt to write a CATALOG CONTROL failed.
     1230     1230                          Catalog: ~CAT
     1231     1231        */
     1232     1232        /*E* ERROR:   TOU-E$DWS_BAD_SUBCAT
     1233     1233             MESSAGE: *** Attempt to write a SUBCATALOG failed.
     1234     1234                          Catalog: ~CAT
     1235     1235                          Catalog Deck Number:  ~CD
     1236     1236        */
     1237     1237        /*E* ERROR:   TOU-E$DWCE_BAD_CAT_ENTRY
     1238     1238             MESSAGE: *** Attempt to write a CATALOG ENTRY failed.
     1239     1239                          Catalog: ~CAT
     1240     1240                          Catalog Deck Number:  ~CD
     1241     1241                          Catalog Entry Number: ~EN
     1242     1242        */
     1243     1243        /*E* ERROR:   TOU-E$DWO_BAD_OBJECT
     1244     1244             MESSAGE: *** Attempt to write an OBJECT card failed.
     1245     1245                          Object Key: ~ENT
     1246     1246        */
     1247     1247        /*E* ERROR:   TOU-E$DWB_BAD_BINARY
     1248     1248             MESSAGE: *** Attempt to write a BINARY deck failed.
     1249     1249                          Deck Key: ~DECK
     1250     1250        */
     1251     1251        /*E* ERROR:   TOU-E$DWBC_BAD_DECK
     1252     1252             MESSAGE: *** Object deck does not end with a $DKEND Card.
     1253     1253                          Write of BCD cards failed.
     1254     1254                          Object Key: ~ENT
     1255     1255        */
     1256     1256        /*E* ERROR:   TOU-E$DWBC_BAD_BCD_CARDS
     1257     1257             MESSAGE: *** Attempt to write BCD CARDS failed.
     1258     1258                          Object Key: ~ENT
     1259     1259        */
PL6.E3A0      #001=TOT$ERRMSGS File=TOT$ERRMSGS.:E05TSI                          WED 07/30/97 06:36 Page:109
     1260     1260        /*E* ERROR:   TOU-E$DWOR_BAD_REFLST
     1261     1261             MESSAGE: *** Attempt to write an OBJECT REFLIST failed.
     1262     1262                          Deck Key:     ~DECK
     1263     1263        */
     1264     1264        /*E* ERROR:   TOU-E$DWLD_BAD_LAST_DECK#
     1265     1265             MESSAGE: *** Attempt to write the LAST DECK# failed.
     1266     1266                          Last Deck Number Key: LAST_DECK
     1267     1267        */
     1268     1268        /*E* ERROR:   TOU-E$DOT_OPEN_ERROR
     1269     1269             MESSAGE: *** Attempt to open the temporary file failed.
     1270     1270                          Temporary File FID: *DEER_TEMP
     1271     1271        */
     1272     1272        /*E* ERROR:   TOU-E$DCT_CLOSE_ERROR
     1273     1273             MESSAGE: *** Attempt to close the temporary file failed.
     1274     1274                          Temporary File FID: *DEER_TEMP
     1275     1275        */
     1276     1276        /*E* ERROR:   TOU-E$DRD_NO_LOG
     1277     1277             MESSAGE: *** This deckfile was built by a version of DEER earlier than ~RU
     1278     1278                          Deckfile conatins no history log: ~DF_FID
     1279     1279        */
     1280     1280        /*E* ERROR:   TOU-E$DWD_NO_LOG
     1281     1281             MESSAGE: *** Attempt to write deckfile history log failed.
     1282     1282        */
     1283     1283        /*E* ERROR:   TOU-E$DRR_NO_REVISION
     1284     1284             MESSAGE: *** Attempt to read IFAD revision from the deckfile failed.
     1285     1285        */
     1286     1286        /*E* ERROR:   TOU-E$DWR_NO_REVISION
     1287     1287             MESSAGE: *** Attempt to write the IFAD revision to the deckfile failed.
     1288     1288        */
     1289     1289        /*E* ERROR:   TOU-E$DGS_NO_SITE
     1290     1290             MESSAGE: *** Attempt to obtain customer site information failed.
     1291     1291        */
     1292     1292
     1293     1293        /* TOU$BREAK error messages */
     1294     1294
     1295     1295        /*E* ERROR:   TOU-E$BR_TRMPRG
     1296     1296             MESSAGE: **** Attempt to reset the break count failed.
PL6.E3A0      #001=TOT$ERRMSGS File=TOT$ERRMSGS.:E05TSI                          WED 07/30/97 06:36 Page:110
     1297     1297        */
     1298     1298        /*E* ERROR:   TOU-E$BR_FAULT
     1299     1299             MESSAGE: **** Unexpected fault occurred during DEER processing.
     1300     1300        */
     1301     1301        /*E* ERROR:   TOU-E$BR_DISABLE
     1302     1302             MESSAGE: Break is not allowed at this time or the deckfile will be ruined.
     1303     1303                      Command processing resumes...
     1304     1304        */
     1305     1305
     1306     1306        /* TOU$CHECKS error messages */
     1307     1307
     1308     1308        /*E* ERROR:   TOU-E$CS_OBJ_CHECKSUM
     1309     1309          MESSAGE: *** Object deck card ~BLS in deck ~LBL on file ~FN has a checksum error.
     1310     1310        */
     1311     1311        /*E* ERROR:   TOU-E$CS_BAD_CHECKSUM
     1312     1312             MESSAGE: *** ChEcKsUm in deckfile did not match calculated cHeCkSuM.
     1313     1313        */
     1314     1314
     1315     1315        /* TOU$DEBLOCKER error messages */
     1316     1316
     1317     1317        /*E* ERROR:   TOU-E$DB_IFAD_RCD_SIZE
     1318     1318             MESSAGE: *** Block ~BLK    on file ~FN of ~IFAD_FID
     1319     1319                          Actual record size read was ~ARS    Not MOD-4.
     1320     1320        */
     1321     1321        /*E* ERROR:   TOU-E$DB_IFAD_BLOCK_SIZE
     1322     1322             MESSAGE: *** Block ~BLK    of file ~FN of ~IFAD_FID
     1323     1323                          Size was ~BSZ  -- does not match BCW size ~BCZ
     1324     1324        */
     1325     1325        /*E* ERROR:   TOU-E$DB_OBJ_FILE_MARK
     1326     1326             MESSAGE: *** Block ~BLK    on file ~FN of ~IFAD_FID
     1327     1327                          RCW ~RCW   at ~WD1   has illegal file mark.
     1328     1328        */
     1329     1329        /*E* ERROR:   TOU-E$DB_IFAD_MCODE
     1330     1330             MESSAGE: *** Block ~BLK    on file ~FN of ~IFAD_FID
     1331     1331                          RCW ~RCW   at ~WD1   has illegal media code.
     1332     1332        */
     1333     1333        /*E* ERROR:   TOU-E$DB_IFAD_SIZE
PL6.E3A0      #001=TOT$ERRMSGS File=TOT$ERRMSGS.:E05TSI                          WED 07/30/97 06:36 Page:111
     1334     1334             MESSAGE: *** Block ~BLK    on file ~FN of ~IFAD_FID
     1335     1335                          RCW ~RCW   at ~WD1   has illegal size.
     1336     1336        */
     1337     1337        /*E* ERROR:   TOU-E$DB_IFAD_LBLOCK
     1338     1338             MESSAGE: *** Block ~BLK    on file ~FN of ~IFAD_FID
     1339     1339                          RCW ~RCW   at ~WD1   extends past end of block.
     1340     1340        */
     1341     1341        /*E* ERROR:   TOU-E$DB_BSN_ERROR
     1342     1342             MESSAGE: *** Expect $DKEND in deck ~LBL on file ~FN
     1343     1343                          Irrecoverable BSN Error.
     1344     1344        */
     1345     1345        /*E* ERROR:   TOU-E$DB_BSN_EOF
     1346     1346             MESSAGE: *** Block ~BLK    on file ~FN of ~IFAD_FID
     1347     1347                          Unexpected EOF on Block Serial Number recovery.
     1348     1348        */
     1349     1349        /*E* ERROR:   TOU-E$DB_IFAD_READ
     1350     1350             MESSAGE: *** Attempt to obtain IFAD input failed.
     1351     1351        */
     1352     1352        /*E* ERROR:   TOU-E$DB_IFAD_POSITION
     1353     1353             MESSAGE: *** Attempt to reposition IFAD for re-read failed.
     1354     1354        */
     1355     1355        /*E* ERROR:   TOU-E$DB_MCA_READ
     1356     1356             MESSAGE: *** Attempt to obtain data from a diskette mounted on
     1357     1357                          drive ~J of IMX number ~IMX failed.
     1358     1358                      ~IMBLK
     1359     1359        */
     1360     1360
     1361     1361        /* TOU$GET_CARD error messages */
     1362     1362
     1363     1363        /*E* ERROR:   TOU-E$GGBC_NO_BINS
     1364     1364             MESSAGE: *** No binary cards for object deck ~LBL on file ~FN
     1365     1365                      ~OBJ
     1366     1366        */
     1367     1367        /*E* ERROR:   TOU-E$GGBC_NO_DKEND
     1368     1368             MESSAGE: *** No $DKEND card for object deck ~LBL on file ~FN
     1369     1369                      ~OBJ
     1370     1370        */
PL6.E3A0      #001=TOT$ERRMSGS File=TOT$ERRMSGS.:E05TSI                          WED 07/30/97 06:36 Page:112
     1371     1371        /*E* ERROR:   TOU-E$GGPC_BAD_INPUT
     1372     1372             MESSAGE: *** Invalid patch input from IFAD file identifier: ~IFAD_FID
     1373     1373                          Input could not be resolved to a legal patch card.
     1374     1374        */
     1375     1375        /*E* ERROR:   TOU-E$GOC_OBJ_ASSEMBLER
     1376     1376       MESSAGE: *** Invalid assembler type in $OBJECT card for object deck ~LBL on file ~FN
     1377     1377                      ~OBJ
     1378     1378        */
     1379     1379        /*E* ERROR:   TOU-E$GOC_OBJ_SEQ
     1380     1380         MESSAGE: *** Invalid object sequence field on $OBJECT card for object deck ~LBL on
              1380        file ~FN
     1381     1381                      ~OBJ
     1382     1382        */
     1383     1383        /*E* ERROR:   TOU-E$GOC_OBJ_CONTROL
     1384     1384             MESSAGE: *** Invalid control field for object deck ~LBL on file ~FN
     1385     1385                          Record should contain a '$' for $OBJECT.
     1386     1386                      ~OBJ
     1387     1387        */
     1388     1388        /*E* ERROR:   TOU-E$GCBC_BIN_LBL_SEQ
     1389     1389             MESSAGE: *** Binary card for deck ~LBL on file ~FN
     1390     1390                          has a non-convertible label-sequence field.
     1391     1391        */
     1392     1392        /*E* ERROR:   TOU-E$GCBC_BIN_SEQ
     1393     1393             MESSAGE: *** Binary card for deck ~LBL on file ~FN
     1394     1394                          has a non-numeric sequence field.
     1395     1395        */
     1396     1396        /*E* ERROR:   TOU-E$GBC_BIN_TYPE
     1397     1397             MESSAGE: *** Object deck card ~BLS for deck ~LBL on file ~FN
     1398     1398                          has an invalid binary type.
     1399     1399        */
     1400     1400        /*E* ERROR:   TOU-E$GBC_BIN_SEQ
     1401     1401             MESSAGE: *** Object deck card ~BLS (binary card) for deck ~LBL on file ~FN
     1402     1402                          is out of sequence.
     1403     1403        */
     1404     1404        /*E* ERROR:   TOU-E$GBC_BIN_LBL
     1405     1405             MESSAGE: *** Object deck card ~BLS (binary card) for deck ~LBL on file ~FN
     1406     1406                          has a label that does not match the object deck label.
PL6.E3A0      #001=TOT$ERRMSGS File=TOT$ERRMSGS.:E05TSI                          WED 07/30/97 06:36 Page:113
     1407     1407        */
     1408     1408        /*E* ERROR:   TOU-E$GBC_TOO_MANY_BCARDS
     1409     1409             MESSAGE: *** Too many binary cards for object deck ~LBL on file ~FN
     1410     1410                      ~OBJ
     1411     1411        */
     1412     1412        /*E* ERROR:   TOU-E$GPC_BIN_NO_PRIM
     1413     1413             MESSAGE: *** Object deck card ~BLS for deck ~LBL on file ~FN
     1414     1414                          is a binary card that has no primary entry.
     1415     1415        */
     1416     1416        /*E* ERROR:   TOU-E$GPC_NO_DKEND
     1417     1417             MESSAGE: *** No $DKEND card for object deck ~LBL on file ~FN
     1418     1418                          A new $OBJECT card was encountered after the binary records.
     1419     1419        */
     1420     1420        /*E* ERROR:   TOU-E$GPC_BCD_TYPE
     1421     1421             MESSAGE: *** Object deck card ~BLS (patch card) for deck ~LBL on file ~FN
     1422     1422                          has an invalid BCD type.
     1423     1423        */
     1424     1424        /*E* ERROR:   TOU-E$GPC_TOO_MANY_PCARDS
     1425     1425             MESSAGE: *** Too many patch cards for object deck ~LBL on file ~FN
     1426     1426        */
     1427     1427        /*E* ERROR:   TOU-E$GOC_PTCH_BAD_OCTAL
     1428     1428         MESSAGE: *** Object deck card ~BLS (patch card) for deck ~LBL on file ~FN contains
     1429     1429                   illegal OCTAL character(s). Blanks are illegal when digits are required.
     1430     1430                      ~PATCH
     1431     1431        */
     1432     1432        /*E* ERROR:   TOU-E$GOC_PTCH_BAD_DATE
     1433     1433            MESSAGE: *** Object deck card ~BLS (patch card) for deck ~LBL on file ~FN has a
     1434     1434                          title date that does not match the title date of the object deck.
     1435     1435                          Object Deck Title Date: ~DATE
     1436     1436                      ~PATCH
     1437     1437        */
     1438     1438        /*E* ERROR:   TOU-E$GOC_PTCH_BAD_REV
     1439     1439            MESSAGE: *** Object deck card ~BLS (patch card) for deck ~LBL on file ~FN has a
     1440     1440                          revision that does not match the revision of the object deck.
     1441     1441                          Object Deck Revision Level: ~REVIS
     1442     1442                      ~PATCH
     1443     1443        */
PL6.E3A0      #001=TOT$ERRMSGS File=TOT$ERRMSGS.:E05TSI                          WED 07/30/97 06:36 Page:114
     1444     1444        /*E* ERROR:   TOU-E$GOC_PTCH_BAD_LBL
     1445     1445             MESSAGE: *** Object deck card ~BLS (patch card) for deck ~LBL on file ~FN
     1446     1446                          has a label that does not match the edit name of the object deck.
     1447     1447                      ~PATCH
     1448     1448        */
     1449     1449        /*E* ERROR:   TOU-E$GVV_PTCH_NULL_VAL
     1450     1450             MESSAGE: *** Object deck card ~BLS (patch card) for deck ~LBL on file ~FN
     1451     1451                          has a null patch value. (two comma's in a row)
     1452     1452                      ~PATCH
     1453     1453        */
     1454     1454        /*E* ERROR:   TOU-E$GVV_PTCH_G12
     1455     1455             MESSAGE: *** Object deck card ~BLS (patch card) for deck ~LBL on file ~FN
     1456     1456                          has a patch value field longer than twelve characters.
     1457     1457                      ~PATCH
     1458     1458        */
     1459     1459        /*E* ERROR:   TOU-E$GHC_HEX_INVALID
     1460     1460             MESSAGE: *** Object deck card ~BLS (patch card) for deck ~LBL on file ~FN is a
     1461     1461                    HEX patch card which is illegal for object decks with assembler type ~A
     1462     1462                      ~PATCH
     1463     1463        */
     1464     1464        /*E* ERROR:   TOU-E$GHC_PTCH_TWO_ON_ODD
     1465     1465          MESSAGE: *** Object deck card ~BLS (patch card) for deck ~LBL on file ~FN has two
     1466     1466                          HEX patch values for an odd location.
     1467     1467                      ~PATCH
     1468     1468        */
     1469     1469        /*E* ERROR:   TOU-E$GHC_PTCH_HEX_TYPE
     1470     1470             MESSAGE: *** Object deck card ~BLS (patch card) for deck ~LBL on file ~FN
     1471     1471                          should contain a 'C' or 'R' for type of HEX patch.
     1472     1472                      ~PATCH
     1473     1473        */
     1474     1474        /*E* ERROR:   TOU-E$GHC_PTCH_HEX_REVERSE
     1475     1475             MESSAGE: *** Object deck card ~BLS (patch card) for deck ~LBL on file ~FN
     1476     1476                          should contain a blank or an 'R' in column 32.
     1477     1477                      ~PATCH
     1478     1478        */
     1479     1479        /*E* ERROR:   TOU-E$GVV_PTCH_BAD_HEX
     1480     1480         MESSAGE: *** Object deck card ~BLS (patch card) for deck ~LBL on file ~FN contains
PL6.E3A0      #001=TOT$ERRMSGS File=TOT$ERRMSGS.:E05TSI                          WED 07/30/97 06:36 Page:115
     1481     1481                     illegal HEX character(s). Blanks are illegal when digits are required.
     1482     1482                      ~PATCH
     1483     1483        */
     1484     1484        /*E* ERROR:   TOU-E$GDC_DKE_NON_NUMERIC
     1485     1485        MESSAGE: *** $DKEND card for object deck ~LBL on file ~FN has a non-numeric sequenc
              1485        e field.
     1486     1486        */
     1487     1487        /*E* ERROR:   TOU-E$GDC_DKE_SEQ
     1488     1488             MESSAGE: *** $DKEND card for object deck ~LBL on file ~FN is out of sequence.
     1489     1489        */
     1490     1490        /*E* ERROR:   TOU-E$GDC_DKE_LBL
     1491     1491             MESSAGE: *** $DKEND card for object deck ~LBL on file ~FN has a label
     1492     1492                          that does not match the label of the object deck.
     1493     1493        */
     1494     1494        /*E* ERROR:   TOU-E$GDC_DKE_CONTROL
     1495     1495        MESSAGE: *** $DKEND card for object deck ~LBL of file ~FN has an invalid control fi
              1495        eld.
     1496     1496                          Record should contain a '$' for $DKEND.
     1497     1497        */
     1498     1498
     1499     1499        /* TOU$BUILD error messages */
     1500     1500
     1501     1501        /*E* ERROR:   TOU-E$BPI_NO_DF
     1502     1502             MESSAGE: **** Error encountered while building ~DF_FID
     1503     1503        */
     1504     1504        /*E* ERROR:   TOU-E$BSCK_OBJ_LIB
     1505     1505             MESSAGE: *** Object deck card ~BLS in deck ~LBL on file ~FN
     1506     1506                          has illegal library ~LIB
     1507     1507                      ~OBJ
     1508     1508        */
     1509     1509        /*E* ERROR:   TOU-E$BSCK_OBJ_LOADER
     1510     1510             MESSAGE: *** Object deck card ~BLS in deck ~LBL on file ~FN
     1511     1511                          has illegal loader type ~TYP
     1512     1512                      ~OBJ
     1513     1513        */
     1514     1514        /*E* ERROR:   TOU-E$BSFC_OBJ_CLASS
     1515     1515             MESSAGE: *** Object deck card ~BLS in deck ~LBL on file ~FN
PL6.E3A0      #001=TOT$ERRMSGS File=TOT$ERRMSGS.:E05TSI                          WED 07/30/97 06:36 Page:116
     1516     1516                          has illegal class ~CLS
     1517     1517                      ~OBJ
     1518     1518        */
     1519     1519        /*E* ERROR:   TOU-E$BSC_ITR_NO_FIRM
     1520     1520             MESSAGE: *** No firmware found following ITR's on file ~FN of ~IFAD_FID
     1521     1521        */
     1522     1522        /*E* ERROR:   TOU-E$BSMC_NO_ENTRIES
     1523     1523             MESSAGE: ** No input records which apply to CP-6 were found in ~IFAD_FID
     1524     1524        */
     1525     1525        /*E* ERROR:   TOU-E$BCCF_WRONG_FILE
     1526     1526             MESSAGE: **** Error on IFAD input file: ~IFAD_FID
     1527     1527                           Object deck ~LBL on file ~FN is on the wrong file.
     1528     1528                           Catalog: ~CAT
     1529     1529                           Object: ~ENT
     1530     1530                      ~OBJ
     1531     1531        */
     1532     1532
     1533     1533        /* TOU$LIST error messages */
     1534     1534
     1535     1535        /*E* ERROR:   TOU-E$LLM_NO_MATCHES
     1536     1536             MESSAGE: No catalog entry keys contained the string: ~CAT
     1537     1537        */
     1538     1538
     1539     1539        /* TOU$SHOWFILE error messages */
     1540     1540
     1541     1541        /*E* ERROR:   TOU-E$SSM_NO_MATCHES
     1542     1542             MESSAGE: No deckfile history records matched ~ENT
     1543     1543        */
     1544     1544
     1545     1545        /* TOU$NEWCAT error messages */
     1546     1546
     1547     1547        /*E* ERROR:   TOU-E$NCFC_ALREADY_IN
     1548     1548             MESSAGE: ** ~CAT                   already exists in ~DF_FID
     1549     1549        */
     1550     1550        /*E* ERROR:   TOU-E$NVA_MAY_ADD
     1551     1551        MESSAGE: Another by the same name may be added without affecting the original catal
              1551        og.
PL6.E3A0      #001=TOT$ERRMSGS File=TOT$ERRMSGS.:E05TSI                          WED 07/30/97 06:36 Page:117
     1552     1552        */
     1553     1553        /*E* ERROR:   TOU-E$NVA_INVALID_REPLY
     1554     1554             MESSAGE: * Legal responses are 'Y/ES' and 'N/O'.
     1555     1555        */
     1556     1556        /*E* ERROR:   TOU-E$NPI_NO_ENTRIES
     1557     1557             MESSAGE: ** No input records for catalog ~CAT
     1558     1558                         were found in ~IFAD_FID
     1559     1559        */
     1560     1560        /*E* ERROR:   TOU-E$NPT_BAD_DECKFILE
     1561     1561         MESSAGE: **** Irrecoverable  error  during  processing  from the DEER temporary fi
              1561        le
     1562     1562                    into the deckfile. The deckfile now contains erroneous data and will be
     1563     1563                           deleted. (Sorry about that chief.)
     1564     1564                           Please rebuild the deckfile from the current IFAD base tape.
     1565     1565        */
     1566     1566
     1567     1567        /* TOU$NEWDECK error messages */
     1568     1568
     1569     1569        /*E* ERROR:   TOU-E$NFC_NO_CAT_IN_DF
     1570     1570             MESSAGE: * No catalog in the deckfile for ~CAT
     1571     1571        */
     1572     1572        /*E* ERROR:   TOU-E$NCFD_IN_CATALOG
     1573     1573             MESSAGE: * ~ENT                    already exists in ~CAT
     1574     1574                        Use the Replace Deck command to replace the deck.
     1575     1575        */
     1576     1576        /*E* ERROR:   TOU-E$NPI_NO_OBJECT
     1577     1577             MESSAGE: ** No input records for object deck ~ENT
     1578     1578                         were found in ~IFAD_FID
     1579     1579        */
     1580     1580        /*E* ERROR:   TOU-E$NGCC_BAD_CHOICE
     1581     1581             MESSAGE: ** Invalid Master Entry number. Please try again.
     1582     1582        */
     1583     1583
     1584     1584        /* TOU$REPDECK error messages */
     1585     1585
     1586     1586        /*E* ERROR:   TOU-E$RCK_NO_MATCH
     1587     1587             MESSAGE: ** Deck to replace:  ~ENT
PL6.E3A0      #001=TOT$ERRMSGS File=TOT$ERRMSGS.:E05TSI                          WED 07/30/97 06:36 Page:118
     1588     1588                         Replacement deck: ~IMAGE
     1589     1589                      An object deck may ONLY be replaced by a deck that is the same  or a
     1590     1590                      different version (different revision level) of the  original object
     1591     1591                      deck. The keys for decks without revision levels must match exactly.
     1592     1592                      Examples: ITR.COMMON.BTLT.B1 may replace ITR.COMMON.BTLT.A1
     1593     1593                               but CLT.COLTCM is the only deck that may replace CLT.COLTCM
     1594     1594        */
     1595     1595
     1596     1596        /* TOU$REMREF error messages */
     1597     1597
     1598     1598        /*E* ERROR:   TOU-E$RFD_NO_OBJ_IN_CAT
     1599     1599             MESSAGE: ** No catalog reference to ~ENT                    in ~CAT
     1600     1600        */
     1601     1601        /*E* ERROR:   TOU-E$RFR_IN_CAT_BUT_NOT_REFL
     1602     1602             MESSAGE: **** ~CAT                   references ~ENT
     1603     1603                           but the catalog was not in the reference list.
     1604     1604                           Please recall sequence of DEER commands used to produce
     1605     1605                           this error and report this using STARLOG.
     1606     1606        */
     1607     1607        /*E* ERROR:   TOU-E$RAR_IN_CAT_BUT_NOT_REFL
     1608     1608             MESSAGE: **** Error in catalog ~CAT                   Entry Number ~CE
     1609     1609                       The catalog entry was not in the reference list for the object deck.
     1610     1610                           Please recall sequence of DEER commands used to produce
     1611     1611                           this error and report this using STARLOG.
     1612     1612        */
     1613     1613        /*E* ERROR:   TOU-E$RGR_ONLY_ONE_REF
     1614     1614          MESSAGE: ** Object deck ~ENT                   is only referenced by one catalog.
     1615     1615                   Use the Delete Deck command to remove the object deck from the deckfile.
     1616     1616        */
     1617     1617
     1618     1618        /* TOU$DELDECK error messages */
     1619     1619
     1620     1620        /*E* ERROR:   TOU-E$DFD_NO_OBJ_IN_DF
     1621     1621             MESSAGE: * No object deck in the deckfile for ~ENT
     1622     1622        */
     1623     1623
     1624     1624        /* TOU$DELPATCH error messages */
PL6.E3A0      #001=TOT$ERRMSGS File=TOT$ERRMSGS.:E05TSI                          WED 07/30/97 06:36 Page:119
     1625     1625
     1626     1626        /*E* ERROR:   TOU-E$DCPE_NO_PATCHES
     1627     1627             MESSAGE: * No patches for object deck ~ENT
     1628     1628        */
     1629     1629
     1630     1630        /* TOU$PATCH error messages */
     1631     1631
     1632     1632        /*E* ERROR:   TOU-E$PCNA_NONE_INPUT
     1633     1633             MESSAGE: * No patches found in ~IFAD_FID
     1634     1634        */
     1635     1635        /*E* ERROR:   TOU-E$PCNA_SAME_ADDRESS
     1636     1636       MESSAGE: Patch input file contains patches that modify the same object deck address.
     1637     1637        */
     1638     1638        /*E* ERROR:   TOU-E$PCPA_SAME_ADDRESS
     1639     1639        MESSAGE: Patch input file contains patches that modify previously patched object de
              1639        ck
     1640     1640                locations.    Use the  OVERWRITE option to replace the existing object deck
     1641     1641                      patches with the input file patches for matching addresses.
     1642     1642        */
     1643     1643        /*E* ERROR:   TOU-E$PSCD_BAD_DF
     1644     1644             MESSAGE: **** Error encountered while saving patch cards in the deckfile.  The
     1645     1645                           deckfile now contains erroneous data and will be deleted. (Sorry
     1646     1646                           about that chief.)   Please rebuild the deckfile from the latest
     1647     1647                           IFAD base tape.
     1648     1648        */
     1649     1649
     1650     1650        /* TOU$UPDATE error messages */
     1651     1651
     1652     1652        /* messages for UPDATE ??? */
     1653     1653
     1654     1654        /* TOU$MERGE messages */
     1655     1655
     1656     1656        /*E* ERROR:   TOU-E$MRC_STORY
     1657     1657             MESSAGE: Please mount an MCA UTILITY diskette in IMX ~IMX,
     1658     1658                      drive number ~J and AFTER doing so respond:
     1659     1659                      - Y/ES to indicate the diskette has been mounted.
     1660     1660                      - N/O to terminate the DEER MERGE session.
PL6.E3A0      #001=TOT$ERRMSGS File=TOT$ERRMSGS.:E05TSI                          WED 07/30/97 06:36 Page:120
     1661     1661        */
     1662     1662        /*E* ERROR:   TOU-E$MPSD_SAME
     1663     1663             MESSAGE: An error has been encountered while attempting to
     1664     1664                      read data from IMX ~IMX using drive ~J
     1665     1665                      If the problem can be corrected, please do so and
     1666     1666                      respond yes AFTER the drive has been readied.
     1667     1667                      - YES indicates that a retry should be done on
     1668     1668                        drive ~J
     1669     1669                      - NO  indicates that no retry on the same drive should
     1670     1670                        be attempted
     1671     1671        */
     1672     1672        /*E* ERROR:   TOU-E$MPND_NEXT
     1673     1673             MESSAGE: An error has been encountered while attempting to read
     1674     1674                      data from IMX ~IMX using drive ~J
     1675     1675                      If an alternate drive on the same IMX is to be used,
     1676     1676                      please place the disk in the alternate drive and respond
     1677     1677                      yes AFTER doing so.
     1678     1678                      - YES indicates that the alternate drive should be tried
     1679     1679                      - NO  indicates that the alternate drive should not be
     1680     1680                        tried
     1681     1681        */
     1682     1682        /*E* ERROR:   TOU-E$MCTD_BAD_DISK_TYPE
     1683     1683             MESSAGE: *** The current diskette mounted is not a TND diskette.
     1684     1684                          It should not be copied into the deckfile.
     1685     1685                          The disk type encountered was ~J
     1686     1686                          instead of 3 for the UTIL type.
     1687     1687                          The wrong diskette has been mounted or there is a
     1688     1688                          problem with this particular diskette.
     1689     1689        */
     1690     1690        /*E* ERROR:   TOU-E$MCTD_BAD_DISK_TITLE
     1691     1691             MESSAGE: *** The current diskette mounted is not a TND diskette that should
     1692     1692                          be copied into the deckfile.   The TITLE should be of the form
     1693     1693                          UTILiiii, but was ~XTI    .
     1694     1694        */
     1695     1695        /*E* ERROR:   TOU-E$MCLD_NOT_FIRST
     1696     1696             MESSAGE: *** The diskette mounted in IMX number ~IMX, drive ~J
     1697     1697                          is not the first diskette of the diskette set.
PL6.E3A0      #001=TOT$ERRMSGS File=TOT$ERRMSGS.:E05TSI                          WED 07/30/97 06:36 Page:121
     1698     1698
     1699     1699                          Expected diskette number: 1
     1700     1700
     1701     1701                                Encountered number: ~XXX
     1702     1702                                             Title: ~XTU
     1703     1703                                         Unique Id: ~XUI
     1704     1704                                      Config. Name: ~XCN
     1705     1705
     1706     1706                          Please insert the proper diskette and re-invoke the
     1707     1707                          DEER MERGE command.
     1708     1708        */
     1709     1709        /*E* ERROR:   TOU-E$MCPS_WRONG_DISK
     1710     1710             MESSAGE: *** DIPPER diskettes which are part of a product set must
     1711     1711                          be mounted in the proper order.
     1712     1712                          Expected number: ~CUR     Encountered number: ~XXX
     1713     1713        */
     1714     1714        /*E* ERROR:   TOU-E$MCPS_WRONG_DWGNUM
     1715     1715             MESSAGE: *** The current diskette mounted is not a part of the product set.
     1716     1716                          Current product set drawing number: ~IMAGE
     1717     1717                          Drawing number on this diskette:    ~XDN
     1718     1718        */
     1719     1719        /*E* ERROR:   TOU-E$MCPS_WRONG_EQUIP
     1720     1720             MESSAGE: *** The current diskette mounted is not a part of the product set.
     1721     1721                          Current product set equipment type: ~IMAGE
     1722     1722                          Equipment type on this diskette:    ~XET
     1723     1723        */
     1724     1724        /*E* ERROR:   TOU-E$MCPS_WRONG_NUMTAB
     1725     1725             MESSAGE: *** The current diskette mounted is not a part of the product set.
     1726     1726                          Current product set number tab:      ~IMAGE
     1727     1727                          Product number tab on this diskette: ~XPT
     1728     1728        */
     1729     1729        /*E* ERROR:   TOU-E$MSH_ALREADY_IN
     1730     1730             MESSAGE: *** The data from the current diskette mounted has already
     1731     1731                          been saved in ~DF_FID
     1732     1732                             Diskette Title: ~XTI
     1733     1733                             Diskette Unique Id: ~XUI
     1734     1734                             Diskette Equipment Type: ~XET
PL6.E3A0      #001=TOT$ERRMSGS File=TOT$ERRMSGS.:E05TSI                          WED 07/30/97 06:36 Page:122
     1735     1735                             Diskette IPI Number: ~XIN
     1736     1736                             Diskette Drawing Number: ~XDN
     1737     1737                             Diskette Product Number Tab: ~XPT
     1738     1738                          The diskette has already been used on a previous DEER MERGE
     1739     1739                          command or has erroneous information in its header.
     1740     1740        */
     1741     1741        /*E* ERROR:   TOU-E$MPMI_RETRY
     1742     1742             MESSAGE: If an abort is NOT necessary, please mount the correct
     1743     1743                      diskette, and AFTER doing so, respond NO to abort.
     1744     1744                      - YES aborts the DEER MERGE command
     1745     1745                      - NO  initiates a retry
     1746     1746        */
     1747     1747        /*E* ERROR:   TOU-E$MPMI_ABORTQ
     1748     1748             MESSAGE: ** Should we abort??
     1749     1749        */
     1750     1750        /*E* ERROR:   TOU-E$MPMI_DISKETTE_ERR
     1751     1751             MESSAGE: *** An unrecoverable diskette error has been encountered.
     1752     1752                          Contact the system operator for more information.
     1753     1753        */
     1754     1754        /*E* ERROR:   TOU-E$MGH_LOADQ
     1755     1755             MESSAGE: Has the diskette been loaded?
     1756     1756        */
     1757     1757        /*E* ERROR:   TOU-E$MPSD_SAMEQ
     1758     1758             MESSAGE: Retry on SAME drive?
     1759     1759        */
     1760     1760        /*E* ERROR:   TOU-E$MPND_NEXTQ
     1761     1761             MESSAGE: Retry on NEXT drive?
     1762     1762        */
     1763     1763        /*E* ERROR:    TOU-E$RD_CONFIG
     1764     1764             MESSAGE:  Unable to read MCA configuration--must restart
     1765     1765        */
     1766     1766
     1767     1767        /* Line Printer Headings */
     1768     1768
     1769     1769        /*E* ERROR:   TOU-H$DEER
     1770     1770         MESSAGE: *** CP-6 Test and Diagnostic DEckfile Editor Routine           DEER Listi
              1770        ng                Page - ~PAGE  ***
PL6.E3A0      #001=TOT$ERRMSGS File=TOT$ERRMSGS.:E05TSI                          WED 07/30/97 06:36 Page:123
     1771     1771         *** DEER Processor ~RU                                               Date - ~LDATE
              1771            Time - ~LTIME      ***
     1772     1772         ***
              1772                               ***
     1773     1773         ***                                *******   ********* ********* *******
              1773                               ***
     1774     1774         ***                                ********  ********* ********* ********
              1774                               ***
     1775     1775         ***                                **     ** **        **        **     **
              1775                               ***
     1776     1776         ***                                **     ** **        **        **     **
              1776                               ***
     1777     1777         ***                                **     ** *****     *****     ********
              1777                               ***
     1778     1778         ***                                **     ** **        **        *******
              1778                               ***
     1779     1779         ***                                **     ** **        **        **    **
              1779                               ***
     1780     1780         ***                                ********  ********* ********* **     **
              1780                               ***
     1781     1781         ***                                *******   ********* ********* **      **
              1781                               ***
     1782     1782        */
     1783     1783
     1784     1784        /*E* ERROR:   TOU-H$BUILD
     1785     1785         MESSAGE: *** Build Command                        CP-6  Deckfile Editor  ~RU
              1785                          Page - ~PAGE  ***
     1786     1786         *** DEER Processor                                                   Date - ~LDATE
              1786            Time - ~LTIME      ***
     1787     1787        */
     1788     1788
     1789     1789        /*E* ERROR:   TOU-H$BUILD_ITR
     1790     1790         MESSAGE: *** Build Command                        CP-6  Deckfile Editor  ~RU
              1790                          Page - ~PAGE  ***
     1791     1791         *** IFAD: ~IFAD_FID                                    Deckfile: ~DF_FID
              1791                               ***
     1792     1792         *** Library - ~LIB                    IFAD File Number - ~FN         Date - ~LDATE
PL6.E3A0      #001=TOT$ERRMSGS File=TOT$ERRMSGS.:E05TSI                          WED 07/30/97 06:36 Page:124
              1792            Time - ~LTIME      ***
     1793     1793         ***
              1793                               ***
     1794     1794         *      Edit  Deck   Title     Ident.               Record  Search  Key        Deck
              1794            Entry    Load Size
     1795     1795         *      Name  Type   Date      Code    Model   Rev.                            Numb
              1795        er  Number   in  words
     1796     1796        */
     1797     1797
     1798     1798        /*E* ERROR:   TOU-H$BUILD_MDR
     1799     1799         MESSAGE: *** Build Command                        CP-6  Deckfile Editor  ~RU
              1799                          Page - ~PAGE  ***
     1800     1800         *** IFAD: ~IFAD_FID                                    Deckfile: ~DF_FID
              1800                               ***
     1801     1801         *** Library - ~LIB                    IFAD File Number - ~FN         Date - ~LDATE
              1801            Time - ~LTIME      ***
     1802     1802         ***
              1802                               ***
     1803     1803         Call   Edit  Deck   Title     Ident.               Record  Search  Key        Deck
              1803            Entry    Load Size
     1804     1804         Name   Name  Type   Date      Code    Model   Rev.                            Numb
              1804        er  Number   in  words
     1805     1805        */
     1806     1806
     1807     1807        /*E* ERROR:   TOU-H$BUILD_PROG
     1808     1808         MESSAGE: *** Build Command                        CP-6  Deckfile Editor  ~RU
              1808                          Page - ~PAGE  ***
     1809     1809         *** IFAD: ~IFAD_FID                                    Deckfile: ~DF_FID
              1809                               ***
     1810     1810         *** Library - ~LIB                    IFAD File Number - ~FN         Date - ~LDATE
              1810            Time - ~LTIME      ***
     1811     1811         ***
              1811                               ***
     1812     1812         Call   Edit  Deck   Title     Subsystem   Assembly Record  Search  Key        Deck
              1812            Entry    Load Size
     1813     1813         Name   Name  Type   Date      Type        Date                                Numb
              1813        er  Number   in  words
PL6.E3A0      #001=TOT$ERRMSGS File=TOT$ERRMSGS.:E05TSI                          WED 07/30/97 06:36 Page:125
     1814     1814        */
     1815     1815
     1816     1816        /*E* ERROR:   TOU-H$BUILD_MC
     1817     1817         MESSAGE: *** Build Command                        CP-6  Deckfile Editor  ~RU
              1817                          Page - ~PAGE  ***
     1818     1818         *** IFAD: ~IFAD_FID                                    Deckfile: ~DF_FID
              1818                               ***
     1819     1819         *** Deckfile Master Catalog                                          Date - ~LDATE
              1819            Time - ~LTIME      ***
     1820     1820         *** ~WSN
              1820                        ~WSI   ***
     1821     1821         ***
              1821                               ***
     1822     1822         ***                                                Record  Search  Key        Deck
              1822                               ***
     1823     1823         ***                                                                           Numb
              1823        er                     ***
     1824     1824        */
     1825     1825        /*E* ERROR:   TOU-H$BUILD_NIO
     1826     1826         MESSAGE: *** Build Command                        CP-6  Deckfile Editor  ~RU
              1826                          Page - ~PAGE  ***
     1827     1827         *** Copy: ~DF_FID                                      Deckfile: ~DF_FID
              1827                               ***
     1828     1828         *** Library - ~LIB                    IFAD File - ~F2                Date - ~LDATE
              1828            Time - ~LTIME      ***
     1829     1829         ***
              1829                               ***
     1830     1830         *      Edit  Deck   Title     Ident.  Equip.       Record  Search  Key        Deck
              1830            Entry    Load Size
     1831     1831         *      Name  Type   Date      Code    Type    Rev.                            Numb
              1831        er  Number   in  words
     1832     1832        */
     1833     1833
     1834     1834        /*E* ERROR:   TOU-H$LIST
     1835     1835         MESSAGE: *** List Command                         CP-6  Deckfile Editor  ~RU
              1835                          Page - ~PAGE  ***
     1836     1836         *** DEER Processor                                                   Date - ~LDATE
PL6.E3A0      #001=TOT$ERRMSGS File=TOT$ERRMSGS.:E05TSI                          WED 07/30/97 06:36 Page:126
              1836            Time - ~LTIME      ***
     1837     1837        */
     1838     1838
     1839     1839        /*E* ERROR:   TOU-H$LIST_ITR
     1840     1840         MESSAGE: *** List Command                         CP-6  Deckfile Editor  ~RU
              1840                          Page - ~PAGE  ***
     1841     1841         *** IFAD: ~SI                                          Deckfile: ~DF_FID
              1841                               ***
     1842     1842         *** Library - ~LIB    IFAD Release: ~WIR    IFAD File - ~F2          Date - ~LDATE
              1842            Time - ~LTIME      ***
     1843     1843         ***
              1843                               ***
     1844     1844         *      Edit  Deck   Title     Ident.               Record  Search  Key        Deck
              1844            Entry    Load Size
     1845     1845         *      Name  Type   Date      Code    Model   Rev.                            Numb
              1845        er  Number   in  words
     1846     1846        */
     1847     1847
     1848     1848        /*E* ERROR:   TOU-H$LIST_MDR
     1849     1849         MESSAGE: *** List Command                         CP-6  Deckfile Editor  ~RU
              1849                          Page - ~PAGE  ***
     1850     1850         *** IFAD: ~SI                                          Deckfile: ~DF_FID
              1850                               ***
     1851     1851         *** Library - ~LIB    IFAD Release: ~WIR    IFAD File - ~F2          Date - ~LDATE
              1851            Time - ~LTIME      ***
     1852     1852         ***
              1852                               ***
     1853     1853         Call   Edit  Deck   Title     Ident.               Record  Search  Key        Deck
              1853            Entry    Load Size
     1854     1854         Name   Name  Type   Date      Code    Model   Rev.                            Numb
              1854        er  Number   in  words
     1855     1855        */
     1856     1856
     1857     1857        /*E* ERROR:   TOU-H$LIST_PROG
     1858     1858         MESSAGE: *** List Command                         CP-6  Deckfile Editor  ~RU
              1858                          Page - ~PAGE  ***
     1859     1859         *** IFAD: ~SI                                          Deckfile: ~DF_FID
PL6.E3A0      #001=TOT$ERRMSGS File=TOT$ERRMSGS.:E05TSI                          WED 07/30/97 06:36 Page:127
              1859                               ***
     1860     1860         *** Library - ~LIB    IFAD Release: ~WIR    IFAD File - ~F2          Date - ~LDATE
              1860            Time - ~LTIME      ***
     1861     1861         ***
              1861                               ***
     1862     1862         Call   Edit  Deck   Title     Subsystem   Assembly Record  Search  Key        Deck
              1862            Entry    Load Size
     1863     1863         Name   Name  Type   Date      Type        Date                                Numb
              1863        er  Number   in  words
     1864     1864        */
     1865     1865
     1866     1866        /*E* ERROR:   TOU-H$LIST_MC
     1867     1867         MESSAGE: *** List Command                         CP-6  Deckfile Editor  ~RU
              1867                          Page - ~PAGE  ***
     1868     1868         *** IFAD Release: ~WIR                                 Deckfile: ~DF_FID
              1868                               ***
     1869     1869         *** Deckfile Master Catalog                                          Date - ~LDATE
              1869            Time - ~LTIME      ***
     1870     1870         *** ~WSN
              1870                        ~WSI   ***
     1871     1871         ***
              1871                               ***
     1872     1872         ***                                                Record  Search  Key        Deck
              1872                               ***
     1873     1873         ***                                                                           Numb
              1873        er                     ***
     1874     1874        */
     1875     1875
     1876     1876        /*E* ERROR:   TOU-H$LIST_LOG
     1877     1877         MESSAGE: *** List Command                         CP-6  Deckfile Editor  ~RU
              1877                          Page - ~PAGE  ***
     1878     1878         *** Deckfile History Log (commands which altered the deckfile)       Date - ~LDATE
              1878            Time - ~LTIME      ***
     1879     1879         ***                                                    Deckfile: ~DF_FID
              1879                               ***
     1880     1880                      Date      Time         Modification performed
     1881     1881                      --------  -----------  ----------------------
PL6.E3A0      #001=TOT$ERRMSGS File=TOT$ERRMSGS.:E05TSI                          WED 07/30/97 06:36 Page:128
     1882     1882        */
     1883     1883
     1884     1884        /*E* ERROR:   TOU-H$LIST_NIO
     1885     1885         MESSAGE: *** List Command                         CP-6  Deckfile Editor  ~RU
              1885                          Page - ~PAGE  ***
     1886     1886         *** IFAD: ~SI                                          Deckfile: ~DF_FID
              1886                               ***
     1887     1887         *** Library - ~LIB    IFAD Release: ~WIR    IFAD File - ~F2          Date - ~LDATE
              1887            Time - ~LTIME      ***
     1888     1888         ***
              1888                               ***
     1889     1889         *      Edit  Deck   Title     Ident.  Equip.       Record  Search  Key        Deck
              1889            Entry    Load Size
     1890     1890         *      Name  Type   Date      Code    Type    Rev.                            Numb
              1890        er  Number   in  words
     1891     1891        */
     1892     1892
     1893     1893        /*E* ERROR:   TOU-H$SHOWDECK
     1894     1894         MESSAGE: *** Show Deck Command                    CP-6  Deckfile Editor  ~RU
              1894                          Page - ~PAGE  ***
     1895     1895         *** DEER Processor                                                   Date - ~LDATE
              1895            Time - ~LTIME      ***
     1896     1896        ***********************************************************************************
              1896        **************************
     1897     1897        */
     1898     1898
     1899     1899        /*E* ERROR:   TOU-H$SHOWFILE
     1900     1900         MESSAGE: *** Show File Command                    CP-6  Deckfile Editor  ~RU
              1900                          Page - ~PAGE  ***
     1901     1901         *** ~WSN
              1901                        ~WSI   ***
     1902     1902         *** Deckfile History Log for ~ENT                                    Date - ~LDATE
              1902            Time - ~LTIME      ***
     1903     1903         ***
              1903                               ***
     1904     1904        */
     1905     1905
PL6.E3A0      #001=TOT$ERRMSGS File=TOT$ERRMSGS.:E05TSI                          WED 07/30/97 06:36 Page:129
     1906     1906        /*E* ERROR:   TOU-H$NEWCAT
     1907     1907         MESSAGE: *** New Catalog Command                  CP-6  Deckfile Editor  ~RU
              1907                          Page - ~PAGE  ***
     1908     1908         *** DEER Processor                                                   Date - ~LDATE
              1908            Time - ~LTIME      ***
     1909     1909        */
     1910     1910
     1911     1911        /*E* ERROR:   TOU-H$NEWCAT_ITR
     1912     1912         MESSAGE: *** New Catalog Command                  CP-6  Deckfile Editor  ~RU
              1912                          Page - ~PAGE  ***
     1913     1913         *** IFAD: ~IFAD_FID                                    Deckfile: ~DF_FID
              1913                               ***
     1914     1914         *** Library - ~LIB                    IFAD File Number - ~FM         Date - ~LDATE
              1914            Time - ~LTIME      ***
     1915     1915         ***
              1915                               ***
     1916     1916         *      Edit  Deck   Title     Ident.               Record  Search  Key        Deck
              1916            Entry    Load Size
     1917     1917         *      Name  Type   Date      Code    Model   Rev.                            Numb
              1917        er  Number   in  words
     1918     1918        */
     1919     1919
     1920     1920        /*E* ERROR:   TOU-H$NEWCAT_MDR
     1921     1921         MESSAGE: *** New Catalog Command                  CP-6  Deckfile Editor  ~RU
              1921                          Page - ~PAGE  ***
     1922     1922         *** IFAD: ~IFAD_FID                                    Deckfile: ~DF_FID
              1922                               ***
     1923     1923         *** Library - ~LIB                    IFAD File Number - ~FM         Date - ~LDATE
              1923            Time - ~LTIME      ***
     1924     1924         ***
              1924                               ***
     1925     1925         Call   Edit  Deck   Title     Ident.               Record  Search  Key        Deck
              1925            Entry    Load Size
     1926     1926         Name   Name  Type   Date      Code    Model   Rev.                            Numb
              1926        er  Number   in  words
     1927     1927        */
     1928     1928
PL6.E3A0      #001=TOT$ERRMSGS File=TOT$ERRMSGS.:E05TSI                          WED 07/30/97 06:36 Page:130
     1929     1929        /*E* ERROR:   TOU-H$NEWCAT_PROG
     1930     1930         MESSAGE: *** New Catalog Command                  CP-6  Deckfile Editor  ~RU
              1930                          Page - ~PAGE  ***
     1931     1931         *** IFAD: ~IFAD_FID                                    Deckfile: ~DF_FID
              1931                               ***
     1932     1932         *** Library - ~LIB                    IFAD File Number - ~FM         Date - ~LDATE
              1932            Time - ~LTIME      ***
     1933     1933         ***
              1933                               ***
     1934     1934         Call   Edit  Deck   Title     Subsystem   Assembly Record  Search  Key        Deck
              1934            Entry    Load Size
     1935     1935         Name   Name  Type   Date      Type        Date                                Numb
              1935        er  Number   in  words
     1936     1936        */
     1937     1937
     1938     1938        /*E* ERROR:   TOU-H$NEWDECK
     1939     1939         MESSAGE: *** New Deck Command                     CP-6  Deckfile Editor  ~RU
              1939                          Page - ~PAGE  ***
     1940     1940         *** DEER Processor                                                   Date - ~LDATE
              1940            Time - ~LTIME      ***
     1941     1941        */
     1942     1942
     1943     1943        /*E* ERROR:   TOU-H$NEWDECK_ITR
     1944     1944         MESSAGE: *** New Deck Command                     CP-6  Deckfile Editor  ~RU
              1944                          Page - ~PAGE  ***
     1945     1945         *** IFAD: ~IFAD_FID                                    Deckfile: ~DF_FID
              1945                               ***
     1946     1946         *** Library - ~LIB                    IFAD File Number - ~FN         Date - ~LDATE
              1946            Time - ~LTIME      ***
     1947     1947         ***
              1947                               ***
     1948     1948         *      Edit  Deck   Title     Ident.               Record  Search  Key        Deck
              1948            Entry    Load Size
     1949     1949         *      Name  Type   Date      Code    Model   Rev.                            Numb
              1949        er  Number   in  words
     1950     1950        */
     1951     1951
PL6.E3A0      #001=TOT$ERRMSGS File=TOT$ERRMSGS.:E05TSI                          WED 07/30/97 06:36 Page:131
     1952     1952        /*E* ERROR:   TOU-H$NEWDECK_MDR
     1953     1953         MESSAGE: *** New Deck Command                     CP-6  Deckfile Editor  ~RU
              1953                          Page - ~PAGE  ***
     1954     1954         *** IFAD: ~IFAD_FID                                    Deckfile: ~DF_FID
              1954                               ***
     1955     1955         *** Library - ~LIB                    IFAD File Number - ~FN         Date - ~LDATE
              1955            Time - ~LTIME      ***
     1956     1956         ***
              1956                               ***
     1957     1957         Call   Edit  Deck   Title     Ident.               Record  Search  Key        Deck
              1957            Entry    Load Size
     1958     1958         Name   Name  Type   Date      Code    Model   Rev.                            Numb
              1958        er  Number   in  words
     1959     1959        */
     1960     1960
     1961     1961        /*E* ERROR:   TOU-H$NEWDECK_PROG
     1962     1962         MESSAGE: *** New Deck Command                     CP-6  Deckfile Editor  ~RU
              1962                          Page - ~PAGE  ***
     1963     1963         *** IFAD: ~IFAD_FID                                    Deckfile: ~DF_FID
              1963                               ***
     1964     1964         *** Library - ~LIB                    IFAD File Number - ~FN         Date - ~LDATE
              1964            Time - ~LTIME      ***
     1965     1965         ***
              1965                               ***
     1966     1966         Call   Edit  Deck   Title     Subsystem   Assembly Record  Search  Key        Deck
              1966            Entry    Load Size
     1967     1967         Name   Name  Type   Date      Type        Date                                Numb
              1967        er  Number   in  words
     1968     1968        */
     1969     1969
     1970     1970        /*E* ERROR:   TOU-H$REPDECK
     1971     1971         MESSAGE: *** Replace Deck Command                 CP-6  Deckfile Editor  ~RU
              1971                          Page - ~PAGE  ***
     1972     1972         *** DEER Processor                                                   Date - ~LDATE
              1972            Time - ~LTIME      ***
     1973     1973        */
     1974     1974
PL6.E3A0      #001=TOT$ERRMSGS File=TOT$ERRMSGS.:E05TSI                          WED 07/30/97 06:36 Page:132
     1975     1975        /*E* ERROR:   TOU-H$REPDECK_ITR
     1976     1976         MESSAGE: *** Replace Deck Command                 CP-6  Deckfile Editor  ~RU
              1976                          Page - ~PAGE  ***
     1977     1977         *** IFAD: ~IFAD_FID                                    Deckfile: ~DF_FID
              1977                               ***
     1978     1978         *** Library - ~LIB                    IFAD File Number - ~FN         Date - ~LDATE
              1978            Time - ~LTIME      ***
     1979     1979         ***
              1979                               ***
     1980     1980         *      Edit  Deck   Title     Ident.               Record  Search  Key        Deck
              1980                     Load Size
     1981     1981         *      Name  Type   Date      Code    Model   Rev.                            Numb
              1981        er           in  words
     1982     1982        */
     1983     1983
     1984     1984        /*E* ERROR:   TOU-H$REPDECK_MDR
     1985     1985         MESSAGE: *** Replace Deck Command                 CP-6  Deckfile Editor  ~RU
              1985                          Page - ~PAGE  ***
     1986     1986         *** IFAD: ~IFAD_FID                                    Deckfile: ~DF_FID
              1986                               ***
     1987     1987         *** Library - ~LIB                    IFAD File Number - ~FN         Date - ~LDATE
              1987            Time - ~LTIME      ***
     1988     1988         ***
              1988                               ***
     1989     1989         Call   Edit  Deck   Title     Ident.               Record  Search  Key        Deck
              1989                     Load Size
     1990     1990         Name   Name  Type   Date      Code    Model   Rev.                            Numb
              1990        er           in  words
     1991     1991        */
     1992     1992
     1993     1993        /*E* ERROR:   TOU-H$REPDECK_PROG
     1994     1994         MESSAGE: *** Replace Deck Command                 CP-6  Deckfile Editor  ~RU
              1994                          Page - ~PAGE  ***
     1995     1995         *** IFAD: ~IFAD_FID                                    Deckfile: ~DF_FID
              1995                               ***
     1996     1996         *** Library - ~LIB                    IFAD File Number - ~FN         Date - ~LDATE
              1996            Time - ~LTIME      ***
PL6.E3A0      #001=TOT$ERRMSGS File=TOT$ERRMSGS.:E05TSI                          WED 07/30/97 06:36 Page:133
     1997     1997         ***
              1997                               ***
     1998     1998         Call   Edit  Deck   Title     Subsystem   Assembly Record  Search  Key        Deck
              1998                     Load Size
     1999     1999         Name   Name  Type   Date      Type        Date                                Numb
              1999        er           in  words
     2000     2000        */
     2001     2001
     2002     2002        /*E* ERROR:   TOU-H$REMREF
     2003     2003         MESSAGE: *** Remove Reference Command             CP-6  Deckfile Editor  ~RU
              2003                          Page - ~PAGE  ***
     2004     2004         *** Deckfile: ~DF_FID                                                Date - ~LDATE
              2004            Time - ~LTIME      ***
     2005     2005        ***********************************************************************************
              2005        **************************
     2006     2006        */
     2007     2007
     2008     2008        /*E* ERROR:   TOU-H$DELDECK
     2009     2009         MESSAGE: *** Delete Deck Command                  CP-6  Deckfile Editor  ~RU
              2009                          Page - ~PAGE  ***
     2010     2010         *** Deckfile: ~DF_FID                                                Date - ~LDATE
              2010            Time - ~LTIME      ***
     2011     2011        ***********************************************************************************
              2011        **************************
     2012     2012        */
     2013     2013
     2014     2014        /*E* ERROR:   TOU-H$DELPATCH
     2015     2015         MESSAGE: *** Delete Patch Command                 CP-6  Deckfile Editor  ~RU
              2015                          Page - ~PAGE  ***
     2016     2016         *** Deckfile: ~DF_FID                                                Date - ~LDATE
              2016            Time - ~LTIME      ***
     2017     2017        ***********************************************************************************
              2017        **************************
     2018     2018        */
     2019     2019
     2020     2020        /*E* ERROR:   TOU-H$DELCAT
     2021     2021         MESSAGE: *** Delete Catalog Command               CP-6  Deckfile Editor  ~RU
PL6.E3A0      #001=TOT$ERRMSGS File=TOT$ERRMSGS.:E05TSI                          WED 07/30/97 06:36 Page:134
              2021                          Page - ~PAGE  ***
     2022     2022         *** Deckfile: ~DF_FID                                                Date - ~LDATE
              2022            Time - ~LTIME      ***
     2023     2023        ***********************************************************************************
              2023        **************************
     2024     2024        */
     2025     2025
     2026     2026        /*E* ERROR:   TOU-H$PATCH
     2027     2027         MESSAGE: *** Patch Command                        CP-6  Deckfile Editor  ~RU
              2027                          Page - ~PAGE  ***
     2028     2028         *** Deckfile: ~DF_FID                                                Date - ~LDATE
              2028            Time - ~LTIME      ***
     2029     2029        */
     2030     2030
     2031     2031        /*E* ERROR:   TOU-H$PATCH_ITR
     2032     2032         MESSAGE: *** Patch Command                        CP-6  Deckfile Editor  ~RU
              2032                          Page - ~PAGE  ***
     2033     2033         *** IFAD: ~IFAD_FID                                    Deckfile: ~DF_FID
              2033                               ***
     2034     2034         *** Library - ~LIB                    IFAD File Number - ~FN         Date - ~LDATE
              2034            Time - ~LTIME      ***
     2035     2035         ***
              2035                               ***
     2036     2036         *      Edit  Deck   Title     Ident.               Record  Search  Key        Deck
              2036                     Load Size
     2037     2037         *      Name  Type   Date      Code    Model   Rev.                            Numb
              2037        er           in  words
     2038     2038        */
     2039     2039
     2040     2040        /*E* ERROR:   TOU-H$PATCH_MDR
     2041     2041         MESSAGE: *** Patch Command                        CP-6  Deckfile Editor  ~RU
              2041                          Page - ~PAGE  ***
     2042     2042         *** IFAD: ~IFAD_FID                                    Deckfile: ~DF_FID
              2042                               ***
     2043     2043         *** Library - ~LIB                    IFAD File Number - ~FN         Date - ~LDATE
              2043            Time - ~LTIME      ***
     2044     2044         ***
PL6.E3A0      #001=TOT$ERRMSGS File=TOT$ERRMSGS.:E05TSI                          WED 07/30/97 06:36 Page:135
              2044                               ***
     2045     2045         Call   Edit  Deck   Title     Ident.               Record  Search  Key        Deck
              2045                     Load Size
     2046     2046         Name   Name  Type   Date      Code    Model   Rev.                            Numb
              2046        er           in  words
     2047     2047        */
     2048     2048
     2049     2049        /*E* ERROR:   TOU-H$PATCH_PROG
     2050     2050         MESSAGE: *** Patch Command                        CP-6  Deckfile Editor  ~RU
              2050                          Page - ~PAGE  ***
     2051     2051         *** IFAD: ~IFAD_FID                                    Deckfile: ~DF_FID
              2051                               ***
     2052     2052         *** Library - ~LIB                    IFAD File Number - ~FN         Date - ~LDATE
              2052            Time - ~LTIME      ***
     2053     2053         ***
              2053                               ***
     2054     2054         Call   Edit  Deck   Title     Subsystem   Assembly Record  Search  Key        Deck
              2054                     Load Size
     2055     2055         Name   Name  Type   Date      Type        Date                                Numb
              2055        er           in  words
     2056     2056        */
     2057     2057
     2058     2058        /*E* ERROR:   TOU-H$UPDATE
     2059     2059         MESSAGE: *** Update Command                       CP-6  Deckfile Editor  ~RU
              2059                          Page - ~PAGE  ***
     2060     2060         *** DEER Processor                                                   Date - ~LDATE
              2060            Time - ~LTIME      ***
     2061     2061        */
     2062     2062
     2063     2063        /*E* ERROR:   TOU-H$UPDATE_ITR
     2064     2064         MESSAGE: *** Update Command                       CP-6  Deckfile Editor  ~RU
              2064                          Page - ~PAGE  ***
     2065     2065         *** IFAD: ~IFAD_FID                                    Deckfile: ~DF_FID
              2065                               ***
     2066     2066         *** Library - ~LIB                    IFAD File Number - ~FN         Date - ~LDATE
              2066            Time - ~LTIME      ***
     2067     2067         ***
PL6.E3A0      #001=TOT$ERRMSGS File=TOT$ERRMSGS.:E05TSI                          WED 07/30/97 06:36 Page:136
              2067                               ***
     2068     2068         *      Edit  Deck   Title     Ident.               Record  Search  Key        Deck
              2068            Entry    Load Size
     2069     2069         *      Name  Type   Date      Code    Model   Rev.                            Numb
              2069        er  Number   in  words
     2070     2070        */
     2071     2071
     2072     2072        /*E* ERROR:   TOU-H$UPDATE_MDR
     2073     2073         MESSAGE: *** Update Command                       CP-6  Deckfile Editor  ~RU
              2073                          Page - ~PAGE  ***
     2074     2074         *** IFAD: ~IFAD_FID                                    Deckfile: ~DF_FID
              2074                               ***
     2075     2075         *** Library - ~LIB                    IFAD File Number - ~FN         Date - ~LDATE
              2075            Time - ~LTIME      ***
     2076     2076         ***
              2076                               ***
     2077     2077         Call   Edit  Deck   Title     Ident.               Record  Search  Key        Deck
              2077            Entry    Load Size
     2078     2078         Name   Name  Type   Date      Code    Model   Rev.                            Numb
              2078        er  Number   in  words
     2079     2079        */
     2080     2080
     2081     2081        /*E* ERROR:   TOU-H$UPDATE_PROG
     2082     2082         MESSAGE: *** Update Command                       CP-6  Deckfile Editor  ~RU
              2082                          Page - ~PAGE  ***
     2083     2083         *** IFAD: ~IFAD_FID                                    Deckfile: ~DF_FID
              2083                               ***
     2084     2084         *** Library - ~LIB                    IFAD File Number - ~FN         Date - ~LDATE
              2084            Time - ~LTIME      ***
     2085     2085         ***
              2085                               ***
     2086     2086         Call   Edit  Deck   Title     Subsystem   Assembly Record  Search  Key        Deck
              2086            Entry    Load Size
     2087     2087         Name   Name  Type   Date      Type        Date                                Numb
              2087        er  Number   in  words
     2088     2088        */
     2089     2089
PL6.E3A0      #001=TOT$ERRMSGS File=TOT$ERRMSGS.:E05TSI                          WED 07/30/97 06:36 Page:137
     2090     2090        /*E* ERROR:   TOU-H$UPDATE_MC
     2091     2091         MESSAGE: *** Update Command                       CP-6  Deckfile Editor  ~RU
              2091                          Page - ~PAGE  ***
     2092     2092         *** IFAD: ~IFAD_FID                                    Deckfile: ~DF_FID
              2092                               ***
     2093     2093         *** Deckfile Master Catalog                                          Date - ~LDATE
              2093            Time - ~LTIME      ***
     2094     2094         *** ~WSN
              2094                        ~WSI   ***
     2095     2095         ***
              2095                               ***
     2096     2096         ***                                                Record  Search  Key        Deck
              2096                               ***
     2097     2097         ***                                                                           Numb
              2097        er                     ***
     2098     2098        */
     2099     2099
     2100     2100        /*E* ERROR:   TOU-H$HELP
     2101     2101         MESSAGE: *** Help Command                         CP-6  Deckfile Editor  ~RU
              2101                          Page - ~PAGE  ***
     2102     2102         *** DEER Processor                                                   Date - ~LDATE
              2102            Time - ~LTIME      ***
     2103     2103        ***********************************************************************************
              2103        **************************
     2104     2104        */
     2105     2105
     2106     2106        /*E* ERROR:   TOU-H$MERGE
     2107     2107         MESSAGE: *** Merge Diskette Command               CP-6  Deckfile Editor  ~RU
              2107                          Page - ~PAGE  ***
     2108     2108         *** DEER Processor                                                   Date - ~LDATE
              2108            Time - ~LTIME      ***
     2109     2109        */
     2110     2110
     2111     2111        /*E* ERROR:   TOU-H$MERGE_NIO
     2112     2112         MESSAGE: *** Merge Diskette Command               CP-6  Deckfile Editor  ~RU
              2112                          Page - ~PAGE  ***
     2113     2113         *** IFAD: ~IFAD_FID                                    Deckfile: ~DF_FID
PL6.E3A0      #001=TOT$ERRMSGS File=TOT$ERRMSGS.:E05TSI                          WED 07/30/97 06:36 Page:138
              2113                               ***
     2114     2114         *** Library - ~LIB                    IFAD File - ~F2                Date - ~LDATE
              2114            Time - ~LTIME      ***
     2115     2115         ***
              2115                               ***
     2116     2116         *      Edit  Deck   Title     Ident.  Equip.       Record  Search  Key        Deck
              2116            Entry    Load Size
     2117     2117         *      Name  Type   Date      Code    Type    Rev.                            Numb
              2117        er  Number   in  words
     2118     2118        */
     2119     2119
     2120     2120        /* End of DEER messages */
     2121     2121
     2122     2122        /* End of TOT$ERRMSGS */
     2123     2123
     2124     2124    1   END TOT$ERRMSGS;

PL6.E3A0      #001=TOT$ERRMSGS File=TOT$ERRMSGS.:E05TSI                          WED 07/30/97 06:36 Page:139
--  Include file information  --

   B$JIT_C.:E05TOU  was found in the system file and is never referenced.
   CP_6_C.:E05TOU  was found in the system file and is never referenced.
      No diagnostics issued in procedure TOT$ERRMSGS.
PL6.E3A0      #001=TOT$ERRMSGS File=TOT$ERRMSGS.:E05TSI                          WED 07/30/97 06:36 Page:140

 **** Variables and constants ****


   No code generated for procedure TOT$ERRMSGS .
   Procedure TOT$ERRMSGS is declared NOAUTO and requires 2 words of local(STATIC) storage.

    No errors detected in file TOT$ERRMSGS.:E05TSI    .
PL6.E3A0      #001=TOT$ERRMSGS File=TOT$ERRMSGS.:E05TSI                          WED 07/30/97 06:36 Page:141
          *** CROSS REFERENCE LISTING ***
**     DENOTES     IDENTIFIER DEFINITION
<<                 IDENTIFIER'S VALUE SET
>>                 IDENTIFIER'S VALUE USED
<>                 IDENTIFIER SET AND/OR USED
--                 IDENTIFIER REFERENCED
PL6.E3A0      #001=TOT$ERRMSGS File=TOT$ERRMSGS.:E05TSI                          WED 07/30/97 06:36 Page:142
          MINI XREF LISTING

