VERSION E05

PL6.E3A0      #001=TOU$DEBLOCKER File=TOU$DEBLOCKER.:E05TSI                      WED 07/30/97 06:40 Page:1
        1        1        /*M* TOU$DEBLOCKER      DEckfile Editor Routine IFAD Deblocker */
        2        2        /*T***********************************************************/
        3        3        /*T*                                                         */
        4        4        /*T* Copyright (c) Bull HN Information Systems Inc., 1997    */
        5        5        /*T*                                                         */
        6        6        /*T***********************************************************/
        7        7
        8        8        /*X* PLM=3,DCI=6,SQB=N,PRB=N,DTI=5,ENI=0,AND=Y,ECI=0,CSU=3,DIN=3,
        9        9             CTI=8,CRM=109,CRT=1,NLB=N,NTB=Y,MCL=110 */
       10       10
       11       11        /*P*  NAME:        TOU$DEBLOCKER
       12       12              AUTHORS:     D. Augustine
       13       13                           S. Sheppard
       14       14              PURPOSE:     DEckfile Editor Routine IFAD DEBLOCKER
       15       15              DESCRIPTION: This program reads a block of records from the
       16       16                           IFAD input source.   Records are returned from
       17       17                           the  block,  one per call,  until the block is
       18       18                           exhausted.    When a block has been completely
       19       19                           processed, a  new block is read and processing
       20       20                           continues.
       21       21              REFERENCE:   CP-6 Release C0J0
       22       22              LAST UPDATE: 06/24/83
       23       23        */
       24       24        %EJECT ;
PL6.E3A0      #001=TOU$DEBLOCKER File=TOU$DEBLOCKER.:E05TSI                      WED 07/30/97 06:40 Page:2
       25       25        /*F*  NAME:        TOU$DEBLOCKER
       26       26              DESCRIPTION: Procedure Nesting Hierarchy
       27       27
       28       28              TOU$DEBLOCKER: procedure ALTRET
       29       29              TOU$CLEAR_IFAD: entry ALTRET
       30       30              TOU$CLEAR_BLOCK: entry ALTRET
       31       31              TOU$READ_MCA_DATA: entry ALTRET
       32       32                 DB_FILL_BLOCK: procedure ALTRET
       33       33                 DB_CHECK_IFAD_STATUS: procedure ALTRET
       34       34                 DB_SET_IFAD_BLOCK: procedure ALTRET
       35       35                    DB_CHECK_IFAD_CONTROL: procedure ALTRET
       36       36                    DB_RECOVER_BSN_ERROR: procedure ALTRET
       37       37                       DB_REPOSITION_IFAD: procedure ALTRET
       38       38                       DB_REFILL_BLOCK: procedure ALTRET
       39       39                 DB_RETURN_EOF: procedure
       40       40                 DB_GET_RCW: procedure ALTRET
       41       41                 DB_RETURN_RECORD: procedure
       42       42                 DB_READ_MCA_DATA: procedure ALTRET ;
       43       43                 DB_ERR_MSG: procedure (MSG_CODE)
       44       44        */
       45       45
       46       46        TOU$DEBLOCKER: PROC ALTRET ;
       47       47
       48       48        /* Include Files */
       49       49
       50       50           %INCLUDE B_ERRORS_C ;
       51     1177           %INCLUDE CP_6 ;
       52     6736           %INCLUDE CP_6_SUBS ;
       53     7276           %INCLUDE TOU_DEER_M ;
       54     8687           %INCLUDE TO_PERR_C ;
       55     9272
       56     9273        /* Data Control Blocks */
       57     9274
       58     9275    1      DCL M$IFAD                     DCB ;
       59     9276           %EJECT ;
PL6.E3A0      #001=TOU$DEBLOCKER File=TOU$DEBLOCKER.:E05TSI                      WED 07/30/97 06:40 Page:3
       60     9277        /* Variables */
       61     9278
       62     9279           %DUP (STCLASS = SYMREF) ;
       63     9422    1      DCL CUR#                       UBIN WORD SYMREF ALIGNED ;
       64     9423    1      DCL 1 BLOCK STATIC SYMDEF,
       65     9424    1            2 CONTROL                SBIN WORD ALIGNED INIT (0),
       66     9425    1            2 OFFSET                 UBIN WORD ALIGNED INIT (0),
       67     9426    1            2 BSN                    UBIN WORD ALIGNED INIT (0),
       68     9427    1            2 BCW,
       69     9428    1              3 BSN                  UBIN HALF UNAL    INIT (0),
       70     9429    1              3 SIZE                 UBIN HALF UNAL    INIT (0),
       71     9430    1            2 DATA           (0:318) UBIN WORD ALIGNED INIT (0 *319) ;
       72     9431    1      DCL 1 BLOCK_ REDEF BLOCK ALIGNED,
       73     9432    1            2 *                      CHAR (12) ALIGNED,
       74     9433    1            2 BUFFER                 (0:319) UBIN WORD ALIGNED ;
       75     9434    1      DCL BLOCK_SEQ                  CHAR (8) SYMREF ALIGNED ;
       76     9435    1      DCL DECK_SAVED                 BIT (1) SYMREF CALIGNED ;
       77     9436    1      DCL FILE_BSN                   UBIN WORD STATIC ALIGNED INIT (0) ;
       78     9437    1      DCL FILE_EOF                   UBIN WORD STATIC SYMDEF ALIGNED INIT (0) ;
       79     9438    1      DCL FILE_FILE                  UBIN WORD STATIC SYMDEF ALIGNED INIT (0) ;
       80     9439    1      DCL FILE_SIZE                  UBIN WORD STATIC        ALIGNED INIT (0) ;
       81     9440    1      DCL IFAD_ARS#                  UBIN WORD STATIC SYMDEF ALIGNED INIT (0) ;
       82     9441    1      DCL GET_NEW_BLOCK              BIT (1) STATIC CALIGNED INIT ('1'B) ;
       83     9442           %MCA_B (STCLASS = "BASED (DUP.BINARY_V.PTR$)") ;
       84     9512    1      DCL 1 RCW STATIC SYMDEF ALIGNED,
       85     9513    1            2 SIZE                   UBIN HALF UNAL INIT (0),
       86     9514    1            2 FILE_MARK              BIT  (6)  UNAL INIT ('0'B),
       87     9515    1            2 MEDIA_CODE             UBIN (6)  UNAL INIT (0),
       88     9516    1            2 REPORT_CODE            UBIN (6)  UNAL INIT (0) ;
       89     9517    1      DCL RCW_ REDEF RCW UBIN WORD ALIGNED ;
       90     9518           %RECORD (STCLASS = "STATIC SYMDEF") ;
       91     9545           %REVISION_B (STCLASS = SYMREF) ;
       92     9566    1      DCL RETRY_COUNT                UBIN WORD ALIGNED ;
       93     9567           %EJECT ;
PL6.E3A0      #001=TOU$DEBLOCKER File=TOU$DEBLOCKER.:E05TSI                      WED 07/30/97 06:40 Page:4
       94     9568        /* Equates */
       95     9569
       96     9570           %EQU NORMAL                    = 0 ;
       97     9571           %EQU EOF                       = 1 ;
       98     9572           %EQU ERROR                     = -1 ;
       99     9573           %EQU BINARY                    = 1 ;
      100     9574           %EQU BCD                       = 2 ;
      101     9575
      102     9576        /* External Entry Points */
      103     9577
      104     9578    1      DCL TOU$DU_USER_WRITE              ENTRY ALTRET ;
      105     9579    1      DCL TOU$DU_SYSTEM_ERRMSG           ENTRY ALTRET ;
      106     9580           %EJECT ;
PL6.E3A0      #001=TOU$DEBLOCKER File=TOU$DEBLOCKER.:E05TSI                      WED 07/30/97 06:40 Page:5
      107     9581        /* ********************
      108     9582           ********************
      109     9583           **  Main Program  **
      110     9584           ********************
      111     9585           ******************** */
      112     9586
      113     9587    1      IF GET_NEW_BLOCK
      114     9588    2      THEN DO ;
      115     9589    2              CALL DB_FILL_BLOCK ALTRET (ERROR) ;
      116     9590    2              CALL DB_SET_IFAD_BLOCK ALTRET (ERROR) ;
      117     9591    2           END /* THEN */ ;
      118     9592    1      ELSE /* Use current block of current file */ ;
      119     9593
      120     9594    1      IF BLOCK.CONTROL = %EOF
      121     9595    1      THEN CALL DB_RETURN_EOF ;
      122     9596    2      ELSE DO ;
      123     9597    2              CALL DB_GET_RCW ALTRET (ERROR) ;
      124     9598    2              CALL DB_RETURN_RECORD ;
      125     9599    2           END /* ELSE */ ;
      126     9600    1      RETURN ;
      127     9601
      128     9602    1   ERROR:
      129     9603    1      ALTRETURN ;
      130     9604
      131     9605        /* ********************
      132     9606           ********************
      133     9607           **  End Of  Main  **
      134     9608           ********************
      135     9609           ******************** */
      136     9610        %EJECT ;
PL6.E3A0      #001=TOU$DEBLOCKER File=TOU$DEBLOCKER.:E05TSI                      WED 07/30/97 06:40 Page:6
      137     9611        /*D*  NAME:        TOU$CLEAR_IFAD
      138     9612              ENTRY:
      139     9613              AUTHOR:      Dave Augustine
      140     9614              INTERFACE:   None called.
      141     9615              DESCRIPTION: This entry point initializes variables used
      142     9616                           to read blocks from the IFAD input source.
      143     9617        */
      144     9618
      145     9619    1   TOU$CLEAR_IFAD: ENTRY ALTRET ;
      146     9620
      147     9621    1      BLOCK.CONTROL = %NORMAL ;
      148     9622    1      BLOCK.OFFSET  = 0 ;
      149     9623    1      BLOCK.BSN     = 0 ;
      150     9624    1      BLOCK.BCW.BSN = 0 ;
      151     9625    1      BLOCK.BCW.SIZE = 0 ;
      152     9626    1      FILE_FILE = 1 ;
      153     9627    1      FILE_BSN = 1 ;
      154     9628    1      FILE_EOF = 0 ;
      155     9629    1      FILE_SIZE = 0 ;
      156     9630    1      RETRY_COUNT = 0 ;
      157     9631    1      REVISION_B.VERSION = ' ' ;
      158     9632    1      REVISION_B.MASK = 'CP-6' ;
      159     9633    1      GET_NEW_BLOCK = %TRUE ;
      160     9634    1      DECK_SAVED = %FALSE ;
      161     9635    1      RETURN ;
      162     9636
      163     9637        %EJECT ;
PL6.E3A0      #001=TOU$DEBLOCKER File=TOU$DEBLOCKER.:E05TSI                      WED 07/30/97 06:40 Page:7
      164     9638        /*D*  NAME:        TOU$CLEAR_BLOCK
      165     9639              ENTRY:
      166     9640              AUTHOR:      Scott Sheppard
      167     9641              INTERFACE:   None called.
      168     9642              DESCRIPTION: This entry point initializes variables used to
      169     9643                           determine if a new IFAD block should be read.
      170     9644        */
      171     9645
      172     9646    1   TOU$CLEAR_BLOCK: ENTRY ALTRET ;
      173     9647
      174     9648    1      GET_NEW_BLOCK = %TRUE ;
      175     9649    1      RETURN ;
      176     9650
      177     9651        %EJECT ;
PL6.E3A0      #001=TOU$DEBLOCKER File=TOU$DEBLOCKER.:E05TSI                      WED 07/30/97 06:40 Page:8
      178     9652        /*D*  NAME:        TOU$READ_MCA_DATA
      179     9653              ENTRY:
      180     9654              AUTHOR:      Scott S. Sheppard
      181     9655              INTERFACE:   DB_READ_MCA_DATA
      182     9656              DESCRIPTION: This entry point calls procedure DB_READ_MCA_DATA to
      183     9657                           read data from the MCA diskettes.
      184     9658        */
      185     9659
      186     9660    1   TOU$READ_MCA_DATA: ENTRY ALTRET ;
      187     9661
      188     9662    1      CALL DB_READ_MCA_DATA ALTRET (READ_MCA_ERROR) ;
      189     9663    1      RETURN ;
      190     9664
      191     9665    1   READ_MCA_ERROR:
      192     9666    1      ALTRETURN ;
      193     9667
      194     9668        %EJECT ;
PL6.E3A0      #001=TOU$DEBLOCKER File=TOU$DEBLOCKER.:E05TSI                      WED 07/30/97 06:40 Page:9
      195     9669    1   DB_FILL_BLOCK: PROC ALTRET ;
      196     9670
      197     9671           %FPT_READ (FPTN = READ_IFAD,
      198     9672                      BIN  = YES,
      199     9673                      BUF  = BLOCK_.BUFFER,
      200     9674                      DCB  = M$IFAD,
      201     9675                      WAIT = YES) ;
      202     9714
      203     9715        /* Code */
      204     9716
      205     9717    2      RETRY_COUNT = 0 ;
      206     9718
      207     9719    2      BLOCK.CONTROL = %NORMAL ;
      208     9720    2      BLOCK.BSN = FILE_BSN ;
      209     9721    2      FILE_BSN = FILE_BSN + 1 ;
      210     9722
      211     9723    2      CALL M$READ (READ_IFAD) ALTRET (BAD_IFAD_READ) ;
      212     9724    2      GET_NEW_BLOCK = %FALSE ;
      213     9725    2      RETURN ;
      214     9726
      215     9727    2   BAD_IFAD_READ:
      216     9728    2      CALL DB_CHECK_IFAD_STATUS ALTRET (ERROR) ;
      217     9729    2      RETURN ;
      218     9730
      219     9731    2   ERROR:
      220     9732    2      ALTRETURN ;
      221     9733
      222     9734    2   END DB_FILL_BLOCK ;
      223     9735        %EJECT ;
PL6.E3A0      #001=TOU$DEBLOCKER File=TOU$DEBLOCKER.:E05TSI                      WED 07/30/97 06:40 Page:10
      224     9736    1   DB_CHECK_IFAD_STATUS: PROC ALTRET ;
      225     9737
      226     9738    2      DCL B$TCB$            PTR SYMREF ;
      227     9739    2      DCL 1 EOF_RCW CONSTANT ALIGNED,
      228     9740    2            2 SIZE        UBIN HALF UNAL INIT (0),
      229     9741    2            2 FILE_MARK   BIT  (6)  UNAL INIT ('17'O),
      230     9742    2            2 *           UBIN (12) UNAL INIT (0) ;
      231     9743    2      DCL EOF_RCW_ REDEF EOF_RCW UBIN WORD ALIGNED ;
      232     9744           %B$ALT ;
      233     9752           %B$TCB ;
      234     9755
      235     9756        /* Code */
      236     9757
      237     9758    2      IF B$TCB$ -> B$TCB.ALT$ -> B$ALT.ERR.ERR# = %E$EOF
      238     9759    3      THEN DO ;
      239     9760    3              BLOCK.CONTROL = %EOF ;
      240     9761    3              BLOCK.OFFSET = 0 ;
      241     9762    3              BLOCK.BCW.BSN = BLOCK.BSN ;
      242     9763    3              BLOCK.BCW.SIZE = 1 ;
      243     9764    3              BLOCK.DATA(BLOCK.OFFSET) = EOF_RCW_ ;
      244     9765    3              RETURN ;
      245     9766    3           END /* THEN */ ;
      246     9767    3      ELSE DO ;
      247     9768    3              BLOCK.CONTROL = %ERROR ;
      248     9769    3              CALL DB_ERR_MSG (%E$DB_IFAD_READ) ;
      249     9770    3              CALL TOU$DU_SYSTEM_ERRMSG ;
      250     9771    3              ALTRETURN ;
      251     9772    3           END /* ELSE */ ;
      252     9773
      253     9774    2   END DB_CHECK_IFAD_STATUS ;
      254     9775        %EJECT ;
PL6.E3A0      #001=TOU$DEBLOCKER File=TOU$DEBLOCKER.:E05TSI                      WED 07/30/97 06:40 Page:11
      255     9776    1   DB_SET_IFAD_BLOCK: PROC ALTRET ;
      256     9777
      257     9778        /* Code */
      258     9779
      259     9780    3      DO WHILE (BLOCK.CONTROL = %NORMAL) ;
      260     9781    3         CALL DB_CHECK_IFAD_CONTROL ALTRET (ERROR) ;
      261     9782    3         IF (BLOCK.BCW.BSN ~= BLOCK.BSN)
      262     9783    3         THEN CALL DB_RECOVER_BSN_ERROR ALTRET (ERROR) ;
      263     9784    3         ELSE /* No Error */ ;
      264     9785    3      END ;
      265     9786    2      BLOCK.OFFSET = 0 ;
      266     9787    2      IF BLOCK.CONTROL = %EOF
      267     9788    2      THEN /* No file size to assign. */ ;
      268     9789    2      ELSE FILE_SIZE = FILE_SIZE + BLOCK.CONTROL ;
      269     9790    2      RETURN ;
      270     9791
      271     9792    2   ERROR:
      272     9793    2      ALTRETURN ;
      273     9794
      274     9795        /* END DB_SET_IFAD_BLOCK */
      275     9796        %EJECT ;
PL6.E3A0      #001=TOU$DEBLOCKER File=TOU$DEBLOCKER.:E05TSI                      WED 07/30/97 06:40 Page:12
      276     9797    2   DB_CHECK_IFAD_CONTROL: PROC ALTRET ;
      277     9798
      278     9799           %F$DCB ;
      279     9856
      280     9857        /* Code */
      281     9858
      282     9859    3      IFAD_ARS# = DCBADDR (DCBNUM (M$IFAD)) -> F$DCB.ARS# ;
      283     9860
      284     9861    3      BLOCK.CONTROL = IFAD_ARS# / 4 ;
      285     9862
      286     9863    3      IF MOD (IFAD_ARS#, 4) > 1
      287     9864    3      THEN CALL DB_ERR_MSG (%E$DB_IFAD_RCD_SIZE) ;
      288     9865    3      ELSE IF MOD (IFAD_ARS#, 4) = 1 AND MOD (BLOCK.CONTROL, 2) ~= 1
      289     9866    3         THEN CALL DB_ERR_MSG (%E$DB_IFAD_RCD_SIZE) ;
      290     9867    3         ELSE IF BLOCK.BCW.SIZE ~= BLOCK.CONTROL - 1
      291     9868    3            THEN CALL DB_ERR_MSG (%E$DB_IFAD_BLOCK_SIZE) ;
      292     9869    3            ELSE RETURN ;
      293     9870    3      ALTRETURN ;
      294     9871
      295     9872    3   END DB_CHECK_IFAD_CONTROL ;
      296     9873        %EJECT ;
PL6.E3A0      #001=TOU$DEBLOCKER File=TOU$DEBLOCKER.:E05TSI                      WED 07/30/97 06:40 Page:13
      297     9874    2   DB_RECOVER_BSN_ERROR: PROC ALTRET ;
      298     9875
      299     9876        /* Code */
      300     9877
      301     9878    3      BLOCK.CONTROL = %ERROR ;
      302     9879    3      RETRY_COUNT = RETRY_COUNT + 1 ;
      303     9880    3      IF RETRY_COUNT > 64
      304     9881    4      THEN DO ;
      305     9882    4              CALL DB_ERR_MSG (%E$DB_BSN_ERROR) ;
      306     9883    4   ERROR:
      307     9884    4              ALTRETURN ;
      308     9885    4           END /* THEN */ ;
      309     9886    4      ELSE DO ;
      310     9887    4              CALL DB_REPOSITION_IFAD ALTRET (ERROR) ;
      311     9888    4              CALL DB_REFILL_BLOCK ALTRET (ERROR) ;
      312     9889    4              RETURN ;
      313     9890    4           END /* ELSE */ ;
      314     9891
      315     9892        /* END DB_RECOVER_BSN_ERROR */
      316     9893        %EJECT ;
PL6.E3A0      #001=TOU$DEBLOCKER File=TOU$DEBLOCKER.:E05TSI                      WED 07/30/97 06:40 Page:14
      317     9894    3   DB_REPOSITION_IFAD: PROC ALTRET ;
      318     9895
      319     9896    4      DCL B$TCB$   PTR SYMREF ;
      320     9897           %B$TCB ;
      321     9900           %B$ALT ;
      322     9908           %FPT_PRECORD (FPTN = POSITION_IFAD,
      323     9909                         DCB  = M$IFAD) ;
      324     9930
      325     9931        /* Code */
      326     9932
      327     9933    4      POSITION_IFAD.V.N# = BLOCK.BSN - 1 - BLOCK.BCW.BSN ;
      328     9934    4      IF POSITION_IFAD.V.N# = 0
      329     9935    4      THEN /* Do Nothing */ ;
      330     9936    4      ELSE CALL M$PRECORD (POSITION_IFAD) ALTRET (BAD_IFAD_POSITION) ;
      331     9937    4      RETURN ;
      332     9938
      333     9939    4   BAD_IFAD_POSITION:
      334     9940    5      DO CASE (B$TCB$ -> B$TCB.ALT$ -> B$ALT.ERR.ERR#) ;
      335     9941    5         CASE (%E$EOF) ;
      336     9942    5            CALL DB_ERR_MSG (%E$DB_BSN_EOF) ;
      337     9943    5            ALTRETURN ;
      338     9944    5         CASE (%E$BOT) ;
      339     9945    5            RETURN ;
      340     9946    5         CASE (ELSE) ;
      341     9947    5            CALL DB_ERR_MSG (%E$DB_IFAD_POSITION) ;
      342     9948    5            CALL TOU$DU_SYSTEM_ERRMSG ;
      343     9949    5            ALTRETURN ;
      344     9950    5      END /* CASE */ ;
      345     9951
      346     9952    4   END DB_REPOSITION_IFAD ;
      347     9953        %EJECT ;
PL6.E3A0      #001=TOU$DEBLOCKER File=TOU$DEBLOCKER.:E05TSI                      WED 07/30/97 06:40 Page:15
      348     9954    3   DB_REFILL_BLOCK: PROC ALTRET ;
      349     9955
      350     9956           %FPT_READ (FPTN = READ_IFAD,
      351     9957                      BIN  = YES,
      352     9958                      BUF  = BLOCK_.BUFFER,
      353     9959                      DCB  = M$IFAD,
      354     9960                      WAIT = YES) ;
      355     9999
      356    10000        /* Code */
      357    10001
      358    10002    4      CALL M$READ (READ_IFAD) ALTRET (BAD_IFAD_READ) ;
      359    10003    4      IF BLOCK.CONTROL = %ERROR
      360    10004    4      THEN BLOCK.CONTROL = %NORMAL ;
      361    10005    4      ELSE /* BLOCK.CONTROL was NORMAL or EOF */ ;
      362    10006    4      RETURN ;
      363    10007
      364    10008    4   BAD_IFAD_READ:
      365    10009    4      CALL DB_CHECK_IFAD_STATUS ALTRET (ERROR) ;
      366    10010    4      RETURN ;
      367    10011
      368    10012    4   ERROR:
      369    10013    4      ALTRETURN ;
      370    10014
      371    10015    4   END DB_REFILL_BLOCK ;
      372    10016    3   END DB_RECOVER_BSN_ERROR ;
      373    10017    2   END DB_SET_IFAD_BLOCK ;
      374    10018        %EJECT ;
PL6.E3A0      #001=TOU$DEBLOCKER File=TOU$DEBLOCKER.:E05TSI                      WED 07/30/97 06:40 Page:16
      375    10019    1   DB_RETURN_EOF: PROC ;
      376    10020
      377    10021        /* Code */
      378    10022
      379    10023    2      FILE_FILE = FILE_FILE + 1 ;
      380    10024    2      FILE_BSN = 1 ;
      381    10025
      382    10026    2      RECORD.SIZE = 0 ;
      383    10027    2      BLOCK.CONTROL = %NORMAL ;
      384    10028
      385    10029    2      IF FILE_SIZE = 0
      386    10030    2      THEN FILE_EOF = 2 ;
      387    10031    2      ELSE FILE_EOF = 1 ;
      388    10032
      389    10033    2      FILE_SIZE = 0 ;
      390    10034    2      BLOCK_SEQ = ' ' ;
      391    10035    2      RETURN ;
      392    10036
      393    10037    2   END DB_RETURN_EOF ;
      394    10038        %EJECT ;
PL6.E3A0      #001=TOU$DEBLOCKER File=TOU$DEBLOCKER.:E05TSI                      WED 07/30/97 06:40 Page:17
      395    10039    1   DB_GET_RCW: PROC ALTRET ;
      396    10040
      397    10041        /* Code */
      398    10042
      399    10043    2      RCW_ = BLOCK.DATA(BLOCK.OFFSET) ;
      400    10044    3      DO CASE (RCW.SIZE) ;
      401    10045    3         CASE (0) ;
      402    10046    3            IF RCW.FILE_MARK = '17'O
      403    10047    3            THEN BLOCK.CONTROL = %NORMAL ;
      404    10048    4            ELSE DO ;
      405    10049    4                    CALL DB_ERR_MSG (%E$DB_OBJ_FILE_MARK) ;
      406    10050    4                    ALTRETURN ;
      407    10051    4                 END /* ELSE */ ;
      408    10052    3         CASE (14, 27) ;
      409    10053    3            IF RCW.SIZE = 14 & RCW.MEDIA_CODE = %BCD OR
      410    10054    3                    RCW.SIZE = 27 & RCW.MEDIA_CODE = %BINARY
      411    10055    3            THEN IF BLOCK.OFFSET + RCW.SIZE + 2 > BLOCK.CONTROL
      412    10056    4               THEN DO ;
      413    10057    4                       CALL DB_ERR_MSG (%E$DB_IFAD_LBLOCK) ;
      414    10058    4                       ALTRETURN ;
      415    10059    4                    END /* THEN */ ;
      416    10060    3               ELSE /* Record returned from data block. */ ;
      417    10061    4            ELSE DO ;
      418    10062    4                    CALL DB_ERR_MSG (%E$DB_IFAD_MCODE) ;
      419    10063    4                    ALTRETURN ;
      420    10064    4                 END /* ELSE */ ;
      421    10065    3         CASE (ELSE) ;
      422    10066    3            CALL DB_ERR_MSG (%E$DB_IFAD_SIZE) ;
      423    10067    3            ALTRETURN ;
      424    10068    3      END /* CASE */ ;
      425    10069    2      RETURN ;
      426    10070
      427    10071    2   END DB_GET_RCW ;
      428    10072        %EJECT ;
PL6.E3A0      #001=TOU$DEBLOCKER File=TOU$DEBLOCKER.:E05TSI                      WED 07/30/97 06:40 Page:18
      429    10073    1   DB_RETURN_RECORD: PROC ;
      430    10074
      431    10075        /* Code */
      432    10076
      433    10077    2      RECORD.SIZE = RCW.SIZE ;
      434    10078    3      DO CUR# = 0 TO RCW.SIZE - 1 ;
      435    10079    3         RECORD.DATA(CUR#) = BLOCK.DATA(CUR# + 1 + BLOCK.OFFSET) ;
      436    10080    3      END ;
      437    10081    2      BLOCK.OFFSET = BLOCK.OFFSET + RCW.SIZE + 1 ;
      438    10082    2      IF BLOCK.OFFSET = BLOCK.CONTROL - 1
      439    10083    3      THEN DO ;
      440    10084    3              BLOCK.CONTROL = %NORMAL ;
      441    10085    3              GET_NEW_BLOCK = %TRUE ;
      442    10086    3           END /* THEN */ ;
      443    10087    2      ELSE /* Block is not yet exhausted. */ ;
      444    10088    2      RETURN ;
      445    10089
      446    10090    2   END DB_RETURN_RECORD ;
      447    10091        %EJECT ;
PL6.E3A0      #001=TOU$DEBLOCKER File=TOU$DEBLOCKER.:E05TSI                      WED 07/30/97 06:40 Page:19
      448    10092    1   DB_READ_MCA_DATA: PROC ALTRET ;
      449    10093
      450    10094           %F$DCB ;
      451    10151    2      DCL LGTH          UBIN WORD ALIGNED ;
      452    10152    2      DCL PTR$          PTR ALIGNED ;
      453    10153    2      DCL 1 PTR_ REDEF PTR$ ALIGNED,
      454    10154    2            2 ADDRESS   BIT (18) UNAL,
      455    10155    2            2 SEGID     UBIN (18) UNAL ;
      456    10156    2      DCL MCA_ERROR_MSG CHAR (LGTH) BASED (PTR$) CALIGNED ;
      457    10157           %FPT_TDIO (FPTN    = READ_MCA,
      458    10158                      DCB     = M$IFAD,
      459    10159                      TIMEOUT = 0,
      460    10160                      WAIT    = YES) ;
      461    10177           %EJECT ;
PL6.E3A0      #001=TOU$DEBLOCKER File=TOU$DEBLOCKER.:E05TSI                      WED 07/30/97 06:40 Page:20
      462    10178        /* Code */
      463    10179
      464    10180    2      READ_MCA.DCWLIST_ = VECTOR (MCA_B.DCW_LIST) ;
      465    10181    2      READ_MCA.DATA_ = DUP.BINARY_V ;
      466    10182    2      CALL M$TDIO (READ_MCA) WHENRETURN
      467    10183    3           DO ;
      468    10184    3              MCA_B.STATUS = DCBADDR (DCBNUM (M$IFAD)) -> F$DCB.TDSTAT# ;
      469    10185    3              RETURN ;
      470    10186    3           END /* WHENRETURN */ ;
      471    10187    2      WHENALTRETURN
      472    10188    3           DO ;
      473    10189    3              MCA_B.STATUS = DCBADDR (DCBNUM (M$IFAD)) -> F$DCB.TDSTAT# ;
      474    10190    3              IF MCA_B.STATUS.SUB.RDP
      475    10191    4              THEN DO ;
      476    10192    4                      PTR_.ADDRESS = MCA_B.DCW_LIST.DCW2.ADDRESS ;
      477    10193    4                      PTR_.SEGID = %IS_SEGID# ;
      478    10194    4                      LGTH = MINIMUM (80, MCA_B.DCW_LIST.DCW2.COUNT * 4) ;
      479    10195    4                      DUP.ERROR_IMAGE = MCA_ERROR_MSG ;
      480    10196    4                   END /* THEN */ ;
      481    10197    3              ELSE DUP.ERROR_IMAGE = '(no error message returned by the MCA)' ;
      482    10198    3              CALL DB_ERR_MSG (%E$DB_MCA_READ) ;
      483    10199    3              CALL TOU$DU_SYSTEM_ERRMSG ;
      484    10200    3              ALTRETURN ;
      485    10201    3           END /* WHENALTRETURN */ ;
      486    10202
      487    10203    2   END DB_READ_MCA_DATA ;
      488    10204        %EJECT ;
PL6.E3A0      #001=TOU$DEBLOCKER File=TOU$DEBLOCKER.:E05TSI                      WED 07/30/97 06:40 Page:21
      489    10205    1   DB_ERR_MSG: PROC (MSG_CODE) ;
      490    10206
      491    10207    2      DCL MSG_CODE                   UBIN WORD ALIGNED ;
      492    10208
      493    10209        /* Code */
      494    10210
      495    10211    2      DUP.MSG_CODE = MSG_CODE ;
      496    10212    2      CALL TOU$DU_USER_WRITE ;
      497    10213    2      RETURN ;
      498    10214
      499    10215    2   END DB_ERR_MSG ;
      500    10216    1   END TOU$DEBLOCKER ;

PL6.E3A0      #001=TOU$DEBLOCKER File=TOU$DEBLOCKER.:E05TSI                      WED 07/30/97 06:40 Page:22
--  Include file information  --

   TO_PERR_C.:E05TOU  is referenced.
   TOU_DEER_M.:E05TOU  is referenced.
   CP_6_SUBS.:E05TOU  is referenced.
   CP_6_C.:E05TOU  is referenced.
   CP_6.:E05TOU  cannot be made into a system file and is referenced.
   B_ERRORS_C.:E05TOU  is referenced.
      No diagnostics issued in procedure TOU$DEBLOCKER.

   Procedure TOU$DEBLOCKER requires 486 words for executable code.
   Procedure TOU$DEBLOCKER requires 16 words of local(AUTO) storage.

    No errors detected in file TOU$DEBLOCKER.:E05TSI    .

PL6.E3A0      #001=TOU$DEBLOCKER File=TOU$DEBLOCKER.:E05TSI                      WED 07/30/97 06:40 Page:23

 Object Unit name= TOU$DEBLOCKER                              File name= TOU$DEBLOCKER.:E05TOU
 UTS= JUL 30 '97 06:40:33.96 WED                              Compiler= PL-6/E31         Sev=      00
 SharedLib= :SHARED_SYSTEM                                    Alt SharedLib=


    ****  Control sections  ****

 Sect   Type Bound  Init  Size OctSiz  Section name(segment info)
    0   DCB   even  none     0      0  M$UC
    1   DCB   even  none     0      0  M$IFAD
    2   Data  even  none   406    626  TOU$DEBLOCKER
    3  RoData even  UTS     12     14  TOU$DEBLOCKER
    4   Proc  even  none   486    746  TOU$DEBLOCKER
    5  RoData even  none    25     31  TOU$DEBLOCKER

    ****  Entry defs  ****

                              Check   Calling
                             calling  sequence
  Sect OctLoc Primary Altret sequence   type   Parms  Name
     4      0   yes    yes     yes      Std        0  TOU$DEBLOCKER
     4     24          yes     yes      Std        0  TOU$CLEAR_IFAD
     4     54          yes     yes      Std        0  TOU$CLEAR_BLOCK
     4     61          yes     yes      Std        0  TOU$READ_MCA_DATA

  ****  Data defs  ****

 Sect OctLoc  Name                           Sect OctLoc  Name
    2      0  BLOCK                              2    504  FILE_EOF
    2    505  FILE_FILE                          2    507  IFAD_ARS#
    2    511  RCW                                2    512  RECORD
PL6.E3A0      #001=TOU$DEBLOCKER File=TOU$DEBLOCKER.:E05TSI                      WED 07/30/97 06:40 Page:24

  ****  Entry refs  ****

         Check        Calling
        calling       sequence
Altret sequence SRef   type   Args  Name
 yes     yes           Std       0 TOU$DU_SYSTEM_ERRMSG
 yes     yes           Std       0 TOU$DU_USER_WRITE
                       nStd      0 X66_AUTO_0
                       nStd      0 X66_ARET
                       nStd      0 X66_AALT
                       Std       0 B_CONSPOOL_D

  ****  Data refs  ****

  Flags:  r = read only, s = secondary
Flgs Name                             Flgs Name                             Flgs Name
     M$UC                                  M$IFAD                                DUP
     CUR#                                  BLOCK_SEQ                             DECK_SAVED
     REVISION_B                            B$TCB$                                B$TCB$
     B_VECTNIL

  ****  Segment refs  ****

  Flags:  r = read only, s = secondary
Flgs Name                             Flgs Name                             Flgs Name
     ISSID                                 NULLSID                               ROSID
PL6.E3A0      #001=TOU$DEBLOCKER File=TOU$DEBLOCKER.:E05TSI                      WED 07/30/97 06:40 Page:25


        1        1        /*M* TOU$DEBLOCKER      DEckfile Editor Routine IFAD Deblocker */
        2        2        /*T***********************************************************/
        3        3        /*T*                                                         */
        4        4        /*T* Copyright (c) Bull HN Information Systems Inc., 1997    */
        5        5        /*T*                                                         */
        6        6        /*T***********************************************************/
        7        7
        8        8        /*X* PLM=3,DCI=6,SQB=N,PRB=N,DTI=5,ENI=0,AND=Y,ECI=0,CSU=3,DIN=3,
        9        9             CTI=8,CRM=109,CRT=1,NLB=N,NTB=Y,MCL=110 */
       10       10
       11       11        /*P*  NAME:        TOU$DEBLOCKER
       12       12              AUTHORS:     D. Augustine
       13       13                           S. Sheppard
       14       14              PURPOSE:     DEckfile Editor Routine IFAD DEBLOCKER
       15       15              DESCRIPTION: This program reads a block of records from the
       16       16                           IFAD input source.   Records are returned from
       17       17                           the  block,  one per call,  until the block is
       18       18                           exhausted.    When a block has been completely
       19       19                           processed, a  new block is read and processing
       20       20                           continues.
       21       21              REFERENCE:   CP-6 Release C0J0
       22       22              LAST UPDATE: 06/24/83
       23       23        */
       24       24        %EJECT ;
PL6.E3A0      #001=TOU$DEBLOCKER File=TOU$DEBLOCKER.:E05TSI                      WED 07/30/97 06:40 Page:26
       25       25        /*F*  NAME:        TOU$DEBLOCKER
       26       26              DESCRIPTION: Procedure Nesting Hierarchy
       27       27
       28       28              TOU$DEBLOCKER: procedure ALTRET
       29       29              TOU$CLEAR_IFAD: entry ALTRET
       30       30              TOU$CLEAR_BLOCK: entry ALTRET
       31       31              TOU$READ_MCA_DATA: entry ALTRET
       32       32                 DB_FILL_BLOCK: procedure ALTRET
       33       33                 DB_CHECK_IFAD_STATUS: procedure ALTRET
       34       34                 DB_SET_IFAD_BLOCK: procedure ALTRET
       35       35                    DB_CHECK_IFAD_CONTROL: procedure ALTRET
       36       36                    DB_RECOVER_BSN_ERROR: procedure ALTRET
       37       37                       DB_REPOSITION_IFAD: procedure ALTRET
       38       38                       DB_REFILL_BLOCK: procedure ALTRET
       39       39                 DB_RETURN_EOF: procedure
       40       40                 DB_GET_RCW: procedure ALTRET
       41       41                 DB_RETURN_RECORD: procedure
       42       42                 DB_READ_MCA_DATA: procedure ALTRET ;
       43       43                 DB_ERR_MSG: procedure (MSG_CODE)
       44       44        */
       45       45
       46       46        TOU$DEBLOCKER: PROC ALTRET ;

     46  4 000000   000000 700200 xent  TOU$DEBLOCK* TSX0  ! X66_AUTO_0
         4 000001   000020 000000                    ZERO    16,0

       47       47
       48       48        /* Include Files */
       49       49
       50       50           %INCLUDE B_ERRORS_C ;
       51     1177           %INCLUDE CP_6 ;
       52     6736           %INCLUDE CP_6_SUBS ;
       53     7276           %INCLUDE TOU_DEER_M ;
       54     8687           %INCLUDE TO_PERR_C ;
       55     9272
       56     9273        /* Data Control Blocks */
       57     9274
PL6.E3A0      #001=TOU$DEBLOCKER File=TOU$DEBLOCKER.:E05TSI                      WED 07/30/97 06:40 Page:27
       58     9275    1      DCL M$IFAD                     DCB ;
       59     9276           %EJECT ;
PL6.E3A0      #001=TOU$DEBLOCKER File=TOU$DEBLOCKER.:E05TSI                      WED 07/30/97 06:40 Page:28
       60     9277        /* Variables */
       61     9278
       62     9279           %DUP (STCLASS = SYMREF) ;
       63     9422    1      DCL CUR#                       UBIN WORD SYMREF ALIGNED ;
       64     9423    1      DCL 1 BLOCK STATIC SYMDEF,
       65     9424    1            2 CONTROL                SBIN WORD ALIGNED INIT (0),
       66     9425    1            2 OFFSET                 UBIN WORD ALIGNED INIT (0),
       67     9426    1            2 BSN                    UBIN WORD ALIGNED INIT (0),
       68     9427    1            2 BCW,
       69     9428    1              3 BSN                  UBIN HALF UNAL    INIT (0),
       70     9429    1              3 SIZE                 UBIN HALF UNAL    INIT (0),
       71     9430    1            2 DATA           (0:318) UBIN WORD ALIGNED INIT (0 *319) ;
       72     9431    1      DCL 1 BLOCK_ REDEF BLOCK ALIGNED,
       73     9432    1            2 *                      CHAR (12) ALIGNED,
       74     9433    1            2 BUFFER                 (0:319) UBIN WORD ALIGNED ;
       75     9434    1      DCL BLOCK_SEQ                  CHAR (8) SYMREF ALIGNED ;
       76     9435    1      DCL DECK_SAVED                 BIT (1) SYMREF CALIGNED ;
       77     9436    1      DCL FILE_BSN                   UBIN WORD STATIC ALIGNED INIT (0) ;
       78     9437    1      DCL FILE_EOF                   UBIN WORD STATIC SYMDEF ALIGNED INIT (0) ;
       79     9438    1      DCL FILE_FILE                  UBIN WORD STATIC SYMDEF ALIGNED INIT (0) ;
       80     9439    1      DCL FILE_SIZE                  UBIN WORD STATIC        ALIGNED INIT (0) ;
       81     9440    1      DCL IFAD_ARS#                  UBIN WORD STATIC SYMDEF ALIGNED INIT (0) ;
       82     9441    1      DCL GET_NEW_BLOCK              BIT (1) STATIC CALIGNED INIT ('1'B) ;
       83     9442           %MCA_B (STCLASS = "BASED (DUP.BINARY_V.PTR$)") ;
       84     9512    1      DCL 1 RCW STATIC SYMDEF ALIGNED,
       85     9513    1            2 SIZE                   UBIN HALF UNAL INIT (0),
       86     9514    1            2 FILE_MARK              BIT  (6)  UNAL INIT ('0'B),
       87     9515    1            2 MEDIA_CODE             UBIN (6)  UNAL INIT (0),
       88     9516    1            2 REPORT_CODE            UBIN (6)  UNAL INIT (0) ;
       89     9517    1      DCL RCW_ REDEF RCW UBIN WORD ALIGNED ;
       90     9518           %RECORD (STCLASS = "STATIC SYMDEF") ;
       91     9545           %REVISION_B (STCLASS = SYMREF) ;
       92     9566    1      DCL RETRY_COUNT                UBIN WORD ALIGNED ;
       93     9567           %EJECT ;
PL6.E3A0      #001=TOU$DEBLOCKER File=TOU$DEBLOCKER.:E05TSI                      WED 07/30/97 06:40 Page:29
       94     9568        /* Equates */
       95     9569
       96     9570           %EQU NORMAL                    = 0 ;
       97     9571           %EQU EOF                       = 1 ;
       98     9572           %EQU ERROR                     = -1 ;
       99     9573           %EQU BINARY                    = 1 ;
      100     9574           %EQU BCD                       = 2 ;
      101     9575
      102     9576        /* External Entry Points */
      103     9577
      104     9578    1      DCL TOU$DU_USER_WRITE              ENTRY ALTRET ;
      105     9579    1      DCL TOU$DU_SYSTEM_ERRMSG           ENTRY ALTRET ;
      106     9580           %EJECT ;
PL6.E3A0      #001=TOU$DEBLOCKER File=TOU$DEBLOCKER.:E05TSI                      WED 07/30/97 06:40 Page:30
      107     9581        /* ********************
      108     9582           ********************
      109     9583           **  Main Program  **
      110     9584           ********************
      111     9585           ******************** */
      112     9586
      113     9587    1      IF GET_NEW_BLOCK

   9587  4 000002   000510 234000 2                  SZN     GET_NEW_BLOCK
         4 000003   000010 605000 4                  TPL     s:9594

      114     9588    2      THEN DO ;

      115     9589    2              CALL DB_FILL_BLOCK ALTRET (ERROR) ;

   9589  4 000004   000067 701000 4                  TSX1    DB_FILL_BLOCK
         4 000005   000023 702000 4                  TSX2    ERROR

      116     9590    2              CALL DB_SET_IFAD_BLOCK ALTRET (ERROR) ;

   9590  4 000006   000150 701000 4                  TSX1    DB_SET_IFAD_BLOCK
         4 000007   000023 702000 4                  TSX2    ERROR

      117     9591    2           END /* THEN */ ;

      118     9592    1      ELSE /* Use current block of current file */ ;
      119     9593
      120     9594    1      IF BLOCK.CONTROL = %EOF

   9594  4 000010   000000 235000 2                  LDA     BLOCK
         4 000011   000001 115007                    CMPA    1,DL
         4 000012   000016 601000 4                  TNZ     s:9597

      121     9595    1      THEN CALL DB_RETURN_EOF ;

   9595  4 000013   000403 701000 4                  TSX1    DB_RETURN_EOF
         4 000014   000000 011000                    NOP     0
PL6.E3A0      #001=TOU$DEBLOCKER File=TOU$DEBLOCKER.:E05TSI                      WED 07/30/97 06:40 Page:31
         4 000015   000022 710000 4                  TRA     s:9600

      122     9596    2      ELSE DO ;

      123     9597    2              CALL DB_GET_RCW ALTRET (ERROR) ;

   9597  4 000016   000430 701000 4                  TSX1    DB_GET_RCW
         4 000017   000023 702000 4                  TSX2    ERROR

      124     9598    2              CALL DB_RETURN_RECORD ;

   9598  4 000020   000600 701000 4                  TSX1    DB_RETURN_RECORD
         4 000021   000000 011000                    NOP     0

      125     9599    2           END /* ELSE */ ;

      126     9600    1      RETURN ;

   9600  4 000022   000000 702200 xent               TSX2  ! X66_ARET

      127     9601
      128     9602    1   ERROR:
      129     9603    1      ALTRETURN ;

   9603  4 000023   000000 702200 xent  ERROR        TSX2  ! X66_AALT

      130     9604
      131     9605        /* ********************
      132     9606           ********************
      133     9607           **  End Of  Main  **
      134     9608           ********************
      135     9609           ******************** */
      136     9610        %EJECT ;
PL6.E3A0      #001=TOU$DEBLOCKER File=TOU$DEBLOCKER.:E05TSI                      WED 07/30/97 06:40 Page:32
      137     9611        /*D*  NAME:        TOU$CLEAR_IFAD
      138     9612              ENTRY:
      139     9613              AUTHOR:      Dave Augustine
      140     9614              INTERFACE:   None called.
      141     9615              DESCRIPTION: This entry point initializes variables used
      142     9616                           to read blocks from the IFAD input source.
      143     9617        */
      144     9618
      145     9619    1   TOU$CLEAR_IFAD: ENTRY ALTRET ;

   9619  4 000024   000000 700200 xent  TOU$CLEAR_I* TSX0  ! X66_AUTO_0
         4 000025   000020 000000                    ZERO    16,0

      146     9620
      147     9621    1      BLOCK.CONTROL = %NORMAL ;

   9621  4 000026   000000 450000 2                  STZ     BLOCK

      148     9622    1      BLOCK.OFFSET  = 0 ;

   9622  4 000027   000001 450000 2                  STZ     BLOCK+1

      149     9623    1      BLOCK.BSN     = 0 ;

   9623  4 000030   000002 450000 2                  STZ     BLOCK+2

      150     9624    1      BLOCK.BCW.BSN = 0 ;

   9624  4 000031   000000 220003                    LDX0    0,DU
         4 000032   000003 740000 2                  STX0    BLOCK+3

      151     9625    1      BLOCK.BCW.SIZE = 0 ;

   9625  4 000033   000003 440000 2                  SXL0    BLOCK+3

      152     9626    1      FILE_FILE = 1 ;

PL6.E3A0      #001=TOU$DEBLOCKER File=TOU$DEBLOCKER.:E05TSI                      WED 07/30/97 06:40 Page:33
   9626  4 000034   000001 235007                    LDA     1,DL
         4 000035   000505 755000 2                  STA     FILE_FILE

      153     9627    1      FILE_BSN = 1 ;

   9627  4 000036   000503 755000 2                  STA     FILE_BSN

      154     9628    1      FILE_EOF = 0 ;

   9628  4 000037   000504 450000 2                  STZ     FILE_EOF

      155     9629    1      FILE_SIZE = 0 ;

   9629  4 000040   000506 450000 2                  STZ     FILE_SIZE

      156     9630    1      RETRY_COUNT = 0 ;

   9630  4 000041   200003 450100                    STZ     RETRY_COUNT,,AUTO

      157     9631    1      REVISION_B.VERSION = ' ' ;

   9631  4 000042   040000 100400                    MLR     fill='040'O
         4 000043   000035 000001 xsym               ADSC9   B_VECTNIL+29             cn=0,n=1
         4 000044   000000 000006 xsym               ADSC9   REVISION_B               cn=0,n=6

      158     9632    1      REVISION_B.MASK = 'CP-6' ;

   9632  4 000045   040000 100400                    MLR     fill='040'O
         4 000046   000001 000004 3                  ADSC9   EOF_RCW+1                cn=0,n=4
         4 000047   000001 400004 xsym               ADSC9   REVISION_B+1             cn=2,n=4

      159     9633    1      GET_NEW_BLOCK = %TRUE ;

   9633  4 000050   400000 236003                    LDQ     -131072,DU
         4 000051   000510 756000 2                  STQ     GET_NEW_BLOCK

      160     9634    1      DECK_SAVED = %FALSE ;
PL6.E3A0      #001=TOU$DEBLOCKER File=TOU$DEBLOCKER.:E05TSI                      WED 07/30/97 06:40 Page:34

   9634  4 000052   000000 450000 xsym               STZ     DECK_SAVED

      161     9635    1      RETURN ;

   9635  4 000053   000000 702200 xent               TSX2  ! X66_ARET

      162     9636
      163     9637        %EJECT ;
PL6.E3A0      #001=TOU$DEBLOCKER File=TOU$DEBLOCKER.:E05TSI                      WED 07/30/97 06:40 Page:35
      164     9638        /*D*  NAME:        TOU$CLEAR_BLOCK
      165     9639              ENTRY:
      166     9640              AUTHOR:      Scott Sheppard
      167     9641              INTERFACE:   None called.
      168     9642              DESCRIPTION: This entry point initializes variables used to
      169     9643                           determine if a new IFAD block should be read.
      170     9644        */
      171     9645
      172     9646    1   TOU$CLEAR_BLOCK: ENTRY ALTRET ;

   9646  4 000054   000000 700200 xent  TOU$CLEAR_B* TSX0  ! X66_AUTO_0
         4 000055   000020 000000                    ZERO    16,0

      173     9647
      174     9648    1      GET_NEW_BLOCK = %TRUE ;

   9648  4 000056   400000 236003                    LDQ     -131072,DU
         4 000057   000510 756000 2                  STQ     GET_NEW_BLOCK

      175     9649    1      RETURN ;

   9649  4 000060   000000 702200 xent               TSX2  ! X66_ARET

      176     9650
      177     9651        %EJECT ;
PL6.E3A0      #001=TOU$DEBLOCKER File=TOU$DEBLOCKER.:E05TSI                      WED 07/30/97 06:40 Page:36
      178     9652        /*D*  NAME:        TOU$READ_MCA_DATA
      179     9653              ENTRY:
      180     9654              AUTHOR:      Scott S. Sheppard
      181     9655              INTERFACE:   DB_READ_MCA_DATA
      182     9656              DESCRIPTION: This entry point calls procedure DB_READ_MCA_DATA to
      183     9657                           read data from the MCA diskettes.
      184     9658        */
      185     9659
      186     9660    1   TOU$READ_MCA_DATA: ENTRY ALTRET ;

   9660  4 000061   000000 700200 xent  TOU$READ_MC* TSX0  ! X66_AUTO_0
         4 000062   000020 000000                    ZERO    16,0

      187     9661
      188     9662    1      CALL DB_READ_MCA_DATA ALTRET (READ_MCA_ERROR) ;

   9662  4 000063   000637 701000 4                  TSX1    DB_READ_MCA_DATA
         4 000064   000066 702000 4                  TSX2    READ_MCA_ERROR

      189     9663    1      RETURN ;

   9663  4 000065   000000 702200 xent               TSX2  ! X66_ARET

      190     9664
      191     9665    1   READ_MCA_ERROR:
      192     9666    1      ALTRETURN ;

   9666  4 000066   000000 702200 xent  READ_MCA_ER* TSX2  ! X66_AALT

      193     9667
      194     9668        %EJECT ;
PL6.E3A0      #001=TOU$DEBLOCKER File=TOU$DEBLOCKER.:E05TSI                      WED 07/30/97 06:40 Page:37
      195     9669    1   DB_FILL_BLOCK: PROC ALTRET ;

   9669  4 000067   200004 741300       DB_FILL_BLO* STX1  ! RETRY_COUNT+1,,AUTO

      196     9670
      197     9671           %FPT_READ (FPTN = READ_IFAD,
      198     9672                      BIN  = YES,
      199     9673                      BUF  = BLOCK_.BUFFER,
      200     9674                      DCB  = M$IFAD,
      201     9675                      WAIT = YES) ;
      202     9714
      203     9715        /* Code */
      204     9716
      205     9717    2      RETRY_COUNT = 0 ;

   9717  4 000070   200003 450100                    STZ     RETRY_COUNT,,AUTO

      206     9718
      207     9719    2      BLOCK.CONTROL = %NORMAL ;

   9719  4 000071   000000 450000 2                  STZ     BLOCK

      208     9720    2      BLOCK.BSN = FILE_BSN ;

   9720  4 000072   000503 235000 2                  LDA     FILE_BSN
         4 000073   000002 755000 2                  STA     BLOCK+2

      209     9721    2      FILE_BSN = FILE_BSN + 1 ;

   9721  4 000074   000001 035007                    ADLA    1,DL
         4 000075   000503 755000 2                  STA     FILE_BSN

      210     9722
      211     9723    2      CALL M$READ (READ_IFAD) ALTRET (BAD_IFAD_READ) ;

   9723  4 000076   000546 630400 2                  EPPR0   READ_IFAD
         4 000077   440000 713400                    CLIMB   alt,read
PL6.E3A0      #001=TOU$DEBLOCKER File=TOU$DEBLOCKER.:E05TSI                      WED 07/30/97 06:40 Page:38
         4 000100   401400 401760                    pmme    nvectors=4
         4 000101   000105 702000 4                  TSX2    BAD_IFAD_READ

      212     9724    2      GET_NEW_BLOCK = %FALSE ;

   9724  4 000102   000510 450000 2                  STZ     GET_NEW_BLOCK

      213     9725    2      RETURN ;

   9725  4 000103   200004 221300                    LDX1  ! RETRY_COUNT+1,,AUTO
         4 000104   000001 702211                    TSX2  ! 1,X1

      214     9726
      215     9727    2   BAD_IFAD_READ:
      216     9728    2      CALL DB_CHECK_IFAD_STATUS ALTRET (ERROR) ;

   9728  4 000105   000113 701000 4     BAD_IFAD_RE* TSX1    DB_CHECK_IFAD_STATUS
         4 000106   000111 702000 4                  TSX2    ERROR

      217     9729    2      RETURN ;

   9729  4 000107   200004 221300                    LDX1  ! RETRY_COUNT+1,,AUTO
         4 000110   000001 702211                    TSX2  ! 1,X1

      218     9730
      219     9731    2   ERROR:
      220     9732    2      ALTRETURN ;

   9732  4 000111   200004 221300       ERROR        LDX1  ! RETRY_COUNT+1,,AUTO
         4 000112   000000 702211                    TSX2  ! 0,X1

      221     9733
      222     9734    2   END DB_FILL_BLOCK ;
      223     9735        %EJECT ;
PL6.E3A0      #001=TOU$DEBLOCKER File=TOU$DEBLOCKER.:E05TSI                      WED 07/30/97 06:40 Page:39
      224     9736    1   DB_CHECK_IFAD_STATUS: PROC ALTRET ;

   9736  4 000113   200012 741300       DB_CHECK_IF* STX1  ! PTR$+4,,AUTO

      225     9737
      226     9738    2      DCL B$TCB$            PTR SYMREF ;
      227     9739    2      DCL 1 EOF_RCW CONSTANT ALIGNED,
      228     9740    2            2 SIZE        UBIN HALF UNAL INIT (0),
      229     9741    2            2 FILE_MARK   BIT  (6)  UNAL INIT ('17'O),
      230     9742    2            2 *           UBIN (12) UNAL INIT (0) ;
      231     9743    2      DCL EOF_RCW_ REDEF EOF_RCW UBIN WORD ALIGNED ;
      232     9744           %B$ALT ;
      233     9752           %B$TCB ;
      234     9755
      235     9756        /* Code */
      236     9757
      237     9758    2      IF B$TCB$ -> B$TCB.ALT$ -> B$ALT.ERR.ERR# = %E$EOF

   9758  4 000114   000000 470400 xsym               LDP0    B$TCB$
         4 000115   000000 471500                    LDP1    0,,PR0
         4 000116   100102 236100                    LDQ     66,,PR1
         4 000117   377770 376007                    ANQ     131064,DL
         4 000120   000060 116007                    CMPQ    48,DL
         4 000121   000135 601000 4                  TNZ     s:9768

      238     9759    3      THEN DO ;

      239     9760    3              BLOCK.CONTROL = %EOF ;

   9760  4 000122   000001 235007                    LDA     1,DL
         4 000123   000000 755000 2                  STA     BLOCK

      240     9761    3              BLOCK.OFFSET = 0 ;

   9761  4 000124   000001 450000 2                  STZ     BLOCK+1

      241     9762    3              BLOCK.BCW.BSN = BLOCK.BSN ;
PL6.E3A0      #001=TOU$DEBLOCKER File=TOU$DEBLOCKER.:E05TSI                      WED 07/30/97 06:40 Page:40

   9762  4 000125   000002 720000 2                  LXL0    BLOCK+2
         4 000126   000003 740000 2                  STX0    BLOCK+3

      242     9763    3              BLOCK.BCW.SIZE = 1 ;

   9763  4 000127   000001 222003                    LDX2    1,DU
         4 000130   000003 442000 2                  SXL2    BLOCK+3

      243     9764    3              BLOCK.DATA(BLOCK.OFFSET) = EOF_RCW_ ;

   9764  4 000131   000001 723000 2                  LXL3    BLOCK+1
         4 000132   000000 236000 3                  LDQ     EOF_RCW
         4 000133   000004 756013 2                  STQ     BLOCK+4,X3

      244     9765    3              RETURN ;

   9765  4 000134   000001 702211                    TSX2  ! 1,X1

      245     9766    3           END /* THEN */ ;
      246     9767    3      ELSE DO ;

      247     9768    3              BLOCK.CONTROL = %ERROR ;

   9768  4 000135   000001 335007                    LCA     1,DL
         4 000136   000000 755000 2                  STA     BLOCK

      248     9769    3              CALL DB_ERR_MSG (%E$DB_IFAD_READ) ;

   9769  4 000137   000001 236000 5                  LDQ     1
         4 000140   200015 756100                    STQ     PTR$+7,,AUTO
         4 000141   000735 701000 4                  TSX1    DB_ERR_MSG
         4 000142   000000 011000                    NOP     0

      249     9770    3              CALL TOU$DU_SYSTEM_ERRMSG ;

   9770  4 000143   000002 631400 xsym               EPPR1   B_VECTNIL+2
PL6.E3A0      #001=TOU$DEBLOCKER File=TOU$DEBLOCKER.:E05TSI                      WED 07/30/97 06:40 Page:41
         4 000144   000000 701000 xent               TSX1    TOU$DU_SYSTEM_ERRMSG
         4 000145   000000 011000                    NOP     0

      250     9771    3              ALTRETURN ;

   9771  4 000146   200012 221300                    LDX1  ! PTR$+4,,AUTO
         4 000147   000000 702211                    TSX2  ! 0,X1

      251     9772    3           END /* ELSE */ ;
      252     9773
      253     9774    2   END DB_CHECK_IFAD_STATUS ;
      254     9775        %EJECT ;
PL6.E3A0      #001=TOU$DEBLOCKER File=TOU$DEBLOCKER.:E05TSI                      WED 07/30/97 06:40 Page:42
      255     9776    1   DB_SET_IFAD_BLOCK: PROC ALTRET ;

   9776  4 000150   200004 741300       DB_SET_IFAD* STX1  ! RETRY_COUNT+1,,AUTO

      256     9777
      257     9778        /* Code */
      258     9779
      259     9780    3      DO WHILE (BLOCK.CONTROL = %NORMAL) ;

   9780  4 000151   000000 235000 2                  LDA     BLOCK
         4 000152   000165 601000 4                  TNZ     s:9786

      260     9781    3         CALL DB_CHECK_IFAD_CONTROL ALTRET (ERROR) ;

   9781  4 000153   000177 701000 4                  TSX1    DB_CHECK_IFAD_CONTROL
         4 000154   000175 702000 4                  TSX2    ERROR

      261     9782    3         IF (BLOCK.BCW.BSN ~= BLOCK.BSN)

   9782  4 000155   000003 236000 2                  LDQ     BLOCK+3
         4 000156   000022 772000                    QRL     18
         4 000157   000002 116000 2                  CMPQ    BLOCK+2
         4 000160   000163 600000 4                  TZE     s:9785

      262     9783    3         THEN CALL DB_RECOVER_BSN_ERROR ALTRET (ERROR) ;

   9783  4 000161   000257 701000 4                  TSX1    DB_RECOVER_BSN_ERROR
         4 000162   000175 702000 4                  TSX2    ERROR

      263     9784    3         ELSE /* No Error */ ;
      264     9785    3      END ;

   9785  4 000163   000000 235000 2                  LDA     BLOCK
         4 000164   000153 600000 4                  TZE     s:9781

      265     9786    2      BLOCK.OFFSET = 0 ;

PL6.E3A0      #001=TOU$DEBLOCKER File=TOU$DEBLOCKER.:E05TSI                      WED 07/30/97 06:40 Page:43
   9786  4 000165   000001 450000 2                  STZ     BLOCK+1

      266     9787    2      IF BLOCK.CONTROL = %EOF

   9787  4 000166   000001 115007                    CMPA    1,DL
         4 000167   000173 600000 4                  TZE     s:9790

      267     9788    2      THEN /* No file size to assign. */ ;
      268     9789    2      ELSE FILE_SIZE = FILE_SIZE + BLOCK.CONTROL ;

   9789  4 000170   000506 236000 2                  LDQ     FILE_SIZE
         4 000171   000000 036000 2                  ADLQ    BLOCK
         4 000172   000506 756000 2                  STQ     FILE_SIZE

      269     9790    2      RETURN ;

   9790  4 000173   200004 221300                    LDX1  ! RETRY_COUNT+1,,AUTO
         4 000174   000001 702211                    TSX2  ! 1,X1

      270     9791
      271     9792    2   ERROR:
      272     9793    2      ALTRETURN ;

   9793  4 000175   200004 221300       ERROR        LDX1  ! RETRY_COUNT+1,,AUTO
         4 000176   000000 702211                    TSX2  ! 0,X1

      273     9794
      274     9795        /* END DB_SET_IFAD_BLOCK */
      275     9796        %EJECT ;
PL6.E3A0      #001=TOU$DEBLOCKER File=TOU$DEBLOCKER.:E05TSI                      WED 07/30/97 06:40 Page:44
      276     9797    2   DB_CHECK_IFAD_CONTROL: PROC ALTRET ;

   9797  4 000177   200006 741300       DB_CHECK_IF* STX1  ! LGTH+1,,AUTO

      277     9798
      278     9799           %F$DCB ;
      279     9856
      280     9857        /* Code */
      281     9858
      282     9859    3      IFAD_ARS# = DCBADDR (DCBNUM (M$IFAD)) -> F$DCB.ARS# ;

   9859  4 000200   000000 236007 xsym               LDQ     M$IFAD,DL
         4 000201   000002 470400 5                  LDP0    2
         4 000202   000000 471500                    LDP1    0,,PR0
         4 000203   100000 473506                    LDP3    0,QL,PR1
         4 000204   300000 235100                    LDA     0,,PR3
         4 000205   000507 755000 2                  STA     IFAD_ARS#

      283     9860
      284     9861    3      BLOCK.CONTROL = IFAD_ARS# / 4 ;

   9861  4 000206   000507 236000 2                  LDQ     IFAD_ARS#
         4 000207   000002 772000                    QRL     2
         4 000210   000000 756000 2                  STQ     BLOCK

      285     9862
      286     9863    3      IF MOD (IFAD_ARS#, 4) > 1

   9863  4 000211   000507 236000 2                  LDQ     IFAD_ARS#
         4 000212   000003 376007                    ANQ     3,DL
         4 000213   000002 116007                    CMPQ    2,DL
         4 000214   000222 602000 4                  TNC     s:9865

      287     9864    3      THEN CALL DB_ERR_MSG (%E$DB_IFAD_RCD_SIZE) ;

   9864  4 000215   000004 236000 5                  LDQ     4
         4 000216   200015 756100                    STQ     PTR$+7,,AUTO
PL6.E3A0      #001=TOU$DEBLOCKER File=TOU$DEBLOCKER.:E05TSI                      WED 07/30/97 06:40 Page:45
         4 000217   000735 701000 4                  TSX1    DB_ERR_MSG
         4 000220   000000 011000                    NOP     0
         4 000221   000255 710000 4                  TRA     s:9870

      288     9865    3      ELSE IF MOD (IFAD_ARS#, 4) = 1 AND MOD (BLOCK.CONTROL, 2) ~= 1

   9865  4 000222   000507 236000 2                  LDQ     IFAD_ARS#
         4 000223   000003 376007                    ANQ     3,DL
         4 000224   000001 116007                    CMPQ    1,DL
         4 000225   000240 601000 4                  TNZ     s:9867
         4 000226   000000 236000 2                  LDQ     BLOCK
         4 000227   000002 506007                    DIV     2,DL
         4 000230   000044 733000                    LRS     36
         4 000231   000001 116007                    CMPQ    1,DL
         4 000232   000240 600000 4                  TZE     s:9867

      289     9866    3         THEN CALL DB_ERR_MSG (%E$DB_IFAD_RCD_SIZE) ;

   9866  4 000233   000004 236000 5                  LDQ     4
         4 000234   200015 756100                    STQ     PTR$+7,,AUTO
         4 000235   000735 701000 4                  TSX1    DB_ERR_MSG
         4 000236   000000 011000                    NOP     0
         4 000237   000255 710000 4                  TRA     s:9870

      290     9867    3         ELSE IF BLOCK.BCW.SIZE ~= BLOCK.CONTROL - 1

   9867  4 000240   000000 235000 2                  LDA     BLOCK
         4 000241   000001 135007                    SBLA    1,DL
         4 000242   200016 755100                    STA     @MSG_CODE+1,,AUTO
         4 000243   000003 236000 2                  LDQ     BLOCK+3
         4 000244   777777 376007                    ANQ     -1,DL
         4 000245   200016 116100                    CMPQ    @MSG_CODE+1,,AUTO
         4 000246   000254 600000 4                  TZE     s:9869

      291     9868    3            THEN CALL DB_ERR_MSG (%E$DB_IFAD_BLOCK_SIZE) ;

   9868  4 000247   000006 236000 5                  LDQ     6
PL6.E3A0      #001=TOU$DEBLOCKER File=TOU$DEBLOCKER.:E05TSI                      WED 07/30/97 06:40 Page:46
         4 000250   200015 756100                    STQ     PTR$+7,,AUTO
         4 000251   000735 701000 4                  TSX1    DB_ERR_MSG
         4 000252   000000 011000                    NOP     0
         4 000253   000255 710000 4                  TRA     s:9870

      292     9869    3            ELSE RETURN ;

   9869  4 000254   000001 702211                    TSX2  ! 1,X1

      293     9870    3      ALTRETURN ;

   9870  4 000255   200006 221300                    LDX1  ! LGTH+1,,AUTO
         4 000256   000000 702211                    TSX2  ! 0,X1

      294     9871
      295     9872    3   END DB_CHECK_IFAD_CONTROL ;
      296     9873        %EJECT ;
PL6.E3A0      #001=TOU$DEBLOCKER File=TOU$DEBLOCKER.:E05TSI                      WED 07/30/97 06:40 Page:47
      297     9874    2   DB_RECOVER_BSN_ERROR: PROC ALTRET ;

   9874  4 000257   200006 741300       DB_RECOVER_* STX1  ! LGTH+1,,AUTO

      298     9875
      299     9876        /* Code */
      300     9877
      301     9878    3      BLOCK.CONTROL = %ERROR ;

   9878  4 000260   000001 335007                    LCA     1,DL
         4 000261   000000 755000 2                  STA     BLOCK

      302     9879    3      RETRY_COUNT = RETRY_COUNT + 1 ;

   9879  4 000262   200003 236100                    LDQ     RETRY_COUNT,,AUTO
         4 000263   000001 036007                    ADLQ    1,DL
         4 000264   200003 756100                    STQ     RETRY_COUNT,,AUTO

      303     9880    3      IF RETRY_COUNT > 64

   9880  4 000265   000101 116007                    CMPQ    65,DL
         4 000266   000275 602000 4                  TNC     s:9887

      304     9881    4      THEN DO ;

      305     9882    4              CALL DB_ERR_MSG (%E$DB_BSN_ERROR) ;

   9882  4 000267   000010 236000 5                  LDQ     8
         4 000270   200015 756100                    STQ     PTR$+7,,AUTO
         4 000271   000735 701000 4                  TSX1    DB_ERR_MSG
         4 000272   000000 011000                    NOP     0

      306     9883    4   ERROR:
      307     9884    4              ALTRETURN ;

   9884  4 000273   200006 221300       ERROR        LDX1  ! LGTH+1,,AUTO
         4 000274   000000 702211                    TSX2  ! 0,X1
PL6.E3A0      #001=TOU$DEBLOCKER File=TOU$DEBLOCKER.:E05TSI                      WED 07/30/97 06:40 Page:48

      308     9885    4           END /* THEN */ ;
      309     9886    4      ELSE DO ;

      310     9887    4              CALL DB_REPOSITION_IFAD ALTRET (ERROR) ;

   9887  4 000275   000303 701000 4                  TSX1    DB_REPOSITION_IFAD
         4 000276   000273 702000 4                  TSX2    ERROR

      311     9888    4              CALL DB_REFILL_BLOCK ALTRET (ERROR) ;

   9888  4 000277   000362 701000 4                  TSX1    DB_REFILL_BLOCK
         4 000300   000273 702000 4                  TSX2    ERROR

      312     9889    4              RETURN ;

   9889  4 000301   200006 221300                    LDX1  ! LGTH+1,,AUTO
         4 000302   000001 702211                    TSX2  ! 1,X1

      313     9890    4           END /* ELSE */ ;
      314     9891
      315     9892        /* END DB_RECOVER_BSN_ERROR */
      316     9893        %EJECT ;
PL6.E3A0      #001=TOU$DEBLOCKER File=TOU$DEBLOCKER.:E05TSI                      WED 07/30/97 06:40 Page:49
      317     9894    3   DB_REPOSITION_IFAD: PROC ALTRET ;

   9894  4 000303   200010 741300       DB_REPOSITI* STX1  ! PTR$+2,,AUTO

      318     9895
      319     9896    4      DCL B$TCB$   PTR SYMREF ;
      320     9897           %B$TCB ;
      321     9900           %B$ALT ;
      322     9908           %FPT_PRECORD (FPTN = POSITION_IFAD,
      323     9909                         DCB  = M$IFAD) ;
      324     9930
      325     9931        /* Code */
      326     9932
      327     9933    4      POSITION_IFAD.V.N# = BLOCK.BSN - 1 - BLOCK.BCW.BSN ;

   9933  4 000304   000003 235000 2                  LDA     BLOCK+3
         4 000305   000022 771000                    ARL     18
         4 000306   200016 755100                    STA     @MSG_CODE+1,,AUTO
         4 000307   000002 236000 2                  LDQ     BLOCK+2
         4 000310   200016 136100                    SBLQ    @MSG_CODE+1,,AUTO
         4 000311   000001 136007                    SBLQ    1,DL
         4 000312   000573 756000 2                  STQ     POSITION_IFAD+7

      328     9934    4      IF POSITION_IFAD.V.N# = 0

   9934  4 000313   000320 600000 4                  TZE     s:9937

      329     9935    4      THEN /* Do Nothing */ ;
      330     9936    4      ELSE CALL M$PRECORD (POSITION_IFAD) ALTRET (BAD_IFAD_POSITION) ;

   9936  4 000314   000564 630400 2                  EPPR0   POSITION_IFAD
         4 000315   440003 713400                    CLIMB   alt,+16387
         4 000316   401000 401760                    pmme    nvectors=3
         4 000317   000322 702000 4                  TSX2    BAD_IFAD_POSITION

      331     9937    4      RETURN ;

PL6.E3A0      #001=TOU$DEBLOCKER File=TOU$DEBLOCKER.:E05TSI                      WED 07/30/97 06:40 Page:50
   9937  4 000320   200010 221300                    LDX1  ! PTR$+2,,AUTO
         4 000321   000001 702211                    TSX2  ! 1,X1

      332     9938
      333     9939    4   BAD_IFAD_POSITION:
      334     9940    5      DO CASE (B$TCB$ -> B$TCB.ALT$ -> B$ALT.ERR.ERR#) ;

   9940  4 000322   000000 470400 xsym  BAD_IFAD_PO* LDP0    B$TCB$
         4 000323   000000 471500                    LDP1    0,,PR0
         4 000324   100102 236100                    LDQ     66,,PR1
         4 000325   000003 772000                    QRL     3
         4 000326   037777 376007                    ANQ     16383,DL
         4 000327   000007 116007                    CMPQ    7,DL
         4 000330   000332 602006 4                  TNC     BAD_IFAD_POSITION+8,QL
         4 000331   000351 710000 4                  TRA     s:9947
         4 000332   000351 710000 4                  TRA     s:9947
         4 000333   000351 710000 4                  TRA     s:9947
         4 000334   000351 710000 4                  TRA     s:9947
         4 000335   000347 710000 4                  TRA     s:9945
         4 000336   000351 710000 4                  TRA     s:9947
         4 000337   000351 710000 4                  TRA     s:9947
         4 000340   000341 710000 4                  TRA     s:9942

      335     9941    5         CASE (%E$EOF) ;

      336     9942    5            CALL DB_ERR_MSG (%E$DB_BSN_EOF) ;

   9942  4 000341   000012 236000 5                  LDQ     10
         4 000342   200015 756100                    STQ     PTR$+7,,AUTO
         4 000343   000735 701000 4                  TSX1    DB_ERR_MSG
         4 000344   000000 011000                    NOP     0

      337     9943    5            ALTRETURN ;

   9943  4 000345   200010 221300                    LDX1  ! PTR$+2,,AUTO
         4 000346   000000 702211                    TSX2  ! 0,X1

PL6.E3A0      #001=TOU$DEBLOCKER File=TOU$DEBLOCKER.:E05TSI                      WED 07/30/97 06:40 Page:51
      338     9944    5         CASE (%E$BOT) ;

      339     9945    5            RETURN ;

   9945  4 000347   200010 221300                    LDX1  ! PTR$+2,,AUTO
         4 000350   000001 702211                    TSX2  ! 1,X1

      340     9946    5         CASE (ELSE) ;

      341     9947    5            CALL DB_ERR_MSG (%E$DB_IFAD_POSITION) ;

   9947  4 000351   000014 236000 5                  LDQ     12
         4 000352   200015 756100                    STQ     PTR$+7,,AUTO
         4 000353   000735 701000 4                  TSX1    DB_ERR_MSG
         4 000354   000000 011000                    NOP     0

      342     9948    5            CALL TOU$DU_SYSTEM_ERRMSG ;

   9948  4 000355   000002 631400 xsym               EPPR1   B_VECTNIL+2
         4 000356   000000 701000 xent               TSX1    TOU$DU_SYSTEM_ERRMSG
         4 000357   000000 011000                    NOP     0

      343     9949    5            ALTRETURN ;

   9949  4 000360   200010 221300                    LDX1  ! PTR$+2,,AUTO
         4 000361   000000 702211                    TSX2  ! 0,X1

      344     9950    5      END /* CASE */ ;

      345     9951
      346     9952    4   END DB_REPOSITION_IFAD ;
      347     9953        %EJECT ;
PL6.E3A0      #001=TOU$DEBLOCKER File=TOU$DEBLOCKER.:E05TSI                      WED 07/30/97 06:40 Page:52
      348     9954    3   DB_REFILL_BLOCK: PROC ALTRET ;

   9954  4 000362   200010 741300       DB_REFILL_B* STX1  ! PTR$+2,,AUTO

      349     9955
      350     9956           %FPT_READ (FPTN = READ_IFAD,
      351     9957                      BIN  = YES,
      352     9958                      BUF  = BLOCK_.BUFFER,
      353     9959                      DCB  = M$IFAD,
      354     9960                      WAIT = YES) ;
      355     9999
      356    10000        /* Code */
      357    10001
      358    10002    4      CALL M$READ (READ_IFAD) ALTRET (BAD_IFAD_READ) ;

  10002  4 000363   000576 630400 2                  EPPR0   READ_IFAD
         4 000364   440000 713400                    CLIMB   alt,read
         4 000365   401400 401760                    pmme    nvectors=4
         4 000366   000375 702000 4                  TSX2    BAD_IFAD_READ

      359    10003    4      IF BLOCK.CONTROL = %ERROR

  10003  4 000367   000000 235000 2                  LDA     BLOCK
         4 000370   000027 115000 xsym               CMPA    B_VECTNIL+23
         4 000371   000373 601000 4                  TNZ     s:10006

      360    10004    4      THEN BLOCK.CONTROL = %NORMAL ;

  10004  4 000372   000000 450000 2                  STZ     BLOCK

      361    10005    4      ELSE /* BLOCK.CONTROL was NORMAL or EOF */ ;
      362    10006    4      RETURN ;

  10006  4 000373   200010 221300                    LDX1  ! PTR$+2,,AUTO
         4 000374   000001 702211                    TSX2  ! 1,X1

      363    10007
PL6.E3A0      #001=TOU$DEBLOCKER File=TOU$DEBLOCKER.:E05TSI                      WED 07/30/97 06:40 Page:53
      364    10008    4   BAD_IFAD_READ:
      365    10009    4      CALL DB_CHECK_IFAD_STATUS ALTRET (ERROR) ;

  10009  4 000375   000113 701000 4     BAD_IFAD_RE* TSX1    DB_CHECK_IFAD_STATUS
         4 000376   000401 702000 4                  TSX2    ERROR

      366    10010    4      RETURN ;

  10010  4 000377   200010 221300                    LDX1  ! PTR$+2,,AUTO
         4 000400   000001 702211                    TSX2  ! 1,X1

      367    10011
      368    10012    4   ERROR:
      369    10013    4      ALTRETURN ;

  10013  4 000401   200010 221300       ERROR        LDX1  ! PTR$+2,,AUTO
         4 000402   000000 702211                    TSX2  ! 0,X1

      370    10014
      371    10015    4   END DB_REFILL_BLOCK ;
      372    10016    3   END DB_RECOVER_BSN_ERROR ;
      373    10017    2   END DB_SET_IFAD_BLOCK ;
      374    10018        %EJECT ;
PL6.E3A0      #001=TOU$DEBLOCKER File=TOU$DEBLOCKER.:E05TSI                      WED 07/30/97 06:40 Page:54
      375    10019    1   DB_RETURN_EOF: PROC ;

  10019  4 000403   200004 741300       DB_RETURN_E* STX1  ! RETRY_COUNT+1,,AUTO

      376    10020
      377    10021        /* Code */
      378    10022
      379    10023    2      FILE_FILE = FILE_FILE + 1 ;

  10023  4 000404   000505 235000 2                  LDA     FILE_FILE
         4 000405   000001 035007                    ADLA    1,DL
         4 000406   000505 755000 2                  STA     FILE_FILE

      380    10024    2      FILE_BSN = 1 ;

  10024  4 000407   000001 236007                    LDQ     1,DL
         4 000410   000503 756000 2                  STQ     FILE_BSN

      381    10025
      382    10026    2      RECORD.SIZE = 0 ;

  10026  4 000411   000000 220003                    LDX0    0,DU
         4 000412   000512 740000 2                  STX0    RECORD

      383    10027    2      BLOCK.CONTROL = %NORMAL ;

  10027  4 000413   000000 450000 2                  STZ     BLOCK

      384    10028
      385    10029    2      IF FILE_SIZE = 0

  10029  4 000414   000506 235000 2                  LDA     FILE_SIZE
         4 000415   000421 601000 4                  TNZ     s:10031

      386    10030    2      THEN FILE_EOF = 2 ;

  10030  4 000416   000002 235007                    LDA     2,DL
PL6.E3A0      #001=TOU$DEBLOCKER File=TOU$DEBLOCKER.:E05TSI                      WED 07/30/97 06:40 Page:55
         4 000417   000504 755000 2                  STA     FILE_EOF
         4 000420   000422 710000 4                  TRA     s:10033

      387    10031    2      ELSE FILE_EOF = 1 ;

  10031  4 000421   000504 756000 2                  STQ     FILE_EOF

      388    10032
      389    10033    2      FILE_SIZE = 0 ;

  10033  4 000422   000506 450000 2                  STZ     FILE_SIZE

      390    10034    2      BLOCK_SEQ = ' ' ;

  10034  4 000423   000035 235000 xsym               LDA     B_VECTNIL+29
         4 000424   000035 236000 xsym               LDQ     B_VECTNIL+29
         4 000425   000000 755000 xsym               STA     BLOCK_SEQ
         4 000426   000001 756000 xsym               STQ     BLOCK_SEQ+1

      391    10035    2      RETURN ;

  10035  4 000427   000001 702211                    TSX2  ! 1,X1

      392    10036
      393    10037    2   END DB_RETURN_EOF ;
      394    10038        %EJECT ;
PL6.E3A0      #001=TOU$DEBLOCKER File=TOU$DEBLOCKER.:E05TSI                      WED 07/30/97 06:40 Page:56
      395    10039    1   DB_GET_RCW: PROC ALTRET ;

  10039  4 000430   200004 741300       DB_GET_RCW   STX1  ! RETRY_COUNT+1,,AUTO

      396    10040
      397    10041        /* Code */
      398    10042
      399    10043    2      RCW_ = BLOCK.DATA(BLOCK.OFFSET) ;

  10043  4 000431   000001 720000 2                  LXL0    BLOCK+1
         4 000432   000004 235010 2                  LDA     BLOCK+4,X0
         4 000433   000511 755000 2                  STA     RCW

      400    10044    3      DO CASE (RCW.SIZE) ;

  10044  4 000434   000511 222000 2                  LDX2    RCW
         4 000435   000034 102003                    CMPX2   28,DU
         4 000436   000440 602012 4                  TNC     s:10044+4,X2
         4 000437   000571 710000 4                  TRA     s:10066
         4 000440   000474 710000 4                  TRA     s:10046
         4 000441   000571 710000 4                  TRA     s:10066
         4 000442   000571 710000 4                  TRA     s:10066
         4 000443   000571 710000 4                  TRA     s:10066
         4 000444   000571 710000 4                  TRA     s:10066
         4 000445   000571 710000 4                  TRA     s:10066
         4 000446   000571 710000 4                  TRA     s:10066
         4 000447   000571 710000 4                  TRA     s:10066
         4 000450   000571 710000 4                  TRA     s:10066
         4 000451   000571 710000 4                  TRA     s:10066
         4 000452   000571 710000 4                  TRA     s:10066
         4 000453   000571 710000 4                  TRA     s:10066
         4 000454   000571 710000 4                  TRA     s:10066
         4 000455   000571 710000 4                  TRA     s:10066
         4 000456   000510 710000 4                  TRA     s:10053
         4 000457   000571 710000 4                  TRA     s:10066
         4 000460   000571 710000 4                  TRA     s:10066
         4 000461   000571 710000 4                  TRA     s:10066
PL6.E3A0      #001=TOU$DEBLOCKER File=TOU$DEBLOCKER.:E05TSI                      WED 07/30/97 06:40 Page:57
         4 000462   000571 710000 4                  TRA     s:10066
         4 000463   000571 710000 4                  TRA     s:10066
         4 000464   000571 710000 4                  TRA     s:10066
         4 000465   000571 710000 4                  TRA     s:10066
         4 000466   000571 710000 4                  TRA     s:10066
         4 000467   000571 710000 4                  TRA     s:10066
         4 000470   000571 710000 4                  TRA     s:10066
         4 000471   000571 710000 4                  TRA     s:10066
         4 000472   000571 710000 4                  TRA     s:10066
         4 000473   000510 710000 4                  TRA     s:10053

      401    10045    3         CASE (0) ;

      402    10046    3            IF RCW.FILE_MARK = '17'O

  10046  4 000474   000511 236000 2                  LDQ     RCW
         4 000475   770000 376007                    ANQ     -4096,DL
         4 000476   170000 116007                    CMPQ    61440,DL
         4 000477   000502 601000 4                  TNZ     s:10049

      403    10047    3            THEN BLOCK.CONTROL = %NORMAL ;

  10047  4 000500   000000 450000 2                  STZ     BLOCK
         4 000501   000577 710000 4                  TRA     s:10069

      404    10048    4            ELSE DO ;

      405    10049    4                    CALL DB_ERR_MSG (%E$DB_OBJ_FILE_MARK) ;

  10049  4 000502   000016 236000 5                  LDQ     14
         4 000503   200015 756100                    STQ     PTR$+7,,AUTO
         4 000504   000735 701000 4                  TSX1    DB_ERR_MSG
         4 000505   000000 011000                    NOP     0

      406    10050    4                    ALTRETURN ;

  10050  4 000506   200004 221300                    LDX1  ! RETRY_COUNT+1,,AUTO
PL6.E3A0      #001=TOU$DEBLOCKER File=TOU$DEBLOCKER.:E05TSI                      WED 07/30/97 06:40 Page:58
         4 000507   000000 702211                    TSX2  ! 0,X1

      407    10051    4                 END /* ELSE */ ;
      408    10052    3         CASE (14, 27) ;

      409    10053    3            IF RCW.SIZE = 14 & RCW.MEDIA_CODE = %BCD OR

  10053  4 000510   400000 223003                    LDX3    -131072,DU
         4 000511   000016 102003                    CMPX2   14,DU
         4 000512   000514 600000 4                  TZE     s:10053+4
         4 000513   000000 223003                    LDX3    0,DU
         4 000514   400000 224003                    LDX4    -131072,DU
         4 000515   000511 236000 2                  LDQ     RCW
         4 000516   007700 376007                    ANQ     4032,DL
         4 000517   000200 116007                    CMPQ    128,DL
         4 000520   000522 600000 4                  TZE     s:10053+10
         4 000521   000000 224003                    LDX4    0,DU
         4 000522   000000 636014                    EAQ     0,X4
         4 000523   200016 756100                    STQ     @MSG_CODE+1,,AUTO
         4 000524   000000 636013                    EAQ     0,X3
         4 000525   200016 376100                    ANQ     @MSG_CODE+1,,AUTO
         4 000526   000546 601000 4                  TNZ     s:10055
         4 000527   400000 223003                    LDX3    -131072,DU
         4 000530   000033 102003                    CMPX2   27,DU
         4 000531   000533 600000 4                  TZE     s:10053+19
         4 000532   000000 223003                    LDX3    0,DU
         4 000533   400000 224003                    LDX4    -131072,DU
         4 000534   000511 236000 2                  LDQ     RCW
         4 000535   007700 376007                    ANQ     4032,DL
         4 000536   000100 116007                    CMPQ    64,DL
         4 000537   000541 600000 4                  TZE     s:10053+25
         4 000540   000000 224003                    LDX4    0,DU
         4 000541   000000 636014                    EAQ     0,X4
         4 000542   200017 756100                    STQ     @MSG_CODE+2,,AUTO
         4 000543   000000 636013                    EAQ     0,X3
         4 000544   200017 376100                    ANQ     @MSG_CODE+2,,AUTO
         4 000545   000563 600000 4                  TZE     s:10062
PL6.E3A0      #001=TOU$DEBLOCKER File=TOU$DEBLOCKER.:E05TSI                      WED 07/30/97 06:40 Page:59

      410    10054    3                    RCW.SIZE = 27 & RCW.MEDIA_CODE = %BINARY
      411    10055    3            THEN IF BLOCK.OFFSET + RCW.SIZE + 2 > BLOCK.CONTROL

  10055  4 000546   000511 236000 2                  LDQ     RCW
         4 000547   000022 772000                    QRL     18
         4 000550   000001 036000 2                  ADLQ    BLOCK+1
         4 000551   000002 036007                    ADLQ    2,DL
         4 000552   000555 604000 4                  TMI     s:10057
         4 000553   000000 116000 2                  CMPQ    BLOCK
         4 000554   000577 604400 4                  TMOZ    s:10069

      412    10056    4               THEN DO ;

      413    10057    4                       CALL DB_ERR_MSG (%E$DB_IFAD_LBLOCK) ;

  10057  4 000555   000020 236000 5                  LDQ     16
         4 000556   200015 756100                    STQ     PTR$+7,,AUTO
         4 000557   000735 701000 4                  TSX1    DB_ERR_MSG
         4 000560   000000 011000                    NOP     0

      414    10058    4                       ALTRETURN ;

  10058  4 000561   200004 221300                    LDX1  ! RETRY_COUNT+1,,AUTO
         4 000562   000000 702211                    TSX2  ! 0,X1

      415    10059    4                    END /* THEN */ ;
      416    10060    3               ELSE /* Record returned from data block. */ ;
      417    10061    4            ELSE DO ;

      418    10062    4                    CALL DB_ERR_MSG (%E$DB_IFAD_MCODE) ;

  10062  4 000563   000022 236000 5                  LDQ     18
         4 000564   200015 756100                    STQ     PTR$+7,,AUTO
         4 000565   000735 701000 4                  TSX1    DB_ERR_MSG
         4 000566   000000 011000                    NOP     0

PL6.E3A0      #001=TOU$DEBLOCKER File=TOU$DEBLOCKER.:E05TSI                      WED 07/30/97 06:40 Page:60
      419    10063    4                    ALTRETURN ;

  10063  4 000567   200004 221300                    LDX1  ! RETRY_COUNT+1,,AUTO
         4 000570   000000 702211                    TSX2  ! 0,X1

      420    10064    4                 END /* ELSE */ ;
      421    10065    3         CASE (ELSE) ;

      422    10066    3            CALL DB_ERR_MSG (%E$DB_IFAD_SIZE) ;

  10066  4 000571   000024 236000 5                  LDQ     20
         4 000572   200015 756100                    STQ     PTR$+7,,AUTO
         4 000573   000735 701000 4                  TSX1    DB_ERR_MSG
         4 000574   000000 011000                    NOP     0

      423    10067    3            ALTRETURN ;

  10067  4 000575   200004 221300                    LDX1  ! RETRY_COUNT+1,,AUTO
         4 000576   000000 702211                    TSX2  ! 0,X1

      424    10068    3      END /* CASE */ ;

      425    10069    2      RETURN ;

  10069  4 000577   000001 702211                    TSX2  ! 1,X1

      426    10070
      427    10071    2   END DB_GET_RCW ;
      428    10072        %EJECT ;
PL6.E3A0      #001=TOU$DEBLOCKER File=TOU$DEBLOCKER.:E05TSI                      WED 07/30/97 06:40 Page:61
      429    10073    1   DB_RETURN_RECORD: PROC ;

  10073  4 000600   200004 741300       DB_RETURN_R* STX1  ! RETRY_COUNT+1,,AUTO

      430    10074
      431    10075        /* Code */
      432    10076
      433    10077    2      RECORD.SIZE = RCW.SIZE ;

  10077  4 000601   000511 220000 2                  LDX0    RCW
         4 000602   000512 740000 2                  STX0    RECORD

      434    10078    3      DO CUR# = 0 TO RCW.SIZE - 1 ;

  10078  4 000603   000000 450000 xsym               STZ     CUR#
         4 000604   000615 710000 4                  TRA     s:10080+3

      435    10079    3         RECORD.DATA(CUR#) = BLOCK.DATA(CUR# + 1 + BLOCK.OFFSET) ;

  10079  4 000605   000000 236000 xsym               LDQ     CUR#
         4 000606   000001 036000 2                  ADLQ    BLOCK+1
         4 000607   000000 720000 xsym               LXL0    CUR#
         4 000610   000005 235006 2                  LDA     BLOCK+5,QL
         4 000611   000513 755010 2                  STA     RECORD+1,X0

      436    10080    3      END ;

  10080  4 000612   000000 236000 xsym               LDQ     CUR#
         4 000613   000001 036007                    ADLQ    1,DL
         4 000614   000000 756000 xsym               STQ     CUR#
         4 000615   000511 236000 2                  LDQ     RCW
         4 000616   000022 772000                    QRL     18
         4 000617   000000 116000 xsym               CMPQ    CUR#
         4 000620   000622 600000 4                  TZE     s:10081
         4 000621   000605 603000 4                  TRC     s:10079

      437    10081    2      BLOCK.OFFSET = BLOCK.OFFSET + RCW.SIZE + 1 ;
PL6.E3A0      #001=TOU$DEBLOCKER File=TOU$DEBLOCKER.:E05TSI                      WED 07/30/97 06:40 Page:62

  10081  4 000622   000001 036000 2                  ADLQ    BLOCK+1
         4 000623   000001 036007                    ADLQ    1,DL
         4 000624   000001 756000 2                  STQ     BLOCK+1

      438    10082    2      IF BLOCK.OFFSET = BLOCK.CONTROL - 1

  10082  4 000625   000000 236000 2                  LDQ     BLOCK
         4 000626   000001 136007                    SBLQ    1,DL
         4 000627   000635 604000 4                  TMI     s:10088
         4 000630   000001 116000 2                  CMPQ    BLOCK+1
         4 000631   000635 601000 4                  TNZ     s:10088

      439    10083    3      THEN DO ;

      440    10084    3              BLOCK.CONTROL = %NORMAL ;

  10084  4 000632   000000 450000 2                  STZ     BLOCK

      441    10085    3              GET_NEW_BLOCK = %TRUE ;

  10085  4 000633   400000 236003                    LDQ     -131072,DU
         4 000634   000510 756000 2                  STQ     GET_NEW_BLOCK

      442    10086    3           END /* THEN */ ;

      443    10087    2      ELSE /* Block is not yet exhausted. */ ;
      444    10088    2      RETURN ;

  10088  4 000635   200004 221300                    LDX1  ! RETRY_COUNT+1,,AUTO
         4 000636   000001 702211                    TSX2  ! 1,X1

      445    10089
      446    10090    2   END DB_RETURN_RECORD ;
      447    10091        %EJECT ;
PL6.E3A0      #001=TOU$DEBLOCKER File=TOU$DEBLOCKER.:E05TSI                      WED 07/30/97 06:40 Page:63
      448    10092    1   DB_READ_MCA_DATA: PROC ALTRET ;

  10092  4 000637   200004 741300       DB_READ_MCA* STX1  ! RETRY_COUNT+1,,AUTO

      449    10093
      450    10094           %F$DCB ;
      451    10151    2      DCL LGTH          UBIN WORD ALIGNED ;
      452    10152    2      DCL PTR$          PTR ALIGNED ;
      453    10153    2      DCL 1 PTR_ REDEF PTR$ ALIGNED,
      454    10154    2            2 ADDRESS   BIT (18) UNAL,
      455    10155    2            2 SEGID     UBIN (18) UNAL ;
      456    10156    2      DCL MCA_ERROR_MSG CHAR (LGTH) BASED (PTR$) CALIGNED ;
      457    10157           %FPT_TDIO (FPTN    = READ_MCA,
      458    10158                      DCB     = M$IFAD,
      459    10159                      TIMEOUT = 0,
      460    10160                      WAIT    = YES) ;
      461    10177           %EJECT ;
PL6.E3A0      #001=TOU$DEBLOCKER File=TOU$DEBLOCKER.:E05TSI                      WED 07/30/97 06:40 Page:64
      462    10178        /* Code */
      463    10179
      464    10180    2      READ_MCA.DCWLIST_ = VECTOR (MCA_B.DCW_LIST) ;

  10180  4 000640   000025 235000 5                  LDA     21
         4 000641   000101 236000 xsym               LDQ     DUP+65
         4 000642   000616 757000 2                  STAQ    READ_MCA+2

      465    10181    2      READ_MCA.DATA_ = DUP.BINARY_V ;

  10181  4 000643   000100 237000 xsym               LDAQ    DUP+64
         4 000644   000620 757000 2                  STAQ    READ_MCA+4

      466    10182    2      CALL M$TDIO (READ_MCA) WHENRETURN

  10182  4 000645   000614 630400 2                  EPPR0   READ_MCA
         4 000646   470004 713400                    CLIMB   alt,+28676
         4 000647   401000 401760                    pmme    nvectors=3
         4 000650   000663 702000 4                  TSX2    s:10189

      467    10183    3           DO ;

      468    10184    3              MCA_B.STATUS = DCBADDR (DCBNUM (M$IFAD)) -> F$DCB.TDSTAT# ;

  10184  4 000651   000000 236007 xsym               LDQ     M$IFAD,DL
         4 000652   000002 470400 5                  LDP0    2
         4 000653   000000 471500                    LDP1    0,,PR0
         4 000654   100000 473506                    LDP3    0,QL,PR1
         4 000655   000101 474400 xsym               LDP4    DUP+65
         4 000656   000100 100500                    MLR     fill='000'O
         4 000657   300027 000010                    ADSC9   23,,PR3                  cn=0,n=8
         4 000660   400024 000010                    ADSC9   20,,PR4                  cn=0,n=8

      469    10185    3              RETURN ;

  10185  4 000661   200004 221300                    LDX1  ! RETRY_COUNT+1,,AUTO
         4 000662   000001 702211                    TSX2  ! 1,X1
PL6.E3A0      #001=TOU$DEBLOCKER File=TOU$DEBLOCKER.:E05TSI                      WED 07/30/97 06:40 Page:65

      470    10186    3           END /* WHENRETURN */ ;
      471    10187    2      WHENALTRETURN
      472    10188    3           DO ;

      473    10189    3              MCA_B.STATUS = DCBADDR (DCBNUM (M$IFAD)) -> F$DCB.TDSTAT# ;

  10189  4 000663   000000 236007 xsym               LDQ     M$IFAD,DL
         4 000664   000002 470400 5                  LDP0    2
         4 000665   000000 471500                    LDP1    0,,PR0
         4 000666   100000 473506                    LDP3    0,QL,PR1
         4 000667   000101 474400 xsym               LDP4    DUP+65
         4 000670   000100 100500                    MLR     fill='000'O
         4 000671   300027 000010                    ADSC9   23,,PR3                  cn=0,n=8
         4 000672   400024 000010                    ADSC9   20,,PR4                  cn=0,n=8

      474    10190    3              IF MCA_B.STATUS.SUB.RDP

  10190  4 000673   000101 473400 xsym               LDP3    DUP+65
         4 000674   300024 236100                    LDQ     20,,PR3
         4 000675   004000 316003                    CANQ    2048,DU
         4 000676   000721 600000 4                  TZE     s:10197

      475    10191    4              THEN DO ;

      476    10192    4                      PTR_.ADDRESS = MCA_B.DCW_LIST.DCW2.ADDRESS ;

  10192  4 000677   300003 220100                    LDX0    3,,PR3
         4 000700   200006 740100                    STX0    PTR$,,AUTO

      477    10193    4                      PTR_.SEGID = %IS_SEGID# ;

  10193  4 000701   006000 221003                    LDX1    3072,DU
         4 000702   200006 441100                    SXL1    PTR$,,AUTO

      478    10194    4                      LGTH = MINIMUM (80, MCA_B.DCW_LIST.DCW2.COUNT * 4) ;

PL6.E3A0      #001=TOU$DEBLOCKER File=TOU$DEBLOCKER.:E05TSI                      WED 07/30/97 06:40 Page:66
  10194  4 000703   300003 236100                    LDQ     3,,PR3
         4 000704   000002 736000                    QLS     2
         4 000705   000026 376000 5                  ANQ     22
         4 000706   000120 116007                    CMPQ    80,DL
         4 000707   000712 602000 4                  TNC     s:10194+7
         4 000710   000712 600000 4                  TZE     s:10194+7
         4 000711   000120 236007                    LDQ     80,DL
         4 000712   200005 756100                    STQ     LGTH,,AUTO

      479    10195    4                      DUP.ERROR_IMAGE = MCA_ERROR_MSG ;

  10195  4 000713   200006 474500                    LDP4    PTR$,,AUTO
         4 000714   000000 622006                    EAX2    0,QL
         4 000715   040000 100540                    MLR     fill='040'O
         4 000716   400000 000012                    ADSC9   0,,PR4                   cn=0,n=*X2
         4 000717   000032 000120 xsym               ADSC9   DUP+26                   cn=0,n=80

      480    10196    4                   END /* THEN */ ;

  10196  4 000720   000724 710000 4                  TRA     s:10198

      481    10197    3              ELSE DUP.ERROR_IMAGE = '(no error message returned by the MCA)' ;

  10197  4 000721   040000 100400                    MLR     fill='040'O
         4 000722   000002 000046 3                  ADSC9   EOF_RCW+2                cn=0,n=38
         4 000723   000032 000120 xsym               ADSC9   DUP+26                   cn=0,n=80

      482    10198    3              CALL DB_ERR_MSG (%E$DB_MCA_READ) ;

  10198  4 000724   000030 236000 5                  LDQ     24
         4 000725   200015 756100                    STQ     PTR$+7,,AUTO
         4 000726   000735 701000 4                  TSX1    DB_ERR_MSG
         4 000727   000000 011000                    NOP     0

      483    10199    3              CALL TOU$DU_SYSTEM_ERRMSG ;

  10199  4 000730   000002 631400 xsym               EPPR1   B_VECTNIL+2
PL6.E3A0      #001=TOU$DEBLOCKER File=TOU$DEBLOCKER.:E05TSI                      WED 07/30/97 06:40 Page:67
         4 000731   000000 701000 xent               TSX1    TOU$DU_SYSTEM_ERRMSG
         4 000732   000000 011000                    NOP     0

      484    10200    3              ALTRETURN ;

  10200  4 000733   200004 221300                    LDX1  ! RETRY_COUNT+1,,AUTO
         4 000734   000000 702211                    TSX2  ! 0,X1

      485    10201    3           END /* WHENALTRETURN */ ;
      486    10202
      487    10203    2   END DB_READ_MCA_DATA ;
      488    10204        %EJECT ;
PL6.E3A0      #001=TOU$DEBLOCKER File=TOU$DEBLOCKER.:E05TSI                      WED 07/30/97 06:40 Page:68
      489    10205    1   DB_ERR_MSG: PROC (MSG_CODE) ;

  10205  4 000735   200014 741300       DB_ERR_MSG   STX1  ! PTR$+6,,AUTO

      490    10206
      491    10207    2      DCL MSG_CODE                   UBIN WORD ALIGNED ;
      492    10208
      493    10209        /* Code */
      494    10210
      495    10211    2      DUP.MSG_CODE = MSG_CODE ;

  10211  4 000736   200015 470500                    LDP0    @MSG_CODE,,AUTO
         4 000737   000000 235100                    LDA     0,,PR0
         4 000740   000020 755000 xsym               STA     DUP+16

      496    10212    2      CALL TOU$DU_USER_WRITE ;

  10212  4 000741   000002 631400 xsym               EPPR1   B_VECTNIL+2
         4 000742   000000 701000 xent               TSX1    TOU$DU_USER_WRITE
         4 000743   000000 011000                    NOP     0

      497    10213    2      RETURN ;

  10213  4 000744   200014 221300                    LDX1  ! PTR$+6,,AUTO
         4 000745   000001 702211                    TSX2  ! 1,X1

BLOCK
 Sect OctLoc
   2     000   000000 000000   000000 000000   000000 000000   000000 000000    ................
   2     500*  000000 000000   000000 000000   000000 000000                    ............

FILE_BSN
 Sect OctLoc
   2     503   000000 000000                                                    ....

FILE_EOF
 Sect OctLoc
PL6.E3A0      #001=TOU$DEBLOCKER File=TOU$DEBLOCKER.:E05TSI                      WED 07/30/97 06:40 Page:69
   2     504   000000 000000                                                    ....

FILE_FILE
 Sect OctLoc
   2     505   000000 000000                                                    ....

FILE_SIZE
 Sect OctLoc
   2     506   000000 000000                                                    ....

IFAD_ARS#
 Sect OctLoc
   2     507   000000 000000                                                    ....

GET_NEW_BLOCK
 Sect OctLoc
   2     510   4***** ******                                                    ....

RCW
 Sect OctLoc
   2     511   000000 000000                                                    ....

RECORD
 Sect OctLoc
   2     512   000000 000000   000000 000000   000000 000000   000000 000000    ................
   2     526*  000000 000000   000000 000000   000000 000000   040040 040040    ............
   2     532   040040 040040   040040 040040   040040 040040   040040 040040
   2     542*  040040 040040   040040 040040   040040 040040   040040 040040

READ_IFAD
 Sect OctLoc
   2     546   000005 777640   000556 006000   000000 177640   000000 006014    ................
   2     552   000477 777640   000003 006000   000000 177640   000000 006014    ................
   2     556   000000 400000   000000 000000   000000 000000   040000 000000    ............ ...
   2     562   000000 000000   000000 000000                                    ........

POSITION_IFAD
PL6.E3A0      #001=TOU$DEBLOCKER File=TOU$DEBLOCKER.:E05TSI                      WED 07/30/97 06:40 Page:70
 Sect OctLoc
   2     564   000003 777640   000572 006000   000000 177640   000000 006014    ................
   2     570   000000 177640   000000 006014   000000 000000   000000 000000    ................
   2     574   000000 000000   0***** ******                                    ........

READ_IFAD
 Sect OctLoc
   2     576   000005 777640   000606 006000   000000 177640   000000 006014    ................
   2     602   000477 777640   000003 006000   000000 177640   000000 006014    ................
   2     606   000000 400000   000000 000000   000000 000000   040000 000000    ............ ...
   2     612   000000 000000   000000 000000                                    ........

READ_MCA
 Sect OctLoc
   2     614   000003 777640   000622 006000   000000 177640   000000 006014    ................
   2     620   000000 177640   000000 006014   000000 400000   000000 700000    ................
   2     624   000000 000000   000000 000000                                    ........

EOF_RCW
 Sect OctLoc
   3     000   000000 170000                                                    ..x.

(unnamed)
 Sect OctLoc
   3     001   103120 055066   050156 157040   145162 162157   162040 155145    CP-6(no error me
   3     005   163163 141147   145040 162145   164165 162156   145144 040142    ssage returned b
   3     011   171040 164150   145040 115103   101051 040040                    y the MCA)

(unnamed)
 Sect OctLoc
   5     000   000000 000510   000000 006000   000000 006003   000000 000500    ................
   5     004   000003 006000   000000 000501   000005 006000   000000 000506    ................
   5     010   000007 006000   000000 000507   000011 006000   000000 000511    ................
   5     014   000013 006000   000000 000502   000015 006000   000000 000505    ................
   5     020   000017 006000   000000 000503   000021 006000   000000 000504    ................
   5     024   000023 006000   000003 777640   000003 777774   000000 000512    ................
   5     030   000027 006000                                                    ....
PL6.E3A0      #001=TOU$DEBLOCKER File=TOU$DEBLOCKER.:E05TSI                      WED 07/30/97 06:40 Page:71
      498    10214
      499    10215    2   END DB_ERR_MSG ;
      500    10216    1   END TOU$DEBLOCKER ;

PL6.E3A0      #001=TOU$DEBLOCKER File=TOU$DEBLOCKER.:E05TSI                      WED 07/30/97 06:40 Page:72
--  Include file information  --

   TO_PERR_C.:E05TOU  is referenced.
   TOU_DEER_M.:E05TOU  is referenced.
   CP_6_SUBS.:E05TOU  is referenced.
   CP_6_C.:E05TOU  is referenced.
   CP_6.:E05TOU  cannot be made into a system file and is referenced.
   B_ERRORS_C.:E05TOU  is referenced.
      No diagnostics issued in procedure TOU$DEBLOCKER.
PL6.E3A0      #001=TOU$DEBLOCKER File=TOU$DEBLOCKER.:E05TSI                      WED 07/30/97 06:40 Page:73

 **** Procedure blocks ****

LB#    Line#s    #stmts #vars Sect# OctLoc  P A C   NP Lvl/name
  0    46- 10216    189    45     4      0  y y y    0   1 TOU$DEBLOCKER
                                  4     24    y y    0     TOU$CLEAR_IFAD
                                  4     54    y y    0     TOU$CLEAR_BLOCK
                                  4     61    y y    0     TOU$READ_MCA_DATA
  1  9669-  9734     11     2     4     67  y y y    0     2 DB_FILL_BLOCK
  2  9736-  9774     14     8     4    113  y y y    0     2 DB_CHECK_IFAD_STATUS
  3  9776- 10017     57     0     4    150  y y y    0     2 DB_SET_IFAD_BLOCK
  4  9797-  9872     11     4     4    177  y y y    0      3 DB_CHECK_IFAD_CONTROL
  5  9874- 10016     35     0     4    257  y y y    0      3 DB_RECOVER_BSN_ERROR
  6  9894-  9952     16     9     4    303  y y y    0       4 DB_REPOSITION_IFAD
  7  9954- 10015      8     2     4    362  y y y    0       4 DB_REFILL_BLOCK
  8 10019- 10037     11     0     4    403  y   y    0     2 DB_RETURN_EOF
  9 10039- 10071     23     0     4    430  y y y    0     2 DB_GET_RCW
 10 10073- 10090     12     0     4    600  y   y    0     2 DB_RETURN_RECORD
 11 10092- 10203     20    14     4    637  y y y    0     2 DB_READ_MCA_DATA
 12 10205- 10215      4     2     4    735  y   y    1     2 DB_ERR_MSG
PL6.E3A0      #001=TOU$DEBLOCKER File=TOU$DEBLOCKER.:E05TSI                      WED 07/30/97 06:40 Page:74

    **** Executable statements  ****

  Exec cost Stmt Sec OctLoc Type   LB Label              Exec cost Stmt Sec OctLoc Type   LB Label

              46   4      0 Proc    0                              9587   4      2 If      0
            9588   4      4 Do      0                              9589   4      4 Call    0
            9590   4      6 Call    0                              9591   4     10 EndDo   0
            9594   4     10 If      0                              9595   4     13 Call    0
            9596   4     16 Do      0                              9597   4     16 Call    0
            9598   4     20 Call    0                              9599   4     22 EndDo   0
            9600   4     22 Return  0                              9603   4     23 Altret  0 ERROR
            9619   4     24 Entry   0                              9621   4     26 Assign  0
            9622   4     27 Assign  0                              9623   4     30 Assign  0
            9624   4     31 Assign  0                              9625   4     33 Assign  0
            9626   4     34 Assign  0                              9627   4     36 Assign  0
            9628   4     37 Assign  0                              9629   4     40 Assign  0
            9630   4     41 Assign  0                              9631   4     42 Assign  0
            9632   4     45 Assign  0                              9633   4     50 Assign  0
            9634   4     52 Assign  0                              9635   4     53 Return  0
            9646   4     54 Entry   0                              9648   4     56 Assign  0
            9649   4     60 Return  0                              9660   4     61 Entry   0
            9662   4     63 Call    0                              9663   4     65 Return  0
            9666   4     66 Altret  0 READ_MCA_ERROR               9669   4     67 Proc    1
            9717   4     70 Assign  1                              9719   4     71 Assign  1
            9720   4     72 Assign  1                              9721   4     74 Assign  1
$$$$$$$$$$  9723   4     76 MonCal  1                              9724   4    102 Assign  1
            9725   4    103 Return  1                              9728   4    105 Call    1 BAD_IFAD_READ
            9729   4    107 Return  1                              9732   4    111 Altret  1 ERROR
            9736   4    113 Proc    2                          $$  9758   4    114 If      2
            9759   4    122 Do      2                              9760   4    122 Assign  2
            9761   4    124 Assign  2                              9762   4    125 Assign  2
            9763   4    127 Assign  2                              9764   4    131 Assign  2
            9765   4    134 Return  2                              9767   4    135 Do      2
            9768   4    135 Assign  2                              9769   4    137 Call    2
            9770   4    143 Call    2                              9771   4    146 Altret  2
            9776   4    150 Proc    3                              9780   4    151 DoWhil  3
            9781   4    153 Call    3                              9782   4    155 If      3
PL6.E3A0      #001=TOU$DEBLOCKER File=TOU$DEBLOCKER.:E05TSI                      WED 07/30/97 06:40 Page:75
            9783   4    161 Call    3                              9785   4    163 EndWhi  3
            9786   4    165 Assign  3                              9787   4    166 If      3
            9789   4    170 Assign  3                              9790   4    173 Return  3
            9793   4    175 Altret  3 ERROR                        9797   4    177 Proc    4
       $$$  9859   4    200 Assign  4                              9861   4    206 Assign  4
            9863   4    211 If      4                              9864   4    215 Call    4
     $$$$$  9865   4    222 If      4                              9866   4    233 Call    4
         $  9867   4    240 If      4                              9868   4    247 Call    4
            9869   4    254 Return  4                              9870   4    255 Altret  4
            9874   4    257 Proc    5                              9878   4    260 Assign  5
            9879   4    262 Assign  5                              9880   4    265 If      5
            9881   4    267 Do      5                              9882   4    267 Call    5
            9884   4    273 Altret  5 ERROR                        9886   4    275 Do      5
            9887   4    275 Call    5                              9888   4    277 Call    5
            9889   4    301 Return  5                              9894   4    303 Proc    6
         $  9933   4    304 Assign  6                              9934   4    313 If      6
$$$$$$$$$$  9936   4    314 MonCal  6                              9937   4    320 Return  6
    $$$$$$  9940   4    322 DoCase  6 BAD_IFAD_POSITION            9941   4    341 Case    6
            9942   4    341 Call    6                              9943   4    345 Altret  6
            9944   4    347 Case    6                              9945   4    347 Return  6
            9946   4    351 Case    6                              9947   4    351 Call    6
            9948   4    355 Call    6                              9949   4    360 Altret  6
            9950   4    362 EndCse  6                              9954   4    362 Proc    7
$$$$$$$$$$ 10002   4    363 MonCal  7                             10003   4    367 If      7
           10004   4    372 Assign  7                             10006   4    373 Return  7
           10009   4    375 Call    7 BAD_IFAD_READ               10010   4    377 Return  7
           10013   4    401 Altret  7 ERROR                       10019   4    403 Proc    8
           10023   4    404 Assign  8                             10024   4    407 Assign  8
           10026   4    411 Assign  8                             10027   4    413 Assign  8
           10029   4    414 If      8                             10030   4    416 Assign  8
           10031   4    421 Assign  8                             10033   4    422 Assign  8
           10034   4    423 Assign  8                             10035   4    427 Return  8
           10039   4    430 Proc    9                             10043   4    431 Assign  9
$$$$$$$$$$ 10044   4    434 DoCase  9                             10045   4    474 Case    9
           10046   4    474 If      9                             10047   4    500 Assign  9
           10048   4    502 Do      9                             10049   4    502 Call    9
           10050   4    506 Altret  9                             10052   4    510 Case    9
PL6.E3A0      #001=TOU$DEBLOCKER File=TOU$DEBLOCKER.:E05TSI                      WED 07/30/97 06:40 Page:76
  $$$$$$$$ 10053   4    510 If      9                           $ 10055   4    546 If      9
           10056   4    555 Do      9                             10057   4    555 Call    9
           10058   4    561 Altret  9                             10061   4    563 Do      9
           10062   4    563 Call    9                             10063   4    567 Altret  9
           10065   4    571 Case    9                             10066   4    571 Call    9
           10067   4    575 Altret  9                             10068   4    577 EndCse  9
           10069   4    577 Return  9                             10073   4    600 Proc   10
           10077   4    601 Assign 10                             10078   4    603 DoIndx 10
           10079   4    605 Assign 10                           $ 10080   4    612 EndInd 10
           10081   4    622 Assign 10                             10082   4    625 If     10
           10083   4    632 Do     10                             10084   4    632 Assign 10
           10085   4    633 Assign 10                             10086   4    635 EndDo  10
           10088   4    635 Return 10                             10092   4    637 Proc   11
           10180   4    640 Assign 11                             10181   4    643 Assign 11
$$$$$$$$$$ 10182   4    645 MonCal 11                             10183   4    651 Do     11
     $$$$$ 10184   4    651 Assign 11                             10185   4    661 Return 11
           10188   4    663 Do     11                       $$$$$ 10189   4    663 Assign 11
         $ 10190   4    673 If     11                             10191   4    677 Do     11
           10192   4    677 Assign 11                             10193   4    701 Assign 11
         $ 10194   4    703 Assign 11                           $ 10195   4    713 Assign 11
           10196   4    720 EndDo  11                             10197   4    721 Assign 11
           10198   4    724 Call   11                             10199   4    730 Call   11
           10200   4    733 Altret 11                             10205   4    735 Proc   12
           10211   4    736 Assign 12                             10212   4    741 Call   12
           10213   4    744 Return 12

  **** Statement type totals  ****

    59 Assign    28 Call       4 MonCal    17 If         6 Case      19 Return
    15 Altret     1 DoIndx     1 DoWhil     2 DoCase    13 Do         1 EndInd
     1 EndWhi     2 EndCse     4 EndDo     13 Proc       3 Entry      9 Labels


 # major stmts=  146 Code/major= 3.32 # stmts=  189 Code/stmt= 2.57  Point total=104.2
 Cost/major stmt=  3.4 Cost/stmt=  2.6 Total cost=    503.7

   0-4  $$$$$$$$$$$$$$$$$$$$$$$$$$$$$$$$$$$$$$$$$$$$$$$$$$$$$$$$$$$$$$$$$$$$$$$$$$$$$$$$$$$$$$$
PL6.E3A0      #001=TOU$DEBLOCKER File=TOU$DEBLOCKER.:E05TSI                      WED 07/30/97 06:40 Page:77
   4-6  $$$$
   6-8
  8-10
 10-12
 12-14  $
 14-16
 16-18
 18-20
 20-22
 22-??  $$$
PL6.E3A0      #001=TOU$DEBLOCKER File=TOU$DEBLOCKER.:E05TSI                      WED 07/30/97 06:40 Page:78

 **** Variables and constants ****

  ****  Section 002  Data  TOU$DEBLOCKER

  ****  Scalars and arrays  ****
OctLoc.c.b A Datatyp(siz) R M Lvl/name                 OctLoc.c.b A Datatyp(siz) R M Lvl/name

   503-0-0/w UBIN        r     1 FILE_BSN                 504-0-0/w UBIN        r     1 FILE_EOF
   505-0-0/w UBIN        r     1 FILE_FILE                506-0-0/w UBIN        r     1 FILE_SIZE
   510-0-0/c BIT         r     1 GET_NEW_BLOCK            507-0-0/w UBIN        r     1 IFAD_ARS#
   511-0-0/w UBIN        r     1 RCW_

  ****  Structures  ****
OctLoc.c.b A Datatyp(siz) R M Lvl/name

     0-0-0/w STRC(11628) r     1 BLOCK
     0-0-0/w SBIN        r         2 CONTROL
     1-0-0/w UBIN        r         2 OFFSET
     2-0-0/w UBIN        r         2 BSN
     3-0-0/b STRC        r         2 BCW
     3-0-0/b UBIN(18)    r          3 BSN
     3-2-0/b UBIN(18)    r          3 SIZE
     4-0-0/w UBIN        r         2 DATA(0:318)

     0-0-0/w STRC(11628) r     1 BLOCK_
     3-0-0/w UBIN        r         2 BUFFER(0:319)

   564-0-0/d STRC(360)   r     1 POSITION_IFAD
   572-0-0/d STRC(108)   r         2 V
   573-0-0/w SBIN        r          3 N#

   511-0-0/w STRC        r     1 RCW
   511-0-0/b UBIN(18)    r         2 SIZE
   511-2-0/b BIT (6)     r         2 FILE_MARK
   511-2-6/b UBIN(6)     r         2 MEDIA_CODE

   546-0-0/d STRC(504)   r     1 READ_IFAD
PL6.E3A0      #001=TOU$DEBLOCKER File=TOU$DEBLOCKER.:E05TSI                      WED 07/30/97 06:40 Page:79
   556-0-0/d STRC(216)   r         2 V

   576-0-0/d STRC(504)   r     1 READ_IFAD
   606-0-0/d STRC(216)   r         2 V

   614-0-0/d STRC(360)   r     1 READ_MCA
   616-0-0/b BIT (72)    r         2 DCWLIST_
   620-0-0/b BIT (72)    r         2 DATA_
   622-0-0/d STRC(144)   r         2 V

   512-0-0/w STRC(1008)  r     1 RECORD
   512-0-0/b UBIN(18)    r         2 SIZE
   513-0-0/w UBIN        r         2 DATA(0:26)


  ****  Section 003 RoData TOU$DEBLOCKER

  ****  Scalars and arrays  ****
OctLoc.c.b A Datatyp(siz) R M Lvl/name                 OctLoc.c.b A Datatyp(siz) R M Lvl/name

     0-0-0/w STRC        r     1 EOF_RCW                    0-0-0/w UBIN        r     1 EOF_RCW_

  ****  Auto variables  ****

  ****  Scalars and arrays  ****
OctLoc.c.b A Datatyp(siz) R M Lvl/name                 OctLoc.c.b A Datatyp(siz) R M Lvl/name

    15-0-0/w PTR         r     1 @MSG_CODE                  5-0-0/w UBIN        r     1 LGTH
    *0-0-0/w UBIN        r     1 MSG_CODE                   6-0-0/w PTR         r     1 PTR$
     3-0-0/w UBIN        r     1 RETRY_COUNT

  ****  Structures  ****
OctLoc.c.b A Datatyp(siz) R M Lvl/name

     6-0-0/w STRC        r     1 PTR_
     6-0-0/b BIT (18)    r         2 ADDRESS
     6-2-0/b UBIN(18)    r         2 SEGID
PL6.E3A0      #001=TOU$DEBLOCKER File=TOU$DEBLOCKER.:E05TSI                      WED 07/30/97 06:40 Page:80


  ****  SYMREF variables  ****

  ****  Scalars and arrays  ****
OctLoc.c.b A Datatyp(siz) R M Lvl/name                 OctLoc.c.b A Datatyp(siz) R M Lvl/name

     0-0-0/w PTR         r     1 B$TCB$                     0-0-0/w PTR         r     1 B$TCB$
     0-0-0/w CHAR(8)     r     1 BLOCK_SEQ                  0-0-0/w UBIN        r     1 CUR#
     0-0-0/c BIT         r     1 DECK_SAVED

  ****  Structures  ****
OctLoc.c.b A Datatyp(siz) R M Lvl/name

     0-0-0/d STRC(5220)  r     1 DUP
    20-0-0/w UBIN        r         2 MSG_CODE
    32-0-0/c CHAR(80)    r         2 ERROR_IMAGE
   100-0-0/d STRC(72)    r         2 BINARY_V
   101-0-0/b PTR         r          3 PTR$

     0-0-0/c STRC(189)   r     1 REVISION_B
     0-0-0/c CHAR(6)     r         2 VERSION
     1-2-0/c CHAR(4)     r         2 MASK


  ****  BASED and DCB variables  ****

  ****  Scalars and arrays  ****
OctLoc.c.b A Datatyp(siz) R M Lvl/name                 OctLoc.c.b A Datatyp(siz) R M Lvl/name

     0-0-0N  NULL        r     1 M$IFAD                     0-0-0/c ACHR        r     1 MCA_ERROR_MSG

  ****  Structures  ****
OctLoc.c.b A Datatyp(siz) R M Lvl/name

     0-0-0/w STRC(2448)  r     1 B$ALT
   102-0-0/b STRC        r         2 ERR
PL6.E3A0      #001=TOU$DEBLOCKER File=TOU$DEBLOCKER.:E05TSI                      WED 07/30/97 06:40 Page:81
   102-2-1/b UBIN(14)    r          3 ERR#

     0-0-0/w STRC(2448)  r     1 B$ALT
   102-0-0/b STRC        r         2 ERR
   102-2-1/b UBIN(14)    r          3 ERR#

     0-0-0/w STRC(144)   r     1 B$TCB
     0-0-0/w PTR         r         2 ALT$

     0-0-0/w STRC(144)   r     1 B$TCB
     0-0-0/w PTR         r         2 ALT$

     0-0-0/d ASTR(3528)  r     1 F$DCB
     0-0-0/w SBIN        r         2 ARS#
   140-0-0/d ASTR(9)     r         2 DCBNAME
   140-0-4/b UBIN(5)     r          3 L

     0-0-0/d ASTR(3528)  r     1 F$DCB
    27-0-0/b BIT (72)    r         2 TDSTAT#
   140-0-0/d ASTR(9)     r         2 DCBNAME
   140-0-4/b UBIN(5)     r          3 L

     0-0-0/d STRC)       r     1 MCA_B
     0-0-0/w STRC(144)   r         2 DCW_LIST
     3-0-0/b STRC        r          3 DCW2
     3-0-0/b BIT (18)    r           4 ADDRESS
     3-2-0/b UBIN(18)    r           4 COUNT
    24-0-0/w STRC(72)    r         2 STATUS
    24-0-6/b STRC(6)     r          3 SUB
    24-0-6/b BIT         r           4 RDP


   Procedure TOU$DEBLOCKER requires 486 words for executable code.
   Procedure TOU$DEBLOCKER requires 16 words of local(AUTO) storage.
PL6.E3A0      #001=TOU$DEBLOCKER File=TOU$DEBLOCKER.:E05TSI                      WED 07/30/97 06:40 Page:82

    No errors detected in file TOU$DEBLOCKER.:E05TSI    .
PL6.E3A0      #001=TOU$DEBLOCKER File=TOU$DEBLOCKER.:E05TSI                      WED 07/30/97 06:40 Page:83
          *** CROSS REFERENCE LISTING ***
**     DENOTES     IDENTIFIER DEFINITION
<<                 IDENTIFIER'S VALUE SET
>>                 IDENTIFIER'S VALUE USED
<>                 IDENTIFIER SET AND/OR USED
--                 IDENTIFIER REFERENCED
PL6.E3A0      #001=TOU$DEBLOCKER File=TOU$DEBLOCKER.:E05TSI                      WED 07/30/97 06:40 Page:84
          MINI XREF LISTING

B$ALT.CODE IN PROCEDURE DB_CHECK_IFAD_STATUS
      9746**DCL      9746--REDEF    9747--REDEF    9747--REDEF
B$ALT.ERR.ERR# IN PROCEDURE DB_CHECK_IFAD_STATUS
      9748**DCL      9748--REDEF    9758>>IF
B$ALT.EVID IN PROCEDURE DB_CHECK_IFAD_STATUS
      9747**DCL      9747--REDEF    9747--REDEF
B$ALT.CODE IN PROCEDURE DB_REPOSITION_IFAD
      9902**DCL      9902--REDEF    9903--REDEF    9903--REDEF
B$ALT.ERR.ERR# IN PROCEDURE DB_REPOSITION_IFAD
      9904**DCL      9904--REDEF    9940>>DOCASE
B$ALT.EVID IN PROCEDURE DB_REPOSITION_IFAD
      9903**DCL      9903--REDEF    9903--REDEF
B$TCB.ALT$ IN PROCEDURE DB_CHECK_IFAD_STATUS
      9753**DCL      9758>>IF
B$TCB.ALT$ IN PROCEDURE DB_REPOSITION_IFAD
      9898**DCL      9940>>DOCASE
B$TCB$ IN PROCEDURE DB_CHECK_IFAD_STATUS
      9738**DCL      9758>>IF
B$TCB$ IN PROCEDURE DB_REPOSITION_IFAD
      9896**DCL      9940>>DOCASE
BAD_IFAD_POSITION IN PROCEDURE DB_REPOSITION_IFAD
      9940**LABEL    9936--CALLALT
BAD_IFAD_READ IN PROCEDURE DB_FILL_BLOCK
      9728**LABEL    9723--CALLALT
BAD_IFAD_READ IN PROCEDURE DB_REFILL_BLOCK
     10009**LABEL   10002--CALLALT
BLOCK
      9423**DCL      9431--REDEF
BLOCK.BCW.BSN
      9428**DCL      9624<<ASSIGN   9762<<ASSIGN   9782>>IF       9933>>ASSIGN
BLOCK.BCW.SIZE
      9429**DCL      9625<<ASSIGN   9763<<ASSIGN   9867>>IF
PL6.E3A0      #001=TOU$DEBLOCKER File=TOU$DEBLOCKER.:E05TSI                      WED 07/30/97 06:40 Page:85
BLOCK.BSN
      9426**DCL      9623<<ASSIGN   9720<<ASSIGN   9762>>ASSIGN   9782>>IF       9933>>ASSIGN
BLOCK.CONTROL
      9424**DCL      9594>>IF       9621<<ASSIGN   9719<<ASSIGN   9760<<ASSIGN   9768<<ASSIGN   9780>>DOWHILE
      9787>>IF       9789>>ASSIGN   9861<<ASSIGN   9865>>IF       9867>>IF       9878<<ASSIGN  10003>>IF
     10004<<ASSIGN  10027<<ASSIGN  10047<<ASSIGN  10055>>IF      10082>>IF      10084<<ASSIGN
BLOCK.DATA
      9430**DCL      9764<<ASSIGN  10043>>ASSIGN  10079>>ASSIGN
BLOCK.OFFSET
      9425**DCL      9622<<ASSIGN   9761<<ASSIGN   9764>>ASSIGN   9786<<ASSIGN  10043>>ASSIGN  10055>>IF
     10079>>ASSIGN  10081<<ASSIGN  10081>>ASSIGN  10082>>IF
BLOCK_.BUFFER
      9433**DCL      9694--DCLINIT  9695--DCLINIT  9979--DCLINIT  9980--DCLINIT
BLOCK_SEQ
      9434**DCL     10034<<ASSIGN
CUR#
      9422**DCL     10078<<DOINDEX 10079>>ASSIGN  10079>>ASSIGN
DB_CHECK_IFAD_CONTROL IN PROCEDURE DB_SET_IFAD_BLOCK
      9797**PROC     9781--CALL
DB_CHECK_IFAD_STATUS
      9736**PROC     9728--CALL    10009--CALL
DB_ERR_MSG
     10205**PROC     9769--CALL     9864--CALL     9866--CALL     9868--CALL     9882--CALL     9942--CALL
      9947--CALL    10049--CALL    10057--CALL    10062--CALL    10066--CALL    10198--CALL
DB_FILL_BLOCK
      9669**PROC     9589--CALL
DB_GET_RCW
     10039**PROC     9597--CALL
DB_READ_MCA_DATA
     10092**PROC     9662--CALL
DB_RECOVER_BSN_ERROR IN PROCEDURE DB_SET_IFAD_BLOCK
      9874**PROC     9783--CALL
DB_REFILL_BLOCK IN PROCEDURE DB_RECOVER_BSN_ERROR
      9954**PROC     9888--CALL
DB_REPOSITION_IFAD IN PROCEDURE DB_RECOVER_BSN_ERROR
      9894**PROC     9887--CALL
PL6.E3A0      #001=TOU$DEBLOCKER File=TOU$DEBLOCKER.:E05TSI                      WED 07/30/97 06:40 Page:86
DB_RETURN_EOF
     10019**PROC     9595--CALL
DB_RETURN_RECORD
     10073**PROC     9598--CALL
DB_SET_IFAD_BLOCK
      9776**PROC     9590--CALL
DECK_SAVED
      9435**DCL      9634<<ASSIGN
DUP.BINARY_V
      9354**DCL     10181>>ASSIGN
DUP.BINARY_V.PTR$
      9357**DCL      9451--IMP-PTR 10180>>ASSIGN  10184>>ASSIGN  10189>>ASSIGN  10190>>IF      10192>>ASSIGN
     10194>>ASSIGN
DUP.ERROR_IMAGE
      9328**DCL     10195<<ASSIGN  10197<<ASSIGN
DUP.LOG_V
      9388**DCL      9393--REDEF
DUP.MSG_CODE
      9309**DCL     10211<<ASSIGN
EOF_RCW IN PROCEDURE DB_CHECK_IFAD_STATUS
      9739**DCL      9743--REDEF
EOF_RCW_ IN PROCEDURE DB_CHECK_IFAD_STATUS
      9743**DCL      9764>>ASSIGN
ERROR
      9603**LABEL    9589--CALLALT  9590--CALLALT  9597--CALLALT
ERROR IN PROCEDURE DB_FILL_BLOCK
      9732**LABEL    9728--CALLALT
ERROR IN PROCEDURE DB_RECOVER_BSN_ERROR
      9884**LABEL    9887--CALLALT  9888--CALLALT
ERROR IN PROCEDURE DB_REFILL_BLOCK
     10013**LABEL   10009--CALLALT
ERROR IN PROCEDURE DB_SET_IFAD_BLOCK
      9793**LABEL    9781--CALLALT  9783--CALLALT
F$DCB.ACTPOS IN PROCEDURE DB_CHECK_IFAD_CONTROL
      9832**DCL      9832--REDEF
F$DCB.ARS# IN PROCEDURE DB_CHECK_IFAD_CONTROL
PL6.E3A0      #001=TOU$DEBLOCKER File=TOU$DEBLOCKER.:E05TSI                      WED 07/30/97 06:40 Page:87
      9806**DCL      9806--REDEF    9859>>ASSIGN
F$DCB.ATTR IN PROCEDURE DB_CHECK_IFAD_CONTROL
      9825**DCL      9826--REDEF
F$DCB.BORROW IN PROCEDURE DB_CHECK_IFAD_CONTROL
      9840**DCL      9840--REDEF    9840--REDEF    9840--REDEF
F$DCB.DCBNAME.L IN PROCEDURE DB_CHECK_IFAD_CONTROL
      9854**DCL      9854--IMP-SIZ
F$DCB.EOMCHAR# IN PROCEDURE DB_CHECK_IFAD_CONTROL
      9810**DCL      9810--REDEF
F$DCB.FLDID IN PROCEDURE DB_CHECK_IFAD_CONTROL
      9835**DCL      9835--REDEF
F$DCB.FORM$ IN PROCEDURE DB_CHECK_IFAD_CONTROL
      9829**DCL      9829--REDEF
F$DCB.FSECT IN PROCEDURE DB_CHECK_IFAD_CONTROL
      9845**DCL      9845--REDEF
F$DCB.FSN# IN PROCEDURE DB_CHECK_IFAD_CONTROL
      9822**DCL      9822--REDEF    9822--REDEF    9823--REDEF
F$DCB.HEADER$ IN PROCEDURE DB_CHECK_IFAD_CONTROL
      9828**DCL      9828--REDEF
F$DCB.IXTNSIZE# IN PROCEDURE DB_CHECK_IFAD_CONTROL
      9826**DCL      9826--REDEF
F$DCB.LASTSTA$ IN PROCEDURE DB_CHECK_IFAD_CONTROL
      9815**DCL      9815--REDEF
F$DCB.LVL IN PROCEDURE DB_CHECK_IFAD_CONTROL
      9841**DCL      9841--REDEF
F$DCB.NAME#.C IN PROCEDURE DB_CHECK_IFAD_CONTROL
      9816**DCL      9816--REDEF
F$DCB.NOEOF IN PROCEDURE DB_CHECK_IFAD_CONTROL
      9838**DCL      9838--REDEF
F$DCB.NRECS# IN PROCEDURE DB_CHECK_IFAD_CONTROL
      9827**DCL      9827--REDEF
F$DCB.NRECX IN PROCEDURE DB_CHECK_IFAD_CONTROL
      9846**DCL      9846--REDEF
F$DCB.OHDR IN PROCEDURE DB_CHECK_IFAD_CONTROL
      9838**DCL      9838--REDEF
F$DCB.ORG# IN PROCEDURE DB_CHECK_IFAD_CONTROL
PL6.E3A0      #001=TOU$DEBLOCKER File=TOU$DEBLOCKER.:E05TSI                      WED 07/30/97 06:40 Page:88
      9821**DCL      9821--REDEF
F$DCB.PRECNO IN PROCEDURE DB_CHECK_IFAD_CONTROL
      9844**DCL      9844--REDEF
F$DCB.RCSZ IN PROCEDURE DB_CHECK_IFAD_CONTROL
      9850**DCL      9850--REDEF
F$DCB.RES# IN PROCEDURE DB_CHECK_IFAD_CONTROL
      9817**DCL      9817--REDEF
F$DCB.SETX IN PROCEDURE DB_CHECK_IFAD_CONTROL
      9829**DCL      9829--REDEF
F$DCB.TAB$ IN PROCEDURE DB_CHECK_IFAD_CONTROL
      9829**DCL      9829--REDEF
F$DCB.TDA IN PROCEDURE DB_CHECK_IFAD_CONTROL
      9843**DCL      9844--REDEF
F$DCB.WSN# IN PROCEDURE DB_CHECK_IFAD_CONTROL
      9817**DCL      9817--REDEF
F$DCB.ACTPOS IN PROCEDURE DB_READ_MCA_DATA
     10127**DCL     10127--REDEF
F$DCB.ARS# IN PROCEDURE DB_READ_MCA_DATA
     10101**DCL     10101--REDEF
F$DCB.ATTR IN PROCEDURE DB_READ_MCA_DATA
     10120**DCL     10121--REDEF
F$DCB.BORROW IN PROCEDURE DB_READ_MCA_DATA
     10135**DCL     10135--REDEF   10135--REDEF   10135--REDEF
F$DCB.DCBNAME.L IN PROCEDURE DB_READ_MCA_DATA
     10149**DCL     10149--IMP-SIZ
F$DCB.EOMCHAR# IN PROCEDURE DB_READ_MCA_DATA
     10105**DCL     10105--REDEF
F$DCB.FLDID IN PROCEDURE DB_READ_MCA_DATA
     10130**DCL     10130--REDEF
F$DCB.FORM$ IN PROCEDURE DB_READ_MCA_DATA
     10124**DCL     10124--REDEF
F$DCB.FSECT IN PROCEDURE DB_READ_MCA_DATA
     10140**DCL     10140--REDEF
F$DCB.FSN# IN PROCEDURE DB_READ_MCA_DATA
     10117**DCL     10117--REDEF   10117--REDEF   10118--REDEF
F$DCB.HEADER$ IN PROCEDURE DB_READ_MCA_DATA
PL6.E3A0      #001=TOU$DEBLOCKER File=TOU$DEBLOCKER.:E05TSI                      WED 07/30/97 06:40 Page:89
     10123**DCL     10123--REDEF
F$DCB.IXTNSIZE# IN PROCEDURE DB_READ_MCA_DATA
     10121**DCL     10121--REDEF
F$DCB.LASTSTA$ IN PROCEDURE DB_READ_MCA_DATA
     10110**DCL     10110--REDEF
F$DCB.LVL IN PROCEDURE DB_READ_MCA_DATA
     10136**DCL     10136--REDEF
F$DCB.NAME#.C IN PROCEDURE DB_READ_MCA_DATA
     10111**DCL     10111--REDEF
F$DCB.NOEOF IN PROCEDURE DB_READ_MCA_DATA
     10133**DCL     10133--REDEF
F$DCB.NRECS# IN PROCEDURE DB_READ_MCA_DATA
     10122**DCL     10122--REDEF
F$DCB.NRECX IN PROCEDURE DB_READ_MCA_DATA
     10141**DCL     10141--REDEF
F$DCB.OHDR IN PROCEDURE DB_READ_MCA_DATA
     10133**DCL     10133--REDEF
F$DCB.ORG# IN PROCEDURE DB_READ_MCA_DATA
     10116**DCL     10116--REDEF
F$DCB.PRECNO IN PROCEDURE DB_READ_MCA_DATA
     10139**DCL     10139--REDEF
F$DCB.RCSZ IN PROCEDURE DB_READ_MCA_DATA
     10145**DCL     10145--REDEF
F$DCB.RES# IN PROCEDURE DB_READ_MCA_DATA
     10112**DCL     10112--REDEF
F$DCB.SETX IN PROCEDURE DB_READ_MCA_DATA
     10124**DCL     10124--REDEF
F$DCB.TAB$ IN PROCEDURE DB_READ_MCA_DATA
     10124**DCL     10124--REDEF
F$DCB.TDA IN PROCEDURE DB_READ_MCA_DATA
     10138**DCL     10139--REDEF
F$DCB.TDSTAT# IN PROCEDURE DB_READ_MCA_DATA
     10112**DCL     10184>>ASSIGN  10189>>ASSIGN
F$DCB.WSN# IN PROCEDURE DB_READ_MCA_DATA
     10112**DCL     10112--REDEF
FILE_BSN
PL6.E3A0      #001=TOU$DEBLOCKER File=TOU$DEBLOCKER.:E05TSI                      WED 07/30/97 06:40 Page:90
      9436**DCL      9627<<ASSIGN   9720>>ASSIGN   9721<<ASSIGN   9721>>ASSIGN  10024<<ASSIGN
FILE_EOF
      9437**DCL      9628<<ASSIGN  10030<<ASSIGN  10031<<ASSIGN
FILE_FILE
      9438**DCL      9626<<ASSIGN  10023<<ASSIGN  10023>>ASSIGN
FILE_SIZE
      9439**DCL      9629<<ASSIGN   9789<<ASSIGN   9789>>ASSIGN  10029>>IF      10033<<ASSIGN
GET_NEW_BLOCK
      9441**DCL      9587>>IF       9633<<ASSIGN   9648<<ASSIGN   9724<<ASSIGN  10085<<ASSIGN
IFAD_ARS#
      9440**DCL      9859<<ASSIGN   9861>>ASSIGN   9863>>IF       9865>>IF
LGTH IN PROCEDURE DB_READ_MCA_DATA
     10151**DCL     10156--IMP-SIZ 10194<<ASSIGN  10195>>ASSIGN
M$IFAD
      9275**DCL      9859--ASSIGN  10184--ASSIGN  10189--ASSIGN
M$PRECORD
      6668**DCL-ENT  9936--CALL
M$READ
      6665**DCL-ENT  9723--CALL    10002--CALL
M$TDIO
      6714**DCL-ENT 10182--CALL
MCA_B.CONFIG.DATA
      9506**DCL      9507--REDEF
MCA_B.DCW_LIST
      9452**DCL     10180--ASSIGN
MCA_B.DCW_LIST.DCW2.ADDRESS
      9459**DCL     10192>>ASSIGN
MCA_B.DCW_LIST.DCW2.COUNT
      9460**DCL     10194>>ASSIGN
MCA_B.STATUS
      9464**DCL     10184<<ASSIGN  10189<<ASSIGN
MCA_B.STATUS.SUB.RDP
      9469**DCL     10190>>IF
MCA_ERROR_MSG IN PROCEDURE DB_READ_MCA_DATA
     10156**DCL     10195>>ASSIGN
MSG_CODE IN PROCEDURE DB_ERR_MSG
PL6.E3A0      #001=TOU$DEBLOCKER File=TOU$DEBLOCKER.:E05TSI                      WED 07/30/97 06:40 Page:91
     10207**DCL     10205--PROC    10211>>ASSIGN
POSITION_IFAD IN PROCEDURE DB_REPOSITION_IFAD
      9920**DCL      9936<>CALL
POSITION_IFAD.V IN PROCEDURE DB_REPOSITION_IFAD
      9922**DCL      9920--DCLINIT
POSITION_IFAD.V.N# IN PROCEDURE DB_REPOSITION_IFAD
      9926**DCL      9933<<ASSIGN   9934>>IF
PTR$ IN PROCEDURE DB_READ_MCA_DATA
     10152**DCL     10153--REDEF   10156--IMP-PTR 10195>>ASSIGN
PTR_.ADDRESS IN PROCEDURE DB_READ_MCA_DATA
     10154**DCL     10192<<ASSIGN
PTR_.SEGID IN PROCEDURE DB_READ_MCA_DATA
     10155**DCL     10193<<ASSIGN
RCW
      9512**DCL      9517--REDEF
RCW.FILE_MARK
      9514**DCL     10046>>IF
RCW.MEDIA_CODE
      9515**DCL     10053>>IF      10053>>IF
RCW.SIZE
      9513**DCL     10044>>DOCASE  10053>>IF      10053>>IF      10055>>IF      10077>>ASSIGN  10078>>DOINDEX
     10081>>ASSIGN
RCW_
      9517**DCL     10043<<ASSIGN
READ_IFAD IN PROCEDURE DB_FILL_BLOCK
      9692**DCL      9723<>CALL
READ_IFAD.STATION_ IN PROCEDURE DB_FILL_BLOCK
      9695**DCL      9696--REDEF
READ_IFAD.V IN PROCEDURE DB_FILL_BLOCK
      9696**DCL      9692--DCLINIT
READ_IFAD.V.DVBYTE.REREAD# IN PROCEDURE DB_FILL_BLOCK
      9707**DCL      9707--REDEF
READ_IFAD.V.INDX# IN PROCEDURE DB_FILL_BLOCK
      9705**DCL      9705--REDEF
READ_IFAD IN PROCEDURE DB_REFILL_BLOCK
      9977**DCL     10002<>CALL
PL6.E3A0      #001=TOU$DEBLOCKER File=TOU$DEBLOCKER.:E05TSI                      WED 07/30/97 06:40 Page:92
READ_IFAD.STATION_ IN PROCEDURE DB_REFILL_BLOCK
      9980**DCL      9981--REDEF
READ_IFAD.V IN PROCEDURE DB_REFILL_BLOCK
      9981**DCL      9977--DCLINIT
READ_IFAD.V.DVBYTE.REREAD# IN PROCEDURE DB_REFILL_BLOCK
      9992**DCL      9992--REDEF
READ_IFAD.V.INDX# IN PROCEDURE DB_REFILL_BLOCK
      9990**DCL      9990--REDEF
READ_MCA IN PROCEDURE DB_READ_MCA_DATA
     10171**DCL     10182<>CALL
READ_MCA.DATA_ IN PROCEDURE DB_READ_MCA_DATA
     10171**DCL     10181<<ASSIGN
READ_MCA.DCWLIST_ IN PROCEDURE DB_READ_MCA_DATA
     10171**DCL     10180<<ASSIGN
READ_MCA.V IN PROCEDURE DB_READ_MCA_DATA
     10172**DCL     10171--DCLINIT
READ_MCA_ERROR
      9666**LABEL    9662--CALLALT
RECORD.BCD
      9530**DCL      9534--REDEF    9543--REDEF
RECORD.BINARY.DATA.BINARY
      9536**DCL      9537--REDEF
RECORD.DATA
      9543**DCL     10079<<ASSIGN
RECORD.SIZE
      9528**DCL     10026<<ASSIGN  10077<<ASSIGN
RETRY_COUNT
      9566**DCL      9630<<ASSIGN   9717<<ASSIGN   9879<<ASSIGN   9879>>ASSIGN   9880>>IF
REVISION_B.MASK
      9557**DCL      9559--REDEF    9632<<ASSIGN
REVISION_B.VERSION
      9555**DCL      9631<<ASSIGN
TOU$DU_SYSTEM_ERRMSG
      9579**DCL-ENT  9770--CALL     9948--CALL    10199--CALL
TOU$DU_USER_WRITE
      9578**DCL-ENT 10212--CALL
PL6.E3A0      #001=TOU$DEBLOCKER File=TOU$DEBLOCKER.:E05TSI                      WED 07/30/97 06:40 Page:93
              *** CROSS REFERENCE LISTING ***
    **     DENOTES     IDENTIFIER DEFINITION
    <<                 IDENTIFIER'S VALUE SET
    >>                 IDENTIFIER'S VALUE USED
    <>                 IDENTIFIER SET AND/OR USED
    --                 IDENTIFIER REFERENCED
PL6.E3A0      #001=TOU$DEBLOCKER File=TOU$DEBLOCKER.:E05TSI                      WED 07/30/97 06:40 Page:94
              FULL UREF LISTING

B$ALT IN PROCEDURE DB_CHECK_IFAD_STATUS
      9746**DCL
B$ALT.BRKCNT IN PROCEDURE DB_CHECK_IFAD_STATUS
      9747**DCL
B$ALT.DCB# IN PROCEDURE DB_CHECK_IFAD_STATUS
      9747**DCL
B$ALT.ERR IN PROCEDURE DB_CHECK_IFAD_STATUS
      9747**DCL
B$ALT.ERR.CODE IN PROCEDURE DB_CHECK_IFAD_STATUS
      9748**DCL
B$ALT.ERR.FCG IN PROCEDURE DB_CHECK_IFAD_STATUS
      9748**DCL
B$ALT.ERR.MID IN PROCEDURE DB_CHECK_IFAD_STATUS
      9748**DCL
B$ALT.ERR.MON IN PROCEDURE DB_CHECK_IFAD_STATUS
      9748**DCL
B$ALT.ERR.SEV IN PROCEDURE DB_CHECK_IFAD_STATUS
      9748**DCL
B$ALT.EVSC IN PROCEDURE DB_CHECK_IFAD_STATUS
      9747**DCL
B$ALT.FPT IN PROCEDURE DB_CHECK_IFAD_STATUS
      9746**DCL
B$ALT.FPT.FCG IN PROCEDURE DB_CHECK_IFAD_STATUS
      9746**DCL
B$ALT.FPT.PMME IN PROCEDURE DB_CHECK_IFAD_STATUS
      9746**DCL
B$ALT.P# IN PROCEDURE DB_CHECK_IFAD_STATUS
      9750**DCL
B$ALT.SSFRAME IN PROCEDURE DB_CHECK_IFAD_STATUS
      9746**DCL
B$ALT.SUBC IN PROCEDURE DB_CHECK_IFAD_STATUS
      9747**DCL
PL6.E3A0      #001=TOU$DEBLOCKER File=TOU$DEBLOCKER.:E05TSI                      WED 07/30/97 06:40 Page:95
B$ALT IN PROCEDURE DB_REPOSITION_IFAD
      9902**DCL
B$ALT.BRKCNT IN PROCEDURE DB_REPOSITION_IFAD
      9903**DCL
B$ALT.DCB# IN PROCEDURE DB_REPOSITION_IFAD
      9903**DCL
B$ALT.ERR IN PROCEDURE DB_REPOSITION_IFAD
      9903**DCL
B$ALT.ERR.CODE IN PROCEDURE DB_REPOSITION_IFAD
      9904**DCL
B$ALT.ERR.FCG IN PROCEDURE DB_REPOSITION_IFAD
      9904**DCL
B$ALT.ERR.MID IN PROCEDURE DB_REPOSITION_IFAD
      9904**DCL
B$ALT.ERR.MON IN PROCEDURE DB_REPOSITION_IFAD
      9904**DCL
B$ALT.ERR.SEV IN PROCEDURE DB_REPOSITION_IFAD
      9904**DCL
B$ALT.EVSC IN PROCEDURE DB_REPOSITION_IFAD
      9903**DCL
B$ALT.FPT IN PROCEDURE DB_REPOSITION_IFAD
      9902**DCL
B$ALT.FPT.FCG IN PROCEDURE DB_REPOSITION_IFAD
      9902**DCL
B$ALT.FPT.PMME IN PROCEDURE DB_REPOSITION_IFAD
      9902**DCL
B$ALT.P# IN PROCEDURE DB_REPOSITION_IFAD
      9906**DCL
B$ALT.SSFRAME IN PROCEDURE DB_REPOSITION_IFAD
      9902**DCL
B$ALT.SUBC IN PROCEDURE DB_REPOSITION_IFAD
      9903**DCL
B$TCB IN PROCEDURE DB_CHECK_IFAD_STATUS
      9753**DCL
B$TCB.CURRSZ IN PROCEDURE DB_CHECK_IFAD_STATUS
      9753**DCL
PL6.E3A0      #001=TOU$DEBLOCKER File=TOU$DEBLOCKER.:E05TSI                      WED 07/30/97 06:40 Page:96
B$TCB.STK$ IN PROCEDURE DB_CHECK_IFAD_STATUS
      9753**DCL
B$TCB.TCBAVSZ IN PROCEDURE DB_CHECK_IFAD_STATUS
      9753**DCL
B$TCB IN PROCEDURE DB_REPOSITION_IFAD
      9898**DCL
B$TCB.CURRSZ IN PROCEDURE DB_REPOSITION_IFAD
      9898**DCL
B$TCB.STK$ IN PROCEDURE DB_REPOSITION_IFAD
      9898**DCL
B$TCB.TCBAVSZ IN PROCEDURE DB_REPOSITION_IFAD
      9898**DCL
BLOCK.BCW
      9427**DCL
BLOCK_
      9431**DCL
DUP
      9288**DCL
DUP.BATCH_MODE
      9290**DCL
DUP.BCD_V
      9359**DCL
DUP.BCD_V.PTR$
      9362**DCL
DUP.BOTTOM_LINE#
      9326**DCL
DUP.BREAK_DISABLED
      9408**DCL
DUP.BREAK_RETURN
      9410**DCL
DUP.BREAK_TERMINATE
      9406**DCL
DUP.CMD$
      9306**DCL
DUP.CPU_TYPE
      9419**DCL
PL6.E3A0      #001=TOU$DEBLOCKER File=TOU$DEBLOCKER.:E05TSI                      WED 07/30/97 06:40 Page:97
DUP.CURRENT_LINE#
      9324**DCL
DUP.CURRENT_PAGE#
      9322**DCL
DUP.DF
      9365**DCL
DUP.DF.CLOSE_TYPE
      9374**DCL
DUP.DF.ENTERED
      9366**DCL
DUP.DF.FID
      9376**DCL
DUP.DF.FID_LGTH
      9378**DCL
DUP.DF.NO_EXIST
      9368**DCL
DUP.DF.OPEN_TYPE
      9372**DCL
DUP.DF.REPORT_ERROR
      9370**DCL
DUP.DS_V
      9299**DCL
DUP.FAULT_ERROR
      9294**DCL
DUP.FORCE_NEW_PAGE
      9330**DCL
DUP.HDR_CODE
      9311**DCL
DUP.HOLD_AREA
      9401**DCL
DUP.HOLD_AREA_LGTH
      9403**DCL
DUP.IFAD
      9333**DCL
DUP.IFAD.CONFIG_TAB
      9342**DCL
PL6.E3A0      #001=TOU$DEBLOCKER File=TOU$DEBLOCKER.:E05TSI                      WED 07/30/97 06:40 Page:98
DUP.IFAD.DEVICE_INPUT
      9338**DCL
DUP.IFAD.DRIVE_NUMBER
      9348**DCL
DUP.IFAD.ENTERED
      9336**DCL
DUP.IFAD.FID
      9350**DCL
DUP.IFAD.FID_LGTH
      9352**DCL
DUP.IFAD.IMU_NUMBER
      9346**DCL
DUP.IFAD.IMU_TAB
      9340**DCL
DUP.IFAD.ME_ALLOWED
      9334**DCL
DUP.IFAD.NUM_VOLUMES
      9344**DCL
DUP.LINE_VFC
      9320**DCL
DUP.LOG
      9381**DCL
DUP.LOG.CATALOG
      9384**DCL
DUP.LOG.DECK
      9386**DCL
DUP.LOG.TYPE
      9382**DCL
DUP.LOG_V.PTR$
      9391**DCL
DUP.LOG_V_
      9393**DCL
DUP.MSG_V
      9315**DCL
DUP.MSG_V.PTR$
      9318**DCL
PL6.E3A0      #001=TOU$DEBLOCKER File=TOU$DEBLOCKER.:E05TSI                      WED 07/30/97 06:40 Page:99
DUP.NUM_LINES
      9313**DCL
DUP.NUM_WORDS
      9297**DCL
DUP.PROCESS_COMPLETE
      9292**DCL
DUP.RESPONSE
      9302**DCL
DUP.RESPONSE_LGTH
      9304**DCL
DUP.SITE_ID
      9417**DCL
DUP.SITE_NAME
      9412**DCL
DUP.SITE_NAME.LGTH
      9413**DCL
DUP.SITE_NAME.TEXT
      9415**DCL
DUP.TEMP
      9395**DCL
DUP.TEMP.CLOSE_TYPE
      9398**DCL
DUP.TEMP.OPEN_TYPE
      9396**DCL
EOF_RCW.FILE_MARK IN PROCEDURE DB_CHECK_IFAD_STATUS
      9741**DCL
EOF_RCW.SIZE IN PROCEDURE DB_CHECK_IFAD_STATUS
      9740**DCL
F$DCB IN PROCEDURE DB_CHECK_IFAD_CONTROL
      9800**DCL
F$DCB.ACCT# IN PROCEDURE DB_CHECK_IFAD_CONTROL
      9816**DCL
F$DCB.ACS# IN PROCEDURE DB_CHECK_IFAD_CONTROL
      9824**DCL
F$DCB.AFTRBLK IN PROCEDURE DB_CHECK_IFAD_CONTROL
      9840**DCL
PL6.E3A0      #001=TOU$DEBLOCKER File=TOU$DEBLOCKER.:E05TSI                      WED 07/30/97 06:40 Page:100
F$DCB.AGE IN PROCEDURE DB_CHECK_IFAD_CONTROL
      9851**DCL
F$DCB.ALTKEYX IN PROCEDURE DB_CHECK_IFAD_CONTROL
      9831**DCL
F$DCB.AMFLG IN PROCEDURE DB_CHECK_IFAD_CONTROL
      9837**DCL
F$DCB.AMFLG.ACCF IN PROCEDURE DB_CHECK_IFAD_CONTROL
      9837**DCL
F$DCB.AMFLG.ACSF IN PROCEDURE DB_CHECK_IFAD_CONTROL
      9837**DCL
F$DCB.AMFLG.INSF IN PROCEDURE DB_CHECK_IFAD_CONTROL
      9837**DCL
F$DCB.AMFLG.PROF IN PROCEDURE DB_CHECK_IFAD_CONTROL
      9837**DCL
F$DCB.AMFLG.SNLF IN PROCEDURE DB_CHECK_IFAD_CONTROL
      9837**DCL
F$DCB.AMFLG.USRF IN PROCEDURE DB_CHECK_IFAD_CONTROL
      9837**DCL
F$DCB.AMR# IN PROCEDURE DB_CHECK_IFAD_CONTROL
      9819**DCL
F$DCB.AMRSETSTA IN PROCEDURE DB_CHECK_IFAD_CONTROL
      9818**DCL
F$DCB.ANSISPANSEQ# IN PROCEDURE DB_CHECK_IFAD_CONTROL
      9834**DCL
F$DCB.ASN# IN PROCEDURE DB_CHECK_IFAD_CONTROL
      9821**DCL
F$DCB.ATTR.APL# IN PROCEDURE DB_CHECK_IFAD_CONTROL
      9826**DCL
F$DCB.ATTR.BIN# IN PROCEDURE DB_CHECK_IFAD_CONTROL
      9826**DCL
F$DCB.ATTR.DENS# IN PROCEDURE DB_CHECK_IFAD_CONTROL
      9825**DCL
F$DCB.ATTR.GRLGL# IN PROCEDURE DB_CHECK_IFAD_CONTROL
      9825**DCL
F$DCB.ATTR.LOWERCASE# IN PROCEDURE DB_CHECK_IFAD_CONTROL
      9826**DCL
PL6.E3A0      #001=TOU$DEBLOCKER File=TOU$DEBLOCKER.:E05TSI                      WED 07/30/97 06:40 Page:101
F$DCB.ATTR.NATL# IN PROCEDURE DB_CHECK_IFAD_CONTROL
      9825**DCL
F$DCB.ATTR.NOXLATE# IN PROCEDURE DB_CHECK_IFAD_CONTROL
      9825**DCL
F$DCB.ATTR.TRANSLGL# IN PROCEDURE DB_CHECK_IFAD_CONTROL
      9825**DCL
F$DCB.ATTR.TRUOVRPRT# IN PROCEDURE DB_CHECK_IFAD_CONTROL
      9825**DCL
F$DCB.ATTR.UPPERCASE# IN PROCEDURE DB_CHECK_IFAD_CONTROL
      9825**DCL
F$DCB.AU# IN PROCEDURE DB_CHECK_IFAD_CONTROL
      9818**DCL
F$DCB.AUTHFFLG IN PROCEDURE DB_CHECK_IFAD_CONTROL
      9832**DCL
F$DCB.AUTHFFLG.AU# IN PROCEDURE DB_CHECK_IFAD_CONTROL
      9834**DCL
F$DCB.AUTHFFLG.AURD# IN PROCEDURE DB_CHECK_IFAD_CONTROL
      9834**DCL
F$DCB.AUTHFFLG.CREATE# IN PROCEDURE DB_CHECK_IFAD_CONTROL
      9834**DCL
F$DCB.AUTHFFLG.DELF# IN PROCEDURE DB_CHECK_IFAD_CONTROL
      9833**DCL
F$DCB.AUTHFFLG.DELR# IN PROCEDURE DB_CHECK_IFAD_CONTROL
      9833**DCL
F$DCB.AUTHFFLG.EXEC# IN PROCEDURE DB_CHECK_IFAD_CONTROL
      9833**DCL
F$DCB.AUTHFFLG.NOLIST# IN PROCEDURE DB_CHECK_IFAD_CONTROL
      9833**DCL
F$DCB.AUTHFFLG.READ# IN PROCEDURE DB_CHECK_IFAD_CONTROL
      9833**DCL
F$DCB.AUTHFFLG.REATTR# IN PROCEDURE DB_CHECK_IFAD_CONTROL
      9833**DCL
F$DCB.AUTHFFLG.TCTL# IN PROCEDURE DB_CHECK_IFAD_CONTROL
      9834**DCL
F$DCB.AUTHFFLG.UPD# IN PROCEDURE DB_CHECK_IFAD_CONTROL
      9833**DCL
PL6.E3A0      #001=TOU$DEBLOCKER File=TOU$DEBLOCKER.:E05TSI                      WED 07/30/97 06:40 Page:102
F$DCB.AUTHFFLG.WNEW# IN PROCEDURE DB_CHECK_IFAD_CONTROL
      9833**DCL
F$DCB.BADARS# IN PROCEDURE DB_CHECK_IFAD_CONTROL
      9835**DCL
F$DCB.BFR IN PROCEDURE DB_CHECK_IFAD_CONTROL
      9851**DCL
F$DCB.BFR.BUFUP IN PROCEDURE DB_CHECK_IFAD_CONTROL
      9852**DCL
F$DCB.BFR.BUFX IN PROCEDURE DB_CHECK_IFAD_CONTROL
      9852**DCL
F$DCB.BFR.CHNG IN PROCEDURE DB_CHECK_IFAD_CONTROL
      9852**DCL
F$DCB.BFR.CVM IN PROCEDURE DB_CHECK_IFAD_CONTROL
      9852**DCL
F$DCB.BFR.DA IN PROCEDURE DB_CHECK_IFAD_CONTROL
      9852**DCL
F$DCB.BFR.SCRUB IN PROCEDURE DB_CHECK_IFAD_CONTROL
      9852**DCL
F$DCB.BFR1 IN PROCEDURE DB_CHECK_IFAD_CONTROL
      9852**DCL
F$DCB.BFR1.CX IN PROCEDURE DB_CHECK_IFAD_CONTROL
      9853**DCL
F$DCB.BFR1.FLAGS IN PROCEDURE DB_CHECK_IFAD_CONTROL
      9852**DCL
F$DCB.BFR1.FLAGS.ONE_WORD_HEADER IN PROCEDURE DB_CHECK_IFAD_CONTROL
      9852**DCL
F$DCB.BFR1.SIZ IN PROCEDURE DB_CHECK_IFAD_CONTROL
      9853**DCL
F$DCB.BLKL# IN PROCEDURE DB_CHECK_IFAD_CONTROL
      9822**DCL
F$DCB.BLKLEN IN PROCEDURE DB_CHECK_IFAD_CONTROL
      9845**DCL
F$DCB.BLOCKED# IN PROCEDURE DB_CHECK_IFAD_CONTROL
      9820**DCL
F$DCB.BOL# IN PROCEDURE DB_CHECK_IFAD_CONTROL
      9823**DCL
PL6.E3A0      #001=TOU$DEBLOCKER File=TOU$DEBLOCKER.:E05TSI                      WED 07/30/97 06:40 Page:103
F$DCB.BUPF IN PROCEDURE DB_CHECK_IFAD_CONTROL
      9810**DCL
F$DCB.BUPM# IN PROCEDURE DB_CHECK_IFAD_CONTROL
      9821**DCL
F$DCB.BYTESLEFT IN PROCEDURE DB_CHECK_IFAD_CONTROL
      9844**DCL
F$DCB.CACHE IN PROCEDURE DB_CHECK_IFAD_CONTROL
      9839**DCL
F$DCB.CBUFNUM IN PROCEDURE DB_CHECK_IFAD_CONTROL
      9843**DCL
F$DCB.CFU$ IN PROCEDURE DB_CHECK_IFAD_CONTROL
      9841**DCL
F$DCB.CHAIN# IN PROCEDURE DB_CHECK_IFAD_CONTROL
      9827**DCL
F$DCB.CHANTIME# IN PROCEDURE DB_CHECK_IFAD_CONTROL
      9827**DCL
F$DCB.CNVRT# IN PROCEDURE DB_CHECK_IFAD_CONTROL
      9819**DCL
F$DCB.CODE16$ IN PROCEDURE DB_CHECK_IFAD_CONTROL
      9831**DCL
F$DCB.COMP# IN PROCEDURE DB_CHECK_IFAD_CONTROL
      9820**DCL
F$DCB.CONNCT# IN PROCEDURE DB_CHECK_IFAD_CONTROL
      9826**DCL
F$DCB.CONT IN PROCEDURE DB_CHECK_IFAD_CONTROL
      9839**DCL
F$DCB.CRECNO IN PROCEDURE DB_CHECK_IFAD_CONTROL
      9844**DCL
F$DCB.CRECX IN PROCEDURE DB_CHECK_IFAD_CONTROL
      9843**DCL
F$DCB.CSEED IN PROCEDURE DB_CHECK_IFAD_CONTROL
      9844**DCL
F$DCB.CTG# IN PROCEDURE DB_CHECK_IFAD_CONTROL
      9820**DCL
F$DCB.CTLCMDIN IN PROCEDURE DB_CHECK_IFAD_CONTROL
      9848**DCL
PL6.E3A0      #001=TOU$DEBLOCKER File=TOU$DEBLOCKER.:E05TSI                      WED 07/30/97 06:40 Page:104
F$DCB.CVOL# IN PROCEDURE DB_CHECK_IFAD_CONTROL
      9820**DCL
F$DCB.CWORD IN PROCEDURE DB_CHECK_IFAD_CONTROL
      9849**DCL
F$DCB.CX IN PROCEDURE DB_CHECK_IFAD_CONTROL
      9849**DCL
F$DCB.DBGDCBNO# IN PROCEDURE DB_CHECK_IFAD_CONTROL
      9822**DCL
F$DCB.DBGSYSID# IN PROCEDURE DB_CHECK_IFAD_CONTROL
      9822**DCL
F$DCB.DCB# IN PROCEDURE DB_CHECK_IFAD_CONTROL
      9834**DCL
F$DCB.DCBNAME IN PROCEDURE DB_CHECK_IFAD_CONTROL
      9853**DCL
F$DCB.DCBNAME.N IN PROCEDURE DB_CHECK_IFAD_CONTROL
      9854**DCL
F$DCB.DCBNAME.S IN PROCEDURE DB_CHECK_IFAD_CONTROL
      9854**DCL
F$DCB.DCBNAME.X IN PROCEDURE DB_CHECK_IFAD_CONTROL
      9854**DCL
F$DCB.DCT$ IN PROCEDURE DB_CHECK_IFAD_CONTROL
      9829**DCL
F$DCB.DDEV IN PROCEDURE DB_CHECK_IFAD_CONTROL
      9812**DCL
F$DCB.DDEV.CP# IN PROCEDURE DB_CHECK_IFAD_CONTROL
      9812**DCL
F$DCB.DDEV.GR# IN PROCEDURE DB_CHECK_IFAD_CONTROL
      9813**DCL
F$DCB.DDEV.IC# IN PROCEDURE DB_CHECK_IFAD_CONTROL
      9812**DCL
F$DCB.DDEV.LP# IN PROCEDURE DB_CHECK_IFAD_CONTROL
      9812**DCL
F$DCB.DDEV.UCOUT# IN PROCEDURE DB_CHECK_IFAD_CONTROL
      9813**DCL
F$DCB.DDEV.XEQ# IN PROCEDURE DB_CHECK_IFAD_CONTROL
      9813**DCL
PL6.E3A0      #001=TOU$DEBLOCKER File=TOU$DEBLOCKER.:E05TSI                      WED 07/30/97 06:40 Page:105
F$DCB.DECRYPT IN PROCEDURE DB_CHECK_IFAD_CONTROL
      9847**DCL
F$DCB.DENSITY# IN PROCEDURE DB_CHECK_IFAD_CONTROL
      9827**DCL
F$DCB.DESC IN PROCEDURE DB_CHECK_IFAD_CONTROL
      9813**DCL
F$DCB.DESC.ACTIVE# IN PROCEDURE DB_CHECK_IFAD_CONTROL
      9815**DCL
F$DCB.DESC.ARCHIVE# IN PROCEDURE DB_CHECK_IFAD_CONTROL
      9814**DCL
F$DCB.DESC.BAD# IN PROCEDURE DB_CHECK_IFAD_CONTROL
      9814**DCL
F$DCB.DESC.BUF# IN PROCEDURE DB_CHECK_IFAD_CONTROL
      9814**DCL
F$DCB.DESC.BUPM# IN PROCEDURE DB_CHECK_IFAD_CONTROL
      9814**DCL
F$DCB.DESC.DELF# IN PROCEDURE DB_CHECK_IFAD_CONTROL
      9813**DCL
F$DCB.DESC.FETCH# IN PROCEDURE DB_CHECK_IFAD_CONTROL
      9815**DCL
F$DCB.DESC.NBUF# IN PROCEDURE DB_CHECK_IFAD_CONTROL
      9814**DCL
F$DCB.DESC.NOLIST# IN PROCEDURE DB_CHECK_IFAD_CONTROL
      9814**DCL
F$DCB.DESC.ODSTOW# IN PROCEDURE DB_CHECK_IFAD_CONTROL
      9814**DCL
F$DCB.DESC.QS# IN PROCEDURE DB_CHECK_IFAD_CONTROL
      9814**DCL
F$DCB.DESC.TERMINATE# IN PROCEDURE DB_CHECK_IFAD_CONTROL
      9815**DCL
F$DCB.DESC.TPB# IN PROCEDURE DB_CHECK_IFAD_CONTROL
      9815**DCL
F$DCB.DEVADR IN PROCEDURE DB_CHECK_IFAD_CONTROL
      9829**DCL
F$DCB.DEVADR.CHAN# IN PROCEDURE DB_CHECK_IFAD_CONTROL
      9830**DCL
PL6.E3A0      #001=TOU$DEBLOCKER File=TOU$DEBLOCKER.:E05TSI                      WED 07/30/97 06:40 Page:106
F$DCB.DEVADR.DVN# IN PROCEDURE DB_CHECK_IFAD_CONTROL
      9830**DCL
F$DCB.DEVADR.IOM# IN PROCEDURE DB_CHECK_IFAD_CONTROL
      9830**DCL
F$DCB.DISP# IN PROCEDURE DB_CHECK_IFAD_CONTROL
      9821**DCL
F$DCB.DQH$ IN PROCEDURE DB_CHECK_IFAD_CONTROL
      9828**DCL
F$DCB.DVBYTE IN PROCEDURE DB_CHECK_IFAD_CONTROL
      9809**DCL
F$DCB.DVBYTE.BIN# IN PROCEDURE DB_CHECK_IFAD_CONTROL
      9809**DCL
F$DCB.DVBYTE.TOP# IN PROCEDURE DB_CHECK_IFAD_CONTROL
      9809**DCL
F$DCB.DVBYTE.TRANS# IN PROCEDURE DB_CHECK_IFAD_CONTROL
      9809**DCL
F$DCB.DVBYTE.VFC# IN PROCEDURE DB_CHECK_IFAD_CONTROL
      9809**DCL
F$DCB.DVFC# IN PROCEDURE DB_CHECK_IFAD_CONTROL
      9828**DCL
F$DCB.DVTYPE# IN PROCEDURE DB_CHECK_IFAD_CONTROL
      9821**DCL
F$DCB.EBCDIC# IN PROCEDURE DB_CHECK_IFAD_CONTROL
      9819**DCL
F$DCB.ENQF IN PROCEDURE DB_CHECK_IFAD_CONTROL
      9839**DCL
F$DCB.EOMVAL# IN PROCEDURE DB_CHECK_IFAD_CONTROL
      9810**DCL
F$DCB.EOMVAL#.VALUE# IN PROCEDURE DB_CHECK_IFAD_CONTROL
      9811**DCL
F$DCB.EOMVAL#.VFLG# IN PROCEDURE DB_CHECK_IFAD_CONTROL
      9810**DCL
F$DCB.EOP IN PROCEDURE DB_CHECK_IFAD_CONTROL
      9836**DCL
F$DCB.EVENT IN PROCEDURE DB_CHECK_IFAD_CONTROL
      9831**DCL
PL6.E3A0      #001=TOU$DEBLOCKER File=TOU$DEBLOCKER.:E05TSI                      WED 07/30/97 06:40 Page:107
F$DCB.EXIST# IN PROCEDURE DB_CHECK_IFAD_CONTROL
      9820**DCL
F$DCB.EXPIRE# IN PROCEDURE DB_CHECK_IFAD_CONTROL
      9823**DCL
F$DCB.FCD# IN PROCEDURE DB_CHECK_IFAD_CONTROL
      9819**DCL
F$DCB.FCI# IN PROCEDURE DB_CHECK_IFAD_CONTROL
      9819**DCL
F$DCB.FCN IN PROCEDURE DB_CHECK_IFAD_CONTROL
      9845**DCL
F$DCB.FCN.CNT IN PROCEDURE DB_CHECK_IFAD_CONTROL
      9845**DCL
F$DCB.FCN.F IN PROCEDURE DB_CHECK_IFAD_CONTROL
      9845**DCL
F$DCB.FDCM IN PROCEDURE DB_CHECK_IFAD_CONTROL
      9844**DCL
F$DCB.FEPIO IN PROCEDURE DB_CHECK_IFAD_CONTROL
      9851**DCL
F$DCB.FEPIO.BPP IN PROCEDURE DB_CHECK_IFAD_CONTROL
      9851**DCL
F$DCB.FEPIO.BUFX IN PROCEDURE DB_CHECK_IFAD_CONTROL
      9851**DCL
F$DCB.FEPIO.EVENT IN PROCEDURE DB_CHECK_IFAD_CONTROL
      9851**DCL
F$DCB.FEPIO.KEYX IN PROCEDURE DB_CHECK_IFAD_CONTROL
      9851**DCL
F$DCB.FEPIO.KPP IN PROCEDURE DB_CHECK_IFAD_CONTROL
      9851**DCL
F$DCB.FEPIO2 IN PROCEDURE DB_CHECK_IFAD_CONTROL
      9853**DCL
F$DCB.FEPIO3 IN PROCEDURE DB_CHECK_IFAD_CONTROL
      9853**DCL
F$DCB.FEPSIZ IN PROCEDURE DB_CHECK_IFAD_CONTROL
      9850**DCL
F$DCB.FEPSIZ.BUF IN PROCEDURE DB_CHECK_IFAD_CONTROL
      9850**DCL
PL6.E3A0      #001=TOU$DEBLOCKER File=TOU$DEBLOCKER.:E05TSI                      WED 07/30/97 06:40 Page:108
F$DCB.FEPSIZ.KEY IN PROCEDURE DB_CHECK_IFAD_CONTROL
      9850**DCL
F$DCB.FEXT IN PROCEDURE DB_CHECK_IFAD_CONTROL
      9836**DCL
F$DCB.FEXTX IN PROCEDURE DB_CHECK_IFAD_CONTROL
      9823**DCL
F$DCB.FFLG IN PROCEDURE DB_CHECK_IFAD_CONTROL
      9811**DCL
F$DCB.FFLG.AU# IN PROCEDURE DB_CHECK_IFAD_CONTROL
      9812**DCL
F$DCB.FFLG.AURD# IN PROCEDURE DB_CHECK_IFAD_CONTROL
      9812**DCL
F$DCB.FFLG.CREATE# IN PROCEDURE DB_CHECK_IFAD_CONTROL
      9812**DCL
F$DCB.FFLG.DELF# IN PROCEDURE DB_CHECK_IFAD_CONTROL
      9811**DCL
F$DCB.FFLG.DELR# IN PROCEDURE DB_CHECK_IFAD_CONTROL
      9811**DCL
F$DCB.FFLG.EXEC# IN PROCEDURE DB_CHECK_IFAD_CONTROL
      9812**DCL
F$DCB.FFLG.NOLIST# IN PROCEDURE DB_CHECK_IFAD_CONTROL
      9811**DCL
F$DCB.FFLG.READ# IN PROCEDURE DB_CHECK_IFAD_CONTROL
      9811**DCL
F$DCB.FFLG.REATTR# IN PROCEDURE DB_CHECK_IFAD_CONTROL
      9811**DCL
F$DCB.FFLG.TCTL# IN PROCEDURE DB_CHECK_IFAD_CONTROL
      9812**DCL
F$DCB.FFLG.UPD# IN PROCEDURE DB_CHECK_IFAD_CONTROL
      9811**DCL
F$DCB.FFLG.WNEW# IN PROCEDURE DB_CHECK_IFAD_CONTROL
      9811**DCL
F$DCB.FIELDX IN PROCEDURE DB_CHECK_IFAD_CONTROL
      9831**DCL
F$DCB.FLPW# IN PROCEDURE DB_CHECK_IFAD_CONTROL
      9806**DCL
PL6.E3A0      #001=TOU$DEBLOCKER File=TOU$DEBLOCKER.:E05TSI                      WED 07/30/97 06:40 Page:109
F$DCB.FMOD IN PROCEDURE DB_CHECK_IFAD_CONTROL
      9836**DCL
F$DCB.FPRGX IN PROCEDURE DB_CHECK_IFAD_CONTROL
      9831**DCL
F$DCB.FPSTR IN PROCEDURE DB_CHECK_IFAD_CONTROL
      9846**DCL
F$DCB.FTAM IN PROCEDURE DB_CHECK_IFAD_CONTROL
      9840**DCL
F$DCB.FTAM.CTX IN PROCEDURE DB_CHECK_IFAD_CONTROL
      9841**DCL
F$DCB.FTAM.PMME IN PROCEDURE DB_CHECK_IFAD_CONTROL
      9841**DCL
F$DCB.FTAM.USR IN PROCEDURE DB_CHECK_IFAD_CONTROL
      9841**DCL
F$DCB.FUN# IN PROCEDURE DB_CHECK_IFAD_CONTROL
      9821**DCL
F$DCB.GDISP IN PROCEDURE DB_CHECK_IFAD_CONTROL
      9847**DCL
F$DCB.GHSTACS# IN PROCEDURE DB_CHECK_IFAD_CONTROL
      9830**DCL
F$DCB.GRPOS IN PROCEDURE DB_CHECK_IFAD_CONTROL
      9839**DCL
F$DCB.GTYP IN PROCEDURE DB_CHECK_IFAD_CONTROL
      9836**DCL
F$DCB.HASH IN PROCEDURE DB_CHECK_IFAD_CONTROL
      9844**DCL
F$DCB.IASN IN PROCEDURE DB_CHECK_IFAD_CONTROL
      9849**DCL
F$DCB.ID IN PROCEDURE DB_CHECK_IFAD_CONTROL
      9850**DCL
F$DCB.ID.DA IN PROCEDURE DB_CHECK_IFAD_CONTROL
      9850**DCL
F$DCB.ID.GX IN PROCEDURE DB_CHECK_IFAD_CONTROL
      9850**DCL
F$DCB.IFMT IN PROCEDURE DB_CHECK_IFAD_CONTROL
      9848**DCL
PL6.E3A0      #001=TOU$DEBLOCKER File=TOU$DEBLOCKER.:E05TSI                      WED 07/30/97 06:40 Page:110
F$DCB.IGNOREFSN# IN PROCEDURE DB_CHECK_IFAD_CONTROL
      9818**DCL
F$DCB.INDX IN PROCEDURE DB_CHECK_IFAD_CONTROL
      9845**DCL
F$DCB.IOERROK# IN PROCEDURE DB_CHECK_IFAD_CONTROL
      9818**DCL
F$DCB.IORG IN PROCEDURE DB_CHECK_IFAD_CONTROL
      9843**DCL
F$DCB.IRRECX IN PROCEDURE DB_CHECK_IFAD_CONTROL
      9835**DCL
F$DCB.IWL IN PROCEDURE DB_CHECK_IFAD_CONTROL
      9848**DCL
F$DCB.IWL.HDRIWL IN PROCEDURE DB_CHECK_IFAD_CONTROL
      9848**DCL
F$DCB.IWL.SEQIWL IN PROCEDURE DB_CHECK_IFAD_CONTROL
      9848**DCL
F$DCB.IWL.TABIWL IN PROCEDURE DB_CHECK_IFAD_CONTROL
      9848**DCL
F$DCB.JRNLBYPASS# IN PROCEDURE DB_CHECK_IFAD_CONTROL
      9830**DCL
F$DCB.KEYL# IN PROCEDURE DB_CHECK_IFAD_CONTROL
      9823**DCL
F$DCB.KEYTYPE# IN PROCEDURE DB_CHECK_IFAD_CONTROL
      9832**DCL
F$DCB.KEYX# IN PROCEDURE DB_CHECK_IFAD_CONTROL
      9823**DCL
F$DCB.KFIELDX IN PROCEDURE DB_CHECK_IFAD_CONTROL
      9832**DCL
F$DCB.LASTKEY IN PROCEDURE DB_CHECK_IFAD_CONTROL
      9840**DCL
F$DCB.LASTKEY$ IN PROCEDURE DB_CHECK_IFAD_CONTROL
      9840**DCL
F$DCB.LDCTX IN PROCEDURE DB_CHECK_IFAD_CONTROL
      9829**DCL
F$DCB.LDFLG IN PROCEDURE DB_CHECK_IFAD_CONTROL
      9838**DCL
PL6.E3A0      #001=TOU$DEBLOCKER File=TOU$DEBLOCKER.:E05TSI                      WED 07/30/97 06:40 Page:111
F$DCB.LINES# IN PROCEDURE DB_CHECK_IFAD_CONTROL
      9828**DCL
F$DCB.LOAD# IN PROCEDURE DB_CHECK_IFAD_CONTROL
      9818**DCL
F$DCB.LOGSEC IN PROCEDURE DB_CHECK_IFAD_CONTROL
      9847**DCL
F$DCB.LPOOL IN PROCEDURE DB_CHECK_IFAD_CONTROL
      9841**DCL
F$DCB.LRDL0# IN PROCEDURE DB_CHECK_IFAD_CONTROL
      9824**DCL
F$DCB.LSLIDE# IN PROCEDURE DB_CHECK_IFAD_CONTROL
      9824**DCL
F$DCB.LSTAOR# IN PROCEDURE DB_CHECK_IFAD_CONTROL
      9818**DCL
F$DCB.LSTBLK IN PROCEDURE DB_CHECK_IFAD_CONTROL
      9840**DCL
F$DCB.MAXVOL# IN PROCEDURE DB_CHECK_IFAD_CONTROL
      9827**DCL
F$DCB.MEDIA IN PROCEDURE DB_CHECK_IFAD_CONTROL
      9848**DCL
F$DCB.MODCNT IN PROCEDURE DB_CHECK_IFAD_CONTROL
      9846**DCL
F$DCB.MOUNT IN PROCEDURE DB_CHECK_IFAD_CONTROL
      9838**DCL
F$DCB.MOVED IN PROCEDURE DB_CHECK_IFAD_CONTROL
      9849**DCL
F$DCB.MPC$ IN PROCEDURE DB_CHECK_IFAD_CONTROL
      9829**DCL
F$DCB.MUST_CVOL IN PROCEDURE DB_CHECK_IFAD_CONTROL
      9837**DCL
F$DCB.NAME# IN PROCEDURE DB_CHECK_IFAD_CONTROL
      9816**DCL
F$DCB.NAME#.C17 IN PROCEDURE DB_CHECK_IFAD_CONTROL
      9816**DCL
F$DCB.NAME#.C17.CC IN PROCEDURE DB_CHECK_IFAD_CONTROL
      9816**DCL
PL6.E3A0      #001=TOU$DEBLOCKER File=TOU$DEBLOCKER.:E05TSI                      WED 07/30/97 06:40 Page:112
F$DCB.NAME#.L IN PROCEDURE DB_CHECK_IFAD_CONTROL
      9816**DCL
F$DCB.NEW_FSECT IN PROCEDURE DB_CHECK_IFAD_CONTROL
      9838**DCL
F$DCB.OLDIOERR IN PROCEDURE DB_CHECK_IFAD_CONTROL
      9847**DCL
F$DCB.OWNER IN PROCEDURE DB_CHECK_IFAD_CONTROL
      9838**DCL
F$DCB.PASS# IN PROCEDURE DB_CHECK_IFAD_CONTROL
      9816**DCL
F$DCB.PASSF# IN PROCEDURE DB_CHECK_IFAD_CONTROL
      9819**DCL
F$DCB.PATH IN PROCEDURE DB_CHECK_IFAD_CONTROL
      9835**DCL
F$DCB.PATH.CHAN# IN PROCEDURE DB_CHECK_IFAD_CONTROL
      9835**DCL
F$DCB.PATH.IOM# IN PROCEDURE DB_CHECK_IFAD_CONTROL
      9835**DCL
F$DCB.PGINGRAN IN PROCEDURE DB_CHECK_IFAD_CONTROL
      9847**DCL
F$DCB.PRIVOPN IN PROCEDURE DB_CHECK_IFAD_CONTROL
      9847**DCL
F$DCB.PSN# IN PROCEDURE DB_CHECK_IFAD_CONTROL
      9816**DCL
F$DCB.QISS# IN PROCEDURE DB_CHECK_IFAD_CONTROL
      9818**DCL
F$DCB.RA IN PROCEDURE DB_CHECK_IFAD_CONTROL
      9839**DCL
F$DCB.RDL0# IN PROCEDURE DB_CHECK_IFAD_CONTROL
      9810**DCL
F$DCB.REALSPAN IN PROCEDURE DB_CHECK_IFAD_CONTROL
      9847**DCL
F$DCB.RECL# IN PROCEDURE DB_CHECK_IFAD_CONTROL
      9822**DCL
F$DCB.RESNT IN PROCEDURE DB_CHECK_IFAD_CONTROL
      9817**DCL
PL6.E3A0      #001=TOU$DEBLOCKER File=TOU$DEBLOCKER.:E05TSI                      WED 07/30/97 06:40 Page:113
F$DCB.RESNT.NUM IN PROCEDURE DB_CHECK_IFAD_CONTROL
      9817**DCL
F$DCB.RESNT.TYP IN PROCEDURE DB_CHECK_IFAD_CONTROL
      9817**DCL
F$DCB.RETRYCNT# IN PROCEDURE DB_CHECK_IFAD_CONTROL
      9813**DCL
F$DCB.RPOS IN PROCEDURE DB_CHECK_IFAD_CONTROL
      9839**DCL
F$DCB.SEED# IN PROCEDURE DB_CHECK_IFAD_CONTROL
      9836**DCL
F$DCB.SEGX IN PROCEDURE DB_CHECK_IFAD_CONTROL
      9846**DCL
F$DCB.SEQ# IN PROCEDURE DB_CHECK_IFAD_CONTROL
      9828**DCL
F$DCB.SEQCOL# IN PROCEDURE DB_CHECK_IFAD_CONTROL
      9828**DCL
F$DCB.SEQID# IN PROCEDURE DB_CHECK_IFAD_CONTROL
      9828**DCL
F$DCB.SETSTA$ IN PROCEDURE DB_CHECK_IFAD_CONTROL
      9815**DCL
F$DCB.SEZ_OK IN PROCEDURE DB_CHECK_IFAD_CONTROL
      9837**DCL
F$DCB.SHARE# IN PROCEDURE DB_CHECK_IFAD_CONTROL
      9820**DCL
F$DCB.SHARED IN PROCEDURE DB_CHECK_IFAD_CONTROL
      9836**DCL
F$DCB.SLIDE# IN PROCEDURE DB_CHECK_IFAD_CONTROL
      9810**DCL
F$DCB.SPAN IN PROCEDURE DB_CHECK_IFAD_CONTROL
      9838**DCL
F$DCB.SPANNED# IN PROCEDURE DB_CHECK_IFAD_CONTROL
      9820**DCL
F$DCB.SPARE# IN PROCEDURE DB_CHECK_IFAD_CONTROL
      9824**DCL
F$DCB.STARF IN PROCEDURE DB_CHECK_IFAD_CONTROL
      9836**DCL
PL6.E3A0      #001=TOU$DEBLOCKER File=TOU$DEBLOCKER.:E05TSI                      WED 07/30/97 06:40 Page:114
F$DCB.STARTX IN PROCEDURE DB_CHECK_IFAD_CONTROL
      9832**DCL
F$DCB.STARX IN PROCEDURE DB_CHECK_IFAD_CONTROL
      9839**DCL
F$DCB.STR# IN PROCEDURE DB_CHECK_IFAD_CONTROL
      9846**DCL
F$DCB.SYSID# IN PROCEDURE DB_CHECK_IFAD_CONTROL
      9823**DCL
F$DCB.TAPTYP IN PROCEDURE DB_CHECK_IFAD_CONTROL
      9842**DCL
F$DCB.TAPTYP.CP6F IN PROCEDURE DB_CHECK_IFAD_CONTROL
      9842**DCL
F$DCB.TAPTYP.HAVLASTKEY IN PROCEDURE DB_CHECK_IFAD_CONTROL
      9842**DCL
F$DCB.TAPTYP.MANAGED IN PROCEDURE DB_CHECK_IFAD_CONTROL
      9843**DCL
F$DCB.TAPTYP.NOCVOL IN PROCEDURE DB_CHECK_IFAD_CONTROL
      9843**DCL
F$DCB.TAPTYP.PASTFM IN PROCEDURE DB_CHECK_IFAD_CONTROL
      9843**DCL
F$DCB.TAPTYP.RWASC IN PROCEDURE DB_CHECK_IFAD_CONTROL
      9842**DCL
F$DCB.TAPTYP.USRBUF IN PROCEDURE DB_CHECK_IFAD_CONTROL
      9842**DCL
F$DCB.TDALVL IN PROCEDURE DB_CHECK_IFAD_CONTROL
      9841**DCL
F$DCB.TDEXTST$ IN PROCEDURE DB_CHECK_IFAD_CONTROL
      9815**DCL
F$DCB.TDFLG IN PROCEDURE DB_CHECK_IFAD_CONTROL
      9826**DCL
F$DCB.TDFLG.SDSK# IN PROCEDURE DB_CHECK_IFAD_CONTROL
      9826**DCL
F$DCB.TDSTAT# IN PROCEDURE DB_CHECK_IFAD_CONTROL
      9817**DCL
F$DCB.TRNC IN PROCEDURE DB_CHECK_IFAD_CONTROL
      9839**DCL
PL6.E3A0      #001=TOU$DEBLOCKER File=TOU$DEBLOCKER.:E05TSI                      WED 07/30/97 06:40 Page:115
F$DCB.TYC IN PROCEDURE DB_CHECK_IFAD_CONTROL
      9806**DCL
F$DCB.TYC.BLNKTP# IN PROCEDURE DB_CHECK_IFAD_CONTROL
      9806**DCL
F$DCB.TYC.BOF# IN PROCEDURE DB_CHECK_IFAD_CONTROL
      9806**DCL
F$DCB.TYC.BOT# IN PROCEDURE DB_CHECK_IFAD_CONTROL
      9806**DCL
F$DCB.TYC.CDALRT# IN PROCEDURE DB_CHECK_IFAD_CONTROL
      9808**DCL
F$DCB.TYC.CGCRCW IN PROCEDURE DB_CHECK_IFAD_CONTROL
      9809**DCL
F$DCB.TYC.CGCWRV IN PROCEDURE DB_CHECK_IFAD_CONTROL
      9809**DCL
F$DCB.TYC.CGFULL IN PROCEDURE DB_CHECK_IFAD_CONTROL
      9808**DCL
F$DCB.TYC.CGKEYV IN PROCEDURE DB_CHECK_IFAD_CONTROL
      9808**DCL
F$DCB.TYC.CGLWRV IN PROCEDURE DB_CHECK_IFAD_CONTROL
      9808**DCL
F$DCB.TYC.DACT# IN PROCEDURE DB_CHECK_IFAD_CONTROL
      9807**DCL
F$DCB.TYC.DI# IN PROCEDURE DB_CHECK_IFAD_CONTROL
      9807**DCL
F$DCB.TYC.EGV# IN PROCEDURE DB_CHECK_IFAD_CONTROL
      9806**DCL
F$DCB.TYC.EOD# IN PROCEDURE DB_CHECK_IFAD_CONTROL
      9807**DCL
F$DCB.TYC.EOF# IN PROCEDURE DB_CHECK_IFAD_CONTROL
      9807**DCL
F$DCB.TYC.EOT# IN PROCEDURE DB_CHECK_IFAD_CONTROL
      9806**DCL
F$DCB.TYC.FRAW# IN PROCEDURE DB_CHECK_IFAD_CONTROL
      9808**DCL
F$DCB.TYC.IOERR# IN PROCEDURE DB_CHECK_IFAD_CONTROL
      9807**DCL
PL6.E3A0      #001=TOU$DEBLOCKER File=TOU$DEBLOCKER.:E05TSI                      WED 07/30/97 06:40 Page:116
F$DCB.TYC.LAST# IN PROCEDURE DB_CHECK_IFAD_CONTROL
      9808**DCL
F$DCB.TYC.LD# IN PROCEDURE DB_CHECK_IFAD_CONTROL
      9807**DCL
F$DCB.TYC.LDISC# IN PROCEDURE DB_CHECK_IFAD_CONTROL
      9807**DCL
F$DCB.TYC.MTRAP# IN PROCEDURE DB_CHECK_IFAD_CONTROL
      9807**DCL
F$DCB.TYC.OPER# IN PROCEDURE DB_CHECK_IFAD_CONTROL
      9806**DCL
F$DCB.TYC.PROT# IN PROCEDURE DB_CHECK_IFAD_CONTROL
      9808**DCL
F$DCB.TYC.TIMO# IN PROCEDURE DB_CHECK_IFAD_CONTROL
      9808**DCL
F$DCB.TYC.XTRARD IN PROCEDURE DB_CHECK_IFAD_CONTROL
      9808**DCL
F$DCB.TYPE# IN PROCEDURE DB_CHECK_IFAD_CONTROL
      9817**DCL
F$DCB.UB$ IN PROCEDURE DB_CHECK_IFAD_CONTROL
      9845**DCL
F$DCB.UBYTES IN PROCEDURE DB_CHECK_IFAD_CONTROL
      9845**DCL
F$DCB.UCOUT IN PROCEDURE DB_CHECK_IFAD_CONTROL
      9842**DCL
F$DCB.UNIQUEBLD IN PROCEDURE DB_CHECK_IFAD_CONTROL
      9849**DCL
F$DCB.UOPT# IN PROCEDURE DB_CHECK_IFAD_CONTROL
      9819**DCL
F$DCB.UPDCNT IN PROCEDURE DB_CHECK_IFAD_CONTROL
      9849**DCL
F$DCB.VFCCHAR# IN PROCEDURE DB_CHECK_IFAD_CONTROL
      9831**DCL
F$DCB.VOL# IN PROCEDURE DB_CHECK_IFAD_CONTROL
      9827**DCL
F$DCB.VOLACCESS# IN PROCEDURE DB_CHECK_IFAD_CONTROL
      9819**DCL
PL6.E3A0      #001=TOU$DEBLOCKER File=TOU$DEBLOCKER.:E05TSI                      WED 07/30/97 06:40 Page:117
F$DCB.WAIT IN PROCEDURE DB_CHECK_IFAD_CONTROL
      9839**DCL
F$DCB.WCDATA IN PROCEDURE DB_CHECK_IFAD_CONTROL
      9842**DCL
F$DCB.WIDTH# IN PROCEDURE DB_CHECK_IFAD_CONTROL
      9813**DCL
F$DCB.WRCMP IN PROCEDURE DB_CHECK_IFAD_CONTROL
      9842**DCL
F$DCB.WSR# IN PROCEDURE DB_CHECK_IFAD_CONTROL
      9824**DCL
F$DCB.XTEND# IN PROCEDURE DB_CHECK_IFAD_CONTROL
      9820**DCL
F$DCB.XTNSIZE# IN PROCEDURE DB_CHECK_IFAD_CONTROL
      9824**DCL
F$DCB IN PROCEDURE DB_READ_MCA_DATA
     10095**DCL
F$DCB.ACCT# IN PROCEDURE DB_READ_MCA_DATA
     10111**DCL
F$DCB.ACS# IN PROCEDURE DB_READ_MCA_DATA
     10119**DCL
F$DCB.AFTRBLK IN PROCEDURE DB_READ_MCA_DATA
     10135**DCL
F$DCB.AGE IN PROCEDURE DB_READ_MCA_DATA
     10146**DCL
F$DCB.ALTKEYX IN PROCEDURE DB_READ_MCA_DATA
     10126**DCL
F$DCB.AMFLG IN PROCEDURE DB_READ_MCA_DATA
     10132**DCL
F$DCB.AMFLG.ACCF IN PROCEDURE DB_READ_MCA_DATA
     10132**DCL
F$DCB.AMFLG.ACSF IN PROCEDURE DB_READ_MCA_DATA
     10132**DCL
F$DCB.AMFLG.INSF IN PROCEDURE DB_READ_MCA_DATA
     10132**DCL
F$DCB.AMFLG.PROF IN PROCEDURE DB_READ_MCA_DATA
     10132**DCL
PL6.E3A0      #001=TOU$DEBLOCKER File=TOU$DEBLOCKER.:E05TSI                      WED 07/30/97 06:40 Page:118
F$DCB.AMFLG.SNLF IN PROCEDURE DB_READ_MCA_DATA
     10132**DCL
F$DCB.AMFLG.USRF IN PROCEDURE DB_READ_MCA_DATA
     10132**DCL
F$DCB.AMR# IN PROCEDURE DB_READ_MCA_DATA
     10114**DCL
F$DCB.AMRSETSTA IN PROCEDURE DB_READ_MCA_DATA
     10113**DCL
F$DCB.ANSISPANSEQ# IN PROCEDURE DB_READ_MCA_DATA
     10129**DCL
F$DCB.ASN# IN PROCEDURE DB_READ_MCA_DATA
     10116**DCL
F$DCB.ATTR.APL# IN PROCEDURE DB_READ_MCA_DATA
     10121**DCL
F$DCB.ATTR.BIN# IN PROCEDURE DB_READ_MCA_DATA
     10121**DCL
F$DCB.ATTR.DENS# IN PROCEDURE DB_READ_MCA_DATA
     10120**DCL
F$DCB.ATTR.GRLGL# IN PROCEDURE DB_READ_MCA_DATA
     10120**DCL
F$DCB.ATTR.LOWERCASE# IN PROCEDURE DB_READ_MCA_DATA
     10121**DCL
F$DCB.ATTR.NATL# IN PROCEDURE DB_READ_MCA_DATA
     10120**DCL
F$DCB.ATTR.NOXLATE# IN PROCEDURE DB_READ_MCA_DATA
     10120**DCL
F$DCB.ATTR.TRANSLGL# IN PROCEDURE DB_READ_MCA_DATA
     10120**DCL
F$DCB.ATTR.TRUOVRPRT# IN PROCEDURE DB_READ_MCA_DATA
     10120**DCL
F$DCB.ATTR.UPPERCASE# IN PROCEDURE DB_READ_MCA_DATA
     10120**DCL
F$DCB.AU# IN PROCEDURE DB_READ_MCA_DATA
     10113**DCL
F$DCB.AUTHFFLG IN PROCEDURE DB_READ_MCA_DATA
     10127**DCL
PL6.E3A0      #001=TOU$DEBLOCKER File=TOU$DEBLOCKER.:E05TSI                      WED 07/30/97 06:40 Page:119
F$DCB.AUTHFFLG.AU# IN PROCEDURE DB_READ_MCA_DATA
     10129**DCL
F$DCB.AUTHFFLG.AURD# IN PROCEDURE DB_READ_MCA_DATA
     10129**DCL
F$DCB.AUTHFFLG.CREATE# IN PROCEDURE DB_READ_MCA_DATA
     10129**DCL
F$DCB.AUTHFFLG.DELF# IN PROCEDURE DB_READ_MCA_DATA
     10128**DCL
F$DCB.AUTHFFLG.DELR# IN PROCEDURE DB_READ_MCA_DATA
     10128**DCL
F$DCB.AUTHFFLG.EXEC# IN PROCEDURE DB_READ_MCA_DATA
     10128**DCL
F$DCB.AUTHFFLG.NOLIST# IN PROCEDURE DB_READ_MCA_DATA
     10128**DCL
F$DCB.AUTHFFLG.READ# IN PROCEDURE DB_READ_MCA_DATA
     10128**DCL
F$DCB.AUTHFFLG.REATTR# IN PROCEDURE DB_READ_MCA_DATA
     10128**DCL
F$DCB.AUTHFFLG.TCTL# IN PROCEDURE DB_READ_MCA_DATA
     10129**DCL
F$DCB.AUTHFFLG.UPD# IN PROCEDURE DB_READ_MCA_DATA
     10128**DCL
F$DCB.AUTHFFLG.WNEW# IN PROCEDURE DB_READ_MCA_DATA
     10128**DCL
F$DCB.BADARS# IN PROCEDURE DB_READ_MCA_DATA
     10130**DCL
F$DCB.BFR IN PROCEDURE DB_READ_MCA_DATA
     10146**DCL
F$DCB.BFR.BUFUP IN PROCEDURE DB_READ_MCA_DATA
     10147**DCL
F$DCB.BFR.BUFX IN PROCEDURE DB_READ_MCA_DATA
     10147**DCL
F$DCB.BFR.CHNG IN PROCEDURE DB_READ_MCA_DATA
     10147**DCL
F$DCB.BFR.CVM IN PROCEDURE DB_READ_MCA_DATA
     10147**DCL
PL6.E3A0      #001=TOU$DEBLOCKER File=TOU$DEBLOCKER.:E05TSI                      WED 07/30/97 06:40 Page:120
F$DCB.BFR.DA IN PROCEDURE DB_READ_MCA_DATA
     10147**DCL
F$DCB.BFR.SCRUB IN PROCEDURE DB_READ_MCA_DATA
     10147**DCL
F$DCB.BFR1 IN PROCEDURE DB_READ_MCA_DATA
     10147**DCL
F$DCB.BFR1.CX IN PROCEDURE DB_READ_MCA_DATA
     10148**DCL
F$DCB.BFR1.FLAGS IN PROCEDURE DB_READ_MCA_DATA
     10147**DCL
F$DCB.BFR1.FLAGS.ONE_WORD_HEADER IN PROCEDURE DB_READ_MCA_DATA
     10147**DCL
F$DCB.BFR1.SIZ IN PROCEDURE DB_READ_MCA_DATA
     10148**DCL
F$DCB.BLKL# IN PROCEDURE DB_READ_MCA_DATA
     10117**DCL
F$DCB.BLKLEN IN PROCEDURE DB_READ_MCA_DATA
     10140**DCL
F$DCB.BLOCKED# IN PROCEDURE DB_READ_MCA_DATA
     10115**DCL
F$DCB.BOL# IN PROCEDURE DB_READ_MCA_DATA
     10118**DCL
F$DCB.BUPF IN PROCEDURE DB_READ_MCA_DATA
     10105**DCL
F$DCB.BUPM# IN PROCEDURE DB_READ_MCA_DATA
     10116**DCL
F$DCB.BYTESLEFT IN PROCEDURE DB_READ_MCA_DATA
     10139**DCL
F$DCB.CACHE IN PROCEDURE DB_READ_MCA_DATA
     10134**DCL
F$DCB.CBUFNUM IN PROCEDURE DB_READ_MCA_DATA
     10138**DCL
F$DCB.CFU$ IN PROCEDURE DB_READ_MCA_DATA
     10136**DCL
F$DCB.CHAIN# IN PROCEDURE DB_READ_MCA_DATA
     10122**DCL
PL6.E3A0      #001=TOU$DEBLOCKER File=TOU$DEBLOCKER.:E05TSI                      WED 07/30/97 06:40 Page:121
F$DCB.CHANTIME# IN PROCEDURE DB_READ_MCA_DATA
     10122**DCL
F$DCB.CNVRT# IN PROCEDURE DB_READ_MCA_DATA
     10114**DCL
F$DCB.CODE16$ IN PROCEDURE DB_READ_MCA_DATA
     10126**DCL
F$DCB.COMP# IN PROCEDURE DB_READ_MCA_DATA
     10115**DCL
F$DCB.CONNCT# IN PROCEDURE DB_READ_MCA_DATA
     10121**DCL
F$DCB.CONT IN PROCEDURE DB_READ_MCA_DATA
     10134**DCL
F$DCB.CRECNO IN PROCEDURE DB_READ_MCA_DATA
     10139**DCL
F$DCB.CRECX IN PROCEDURE DB_READ_MCA_DATA
     10138**DCL
F$DCB.CSEED IN PROCEDURE DB_READ_MCA_DATA
     10139**DCL
F$DCB.CTG# IN PROCEDURE DB_READ_MCA_DATA
     10115**DCL
F$DCB.CTLCMDIN IN PROCEDURE DB_READ_MCA_DATA
     10143**DCL
F$DCB.CVOL# IN PROCEDURE DB_READ_MCA_DATA
     10115**DCL
F$DCB.CWORD IN PROCEDURE DB_READ_MCA_DATA
     10144**DCL
F$DCB.CX IN PROCEDURE DB_READ_MCA_DATA
     10144**DCL
F$DCB.DBGDCBNO# IN PROCEDURE DB_READ_MCA_DATA
     10117**DCL
F$DCB.DBGSYSID# IN PROCEDURE DB_READ_MCA_DATA
     10117**DCL
F$DCB.DCB# IN PROCEDURE DB_READ_MCA_DATA
     10129**DCL
F$DCB.DCBNAME IN PROCEDURE DB_READ_MCA_DATA
     10148**DCL
PL6.E3A0      #001=TOU$DEBLOCKER File=TOU$DEBLOCKER.:E05TSI                      WED 07/30/97 06:40 Page:122
F$DCB.DCBNAME.N IN PROCEDURE DB_READ_MCA_DATA
     10149**DCL
F$DCB.DCBNAME.S IN PROCEDURE DB_READ_MCA_DATA
     10149**DCL
F$DCB.DCBNAME.X IN PROCEDURE DB_READ_MCA_DATA
     10149**DCL
F$DCB.DCT$ IN PROCEDURE DB_READ_MCA_DATA
     10124**DCL
F$DCB.DDEV IN PROCEDURE DB_READ_MCA_DATA
     10107**DCL
F$DCB.DDEV.CP# IN PROCEDURE DB_READ_MCA_DATA
     10107**DCL
F$DCB.DDEV.GR# IN PROCEDURE DB_READ_MCA_DATA
     10108**DCL
F$DCB.DDEV.IC# IN PROCEDURE DB_READ_MCA_DATA
     10107**DCL
F$DCB.DDEV.LP# IN PROCEDURE DB_READ_MCA_DATA
     10107**DCL
F$DCB.DDEV.UCOUT# IN PROCEDURE DB_READ_MCA_DATA
     10108**DCL
F$DCB.DDEV.XEQ# IN PROCEDURE DB_READ_MCA_DATA
     10108**DCL
F$DCB.DECRYPT IN PROCEDURE DB_READ_MCA_DATA
     10142**DCL
F$DCB.DENSITY# IN PROCEDURE DB_READ_MCA_DATA
     10122**DCL
F$DCB.DESC IN PROCEDURE DB_READ_MCA_DATA
     10108**DCL
F$DCB.DESC.ACTIVE# IN PROCEDURE DB_READ_MCA_DATA
     10110**DCL
F$DCB.DESC.ARCHIVE# IN PROCEDURE DB_READ_MCA_DATA
     10109**DCL
F$DCB.DESC.BAD# IN PROCEDURE DB_READ_MCA_DATA
     10109**DCL
F$DCB.DESC.BUF# IN PROCEDURE DB_READ_MCA_DATA
     10109**DCL
PL6.E3A0      #001=TOU$DEBLOCKER File=TOU$DEBLOCKER.:E05TSI                      WED 07/30/97 06:40 Page:123
F$DCB.DESC.BUPM# IN PROCEDURE DB_READ_MCA_DATA
     10109**DCL
F$DCB.DESC.DELF# IN PROCEDURE DB_READ_MCA_DATA
     10108**DCL
F$DCB.DESC.FETCH# IN PROCEDURE DB_READ_MCA_DATA
     10110**DCL
F$DCB.DESC.NBUF# IN PROCEDURE DB_READ_MCA_DATA
     10109**DCL
F$DCB.DESC.NOLIST# IN PROCEDURE DB_READ_MCA_DATA
     10109**DCL
F$DCB.DESC.ODSTOW# IN PROCEDURE DB_READ_MCA_DATA
     10109**DCL
F$DCB.DESC.QS# IN PROCEDURE DB_READ_MCA_DATA
     10109**DCL
F$DCB.DESC.TERMINATE# IN PROCEDURE DB_READ_MCA_DATA
     10110**DCL
F$DCB.DESC.TPB# IN PROCEDURE DB_READ_MCA_DATA
     10110**DCL
F$DCB.DEVADR IN PROCEDURE DB_READ_MCA_DATA
     10124**DCL
F$DCB.DEVADR.CHAN# IN PROCEDURE DB_READ_MCA_DATA
     10125**DCL
F$DCB.DEVADR.DVN# IN PROCEDURE DB_READ_MCA_DATA
     10125**DCL
F$DCB.DEVADR.IOM# IN PROCEDURE DB_READ_MCA_DATA
     10125**DCL
F$DCB.DISP# IN PROCEDURE DB_READ_MCA_DATA
     10116**DCL
F$DCB.DQH$ IN PROCEDURE DB_READ_MCA_DATA
     10123**DCL
F$DCB.DVBYTE IN PROCEDURE DB_READ_MCA_DATA
     10104**DCL
F$DCB.DVBYTE.BIN# IN PROCEDURE DB_READ_MCA_DATA
     10104**DCL
F$DCB.DVBYTE.TOP# IN PROCEDURE DB_READ_MCA_DATA
     10104**DCL
PL6.E3A0      #001=TOU$DEBLOCKER File=TOU$DEBLOCKER.:E05TSI                      WED 07/30/97 06:40 Page:124
F$DCB.DVBYTE.TRANS# IN PROCEDURE DB_READ_MCA_DATA
     10104**DCL
F$DCB.DVBYTE.VFC# IN PROCEDURE DB_READ_MCA_DATA
     10104**DCL
F$DCB.DVFC# IN PROCEDURE DB_READ_MCA_DATA
     10123**DCL
F$DCB.DVTYPE# IN PROCEDURE DB_READ_MCA_DATA
     10116**DCL
F$DCB.EBCDIC# IN PROCEDURE DB_READ_MCA_DATA
     10114**DCL
F$DCB.ENQF IN PROCEDURE DB_READ_MCA_DATA
     10134**DCL
F$DCB.EOMVAL# IN PROCEDURE DB_READ_MCA_DATA
     10105**DCL
F$DCB.EOMVAL#.VALUE# IN PROCEDURE DB_READ_MCA_DATA
     10106**DCL
F$DCB.EOMVAL#.VFLG# IN PROCEDURE DB_READ_MCA_DATA
     10105**DCL
F$DCB.EOP IN PROCEDURE DB_READ_MCA_DATA
     10131**DCL
F$DCB.EVENT IN PROCEDURE DB_READ_MCA_DATA
     10126**DCL
F$DCB.EXIST# IN PROCEDURE DB_READ_MCA_DATA
     10115**DCL
F$DCB.EXPIRE# IN PROCEDURE DB_READ_MCA_DATA
     10118**DCL
F$DCB.FCD# IN PROCEDURE DB_READ_MCA_DATA
     10114**DCL
F$DCB.FCI# IN PROCEDURE DB_READ_MCA_DATA
     10114**DCL
F$DCB.FCN IN PROCEDURE DB_READ_MCA_DATA
     10140**DCL
F$DCB.FCN.CNT IN PROCEDURE DB_READ_MCA_DATA
     10140**DCL
F$DCB.FCN.F IN PROCEDURE DB_READ_MCA_DATA
     10140**DCL
PL6.E3A0      #001=TOU$DEBLOCKER File=TOU$DEBLOCKER.:E05TSI                      WED 07/30/97 06:40 Page:125
F$DCB.FDCM IN PROCEDURE DB_READ_MCA_DATA
     10139**DCL
F$DCB.FEPIO IN PROCEDURE DB_READ_MCA_DATA
     10146**DCL
F$DCB.FEPIO.BPP IN PROCEDURE DB_READ_MCA_DATA
     10146**DCL
F$DCB.FEPIO.BUFX IN PROCEDURE DB_READ_MCA_DATA
     10146**DCL
F$DCB.FEPIO.EVENT IN PROCEDURE DB_READ_MCA_DATA
     10146**DCL
F$DCB.FEPIO.KEYX IN PROCEDURE DB_READ_MCA_DATA
     10146**DCL
F$DCB.FEPIO.KPP IN PROCEDURE DB_READ_MCA_DATA
     10146**DCL
F$DCB.FEPIO2 IN PROCEDURE DB_READ_MCA_DATA
     10148**DCL
F$DCB.FEPIO3 IN PROCEDURE DB_READ_MCA_DATA
     10148**DCL
F$DCB.FEPSIZ IN PROCEDURE DB_READ_MCA_DATA
     10145**DCL
F$DCB.FEPSIZ.BUF IN PROCEDURE DB_READ_MCA_DATA
     10145**DCL
F$DCB.FEPSIZ.KEY IN PROCEDURE DB_READ_MCA_DATA
     10145**DCL
F$DCB.FEXT IN PROCEDURE DB_READ_MCA_DATA
     10131**DCL
F$DCB.FEXTX IN PROCEDURE DB_READ_MCA_DATA
     10118**DCL
F$DCB.FFLG IN PROCEDURE DB_READ_MCA_DATA
     10106**DCL
F$DCB.FFLG.AU# IN PROCEDURE DB_READ_MCA_DATA
     10107**DCL
F$DCB.FFLG.AURD# IN PROCEDURE DB_READ_MCA_DATA
     10107**DCL
F$DCB.FFLG.CREATE# IN PROCEDURE DB_READ_MCA_DATA
     10107**DCL
PL6.E3A0      #001=TOU$DEBLOCKER File=TOU$DEBLOCKER.:E05TSI                      WED 07/30/97 06:40 Page:126
F$DCB.FFLG.DELF# IN PROCEDURE DB_READ_MCA_DATA
     10106**DCL
F$DCB.FFLG.DELR# IN PROCEDURE DB_READ_MCA_DATA
     10106**DCL
F$DCB.FFLG.EXEC# IN PROCEDURE DB_READ_MCA_DATA
     10107**DCL
F$DCB.FFLG.NOLIST# IN PROCEDURE DB_READ_MCA_DATA
     10106**DCL
F$DCB.FFLG.READ# IN PROCEDURE DB_READ_MCA_DATA
     10106**DCL
F$DCB.FFLG.REATTR# IN PROCEDURE DB_READ_MCA_DATA
     10106**DCL
F$DCB.FFLG.TCTL# IN PROCEDURE DB_READ_MCA_DATA
     10107**DCL
F$DCB.FFLG.UPD# IN PROCEDURE DB_READ_MCA_DATA
     10106**DCL
F$DCB.FFLG.WNEW# IN PROCEDURE DB_READ_MCA_DATA
     10106**DCL
F$DCB.FIELDX IN PROCEDURE DB_READ_MCA_DATA
     10126**DCL
F$DCB.FLPW# IN PROCEDURE DB_READ_MCA_DATA
     10101**DCL
F$DCB.FMOD IN PROCEDURE DB_READ_MCA_DATA
     10131**DCL
F$DCB.FPRGX IN PROCEDURE DB_READ_MCA_DATA
     10126**DCL
F$DCB.FPSTR IN PROCEDURE DB_READ_MCA_DATA
     10141**DCL
F$DCB.FTAM IN PROCEDURE DB_READ_MCA_DATA
     10135**DCL
F$DCB.FTAM.CTX IN PROCEDURE DB_READ_MCA_DATA
     10136**DCL
F$DCB.FTAM.PMME IN PROCEDURE DB_READ_MCA_DATA
     10136**DCL
F$DCB.FTAM.USR IN PROCEDURE DB_READ_MCA_DATA
     10136**DCL
PL6.E3A0      #001=TOU$DEBLOCKER File=TOU$DEBLOCKER.:E05TSI                      WED 07/30/97 06:40 Page:127
F$DCB.FUN# IN PROCEDURE DB_READ_MCA_DATA
     10116**DCL
F$DCB.GDISP IN PROCEDURE DB_READ_MCA_DATA
     10142**DCL
F$DCB.GHSTACS# IN PROCEDURE DB_READ_MCA_DATA
     10125**DCL
F$DCB.GRPOS IN PROCEDURE DB_READ_MCA_DATA
     10134**DCL
F$DCB.GTYP IN PROCEDURE DB_READ_MCA_DATA
     10131**DCL
F$DCB.HASH IN PROCEDURE DB_READ_MCA_DATA
     10139**DCL
F$DCB.IASN IN PROCEDURE DB_READ_MCA_DATA
     10144**DCL
F$DCB.ID IN PROCEDURE DB_READ_MCA_DATA
     10145**DCL
F$DCB.ID.DA IN PROCEDURE DB_READ_MCA_DATA
     10145**DCL
F$DCB.ID.GX IN PROCEDURE DB_READ_MCA_DATA
     10145**DCL
F$DCB.IFMT IN PROCEDURE DB_READ_MCA_DATA
     10143**DCL
F$DCB.IGNOREFSN# IN PROCEDURE DB_READ_MCA_DATA
     10113**DCL
F$DCB.INDX IN PROCEDURE DB_READ_MCA_DATA
     10140**DCL
F$DCB.IOERROK# IN PROCEDURE DB_READ_MCA_DATA
     10113**DCL
F$DCB.IORG IN PROCEDURE DB_READ_MCA_DATA
     10138**DCL
F$DCB.IRRECX IN PROCEDURE DB_READ_MCA_DATA
     10130**DCL
F$DCB.IWL IN PROCEDURE DB_READ_MCA_DATA
     10143**DCL
F$DCB.IWL.HDRIWL IN PROCEDURE DB_READ_MCA_DATA
     10143**DCL
PL6.E3A0      #001=TOU$DEBLOCKER File=TOU$DEBLOCKER.:E05TSI                      WED 07/30/97 06:40 Page:128
F$DCB.IWL.SEQIWL IN PROCEDURE DB_READ_MCA_DATA
     10143**DCL
F$DCB.IWL.TABIWL IN PROCEDURE DB_READ_MCA_DATA
     10143**DCL
F$DCB.JRNLBYPASS# IN PROCEDURE DB_READ_MCA_DATA
     10125**DCL
F$DCB.KEYL# IN PROCEDURE DB_READ_MCA_DATA
     10118**DCL
F$DCB.KEYTYPE# IN PROCEDURE DB_READ_MCA_DATA
     10127**DCL
F$DCB.KEYX# IN PROCEDURE DB_READ_MCA_DATA
     10118**DCL
F$DCB.KFIELDX IN PROCEDURE DB_READ_MCA_DATA
     10127**DCL
F$DCB.LASTKEY IN PROCEDURE DB_READ_MCA_DATA
     10135**DCL
F$DCB.LASTKEY$ IN PROCEDURE DB_READ_MCA_DATA
     10135**DCL
F$DCB.LDCTX IN PROCEDURE DB_READ_MCA_DATA
     10124**DCL
F$DCB.LDFLG IN PROCEDURE DB_READ_MCA_DATA
     10133**DCL
F$DCB.LINES# IN PROCEDURE DB_READ_MCA_DATA
     10123**DCL
F$DCB.LOAD# IN PROCEDURE DB_READ_MCA_DATA
     10113**DCL
F$DCB.LOGSEC IN PROCEDURE DB_READ_MCA_DATA
     10142**DCL
F$DCB.LPOOL IN PROCEDURE DB_READ_MCA_DATA
     10136**DCL
F$DCB.LRDL0# IN PROCEDURE DB_READ_MCA_DATA
     10119**DCL
F$DCB.LSLIDE# IN PROCEDURE DB_READ_MCA_DATA
     10119**DCL
F$DCB.LSTAOR# IN PROCEDURE DB_READ_MCA_DATA
     10113**DCL
PL6.E3A0      #001=TOU$DEBLOCKER File=TOU$DEBLOCKER.:E05TSI                      WED 07/30/97 06:40 Page:129
F$DCB.LSTBLK IN PROCEDURE DB_READ_MCA_DATA
     10135**DCL
F$DCB.MAXVOL# IN PROCEDURE DB_READ_MCA_DATA
     10122**DCL
F$DCB.MEDIA IN PROCEDURE DB_READ_MCA_DATA
     10143**DCL
F$DCB.MODCNT IN PROCEDURE DB_READ_MCA_DATA
     10141**DCL
F$DCB.MOUNT IN PROCEDURE DB_READ_MCA_DATA
     10133**DCL
F$DCB.MOVED IN PROCEDURE DB_READ_MCA_DATA
     10144**DCL
F$DCB.MPC$ IN PROCEDURE DB_READ_MCA_DATA
     10124**DCL
F$DCB.MUST_CVOL IN PROCEDURE DB_READ_MCA_DATA
     10132**DCL
F$DCB.NAME# IN PROCEDURE DB_READ_MCA_DATA
     10111**DCL
F$DCB.NAME#.C17 IN PROCEDURE DB_READ_MCA_DATA
     10111**DCL
F$DCB.NAME#.C17.CC IN PROCEDURE DB_READ_MCA_DATA
     10111**DCL
F$DCB.NAME#.L IN PROCEDURE DB_READ_MCA_DATA
     10111**DCL
F$DCB.NEW_FSECT IN PROCEDURE DB_READ_MCA_DATA
     10133**DCL
F$DCB.OLDIOERR IN PROCEDURE DB_READ_MCA_DATA
     10142**DCL
F$DCB.OWNER IN PROCEDURE DB_READ_MCA_DATA
     10133**DCL
F$DCB.PASS# IN PROCEDURE DB_READ_MCA_DATA
     10111**DCL
F$DCB.PASSF# IN PROCEDURE DB_READ_MCA_DATA
     10114**DCL
F$DCB.PATH IN PROCEDURE DB_READ_MCA_DATA
     10130**DCL
PL6.E3A0      #001=TOU$DEBLOCKER File=TOU$DEBLOCKER.:E05TSI                      WED 07/30/97 06:40 Page:130
F$DCB.PATH.CHAN# IN PROCEDURE DB_READ_MCA_DATA
     10130**DCL
F$DCB.PATH.IOM# IN PROCEDURE DB_READ_MCA_DATA
     10130**DCL
F$DCB.PGINGRAN IN PROCEDURE DB_READ_MCA_DATA
     10142**DCL
F$DCB.PRIVOPN IN PROCEDURE DB_READ_MCA_DATA
     10142**DCL
F$DCB.PSN# IN PROCEDURE DB_READ_MCA_DATA
     10111**DCL
F$DCB.QISS# IN PROCEDURE DB_READ_MCA_DATA
     10113**DCL
F$DCB.RA IN PROCEDURE DB_READ_MCA_DATA
     10134**DCL
F$DCB.RDL0# IN PROCEDURE DB_READ_MCA_DATA
     10105**DCL
F$DCB.REALSPAN IN PROCEDURE DB_READ_MCA_DATA
     10142**DCL
F$DCB.RECL# IN PROCEDURE DB_READ_MCA_DATA
     10117**DCL
F$DCB.RESNT IN PROCEDURE DB_READ_MCA_DATA
     10112**DCL
F$DCB.RESNT.NUM IN PROCEDURE DB_READ_MCA_DATA
     10112**DCL
F$DCB.RESNT.TYP IN PROCEDURE DB_READ_MCA_DATA
     10112**DCL
F$DCB.RETRYCNT# IN PROCEDURE DB_READ_MCA_DATA
     10108**DCL
F$DCB.RPOS IN PROCEDURE DB_READ_MCA_DATA
     10134**DCL
F$DCB.SEED# IN PROCEDURE DB_READ_MCA_DATA
     10131**DCL
F$DCB.SEGX IN PROCEDURE DB_READ_MCA_DATA
     10141**DCL
F$DCB.SEQ# IN PROCEDURE DB_READ_MCA_DATA
     10123**DCL
PL6.E3A0      #001=TOU$DEBLOCKER File=TOU$DEBLOCKER.:E05TSI                      WED 07/30/97 06:40 Page:131
F$DCB.SEQCOL# IN PROCEDURE DB_READ_MCA_DATA
     10123**DCL
F$DCB.SEQID# IN PROCEDURE DB_READ_MCA_DATA
     10123**DCL
F$DCB.SETSTA$ IN PROCEDURE DB_READ_MCA_DATA
     10110**DCL
F$DCB.SEZ_OK IN PROCEDURE DB_READ_MCA_DATA
     10132**DCL
F$DCB.SHARE# IN PROCEDURE DB_READ_MCA_DATA
     10115**DCL
F$DCB.SHARED IN PROCEDURE DB_READ_MCA_DATA
     10131**DCL
F$DCB.SLIDE# IN PROCEDURE DB_READ_MCA_DATA
     10105**DCL
F$DCB.SPAN IN PROCEDURE DB_READ_MCA_DATA
     10133**DCL
F$DCB.SPANNED# IN PROCEDURE DB_READ_MCA_DATA
     10115**DCL
F$DCB.SPARE# IN PROCEDURE DB_READ_MCA_DATA
     10119**DCL
F$DCB.STARF IN PROCEDURE DB_READ_MCA_DATA
     10131**DCL
F$DCB.STARTX IN PROCEDURE DB_READ_MCA_DATA
     10127**DCL
F$DCB.STARX IN PROCEDURE DB_READ_MCA_DATA
     10134**DCL
F$DCB.STR# IN PROCEDURE DB_READ_MCA_DATA
     10141**DCL
F$DCB.SYSID# IN PROCEDURE DB_READ_MCA_DATA
     10118**DCL
F$DCB.TAPTYP IN PROCEDURE DB_READ_MCA_DATA
     10137**DCL
F$DCB.TAPTYP.CP6F IN PROCEDURE DB_READ_MCA_DATA
     10137**DCL
F$DCB.TAPTYP.HAVLASTKEY IN PROCEDURE DB_READ_MCA_DATA
     10137**DCL
PL6.E3A0      #001=TOU$DEBLOCKER File=TOU$DEBLOCKER.:E05TSI                      WED 07/30/97 06:40 Page:132
F$DCB.TAPTYP.MANAGED IN PROCEDURE DB_READ_MCA_DATA
     10138**DCL
F$DCB.TAPTYP.NOCVOL IN PROCEDURE DB_READ_MCA_DATA
     10138**DCL
F$DCB.TAPTYP.PASTFM IN PROCEDURE DB_READ_MCA_DATA
     10138**DCL
F$DCB.TAPTYP.RWASC IN PROCEDURE DB_READ_MCA_DATA
     10137**DCL
F$DCB.TAPTYP.USRBUF IN PROCEDURE DB_READ_MCA_DATA
     10137**DCL
F$DCB.TDALVL IN PROCEDURE DB_READ_MCA_DATA
     10136**DCL
F$DCB.TDEXTST$ IN PROCEDURE DB_READ_MCA_DATA
     10110**DCL
F$DCB.TDFLG IN PROCEDURE DB_READ_MCA_DATA
     10121**DCL
F$DCB.TDFLG.SDSK# IN PROCEDURE DB_READ_MCA_DATA
     10121**DCL
F$DCB.TRNC IN PROCEDURE DB_READ_MCA_DATA
     10134**DCL
F$DCB.TYC IN PROCEDURE DB_READ_MCA_DATA
     10101**DCL
F$DCB.TYC.BLNKTP# IN PROCEDURE DB_READ_MCA_DATA
     10101**DCL
F$DCB.TYC.BOF# IN PROCEDURE DB_READ_MCA_DATA
     10101**DCL
F$DCB.TYC.BOT# IN PROCEDURE DB_READ_MCA_DATA
     10101**DCL
F$DCB.TYC.CDALRT# IN PROCEDURE DB_READ_MCA_DATA
     10103**DCL
F$DCB.TYC.CGCRCW IN PROCEDURE DB_READ_MCA_DATA
     10104**DCL
F$DCB.TYC.CGCWRV IN PROCEDURE DB_READ_MCA_DATA
     10104**DCL
F$DCB.TYC.CGFULL IN PROCEDURE DB_READ_MCA_DATA
     10103**DCL
PL6.E3A0      #001=TOU$DEBLOCKER File=TOU$DEBLOCKER.:E05TSI                      WED 07/30/97 06:40 Page:133
F$DCB.TYC.CGKEYV IN PROCEDURE DB_READ_MCA_DATA
     10103**DCL
F$DCB.TYC.CGLWRV IN PROCEDURE DB_READ_MCA_DATA
     10103**DCL
F$DCB.TYC.DACT# IN PROCEDURE DB_READ_MCA_DATA
     10102**DCL
F$DCB.TYC.DI# IN PROCEDURE DB_READ_MCA_DATA
     10102**DCL
F$DCB.TYC.EGV# IN PROCEDURE DB_READ_MCA_DATA
     10101**DCL
F$DCB.TYC.EOD# IN PROCEDURE DB_READ_MCA_DATA
     10102**DCL
F$DCB.TYC.EOF# IN PROCEDURE DB_READ_MCA_DATA
     10102**DCL
F$DCB.TYC.EOT# IN PROCEDURE DB_READ_MCA_DATA
     10101**DCL
F$DCB.TYC.FRAW# IN PROCEDURE DB_READ_MCA_DATA
     10103**DCL
F$DCB.TYC.IOERR# IN PROCEDURE DB_READ_MCA_DATA
     10102**DCL
F$DCB.TYC.LAST# IN PROCEDURE DB_READ_MCA_DATA
     10103**DCL
F$DCB.TYC.LD# IN PROCEDURE DB_READ_MCA_DATA
     10102**DCL
F$DCB.TYC.LDISC# IN PROCEDURE DB_READ_MCA_DATA
     10102**DCL
F$DCB.TYC.MTRAP# IN PROCEDURE DB_READ_MCA_DATA
     10102**DCL
F$DCB.TYC.OPER# IN PROCEDURE DB_READ_MCA_DATA
     10101**DCL
F$DCB.TYC.PROT# IN PROCEDURE DB_READ_MCA_DATA
     10103**DCL
F$DCB.TYC.TIMO# IN PROCEDURE DB_READ_MCA_DATA
     10103**DCL
F$DCB.TYC.XTRARD IN PROCEDURE DB_READ_MCA_DATA
     10103**DCL
PL6.E3A0      #001=TOU$DEBLOCKER File=TOU$DEBLOCKER.:E05TSI                      WED 07/30/97 06:40 Page:134
F$DCB.TYPE# IN PROCEDURE DB_READ_MCA_DATA
     10112**DCL
F$DCB.UB$ IN PROCEDURE DB_READ_MCA_DATA
     10140**DCL
F$DCB.UBYTES IN PROCEDURE DB_READ_MCA_DATA
     10140**DCL
F$DCB.UCOUT IN PROCEDURE DB_READ_MCA_DATA
     10137**DCL
F$DCB.UNIQUEBLD IN PROCEDURE DB_READ_MCA_DATA
     10144**DCL
F$DCB.UOPT# IN PROCEDURE DB_READ_MCA_DATA
     10114**DCL
F$DCB.UPDCNT IN PROCEDURE DB_READ_MCA_DATA
     10144**DCL
F$DCB.VFCCHAR# IN PROCEDURE DB_READ_MCA_DATA
     10126**DCL
F$DCB.VOL# IN PROCEDURE DB_READ_MCA_DATA
     10122**DCL
F$DCB.VOLACCESS# IN PROCEDURE DB_READ_MCA_DATA
     10114**DCL
F$DCB.WAIT IN PROCEDURE DB_READ_MCA_DATA
     10134**DCL
F$DCB.WCDATA IN PROCEDURE DB_READ_MCA_DATA
     10137**DCL
F$DCB.WIDTH# IN PROCEDURE DB_READ_MCA_DATA
     10108**DCL
F$DCB.WRCMP IN PROCEDURE DB_READ_MCA_DATA
     10137**DCL
F$DCB.WSR# IN PROCEDURE DB_READ_MCA_DATA
     10119**DCL
F$DCB.XTEND# IN PROCEDURE DB_READ_MCA_DATA
     10115**DCL
F$DCB.XTNSIZE# IN PROCEDURE DB_READ_MCA_DATA
     10119**DCL
M$ACCT
      6681**DCL-ENT
PL6.E3A0      #001=TOU$DEBLOCKER File=TOU$DEBLOCKER.:E05TSI                      WED 07/30/97 06:40 Page:135
M$ACTIVATE
      6684**DCL-ENT
M$ALIB
      6677**DCL-ENT
M$ASUSER
      6679**DCL-ENT
M$ATTACH
      6686**DCL-ENT
M$BADPP
      6704**DCL-ENT
M$CGCTL
      6685**DCL-ENT
M$CGINFO
      6685**DCL-ENT
M$CHECK
      6666**DCL-ENT
M$CHGUNIT
      6724**DCL-ENT
M$CLOSE
      6664**DCL-ENT
M$CLRSTK
      6722**DCL-ENT
M$CMDVAR
      6733**DCL-ENT
M$CONFIG
      6694**DCL-ENT
M$CORRES
      6669**DCL-ENT
M$CPEXIT
      6678**DCL-ENT
M$CVM
      6702**DCL-ENT
M$CVOL
      6667**DCL-ENT
M$DCLFLD
      6694**DCL-ENT
PL6.E3A0      #001=TOU$DEBLOCKER File=TOU$DEBLOCKER.:E05TSI                      WED 07/30/97 06:40 Page:136
M$DEACTIVATE
      6684**DCL-ENT
M$DELREC
      6666**DCL-ENT
M$DEQ
      6731**DCL-ENT
M$DETACH
      6686**DCL-ENT
M$DEVICE
      6668**DCL-ENT
M$DISPLAY
      6731**DCL-ENT
M$DISPRES
      6671**DCL-ENT
M$DLIB
      6677**DCL-ENT
M$DRIBBLE
      6694**DCL-ENT
M$DRTN
      6722**DCL-ENT
M$DSUSER
      6679**DCL-ENT
M$ENQ
      6730**DCL-ENT
M$EOM
      6689**DCL-ENT
M$ERASE
      6695**DCL-ENT
M$ERR
      6676**DCL-ENT
M$ERRMSG
      6727**DCL-ENT
M$EVENT
      6719**DCL-ENT
M$EXHUME
      6728**DCL-ENT
PL6.E3A0      #001=TOU$DEBLOCKER File=TOU$DEBLOCKER.:E05TSI                      WED 07/30/97 06:40 Page:137
M$EXIT
      6676**DCL-ENT
M$EXTEND
      6668**DCL-ENT
M$FDP
      6700**DCL-ENT
M$FDS
      6699**DCL-ENT
M$FEBOOT
      6692**DCL-ENT
M$FECTL
      6693**DCL-ENT
M$FEDUMP
      6692**DCL-ENT
M$FID
      6727**DCL-ENT
M$FINDPROC
      6681**DCL-ENT
M$FSUSER
      6679**DCL-ENT
M$FVP
      6701**DCL-ENT
M$FWCG
      6685**DCL-ENT
M$GBPL
      6705**DCL-ENT
M$GDDL
      6701**DCL-ENT
M$GDP
      6700**DCL-ENT
M$GDS
      6699**DCL-ENT
M$GETDCB
      6670**DCL-ENT
M$GETMOUSE
      6710**DCL-ENT
PL6.E3A0      #001=TOU$DEBLOCKER File=TOU$DEBLOCKER.:E05TSI                      WED 07/30/97 06:40 Page:138
M$GETPM
      6711**DCL-ENT
M$GJOB
      6729**DCL-ENT
M$GLINEATTR
      6689**DCL-ENT
M$GOODPP
      6704**DCL-ENT
M$GPLATEN
      6697**DCL-ENT
M$GPROMPT
      6696**DCL-ENT
M$GTRMATTR
      6690**DCL-ENT
M$GTRMCTL
      6688**DCL-ENT
M$GTRMTAB
      6691**DCL-ENT
M$GVP
      6700**DCL-ENT
M$HELP
      6727**DCL-ENT
M$INT
      6719**DCL-ENT
M$INTRTN
      6680**DCL-ENT
M$IOQ
      6715**DCL-ENT
M$JOBSTATS
      6729**DCL-ENT
M$KEYIN
      6669**DCL-ENT
M$LDEV
      6664**DCL-ENT
M$LDTRC
      6677**DCL-ENT
PL6.E3A0      #001=TOU$DEBLOCKER File=TOU$DEBLOCKER.:E05TSI                      WED 07/30/97 06:40 Page:139
M$LIMIT
      6670**DCL-ENT
M$LINES
      6669**DCL-ENT
M$LINK
      6676**DCL-ENT
M$MADMUCK
      6672**DCL-ENT
M$MAKUSER
      6703**DCL-ENT
M$MBS
      6671**DCL-ENT
M$MDFFLD
      6695**DCL-ENT
M$MERC
      6720**DCL-ENT
M$MERCS
      6721**DCL-ENT
M$MIRROR
      6715**DCL-ENT
M$MONINFO
      6732**DCL-ENT
M$MPL
      6705**DCL-ENT
M$NODEINFO
      6696**DCL-ENT
M$NXTUSR
      6730**DCL-ENT
M$OCMSG
      6728**DCL-ENT
M$OLAY
      6676**DCL-ENT
M$OPEN
      6664**DCL-ENT
M$PAS
      6705**DCL-ENT
PL6.E3A0      #001=TOU$DEBLOCKER File=TOU$DEBLOCKER.:E05TSI                      WED 07/30/97 06:40 Page:140
M$PATHCON
      6728**DCL-ENT
M$PDS
      6699**DCL-ENT
M$PFIL
      6666**DCL-ENT
M$PLATEN
      6690**DCL-ENT
M$PROCNAME
      6681**DCL-ENT
M$PROFILE
      6692**DCL-ENT
M$PROMPT
      6688**DCL-ENT
M$RACST
      6672**DCL-ENT
M$RDSYSLOG
      6713**DCL-ENT
M$RELDCB
      6670**DCL-ENT
M$RELRES
      6671**DCL-ENT
M$RELSTARF
      6673**DCL-ENT
M$REM
      6673**DCL-ENT
M$RENV
      6720**DCL-ENT
M$REQUIRE
      6672**DCL-ENT
M$RETRY
      6721**DCL-ENT
M$RETRYS
      6721**DCL-ENT
M$REW
      6667**DCL-ENT
PL6.E3A0      #001=TOU$DEBLOCKER File=TOU$DEBLOCKER.:E05TSI                      WED 07/30/97 06:40 Page:141
M$RLSFLD
      6695**DCL-ENT
M$RPRIV
      6723**DCL-ENT
M$RSPP
      6702**DCL-ENT
M$RSWITCH
      6724**DCL-ENT
M$RUE
      6730**DCL-ENT
M$SAD
      6703**DCL-ENT
M$SAVE
      6679**DCL-ENT
M$SCON
      6680**DCL-ENT
M$SCREECH
      6678**DCL-ENT
M$SENV
      6720**DCL-ENT
M$SETFMA
      6664**DCL-ENT
M$SETFP
      6693**DCL-ENT
M$SINPUT
      6691**DCL-ENT
M$SLCFLD
      6696**DCL-ENT
M$SMOUSE
      6710**DCL-ENT
M$SMPRT
      6702**DCL-ENT
M$SPRIV
      6723**DCL-ENT
M$SSC
      6703**DCL-ENT
PL6.E3A0      #001=TOU$DEBLOCKER File=TOU$DEBLOCKER.:E05TSI                      WED 07/30/97 06:40 Page:142
M$SSWITCH
      6723**DCL-ENT
M$STATE
      6732**DCL-ENT
M$STD
      6704**DCL-ENT
M$STIMER
      6718**DCL-ENT
M$STLPP
      6701**DCL-ENT
M$STRAP
      6718**DCL-ENT
M$STRMATTR
      6690**DCL-ENT
M$STRMCTL
      6688**DCL-ENT
M$STRMTAB
      6691**DCL-ENT
M$SYMBIO
      6729**DCL-ENT
M$SYSCON
      6715**DCL-ENT
M$SYSID
      6733**DCL-ENT
M$TDCLOSE
      6714**DCL-ENT
M$TDOPEN
      6713**DCL-ENT
M$TDREQCPU
      6714**DCL-ENT
M$TEMPWROC
      6708**DCL-ENT
M$TIME
      6731**DCL-ENT
M$TRAP
      6718**DCL-ENT
PL6.E3A0      #001=TOU$DEBLOCKER File=TOU$DEBLOCKER.:E05TSI                      WED 07/30/97 06:40 Page:143
M$TRMISC
      6693**DCL-ENT
M$TRMPRG
      6689**DCL-ENT
M$TRTN
      6722**DCL-ENT
M$TRUNC
      6665**DCL-ENT
M$TTIMER
      6718**DCL-ENT
M$UC
      6688**DCL
M$UMPL
      6705**DCL-ENT
M$UNFID
      6727**DCL-ENT
M$UNLATCH
      6684**DCL-ENT
M$UNSHARE
      6681**DCL-ENT
M$USRFIELD
      6724**DCL-ENT
M$VIRTUAL
      6699**DCL-ENT
M$WAIT
      6722**DCL-ENT
M$WEOF
      6667**DCL-ENT
M$WRITE
      6665**DCL-ENT
M$WRSYSLOG
      6713**DCL-ENT
M$XCON
      6719**DCL-ENT
M$XCONRTN
      6680**DCL-ENT
PL6.E3A0      #001=TOU$DEBLOCKER File=TOU$DEBLOCKER.:E05TSI                      WED 07/30/97 06:40 Page:144
M$XEQTIME
      6732**DCL-ENT
M$XFLUSH
      6673**DCL-ENT
M$XMOUSE
      6710**DCL-ENT
M$XXX
      6676**DCL-ENT
M$YC
      6678**DCL-ENT
MCA_B
      9451**DCL
MCA_B.COMMAND
      9461**DCL
MCA_B.COMMAND.DATA
      9463**DCL
MCA_B.COMMAND.HDR_BLK
      9462**DCL
MCA_B.CONFIG
      9504**DCL
MCA_B.CONFIG.DATA1
      9507**DCL
MCA_B.CONFIG.DATA1.NUMTAB
      9509**DCL
MCA_B.CONFIG.HDR_BLK
      9505**DCL
MCA_B.DCW_LIST.DCW1
      9454**DCL
MCA_B.DCW_LIST.DCW1.ADDRESS
      9455**DCL
MCA_B.DCW_LIST.DCW1.COUNT
      9456**DCL
MCA_B.DCW_LIST.DCW2
      9458**DCL
MCA_B.DCW_LIST.IDCW1
      9453**DCL
PL6.E3A0      #001=TOU$DEBLOCKER File=TOU$DEBLOCKER.:E05TSI                      WED 07/30/97 06:40 Page:145
MCA_B.DCW_LIST.IDCW2
      9457**DCL
MCA_B.DIRECTORY
      9485**DCL
MCA_B.DIRECTORY.CURRENT
      9490**DCL
MCA_B.DIRECTORY.DATA
      9487**DCL
MCA_B.DIRECTORY.HDR_BLK
      9486**DCL
MCA_B.DIRECTORY.SIZE
      9489**DCL
MCA_B.DISKETTE_HEADER
      9482**DCL
MCA_B.DISKETTE_HEADER.DATA
      9484**DCL
MCA_B.DISKETTE_HEADER.HDR_BLK
      9483**DCL
MCA_B.DUMMY_BUFFER
      9500**DCL
MCA_B.DUMMY_BUFFER.DATA_WORDS
      9502**DCL
MCA_B.DUMMY_BUFFER.HDR_BLK
      9501**DCL
MCA_B.FILE
      9491**DCL
MCA_B.FILE.BYTES_READ
      9499**DCL
MCA_B.FILE.DATA
      9493**DCL
MCA_B.FILE.DATA.HDR
      9494**DCL
MCA_B.FILE.DATA.LD_CTL
      9495**DCL
MCA_B.FILE.DATA.SECTORS
      9496**DCL
PL6.E3A0      #001=TOU$DEBLOCKER File=TOU$DEBLOCKER.:E05TSI                      WED 07/30/97 06:40 Page:146
MCA_B.FILE.HDR_BLK
      9492**DCL
MCA_B.FILE.SIZE
      9498**DCL
MCA_B.STATUS.ADAPTER
      9476**DCL
MCA_B.STATUS.IIOC
      9481**DCL
MCA_B.STATUS.INITIATE
      9474**DCL
MCA_B.STATUS.MAJOR
      9467**DCL
MCA_B.STATUS.MARKER
      9472**DCL
MCA_B.STATUS.ODD_WORD
      9471**DCL
MCA_B.STATUS.POWER
      9466**DCL
MCA_B.STATUS.RESIDUE
      9480**DCL
MCA_B.STATUS.SUB
      9468**DCL
MCA_B.STATUS.SUB.VALUE
      9470**DCL
MCA_B.STATUS.TERMINATE
      9465**DCL
MCA_B.STATUS.TERM_POS
      9479**DCL
MCA_B.STATUS.WAS_R_W
      9478**DCL
POSITION_IFAD.IDBUF_ IN PROCEDURE DB_REPOSITION_IFAD
      9922**DCL
POSITION_IFAD.KEY_ IN PROCEDURE DB_REPOSITION_IFAD
      9920**DCL
POSITION_IFAD.KEY_.BOUND IN PROCEDURE DB_REPOSITION_IFAD
      9920**DCL
PL6.E3A0      #001=TOU$DEBLOCKER File=TOU$DEBLOCKER.:E05TSI                      WED 07/30/97 06:40 Page:147
POSITION_IFAD.KEY_.KEY$ IN PROCEDURE DB_REPOSITION_IFAD
      9921**DCL
POSITION_IFAD.V.BOF# IN PROCEDURE DB_REPOSITION_IFAD
      9924**DCL
POSITION_IFAD.V.BRK# IN PROCEDURE DB_REPOSITION_IFAD
      9924**DCL
POSITION_IFAD.V.DCB# IN PROCEDURE DB_REPOSITION_IFAD
      9922**DCL
POSITION_IFAD.V.EOF# IN PROCEDURE DB_REPOSITION_IFAD
      9924**DCL
POSITION_IFAD.V.ID# IN PROCEDURE DB_REPOSITION_IFAD
      9923**DCL
POSITION_IFAD.V.IDALL# IN PROCEDURE DB_REPOSITION_IFAD
      9925**DCL
POSITION_IFAD.V.IDS# IN PROCEDURE DB_REPOSITION_IFAD
      9923**DCL
POSITION_IFAD.V.INDX# IN PROCEDURE DB_REPOSITION_IFAD
      9925**DCL
POSITION_IFAD.V.IOERROK# IN PROCEDURE DB_REPOSITION_IFAD
      9925**DCL
POSITION_IFAD.V.KEYR# IN PROCEDURE DB_REPOSITION_IFAD
      9923**DCL
POSITION_IFAD.V.KEYS# IN PROCEDURE DB_REPOSITION_IFAD
      9923**DCL
POSITION_IFAD.V.NEXTKEY# IN PROCEDURE DB_REPOSITION_IFAD
      9927**DCL
POSITION_IFAD.V.NOMARKS# IN PROCEDURE DB_REPOSITION_IFAD
      9927**DCL
POSITION_IFAD.V.RECNUM# IN PROCEDURE DB_REPOSITION_IFAD
      9926**DCL
POSITION_IFAD.V_ IN PROCEDURE DB_REPOSITION_IFAD
      9920**DCL
PTR_ IN PROCEDURE DB_READ_MCA_DATA
     10153**DCL
RCW.REPORT_CODE
      9516**DCL
PL6.E3A0      #001=TOU$DEBLOCKER File=TOU$DEBLOCKER.:E05TSI                      WED 07/30/97 06:40 Page:148
READ_IFAD.BUF_ IN PROCEDURE DB_FILL_BLOCK
      9694**DCL
READ_IFAD.BUF_.BOUND IN PROCEDURE DB_FILL_BLOCK
      9694**DCL
READ_IFAD.BUF_.BUF$ IN PROCEDURE DB_FILL_BLOCK
      9695**DCL
READ_IFAD.IDBUF_ IN PROCEDURE DB_FILL_BLOCK
      9696**DCL
READ_IFAD.KEY_ IN PROCEDURE DB_FILL_BLOCK
      9692**DCL
READ_IFAD.KEY_.BOUND IN PROCEDURE DB_FILL_BLOCK
      9692**DCL
READ_IFAD.KEY_.KEY$ IN PROCEDURE DB_FILL_BLOCK
      9693**DCL
READ_IFAD.V.DCB# IN PROCEDURE DB_FILL_BLOCK
      9696**DCL
READ_IFAD.V.DVBYTE IN PROCEDURE DB_FILL_BLOCK
      9706**DCL
READ_IFAD.V.DVBYTE.BIN# IN PROCEDURE DB_FILL_BLOCK
      9707**DCL
READ_IFAD.V.DVBYTE.BP# IN PROCEDURE DB_FILL_BLOCK
      9706**DCL
READ_IFAD.V.DVBYTE.CONT# IN PROCEDURE DB_FILL_BLOCK
      9709**DCL
READ_IFAD.V.DVBYTE.NODAT# IN PROCEDURE DB_FILL_BLOCK
      9708**DCL
READ_IFAD.V.DVBYTE.TOP# IN PROCEDURE DB_FILL_BLOCK
      9706**DCL
READ_IFAD.V.DVBYTE.TRANS# IN PROCEDURE DB_FILL_BLOCK
      9708**DCL
READ_IFAD.V.DVBYTE.VFC# IN PROCEDURE DB_FILL_BLOCK
      9707**DCL
READ_IFAD.V.EVENT# IN PROCEDURE DB_FILL_BLOCK
      9705**DCL
READ_IFAD.V.FULL# IN PROCEDURE DB_FILL_BLOCK
      9698**DCL
PL6.E3A0      #001=TOU$DEBLOCKER File=TOU$DEBLOCKER.:E05TSI                      WED 07/30/97 06:40 Page:149
READ_IFAD.V.ID# IN PROCEDURE DB_FILL_BLOCK
      9697**DCL
READ_IFAD.V.IDS# IN PROCEDURE DB_FILL_BLOCK
      9698**DCL
READ_IFAD.V.IOERROK# IN PROCEDURE DB_FILL_BLOCK
      9699**DCL
READ_IFAD.V.KEYCHNG# IN PROCEDURE DB_FILL_BLOCK
      9698**DCL
READ_IFAD.V.KEYR# IN PROCEDURE DB_FILL_BLOCK
      9697**DCL
READ_IFAD.V.KEYS# IN PROCEDURE DB_FILL_BLOCK
      9697**DCL
READ_IFAD.V.KEYTYPE# IN PROCEDURE DB_FILL_BLOCK
      9705**DCL
READ_IFAD.V.ODFNC# IN PROCEDURE DB_FILL_BLOCK
      9710**DCL
READ_IFAD.V.RECNUM# IN PROCEDURE DB_FILL_BLOCK
      9710**DCL
READ_IFAD.V.REREADPOS# IN PROCEDURE DB_FILL_BLOCK
      9711**DCL
READ_IFAD.V.SEED# IN PROCEDURE DB_FILL_BLOCK
      9706**DCL
READ_IFAD.V.SINPUTSIZE# IN PROCEDURE DB_FILL_BLOCK
      9710**DCL
READ_IFAD.V.STRPVFC# IN PROCEDURE DB_FILL_BLOCK
      9709**DCL
READ_IFAD.V.WAIT# IN PROCEDURE DB_FILL_BLOCK
      9696**DCL
READ_IFAD.V_ IN PROCEDURE DB_FILL_BLOCK
      9692**DCL
READ_IFAD.BUF_ IN PROCEDURE DB_REFILL_BLOCK
      9979**DCL
READ_IFAD.BUF_.BOUND IN PROCEDURE DB_REFILL_BLOCK
      9979**DCL
READ_IFAD.BUF_.BUF$ IN PROCEDURE DB_REFILL_BLOCK
      9980**DCL
PL6.E3A0      #001=TOU$DEBLOCKER File=TOU$DEBLOCKER.:E05TSI                      WED 07/30/97 06:40 Page:150
READ_IFAD.IDBUF_ IN PROCEDURE DB_REFILL_BLOCK
      9981**DCL
READ_IFAD.KEY_ IN PROCEDURE DB_REFILL_BLOCK
      9977**DCL
READ_IFAD.KEY_.BOUND IN PROCEDURE DB_REFILL_BLOCK
      9977**DCL
READ_IFAD.KEY_.KEY$ IN PROCEDURE DB_REFILL_BLOCK
      9978**DCL
READ_IFAD.V.DCB# IN PROCEDURE DB_REFILL_BLOCK
      9981**DCL
READ_IFAD.V.DVBYTE IN PROCEDURE DB_REFILL_BLOCK
      9991**DCL
READ_IFAD.V.DVBYTE.BIN# IN PROCEDURE DB_REFILL_BLOCK
      9992**DCL
READ_IFAD.V.DVBYTE.BP# IN PROCEDURE DB_REFILL_BLOCK
      9991**DCL
READ_IFAD.V.DVBYTE.CONT# IN PROCEDURE DB_REFILL_BLOCK
      9994**DCL
READ_IFAD.V.DVBYTE.NODAT# IN PROCEDURE DB_REFILL_BLOCK
      9993**DCL
READ_IFAD.V.DVBYTE.TOP# IN PROCEDURE DB_REFILL_BLOCK
      9991**DCL
READ_IFAD.V.DVBYTE.TRANS# IN PROCEDURE DB_REFILL_BLOCK
      9993**DCL
READ_IFAD.V.DVBYTE.VFC# IN PROCEDURE DB_REFILL_BLOCK
      9992**DCL
READ_IFAD.V.EVENT# IN PROCEDURE DB_REFILL_BLOCK
      9990**DCL
READ_IFAD.V.FULL# IN PROCEDURE DB_REFILL_BLOCK
      9983**DCL
READ_IFAD.V.ID# IN PROCEDURE DB_REFILL_BLOCK
      9982**DCL
READ_IFAD.V.IDS# IN PROCEDURE DB_REFILL_BLOCK
      9983**DCL
READ_IFAD.V.IOERROK# IN PROCEDURE DB_REFILL_BLOCK
      9984**DCL
PL6.E3A0      #001=TOU$DEBLOCKER File=TOU$DEBLOCKER.:E05TSI                      WED 07/30/97 06:40 Page:151
READ_IFAD.V.KEYCHNG# IN PROCEDURE DB_REFILL_BLOCK
      9983**DCL
READ_IFAD.V.KEYR# IN PROCEDURE DB_REFILL_BLOCK
      9982**DCL
READ_IFAD.V.KEYS# IN PROCEDURE DB_REFILL_BLOCK
      9982**DCL
READ_IFAD.V.KEYTYPE# IN PROCEDURE DB_REFILL_BLOCK
      9990**DCL
READ_IFAD.V.ODFNC# IN PROCEDURE DB_REFILL_BLOCK
      9995**DCL
READ_IFAD.V.RECNUM# IN PROCEDURE DB_REFILL_BLOCK
      9995**DCL
READ_IFAD.V.REREADPOS# IN PROCEDURE DB_REFILL_BLOCK
      9996**DCL
READ_IFAD.V.SEED# IN PROCEDURE DB_REFILL_BLOCK
      9991**DCL
READ_IFAD.V.SINPUTSIZE# IN PROCEDURE DB_REFILL_BLOCK
      9995**DCL
READ_IFAD.V.STRPVFC# IN PROCEDURE DB_REFILL_BLOCK
      9994**DCL
READ_IFAD.V.WAIT# IN PROCEDURE DB_REFILL_BLOCK
      9981**DCL
READ_IFAD.V_ IN PROCEDURE DB_REFILL_BLOCK
      9977**DCL
READ_MCA.V.ALTPATH IN PROCEDURE DB_READ_MCA_DATA
     10173**DCL
READ_MCA.V.ALTPATH.CHAN# IN PROCEDURE DB_READ_MCA_DATA
     10173**DCL
READ_MCA.V.ALTPATH.IOM# IN PROCEDURE DB_READ_MCA_DATA
     10173**DCL
READ_MCA.V.DCB# IN PROCEDURE DB_READ_MCA_DATA
     10172**DCL
READ_MCA.V.EVENT# IN PROCEDURE DB_READ_MCA_DATA
     10174**DCL
READ_MCA.V.PCW# IN PROCEDURE DB_READ_MCA_DATA
     10174**DCL
PL6.E3A0      #001=TOU$DEBLOCKER File=TOU$DEBLOCKER.:E05TSI                      WED 07/30/97 06:40 Page:152
READ_MCA.V.TIMEOUT# IN PROCEDURE DB_READ_MCA_DATA
     10175**DCL
READ_MCA.V.WAIT# IN PROCEDURE DB_READ_MCA_DATA
     10172**DCL
READ_MCA.V_ IN PROCEDURE DB_READ_MCA_DATA
     10171**DCL
RECORD
      9527**DCL
RECORD.BCD.DATA
      9531**DCL
RECORD.BINARY
      9534**DCL
RECORD.BINARY.DATA
      9535**DCL
RECORD.BINARY.DATA.CS
      9537**DCL
RECORD.BINARY.DATA.CS.CHECKSUM
      9539**DCL
RECORD.BINARY.DATA.CS.DATA
      9540**DCL
RECORD.BINARY.DATA.CS.WD1
      9538**DCL
RECORD.BINARY.DATA.LBL_SEQ
      9541**DCL
REVISION_B
      9554**DCL
REVISION_B.DEER
      9563**DCL
REVISION_B.MAINTENANCE
      9559**DCL
REVISION_B.MAINTENANCE.CONTRACT
      9561**DCL
TOU$CLEAR_BLOCK
      9646**ENTRY
TOU$CLEAR_IFAD
      9619**ENTRY
PL6.E3A0      #001=TOU$DEBLOCKER File=TOU$DEBLOCKER.:E05TSI                      WED 07/30/97 06:40 Page:153
TOU$DEBLOCKER
        46**PROC
TOU$READ_MCA_DATA
      9660**ENTRY
